{
  "hex": "010000000001016fc6b2f08c2e2792a8e9c771c28fc1af0a0f09767ec3e809266c4ecf2baedbdd0000000000feffffff0200ce47c6782d0000225120c3afd191d1eb229557a96edb8158b72ac9e0cfd2cf20971aee936d9c2adffc2400e1f50500000000fdd5046a2029255bf5b0e28f9288351988a2a279a286000e62146c543b6e41b099559f73a64db0046ab9e6bfe1535ec5a4ca1bc27448b704b4d4f397e3760262e5b31f71efa1ba454a99c69fc1737ee584ea3be25468972494f4d3b7c3562242c5933f51cf819a652af9a6ffa1131e85e48a5b823408f744f494b3d7a3364222a5f35f31afe1fa050ad986df81333ea5c4aa7ba21428d764d4b493f78316620285d37f118fc1da25ea39663f61d3de45244a9b42f4c837843454731763f682e265339ff16f213ac5ca19461f41f3fe65046abb62d4e817a41474533743d6a2c24513bfd14f011ae5aa79267f21939e05640adb02b48877c47414335723b6c2a22573dfb12f617a858a59065f01b3be25442afb2294a857e4543413770396e2820553ff910f415aa56ab9e6bfe1535ec5a4ca1bc27448b704b4d4f397e3760262e5b31f71efa1ba454a99c69fc1737ee584ea3be25468972494f4d3b7c3562242c5933f51cf819a652af9a6ffa1131e85e48a5b823408f744f494b3d7a3364222a5f35f31afe1fa050ad986df81333ea5c4aa7ba21428d764d4b493f78316620285d37f118fc1da25ea39663f61d3de45244a9b42f4c837843454731763f682e265339ff16f213ac5ca19461f41f3fe65046abb62d4e817a41474533743d6a2c24513bfd14f011ae5aa79267f21939e05640adb02b48877c47414335723b6c2a22573dfb12f617a858a59065f01b3be25442afb2294a857e4543413770396e2820553ff910f415aa56ab9e6bfe1535ec5a4ca1bc27448b704b4d4f397e3760262e5b31f71efa1ba454a99c69fc1737ee584ea3be25468972494f4d3b7c3562242c5933f51cf819a652af9a6ffa1131e85e48a5b823408f744f494b3d7a3364222a5f35f31afe1fa050ad986df81333ea5c4aa7ba21428d764d4b493f78316620285d37f118fc1da25ea39663f61d3de45244a9b42f4c837843454731763f682e265339ff16f213ac5ca19461f41f3fe65046abb62d4e817a41474533743d6a2c24513bfd14f011ae5aa79267f21939e05640adb02b48877c47414335723b6c2a22573dfb12f617a858a59065f01b3be25442afb2294a857e4543413770396e2820553ff910f415aa56ab9e6bfe1535ec5a4ca1bc27448b704b4d4f397e3760262e5b31f71efa1ba454a99c69fc1737ee584ea3be25468972494f4d3b7c3562242c5933f51cf819a652af9a6ffa1131e85e48a5b823408f744f494b3d7a3364222a5f35f31afe1fa050ad986df81333ea5c4aa7ba21428d764d4b493f78316620285d37f118fc1da25ea39663f61d3de45244a9b42f4c837843454731763f682e265339ff16f213ac5ca19461f41f3fe65046abb62d4e817a41474533743d6a2c24513bfd14f011ae5aa79267f21939e05640adb02b48877c47414335723b6c2a22573dfb12f617a858a59065f01b3be25442afb2294a857e4543413770396e2820553ff910f415aa56ab9e6bfe1535ec5a4ca1bc27448b704b4d4f397e3760262e5b31f71efa1ba454a99c69fc1737ee584ea3be25468972494f4d3b7c3562242c5933f51cf819a652af9a6ffa1131e85e48a5b823408f744f494b3d7a3364222a5f35f31afe1fa050ad986df81333ea5c4aa7ba21428d764d4b493f78316620285d37f118fc1da25ea39663f61d3de45244a9b42f4c8378469e7db06c327cd271cd1359b2ab549d116d53e8b4b6684c1e50e7d9c962f144202fd75098a2f5f0c454de612fbe5d6768c87ec8666e552ac61f4dae2ac953a0be9a994f4b703d64e24e284d32aae6df3f998e77ed912557d19d046f83742fd9aa53f9528af0ea5485f55210c358c9945c90d14bc1b1c1ca9f5fe2855635307dd835dede32d0f37c01f946cbb84c0ad8dcb80ae6f420644baf2ab71b673d500ae3fd0a3db4b87103ae88128890347978dbc6c8b6c088642b41cfc622d29d49df9015022f1014a291009d9601a4ff764dcedabfafda3fc1dc71796517cb284480c1ae95a138107127e99702d21e6e55462417b48904f832ae914ec8aeab9ce5cc1a11247f09182691da2b3c9c612e781e202f2d2cd7e28590c356f6ccd8aba0f97e302f4e676fc6c06c31294d5a0cc46d7fa9a69ba90a71f37358e061208168ccb2ab513b6b92e0dad93daad8977bc22649c4e063eaa40f378431c5322f03b7117c572481dac20eee651370324d3c2a62964e500682fc36f5032f132ca6ae1584f3a4c4f2fef04f744a31539bbbc9918101bfa5711ed6989be9367bfbbd09c8fa9943b3ed8045fffee9810c47d984a7faa0676f1680a8099c7beb932afd05a52eac69be8dc49f9f768d3cfa50206b69240eb4b00210a3a34d85595904836a551b35f4d3486dcc46f013c0abc57f0940d8a33ec80baf05ae5a3518ceabaf09c4c0e711e2e4ea5cc9ff0b4fcd8890557f83dc79282899dbbd8f8d26496134a8da69aa45cbcbe81474c1abedb81fec1119166aa27c7d2051ead632bd2040ac9f986c278802d9a5a01cc8c316940c9a75f3827ae8a7eb1cac98591a1629814e0da32bd120aa268a1d415a34297d9df687a98fc3a213707f201569f9cf04eb40d2403d90cab2f503836e3d83b4197fd4090ae5c038b99a83b6c52cf3a4fdb29d00542dc533515305c5e15302a81258feaeb4e321d4a09a1fe228d217934a3be549f2f1a0c98770b2c63c32a40ed31fdabb0a76158fc57622823edbb1ce40ba75debf5ff44ced601651fecc0449b431368fdce7dad4da7ee690e1ad20fb663f38e339fe44c00070e3a949f81f5bf44185cc29e9a9eba178d730ba2cbbcf8eb7766c600f8e56986713b01257e885cb20a744b8dff686ff9793bdd4f630fd9e7d854b2bad66b4adefaddb859f924453417d8e7ce00519bb619302d8a8ce5e0eadf40ba5b5cd2ba502acc436b1a540d800f95006c5a195692383247f3cefa437194221cc319ffabb484084a83983ebeb6a8ab577970ce257889bde7f26c964dfa13b2084b96fe8c6ab3f16f9843a8c4df4524a5dd935fa5ec0e3e65fd4969d0bf5a43a625be6e0f20134271129e5807d324465a32f92c1cd03c34550a5acfb0d67e056e8dd2c20802344bd781bc93917c2ec7883b425c042a62943e831fa176bc7b483284e8003ff2646d61482421d39668bb32e28c7ca2a49609f2e1725021742be8a764d1badc915c23ee897fa3b809531cbffaf536b93256b7c74f8457056b06e7bb6e52bdcfdcedc1050a2198006c1eb48ee5e0de5591f2ac3eb7aba1cb4497ab3c0597d8c21b55565d3b3c0d9641d37b8794c5f7422e21721c2c7957ae2202dfe5d81b7c463428bd8efda09035abaa6ed0d662289f756ecddf019051e4500702ac03c6f0e43e34dd56a60cbe7c5e2c31bfcce2364e500dbcd4ceb65a2d8668db38702bb0beb290ed598bbdbcdd84c4f8d081d5da7f1db10a1e2246b5655eb8bb93937943b9fdac33b54623e3183ab2a8ad794998a59dc32e614392b985b331709dfe8b5ebd9f50239c48a099d2a1f206884716cdec554d11d35cfc41e4e95401354690d2f2eb80854c965f91695cf88a0a54604fddafeb3bc79bc2b7fdd51c62c5470a12c32d2777caa0c60f03ff37a52444ca2c1b2bd22b2ddbc41c3970ee805b72d74f7f705f0b5ea0e6af69f5cd023388bb69d8507856b4d58999d3ff49227d5796d9daa96b00bd0adeb5574b350bb1f76885d756477658acc88de4bfc67d89d272f830d8ad14402fbb55a8c7ea1487d0de22e4806acaeb45c72d81f3dfd25c3f4aa356a2b4d95a63a74a50423950dccd3cd878437488790a4cd7f8bbea9fbb4a175c32c7fcca1e1374f7610946c1896e425d965bbf9e12790b47797456d78b202bab851d0ed8813160bf521aefa08d56410029bc00735666573a5c01456d595623991741f7c5361967fc75d10562a5a38a55177dc83572ac4c2422ab0d5898753b8efd8b423365b306f004504f0c27dff67d961f17fdb7e9f3be6408f54501058df1c546228820e4fc22b766a41752e33e0d91dbd6df058049467c40eb6d5625d63edbe75af51cce5e8ddeb5c84433420e5c29e3ed0f7f7709dcca462dacc2ddd988721b4d67de41c4d53b62e19ca57132a07f493c3add62a64f742212a71a72cf2234f360faecccdf25ebb2442d6904cbdcd45d987606ebc0fd6d1261ec334b42aa69754fd5091574a55c099af371a57dd094b76a18764779f4f01baee68d45c138e5d28b77614871ce48ec610931573d2844a6f80016dd0884f3004ec8772a3a06ecf87ca738a24ccdaf6f5727b653982a8a5e982d37a5db183c3acfffc6a5204f8539dc0f4dfc12bd0ad2cb7b89618a6f0bbf054cfc32960f640488480d0bf8997bdab68e8b183e3a947bfc538abf9945888275fea129b57346c2d70b6e24c5f021e94817960537e296f8fb14a5086e2aaf482cffaf03ba85895fda891c19f07b8186002db74b759f07aca7faa3c001fef059f88e8c99af76cd48de55fcd2425e4461eeb9d67cb7393695d4fa324d94f4d4ef1b56b0151142e6e4abc654f5e63e70c357d35ff492a256dd19e9e5e5849482e9e39c4aa68fa045898160a33479f6e32b878c12d33f052a5d756f3ab1cd9327cce2c16d795a945daae4ad6696ece7369acc9d8d2d8dd3f525a48c9a0839aeb7b0aa119f26c5ac16b7ff08d4938456ce656ed7f3db53cdba6419d54c1d247d3c76edcac06f29d977d9b316f18f03df2de4e954ac4168d6e849ed50de5b27e5b4924f69be419102ffe65dadc26efc27b7b92fdd867e9ef054f7b1bfd70afd5ee0a7dc9b62e8ec69446d3d1c318a226792325f420f509f6e056c69d48faaa2e927bc03df9482debdb49118037e94da7f55284e2531b5592fa72ab28be9949156babb0a342d9ef314bc4947679f326c72fafe78693bdaaf12cc2ab2a54460b48d02dedf939842cc153e9edccba56affe698679eb9929ffc0964a7657e3b11662f7a144800641e62857b3078a509904df9f784dd2118782f4fdd919588ae1e1e0adc717f36f8fc82733244f16ce4879e8650a1020102101e2028383a7094bbd8d9dcdee9ecf209425f606d777ca0a9acc3fa02252e474d53696b70737e8388abbdd7e8f0f4f6f8ff031c1d323f42525861676d777c8dabcbe8f5f6000000000000000000121e344701fd210500b6c9f7104f4d7fce344a20d235aabf42073eb6a6bbfda7254488f168e646a3b7010799d1059b446f41c988efe49356f628f3710065e3836c9d43e9b1f3e24a68c8883792c9aceb6a270bda27d53cc12cb067f662afca39f48ec0523c2b204b41afe22d4daaebc619af396b3f61978917de4a75703e45a37682cc361497287c06f5221bead515f5ac28f601644ec34f38c53e47d5124c67a465207daa3745625b02b5fbb44004a42c1f1a589a2bac13a5c9e2bc79bb4124b8f170d2c20d640839fd4bbea143147d963b333db4c783e528ba3f0ca679e45709662adf111156776a51fa28d8890cc2f9d09561788b4014301e7812c1275f321b088ff6e969baa819396538028d92a9457ed747ad2d275e477222d362cb3f012bee04204319d4da02e6a3edb59bf78ef03d92afe413613dc151e187f11e0d3b13b054092dc6c8e172f8d21c36ccd9d3c96aa1dfc2347dd077dc21361079e8e976e24471384406e463cfeb0f35d14f37c4cd0a75d13101ec03a705f37cf0c47e2448820d60e290fa59da7bf652a585b43bf26590538bcb20ec235d8a1e15d32fccc752d309e54e48e2a50c0a16f03f1060a34081cf70d905a70e371b2e8bf048112b277af10b1f93071d8d1a0966666be16d05abb4d0dff0d49012427cc821b41d2fc364bd39dc3afedb675aac65652e31f6a3eb197c52c358da62b639480525fdae2cc486d8379771061fd531b779a07c0e903a3f1b898463b4d2154bb03d760ccdcf352b4f5a13aff23f349fc0853d668e355a45014894674cdf7828636f61a1f057493b85e61c647bb93235aa2e231a047cc97af6b375e48ba2a1531f0abc99468bf98c80a4643bb65dfd6368978f0c5a3c00e68ff2baf6f17b2064146a199d70c4f2ef21ab7575b418f23e478b6b7f146e36e5423b3860f22a7cb7e068e6500433d8861a13a178101144803b28d642021e88f82ec507fe84fe52eff54a6ee61f64ac5e7b76aafdf4aa35c3ae4e9edb540168e878757a2ce1d5d6747b9e8cdc70bc86402d7457fe0e759db111b188e9e29f72dbe017bce9a16c50223f922eac8476be9b59d8b984499c3c74b8cc052eb45d35e6174b78260802eccf8a50c62f66db06aa2cb02d1b3e6d63b400a9e3da7b6c526d8fdbddec824826543ee604693fb97364a05af8f3b7a943266a359fabb4f4ea7b5d1b8887a6dd9413e65eb6b35175f2fc2d3336a4ce6e5b8bb88f7b52dbc446b787bfb6c785664cfc9e78845d525a36640d2319f55285a8fbd822c9983e3dc3bcfff0d41086abb5544c324a9058c60646192dca39e37cd830500d83f39c60462e013644b439131bda9d855f0687e973a96e03badca2618ec742eec7714d5d7b552fd63a92c176886d555953b7c8d4542ffd233eab4cc4d1d45f7e1815a30d8dd7fca6cc6b11ba53ecfac87d3465f476c1a0ce2021698dab2d1c674ea218e9cac75991c440d340714843dd252f966ca2b75f6dfc67cedbd3d3883c02c25b2998ed513359e2e96e429e1b483cb0c2bafcb5ef9e119536ee8ebda260d7ff8654c8b8af0e97e9a4a474bed6b15674ca3b4e761b3a3f97e0b523c27817ff722ad390bcb265e7dbc1f2323c8daded82b733c34a8b316841d0f994c123cad69485b78d7c45bafbb9cdecdb1f95dda7407cd74fad5fdb38c18e8ecbd43b40e432809ef9fa417f737deae7057beff564f692c130e784a58f90b60323518e815580d454224624853d221f53c295d4c8e057eff62e927f4be8787b1614ae287af6b7d06093fdd4a20c37e2b6590b0687e82106844265a8b1a48544afa52cb579a972aa7762f905b01be92ba889e5c151caebaf266cbb7a91f18282000000",
  "txid": "06c9a8c56f6f629ef9ccc1542b66287852d6473c7559b286518cefb3825a8793",
  "hash": "51845c2e9474890a0f2a3365dcbafbe14b02ed80da9b8ed0dd97bfbb9dfbc512",
  "size": 5085,
  "vsize": 2278,
  "version": 1,
  "locktime": 130,
  "vin": [
    {
      "txid": "dddbae2bcf4e6c2609e8c37e76090f0aafc18fc271c7e9a892272e8cf0b2c66f",
      "vout": 0,
      "scriptSig": {
        "asm": "",
        "hex": ""
      },
      "txinwitness": [
        "8a2f5f0c454de612fbe5d6768c87ec8666e552ac61f4dae2ac953a0be9a994f4b703d64e24e284d32aae6df3f998e77ed912557d19d046f83742fd9aa53f9528af0ea5485f55210c358c9945c90d14bc1b1c1ca9f5fe2855635307dd835dede32d0f37c01f946cbb84c0ad8dcb80ae6f420644baf2ab71b673d500ae3fd0a3db4b87103ae88128890347978dbc6c8b6c088642b41cfc622d29d49df9015022f1014a291009d9601a4ff764dcedabfafda3fc1dc71796517cb284480c1ae95a138107127e99702d21e6e55462417b48904f832ae914ec8aeab9ce5cc1a11247f09182691da2b3c9c612e781e202f2d2cd7e28590c356f6ccd8aba0f97e302f4e676fc6c06c31294d5a0cc46d7fa9a69ba90a71f37358e061208168ccb2ab513b6b92e0dad93daad8977bc22649c4e063eaa40f378431c5322f03b7117c572481dac20eee651370324d3c2a62964e500682fc36f5032f132ca6ae1584f3a4c4f2fef04f744a31539bbbc9918101bfa5711ed6989be9367bfbbd09c8fa9943b3ed8045fffee9810c47d984a7faa0676f1680a8099c7beb932afd05a52eac69be8dc49f9f768d3cfa50206b69240eb4b00210a3a34d85595904836a551b35f4d3486dcc46f013c0abc57f0940d8a33ec80baf05ae5a3518ceabaf09c4c0e711e2e4ea5cc9ff0b4fcd8890557f83dc79282899dbbd8f8d26496134a8da69aa45cbcbe81474c1abedb81fec1119166aa27c7d2051ead632bd2040ac9f986c278802d9a5a01cc8c316940c9a75f3827ae8a7eb1cac98591a1629814e0da32bd120aa268a1d415a34297d9df687a98fc3a213707f201569f9cf04eb40d2403d90cab2f503836e3d83b4197fd4090ae5c038b99a83b6c52cf3a4fdb29d00542dc533515305c5e15302a81258feaeb4e321d4a09a1fe228d217934a3be549f2f1a0c98770b2c63c32a40ed31fdabb0a76158fc57622823edbb1ce40ba75debf5ff44ced601651fecc0449b431368fdce7dad4da7ee690e1ad20fb663f38e339fe44c00070e3a949f81f5bf44185cc29e9a9eba178d730ba2cbbcf8eb7766c600f8e56986713b01257e885cb20a744b8dff686ff9793bdd4f630fd9e7d854b2bad66b4adefaddb859f924453417d8e7ce00519bb619302d8a8ce5e0eadf40ba5b5cd2ba502acc436b1a540d800f95006c5a195692383247f3cefa437194221cc319ffabb484084a83983ebeb6a8ab577970ce257889bde7f26c964dfa13b2084b96fe8c6ab3f16f9843a8c4df4524a5dd935fa5ec0e3e65fd4969d0bf5a43a625be6e0f20134271129e5807d324465a32f92c1cd03c34550a5acfb0d67e056e8dd2c20802344bd781bc93917c2ec7883b425c042a62943e831fa176bc7b483284e8003ff2646d61482421d39668bb32e28c7ca2a49609f2e1725021742be8a764d1badc915c23ee897fa3b809531cbffaf536b93256b7c74f8457056b06e7bb6e52bdcfdcedc1050a2198006c1eb48ee5e0de5591f2ac3eb7aba1cb4497ab3c0597d8c21b55565d3b3c0d9641d37b8794c5f7422e21721c2c7957ae2202dfe5d81b7c463428bd8efda09035abaa6ed0d662289f756ecddf019051e4500702ac03c6f0e43e34dd56a60cbe7c5e2c31bfcce2364e500dbcd4ceb65a2d8668db38702bb0beb290ed598bbdbcdd84c4f8d081d5da7f1db10a1e2246b5655eb8bb93937943b9fdac33b54623e3183ab2a8ad794998a59dc32e614392b985b331709dfe8b5ebd9f50239c48a099d2a1f206884716cdec554d11d35cfc41e4e95401354690d2f2eb80854c965f91695cf88a0a54604fddafeb3bc79bc2b7fdd51c62c5470a12c32d2777caa0c60f03ff37a52444ca2c1b2bd22b2ddbc41c3970ee805b72d74f7f705f0b5ea0e6af69f5cd023388bb69d8507856b4d58999d3ff49227d5796d9daa96b00bd0adeb5574b350bb1f76885d756477658acc88de4bfc67d89d272f830d8ad14402fbb55a8c7ea1487d0de22e4806acaeb45c72d81f3dfd25c3f4aa356a2b4d95a63a74a50423950dccd3cd878437488790a4cd7f8bbea9fbb4a175c32c7fcca1e1374f7610946c1896e425d965bbf9e12790b47797456d78b202bab851d0ed8813160bf521aefa08d56410029bc00735666573a5c01456d595623991741f7c5361967fc75d10562a5a38a55177dc83572ac4c2422ab0d5898753b8efd8b423365b306f004504f0c27dff67d961f17fdb7e9f3be6408f54501058df1c546228820e4fc22b766a41752e33e0d91dbd6df058049467c40eb6d5625d63edbe75af51cce5e8ddeb5c84433420e5c29e3ed0f7f7709dcca462dacc2ddd988721b4d67de41c4d53b62e19ca57132a07f493c3add62a64f742212a71a72cf2234f360faecccdf25ebb2442d6904cbdcd45d987606ebc0fd6d1261ec334b42aa69754fd5091574a55c099af371a57dd094b76a18764779f4f01baee68d45c138e5d28b77614871ce48ec610931573d2844a6f80016dd0884f3004ec8772a3a06ecf87ca738a24ccdaf6f5727b653982a8a5e982d37a5db183c3acfffc6a5204f8539dc0f4dfc12bd0ad2cb7b89618a6f0bbf054cfc32960f640488480d0bf8997bdab68e8b183e3a947bfc538abf9945888275fea129b57346c2d70b6e24c5f021e94817960537e296f8fb14a5086e2aaf482cffaf03ba85895fda891c19f07b8186002db74b759f07aca7faa3c001fef059f88e8c99af76cd48de55fcd2425e4461eeb9d67cb7393695d4fa324d94f4d4ef1b56b0151142e6e4abc654f5e63e70c357d35ff492a256dd19e9e5e5849482e9e39c4aa68fa045898160a33479f6e32b878c12d33f052a5d756f3ab1cd9327cce2c16d795a945daae4ad6696ece7369acc9d8d2d8dd3f525a48c9a0839aeb7b0aa119f26c5ac16b7ff08d4938456ce656ed7f3db53cdba6419d54c1d247d3c76edcac06f29d977d9b316f18f03df2de4e954ac4168d6e849ed50de5b27e5b4924f69be419102ffe65dadc26efc27b7b92fdd867e9ef054f7b1bfd70afd5ee0a7dc9b62e8ec69446d3d1c318a226792325f420f509f6e056c69d48faaa2e927bc03df9482debdb49118037e94da7f55284e2531b5592fa72ab28be9949156babb0a342d9ef314bc4947679f326c72fafe78693bdaaf12cc2ab2a54460b48d02dedf939842cc153e9edccba56affe698679eb9929ffc0964a7657e3b11662f7a144800641e62857b3078a509904df9f784dd2118782f4fdd919588ae1e1e0adc717f36f8fc82733244f16ce4879e8650a1020102101e2028383a7094bbd8d9dcdee9ecf209425f606d777ca0a9acc3fa02252e474d53696b70737e8388abbdd7e8f0f4f6f8ff031c1d323f42525861676d777c8dabcbe8f5f6000000000000000000121e344701",
        "00b6c9f7104f4d7fce344a20d235aabf42073eb6a6bbfda7254488f168e646a3b7010799d1059b446f41c988efe49356f628f3710065e3836c9d43e9b1f3e24a68c8883792c9aceb6a270bda27d53cc12cb067f662afca39f48ec0523c2b204b41afe22d4daaebc619af396b3f61978917de4a75703e45a37682cc361497287c06f5221bead515f5ac28f601644ec34f38c53e47d5124c67a465207daa3745625b02b5fbb44004a42c1f1a589a2bac13a5c9e2bc79bb4124b8f170d2c20d640839fd4bbea143147d963b333db4c783e528ba3f0ca679e45709662adf111156776a51fa28d8890cc2f9d09561788b4014301e7812c1275f321b088ff6e969baa819396538028d92a9457ed747ad2d275e477222d362cb3f012bee04204319d4da02e6a3edb59bf78ef03d92afe413613dc151e187f11e0d3b13b054092dc6c8e172f8d21c36ccd9d3c96aa1dfc2347dd077dc21361079e8e976e24471384406e463cfeb0f35d14f37c4cd0a75d13101ec03a705f37cf0c47e2448820d60e290fa59da7bf652a585b43bf26590538bcb20ec235d8a1e15d32fccc752d309e54e48e2a50c0a16f03f1060a34081cf70d905a70e371b2e8bf048112b277af10b1f93071d8d1a0966666be16d05abb4d0dff0d49012427cc821b41d2fc364bd39dc3afedb675aac65652e31f6a3eb197c52c358da62b639480525fdae2cc486d8379771061fd531b779a07c0e903a3f1b898463b4d2154bb03d760ccdcf352b4f5a13aff23f349fc0853d668e355a45014894674cdf7828636f61a1f057493b85e61c647bb93235aa2e231a047cc97af6b375e48ba2a1531f0abc99468bf98c80a4643bb65dfd6368978f0c5a3c00e68ff2baf6f17b2064146a199d70c4f2ef21ab7575b418f23e478b6b7f146e36e5423b3860f22a7cb7e068e6500433d8861a13a178101144803b28d642021e88f82ec507fe84fe52eff54a6ee61f64ac5e7b76aafdf4aa35c3ae4e9edb540168e878757a2ce1d5d6747b9e8cdc70bc86402d7457fe0e759db111b188e9e29f72dbe017bce9a16c50223f922eac8476be9b59d8b984499c3c74b8cc052eb45d35e6174b78260802eccf8a50c62f66db06aa2cb02d1b3e6d63b400a9e3da7b6c526d8fdbddec824826543ee604693fb97364a05af8f3b7a943266a359fabb4f4ea7b5d1b8887a6dd9413e65eb6b35175f2fc2d3336a4ce6e5b8bb88f7b52dbc446b787bfb6c785664cfc9e78845d525a36640d2319f55285a8fbd822c9983e3dc3bcfff0d41086abb5544c324a9058c60646192dca39e37cd830500d83f39c60462e013644b439131bda9d855f0687e973a96e03badca2618ec742eec7714d5d7b552fd63a92c176886d555953b7c8d4542ffd233eab4cc4d1d45f7e1815a30d8dd7fca6cc6b11ba53ecfac87d3465f476c1a0ce2021698dab2d1c674ea218e9cac75991c440d340714843dd252f966ca2b75f6dfc67cedbd3d3883c02c25b2998ed513359e2e96e429e1b483cb0c2bafcb5ef9e119536ee8ebda260d7ff8654c8b8af0e97e9a4a474bed6b15674ca3b4e761b3a3f97e0b523c27817ff722ad390bcb265e7dbc1f2323c8daded82b733c34a8b316841d0f994c123cad69485b78d7c45bafbb9cdecdb1f95dda7407cd74fad5fdb38c18e8ecbd43b40e432809ef9fa417f737deae7057beff564f692c130e784a58f90b60323518e815580d454224624853d221f53c295d4c8e057eff62e927f4be8787b1614ae287af6b7d06093fdd4a20c37e2b6590b0687e82106844265a8b1a48544afa52cb579a972aa7762f905b01be92ba889e5c151caebaf266cbb7a91f182"
      ],
      "sequence": 4294967294
    }
  ],
  "vout": [
    {
      "value": 499967.4592,
      "n": 0,
      "scriptPubKey": {
        "asm": "1 c3afd191d1eb229557a96edb8158b72ac9e0cfd2cf20971aee936d9c2adffc24",
        "hex": "5120c3afd191d1eb229557a96edb8158b72ac9e0cfd2cf20971aee936d9c2adffc24",
        "reqSigs": 1,
        "type": "witness_v1_scripthash",
        "addresses": [
          "3QJmnh"
        ]
      }
    },
    {
      "value": 1.0,
      "n": 1,
      "scriptPubKey": {
        "asm": "OP_RETURN 29255bf5b0e28f9288351988a2a279a286000e62146c543b6e41b099559f73a6 6ab9e6bfe1535ec5a4ca1bc27448b704b4d4f397e3760262e5b31f71efa1ba454a99c69fc1737ee584ea3be25468972494f4d3b7c3562242c5933f51cf819a652af9a6ffa1131e85e48a5b823408f744f494b3d7a3364222a5f35f31afe1fa050ad986df81333ea5c4aa7ba21428d764d4b493f78316620285d37f118fc1da25ea39663f61d3de45244a9b42f4c837843454731763f682e265339ff16f213ac5ca19461f41f3fe65046abb62d4e817a41474533743d6a2c24513bfd14f011ae5aa79267f21939e05640adb02b48877c47414335723b6c2a22573dfb12f617a858a59065f01b3be25442afb2294a857e4543413770396e2820553ff910f415aa56ab9e6bfe1535ec5a4ca1bc27448b704b4d4f397e3760262e5b31f71efa1ba454a99c69fc1737ee584ea3be25468972494f4d3b7c3562242c5933f51cf819a652af9a6ffa1131e85e48a5b823408f744f494b3d7a3364222a5f35f31afe1fa050ad986df81333ea5c4aa7ba21428d764d4b493f78316620285d37f118fc1da25ea39663f61d3de45244a9b42f4c837843454731763f682e265339ff16f213ac5ca19461f41f3fe65046abb62d4e817a41474533743d6a2c24513bfd14f011ae5aa79267f21939e05640adb02b48877c47414335723b6c2a22573dfb12f617a858a59065f01b3be25442afb2294a857e4543413770396e2820553ff910f415aa56ab9e6bfe1535ec5a4ca1bc27448b704b4d4f397e3760262e5b31f71efa1ba454a99c69fc1737ee584ea3be25468972494f4d3b7c3562242c5933f51cf819a652af9a6ffa1131e85e48a5b823408f744f494b3d7a3364222a5f35f31afe1fa050ad986df81333ea5c4aa7ba21428d764d4b493f78316620285d37f118fc1da25ea39663f61d3de45244a9b42f4c837843454731763f682e265339ff16f213ac5ca19461f41f3fe65046abb62d4e817a41474533743d6a2c24513bfd14f011ae5aa79267f21939e05640adb02b48877c47414335723b6c2a22573dfb12f617a858a59065f01b3be25442afb2294a857e4543413770396e2820553ff910f415aa56ab9e6bfe1535ec5a4ca1bc27448b704b4d4f397e3760262e5b31f71efa1ba454a99c69fc1737ee584ea3be25468972494f4d3b7c3562242c5933f51cf819a652af9a6ffa1131e85e48a5b823408f744f494b3d7a3364222a5f35f31afe1fa050ad986df81333ea5c4aa7ba21428d764d4b493f78316620285d37f118fc1da25ea39663f61d3de45244a9b42f4c837843454731763f682e265339ff16f213ac5ca19461f41f3fe65046abb62d4e817a41474533743d6a2c24513bfd14f011ae5aa79267f21939e05640adb02b48877c47414335723b6c2a22573dfb12f617a858a59065f01b3be25442afb2294a857e4543413770396e2820553ff910f415aa56ab9e6bfe1535ec5a4ca1bc27448b704b4d4f397e3760262e5b31f71efa1ba454a99c69fc1737ee584ea3be25468972494f4d3b7c3562242c5933f51cf819a652af9a6ffa1131e85e48a5b823408f744f494b3d7a3364222a5f35f31afe1fa050ad986df81333ea5c4aa7ba21428d764d4b493f78316620285d37f118fc1da25ea39663f61d3de45244a9b42f4c8378469e7db06c327cd271cd1359b2ab549d116d53e8b4b6684c1e50e7d9c962f1442",
        "hex": "6a2029255bf5b0e28f9288351988a2a279a286000e62146c543b6e41b099559f73a64db0046ab9e6bfe1535ec5a4ca1bc27448b704b4d4f397e3760262e5b31f71efa1ba454a99c69fc1737ee584ea3be25468972494f4d3b7c3562242c5933f51cf819a652af9a6ffa1131e85e48a5b823408f744f494b3d7a3364222a5f35f31afe1fa050ad986df81333ea5c4aa7ba21428d764d4b493f78316620285d37f118fc1da25ea39663f61d3de45244a9b42f4c837843454731763f682e265339ff16f213ac5ca19461f41f3fe65046abb62d4e817a41474533743d6a2c24513bfd14f011ae5aa79267f21939e05640adb02b48877c47414335723b6c2a22573dfb12f617a858a59065f01b3be25442afb2294a857e4543413770396e2820553ff910f415aa56ab9e6bfe1535ec5a4ca1bc27448b704b4d4f397e3760262e5b31f71efa1ba454a99c69fc1737ee584ea3be25468972494f4d3b7c3562242c5933f51cf819a652af9a6ffa1131e85e48a5b823408f744f494b3d7a3364222a5f35f31afe1fa050ad986df81333ea5c4aa7ba21428d764d4b493f78316620285d37f118fc1da25ea39663f61d3de45244a9b42f4c837843454731763f682e265339ff16f213ac5ca19461f41f3fe65046abb62d4e817a41474533743d6a2c24513bfd14f011ae5aa79267f21939e05640adb02b48877c47414335723b6c2a22573dfb12f617a858a59065f01b3be25442afb2294a857e4543413770396e2820553ff910f415aa56ab9e6bfe1535ec5a4ca1bc27448b704b4d4f397e3760262e5b31f71efa1ba454a99c69fc1737ee584ea3be25468972494f4d3b7c3562242c5933f51cf819a652af9a6ffa1131e85e48a5b823408f744f494b3d7a3364222a5f35f31afe1fa050ad986df81333ea5c4aa7ba21428d764d4b493f78316620285d37f118fc1da25ea39663f61d3de45244a9b42f4c837843454731763f682e265339ff16f213ac5ca19461f41f3fe65046abb62d4e817a41474533743d6a2c24513bfd14f011ae5aa79267f21939e05640adb02b48877c47414335723b6c2a22573dfb12f617a858a59065f01b3be25442afb2294a857e4543413770396e2820553ff910f415aa56ab9e6bfe1535ec5a4ca1bc27448b704b4d4f397e3760262e5b31f71efa1ba454a99c69fc1737ee584ea3be25468972494f4d3b7c3562242c5933f51cf819a652af9a6ffa1131e85e48a5b823408f744f494b3d7a3364222a5f35f31afe1fa050ad986df81333ea5c4aa7ba21428d764d4b493f78316620285d37f118fc1da25ea39663f61d3de45244a9b42f4c837843454731763f682e265339ff16f213ac5ca19461f41f3fe65046abb62d4e817a41474533743d6a2c24513bfd14f011ae5aa79267f21939e05640adb02b48877c47414335723b6c2a22573dfb12f617a858a59065f01b3be25442afb2294a857e4543413770396e2820553ff910f415aa56ab9e6bfe1535ec5a4ca1bc27448b704b4d4f397e3760262e5b31f71efa1ba454a99c69fc1737ee584ea3be25468972494f4d3b7c3562242c5933f51cf819a652af9a6ffa1131e85e48a5b823408f744f494b3d7a3364222a5f35f31afe1fa050ad986df81333ea5c4aa7ba21428d764d4b493f78316620285d37f118fc1da25ea39663f61d3de45244a9b42f4c8378469e7db06c327cd271cd1359b2ab549d116d53e8b4b6684c1e50e7d9c962f1442",
        "type": "nulldata"
      }
    }
  ],
  "blockhash": "a9a7ce638639648c5b111e15e0d4489535a11a846f6b50fba3b7e2925471654c",
  "confirmations": 1,
  "time": 1764182153,
  "blocktime": 1764182153
}