{
  "hex": "01000000000101e151350f87ac3ea7ec481d984852a2bd48543ca5083af00d41066936ca4edd090000000000feffffff0200e1f50500000000fdd5046a2012ef76341907ff0b97a562520815c6c7d39266d01c06d1ad4d95dcb4eef44c744db004ac753f1d2075b97d6f776c709348a559a181392df887ecbd2e44b2f475f292098c551f3d0055995d4f574c50b368857981a1190dd8a7cc9d0e6492d455d2b229ec357f5d6035f93d2f372c30d308e519e1c1796db8c7acfd6e04f2b435b2d249cc155f7d4015d91d0f170c10f328c539c1e1594d98e78cdd4e24d2941592f2692cf5bf9da0f539fdeff7ecf013c825d92101b9ad78076c3daec43274f57212890cd59fbd80d519ddcfd7ccd033e805f90121998d58274c1d8ee41254d55232a96cb5ffdde0b579bdafb7acb0538865996141f9ed38472c7dee847234b53252c94c95dffdc095599d8f978c9073a845b94161d9cd18670c5dcea45214951272e9ac753f1d2075b97d6f776c709348a559a181392df887ecbd2e44b2f475f292098c551f3d0055995d4f574c50b368857981a1190dd8a7cc9d0e6492d455d2b229ec357f5d6035f93d2f372c30d308e519e1c1796db8c7acfd6e04f2b435b2d249cc155f7d4015d91d0f170c10f328c539c1e1594d98e78cdd4e24d2941592f2692cf5bf9da0f539fdeff7ecf013c825d92101b9ad78076c3daec43274f57212890cd59fbd80d519ddcfd7ccd033e805f90121998d58274c1d8ee41254d55232a96cb5ffdde0b579bdafb7acb0538865996141f9ed38472c7dee847234b53252c94c95dffdc095599d8f978c9073a845b94161d9cd18670c5dcea45214951272e9ac753f1d2075b97d6f776c709348a559a181392df887ecbd2e44b2f475f292098c551f3d0055995d4f574c50b368857981a1190dd8a7cc9d0e6492d455d2b229ec357f5d6035f93d2f372c30d308e519e1c1796db8c7acfd6e04f2b435b2d249cc155f7d4015d91d0f170c10f328c539c1e1594d98e78cdd4e24d2941592f2692cf5bf9da0f539fdeff7ecf013c825d92101b9ad78076c3daec43274f57212890cd59fbd80d519ddcfd7ccd033e805f90121998d58274c1d8ee41254d55232a96cb5ffdde0b579bdafb7acb0538865996141f9ed38472c7dee847234b53252c94c95dffdc095599d8f978c9073a845b94161d9cd18670c5dcea45214951272e9ac753f1d2075b97d6f776c709348a559a181392df887ecbd2e44b2f475f292098c551f3d0055995d4f574c50b368857981a1190dd8a7cc9d0e6492d455d2b229ec357f5d6035f93d2f372c30d308e519e1c1796db8c7acfd6e04f2b435b2d249cc155f7d4015d91d0f170c10f328c539c1e1594d98e78cdd4e24d2941592f2692cf5bf9da0f539fdeff7ecf013c825d92101b9ad78076c3daec43274f57212890cd59fbd80d519ddcfd7ccd033e805f90121998d58274c1d8ee41254d55232a96cb5ffdde0b579bdafb7acb0538865996141f9ed38472c7dee847234b53252c94c95dffdc095599d8f978c9073a845b94161d9cd18670c5dcea45214951272e9ac753f1d2075b97d6f776c709348a559a181392df887ecbd2e44b2f475f292098c551f3d0055995d4f574c50b368857981a1190dd8a7cc9d0e6492d455d2b229ec357f5d6035f93d2f372c30d308e519e1c1796db8c7acfd6e04f2b435b2d249cc155f7d4015d91d0f170c10f328c539c1e1594d98e78cdd4e24d2941592f2692cf5bf9da0f539fdeff7ecf013c825d93f343f43569cd3519f80b102855c80da8b92a19a9530b280f924f85b99f876049021522d792d00002251203a2a8f4915c4650aca5908788a397c198b8d9b954332ffd86b116e06fd49774802fd750902925e9a327036aeccd4b7c7862a60cb63f366f0ce75f1587dbba4094ea57366f544af70445ee9c7f9faee7a16b79f2277575886e68d5d68c242ee1e2511955f8aa92e75b0a185d146ff9ae46d47cbf8c7581a7eb494ddd5fed9b2d0eeaf4b719a0eb96f0c0fa9a073042ef04ee35807e01bb74c883f1c7f78415cae53fb635485f9a7f958850670a5cebd5804d15b49a9cfd55014890b0173241827a958ed93519748150911c8563670850c8e3055114aa944e25a8e2ac549ebcdccb8756472f093d924f37704a4cd3cb3b9c4ccc1fd5172777a0e5a1c283e0b1a2845ddd9c955688fe69f954fc7bc050ace3eb623909b68e21192a07fe1ee0a26652fdd22b430a3d1f1c36fac8a74de4f77e17c768a31a550cc04ad6f9772766620b2c0a34218d83223233216f4e917cb97c9fa22f53991e197a7d209a73af0ce416626db6ef027d3325451cadaac96f7d30bf9dd6c84e69455b1f4adeeca8d1dca34c8e76bd993499ba7e09d0451487eba00adb99bcc9e2e448eaece8f890f9d3c0e8333f486a4b8d032fc659f6252ecefb342445887d4e46a1f91183a219408e4531d1180162376916e641dcd15e0aecf3597fdfe1dbc4446e92a3a5d4726338c37b35f909bf6aff031d82e5c9de1cb5a91574557aaff02b2dc3a8d415bfc22e7f368266ba9cfbcc74369c7ae451cd0d8bafdddd1d505bd0215de6dc65f7da2bd888cf58432b2f5f3708fa18bb6c553388e1c958156b9eaa3af9c050c8e86c27daa6b5b1764f9886a5d1b44d2434926d3054b3cc6aec50b748c2fa7e9cd6a2bb68058421694be38f99a73aac3a8c148aad408cc2937c5f0df2597128a970288afb0e165ef733e581a3d91a79e3c4fc3e686acb98817a88e2495ba1aff3e3339bcd1fd23fe499e1bf3f466c0d81ec91c3471cc7e50f95f4bca8366b0f6c729e9d79f41d8780ba2c637da450d563812ad323257b2d0ae619df048439ef8feedc513b1866dd78aed8d3e69627cf7d599d36ba4d51a9e46f1d4ab09cd13e1aa546fbe565b6cb76c7879f584d04a8c0a451131e11c7261939f5073c8471d0418dc0a6b9663928d2feede3df4608942bb3e23bd1eee475cc4418d04f887ad8d71ee92f62e7a776d89fb3c8fbb537e779e60440a0c317fb42a27fd8e0f032939cfe75f7cf4d9c89c130cf1c49f8b149d1d82fbc8c8ddaf2eb68e7c5dbcad5598365540af1f5a6a0665e95a3574efe2f9b1b1fc037713c7108cb30b7735af38228a3cc9b066fd5b279468d08ec4e8df94df8119a797e12ad49f84a4a16f8dadb432b7fec95cb5c8fea8f08ad4f043a57260055f6e762419e6c24e2c3cbd7e5f2f0cb94b348270e5a625c466b94ef05b7a7340190cdb8e842e8d4de79f19193d2ce6964b907410e782664377adb033c728a9d1c25008356160c2329e2fdee0473ffc04d859dfa52c48fb9e604dd58d3dcd348bb2cfb3b7bf0ddf3d9551fe9323f052c514edc5ae5441a3a2973fcfaefb61b91439e6e5feb369cff8db93c90a70bf5b9f42091602d3e5a171a129e8331c5bbfa6fb6a60f07c8c4c4b271b7d1393018051a2baaa11de2d98ccea052bed1c00533a408c3c8796775a12a69ff02591a1537867147b8aa58b24267266ead60b1aef4edb4945ab22f5c5e3cb6600ecf2dded212c3b4cfb57ecbd8005590cb33cb3d098c27eeee58c931b2c8d58fd32315855cc6eff8c320c34e79aee671854c35b4ae55a6e9b2daa6814dcf1b272a5f85fcc13e8b46cf5f85546b96c59fecad5e048204a27115b7309a2287d5901fe10269ab691e58f82ce1c1f41ffdc1294309ed8c1f4f79dad93c0f522c3f8be531bc9df2b0b94cf0843f7eccec7198b70042604fc7d771534204fbbbbf0a107c318245659d0e93ddc02013443ea4889a43254599addc8a6906dfabec726233460b0b76fee72c4773f8ec60da9c98d0f2a23ef068fc1c6e3055e37458ccbe17fce3a4b22c8f621eaa5389a90b76e71a45f576686f2a43a21089b82aa760078f9c39a8a9627576331f6a951d5dfb276e376e2d3e8f962dea4d597ff2eb95a8d5704a28d30db6251cf7f1b842d1f2e3662e4f8effec988404cc349ffbc55047c69bfbb257375839306710f4acbef6b9aac1f735a0a1a3e0e9d75b53ae5e9c161954cd8dc55ded07df079b86e50cdf99be74adae1d812ebb1578a13cc863c1410526adacbc306b98d2f3fbee247f50192cb3c1d8810cbe45ce83a19b70092a97cbc1cf5fe19168154d9b09f694c38e9a195a5a96c43e3f07c685ffbe29d03df4d92acf3bfaef5740a0db973527aa189547c1a3476bedd65b8c768f7ad2645652a41e37611228cab39dd14b38ed07a9c67e2ba63026378e482b732a66f6219a54b77a1b4a8717e017138b64157a91f79207e18097c132c0b8c4913be4f4087624aeb6984b2e93a6b89b64e82c382d71af9ecc2eb03c90873a50dad5aee270ab896f8ce4ec4971d028f24178cc210a9a8e10c557f42cd01667470f2df385b1d14f956aa1a099645a2b7d2d430f2ade09ca81c507b7b9abf83714abeaa030976086db537aa6deceff34e61fd505337d61bb35aca68cd2504786febd2b5f37bb77681e4fddd85e5e55a65f74072eaf42b5856035b028267dbe0cff58fee2b0d0dd4d0c5802b3d09a1f2a9acab1d3c2f21d2a7276b3c815b2fa2aeeefa673e7e5c9dd3c5712943bb4359ab49e7ceb4c30b1b84895b5fec3e55d487a65cc79f5b8c4fc6bed1ea1b698a781c50d5145a0594985f2ddb4a118257738137b7f326c7654db1b6a654000364b3bdaa67ddcb7bfe18feee10c208daa2a952649d83a8e7353de0e575bd8ea094af95c3cf1433e2274d887cad1529b1cea4beebf4df2edc05479596984db41cfbc28103dd2ca705786eaee8879a7ceb19607d86e2e35ecf7510a731aab159296e3266bb6a7c650ee35da99baf86f809d74a503b429928308d114019f16ce752ec2a5c2885c4698754737ff738a385e7fd1fa2bca79e390389bc87ab8f9fcc07ce48c35b06a4e3398aa95aa82e0dc68e06a4bc0fc417b85db2ea0723811b8ca83a90e881791fc7f5fe0b0f9f2b2951962bb05b365d0d45e172cc90f5f39f22e671f86db4fbe350cb8b3f6d6ee6f5886fbff351c15bd41a701484c35c94a00ca204f895fa2a75e8945e06390a1c73757cf08545565359de23e658ada6a71d11adfc1457fb76c3274cc08f935f1e0f5ba3029969d6986968577f0f9707050b1c0b8a46ef8048b4485f35fadb1ce10fa0897d0e760852d2e1be717ce1cc1fa514375ca1fdba9a419f08163f575b62637bc4ca001011153d4a4e5657818896a7aaacb1cbdbe71113364546616e778c9db0b9c5e61b1e1f20303139435f63647891b3b7c2d8daddecf0fb0000000000000000000000000000000a1d2b4101fd21050020e176322150d8d56b90498619c209920a5a74bda23d475328d5871be043fb71e6e5a6dd985ff7efff7b814fe20b18130fe2ed4b6cb0209d9274430fcdd4b61bf2e0da6161aa95e92fb1cb985f35db5088af5d1517fae46952052a96904f78602e4749537ea1ac374b064501298d68176146148a559d368af92a8d3e5784fc50a200ee37eab9cdb649da95241c71a027b12d408511dbd2f7f3e295fc591d37f197354592ebb3bc8267e6125abda1772a3ba5caa34c5701fe67f8f7c36f9093294d951abf8b48746eaf8773504ff2af805aabaa355d94bcb5c0b7fa029bed049bd65a985a26a9ce83ade360dc4b0c981c79e9d9a098461ecb8e09321dfcb62018703d0107927ffa2ee5585ae09ac895ef077d9d3659c9313cf28141ba5b7fc28027f0903e498c97806ea005b408a8034e14af7decf86a58f734e8181cf4086fde78776f34273c2f62b350847cd14beb22ed4afffe1c4d846f17327464b686bf2728e257d70771aaea21d52cdcc3c99330228028e99714c9edd0e3df328d307813cbcad2a47ee9db1f8bfb77b540b300e7370915579c43e032819a31bcbae9fea7f5c950b2ab43938588f11a21c23e43ee601f3e8db958cdb992e4df24e80fa655dc6fe42d32ca3d822bb3d24cd741356b8820457bf8bd2b324617dd0ae9d791062435b8c3eff313e0a978ce33cabbcc35c1c6df671e917afafbcf4ce7fb78f7cbac33edde4da0b0357db1346d8449699ab3e800ed61ce080a196f58c634f93b6aac671b1eec3e1b1d3a76af800485f73a8405f7ad055b41a0fa28f53b1d523d5c4102221c3ac9d27e6b7f96c62ea6520cc2e824420f8cc4d59378db0a866228328f61b2ecfa34ea0c23c5db4a7bf064dc95fc24aba0b93672751ecede08034bcfe587363b12612cffbc9043c4c8d87f35e4fc28a79f567fd6d37fb1ebf2cb48d98a1fc5a7de0d4032e4904b26e1d368cda2305ebd871dd1de296515e7398db46f2cb575f729d333b917f0da2a4de8b16f42e62a9b36733c16721a68d4491ff6beb946581858ffc31ac2db64bc2f68f0bcbc86eefd291c59af3fb8134ae8654f7b21abbaf1b498aaa693f0783dc37bcae225408b8c29bb4823049bfeab137542a5cc155f8274aadc36e2bf687049ca45f136f04ced3e70b21a1e5076c8a8de4bc142ed69a28fa1a7b4e61ac227cc200a711efe8cbeea00a9d2baafefc9663bb9aa7b4e444a490479108379327480bf52fad61781f8a2a31fa5bb42b6456cd87b914e5d5741e976bee8f0cc9abab1eadd57399f40c175a093f23c44b21ea167712701ff1878ca0ad58e1fa32e852b7823466389effe69ef567f5fa963ee39f89adf01a97731f32d52239beb1e50316fee06454ddaeb68087f16830582e4427568151858e14dee754d81ffc35811a33921600075b510f1033373fcdf787f335076c3ef823baddabe6970d7fd7429eadba4a8dba11e5f08c2606ec91578bb4b6a7eba940269b2022f9a990dc39c5cfd9af9cfb3b236971aecded181509195a3ddc17d75e0be4b24f0c9656e0c93c2b8d1768a1fea67fda7cf46344853e0351ac398d757e0636c33366e723a6273f75ff3917855dd523ed0b730cac8384c48a714e6481e647d30b89ff2fb3c706d8d5d4f949448702b450ba4f2138ec288c93295c4d112f2c4af0b284d096bcd838658512c92987a1a695d06d751a5edf2477deafda34e5b43896f79d2b2e6971c56aeca47feb5c1a6bd555d36eacd09460c4309d69163be63cf4960b36095839292e809b24078f78b93614c24883c993d65f8c26e8f515642777a84a8f3bbfb06f6759fb57d8bc3a601cc658243daa939f1a39fe8d172000000",
  "txid": "0338f14f2e291ba55035c8aa161e3a32569206651b0b3160192ec814397fa57c",
  "hash": "5dbf8659651ab76422812b2fd0433a7f8c6e491fc4717e6f16e2f5dbe138e784",
  "size": 5085,
  "vsize": 2278,
  "version": 1,
  "locktime": 114,
  "vin": [
    {
      "txid": "09dd4eca366906410df03a08a53c5448bda25248981d48eca73eac870f3551e1",
      "vout": 0,
      "scriptSig": {
        "asm": "",
        "hex": ""
      },
      "txinwitness": [
        "02925e9a327036aeccd4b7c7862a60cb63f366f0ce75f1587dbba4094ea57366f544af70445ee9c7f9faee7a16b79f2277575886e68d5d68c242ee1e2511955f8aa92e75b0a185d146ff9ae46d47cbf8c7581a7eb494ddd5fed9b2d0eeaf4b719a0eb96f0c0fa9a073042ef04ee35807e01bb74c883f1c7f78415cae53fb635485f9a7f958850670a5cebd5804d15b49a9cfd55014890b0173241827a958ed93519748150911c8563670850c8e3055114aa944e25a8e2ac549ebcdccb8756472f093d924f37704a4cd3cb3b9c4ccc1fd5172777a0e5a1c283e0b1a2845ddd9c955688fe69f954fc7bc050ace3eb623909b68e21192a07fe1ee0a26652fdd22b430a3d1f1c36fac8a74de4f77e17c768a31a550cc04ad6f9772766620b2c0a34218d83223233216f4e917cb97c9fa22f53991e197a7d209a73af0ce416626db6ef027d3325451cadaac96f7d30bf9dd6c84e69455b1f4adeeca8d1dca34c8e76bd993499ba7e09d0451487eba00adb99bcc9e2e448eaece8f890f9d3c0e8333f486a4b8d032fc659f6252ecefb342445887d4e46a1f91183a219408e4531d1180162376916e641dcd15e0aecf3597fdfe1dbc4446e92a3a5d4726338c37b35f909bf6aff031d82e5c9de1cb5a91574557aaff02b2dc3a8d415bfc22e7f368266ba9cfbcc74369c7ae451cd0d8bafdddd1d505bd0215de6dc65f7da2bd888cf58432b2f5f3708fa18bb6c553388e1c958156b9eaa3af9c050c8e86c27daa6b5b1764f9886a5d1b44d2434926d3054b3cc6aec50b748c2fa7e9cd6a2bb68058421694be38f99a73aac3a8c148aad408cc2937c5f0df2597128a970288afb0e165ef733e581a3d91a79e3c4fc3e686acb98817a88e2495ba1aff3e3339bcd1fd23fe499e1bf3f466c0d81ec91c3471cc7e50f95f4bca8366b0f6c729e9d79f41d8780ba2c637da450d563812ad323257b2d0ae619df048439ef8feedc513b1866dd78aed8d3e69627cf7d599d36ba4d51a9e46f1d4ab09cd13e1aa546fbe565b6cb76c7879f584d04a8c0a451131e11c7261939f5073c8471d0418dc0a6b9663928d2feede3df4608942bb3e23bd1eee475cc4418d04f887ad8d71ee92f62e7a776d89fb3c8fbb537e779e60440a0c317fb42a27fd8e0f032939cfe75f7cf4d9c89c130cf1c49f8b149d1d82fbc8c8ddaf2eb68e7c5dbcad5598365540af1f5a6a0665e95a3574efe2f9b1b1fc037713c7108cb30b7735af38228a3cc9b066fd5b279468d08ec4e8df94df8119a797e12ad49f84a4a16f8dadb432b7fec95cb5c8fea8f08ad4f043a57260055f6e762419e6c24e2c3cbd7e5f2f0cb94b348270e5a625c466b94ef05b7a7340190cdb8e842e8d4de79f19193d2ce6964b907410e782664377adb033c728a9d1c25008356160c2329e2fdee0473ffc04d859dfa52c48fb9e604dd58d3dcd348bb2cfb3b7bf0ddf3d9551fe9323f052c514edc5ae5441a3a2973fcfaefb61b91439e6e5feb369cff8db93c90a70bf5b9f42091602d3e5a171a129e8331c5bbfa6fb6a60f07c8c4c4b271b7d1393018051a2baaa11de2d98ccea052bed1c00533a408c3c8796775a12a69ff02591a1537867147b8aa58b24267266ead60b1aef4edb4945ab22f5c5e3cb6600ecf2dded212c3b4cfb57ecbd8005590cb33cb3d098c27eeee58c931b2c8d58fd32315855cc6eff8c320c34e79aee671854c35b4ae55a6e9b2daa6814dcf1b272a5f85fcc13e8b46cf5f85546b96c59fecad5e048204a27115b7309a2287d5901fe10269ab691e58f82ce1c1f41ffdc1294309ed8c1f4f79dad93c0f522c3f8be531bc9df2b0b94cf0843f7eccec7198b70042604fc7d771534204fbbbbf0a107c318245659d0e93ddc02013443ea4889a43254599addc8a6906dfabec726233460b0b76fee72c4773f8ec60da9c98d0f2a23ef068fc1c6e3055e37458ccbe17fce3a4b22c8f621eaa5389a90b76e71a45f576686f2a43a21089b82aa760078f9c39a8a9627576331f6a951d5dfb276e376e2d3e8f962dea4d597ff2eb95a8d5704a28d30db6251cf7f1b842d1f2e3662e4f8effec988404cc349ffbc55047c69bfbb257375839306710f4acbef6b9aac1f735a0a1a3e0e9d75b53ae5e9c161954cd8dc55ded07df079b86e50cdf99be74adae1d812ebb1578a13cc863c1410526adacbc306b98d2f3fbee247f50192cb3c1d8810cbe45ce83a19b70092a97cbc1cf5fe19168154d9b09f694c38e9a195a5a96c43e3f07c685ffbe29d03df4d92acf3bfaef5740a0db973527aa189547c1a3476bedd65b8c768f7ad2645652a41e37611228cab39dd14b38ed07a9c67e2ba63026378e482b732a66f6219a54b77a1b4a8717e017138b64157a91f79207e18097c132c0b8c4913be4f4087624aeb6984b2e93a6b89b64e82c382d71af9ecc2eb03c90873a50dad5aee270ab896f8ce4ec4971d028f24178cc210a9a8e10c557f42cd01667470f2df385b1d14f956aa1a099645a2b7d2d430f2ade09ca81c507b7b9abf83714abeaa030976086db537aa6deceff34e61fd505337d61bb35aca68cd2504786febd2b5f37bb77681e4fddd85e5e55a65f74072eaf42b5856035b028267dbe0cff58fee2b0d0dd4d0c5802b3d09a1f2a9acab1d3c2f21d2a7276b3c815b2fa2aeeefa673e7e5c9dd3c5712943bb4359ab49e7ceb4c30b1b84895b5fec3e55d487a65cc79f5b8c4fc6bed1ea1b698a781c50d5145a0594985f2ddb4a118257738137b7f326c7654db1b6a654000364b3bdaa67ddcb7bfe18feee10c208daa2a952649d83a8e7353de0e575bd8ea094af95c3cf1433e2274d887cad1529b1cea4beebf4df2edc05479596984db41cfbc28103dd2ca705786eaee8879a7ceb19607d86e2e35ecf7510a731aab159296e3266bb6a7c650ee35da99baf86f809d74a503b429928308d114019f16ce752ec2a5c2885c4698754737ff738a385e7fd1fa2bca79e390389bc87ab8f9fcc07ce48c35b06a4e3398aa95aa82e0dc68e06a4bc0fc417b85db2ea0723811b8ca83a90e881791fc7f5fe0b0f9f2b2951962bb05b365d0d45e172cc90f5f39f22e671f86db4fbe350cb8b3f6d6ee6f5886fbff351c15bd41a701484c35c94a00ca204f895fa2a75e8945e06390a1c73757cf08545565359de23e658ada6a71d11adfc1457fb76c3274cc08f935f1e0f5ba3029969d6986968577f0f9707050b1c0b8a46ef8048b4485f35fadb1ce10fa0897d0e760852d2e1be717ce1cc1fa514375ca1fdba9a419f08163f575b62637bc4ca001011153d4a4e5657818896a7aaacb1cbdbe71113364546616e778c9db0b9c5e61b1e1f20303139435f63647891b3b7c2d8daddecf0fb0000000000000000000000000000000a1d2b4101",
        "0020e176322150d8d56b90498619c209920a5a74bda23d475328d5871be043fb71e6e5a6dd985ff7efff7b814fe20b18130fe2ed4b6cb0209d9274430fcdd4b61bf2e0da6161aa95e92fb1cb985f35db5088af5d1517fae46952052a96904f78602e4749537ea1ac374b064501298d68176146148a559d368af92a8d3e5784fc50a200ee37eab9cdb649da95241c71a027b12d408511dbd2f7f3e295fc591d37f197354592ebb3bc8267e6125abda1772a3ba5caa34c5701fe67f8f7c36f9093294d951abf8b48746eaf8773504ff2af805aabaa355d94bcb5c0b7fa029bed049bd65a985a26a9ce83ade360dc4b0c981c79e9d9a098461ecb8e09321dfcb62018703d0107927ffa2ee5585ae09ac895ef077d9d3659c9313cf28141ba5b7fc28027f0903e498c97806ea005b408a8034e14af7decf86a58f734e8181cf4086fde78776f34273c2f62b350847cd14beb22ed4afffe1c4d846f17327464b686bf2728e257d70771aaea21d52cdcc3c99330228028e99714c9edd0e3df328d307813cbcad2a47ee9db1f8bfb77b540b300e7370915579c43e032819a31bcbae9fea7f5c950b2ab43938588f11a21c23e43ee601f3e8db958cdb992e4df24e80fa655dc6fe42d32ca3d822bb3d24cd741356b8820457bf8bd2b324617dd0ae9d791062435b8c3eff313e0a978ce33cabbcc35c1c6df671e917afafbcf4ce7fb78f7cbac33edde4da0b0357db1346d8449699ab3e800ed61ce080a196f58c634f93b6aac671b1eec3e1b1d3a76af800485f73a8405f7ad055b41a0fa28f53b1d523d5c4102221c3ac9d27e6b7f96c62ea6520cc2e824420f8cc4d59378db0a866228328f61b2ecfa34ea0c23c5db4a7bf064dc95fc24aba0b93672751ecede08034bcfe587363b12612cffbc9043c4c8d87f35e4fc28a79f567fd6d37fb1ebf2cb48d98a1fc5a7de0d4032e4904b26e1d368cda2305ebd871dd1de296515e7398db46f2cb575f729d333b917f0da2a4de8b16f42e62a9b36733c16721a68d4491ff6beb946581858ffc31ac2db64bc2f68f0bcbc86eefd291c59af3fb8134ae8654f7b21abbaf1b498aaa693f0783dc37bcae225408b8c29bb4823049bfeab137542a5cc155f8274aadc36e2bf687049ca45f136f04ced3e70b21a1e5076c8a8de4bc142ed69a28fa1a7b4e61ac227cc200a711efe8cbeea00a9d2baafefc9663bb9aa7b4e444a490479108379327480bf52fad61781f8a2a31fa5bb42b6456cd87b914e5d5741e976bee8f0cc9abab1eadd57399f40c175a093f23c44b21ea167712701ff1878ca0ad58e1fa32e852b7823466389effe69ef567f5fa963ee39f89adf01a97731f32d52239beb1e50316fee06454ddaeb68087f16830582e4427568151858e14dee754d81ffc35811a33921600075b510f1033373fcdf787f335076c3ef823baddabe6970d7fd7429eadba4a8dba11e5f08c2606ec91578bb4b6a7eba940269b2022f9a990dc39c5cfd9af9cfb3b236971aecded181509195a3ddc17d75e0be4b24f0c9656e0c93c2b8d1768a1fea67fda7cf46344853e0351ac398d757e0636c33366e723a6273f75ff3917855dd523ed0b730cac8384c48a714e6481e647d30b89ff2fb3c706d8d5d4f949448702b450ba4f2138ec288c93295c4d112f2c4af0b284d096bcd838658512c92987a1a695d06d751a5edf2477deafda34e5b43896f79d2b2e6971c56aeca47feb5c1a6bd555d36eacd09460c4309d69163be63cf4960b36095839292e809b24078f78b93614c24883c993d65f8c26e8f515642777a84a8f3bbfb06f6759fb57d8bc3a601cc658243daa939f1a39fe8d1"
      ],
      "sequence": 4294967294
    }
  ],
  "vout": [
    {
      "value": 1.0,
      "n": 0,
      "scriptPubKey": {
        "asm": "OP_RETURN 12ef76341907ff0b97a562520815c6c7d39266d01c06d1ad4d95dcb4eef44c74 ac753f1d2075b97d6f776c709348a559a181392df887ecbd2e44b2f475f292098c551f3d0055995d4f574c50b368857981a1190dd8a7cc9d0e6492d455d2b229ec357f5d6035f93d2f372c30d308e519e1c1796db8c7acfd6e04f2b435b2d249cc155f7d4015d91d0f170c10f328c539c1e1594d98e78cdd4e24d2941592f2692cf5bf9da0f539fdeff7ecf013c825d92101b9ad78076c3daec43274f57212890cd59fbd80d519ddcfd7ccd033e805f90121998d58274c1d8ee41254d55232a96cb5ffdde0b579bdafb7acb0538865996141f9ed38472c7dee847234b53252c94c95dffdc095599d8f978c9073a845b94161d9cd18670c5dcea45214951272e9ac753f1d2075b97d6f776c709348a559a181392df887ecbd2e44b2f475f292098c551f3d0055995d4f574c50b368857981a1190dd8a7cc9d0e6492d455d2b229ec357f5d6035f93d2f372c30d308e519e1c1796db8c7acfd6e04f2b435b2d249cc155f7d4015d91d0f170c10f328c539c1e1594d98e78cdd4e24d2941592f2692cf5bf9da0f539fdeff7ecf013c825d92101b9ad78076c3daec43274f57212890cd59fbd80d519ddcfd7ccd033e805f90121998d58274c1d8ee41254d55232a96cb5ffdde0b579bdafb7acb0538865996141f9ed38472c7dee847234b53252c94c95dffdc095599d8f978c9073a845b94161d9cd18670c5dcea45214951272e9ac753f1d2075b97d6f776c709348a559a181392df887ecbd2e44b2f475f292098c551f3d0055995d4f574c50b368857981a1190dd8a7cc9d0e6492d455d2b229ec357f5d6035f93d2f372c30d308e519e1c1796db8c7acfd6e04f2b435b2d249cc155f7d4015d91d0f170c10f328c539c1e1594d98e78cdd4e24d2941592f2692cf5bf9da0f539fdeff7ecf013c825d92101b9ad78076c3daec43274f57212890cd59fbd80d519ddcfd7ccd033e805f90121998d58274c1d8ee41254d55232a96cb5ffdde0b579bdafb7acb0538865996141f9ed38472c7dee847234b53252c94c95dffdc095599d8f978c9073a845b94161d9cd18670c5dcea45214951272e9ac753f1d2075b97d6f776c709348a559a181392df887ecbd2e44b2f475f292098c551f3d0055995d4f574c50b368857981a1190dd8a7cc9d0e6492d455d2b229ec357f5d6035f93d2f372c30d308e519e1c1796db8c7acfd6e04f2b435b2d249cc155f7d4015d91d0f170c10f328c539c1e1594d98e78cdd4e24d2941592f2692cf5bf9da0f539fdeff7ecf013c825d92101b9ad78076c3daec43274f57212890cd59fbd80d519ddcfd7ccd033e805f90121998d58274c1d8ee41254d55232a96cb5ffdde0b579bdafb7acb0538865996141f9ed38472c7dee847234b53252c94c95dffdc095599d8f978c9073a845b94161d9cd18670c5dcea45214951272e9ac753f1d2075b97d6f776c709348a559a181392df887ecbd2e44b2f475f292098c551f3d0055995d4f574c50b368857981a1190dd8a7cc9d0e6492d455d2b229ec357f5d6035f93d2f372c30d308e519e1c1796db8c7acfd6e04f2b435b2d249cc155f7d4015d91d0f170c10f328c539c1e1594d98e78cdd4e24d2941592f2692cf5bf9da0f539fdeff7ecf013c825d93f343f43569cd3519f80b102855c80da8b92a19a9530b280f924f85b99f87604",
        "hex": "6a2012ef76341907ff0b97a562520815c6c7d39266d01c06d1ad4d95dcb4eef44c744db004ac753f1d2075b97d6f776c709348a559a181392df887ecbd2e44b2f475f292098c551f3d0055995d4f574c50b368857981a1190dd8a7cc9d0e6492d455d2b229ec357f5d6035f93d2f372c30d308e519e1c1796db8c7acfd6e04f2b435b2d249cc155f7d4015d91d0f170c10f328c539c1e1594d98e78cdd4e24d2941592f2692cf5bf9da0f539fdeff7ecf013c825d92101b9ad78076c3daec43274f57212890cd59fbd80d519ddcfd7ccd033e805f90121998d58274c1d8ee41254d55232a96cb5ffdde0b579bdafb7acb0538865996141f9ed38472c7dee847234b53252c94c95dffdc095599d8f978c9073a845b94161d9cd18670c5dcea45214951272e9ac753f1d2075b97d6f776c709348a559a181392df887ecbd2e44b2f475f292098c551f3d0055995d4f574c50b368857981a1190dd8a7cc9d0e6492d455d2b229ec357f5d6035f93d2f372c30d308e519e1c1796db8c7acfd6e04f2b435b2d249cc155f7d4015d91d0f170c10f328c539c1e1594d98e78cdd4e24d2941592f2692cf5bf9da0f539fdeff7ecf013c825d92101b9ad78076c3daec43274f57212890cd59fbd80d519ddcfd7ccd033e805f90121998d58274c1d8ee41254d55232a96cb5ffdde0b579bdafb7acb0538865996141f9ed38472c7dee847234b53252c94c95dffdc095599d8f978c9073a845b94161d9cd18670c5dcea45214951272e9ac753f1d2075b97d6f776c709348a559a181392df887ecbd2e44b2f475f292098c551f3d0055995d4f574c50b368857981a1190dd8a7cc9d0e6492d455d2b229ec357f5d6035f93d2f372c30d308e519e1c1796db8c7acfd6e04f2b435b2d249cc155f7d4015d91d0f170c10f328c539c1e1594d98e78cdd4e24d2941592f2692cf5bf9da0f539fdeff7ecf013c825d92101b9ad78076c3daec43274f57212890cd59fbd80d519ddcfd7ccd033e805f90121998d58274c1d8ee41254d55232a96cb5ffdde0b579bdafb7acb0538865996141f9ed38472c7dee847234b53252c94c95dffdc095599d8f978c9073a845b94161d9cd18670c5dcea45214951272e9ac753f1d2075b97d6f776c709348a559a181392df887ecbd2e44b2f475f292098c551f3d0055995d4f574c50b368857981a1190dd8a7cc9d0e6492d455d2b229ec357f5d6035f93d2f372c30d308e519e1c1796db8c7acfd6e04f2b435b2d249cc155f7d4015d91d0f170c10f328c539c1e1594d98e78cdd4e24d2941592f2692cf5bf9da0f539fdeff7ecf013c825d92101b9ad78076c3daec43274f57212890cd59fbd80d519ddcfd7ccd033e805f90121998d58274c1d8ee41254d55232a96cb5ffdde0b579bdafb7acb0538865996141f9ed38472c7dee847234b53252c94c95dffdc095599d8f978c9073a845b94161d9cd18670c5dcea45214951272e9ac753f1d2075b97d6f776c709348a559a181392df887ecbd2e44b2f475f292098c551f3d0055995d4f574c50b368857981a1190dd8a7cc9d0e6492d455d2b229ec357f5d6035f93d2f372c30d308e519e1c1796db8c7acfd6e04f2b435b2d249cc155f7d4015d91d0f170c10f328c539c1e1594d98e78cdd4e24d2941592f2692cf5bf9da0f539fdeff7ecf013c825d93f343f43569cd3519f80b102855c80da8b92a19a9530b280f924f85b99f87604",
        "type": "nulldata"
      }
    },
    {
      "value": 499984.7465,
      "n": 1,
      "scriptPubKey": {
        "asm": "1 3a2a8f4915c4650aca5908788a397c198b8d9b954332ffd86b116e06fd497748",
        "hex": "51203a2a8f4915c4650aca5908788a397c198b8d9b954332ffd86b116e06fd497748",
        "reqSigs": 1,
        "type": "witness_v1_scripthash",
        "addresses": [
          "3QJmnh"
        ]
      }
    }
  ],
  "blockhash": "a404c97fd79b0f74ac8935f18e4afcd6ffd73e4b441b9f6bd67a7215b8c8499e",
  "confirmations": 1,
  "time": 1764178774,
  "blocktime": 1764178774
}