{
  "hex": "01000000000101f718fac4e107eb9feed2776a0a3c0c9ea6fd0b6fc629ec3e92b8493f11eb0fb10000000000feffffff021024da9b782d0000225120e6e280ba18e6902082122f93b3b486c80ea0a3a7c6a484c28743ade83b1e054c00e1f50500000000fdd5046a206df19b2f4d051e2cc4089a19339de8e18192c8c57c091376bb6e33c89c0157e64db00419572d428c606e007883a2d04d1b5bb74c86157d48cbbdba8c215736925ccc1e39770d62ac404e2058a382f06d3b7b976ca6355d68eb9d9aac017716b27cec3e59176d02cc202e4038c3e2900d5b1bf70cc6553d088bfdfacc611776d21c8c5e79374d22ec000e6018e3c2b02d7b3bd72ce6751d28abdddaec413756f23cac7e99d7adc20ce0ee80f8032250cd9bdb37cc0695fdc84b3d3a0ca1d7b612dc4c9eb9f78de22cc0cea0d8230270edbbfb17ec26b5dde86b1d1a2c81f79632fc6cbed997ed824ca0aec0b84362108ddb9b778c46d5bd880b7d7a4ce197f6529c0cdef9b7cda26c808ee098634230adfbbb57ac66f59da82b5d5a6cc1b7d672bc2cfe19572d428c606e007883a2d04d1b5bb74c86157d48cbbdba8c215736925ccc1e39770d62ac404e2058a382f06d3b7b976ca6355d68eb9d9aac017716b27cec3e59176d02cc202e4038c3e2900d5b1bf70cc6553d088bfdfacc611776d21c8c5e79374d22ec000e6018e3c2b02d7b3bd72ce6751d28abdddaec413756f23cac7e99d7adc20ce0ee80f8032250cd9bdb37cc0695fdc84b3d3a0ca1d7b612dc4c9eb9f78de22cc0cea0d8230270edbbfb17ec26b5dde86b1d1a2c81f79632fc6cbed997ed824ca0aec0b84362108ddb9b778c46d5bd880b7d7a4ce197f6529c0cdef9b7cda26c808ee098634230adfbbb57ac66f59da82b5d5a6cc1b7d672bc2cfe19572d428c606e007883a2d04d1b5bb74c86157d48cbbdba8c215736925ccc1e39770d62ac404e2058a382f06d3b7b976ca6355d68eb9d9aac017716b27cec3e59176d02cc202e4038c3e2900d5b1bf70cc6553d088bfdfacc611776d21c8c5e79374d22ec000e6018e3c2b02d7b3bd72ce6751d28abdddaec413756f23cac7e99d7adc20ce0ee80f8032250cd9bdb37cc0695fdc84b3d3a0ca1d7b612dc4c9eb9f78de22cc0cea0d8230270edbbfb17ec26b5dde86b1d1a2c81f79632fc6cbed997ed824ca0aec0b84362108ddb9b778c46d5bd880b7d7a4ce197f6529c0cdef9b7cda26c808ee098634230adfbbb57ac66f59da82b5d5a6cc1b7d672bc2cfe19572d428c606e007883a2d04d1b5bb74c86157d48cbbdba8c215736925ccc1e39770d62ac404e2058a382f06d3b7b976ca6355d68eb9d9aac017716b27cec3e59176d02cc202e4038c3e2900d5b1bf70cc6553d088bfdfacc611776d21c8c5e79374d22ec000e6018e3c2b02d7b3bd72ce6751d28abdddaec413756f23cac7e99d7adc20ce0ee80f8032250cd9bdb37cc0695fdc84b3d3a0ca1d7b612dc4c9eb9f78de22cc0cea0d8230270edbbfb17ec26b5dde86b1d1a2c81f79632fc6cbed997ed824ca0aec0b84362108ddb9b778c46d5bd880b7d7a4ce197f6529c0cdef9b7cda26c808ee098634230adfbbb57ac66f59da82b5d5a6cc1b7d672bc2cfe19572d428c606e007883a2d04d1b5bb74c86157d48cbbdba8c215736925ccc1e39770d62ac404e2058a382f06d3b7b976ca6355d68eb9d9aac017716b27cec3e59176d02cc202e4038c3e2900d5b1bf70cc6553d088bfdfacc611776d21c8c5e79374d22ec000e6018e3c2b02d7b3bd72ce6751d28abdddaec413756f23cac7e99d7adc20ce0ee80f8032250cd9bdb3720cbb55fbae3aa55289e93ed3bbf49705e86b1f21a0aec7cf0c76a211c1d8c2002fd75090e960daa89144273bf205f96a3a8dca242108f2a8c65a9c9783dca60ebb4f703aaf13e709fa0b56406ed56c997b0e6b946ec5b83fb17057e48381c9d0ede467d1f06bdd4c608d348c35eeac76bfbc4613c3082c8fd2e9a42fa06caaeff630f296dd0b6710c875214332773c6429df0953e422339ebc04a083c7fbccf61930613db1c7373436e20e6d6ba06dcab6a85d0c5b128f43e201a4f9ed02bdd23130369bdeebeb620eb682e6868404dbe8c696b3345be005b4487d3709b4640ee97f55dd3fa3e7fa21add5e88274314bb605168412a3617b6d3a0044eb75fc87f3e4e80526c47c98ecf41d5624a6127dcce1647169232679c40fb8c39e81104d35dad037217b3e183d8a42452250dc20288bd0e1cd34347829d802df65292efcf1db7ae09e350b2ea76eac47f04c1f45221ff71e9cb062bcebf8c07839e6a00629d6bad8c3863eb0f2fc45a5ccd51c30217267467cbfe339680895985a9854f98e9a8519f750806e6877b577f5d473165f58389377d2c98dc0b369dfce9ceab5a5370466ea9111815b0f6f8b50f073a1082cc6d20158bbbe862fd510f5ae2c201605949bf6cddbc92149504c6ea7932780c569c61cc6696d636b13f187bc2c53ca6a5fc4d080a37df1cc819cc9630634584711be1bab06b6cccc6ef26f0e876eeacf613ceca1125eda89bbeea6e24e1df21826a37d0275ab71af6773ed6c8d4b7654c47c8a7a61eaa30a164176a9110414602058a9ab400f91518513152719c9e2161c39f91385cf397bcecdf9a534f8fd827bbaeb9b194f844590d383e5dbe4da8076c44b1913ca4269de08b566c861c1e0c17dbe1a57c547a7dd3f0776413ece31e12db647a1f09fa3cbddffa145e8bb91dfe9475bb39545be87030efaa0a1e0565b6b12ed877f5773491bab57c227b54d06a218df56c741316431dbf46c7a985495ea74a22b6ef77622f423cdd36dd0e12639689ef508eb4cf753a19e25c9863f968d1cd786093b0260e0d2d7ece09c8f408cc99011ea9c99c79c3612d6d9f6ed2078dc0f16b938c4794e53fb8837acc1287bd7565476d77216eafe5e3c875fd78400f36f0165e03029dcdecc7eb89ceaf0b8c91fdd4d785cc61fdf87917f9b46d0f5ccaf6df2cff03cd9108ce297cf6f9613c424b07e7a9e15e2427406a445785ea8859a34f3d1b6885ae029ebd85aed15963852e3358c7e32bba1c5b252e2dd021383c536bcf6f187b8dd4f04e30748e87d888a171701aec9d1c25486eaed09e2eb91289fd531d8be3baa0b5dc902c08658b2704221c09dbc315aaf6992507a9155d0a7ea4594241c9a9e5fd0ce5ed96787edd5de2bcb0849925453f74c24b1d80e192371c85927b556c9623191fd9fcec6b18806039999698167c1c774650a0aecedf554b4c0774aafc966dd4e055d2577e105990df44563ee82fa6583efa44d74f5306bfb1b127cf0eedf7cdcfaaaa0f38c6515f467afb80b8c855d62869bf44307996fdcb6425eba886b002a50337b9709b1e4cac89e98e6dc63c179dc1069bef984f4c9f7e0cb88a0fab67f78044a11d6506534d3c6dfa23b4b25a1ee154e35129e9d98c2806245f73202b45d386c1621476e6e707cbb09aeb71709ba7bb906d2d9fd00e2ef4e69ca1a8cad966ed4c8527991d28d2e2aac9fd0d1c5ee2152832d762fe5c6c3f4edeb69c9ecacca9e2fc4dfe4850b651df26d040ff48b20691e2d58a20b4b49640383d9f54409eec84d31100962b2edb827789b022f59479bf980c73ee9671014ecf49c0296137525c381268073b920cacd0bd911114999348e7d8210966d16f194342e97480d8940ea807fbe6806f03131403ab1d18c6207668b5a1a72b63068b2989de2d868043aa1d9587a0ccd0454261af7adb2fe4f6fb3c6d513e5c7bcfc345a7c9c21bcc0c54af831dad4bfbea055332829bb2c36033e7dfde8f54a456923af1ed6a6d155f0a6b6e75fe14987592b82b2ea49e983ed15b9e9a43c63fabc56e5472ff19530cdae2e5669f8e4dd1b170f30614d222ec313a2c2093d48c9c351007f0b65e2fd97b2f1cb582a8760917793c7cc9d8a91c2cc6f17bd64e7b77932651a47dc24d69e7dd1670d4aadcc1acf1bce6b02c79e73942fdd5cdfe570efadf962aea0358acc893aca5c056a8310a82ef0a710c4d1027374c6685b62b2f2583f9c7a2d751a023665fd8b1538b5386068972b87e91c932b433d5f02a0b9d8d1267adb535f29c74a9597bb30642ac2769ec3ba4a2af4ab9b2c30c069d430070b1ab1d82f774b3c41175c0155c126c4222726dd86d4f386349af4b1d51018015312fea8ae29bcc49253aec955affc77c1f5f95f3b99dd27af72b8f42a00d0cd5a6215a03936c288f3b17047af0c9abbbf338e57e365f297b120e25da411d6d83484532263e23b05c31b73ea8db536b7c89fd4e52e068747e7f11e3d9ae7cfb924c528cb8a95bd1fb5ecde8adcf102d3d60f4006a5100e3a3028c0df8ac818de08832c098a6e98e627680f16309eda38f995adbb7981b22e96adc284a19e0004a40fd46c4c95de96a2806a362657020b899552abf7a00a03a97a01a440627dadc98969e12f32befeef7976f7c91ea72f91282808ad79806c98f722aa15835e1cf554f7bc7b7e487253443659029dcd115882a52cb69d772f29831fb932a05644b50ccd2d0cfa69ee718fdf362a996e4ff7ddfb3add2ff10bb6da353a6ee28aa241dcc56a1de90bf4826d8db8cef369277fcebece9f6577aeb56eb42c2f0817ccc74406314394e26bdad95317dfaef9b43ad0b0f26a3b8726dc9be8be08c2001993d86923f463babd8bd70f529f0c9a027d5c5e12045355d3dcc0294d89da1e9932275c35ecebfc9a7652d540b0463e5fc78b729b6e2d607b19e57af11e459188fe6be83cf1fbca992cc97087dc24871caf0c47898ccc8bc5e7cea16fa46cf4ddd4de77567ce1dacdafe91fca45e2b3e450fd1868ad87e7a4e4c0e6c1fb60354db181a0e350b514e4289cf7dafe4c113f2fb38a4b3e5511fdc64da71ab7c97c16a82fca6ab6544a62ad7c1e3935c8bdc4fc81630d436e3b37cc413d7490f1d4cc10bb7fc91c25a488dac6a7a3fdee1af75d611600cb90bbdd29224467c1a6c95c027e2828c78264438c7849f354078354b28c3762cb12e875fba801dd08b001cb26f649b43346e26cd9b42134412528594b2d859cbebb2eefa478a2196b1ca61639a9c97fb426006b6153c43fd50e7a05a459a7a58621e33fe0bd9c9829fd92a1f7106252273291a9a55ffddfe9d6e7fd3a7fa59ef80d275042829435c656c92969dc8d2e0f0f8070c0d1a20263d546f7d869596979ea1a5b0dbeaebf85e606691b7c7c9dae1055256647b9b9cbed7e5000000000000000000000000000000000000000000000000000e242d3701fd210500b5fdaeab8871318134253baaa470a4e21faa5de935028cf7c8d085d72d9424db793b989b650686ee21189fc301a4d17c8087f6a3d17b963309a4ee51edf255e7bed7835ea4af87317e72bf7c87137809061b7739bf679ba26b50b57a5013501dc57c7d95f9bc71d66750d60820e7eaefa30cff1eb8a1cc449bf4c8618047415c2d4a060a206fd4b42d90988b20601436c476f619f915ad40bad0249b112b511fba517758cdceb3b0f9aac881e55f902e663e3cac45a36ae50174beb071bfa700da9ad7bcd9082b80a65e0ea6e62f9a93a1879fb07dca2f9e7666af2c1ea9d6e2221742073f3bcd78819c8a879d6dd5bfe1ad081d3d2db30cb9b15bdcfe7d085e1fc8f8848b857d6331e7ed311f8188920e857d24d3aa7d82cd46caf4f38eb5aefb4b5cd643115bf95d454a5cc341b7605501a7291ce6caf12850221e11ff23eec30c3505f3dfc8cd9ad75810862e30873c506a655ecd8fe4d5bbf9a30262ce3d1c376d48d9d57e545ca7ddd77cf4d58d12d11337c4edd1a93871136d9fa2a70cda875432b66b04b7a60e7bf1e19d514e275eca7687975dea9a418cf111d0822ce21f95c596aef6d377ac6ee1d872c3c05b0b13b25b8213b473f42401fdddb84a61457cdac88a9c4161660f4a388e557cf64ae932dfde8b76fabcbd210ee36e39b2099808385da14c453445e304e01de37647ceeda4c11cb4b7ad1fea8373458f0926875321a1ccc6c5a05f8d0f016a40d3fa5dfdc9807212b898c1a5ff917eb194b6e9854cf5113ece16835e6d908c84bf30f69ba4639882470978a1ef60ccf21f8b3ceb72a1b11b7610d4294e7d762c208438f7213536b569757c0dc881e2a129c244418405e99e888c8fe586991676f110fd7d12d36d671544ae6af6b5855632363810c1fab4f8116ec969268a1121899dc7c7866e34cd0bb09a7cdb567ef2d22dbfde08da77338407674cefea47160799f91a2861d332615440b49c9d3537c925522430a058b25030f7aa47b263e16f90a7388213c9adfb7548dbc970163baccdacd1ec44bc56c838e5ef49af9b2766123856b31fb1b6a1b06d31da575a4e68a247397ce225521a4c83a2d14b53f3780b7c684f2f44287e4108ce967acc69b2741fecb54dc0640eae6a84b84cffce37cca9bd7f14c2f379563130ab592cce649ff740ab67e3acf17cfe05eda96c4659a15232eb6cf54c689d23293b62787a190aa11b0f09ee4af3a06a105b1798399a7d7763d006c4390b1c2e7d83d7e4fb0788c4a9f2e175c1b349b14b79135bc9d54352797b6265e4e92ef9a6077776db0654c6887284fd786f7fd8212e5530b6331af385374f1f9c1d07d9217359c14d2a9d6c952a0d9a6e18c032cbcb0f5d0b630bfe86ca44cfb514a7ad08b7c8965df5c0fbeb714a5eddb67b92f7d235aa6f8aae0d39d7c57113d721f928f0a2f8828e355d1be3ee891716235415133731879da41ac610a1437efe81b30f54b63758c6fb548773bfca2753afda0caea4608b86d527023e11fbc31b238d73c3f3cab10db97c605ac21c28a9705d120a5798fa72e6278575c3ca3b7d98100b42179c4c88e111929e310fd1dd0b4d38e1be208a998ec57bbdf54456f1626135e03ca12352e1679ff52b970c86cc369e5ae5f9674630dc6f6c6ca9b770115cfd9c8bebb5f266865840f3c765a1901e03141f7953885c0c8ab6f4fe04ada66807dcca9c907335364d346bd2aa411b5f0e78fb75bac8cfae76845214d9a9d114ec28f9615f22816ce8b2b4b87492f69bd4d1e2decceb722aedc5711048f12adb2e09f590d159b29a0f4764e7f0d622a024bafb079d3369e1b44f37c7e213d85b5fce25721d89000000",
  "txid": "0c582881a7d2b6d4e7f578756817829ac540b2a25a81d3fd18ef675f3b0c6093",
  "hash": "25c42e5ca7247608e93d69dd8e4c942fb355878da3532e64d58483a949fb39cf",
  "size": 5085,
  "vsize": 2278,
  "version": 1,
  "locktime": 137,
  "vin": [
    {
      "txid": "b10feb113f49b8923eec29c66f0bfda69e0c3c0a6a77d2ee9feb07e1c4fa18f7",
      "vout": 0,
      "scriptSig": {
        "asm": "",
        "hex": ""
      },
      "txinwitness": [
        "0e960daa89144273bf205f96a3a8dca242108f2a8c65a9c9783dca60ebb4f703aaf13e709fa0b56406ed56c997b0e6b946ec5b83fb17057e48381c9d0ede467d1f06bdd4c608d348c35eeac76bfbc4613c3082c8fd2e9a42fa06caaeff630f296dd0b6710c875214332773c6429df0953e422339ebc04a083c7fbccf61930613db1c7373436e20e6d6ba06dcab6a85d0c5b128f43e201a4f9ed02bdd23130369bdeebeb620eb682e6868404dbe8c696b3345be005b4487d3709b4640ee97f55dd3fa3e7fa21add5e88274314bb605168412a3617b6d3a0044eb75fc87f3e4e80526c47c98ecf41d5624a6127dcce1647169232679c40fb8c39e81104d35dad037217b3e183d8a42452250dc20288bd0e1cd34347829d802df65292efcf1db7ae09e350b2ea76eac47f04c1f45221ff71e9cb062bcebf8c07839e6a00629d6bad8c3863eb0f2fc45a5ccd51c30217267467cbfe339680895985a9854f98e9a8519f750806e6877b577f5d473165f58389377d2c98dc0b369dfce9ceab5a5370466ea9111815b0f6f8b50f073a1082cc6d20158bbbe862fd510f5ae2c201605949bf6cddbc92149504c6ea7932780c569c61cc6696d636b13f187bc2c53ca6a5fc4d080a37df1cc819cc9630634584711be1bab06b6cccc6ef26f0e876eeacf613ceca1125eda89bbeea6e24e1df21826a37d0275ab71af6773ed6c8d4b7654c47c8a7a61eaa30a164176a9110414602058a9ab400f91518513152719c9e2161c39f91385cf397bcecdf9a534f8fd827bbaeb9b194f844590d383e5dbe4da8076c44b1913ca4269de08b566c861c1e0c17dbe1a57c547a7dd3f0776413ece31e12db647a1f09fa3cbddffa145e8bb91dfe9475bb39545be87030efaa0a1e0565b6b12ed877f5773491bab57c227b54d06a218df56c741316431dbf46c7a985495ea74a22b6ef77622f423cdd36dd0e12639689ef508eb4cf753a19e25c9863f968d1cd786093b0260e0d2d7ece09c8f408cc99011ea9c99c79c3612d6d9f6ed2078dc0f16b938c4794e53fb8837acc1287bd7565476d77216eafe5e3c875fd78400f36f0165e03029dcdecc7eb89ceaf0b8c91fdd4d785cc61fdf87917f9b46d0f5ccaf6df2cff03cd9108ce297cf6f9613c424b07e7a9e15e2427406a445785ea8859a34f3d1b6885ae029ebd85aed15963852e3358c7e32bba1c5b252e2dd021383c536bcf6f187b8dd4f04e30748e87d888a171701aec9d1c25486eaed09e2eb91289fd531d8be3baa0b5dc902c08658b2704221c09dbc315aaf6992507a9155d0a7ea4594241c9a9e5fd0ce5ed96787edd5de2bcb0849925453f74c24b1d80e192371c85927b556c9623191fd9fcec6b18806039999698167c1c774650a0aecedf554b4c0774aafc966dd4e055d2577e105990df44563ee82fa6583efa44d74f5306bfb1b127cf0eedf7cdcfaaaa0f38c6515f467afb80b8c855d62869bf44307996fdcb6425eba886b002a50337b9709b1e4cac89e98e6dc63c179dc1069bef984f4c9f7e0cb88a0fab67f78044a11d6506534d3c6dfa23b4b25a1ee154e35129e9d98c2806245f73202b45d386c1621476e6e707cbb09aeb71709ba7bb906d2d9fd00e2ef4e69ca1a8cad966ed4c8527991d28d2e2aac9fd0d1c5ee2152832d762fe5c6c3f4edeb69c9ecacca9e2fc4dfe4850b651df26d040ff48b20691e2d58a20b4b49640383d9f54409eec84d31100962b2edb827789b022f59479bf980c73ee9671014ecf49c0296137525c381268073b920cacd0bd911114999348e7d8210966d16f194342e97480d8940ea807fbe6806f03131403ab1d18c6207668b5a1a72b63068b2989de2d868043aa1d9587a0ccd0454261af7adb2fe4f6fb3c6d513e5c7bcfc345a7c9c21bcc0c54af831dad4bfbea055332829bb2c36033e7dfde8f54a456923af1ed6a6d155f0a6b6e75fe14987592b82b2ea49e983ed15b9e9a43c63fabc56e5472ff19530cdae2e5669f8e4dd1b170f30614d222ec313a2c2093d48c9c351007f0b65e2fd97b2f1cb582a8760917793c7cc9d8a91c2cc6f17bd64e7b77932651a47dc24d69e7dd1670d4aadcc1acf1bce6b02c79e73942fdd5cdfe570efadf962aea0358acc893aca5c056a8310a82ef0a710c4d1027374c6685b62b2f2583f9c7a2d751a023665fd8b1538b5386068972b87e91c932b433d5f02a0b9d8d1267adb535f29c74a9597bb30642ac2769ec3ba4a2af4ab9b2c30c069d430070b1ab1d82f774b3c41175c0155c126c4222726dd86d4f386349af4b1d51018015312fea8ae29bcc49253aec955affc77c1f5f95f3b99dd27af72b8f42a00d0cd5a6215a03936c288f3b17047af0c9abbbf338e57e365f297b120e25da411d6d83484532263e23b05c31b73ea8db536b7c89fd4e52e068747e7f11e3d9ae7cfb924c528cb8a95bd1fb5ecde8adcf102d3d60f4006a5100e3a3028c0df8ac818de08832c098a6e98e627680f16309eda38f995adbb7981b22e96adc284a19e0004a40fd46c4c95de96a2806a362657020b899552abf7a00a03a97a01a440627dadc98969e12f32befeef7976f7c91ea72f91282808ad79806c98f722aa15835e1cf554f7bc7b7e487253443659029dcd115882a52cb69d772f29831fb932a05644b50ccd2d0cfa69ee718fdf362a996e4ff7ddfb3add2ff10bb6da353a6ee28aa241dcc56a1de90bf4826d8db8cef369277fcebece9f6577aeb56eb42c2f0817ccc74406314394e26bdad95317dfaef9b43ad0b0f26a3b8726dc9be8be08c2001993d86923f463babd8bd70f529f0c9a027d5c5e12045355d3dcc0294d89da1e9932275c35ecebfc9a7652d540b0463e5fc78b729b6e2d607b19e57af11e459188fe6be83cf1fbca992cc97087dc24871caf0c47898ccc8bc5e7cea16fa46cf4ddd4de77567ce1dacdafe91fca45e2b3e450fd1868ad87e7a4e4c0e6c1fb60354db181a0e350b514e4289cf7dafe4c113f2fb38a4b3e5511fdc64da71ab7c97c16a82fca6ab6544a62ad7c1e3935c8bdc4fc81630d436e3b37cc413d7490f1d4cc10bb7fc91c25a488dac6a7a3fdee1af75d611600cb90bbdd29224467c1a6c95c027e2828c78264438c7849f354078354b28c3762cb12e875fba801dd08b001cb26f649b43346e26cd9b42134412528594b2d859cbebb2eefa478a2196b1ca61639a9c97fb426006b6153c43fd50e7a05a459a7a58621e33fe0bd9c9829fd92a1f7106252273291a9a55ffddfe9d6e7fd3a7fa59ef80d275042829435c656c92969dc8d2e0f0f8070c0d1a20263d546f7d869596979ea1a5b0dbeaebf85e606691b7c7c9dae1055256647b9b9cbed7e5000000000000000000000000000000000000000000000000000e242d3701",
        "00b5fdaeab8871318134253baaa470a4e21faa5de935028cf7c8d085d72d9424db793b989b650686ee21189fc301a4d17c8087f6a3d17b963309a4ee51edf255e7bed7835ea4af87317e72bf7c87137809061b7739bf679ba26b50b57a5013501dc57c7d95f9bc71d66750d60820e7eaefa30cff1eb8a1cc449bf4c8618047415c2d4a060a206fd4b42d90988b20601436c476f619f915ad40bad0249b112b511fba517758cdceb3b0f9aac881e55f902e663e3cac45a36ae50174beb071bfa700da9ad7bcd9082b80a65e0ea6e62f9a93a1879fb07dca2f9e7666af2c1ea9d6e2221742073f3bcd78819c8a879d6dd5bfe1ad081d3d2db30cb9b15bdcfe7d085e1fc8f8848b857d6331e7ed311f8188920e857d24d3aa7d82cd46caf4f38eb5aefb4b5cd643115bf95d454a5cc341b7605501a7291ce6caf12850221e11ff23eec30c3505f3dfc8cd9ad75810862e30873c506a655ecd8fe4d5bbf9a30262ce3d1c376d48d9d57e545ca7ddd77cf4d58d12d11337c4edd1a93871136d9fa2a70cda875432b66b04b7a60e7bf1e19d514e275eca7687975dea9a418cf111d0822ce21f95c596aef6d377ac6ee1d872c3c05b0b13b25b8213b473f42401fdddb84a61457cdac88a9c4161660f4a388e557cf64ae932dfde8b76fabcbd210ee36e39b2099808385da14c453445e304e01de37647ceeda4c11cb4b7ad1fea8373458f0926875321a1ccc6c5a05f8d0f016a40d3fa5dfdc9807212b898c1a5ff917eb194b6e9854cf5113ece16835e6d908c84bf30f69ba4639882470978a1ef60ccf21f8b3ceb72a1b11b7610d4294e7d762c208438f7213536b569757c0dc881e2a129c244418405e99e888c8fe586991676f110fd7d12d36d671544ae6af6b5855632363810c1fab4f8116ec969268a1121899dc7c7866e34cd0bb09a7cdb567ef2d22dbfde08da77338407674cefea47160799f91a2861d332615440b49c9d3537c925522430a058b25030f7aa47b263e16f90a7388213c9adfb7548dbc970163baccdacd1ec44bc56c838e5ef49af9b2766123856b31fb1b6a1b06d31da575a4e68a247397ce225521a4c83a2d14b53f3780b7c684f2f44287e4108ce967acc69b2741fecb54dc0640eae6a84b84cffce37cca9bd7f14c2f379563130ab592cce649ff740ab67e3acf17cfe05eda96c4659a15232eb6cf54c689d23293b62787a190aa11b0f09ee4af3a06a105b1798399a7d7763d006c4390b1c2e7d83d7e4fb0788c4a9f2e175c1b349b14b79135bc9d54352797b6265e4e92ef9a6077776db0654c6887284fd786f7fd8212e5530b6331af385374f1f9c1d07d9217359c14d2a9d6c952a0d9a6e18c032cbcb0f5d0b630bfe86ca44cfb514a7ad08b7c8965df5c0fbeb714a5eddb67b92f7d235aa6f8aae0d39d7c57113d721f928f0a2f8828e355d1be3ee891716235415133731879da41ac610a1437efe81b30f54b63758c6fb548773bfca2753afda0caea4608b86d527023e11fbc31b238d73c3f3cab10db97c605ac21c28a9705d120a5798fa72e6278575c3ca3b7d98100b42179c4c88e111929e310fd1dd0b4d38e1be208a998ec57bbdf54456f1626135e03ca12352e1679ff52b970c86cc369e5ae5f9674630dc6f6c6ca9b770115cfd9c8bebb5f266865840f3c765a1901e03141f7953885c0c8ab6f4fe04ada66807dcca9c907335364d346bd2aa411b5f0e78fb75bac8cfae76845214d9a9d114ec28f9615f22816ce8b2b4b87492f69bd4d1e2decceb722aedc5711048f12adb2e09f590d159b29a0f4764e7f0d622a024bafb079d3369e1b44f37c7e213d85b5fce25721d"
      ],
      "sequence": 4294967294
    }
  ],
  "vout": [
    {
      "value": 499960.3409,
      "n": 0,
      "scriptPubKey": {
        "asm": "1 e6e280ba18e6902082122f93b3b486c80ea0a3a7c6a484c28743ade83b1e054c",
        "hex": "5120e6e280ba18e6902082122f93b3b486c80ea0a3a7c6a484c28743ade83b1e054c",
        "reqSigs": 1,
        "type": "witness_v1_scripthash",
        "addresses": [
          "3QJmnh"
        ]
      }
    },
    {
      "value": 1.0,
      "n": 1,
      "scriptPubKey": {
        "asm": "OP_RETURN 6df19b2f4d051e2cc4089a19339de8e18192c8c57c091376bb6e33c89c0157e6 19572d428c606e007883a2d04d1b5bb74c86157d48cbbdba8c215736925ccc1e39770d62ac404e2058a382f06d3b7b976ca6355d68eb9d9aac017716b27cec3e59176d02cc202e4038c3e2900d5b1bf70cc6553d088bfdfacc611776d21c8c5e79374d22ec000e6018e3c2b02d7b3bd72ce6751d28abdddaec413756f23cac7e99d7adc20ce0ee80f8032250cd9bdb37cc0695fdc84b3d3a0ca1d7b612dc4c9eb9f78de22cc0cea0d8230270edbbfb17ec26b5dde86b1d1a2c81f79632fc6cbed997ed824ca0aec0b84362108ddb9b778c46d5bd880b7d7a4ce197f6529c0cdef9b7cda26c808ee098634230adfbbb57ac66f59da82b5d5a6cc1b7d672bc2cfe19572d428c606e007883a2d04d1b5bb74c86157d48cbbdba8c215736925ccc1e39770d62ac404e2058a382f06d3b7b976ca6355d68eb9d9aac017716b27cec3e59176d02cc202e4038c3e2900d5b1bf70cc6553d088bfdfacc611776d21c8c5e79374d22ec000e6018e3c2b02d7b3bd72ce6751d28abdddaec413756f23cac7e99d7adc20ce0ee80f8032250cd9bdb37cc0695fdc84b3d3a0ca1d7b612dc4c9eb9f78de22cc0cea0d8230270edbbfb17ec26b5dde86b1d1a2c81f79632fc6cbed997ed824ca0aec0b84362108ddb9b778c46d5bd880b7d7a4ce197f6529c0cdef9b7cda26c808ee098634230adfbbb57ac66f59da82b5d5a6cc1b7d672bc2cfe19572d428c606e007883a2d04d1b5bb74c86157d48cbbdba8c215736925ccc1e39770d62ac404e2058a382f06d3b7b976ca6355d68eb9d9aac017716b27cec3e59176d02cc202e4038c3e2900d5b1bf70cc6553d088bfdfacc611776d21c8c5e79374d22ec000e6018e3c2b02d7b3bd72ce6751d28abdddaec413756f23cac7e99d7adc20ce0ee80f8032250cd9bdb37cc0695fdc84b3d3a0ca1d7b612dc4c9eb9f78de22cc0cea0d8230270edbbfb17ec26b5dde86b1d1a2c81f79632fc6cbed997ed824ca0aec0b84362108ddb9b778c46d5bd880b7d7a4ce197f6529c0cdef9b7cda26c808ee098634230adfbbb57ac66f59da82b5d5a6cc1b7d672bc2cfe19572d428c606e007883a2d04d1b5bb74c86157d48cbbdba8c215736925ccc1e39770d62ac404e2058a382f06d3b7b976ca6355d68eb9d9aac017716b27cec3e59176d02cc202e4038c3e2900d5b1bf70cc6553d088bfdfacc611776d21c8c5e79374d22ec000e6018e3c2b02d7b3bd72ce6751d28abdddaec413756f23cac7e99d7adc20ce0ee80f8032250cd9bdb37cc0695fdc84b3d3a0ca1d7b612dc4c9eb9f78de22cc0cea0d8230270edbbfb17ec26b5dde86b1d1a2c81f79632fc6cbed997ed824ca0aec0b84362108ddb9b778c46d5bd880b7d7a4ce197f6529c0cdef9b7cda26c808ee098634230adfbbb57ac66f59da82b5d5a6cc1b7d672bc2cfe19572d428c606e007883a2d04d1b5bb74c86157d48cbbdba8c215736925ccc1e39770d62ac404e2058a382f06d3b7b976ca6355d68eb9d9aac017716b27cec3e59176d02cc202e4038c3e2900d5b1bf70cc6553d088bfdfacc611776d21c8c5e79374d22ec000e6018e3c2b02d7b3bd72ce6751d28abdddaec413756f23cac7e99d7adc20ce0ee80f8032250cd9bdb3720cbb55fbae3aa55289e93ed3bbf49705e86b1f21a0aec7cf0c76a211c1d8c20",
        "hex": "6a206df19b2f4d051e2cc4089a19339de8e18192c8c57c091376bb6e33c89c0157e64db00419572d428c606e007883a2d04d1b5bb74c86157d48cbbdba8c215736925ccc1e39770d62ac404e2058a382f06d3b7b976ca6355d68eb9d9aac017716b27cec3e59176d02cc202e4038c3e2900d5b1bf70cc6553d088bfdfacc611776d21c8c5e79374d22ec000e6018e3c2b02d7b3bd72ce6751d28abdddaec413756f23cac7e99d7adc20ce0ee80f8032250cd9bdb37cc0695fdc84b3d3a0ca1d7b612dc4c9eb9f78de22cc0cea0d8230270edbbfb17ec26b5dde86b1d1a2c81f79632fc6cbed997ed824ca0aec0b84362108ddb9b778c46d5bd880b7d7a4ce197f6529c0cdef9b7cda26c808ee098634230adfbbb57ac66f59da82b5d5a6cc1b7d672bc2cfe19572d428c606e007883a2d04d1b5bb74c86157d48cbbdba8c215736925ccc1e39770d62ac404e2058a382f06d3b7b976ca6355d68eb9d9aac017716b27cec3e59176d02cc202e4038c3e2900d5b1bf70cc6553d088bfdfacc611776d21c8c5e79374d22ec000e6018e3c2b02d7b3bd72ce6751d28abdddaec413756f23cac7e99d7adc20ce0ee80f8032250cd9bdb37cc0695fdc84b3d3a0ca1d7b612dc4c9eb9f78de22cc0cea0d8230270edbbfb17ec26b5dde86b1d1a2c81f79632fc6cbed997ed824ca0aec0b84362108ddb9b778c46d5bd880b7d7a4ce197f6529c0cdef9b7cda26c808ee098634230adfbbb57ac66f59da82b5d5a6cc1b7d672bc2cfe19572d428c606e007883a2d04d1b5bb74c86157d48cbbdba8c215736925ccc1e39770d62ac404e2058a382f06d3b7b976ca6355d68eb9d9aac017716b27cec3e59176d02cc202e4038c3e2900d5b1bf70cc6553d088bfdfacc611776d21c8c5e79374d22ec000e6018e3c2b02d7b3bd72ce6751d28abdddaec413756f23cac7e99d7adc20ce0ee80f8032250cd9bdb37cc0695fdc84b3d3a0ca1d7b612dc4c9eb9f78de22cc0cea0d8230270edbbfb17ec26b5dde86b1d1a2c81f79632fc6cbed997ed824ca0aec0b84362108ddb9b778c46d5bd880b7d7a4ce197f6529c0cdef9b7cda26c808ee098634230adfbbb57ac66f59da82b5d5a6cc1b7d672bc2cfe19572d428c606e007883a2d04d1b5bb74c86157d48cbbdba8c215736925ccc1e39770d62ac404e2058a382f06d3b7b976ca6355d68eb9d9aac017716b27cec3e59176d02cc202e4038c3e2900d5b1bf70cc6553d088bfdfacc611776d21c8c5e79374d22ec000e6018e3c2b02d7b3bd72ce6751d28abdddaec413756f23cac7e99d7adc20ce0ee80f8032250cd9bdb37cc0695fdc84b3d3a0ca1d7b612dc4c9eb9f78de22cc0cea0d8230270edbbfb17ec26b5dde86b1d1a2c81f79632fc6cbed997ed824ca0aec0b84362108ddb9b778c46d5bd880b7d7a4ce197f6529c0cdef9b7cda26c808ee098634230adfbbb57ac66f59da82b5d5a6cc1b7d672bc2cfe19572d428c606e007883a2d04d1b5bb74c86157d48cbbdba8c215736925ccc1e39770d62ac404e2058a382f06d3b7b976ca6355d68eb9d9aac017716b27cec3e59176d02cc202e4038c3e2900d5b1bf70cc6553d088bfdfacc611776d21c8c5e79374d22ec000e6018e3c2b02d7b3bd72ce6751d28abdddaec413756f23cac7e99d7adc20ce0ee80f8032250cd9bdb3720cbb55fbae3aa55289e93ed3bbf49705e86b1f21a0aec7cf0c76a211c1d8c20",
        "type": "nulldata"
      }
    }
  ],
  "blockhash": "9c49f121af07ca043271baff5049446c1aadf74400091ff8de6bf4087ac8778e",
  "confirmations": 1,
  "time": 1764183425,
  "blocktime": 1764183425
}