{
  "hex": "01000000000101dd8cc0655dbf64c8e1748ccb5e1b7d017448e85f9c3facc55614fb2864c8855b0000000000feffffff0200e1f50500000000fdd5046a201796fd3f8bf317e1814b7852927c193cb0f21a213036a0ce520b1057a9b870364db0045967d3f8531f4b0865ffcaef1338041148bc514f32f0ef0b060df1fcd5ce43237947f3d8733f6b2845dfeacf33182431689c716f12d0cf2b262dd1dcf5ee6303192793b8135f0b4825bf8aaf5378445108fc110f72b0af4b464db1bc958e03633907b398337f2b68059faa8f7358647128dc312f52908f6b666d919cb5ae2343d9e75378d39fcb88e57f4a6f93b88491c83cd1cfb2706f8b868d717c554ec3a3f9c77358f3bfeba8c55f6a4fb398a4b1e81cf1ef92504faba6ad515c756ee38399a7133893df8bc8a53f0a2fd3f8c4d1887c918ff2302fcbc6cd313c150e83e3b9873318b3ffabe8851f2a0ff3d8e4f1a85cb1afd2100febe6ed111c352ea3c35967d3f8531f4b0865ffcaef1338041148bc514f32f0ef0b060df1fcd5ce43237947f3d8733f6b2845dfeacf33182431689c716f12d0cf2b262dd1dcf5ee6303192793b8135f0b4825bf8aaf5378445108fc110f72b0af4b464db1bc958e03633907b398337f2b68059faa8f7358647128dc312f52908f6b666d919cb5ae2343d9e75378d39fcb88e57f4a6f93b88491c83cd1cfb2706f8b868d717c554ec3a3f9c77358f3bfeba8c55f6a4fb398a4b1e81cf1ef92504faba6ad515c756ee38399a7133893df8bc8a53f0a2fd3f8c4d1887c918ff2302fcbc6cd313c150e83e3b9873318b3ffabe8851f2a0ff3d8e4f1a85cb1afd2100febe6ed111c352ea3c35967d3f8531f4b0865ffcaef1338041148bc514f32f0ef0b060df1fcd5ce43237947f3d8733f6b2845dfeacf33182431689c716f12d0cf2b262dd1dcf5ee6303192793b8135f0b4825bf8aaf5378445108fc110f72b0af4b464db1bc958e03633907b398337f2b68059faa8f7358647128dc312f52908f6b666d919cb5ae2343d9e75378d39fcb88e57f4a6f93b88491c83cd1cfb2706f8b868d717c554ec3a3f9c77358f3bfeba8c55f6a4fb398a4b1e81cf1ef92504faba6ad515c756ee38399a7133893df8bc8a53f0a2fd3f8c4d1887c918ff2302fcbc6cd313c150e83e3b9873318b3ffabe8851f2a0ff3d8e4f1a85cb1afd2100febe6ed111c352ea3c35967d3f8531f4b0865ffcaef1338041148bc514f32f0ef0b060df1fcd5ce43237947f3d8733f6b2845dfeacf33182431689c716f12d0cf2b262dd1dcf5ee6303192793b8135f0b4825bf8aaf5378445108fc110f72b0af4b464db1bc958e03633907b398337f2b68059faa8f7358647128dc312f52908f6b666d919cb5ae2343d9e75378d39fcb88e57f4a6f93b88491c83cd1cfb2706f8b868d717c554ec3a3f9c77358f3bfeba8c55f6a4fb398a4b1e81cf1ef92504faba6ad515c756ee38399a7133893df8bc8a53f0a2fd3f8c4d1887c918ff2302fcbc6cd313c150e83e3b9873318b3ffabe8851f2a0ff3d8e4f1a85cb1afd2100febe6ed111c352ea3c35967d3f8531f4b0865ffcaef1338041148bc514f32f0ef0b060df1fcd5ce43237947f3d8733f6b2845dfeacf33182431689c716f12d0cf2b262dd1dcf5ee6303192793b8135f0b4825bf8aaf5378445108fc110f72b0af4b464db1bc958e03633907b398337f2b68059faa8f7358647128dc312f52908f6b666d919cb5ae2343d9e75378d39fcb88e57f4a6f93b8849165f09d839daf87aabb13b46b087c9240a55bd1a47666cb9850626867878ff6276076a04b792d00002251208a897e383f59a3407bf010c2b4db0015bbc2f29e05a3832d9a4e665420137f4602fd75095effc439dd32a00237c2911b3769f9c3fcae39329a5f7457add6bbc2508b3322e411b680a629be3c112b8a1a2de109cd9bc08bd7d3a1b0481308ec8a7c5e0d861ee97d0778ebd7cf2be477c7ef01bbab87081e218b490ae719e052428c02c3180c34319e9966916a81d072f89b07c69e85ea7fa11b428dcad42e9559903cf3a5572cef844b619f1f169543facc14b54a04467de36e7ee9d129d69622b9706ae9faf5ac2265c544e071d6f85fa604d663df61c91095e9015d2778d4b83279b42fa55d93c8b8e7dc5b98fa74c210d923c46288d1a94ee5bbaac7ee555eb6f461cc03d29a509d994d95bd056e2750f9388287518107ede6da682ac6032c9d8579e160ba63e22fac59971a95360416ba281c73bfa30b7db2b5c0417e216ff7d6551999de6ada802ffc25ddf30c48356da1f238ae42d164515f7ae6ac87cbec17d121394281234c251e7159d760edb2bbc249f38d9ad576c5dfad89f0cc2a063e7d9ffb3250b7721afca4346f6135d98dd3eca57b124678a662e97bf5de20e466cc41fb03465129a638d03b207a694701fede96755b7ca38e552aad7481c7901fe6271e2ded9ca98bf70d36692969bed9f2ff83889a3f439c6779c615bfe5854e5812aa184aaf2e5fa6dacab598d7f97fe5fb91999183316edce7415d7405cf65a873b7cad4506f4794567eab8eb0f431138ab874750d23f42ea4ba32490c7daab7187f66f415644e6792769f07622f2deee25a44821f483f5680b963c4fef50e5bc998c222a58df9b10bb954be555bb53511a4677297ff3c340b41a00f1b2c9d169b2282553c9658617c964943615144e727616d495f7db791b3d9c08dd451d1340f8cb3ad681f853589802f69e01ca99e6e909b9011b18eedabbcdf4280f3e1204235610e3ae5417d23c8caf5dacf6d95ad643172eca958e0a938dea8c0d25f0a41804830fa7623db24d123630aa8c5dda15c96cdc533288fb3aa8bdcb179b4fe110813de2561a60491a80a5d3a384c95335d8c34dcf69eb12bc88383d6c428a0565f16a40f4e7265d3d05093ec1e1c2472bb7fc97e89c88f4b575af2ccdc0e8fb9de9d581578ad639e603a1b070f8e6ff081d03e9a3456c1cb08bb83f860213e97aa45021938c168bed258c8ca11df018e9fbfefb219bec07e8555d65c265463857ff8bb8d968ad087a3b0118ed32f1a5c2f28a241468c213563d7678ecf172cec1fda5067f270881e2a2856bdf0d15e4c6c154b4d522b7d467497f1fea9bead9fd5e659c9ef5c6cb674bee4c1af312fc1353bbddf4cb28b421144eee94b8cf35edc9ead1cbe736cc4fc2fde55c1c5e7d80cb4bf87682f7f006411cccc3ac6f6113a7e5adb8886d752cd1533c36af372659057a00b6a3f5bc203a2aec7bf429e0155b15577818bb6cb50ffb74de11579f24346bcd65e6ce78ec6537b504b0d45f396c3108c88ee1c6b810648a64e6cf1ebc58e80852d92f39704584a454709e6efee1cb79e2c7071475c59c2c242fbecc0319c76edd10d96030dc1374a1f3c9c2a31bc759a4548cb90642aa957111b6f2479bfaaae7ba58cb6aa033b8c9879b6ee48d21360299b1df089c5f452e86786bc16b9df421b786966ee7163b6bdf55999d4b81e266ad92af6f9677cfd7669022fc1ced79733eed83a6e03ac743735eb6585d2ddf8b97eff77609ad4c6dacc19702688101764c6f00be242e971825ec37dac8105f5b267266b83d2b729033066b2affff8403f56816a4c0db9ea5737a32b4a199962aa43d78b3bbf9ed7cfb2c4e7003a2257abd3c4b4446eb9da380192df2e1d32f997026a425f35bc97c48ec41930685ce8d75e70edfb3972083daa1cc74779bfc36f348c94a67dab2249beb7cfcbf4da7b100173eb8faf4b8fb8f8b9b50edf5cf058b52875f50331c7440307e360c3f1901f94c8fa686d6255dc318464eab354835b0d61b1c9092e60bca870c4fab2f353b6cf0ad2d479010836807793f87617a940475ffc51f30e537e33bf37c05273d869023f5ad3828002a4e7b930a7889349e11efafba971ce631ba4ae09cf9b68bec5d4bbd58b8dec923b5e54303779564cd31338ecf4fc10122604dc083cd9325f1bd1768250414739f14204506797c12093456c28f86545334932ebb10c6529ba9756e12a853e860bd3fbd822e541274a88303012999ffc76a89e8aae507444afdbc67e1eb8484f5041a6c1cf4d817fd40f91aba9bc63dcd79b581df923cbd9fbe4c666d694fa89379d34d69442135e7bcac8944b97019e02c02e4ef207629f1e0b8f153636a04e1ee7a34e2ce3e2602e452c2a819e790a984211b66a28e1ee451d3707d2189df2fd14ab7e74a091ec9bee1816a0d59c6a9124bc9b0495c01a62d7942c63a5dbb57ee724ee0a0d7bae69f9838a01641635b0a7e3be5e1109d72c965d53ede836dab290f41795dd11297b75472b880e41e3a077658f827a54483e77042efa66f6758a8e6fd37b8f73e75ffc1f3b476c81e262c6e360b82ec00cce06290871b4abbb224d43795661c8d58b9c78a7d3bde5df8f68f449788704742a1f68d4826b0e917934971b5a57d0d180a069252db0a618a0e3859680282e637632c7fbf41d99d7ea85a4769f9b56d40f0323fd0e2cbc3c139cf933fa839b7076e759d8c6d6f2db89fe84b32287fda814aea362cac62440440a7a1ce822c1b7ac883bab13114e9128d45a967003582a3c173bad6051ad893b2e7374fe8e87884cc44c06da8d7b9f2373ab03ef7f04d5b4d488fdcf5303be7e2ea8be0378906acfae0cdc251c714a81e2398fbffb1694038f80b9cd509da5bd955cf827028854a5bb053e94b46a3fae2f81965d23ba362a45424214d1157062ce3696223a103c7c2b93cef697bbef07e85e77e2c3f5adc83353f0055b1a5835130a1344cb959be1ae62aeb2c212aae8226152d1f71bf40515e4ad04598e8c12b8fceb39362c3f7d0f9222f1e4c138a7e6cb20cfcd0efacd4f7effa0fcf261f360e8f18cfc655e4cfbb08f13a8fd9d362cd17e61c894ac34a8f61ef8fa0a213f9915ebabb2d596876274231257e5500deeb55d8f9af8e7f6417e7880821da675d16149ae86f906f3cac17e35baf27b58c67e62ca194c80d6939d5c4e3ccaafb39a0d7a8d15e9e231b1ce237f9a8adc881e4e3df2435437f0ce8a92c4fc507cc130f541201127cf23cd9368919728ac85126b8c24200f629b685d33a7f605691b6af19f42f90e0af48cab0bc094160bf3f54f8e1fc5ed47e866e10c57e56dcca1f6140fc90a72ba5b55b0f4cd65836b6a83c653360a1214383c3e62707c82bcc1d2f50f3b5f789dafb9c4cdd8dae52c333f61646779808396adced5e2effd121932333a487f8c9cb6000000000000000000000000000000000000000000000000000000000e1a2a3401fd21050070e68bdaf7943d2d49419068d6985e3f3688f074cf1ccd3d408562d142d3a6d7bf060561f86c25eaa0fb050369fcb5263342f60be354513f709e3dea9a463b87e9bc7006ae2af42e1f2c36e55bb1bd3b15304a702a6cc4e8e5611b1a58ae3ae588eaa57f334a8215d535b2872a52a70aadf080f80c4e013f3cad471762dbb436553e7aef6055ce61cef0163b7b32ac8d6a20313e23ef8b8603949435e8c0384cdfd4a9e2c78076bc200eece3eb90d13847db4502e9b239754d5ed3b47e5142e8ef5eca2bdf76d6c119f5f1930b6d04040f2f6d49bc237606a287943af1f758f462be08c120995148686736f5f59ff3dacc06af4fefaca4757ab549f6d1133ac6de5d66ef7de53a5d8678f9751849d43821c18c98a0e1a65c6b6ed39c89d3039d3817f87f1a45d4d416ecd1127b01452986694fba3b7dd2940e00adac28443ec63de54bb5377907f601e73e3dd9c411bbafd9faf08beb3e0741e3c3ed4ec4f76e91f03d0a3f740840d6aa056a3702395f2e8299732e8e343c9e97404060ca110d9125284b7aea4eead3b30c8b7f43e2b321fd42e599c3b3d2822c59fe9d366237d3372852d3e8578d03243d7bb451e4a26e48ac2c6b52f0abfc91f7a28ae71cba2318530bd18028f78e0aebdf958c0a5f56639a0c402b65517888d6f633e355770eaf7a78aad410b7e9ea35a8007f331b1631c4bd4cf0fe217169799aa1d42c8baf5858a7d03f03dd7a59827e23fcd535d68f54bdd1c35b4b555ff08534b2fcd9446deeb0ef0c5c56ed64d250a9b20c368cd0a2f593412e24a8cf1ed3a2826fbec889e80b631597328bff8478b6ced5edd33c547d58b6d5a5b1482041ca3e55f9e4166846d7280075363b978f8a36eff74e4c83cfb04e0be9c86cd8f0a7b5489c28d89c9e2646c5aa4ce864cdc5bb68d10aae43b5df349a4cac1ff03f4bbd2c6adb59544524b10f535cd27c7d5d5cc500584bc09d14233062ed4a198b9ea88b8f67bb15105c49954c25c7b237c5acfcc034011b66ea68962f9021d4b2834602440c5a4e30a283e206cbc3020b3c8d5873537a7044c412c0f7e6825e9d67d464c651d83580f9369f1bb3a1d74f76490bf615bde06185ca0388e7db8859aa89dcb4c26f7b9249d47f986996a70b3c4f6daede06d141fafd10163e6af8486bfd61cd0b36058fd5ffc13fa340e9a0fea092848e50ecef4b4156c6ce53f71462bceb87dad19cf34c24ef773c97138401e86ddd227965f265cf06c9d2d72a5d0ac427a0c902411382a7afe67362b89bc6a44bc9735e5ff5a7c323892dafc6b57a58311c39b2ab0dd6f6e02162e5487893afe8bfe88d47e6135126b3051e4b293c4e0d0ebaad5c7b925272620c0ac10677e8054422394e4fa6a85436ff8fb2be569db817435dbff2779dad628afde4bb7af84fbd85a6fef7c23b6a9bd36395aa1b13f41bab7370efae9ccdccb57b99056208993bceedcce047cd098033c384dabedeef31be8aa15b6fda11c6861cdddc63469dd00a7f6fa9f2147add90a6401a963802fc0d931eddca4287e8d7d439771f29f24b98312362dba2e41d1454f1c628b3b58f6daa9d8e1ff1db94de4cf1e55ecb890633e25eadf4a14086f8934402fabe978dd611794d31d2b1804192b9d8bb851f2febe24d4b99b738b6869da69466d73bce6e38da5044129faf64fa8d37f5f623b5e8b9235c7a07885785fc408d74f8169eba45db739ea1278232464bb5fa30ccd508a3fbca7de3ded23861341326d7bd4eb2deb676eadab10e2de129d3c6843e5b25a41220a2966eecff5b336c58ace3fa5c50b4f3d606485d15f4f23095273b95ed059e85ea55cb0fc3e99288a2ac452964000000",
  "txid": "027b0880d161f056954b516eb4dcc8bf621805f8346af77b6f2945ca72b48cc0",
  "hash": "18ccfb92142b96bc080a9a901feec8e66789be582a8475bf4e457d558aa85eb1",
  "size": 5085,
  "vsize": 2278,
  "version": 1,
  "locktime": 100,
  "vin": [
    {
      "txid": "5b85c86428fb1456c5ac3f9c5fe84874017d1b5ecb8c74e1c864bf5d65c08cdd",
      "vout": 0,
      "scriptSig": {
        "asm": "",
        "hex": ""
      },
      "txinwitness": [
        "5effc439dd32a00237c2911b3769f9c3fcae39329a5f7457add6bbc2508b3322e411b680a629be3c112b8a1a2de109cd9bc08bd7d3a1b0481308ec8a7c5e0d861ee97d0778ebd7cf2be477c7ef01bbab87081e218b490ae719e052428c02c3180c34319e9966916a81d072f89b07c69e85ea7fa11b428dcad42e9559903cf3a5572cef844b619f1f169543facc14b54a04467de36e7ee9d129d69622b9706ae9faf5ac2265c544e071d6f85fa604d663df61c91095e9015d2778d4b83279b42fa55d93c8b8e7dc5b98fa74c210d923c46288d1a94ee5bbaac7ee555eb6f461cc03d29a509d994d95bd056e2750f9388287518107ede6da682ac6032c9d8579e160ba63e22fac59971a95360416ba281c73bfa30b7db2b5c0417e216ff7d6551999de6ada802ffc25ddf30c48356da1f238ae42d164515f7ae6ac87cbec17d121394281234c251e7159d760edb2bbc249f38d9ad576c5dfad89f0cc2a063e7d9ffb3250b7721afca4346f6135d98dd3eca57b124678a662e97bf5de20e466cc41fb03465129a638d03b207a694701fede96755b7ca38e552aad7481c7901fe6271e2ded9ca98bf70d36692969bed9f2ff83889a3f439c6779c615bfe5854e5812aa184aaf2e5fa6dacab598d7f97fe5fb91999183316edce7415d7405cf65a873b7cad4506f4794567eab8eb0f431138ab874750d23f42ea4ba32490c7daab7187f66f415644e6792769f07622f2deee25a44821f483f5680b963c4fef50e5bc998c222a58df9b10bb954be555bb53511a4677297ff3c340b41a00f1b2c9d169b2282553c9658617c964943615144e727616d495f7db791b3d9c08dd451d1340f8cb3ad681f853589802f69e01ca99e6e909b9011b18eedabbcdf4280f3e1204235610e3ae5417d23c8caf5dacf6d95ad643172eca958e0a938dea8c0d25f0a41804830fa7623db24d123630aa8c5dda15c96cdc533288fb3aa8bdcb179b4fe110813de2561a60491a80a5d3a384c95335d8c34dcf69eb12bc88383d6c428a0565f16a40f4e7265d3d05093ec1e1c2472bb7fc97e89c88f4b575af2ccdc0e8fb9de9d581578ad639e603a1b070f8e6ff081d03e9a3456c1cb08bb83f860213e97aa45021938c168bed258c8ca11df018e9fbfefb219bec07e8555d65c265463857ff8bb8d968ad087a3b0118ed32f1a5c2f28a241468c213563d7678ecf172cec1fda5067f270881e2a2856bdf0d15e4c6c154b4d522b7d467497f1fea9bead9fd5e659c9ef5c6cb674bee4c1af312fc1353bbddf4cb28b421144eee94b8cf35edc9ead1cbe736cc4fc2fde55c1c5e7d80cb4bf87682f7f006411cccc3ac6f6113a7e5adb8886d752cd1533c36af372659057a00b6a3f5bc203a2aec7bf429e0155b15577818bb6cb50ffb74de11579f24346bcd65e6ce78ec6537b504b0d45f396c3108c88ee1c6b810648a64e6cf1ebc58e80852d92f39704584a454709e6efee1cb79e2c7071475c59c2c242fbecc0319c76edd10d96030dc1374a1f3c9c2a31bc759a4548cb90642aa957111b6f2479bfaaae7ba58cb6aa033b8c9879b6ee48d21360299b1df089c5f452e86786bc16b9df421b786966ee7163b6bdf55999d4b81e266ad92af6f9677cfd7669022fc1ced79733eed83a6e03ac743735eb6585d2ddf8b97eff77609ad4c6dacc19702688101764c6f00be242e971825ec37dac8105f5b267266b83d2b729033066b2affff8403f56816a4c0db9ea5737a32b4a199962aa43d78b3bbf9ed7cfb2c4e7003a2257abd3c4b4446eb9da380192df2e1d32f997026a425f35bc97c48ec41930685ce8d75e70edfb3972083daa1cc74779bfc36f348c94a67dab2249beb7cfcbf4da7b100173eb8faf4b8fb8f8b9b50edf5cf058b52875f50331c7440307e360c3f1901f94c8fa686d6255dc318464eab354835b0d61b1c9092e60bca870c4fab2f353b6cf0ad2d479010836807793f87617a940475ffc51f30e537e33bf37c05273d869023f5ad3828002a4e7b930a7889349e11efafba971ce631ba4ae09cf9b68bec5d4bbd58b8dec923b5e54303779564cd31338ecf4fc10122604dc083cd9325f1bd1768250414739f14204506797c12093456c28f86545334932ebb10c6529ba9756e12a853e860bd3fbd822e541274a88303012999ffc76a89e8aae507444afdbc67e1eb8484f5041a6c1cf4d817fd40f91aba9bc63dcd79b581df923cbd9fbe4c666d694fa89379d34d69442135e7bcac8944b97019e02c02e4ef207629f1e0b8f153636a04e1ee7a34e2ce3e2602e452c2a819e790a984211b66a28e1ee451d3707d2189df2fd14ab7e74a091ec9bee1816a0d59c6a9124bc9b0495c01a62d7942c63a5dbb57ee724ee0a0d7bae69f9838a01641635b0a7e3be5e1109d72c965d53ede836dab290f41795dd11297b75472b880e41e3a077658f827a54483e77042efa66f6758a8e6fd37b8f73e75ffc1f3b476c81e262c6e360b82ec00cce06290871b4abbb224d43795661c8d58b9c78a7d3bde5df8f68f449788704742a1f68d4826b0e917934971b5a57d0d180a069252db0a618a0e3859680282e637632c7fbf41d99d7ea85a4769f9b56d40f0323fd0e2cbc3c139cf933fa839b7076e759d8c6d6f2db89fe84b32287fda814aea362cac62440440a7a1ce822c1b7ac883bab13114e9128d45a967003582a3c173bad6051ad893b2e7374fe8e87884cc44c06da8d7b9f2373ab03ef7f04d5b4d488fdcf5303be7e2ea8be0378906acfae0cdc251c714a81e2398fbffb1694038f80b9cd509da5bd955cf827028854a5bb053e94b46a3fae2f81965d23ba362a45424214d1157062ce3696223a103c7c2b93cef697bbef07e85e77e2c3f5adc83353f0055b1a5835130a1344cb959be1ae62aeb2c212aae8226152d1f71bf40515e4ad04598e8c12b8fceb39362c3f7d0f9222f1e4c138a7e6cb20cfcd0efacd4f7effa0fcf261f360e8f18cfc655e4cfbb08f13a8fd9d362cd17e61c894ac34a8f61ef8fa0a213f9915ebabb2d596876274231257e5500deeb55d8f9af8e7f6417e7880821da675d16149ae86f906f3cac17e35baf27b58c67e62ca194c80d6939d5c4e3ccaafb39a0d7a8d15e9e231b1ce237f9a8adc881e4e3df2435437f0ce8a92c4fc507cc130f541201127cf23cd9368919728ac85126b8c24200f629b685d33a7f605691b6af19f42f90e0af48cab0bc094160bf3f54f8e1fc5ed47e866e10c57e56dcca1f6140fc90a72ba5b55b0f4cd65836b6a83c653360a1214383c3e62707c82bcc1d2f50f3b5f789dafb9c4cdd8dae52c333f61646779808396adced5e2effd121932333a487f8c9cb6000000000000000000000000000000000000000000000000000000000e1a2a3401",
        "0070e68bdaf7943d2d49419068d6985e3f3688f074cf1ccd3d408562d142d3a6d7bf060561f86c25eaa0fb050369fcb5263342f60be354513f709e3dea9a463b87e9bc7006ae2af42e1f2c36e55bb1bd3b15304a702a6cc4e8e5611b1a58ae3ae588eaa57f334a8215d535b2872a52a70aadf080f80c4e013f3cad471762dbb436553e7aef6055ce61cef0163b7b32ac8d6a20313e23ef8b8603949435e8c0384cdfd4a9e2c78076bc200eece3eb90d13847db4502e9b239754d5ed3b47e5142e8ef5eca2bdf76d6c119f5f1930b6d04040f2f6d49bc237606a287943af1f758f462be08c120995148686736f5f59ff3dacc06af4fefaca4757ab549f6d1133ac6de5d66ef7de53a5d8678f9751849d43821c18c98a0e1a65c6b6ed39c89d3039d3817f87f1a45d4d416ecd1127b01452986694fba3b7dd2940e00adac28443ec63de54bb5377907f601e73e3dd9c411bbafd9faf08beb3e0741e3c3ed4ec4f76e91f03d0a3f740840d6aa056a3702395f2e8299732e8e343c9e97404060ca110d9125284b7aea4eead3b30c8b7f43e2b321fd42e599c3b3d2822c59fe9d366237d3372852d3e8578d03243d7bb451e4a26e48ac2c6b52f0abfc91f7a28ae71cba2318530bd18028f78e0aebdf958c0a5f56639a0c402b65517888d6f633e355770eaf7a78aad410b7e9ea35a8007f331b1631c4bd4cf0fe217169799aa1d42c8baf5858a7d03f03dd7a59827e23fcd535d68f54bdd1c35b4b555ff08534b2fcd9446deeb0ef0c5c56ed64d250a9b20c368cd0a2f593412e24a8cf1ed3a2826fbec889e80b631597328bff8478b6ced5edd33c547d58b6d5a5b1482041ca3e55f9e4166846d7280075363b978f8a36eff74e4c83cfb04e0be9c86cd8f0a7b5489c28d89c9e2646c5aa4ce864cdc5bb68d10aae43b5df349a4cac1ff03f4bbd2c6adb59544524b10f535cd27c7d5d5cc500584bc09d14233062ed4a198b9ea88b8f67bb15105c49954c25c7b237c5acfcc034011b66ea68962f9021d4b2834602440c5a4e30a283e206cbc3020b3c8d5873537a7044c412c0f7e6825e9d67d464c651d83580f9369f1bb3a1d74f76490bf615bde06185ca0388e7db8859aa89dcb4c26f7b9249d47f986996a70b3c4f6daede06d141fafd10163e6af8486bfd61cd0b36058fd5ffc13fa340e9a0fea092848e50ecef4b4156c6ce53f71462bceb87dad19cf34c24ef773c97138401e86ddd227965f265cf06c9d2d72a5d0ac427a0c902411382a7afe67362b89bc6a44bc9735e5ff5a7c323892dafc6b57a58311c39b2ab0dd6f6e02162e5487893afe8bfe88d47e6135126b3051e4b293c4e0d0ebaad5c7b925272620c0ac10677e8054422394e4fa6a85436ff8fb2be569db817435dbff2779dad628afde4bb7af84fbd85a6fef7c23b6a9bd36395aa1b13f41bab7370efae9ccdccb57b99056208993bceedcce047cd098033c384dabedeef31be8aa15b6fda11c6861cdddc63469dd00a7f6fa9f2147add90a6401a963802fc0d931eddca4287e8d7d439771f29f24b98312362dba2e41d1454f1c628b3b58f6daa9d8e1ff1db94de4cf1e55ecb890633e25eadf4a14086f8934402fabe978dd611794d31d2b1804192b9d8bb851f2febe24d4b99b738b6869da69466d73bce6e38da5044129faf64fa8d37f5f623b5e8b9235c7a07885785fc408d74f8169eba45db739ea1278232464bb5fa30ccd508a3fbca7de3ded23861341326d7bd4eb2deb676eadab10e2de129d3c6843e5b25a41220a2966eecff5b336c58ace3fa5c50b4f3d606485d15f4f23095273b95ed059e85ea55cb0fc3e99288a2ac4529"
      ],
      "sequence": 4294967294
    }
  ],
  "vout": [
    {
      "value": 1.0,
      "n": 0,
      "scriptPubKey": {
        "asm": "OP_RETURN 1796fd3f8bf317e1814b7852927c193cb0f21a213036a0ce520b1057a9b87036 5967d3f8531f4b0865ffcaef1338041148bc514f32f0ef0b060df1fcd5ce43237947f3d8733f6b2845dfeacf33182431689c716f12d0cf2b262dd1dcf5ee6303192793b8135f0b4825bf8aaf5378445108fc110f72b0af4b464db1bc958e03633907b398337f2b68059faa8f7358647128dc312f52908f6b666d919cb5ae2343d9e75378d39fcb88e57f4a6f93b88491c83cd1cfb2706f8b868d717c554ec3a3f9c77358f3bfeba8c55f6a4fb398a4b1e81cf1ef92504faba6ad515c756ee38399a7133893df8bc8a53f0a2fd3f8c4d1887c918ff2302fcbc6cd313c150e83e3b9873318b3ffabe8851f2a0ff3d8e4f1a85cb1afd2100febe6ed111c352ea3c35967d3f8531f4b0865ffcaef1338041148bc514f32f0ef0b060df1fcd5ce43237947f3d8733f6b2845dfeacf33182431689c716f12d0cf2b262dd1dcf5ee6303192793b8135f0b4825bf8aaf5378445108fc110f72b0af4b464db1bc958e03633907b398337f2b68059faa8f7358647128dc312f52908f6b666d919cb5ae2343d9e75378d39fcb88e57f4a6f93b88491c83cd1cfb2706f8b868d717c554ec3a3f9c77358f3bfeba8c55f6a4fb398a4b1e81cf1ef92504faba6ad515c756ee38399a7133893df8bc8a53f0a2fd3f8c4d1887c918ff2302fcbc6cd313c150e83e3b9873318b3ffabe8851f2a0ff3d8e4f1a85cb1afd2100febe6ed111c352ea3c35967d3f8531f4b0865ffcaef1338041148bc514f32f0ef0b060df1fcd5ce43237947f3d8733f6b2845dfeacf33182431689c716f12d0cf2b262dd1dcf5ee6303192793b8135f0b4825bf8aaf5378445108fc110f72b0af4b464db1bc958e03633907b398337f2b68059faa8f7358647128dc312f52908f6b666d919cb5ae2343d9e75378d39fcb88e57f4a6f93b88491c83cd1cfb2706f8b868d717c554ec3a3f9c77358f3bfeba8c55f6a4fb398a4b1e81cf1ef92504faba6ad515c756ee38399a7133893df8bc8a53f0a2fd3f8c4d1887c918ff2302fcbc6cd313c150e83e3b9873318b3ffabe8851f2a0ff3d8e4f1a85cb1afd2100febe6ed111c352ea3c35967d3f8531f4b0865ffcaef1338041148bc514f32f0ef0b060df1fcd5ce43237947f3d8733f6b2845dfeacf33182431689c716f12d0cf2b262dd1dcf5ee6303192793b8135f0b4825bf8aaf5378445108fc110f72b0af4b464db1bc958e03633907b398337f2b68059faa8f7358647128dc312f52908f6b666d919cb5ae2343d9e75378d39fcb88e57f4a6f93b88491c83cd1cfb2706f8b868d717c554ec3a3f9c77358f3bfeba8c55f6a4fb398a4b1e81cf1ef92504faba6ad515c756ee38399a7133893df8bc8a53f0a2fd3f8c4d1887c918ff2302fcbc6cd313c150e83e3b9873318b3ffabe8851f2a0ff3d8e4f1a85cb1afd2100febe6ed111c352ea3c35967d3f8531f4b0865ffcaef1338041148bc514f32f0ef0b060df1fcd5ce43237947f3d8733f6b2845dfeacf33182431689c716f12d0cf2b262dd1dcf5ee6303192793b8135f0b4825bf8aaf5378445108fc110f72b0af4b464db1bc958e03633907b398337f2b68059faa8f7358647128dc312f52908f6b666d919cb5ae2343d9e75378d39fcb88e57f4a6f93b8849165f09d839daf87aabb13b46b087c9240a55bd1a47666cb9850626867878ff627",
        "hex": "6a201796fd3f8bf317e1814b7852927c193cb0f21a213036a0ce520b1057a9b870364db0045967d3f8531f4b0865ffcaef1338041148bc514f32f0ef0b060df1fcd5ce43237947f3d8733f6b2845dfeacf33182431689c716f12d0cf2b262dd1dcf5ee6303192793b8135f0b4825bf8aaf5378445108fc110f72b0af4b464db1bc958e03633907b398337f2b68059faa8f7358647128dc312f52908f6b666d919cb5ae2343d9e75378d39fcb88e57f4a6f93b88491c83cd1cfb2706f8b868d717c554ec3a3f9c77358f3bfeba8c55f6a4fb398a4b1e81cf1ef92504faba6ad515c756ee38399a7133893df8bc8a53f0a2fd3f8c4d1887c918ff2302fcbc6cd313c150e83e3b9873318b3ffabe8851f2a0ff3d8e4f1a85cb1afd2100febe6ed111c352ea3c35967d3f8531f4b0865ffcaef1338041148bc514f32f0ef0b060df1fcd5ce43237947f3d8733f6b2845dfeacf33182431689c716f12d0cf2b262dd1dcf5ee6303192793b8135f0b4825bf8aaf5378445108fc110f72b0af4b464db1bc958e03633907b398337f2b68059faa8f7358647128dc312f52908f6b666d919cb5ae2343d9e75378d39fcb88e57f4a6f93b88491c83cd1cfb2706f8b868d717c554ec3a3f9c77358f3bfeba8c55f6a4fb398a4b1e81cf1ef92504faba6ad515c756ee38399a7133893df8bc8a53f0a2fd3f8c4d1887c918ff2302fcbc6cd313c150e83e3b9873318b3ffabe8851f2a0ff3d8e4f1a85cb1afd2100febe6ed111c352ea3c35967d3f8531f4b0865ffcaef1338041148bc514f32f0ef0b060df1fcd5ce43237947f3d8733f6b2845dfeacf33182431689c716f12d0cf2b262dd1dcf5ee6303192793b8135f0b4825bf8aaf5378445108fc110f72b0af4b464db1bc958e03633907b398337f2b68059faa8f7358647128dc312f52908f6b666d919cb5ae2343d9e75378d39fcb88e57f4a6f93b88491c83cd1cfb2706f8b868d717c554ec3a3f9c77358f3bfeba8c55f6a4fb398a4b1e81cf1ef92504faba6ad515c756ee38399a7133893df8bc8a53f0a2fd3f8c4d1887c918ff2302fcbc6cd313c150e83e3b9873318b3ffabe8851f2a0ff3d8e4f1a85cb1afd2100febe6ed111c352ea3c35967d3f8531f4b0865ffcaef1338041148bc514f32f0ef0b060df1fcd5ce43237947f3d8733f6b2845dfeacf33182431689c716f12d0cf2b262dd1dcf5ee6303192793b8135f0b4825bf8aaf5378445108fc110f72b0af4b464db1bc958e03633907b398337f2b68059faa8f7358647128dc312f52908f6b666d919cb5ae2343d9e75378d39fcb88e57f4a6f93b88491c83cd1cfb2706f8b868d717c554ec3a3f9c77358f3bfeba8c55f6a4fb398a4b1e81cf1ef92504faba6ad515c756ee38399a7133893df8bc8a53f0a2fd3f8c4d1887c918ff2302fcbc6cd313c150e83e3b9873318b3ffabe8851f2a0ff3d8e4f1a85cb1afd2100febe6ed111c352ea3c35967d3f8531f4b0865ffcaef1338041148bc514f32f0ef0b060df1fcd5ce43237947f3d8733f6b2845dfeacf33182431689c716f12d0cf2b262dd1dcf5ee6303192793b8135f0b4825bf8aaf5378445108fc110f72b0af4b464db1bc958e03633907b398337f2b68059faa8f7358647128dc312f52908f6b666d919cb5ae2343d9e75378d39fcb88e57f4a6f93b8849165f09d839daf87aabb13b46b087c9240a55bd1a47666cb9850626867878ff627",
        "type": "nulldata"
      }
    },
    {
      "value": 499989.831,
      "n": 1,
      "scriptPubKey": {
        "asm": "1 8a897e383f59a3407bf010c2b4db0015bbc2f29e05a3832d9a4e665420137f46",
        "hex": "51208a897e383f59a3407bf010c2b4db0015bbc2f29e05a3832d9a4e665420137f46",
        "reqSigs": 1,
        "type": "witness_v1_scripthash",
        "addresses": [
          "3QJmnh"
        ]
      }
    }
  ],
  "blockhash": "fed18006ccdab590a9e00afae0c126c0756e5b686d02c0375b028c4c6af5cb31",
  "confirmations": 1,
  "time": 1764177489,
  "blocktime": 1764177489
}