{
  "hex": "010000000001014a6265eb23285933d9a8693f5b269cb19b81650fd81441318bd8877ed27858750100000000feffffff02f020b051792d000022512080309779ad3203b6904820efb218f5c745e000b016338bf18a34ee1d24b74d1200e1f50500000000fdd5046a202a2a67fee4cef218de0544398774a5fc8211a55571fd211f75e577bd28dfa4624db004ba5dd8229faa661314fcb99079e16dbd34e5dcd7632d603e4fdcea71661abbc09a7df802bf8a463334dc99b059c14d9d14c5fcf7430d401e6ffcca51463a9be0fa1d9862dfea265354bcf9d039a12dfd74a59c97236d207e0f9caa31265afb80da3db842ffca0673749cd9f019810ddd5485bcb7034d005e2fbc8a11067adba03add58a21f2ae693947c3910f961ed3db4655c57e3ade0becf5c6af1e69a3b401afd78823f0ac6b3b45c1930d941cd1d94457c77c38dc09eef7c4ad1c6ba1b607a9d18e25f6aa6d3d43c7950b921ad7df4251c17a3eda0fe8f1c2ab1a6da7b005abd38c27f4a86f3f41c597099018d5dd4053c3783cd80deaf3c0a9186fa5b20ba5dd8229faa661314fcb99079e16dbd34e5dcd7632d603e4fdcea71661abbc09a7df802bf8a463334dc99b059c14d9d14c5fcf7430d401e6ffcca51463a9be0fa1d9862dfea265354bcf9d039a12dfd74a59c97236d207e0f9caa31265afb80da3db842ffca0673749cd9f019810ddd5485bcb7034d005e2fbc8a11067adba03add58a21f2ae693947c3910f961ed3db4655c57e3ade0becf5c6af1e69a3b401afd78823f0ac6b3b45c1930d941cd1d94457c77c38dc09eef7c4ad1c6ba1b607a9d18e25f6aa6d3d43c7950b921ad7df4251c17a3eda0fe8f1c2ab1a6da7b005abd38c27f4a86f3f41c597099018d5dd4053c3783cd80deaf3c0a9186fa5b20ba5dd8229faa661314fcb99079e16dbd34e5dcd7632d603e4fdcea71661abbc09a7df802bf8a463334dc99b059c14d9d14c5fcf7430d401e6ffcca51463a9be0fa1d9862dfea265354bcf9d039a12dfd74a59c97236d207e0f9caa31265afb80da3db842ffca0673749cd9f019810ddd5485bcb7034d005e2fbc8a11067adba03add58a21f2ae693947c3910f961ed3db4655c57e3ade0becf5c6af1e69a3b401afd78823f0ac6b3b45c1930d941cd1d94457c77c38dc09eef7c4ad1c6ba1b607a9d18e25f6aa6d3d43c7950b921ad7df4251c17a3eda0fe8f1c2ab1a6da7b005abd38c27f4a86f3f41c597099018d5dd4053c3783cd80deaf3c0a9186fa5b20ba5dd8229faa661314fcb99079e16dbd34e5dcd7632d603e4fdcea71661abbc09a7df802bf8a463334dc99b059c14d9d14c5fcf7430d401e6ffcca51463a9be0fa1d9862dfea265354bcf9d039a12dfd74a59c97236d207e0f9caa31265afb80da3db842ffca0673749cd9f019810ddd5485bcb7034d005e2fbc8a11067adba03add58a21f2ae693947c3910f961ed3db4655c57e3ade0becf5c6af1e69a3b401afd78823f0ac6b3b45c1930d941cd1d94457c77c38dc09eef7c4ad1c6ba1b607a9d18e25f6aa6d3d43c7950b921ad7df4251c17a3eda0fe8f1c2ab1a6da7b005abd38c27f4a86f3f41c597099018d5dd4053c3783cd80deaf3c0a9186fa5b20ba5dd8229faa661314fcb99079e16dbd34e5dcd7632d603e4fdcea71661abbc09a7df802bf8a463334dc99b059c14d9d14c5fcf7430d401e6ffcca51463a9be0fa1d9862dfea265354bcf9d039a12dfd74a59c97236d207e0f9caa31265afb80da3db842ffca0673749cd9f019810ddd5485bcb7034d005e2fbc8a11067adba03add58a21f2ae693947c3910f961ed3dc8c87d04b5549a9840b3571397b011618045f4552190234bb3a93061dd83cb8202fd75097a6c0e2146186dd22e80040d751a53ed712b6c4bae5c23f8a8fb95f83de4c85eade44c0a34ae34b92d7032253c163cd8f46eeb255e88c629b78ab4b3c652cdeb08987583fa813894ba1d7a7b4c66f74650921aa703432944e0c0ee18f5529144323f623b813f7166eece1872166d3daf344af2084f7a7a6ae0b84fd4130c92e9da16fbf8ee02179ee9526f716d4dd54ccd7eee6579ead679aedd19a3791aa2c5a46a9d5dedcdf23a47b210e07a4b0a2a3a36f22d187b72de39756ecccbf138a0c4041d57fcdb2b28b6a52245ecfcd220c226b85a40cb5f6d2be2e437ad1b3dda7f33abaf6dd43b98a7719f389cce96d362211a9e93a6a5767fb8849a3dca6ab0ae407bf0ba64a8b4d22dde360adc399e2366eae32007df74bbcfd5f5a224f07c907b80ee8d32006b2992738c9a9da85466dd6586dad9ab536f99846d64b884f83ee6a4362e624dec83ad5e2a77ff1e7ca726ab35ddd83b46fe382b821731278f8702dc8d56b389b51114b6bb6cefcdae9c8d7a289da59f8a0ceca9c0e22b5c4ddb9ffab70b8c19d664f91de3ebbf20c51c8fe8c8c09dbc4da9ae2c505f25581721d08a56e27eaa1031eba07c2aa6a5d0dbb92fce09765d8969b5d2c22dae72145c206729e6468dd467fd3eef00bfd13d1a65c84ee5e13f1e4dc971f02d0df9dc38e5b9b99ab33ea6907119feb1892b1a3f1e74be5ff09dcd4dd411c80b31a8a4a23446ba1b48468a971c1b80312b691a14fec375044dfaf370a74de57cf5dd638011a708a2024c83133655ff48a5caadb739d19f1b0fdf649374e4eba9ba4c01f6ea0006d588cef42b7b611550eac7e694e1bfb15560a565a46c3c04b48271029ccac13c7646c52a532bd0796fb55d9ff9b2de9a8379bb0026ac716a1b5a2d21c9eefd1bfda9eb0478658f449f1242dcdc1ff50d5f0c3ca99c9b00e914cf5b180db36a99779c6e62b9e4869e0fdfc0c2645b768cd8802b49079b99ac95bf22d92b6e0159310721526139cf20293704ca2558ae25fb29065bdd0edcc7ac0cc174066d5b9fdc2d45097af66b066af80be1eca838eab3b2ba3fefd3927aa0e085829c172de087d30f5023f175c697e921c98f9635cb9fe49dbe0d909eb7e52f8553a2ea4053d599402fad058ff8129b6fa998511dff3f33ba04c90ac2f143850c3fd9f9fa81c08e1d739b40f66f29dcc9372726449352eaa0fa40168d8262592bd45dfc2be397ad83f324ec634ad391715c5253d0c697b20e829ab6db48bacf3fae5bedf3fb583e7f21a56a54e04ef15b81bd29d63b97cff727219214ad6c028f3759958ea093245bb77bcc29bd2d2fa762268712ed812c698392402c4376fa7444e53213025c7497029bb467a6ea3d9f994ae415f8ed2917c84bb052f1266af6c786900dab940b244bd4708158f64079697e23b124cffb4ee3f1b1bc59c3c5e1deb5bd4850ce50ecaf70c6680f8d45eb07d8c3779e057ccaf1d7ed7aea365ae8670561576a95442a52c5142bed0b1de94e529060ff855e5f73b583e97b9fc4b66d78c08c5bd7068aac413807095f5025bfaee64dcd35aad7542cecc612e737893cb77997e72f89e95e64407696c6bdfced79616cecb98bed24db8f903293a1199e99ff6da44215fcfe8ac92ecc724497985d34a824477fba4ac510ebd1f0a4911940e9402d15f3ad58e7526dda5fef49b4b5a5aeac6ac6e9bdd23c9ccf8d4ead0dcbd00b856c6dd92e28684bb2e57a25f3f760e368bdbd1c3e1f7f887ce67043dd8f5658f84c08aeb42c8a012ea40573487a3a4e9682a3cebd1b13c16a52d6ba928dd944aa0ae6000d4ba3d1ecb23dcf7f877978d905909992a93fe2bc0ae505e99c4915f7dda6e16fe5c5e27012c2b663f67135138dcb6bb9b9aed9cadfcdb293863006cf67ad3425d4ecc25cdb452ed4abf8214d91764acdb0051eacb8858ea503bf827a2a078c98ff1cc52c7d3cd573fe97067165826264f0282bd01b44e6be5e5150ae4aa420cbc10d5c48089e5c4d73331319e57a6b7837a8909d2d10965b2cbe00afffff03189afb00d7a6b83edbfee1bc95e7c73aae4910973fde52b22e77aec778dc1f5efbdd3e4629b627a42ad03e048ac7c43337087dedae5e598bb22e8b6a506f1a2b09bdb0797425112643ef9800baa64eb03d65f19f7c2b31e61deff95d502372f8a45c3e3b8d382838bc46f45a879d392262b9168f1a0f2dfa406de3b757df485e5295d34105b53470bc108e1f16f8c99fc27b282078b687917d93398a20d71cdbe79b92167eddcaf23bf63ae45ccdd818a5c0faa8a91c21ffa48d3fb4bee6afac3b92adfe54dbcc7fef152d0d84ead506a5ea0016033be588adbd7f5b450b442c14587e4cd33205d103e6f99197d510d2a969b29000bb36dd36b1dd2d262d19a3691d0a9b907ffe0ac877aac22fd935bac561dfb29350ff81b7ba886b485331a5d0845355bf0227e5652e80a7c37ededf331d6877aa7cb97b2d33f90e163c0b0159ec8d3eacdb4be4fcc877730f8d0c77356c5815cf1193211bdd13b9dbbf8b311f343816e329c1bdc2a46420dd55ea4feacfc99891e791c62cf2bd1bf297f1a4fb90eb76fe7fb828dc6374c8cb9bb4185967bf2519a1772da197d8e6e5627c72bf32dd3bb8a6ffca4e57a702536a597c760b55fdb6f997624dca07459594c8131c3b15610b30674375fa1d9910c46b82101463113484f66248b18b97c7e9afe702b00124f74e02d407254f0d8931cbea470913f7a2f813302dc97667dcb25f7754954fd8cac11f6444bef8e87cdc13f61a3217ffafd48271388a19f513c5fd12dba689049a6aed42e27829a51c17d9525fccadbe42103730df263d091e380d728e17d43c107a0cd00bf857c6f7df13a62b4abf8af5de35907d51b6f075e16fb3bbf6744fc6683e616f7250ac47fd8ca02411f525105d1442e5b5c723ff99c6d00ac48e672e365a891c4454342072578ff778ec3b97b7f21716ba085c52e01bda57fbcd86d74fde8a2574f524f0469626bd61aa5d2651e334c486db506aad579ac37a9a1d5ff0e0c4a594828a6eddf140fab72a718853e6f72a8e278e1e79460874d70f8067a5bb9f0c76e79e0358520d399fe6bed6bc99d840c3521845d7009e2e747f56e17c116d67197f7873428155efd5759e9f68c37abeebf0d96da96fd537bc7ed50ed91eb721364466034d0fd03448f88f4ae2ad4d8da02047158600c15ffcd337c01bf25589decfa5a01b7fcf0ccd4b07b5b12dcc8fa2e2b8225e171bec4475094f051cfd6c8fe04412e30bf52e650b05084da832e1031f2838393e46666d747d80bbbecadce3e6f4162b2d32335459649ca0a6a9b0bad5031d3f485d67758b9ea1a3aeb7b9bec4d3d7ff090e21263f4145536d6e737d8a95a5f100000000000000000000001322354501fd210500c5f5923f260403b79dce8f6ed4c01336d4bce99bb37ee605edd21acc526d2bd1b303db4896d1925882f70221436c3f3f25f8ecc0d2d62b66746896a244f5ccf519ced28ccdbebc4eb639e3acef28685bbef94bb31a29c15bf1182141c758ed43ad3fdd3e3ca678765496467a2e704f95319af9209f75c0b443f55c9742bffdc2d51a5f9f649ebca0326c5f52f849a7aa0c80b2baee2cf62348f7b2fb351006e9e430e5b60382f45ec4d03c7066f59b903fd24f4f6bb76d56b952c6d1e1fc919d81e05e54ed0f7dedaf7a83d765e403357c52bdf1ea5565adaa8d906f1f479d3d76f284685ff273812626a6ab43c3c2c08375976f7722251247acd12b0b58b76571cc75b2d8a631811b3df4a6382e747ab387c2f707225c6030d8e8caab4a41dd897b32ec967f7ff1f1cf105c9ef7e069fbf564bb9925694e34ee31fe42a765e0648d678ef6cef85ee1097b8055b039df10b76de08c8d77a6cb49bf91033146f5fc0e66993ab9ca254b68dd16cb2ed01d58758ef72a0bc2e11a9e910efc20d19e51deeb13658119ca1676f4fc8fd5ef84d7a0f3974e17cb166367cd38142414d062dd30b93cf1033fda19020b55b14abd8f13214411f9ac83449cbf1dbcbb698f80f6d7c2eea97024fed959dd64203f9b416a69b08a107b5b4d568e5e73264c135910def6add09c7c5a335e6b0a4c72904f639cc3ea602bc0ba80f978b80796842c68ef56addc9fd7cd628af876e8c8b0ee71906dfda3f546f9f21149fb1d15383819661cd6397b96afb2fef2b81ef4aca6ac1258f01de164250aca5719abc5ef40223d5a2e97bc2f2e7dbe7a4bc02edb59ef578e514a37aa0c650f22cfe695c3a1970f77820285a5865f34940b5512b10e1ba94da8c6f2dc28d4ad22d8d0d5fb899e0adb8185b8b8db49686d0e982de54b177363e91f90903f2ef89cb69e5301911b62926f5397f65583e1603dfc73df3ac817a9b7124fbb9efe92339348e181ca21841e76a215c011fccd28451557f32f027a9ead76a87073b42472801394b3127963f85c4dd950fbe252a46b048d8d3019c49ace5b339ed636366d26108184d7881e3e2f75f2caf73fc85dd9e606843b995fb52c4fa6c35141e235c5ea49b8a905584d853fd6170298d4bd610f5eaac55b32fafcb8e8dfabad6b231200021993ba74840c59fa666d99eb182bf6fb452239ab21324cfda46110ba916234f58667416686f8ea63fe06a2acc502e09a258cc4f8fad4f9c7c49b5509badb37aebf3592d7371bc620df29bf31758ed0683794b8086dbddf734d16b86e7f30e2d1e31618e370f9c00ea42e4736089a5cfd1b3edc39adb22769f16ae2b24a0a85bd2a0ca17308fe8cc5d6a39cd3c6034a0fe9796c6510446e3444ff146bf0e2749a9d6f6854b39a5e79bdcab96f5048d76c44cdb43f36a5ebc1632482fbc7055f89214eca700cebf7849ba0b2262b91e65cdba8297b2016f18b376e5425192e35f18dd1a7ca724504c06b8a7e27e1da01b22536872a513d68b8bd224973dc3c643726ec557186874af929b7aad93bcba731a87c95bb7987cbf30f68a67a5cc08cb57f688a6cefc83be6daaa7356c9e70a30d288e9ef1332a1147250a1e1119261e9689a831ec099c60961a4a92837ec8971856647e87d578515f904e782c9bf5ec3897d84c74c0fc67871973651a6198b2059a97ef24580552758216a7f85d8789d514768b5063e30559ddd8358a389dc9fdfc9738a4f3f5c4b4fbf4329c052b74e994f5a5995068609e853630f65ad72f5c16034c9ff1cca8e1822b5d1e46d1ecd1970c4731fd63d5555e0b48b4a4fdcd0c0e520a93ece35bd45b39272f8e7f12cb96a000000",
  "txid": "0a703e53e377a67ae5edeb1adab4cc8819ae5c28f2be4796c5acd158267534c8",
  "hash": "b7fbc9eb6e33edb952a1be9d97f95d4be4723c942511e9ddc96eacbb414b3d4c",
  "size": 5085,
  "vsize": 2278,
  "version": 1,
  "locktime": 106,
  "vin": [
    {
      "txid": "755878d27e87d88b314114d80f65819bb19c265b3f69a8d933592823eb65624a",
      "vout": 1,
      "scriptSig": {
        "asm": "",
        "hex": ""
      },
      "txinwitness": [
        "7a6c0e2146186dd22e80040d751a53ed712b6c4bae5c23f8a8fb95f83de4c85eade44c0a34ae34b92d7032253c163cd8f46eeb255e88c629b78ab4b3c652cdeb08987583fa813894ba1d7a7b4c66f74650921aa703432944e0c0ee18f5529144323f623b813f7166eece1872166d3daf344af2084f7a7a6ae0b84fd4130c92e9da16fbf8ee02179ee9526f716d4dd54ccd7eee6579ead679aedd19a3791aa2c5a46a9d5dedcdf23a47b210e07a4b0a2a3a36f22d187b72de39756ecccbf138a0c4041d57fcdb2b28b6a52245ecfcd220c226b85a40cb5f6d2be2e437ad1b3dda7f33abaf6dd43b98a7719f389cce96d362211a9e93a6a5767fb8849a3dca6ab0ae407bf0ba64a8b4d22dde360adc399e2366eae32007df74bbcfd5f5a224f07c907b80ee8d32006b2992738c9a9da85466dd6586dad9ab536f99846d64b884f83ee6a4362e624dec83ad5e2a77ff1e7ca726ab35ddd83b46fe382b821731278f8702dc8d56b389b51114b6bb6cefcdae9c8d7a289da59f8a0ceca9c0e22b5c4ddb9ffab70b8c19d664f91de3ebbf20c51c8fe8c8c09dbc4da9ae2c505f25581721d08a56e27eaa1031eba07c2aa6a5d0dbb92fce09765d8969b5d2c22dae72145c206729e6468dd467fd3eef00bfd13d1a65c84ee5e13f1e4dc971f02d0df9dc38e5b9b99ab33ea6907119feb1892b1a3f1e74be5ff09dcd4dd411c80b31a8a4a23446ba1b48468a971c1b80312b691a14fec375044dfaf370a74de57cf5dd638011a708a2024c83133655ff48a5caadb739d19f1b0fdf649374e4eba9ba4c01f6ea0006d588cef42b7b611550eac7e694e1bfb15560a565a46c3c04b48271029ccac13c7646c52a532bd0796fb55d9ff9b2de9a8379bb0026ac716a1b5a2d21c9eefd1bfda9eb0478658f449f1242dcdc1ff50d5f0c3ca99c9b00e914cf5b180db36a99779c6e62b9e4869e0fdfc0c2645b768cd8802b49079b99ac95bf22d92b6e0159310721526139cf20293704ca2558ae25fb29065bdd0edcc7ac0cc174066d5b9fdc2d45097af66b066af80be1eca838eab3b2ba3fefd3927aa0e085829c172de087d30f5023f175c697e921c98f9635cb9fe49dbe0d909eb7e52f8553a2ea4053d599402fad058ff8129b6fa998511dff3f33ba04c90ac2f143850c3fd9f9fa81c08e1d739b40f66f29dcc9372726449352eaa0fa40168d8262592bd45dfc2be397ad83f324ec634ad391715c5253d0c697b20e829ab6db48bacf3fae5bedf3fb583e7f21a56a54e04ef15b81bd29d63b97cff727219214ad6c028f3759958ea093245bb77bcc29bd2d2fa762268712ed812c698392402c4376fa7444e53213025c7497029bb467a6ea3d9f994ae415f8ed2917c84bb052f1266af6c786900dab940b244bd4708158f64079697e23b124cffb4ee3f1b1bc59c3c5e1deb5bd4850ce50ecaf70c6680f8d45eb07d8c3779e057ccaf1d7ed7aea365ae8670561576a95442a52c5142bed0b1de94e529060ff855e5f73b583e97b9fc4b66d78c08c5bd7068aac413807095f5025bfaee64dcd35aad7542cecc612e737893cb77997e72f89e95e64407696c6bdfced79616cecb98bed24db8f903293a1199e99ff6da44215fcfe8ac92ecc724497985d34a824477fba4ac510ebd1f0a4911940e9402d15f3ad58e7526dda5fef49b4b5a5aeac6ac6e9bdd23c9ccf8d4ead0dcbd00b856c6dd92e28684bb2e57a25f3f760e368bdbd1c3e1f7f887ce67043dd8f5658f84c08aeb42c8a012ea40573487a3a4e9682a3cebd1b13c16a52d6ba928dd944aa0ae6000d4ba3d1ecb23dcf7f877978d905909992a93fe2bc0ae505e99c4915f7dda6e16fe5c5e27012c2b663f67135138dcb6bb9b9aed9cadfcdb293863006cf67ad3425d4ecc25cdb452ed4abf8214d91764acdb0051eacb8858ea503bf827a2a078c98ff1cc52c7d3cd573fe97067165826264f0282bd01b44e6be5e5150ae4aa420cbc10d5c48089e5c4d73331319e57a6b7837a8909d2d10965b2cbe00afffff03189afb00d7a6b83edbfee1bc95e7c73aae4910973fde52b22e77aec778dc1f5efbdd3e4629b627a42ad03e048ac7c43337087dedae5e598bb22e8b6a506f1a2b09bdb0797425112643ef9800baa64eb03d65f19f7c2b31e61deff95d502372f8a45c3e3b8d382838bc46f45a879d392262b9168f1a0f2dfa406de3b757df485e5295d34105b53470bc108e1f16f8c99fc27b282078b687917d93398a20d71cdbe79b92167eddcaf23bf63ae45ccdd818a5c0faa8a91c21ffa48d3fb4bee6afac3b92adfe54dbcc7fef152d0d84ead506a5ea0016033be588adbd7f5b450b442c14587e4cd33205d103e6f99197d510d2a969b29000bb36dd36b1dd2d262d19a3691d0a9b907ffe0ac877aac22fd935bac561dfb29350ff81b7ba886b485331a5d0845355bf0227e5652e80a7c37ededf331d6877aa7cb97b2d33f90e163c0b0159ec8d3eacdb4be4fcc877730f8d0c77356c5815cf1193211bdd13b9dbbf8b311f343816e329c1bdc2a46420dd55ea4feacfc99891e791c62cf2bd1bf297f1a4fb90eb76fe7fb828dc6374c8cb9bb4185967bf2519a1772da197d8e6e5627c72bf32dd3bb8a6ffca4e57a702536a597c760b55fdb6f997624dca07459594c8131c3b15610b30674375fa1d9910c46b82101463113484f66248b18b97c7e9afe702b00124f74e02d407254f0d8931cbea470913f7a2f813302dc97667dcb25f7754954fd8cac11f6444bef8e87cdc13f61a3217ffafd48271388a19f513c5fd12dba689049a6aed42e27829a51c17d9525fccadbe42103730df263d091e380d728e17d43c107a0cd00bf857c6f7df13a62b4abf8af5de35907d51b6f075e16fb3bbf6744fc6683e616f7250ac47fd8ca02411f525105d1442e5b5c723ff99c6d00ac48e672e365a891c4454342072578ff778ec3b97b7f21716ba085c52e01bda57fbcd86d74fde8a2574f524f0469626bd61aa5d2651e334c486db506aad579ac37a9a1d5ff0e0c4a594828a6eddf140fab72a718853e6f72a8e278e1e79460874d70f8067a5bb9f0c76e79e0358520d399fe6bed6bc99d840c3521845d7009e2e747f56e17c116d67197f7873428155efd5759e9f68c37abeebf0d96da96fd537bc7ed50ed91eb721364466034d0fd03448f88f4ae2ad4d8da02047158600c15ffcd337c01bf25589decfa5a01b7fcf0ccd4b07b5b12dcc8fa2e2b8225e171bec4475094f051cfd6c8fe04412e30bf52e650b05084da832e1031f2838393e46666d747d80bbbecadce3e6f4162b2d32335459649ca0a6a9b0bad5031d3f485d67758b9ea1a3aeb7b9bec4d3d7ff090e21263f4145536d6e737d8a95a5f100000000000000000000001322354501",
        "00c5f5923f260403b79dce8f6ed4c01336d4bce99bb37ee605edd21acc526d2bd1b303db4896d1925882f70221436c3f3f25f8ecc0d2d62b66746896a244f5ccf519ced28ccdbebc4eb639e3acef28685bbef94bb31a29c15bf1182141c758ed43ad3fdd3e3ca678765496467a2e704f95319af9209f75c0b443f55c9742bffdc2d51a5f9f649ebca0326c5f52f849a7aa0c80b2baee2cf62348f7b2fb351006e9e430e5b60382f45ec4d03c7066f59b903fd24f4f6bb76d56b952c6d1e1fc919d81e05e54ed0f7dedaf7a83d765e403357c52bdf1ea5565adaa8d906f1f479d3d76f284685ff273812626a6ab43c3c2c08375976f7722251247acd12b0b58b76571cc75b2d8a631811b3df4a6382e747ab387c2f707225c6030d8e8caab4a41dd897b32ec967f7ff1f1cf105c9ef7e069fbf564bb9925694e34ee31fe42a765e0648d678ef6cef85ee1097b8055b039df10b76de08c8d77a6cb49bf91033146f5fc0e66993ab9ca254b68dd16cb2ed01d58758ef72a0bc2e11a9e910efc20d19e51deeb13658119ca1676f4fc8fd5ef84d7a0f3974e17cb166367cd38142414d062dd30b93cf1033fda19020b55b14abd8f13214411f9ac83449cbf1dbcbb698f80f6d7c2eea97024fed959dd64203f9b416a69b08a107b5b4d568e5e73264c135910def6add09c7c5a335e6b0a4c72904f639cc3ea602bc0ba80f978b80796842c68ef56addc9fd7cd628af876e8c8b0ee71906dfda3f546f9f21149fb1d15383819661cd6397b96afb2fef2b81ef4aca6ac1258f01de164250aca5719abc5ef40223d5a2e97bc2f2e7dbe7a4bc02edb59ef578e514a37aa0c650f22cfe695c3a1970f77820285a5865f34940b5512b10e1ba94da8c6f2dc28d4ad22d8d0d5fb899e0adb8185b8b8db49686d0e982de54b177363e91f90903f2ef89cb69e5301911b62926f5397f65583e1603dfc73df3ac817a9b7124fbb9efe92339348e181ca21841e76a215c011fccd28451557f32f027a9ead76a87073b42472801394b3127963f85c4dd950fbe252a46b048d8d3019c49ace5b339ed636366d26108184d7881e3e2f75f2caf73fc85dd9e606843b995fb52c4fa6c35141e235c5ea49b8a905584d853fd6170298d4bd610f5eaac55b32fafcb8e8dfabad6b231200021993ba74840c59fa666d99eb182bf6fb452239ab21324cfda46110ba916234f58667416686f8ea63fe06a2acc502e09a258cc4f8fad4f9c7c49b5509badb37aebf3592d7371bc620df29bf31758ed0683794b8086dbddf734d16b86e7f30e2d1e31618e370f9c00ea42e4736089a5cfd1b3edc39adb22769f16ae2b24a0a85bd2a0ca17308fe8cc5d6a39cd3c6034a0fe9796c6510446e3444ff146bf0e2749a9d6f6854b39a5e79bdcab96f5048d76c44cdb43f36a5ebc1632482fbc7055f89214eca700cebf7849ba0b2262b91e65cdba8297b2016f18b376e5425192e35f18dd1a7ca724504c06b8a7e27e1da01b22536872a513d68b8bd224973dc3c643726ec557186874af929b7aad93bcba731a87c95bb7987cbf30f68a67a5cc08cb57f688a6cefc83be6daaa7356c9e70a30d288e9ef1332a1147250a1e1119261e9689a831ec099c60961a4a92837ec8971856647e87d578515f904e782c9bf5ec3897d84c74c0fc67871973651a6198b2059a97ef24580552758216a7f85d8789d514768b5063e30559ddd8358a389dc9fdfc9738a4f3f5c4b4fbf4329c052b74e994f5a5995068609e853630f65ad72f5c16034c9ff1cca8e1822b5d1e46d1ecd1970c4731fd63d5555e0b48b4a4fdcd0c0e520a93ece35bd45b39272f8e7f12cb9"
      ],
      "sequence": 4294967294
    }
  ],
  "vout": [
    {
      "value": 499990.8479,
      "n": 0,
      "scriptPubKey": {
        "asm": "1 80309779ad3203b6904820efb218f5c745e000b016338bf18a34ee1d24b74d12",
        "hex": "512080309779ad3203b6904820efb218f5c745e000b016338bf18a34ee1d24b74d12",
        "reqSigs": 1,
        "type": "witness_v1_scripthash",
        "addresses": [
          "3QJmnh"
        ]
      }
    },
    {
      "value": 1.0,
      "n": 1,
      "scriptPubKey": {
        "asm": "OP_RETURN 2a2a67fee4cef218de0544398774a5fc8211a55571fd211f75e577bd28dfa462 ba5dd8229faa661314fcb99079e16dbd34e5dcd7632d603e4fdcea71661abbc09a7df802bf8a463334dc99b059c14d9d14c5fcf7430d401e6ffcca51463a9be0fa1d9862dfea265354bcf9d039a12dfd74a59c97236d207e0f9caa31265afb80da3db842ffca0673749cd9f019810ddd5485bcb7034d005e2fbc8a11067adba03add58a21f2ae693947c3910f961ed3db4655c57e3ade0becf5c6af1e69a3b401afd78823f0ac6b3b45c1930d941cd1d94457c77c38dc09eef7c4ad1c6ba1b607a9d18e25f6aa6d3d43c7950b921ad7df4251c17a3eda0fe8f1c2ab1a6da7b005abd38c27f4a86f3f41c597099018d5dd4053c3783cd80deaf3c0a9186fa5b20ba5dd8229faa661314fcb99079e16dbd34e5dcd7632d603e4fdcea71661abbc09a7df802bf8a463334dc99b059c14d9d14c5fcf7430d401e6ffcca51463a9be0fa1d9862dfea265354bcf9d039a12dfd74a59c97236d207e0f9caa31265afb80da3db842ffca0673749cd9f019810ddd5485bcb7034d005e2fbc8a11067adba03add58a21f2ae693947c3910f961ed3db4655c57e3ade0becf5c6af1e69a3b401afd78823f0ac6b3b45c1930d941cd1d94457c77c38dc09eef7c4ad1c6ba1b607a9d18e25f6aa6d3d43c7950b921ad7df4251c17a3eda0fe8f1c2ab1a6da7b005abd38c27f4a86f3f41c597099018d5dd4053c3783cd80deaf3c0a9186fa5b20ba5dd8229faa661314fcb99079e16dbd34e5dcd7632d603e4fdcea71661abbc09a7df802bf8a463334dc99b059c14d9d14c5fcf7430d401e6ffcca51463a9be0fa1d9862dfea265354bcf9d039a12dfd74a59c97236d207e0f9caa31265afb80da3db842ffca0673749cd9f019810ddd5485bcb7034d005e2fbc8a11067adba03add58a21f2ae693947c3910f961ed3db4655c57e3ade0becf5c6af1e69a3b401afd78823f0ac6b3b45c1930d941cd1d94457c77c38dc09eef7c4ad1c6ba1b607a9d18e25f6aa6d3d43c7950b921ad7df4251c17a3eda0fe8f1c2ab1a6da7b005abd38c27f4a86f3f41c597099018d5dd4053c3783cd80deaf3c0a9186fa5b20ba5dd8229faa661314fcb99079e16dbd34e5dcd7632d603e4fdcea71661abbc09a7df802bf8a463334dc99b059c14d9d14c5fcf7430d401e6ffcca51463a9be0fa1d9862dfea265354bcf9d039a12dfd74a59c97236d207e0f9caa31265afb80da3db842ffca0673749cd9f019810ddd5485bcb7034d005e2fbc8a11067adba03add58a21f2ae693947c3910f961ed3db4655c57e3ade0becf5c6af1e69a3b401afd78823f0ac6b3b45c1930d941cd1d94457c77c38dc09eef7c4ad1c6ba1b607a9d18e25f6aa6d3d43c7950b921ad7df4251c17a3eda0fe8f1c2ab1a6da7b005abd38c27f4a86f3f41c597099018d5dd4053c3783cd80deaf3c0a9186fa5b20ba5dd8229faa661314fcb99079e16dbd34e5dcd7632d603e4fdcea71661abbc09a7df802bf8a463334dc99b059c14d9d14c5fcf7430d401e6ffcca51463a9be0fa1d9862dfea265354bcf9d039a12dfd74a59c97236d207e0f9caa31265afb80da3db842ffca0673749cd9f019810ddd5485bcb7034d005e2fbc8a11067adba03add58a21f2ae693947c3910f961ed3dc8c87d04b5549a9840b3571397b011618045f4552190234bb3a93061dd83cb82",
        "hex": "6a202a2a67fee4cef218de0544398774a5fc8211a55571fd211f75e577bd28dfa4624db004ba5dd8229faa661314fcb99079e16dbd34e5dcd7632d603e4fdcea71661abbc09a7df802bf8a463334dc99b059c14d9d14c5fcf7430d401e6ffcca51463a9be0fa1d9862dfea265354bcf9d039a12dfd74a59c97236d207e0f9caa31265afb80da3db842ffca0673749cd9f019810ddd5485bcb7034d005e2fbc8a11067adba03add58a21f2ae693947c3910f961ed3db4655c57e3ade0becf5c6af1e69a3b401afd78823f0ac6b3b45c1930d941cd1d94457c77c38dc09eef7c4ad1c6ba1b607a9d18e25f6aa6d3d43c7950b921ad7df4251c17a3eda0fe8f1c2ab1a6da7b005abd38c27f4a86f3f41c597099018d5dd4053c3783cd80deaf3c0a9186fa5b20ba5dd8229faa661314fcb99079e16dbd34e5dcd7632d603e4fdcea71661abbc09a7df802bf8a463334dc99b059c14d9d14c5fcf7430d401e6ffcca51463a9be0fa1d9862dfea265354bcf9d039a12dfd74a59c97236d207e0f9caa31265afb80da3db842ffca0673749cd9f019810ddd5485bcb7034d005e2fbc8a11067adba03add58a21f2ae693947c3910f961ed3db4655c57e3ade0becf5c6af1e69a3b401afd78823f0ac6b3b45c1930d941cd1d94457c77c38dc09eef7c4ad1c6ba1b607a9d18e25f6aa6d3d43c7950b921ad7df4251c17a3eda0fe8f1c2ab1a6da7b005abd38c27f4a86f3f41c597099018d5dd4053c3783cd80deaf3c0a9186fa5b20ba5dd8229faa661314fcb99079e16dbd34e5dcd7632d603e4fdcea71661abbc09a7df802bf8a463334dc99b059c14d9d14c5fcf7430d401e6ffcca51463a9be0fa1d9862dfea265354bcf9d039a12dfd74a59c97236d207e0f9caa31265afb80da3db842ffca0673749cd9f019810ddd5485bcb7034d005e2fbc8a11067adba03add58a21f2ae693947c3910f961ed3db4655c57e3ade0becf5c6af1e69a3b401afd78823f0ac6b3b45c1930d941cd1d94457c77c38dc09eef7c4ad1c6ba1b607a9d18e25f6aa6d3d43c7950b921ad7df4251c17a3eda0fe8f1c2ab1a6da7b005abd38c27f4a86f3f41c597099018d5dd4053c3783cd80deaf3c0a9186fa5b20ba5dd8229faa661314fcb99079e16dbd34e5dcd7632d603e4fdcea71661abbc09a7df802bf8a463334dc99b059c14d9d14c5fcf7430d401e6ffcca51463a9be0fa1d9862dfea265354bcf9d039a12dfd74a59c97236d207e0f9caa31265afb80da3db842ffca0673749cd9f019810ddd5485bcb7034d005e2fbc8a11067adba03add58a21f2ae693947c3910f961ed3db4655c57e3ade0becf5c6af1e69a3b401afd78823f0ac6b3b45c1930d941cd1d94457c77c38dc09eef7c4ad1c6ba1b607a9d18e25f6aa6d3d43c7950b921ad7df4251c17a3eda0fe8f1c2ab1a6da7b005abd38c27f4a86f3f41c597099018d5dd4053c3783cd80deaf3c0a9186fa5b20ba5dd8229faa661314fcb99079e16dbd34e5dcd7632d603e4fdcea71661abbc09a7df802bf8a463334dc99b059c14d9d14c5fcf7430d401e6ffcca51463a9be0fa1d9862dfea265354bcf9d039a12dfd74a59c97236d207e0f9caa31265afb80da3db842ffca0673749cd9f019810ddd5485bcb7034d005e2fbc8a11067adba03add58a21f2ae693947c3910f961ed3dc8c87d04b5549a9840b3571397b011618045f4552190234bb3a93061dd83cb82",
        "type": "nulldata"
      }
    }
  ],
  "blockhash": "ed58b71ef50cb049f6fd5c1ad274bdeb3951d970e0a56ec51ef7152d34b6d8c5",
  "confirmations": 1,
  "time": 1764177054,
  "blocktime": 1764177054
}