{
  "hex": "0100000000010140c536c6f0da04606810f7acd461a61d1e66a29dc2284a1d2123f9927b7b34620100000000feffffff0200e1f50500000000fdd5046a20459916b6fa2179960fcc8ffd86a00c1ee489dc06d5b0b8316b0c1938784e76ee4db004a854238bb0df4c89865ee884fb32e98f7879e6999812e7c397d6c38e96bbbf86887403ab90ff6ca9a67ec8a4db12c9af5859c6b9b832c7e3b7f6e3aeb69b9fa6e81463cbf09f0cc9c61ea8c4bb72a9cf3839a6d9d852a783d79683ced6fbffc6c83443ebd0bf2ce9e63e88e49b5289ef181986f9f87287a3f7b6a3eef6dbdfe628d4a30b305fcc0906de68047bb2690ff8f96619189267431756430e163b3f0608f4832b107fec2926fe48245b92492fd8d9463938b247633776632e361b1f266894e34b701f8c49469e28443bf2294fb8b9265958d227035716034e567b7f4648b4c36b503fac6966be08641bd2096f9899067978f207237736236e765b5f66a854238bb0df4c89865ee884fb32e98f7879e6999812e7c397d6c38e96bbbf86887403ab90ff6ca9a67ec8a4db12c9af5859c6b9b832c7e3b7f6e3aeb69b9fa6e81463cbf09f0cc9c61ea8c4bb72a9cf3839a6d9d852a783d79683ced6fbffc6c83443ebd0bf2ce9e63e88e49b5289ef181986f9f87287a3f7b6a3eef6dbdfe628d4a30b305fcc0906de68047bb2690ff8f96619189267431756430e163b3f0608f4832b107fec2926fe48245b92492fd8d9463938b247633776632e361b1f266894e34b701f8c49469e28443bf2294fb8b9265958d227035716034e567b7f4648b4c36b503fac6966be08641bd2096f9899067978f207237736236e765b5f66a854238bb0df4c89865ee884fb32e98f7879e6999812e7c397d6c38e96bbbf86887403ab90ff6ca9a67ec8a4db12c9af5859c6b9b832c7e3b7f6e3aeb69b9fa6e81463cbf09f0cc9c61ea8c4bb72a9cf3839a6d9d852a783d79683ced6fbffc6c83443ebd0bf2ce9e63e88e49b5289ef181986f9f87287a3f7b6a3eef6dbdfe628d4a30b305fcc0906de68047bb2690ff8f96619189267431756430e163b3f0608f4832b107fec2926fe48245b92492fd8d9463938b247633776632e361b1f266894e34b701f8c49469e28443bf2294fb8b9265958d227035716034e567b7f4648b4c36b503fac6966be08641bd2096f9899067978f207237736236e765b5f66a854238bb0df4c89865ee884fb32e98f7879e6999812e7c397d6c38e96bbbf86887403ab90ff6ca9a67ec8a4db12c9af5859c6b9b832c7e3b7f6e3aeb69b9fa6e81463cbf09f0cc9c61ea8c4bb72a9cf3839a6d9d852a783d79683ced6fbffc6c83443ebd0bf2ce9e63e88e49b5289ef181986f9f87287a3f7b6a3eef6dbdfe628d4a30b305fcc0906de68047bb2690ff8f96619189267431756430e163b3f0608f4832b107fec2926fe48245b92492fd8d9463938b247633776632e361b1f266894e34b701f8c49469e28443bf2294fb8b9265958d227035716034e567b7f4648b4c36b503fac6966be08641bd2096f9899067978f207237736236e765b5f66a854238bb0df4c89865ee884fb32e98f7879e6999812e7c397d6c38e96bbbf86887403ab90ff6ca9a67ec8a4db12c9af5859c6b9b832c7e3b7f6e3aeb69b9fa6e81463cbf09f0cc9c61ea8c4bb72a9cf3839a6d9d852a783d79683ced6fbffc6c83443ebd0bf2ce9e63e88e49b5289ef181986f9f87287a3f7b6a3eef6dbdfe628d4a30b305fcc0906de68047bb2690fb8ed13588180d251338be747a425f5f2a98416f42d8a15729e25e7bfa95e5026d0cb9045792d000022512038084fb02b33408e93944f423fb6f3123c1494de59d0550ec8b566499d98ead802fd7509da6c786ca1d73194a3405dde6f348186fbcf58f6b4127dcb94915ac6c108724ff889fdd205787426a8f8254a6c176c2b10eba448c34bc9266515c59514739a5156c0205ab3dfd34f48a1e22b8eea462bcf91e515b1ab6361187f103919259317cba94a3606856327e5f6efe008947f0f7e46d720e419267c315132f41f171bc85c9e4988d561627e25c62159381396862324e9772833e9a884be4ead9d8d39fe015bddeb39bc69d2098f4d0a27ead802961b4f9ef806c6a05bed8a4ceb453ef64c50d0bbabf9fc0dbb167a7453756e3ee674e7992400091a105f0c5bad1deea7d5cb9b9f586a69fedc3aadb335d80d0cd898fd6f7b641a86cfe22868b68455deccc69500a3fa98e16efa080299ab52b0b50c354a9742a1e70f054f90ac43541cf38ecbffb38f8459a6d4115d6475b6e62e4e768f68d18850f2a18d7779338bfccab45d8eab3789402cc92a1b719c59d75a4eca591b572b2ec14ac53ac13fea1cad0f34ac2c43bf57d53b67a4f2382d8d11d3074f24eded1a692015bf3e8914f694aec0c430cf9b9a6d921b8b3c0933855db73696115145902c4b869c99dda4fb3a3296b0489c3404148c226ea220039989de6623835104a00714bc54acfaebc569afefa80273a54a568110ded4acff0f6fed03b905a3b3da66c54c6c8732d485e39fa3d193d91b610a79098aa9f3a2dd47b606dc88723b93815d878d293052ba4007a43b28dfab07b3033d0a379e54f0286f7d36e781838890a31921bdc9c4b5619326590106e92a4c8c46785376a002659c18f0fd8272c2f6403f73e1f4b7619bb9b02add83f0b86aed3dae95bb9683bffc3e299a26151f53b09602582f981834446d8d06149899bf0e6f7601137c337d10a350224d82599009fb1946d171302da8cd210c035f393c472238990b167c74967829bf7af39f9a41e5d7bac6fa963ee7e0d3a6e36af79072ba91c9bbbd45fdec6c202e70c19c28ef3c6b845d72e0c79c680f6c6d0dee1b89564b061af17b0d249543ba656421c7d4e4ac58ff55c2090a24e89135be295960020b3406f11977c8ffb4717a113b46b008171c1c451ee1d9f8d61e807ed64addcab35bedeabd8ff168a950c0d7751785e01d4bfbabb55e0c2bce10586825ff35a35dd649ef009c4ab2afc4d20b9ba7b3a4a938393f3d740a28b6303e2620c792276331f72c4739577a8f7cc3021def292192e78f6fd09ed1d3bccb10dc5ab2eff04df245ca6c6c91740546ff64d2da3f6f2ab417219a76fc45f7cc5b20c1790c45e0bc1d56038e081c81768c141ddaf0e2b39a7de2cf40aac8e5b95e84984f2d4bbafd8bbb849c882663362b7ad66a82c675141b9784c81da5af9a889a6bf00ed2dd3ee614fcb0d2215a17b8eeb61f2cbf292ef01270908b1a5c57f564d96a5317b71d6313e9f09c8bbead9c5ba48d505659944a554afd8cc9966fd8719ab847fbc3db1624e496f5c4396e3861ff881a0a639f0e806b0dc6d4dcf74b9c2a3675a2937e4c47ceb37cdcd0b445f7a6989f99d1a2f37480bb6ca4406e724c173c80b7d6d32a7e9e3a5fce640098aafda0241ab36f17cd1068be28799a2be4f26271389c7c3262f42bca9c1cee77051500875aa45b0566133bf079ff531fa65425b2a3c218efff3dedddb569f8544c18e934a07f267f5f560f3193a1d19639bb371e5956a9236715f33946b5f9e05a42faa07f0d81d3f91389e50ec4cc5e03f96a349e7719a13ebcb832aefdf47e112fe1fa8bb5c96ec2958332e2f0dd25cfd7200d022e7905724a6af0eb7c403edd23e24c1ad45ea3359aac34ffaa8395c73251955f6feb236c83a2d7c1ebe7f72b9a8ef098884996f3330dd837a52245a4e3d8a3ccaa87d867eab48acbc7a43b214398a14ca1dde231a5988f6ac7332074a0169b59dfa7de5857c633bf0447f071133de20d2db0ff16ec26cf864ec8fa0f712232a6e8a734067e3d31e58eb5566557342b16b7d54c30477737a87dfd691e0ccabf278edd12ea531ab2bf30e7e0e63745bb636f646ce1eac03ac5be42138b17257bcf3bd8dab157e3870d1e3d5388605706ad136fb86682ae40d861624717901fb7fdcafa791480919bf94306e5af9ec537623a05f8de94bd87b167e745349ca9508ef97256e82d1b65c10a27f159a27e099a6dbe6ec4afa19a0cca6a487c2e5c0ab0a8c1720fc5cd3d12e1eab753896cb2f1d5f8748043a5c7ccca71dec23161fa1860f1da7d1a97b3f50f511adb046a5bfeb41b6c8729ae22e03f22e401eda71297ad9075695a79bcd1a21b4c8849a53b6a7d0793564986768b240e2da94b23f1f7d520d6711dbf70a40a25917883f2f69268fe181aa3aa60323bf3af963860a90efe5f7080ee5a3efd055de1cc239c4ab0931468f7a4b32c430c6e115ea5b8d66edca881ebd0467072153b78a4226206dfbb35c689645fcd000fd84af51ce4372a4ee4fcbfb18bc4013d7c6b69b522e4c6d4df221e8a2ed1eb514aae5125fb1f14b8967e5e687018f23c0ca8dc2a96c8b8fecc173069fb4854b6e8b98c0e411066086524f211342556f229e159eb62e4c64d9b117b9f611fe3496b0f7230d515a003277acdacfb8ff4c8842d9efc60b7192b9f7adf1ca998a681e0286cdbe80bc97b3306d0ed1b20073daefc7082b16bda0bf64dc0d824311eca6a5af2b4c811c5a9d5f8831509e302fbc6569cfef5e09aa75db736ae032beef94a1cafe199cfe6ee6c3e93e5af7834870d3becb97e8facea0a7b42281fe1370a7c253e0d93d5c5afed90e088de282c36b44b29961a372dbedfcc0c6cb681c6927de3edbad86e787cc8538859e338c3f85e5c88ef73bc825a7164ce93f50b2c4135663c440ed294f12c6bb21c29be03bd4dc093d9b9eb80760141509331862715e75a21c0854a3d7a3e6326d6eb876e5061e584c3584c76454eb5858a22cce9eeb0d1b6bb413470c144fc69d982260af7c4c10812c343f8c0289357121ee56492ef998e85e5ec0cb3c851344060c1d1bf41548d9854e2d92fed56a7b661e2707f48459faef1a5e99593e2353cde3e0de8ca22c90b5c812508607a291d7bd4176efa7e0f6faa4aca1d37ee423c7a65c9382a855fa5f4562cc8130ff1e961b54db8f1039e710184bf3db063ef1b4aaff344bdadb94cf258f3de6da2f310f0107b82fd022a01d37efe0376ded520499896781733c2eed7a86ddd52877f0da96984cdde109c9e21e753d3698c10050e683f11a3e1dfe6fbed5f8e931a3254f7a6e6da45febfd2aa2f21c5ea44a6bb2dd35e9c941a348c74b8371e7010a20420474b4f56808eb5b70a0d1d22243443728c9298acaff1ff191d263c426788899da1afb3babbd0dfe3e6ebedfd0d14192b353f4854607b7c9fbcd9f4fafb00000000000000000000000000000000000009182d3e01fd210500bb648622d4c03131a60071348e80ff33a19e0d4c564113a38b950f1dd9b78e8048e0c46209fc9cc6f1b85d13981e25481455313f658ff9890131e1daec5902c2a27e6d1328aec759105aa5e1515973139aed874c09b65a5675337e907bb368256ad8286d8b58ae4d6adccaef1a7a6ff7f5a58f945305509f01604089fd3481fdac643eb572be0ba4f5a467c8ead1f56739d1a03847fbcafe1dc1bd33148e5953e38bf28a5212fcf63f32c58c3f637a50639420cbb9c7488d8394e73b811f1eed9387296771946b8e8b98ed5960ba1d8ebef15f3b319e3a8f5420afd34b2e090a53a29197bace6714cf4174395fca23c04f967843f4025d24130bada76affc866a0ccbd1a382c8f631e83378629ee3099be4b13b83d7e5f11ed5c106a32390f6140ea0399820ad2f1af4262e207a0794836e08b082fa0f253ad31a5b86717e0ee93705850622b89272bc754fd5266313d20472058013bbfd313c53504c15ec755413e128217157e12d5e8739242992f8577438f16136f57b468abbe644277e0a92b685d448e8cbc9cf186e9559ff8c11ca11496428450bff3c333b76052b5fc4cc831381326d7d6fa2199d450d369a6a61f0580824699e35b30fce84241c15e7fd8459025655d607cd75c047c4c0d71ff38c1bd48ec94bbf045060770f723c8349e78e88ef90942bc7614df237c778c8738955f3ea937e65203f024940283c49cd4bb2ff10eab31ea74ddb39fd3d7e46ea5367afd81e26774101dd5ab0893c1a23821fe81a6bb49ad2a19df433b48ed57945f86b70c32edefbbdd39e65cd55e34af897ffa07838531ae31cd21a1b89643218f6691ec911aa0e43a1318107f5190e53ff4817eb443eaa025ce40f0726a1bbeb9d6fd57796b3bcc0d6016ac7a448e929e5dbd3a0428a558d0c79894596df195d0d8ec33fbe7146c1db1f2f4d138f3a07e9837414b5cc87ca1404a47855464c5e148d2e16a48194cd1e0795c427bb55d4c3c33ae27202342db2a102e84bcfa2bc8821ef6fc5b96ce14b95414f7d397cd76b7bcca4e9df274e3d0b15359d01f9868d4aaac04a20bc79807bab778ed573dd73a245cf67aadd20e33b3c8bb41a27f07228003f43fe4249188cbc832829a1a1020a9df95182b83f8cbe34ed9c2bc2a8a0f8b50b406cd986fd121cf1ec995538693b3fedcaa038133102eb8b5488a73e9778af797cbd93b9a6a6cb2b74050996bd729d6725d741d37f82fb2f7d7dbeef090454ec360af7ff0cfe6bcfdacfc7819ab4e1763715b11fd6e842e872f025f0dd7b84d125d89c6b491e71c70bd7b2879b98f6106d2d5fb694367b191e988c3bedbdda3f7d15d6df8dce7c06816f5f9c732148ceecbd9e7d86b0115eac701d655fbcd053aab091c129526c31d9d269e7d88bd51d34dc5c4203cf7f2b0a0b8a7174c1ae85480389790a97dcaceae9910afa59453426c12439937750ebabed61a882b3fe658e824c33e91dd133ef1414a908cc5d2efd1f5ad43b36b7e276d0b2fe11a5a28e39ec6be03d7f14408f647c5921e65d99d4106bad6b142ec9cec98c5bc0e3c056c8baab121d1a63a7894bc86a721c0aae1fb56cad81200c8c8b0a2ab64917d420a9f3b672fe1c9509ac616d08e0392a27497cab7531b038fb9f27c6fc02f66e969881d54f8a086d6d35d026b275eeedaf1f17d1fd62a0af940f22a39c4061af99d466d09fac5ad3eaba110375b350267cc0d4643f81d50aabdccf2ec1cc9c6b05464dad06cb32a32fcfd975ea020f332b151442b7e23111f05d2dfeda99dbdfc9b4e54043ece82e497510a9a07cf2b51e3cc918223e8dd66059f20b7c9b8702c3ce3b4942915ec73d128206d000000",
  "txid": "043d98612061baf28565c9f77a40bdb58aa4988e35ac0b8ddca2f0079bf16fdf",
  "hash": "65739ff9f8b2cdd1e0aa7096688b9cd37f0b875fd3f784865466d0f4beb8ab93",
  "size": 5085,
  "vsize": 2278,
  "version": 1,
  "locktime": 109,
  "vin": [
    {
      "txid": "62347b7b92f923211d4a28c29da2661e1da661d4acf710686004daf0c636c540",
      "vout": 1,
      "scriptSig": {
        "asm": "",
        "hex": ""
      },
      "txinwitness": [
        "da6c786ca1d73194a3405dde6f348186fbcf58f6b4127dcb94915ac6c108724ff889fdd205787426a8f8254a6c176c2b10eba448c34bc9266515c59514739a5156c0205ab3dfd34f48a1e22b8eea462bcf91e515b1ab6361187f103919259317cba94a3606856327e5f6efe008947f0f7e46d720e419267c315132f41f171bc85c9e4988d561627e25c62159381396862324e9772833e9a884be4ead9d8d39fe015bddeb39bc69d2098f4d0a27ead802961b4f9ef806c6a05bed8a4ceb453ef64c50d0bbabf9fc0dbb167a7453756e3ee674e7992400091a105f0c5bad1deea7d5cb9b9f586a69fedc3aadb335d80d0cd898fd6f7b641a86cfe22868b68455deccc69500a3fa98e16efa080299ab52b0b50c354a9742a1e70f054f90ac43541cf38ecbffb38f8459a6d4115d6475b6e62e4e768f68d18850f2a18d7779338bfccab45d8eab3789402cc92a1b719c59d75a4eca591b572b2ec14ac53ac13fea1cad0f34ac2c43bf57d53b67a4f2382d8d11d3074f24eded1a692015bf3e8914f694aec0c430cf9b9a6d921b8b3c0933855db73696115145902c4b869c99dda4fb3a3296b0489c3404148c226ea220039989de6623835104a00714bc54acfaebc569afefa80273a54a568110ded4acff0f6fed03b905a3b3da66c54c6c8732d485e39fa3d193d91b610a79098aa9f3a2dd47b606dc88723b93815d878d293052ba4007a43b28dfab07b3033d0a379e54f0286f7d36e781838890a31921bdc9c4b5619326590106e92a4c8c46785376a002659c18f0fd8272c2f6403f73e1f4b7619bb9b02add83f0b86aed3dae95bb9683bffc3e299a26151f53b09602582f981834446d8d06149899bf0e6f7601137c337d10a350224d82599009fb1946d171302da8cd210c035f393c472238990b167c74967829bf7af39f9a41e5d7bac6fa963ee7e0d3a6e36af79072ba91c9bbbd45fdec6c202e70c19c28ef3c6b845d72e0c79c680f6c6d0dee1b89564b061af17b0d249543ba656421c7d4e4ac58ff55c2090a24e89135be295960020b3406f11977c8ffb4717a113b46b008171c1c451ee1d9f8d61e807ed64addcab35bedeabd8ff168a950c0d7751785e01d4bfbabb55e0c2bce10586825ff35a35dd649ef009c4ab2afc4d20b9ba7b3a4a938393f3d740a28b6303e2620c792276331f72c4739577a8f7cc3021def292192e78f6fd09ed1d3bccb10dc5ab2eff04df245ca6c6c91740546ff64d2da3f6f2ab417219a76fc45f7cc5b20c1790c45e0bc1d56038e081c81768c141ddaf0e2b39a7de2cf40aac8e5b95e84984f2d4bbafd8bbb849c882663362b7ad66a82c675141b9784c81da5af9a889a6bf00ed2dd3ee614fcb0d2215a17b8eeb61f2cbf292ef01270908b1a5c57f564d96a5317b71d6313e9f09c8bbead9c5ba48d505659944a554afd8cc9966fd8719ab847fbc3db1624e496f5c4396e3861ff881a0a639f0e806b0dc6d4dcf74b9c2a3675a2937e4c47ceb37cdcd0b445f7a6989f99d1a2f37480bb6ca4406e724c173c80b7d6d32a7e9e3a5fce640098aafda0241ab36f17cd1068be28799a2be4f26271389c7c3262f42bca9c1cee77051500875aa45b0566133bf079ff531fa65425b2a3c218efff3dedddb569f8544c18e934a07f267f5f560f3193a1d19639bb371e5956a9236715f33946b5f9e05a42faa07f0d81d3f91389e50ec4cc5e03f96a349e7719a13ebcb832aefdf47e112fe1fa8bb5c96ec2958332e2f0dd25cfd7200d022e7905724a6af0eb7c403edd23e24c1ad45ea3359aac34ffaa8395c73251955f6feb236c83a2d7c1ebe7f72b9a8ef098884996f3330dd837a52245a4e3d8a3ccaa87d867eab48acbc7a43b214398a14ca1dde231a5988f6ac7332074a0169b59dfa7de5857c633bf0447f071133de20d2db0ff16ec26cf864ec8fa0f712232a6e8a734067e3d31e58eb5566557342b16b7d54c30477737a87dfd691e0ccabf278edd12ea531ab2bf30e7e0e63745bb636f646ce1eac03ac5be42138b17257bcf3bd8dab157e3870d1e3d5388605706ad136fb86682ae40d861624717901fb7fdcafa791480919bf94306e5af9ec537623a05f8de94bd87b167e745349ca9508ef97256e82d1b65c10a27f159a27e099a6dbe6ec4afa19a0cca6a487c2e5c0ab0a8c1720fc5cd3d12e1eab753896cb2f1d5f8748043a5c7ccca71dec23161fa1860f1da7d1a97b3f50f511adb046a5bfeb41b6c8729ae22e03f22e401eda71297ad9075695a79bcd1a21b4c8849a53b6a7d0793564986768b240e2da94b23f1f7d520d6711dbf70a40a25917883f2f69268fe181aa3aa60323bf3af963860a90efe5f7080ee5a3efd055de1cc239c4ab0931468f7a4b32c430c6e115ea5b8d66edca881ebd0467072153b78a4226206dfbb35c689645fcd000fd84af51ce4372a4ee4fcbfb18bc4013d7c6b69b522e4c6d4df221e8a2ed1eb514aae5125fb1f14b8967e5e687018f23c0ca8dc2a96c8b8fecc173069fb4854b6e8b98c0e411066086524f211342556f229e159eb62e4c64d9b117b9f611fe3496b0f7230d515a003277acdacfb8ff4c8842d9efc60b7192b9f7adf1ca998a681e0286cdbe80bc97b3306d0ed1b20073daefc7082b16bda0bf64dc0d824311eca6a5af2b4c811c5a9d5f8831509e302fbc6569cfef5e09aa75db736ae032beef94a1cafe199cfe6ee6c3e93e5af7834870d3becb97e8facea0a7b42281fe1370a7c253e0d93d5c5afed90e088de282c36b44b29961a372dbedfcc0c6cb681c6927de3edbad86e787cc8538859e338c3f85e5c88ef73bc825a7164ce93f50b2c4135663c440ed294f12c6bb21c29be03bd4dc093d9b9eb80760141509331862715e75a21c0854a3d7a3e6326d6eb876e5061e584c3584c76454eb5858a22cce9eeb0d1b6bb413470c144fc69d982260af7c4c10812c343f8c0289357121ee56492ef998e85e5ec0cb3c851344060c1d1bf41548d9854e2d92fed56a7b661e2707f48459faef1a5e99593e2353cde3e0de8ca22c90b5c812508607a291d7bd4176efa7e0f6faa4aca1d37ee423c7a65c9382a855fa5f4562cc8130ff1e961b54db8f1039e710184bf3db063ef1b4aaff344bdadb94cf258f3de6da2f310f0107b82fd022a01d37efe0376ded520499896781733c2eed7a86ddd52877f0da96984cdde109c9e21e753d3698c10050e683f11a3e1dfe6fbed5f8e931a3254f7a6e6da45febfd2aa2f21c5ea44a6bb2dd35e9c941a348c74b8371e7010a20420474b4f56808eb5b70a0d1d22243443728c9298acaff1ff191d263c426788899da1afb3babbd0dfe3e6ebedfd0d14192b353f4854607b7c9fbcd9f4fafb00000000000000000000000000000000000009182d3e01",
        "00bb648622d4c03131a60071348e80ff33a19e0d4c564113a38b950f1dd9b78e8048e0c46209fc9cc6f1b85d13981e25481455313f658ff9890131e1daec5902c2a27e6d1328aec759105aa5e1515973139aed874c09b65a5675337e907bb368256ad8286d8b58ae4d6adccaef1a7a6ff7f5a58f945305509f01604089fd3481fdac643eb572be0ba4f5a467c8ead1f56739d1a03847fbcafe1dc1bd33148e5953e38bf28a5212fcf63f32c58c3f637a50639420cbb9c7488d8394e73b811f1eed9387296771946b8e8b98ed5960ba1d8ebef15f3b319e3a8f5420afd34b2e090a53a29197bace6714cf4174395fca23c04f967843f4025d24130bada76affc866a0ccbd1a382c8f631e83378629ee3099be4b13b83d7e5f11ed5c106a32390f6140ea0399820ad2f1af4262e207a0794836e08b082fa0f253ad31a5b86717e0ee93705850622b89272bc754fd5266313d20472058013bbfd313c53504c15ec755413e128217157e12d5e8739242992f8577438f16136f57b468abbe644277e0a92b685d448e8cbc9cf186e9559ff8c11ca11496428450bff3c333b76052b5fc4cc831381326d7d6fa2199d450d369a6a61f0580824699e35b30fce84241c15e7fd8459025655d607cd75c047c4c0d71ff38c1bd48ec94bbf045060770f723c8349e78e88ef90942bc7614df237c778c8738955f3ea937e65203f024940283c49cd4bb2ff10eab31ea74ddb39fd3d7e46ea5367afd81e26774101dd5ab0893c1a23821fe81a6bb49ad2a19df433b48ed57945f86b70c32edefbbdd39e65cd55e34af897ffa07838531ae31cd21a1b89643218f6691ec911aa0e43a1318107f5190e53ff4817eb443eaa025ce40f0726a1bbeb9d6fd57796b3bcc0d6016ac7a448e929e5dbd3a0428a558d0c79894596df195d0d8ec33fbe7146c1db1f2f4d138f3a07e9837414b5cc87ca1404a47855464c5e148d2e16a48194cd1e0795c427bb55d4c3c33ae27202342db2a102e84bcfa2bc8821ef6fc5b96ce14b95414f7d397cd76b7bcca4e9df274e3d0b15359d01f9868d4aaac04a20bc79807bab778ed573dd73a245cf67aadd20e33b3c8bb41a27f07228003f43fe4249188cbc832829a1a1020a9df95182b83f8cbe34ed9c2bc2a8a0f8b50b406cd986fd121cf1ec995538693b3fedcaa038133102eb8b5488a73e9778af797cbd93b9a6a6cb2b74050996bd729d6725d741d37f82fb2f7d7dbeef090454ec360af7ff0cfe6bcfdacfc7819ab4e1763715b11fd6e842e872f025f0dd7b84d125d89c6b491e71c70bd7b2879b98f6106d2d5fb694367b191e988c3bedbdda3f7d15d6df8dce7c06816f5f9c732148ceecbd9e7d86b0115eac701d655fbcd053aab091c129526c31d9d269e7d88bd51d34dc5c4203cf7f2b0a0b8a7174c1ae85480389790a97dcaceae9910afa59453426c12439937750ebabed61a882b3fe658e824c33e91dd133ef1414a908cc5d2efd1f5ad43b36b7e276d0b2fe11a5a28e39ec6be03d7f14408f647c5921e65d99d4106bad6b142ec9cec98c5bc0e3c056c8baab121d1a63a7894bc86a721c0aae1fb56cad81200c8c8b0a2ab64917d420a9f3b672fe1c9509ac616d08e0392a27497cab7531b038fb9f27c6fc02f66e969881d54f8a086d6d35d026b275eeedaf1f17d1fd62a0af940f22a39c4061af99d466d09fac5ad3eaba110375b350267cc0d4643f81d50aabdccf2ec1cc9c6b05464dad06cb32a32fcfd975ea020f332b151442b7e23111f05d2dfeda99dbdfc9b4e54043ece82e497510a9a07cf2b51e3cc918223e8dd66059f20b7c9b8702c3ce3b4942915ec73d12820"
      ],
      "sequence": 4294967294
    }
  ],
  "vout": [
    {
      "value": 1.0,
      "n": 0,
      "scriptPubKey": {
        "asm": "OP_RETURN 459916b6fa2179960fcc8ffd86a00c1ee489dc06d5b0b8316b0c1938784e76ee a854238bb0df4c89865ee884fb32e98f7879e6999812e7c397d6c38e96bbbf86887403ab90ff6ca9a67ec8a4db12c9af5859c6b9b832c7e3b7f6e3aeb69b9fa6e81463cbf09f0cc9c61ea8c4bb72a9cf3839a6d9d852a783d79683ced6fbffc6c83443ebd0bf2ce9e63e88e49b5289ef181986f9f87287a3f7b6a3eef6dbdfe628d4a30b305fcc0906de68047bb2690ff8f96619189267431756430e163b3f0608f4832b107fec2926fe48245b92492fd8d9463938b247633776632e361b1f266894e34b701f8c49469e28443bf2294fb8b9265958d227035716034e567b7f4648b4c36b503fac6966be08641bd2096f9899067978f207237736236e765b5f66a854238bb0df4c89865ee884fb32e98f7879e6999812e7c397d6c38e96bbbf86887403ab90ff6ca9a67ec8a4db12c9af5859c6b9b832c7e3b7f6e3aeb69b9fa6e81463cbf09f0cc9c61ea8c4bb72a9cf3839a6d9d852a783d79683ced6fbffc6c83443ebd0bf2ce9e63e88e49b5289ef181986f9f87287a3f7b6a3eef6dbdfe628d4a30b305fcc0906de68047bb2690ff8f96619189267431756430e163b3f0608f4832b107fec2926fe48245b92492fd8d9463938b247633776632e361b1f266894e34b701f8c49469e28443bf2294fb8b9265958d227035716034e567b7f4648b4c36b503fac6966be08641bd2096f9899067978f207237736236e765b5f66a854238bb0df4c89865ee884fb32e98f7879e6999812e7c397d6c38e96bbbf86887403ab90ff6ca9a67ec8a4db12c9af5859c6b9b832c7e3b7f6e3aeb69b9fa6e81463cbf09f0cc9c61ea8c4bb72a9cf3839a6d9d852a783d79683ced6fbffc6c83443ebd0bf2ce9e63e88e49b5289ef181986f9f87287a3f7b6a3eef6dbdfe628d4a30b305fcc0906de68047bb2690ff8f96619189267431756430e163b3f0608f4832b107fec2926fe48245b92492fd8d9463938b247633776632e361b1f266894e34b701f8c49469e28443bf2294fb8b9265958d227035716034e567b7f4648b4c36b503fac6966be08641bd2096f9899067978f207237736236e765b5f66a854238bb0df4c89865ee884fb32e98f7879e6999812e7c397d6c38e96bbbf86887403ab90ff6ca9a67ec8a4db12c9af5859c6b9b832c7e3b7f6e3aeb69b9fa6e81463cbf09f0cc9c61ea8c4bb72a9cf3839a6d9d852a783d79683ced6fbffc6c83443ebd0bf2ce9e63e88e49b5289ef181986f9f87287a3f7b6a3eef6dbdfe628d4a30b305fcc0906de68047bb2690ff8f96619189267431756430e163b3f0608f4832b107fec2926fe48245b92492fd8d9463938b247633776632e361b1f266894e34b701f8c49469e28443bf2294fb8b9265958d227035716034e567b7f4648b4c36b503fac6966be08641bd2096f9899067978f207237736236e765b5f66a854238bb0df4c89865ee884fb32e98f7879e6999812e7c397d6c38e96bbbf86887403ab90ff6ca9a67ec8a4db12c9af5859c6b9b832c7e3b7f6e3aeb69b9fa6e81463cbf09f0cc9c61ea8c4bb72a9cf3839a6d9d852a783d79683ced6fbffc6c83443ebd0bf2ce9e63e88e49b5289ef181986f9f87287a3f7b6a3eef6dbdfe628d4a30b305fcc0906de68047bb2690fb8ed13588180d251338be747a425f5f2a98416f42d8a15729e25e7bfa95e5026",
        "hex": "6a20459916b6fa2179960fcc8ffd86a00c1ee489dc06d5b0b8316b0c1938784e76ee4db004a854238bb0df4c89865ee884fb32e98f7879e6999812e7c397d6c38e96bbbf86887403ab90ff6ca9a67ec8a4db12c9af5859c6b9b832c7e3b7f6e3aeb69b9fa6e81463cbf09f0cc9c61ea8c4bb72a9cf3839a6d9d852a783d79683ced6fbffc6c83443ebd0bf2ce9e63e88e49b5289ef181986f9f87287a3f7b6a3eef6dbdfe628d4a30b305fcc0906de68047bb2690ff8f96619189267431756430e163b3f0608f4832b107fec2926fe48245b92492fd8d9463938b247633776632e361b1f266894e34b701f8c49469e28443bf2294fb8b9265958d227035716034e567b7f4648b4c36b503fac6966be08641bd2096f9899067978f207237736236e765b5f66a854238bb0df4c89865ee884fb32e98f7879e6999812e7c397d6c38e96bbbf86887403ab90ff6ca9a67ec8a4db12c9af5859c6b9b832c7e3b7f6e3aeb69b9fa6e81463cbf09f0cc9c61ea8c4bb72a9cf3839a6d9d852a783d79683ced6fbffc6c83443ebd0bf2ce9e63e88e49b5289ef181986f9f87287a3f7b6a3eef6dbdfe628d4a30b305fcc0906de68047bb2690ff8f96619189267431756430e163b3f0608f4832b107fec2926fe48245b92492fd8d9463938b247633776632e361b1f266894e34b701f8c49469e28443bf2294fb8b9265958d227035716034e567b7f4648b4c36b503fac6966be08641bd2096f9899067978f207237736236e765b5f66a854238bb0df4c89865ee884fb32e98f7879e6999812e7c397d6c38e96bbbf86887403ab90ff6ca9a67ec8a4db12c9af5859c6b9b832c7e3b7f6e3aeb69b9fa6e81463cbf09f0cc9c61ea8c4bb72a9cf3839a6d9d852a783d79683ced6fbffc6c83443ebd0bf2ce9e63e88e49b5289ef181986f9f87287a3f7b6a3eef6dbdfe628d4a30b305fcc0906de68047bb2690ff8f96619189267431756430e163b3f0608f4832b107fec2926fe48245b92492fd8d9463938b247633776632e361b1f266894e34b701f8c49469e28443bf2294fb8b9265958d227035716034e567b7f4648b4c36b503fac6966be08641bd2096f9899067978f207237736236e765b5f66a854238bb0df4c89865ee884fb32e98f7879e6999812e7c397d6c38e96bbbf86887403ab90ff6ca9a67ec8a4db12c9af5859c6b9b832c7e3b7f6e3aeb69b9fa6e81463cbf09f0cc9c61ea8c4bb72a9cf3839a6d9d852a783d79683ced6fbffc6c83443ebd0bf2ce9e63e88e49b5289ef181986f9f87287a3f7b6a3eef6dbdfe628d4a30b305fcc0906de68047bb2690ff8f96619189267431756430e163b3f0608f4832b107fec2926fe48245b92492fd8d9463938b247633776632e361b1f266894e34b701f8c49469e28443bf2294fb8b9265958d227035716034e567b7f4648b4c36b503fac6966be08641bd2096f9899067978f207237736236e765b5f66a854238bb0df4c89865ee884fb32e98f7879e6999812e7c397d6c38e96bbbf86887403ab90ff6ca9a67ec8a4db12c9af5859c6b9b832c7e3b7f6e3aeb69b9fa6e81463cbf09f0cc9c61ea8c4bb72a9cf3839a6d9d852a783d79683ced6fbffc6c83443ebd0bf2ce9e63e88e49b5289ef181986f9f87287a3f7b6a3eef6dbdfe628d4a30b305fcc0906de68047bb2690fb8ed13588180d251338be747a425f5f2a98416f42d8a15729e25e7bfa95e5026",
        "type": "nulldata"
      }
    },
    {
      "value": 499988.8141,
      "n": 1,
      "scriptPubKey": {
        "asm": "1 38084fb02b33408e93944f423fb6f3123c1494de59d0550ec8b566499d98ead8",
        "hex": "512038084fb02b33408e93944f423fb6f3123c1494de59d0550ec8b566499d98ead8",
        "reqSigs": 1,
        "type": "witness_v1_scripthash",
        "addresses": [
          "3QJmnh"
        ]
      }
    }
  ],
  "blockhash": "9418e69333e129952491dcd6dc324ee50ca4a2e07f0678970cb85d951484494a",
  "confirmations": 1,
  "time": 1764177673,
  "blocktime": 1764177673
}