{
  "hex": "01000000000101e58f2fe1eda057e9dc414a012c8afc8e39610849dea4777bdce610620df5d8660000000000feffffff0250771315792d0000225120328487e1996bd8ca5207f51370096b70f158d765cb7a650ee11833469e6d5c4400e1f50500000000fdd5046a208b0a27db6cb2f785502ac66a8d5f887aa03433ff98fcba2b8c64b5d34f38e23a4db0047fa61e2238e3ab429f8802a099980f57a87f88e3a0f2d63531ced2f9b72c3cbf5f863e0218c38b62bfa82280b9b82f77885fa8c380d2f61511eef2d9970c1c9f3fe65e6278a3eb02dfc842e0d9d84f17e83fc8a3e0b29675718e92b9f76c7cff1fc67e425883cb22ffe862c0f9f86f37c81fe883c092b65551aeb299d74c5cdfff269ea2b8632bc21f08822019188fd728ff0863207256b5b14e527937acbc3fdf06be8298430be23f28a2003938aff708df284300527695916e7259178c9c1fbf66dee2f8236b825f48c2605958cf9768bf4823603216f5f10e123977ecfc7f9f46fec2d8034ba27f68e2407978efb7489f6803401236d5d12e321957ccdc5f7fa61e2238e3ab429f8802a099980f57a87f88e3a0f2d63531ced2f9b72c3cbf5f863e0218c38b62bfa82280b9b82f77885fa8c380d2f61511eef2d9970c1c9f3fe65e6278a3eb02dfc842e0d9d84f17e83fc8a3e0b29675718e92b9f76c7cff1fc67e425883cb22ffe862c0f9f86f37c81fe883c092b65551aeb299d74c5cdfff269ea2b8632bc21f08822019188fd728ff0863207256b5b14e527937acbc3fdf06be8298430be23f28a2003938aff708df284300527695916e7259178c9c1fbf66dee2f8236b825f48c2605958cf9768bf4823603216f5f10e123977ecfc7f9f46fec2d8034ba27f68e2407978efb7489f6803401236d5d12e321957ccdc5f7fa61e2238e3ab429f8802a099980f57a87f88e3a0f2d63531ced2f9b72c3cbf5f863e0218c38b62bfa82280b9b82f77885fa8c380d2f61511eef2d9970c1c9f3fe65e6278a3eb02dfc842e0d9d84f17e83fc8a3e0b29675718e92b9f76c7cff1fc67e425883cb22ffe862c0f9f86f37c81fe883c092b65551aeb299d74c5cdfff269ea2b8632bc21f08822019188fd728ff0863207256b5b14e527937acbc3fdf06be8298430be23f28a2003938aff708df284300527695916e7259178c9c1fbf66dee2f8236b825f48c2605958cf9768bf4823603216f5f10e123977ecfc7f9f46fec2d8034ba27f68e2407978efb7489f6803401236d5d12e321957ccdc5f7fa61e2238e3ab429f8802a099980f57a87f88e3a0f2d63531ced2f9b72c3cbf5f863e0218c38b62bfa82280b9b82f77885fa8c380d2f61511eef2d9970c1c9f3fe65e6278a3eb02dfc842e0d9d84f17e83fc8a3e0b29675718e92b9f76c7cff1fc67e425883cb22ffe862c0f9f86f37c81fe883c092b65551aeb299d74c5cdfff269ea2b8632bc21f08822019188fd728ff0863207256b5b14e527937acbc3fdf06be8298430be23f28a2003938aff708df284300527695916e7259178c9c1fbf66dee2f8236b825f48c2605958cf9768bf4823603216f5f10e123977ecfc7f9f46fec2d8034ba27f68e2407978efb7489f6803401236d5d12e321957ccdc5f7fa61e2238e3ab429f8802a099980f57a87f88e3a0f2d63531ced2f9b72c3cbf5f863e0218c38b62bfa82280b9b82f77885fa8c380d2f61511eef2d9970c1c9f3fe65e6278a3eb02dfc842e0d9d84f17e83fc8a3e0b29675718e92b9f76c7cff1fc67e425883cb22ffe862c0f9f86f37c81fe883c092b65551aeb299d74c5cdfff269ea2b8632bc21f08822019188fd7dad6124a5627f42cc8f3243ffa74339930d3d802fe06b682ff6d6ebb942d3b1402fd7509e3ebcf7c5cb5c390f458ca90a664fd0f4a95774e02519cffc027ca0e86cfc6313d16a1ab21a70fb5a05f37bddae84e9d05e62d91f7964e34475f9267f1d22a5832dc23ef5938b7631e75d71bab8a11a167beba4f0784ff319afc59d700881371906914698f167185ba42a4d2330b340b8a37951856cdfc84806011eff6bcb5b035e67068ee751bd28a8e5e050af4578fc74b1941bad768a7074d7a242179f874638e7f98919e65bf986c0cdad31413c32139f0081b8f9400956f2ca4cbc03cba1965d8f520e5598007fdbe32fbf201cfab8eafd89d7a1b024b712201ba960d41a1d247b12fc92288ffffddccdc8ba0cac1c11b17108b57f530f9ecbe3ee2e44ff5dbe8ea13ecf28a2a724779578237766f8053b520b1cc0fdc15a97c3542c19ab704c6bd40008c6d90d42f3b2ccc4b9da341a58acf11bc98f31ee4ca3dd663c07101301a54ea7fc913b8175715626fd0143e6cdcf2bddaae56c88d26d545bde8dc26dc2bac22f6b63ce0fe6bb315470c61060b7649e8bf2b5c0cb0855025d32596c35af08ce00a7809adc61b35bbfd26eb565337f4984cc9e4ddc7688b7c412f4488fd9cb50f6ae6aa0a3bb0dbfe7f536e3a828b2dc40a7be7d1305bce1daeddb8e15f3e5456926e11bba53be6e5244e9869cb8b89a449ded740de50c381698c3529c0f05fca4c2be5b8f14f087d918b3e1fa033eb0fbe03eb48baae48d42efe55de3ee893a71ef6be68717fd023b6a13acbfe7acea96bfa4013dbb12b36fd1d824d2b310da6a2bdcc04ccfd5a93ee52118aa5143dedba44cfd5317ba801e5c694ecfd794db194c7bf90641e5bf11126f3e7f56046578da648821be85ddc46ff30843cb2e5d6be83dbbd1ed9141a883039384d613447553e200195ef57bfb9c9f7497ba33915a5ab9b8e231beb989170ed9a2a1a4a7b8122d8b6fae198bd5b4769380134fedb31aea584f3c5f8cc421302e8e9b412369f0ce08e971b86511fe2abff44a7067873d019918b83d5a6e055326a7dc8844359787d0a18877fd91bd73cec10be4712d5993f9e3723105868660e924398527c3caa60fd5f3e983ac7d3852e6b15a4f9797ebdc55a6dc1dcbc8b5a70b4c14d73e71bf5728125825999303646f7cfd76477d5ef6f0c0e6e0905f7cc29e04e6a66175630ce8d12631d9037d714c3a8dcae7883eddb50d861f0b2396a4d44d372c153327cca4e2b3ba656db61db75c9e546f954cec56408ec245945c27a10d44934ad4a298efe91705991a2669513fb90ba337312818846fafe5e529e47849adfccd61ed1a86e2cd32846268e246c83ee5328ed3c6b20f748d526a79f9ec0fbabc70370b53f0dfcb97dd1ceb55faa2cf4b82aed8130f9087f2af883ef828d8be29c848e459589b5f78fd0a8d330e9691626b1840e7b19f6c62a3e326559fbce5ef3d38b6f4f64c4f462e323592dea70ebfc348a4ecdc791eb3438afc3a9f3ff9e44e31dcbcf5726321885190a7576dea51e1eca23c2f24519d708574a78f5d4c4fda118ae710b0d94503120c6f2880e83ef0374a6db92b7beef083798305c044eb52213d8e920514c9d8835b6f375fd50137f409fe216f4a557c75db012a19a7b5133bd149d5ed00a6a938ad172141d38f9a2c5e8856f492fc954e303e7ae5f38f842e772c3adb54b03e2639b0bbfe4a82fd31d26436a4f5c74b15f3069d95a4baab5681469257aa2269d4d8a17b130073f9d0063a843bcfbd653f6f6a14420537eca06624e9418724884f5a1eea777c1e0551509692df7aa0f927524c1ff7affde2e379f1a4eff211417bddb19f9fc8fdb245463e6c7e6f2ea5f278aa03512d0dd3b174c99b43dd32cdb8e33420a362ebf3bb372fc50ad656c5fb6770857ef8b8d55f230e90c7544b3852e302834522500649944dd8bb87addef036ea0ce2316ff3356988a7d94b314cbfc1aaa33193d33f0917d16328b2de11967228e26f64fcdc9c60cf0fad4cc0c3402f0cd9a8ebc1bb0162797a8dca35bf48b96fbadca0d5aedd0a408aa9b271775a4a41c7c6e67d05dbdd8285ffe7aaafa9fb46c03efdaa61d664649f2e8d33bf8e7372ace63aaf34b51976a9ba32f1c0c39c5ab6b1a1e7418292435a5f70843d4ea0f5ea25f1d96ea0f6264339642bc3e802cfbeefafc846a63280b103bd5787ac6373bdcc958200b91cab033214638a49745677ab04fbff1c3f716c5b54d174ebd72dea1cf9798f21f3a542e350e001ec9c060c1daf5833cf4b63b953f7f00ecba1fc0a4f5bef2bbbe33eb671ad900cec2c509b595d610df1cb0b60b56a0d736ab5eb352945d366b28b714a9d4ef170a977106897a3f572f06575e9763ed4370e68d0bac22c3c855c577875d226c105e47cca8db5fee8b931569f5aca5efade2b0dba09d3790b42174d37f383416289e6d4a4caa1e31b4d317c7d33dc5c2aa29d091cbab4c509a21545ac0bcb046ea2dda85200bab2267bb2bc89ed483844e54f744a3adee6dabc909d4646b728f2b60122767f724966b875478af8b674bf214df3f08a174b2171697dbe61598a39b1b615a25d77d8a31af19d0fc7763b9f9af7e55dbaa25b765f388b880722055d483ba2376746ff3d97dd23a2324709624d25698c2167ce23a146286e019d1596a99564bef71ec7e32b631b9212daf1c7fb4e612a5d3d7952c20f76c546c8bd2b93d6f6a74cfa12036b9ef09844d7389ce05ba5bff7b0a4fbdbd930b81a4775e296b7c0ecb81dc5c4cbf318d53d74fc31f6d36d0e5293c884c42a5f09a1c80cd61645c2a39aad8d614ee31c5534e58f157f4e250f8d8710c27b777c0d9c8b2c991fe553c7771dba291642ca7aa3e45fe2ce26968884652c69ba4a5779b7dc4436155bdee0c4646ef3e032d1985964b7d4a4e6a440ebda795dd045926cca9371c0d6374cae56cfea2e372d475fe782035104da60a30be4a5b197f13688299287283210042ea957a36bc325ace3e48a8a86199528dfc499d7b6c1403d2634f0e6af12defe389420388ebca3d13fd2c9dc395e8c8eaa025903c61fbc6c7d4b4b73419be5f610681da2c5da662378fe28d8249ed7b81d0ac0038bb443c9459c34566ed648a9cc957a84b20f29121581162919106272e97eeb58610f02f98e7f5425f2464cd88dadd75cabf77369f44064eabfe800188d178002939840327af737a37f77c318465411a5e87741934a390238c517589012991471d57f0557bfbf743de20736f7c5ec6a054ffd209e968c2e38d447455c9ce23fbc979812e759c53e45f0dd2db89492fe15e63a7ebabb92627285872f10f2123282f3642494d5c7081969ea1a4cedbe1e2f8ff1d2130474c6c747fb0b1c4cdcecfe51337567d7e8ca3a9b4c6dfec4c5167697e94a4a8b7bcc1c9d5dde0ed0000000000000000000000000000001625314101fd210500cf28e6c6d0d177cd2d107e3150351b0623341f45d26424d3684836254af191c67f6c548b6992d1b4fc600df42e510110c8609312db639e52588d5df06b9451471ed9829dd5eb86757ab4d1b3bc1a3b5f9248a7fd74044160b05601195259aef9f28e6c71822c6ec16282ee289c9a75b202c747197f8633a9b241d2960c2a978a334813f46203444a76a73f1c1cfa5b95e12bb82fcc3d51afb2dcf23b02c9e8465b015de1cfa81227cead749e5cb0cc4e58438f8acd849f8c9edcfeb077e89e3f284eccd5b441d51d50114f12bf06fd2bc9b5aea7adfca8da07398cea0f4b958399a70d4fa8b88c4bfa8e19192108151f8b7a4307d6ecd79af8302ebdebc8e2484beb1beebedcc3287fbaac110c23f004c4f85d345f68cc041d887babfc048bf36c68596da9555d16ff6240f1cfa03c42007b5ece771b59a78fbae12f2f7fe633a39e6cc286bd69a591c803b86aeac1615fad05a712fadaccaa97e07e8f3474232de0d5a2164e32bc7bb602b6b0734f992d4b7f90f2ee9741cf3d946dbdfa96885052b23dec119fff6d346b7be37f249df335a9921c277728e4e771d585957a7d6fd536ed42e02ea51be238dc35de35553bed2f0621ae5a90e9bf6e47f69f026fa1de5393c9e03a2edc4f4ee06dfd2fac54ee6782d946c123d96a4cb292605c801c9d2c21907a6eea67fd8e6c388ae4a323ff62874e265f45f22923831881a2bf19b1590311ceb3b172e9642c037c8c8cb120ea14d5b4eb59e545ec9ebaafba5e701d83bf2997ae97bc7d88c43c8bfa1685c4dee171abd4c816e6fcc470563212d18d203f158f41aca51562db5f591540ff2128ecbf94b693f96717abda7d17ee8254bd151cad02c3e6c110c98ce97405287323be60eb34b681cb9545dda9053ac343fdb5b9d8506e9455eed72a95cd80e53d62d3de834ee9827903465df26644931bfe14bb68227f7fffabe155d143eb9e37218a9463bc6ad541d02498ef4902b53c203c796b042ff2bf7a43dacfed9d3ca5fe0f92a7f0a8045a5e5f14625d8ae2cac2f162e91235989bcdfeb14f4d86bf1e6b27c98b82b1a2bd5d4e68673ed97f6cc483d988aaa626d001011a5743ea240ba5ff7364f5b280c8a26012237878b7244a35726b7344872ec23d62afbae034d6e2122b274411d901b7d2f11311c8cdc467c318790e574adfacd1520bd7ea21d54f24d819a22258cc8afef369ce1d0a9ff700f6f7131e6a5ac34a250c196ac1f2f79b664c98bf15d3b0d1e34147d40ae9c0a2c796d48b210749702ca4257b42d15f1dc732a16ec60c02a76464ab548569feea64f3160bb102aa932eb29c90550bb4c18ac38f93a030e35b99aba3c3b9e207c9a9eba7cded373d4c9db33d1727f37f1e808b981e904e3dac511366f9416267ec698f0c0e18440e462fb791b9c8beef2f78c59cbc7919411510515d90a9103ef8bf4e54d3de2787e6bde5b181686554a37c11ec7b4835ea8d6c4e548d369988d02f1e939912b1d14bbff0aea98e1c061132f8972135022857a40be5f91935d8b0e647f4c4103ac93e75627829866f794f237b449d4806f117cbe1e5e05558c466524693c7d87ebe9f707612f6032d511455932ee8ec5f396fa2b2680f917fe924f1a64beda3163c31f3077a917c1e1acf3f904eb0bc4d3097ae31a0bf268fbddebed1ca260f5df08fbd80860de4fcf77a4cf091d4795d07af6d0bd88b58ac6e1241319cd347dbf870e8e2b77d2bc502c6509dc596af6136057b255193dd00c31229e94e261923bf745fabc21c58cc8daf0e0f8513dbbd09bb03e60af0e94fb617fbaa5c812d9ffa72137f557398dad15609809badcf983f5c479a4e0380000000",
  "txid": "0bcffabb49d4a0163cbcac4b8fbda0a8021fefb3198f06ac70d3058e3dff4424",
  "hash": "78b83aa89077ff04aeac7902999ffdcdb00a4d1cea4446cc255d9049ff4c0632",
  "size": 5085,
  "vsize": 2278,
  "version": 1,
  "locktime": 128,
  "vin": [
    {
      "txid": "66d8f50d6210e6dc7b77a4de490861398efc8a2c014a41dce957a0ede12f8fe5",
      "vout": 0,
      "scriptSig": {
        "asm": "",
        "hex": ""
      },
      "txinwitness": [
        "e3ebcf7c5cb5c390f458ca90a664fd0f4a95774e02519cffc027ca0e86cfc6313d16a1ab21a70fb5a05f37bddae84e9d05e62d91f7964e34475f9267f1d22a5832dc23ef5938b7631e75d71bab8a11a167beba4f0784ff319afc59d700881371906914698f167185ba42a4d2330b340b8a37951856cdfc84806011eff6bcb5b035e67068ee751bd28a8e5e050af4578fc74b1941bad768a7074d7a242179f874638e7f98919e65bf986c0cdad31413c32139f0081b8f9400956f2ca4cbc03cba1965d8f520e5598007fdbe32fbf201cfab8eafd89d7a1b024b712201ba960d41a1d247b12fc92288ffffddccdc8ba0cac1c11b17108b57f530f9ecbe3ee2e44ff5dbe8ea13ecf28a2a724779578237766f8053b520b1cc0fdc15a97c3542c19ab704c6bd40008c6d90d42f3b2ccc4b9da341a58acf11bc98f31ee4ca3dd663c07101301a54ea7fc913b8175715626fd0143e6cdcf2bddaae56c88d26d545bde8dc26dc2bac22f6b63ce0fe6bb315470c61060b7649e8bf2b5c0cb0855025d32596c35af08ce00a7809adc61b35bbfd26eb565337f4984cc9e4ddc7688b7c412f4488fd9cb50f6ae6aa0a3bb0dbfe7f536e3a828b2dc40a7be7d1305bce1daeddb8e15f3e5456926e11bba53be6e5244e9869cb8b89a449ded740de50c381698c3529c0f05fca4c2be5b8f14f087d918b3e1fa033eb0fbe03eb48baae48d42efe55de3ee893a71ef6be68717fd023b6a13acbfe7acea96bfa4013dbb12b36fd1d824d2b310da6a2bdcc04ccfd5a93ee52118aa5143dedba44cfd5317ba801e5c694ecfd794db194c7bf90641e5bf11126f3e7f56046578da648821be85ddc46ff30843cb2e5d6be83dbbd1ed9141a883039384d613447553e200195ef57bfb9c9f7497ba33915a5ab9b8e231beb989170ed9a2a1a4a7b8122d8b6fae198bd5b4769380134fedb31aea584f3c5f8cc421302e8e9b412369f0ce08e971b86511fe2abff44a7067873d019918b83d5a6e055326a7dc8844359787d0a18877fd91bd73cec10be4712d5993f9e3723105868660e924398527c3caa60fd5f3e983ac7d3852e6b15a4f9797ebdc55a6dc1dcbc8b5a70b4c14d73e71bf5728125825999303646f7cfd76477d5ef6f0c0e6e0905f7cc29e04e6a66175630ce8d12631d9037d714c3a8dcae7883eddb50d861f0b2396a4d44d372c153327cca4e2b3ba656db61db75c9e546f954cec56408ec245945c27a10d44934ad4a298efe91705991a2669513fb90ba337312818846fafe5e529e47849adfccd61ed1a86e2cd32846268e246c83ee5328ed3c6b20f748d526a79f9ec0fbabc70370b53f0dfcb97dd1ceb55faa2cf4b82aed8130f9087f2af883ef828d8be29c848e459589b5f78fd0a8d330e9691626b1840e7b19f6c62a3e326559fbce5ef3d38b6f4f64c4f462e323592dea70ebfc348a4ecdc791eb3438afc3a9f3ff9e44e31dcbcf5726321885190a7576dea51e1eca23c2f24519d708574a78f5d4c4fda118ae710b0d94503120c6f2880e83ef0374a6db92b7beef083798305c044eb52213d8e920514c9d8835b6f375fd50137f409fe216f4a557c75db012a19a7b5133bd149d5ed00a6a938ad172141d38f9a2c5e8856f492fc954e303e7ae5f38f842e772c3adb54b03e2639b0bbfe4a82fd31d26436a4f5c74b15f3069d95a4baab5681469257aa2269d4d8a17b130073f9d0063a843bcfbd653f6f6a14420537eca06624e9418724884f5a1eea777c1e0551509692df7aa0f927524c1ff7affde2e379f1a4eff211417bddb19f9fc8fdb245463e6c7e6f2ea5f278aa03512d0dd3b174c99b43dd32cdb8e33420a362ebf3bb372fc50ad656c5fb6770857ef8b8d55f230e90c7544b3852e302834522500649944dd8bb87addef036ea0ce2316ff3356988a7d94b314cbfc1aaa33193d33f0917d16328b2de11967228e26f64fcdc9c60cf0fad4cc0c3402f0cd9a8ebc1bb0162797a8dca35bf48b96fbadca0d5aedd0a408aa9b271775a4a41c7c6e67d05dbdd8285ffe7aaafa9fb46c03efdaa61d664649f2e8d33bf8e7372ace63aaf34b51976a9ba32f1c0c39c5ab6b1a1e7418292435a5f70843d4ea0f5ea25f1d96ea0f6264339642bc3e802cfbeefafc846a63280b103bd5787ac6373bdcc958200b91cab033214638a49745677ab04fbff1c3f716c5b54d174ebd72dea1cf9798f21f3a542e350e001ec9c060c1daf5833cf4b63b953f7f00ecba1fc0a4f5bef2bbbe33eb671ad900cec2c509b595d610df1cb0b60b56a0d736ab5eb352945d366b28b714a9d4ef170a977106897a3f572f06575e9763ed4370e68d0bac22c3c855c577875d226c105e47cca8db5fee8b931569f5aca5efade2b0dba09d3790b42174d37f383416289e6d4a4caa1e31b4d317c7d33dc5c2aa29d091cbab4c509a21545ac0bcb046ea2dda85200bab2267bb2bc89ed483844e54f744a3adee6dabc909d4646b728f2b60122767f724966b875478af8b674bf214df3f08a174b2171697dbe61598a39b1b615a25d77d8a31af19d0fc7763b9f9af7e55dbaa25b765f388b880722055d483ba2376746ff3d97dd23a2324709624d25698c2167ce23a146286e019d1596a99564bef71ec7e32b631b9212daf1c7fb4e612a5d3d7952c20f76c546c8bd2b93d6f6a74cfa12036b9ef09844d7389ce05ba5bff7b0a4fbdbd930b81a4775e296b7c0ecb81dc5c4cbf318d53d74fc31f6d36d0e5293c884c42a5f09a1c80cd61645c2a39aad8d614ee31c5534e58f157f4e250f8d8710c27b777c0d9c8b2c991fe553c7771dba291642ca7aa3e45fe2ce26968884652c69ba4a5779b7dc4436155bdee0c4646ef3e032d1985964b7d4a4e6a440ebda795dd045926cca9371c0d6374cae56cfea2e372d475fe782035104da60a30be4a5b197f13688299287283210042ea957a36bc325ace3e48a8a86199528dfc499d7b6c1403d2634f0e6af12defe389420388ebca3d13fd2c9dc395e8c8eaa025903c61fbc6c7d4b4b73419be5f610681da2c5da662378fe28d8249ed7b81d0ac0038bb443c9459c34566ed648a9cc957a84b20f29121581162919106272e97eeb58610f02f98e7f5425f2464cd88dadd75cabf77369f44064eabfe800188d178002939840327af737a37f77c318465411a5e87741934a390238c517589012991471d57f0557bfbf743de20736f7c5ec6a054ffd209e968c2e38d447455c9ce23fbc979812e759c53e45f0dd2db89492fe15e63a7ebabb92627285872f10f2123282f3642494d5c7081969ea1a4cedbe1e2f8ff1d2130474c6c747fb0b1c4cdcecfe51337567d7e8ca3a9b4c6dfec4c5167697e94a4a8b7bcc1c9d5dde0ed0000000000000000000000000000001625314101",
        "00cf28e6c6d0d177cd2d107e3150351b0623341f45d26424d3684836254af191c67f6c548b6992d1b4fc600df42e510110c8609312db639e52588d5df06b9451471ed9829dd5eb86757ab4d1b3bc1a3b5f9248a7fd74044160b05601195259aef9f28e6c71822c6ec16282ee289c9a75b202c747197f8633a9b241d2960c2a978a334813f46203444a76a73f1c1cfa5b95e12bb82fcc3d51afb2dcf23b02c9e8465b015de1cfa81227cead749e5cb0cc4e58438f8acd849f8c9edcfeb077e89e3f284eccd5b441d51d50114f12bf06fd2bc9b5aea7adfca8da07398cea0f4b958399a70d4fa8b88c4bfa8e19192108151f8b7a4307d6ecd79af8302ebdebc8e2484beb1beebedcc3287fbaac110c23f004c4f85d345f68cc041d887babfc048bf36c68596da9555d16ff6240f1cfa03c42007b5ece771b59a78fbae12f2f7fe633a39e6cc286bd69a591c803b86aeac1615fad05a712fadaccaa97e07e8f3474232de0d5a2164e32bc7bb602b6b0734f992d4b7f90f2ee9741cf3d946dbdfa96885052b23dec119fff6d346b7be37f249df335a9921c277728e4e771d585957a7d6fd536ed42e02ea51be238dc35de35553bed2f0621ae5a90e9bf6e47f69f026fa1de5393c9e03a2edc4f4ee06dfd2fac54ee6782d946c123d96a4cb292605c801c9d2c21907a6eea67fd8e6c388ae4a323ff62874e265f45f22923831881a2bf19b1590311ceb3b172e9642c037c8c8cb120ea14d5b4eb59e545ec9ebaafba5e701d83bf2997ae97bc7d88c43c8bfa1685c4dee171abd4c816e6fcc470563212d18d203f158f41aca51562db5f591540ff2128ecbf94b693f96717abda7d17ee8254bd151cad02c3e6c110c98ce97405287323be60eb34b681cb9545dda9053ac343fdb5b9d8506e9455eed72a95cd80e53d62d3de834ee9827903465df26644931bfe14bb68227f7fffabe155d143eb9e37218a9463bc6ad541d02498ef4902b53c203c796b042ff2bf7a43dacfed9d3ca5fe0f92a7f0a8045a5e5f14625d8ae2cac2f162e91235989bcdfeb14f4d86bf1e6b27c98b82b1a2bd5d4e68673ed97f6cc483d988aaa626d001011a5743ea240ba5ff7364f5b280c8a26012237878b7244a35726b7344872ec23d62afbae034d6e2122b274411d901b7d2f11311c8cdc467c318790e574adfacd1520bd7ea21d54f24d819a22258cc8afef369ce1d0a9ff700f6f7131e6a5ac34a250c196ac1f2f79b664c98bf15d3b0d1e34147d40ae9c0a2c796d48b210749702ca4257b42d15f1dc732a16ec60c02a76464ab548569feea64f3160bb102aa932eb29c90550bb4c18ac38f93a030e35b99aba3c3b9e207c9a9eba7cded373d4c9db33d1727f37f1e808b981e904e3dac511366f9416267ec698f0c0e18440e462fb791b9c8beef2f78c59cbc7919411510515d90a9103ef8bf4e54d3de2787e6bde5b181686554a37c11ec7b4835ea8d6c4e548d369988d02f1e939912b1d14bbff0aea98e1c061132f8972135022857a40be5f91935d8b0e647f4c4103ac93e75627829866f794f237b449d4806f117cbe1e5e05558c466524693c7d87ebe9f707612f6032d511455932ee8ec5f396fa2b2680f917fe924f1a64beda3163c31f3077a917c1e1acf3f904eb0bc4d3097ae31a0bf268fbddebed1ca260f5df08fbd80860de4fcf77a4cf091d4795d07af6d0bd88b58ac6e1241319cd347dbf870e8e2b77d2bc502c6509dc596af6136057b255193dd00c31229e94e261923bf745fabc21c58cc8daf0e0f8513dbbd09bb03e60af0e94fb617fbaa5c812d9ffa72137f557398dad15609809badcf983f5c479a4e03"
      ],
      "sequence": 4294967294
    }
  ],
  "vout": [
    {
      "value": 499980.6789,
      "n": 0,
      "scriptPubKey": {
        "asm": "1 328487e1996bd8ca5207f51370096b70f158d765cb7a650ee11833469e6d5c44",
        "hex": "5120328487e1996bd8ca5207f51370096b70f158d765cb7a650ee11833469e6d5c44",
        "reqSigs": 1,
        "type": "witness_v1_scripthash",
        "addresses": [
          "3QJmnh"
        ]
      }
    },
    {
      "value": 1.0,
      "n": 1,
      "scriptPubKey": {
        "asm": "OP_RETURN 8b0a27db6cb2f785502ac66a8d5f887aa03433ff98fcba2b8c64b5d34f38e23a 7fa61e2238e3ab429f8802a099980f57a87f88e3a0f2d63531ced2f9b72c3cbf5f863e0218c38b62bfa82280b9b82f77885fa8c380d2f61511eef2d9970c1c9f3fe65e6278a3eb02dfc842e0d9d84f17e83fc8a3e0b29675718e92b9f76c7cff1fc67e425883cb22ffe862c0f9f86f37c81fe883c092b65551aeb299d74c5cdfff269ea2b8632bc21f08822019188fd728ff0863207256b5b14e527937acbc3fdf06be8298430be23f28a2003938aff708df284300527695916e7259178c9c1fbf66dee2f8236b825f48c2605958cf9768bf4823603216f5f10e123977ecfc7f9f46fec2d8034ba27f68e2407978efb7489f6803401236d5d12e321957ccdc5f7fa61e2238e3ab429f8802a099980f57a87f88e3a0f2d63531ced2f9b72c3cbf5f863e0218c38b62bfa82280b9b82f77885fa8c380d2f61511eef2d9970c1c9f3fe65e6278a3eb02dfc842e0d9d84f17e83fc8a3e0b29675718e92b9f76c7cff1fc67e425883cb22ffe862c0f9f86f37c81fe883c092b65551aeb299d74c5cdfff269ea2b8632bc21f08822019188fd728ff0863207256b5b14e527937acbc3fdf06be8298430be23f28a2003938aff708df284300527695916e7259178c9c1fbf66dee2f8236b825f48c2605958cf9768bf4823603216f5f10e123977ecfc7f9f46fec2d8034ba27f68e2407978efb7489f6803401236d5d12e321957ccdc5f7fa61e2238e3ab429f8802a099980f57a87f88e3a0f2d63531ced2f9b72c3cbf5f863e0218c38b62bfa82280b9b82f77885fa8c380d2f61511eef2d9970c1c9f3fe65e6278a3eb02dfc842e0d9d84f17e83fc8a3e0b29675718e92b9f76c7cff1fc67e425883cb22ffe862c0f9f86f37c81fe883c092b65551aeb299d74c5cdfff269ea2b8632bc21f08822019188fd728ff0863207256b5b14e527937acbc3fdf06be8298430be23f28a2003938aff708df284300527695916e7259178c9c1fbf66dee2f8236b825f48c2605958cf9768bf4823603216f5f10e123977ecfc7f9f46fec2d8034ba27f68e2407978efb7489f6803401236d5d12e321957ccdc5f7fa61e2238e3ab429f8802a099980f57a87f88e3a0f2d63531ced2f9b72c3cbf5f863e0218c38b62bfa82280b9b82f77885fa8c380d2f61511eef2d9970c1c9f3fe65e6278a3eb02dfc842e0d9d84f17e83fc8a3e0b29675718e92b9f76c7cff1fc67e425883cb22ffe862c0f9f86f37c81fe883c092b65551aeb299d74c5cdfff269ea2b8632bc21f08822019188fd728ff0863207256b5b14e527937acbc3fdf06be8298430be23f28a2003938aff708df284300527695916e7259178c9c1fbf66dee2f8236b825f48c2605958cf9768bf4823603216f5f10e123977ecfc7f9f46fec2d8034ba27f68e2407978efb7489f6803401236d5d12e321957ccdc5f7fa61e2238e3ab429f8802a099980f57a87f88e3a0f2d63531ced2f9b72c3cbf5f863e0218c38b62bfa82280b9b82f77885fa8c380d2f61511eef2d9970c1c9f3fe65e6278a3eb02dfc842e0d9d84f17e83fc8a3e0b29675718e92b9f76c7cff1fc67e425883cb22ffe862c0f9f86f37c81fe883c092b65551aeb299d74c5cdfff269ea2b8632bc21f08822019188fd7dad6124a5627f42cc8f3243ffa74339930d3d802fe06b682ff6d6ebb942d3b14",
        "hex": "6a208b0a27db6cb2f785502ac66a8d5f887aa03433ff98fcba2b8c64b5d34f38e23a4db0047fa61e2238e3ab429f8802a099980f57a87f88e3a0f2d63531ced2f9b72c3cbf5f863e0218c38b62bfa82280b9b82f77885fa8c380d2f61511eef2d9970c1c9f3fe65e6278a3eb02dfc842e0d9d84f17e83fc8a3e0b29675718e92b9f76c7cff1fc67e425883cb22ffe862c0f9f86f37c81fe883c092b65551aeb299d74c5cdfff269ea2b8632bc21f08822019188fd728ff0863207256b5b14e527937acbc3fdf06be8298430be23f28a2003938aff708df284300527695916e7259178c9c1fbf66dee2f8236b825f48c2605958cf9768bf4823603216f5f10e123977ecfc7f9f46fec2d8034ba27f68e2407978efb7489f6803401236d5d12e321957ccdc5f7fa61e2238e3ab429f8802a099980f57a87f88e3a0f2d63531ced2f9b72c3cbf5f863e0218c38b62bfa82280b9b82f77885fa8c380d2f61511eef2d9970c1c9f3fe65e6278a3eb02dfc842e0d9d84f17e83fc8a3e0b29675718e92b9f76c7cff1fc67e425883cb22ffe862c0f9f86f37c81fe883c092b65551aeb299d74c5cdfff269ea2b8632bc21f08822019188fd728ff0863207256b5b14e527937acbc3fdf06be8298430be23f28a2003938aff708df284300527695916e7259178c9c1fbf66dee2f8236b825f48c2605958cf9768bf4823603216f5f10e123977ecfc7f9f46fec2d8034ba27f68e2407978efb7489f6803401236d5d12e321957ccdc5f7fa61e2238e3ab429f8802a099980f57a87f88e3a0f2d63531ced2f9b72c3cbf5f863e0218c38b62bfa82280b9b82f77885fa8c380d2f61511eef2d9970c1c9f3fe65e6278a3eb02dfc842e0d9d84f17e83fc8a3e0b29675718e92b9f76c7cff1fc67e425883cb22ffe862c0f9f86f37c81fe883c092b65551aeb299d74c5cdfff269ea2b8632bc21f08822019188fd728ff0863207256b5b14e527937acbc3fdf06be8298430be23f28a2003938aff708df284300527695916e7259178c9c1fbf66dee2f8236b825f48c2605958cf9768bf4823603216f5f10e123977ecfc7f9f46fec2d8034ba27f68e2407978efb7489f6803401236d5d12e321957ccdc5f7fa61e2238e3ab429f8802a099980f57a87f88e3a0f2d63531ced2f9b72c3cbf5f863e0218c38b62bfa82280b9b82f77885fa8c380d2f61511eef2d9970c1c9f3fe65e6278a3eb02dfc842e0d9d84f17e83fc8a3e0b29675718e92b9f76c7cff1fc67e425883cb22ffe862c0f9f86f37c81fe883c092b65551aeb299d74c5cdfff269ea2b8632bc21f08822019188fd728ff0863207256b5b14e527937acbc3fdf06be8298430be23f28a2003938aff708df284300527695916e7259178c9c1fbf66dee2f8236b825f48c2605958cf9768bf4823603216f5f10e123977ecfc7f9f46fec2d8034ba27f68e2407978efb7489f6803401236d5d12e321957ccdc5f7fa61e2238e3ab429f8802a099980f57a87f88e3a0f2d63531ced2f9b72c3cbf5f863e0218c38b62bfa82280b9b82f77885fa8c380d2f61511eef2d9970c1c9f3fe65e6278a3eb02dfc842e0d9d84f17e83fc8a3e0b29675718e92b9f76c7cff1fc67e425883cb22ffe862c0f9f86f37c81fe883c092b65551aeb299d74c5cdfff269ea2b8632bc21f08822019188fd7dad6124a5627f42cc8f3243ffa74339930d3d802fe06b682ff6d6ebb942d3b14",
        "type": "nulldata"
      }
    }
  ],
  "blockhash": "f0ff1fbaae405cadeb51abb379c93a956cf666ff613992ee95c2f945c1780bd2",
  "confirmations": 1,
  "time": 1764181685,
  "blocktime": 1764181685
}