{
  "hex": "01000000000101529b23b0bb00b9b262fa21fbad4f46dd5e692f7040dc83a485a1dbe23bbcc1ee0100000000feffffff0200e1f50500000000fdd5046a2049b5cad7ad9bc54cd0f5c42ae6bb6192dbc4ee53b392f2122bb2f3092d7aa2e24db00435ba5eb2e9638f0e4f22acc08bffafe42e2c4152e09c14021b113e6ba28e56f8159a7e92c943af2e6f028ce0abdf8fc40e0c6172c0bc34223b311e4b82ae76d875fa1ef2a923cf4e0f62ec80cbbfefa46e6c0112a0dc54425b517e2be2ce16b855da3ed28903ef6e2f42cca0eb9fcf844e4c213280fc74627b715e0bc2ee3698b53ade3269e30f8ecfa22c400b7f2f64aeacc1d2601c94829b91beeb220ed678951afe1249c32faeef820c602b5f0f448e8ce1f2403cb4a2bbb19ecb022ef658f57a9e7229a34fce8fe26c004b3f6f24eeec8192205cd4c2dbd1feab624e9638d55abe5209836feeafc24c206b1f4f04cecca1b2007cf4e2fbf1de8b426eb61835ba5eb2e9638f0e4f22acc08bffafe42e2c4152e09c14021b113e6ba28e56f8159a7e92c943af2e6f028ce0abdf8fc40e0c6172c0bc34223b311e4b82ae76d875fa1ef2a923cf4e0f62ec80cbbfefa46e6c0112a0dc54425b517e2be2ce16b855da3ed28903ef6e2f42cca0eb9fcf844e4c213280fc74627b715e0bc2ee3698b53ade3269e30f8ecfa22c400b7f2f64aeacc1d2601c94829b91beeb220ed678951afe1249c32faeef820c602b5f0f448e8ce1f2403cb4a2bbb19ecb022ef658f57a9e7229a34fce8fe26c004b3f6f24eeec8192205cd4c2dbd1feab624e9638d55abe5209836feeafc24c206b1f4f04cecca1b2007cf4e2fbf1de8b426eb61835ba5eb2e9638f0e4f22acc08bffafe42e2c4152e09c14021b113e6ba28e56f8159a7e92c943af2e6f028ce0abdf8fc40e0c6172c0bc34223b311e4b82ae76d875fa1ef2a923cf4e0f62ec80cbbfefa46e6c0112a0dc54425b517e2be2ce16b855da3ed28903ef6e2f42cca0eb9fcf844e4c213280fc74627b715e0bc2ee3698b53ade3269e30f8ecfa22c400b7f2f64aeacc1d2601c94829b91beeb220ed678951afe1249c32faeef820c602b5f0f448e8ce1f2403cb4a2bbb19ecb022ef658f57a9e7229a34fce8fe26c004b3f6f24eeec8192205cd4c2dbd1feab624e9638d55abe5209836feeafc24c206b1f4f04cecca1b2007cf4e2fbf1de8b426eb61835ba5eb2e9638f0e4f22acc08bffafe42e2c4152e09c14021b113e6ba28e56f8159a7e92c943af2e6f028ce0abdf8fc40e0c6172c0bc34223b311e4b82ae76d875fa1ef2a923cf4e0f62ec80cbbfefa46e6c0112a0dc54425b517e2be2ce16b855da3ed28903ef6e2f42cca0eb9fcf844e4c213280fc74627b715e0bc2ee3698b53ade3269e30f8ecfa22c400b7f2f64aeacc1d2601c94829b91beeb220ed678951afe1249c32faeef820c602b5f0f448e8ce1f2403cb4a2bbb19ecb022ef658f57a9e7229a34fce8fe26c004b3f6f24eeec8192205cd4c2dbd1feab624e9638d55abe5209836feeafc24c206b1f4f04cecca1b2007cf4e2fbf1de8b426eb61835ba5eb2e9638f0e4f22acc08bffafe42e2c4152e09c14021b113e6ba28e56f8159a7e92c943af2e6f028ce0abdf8fc40e0c6172c0bc34223b311e4b82ae76d875fa1ef2a923cf4e0f62ec80cbbfefa46e6c0112a0dc54425b517e2be2ce16b855da3ed28903ef6e2f42cca0eb9fcf844e4c213280fc74627b715e0bc2ee3698b53ade3269e30f8ecfa22c400b7f2f64257ed053585d8f4902e46bd8eb3df7f4ec0919fa5c56589f4de11a0d34329db780cbbf57792d000022512085c1f2267eb268229b8dd870a4b3145e6e6a091c2364075810fba6e5123ac32802fd750992d38bb56e5f3ed2e456c4fc7ad3f9e37de07b4cd6f9d665660e2a9079d2e43d4a15ba903cb880fc9a9634298cdb32dcc7b500ae3bddb9213e054425158359f20a1efe255451fab4665bb3737b94cf6ce761f9b8b2f9834f4896c7472272c4e725ff75435a3ad72815859512e8f0c706faf6073db91cb1f4d53464e6615dbd4a50f39cd5271a19a9cb26e4f007c73dfa0877291e9372e1b87827b149b46d25fbf365bf24bbf2953c98fff97a74957150608f0abbe804a3f77a9e2d51ae0f5248f99ace7694a609298c5ee6f73af2ec9d6c86cb2c0c1fb3522902c549dbbe4785f76802ddfff121983acec5fe2e0f37eb699be69ad54bb5c4a92cf455d5660226323d0f946c890192683aa74f0076d20ce2713e57494902466bdbe6cfd002de9052e535f4c77ba8962a08f0962044822710e0c8f5044bb94cf783ffe2d6d0be4606256ea0beb55f5548cc136738849b6a3d32250d9c8e9849b3dd1deb0bf2a6eec9b5b85155ce07867ecd723a00713d2597fcac2c51152b45d898e80aa88b6bccd025f5a9ad3c7f589c69ed70877a043287634bb5903d2214715fc212cdf3a159d94a18a2e61751d6b1d1ac2bf870e14f33eb177f9f45abc32e42fa82aae5cf9b41550567bd942b62a1f65fcaf9042242c26f8348f8724b0952ec82db0bb4b879f4e97d41338ea2e72dba7babf9c33b62056e9460446fdeb1d105f398530555d306610f854d8a944e8dba45ecac85c559f4b33bc71a889ed67593658aa996d72c47ba8ad948b2d302a5f87b5ab7e89c4ac4efe18343abc2462ebbe2b96e3b91f4018366bf4f743813a9c9d8cf6eb8bb54433a76b2931c512970ffccecf325801666a5cda230b0c27de8fcbbd7e51d8d78799af27ab0c73a065fc8e8f1c63447ac1ed3d8d5ee4c4a68d37a4778b3fda58a7aaeb3ddfbb4bb38bc4d79044cd3fc0203e4f226834cd6c5cd868e231c6503aa17d37f98d6312ad691c36a8dd59c4cc8c6631c4a1c2cbfca033ed979230d653ad564ccef88ae018432a0365fbbdda724216cd53393ff386715b0749fc22e7a1d4cd1d720ce3f40fa07ebdebe2dbe0a937c8d05924d4805f389998af8882d2b926516b5d956563b4f3e3db87de0df35df70c67ef43f2ee8189cf4ecf6b6dbeb7e88b28b2928bd383e6b5e6e0cdce4453c6ec24afd251f1fada09f336a6a4613eaf604adb5d7b1273d7896eb220ba0012b681fd8f41e81b9e61ffd8271b89593f3ca7da43e8c234286b2582f12c8c7b600173a83c9ca15f46f06e386cb521c7045740848628516555b5cc9e9a91e82e206d50bcde428767f09fa411204d34b7b64c5ea0979c70e63f72e70638f248987b76e828d86d4484dee2fc288b7b6df91c7b21cef1726447b982c9a87c975b3935c74f2664a9f4cc8d1e2085def7ed316b4a43556c6c390c1538bf3d251b268a7616cf305cdd7d7c0043defd7a7f67ed67da2d990c5c4c3b0cff35c370a1fd555d808fc13ee40444e048161e3a18593d93222aa750813b921074970d24a576a5dba8421d73c5c754749ffec7af9cc7d278c0e1f8a6e5605c49c5dd3f709b3297b621164c2e94af1714d753a876f535f8a5744b4812ad25520f89a154343d29792de30d7d390afafb073fa26269d635409b7098ed34bed81a158315ddcf1e52aae3171389cc9ffc0f22fee4b98063623e8ccd3b6c91687411192bc4fcdbfd1eb63698591a5ea3cac5db53b9c1abd20d8aab92c6a4806b8b7071fcc210486ad1e635ea7f899f9a44f3317d59c8d6c66314270ce505b69b2afcf32241a9fd45907e598225a44af20ca075094e6544a852ea90108ffddba911f48844caf95702f5b737b356aff65a5b92b35627a4c1c85d16332e3ac5aae7dc9eb2693d102dc0f7674a451c6b6a75117357cb0c2f8b74841bab754dd907bc1e518d3aafa16223edb7ff5e9f8586eb172e95213bc0977aae0537f79d26bf15eb37316abe245739f3040f907e14cfff3feb4885ea50e3da50e5ebaa1f2b99b7beef3d60812ce91d61ef8678757019a9d9ae7ae042318572d8a1a7ef7308e9067d2fa8fae09db27bc3566b8e644ca1ce48f1353bfd797ed67e9a091210e90407248411e87f2896891ebf6ddc24c8a43396270433d68e07d9af391ada93bba7005018f0814907d1f68226110395fd128ec58270d68567dd1905df13197f3b6f15a68a085bc5949a7149775ee8527b18ee8ac5e9180f5994cfce7a39dc55f5aa0a534f0938297e7bcd08987151b41764fc6df44fb93d433b43d602986810538185653e05bf88654c96f2c39c3d904146a09b1f88cfb9ced061f4d31bbf4ccc7f56dfcd72d7ef2ddb5bffee873611c20ddf784830bd1d182334d92ba6f597b13b9143d3274bf2d752100ac03e283ed70043726c9e526342fa6bc94ab21c65ad45d49e830559e55d99bc1f9786f537e6b2bb858fd2637e7973b7e80c2321cabc841e13e37d42a7a3f0bc9d7cb2336dfbcdcab28f01bd6cbf7629d2066c6cef8225dbf872bd698bb8024b07d54d4e3a250e4f0ec6fbe047a439378d3d835a274db672fb78e58076f9588fee107c55973ee582129f741a6a1439497f062397e63ec599064ca0e017bd2b649fbcd71063f981e90c15c3a19acea7ac0d69251b5f977df8ec84024508b17b759379f33010cfdf005a434e3d77216054a0876b1559a0ec5d6ae8de885bde6806ee6b25da60743f79bbb8f53761906cd1388bea15d03f67b333e9ade11b9eebb758ac945b0fcf17df4f207c538138b1b5a456017de49bfedd74445ea8e014beaafee764e3278f73e360948d6d56dc46c324a3fac3646c5b26a6ec57e9f16346626121f83b16684cf51c38097ac7344b46447c7aa9faf0f9de3f489b4163de06ac2431a1e408fe9a0a8c7e058657580a6f044a42607829ebccc8437463a54a29e620599f7dbfc2a99b673fe8670d3da600bc2350df558307fdbe4713851fb04770a50a8f63c38bac7926498332f875338a38e3b2c96b7d9c6974b7f67236d1c067c71cf33c3749f3c081278bb7cabeb64d49bec6900ff69878d68101b71d45d305706d48f2cd754c49c15be6a9fee986475ded4f031bd61d8a51065cf2840fc1fb414e638174bc79c9b2f3c1ffd580a9dc85fae57fcb8f579acdd2933e12e83fba9585d95229b3f5988093ec97052db9e8694a893aac36c353a37b3f7969caeedee8437565b20bb372d773e56fc09f676b7aa510fbe8ddb04967e973e7c151fdfb77a84eb4f7b8d066e6947e1963ca4cf52445241242e66c4e676796debfbc922bfe3794a1e1f3940a3c3e6f501558199aaabc3c7c9cacbeef20f435078868ca4abc1dbdff30317234362658088a0a7afb3d3e90000000000000000000000000000000000000000000000000000000000000000000815212f01fd210500548fb32e6ba8151a28ebce55ef32da59189a24464e0c461abfc7be79569bb19a48e227955f783e174c0880dde225c63f784012ea2107e1741eda09c1dbe6d5fe4c695853e83e03b86b6426bd649c0b5b2aaf47971aaee89d5ae241858d0f659011a4947507067332a61c140ea356721401e41acaac63556917a585d2d738fd8acde89e16502607d11e8d971665d95e36f02ae562fc7b48068895159f255e5965377639023c4f19076da20dd9614588e0d5346dc2ec22404d73ee2e742c370cb7e4a100ac2602661a580c599df03625c423a0c5c8357cbd076a4f2fb8cc5605900db709f988e10cf9c71f4bbcb29ec65185be08effe71d8a1896292af7e9768673ecdfec82a582b61a8becaadfa24944998c3f0f3a20467701090870ccc9dbfe278620472607aedfe003af6e8e65a4591d9633dd4e92e00536e2a1147a5f41b8983b5afc7a6e8bdd2f48a57cc92faa5bdb9f551cf31aac8c5a97826497d1349ba183371de0b81743b08d8d6828b937baab5e8486dbc41a02e4e3a51284c5de3c44f930b72f6b89e944bcbac7d1232bbd9157b470f7ae5c45bacc58014f66e110b48c702acb91d0d5ae7361d910daa6c4be8a659c10ef0d0836cb664c34b1010f3362186be9337f1556243b79c27f520fe742357daa373a01b6d60f94f979f13add2335b2681c8798b976cfcca0944b90a09cef750e0ce0f742eac6be577fdd38f5a67fa1a2add0c0df4eca42d0e7f800f9670c5a9e564c39359999f21f5269fe2274c79cb36622c6c9f3d8645dfe852b943c6a9e94d16a93704edc758162b638e77ac55be5361b7b66fc13bdf9944a1fb1564268106daa2f7505197af5f60c93002c68c16e00585399bcad27faba53c16346cd733a13c3216cceb079fa195898e2624fea455d11a365d07556985578a7cc74f1960b12cb59fa7e4d83746986735da792653095e3b515076d289ae39e2fb56b4dca21a387d0f1bf47acce4ae84c8eb20636aa99a4f553160ffc266572bb11f128b923474c813e32744b1bd56da2935345e14a39cd37f215d2c81c4b00196e8357d1358abea82235f710568dd860e0dc5b4bc368d18572f6518f1b51bb6986d5b30671c40d53848fc182a5342a81428222ac06c89e3dea31b6d1b26bd1125787286687b47c8cf272c3f6ba77c09e5f801b184c249634461f69d853bb6f9db5642062a4c7f947adce71266a80e8c105361b45212ca8a40395c8db9c09998c8ceb91a21e062ecf743468320a6f9752dd2062805c887c2d07e35b8e505afe2a7d0b7a03bf734623bb4d77ef381c2d7c3e196e05dfb4799bab367c2d6366055cd57ddac3d33f19b9cb9a1634e700da1824a1bfae5e719b19d1a5447b891de909de88f6cfba0595f88737bdf5932f504b3013572fbd6a91d98b46d2c6aa0438b7cd93fb3757f137c7ad3747180f204f4533985e8ce6b7ca09248c02663189e6c5c5f2b7a7c2c2ae7ad740b7c1e577bab4a76ec5956928d61c72420ad787eaa7419eef312da2be890fd98823326f24bc2454840836eb803230d1f730cda246e237e1aba640f3c05c158d6c807cde4ef2446554e517683f92fa0abc33dde9d156bb47edc82337893db7a73b2c687901d2070d135da8934630a9072ba82ffa234c39ef513e87043e2a46b40c4aca51682106cc243205e40a933d685cdfdc51591e58a8c62195e65c11a5b53e715324a01f1fda55a8202d0686c1e571263f2df196d48ff9d5dde55843a2b931dbf3488f17c373d67622d087117359b29ad760db314c03099096e37e3f2b82bd9e0320aeb39743033c321f3fb5759bba7a5b00f8b774e8624e1009b3b7e8e20c8188f5ed4532c6c000000",
  "txid": "03bbf4bc038ae92f84b92961765f1d125cd2bb7cc2ad29292f0b1dc481a0ef38",
  "hash": "879369612ef3b64f7816084184e3030836b93d24af1b1976bea58cadbaf1eab2",
  "size": 5085,
  "vsize": 2278,
  "version": 1,
  "locktime": 108,
  "vin": [
    {
      "txid": "eec1bc3be2dba185a483dc40702f695edd464fadfb21fa62b2b900bbb0239b52",
      "vout": 1,
      "scriptSig": {
        "asm": "",
        "hex": ""
      },
      "txinwitness": [
        "92d38bb56e5f3ed2e456c4fc7ad3f9e37de07b4cd6f9d665660e2a9079d2e43d4a15ba903cb880fc9a9634298cdb32dcc7b500ae3bddb9213e054425158359f20a1efe255451fab4665bb3737b94cf6ce761f9b8b2f9834f4896c7472272c4e725ff75435a3ad72815859512e8f0c706faf6073db91cb1f4d53464e6615dbd4a50f39cd5271a19a9cb26e4f007c73dfa0877291e9372e1b87827b149b46d25fbf365bf24bbf2953c98fff97a74957150608f0abbe804a3f77a9e2d51ae0f5248f99ace7694a609298c5ee6f73af2ec9d6c86cb2c0c1fb3522902c549dbbe4785f76802ddfff121983acec5fe2e0f37eb699be69ad54bb5c4a92cf455d5660226323d0f946c890192683aa74f0076d20ce2713e57494902466bdbe6cfd002de9052e535f4c77ba8962a08f0962044822710e0c8f5044bb94cf783ffe2d6d0be4606256ea0beb55f5548cc136738849b6a3d32250d9c8e9849b3dd1deb0bf2a6eec9b5b85155ce07867ecd723a00713d2597fcac2c51152b45d898e80aa88b6bccd025f5a9ad3c7f589c69ed70877a043287634bb5903d2214715fc212cdf3a159d94a18a2e61751d6b1d1ac2bf870e14f33eb177f9f45abc32e42fa82aae5cf9b41550567bd942b62a1f65fcaf9042242c26f8348f8724b0952ec82db0bb4b879f4e97d41338ea2e72dba7babf9c33b62056e9460446fdeb1d105f398530555d306610f854d8a944e8dba45ecac85c559f4b33bc71a889ed67593658aa996d72c47ba8ad948b2d302a5f87b5ab7e89c4ac4efe18343abc2462ebbe2b96e3b91f4018366bf4f743813a9c9d8cf6eb8bb54433a76b2931c512970ffccecf325801666a5cda230b0c27de8fcbbd7e51d8d78799af27ab0c73a065fc8e8f1c63447ac1ed3d8d5ee4c4a68d37a4778b3fda58a7aaeb3ddfbb4bb38bc4d79044cd3fc0203e4f226834cd6c5cd868e231c6503aa17d37f98d6312ad691c36a8dd59c4cc8c6631c4a1c2cbfca033ed979230d653ad564ccef88ae018432a0365fbbdda724216cd53393ff386715b0749fc22e7a1d4cd1d720ce3f40fa07ebdebe2dbe0a937c8d05924d4805f389998af8882d2b926516b5d956563b4f3e3db87de0df35df70c67ef43f2ee8189cf4ecf6b6dbeb7e88b28b2928bd383e6b5e6e0cdce4453c6ec24afd251f1fada09f336a6a4613eaf604adb5d7b1273d7896eb220ba0012b681fd8f41e81b9e61ffd8271b89593f3ca7da43e8c234286b2582f12c8c7b600173a83c9ca15f46f06e386cb521c7045740848628516555b5cc9e9a91e82e206d50bcde428767f09fa411204d34b7b64c5ea0979c70e63f72e70638f248987b76e828d86d4484dee2fc288b7b6df91c7b21cef1726447b982c9a87c975b3935c74f2664a9f4cc8d1e2085def7ed316b4a43556c6c390c1538bf3d251b268a7616cf305cdd7d7c0043defd7a7f67ed67da2d990c5c4c3b0cff35c370a1fd555d808fc13ee40444e048161e3a18593d93222aa750813b921074970d24a576a5dba8421d73c5c754749ffec7af9cc7d278c0e1f8a6e5605c49c5dd3f709b3297b621164c2e94af1714d753a876f535f8a5744b4812ad25520f89a154343d29792de30d7d390afafb073fa26269d635409b7098ed34bed81a158315ddcf1e52aae3171389cc9ffc0f22fee4b98063623e8ccd3b6c91687411192bc4fcdbfd1eb63698591a5ea3cac5db53b9c1abd20d8aab92c6a4806b8b7071fcc210486ad1e635ea7f899f9a44f3317d59c8d6c66314270ce505b69b2afcf32241a9fd45907e598225a44af20ca075094e6544a852ea90108ffddba911f48844caf95702f5b737b356aff65a5b92b35627a4c1c85d16332e3ac5aae7dc9eb2693d102dc0f7674a451c6b6a75117357cb0c2f8b74841bab754dd907bc1e518d3aafa16223edb7ff5e9f8586eb172e95213bc0977aae0537f79d26bf15eb37316abe245739f3040f907e14cfff3feb4885ea50e3da50e5ebaa1f2b99b7beef3d60812ce91d61ef8678757019a9d9ae7ae042318572d8a1a7ef7308e9067d2fa8fae09db27bc3566b8e644ca1ce48f1353bfd797ed67e9a091210e90407248411e87f2896891ebf6ddc24c8a43396270433d68e07d9af391ada93bba7005018f0814907d1f68226110395fd128ec58270d68567dd1905df13197f3b6f15a68a085bc5949a7149775ee8527b18ee8ac5e9180f5994cfce7a39dc55f5aa0a534f0938297e7bcd08987151b41764fc6df44fb93d433b43d602986810538185653e05bf88654c96f2c39c3d904146a09b1f88cfb9ced061f4d31bbf4ccc7f56dfcd72d7ef2ddb5bffee873611c20ddf784830bd1d182334d92ba6f597b13b9143d3274bf2d752100ac03e283ed70043726c9e526342fa6bc94ab21c65ad45d49e830559e55d99bc1f9786f537e6b2bb858fd2637e7973b7e80c2321cabc841e13e37d42a7a3f0bc9d7cb2336dfbcdcab28f01bd6cbf7629d2066c6cef8225dbf872bd698bb8024b07d54d4e3a250e4f0ec6fbe047a439378d3d835a274db672fb78e58076f9588fee107c55973ee582129f741a6a1439497f062397e63ec599064ca0e017bd2b649fbcd71063f981e90c15c3a19acea7ac0d69251b5f977df8ec84024508b17b759379f33010cfdf005a434e3d77216054a0876b1559a0ec5d6ae8de885bde6806ee6b25da60743f79bbb8f53761906cd1388bea15d03f67b333e9ade11b9eebb758ac945b0fcf17df4f207c538138b1b5a456017de49bfedd74445ea8e014beaafee764e3278f73e360948d6d56dc46c324a3fac3646c5b26a6ec57e9f16346626121f83b16684cf51c38097ac7344b46447c7aa9faf0f9de3f489b4163de06ac2431a1e408fe9a0a8c7e058657580a6f044a42607829ebccc8437463a54a29e620599f7dbfc2a99b673fe8670d3da600bc2350df558307fdbe4713851fb04770a50a8f63c38bac7926498332f875338a38e3b2c96b7d9c6974b7f67236d1c067c71cf33c3749f3c081278bb7cabeb64d49bec6900ff69878d68101b71d45d305706d48f2cd754c49c15be6a9fee986475ded4f031bd61d8a51065cf2840fc1fb414e638174bc79c9b2f3c1ffd580a9dc85fae57fcb8f579acdd2933e12e83fba9585d95229b3f5988093ec97052db9e8694a893aac36c353a37b3f7969caeedee8437565b20bb372d773e56fc09f676b7aa510fbe8ddb04967e973e7c151fdfb77a84eb4f7b8d066e6947e1963ca4cf52445241242e66c4e676796debfbc922bfe3794a1e1f3940a3c3e6f501558199aaabc3c7c9cacbeef20f435078868ca4abc1dbdff30317234362658088a0a7afb3d3e90000000000000000000000000000000000000000000000000000000000000000000815212f01",
        "00548fb32e6ba8151a28ebce55ef32da59189a24464e0c461abfc7be79569bb19a48e227955f783e174c0880dde225c63f784012ea2107e1741eda09c1dbe6d5fe4c695853e83e03b86b6426bd649c0b5b2aaf47971aaee89d5ae241858d0f659011a4947507067332a61c140ea356721401e41acaac63556917a585d2d738fd8acde89e16502607d11e8d971665d95e36f02ae562fc7b48068895159f255e5965377639023c4f19076da20dd9614588e0d5346dc2ec22404d73ee2e742c370cb7e4a100ac2602661a580c599df03625c423a0c5c8357cbd076a4f2fb8cc5605900db709f988e10cf9c71f4bbcb29ec65185be08effe71d8a1896292af7e9768673ecdfec82a582b61a8becaadfa24944998c3f0f3a20467701090870ccc9dbfe278620472607aedfe003af6e8e65a4591d9633dd4e92e00536e2a1147a5f41b8983b5afc7a6e8bdd2f48a57cc92faa5bdb9f551cf31aac8c5a97826497d1349ba183371de0b81743b08d8d6828b937baab5e8486dbc41a02e4e3a51284c5de3c44f930b72f6b89e944bcbac7d1232bbd9157b470f7ae5c45bacc58014f66e110b48c702acb91d0d5ae7361d910daa6c4be8a659c10ef0d0836cb664c34b1010f3362186be9337f1556243b79c27f520fe742357daa373a01b6d60f94f979f13add2335b2681c8798b976cfcca0944b90a09cef750e0ce0f742eac6be577fdd38f5a67fa1a2add0c0df4eca42d0e7f800f9670c5a9e564c39359999f21f5269fe2274c79cb36622c6c9f3d8645dfe852b943c6a9e94d16a93704edc758162b638e77ac55be5361b7b66fc13bdf9944a1fb1564268106daa2f7505197af5f60c93002c68c16e00585399bcad27faba53c16346cd733a13c3216cceb079fa195898e2624fea455d11a365d07556985578a7cc74f1960b12cb59fa7e4d83746986735da792653095e3b515076d289ae39e2fb56b4dca21a387d0f1bf47acce4ae84c8eb20636aa99a4f553160ffc266572bb11f128b923474c813e32744b1bd56da2935345e14a39cd37f215d2c81c4b00196e8357d1358abea82235f710568dd860e0dc5b4bc368d18572f6518f1b51bb6986d5b30671c40d53848fc182a5342a81428222ac06c89e3dea31b6d1b26bd1125787286687b47c8cf272c3f6ba77c09e5f801b184c249634461f69d853bb6f9db5642062a4c7f947adce71266a80e8c105361b45212ca8a40395c8db9c09998c8ceb91a21e062ecf743468320a6f9752dd2062805c887c2d07e35b8e505afe2a7d0b7a03bf734623bb4d77ef381c2d7c3e196e05dfb4799bab367c2d6366055cd57ddac3d33f19b9cb9a1634e700da1824a1bfae5e719b19d1a5447b891de909de88f6cfba0595f88737bdf5932f504b3013572fbd6a91d98b46d2c6aa0438b7cd93fb3757f137c7ad3747180f204f4533985e8ce6b7ca09248c02663189e6c5c5f2b7a7c2c2ae7ad740b7c1e577bab4a76ec5956928d61c72420ad787eaa7419eef312da2be890fd98823326f24bc2454840836eb803230d1f730cda246e237e1aba640f3c05c158d6c807cde4ef2446554e517683f92fa0abc33dde9d156bb47edc82337893db7a73b2c687901d2070d135da8934630a9072ba82ffa234c39ef513e87043e2a46b40c4aca51682106cc243205e40a933d685cdfdc51591e58a8c62195e65c11a5b53e715324a01f1fda55a8202d0686c1e571263f2df196d48ff9d5dde55843a2b931dbf3488f17c373d67622d087117359b29ad760db314c03099096e37e3f2b82bd9e0320aeb39743033c321f3fb5759bba7a5b00f8b774e8624e1009b3b7e8e20c8188f5ed4532c"
      ],
      "sequence": 4294967294
    }
  ],
  "vout": [
    {
      "value": 1.0,
      "n": 0,
      "scriptPubKey": {
        "asm": "OP_RETURN 49b5cad7ad9bc54cd0f5c42ae6bb6192dbc4ee53b392f2122bb2f3092d7aa2e2 35ba5eb2e9638f0e4f22acc08bffafe42e2c4152e09c14021b113e6ba28e56f8159a7e92c943af2e6f028ce0abdf8fc40e0c6172c0bc34223b311e4b82ae76d875fa1ef2a923cf4e0f62ec80cbbfefa46e6c0112a0dc54425b517e2be2ce16b855da3ed28903ef6e2f42cca0eb9fcf844e4c213280fc74627b715e0bc2ee3698b53ade3269e30f8ecfa22c400b7f2f64aeacc1d2601c94829b91beeb220ed678951afe1249c32faeef820c602b5f0f448e8ce1f2403cb4a2bbb19ecb022ef658f57a9e7229a34fce8fe26c004b3f6f24eeec8192205cd4c2dbd1feab624e9638d55abe5209836feeafc24c206b1f4f04cecca1b2007cf4e2fbf1de8b426eb61835ba5eb2e9638f0e4f22acc08bffafe42e2c4152e09c14021b113e6ba28e56f8159a7e92c943af2e6f028ce0abdf8fc40e0c6172c0bc34223b311e4b82ae76d875fa1ef2a923cf4e0f62ec80cbbfefa46e6c0112a0dc54425b517e2be2ce16b855da3ed28903ef6e2f42cca0eb9fcf844e4c213280fc74627b715e0bc2ee3698b53ade3269e30f8ecfa22c400b7f2f64aeacc1d2601c94829b91beeb220ed678951afe1249c32faeef820c602b5f0f448e8ce1f2403cb4a2bbb19ecb022ef658f57a9e7229a34fce8fe26c004b3f6f24eeec8192205cd4c2dbd1feab624e9638d55abe5209836feeafc24c206b1f4f04cecca1b2007cf4e2fbf1de8b426eb61835ba5eb2e9638f0e4f22acc08bffafe42e2c4152e09c14021b113e6ba28e56f8159a7e92c943af2e6f028ce0abdf8fc40e0c6172c0bc34223b311e4b82ae76d875fa1ef2a923cf4e0f62ec80cbbfefa46e6c0112a0dc54425b517e2be2ce16b855da3ed28903ef6e2f42cca0eb9fcf844e4c213280fc74627b715e0bc2ee3698b53ade3269e30f8ecfa22c400b7f2f64aeacc1d2601c94829b91beeb220ed678951afe1249c32faeef820c602b5f0f448e8ce1f2403cb4a2bbb19ecb022ef658f57a9e7229a34fce8fe26c004b3f6f24eeec8192205cd4c2dbd1feab624e9638d55abe5209836feeafc24c206b1f4f04cecca1b2007cf4e2fbf1de8b426eb61835ba5eb2e9638f0e4f22acc08bffafe42e2c4152e09c14021b113e6ba28e56f8159a7e92c943af2e6f028ce0abdf8fc40e0c6172c0bc34223b311e4b82ae76d875fa1ef2a923cf4e0f62ec80cbbfefa46e6c0112a0dc54425b517e2be2ce16b855da3ed28903ef6e2f42cca0eb9fcf844e4c213280fc74627b715e0bc2ee3698b53ade3269e30f8ecfa22c400b7f2f64aeacc1d2601c94829b91beeb220ed678951afe1249c32faeef820c602b5f0f448e8ce1f2403cb4a2bbb19ecb022ef658f57a9e7229a34fce8fe26c004b3f6f24eeec8192205cd4c2dbd1feab624e9638d55abe5209836feeafc24c206b1f4f04cecca1b2007cf4e2fbf1de8b426eb61835ba5eb2e9638f0e4f22acc08bffafe42e2c4152e09c14021b113e6ba28e56f8159a7e92c943af2e6f028ce0abdf8fc40e0c6172c0bc34223b311e4b82ae76d875fa1ef2a923cf4e0f62ec80cbbfefa46e6c0112a0dc54425b517e2be2ce16b855da3ed28903ef6e2f42cca0eb9fcf844e4c213280fc74627b715e0bc2ee3698b53ade3269e30f8ecfa22c400b7f2f64257ed053585d8f4902e46bd8eb3df7f4ec0919fa5c56589f4de11a0d34329db7",
        "hex": "6a2049b5cad7ad9bc54cd0f5c42ae6bb6192dbc4ee53b392f2122bb2f3092d7aa2e24db00435ba5eb2e9638f0e4f22acc08bffafe42e2c4152e09c14021b113e6ba28e56f8159a7e92c943af2e6f028ce0abdf8fc40e0c6172c0bc34223b311e4b82ae76d875fa1ef2a923cf4e0f62ec80cbbfefa46e6c0112a0dc54425b517e2be2ce16b855da3ed28903ef6e2f42cca0eb9fcf844e4c213280fc74627b715e0bc2ee3698b53ade3269e30f8ecfa22c400b7f2f64aeacc1d2601c94829b91beeb220ed678951afe1249c32faeef820c602b5f0f448e8ce1f2403cb4a2bbb19ecb022ef658f57a9e7229a34fce8fe26c004b3f6f24eeec8192205cd4c2dbd1feab624e9638d55abe5209836feeafc24c206b1f4f04cecca1b2007cf4e2fbf1de8b426eb61835ba5eb2e9638f0e4f22acc08bffafe42e2c4152e09c14021b113e6ba28e56f8159a7e92c943af2e6f028ce0abdf8fc40e0c6172c0bc34223b311e4b82ae76d875fa1ef2a923cf4e0f62ec80cbbfefa46e6c0112a0dc54425b517e2be2ce16b855da3ed28903ef6e2f42cca0eb9fcf844e4c213280fc74627b715e0bc2ee3698b53ade3269e30f8ecfa22c400b7f2f64aeacc1d2601c94829b91beeb220ed678951afe1249c32faeef820c602b5f0f448e8ce1f2403cb4a2bbb19ecb022ef658f57a9e7229a34fce8fe26c004b3f6f24eeec8192205cd4c2dbd1feab624e9638d55abe5209836feeafc24c206b1f4f04cecca1b2007cf4e2fbf1de8b426eb61835ba5eb2e9638f0e4f22acc08bffafe42e2c4152e09c14021b113e6ba28e56f8159a7e92c943af2e6f028ce0abdf8fc40e0c6172c0bc34223b311e4b82ae76d875fa1ef2a923cf4e0f62ec80cbbfefa46e6c0112a0dc54425b517e2be2ce16b855da3ed28903ef6e2f42cca0eb9fcf844e4c213280fc74627b715e0bc2ee3698b53ade3269e30f8ecfa22c400b7f2f64aeacc1d2601c94829b91beeb220ed678951afe1249c32faeef820c602b5f0f448e8ce1f2403cb4a2bbb19ecb022ef658f57a9e7229a34fce8fe26c004b3f6f24eeec8192205cd4c2dbd1feab624e9638d55abe5209836feeafc24c206b1f4f04cecca1b2007cf4e2fbf1de8b426eb61835ba5eb2e9638f0e4f22acc08bffafe42e2c4152e09c14021b113e6ba28e56f8159a7e92c943af2e6f028ce0abdf8fc40e0c6172c0bc34223b311e4b82ae76d875fa1ef2a923cf4e0f62ec80cbbfefa46e6c0112a0dc54425b517e2be2ce16b855da3ed28903ef6e2f42cca0eb9fcf844e4c213280fc74627b715e0bc2ee3698b53ade3269e30f8ecfa22c400b7f2f64aeacc1d2601c94829b91beeb220ed678951afe1249c32faeef820c602b5f0f448e8ce1f2403cb4a2bbb19ecb022ef658f57a9e7229a34fce8fe26c004b3f6f24eeec8192205cd4c2dbd1feab624e9638d55abe5209836feeafc24c206b1f4f04cecca1b2007cf4e2fbf1de8b426eb61835ba5eb2e9638f0e4f22acc08bffafe42e2c4152e09c14021b113e6ba28e56f8159a7e92c943af2e6f028ce0abdf8fc40e0c6172c0bc34223b311e4b82ae76d875fa1ef2a923cf4e0f62ec80cbbfefa46e6c0112a0dc54425b517e2be2ce16b855da3ed28903ef6e2f42cca0eb9fcf844e4c213280fc74627b715e0bc2ee3698b53ade3269e30f8ecfa22c400b7f2f64257ed053585d8f4902e46bd8eb3df7f4ec0919fa5c56589f4de11a0d34329db7",
        "type": "nulldata"
      }
    },
    {
      "value": 499991.8648,
      "n": 1,
      "scriptPubKey": {
        "asm": "1 85c1f2267eb268229b8dd870a4b3145e6e6a091c2364075810fba6e5123ac328",
        "hex": "512085c1f2267eb268229b8dd870a4b3145e6e6a091c2364075810fba6e5123ac328",
        "reqSigs": 1,
        "type": "witness_v1_scripthash",
        "addresses": [
          "3QJmnh"
        ]
      }
    }
  ],
  "blockhash": "fed18006ccdab590a9e00afae0c126c0756e5b686d02c0375b028c4c6af5cb31",
  "confirmations": 1,
  "time": 1764177489,
  "blocktime": 1764177489
}