{
  "hex": "0100000000010182b61c744d90832cab777d2e5bd3fa8f0650f01b433db23aa878421b71108f5c0100000000feffffff0200e1f50500000000fdd5046a20e753a901297bda97d602d0e5d692d15efc734b171ff45ec4682d161dcb5c75504db004672632910f9bbdd7319bcf6fc8334e5a37e9e1b2db10b87fe630ce4a42d60a9f470612b12fbb9df711bbef4fe8136e7a17c9c192fb30985fc610ee6a62f62abf276672d14fdbfd9771db8f2f88730e1a77a9a1f29b50f83fa6708e0a02964adf074652f16ffbddb751fbaf0fa8532e3a578981d2bb70d81f8650ae2a22b66affe7a6b2118f1b3d57b11b4fef48b3cedab76961325b9038ff66b04ecac2568a1fc7869231af3b1d77913b6fcf6893eefa974941127bb018df46906eeae276aa3fa7e6f251cf5b7d17f15b0faf08f38e9af72921721bd078bf26f00e8a8216ca5f87c6d271ef7b5d37d17b2f8f28d3aebad70901523bf0589f06d02eaaa236ea7f672632910f9bbdd7319bcf6fc8334e5a37e9e1b2db10b87fe630ce4a42d60a9f470612b12fbb9df711bbef4fe8136e7a17c9c192fb30985fc610ee6a62f62abf276672d14fdbfd9771db8f2f88730e1a77a9a1f29b50f83fa6708e0a02964adf074652f16ffbddb751fbaf0fa8532e3a578981d2bb70d81f8650ae2a22b66affe7a6b2118f1b3d57b11b4fef48b3cedab76961325b9038ff66b04ecac2568a1fc7869231af3b1d77913b6fcf6893eefa974941127bb018df46906eeae276aa3fa7e6f251cf5b7d17f15b0faf08f38e9af72921721bd078bf26f00e8a8216ca5f87c6d271ef7b5d37d17b2f8f28d3aebad70901523bf0589f06d02eaaa236ea7f672632910f9bbdd7319bcf6fc8334e5a37e9e1b2db10b87fe630ce4a42d60a9f470612b12fbb9df711bbef4fe8136e7a17c9c192fb30985fc610ee6a62f62abf276672d14fdbfd9771db8f2f88730e1a77a9a1f29b50f83fa6708e0a02964adf074652f16ffbddb751fbaf0fa8532e3a578981d2bb70d81f8650ae2a22b66affe7a6b2118f1b3d57b11b4fef48b3cedab76961325b9038ff66b04ecac2568a1fc7869231af3b1d77913b6fcf6893eefa974941127bb018df46906eeae276aa3fa7e6f251cf5b7d17f15b0faf08f38e9af72921721bd078bf26f00e8a8216ca5f87c6d271ef7b5d37d17b2f8f28d3aebad70901523bf0589f06d02eaaa236ea7f672632910f9bbdd7319bcf6fc8334e5a37e9e1b2db10b87fe630ce4a42d60a9f470612b12fbb9df711bbef4fe8136e7a17c9c192fb30985fc610ee6a62f62abf276672d14fdbfd9771db8f2f88730e1a77a9a1f29b50f83fa6708e0a02964adf074652f16ffbddb751fbaf0fa8532e3a578981d2bb70d81f8650ae2a22b66affe7a6b2118f1b3d57b11b4fef48b3cedab76961325b9038ff66b04ecac2568a1fc7869231af3b1d77913b6fcf6893eefa974941127bb018df46906eeae276aa3fa7e6f251cf5b7d17f15b0faf08f38e9af72921721bd078bf26f00e8a8216ca5f87c6d271ef7b5d37d17b2f8f28d3aebad70901523bf0589f06d02eaaa236ea7f672632910f9bbdd7319bcf6fc8334e5a37e9e1b2db10b87fe630ce4a42d60a9f470612b12fbb9df711bbef4fe8136e7a17c9c192fb30985fc610ee6a62f62abf276672d14fdbfd9771db8f2f88730e1a77a9a1f29b50f83fa6708e0a02964adf074652f16ffbddb751fbaf0fa8532e3a578981d2bb70d81f8650ae2a22b66affe7a6b2118f1b3d57b11b4fef48b3cedaf12cfe433e4b2a847f04e1fb7f41b23987da3a3fc0135c8089037452bf0bf34ca020df63792d0000225120f03fa3105b9635c86325031a567882d1b149c7d1757ab0c67c11d081bf02203302fd750972f5501dc4457c3f8e40e01b1f6420a23dbd0c8bc58e52714f7777bb0e53e97ed91cc9fe7b64920501e0529a9caf3d9f616a8d6a277ab3c6c11ec286ed48ac5f7c2b3540e276a7db95a031f5e658c177142745936d1bef8b5fde276f2992f022a49271fd4004245ae8738c201ab6a93d0114c3b338a9594e653c8317563f806484cd69e3a103bc8a8384218b7ee6fc6a01ff54c45406a9c0cf25e52c46365af2a439cb426100d3b3909a954fdaa7ca3b659bc9ed989450c4f188d61aa0913a58e9df7b5e8862569c96d2cc3e7bea546d3af0b8804ece2b9c2473a914c32df829e0297f53b541a0de7796f317dfc6167c29e221928780cf1fa43b74464dc7ec1f33a190cd55daf87ea34500eef3f6100641bb921cb291a46377fd6a38b479d196b14003f784953eac3079b978c06fe0de9e2696093f7524bd0f0c91bda9ec5bc3e576f1f897cb311c0ba48c18b7280583030df129b204a917e6b80c8f1dab72736e486a11e5f829837084a3c871ccdb20ec9dbf96f0ae7944b830dc73c0e1a7b5ce59639569ecb9a537467f08d759fe67ed0c1ac5f8b9e34f97b8b5da84deecde4857fb0847f1e6a17d1cb50ef3226b554b391f2225abac00c99334bfc33b753c53b1c6cd8d5cbed776d9516a191938685df9daa9aa216f31e76dddc2c6e430b4213588bcda6fc6a3b510c2f15d55c5a0824ff8d5e51205bccb5dfc72f0d4f440ac7d7bf6addbddd825c88baf5495340fe7bdf70af84468e16bfc95a8ee6ba2dda3696268674f6ea46ac84ade83ac8ba96b9ee045c7edf042f156f2b2226e391d079e432a1849d9ea5a50aa4c9162136318e8a0c985ae91e56c71b14bf05e60589d3432630210410a92844245845ebbf2594f23e8439c7a35058e47f72f588da850cd2c4d886df0d294fa35222f06712d95ac95818fa43819ab13943e9cec1e64800b0be7d5d38d8e71ac85747a89bbb23157ac788d1b63e8c8ef0008e8346e3b509e91566746ee8c59784eb2a0e5118a96a31f18425dca6065faac6fb9f102efe208d472e54dabcb3fda50bebfc9ceefee900919c4a921b69a8f910f8f1a174440db2afb319442ca787c6f74200992cf08cee4b5a4f5e0991883a36c484ef84d80e9cd35e2dce606b814fce4a4a54d76e5d8467b49f74885691b6d02f2cdc2ab644228872961d39fcd2cc0bcfdd458ee745fdde54bb83eea79dc061b7997a22c55a8ae6bac453d2abd4d2f759c08e259fdf9aa108c60dd0d73b03c8b1d1a5fafa01e43ed967f182a8670d11d90ea66b87134f625faf4b8fd1d24860cdaf5c83b4a348b7db929cbd25bc68e2c0a3e369df9ca5528e9d4b35cda056d18ef71e0239a5a3296985b514292d84d76217b8dfdf419530930d5fe4a98330026ded46a05e26530d53cdc279b181b3bf9361df4538fa183efa213a20cfe564d442e7bc3753b2b716ca2d1834079b0ca9e89ac2a1d3e8c35c0e741f3b488f0f4da11baf5720b5854fb40ce9a0358fea9db1cf07a4efda7a939d43856589ac547c84d862d69786f2b593179dc128a8960f193f68844f99190ce0827fa272f39e99d4353e2f8bc08c591a7f1f62b5113cdd6c29f355ec35a4c2dbb78d4666fbd0ef4a04bc964a2a6de2ddece55b0e98537359c1ee51d79a2a23f7d13acb347c69e368e38b3b9db6af3ecef1a020a38bf6174e4c1928a01b2961f46941025f71d9ca834ab3f95da56bc00683b39d62632c828d214a4bb24221a4b0a142fabad72cb85fc01e71151b7cf3c3abffc614ba770912c0d3425897d64921ea1480d3d8efb1f96b4c08425f157eae644ae4612a60123dba1d70c887ee457b38fb7d761a30f63fbfce0f57ea2f49c6632dc18b38073fbf91561fb94fba539c60f718322b03da1c760858277f07d9cd4150a80244e853e9114bd8d8e3894a1ce99ade1d92d15368019c6cd1c7924c9dfd3402b47868466330bceb8c4427ebad4cec3d4945a06e5c2fb76a5cef62fd819e6210ae58f89b34ed11252b016ed9df10dd5ec496e1f2d927c71e05cec3a833dedd5b6dd6223c5d290a37b64e94d592e9eaaf98a47c70224a6905741bee96d2d7223fd3a370cfa4df762d85d2e74f0f3eabfe52b8e71ec70cc1d2ea266a064317672eac4d6c088dacf1daeb6d1409569f9659b9e3de9e961e64bec19ebf489f2184acb504b0d22255c6ed41faf464acd998d50cd60c7d75588c55c2240d5d7b72df6d27ead58b4f4a1f5081a7f089b471a6b7ff08f96e4da0cd33c4ae0e6f4ee892343791e680c5097b9a5d5dca80e38e95db6462fc5fd1c6a3fdc2fa80abb32d07e3446a4481f3459fa7674a1918aff2fb73ba245cd19c5d29559e41b1b87b5e4d8f66cc7a2b2914e92493429941e6b643016e4a582d825556a996c9317bd250f197e37fd3de9812bbecb8ea467cb29f7b0cb7eca6ae9473a042356a377b6d1dfbcc0cdfb327495187afd3bfccec36fb422fca544d12b796f72a17cd277647026a65d6a25d07dfd5a4079fc512f66457b2ac02fd46cd7207dabfec961ba4ffcd05d282de4ae483b8b46eb52fc97fb5dbd2f83e9106299c0f323892bda18d024910fd85fe9fde1bf7e78935c003ee2905593dd5a6e04659af32dd8cd1be3b21e75ce27b3395a362d213cbe9d4a3d001fa63a89fd6d7d409e1dd1dd93b3c2b1c9aa3ed2433b1508cd9e52d6606b62802863763212faa6a0f2bdbb12e748d40450b53f2836329db90c2b82aecf676e4545f677e7aaa070d329e850a493e9cca17856c2791be7a8554a158237fb6edca303f85888923c6da56c06ba69c0f1654c37ba984c3a7e18cd5e53f957bf77308fc67d9976755f40d97945fea1147ae1b548cbc4d842a216c5fc0d85332ecc6988b52e1f965b39cd6ee3cbab88b58db727711c1cd10d226928a0cdb7a2bfc043f49c4efb615970db54e7470672ea2263686c7aa4c453a53fdbb0abd52e415ff23c554f1ddfc8aac6fce502354e43f4d9104fa91966711d4992c7748e0c67f928b76e9ca79ddc2f7aff9018ed4bc485038f3c99d4435100977c66c28098c292eb20ab8fdc27c0bce77f87ef311f6e7826141626e86fa031cf002701b838e291dde92f29b08e783ec3b8881b97c12c1aa65ab7a450cab525e76d487181ae1d2d88c518a35afee345683f54b03fba66d495c5e95f1776b57d594141c469d30a4bbd82fdb2508e529c9bc742dd246c8a1ba18aefc93d906cb33635513f646aaea85f3882a8e8086a9ca6369ae62c8eeaf8ae7d10f3a3604a22297b075b89197db2e79bab9db904017ae67ee76b68d802212965848f97aabdddedf60110202631414c53636990a0aab9c7010c17203855565b708ac5d1e5ee2932404d747f94c2c30000000000000000000000000000000000000000000000000000000000000c1b293201fd210500ba36f9cae7678f4a111e6660702b6bfeb4317a983c7e151e3ffa14ba5d53aa4b317960b4049fa6fa2065577ee02a51f0c38162761f7c573dbce41d7b1e805f06e78abb9301ecdf02bd27fddf48b0869fa85dd5ffe1f7a006d6c046e9aaf97db34a3bed7977c5ca06d32728abc84d13c00e624c571c0e67f15748e7f98a5a7aac44bd63ec2c5a3b3fce93068c3c38e5476954c006c40dfaa8abde3c5d84f85f7e2c205a423b4d87433b44e7f5914a95e06a99d2d1f36431214daedaa1ef162f3cdbce814841d705f2778f5c15d6071fbe8ed4ef562b02d8099cdfa627e4782c31f2712abc4d46f9b4556c27d49e83eaac43bea9123f360e506117d4e50644d1441bbec8d3ace24b1af93998df17f2d36394fa3fed2ec8f2f3a3388ab81c5682c70722dc66ca23b74e0736c9a46b4126caea453c2f8b11c35fda1c183e5c04a5ee1464c533bd87504062ed9f31362ceeb4fa325768fb2f1ad8931bf7c26f84c941b3067025cb09d9284011d097839870021cd011474e47f7a20a2eab50059998cd9b446c2ccbc031e17cb717aa62a85bcc1a994ba3a1c50eb9b51e95e8a85685a79369e0d255ee88c91290b6b421059a2830641f8ace2875f5f71235137143562a71de58a7d350d721b96020201a91df10de2643afaa946229cafa7289e67602fd2e95364a99edf2931a72e30441dbde16ee5e2d1ab7cd31a7b77e94b5114b4496c4482ad8814c79b8a92e57818f6b930b210505fb28f381b50d4bce9c5643b37d3850942c9f76e5f4f46e367719dc44f129ac3fa61db9bca240abd051485642ced7dbf48ea548a4d9f08fd5d39d25523b5b20d94ee06d3ff3414e51498c32b0e900d846ea2092d85b383bd78e265ddb1a2e1a4fb28a792b93630e72a8cec51d2b6443764330b88ea69eeed23e92c9d058b5db9972e77157644ec1c7ef7fe3b84874fb94720228833c3b7448b3570a633c39a29dd29ec5840a3b7271a049d56796cb54373076c76d9951cc3724153d320f641fe3cb38986ba1f4aefde96b6564e6c51165fa3d4ae5a1b50bb3d482db84a8510b7eb8a3c4b99b32f66b5f967f3e647ee1d488a01f264d6ef350fac515044dbba20bd9c3613e4fe7810133f0a2f608875328101775371caac4a3771ff9546beb4e95d4ad0353d485ca5d76712cc515c1aa2927aa6a55bebc41589648eb8172cf884f4453020a18e4f761223e8cb8841d2967eab723793bdf8868a22a9eebf3998f3b74c04932add973be22bcf404e85df673eda1601f691a6bbfa72725b67857b7d6ccb4dac7f9c94d7d1af830b46d70efd4c72b64a07f753c9b76d6f2717a60ec83d806dfdeabcea0ed0ebe54c20c24ea369b56c2789ab73837dd1f0c3d5bef7d8bac633526ba7e44474a253ad16ab62cd04825bccb3e1353f59723e0a454bc6f088aef0bc658f5c385e9db93a3a23f05cb79defacfc7b3d84a1df0a623d85b520bf7c495c89e86468194d67c862bba797042aaba25300f8d47f4166c25adb6706e26b110a1cbfa92bb72a757adcec5ce45184703b2d29a8ed9a47756e4f88936d43ea11b76b8a3a4334becdfc4506d414cf08b22c64702afffb58c0de614eb4811a5ba6c68a9808af8680ada8d503f43caee580eb9e795ea93e91e384d5fd558a089c9f777273e2ebafefed2a3d52de64517e49a85579389aa47f425184eb1555d7657d2792c9a6d84cb537f867495c8cef0479cdf540692c757271f637dadbdc0a951fcaec146bc6a20d26fae6f8c650606826ca24d9a92457d6b9cf4dc3d709b7abf99857a69c51100e0af0d7a8fe7be21f509811dc65952b52cb85a566e7c63a30bc9b527e2b341dd5d5a5f1068000000",
  "txid": "0c84d980d4a11c0d0181e081eb510d35618da3eb1ea6325cd4fd2e947452f547",
  "hash": "11bf53232b35214e2308ec863cad014d7a992248f39739c7f4153f6b105a8697",
  "size": 5085,
  "vsize": 2278,
  "version": 1,
  "locktime": 104,
  "vin": [
    {
      "txid": "5c8f10711b4278a83ab23d431bf050068ffad35b2e7d77ab2c83904d741cb682",
      "vout": 1,
      "scriptSig": {
        "asm": "",
        "hex": ""
      },
      "txinwitness": [
        "72f5501dc4457c3f8e40e01b1f6420a23dbd0c8bc58e52714f7777bb0e53e97ed91cc9fe7b64920501e0529a9caf3d9f616a8d6a277ab3c6c11ec286ed48ac5f7c2b3540e276a7db95a031f5e658c177142745936d1bef8b5fde276f2992f022a49271fd4004245ae8738c201ab6a93d0114c3b338a9594e653c8317563f806484cd69e3a103bc8a8384218b7ee6fc6a01ff54c45406a9c0cf25e52c46365af2a439cb426100d3b3909a954fdaa7ca3b659bc9ed989450c4f188d61aa0913a58e9df7b5e8862569c96d2cc3e7bea546d3af0b8804ece2b9c2473a914c32df829e0297f53b541a0de7796f317dfc6167c29e221928780cf1fa43b74464dc7ec1f33a190cd55daf87ea34500eef3f6100641bb921cb291a46377fd6a38b479d196b14003f784953eac3079b978c06fe0de9e2696093f7524bd0f0c91bda9ec5bc3e576f1f897cb311c0ba48c18b7280583030df129b204a917e6b80c8f1dab72736e486a11e5f829837084a3c871ccdb20ec9dbf96f0ae7944b830dc73c0e1a7b5ce59639569ecb9a537467f08d759fe67ed0c1ac5f8b9e34f97b8b5da84deecde4857fb0847f1e6a17d1cb50ef3226b554b391f2225abac00c99334bfc33b753c53b1c6cd8d5cbed776d9516a191938685df9daa9aa216f31e76dddc2c6e430b4213588bcda6fc6a3b510c2f15d55c5a0824ff8d5e51205bccb5dfc72f0d4f440ac7d7bf6addbddd825c88baf5495340fe7bdf70af84468e16bfc95a8ee6ba2dda3696268674f6ea46ac84ade83ac8ba96b9ee045c7edf042f156f2b2226e391d079e432a1849d9ea5a50aa4c9162136318e8a0c985ae91e56c71b14bf05e60589d3432630210410a92844245845ebbf2594f23e8439c7a35058e47f72f588da850cd2c4d886df0d294fa35222f06712d95ac95818fa43819ab13943e9cec1e64800b0be7d5d38d8e71ac85747a89bbb23157ac788d1b63e8c8ef0008e8346e3b509e91566746ee8c59784eb2a0e5118a96a31f18425dca6065faac6fb9f102efe208d472e54dabcb3fda50bebfc9ceefee900919c4a921b69a8f910f8f1a174440db2afb319442ca787c6f74200992cf08cee4b5a4f5e0991883a36c484ef84d80e9cd35e2dce606b814fce4a4a54d76e5d8467b49f74885691b6d02f2cdc2ab644228872961d39fcd2cc0bcfdd458ee745fdde54bb83eea79dc061b7997a22c55a8ae6bac453d2abd4d2f759c08e259fdf9aa108c60dd0d73b03c8b1d1a5fafa01e43ed967f182a8670d11d90ea66b87134f625faf4b8fd1d24860cdaf5c83b4a348b7db929cbd25bc68e2c0a3e369df9ca5528e9d4b35cda056d18ef71e0239a5a3296985b514292d84d76217b8dfdf419530930d5fe4a98330026ded46a05e26530d53cdc279b181b3bf9361df4538fa183efa213a20cfe564d442e7bc3753b2b716ca2d1834079b0ca9e89ac2a1d3e8c35c0e741f3b488f0f4da11baf5720b5854fb40ce9a0358fea9db1cf07a4efda7a939d43856589ac547c84d862d69786f2b593179dc128a8960f193f68844f99190ce0827fa272f39e99d4353e2f8bc08c591a7f1f62b5113cdd6c29f355ec35a4c2dbb78d4666fbd0ef4a04bc964a2a6de2ddece55b0e98537359c1ee51d79a2a23f7d13acb347c69e368e38b3b9db6af3ecef1a020a38bf6174e4c1928a01b2961f46941025f71d9ca834ab3f95da56bc00683b39d62632c828d214a4bb24221a4b0a142fabad72cb85fc01e71151b7cf3c3abffc614ba770912c0d3425897d64921ea1480d3d8efb1f96b4c08425f157eae644ae4612a60123dba1d70c887ee457b38fb7d761a30f63fbfce0f57ea2f49c6632dc18b38073fbf91561fb94fba539c60f718322b03da1c760858277f07d9cd4150a80244e853e9114bd8d8e3894a1ce99ade1d92d15368019c6cd1c7924c9dfd3402b47868466330bceb8c4427ebad4cec3d4945a06e5c2fb76a5cef62fd819e6210ae58f89b34ed11252b016ed9df10dd5ec496e1f2d927c71e05cec3a833dedd5b6dd6223c5d290a37b64e94d592e9eaaf98a47c70224a6905741bee96d2d7223fd3a370cfa4df762d85d2e74f0f3eabfe52b8e71ec70cc1d2ea266a064317672eac4d6c088dacf1daeb6d1409569f9659b9e3de9e961e64bec19ebf489f2184acb504b0d22255c6ed41faf464acd998d50cd60c7d75588c55c2240d5d7b72df6d27ead58b4f4a1f5081a7f089b471a6b7ff08f96e4da0cd33c4ae0e6f4ee892343791e680c5097b9a5d5dca80e38e95db6462fc5fd1c6a3fdc2fa80abb32d07e3446a4481f3459fa7674a1918aff2fb73ba245cd19c5d29559e41b1b87b5e4d8f66cc7a2b2914e92493429941e6b643016e4a582d825556a996c9317bd250f197e37fd3de9812bbecb8ea467cb29f7b0cb7eca6ae9473a042356a377b6d1dfbcc0cdfb327495187afd3bfccec36fb422fca544d12b796f72a17cd277647026a65d6a25d07dfd5a4079fc512f66457b2ac02fd46cd7207dabfec961ba4ffcd05d282de4ae483b8b46eb52fc97fb5dbd2f83e9106299c0f323892bda18d024910fd85fe9fde1bf7e78935c003ee2905593dd5a6e04659af32dd8cd1be3b21e75ce27b3395a362d213cbe9d4a3d001fa63a89fd6d7d409e1dd1dd93b3c2b1c9aa3ed2433b1508cd9e52d6606b62802863763212faa6a0f2bdbb12e748d40450b53f2836329db90c2b82aecf676e4545f677e7aaa070d329e850a493e9cca17856c2791be7a8554a158237fb6edca303f85888923c6da56c06ba69c0f1654c37ba984c3a7e18cd5e53f957bf77308fc67d9976755f40d97945fea1147ae1b548cbc4d842a216c5fc0d85332ecc6988b52e1f965b39cd6ee3cbab88b58db727711c1cd10d226928a0cdb7a2bfc043f49c4efb615970db54e7470672ea2263686c7aa4c453a53fdbb0abd52e415ff23c554f1ddfc8aac6fce502354e43f4d9104fa91966711d4992c7748e0c67f928b76e9ca79ddc2f7aff9018ed4bc485038f3c99d4435100977c66c28098c292eb20ab8fdc27c0bce77f87ef311f6e7826141626e86fa031cf002701b838e291dde92f29b08e783ec3b8881b97c12c1aa65ab7a450cab525e76d487181ae1d2d88c518a35afee345683f54b03fba66d495c5e95f1776b57d594141c469d30a4bbd82fdb2508e529c9bc742dd246c8a1ba18aefc93d906cb33635513f646aaea85f3882a8e8086a9ca6369ae62c8eeaf8ae7d10f3a3604a22297b075b89197db2e79bab9db904017ae67ee76b68d802212965848f97aabdddedf60110202631414c53636990a0aab9c7010c17203855565b708ac5d1e5ee2932404d747f94c2c30000000000000000000000000000000000000000000000000000000000000c1b293201",
        "00ba36f9cae7678f4a111e6660702b6bfeb4317a983c7e151e3ffa14ba5d53aa4b317960b4049fa6fa2065577ee02a51f0c38162761f7c573dbce41d7b1e805f06e78abb9301ecdf02bd27fddf48b0869fa85dd5ffe1f7a006d6c046e9aaf97db34a3bed7977c5ca06d32728abc84d13c00e624c571c0e67f15748e7f98a5a7aac44bd63ec2c5a3b3fce93068c3c38e5476954c006c40dfaa8abde3c5d84f85f7e2c205a423b4d87433b44e7f5914a95e06a99d2d1f36431214daedaa1ef162f3cdbce814841d705f2778f5c15d6071fbe8ed4ef562b02d8099cdfa627e4782c31f2712abc4d46f9b4556c27d49e83eaac43bea9123f360e506117d4e50644d1441bbec8d3ace24b1af93998df17f2d36394fa3fed2ec8f2f3a3388ab81c5682c70722dc66ca23b74e0736c9a46b4126caea453c2f8b11c35fda1c183e5c04a5ee1464c533bd87504062ed9f31362ceeb4fa325768fb2f1ad8931bf7c26f84c941b3067025cb09d9284011d097839870021cd011474e47f7a20a2eab50059998cd9b446c2ccbc031e17cb717aa62a85bcc1a994ba3a1c50eb9b51e95e8a85685a79369e0d255ee88c91290b6b421059a2830641f8ace2875f5f71235137143562a71de58a7d350d721b96020201a91df10de2643afaa946229cafa7289e67602fd2e95364a99edf2931a72e30441dbde16ee5e2d1ab7cd31a7b77e94b5114b4496c4482ad8814c79b8a92e57818f6b930b210505fb28f381b50d4bce9c5643b37d3850942c9f76e5f4f46e367719dc44f129ac3fa61db9bca240abd051485642ced7dbf48ea548a4d9f08fd5d39d25523b5b20d94ee06d3ff3414e51498c32b0e900d846ea2092d85b383bd78e265ddb1a2e1a4fb28a792b93630e72a8cec51d2b6443764330b88ea69eeed23e92c9d058b5db9972e77157644ec1c7ef7fe3b84874fb94720228833c3b7448b3570a633c39a29dd29ec5840a3b7271a049d56796cb54373076c76d9951cc3724153d320f641fe3cb38986ba1f4aefde96b6564e6c51165fa3d4ae5a1b50bb3d482db84a8510b7eb8a3c4b99b32f66b5f967f3e647ee1d488a01f264d6ef350fac515044dbba20bd9c3613e4fe7810133f0a2f608875328101775371caac4a3771ff9546beb4e95d4ad0353d485ca5d76712cc515c1aa2927aa6a55bebc41589648eb8172cf884f4453020a18e4f761223e8cb8841d2967eab723793bdf8868a22a9eebf3998f3b74c04932add973be22bcf404e85df673eda1601f691a6bbfa72725b67857b7d6ccb4dac7f9c94d7d1af830b46d70efd4c72b64a07f753c9b76d6f2717a60ec83d806dfdeabcea0ed0ebe54c20c24ea369b56c2789ab73837dd1f0c3d5bef7d8bac633526ba7e44474a253ad16ab62cd04825bccb3e1353f59723e0a454bc6f088aef0bc658f5c385e9db93a3a23f05cb79defacfc7b3d84a1df0a623d85b520bf7c495c89e86468194d67c862bba797042aaba25300f8d47f4166c25adb6706e26b110a1cbfa92bb72a757adcec5ce45184703b2d29a8ed9a47756e4f88936d43ea11b76b8a3a4334becdfc4506d414cf08b22c64702afffb58c0de614eb4811a5ba6c68a9808af8680ada8d503f43caee580eb9e795ea93e91e384d5fd558a089c9f777273e2ebafefed2a3d52de64517e49a85579389aa47f425184eb1555d7657d2792c9a6d84cb537f867495c8cef0479cdf540692c757271f637dadbdc0a951fcaec146bc6a20d26fae6f8c650606826ca24d9a92457d6b9cf4dc3d709b7abf99857a69c51100e0af0d7a8fe7be21f509811dc65952b52cb85a566e7c63a30bc9b527e2b341dd5d5a5f10"
      ],
      "sequence": 4294967294
    }
  ],
  "vout": [
    {
      "value": 1.0,
      "n": 0,
      "scriptPubKey": {
        "asm": "OP_RETURN e753a901297bda97d602d0e5d692d15efc734b171ff45ec4682d161dcb5c7550 672632910f9bbdd7319bcf6fc8334e5a37e9e1b2db10b87fe630ce4a42d60a9f470612b12fbb9df711bbef4fe8136e7a17c9c192fb30985fc610ee6a62f62abf276672d14fdbfd9771db8f2f88730e1a77a9a1f29b50f83fa6708e0a02964adf074652f16ffbddb751fbaf0fa8532e3a578981d2bb70d81f8650ae2a22b66affe7a6b2118f1b3d57b11b4fef48b3cedab76961325b9038ff66b04ecac2568a1fc7869231af3b1d77913b6fcf6893eefa974941127bb018df46906eeae276aa3fa7e6f251cf5b7d17f15b0faf08f38e9af72921721bd078bf26f00e8a8216ca5f87c6d271ef7b5d37d17b2f8f28d3aebad70901523bf0589f06d02eaaa236ea7f672632910f9bbdd7319bcf6fc8334e5a37e9e1b2db10b87fe630ce4a42d60a9f470612b12fbb9df711bbef4fe8136e7a17c9c192fb30985fc610ee6a62f62abf276672d14fdbfd9771db8f2f88730e1a77a9a1f29b50f83fa6708e0a02964adf074652f16ffbddb751fbaf0fa8532e3a578981d2bb70d81f8650ae2a22b66affe7a6b2118f1b3d57b11b4fef48b3cedab76961325b9038ff66b04ecac2568a1fc7869231af3b1d77913b6fcf6893eefa974941127bb018df46906eeae276aa3fa7e6f251cf5b7d17f15b0faf08f38e9af72921721bd078bf26f00e8a8216ca5f87c6d271ef7b5d37d17b2f8f28d3aebad70901523bf0589f06d02eaaa236ea7f672632910f9bbdd7319bcf6fc8334e5a37e9e1b2db10b87fe630ce4a42d60a9f470612b12fbb9df711bbef4fe8136e7a17c9c192fb30985fc610ee6a62f62abf276672d14fdbfd9771db8f2f88730e1a77a9a1f29b50f83fa6708e0a02964adf074652f16ffbddb751fbaf0fa8532e3a578981d2bb70d81f8650ae2a22b66affe7a6b2118f1b3d57b11b4fef48b3cedab76961325b9038ff66b04ecac2568a1fc7869231af3b1d77913b6fcf6893eefa974941127bb018df46906eeae276aa3fa7e6f251cf5b7d17f15b0faf08f38e9af72921721bd078bf26f00e8a8216ca5f87c6d271ef7b5d37d17b2f8f28d3aebad70901523bf0589f06d02eaaa236ea7f672632910f9bbdd7319bcf6fc8334e5a37e9e1b2db10b87fe630ce4a42d60a9f470612b12fbb9df711bbef4fe8136e7a17c9c192fb30985fc610ee6a62f62abf276672d14fdbfd9771db8f2f88730e1a77a9a1f29b50f83fa6708e0a02964adf074652f16ffbddb751fbaf0fa8532e3a578981d2bb70d81f8650ae2a22b66affe7a6b2118f1b3d57b11b4fef48b3cedab76961325b9038ff66b04ecac2568a1fc7869231af3b1d77913b6fcf6893eefa974941127bb018df46906eeae276aa3fa7e6f251cf5b7d17f15b0faf08f38e9af72921721bd078bf26f00e8a8216ca5f87c6d271ef7b5d37d17b2f8f28d3aebad70901523bf0589f06d02eaaa236ea7f672632910f9bbdd7319bcf6fc8334e5a37e9e1b2db10b87fe630ce4a42d60a9f470612b12fbb9df711bbef4fe8136e7a17c9c192fb30985fc610ee6a62f62abf276672d14fdbfd9771db8f2f88730e1a77a9a1f29b50f83fa6708e0a02964adf074652f16ffbddb751fbaf0fa8532e3a578981d2bb70d81f8650ae2a22b66affe7a6b2118f1b3d57b11b4fef48b3cedaf12cfe433e4b2a847f04e1fb7f41b23987da3a3fc0135c8089037452bf0bf34c",
        "hex": "6a20e753a901297bda97d602d0e5d692d15efc734b171ff45ec4682d161dcb5c75504db004672632910f9bbdd7319bcf6fc8334e5a37e9e1b2db10b87fe630ce4a42d60a9f470612b12fbb9df711bbef4fe8136e7a17c9c192fb30985fc610ee6a62f62abf276672d14fdbfd9771db8f2f88730e1a77a9a1f29b50f83fa6708e0a02964adf074652f16ffbddb751fbaf0fa8532e3a578981d2bb70d81f8650ae2a22b66affe7a6b2118f1b3d57b11b4fef48b3cedab76961325b9038ff66b04ecac2568a1fc7869231af3b1d77913b6fcf6893eefa974941127bb018df46906eeae276aa3fa7e6f251cf5b7d17f15b0faf08f38e9af72921721bd078bf26f00e8a8216ca5f87c6d271ef7b5d37d17b2f8f28d3aebad70901523bf0589f06d02eaaa236ea7f672632910f9bbdd7319bcf6fc8334e5a37e9e1b2db10b87fe630ce4a42d60a9f470612b12fbb9df711bbef4fe8136e7a17c9c192fb30985fc610ee6a62f62abf276672d14fdbfd9771db8f2f88730e1a77a9a1f29b50f83fa6708e0a02964adf074652f16ffbddb751fbaf0fa8532e3a578981d2bb70d81f8650ae2a22b66affe7a6b2118f1b3d57b11b4fef48b3cedab76961325b9038ff66b04ecac2568a1fc7869231af3b1d77913b6fcf6893eefa974941127bb018df46906eeae276aa3fa7e6f251cf5b7d17f15b0faf08f38e9af72921721bd078bf26f00e8a8216ca5f87c6d271ef7b5d37d17b2f8f28d3aebad70901523bf0589f06d02eaaa236ea7f672632910f9bbdd7319bcf6fc8334e5a37e9e1b2db10b87fe630ce4a42d60a9f470612b12fbb9df711bbef4fe8136e7a17c9c192fb30985fc610ee6a62f62abf276672d14fdbfd9771db8f2f88730e1a77a9a1f29b50f83fa6708e0a02964adf074652f16ffbddb751fbaf0fa8532e3a578981d2bb70d81f8650ae2a22b66affe7a6b2118f1b3d57b11b4fef48b3cedab76961325b9038ff66b04ecac2568a1fc7869231af3b1d77913b6fcf6893eefa974941127bb018df46906eeae276aa3fa7e6f251cf5b7d17f15b0faf08f38e9af72921721bd078bf26f00e8a8216ca5f87c6d271ef7b5d37d17b2f8f28d3aebad70901523bf0589f06d02eaaa236ea7f672632910f9bbdd7319bcf6fc8334e5a37e9e1b2db10b87fe630ce4a42d60a9f470612b12fbb9df711bbef4fe8136e7a17c9c192fb30985fc610ee6a62f62abf276672d14fdbfd9771db8f2f88730e1a77a9a1f29b50f83fa6708e0a02964adf074652f16ffbddb751fbaf0fa8532e3a578981d2bb70d81f8650ae2a22b66affe7a6b2118f1b3d57b11b4fef48b3cedab76961325b9038ff66b04ecac2568a1fc7869231af3b1d77913b6fcf6893eefa974941127bb018df46906eeae276aa3fa7e6f251cf5b7d17f15b0faf08f38e9af72921721bd078bf26f00e8a8216ca5f87c6d271ef7b5d37d17b2f8f28d3aebad70901523bf0589f06d02eaaa236ea7f672632910f9bbdd7319bcf6fc8334e5a37e9e1b2db10b87fe630ce4a42d60a9f470612b12fbb9df711bbef4fe8136e7a17c9c192fb30985fc610ee6a62f62abf276672d14fdbfd9771db8f2f88730e1a77a9a1f29b50f83fa6708e0a02964adf074652f16ffbddb751fbaf0fa8532e3a578981d2bb70d81f8650ae2a22b66affe7a6b2118f1b3d57b11b4fef48b3cedaf12cfe433e4b2a847f04e1fb7f41b23987da3a3fc0135c8089037452bf0bf34c",
        "type": "nulldata"
      }
    },
    {
      "value": 499993.8986,
      "n": 1,
      "scriptPubKey": {
        "asm": "1 f03fa3105b9635c86325031a567882d1b149c7d1757ab0c67c11d081bf022033",
        "hex": "5120f03fa3105b9635c86325031a567882d1b149c7d1757ab0c67c11d081bf022033",
        "reqSigs": 1,
        "type": "witness_v1_scripthash",
        "addresses": [
          "3QJmnh"
        ]
      }
    }
  ],
  "blockhash": "32a2d379a33ec88ae1cb3a8a1a44f2d12b76aebf574ecf7ac16b289397ed6cd9",
  "confirmations": 1,
  "time": 1764176557,
  "blocktime": 1764176557
}