{
  "hex": "01000000000101fe5eaf85a39bb58833768e5f95b3bc0204b1bdace848c5a9ffe7afc1a2dd71d80100000000feffffff0200e1f50500000000fdd5046a2046be70807e38d3bcf970ba0f20dd56fba19967d7941a97b7479c860f9bf573de4db0047644dd7a01361dabebec9e841853902f7bea63a62b43ae0992c7fe5527244a8b5664fd5a21163d8bcbccbea43873b00f5bca43860b638e29b2e7de7507046aab36049d3a41765debabacdec45813d06f3baa23e66b03ee49d287be1567640acb1624bd1a61567dcb8b8cfee47833f04f1b8a03c64b23ce69f2a79e3547442aebf6c45dfa81b69d2b6b6c1e0498d310affb6ae326abc32e8912477ed5a7a4ca0bd6e47ddaa196bd0b4b4c3e24b8f3308fdb4ac3068be30ea932675ef58784ea2bb6841dbac1f6dd6b2b2c5e44d89350efbb2aa366eb836ec952073e95e7e48a4b96a43d9ae1d6fd4b0b0c7e64f8b370cf9b0a8346cba34ee972271eb5c7c4aa6b7644dd7a01361dabebec9e841853902f7bea63a62b43ae0992c7fe5527244a8b5664fd5a21163d8bcbccbea43873b00f5bca43860b638e29b2e7de7507046aab36049d3a41765debabacdec45813d06f3baa23e66b03ee49d287be1567640acb1624bd1a61567dcb8b8cfee47833f04f1b8a03c64b23ce69f2a79e3547442aebf6c45dfa81b69d2b6b6c1e0498d310affb6ae326abc32e8912477ed5a7a4ca0bd6e47ddaa196bd0b4b4c3e24b8f3308fdb4ac3068be30ea932675ef58784ea2bb6841dbac1f6dd6b2b2c5e44d89350efbb2aa366eb836ec952073e95e7e48a4b96a43d9ae1d6fd4b0b0c7e64f8b370cf9b0a8346cba34ee972271eb5c7c4aa6b7644dd7a01361dabebec9e841853902f7bea63a62b43ae0992c7fe5527244a8b5664fd5a21163d8bcbccbea43873b00f5bca43860b638e29b2e7de7507046aab36049d3a41765debabacdec45813d06f3baa23e66b03ee49d287be1567640acb1624bd1a61567dcb8b8cfee47833f04f1b8a03c64b23ce69f2a79e3547442aebf6c45dfa81b69d2b6b6c1e0498d310affb6ae326abc32e8912477ed5a7a4ca0bd6e47ddaa196bd0b4b4c3e24b8f3308fdb4ac3068be30ea932675ef58784ea2bb6841dbac1f6dd6b2b2c5e44d89350efbb2aa366eb836ec952073e95e7e48a4b96a43d9ae1d6fd4b0b0c7e64f8b370cf9b0a8346cba34ee972271eb5c7c4aa6b7644dd7a01361dabebec9e841853902f7bea63a62b43ae0992c7fe5527244a8b5664fd5a21163d8bcbccbea43873b00f5bca43860b638e29b2e7de7507046aab36049d3a41765debabacdec45813d06f3baa23e66b03ee49d287be1567640acb1624bd1a61567dcb8b8cfee47833f04f1b8a03c64b23ce69f2a79e3547442aebf6c45dfa81b69d2b6b6c1e0498d310affb6ae326abc32e8912477ed5a7a4ca0bd6e47ddaa196bd0b4b4c3e24b8f3308fdb4ac3068be30ea932675ef58784ea2bb6841dbac1f6dd6b2b2c5e44d89350efbb2aa366eb836ec952073e95e7e48a4b96a43d9ae1d6fd4b0b0c7e64f8b370cf9b0a8346cba34ee972271eb5c7c4aa6b7644dd7a01361dabebec9e841853902f7bea63a62b43ae0992c7fe5527244a8b5664fd5a21163d8bcbccbea43873b00f5bca43860b638e29b2e7de7507046aab36049d3a41765debabacdec45813d06f3baa23e66b03ee49d287be1567640acb1624bd1a61567dcb8b8cfee47833f04f1b8a03c64b23ce69f2a79e3547442aebf6c45dfa81b69d2b6b6c1e0498d310af6d329e71e86bb9b2189cb94cb376c2abed0359fcc4889ed00e5c2cc75c8ec8fec0cc030f792d0000225120af878231338323c4a57bf5cc5b8a007eb1a4cc3d5f43ae1801604467bc0526f802fd75093c7ffb15e8e6a43ebba552e483583c5791204bef97b20cb236d621cfdef2a4c0f7279519083e7f42bd8606fb9210eac83537e6b5d61508d6147201b6a14100e1fbd84efc405a9521c57704108bd7d5b32338cf87d6779e8e708f3a99ef67f955018df3311cfe27f821de608f17390ea57ba9adbcf7793e28eafab0aac69707a076704e3082db162bec2be86518516233d97a810d88ffa85d88419866fcee79fe9448bad1eddd7f84e5a267abeceac44bbac64670424ee80125c15bed46dde54c25aca6a369d13f0de3be93121310f3fd8cadc0565f86e2e7bf9f89c6fb16bf067ff2ba1e4d32a9a8c5fbe69d79fccb361408f40752a2e8212111e8b476879cf29ce0ab97bf3e82363b0d12950c4ee3e91c98a24d3757ec49429ecd18d2505a00af2d6337e4e9031153731fecbbe7b5ca372645c499d88ba99f31a25c43cd47110695f0d4eae2e7d3ff22bae0d14acb7d27f44c94f417ac23870485502418de318e0e0346efc319f02da346fddf0e9cf1f17830418e48baffa51361458340482f0e6f206850d0d76922eeb89992435e02d537edbce93184cd638afc92f501367399df2815e6d8bc31772e4c520877c3b7184d5836b6966e7ebf233f372d4f647b91be46096cb7401a7b6b70016bf56e1cd0fb737e9e101c9ac65ecef9afd066512ae2b4cac051e669cf6e99d2494d7512c7171df06f4ac1ce1d93502e34d1f3ddd1022464caad8c7eca4f44b31654ab2dc3048e38c986374f31a1dddc0c885bb3592d46e68a0ade8d4ce4624957224592c12a0fd95f36dea5f22dd12ebab26f4d51fa910cbcd1317026e68504f68a9a7c2456d147717e01e9a3f141f0187d9259a4aca7758c6f29468fa2bf60c373b033dd0ee3979725265ca0f652ec2ba9972201e3b6b43c474be7fd4caf3d1ee141e56755ed93cc5501798acbb371fc8ab497eb751f700d79a044e4b522385feb7c8ccaa18c23b911287162c1490babc2d0be9ff8b4057f9b3250a20d1f905aea1845b725973446a0ec22aa1bee95c28e4b9427dc5ebf68ecbf98a6b5dee6c912721a0036be5b908a921c45500c7f28337291411656c07006cc37f8e81eb1ec07f642ccb488905a583a4ef91216aa41ac2d23e305fa50b26dcd3bbb626a1710603a791afa23fd37d58e25135a7e9825433971455793da81c2977fed261839e1d2042dd5167d33e879b02b096a212c4db257fe3f7c1185baa102fff99b5c826c96628e2dceae0d67e4ebba70b0df0a1ca7a052b13ca8923ae3b1d4ea2e911574651a2bb35ee5ad02171369541a4bf0b866b6e883d0495bf412832d00353559637f847528f7b79a7fdad01c3310bf8908bc2bcdadf8738804ccb3745c2eeeb938a4b45587d1b807920b944a846db58efb8a3b671ad1640aa655fb5c5a46e2d4db4a77472cdc990a5769d2686c568fe444bac8ea20ebb62133342c461fd28619645a553ca62afba1f483566b2326fc57a72dd2700e5d6c3140c9a4db3dfcbb6b306fa0c7d7a17e4bfdf0361d2b8e112aa4a6a018d02058a8af24339fff73a71b2087c789c366b86a5fee6c2c6a7b2f2ff693ca3d155aa2c1cec4a669fdaba5c43c68149f89fd31d6034ef6efc0a684e4f822cc005cfa0dc8c350935c85dd74c763aa48172341facad64b3089b749d92bf6fbe7de92c16ccc85ebf0cef064bc71216b01c7054e78dcd5d61d3af32a2b38206341416a3fe7c90d3724cea65d905e3d3c481205534a0932a8fb720ada05ff8bd91743bcbd88026c4f3a89eca31fe15a4150e77ac564faebd499fc9263ae976d677a20094cb29bb934b86aff22ca210cd5a363b99537ed9462fdc56b918b55077b3b477f625632ca11170307128e2898c15b615bc1d5cbed1974d5aaed0c841d5fd5ed0bbd27d872218c7b7097e9491015a143ba543890f630ba53dc103579a11fa3a44dddb54d4e5414297b4c632cccb06673bb8a10902c65ddbccbd36cbe5c0dd42b57e0fa0c7e9228a5c9896a65df0dca0ce6589d0749667bf53e1aa16fa9b9299a2d90ee392be8ff38f5610a8e14365a1f17948e4b49833f6771c1c15d61c168bf8cdde8630e7d6a577173d1039a3a8b4fb9ad9991c3292f8f94538af122d75f59613ae3feb1bf22e83d50b094165479cb3923cf7b5cdf34451eefc38b5a085caeaad315022980fce2bca18252ea5a5b67bb586f03f7873211eb8ec662be58e60038332892ff856e33b4fda59d0c6fc06f75b48c7c91c7939f875dc36ac64c57ed7ec199f3e86cdb293b7f8d41b1d81f3dea640fa207098bbb69ec28ce22f0887c08df8e107e5d3a5a7edbb72093422756379f97d68a3af4af33e835f1afea383bd7b76246731dde79986c01420bf366dbe1a9e3148c27e46ab21caf15d40ffdeb76986b5c182c4bf194dec8bd03acc4535906b4ad905f8e626e688494fb46fdb825604b5c6ecced1350adceb2afec523e74d828140ea73219f5538373fd5475449148dedef973553d9dc7164471105237a1751788b9224d3d11b886fec6cb44d8c7c1d8710aeec3f44536df9427f84bf1f861db69bc755842df0a5b9ea8b099fa85aec90d385e5f59f38badaa88787365d4b5662911e2bb4f1a5b226d94f8a500bc9e7e65153ec9b872ca09db5aa664d8bc6b7009a6c2105fef3caa0586cf1021765a8e064b37434f5ef52d67210596cefe09fad465050122da7ef15bef2a3828a36a7a624e4ea108823f3833577ead9480c4e8a6afc2cf8216562425dba0ec732238e3f4a9f2ddc5bf2214977697838fcfe03918a8e8b1c63d006d898f73b28a649be6030e79cf0e40d91f5c498840be664a661ba61ea0775739198f4446870477c9fd9625a3cc270e7b5a0b295c39eefed11ab168ee876ca56d8f9feba20be27bb51bf369539187bfa36334f89b7bacad45e8be119423298b875dca10a0a0cf18c82b45ddd2cdcd8b4545ea203ddd4875502182325fea4b855cdad6c29d15edb3746037f09685249532c90420d016012bfc02ea6c6f452a34c65c65720489fad7900640b49f5851ff833c5d7d123105614c95cc1c73c25f5ee38db0b84180b641f6a6e5172dd088add4de4e94b606366d4e05bfa49d5bd552afc986967a352bde55fe725411eedb5d1deb9e4c97c1275ff4df95f2d7b21ebf136f003b39f84a7f6ab658448b60f2e55451354f3b81bd0b6038ab80dc19084c5bec65a7e4db8bdc90b08d11993d3e15572ff01db3b1911b1e9829cc92e885bd6d1495244dc7003bfb6c525399cdec3d771d4a6073c3b103d14c2916f9c9badb8be7d7e557f3c413171c2e648fc3e1e5031214282a3848585b6b6f7e89adaebcc6ced7deee05070d384459648890a3dadee0040a10144e5e6066686f788ea5a8b0b6d4e8eafa0000000000000000000000000000000000091e2b3f01fd21050073ef1c8b9b146f1f6f203d7711c67482e06157a311f0bf96bfd020c011004e8d6a6a4ec93f4d094fabc2bf11d193f165e5fbf27f9b9bca7441ba8e23bdacb6c3236814b7d2679cdced4dd95103eac5fda35f12f1bcb8f7026f2329c5d3d8ebf431a170461c30b6051d78082d626d32e388276950bb0e0df8b63c66bd00f75d860ce42d9d29993354b842c0664a92a51dc5251d076d6e1ca320a21f3ed07531d89f0b00cdda27a3c821d284a674fd3b73296a89f6e62fee33586d5e98e511cf5ca3a9c9f6a1a3bad8fd53ba6a7caa4df5abd05a7f3b7ad75a7abbaa8a3f4d26f92a18ad9fafa3bfc9811419a7ca2049e4ab2eb83a2c79ae48aa0fbb7576485d9f77fc6ca36ab86bd16d31c698dea08d54ac349645ca6d35c8f697ff80314059a302e0540232c9d3b06f5cfa10d4fea5f250c29fa05abdf18a999df2ca05fe8d9dbd23286c450aadd4c44395967d0d36e00bd06d188ec5dc7f563284df26e0afabd982d0f2ead07baab9e46dcffe1c4e6788b77933a05e274296143ea09d96e793384224fd8604897136073d9d1ac1f88fe5e4ac6ec984a40c9417188a918ac2d8e79067b471ed9eaf3116f307aa9b3ef5eeab1b8778ec86ad3cf2e4cc8cde4fb64a044ead2656da25e55ce91e1d4d65af1b3e49d80ba546c4a2982c484e09acbbced8a04df8755ed9cf257a72939a786f9b2d2ad9ff379ad3cde7a20bbcf09a54aa9bec1e86d0f3fa7ff0ec874d989e74965eb95e40fbbb622a7bdafdc02461e533da94a54efce521adc210b4a3435e1183f3f91428e6262c8a7d9f1b34077ddbd6dfcba3e3ab74fda3c4ca78be77c2466b677a8e2ac018c9ffa19b1565f8600156318a230798397ab5b66e4b6c0bb2a80d57f6da7c5bbc676364265865827fee5cf309dd0a88112b8c981fd0a89b26ff927824a1224026f6f01461713e5c0e51c0d7d79a7992142052ae736d697d211bdfd4404b1da08f5ddb2febe90a5cc2e0913c1ebb550b60a3a4316e43bcc2a6b2fe76e318900635766ab0582a821645751732aecbb7d406bc3fe01aca33f19ec264f90bb795b457d306fb1ab749382d8f810f5fbfee5dc3b390376afaccf1b63cfacb1b73c5ef75012168dc46c48e1be1646519ccccbf0d4f37fcecb2da937e053c8d9f9f1a3b5f511a800780e1265e41120b5139880b86cfd42b1fed0053ab98fe2cd2232c6c92327d6810c36062265090ab513be2d936c4dc0a7576a485897be91fc860b86539e7fe526bac938e9c8463377fed5bd92b175d8e9a69cdf118d2b89da695934d40750fa905ea7544fd753496f71a28243db46beeb17c9797d597d54654ba67d0c5cdbfc453bd16ac8d09d1c2eb500b55ab8e74a642085a66a1c5ae6260740b6d2d13201ac9c615e835c010ca12c9015ba4e69c5ee76bb64aa3da43d1e9f00e4081728cccd5b3efc1151fc6d93d9a66100236e6c35408651deeb30db1b8024baa07bfceefab6281247d6f22d261276d5a68b35d9e16d94b2fbc27c4921d248ab038bedeb574b4b7aa39479283bc1fc740d167c2f4a6ee11377e3e9162c0b65df2f96ddb32d7e67fcbeea2fe1840138d939f892d252241013c1d24f645ab1b9c09e18f85d7dc790b681489055bd8ae6f7bb14eb9085e9064f0e614f0f9057515860b71daaa8cd3df5ef61b5995cb1d4a8eef79e90de236a5d28432444469176fee19942598978f02c2765be83d391da6e37c9f79efa1976f15a3e422da5ca0dc2077f857a4ba4765c0732328f3eef1f032ca2598bbbb7fd5738e0a93e57cf526d85bfcfa43700f49b6d77047138030df16fb1aa45a83f7ee1901fa362a57226af71dd136f40005b874d2aa76000000",
  "txid": "06ffbbf7b4042d3e50abf31ae352a04276a1509dcd2e1010368ee464ed178e00",
  "hash": "bf8d2578bb64231816dd573046c705023620555b7d6dfd35eee734cbf2ec24fe",
  "size": 5085,
  "vsize": 2278,
  "version": 1,
  "locktime": 118,
  "vin": [
    {
      "txid": "d871dda2c1afe7ffa9c548e8acbdb10402bcb3955f8e763388b59ba385af5efe",
      "vout": 1,
      "scriptSig": {
        "asm": "",
        "hex": ""
      },
      "txinwitness": [
        "3c7ffb15e8e6a43ebba552e483583c5791204bef97b20cb236d621cfdef2a4c0f7279519083e7f42bd8606fb9210eac83537e6b5d61508d6147201b6a14100e1fbd84efc405a9521c57704108bd7d5b32338cf87d6779e8e708f3a99ef67f955018df3311cfe27f821de608f17390ea57ba9adbcf7793e28eafab0aac69707a076704e3082db162bec2be86518516233d97a810d88ffa85d88419866fcee79fe9448bad1eddd7f84e5a267abeceac44bbac64670424ee80125c15bed46dde54c25aca6a369d13f0de3be93121310f3fd8cadc0565f86e2e7bf9f89c6fb16bf067ff2ba1e4d32a9a8c5fbe69d79fccb361408f40752a2e8212111e8b476879cf29ce0ab97bf3e82363b0d12950c4ee3e91c98a24d3757ec49429ecd18d2505a00af2d6337e4e9031153731fecbbe7b5ca372645c499d88ba99f31a25c43cd47110695f0d4eae2e7d3ff22bae0d14acb7d27f44c94f417ac23870485502418de318e0e0346efc319f02da346fddf0e9cf1f17830418e48baffa51361458340482f0e6f206850d0d76922eeb89992435e02d537edbce93184cd638afc92f501367399df2815e6d8bc31772e4c520877c3b7184d5836b6966e7ebf233f372d4f647b91be46096cb7401a7b6b70016bf56e1cd0fb737e9e101c9ac65ecef9afd066512ae2b4cac051e669cf6e99d2494d7512c7171df06f4ac1ce1d93502e34d1f3ddd1022464caad8c7eca4f44b31654ab2dc3048e38c986374f31a1dddc0c885bb3592d46e68a0ade8d4ce4624957224592c12a0fd95f36dea5f22dd12ebab26f4d51fa910cbcd1317026e68504f68a9a7c2456d147717e01e9a3f141f0187d9259a4aca7758c6f29468fa2bf60c373b033dd0ee3979725265ca0f652ec2ba9972201e3b6b43c474be7fd4caf3d1ee141e56755ed93cc5501798acbb371fc8ab497eb751f700d79a044e4b522385feb7c8ccaa18c23b911287162c1490babc2d0be9ff8b4057f9b3250a20d1f905aea1845b725973446a0ec22aa1bee95c28e4b9427dc5ebf68ecbf98a6b5dee6c912721a0036be5b908a921c45500c7f28337291411656c07006cc37f8e81eb1ec07f642ccb488905a583a4ef91216aa41ac2d23e305fa50b26dcd3bbb626a1710603a791afa23fd37d58e25135a7e9825433971455793da81c2977fed261839e1d2042dd5167d33e879b02b096a212c4db257fe3f7c1185baa102fff99b5c826c96628e2dceae0d67e4ebba70b0df0a1ca7a052b13ca8923ae3b1d4ea2e911574651a2bb35ee5ad02171369541a4bf0b866b6e883d0495bf412832d00353559637f847528f7b79a7fdad01c3310bf8908bc2bcdadf8738804ccb3745c2eeeb938a4b45587d1b807920b944a846db58efb8a3b671ad1640aa655fb5c5a46e2d4db4a77472cdc990a5769d2686c568fe444bac8ea20ebb62133342c461fd28619645a553ca62afba1f483566b2326fc57a72dd2700e5d6c3140c9a4db3dfcbb6b306fa0c7d7a17e4bfdf0361d2b8e112aa4a6a018d02058a8af24339fff73a71b2087c789c366b86a5fee6c2c6a7b2f2ff693ca3d155aa2c1cec4a669fdaba5c43c68149f89fd31d6034ef6efc0a684e4f822cc005cfa0dc8c350935c85dd74c763aa48172341facad64b3089b749d92bf6fbe7de92c16ccc85ebf0cef064bc71216b01c7054e78dcd5d61d3af32a2b38206341416a3fe7c90d3724cea65d905e3d3c481205534a0932a8fb720ada05ff8bd91743bcbd88026c4f3a89eca31fe15a4150e77ac564faebd499fc9263ae976d677a20094cb29bb934b86aff22ca210cd5a363b99537ed9462fdc56b918b55077b3b477f625632ca11170307128e2898c15b615bc1d5cbed1974d5aaed0c841d5fd5ed0bbd27d872218c7b7097e9491015a143ba543890f630ba53dc103579a11fa3a44dddb54d4e5414297b4c632cccb06673bb8a10902c65ddbccbd36cbe5c0dd42b57e0fa0c7e9228a5c9896a65df0dca0ce6589d0749667bf53e1aa16fa9b9299a2d90ee392be8ff38f5610a8e14365a1f17948e4b49833f6771c1c15d61c168bf8cdde8630e7d6a577173d1039a3a8b4fb9ad9991c3292f8f94538af122d75f59613ae3feb1bf22e83d50b094165479cb3923cf7b5cdf34451eefc38b5a085caeaad315022980fce2bca18252ea5a5b67bb586f03f7873211eb8ec662be58e60038332892ff856e33b4fda59d0c6fc06f75b48c7c91c7939f875dc36ac64c57ed7ec199f3e86cdb293b7f8d41b1d81f3dea640fa207098bbb69ec28ce22f0887c08df8e107e5d3a5a7edbb72093422756379f97d68a3af4af33e835f1afea383bd7b76246731dde79986c01420bf366dbe1a9e3148c27e46ab21caf15d40ffdeb76986b5c182c4bf194dec8bd03acc4535906b4ad905f8e626e688494fb46fdb825604b5c6ecced1350adceb2afec523e74d828140ea73219f5538373fd5475449148dedef973553d9dc7164471105237a1751788b9224d3d11b886fec6cb44d8c7c1d8710aeec3f44536df9427f84bf1f861db69bc755842df0a5b9ea8b099fa85aec90d385e5f59f38badaa88787365d4b5662911e2bb4f1a5b226d94f8a500bc9e7e65153ec9b872ca09db5aa664d8bc6b7009a6c2105fef3caa0586cf1021765a8e064b37434f5ef52d67210596cefe09fad465050122da7ef15bef2a3828a36a7a624e4ea108823f3833577ead9480c4e8a6afc2cf8216562425dba0ec732238e3f4a9f2ddc5bf2214977697838fcfe03918a8e8b1c63d006d898f73b28a649be6030e79cf0e40d91f5c498840be664a661ba61ea0775739198f4446870477c9fd9625a3cc270e7b5a0b295c39eefed11ab168ee876ca56d8f9feba20be27bb51bf369539187bfa36334f89b7bacad45e8be119423298b875dca10a0a0cf18c82b45ddd2cdcd8b4545ea203ddd4875502182325fea4b855cdad6c29d15edb3746037f09685249532c90420d016012bfc02ea6c6f452a34c65c65720489fad7900640b49f5851ff833c5d7d123105614c95cc1c73c25f5ee38db0b84180b641f6a6e5172dd088add4de4e94b606366d4e05bfa49d5bd552afc986967a352bde55fe725411eedb5d1deb9e4c97c1275ff4df95f2d7b21ebf136f003b39f84a7f6ab658448b60f2e55451354f3b81bd0b6038ab80dc19084c5bec65a7e4db8bdc90b08d11993d3e15572ff01db3b1911b1e9829cc92e885bd6d1495244dc7003bfb6c525399cdec3d771d4a6073c3b103d14c2916f9c9badb8be7d7e557f3c413171c2e648fc3e1e5031214282a3848585b6b6f7e89adaebcc6ced7deee05070d384459648890a3dadee0040a10144e5e6066686f788ea5a8b0b6d4e8eafa0000000000000000000000000000000000091e2b3f01",
        "0073ef1c8b9b146f1f6f203d7711c67482e06157a311f0bf96bfd020c011004e8d6a6a4ec93f4d094fabc2bf11d193f165e5fbf27f9b9bca7441ba8e23bdacb6c3236814b7d2679cdced4dd95103eac5fda35f12f1bcb8f7026f2329c5d3d8ebf431a170461c30b6051d78082d626d32e388276950bb0e0df8b63c66bd00f75d860ce42d9d29993354b842c0664a92a51dc5251d076d6e1ca320a21f3ed07531d89f0b00cdda27a3c821d284a674fd3b73296a89f6e62fee33586d5e98e511cf5ca3a9c9f6a1a3bad8fd53ba6a7caa4df5abd05a7f3b7ad75a7abbaa8a3f4d26f92a18ad9fafa3bfc9811419a7ca2049e4ab2eb83a2c79ae48aa0fbb7576485d9f77fc6ca36ab86bd16d31c698dea08d54ac349645ca6d35c8f697ff80314059a302e0540232c9d3b06f5cfa10d4fea5f250c29fa05abdf18a999df2ca05fe8d9dbd23286c450aadd4c44395967d0d36e00bd06d188ec5dc7f563284df26e0afabd982d0f2ead07baab9e46dcffe1c4e6788b77933a05e274296143ea09d96e793384224fd8604897136073d9d1ac1f88fe5e4ac6ec984a40c9417188a918ac2d8e79067b471ed9eaf3116f307aa9b3ef5eeab1b8778ec86ad3cf2e4cc8cde4fb64a044ead2656da25e55ce91e1d4d65af1b3e49d80ba546c4a2982c484e09acbbced8a04df8755ed9cf257a72939a786f9b2d2ad9ff379ad3cde7a20bbcf09a54aa9bec1e86d0f3fa7ff0ec874d989e74965eb95e40fbbb622a7bdafdc02461e533da94a54efce521adc210b4a3435e1183f3f91428e6262c8a7d9f1b34077ddbd6dfcba3e3ab74fda3c4ca78be77c2466b677a8e2ac018c9ffa19b1565f8600156318a230798397ab5b66e4b6c0bb2a80d57f6da7c5bbc676364265865827fee5cf309dd0a88112b8c981fd0a89b26ff927824a1224026f6f01461713e5c0e51c0d7d79a7992142052ae736d697d211bdfd4404b1da08f5ddb2febe90a5cc2e0913c1ebb550b60a3a4316e43bcc2a6b2fe76e318900635766ab0582a821645751732aecbb7d406bc3fe01aca33f19ec264f90bb795b457d306fb1ab749382d8f810f5fbfee5dc3b390376afaccf1b63cfacb1b73c5ef75012168dc46c48e1be1646519ccccbf0d4f37fcecb2da937e053c8d9f9f1a3b5f511a800780e1265e41120b5139880b86cfd42b1fed0053ab98fe2cd2232c6c92327d6810c36062265090ab513be2d936c4dc0a7576a485897be91fc860b86539e7fe526bac938e9c8463377fed5bd92b175d8e9a69cdf118d2b89da695934d40750fa905ea7544fd753496f71a28243db46beeb17c9797d597d54654ba67d0c5cdbfc453bd16ac8d09d1c2eb500b55ab8e74a642085a66a1c5ae6260740b6d2d13201ac9c615e835c010ca12c9015ba4e69c5ee76bb64aa3da43d1e9f00e4081728cccd5b3efc1151fc6d93d9a66100236e6c35408651deeb30db1b8024baa07bfceefab6281247d6f22d261276d5a68b35d9e16d94b2fbc27c4921d248ab038bedeb574b4b7aa39479283bc1fc740d167c2f4a6ee11377e3e9162c0b65df2f96ddb32d7e67fcbeea2fe1840138d939f892d252241013c1d24f645ab1b9c09e18f85d7dc790b681489055bd8ae6f7bb14eb9085e9064f0e614f0f9057515860b71daaa8cd3df5ef61b5995cb1d4a8eef79e90de236a5d28432444469176fee19942598978f02c2765be83d391da6e37c9f79efa1976f15a3e422da5ca0dc2077f857a4ba4765c0732328f3eef1f032ca2598bbbb7fd5738e0a93e57cf526d85bfcfa43700f49b6d77047138030df16fb1aa45a83f7ee1901fa362a57226af71dd136f40005b874d2aa"
      ],
      "sequence": 4294967294
    }
  ],
  "vout": [
    {
      "value": 1.0,
      "n": 0,
      "scriptPubKey": {
        "asm": "OP_RETURN 46be70807e38d3bcf970ba0f20dd56fba19967d7941a97b7479c860f9bf573de 7644dd7a01361dabebec9e841853902f7bea63a62b43ae0992c7fe5527244a8b5664fd5a21163d8bcbccbea43873b00f5bca43860b638e29b2e7de7507046aab36049d3a41765debabacdec45813d06f3baa23e66b03ee49d287be1567640acb1624bd1a61567dcb8b8cfee47833f04f1b8a03c64b23ce69f2a79e3547442aebf6c45dfa81b69d2b6b6c1e0498d310affb6ae326abc32e8912477ed5a7a4ca0bd6e47ddaa196bd0b4b4c3e24b8f3308fdb4ac3068be30ea932675ef58784ea2bb6841dbac1f6dd6b2b2c5e44d89350efbb2aa366eb836ec952073e95e7e48a4b96a43d9ae1d6fd4b0b0c7e64f8b370cf9b0a8346cba34ee972271eb5c7c4aa6b7644dd7a01361dabebec9e841853902f7bea63a62b43ae0992c7fe5527244a8b5664fd5a21163d8bcbccbea43873b00f5bca43860b638e29b2e7de7507046aab36049d3a41765debabacdec45813d06f3baa23e66b03ee49d287be1567640acb1624bd1a61567dcb8b8cfee47833f04f1b8a03c64b23ce69f2a79e3547442aebf6c45dfa81b69d2b6b6c1e0498d310affb6ae326abc32e8912477ed5a7a4ca0bd6e47ddaa196bd0b4b4c3e24b8f3308fdb4ac3068be30ea932675ef58784ea2bb6841dbac1f6dd6b2b2c5e44d89350efbb2aa366eb836ec952073e95e7e48a4b96a43d9ae1d6fd4b0b0c7e64f8b370cf9b0a8346cba34ee972271eb5c7c4aa6b7644dd7a01361dabebec9e841853902f7bea63a62b43ae0992c7fe5527244a8b5664fd5a21163d8bcbccbea43873b00f5bca43860b638e29b2e7de7507046aab36049d3a41765debabacdec45813d06f3baa23e66b03ee49d287be1567640acb1624bd1a61567dcb8b8cfee47833f04f1b8a03c64b23ce69f2a79e3547442aebf6c45dfa81b69d2b6b6c1e0498d310affb6ae326abc32e8912477ed5a7a4ca0bd6e47ddaa196bd0b4b4c3e24b8f3308fdb4ac3068be30ea932675ef58784ea2bb6841dbac1f6dd6b2b2c5e44d89350efbb2aa366eb836ec952073e95e7e48a4b96a43d9ae1d6fd4b0b0c7e64f8b370cf9b0a8346cba34ee972271eb5c7c4aa6b7644dd7a01361dabebec9e841853902f7bea63a62b43ae0992c7fe5527244a8b5664fd5a21163d8bcbccbea43873b00f5bca43860b638e29b2e7de7507046aab36049d3a41765debabacdec45813d06f3baa23e66b03ee49d287be1567640acb1624bd1a61567dcb8b8cfee47833f04f1b8a03c64b23ce69f2a79e3547442aebf6c45dfa81b69d2b6b6c1e0498d310affb6ae326abc32e8912477ed5a7a4ca0bd6e47ddaa196bd0b4b4c3e24b8f3308fdb4ac3068be30ea932675ef58784ea2bb6841dbac1f6dd6b2b2c5e44d89350efbb2aa366eb836ec952073e95e7e48a4b96a43d9ae1d6fd4b0b0c7e64f8b370cf9b0a8346cba34ee972271eb5c7c4aa6b7644dd7a01361dabebec9e841853902f7bea63a62b43ae0992c7fe5527244a8b5664fd5a21163d8bcbccbea43873b00f5bca43860b638e29b2e7de7507046aab36049d3a41765debabacdec45813d06f3baa23e66b03ee49d287be1567640acb1624bd1a61567dcb8b8cfee47833f04f1b8a03c64b23ce69f2a79e3547442aebf6c45dfa81b69d2b6b6c1e0498d310af6d329e71e86bb9b2189cb94cb376c2abed0359fcc4889ed00e5c2cc75c8ec8fe",
        "hex": "6a2046be70807e38d3bcf970ba0f20dd56fba19967d7941a97b7479c860f9bf573de4db0047644dd7a01361dabebec9e841853902f7bea63a62b43ae0992c7fe5527244a8b5664fd5a21163d8bcbccbea43873b00f5bca43860b638e29b2e7de7507046aab36049d3a41765debabacdec45813d06f3baa23e66b03ee49d287be1567640acb1624bd1a61567dcb8b8cfee47833f04f1b8a03c64b23ce69f2a79e3547442aebf6c45dfa81b69d2b6b6c1e0498d310affb6ae326abc32e8912477ed5a7a4ca0bd6e47ddaa196bd0b4b4c3e24b8f3308fdb4ac3068be30ea932675ef58784ea2bb6841dbac1f6dd6b2b2c5e44d89350efbb2aa366eb836ec952073e95e7e48a4b96a43d9ae1d6fd4b0b0c7e64f8b370cf9b0a8346cba34ee972271eb5c7c4aa6b7644dd7a01361dabebec9e841853902f7bea63a62b43ae0992c7fe5527244a8b5664fd5a21163d8bcbccbea43873b00f5bca43860b638e29b2e7de7507046aab36049d3a41765debabacdec45813d06f3baa23e66b03ee49d287be1567640acb1624bd1a61567dcb8b8cfee47833f04f1b8a03c64b23ce69f2a79e3547442aebf6c45dfa81b69d2b6b6c1e0498d310affb6ae326abc32e8912477ed5a7a4ca0bd6e47ddaa196bd0b4b4c3e24b8f3308fdb4ac3068be30ea932675ef58784ea2bb6841dbac1f6dd6b2b2c5e44d89350efbb2aa366eb836ec952073e95e7e48a4b96a43d9ae1d6fd4b0b0c7e64f8b370cf9b0a8346cba34ee972271eb5c7c4aa6b7644dd7a01361dabebec9e841853902f7bea63a62b43ae0992c7fe5527244a8b5664fd5a21163d8bcbccbea43873b00f5bca43860b638e29b2e7de7507046aab36049d3a41765debabacdec45813d06f3baa23e66b03ee49d287be1567640acb1624bd1a61567dcb8b8cfee47833f04f1b8a03c64b23ce69f2a79e3547442aebf6c45dfa81b69d2b6b6c1e0498d310affb6ae326abc32e8912477ed5a7a4ca0bd6e47ddaa196bd0b4b4c3e24b8f3308fdb4ac3068be30ea932675ef58784ea2bb6841dbac1f6dd6b2b2c5e44d89350efbb2aa366eb836ec952073e95e7e48a4b96a43d9ae1d6fd4b0b0c7e64f8b370cf9b0a8346cba34ee972271eb5c7c4aa6b7644dd7a01361dabebec9e841853902f7bea63a62b43ae0992c7fe5527244a8b5664fd5a21163d8bcbccbea43873b00f5bca43860b638e29b2e7de7507046aab36049d3a41765debabacdec45813d06f3baa23e66b03ee49d287be1567640acb1624bd1a61567dcb8b8cfee47833f04f1b8a03c64b23ce69f2a79e3547442aebf6c45dfa81b69d2b6b6c1e0498d310affb6ae326abc32e8912477ed5a7a4ca0bd6e47ddaa196bd0b4b4c3e24b8f3308fdb4ac3068be30ea932675ef58784ea2bb6841dbac1f6dd6b2b2c5e44d89350efbb2aa366eb836ec952073e95e7e48a4b96a43d9ae1d6fd4b0b0c7e64f8b370cf9b0a8346cba34ee972271eb5c7c4aa6b7644dd7a01361dabebec9e841853902f7bea63a62b43ae0992c7fe5527244a8b5664fd5a21163d8bcbccbea43873b00f5bca43860b638e29b2e7de7507046aab36049d3a41765debabacdec45813d06f3baa23e66b03ee49d287be1567640acb1624bd1a61567dcb8b8cfee47833f04f1b8a03c64b23ce69f2a79e3547442aebf6c45dfa81b69d2b6b6c1e0498d310af6d329e71e86bb9b2189cb94cb376c2abed0359fcc4889ed00e5c2cc75c8ec8fe",
        "type": "nulldata"
      }
    },
    {
      "value": 499979.662,
      "n": 1,
      "scriptPubKey": {
        "asm": "1 af878231338323c4a57bf5cc5b8a007eb1a4cc3d5f43ae1801604467bc0526f8",
        "hex": "5120af878231338323c4a57bf5cc5b8a007eb1a4cc3d5f43ae1801604467bc0526f8",
        "reqSigs": 1,
        "type": "witness_v1_scripthash",
        "addresses": [
          "3QJmnh"
        ]
      }
    }
  ],
  "blockhash": "c592ff09702ccc153ea7e0356b0e5a10b37ebf9436b5bd4870b29e5d1c636d36",
  "confirmations": 1,
  "time": 1764179615,
  "blocktime": 1764179615
}