{
  "hex": "01000000000101edd90b60dd4536c846623455536364c84c9daf2c7bdf830f0622ff1bc55497210000000000feffffff0200e1f50500000000fdd5046a2019810b67572f549df2bd8d95bafa68016130dba5829093d283b40ac3333a26a64db004fdda68a16bd28f1a22bcb96de4a0b626bea36afa9751a2d7a2a073e2adb3e6c9ddfa48814bf2af3a029c994dc48096069e834adab77182f7828053c28d93c6e9bd9a28e12b92cf5a62fcf92da4e0f666fee32abad711e297e2e033a2edf3a6899dba08c10bb2ef7a42dcd90d84c0d646dec30a9af731c2b7c2c01382cdd386a97d5ae821eb520f9aa23c39ed642036a63e23ea7a17d122572220f3622d3366495d7ac801cb722fba821c19cd440016861e03ca5a37f102770200d3420d1346693d1aa861ab124fdae27c79ad246076e67e63aa3a579162176260b3226d7326091d3a88418b326ffac25c598d044056c65e438a1a77b14237424093024d530629fdda68a16bd28f1a22bcb96de4a0b626bea36afa9751a2d7a2a073e2adb3e6c9ddfa48814bf2af3a029c994dc48096069e834adab77182f7828053c28d93c6e9bd9a28e12b92cf5a62fcf92da4e0f666fee32abad711e297e2e033a2edf3a6899dba08c10bb2ef7a42dcd90d84c0d646dec30a9af731c2b7c2c01382cdd386a97d5ae821eb520f9aa23c39ed642036a63e23ea7a17d122572220f3622d3366495d7ac801cb722fba821c19cd440016861e03ca5a37f102770200d3420d1346693d1aa861ab124fdae27c79ad246076e67e63aa3a579162176260b3226d7326091d3a88418b326ffac25c598d044056c65e438a1a77b14237424093024d530629fdda68a16bd28f1a22bcb96de4a0b626bea36afa9751a2d7a2a073e2adb3e6c9ddfa48814bf2af3a029c994dc48096069e834adab77182f7828053c28d93c6e9bd9a28e12b92cf5a62fcf92da4e0f666fee32abad711e297e2e033a2edf3a6899dba08c10bb2ef7a42dcd90d84c0d646dec30a9af731c2b7c2c01382cdd386a97d5ae821eb520f9aa23c39ed642036a63e23ea7a17d122572220f3622d3366495d7ac801cb722fba821c19cd440016861e03ca5a37f102770200d3420d1346693d1aa861ab124fdae27c79ad246076e67e63aa3a579162176260b3226d7326091d3a88418b326ffac25c598d044056c65e438a1a77b14237424093024d530629fdda68a16bd28f1a22bcb96de4a0b626bea36afa9751a2d7a2a073e2adb3e6c9ddfa48814bf2af3a029c994dc48096069e834adab77182f7828053c28d93c6e9bd9a28e12b92cf5a62fcf92da4e0f666fee32abad711e297e2e033a2edf3a6899dba08c10bb2ef7a42dcd90d84c0d646dec30a9af731c2b7c2c01382cdd386a97d5ae821eb520f9aa23c39ed642036a63e23ea7a17d122572220f3622d3366495d7ac801cb722fba821c19cd440016861e03ca5a37f102770200d3420d1346693d1aa861ab124fdae27c79ad246076e67e63aa3a579162176260b3226d7326091d3a88418b326ffac25c598d044056c65e438a1a77b14237424093024d530629fdda68a16bd28f1a22bcb96de4a0b626bea36afa9751a2d7a2a073e2adb3e6c9ddfa48814bf2af3a029c994dc48096069e834adab77182f7828053c28d93c6e9bd9a28e12b92cf5a62fcf92da4e0f666fee32abad711e297e2e033a2edf3a6899dba08c10bb2ef7a42dcd90d84c0d646dec30a9af731c2b7c2c01382cdd386a97d5ae821eb520f9aa23c39ed642036a6014f671ee4f6f5a43a2b20f77c058f4f9645d676d07acb486a47cbe486c2b65e6076a04b792d0000225120c4d93dbc8b842f42575b2e6d3566f770e6365412e1fafa29bc60427b3032370e02fd75094776c468aefbea60cc3730bbe77f1e993f4f3082ad25bd3c996c023f5e6049b4f9dff11eb8699162dc7082b2f744f76bb97fdfd7741eb469697fe637e9a48988733510be00985faf4868281ec97b8c04056b2123e01158274fe5e825545abfb9ad1f3b114de093998dab476bc76a5491a1f7919859f8de7f6fdb1f89e5cea529e53627d3175d8663a9bf422aebd8c9e6745b1bf78b1a68a6e6f06055441bba9cf71c5b5a2b3d66dd4eb846861a367756a41c62d9fa79f2ba4d6218799f61ef8898723c9a3dcba9c3bfbc7db0355ba9f5b2f35bee666ffb4ef1e140939a408714b74803710d1b76bf736e2a4c240f3f8bce9d09bf0ed79d1b1135fe49231c3cca6673628512e75964ffed9b2b02e84c8113f582a6c5c63a3b2a0a3a7a1dce4d92cf3614d443729c7c868baffaa4e61ab136706087bd1558130632b885fc352a1258d7998ebdc755bccf16ca4b4dfb32426ec3f9d84f4456126da1c273c412130158152671b92d650ae43c6bdd572a61a5a2d4dc3e40143fae099554b822dce93abfb47a41b506446040945a7a642ad5d2f6c68e6b6a6ca3fce81399df44f19a6ac2f797bfd9be83e5365c1e4573e7dae4c079e04ebe90a0c3d9bb5a89dfcfd6773182776f1e3959b34e5ff31d9ddd0d74ceaef72b354f2e75ad474d31525204add4722a11f93caa517150d71b7a077783de2f76dac9b1d152aebdfdcd23277a17bbf285c79297e13899d37329bf443847ec9e4a3505c94ef95936afd7df2fb70e71522d5bbd6e9cd95c4961c483f6d0ed3536c484a2817d7015fd7675024c51f29229494fee9c43911168f1965b0220409bc59dfea5f981da36b46670354267ac8c210f4d2be4a59d8468c02da2e83fb457bfcf281564fc817d04502851b392579e839e0d6d1ed1648b5ce62fac7e60b5fb0264abbe8e955c5c07cbee6d57237e99b92d86c3062809644a855b769a0b94850865d40fe3a449439f7b6df968269f6f2857306c3b0984645d89a5b652371c2f9ddc58fdec7a7e2b175814bced76c2d741c10dc72f57de7584495d64880edc7842d71c446c70dea5534de1a55331e354de5ea81b538a5b80cb1a863d17a0e1f2231d4704ba292fb339c322c63022583c2a21b8369e4537768082de3d5de8988893a7c59a79ce6fe9107a1b9fdb3b469cc469872f0d8bca268798698851aba60b0bf22ef142602a3a4419b73a988ab344dd4e23cf9a26cb7672531c9dedb83838092879d97a1fa728d2b9df6f04b237f1423ca10f3eb72a00aca2c08a74d13b113dfa9688d83a08115117f60dde18f960c3ce6f6485d2364adf5e5785f2c78b452c242ee7bbf29792ca5d7572117ac1bce5125204109daf7fccc8eeb63ef37752b6df734f20300a219123bfc04f10c892229464cb3dbdf186790839a094247de7685475da3fecdab1de3d257c6d502b318ac1783e399075f65ccd738863ecbbc5ecbc6b8323fed454000e1a29ceac4fc2b22839cb2c811a5f806a415df8c256e5696b5701e3a1f2a64cc6bafec8579b1ddcfff12efbae78f2dba7d338c8c5295a3f365ba7379fa39d189a15cf2162b2d2f55643e5b7e0bdcd8d1c341b8f7486fc59e8774920364138c3fa0f294238eafc7290ea6fdc298b5431f382766b4fc10cf4c08977874c90e769848b756cd9ab66964b5339fa942f7b255a5a1e4cc105c4af7e403f4f209a75a19812c36b4ee040f5ba6ef5db4093e6e0d39b2ba54622f3c2e88f7a853d891fe40c9993e0c741bdc404b35c7d779640c1670b743c6c55ae633bc7b833237af50d7ca5935db1a2e85d50b77244604b7104121c1d54fbbc4233b5f816bb406f9dae5edc43e3c1b0ad67d951f4e06468e9296b8e7f9971f08bf580c9122527240dd7f9dbb07adff7c059497be41174b75a60055cf019dbc1900c056a1fa2c4ed51e89ec1a3221ee78eee3100a4ca12a639ba432add570cb190ad0bf31c623c4d429d9b5dc068538c57c254556c6cdd3828eddf1271f83b6354492420626683539329ff41147c2fb80e34151c72e18ee52dc2eb439ffdd178d05b46ffcc5bd10c9a8ef4aa159581e7867a0575fb849f8bddceae419a09b32981938dbefd04f9ce66158d5d34c9c8271a806a3a9ca0765dd5e87172726fb23d896cddb6f11569489bf6741ba4692ba2c72e79b4f2d975f2ed36e2acd0fe4b6c581365dcf94f91bd7793064cc83a692d7186956a7d7f33bc520cd4c85f90f112e91a03a127f48dd42c475b547d012551416015984984e3cd093de5fc4d4ce4641e4abecfb5113b8c69fad3b793ee5a5c250f858fa04d1be1d22c39c1b62bec7bd9571ce9302cb38e719d7727f9702aaa4b3f627dd1016885fb4e16ead17f2950ddcd31d69b011eb4e6fdccda671892a3b4824befcd43c33cd77183a66a24f29e5acf1b94b7bb863e687a01d8bc6e46408337e06da3bfe827211fdd10686b5ab495e44e48732f1273181004986ceeda8c46d7d3f5cee5423cbc39b4518aa6ffeca7b95e38a274603638fb013e84d069faa978479883cdf0bfd913d1da28bba08429ee03d0c3305c08338f8f2d66ccd685d1312b2f3d65752e3bf422f1d70e247c45dc70ef2215c1f40172ca864716c14cc395a5217bacc962ac06cf982afd49499a1f5ddde829a0e65f81de4e891c672f99b94869c8f786947dab3261acd359317f3a3139d46ddd6210d227acffad2f778087929324524026c9041ecdf1a7a3f00808b282d8c4c3522b38b4911464e2899e15def6c65c3fff5d42745b15d88718b46255375dd5a092e3a44f1c96398ba302ef5149d42082bd81587dac973709ce82965a22571a21218001e2750c3821529da05f5c6798baa468f00b52ab1e8b6706ff4c4ecccf22815ea1492b3ef4fa53232234787d38df29b65f85380c687a60bc927cee7d323538e349efbecbd19fd3d047d6e97335c31f3054de907e41713e81c0ecce3ba61354cfca3a2b74c625290c399894fd5d818597df08702823cef756e5b147bd44fed1d2815572414aa106e5eada29230b92c5222a735272bdf7875fea8452434433fffd01bbc6c8af7f753fe8243496c1197f26748979818e25ad509332aa003b5ed18b7c82cd4e1c4b0a32553e5ee3c0720987d2e27a019225bf3e453cd50544f6c27d45cfdecea4f5155b1500e2c6404adece1f574ac6442ad1e4f360441a3a6bb389a89ea5c6748f14f0e2e04540682fce8aba0b8b7f19a1cd713f14547179f2b16e5bb1739eb36597ae674378ca707e3ae3341ec6d8bba04d2ed3b7a99352e8b4a3f6ec99ae18c36a0a1f29535d6676797a9fbcccd1e2e5ebfe1c334f5d6770ccd90f111e262c2d2e3a434d565c8ab3bdc3d4d7dee20b101b1c4254727887aeb6f9000000000000000000000000000000000000000000000011192d3901fd210500c94ba4b76f21325cd3e51a7a72b0cca6c9c614d00988e46b177bfce426f55d784d3039a3ddea0b6f47437a7db8dcaead5908329b2c0ecf445c2b8f594d7985be5cb64e4cc9558b3464de87dacfcc543745abb47df2378eaaaa0822e6045ec9b89d25203da0ed4dbcb512105fdc9da3c067b4671b3e971b7ee95aeb214d49b3bda690466d9ec37fda0e1e8d8baad21a2c3aeafce0dfc428f1c7775203c13b82c4655efcbe0683d12d7547c2b41aeb78659d841d16210474acefd0cafd9d59a97181932cbc336bb7a6ded97b0abd1b8f08e015790169ff96796d6f6fcfc12d182b94d2e987e31c3437f4b5ba2eff6dc8aac53c6975ab73144589a5012616acb0ddc6b56207496fac88137c0efc56b5bbc7765323695b322055d6f073f091134989f8a069ec67b142a5f86622bcb95335761fb51b2fe62717e3ec7e5d01f18cc83b97c9adac712cb974aeee1e510dd6568d2d24e527a50a7e90455fefc43b698fbcfe1d8e0d704b22bd31a274caeccf38204ad5fabd78274c284f0f3db7a7525f2550056e55b818903c34377b1cbe3bf714cd9c949fcd0b271fa762f85964558042d51297c749dcbfc0112f1bb5c35c462fb8c8820071c01da57752cbea91f7e775bb45b68373a009ce4a07011e94eb582d46cece8de6f204ead01202699ab69f5fa247841d93922fb26ed585dbf2e706b5b215e93aecb53b0b878bf4895b6d421ee77ae0dfd763a34816f653d60bd9375dee3b57eafe6e3ded19b502baee58398932bf54b929672c842e280b2f1db674c13bfcfdfed9bc812cd92748ff24c13b73580bfd881510fde60045245583dc2ace63f06cc09b9d22332f2baaa2f615b599fdd12c4aa3660b01c0f370ca2f635a32f0246746124c19e1bc260e4fdb7198e52e016d424141722b4713e75c75a12e5890ed404acf596621084981790f55375cb43a88e1b789abc8d5824e0359f0459957db82fde34c5d5d9721aa93a5a590574ae0e4de317b7853dbdb7d29873d6849f884c660ef85a2c017856f7918ffa7a07e9bbf85ce4a7d2316b4efcf167c82df1f1bb96dc616a49aec2bf3fead15ecc810e812b145b8fd38b1760efe67c640babd066e27e508164e6ca97f25e6cc1892a26bc60ced86c55a2271224f56899c677e38051762d328abb58cca269667a2e712f489416f85175d7b55d8397d74bf75f09cc724f0823ffa103c155526289e245e3b9e7b806db0c6a44741d9f8e99e11afcb285fc7f607a9c59f9086315a0f6f37be21f815d3014b0f7638ce92d34171238a485593d5f5c50cf437f7c55f60c988494ddb02bdca756366a4fb71db9af855eab2508758b74aae5db1dd0e26e2562d2232630aba00a4f5116e004cfb5afc62e1dd6b78c971ab95e8c6d8254aeaa4d5a7a89c15937833db3ae8ed3edf8812c95e8edc8b8a6998ce931eb709283e6eaef9e4808916cc8ad30f73c13ec84f2b3fbb81e4a2c38d5748590e385da2464dc5d083d0e27bbada9cdf74a4b5659a9727fc7d4394bdbd69e152a734280e6275a3158b386c66e50f994fc00ea1d4a126a1e6a4162fd80205472a450197005ac1755988defd28ee520c7efd577f532ae6bb2d8c2978d878a57bf893d27c8eb6ead7b559f783a597455ed6982c30e5a1057f26d7ca61b9b180bfa92c0d6038d160d4171ae9576b3bb440a6c944467e24f65775e52330c448a4ad48089eea617d41ffa777f7e3730fd12182201f9501a2a188c330f55becb07d152868bbb5afa9fef74a2bfa0b978d42767524071acb352af5aec77aaf449f6ed90778d882796bac44545b1fee0ed86c0091066f80df106cecab5987bf68f9682ccc45884025ea616d000000",
  "txid": "0d165f9f1c50e6a7b66e98b44668272c42c07ab8de53b3bbf38296a7ef4bbb57",
  "hash": "488ee10396d9073a50b0b50f01e0233c64f576403b6d0ebc4f1b513faa4aeba1",
  "size": 5085,
  "vsize": 2278,
  "version": 1,
  "locktime": 109,
  "vin": [
    {
      "txid": "219754c51bff22060f83df7b2caf9d4cc864635355346246c83645dd600bd9ed",
      "vout": 0,
      "scriptSig": {
        "asm": "",
        "hex": ""
      },
      "txinwitness": [
        "4776c468aefbea60cc3730bbe77f1e993f4f3082ad25bd3c996c023f5e6049b4f9dff11eb8699162dc7082b2f744f76bb97fdfd7741eb469697fe637e9a48988733510be00985faf4868281ec97b8c04056b2123e01158274fe5e825545abfb9ad1f3b114de093998dab476bc76a5491a1f7919859f8de7f6fdb1f89e5cea529e53627d3175d8663a9bf422aebd8c9e6745b1bf78b1a68a6e6f06055441bba9cf71c5b5a2b3d66dd4eb846861a367756a41c62d9fa79f2ba4d6218799f61ef8898723c9a3dcba9c3bfbc7db0355ba9f5b2f35bee666ffb4ef1e140939a408714b74803710d1b76bf736e2a4c240f3f8bce9d09bf0ed79d1b1135fe49231c3cca6673628512e75964ffed9b2b02e84c8113f582a6c5c63a3b2a0a3a7a1dce4d92cf3614d443729c7c868baffaa4e61ab136706087bd1558130632b885fc352a1258d7998ebdc755bccf16ca4b4dfb32426ec3f9d84f4456126da1c273c412130158152671b92d650ae43c6bdd572a61a5a2d4dc3e40143fae099554b822dce93abfb47a41b506446040945a7a642ad5d2f6c68e6b6a6ca3fce81399df44f19a6ac2f797bfd9be83e5365c1e4573e7dae4c079e04ebe90a0c3d9bb5a89dfcfd6773182776f1e3959b34e5ff31d9ddd0d74ceaef72b354f2e75ad474d31525204add4722a11f93caa517150d71b7a077783de2f76dac9b1d152aebdfdcd23277a17bbf285c79297e13899d37329bf443847ec9e4a3505c94ef95936afd7df2fb70e71522d5bbd6e9cd95c4961c483f6d0ed3536c484a2817d7015fd7675024c51f29229494fee9c43911168f1965b0220409bc59dfea5f981da36b46670354267ac8c210f4d2be4a59d8468c02da2e83fb457bfcf281564fc817d04502851b392579e839e0d6d1ed1648b5ce62fac7e60b5fb0264abbe8e955c5c07cbee6d57237e99b92d86c3062809644a855b769a0b94850865d40fe3a449439f7b6df968269f6f2857306c3b0984645d89a5b652371c2f9ddc58fdec7a7e2b175814bced76c2d741c10dc72f57de7584495d64880edc7842d71c446c70dea5534de1a55331e354de5ea81b538a5b80cb1a863d17a0e1f2231d4704ba292fb339c322c63022583c2a21b8369e4537768082de3d5de8988893a7c59a79ce6fe9107a1b9fdb3b469cc469872f0d8bca268798698851aba60b0bf22ef142602a3a4419b73a988ab344dd4e23cf9a26cb7672531c9dedb83838092879d97a1fa728d2b9df6f04b237f1423ca10f3eb72a00aca2c08a74d13b113dfa9688d83a08115117f60dde18f960c3ce6f6485d2364adf5e5785f2c78b452c242ee7bbf29792ca5d7572117ac1bce5125204109daf7fccc8eeb63ef37752b6df734f20300a219123bfc04f10c892229464cb3dbdf186790839a094247de7685475da3fecdab1de3d257c6d502b318ac1783e399075f65ccd738863ecbbc5ecbc6b8323fed454000e1a29ceac4fc2b22839cb2c811a5f806a415df8c256e5696b5701e3a1f2a64cc6bafec8579b1ddcfff12efbae78f2dba7d338c8c5295a3f365ba7379fa39d189a15cf2162b2d2f55643e5b7e0bdcd8d1c341b8f7486fc59e8774920364138c3fa0f294238eafc7290ea6fdc298b5431f382766b4fc10cf4c08977874c90e769848b756cd9ab66964b5339fa942f7b255a5a1e4cc105c4af7e403f4f209a75a19812c36b4ee040f5ba6ef5db4093e6e0d39b2ba54622f3c2e88f7a853d891fe40c9993e0c741bdc404b35c7d779640c1670b743c6c55ae633bc7b833237af50d7ca5935db1a2e85d50b77244604b7104121c1d54fbbc4233b5f816bb406f9dae5edc43e3c1b0ad67d951f4e06468e9296b8e7f9971f08bf580c9122527240dd7f9dbb07adff7c059497be41174b75a60055cf019dbc1900c056a1fa2c4ed51e89ec1a3221ee78eee3100a4ca12a639ba432add570cb190ad0bf31c623c4d429d9b5dc068538c57c254556c6cdd3828eddf1271f83b6354492420626683539329ff41147c2fb80e34151c72e18ee52dc2eb439ffdd178d05b46ffcc5bd10c9a8ef4aa159581e7867a0575fb849f8bddceae419a09b32981938dbefd04f9ce66158d5d34c9c8271a806a3a9ca0765dd5e87172726fb23d896cddb6f11569489bf6741ba4692ba2c72e79b4f2d975f2ed36e2acd0fe4b6c581365dcf94f91bd7793064cc83a692d7186956a7d7f33bc520cd4c85f90f112e91a03a127f48dd42c475b547d012551416015984984e3cd093de5fc4d4ce4641e4abecfb5113b8c69fad3b793ee5a5c250f858fa04d1be1d22c39c1b62bec7bd9571ce9302cb38e719d7727f9702aaa4b3f627dd1016885fb4e16ead17f2950ddcd31d69b011eb4e6fdccda671892a3b4824befcd43c33cd77183a66a24f29e5acf1b94b7bb863e687a01d8bc6e46408337e06da3bfe827211fdd10686b5ab495e44e48732f1273181004986ceeda8c46d7d3f5cee5423cbc39b4518aa6ffeca7b95e38a274603638fb013e84d069faa978479883cdf0bfd913d1da28bba08429ee03d0c3305c08338f8f2d66ccd685d1312b2f3d65752e3bf422f1d70e247c45dc70ef2215c1f40172ca864716c14cc395a5217bacc962ac06cf982afd49499a1f5ddde829a0e65f81de4e891c672f99b94869c8f786947dab3261acd359317f3a3139d46ddd6210d227acffad2f778087929324524026c9041ecdf1a7a3f00808b282d8c4c3522b38b4911464e2899e15def6c65c3fff5d42745b15d88718b46255375dd5a092e3a44f1c96398ba302ef5149d42082bd81587dac973709ce82965a22571a21218001e2750c3821529da05f5c6798baa468f00b52ab1e8b6706ff4c4ecccf22815ea1492b3ef4fa53232234787d38df29b65f85380c687a60bc927cee7d323538e349efbecbd19fd3d047d6e97335c31f3054de907e41713e81c0ecce3ba61354cfca3a2b74c625290c399894fd5d818597df08702823cef756e5b147bd44fed1d2815572414aa106e5eada29230b92c5222a735272bdf7875fea8452434433fffd01bbc6c8af7f753fe8243496c1197f26748979818e25ad509332aa003b5ed18b7c82cd4e1c4b0a32553e5ee3c0720987d2e27a019225bf3e453cd50544f6c27d45cfdecea4f5155b1500e2c6404adece1f574ac6442ad1e4f360441a3a6bb389a89ea5c6748f14f0e2e04540682fce8aba0b8b7f19a1cd713f14547179f2b16e5bb1739eb36597ae674378ca707e3ae3341ec6d8bba04d2ed3b7a99352e8b4a3f6ec99ae18c36a0a1f29535d6676797a9fbcccd1e2e5ebfe1c334f5d6770ccd90f111e262c2d2e3a434d565c8ab3bdc3d4d7dee20b101b1c4254727887aeb6f9000000000000000000000000000000000000000000000011192d3901",
        "00c94ba4b76f21325cd3e51a7a72b0cca6c9c614d00988e46b177bfce426f55d784d3039a3ddea0b6f47437a7db8dcaead5908329b2c0ecf445c2b8f594d7985be5cb64e4cc9558b3464de87dacfcc543745abb47df2378eaaaa0822e6045ec9b89d25203da0ed4dbcb512105fdc9da3c067b4671b3e971b7ee95aeb214d49b3bda690466d9ec37fda0e1e8d8baad21a2c3aeafce0dfc428f1c7775203c13b82c4655efcbe0683d12d7547c2b41aeb78659d841d16210474acefd0cafd9d59a97181932cbc336bb7a6ded97b0abd1b8f08e015790169ff96796d6f6fcfc12d182b94d2e987e31c3437f4b5ba2eff6dc8aac53c6975ab73144589a5012616acb0ddc6b56207496fac88137c0efc56b5bbc7765323695b322055d6f073f091134989f8a069ec67b142a5f86622bcb95335761fb51b2fe62717e3ec7e5d01f18cc83b97c9adac712cb974aeee1e510dd6568d2d24e527a50a7e90455fefc43b698fbcfe1d8e0d704b22bd31a274caeccf38204ad5fabd78274c284f0f3db7a7525f2550056e55b818903c34377b1cbe3bf714cd9c949fcd0b271fa762f85964558042d51297c749dcbfc0112f1bb5c35c462fb8c8820071c01da57752cbea91f7e775bb45b68373a009ce4a07011e94eb582d46cece8de6f204ead01202699ab69f5fa247841d93922fb26ed585dbf2e706b5b215e93aecb53b0b878bf4895b6d421ee77ae0dfd763a34816f653d60bd9375dee3b57eafe6e3ded19b502baee58398932bf54b929672c842e280b2f1db674c13bfcfdfed9bc812cd92748ff24c13b73580bfd881510fde60045245583dc2ace63f06cc09b9d22332f2baaa2f615b599fdd12c4aa3660b01c0f370ca2f635a32f0246746124c19e1bc260e4fdb7198e52e016d424141722b4713e75c75a12e5890ed404acf596621084981790f55375cb43a88e1b789abc8d5824e0359f0459957db82fde34c5d5d9721aa93a5a590574ae0e4de317b7853dbdb7d29873d6849f884c660ef85a2c017856f7918ffa7a07e9bbf85ce4a7d2316b4efcf167c82df1f1bb96dc616a49aec2bf3fead15ecc810e812b145b8fd38b1760efe67c640babd066e27e508164e6ca97f25e6cc1892a26bc60ced86c55a2271224f56899c677e38051762d328abb58cca269667a2e712f489416f85175d7b55d8397d74bf75f09cc724f0823ffa103c155526289e245e3b9e7b806db0c6a44741d9f8e99e11afcb285fc7f607a9c59f9086315a0f6f37be21f815d3014b0f7638ce92d34171238a485593d5f5c50cf437f7c55f60c988494ddb02bdca756366a4fb71db9af855eab2508758b74aae5db1dd0e26e2562d2232630aba00a4f5116e004cfb5afc62e1dd6b78c971ab95e8c6d8254aeaa4d5a7a89c15937833db3ae8ed3edf8812c95e8edc8b8a6998ce931eb709283e6eaef9e4808916cc8ad30f73c13ec84f2b3fbb81e4a2c38d5748590e385da2464dc5d083d0e27bbada9cdf74a4b5659a9727fc7d4394bdbd69e152a734280e6275a3158b386c66e50f994fc00ea1d4a126a1e6a4162fd80205472a450197005ac1755988defd28ee520c7efd577f532ae6bb2d8c2978d878a57bf893d27c8eb6ead7b559f783a597455ed6982c30e5a1057f26d7ca61b9b180bfa92c0d6038d160d4171ae9576b3bb440a6c944467e24f65775e52330c448a4ad48089eea617d41ffa777f7e3730fd12182201f9501a2a188c330f55becb07d152868bbb5afa9fef74a2bfa0b978d42767524071acb352af5aec77aaf449f6ed90778d882796bac44545b1fee0ed86c0091066f80df106cecab5987bf68f9682ccc45884025ea61"
      ],
      "sequence": 4294967294
    }
  ],
  "vout": [
    {
      "value": 1.0,
      "n": 0,
      "scriptPubKey": {
        "asm": "OP_RETURN 19810b67572f549df2bd8d95bafa68016130dba5829093d283b40ac3333a26a6 fdda68a16bd28f1a22bcb96de4a0b626bea36afa9751a2d7a2a073e2adb3e6c9ddfa48814bf2af3a029c994dc48096069e834adab77182f7828053c28d93c6e9bd9a28e12b92cf5a62fcf92da4e0f666fee32abad711e297e2e033a2edf3a6899dba08c10bb2ef7a42dcd90d84c0d646dec30a9af731c2b7c2c01382cdd386a97d5ae821eb520f9aa23c39ed642036a63e23ea7a17d122572220f3622d3366495d7ac801cb722fba821c19cd440016861e03ca5a37f102770200d3420d1346693d1aa861ab124fdae27c79ad246076e67e63aa3a579162176260b3226d7326091d3a88418b326ffac25c598d044056c65e438a1a77b14237424093024d530629fdda68a16bd28f1a22bcb96de4a0b626bea36afa9751a2d7a2a073e2adb3e6c9ddfa48814bf2af3a029c994dc48096069e834adab77182f7828053c28d93c6e9bd9a28e12b92cf5a62fcf92da4e0f666fee32abad711e297e2e033a2edf3a6899dba08c10bb2ef7a42dcd90d84c0d646dec30a9af731c2b7c2c01382cdd386a97d5ae821eb520f9aa23c39ed642036a63e23ea7a17d122572220f3622d3366495d7ac801cb722fba821c19cd440016861e03ca5a37f102770200d3420d1346693d1aa861ab124fdae27c79ad246076e67e63aa3a579162176260b3226d7326091d3a88418b326ffac25c598d044056c65e438a1a77b14237424093024d530629fdda68a16bd28f1a22bcb96de4a0b626bea36afa9751a2d7a2a073e2adb3e6c9ddfa48814bf2af3a029c994dc48096069e834adab77182f7828053c28d93c6e9bd9a28e12b92cf5a62fcf92da4e0f666fee32abad711e297e2e033a2edf3a6899dba08c10bb2ef7a42dcd90d84c0d646dec30a9af731c2b7c2c01382cdd386a97d5ae821eb520f9aa23c39ed642036a63e23ea7a17d122572220f3622d3366495d7ac801cb722fba821c19cd440016861e03ca5a37f102770200d3420d1346693d1aa861ab124fdae27c79ad246076e67e63aa3a579162176260b3226d7326091d3a88418b326ffac25c598d044056c65e438a1a77b14237424093024d530629fdda68a16bd28f1a22bcb96de4a0b626bea36afa9751a2d7a2a073e2adb3e6c9ddfa48814bf2af3a029c994dc48096069e834adab77182f7828053c28d93c6e9bd9a28e12b92cf5a62fcf92da4e0f666fee32abad711e297e2e033a2edf3a6899dba08c10bb2ef7a42dcd90d84c0d646dec30a9af731c2b7c2c01382cdd386a97d5ae821eb520f9aa23c39ed642036a63e23ea7a17d122572220f3622d3366495d7ac801cb722fba821c19cd440016861e03ca5a37f102770200d3420d1346693d1aa861ab124fdae27c79ad246076e67e63aa3a579162176260b3226d7326091d3a88418b326ffac25c598d044056c65e438a1a77b14237424093024d530629fdda68a16bd28f1a22bcb96de4a0b626bea36afa9751a2d7a2a073e2adb3e6c9ddfa48814bf2af3a029c994dc48096069e834adab77182f7828053c28d93c6e9bd9a28e12b92cf5a62fcf92da4e0f666fee32abad711e297e2e033a2edf3a6899dba08c10bb2ef7a42dcd90d84c0d646dec30a9af731c2b7c2c01382cdd386a97d5ae821eb520f9aa23c39ed642036a6014f671ee4f6f5a43a2b20f77c058f4f9645d676d07acb486a47cbe486c2b65e",
        "hex": "6a2019810b67572f549df2bd8d95bafa68016130dba5829093d283b40ac3333a26a64db004fdda68a16bd28f1a22bcb96de4a0b626bea36afa9751a2d7a2a073e2adb3e6c9ddfa48814bf2af3a029c994dc48096069e834adab77182f7828053c28d93c6e9bd9a28e12b92cf5a62fcf92da4e0f666fee32abad711e297e2e033a2edf3a6899dba08c10bb2ef7a42dcd90d84c0d646dec30a9af731c2b7c2c01382cdd386a97d5ae821eb520f9aa23c39ed642036a63e23ea7a17d122572220f3622d3366495d7ac801cb722fba821c19cd440016861e03ca5a37f102770200d3420d1346693d1aa861ab124fdae27c79ad246076e67e63aa3a579162176260b3226d7326091d3a88418b326ffac25c598d044056c65e438a1a77b14237424093024d530629fdda68a16bd28f1a22bcb96de4a0b626bea36afa9751a2d7a2a073e2adb3e6c9ddfa48814bf2af3a029c994dc48096069e834adab77182f7828053c28d93c6e9bd9a28e12b92cf5a62fcf92da4e0f666fee32abad711e297e2e033a2edf3a6899dba08c10bb2ef7a42dcd90d84c0d646dec30a9af731c2b7c2c01382cdd386a97d5ae821eb520f9aa23c39ed642036a63e23ea7a17d122572220f3622d3366495d7ac801cb722fba821c19cd440016861e03ca5a37f102770200d3420d1346693d1aa861ab124fdae27c79ad246076e67e63aa3a579162176260b3226d7326091d3a88418b326ffac25c598d044056c65e438a1a77b14237424093024d530629fdda68a16bd28f1a22bcb96de4a0b626bea36afa9751a2d7a2a073e2adb3e6c9ddfa48814bf2af3a029c994dc48096069e834adab77182f7828053c28d93c6e9bd9a28e12b92cf5a62fcf92da4e0f666fee32abad711e297e2e033a2edf3a6899dba08c10bb2ef7a42dcd90d84c0d646dec30a9af731c2b7c2c01382cdd386a97d5ae821eb520f9aa23c39ed642036a63e23ea7a17d122572220f3622d3366495d7ac801cb722fba821c19cd440016861e03ca5a37f102770200d3420d1346693d1aa861ab124fdae27c79ad246076e67e63aa3a579162176260b3226d7326091d3a88418b326ffac25c598d044056c65e438a1a77b14237424093024d530629fdda68a16bd28f1a22bcb96de4a0b626bea36afa9751a2d7a2a073e2adb3e6c9ddfa48814bf2af3a029c994dc48096069e834adab77182f7828053c28d93c6e9bd9a28e12b92cf5a62fcf92da4e0f666fee32abad711e297e2e033a2edf3a6899dba08c10bb2ef7a42dcd90d84c0d646dec30a9af731c2b7c2c01382cdd386a97d5ae821eb520f9aa23c39ed642036a63e23ea7a17d122572220f3622d3366495d7ac801cb722fba821c19cd440016861e03ca5a37f102770200d3420d1346693d1aa861ab124fdae27c79ad246076e67e63aa3a579162176260b3226d7326091d3a88418b326ffac25c598d044056c65e438a1a77b14237424093024d530629fdda68a16bd28f1a22bcb96de4a0b626bea36afa9751a2d7a2a073e2adb3e6c9ddfa48814bf2af3a029c994dc48096069e834adab77182f7828053c28d93c6e9bd9a28e12b92cf5a62fcf92da4e0f666fee32abad711e297e2e033a2edf3a6899dba08c10bb2ef7a42dcd90d84c0d646dec30a9af731c2b7c2c01382cdd386a97d5ae821eb520f9aa23c39ed642036a6014f671ee4f6f5a43a2b20f77c058f4f9645d676d07acb486a47cbe486c2b65e",
        "type": "nulldata"
      }
    },
    {
      "value": 499989.831,
      "n": 1,
      "scriptPubKey": {
        "asm": "1 c4d93dbc8b842f42575b2e6d3566f770e6365412e1fafa29bc60427b3032370e",
        "hex": "5120c4d93dbc8b842f42575b2e6d3566f770e6365412e1fafa29bc60427b3032370e",
        "reqSigs": 1,
        "type": "witness_v1_scripthash",
        "addresses": [
          "3QJmnh"
        ]
      }
    }
  ],
  "blockhash": "9418e69333e129952491dcd6dc324ee50ca4a2e07f0678970cb85d951484494a",
  "confirmations": 1,
  "time": 1764177673,
  "blocktime": 1764177673
}