{
  "hex": "01000000000101a4b669af30dfce3610d067ff56ea4371b8e61a92cf8e3362b5d1f85389327cea0000000000feffffff02202367d2782d00002251209a87ce73e00ddb434f87f82bb2d2e7651b60da033eb43fcf7843cbd9e0e2a61600e1f50500000000fdd5046a2097c8aab81efaaf6f0bbe5fb3196051dcbf88274861670727e9cb3184c99366754db00436d62eaf92349c00de84a893c7db2b86acc58bd48bbdb80f563494d20e49aa7516f60e8fb214bc20fea488b3e7fb0ba68ce5abf4ab9d982f7614b4f22e698a5576966eefd274dc409ec4e8d3879b6bc6ec85cb94cbfdf84f1674d4924e09ea3556b64ecff254fc60bee4c8f3a7bb4be6cca5ebb4ebddd86f3654f4b26e29ca15b656ae2f12b41c805e042813475bab062c450b540b3d388fd6b414528ec92af596768e0f32943ca07e240833677b8b260c652b742b1d18aff6943472aee90ad5f616ee6f52f45cc01e446853071beb466c054b144b7d78cf96f45412ce896ab5d636ce4f72d47ce03e644873273bcb664c256b346b5d58efb6d47432eea94a9536d62eaf92349c00de84a893c7db2b86acc58bd48bbdb80f563494d20e49aa7516f60e8fb214bc20fea488b3e7fb0ba68ce5abf4ab9d982f7614b4f22e698a5576966eefd274dc409ec4e8d3879b6bc6ec85cb94cbfdf84f1674d4924e09ea3556b64ecff254fc60bee4c8f3a7bb4be6cca5ebb4ebddd86f3654f4b26e29ca15b656ae2f12b41c805e042813475bab062c450b540b3d388fd6b414528ec92af596768e0f32943ca07e240833677b8b260c652b742b1d18aff6943472aee90ad5f616ee6f52f45cc01e446853071beb466c054b144b7d78cf96f45412ce896ab5d636ce4f72d47ce03e644873273bcb664c256b346b5d58efb6d47432eea94a9536d62eaf92349c00de84a893c7db2b86acc58bd48bbdb80f563494d20e49aa7516f60e8fb214bc20fea488b3e7fb0ba68ce5abf4ab9d982f7614b4f22e698a5576966eefd274dc409ec4e8d3879b6bc6ec85cb94cbfdf84f1674d4924e09ea3556b64ecff254fc60bee4c8f3a7bb4be6cca5ebb4ebddd86f3654f4b26e29ca15b656ae2f12b41c805e042813475bab062c450b540b3d388fd6b414528ec92af596768e0f32943ca07e240833677b8b260c652b742b1d18aff6943472aee90ad5f616ee6f52f45cc01e446853071beb466c054b144b7d78cf96f45412ce896ab5d636ce4f72d47ce03e644873273bcb664c256b346b5d58efb6d47432eea94a9536d62eaf92349c00de84a893c7db2b86acc58bd48bbdb80f563494d20e49aa7516f60e8fb214bc20fea488b3e7fb0ba68ce5abf4ab9d982f7614b4f22e698a5576966eefd274dc409ec4e8d3879b6bc6ec85cb94cbfdf84f1674d4924e09ea3556b64ecff254fc60bee4c8f3a7bb4be6cca5ebb4ebddd86f3654f4b26e29ca15b656ae2f12b41c805e042813475bab062c450b540b3d388fd6b414528ec92af596768e0f32943ca07e240833677b8b260c652b742b1d18aff6943472aee90ad5f616ee6f52f45cc01e446853071beb466c054b144b7d78cf96f45412ce896ab5d636ce4f72d47ce03e644873273bcb664c256b346b5d58efb6d47432eea94a9536d62eaf92349c00de84a893c7db2b86acc58bd48bbdb80f563494d20e49aa7516f60e8fb214bc20fea488b3e7fb0ba68ce5abf4ab9d982f7614b4f22e698a5576966eefd274dc409ec4e8d3879b6bc6ec85cb94cbfdf84f1674d4924e09ea3556b64ecff254fc60bee4c8f3a7bb4be6cca5ebb4ebddd86f3654f4b26e29ca15b656ae2f12b41c805e042813475bab067c5d4ad28902f037ed28149cd31ccb90471bbad10097b90b83bc560b74d4f64002fd750915ae373a2f65e22a61f3ea65023a198de45cf420785c43868cbcdc2867f7c07ab35f9ac4d845384a43a44c37a9b7803f63e34b9c5eb37afa132d60bc69c640a9d1116a6744670ec46956044d975604ecbf6ab210ad8b7bba06ce440fb78e542ea7022b22dcb456d92dbf96a5631bff93d06d8267ff4ad80475b6bb159f49c52af3bdbd661606b905b700fa3061d2e74d000df688935a38c2a8ccfc29001500bb0c5a4dc429abd9ae4f0de49a1a30dca44f05a3509b028b3f786b4fd10dd933119966ccf2eabf2004ffa5d341e43cb48b6160dbc8efa76e146ae07f93fbaafbafbca919e21cca1b4977df7c7d9bc9f38a1fbd24b18cb379f06bfa2c9816cdb722fc2e092333a144fe6e5dfcb5065cd9783c516426415d7e7a6197cd779af44e989662c7796bf957152f4c16fcf0afaa5e1293db9534974388b946600a633d2f4b773559883d0f475df7cecbcd2cd24a644d7392eccdd00d5413d95bd924859fe322c547077008140b2b2f84a79d017cc4d9c053b8ca6db37241aa4e986806d273930ce0532e92eaa1141b182677d2e04835d6d6f160059abedea7231c15df385aad0711a46582f449daed2889371d972a5889a2b73a8c7bf9e7d6d6c3272bde14b62759aa3019653c59b5d8677fb68600f961326aeaef714923d2b09ea2bdc273bfd9a513a82952276ba91a44f45e0cd68a13c1f4f35c970a3d993650fa67c8acba17764635632d017557bee3f3bf26ec50cbbfd346b1677e5b0746fcd3cebdbdfadcdd6f1452450221c223ac4706f925a1962fb1f9eb35db74542a88254e7dc7a18abdc4bb1721c03f7dd5ed635f2c109208d08f8031886f67650d4646cc1ed7e270621cd422fe6a50ad3478c7cdfe73562fc8f81f4d437b63e5608705106e02ef8800c7e084ec635f1becd61829c3b8ea157622cf4efa8822665e0cb95c36f1b557acf73f19308313453a8220b6a530423f03db608d5c9c9e207d36d9aa58840f7ea697b75f3105588cc0fbacc472ca4307ea1a645933d043bc49f74041b0d45e221e4261bd09cafdb99e8d25abacac8e1c43aeed3352b05d5afc159d9ab5b8addd5da6433caf37fb47ea883733ce0f2be7cd347131afcec25e755184f69d0cfa70ff9879a600cff632e482b10f027f62e649fb01585f898b5072a123b70e5988912fa9c2818dd266227b478b8ee7a880fa7229236cee31d30822ce6c7bc667de958134546b2b583f206b9b777340b0d6ffbadfaacac6998e2b05651f70bfc7a26b5c0e492c8e4f19d9ee4562513ab026c5c0a85d51ef24fc2eb808e15755baf4c612cd50d5f20575618e9ece0af24217ac1217d7940929455b1f861a4ca22d3e0edf56cf5b7d630d255fae05ed4a1068b9391a31999e49cecb4ccd6caa56d3071beb3c4fdce12f9b3de0649a9c819faa26b1072d91ad2cacbabacb1f9af968270fa6fe17d6b56dbb0a821a863f7ca020a5178f1104b0d69665bc1554ca5ccec58c7926997a1580ac460a14a1df715919c25cc7943fd93a3bb551a6d446f9ed306854da70529e9ac3c5c65896b88a56a977566a8df79d9a0500cb97ae9e48b7626637e35e7ff81c3e6e7b07dde66056138b05234974557a24e0e414d9c976a8df356cbdf1b6d6a55dc6affcd7e2494e64ebf3c2fb848de0c2a29673b4453cf06c93cd4f14bbdeeb2878a42b519936cb6eda595be802609c9d85ee9277dd98f51b29e2a8f8330acd8e91ae66647e0e3f6818ea5921f931094809c5bfa5ee77aeed26e400c213f844b98980c0e0c3e0f4fb81f94755e85b726fecde9f43a224cb109a8a5716aca94c3fb6e8aa7d9ee2d1ef7bd952fc42a05d58e910f05d1d8b8a27c87a5287ce34df4f0695ddbb2ec99c2978357123d6e90dc0c3fb5c9ea9abb5e562d46e821b6df4eb193d971da1063940bec628d187f04c57078d7702ac6f8dfb80129677bebbc62520e7dddeb28198222c2944cc40eeec011e0e9026cdb3debe6cfcf0c955897458380f7115813f075dfc66dc1e4404bb0a005783a501a3cfe8dd740c49655b7a738659f62c9a9a69284374d8dcaf53db395ad6423e54984f79b30936ea2cf6b0f13457079349c1a3c096a08af72c54609cc2e777f243aec4750e02a694ab3d37c50bf0af4b23f845982fd48fc411a2e3797b335d566d1d191a0407a4c1877207598d103db03e87bb80c32ec3300b1d163da946a198104173269e61492313c8193cbd4278f1edd38bc7f9bdaaf873bd39ce8b34d253cd742756656e83398516c6abc062ce482daae61b0500c20ee6fa7f2f13a34804302d93e53f45c57ee9f2833aabbdf9af32967dbbb12889134b5f74b7d1ac9a870d977dd916b8d899364b8fa9fed898a8b62bbaab68ad718b6f7c4783779b7da3030309e20eb1ee9db71b6ef8b288b14de1ef93bac17d3f521de6084ce2f80e29b26c2d416e17083071cbe82c0a79964d05de393aaeb408610d5505f979ff12a0932283d73c4f34f07ff592c8a8ca13f14ba01cd419fe912b8851711b75634e679fa43b7530c48f75e1a1a7bf145050658a3754d4c7b5c20d605d9d8b2d749cd914fd1a81b95b76ddb41b7e8959ee53f4bceece5050f482471b0565607978310f2ce45d1280d40f9664b7cdb1f01c621a79b96c7c2cffdd37fb8830582019c490d24ec684861b77ef554da4b1f1998c09953342b189b9d5bdbfa1e92feb2a901cc9705c37ebaff55689bdf5a5a18cc32e58c603f0f60e645857a33f28f91e3e5d47a21ffc4317563b5fb349f62a8431e81a3334101d005b8f0bd908620fe03fd99e4bce6c1908a3a1a6e3d3c387efcad31f72053e644d477ab0486c0d1d26dfff883fc713fc2a2baebae9fa1a5d423fb6dc6e3e8e6e975ad316eed5beb89ba5f482133a46f0b77b04d74276b8a465834cecd7886d18eb4afb913e5bc4b28b7f2e243580d6b600dfc801a8e4b7e9dbd003b6b6b2b7c49fe91eebcba80d5dcfc93ac83207180601076c83d0503edde54bd86467a37ec9f004e5b61e2886e52e838cc9bb10750bdef9cb3f4af33bfe8f90c663e55e1610d87c2d6210ad68af3c303ca96507695509dc42f099a96ba11967cccc277771224a75871886b6c8fe4dd33e3104a64cb289d7a85bfb34e34331a5e74b7d1cdf1ee8c924f6bfe65ae1c5421f546c0a65bcf75ba964cbde24beeed5ae68405447d43fc26d1d1fe322a44d7a25842a109e97106217db744a0ebab459e4413eb449a89c5e8b37cf4967f2fb0868e0dec76a863444b4a57d4c80f46ba8af2d69d0ad6063a81fe0944296f9209fe97cde480f383d576376799092a1b4cee5e9f72638414d83a4a7b5c0fa091823272a4b5762839e9fb4ed060c13141a373d575864678184b5f0f400000000000000000000000000000000000000000000000000000f19263601fd2105008435f556a0b4d8ec2ce8debc3b43053ae14f03269daf68a89312fea6368a135b8254687b3887dff8b65815a29f2cf24837864d81ac69fb31fa359842d5a2a96fb963ae21c20d342bd9d1473ec9ad452be2470fb78cd383af784c693c0ce97f92517c29e301c45942640ac9f4e16fac9000ae312d3a68783daccd4fc8f71f097b741cffc0c12514edcf9c8d562423b0862c80034e7ba83da2c6c5a2aa22d668c9ea685d28bfc3f201ba47658d8caeb57fc2b585678712cf65f37412a5a2d0236b0a9d482028b031e83ebb5a5d1330220e82406746c16d9594e55915dbf307559500cd2b01ca2d5bb2cc7b07bbb99fea46c1cf1cc6ac163186045db6b6209d24d18e1f9bb16babdb0eaa743cc31d614e49ebff30022f87df389f847b8ae25c81256795070d009ab3d46df54984c7ae412754affbb412eee0a44c0988e91287bacf73b589c402471a8c669f2ae05f07fa85beba3956ca7dbf1defceca107b06b9ee2700fd667e534357de1fe9213ced506435d395f82c7777a2589ec8aac5dd2b146e831914ea06a8476993472bf433b36527e5154ce57a8871a5c822648253de84a0002dfa713b55e2342e6ef7b90346a6ee20f3224220c9f24c05f05da84ab4b0621064cb08a3f6ec587de0783f4ed290d4c28e53d8cba18bc11221987530fead7f20968c35519fe3b7b76a0d8d5d250eb17e461aceab0158e34be4cd66f849d5d8ef4628d0a3126560b23ded485888262b80589162d64317a7da560ef15b3587da663a51bb20e4bebb716e5bd7a89d71fe5d2a106c0b1fa3a9952c7a2372e6f3563f9ed952edd3233e193ee83b53a3e84b22e659c1e29375912b43ba9281503dfc3591f4bdc37da3e77867856cd51ffe3e849fec2b5e61ae0e5480c5d18837eac77a05b1ee4e38415ebcf5bd2e47ab456c65a3407ade6903d4babb9d1e50ba8e3a8d2dafc7978216d02fe217d97eb66dadcd507d026f7a0b8827de7736081b50312fbaa08c4dc417a1eff22a994c3aa8f0c9d5d8df0b19535bb72c5789faef77c88451f557aeb3abf3ffb092505ac5c0fd55b8a7b7096f3e555311156e005cb622cf7988039382afd55a077613baf0519791caed6382fd9d0181456f8a710603131499f1745019d6b77eeafe2c6887ff86b2971ba64285724319d873a02ec7a6a29c9cfd3be270acbf65cf414142fca6ac9fd8a2ff2e5d1b7999c1550c46af4b15ed04e1adb9ba7f9165dbd4f9f06257e63122272ba50b5f00a09469e78b3f0830f9bb9dc99130164e5c6582aecc76f3c935f0a5b286959e4da40dd2f321a7449b009b8610df61d0a2af82fc224cf9bf917f4ecebe9eb6f0f273b3feefb4f6604cd157aaa0ed93c2476958e2887e89f53acb6da5f2f67a9740ce1c335d79b87a73d6f924e69a51c83e79bfb487b0af27271997f57bff7a1156b35bc1f18e2729d8e38b94ae811d91d9006c76302b82813f78fd45d7e9a8a50bfef35a1983ee5ff5cf59ce74649fbdfa61f56c0c838fc0e68f11378d55a1df5289546bf4337fceffeffda86c9697414c0a5c4ed99ab6a9d473577ad7ce2ed4796e13d734c4710fccc45e882c45819ef1943c42c925b77bee37d2696ab12669dba89107b0bb0241245aaa2e902610efae4d9b371733d6a56cee87151b8563f1f76fded2bcbcca5decec751d35e20e2416121596803f508edbd1c0ba6aeeb498134b1bdf33158d533d96e662a86813ea8088c7fcccb7a29e3fda2ee89131608dcbf4378b2531f08d2892ba84c87a2c3deed2889ed7847586462d70a481726434f02cb7d5992d40ea77ff0b5e60d0b56710409b9ec412b1dcdf29ceec04c5b4ec8f7330b2ae3c5d8d86000000",
  "txid": "0237bc6038e04c642ffa145c33cc5ff13a96a203fd9ea50b2aca03c79e1c9239",
  "hash": "f69f0065140d63fd7b5eb6a0bea40267dd551a5b71b1845a4386e56c3a48adfd",
  "size": 5085,
  "vsize": 2278,
  "version": 1,
  "locktime": 134,
  "vin": [
    {
      "txid": "ea7c328953f8d1b562338ecf921ae6b87143ea56ff67d01036cedf30af69b6a4",
      "vout": 0,
      "scriptSig": {
        "asm": "",
        "hex": ""
      },
      "txinwitness": [
        "15ae373a2f65e22a61f3ea65023a198de45cf420785c43868cbcdc2867f7c07ab35f9ac4d845384a43a44c37a9b7803f63e34b9c5eb37afa132d60bc69c640a9d1116a6744670ec46956044d975604ecbf6ab210ad8b7bba06ce440fb78e542ea7022b22dcb456d92dbf96a5631bff93d06d8267ff4ad80475b6bb159f49c52af3bdbd661606b905b700fa3061d2e74d000df688935a38c2a8ccfc29001500bb0c5a4dc429abd9ae4f0de49a1a30dca44f05a3509b028b3f786b4fd10dd933119966ccf2eabf2004ffa5d341e43cb48b6160dbc8efa76e146ae07f93fbaafbafbca919e21cca1b4977df7c7d9bc9f38a1fbd24b18cb379f06bfa2c9816cdb722fc2e092333a144fe6e5dfcb5065cd9783c516426415d7e7a6197cd779af44e989662c7796bf957152f4c16fcf0afaa5e1293db9534974388b946600a633d2f4b773559883d0f475df7cecbcd2cd24a644d7392eccdd00d5413d95bd924859fe322c547077008140b2b2f84a79d017cc4d9c053b8ca6db37241aa4e986806d273930ce0532e92eaa1141b182677d2e04835d6d6f160059abedea7231c15df385aad0711a46582f449daed2889371d972a5889a2b73a8c7bf9e7d6d6c3272bde14b62759aa3019653c59b5d8677fb68600f961326aeaef714923d2b09ea2bdc273bfd9a513a82952276ba91a44f45e0cd68a13c1f4f35c970a3d993650fa67c8acba17764635632d017557bee3f3bf26ec50cbbfd346b1677e5b0746fcd3cebdbdfadcdd6f1452450221c223ac4706f925a1962fb1f9eb35db74542a88254e7dc7a18abdc4bb1721c03f7dd5ed635f2c109208d08f8031886f67650d4646cc1ed7e270621cd422fe6a50ad3478c7cdfe73562fc8f81f4d437b63e5608705106e02ef8800c7e084ec635f1becd61829c3b8ea157622cf4efa8822665e0cb95c36f1b557acf73f19308313453a8220b6a530423f03db608d5c9c9e207d36d9aa58840f7ea697b75f3105588cc0fbacc472ca4307ea1a645933d043bc49f74041b0d45e221e4261bd09cafdb99e8d25abacac8e1c43aeed3352b05d5afc159d9ab5b8addd5da6433caf37fb47ea883733ce0f2be7cd347131afcec25e755184f69d0cfa70ff9879a600cff632e482b10f027f62e649fb01585f898b5072a123b70e5988912fa9c2818dd266227b478b8ee7a880fa7229236cee31d30822ce6c7bc667de958134546b2b583f206b9b777340b0d6ffbadfaacac6998e2b05651f70bfc7a26b5c0e492c8e4f19d9ee4562513ab026c5c0a85d51ef24fc2eb808e15755baf4c612cd50d5f20575618e9ece0af24217ac1217d7940929455b1f861a4ca22d3e0edf56cf5b7d630d255fae05ed4a1068b9391a31999e49cecb4ccd6caa56d3071beb3c4fdce12f9b3de0649a9c819faa26b1072d91ad2cacbabacb1f9af968270fa6fe17d6b56dbb0a821a863f7ca020a5178f1104b0d69665bc1554ca5ccec58c7926997a1580ac460a14a1df715919c25cc7943fd93a3bb551a6d446f9ed306854da70529e9ac3c5c65896b88a56a977566a8df79d9a0500cb97ae9e48b7626637e35e7ff81c3e6e7b07dde66056138b05234974557a24e0e414d9c976a8df356cbdf1b6d6a55dc6affcd7e2494e64ebf3c2fb848de0c2a29673b4453cf06c93cd4f14bbdeeb2878a42b519936cb6eda595be802609c9d85ee9277dd98f51b29e2a8f8330acd8e91ae66647e0e3f6818ea5921f931094809c5bfa5ee77aeed26e400c213f844b98980c0e0c3e0f4fb81f94755e85b726fecde9f43a224cb109a8a5716aca94c3fb6e8aa7d9ee2d1ef7bd952fc42a05d58e910f05d1d8b8a27c87a5287ce34df4f0695ddbb2ec99c2978357123d6e90dc0c3fb5c9ea9abb5e562d46e821b6df4eb193d971da1063940bec628d187f04c57078d7702ac6f8dfb80129677bebbc62520e7dddeb28198222c2944cc40eeec011e0e9026cdb3debe6cfcf0c955897458380f7115813f075dfc66dc1e4404bb0a005783a501a3cfe8dd740c49655b7a738659f62c9a9a69284374d8dcaf53db395ad6423e54984f79b30936ea2cf6b0f13457079349c1a3c096a08af72c54609cc2e777f243aec4750e02a694ab3d37c50bf0af4b23f845982fd48fc411a2e3797b335d566d1d191a0407a4c1877207598d103db03e87bb80c32ec3300b1d163da946a198104173269e61492313c8193cbd4278f1edd38bc7f9bdaaf873bd39ce8b34d253cd742756656e83398516c6abc062ce482daae61b0500c20ee6fa7f2f13a34804302d93e53f45c57ee9f2833aabbdf9af32967dbbb12889134b5f74b7d1ac9a870d977dd916b8d899364b8fa9fed898a8b62bbaab68ad718b6f7c4783779b7da3030309e20eb1ee9db71b6ef8b288b14de1ef93bac17d3f521de6084ce2f80e29b26c2d416e17083071cbe82c0a79964d05de393aaeb408610d5505f979ff12a0932283d73c4f34f07ff592c8a8ca13f14ba01cd419fe912b8851711b75634e679fa43b7530c48f75e1a1a7bf145050658a3754d4c7b5c20d605d9d8b2d749cd914fd1a81b95b76ddb41b7e8959ee53f4bceece5050f482471b0565607978310f2ce45d1280d40f9664b7cdb1f01c621a79b96c7c2cffdd37fb8830582019c490d24ec684861b77ef554da4b1f1998c09953342b189b9d5bdbfa1e92feb2a901cc9705c37ebaff55689bdf5a5a18cc32e58c603f0f60e645857a33f28f91e3e5d47a21ffc4317563b5fb349f62a8431e81a3334101d005b8f0bd908620fe03fd99e4bce6c1908a3a1a6e3d3c387efcad31f72053e644d477ab0486c0d1d26dfff883fc713fc2a2baebae9fa1a5d423fb6dc6e3e8e6e975ad316eed5beb89ba5f482133a46f0b77b04d74276b8a465834cecd7886d18eb4afb913e5bc4b28b7f2e243580d6b600dfc801a8e4b7e9dbd003b6b6b2b7c49fe91eebcba80d5dcfc93ac83207180601076c83d0503edde54bd86467a37ec9f004e5b61e2886e52e838cc9bb10750bdef9cb3f4af33bfe8f90c663e55e1610d87c2d6210ad68af3c303ca96507695509dc42f099a96ba11967cccc277771224a75871886b6c8fe4dd33e3104a64cb289d7a85bfb34e34331a5e74b7d1cdf1ee8c924f6bfe65ae1c5421f546c0a65bcf75ba964cbde24beeed5ae68405447d43fc26d1d1fe322a44d7a25842a109e97106217db744a0ebab459e4413eb449a89c5e8b37cf4967f2fb0868e0dec76a863444b4a57d4c80f46ba8af2d69d0ad6063a81fe0944296f9209fe97cde480f383d576376799092a1b4cee5e9f72638414d83a4a7b5c0fa091823272a4b5762839e9fb4ed060c13141a373d575864678184b5f0f400000000000000000000000000000000000000000000000000000f19263601",
        "008435f556a0b4d8ec2ce8debc3b43053ae14f03269daf68a89312fea6368a135b8254687b3887dff8b65815a29f2cf24837864d81ac69fb31fa359842d5a2a96fb963ae21c20d342bd9d1473ec9ad452be2470fb78cd383af784c693c0ce97f92517c29e301c45942640ac9f4e16fac9000ae312d3a68783daccd4fc8f71f097b741cffc0c12514edcf9c8d562423b0862c80034e7ba83da2c6c5a2aa22d668c9ea685d28bfc3f201ba47658d8caeb57fc2b585678712cf65f37412a5a2d0236b0a9d482028b031e83ebb5a5d1330220e82406746c16d9594e55915dbf307559500cd2b01ca2d5bb2cc7b07bbb99fea46c1cf1cc6ac163186045db6b6209d24d18e1f9bb16babdb0eaa743cc31d614e49ebff30022f87df389f847b8ae25c81256795070d009ab3d46df54984c7ae412754affbb412eee0a44c0988e91287bacf73b589c402471a8c669f2ae05f07fa85beba3956ca7dbf1defceca107b06b9ee2700fd667e534357de1fe9213ced506435d395f82c7777a2589ec8aac5dd2b146e831914ea06a8476993472bf433b36527e5154ce57a8871a5c822648253de84a0002dfa713b55e2342e6ef7b90346a6ee20f3224220c9f24c05f05da84ab4b0621064cb08a3f6ec587de0783f4ed290d4c28e53d8cba18bc11221987530fead7f20968c35519fe3b7b76a0d8d5d250eb17e461aceab0158e34be4cd66f849d5d8ef4628d0a3126560b23ded485888262b80589162d64317a7da560ef15b3587da663a51bb20e4bebb716e5bd7a89d71fe5d2a106c0b1fa3a9952c7a2372e6f3563f9ed952edd3233e193ee83b53a3e84b22e659c1e29375912b43ba9281503dfc3591f4bdc37da3e77867856cd51ffe3e849fec2b5e61ae0e5480c5d18837eac77a05b1ee4e38415ebcf5bd2e47ab456c65a3407ade6903d4babb9d1e50ba8e3a8d2dafc7978216d02fe217d97eb66dadcd507d026f7a0b8827de7736081b50312fbaa08c4dc417a1eff22a994c3aa8f0c9d5d8df0b19535bb72c5789faef77c88451f557aeb3abf3ffb092505ac5c0fd55b8a7b7096f3e555311156e005cb622cf7988039382afd55a077613baf0519791caed6382fd9d0181456f8a710603131499f1745019d6b77eeafe2c6887ff86b2971ba64285724319d873a02ec7a6a29c9cfd3be270acbf65cf414142fca6ac9fd8a2ff2e5d1b7999c1550c46af4b15ed04e1adb9ba7f9165dbd4f9f06257e63122272ba50b5f00a09469e78b3f0830f9bb9dc99130164e5c6582aecc76f3c935f0a5b286959e4da40dd2f321a7449b009b8610df61d0a2af82fc224cf9bf917f4ecebe9eb6f0f273b3feefb4f6604cd157aaa0ed93c2476958e2887e89f53acb6da5f2f67a9740ce1c335d79b87a73d6f924e69a51c83e79bfb487b0af27271997f57bff7a1156b35bc1f18e2729d8e38b94ae811d91d9006c76302b82813f78fd45d7e9a8a50bfef35a1983ee5ff5cf59ce74649fbdfa61f56c0c838fc0e68f11378d55a1df5289546bf4337fceffeffda86c9697414c0a5c4ed99ab6a9d473577ad7ce2ed4796e13d734c4710fccc45e882c45819ef1943c42c925b77bee37d2696ab12669dba89107b0bb0241245aaa2e902610efae4d9b371733d6a56cee87151b8563f1f76fded2bcbcca5decec751d35e20e2416121596803f508edbd1c0ba6aeeb498134b1bdf33158d533d96e662a86813ea8088c7fcccb7a29e3fda2ee89131608dcbf4378b2531f08d2892ba84c87a2c3deed2889ed7847586462d70a481726434f02cb7d5992d40ea77ff0b5e60d0b56710409b9ec412b1dcdf29ceec04c5b4ec8f7330b2ae3c5d8d"
      ],
      "sequence": 4294967294
    }
  ],
  "vout": [
    {
      "value": 499969.493,
      "n": 0,
      "scriptPubKey": {
        "asm": "1 9a87ce73e00ddb434f87f82bb2d2e7651b60da033eb43fcf7843cbd9e0e2a616",
        "hex": "51209a87ce73e00ddb434f87f82bb2d2e7651b60da033eb43fcf7843cbd9e0e2a616",
        "reqSigs": 1,
        "type": "witness_v1_scripthash",
        "addresses": [
          "3QJmnh"
        ]
      }
    },
    {
      "value": 1.0,
      "n": 1,
      "scriptPubKey": {
        "asm": "OP_RETURN 97c8aab81efaaf6f0bbe5fb3196051dcbf88274861670727e9cb3184c9936675 36d62eaf92349c00de84a893c7db2b86acc58bd48bbdb80f563494d20e49aa7516f60e8fb214bc20fea488b3e7fb0ba68ce5abf4ab9d982f7614b4f22e698a5576966eefd274dc409ec4e8d3879b6bc6ec85cb94cbfdf84f1674d4924e09ea3556b64ecff254fc60bee4c8f3a7bb4be6cca5ebb4ebddd86f3654f4b26e29ca15b656ae2f12b41c805e042813475bab062c450b540b3d388fd6b414528ec92af596768e0f32943ca07e240833677b8b260c652b742b1d18aff6943472aee90ad5f616ee6f52f45cc01e446853071beb466c054b144b7d78cf96f45412ce896ab5d636ce4f72d47ce03e644873273bcb664c256b346b5d58efb6d47432eea94a9536d62eaf92349c00de84a893c7db2b86acc58bd48bbdb80f563494d20e49aa7516f60e8fb214bc20fea488b3e7fb0ba68ce5abf4ab9d982f7614b4f22e698a5576966eefd274dc409ec4e8d3879b6bc6ec85cb94cbfdf84f1674d4924e09ea3556b64ecff254fc60bee4c8f3a7bb4be6cca5ebb4ebddd86f3654f4b26e29ca15b656ae2f12b41c805e042813475bab062c450b540b3d388fd6b414528ec92af596768e0f32943ca07e240833677b8b260c652b742b1d18aff6943472aee90ad5f616ee6f52f45cc01e446853071beb466c054b144b7d78cf96f45412ce896ab5d636ce4f72d47ce03e644873273bcb664c256b346b5d58efb6d47432eea94a9536d62eaf92349c00de84a893c7db2b86acc58bd48bbdb80f563494d20e49aa7516f60e8fb214bc20fea488b3e7fb0ba68ce5abf4ab9d982f7614b4f22e698a5576966eefd274dc409ec4e8d3879b6bc6ec85cb94cbfdf84f1674d4924e09ea3556b64ecff254fc60bee4c8f3a7bb4be6cca5ebb4ebddd86f3654f4b26e29ca15b656ae2f12b41c805e042813475bab062c450b540b3d388fd6b414528ec92af596768e0f32943ca07e240833677b8b260c652b742b1d18aff6943472aee90ad5f616ee6f52f45cc01e446853071beb466c054b144b7d78cf96f45412ce896ab5d636ce4f72d47ce03e644873273bcb664c256b346b5d58efb6d47432eea94a9536d62eaf92349c00de84a893c7db2b86acc58bd48bbdb80f563494d20e49aa7516f60e8fb214bc20fea488b3e7fb0ba68ce5abf4ab9d982f7614b4f22e698a5576966eefd274dc409ec4e8d3879b6bc6ec85cb94cbfdf84f1674d4924e09ea3556b64ecff254fc60bee4c8f3a7bb4be6cca5ebb4ebddd86f3654f4b26e29ca15b656ae2f12b41c805e042813475bab062c450b540b3d388fd6b414528ec92af596768e0f32943ca07e240833677b8b260c652b742b1d18aff6943472aee90ad5f616ee6f52f45cc01e446853071beb466c054b144b7d78cf96f45412ce896ab5d636ce4f72d47ce03e644873273bcb664c256b346b5d58efb6d47432eea94a9536d62eaf92349c00de84a893c7db2b86acc58bd48bbdb80f563494d20e49aa7516f60e8fb214bc20fea488b3e7fb0ba68ce5abf4ab9d982f7614b4f22e698a5576966eefd274dc409ec4e8d3879b6bc6ec85cb94cbfdf84f1674d4924e09ea3556b64ecff254fc60bee4c8f3a7bb4be6cca5ebb4ebddd86f3654f4b26e29ca15b656ae2f12b41c805e042813475bab067c5d4ad28902f037ed28149cd31ccb90471bbad10097b90b83bc560b74d4f640",
        "hex": "6a2097c8aab81efaaf6f0bbe5fb3196051dcbf88274861670727e9cb3184c99366754db00436d62eaf92349c00de84a893c7db2b86acc58bd48bbdb80f563494d20e49aa7516f60e8fb214bc20fea488b3e7fb0ba68ce5abf4ab9d982f7614b4f22e698a5576966eefd274dc409ec4e8d3879b6bc6ec85cb94cbfdf84f1674d4924e09ea3556b64ecff254fc60bee4c8f3a7bb4be6cca5ebb4ebddd86f3654f4b26e29ca15b656ae2f12b41c805e042813475bab062c450b540b3d388fd6b414528ec92af596768e0f32943ca07e240833677b8b260c652b742b1d18aff6943472aee90ad5f616ee6f52f45cc01e446853071beb466c054b144b7d78cf96f45412ce896ab5d636ce4f72d47ce03e644873273bcb664c256b346b5d58efb6d47432eea94a9536d62eaf92349c00de84a893c7db2b86acc58bd48bbdb80f563494d20e49aa7516f60e8fb214bc20fea488b3e7fb0ba68ce5abf4ab9d982f7614b4f22e698a5576966eefd274dc409ec4e8d3879b6bc6ec85cb94cbfdf84f1674d4924e09ea3556b64ecff254fc60bee4c8f3a7bb4be6cca5ebb4ebddd86f3654f4b26e29ca15b656ae2f12b41c805e042813475bab062c450b540b3d388fd6b414528ec92af596768e0f32943ca07e240833677b8b260c652b742b1d18aff6943472aee90ad5f616ee6f52f45cc01e446853071beb466c054b144b7d78cf96f45412ce896ab5d636ce4f72d47ce03e644873273bcb664c256b346b5d58efb6d47432eea94a9536d62eaf92349c00de84a893c7db2b86acc58bd48bbdb80f563494d20e49aa7516f60e8fb214bc20fea488b3e7fb0ba68ce5abf4ab9d982f7614b4f22e698a5576966eefd274dc409ec4e8d3879b6bc6ec85cb94cbfdf84f1674d4924e09ea3556b64ecff254fc60bee4c8f3a7bb4be6cca5ebb4ebddd86f3654f4b26e29ca15b656ae2f12b41c805e042813475bab062c450b540b3d388fd6b414528ec92af596768e0f32943ca07e240833677b8b260c652b742b1d18aff6943472aee90ad5f616ee6f52f45cc01e446853071beb466c054b144b7d78cf96f45412ce896ab5d636ce4f72d47ce03e644873273bcb664c256b346b5d58efb6d47432eea94a9536d62eaf92349c00de84a893c7db2b86acc58bd48bbdb80f563494d20e49aa7516f60e8fb214bc20fea488b3e7fb0ba68ce5abf4ab9d982f7614b4f22e698a5576966eefd274dc409ec4e8d3879b6bc6ec85cb94cbfdf84f1674d4924e09ea3556b64ecff254fc60bee4c8f3a7bb4be6cca5ebb4ebddd86f3654f4b26e29ca15b656ae2f12b41c805e042813475bab062c450b540b3d388fd6b414528ec92af596768e0f32943ca07e240833677b8b260c652b742b1d18aff6943472aee90ad5f616ee6f52f45cc01e446853071beb466c054b144b7d78cf96f45412ce896ab5d636ce4f72d47ce03e644873273bcb664c256b346b5d58efb6d47432eea94a9536d62eaf92349c00de84a893c7db2b86acc58bd48bbdb80f563494d20e49aa7516f60e8fb214bc20fea488b3e7fb0ba68ce5abf4ab9d982f7614b4f22e698a5576966eefd274dc409ec4e8d3879b6bc6ec85cb94cbfdf84f1674d4924e09ea3556b64ecff254fc60bee4c8f3a7bb4be6cca5ebb4ebddd86f3654f4b26e29ca15b656ae2f12b41c805e042813475bab067c5d4ad28902f037ed28149cd31ccb90471bbad10097b90b83bc560b74d4f640",
        "type": "nulldata"
      }
    }
  ],
  "blockhash": "74cd48d8c624c37e1fac27c00c19e94c48df61d3ca85b84b56360e4f6170fa6f",
  "confirmations": 1,
  "time": 1764182926,
  "blocktime": 1764182926
}