{
  "hex": "01000000000101794d581af7e7c7f1514c6bbc1ae436a90fc5c71b36ea8ffd3ee14fdbe42186f50100000000feffffff0200e1f50500000000fdd5046a20ff0b45f9e1ad3d84589fd206fcebec34c91fa8e0afb9bed2ac5f4a541bfdaa554db0042c0fec82880d418beec56cf550db0e40f5bfc33d734185cc3a062286e310e3d90c2fcca2a82d61abcee54cd570fb2e60d59fe31d5361a5ec1a2602a6c330c3f96c4facc2c84d01cbae852cb5109b4e00b5ff837d3301c58c7a4662c6a350a3994c6f8ce2e86d21eb8ea50c9530bb6e2095dfa35d1321e5ac5a6642e6837083b9ac8f6c02088dc10b6e45ec75d05b8ec0753f43bdf3c1054cba86a206639063598caf4c2228ade12b4e65cc55f07baee0551f639dd3e1256c9aa6822643b04379eccf2c4248cd814b2e05ac35901bce80357f03fdb381450cfac6e24623d02319ccef0c6268eda16b0e258c15b03beea0155f23dd93a1652cdae6c26603f003392c0fec82880d418beec56cf550db0e40f5bfc33d734185cc3a062286e310e3d90c2fcca2a82d61abcee54cd570fb2e60d59fe31d5361a5ec1a2602a6c330c3f96c4facc2c84d01cbae852cb5109b4e00b5ff837d3301c58c7a4662c6a350a3994c6f8ce2e86d21eb8ea50c9530bb6e2095dfa35d1321e5ac5a6642e6837083b9ac8f6c02088dc10b6e45ec75d05b8ec0753f43bdf3c1054cba86a206639063598caf4c2228ade12b4e65cc55f07baee0551f639dd3e1256c9aa6822643b04379eccf2c4248cd814b2e05ac35901bce80357f03fdb381450cfac6e24623d02319ccef0c6268eda16b0e258c15b03beea0155f23dd93a1652cdae6c26603f003392c0fec82880d418beec56cf550db0e40f5bfc33d734185cc3a062286e310e3d90c2fcca2a82d61abcee54cd570fb2e60d59fe31d5361a5ec1a2602a6c330c3f96c4facc2c84d01cbae852cb5109b4e00b5ff837d3301c58c7a4662c6a350a3994c6f8ce2e86d21eb8ea50c9530bb6e2095dfa35d1321e5ac5a6642e6837083b9ac8f6c02088dc10b6e45ec75d05b8ec0753f43bdf3c1054cba86a206639063598caf4c2228ade12b4e65cc55f07baee0551f639dd3e1256c9aa6822643b04379eccf2c4248cd814b2e05ac35901bce80357f03fdb381450cfac6e24623d02319ccef0c6268eda16b0e258c15b03beea0155f23dd93a1652cdae6c26603f003392c0fec82880d418beec56cf550db0e40f5bfc33d734185cc3a062286e310e3d90c2fcca2a82d61abcee54cd570fb2e60d59fe31d5361a5ec1a2602a6c330c3f96c4facc2c84d01cbae852cb5109b4e00b5ff837d3301c58c7a4662c6a350a3994c6f8ce2e86d21eb8ea50c9530bb6e2095dfa35d1321e5ac5a6642e6837083b9ac8f6c02088dc10b6e45ec75d05b8ec0753f43bdf3c1054cba86a206639063598caf4c2228ade12b4e65cc55f07baee0551f639dd3e1256c9aa6822643b04379eccf2c4248cd814b2e05ac35901bce80357f03fdb381450cfac6e24623d02319ccef0c6268eda16b0e258c15b03beea0155f23dd93a1652cdae6c26603f003392c0fec82880d418beec56cf550db0e40f5bfc33d734185cc3a062286e310e3d90c2fcca2a82d61abcee54cd570fb2e60d59fe31d5361a5ec1a2602a6c330c3f96c4facc2c84d01cbae852cb5109b4e00b5ff837d3301c58c7a4662c6a350a3994c6f8ce2e86d21eb8ea50c9530bb6e2095dfa35d1321e5ac5a6642e6837083b9ac8f6c02088dc10b6e45ec75d05b8ec037384e19e2005d9b5033d94ac0fc733ff273014063a0cc2a18a41b52ae77e4d5a020df63792d000022512057c107cec2f5d0d6312db18d1586aca1c8b5900b6346eab66cc86c3e44a367fa02fd7509f635485f88ccfd0267bb4d7dd250cf83e97a4d8c6a9b245715cc96715add2983e616335e67b60e764800916a9785701991c74e768d1ca021ca01ef054571293d341f305ee1ae736b167596ca52ebbfd27b7a2b1345645f726512a7923ece66b5cb39ed53a1581c86e92960a0b7717d2d36a59e8eb7977fc9cf5e6549a5d7f629a3a2e5e9253cbfe030770d0b1bbdeada52455ef5d7e4455fe640d117d768260449cfef677f09552ee13485cd9d51d360bd1d0d1c32628461a5b661c0f5c133c382f664406e11732a15c612d65226c2c6a2deccb01686780462c5f2ea06c9c82ba95dc95bda32751ebdd31c544c098c5b027ac80b964f75fb2df05f99afa995110bbed4a95c5a18a1d5a287810307b602327c5b29fdbcf8aed53ebfb9d0410edbccf884a8badf238b6dd4b0272bd15014b2d425b3f317fcc23169372faf6b0e74c36c53c8084b3441afeffa096f18b96f5df0e930ad3814eda8f2da64b2abc02ced081dc7da4b6a69a23f1256d062ddb5b5acf54df713ac01c9e45d2ae60d193efb890292dd9459b31672755b28e58a1e0e070da37212430b638a820585290d25c9963fc0db56e4362d877d1a107959c5c6141f52dcaa752d7d83cd9b94b19b363f7caf38341e6476e7b4bd6ce1f5a4e357b3cd124d95d700effa9e8195ce37c7eac69c0dda802ac3d2db4158cb91846578a6f1d44c6d33f456ea13c3cc7562e16cdffa94931015929feb6af6f4d654778a8d5b260b7e3aab162f8d4d6c7fb65d32d9211232689449c6dd42cd48f858b15dfaab327e79bf5a670af6c1ca7abb2157ae9ce34de45cf9a0015dc1e0627df4bf5a07a8d3cf2ba38dba40fec6e9b3d1b67a06067e2e56df70065c937c282364d8891a2dd07a340edb0c3080901eb0f43bee8db48c5c5d5757fcabcb02e49bec252457ee6e812099c7147268efa27714c0976cbe6debd6fa21f4084525062be455118224d77e0e7718a5f0a8d988f9e5431e8c1037475312b9f72405543bd46e6e79476a6f699ba935bbcf83c11154c9a20f28e1492e686e87e548de2b61bd5eb05fa796ceafb8569ac7bc60f7c8521e19376c0b861e6a7be3229b1a2be1b9614b6cf5acb0d7974b1548394ca50718a9efcb35cf9482d422ff9ab8d19eefef00a34da9f145009882ba7fab3afa42fc021fe8acd6adc98be498544e5c1fc8c589131d08e60857ffb9cff5467c52ebe7ddc75a7e9af5c9ec8272fd419ecc7c3c54cd9cc05f7ca4dde76a384e0fd4ce292c8238a6a7767ec72494426b81a21069a43c8aebfb6e1647043113dc129154b813dafcf564424fbc4d367f09f05f139ea21679f7122ac27012f451bf5933957afbd4f7aa5b8c9102165b525aaa479f2765b3b08f0b4510c90af78ba6f7a630bab10d0e1671bbf6ed4050c15dc0e2d03fd7771d1787445370b93201466bb76405160b57f8ac64406483986e027ba9aaa40c06e7e1beba30f03b664b63749671d4b6d0214ae8b2f20149063a231af7336d741c1664055e084ad0b251c81fe873776570d3684287a2250eb5ab8c2c0cab7c50716cad9172b13c40fa71fcf9154b41a3bf010121eed728271bce8c6308c0ff9c014a0f53e5134383d56852db7e39208f9148f451bf55e108cc05fc0853924353376bc9f354c8f53d8e41d41b0e41b43bf93be4cfe7d7c958de5b846d7e7735a8cfbd6d6a3e1a773705e8632a86431a53dd267a3f5d10f5733e6108b0a04f26e645b8754091294a727e53011e4c70b9322c930f2aa3b43bd95acf48c90a53f106388a7f7afb05a766127ebfd37a8780d6a7c9b7b371da3cd60e9541642c83e06e4c9e7182ed5b11764353ff3eed3f44975fef52b6a3448bcb30c60662693f7fe2a35406fd4536b681b5d6e0f1d23840a7c4666a592cfedfdf06568f9040f535e1df7ca5a888ab72a032268ec2f0cb1fc4b1798078966b78b277d19bd236a09441aae4ab53b78474ddc0cf24c0b098932cd6e41e94595a3a688ebe998cbff28d4e80e4ef90ad1c728a0396aa64b707e0eae122f22db22a6e1f7976784e7397e40fcc9adb102cb4fd848aa90bd8edeb123886e79e5584c4453cd5e26cf6bcc9959dd938c09bfda7920b9df09fb22fe752332192b9c8538ed86d1c80a52708325827e7847dddce4c8abcf9d186b6f81ed5dd6cedff7209c4340abb8d09e0fd4ca8ce536456f6a3dd41751527d7307a2d47a4fe90ab7a3d6d5560d2de8b246129a4f060d9759723211b1f839db5b2b2b3dbb11171d6f77da1870283a3803472f94df0210b8ec56e9000aa43c551b2e207bd53c4129dc7c162841060518d196505b2db87c1e2bad99b40355758a49d5ea3037b6101fa135fbdc531c8079ed731441192f1fd662d559c946f9c00128082b4186ccc6823b3e17ab7b6bc751cfe2612d8b852c8eb283a5240c021e9dd0bf120722561aa824fc9524af3c065f03ce66fba30c6f1d80930e6271c8cda6e30afb053a53c95c1baf19cb4167cf8e00f4edfe82f63d00cbb12f8e36fe2fd1f2c9183f3ba5908a31df60e70be9aa1b07670d7f9ec207e793f42bce2fed6700982abf85e53521a846bab254bd751c28fd37ae35e13c9db5695c00fe5a963de621a1569410ea62e6866864849ed1646b306f70e29c1c878239335ecc6b3cd964add21a7fedac8d16e823788b525c206ae493843830df7b51ccb4148e060c7039c5f750f273b09e536b42adf804df9eaf9a976ae76243467b662646ff955e01193333341048a126329d38b8a1b2db27fe148f3368f3591d23733241d1c94b2b5859211e9e5a3be71ef104f522d0e975cc6b555205fbb3e2e8ad4a2f6dce97f9b6f1a85016f8874f4034507bd27826e60deb9ecfd288d335f97f2b9a50ba23306ba9f6f1bd6d2d948381cd2b9666e50cea4ae970dac400bc6833581b36de253b96b039d59bd1d94447f7f45e453ba80dbf0f4d3dc41a996a877458ee14d9fcbb2518b1986b0eb33b139ec60451c589e301a019b12124c69df03cb1383d3499cc73af5edd8efb71a2a1181dc4d92b9a4db8a7b7b7ad233618ca6299c289bd709f8156e5c728c3e599ac174134da65ea69ecbb13d131b0daff0c321cbc7a5a28675c070a6486098e979900669ee3b315fa4c07268d80fbb9ad66f4b72dd5ff77b47b5d7363b82c5701028fa6313e5aba4d709131b072eb27593ab1c11e7d52c161a5835a2fde1c2ec69b4dbf8c585d3e5bd320f8257c0b7e8b11123d9b3e01b184d5ef7f145c620d1283edf37909f1ccb185e422cf4b4038bc5aeb14297167182f30fc35ba434320a2f3f4060a8b9c7f30205080b10426972788f90919a9ca3c0c8cddde4f0010a303f40434d627a8c9aaaacb6bec9d3d6d816263f5458596f7a8c98a6ebf9000000000000000000000000000000000000091e313e01fd2105000a1f3616ca8aa3269ef1b8958fd37617300f6b8f0cb3b045ff9fc7661661132e1b3a677c3c2ed4439c5293de9b4589107d7135153d8b4b93b52307ec02dbfe5b63d6dd63c47fd668966d55006c6c89c55c1eec38ce4ff0e2833b587cbddd656d18272a2448d78b8c0f94eb676bcc2fbb746bf7bdeb5e326d151881c095091a1d11bc90e5c65c4a35f096e7b1fb4416edee2617fc883b2e3b0601e81ec6777f6e76ae1be767a0a681bd5bbf045644595a6a33c52f8ef8419abece67c11698068501444e2a9c0c604c509b4f4170906d76b9110ec2cde719c2ec186eafd8b39f91108e2d52769e0b9910903bc4f5cb98366338284b72f685c35900b0b2f44a3df9275cab8c26498c7f81a3731c7611b1f32b99d2cfa028cdad4ce4e8b772eafd1a0b98297e4331449e9c1a645720d52a42c1be75f8d82afd56a60f3b56ecba388009d1bdc9d44fca74c33c5edb3e853993cc7d9da151770a15fa7d0a19a18f343062caee5b290911086aff00b68c77636f00a5b52c78f738500e629f241f48b6dc5d0ffcf291edd11eed98f583d1e886d803c2dd5f56ee38ada203d866161c7cadd6916f1480c3cec2c6bab872eca08eeeb82d7ee7fbdfcde4853f037a78ab226a7b6f6314858a388c6a6281b3db31ffca3becc9536b90ef75feb9eb54262846f949624344ae9d416296b4b2fb92dd717b5ebaab8beea5d8796b4142b55d4961f2e172a501a20298a2a8186bb58748ff2dcdaf4aad3c8be1b81685136af74376f977384fb7af5d53b6b22f1fcde2da458c408b4354380970e7a5821710b361253d805784bf9341e0bd723460afb514be4618ec27a387535d328dd4d0afd404c04c5e01af42c51192714d6cca8a27dffcefca24aa26bf8bda5169e9c16485b8424f2be373122cfd9d14f2a59247270d91bc9ed9193dd7f943bd9d50535700c723545f43882dcda0955fc95a906e4f676ef19ee66cc960600093a30757b50b1d9a87c5c24732235a740cc3eefb484306532358391c41a31641e07c6a1bb52e50ade1703abf2ba62254fc743272c1238b2624e2a9949c0bd8a8407308a0db62c632bdeb5e7c12af99c9563744b7cb8213db9a0242661927d5946f616e62834eea3f05f1df0e1d3c830a56de2112370923de364a34867a10f4a64016e4853d6f3865442b119b0744280dca5e10ae1cb90a9999594ecc263356210dd1dca19dc7d82f8c732d5ffd8b658e23c90849ede63b7dbb022bf82ae26d52259ce5cca67f4a4827bc1581fefc5783de810178a803688c99d9c157d9bf1b39218f958561c49126416f37479b08213f63f0c0fd386d24ddd003467b3111241a6b1e8be914d0b3e7753173a84cf713131fdbdf32bfcf3e138da79a707dc93dce2d8e67735778ee1cd5e9c36376d43f0ecfd0465f2b9a8de525dc39da3b5b2eeeef5547246a15a021047b4978a604c6c73547a736f72cd2aa902991311815c72bb7df60292532b5dcbc3c6b313033f5b79b050bba5f191ba39a8f4c89bf44484935e115518054d34a9dd74eeffd3c7a96247b11018ecddc38f552992d3c8883bd00be4bcc2e73e77726bc28e8dafed5ef268bd40a4e4efb9bc7e0c4135145a0f61e10457fdff4aa00746bf889041b83e3e4aef20ac83d3bded0e7a7862eb2d1a4655fbc0aa8af9f70ea27152b757626a10dcf89009c04bba702d6abaa5c1880d4ae8f50ec2d32bb7eece71587c57be4bb11087eefbce9b072d6cc637c89f4b0fbfedeb470b9df193ac21f84d38e23f72d5b735760f3d4b1676034ed4394e9161780a2c719a8d4570e3f924203d6d455769a3e27ae07ded162c45a01c47108b432713875c5306f2ce87e68000000",
  "txid": "01ade53880e54ffa361b0c9d7c99153741db4e0cf233abc44bdaf41212863cc4",
  "hash": "8c7047ed191a38dc63a6b4e3bc6bf037abcac4a08dfd208e4bc9649250f3d71e",
  "size": 5085,
  "vsize": 2278,
  "version": 1,
  "locktime": 104,
  "vin": [
    {
      "txid": "f58621e4db4fe13efd8fea361bc7c50fa936e41abc6b4c51f1c7e7f71a584d79",
      "vout": 1,
      "scriptSig": {
        "asm": "",
        "hex": ""
      },
      "txinwitness": [
        "f635485f88ccfd0267bb4d7dd250cf83e97a4d8c6a9b245715cc96715add2983e616335e67b60e764800916a9785701991c74e768d1ca021ca01ef054571293d341f305ee1ae736b167596ca52ebbfd27b7a2b1345645f726512a7923ece66b5cb39ed53a1581c86e92960a0b7717d2d36a59e8eb7977fc9cf5e6549a5d7f629a3a2e5e9253cbfe030770d0b1bbdeada52455ef5d7e4455fe640d117d768260449cfef677f09552ee13485cd9d51d360bd1d0d1c32628461a5b661c0f5c133c382f664406e11732a15c612d65226c2c6a2deccb01686780462c5f2ea06c9c82ba95dc95bda32751ebdd31c544c098c5b027ac80b964f75fb2df05f99afa995110bbed4a95c5a18a1d5a287810307b602327c5b29fdbcf8aed53ebfb9d0410edbccf884a8badf238b6dd4b0272bd15014b2d425b3f317fcc23169372faf6b0e74c36c53c8084b3441afeffa096f18b96f5df0e930ad3814eda8f2da64b2abc02ced081dc7da4b6a69a23f1256d062ddb5b5acf54df713ac01c9e45d2ae60d193efb890292dd9459b31672755b28e58a1e0e070da37212430b638a820585290d25c9963fc0db56e4362d877d1a107959c5c6141f52dcaa752d7d83cd9b94b19b363f7caf38341e6476e7b4bd6ce1f5a4e357b3cd124d95d700effa9e8195ce37c7eac69c0dda802ac3d2db4158cb91846578a6f1d44c6d33f456ea13c3cc7562e16cdffa94931015929feb6af6f4d654778a8d5b260b7e3aab162f8d4d6c7fb65d32d9211232689449c6dd42cd48f858b15dfaab327e79bf5a670af6c1ca7abb2157ae9ce34de45cf9a0015dc1e0627df4bf5a07a8d3cf2ba38dba40fec6e9b3d1b67a06067e2e56df70065c937c282364d8891a2dd07a340edb0c3080901eb0f43bee8db48c5c5d5757fcabcb02e49bec252457ee6e812099c7147268efa27714c0976cbe6debd6fa21f4084525062be455118224d77e0e7718a5f0a8d988f9e5431e8c1037475312b9f72405543bd46e6e79476a6f699ba935bbcf83c11154c9a20f28e1492e686e87e548de2b61bd5eb05fa796ceafb8569ac7bc60f7c8521e19376c0b861e6a7be3229b1a2be1b9614b6cf5acb0d7974b1548394ca50718a9efcb35cf9482d422ff9ab8d19eefef00a34da9f145009882ba7fab3afa42fc021fe8acd6adc98be498544e5c1fc8c589131d08e60857ffb9cff5467c52ebe7ddc75a7e9af5c9ec8272fd419ecc7c3c54cd9cc05f7ca4dde76a384e0fd4ce292c8238a6a7767ec72494426b81a21069a43c8aebfb6e1647043113dc129154b813dafcf564424fbc4d367f09f05f139ea21679f7122ac27012f451bf5933957afbd4f7aa5b8c9102165b525aaa479f2765b3b08f0b4510c90af78ba6f7a630bab10d0e1671bbf6ed4050c15dc0e2d03fd7771d1787445370b93201466bb76405160b57f8ac64406483986e027ba9aaa40c06e7e1beba30f03b664b63749671d4b6d0214ae8b2f20149063a231af7336d741c1664055e084ad0b251c81fe873776570d3684287a2250eb5ab8c2c0cab7c50716cad9172b13c40fa71fcf9154b41a3bf010121eed728271bce8c6308c0ff9c014a0f53e5134383d56852db7e39208f9148f451bf55e108cc05fc0853924353376bc9f354c8f53d8e41d41b0e41b43bf93be4cfe7d7c958de5b846d7e7735a8cfbd6d6a3e1a773705e8632a86431a53dd267a3f5d10f5733e6108b0a04f26e645b8754091294a727e53011e4c70b9322c930f2aa3b43bd95acf48c90a53f106388a7f7afb05a766127ebfd37a8780d6a7c9b7b371da3cd60e9541642c83e06e4c9e7182ed5b11764353ff3eed3f44975fef52b6a3448bcb30c60662693f7fe2a35406fd4536b681b5d6e0f1d23840a7c4666a592cfedfdf06568f9040f535e1df7ca5a888ab72a032268ec2f0cb1fc4b1798078966b78b277d19bd236a09441aae4ab53b78474ddc0cf24c0b098932cd6e41e94595a3a688ebe998cbff28d4e80e4ef90ad1c728a0396aa64b707e0eae122f22db22a6e1f7976784e7397e40fcc9adb102cb4fd848aa90bd8edeb123886e79e5584c4453cd5e26cf6bcc9959dd938c09bfda7920b9df09fb22fe752332192b9c8538ed86d1c80a52708325827e7847dddce4c8abcf9d186b6f81ed5dd6cedff7209c4340abb8d09e0fd4ca8ce536456f6a3dd41751527d7307a2d47a4fe90ab7a3d6d5560d2de8b246129a4f060d9759723211b1f839db5b2b2b3dbb11171d6f77da1870283a3803472f94df0210b8ec56e9000aa43c551b2e207bd53c4129dc7c162841060518d196505b2db87c1e2bad99b40355758a49d5ea3037b6101fa135fbdc531c8079ed731441192f1fd662d559c946f9c00128082b4186ccc6823b3e17ab7b6bc751cfe2612d8b852c8eb283a5240c021e9dd0bf120722561aa824fc9524af3c065f03ce66fba30c6f1d80930e6271c8cda6e30afb053a53c95c1baf19cb4167cf8e00f4edfe82f63d00cbb12f8e36fe2fd1f2c9183f3ba5908a31df60e70be9aa1b07670d7f9ec207e793f42bce2fed6700982abf85e53521a846bab254bd751c28fd37ae35e13c9db5695c00fe5a963de621a1569410ea62e6866864849ed1646b306f70e29c1c878239335ecc6b3cd964add21a7fedac8d16e823788b525c206ae493843830df7b51ccb4148e060c7039c5f750f273b09e536b42adf804df9eaf9a976ae76243467b662646ff955e01193333341048a126329d38b8a1b2db27fe148f3368f3591d23733241d1c94b2b5859211e9e5a3be71ef104f522d0e975cc6b555205fbb3e2e8ad4a2f6dce97f9b6f1a85016f8874f4034507bd27826e60deb9ecfd288d335f97f2b9a50ba23306ba9f6f1bd6d2d948381cd2b9666e50cea4ae970dac400bc6833581b36de253b96b039d59bd1d94447f7f45e453ba80dbf0f4d3dc41a996a877458ee14d9fcbb2518b1986b0eb33b139ec60451c589e301a019b12124c69df03cb1383d3499cc73af5edd8efb71a2a1181dc4d92b9a4db8a7b7b7ad233618ca6299c289bd709f8156e5c728c3e599ac174134da65ea69ecbb13d131b0daff0c321cbc7a5a28675c070a6486098e979900669ee3b315fa4c07268d80fbb9ad66f4b72dd5ff77b47b5d7363b82c5701028fa6313e5aba4d709131b072eb27593ab1c11e7d52c161a5835a2fde1c2ec69b4dbf8c585d3e5bd320f8257c0b7e8b11123d9b3e01b184d5ef7f145c620d1283edf37909f1ccb185e422cf4b4038bc5aeb14297167182f30fc35ba434320a2f3f4060a8b9c7f30205080b10426972788f90919a9ca3c0c8cddde4f0010a303f40434d627a8c9aaaacb6bec9d3d6d816263f5458596f7a8c98a6ebf9000000000000000000000000000000000000091e313e01",
        "000a1f3616ca8aa3269ef1b8958fd37617300f6b8f0cb3b045ff9fc7661661132e1b3a677c3c2ed4439c5293de9b4589107d7135153d8b4b93b52307ec02dbfe5b63d6dd63c47fd668966d55006c6c89c55c1eec38ce4ff0e2833b587cbddd656d18272a2448d78b8c0f94eb676bcc2fbb746bf7bdeb5e326d151881c095091a1d11bc90e5c65c4a35f096e7b1fb4416edee2617fc883b2e3b0601e81ec6777f6e76ae1be767a0a681bd5bbf045644595a6a33c52f8ef8419abece67c11698068501444e2a9c0c604c509b4f4170906d76b9110ec2cde719c2ec186eafd8b39f91108e2d52769e0b9910903bc4f5cb98366338284b72f685c35900b0b2f44a3df9275cab8c26498c7f81a3731c7611b1f32b99d2cfa028cdad4ce4e8b772eafd1a0b98297e4331449e9c1a645720d52a42c1be75f8d82afd56a60f3b56ecba388009d1bdc9d44fca74c33c5edb3e853993cc7d9da151770a15fa7d0a19a18f343062caee5b290911086aff00b68c77636f00a5b52c78f738500e629f241f48b6dc5d0ffcf291edd11eed98f583d1e886d803c2dd5f56ee38ada203d866161c7cadd6916f1480c3cec2c6bab872eca08eeeb82d7ee7fbdfcde4853f037a78ab226a7b6f6314858a388c6a6281b3db31ffca3becc9536b90ef75feb9eb54262846f949624344ae9d416296b4b2fb92dd717b5ebaab8beea5d8796b4142b55d4961f2e172a501a20298a2a8186bb58748ff2dcdaf4aad3c8be1b81685136af74376f977384fb7af5d53b6b22f1fcde2da458c408b4354380970e7a5821710b361253d805784bf9341e0bd723460afb514be4618ec27a387535d328dd4d0afd404c04c5e01af42c51192714d6cca8a27dffcefca24aa26bf8bda5169e9c16485b8424f2be373122cfd9d14f2a59247270d91bc9ed9193dd7f943bd9d50535700c723545f43882dcda0955fc95a906e4f676ef19ee66cc960600093a30757b50b1d9a87c5c24732235a740cc3eefb484306532358391c41a31641e07c6a1bb52e50ade1703abf2ba62254fc743272c1238b2624e2a9949c0bd8a8407308a0db62c632bdeb5e7c12af99c9563744b7cb8213db9a0242661927d5946f616e62834eea3f05f1df0e1d3c830a56de2112370923de364a34867a10f4a64016e4853d6f3865442b119b0744280dca5e10ae1cb90a9999594ecc263356210dd1dca19dc7d82f8c732d5ffd8b658e23c90849ede63b7dbb022bf82ae26d52259ce5cca67f4a4827bc1581fefc5783de810178a803688c99d9c157d9bf1b39218f958561c49126416f37479b08213f63f0c0fd386d24ddd003467b3111241a6b1e8be914d0b3e7753173a84cf713131fdbdf32bfcf3e138da79a707dc93dce2d8e67735778ee1cd5e9c36376d43f0ecfd0465f2b9a8de525dc39da3b5b2eeeef5547246a15a021047b4978a604c6c73547a736f72cd2aa902991311815c72bb7df60292532b5dcbc3c6b313033f5b79b050bba5f191ba39a8f4c89bf44484935e115518054d34a9dd74eeffd3c7a96247b11018ecddc38f552992d3c8883bd00be4bcc2e73e77726bc28e8dafed5ef268bd40a4e4efb9bc7e0c4135145a0f61e10457fdff4aa00746bf889041b83e3e4aef20ac83d3bded0e7a7862eb2d1a4655fbc0aa8af9f70ea27152b757626a10dcf89009c04bba702d6abaa5c1880d4ae8f50ec2d32bb7eece71587c57be4bb11087eefbce9b072d6cc637c89f4b0fbfedeb470b9df193ac21f84d38e23f72d5b735760f3d4b1676034ed4394e9161780a2c719a8d4570e3f924203d6d455769a3e27ae07ded162c45a01c47108b432713875c5306f2ce87e"
      ],
      "sequence": 4294967294
    }
  ],
  "vout": [
    {
      "value": 1.0,
      "n": 0,
      "scriptPubKey": {
        "asm": "OP_RETURN ff0b45f9e1ad3d84589fd206fcebec34c91fa8e0afb9bed2ac5f4a541bfdaa55 2c0fec82880d418beec56cf550db0e40f5bfc33d734185cc3a062286e310e3d90c2fcca2a82d61abcee54cd570fb2e60d59fe31d5361a5ec1a2602a6c330c3f96c4facc2c84d01cbae852cb5109b4e00b5ff837d3301c58c7a4662c6a350a3994c6f8ce2e86d21eb8ea50c9530bb6e2095dfa35d1321e5ac5a6642e6837083b9ac8f6c02088dc10b6e45ec75d05b8ec0753f43bdf3c1054cba86a206639063598caf4c2228ade12b4e65cc55f07baee0551f639dd3e1256c9aa6822643b04379eccf2c4248cd814b2e05ac35901bce80357f03fdb381450cfac6e24623d02319ccef0c6268eda16b0e258c15b03beea0155f23dd93a1652cdae6c26603f003392c0fec82880d418beec56cf550db0e40f5bfc33d734185cc3a062286e310e3d90c2fcca2a82d61abcee54cd570fb2e60d59fe31d5361a5ec1a2602a6c330c3f96c4facc2c84d01cbae852cb5109b4e00b5ff837d3301c58c7a4662c6a350a3994c6f8ce2e86d21eb8ea50c9530bb6e2095dfa35d1321e5ac5a6642e6837083b9ac8f6c02088dc10b6e45ec75d05b8ec0753f43bdf3c1054cba86a206639063598caf4c2228ade12b4e65cc55f07baee0551f639dd3e1256c9aa6822643b04379eccf2c4248cd814b2e05ac35901bce80357f03fdb381450cfac6e24623d02319ccef0c6268eda16b0e258c15b03beea0155f23dd93a1652cdae6c26603f003392c0fec82880d418beec56cf550db0e40f5bfc33d734185cc3a062286e310e3d90c2fcca2a82d61abcee54cd570fb2e60d59fe31d5361a5ec1a2602a6c330c3f96c4facc2c84d01cbae852cb5109b4e00b5ff837d3301c58c7a4662c6a350a3994c6f8ce2e86d21eb8ea50c9530bb6e2095dfa35d1321e5ac5a6642e6837083b9ac8f6c02088dc10b6e45ec75d05b8ec0753f43bdf3c1054cba86a206639063598caf4c2228ade12b4e65cc55f07baee0551f639dd3e1256c9aa6822643b04379eccf2c4248cd814b2e05ac35901bce80357f03fdb381450cfac6e24623d02319ccef0c6268eda16b0e258c15b03beea0155f23dd93a1652cdae6c26603f003392c0fec82880d418beec56cf550db0e40f5bfc33d734185cc3a062286e310e3d90c2fcca2a82d61abcee54cd570fb2e60d59fe31d5361a5ec1a2602a6c330c3f96c4facc2c84d01cbae852cb5109b4e00b5ff837d3301c58c7a4662c6a350a3994c6f8ce2e86d21eb8ea50c9530bb6e2095dfa35d1321e5ac5a6642e6837083b9ac8f6c02088dc10b6e45ec75d05b8ec0753f43bdf3c1054cba86a206639063598caf4c2228ade12b4e65cc55f07baee0551f639dd3e1256c9aa6822643b04379eccf2c4248cd814b2e05ac35901bce80357f03fdb381450cfac6e24623d02319ccef0c6268eda16b0e258c15b03beea0155f23dd93a1652cdae6c26603f003392c0fec82880d418beec56cf550db0e40f5bfc33d734185cc3a062286e310e3d90c2fcca2a82d61abcee54cd570fb2e60d59fe31d5361a5ec1a2602a6c330c3f96c4facc2c84d01cbae852cb5109b4e00b5ff837d3301c58c7a4662c6a350a3994c6f8ce2e86d21eb8ea50c9530bb6e2095dfa35d1321e5ac5a6642e6837083b9ac8f6c02088dc10b6e45ec75d05b8ec037384e19e2005d9b5033d94ac0fc733ff273014063a0cc2a18a41b52ae77e4d5",
        "hex": "6a20ff0b45f9e1ad3d84589fd206fcebec34c91fa8e0afb9bed2ac5f4a541bfdaa554db0042c0fec82880d418beec56cf550db0e40f5bfc33d734185cc3a062286e310e3d90c2fcca2a82d61abcee54cd570fb2e60d59fe31d5361a5ec1a2602a6c330c3f96c4facc2c84d01cbae852cb5109b4e00b5ff837d3301c58c7a4662c6a350a3994c6f8ce2e86d21eb8ea50c9530bb6e2095dfa35d1321e5ac5a6642e6837083b9ac8f6c02088dc10b6e45ec75d05b8ec0753f43bdf3c1054cba86a206639063598caf4c2228ade12b4e65cc55f07baee0551f639dd3e1256c9aa6822643b04379eccf2c4248cd814b2e05ac35901bce80357f03fdb381450cfac6e24623d02319ccef0c6268eda16b0e258c15b03beea0155f23dd93a1652cdae6c26603f003392c0fec82880d418beec56cf550db0e40f5bfc33d734185cc3a062286e310e3d90c2fcca2a82d61abcee54cd570fb2e60d59fe31d5361a5ec1a2602a6c330c3f96c4facc2c84d01cbae852cb5109b4e00b5ff837d3301c58c7a4662c6a350a3994c6f8ce2e86d21eb8ea50c9530bb6e2095dfa35d1321e5ac5a6642e6837083b9ac8f6c02088dc10b6e45ec75d05b8ec0753f43bdf3c1054cba86a206639063598caf4c2228ade12b4e65cc55f07baee0551f639dd3e1256c9aa6822643b04379eccf2c4248cd814b2e05ac35901bce80357f03fdb381450cfac6e24623d02319ccef0c6268eda16b0e258c15b03beea0155f23dd93a1652cdae6c26603f003392c0fec82880d418beec56cf550db0e40f5bfc33d734185cc3a062286e310e3d90c2fcca2a82d61abcee54cd570fb2e60d59fe31d5361a5ec1a2602a6c330c3f96c4facc2c84d01cbae852cb5109b4e00b5ff837d3301c58c7a4662c6a350a3994c6f8ce2e86d21eb8ea50c9530bb6e2095dfa35d1321e5ac5a6642e6837083b9ac8f6c02088dc10b6e45ec75d05b8ec0753f43bdf3c1054cba86a206639063598caf4c2228ade12b4e65cc55f07baee0551f639dd3e1256c9aa6822643b04379eccf2c4248cd814b2e05ac35901bce80357f03fdb381450cfac6e24623d02319ccef0c6268eda16b0e258c15b03beea0155f23dd93a1652cdae6c26603f003392c0fec82880d418beec56cf550db0e40f5bfc33d734185cc3a062286e310e3d90c2fcca2a82d61abcee54cd570fb2e60d59fe31d5361a5ec1a2602a6c330c3f96c4facc2c84d01cbae852cb5109b4e00b5ff837d3301c58c7a4662c6a350a3994c6f8ce2e86d21eb8ea50c9530bb6e2095dfa35d1321e5ac5a6642e6837083b9ac8f6c02088dc10b6e45ec75d05b8ec0753f43bdf3c1054cba86a206639063598caf4c2228ade12b4e65cc55f07baee0551f639dd3e1256c9aa6822643b04379eccf2c4248cd814b2e05ac35901bce80357f03fdb381450cfac6e24623d02319ccef0c6268eda16b0e258c15b03beea0155f23dd93a1652cdae6c26603f003392c0fec82880d418beec56cf550db0e40f5bfc33d734185cc3a062286e310e3d90c2fcca2a82d61abcee54cd570fb2e60d59fe31d5361a5ec1a2602a6c330c3f96c4facc2c84d01cbae852cb5109b4e00b5ff837d3301c58c7a4662c6a350a3994c6f8ce2e86d21eb8ea50c9530bb6e2095dfa35d1321e5ac5a6642e6837083b9ac8f6c02088dc10b6e45ec75d05b8ec037384e19e2005d9b5033d94ac0fc733ff273014063a0cc2a18a41b52ae77e4d5",
        "type": "nulldata"
      }
    },
    {
      "value": 499993.8986,
      "n": 1,
      "scriptPubKey": {
        "asm": "1 57c107cec2f5d0d6312db18d1586aca1c8b5900b6346eab66cc86c3e44a367fa",
        "hex": "512057c107cec2f5d0d6312db18d1586aca1c8b5900b6346eab66cc86c3e44a367fa",
        "reqSigs": 1,
        "type": "witness_v1_scripthash",
        "addresses": [
          "3QJmnh"
        ]
      }
    }
  ],
  "blockhash": "32a2d379a33ec88ae1cb3a8a1a44f2d12b76aebf574ecf7ac16b289397ed6cd9",
  "confirmations": 1,
  "time": 1764176557,
  "blocktime": 1764176557
}