{
  "hex": "01000000000101590322c691c66915f44a20641235175f3e09a9a901000d092752cc25f8f9ffb10000000000feffffff0250ce18b4782d0000225120e2fb4e4dd79a4cd2c2faa978018ac9e01ef693ee73e64299688a93216b9c841c00e1f50500000000fdd5046a20cfdb53ce0b3429016da284f14a8734bb768101db1a68340f79e1646e8d69355c4db00461bd4de621c0eab4f62331019aebff513175aa55763501ef0865992dd113a1db419d6dc601e0ca94d6031121bacbdf7111558a75561521cf2845b90df13381fb21fd0da66180aaf4b6637141daabbf117135ea15367541af4825d96d9153e19b01dd2d8641a08ad496435161fa8b9f315115ca351655618f6805f94db173c1bbe13dcd66a1406a3476a3b1811a6b7fd1b1f52ad5f6b5816f88e519ad5193215bc11ded4681604a14568391a13a4b5ff191d50af5d695a14fa8c5398d71b3017ba17d8d26e1002a7436e3f1c15a2b3f91f1b56a95b6f5c12fc8a559ed11d3611b815dad06c1200a5416c3d1e17a0b1fb1d1954ab596d5e10fe88579cd31f3413b61bd4de621c0eab4f62331019aebff513175aa55763501ef0865992dd113a1db419d6dc601e0ca94d6031121bacbdf7111558a75561521cf2845b90df13381fb21fd0da66180aaf4b6637141daabbf117135ea15367541af4825d96d9153e19b01dd2d8641a08ad496435161fa8b9f315115ca351655618f6805f94db173c1bbe13dcd66a1406a3476a3b1811a6b7fd1b1f52ad5f6b5816f88e519ad5193215bc11ded4681604a14568391a13a4b5ff191d50af5d695a14fa8c5398d71b3017ba17d8d26e1002a7436e3f1c15a2b3f91f1b56a95b6f5c12fc8a559ed11d3611b815dad06c1200a5416c3d1e17a0b1fb1d1954ab596d5e10fe88579cd31f3413b61bd4de621c0eab4f62331019aebff513175aa55763501ef0865992dd113a1db419d6dc601e0ca94d6031121bacbdf7111558a75561521cf2845b90df13381fb21fd0da66180aaf4b6637141daabbf117135ea15367541af4825d96d9153e19b01dd2d8641a08ad496435161fa8b9f315115ca351655618f6805f94db173c1bbe13dcd66a1406a3476a3b1811a6b7fd1b1f52ad5f6b5816f88e519ad5193215bc11ded4681604a14568391a13a4b5ff191d50af5d695a14fa8c5398d71b3017ba17d8d26e1002a7436e3f1c15a2b3f91f1b56a95b6f5c12fc8a559ed11d3611b815dad06c1200a5416c3d1e17a0b1fb1d1954ab596d5e10fe88579cd31f3413b61bd4de621c0eab4f62331019aebff513175aa55763501ef0865992dd113a1db419d6dc601e0ca94d6031121bacbdf7111558a75561521cf2845b90df13381fb21fd0da66180aaf4b6637141daabbf117135ea15367541af4825d96d9153e19b01dd2d8641a08ad496435161fa8b9f315115ca351655618f6805f94db173c1bbe13dcd66a1406a3476a3b1811a6b7fd1b1f52ad5f6b5816f88e519ad5193215bc11ded4681604a14568391a13a4b5ff191d50af5d695a14fa8c5398d71b3017ba17d8d26e1002a7436e3f1c15a2b3f91f1b56a95b6f5c12fc8a559ed11d3611b815dad06c1200a5416c3d1e17a0b1fb1d1954ab596d5e10fe88579cd31f3413b61bd4de621c0eab4f62331019aebff513175aa55763501ef0865992dd113a1db419d6dc601e0ca94d6031121bacbdf7111558a75561521cf2845b90df13381fb21fd0da66180aaf4b6637141daabbf117135ea15367541af4825d96d9153e19b01dd2d8641a08ad496435161fa8b9f315115ca351655618f6805f94db173c1bbe13dcd66a1406a3476a3b1811a6b7fd1731094a6ee425aa98424cc561330a414291a912387cd92ff1457248ae279c35502fd750992ab36c99aab4723658069208b1a340ce38d658b3e1442eba94228828651cdbef21254bc1caf10b5ae40326dfb685f41ad14d01461957f45f8f7eaeaef4b6f6f205fec3344f8d05fdec07d888e4d08bf28c5e98f47d2c760c6d8d59746d0a4594fb4c70e1abee8529c2e69a3844c0b78f5b9bc5b3bde1c149e2df24f8a8abdd0eafd82e0d97dfb770f9ca3c14843fc0ea8353a02e24a8fc7d6f21e184ecd57a551a53deccd35136b705335dbb6cfa03b651d5f2c56a9a3162235543ad933e8b0891686a153ff27d1ca0d9f97fcb72fc8302d0bc66296c0dc12faca78f0324ab1f609bdf0ccd955e61a8b3524ae6129df09316581530a655ecd376ff13fff9805c5b7b9bd9931cc20316d0f78dd1650ab806c608a9a9c5994162bb9f83b926b0eeff8ed617aca8325e389af18894746b4735e2dba80f5b15ec74db275f4f9ad55672b02a1493463ce0a4acc09a882bad65d26608cabb2a36e7b075d3a029a8c0ae89a0a4ac3626e404ce03f8bf0f78df9e14fa4c299ea4d21ee3dd34940df7d4e75b5896e861faf5235a1fbcf03ed44f30ceb978169f0f08e50574c5d027d7f360f2ff2a23cc06e51cad565cf0e00196e250232f3846f2c31a9e082682bc68402e8e18d836c14a5836f55cb35d5091bb421a5ca2ced1843d0c2a091751ed581acd952badad31bb49ea4dd10e1799df3387edfcacc1a4cf15041ab6c4782f8ba631fb86dea368532f358a16895c21bb6c863a857461892fe539f7b53d1d01abd6cf6d8e59b4675b827c2e27f78fa23120ed6d4f51a060dcade020b300db3c81a7c09f2764b06beca24db5706459e9df5007d8f46257c72bd1e492cbb005f4d7fbec12d2301a3880f2b019415bb131e0aa5e1ca51b39aea24281122679f613ffca650966ad7ac485c32a73643cf34657c5100a20437c9b971b8b1b7afe4bb2549cdd83e0e857f37fae9b928c211d1e3e75119d9e219e99b2975efbf6591af5712ac84d9485218c211fdd25ee570d390251830a8ed4a491cb4d1a6e69935d11e93254e4624d233ac9629e6e15ffd762e95c404f9eca7d68afdcc4b6837dd47551c6c18a84324e9dde65676715933ab5d9ad1f42e4b4c360cd063446c4693b75a33f037a982fd2069da206c08b0605fc8bec423b9e753ca2fcd9aa2ecb1ce6ac46a5c88cb8326e2adb632f6420689e6490123ea2c6b1eb2becb91316a7fced5854dff8d8af9b0de342f3508b10046ae4b4e717d877861bef03ad38e83f74e14bf3d6ecac0fe43bf9e93a2fcc33c6aa962dfe67a4b27c1ed5e40581bb19b75f4197033fc7c6c8ed8ea6522a0aded2db1322cf53aa294b1588b3ee3f6a2a22dad250444cf4f60331a73385115320b00aae083681189b11f87c2f153eb0d3cdf892cbc2d69d0095ecbde6947ea01bbf396ebc3e0a210d7a7ebafd2a9bbf974ac8b53bb92385459306d60864751e77816fda820c32efe13e3cb42c4a71a9c1137092b17d67f973ec87eb876181cd5ea8f2edac506fd0622882c428bcf5bb4ede003356f6c520ddd802f76109352a7311499b262d4b19f48fdc68c59ab5ac4585e0b460c01565e0c6be6c66f2d7d4d4db0ac24f36f62e71a03179d9070df774a4d654e38b6e95a82393a7eefa041dbf71f5e4047c72cf33afd8d06c5aa6f99dc825956bd5850e6030ba33ba5de0acacdcd4da7f5b65ef50a5e36ffbe2f405b94c8e255100ea1530389c54afa1ad0ab03650338b2374a77da02971a056eeb038dda9a24c320dea08769b96aaf7821628b96ce8f5d31e3b51ed4f35b50274299e6a988124e12862478e45d50c53b02e061ea445079cbc5d0299e9596b8f16451555cc797656d5fdf2d6bad6ddcb0c721ca02b9c23cc14027d3f8df2cf5c0b2bb7f03bd0b0d43766c97f30bd96d6095a8027be8930af5b82729865c9a605e0ed8d89d71c1c869f4b81f0dc9aa57ab18fa1653661835083e52e739e2401e86cccea5e234e0865f544bc49e9eaf53d3ba009d6a07fa34a5c116736e63633f2f56b4cdddd0188361a92ad4b0a22d945d81dad2879e1c498f5735062f08f3cab961b645fbdf55b7535265a193b2fccc211aaf695f282614bac45e193fd8c26557d1bd29126e4ff02210ba15b3e5d49560f02c63333d35a5b05d2d16369c5cdbb96aef4b8ada2c833c523141a5a3e85c10c6040f7b8a5c7f917bc22249cb9e4da65885f8e64dc795d85010ed787d2a0f349c84b5fad975ac679d94817fd7058fbff4bf56b0168c28fac059c721710d67e57a83ba6903e4537f9cab0d5db1cb81483867325f7c5346f6cd55a5ec1b33f971333326f006153150776037b896af3f2a6d156dcb6bde5672bfd6e7b8a2adb22fa446d1563fc32aa2288020540f0b60c91baf4d9e8e3b63153bb705816b78b5bb955d5b4399e962d8f0f2ac13ecf8e16b194c626a4c781c5275e81d077e42e3dba599858def211b2b8a1119f45842725d7a609a6f5fde2cffb4ea8af410bd592d3542d3d1889aa6ebe6f16eb075b9b6369e36d9f7c1168db284a5686e6e9f83d61e46608f7b2a70f15ea11d3b5d847397c36371889f5701537d1b75d2d7c23f95f9b84985297ec7c3b80a53544a0dd4bece3d11b4625be608d308f9a38d5cbab24875d8781f9950755d99a1476966ebf0ba178a2d1e6dd2ecde016eb22b6d4c085e4e19a8ab72fcd7be983446e9126009fdede6bf01633326f9856fe6badd8598832b6b0511ed67b782fd5e200ac44ff0e4c584a61142243b22b03f19c16ba28310b9e97d97ea3b0a030443217f1ec4ddd464404d0f99130cf6254f4f140a54952288d06bfdd5b89afb3670133c8b1133c5f2456ce5ed09893a5123cb7ceb41cf150c22bb162da0fa764abe32a0c52ed3634e6d95617ad72fd4b3aba52055d63d708a5f325653adfb96395f5ef2dc40b7d80b68dc022d921f4bbcb0411525d11c3eb6ccb4754d1f2a2d6d4df2ec1b0a1b47115a6e1cf9080559a9ccc61d71fca588da011ce9a2b46a67261ec272ba0ac607e89fb01f762a841aafd74d820d25c427dd5b49d5fc4a15ff42400121ddd9c494e39449023d41ec05a8171e43a0020a70dea7dc4fb20ddb5fcb47547fdb17ea751c9289317080ec6c96daba7946c5eab27bb11cdc0dcba1244251ef95718efde48906ed00e989a9e8d8a32cb7a5f00218c551be3962f0b63b18daa3a8373671998bcdf8d38154a609c2eb72d863bf9faaa692c471a22e29cfdfb63a3f1779bffa122e7e233f724a0912068c0dd3d41105897fb2c75c64a4c7de0eb70ee1797e2a749afedf163ffa171a1e1f232e34373d557d87b6bf092031456a7074757a899ae0090d21273e757c878d91a4a5bdcbd1e0e5ebfafc12191f222d5255565d85a3b4b7b8b9bcc4d0d3eaedfbfc00000000000000000000000e1a2e4501fd210500d43cfe92d95664b4abb41270925985144b6719e598d2cd6ed4397ff8ac82d80d51b7a9f5bf27f2b25fe668b4b9e38f3d91a774b8a13c8df4f9915bb89d7b641b99d3be1ecb21e36767e9b71f46d3d60b09a61bfe4b7d2b950f7e7e79ae177729f4096600bc4faf6b234f45335c04cc39645010abdeff32d12a0214c222144d5c00d9e60128b486b2ae3f48ee464adc80f9a78bc00d3def39f455ac3545a80bb0da4b5b761076f04007f5ceb2ccdab1a94fe1025a5007fa355f69e1a078e3b11f2fe57803536c6deec1407538cc345bfc2b7322a5fe5828c49bd0da6e14886a42e2af4761e8ba34fbc7800f217af5a5b1a8b715cab3733e182d0cf5e248906422339d899d6cb2bc0475a172344023f58d74820e96f1911a887bc01f6fabb8189d6d7d7355b9efdbd552d969ec7901357e705f8faba2dad78c2091962af73d75208bf680483af0b1c478d88e6cde6f09836244cbc9010be7c390b4e7126d8117e78f045185d33213d9cc496b3aff13a8b01b5c475fd0f306843d60a2c96b49c9bcc16b96df1940c04d7984e691855419b84d4c115606b34fc3729d11fbd981dacb5bd24b7b7c52403ca5f58a410ede2eced29ffcea8e0c0582b3707c98cd36707d00d6ccad06c88ba873577f7be0141c2502e7b7b8bed3bac238824762c7e15fc3e4841c03e1cc31b43b7f50549555f72b18907258b8dbc41ef636b31e231fc8fcc69c0ab516a3d9de6833cf512978787743e2b23f30950f6859bad335e66db50b80adfa16e33331dfc83b079a5da97b3cc297ba89ea2cf209c6f3db2654878e6e8569334d7478c7ee9de337a6b4f1d7381bc1a826eb8435055ee25e527fa51b026b1f7a1a971ffd74228a18e7c0cfc5b87281d90d0e1ebcf70abcdb83495736d7c1bc47206ac03e9c9368e46fd8f91487a8eb595b22275ac82f5710ab7023801ad40fe57d8739a70406f98115189682695627e4bbf9ba9b4497e9d4c97a2b89b45eb9696343bec354c2c8868e2c8fe050b887ccdabf15eb02dd3cc1f737b56ed4d1a8f96461c2ca8e015908b2b234786ce2224142fee511323086c89568247169a3e6f3ba57468d84ada383ef9a1a7a9493bed6773cbd4c978246c394845efde89b1f7adc4c38aec5f8e2801db03ef86b2308c4b5ed6851645ed8e6ff9bd1c7c8e187e82a1279f9aec5ce4cd56e9fcbde89cb60d26ca420eff824e6fec27ccb403970fa973b8b6223bc644e657051b3d8b07d3d579acfbc4a6c7c31441a59bb9ddf1704f42d36fe72f4465b1b4362fce1754004f207a882434ca665d3218a6b4958b2ac8a7c07c7a83fcacbb835278cf05f37f06a1e217216eda85d778cc9aa3ebf219453406efb5e6626feef3a48bf4d9f498ed7678e2134b092808f91ac551b4c6fa3c962c6dc2f79e712a74233ea3ba372339eec1d4d9d86d53c1cfc3e0841d72cf2c2007c200984efd8e676d9093d7ab7e3be3087e8732468631b2d6cb95db0ff1f02d98634f7807b584748d10504db85cf61f5aa91172303caaa27b25dd42450e7bf629f089d21a698c37ca2aaefb46f4c9807bcf452ddf451643048a95434c0d9eed8ddbc38a7f0b0a1086f1dcfa82b385a19217448b052dca5dcdfd8790441f1df61a6bfc1173b9a064b7add220341fc43c37621421b948e830030a68a999cd34272028c7a206a2d90343fd19fe73f92cd55fc22840049a0ebaf57d620801f380b888d3e8e06cdb3068d653fb7d9e3b7d075f49dd202993cffc43491f451f8f954a3281b681700373da8b44449d7053de47b999ed7ab8cb5d688014d060c9a247a2727624912c0a835190035519b990444db787276d1a2b288baee1a1d85000000",
  "txid": "0d43d78611abaabda2c283f2de8a27ef913f9903158814346105371023dc8847",
  "hash": "c7cba42907145344fda4b2efdcdcf4c6299dbe8820c049ca120b777d81455245",
  "size": 5085,
  "vsize": 2278,
  "version": 1,
  "locktime": 133,
  "vin": [
    {
      "txid": "b1fff9f825cc5227090d0001a9a9093e5f17351264204af41569c691c6220359",
      "vout": 0,
      "scriptSig": {
        "asm": "",
        "hex": ""
      },
      "txinwitness": [
        "92ab36c99aab4723658069208b1a340ce38d658b3e1442eba94228828651cdbef21254bc1caf10b5ae40326dfb685f41ad14d01461957f45f8f7eaeaef4b6f6f205fec3344f8d05fdec07d888e4d08bf28c5e98f47d2c760c6d8d59746d0a4594fb4c70e1abee8529c2e69a3844c0b78f5b9bc5b3bde1c149e2df24f8a8abdd0eafd82e0d97dfb770f9ca3c14843fc0ea8353a02e24a8fc7d6f21e184ecd57a551a53deccd35136b705335dbb6cfa03b651d5f2c56a9a3162235543ad933e8b0891686a153ff27d1ca0d9f97fcb72fc8302d0bc66296c0dc12faca78f0324ab1f609bdf0ccd955e61a8b3524ae6129df09316581530a655ecd376ff13fff9805c5b7b9bd9931cc20316d0f78dd1650ab806c608a9a9c5994162bb9f83b926b0eeff8ed617aca8325e389af18894746b4735e2dba80f5b15ec74db275f4f9ad55672b02a1493463ce0a4acc09a882bad65d26608cabb2a36e7b075d3a029a8c0ae89a0a4ac3626e404ce03f8bf0f78df9e14fa4c299ea4d21ee3dd34940df7d4e75b5896e861faf5235a1fbcf03ed44f30ceb978169f0f08e50574c5d027d7f360f2ff2a23cc06e51cad565cf0e00196e250232f3846f2c31a9e082682bc68402e8e18d836c14a5836f55cb35d5091bb421a5ca2ced1843d0c2a091751ed581acd952badad31bb49ea4dd10e1799df3387edfcacc1a4cf15041ab6c4782f8ba631fb86dea368532f358a16895c21bb6c863a857461892fe539f7b53d1d01abd6cf6d8e59b4675b827c2e27f78fa23120ed6d4f51a060dcade020b300db3c81a7c09f2764b06beca24db5706459e9df5007d8f46257c72bd1e492cbb005f4d7fbec12d2301a3880f2b019415bb131e0aa5e1ca51b39aea24281122679f613ffca650966ad7ac485c32a73643cf34657c5100a20437c9b971b8b1b7afe4bb2549cdd83e0e857f37fae9b928c211d1e3e75119d9e219e99b2975efbf6591af5712ac84d9485218c211fdd25ee570d390251830a8ed4a491cb4d1a6e69935d11e93254e4624d233ac9629e6e15ffd762e95c404f9eca7d68afdcc4b6837dd47551c6c18a84324e9dde65676715933ab5d9ad1f42e4b4c360cd063446c4693b75a33f037a982fd2069da206c08b0605fc8bec423b9e753ca2fcd9aa2ecb1ce6ac46a5c88cb8326e2adb632f6420689e6490123ea2c6b1eb2becb91316a7fced5854dff8d8af9b0de342f3508b10046ae4b4e717d877861bef03ad38e83f74e14bf3d6ecac0fe43bf9e93a2fcc33c6aa962dfe67a4b27c1ed5e40581bb19b75f4197033fc7c6c8ed8ea6522a0aded2db1322cf53aa294b1588b3ee3f6a2a22dad250444cf4f60331a73385115320b00aae083681189b11f87c2f153eb0d3cdf892cbc2d69d0095ecbde6947ea01bbf396ebc3e0a210d7a7ebafd2a9bbf974ac8b53bb92385459306d60864751e77816fda820c32efe13e3cb42c4a71a9c1137092b17d67f973ec87eb876181cd5ea8f2edac506fd0622882c428bcf5bb4ede003356f6c520ddd802f76109352a7311499b262d4b19f48fdc68c59ab5ac4585e0b460c01565e0c6be6c66f2d7d4d4db0ac24f36f62e71a03179d9070df774a4d654e38b6e95a82393a7eefa041dbf71f5e4047c72cf33afd8d06c5aa6f99dc825956bd5850e6030ba33ba5de0acacdcd4da7f5b65ef50a5e36ffbe2f405b94c8e255100ea1530389c54afa1ad0ab03650338b2374a77da02971a056eeb038dda9a24c320dea08769b96aaf7821628b96ce8f5d31e3b51ed4f35b50274299e6a988124e12862478e45d50c53b02e061ea445079cbc5d0299e9596b8f16451555cc797656d5fdf2d6bad6ddcb0c721ca02b9c23cc14027d3f8df2cf5c0b2bb7f03bd0b0d43766c97f30bd96d6095a8027be8930af5b82729865c9a605e0ed8d89d71c1c869f4b81f0dc9aa57ab18fa1653661835083e52e739e2401e86cccea5e234e0865f544bc49e9eaf53d3ba009d6a07fa34a5c116736e63633f2f56b4cdddd0188361a92ad4b0a22d945d81dad2879e1c498f5735062f08f3cab961b645fbdf55b7535265a193b2fccc211aaf695f282614bac45e193fd8c26557d1bd29126e4ff02210ba15b3e5d49560f02c63333d35a5b05d2d16369c5cdbb96aef4b8ada2c833c523141a5a3e85c10c6040f7b8a5c7f917bc22249cb9e4da65885f8e64dc795d85010ed787d2a0f349c84b5fad975ac679d94817fd7058fbff4bf56b0168c28fac059c721710d67e57a83ba6903e4537f9cab0d5db1cb81483867325f7c5346f6cd55a5ec1b33f971333326f006153150776037b896af3f2a6d156dcb6bde5672bfd6e7b8a2adb22fa446d1563fc32aa2288020540f0b60c91baf4d9e8e3b63153bb705816b78b5bb955d5b4399e962d8f0f2ac13ecf8e16b194c626a4c781c5275e81d077e42e3dba599858def211b2b8a1119f45842725d7a609a6f5fde2cffb4ea8af410bd592d3542d3d1889aa6ebe6f16eb075b9b6369e36d9f7c1168db284a5686e6e9f83d61e46608f7b2a70f15ea11d3b5d847397c36371889f5701537d1b75d2d7c23f95f9b84985297ec7c3b80a53544a0dd4bece3d11b4625be608d308f9a38d5cbab24875d8781f9950755d99a1476966ebf0ba178a2d1e6dd2ecde016eb22b6d4c085e4e19a8ab72fcd7be983446e9126009fdede6bf01633326f9856fe6badd8598832b6b0511ed67b782fd5e200ac44ff0e4c584a61142243b22b03f19c16ba28310b9e97d97ea3b0a030443217f1ec4ddd464404d0f99130cf6254f4f140a54952288d06bfdd5b89afb3670133c8b1133c5f2456ce5ed09893a5123cb7ceb41cf150c22bb162da0fa764abe32a0c52ed3634e6d95617ad72fd4b3aba52055d63d708a5f325653adfb96395f5ef2dc40b7d80b68dc022d921f4bbcb0411525d11c3eb6ccb4754d1f2a2d6d4df2ec1b0a1b47115a6e1cf9080559a9ccc61d71fca588da011ce9a2b46a67261ec272ba0ac607e89fb01f762a841aafd74d820d25c427dd5b49d5fc4a15ff42400121ddd9c494e39449023d41ec05a8171e43a0020a70dea7dc4fb20ddb5fcb47547fdb17ea751c9289317080ec6c96daba7946c5eab27bb11cdc0dcba1244251ef95718efde48906ed00e989a9e8d8a32cb7a5f00218c551be3962f0b63b18daa3a8373671998bcdf8d38154a609c2eb72d863bf9faaa692c471a22e29cfdfb63a3f1779bffa122e7e233f724a0912068c0dd3d41105897fb2c75c64a4c7de0eb70ee1797e2a749afedf163ffa171a1e1f232e34373d557d87b6bf092031456a7074757a899ae0090d21273e757c878d91a4a5bdcbd1e0e5ebfafc12191f222d5255565d85a3b4b7b8b9bcc4d0d3eaedfbfc00000000000000000000000e1a2e4501",
        "00d43cfe92d95664b4abb41270925985144b6719e598d2cd6ed4397ff8ac82d80d51b7a9f5bf27f2b25fe668b4b9e38f3d91a774b8a13c8df4f9915bb89d7b641b99d3be1ecb21e36767e9b71f46d3d60b09a61bfe4b7d2b950f7e7e79ae177729f4096600bc4faf6b234f45335c04cc39645010abdeff32d12a0214c222144d5c00d9e60128b486b2ae3f48ee464adc80f9a78bc00d3def39f455ac3545a80bb0da4b5b761076f04007f5ceb2ccdab1a94fe1025a5007fa355f69e1a078e3b11f2fe57803536c6deec1407538cc345bfc2b7322a5fe5828c49bd0da6e14886a42e2af4761e8ba34fbc7800f217af5a5b1a8b715cab3733e182d0cf5e248906422339d899d6cb2bc0475a172344023f58d74820e96f1911a887bc01f6fabb8189d6d7d7355b9efdbd552d969ec7901357e705f8faba2dad78c2091962af73d75208bf680483af0b1c478d88e6cde6f09836244cbc9010be7c390b4e7126d8117e78f045185d33213d9cc496b3aff13a8b01b5c475fd0f306843d60a2c96b49c9bcc16b96df1940c04d7984e691855419b84d4c115606b34fc3729d11fbd981dacb5bd24b7b7c52403ca5f58a410ede2eced29ffcea8e0c0582b3707c98cd36707d00d6ccad06c88ba873577f7be0141c2502e7b7b8bed3bac238824762c7e15fc3e4841c03e1cc31b43b7f50549555f72b18907258b8dbc41ef636b31e231fc8fcc69c0ab516a3d9de6833cf512978787743e2b23f30950f6859bad335e66db50b80adfa16e33331dfc83b079a5da97b3cc297ba89ea2cf209c6f3db2654878e6e8569334d7478c7ee9de337a6b4f1d7381bc1a826eb8435055ee25e527fa51b026b1f7a1a971ffd74228a18e7c0cfc5b87281d90d0e1ebcf70abcdb83495736d7c1bc47206ac03e9c9368e46fd8f91487a8eb595b22275ac82f5710ab7023801ad40fe57d8739a70406f98115189682695627e4bbf9ba9b4497e9d4c97a2b89b45eb9696343bec354c2c8868e2c8fe050b887ccdabf15eb02dd3cc1f737b56ed4d1a8f96461c2ca8e015908b2b234786ce2224142fee511323086c89568247169a3e6f3ba57468d84ada383ef9a1a7a9493bed6773cbd4c978246c394845efde89b1f7adc4c38aec5f8e2801db03ef86b2308c4b5ed6851645ed8e6ff9bd1c7c8e187e82a1279f9aec5ce4cd56e9fcbde89cb60d26ca420eff824e6fec27ccb403970fa973b8b6223bc644e657051b3d8b07d3d579acfbc4a6c7c31441a59bb9ddf1704f42d36fe72f4465b1b4362fce1754004f207a882434ca665d3218a6b4958b2ac8a7c07c7a83fcacbb835278cf05f37f06a1e217216eda85d778cc9aa3ebf219453406efb5e6626feef3a48bf4d9f498ed7678e2134b092808f91ac551b4c6fa3c962c6dc2f79e712a74233ea3ba372339eec1d4d9d86d53c1cfc3e0841d72cf2c2007c200984efd8e676d9093d7ab7e3be3087e8732468631b2d6cb95db0ff1f02d98634f7807b584748d10504db85cf61f5aa91172303caaa27b25dd42450e7bf629f089d21a698c37ca2aaefb46f4c9807bcf452ddf451643048a95434c0d9eed8ddbc38a7f0b0a1086f1dcfa82b385a19217448b052dca5dcdfd8790441f1df61a6bfc1173b9a064b7add220341fc43c37621421b948e830030a68a999cd34272028c7a206a2d90343fd19fe73f92cd55fc22840049a0ebaf57d620801f380b888d3e8e06cdb3068d653fb7d9e3b7d075f49dd202993cffc43491f451f8f954a3281b681700373da8b44449d7053de47b999ed7ab8cb5d688014d060c9a247a2727624912c0a835190035519b990444db787276d1a2b288baee1a1d"
      ],
      "sequence": 4294967294
    }
  ],
  "vout": [
    {
      "value": 499964.4085,
      "n": 0,
      "scriptPubKey": {
        "asm": "1 e2fb4e4dd79a4cd2c2faa978018ac9e01ef693ee73e64299688a93216b9c841c",
        "hex": "5120e2fb4e4dd79a4cd2c2faa978018ac9e01ef693ee73e64299688a93216b9c841c",
        "reqSigs": 1,
        "type": "witness_v1_scripthash",
        "addresses": [
          "3QJmnh"
        ]
      }
    },
    {
      "value": 1.0,
      "n": 1,
      "scriptPubKey": {
        "asm": "OP_RETURN cfdb53ce0b3429016da284f14a8734bb768101db1a68340f79e1646e8d69355c 61bd4de621c0eab4f62331019aebff513175aa55763501ef0865992dd113a1db419d6dc601e0ca94d6031121bacbdf7111558a75561521cf2845b90df13381fb21fd0da66180aaf4b6637141daabbf117135ea15367541af4825d96d9153e19b01dd2d8641a08ad496435161fa8b9f315115ca351655618f6805f94db173c1bbe13dcd66a1406a3476a3b1811a6b7fd1b1f52ad5f6b5816f88e519ad5193215bc11ded4681604a14568391a13a4b5ff191d50af5d695a14fa8c5398d71b3017ba17d8d26e1002a7436e3f1c15a2b3f91f1b56a95b6f5c12fc8a559ed11d3611b815dad06c1200a5416c3d1e17a0b1fb1d1954ab596d5e10fe88579cd31f3413b61bd4de621c0eab4f62331019aebff513175aa55763501ef0865992dd113a1db419d6dc601e0ca94d6031121bacbdf7111558a75561521cf2845b90df13381fb21fd0da66180aaf4b6637141daabbf117135ea15367541af4825d96d9153e19b01dd2d8641a08ad496435161fa8b9f315115ca351655618f6805f94db173c1bbe13dcd66a1406a3476a3b1811a6b7fd1b1f52ad5f6b5816f88e519ad5193215bc11ded4681604a14568391a13a4b5ff191d50af5d695a14fa8c5398d71b3017ba17d8d26e1002a7436e3f1c15a2b3f91f1b56a95b6f5c12fc8a559ed11d3611b815dad06c1200a5416c3d1e17a0b1fb1d1954ab596d5e10fe88579cd31f3413b61bd4de621c0eab4f62331019aebff513175aa55763501ef0865992dd113a1db419d6dc601e0ca94d6031121bacbdf7111558a75561521cf2845b90df13381fb21fd0da66180aaf4b6637141daabbf117135ea15367541af4825d96d9153e19b01dd2d8641a08ad496435161fa8b9f315115ca351655618f6805f94db173c1bbe13dcd66a1406a3476a3b1811a6b7fd1b1f52ad5f6b5816f88e519ad5193215bc11ded4681604a14568391a13a4b5ff191d50af5d695a14fa8c5398d71b3017ba17d8d26e1002a7436e3f1c15a2b3f91f1b56a95b6f5c12fc8a559ed11d3611b815dad06c1200a5416c3d1e17a0b1fb1d1954ab596d5e10fe88579cd31f3413b61bd4de621c0eab4f62331019aebff513175aa55763501ef0865992dd113a1db419d6dc601e0ca94d6031121bacbdf7111558a75561521cf2845b90df13381fb21fd0da66180aaf4b6637141daabbf117135ea15367541af4825d96d9153e19b01dd2d8641a08ad496435161fa8b9f315115ca351655618f6805f94db173c1bbe13dcd66a1406a3476a3b1811a6b7fd1b1f52ad5f6b5816f88e519ad5193215bc11ded4681604a14568391a13a4b5ff191d50af5d695a14fa8c5398d71b3017ba17d8d26e1002a7436e3f1c15a2b3f91f1b56a95b6f5c12fc8a559ed11d3611b815dad06c1200a5416c3d1e17a0b1fb1d1954ab596d5e10fe88579cd31f3413b61bd4de621c0eab4f62331019aebff513175aa55763501ef0865992dd113a1db419d6dc601e0ca94d6031121bacbdf7111558a75561521cf2845b90df13381fb21fd0da66180aaf4b6637141daabbf117135ea15367541af4825d96d9153e19b01dd2d8641a08ad496435161fa8b9f315115ca351655618f6805f94db173c1bbe13dcd66a1406a3476a3b1811a6b7fd1731094a6ee425aa98424cc561330a414291a912387cd92ff1457248ae279c355",
        "hex": "6a20cfdb53ce0b3429016da284f14a8734bb768101db1a68340f79e1646e8d69355c4db00461bd4de621c0eab4f62331019aebff513175aa55763501ef0865992dd113a1db419d6dc601e0ca94d6031121bacbdf7111558a75561521cf2845b90df13381fb21fd0da66180aaf4b6637141daabbf117135ea15367541af4825d96d9153e19b01dd2d8641a08ad496435161fa8b9f315115ca351655618f6805f94db173c1bbe13dcd66a1406a3476a3b1811a6b7fd1b1f52ad5f6b5816f88e519ad5193215bc11ded4681604a14568391a13a4b5ff191d50af5d695a14fa8c5398d71b3017ba17d8d26e1002a7436e3f1c15a2b3f91f1b56a95b6f5c12fc8a559ed11d3611b815dad06c1200a5416c3d1e17a0b1fb1d1954ab596d5e10fe88579cd31f3413b61bd4de621c0eab4f62331019aebff513175aa55763501ef0865992dd113a1db419d6dc601e0ca94d6031121bacbdf7111558a75561521cf2845b90df13381fb21fd0da66180aaf4b6637141daabbf117135ea15367541af4825d96d9153e19b01dd2d8641a08ad496435161fa8b9f315115ca351655618f6805f94db173c1bbe13dcd66a1406a3476a3b1811a6b7fd1b1f52ad5f6b5816f88e519ad5193215bc11ded4681604a14568391a13a4b5ff191d50af5d695a14fa8c5398d71b3017ba17d8d26e1002a7436e3f1c15a2b3f91f1b56a95b6f5c12fc8a559ed11d3611b815dad06c1200a5416c3d1e17a0b1fb1d1954ab596d5e10fe88579cd31f3413b61bd4de621c0eab4f62331019aebff513175aa55763501ef0865992dd113a1db419d6dc601e0ca94d6031121bacbdf7111558a75561521cf2845b90df13381fb21fd0da66180aaf4b6637141daabbf117135ea15367541af4825d96d9153e19b01dd2d8641a08ad496435161fa8b9f315115ca351655618f6805f94db173c1bbe13dcd66a1406a3476a3b1811a6b7fd1b1f52ad5f6b5816f88e519ad5193215bc11ded4681604a14568391a13a4b5ff191d50af5d695a14fa8c5398d71b3017ba17d8d26e1002a7436e3f1c15a2b3f91f1b56a95b6f5c12fc8a559ed11d3611b815dad06c1200a5416c3d1e17a0b1fb1d1954ab596d5e10fe88579cd31f3413b61bd4de621c0eab4f62331019aebff513175aa55763501ef0865992dd113a1db419d6dc601e0ca94d6031121bacbdf7111558a75561521cf2845b90df13381fb21fd0da66180aaf4b6637141daabbf117135ea15367541af4825d96d9153e19b01dd2d8641a08ad496435161fa8b9f315115ca351655618f6805f94db173c1bbe13dcd66a1406a3476a3b1811a6b7fd1b1f52ad5f6b5816f88e519ad5193215bc11ded4681604a14568391a13a4b5ff191d50af5d695a14fa8c5398d71b3017ba17d8d26e1002a7436e3f1c15a2b3f91f1b56a95b6f5c12fc8a559ed11d3611b815dad06c1200a5416c3d1e17a0b1fb1d1954ab596d5e10fe88579cd31f3413b61bd4de621c0eab4f62331019aebff513175aa55763501ef0865992dd113a1db419d6dc601e0ca94d6031121bacbdf7111558a75561521cf2845b90df13381fb21fd0da66180aaf4b6637141daabbf117135ea15367541af4825d96d9153e19b01dd2d8641a08ad496435161fa8b9f315115ca351655618f6805f94db173c1bbe13dcd66a1406a3476a3b1811a6b7fd1731094a6ee425aa98424cc561330a414291a912387cd92ff1457248ae279c355",
        "type": "nulldata"
      }
    }
  ],
  "blockhash": "e83fb8d8eae63b54f6b1b3d1fbcbee555d4e910f42cfd1b5d97cc48d92172bc4",
  "confirmations": 1,
  "time": 1764182633,
  "blocktime": 1764182633
}