{
  "hex": "010000000001013bede26976a2e062ae3b63a64a402f74609ab268a75f695f8fe168aa06bb206c0000000000feffffff0260cda5ea782d0000225120a42dfb62e1c2d2ed3c379800f7f29e70cba611b379a25717c9777e76dbd0be1900e1f50500000000fdd5046a2061f2a59934de2cf8f3f90181cab73224cb9cf1d878423577958bc3846776d4354db0042965034b7b8a0497647756ecb5264d7bc39c438fbe860ad7b82429b1ce78f5d10945236b5baa24b7445776cc95066d5be3bc63af9ea62af798040991ee58d5f16925430b3bca44d7243716acf5660d3b83dc03cffec64a97f86469f18e38b5914905632b1bea64f70417368cd5462d1ba3fc23efdee66ab7d84449d1ae1895b1a9e583cbfb0a8417e4f7d66c35a6cdfb431cc30f3e068a5738a4a9314ef8755189c5a3ebdb2aa437c4d7f64c1586eddb633ce32f1e26aa77188489116ed85571e9a5c38bbb4ac457a4b7962c75e68dbb035c834f7e46ca1778e4e9710eb83511c985e3ab9b6ae4778497b60c55c6ad9b237ca36f5e66ea3758c4c9512e9815312965034b7b8a0497647756ecb5264d7bc39c438fbe860ad7b82429b1ce78f5d10945236b5baa24b7445776cc95066d5be3bc63af9ea62af798040991ee58d5f16925430b3bca44d7243716acf5660d3b83dc03cffec64a97f86469f18e38b5914905632b1bea64f70417368cd5462d1ba3fc23efdee66ab7d84449d1ae1895b1a9e583cbfb0a8417e4f7d66c35a6cdfb431cc30f3e068a5738a4a9314ef8755189c5a3ebdb2aa437c4d7f64c1586eddb633ce32f1e26aa77188489116ed85571e9a5c38bbb4ac457a4b7962c75e68dbb035c834f7e46ca1778e4e9710eb83511c985e3ab9b6ae4778497b60c55c6ad9b237ca36f5e66ea3758c4c9512e9815312965034b7b8a0497647756ecb5264d7bc39c438fbe860ad7b82429b1ce78f5d10945236b5baa24b7445776cc95066d5be3bc63af9ea62af798040991ee58d5f16925430b3bca44d7243716acf5660d3b83dc03cffec64a97f86469f18e38b5914905632b1bea64f70417368cd5462d1ba3fc23efdee66ab7d84449d1ae1895b1a9e583cbfb0a8417e4f7d66c35a6cdfb431cc30f3e068a5738a4a9314ef8755189c5a3ebdb2aa437c4d7f64c1586eddb633ce32f1e26aa77188489116ed85571e9a5c38bbb4ac457a4b7962c75e68dbb035c834f7e46ca1778e4e9710eb83511c985e3ab9b6ae4778497b60c55c6ad9b237ca36f5e66ea3758c4c9512e9815312965034b7b8a0497647756ecb5264d7bc39c438fbe860ad7b82429b1ce78f5d10945236b5baa24b7445776cc95066d5be3bc63af9ea62af798040991ee58d5f16925430b3bca44d7243716acf5660d3b83dc03cffec64a97f86469f18e38b5914905632b1bea64f70417368cd5462d1ba3fc23efdee66ab7d84449d1ae1895b1a9e583cbfb0a8417e4f7d66c35a6cdfb431cc30f3e068a5738a4a9314ef8755189c5a3ebdb2aa437c4d7f64c1586eddb633ce32f1e26aa77188489116ed85571e9a5c38bbb4ac457a4b7962c75e68dbb035c834f7e46ca1778e4e9710eb83511c985e3ab9b6ae4778497b60c55c6ad9b237ca36f5e66ea3758c4c9512e9815312965034b7b8a0497647756ecb5264d7bc39c438fbe860ad7b82429b1ce78f5d10945236b5baa24b7445776cc95066d5be3bc63af9ea62af798040991ee58d5f16925430b3bca44d7243716acf5660d3b83dc03cffec64a97f86469f18e38b5914905632b1bea64f70417368cd5462d1ba3fc23efdee66ab7d84449d1ae1895b1a9e583cbfb0a8417e4f7d66c35a6cdfbdf60457ec595b4557ff64f695572469cb1b3a4c0503f5ea73f189782dc75db3e02fd750902158b4cfc98cfab4a36ee20f1af0bdb4cdd898ec26866ed9b2ec4a688c0c19ff8f75408440b337daa4183ba396e447e7526ccbfb1478e887a769d3d475c7b04816e2458c49deeb25a12cc420367077b796cbebd9f39bca6c65d3d91f541bc91638bde57a6ef8c16ccfa6742d09ee47c840d0c3eaf1a8f1289699030867c4fbc9006e7bce468c5c825c29452bdffa577e39a90ab1f7dd31235d74bebcabf10aa7669aa33f6ae15fea5076b74cde095efc1406d482056cfbcde43122e3e9a77eea0a69f1f11cb2e5ece538874ab652bbed631775e66f2d082207bd2c25a12680c7f89f869a24a34d1000cf260b655c64a9dfeb49884ba01532469170b4e0fa33c45610e0e6ce34657dabe75e1cbde495df44bebfbc2f246a9f2613c5a54291893a960bfd775a33e26c3e28ec232bd8bbe630959f1f39b9ded948def32572dce7fd337fdf9c74465379265215a95f50eaa3cb2a83eb00682316ff2daa999774430d34d40f2d4504b40fa0ca36a6d228babc371b008586abc0122d1421904060d7dbd752ef4f2553bd683a515219d1d1e243eea1dd9c7dd22651dfaffe0e9d099356c7c5356b97f1830403ffab0dae886d15cccd57d3a83f135919db0835754173864d05acff30892c10f20e24307066b1b101750e58da475346fbcf72015bdef53cbd6fb7085413b3f60f2a974942074bd9951d68bfe0775e99a61558782771bd18c65ad79f6d7e34d03eaf22d48b6a465512ad93a61da1a7c963dcd22babe31d782c2a77b3aa3a4d5c48fc2e5982fafb1470f3d74de5779b814bc199c41c379834eb1dc8d5445f8aab9fd2cbf0c4a343b92b1642e324889d61ae7e1ea9db48498ac397adcbcf46bf48c2d463da7a596a027581a9cac5f3d2e14cced5efe770b97c4fe7be857add9a6e868a326d01857f51e0e4c0077f3720720b63e2390c6c62166c6502877d07ad74d468d629b506d70f2984c59167817e2eef24fee9e3991c2aab72364253324d1593239d5b700f33b1982c13ceac9b1bf8ba1b5ebf07513669a6b94e5b00d0584acac2143a4a0e1057168dd3c51d8460065890388060d100bc260fde49abe7f6b430d3747c139044a3813648ae761946c5403e193e5c05adba726328f16dc322fc0c6da3fbfe1af91795f367b6c6deb50bc6c11032ee0f44898085551349c947ef3e29b9c6c4510a5cb5d89dcf7600535e91e2081f2fe6c882ae2bafc709ed7cfee3dc3a01e454b6abcbb9c712c30e9f8cb7a902b8b293c110302e5f6dffddc7def1b9a1c2ba43acf89c3d4d4956175c6f35bd7afb6d007beda4240428d050be1b48524deb1f6ad2c3bf58a659a205d23dbcd715ccc62acc18426e4d22ed6d9ee23de42c40d42e4f2c12198b909e71c6445b3082125546d26dca3c010a1012cfc7f78b2d2e704731c41d8ee25a0509122677535facfb506b8925632cd76e3540693527eb503cdcbc2517f287278d642859c2a9a36d60f99eabc22e0dd33f33b95f8c2d6a40ca29a3e44745c40e90874ac83eef58b34210a0229721965caf33950b23baf8d08d97d59914d99cd311f0db71f977faa2451d49a13b8011ed7ddba15fb34ab3e8b01285103a3fec4d3a48b20f1f834149aeb06343ef96851f6c903f93bfe212b0ff3ba095e485fa00cf8be0e9f1461939f87ea843c149507e5aff7daa9107a2cf6d6e74c068d75b7c5d313bfb723fd7ea510793b79b4cb47c870a5e15262237f3ac4370ce46a6498c8008f91d5ff14dce384f5a253406d46c16033348627c3271d2f614133e724d8a1bbcb6e76c8808a4d0920290be1d7574e66c801998b10cb1e409f22e18ebdafc4b561e01fd6db9464fe212da3a39565e4cf45260b0a4d74a08eb3ee5b6980b6d642543e5ff2ae5f7eadaae5075292e9bb5b60f5cf80dcefa39aa27df2ccfa6445c8f71ca9dc63de431b2722e651a14c106b836559d6a1aaea329cfe4c690b9cc9f62d594180e9595b7d1a356b49dfb21ab0c834d84ba489e7a94c2d4ea59b70dcc98ad894139391f0d392291fee85dd2f9a69b85096911049e48c30f545e864753a6720ca2e4ac8cca8d3de08630bf689c0e9a1986a0aabebfbbc2fd7fa1679f3bd31d14d6f665f3f2baa921fd53a620a18297a583a1eda8f2fb14323e3cd986f1292e32cd32563f8b4d20723591c01fbe01e728d67749723a8f7b7d10282b32e100b1e1494986e00ff8be8ef1925eae9f7b1067cd54896986b0f8b8ef3656f7dcd9f163765a79d5069e7ca90161fcd57801e2dc8699659afffa72b66a8eb5d0ece1fe799cd5f9b21c6bc6d6c3377a6eb7defbf0f46666d73aad1b5b9ebc4591e953765b65f853d6a999e0a4b82fb2096be782da486272fc8ba4d9a5fd677e80d331a76367636a1c1b5d07102301b2584cf5e5b3a55a7f3b4a5e921b454531e8709e83897e15a4fba21b48f9f6853649ab0ac5ca6161501625e79bebdf38b73edf44d608f9ae24a7b5d2eb15c9f88bb300c53a2e487447bfc3b60bd75b42d35e978a989381734033d3012c1f52c2b55c813c5c7e9f88571c5a37e9e591f88f345a94cae133ff575ae421414864a400535f5d5a5414764253e7458789d69b6714ded562ebad1c78afb71e64827fceb8c4a6cbb4fd0c54f607ca555b96ca94779154da18cddbe759cced04ddf5e395b9065bc385894482458b9ae791e196f0040227a73284de1dd6d8e7988039935b203ac8feee5fdb0342e7e8e137c19cb2af264c05d58a1557be770dbafb4045ec1266134b02bd6fe27c6c875929dcb47c20cf2da166f7b6ed717198d61017e751f34c7ee77c7ae87c8eecd02bef34a5b968a25fd77264c842ed3533b702757a4579a42390bd0b2232d528761d4f2ecec4efff4934326b37b863a6c982934e951060d8bf1ab4a209ceded26f97b6a0f7226cd100416d9cb607437a512869d44839bd1bc49eede68ad567102ffd182ada2fc44d1e537180455eaf4497e06dacb5ec1ba430b5963869630e27038683f2c290b5df175d6175cd541a3737976a32a75e290041c25d8435cfc69ca922e8c579163e5e1a77b4ccd0f9a0613e08cf1e9c68a6fb4033cb5c2da4907106d1cd8a20ea1d6bf28400780aae27203266133024c3dbc97d1755da8139e78ae0844bfabefb66179e17e9e252a1802bf27f42b900ad6080a38f6b4dd6e0aef7706238f43e3a5634209f1be237ede247a90a401a72153228cc4f9e90ac964ac50e15845b302757ffb654f7576f5431951665674842fcdfb27b26b50613a879a982abf0592c10bf7cd0a3be57cfc43ab4b58e9300d152a5374929396a2a7a8fd0f282e4560a2cade005963717683898c94b2b6d3d4f2060a1e2c2f405a6668758191a2c7d7000000000000000000000000000000000000000000000000000000000000000c14223101fd210500706e5c5ccbfcfd7d25b300543df38cee99e0e6c561a90919cdf0dd2b63455180c71542c6f99bc8e0be51c514731ba64d2bcdab9afd8e611fa4438056e1046ec2ed68f641d7492c0c94fd978250fb9e7c760444fdac1575ca152842040c7b9541c2dfe9a763c16ff12fd8673591f0917a60b9207cfc22912ebb74ff70c50d9b7dfde1ae50a02514d428a9fe732c46b1e3013a7fd999880a09f2151f9e360a0056a26115cab9ddde19d04183e2010645ae404145af74a92b6946bf3bc14a16037c8910756ba03a857dc11f808d40211a0755185651162ef1778414ec89672bf8b345619c56380446285b4d21e8918c29f99a532b18fc01f4a3126469e487715413eecb663086d186aea434f59e192999aaad4a4f6ae27566817fbeed354e740fc06590399f570c87014764633ef67637f775a00f76afacbd9d9cfe5d6e3d4575d45e98ab3227191aae9338f87e3d75a28e1aee3329bff60510001bcaa372a9a8790e4fc864050ba820514ce68d91ed66f2d8e46bce3277a881b4e7c9800717d781ed0da549a7bc00ff9c7f52fa1676bbb694a437adbfcb8bd188b71af53ce63af9d8361c36db35b3c86c009c60c808fe4e86b980d5d1bf61b1f86a77277316fa9f18fd390fcfe7f3680c7bf9216621188d9075527e1cb38f286a8b19555ce66d2496c8108e4d27b937140adafe201c7ab39e59d9c4a6ce91423647878d56cfa6e90a61badd77a33baad1f53e339b6b5aee18abe010270d0da932226cb1a27e108343bcf6f5a067a1ba802b2b665558179d2392ac6cad50a0bd2533da84ef734d336dd227a0d534cdb493a5225cb8df3a57cd3888356073d2a5069ce01e32284842edab5ddd74a14b14f851b078e89c979685e1f667d61092e4bcbde71a3450906264037e5683d1f8f745546432640a785f93210cf95435752f2e6764937d1b8f31582c8c38147ee1e9fdd1ffa4faf1428738a8eb214832101ed708be684b77a6c21f0ca5fc1285f867c7de6aeab939976b7477237455e08efc3405e551d33aac472f16b790bb93449e0a033aad790b37c6b386e0a682013e21ff32eb86bf2e05992c1de98f3436b8dc2acf9fba56d54d2a17ee6ee645a18c925d6e1cb78699a3d79140c2f895e592f33ccb4b54500d41071eca075038f9332e04e7bf7039bde7f7d8def5fc1ba21b8daae804365dbae521ccff06a41e8249a43877d75023734bb7e9a03e5b5647d395f4395fba1190163b46019c5701564c14f04ff620dbaf1f94b7124ef636355728bd7666e8342173392066ec7aa276ece9cca9aab6ced54363a37bd90f88a76d3de29c512b7303d74a5e8a9422f763d9a4a7fa395012434e158b138a6327466d2e44fe19ec0d5b2304030b0bbcdcfff6587c83d5ad21ab15b5280cefbe1b1e94003827ebced7361f8a09e58fdc47227d146ff52eba8b31684d8f7e1607c905c4c905de22fb947449dbf8e865820d5bc6d8026c6c36a76ff0cebc0278a443080ee8eda95851f340eb64d60b4104541cc2143220948fffd311639c54ffd5ea3f28053f1d8adb1c9b27a81717f7639b56ae6d63fdd890451c2581817891dcefd0cea269069ab2b3d884334dd6a236c115eacc42fc1c6312dec308041e36979ed7d11f0ede36948e45a4c2f38236490611cd955b80da60a142db1622cde64ec054db4cc4b6c983a18d89ed0295ef29873b4ba97d6e34bc879d426fc2aff322934705f755a3ecd37841e6bbebb4e94566e8d100ce10c97d5a342c219e094dee1cc15423870d1ef1a423bfe8401dfdc3ed2279c0f61e4120f9d432774468fcaf80adf2c73a9a85627b759fd79204ad8f85afeef30c6f0424e9deaf507c000000",
  "txid": "033a1f988ad6647414861f5a9d8efc82e60a0c92458fb31b9b352d5f24bba54b",
  "hash": "b2b27c244ea3b8f28dd5f554c03b76480e182fa705bd03878cf2bfe92d52f0d6",
  "size": 5085,
  "vsize": 2278,
  "version": 1,
  "locktime": 124,
  "vin": [
    {
      "txid": "6c20bb06aa68e18f5f695fa768b29a60742f404aa6633bae62e0a27669e2ed3b",
      "vout": 0,
      "scriptSig": {
        "asm": "",
        "hex": ""
      },
      "txinwitness": [
        "02158b4cfc98cfab4a36ee20f1af0bdb4cdd898ec26866ed9b2ec4a688c0c19ff8f75408440b337daa4183ba396e447e7526ccbfb1478e887a769d3d475c7b04816e2458c49deeb25a12cc420367077b796cbebd9f39bca6c65d3d91f541bc91638bde57a6ef8c16ccfa6742d09ee47c840d0c3eaf1a8f1289699030867c4fbc9006e7bce468c5c825c29452bdffa577e39a90ab1f7dd31235d74bebcabf10aa7669aa33f6ae15fea5076b74cde095efc1406d482056cfbcde43122e3e9a77eea0a69f1f11cb2e5ece538874ab652bbed631775e66f2d082207bd2c25a12680c7f89f869a24a34d1000cf260b655c64a9dfeb49884ba01532469170b4e0fa33c45610e0e6ce34657dabe75e1cbde495df44bebfbc2f246a9f2613c5a54291893a960bfd775a33e26c3e28ec232bd8bbe630959f1f39b9ded948def32572dce7fd337fdf9c74465379265215a95f50eaa3cb2a83eb00682316ff2daa999774430d34d40f2d4504b40fa0ca36a6d228babc371b008586abc0122d1421904060d7dbd752ef4f2553bd683a515219d1d1e243eea1dd9c7dd22651dfaffe0e9d099356c7c5356b97f1830403ffab0dae886d15cccd57d3a83f135919db0835754173864d05acff30892c10f20e24307066b1b101750e58da475346fbcf72015bdef53cbd6fb7085413b3f60f2a974942074bd9951d68bfe0775e99a61558782771bd18c65ad79f6d7e34d03eaf22d48b6a465512ad93a61da1a7c963dcd22babe31d782c2a77b3aa3a4d5c48fc2e5982fafb1470f3d74de5779b814bc199c41c379834eb1dc8d5445f8aab9fd2cbf0c4a343b92b1642e324889d61ae7e1ea9db48498ac397adcbcf46bf48c2d463da7a596a027581a9cac5f3d2e14cced5efe770b97c4fe7be857add9a6e868a326d01857f51e0e4c0077f3720720b63e2390c6c62166c6502877d07ad74d468d629b506d70f2984c59167817e2eef24fee9e3991c2aab72364253324d1593239d5b700f33b1982c13ceac9b1bf8ba1b5ebf07513669a6b94e5b00d0584acac2143a4a0e1057168dd3c51d8460065890388060d100bc260fde49abe7f6b430d3747c139044a3813648ae761946c5403e193e5c05adba726328f16dc322fc0c6da3fbfe1af91795f367b6c6deb50bc6c11032ee0f44898085551349c947ef3e29b9c6c4510a5cb5d89dcf7600535e91e2081f2fe6c882ae2bafc709ed7cfee3dc3a01e454b6abcbb9c712c30e9f8cb7a902b8b293c110302e5f6dffddc7def1b9a1c2ba43acf89c3d4d4956175c6f35bd7afb6d007beda4240428d050be1b48524deb1f6ad2c3bf58a659a205d23dbcd715ccc62acc18426e4d22ed6d9ee23de42c40d42e4f2c12198b909e71c6445b3082125546d26dca3c010a1012cfc7f78b2d2e704731c41d8ee25a0509122677535facfb506b8925632cd76e3540693527eb503cdcbc2517f287278d642859c2a9a36d60f99eabc22e0dd33f33b95f8c2d6a40ca29a3e44745c40e90874ac83eef58b34210a0229721965caf33950b23baf8d08d97d59914d99cd311f0db71f977faa2451d49a13b8011ed7ddba15fb34ab3e8b01285103a3fec4d3a48b20f1f834149aeb06343ef96851f6c903f93bfe212b0ff3ba095e485fa00cf8be0e9f1461939f87ea843c149507e5aff7daa9107a2cf6d6e74c068d75b7c5d313bfb723fd7ea510793b79b4cb47c870a5e15262237f3ac4370ce46a6498c8008f91d5ff14dce384f5a253406d46c16033348627c3271d2f614133e724d8a1bbcb6e76c8808a4d0920290be1d7574e66c801998b10cb1e409f22e18ebdafc4b561e01fd6db9464fe212da3a39565e4cf45260b0a4d74a08eb3ee5b6980b6d642543e5ff2ae5f7eadaae5075292e9bb5b60f5cf80dcefa39aa27df2ccfa6445c8f71ca9dc63de431b2722e651a14c106b836559d6a1aaea329cfe4c690b9cc9f62d594180e9595b7d1a356b49dfb21ab0c834d84ba489e7a94c2d4ea59b70dcc98ad894139391f0d392291fee85dd2f9a69b85096911049e48c30f545e864753a6720ca2e4ac8cca8d3de08630bf689c0e9a1986a0aabebfbbc2fd7fa1679f3bd31d14d6f665f3f2baa921fd53a620a18297a583a1eda8f2fb14323e3cd986f1292e32cd32563f8b4d20723591c01fbe01e728d67749723a8f7b7d10282b32e100b1e1494986e00ff8be8ef1925eae9f7b1067cd54896986b0f8b8ef3656f7dcd9f163765a79d5069e7ca90161fcd57801e2dc8699659afffa72b66a8eb5d0ece1fe799cd5f9b21c6bc6d6c3377a6eb7defbf0f46666d73aad1b5b9ebc4591e953765b65f853d6a999e0a4b82fb2096be782da486272fc8ba4d9a5fd677e80d331a76367636a1c1b5d07102301b2584cf5e5b3a55a7f3b4a5e921b454531e8709e83897e15a4fba21b48f9f6853649ab0ac5ca6161501625e79bebdf38b73edf44d608f9ae24a7b5d2eb15c9f88bb300c53a2e487447bfc3b60bd75b42d35e978a989381734033d3012c1f52c2b55c813c5c7e9f88571c5a37e9e591f88f345a94cae133ff575ae421414864a400535f5d5a5414764253e7458789d69b6714ded562ebad1c78afb71e64827fceb8c4a6cbb4fd0c54f607ca555b96ca94779154da18cddbe759cced04ddf5e395b9065bc385894482458b9ae791e196f0040227a73284de1dd6d8e7988039935b203ac8feee5fdb0342e7e8e137c19cb2af264c05d58a1557be770dbafb4045ec1266134b02bd6fe27c6c875929dcb47c20cf2da166f7b6ed717198d61017e751f34c7ee77c7ae87c8eecd02bef34a5b968a25fd77264c842ed3533b702757a4579a42390bd0b2232d528761d4f2ecec4efff4934326b37b863a6c982934e951060d8bf1ab4a209ceded26f97b6a0f7226cd100416d9cb607437a512869d44839bd1bc49eede68ad567102ffd182ada2fc44d1e537180455eaf4497e06dacb5ec1ba430b5963869630e27038683f2c290b5df175d6175cd541a3737976a32a75e290041c25d8435cfc69ca922e8c579163e5e1a77b4ccd0f9a0613e08cf1e9c68a6fb4033cb5c2da4907106d1cd8a20ea1d6bf28400780aae27203266133024c3dbc97d1755da8139e78ae0844bfabefb66179e17e9e252a1802bf27f42b900ad6080a38f6b4dd6e0aef7706238f43e3a5634209f1be237ede247a90a401a72153228cc4f9e90ac964ac50e15845b302757ffb654f7576f5431951665674842fcdfb27b26b50613a879a982abf0592c10bf7cd0a3be57cfc43ab4b58e9300d152a5374929396a2a7a8fd0f282e4560a2cade005963717683898c94b2b6d3d4f2060a1e2c2f405a6668758191a2c7d7000000000000000000000000000000000000000000000000000000000000000c14223101",
        "00706e5c5ccbfcfd7d25b300543df38cee99e0e6c561a90919cdf0dd2b63455180c71542c6f99bc8e0be51c514731ba64d2bcdab9afd8e611fa4438056e1046ec2ed68f641d7492c0c94fd978250fb9e7c760444fdac1575ca152842040c7b9541c2dfe9a763c16ff12fd8673591f0917a60b9207cfc22912ebb74ff70c50d9b7dfde1ae50a02514d428a9fe732c46b1e3013a7fd999880a09f2151f9e360a0056a26115cab9ddde19d04183e2010645ae404145af74a92b6946bf3bc14a16037c8910756ba03a857dc11f808d40211a0755185651162ef1778414ec89672bf8b345619c56380446285b4d21e8918c29f99a532b18fc01f4a3126469e487715413eecb663086d186aea434f59e192999aaad4a4f6ae27566817fbeed354e740fc06590399f570c87014764633ef67637f775a00f76afacbd9d9cfe5d6e3d4575d45e98ab3227191aae9338f87e3d75a28e1aee3329bff60510001bcaa372a9a8790e4fc864050ba820514ce68d91ed66f2d8e46bce3277a881b4e7c9800717d781ed0da549a7bc00ff9c7f52fa1676bbb694a437adbfcb8bd188b71af53ce63af9d8361c36db35b3c86c009c60c808fe4e86b980d5d1bf61b1f86a77277316fa9f18fd390fcfe7f3680c7bf9216621188d9075527e1cb38f286a8b19555ce66d2496c8108e4d27b937140adafe201c7ab39e59d9c4a6ce91423647878d56cfa6e90a61badd77a33baad1f53e339b6b5aee18abe010270d0da932226cb1a27e108343bcf6f5a067a1ba802b2b665558179d2392ac6cad50a0bd2533da84ef734d336dd227a0d534cdb493a5225cb8df3a57cd3888356073d2a5069ce01e32284842edab5ddd74a14b14f851b078e89c979685e1f667d61092e4bcbde71a3450906264037e5683d1f8f745546432640a785f93210cf95435752f2e6764937d1b8f31582c8c38147ee1e9fdd1ffa4faf1428738a8eb214832101ed708be684b77a6c21f0ca5fc1285f867c7de6aeab939976b7477237455e08efc3405e551d33aac472f16b790bb93449e0a033aad790b37c6b386e0a682013e21ff32eb86bf2e05992c1de98f3436b8dc2acf9fba56d54d2a17ee6ee645a18c925d6e1cb78699a3d79140c2f895e592f33ccb4b54500d41071eca075038f9332e04e7bf7039bde7f7d8def5fc1ba21b8daae804365dbae521ccff06a41e8249a43877d75023734bb7e9a03e5b5647d395f4395fba1190163b46019c5701564c14f04ff620dbaf1f94b7124ef636355728bd7666e8342173392066ec7aa276ece9cca9aab6ced54363a37bd90f88a76d3de29c512b7303d74a5e8a9422f763d9a4a7fa395012434e158b138a6327466d2e44fe19ec0d5b2304030b0bbcdcfff6587c83d5ad21ab15b5280cefbe1b1e94003827ebced7361f8a09e58fdc47227d146ff52eba8b31684d8f7e1607c905c4c905de22fb947449dbf8e865820d5bc6d8026c6c36a76ff0cebc0278a443080ee8eda95851f340eb64d60b4104541cc2143220948fffd311639c54ffd5ea3f28053f1d8adb1c9b27a81717f7639b56ae6d63fdd890451c2581817891dcefd0cea269069ab2b3d884334dd6a236c115eacc42fc1c6312dec308041e36979ed7d11f0ede36948e45a4c2f38236490611cd955b80da60a142db1622cde64ec054db4cc4b6c983a18d89ed0295ef29873b4ba97d6e34bc879d426fc2aff322934705f755a3ecd37841e6bbebb4e94566e8d100ce10c97d5a342c219e094dee1cc15423870d1ef1a423bfe8401dfdc3ed2279c0f61e4120f9d432774468fcaf80adf2c73a9a85627b759fd79204ad8f85afeef30c6f0424e9deaf50"
      ],
      "sequence": 4294967294
    }
  ],
  "vout": [
    {
      "value": 499973.5606,
      "n": 0,
      "scriptPubKey": {
        "asm": "1 a42dfb62e1c2d2ed3c379800f7f29e70cba611b379a25717c9777e76dbd0be19",
        "hex": "5120a42dfb62e1c2d2ed3c379800f7f29e70cba611b379a25717c9777e76dbd0be19",
        "reqSigs": 1,
        "type": "witness_v1_scripthash",
        "addresses": [
          "3QJmnh"
        ]
      }
    },
    {
      "value": 1.0,
      "n": 1,
      "scriptPubKey": {
        "asm": "OP_RETURN 61f2a59934de2cf8f3f90181cab73224cb9cf1d878423577958bc3846776d435 2965034b7b8a0497647756ecb5264d7bc39c438fbe860ad7b82429b1ce78f5d10945236b5baa24b7445776cc95066d5be3bc63af9ea62af798040991ee58d5f16925430b3bca44d7243716acf5660d3b83dc03cffec64a97f86469f18e38b5914905632b1bea64f70417368cd5462d1ba3fc23efdee66ab7d84449d1ae1895b1a9e583cbfb0a8417e4f7d66c35a6cdfb431cc30f3e068a5738a4a9314ef8755189c5a3ebdb2aa437c4d7f64c1586eddb633ce32f1e26aa77188489116ed85571e9a5c38bbb4ac457a4b7962c75e68dbb035c834f7e46ca1778e4e9710eb83511c985e3ab9b6ae4778497b60c55c6ad9b237ca36f5e66ea3758c4c9512e9815312965034b7b8a0497647756ecb5264d7bc39c438fbe860ad7b82429b1ce78f5d10945236b5baa24b7445776cc95066d5be3bc63af9ea62af798040991ee58d5f16925430b3bca44d7243716acf5660d3b83dc03cffec64a97f86469f18e38b5914905632b1bea64f70417368cd5462d1ba3fc23efdee66ab7d84449d1ae1895b1a9e583cbfb0a8417e4f7d66c35a6cdfb431cc30f3e068a5738a4a9314ef8755189c5a3ebdb2aa437c4d7f64c1586eddb633ce32f1e26aa77188489116ed85571e9a5c38bbb4ac457a4b7962c75e68dbb035c834f7e46ca1778e4e9710eb83511c985e3ab9b6ae4778497b60c55c6ad9b237ca36f5e66ea3758c4c9512e9815312965034b7b8a0497647756ecb5264d7bc39c438fbe860ad7b82429b1ce78f5d10945236b5baa24b7445776cc95066d5be3bc63af9ea62af798040991ee58d5f16925430b3bca44d7243716acf5660d3b83dc03cffec64a97f86469f18e38b5914905632b1bea64f70417368cd5462d1ba3fc23efdee66ab7d84449d1ae1895b1a9e583cbfb0a8417e4f7d66c35a6cdfb431cc30f3e068a5738a4a9314ef8755189c5a3ebdb2aa437c4d7f64c1586eddb633ce32f1e26aa77188489116ed85571e9a5c38bbb4ac457a4b7962c75e68dbb035c834f7e46ca1778e4e9710eb83511c985e3ab9b6ae4778497b60c55c6ad9b237ca36f5e66ea3758c4c9512e9815312965034b7b8a0497647756ecb5264d7bc39c438fbe860ad7b82429b1ce78f5d10945236b5baa24b7445776cc95066d5be3bc63af9ea62af798040991ee58d5f16925430b3bca44d7243716acf5660d3b83dc03cffec64a97f86469f18e38b5914905632b1bea64f70417368cd5462d1ba3fc23efdee66ab7d84449d1ae1895b1a9e583cbfb0a8417e4f7d66c35a6cdfb431cc30f3e068a5738a4a9314ef8755189c5a3ebdb2aa437c4d7f64c1586eddb633ce32f1e26aa77188489116ed85571e9a5c38bbb4ac457a4b7962c75e68dbb035c834f7e46ca1778e4e9710eb83511c985e3ab9b6ae4778497b60c55c6ad9b237ca36f5e66ea3758c4c9512e9815312965034b7b8a0497647756ecb5264d7bc39c438fbe860ad7b82429b1ce78f5d10945236b5baa24b7445776cc95066d5be3bc63af9ea62af798040991ee58d5f16925430b3bca44d7243716acf5660d3b83dc03cffec64a97f86469f18e38b5914905632b1bea64f70417368cd5462d1ba3fc23efdee66ab7d84449d1ae1895b1a9e583cbfb0a8417e4f7d66c35a6cdfbdf60457ec595b4557ff64f695572469cb1b3a4c0503f5ea73f189782dc75db3e",
        "hex": "6a2061f2a59934de2cf8f3f90181cab73224cb9cf1d878423577958bc3846776d4354db0042965034b7b8a0497647756ecb5264d7bc39c438fbe860ad7b82429b1ce78f5d10945236b5baa24b7445776cc95066d5be3bc63af9ea62af798040991ee58d5f16925430b3bca44d7243716acf5660d3b83dc03cffec64a97f86469f18e38b5914905632b1bea64f70417368cd5462d1ba3fc23efdee66ab7d84449d1ae1895b1a9e583cbfb0a8417e4f7d66c35a6cdfb431cc30f3e068a5738a4a9314ef8755189c5a3ebdb2aa437c4d7f64c1586eddb633ce32f1e26aa77188489116ed85571e9a5c38bbb4ac457a4b7962c75e68dbb035c834f7e46ca1778e4e9710eb83511c985e3ab9b6ae4778497b60c55c6ad9b237ca36f5e66ea3758c4c9512e9815312965034b7b8a0497647756ecb5264d7bc39c438fbe860ad7b82429b1ce78f5d10945236b5baa24b7445776cc95066d5be3bc63af9ea62af798040991ee58d5f16925430b3bca44d7243716acf5660d3b83dc03cffec64a97f86469f18e38b5914905632b1bea64f70417368cd5462d1ba3fc23efdee66ab7d84449d1ae1895b1a9e583cbfb0a8417e4f7d66c35a6cdfb431cc30f3e068a5738a4a9314ef8755189c5a3ebdb2aa437c4d7f64c1586eddb633ce32f1e26aa77188489116ed85571e9a5c38bbb4ac457a4b7962c75e68dbb035c834f7e46ca1778e4e9710eb83511c985e3ab9b6ae4778497b60c55c6ad9b237ca36f5e66ea3758c4c9512e9815312965034b7b8a0497647756ecb5264d7bc39c438fbe860ad7b82429b1ce78f5d10945236b5baa24b7445776cc95066d5be3bc63af9ea62af798040991ee58d5f16925430b3bca44d7243716acf5660d3b83dc03cffec64a97f86469f18e38b5914905632b1bea64f70417368cd5462d1ba3fc23efdee66ab7d84449d1ae1895b1a9e583cbfb0a8417e4f7d66c35a6cdfb431cc30f3e068a5738a4a9314ef8755189c5a3ebdb2aa437c4d7f64c1586eddb633ce32f1e26aa77188489116ed85571e9a5c38bbb4ac457a4b7962c75e68dbb035c834f7e46ca1778e4e9710eb83511c985e3ab9b6ae4778497b60c55c6ad9b237ca36f5e66ea3758c4c9512e9815312965034b7b8a0497647756ecb5264d7bc39c438fbe860ad7b82429b1ce78f5d10945236b5baa24b7445776cc95066d5be3bc63af9ea62af798040991ee58d5f16925430b3bca44d7243716acf5660d3b83dc03cffec64a97f86469f18e38b5914905632b1bea64f70417368cd5462d1ba3fc23efdee66ab7d84449d1ae1895b1a9e583cbfb0a8417e4f7d66c35a6cdfb431cc30f3e068a5738a4a9314ef8755189c5a3ebdb2aa437c4d7f64c1586eddb633ce32f1e26aa77188489116ed85571e9a5c38bbb4ac457a4b7962c75e68dbb035c834f7e46ca1778e4e9710eb83511c985e3ab9b6ae4778497b60c55c6ad9b237ca36f5e66ea3758c4c9512e9815312965034b7b8a0497647756ecb5264d7bc39c438fbe860ad7b82429b1ce78f5d10945236b5baa24b7445776cc95066d5be3bc63af9ea62af798040991ee58d5f16925430b3bca44d7243716acf5660d3b83dc03cffec64a97f86469f18e38b5914905632b1bea64f70417368cd5462d1ba3fc23efdee66ab7d84449d1ae1895b1a9e583cbfb0a8417e4f7d66c35a6cdfbdf60457ec595b4557ff64f695572469cb1b3a4c0503f5ea73f189782dc75db3e",
        "type": "nulldata"
      }
    }
  ],
  "blockhash": "fe93069f37b49cfb15542a42b300d4e9dc573fdbbe6c5d081907ef62d551896a",
  "confirmations": 1,
  "time": 1764180962,
  "blocktime": 1764180962
}