{
  "hex": "010000000001019d4df9de067d7abe132027ab13624ab558f86c80a828db6fb1fd8422d07222430000000000feffffff02f020b051792d00002251206302d4693db6797ac13f4dc29327ee8343bda8d368b24b9718e4261e0245c31600e1f50500000000fdd5046a20aad7c75162739d012028dfee9a9202145c140f418bc0768c3a7bc6d2c2c00d4b4db0045d7ddfc896c2fccca1cf0d46f4869691a089289054351172c47363cec47d81c27d5dffe8b6e2dcec81ef2d66d4a6b6b180a908b074153152e45343eee45da1e21d3d9f88d682bc8ce18f4d06b4c6d6d1e0c968d0147551328433238e843dc1823d1dbfa8f6a29cacc1af6d2694e6f6f1c0e948f034557112a41303aea41de1a2ddfd5f4816427c4c214f8dc6740616112009a810d4b591f244f3e34e44fd0142fddd7f6836625c6c016fade65426363100298830f495b1d264d3c36e64dd21629dbd1f0856023c0c610fcd86344656516049e85094f5d1b204b3a30e04bd4102bd9d3f2876221c2c412feda6146676714069c870b4d5f1922493832e249d61225d7ddfc896c2fccca1cf0d46f4869691a089289054351172c47363cec47d81c27d5dffe8b6e2dcec81ef2d66d4a6b6b180a908b074153152e45343eee45da1e21d3d9f88d682bc8ce18f4d06b4c6d6d1e0c968d0147551328433238e843dc1823d1dbfa8f6a29cacc1af6d2694e6f6f1c0e948f034557112a41303aea41de1a2ddfd5f4816427c4c214f8dc6740616112009a810d4b591f244f3e34e44fd0142fddd7f6836625c6c016fade65426363100298830f495b1d264d3c36e64dd21629dbd1f0856023c0c610fcd86344656516049e85094f5d1b204b3a30e04bd4102bd9d3f2876221c2c412feda6146676714069c870b4d5f1922493832e249d61225d7ddfc896c2fccca1cf0d46f4869691a089289054351172c47363cec47d81c27d5dffe8b6e2dcec81ef2d66d4a6b6b180a908b074153152e45343eee45da1e21d3d9f88d682bc8ce18f4d06b4c6d6d1e0c968d0147551328433238e843dc1823d1dbfa8f6a29cacc1af6d2694e6f6f1c0e948f034557112a41303aea41de1a2ddfd5f4816427c4c214f8dc6740616112009a810d4b591f244f3e34e44fd0142fddd7f6836625c6c016fade65426363100298830f495b1d264d3c36e64dd21629dbd1f0856023c0c610fcd86344656516049e85094f5d1b204b3a30e04bd4102bd9d3f2876221c2c412feda6146676714069c870b4d5f1922493832e249d61225d7ddfc896c2fccca1cf0d46f4869691a089289054351172c47363cec47d81c27d5dffe8b6e2dcec81ef2d66d4a6b6b180a908b074153152e45343eee45da1e21d3d9f88d682bc8ce18f4d06b4c6d6d1e0c968d0147551328433238e843dc1823d1dbfa8f6a29cacc1af6d2694e6f6f1c0e948f034557112a41303aea41de1a2ddfd5f4816427c4c214f8dc6740616112009a810d4b591f244f3e34e44fd0142fddd7f6836625c6c016fade65426363100298830f495b1d264d3c36e64dd21629dbd1f0856023c0c610fcd86344656516049e85094f5d1b204b3a30e04bd4102bd9d3f2876221c2c412feda6146676714069c870b4d5f1922493832e249d61225d7ddfc896c2fccca1cf0d46f4869691a089289054351172c47363cec47d81c27d5dffe8b6e2dcec81ef2d66d4a6b6b180a908b074153152e45343eee45da1e21d3d9f88d682bc8ce18f4d06b4c6d6d1e0c968d0147551328433238e843dc1823d1dbfa8f6a29cacc1af6d2694e6f6f1c0e948f034557112a41303aea41de1a2ddfd5f4816427c4c214f8dc674061611390531fc147bb5842ba65ca99626d66106b7878d5a9e5a803b1c62b4763d57c702fd75093bd2232c8704d29dec648de57371539d095fcfb0ad18b1d3ac146872c0bb15a10c95c4845dafea6e84f0ad3bc90e9f0596d3df8ac79897cc372ae0ce252c8cd8387f731a355b47917208fc4842d6215d34543ae9a77ab21b3da37242d5d2144b1683c65fb698fcb86e6d62b203bbe525f016c7931a892a7b371a98e378dcdc2b7ab28cf0c6701338c33d6e494b06774247d9e223e4ef08a09afa6417e45e9c937cf7db811b4aea79b8ae8ede609ffe920e31fba77b934653bfb2d862da7a559c34641b2e558e4aa6f7c222804cf9c6539320fa6f3df52f9fa7b32e1b8cd1c7c7812247f20e4e94faa98cea707846d29e17a032551a1c10bddf0ca54006313bb4c6f31bc667d2799f8e523ca46c0bb980bdd5d6722c352c5a5cca848bcc69f1dd05c7ace03de1749aac663ffacf3b6ee07583cc23fc175721d7433360f2dfe1d94170167abdeb64069d3fbf09d62e3ae277c4d2b8ae912b2f673f6df7a02b0655c788630384fb58d093a254e634e74304534cd8017250a4c13514fa5d1ef88b367512bdabdf8a7bc594ca5f3f95acfeddb7256093fb524be42084e557995a29bd98e3cb9d41dd47f23847fd5deabac28e39ab0930f392af553ef663f5e647c13e7d448f97e04dd9f46068180b29bdefa20d316ed7788aa5d4f2941d99a83580a84c683ecb0bde77850b672068baf1d719c2e8c8fe5101cb153ae9e1d4b53ef1ad63386d40b6ceee45dd904a1a4af2ac1cb0a4a72e80c438e727ba1933839beaad1208fcc99c6ca607a9d081502d8e745a1e88a5be2f734d8a734e59a602d422d44ba1d790dad143613755107c3ef6694084aed846ec7fd05181d7f7f0de17a03fb2f7b18b922e9276db40d1a07f65d87054d16fd3cf8f1c47fc3cb275458365305c75957f0bbf09d8acbfe9ed4a8cef7cdf2e00c938074bb2201d159ef85182db8a020074653869889cf458ce70d66485f99bec1f897c38937b513c18c01cc8cce3835fd687d8e9b0394e48a5478d531c2380bacf8f51fbbe5cbeca0f07a8bb3c8a2d5f3ebda75e8738e501626444493b586032c3954c3235ab724c73b29dddfc9112ca2d45eaa3129083a933695d728f2bb53d71e5a70707c6415b82ce66d84e6a709f2207d99a62440b3721c30f0156034a1cb7a37b07c2533d82b8b32a3bee354f5950699dcc5fb88ac106fee93567bb356cc10a05b85c90986defc9f9642cca7c297579ea9b2da14f9685f3a1971e9a8e54ec0de9bf7eae8baa227fdd42634617a98f8b43f78d2b10f9a4645c61ea3373a9cdb5e0c0141899c5ca0b72b972eff8135a35f4e3f15cf13761857f9ca2811946d895f2eab91c3a2f28690e4de262eb022e61fd005bef1a44173b498d20aed7b15f05f460ce1078e256d20135d558c728d000072296043b061df2656d29482980e7f42c5dd720c81fca941f0d9bfebb2525b654169af365c1d4a9bccae07f889e0bc92ac960ecf6f3713dc3759185bdc010ec887c6cbbe802209523dff7db86e4d84dfac5da04f03c97c6d4fdca10527dfd7dd136a42d1404c7a205e772873b822435e810c1ea232b593ef82893b1f9e6986c388658d15f58b7451c71e02e56256062dca25987c772e6a1278d679ca2d13265df7759d625277b035dea91c29c8e0467149858a6d1ca39f27ce56d86f860de2e376e7fa15112015b22d095ed08e5f271fc824b07a45359f0bbd5b63938e3aeac0b81c92f1c905316dbd276dc3e145aee9f02ea2df0d7b53942ee3abd80cbee0ff9c57fb1652129a4850244f34c558700e467f0d35ca3a79c96de667d2861ed9d73dfa8f1cd9048439393cbd69b1237753bba327f1f4a0efbba80b2f9ec6e421acadc7a214bd29244cd5553811304bc246dae59025931563c9469f852b3f1acebdc08946073fe5f538962f8311be4de41a91aa7cdb65823c74816127b4e84151974879f13a0fd7eddced1aad3bae5b679a706b34cf2c7481b46cedd1fef76fd66a84d5a5022c3fff9d2e7633edaa3592ca51fbc77f899c98319084ecac0b61f4455061991424b02cc2b4a53d91680acd4857c20c9d05cab11bae439981b9398d986bbf27af840e6e79825b013d10f0841732dcb4b8b386929c260eaebbfd786930e83aaedc4a3d5073d31c0c33eba0f91297cce4190e4ea4c82066bad58545e8538bf6104802170fed2603ac3859629371073fc5aa9b50223d0a76cb2f55dec19e219612e9b8eae4a04066736a8f9add5a7ef3195ba7ec1ab2e260a87a63c8c7d6eb7091f831f486f7b3ac806d48b9685944f2d29d96dafc28c6ca4b9e000e615b87f8f75dd22b78c4cc0316c8ded4462fda31f5873bb8c0559d5d540a7c75d7b0cacb02e732ce809db9f83795b977f21754967515ab744e2dab8e09338fa4c31154e86f2dc94f59b2eae4701e6d72064d7bec00fdb193eeb5b8d4c8a6740ed2fbf992f0f07e05b084208112f0dfa571d160f5ba76f39602dc1de8caa63d9d36c1e597646cd896e51b866335f29290222c7568bf121c06bff01bc254079ecae02fec6e79881c0ff28d8848f192af5de1b7d7b17d7b4299b34b64ed87bc2d54717912b5fd8f3d3edb205b6575cec2ab2effd5af0e8a2aa1891d3565d0da629e5b5cc8bff83d6dff57a6d1f4581eae5206042f30fda28fcde5c6b1b697093fa222b0789749d3f637e7ac0175c0ac5e7fe90c78cd2d1f0e8c135223960848930d3355b3919157065b8053eb24c423c79637b0ae5e375317d4102877deba2a1be9b28c5416ea27609eacef2303bb3292838b5d13fd64aa72da5f2d1388bc06e4a4963f3c9a29f0095255f3aa1deac7813a34c443a2327ab51ce16376765fda788a24b435ce90da5c2094b11e37d708817f3ee7f0049e2f6241d368aee971eb55511377adb684d1e4cba02d42f5a59c26254c49522220dc036b0a3c4ee8a16f4dd3e39643fb8f76700c351d94e2087e8845590d481d764702f812b2a1c7b5669a3259fdea00ff60fa14de0d2db0d0fe7e1f87aa50b258c40522e06e2d7121d65ae45c2890508c2cb9bedfdafd47b48198dd6063d8943747340f53a8d86e77c850e5c6fe2a4a3c74cc47e3b6446b6367707899c874faacd065237025750ecc8bcc7f4e3db7fa5c575cf58da3d85bdab9e22149711d2903a25c1ad8b3da00f216dc416b3ad7f4473ebd55d19d562c7a852d84badce36c8961ea91fd0d5c5e50c0bc32e24536baba42c0b935e3f69f8b2ce0b2241ce52412cec85ee1fa83d299a5da9ab1cdc4a993135405e42299103948a14af7df5e383168055c4b9e2ddca1d2a43526a7e818386979fbbc3e0f1fbfcff161a1c2d4355595c657183b8c6cad4e3eaeefd04080c152b2e86939899bfc4c9d6fe001a383c5c65667ac9cbd5dcf0fd00000000000000000000000000001225344201fd210500faa328c5c8970752bedc8c912a0e6c9bbdde37cdf980d9b9207ed8d0daeaa5febe78d5ea771727c175cad95cc99a38e5ebb053a3e8776ab17ea708b90b2106efc1189d5fca610de1316f70d4ad9921b84bfc642e0b4927d41f367abba84556b5917e9cc352cef2fdf5951ae229e053cb79396694d2e1e1d18e65c49c430b657730f7a3548b4bd7b69f9cbe501fd8f571bbb4c8f0a9e88e3d0b7317b7dbf71e5a8307b269eeec66d6b2ec6ee929ed74352ea14755bb7283afd0acaf166e3e48965c59721fea682caac2c76fed57a8ea096c9e0f7809ac8c73b3c8e02c06bd7f30e2c9395df2d7d848c915ba1d390b00bdd1e602f50e4c7d6582f92d168c547955632778dffed4f36cc8957d4ecdcf8737cd32dcd6eb119df1c94714cf63d4257b905ef575854614019b43937cc44fd6e1ce1784b99ca2ff90aeb09dd059a05616a44a13077258e0d622baa8354abdcdf34825acce357c26bc8294b96907868e4c09c539e15139bc68aeba59e2f0e6341f5d7a5372fd6387a0bad1f0c9b81eba17486fa65e7b8fb1db5d23b0cf01008acc6d9ae2a2bfbf0cd469ed4fdfb175c709c922b9757fcc55b6ac3bef6f23ad45721e803e88f88af3585a2b719c6f1320045ddf7ced6595bc81e0b0360a424852355332b2aedd942d8f3a108de879333f4211ac43abe583735ef3f1bda3a07b39dd73ba61d21eb16c39233e578ec6f381cbe9e593874a0ab4c73b8f5d46d072a4fe889ec455fb409a3b9a4f70b5dc512cbd0d54eaa5e0487aee97895d961d5e745a3162a02283597920d46ae9bd408de9e5f7b07f41ec2106ec427495b63f871fdab5d6ce5bfa45019b8afc92a58ec53f2e0e7196d484e78106f2364fadd34fcf275f218d9644d2cc98369c8afba8dd060417ed5f4cdc44a34339099bd369de7a67e4377d27bb181015cf75533afc6608effd3299e09d0f93a3a58cca12b84e089f8e5a44ad7bcfefc05cce4332f142eeef00065b90131d8d45af66c0d20477296689fe9a45ed0bdb6c3e74c5738403392de5f50e9eb3c6ea52445c8dbb04b4f670b1c2c827316f66ea114c24dd833442a678273b6dc29aa67dbca407bedf0af90f5f47c16c5155d35f30c95d5d8e7acac1258d518d1b8b6e4d401f25040f5e7025c6def464f23d5e73f66354e9adc78127ddd4699af64e11a7da82a382fc704d5e7ae013a58932b8d4f4265414ab57dc98bcf1396c28703e2a045f38d97599f042d1206300518fd4c2814a9c0a278f38005a21d76de13c5f8c674c54d120d38e93f84150c800dbb32a61ec4277a299d6aa5188a650f30a4ab7aef83f9c2a2fe7c213f1656dbc067dd788ed536d9ca457fa400ba549021c01fc6d6e31e0b98a9e092b8bce270ee234156222982f504aa1db7377ae6eb26ea3b8683df3a0be9d80c92152dbcd58cce7f4b1d862f21eee450a11c18a8fe44654e4d50a86fbf65b895ced2a82a452a524eade85812f665d3a0c5ba89967efc56fd4eb5c933a563f4465a87e15e3fb675969828c75fb39ec9fcaed719884796592c82f7c5653f466ac063f76e9a27d104e966f28fac54d1d01538b5a009263117675899903742b80d1b0cd765a8af12ed779c8b5297d101867257e892e076af86e9462b7fbe4152445571c68b45d147808da5afb7c4f8657d8bc944890b5ada4dbed607fffe63aae937c0756e6671ccbfc9be58e0044eee54c5a05b46da13fd5eec0b867c629161c5b2c0b69f81b1fb61b9248f02eb3346abbf7d33c6fa6d0bd39fc4612a58144fd673e820c1c94708fbba0d460df1f5ce68a976ccfd3512e68a910096ae5ab6f799ab764b7758a089aaa9dfec01cdc81a1c3ab68000000",
  "txid": "0ffaf81168c15a94c107e2da0a3f40401f89c647910c7cf7fc7662b8cf3bdcc0",
  "hash": "216fcd8b7612483528b52a311d6aa53bc3678edba8fc99399103cd58dc65b331",
  "size": 5085,
  "vsize": 2278,
  "version": 1,
  "locktime": 104,
  "vin": [
    {
      "txid": "432272d02284fdb16fdb28a8806cf858b54a6213ab272013be7a7d06def94d9d",
      "vout": 0,
      "scriptSig": {
        "asm": "",
        "hex": ""
      },
      "txinwitness": [
        "3bd2232c8704d29dec648de57371539d095fcfb0ad18b1d3ac146872c0bb15a10c95c4845dafea6e84f0ad3bc90e9f0596d3df8ac79897cc372ae0ce252c8cd8387f731a355b47917208fc4842d6215d34543ae9a77ab21b3da37242d5d2144b1683c65fb698fcb86e6d62b203bbe525f016c7931a892a7b371a98e378dcdc2b7ab28cf0c6701338c33d6e494b06774247d9e223e4ef08a09afa6417e45e9c937cf7db811b4aea79b8ae8ede609ffe920e31fba77b934653bfb2d862da7a559c34641b2e558e4aa6f7c222804cf9c6539320fa6f3df52f9fa7b32e1b8cd1c7c7812247f20e4e94faa98cea707846d29e17a032551a1c10bddf0ca54006313bb4c6f31bc667d2799f8e523ca46c0bb980bdd5d6722c352c5a5cca848bcc69f1dd05c7ace03de1749aac663ffacf3b6ee07583cc23fc175721d7433360f2dfe1d94170167abdeb64069d3fbf09d62e3ae277c4d2b8ae912b2f673f6df7a02b0655c788630384fb58d093a254e634e74304534cd8017250a4c13514fa5d1ef88b367512bdabdf8a7bc594ca5f3f95acfeddb7256093fb524be42084e557995a29bd98e3cb9d41dd47f23847fd5deabac28e39ab0930f392af553ef663f5e647c13e7d448f97e04dd9f46068180b29bdefa20d316ed7788aa5d4f2941d99a83580a84c683ecb0bde77850b672068baf1d719c2e8c8fe5101cb153ae9e1d4b53ef1ad63386d40b6ceee45dd904a1a4af2ac1cb0a4a72e80c438e727ba1933839beaad1208fcc99c6ca607a9d081502d8e745a1e88a5be2f734d8a734e59a602d422d44ba1d790dad143613755107c3ef6694084aed846ec7fd05181d7f7f0de17a03fb2f7b18b922e9276db40d1a07f65d87054d16fd3cf8f1c47fc3cb275458365305c75957f0bbf09d8acbfe9ed4a8cef7cdf2e00c938074bb2201d159ef85182db8a020074653869889cf458ce70d66485f99bec1f897c38937b513c18c01cc8cce3835fd687d8e9b0394e48a5478d531c2380bacf8f51fbbe5cbeca0f07a8bb3c8a2d5f3ebda75e8738e501626444493b586032c3954c3235ab724c73b29dddfc9112ca2d45eaa3129083a933695d728f2bb53d71e5a70707c6415b82ce66d84e6a709f2207d99a62440b3721c30f0156034a1cb7a37b07c2533d82b8b32a3bee354f5950699dcc5fb88ac106fee93567bb356cc10a05b85c90986defc9f9642cca7c297579ea9b2da14f9685f3a1971e9a8e54ec0de9bf7eae8baa227fdd42634617a98f8b43f78d2b10f9a4645c61ea3373a9cdb5e0c0141899c5ca0b72b972eff8135a35f4e3f15cf13761857f9ca2811946d895f2eab91c3a2f28690e4de262eb022e61fd005bef1a44173b498d20aed7b15f05f460ce1078e256d20135d558c728d000072296043b061df2656d29482980e7f42c5dd720c81fca941f0d9bfebb2525b654169af365c1d4a9bccae07f889e0bc92ac960ecf6f3713dc3759185bdc010ec887c6cbbe802209523dff7db86e4d84dfac5da04f03c97c6d4fdca10527dfd7dd136a42d1404c7a205e772873b822435e810c1ea232b593ef82893b1f9e6986c388658d15f58b7451c71e02e56256062dca25987c772e6a1278d679ca2d13265df7759d625277b035dea91c29c8e0467149858a6d1ca39f27ce56d86f860de2e376e7fa15112015b22d095ed08e5f271fc824b07a45359f0bbd5b63938e3aeac0b81c92f1c905316dbd276dc3e145aee9f02ea2df0d7b53942ee3abd80cbee0ff9c57fb1652129a4850244f34c558700e467f0d35ca3a79c96de667d2861ed9d73dfa8f1cd9048439393cbd69b1237753bba327f1f4a0efbba80b2f9ec6e421acadc7a214bd29244cd5553811304bc246dae59025931563c9469f852b3f1acebdc08946073fe5f538962f8311be4de41a91aa7cdb65823c74816127b4e84151974879f13a0fd7eddced1aad3bae5b679a706b34cf2c7481b46cedd1fef76fd66a84d5a5022c3fff9d2e7633edaa3592ca51fbc77f899c98319084ecac0b61f4455061991424b02cc2b4a53d91680acd4857c20c9d05cab11bae439981b9398d986bbf27af840e6e79825b013d10f0841732dcb4b8b386929c260eaebbfd786930e83aaedc4a3d5073d31c0c33eba0f91297cce4190e4ea4c82066bad58545e8538bf6104802170fed2603ac3859629371073fc5aa9b50223d0a76cb2f55dec19e219612e9b8eae4a04066736a8f9add5a7ef3195ba7ec1ab2e260a87a63c8c7d6eb7091f831f486f7b3ac806d48b9685944f2d29d96dafc28c6ca4b9e000e615b87f8f75dd22b78c4cc0316c8ded4462fda31f5873bb8c0559d5d540a7c75d7b0cacb02e732ce809db9f83795b977f21754967515ab744e2dab8e09338fa4c31154e86f2dc94f59b2eae4701e6d72064d7bec00fdb193eeb5b8d4c8a6740ed2fbf992f0f07e05b084208112f0dfa571d160f5ba76f39602dc1de8caa63d9d36c1e597646cd896e51b866335f29290222c7568bf121c06bff01bc254079ecae02fec6e79881c0ff28d8848f192af5de1b7d7b17d7b4299b34b64ed87bc2d54717912b5fd8f3d3edb205b6575cec2ab2effd5af0e8a2aa1891d3565d0da629e5b5cc8bff83d6dff57a6d1f4581eae5206042f30fda28fcde5c6b1b697093fa222b0789749d3f637e7ac0175c0ac5e7fe90c78cd2d1f0e8c135223960848930d3355b3919157065b8053eb24c423c79637b0ae5e375317d4102877deba2a1be9b28c5416ea27609eacef2303bb3292838b5d13fd64aa72da5f2d1388bc06e4a4963f3c9a29f0095255f3aa1deac7813a34c443a2327ab51ce16376765fda788a24b435ce90da5c2094b11e37d708817f3ee7f0049e2f6241d368aee971eb55511377adb684d1e4cba02d42f5a59c26254c49522220dc036b0a3c4ee8a16f4dd3e39643fb8f76700c351d94e2087e8845590d481d764702f812b2a1c7b5669a3259fdea00ff60fa14de0d2db0d0fe7e1f87aa50b258c40522e06e2d7121d65ae45c2890508c2cb9bedfdafd47b48198dd6063d8943747340f53a8d86e77c850e5c6fe2a4a3c74cc47e3b6446b6367707899c874faacd065237025750ecc8bcc7f4e3db7fa5c575cf58da3d85bdab9e22149711d2903a25c1ad8b3da00f216dc416b3ad7f4473ebd55d19d562c7a852d84badce36c8961ea91fd0d5c5e50c0bc32e24536baba42c0b935e3f69f8b2ce0b2241ce52412cec85ee1fa83d299a5da9ab1cdc4a993135405e42299103948a14af7df5e383168055c4b9e2ddca1d2a43526a7e818386979fbbc3e0f1fbfcff161a1c2d4355595c657183b8c6cad4e3eaeefd04080c152b2e86939899bfc4c9d6fe001a383c5c65667ac9cbd5dcf0fd00000000000000000000000000001225344201",
        "00faa328c5c8970752bedc8c912a0e6c9bbdde37cdf980d9b9207ed8d0daeaa5febe78d5ea771727c175cad95cc99a38e5ebb053a3e8776ab17ea708b90b2106efc1189d5fca610de1316f70d4ad9921b84bfc642e0b4927d41f367abba84556b5917e9cc352cef2fdf5951ae229e053cb79396694d2e1e1d18e65c49c430b657730f7a3548b4bd7b69f9cbe501fd8f571bbb4c8f0a9e88e3d0b7317b7dbf71e5a8307b269eeec66d6b2ec6ee929ed74352ea14755bb7283afd0acaf166e3e48965c59721fea682caac2c76fed57a8ea096c9e0f7809ac8c73b3c8e02c06bd7f30e2c9395df2d7d848c915ba1d390b00bdd1e602f50e4c7d6582f92d168c547955632778dffed4f36cc8957d4ecdcf8737cd32dcd6eb119df1c94714cf63d4257b905ef575854614019b43937cc44fd6e1ce1784b99ca2ff90aeb09dd059a05616a44a13077258e0d622baa8354abdcdf34825acce357c26bc8294b96907868e4c09c539e15139bc68aeba59e2f0e6341f5d7a5372fd6387a0bad1f0c9b81eba17486fa65e7b8fb1db5d23b0cf01008acc6d9ae2a2bfbf0cd469ed4fdfb175c709c922b9757fcc55b6ac3bef6f23ad45721e803e88f88af3585a2b719c6f1320045ddf7ced6595bc81e0b0360a424852355332b2aedd942d8f3a108de879333f4211ac43abe583735ef3f1bda3a07b39dd73ba61d21eb16c39233e578ec6f381cbe9e593874a0ab4c73b8f5d46d072a4fe889ec455fb409a3b9a4f70b5dc512cbd0d54eaa5e0487aee97895d961d5e745a3162a02283597920d46ae9bd408de9e5f7b07f41ec2106ec427495b63f871fdab5d6ce5bfa45019b8afc92a58ec53f2e0e7196d484e78106f2364fadd34fcf275f218d9644d2cc98369c8afba8dd060417ed5f4cdc44a34339099bd369de7a67e4377d27bb181015cf75533afc6608effd3299e09d0f93a3a58cca12b84e089f8e5a44ad7bcfefc05cce4332f142eeef00065b90131d8d45af66c0d20477296689fe9a45ed0bdb6c3e74c5738403392de5f50e9eb3c6ea52445c8dbb04b4f670b1c2c827316f66ea114c24dd833442a678273b6dc29aa67dbca407bedf0af90f5f47c16c5155d35f30c95d5d8e7acac1258d518d1b8b6e4d401f25040f5e7025c6def464f23d5e73f66354e9adc78127ddd4699af64e11a7da82a382fc704d5e7ae013a58932b8d4f4265414ab57dc98bcf1396c28703e2a045f38d97599f042d1206300518fd4c2814a9c0a278f38005a21d76de13c5f8c674c54d120d38e93f84150c800dbb32a61ec4277a299d6aa5188a650f30a4ab7aef83f9c2a2fe7c213f1656dbc067dd788ed536d9ca457fa400ba549021c01fc6d6e31e0b98a9e092b8bce270ee234156222982f504aa1db7377ae6eb26ea3b8683df3a0be9d80c92152dbcd58cce7f4b1d862f21eee450a11c18a8fe44654e4d50a86fbf65b895ced2a82a452a524eade85812f665d3a0c5ba89967efc56fd4eb5c933a563f4465a87e15e3fb675969828c75fb39ec9fcaed719884796592c82f7c5653f466ac063f76e9a27d104e966f28fac54d1d01538b5a009263117675899903742b80d1b0cd765a8af12ed779c8b5297d101867257e892e076af86e9462b7fbe4152445571c68b45d147808da5afb7c4f8657d8bc944890b5ada4dbed607fffe63aae937c0756e6671ccbfc9be58e0044eee54c5a05b46da13fd5eec0b867c629161c5b2c0b69f81b1fb61b9248f02eb3346abbf7d33c6fa6d0bd39fc4612a58144fd673e820c1c94708fbba0d460df1f5ce68a976ccfd3512e68a910096ae5ab6f799ab764b7758a089aaa9dfec01cdc81a1c3ab"
      ],
      "sequence": 4294967294
    }
  ],
  "vout": [
    {
      "value": 499990.8479,
      "n": 0,
      "scriptPubKey": {
        "asm": "1 6302d4693db6797ac13f4dc29327ee8343bda8d368b24b9718e4261e0245c316",
        "hex": "51206302d4693db6797ac13f4dc29327ee8343bda8d368b24b9718e4261e0245c316",
        "reqSigs": 1,
        "type": "witness_v1_scripthash",
        "addresses": [
          "3QJmnh"
        ]
      }
    },
    {
      "value": 1.0,
      "n": 1,
      "scriptPubKey": {
        "asm": "OP_RETURN aad7c75162739d012028dfee9a9202145c140f418bc0768c3a7bc6d2c2c00d4b 5d7ddfc896c2fccca1cf0d46f4869691a089289054351172c47363cec47d81c27d5dffe8b6e2dcec81ef2d66d4a6b6b180a908b074153152e45343eee45da1e21d3d9f88d682bc8ce18f4d06b4c6d6d1e0c968d0147551328433238e843dc1823d1dbfa8f6a29cacc1af6d2694e6f6f1c0e948f034557112a41303aea41de1a2ddfd5f4816427c4c214f8dc6740616112009a810d4b591f244f3e34e44fd0142fddd7f6836625c6c016fade65426363100298830f495b1d264d3c36e64dd21629dbd1f0856023c0c610fcd86344656516049e85094f5d1b204b3a30e04bd4102bd9d3f2876221c2c412feda6146676714069c870b4d5f1922493832e249d61225d7ddfc896c2fccca1cf0d46f4869691a089289054351172c47363cec47d81c27d5dffe8b6e2dcec81ef2d66d4a6b6b180a908b074153152e45343eee45da1e21d3d9f88d682bc8ce18f4d06b4c6d6d1e0c968d0147551328433238e843dc1823d1dbfa8f6a29cacc1af6d2694e6f6f1c0e948f034557112a41303aea41de1a2ddfd5f4816427c4c214f8dc6740616112009a810d4b591f244f3e34e44fd0142fddd7f6836625c6c016fade65426363100298830f495b1d264d3c36e64dd21629dbd1f0856023c0c610fcd86344656516049e85094f5d1b204b3a30e04bd4102bd9d3f2876221c2c412feda6146676714069c870b4d5f1922493832e249d61225d7ddfc896c2fccca1cf0d46f4869691a089289054351172c47363cec47d81c27d5dffe8b6e2dcec81ef2d66d4a6b6b180a908b074153152e45343eee45da1e21d3d9f88d682bc8ce18f4d06b4c6d6d1e0c968d0147551328433238e843dc1823d1dbfa8f6a29cacc1af6d2694e6f6f1c0e948f034557112a41303aea41de1a2ddfd5f4816427c4c214f8dc6740616112009a810d4b591f244f3e34e44fd0142fddd7f6836625c6c016fade65426363100298830f495b1d264d3c36e64dd21629dbd1f0856023c0c610fcd86344656516049e85094f5d1b204b3a30e04bd4102bd9d3f2876221c2c412feda6146676714069c870b4d5f1922493832e249d61225d7ddfc896c2fccca1cf0d46f4869691a089289054351172c47363cec47d81c27d5dffe8b6e2dcec81ef2d66d4a6b6b180a908b074153152e45343eee45da1e21d3d9f88d682bc8ce18f4d06b4c6d6d1e0c968d0147551328433238e843dc1823d1dbfa8f6a29cacc1af6d2694e6f6f1c0e948f034557112a41303aea41de1a2ddfd5f4816427c4c214f8dc6740616112009a810d4b591f244f3e34e44fd0142fddd7f6836625c6c016fade65426363100298830f495b1d264d3c36e64dd21629dbd1f0856023c0c610fcd86344656516049e85094f5d1b204b3a30e04bd4102bd9d3f2876221c2c412feda6146676714069c870b4d5f1922493832e249d61225d7ddfc896c2fccca1cf0d46f4869691a089289054351172c47363cec47d81c27d5dffe8b6e2dcec81ef2d66d4a6b6b180a908b074153152e45343eee45da1e21d3d9f88d682bc8ce18f4d06b4c6d6d1e0c968d0147551328433238e843dc1823d1dbfa8f6a29cacc1af6d2694e6f6f1c0e948f034557112a41303aea41de1a2ddfd5f4816427c4c214f8dc674061611390531fc147bb5842ba65ca99626d66106b7878d5a9e5a803b1c62b4763d57c7",
        "hex": "6a20aad7c75162739d012028dfee9a9202145c140f418bc0768c3a7bc6d2c2c00d4b4db0045d7ddfc896c2fccca1cf0d46f4869691a089289054351172c47363cec47d81c27d5dffe8b6e2dcec81ef2d66d4a6b6b180a908b074153152e45343eee45da1e21d3d9f88d682bc8ce18f4d06b4c6d6d1e0c968d0147551328433238e843dc1823d1dbfa8f6a29cacc1af6d2694e6f6f1c0e948f034557112a41303aea41de1a2ddfd5f4816427c4c214f8dc6740616112009a810d4b591f244f3e34e44fd0142fddd7f6836625c6c016fade65426363100298830f495b1d264d3c36e64dd21629dbd1f0856023c0c610fcd86344656516049e85094f5d1b204b3a30e04bd4102bd9d3f2876221c2c412feda6146676714069c870b4d5f1922493832e249d61225d7ddfc896c2fccca1cf0d46f4869691a089289054351172c47363cec47d81c27d5dffe8b6e2dcec81ef2d66d4a6b6b180a908b074153152e45343eee45da1e21d3d9f88d682bc8ce18f4d06b4c6d6d1e0c968d0147551328433238e843dc1823d1dbfa8f6a29cacc1af6d2694e6f6f1c0e948f034557112a41303aea41de1a2ddfd5f4816427c4c214f8dc6740616112009a810d4b591f244f3e34e44fd0142fddd7f6836625c6c016fade65426363100298830f495b1d264d3c36e64dd21629dbd1f0856023c0c610fcd86344656516049e85094f5d1b204b3a30e04bd4102bd9d3f2876221c2c412feda6146676714069c870b4d5f1922493832e249d61225d7ddfc896c2fccca1cf0d46f4869691a089289054351172c47363cec47d81c27d5dffe8b6e2dcec81ef2d66d4a6b6b180a908b074153152e45343eee45da1e21d3d9f88d682bc8ce18f4d06b4c6d6d1e0c968d0147551328433238e843dc1823d1dbfa8f6a29cacc1af6d2694e6f6f1c0e948f034557112a41303aea41de1a2ddfd5f4816427c4c214f8dc6740616112009a810d4b591f244f3e34e44fd0142fddd7f6836625c6c016fade65426363100298830f495b1d264d3c36e64dd21629dbd1f0856023c0c610fcd86344656516049e85094f5d1b204b3a30e04bd4102bd9d3f2876221c2c412feda6146676714069c870b4d5f1922493832e249d61225d7ddfc896c2fccca1cf0d46f4869691a089289054351172c47363cec47d81c27d5dffe8b6e2dcec81ef2d66d4a6b6b180a908b074153152e45343eee45da1e21d3d9f88d682bc8ce18f4d06b4c6d6d1e0c968d0147551328433238e843dc1823d1dbfa8f6a29cacc1af6d2694e6f6f1c0e948f034557112a41303aea41de1a2ddfd5f4816427c4c214f8dc6740616112009a810d4b591f244f3e34e44fd0142fddd7f6836625c6c016fade65426363100298830f495b1d264d3c36e64dd21629dbd1f0856023c0c610fcd86344656516049e85094f5d1b204b3a30e04bd4102bd9d3f2876221c2c412feda6146676714069c870b4d5f1922493832e249d61225d7ddfc896c2fccca1cf0d46f4869691a089289054351172c47363cec47d81c27d5dffe8b6e2dcec81ef2d66d4a6b6b180a908b074153152e45343eee45da1e21d3d9f88d682bc8ce18f4d06b4c6d6d1e0c968d0147551328433238e843dc1823d1dbfa8f6a29cacc1af6d2694e6f6f1c0e948f034557112a41303aea41de1a2ddfd5f4816427c4c214f8dc674061611390531fc147bb5842ba65ca99626d66106b7878d5a9e5a803b1c62b4763d57c7",
        "type": "nulldata"
      }
    }
  ],
  "blockhash": "32a2d379a33ec88ae1cb3a8a1a44f2d12b76aebf574ecf7ac16b289397ed6cd9",
  "confirmations": 1,
  "time": 1764176557,
  "blocktime": 1764176557
}