{
  "hex": "01000000000101740de8cb4cb0d74cd3df6f448ca3c158c8d171c45248930c0b3ea0730478f5070100000000feffffff0200e1f50500000000fdd5046a20b40f34eb2f9c068c486634f6dbef45ca229fa440cec8eaaa007806c44ab6defd4db004f5fa5e70fa1f9b5713e9cc3f189bd8cb4c3d20283fb5f85320157d3046a5780ed5da7e50da3fbb7733c9ec1f38bbf8eb6c1d00081f95d87300355d106685582eb5ba1e30ba5fdb1753a98c7f58db988b0c7d60687ff5b81360553d7006e5384e959a3e109a7ffb377389ac5f78fbb8ab2c5d40485fd5983340751d5026c5186e757adef07a9f1bd793694cbf981b584bccbda0a8bf3578d3a095fdb0c625f88e555afed05abf3bf7b3496c9fb83b786bec9d80889f1558f380b5dd90e605d8ae353a9eb03adf5b97d3290cffd85b180b8cfde0e8ff753893e0d5bdf08665b8ce151abe901aff7bb7f3092cdff87b382bacddc0c8df5518b3c0f59dd0a64598eef5fa5e70fa1f9b5713e9cc3f189bd8cb4c3d20283fb5f85320157d3046a5780ed5da7e50da3fbb7733c9ec1f38bbf8eb6c1d00081f95d87300355d106685582eb5ba1e30ba5fdb1753a98c7f58db988b0c7d60687ff5b81360553d7006e5384e959a3e109a7ffb377389ac5f78fbb8ab2c5d40485fd5983340751d5026c5186e757adef07a9f1bd793694cbf981b584bccbda0a8bf3578d3a095fdb0c625f88e555afed05abf3bf7b3496c9fb83b786bec9d80889f1558f380b5dd90e605d8ae353a9eb03adf5b97d3290cffd85b180b8cfde0e8ff753893e0d5bdf08665b8ce151abe901aff7bb7f3092cdff87b382bacddc0c8df5518b3c0f59dd0a64598eef5fa5e70fa1f9b5713e9cc3f189bd8cb4c3d20283fb5f85320157d3046a5780ed5da7e50da3fbb7733c9ec1f38bbf8eb6c1d00081f95d87300355d106685582eb5ba1e30ba5fdb1753a98c7f58db988b0c7d60687ff5b81360553d7006e5384e959a3e109a7ffb377389ac5f78fbb8ab2c5d40485fd5983340751d5026c5186e757adef07a9f1bd793694cbf981b584bccbda0a8bf3578d3a095fdb0c625f88e555afed05abf3bf7b3496c9fb83b786bec9d80889f1558f380b5dd90e605d8ae353a9eb03adf5b97d3290cffd85b180b8cfde0e8ff753893e0d5bdf08665b8ce151abe901aff7bb7f3092cdff87b382bacddc0c8df5518b3c0f59dd0a64598eef5fa5e70fa1f9b5713e9cc3f189bd8cb4c3d20283fb5f85320157d3046a5780ed5da7e50da3fbb7733c9ec1f38bbf8eb6c1d00081f95d87300355d106685582eb5ba1e30ba5fdb1753a98c7f58db988b0c7d60687ff5b81360553d7006e5384e959a3e109a7ffb377389ac5f78fbb8ab2c5d40485fd5983340751d5026c5186e757adef07a9f1bd793694cbf981b584bccbda0a8bf3578d3a095fdb0c625f88e555afed05abf3bf7b3496c9fb83b786bec9d80889f1558f380b5dd90e605d8ae353a9eb03adf5b97d3290cffd85b180b8cfde0e8ff753893e0d5bdf08665b8ce151abe901aff7bb7f3092cdff87b382bacddc0c8df5518b3c0f59dd0a64598eef5fa5e70fa1f9b5713e9cc3f189bd8cb4c3d20283fb5f85320157d3046a5780ed5da7e50da3fbb7733c9ec1f38bbf8eb6c1d00081f95d87300355d106685582eb5ba1e30ba5fdb1753a98c7f58db988b0c7d60687ff5b81360553d7006e5384e959a3e109a7ffb377389ac5f78fbb8ab2c5d40485fd5983340751d5026c5186e757adef07a9f1bd793694cbf981b584bd5de974f1478cafb68c48466d5cc464ef830a4d98aa9612944ef738dcf53d1ea60cda5ea782d000022512057efe8c670274a20fcd663040807345e1c7ec556a9e3929429a110279b2ae84502fd7509dbcc5f2ba6a79c039522668b059b1937d7d3475a15448f6966d6358ebd9a2de29700236fb434189086d9420338e7083fb45877a16156a9335549d86f9846e0f2403b5df8a39ec3fe3695502572911207e37189223b517b4e8d671b99db6713c66d52cc1777961b9925d6cd6af0ca763499af31fe0fcf2913f757da2d4e22568bd12d5a13f2803d178485a6d8487d65f41326ce09832d4f227e961e7c9844811f3ad53ebd6149a6e0b0ec37b818e266d2d87f9f90754549c722a99d451a8f42dba77332ed4d6d84c0a382d99469a7fcef83130fa21bf7941ef5681dd2752f5bae6fa6a8c7a40aac322ce5bd5ff0414859b8bdc297ffc4dc2321ddcddb78e67ea57cd1c453cb2f13ce3dfc41b6d1732504e863ce80e85aeee9610f52b72acc182be0fc0e836d39973fd62132376464beb55132c988dab30687e75512d565755ac7f75feaea84302b59dd3975c6378de2a44a68b00105ff8b694e2d2474b898a8519f322547e36bba929f2d3c7eeaa943e5d292e91008f6a3d20bb389e4f8a8dc56642b05571720928f94e221a6c9b52339c138b6f724702d429e2ed1111c7b1def08d1b293188abbf8c65da1eaa563e9fcaf4b6117fc6223262bb7798b3af57c1cf7de5253600c52914380680721a0f5c903ebd73feb1b9bd04c04e2a9391c1c4a64e0c04baa87c387d3bf2c7320c40d393e6b4fd01f1dec755fa381e8388596b365ea6a94aabe7a3f94fcd00094625d4bf5c3abde9b4d678c187ddefdca3643e68281abbc503a49b75b202f50532255217fbbee04ed298bc480271ba279a4bf58869d053110c3cc86d919a0d556a06fcffd37a2c7eb6b01e1447469f422edd405c6f46bdd72369dc94aa53a4095c97c11c7803fb7365703738c9460cbe2d2542f0724986f4dc725ef3dee9fbe7918f0f7e1962f00e25672a31f39b5e9fce4254471403c37c9ab420b7baa21b4a99ce675391ddb16e7356ce412309f086fd61d340d88bd4aee2e926f3f921986346118c18bf9767644fab76f68b93638cee4c7b932c8c50cd7eed20eef22a9aa9db240a5a4bd03238b9196e4cecc8f210c8b00a2108df24ea5aff2bc2cf0a7444c0624a6ee92a0c5cb3fe2ef394a0c26943a5a5fdaee6f4912c9ea1f2ba319c8ac8133271c9357f2cbf40decbd1a81d4ad698f2a80da52ff249824e5026a2787d5837224fb213d2919c35fb64daa1fe0bdbab133ec5a56b14a2569a31d1e665a41eff75fd478e0eb1bbbf587a0bfb43e76b6258c226d012038178038e9f0d96be8ea01c326f5564d42510bf1dde05255ca4016c3faed54a21c44f2a3a4592557178740757bbaa8abd4fae56bdaba210b792d94c4daa85869f82dd92060dcb6c2a8ee212d6df9e88d80357949a378f2bd9f7f89101f4abf97f73423aadc2bfa832bebe80323382e46469bb1d55ba98b9d42513e00c7c1a9bf0ffc6ff3ebff32286bea9461fd3728691d82b6d99fe7ea6a14559c2e8a50b71b8700ef5bdde4e390f0a871668e07448968327f4bccb6ddd4ce39eb28fee87ce8aeaf61b1c7bb525ed1f277adb538d27f2a2b6dadd95d61fa344c962e26d95591be3a416bab14b0dbb8e7d5c09b37be96d842a2c4133b9eb21fc0658116bc13c64fc1a4078a8eaff5a085e89f70ad53f96a9679663c39975b50ca4dd0274f670a9a188d19499e580bdfb16a6012f3a92daf79d159b2b4f42d4da7c1d183c7c9d02ac38c9e5d9c08f1ed7dfb97fe80017aaabbd65e1e54f1e416f0adda575e947f7399596be2d624078bd2db798a529ba8450bfa760d8e5918143f284935445a36bffc3895db43ffd82ecf04f93d6d23f6e0f3594e117468ae855bb38046eccbf99f79714ce58230accb86077239343ed383633be70cd2d2cb1a73299b6af41811f412a474f9fb690d96b5835b8145cd23bc6b393417f1fe2dad537f097122826431fdba85b17219687179e04f0a4626d7a4fcb7fd468d1b7bed1c94da08fcd8f7c738de142e81ec07f164ce7850d70b4753cca65cdc54eb75e32234d072a9a3fb6c2c31e6569ba19dcd7220c3be78373bb164e225db528420784b5ef6e40f63c44cb6a0659fd049fe635ae47e851ac4256945701c1ce038c1462d6c14b1529c1d951f370157dcc6d3ec2220c3b12c64225a14b7c33297352e23f78b0848d99d10d9dbacb31b3fbfe41687c61a014cde00d7f6bd57bc3c3ea24e9b6ae3f0c21b9ad2c449c4270c80b389ff4c9671d5f6549b2e070de1434c6f0265f69ea7f087d63587847b15867004c769eba44e462b1fbcc464c53429ad8e8fedb55bfdf67080288c8b7e2b407009a4b623d9804a364b9327ddb9c46cff76b82d58e3f69572e73c1ac187dc152bcd1dc4c9baa3567dcc6bb3f23feca1575dea2192da91e595b94b296a39664fb6c81cb60d238c176f1815706e431a6e8fa0c596ba1b820608ae605e0f4933f010f32c3f4f42e4025db7eb2df9494c332302463586256fa0395a0d9c9a01550e48632482c7b5f1384e7b7f46d64b786f3beef624d7241ec089362451c426e2d84a7ade66cc6de6ace7782f7c12b2dc81c3484aaef8bf73d176d78f073a5150ece5f12f16331f2b0deb6be47325c6cf39004fb282c942909b20e27cd9f7476f775c19a5346b3f1e6a05639f651ecd203f9d3347f0537fd19c4be2fe582770d3761ca10ea92f78a7331c0b06cfe5213f759335269e25ce735f2d9cabc205fe244ed5e68651f7f8f3bd23194fce8510d4833ad1d5488f6fa2f5245e99b0f9780ac4c900d69f5f3e123f406647cec855dbc34eb300af0b2c61a3faf1a89f5339cdc929cbcc872d1039e68a1af10478c9df121d6e74f76f1da608812582109856f23a28e78066a763bdd8755f92292799759051c39564a93881b554ac33e4c35b4d28a9628a2124b982654f7efd4d55a6d426e1f0a02cb93f7e2edb1e78552c83b3efcdea9e3fa43b5eab3aa7f32f5e11872445038a365ebc7838e33a5c43b12918fc351a6881d847470bf0886c20d29c8c6184ca8fd86bea9866c3953dc008a94cdb248c8eaf46d025f8dc2a2faf3a959e1e33c917b09d41d717c3824d73e48e080c719c91cdba3421255e6b2c020978864a4a73b16ec731b7dc7aff756e1b14b600b0d775335b0950b568487afe1432a19dde73e470cd744eccb10a283dc20f75101bda318dbe600038608e3d45558c4b9f7e4e9650b99898855bb96499d27a2a6a06a7b03bbabf116219b6d80786902f9c087804d489b8c94a3c3536779fae6fa9d770a81d1e5fa5ce86ec2713aa9e650d38d92d3b10bb0942515a9ea0b0c7c9fe1d4550777fa8bbc6d0011a2c35415b9197a9adafc2c9cb273338545557606389acb7bfd5deeaebf40000000000000000000000000000000000000000000000000000000000000a13213201fd210500ad3722512e51acb0541750819a9737dd002e4df134fc9a7bb4be5e66eeb44834921984d6cacfc83d5fe0bfbf14402ea8763a2a2de2ac6fe39294e1614697ec36cb0048d2d5c5d9feacf0da213f0f161feaa5099b8e28888042412206a94d625976a073ef78e46ade2917991ce81bde4e4e76ff98f837be4b1559ab54ff18d8ed028055d42aebb7bd284d632d6c85f4897166fe543fae373448fd816dbdbbd05f7abe3984a8ca45ce79fe3131d9be8ed7e8fe1363405e212c2637a8a677c1762bb3bbb8229bb97238fa1395ffa66f14c2709b7d1ae677302f64fa6b0b892e575aff0739e63baf2c5a5a9a7090e50ea348727a5e8d9195c374b9bbb74ec2532200a835431f9910a01af2d38b68de8268176bb722049da5fd6c85d3c8f5c49d923a5cbd687ea416d22805e94110640ebdb2e2bf3541ca50bce323257cb5dcc9834edf56a56a17148d8cba10f16ed902689ad107fbb0a29e955db822b7622dc4cebee48920eea3e117a787f09e8e60d500b232e0e523b40dc339958faf3cf218cc10be5400191982e2cc2b3c692bc5b2a7b662c36520766ded5264181b5c0a63529cb8e23287ec1d45f2e5a99fd501722c7fc57611bd115c4c41dbd5be104c678a8b61c5d9c300d415994ecb8e475e16a48e8d06b944ba786727c8207cac3b7f6862efd42200f270bd72fbbcfea309511d70f856732ddffc9d12fb6734d43c75876a3adef788fb3ac1e03492cfc5689041a13029626b7f4898d28719d0785b07822d6423a90a87a6f621124f87e3310af4a1072c92b11514c3e189b28f0918254f4ea7cdac453e9b6f300bce9fc2c56f1b75304977bf5e6a57e44bdff5e906d98bd62875e46132f423f8fe49278b1cc551b24076705d9a5f36220d1d4d94b0e651828b8cb1e374fd539ab64430b69897bf0763c6b1822a79668d6b54f40325dd4bb1f5bb15dd45788ac52d6d67c9a567b1766f4918cab66d7639950c415c5ef5ef9d0376150ffdcf6a64a946cf54bead2e4430f765cddd7e279cd38975f56cddc1fa46cc3220010fb3623d902a443246e6e0754ecdfd8eb8ba384f79a66eee3a6ef0f8b311a2d7d588cfccc45c4534608f44f7f61bdeeb3e80f45c58d14636e5205f73e8aae086f0494810a612afafcfdcf624c6d2075481d7f0e9a06430d8f8a2096db6b808203aca86c592ebcefdf8b5bfa2a426f891cb7b4655b35334b9092ade4097d42c520e9c80a6195256cce55855b17fd7f3da51388397cf470d4ec92f9f470cad2a1f07315e881a90d956b74861a597701f6d61b6098bf2d4cc4a49928c0aa42322bfb7c16a3329c29990cd61a2b9000e44b3aa9f05a4111c6e0e5a18cc33009f81f18d0b90d57b216f28931db7f03d9668149f9bdfdff4000301a8ec620c163fa4b53ce40fa5b86b4b16a793a0b5c0d55aff01dfe34735cf5d5a4f67a26614e40ed361bdc3e5e33087e9a074849a533688c4f4909a47ff4c972c74dd92ed3537a1985923347a470b54e2ae0eff7867f7f8af95acc429fff1ab50f732a82bc684176757eedb34d85b33fc8f6886ccecbd633a4af834236f445d8a5fd3baa009097330568d18029841a40865afc6b1c84e0a5836869460a53bcae7ba31f0f87e0364ad07d4153291233191227eaf6f12f7f84b82bfe4d86c9453011fea28c61e17c0fba78df282524abc4df73b7081a21b8448fc6eb4d4d4a334f769d0250ff9927742accc36cb9a8a50ab4520c2f7ed6a74f4be860c32551a8558c66fd25f59b48ef3f63a4f479fe92647946e47d2d6707e7c3753bcab3df4f3802fa60ab16403e6e98713ac9feb0530a201297237fc1a77cf55d5294cf0f23e19f479d77c000000",
  "txid": "0b2e39440ae217400c25e508dbfe7d54e3df76b2adc472eeed4bab24ac5b8d4f",
  "hash": "3510425c987cd254f305037ba5f3451846ab9cc779f91584cfd76675cf457170",
  "size": 5085,
  "vsize": 2278,
  "version": 1,
  "locktime": 124,
  "vin": [
    {
      "txid": "07f5780473a03e0b0c934852c471d1c858c1a38c446fdfd34cd7b04ccbe80d74",
      "vout": 1,
      "scriptSig": {
        "asm": "",
        "hex": ""
      },
      "txinwitness": [
        "dbcc5f2ba6a79c039522668b059b1937d7d3475a15448f6966d6358ebd9a2de29700236fb434189086d9420338e7083fb45877a16156a9335549d86f9846e0f2403b5df8a39ec3fe3695502572911207e37189223b517b4e8d671b99db6713c66d52cc1777961b9925d6cd6af0ca763499af31fe0fcf2913f757da2d4e22568bd12d5a13f2803d178485a6d8487d65f41326ce09832d4f227e961e7c9844811f3ad53ebd6149a6e0b0ec37b818e266d2d87f9f90754549c722a99d451a8f42dba77332ed4d6d84c0a382d99469a7fcef83130fa21bf7941ef5681dd2752f5bae6fa6a8c7a40aac322ce5bd5ff0414859b8bdc297ffc4dc2321ddcddb78e67ea57cd1c453cb2f13ce3dfc41b6d1732504e863ce80e85aeee9610f52b72acc182be0fc0e836d39973fd62132376464beb55132c988dab30687e75512d565755ac7f75feaea84302b59dd3975c6378de2a44a68b00105ff8b694e2d2474b898a8519f322547e36bba929f2d3c7eeaa943e5d292e91008f6a3d20bb389e4f8a8dc56642b05571720928f94e221a6c9b52339c138b6f724702d429e2ed1111c7b1def08d1b293188abbf8c65da1eaa563e9fcaf4b6117fc6223262bb7798b3af57c1cf7de5253600c52914380680721a0f5c903ebd73feb1b9bd04c04e2a9391c1c4a64e0c04baa87c387d3bf2c7320c40d393e6b4fd01f1dec755fa381e8388596b365ea6a94aabe7a3f94fcd00094625d4bf5c3abde9b4d678c187ddefdca3643e68281abbc503a49b75b202f50532255217fbbee04ed298bc480271ba279a4bf58869d053110c3cc86d919a0d556a06fcffd37a2c7eb6b01e1447469f422edd405c6f46bdd72369dc94aa53a4095c97c11c7803fb7365703738c9460cbe2d2542f0724986f4dc725ef3dee9fbe7918f0f7e1962f00e25672a31f39b5e9fce4254471403c37c9ab420b7baa21b4a99ce675391ddb16e7356ce412309f086fd61d340d88bd4aee2e926f3f921986346118c18bf9767644fab76f68b93638cee4c7b932c8c50cd7eed20eef22a9aa9db240a5a4bd03238b9196e4cecc8f210c8b00a2108df24ea5aff2bc2cf0a7444c0624a6ee92a0c5cb3fe2ef394a0c26943a5a5fdaee6f4912c9ea1f2ba319c8ac8133271c9357f2cbf40decbd1a81d4ad698f2a80da52ff249824e5026a2787d5837224fb213d2919c35fb64daa1fe0bdbab133ec5a56b14a2569a31d1e665a41eff75fd478e0eb1bbbf587a0bfb43e76b6258c226d012038178038e9f0d96be8ea01c326f5564d42510bf1dde05255ca4016c3faed54a21c44f2a3a4592557178740757bbaa8abd4fae56bdaba210b792d94c4daa85869f82dd92060dcb6c2a8ee212d6df9e88d80357949a378f2bd9f7f89101f4abf97f73423aadc2bfa832bebe80323382e46469bb1d55ba98b9d42513e00c7c1a9bf0ffc6ff3ebff32286bea9461fd3728691d82b6d99fe7ea6a14559c2e8a50b71b8700ef5bdde4e390f0a871668e07448968327f4bccb6ddd4ce39eb28fee87ce8aeaf61b1c7bb525ed1f277adb538d27f2a2b6dadd95d61fa344c962e26d95591be3a416bab14b0dbb8e7d5c09b37be96d842a2c4133b9eb21fc0658116bc13c64fc1a4078a8eaff5a085e89f70ad53f96a9679663c39975b50ca4dd0274f670a9a188d19499e580bdfb16a6012f3a92daf79d159b2b4f42d4da7c1d183c7c9d02ac38c9e5d9c08f1ed7dfb97fe80017aaabbd65e1e54f1e416f0adda575e947f7399596be2d624078bd2db798a529ba8450bfa760d8e5918143f284935445a36bffc3895db43ffd82ecf04f93d6d23f6e0f3594e117468ae855bb38046eccbf99f79714ce58230accb86077239343ed383633be70cd2d2cb1a73299b6af41811f412a474f9fb690d96b5835b8145cd23bc6b393417f1fe2dad537f097122826431fdba85b17219687179e04f0a4626d7a4fcb7fd468d1b7bed1c94da08fcd8f7c738de142e81ec07f164ce7850d70b4753cca65cdc54eb75e32234d072a9a3fb6c2c31e6569ba19dcd7220c3be78373bb164e225db528420784b5ef6e40f63c44cb6a0659fd049fe635ae47e851ac4256945701c1ce038c1462d6c14b1529c1d951f370157dcc6d3ec2220c3b12c64225a14b7c33297352e23f78b0848d99d10d9dbacb31b3fbfe41687c61a014cde00d7f6bd57bc3c3ea24e9b6ae3f0c21b9ad2c449c4270c80b389ff4c9671d5f6549b2e070de1434c6f0265f69ea7f087d63587847b15867004c769eba44e462b1fbcc464c53429ad8e8fedb55bfdf67080288c8b7e2b407009a4b623d9804a364b9327ddb9c46cff76b82d58e3f69572e73c1ac187dc152bcd1dc4c9baa3567dcc6bb3f23feca1575dea2192da91e595b94b296a39664fb6c81cb60d238c176f1815706e431a6e8fa0c596ba1b820608ae605e0f4933f010f32c3f4f42e4025db7eb2df9494c332302463586256fa0395a0d9c9a01550e48632482c7b5f1384e7b7f46d64b786f3beef624d7241ec089362451c426e2d84a7ade66cc6de6ace7782f7c12b2dc81c3484aaef8bf73d176d78f073a5150ece5f12f16331f2b0deb6be47325c6cf39004fb282c942909b20e27cd9f7476f775c19a5346b3f1e6a05639f651ecd203f9d3347f0537fd19c4be2fe582770d3761ca10ea92f78a7331c0b06cfe5213f759335269e25ce735f2d9cabc205fe244ed5e68651f7f8f3bd23194fce8510d4833ad1d5488f6fa2f5245e99b0f9780ac4c900d69f5f3e123f406647cec855dbc34eb300af0b2c61a3faf1a89f5339cdc929cbcc872d1039e68a1af10478c9df121d6e74f76f1da608812582109856f23a28e78066a763bdd8755f92292799759051c39564a93881b554ac33e4c35b4d28a9628a2124b982654f7efd4d55a6d426e1f0a02cb93f7e2edb1e78552c83b3efcdea9e3fa43b5eab3aa7f32f5e11872445038a365ebc7838e33a5c43b12918fc351a6881d847470bf0886c20d29c8c6184ca8fd86bea9866c3953dc008a94cdb248c8eaf46d025f8dc2a2faf3a959e1e33c917b09d41d717c3824d73e48e080c719c91cdba3421255e6b2c020978864a4a73b16ec731b7dc7aff756e1b14b600b0d775335b0950b568487afe1432a19dde73e470cd744eccb10a283dc20f75101bda318dbe600038608e3d45558c4b9f7e4e9650b99898855bb96499d27a2a6a06a7b03bbabf116219b6d80786902f9c087804d489b8c94a3c3536779fae6fa9d770a81d1e5fa5ce86ec2713aa9e650d38d92d3b10bb0942515a9ea0b0c7c9fe1d4550777fa8bbc6d0011a2c35415b9197a9adafc2c9cb273338545557606389acb7bfd5deeaebf40000000000000000000000000000000000000000000000000000000000000a13213201",
        "00ad3722512e51acb0541750819a9737dd002e4df134fc9a7bb4be5e66eeb44834921984d6cacfc83d5fe0bfbf14402ea8763a2a2de2ac6fe39294e1614697ec36cb0048d2d5c5d9feacf0da213f0f161feaa5099b8e28888042412206a94d625976a073ef78e46ade2917991ce81bde4e4e76ff98f837be4b1559ab54ff18d8ed028055d42aebb7bd284d632d6c85f4897166fe543fae373448fd816dbdbbd05f7abe3984a8ca45ce79fe3131d9be8ed7e8fe1363405e212c2637a8a677c1762bb3bbb8229bb97238fa1395ffa66f14c2709b7d1ae677302f64fa6b0b892e575aff0739e63baf2c5a5a9a7090e50ea348727a5e8d9195c374b9bbb74ec2532200a835431f9910a01af2d38b68de8268176bb722049da5fd6c85d3c8f5c49d923a5cbd687ea416d22805e94110640ebdb2e2bf3541ca50bce323257cb5dcc9834edf56a56a17148d8cba10f16ed902689ad107fbb0a29e955db822b7622dc4cebee48920eea3e117a787f09e8e60d500b232e0e523b40dc339958faf3cf218cc10be5400191982e2cc2b3c692bc5b2a7b662c36520766ded5264181b5c0a63529cb8e23287ec1d45f2e5a99fd501722c7fc57611bd115c4c41dbd5be104c678a8b61c5d9c300d415994ecb8e475e16a48e8d06b944ba786727c8207cac3b7f6862efd42200f270bd72fbbcfea309511d70f856732ddffc9d12fb6734d43c75876a3adef788fb3ac1e03492cfc5689041a13029626b7f4898d28719d0785b07822d6423a90a87a6f621124f87e3310af4a1072c92b11514c3e189b28f0918254f4ea7cdac453e9b6f300bce9fc2c56f1b75304977bf5e6a57e44bdff5e906d98bd62875e46132f423f8fe49278b1cc551b24076705d9a5f36220d1d4d94b0e651828b8cb1e374fd539ab64430b69897bf0763c6b1822a79668d6b54f40325dd4bb1f5bb15dd45788ac52d6d67c9a567b1766f4918cab66d7639950c415c5ef5ef9d0376150ffdcf6a64a946cf54bead2e4430f765cddd7e279cd38975f56cddc1fa46cc3220010fb3623d902a443246e6e0754ecdfd8eb8ba384f79a66eee3a6ef0f8b311a2d7d588cfccc45c4534608f44f7f61bdeeb3e80f45c58d14636e5205f73e8aae086f0494810a612afafcfdcf624c6d2075481d7f0e9a06430d8f8a2096db6b808203aca86c592ebcefdf8b5bfa2a426f891cb7b4655b35334b9092ade4097d42c520e9c80a6195256cce55855b17fd7f3da51388397cf470d4ec92f9f470cad2a1f07315e881a90d956b74861a597701f6d61b6098bf2d4cc4a49928c0aa42322bfb7c16a3329c29990cd61a2b9000e44b3aa9f05a4111c6e0e5a18cc33009f81f18d0b90d57b216f28931db7f03d9668149f9bdfdff4000301a8ec620c163fa4b53ce40fa5b86b4b16a793a0b5c0d55aff01dfe34735cf5d5a4f67a26614e40ed361bdc3e5e33087e9a074849a533688c4f4909a47ff4c972c74dd92ed3537a1985923347a470b54e2ae0eff7867f7f8af95acc429fff1ab50f732a82bc684176757eedb34d85b33fc8f6886ccecbd633a4af834236f445d8a5fd3baa009097330568d18029841a40865afc6b1c84e0a5836869460a53bcae7ba31f0f87e0364ad07d4153291233191227eaf6f12f7f84b82bfe4d86c9453011fea28c61e17c0fba78df282524abc4df73b7081a21b8448fc6eb4d4d4a334f769d0250ff9927742accc36cb9a8a50ab4520c2f7ed6a74f4be860c32551a8558c66fd25f59b48ef3f63a4f479fe92647946e47d2d6707e7c3753bcab3df4f3802fa60ab16403e6e98713ac9feb0530a201297237fc1a77cf55d5294cf0f23e19f479d7"
      ],
      "sequence": 4294967294
    }
  ],
  "vout": [
    {
      "value": 1.0,
      "n": 0,
      "scriptPubKey": {
        "asm": "OP_RETURN b40f34eb2f9c068c486634f6dbef45ca229fa440cec8eaaa007806c44ab6defd f5fa5e70fa1f9b5713e9cc3f189bd8cb4c3d20283fb5f85320157d3046a5780ed5da7e50da3fbb7733c9ec1f38bbf8eb6c1d00081f95d87300355d106685582eb5ba1e30ba5fdb1753a98c7f58db988b0c7d60687ff5b81360553d7006e5384e959a3e109a7ffb377389ac5f78fbb8ab2c5d40485fd5983340751d5026c5186e757adef07a9f1bd793694cbf981b584bccbda0a8bf3578d3a095fdb0c625f88e555afed05abf3bf7b3496c9fb83b786bec9d80889f1558f380b5dd90e605d8ae353a9eb03adf5b97d3290cffd85b180b8cfde0e8ff753893e0d5bdf08665b8ce151abe901aff7bb7f3092cdff87b382bacddc0c8df5518b3c0f59dd0a64598eef5fa5e70fa1f9b5713e9cc3f189bd8cb4c3d20283fb5f85320157d3046a5780ed5da7e50da3fbb7733c9ec1f38bbf8eb6c1d00081f95d87300355d106685582eb5ba1e30ba5fdb1753a98c7f58db988b0c7d60687ff5b81360553d7006e5384e959a3e109a7ffb377389ac5f78fbb8ab2c5d40485fd5983340751d5026c5186e757adef07a9f1bd793694cbf981b584bccbda0a8bf3578d3a095fdb0c625f88e555afed05abf3bf7b3496c9fb83b786bec9d80889f1558f380b5dd90e605d8ae353a9eb03adf5b97d3290cffd85b180b8cfde0e8ff753893e0d5bdf08665b8ce151abe901aff7bb7f3092cdff87b382bacddc0c8df5518b3c0f59dd0a64598eef5fa5e70fa1f9b5713e9cc3f189bd8cb4c3d20283fb5f85320157d3046a5780ed5da7e50da3fbb7733c9ec1f38bbf8eb6c1d00081f95d87300355d106685582eb5ba1e30ba5fdb1753a98c7f58db988b0c7d60687ff5b81360553d7006e5384e959a3e109a7ffb377389ac5f78fbb8ab2c5d40485fd5983340751d5026c5186e757adef07a9f1bd793694cbf981b584bccbda0a8bf3578d3a095fdb0c625f88e555afed05abf3bf7b3496c9fb83b786bec9d80889f1558f380b5dd90e605d8ae353a9eb03adf5b97d3290cffd85b180b8cfde0e8ff753893e0d5bdf08665b8ce151abe901aff7bb7f3092cdff87b382bacddc0c8df5518b3c0f59dd0a64598eef5fa5e70fa1f9b5713e9cc3f189bd8cb4c3d20283fb5f85320157d3046a5780ed5da7e50da3fbb7733c9ec1f38bbf8eb6c1d00081f95d87300355d106685582eb5ba1e30ba5fdb1753a98c7f58db988b0c7d60687ff5b81360553d7006e5384e959a3e109a7ffb377389ac5f78fbb8ab2c5d40485fd5983340751d5026c5186e757adef07a9f1bd793694cbf981b584bccbda0a8bf3578d3a095fdb0c625f88e555afed05abf3bf7b3496c9fb83b786bec9d80889f1558f380b5dd90e605d8ae353a9eb03adf5b97d3290cffd85b180b8cfde0e8ff753893e0d5bdf08665b8ce151abe901aff7bb7f3092cdff87b382bacddc0c8df5518b3c0f59dd0a64598eef5fa5e70fa1f9b5713e9cc3f189bd8cb4c3d20283fb5f85320157d3046a5780ed5da7e50da3fbb7733c9ec1f38bbf8eb6c1d00081f95d87300355d106685582eb5ba1e30ba5fdb1753a98c7f58db988b0c7d60687ff5b81360553d7006e5384e959a3e109a7ffb377389ac5f78fbb8ab2c5d40485fd5983340751d5026c5186e757adef07a9f1bd793694cbf981b584bd5de974f1478cafb68c48466d5cc464ef830a4d98aa9612944ef738dcf53d1ea",
        "hex": "6a20b40f34eb2f9c068c486634f6dbef45ca229fa440cec8eaaa007806c44ab6defd4db004f5fa5e70fa1f9b5713e9cc3f189bd8cb4c3d20283fb5f85320157d3046a5780ed5da7e50da3fbb7733c9ec1f38bbf8eb6c1d00081f95d87300355d106685582eb5ba1e30ba5fdb1753a98c7f58db988b0c7d60687ff5b81360553d7006e5384e959a3e109a7ffb377389ac5f78fbb8ab2c5d40485fd5983340751d5026c5186e757adef07a9f1bd793694cbf981b584bccbda0a8bf3578d3a095fdb0c625f88e555afed05abf3bf7b3496c9fb83b786bec9d80889f1558f380b5dd90e605d8ae353a9eb03adf5b97d3290cffd85b180b8cfde0e8ff753893e0d5bdf08665b8ce151abe901aff7bb7f3092cdff87b382bacddc0c8df5518b3c0f59dd0a64598eef5fa5e70fa1f9b5713e9cc3f189bd8cb4c3d20283fb5f85320157d3046a5780ed5da7e50da3fbb7733c9ec1f38bbf8eb6c1d00081f95d87300355d106685582eb5ba1e30ba5fdb1753a98c7f58db988b0c7d60687ff5b81360553d7006e5384e959a3e109a7ffb377389ac5f78fbb8ab2c5d40485fd5983340751d5026c5186e757adef07a9f1bd793694cbf981b584bccbda0a8bf3578d3a095fdb0c625f88e555afed05abf3bf7b3496c9fb83b786bec9d80889f1558f380b5dd90e605d8ae353a9eb03adf5b97d3290cffd85b180b8cfde0e8ff753893e0d5bdf08665b8ce151abe901aff7bb7f3092cdff87b382bacddc0c8df5518b3c0f59dd0a64598eef5fa5e70fa1f9b5713e9cc3f189bd8cb4c3d20283fb5f85320157d3046a5780ed5da7e50da3fbb7733c9ec1f38bbf8eb6c1d00081f95d87300355d106685582eb5ba1e30ba5fdb1753a98c7f58db988b0c7d60687ff5b81360553d7006e5384e959a3e109a7ffb377389ac5f78fbb8ab2c5d40485fd5983340751d5026c5186e757adef07a9f1bd793694cbf981b584bccbda0a8bf3578d3a095fdb0c625f88e555afed05abf3bf7b3496c9fb83b786bec9d80889f1558f380b5dd90e605d8ae353a9eb03adf5b97d3290cffd85b180b8cfde0e8ff753893e0d5bdf08665b8ce151abe901aff7bb7f3092cdff87b382bacddc0c8df5518b3c0f59dd0a64598eef5fa5e70fa1f9b5713e9cc3f189bd8cb4c3d20283fb5f85320157d3046a5780ed5da7e50da3fbb7733c9ec1f38bbf8eb6c1d00081f95d87300355d106685582eb5ba1e30ba5fdb1753a98c7f58db988b0c7d60687ff5b81360553d7006e5384e959a3e109a7ffb377389ac5f78fbb8ab2c5d40485fd5983340751d5026c5186e757adef07a9f1bd793694cbf981b584bccbda0a8bf3578d3a095fdb0c625f88e555afed05abf3bf7b3496c9fb83b786bec9d80889f1558f380b5dd90e605d8ae353a9eb03adf5b97d3290cffd85b180b8cfde0e8ff753893e0d5bdf08665b8ce151abe901aff7bb7f3092cdff87b382bacddc0c8df5518b3c0f59dd0a64598eef5fa5e70fa1f9b5713e9cc3f189bd8cb4c3d20283fb5f85320157d3046a5780ed5da7e50da3fbb7733c9ec1f38bbf8eb6c1d00081f95d87300355d106685582eb5ba1e30ba5fdb1753a98c7f58db988b0c7d60687ff5b81360553d7006e5384e959a3e109a7ffb377389ac5f78fbb8ab2c5d40485fd5983340751d5026c5186e757adef07a9f1bd793694cbf981b584bd5de974f1478cafb68c48466d5cc464ef830a4d98aa9612944ef738dcf53d1ea",
        "type": "nulldata"
      }
    },
    {
      "value": 499973.5606,
      "n": 1,
      "scriptPubKey": {
        "asm": "1 57efe8c670274a20fcd663040807345e1c7ec556a9e3929429a110279b2ae845",
        "hex": "512057efe8c670274a20fcd663040807345e1c7ec556a9e3929429a110279b2ae845",
        "reqSigs": 1,
        "type": "witness_v1_scripthash",
        "addresses": [
          "3QJmnh"
        ]
      }
    }
  ],
  "blockhash": "fe93069f37b49cfb15542a42b300d4e9dc573fdbbe6c5d081907ef62d551896a",
  "confirmations": 1,
  "time": 1764180962,
  "blocktime": 1764180962
}