{
  "hex": "0100000000010105aa71d329276726ec220ed822f15ab3a3e38804f497e0cbea568092a1e08a7e0000000000feffffff0280cbbf57792d0000225120418f3e8ad20be865d3fc236bb1b49fb2c4a890a4cdeb2d66a1752b30f978996a00e1f50500000000fdd5046a203dc00901fed5ef3cec7556aa32cf3ce3ffe047c695aa131e44fa060e7e3f84b74db004bfb43e30d98bd7b2c3d9a9bdfc51393b725176b4c72b27d6e0183549ddd43dea9f941e10f9abf792e3f9899ddc71191b52715694e70b07f6c0381569fdf41dcafff47e7099cb97f28399e9fdbc11797b321136f4876b6796a05875099d947daadfd45e50b9ebb7d2a3b9c9dd9c31595b123116d4a74b47b680785529bdb45d8a3f34beb0590b57324359293d7cd1b9bbf2d1f63447aba7566098b5c95d54bd6a1f149e90792b77126379091d5cf1999bd2f1d614678b877640b895e97d749d4a7f74fef0194b17720319697d3c91f9fbb291b67407ebe71620d8f5891d14fd2a5f54ded0396b37522339495d1cb1d9db92b1965427cbc73600f8d5a93d34dd0abfb43e30d98bd7b2c3d9a9bdfc51393b725176b4c72b27d6e0183549ddd43dea9f941e10f9abf792e3f9899ddc71191b52715694e70b07f6c0381569fdf41dcafff47e7099cb97f28399e9fdbc11797b321136f4876b6796a05875099d947daadfd45e50b9ebb7d2a3b9c9dd9c31595b123116d4a74b47b680785529bdb45d8a3f34beb0590b57324359293d7cd1b9bbf2d1f63447aba7566098b5c95d54bd6a1f149e90792b77126379091d5cf1999bd2f1d614678b877640b895e97d749d4a7f74fef0194b17720319697d3c91f9fbb291b67407ebe71620d8f5891d14fd2a5f54ded0396b37522339495d1cb1d9db92b1965427cbc73600f8d5a93d34dd0abfb43e30d98bd7b2c3d9a9bdfc51393b725176b4c72b27d6e0183549ddd43dea9f941e10f9abf792e3f9899ddc71191b52715694e70b07f6c0381569fdf41dcafff47e7099cb97f28399e9fdbc11797b321136f4876b6796a05875099d947daadfd45e50b9ebb7d2a3b9c9dd9c31595b123116d4a74b47b680785529bdb45d8a3f34beb0590b57324359293d7cd1b9bbf2d1f63447aba7566098b5c95d54bd6a1f149e90792b77126379091d5cf1999bd2f1d614678b877640b895e97d749d4a7f74fef0194b17720319697d3c91f9fbb291b67407ebe71620d8f5891d14fd2a5f54ded0396b37522339495d1cb1d9db92b1965427cbc73600f8d5a93d34dd0abfb43e30d98bd7b2c3d9a9bdfc51393b725176b4c72b27d6e0183549ddd43dea9f941e10f9abf792e3f9899ddc71191b52715694e70b07f6c0381569fdf41dcafff47e7099cb97f28399e9fdbc11797b321136f4876b6796a05875099d947daadfd45e50b9ebb7d2a3b9c9dd9c31595b123116d4a74b47b680785529bdb45d8a3f34beb0590b57324359293d7cd1b9bbf2d1f63447aba7566098b5c95d54bd6a1f149e90792b77126379091d5cf1999bd2f1d614678b877640b895e97d749d4a7f74fef0194b17720319697d3c91f9fbb291b67407ebe71620d8f5891d14fd2a5f54ded0396b37522339495d1cb1d9db92b1965427cbc73600f8d5a93d34dd0abfb43e30d98bd7b2c3d9a9bdfc51393b725176b4c72b27d6e0183549ddd43dea9f941e10f9abf792e3f9899ddc71191b52715694e70b07f6c0381569fdf41dcafff47e7099cb97f28399e9fdbc11797b321136f4876b6796a05875099d947daadfd45e50b9ebb7d2a3b9c9dd9c31595b123116d4a74b47b680785529bdb45d8a3f34beb0590b57324359293d7cd1b9bbad14dbcdeb73f8f1f446cf651b4068427d3684fd62cd07999a042908704f90b702fd75097782e6d9f5925ef82bcace0ac307eb74e1c81c6517698266bf5ca1e855d644f0d31334f1c5fe91f31b6565ec1958367686b73d30441a14db36b11e7f1fbeae7f398c06415edf8cfa8ff1113855986a446d589582c5789154c8f8071f5676102681700dff183ce8710afe89eb2e667ac35c7892c2bab8203cd703416d7bef6c0dd7cbd7ffa6d630587405adab5bbf2c3801394afb74034e109537e082130dad44bc93b58cfb6bfd572e184ffe1d4545833bc0195191ae1ba5326e6629345226c14e39ea81e99a9826f131b0025147146a184afdd61ea90b8642677f3048a3c395e9d6e028a5246ad8c549a2a56cd506a1a7525c254c507d2e849427c26a640fa9811f7a72f03e2b612ae31bd72fdf882ade3dc93bc7c5e36f7fbb168e4eaf503e2682c45fba26e42675ad10169b47d958db7d3d7a7753075d08029b5f9f243acdbee4cdffcc4958f4d0ee4f8dab46cc931b24414039e869ddbd833a2f03709529b38051635591276de01a89c3049c4e7d569e9fce90241d28197650f4441a7bc875de16f604fb10fc1a82a0e16de4f115fc14d717b139d859205cfb342acd9a6df6914d82d316a3f11654cf84d50cc112da7f6d8fb409888696be1bd271c2e64dd249f3b8fe0ee1278ffcbd955342af38e061e2ff634c4a49fc32a01990e2e5ea3ce9592f9eca2f34880561db5939db5758b7704bbe563c2277ae2fc904d26d62de3b38382ef3b4fe45890b70a6a7dfe96965f33ae2c9f1b436fcdfc7acc569c049c60e07986df6dc7c8328cc602df65a7a1e389ef9de6dcb90204dc14318336e2ede02f2dbe517d9b800bcdc884898c71731f15b58e553b79f970cedbfedbd938252f548fb0fde4ab8bd7894eaf077cacbd81b04585efff9c248b94cd35c5be1d53823246932b9806404ccabb27a02921ed95ab273ae81d924e9fe619e6993e012a81814e4e925daa34de89fb3b27214f736cef8bf7268e499af5d5e44e00d57dd6c846167bb66dc48ee3e1c7eda6122e0a568f697f21175671473d7490fb04f76c416e18b92d559bbde0d3b4ee74a439e7035ea32a7d01cdef435ad442c219504755ff844eadfc3c6bd8723768a57fb234d74146929a2a0fc52972a187e94454427dc63742aa0cdd8c900acb87e9c2040f4a9860d1400064cc69cb9b3406fed96e7befdcf744c353a29c0cd10d003ce7ded47396e5968d9c88967840e02205ece17216d1fcc5a1be0c434fb76e6bcd3f3cd4dea9949512058f4ea3c524871f2cd0aea0cfdfd765ee192e3b5373cccd2bcc36901ad7c46aa85b9ce2945df86c4acf62e1b52d943c33bd440d911ecbc175e9033056918be3187bd9c4fa1f19f437de2145f165682f903f6a583c9fc57e383e6e85cbea224be873c72ccf48a535c54361a39188f61190f619c996db60b341a25d9dea8921adaf63721d3148b3d871cdd7ad744a9d459293de02d01081817ebac1b455035ea6a956cecd36bc81dd0abfd0e6919813307cf43737ac91f366387628a26b9f17190fc2e0afc609808b008f538e24f960d44c888d26a255415701392d629b96faa29f1d5c4659d60c20fd08e6b715a41f38952bf51e86f337217ff886af20e6f9aa8e794b0934edcd23e92dff1bd70206fcd5cf9400a515501f548fc224c760722ddaf87f4c3b05f36e65b1f0aee221ea36597602856991195fb88ff45b803ab3e719c7750f5867f01365cc07086031792a5d006c5ab038b31e6ec559dd10d66c71cb0a499d34477c386efa0c0a07d52d826880e529fa0051c88a719cecbc4b050d7c8ed08caf17eef992cf7430b401e67e7194fba4295faa88efcaec168bd10080641f066e41b57ec5305c9ebbb04af0f719e1eb2ef2e2aa0f81ebade4c3d67397fe413124dbdbb216ae9d60a433f643f1815f81f6906a4b47a17c4c722c321fb78276f7610aa1259e114ae1dbb5ab8620aedab1db9a4db17fef136bc66549fc571110e7e8233d7671715251314cdb4556ff1e19b18238529db4a593127dfcac82957e51b311d83cf6245da61b9b1e9dec089a8ba00d0cfbdca413982d07694da74279c04f3209f7a514bd8589247accb601e840ae3b91fcde0609e87ee774c1086ee133d00d0e4281fc75a03047bb66591654d48aba06a519d6e6af41463ec0924a4de8dd47601723c05616e5e187aa50847a82577da17533160142a5a9c3dd6f2e5b89a68f7469d8450babd502a0e202a7138b5dc5545a08d4bfa80eb34dcdae5716198b16c0f407df36ae13dfdf80455a44dc1133b9ea21c077029cb4adc84ac13f16408f3f77ef6cc7ecd20af53dd5a63177ee98f66284b0cb02484e5ce54bdeff9691191c86f928773380e6279b70f2dc7b0f9013f77e1f53959eca7ff761d1b1ff8a4c093587e44ca83216d1af8cc310031edf0a639d8040dd147a530c108d6a9f613295c37ac9c91ad5fdb86a5b7c9aa8eeeb5a2e61b1b22c1e8a8e5e22e582fdf7cd3829501e17a5f50c1ebd13d4398699e9cc18d8d9021ede1ff787d8f2aadec2dcc76a3d43f284a8ced7b8ff2db26c7c559e0e3b1f9d3cdddce21501720a4bcc41c2c600ec7da02c41cb3ff2c285d546d997fdf02d7a51985c284163785f998c0eb64fb1b41805416bc928279b5e4bed3de00d8f2f18544da2cf7aa7734a157c1b6fe671bc9ebec6fbe0b683f27722cb32e31aa8a0a17fc6febcf9fe967acfb095a8edbb592ee666739d542752ccdad8d88052ebd70bf1514a912e1d09c55e1e56e7453473ee6237765b23ff2ea04edcd39ab9f4efeafbe387b87065e7aefa88b03e62c607a5559db3258e323c0b7aa97b213f062a46bc9cae8744bf3478e0d4574dec02718308a24a5e501781c95687b44043ef685f422ec66bae0a0bb7135ac110f562881c6aefb888e649711774481ef74b91ce7e9f53f66bd46a5d80e2bf51d6c452b7404900a5e45e92fb218490c4c715293179576153c3337bb0661253725d34436387b2942cde23b0be05332a3bc3f8a6e0f0e590b6267759a6053042371218c98aa8e32f1712b9c6277bde333cf81c2684a2f7d75f8d47e7d6dc827595aed029fb06f3c19fb0ae44084ba9b165a302029b5e7ffacdd172ed7c0588d30731b9c243186299453ecfdcc10b126eb69ab1f2359cc27265cfd6cc38a44869ec735cd81e755bdc3fedcdbe34a4052ef72de26e9d4f006d1f00cb2db1a22dd6ab03f99bf6eac8597ec1d563134fd848ff488a92482b54c6e194249058c28edb63c683e17444c8deee6f3435e457b7b52c312f25c9544972750c5058154d309f9402da83c061b273d405069a4aab5c0c2cde1edf6fc0f1121313a3c4462828485879799a5a6adbac6edf4fb1e344f5a6b7386889ca4d0d602575e8b9baee1f5fb00000000000000000000000000000000000000001127333c01fd210500f2d35e048ff1aa2f6d3b35d24b403de55dc1390da102d5b187549c271eee3c6d9b032cd9d13a9a3cf4501ba183465e13efaf5024e5911053f70af72b7a56d6c1895008f4ffc248173b646bdfc15806eb2c03e16acbd235216554826b08171ea889cf0d7eb6d5c1faa4981f9af1fbebce8a4fa9a6bd7f24e5579a93ceb372460bdb5f057b94d0e218dd500b4a71d8d2dbd13b65b31ec77c74360466d362632b942d1315b18ebdc21589c79d8535ce833d4b79aa33cd3766211fdd2220eca1cae9de46a3c0b36349eb32ad4ea8d9f44d103e92a5d48a1ae301d99392c3534647e0f0e69dccb887fe91ab8965152a89ecd7c166773765fef5d97b083245a568d2d83e764a392491677be46d0916ff755e09d388ab5605f8bdea0d400d5e0858012d83b55b2afe6b156ecff4ccda8408650eee455a7751ee42e21984f74a27e7c3717c8d591994361441b57b4a96ef95dd2b63b0f7b167e7a25f3de9d31d40f8350a00fd75b0333344b6a22bb1220077aafbb49aff30e59a0dc39029770289dfc6a3f68a33618ecb901e7ffb93bb869ae841d33d51a0ab06bdb20918932fc095cd2d529b1dd8bd7bebac74131f13164df3d003a01d35c6aa87cba8c29a780bfe76d9a3dadab16b8cef709ed4d787e557debf0c47c24898ec1eda3f20a7172411af277f806ea38b3b19d3048d86789f98ab05d070e4143f0703360bd213d0a0b445fbba0ec6d33508fe0894fb3a523d5bdc60508947e8a5771ffd3d488b3a2ff6ed21d242ebdbf2bb943fc75cef74a6d2d8d9f213a27efd0599870b304f78fd4884d3c13b43a6c0384b782bd3f0a1411acec356745791dabd27359e223d5c390fa0e1d6d7fbc978987839a2a29f66e7900d87fbdf5cb3b48576acb7fa4ee9ace428381055a03d3a7bc7a24478f72acb7debad27c743220406487207193b36eb54a1c9ee0604340bb5d330ca68306b762103ffa40733d6b8b30b6d2444a2779a4d7ab62d03a8773938e48268798c2911b430d197afd94681707bb35f38eeb1e5ff292fc4b0a6742ecf359436d36a3d12219b69d52eafcda0dc0bf3984924e2e1555ef60d0fbbf868f35fd9a168229c6c16ec7362d684c77e845b0452e6920226d2577b6dec5a4813d58fd8ee9e0e3d7307c4138db9823aec146bf0c8084714ca79c8e79f7d7a1df600936bb69e731bb23f0feec48fb0aad5cd8f4789509c7e9e5ea920eabd3d3b77d820295b15774fdf7421fe2aaf5fc3df2b4ddf7dc7ffc1659aaabb37573cb7c8c1671d18f84f1c145a81d18c0d1dfce370096238c131e30b5d61f51243e177a92937d368199334fd31737e9783533fad7e1a73801517e1456e0383ed311af39683ac2b6df521a93c939169b5bf303db47fad479683fd9aa1f000bbdede0fc3d1e45d87a0e7ab233c0389c3f6d48fa5991619c01649b1b0b4175da398506d6dfb827a4fa4d48ae494f3076e97ceaefc0e143504b0efb6e5347b4a7a1381de4130dca44b7fda776fff93da12d17c4e74994b00620cf998a308919f754c40ae812bdb514b0202707ad8084acea3a9cc660c54422c61094c3eb081f9226b5fee5189ceb3dd3821980eaf498e6fb56ffa88a17364278af633bb39ec325d464329cb48922236264ba542b6da8a80676eb42f070eabd0c530a660d98cd09422afae558a91b7b291ebfcb2dfc5bb448f6e56675c32299fb132a660f7554831f19c77b41e2c0e07e24856bbecca47d68e4c30b7a6b907bcefb0ec3eeab093dc7e78648f0b4a9894b24b671e5fe5ed16818c37be9317a9293b8b7de311dda15dbd4396f40c8f3533180fa33e6d34e390fcc11075aa9079ac4ba26634575703a06a000000",
  "txid": "012fc42c7eb6b8abc6191d2bc22ce9eece2f1e1eb341109595cb586ea01409fd",
  "hash": "9fe85303b3186cf4c4e11ff5a5cb13c3416c071945ed7e97050e0f236d1ab816",
  "size": 5085,
  "vsize": 2278,
  "version": 1,
  "locktime": 106,
  "vin": [
    {
      "txid": "7e8ae0a1928056eacbe097f40488e3a3b35af122d80e22ec26672729d371aa05",
      "vout": 0,
      "scriptSig": {
        "asm": "",
        "hex": ""
      },
      "txinwitness": [
        "7782e6d9f5925ef82bcace0ac307eb74e1c81c6517698266bf5ca1e855d644f0d31334f1c5fe91f31b6565ec1958367686b73d30441a14db36b11e7f1fbeae7f398c06415edf8cfa8ff1113855986a446d589582c5789154c8f8071f5676102681700dff183ce8710afe89eb2e667ac35c7892c2bab8203cd703416d7bef6c0dd7cbd7ffa6d630587405adab5bbf2c3801394afb74034e109537e082130dad44bc93b58cfb6bfd572e184ffe1d4545833bc0195191ae1ba5326e6629345226c14e39ea81e99a9826f131b0025147146a184afdd61ea90b8642677f3048a3c395e9d6e028a5246ad8c549a2a56cd506a1a7525c254c507d2e849427c26a640fa9811f7a72f03e2b612ae31bd72fdf882ade3dc93bc7c5e36f7fbb168e4eaf503e2682c45fba26e42675ad10169b47d958db7d3d7a7753075d08029b5f9f243acdbee4cdffcc4958f4d0ee4f8dab46cc931b24414039e869ddbd833a2f03709529b38051635591276de01a89c3049c4e7d569e9fce90241d28197650f4441a7bc875de16f604fb10fc1a82a0e16de4f115fc14d717b139d859205cfb342acd9a6df6914d82d316a3f11654cf84d50cc112da7f6d8fb409888696be1bd271c2e64dd249f3b8fe0ee1278ffcbd955342af38e061e2ff634c4a49fc32a01990e2e5ea3ce9592f9eca2f34880561db5939db5758b7704bbe563c2277ae2fc904d26d62de3b38382ef3b4fe45890b70a6a7dfe96965f33ae2c9f1b436fcdfc7acc569c049c60e07986df6dc7c8328cc602df65a7a1e389ef9de6dcb90204dc14318336e2ede02f2dbe517d9b800bcdc884898c71731f15b58e553b79f970cedbfedbd938252f548fb0fde4ab8bd7894eaf077cacbd81b04585efff9c248b94cd35c5be1d53823246932b9806404ccabb27a02921ed95ab273ae81d924e9fe619e6993e012a81814e4e925daa34de89fb3b27214f736cef8bf7268e499af5d5e44e00d57dd6c846167bb66dc48ee3e1c7eda6122e0a568f697f21175671473d7490fb04f76c416e18b92d559bbde0d3b4ee74a439e7035ea32a7d01cdef435ad442c219504755ff844eadfc3c6bd8723768a57fb234d74146929a2a0fc52972a187e94454427dc63742aa0cdd8c900acb87e9c2040f4a9860d1400064cc69cb9b3406fed96e7befdcf744c353a29c0cd10d003ce7ded47396e5968d9c88967840e02205ece17216d1fcc5a1be0c434fb76e6bcd3f3cd4dea9949512058f4ea3c524871f2cd0aea0cfdfd765ee192e3b5373cccd2bcc36901ad7c46aa85b9ce2945df86c4acf62e1b52d943c33bd440d911ecbc175e9033056918be3187bd9c4fa1f19f437de2145f165682f903f6a583c9fc57e383e6e85cbea224be873c72ccf48a535c54361a39188f61190f619c996db60b341a25d9dea8921adaf63721d3148b3d871cdd7ad744a9d459293de02d01081817ebac1b455035ea6a956cecd36bc81dd0abfd0e6919813307cf43737ac91f366387628a26b9f17190fc2e0afc609808b008f538e24f960d44c888d26a255415701392d629b96faa29f1d5c4659d60c20fd08e6b715a41f38952bf51e86f337217ff886af20e6f9aa8e794b0934edcd23e92dff1bd70206fcd5cf9400a515501f548fc224c760722ddaf87f4c3b05f36e65b1f0aee221ea36597602856991195fb88ff45b803ab3e719c7750f5867f01365cc07086031792a5d006c5ab038b31e6ec559dd10d66c71cb0a499d34477c386efa0c0a07d52d826880e529fa0051c88a719cecbc4b050d7c8ed08caf17eef992cf7430b401e67e7194fba4295faa88efcaec168bd10080641f066e41b57ec5305c9ebbb04af0f719e1eb2ef2e2aa0f81ebade4c3d67397fe413124dbdbb216ae9d60a433f643f1815f81f6906a4b47a17c4c722c321fb78276f7610aa1259e114ae1dbb5ab8620aedab1db9a4db17fef136bc66549fc571110e7e8233d7671715251314cdb4556ff1e19b18238529db4a593127dfcac82957e51b311d83cf6245da61b9b1e9dec089a8ba00d0cfbdca413982d07694da74279c04f3209f7a514bd8589247accb601e840ae3b91fcde0609e87ee774c1086ee133d00d0e4281fc75a03047bb66591654d48aba06a519d6e6af41463ec0924a4de8dd47601723c05616e5e187aa50847a82577da17533160142a5a9c3dd6f2e5b89a68f7469d8450babd502a0e202a7138b5dc5545a08d4bfa80eb34dcdae5716198b16c0f407df36ae13dfdf80455a44dc1133b9ea21c077029cb4adc84ac13f16408f3f77ef6cc7ecd20af53dd5a63177ee98f66284b0cb02484e5ce54bdeff9691191c86f928773380e6279b70f2dc7b0f9013f77e1f53959eca7ff761d1b1ff8a4c093587e44ca83216d1af8cc310031edf0a639d8040dd147a530c108d6a9f613295c37ac9c91ad5fdb86a5b7c9aa8eeeb5a2e61b1b22c1e8a8e5e22e582fdf7cd3829501e17a5f50c1ebd13d4398699e9cc18d8d9021ede1ff787d8f2aadec2dcc76a3d43f284a8ced7b8ff2db26c7c559e0e3b1f9d3cdddce21501720a4bcc41c2c600ec7da02c41cb3ff2c285d546d997fdf02d7a51985c284163785f998c0eb64fb1b41805416bc928279b5e4bed3de00d8f2f18544da2cf7aa7734a157c1b6fe671bc9ebec6fbe0b683f27722cb32e31aa8a0a17fc6febcf9fe967acfb095a8edbb592ee666739d542752ccdad8d88052ebd70bf1514a912e1d09c55e1e56e7453473ee6237765b23ff2ea04edcd39ab9f4efeafbe387b87065e7aefa88b03e62c607a5559db3258e323c0b7aa97b213f062a46bc9cae8744bf3478e0d4574dec02718308a24a5e501781c95687b44043ef685f422ec66bae0a0bb7135ac110f562881c6aefb888e649711774481ef74b91ce7e9f53f66bd46a5d80e2bf51d6c452b7404900a5e45e92fb218490c4c715293179576153c3337bb0661253725d34436387b2942cde23b0be05332a3bc3f8a6e0f0e590b6267759a6053042371218c98aa8e32f1712b9c6277bde333cf81c2684a2f7d75f8d47e7d6dc827595aed029fb06f3c19fb0ae44084ba9b165a302029b5e7ffacdd172ed7c0588d30731b9c243186299453ecfdcc10b126eb69ab1f2359cc27265cfd6cc38a44869ec735cd81e755bdc3fedcdbe34a4052ef72de26e9d4f006d1f00cb2db1a22dd6ab03f99bf6eac8597ec1d563134fd848ff488a92482b54c6e194249058c28edb63c683e17444c8deee6f3435e457b7b52c312f25c9544972750c5058154d309f9402da83c061b273d405069a4aab5c0c2cde1edf6fc0f1121313a3c4462828485879799a5a6adbac6edf4fb1e344f5a6b7386889ca4d0d602575e8b9baee1f5fb00000000000000000000000000000000000000001127333c01",
        "00f2d35e048ff1aa2f6d3b35d24b403de55dc1390da102d5b187549c271eee3c6d9b032cd9d13a9a3cf4501ba183465e13efaf5024e5911053f70af72b7a56d6c1895008f4ffc248173b646bdfc15806eb2c03e16acbd235216554826b08171ea889cf0d7eb6d5c1faa4981f9af1fbebce8a4fa9a6bd7f24e5579a93ceb372460bdb5f057b94d0e218dd500b4a71d8d2dbd13b65b31ec77c74360466d362632b942d1315b18ebdc21589c79d8535ce833d4b79aa33cd3766211fdd2220eca1cae9de46a3c0b36349eb32ad4ea8d9f44d103e92a5d48a1ae301d99392c3534647e0f0e69dccb887fe91ab8965152a89ecd7c166773765fef5d97b083245a568d2d83e764a392491677be46d0916ff755e09d388ab5605f8bdea0d400d5e0858012d83b55b2afe6b156ecff4ccda8408650eee455a7751ee42e21984f74a27e7c3717c8d591994361441b57b4a96ef95dd2b63b0f7b167e7a25f3de9d31d40f8350a00fd75b0333344b6a22bb1220077aafbb49aff30e59a0dc39029770289dfc6a3f68a33618ecb901e7ffb93bb869ae841d33d51a0ab06bdb20918932fc095cd2d529b1dd8bd7bebac74131f13164df3d003a01d35c6aa87cba8c29a780bfe76d9a3dadab16b8cef709ed4d787e557debf0c47c24898ec1eda3f20a7172411af277f806ea38b3b19d3048d86789f98ab05d070e4143f0703360bd213d0a0b445fbba0ec6d33508fe0894fb3a523d5bdc60508947e8a5771ffd3d488b3a2ff6ed21d242ebdbf2bb943fc75cef74a6d2d8d9f213a27efd0599870b304f78fd4884d3c13b43a6c0384b782bd3f0a1411acec356745791dabd27359e223d5c390fa0e1d6d7fbc978987839a2a29f66e7900d87fbdf5cb3b48576acb7fa4ee9ace428381055a03d3a7bc7a24478f72acb7debad27c743220406487207193b36eb54a1c9ee0604340bb5d330ca68306b762103ffa40733d6b8b30b6d2444a2779a4d7ab62d03a8773938e48268798c2911b430d197afd94681707bb35f38eeb1e5ff292fc4b0a6742ecf359436d36a3d12219b69d52eafcda0dc0bf3984924e2e1555ef60d0fbbf868f35fd9a168229c6c16ec7362d684c77e845b0452e6920226d2577b6dec5a4813d58fd8ee9e0e3d7307c4138db9823aec146bf0c8084714ca79c8e79f7d7a1df600936bb69e731bb23f0feec48fb0aad5cd8f4789509c7e9e5ea920eabd3d3b77d820295b15774fdf7421fe2aaf5fc3df2b4ddf7dc7ffc1659aaabb37573cb7c8c1671d18f84f1c145a81d18c0d1dfce370096238c131e30b5d61f51243e177a92937d368199334fd31737e9783533fad7e1a73801517e1456e0383ed311af39683ac2b6df521a93c939169b5bf303db47fad479683fd9aa1f000bbdede0fc3d1e45d87a0e7ab233c0389c3f6d48fa5991619c01649b1b0b4175da398506d6dfb827a4fa4d48ae494f3076e97ceaefc0e143504b0efb6e5347b4a7a1381de4130dca44b7fda776fff93da12d17c4e74994b00620cf998a308919f754c40ae812bdb514b0202707ad8084acea3a9cc660c54422c61094c3eb081f9226b5fee5189ceb3dd3821980eaf498e6fb56ffa88a17364278af633bb39ec325d464329cb48922236264ba542b6da8a80676eb42f070eabd0c530a660d98cd09422afae558a91b7b291ebfcb2dfc5bb448f6e56675c32299fb132a660f7554831f19c77b41e2c0e07e24856bbecca47d68e4c30b7a6b907bcefb0ec3eeab093dc7e78648f0b4a9894b24b671e5fe5ed16818c37be9317a9293b8b7de311dda15dbd4396f40c8f3533180fa33e6d34e390fcc11075aa9079ac4ba26634575703a0"
      ],
      "sequence": 4294967294
    }
  ],
  "vout": [
    {
      "value": 499991.8648,
      "n": 0,
      "scriptPubKey": {
        "asm": "1 418f3e8ad20be865d3fc236bb1b49fb2c4a890a4cdeb2d66a1752b30f978996a",
        "hex": "5120418f3e8ad20be865d3fc236bb1b49fb2c4a890a4cdeb2d66a1752b30f978996a",
        "reqSigs": 1,
        "type": "witness_v1_scripthash",
        "addresses": [
          "3QJmnh"
        ]
      }
    },
    {
      "value": 1.0,
      "n": 1,
      "scriptPubKey": {
        "asm": "OP_RETURN 3dc00901fed5ef3cec7556aa32cf3ce3ffe047c695aa131e44fa060e7e3f84b7 bfb43e30d98bd7b2c3d9a9bdfc51393b725176b4c72b27d6e0183549ddd43dea9f941e10f9abf792e3f9899ddc71191b52715694e70b07f6c0381569fdf41dcafff47e7099cb97f28399e9fdbc11797b321136f4876b6796a05875099d947daadfd45e50b9ebb7d2a3b9c9dd9c31595b123116d4a74b47b680785529bdb45d8a3f34beb0590b57324359293d7cd1b9bbf2d1f63447aba7566098b5c95d54bd6a1f149e90792b77126379091d5cf1999bd2f1d614678b877640b895e97d749d4a7f74fef0194b17720319697d3c91f9fbb291b67407ebe71620d8f5891d14fd2a5f54ded0396b37522339495d1cb1d9db92b1965427cbc73600f8d5a93d34dd0abfb43e30d98bd7b2c3d9a9bdfc51393b725176b4c72b27d6e0183549ddd43dea9f941e10f9abf792e3f9899ddc71191b52715694e70b07f6c0381569fdf41dcafff47e7099cb97f28399e9fdbc11797b321136f4876b6796a05875099d947daadfd45e50b9ebb7d2a3b9c9dd9c31595b123116d4a74b47b680785529bdb45d8a3f34beb0590b57324359293d7cd1b9bbf2d1f63447aba7566098b5c95d54bd6a1f149e90792b77126379091d5cf1999bd2f1d614678b877640b895e97d749d4a7f74fef0194b17720319697d3c91f9fbb291b67407ebe71620d8f5891d14fd2a5f54ded0396b37522339495d1cb1d9db92b1965427cbc73600f8d5a93d34dd0abfb43e30d98bd7b2c3d9a9bdfc51393b725176b4c72b27d6e0183549ddd43dea9f941e10f9abf792e3f9899ddc71191b52715694e70b07f6c0381569fdf41dcafff47e7099cb97f28399e9fdbc11797b321136f4876b6796a05875099d947daadfd45e50b9ebb7d2a3b9c9dd9c31595b123116d4a74b47b680785529bdb45d8a3f34beb0590b57324359293d7cd1b9bbf2d1f63447aba7566098b5c95d54bd6a1f149e90792b77126379091d5cf1999bd2f1d614678b877640b895e97d749d4a7f74fef0194b17720319697d3c91f9fbb291b67407ebe71620d8f5891d14fd2a5f54ded0396b37522339495d1cb1d9db92b1965427cbc73600f8d5a93d34dd0abfb43e30d98bd7b2c3d9a9bdfc51393b725176b4c72b27d6e0183549ddd43dea9f941e10f9abf792e3f9899ddc71191b52715694e70b07f6c0381569fdf41dcafff47e7099cb97f28399e9fdbc11797b321136f4876b6796a05875099d947daadfd45e50b9ebb7d2a3b9c9dd9c31595b123116d4a74b47b680785529bdb45d8a3f34beb0590b57324359293d7cd1b9bbf2d1f63447aba7566098b5c95d54bd6a1f149e90792b77126379091d5cf1999bd2f1d614678b877640b895e97d749d4a7f74fef0194b17720319697d3c91f9fbb291b67407ebe71620d8f5891d14fd2a5f54ded0396b37522339495d1cb1d9db92b1965427cbc73600f8d5a93d34dd0abfb43e30d98bd7b2c3d9a9bdfc51393b725176b4c72b27d6e0183549ddd43dea9f941e10f9abf792e3f9899ddc71191b52715694e70b07f6c0381569fdf41dcafff47e7099cb97f28399e9fdbc11797b321136f4876b6796a05875099d947daadfd45e50b9ebb7d2a3b9c9dd9c31595b123116d4a74b47b680785529bdb45d8a3f34beb0590b57324359293d7cd1b9bbad14dbcdeb73f8f1f446cf651b4068427d3684fd62cd07999a042908704f90b7",
        "hex": "6a203dc00901fed5ef3cec7556aa32cf3ce3ffe047c695aa131e44fa060e7e3f84b74db004bfb43e30d98bd7b2c3d9a9bdfc51393b725176b4c72b27d6e0183549ddd43dea9f941e10f9abf792e3f9899ddc71191b52715694e70b07f6c0381569fdf41dcafff47e7099cb97f28399e9fdbc11797b321136f4876b6796a05875099d947daadfd45e50b9ebb7d2a3b9c9dd9c31595b123116d4a74b47b680785529bdb45d8a3f34beb0590b57324359293d7cd1b9bbf2d1f63447aba7566098b5c95d54bd6a1f149e90792b77126379091d5cf1999bd2f1d614678b877640b895e97d749d4a7f74fef0194b17720319697d3c91f9fbb291b67407ebe71620d8f5891d14fd2a5f54ded0396b37522339495d1cb1d9db92b1965427cbc73600f8d5a93d34dd0abfb43e30d98bd7b2c3d9a9bdfc51393b725176b4c72b27d6e0183549ddd43dea9f941e10f9abf792e3f9899ddc71191b52715694e70b07f6c0381569fdf41dcafff47e7099cb97f28399e9fdbc11797b321136f4876b6796a05875099d947daadfd45e50b9ebb7d2a3b9c9dd9c31595b123116d4a74b47b680785529bdb45d8a3f34beb0590b57324359293d7cd1b9bbf2d1f63447aba7566098b5c95d54bd6a1f149e90792b77126379091d5cf1999bd2f1d614678b877640b895e97d749d4a7f74fef0194b17720319697d3c91f9fbb291b67407ebe71620d8f5891d14fd2a5f54ded0396b37522339495d1cb1d9db92b1965427cbc73600f8d5a93d34dd0abfb43e30d98bd7b2c3d9a9bdfc51393b725176b4c72b27d6e0183549ddd43dea9f941e10f9abf792e3f9899ddc71191b52715694e70b07f6c0381569fdf41dcafff47e7099cb97f28399e9fdbc11797b321136f4876b6796a05875099d947daadfd45e50b9ebb7d2a3b9c9dd9c31595b123116d4a74b47b680785529bdb45d8a3f34beb0590b57324359293d7cd1b9bbf2d1f63447aba7566098b5c95d54bd6a1f149e90792b77126379091d5cf1999bd2f1d614678b877640b895e97d749d4a7f74fef0194b17720319697d3c91f9fbb291b67407ebe71620d8f5891d14fd2a5f54ded0396b37522339495d1cb1d9db92b1965427cbc73600f8d5a93d34dd0abfb43e30d98bd7b2c3d9a9bdfc51393b725176b4c72b27d6e0183549ddd43dea9f941e10f9abf792e3f9899ddc71191b52715694e70b07f6c0381569fdf41dcafff47e7099cb97f28399e9fdbc11797b321136f4876b6796a05875099d947daadfd45e50b9ebb7d2a3b9c9dd9c31595b123116d4a74b47b680785529bdb45d8a3f34beb0590b57324359293d7cd1b9bbf2d1f63447aba7566098b5c95d54bd6a1f149e90792b77126379091d5cf1999bd2f1d614678b877640b895e97d749d4a7f74fef0194b17720319697d3c91f9fbb291b67407ebe71620d8f5891d14fd2a5f54ded0396b37522339495d1cb1d9db92b1965427cbc73600f8d5a93d34dd0abfb43e30d98bd7b2c3d9a9bdfc51393b725176b4c72b27d6e0183549ddd43dea9f941e10f9abf792e3f9899ddc71191b52715694e70b07f6c0381569fdf41dcafff47e7099cb97f28399e9fdbc11797b321136f4876b6796a05875099d947daadfd45e50b9ebb7d2a3b9c9dd9c31595b123116d4a74b47b680785529bdb45d8a3f34beb0590b57324359293d7cd1b9bbad14dbcdeb73f8f1f446cf651b4068427d3684fd62cd07999a042908704f90b7",
        "type": "nulldata"
      }
    }
  ],
  "blockhash": "ed58b71ef50cb049f6fd5c1ad274bdeb3951d970e0a56ec51ef7152d34b6d8c5",
  "confirmations": 1,
  "time": 1764177054,
  "blocktime": 1764177054
}