{
  "hex": "0100000000010137801f628c96e5e2dc87af1b386c7574362410bf8c851b88658d6e9126cfce980100000000feffffff0200e1f50500000000fdd5046a20840dd815dd6e51fcf9def129d79f23c009292c376164b8176f924f550726026e4db0041b470165e818e1b2000ae4eed89f46ccd68c84a6781e051d090df9a06ed6138d3b672145c838c192202ac4cef8bf66ecf6aca486583e253d292dd9804ef633ad5b074125a858a1f2404aa4ae98df068c96ccc4e6385e455d494db9e02e9653cd7b276105887881d2606a848eb8ff26acb6ece4c6187e657d696d99c00eb673ed9bc781e568986132808a646e581fc64c560c0426f89e859d898d7920ee56930dbbe7a1c548b84112a0aa444e783fe66c762c2406d8bea5bda9ad5900ce76b32ddb87c1a528d82172c0ca242e185f860c164c4466b8dec5ddc9cd3960ae16d34dfba7e18508f80152e0ea040e387fa62c366c644698fee5fde9ed19408e36f36d1b470165e818e1b2000ae4eed89f46ccd68c84a6781e051d090df9a06ed6138d3b672145c838c192202ac4cef8bf66ecf6aca486583e253d292dd9804ef633ad5b074125a858a1f2404aa4ae98df068c96ccc4e6385e455d494db9e02e9653cd7b276105887881d2606a848eb8ff26acb6ece4c6187e657d696d99c00eb673ed9bc781e568986132808a646e581fc64c560c0426f89e859d898d7920ee56930dbbe7a1c548b84112a0aa444e783fe66c762c2406d8bea5bda9ad5900ce76b32ddb87c1a528d82172c0ca242e185f860c164c4466b8dec5ddc9cd3960ae16d34dfba7e18508f80152e0ea040e387fa62c366c644698fee5fde9ed19408e36f36d1b470165e818e1b2000ae4eed89f46ccd68c84a6781e051d090df9a06ed6138d3b672145c838c192202ac4cef8bf66ecf6aca486583e253d292dd9804ef633ad5b074125a858a1f2404aa4ae98df068c96ccc4e6385e455d494db9e02e9653cd7b276105887881d2606a848eb8ff26acb6ece4c6187e657d696d99c00eb673ed9bc781e568986132808a646e581fc64c560c0426f89e859d898d7920ee56930dbbe7a1c548b84112a0aa444e783fe66c762c2406d8bea5bda9ad5900ce76b32ddb87c1a528d82172c0ca242e185f860c164c4466b8dec5ddc9cd3960ae16d34dfba7e18508f80152e0ea040e387fa62c366c644698fee5fde9ed19408e36f36d1b470165e818e1b2000ae4eed89f46ccd68c84a6781e051d090df9a06ed6138d3b672145c838c192202ac4cef8bf66ecf6aca486583e253d292dd9804ef633ad5b074125a858a1f2404aa4ae98df068c96ccc4e6385e455d494db9e02e9653cd7b276105887881d2606a848eb8ff26acb6ece4c6187e657d696d99c00eb673ed9bc781e568986132808a646e581fc64c560c0426f89e859d898d7920ee56930dbbe7a1c548b84112a0aa444e783fe66c762c2406d8bea5bda9ad5900ce76b32ddb87c1a528d82172c0ca242e185f860c164c4466b8dec5ddc9cd3960ae16d34dfba7e18508f80152e0ea040e387fa62c366c644698fee5fde9ed19408e36f36d1b470165e818e1b2000ae4eed89f46ccd68c84a6781e051d090df9a06ed6138d3b672145c838c192202ac4cef8bf66ecf6aca486583e253d292dd9804ef633ad5b074125a858a1f2404aa4ae98df068c96ccc4e6385e455d494db9e02e9653cd7b276105887881d2606a848eb8ff26acb6ece4c6187e657d696d99c00eb673ed9bc781e568986132808a646e581fc64c02eac0866fee441b8de2563826de73d2f0769b4cccea2f689898da3c985b2a20b0cd76d8782d00002251205eb956ce942fbb790ab70d976934a0371bf21a3b4cdfe8ce1886eb4bb2cd7a1a02fd75098b16d2f8ab44f5e786eb5078498796aba1ff61455aa0561764170b0e76b81f21395a1017d3e472aebf8d3fd64de47d831e0641d844a0eb11d806f716a7f4d1107b2ace2ac74c4154e29233f95e4aed486dc65d74ef966616f857123ae2d9030ed08d9918d12c196256f9045b78d640cb8a849efc513018f53460b54abb552105449e5ea08c1be039d7a52faa15bce55a8c6d4920216ef8835628cf62cd2d8a4576a62c4fe4fc52c2c8717d8aad2674e83d3ece4553bff248474941ca191b343788b876be1edbf1f60797d29e413572ee304eb2e830181c43264c1c256d57e814ab21da2f84cc7529e37b8d0e43414714a9c1a3da4769bf893cfa79f30612d7e7f9ee5c8b272fb4912b32a9be690cddd4eb69b04085cdd8d92e71f15aa1bed278e5619fe230c6cb24e30a439e32d7aed424521c428978aeac10da0d03f091da74d82edb1cfdec19888dc4ce2b0923682735261e5fdf92ff9448aa18d0f9775b68e6cfad69d70eafb0fd2c33298d0a51c26482484d8855d4bc0eb12a2e8ff169c211d736e57010cd114059d2b732a40420aa55de70ac91102fac33f92c3c0d61315ac7be2a8ceea7410566cdcecf340ba9b467ab7ed27882e72e47254d1f30b8acef8e142660509c66ff164c2f272f005be9c41c7b946a332044f038e5d9732e59a21231e100a9c52f6ee8a02e4bba6afe306f8da57bd0091fcb200944b026db32fcabe2eed554805b1bf510ba5879bc862b86ab07940d88dc0f8fe3126777ee2fd319d703aa85716cacf9e0d01b7fe8101e74a1b36bb01e282d8e87ba4a9b784137cecd9b2130d524d11a2d798f9fbff3d13dbaea836d14845603c142dc6dbd0d8561da074e26784d65b6abfb42e8043b59e177e56acc3e6e829e74f2a3e8229bcbd300f21d979c674c2e5f9b2e6e88d3a848eba24f1c201a0ecefb937d52aaae1d393a3b073bff26cbd2015a57059c9445f1e1e09dc58bddd50d219f9d0e340ba74ffd9f38ada8937a3dac06956225aa40a03eea212b696422d5b1a167530c874870d7040f2956029df52177c05c40b3509a748ac3012cc65000e66b160e25afa7e8a30678f468a599c84efcc82634eec97263d51ffce246c5b60418b35dc4aa7466071c6ae381d9bcb8e96126de75af20d886613ecd33625e1dc18bc012552d9a7cd680e2953ffbd2d868c7a71fec126523b8faeaa9c0ada4dbe10350bc1d71a5d9dc893ab3d14d522c29cdf00c1410253d917cfcfab3c4d74975248622b70917ffd08289a32c632cf43791c4f6c79bb877860eb53a8600f7bb0cd61f5ba6a854a71d18c9363a04892f4e32ce900d1132a5e659c93ebe78e54a0416abcd89b0fa23aadae86697e9e6f508b7f5ee5a07eca66d1a98a4eae9578e7041a2211f0317d61d3bf9281aee8f3bfc53b1549df6757d3bdc160ad5069482b1fd88d0b3d3b3e69642d9d28963250c49a6007c239528b6753173f60619b34e04c306b2b456f498a42eb29be77ddf870b572d219197d0d0eee75e5418ebcad8fe1b083c35f54156d2d1debc3b20f6d8d7ba61ded6698d7271edafeac7da4b664def8805471a8db861bc326845e84154c219e40aac245017c24999692d31950bc2be5b87b291db6902507d3b019ec935bb53b506fb6b71aebe95d8517cbcdada0bec1cdefcf0829ab145a0229b2bb334eed5ad7e4fb802d24b351bab95d3025c16fd6f997dad7dd4fa25904384d5824d520aa5a0264d1ad4e9c27a8a8f3a40eeaf4cf7c9dca8882fce0048f3a35d31928d9b0d988027c2bb09e721fdcbb3213a7eb804824b4cbd0151d80e4a8e45e506f45484eda785c21e3873972f903fdcccf985a2cf3ec87e4dfdebe3b3b120ddb2630a0fe08715c5af3d052842c9b97c5d063810669b04d38b8a21e37610b4eff37643c238d4c564677328482617695802d351d7fa2ca9c49954511482093576268b509382271cd632f760c257c5e5af01944953f77701c69654d305b4d7d50e582e4d2c78f2ac7746c341ab71ce77cde64da50530845104f8aa7af5d69ae57d11d8429dd848f2f4c54c6f44171cbd5c460fc8d3939a0179dc4c8c4d9143541307ed2388fff35dfd83998ef0c64065b99fc2f56a4940ae39b83fd376ce38b6a7bbf02eec6522ac9d1f2092e262fb559bb263db168fbea30d5451bff2aed903bc95ee347d76a53ac228160f87260bfeddef31ef9b5e91bacb203a8152f6d6fa25262953667e86e8f384b42425e5c8e5fd7917ff7d1e5dfd85d22941757084a7c28904a6229510c66cee3b7c7d029dad4db048dcaa8022a9c6825c85d1cd5c389d7da3a63a8d94c2195317f0b246fd76235e4ddc67a3c49646ef04ee85ddf74cfb9b15c010df4393d59112126832c9341e05ca21f2d62f5bacace1e367fd2994da860d007ade124f78efadd8f4e362d4caf054ff0e4639c51929118027a193aac4ba834a2db0cc856e5f9c752204ac0bab723b970f7040d1a1ef8b83b70fb6959dac32a2e79195aeccb9a910adee7a72cf3fd23d0ed297f64c020a851b1f9d4c5bc0e66fd65a00c38b97bd124ccf4946b1959c8c49c8a5e3b0047172f6bb8b46186b88e0de2ce0915004a097a1c684e14e9d0d66ae72af5cb2ceddd853e0044f709f366a517bad55cac952b2f2649f1958f4eab6714951ea4b297d0764a427ace00284ee207ce39dcbfb948375d7a1af456def7f444c04657c8d96f87634e6f6e1355cb9bc28d19189607f9a7cffae1f1c5f5a5ebad674e25db60b652fc77b3142f8f592ca76189a547e67efbce3dd5a891e6bccd5fa19781fcd2319ddc6507ff5f7b076a79f6c79cc05b3cc8b4b83090ee28a0b930c2a4b9931d250056c8508ab10bdc22afc3d360d4409baf69557b9903bda83712aa6d04ed4397cea9e10c3d459fd77c971991f51adc61eb8f499d096fe52e7c1cca03f7528de9c275bf3f2e2d567aac0f4005fb08fa2b828ee07126de8acfc0e8b7df4dd30eb55e835559ff4766af2cf17d229608abc5b4d60f8e0271df06072aab76a791e735814a37cef604aa8072e21e90a91c5134c2aae958633ae8c6df5adb8b567b8ab58ee5873400dfe02a140f9e781a3c816fd07e575bd0534c951b86e03f69e34c5714056e4e43f863c36c603dae1116ba17d88a3fe5ec82a21ff2df485a2824bf59d8f73c7eb2aa61ef7704545058c8ab299bea4b343acab9546772285d56015b752046e947ec0f78abad053cbab4cd8cf9dae33901303bd31d67eb3feb34081a84e4576cf3694f3daea5afa8f82552296d2d3069b47f8d34c3e4d8afe9e010717214053565d797d888f999aa8abadca00080d5a5f66afb8c4e8f6fb1b959bafb0babfeb000d1c31383c499294b5b8bec7d7df000000000000000000000000000000000000000000000000000000121e263501fd21050068e32b1630969247ee1a1db55450936b3ab2b7e4d65380cfd6a0e7119c16bd9c9f6fdf7f8d589f9bbb4918e58816fb961280a46deef7010e2d630e86cb3f213eca417d5bcb114272013e729a5d995c86d7b91eae9b4dedfb5717b684af644ba4e5edc10b1841e5cc5b0cc9693226da38be9c4497d14d9f7342718531121e4294406145fa86c6509a4c78baf56b5a11d4ea2c2a9bc0e70ab265cb27769414641086b9290836e4b9cbaba758dcc261a4392e2aa5b2063aa8ba2ecefd1912da1421f47d266a7a117022574620eb1d84f83604eea07395c4a1f1f437f32ef06431c94b176270c2a086eccf54fe54cfa36fe5ea856ac16c8cffc58d33d69b327241c467de60670b9dddd2611910496235c4d7ab3f6dcc360eb0e64a0e5b11d4934e038f78efbab76201b4a286c42696a6a3ff34d41c8c712d4918234e2dfc61f3a654829baf9075f1f0ef3411f0432a183204862c78178f8aa45b2e81caeadb7cb10107d341117cbdca9fc4a346eed315da8d813dcff10f47151950e0a4705b11d499d9e1b430bb3e2f5aaa801e089ea4dbe4999f2035bfe9d2d2acd537a5cf0e970467249a803460c10a990c446a9eaf2df44fdab13b32061ee54f6642144949fc984ae33fc6fb5a319fc2233092475ee7e0dcb81733e3227d6a2be54348961bf8abe8cca9bc89f2be995487211d3a3289176034e8edea52457e811eac45c063a216e7acb8ee91140f63722b2cb767835a827e76c06e5f17999ddb99672d68b02395a6ecb6e58e12014cc4d41b91775fa64d2c5eb4aadf13860e0d4630f97b20742e2745bc628182bb7e51e290a04de7a47efc1c5843f51e4df6360da3962f9c8540ac8e4b2e60092cc100f9a8a8008f4e5f287689ecd2ef98d043ca2c0955c5ce13b74e65d01de81ed72cd65b004c1b1e303193a7e937545d7164a8bf4da2c6479cfb258535dfb502fd79382376860ee22aec1d2dc734d7d8d5cf0b0b81ebe86f6d753798ace61a695e47bd0186bd305860b84ed03a780fd2422bbe8384a6958fd61290fad3bfeb44fdee568227d23e2c7165320318653f13dea8832a77b1d715ea6548a17253cb4bf77231948952b1738873d77bc61bedc1b427dcea223ca52170cb4d474a08455ccb3a188de28609a7060f6b67961caf268a5515bfee8d90264989b978312e9fd784afb747ca4ec17abc5e7095cfc2c5e52eaf334662ec8782322e09519725de0ef797f48d2ea3898bbb6893548116f58d247d1e49c76b329cdd2e94d228b1a2c2ceaab74a7099f80a5c6a705d7efa0ec335fc0e3815115072567ba35d35b4f1160938ab4c420d1318f1c4f53633bc8b9f6bc017309b87802181e6af4480c2745908de028ac3dec6ffb968553c8c9702adfe169a047f87431b0595a9e8d7a842455efcd95c1de93be4c837faf2a717050e7c41711a7d86be2b3d62cc2f6b0d2e165e7d01f9708f79ea82c3914f3672cbf17464a9b44e472666def7e1868bac5147a65dbd1100f83400697393b051ebf95adeb04bc79fc7af35938275b1a948e7bcad458af2503e797946b7d760672027cab04561a3f0ffeadac72ef725ae481e4577e0a89a1c5b3f5d7e49ef37fe83a2b9845bf26e34f16a45d9a4c1c800c7ceb07a8895ec8ec43e6a2024acdf4240e3df6fb6b53f3b81bcbf7f4fcd3b89bbe31e8b3099ff7a64220824f6ee977abba086b46a94790bdb4e629c4a8181273fceb8eb02e1df4b914eaa4a58719cdb134eb30e1c52df65e47ce775beb423e754b9a9b9e5b0e9251c7e5667be77c9d1c843df286a5af2651196375ea2230b45454011bd27512a6f1ac8fab8fe78709dae886d9c8261ae149c9860727e000000",
  "txid": "07628f48624584131e4586dc040c98cc7c0c2088808ecec89944a4072e081fc2",
  "hash": "2b79c18c2eeec73722b83c44291b73215bed5840cf0624381405c6771573c6a4",
  "size": 5085,
  "vsize": 2278,
  "version": 1,
  "locktime": 126,
  "vin": [
    {
      "txid": "98cecf26916e8d65881b858cbf10243674756c381baf87dce2e5968c621f8037",
      "vout": 1,
      "scriptSig": {
        "asm": "",
        "hex": ""
      },
      "txinwitness": [
        "8b16d2f8ab44f5e786eb5078498796aba1ff61455aa0561764170b0e76b81f21395a1017d3e472aebf8d3fd64de47d831e0641d844a0eb11d806f716a7f4d1107b2ace2ac74c4154e29233f95e4aed486dc65d74ef966616f857123ae2d9030ed08d9918d12c196256f9045b78d640cb8a849efc513018f53460b54abb552105449e5ea08c1be039d7a52faa15bce55a8c6d4920216ef8835628cf62cd2d8a4576a62c4fe4fc52c2c8717d8aad2674e83d3ece4553bff248474941ca191b343788b876be1edbf1f60797d29e413572ee304eb2e830181c43264c1c256d57e814ab21da2f84cc7529e37b8d0e43414714a9c1a3da4769bf893cfa79f30612d7e7f9ee5c8b272fb4912b32a9be690cddd4eb69b04085cdd8d92e71f15aa1bed278e5619fe230c6cb24e30a439e32d7aed424521c428978aeac10da0d03f091da74d82edb1cfdec19888dc4ce2b0923682735261e5fdf92ff9448aa18d0f9775b68e6cfad69d70eafb0fd2c33298d0a51c26482484d8855d4bc0eb12a2e8ff169c211d736e57010cd114059d2b732a40420aa55de70ac91102fac33f92c3c0d61315ac7be2a8ceea7410566cdcecf340ba9b467ab7ed27882e72e47254d1f30b8acef8e142660509c66ff164c2f272f005be9c41c7b946a332044f038e5d9732e59a21231e100a9c52f6ee8a02e4bba6afe306f8da57bd0091fcb200944b026db32fcabe2eed554805b1bf510ba5879bc862b86ab07940d88dc0f8fe3126777ee2fd319d703aa85716cacf9e0d01b7fe8101e74a1b36bb01e282d8e87ba4a9b784137cecd9b2130d524d11a2d798f9fbff3d13dbaea836d14845603c142dc6dbd0d8561da074e26784d65b6abfb42e8043b59e177e56acc3e6e829e74f2a3e8229bcbd300f21d979c674c2e5f9b2e6e88d3a848eba24f1c201a0ecefb937d52aaae1d393a3b073bff26cbd2015a57059c9445f1e1e09dc58bddd50d219f9d0e340ba74ffd9f38ada8937a3dac06956225aa40a03eea212b696422d5b1a167530c874870d7040f2956029df52177c05c40b3509a748ac3012cc65000e66b160e25afa7e8a30678f468a599c84efcc82634eec97263d51ffce246c5b60418b35dc4aa7466071c6ae381d9bcb8e96126de75af20d886613ecd33625e1dc18bc012552d9a7cd680e2953ffbd2d868c7a71fec126523b8faeaa9c0ada4dbe10350bc1d71a5d9dc893ab3d14d522c29cdf00c1410253d917cfcfab3c4d74975248622b70917ffd08289a32c632cf43791c4f6c79bb877860eb53a8600f7bb0cd61f5ba6a854a71d18c9363a04892f4e32ce900d1132a5e659c93ebe78e54a0416abcd89b0fa23aadae86697e9e6f508b7f5ee5a07eca66d1a98a4eae9578e7041a2211f0317d61d3bf9281aee8f3bfc53b1549df6757d3bdc160ad5069482b1fd88d0b3d3b3e69642d9d28963250c49a6007c239528b6753173f60619b34e04c306b2b456f498a42eb29be77ddf870b572d219197d0d0eee75e5418ebcad8fe1b083c35f54156d2d1debc3b20f6d8d7ba61ded6698d7271edafeac7da4b664def8805471a8db861bc326845e84154c219e40aac245017c24999692d31950bc2be5b87b291db6902507d3b019ec935bb53b506fb6b71aebe95d8517cbcdada0bec1cdefcf0829ab145a0229b2bb334eed5ad7e4fb802d24b351bab95d3025c16fd6f997dad7dd4fa25904384d5824d520aa5a0264d1ad4e9c27a8a8f3a40eeaf4cf7c9dca8882fce0048f3a35d31928d9b0d988027c2bb09e721fdcbb3213a7eb804824b4cbd0151d80e4a8e45e506f45484eda785c21e3873972f903fdcccf985a2cf3ec87e4dfdebe3b3b120ddb2630a0fe08715c5af3d052842c9b97c5d063810669b04d38b8a21e37610b4eff37643c238d4c564677328482617695802d351d7fa2ca9c49954511482093576268b509382271cd632f760c257c5e5af01944953f77701c69654d305b4d7d50e582e4d2c78f2ac7746c341ab71ce77cde64da50530845104f8aa7af5d69ae57d11d8429dd848f2f4c54c6f44171cbd5c460fc8d3939a0179dc4c8c4d9143541307ed2388fff35dfd83998ef0c64065b99fc2f56a4940ae39b83fd376ce38b6a7bbf02eec6522ac9d1f2092e262fb559bb263db168fbea30d5451bff2aed903bc95ee347d76a53ac228160f87260bfeddef31ef9b5e91bacb203a8152f6d6fa25262953667e86e8f384b42425e5c8e5fd7917ff7d1e5dfd85d22941757084a7c28904a6229510c66cee3b7c7d029dad4db048dcaa8022a9c6825c85d1cd5c389d7da3a63a8d94c2195317f0b246fd76235e4ddc67a3c49646ef04ee85ddf74cfb9b15c010df4393d59112126832c9341e05ca21f2d62f5bacace1e367fd2994da860d007ade124f78efadd8f4e362d4caf054ff0e4639c51929118027a193aac4ba834a2db0cc856e5f9c752204ac0bab723b970f7040d1a1ef8b83b70fb6959dac32a2e79195aeccb9a910adee7a72cf3fd23d0ed297f64c020a851b1f9d4c5bc0e66fd65a00c38b97bd124ccf4946b1959c8c49c8a5e3b0047172f6bb8b46186b88e0de2ce0915004a097a1c684e14e9d0d66ae72af5cb2ceddd853e0044f709f366a517bad55cac952b2f2649f1958f4eab6714951ea4b297d0764a427ace00284ee207ce39dcbfb948375d7a1af456def7f444c04657c8d96f87634e6f6e1355cb9bc28d19189607f9a7cffae1f1c5f5a5ebad674e25db60b652fc77b3142f8f592ca76189a547e67efbce3dd5a891e6bccd5fa19781fcd2319ddc6507ff5f7b076a79f6c79cc05b3cc8b4b83090ee28a0b930c2a4b9931d250056c8508ab10bdc22afc3d360d4409baf69557b9903bda83712aa6d04ed4397cea9e10c3d459fd77c971991f51adc61eb8f499d096fe52e7c1cca03f7528de9c275bf3f2e2d567aac0f4005fb08fa2b828ee07126de8acfc0e8b7df4dd30eb55e835559ff4766af2cf17d229608abc5b4d60f8e0271df06072aab76a791e735814a37cef604aa8072e21e90a91c5134c2aae958633ae8c6df5adb8b567b8ab58ee5873400dfe02a140f9e781a3c816fd07e575bd0534c951b86e03f69e34c5714056e4e43f863c36c603dae1116ba17d88a3fe5ec82a21ff2df485a2824bf59d8f73c7eb2aa61ef7704545058c8ab299bea4b343acab9546772285d56015b752046e947ec0f78abad053cbab4cd8cf9dae33901303bd31d67eb3feb34081a84e4576cf3694f3daea5afa8f82552296d2d3069b47f8d34c3e4d8afe9e010717214053565d797d888f999aa8abadca00080d5a5f66afb8c4e8f6fb1b959bafb0babfeb000d1c31383c499294b5b8bec7d7df000000000000000000000000000000000000000000000000000000121e263501",
        "0068e32b1630969247ee1a1db55450936b3ab2b7e4d65380cfd6a0e7119c16bd9c9f6fdf7f8d589f9bbb4918e58816fb961280a46deef7010e2d630e86cb3f213eca417d5bcb114272013e729a5d995c86d7b91eae9b4dedfb5717b684af644ba4e5edc10b1841e5cc5b0cc9693226da38be9c4497d14d9f7342718531121e4294406145fa86c6509a4c78baf56b5a11d4ea2c2a9bc0e70ab265cb27769414641086b9290836e4b9cbaba758dcc261a4392e2aa5b2063aa8ba2ecefd1912da1421f47d266a7a117022574620eb1d84f83604eea07395c4a1f1f437f32ef06431c94b176270c2a086eccf54fe54cfa36fe5ea856ac16c8cffc58d33d69b327241c467de60670b9dddd2611910496235c4d7ab3f6dcc360eb0e64a0e5b11d4934e038f78efbab76201b4a286c42696a6a3ff34d41c8c712d4918234e2dfc61f3a654829baf9075f1f0ef3411f0432a183204862c78178f8aa45b2e81caeadb7cb10107d341117cbdca9fc4a346eed315da8d813dcff10f47151950e0a4705b11d499d9e1b430bb3e2f5aaa801e089ea4dbe4999f2035bfe9d2d2acd537a5cf0e970467249a803460c10a990c446a9eaf2df44fdab13b32061ee54f6642144949fc984ae33fc6fb5a319fc2233092475ee7e0dcb81733e3227d6a2be54348961bf8abe8cca9bc89f2be995487211d3a3289176034e8edea52457e811eac45c063a216e7acb8ee91140f63722b2cb767835a827e76c06e5f17999ddb99672d68b02395a6ecb6e58e12014cc4d41b91775fa64d2c5eb4aadf13860e0d4630f97b20742e2745bc628182bb7e51e290a04de7a47efc1c5843f51e4df6360da3962f9c8540ac8e4b2e60092cc100f9a8a8008f4e5f287689ecd2ef98d043ca2c0955c5ce13b74e65d01de81ed72cd65b004c1b1e303193a7e937545d7164a8bf4da2c6479cfb258535dfb502fd79382376860ee22aec1d2dc734d7d8d5cf0b0b81ebe86f6d753798ace61a695e47bd0186bd305860b84ed03a780fd2422bbe8384a6958fd61290fad3bfeb44fdee568227d23e2c7165320318653f13dea8832a77b1d715ea6548a17253cb4bf77231948952b1738873d77bc61bedc1b427dcea223ca52170cb4d474a08455ccb3a188de28609a7060f6b67961caf268a5515bfee8d90264989b978312e9fd784afb747ca4ec17abc5e7095cfc2c5e52eaf334662ec8782322e09519725de0ef797f48d2ea3898bbb6893548116f58d247d1e49c76b329cdd2e94d228b1a2c2ceaab74a7099f80a5c6a705d7efa0ec335fc0e3815115072567ba35d35b4f1160938ab4c420d1318f1c4f53633bc8b9f6bc017309b87802181e6af4480c2745908de028ac3dec6ffb968553c8c9702adfe169a047f87431b0595a9e8d7a842455efcd95c1de93be4c837faf2a717050e7c41711a7d86be2b3d62cc2f6b0d2e165e7d01f9708f79ea82c3914f3672cbf17464a9b44e472666def7e1868bac5147a65dbd1100f83400697393b051ebf95adeb04bc79fc7af35938275b1a948e7bcad458af2503e797946b7d760672027cab04561a3f0ffeadac72ef725ae481e4577e0a89a1c5b3f5d7e49ef37fe83a2b9845bf26e34f16a45d9a4c1c800c7ceb07a8895ec8ec43e6a2024acdf4240e3df6fb6b53f3b81bcbf7f4fcd3b89bbe31e8b3099ff7a64220824f6ee977abba086b46a94790bdb4e629c4a8181273fceb8eb02e1df4b914eaa4a58719cdb134eb30e1c52df65e47ce775beb423e754b9a9b9e5b0e9251c7e5667be77c9d1c843df286a5af2651196375ea2230b45454011bd27512a6f1ac8fab8fe78709dae886d9c8261ae149c986072"
      ],
      "sequence": 4294967294
    }
  ],
  "vout": [
    {
      "value": 1.0,
      "n": 0,
      "scriptPubKey": {
        "asm": "OP_RETURN 840dd815dd6e51fcf9def129d79f23c009292c376164b8176f924f550726026e 1b470165e818e1b2000ae4eed89f46ccd68c84a6781e051d090df9a06ed6138d3b672145c838c192202ac4cef8bf66ecf6aca486583e253d292dd9804ef633ad5b074125a858a1f2404aa4ae98df068c96ccc4e6385e455d494db9e02e9653cd7b276105887881d2606a848eb8ff26acb6ece4c6187e657d696d99c00eb673ed9bc781e568986132808a646e581fc64c560c0426f89e859d898d7920ee56930dbbe7a1c548b84112a0aa444e783fe66c762c2406d8bea5bda9ad5900ce76b32ddb87c1a528d82172c0ca242e185f860c164c4466b8dec5ddc9cd3960ae16d34dfba7e18508f80152e0ea040e387fa62c366c644698fee5fde9ed19408e36f36d1b470165e818e1b2000ae4eed89f46ccd68c84a6781e051d090df9a06ed6138d3b672145c838c192202ac4cef8bf66ecf6aca486583e253d292dd9804ef633ad5b074125a858a1f2404aa4ae98df068c96ccc4e6385e455d494db9e02e9653cd7b276105887881d2606a848eb8ff26acb6ece4c6187e657d696d99c00eb673ed9bc781e568986132808a646e581fc64c560c0426f89e859d898d7920ee56930dbbe7a1c548b84112a0aa444e783fe66c762c2406d8bea5bda9ad5900ce76b32ddb87c1a528d82172c0ca242e185f860c164c4466b8dec5ddc9cd3960ae16d34dfba7e18508f80152e0ea040e387fa62c366c644698fee5fde9ed19408e36f36d1b470165e818e1b2000ae4eed89f46ccd68c84a6781e051d090df9a06ed6138d3b672145c838c192202ac4cef8bf66ecf6aca486583e253d292dd9804ef633ad5b074125a858a1f2404aa4ae98df068c96ccc4e6385e455d494db9e02e9653cd7b276105887881d2606a848eb8ff26acb6ece4c6187e657d696d99c00eb673ed9bc781e568986132808a646e581fc64c560c0426f89e859d898d7920ee56930dbbe7a1c548b84112a0aa444e783fe66c762c2406d8bea5bda9ad5900ce76b32ddb87c1a528d82172c0ca242e185f860c164c4466b8dec5ddc9cd3960ae16d34dfba7e18508f80152e0ea040e387fa62c366c644698fee5fde9ed19408e36f36d1b470165e818e1b2000ae4eed89f46ccd68c84a6781e051d090df9a06ed6138d3b672145c838c192202ac4cef8bf66ecf6aca486583e253d292dd9804ef633ad5b074125a858a1f2404aa4ae98df068c96ccc4e6385e455d494db9e02e9653cd7b276105887881d2606a848eb8ff26acb6ece4c6187e657d696d99c00eb673ed9bc781e568986132808a646e581fc64c560c0426f89e859d898d7920ee56930dbbe7a1c548b84112a0aa444e783fe66c762c2406d8bea5bda9ad5900ce76b32ddb87c1a528d82172c0ca242e185f860c164c4466b8dec5ddc9cd3960ae16d34dfba7e18508f80152e0ea040e387fa62c366c644698fee5fde9ed19408e36f36d1b470165e818e1b2000ae4eed89f46ccd68c84a6781e051d090df9a06ed6138d3b672145c838c192202ac4cef8bf66ecf6aca486583e253d292dd9804ef633ad5b074125a858a1f2404aa4ae98df068c96ccc4e6385e455d494db9e02e9653cd7b276105887881d2606a848eb8ff26acb6ece4c6187e657d696d99c00eb673ed9bc781e568986132808a646e581fc64c02eac0866fee441b8de2563826de73d2f0769b4cccea2f689898da3c985b2a20",
        "hex": "6a20840dd815dd6e51fcf9def129d79f23c009292c376164b8176f924f550726026e4db0041b470165e818e1b2000ae4eed89f46ccd68c84a6781e051d090df9a06ed6138d3b672145c838c192202ac4cef8bf66ecf6aca486583e253d292dd9804ef633ad5b074125a858a1f2404aa4ae98df068c96ccc4e6385e455d494db9e02e9653cd7b276105887881d2606a848eb8ff26acb6ece4c6187e657d696d99c00eb673ed9bc781e568986132808a646e581fc64c560c0426f89e859d898d7920ee56930dbbe7a1c548b84112a0aa444e783fe66c762c2406d8bea5bda9ad5900ce76b32ddb87c1a528d82172c0ca242e185f860c164c4466b8dec5ddc9cd3960ae16d34dfba7e18508f80152e0ea040e387fa62c366c644698fee5fde9ed19408e36f36d1b470165e818e1b2000ae4eed89f46ccd68c84a6781e051d090df9a06ed6138d3b672145c838c192202ac4cef8bf66ecf6aca486583e253d292dd9804ef633ad5b074125a858a1f2404aa4ae98df068c96ccc4e6385e455d494db9e02e9653cd7b276105887881d2606a848eb8ff26acb6ece4c6187e657d696d99c00eb673ed9bc781e568986132808a646e581fc64c560c0426f89e859d898d7920ee56930dbbe7a1c548b84112a0aa444e783fe66c762c2406d8bea5bda9ad5900ce76b32ddb87c1a528d82172c0ca242e185f860c164c4466b8dec5ddc9cd3960ae16d34dfba7e18508f80152e0ea040e387fa62c366c644698fee5fde9ed19408e36f36d1b470165e818e1b2000ae4eed89f46ccd68c84a6781e051d090df9a06ed6138d3b672145c838c192202ac4cef8bf66ecf6aca486583e253d292dd9804ef633ad5b074125a858a1f2404aa4ae98df068c96ccc4e6385e455d494db9e02e9653cd7b276105887881d2606a848eb8ff26acb6ece4c6187e657d696d99c00eb673ed9bc781e568986132808a646e581fc64c560c0426f89e859d898d7920ee56930dbbe7a1c548b84112a0aa444e783fe66c762c2406d8bea5bda9ad5900ce76b32ddb87c1a528d82172c0ca242e185f860c164c4466b8dec5ddc9cd3960ae16d34dfba7e18508f80152e0ea040e387fa62c366c644698fee5fde9ed19408e36f36d1b470165e818e1b2000ae4eed89f46ccd68c84a6781e051d090df9a06ed6138d3b672145c838c192202ac4cef8bf66ecf6aca486583e253d292dd9804ef633ad5b074125a858a1f2404aa4ae98df068c96ccc4e6385e455d494db9e02e9653cd7b276105887881d2606a848eb8ff26acb6ece4c6187e657d696d99c00eb673ed9bc781e568986132808a646e581fc64c560c0426f89e859d898d7920ee56930dbbe7a1c548b84112a0aa444e783fe66c762c2406d8bea5bda9ad5900ce76b32ddb87c1a528d82172c0ca242e185f860c164c4466b8dec5ddc9cd3960ae16d34dfba7e18508f80152e0ea040e387fa62c366c644698fee5fde9ed19408e36f36d1b470165e818e1b2000ae4eed89f46ccd68c84a6781e051d090df9a06ed6138d3b672145c838c192202ac4cef8bf66ecf6aca486583e253d292dd9804ef633ad5b074125a858a1f2404aa4ae98df068c96ccc4e6385e455d494db9e02e9653cd7b276105887881d2606a848eb8ff26acb6ece4c6187e657d696d99c00eb673ed9bc781e568986132808a646e581fc64c02eac0866fee441b8de2563826de73d2f0769b4cccea2f689898da3c985b2a20",
        "type": "nulldata"
      }
    },
    {
      "value": 499970.5099,
      "n": 1,
      "scriptPubKey": {
        "asm": "1 5eb956ce942fbb790ab70d976934a0371bf21a3b4cdfe8ce1886eb4bb2cd7a1a",
        "hex": "51205eb956ce942fbb790ab70d976934a0371bf21a3b4cdfe8ce1886eb4bb2cd7a1a",
        "reqSigs": 1,
        "type": "witness_v1_scripthash",
        "addresses": [
          "3QJmnh"
        ]
      }
    }
  ],
  "blockhash": "6d9c0c317b6a18c94c8dfa8ecf7920e3db1b4df4697afebc42d3fd28269e39fd",
  "confirmations": 1,
  "time": 1764181315,
  "blocktime": 1764181315
}