{
  "hex": "01000000000101b2c02733f689df59096d46e9c2ba73fda5095d0e68722d6ff68c6e0d18565f680000000000feffffff02c0cc030f792d00002251208a67486a6f10ba200df848aacbaa215343a1c0a481ab940b57716de0af49ff4c00e1f50500000000fdd5046a20e64522f63df09112381fc8a6ae84413b7e5526ad9d232d8061fa73b8e02de41c4db0046e7f1899bbdb4148066ad746235d028f4b5db9b83dae2d796cb0c869121505b04e5f38b99bfb6168264af766037d22af6b7d99981d8e0d594c90e849323525902e3f58d9fb9b0108462a9706631d42cf0b1df9f87dee6d392cf08829525545f00e1f78f9dbbb2128660ab726433d62ef2b3dd9d85dce4d190cd0a809727565d0eeff98193b5bc1c886ea57c6a3dd820fcbdd3938bd2eadf9ec3048e992958530cedfb8391b7be1e8a6ca77e683fda22febfd19189d0e8dd9cc1068c9b2b5a510aebfd8597b1b8188c6aa1786e39dc24f8b9d7978fd6eedb9ac7008a9d2d5c5708e9ff8795b3ba1a8e68a37a6c3bde26fabbd5958dd4ecd998c502889f2f5e5506e7f1899bbdb4148066ad746235d028f4b5db9b83dae2d796cb0c869121505b04e5f38b99bfb6168264af766037d22af6b7d99981d8e0d594c90e849323525902e3f58d9fb9b0108462a9706631d42cf0b1df9f87dee6d392cf08829525545f00e1f78f9dbbb2128660ab726433d62ef2b3dd9d85dce4d190cd0a809727565d0eeff98193b5bc1c886ea57c6a3dd820fcbdd3938bd2eadf9ec3048e992958530cedfb8391b7be1e8a6ca77e683fda22febfd19189d0e8dd9cc1068c9b2b5a510aebfd8597b1b8188c6aa1786e39dc24f8b9d7978fd6eedb9ac7008a9d2d5c5708e9ff8795b3ba1a8e68a37a6c3bde26fabbd5958dd4ecd998c502889f2f5e5506e7f1899bbdb4148066ad746235d028f4b5db9b83dae2d796cb0c869121505b04e5f38b99bfb6168264af766037d22af6b7d99981d8e0d594c90e849323525902e3f58d9fb9b0108462a9706631d42cf0b1df9f87dee6d392cf08829525545f00e1f78f9dbbb2128660ab726433d62ef2b3dd9d85dce4d190cd0a809727565d0eeff98193b5bc1c886ea57c6a3dd820fcbdd3938bd2eadf9ec3048e992958530cedfb8391b7be1e8a6ca77e683fda22febfd19189d0e8dd9cc1068c9b2b5a510aebfd8597b1b8188c6aa1786e39dc24f8b9d7978fd6eedb9ac7008a9d2d5c5708e9ff8795b3ba1a8e68a37a6c3bde26fabbd5958dd4ecd998c502889f2f5e5506e7f1899bbdb4148066ad746235d028f4b5db9b83dae2d796cb0c869121505b04e5f38b99bfb6168264af766037d22af6b7d99981d8e0d594c90e849323525902e3f58d9fb9b0108462a9706631d42cf0b1df9f87dee6d392cf08829525545f00e1f78f9dbbb2128660ab726433d62ef2b3dd9d85dce4d190cd0a809727565d0eeff98193b5bc1c886ea57c6a3dd820fcbdd3938bd2eadf9ec3048e992958530cedfb8391b7be1e8a6ca77e683fda22febfd19189d0e8dd9cc1068c9b2b5a510aebfd8597b1b8188c6aa1786e39dc24f8b9d7978fd6eedb9ac7008a9d2d5c5708e9ff8795b3ba1a8e68a37a6c3bde26fabbd5958dd4ecd998c502889f2f5e5506e7f1899bbdb4148066ad746235d028f4b5db9b83dae2d796cb0c869121505b04e5f38b99bfb6168264af766037d22af6b7d99981d8e0d594c90e849323525902e3f58d9fb9b0108462a9706631d42cf0b1df9f87dee6d392cf08829525545f00e1f78f9dbbb2128660ab726433d62ef2b3dd9d85dce4d190cd0a809727565d0eeff98193b5bc1c886ea57c6a3dd820ff6ff8b8a438f6d11daf59247001a1e5c963ec8e45fa3100e18e78b8b52d3b85902fd75098859e1c3ac4e82cdff1459b47b4d99f92b77b9227617439f5ed17b4b44647529e7849ece31fe90d170ab509078466a52a46be46dc3906998a43a9b0371cf8a0f16ee709839e043f257d7fa4e1e30d727073376f21782c1e57283309060a0ab59ac5f23bbe9ab730a9a17b41db145d6d3c1cf412551009c95fc963f55f4ccbacbc80c0aaf302d991f38c71c9005a003b2a0228fdf00ef80aaa40c9af91aa9a8ffcdcd66bf589811955412707005dd9a096f1c783da87a97b5d3d35dba46b492f8f2c5f6fe4aa9d59b54ccc523af276af28a10ceeb35347d017f8c7ffa36d5f3b82e5fa68e182e6e72123ee7cd0adf0dc2aedf376daa2ce986cc9783918d8af4bed896890651486f5dc9ee605522125ee76a0fc9ed29d6bfdd58a0892ff361304f9ae4245311461017b490a55bfdb92761ef397a79fa5d1f8ce7135f1a1b5f23f4aba619da886f2209c7c8b5c60c6fee7a56d04b2e358d406f9f5d54d5973e2e9d2423e9f357bcc05a1e96ef5bfc98ca62f140d1df30295f6ad8398e626ddf620c2913c9d0dabb7f347374f8dd4223f4029e92f1ef0c9379322a1444e7e326c021e06d7144b136de889097d698d20860c1397d04a8b020f536d9381a762754f22d5d1a879b54ed7979bb55d8a550e582aa496ab851dcb6b61e9c92460db7b8cce184dfd1ce4c711cc708f878ef443cc4d1a07f0b5374fd19f35e81d276a58c9a924596aa6e849736afdd5e8ea59ce14c48df6a4caa4b8bb1ef10aa2f5b1dd6a530a0454e72aaad8aa1fb8044d2ef07427a6a4d733fe0ac206a0375ec75dd9da9eba65e162d06a2f78479659e666cc472de924cdb256d7722d02e11011fbf502780f5cedc64af07bba9137502ee61d86102edd90d191337e5a5f5820f1f7e5e25fcf34f07f3017073f35d0cc2ef3de16cc065ef0dcc5e9344e988270c74c10ee3356786dfd6cfabe7b363fab46197b806c5742ad4d747129620ab97a8b5c46d23cb7cebd91f670a76ed100a19defebb15b9cd7c6e63433b610542966fab949fde3cabba1ceef5e8defde6fbd01f7b806c34aa56c1d83f0d9fc758620c7506ca4d7865c5439832e10104f6be7479cf5721471db01cadc916371a0c6422c1fdd4c34ce574de7fff33cf6e855e7db111aafbad16d975b5c26c0c82b854c3d5eab055bca02563cfc3da044e6ea725cc5485c5f8209baad77efaa88bcf94fff1918f1229ef1869013f73578cf73eae800f22f27938138566c4a5fc5c33773e613c52fc250cfffb8834cfa34f0b93e8e39357fd4bb23fce06af9b6c1c0eaff597de826df2b6da5f34a86ba049a0df1e1e270efed5868dce9744dea06424a2e6c50d9df74ffb81e4923418163a2aaa5c07d04c504ce12f776925b24b76d47bb3da56b2062bef698b1ddb3444206c375e988e822905be42bb4eebea353df7258e5cc6142e1482e1c32cfaad007bffff658fea20aa711bb8d60c9693a0e5bac60dbb74d95db52887bb54047e09fc285fb79c1fcf224b0f28f7c183232f4c90fe66fb3730453b9a42799c0ccb0f434b983c4287892527ab6d5a52f11ab9cff2231fdebf796c788de044d4db6fcaaacae55c748a3299c297c7b5318156d1a9bd0b81f71da1cea5495d23413278e20ec8d731c7b114b8d06b63303a2126ac3e37048eb30371a1a88a8076f4196bd7ee0705beeaeee6b981e6e2ba3ea8b76b515405a5fa6fae933a943738e0daee42057dcbb2b24bbbfc76187800e9e9509583be361b00b24f839da2d55fa1d3e62ae73b7a1c405a7a73b075dea3abb518984e05466a0f5f28e35a48e3b9c70dcd05333fe4cedb7501ecbfcd76527d38f6650c87d08ee328ec4058a6fbc891b9c1a9aec8e69d09f6bb709bfaee6c45dd70470609c7bc941d4555c76d16bf88e2c5a3731f10c1e56686ffb3aab47b4c36ea24be36eb9498e4518fbd25d5eaeee6d7d20a5d96c79057bca5ac7e89d7e11ae402647beb688c900cc83e7c205d621393c31e759c208adcf6a7bebd91a82adc446d05803ace0291bff1d6de85173b911ec6f7f59bb003d9af5373554adf099ff0cfaabaee2e69157130b8aa0031ee9d69ba8c5ffb268953ca19cedc0f691cea295a7eb73396d44e15aab9fd7556403ff56b00d878fe062312f4f6e40dfa2a8615e3f90d7e8514215a07928e9357e4821e9b59a4bd24c1fec46fe144369094986f8c964f21f6b92a0f24d9ffeaf61e48a8514209bc2abf6f997bdf8e514bb960c6e89d6ac7eb381187ded18b365d69b05b151e7cfe1f96e87a4246a5af64d00aea0d1855068155307de126df741bc5b73c935a398d434f698ad58dd1787ae88cdbcfdd3c88c9d20290ab03e6a796a39764636dbb3b01f83a6a43351171996f740197efd5b77c3f367e6ebe671455bc358eea5635d95518e19df9f0d3fbdf32aaf07a517079fd7edf471d7ffc1e584e1eff82bb1e14247dd07c7ee0cedf1d807eef487265bfa3dd4d83bc1187d2391071326fd5bf8c785bb6806231dac400184f1b4f1697ed0693eae3ca8089ee202e242cf1707c300dceebbdbd3640c5e43a546d5a866bc20bf678db8ee1fe5a90e9c9ea4fe955e6871c93afa4af88ccc2cb1a4c13be09aabb464bcecfad5ac994d3c1047337d190ac4afc1b4b13de311f3fe7ab480bfa8f5b5578bd70a34a2f45c655928857c1f67a5b6233d94b7d1dacdccd4b60e49ffc2000889d7445d5e53e69798667f954f906987ab7d0feaa1732ca73db7d7db39771df1fb09f9f7f0a0ecccf5df2eab078bf5d3c76ed683ed8dd1af51750c1577b8528bce2d18e6dd66363957f41db052491555e19a4911a983ae77901b5d0cecd58f9ba70bc5d3a011c7aa3fbe6f134c78bc506474f2feb754426556de357929b25e2f52cacba6c79e9dd9dd788d6357c0137d05f93a6b1e997da944e1024d111b84da4f1bb5cf36c6e357a75e5bfb46b26ab90b96f77df7a4e924a21432cefbdda5b6344b8cfda93205cab50252449d8f424856e8f2213a8d21c705e578b9d80956583e3afd89c8b8f3391afcd1daca4d7d8dee72f5660bfa9258b3ce2a912f7d389cc830b594e33798ae768b9e9f3bbad69dc24cf058b46abfb31a6045c9ba7204a73c743acabed1d0e281509c7f8ffa0761375efb40f85390df6487dff4230a439b23cbd830665b1108a9f81ab8ad91e0cabf23c41675cb70ad953a8ff62d41c8a6c5e2034d920de4fba8f10074f0d58012491ed53451ab5856cca83951155374965a8848dbffbd38a9d72b94dc3adc8e19b2eec81b253bc0bff48ead176d56ea3beaef2ef0c10243476acb7e4020d10161d22385180929d9fa6afc5d2e2e80b252d404682a3bfc4d4dbdce0e9202431394057587f84888a9da0abb3b8c1c6d6000000000000000000000000000000000000000000081a283b01fd2105002dff68dd488295817081b2d27cb422f21f53d4a916f36515ea2d7c828dec89586ccfe88b3c19589fde630461ee989b86a22204631d4869d7411dc691c62b81c5230de78eebcf903dcb27db6144e870e8a57f11ea3a5b4cc247cb12df6dbf3538e5faa450d5ae86c199c98c8a3a3b81c8143d2167ca250f92e26e8536d93726f193f518e10880495432940c76241dbfc90b8c9105adfbf9f1b2ab8483bf0b11b50fd75fcdf262abc30ee2f885d1dcdfc4db2fb0bb226cc0c49673cd8fac04727a0f0e33dc6e28c71c077ed544f339d54be51ed9b216a8563554b78c03b7d1f9b27f542bbe15ece1361b5575bf0634e4fdca9c87761aa30cf1bf75509b26df2f724e5e7858cde68e3537b979f5d02755b08439c2d39b00c7032e3e0437fcc76f21083457f5df98b8e5fdcf2ade1e527541e93926757dd67954f73ee9279ec009a37a96f282a0f3c5ba95dba87abd8d96579cb5994d6e7afed8993db346da8adb70081d5e634b04c8f581e18736abada86123b036c507c78022d635360ed570b0cd041f749bf9b73165fe685e99f3dde830a449732340467f3104721ade98bebd4a36b49afc065aaf074600021e3afa8b9aa84209b2213f54caf94db48d4f9499b71e90ca78223f992fd1847a9d45ecb4e2a053ae8a3621f39920b6f4856ab25f375aca5e1ec827b2557a99bfe2291628410d60567a308f3e12af8a4a8aff5364d9ff165cc8bae33f28eaddb64b28ccfb49c53a14ff1c5c03132786d2022b5b9433dc68576fcab89911269322909a59fc468bfc8c62874c78e6d373ae1136e1374c2e3a1a2286dfac60ee8b58367cdf5034483f450641235059b99cb9e15bb5053f49b70fdb6f57e8548a5975d8394f97b170c3c99386e873f98c83280cda8217a9a47ec510db09800f28370c76b7278fed394b51b2a2a1f44d40518f7224cb5c36c3e5bdda8d9428fd00167a3c1430bb458fe9756cd79572960410fad033f6b3291b7476a8e79e4f40fc6ce6ad6adb7f54959e8184c15eae24af2c1da3e2f1e1945fbe254ebf50dbfa524e31602d02c57e312a9b321f72f2de03222b0f88f1095e98bea157617ff2e781ee9ffce3d2248fc588dc7ecfe73047039aafd9df30e07dadb5c9f8dedc8c598e994194d8d047cdd65d353eb46f6bfdbdf8c538b8296a29d2c8ade893a367bc4fd8f1ed062a6e17813c103f2389aac54cabe5c49c71ff4ee9e2e40cb5a2a0d5c878b058f04375bca347c46088c5a1cb297a3f31571aec6b191451106d4089819556d75c0e2d3b6f628d60d8550ba5ab95c3f50e4a10f55d78106288d38e99e6dee97e47bf36140c24fd004ca11a3ac1708e4a6f547e5e7f8b3bb05d08bc42793455eba5d13ac1038d58996bd3470ef3d33bb00c9b589250acc336a51980b06a2df98a5de436ad1b95755f46a3282b144d845fc403eb154260911f7c93036ae7dd2634752506d64d3db29d3ffaa98b1ede93ccf495a9858fc3959106f558e65d2d532bb66ac16b690486527c8f0b23bfd8a357655e82fa948f4a1807fdb984bbce58a988b4a675068b4595acab957b5842799ecc7107c1cdf337392d9313ec670f801b5deb8036012e2dd73827c504f6e83a53a94a695ff3729e1dffa979c9e4f8e08891033b1dbea2e5227e55f7d36add798b6212ec48256c3650eac20317e5d38c0544b246fcc4834bce054dc5cb38f66a2cd14abd512dd3ad828aa13952f5634626b6cb16dda2779c8db39290551de53fee55bdbc875251446dd0bce832c9a530644e73dd464abe9ef438887eb0c7e7bf9bbc89a2d1750c91f51f7c2c404899fe2c897c7217920e12a06d345260ac26bf22c6cddfdd527c000000",
  "txid": "041b32da370a92bc1b1bb0b71e6192edb91541cc56847a4acfb9527e5c174e91",
  "hash": "eee9edc4b52f635ec04a10fb0323e03f457322a34a9492cf9630f8cdc1857c4d",
  "size": 5085,
  "vsize": 2278,
  "version": 1,
  "locktime": 124,
  "vin": [
    {
      "txid": "685f56180d6e8cf66f2d72680e5d09a5fd73bac2e9466d0959df89f63327c0b2",
      "vout": 0,
      "scriptSig": {
        "asm": "",
        "hex": ""
      },
      "txinwitness": [
        "8859e1c3ac4e82cdff1459b47b4d99f92b77b9227617439f5ed17b4b44647529e7849ece31fe90d170ab509078466a52a46be46dc3906998a43a9b0371cf8a0f16ee709839e043f257d7fa4e1e30d727073376f21782c1e57283309060a0ab59ac5f23bbe9ab730a9a17b41db145d6d3c1cf412551009c95fc963f55f4ccbacbc80c0aaf302d991f38c71c9005a003b2a0228fdf00ef80aaa40c9af91aa9a8ffcdcd66bf589811955412707005dd9a096f1c783da87a97b5d3d35dba46b492f8f2c5f6fe4aa9d59b54ccc523af276af28a10ceeb35347d017f8c7ffa36d5f3b82e5fa68e182e6e72123ee7cd0adf0dc2aedf376daa2ce986cc9783918d8af4bed896890651486f5dc9ee605522125ee76a0fc9ed29d6bfdd58a0892ff361304f9ae4245311461017b490a55bfdb92761ef397a79fa5d1f8ce7135f1a1b5f23f4aba619da886f2209c7c8b5c60c6fee7a56d04b2e358d406f9f5d54d5973e2e9d2423e9f357bcc05a1e96ef5bfc98ca62f140d1df30295f6ad8398e626ddf620c2913c9d0dabb7f347374f8dd4223f4029e92f1ef0c9379322a1444e7e326c021e06d7144b136de889097d698d20860c1397d04a8b020f536d9381a762754f22d5d1a879b54ed7979bb55d8a550e582aa496ab851dcb6b61e9c92460db7b8cce184dfd1ce4c711cc708f878ef443cc4d1a07f0b5374fd19f35e81d276a58c9a924596aa6e849736afdd5e8ea59ce14c48df6a4caa4b8bb1ef10aa2f5b1dd6a530a0454e72aaad8aa1fb8044d2ef07427a6a4d733fe0ac206a0375ec75dd9da9eba65e162d06a2f78479659e666cc472de924cdb256d7722d02e11011fbf502780f5cedc64af07bba9137502ee61d86102edd90d191337e5a5f5820f1f7e5e25fcf34f07f3017073f35d0cc2ef3de16cc065ef0dcc5e9344e988270c74c10ee3356786dfd6cfabe7b363fab46197b806c5742ad4d747129620ab97a8b5c46d23cb7cebd91f670a76ed100a19defebb15b9cd7c6e63433b610542966fab949fde3cabba1ceef5e8defde6fbd01f7b806c34aa56c1d83f0d9fc758620c7506ca4d7865c5439832e10104f6be7479cf5721471db01cadc916371a0c6422c1fdd4c34ce574de7fff33cf6e855e7db111aafbad16d975b5c26c0c82b854c3d5eab055bca02563cfc3da044e6ea725cc5485c5f8209baad77efaa88bcf94fff1918f1229ef1869013f73578cf73eae800f22f27938138566c4a5fc5c33773e613c52fc250cfffb8834cfa34f0b93e8e39357fd4bb23fce06af9b6c1c0eaff597de826df2b6da5f34a86ba049a0df1e1e270efed5868dce9744dea06424a2e6c50d9df74ffb81e4923418163a2aaa5c07d04c504ce12f776925b24b76d47bb3da56b2062bef698b1ddb3444206c375e988e822905be42bb4eebea353df7258e5cc6142e1482e1c32cfaad007bffff658fea20aa711bb8d60c9693a0e5bac60dbb74d95db52887bb54047e09fc285fb79c1fcf224b0f28f7c183232f4c90fe66fb3730453b9a42799c0ccb0f434b983c4287892527ab6d5a52f11ab9cff2231fdebf796c788de044d4db6fcaaacae55c748a3299c297c7b5318156d1a9bd0b81f71da1cea5495d23413278e20ec8d731c7b114b8d06b63303a2126ac3e37048eb30371a1a88a8076f4196bd7ee0705beeaeee6b981e6e2ba3ea8b76b515405a5fa6fae933a943738e0daee42057dcbb2b24bbbfc76187800e9e9509583be361b00b24f839da2d55fa1d3e62ae73b7a1c405a7a73b075dea3abb518984e05466a0f5f28e35a48e3b9c70dcd05333fe4cedb7501ecbfcd76527d38f6650c87d08ee328ec4058a6fbc891b9c1a9aec8e69d09f6bb709bfaee6c45dd70470609c7bc941d4555c76d16bf88e2c5a3731f10c1e56686ffb3aab47b4c36ea24be36eb9498e4518fbd25d5eaeee6d7d20a5d96c79057bca5ac7e89d7e11ae402647beb688c900cc83e7c205d621393c31e759c208adcf6a7bebd91a82adc446d05803ace0291bff1d6de85173b911ec6f7f59bb003d9af5373554adf099ff0cfaabaee2e69157130b8aa0031ee9d69ba8c5ffb268953ca19cedc0f691cea295a7eb73396d44e15aab9fd7556403ff56b00d878fe062312f4f6e40dfa2a8615e3f90d7e8514215a07928e9357e4821e9b59a4bd24c1fec46fe144369094986f8c964f21f6b92a0f24d9ffeaf61e48a8514209bc2abf6f997bdf8e514bb960c6e89d6ac7eb381187ded18b365d69b05b151e7cfe1f96e87a4246a5af64d00aea0d1855068155307de126df741bc5b73c935a398d434f698ad58dd1787ae88cdbcfdd3c88c9d20290ab03e6a796a39764636dbb3b01f83a6a43351171996f740197efd5b77c3f367e6ebe671455bc358eea5635d95518e19df9f0d3fbdf32aaf07a517079fd7edf471d7ffc1e584e1eff82bb1e14247dd07c7ee0cedf1d807eef487265bfa3dd4d83bc1187d2391071326fd5bf8c785bb6806231dac400184f1b4f1697ed0693eae3ca8089ee202e242cf1707c300dceebbdbd3640c5e43a546d5a866bc20bf678db8ee1fe5a90e9c9ea4fe955e6871c93afa4af88ccc2cb1a4c13be09aabb464bcecfad5ac994d3c1047337d190ac4afc1b4b13de311f3fe7ab480bfa8f5b5578bd70a34a2f45c655928857c1f67a5b6233d94b7d1dacdccd4b60e49ffc2000889d7445d5e53e69798667f954f906987ab7d0feaa1732ca73db7d7db39771df1fb09f9f7f0a0ecccf5df2eab078bf5d3c76ed683ed8dd1af51750c1577b8528bce2d18e6dd66363957f41db052491555e19a4911a983ae77901b5d0cecd58f9ba70bc5d3a011c7aa3fbe6f134c78bc506474f2feb754426556de357929b25e2f52cacba6c79e9dd9dd788d6357c0137d05f93a6b1e997da944e1024d111b84da4f1bb5cf36c6e357a75e5bfb46b26ab90b96f77df7a4e924a21432cefbdda5b6344b8cfda93205cab50252449d8f424856e8f2213a8d21c705e578b9d80956583e3afd89c8b8f3391afcd1daca4d7d8dee72f5660bfa9258b3ce2a912f7d389cc830b594e33798ae768b9e9f3bbad69dc24cf058b46abfb31a6045c9ba7204a73c743acabed1d0e281509c7f8ffa0761375efb40f85390df6487dff4230a439b23cbd830665b1108a9f81ab8ad91e0cabf23c41675cb70ad953a8ff62d41c8a6c5e2034d920de4fba8f10074f0d58012491ed53451ab5856cca83951155374965a8848dbffbd38a9d72b94dc3adc8e19b2eec81b253bc0bff48ead176d56ea3beaef2ef0c10243476acb7e4020d10161d22385180929d9fa6afc5d2e2e80b252d404682a3bfc4d4dbdce0e9202431394057587f84888a9da0abb3b8c1c6d6000000000000000000000000000000000000000000081a283b01",
        "002dff68dd488295817081b2d27cb422f21f53d4a916f36515ea2d7c828dec89586ccfe88b3c19589fde630461ee989b86a22204631d4869d7411dc691c62b81c5230de78eebcf903dcb27db6144e870e8a57f11ea3a5b4cc247cb12df6dbf3538e5faa450d5ae86c199c98c8a3a3b81c8143d2167ca250f92e26e8536d93726f193f518e10880495432940c76241dbfc90b8c9105adfbf9f1b2ab8483bf0b11b50fd75fcdf262abc30ee2f885d1dcdfc4db2fb0bb226cc0c49673cd8fac04727a0f0e33dc6e28c71c077ed544f339d54be51ed9b216a8563554b78c03b7d1f9b27f542bbe15ece1361b5575bf0634e4fdca9c87761aa30cf1bf75509b26df2f724e5e7858cde68e3537b979f5d02755b08439c2d39b00c7032e3e0437fcc76f21083457f5df98b8e5fdcf2ade1e527541e93926757dd67954f73ee9279ec009a37a96f282a0f3c5ba95dba87abd8d96579cb5994d6e7afed8993db346da8adb70081d5e634b04c8f581e18736abada86123b036c507c78022d635360ed570b0cd041f749bf9b73165fe685e99f3dde830a449732340467f3104721ade98bebd4a36b49afc065aaf074600021e3afa8b9aa84209b2213f54caf94db48d4f9499b71e90ca78223f992fd1847a9d45ecb4e2a053ae8a3621f39920b6f4856ab25f375aca5e1ec827b2557a99bfe2291628410d60567a308f3e12af8a4a8aff5364d9ff165cc8bae33f28eaddb64b28ccfb49c53a14ff1c5c03132786d2022b5b9433dc68576fcab89911269322909a59fc468bfc8c62874c78e6d373ae1136e1374c2e3a1a2286dfac60ee8b58367cdf5034483f450641235059b99cb9e15bb5053f49b70fdb6f57e8548a5975d8394f97b170c3c99386e873f98c83280cda8217a9a47ec510db09800f28370c76b7278fed394b51b2a2a1f44d40518f7224cb5c36c3e5bdda8d9428fd00167a3c1430bb458fe9756cd79572960410fad033f6b3291b7476a8e79e4f40fc6ce6ad6adb7f54959e8184c15eae24af2c1da3e2f1e1945fbe254ebf50dbfa524e31602d02c57e312a9b321f72f2de03222b0f88f1095e98bea157617ff2e781ee9ffce3d2248fc588dc7ecfe73047039aafd9df30e07dadb5c9f8dedc8c598e994194d8d047cdd65d353eb46f6bfdbdf8c538b8296a29d2c8ade893a367bc4fd8f1ed062a6e17813c103f2389aac54cabe5c49c71ff4ee9e2e40cb5a2a0d5c878b058f04375bca347c46088c5a1cb297a3f31571aec6b191451106d4089819556d75c0e2d3b6f628d60d8550ba5ab95c3f50e4a10f55d78106288d38e99e6dee97e47bf36140c24fd004ca11a3ac1708e4a6f547e5e7f8b3bb05d08bc42793455eba5d13ac1038d58996bd3470ef3d33bb00c9b589250acc336a51980b06a2df98a5de436ad1b95755f46a3282b144d845fc403eb154260911f7c93036ae7dd2634752506d64d3db29d3ffaa98b1ede93ccf495a9858fc3959106f558e65d2d532bb66ac16b690486527c8f0b23bfd8a357655e82fa948f4a1807fdb984bbce58a988b4a675068b4595acab957b5842799ecc7107c1cdf337392d9313ec670f801b5deb8036012e2dd73827c504f6e83a53a94a695ff3729e1dffa979c9e4f8e08891033b1dbea2e5227e55f7d36add798b6212ec48256c3650eac20317e5d38c0544b246fcc4834bce054dc5cb38f66a2cd14abd512dd3ad828aa13952f5634626b6cb16dda2779c8db39290551de53fee55bdbc875251446dd0bce832c9a530644e73dd464abe9ef438887eb0c7e7bf9bbc89a2d1750c91f51f7c2c404899fe2c897c7217920e12a06d345260ac26bf22c6cddfdd52"
      ],
      "sequence": 4294967294
    }
  ],
  "vout": [
    {
      "value": 499979.662,
      "n": 0,
      "scriptPubKey": {
        "asm": "1 8a67486a6f10ba200df848aacbaa215343a1c0a481ab940b57716de0af49ff4c",
        "hex": "51208a67486a6f10ba200df848aacbaa215343a1c0a481ab940b57716de0af49ff4c",
        "reqSigs": 1,
        "type": "witness_v1_scripthash",
        "addresses": [
          "3QJmnh"
        ]
      }
    },
    {
      "value": 1.0,
      "n": 1,
      "scriptPubKey": {
        "asm": "OP_RETURN e64522f63df09112381fc8a6ae84413b7e5526ad9d232d8061fa73b8e02de41c 6e7f1899bbdb4148066ad746235d028f4b5db9b83dae2d796cb0c869121505b04e5f38b99bfb6168264af766037d22af6b7d99981d8e0d594c90e849323525902e3f58d9fb9b0108462a9706631d42cf0b1df9f87dee6d392cf08829525545f00e1f78f9dbbb2128660ab726433d62ef2b3dd9d85dce4d190cd0a809727565d0eeff98193b5bc1c886ea57c6a3dd820fcbdd3938bd2eadf9ec3048e992958530cedfb8391b7be1e8a6ca77e683fda22febfd19189d0e8dd9cc1068c9b2b5a510aebfd8597b1b8188c6aa1786e39dc24f8b9d7978fd6eedb9ac7008a9d2d5c5708e9ff8795b3ba1a8e68a37a6c3bde26fabbd5958dd4ecd998c502889f2f5e5506e7f1899bbdb4148066ad746235d028f4b5db9b83dae2d796cb0c869121505b04e5f38b99bfb6168264af766037d22af6b7d99981d8e0d594c90e849323525902e3f58d9fb9b0108462a9706631d42cf0b1df9f87dee6d392cf08829525545f00e1f78f9dbbb2128660ab726433d62ef2b3dd9d85dce4d190cd0a809727565d0eeff98193b5bc1c886ea57c6a3dd820fcbdd3938bd2eadf9ec3048e992958530cedfb8391b7be1e8a6ca77e683fda22febfd19189d0e8dd9cc1068c9b2b5a510aebfd8597b1b8188c6aa1786e39dc24f8b9d7978fd6eedb9ac7008a9d2d5c5708e9ff8795b3ba1a8e68a37a6c3bde26fabbd5958dd4ecd998c502889f2f5e5506e7f1899bbdb4148066ad746235d028f4b5db9b83dae2d796cb0c869121505b04e5f38b99bfb6168264af766037d22af6b7d99981d8e0d594c90e849323525902e3f58d9fb9b0108462a9706631d42cf0b1df9f87dee6d392cf08829525545f00e1f78f9dbbb2128660ab726433d62ef2b3dd9d85dce4d190cd0a809727565d0eeff98193b5bc1c886ea57c6a3dd820fcbdd3938bd2eadf9ec3048e992958530cedfb8391b7be1e8a6ca77e683fda22febfd19189d0e8dd9cc1068c9b2b5a510aebfd8597b1b8188c6aa1786e39dc24f8b9d7978fd6eedb9ac7008a9d2d5c5708e9ff8795b3ba1a8e68a37a6c3bde26fabbd5958dd4ecd998c502889f2f5e5506e7f1899bbdb4148066ad746235d028f4b5db9b83dae2d796cb0c869121505b04e5f38b99bfb6168264af766037d22af6b7d99981d8e0d594c90e849323525902e3f58d9fb9b0108462a9706631d42cf0b1df9f87dee6d392cf08829525545f00e1f78f9dbbb2128660ab726433d62ef2b3dd9d85dce4d190cd0a809727565d0eeff98193b5bc1c886ea57c6a3dd820fcbdd3938bd2eadf9ec3048e992958530cedfb8391b7be1e8a6ca77e683fda22febfd19189d0e8dd9cc1068c9b2b5a510aebfd8597b1b8188c6aa1786e39dc24f8b9d7978fd6eedb9ac7008a9d2d5c5708e9ff8795b3ba1a8e68a37a6c3bde26fabbd5958dd4ecd998c502889f2f5e5506e7f1899bbdb4148066ad746235d028f4b5db9b83dae2d796cb0c869121505b04e5f38b99bfb6168264af766037d22af6b7d99981d8e0d594c90e849323525902e3f58d9fb9b0108462a9706631d42cf0b1df9f87dee6d392cf08829525545f00e1f78f9dbbb2128660ab726433d62ef2b3dd9d85dce4d190cd0a809727565d0eeff98193b5bc1c886ea57c6a3dd820ff6ff8b8a438f6d11daf59247001a1e5c963ec8e45fa3100e18e78b8b52d3b859",
        "hex": "6a20e64522f63df09112381fc8a6ae84413b7e5526ad9d232d8061fa73b8e02de41c4db0046e7f1899bbdb4148066ad746235d028f4b5db9b83dae2d796cb0c869121505b04e5f38b99bfb6168264af766037d22af6b7d99981d8e0d594c90e849323525902e3f58d9fb9b0108462a9706631d42cf0b1df9f87dee6d392cf08829525545f00e1f78f9dbbb2128660ab726433d62ef2b3dd9d85dce4d190cd0a809727565d0eeff98193b5bc1c886ea57c6a3dd820fcbdd3938bd2eadf9ec3048e992958530cedfb8391b7be1e8a6ca77e683fda22febfd19189d0e8dd9cc1068c9b2b5a510aebfd8597b1b8188c6aa1786e39dc24f8b9d7978fd6eedb9ac7008a9d2d5c5708e9ff8795b3ba1a8e68a37a6c3bde26fabbd5958dd4ecd998c502889f2f5e5506e7f1899bbdb4148066ad746235d028f4b5db9b83dae2d796cb0c869121505b04e5f38b99bfb6168264af766037d22af6b7d99981d8e0d594c90e849323525902e3f58d9fb9b0108462a9706631d42cf0b1df9f87dee6d392cf08829525545f00e1f78f9dbbb2128660ab726433d62ef2b3dd9d85dce4d190cd0a809727565d0eeff98193b5bc1c886ea57c6a3dd820fcbdd3938bd2eadf9ec3048e992958530cedfb8391b7be1e8a6ca77e683fda22febfd19189d0e8dd9cc1068c9b2b5a510aebfd8597b1b8188c6aa1786e39dc24f8b9d7978fd6eedb9ac7008a9d2d5c5708e9ff8795b3ba1a8e68a37a6c3bde26fabbd5958dd4ecd998c502889f2f5e5506e7f1899bbdb4148066ad746235d028f4b5db9b83dae2d796cb0c869121505b04e5f38b99bfb6168264af766037d22af6b7d99981d8e0d594c90e849323525902e3f58d9fb9b0108462a9706631d42cf0b1df9f87dee6d392cf08829525545f00e1f78f9dbbb2128660ab726433d62ef2b3dd9d85dce4d190cd0a809727565d0eeff98193b5bc1c886ea57c6a3dd820fcbdd3938bd2eadf9ec3048e992958530cedfb8391b7be1e8a6ca77e683fda22febfd19189d0e8dd9cc1068c9b2b5a510aebfd8597b1b8188c6aa1786e39dc24f8b9d7978fd6eedb9ac7008a9d2d5c5708e9ff8795b3ba1a8e68a37a6c3bde26fabbd5958dd4ecd998c502889f2f5e5506e7f1899bbdb4148066ad746235d028f4b5db9b83dae2d796cb0c869121505b04e5f38b99bfb6168264af766037d22af6b7d99981d8e0d594c90e849323525902e3f58d9fb9b0108462a9706631d42cf0b1df9f87dee6d392cf08829525545f00e1f78f9dbbb2128660ab726433d62ef2b3dd9d85dce4d190cd0a809727565d0eeff98193b5bc1c886ea57c6a3dd820fcbdd3938bd2eadf9ec3048e992958530cedfb8391b7be1e8a6ca77e683fda22febfd19189d0e8dd9cc1068c9b2b5a510aebfd8597b1b8188c6aa1786e39dc24f8b9d7978fd6eedb9ac7008a9d2d5c5708e9ff8795b3ba1a8e68a37a6c3bde26fabbd5958dd4ecd998c502889f2f5e5506e7f1899bbdb4148066ad746235d028f4b5db9b83dae2d796cb0c869121505b04e5f38b99bfb6168264af766037d22af6b7d99981d8e0d594c90e849323525902e3f58d9fb9b0108462a9706631d42cf0b1df9f87dee6d392cf08829525545f00e1f78f9dbbb2128660ab726433d62ef2b3dd9d85dce4d190cd0a809727565d0eeff98193b5bc1c886ea57c6a3dd820ff6ff8b8a438f6d11daf59247001a1e5c963ec8e45fa3100e18e78b8b52d3b859",
        "type": "nulldata"
      }
    }
  ],
  "blockhash": "fe93069f37b49cfb15542a42b300d4e9dc573fdbbe6c5d081907ef62d551896a",
  "confirmations": 1,
  "time": 1764180962,
  "blocktime": 1764180962
}