{
  "hex": "01000000000101a2b0c53779e844af5d9adcaf899d119e507076124f239f591a90eee9f78519540100000000feffffff0200e1f50500000000fdd5046a20dc2ac19ae50fafd00d5c6ac62d7eea5a82a162d5a7b3be5b4dc3a4ca3bd7d7cc4db0040827c58dccc30f4f05fe34ca2f680ae927742bf343cdfd919ee3053220ac52f02807e5adece32f6f25de14ea0f482ac907540bd363edddb1bec32512008c72d0486785cd8c834f0f45be748a6f284aa967346bb3038dbdd1dea3457260ec12b06847a5edaca36f2f659e54aa4f086a8947144b9323ad9df1fe83655240cc329088a7450d4c438fcf857eb44aafe88a69a7f4ab73c34d7d111e6385b2a02cd270a887652d6c63afefa55e946a8fc8aa4987d48b53e36d5d313e43a592800cf250c8e7054d0c03cf8fc53ef40aefa8ca29e7b4eb33830d3d515e23c5f2e06c9230e8c7256d2c23efafe51ed42acf88ea09c794cb13a32d1d717e03e5d2c04cb2100827c58dccc30f4f05fe34ca2f680ae927742bf343cdfd919ee3053220ac52f02807e5adece32f6f25de14ea0f482ac907540bd363edddb1bec32512008c72d0486785cd8c834f0f45be748a6f284aa967346bb3038dbdd1dea3457260ec12b06847a5edaca36f2f659e54aa4f086a8947144b9323ad9df1fe83655240cc329088a7450d4c438fcf857eb44aafe88a69a7f4ab73c34d7d111e6385b2a02cd270a887652d6c63afefa55e946a8fc8aa4987d48b53e36d5d313e43a592800cf250c8e7054d0c03cf8fc53ef40aefa8ca29e7b4eb33830d3d515e23c5f2e06c9230e8c7256d2c23efafe51ed42acf88ea09c794cb13a32d1d717e03e5d2c04cb2100827c58dccc30f4f05fe34ca2f680ae927742bf343cdfd919ee3053220ac52f02807e5adece32f6f25de14ea0f482ac907540bd363edddb1bec32512008c72d0486785cd8c834f0f45be748a6f284aa967346bb3038dbdd1dea3457260ec12b06847a5edaca36f2f659e54aa4f086a8947144b9323ad9df1fe83655240cc329088a7450d4c438fcf857eb44aafe88a69a7f4ab73c34d7d111e6385b2a02cd270a887652d6c63afefa55e946a8fc8aa4987d48b53e36d5d313e43a592800cf250c8e7054d0c03cf8fc53ef40aefa8ca29e7b4eb33830d3d515e23c5f2e06c9230e8c7256d2c23efafe51ed42acf88ea09c794cb13a32d1d717e03e5d2c04cb2100827c58dccc30f4f05fe34ca2f680ae927742bf343cdfd919ee3053220ac52f02807e5adece32f6f25de14ea0f482ac907540bd363edddb1bec32512008c72d0486785cd8c834f0f45be748a6f284aa967346bb3038dbdd1dea3457260ec12b06847a5edaca36f2f659e54aa4f086a8947144b9323ad9df1fe83655240cc329088a7450d4c438fcf857eb44aafe88a69a7f4ab73c34d7d111e6385b2a02cd270a887652d6c63afefa55e946a8fc8aa4987d48b53e36d5d313e43a592800cf250c8e7054d0c03cf8fc53ef40aefa8ca29e7b4eb33830d3d515e23c5f2e06c9230e8c7256d2c23efafe51ed42acf88ea09c794cb13a32d1d717e03e5d2c04cb2100827c58dccc30f4f05fe34ca2f680ae927742bf343cdfd919ee3053220ac52f02807e5adece32f6f25de14ea0f482ac907540bd363edddb1bec32512008c72d0486785cd8c834f0f45be748a6f284aa967346bb3038dbdd1dea3457260ec12b06847a5edaca36f2f659e54aa4f086a8947144b9323ad9df1fe83655240cc329088a7450d4c438fcf857eb44aafe88a69f157b618520cdec638941f33e4c643f4de8fa79cf4ebfd5439074b01d63a64bdc075fe6f792d0000225120199c325ae2256281bc5bfea1868d1cbb99ba1fff7d1cf5bec770e14bbacf65a802fd750966691141b83ac774e248e5e77e1bec04c2503a5ff2e35ef9b5d20234bdaf940e4a77913d5d5144431bfc7473e35c40cd768e61ad36ca8ac420285805b59d2cf29abf670b1e6f4bb31697b15df32053a86998dfe4e137eb690dd4437079a241d8320835eb9f4da0faf5251feec7d07d9b8b73c6f4d3b8ed8b8591a58b9c0741cb108a6a3eac90cadf485afcdaa905362bf0dfe4021e9b8dba01e4bc197c3ded8e21e107d215f4dbcb7cf381b27880f34c03aac640d05669e807c5c999c46403e16660c4796e5d761d8f6418dbe93777d1c4bd0d39a4ba49a32c25e9079fceec7c6cc6e889badf5cce8d9ef66d4b215387e0d0644e9ee60c3bbf24b9e05aba9064d40e630f2fab9ec66cd34443081892fd78c14b5de88f2df051ebfa783ad60e4a319a6c78c1a27c56587f395574302a48920313d26315d11a501e3d7b2ade3ff3a31950c88e460a6007e087cc749d4f55e75e8375db7d79c1ea60ae74ed5b20268a5747f9032bd40d979afbb3718fb660551225483770be96de4720cc531bb7aaea6254d1f162689511c2d3c5a366356fd778275767d0296b43cd4b1d6a4560115bed4fd70a1748ec783e2872ffef7c4a98b16fb1293d1e9d135feabff92bac8febc8ad7815b3a88ea2f378ba46b6802095e9cef77de1b7899afd4f0a31bbcabc4109dcc0ba9d00438c5b4f3381c09364d84dd3dbb93e4f3a07f90517e14fb39d032708b6899d6df9e9ea4e2f97ba7fc852cd85eac89879379db098e419434c6823494a2e7e6fd0bae38a3eb60275b448aab85e41b93329ebc42508b38b1a606a788d1c32635a377cb4bec1c51c70c0cd7ab01f7fa5943112264d3786b4572897866aef72160bbe3feefc1121ea9f8afb1eeacac065a98332c6948bedd51f586aeb7b6be84b172f0cff4d9217fde736004c37959e6694bfe6d3f25f3006c1889d4ac6dfa7b15b43df5be4343c6d7ebb98b6eacf17a82496dbc51652705cac599268db5aa5ca4b79aa406e024c631736bd12f2064fd07e98866b5d74040663e426c2b5a085973dbe6ae28ea1d5eca3ad3d163d78c570cb68f962736a2170ca71404581656bb48e2ab3526f7d3de461b24a369ce266da25a1a7934fd74a2aeed2a1c3856000443116845e38518b949893295b7943358a43e769934bc7042bb7913f748ffa73e4401156d484277878f346d9a7d25e50e93bb375ec4c2f322f6ce79f00cfdfc0cedcd913f63e1aa9d997a2abbbeabeb02897908fb65c9b44562e413c0262692fa4c46f5fcd2ab909bb3f9df91713b347bf1d64a1bd883b15e5d4c3fe295f2afd56478b2a5ff4366e9a3b0668a41105d5bc218a4d24bd13068a3870ca567c3b7e4b706c617f213b8fb149075b0459def5eca3c3128ec9ce0cb4d19db786e3422977e0e9df1da065d9342a2aa5bb11e35eb808692096cb88a1faedb953dc98265bfbe8ef4e63f9edd553df8c9b3d6e5a2b6836c429130eed3658217743f6924bb653eab5b3351278df69c2af6a27d30a5141ee8f6fe534b0c9ae2c945826cd256d15c6c7b02a1c0c0192cc300c0e00c819b91614162c8e8080b89dbdef1d640a42a79b9ba16cec4410284c70877a67ed43a910d973cde3a5900f34b3bd37668aa15a0532e60e4c82c4e84d6c5d183d132db349323fabcf6c0c0c880ce100c659eb7044ccf6184680c7c29d03b5e496929d0f31d6ea9a9186a633c78de826016c246d4a2efea8fcf082104fdbe31236497478bcb6e46c1bdc263e58feac322ad2961486eedf9219a0c68cf9381773f1011222e440d34e6bb8560fef6033aa44a2720e9523e36e5e89f5f5be68b4a83d8b08b07b4ce0541fdb2c94396d2d08016eabdb4dd72f93f6cc555ccc1c311bd302161597597ba00a96e9177eb29490bf4ad96c86f5c9eeab9f0c1b960e79f1e1b2586f774ae18c2d2cf4dfd85c2089b525e558f2c49fa82fb786f723f4cf7e69d7568cb13ab71ab7bda972a18b86fd71f4056bf1d89d5b82ad34602aa7d6e74bce822365aa009c140b2c3388086ad5cd34650c33a1c0f740f913a0744240923bab96325c2142acdd905691aed206fea6290f545bdd55bdeb67781f66cee47ab3a5027ac56571c57a9667e4258fb532b25d40e3a794c50ef077e591dbe29eda4f2d58c458e3422bb2798e112f1e0fb9aee3908d581e53c8a7df76ebad76f46a5da9c1cf642b89cf4228e7dd54691ff62b0b4cefc1dc463bcccf3e1c9f3ebba61a0d8d6ac864c0ae14d126a12193cae86265cd879e6e2542eb1b46af1be826e97193da4e6a196ef8e16d28c6cf88a386737d5a955995a36d8716abf530a42710fada9ad148169f046e91e28b98701fd87c356e83669a5298bd6dad6154d177763e5cdd760ff47e0413f88c9a949863e1ba1af83c073b2315c532c50e279f2b750e49af8f74743e4a4bcb126d442215dc4daf21051bd029218c0a29ff00050966dec3293b2f84e08e1e1b970f4d6828d9cb05f9c4c8ae8cee3feb72c23a53b10d1fb3b6895cefeab9caa531b911cb0e1f827a8be5525df51679650f6b94481aad4e852df46c56977f5bedf7ee05eb941635eda2bde4f9ccfb8cfb30dcaa424ed15975eb38bf3c9481569227dfa75c34b712ddcffcf2562f2002c9a45dd08183835a4fd820ab1d40ae097c71ba6a324b7a0678f2c4d17b4fb8b95bdadc1a6ad860c475b0b92b2a59806011b9a16b40ae4b86e5df5187c1313ae3f497edbe3ede0ebfa5e20343ff817490bbe5d8cefa344a260e0e4a5d3a0ed97b8d03f74a056ef1c7d797c0ee2f6ebb5c10504ee0931da7fd502bbf147a739f3efc3275715e1b043a05aa7db1577f6ccc9e5ae667683e3f21a824ec65fb625a61f151f24c174b2524305ae42cd0522dcc87590a2a9db09c8d71addd231c7a1a8d7f5ba407e4f9c5774f64749fdb3b8674e9cffab6ea16caa2fb755a27668567a8ccfbd1cd8a6a875f45fec8ee79cbc7d68c4327d9cc13ef6a49ac9555aa87514e4819d01ddec48171dba692b1f2e8ece48bd74e5032874dc53e87affe411eed49acb992079475aa7192fc6fca2c44898b4d9acde7f1d8d0f8b14810cc49d82468ab187dee0ed9ac6d1b941309d3eccf9d36841932f72f9bc92e11761ef9d882143100b167422b4de1a738c02eb65d8d8e90a7dab6fee4965393d94b41a2c43f386ac12677c50a807f4fefa84415277f3320f656d55353762e0155fababf3289f563a2270d85cd1f3ed489df0e2dac779ed75bba7494e18294ad40d2473f00a4587383bc5bbf5c5f63eb651ae062f398f97c01b2e7e6ec222936445b5e7d8d8f90b8ed063f4c4ec9cdff0812468d9bb9e9f313212556588ddbddf100000000000000000000000000000000000000000000000000000000000000000000000000000000000000000c131b2401fd2105001722486c70c69e7a24c5b9ec3bfe9b22d3ac3d8151fe9e149c918ba3c6ce1a403560cbba2ab92ab068c94027a876ffebe8e07ea2adfe95775f18225f06c28e3e1922514ef8a626738dda7f810dda8bf550ecd0b2afc0adb6b54bcccc661d07b4423c22d11492d5089975e1c1716683b8e93b6fda7f7d0241c8f2883f54d68cf5da1b7df75052a11f5f2b05f15a51e1e16d8306a17f275567f908c12aa8103e94feba54790001df897b6bf7d4ee3fbad2dacc77c1b69f04b56f1d6955818ebbaa3684155e87e2aabfbb5972fda5b450d5c4ea12ccf61949d8aaf236c21fed74590272f82e3ec7f9b719a4d7ebf46024f8e3d0acfd2032a18152c558dfb22283f2c2aed23c3c9df7a4b6e88a2aad4fde3d70a68c22c54c3a6404c39056c7395b3957c28b15ce73451797fdbb1a3be4a9993ac69db13ea49ab33972217b5526d1f6ca3e21e36183b1e34344719aa924b4bac1a8c30a315be325e5e9432c42f45a895e34069a82178275790c62d44cfbe2a3f8df97b647c135302223eb4c024433f8367355a1e61dd51fd21304a621c22a741664f9f53402d16cf7e079b9160503ccfb3a2b18c2f5dbdc8222f41bca9a407d5d80c3e25589306f1c3265a0532761c3b7574194c253b18d5b66bf4b87686ebd30b424d261bc666f728a5631040ad9681ae96d4709b6fdfe090ec1273c495b7ee2b745a2e37f6e7a742150b7677e3081d659ae8fa5724201ebbcb341a3a0642ef3d496849ca3775dfbe05573d4137743fb22d346fff014db70d912403892fe0abdfadf5c54624b461a06e8ea258f1d39598c0bc054c2a3ee2490333ac0b21e7ec4907ff607792943e473283095bf50f3da42358849c8042ac1283d048c173e8fa943c2b5b3397ace1957da327b45258611c31e99ee55d5239e938636c445ca88e2e7239c56e05aafe0a67979612bf5e0bdea5e5c3f6a076da8a39f0e25b1cebd7e0b703d61473764b11f593598d28abc55e60095707f132ff2e670b377a7e0f86c923366bc7edfcbdcab98aa7ac5314955eac45f8cca41af513e6c9e3460cf4d7bf6252db64e6ae8d23af44fd854a241a4e17d998abb4c65f4fb0f611ea0c84e0bc60aa86257709cfcd6e2dac196bb2ebc2b3af3a28ab74edd4cdf7d0cc8a974e96ce8aca768fa7083ddb6bd00d6ed737bf7303ccae7892152541650e1eddb55dc6b00c3e13c8cf6d135b838c2cdb375d82fc536336c358489d8028a8da1f8fe786ce3596f9e7957a6c99ab6da63e7e6ef8e200c1fee4e74ab110966df4e7f0f5cc0c1dad63a67d1fcd3c4701245b1d55210d2f15947f109fbb4c631547d23918a4999b0905ede7329cf0cbc857cef677cb914db804e8ccddf2ed72aebf88d9ebe30eaa4e2b5c8c29593a5b92ffd48e66365b5df894f0e3ab477712b20839e3004cb4e8d349ba86edb699dda1f889f31f838b2d3a636b4e3337c61c4e0ee716e562b492072e513175f958890d6bba5d3e41fad697dd14f7b6c1962e477098a95ff6a043328843bb4c86e05af6c464fdf29da0f0372ca93c0355e08806352c9c3c47c4ec58e13c81c69810797cb356050d6bcb7655e6b20e8058c379d9d2402bdaad3efdb5c2fece76d591a24e9a518552496c2442c19a50dc9cfb3e204452ac594bb8dfbb41ed290ed71ed1f92f98fa4a1a0e19aa9bb02a35d837e8bb6888d2fdd0974a314dd506aa24b1d35b637333e16ce5e79258966060c37d41fbcd123c5056e51df6b3c97467ef5a4f243d4bfecb5e3bc44b0bdfb18df926ff15e20494b32bef31451c1b24ab90f4fd4483a2900a931407919cc6255c16d84c828078edbc8b358a7f3cb8a8d5cfcab32e44c75e567000000",
  "txid": "06173cfe46b68ac126bb8441902a1722282929ba7fdbfd08c11b8461a2d4e347",
  "hash": "866698a6aeff150786bb909028dc8bd102f2a779ac4d27e214fc31b6d74804d5",
  "size": 5085,
  "vsize": 2278,
  "version": 1,
  "locktime": 103,
  "vin": [
    {
      "txid": "541985f7e9ee901a599f234f127670509e119d89afdc9a5daf44e87937c5b0a2",
      "vout": 1,
      "scriptSig": {
        "asm": "",
        "hex": ""
      },
      "txinwitness": [
        "66691141b83ac774e248e5e77e1bec04c2503a5ff2e35ef9b5d20234bdaf940e4a77913d5d5144431bfc7473e35c40cd768e61ad36ca8ac420285805b59d2cf29abf670b1e6f4bb31697b15df32053a86998dfe4e137eb690dd4437079a241d8320835eb9f4da0faf5251feec7d07d9b8b73c6f4d3b8ed8b8591a58b9c0741cb108a6a3eac90cadf485afcdaa905362bf0dfe4021e9b8dba01e4bc197c3ded8e21e107d215f4dbcb7cf381b27880f34c03aac640d05669e807c5c999c46403e16660c4796e5d761d8f6418dbe93777d1c4bd0d39a4ba49a32c25e9079fceec7c6cc6e889badf5cce8d9ef66d4b215387e0d0644e9ee60c3bbf24b9e05aba9064d40e630f2fab9ec66cd34443081892fd78c14b5de88f2df051ebfa783ad60e4a319a6c78c1a27c56587f395574302a48920313d26315d11a501e3d7b2ade3ff3a31950c88e460a6007e087cc749d4f55e75e8375db7d79c1ea60ae74ed5b20268a5747f9032bd40d979afbb3718fb660551225483770be96de4720cc531bb7aaea6254d1f162689511c2d3c5a366356fd778275767d0296b43cd4b1d6a4560115bed4fd70a1748ec783e2872ffef7c4a98b16fb1293d1e9d135feabff92bac8febc8ad7815b3a88ea2f378ba46b6802095e9cef77de1b7899afd4f0a31bbcabc4109dcc0ba9d00438c5b4f3381c09364d84dd3dbb93e4f3a07f90517e14fb39d032708b6899d6df9e9ea4e2f97ba7fc852cd85eac89879379db098e419434c6823494a2e7e6fd0bae38a3eb60275b448aab85e41b93329ebc42508b38b1a606a788d1c32635a377cb4bec1c51c70c0cd7ab01f7fa5943112264d3786b4572897866aef72160bbe3feefc1121ea9f8afb1eeacac065a98332c6948bedd51f586aeb7b6be84b172f0cff4d9217fde736004c37959e6694bfe6d3f25f3006c1889d4ac6dfa7b15b43df5be4343c6d7ebb98b6eacf17a82496dbc51652705cac599268db5aa5ca4b79aa406e024c631736bd12f2064fd07e98866b5d74040663e426c2b5a085973dbe6ae28ea1d5eca3ad3d163d78c570cb68f962736a2170ca71404581656bb48e2ab3526f7d3de461b24a369ce266da25a1a7934fd74a2aeed2a1c3856000443116845e38518b949893295b7943358a43e769934bc7042bb7913f748ffa73e4401156d484277878f346d9a7d25e50e93bb375ec4c2f322f6ce79f00cfdfc0cedcd913f63e1aa9d997a2abbbeabeb02897908fb65c9b44562e413c0262692fa4c46f5fcd2ab909bb3f9df91713b347bf1d64a1bd883b15e5d4c3fe295f2afd56478b2a5ff4366e9a3b0668a41105d5bc218a4d24bd13068a3870ca567c3b7e4b706c617f213b8fb149075b0459def5eca3c3128ec9ce0cb4d19db786e3422977e0e9df1da065d9342a2aa5bb11e35eb808692096cb88a1faedb953dc98265bfbe8ef4e63f9edd553df8c9b3d6e5a2b6836c429130eed3658217743f6924bb653eab5b3351278df69c2af6a27d30a5141ee8f6fe534b0c9ae2c945826cd256d15c6c7b02a1c0c0192cc300c0e00c819b91614162c8e8080b89dbdef1d640a42a79b9ba16cec4410284c70877a67ed43a910d973cde3a5900f34b3bd37668aa15a0532e60e4c82c4e84d6c5d183d132db349323fabcf6c0c0c880ce100c659eb7044ccf6184680c7c29d03b5e496929d0f31d6ea9a9186a633c78de826016c246d4a2efea8fcf082104fdbe31236497478bcb6e46c1bdc263e58feac322ad2961486eedf9219a0c68cf9381773f1011222e440d34e6bb8560fef6033aa44a2720e9523e36e5e89f5f5be68b4a83d8b08b07b4ce0541fdb2c94396d2d08016eabdb4dd72f93f6cc555ccc1c311bd302161597597ba00a96e9177eb29490bf4ad96c86f5c9eeab9f0c1b960e79f1e1b2586f774ae18c2d2cf4dfd85c2089b525e558f2c49fa82fb786f723f4cf7e69d7568cb13ab71ab7bda972a18b86fd71f4056bf1d89d5b82ad34602aa7d6e74bce822365aa009c140b2c3388086ad5cd34650c33a1c0f740f913a0744240923bab96325c2142acdd905691aed206fea6290f545bdd55bdeb67781f66cee47ab3a5027ac56571c57a9667e4258fb532b25d40e3a794c50ef077e591dbe29eda4f2d58c458e3422bb2798e112f1e0fb9aee3908d581e53c8a7df76ebad76f46a5da9c1cf642b89cf4228e7dd54691ff62b0b4cefc1dc463bcccf3e1c9f3ebba61a0d8d6ac864c0ae14d126a12193cae86265cd879e6e2542eb1b46af1be826e97193da4e6a196ef8e16d28c6cf88a386737d5a955995a36d8716abf530a42710fada9ad148169f046e91e28b98701fd87c356e83669a5298bd6dad6154d177763e5cdd760ff47e0413f88c9a949863e1ba1af83c073b2315c532c50e279f2b750e49af8f74743e4a4bcb126d442215dc4daf21051bd029218c0a29ff00050966dec3293b2f84e08e1e1b970f4d6828d9cb05f9c4c8ae8cee3feb72c23a53b10d1fb3b6895cefeab9caa531b911cb0e1f827a8be5525df51679650f6b94481aad4e852df46c56977f5bedf7ee05eb941635eda2bde4f9ccfb8cfb30dcaa424ed15975eb38bf3c9481569227dfa75c34b712ddcffcf2562f2002c9a45dd08183835a4fd820ab1d40ae097c71ba6a324b7a0678f2c4d17b4fb8b95bdadc1a6ad860c475b0b92b2a59806011b9a16b40ae4b86e5df5187c1313ae3f497edbe3ede0ebfa5e20343ff817490bbe5d8cefa344a260e0e4a5d3a0ed97b8d03f74a056ef1c7d797c0ee2f6ebb5c10504ee0931da7fd502bbf147a739f3efc3275715e1b043a05aa7db1577f6ccc9e5ae667683e3f21a824ec65fb625a61f151f24c174b2524305ae42cd0522dcc87590a2a9db09c8d71addd231c7a1a8d7f5ba407e4f9c5774f64749fdb3b8674e9cffab6ea16caa2fb755a27668567a8ccfbd1cd8a6a875f45fec8ee79cbc7d68c4327d9cc13ef6a49ac9555aa87514e4819d01ddec48171dba692b1f2e8ece48bd74e5032874dc53e87affe411eed49acb992079475aa7192fc6fca2c44898b4d9acde7f1d8d0f8b14810cc49d82468ab187dee0ed9ac6d1b941309d3eccf9d36841932f72f9bc92e11761ef9d882143100b167422b4de1a738c02eb65d8d8e90a7dab6fee4965393d94b41a2c43f386ac12677c50a807f4fefa84415277f3320f656d55353762e0155fababf3289f563a2270d85cd1f3ed489df0e2dac779ed75bba7494e18294ad40d2473f00a4587383bc5bbf5c5f63eb651ae062f398f97c01b2e7e6ec222936445b5e7d8d8f90b8ed063f4c4ec9cdff0812468d9bb9e9f313212556588ddbddf100000000000000000000000000000000000000000000000000000000000000000000000000000000000000000c131b2401",
        "001722486c70c69e7a24c5b9ec3bfe9b22d3ac3d8151fe9e149c918ba3c6ce1a403560cbba2ab92ab068c94027a876ffebe8e07ea2adfe95775f18225f06c28e3e1922514ef8a626738dda7f810dda8bf550ecd0b2afc0adb6b54bcccc661d07b4423c22d11492d5089975e1c1716683b8e93b6fda7f7d0241c8f2883f54d68cf5da1b7df75052a11f5f2b05f15a51e1e16d8306a17f275567f908c12aa8103e94feba54790001df897b6bf7d4ee3fbad2dacc77c1b69f04b56f1d6955818ebbaa3684155e87e2aabfbb5972fda5b450d5c4ea12ccf61949d8aaf236c21fed74590272f82e3ec7f9b719a4d7ebf46024f8e3d0acfd2032a18152c558dfb22283f2c2aed23c3c9df7a4b6e88a2aad4fde3d70a68c22c54c3a6404c39056c7395b3957c28b15ce73451797fdbb1a3be4a9993ac69db13ea49ab33972217b5526d1f6ca3e21e36183b1e34344719aa924b4bac1a8c30a315be325e5e9432c42f45a895e34069a82178275790c62d44cfbe2a3f8df97b647c135302223eb4c024433f8367355a1e61dd51fd21304a621c22a741664f9f53402d16cf7e079b9160503ccfb3a2b18c2f5dbdc8222f41bca9a407d5d80c3e25589306f1c3265a0532761c3b7574194c253b18d5b66bf4b87686ebd30b424d261bc666f728a5631040ad9681ae96d4709b6fdfe090ec1273c495b7ee2b745a2e37f6e7a742150b7677e3081d659ae8fa5724201ebbcb341a3a0642ef3d496849ca3775dfbe05573d4137743fb22d346fff014db70d912403892fe0abdfadf5c54624b461a06e8ea258f1d39598c0bc054c2a3ee2490333ac0b21e7ec4907ff607792943e473283095bf50f3da42358849c8042ac1283d048c173e8fa943c2b5b3397ace1957da327b45258611c31e99ee55d5239e938636c445ca88e2e7239c56e05aafe0a67979612bf5e0bdea5e5c3f6a076da8a39f0e25b1cebd7e0b703d61473764b11f593598d28abc55e60095707f132ff2e670b377a7e0f86c923366bc7edfcbdcab98aa7ac5314955eac45f8cca41af513e6c9e3460cf4d7bf6252db64e6ae8d23af44fd854a241a4e17d998abb4c65f4fb0f611ea0c84e0bc60aa86257709cfcd6e2dac196bb2ebc2b3af3a28ab74edd4cdf7d0cc8a974e96ce8aca768fa7083ddb6bd00d6ed737bf7303ccae7892152541650e1eddb55dc6b00c3e13c8cf6d135b838c2cdb375d82fc536336c358489d8028a8da1f8fe786ce3596f9e7957a6c99ab6da63e7e6ef8e200c1fee4e74ab110966df4e7f0f5cc0c1dad63a67d1fcd3c4701245b1d55210d2f15947f109fbb4c631547d23918a4999b0905ede7329cf0cbc857cef677cb914db804e8ccddf2ed72aebf88d9ebe30eaa4e2b5c8c29593a5b92ffd48e66365b5df894f0e3ab477712b20839e3004cb4e8d349ba86edb699dda1f889f31f838b2d3a636b4e3337c61c4e0ee716e562b492072e513175f958890d6bba5d3e41fad697dd14f7b6c1962e477098a95ff6a043328843bb4c86e05af6c464fdf29da0f0372ca93c0355e08806352c9c3c47c4ec58e13c81c69810797cb356050d6bcb7655e6b20e8058c379d9d2402bdaad3efdb5c2fece76d591a24e9a518552496c2442c19a50dc9cfb3e204452ac594bb8dfbb41ed290ed71ed1f92f98fa4a1a0e19aa9bb02a35d837e8bb6888d2fdd0974a314dd506aa24b1d35b637333e16ce5e79258966060c37d41fbcd123c5056e51df6b3c97467ef5a4f243d4bfecb5e3bc44b0bdfb18df926ff15e20494b32bef31451c1b24ab90f4fd4483a2900a931407919cc6255c16d84c828078edbc8b358a7f3cb8a8d5cfcab32e44c75e5"
      ],
      "sequence": 4294967294
    }
  ],
  "vout": [
    {
      "value": 1.0,
      "n": 0,
      "scriptPubKey": {
        "asm": "OP_RETURN dc2ac19ae50fafd00d5c6ac62d7eea5a82a162d5a7b3be5b4dc3a4ca3bd7d7cc 0827c58dccc30f4f05fe34ca2f680ae927742bf343cdfd919ee3053220ac52f02807e5adece32f6f25de14ea0f482ac907540bd363edddb1bec32512008c72d0486785cd8c834f0f45be748a6f284aa967346bb3038dbdd1dea3457260ec12b06847a5edaca36f2f659e54aa4f086a8947144b9323ad9df1fe83655240cc329088a7450d4c438fcf857eb44aafe88a69a7f4ab73c34d7d111e6385b2a02cd270a887652d6c63afefa55e946a8fc8aa4987d48b53e36d5d313e43a592800cf250c8e7054d0c03cf8fc53ef40aefa8ca29e7b4eb33830d3d515e23c5f2e06c9230e8c7256d2c23efafe51ed42acf88ea09c794cb13a32d1d717e03e5d2c04cb2100827c58dccc30f4f05fe34ca2f680ae927742bf343cdfd919ee3053220ac52f02807e5adece32f6f25de14ea0f482ac907540bd363edddb1bec32512008c72d0486785cd8c834f0f45be748a6f284aa967346bb3038dbdd1dea3457260ec12b06847a5edaca36f2f659e54aa4f086a8947144b9323ad9df1fe83655240cc329088a7450d4c438fcf857eb44aafe88a69a7f4ab73c34d7d111e6385b2a02cd270a887652d6c63afefa55e946a8fc8aa4987d48b53e36d5d313e43a592800cf250c8e7054d0c03cf8fc53ef40aefa8ca29e7b4eb33830d3d515e23c5f2e06c9230e8c7256d2c23efafe51ed42acf88ea09c794cb13a32d1d717e03e5d2c04cb2100827c58dccc30f4f05fe34ca2f680ae927742bf343cdfd919ee3053220ac52f02807e5adece32f6f25de14ea0f482ac907540bd363edddb1bec32512008c72d0486785cd8c834f0f45be748a6f284aa967346bb3038dbdd1dea3457260ec12b06847a5edaca36f2f659e54aa4f086a8947144b9323ad9df1fe83655240cc329088a7450d4c438fcf857eb44aafe88a69a7f4ab73c34d7d111e6385b2a02cd270a887652d6c63afefa55e946a8fc8aa4987d48b53e36d5d313e43a592800cf250c8e7054d0c03cf8fc53ef40aefa8ca29e7b4eb33830d3d515e23c5f2e06c9230e8c7256d2c23efafe51ed42acf88ea09c794cb13a32d1d717e03e5d2c04cb2100827c58dccc30f4f05fe34ca2f680ae927742bf343cdfd919ee3053220ac52f02807e5adece32f6f25de14ea0f482ac907540bd363edddb1bec32512008c72d0486785cd8c834f0f45be748a6f284aa967346bb3038dbdd1dea3457260ec12b06847a5edaca36f2f659e54aa4f086a8947144b9323ad9df1fe83655240cc329088a7450d4c438fcf857eb44aafe88a69a7f4ab73c34d7d111e6385b2a02cd270a887652d6c63afefa55e946a8fc8aa4987d48b53e36d5d313e43a592800cf250c8e7054d0c03cf8fc53ef40aefa8ca29e7b4eb33830d3d515e23c5f2e06c9230e8c7256d2c23efafe51ed42acf88ea09c794cb13a32d1d717e03e5d2c04cb2100827c58dccc30f4f05fe34ca2f680ae927742bf343cdfd919ee3053220ac52f02807e5adece32f6f25de14ea0f482ac907540bd363edddb1bec32512008c72d0486785cd8c834f0f45be748a6f284aa967346bb3038dbdd1dea3457260ec12b06847a5edaca36f2f659e54aa4f086a8947144b9323ad9df1fe83655240cc329088a7450d4c438fcf857eb44aafe88a69f157b618520cdec638941f33e4c643f4de8fa79cf4ebfd5439074b01d63a64bd",
        "hex": "6a20dc2ac19ae50fafd00d5c6ac62d7eea5a82a162d5a7b3be5b4dc3a4ca3bd7d7cc4db0040827c58dccc30f4f05fe34ca2f680ae927742bf343cdfd919ee3053220ac52f02807e5adece32f6f25de14ea0f482ac907540bd363edddb1bec32512008c72d0486785cd8c834f0f45be748a6f284aa967346bb3038dbdd1dea3457260ec12b06847a5edaca36f2f659e54aa4f086a8947144b9323ad9df1fe83655240cc329088a7450d4c438fcf857eb44aafe88a69a7f4ab73c34d7d111e6385b2a02cd270a887652d6c63afefa55e946a8fc8aa4987d48b53e36d5d313e43a592800cf250c8e7054d0c03cf8fc53ef40aefa8ca29e7b4eb33830d3d515e23c5f2e06c9230e8c7256d2c23efafe51ed42acf88ea09c794cb13a32d1d717e03e5d2c04cb2100827c58dccc30f4f05fe34ca2f680ae927742bf343cdfd919ee3053220ac52f02807e5adece32f6f25de14ea0f482ac907540bd363edddb1bec32512008c72d0486785cd8c834f0f45be748a6f284aa967346bb3038dbdd1dea3457260ec12b06847a5edaca36f2f659e54aa4f086a8947144b9323ad9df1fe83655240cc329088a7450d4c438fcf857eb44aafe88a69a7f4ab73c34d7d111e6385b2a02cd270a887652d6c63afefa55e946a8fc8aa4987d48b53e36d5d313e43a592800cf250c8e7054d0c03cf8fc53ef40aefa8ca29e7b4eb33830d3d515e23c5f2e06c9230e8c7256d2c23efafe51ed42acf88ea09c794cb13a32d1d717e03e5d2c04cb2100827c58dccc30f4f05fe34ca2f680ae927742bf343cdfd919ee3053220ac52f02807e5adece32f6f25de14ea0f482ac907540bd363edddb1bec32512008c72d0486785cd8c834f0f45be748a6f284aa967346bb3038dbdd1dea3457260ec12b06847a5edaca36f2f659e54aa4f086a8947144b9323ad9df1fe83655240cc329088a7450d4c438fcf857eb44aafe88a69a7f4ab73c34d7d111e6385b2a02cd270a887652d6c63afefa55e946a8fc8aa4987d48b53e36d5d313e43a592800cf250c8e7054d0c03cf8fc53ef40aefa8ca29e7b4eb33830d3d515e23c5f2e06c9230e8c7256d2c23efafe51ed42acf88ea09c794cb13a32d1d717e03e5d2c04cb2100827c58dccc30f4f05fe34ca2f680ae927742bf343cdfd919ee3053220ac52f02807e5adece32f6f25de14ea0f482ac907540bd363edddb1bec32512008c72d0486785cd8c834f0f45be748a6f284aa967346bb3038dbdd1dea3457260ec12b06847a5edaca36f2f659e54aa4f086a8947144b9323ad9df1fe83655240cc329088a7450d4c438fcf857eb44aafe88a69a7f4ab73c34d7d111e6385b2a02cd270a887652d6c63afefa55e946a8fc8aa4987d48b53e36d5d313e43a592800cf250c8e7054d0c03cf8fc53ef40aefa8ca29e7b4eb33830d3d515e23c5f2e06c9230e8c7256d2c23efafe51ed42acf88ea09c794cb13a32d1d717e03e5d2c04cb2100827c58dccc30f4f05fe34ca2f680ae927742bf343cdfd919ee3053220ac52f02807e5adece32f6f25de14ea0f482ac907540bd363edddb1bec32512008c72d0486785cd8c834f0f45be748a6f284aa967346bb3038dbdd1dea3457260ec12b06847a5edaca36f2f659e54aa4f086a8947144b9323ad9df1fe83655240cc329088a7450d4c438fcf857eb44aafe88a69f157b618520cdec638941f33e4c643f4de8fa79cf4ebfd5439074b01d63a64bd",
        "type": "nulldata"
      }
    },
    {
      "value": 499995.9324,
      "n": 1,
      "scriptPubKey": {
        "asm": "1 199c325ae2256281bc5bfea1868d1cbb99ba1fff7d1cf5bec770e14bbacf65a8",
        "hex": "5120199c325ae2256281bc5bfea1868d1cbb99ba1fff7d1cf5bec770e14bbacf65a8",
        "reqSigs": 1,
        "type": "witness_v1_scripthash",
        "addresses": [
          "3QJmnh"
        ]
      }
    }
  ],
  "blockhash": "15af9b025c636b87e0a10c18a1a8de0e5f3c2069ad563b293161176d75df89a4",
  "confirmations": 1,
  "time": 1764174659,
  "blocktime": 1764174659
}