{
  "hex": "010000000001013c13e122e53932d414288246ec18375d60f0b7f8a933ea7f4404a0866c7409940000000000feffffff028079ca95782d00002251202337ac6dd4fb6bfe721913340ab5669521dfa4db8ab7bbc494322830ec56d83b00e1f50500000000fdd5046a20fa446f36a41418994ed26f0f34de8af15c9da3a3136bd45accef0e421d164fa94db004c6cc419f0f3d3a7f540ad907bfb24ab42225ec2cff75b75106989d5d547cb51ce6ec61bf2f1d1a5f742af9279f926a940205cc0cdf55977126b8bd7d745c953c868c01df4f7d7a3f144a9947fff20af46265ac6cbf35f71146d8dd1d143cf55ca6ac21ff6f5d5a1f346ab967dfd22ad442458c4c9f15d73166f8fd3d341cd57c464cc11f8fbdbaffd48a59873f32ca34a2a56cac7ff537d186181dddd4fc359c666ce13faf9d9adff4aa79a71f12ea1482854c8c5fd517f1a6383dfdf4dc15bc060c815fcffdfabf94ca19c77f728a74e2e52cec3fb57791c6585d9d94bc75dc262ca17fefddda9fb4ea39e75f52aa54c2c50ccc1f9557b1e6787dbdb49c55fcc6cc419f0f3d3a7f540ad907bfb24ab42225ec2cff75b75106989d5d547cb51ce6ec61bf2f1d1a5f742af9279f926a940205cc0cdf55977126b8bd7d745c953c868c01df4f7d7a3f144a9947fff20af46265ac6cbf35f71146d8dd1d143cf55ca6ac21ff6f5d5a1f346ab967dfd22ad442458c4c9f15d73166f8fd3d341cd57c464cc11f8fbdbaffd48a59873f32ca34a2a56cac7ff537d186181dddd4fc359c666ce13faf9d9adff4aa79a71f12ea1482854c8c5fd517f1a6383dfdf4dc15bc060c815fcffdfabf94ca19c77f728a74e2e52cec3fb57791c6585d9d94bc75dc262ca17fefddda9fb4ea39e75f52aa54c2c50ccc1f9557b1e6787dbdb49c55fcc6cc419f0f3d3a7f540ad907bfb24ab42225ec2cff75b75106989d5d547cb51ce6ec61bf2f1d1a5f742af9279f926a940205cc0cdf55977126b8bd7d745c953c868c01df4f7d7a3f144a9947fff20af46265ac6cbf35f71146d8dd1d143cf55ca6ac21ff6f5d5a1f346ab967dfd22ad442458c4c9f15d73166f8fd3d341cd57c464cc11f8fbdbaffd48a59873f32ca34a2a56cac7ff537d186181dddd4fc359c666ce13faf9d9adff4aa79a71f12ea1482854c8c5fd517f1a6383dfdf4dc15bc060c815fcffdfabf94ca19c77f728a74e2e52cec3fb57791c6585d9d94bc75dc262ca17fefddda9fb4ea39e75f52aa54c2c50ccc1f9557b1e6787dbdb49c55fcc6cc419f0f3d3a7f540ad907bfb24ab42225ec2cff75b75106989d5d547cb51ce6ec61bf2f1d1a5f742af9279f926a940205cc0cdf55977126b8bd7d745c953c868c01df4f7d7a3f144a9947fff20af46265ac6cbf35f71146d8dd1d143cf55ca6ac21ff6f5d5a1f346ab967dfd22ad442458c4c9f15d73166f8fd3d341cd57c464cc11f8fbdbaffd48a59873f32ca34a2a56cac7ff537d186181dddd4fc359c666ce13faf9d9adff4aa79a71f12ea1482854c8c5fd517f1a6383dfdf4dc15bc060c815fcffdfabf94ca19c77f728a74e2e52cec3fb57791c6585d9d94bc75dc262ca17fefddda9fb4ea39e75f52aa54c2c50ccc1f9557b1e6787dbdb49c55fcc6cc419f0f3d3a7f540ad907bfb24ab42225ec2cff75b75106989d5d547cb51ce6ec61bf2f1d1a5f742af9279f926a940205cc0cdf55977126b8bd7d745c953c868c01df4f7d7a3f144a9947fff20af46265ac6cbf35f71146d8dd1d143cf55ca6ac21ff6f5d5a1f346ab967dfd22ad442458c4c9f15d73166f8fd3d341cd57c464cc11f8fbdbaffd48a59873f32ca344aea7ca8fcc97cc484e9da19e6920b0516966e1f8201ca3907500ce915f4e51402fd7509f75f03db5f5fc8512c5b0237bc1ca4c6850911bf879dc9995ac097ddae91c7346ff9fe4a2d75711ecaf821caa49fe6362747a4c12294976ac8eb743a48eff859a39cf5561fbadc280ff3621ab442e6c759844bd72baa666914f93386890897869febfd81c43a65167cb838a49d0d364bca352920c84927c14b236604cf957c7bb77c219a67d83a776cdfd992c901b91a00a58568e40b2effd55581327325edc9bdbce7c2ddf463b130dcc46a5b5774c45aa6ee9964e3983aa34189fd121a5f9f8ece14c8174e477c24168775f5c71516f85b44197624b46fb5e836cf994edef2d5e4e32e89482fcc5cd85d8aeebfac81d126484fff49fead68eb74937320fb936e6850c0875ecf77f8b2123bc740807ba96569a2d9fbfcd3ebdf782800ea4590cd4eff6666208c06a34ed7929efacac1281094fc9551167a0db60163e8f6504a24a5fab3b5441b245d12ed2d51413c0de30f1f02a2145108460436b7183643e24f894e8de568e76d3022d7c5068d5e360c0a3eeab963ed0a3e673eaa11cc93634bd8807dc1a4434f06ad6b55f4fcc4a827cb8bd6ecdd0cbc0fb0618fadc8e01d2e9046d7163c6dc9bcd79992ed13e5f9b763c223ffb0aa4ac3da094aace15957f61ceba31f3857ca5649be776c86dbf8df42db9268fabfe4ea8dacb4d1f371c630bd568426125358c8946fa849e1e6197bfad227dca0e5a7ba4924a32d9174d26d800a8b6c0c29e6e383eb95442cb8b57c98055fbd65f3c25a0eb018b7603c400a30511574273bb65ec31f0c928f4a855042d000ea6c45dc10c35345cc80b65e281a1cc3aeea755e0ce5bca6ab414ca1300ec77635c0b9f5c67ce5ed5a0516b4c51fe41001ea58e05b73be626cf2c128031b7b0b6630341a2db824a01fd7d8c3cfb356285c58f0010a8ec93bbbf37110fb903376b582342ef3fbe791eb6f47b3b0878a9c86132839a2d4e8502a590e1ecdabafec815ef7d2e7b47789e1320bd5d85287bf158fcaba3f2adeff93f2c2718bcb718a4805a8402f100010e072f9e54f9fda6d9dca4410cf81d5d536201d7db2d3229328f1f629a8160e72576589e1defaafc1728cb8defb08e9bd3ef304fe91dbdd5bba0d885240e70aed438ac931b0747a0dd9bc72f9fec28b9fff3389226a1040b3039b56e3b3e9d328ddb53cc973a7db55aab8ed9da081f9847a745ee564b4b6c12557d3bb929a426a6a8f48ab901b0917736dd1178d6076b67c3a102f66ca8ec433612bbee311e9a52c39e2c8b3c8e65edcc8d9f7b6550b94686f842b25aa60f279a2d75a45a743660674f27dd3605cae53ecac24d055426dcb22f8dbb19239a358bf3119b70f32a4602ea83e9e2fcd4d714ae2d0726c859ee4d7b18b7da2ca8b424283e2daef3ad0cd3aa92324408b9b011e092ed35ae1d155e9ebf31a9439e570533e2612098baef41d8ee59922d6ae3db1289514ae271f2ae09d40301f2ac4101ece8b0afd892a8ea024624ff4a5af3e550b493d536d21057b6a1d4c6791b0759f1f5ae4223173f1df7733293ee330595ac553142fc40106830d656eea6d51de286c2c6c44ca0a455df0d1e03855fa464348aab75c239d0e477f376ed480e1e9bffd5fefc52fa18d7f0d8ba4641c3165ff8978eb3220f5d962012f96766c029dabdcdbf45b7964201b022c762ba28c5db4df35b70b190f3ac8d7ea87d290c46108059bf6bcf1501fc58a1ed04225a169a61d87290a2672e56b552b8daaa985141f80bb6de19f65fe21a2484d7573f242d4f5db3a484d34f4ce31a1e056271fe47a0217e3da66cd1ded941487275d7c1f25b57e53c4f4c3fefa85f33a5fb8600bdab7d2dea7e7b93375c9716857353a89dbaa1746c79f3be515047dc9d890a4a17a5f7e91041fe338e8416fe953e0fd1c6607ab469338acde3f79e3b34890cedff1516e5827b7f4da15924ea151f0176f98dc0a61d47985a7ec1bc1580592326ff9530fffeb87c9236b2c21de8ca080f5108b572930c072c69633631aea3560e5e211a736e7a0e88570da3dd5e978ba7b68ed0f2755ff9be354bceb570a0a5117ac449f63d5cdda6b32f01827395c654ba45e499ebbbebf77c0f3b0e4f41153c50d9097d474d2a31fc61826e2fdd8018bc6b61a82c0445871a961ef0043807382b414261ad3074c5a36cbdeaedf8d127720c9176758ebd456acbbb95c1a256f1b3728f9d41e4e5c3372e5c25dddd8b46783cffeb10be11416ceb9f4d94b5b447f0dc2493f8d82c81a2045b64997a5ea1dc2d6292ba475fc7fb6f2eabbc04d321868af9e6d93c4033cce7adca814eec47802e3d8714b543b064fdaaa9f387c6a5427f9429f4284c10f7e21c42ca2b26664a4f35bda63b4980ffb75e2ecfd92a3950225fec79af488fac450a71b242f2b24fbf5cee07f977bfb190071257d315da7f0a0ce53541124a3a39c92e1f66ed0bf24930d8c1e9ed6f7ba102f45cd13d4fd6d1d02e92a1677c4be90e21da867c9fe44d27b16e2974a0c095ad825d99a7a2644e1c9dceeb841a9c34fb137db8a7da9cc8b02b1188b11c0d20f61c02d31a7b45a516103c6ec98583b807162b98454cbbd94cb7b8a2e976b380412d72bd8de3f8874423f65f8ab0227e8ff4cff03df3b6e8e5b2ad658066205eb3b0c4d9f84a021b07ba86ed98352f4136f98cbccf566b7846b814f80d3d2577d98391b0ca9b27852d29c47a870652848bb8e1db39537e3ba9e178516f16da006742f8b0aaae35dbd2bc6d346fa64f8984026eab1fc6b692defec9ca6d950178cedd496cba018bca3161a0129b6aa998472a105a54cb27380f537ff37f4c579983d76b78967512d54784effd8a71e7dc70f43ff8cbf6308a7f8c6259156b7c047ac385d465d2e1df97ec9e679585fb18c91021e440a6bf759985b76f08c3b6e86b3daf15c43b9d07a2f81ef2c3eed804d74e7680e5bd22e3d24bfc8161e186a12ad620ea0840213739d4c02d5c7056b11fcd4221039c69188189aab1a3e926501970b079b182163870ff2dc2d7533a51f4532d1b6e289732cdc50202405af0e27f62d2d7319b51695141a72a88366daba0cd320754691ffe13f9b07e3529a045e900cd27b158d9c3dff18f0cbe801bf325e1e940ad41b25eb322c296f6349a6d104387f12494f89f6e36b1ceb5e460185bbcf3aa3ac594737adcabb8b539ea104ca70747f869059c7df9e8b3b826e61baed87fd52e685a1b05f001c2930d7968888aee7a1b9d4b256a24cfcbed37709b20bd07afc36e12090dffb9a543114d67d6027475bfe359677c0145b494bce60b82514161c1e20273336373f4a5c879197a3a6afeff2f4131d374c576c717b84868aa7ccdee8f0f7fe090d12242b2c3c5c5e74787d8cb8bbc3c4d5dbe00c10323e4144546ea2c4ef0000000000000000000015273b4601fd2105007a5e8ea41381fa5d0de4d5c688d20fc6276a55a02178dbed97aa1005a8b0b16e18bb2400f5a74e75fbe068feb0abd0e4142b8d442b794843325f42c1482c713bf384e04edd04dfc5aaa36a40d453cd096992a03caea02226eab02505d2c6bfe567b5af9d975f215ad5e02fa267d42946040dcad891b86ee0ec967b3490d729f0400ee92013878393c54eeda729d83567977d8a11fbb2156b38850ba1e86a3ee570a069b3069e4bf9a6e16cec3a40c8d2a8942f5bdbeff77b2743dc87cc1755252f6ffb7ae1abd2b5e7b9f37a0d748f4026b2693dc6387a30886f10812153d6cb416a536b9ab8c4a83d7b4e2d4f7ff9b9a7f907bd1c41759f5185ea3495e6ade9a8af21e04bc9add2a2b023183fbaf42724e9a734bd598bd10a6848462e83a12592c17058a80e6d08135c78d713e3cdc6800916eb177eaeeda863bb82214922a64c83c615b2b6483f2e9cd6c5aa98c7e966fced4ea4403e7c4a2c97a4d0d058596674fe86da6cf166dbd1439edc3e0cd994a9b66e0845a4de877856c8af85d0455feaf2a963b50ffb738322e2cc2ce461e7bb6792e0d35ca7f39fd25651008d451046da01ffffcf94e10b72c795f3f66d3cf768d32c015529b490a94f9c93a4456b38908d36b288a2448c8180750f701b1ea31cb33a1b3cf5fd45131418e99cd96030807d7331a5268a6b01f3768221858fba9dfb4919c93278b66c62987f355c05e0dd757bb67af258c3733479c164de82368a0a500d8c82579a4ea02812cf2395d69c23374505a05f7352d780e2ed9991ef7447f7cca497f527bf5c2b971e2550c57e99d30cdc2d376320200f84c4488c2a9f73fd89e4b913d4b6ba1869d85e5970dac43bc9c4430a69bac0b9a5898e04b0b6dd933de54b06ff907fc151c778c337b5dde786058108612a57ec22c6acd979b87b9bf8e284096a87a0059e41c92975e0beeb86b704f38e27137e6c314a7e861a462ea780a75e4e1f18b11f6ba418a33e19f4480178393b04f7d65a108888ffa28a92c70726a83e5c9ef0848f2bd648bc44ed411c9e7bcd8707b0a46017d80e6d500d7fe4a7ea5811ff63063dbfd69d2857030ae8b45758437d6c7354d10cc82574e3261bf578d7795a0c7340705006ca976052084ce24ca8d04eb5e2ee6d0f197e5a66530c3f3bf9a0b37fda846199e1d3d4f82026e9b40e3c9bbfe3352f80f9bfa59054edad027bd1f4519d23aaf5064574295a3bfd0009eb6ca187e2deebb722b4335d2565591339ec9a456d0f304e2346ad889e12ac3e1997c068cc98185b073e00195dbc8ddab63797c7926a5f7441a39e412d0a48a1ca77a3c4e32bb9a1882412ae6db73a72cb671466ca37d763c5e82ad55de56f03bd15b8e62171de636f290b1f683a393b44193ebd2f1f2867a78747224765b5f292d1aed9f58a8738d8853053c752bac14b9021f8a8785331c39e38ddeed749c1d1df554aec10a6abdf76ed4528434507af0f6f59520ae1926fb35a78a9de51e5f1258034e0ffae9ed5898d32a86bf265ebdbe506d595f41dea46b9e29dce7253fa425def27f0b2f15ecee2ebae3de258841a877d30f45ca0b316c29ef12992b5cca7d8692b7176a0b7be27f4a758606e1cd1fbf899466595c0da66b480a111ed8b7926b6f396ca02107035ac4453c7f5d5cb9dacd35a87b477c1baadc9e8245434126b8a59768cd25667a3c49197fbd1fd1471dc2f53ec84a66b7cdcb6553a23ae55edb082dc3715079fc95a57958e83d7f00639d1a6f74cd178fabe28a997c62e405aea9962fd2264e85466343249e46d1aee920bbd79134290d99647120c379429310d182608255ab405c5c7d5f3d1d036f4c36f8a000000",
  "txid": "03f7bac4c3fa33283b89bdfdf1fb63c1ebb5a303f79aa5415565a7301d587a4d",
  "hash": "f301f909fc6bb321183edd39558dd4168af3529954a9bf12545857b0b18147bc",
  "size": 5085,
  "vsize": 2278,
  "version": 1,
  "locktime": 138,
  "vin": [
    {
      "txid": "9409746c86a004447fea33a9f8b7f0605d3718ec46822814d43239e522e1133c",
      "vout": 0,
      "scriptSig": {
        "asm": "",
        "hex": ""
      },
      "txinwitness": [
        "f75f03db5f5fc8512c5b0237bc1ca4c6850911bf879dc9995ac097ddae91c7346ff9fe4a2d75711ecaf821caa49fe6362747a4c12294976ac8eb743a48eff859a39cf5561fbadc280ff3621ab442e6c759844bd72baa666914f93386890897869febfd81c43a65167cb838a49d0d364bca352920c84927c14b236604cf957c7bb77c219a67d83a776cdfd992c901b91a00a58568e40b2effd55581327325edc9bdbce7c2ddf463b130dcc46a5b5774c45aa6ee9964e3983aa34189fd121a5f9f8ece14c8174e477c24168775f5c71516f85b44197624b46fb5e836cf994edef2d5e4e32e89482fcc5cd85d8aeebfac81d126484fff49fead68eb74937320fb936e6850c0875ecf77f8b2123bc740807ba96569a2d9fbfcd3ebdf782800ea4590cd4eff6666208c06a34ed7929efacac1281094fc9551167a0db60163e8f6504a24a5fab3b5441b245d12ed2d51413c0de30f1f02a2145108460436b7183643e24f894e8de568e76d3022d7c5068d5e360c0a3eeab963ed0a3e673eaa11cc93634bd8807dc1a4434f06ad6b55f4fcc4a827cb8bd6ecdd0cbc0fb0618fadc8e01d2e9046d7163c6dc9bcd79992ed13e5f9b763c223ffb0aa4ac3da094aace15957f61ceba31f3857ca5649be776c86dbf8df42db9268fabfe4ea8dacb4d1f371c630bd568426125358c8946fa849e1e6197bfad227dca0e5a7ba4924a32d9174d26d800a8b6c0c29e6e383eb95442cb8b57c98055fbd65f3c25a0eb018b7603c400a30511574273bb65ec31f0c928f4a855042d000ea6c45dc10c35345cc80b65e281a1cc3aeea755e0ce5bca6ab414ca1300ec77635c0b9f5c67ce5ed5a0516b4c51fe41001ea58e05b73be626cf2c128031b7b0b6630341a2db824a01fd7d8c3cfb356285c58f0010a8ec93bbbf37110fb903376b582342ef3fbe791eb6f47b3b0878a9c86132839a2d4e8502a590e1ecdabafec815ef7d2e7b47789e1320bd5d85287bf158fcaba3f2adeff93f2c2718bcb718a4805a8402f100010e072f9e54f9fda6d9dca4410cf81d5d536201d7db2d3229328f1f629a8160e72576589e1defaafc1728cb8defb08e9bd3ef304fe91dbdd5bba0d885240e70aed438ac931b0747a0dd9bc72f9fec28b9fff3389226a1040b3039b56e3b3e9d328ddb53cc973a7db55aab8ed9da081f9847a745ee564b4b6c12557d3bb929a426a6a8f48ab901b0917736dd1178d6076b67c3a102f66ca8ec433612bbee311e9a52c39e2c8b3c8e65edcc8d9f7b6550b94686f842b25aa60f279a2d75a45a743660674f27dd3605cae53ecac24d055426dcb22f8dbb19239a358bf3119b70f32a4602ea83e9e2fcd4d714ae2d0726c859ee4d7b18b7da2ca8b424283e2daef3ad0cd3aa92324408b9b011e092ed35ae1d155e9ebf31a9439e570533e2612098baef41d8ee59922d6ae3db1289514ae271f2ae09d40301f2ac4101ece8b0afd892a8ea024624ff4a5af3e550b493d536d21057b6a1d4c6791b0759f1f5ae4223173f1df7733293ee330595ac553142fc40106830d656eea6d51de286c2c6c44ca0a455df0d1e03855fa464348aab75c239d0e477f376ed480e1e9bffd5fefc52fa18d7f0d8ba4641c3165ff8978eb3220f5d962012f96766c029dabdcdbf45b7964201b022c762ba28c5db4df35b70b190f3ac8d7ea87d290c46108059bf6bcf1501fc58a1ed04225a169a61d87290a2672e56b552b8daaa985141f80bb6de19f65fe21a2484d7573f242d4f5db3a484d34f4ce31a1e056271fe47a0217e3da66cd1ded941487275d7c1f25b57e53c4f4c3fefa85f33a5fb8600bdab7d2dea7e7b93375c9716857353a89dbaa1746c79f3be515047dc9d890a4a17a5f7e91041fe338e8416fe953e0fd1c6607ab469338acde3f79e3b34890cedff1516e5827b7f4da15924ea151f0176f98dc0a61d47985a7ec1bc1580592326ff9530fffeb87c9236b2c21de8ca080f5108b572930c072c69633631aea3560e5e211a736e7a0e88570da3dd5e978ba7b68ed0f2755ff9be354bceb570a0a5117ac449f63d5cdda6b32f01827395c654ba45e499ebbbebf77c0f3b0e4f41153c50d9097d474d2a31fc61826e2fdd8018bc6b61a82c0445871a961ef0043807382b414261ad3074c5a36cbdeaedf8d127720c9176758ebd456acbbb95c1a256f1b3728f9d41e4e5c3372e5c25dddd8b46783cffeb10be11416ceb9f4d94b5b447f0dc2493f8d82c81a2045b64997a5ea1dc2d6292ba475fc7fb6f2eabbc04d321868af9e6d93c4033cce7adca814eec47802e3d8714b543b064fdaaa9f387c6a5427f9429f4284c10f7e21c42ca2b26664a4f35bda63b4980ffb75e2ecfd92a3950225fec79af488fac450a71b242f2b24fbf5cee07f977bfb190071257d315da7f0a0ce53541124a3a39c92e1f66ed0bf24930d8c1e9ed6f7ba102f45cd13d4fd6d1d02e92a1677c4be90e21da867c9fe44d27b16e2974a0c095ad825d99a7a2644e1c9dceeb841a9c34fb137db8a7da9cc8b02b1188b11c0d20f61c02d31a7b45a516103c6ec98583b807162b98454cbbd94cb7b8a2e976b380412d72bd8de3f8874423f65f8ab0227e8ff4cff03df3b6e8e5b2ad658066205eb3b0c4d9f84a021b07ba86ed98352f4136f98cbccf566b7846b814f80d3d2577d98391b0ca9b27852d29c47a870652848bb8e1db39537e3ba9e178516f16da006742f8b0aaae35dbd2bc6d346fa64f8984026eab1fc6b692defec9ca6d950178cedd496cba018bca3161a0129b6aa998472a105a54cb27380f537ff37f4c579983d76b78967512d54784effd8a71e7dc70f43ff8cbf6308a7f8c6259156b7c047ac385d465d2e1df97ec9e679585fb18c91021e440a6bf759985b76f08c3b6e86b3daf15c43b9d07a2f81ef2c3eed804d74e7680e5bd22e3d24bfc8161e186a12ad620ea0840213739d4c02d5c7056b11fcd4221039c69188189aab1a3e926501970b079b182163870ff2dc2d7533a51f4532d1b6e289732cdc50202405af0e27f62d2d7319b51695141a72a88366daba0cd320754691ffe13f9b07e3529a045e900cd27b158d9c3dff18f0cbe801bf325e1e940ad41b25eb322c296f6349a6d104387f12494f89f6e36b1ceb5e460185bbcf3aa3ac594737adcabb8b539ea104ca70747f869059c7df9e8b3b826e61baed87fd52e685a1b05f001c2930d7968888aee7a1b9d4b256a24cfcbed37709b20bd07afc36e12090dffb9a543114d67d6027475bfe359677c0145b494bce60b82514161c1e20273336373f4a5c879197a3a6afeff2f4131d374c576c717b84868aa7ccdee8f0f7fe090d12242b2c3c5c5e74787d8cb8bbc3c4d5dbe00c10323e4144546ea2c4ef0000000000000000000015273b4601",
        "007a5e8ea41381fa5d0de4d5c688d20fc6276a55a02178dbed97aa1005a8b0b16e18bb2400f5a74e75fbe068feb0abd0e4142b8d442b794843325f42c1482c713bf384e04edd04dfc5aaa36a40d453cd096992a03caea02226eab02505d2c6bfe567b5af9d975f215ad5e02fa267d42946040dcad891b86ee0ec967b3490d729f0400ee92013878393c54eeda729d83567977d8a11fbb2156b38850ba1e86a3ee570a069b3069e4bf9a6e16cec3a40c8d2a8942f5bdbeff77b2743dc87cc1755252f6ffb7ae1abd2b5e7b9f37a0d748f4026b2693dc6387a30886f10812153d6cb416a536b9ab8c4a83d7b4e2d4f7ff9b9a7f907bd1c41759f5185ea3495e6ade9a8af21e04bc9add2a2b023183fbaf42724e9a734bd598bd10a6848462e83a12592c17058a80e6d08135c78d713e3cdc6800916eb177eaeeda863bb82214922a64c83c615b2b6483f2e9cd6c5aa98c7e966fced4ea4403e7c4a2c97a4d0d058596674fe86da6cf166dbd1439edc3e0cd994a9b66e0845a4de877856c8af85d0455feaf2a963b50ffb738322e2cc2ce461e7bb6792e0d35ca7f39fd25651008d451046da01ffffcf94e10b72c795f3f66d3cf768d32c015529b490a94f9c93a4456b38908d36b288a2448c8180750f701b1ea31cb33a1b3cf5fd45131418e99cd96030807d7331a5268a6b01f3768221858fba9dfb4919c93278b66c62987f355c05e0dd757bb67af258c3733479c164de82368a0a500d8c82579a4ea02812cf2395d69c23374505a05f7352d780e2ed9991ef7447f7cca497f527bf5c2b971e2550c57e99d30cdc2d376320200f84c4488c2a9f73fd89e4b913d4b6ba1869d85e5970dac43bc9c4430a69bac0b9a5898e04b0b6dd933de54b06ff907fc151c778c337b5dde786058108612a57ec22c6acd979b87b9bf8e284096a87a0059e41c92975e0beeb86b704f38e27137e6c314a7e861a462ea780a75e4e1f18b11f6ba418a33e19f4480178393b04f7d65a108888ffa28a92c70726a83e5c9ef0848f2bd648bc44ed411c9e7bcd8707b0a46017d80e6d500d7fe4a7ea5811ff63063dbfd69d2857030ae8b45758437d6c7354d10cc82574e3261bf578d7795a0c7340705006ca976052084ce24ca8d04eb5e2ee6d0f197e5a66530c3f3bf9a0b37fda846199e1d3d4f82026e9b40e3c9bbfe3352f80f9bfa59054edad027bd1f4519d23aaf5064574295a3bfd0009eb6ca187e2deebb722b4335d2565591339ec9a456d0f304e2346ad889e12ac3e1997c068cc98185b073e00195dbc8ddab63797c7926a5f7441a39e412d0a48a1ca77a3c4e32bb9a1882412ae6db73a72cb671466ca37d763c5e82ad55de56f03bd15b8e62171de636f290b1f683a393b44193ebd2f1f2867a78747224765b5f292d1aed9f58a8738d8853053c752bac14b9021f8a8785331c39e38ddeed749c1d1df554aec10a6abdf76ed4528434507af0f6f59520ae1926fb35a78a9de51e5f1258034e0ffae9ed5898d32a86bf265ebdbe506d595f41dea46b9e29dce7253fa425def27f0b2f15ecee2ebae3de258841a877d30f45ca0b316c29ef12992b5cca7d8692b7176a0b7be27f4a758606e1cd1fbf899466595c0da66b480a111ed8b7926b6f396ca02107035ac4453c7f5d5cb9dacd35a87b477c1baadc9e8245434126b8a59768cd25667a3c49197fbd1fd1471dc2f53ec84a66b7cdcb6553a23ae55edb082dc3715079fc95a57958e83d7f00639d1a6f74cd178fabe28a997c62e405aea9962fd2264e85466343249e46d1aee920bbd79134290d99647120c379429310d182608255ab405c5c7d5f3d1d036f4c36f"
      ],
      "sequence": 4294967294
    }
  ],
  "vout": [
    {
      "value": 499959.324,
      "n": 0,
      "scriptPubKey": {
        "asm": "1 2337ac6dd4fb6bfe721913340ab5669521dfa4db8ab7bbc494322830ec56d83b",
        "hex": "51202337ac6dd4fb6bfe721913340ab5669521dfa4db8ab7bbc494322830ec56d83b",
        "reqSigs": 1,
        "type": "witness_v1_scripthash",
        "addresses": [
          "3QJmnh"
        ]
      }
    },
    {
      "value": 1.0,
      "n": 1,
      "scriptPubKey": {
        "asm": "OP_RETURN fa446f36a41418994ed26f0f34de8af15c9da3a3136bd45accef0e421d164fa9 c6cc419f0f3d3a7f540ad907bfb24ab42225ec2cff75b75106989d5d547cb51ce6ec61bf2f1d1a5f742af9279f926a940205cc0cdf55977126b8bd7d745c953c868c01df4f7d7a3f144a9947fff20af46265ac6cbf35f71146d8dd1d143cf55ca6ac21ff6f5d5a1f346ab967dfd22ad442458c4c9f15d73166f8fd3d341cd57c464cc11f8fbdbaffd48a59873f32ca34a2a56cac7ff537d186181dddd4fc359c666ce13faf9d9adff4aa79a71f12ea1482854c8c5fd517f1a6383dfdf4dc15bc060c815fcffdfabf94ca19c77f728a74e2e52cec3fb57791c6585d9d94bc75dc262ca17fefddda9fb4ea39e75f52aa54c2c50ccc1f9557b1e6787dbdb49c55fcc6cc419f0f3d3a7f540ad907bfb24ab42225ec2cff75b75106989d5d547cb51ce6ec61bf2f1d1a5f742af9279f926a940205cc0cdf55977126b8bd7d745c953c868c01df4f7d7a3f144a9947fff20af46265ac6cbf35f71146d8dd1d143cf55ca6ac21ff6f5d5a1f346ab967dfd22ad442458c4c9f15d73166f8fd3d341cd57c464cc11f8fbdbaffd48a59873f32ca34a2a56cac7ff537d186181dddd4fc359c666ce13faf9d9adff4aa79a71f12ea1482854c8c5fd517f1a6383dfdf4dc15bc060c815fcffdfabf94ca19c77f728a74e2e52cec3fb57791c6585d9d94bc75dc262ca17fefddda9fb4ea39e75f52aa54c2c50ccc1f9557b1e6787dbdb49c55fcc6cc419f0f3d3a7f540ad907bfb24ab42225ec2cff75b75106989d5d547cb51ce6ec61bf2f1d1a5f742af9279f926a940205cc0cdf55977126b8bd7d745c953c868c01df4f7d7a3f144a9947fff20af46265ac6cbf35f71146d8dd1d143cf55ca6ac21ff6f5d5a1f346ab967dfd22ad442458c4c9f15d73166f8fd3d341cd57c464cc11f8fbdbaffd48a59873f32ca34a2a56cac7ff537d186181dddd4fc359c666ce13faf9d9adff4aa79a71f12ea1482854c8c5fd517f1a6383dfdf4dc15bc060c815fcffdfabf94ca19c77f728a74e2e52cec3fb57791c6585d9d94bc75dc262ca17fefddda9fb4ea39e75f52aa54c2c50ccc1f9557b1e6787dbdb49c55fcc6cc419f0f3d3a7f540ad907bfb24ab42225ec2cff75b75106989d5d547cb51ce6ec61bf2f1d1a5f742af9279f926a940205cc0cdf55977126b8bd7d745c953c868c01df4f7d7a3f144a9947fff20af46265ac6cbf35f71146d8dd1d143cf55ca6ac21ff6f5d5a1f346ab967dfd22ad442458c4c9f15d73166f8fd3d341cd57c464cc11f8fbdbaffd48a59873f32ca34a2a56cac7ff537d186181dddd4fc359c666ce13faf9d9adff4aa79a71f12ea1482854c8c5fd517f1a6383dfdf4dc15bc060c815fcffdfabf94ca19c77f728a74e2e52cec3fb57791c6585d9d94bc75dc262ca17fefddda9fb4ea39e75f52aa54c2c50ccc1f9557b1e6787dbdb49c55fcc6cc419f0f3d3a7f540ad907bfb24ab42225ec2cff75b75106989d5d547cb51ce6ec61bf2f1d1a5f742af9279f926a940205cc0cdf55977126b8bd7d745c953c868c01df4f7d7a3f144a9947fff20af46265ac6cbf35f71146d8dd1d143cf55ca6ac21ff6f5d5a1f346ab967dfd22ad442458c4c9f15d73166f8fd3d341cd57c464cc11f8fbdbaffd48a59873f32ca344aea7ca8fcc97cc484e9da19e6920b0516966e1f8201ca3907500ce915f4e514",
        "hex": "6a20fa446f36a41418994ed26f0f34de8af15c9da3a3136bd45accef0e421d164fa94db004c6cc419f0f3d3a7f540ad907bfb24ab42225ec2cff75b75106989d5d547cb51ce6ec61bf2f1d1a5f742af9279f926a940205cc0cdf55977126b8bd7d745c953c868c01df4f7d7a3f144a9947fff20af46265ac6cbf35f71146d8dd1d143cf55ca6ac21ff6f5d5a1f346ab967dfd22ad442458c4c9f15d73166f8fd3d341cd57c464cc11f8fbdbaffd48a59873f32ca34a2a56cac7ff537d186181dddd4fc359c666ce13faf9d9adff4aa79a71f12ea1482854c8c5fd517f1a6383dfdf4dc15bc060c815fcffdfabf94ca19c77f728a74e2e52cec3fb57791c6585d9d94bc75dc262ca17fefddda9fb4ea39e75f52aa54c2c50ccc1f9557b1e6787dbdb49c55fcc6cc419f0f3d3a7f540ad907bfb24ab42225ec2cff75b75106989d5d547cb51ce6ec61bf2f1d1a5f742af9279f926a940205cc0cdf55977126b8bd7d745c953c868c01df4f7d7a3f144a9947fff20af46265ac6cbf35f71146d8dd1d143cf55ca6ac21ff6f5d5a1f346ab967dfd22ad442458c4c9f15d73166f8fd3d341cd57c464cc11f8fbdbaffd48a59873f32ca34a2a56cac7ff537d186181dddd4fc359c666ce13faf9d9adff4aa79a71f12ea1482854c8c5fd517f1a6383dfdf4dc15bc060c815fcffdfabf94ca19c77f728a74e2e52cec3fb57791c6585d9d94bc75dc262ca17fefddda9fb4ea39e75f52aa54c2c50ccc1f9557b1e6787dbdb49c55fcc6cc419f0f3d3a7f540ad907bfb24ab42225ec2cff75b75106989d5d547cb51ce6ec61bf2f1d1a5f742af9279f926a940205cc0cdf55977126b8bd7d745c953c868c01df4f7d7a3f144a9947fff20af46265ac6cbf35f71146d8dd1d143cf55ca6ac21ff6f5d5a1f346ab967dfd22ad442458c4c9f15d73166f8fd3d341cd57c464cc11f8fbdbaffd48a59873f32ca34a2a56cac7ff537d186181dddd4fc359c666ce13faf9d9adff4aa79a71f12ea1482854c8c5fd517f1a6383dfdf4dc15bc060c815fcffdfabf94ca19c77f728a74e2e52cec3fb57791c6585d9d94bc75dc262ca17fefddda9fb4ea39e75f52aa54c2c50ccc1f9557b1e6787dbdb49c55fcc6cc419f0f3d3a7f540ad907bfb24ab42225ec2cff75b75106989d5d547cb51ce6ec61bf2f1d1a5f742af9279f926a940205cc0cdf55977126b8bd7d745c953c868c01df4f7d7a3f144a9947fff20af46265ac6cbf35f71146d8dd1d143cf55ca6ac21ff6f5d5a1f346ab967dfd22ad442458c4c9f15d73166f8fd3d341cd57c464cc11f8fbdbaffd48a59873f32ca34a2a56cac7ff537d186181dddd4fc359c666ce13faf9d9adff4aa79a71f12ea1482854c8c5fd517f1a6383dfdf4dc15bc060c815fcffdfabf94ca19c77f728a74e2e52cec3fb57791c6585d9d94bc75dc262ca17fefddda9fb4ea39e75f52aa54c2c50ccc1f9557b1e6787dbdb49c55fcc6cc419f0f3d3a7f540ad907bfb24ab42225ec2cff75b75106989d5d547cb51ce6ec61bf2f1d1a5f742af9279f926a940205cc0cdf55977126b8bd7d745c953c868c01df4f7d7a3f144a9947fff20af46265ac6cbf35f71146d8dd1d143cf55ca6ac21ff6f5d5a1f346ab967dfd22ad442458c4c9f15d73166f8fd3d341cd57c464cc11f8fbdbaffd48a59873f32ca344aea7ca8fcc97cc484e9da19e6920b0516966e1f8201ca3907500ce915f4e514",
        "type": "nulldata"
      }
    }
  ],
  "blockhash": "394f302ff1829b8db869c98f7b64fb5f27cc2b50e933cff1e5bbeae34fa68a80",
  "confirmations": 1,
  "time": 1764183654,
  "blocktime": 1764183654
}