{
  "hex": "01000000000101fe35d110719535bc6f50c4186b3a29603933f87b193ddcc883f901a562c7770a0100000000feffffff0250200e76792d0000225120c1e5e6e1fff7a8d92c91293e6f304e335e1d3c50fdcaa188d4fa13f52b12a02b00e1f50500000000fdd5046a2029d3fc93e005eb59ed1d9bc99e4c0104751563404fba5182d95b5ec3957f855f4db004714574e216bdb65930c63a2c7398a4f9ee1874a2ab6cd52f950aa6a2d2e618fd516554c2369d967910e61a0c53b884d9ce3854828b4cf50fb52a8682f2c638dd310534a256fdf61970867a6c33d8e4b9ae5834e2eb2c956fd54ae6e292a658bd1125148276ddd63950a65a4c13f8c4998e7814c2cb0cb54ff56ac6c2b286789df1c5f462963d36d9b046baacf31824796e98f4222bec55af158a26225266987dd1e5d442b61d16f990669a8cd33804594eb8d4020bcc758f35aa06027246b85db185b422d67d7699f006faecb35864392ed8b4626bac15ef55ca66621226d83d91a59402f65d56b9d026dacc937844190ef894424b8c35cf75ea46423206f81d714574e216bdb65930c63a2c7398a4f9ee1874a2ab6cd52f950aa6a2d2e618fd516554c2369d967910e61a0c53b884d9ce3854828b4cf50fb52a8682f2c638dd310534a256fdf61970867a6c33d8e4b9ae5834e2eb2c956fd54ae6e292a658bd1125148276ddd63950a65a4c13f8c4998e7814c2cb0cb54ff56ac6c2b286789df1c5f462963d36d9b046baacf31824796e98f4222bec55af158a26225266987dd1e5d442b61d16f990669a8cd33804594eb8d4020bcc758f35aa06027246b85db185b422d67d7699f006faecb35864392ed8b4626bac15ef55ca66621226d83d91a59402f65d56b9d026dacc937844190ef894424b8c35cf75ea46423206f81d714574e216bdb65930c63a2c7398a4f9ee1874a2ab6cd52f950aa6a2d2e618fd516554c2369d967910e61a0c53b884d9ce3854828b4cf50fb52a8682f2c638dd310534a256fdf61970867a6c33d8e4b9ae5834e2eb2c956fd54ae6e292a658bd1125148276ddd63950a65a4c13f8c4998e7814c2cb0cb54ff56ac6c2b286789df1c5f462963d36d9b046baacf31824796e98f4222bec55af158a26225266987dd1e5d442b61d16f990669a8cd33804594eb8d4020bcc758f35aa06027246b85db185b422d67d7699f006faecb35864392ed8b4626bac15ef55ca66621226d83d91a59402f65d56b9d026dacc937844190ef894424b8c35cf75ea46423206f81d714574e216bdb65930c63a2c7398a4f9ee1874a2ab6cd52f950aa6a2d2e618fd516554c2369d967910e61a0c53b884d9ce3854828b4cf50fb52a8682f2c638dd310534a256fdf61970867a6c33d8e4b9ae5834e2eb2c956fd54ae6e292a658bd1125148276ddd63950a65a4c13f8c4998e7814c2cb0cb54ff56ac6c2b286789df1c5f462963d36d9b046baacf31824796e98f4222bec55af158a26225266987dd1e5d442b61d16f990669a8cd33804594eb8d4020bcc758f35aa06027246b85db185b422d67d7699f006faecb35864392ed8b4626bac15ef55ca66621226d83d91a59402f65d56b9d026dacc937844190ef894424b8c35cf75ea46423206f81d714574e216bdb65930c63a2c7398a4f9ee1874a2ab6cd52f950aa6a2d2e618fd516554c2369d967910e61a0c53b884d9ce3854828b4cf50fb52a8682f2c638dd310534a256fdf61970867a6c33d8e4b9ae5834e2eb2c956fd54ae6e292a658bd1125148276ddd63950a65a4c13f8c4998e7814c2cb0cb54ff56ac6c2b286789df1c5f462963d36d9b046baacf3182479d3155ae7fa508f405f31d5d606afc8a54572371e01b5254818299ab1e273705602fd7509d88a3977c7d5bd3f315e415178fdfbcc20d75e0d41656fb03344d0262b77913da7888e0facd00c04e995ea7a2a5ccefc94aa5178c4edd975a3b9e4910046011bd2ceac40f5b25c0284909ab482c4446f923e29aa5d644641e08e12f42e2debd1e9d32b6c61134f44be2bafb403745a088a0b8e9ecb189bc79c0a93dfc5f3b811f081385e8ceb6c01e96326e8cfff799de3540f26a7dc9ee471f8ab1ec8c49af2484b880467b369f402117b8ce022ebf64e3c3f48009be6d0007d83425a3aefc7b55b23dd5e421177c49fb5d6af491df8e70da0dec8aa934b3bacba546e73dc73e74366b810aaa0c7d37a9fad4978d50ffcf5a80c29b6ed1c17590fae50d8e433ea05ce6e5f8dbdfddb78b3c9fdade5435b20160f610be4783afa8f065f445ee22986b4810c30ecf5aba9f2431ac5db6535df66ccd0e1415ee66a98a466cedd914be571efe23843a7d9b05c0dd50bbca05705a8b8cf5a1f21859faaebc779cb0f0805eed67bedf7c4430f2e2f2fe17458e2323eb72a0387f71321a6afad4d202ab2b546ead003edf26852220543990d7d5ff711d885219f1febf0524aea9c601484484511fee0471818ad8d4c74749a51c6b6041671298f0bdd406b7380ac72f68b9edda1835e342e2e89583ca35533f55e03274cee04612c4a265b5f8d9e3cab56310f6a87026f083f95cb6786cefe28aa0987cb85d32a937e59aa0cc35185267e3c8d49ccba707ae24171c213e5d2885d382860bd8afa95a2f36a16b5cb619b847acfc22a9e74bbecc3166187787d52338c18cf1e9cf239a00b0f372765721b108fb895342b5fe593d1e7c61f54512fd450572cbdec2cad7f3f566c89929c9e9a52ccb4ff7cc3f91954a0eb1036cc17c2408fcf0cb1123ed4296437f2ece02c21455c135ea1e430065c988eaa9a0153d9e139740e37cfa397494214acd3631fe6adf675e389d76f6a2e10f2dc6bb9ab89bbd7b1c83ba2b2ea438c0c461d7546909f3785b89714fffc860a6487305feeb7389ea812338e4aecdf9975e3a3ddb0b128d03b60633070f3deaca06cf9915bb8f6e213ce80ccaa97c9461ac14df7f830924c538c8f40cca0f09beeb1d906c9a15f84ca2a9430d0d4b6f5f4b69c6375eda48682a2ba50374d6e96ac94daf090d775d9340a197c3ca5a6ff7c395f12a6612f24c720e9ad1365f5c91632ddb91594d6fb7e2fe7e26403babebe78d7d80415fd551eb4c1a6072cf0c9720b9a4d6cca0749339fe69ede9fdb75903b0bd97c9d8fdf710fbecf347238ddcf0ecbdd79999959a69b37aa1ebb463d35f750fdfb609f2a43b33492462dbeaa12830917666492cbe2ec5d0b7c08a6465b26a6e3365b4f3b436251cc57d7358842032c5e4ca29dee5e843b7c0fede0920f1522d5457801ed4b2528b3c1e9c31cf09d76a36d90580b143673411f193b503fcbf3ab6a7393efdbd4e9161cac6561d2c2a0017b3b9671a3f62818b0b756ba6bfb25d0aba693f96a08f39bdd6608b8f937950c7c539fdd08d7e827594a755a39aa7923fabe52cde0837e808580a1f29542855646ec9adc99761edf55482ce0a8823dd50f045f414289a043ed6faa92cd50309f35ec715bfe091a3f0343a4c539198d294571e5c07f8cc82f3a89a8d3433402cfcb36998b588944ea39052fb0feb364b2d174cf9703788367e3374d913f69b0631872ad76802cdfec8cf26ea7420e34e22174a91016124e411c7f78bc484ca121696e9b0b0fd20005548e695385ba4cb67c6c807bfa67b18a8f3340538856b3f2de5600df7f73dfa1faf2bc27c537b09063002c71ce82f0b63553d480268051b3c5eac35b13bcea183e0fa7df20571be2dac382adebd3e1711d220b3cd626cfae710bfd90c9f5e1465893f7c61f3c2a96385c0691888a91922475137c987b99ce35f9e119c3adadfb5189a09b79f6841608aab7e538ff2e2ae87d6fd5e242271c66eb94d8184309f73849ea07152acbde74f3307b588df0c92fedaa80c9f23a7fe85f170fb50550ce5897e8fd19a9771f21373448bf59a5bc0ebca39a7478b539fa650452d32518a0cd8d6f7f08a745aa08531e6c972a10db0f950cefdc0e4638b2697c3c6cab265fbf2096a7517d87a707d6ae7c4ecabbeb7723ead87d122f3168aac62853fb42005be788ba2364271ca88d06585794a37e4b5ec59ea342b009b6b9668b4f5d5cdaef4dec580008d529facce941a4fc3612a586213b47455b022e8455eab494c7aaa505156fbc7db2afb74225e0d5d5dfd37581eed810f2f63858da62df617c9a72bb8f489de527619ef62aede3b67d8853779a44575a4d89223a33a95e5a9e2a6f7a4af1b95afab747b91115da6e3885ffc0fbae4623282053dbe30dd4a3f472f1c323f52fddf8eda3ebc262c1d6e4a95f28967d6531003c56763ec8a728e10467b05a404f8079e44d674a4e08d0cb12a358b5f83978084f19fe00b73fe05dcd371cb61273b66bc05e4115e79db156044d830472c081f0fecb7ffb8a9250598019b43a251aa81c221e51cb42b41cb1fab05cc1efbd546cd3288a5d21b708d66b0d1b4846bc7b38d63a33ba2f38a430ac037a1eda8a0c0bbafb574b86191f512749ba7fd9b410db8ac7722940b20b6ab3f56bb850a4b1ae433d4e38c51c3a24ff55c9cb62cc84a00d0aa0182f5637e28314e76374563bed04547dcf1b86b04a11dd148f2a88de4bf4dd0e1159ed9e76d3ca0cfc1c1323a927e7b8b1177d5b89ec26ea7c32dc2c4d48734acbdead8670ce976456002bac5b2ab130b5b2ce3beb61ef384558a90990a59bd9ca7a49bcc38efd42a081920bada04658b3619a02f47c8ecd37a6eab23a2be5ccdf58437a3fcfcb7d960a2ba33e836701b7917912b0b46d72f408194605e4f0b07c11f44fc990db5974fe8a2f81a45f2978b50d5eaaf087e8d0a728c4ed8b88952cf0a88a3c5a03e053bcee4caec765a0c57c82cc5dfe3170c121bba095c33bd83274e81c39414db2490b84ffe3bf94e12637e8ef46ecc4f00b5530712ed4004a808c57135140cd2c15937206e9e0134601dde6cd69ac8b28ef35949eb3faf887b326399b5998dacc77633bec6389d9cf18fc929e69fd273cf88c99bd1a19d3c68ee5a0fd4dfe42ffa102cd8df68469988f8cb19e4978f01e6f3721776631e88860e68ea9cae50a72a357153773761c31156b147908d69f2a665845f80b9f4dcce4e2b24f51abd63d98254826cf4289f990e376e2234ff853b42360489c3a9dab7c92aefaa8e1de000523b025120ab8cdee5867065be0be3b4c11a533f010b9f81c2a32486f7acc0e427072787c8591989b9ca2b4b6b7bccce9f71319232b3743477883909aa3b2bbc1c4cae0fe001c252a34547f89aab2b5d6e1f3f70000000000000000000000000000000000000000071a2d3c01fd2105008267870960014e28b15af1d33ff07775f5d7f7cc3c2581e32ccf4c70daa531201301d362d3f98339866fa6c823d19ca119284c2a6e40d07d9690f854ba8c5fd02ee066c9166ce19002af0531d1890fdc186151c5bb73cd03ddc646aa8501f71ee1fcdf7a06f9dbdb0bfcde3b4e8f0f0d11b7418fd4c6bedde60f2e77ca9abf8c099a3473ba8c52f326c4aa24dbbc5835fb8902651bdfe855165df9987805a8c2e6703865e5ca8a723efc89a659f0f5ecb914eacfc8fdceb0f8def80948247915f551db8f61d3e42a48203e7b3a93df1d548a336feacc49d3b03144763d63d525d27c0bb379514f6b92c3fa1b050c59f5a5df6f9c59ae205cae13e0095e075b3a4a37cbf818b2a0a2977eeabdccd2fc12f6941ca35302f932c44eb84b05aee10fae70f7df7f3e1d9c87c5367f7b5db38ec9fad1676d3d9bdecc2f092d488f0e2c25a5a8191390cac4906ad4e91ac8ed1cad5fc13e942c615361cf20bd8d88dfe93fd08e292e124dab82713b655fe1d3e9d622746c5eed0edf284af3ccb551993151de0f3cf9a7d33616f4c686699948bdcb3f5f95adaf6cdd73c72224814bbee4469e98a8a3444e35cff19dc88232934552007b23ffc9708c224df29b062454ac032c5ed0e0660c2d4ac3a0f7f1aab2c4e73f057bedadc2324debe617b03c7466c561f8a81c9f68e42d151266efbfd81f475572d17b2be7dbdfaffd529284e3e329f43cfa7797248ced836bf2eee14273c76f20a0aa1afb0122237696b0b9acae15c0199039cbbc446f963a6783ba4ac89521f265cdb84c3cd025a02e44de44fa1ae42fdf59e73e7e1b940dfe680af598d3546cb90fca654deec1df710135e6e1b33a0a139f9943f368895e8ab265993e9a5cbe5e750aed8795e24ea3de1fcfe2fb880b3bcd72922495d4605dc5da519224903d514e38fd02fc5e4f079fd669cfbd3509aca8cf315399c1f686b7a6942165b84a3ff61f055a9c60660473ee8012d075e0c63d67a524cd9972043af69978e666b2b8c5b96d794cf1276529e2ffaf16a207d6a0c43d9ebe75cfb338946fe96e1ac4bb1fa78e5bf81b5cef7b1de4ba3ebceba110747c31a6cf8db65f6e4ecc4ea96ff50d9e59288267f426833ff5ac26e044ed2ff3ba89ed4621f0e9963d16ee3852df28ed439f389ab15a696f1435e19c2c83bb07bd472fe57cbce3331f0cc9ea4d7e36d7a63faf828fa69c445a238ecb4448903138b59f060a4eb3423fa422066733e47bcd6f50bd73dff3d432a951fec92b112df4088568ecaccaef8b3abc36bcbb9a63858f01fa4f5f9d80f00f6b078ffcddf62c64a8081264ee6a79d36c5d49a688dcb1cc9a1296783075ddf163b341eb51845aa8723cdaaf8c0342c658c9189a678e4f3a2987374618ffa57073142b2167d0b5a4f0ba729435ebaaa650218e0af15ddd9cb63385adb1279524298e15bec105beb4184e1d91be258e6a74883f2b0e95680e985b8231a07bae76245dcba1671e833cbb4703ace71fc597adc37e9f573baee35f5e559dbb2a4f0235c7553e02c576ac4f86d3c9073dd6189d8ec2d37f1f28b21dca7f5c6213e9445ffcb0f19b4617a440078bb194712e355f37a69225d90ddb39cbf916697a95644c0f9cd2057aa2ad7955a2e68c0c8e1cfbb1f30631f0db977fab0b0fb4b8b93b8520ba2781e08b6dd0aa987487c85acee97cfc4dc46a61ab1c51fbf5231cdf49ca3151668e6264ba40a090e33c7a0b6b58ad01b1b9b6314eaf6c0c123ad57378f69d890a1db2a1238877e8eb2e46790ccc3132016b758ba57e69f42b5fc621be4ef97310dd105eb0c6d0430f1c00115ab33f7b457e18e209a6092e8c3c0f58b768000000",
  "txid": "0abcb555e0df5bbdf440cb453256987a59827df46c2714aecf5e02fb32ad18be",
  "hash": "15abaf3b29dde9c9535bab63558c0733326467403c1348a554a227918184af5c",
  "size": 5085,
  "vsize": 2278,
  "version": 1,
  "locktime": 104,
  "vin": [
    {
      "txid": "0a77c762a501f983c8dc3d197bf8333960293a6b18c4506fbc35957110d135fe",
      "vout": 1,
      "scriptSig": {
        "asm": "",
        "hex": ""
      },
      "txinwitness": [
        "d88a3977c7d5bd3f315e415178fdfbcc20d75e0d41656fb03344d0262b77913da7888e0facd00c04e995ea7a2a5ccefc94aa5178c4edd975a3b9e4910046011bd2ceac40f5b25c0284909ab482c4446f923e29aa5d644641e08e12f42e2debd1e9d32b6c61134f44be2bafb403745a088a0b8e9ecb189bc79c0a93dfc5f3b811f081385e8ceb6c01e96326e8cfff799de3540f26a7dc9ee471f8ab1ec8c49af2484b880467b369f402117b8ce022ebf64e3c3f48009be6d0007d83425a3aefc7b55b23dd5e421177c49fb5d6af491df8e70da0dec8aa934b3bacba546e73dc73e74366b810aaa0c7d37a9fad4978d50ffcf5a80c29b6ed1c17590fae50d8e433ea05ce6e5f8dbdfddb78b3c9fdade5435b20160f610be4783afa8f065f445ee22986b4810c30ecf5aba9f2431ac5db6535df66ccd0e1415ee66a98a466cedd914be571efe23843a7d9b05c0dd50bbca05705a8b8cf5a1f21859faaebc779cb0f0805eed67bedf7c4430f2e2f2fe17458e2323eb72a0387f71321a6afad4d202ab2b546ead003edf26852220543990d7d5ff711d885219f1febf0524aea9c601484484511fee0471818ad8d4c74749a51c6b6041671298f0bdd406b7380ac72f68b9edda1835e342e2e89583ca35533f55e03274cee04612c4a265b5f8d9e3cab56310f6a87026f083f95cb6786cefe28aa0987cb85d32a937e59aa0cc35185267e3c8d49ccba707ae24171c213e5d2885d382860bd8afa95a2f36a16b5cb619b847acfc22a9e74bbecc3166187787d52338c18cf1e9cf239a00b0f372765721b108fb895342b5fe593d1e7c61f54512fd450572cbdec2cad7f3f566c89929c9e9a52ccb4ff7cc3f91954a0eb1036cc17c2408fcf0cb1123ed4296437f2ece02c21455c135ea1e430065c988eaa9a0153d9e139740e37cfa397494214acd3631fe6adf675e389d76f6a2e10f2dc6bb9ab89bbd7b1c83ba2b2ea438c0c461d7546909f3785b89714fffc860a6487305feeb7389ea812338e4aecdf9975e3a3ddb0b128d03b60633070f3deaca06cf9915bb8f6e213ce80ccaa97c9461ac14df7f830924c538c8f40cca0f09beeb1d906c9a15f84ca2a9430d0d4b6f5f4b69c6375eda48682a2ba50374d6e96ac94daf090d775d9340a197c3ca5a6ff7c395f12a6612f24c720e9ad1365f5c91632ddb91594d6fb7e2fe7e26403babebe78d7d80415fd551eb4c1a6072cf0c9720b9a4d6cca0749339fe69ede9fdb75903b0bd97c9d8fdf710fbecf347238ddcf0ecbdd79999959a69b37aa1ebb463d35f750fdfb609f2a43b33492462dbeaa12830917666492cbe2ec5d0b7c08a6465b26a6e3365b4f3b436251cc57d7358842032c5e4ca29dee5e843b7c0fede0920f1522d5457801ed4b2528b3c1e9c31cf09d76a36d90580b143673411f193b503fcbf3ab6a7393efdbd4e9161cac6561d2c2a0017b3b9671a3f62818b0b756ba6bfb25d0aba693f96a08f39bdd6608b8f937950c7c539fdd08d7e827594a755a39aa7923fabe52cde0837e808580a1f29542855646ec9adc99761edf55482ce0a8823dd50f045f414289a043ed6faa92cd50309f35ec715bfe091a3f0343a4c539198d294571e5c07f8cc82f3a89a8d3433402cfcb36998b588944ea39052fb0feb364b2d174cf9703788367e3374d913f69b0631872ad76802cdfec8cf26ea7420e34e22174a91016124e411c7f78bc484ca121696e9b0b0fd20005548e695385ba4cb67c6c807bfa67b18a8f3340538856b3f2de5600df7f73dfa1faf2bc27c537b09063002c71ce82f0b63553d480268051b3c5eac35b13bcea183e0fa7df20571be2dac382adebd3e1711d220b3cd626cfae710bfd90c9f5e1465893f7c61f3c2a96385c0691888a91922475137c987b99ce35f9e119c3adadfb5189a09b79f6841608aab7e538ff2e2ae87d6fd5e242271c66eb94d8184309f73849ea07152acbde74f3307b588df0c92fedaa80c9f23a7fe85f170fb50550ce5897e8fd19a9771f21373448bf59a5bc0ebca39a7478b539fa650452d32518a0cd8d6f7f08a745aa08531e6c972a10db0f950cefdc0e4638b2697c3c6cab265fbf2096a7517d87a707d6ae7c4ecabbeb7723ead87d122f3168aac62853fb42005be788ba2364271ca88d06585794a37e4b5ec59ea342b009b6b9668b4f5d5cdaef4dec580008d529facce941a4fc3612a586213b47455b022e8455eab494c7aaa505156fbc7db2afb74225e0d5d5dfd37581eed810f2f63858da62df617c9a72bb8f489de527619ef62aede3b67d8853779a44575a4d89223a33a95e5a9e2a6f7a4af1b95afab747b91115da6e3885ffc0fbae4623282053dbe30dd4a3f472f1c323f52fddf8eda3ebc262c1d6e4a95f28967d6531003c56763ec8a728e10467b05a404f8079e44d674a4e08d0cb12a358b5f83978084f19fe00b73fe05dcd371cb61273b66bc05e4115e79db156044d830472c081f0fecb7ffb8a9250598019b43a251aa81c221e51cb42b41cb1fab05cc1efbd546cd3288a5d21b708d66b0d1b4846bc7b38d63a33ba2f38a430ac037a1eda8a0c0bbafb574b86191f512749ba7fd9b410db8ac7722940b20b6ab3f56bb850a4b1ae433d4e38c51c3a24ff55c9cb62cc84a00d0aa0182f5637e28314e76374563bed04547dcf1b86b04a11dd148f2a88de4bf4dd0e1159ed9e76d3ca0cfc1c1323a927e7b8b1177d5b89ec26ea7c32dc2c4d48734acbdead8670ce976456002bac5b2ab130b5b2ce3beb61ef384558a90990a59bd9ca7a49bcc38efd42a081920bada04658b3619a02f47c8ecd37a6eab23a2be5ccdf58437a3fcfcb7d960a2ba33e836701b7917912b0b46d72f408194605e4f0b07c11f44fc990db5974fe8a2f81a45f2978b50d5eaaf087e8d0a728c4ed8b88952cf0a88a3c5a03e053bcee4caec765a0c57c82cc5dfe3170c121bba095c33bd83274e81c39414db2490b84ffe3bf94e12637e8ef46ecc4f00b5530712ed4004a808c57135140cd2c15937206e9e0134601dde6cd69ac8b28ef35949eb3faf887b326399b5998dacc77633bec6389d9cf18fc929e69fd273cf88c99bd1a19d3c68ee5a0fd4dfe42ffa102cd8df68469988f8cb19e4978f01e6f3721776631e88860e68ea9cae50a72a357153773761c31156b147908d69f2a665845f80b9f4dcce4e2b24f51abd63d98254826cf4289f990e376e2234ff853b42360489c3a9dab7c92aefaa8e1de000523b025120ab8cdee5867065be0be3b4c11a533f010b9f81c2a32486f7acc0e427072787c8591989b9ca2b4b6b7bccce9f71319232b3743477883909aa3b2bbc1c4cae0fe001c252a34547f89aab2b5d6e1f3f70000000000000000000000000000000000000000071a2d3c01",
        "008267870960014e28b15af1d33ff07775f5d7f7cc3c2581e32ccf4c70daa531201301d362d3f98339866fa6c823d19ca119284c2a6e40d07d9690f854ba8c5fd02ee066c9166ce19002af0531d1890fdc186151c5bb73cd03ddc646aa8501f71ee1fcdf7a06f9dbdb0bfcde3b4e8f0f0d11b7418fd4c6bedde60f2e77ca9abf8c099a3473ba8c52f326c4aa24dbbc5835fb8902651bdfe855165df9987805a8c2e6703865e5ca8a723efc89a659f0f5ecb914eacfc8fdceb0f8def80948247915f551db8f61d3e42a48203e7b3a93df1d548a336feacc49d3b03144763d63d525d27c0bb379514f6b92c3fa1b050c59f5a5df6f9c59ae205cae13e0095e075b3a4a37cbf818b2a0a2977eeabdccd2fc12f6941ca35302f932c44eb84b05aee10fae70f7df7f3e1d9c87c5367f7b5db38ec9fad1676d3d9bdecc2f092d488f0e2c25a5a8191390cac4906ad4e91ac8ed1cad5fc13e942c615361cf20bd8d88dfe93fd08e292e124dab82713b655fe1d3e9d622746c5eed0edf284af3ccb551993151de0f3cf9a7d33616f4c686699948bdcb3f5f95adaf6cdd73c72224814bbee4469e98a8a3444e35cff19dc88232934552007b23ffc9708c224df29b062454ac032c5ed0e0660c2d4ac3a0f7f1aab2c4e73f057bedadc2324debe617b03c7466c561f8a81c9f68e42d151266efbfd81f475572d17b2be7dbdfaffd529284e3e329f43cfa7797248ced836bf2eee14273c76f20a0aa1afb0122237696b0b9acae15c0199039cbbc446f963a6783ba4ac89521f265cdb84c3cd025a02e44de44fa1ae42fdf59e73e7e1b940dfe680af598d3546cb90fca654deec1df710135e6e1b33a0a139f9943f368895e8ab265993e9a5cbe5e750aed8795e24ea3de1fcfe2fb880b3bcd72922495d4605dc5da519224903d514e38fd02fc5e4f079fd669cfbd3509aca8cf315399c1f686b7a6942165b84a3ff61f055a9c60660473ee8012d075e0c63d67a524cd9972043af69978e666b2b8c5b96d794cf1276529e2ffaf16a207d6a0c43d9ebe75cfb338946fe96e1ac4bb1fa78e5bf81b5cef7b1de4ba3ebceba110747c31a6cf8db65f6e4ecc4ea96ff50d9e59288267f426833ff5ac26e044ed2ff3ba89ed4621f0e9963d16ee3852df28ed439f389ab15a696f1435e19c2c83bb07bd472fe57cbce3331f0cc9ea4d7e36d7a63faf828fa69c445a238ecb4448903138b59f060a4eb3423fa422066733e47bcd6f50bd73dff3d432a951fec92b112df4088568ecaccaef8b3abc36bcbb9a63858f01fa4f5f9d80f00f6b078ffcddf62c64a8081264ee6a79d36c5d49a688dcb1cc9a1296783075ddf163b341eb51845aa8723cdaaf8c0342c658c9189a678e4f3a2987374618ffa57073142b2167d0b5a4f0ba729435ebaaa650218e0af15ddd9cb63385adb1279524298e15bec105beb4184e1d91be258e6a74883f2b0e95680e985b8231a07bae76245dcba1671e833cbb4703ace71fc597adc37e9f573baee35f5e559dbb2a4f0235c7553e02c576ac4f86d3c9073dd6189d8ec2d37f1f28b21dca7f5c6213e9445ffcb0f19b4617a440078bb194712e355f37a69225d90ddb39cbf916697a95644c0f9cd2057aa2ad7955a2e68c0c8e1cfbb1f30631f0db977fab0b0fb4b8b93b8520ba2781e08b6dd0aa987487c85acee97cfc4dc46a61ab1c51fbf5231cdf49ca3151668e6264ba40a090e33c7a0b6b58ad01b1b9b6314eaf6c0c123ad57378f69d890a1db2a1238877e8eb2e46790ccc3132016b758ba57e69f42b5fc621be4ef97310dd105eb0c6d0430f1c00115ab33f7b457e18e209a6092e8c3c0f58b7"
      ],
      "sequence": 4294967294
    }
  ],
  "vout": [
    {
      "value": 499996.9493,
      "n": 0,
      "scriptPubKey": {
        "asm": "1 c1e5e6e1fff7a8d92c91293e6f304e335e1d3c50fdcaa188d4fa13f52b12a02b",
        "hex": "5120c1e5e6e1fff7a8d92c91293e6f304e335e1d3c50fdcaa188d4fa13f52b12a02b",
        "reqSigs": 1,
        "type": "witness_v1_scripthash",
        "addresses": [
          "3QJmnh"
        ]
      }
    },
    {
      "value": 1.0,
      "n": 1,
      "scriptPubKey": {
        "asm": "OP_RETURN 29d3fc93e005eb59ed1d9bc99e4c0104751563404fba5182d95b5ec3957f855f 714574e216bdb65930c63a2c7398a4f9ee1874a2ab6cd52f950aa6a2d2e618fd516554c2369d967910e61a0c53b884d9ce3854828b4cf50fb52a8682f2c638dd310534a256fdf61970867a6c33d8e4b9ae5834e2eb2c956fd54ae6e292a658bd1125148276ddd63950a65a4c13f8c4998e7814c2cb0cb54ff56ac6c2b286789df1c5f462963d36d9b046baacf31824796e98f4222bec55af158a26225266987dd1e5d442b61d16f990669a8cd33804594eb8d4020bcc758f35aa06027246b85db185b422d67d7699f006faecb35864392ed8b4626bac15ef55ca66621226d83d91a59402f65d56b9d026dacc937844190ef894424b8c35cf75ea46423206f81d714574e216bdb65930c63a2c7398a4f9ee1874a2ab6cd52f950aa6a2d2e618fd516554c2369d967910e61a0c53b884d9ce3854828b4cf50fb52a8682f2c638dd310534a256fdf61970867a6c33d8e4b9ae5834e2eb2c956fd54ae6e292a658bd1125148276ddd63950a65a4c13f8c4998e7814c2cb0cb54ff56ac6c2b286789df1c5f462963d36d9b046baacf31824796e98f4222bec55af158a26225266987dd1e5d442b61d16f990669a8cd33804594eb8d4020bcc758f35aa06027246b85db185b422d67d7699f006faecb35864392ed8b4626bac15ef55ca66621226d83d91a59402f65d56b9d026dacc937844190ef894424b8c35cf75ea46423206f81d714574e216bdb65930c63a2c7398a4f9ee1874a2ab6cd52f950aa6a2d2e618fd516554c2369d967910e61a0c53b884d9ce3854828b4cf50fb52a8682f2c638dd310534a256fdf61970867a6c33d8e4b9ae5834e2eb2c956fd54ae6e292a658bd1125148276ddd63950a65a4c13f8c4998e7814c2cb0cb54ff56ac6c2b286789df1c5f462963d36d9b046baacf31824796e98f4222bec55af158a26225266987dd1e5d442b61d16f990669a8cd33804594eb8d4020bcc758f35aa06027246b85db185b422d67d7699f006faecb35864392ed8b4626bac15ef55ca66621226d83d91a59402f65d56b9d026dacc937844190ef894424b8c35cf75ea46423206f81d714574e216bdb65930c63a2c7398a4f9ee1874a2ab6cd52f950aa6a2d2e618fd516554c2369d967910e61a0c53b884d9ce3854828b4cf50fb52a8682f2c638dd310534a256fdf61970867a6c33d8e4b9ae5834e2eb2c956fd54ae6e292a658bd1125148276ddd63950a65a4c13f8c4998e7814c2cb0cb54ff56ac6c2b286789df1c5f462963d36d9b046baacf31824796e98f4222bec55af158a26225266987dd1e5d442b61d16f990669a8cd33804594eb8d4020bcc758f35aa06027246b85db185b422d67d7699f006faecb35864392ed8b4626bac15ef55ca66621226d83d91a59402f65d56b9d026dacc937844190ef894424b8c35cf75ea46423206f81d714574e216bdb65930c63a2c7398a4f9ee1874a2ab6cd52f950aa6a2d2e618fd516554c2369d967910e61a0c53b884d9ce3854828b4cf50fb52a8682f2c638dd310534a256fdf61970867a6c33d8e4b9ae5834e2eb2c956fd54ae6e292a658bd1125148276ddd63950a65a4c13f8c4998e7814c2cb0cb54ff56ac6c2b286789df1c5f462963d36d9b046baacf3182479d3155ae7fa508f405f31d5d606afc8a54572371e01b5254818299ab1e2737056",
        "hex": "6a2029d3fc93e005eb59ed1d9bc99e4c0104751563404fba5182d95b5ec3957f855f4db004714574e216bdb65930c63a2c7398a4f9ee1874a2ab6cd52f950aa6a2d2e618fd516554c2369d967910e61a0c53b884d9ce3854828b4cf50fb52a8682f2c638dd310534a256fdf61970867a6c33d8e4b9ae5834e2eb2c956fd54ae6e292a658bd1125148276ddd63950a65a4c13f8c4998e7814c2cb0cb54ff56ac6c2b286789df1c5f462963d36d9b046baacf31824796e98f4222bec55af158a26225266987dd1e5d442b61d16f990669a8cd33804594eb8d4020bcc758f35aa06027246b85db185b422d67d7699f006faecb35864392ed8b4626bac15ef55ca66621226d83d91a59402f65d56b9d026dacc937844190ef894424b8c35cf75ea46423206f81d714574e216bdb65930c63a2c7398a4f9ee1874a2ab6cd52f950aa6a2d2e618fd516554c2369d967910e61a0c53b884d9ce3854828b4cf50fb52a8682f2c638dd310534a256fdf61970867a6c33d8e4b9ae5834e2eb2c956fd54ae6e292a658bd1125148276ddd63950a65a4c13f8c4998e7814c2cb0cb54ff56ac6c2b286789df1c5f462963d36d9b046baacf31824796e98f4222bec55af158a26225266987dd1e5d442b61d16f990669a8cd33804594eb8d4020bcc758f35aa06027246b85db185b422d67d7699f006faecb35864392ed8b4626bac15ef55ca66621226d83d91a59402f65d56b9d026dacc937844190ef894424b8c35cf75ea46423206f81d714574e216bdb65930c63a2c7398a4f9ee1874a2ab6cd52f950aa6a2d2e618fd516554c2369d967910e61a0c53b884d9ce3854828b4cf50fb52a8682f2c638dd310534a256fdf61970867a6c33d8e4b9ae5834e2eb2c956fd54ae6e292a658bd1125148276ddd63950a65a4c13f8c4998e7814c2cb0cb54ff56ac6c2b286789df1c5f462963d36d9b046baacf31824796e98f4222bec55af158a26225266987dd1e5d442b61d16f990669a8cd33804594eb8d4020bcc758f35aa06027246b85db185b422d67d7699f006faecb35864392ed8b4626bac15ef55ca66621226d83d91a59402f65d56b9d026dacc937844190ef894424b8c35cf75ea46423206f81d714574e216bdb65930c63a2c7398a4f9ee1874a2ab6cd52f950aa6a2d2e618fd516554c2369d967910e61a0c53b884d9ce3854828b4cf50fb52a8682f2c638dd310534a256fdf61970867a6c33d8e4b9ae5834e2eb2c956fd54ae6e292a658bd1125148276ddd63950a65a4c13f8c4998e7814c2cb0cb54ff56ac6c2b286789df1c5f462963d36d9b046baacf31824796e98f4222bec55af158a26225266987dd1e5d442b61d16f990669a8cd33804594eb8d4020bcc758f35aa06027246b85db185b422d67d7699f006faecb35864392ed8b4626bac15ef55ca66621226d83d91a59402f65d56b9d026dacc937844190ef894424b8c35cf75ea46423206f81d714574e216bdb65930c63a2c7398a4f9ee1874a2ab6cd52f950aa6a2d2e618fd516554c2369d967910e61a0c53b884d9ce3854828b4cf50fb52a8682f2c638dd310534a256fdf61970867a6c33d8e4b9ae5834e2eb2c956fd54ae6e292a658bd1125148276ddd63950a65a4c13f8c4998e7814c2cb0cb54ff56ac6c2b286789df1c5f462963d36d9b046baacf3182479d3155ae7fa508f405f31d5d606afc8a54572371e01b5254818299ab1e2737056",
        "type": "nulldata"
      }
    }
  ],
  "blockhash": "32a2d379a33ec88ae1cb3a8a1a44f2d12b76aebf574ecf7ac16b289397ed6cd9",
  "confirmations": 1,
  "time": 1764176557,
  "blocktime": 1764176557
}