{
  "hex": "01000000000101df9afe4426509a2796644c5e174b14511828a1911ca1087700ba947c447174510100000000feffffff023079f9a7782d0000225120e12bb2a63c642272973fe6708f450d9593b3bc23694fd93ddd4938921761beee00e1f50500000000fdd5046a208c12ca9b014c6624d48922eb5314f45b5dc6e0c87a2a6c28e0d6e11f601d3f384db004e9accbfe0110c59f9ae3b75a66c5015eab40ffd59d15eb61bc0908b05ea62753c98cebde2130e5bfbac3977a46e5217e8b60dff5bd35cb419c2928907e860773a9ec8bbe415085dfdaa3f71a2685411eeb00bf95dd55ab21fc4948f01ee6671389ccab9e6170a5fffa83d73a06a5613ecb209fb5fd758b01dc6968d03ec64733692c4b7e8190451f1a6337dae64581de2bc07f551d956be13c898830de26a7d3490c6b5ea1b0653f3a4317fac665a1fe0be05f753db54bc11ca9a810fe0687f3296c0b3ec1d0055f5a23779aa605c19e6b803f155dd52ba17cc9c8709e66e793094c2b1ee1f0257f7a0357ba8625e1be4ba01f357df50b815ce9e850be46c7b3e9accbfe0110c59f9ae3b75a66c5015eab40ffd59d15eb61bc0908b05ea62753c98cebde2130e5bfbac3977a46e5217e8b60dff5bd35cb419c2928907e860773a9ec8bbe415085dfdaa3f71a2685411eeb00bf95dd55ab21fc4948f01ee6671389ccab9e6170a5fffa83d73a06a5613ecb209fb5fd758b01dc6968d03ec64733692c4b7e8190451f1a6337dae64581de2bc07f551d956be13c898830de26a7d3490c6b5ea1b0653f3a4317fac665a1fe0be05f753db54bc11ca9a810fe0687f3296c0b3ec1d0055f5a23779aa605c19e6b803f155dd52ba17cc9c8709e66e793094c2b1ee1f0257f7a0357ba8625e1be4ba01f357df50b815ce9e850be46c7b3e9accbfe0110c59f9ae3b75a66c5015eab40ffd59d15eb61bc0908b05ea62753c98cebde2130e5bfbac3977a46e5217e8b60dff5bd35cb419c2928907e860773a9ec8bbe415085dfdaa3f71a2685411eeb00bf95dd55ab21fc4948f01ee6671389ccab9e6170a5fffa83d73a06a5613ecb209fb5fd758b01dc6968d03ec64733692c4b7e8190451f1a6337dae64581de2bc07f551d956be13c898830de26a7d3490c6b5ea1b0653f3a4317fac665a1fe0be05f753db54bc11ca9a810fe0687f3296c0b3ec1d0055f5a23779aa605c19e6b803f155dd52ba17cc9c8709e66e793094c2b1ee1f0257f7a0357ba8625e1be4ba01f357df50b815ce9e850be46c7b3e9accbfe0110c59f9ae3b75a66c5015eab40ffd59d15eb61bc0908b05ea62753c98cebde2130e5bfbac3977a46e5217e8b60dff5bd35cb419c2928907e860773a9ec8bbe415085dfdaa3f71a2685411eeb00bf95dd55ab21fc4948f01ee6671389ccab9e6170a5fffa83d73a06a5613ecb209fb5fd758b01dc6968d03ec64733692c4b7e8190451f1a6337dae64581de2bc07f551d956be13c898830de26a7d3490c6b5ea1b0653f3a4317fac665a1fe0be05f753db54bc11ca9a810fe0687f3296c0b3ec1d0055f5a23779aa605c19e6b803f155dd52ba17cc9c8709e66e793094c2b1ee1f0257f7a0357ba8625e1be4ba01f357df50b815ce9e850be46c7b3e9accbfe0110c59f9ae3b75a66c5015eab40ffd59d15eb61bc0908b05ea62753c98cebde2130e5bfbac3977a46e5217e8b60dff5bd35cb419c2928907e860773a9ec8bbe415085dfdaa3f71a2685411eeb00bf95dd55ab21fc4948f01ee6671389ccab9e6170a5fffa83d73a06a5613ecb209fb5fd758b01dc6968d03ec64733692c4b7e8190451f1a6337dae64581dedc4feb25973ed57a63019420b618cd43d2fdedbcc4cb71fe3faa038795ce072a02fd750940d96232fa48457367d264386cf4faee5b8ea92d89114bbcd75c4d5b4ef8fc6a8d15b136e99474bca161ac87f916bf95e910b8bedb93fb9b1afe8d5e0f4c2c48c81e387da52714b6835ae8d4dc56b2d98f8a461475c67a989d5d4af8f60bb5603e80e55673559d7216dc78a86786829ede59e061f66a67889f709b7b6dee6b7f5eb2e1aa0522a71fed6990436a0914ee18167ca4493a4d3e498951a091c6ca92fbe862c810cfedd1ed3a25b50916c0d83672e37f1f38902013a2f3f7d04225c019b0c56188e8e7a248d92986ae2a834c35cf85b780e30639e8d856f2a2725740a0d960ba07ef66763e2a9c45dc1a3e35a3ab7c9d58e32537845031a2306b27b2f67150c733461c22d897f3ed6abdffe772e8174e73d93546f9ebee858e597b6bbdb5ca987a8c197c4d6c4d6f0a8775eb76c8e1cdf4e37130a83006e78ff968d35b80a7e42a39bd86cb374cd9970b80ceef2158380be5ad2558ebe32279e18a36815311e4e2ba461e15ce0fdf149ae7a974aa8d5b525f4b027f1c0cd158369484549f00a4aba5db42d19490f40ea125075ca852cfa96114204e10333482aec7838a0f78619211789c28e02318cff76fad62fddc15267e7639b88804bcf08b0c79556051fab5c8fab09937e98545a1265195763a970d6fda07d0f95987e45de53ad759b6da31f20378620af6e2fc4b6d4aca04a1ca73ffa008d4e8a57aa32fc51e0da9ae8e5fbb7723e2ba32c20eea3388fdd92f4f81cf80a7354cc8d215ced6f978975c2e87fcbcf31458a65112c3e221ac737d8ef553e6d1d5ed68e7a6664e73270ba3da3d2d1cede3d65b9916b97edbd7f558faaa90c72fe41a7f8c8c5d9e60ba2557ecc2ada933ec944eb4a3127bc8450009fd7db592184938080566348cb503ef2a462d0abfc3be9b9d9c00707de1d70bbafca9ef2f6ad7e9fb2592750d2d0c4653039f615932bce15714e2a2488d1b3f0e05afa10d1b0e8bafbae673bbf865800757b821a8efda19f6b9a41d6f11e293472ed977cdf539e8c6057a976844dddb78212e2a601fd08bf8989c7d2221a302487a697e9aac45e825087fe98802c5225ca71af6c944e01a25d8870a0d3e4b1e8b53ae680c4a6dfd8a839a6f311496e6fbec8c228316fea318ea5088473c676a7eb578a744e9ab2fb067475c0bceafce707c2643696e270591c262327de9ceee241478d88e60aff1f1450277c2b50f378a284f63d43117b309494ec1abb2d6280920abd51f840efb6210af4d0ba4c41fa850bd4a4d65ace84edea590c34f758e4ee84dafb7c8aa6ead2f07b6a5c46c3ad2544cbdf90c80c37e2bc1fd71a1cb5dd5e7036e6b0b8e4ac4847e437a575ec0d670e4ff4f2af21b7cb1c8b7cb35b2c08bec1fa19dd4a370c46ef0ff8c193a3e0a5b31a1edd35de37f1fd63690288b92b78938ff5feb373ecd2dcf07cd66eadb07aed6449537fa89e342a8ccc52ef04fbe5e23f20472a25190cac45218973fe55189d11760addf2cb40d1ad7b3b44026b24e43cd81372ab7e55a4f38d191dd41de60b7c440823c1fbee8df98a861a8bfb8b94397473d5b9c57fda4b850f8be6ef467e3b6d394764141335d3a8424ef8cda638c90707274f900db47f3be10d3b924b02fb35737024d07340732d1465070789215a30ac7f3b7268d5e07eda862a1e290149dad8a0028b8c06ef50e8f97430b7e511386a8e9565f15d8695497eced67554b653a093b4aa90a2528122c9695a54311be50deb319760b7811ad21fb385e56eb0f126b824ca7b449f63843b7fec7e1cd675a77862c0355e6f15f0c6d47e99ae66ed9b6ce97c94e47e458744122680b41c90476a4351b5e14b0a48d362da3d60cf24b7ffba5a2fa2c0ac344e4c5f23c81f56f831eaa6717dc4f8ee315938adfcdbc67fcc50e217c55d4bab8be3e384c2d8d07d4c29dff21a22c5ba8e16b7b056a503f62f585cbe69a72db88b628e78645b5746cd8785046c4168edf32d167aa131f31be2f2171f0f957ee060a673420666a899f929e24741436c70e5d9797bc55fb8c6428341df967b0815fcac22f923eadcd68dc75a521b1e9dba3fb1ebe508eacd37e369deef004e25636ae9f49db0e00f4a63aeae2b921ab702bbb36ce81535a3a04756fdcc223fdc325f1220ef51c8368d6fe8654558fceaaeb1a4cd71420e6369c007d19f79557d01ccba228befef219de270a1ce3ebfb8f99bf83b3b9bbf3818aa6d533e7d790dee568427984b30e3afe99b764d04f5b02948778c81213c3784d1195467a214c88b2018cbf3d861343bb2c223791b96a08cdf5711fa39ec1f330668c1bd81530d3481e1c0486862b333aa5e4f98027afabf36420ae06dd6320c81b9fe681fbc6301647eb94d6a20d4671673fefaf12a47d4305824fa23dc32b5b7bf1db58c77fdb3a5fb2d4ce7e480a0049de999ebd70141f7c862c0cca0fa8fc7b0726ae98caa6d5b60013dd3ab0f898df176eeee17a72d4992216a0ece0db59fb22421c9000329fa82af42d585340d1e4c10ed60f1928536609ae59782603cd5d256825d699127ea050956fd5eef1e569ed7bfb36813021e2f09db602197f45bc000900e9b2f123e185e32e3d38408231945c1803282aa439d39bfdcbdb78887c4b7de756a6fdcb4334732705edb2bfd076c5cc262c6c7cda93cf3c38d544561ac9917ee7e81efccad1638a47ff0796b75fa7bc223f60da1741bcdbad4f2d46d828b6de2eb148ec3b73935f95bdeb17bdee2dfd4138f11feda0370e8d42fbc0229eadf0a09ec76e908c8de7842d6b236245c463eeed0cb5804409641778f159057b8bee5afaa965356e5413befd0593adea29eb50c3e80c9e17b06c78f0f82910b7057d1ff3d6f2f2882a87fc86a331f307543e17b3c8919dbc17921ad069f5dc55921ffcaf10b202467028219925b123317475cd97e32856881b64e9fc73eb6f119cf81c232526c8eb2a95145b0c619780ee519c5bc2135d4e1ae1c7e2c8caf318fd44e07270b9bd10a3be847aa5b85d8fde53d30bc42600bdec5fd06f39d83be0d3f858c78d0fb8ba49bb44ea7eddb9b3d208c488cf341aefe35a2f8d5c8bd271269ea67e0b886b14d174baa72a1a5f937054fdf5170d860916a4a89ddadde2891c6be49c539cb3533b1d63bdd30a3db111fd24b1d30d52ec547e23cadd590914e6c650f3f2da705634c00ba636d8930c2d1773ad4866a72270a206b213e75a3cba8239b21d36b1921a6c1e956242d09b1d289d8772c75f86b183211808cbcf580cf46a5b7eb843425ec0c7692435d41f6f11887566db0325464f585e77a0b0bdc6f6fb0f1e22394f5178838c9ab5d9e1f4050c191f32343c6c899596b7c1c2cadce11c1f202842546372858fa1adb6e7eef200000000000000000000000000000000000000000d1b2c3c01fd21050073d8452591ac6fdc739144a83f3855aa3fada04e5bed7f3b95a393d7acef40de89a6afe2df480f9062df62b74e1d731ae93f350b314c4f989de8a4eb0afff3587c079ab76b2fd027d1483107cdf2eac3f5185f058ce9d201155bda4adb60b02ccfdf4834cacebd1f2096bc38bf9df57b818ea20088a51b10d86126db4f2c19bf6b6a8b53afe91157275d6208b51454e908f856c8e114a7be32a2558d1c966f6968e4cc7f2061c7909cd938ec53cf6c0bc39ddc1875a8bc0c5b28d493b4bc330200a770c9088db1a2c95f5ef19b776484dbfadeaf05258a73728bf2fc211c6421af75147be1775119b6c9e907ecb6376e4bda36d301cd915c465e7dfd604c4484dd5c4a122769db95de249e6ae30374a81401f7fa8959c4e17cf50dc567440c90649862dadab0f243180403b1451b483e64264496b3ebda2ebc635671ade2421010132c80827784a892b46db60aba971e2c90f9f2a799807691f3f77101e05298ae3b044c6cd3de222df4943f100aa918c5d74c0add32e71257e1f811e008a7174cc8d07ac4752864de8015ca2be011d2513409004337679e4f08cf9d8e2f1ec2831366aacfb1780232a833bd72ce86155e7e984271aee3cde6bfd494d7dfbb5d68aae1fb08297eab8fcff750c71dd279e18d620e2e9a8c2846f08480f968536555ccff9414e5e3a89ac682e72049072701d5e0971119145595be138b414c702e664276ca1103baaf8d4142ccc67ea91194f844521ce9618458123e532ff255606933f94d09f24fb5eac223d547764b838076f433556d5e08378878b53e307506d1991f6591833b7099c57367d2c46edcac304703801e6ce05e207fe03d8cae5a0733e612ab24b5d9110915ea263531fa2774cea16c31d9c496c2a5456e5bef06d4866f9be29ffd52e1a49ab89cdce5f2bef36121c7329e6ad1c807de82477fc2df6e438589da8cfd24756cba0319378d305c63c283018daced4be1f78fe74d3bdb0136f9ba96e495f04196df365d75d2db7ea51bbbe7267546ff74d8fc2d20913a6eaf82b86b6b0f80a8d4773014dfdbedbfe954777652e733bdea89eb96fdfd7b55bd8aaaf54f205e9a1b99890c55f2fc31392bb80b4b5ab67e402e738c3851bf3c613997ce682b24194ddce24ab9e8ee7e17bcc90a21b8ccd7b6e379f93297fbfd2295272b40d725c172e01115cb3bc00db0fe6dff19f2ada7d9364541048185077820dffbce900ed837e432d8bb28517165bee831128ae27799986f82a590ae1776b9da3543a5394c538d9811403cc6be7319bf7fdc7eab30e7d5aa70dbab0e6558840435f948fe66870c59cdda6054f04c88d633df578be1a13915612d4634cda86a418893aa4e27f875443f173ea8a704e69deb04610cd183006e82e7b9189863c114e347ef1748c13dda0dba11fa1b33be32fab9c1167f73d78d22c3509d53409c9bfa29aca69a28408e379fa3b739f971b7d679a54fd3b7a1663de9ca44d0e1630529bdc0abbca5e4cb14379882276717c59f9038f34105b09dfef976470c6d96af173006d904ae2aa6712e9b49c5d0c9194388253fe8a3ed440d86cb69bd84203b189d277a6c5bd6a7d3095f85c3613d6fc9c902bf718af9f95559c041aeab2d0da8d4f6b196de0d67be22e416a42239e2edbaacc4f984b9cd307789706ded51506bc003d3de247d319466d6544d1901dca84ce2db9f1a916d3270a44dc1761597dc43cf415ef61d260cdaabbd5faf5a1a0defc50c2251c4b7cae7fc32f57b5f6b743d402fee60200ad576ccf1f7b278c01aa860641965bbebac3496f2cf9dab47fed817febf928455115b3845182f47368966013794068afdab822a87000000",
  "txid": "08625ff8291b2a1b8ec3c3ee9f7aded32e8cf5044b3c9049d400c551977e30da",
  "hash": "0f2e63ba69bf56e32329c9f727161620f5bcb5c603431b31264fa552548ca175",
  "size": 5085,
  "vsize": 2278,
  "version": 1,
  "locktime": 135,
  "vin": [
    {
      "txid": "517471447c94ba007708a11c91a1281851144b175e4c6496279a502644fe9adf",
      "vout": 1,
      "scriptSig": {
        "asm": "",
        "hex": ""
      },
      "txinwitness": [
        "40d96232fa48457367d264386cf4faee5b8ea92d89114bbcd75c4d5b4ef8fc6a8d15b136e99474bca161ac87f916bf95e910b8bedb93fb9b1afe8d5e0f4c2c48c81e387da52714b6835ae8d4dc56b2d98f8a461475c67a989d5d4af8f60bb5603e80e55673559d7216dc78a86786829ede59e061f66a67889f709b7b6dee6b7f5eb2e1aa0522a71fed6990436a0914ee18167ca4493a4d3e498951a091c6ca92fbe862c810cfedd1ed3a25b50916c0d83672e37f1f38902013a2f3f7d04225c019b0c56188e8e7a248d92986ae2a834c35cf85b780e30639e8d856f2a2725740a0d960ba07ef66763e2a9c45dc1a3e35a3ab7c9d58e32537845031a2306b27b2f67150c733461c22d897f3ed6abdffe772e8174e73d93546f9ebee858e597b6bbdb5ca987a8c197c4d6c4d6f0a8775eb76c8e1cdf4e37130a83006e78ff968d35b80a7e42a39bd86cb374cd9970b80ceef2158380be5ad2558ebe32279e18a36815311e4e2ba461e15ce0fdf149ae7a974aa8d5b525f4b027f1c0cd158369484549f00a4aba5db42d19490f40ea125075ca852cfa96114204e10333482aec7838a0f78619211789c28e02318cff76fad62fddc15267e7639b88804bcf08b0c79556051fab5c8fab09937e98545a1265195763a970d6fda07d0f95987e45de53ad759b6da31f20378620af6e2fc4b6d4aca04a1ca73ffa008d4e8a57aa32fc51e0da9ae8e5fbb7723e2ba32c20eea3388fdd92f4f81cf80a7354cc8d215ced6f978975c2e87fcbcf31458a65112c3e221ac737d8ef553e6d1d5ed68e7a6664e73270ba3da3d2d1cede3d65b9916b97edbd7f558faaa90c72fe41a7f8c8c5d9e60ba2557ecc2ada933ec944eb4a3127bc8450009fd7db592184938080566348cb503ef2a462d0abfc3be9b9d9c00707de1d70bbafca9ef2f6ad7e9fb2592750d2d0c4653039f615932bce15714e2a2488d1b3f0e05afa10d1b0e8bafbae673bbf865800757b821a8efda19f6b9a41d6f11e293472ed977cdf539e8c6057a976844dddb78212e2a601fd08bf8989c7d2221a302487a697e9aac45e825087fe98802c5225ca71af6c944e01a25d8870a0d3e4b1e8b53ae680c4a6dfd8a839a6f311496e6fbec8c228316fea318ea5088473c676a7eb578a744e9ab2fb067475c0bceafce707c2643696e270591c262327de9ceee241478d88e60aff1f1450277c2b50f378a284f63d43117b309494ec1abb2d6280920abd51f840efb6210af4d0ba4c41fa850bd4a4d65ace84edea590c34f758e4ee84dafb7c8aa6ead2f07b6a5c46c3ad2544cbdf90c80c37e2bc1fd71a1cb5dd5e7036e6b0b8e4ac4847e437a575ec0d670e4ff4f2af21b7cb1c8b7cb35b2c08bec1fa19dd4a370c46ef0ff8c193a3e0a5b31a1edd35de37f1fd63690288b92b78938ff5feb373ecd2dcf07cd66eadb07aed6449537fa89e342a8ccc52ef04fbe5e23f20472a25190cac45218973fe55189d11760addf2cb40d1ad7b3b44026b24e43cd81372ab7e55a4f38d191dd41de60b7c440823c1fbee8df98a861a8bfb8b94397473d5b9c57fda4b850f8be6ef467e3b6d394764141335d3a8424ef8cda638c90707274f900db47f3be10d3b924b02fb35737024d07340732d1465070789215a30ac7f3b7268d5e07eda862a1e290149dad8a0028b8c06ef50e8f97430b7e511386a8e9565f15d8695497eced67554b653a093b4aa90a2528122c9695a54311be50deb319760b7811ad21fb385e56eb0f126b824ca7b449f63843b7fec7e1cd675a77862c0355e6f15f0c6d47e99ae66ed9b6ce97c94e47e458744122680b41c90476a4351b5e14b0a48d362da3d60cf24b7ffba5a2fa2c0ac344e4c5f23c81f56f831eaa6717dc4f8ee315938adfcdbc67fcc50e217c55d4bab8be3e384c2d8d07d4c29dff21a22c5ba8e16b7b056a503f62f585cbe69a72db88b628e78645b5746cd8785046c4168edf32d167aa131f31be2f2171f0f957ee060a673420666a899f929e24741436c70e5d9797bc55fb8c6428341df967b0815fcac22f923eadcd68dc75a521b1e9dba3fb1ebe508eacd37e369deef004e25636ae9f49db0e00f4a63aeae2b921ab702bbb36ce81535a3a04756fdcc223fdc325f1220ef51c8368d6fe8654558fceaaeb1a4cd71420e6369c007d19f79557d01ccba228befef219de270a1ce3ebfb8f99bf83b3b9bbf3818aa6d533e7d790dee568427984b30e3afe99b764d04f5b02948778c81213c3784d1195467a214c88b2018cbf3d861343bb2c223791b96a08cdf5711fa39ec1f330668c1bd81530d3481e1c0486862b333aa5e4f98027afabf36420ae06dd6320c81b9fe681fbc6301647eb94d6a20d4671673fefaf12a47d4305824fa23dc32b5b7bf1db58c77fdb3a5fb2d4ce7e480a0049de999ebd70141f7c862c0cca0fa8fc7b0726ae98caa6d5b60013dd3ab0f898df176eeee17a72d4992216a0ece0db59fb22421c9000329fa82af42d585340d1e4c10ed60f1928536609ae59782603cd5d256825d699127ea050956fd5eef1e569ed7bfb36813021e2f09db602197f45bc000900e9b2f123e185e32e3d38408231945c1803282aa439d39bfdcbdb78887c4b7de756a6fdcb4334732705edb2bfd076c5cc262c6c7cda93cf3c38d544561ac9917ee7e81efccad1638a47ff0796b75fa7bc223f60da1741bcdbad4f2d46d828b6de2eb148ec3b73935f95bdeb17bdee2dfd4138f11feda0370e8d42fbc0229eadf0a09ec76e908c8de7842d6b236245c463eeed0cb5804409641778f159057b8bee5afaa965356e5413befd0593adea29eb50c3e80c9e17b06c78f0f82910b7057d1ff3d6f2f2882a87fc86a331f307543e17b3c8919dbc17921ad069f5dc55921ffcaf10b202467028219925b123317475cd97e32856881b64e9fc73eb6f119cf81c232526c8eb2a95145b0c619780ee519c5bc2135d4e1ae1c7e2c8caf318fd44e07270b9bd10a3be847aa5b85d8fde53d30bc42600bdec5fd06f39d83be0d3f858c78d0fb8ba49bb44ea7eddb9b3d208c488cf341aefe35a2f8d5c8bd271269ea67e0b886b14d174baa72a1a5f937054fdf5170d860916a4a89ddadde2891c6be49c539cb3533b1d63bdd30a3db111fd24b1d30d52ec547e23cadd590914e6c650f3f2da705634c00ba636d8930c2d1773ad4866a72270a206b213e75a3cba8239b21d36b1921a6c1e956242d09b1d289d8772c75f86b183211808cbcf580cf46a5b7eb843425ec0c7692435d41f6f11887566db0325464f585e77a0b0bdc6f6fb0f1e22394f5178838c9ab5d9e1f4050c191f32343c6c899596b7c1c2cadce11c1f202842546372858fa1adb6e7eef200000000000000000000000000000000000000000d1b2c3c01",
        "0073d8452591ac6fdc739144a83f3855aa3fada04e5bed7f3b95a393d7acef40de89a6afe2df480f9062df62b74e1d731ae93f350b314c4f989de8a4eb0afff3587c079ab76b2fd027d1483107cdf2eac3f5185f058ce9d201155bda4adb60b02ccfdf4834cacebd1f2096bc38bf9df57b818ea20088a51b10d86126db4f2c19bf6b6a8b53afe91157275d6208b51454e908f856c8e114a7be32a2558d1c966f6968e4cc7f2061c7909cd938ec53cf6c0bc39ddc1875a8bc0c5b28d493b4bc330200a770c9088db1a2c95f5ef19b776484dbfadeaf05258a73728bf2fc211c6421af75147be1775119b6c9e907ecb6376e4bda36d301cd915c465e7dfd604c4484dd5c4a122769db95de249e6ae30374a81401f7fa8959c4e17cf50dc567440c90649862dadab0f243180403b1451b483e64264496b3ebda2ebc635671ade2421010132c80827784a892b46db60aba971e2c90f9f2a799807691f3f77101e05298ae3b044c6cd3de222df4943f100aa918c5d74c0add32e71257e1f811e008a7174cc8d07ac4752864de8015ca2be011d2513409004337679e4f08cf9d8e2f1ec2831366aacfb1780232a833bd72ce86155e7e984271aee3cde6bfd494d7dfbb5d68aae1fb08297eab8fcff750c71dd279e18d620e2e9a8c2846f08480f968536555ccff9414e5e3a89ac682e72049072701d5e0971119145595be138b414c702e664276ca1103baaf8d4142ccc67ea91194f844521ce9618458123e532ff255606933f94d09f24fb5eac223d547764b838076f433556d5e08378878b53e307506d1991f6591833b7099c57367d2c46edcac304703801e6ce05e207fe03d8cae5a0733e612ab24b5d9110915ea263531fa2774cea16c31d9c496c2a5456e5bef06d4866f9be29ffd52e1a49ab89cdce5f2bef36121c7329e6ad1c807de82477fc2df6e438589da8cfd24756cba0319378d305c63c283018daced4be1f78fe74d3bdb0136f9ba96e495f04196df365d75d2db7ea51bbbe7267546ff74d8fc2d20913a6eaf82b86b6b0f80a8d4773014dfdbedbfe954777652e733bdea89eb96fdfd7b55bd8aaaf54f205e9a1b99890c55f2fc31392bb80b4b5ab67e402e738c3851bf3c613997ce682b24194ddce24ab9e8ee7e17bcc90a21b8ccd7b6e379f93297fbfd2295272b40d725c172e01115cb3bc00db0fe6dff19f2ada7d9364541048185077820dffbce900ed837e432d8bb28517165bee831128ae27799986f82a590ae1776b9da3543a5394c538d9811403cc6be7319bf7fdc7eab30e7d5aa70dbab0e6558840435f948fe66870c59cdda6054f04c88d633df578be1a13915612d4634cda86a418893aa4e27f875443f173ea8a704e69deb04610cd183006e82e7b9189863c114e347ef1748c13dda0dba11fa1b33be32fab9c1167f73d78d22c3509d53409c9bfa29aca69a28408e379fa3b739f971b7d679a54fd3b7a1663de9ca44d0e1630529bdc0abbca5e4cb14379882276717c59f9038f34105b09dfef976470c6d96af173006d904ae2aa6712e9b49c5d0c9194388253fe8a3ed440d86cb69bd84203b189d277a6c5bd6a7d3095f85c3613d6fc9c902bf718af9f95559c041aeab2d0da8d4f6b196de0d67be22e416a42239e2edbaacc4f984b9cd307789706ded51506bc003d3de247d319466d6544d1901dca84ce2db9f1a916d3270a44dc1761597dc43cf415ef61d260cdaabbd5faf5a1a0defc50c2251c4b7cae7fc32f57b5f6b743d402fee60200ad576ccf1f7b278c01aa860641965bbebac3496f2cf9dab47fed817febf928455115b3845182f47368966013794068afdab822a"
      ],
      "sequence": 4294967294
    }
  ],
  "vout": [
    {
      "value": 499962.3747,
      "n": 0,
      "scriptPubKey": {
        "asm": "1 e12bb2a63c642272973fe6708f450d9593b3bc23694fd93ddd4938921761beee",
        "hex": "5120e12bb2a63c642272973fe6708f450d9593b3bc23694fd93ddd4938921761beee",
        "reqSigs": 1,
        "type": "witness_v1_scripthash",
        "addresses": [
          "3QJmnh"
        ]
      }
    },
    {
      "value": 1.0,
      "n": 1,
      "scriptPubKey": {
        "asm": "OP_RETURN 8c12ca9b014c6624d48922eb5314f45b5dc6e0c87a2a6c28e0d6e11f601d3f38 e9accbfe0110c59f9ae3b75a66c5015eab40ffd59d15eb61bc0908b05ea62753c98cebde2130e5bfbac3977a46e5217e8b60dff5bd35cb419c2928907e860773a9ec8bbe415085dfdaa3f71a2685411eeb00bf95dd55ab21fc4948f01ee6671389ccab9e6170a5fffa83d73a06a5613ecb209fb5fd758b01dc6968d03ec64733692c4b7e8190451f1a6337dae64581de2bc07f551d956be13c898830de26a7d3490c6b5ea1b0653f3a4317fac665a1fe0be05f753db54bc11ca9a810fe0687f3296c0b3ec1d0055f5a23779aa605c19e6b803f155dd52ba17cc9c8709e66e793094c2b1ee1f0257f7a0357ba8625e1be4ba01f357df50b815ce9e850be46c7b3e9accbfe0110c59f9ae3b75a66c5015eab40ffd59d15eb61bc0908b05ea62753c98cebde2130e5bfbac3977a46e5217e8b60dff5bd35cb419c2928907e860773a9ec8bbe415085dfdaa3f71a2685411eeb00bf95dd55ab21fc4948f01ee6671389ccab9e6170a5fffa83d73a06a5613ecb209fb5fd758b01dc6968d03ec64733692c4b7e8190451f1a6337dae64581de2bc07f551d956be13c898830de26a7d3490c6b5ea1b0653f3a4317fac665a1fe0be05f753db54bc11ca9a810fe0687f3296c0b3ec1d0055f5a23779aa605c19e6b803f155dd52ba17cc9c8709e66e793094c2b1ee1f0257f7a0357ba8625e1be4ba01f357df50b815ce9e850be46c7b3e9accbfe0110c59f9ae3b75a66c5015eab40ffd59d15eb61bc0908b05ea62753c98cebde2130e5bfbac3977a46e5217e8b60dff5bd35cb419c2928907e860773a9ec8bbe415085dfdaa3f71a2685411eeb00bf95dd55ab21fc4948f01ee6671389ccab9e6170a5fffa83d73a06a5613ecb209fb5fd758b01dc6968d03ec64733692c4b7e8190451f1a6337dae64581de2bc07f551d956be13c898830de26a7d3490c6b5ea1b0653f3a4317fac665a1fe0be05f753db54bc11ca9a810fe0687f3296c0b3ec1d0055f5a23779aa605c19e6b803f155dd52ba17cc9c8709e66e793094c2b1ee1f0257f7a0357ba8625e1be4ba01f357df50b815ce9e850be46c7b3e9accbfe0110c59f9ae3b75a66c5015eab40ffd59d15eb61bc0908b05ea62753c98cebde2130e5bfbac3977a46e5217e8b60dff5bd35cb419c2928907e860773a9ec8bbe415085dfdaa3f71a2685411eeb00bf95dd55ab21fc4948f01ee6671389ccab9e6170a5fffa83d73a06a5613ecb209fb5fd758b01dc6968d03ec64733692c4b7e8190451f1a6337dae64581de2bc07f551d956be13c898830de26a7d3490c6b5ea1b0653f3a4317fac665a1fe0be05f753db54bc11ca9a810fe0687f3296c0b3ec1d0055f5a23779aa605c19e6b803f155dd52ba17cc9c8709e66e793094c2b1ee1f0257f7a0357ba8625e1be4ba01f357df50b815ce9e850be46c7b3e9accbfe0110c59f9ae3b75a66c5015eab40ffd59d15eb61bc0908b05ea62753c98cebde2130e5bfbac3977a46e5217e8b60dff5bd35cb419c2928907e860773a9ec8bbe415085dfdaa3f71a2685411eeb00bf95dd55ab21fc4948f01ee6671389ccab9e6170a5fffa83d73a06a5613ecb209fb5fd758b01dc6968d03ec64733692c4b7e8190451f1a6337dae64581dedc4feb25973ed57a63019420b618cd43d2fdedbcc4cb71fe3faa038795ce072a",
        "hex": "6a208c12ca9b014c6624d48922eb5314f45b5dc6e0c87a2a6c28e0d6e11f601d3f384db004e9accbfe0110c59f9ae3b75a66c5015eab40ffd59d15eb61bc0908b05ea62753c98cebde2130e5bfbac3977a46e5217e8b60dff5bd35cb419c2928907e860773a9ec8bbe415085dfdaa3f71a2685411eeb00bf95dd55ab21fc4948f01ee6671389ccab9e6170a5fffa83d73a06a5613ecb209fb5fd758b01dc6968d03ec64733692c4b7e8190451f1a6337dae64581de2bc07f551d956be13c898830de26a7d3490c6b5ea1b0653f3a4317fac665a1fe0be05f753db54bc11ca9a810fe0687f3296c0b3ec1d0055f5a23779aa605c19e6b803f155dd52ba17cc9c8709e66e793094c2b1ee1f0257f7a0357ba8625e1be4ba01f357df50b815ce9e850be46c7b3e9accbfe0110c59f9ae3b75a66c5015eab40ffd59d15eb61bc0908b05ea62753c98cebde2130e5bfbac3977a46e5217e8b60dff5bd35cb419c2928907e860773a9ec8bbe415085dfdaa3f71a2685411eeb00bf95dd55ab21fc4948f01ee6671389ccab9e6170a5fffa83d73a06a5613ecb209fb5fd758b01dc6968d03ec64733692c4b7e8190451f1a6337dae64581de2bc07f551d956be13c898830de26a7d3490c6b5ea1b0653f3a4317fac665a1fe0be05f753db54bc11ca9a810fe0687f3296c0b3ec1d0055f5a23779aa605c19e6b803f155dd52ba17cc9c8709e66e793094c2b1ee1f0257f7a0357ba8625e1be4ba01f357df50b815ce9e850be46c7b3e9accbfe0110c59f9ae3b75a66c5015eab40ffd59d15eb61bc0908b05ea62753c98cebde2130e5bfbac3977a46e5217e8b60dff5bd35cb419c2928907e860773a9ec8bbe415085dfdaa3f71a2685411eeb00bf95dd55ab21fc4948f01ee6671389ccab9e6170a5fffa83d73a06a5613ecb209fb5fd758b01dc6968d03ec64733692c4b7e8190451f1a6337dae64581de2bc07f551d956be13c898830de26a7d3490c6b5ea1b0653f3a4317fac665a1fe0be05f753db54bc11ca9a810fe0687f3296c0b3ec1d0055f5a23779aa605c19e6b803f155dd52ba17cc9c8709e66e793094c2b1ee1f0257f7a0357ba8625e1be4ba01f357df50b815ce9e850be46c7b3e9accbfe0110c59f9ae3b75a66c5015eab40ffd59d15eb61bc0908b05ea62753c98cebde2130e5bfbac3977a46e5217e8b60dff5bd35cb419c2928907e860773a9ec8bbe415085dfdaa3f71a2685411eeb00bf95dd55ab21fc4948f01ee6671389ccab9e6170a5fffa83d73a06a5613ecb209fb5fd758b01dc6968d03ec64733692c4b7e8190451f1a6337dae64581de2bc07f551d956be13c898830de26a7d3490c6b5ea1b0653f3a4317fac665a1fe0be05f753db54bc11ca9a810fe0687f3296c0b3ec1d0055f5a23779aa605c19e6b803f155dd52ba17cc9c8709e66e793094c2b1ee1f0257f7a0357ba8625e1be4ba01f357df50b815ce9e850be46c7b3e9accbfe0110c59f9ae3b75a66c5015eab40ffd59d15eb61bc0908b05ea62753c98cebde2130e5bfbac3977a46e5217e8b60dff5bd35cb419c2928907e860773a9ec8bbe415085dfdaa3f71a2685411eeb00bf95dd55ab21fc4948f01ee6671389ccab9e6170a5fffa83d73a06a5613ecb209fb5fd758b01dc6968d03ec64733692c4b7e8190451f1a6337dae64581dedc4feb25973ed57a63019420b618cd43d2fdedbcc4cb71fe3faa038795ce072a",
        "type": "nulldata"
      }
    }
  ],
  "blockhash": "04b08afa406522d4605e5542ad480440adf33b25b306f33fff8225e2cbbf4733",
  "confirmations": 1,
  "time": 1764183055,
  "blocktime": 1764183055
}