{
  "hex": "01000000000101a339ca7de77b592f92a49b818738d73f54218247550f34ac8516c4748fdeb74f0100000000feffffff0200e1f50500000000fdd5046a20c0ffb678054e80c30812ac7543556117ea73dc445b876a76d3ad0429bd3ac7b54db004cfb48c2629e99a8e9278f7119216bb7d94479de271c3d11dc878d41d8dfd44c6ef94ac0609c9baaeb258d731b2369b5db467bdc251e3f13de858f43daddd64e68ff4cc6669a9daced238b751d256fb3dd407dda23183915d8838945dcdbd0486afd4ec464989faeef2189771f276db1df427fd8211a3b17da818b47ded9d24a64f340ca6a9691a0e12f8779112963bfd14c71d62f143519d48f8549d0d7dc4466f142c8689493a2e32d857b132b61bdd34e73d42d16371bd68d874bd2d5de4660f744ce6e9295a4e52b837d152d67bbd54875d22b10311dd08b814dd4d3d84062f546cc6c9097a6e729817f172f65b9d74a77d02912331fd289834fd6d1da426cfb48c2629e99a8e9278f7119216bb7d94479de271c3d11dc878d41d8dfd44c6ef94ac0609c9baaeb258d731b2369b5db467bdc251e3f13de858f43daddd64e68ff4cc6669a9daced238b751d256fb3dd407dda23183915d8838945dcdbd0486afd4ec464989faeef2189771f276db1df427fd8211a3b17da818b47ded9d24a64f340ca6a9691a0e12f8779112963bfd14c71d62f143519d48f8549d0d7dc4466f142c8689493a2e32d857b132b61bdd34e73d42d16371bd68d874bd2d5de4660f744ce6e9295a4e52b837d152d67bbd54875d22b10311dd08b814dd4d3d84062f546cc6c9097a6e729817f172f65b9d74a77d02912331fd289834fd6d1da426cfb48c2629e99a8e9278f7119216bb7d94479de271c3d11dc878d41d8dfd44c6ef94ac0609c9baaeb258d731b2369b5db467bdc251e3f13de858f43daddd64e68ff4cc6669a9daced238b751d256fb3dd407dda23183915d8838945dcdbd0486afd4ec464989faeef2189771f276db1df427fd8211a3b17da818b47ded9d24a64f340ca6a9691a0e12f8779112963bfd14c71d62f143519d48f8549d0d7dc4466f142c8689493a2e32d857b132b61bdd34e73d42d16371bd68d874bd2d5de4660f744ce6e9295a4e52b837d152d67bbd54875d22b10311dd08b814dd4d3d84062f546cc6c9097a6e729817f172f65b9d74a77d02912331fd289834fd6d1da426cfb48c2629e99a8e9278f7119216bb7d94479de271c3d11dc878d41d8dfd44c6ef94ac0609c9baaeb258d731b2369b5db467bdc251e3f13de858f43daddd64e68ff4cc6669a9daced238b751d256fb3dd407dda23183915d8838945dcdbd0486afd4ec464989faeef2189771f276db1df427fd8211a3b17da818b47ded9d24a64f340ca6a9691a0e12f8779112963bfd14c71d62f143519d48f8549d0d7dc4466f142c8689493a2e32d857b132b61bdd34e73d42d16371bd68d874bd2d5de4660f744ce6e9295a4e52b837d152d67bbd54875d22b10311dd08b814dd4d3d84062f546cc6c9097a6e729817f172f65b9d74a77d02912331fd289834fd6d1da426cfb48c2629e99a8e9278f7119216bb7d94479de271c3d11dc878d41d8dfd44c6ef94ac0609c9baaeb258d731b2369b5db467bdc251e3f13de858f43daddd64e68ff4cc6669a9daced238b751d256fb3dd407dda23183915d8838945dcdbd0486afd4ec464989faeef2189771f276db1df427fd8211a3b17da818b47ded9d24a64f340ca6a9691a0e12f8779112963bfd3b55f1ee0d8f35ac6fc276b249a0dd1b747d2ee1dbb622b4d5dfe4c63adc72906076a04b792d00002251207c0eb0c1bb5b0ba9335d6b0ea4f4faa256157bad0f938ec0a7876fd87990b74b02fd750955e6bc0f0c7892aaec3710ddb90deaed533611337e6f59b778832a66aef44b54bd38a1f5541243703841d46dca085334f63d2d619dc6005dd8ccb5204ab920ff7e38a9dcc17c1d36c5fbc29a29ef5a92c19ced2522e58fd497b7d07cb001ef9d7af6feae5e3a5cc9c32733c6c78d3d148b08cb1a330d7e04b6b07b8f5959c25dee8f694780c0d8ea6851403da08724c1d3212dbf057c62201c153f278aac47942c8b9095ed597ba3112b1fdb66d8b051bebfeebc03e2df7381061d21ab255dc8d9d298e023f25cf5bde08535e63360370fa690dfab44a68902420ceeedd185ad798c5746ec58cf94600961db16bb162db9a5cc0e9524a13ff184ed466aa42a8616702510f4f0da54f60b4ebd5f58721774efc0445a9bfd69f10c12a7a247be82231f0fd2a1508fe018b67534c4313e36c251f7782ae534689e700a5c773d804d8631e2128aa74a565c48a8d12f49735fb42caf920471b31ae6310fa1d3d0148be769430d161c80b1ff86dd45b4ce17ac9bf9bca2fd1d4de59718e64fd76b987cef3b89a64922341a8e8b2cb96ee6bd882ea4233ec7b02941ed32995615e04987fd2b8e6e9a62f42a8997e10e2eaf2a7dc11cb3b84d491d7b3c75e270854a05cff954f6a3ed16efda3df719289f7188a0b5e8dfb0ddf93ec60f5c1befba46baf22b74bb866cf5a42e5e1b78f4b1b3a1f1e9d8bf93c51d78c6a0a7027dbeb0f70bec3937aa5383f5495c1c9353656ffda2e913a22cd9f1280d7a150895825c574c132b4132804f315a9597bc77ed35c93694833b05904658f5c3f43e2f9ba14d87f86d58b1d2e85683208d7abc2de7ecc379a4dc2313549a69582ed7ee5ef85194a69c5d7b6534c366ebbdf19f2f278514006cd8aa79d6d584c46bc695a287234b64cdc7926ad7778e71755a9b665ba3f73ee6ebd950f4b7c0fa42c1b6a0dc012047bf0dc67123848cf5d5a06bfd5150c88e0bb5f3f848feaa3b79475ae5cb5bf9a35d5f80cb40b3e8bd095b2edf4b3e2cb94501e73b023dd74fdb4cca3e2e4fb95cad9ce51745725acfa242dc490a689c718e8be48dd759ece52ee333e0a52161ccc2f5ac80f49babc9d7f178cc1e4a75ce995bb9c09c5952cf28ccefa36efbda3206b5ddbc024c86f02c22c2a86deb2aa43cf2f0abfad2289f60e1de6c253bf8d4da7fbe93b364030267c1389697ade25a61470c5e66efe96f5298f0b21ce38e07377ddb66776c00827c664018bb4ded040afc726cd95a2d723be69ddf56687de768ededaef123ae71aa055fd438701ec98b44e934f8e404f00d5df7192ac1ed636fbd81496eff8e8b5728b3b4623776b6431a450e28f23d81c65d3d4273a7a27ca5e632a62c911ab81b6ba7ac209834a60077b830669ae155e7cd3c39932aa7ab5bb183aab5d1b506266dd92db3bd1d742e08be9057874a217b26571719f7b92ce286709923a8255e30c631611024eefff5ce6aecf357c5634064ed76f75602d9d9b83458844d38dc04a35d3bd3dd4836752cd160ee05cb9515a80b989dd984c508cc3de7f224aefd784eaee2b533e4381645a5caeba5b8c94a28de8056f41d1ee690dc3f3f22d39ea73d71411871fcc6cf973bf182405a6e978475313275f25652179210aaf15c1d7831e268ab3de00f836eb6952b3acff35983e2d84158e2be898abe4f9bf78a232e2e8cb9f2985ae21b4326f0c440bf34b151f75e3aeb816c5045f85f5c7dbb9261ae9e27962b45f256172385f6be8d46249b36e739c17bb74bca374cae46d0abd361a29722b04ddda22b7016221b0f4378e8e72c39397fdbf2715dec8f044fd4711731de5efceb8665bd12fc7aa9c02d19f511de8c4d7e9541168d5fc32017e19f66db0002591421127150ceeff9ba834e10566d50d1788fe6bcc2f6916ea591ddd5fcd4690ec48baa455bebe65a4c8a3c02763a89b7a3fe70a76ea8435ad42b49aba8af949343fb763d9f2872aee3b5b6f8b83119dbcd628fc292777aa518e8fc99c91b724c64072be75c5429768086f8a09339a5c78153eecc5b92fa4d79c90b59ecc696927d4605708e9babd15305d4c5ffa4f92aa73eff98a32a577882ff9714797b52e0bd3dda53057d434b0a44fa1f4aaf1037ba3c69fe5e3869bf2d0f9c2e803d16568c592fc5560d24d7056d09cd18f60f4f3e2ca0f8d78bf9a1cd49e55a0dc405056e00604f99d3682836a0697b6019861ca6ccb79a3461dfeda3d944380cf53eafee006dad6d2c20bebc26d796cf3a3175302428657161800937f121cd5779e56d23b91116f571b6a0c1f8dbfe4127c29cf0e8e4609ab2bd3d25b1065912dc73fa38e21f5f4bdb18353cba031ffe8d11efb2ec08185fef81d117df8794a989acb819766131f5bbb46c52e02249fe698be241fb0d013ba3f99abbbb87f2b4dc872d1d1d35cf0325335b1bd06373228d8580cf5c531cb7202446c9c339a4d592b0b21bb4fec8a639789edba5d303b98309348d3bd851bdfa5256fa48fb4891bb451c8571d3a886126ead4e815ad44babb755706b4c84b537775e4974a82b83cec299571d2800259a7cb8154541aff5386bda2a19d32f4522cd61f8eabda87257d13e693bf0eb0ef10c2d8b52c5d6e4d7d045c71dd1736b1369ebee4158481bf1ce0d80ed7bcf97b47ab1ac18193e611dc3c0c83ad7f196afb3ce04f2d7e9c7844267eedc6f6e5e3ce2d5ba84116b2a508195b8334bf43b0e584283c2583ff929e69806a9bce565eb68eb1644e5dbbb39b47e01a8d49914204772ee04d637f13e877f08154968835a5cfb6208cd2d8d7f041bc818ff1024c4372fc5b1e46e93d00fce59dceee59d2dbb37975f81696aff57a92d367dea288e6702adf4ffd7e465cf169acf90131272f15cd13b8daca2474676ec64a2bd789f2c335e9848bd31d0078437ade77a6d30f729afc82d238afa2652ff2685e239e393d9fb5d67c6a3273b36905e42d8843f8cfaea498184bd5c8ac224af1edb0ba6c92b4e843804d249d0e3c727a46d8c15247fb03214e5a2b33c45bcc7f8ad872ece533d52aa5d96bdba6dc1bdaab313c5ba655610016bbd7129a0dd5e6c750cd80ed127744ce57d4b9c12c4fff38131f123343e50c5ce674f7eb582560fe3b70657c84322468babf5939a97c28e3479f9f989cdf481d0fb8acbe3e184152ff27035b2d653d67fc1fb990e813c89b2a487795cd894af94edb1cee320ec37a860e75b3e4582a2fa0cad97713a3c5e17c5ff4c4e1c4db1eaaf9abf5748500c56654dad77179e71e50ef42701d7dc2ed057b99df859a79aaab4c41e89471e2c454d6061777d92a0a5ade6e7ecf3fe031a232a363e4c556071b9bccbdadbf0f1f8feff1463717b8993aab4b8e1f80424354c5556686f81989dc3e4f10000000000000000000000000000000000001125303e01fd210500258ab8eea1a4db21386a6202831906f2f3a009f599570a3fa4c005f24665372c2ad6b94c4668dc5e3e6c2d34a8ee3c746f6b55ac83136a969503b0e902e9ade3cb686c7b222c77bd088f6222c3b91ed0a862dff34e83321d85b956af16a9162f20891144c9734851d2b9203d23d6ed4754bdeb824466f66cb2167a83679ce95ab83cc83b070582257fc5800faaf34091b3a76135ced603c98623e56deef122576775a514f9fa9afed79556403eeacaa421ef9956a8a3768455b59a5b1111585039f14051bb83f75b62415a01f4c5a03cc012a8794fa2eb47c26ce15d55c950e414f59ecd3ed1aba517d3a4cfb05baef0082263da16647b23b9cfae2e83754a6d9c494d887000c4c8aeca4df3f9446e6539bcb35c9401ece80ad0796b805f8bc4b2101c6c231059ff15e5b2f98493b28742e105f81d21826752c80f5baad9d980f601147ab1bd25b69e0dd29a832b1b775a6f7e5a98e9b536c5423dbf9b8854f848cc8eb56fd15cd21176fc7a87c77f59dfd006cabb808940207db8199a9d201f0c5c3b97f7d2d13384fe8979db192b3927dbc958b2720d30a2d24dde210581a6c419067f14b743eb6c255961d8ba83844c068ab438e65afe52510c970db649c2a58d18f6f40322c017fa9b77ba77d8a57c6f65bafccc9d17ffcaa34a4780ab34db54ff96273f16b1d4b883dddaa3f82b253e03bea8fbaa4d657037978748fb43f1e44a8da9787fc5dcb329f15cdbd16d5b6e07890053673a6ea2e745b8f27a722f00e9398d3009b9c72a837ab7b30c6eb429266ac7e74adc6c4f36d364d05f193d9dcae5efa819f15cfe04f58e5f42b0727d03d09542eeff4459c3d6a740ee11c59202627dcf3d7260db56e19717adaacd9c03af7faaac6eb1aab9683df3c83d4b4bde573397bc28a41762064848d3851ee21d1bb5bb1f53e8aec00c4a46263f74211156788e415bdfd5795aed6e0db2762fefcca5bb75fb0c07c070ff6b427a75e99ee3cd91bc8595ff822fce6663919c057dcf27956663a95b6b79e1e412677b969337304b85dc2f4dbad4e3dbc29d3271cdc28ae0cf7d1d832b460755d61381a8285c62d168b1d69b29179b38fb383249e125e2e3a8ebff27a07aa91ed84a7f096e5eebf18f1d2becf39d1becbd3b7a2d5fd0d3af0cb2fe0f1bf31d1b356fbdd6cbc024195f7f128b31172eddf52b99067714fc54d270df17e8c29167cf2bca7703e4819ea02fd2d499f44d5c532691dd4af31792f4119579324556c5ee0d2cdd2254fb9ad1674136cf418f581c3af87920755925b297d205169e42fd3b48e397c7197c1873e61e08d90cbecfbf1b9b404c02845afd40679acfbc9834b766e35317131c2338a92017a3f063a7fd4acb1382e060f18aceb4b55a65191a2feac4cdd06835b6dcf37353ef319e6b6c8be5ff91d4dd553d13c7468442811560422214f1cd4d5f62887efec2d5ef80f1aac236923bfc630b38e07dbd975db9a47b19c0b7c0c1495226aec745a38a9aba450c780c91314a8534d9168af81aa5a9d818a3b931b8e9651f0e7e1b10ece2b5a0a1e07c94bb4f687e5780c091c1616c5db6a69f270f5606e42758a6d86448b0bb1f1a123046eee15afaf06e7dd6530ba99eaf96099b01482f882740f7a67620ff1964d21fe6b03aec0cae0c2718c1e980725c2ab278f2af07561e4162522a4eeb75f9f8a1e857e0901a187003686af25fe7167018f136191ef661a190a9cafb7643f7344fc7aacfa155a73562f48f2aba7805e6a6b6e75f0400aa6c67b3c5e0385debbe1ef8bfda69b548a960cfd76299ed07ef34b1f3e2f5e4ad2f997440b04494bbb3624ddc7a313fe7d26cc481301166000000",
  "txid": "0e190a9a9f91033a4235a82f52b0a1e083b028e43bf5122335f7f9aecc514a18",
  "hash": "9dde70855bb16f5c013f4b5172e6045b3abbe254c06bdf23efa961e0e4e019f5",
  "size": 5085,
  "vsize": 2278,
  "version": 1,
  "locktime": 102,
  "vin": [
    {
      "txid": "4fb7de8f74c41685ac340f55478221543fd73887819ba4922f597be77dca39a3",
      "vout": 1,
      "scriptSig": {
        "asm": "",
        "hex": ""
      },
      "txinwitness": [
        "55e6bc0f0c7892aaec3710ddb90deaed533611337e6f59b778832a66aef44b54bd38a1f5541243703841d46dca085334f63d2d619dc6005dd8ccb5204ab920ff7e38a9dcc17c1d36c5fbc29a29ef5a92c19ced2522e58fd497b7d07cb001ef9d7af6feae5e3a5cc9c32733c6c78d3d148b08cb1a330d7e04b6b07b8f5959c25dee8f694780c0d8ea6851403da08724c1d3212dbf057c62201c153f278aac47942c8b9095ed597ba3112b1fdb66d8b051bebfeebc03e2df7381061d21ab255dc8d9d298e023f25cf5bde08535e63360370fa690dfab44a68902420ceeedd185ad798c5746ec58cf94600961db16bb162db9a5cc0e9524a13ff184ed466aa42a8616702510f4f0da54f60b4ebd5f58721774efc0445a9bfd69f10c12a7a247be82231f0fd2a1508fe018b67534c4313e36c251f7782ae534689e700a5c773d804d8631e2128aa74a565c48a8d12f49735fb42caf920471b31ae6310fa1d3d0148be769430d161c80b1ff86dd45b4ce17ac9bf9bca2fd1d4de59718e64fd76b987cef3b89a64922341a8e8b2cb96ee6bd882ea4233ec7b02941ed32995615e04987fd2b8e6e9a62f42a8997e10e2eaf2a7dc11cb3b84d491d7b3c75e270854a05cff954f6a3ed16efda3df719289f7188a0b5e8dfb0ddf93ec60f5c1befba46baf22b74bb866cf5a42e5e1b78f4b1b3a1f1e9d8bf93c51d78c6a0a7027dbeb0f70bec3937aa5383f5495c1c9353656ffda2e913a22cd9f1280d7a150895825c574c132b4132804f315a9597bc77ed35c93694833b05904658f5c3f43e2f9ba14d87f86d58b1d2e85683208d7abc2de7ecc379a4dc2313549a69582ed7ee5ef85194a69c5d7b6534c366ebbdf19f2f278514006cd8aa79d6d584c46bc695a287234b64cdc7926ad7778e71755a9b665ba3f73ee6ebd950f4b7c0fa42c1b6a0dc012047bf0dc67123848cf5d5a06bfd5150c88e0bb5f3f848feaa3b79475ae5cb5bf9a35d5f80cb40b3e8bd095b2edf4b3e2cb94501e73b023dd74fdb4cca3e2e4fb95cad9ce51745725acfa242dc490a689c718e8be48dd759ece52ee333e0a52161ccc2f5ac80f49babc9d7f178cc1e4a75ce995bb9c09c5952cf28ccefa36efbda3206b5ddbc024c86f02c22c2a86deb2aa43cf2f0abfad2289f60e1de6c253bf8d4da7fbe93b364030267c1389697ade25a61470c5e66efe96f5298f0b21ce38e07377ddb66776c00827c664018bb4ded040afc726cd95a2d723be69ddf56687de768ededaef123ae71aa055fd438701ec98b44e934f8e404f00d5df7192ac1ed636fbd81496eff8e8b5728b3b4623776b6431a450e28f23d81c65d3d4273a7a27ca5e632a62c911ab81b6ba7ac209834a60077b830669ae155e7cd3c39932aa7ab5bb183aab5d1b506266dd92db3bd1d742e08be9057874a217b26571719f7b92ce286709923a8255e30c631611024eefff5ce6aecf357c5634064ed76f75602d9d9b83458844d38dc04a35d3bd3dd4836752cd160ee05cb9515a80b989dd984c508cc3de7f224aefd784eaee2b533e4381645a5caeba5b8c94a28de8056f41d1ee690dc3f3f22d39ea73d71411871fcc6cf973bf182405a6e978475313275f25652179210aaf15c1d7831e268ab3de00f836eb6952b3acff35983e2d84158e2be898abe4f9bf78a232e2e8cb9f2985ae21b4326f0c440bf34b151f75e3aeb816c5045f85f5c7dbb9261ae9e27962b45f256172385f6be8d46249b36e739c17bb74bca374cae46d0abd361a29722b04ddda22b7016221b0f4378e8e72c39397fdbf2715dec8f044fd4711731de5efceb8665bd12fc7aa9c02d19f511de8c4d7e9541168d5fc32017e19f66db0002591421127150ceeff9ba834e10566d50d1788fe6bcc2f6916ea591ddd5fcd4690ec48baa455bebe65a4c8a3c02763a89b7a3fe70a76ea8435ad42b49aba8af949343fb763d9f2872aee3b5b6f8b83119dbcd628fc292777aa518e8fc99c91b724c64072be75c5429768086f8a09339a5c78153eecc5b92fa4d79c90b59ecc696927d4605708e9babd15305d4c5ffa4f92aa73eff98a32a577882ff9714797b52e0bd3dda53057d434b0a44fa1f4aaf1037ba3c69fe5e3869bf2d0f9c2e803d16568c592fc5560d24d7056d09cd18f60f4f3e2ca0f8d78bf9a1cd49e55a0dc405056e00604f99d3682836a0697b6019861ca6ccb79a3461dfeda3d944380cf53eafee006dad6d2c20bebc26d796cf3a3175302428657161800937f121cd5779e56d23b91116f571b6a0c1f8dbfe4127c29cf0e8e4609ab2bd3d25b1065912dc73fa38e21f5f4bdb18353cba031ffe8d11efb2ec08185fef81d117df8794a989acb819766131f5bbb46c52e02249fe698be241fb0d013ba3f99abbbb87f2b4dc872d1d1d35cf0325335b1bd06373228d8580cf5c531cb7202446c9c339a4d592b0b21bb4fec8a639789edba5d303b98309348d3bd851bdfa5256fa48fb4891bb451c8571d3a886126ead4e815ad44babb755706b4c84b537775e4974a82b83cec299571d2800259a7cb8154541aff5386bda2a19d32f4522cd61f8eabda87257d13e693bf0eb0ef10c2d8b52c5d6e4d7d045c71dd1736b1369ebee4158481bf1ce0d80ed7bcf97b47ab1ac18193e611dc3c0c83ad7f196afb3ce04f2d7e9c7844267eedc6f6e5e3ce2d5ba84116b2a508195b8334bf43b0e584283c2583ff929e69806a9bce565eb68eb1644e5dbbb39b47e01a8d49914204772ee04d637f13e877f08154968835a5cfb6208cd2d8d7f041bc818ff1024c4372fc5b1e46e93d00fce59dceee59d2dbb37975f81696aff57a92d367dea288e6702adf4ffd7e465cf169acf90131272f15cd13b8daca2474676ec64a2bd789f2c335e9848bd31d0078437ade77a6d30f729afc82d238afa2652ff2685e239e393d9fb5d67c6a3273b36905e42d8843f8cfaea498184bd5c8ac224af1edb0ba6c92b4e843804d249d0e3c727a46d8c15247fb03214e5a2b33c45bcc7f8ad872ece533d52aa5d96bdba6dc1bdaab313c5ba655610016bbd7129a0dd5e6c750cd80ed127744ce57d4b9c12c4fff38131f123343e50c5ce674f7eb582560fe3b70657c84322468babf5939a97c28e3479f9f989cdf481d0fb8acbe3e184152ff27035b2d653d67fc1fb990e813c89b2a487795cd894af94edb1cee320ec37a860e75b3e4582a2fa0cad97713a3c5e17c5ff4c4e1c4db1eaaf9abf5748500c56654dad77179e71e50ef42701d7dc2ed057b99df859a79aaab4c41e89471e2c454d6061777d92a0a5ade6e7ecf3fe031a232a363e4c556071b9bccbdadbf0f1f8feff1463717b8993aab4b8e1f80424354c5556686f81989dc3e4f10000000000000000000000000000000000001125303e01",
        "00258ab8eea1a4db21386a6202831906f2f3a009f599570a3fa4c005f24665372c2ad6b94c4668dc5e3e6c2d34a8ee3c746f6b55ac83136a969503b0e902e9ade3cb686c7b222c77bd088f6222c3b91ed0a862dff34e83321d85b956af16a9162f20891144c9734851d2b9203d23d6ed4754bdeb824466f66cb2167a83679ce95ab83cc83b070582257fc5800faaf34091b3a76135ced603c98623e56deef122576775a514f9fa9afed79556403eeacaa421ef9956a8a3768455b59a5b1111585039f14051bb83f75b62415a01f4c5a03cc012a8794fa2eb47c26ce15d55c950e414f59ecd3ed1aba517d3a4cfb05baef0082263da16647b23b9cfae2e83754a6d9c494d887000c4c8aeca4df3f9446e6539bcb35c9401ece80ad0796b805f8bc4b2101c6c231059ff15e5b2f98493b28742e105f81d21826752c80f5baad9d980f601147ab1bd25b69e0dd29a832b1b775a6f7e5a98e9b536c5423dbf9b8854f848cc8eb56fd15cd21176fc7a87c77f59dfd006cabb808940207db8199a9d201f0c5c3b97f7d2d13384fe8979db192b3927dbc958b2720d30a2d24dde210581a6c419067f14b743eb6c255961d8ba83844c068ab438e65afe52510c970db649c2a58d18f6f40322c017fa9b77ba77d8a57c6f65bafccc9d17ffcaa34a4780ab34db54ff96273f16b1d4b883dddaa3f82b253e03bea8fbaa4d657037978748fb43f1e44a8da9787fc5dcb329f15cdbd16d5b6e07890053673a6ea2e745b8f27a722f00e9398d3009b9c72a837ab7b30c6eb429266ac7e74adc6c4f36d364d05f193d9dcae5efa819f15cfe04f58e5f42b0727d03d09542eeff4459c3d6a740ee11c59202627dcf3d7260db56e19717adaacd9c03af7faaac6eb1aab9683df3c83d4b4bde573397bc28a41762064848d3851ee21d1bb5bb1f53e8aec00c4a46263f74211156788e415bdfd5795aed6e0db2762fefcca5bb75fb0c07c070ff6b427a75e99ee3cd91bc8595ff822fce6663919c057dcf27956663a95b6b79e1e412677b969337304b85dc2f4dbad4e3dbc29d3271cdc28ae0cf7d1d832b460755d61381a8285c62d168b1d69b29179b38fb383249e125e2e3a8ebff27a07aa91ed84a7f096e5eebf18f1d2becf39d1becbd3b7a2d5fd0d3af0cb2fe0f1bf31d1b356fbdd6cbc024195f7f128b31172eddf52b99067714fc54d270df17e8c29167cf2bca7703e4819ea02fd2d499f44d5c532691dd4af31792f4119579324556c5ee0d2cdd2254fb9ad1674136cf418f581c3af87920755925b297d205169e42fd3b48e397c7197c1873e61e08d90cbecfbf1b9b404c02845afd40679acfbc9834b766e35317131c2338a92017a3f063a7fd4acb1382e060f18aceb4b55a65191a2feac4cdd06835b6dcf37353ef319e6b6c8be5ff91d4dd553d13c7468442811560422214f1cd4d5f62887efec2d5ef80f1aac236923bfc630b38e07dbd975db9a47b19c0b7c0c1495226aec745a38a9aba450c780c91314a8534d9168af81aa5a9d818a3b931b8e9651f0e7e1b10ece2b5a0a1e07c94bb4f687e5780c091c1616c5db6a69f270f5606e42758a6d86448b0bb1f1a123046eee15afaf06e7dd6530ba99eaf96099b01482f882740f7a67620ff1964d21fe6b03aec0cae0c2718c1e980725c2ab278f2af07561e4162522a4eeb75f9f8a1e857e0901a187003686af25fe7167018f136191ef661a190a9cafb7643f7344fc7aacfa155a73562f48f2aba7805e6a6b6e75f0400aa6c67b3c5e0385debbe1ef8bfda69b548a960cfd76299ed07ef34b1f3e2f5e4ad2f997440b04494bbb3624ddc7a313fe7d26cc4813011"
      ],
      "sequence": 4294967294
    }
  ],
  "vout": [
    {
      "value": 1.0,
      "n": 0,
      "scriptPubKey": {
        "asm": "OP_RETURN c0ffb678054e80c30812ac7543556117ea73dc445b876a76d3ad0429bd3ac7b5 cfb48c2629e99a8e9278f7119216bb7d94479de271c3d11dc878d41d8dfd44c6ef94ac0609c9baaeb258d731b2369b5db467bdc251e3f13de858f43daddd64e68ff4cc6669a9daced238b751d256fb3dd407dda23183915d8838945dcdbd0486afd4ec464989faeef2189771f276db1df427fd8211a3b17da818b47ded9d24a64f340ca6a9691a0e12f8779112963bfd14c71d62f143519d48f8549d0d7dc4466f142c8689493a2e32d857b132b61bdd34e73d42d16371bd68d874bd2d5de4660f744ce6e9295a4e52b837d152d67bbd54875d22b10311dd08b814dd4d3d84062f546cc6c9097a6e729817f172f65b9d74a77d02912331fd289834fd6d1da426cfb48c2629e99a8e9278f7119216bb7d94479de271c3d11dc878d41d8dfd44c6ef94ac0609c9baaeb258d731b2369b5db467bdc251e3f13de858f43daddd64e68ff4cc6669a9daced238b751d256fb3dd407dda23183915d8838945dcdbd0486afd4ec464989faeef2189771f276db1df427fd8211a3b17da818b47ded9d24a64f340ca6a9691a0e12f8779112963bfd14c71d62f143519d48f8549d0d7dc4466f142c8689493a2e32d857b132b61bdd34e73d42d16371bd68d874bd2d5de4660f744ce6e9295a4e52b837d152d67bbd54875d22b10311dd08b814dd4d3d84062f546cc6c9097a6e729817f172f65b9d74a77d02912331fd289834fd6d1da426cfb48c2629e99a8e9278f7119216bb7d94479de271c3d11dc878d41d8dfd44c6ef94ac0609c9baaeb258d731b2369b5db467bdc251e3f13de858f43daddd64e68ff4cc6669a9daced238b751d256fb3dd407dda23183915d8838945dcdbd0486afd4ec464989faeef2189771f276db1df427fd8211a3b17da818b47ded9d24a64f340ca6a9691a0e12f8779112963bfd14c71d62f143519d48f8549d0d7dc4466f142c8689493a2e32d857b132b61bdd34e73d42d16371bd68d874bd2d5de4660f744ce6e9295a4e52b837d152d67bbd54875d22b10311dd08b814dd4d3d84062f546cc6c9097a6e729817f172f65b9d74a77d02912331fd289834fd6d1da426cfb48c2629e99a8e9278f7119216bb7d94479de271c3d11dc878d41d8dfd44c6ef94ac0609c9baaeb258d731b2369b5db467bdc251e3f13de858f43daddd64e68ff4cc6669a9daced238b751d256fb3dd407dda23183915d8838945dcdbd0486afd4ec464989faeef2189771f276db1df427fd8211a3b17da818b47ded9d24a64f340ca6a9691a0e12f8779112963bfd14c71d62f143519d48f8549d0d7dc4466f142c8689493a2e32d857b132b61bdd34e73d42d16371bd68d874bd2d5de4660f744ce6e9295a4e52b837d152d67bbd54875d22b10311dd08b814dd4d3d84062f546cc6c9097a6e729817f172f65b9d74a77d02912331fd289834fd6d1da426cfb48c2629e99a8e9278f7119216bb7d94479de271c3d11dc878d41d8dfd44c6ef94ac0609c9baaeb258d731b2369b5db467bdc251e3f13de858f43daddd64e68ff4cc6669a9daced238b751d256fb3dd407dda23183915d8838945dcdbd0486afd4ec464989faeef2189771f276db1df427fd8211a3b17da818b47ded9d24a64f340ca6a9691a0e12f8779112963bfd3b55f1ee0d8f35ac6fc276b249a0dd1b747d2ee1dbb622b4d5dfe4c63adc7290",
        "hex": "6a20c0ffb678054e80c30812ac7543556117ea73dc445b876a76d3ad0429bd3ac7b54db004cfb48c2629e99a8e9278f7119216bb7d94479de271c3d11dc878d41d8dfd44c6ef94ac0609c9baaeb258d731b2369b5db467bdc251e3f13de858f43daddd64e68ff4cc6669a9daced238b751d256fb3dd407dda23183915d8838945dcdbd0486afd4ec464989faeef2189771f276db1df427fd8211a3b17da818b47ded9d24a64f340ca6a9691a0e12f8779112963bfd14c71d62f143519d48f8549d0d7dc4466f142c8689493a2e32d857b132b61bdd34e73d42d16371bd68d874bd2d5de4660f744ce6e9295a4e52b837d152d67bbd54875d22b10311dd08b814dd4d3d84062f546cc6c9097a6e729817f172f65b9d74a77d02912331fd289834fd6d1da426cfb48c2629e99a8e9278f7119216bb7d94479de271c3d11dc878d41d8dfd44c6ef94ac0609c9baaeb258d731b2369b5db467bdc251e3f13de858f43daddd64e68ff4cc6669a9daced238b751d256fb3dd407dda23183915d8838945dcdbd0486afd4ec464989faeef2189771f276db1df427fd8211a3b17da818b47ded9d24a64f340ca6a9691a0e12f8779112963bfd14c71d62f143519d48f8549d0d7dc4466f142c8689493a2e32d857b132b61bdd34e73d42d16371bd68d874bd2d5de4660f744ce6e9295a4e52b837d152d67bbd54875d22b10311dd08b814dd4d3d84062f546cc6c9097a6e729817f172f65b9d74a77d02912331fd289834fd6d1da426cfb48c2629e99a8e9278f7119216bb7d94479de271c3d11dc878d41d8dfd44c6ef94ac0609c9baaeb258d731b2369b5db467bdc251e3f13de858f43daddd64e68ff4cc6669a9daced238b751d256fb3dd407dda23183915d8838945dcdbd0486afd4ec464989faeef2189771f276db1df427fd8211a3b17da818b47ded9d24a64f340ca6a9691a0e12f8779112963bfd14c71d62f143519d48f8549d0d7dc4466f142c8689493a2e32d857b132b61bdd34e73d42d16371bd68d874bd2d5de4660f744ce6e9295a4e52b837d152d67bbd54875d22b10311dd08b814dd4d3d84062f546cc6c9097a6e729817f172f65b9d74a77d02912331fd289834fd6d1da426cfb48c2629e99a8e9278f7119216bb7d94479de271c3d11dc878d41d8dfd44c6ef94ac0609c9baaeb258d731b2369b5db467bdc251e3f13de858f43daddd64e68ff4cc6669a9daced238b751d256fb3dd407dda23183915d8838945dcdbd0486afd4ec464989faeef2189771f276db1df427fd8211a3b17da818b47ded9d24a64f340ca6a9691a0e12f8779112963bfd14c71d62f143519d48f8549d0d7dc4466f142c8689493a2e32d857b132b61bdd34e73d42d16371bd68d874bd2d5de4660f744ce6e9295a4e52b837d152d67bbd54875d22b10311dd08b814dd4d3d84062f546cc6c9097a6e729817f172f65b9d74a77d02912331fd289834fd6d1da426cfb48c2629e99a8e9278f7119216bb7d94479de271c3d11dc878d41d8dfd44c6ef94ac0609c9baaeb258d731b2369b5db467bdc251e3f13de858f43daddd64e68ff4cc6669a9daced238b751d256fb3dd407dda23183915d8838945dcdbd0486afd4ec464989faeef2189771f276db1df427fd8211a3b17da818b47ded9d24a64f340ca6a9691a0e12f8779112963bfd3b55f1ee0d8f35ac6fc276b249a0dd1b747d2ee1dbb622b4d5dfe4c63adc7290",
        "type": "nulldata"
      }
    },
    {
      "value": 499989.831,
      "n": 1,
      "scriptPubKey": {
        "asm": "1 7c0eb0c1bb5b0ba9335d6b0ea4f4faa256157bad0f938ec0a7876fd87990b74b",
        "hex": "51207c0eb0c1bb5b0ba9335d6b0ea4f4faa256157bad0f938ec0a7876fd87990b74b",
        "reqSigs": 1,
        "type": "witness_v1_scripthash",
        "addresses": [
          "3QJmnh"
        ]
      }
    }
  ],
  "blockhash": "0588000bb82f4b14ca9e4626330a5c84a7bb9e1c31fd2ade5c3732d80cc4fd85",
  "confirmations": 1,
  "time": 1764178356,
  "blocktime": 1764178356
}