{
  "hex": "0100000000010105585792cf75db25080a58d7256e0154016e6cd579b7856e78dfd841b36369cd0100000000feffffff0200e1f50500000000fdd5046a20bacd62cad9690b68c99a7b4f236258acbe308f5222c20f520e4f37edc3d8f0f54db0049127839b246b1971bf98691e7c3e88fc95c6f4f3b8309c6c32b1ad38eb4270e9b107a3bb044b39519fb8493e5c1ea8dcb5e6d4d39810bc4c12918d18cb6250c9d167c3db642b5931ffd8295e3c7ec8bcd586b4b3f870dc2c72f1ed78ab0230a9f147e3fb440b7911dff8097e1c5ee89cf5a69493d850fc0c52d1cd588b22108911a7031ba4eb99f13f18e99efcbe087c1546747338b01cecb2312db86bc2f0693187233b84cbb9d11f38c9bedc9e285c3566545318903ccc92110d984be2d04951e7435be4abd9b17f58a9debcfe483c5506343378f05cacf2716df82b82b02971c7637bc48bf9915f7889fe9cde681c7526141358d07c8cd2514dd80ba290099127839b246b1971bf98691e7c3e88fc95c6f4f3b8309c6c32b1ad38eb4270e9b107a3bb044b39519fb8493e5c1ea8dcb5e6d4d39810bc4c12918d18cb6250c9d167c3db642b5931ffd8295e3c7ec8bcd586b4b3f870dc2c72f1ed78ab0230a9f147e3fb440b7911dff8097e1c5ee89cf5a69493d850fc0c52d1cd588b22108911a7031ba4eb99f13f18e99efcbe087c1546747338b01cecb2312db86bc2f0693187233b84cbb9d11f38c9bedc9e285c3566545318903ccc92110d984be2d04951e7435be4abd9b17f58a9debcfe483c5506343378f05cacf2716df82b82b02971c7637bc48bf9915f7889fe9cde681c7526141358d07c8cd2514dd80ba290099127839b246b1971bf98691e7c3e88fc95c6f4f3b8309c6c32b1ad38eb4270e9b107a3bb044b39519fb8493e5c1ea8dcb5e6d4d39810bc4c12918d18cb6250c9d167c3db642b5931ffd8295e3c7ec8bcd586b4b3f870dc2c72f1ed78ab0230a9f147e3fb440b7911dff8097e1c5ee89cf5a69493d850fc0c52d1cd588b22108911a7031ba4eb99f13f18e99efcbe087c1546747338b01cecb2312db86bc2f0693187233b84cbb9d11f38c9bedc9e285c3566545318903ccc92110d984be2d04951e7435be4abd9b17f58a9debcfe483c5506343378f05cacf2716df82b82b02971c7637bc48bf9915f7889fe9cde681c7526141358d07c8cd2514dd80ba290099127839b246b1971bf98691e7c3e88fc95c6f4f3b8309c6c32b1ad38eb4270e9b107a3bb044b39519fb8493e5c1ea8dcb5e6d4d39810bc4c12918d18cb6250c9d167c3db642b5931ffd8295e3c7ec8bcd586b4b3f870dc2c72f1ed78ab0230a9f147e3fb440b7911dff8097e1c5ee89cf5a69493d850fc0c52d1cd588b22108911a7031ba4eb99f13f18e99efcbe087c1546747338b01cecb2312db86bc2f0693187233b84cbb9d11f38c9bedc9e285c3566545318903ccc92110d984be2d04951e7435be4abd9b17f58a9debcfe483c5506343378f05cacf2716df82b82b02971c7637bc48bf9915f7889fe9cde681c7526141358d07c8cd2514dd80ba290099127839b246b1971bf98691e7c3e88fc95c6f4f3b8309c6c32b1ad38eb4270e9b107a3bb044b39519fb8493e5c1ea8dcb5e6d4d39810bc4c12918d18cb6250c9d167c3db642b5931ffd8295e3c7ec8bcd586b4b3f870dc2c72f1ed78ab0230a9f147e3fb440b7911dff8097e1c5ee89cf5a69493d850fc0c52d1cd588b22108911a7031ba4eb99f13f18e99efcbe087c477297d4f8c09c84c850a42fe268894dbcec86b2f18438ae6d27468ddbd5092ba020df63792d0000225120cb450d89de5f982064f2a1d3f77cb5212a200cacf494476ff0d92777fcbeceee02fd7509fa2fc6613742eb6a96668cf75283887f9278e8dde212c0d668d9a6a465ff08164894e5f577f5eb21638d3968eef9c5d598b19a1640b1dae05f4d48283bfa39db80659b87f1ea24465c48462156d2c0ee2dc358e8513d4a371b66ed83f6554830ba68e2e5c482ecd17a1c0c8e63b6e73e230ee1c32715b0cdb863849e4bb55468de3a041405ece7b93d1707b2a23fe0777e1e7c14cdb0b0b3b6372307b10616e75583133f82b9b0eeefcfe4af268a31ee83ab4a45d5a32787ccad1a8331676aeb283d0ec67f66a157499c7d915fd0ec3d1376832129a51b5253d7537001922c91f5b661689444e5afcabd8cbeab4793e40b2bda8c22aef17ddae1df3a11d582b24cd65249ef2a37dda5ad074e03c683a471b43b3797c46eb51b6aa87d6407d51279750b7bc00caee92f24b6d083c056707bc972ae7401038535def8617f7662c0ce505f153166f1c349e4dd3fcae31ea0d79541d487478e6177b309c814d4e707c781236e36083567e85f0a1eddbf539504be4b689f8124b184c917a6758fa2597e48437525814c925a4d79ebbdab1a36a0d3a08e557b237bdd4dd2f6dc18eaed3bcc451620777829d9d1c7ae76116f9b593ff0d86b2ed69b0553255b6e84c9d576ba4f5a7bb6625a194698393aff1d49a7e792b6c630b2f1d5d684eb282ae65303316622ada09663894be8831bd374ef4de62091e69afd6cd6c61264cfb830c5d573979339597b97d2ddc8b56b20e8d91365bfa643ccda2267f07b891669e7424cb18d061af3e9be9f49e74e2ef031fa58b9ac02add2daddd4863ce317effe5ce820734d5e16a28abd3d21e210a993b9c478c8702882c6aab7e9e0e0286fd9177e8c641d6e70d571bc8083c966b5cdb31bd3b37705934d5432bb2ff5cec34eb921e863679be27965d1d1ea1f9caa253ce5777b1de36c8516ebbf61c4c961eff99fe83668575fd07bd37335385c7887a80f65e0a91ded3e70e44087125b94b0541a46c7f3e3e1c704b3378bb6d30bbe89833e7a361ecf2553c023a05d1249a7deefce5703b5301027e9c9e3dcd9e636ff1d3ef125f6d0c878add792b5f1b5768b9d51fd0271427159e4e5c4ea939e3051e41e762f0c954dde684c271425039a2af3a45e2c3c1c3d01575013d554766fbd698ca67d19db1c7de7adeaec69ccaaf6b0094ff295f2f1428ad2279994103bc05bab11aac22279e2ef345fe78a9cc35cfa720481206c76b65b661bb2f8abe9550190aaec2af791f0720f666d9212f2b3feb577d8558aa3733ff52cabe1067e4a321313319cd449683d3613f370a2b098dd4cd5d7af664e7c82f0320ba47cb6d20241477710c696f509830d308660c065c18235fa9f55a9500f3966e79a6e6aa4663e3ad4fbb9813cf7d7c46bfb71250cc5cecd8bb6d3656bc8a248a840b296a13c2f690751bf52fe6f48b4dba7c7929e6e9d9279b486bcf7d919ca70a789dd4fec03eb36641dd8a942afe0404e28da51aca1467682edf6f4b6e2b511b6d00156f44c095bc583e49964efe74fb0a51a5cbb1b07af5f6f66680cfe571c73490c418e33e0e9bac69686fbbcc57f3b1e549d939c7143caa9da03dedd028ebe81b123d660a55d2734460ee6b5706e9a29dc17c40291f4a6bef9607f705f044824403d83e154070dfb3e6a4f44df4f45d95924a7db7d5149721afa724126ae096b0b97774e373923d4e232f357c9990654834798a60cfaeddf2f4b03c4e8a233a60fd3f8e6ca4901e0196b39a3bdeb68576121d9611e61142a9b94effd18c587a306b291eaba76aa16bf212a7b5270cf63a168786c8ea79835f4db218a7ef1cb88f3a617a0ea84795e171cc9fec0fb690bcc5f7c6a8ca988d12e1ea52252d9a8e38c82975313e2e9e5bf38504abd9f769d75cff87b5a20bbd4cde9021979657ea14e4e93e025c8ceec038113566550ed66fa3c8b406d69290d1cc193fbf995fabb0093448e31b0e5511810289119453229a266c7f2d382156694d51fbd0c89e29b170a29087ba38c68ea7f9038d3a21e3534eb59212ccf90d62d57fca069fb0e0d6203cadb5d36dd896fae4a8ac99de5b24589c15c682377d8d82622f574b888c04dd3b339d8c53bfa7ae11abd885436791ce18d93e91f8b5ffe04bf7f54c0d17f63229f727988633a29ebdb6f14df02b4ae33e195ffca49e1cb9568c55e64783d74fd5d7b921f9a3098eb63387f5ec3e4ed0d616ce02e2b19c2c217c5291d6d751d5f08270c1141b29583b2a0a0627e2b205a49b61b976114e1608e41c9903c7469c51b32891ba5114cf0e554e567471592fd3a93eb2c5effa09643997914550c8afbf6f21889c84bd2ace41b1f59dfa1658bd202d90e48a20e8b32da6672fa6fdb8b78b0a9e003a42d84c4de05acb9a139f44ab094946b0f01c8be3e63fd5e5f93af081f8b01783184de320759bd18c0c06eba6ca812ca97493bff90718a0d8e2fe097b01bcd7e313470ee72908f09d13012d8278b466085fe2df4b91c81c8962d23abb385a8d6605778db50bb5138da76003a337e0a934fb6b846a8bf0d8de3f28e60033a303be6eb3eefd4041401ad93ab050b807774e29d04b4a0176a058d7ce29decb19ee31168077940e1284d1d9e0e13db050fb988721132590e063b056e9e816e7039dc06f1d8e578674a4624ccd2d443b50dcb8feb3cc8600f6cc84be6900a96ca12a25417208b4f1f02afffa854cb6036460ec6b0d44823c987e31fcf99abde616958ae7f334f7e0eac11e039d8be92b8307e752a9dc7292304c367544f3a9dfbc13fc2c0496c2796d10d870d2162a572ead5b31f005f03a0eb536f79e19268c8326c3e8ecb6c4cd5551d6d959457a52ad2e4f482e62f43b633154625bc8befbd72a49154e1be831e70fc76412e05dad09b550c674b9ba905e2aeb83aa6a2d7ea25d89d2e879487315f8ade9ffa8237b9045a1cebde864dbcb46728fa139476073756fdc3b59820c8f49dc32042d9544fa102878e46c0c3d00b1007b42cbe69f7dd90ff4ae1e37abaad92ae9f5e94f3406d06fbed9952d52b1bdaf9b82015fc338eebee5e77d7ba94f1d36cd63adc9521935886b716a40a8cd761c60fbe272473d220a208c9df16196933740a8854a4e1069228521539d4b03b8319e8e7cea753997bfc8d9781cca869d8ab2684a9ebe82a450860f30d56e5fe8545133c605e5643020d8585a9c1fe649d37e05115e4993646ef8f73af08e52e76e830c7164157c1e27287e4ebfee00528347822f13210952d21c668e18f4cc558e33bed1e0a5c144327ba4f6b7f5e30fb37c5d400030a0c1b202329383a404e616d72828b8c9a9da7a8b8d1f7181f33405356696c85878ba7b8bcd4dce5f4091d3e4450678a8e9699b0c3c7d6dbe4ecedf90d121a1b3a427f80828384bdcef0f6ff0000192b3e4e01fd2105003b207903de140d1eefea17cdaf3ccfab0e0f487f94d9bfc2e8ad8e0b7e45384bae925ce7a9a4178339cada63cae82af8a27b084d47a494f6539d58938d0d5e276c65ebf0580effdf138a5d3f94a94b36c7000836649169b77aba3f3c9c65df3e21c140e8f0413e3dbac3a16ff0f23ab8f8a368bfbceeb6144302a021671472c7dd93436080631396a4f4a0f85c914ef50f223ee0a94e7e797a22a33fc96c68f8430f636b338bae1d75b9b587fd7944ede25f0e169b3403dbd04626459674e7b68a285354420066f19ce5a28014a018eb5eee1b0f513eb13e6925d6b063bb5d28cc667cbea7ee067eaa1d943339917a199cfa11a00c1ec5f5bea79ec7b66ee2becfa6873f25949478b39f37979953445b23677355765f6e4c1c163dfc9f1f3de8cc32f8e4dc6707e120e4569c7d3eb3b8eb083cea582ea57aed9c58724a60721c4f329aef79569b59f56ca5b4a8188cf72deb604c307565813ac94d49fea1f8af0397f7cb554ba1926f4051b261f0712ba038fd053b9b71047ffe2bbda3c118907e6d28ace52dfe25ff76768edcfb0496b8437faa35e73ef0505372f08bb1b0d2d533858b91d6bdc52dd5ecd53ceb62dc43811900c2ee4144296b67e6c659f406c910e55273cff35c57bddaf52db605a101af23214a3d1cdca9b106d3ad13faed0dc0dada34331a7314807acc7a5ec9c690b761d56f2c566883d1f1361dd12facb348ee4368803a321fbc1a9c919fe806f12039ce46425b4bfa39c09e363c93e0313b6f72077353971602fa32698e600254f357989bd3ad246427e8d56f2e0f80459db6eca5bf42b7301ce8865f6fd9905543a11ff8c7dd9813ed130527246c09fb80d28fe000fe39af1e8eafcda211a98b982f8160c85e31d0ea26017ba321841737e731aad0e1f357fcfd9aaaba46a16dd70daa53c577e0f0d0e3301edcc0082b6e1637f9fb54c38f5f9e8c4b4cc787023e82e46ec454894bbca1bb780bb9a0395a62a68311da823e6e3bc1f0978385cbadbb708e6ae447f02a96f050361152a32a335b2907e541d478aca1921ab5b8aba5b30545ce9b1531fba968b70d3cc8dc0ed34471493a8323096f5f6c9da299a5966b5d372c2cafae0eed22938bfb017ccb9e529eccb5372c33932457f68dcd2ccdd15ec5b80aaf5ebde9b38e17230623db0503d009b27b8dc47f64c10b048a0c257c25b47d7e642515d9ecf9adfde4b632255840bc495555657763b988eca99e8e8de06daae25e110491266bbcfb0ec203afa26fb6babbb52b2b3e25b4e2ec4b18aa5786b59f2f293bec4bacb78fd889c5a7c001d81260c17e579b913af8784d364ce558db98a2726aca7876eaef5eec54fc7d857a0f3406dfed2aba3fe607b0c3bb9da1aa0dfd1ecad5025d91433bf37bec700ce470e8786ff2a6d0e25cfbbc446bb4e428bae332b6e55879c51b1dfa4b6075c7b663bb14468949f470e942734b9d5f40868dbd4e9ec732d0e60bdc4aacae87df5705aafaee197a574d184b608bb6b3290f9094e060fe552c164680302579810e910cd2a1124ce5f2b08d964edaa724dde88830a9058fd47deb7bae02345d9f3422c0e17950cf2e5ce2c21ad0972b62e6280ed4c4d6ce909885036f7d1aaa3b7ea9bf80d016e7a1642974e6299b8cdb86d8f4e822b89187cc7e341a4f2796f7076f5bc56c31c9cc3b6c97f5c05b395d528a06b02c2cccaecfb91bf4a76ae3767deb684d7de2a889aa520d21ef35d50807dd17779554d90f920506272fceee0245bb4f22ea5dbbc44d2d9d4c439da417a8c1b2cfbb85ab9e57a19e56288cf499780a19e67301d40e7afcd5acc7ec5c5f02a9f2384e195b69f471940668000000",
  "txid": "0961b30e12a65cea0951ba9283b069f291fb6934557e73bc4521b8626df4bb82",
  "hash": "3afc298d14b1a161eaae1814204ecabed53ec47614e6960573b87fefbcaa4658",
  "size": 5085,
  "vsize": 2278,
  "version": 1,
  "locktime": 104,
  "vin": [
    {
      "txid": "cd6963b341d8df786e85b779d56c6e0154016e25d7580a0825db75cf92575805",
      "vout": 1,
      "scriptSig": {
        "asm": "",
        "hex": ""
      },
      "txinwitness": [
        "fa2fc6613742eb6a96668cf75283887f9278e8dde212c0d668d9a6a465ff08164894e5f577f5eb21638d3968eef9c5d598b19a1640b1dae05f4d48283bfa39db80659b87f1ea24465c48462156d2c0ee2dc358e8513d4a371b66ed83f6554830ba68e2e5c482ecd17a1c0c8e63b6e73e230ee1c32715b0cdb863849e4bb55468de3a041405ece7b93d1707b2a23fe0777e1e7c14cdb0b0b3b6372307b10616e75583133f82b9b0eeefcfe4af268a31ee83ab4a45d5a32787ccad1a8331676aeb283d0ec67f66a157499c7d915fd0ec3d1376832129a51b5253d7537001922c91f5b661689444e5afcabd8cbeab4793e40b2bda8c22aef17ddae1df3a11d582b24cd65249ef2a37dda5ad074e03c683a471b43b3797c46eb51b6aa87d6407d51279750b7bc00caee92f24b6d083c056707bc972ae7401038535def8617f7662c0ce505f153166f1c349e4dd3fcae31ea0d79541d487478e6177b309c814d4e707c781236e36083567e85f0a1eddbf539504be4b689f8124b184c917a6758fa2597e48437525814c925a4d79ebbdab1a36a0d3a08e557b237bdd4dd2f6dc18eaed3bcc451620777829d9d1c7ae76116f9b593ff0d86b2ed69b0553255b6e84c9d576ba4f5a7bb6625a194698393aff1d49a7e792b6c630b2f1d5d684eb282ae65303316622ada09663894be8831bd374ef4de62091e69afd6cd6c61264cfb830c5d573979339597b97d2ddc8b56b20e8d91365bfa643ccda2267f07b891669e7424cb18d061af3e9be9f49e74e2ef031fa58b9ac02add2daddd4863ce317effe5ce820734d5e16a28abd3d21e210a993b9c478c8702882c6aab7e9e0e0286fd9177e8c641d6e70d571bc8083c966b5cdb31bd3b37705934d5432bb2ff5cec34eb921e863679be27965d1d1ea1f9caa253ce5777b1de36c8516ebbf61c4c961eff99fe83668575fd07bd37335385c7887a80f65e0a91ded3e70e44087125b94b0541a46c7f3e3e1c704b3378bb6d30bbe89833e7a361ecf2553c023a05d1249a7deefce5703b5301027e9c9e3dcd9e636ff1d3ef125f6d0c878add792b5f1b5768b9d51fd0271427159e4e5c4ea939e3051e41e762f0c954dde684c271425039a2af3a45e2c3c1c3d01575013d554766fbd698ca67d19db1c7de7adeaec69ccaaf6b0094ff295f2f1428ad2279994103bc05bab11aac22279e2ef345fe78a9cc35cfa720481206c76b65b661bb2f8abe9550190aaec2af791f0720f666d9212f2b3feb577d8558aa3733ff52cabe1067e4a321313319cd449683d3613f370a2b098dd4cd5d7af664e7c82f0320ba47cb6d20241477710c696f509830d308660c065c18235fa9f55a9500f3966e79a6e6aa4663e3ad4fbb9813cf7d7c46bfb71250cc5cecd8bb6d3656bc8a248a840b296a13c2f690751bf52fe6f48b4dba7c7929e6e9d9279b486bcf7d919ca70a789dd4fec03eb36641dd8a942afe0404e28da51aca1467682edf6f4b6e2b511b6d00156f44c095bc583e49964efe74fb0a51a5cbb1b07af5f6f66680cfe571c73490c418e33e0e9bac69686fbbcc57f3b1e549d939c7143caa9da03dedd028ebe81b123d660a55d2734460ee6b5706e9a29dc17c40291f4a6bef9607f705f044824403d83e154070dfb3e6a4f44df4f45d95924a7db7d5149721afa724126ae096b0b97774e373923d4e232f357c9990654834798a60cfaeddf2f4b03c4e8a233a60fd3f8e6ca4901e0196b39a3bdeb68576121d9611e61142a9b94effd18c587a306b291eaba76aa16bf212a7b5270cf63a168786c8ea79835f4db218a7ef1cb88f3a617a0ea84795e171cc9fec0fb690bcc5f7c6a8ca988d12e1ea52252d9a8e38c82975313e2e9e5bf38504abd9f769d75cff87b5a20bbd4cde9021979657ea14e4e93e025c8ceec038113566550ed66fa3c8b406d69290d1cc193fbf995fabb0093448e31b0e5511810289119453229a266c7f2d382156694d51fbd0c89e29b170a29087ba38c68ea7f9038d3a21e3534eb59212ccf90d62d57fca069fb0e0d6203cadb5d36dd896fae4a8ac99de5b24589c15c682377d8d82622f574b888c04dd3b339d8c53bfa7ae11abd885436791ce18d93e91f8b5ffe04bf7f54c0d17f63229f727988633a29ebdb6f14df02b4ae33e195ffca49e1cb9568c55e64783d74fd5d7b921f9a3098eb63387f5ec3e4ed0d616ce02e2b19c2c217c5291d6d751d5f08270c1141b29583b2a0a0627e2b205a49b61b976114e1608e41c9903c7469c51b32891ba5114cf0e554e567471592fd3a93eb2c5effa09643997914550c8afbf6f21889c84bd2ace41b1f59dfa1658bd202d90e48a20e8b32da6672fa6fdb8b78b0a9e003a42d84c4de05acb9a139f44ab094946b0f01c8be3e63fd5e5f93af081f8b01783184de320759bd18c0c06eba6ca812ca97493bff90718a0d8e2fe097b01bcd7e313470ee72908f09d13012d8278b466085fe2df4b91c81c8962d23abb385a8d6605778db50bb5138da76003a337e0a934fb6b846a8bf0d8de3f28e60033a303be6eb3eefd4041401ad93ab050b807774e29d04b4a0176a058d7ce29decb19ee31168077940e1284d1d9e0e13db050fb988721132590e063b056e9e816e7039dc06f1d8e578674a4624ccd2d443b50dcb8feb3cc8600f6cc84be6900a96ca12a25417208b4f1f02afffa854cb6036460ec6b0d44823c987e31fcf99abde616958ae7f334f7e0eac11e039d8be92b8307e752a9dc7292304c367544f3a9dfbc13fc2c0496c2796d10d870d2162a572ead5b31f005f03a0eb536f79e19268c8326c3e8ecb6c4cd5551d6d959457a52ad2e4f482e62f43b633154625bc8befbd72a49154e1be831e70fc76412e05dad09b550c674b9ba905e2aeb83aa6a2d7ea25d89d2e879487315f8ade9ffa8237b9045a1cebde864dbcb46728fa139476073756fdc3b59820c8f49dc32042d9544fa102878e46c0c3d00b1007b42cbe69f7dd90ff4ae1e37abaad92ae9f5e94f3406d06fbed9952d52b1bdaf9b82015fc338eebee5e77d7ba94f1d36cd63adc9521935886b716a40a8cd761c60fbe272473d220a208c9df16196933740a8854a4e1069228521539d4b03b8319e8e7cea753997bfc8d9781cca869d8ab2684a9ebe82a450860f30d56e5fe8545133c605e5643020d8585a9c1fe649d37e05115e4993646ef8f73af08e52e76e830c7164157c1e27287e4ebfee00528347822f13210952d21c668e18f4cc558e33bed1e0a5c144327ba4f6b7f5e30fb37c5d400030a0c1b202329383a404e616d72828b8c9a9da7a8b8d1f7181f33405356696c85878ba7b8bcd4dce5f4091d3e4450678a8e9699b0c3c7d6dbe4ecedf90d121a1b3a427f80828384bdcef0f6ff0000192b3e4e01",
        "003b207903de140d1eefea17cdaf3ccfab0e0f487f94d9bfc2e8ad8e0b7e45384bae925ce7a9a4178339cada63cae82af8a27b084d47a494f6539d58938d0d5e276c65ebf0580effdf138a5d3f94a94b36c7000836649169b77aba3f3c9c65df3e21c140e8f0413e3dbac3a16ff0f23ab8f8a368bfbceeb6144302a021671472c7dd93436080631396a4f4a0f85c914ef50f223ee0a94e7e797a22a33fc96c68f8430f636b338bae1d75b9b587fd7944ede25f0e169b3403dbd04626459674e7b68a285354420066f19ce5a28014a018eb5eee1b0f513eb13e6925d6b063bb5d28cc667cbea7ee067eaa1d943339917a199cfa11a00c1ec5f5bea79ec7b66ee2becfa6873f25949478b39f37979953445b23677355765f6e4c1c163dfc9f1f3de8cc32f8e4dc6707e120e4569c7d3eb3b8eb083cea582ea57aed9c58724a60721c4f329aef79569b59f56ca5b4a8188cf72deb604c307565813ac94d49fea1f8af0397f7cb554ba1926f4051b261f0712ba038fd053b9b71047ffe2bbda3c118907e6d28ace52dfe25ff76768edcfb0496b8437faa35e73ef0505372f08bb1b0d2d533858b91d6bdc52dd5ecd53ceb62dc43811900c2ee4144296b67e6c659f406c910e55273cff35c57bddaf52db605a101af23214a3d1cdca9b106d3ad13faed0dc0dada34331a7314807acc7a5ec9c690b761d56f2c566883d1f1361dd12facb348ee4368803a321fbc1a9c919fe806f12039ce46425b4bfa39c09e363c93e0313b6f72077353971602fa32698e600254f357989bd3ad246427e8d56f2e0f80459db6eca5bf42b7301ce8865f6fd9905543a11ff8c7dd9813ed130527246c09fb80d28fe000fe39af1e8eafcda211a98b982f8160c85e31d0ea26017ba321841737e731aad0e1f357fcfd9aaaba46a16dd70daa53c577e0f0d0e3301edcc0082b6e1637f9fb54c38f5f9e8c4b4cc787023e82e46ec454894bbca1bb780bb9a0395a62a68311da823e6e3bc1f0978385cbadbb708e6ae447f02a96f050361152a32a335b2907e541d478aca1921ab5b8aba5b30545ce9b1531fba968b70d3cc8dc0ed34471493a8323096f5f6c9da299a5966b5d372c2cafae0eed22938bfb017ccb9e529eccb5372c33932457f68dcd2ccdd15ec5b80aaf5ebde9b38e17230623db0503d009b27b8dc47f64c10b048a0c257c25b47d7e642515d9ecf9adfde4b632255840bc495555657763b988eca99e8e8de06daae25e110491266bbcfb0ec203afa26fb6babbb52b2b3e25b4e2ec4b18aa5786b59f2f293bec4bacb78fd889c5a7c001d81260c17e579b913af8784d364ce558db98a2726aca7876eaef5eec54fc7d857a0f3406dfed2aba3fe607b0c3bb9da1aa0dfd1ecad5025d91433bf37bec700ce470e8786ff2a6d0e25cfbbc446bb4e428bae332b6e55879c51b1dfa4b6075c7b663bb14468949f470e942734b9d5f40868dbd4e9ec732d0e60bdc4aacae87df5705aafaee197a574d184b608bb6b3290f9094e060fe552c164680302579810e910cd2a1124ce5f2b08d964edaa724dde88830a9058fd47deb7bae02345d9f3422c0e17950cf2e5ce2c21ad0972b62e6280ed4c4d6ce909885036f7d1aaa3b7ea9bf80d016e7a1642974e6299b8cdb86d8f4e822b89187cc7e341a4f2796f7076f5bc56c31c9cc3b6c97f5c05b395d528a06b02c2cccaecfb91bf4a76ae3767deb684d7de2a889aa520d21ef35d50807dd17779554d90f920506272fceee0245bb4f22ea5dbbc44d2d9d4c439da417a8c1b2cfbb85ab9e57a19e56288cf499780a19e67301d40e7afcd5acc7ec5c5f02a9f2384e195b69f4719406"
      ],
      "sequence": 4294967294
    }
  ],
  "vout": [
    {
      "value": 1.0,
      "n": 0,
      "scriptPubKey": {
        "asm": "OP_RETURN bacd62cad9690b68c99a7b4f236258acbe308f5222c20f520e4f37edc3d8f0f5 9127839b246b1971bf98691e7c3e88fc95c6f4f3b8309c6c32b1ad38eb4270e9b107a3bb044b39519fb8493e5c1ea8dcb5e6d4d39810bc4c12918d18cb6250c9d167c3db642b5931ffd8295e3c7ec8bcd586b4b3f870dc2c72f1ed78ab0230a9f147e3fb440b7911dff8097e1c5ee89cf5a69493d850fc0c52d1cd588b22108911a7031ba4eb99f13f18e99efcbe087c1546747338b01cecb2312db86bc2f0693187233b84cbb9d11f38c9bedc9e285c3566545318903ccc92110d984be2d04951e7435be4abd9b17f58a9debcfe483c5506343378f05cacf2716df82b82b02971c7637bc48bf9915f7889fe9cde681c7526141358d07c8cd2514dd80ba290099127839b246b1971bf98691e7c3e88fc95c6f4f3b8309c6c32b1ad38eb4270e9b107a3bb044b39519fb8493e5c1ea8dcb5e6d4d39810bc4c12918d18cb6250c9d167c3db642b5931ffd8295e3c7ec8bcd586b4b3f870dc2c72f1ed78ab0230a9f147e3fb440b7911dff8097e1c5ee89cf5a69493d850fc0c52d1cd588b22108911a7031ba4eb99f13f18e99efcbe087c1546747338b01cecb2312db86bc2f0693187233b84cbb9d11f38c9bedc9e285c3566545318903ccc92110d984be2d04951e7435be4abd9b17f58a9debcfe483c5506343378f05cacf2716df82b82b02971c7637bc48bf9915f7889fe9cde681c7526141358d07c8cd2514dd80ba290099127839b246b1971bf98691e7c3e88fc95c6f4f3b8309c6c32b1ad38eb4270e9b107a3bb044b39519fb8493e5c1ea8dcb5e6d4d39810bc4c12918d18cb6250c9d167c3db642b5931ffd8295e3c7ec8bcd586b4b3f870dc2c72f1ed78ab0230a9f147e3fb440b7911dff8097e1c5ee89cf5a69493d850fc0c52d1cd588b22108911a7031ba4eb99f13f18e99efcbe087c1546747338b01cecb2312db86bc2f0693187233b84cbb9d11f38c9bedc9e285c3566545318903ccc92110d984be2d04951e7435be4abd9b17f58a9debcfe483c5506343378f05cacf2716df82b82b02971c7637bc48bf9915f7889fe9cde681c7526141358d07c8cd2514dd80ba290099127839b246b1971bf98691e7c3e88fc95c6f4f3b8309c6c32b1ad38eb4270e9b107a3bb044b39519fb8493e5c1ea8dcb5e6d4d39810bc4c12918d18cb6250c9d167c3db642b5931ffd8295e3c7ec8bcd586b4b3f870dc2c72f1ed78ab0230a9f147e3fb440b7911dff8097e1c5ee89cf5a69493d850fc0c52d1cd588b22108911a7031ba4eb99f13f18e99efcbe087c1546747338b01cecb2312db86bc2f0693187233b84cbb9d11f38c9bedc9e285c3566545318903ccc92110d984be2d04951e7435be4abd9b17f58a9debcfe483c5506343378f05cacf2716df82b82b02971c7637bc48bf9915f7889fe9cde681c7526141358d07c8cd2514dd80ba290099127839b246b1971bf98691e7c3e88fc95c6f4f3b8309c6c32b1ad38eb4270e9b107a3bb044b39519fb8493e5c1ea8dcb5e6d4d39810bc4c12918d18cb6250c9d167c3db642b5931ffd8295e3c7ec8bcd586b4b3f870dc2c72f1ed78ab0230a9f147e3fb440b7911dff8097e1c5ee89cf5a69493d850fc0c52d1cd588b22108911a7031ba4eb99f13f18e99efcbe087c477297d4f8c09c84c850a42fe268894dbcec86b2f18438ae6d27468ddbd5092b",
        "hex": "6a20bacd62cad9690b68c99a7b4f236258acbe308f5222c20f520e4f37edc3d8f0f54db0049127839b246b1971bf98691e7c3e88fc95c6f4f3b8309c6c32b1ad38eb4270e9b107a3bb044b39519fb8493e5c1ea8dcb5e6d4d39810bc4c12918d18cb6250c9d167c3db642b5931ffd8295e3c7ec8bcd586b4b3f870dc2c72f1ed78ab0230a9f147e3fb440b7911dff8097e1c5ee89cf5a69493d850fc0c52d1cd588b22108911a7031ba4eb99f13f18e99efcbe087c1546747338b01cecb2312db86bc2f0693187233b84cbb9d11f38c9bedc9e285c3566545318903ccc92110d984be2d04951e7435be4abd9b17f58a9debcfe483c5506343378f05cacf2716df82b82b02971c7637bc48bf9915f7889fe9cde681c7526141358d07c8cd2514dd80ba290099127839b246b1971bf98691e7c3e88fc95c6f4f3b8309c6c32b1ad38eb4270e9b107a3bb044b39519fb8493e5c1ea8dcb5e6d4d39810bc4c12918d18cb6250c9d167c3db642b5931ffd8295e3c7ec8bcd586b4b3f870dc2c72f1ed78ab0230a9f147e3fb440b7911dff8097e1c5ee89cf5a69493d850fc0c52d1cd588b22108911a7031ba4eb99f13f18e99efcbe087c1546747338b01cecb2312db86bc2f0693187233b84cbb9d11f38c9bedc9e285c3566545318903ccc92110d984be2d04951e7435be4abd9b17f58a9debcfe483c5506343378f05cacf2716df82b82b02971c7637bc48bf9915f7889fe9cde681c7526141358d07c8cd2514dd80ba290099127839b246b1971bf98691e7c3e88fc95c6f4f3b8309c6c32b1ad38eb4270e9b107a3bb044b39519fb8493e5c1ea8dcb5e6d4d39810bc4c12918d18cb6250c9d167c3db642b5931ffd8295e3c7ec8bcd586b4b3f870dc2c72f1ed78ab0230a9f147e3fb440b7911dff8097e1c5ee89cf5a69493d850fc0c52d1cd588b22108911a7031ba4eb99f13f18e99efcbe087c1546747338b01cecb2312db86bc2f0693187233b84cbb9d11f38c9bedc9e285c3566545318903ccc92110d984be2d04951e7435be4abd9b17f58a9debcfe483c5506343378f05cacf2716df82b82b02971c7637bc48bf9915f7889fe9cde681c7526141358d07c8cd2514dd80ba290099127839b246b1971bf98691e7c3e88fc95c6f4f3b8309c6c32b1ad38eb4270e9b107a3bb044b39519fb8493e5c1ea8dcb5e6d4d39810bc4c12918d18cb6250c9d167c3db642b5931ffd8295e3c7ec8bcd586b4b3f870dc2c72f1ed78ab0230a9f147e3fb440b7911dff8097e1c5ee89cf5a69493d850fc0c52d1cd588b22108911a7031ba4eb99f13f18e99efcbe087c1546747338b01cecb2312db86bc2f0693187233b84cbb9d11f38c9bedc9e285c3566545318903ccc92110d984be2d04951e7435be4abd9b17f58a9debcfe483c5506343378f05cacf2716df82b82b02971c7637bc48bf9915f7889fe9cde681c7526141358d07c8cd2514dd80ba290099127839b246b1971bf98691e7c3e88fc95c6f4f3b8309c6c32b1ad38eb4270e9b107a3bb044b39519fb8493e5c1ea8dcb5e6d4d39810bc4c12918d18cb6250c9d167c3db642b5931ffd8295e3c7ec8bcd586b4b3f870dc2c72f1ed78ab0230a9f147e3fb440b7911dff8097e1c5ee89cf5a69493d850fc0c52d1cd588b22108911a7031ba4eb99f13f18e99efcbe087c477297d4f8c09c84c850a42fe268894dbcec86b2f18438ae6d27468ddbd5092b",
        "type": "nulldata"
      }
    },
    {
      "value": 499993.8986,
      "n": 1,
      "scriptPubKey": {
        "asm": "1 cb450d89de5f982064f2a1d3f77cb5212a200cacf494476ff0d92777fcbeceee",
        "hex": "5120cb450d89de5f982064f2a1d3f77cb5212a200cacf494476ff0d92777fcbeceee",
        "reqSigs": 1,
        "type": "witness_v1_scripthash",
        "addresses": [
          "3QJmnh"
        ]
      }
    }
  ],
  "blockhash": "32a2d379a33ec88ae1cb3a8a1a44f2d12b76aebf574ecf7ac16b289397ed6cd9",
  "confirmations": 1,
  "time": 1764176557,
  "blocktime": 1764176557
}