{
  "hex": "0100000000010158b93a8af14b965b6f4d2c2d23751bfeb654302e38d09c513bb9d8f38db9d3270100000000feffffff0200e1f50500000000fdd5046a20f0b4a08d62dddab535c6ed72336b9911fe70ca647bc83803d85ab28dc791e6164db004b703e0d1550f86e9f4e75b1cb016cc6101101b5a5ab018aa9ec9128341caa5c09723c0f1752fa6c9d4c77b3c9036ec4121303b7a7a90388abee932a361ea85e0f743a091154fc6a9b4a71b5cf0568c2141505b1a1af058eade8952c3018ae580d76380b1356fe68994873b7cd076ac0161707b3a3ad078cafea972e321aac5a037836051d58f06697467db9c30964ce181909bdada30982a1e499203c14a254017a34071f5af26495447fbbc10b66cc1a1b0bbfafa10b80a3e69b223e16a056077c3201195cf462934279bdc70d60ca1c1d0db9a9a70d86a5e09d243810a650057e30031b5ef66091407bbfc50f62c81e1f0fbbaba50f84a7e29f263a12a4520b703e0d1550f86e9f4e75b1cb016cc6101101b5a5ab018aa9ec9128341caa5c09723c0f1752fa6c9d4c77b3c9036ec4121303b7a7a90388abee932a361ea85e0f743a091154fc6a9b4a71b5cf0568c2141505b1a1af058eade8952c3018ae580d76380b1356fe68994873b7cd076ac0161707b3a3ad078cafea972e321aac5a037836051d58f06697467db9c30964ce181909bdada30982a1e499203c14a254017a34071f5af26495447fbbc10b66cc1a1b0bbfafa10b80a3e69b223e16a056077c3201195cf462934279bdc70d60ca1c1d0db9a9a70d86a5e09d243810a650057e30031b5ef66091407bbfc50f62c81e1f0fbbaba50f84a7e29f263a12a4520b703e0d1550f86e9f4e75b1cb016cc6101101b5a5ab018aa9ec9128341caa5c09723c0f1752fa6c9d4c77b3c9036ec4121303b7a7a90388abee932a361ea85e0f743a091154fc6a9b4a71b5cf0568c2141505b1a1af058eade8952c3018ae580d76380b1356fe68994873b7cd076ac0161707b3a3ad078cafea972e321aac5a037836051d58f06697467db9c30964ce181909bdada30982a1e499203c14a254017a34071f5af26495447fbbc10b66cc1a1b0bbfafa10b80a3e69b223e16a056077c3201195cf462934279bdc70d60ca1c1d0db9a9a70d86a5e09d243810a650057e30031b5ef66091407bbfc50f62c81e1f0fbbaba50f84a7e29f263a12a4520b703e0d1550f86e9f4e75b1cb016cc6101101b5a5ab018aa9ec9128341caa5c09723c0f1752fa6c9d4c77b3c9036ec4121303b7a7a90388abee932a361ea85e0f743a091154fc6a9b4a71b5cf0568c2141505b1a1af058eade8952c3018ae580d76380b1356fe68994873b7cd076ac0161707b3a3ad078cafea972e321aac5a037836051d58f06697467db9c30964ce181909bdada30982a1e499203c14a254017a34071f5af26495447fbbc10b66cc1a1b0bbfafa10b80a3e69b223e16a056077c3201195cf462934279bdc70d60ca1c1d0db9a9a70d86a5e09d243810a650057e30031b5ef66091407bbfc50f62c81e1f0fbbaba50f84a7e29f263a12a4520b703e0d1550f86e9f4e75b1cb016cc6101101b5a5ab018aa9ec9128341caa5c09723c0f1752fa6c9d4c77b3c9036ec4121303b7a7a90388abee932a361ea85e0f743a091154fc6a9b4a71b5cf0568c2141505b1a1af058eade8952c3018ae580d76380b1356fe68994873b7cd076ac0161707b3a3ad078cafea972e321aac5a037836051d58f06697467db9c30964ce1a02f49db3e2f7a155d83f8b9a95aa08d8d7332828677dcf6e3ccb11fd52a00d2407886de782d000022512090addb982ff55990d849ee2dff7f8a6133eefead493cbb390b3b0b0e9fc6392902fd75091998beba93c20cb382806941f77752aa79aab282d7ef90e888c9d773ab48d1f42aa55711e2a2b73c5a3982eff46445a703e8857c5bbb57610f6868c0371d87399911db0b03f69d2fafb9bd4b5ed39f36508822e49346c0bfd249cac5620dcee1b55bad1d2fccdb072bef71a354b327dc467f712c0f1b3ab4f1e0968f4f886ff8e45c143882982188facfd00c873b8b1ffc006e3c3b1c5346a3cb18639a2093212575d67cdf6d8cdc014a16020c2e83939bfad4f3db5656fb7b9c51a5d489b66b54a325133dbd0709290a1ca9eb54f1c6193509e2481ce87725713290383473f64d41fcc1da096daaf2efecae35370262782008ca6157de1ede802adde9a645b8a4f797624450b52ba83b6ff3c58d46660206fbc06ac0bd6059efa95d7b05e425fdf3860f642affea1a3d09c367a97bef0f4f1656435b468cda60fe931204c2a11d8654eb63213d056ac247f8b633ec814dbd2dfdb8c64967a203d3220e60048073f6fbafb8442dca35fd9d4050296330f75fcccd34ab1ce5d95f1cedb80e37fb59712591331e79bb3af8042f0c9fa96e45864dcfd8451e522e5a46e61c3642f3ff9700e68afedf34150f5b978f32c50d375fe14591dd258c3e8b51f62fe34b3dbe0280282e57c6af03759b93d29448c13b1b57e8ff9d3dbc0c2d01d2ac1c43aed922bbbc639a38b3f389dd62eddfbf2a236dee348d383c87074b7fe339683a6c7d9cf1c4fe81d9b2cd84155c36f46162068fac37007f5644c1c4b0204d211abc0240d7bdb0f69b2331f9ee1b076134c5f41dbbbbae8612b07ec5dd353400a21ed687fba3c13a294a53f326f163c0042e82c980eb675eb296cf8f61c77cb41b7275456046c44b2ab7f5752ac5c2c7f46b65d49c91cd8d14bbc821e15a3e99288cfb566e4986faf73642ce10c09fa8e3dc01c58814e3734e4738eb9b1efd850b2928b5024187e758463216e03a951a8afe3dbd5cbaec14be172a0830d86d78ff597869b7a08a496bbc26b9f7fd2d5b384f137318fd9c7a2b1cf86409b8a9545daa1a9def925d2a4a4127427c8dc2a0537dfd4f120db494d335239a2cde59b403d5ce30f52223728d46e5baf836d1d387dbbf78ceec33cecb9a986d21ef1cf27da1c515ae8781aa53c53565f500b2cf54a502060d26a61181c785f3fd36f1fe4012ee75f29ba551acd7a30eafecc38013e3cc094e8dc783b2c9f13fd2b7122f28649b70b41460bb41da1d188a1a90841c06e308c6e8721543a7c661e9b2b49f51865b956e62ae15b7da754ac3ccee1dafbcbb45d603b4c469648dba28e87837c7cc44235ec07cc5315ddd856c22e1e9aedadb529a8043ef208be90d8717e71a340279e074bc0ebb2f45f58c85f9319ab039b7c38b03ca7e22e029d704dfdf3db409f746336d3a27ae85129b04644fa11bd42bd03852bb291238dfdee46a03599c82ea2892f96ccc6f627760daf578173ed7526baea76241759d4c660f1af648495c15fba3fddabf9e45375373c6cbb4e845b5de1d7a5fb49c6b8d39d1eb8c13c0655faea5faaf7715ae7f727a63e822667d60ea78a1ca41695633d2ab540388d40e3e78deabeaa01e496964098d21b5a3431432cc2b20ad252dfa64f2ced93e99d001251269b5f8847035018afae0710bcb1a1f5ccc2fff3411d27b3c2a5ac353f9c9063d32d13a2a57e41147fa1a8bf1f563a11ad66286a467707972ff7f4de5883b81d7ee6fef02ee8a7cbd7c3968ee123f8a143d97ab43c6092344e4d9bf41f56a344bdc66760a0450ea6ee624b364de85d1e2e552b0e3be37147e490c01b2f4c2734e2cfcd19f2ce0c94d8e16a5c7daa7ec911dfc2c89d9dd0652956488cf1fcc44b34d22e63308afdf2fe9d48ec6d61b627bed21827fb3219a590ae6a98d7a6061ef1523b8649622260ef64ce45c1d932c46e082c4f67b0592e3f010e54c5155ec05cb1bd6fbc83ee24b5618d50a876482a1b8e57ddb6854000223139124cc542f912cf74411f0a6aedd7859daddfe806076436706c02bdc10b66c0ac14493f51cfd9e93b2bd5943afce319c6fea0a98ace1f93dc42456a7b068d54027aec1533c6c30f5e198ad3c59c00df0d5a84e5e6c11112ee03ee8534d2f2b9d848c15716a8b833519a503b5388ee19fb8344ed723528beee859dc87953ae01d0aa54a095f92f94feb9a2ed2878813ca241b5e4752e8ac1c444a20cc176163436b97ef622123ea3289adacf5ca476bb896e1cd8e7162044a7b228852727142b88bfbab9ce89e7175c3990ce85a82784f0360d53818bab0bea03aa16a69f8bf5e54168da4c72d405b2553502125f1c6a43b0bf732ade86699ecc0d1ce3e5399c0c404ca497aac56e2e75efdc29f03c46c019fd73705e44a6568d98198436a5d493cb81e4601571f79af3e76dd7ef6efc2d78785eee6077c401a39327949ac38584c04037c2f8010f812cb88cce86236d596f46bcf93e9ffcac4afcac2e0b419ea16c621ca25c24edff3859e20af78a5af9184157e1bd773beb5e0adf876cb391b1fdd0d4d6ab77b4c5c390852f9b5eee3b0b13dea057aed621548e8cbb75507c7b46f49e1b70eb0948938d70251a5a5e89589d48bf00d69ce53f6885703d8eff9be3a53591c23303a32763027000db3ecc25ae0dd4d1028b69e907c06f3db2bee35c8661b6e3c52d7b71dfbb9fa5365fae7449a1e829166cd279aa581e0fe8c45ba0276ae5f279fd0421d4ed9fff13170167b8367778ae8492f606f4e84cf827901ec8cb80b5127d62dd1ea41084198e3bdbd1d56dfe604a1c5cfb1eeef06bf60654d6efac6da670bd227000547ebe674c3501a0b4e1939fc141f11eb0e68336984b60ec37e8b3678d0a29e6df5d80d4ca00c8049b52257de6328b7be02f2ce1008f6e7a791387c03e0d0bfce2e8704302be811e9d21d3b3f9b21f9a394a86ef3591cd8d19f0990750d137e471526a345558a52f87cf1f26da17c26e85964ac8d1bab3eb528db9b63cae11d5259729498573ca4c65655b3af017fdb25d8b1c835f8e16fcb8968ae1690e6334724b23ae8bf915d819e10717ef7608930f848e94112c2ab6250b4e77c6a720e97bbc0dc8880291b10e01ab9654b69af211ad9ea2b0b2b1b7cae4c4b06e8e4a57239588a95156d6f4f893656974e268351de3637b5b9d1078b24b75476b2f623356df07e37840ad424407a9b95d97fcd54f0c8d0594b8ab7b1be7a4a974e181a642f04eb8a3f36b666d8e4315876bdef6097c5a636cc0f2bd076512e58bc946d3bded4fc0fb15ee57b6b1844bfaa0ca6fe046b0c9e362d1b021a22233b4c4e7380898a8d9fa0a1aacceef70536404f595c63676a6b7173a5aac4c7d4d8dbe40d14232b42546d768e999fb40b12202d4b57757fbcbecee1e6f50000000000000000000000000000001327334101fd2105000c443c3b120aa34b3d8de24b7da6efbfa8bd8af1dc5bca661f77ba2f372d40363d62050137318392f4e7331fff8961fadc1327acf2620f7e153d6f02d9a4c75e434fd43df52daa1e89b563b8e920f60b4c17f942c08542ebb33e2e2c3153f53c4a254e466ce9258901c580ac3a607b44c9d994a63dab4e6b099c92cf05e539fd0c8f658a206178ae3a6b9bec6792d7295c07e5d122077c8d77f508e5768d3ad629154b967f0cd49d8e24efb4a1414a43e0738d243986a9a7e5187687b0dfc1a5a400dbab81408385d6cc4bf48af51a8abe367ff8e0fadfaf253307526341b436cad4fadd53d1c3e657d771f5ca2f66be81787dd9ef1d396292933f81698e119ffd64f1b637066ee2124414ed90f78cfef59d46ba6579e87a67b399b05c4ec8a0f0d9bd865af33029052b23eb638389ed9b16d9e1932fdc3a15deb291953d13f4a4eea52107baed5a0a238595f3cf6c06727cc5ad6d071cbdae649ef541fdbb9c1dd9014a0c6ab48564069a18b7d46063b0d3b2d791ff58efb10cdd701921d8f64f6be6c5a7633048eb45ff04d13e63272af67f850c7bfb5b1571a521663c6b7645afa1907a8a16463b5182188caf6789b88b6ed96b8259d82d7c606efd37738462cae8d0298ee33e7eae318ebd7490a4c41a418f8f4c1e8305666b31e22157f3dc25883e8227472a251afde01dd163a1fe1b4fdfa945a0daa8cccc49d67617f76c40ae0764fa7973bb675582a44d92d3089b2e8412ee0ac358048ffc962971ca2bb8512cd48e268320af29b4bc5a17e65aea9787515afe9ce66cf7df1e292633f2b4b860131adab60ad020a3a72210987823efb139df9f9245c6783c6530279eafde56d65e331aad0d1859c826fae45a0d6eadfe82b1ea7582e0a9d8c8ba07580802542c1f458971948ec8b878b2f354716b7c95e35a93590c2afefceae2941089a84c9f01fbf5fc464584855f381b49384d70854b583f0a9457188c181e9845d1c852950a239f5bcd825935c6a20558e15ab84f29cc85bc87764f27a2946bafcc39d4f543e4aa229594c4bda3ffcc8fb97f0837cc259cbac46205bd98c6c16407cb165741010db783be14588e2cdb1bc6f2f6c8a24813259990a0b2424f80aa23a5e3ea228f1ba0ef83c94845e1a7f52197a484ccaf17849053f4a6e186bb29cdb89c0c3c4578077a35ec864d896f604d327b034cf4da14ed87388f1b341c6166ed56626a9ea638434a016bb4c4e88db0263b0ee3350b8b79485f4317cb28bf4acf216233011b2042305ef985d44ea98988b6c6ec733276a81a403d2814dec73774c79570f1c316ffab087f148112b93b193caa14c5e0597b25db8aa4298a5e7d683f5c5268a74aa5d78affdfbb39aaf02bbe76d599f5a20720e971ffc2b80f9862f560a73d832232dcc01f87d43fc69a487e8f410f025a824e9d21a8e0c227a3e253383be4ee7fdfc4b2c8ae4a0fbb3172bd10d3ae7401f10bd1d5a83d6e74f722060181abf6e23450c414d9a7258a0892ef1b52d33d0fd0dcd82773d8ba3d524de854a8d7a2b4bd1e3d356d65a9059b2709dad0ca045ce81304d37ac6a7255e6fc320e140c7efe6304077b95b2989f99aa994d3b864e058b350a7a281500fc33a9bebab76cee8cbd903acf7ccf58bbd778725ce0479c1da0f6d8907a702e046b284e52115730e1c48300fa52117f6ab71d348a884438484d89e5455cfeacf84dfdeda13110a630d264ba0594469862dc804df331785e9472c84ccea48941064f7942d6a3fce81cd4fc10a968822c4344945f8baf26e8e951af8643f0d084d7aab9f5387a3eec4fa90b8195eacbd5660be68f526ad25bd07ec5b27965886347e000000",
  "txid": "039a7209b088cb35487347d3c13f069e921e3896583180f793dad3c6a2e1d1b0",
  "hash": "d66c300797ca1bd7e1eed284a89259f4e16a54dec59de795b686d833086d4707",
  "size": 5085,
  "vsize": 2278,
  "version": 1,
  "locktime": 126,
  "vin": [
    {
      "txid": "27d3b98df3d8b93b519cd0382e3054b6fe1b75232d2c4d6f5b964bf18a3ab958",
      "vout": 1,
      "scriptSig": {
        "asm": "",
        "hex": ""
      },
      "txinwitness": [
        "1998beba93c20cb382806941f77752aa79aab282d7ef90e888c9d773ab48d1f42aa55711e2a2b73c5a3982eff46445a703e8857c5bbb57610f6868c0371d87399911db0b03f69d2fafb9bd4b5ed39f36508822e49346c0bfd249cac5620dcee1b55bad1d2fccdb072bef71a354b327dc467f712c0f1b3ab4f1e0968f4f886ff8e45c143882982188facfd00c873b8b1ffc006e3c3b1c5346a3cb18639a2093212575d67cdf6d8cdc014a16020c2e83939bfad4f3db5656fb7b9c51a5d489b66b54a325133dbd0709290a1ca9eb54f1c6193509e2481ce87725713290383473f64d41fcc1da096daaf2efecae35370262782008ca6157de1ede802adde9a645b8a4f797624450b52ba83b6ff3c58d46660206fbc06ac0bd6059efa95d7b05e425fdf3860f642affea1a3d09c367a97bef0f4f1656435b468cda60fe931204c2a11d8654eb63213d056ac247f8b633ec814dbd2dfdb8c64967a203d3220e60048073f6fbafb8442dca35fd9d4050296330f75fcccd34ab1ce5d95f1cedb80e37fb59712591331e79bb3af8042f0c9fa96e45864dcfd8451e522e5a46e61c3642f3ff9700e68afedf34150f5b978f32c50d375fe14591dd258c3e8b51f62fe34b3dbe0280282e57c6af03759b93d29448c13b1b57e8ff9d3dbc0c2d01d2ac1c43aed922bbbc639a38b3f389dd62eddfbf2a236dee348d383c87074b7fe339683a6c7d9cf1c4fe81d9b2cd84155c36f46162068fac37007f5644c1c4b0204d211abc0240d7bdb0f69b2331f9ee1b076134c5f41dbbbbae8612b07ec5dd353400a21ed687fba3c13a294a53f326f163c0042e82c980eb675eb296cf8f61c77cb41b7275456046c44b2ab7f5752ac5c2c7f46b65d49c91cd8d14bbc821e15a3e99288cfb566e4986faf73642ce10c09fa8e3dc01c58814e3734e4738eb9b1efd850b2928b5024187e758463216e03a951a8afe3dbd5cbaec14be172a0830d86d78ff597869b7a08a496bbc26b9f7fd2d5b384f137318fd9c7a2b1cf86409b8a9545daa1a9def925d2a4a4127427c8dc2a0537dfd4f120db494d335239a2cde59b403d5ce30f52223728d46e5baf836d1d387dbbf78ceec33cecb9a986d21ef1cf27da1c515ae8781aa53c53565f500b2cf54a502060d26a61181c785f3fd36f1fe4012ee75f29ba551acd7a30eafecc38013e3cc094e8dc783b2c9f13fd2b7122f28649b70b41460bb41da1d188a1a90841c06e308c6e8721543a7c661e9b2b49f51865b956e62ae15b7da754ac3ccee1dafbcbb45d603b4c469648dba28e87837c7cc44235ec07cc5315ddd856c22e1e9aedadb529a8043ef208be90d8717e71a340279e074bc0ebb2f45f58c85f9319ab039b7c38b03ca7e22e029d704dfdf3db409f746336d3a27ae85129b04644fa11bd42bd03852bb291238dfdee46a03599c82ea2892f96ccc6f627760daf578173ed7526baea76241759d4c660f1af648495c15fba3fddabf9e45375373c6cbb4e845b5de1d7a5fb49c6b8d39d1eb8c13c0655faea5faaf7715ae7f727a63e822667d60ea78a1ca41695633d2ab540388d40e3e78deabeaa01e496964098d21b5a3431432cc2b20ad252dfa64f2ced93e99d001251269b5f8847035018afae0710bcb1a1f5ccc2fff3411d27b3c2a5ac353f9c9063d32d13a2a57e41147fa1a8bf1f563a11ad66286a467707972ff7f4de5883b81d7ee6fef02ee8a7cbd7c3968ee123f8a143d97ab43c6092344e4d9bf41f56a344bdc66760a0450ea6ee624b364de85d1e2e552b0e3be37147e490c01b2f4c2734e2cfcd19f2ce0c94d8e16a5c7daa7ec911dfc2c89d9dd0652956488cf1fcc44b34d22e63308afdf2fe9d48ec6d61b627bed21827fb3219a590ae6a98d7a6061ef1523b8649622260ef64ce45c1d932c46e082c4f67b0592e3f010e54c5155ec05cb1bd6fbc83ee24b5618d50a876482a1b8e57ddb6854000223139124cc542f912cf74411f0a6aedd7859daddfe806076436706c02bdc10b66c0ac14493f51cfd9e93b2bd5943afce319c6fea0a98ace1f93dc42456a7b068d54027aec1533c6c30f5e198ad3c59c00df0d5a84e5e6c11112ee03ee8534d2f2b9d848c15716a8b833519a503b5388ee19fb8344ed723528beee859dc87953ae01d0aa54a095f92f94feb9a2ed2878813ca241b5e4752e8ac1c444a20cc176163436b97ef622123ea3289adacf5ca476bb896e1cd8e7162044a7b228852727142b88bfbab9ce89e7175c3990ce85a82784f0360d53818bab0bea03aa16a69f8bf5e54168da4c72d405b2553502125f1c6a43b0bf732ade86699ecc0d1ce3e5399c0c404ca497aac56e2e75efdc29f03c46c019fd73705e44a6568d98198436a5d493cb81e4601571f79af3e76dd7ef6efc2d78785eee6077c401a39327949ac38584c04037c2f8010f812cb88cce86236d596f46bcf93e9ffcac4afcac2e0b419ea16c621ca25c24edff3859e20af78a5af9184157e1bd773beb5e0adf876cb391b1fdd0d4d6ab77b4c5c390852f9b5eee3b0b13dea057aed621548e8cbb75507c7b46f49e1b70eb0948938d70251a5a5e89589d48bf00d69ce53f6885703d8eff9be3a53591c23303a32763027000db3ecc25ae0dd4d1028b69e907c06f3db2bee35c8661b6e3c52d7b71dfbb9fa5365fae7449a1e829166cd279aa581e0fe8c45ba0276ae5f279fd0421d4ed9fff13170167b8367778ae8492f606f4e84cf827901ec8cb80b5127d62dd1ea41084198e3bdbd1d56dfe604a1c5cfb1eeef06bf60654d6efac6da670bd227000547ebe674c3501a0b4e1939fc141f11eb0e68336984b60ec37e8b3678d0a29e6df5d80d4ca00c8049b52257de6328b7be02f2ce1008f6e7a791387c03e0d0bfce2e8704302be811e9d21d3b3f9b21f9a394a86ef3591cd8d19f0990750d137e471526a345558a52f87cf1f26da17c26e85964ac8d1bab3eb528db9b63cae11d5259729498573ca4c65655b3af017fdb25d8b1c835f8e16fcb8968ae1690e6334724b23ae8bf915d819e10717ef7608930f848e94112c2ab6250b4e77c6a720e97bbc0dc8880291b10e01ab9654b69af211ad9ea2b0b2b1b7cae4c4b06e8e4a57239588a95156d6f4f893656974e268351de3637b5b9d1078b24b75476b2f623356df07e37840ad424407a9b95d97fcd54f0c8d0594b8ab7b1be7a4a974e181a642f04eb8a3f36b666d8e4315876bdef6097c5a636cc0f2bd076512e58bc946d3bded4fc0fb15ee57b6b1844bfaa0ca6fe046b0c9e362d1b021a22233b4c4e7380898a8d9fa0a1aacceef70536404f595c63676a6b7173a5aac4c7d4d8dbe40d14232b42546d768e999fb40b12202d4b57757fbcbecee1e6f50000000000000000000000000000001327334101",
        "000c443c3b120aa34b3d8de24b7da6efbfa8bd8af1dc5bca661f77ba2f372d40363d62050137318392f4e7331fff8961fadc1327acf2620f7e153d6f02d9a4c75e434fd43df52daa1e89b563b8e920f60b4c17f942c08542ebb33e2e2c3153f53c4a254e466ce9258901c580ac3a607b44c9d994a63dab4e6b099c92cf05e539fd0c8f658a206178ae3a6b9bec6792d7295c07e5d122077c8d77f508e5768d3ad629154b967f0cd49d8e24efb4a1414a43e0738d243986a9a7e5187687b0dfc1a5a400dbab81408385d6cc4bf48af51a8abe367ff8e0fadfaf253307526341b436cad4fadd53d1c3e657d771f5ca2f66be81787dd9ef1d396292933f81698e119ffd64f1b637066ee2124414ed90f78cfef59d46ba6579e87a67b399b05c4ec8a0f0d9bd865af33029052b23eb638389ed9b16d9e1932fdc3a15deb291953d13f4a4eea52107baed5a0a238595f3cf6c06727cc5ad6d071cbdae649ef541fdbb9c1dd9014a0c6ab48564069a18b7d46063b0d3b2d791ff58efb10cdd701921d8f64f6be6c5a7633048eb45ff04d13e63272af67f850c7bfb5b1571a521663c6b7645afa1907a8a16463b5182188caf6789b88b6ed96b8259d82d7c606efd37738462cae8d0298ee33e7eae318ebd7490a4c41a418f8f4c1e8305666b31e22157f3dc25883e8227472a251afde01dd163a1fe1b4fdfa945a0daa8cccc49d67617f76c40ae0764fa7973bb675582a44d92d3089b2e8412ee0ac358048ffc962971ca2bb8512cd48e268320af29b4bc5a17e65aea9787515afe9ce66cf7df1e292633f2b4b860131adab60ad020a3a72210987823efb139df9f9245c6783c6530279eafde56d65e331aad0d1859c826fae45a0d6eadfe82b1ea7582e0a9d8c8ba07580802542c1f458971948ec8b878b2f354716b7c95e35a93590c2afefceae2941089a84c9f01fbf5fc464584855f381b49384d70854b583f0a9457188c181e9845d1c852950a239f5bcd825935c6a20558e15ab84f29cc85bc87764f27a2946bafcc39d4f543e4aa229594c4bda3ffcc8fb97f0837cc259cbac46205bd98c6c16407cb165741010db783be14588e2cdb1bc6f2f6c8a24813259990a0b2424f80aa23a5e3ea228f1ba0ef83c94845e1a7f52197a484ccaf17849053f4a6e186bb29cdb89c0c3c4578077a35ec864d896f604d327b034cf4da14ed87388f1b341c6166ed56626a9ea638434a016bb4c4e88db0263b0ee3350b8b79485f4317cb28bf4acf216233011b2042305ef985d44ea98988b6c6ec733276a81a403d2814dec73774c79570f1c316ffab087f148112b93b193caa14c5e0597b25db8aa4298a5e7d683f5c5268a74aa5d78affdfbb39aaf02bbe76d599f5a20720e971ffc2b80f9862f560a73d832232dcc01f87d43fc69a487e8f410f025a824e9d21a8e0c227a3e253383be4ee7fdfc4b2c8ae4a0fbb3172bd10d3ae7401f10bd1d5a83d6e74f722060181abf6e23450c414d9a7258a0892ef1b52d33d0fd0dcd82773d8ba3d524de854a8d7a2b4bd1e3d356d65a9059b2709dad0ca045ce81304d37ac6a7255e6fc320e140c7efe6304077b95b2989f99aa994d3b864e058b350a7a281500fc33a9bebab76cee8cbd903acf7ccf58bbd778725ce0479c1da0f6d8907a702e046b284e52115730e1c48300fa52117f6ab71d348a884438484d89e5455cfeacf84dfdeda13110a630d264ba0594469862dc804df331785e9472c84ccea48941064f7942d6a3fce81cd4fc10a968822c4344945f8baf26e8e951af8643f0d084d7aab9f5387a3eec4fa90b8195eacbd5660be68f526ad25bd07ec5b2796588634"
      ],
      "sequence": 4294967294
    }
  ],
  "vout": [
    {
      "value": 1.0,
      "n": 0,
      "scriptPubKey": {
        "asm": "OP_RETURN f0b4a08d62dddab535c6ed72336b9911fe70ca647bc83803d85ab28dc791e616 b703e0d1550f86e9f4e75b1cb016cc6101101b5a5ab018aa9ec9128341caa5c09723c0f1752fa6c9d4c77b3c9036ec4121303b7a7a90388abee932a361ea85e0f743a091154fc6a9b4a71b5cf0568c2141505b1a1af058eade8952c3018ae580d76380b1356fe68994873b7cd076ac0161707b3a3ad078cafea972e321aac5a037836051d58f06697467db9c30964ce181909bdada30982a1e499203c14a254017a34071f5af26495447fbbc10b66cc1a1b0bbfafa10b80a3e69b223e16a056077c3201195cf462934279bdc70d60ca1c1d0db9a9a70d86a5e09d243810a650057e30031b5ef66091407bbfc50f62c81e1f0fbbaba50f84a7e29f263a12a4520b703e0d1550f86e9f4e75b1cb016cc6101101b5a5ab018aa9ec9128341caa5c09723c0f1752fa6c9d4c77b3c9036ec4121303b7a7a90388abee932a361ea85e0f743a091154fc6a9b4a71b5cf0568c2141505b1a1af058eade8952c3018ae580d76380b1356fe68994873b7cd076ac0161707b3a3ad078cafea972e321aac5a037836051d58f06697467db9c30964ce181909bdada30982a1e499203c14a254017a34071f5af26495447fbbc10b66cc1a1b0bbfafa10b80a3e69b223e16a056077c3201195cf462934279bdc70d60ca1c1d0db9a9a70d86a5e09d243810a650057e30031b5ef66091407bbfc50f62c81e1f0fbbaba50f84a7e29f263a12a4520b703e0d1550f86e9f4e75b1cb016cc6101101b5a5ab018aa9ec9128341caa5c09723c0f1752fa6c9d4c77b3c9036ec4121303b7a7a90388abee932a361ea85e0f743a091154fc6a9b4a71b5cf0568c2141505b1a1af058eade8952c3018ae580d76380b1356fe68994873b7cd076ac0161707b3a3ad078cafea972e321aac5a037836051d58f06697467db9c30964ce181909bdada30982a1e499203c14a254017a34071f5af26495447fbbc10b66cc1a1b0bbfafa10b80a3e69b223e16a056077c3201195cf462934279bdc70d60ca1c1d0db9a9a70d86a5e09d243810a650057e30031b5ef66091407bbfc50f62c81e1f0fbbaba50f84a7e29f263a12a4520b703e0d1550f86e9f4e75b1cb016cc6101101b5a5ab018aa9ec9128341caa5c09723c0f1752fa6c9d4c77b3c9036ec4121303b7a7a90388abee932a361ea85e0f743a091154fc6a9b4a71b5cf0568c2141505b1a1af058eade8952c3018ae580d76380b1356fe68994873b7cd076ac0161707b3a3ad078cafea972e321aac5a037836051d58f06697467db9c30964ce181909bdada30982a1e499203c14a254017a34071f5af26495447fbbc10b66cc1a1b0bbfafa10b80a3e69b223e16a056077c3201195cf462934279bdc70d60ca1c1d0db9a9a70d86a5e09d243810a650057e30031b5ef66091407bbfc50f62c81e1f0fbbaba50f84a7e29f263a12a4520b703e0d1550f86e9f4e75b1cb016cc6101101b5a5ab018aa9ec9128341caa5c09723c0f1752fa6c9d4c77b3c9036ec4121303b7a7a90388abee932a361ea85e0f743a091154fc6a9b4a71b5cf0568c2141505b1a1af058eade8952c3018ae580d76380b1356fe68994873b7cd076ac0161707b3a3ad078cafea972e321aac5a037836051d58f06697467db9c30964ce1a02f49db3e2f7a155d83f8b9a95aa08d8d7332828677dcf6e3ccb11fd52a00d2",
        "hex": "6a20f0b4a08d62dddab535c6ed72336b9911fe70ca647bc83803d85ab28dc791e6164db004b703e0d1550f86e9f4e75b1cb016cc6101101b5a5ab018aa9ec9128341caa5c09723c0f1752fa6c9d4c77b3c9036ec4121303b7a7a90388abee932a361ea85e0f743a091154fc6a9b4a71b5cf0568c2141505b1a1af058eade8952c3018ae580d76380b1356fe68994873b7cd076ac0161707b3a3ad078cafea972e321aac5a037836051d58f06697467db9c30964ce181909bdada30982a1e499203c14a254017a34071f5af26495447fbbc10b66cc1a1b0bbfafa10b80a3e69b223e16a056077c3201195cf462934279bdc70d60ca1c1d0db9a9a70d86a5e09d243810a650057e30031b5ef66091407bbfc50f62c81e1f0fbbaba50f84a7e29f263a12a4520b703e0d1550f86e9f4e75b1cb016cc6101101b5a5ab018aa9ec9128341caa5c09723c0f1752fa6c9d4c77b3c9036ec4121303b7a7a90388abee932a361ea85e0f743a091154fc6a9b4a71b5cf0568c2141505b1a1af058eade8952c3018ae580d76380b1356fe68994873b7cd076ac0161707b3a3ad078cafea972e321aac5a037836051d58f06697467db9c30964ce181909bdada30982a1e499203c14a254017a34071f5af26495447fbbc10b66cc1a1b0bbfafa10b80a3e69b223e16a056077c3201195cf462934279bdc70d60ca1c1d0db9a9a70d86a5e09d243810a650057e30031b5ef66091407bbfc50f62c81e1f0fbbaba50f84a7e29f263a12a4520b703e0d1550f86e9f4e75b1cb016cc6101101b5a5ab018aa9ec9128341caa5c09723c0f1752fa6c9d4c77b3c9036ec4121303b7a7a90388abee932a361ea85e0f743a091154fc6a9b4a71b5cf0568c2141505b1a1af058eade8952c3018ae580d76380b1356fe68994873b7cd076ac0161707b3a3ad078cafea972e321aac5a037836051d58f06697467db9c30964ce181909bdada30982a1e499203c14a254017a34071f5af26495447fbbc10b66cc1a1b0bbfafa10b80a3e69b223e16a056077c3201195cf462934279bdc70d60ca1c1d0db9a9a70d86a5e09d243810a650057e30031b5ef66091407bbfc50f62c81e1f0fbbaba50f84a7e29f263a12a4520b703e0d1550f86e9f4e75b1cb016cc6101101b5a5ab018aa9ec9128341caa5c09723c0f1752fa6c9d4c77b3c9036ec4121303b7a7a90388abee932a361ea85e0f743a091154fc6a9b4a71b5cf0568c2141505b1a1af058eade8952c3018ae580d76380b1356fe68994873b7cd076ac0161707b3a3ad078cafea972e321aac5a037836051d58f06697467db9c30964ce181909bdada30982a1e499203c14a254017a34071f5af26495447fbbc10b66cc1a1b0bbfafa10b80a3e69b223e16a056077c3201195cf462934279bdc70d60ca1c1d0db9a9a70d86a5e09d243810a650057e30031b5ef66091407bbfc50f62c81e1f0fbbaba50f84a7e29f263a12a4520b703e0d1550f86e9f4e75b1cb016cc6101101b5a5ab018aa9ec9128341caa5c09723c0f1752fa6c9d4c77b3c9036ec4121303b7a7a90388abee932a361ea85e0f743a091154fc6a9b4a71b5cf0568c2141505b1a1af058eade8952c3018ae580d76380b1356fe68994873b7cd076ac0161707b3a3ad078cafea972e321aac5a037836051d58f06697467db9c30964ce1a02f49db3e2f7a155d83f8b9a95aa08d8d7332828677dcf6e3ccb11fd52a00d2",
        "type": "nulldata"
      }
    },
    {
      "value": 499971.5268,
      "n": 1,
      "scriptPubKey": {
        "asm": "1 90addb982ff55990d849ee2dff7f8a6133eefead493cbb390b3b0b0e9fc63929",
        "hex": "512090addb982ff55990d849ee2dff7f8a6133eefead493cbb390b3b0b0e9fc63929",
        "reqSigs": 1,
        "type": "witness_v1_scripthash",
        "addresses": [
          "3QJmnh"
        ]
      }
    }
  ],
  "blockhash": "6d9c0c317b6a18c94c8dfa8ecf7920e3db1b4df4697afebc42d3fd28269e39fd",
  "confirmations": 1,
  "time": 1764181315,
  "blocktime": 1764181315
}