{
  "hex": "0100000000010153d14bc0bfc0650ab69666648f31f54bf3eca415fd9ff4c3dcf76d7fa2d4c9040100000000feffffff023022f408792d00002251204d3038bea9ba16f6f01e8aecf194f303deb4ff1762bb91e746aa5a25d2587d9500e1f50500000000fdd5046a207fedbdbaa94c29400dd00750b2e0461fdc160ae66af30cd681419259a6a6d17b4db004d78c1d8b4e0ffd9d168959f42919fb37d1a6a78abcabecc11b0792a32a584450f7ac3dab6e2fddbd36a979d40939db17f18687aa9c8bcce13b27b2830a78647097cc5dcb0e4fbddd56c919b46959bb7791e6e7cafcebac815b47d2e36a180410b7ec7deb2e6f9dfd76e9399449799b57b1c6c7eadccb8ca17b67f2c34a382430570c9d0bce8f7d1d9609d974a9997bb75126270a3c2b6c419b871223aad8c4d0772cbd2beeaf5d3db629f95489b95b977106072a1c0b4c61bba732038af8e4f0174cdd4b8ecf3d5dd6499934e9d93bf71166674a7c6b2c01dbc75263ea988490376cfd6baeef1d7df669b914c9f91bd73146476a5c4b0c21fbe77243cab8a4b0d78c1d8b4e0ffd9d168959f42919fb37d1a6a78abcabecc11b0792a32a584450f7ac3dab6e2fddbd36a979d40939db17f18687aa9c8bcce13b27b2830a78647097cc5dcb0e4fbddd56c919b46959bb7791e6e7cafcebac815b47d2e36a180410b7ec7deb2e6f9dfd76e9399449799b57b1c6c7eadccb8ca17b67f2c34a382430570c9d0bce8f7d1d9609d974a9997bb75126270a3c2b6c419b871223aad8c4d0772cbd2beeaf5d3db629f95489b95b977106072a1c0b4c61bba732038af8e4f0174cdd4b8ecf3d5dd6499934e9d93bf71166674a7c6b2c01dbc75263ea988490376cfd6baeef1d7df669b914c9f91bd73146476a5c4b0c21fbe77243cab8a4b0d78c1d8b4e0ffd9d168959f42919fb37d1a6a78abcabecc11b0792a32a584450f7ac3dab6e2fddbd36a979d40939db17f18687aa9c8bcce13b27b2830a78647097cc5dcb0e4fbddd56c919b46959bb7791e6e7cafcebac815b47d2e36a180410b7ec7deb2e6f9dfd76e9399449799b57b1c6c7eadccb8ca17b67f2c34a382430570c9d0bce8f7d1d9609d974a9997bb75126270a3c2b6c419b871223aad8c4d0772cbd2beeaf5d3db629f95489b95b977106072a1c0b4c61bba732038af8e4f0174cdd4b8ecf3d5dd6499934e9d93bf71166674a7c6b2c01dbc75263ea988490376cfd6baeef1d7df669b914c9f91bd73146476a5c4b0c21fbe77243cab8a4b0d78c1d8b4e0ffd9d168959f42919fb37d1a6a78abcabecc11b0792a32a584450f7ac3dab6e2fddbd36a979d40939db17f18687aa9c8bcce13b27b2830a78647097cc5dcb0e4fbddd56c919b46959bb7791e6e7cafcebac815b47d2e36a180410b7ec7deb2e6f9dfd76e9399449799b57b1c6c7eadccb8ca17b67f2c34a382430570c9d0bce8f7d1d9609d974a9997bb75126270a3c2b6c419b871223aad8c4d0772cbd2beeaf5d3db629f95489b95b977106072a1c0b4c61bba732038af8e4f0174cdd4b8ecf3d5dd6499934e9d93bf71166674a7c6b2c01dbc75263ea988490376cfd6baeef1d7df669b914c9f91bd73146476a5c4b0c21fbe77243cab8a4b0d78c1d8b4e0ffd9d168959f42919fb37d1a6a78abcabecc11b0792a32a584450f7ac3dab6e2fddbd36a979d40939db17f18687aa9c8bcce13b27b2830a78647097cc5dcb0e4fbddd56c919b46959bb7791e6e7cafcebac815b47d2e36a180410b7ec7deb2e6f9dfd76e9399449799b57b1c6c7eadccb8ca17b67f2c34a382430570c9d0bce8f7d1d9609d974a9997bb73b88fcc9b00ee216d4e325ad984edccb977e07a2c2a4c69a31d3883680b3c14602fd750958d5566d45d0cc55010743dbc28ec7836a7ae5b225dbc68645f5e26507b158865668116272efb2b222090acc6550af0ad1a026fc691673c9174c8bb39897b72bb69a545f7fc0be237493e82a13ba6f6a67974764ebf080581b546ec9483b0ca7b1aae4468c1acb2bfec45166cfd9d84a25a299f25a3cacd9045f743cd88afaefd008c2027ab62d2ec9902106ae89a5772519d2c353efdebfd094f43f63d8c23f19e7578f93fc015574be8025265ea718d994969511b07b79e282a6164ef8851e151c1a8a009af4db6b741b1e5efc7032ef33cdb9a6977f8333b41faa3f6dcb809f324e42074faa822f47e13ba8b313c2535769767e1e14ddafedb2abafd5c286d3036050ad8653091b249cdb0fc6be4586c60002e78b10f465344a369a2955a0e33b72c730a0fce200c15dc8dff61381b0118be6e0e07395264f1d1bd08f982b487085b75ae008626bd909afe90a9b652084f1c46013452a5f23f8b12ee18ffc35bed7bbf83a23b51d341df4dcd545d79b0ea1230a33d410b1284f7888cf7d056cc6611089e7f843841e3fffc18e5f0da6776e28a06df78f0c0b958e2fcbb998430a56615e8cd2aa19bfcadee9b1a284abcee492417ca65c6a2853549bdff6a0d93479366edf9e4a13a8781f8af148885e82efe01e580900eb7897cc5a1d052071d07d0817a94b148e6d216210fd137823bf02139c5644c6261bcc81a6e69ea35daf1706441d40528f41ce645e6e908fc9a3e001fdaf70951e65c81d9b81062c9e8310329e6270430789d761cd5145df97943c60ca61b5fe5dc4517da7469931fa4b690323c51a121e995ec6a1e597cbd6a33a476d91280ef1fa01a7fc61e9af089aa196ac757cf57b7724a15c5c3775082d927896a86113db9f130e974b1b1cb13933be78d2df3deb7f973fc5a482407a58f8fa40311c76c64966deaa01254a3373f991556ed3b4d24a29f3b104a9ce3be769a0d885412b19ef578bf244c769982d23d4bb0ecd2ba79b6540209e118964fdc8178ecf6486174385a6e2042fdfe25b87bc9075c40e6202f49fdbd8c12a2e48fff71b183e81d97d523b1b0fd8e889e43d46d435c8a90fde85bc50959560d8e881e11ccf97abba2d43fca264f17731982e9961b6af21be436d29338ad61e8f24d9957cfbdf0a7864affbf03b2c9f5520e35dfad4d4a1e5a766c3294ff050c9c6020813028ccc7efd1bcb8326095846c1ea3bd9550d04d44864c2b9bf4f8c1750ea52e119e2c332d166596f9a02b28330a8efca5219061adf2e9e0de2d919cc786faeb5fcdfe793acbce837a7feed6c2018e74d4cd4b770e07254fc1e0307bdd4eb540d7363faa5a3e196b7e873ed6a35e31c81db0ed2ce750123eba4625acee7754b02a2fc00e828f31286cc66555ee002de3efa24d3ef8b37f9ac5d934c746c350b054f57b848de4ded2140697705cff665b86a3aabad575b57ce3618ed077eda3e3777ac35fb1e8442fadb2a2128b4b5d10d83365f596f074b248d8e72b3c120a741092554ebaf6bbc393d30a2d782bbf09d389692b759fe424fcac2734330bcf6f1c5c0ebefa94b53fed1ea00266a4bbeff68329c8ffd87a65e58727aeff4e6adf30813c9dc30fe28831c5f36c90e4f3d6915c4f24fe5711421646f7ca95d080c07ba09114644d2690efef2ead21b19465bf61d22f75bd7235f0de8cc9a4a76c965826ce9e95688b53c52e677d812651fbc3867c72df748702e60856d29498268ee0e7dee276e62fb576740c519e956ab3acc9c3a697064b2a69b7b12b1e6299d6d4192f0075f3f0bbd02d849b60cd0653ac1a7249e8c31c48f201ae776c8a639b73c6451e6f5c154a68a367c0997a6dd3a6e24c4edc2765ada936f63f73ba8400def886a5f8c92f1685603569d6be1cee9f48574945b54a5afcd4bd4f62578a303d256c5c1783801b1d04de7b96ccd965f5c1f5da4503e1ba8a040f6454bbb20e2aa591d5d50ab9f9a81645595fa6d6258f5d934ac327395b3f77f6555737c2da7e3530286c13e7accc9202822e16bc07c598f5b7ecae786d7d0bba1c7c53dc2387cc075191083d85704de28c9bcf6dbd150e5a860eb24a89928738be5ee54986fc75c417289792755a45a5fd4f597329b07ede82109326a82e30a92c02b52c34065ecdcf23450a37a30440b12a5c9593c1ea484fdaf3e24a222a8823ab7b9cb151d95b979a430b5bb26ba5d386e05f4a36d914a7c459ce15dceb9c6b46fef68d97d2fbc628c1d58e536a51a926838c56625347c8929a2cb3993234bc72d181fb71bf0c2eaa567827113b76a52159c210d129d5c1039c7379d9c7380623f0a3fb349e1ac05136373d381981a6a7a1e0cf0c79d3fb292d5477325b3f15d9b0d07b218a0fbb81d34352524abf436b5343df436e0ce7b81f65f634cf17f44c95eb54c609e2e1bef8f1af00ffba626ddc78374744fe2ea798ee43075708d12189885f50a790e6aaa5f739ebd45d11574e3e1dc5b28986ef9759ba4644fd5328188d96db635c171cf8b3a732c077933cfe97e0debddf2600f16361c799670b7a2783c26982a09a0626fb61a38199ea6b40746b2d33188e840ef172a82bca8891202e2b77ee0f888e374a9cd052ac2e28a749bcb091f1929cedf78fbb8e70f6f758812a03952c6741ad122dfff9bfda87a68f3fe57da9d68aa52d03a1b81888574827b780835c322a39fc9650f6b24bc99c85f77a44b1f03e1438a13911a1abc3afd938544c533a98113c846bc4f0289d1e9e234a60453b75b16da2422e7d55bdff0b5350e18ad3fda6a3a277f035cc9331d1bffed69660df52bc171d063a52c358f5eada326bc257b2c04911d21112f945d45e698f8d5ff08af051a8b487622808b7f41ed0995bb1bf4094931e88157744cc02957e381e50c0380caf4f3fc6f4a895e7e7839eda2a5c5ac1ab9f8503592be22c714603a3e2564b7b9f8a47d70a80a7815fb1b9fae8bf2853be7ddfa05ba0017e85cf8133b9ee19a91f2e4bb18bd2dd682cd6cbdf52adbf8a036366e3e5dca678c9421b93b1472080e6552f9feff4739bd2c97a4331b7520c7e15d7f657b258a333ef8c028e268622c9acdbfba2400542cf07b5b2b575c644d4dea898188c1f892e70ed57a1b8ac9e641e46f12b98a82aeb03018f19144b74341eb43976535882710f027e8d5f96ae2790593757050d4fb36394182a04035f0896074538b972467e942731cdb4d38071674b8e5ba2d47fd755bda974541bcf80718b35d2c02b7751c1ba3acd36fe573aa74bdb1c4ce91fd8a282a32a43f5433e26ea60f1517182a34383d484f596365848f9396a3acc7c9cddadde4e7ed02081b394248555c8386a0dbe1ec0d132e3f515b6267839aa2aaafc6cd0d112f38516578aec4c6c9dfe1f3000000000000000000001b29384601fd210500fb49bc9922e3356b59f3c4d7022eaa99626b866f880e721f9907ac956219965d9ca20c09b8a67e3033bf75f7ad52b81505d96a1385ca362de670ef468c5beddbc676ee8399543df163095bf6718f550e894e2d6304bea36a5cf31b840ddcae28c205f3cf4a36652c9cd95f91db9da823660421340fd4b136ba81c6f8ba806c47a6e5de7e744182732b664e6c415e3ad6c473c8a9deee4578701b2d0ed0c39843554e7a5f1ea1965f3bb42bb1acf73a6b8d8ea39c3cbebec05c84d95b9cb50a2067e043438030900d70979e1a6c98af0a72568b81afed9249074b8a22e809d21f6d4835601258b47bffce3c5a3f13879e6de9949ff49f5704290805d3cb3765e7ed1caaa3c5905b43f18f461fb79ae2e896793b565c7fea2051a7b149c34e1e2df9d9479e0140a1a53f6bd3c272979418d5bbcbffe60b056bf3fcdee68dd28f3540cf2305a11fe6fa4cd280b657a85126d30a278485015a945f3cce42ef93bee4d358d5d9fcb52e5dd4589e17f400b464c1d811a8435dee0eac09974d3bd2d4dae35939f9a87c3121c4be874de38ecb55d149da2809664e47694b86ff33cc4ae113fd482d2333507bcd542bfa0e555912a6bb34705a1713f7e11936810478e620a9a1fae2094ff93a207936153c09d9175695171ecbccdcb236551fafe79f864d65abffa481a94f0793542721d3490fc70de4ecb508ec02e349c3081a1b783c9f63a512a7b1929709ac3c467e3a4e69cd6922631dcfccbbf0ef8929e7fe2670a1afb41d0de61b06cd576a42f029f0edf068d24c35d93e136e6303cccb1cea965184e7fff63b6f0cd2797022ad959899993c977e748a8f281963d3d77be9b4308573d2338f6a0635c426a5fb2b167bd47fae2f6657eb69ba0d7c2faeb8e207335716cce347d036bde99b7538ace565db1e07c7441fbcf64a652f13966eca9e72438211512497968265166911fa0aba882f184db80964c9e057a4731d82a4a2b77395fabd4af752032a2308c97a4efe43d23f75e9cc348a787cd394202fc97f5adbb426b03ec6f1d839c0e269dc51b6f9fdb0c1b878008b39d4402fe5dcb5738dcc3dc8f07915ee6d83687025fe69a874cb92df3647235d03a491dd0b43fe370ffdfe6ab60b401bd63bb72d84587911a454cee033c62fee509f602c4964a91b2313ff42be6aae6d01773812c96698bdc9041e388582c46499ff66c1efbe806e4c851cfa2f3681c7482c139330008a0ff26dda6a065a3fcbce497293340df91910cacffc0a955933454a97237af2933ff3f56fe289ac56905a390733cc4bef3c2b8a9aefcca268de336d82c7bf4be73f0e22e2881004956073bd8b1c22d6b568dd3dc49d189b6b10b5587f4e3415c12407c7303b0b434f9eabf3ec0661c1d270393fb5156b39fa76f648c0829d67cd26e6ccf797bdf51ac526108ada436fde475638e20febdb5643018809f1edfe9401a522d0b37de2c894d4b3759bfe1281fe6c0f27ec00facec498ba0749c278af4a316286de399ea0abf793d9d757f6b096c4945fdad70113a2c0fa620cdcf463929b3f047fae39e0174a43b870149dd9740842a33b0209af72496fcae8d4abad69a84a4760100dd2d2039992965e8e23ee83f8d74befbb12b9915274c0316715152f81f29677ecb5da1022dde9860a6594a696c309e81a38297a610d5eae7ae7f8223bc0421d1108ae59ccc90d6404956666462e9bd07120c9747e5d000f568b5765562e2a3b171ea169962496e979f379c131ea7eefd4f948b51bd0431214de67b435442f82eb059e5c95e8707ee2cec66a184d35f5d274127dc81bee2c38c0b75c673c694a56e7d55b4126ac0397bd76e10376000000",
  "txid": "0a71cad9e0dffbe798748f60b411a6d05e1cb4e81e75e9498c622d9c95a5b942",
  "hash": "1edb3a5ffb7f0c7f004cfd7b6201fefc4f9d7e2176a25a30ae9d7bd0e3af097e",
  "size": 5085,
  "vsize": 2278,
  "version": 1,
  "locktime": 118,
  "vin": [
    {
      "txid": "04c9d4a27f6df7dcc3f49ffd15a4ecf34bf5318f646696b60a65c0bfc04bd153",
      "vout": 1,
      "scriptSig": {
        "asm": "",
        "hex": ""
      },
      "txinwitness": [
        "58d5566d45d0cc55010743dbc28ec7836a7ae5b225dbc68645f5e26507b158865668116272efb2b222090acc6550af0ad1a026fc691673c9174c8bb39897b72bb69a545f7fc0be237493e82a13ba6f6a67974764ebf080581b546ec9483b0ca7b1aae4468c1acb2bfec45166cfd9d84a25a299f25a3cacd9045f743cd88afaefd008c2027ab62d2ec9902106ae89a5772519d2c353efdebfd094f43f63d8c23f19e7578f93fc015574be8025265ea718d994969511b07b79e282a6164ef8851e151c1a8a009af4db6b741b1e5efc7032ef33cdb9a6977f8333b41faa3f6dcb809f324e42074faa822f47e13ba8b313c2535769767e1e14ddafedb2abafd5c286d3036050ad8653091b249cdb0fc6be4586c60002e78b10f465344a369a2955a0e33b72c730a0fce200c15dc8dff61381b0118be6e0e07395264f1d1bd08f982b487085b75ae008626bd909afe90a9b652084f1c46013452a5f23f8b12ee18ffc35bed7bbf83a23b51d341df4dcd545d79b0ea1230a33d410b1284f7888cf7d056cc6611089e7f843841e3fffc18e5f0da6776e28a06df78f0c0b958e2fcbb998430a56615e8cd2aa19bfcadee9b1a284abcee492417ca65c6a2853549bdff6a0d93479366edf9e4a13a8781f8af148885e82efe01e580900eb7897cc5a1d052071d07d0817a94b148e6d216210fd137823bf02139c5644c6261bcc81a6e69ea35daf1706441d40528f41ce645e6e908fc9a3e001fdaf70951e65c81d9b81062c9e8310329e6270430789d761cd5145df97943c60ca61b5fe5dc4517da7469931fa4b690323c51a121e995ec6a1e597cbd6a33a476d91280ef1fa01a7fc61e9af089aa196ac757cf57b7724a15c5c3775082d927896a86113db9f130e974b1b1cb13933be78d2df3deb7f973fc5a482407a58f8fa40311c76c64966deaa01254a3373f991556ed3b4d24a29f3b104a9ce3be769a0d885412b19ef578bf244c769982d23d4bb0ecd2ba79b6540209e118964fdc8178ecf6486174385a6e2042fdfe25b87bc9075c40e6202f49fdbd8c12a2e48fff71b183e81d97d523b1b0fd8e889e43d46d435c8a90fde85bc50959560d8e881e11ccf97abba2d43fca264f17731982e9961b6af21be436d29338ad61e8f24d9957cfbdf0a7864affbf03b2c9f5520e35dfad4d4a1e5a766c3294ff050c9c6020813028ccc7efd1bcb8326095846c1ea3bd9550d04d44864c2b9bf4f8c1750ea52e119e2c332d166596f9a02b28330a8efca5219061adf2e9e0de2d919cc786faeb5fcdfe793acbce837a7feed6c2018e74d4cd4b770e07254fc1e0307bdd4eb540d7363faa5a3e196b7e873ed6a35e31c81db0ed2ce750123eba4625acee7754b02a2fc00e828f31286cc66555ee002de3efa24d3ef8b37f9ac5d934c746c350b054f57b848de4ded2140697705cff665b86a3aabad575b57ce3618ed077eda3e3777ac35fb1e8442fadb2a2128b4b5d10d83365f596f074b248d8e72b3c120a741092554ebaf6bbc393d30a2d782bbf09d389692b759fe424fcac2734330bcf6f1c5c0ebefa94b53fed1ea00266a4bbeff68329c8ffd87a65e58727aeff4e6adf30813c9dc30fe28831c5f36c90e4f3d6915c4f24fe5711421646f7ca95d080c07ba09114644d2690efef2ead21b19465bf61d22f75bd7235f0de8cc9a4a76c965826ce9e95688b53c52e677d812651fbc3867c72df748702e60856d29498268ee0e7dee276e62fb576740c519e956ab3acc9c3a697064b2a69b7b12b1e6299d6d4192f0075f3f0bbd02d849b60cd0653ac1a7249e8c31c48f201ae776c8a639b73c6451e6f5c154a68a367c0997a6dd3a6e24c4edc2765ada936f63f73ba8400def886a5f8c92f1685603569d6be1cee9f48574945b54a5afcd4bd4f62578a303d256c5c1783801b1d04de7b96ccd965f5c1f5da4503e1ba8a040f6454bbb20e2aa591d5d50ab9f9a81645595fa6d6258f5d934ac327395b3f77f6555737c2da7e3530286c13e7accc9202822e16bc07c598f5b7ecae786d7d0bba1c7c53dc2387cc075191083d85704de28c9bcf6dbd150e5a860eb24a89928738be5ee54986fc75c417289792755a45a5fd4f597329b07ede82109326a82e30a92c02b52c34065ecdcf23450a37a30440b12a5c9593c1ea484fdaf3e24a222a8823ab7b9cb151d95b979a430b5bb26ba5d386e05f4a36d914a7c459ce15dceb9c6b46fef68d97d2fbc628c1d58e536a51a926838c56625347c8929a2cb3993234bc72d181fb71bf0c2eaa567827113b76a52159c210d129d5c1039c7379d9c7380623f0a3fb349e1ac05136373d381981a6a7a1e0cf0c79d3fb292d5477325b3f15d9b0d07b218a0fbb81d34352524abf436b5343df436e0ce7b81f65f634cf17f44c95eb54c609e2e1bef8f1af00ffba626ddc78374744fe2ea798ee43075708d12189885f50a790e6aaa5f739ebd45d11574e3e1dc5b28986ef9759ba4644fd5328188d96db635c171cf8b3a732c077933cfe97e0debddf2600f16361c799670b7a2783c26982a09a0626fb61a38199ea6b40746b2d33188e840ef172a82bca8891202e2b77ee0f888e374a9cd052ac2e28a749bcb091f1929cedf78fbb8e70f6f758812a03952c6741ad122dfff9bfda87a68f3fe57da9d68aa52d03a1b81888574827b780835c322a39fc9650f6b24bc99c85f77a44b1f03e1438a13911a1abc3afd938544c533a98113c846bc4f0289d1e9e234a60453b75b16da2422e7d55bdff0b5350e18ad3fda6a3a277f035cc9331d1bffed69660df52bc171d063a52c358f5eada326bc257b2c04911d21112f945d45e698f8d5ff08af051a8b487622808b7f41ed0995bb1bf4094931e88157744cc02957e381e50c0380caf4f3fc6f4a895e7e7839eda2a5c5ac1ab9f8503592be22c714603a3e2564b7b9f8a47d70a80a7815fb1b9fae8bf2853be7ddfa05ba0017e85cf8133b9ee19a91f2e4bb18bd2dd682cd6cbdf52adbf8a036366e3e5dca678c9421b93b1472080e6552f9feff4739bd2c97a4331b7520c7e15d7f657b258a333ef8c028e268622c9acdbfba2400542cf07b5b2b575c644d4dea898188c1f892e70ed57a1b8ac9e641e46f12b98a82aeb03018f19144b74341eb43976535882710f027e8d5f96ae2790593757050d4fb36394182a04035f0896074538b972467e942731cdb4d38071674b8e5ba2d47fd755bda974541bcf80718b35d2c02b7751c1ba3acd36fe573aa74bdb1c4ce91fd8a282a32a43f5433e26ea60f1517182a34383d484f596365848f9396a3acc7c9cddadde4e7ed02081b394248555c8386a0dbe1ec0d132e3f515b6267839aa2aaafc6cd0d112f38516578aec4c6c9dfe1f3000000000000000000001b29384601",
        "00fb49bc9922e3356b59f3c4d7022eaa99626b866f880e721f9907ac956219965d9ca20c09b8a67e3033bf75f7ad52b81505d96a1385ca362de670ef468c5beddbc676ee8399543df163095bf6718f550e894e2d6304bea36a5cf31b840ddcae28c205f3cf4a36652c9cd95f91db9da823660421340fd4b136ba81c6f8ba806c47a6e5de7e744182732b664e6c415e3ad6c473c8a9deee4578701b2d0ed0c39843554e7a5f1ea1965f3bb42bb1acf73a6b8d8ea39c3cbebec05c84d95b9cb50a2067e043438030900d70979e1a6c98af0a72568b81afed9249074b8a22e809d21f6d4835601258b47bffce3c5a3f13879e6de9949ff49f5704290805d3cb3765e7ed1caaa3c5905b43f18f461fb79ae2e896793b565c7fea2051a7b149c34e1e2df9d9479e0140a1a53f6bd3c272979418d5bbcbffe60b056bf3fcdee68dd28f3540cf2305a11fe6fa4cd280b657a85126d30a278485015a945f3cce42ef93bee4d358d5d9fcb52e5dd4589e17f400b464c1d811a8435dee0eac09974d3bd2d4dae35939f9a87c3121c4be874de38ecb55d149da2809664e47694b86ff33cc4ae113fd482d2333507bcd542bfa0e555912a6bb34705a1713f7e11936810478e620a9a1fae2094ff93a207936153c09d9175695171ecbccdcb236551fafe79f864d65abffa481a94f0793542721d3490fc70de4ecb508ec02e349c3081a1b783c9f63a512a7b1929709ac3c467e3a4e69cd6922631dcfccbbf0ef8929e7fe2670a1afb41d0de61b06cd576a42f029f0edf068d24c35d93e136e6303cccb1cea965184e7fff63b6f0cd2797022ad959899993c977e748a8f281963d3d77be9b4308573d2338f6a0635c426a5fb2b167bd47fae2f6657eb69ba0d7c2faeb8e207335716cce347d036bde99b7538ace565db1e07c7441fbcf64a652f13966eca9e72438211512497968265166911fa0aba882f184db80964c9e057a4731d82a4a2b77395fabd4af752032a2308c97a4efe43d23f75e9cc348a787cd394202fc97f5adbb426b03ec6f1d839c0e269dc51b6f9fdb0c1b878008b39d4402fe5dcb5738dcc3dc8f07915ee6d83687025fe69a874cb92df3647235d03a491dd0b43fe370ffdfe6ab60b401bd63bb72d84587911a454cee033c62fee509f602c4964a91b2313ff42be6aae6d01773812c96698bdc9041e388582c46499ff66c1efbe806e4c851cfa2f3681c7482c139330008a0ff26dda6a065a3fcbce497293340df91910cacffc0a955933454a97237af2933ff3f56fe289ac56905a390733cc4bef3c2b8a9aefcca268de336d82c7bf4be73f0e22e2881004956073bd8b1c22d6b568dd3dc49d189b6b10b5587f4e3415c12407c7303b0b434f9eabf3ec0661c1d270393fb5156b39fa76f648c0829d67cd26e6ccf797bdf51ac526108ada436fde475638e20febdb5643018809f1edfe9401a522d0b37de2c894d4b3759bfe1281fe6c0f27ec00facec498ba0749c278af4a316286de399ea0abf793d9d757f6b096c4945fdad70113a2c0fa620cdcf463929b3f047fae39e0174a43b870149dd9740842a33b0209af72496fcae8d4abad69a84a4760100dd2d2039992965e8e23ee83f8d74befbb12b9915274c0316715152f81f29677ecb5da1022dde9860a6594a696c309e81a38297a610d5eae7ae7f8223bc0421d1108ae59ccc90d6404956666462e9bd07120c9747e5d000f568b5765562e2a3b171ea169962496e979f379c131ea7eefd4f948b51bd0431214de67b435442f82eb059e5c95e8707ee2cec66a184d35f5d274127dc81bee2c38c0b75c673c694a56e7d55b4126ac0397bd76e103"
      ],
      "sequence": 4294967294
    }
  ],
  "vout": [
    {
      "value": 499978.6451,
      "n": 0,
      "scriptPubKey": {
        "asm": "1 4d3038bea9ba16f6f01e8aecf194f303deb4ff1762bb91e746aa5a25d2587d95",
        "hex": "51204d3038bea9ba16f6f01e8aecf194f303deb4ff1762bb91e746aa5a25d2587d95",
        "reqSigs": 1,
        "type": "witness_v1_scripthash",
        "addresses": [
          "3QJmnh"
        ]
      }
    },
    {
      "value": 1.0,
      "n": 1,
      "scriptPubKey": {
        "asm": "OP_RETURN 7fedbdbaa94c29400dd00750b2e0461fdc160ae66af30cd681419259a6a6d17b d78c1d8b4e0ffd9d168959f42919fb37d1a6a78abcabecc11b0792a32a584450f7ac3dab6e2fddbd36a979d40939db17f18687aa9c8bcce13b27b2830a78647097cc5dcb0e4fbddd56c919b46959bb7791e6e7cafcebac815b47d2e36a180410b7ec7deb2e6f9dfd76e9399449799b57b1c6c7eadccb8ca17b67f2c34a382430570c9d0bce8f7d1d9609d974a9997bb75126270a3c2b6c419b871223aad8c4d0772cbd2beeaf5d3db629f95489b95b977106072a1c0b4c61bba732038af8e4f0174cdd4b8ecf3d5dd6499934e9d93bf71166674a7c6b2c01dbc75263ea988490376cfd6baeef1d7df669b914c9f91bd73146476a5c4b0c21fbe77243cab8a4b0d78c1d8b4e0ffd9d168959f42919fb37d1a6a78abcabecc11b0792a32a584450f7ac3dab6e2fddbd36a979d40939db17f18687aa9c8bcce13b27b2830a78647097cc5dcb0e4fbddd56c919b46959bb7791e6e7cafcebac815b47d2e36a180410b7ec7deb2e6f9dfd76e9399449799b57b1c6c7eadccb8ca17b67f2c34a382430570c9d0bce8f7d1d9609d974a9997bb75126270a3c2b6c419b871223aad8c4d0772cbd2beeaf5d3db629f95489b95b977106072a1c0b4c61bba732038af8e4f0174cdd4b8ecf3d5dd6499934e9d93bf71166674a7c6b2c01dbc75263ea988490376cfd6baeef1d7df669b914c9f91bd73146476a5c4b0c21fbe77243cab8a4b0d78c1d8b4e0ffd9d168959f42919fb37d1a6a78abcabecc11b0792a32a584450f7ac3dab6e2fddbd36a979d40939db17f18687aa9c8bcce13b27b2830a78647097cc5dcb0e4fbddd56c919b46959bb7791e6e7cafcebac815b47d2e36a180410b7ec7deb2e6f9dfd76e9399449799b57b1c6c7eadccb8ca17b67f2c34a382430570c9d0bce8f7d1d9609d974a9997bb75126270a3c2b6c419b871223aad8c4d0772cbd2beeaf5d3db629f95489b95b977106072a1c0b4c61bba732038af8e4f0174cdd4b8ecf3d5dd6499934e9d93bf71166674a7c6b2c01dbc75263ea988490376cfd6baeef1d7df669b914c9f91bd73146476a5c4b0c21fbe77243cab8a4b0d78c1d8b4e0ffd9d168959f42919fb37d1a6a78abcabecc11b0792a32a584450f7ac3dab6e2fddbd36a979d40939db17f18687aa9c8bcce13b27b2830a78647097cc5dcb0e4fbddd56c919b46959bb7791e6e7cafcebac815b47d2e36a180410b7ec7deb2e6f9dfd76e9399449799b57b1c6c7eadccb8ca17b67f2c34a382430570c9d0bce8f7d1d9609d974a9997bb75126270a3c2b6c419b871223aad8c4d0772cbd2beeaf5d3db629f95489b95b977106072a1c0b4c61bba732038af8e4f0174cdd4b8ecf3d5dd6499934e9d93bf71166674a7c6b2c01dbc75263ea988490376cfd6baeef1d7df669b914c9f91bd73146476a5c4b0c21fbe77243cab8a4b0d78c1d8b4e0ffd9d168959f42919fb37d1a6a78abcabecc11b0792a32a584450f7ac3dab6e2fddbd36a979d40939db17f18687aa9c8bcce13b27b2830a78647097cc5dcb0e4fbddd56c919b46959bb7791e6e7cafcebac815b47d2e36a180410b7ec7deb2e6f9dfd76e9399449799b57b1c6c7eadccb8ca17b67f2c34a382430570c9d0bce8f7d1d9609d974a9997bb73b88fcc9b00ee216d4e325ad984edccb977e07a2c2a4c69a31d3883680b3c146",
        "hex": "6a207fedbdbaa94c29400dd00750b2e0461fdc160ae66af30cd681419259a6a6d17b4db004d78c1d8b4e0ffd9d168959f42919fb37d1a6a78abcabecc11b0792a32a584450f7ac3dab6e2fddbd36a979d40939db17f18687aa9c8bcce13b27b2830a78647097cc5dcb0e4fbddd56c919b46959bb7791e6e7cafcebac815b47d2e36a180410b7ec7deb2e6f9dfd76e9399449799b57b1c6c7eadccb8ca17b67f2c34a382430570c9d0bce8f7d1d9609d974a9997bb75126270a3c2b6c419b871223aad8c4d0772cbd2beeaf5d3db629f95489b95b977106072a1c0b4c61bba732038af8e4f0174cdd4b8ecf3d5dd6499934e9d93bf71166674a7c6b2c01dbc75263ea988490376cfd6baeef1d7df669b914c9f91bd73146476a5c4b0c21fbe77243cab8a4b0d78c1d8b4e0ffd9d168959f42919fb37d1a6a78abcabecc11b0792a32a584450f7ac3dab6e2fddbd36a979d40939db17f18687aa9c8bcce13b27b2830a78647097cc5dcb0e4fbddd56c919b46959bb7791e6e7cafcebac815b47d2e36a180410b7ec7deb2e6f9dfd76e9399449799b57b1c6c7eadccb8ca17b67f2c34a382430570c9d0bce8f7d1d9609d974a9997bb75126270a3c2b6c419b871223aad8c4d0772cbd2beeaf5d3db629f95489b95b977106072a1c0b4c61bba732038af8e4f0174cdd4b8ecf3d5dd6499934e9d93bf71166674a7c6b2c01dbc75263ea988490376cfd6baeef1d7df669b914c9f91bd73146476a5c4b0c21fbe77243cab8a4b0d78c1d8b4e0ffd9d168959f42919fb37d1a6a78abcabecc11b0792a32a584450f7ac3dab6e2fddbd36a979d40939db17f18687aa9c8bcce13b27b2830a78647097cc5dcb0e4fbddd56c919b46959bb7791e6e7cafcebac815b47d2e36a180410b7ec7deb2e6f9dfd76e9399449799b57b1c6c7eadccb8ca17b67f2c34a382430570c9d0bce8f7d1d9609d974a9997bb75126270a3c2b6c419b871223aad8c4d0772cbd2beeaf5d3db629f95489b95b977106072a1c0b4c61bba732038af8e4f0174cdd4b8ecf3d5dd6499934e9d93bf71166674a7c6b2c01dbc75263ea988490376cfd6baeef1d7df669b914c9f91bd73146476a5c4b0c21fbe77243cab8a4b0d78c1d8b4e0ffd9d168959f42919fb37d1a6a78abcabecc11b0792a32a584450f7ac3dab6e2fddbd36a979d40939db17f18687aa9c8bcce13b27b2830a78647097cc5dcb0e4fbddd56c919b46959bb7791e6e7cafcebac815b47d2e36a180410b7ec7deb2e6f9dfd76e9399449799b57b1c6c7eadccb8ca17b67f2c34a382430570c9d0bce8f7d1d9609d974a9997bb75126270a3c2b6c419b871223aad8c4d0772cbd2beeaf5d3db629f95489b95b977106072a1c0b4c61bba732038af8e4f0174cdd4b8ecf3d5dd6499934e9d93bf71166674a7c6b2c01dbc75263ea988490376cfd6baeef1d7df669b914c9f91bd73146476a5c4b0c21fbe77243cab8a4b0d78c1d8b4e0ffd9d168959f42919fb37d1a6a78abcabecc11b0792a32a584450f7ac3dab6e2fddbd36a979d40939db17f18687aa9c8bcce13b27b2830a78647097cc5dcb0e4fbddd56c919b46959bb7791e6e7cafcebac815b47d2e36a180410b7ec7deb2e6f9dfd76e9399449799b57b1c6c7eadccb8ca17b67f2c34a382430570c9d0bce8f7d1d9609d974a9997bb73b88fcc9b00ee216d4e325ad984edccb977e07a2c2a4c69a31d3883680b3c146",
        "type": "nulldata"
      }
    }
  ],
  "blockhash": "c592ff09702ccc153ea7e0356b0e5a10b37ebf9436b5bd4870b29e5d1c636d36",
  "confirmations": 1,
  "time": 1764179615,
  "blocktime": 1764179615
}