{
  "hex": "01000000000101ca46d92218ba91371872be78c4dca8f90d00d3eafb0da8e1c6648e14b5246cda0000000000feffffff0200e1f50500000000fdd5046a20bc72e14fa15a164334571cc600ad33f695666ba9fd911c13bf78983fcc814ecf4db004b6ee7b9f4790d931b7dc9f797031414903d4a9655c9211b46a1e25a57ec2d8a696ce5bbf67b0f91197fcbf595011616923f489457cb231944a3e05855ee2f886f6ae3bdf07d09971f79cdf39307101094394e9251cd251f42a5e65e53e8298e6d68e1bff27f0b951d7bcff191051212963b4c9053cf271d40a7e45c51ea2b8c6366efb1fc71059b1375c1ff9f0b1c1c9835429e5dc129134ea9ea525fe425826164edb3fe7307991177c3fd9d091e1e9a37409c5fc32b114cabe8505de627806762ebb5f875019f1771c5fb9b0f18189c31469a59c52d174aadee565be021866560e9b7fa77039d1573c7f9990d1a1a9e3344985bc72f1548afec5459e223846b6ee7b9f4790d931b7dc9f797031414903d4a9655c9211b46a1e25a57ec2d8a696ce5bbf67b0f91197fcbf595011616923f489457cb231944a3e05855ee2f886f6ae3bdf07d09971f79cdf39307101094394e9251cd251f42a5e65e53e8298e6d68e1bff27f0b951d7bcff191051212963b4c9053cf271d40a7e45c51ea2b8c6366efb1fc71059b1375c1ff9f0b1c1c9835429e5dc129134ea9ea525fe425826164edb3fe7307991177c3fd9d091e1e9a37409c5fc32b114cabe8505de627806762ebb5f875019f1771c5fb9b0f18189c31469a59c52d174aadee565be021866560e9b7fa77039d1573c7f9990d1a1a9e3344985bc72f1548afec5459e223846b6ee7b9f4790d931b7dc9f797031414903d4a9655c9211b46a1e25a57ec2d8a696ce5bbf67b0f91197fcbf595011616923f489457cb231944a3e05855ee2f886f6ae3bdf07d09971f79cdf39307101094394e9251cd251f42a5e65e53e8298e6d68e1bff27f0b951d7bcff191051212963b4c9053cf271d40a7e45c51ea2b8c6366efb1fc71059b1375c1ff9f0b1c1c9835429e5dc129134ea9ea525fe425826164edb3fe7307991177c3fd9d091e1e9a37409c5fc32b114cabe8505de627806762ebb5f875019f1771c5fb9b0f18189c31469a59c52d174aadee565be021866560e9b7fa77039d1573c7f9990d1a1a9e3344985bc72f1548afec5459e223846b6ee7b9f4790d931b7dc9f797031414903d4a9655c9211b46a1e25a57ec2d8a696ce5bbf67b0f91197fcbf595011616923f489457cb231944a3e05855ee2f886f6ae3bdf07d09971f79cdf39307101094394e9251cd251f42a5e65e53e8298e6d68e1bff27f0b951d7bcff191051212963b4c9053cf271d40a7e45c51ea2b8c6366efb1fc71059b1375c1ff9f0b1c1c9835429e5dc129134ea9ea525fe425826164edb3fe7307991177c3fd9d091e1e9a37409c5fc32b114cabe8505de627806762ebb5f875019f1771c5fb9b0f18189c31469a59c52d174aadee565be021866560e9b7fa77039d1573c7f9990d1a1a9e3344985bc72f1548afec5459e223846b6ee7b9f4790d931b7dc9f797031414903d4a9655c9211b46a1e25a57ec2d8a696ce5bbf67b0f91197fcbf595011616923f489457cb231944a3e05855ee2f886f6ae3bdf07d09971f79cdf39307101094394e9251cd251f42a5e65e53e8298e6d68e1bff27f0b951d7bcff191051212963b4c9053cf271d40a7e45c51ea2b8c6366efb1fc71059b1375c1ff9f0b1c1c9f0e89cb11e42214b1db2a9e5183565bfd09119e4c3b25bdec031107e57ca24eaf077b5f0782d00002251204117199a8b078de7367dbcace069198b9bdfc559c6f4a1a98a248f3b4d58dd9a02fd750957f66a0f25a62104835f7e6bcb91011bed5869b0b8edd2926b8427213ccee500462c5c6c5ea91a37a78e760d80af38f66b8b40658b9a817d30e24f0407578266da4f93c9d17ade07774722c1d193ad9068167bc16013707fa18400f177d3a5c5b1c268cf00c738cf1a9809070abcebb70634ea64ecbacfa235849fe3109eb29364a910adb1d87af8e4d90b4be232983d70c747595b71458198342631cf4f60476902a51ed9018cf9d29f16fabcb3c413b9af8df5a32ce644b7eea94febd106e1c75ee2eb91518cb7021370e8eeed24d08984055b3a062dc5526a8882e897387c9300c755ea07430be157b2f87f84bb61c1ace55bf3cf1ffeae62ba6a5ca3fced6654184d62cd9e4da57d78e7959f6e867571e710d82407d797ee62b1b29c534c7165e2113260de8416e251164a30913a8127e842132f17f9ef1b5ff52ebb0ffb829e7b31bb3820a080d121f7c6e0a651c98be8d28d51aa834984132433149d9784507848af0e312f63301df13175c3df1e9fd40d7b6afd2c31b29d9d8b8be6fd8cc365e44390059d087b09ad734d9fc31e853eea010e4b8b3e6f75eae27f3e74831bdcf4a4d577c92dd57035590adb59555d05128ffebe99de7a5017a4d4d7adf058e9d6fe0dae4218e4605c4572fde9bc68e2dfb1a44daca08e8daa6f33a80d2ce66e5b8f8d14d214f0ba1dd7f74d02175580ee77d25841abd26fbe3e26bbcac6a5eddb04ad89be464c0ca844f284dd37b9d08277f3c9d10d0f77238ffe21d077dae139108d6fac8c84fc1a2b5ecbff3834a83e04a6c4c50dc02723c8f6ab84e7aff96d329ad8358c5e32df7bad58b513b65c79b9ea00276021c695ad43319f04d3ce840a6aa65f6b5006488ba3f1ae6900b27f6d8b8d19e944f12aacdb029458bd9be14dd69eab15cf4422873dbd76d63b0e17b8e897ce015345f2e61a5b9922f6b8f67c69ba85a0858236682865f70f3c4112d7795e22cd3b686315672e4a28cb80ede3d7821de966fa3c276842a94ea6c851f7d369966be3210c600ad722f0ea0f83a6fc90545ca68898356c7b2c90b1960cbe1f80679353331d3182ebcb6b900a1bb55f1b5b5f236badbf011196f7533e6bb8e48db798e0028d5a8c6a600d860e76ff3635aaa89b632dd7825c77dc01347eace89b6b5dc1b2dea5bf7bda9e69185e2c895d87b2186c5d714758cb928b020d2fa13d9c09a42b10cd432e8e64c8c2f7bb38905a05e943fc74c5b27d5cd94b51f02a972b9dd49ae622c68641b769a81d1d9b68fd277ba37a043f96d6b5b024cbdd9db2db8908ba71024346ae185ad376f4b3745f3fe1668f82ff9202c29dc2527d6913a5ef8e31e81a6427b853e814593363c2725c14dd16c79f1951661413d7a117126e54e6e2586961b0f2a83b14c7f6758a5885e18d41d2a1821652a3c70b08fe1b41f1b2a3ed31e08fe5e407e9f74ca30a611821ad1705e7901e4bd07a08679aaec101d0885863b7cee10b702514db616191aa161415a006cf49d6f5185f70ff2499951c537d451c8dcf71818ad6ea0ae48a83cfb30949dd4316a7c7a68dea19843e878bda25d3621a0b2f64cf438d4c23294a475ebb55f4d1a856449838247f30d1bd9e6125fce36be332a54ebd3ac6581bc9aaeb2366e16b58a2c44da7cb151d14e374272e89ed01856ad37dcca5e2107936a2818c9d9a289d97f37800fbc1e834a0516f57c7cafdfd32cdd1c5850bcc3a090475c01572fa3be78f2b14a5ed273990359082c265295b42dc9789eb2d9cb5825d2f2804542f23c1906222b7550d4e0c6f8e44f461bdb68ad027bf07b245e6c8a36c76b07819101e672bed9c20d9312103ea0d2834050f1cc4a6c47ef612e7893d759b360370fbc95f2586a1407fa0b72bceaac6b5670425b4b7494bac666c63037dabc9576c12b964ba2fc8b6e65d0a015c5d1ca6f1c1fdc0557084dc4b74a872050bfe3997c48b81aa4d1beb47090ea12e330ab20032be759dc31b003340c3aa39306f6f51555900b41c68094a5164cc3ed9e985ff5770212764865499938adb1f182d94310e05671f2767bac817aea592bf0143782bd9e1b088692a84e1e329aff7971f214fb890a1637ba8a32b34184db5926922ce2c0e569f9b242bc2ca16011b0063234068fd1aa19b41833ed797e9bca0424749ce4c9e27ef555beb6a9658a3f5b77463ab194a4459c7dd4ee0df066e20725a6cdf9566a5622ec40f1d60102443b248cbe68914a07ca8286a6b51f82a912ce682f73f47e961cd939e9fc88800394ba2fd75139e31bf390f2c2913bfab3e3c524706a0d0513b87dd7e12b39b541fc3c468ea4a4972dc848c7bafee6514107d3a1b793e92020df5667fc9e4372553e3dcdb36327c9cd64cf41cbf52bc18406ff564ad7ff0f0d93590cf749fefee10efed9e2d2262b4a7ace8c8ab5185a97d7df185e6adb3d04bd68c522403fdb676e6c627edf3ad312d0a6327b91af08b295d89c0f9d533d92235a10e24566d743706e5f57abb58b8fc911225e09ad7423c52a8d42f06eecb31b2cd9a92e42b0c9f99c5212b356dab1c83027f30a6c9beb05e478e59bdcd9a2989b0a7e3cdd7ac0b8f6f86ddf2f0342248130d21c6f58c9adf4ceabe328f8a2874e9d4de94543cc85f5c21d32ee5ed52aacca07b50a25fa5787f3c332cd2ed7c2ef278b62d3d7e1c022e1a8f67160804486d4b2210a0fbc200107a4a10e68cdd6064d62dca19171604f64df417673c20dfa65377653e0d0609128aa644b914eb9094177f627fabcb0e8ce3829a7ea44c5b4385a750c5283786813bdc16f4e2e37d085904d250f8791420ed3ca1b136e86723da7bc8edb488025340b9401ebdaf03b2ec3f4cd23f9face769bce5ab934d613be040263b924bc87ce808019585856503dff1692c39bd734e5b54519111526dff1af4129550f1f2dacdf3814656b5120ffcb7de6e73f233a465c9c5521212fed7f823569400cdedaabf8030479907dd1949cd1f11a66be65c64e9f4a5fa595d23d2ea0d0deca08cff439d1f3ac22ce5257ea9fb326a4aee825193d433a5a750f6b0b2ad14b3af1eefe9df8e0bf95cf4b8888997d880cf4d66ae7d0e05fbb0aa41ce80159b2c9679bc8e8ab5838afa3a36afbe54bf73d7338c2a51ce2065ce1e70107cd16e539cc07c3193234b56c18426a25b0ff671250739d9cd6af55cd48a5a859e0e7fdc92c20746b96e239ae6b288f7a31dc72425cfb403172d0f645bfbb800caa44d048ae7d93cbdd3bad3c54a1c8f41cd0a6bc38d7f1c90c0f8bb8fc26a164200dc45da7c9ddf0a0e1a292b3034384b60626a6c70858a9dbfc0c9d3d5ddfe061c4f5c696c6f8c94a5a9abb9c9d6f4ff08123a3f454f5e76818289eb101c374a6d6e748a8d979dabbad0dbf3fb000000000000000000001829354601fd2105009af9fc890b8a8c9cfc6dfdb1c7190d65023fe23cce6fc3fb8d33a9c542b84f010c870af79776abeef58a8e4338a229b8bf302e906297267fee63eae225a85b6c3604bbd2099aa455a5641fd96ba0d1d9d6a9fdae3cfea09352e838bd6e5ad2049aabfb36370c9e6663c2d7d22dbd1ef0d1241eb6b7ce8f22bbfa6bfc36fff0dce8c4b6be658e3576121766bea541bbc1606cd7c934be2c6bd6de1c28f1445491cd961cea70428991ac99d28939369707c3681d6cba60b815173cf68452e9754ecf303093fc7032ff20ccf1eec8e8fd4743dc9a7f9a0ee36ae5b57b50bd08a20c80ad0e937767b99ce5b4892c937e915adef585dc0eb8318acafbed023c611b2c48a49b709e7b442a1fcd53c70f152d459103a85361098d24f11d0caab1e6b3bf79446990cdf921a63af3adf0011c7f49f61a257b78110743d689f13eaf659dd41659138de0f049d9fca560ba30fe28641dec24e17a6abc06c3086aba9f1752d17c62f72b6d0dbb5b7e825997a8aee006ca427915bd3e50dd0407258fe5fd2551de03386cc96f959b0c06e63a0f02fc08e458dac1087b5ad23a5b896901066328fca596b47616e596714f1b569fefdf6ef42dbc22f68793578e5e26cc5c99eeeee4ad4fccf79f4630572496a444de6445ca9fedd283d7cacaa8a5e119c65fffa4b0fb86472ef513ff7c78b7dd5cab4a60fe7eff5ec482ea1cbf7c13adf7aac10230b74a78863c921a0692f79503883d39a5bd653cede40c1b0a47583da70b396bbad71a0e9a3dc05730bb1c521590b53c35d5940ca79eccb37851dce1600002cbd66a9e97c0f9f1d0498a0d5f8ab7ed7eda3e685405508c97c501564ed81c73ad851837bf5c8fe0ae34989cb49f14e7ffae7cd69fc59e37952efc6ec7f80eea8030e74f1b50f3e9dd2bc710fd620696c832ccc797742e32d2eb478280916e3ce28442750a1674f46b148cec9365c934bec8603af5422a683fb7275439045b5aec32b4c04f76e5aca03549e92832d087325bf046e02f8b452fe5522b2d6085d57491298fc8d689dba25cf0dea0a47098edacaca8bf7187a1c407596fd9ef1404892ffcb4006e80b8c4a5ae4879167ed3e90dc5474477467e263da44dbaa2d1d26f0c8c183ce6aff76ec7cc4018dfe45b0526d757833143fbf415ebf63c64fb169b82888d5b365844249b5361077e70293cf5fae4884fd2747c0a0da8854c24f58aa8a8d171f21c3a5db99863ba8f90358623a5b6da9c0afe4e38b833791bdd9a56cdcd5110902cadf7fb6f3751c30e3eae052ca79cda72e62556f86f0122b339e4b16504b0378e5e6b71d933c94577202a26d34a462c1600400ca3967b96e90843d96f3268a139435d8f8a2fcc1535fddf48994b1de65ab9d6d576cac60d9afd92e4a7dc323b71fbd77f52234dded8593470f71fc5291100dcda07dfbfeabe81918dc0ad388dc8393bc82ea825878286508d9e9333562bd769e6b02c3bd93c2462efeffddd820a7ed21ec1ee9e84549dfd3765129f107296eabd9a057286666f15a128c14dac5c79a3b58d7b17d6c45f2fcfaf2ad4da8fff4cdb6c83bbba24f413fc3a2a7c8c59a90f6df2e3863773f30d99950ad170aa8701d5d77c121d82ea16f7ed58bb5beb7e8a9b2de9e64caebda2235c1bd5c184f0ab4ae5e536a20a11cb62444151fc8ef6c04cab65b2199504e19f1831ba04afe0b70348c8646aa0c28c12902fd995a5e50aba37c59c1720c3521dfbf98bf15d9329fb556b923431fb86f363fbf9189b1fb81eeaaebe2c69c15d262b6a392b714133ab13c70f32a9de1df39379bb623bd9930ed7f78418e3ce57ba04134802e98f1c098c9c23f1ac7c2c7b000000",
  "txid": "07f5780473a03e0b0c934852c471d1c858c1a38c446fdfd34cd7b04ccbe80d74",
  "hash": "83e49daca31ef5eddb4256d33c06e8cc6c9959af83c2170b0c03bb1d43d25d4a",
  "size": 5085,
  "vsize": 2278,
  "version": 1,
  "locktime": 123,
  "vin": [
    {
      "txid": "da6c24b5148e64c6e1a80dfbead3000df9a8dcc478be72183791ba1822d946ca",
      "vout": 0,
      "scriptSig": {
        "asm": "",
        "hex": ""
      },
      "txinwitness": [
        "57f66a0f25a62104835f7e6bcb91011bed5869b0b8edd2926b8427213ccee500462c5c6c5ea91a37a78e760d80af38f66b8b40658b9a817d30e24f0407578266da4f93c9d17ade07774722c1d193ad9068167bc16013707fa18400f177d3a5c5b1c268cf00c738cf1a9809070abcebb70634ea64ecbacfa235849fe3109eb29364a910adb1d87af8e4d90b4be232983d70c747595b71458198342631cf4f60476902a51ed9018cf9d29f16fabcb3c413b9af8df5a32ce644b7eea94febd106e1c75ee2eb91518cb7021370e8eeed24d08984055b3a062dc5526a8882e897387c9300c755ea07430be157b2f87f84bb61c1ace55bf3cf1ffeae62ba6a5ca3fced6654184d62cd9e4da57d78e7959f6e867571e710d82407d797ee62b1b29c534c7165e2113260de8416e251164a30913a8127e842132f17f9ef1b5ff52ebb0ffb829e7b31bb3820a080d121f7c6e0a651c98be8d28d51aa834984132433149d9784507848af0e312f63301df13175c3df1e9fd40d7b6afd2c31b29d9d8b8be6fd8cc365e44390059d087b09ad734d9fc31e853eea010e4b8b3e6f75eae27f3e74831bdcf4a4d577c92dd57035590adb59555d05128ffebe99de7a5017a4d4d7adf058e9d6fe0dae4218e4605c4572fde9bc68e2dfb1a44daca08e8daa6f33a80d2ce66e5b8f8d14d214f0ba1dd7f74d02175580ee77d25841abd26fbe3e26bbcac6a5eddb04ad89be464c0ca844f284dd37b9d08277f3c9d10d0f77238ffe21d077dae139108d6fac8c84fc1a2b5ecbff3834a83e04a6c4c50dc02723c8f6ab84e7aff96d329ad8358c5e32df7bad58b513b65c79b9ea00276021c695ad43319f04d3ce840a6aa65f6b5006488ba3f1ae6900b27f6d8b8d19e944f12aacdb029458bd9be14dd69eab15cf4422873dbd76d63b0e17b8e897ce015345f2e61a5b9922f6b8f67c69ba85a0858236682865f70f3c4112d7795e22cd3b686315672e4a28cb80ede3d7821de966fa3c276842a94ea6c851f7d369966be3210c600ad722f0ea0f83a6fc90545ca68898356c7b2c90b1960cbe1f80679353331d3182ebcb6b900a1bb55f1b5b5f236badbf011196f7533e6bb8e48db798e0028d5a8c6a600d860e76ff3635aaa89b632dd7825c77dc01347eace89b6b5dc1b2dea5bf7bda9e69185e2c895d87b2186c5d714758cb928b020d2fa13d9c09a42b10cd432e8e64c8c2f7bb38905a05e943fc74c5b27d5cd94b51f02a972b9dd49ae622c68641b769a81d1d9b68fd277ba37a043f96d6b5b024cbdd9db2db8908ba71024346ae185ad376f4b3745f3fe1668f82ff9202c29dc2527d6913a5ef8e31e81a6427b853e814593363c2725c14dd16c79f1951661413d7a117126e54e6e2586961b0f2a83b14c7f6758a5885e18d41d2a1821652a3c70b08fe1b41f1b2a3ed31e08fe5e407e9f74ca30a611821ad1705e7901e4bd07a08679aaec101d0885863b7cee10b702514db616191aa161415a006cf49d6f5185f70ff2499951c537d451c8dcf71818ad6ea0ae48a83cfb30949dd4316a7c7a68dea19843e878bda25d3621a0b2f64cf438d4c23294a475ebb55f4d1a856449838247f30d1bd9e6125fce36be332a54ebd3ac6581bc9aaeb2366e16b58a2c44da7cb151d14e374272e89ed01856ad37dcca5e2107936a2818c9d9a289d97f37800fbc1e834a0516f57c7cafdfd32cdd1c5850bcc3a090475c01572fa3be78f2b14a5ed273990359082c265295b42dc9789eb2d9cb5825d2f2804542f23c1906222b7550d4e0c6f8e44f461bdb68ad027bf07b245e6c8a36c76b07819101e672bed9c20d9312103ea0d2834050f1cc4a6c47ef612e7893d759b360370fbc95f2586a1407fa0b72bceaac6b5670425b4b7494bac666c63037dabc9576c12b964ba2fc8b6e65d0a015c5d1ca6f1c1fdc0557084dc4b74a872050bfe3997c48b81aa4d1beb47090ea12e330ab20032be759dc31b003340c3aa39306f6f51555900b41c68094a5164cc3ed9e985ff5770212764865499938adb1f182d94310e05671f2767bac817aea592bf0143782bd9e1b088692a84e1e329aff7971f214fb890a1637ba8a32b34184db5926922ce2c0e569f9b242bc2ca16011b0063234068fd1aa19b41833ed797e9bca0424749ce4c9e27ef555beb6a9658a3f5b77463ab194a4459c7dd4ee0df066e20725a6cdf9566a5622ec40f1d60102443b248cbe68914a07ca8286a6b51f82a912ce682f73f47e961cd939e9fc88800394ba2fd75139e31bf390f2c2913bfab3e3c524706a0d0513b87dd7e12b39b541fc3c468ea4a4972dc848c7bafee6514107d3a1b793e92020df5667fc9e4372553e3dcdb36327c9cd64cf41cbf52bc18406ff564ad7ff0f0d93590cf749fefee10efed9e2d2262b4a7ace8c8ab5185a97d7df185e6adb3d04bd68c522403fdb676e6c627edf3ad312d0a6327b91af08b295d89c0f9d533d92235a10e24566d743706e5f57abb58b8fc911225e09ad7423c52a8d42f06eecb31b2cd9a92e42b0c9f99c5212b356dab1c83027f30a6c9beb05e478e59bdcd9a2989b0a7e3cdd7ac0b8f6f86ddf2f0342248130d21c6f58c9adf4ceabe328f8a2874e9d4de94543cc85f5c21d32ee5ed52aacca07b50a25fa5787f3c332cd2ed7c2ef278b62d3d7e1c022e1a8f67160804486d4b2210a0fbc200107a4a10e68cdd6064d62dca19171604f64df417673c20dfa65377653e0d0609128aa644b914eb9094177f627fabcb0e8ce3829a7ea44c5b4385a750c5283786813bdc16f4e2e37d085904d250f8791420ed3ca1b136e86723da7bc8edb488025340b9401ebdaf03b2ec3f4cd23f9face769bce5ab934d613be040263b924bc87ce808019585856503dff1692c39bd734e5b54519111526dff1af4129550f1f2dacdf3814656b5120ffcb7de6e73f233a465c9c5521212fed7f823569400cdedaabf8030479907dd1949cd1f11a66be65c64e9f4a5fa595d23d2ea0d0deca08cff439d1f3ac22ce5257ea9fb326a4aee825193d433a5a750f6b0b2ad14b3af1eefe9df8e0bf95cf4b8888997d880cf4d66ae7d0e05fbb0aa41ce80159b2c9679bc8e8ab5838afa3a36afbe54bf73d7338c2a51ce2065ce1e70107cd16e539cc07c3193234b56c18426a25b0ff671250739d9cd6af55cd48a5a859e0e7fdc92c20746b96e239ae6b288f7a31dc72425cfb403172d0f645bfbb800caa44d048ae7d93cbdd3bad3c54a1c8f41cd0a6bc38d7f1c90c0f8bb8fc26a164200dc45da7c9ddf0a0e1a292b3034384b60626a6c70858a9dbfc0c9d3d5ddfe061c4f5c696c6f8c94a5a9abb9c9d6f4ff08123a3f454f5e76818289eb101c374a6d6e748a8d979dabbad0dbf3fb000000000000000000001829354601",
        "009af9fc890b8a8c9cfc6dfdb1c7190d65023fe23cce6fc3fb8d33a9c542b84f010c870af79776abeef58a8e4338a229b8bf302e906297267fee63eae225a85b6c3604bbd2099aa455a5641fd96ba0d1d9d6a9fdae3cfea09352e838bd6e5ad2049aabfb36370c9e6663c2d7d22dbd1ef0d1241eb6b7ce8f22bbfa6bfc36fff0dce8c4b6be658e3576121766bea541bbc1606cd7c934be2c6bd6de1c28f1445491cd961cea70428991ac99d28939369707c3681d6cba60b815173cf68452e9754ecf303093fc7032ff20ccf1eec8e8fd4743dc9a7f9a0ee36ae5b57b50bd08a20c80ad0e937767b99ce5b4892c937e915adef585dc0eb8318acafbed023c611b2c48a49b709e7b442a1fcd53c70f152d459103a85361098d24f11d0caab1e6b3bf79446990cdf921a63af3adf0011c7f49f61a257b78110743d689f13eaf659dd41659138de0f049d9fca560ba30fe28641dec24e17a6abc06c3086aba9f1752d17c62f72b6d0dbb5b7e825997a8aee006ca427915bd3e50dd0407258fe5fd2551de03386cc96f959b0c06e63a0f02fc08e458dac1087b5ad23a5b896901066328fca596b47616e596714f1b569fefdf6ef42dbc22f68793578e5e26cc5c99eeeee4ad4fccf79f4630572496a444de6445ca9fedd283d7cacaa8a5e119c65fffa4b0fb86472ef513ff7c78b7dd5cab4a60fe7eff5ec482ea1cbf7c13adf7aac10230b74a78863c921a0692f79503883d39a5bd653cede40c1b0a47583da70b396bbad71a0e9a3dc05730bb1c521590b53c35d5940ca79eccb37851dce1600002cbd66a9e97c0f9f1d0498a0d5f8ab7ed7eda3e685405508c97c501564ed81c73ad851837bf5c8fe0ae34989cb49f14e7ffae7cd69fc59e37952efc6ec7f80eea8030e74f1b50f3e9dd2bc710fd620696c832ccc797742e32d2eb478280916e3ce28442750a1674f46b148cec9365c934bec8603af5422a683fb7275439045b5aec32b4c04f76e5aca03549e92832d087325bf046e02f8b452fe5522b2d6085d57491298fc8d689dba25cf0dea0a47098edacaca8bf7187a1c407596fd9ef1404892ffcb4006e80b8c4a5ae4879167ed3e90dc5474477467e263da44dbaa2d1d26f0c8c183ce6aff76ec7cc4018dfe45b0526d757833143fbf415ebf63c64fb169b82888d5b365844249b5361077e70293cf5fae4884fd2747c0a0da8854c24f58aa8a8d171f21c3a5db99863ba8f90358623a5b6da9c0afe4e38b833791bdd9a56cdcd5110902cadf7fb6f3751c30e3eae052ca79cda72e62556f86f0122b339e4b16504b0378e5e6b71d933c94577202a26d34a462c1600400ca3967b96e90843d96f3268a139435d8f8a2fcc1535fddf48994b1de65ab9d6d576cac60d9afd92e4a7dc323b71fbd77f52234dded8593470f71fc5291100dcda07dfbfeabe81918dc0ad388dc8393bc82ea825878286508d9e9333562bd769e6b02c3bd93c2462efeffddd820a7ed21ec1ee9e84549dfd3765129f107296eabd9a057286666f15a128c14dac5c79a3b58d7b17d6c45f2fcfaf2ad4da8fff4cdb6c83bbba24f413fc3a2a7c8c59a90f6df2e3863773f30d99950ad170aa8701d5d77c121d82ea16f7ed58bb5beb7e8a9b2de9e64caebda2235c1bd5c184f0ab4ae5e536a20a11cb62444151fc8ef6c04cab65b2199504e19f1831ba04afe0b70348c8646aa0c28c12902fd995a5e50aba37c59c1720c3521dfbf98bf15d9329fb556b923431fb86f363fbf9189b1fb81eeaaebe2c69c15d262b6a392b714133ab13c70f32a9de1df39379bb623bd9930ed7f78418e3ce57ba04134802e98f1c098c9c23f1ac7c2c"
      ],
      "sequence": 4294967294
    }
  ],
  "vout": [
    {
      "value": 1.0,
      "n": 0,
      "scriptPubKey": {
        "asm": "OP_RETURN bc72e14fa15a164334571cc600ad33f695666ba9fd911c13bf78983fcc814ecf b6ee7b9f4790d931b7dc9f797031414903d4a9655c9211b46a1e25a57ec2d8a696ce5bbf67b0f91197fcbf595011616923f489457cb231944a3e05855ee2f886f6ae3bdf07d09971f79cdf39307101094394e9251cd251f42a5e65e53e8298e6d68e1bff27f0b951d7bcff191051212963b4c9053cf271d40a7e45c51ea2b8c6366efb1fc71059b1375c1ff9f0b1c1c9835429e5dc129134ea9ea525fe425826164edb3fe7307991177c3fd9d091e1e9a37409c5fc32b114cabe8505de627806762ebb5f875019f1771c5fb9b0f18189c31469a59c52d174aadee565be021866560e9b7fa77039d1573c7f9990d1a1a9e3344985bc72f1548afec5459e223846b6ee7b9f4790d931b7dc9f797031414903d4a9655c9211b46a1e25a57ec2d8a696ce5bbf67b0f91197fcbf595011616923f489457cb231944a3e05855ee2f886f6ae3bdf07d09971f79cdf39307101094394e9251cd251f42a5e65e53e8298e6d68e1bff27f0b951d7bcff191051212963b4c9053cf271d40a7e45c51ea2b8c6366efb1fc71059b1375c1ff9f0b1c1c9835429e5dc129134ea9ea525fe425826164edb3fe7307991177c3fd9d091e1e9a37409c5fc32b114cabe8505de627806762ebb5f875019f1771c5fb9b0f18189c31469a59c52d174aadee565be021866560e9b7fa77039d1573c7f9990d1a1a9e3344985bc72f1548afec5459e223846b6ee7b9f4790d931b7dc9f797031414903d4a9655c9211b46a1e25a57ec2d8a696ce5bbf67b0f91197fcbf595011616923f489457cb231944a3e05855ee2f886f6ae3bdf07d09971f79cdf39307101094394e9251cd251f42a5e65e53e8298e6d68e1bff27f0b951d7bcff191051212963b4c9053cf271d40a7e45c51ea2b8c6366efb1fc71059b1375c1ff9f0b1c1c9835429e5dc129134ea9ea525fe425826164edb3fe7307991177c3fd9d091e1e9a37409c5fc32b114cabe8505de627806762ebb5f875019f1771c5fb9b0f18189c31469a59c52d174aadee565be021866560e9b7fa77039d1573c7f9990d1a1a9e3344985bc72f1548afec5459e223846b6ee7b9f4790d931b7dc9f797031414903d4a9655c9211b46a1e25a57ec2d8a696ce5bbf67b0f91197fcbf595011616923f489457cb231944a3e05855ee2f886f6ae3bdf07d09971f79cdf39307101094394e9251cd251f42a5e65e53e8298e6d68e1bff27f0b951d7bcff191051212963b4c9053cf271d40a7e45c51ea2b8c6366efb1fc71059b1375c1ff9f0b1c1c9835429e5dc129134ea9ea525fe425826164edb3fe7307991177c3fd9d091e1e9a37409c5fc32b114cabe8505de627806762ebb5f875019f1771c5fb9b0f18189c31469a59c52d174aadee565be021866560e9b7fa77039d1573c7f9990d1a1a9e3344985bc72f1548afec5459e223846b6ee7b9f4790d931b7dc9f797031414903d4a9655c9211b46a1e25a57ec2d8a696ce5bbf67b0f91197fcbf595011616923f489457cb231944a3e05855ee2f886f6ae3bdf07d09971f79cdf39307101094394e9251cd251f42a5e65e53e8298e6d68e1bff27f0b951d7bcff191051212963b4c9053cf271d40a7e45c51ea2b8c6366efb1fc71059b1375c1ff9f0b1c1c9f0e89cb11e42214b1db2a9e5183565bfd09119e4c3b25bdec031107e57ca24ea",
        "hex": "6a20bc72e14fa15a164334571cc600ad33f695666ba9fd911c13bf78983fcc814ecf4db004b6ee7b9f4790d931b7dc9f797031414903d4a9655c9211b46a1e25a57ec2d8a696ce5bbf67b0f91197fcbf595011616923f489457cb231944a3e05855ee2f886f6ae3bdf07d09971f79cdf39307101094394e9251cd251f42a5e65e53e8298e6d68e1bff27f0b951d7bcff191051212963b4c9053cf271d40a7e45c51ea2b8c6366efb1fc71059b1375c1ff9f0b1c1c9835429e5dc129134ea9ea525fe425826164edb3fe7307991177c3fd9d091e1e9a37409c5fc32b114cabe8505de627806762ebb5f875019f1771c5fb9b0f18189c31469a59c52d174aadee565be021866560e9b7fa77039d1573c7f9990d1a1a9e3344985bc72f1548afec5459e223846b6ee7b9f4790d931b7dc9f797031414903d4a9655c9211b46a1e25a57ec2d8a696ce5bbf67b0f91197fcbf595011616923f489457cb231944a3e05855ee2f886f6ae3bdf07d09971f79cdf39307101094394e9251cd251f42a5e65e53e8298e6d68e1bff27f0b951d7bcff191051212963b4c9053cf271d40a7e45c51ea2b8c6366efb1fc71059b1375c1ff9f0b1c1c9835429e5dc129134ea9ea525fe425826164edb3fe7307991177c3fd9d091e1e9a37409c5fc32b114cabe8505de627806762ebb5f875019f1771c5fb9b0f18189c31469a59c52d174aadee565be021866560e9b7fa77039d1573c7f9990d1a1a9e3344985bc72f1548afec5459e223846b6ee7b9f4790d931b7dc9f797031414903d4a9655c9211b46a1e25a57ec2d8a696ce5bbf67b0f91197fcbf595011616923f489457cb231944a3e05855ee2f886f6ae3bdf07d09971f79cdf39307101094394e9251cd251f42a5e65e53e8298e6d68e1bff27f0b951d7bcff191051212963b4c9053cf271d40a7e45c51ea2b8c6366efb1fc71059b1375c1ff9f0b1c1c9835429e5dc129134ea9ea525fe425826164edb3fe7307991177c3fd9d091e1e9a37409c5fc32b114cabe8505de627806762ebb5f875019f1771c5fb9b0f18189c31469a59c52d174aadee565be021866560e9b7fa77039d1573c7f9990d1a1a9e3344985bc72f1548afec5459e223846b6ee7b9f4790d931b7dc9f797031414903d4a9655c9211b46a1e25a57ec2d8a696ce5bbf67b0f91197fcbf595011616923f489457cb231944a3e05855ee2f886f6ae3bdf07d09971f79cdf39307101094394e9251cd251f42a5e65e53e8298e6d68e1bff27f0b951d7bcff191051212963b4c9053cf271d40a7e45c51ea2b8c6366efb1fc71059b1375c1ff9f0b1c1c9835429e5dc129134ea9ea525fe425826164edb3fe7307991177c3fd9d091e1e9a37409c5fc32b114cabe8505de627806762ebb5f875019f1771c5fb9b0f18189c31469a59c52d174aadee565be021866560e9b7fa77039d1573c7f9990d1a1a9e3344985bc72f1548afec5459e223846b6ee7b9f4790d931b7dc9f797031414903d4a9655c9211b46a1e25a57ec2d8a696ce5bbf67b0f91197fcbf595011616923f489457cb231944a3e05855ee2f886f6ae3bdf07d09971f79cdf39307101094394e9251cd251f42a5e65e53e8298e6d68e1bff27f0b951d7bcff191051212963b4c9053cf271d40a7e45c51ea2b8c6366efb1fc71059b1375c1ff9f0b1c1c9f0e89cb11e42214b1db2a9e5183565bfd09119e4c3b25bdec031107e57ca24ea",
        "type": "nulldata"
      }
    },
    {
      "value": 499974.5775,
      "n": 1,
      "scriptPubKey": {
        "asm": "1 4117199a8b078de7367dbcace069198b9bdfc559c6f4a1a98a248f3b4d58dd9a",
        "hex": "51204117199a8b078de7367dbcace069198b9bdfc559c6f4a1a98a248f3b4d58dd9a",
        "reqSigs": 1,
        "type": "witness_v1_scripthash",
        "addresses": [
          "3QJmnh"
        ]
      }
    }
  ],
  "blockhash": "3f7b66b34673dd56727b9b27d02dfa4f8333ff75e8b72ddccb546061f2a7d063",
  "confirmations": 1,
  "time": 1764180681,
  "blocktime": 1764180681
}