{
  "hex": "01000000000101dbc55fbf88965bd40f9353a9c2487235cee624f6ad9cd65bd81d741fa9c3b2530000000000feffffff0200e1f50500000000fdd5046a2025173ecc22222d68b00b2b3f57ee78d489f55ade81f123deb3efaea266d1d5954db0045c8f5cee2087e68f39c67233d16d41a517005cc8fc1a064743406821a1ecee917caf7cce00a7c6af19e65213f14d618537207ce8dc3a26676360480181ccceb11ccf1cae60c7a6cf79863273912d01e557401c88bc5a460703002861e1acaed13cef3c8e40e786ef59a61253b10d21c577603ca89c7a662723200841c18c8ef1dc0fdc6ea007660fb946f2b351edc1259780dc487c9a86c7c3c0e8a1216c6e11fc2ffc4e8027462f9966d29371cde105b7a0fc685cbaa6e7e3e0c881014c4e319c4f9c2ee047264ff906b2f311ad8165d7c09c083cdac6878380a8e1612c2e51bc6fbc0ec067066fd92692d3318da145f7e0bc281cfae6a7a3a088c1410c0e715c8f5cee2087e68f39c67233d16d41a517005cc8fc1a064743406821a1ecee917caf7cce00a7c6af19e65213f14d618537207ce8dc3a26676360480181ccceb11ccf1cae60c7a6cf79863273912d01e557401c88bc5a460703002861e1acaed13cef3c8e40e786ef59a61253b10d21c577603ca89c7a662723200841c18c8ef1dc0fdc6ea007660fb946f2b351edc1259780dc487c9a86c7c3c0e8a1216c6e11fc2ffc4e8027462f9966d29371cde105b7a0fc685cbaa6e7e3e0c881014c4e319c4f9c2ee047264ff906b2f311ad8165d7c09c083cdac6878380a8e1612c2e51bc6fbc0ec067066fd92692d3318da145f7e0bc281cfae6a7a3a088c1410c0e715c8f5cee2087e68f39c67233d16d41a517005cc8fc1a064743406821a1ecee917caf7cce00a7c6af19e65213f14d618537207ce8dc3a26676360480181ccceb11ccf1cae60c7a6cf79863273912d01e557401c88bc5a460703002861e1acaed13cef3c8e40e786ef59a61253b10d21c577603ca89c7a662723200841c18c8ef1dc0fdc6ea007660fb946f2b351edc1259780dc487c9a86c7c3c0e8a1216c6e11fc2ffc4e8027462f9966d29371cde105b7a0fc685cbaa6e7e3e0c881014c4e319c4f9c2ee047264ff906b2f311ad8165d7c09c083cdac6878380a8e1612c2e51bc6fbc0ec067066fd92692d3318da145f7e0bc281cfae6a7a3a088c1410c0e715c8f5cee2087e68f39c67233d16d41a517005cc8fc1a064743406821a1ecee917caf7cce00a7c6af19e65213f14d618537207ce8dc3a26676360480181ccceb11ccf1cae60c7a6cf79863273912d01e557401c88bc5a460703002861e1acaed13cef3c8e40e786ef59a61253b10d21c577603ca89c7a662723200841c18c8ef1dc0fdc6ea007660fb946f2b351edc1259780dc487c9a86c7c3c0e8a1216c6e11fc2ffc4e8027462f9966d29371cde105b7a0fc685cbaa6e7e3e0c881014c4e319c4f9c2ee047264ff906b2f311ad8165d7c09c083cdac6878380a8e1612c2e51bc6fbc0ec067066fd92692d3318da145f7e0bc281cfae6a7a3a088c1410c0e715c8f5cee2087e68f39c67233d16d41a517005cc8fc1a064743406821a1ecee917caf7cce00a7c6af19e65213f14d618537207ce8dc3a26676360480181ccceb11ccf1cae60c7a6cf79863273912d01e557401c88bc5a460703002861e1acaed13cef3c8e40e786ef59a61253b10d21c577603ca89c7a662723200841c18c8ef1dc0fdc6ea007660fb946f2b351edc1253fa81a075dd9db35f70663535fa00d8425331b188ae09c9816bbd6587e1efa961076cf5d792d00002251204a4c40a546ddf387742f2b89dbba960aa00823c40afadd822020b36502d90b4402fd7509748b1036ce8d0d02bcad93fbd77684f5935acd075225f0856b0b97813fc89b6e7bcc7ab2940ca680072344bfd623126848bd670fdcbecaf49af65aea50ef1c8f7c3629df8614d1cf20954b16888fd37710b1156fa4ef6aa6dfd162b5d84287e8c845b557d3b15f61aed59e9940ac000089032cb540d34c2d9c5b2f8d6d38e9b8bd2fe955ddbc6d933fbd07e86170c1fe80dac646528a26d81451b390d85091ac65297f3f51a8ecc3ddd9bad30d361302beb62fa7838813be7d6219119c7dfca0cd412a0147be311b18605bd6785f7796d82cd73bf50ff1ea2afc791bb6cd7231fb95a2f835b90a059d8f688515cae39c3200397cc71e7b05979e07952150d3313d4b24c67574766a8d323d2cff2006f5a787709db1f526493ac2d48ff5c897d0f408355f17e2dc8f15c0d092096eef57e7e6c0e436eafb03450ae6c933cb70fcd0c3995d1284aac799d01e8a884007793bb239c7322a1a508c967c438e7cca2259356be7a20536f28bef7c7c8920e3081087d78ee8da44e22a50e39d458a958315c218357206823eae5487d8cc0f34254c9f1d8dab75cc0ef8dafd25f543f6dff67f52e57b8ca5eaff20dd7ced81168ab3e78f7421fbb707572fe58146e9b5a5202c0fe013b36a8ec2ab5fe2c44af522539d9c7c535042fe2095f32c6ce9ef4101aebf5ae6871d0e0f135a00dfcc585193545a0c12635cb7b5c41945c43de580baf9fdb6b661d565ef88b2fd6545a4e58b6d5cf411eb1470162b9d9127d75a3a7f107fdb5566b3d24c9ca9c9bc76b75d27d6cb9a875eebf7941e0e564bafb4bc27d7edd7a94978a3520a1b5efe9affdc26c0466cb74b8f3d9bcd9406e577e89e128787491938d88ac1c8356921e7d22136982dd22ebe619775f24a860c0bc135eb75df7434fe0c041f935d55ea22644c11ef16a9322201dcf9d13b7b3c98a16e9b4a9570dc23d0cd50b52bfa5e46d0e4967cb1e50620ab0d0e827f30b189c49266585528ab5f7cebb86482a57c0b45209d2571437a34ec07d66e4cd2a672be6440825b84aaa3f23e6f2c8ead668f052208e3387a3a3c0451ebb5d3f728f110c751308e9a6e939d9a85a627b10099daa41f28e3414835a9a690f622220dcec8ddf6f161369e3841ed1ea19fd7a3e21c3cd63c0533f514891756c0fe805bd439aa28e8dbab6a2d51b7efbb64ea188d96011c0825ba90ab308bc3dfe8c2056f79be877cf59635809cabd1f3045fc6466fc68e66b70d3d37e6ad2455fc15e142e0b6ce4df883b96b296d50d494fa08fc72b22503372b2341628471e4e98fb066eeb5e9a0b218f7e91787b60f6d4fa3421b2879cadbc6d12861df407f72d692e8b5ffec932caac76bf7ec1c9a9d406ccf9661e7ac9f29360e3d385a0b826a0339cd12b91f9a1c0929768caa001bfc181ab106df7baf68fe82710f3b5e9afcd71816ff6154163d72ecff41c73ab200b0e263ee9f505fba3f796474fde7a6077111bbe76e4dc0ae469f4756eb3a07b5a1940799879d1a8bb979bf7ddcd6fd0f3ce9ed935ee0aa16c1ebeebfb5933cf99867a568499913b696c7b58e095d508ca81825eb8b6d6416b6ebd95c1efaf14cec580a7cb4af97e69a3a4445b44d39a407ddf4f93af5bcc8b096b5ec3c3d59d0cffdee19744905049fd055952feb7660e955708ea78e1e3e755f656a62282f9ef6960ae1b528a34f9cd0c1b6de27127808ce2f1edf4089118147d4cc3688836357e78a6e2ec31314735c2d4515d577836b97a0f785deaf2bcfddce154cec3768f91b7a533c3f08e671d5d821bfa1c4f7b77e73cd95e782f97079c3b514fac9d345e5ddfcd11d54c06a2355da0b9e69af8b2149168e70ee6c652bfe8111af93748bf366a2be7d682b3b698b56a53781834466fc60a43308f1404c995bd5f33a806f5862aaf4297be12aeaf8ab448e3cff6098a44a78d9241f32576b61c0ed844b87a599c1baf171f4b89a7476e68f6e41ea2e7a57aa3bc2535369675763e1a11a772deac5a113611e8f7a9d9df3d84e3f36ead7e9929d994de10592a1d7ad82c4aff051577122ad27b7af0705ee1adc3d124a0285a5a5fd5ffe25a786f5499da753d5dd4ec5a3246f2be19534ba64882bc22f754b200a79d45f16e01a6a4e74c16e638be1087ea4e03c5885ac9b6f31f79fd47bd1b29ae64842c3c22c635c961508874066de67d29f532f708cd4f96570a45fe53d5a7beb360e6c40c665589f807236c9d5ce2988aeab18e537fc834420e0f0edca49618e967f08d1b728d72b5dedaf08314dd8ed26f2cd63ab5f942fee0c37910b6b08d9a4dfb0e406ce5bb533106f2d97bdf033ceef4eb5b4f54a552fad67d43ae37ac60396f64f08d0207f310807a85a51b4742e7331e0f92a164b0b2dee50b5b636d8c384989c77775e2b9a98f3a99a84f6d1bf537e971e62191279684d8cdeb3f9d6fe78ef3b6787f5733b5f90903ac88a34199fc9d71201dd78cdf58232455b5de3a99434cb2017229725426c8cc9b0b6c2ac0ebc974d361745350e3b36a2905fc3832a4caa94761fc6c50b08a29b208c27ff1b792bd455fa785b627ba856700d8f582c64c6e2d006df0374435469328f0d80d82d10ccd5c6defc33609f327d497386ce2ccd1b131063a19b0eba84914fb39740b89ed6d1995125eded7f06aee57d07de615bcb1d7ad4db7d807fd64f7ef587b1242f4d42390b9ed6b00512c2cd32b4dadcddd155db8202f4f6e1b683f28cc94be6bee6907cfb5aa1de68996cb61cfa634dce53b04957e252a7d6b0634f25bc85e0453e9cb7fcaef2aa414ea12ba05a433fe850890a77d0b9b012d5701a544702c8452db558f6231c6ed18b94e350a09291839d0e378710fd4012e406cc8dea4c5c0402a9261298af697e48ccca80e5eb0ebb286dc98235b57d330f47ee6394d422ff9244556f87a5418c6b1bc4bafb9b7fd5ecae5220fd6ea6b07106c5c9f1f54396ed63c2aa703d6d5bd6e6f4584493765be6786c28f1195cd0a43b39f20717b1c414485abb02a9656db3ece6295def7f52894f7ac3b726aa822b6f3d3578443a90029e2038aba7fed85676962339cd7c2db6e7c6af30acc382ce4d37f30bc2aa070b1b1a1f0860e5f46b8c9dcb4fa48b7584a37422604c287c2ab4f2886802c002f8def86522c4672769f5c8219e6db74809a9d549ceba974d8173505077241f52e41d497e9856a5bffdec046d6cb03aaed01ff29c322f62e7baf2532744681e7063344e7a262f84d90de44da3ea8bf8dcfefc072951bbff05a6ce50a1bcf13be48ecec2fe9675d6e3fa00011524353b4e4f5a5e898d92acc0c4cfe4f00d40414378a2c2c4cbcde3fcff071d20222d4b5b839e9fbdd0e0ebf10e243e435971898b9798aaafb8cacce2e30000000000000000000000000000000013202f4001fd210500dfa669afd6fda4be29f95ee26351dafa125755ee953a42e047fd53b24c21f73a90fb01af847c7887f1ce7112c2e7831380dd6baadd265dbe499761fed791d2289643823765e3af05c394e6201faf6d82ef98b3eabb88984fd2e4d4a066e37e4284e5d751b7c75e3410cbd83f6de86700730f6b17315ee964c51a03b647aae9e3899a0b557d0fdd082d8eda200690b36533b5045945069e99be10fa17c00ac5c33b367d65926070dfd5bf934dcc03a7d8315b20a1eaa3a9c24eb7237812adc5e0644a74fa29b677843aa45328e5cef7d64182c7cde62fc9075ab910813cb05cee929a7b0fa3fc2f50bdf7245a4c27566cab926a6682ce638adabc25add469d3ff3320b398d3d7158afbef3e4869c61bcc4c20669bfb9e5fe1c06a91e46ea653e21b51965018c2ad4ad762935c38ea215c681d89b0feca0c70ac347527e361036d11ea000c66bb23ffb96c69b13300bb2b739b7d0c2b63caa3ca52ebfdb85c57478f5bc3cef10a8248ea5c7944b9f022d7ee079d2079949e8c224134fc51b1103be64b13af7ebe60575f02ff558b392dfdc21b1f9814ecadf173a7cb3de60323be2dd84c77555b8c0be4cd66e47342fe64d7afb0af48fba41ffb022a1e7c5e78c0970bced8a165a38208fd5a2efa72678af8f1b8efb4560a6b9e522c823332a95d9727cc022d9ec7b0204c7cb96f0e1c041ae57b1727dc77a9bc1eee321387874e9220edb67ff29697dde40f0fc3052ac1d422a9441426abba40370d40faa8f770d5c5112cb0d3207f40c89b29e8b18298944007e9f0c3d708601b1587c3ce1df750524abad12f9bf402026282cc3b701bc4fee820c049eb91ac81e82c1de2695424b13f7f12a18898413e80ef555682113b751c17fec16f6fd5dc0cbe4f1c7de457b0b515408a2e9e2c5ad55e34f677f0e9860df0c1387d52a3bd0cf9a83cddf2398059aa6b4b1d23daeff15ac21a8e497bfdf6d57d7470f517e6e6570dca9bb4adb2e9d263a6b3f7af5b52c391f65e99f84ca3d3baa489550905da70fac152e04209f28ba2bc23b008c9097e1edb6754a934b3a23ec56f44f41abeecd992b9bf19ae89e0e1128f9bb82594746c9c91b7674bcc0522382987df0ad7521740238f16117543d695206184134e10cc9fb8dbede0eec61ca1542ad73ef01f11e141a4c8ea94cfcc781476e73604e070fcbd1f1d852db15ce3cf30f1ce81c8bf08e92981283b42ead4f7263c3dbb92e81e8fbb8d8692afe4deaeb509c33557618cea9af8318384bcf1b80ed5981eb48f899b3dde779ff14a192e668f4b0e064e4531436de93a20b4f57c2360aa75cb992ba81726d27bfbee28d6b733c27546b2e3a65c15b218490b8a782a29607ed07864cd7cb9f8609692e8e74bbd2d988d50b8c2b7955ab4290302de11b17301d7bd10ea934c7800991201987fb30841db8c902ee39de10f09075288a5c439f2e6755da455384024b700059d9ae3001e88f757a7caf5a5ced1378dc17a22f855d6cc47a48cc38a43ec904b51f2a0f2f01985da8ab81cef6b64f83932615842234b2e7c893de048a8b96ab09cc87b85fa36e70067b89cda772fcf50c471002f6fb85268e470151133fcd66f3478b88d54f87d3890f17269daf6e219436c7241464c8c303974085a311346a4992b85469954a88b2a8096bd5da0325d80fa60ca5cf9e8c6d6127a5e0d7f00348ec085a0a406ad329acb9c0f392ff24d951e4b516fd2971e1d306a4c1ab3dbb91a061625b2cacf937722419d0177063d229acad81b682b151fa9db63c4d43fc4afb9d9d74102b02a9914d3387f9fb06121211f468250a3e9734c6c83bedf66f731a13d8375ab210b685169000000",
  "txid": "0abaabbf84978b641e117ffee5fdf2587f279fc82689c162fda39ec8ea8bec03",
  "hash": "71de37a3ab937457d00837ae32a7ab3b3f7c4f3a1e93b3bbc2cfe2d9533dd463",
  "size": 5085,
  "vsize": 2278,
  "version": 1,
  "locktime": 105,
  "vin": [
    {
      "txid": "53b2c3a91f741dd85bd69cadf624e6ce357248c2a953930fd45b9688bf5fc5db",
      "vout": 0,
      "scriptSig": {
        "asm": "",
        "hex": ""
      },
      "txinwitness": [
        "748b1036ce8d0d02bcad93fbd77684f5935acd075225f0856b0b97813fc89b6e7bcc7ab2940ca680072344bfd623126848bd670fdcbecaf49af65aea50ef1c8f7c3629df8614d1cf20954b16888fd37710b1156fa4ef6aa6dfd162b5d84287e8c845b557d3b15f61aed59e9940ac000089032cb540d34c2d9c5b2f8d6d38e9b8bd2fe955ddbc6d933fbd07e86170c1fe80dac646528a26d81451b390d85091ac65297f3f51a8ecc3ddd9bad30d361302beb62fa7838813be7d6219119c7dfca0cd412a0147be311b18605bd6785f7796d82cd73bf50ff1ea2afc791bb6cd7231fb95a2f835b90a059d8f688515cae39c3200397cc71e7b05979e07952150d3313d4b24c67574766a8d323d2cff2006f5a787709db1f526493ac2d48ff5c897d0f408355f17e2dc8f15c0d092096eef57e7e6c0e436eafb03450ae6c933cb70fcd0c3995d1284aac799d01e8a884007793bb239c7322a1a508c967c438e7cca2259356be7a20536f28bef7c7c8920e3081087d78ee8da44e22a50e39d458a958315c218357206823eae5487d8cc0f34254c9f1d8dab75cc0ef8dafd25f543f6dff67f52e57b8ca5eaff20dd7ced81168ab3e78f7421fbb707572fe58146e9b5a5202c0fe013b36a8ec2ab5fe2c44af522539d9c7c535042fe2095f32c6ce9ef4101aebf5ae6871d0e0f135a00dfcc585193545a0c12635cb7b5c41945c43de580baf9fdb6b661d565ef88b2fd6545a4e58b6d5cf411eb1470162b9d9127d75a3a7f107fdb5566b3d24c9ca9c9bc76b75d27d6cb9a875eebf7941e0e564bafb4bc27d7edd7a94978a3520a1b5efe9affdc26c0466cb74b8f3d9bcd9406e577e89e128787491938d88ac1c8356921e7d22136982dd22ebe619775f24a860c0bc135eb75df7434fe0c041f935d55ea22644c11ef16a9322201dcf9d13b7b3c98a16e9b4a9570dc23d0cd50b52bfa5e46d0e4967cb1e50620ab0d0e827f30b189c49266585528ab5f7cebb86482a57c0b45209d2571437a34ec07d66e4cd2a672be6440825b84aaa3f23e6f2c8ead668f052208e3387a3a3c0451ebb5d3f728f110c751308e9a6e939d9a85a627b10099daa41f28e3414835a9a690f622220dcec8ddf6f161369e3841ed1ea19fd7a3e21c3cd63c0533f514891756c0fe805bd439aa28e8dbab6a2d51b7efbb64ea188d96011c0825ba90ab308bc3dfe8c2056f79be877cf59635809cabd1f3045fc6466fc68e66b70d3d37e6ad2455fc15e142e0b6ce4df883b96b296d50d494fa08fc72b22503372b2341628471e4e98fb066eeb5e9a0b218f7e91787b60f6d4fa3421b2879cadbc6d12861df407f72d692e8b5ffec932caac76bf7ec1c9a9d406ccf9661e7ac9f29360e3d385a0b826a0339cd12b91f9a1c0929768caa001bfc181ab106df7baf68fe82710f3b5e9afcd71816ff6154163d72ecff41c73ab200b0e263ee9f505fba3f796474fde7a6077111bbe76e4dc0ae469f4756eb3a07b5a1940799879d1a8bb979bf7ddcd6fd0f3ce9ed935ee0aa16c1ebeebfb5933cf99867a568499913b696c7b58e095d508ca81825eb8b6d6416b6ebd95c1efaf14cec580a7cb4af97e69a3a4445b44d39a407ddf4f93af5bcc8b096b5ec3c3d59d0cffdee19744905049fd055952feb7660e955708ea78e1e3e755f656a62282f9ef6960ae1b528a34f9cd0c1b6de27127808ce2f1edf4089118147d4cc3688836357e78a6e2ec31314735c2d4515d577836b97a0f785deaf2bcfddce154cec3768f91b7a533c3f08e671d5d821bfa1c4f7b77e73cd95e782f97079c3b514fac9d345e5ddfcd11d54c06a2355da0b9e69af8b2149168e70ee6c652bfe8111af93748bf366a2be7d682b3b698b56a53781834466fc60a43308f1404c995bd5f33a806f5862aaf4297be12aeaf8ab448e3cff6098a44a78d9241f32576b61c0ed844b87a599c1baf171f4b89a7476e68f6e41ea2e7a57aa3bc2535369675763e1a11a772deac5a113611e8f7a9d9df3d84e3f36ead7e9929d994de10592a1d7ad82c4aff051577122ad27b7af0705ee1adc3d124a0285a5a5fd5ffe25a786f5499da753d5dd4ec5a3246f2be19534ba64882bc22f754b200a79d45f16e01a6a4e74c16e638be1087ea4e03c5885ac9b6f31f79fd47bd1b29ae64842c3c22c635c961508874066de67d29f532f708cd4f96570a45fe53d5a7beb360e6c40c665589f807236c9d5ce2988aeab18e537fc834420e0f0edca49618e967f08d1b728d72b5dedaf08314dd8ed26f2cd63ab5f942fee0c37910b6b08d9a4dfb0e406ce5bb533106f2d97bdf033ceef4eb5b4f54a552fad67d43ae37ac60396f64f08d0207f310807a85a51b4742e7331e0f92a164b0b2dee50b5b636d8c384989c77775e2b9a98f3a99a84f6d1bf537e971e62191279684d8cdeb3f9d6fe78ef3b6787f5733b5f90903ac88a34199fc9d71201dd78cdf58232455b5de3a99434cb2017229725426c8cc9b0b6c2ac0ebc974d361745350e3b36a2905fc3832a4caa94761fc6c50b08a29b208c27ff1b792bd455fa785b627ba856700d8f582c64c6e2d006df0374435469328f0d80d82d10ccd5c6defc33609f327d497386ce2ccd1b131063a19b0eba84914fb39740b89ed6d1995125eded7f06aee57d07de615bcb1d7ad4db7d807fd64f7ef587b1242f4d42390b9ed6b00512c2cd32b4dadcddd155db8202f4f6e1b683f28cc94be6bee6907cfb5aa1de68996cb61cfa634dce53b04957e252a7d6b0634f25bc85e0453e9cb7fcaef2aa414ea12ba05a433fe850890a77d0b9b012d5701a544702c8452db558f6231c6ed18b94e350a09291839d0e378710fd4012e406cc8dea4c5c0402a9261298af697e48ccca80e5eb0ebb286dc98235b57d330f47ee6394d422ff9244556f87a5418c6b1bc4bafb9b7fd5ecae5220fd6ea6b07106c5c9f1f54396ed63c2aa703d6d5bd6e6f4584493765be6786c28f1195cd0a43b39f20717b1c414485abb02a9656db3ece6295def7f52894f7ac3b726aa822b6f3d3578443a90029e2038aba7fed85676962339cd7c2db6e7c6af30acc382ce4d37f30bc2aa070b1b1a1f0860e5f46b8c9dcb4fa48b7584a37422604c287c2ab4f2886802c002f8def86522c4672769f5c8219e6db74809a9d549ceba974d8173505077241f52e41d497e9856a5bffdec046d6cb03aaed01ff29c322f62e7baf2532744681e7063344e7a262f84d90de44da3ea8bf8dcfefc072951bbff05a6ce50a1bcf13be48ecec2fe9675d6e3fa00011524353b4e4f5a5e898d92acc0c4cfe4f00d40414378a2c2c4cbcde3fcff071d20222d4b5b839e9fbdd0e0ebf10e243e435971898b9798aaafb8cacce2e30000000000000000000000000000000013202f4001",
        "00dfa669afd6fda4be29f95ee26351dafa125755ee953a42e047fd53b24c21f73a90fb01af847c7887f1ce7112c2e7831380dd6baadd265dbe499761fed791d2289643823765e3af05c394e6201faf6d82ef98b3eabb88984fd2e4d4a066e37e4284e5d751b7c75e3410cbd83f6de86700730f6b17315ee964c51a03b647aae9e3899a0b557d0fdd082d8eda200690b36533b5045945069e99be10fa17c00ac5c33b367d65926070dfd5bf934dcc03a7d8315b20a1eaa3a9c24eb7237812adc5e0644a74fa29b677843aa45328e5cef7d64182c7cde62fc9075ab910813cb05cee929a7b0fa3fc2f50bdf7245a4c27566cab926a6682ce638adabc25add469d3ff3320b398d3d7158afbef3e4869c61bcc4c20669bfb9e5fe1c06a91e46ea653e21b51965018c2ad4ad762935c38ea215c681d89b0feca0c70ac347527e361036d11ea000c66bb23ffb96c69b13300bb2b739b7d0c2b63caa3ca52ebfdb85c57478f5bc3cef10a8248ea5c7944b9f022d7ee079d2079949e8c224134fc51b1103be64b13af7ebe60575f02ff558b392dfdc21b1f9814ecadf173a7cb3de60323be2dd84c77555b8c0be4cd66e47342fe64d7afb0af48fba41ffb022a1e7c5e78c0970bced8a165a38208fd5a2efa72678af8f1b8efb4560a6b9e522c823332a95d9727cc022d9ec7b0204c7cb96f0e1c041ae57b1727dc77a9bc1eee321387874e9220edb67ff29697dde40f0fc3052ac1d422a9441426abba40370d40faa8f770d5c5112cb0d3207f40c89b29e8b18298944007e9f0c3d708601b1587c3ce1df750524abad12f9bf402026282cc3b701bc4fee820c049eb91ac81e82c1de2695424b13f7f12a18898413e80ef555682113b751c17fec16f6fd5dc0cbe4f1c7de457b0b515408a2e9e2c5ad55e34f677f0e9860df0c1387d52a3bd0cf9a83cddf2398059aa6b4b1d23daeff15ac21a8e497bfdf6d57d7470f517e6e6570dca9bb4adb2e9d263a6b3f7af5b52c391f65e99f84ca3d3baa489550905da70fac152e04209f28ba2bc23b008c9097e1edb6754a934b3a23ec56f44f41abeecd992b9bf19ae89e0e1128f9bb82594746c9c91b7674bcc0522382987df0ad7521740238f16117543d695206184134e10cc9fb8dbede0eec61ca1542ad73ef01f11e141a4c8ea94cfcc781476e73604e070fcbd1f1d852db15ce3cf30f1ce81c8bf08e92981283b42ead4f7263c3dbb92e81e8fbb8d8692afe4deaeb509c33557618cea9af8318384bcf1b80ed5981eb48f899b3dde779ff14a192e668f4b0e064e4531436de93a20b4f57c2360aa75cb992ba81726d27bfbee28d6b733c27546b2e3a65c15b218490b8a782a29607ed07864cd7cb9f8609692e8e74bbd2d988d50b8c2b7955ab4290302de11b17301d7bd10ea934c7800991201987fb30841db8c902ee39de10f09075288a5c439f2e6755da455384024b700059d9ae3001e88f757a7caf5a5ced1378dc17a22f855d6cc47a48cc38a43ec904b51f2a0f2f01985da8ab81cef6b64f83932615842234b2e7c893de048a8b96ab09cc87b85fa36e70067b89cda772fcf50c471002f6fb85268e470151133fcd66f3478b88d54f87d3890f17269daf6e219436c7241464c8c303974085a311346a4992b85469954a88b2a8096bd5da0325d80fa60ca5cf9e8c6d6127a5e0d7f00348ec085a0a406ad329acb9c0f392ff24d951e4b516fd2971e1d306a4c1ab3dbb91a061625b2cacf937722419d0177063d229acad81b682b151fa9db63c4d43fc4afb9d9d74102b02a9914d3387f9fb06121211f468250a3e9734c6c83bedf66f731a13d8375ab210b6851"
      ],
      "sequence": 4294967294
    }
  ],
  "vout": [
    {
      "value": 1.0,
      "n": 0,
      "scriptPubKey": {
        "asm": "OP_RETURN 25173ecc22222d68b00b2b3f57ee78d489f55ade81f123deb3efaea266d1d595 5c8f5cee2087e68f39c67233d16d41a517005cc8fc1a064743406821a1ecee917caf7cce00a7c6af19e65213f14d618537207ce8dc3a26676360480181ccceb11ccf1cae60c7a6cf79863273912d01e557401c88bc5a460703002861e1acaed13cef3c8e40e786ef59a61253b10d21c577603ca89c7a662723200841c18c8ef1dc0fdc6ea007660fb946f2b351edc1259780dc487c9a86c7c3c0e8a1216c6e11fc2ffc4e8027462f9966d29371cde105b7a0fc685cbaa6e7e3e0c881014c4e319c4f9c2ee047264ff906b2f311ad8165d7c09c083cdac6878380a8e1612c2e51bc6fbc0ec067066fd92692d3318da145f7e0bc281cfae6a7a3a088c1410c0e715c8f5cee2087e68f39c67233d16d41a517005cc8fc1a064743406821a1ecee917caf7cce00a7c6af19e65213f14d618537207ce8dc3a26676360480181ccceb11ccf1cae60c7a6cf79863273912d01e557401c88bc5a460703002861e1acaed13cef3c8e40e786ef59a61253b10d21c577603ca89c7a662723200841c18c8ef1dc0fdc6ea007660fb946f2b351edc1259780dc487c9a86c7c3c0e8a1216c6e11fc2ffc4e8027462f9966d29371cde105b7a0fc685cbaa6e7e3e0c881014c4e319c4f9c2ee047264ff906b2f311ad8165d7c09c083cdac6878380a8e1612c2e51bc6fbc0ec067066fd92692d3318da145f7e0bc281cfae6a7a3a088c1410c0e715c8f5cee2087e68f39c67233d16d41a517005cc8fc1a064743406821a1ecee917caf7cce00a7c6af19e65213f14d618537207ce8dc3a26676360480181ccceb11ccf1cae60c7a6cf79863273912d01e557401c88bc5a460703002861e1acaed13cef3c8e40e786ef59a61253b10d21c577603ca89c7a662723200841c18c8ef1dc0fdc6ea007660fb946f2b351edc1259780dc487c9a86c7c3c0e8a1216c6e11fc2ffc4e8027462f9966d29371cde105b7a0fc685cbaa6e7e3e0c881014c4e319c4f9c2ee047264ff906b2f311ad8165d7c09c083cdac6878380a8e1612c2e51bc6fbc0ec067066fd92692d3318da145f7e0bc281cfae6a7a3a088c1410c0e715c8f5cee2087e68f39c67233d16d41a517005cc8fc1a064743406821a1ecee917caf7cce00a7c6af19e65213f14d618537207ce8dc3a26676360480181ccceb11ccf1cae60c7a6cf79863273912d01e557401c88bc5a460703002861e1acaed13cef3c8e40e786ef59a61253b10d21c577603ca89c7a662723200841c18c8ef1dc0fdc6ea007660fb946f2b351edc1259780dc487c9a86c7c3c0e8a1216c6e11fc2ffc4e8027462f9966d29371cde105b7a0fc685cbaa6e7e3e0c881014c4e319c4f9c2ee047264ff906b2f311ad8165d7c09c083cdac6878380a8e1612c2e51bc6fbc0ec067066fd92692d3318da145f7e0bc281cfae6a7a3a088c1410c0e715c8f5cee2087e68f39c67233d16d41a517005cc8fc1a064743406821a1ecee917caf7cce00a7c6af19e65213f14d618537207ce8dc3a26676360480181ccceb11ccf1cae60c7a6cf79863273912d01e557401c88bc5a460703002861e1acaed13cef3c8e40e786ef59a61253b10d21c577603ca89c7a662723200841c18c8ef1dc0fdc6ea007660fb946f2b351edc1253fa81a075dd9db35f70663535fa00d8425331b188ae09c9816bbd6587e1efa96",
        "hex": "6a2025173ecc22222d68b00b2b3f57ee78d489f55ade81f123deb3efaea266d1d5954db0045c8f5cee2087e68f39c67233d16d41a517005cc8fc1a064743406821a1ecee917caf7cce00a7c6af19e65213f14d618537207ce8dc3a26676360480181ccceb11ccf1cae60c7a6cf79863273912d01e557401c88bc5a460703002861e1acaed13cef3c8e40e786ef59a61253b10d21c577603ca89c7a662723200841c18c8ef1dc0fdc6ea007660fb946f2b351edc1259780dc487c9a86c7c3c0e8a1216c6e11fc2ffc4e8027462f9966d29371cde105b7a0fc685cbaa6e7e3e0c881014c4e319c4f9c2ee047264ff906b2f311ad8165d7c09c083cdac6878380a8e1612c2e51bc6fbc0ec067066fd92692d3318da145f7e0bc281cfae6a7a3a088c1410c0e715c8f5cee2087e68f39c67233d16d41a517005cc8fc1a064743406821a1ecee917caf7cce00a7c6af19e65213f14d618537207ce8dc3a26676360480181ccceb11ccf1cae60c7a6cf79863273912d01e557401c88bc5a460703002861e1acaed13cef3c8e40e786ef59a61253b10d21c577603ca89c7a662723200841c18c8ef1dc0fdc6ea007660fb946f2b351edc1259780dc487c9a86c7c3c0e8a1216c6e11fc2ffc4e8027462f9966d29371cde105b7a0fc685cbaa6e7e3e0c881014c4e319c4f9c2ee047264ff906b2f311ad8165d7c09c083cdac6878380a8e1612c2e51bc6fbc0ec067066fd92692d3318da145f7e0bc281cfae6a7a3a088c1410c0e715c8f5cee2087e68f39c67233d16d41a517005cc8fc1a064743406821a1ecee917caf7cce00a7c6af19e65213f14d618537207ce8dc3a26676360480181ccceb11ccf1cae60c7a6cf79863273912d01e557401c88bc5a460703002861e1acaed13cef3c8e40e786ef59a61253b10d21c577603ca89c7a662723200841c18c8ef1dc0fdc6ea007660fb946f2b351edc1259780dc487c9a86c7c3c0e8a1216c6e11fc2ffc4e8027462f9966d29371cde105b7a0fc685cbaa6e7e3e0c881014c4e319c4f9c2ee047264ff906b2f311ad8165d7c09c083cdac6878380a8e1612c2e51bc6fbc0ec067066fd92692d3318da145f7e0bc281cfae6a7a3a088c1410c0e715c8f5cee2087e68f39c67233d16d41a517005cc8fc1a064743406821a1ecee917caf7cce00a7c6af19e65213f14d618537207ce8dc3a26676360480181ccceb11ccf1cae60c7a6cf79863273912d01e557401c88bc5a460703002861e1acaed13cef3c8e40e786ef59a61253b10d21c577603ca89c7a662723200841c18c8ef1dc0fdc6ea007660fb946f2b351edc1259780dc487c9a86c7c3c0e8a1216c6e11fc2ffc4e8027462f9966d29371cde105b7a0fc685cbaa6e7e3e0c881014c4e319c4f9c2ee047264ff906b2f311ad8165d7c09c083cdac6878380a8e1612c2e51bc6fbc0ec067066fd92692d3318da145f7e0bc281cfae6a7a3a088c1410c0e715c8f5cee2087e68f39c67233d16d41a517005cc8fc1a064743406821a1ecee917caf7cce00a7c6af19e65213f14d618537207ce8dc3a26676360480181ccceb11ccf1cae60c7a6cf79863273912d01e557401c88bc5a460703002861e1acaed13cef3c8e40e786ef59a61253b10d21c577603ca89c7a662723200841c18c8ef1dc0fdc6ea007660fb946f2b351edc1253fa81a075dd9db35f70663535fa00d8425331b188ae09c9816bbd6587e1efa96",
        "type": "nulldata"
      }
    },
    {
      "value": 499992.8817,
      "n": 1,
      "scriptPubKey": {
        "asm": "1 4a4c40a546ddf387742f2b89dbba960aa00823c40afadd822020b36502d90b44",
        "hex": "51204a4c40a546ddf387742f2b89dbba960aa00823c40afadd822020b36502d90b44",
        "reqSigs": 1,
        "type": "witness_v1_scripthash",
        "addresses": [
          "3QJmnh"
        ]
      }
    }
  ],
  "blockhash": "86d3aa2e412fd1c0ad7fd5d7d84b7ddcf41a8bf652344eaa49dd1e6444ae5dce",
  "confirmations": 1,
  "time": 1764176858,
  "blocktime": 1764176858
}