{
  "hex": "0100000000010153dcc54abbebd4a5334262f9d3a44887a093ac27541757f27e7656a399b801330100000000feffffff0200e1f50500000000fdd5046a20a38413155474e5ed9ae754cae0bfbae786b7801d950639f02befcbc59b853bf94db004bd6252807dc45cc3f8d559c8232f959e00b51e6777e0dd0359ddc987624f01aa9d4272a05de47ce3d8f579e8030fb5be20953e4757c0fd2379fde9a7426f218afd2212c03d841c83b8951988636fd5de40f55e2737a09d43199d89c7220f41eadd0232e01da43ca398b539a8434ff5fe60d57e071780bd6339bda9e7022f61ca3de2d200fd44dc437855d948a3af151e80359ee7f7605d83d95d4907e2cf812a1dc2f220dd64fc635875f968838f353ea015bec7d7407da3f97d6927c2efa10a7da29240bd049c0338159908e3ef555ec075dea7b7201dc3991d0947a28fc16a5d82b2609d24bc231835b928c3cf757ee055fe8797003de3b93d296782afe14abd6252807dc45cc3f8d559c8232f959e00b51e6777e0dd0359ddc987624f01aa9d4272a05de47ce3d8f579e8030fb5be20953e4757c0fd2379fde9a7426f218afd2212c03d841c83b8951988636fd5de40f55e2737a09d43199d89c7220f41eadd0232e01da43ca398b539a8434ff5fe60d57e071780bd6339bda9e7022f61ca3de2d200fd44dc437855d948a3af151e80359ee7f7605d83d95d4907e2cf812a1dc2f220dd64fc635875f968838f353ea015bec7d7407da3f97d6927c2efa10a7da29240bd049c0338159908e3ef555ec075dea7b7201dc3991d0947a28fc16a5d82b2609d24bc231835b928c3cf757ee055fe8797003de3b93d296782afe14abd6252807dc45cc3f8d559c8232f959e00b51e6777e0dd0359ddc987624f01aa9d4272a05de47ce3d8f579e8030fb5be20953e4757c0fd2379fde9a7426f218afd2212c03d841c83b8951988636fd5de40f55e2737a09d43199d89c7220f41eadd0232e01da43ca398b539a8434ff5fe60d57e071780bd6339bda9e7022f61ca3de2d200fd44dc437855d948a3af151e80359ee7f7605d83d95d4907e2cf812a1dc2f220dd64fc635875f968838f353ea015bec7d7407da3f97d6927c2efa10a7da29240bd049c0338159908e3ef555ec075dea7b7201dc3991d0947a28fc16a5d82b2609d24bc231835b928c3cf757ee055fe8797003de3b93d296782afe14abd6252807dc45cc3f8d559c8232f959e00b51e6777e0dd0359ddc987624f01aa9d4272a05de47ce3d8f579e8030fb5be20953e4757c0fd2379fde9a7426f218afd2212c03d841c83b8951988636fd5de40f55e2737a09d43199d89c7220f41eadd0232e01da43ca398b539a8434ff5fe60d57e071780bd6339bda9e7022f61ca3de2d200fd44dc437855d948a3af151e80359ee7f7605d83d95d4907e2cf812a1dc2f220dd64fc635875f968838f353ea015bec7d7407da3f97d6927c2efa10a7da29240bd049c0338159908e3ef555ec075dea7b7201dc3991d0947a28fc16a5d82b2609d24bc231835b928c3cf757ee055fe8797003de3b93d296782afe14abd6252807dc45cc3f8d559c8232f959e00b51e6777e0dd0359ddc987624f01aa9d4272a05de47ce3d8f579e8030fb5be20953e4757c0fd2379fde9a7426f218afd2212c03d841c83b8951988636fd5de40f55e2737a09d43199d89c7220f41eadd0232e01da43ca398b539a8434ff5fe60d57e071780bd6339bda9e7022f61ca3de2d200fd44dc437855d948a3af151ea3b5bed298b549024ecd290b608f32aff0e883829a914185b7cd855118f1a89fa020df63792d000022512077d604483ef1ac7db39353730670c12aeb0158c1b0e429ace1160f65e39d16b602fd750961b53e52ebfa39098e1c1cc36f1a1768fe53e0c8ea240f32b540387ce1395273fcc86cbc358b7cca22a3a5fe99d022a0624b4fb123835ed2fd38946350fb4f913138334721df5d72eab0eb4edeff32dc0c1fa590909bb90a119f4ea46710311ec7967ffe0dc4533cb2f7d33c668b3119597d4bd2fde5442e8357933c23d3b644c470c4734ac72f5d2d1f533ea2ffbbba260e247fdc4ae2a88775620657829e8b6eda22500666765ab8ae4ebbd336875b1adbe7ba870678412fc182e97692c0dacd92231cd5b690161e4fdb6c58f4005871d326ae74b89f64e00f50666c509abd42bb0c3d8c736068581f705d3d99874d67b9883ccb9e9ad63e9b97c75f4e607db18544c22ab7d8bab46292bc6d183f41db814f42fb35723ae8bda6c22874bd24449fbea932ed29e24e0b9cde91dda55d4ef9615b6451e757242cf3d552942c8ae104df91d63f925d048b36d91c703fa0b3f631fa5de03a4dbd3a058b07ed4ec970094c9eb72cc17fb8f5ae184a0a4126af5852cf5d4466640d3b6544ad532cecacc3942a31c2559902d7a2c406f1ec6387bd27a459a7bed4128fc563ff470adc6448ecc02a664ce9a2f43c595eb570e5505e97858e55eb06bd0a66b717e9155020e48fd00ebe9bcfc7aa70cc060eaddb41586ccab5681037ce3d2de2d516bc8942661af1b596ba327ffbb7c182a00b450bb909c6652166e5cbf8f37fb2257c4249f8c59ec619fd46ea576efab15fafb80dfdf2aa48c2901d71c095dcd11c01ecd7ed9936adc6a083c108c1104db3c5bd8cf80839702e2b4ed9f3667f4c7772128f6046b4f34314c906f8ff42c94d4643bfa1a7850365a4f961395f5e9efd536399d3812193f2fa4ee408fa7d4249c6186e5a7f3bf36fe7a8cbb4239b3861f4b61c9a13b201edc3b487b969fe296d9dcb2c3603aa310eb84ee26f936ed7a19131a84f673068655231f075d5b9d162383583dd37b7b299579aeebc851a2de24993bd883a5411d0b251c31004565c6eff158435e813c8c27fef5dcf4e86e1414fb7b316391b7c73988a060b80172e51d4b26cb9f2af1950c6091ed8a3bf3e4b5ec7c6426a02de9e930c5a9ddb6f62f75861ec580a6ba63bcdc615f8350164dc8d20c075fbb027682e0bf1bf4dabf1e76993860d450d3a0635a9ea4765895fc2c559c723c214d3cc3c861b677ba740c5588a63700b115588a79efecbd2e0a8a337c49cdbccbb02f4ed044eb16120be9a3a7bbaba534bf496f3f1cd256f48acdab6e534e7c89181297c36d8877a0ceadbfe6703f19ef1117f9f42cf0c58596826fa6463b1908f449578a5122dc6f70e88a2c39fe9ab6ba806b0e3b4f5779e1193adeee93410db83d4574313f8e4d1fcd6ecb55fed692104c74930863b92e9434a5b5756c2ff197809649e8f51e984262103b27af213bf4fcff9bd3cbfe37b5b023cb00a185157976aafc684c8f46c11f956ddc07846049587ccd59aa68277f40aea3a20585ed5783565c3396f350d3d0b9b755d3f9d611e5da8724f63c268a8a699b42d3c0d364fa1ebf966db84c76c589183f664fee12eeda66552bd6475d54d838c87d7f9926202106371444ad0aab0d1ca2b3aefbef1f997da77c48c308d6c9bb02e3081658d3a01f80ada9891e216e0050cd10879f0c2b1c74edbbceebcbfe7c2e0b14974b57b48a31000c877f8f54bd4e852061d72b966f1e26666b8ca3512614612be8cc3960c763fc9b537281861665d2ba6fa0e3aca50a3dc2f75dd85bd93396c216beef4ae215e3a72b374d99bfe3654c24955c832941a97be61c39df9277a01791d7030c8b7d1d4bf52a91acd239c3268e9c021dfe6d64cfa121608b11dcbe97f6c5d4e930705a5d0876de24fd78ccfcd4bb97c3b0d22b33bf47f83098beb76ea0bbb424f8022e9d1d4f3a6dffb608f05a0be1365987536428f376b8565ebda6aba415ce1af6ed635394c2a228fe4d956823afad9dc70963007eb1f7850083fc919b92ef78e94566c694fedb341d5d232eff0e36df0b5ef18af088add6aa7b18c164ca3baa613792e293b6def94c2e36f4b4ce53c3ff47ac30fb56b6f2e26a8b27fe2b2530fb48474d27b6e95778792cc7ac67af486b3946160b6f85a86d3409eab72af71e99fc51fc985dc9915dbd5ff8c20619f3c61658b81bdd0618cdea35cea5e9237d2ea707d8fa5925c36f719491a65f0f1fe69f18546ecbc218d692033e6bed46dbc4ba74d6640568b2aa294b8aad7e6bc41914cc9e7eb9574ce4e74949d79c11065ab5be795810a4f5abf6f7a62556bbcc1b0e7580fcd523e8feb7a84d6e37b0db21681fa6e6e9528a35ed19ae797d99f700177a6565c1a41aabf5698062b060d94030336d2f2fd996c272d12bfd85de5321946ff2f4f7906b8899d537d011c437684a223cfb7cc3f24b77c02ef0e90e771967aa072b26fecf18a3c8b66e733866356748466f288d9742e0fa0557380217214be81acd14db3227bea24cfe3a2100572df7a0c7d2e2b8f8bf8e79e9bb7beabc5e9bad5dd45cdb827c27323debc34fd5c52bc51f40315a2032b65323016c14a299b6cf36157a85941656463c1bb2fa2c15a5230bce0aaa0d98dd3a68083deb0e8a1ae56f7ebf5206604b60217c80982d7c89a45c59ea15fab402da81bdd834b6be645717de6fade5816e62b0d6240daec091b84aba9c13bee3bbde56de01fd6b08ccb72eccc129f457ba7a626875c452bdd380680628b264adc56e85517696f9513a263e4ffcba12c0ccaf4376c64ae1c6652b73d0ba26a69e98311c4189d28d3b933a660c8c88b521880afd3ffbccd651d253e26aad41decac7b87832580b64f8e92acb68ce1459a69836bf070f6b011642e4d49c16d601342b6e829719c631616348d10cec5f4d769eb8f63716d2071b0b0dd825bd2548643731c93f8c3ae6d4da683bd4c10a43a2833d158d990cfe059d86a8c45b925910d5f794dd7743052e6d17b15dd9fe5a36f625901f556390278392e12187581824f91e83c6da6327da467e04d209e417d374e94befd7a063f31006ecea5b9bcfb342fa75c8b5e9dd122897e68a12b187160fde68287745d087cd8b76b2ab63fb099ad3b05a59a69e5515996827072baf88947828550c8a2a83b017155bf753d293cf85589a2770cca9e6e26528cf236be7533a1ba39dd79a7d9aead01ae02475141d21ec99442551cf33f6c115929dd388e633fee59c41f9c6f7cec5be2bc52340223a440c5032c17dfc9ec8cb9341da868c7139a84fe0a730d18171e1a1750da5486da14181fdcb0529963e36f76010a12172f3542474a4f5065828daab4bcd0d30223394041727a96a1a4b7bdbfc3e2ed01171d242d59618e9dbcc5cad0ebf52633353b494b5a7f88c3c9e2e40000000000000000000000000000000000001222313e01fd2105000f2e26ca6b8387be9f83afd437418b7a33b7d3ecaaba430128a4cc4f8a79ad7732c8130b2fe80324aa84724ade8dd37d6b041555113dfdf172c4bd0add50079b33d1965cfee37a9e5c3aa4d96c648949ef479a66d8716a747eb1ea2d22c074b6b8ccd7cc783d268b54d2ddc886efe3e3c5262182747d029e4ab5d4ccbe7cdf689e81d7074f51548b82bf06f71eb4805009777ee9e675ad37c4d51236ad9e1bbcb9e7e390c8a9d49d8071a655230bfaab71ef1bd52c46d7393f2a3887301e79cf86170e1a6bba4403faf6f9260c768c250b3ec6fc06a0384bc33f5cb272fe58263db91c4a32eccdbb7229d21421031c1e08acd08f30051037e5b74b64959f279f333fdbfb0723499a6b1e6eec3ce4f56a7a28de89fb994b696057f32458a61ea4d943a4e8832c43fe4bbb8447f20db32d4f2f152002d45e9b85c8bf295884c9eacbe6f650d99c17980f322dc44eb35e8ec3edb857facdef2d799188115538ee3484ae72ca533fee8ffe20bd9bc56215d5a405ed76669818e2f304d6a4ccb57d84169586afc8584b359ff1942fefe0afd501b1f9df15fbadc82938a09ff8c541525d102bfb26a04e661310ecaf5693b8f05f0518926619e771543a27ed7f304680891df33f6d98eb17896d957a322a309a6411ddb0f7c086ddd0a5575bd40474c2342af9deb2c6896fe23ff7b3a29074cd58deedf4fc28328f0d209b4acb92d252cd4979a8706b65da0547249b2ab250999e5783f87b339d72b2aff89c349307f0b9552a65a8579f6f19ab5e1df67d3fda2b4be18826b38b30d98926dfc450e7421a11d2ac27549bfa2c75503952933fea6018ca9fb929a7b275c52637265d83d73013216d095bd09671237b1d07eb6be4810f3fff37fc85cb739a2622abebbe71d8b96ebb354224e30a709b5b15f0fb99cb5127e2a64b5480206d9c7d4c11134116e133eb9262ce44ce24c454028dc4611a777a6f57fb2d530c054483d14b1923eeb92fadec6612f7732335aab26314301e60f81a8c3e4bd3e2ff6fe142a96edb642ab23102566b94d2e56c182a0836c51708d07029b2bbd6b8ab52c1e243b8df4c1ac0118347bfaef786d204ea70f26714993dc6f3156775c3a26758c92699a082ed5f972adb09438f5aebb5df2f711850a899ff8cc573c119fd552158d577f69d64f348ab31f8f1dd8af0cb86c842d7677e452e120338177d67ef236dab5f486789980c66cccc633c74507bb8c97c1daaa49dbc7991bcb745a5907fc100cd39e9fa4bb309d1e55f9dfe87f8a3a81f8efde5bbc1ca796b3725c79d86fedc86ec1f9e89475f0af89b1238487d808e2a6238e5afd19b1ee248f368925fa5eb49698514700d74a4a94985973b4ec4bc6b8c983e21f73e7cbd5d1715f676527e418b5ccd5cf3d332fff99623386a1f4a530e7d1764815085da34d40f8e4ff10a810bd036a29b52f90ad05c8da86db016064ed141a21a8c82c3761bdf70f0dcc3b28c2d8858759c7d955832a41b79088d3cd14c446d2feb5b78c425e2845618e8a81bc3f213171f4194e85471f93b0a404fa5ff8a49f783450646fff9d9cd472d27f9641b11aad7a88c126ea082577ff6f2522b7bcb65b197cb8da18298e845a00915ee0d33198765891dd2df8fd9a889303b3ee8374aceea91192903d8ec6116e3cd69a1bff9bfd268927692ed38b9b0a401c6a395e34d3c74d3a95db705e44f3fb47c3d6e50150db2d7e2f49f34c5f4a74f42e8f78d40cc4edb22c876acf5c5e6dd1eb6855dbd06b94c7ab36d8183efbcca4965040377e4fb0706d84e7be6e4b3f822c7353208b0224e4aa04a7872db4eac3967333e47f6fbaae4f5ef3e1ee6f98468000000",
  "txid": "130a7fc071272366eb6936f6aec0e59502c01c795fbd7d7d3feb4a0c586a2996",
  "hash": "309abb1af3dbb849d6ccc87f2c1e701148ba34a8068468511d63a5885e84c5be",
  "size": 5085,
  "vsize": 2278,
  "version": 1,
  "locktime": 104,
  "vin": [
    {
      "txid": "3301b899a356767ef257175427ac93a08748a4d3f9624233a5d4ebbb4ac5dc53",
      "vout": 1,
      "scriptSig": {
        "asm": "",
        "hex": ""
      },
      "txinwitness": [
        "61b53e52ebfa39098e1c1cc36f1a1768fe53e0c8ea240f32b540387ce1395273fcc86cbc358b7cca22a3a5fe99d022a0624b4fb123835ed2fd38946350fb4f913138334721df5d72eab0eb4edeff32dc0c1fa590909bb90a119f4ea46710311ec7967ffe0dc4533cb2f7d33c668b3119597d4bd2fde5442e8357933c23d3b644c470c4734ac72f5d2d1f533ea2ffbbba260e247fdc4ae2a88775620657829e8b6eda22500666765ab8ae4ebbd336875b1adbe7ba870678412fc182e97692c0dacd92231cd5b690161e4fdb6c58f4005871d326ae74b89f64e00f50666c509abd42bb0c3d8c736068581f705d3d99874d67b9883ccb9e9ad63e9b97c75f4e607db18544c22ab7d8bab46292bc6d183f41db814f42fb35723ae8bda6c22874bd24449fbea932ed29e24e0b9cde91dda55d4ef9615b6451e757242cf3d552942c8ae104df91d63f925d048b36d91c703fa0b3f631fa5de03a4dbd3a058b07ed4ec970094c9eb72cc17fb8f5ae184a0a4126af5852cf5d4466640d3b6544ad532cecacc3942a31c2559902d7a2c406f1ec6387bd27a459a7bed4128fc563ff470adc6448ecc02a664ce9a2f43c595eb570e5505e97858e55eb06bd0a66b717e9155020e48fd00ebe9bcfc7aa70cc060eaddb41586ccab5681037ce3d2de2d516bc8942661af1b596ba327ffbb7c182a00b450bb909c6652166e5cbf8f37fb2257c4249f8c59ec619fd46ea576efab15fafb80dfdf2aa48c2901d71c095dcd11c01ecd7ed9936adc6a083c108c1104db3c5bd8cf80839702e2b4ed9f3667f4c7772128f6046b4f34314c906f8ff42c94d4643bfa1a7850365a4f961395f5e9efd536399d3812193f2fa4ee408fa7d4249c6186e5a7f3bf36fe7a8cbb4239b3861f4b61c9a13b201edc3b487b969fe296d9dcb2c3603aa310eb84ee26f936ed7a19131a84f673068655231f075d5b9d162383583dd37b7b299579aeebc851a2de24993bd883a5411d0b251c31004565c6eff158435e813c8c27fef5dcf4e86e1414fb7b316391b7c73988a060b80172e51d4b26cb9f2af1950c6091ed8a3bf3e4b5ec7c6426a02de9e930c5a9ddb6f62f75861ec580a6ba63bcdc615f8350164dc8d20c075fbb027682e0bf1bf4dabf1e76993860d450d3a0635a9ea4765895fc2c559c723c214d3cc3c861b677ba740c5588a63700b115588a79efecbd2e0a8a337c49cdbccbb02f4ed044eb16120be9a3a7bbaba534bf496f3f1cd256f48acdab6e534e7c89181297c36d8877a0ceadbfe6703f19ef1117f9f42cf0c58596826fa6463b1908f449578a5122dc6f70e88a2c39fe9ab6ba806b0e3b4f5779e1193adeee93410db83d4574313f8e4d1fcd6ecb55fed692104c74930863b92e9434a5b5756c2ff197809649e8f51e984262103b27af213bf4fcff9bd3cbfe37b5b023cb00a185157976aafc684c8f46c11f956ddc07846049587ccd59aa68277f40aea3a20585ed5783565c3396f350d3d0b9b755d3f9d611e5da8724f63c268a8a699b42d3c0d364fa1ebf966db84c76c589183f664fee12eeda66552bd6475d54d838c87d7f9926202106371444ad0aab0d1ca2b3aefbef1f997da77c48c308d6c9bb02e3081658d3a01f80ada9891e216e0050cd10879f0c2b1c74edbbceebcbfe7c2e0b14974b57b48a31000c877f8f54bd4e852061d72b966f1e26666b8ca3512614612be8cc3960c763fc9b537281861665d2ba6fa0e3aca50a3dc2f75dd85bd93396c216beef4ae215e3a72b374d99bfe3654c24955c832941a97be61c39df9277a01791d7030c8b7d1d4bf52a91acd239c3268e9c021dfe6d64cfa121608b11dcbe97f6c5d4e930705a5d0876de24fd78ccfcd4bb97c3b0d22b33bf47f83098beb76ea0bbb424f8022e9d1d4f3a6dffb608f05a0be1365987536428f376b8565ebda6aba415ce1af6ed635394c2a228fe4d956823afad9dc70963007eb1f7850083fc919b92ef78e94566c694fedb341d5d232eff0e36df0b5ef18af088add6aa7b18c164ca3baa613792e293b6def94c2e36f4b4ce53c3ff47ac30fb56b6f2e26a8b27fe2b2530fb48474d27b6e95778792cc7ac67af486b3946160b6f85a86d3409eab72af71e99fc51fc985dc9915dbd5ff8c20619f3c61658b81bdd0618cdea35cea5e9237d2ea707d8fa5925c36f719491a65f0f1fe69f18546ecbc218d692033e6bed46dbc4ba74d6640568b2aa294b8aad7e6bc41914cc9e7eb9574ce4e74949d79c11065ab5be795810a4f5abf6f7a62556bbcc1b0e7580fcd523e8feb7a84d6e37b0db21681fa6e6e9528a35ed19ae797d99f700177a6565c1a41aabf5698062b060d94030336d2f2fd996c272d12bfd85de5321946ff2f4f7906b8899d537d011c437684a223cfb7cc3f24b77c02ef0e90e771967aa072b26fecf18a3c8b66e733866356748466f288d9742e0fa0557380217214be81acd14db3227bea24cfe3a2100572df7a0c7d2e2b8f8bf8e79e9bb7beabc5e9bad5dd45cdb827c27323debc34fd5c52bc51f40315a2032b65323016c14a299b6cf36157a85941656463c1bb2fa2c15a5230bce0aaa0d98dd3a68083deb0e8a1ae56f7ebf5206604b60217c80982d7c89a45c59ea15fab402da81bdd834b6be645717de6fade5816e62b0d6240daec091b84aba9c13bee3bbde56de01fd6b08ccb72eccc129f457ba7a626875c452bdd380680628b264adc56e85517696f9513a263e4ffcba12c0ccaf4376c64ae1c6652b73d0ba26a69e98311c4189d28d3b933a660c8c88b521880afd3ffbccd651d253e26aad41decac7b87832580b64f8e92acb68ce1459a69836bf070f6b011642e4d49c16d601342b6e829719c631616348d10cec5f4d769eb8f63716d2071b0b0dd825bd2548643731c93f8c3ae6d4da683bd4c10a43a2833d158d990cfe059d86a8c45b925910d5f794dd7743052e6d17b15dd9fe5a36f625901f556390278392e12187581824f91e83c6da6327da467e04d209e417d374e94befd7a063f31006ecea5b9bcfb342fa75c8b5e9dd122897e68a12b187160fde68287745d087cd8b76b2ab63fb099ad3b05a59a69e5515996827072baf88947828550c8a2a83b017155bf753d293cf85589a2770cca9e6e26528cf236be7533a1ba39dd79a7d9aead01ae02475141d21ec99442551cf33f6c115929dd388e633fee59c41f9c6f7cec5be2bc52340223a440c5032c17dfc9ec8cb9341da868c7139a84fe0a730d18171e1a1750da5486da14181fdcb0529963e36f76010a12172f3542474a4f5065828daab4bcd0d30223394041727a96a1a4b7bdbfc3e2ed01171d242d59618e9dbcc5cad0ebf52633353b494b5a7f88c3c9e2e40000000000000000000000000000000000001222313e01",
        "000f2e26ca6b8387be9f83afd437418b7a33b7d3ecaaba430128a4cc4f8a79ad7732c8130b2fe80324aa84724ade8dd37d6b041555113dfdf172c4bd0add50079b33d1965cfee37a9e5c3aa4d96c648949ef479a66d8716a747eb1ea2d22c074b6b8ccd7cc783d268b54d2ddc886efe3e3c5262182747d029e4ab5d4ccbe7cdf689e81d7074f51548b82bf06f71eb4805009777ee9e675ad37c4d51236ad9e1bbcb9e7e390c8a9d49d8071a655230bfaab71ef1bd52c46d7393f2a3887301e79cf86170e1a6bba4403faf6f9260c768c250b3ec6fc06a0384bc33f5cb272fe58263db91c4a32eccdbb7229d21421031c1e08acd08f30051037e5b74b64959f279f333fdbfb0723499a6b1e6eec3ce4f56a7a28de89fb994b696057f32458a61ea4d943a4e8832c43fe4bbb8447f20db32d4f2f152002d45e9b85c8bf295884c9eacbe6f650d99c17980f322dc44eb35e8ec3edb857facdef2d799188115538ee3484ae72ca533fee8ffe20bd9bc56215d5a405ed76669818e2f304d6a4ccb57d84169586afc8584b359ff1942fefe0afd501b1f9df15fbadc82938a09ff8c541525d102bfb26a04e661310ecaf5693b8f05f0518926619e771543a27ed7f304680891df33f6d98eb17896d957a322a309a6411ddb0f7c086ddd0a5575bd40474c2342af9deb2c6896fe23ff7b3a29074cd58deedf4fc28328f0d209b4acb92d252cd4979a8706b65da0547249b2ab250999e5783f87b339d72b2aff89c349307f0b9552a65a8579f6f19ab5e1df67d3fda2b4be18826b38b30d98926dfc450e7421a11d2ac27549bfa2c75503952933fea6018ca9fb929a7b275c52637265d83d73013216d095bd09671237b1d07eb6be4810f3fff37fc85cb739a2622abebbe71d8b96ebb354224e30a709b5b15f0fb99cb5127e2a64b5480206d9c7d4c11134116e133eb9262ce44ce24c454028dc4611a777a6f57fb2d530c054483d14b1923eeb92fadec6612f7732335aab26314301e60f81a8c3e4bd3e2ff6fe142a96edb642ab23102566b94d2e56c182a0836c51708d07029b2bbd6b8ab52c1e243b8df4c1ac0118347bfaef786d204ea70f26714993dc6f3156775c3a26758c92699a082ed5f972adb09438f5aebb5df2f711850a899ff8cc573c119fd552158d577f69d64f348ab31f8f1dd8af0cb86c842d7677e452e120338177d67ef236dab5f486789980c66cccc633c74507bb8c97c1daaa49dbc7991bcb745a5907fc100cd39e9fa4bb309d1e55f9dfe87f8a3a81f8efde5bbc1ca796b3725c79d86fedc86ec1f9e89475f0af89b1238487d808e2a6238e5afd19b1ee248f368925fa5eb49698514700d74a4a94985973b4ec4bc6b8c983e21f73e7cbd5d1715f676527e418b5ccd5cf3d332fff99623386a1f4a530e7d1764815085da34d40f8e4ff10a810bd036a29b52f90ad05c8da86db016064ed141a21a8c82c3761bdf70f0dcc3b28c2d8858759c7d955832a41b79088d3cd14c446d2feb5b78c425e2845618e8a81bc3f213171f4194e85471f93b0a404fa5ff8a49f783450646fff9d9cd472d27f9641b11aad7a88c126ea082577ff6f2522b7bcb65b197cb8da18298e845a00915ee0d33198765891dd2df8fd9a889303b3ee8374aceea91192903d8ec6116e3cd69a1bff9bfd268927692ed38b9b0a401c6a395e34d3c74d3a95db705e44f3fb47c3d6e50150db2d7e2f49f34c5f4a74f42e8f78d40cc4edb22c876acf5c5e6dd1eb6855dbd06b94c7ab36d8183efbcca4965040377e4fb0706d84e7be6e4b3f822c7353208b0224e4aa04a7872db4eac3967333e47f6fbaae4f5ef3e1ee6f984"
      ],
      "sequence": 4294967294
    }
  ],
  "vout": [
    {
      "value": 1.0,
      "n": 0,
      "scriptPubKey": {
        "asm": "OP_RETURN a38413155474e5ed9ae754cae0bfbae786b7801d950639f02befcbc59b853bf9 bd6252807dc45cc3f8d559c8232f959e00b51e6777e0dd0359ddc987624f01aa9d4272a05de47ce3d8f579e8030fb5be20953e4757c0fd2379fde9a7426f218afd2212c03d841c83b8951988636fd5de40f55e2737a09d43199d89c7220f41eadd0232e01da43ca398b539a8434ff5fe60d57e071780bd6339bda9e7022f61ca3de2d200fd44dc437855d948a3af151e80359ee7f7605d83d95d4907e2cf812a1dc2f220dd64fc635875f968838f353ea015bec7d7407da3f97d6927c2efa10a7da29240bd049c0338159908e3ef555ec075dea7b7201dc3991d0947a28fc16a5d82b2609d24bc231835b928c3cf757ee055fe8797003de3b93d296782afe14abd6252807dc45cc3f8d559c8232f959e00b51e6777e0dd0359ddc987624f01aa9d4272a05de47ce3d8f579e8030fb5be20953e4757c0fd2379fde9a7426f218afd2212c03d841c83b8951988636fd5de40f55e2737a09d43199d89c7220f41eadd0232e01da43ca398b539a8434ff5fe60d57e071780bd6339bda9e7022f61ca3de2d200fd44dc437855d948a3af151e80359ee7f7605d83d95d4907e2cf812a1dc2f220dd64fc635875f968838f353ea015bec7d7407da3f97d6927c2efa10a7da29240bd049c0338159908e3ef555ec075dea7b7201dc3991d0947a28fc16a5d82b2609d24bc231835b928c3cf757ee055fe8797003de3b93d296782afe14abd6252807dc45cc3f8d559c8232f959e00b51e6777e0dd0359ddc987624f01aa9d4272a05de47ce3d8f579e8030fb5be20953e4757c0fd2379fde9a7426f218afd2212c03d841c83b8951988636fd5de40f55e2737a09d43199d89c7220f41eadd0232e01da43ca398b539a8434ff5fe60d57e071780bd6339bda9e7022f61ca3de2d200fd44dc437855d948a3af151e80359ee7f7605d83d95d4907e2cf812a1dc2f220dd64fc635875f968838f353ea015bec7d7407da3f97d6927c2efa10a7da29240bd049c0338159908e3ef555ec075dea7b7201dc3991d0947a28fc16a5d82b2609d24bc231835b928c3cf757ee055fe8797003de3b93d296782afe14abd6252807dc45cc3f8d559c8232f959e00b51e6777e0dd0359ddc987624f01aa9d4272a05de47ce3d8f579e8030fb5be20953e4757c0fd2379fde9a7426f218afd2212c03d841c83b8951988636fd5de40f55e2737a09d43199d89c7220f41eadd0232e01da43ca398b539a8434ff5fe60d57e071780bd6339bda9e7022f61ca3de2d200fd44dc437855d948a3af151e80359ee7f7605d83d95d4907e2cf812a1dc2f220dd64fc635875f968838f353ea015bec7d7407da3f97d6927c2efa10a7da29240bd049c0338159908e3ef555ec075dea7b7201dc3991d0947a28fc16a5d82b2609d24bc231835b928c3cf757ee055fe8797003de3b93d296782afe14abd6252807dc45cc3f8d559c8232f959e00b51e6777e0dd0359ddc987624f01aa9d4272a05de47ce3d8f579e8030fb5be20953e4757c0fd2379fde9a7426f218afd2212c03d841c83b8951988636fd5de40f55e2737a09d43199d89c7220f41eadd0232e01da43ca398b539a8434ff5fe60d57e071780bd6339bda9e7022f61ca3de2d200fd44dc437855d948a3af151ea3b5bed298b549024ecd290b608f32aff0e883829a914185b7cd855118f1a89f",
        "hex": "6a20a38413155474e5ed9ae754cae0bfbae786b7801d950639f02befcbc59b853bf94db004bd6252807dc45cc3f8d559c8232f959e00b51e6777e0dd0359ddc987624f01aa9d4272a05de47ce3d8f579e8030fb5be20953e4757c0fd2379fde9a7426f218afd2212c03d841c83b8951988636fd5de40f55e2737a09d43199d89c7220f41eadd0232e01da43ca398b539a8434ff5fe60d57e071780bd6339bda9e7022f61ca3de2d200fd44dc437855d948a3af151e80359ee7f7605d83d95d4907e2cf812a1dc2f220dd64fc635875f968838f353ea015bec7d7407da3f97d6927c2efa10a7da29240bd049c0338159908e3ef555ec075dea7b7201dc3991d0947a28fc16a5d82b2609d24bc231835b928c3cf757ee055fe8797003de3b93d296782afe14abd6252807dc45cc3f8d559c8232f959e00b51e6777e0dd0359ddc987624f01aa9d4272a05de47ce3d8f579e8030fb5be20953e4757c0fd2379fde9a7426f218afd2212c03d841c83b8951988636fd5de40f55e2737a09d43199d89c7220f41eadd0232e01da43ca398b539a8434ff5fe60d57e071780bd6339bda9e7022f61ca3de2d200fd44dc437855d948a3af151e80359ee7f7605d83d95d4907e2cf812a1dc2f220dd64fc635875f968838f353ea015bec7d7407da3f97d6927c2efa10a7da29240bd049c0338159908e3ef555ec075dea7b7201dc3991d0947a28fc16a5d82b2609d24bc231835b928c3cf757ee055fe8797003de3b93d296782afe14abd6252807dc45cc3f8d559c8232f959e00b51e6777e0dd0359ddc987624f01aa9d4272a05de47ce3d8f579e8030fb5be20953e4757c0fd2379fde9a7426f218afd2212c03d841c83b8951988636fd5de40f55e2737a09d43199d89c7220f41eadd0232e01da43ca398b539a8434ff5fe60d57e071780bd6339bda9e7022f61ca3de2d200fd44dc437855d948a3af151e80359ee7f7605d83d95d4907e2cf812a1dc2f220dd64fc635875f968838f353ea015bec7d7407da3f97d6927c2efa10a7da29240bd049c0338159908e3ef555ec075dea7b7201dc3991d0947a28fc16a5d82b2609d24bc231835b928c3cf757ee055fe8797003de3b93d296782afe14abd6252807dc45cc3f8d559c8232f959e00b51e6777e0dd0359ddc987624f01aa9d4272a05de47ce3d8f579e8030fb5be20953e4757c0fd2379fde9a7426f218afd2212c03d841c83b8951988636fd5de40f55e2737a09d43199d89c7220f41eadd0232e01da43ca398b539a8434ff5fe60d57e071780bd6339bda9e7022f61ca3de2d200fd44dc437855d948a3af151e80359ee7f7605d83d95d4907e2cf812a1dc2f220dd64fc635875f968838f353ea015bec7d7407da3f97d6927c2efa10a7da29240bd049c0338159908e3ef555ec075dea7b7201dc3991d0947a28fc16a5d82b2609d24bc231835b928c3cf757ee055fe8797003de3b93d296782afe14abd6252807dc45cc3f8d559c8232f959e00b51e6777e0dd0359ddc987624f01aa9d4272a05de47ce3d8f579e8030fb5be20953e4757c0fd2379fde9a7426f218afd2212c03d841c83b8951988636fd5de40f55e2737a09d43199d89c7220f41eadd0232e01da43ca398b539a8434ff5fe60d57e071780bd6339bda9e7022f61ca3de2d200fd44dc437855d948a3af151ea3b5bed298b549024ecd290b608f32aff0e883829a914185b7cd855118f1a89f",
        "type": "nulldata"
      }
    },
    {
      "value": 499993.8986,
      "n": 1,
      "scriptPubKey": {
        "asm": "1 77d604483ef1ac7db39353730670c12aeb0158c1b0e429ace1160f65e39d16b6",
        "hex": "512077d604483ef1ac7db39353730670c12aeb0158c1b0e429ace1160f65e39d16b6",
        "reqSigs": 1,
        "type": "witness_v1_scripthash",
        "addresses": [
          "3QJmnh"
        ]
      }
    }
  ],
  "blockhash": "32a2d379a33ec88ae1cb3a8a1a44f2d12b76aebf574ecf7ac16b289397ed6cd9",
  "confirmations": 1,
  "time": 1764176557,
  "blocktime": 1764176557
}