{
  "hex": "0100000000010198aaa997abd2aed2b60337ff35eedac8f9f1740e6e8d479cc759cb333936552a0000000000feffffff0220cc6133792d0000225120dc346afa543229014e2634bad969ee2133ccc2177104373ae35c48ce45b9451600e1f50500000000fdd5046a2047a377368363acf2aa48c1c2e22e93a7d46ccaf25cf34120bedd5c537b1bd5a14db004559784bd30b9e0c62e12033194c401878c88a617cd167a2cfdeb29f2f09c817675b7a49d1099c0e60e322311b4e421a7aca88637ed365a0cddcb09d2d0bca15615d7c4fd70f9a0866e524371d48441c7ccc8e6578d563a6cbdab69b2b0dcc13635f7e4dd50d980a64e726351f4a461e7ece8c677ad761a4c9d8b499290fce116d517043db0396046ae9283b1144481070c0826974d96faac7d6ba972701c01f6f537241d901940668eb2a3913464a1272c2806b76db6da8c5d4b8952503c21d69557447df0792006eed2c3f15404c1474c4866d70dd6baec3d2be932305c41b6b577645dd0590026cef2e3d17424e1676c6846f72df69acc1d0bc912107c6196559784bd30b9e0c62e12033194c401878c88a617cd167a2cfdeb29f2f09c817675b7a49d1099c0e60e322311b4e421a7aca88637ed365a0cddcb09d2d0bca15615d7c4fd70f9a0866e524371d48441c7ccc8e6578d563a6cbdab69b2b0dcc13635f7e4dd50d980a64e726351f4a461e7ece8c677ad761a4c9d8b499290fce116d517043db0396046ae9283b1144481070c0826974d96faac7d6ba972701c01f6f537241d901940668eb2a3913464a1272c2806b76db6da8c5d4b8952503c21d69557447df0792006eed2c3f15404c1474c4866d70dd6baec3d2be932305c41b6b577645dd0590026cef2e3d17424e1676c6846f72df69acc1d0bc912107c6196559784bd30b9e0c62e12033194c401878c88a617cd167a2cfdeb29f2f09c817675b7a49d1099c0e60e322311b4e421a7aca88637ed365a0cddcb09d2d0bca15615d7c4fd70f9a0866e524371d48441c7ccc8e6578d563a6cbdab69b2b0dcc13635f7e4dd50d980a64e726351f4a461e7ece8c677ad761a4c9d8b499290fce116d517043db0396046ae9283b1144481070c0826974d96faac7d6ba972701c01f6f537241d901940668eb2a3913464a1272c2806b76db6da8c5d4b8952503c21d69557447df0792006eed2c3f15404c1474c4866d70dd6baec3d2be932305c41b6b577645dd0590026cef2e3d17424e1676c6846f72df69acc1d0bc912107c6196559784bd30b9e0c62e12033194c401878c88a617cd167a2cfdeb29f2f09c817675b7a49d1099c0e60e322311b4e421a7aca88637ed365a0cddcb09d2d0bca15615d7c4fd70f9a0866e524371d48441c7ccc8e6578d563a6cbdab69b2b0dcc13635f7e4dd50d980a64e726351f4a461e7ece8c677ad761a4c9d8b499290fce116d517043db0396046ae9283b1144481070c0826974d96faac7d6ba972701c01f6f537241d901940668eb2a3913464a1272c2806b76db6da8c5d4b8952503c21d69557447df0792006eed2c3f15404c1474c4866d70dd6baec3d2be932305c41b6b577645dd0590026cef2e3d17424e1676c6846f72df69acc1d0bc912107c6196559784bd30b9e0c62e12033194c401878c88a617cd167a2cfdeb29f2f09c817675b7a49d1099c0e60e322311b4e421a7aca88637ed365a0cddcb09d2d0bca15615d7c4fd70f9a0866e524371d48441c7ccc8e6578d563a6cbdab69b2b0dcc13635f7e4dd50d980a64e726351f4a461e7ece8c677ad761a4c9d8b499290fce116d517043db0396046ae9283b1144481076671276984411e1b788b3fdb1a37ef09a43df41a4f7df146d22caee113ef1b7702fd7509d1814014559bad423e0b0a30c74a32cb4080a2229e37f94c6432a18d490636d1bf29d6bdc62321fcc1cef5961e43200fb805b081f20c38ab9139d0c5ec3c6aa3e639232ccbc128daa6ab6f8265de51ac71f616f3c49ebaa261c9a7ae0ef5cfd116ed2921adcff65ec4bb2820b0687757533ae23c3fccd927360963a21e1960b8508609e2b7ad2ff7c8b141abcf9ff5b16aa6883e4a7d4979aa6dbed149c434daa1d94ed32d5ebf51866a0fb2f64843346dc95d85b7e5bdca8b834ce57c8581a1bab723f7ae0a242ebc24372c079485a81359536b02e2de0e51de9f31548bc77e9a6ece4e2e0789f505a4dde969704f453588961e5627132e96af3ba799f94ab28f47d8986e995ff2ab795a6b373d8986d53a554c8b2c6c4fee3f580aaa11d3e86605e1beb8b68ba65dd2f0fa900b8725e630f62966f6e29443fc6e0bac9f3291412eab31c2c83c85dc91c582c626154b42a2f0c90419b72f964925bac128cef66fb93aff7d45a6ad938b5542f4ec4842902cc1e34dc2611ac631d31e858586b03f22b884a28109837910d67c2917860909fd42535265bdb92d89528765307bd33fa6775767d9198f7fb9a6dd4cf29739764203e31952831fab29439cca8815fc191dcd0515e62f5392a680a54edec21c440f85ecd6cf2f65348fcfce139e555e6d5e2e13cff96e22de2b86a1c4419704e8c3bde4ec8b44d372eb9de9e2c30d8ecb8f11052a448026d1652bb31299274673e6c975dff79c94c974711c7b1acab1b8f65c34875b9feb414a089641a1c6d07aa78a213aeae664015ad52892c0fe4fe98e2b348b89c4306d5c3252a1e59763a3fa29c69a4f1c62470337737d99ca32e1ece04c610971d0028412bc1e8fb58cecb67eb7b0f320e735259a9d4a29353bba37b50729fa3ac5cbd68ba54ec1676cde4db3c45cea0ac5616b03764d2a109f4ff2edd427a3910ef55d8b3f5c1520bd76972a9f58dcf9ba98dd5ec7abfec542c90cd655b4da9d4134ac95a87e2ee77264565d9ae4eb891a998ea8452bb6fdd4ef53323a73e9ca62057016071cd09ad6e286cd103132524ea75002a00ed4c0886d90a657f7dd9ea925973b1fa37b8cdf916313d92b6af8f6b211522ae42c5515f251982ea2275fe35298d666b492de6663b3998cf148093c9a8045fb180198deabafd11d926ba1b1a1bdcc04eb6f99e50ef00ed117f2c84023393f1d35495ce8832ed921de13ce5f7f83f42071a9e584fbe291000f7e94823f3f40c1c513b10587fb1ea9720c5f6361cfb12ab15ac2517863e903bf3c93adfd872d1846cb41db7c8a1e67fa77b6bba3b2cab621e354ede0f09c414f59500994507d703600768948fb1cf82a9686fe2a13e694edc96c0e4af8359dd251c535fb8f878cf20b28054bbd76b73e0d3de029b20498e58cb01711a46c055b1f49f05dc26470b79499d4fdd57cc7ec53ba57ed983dceb1ed85c631cf36cd8f0a6cf28cfab23b223ff4725fa81909aa2318c519d3262b76285ff39aa22d819b75a7fe6628c3147f5b5ba64399a02cb9fd0160426c5dfcf8bccef0f71518df44bb8852442cdca29e547fc901ba51b8e5a3eba6a4e3278e6e77ef2b843fb77a5c7fc3ca6f94cb8b6766d9808985a807d096916ab4db56e9cb61bb243c6ca1cba607e1d6c90020810d87ab1258ddc14d22b4bb3b543e62291636014ceeec9f717bc028fbe39cb1854b0b8e9f16f6703b367886eaeaae0953612e1267810708dc55ed3a922af292aa5e978b88e1066d5a4c463ecb166ba3209279c3bfff67a32d911f62ce9ee9c0877c828917266c7a18f902ba7a5e2bd8a6cbf3119f4164956558ffbeb5cabaf1b3a87d114bb0b0cf83d226736fa7aca00160af40280864cce5c3b9451593fe5d87e3b1da2d2abd699b62ae862fdf81c75459706915a55569a2e06d8f5ea4d1d75486811b7e651ed94fc115d1959a60555a194d0ffb97cffe67be4b19a7a4bffda84c0421e5fbab5f0b96ac1529e73af874de02a74ef512d8f407d5254373dae2e8fbfc164a79223f11d94b28ecdd395cc0b4dc7ec77e4d895d52c622c6e35bfb2278d7fcc0536c8fe35dd564a7bd4e6c199186152e17ae30b3f2268e74fdff37e3f29d346f9aca89791c3504e8b68215c9ffbfe902ad0cec5d02877532dc2321819bbbacca387be67a4118658c2d8a87553eb749bf18f8129933e50131bea998a97c951231586c6ca647015f472c93cdcccb994721638004ddce3e6f58a03fc3ef1301435511c97f28cf2b39441ca2993c63aa98739767ab6e1a32ffd73ba7426723c55980310c8f564996101b1b5833ea8acd8e9e8cdc34576e59c54cfd707e77e75be70b00f4b914831f939e5cef3358fb45d7c133fde910a41b065e538b1df2db4fed8d9d321c945d844af880f344bc8e1580ca23659e4b1ac601c286649d68e54ebb051fb71f08c7e641992ab1e22d15f48fbe4e32a09188a2f147eae77078979c1e709eb14fb481605fc043ad04a5a04ac511c5147264119ef446ae46a6ab805641b09f6138cae2317210789abbafb9297dab1b771d523eb83113b8d72597b04f2f22e50b2696437dc6b0c149e5966a7643655558ca40cb277734552bd0260384ea93a464a747d998a054b7e8e903f5802d054a5c91dbe388329981b839775b1893f58d1ba26e7cb60ede4930accd974c45a5e68f688e756297aac5cbbcaa93237970b011078502761daec4ab04407aa99786ca97e388de321c9a31a65cd02d8112093e99eb327a554efd8bf3ab2c114dbcc5e583f131921f437894cded2c61a5d64a77c35384dc12529d7cd2fa12a0d979247fac46aca072eaa43b64693745d51bf9e923943675e13d9186c397ef8cc6dba62ea6839f845eadd4b839eab6340dfcf88e14d6125c6366b6e4e944bc8752aacafc86771ab4daa1f04e83dedb5a77fc0be3b7f1a83767c6f65ec88a0922510fb85f985f9d6d5359d052ef3991fa2706dd4b770a64dd183ae7f8f6f058fa0ac5234ab6556321fea5947ba646d301c6a25ab8ff4d8379b07c43eaf23436e72bd667aa2cc9b7d94b962c17449fcf070fc760814a683a6b1aac57699666647ae8085748624349c40f5b5babea8f8fe2bd83fdc7a5166fc9546da29a2dad368189ba6a252424ceb4dbbc9822bb62663e3a5da2e3a082e4031e202b6e7b0af10c1ffb71e386bd48b16d6093b819ab46bbf4a07bcda8decdb980fb54d537408d4e0ba37e267c087b7b9fc309d5aa65f30ac22751c7dcbd5db69c4cce8efc9c80f80323c8ea231dc4024718eb5a37f7a9a2eacede080f1129888995b1c4d9e3ecf0f23342456f717e8f97a0a7c4d6d7dbdfe8f7ff4d51528085979ba8afbed3dc01070c0d10202c3c40414b6669747d8097c5d4d7d9ecf1f60000000000000000000000000e202c4401fd210500a147604c32203d59dde29ce5e85430aeecf6e0ed7b3184ff86b0067d3c2ff85198189d704f682ba9579528900fad7fd500ee90fa0247afea416e72d780495d020709eb1318cfe428622b4c67f9f5d70cad30b0f724eacccc5f58b1480bb91fa044ea9b4a449b5e9a22457898cafd89f944a1bce81fb4673de9315f6b4408bc84b4f9079f2c6a0f6484b30f2dc8598f8842a5a1158ab31f53d19220b4bc6b8099aa67520242d307f2c31c419a8e123ddf7fa8f1fe5d0398e18b8d78045df2ebfb69b12f780ae511bf75d274388428a16b9e32a9fb87934c181a7d4e3f17c50fe5b5122bd083e4251d9c467623d23564a30d7a241a2266a96e3ae606059f85d187703813316eaabf77191b43a4e8c7580c0bae8b4f7ec066acb7d7c695c56f4dd77906be78e36a4345c277ab183a2ddd28c563771a0757797eabb231b7810b4c8e06132c7197331b2bcd7d59a23f65be2ebc97df4b5b8ba98226b8329a4938bcc5e642b66ccb30e40560a7b307f9b20a3a39837f66d96e4ec89ccaad67ccb113a2737701e48c9f7c7453cf29ab0aca75ffbda64a70f4c040454684cff6c17d61d3d90d5d0601f896f1360758d21920e43723ca887492dd1f0742e9e871c41ff8878057cc24451cd28d5cb7c32035578918ab725be5cac5475c452d778aeebbdfc742d419292312a0141559e514132834bc173d6bcc77ce9e8dc07c929a7e7eda19256f5c78431cd5ebd45ee70b912d1efec992bd86c6b30ad80ec8bd58185d487e12731a597cb75c39644a678c8f85e37f6ba1e3acf34b02207874f8ff03a30472bf2fcc328985b339711576b1d00691e10c0a284d324171797b63ff5774d604b26a267ea53a69d3fb1fc3e3bb5113f5e8d830a0837fb20bf6033005ba5503439aa2828e6b9178d438c5330f5d5d59f14c57744137b0c7c04beb04bbebe8c2f2453e6b8cc2451578f8efa9d2416e52d665ae6f3e391b67d64b1e2b96c9a36431f94bf58f7342e9a53224cc850a783f9a5dce8c21fc3b9c36e8596d51325375aff2ffed3a2e0094c37d5f1d7a323a9aa2f53aca78a2951d8096018f91e55b42afad9552f9103f2da84ef27d7f96fdc3f505e8b9292bb291bd7c7eca55440611aa8cddb870e298a014f1497584fc19e913c56d65fd80dbd91a87a5f3f9f1e1f65cb89673a5267ff4e5c4d9b4082451e9f24083cc01998aae6aa755b8f611788855cc550e66217f15f67b70cc6a6295d092c0aa620d807f0a3ded20055b6a6fe0d381131d11b5abae0e7ac27db8b614b2e47c1761ab694d8f79cfc4b8715419826133646b0b699b6797672264dfccf92a50231105b5bb18f5b435909750f2539c01466a7236c2b124ab06431dcd0ed6173356fce338b09abe0efa493d62b5a9870662a73b58ec859b33429544f9d0537c00c88d397cd4d9aed8227bffec7fd545a18a5a6df1497062ae52e18cc92b8fb91b399bed2789c28e1089ddf670bd723e64093db79561ab83f5a1c887f539ebbf467c5a7cb72c59f02476abab9817dbf3f92dabc8bbdecfe202af4da964996acc76c6942c79ec97a80c22b7d98202f0c3b7615e102b711c99270f7c8284856e4a643f5c5d05b01d21cd0d7ba95bad5a095a0267b776e999410721243acf4a15ea69246989de49e6f94076a58bc23d74db4a8ab35e640cf83f995e7ebc5f6359676bfb9ce728f18763fe1957f3dfc11f9cabe9e5b9100304e80eac31baf55b9b043671f12bf97eb432f7831e7a6a4ff5a5c142f6ad11610f3a172367717396ed4bdde8bbc943d25482b838906b541a83f25ce3aac5221568596f7413bb29cb1ae0269b207184b6a25be42fb906ea18aa1762f37b000000",
  "txid": "19a2c13975279d00114f7036942dd5bee6e6ba3d1cb41c71ee01d0f53a7dc29b",
  "hash": "23a1665c722e87a804eb700f0454af073834aa88287e03391600595dd125a899",
  "size": 5085,
  "vsize": 2278,
  "version": 1,
  "locktime": 123,
  "vin": [
    {
      "txid": "2a55363933cb59c79c478d6e0e74f1f9c8daee35ff3703b6d2aed2ab97a9aa98",
      "vout": 0,
      "scriptSig": {
        "asm": "",
        "hex": ""
      },
      "txinwitness": [
        "d1814014559bad423e0b0a30c74a32cb4080a2229e37f94c6432a18d490636d1bf29d6bdc62321fcc1cef5961e43200fb805b081f20c38ab9139d0c5ec3c6aa3e639232ccbc128daa6ab6f8265de51ac71f616f3c49ebaa261c9a7ae0ef5cfd116ed2921adcff65ec4bb2820b0687757533ae23c3fccd927360963a21e1960b8508609e2b7ad2ff7c8b141abcf9ff5b16aa6883e4a7d4979aa6dbed149c434daa1d94ed32d5ebf51866a0fb2f64843346dc95d85b7e5bdca8b834ce57c8581a1bab723f7ae0a242ebc24372c079485a81359536b02e2de0e51de9f31548bc77e9a6ece4e2e0789f505a4dde969704f453588961e5627132e96af3ba799f94ab28f47d8986e995ff2ab795a6b373d8986d53a554c8b2c6c4fee3f580aaa11d3e86605e1beb8b68ba65dd2f0fa900b8725e630f62966f6e29443fc6e0bac9f3291412eab31c2c83c85dc91c582c626154b42a2f0c90419b72f964925bac128cef66fb93aff7d45a6ad938b5542f4ec4842902cc1e34dc2611ac631d31e858586b03f22b884a28109837910d67c2917860909fd42535265bdb92d89528765307bd33fa6775767d9198f7fb9a6dd4cf29739764203e31952831fab29439cca8815fc191dcd0515e62f5392a680a54edec21c440f85ecd6cf2f65348fcfce139e555e6d5e2e13cff96e22de2b86a1c4419704e8c3bde4ec8b44d372eb9de9e2c30d8ecb8f11052a448026d1652bb31299274673e6c975dff79c94c974711c7b1acab1b8f65c34875b9feb414a089641a1c6d07aa78a213aeae664015ad52892c0fe4fe98e2b348b89c4306d5c3252a1e59763a3fa29c69a4f1c62470337737d99ca32e1ece04c610971d0028412bc1e8fb58cecb67eb7b0f320e735259a9d4a29353bba37b50729fa3ac5cbd68ba54ec1676cde4db3c45cea0ac5616b03764d2a109f4ff2edd427a3910ef55d8b3f5c1520bd76972a9f58dcf9ba98dd5ec7abfec542c90cd655b4da9d4134ac95a87e2ee77264565d9ae4eb891a998ea8452bb6fdd4ef53323a73e9ca62057016071cd09ad6e286cd103132524ea75002a00ed4c0886d90a657f7dd9ea925973b1fa37b8cdf916313d92b6af8f6b211522ae42c5515f251982ea2275fe35298d666b492de6663b3998cf148093c9a8045fb180198deabafd11d926ba1b1a1bdcc04eb6f99e50ef00ed117f2c84023393f1d35495ce8832ed921de13ce5f7f83f42071a9e584fbe291000f7e94823f3f40c1c513b10587fb1ea9720c5f6361cfb12ab15ac2517863e903bf3c93adfd872d1846cb41db7c8a1e67fa77b6bba3b2cab621e354ede0f09c414f59500994507d703600768948fb1cf82a9686fe2a13e694edc96c0e4af8359dd251c535fb8f878cf20b28054bbd76b73e0d3de029b20498e58cb01711a46c055b1f49f05dc26470b79499d4fdd57cc7ec53ba57ed983dceb1ed85c631cf36cd8f0a6cf28cfab23b223ff4725fa81909aa2318c519d3262b76285ff39aa22d819b75a7fe6628c3147f5b5ba64399a02cb9fd0160426c5dfcf8bccef0f71518df44bb8852442cdca29e547fc901ba51b8e5a3eba6a4e3278e6e77ef2b843fb77a5c7fc3ca6f94cb8b6766d9808985a807d096916ab4db56e9cb61bb243c6ca1cba607e1d6c90020810d87ab1258ddc14d22b4bb3b543e62291636014ceeec9f717bc028fbe39cb1854b0b8e9f16f6703b367886eaeaae0953612e1267810708dc55ed3a922af292aa5e978b88e1066d5a4c463ecb166ba3209279c3bfff67a32d911f62ce9ee9c0877c828917266c7a18f902ba7a5e2bd8a6cbf3119f4164956558ffbeb5cabaf1b3a87d114bb0b0cf83d226736fa7aca00160af40280864cce5c3b9451593fe5d87e3b1da2d2abd699b62ae862fdf81c75459706915a55569a2e06d8f5ea4d1d75486811b7e651ed94fc115d1959a60555a194d0ffb97cffe67be4b19a7a4bffda84c0421e5fbab5f0b96ac1529e73af874de02a74ef512d8f407d5254373dae2e8fbfc164a79223f11d94b28ecdd395cc0b4dc7ec77e4d895d52c622c6e35bfb2278d7fcc0536c8fe35dd564a7bd4e6c199186152e17ae30b3f2268e74fdff37e3f29d346f9aca89791c3504e8b68215c9ffbfe902ad0cec5d02877532dc2321819bbbacca387be67a4118658c2d8a87553eb749bf18f8129933e50131bea998a97c951231586c6ca647015f472c93cdcccb994721638004ddce3e6f58a03fc3ef1301435511c97f28cf2b39441ca2993c63aa98739767ab6e1a32ffd73ba7426723c55980310c8f564996101b1b5833ea8acd8e9e8cdc34576e59c54cfd707e77e75be70b00f4b914831f939e5cef3358fb45d7c133fde910a41b065e538b1df2db4fed8d9d321c945d844af880f344bc8e1580ca23659e4b1ac601c286649d68e54ebb051fb71f08c7e641992ab1e22d15f48fbe4e32a09188a2f147eae77078979c1e709eb14fb481605fc043ad04a5a04ac511c5147264119ef446ae46a6ab805641b09f6138cae2317210789abbafb9297dab1b771d523eb83113b8d72597b04f2f22e50b2696437dc6b0c149e5966a7643655558ca40cb277734552bd0260384ea93a464a747d998a054b7e8e903f5802d054a5c91dbe388329981b839775b1893f58d1ba26e7cb60ede4930accd974c45a5e68f688e756297aac5cbbcaa93237970b011078502761daec4ab04407aa99786ca97e388de321c9a31a65cd02d8112093e99eb327a554efd8bf3ab2c114dbcc5e583f131921f437894cded2c61a5d64a77c35384dc12529d7cd2fa12a0d979247fac46aca072eaa43b64693745d51bf9e923943675e13d9186c397ef8cc6dba62ea6839f845eadd4b839eab6340dfcf88e14d6125c6366b6e4e944bc8752aacafc86771ab4daa1f04e83dedb5a77fc0be3b7f1a83767c6f65ec88a0922510fb85f985f9d6d5359d052ef3991fa2706dd4b770a64dd183ae7f8f6f058fa0ac5234ab6556321fea5947ba646d301c6a25ab8ff4d8379b07c43eaf23436e72bd667aa2cc9b7d94b962c17449fcf070fc760814a683a6b1aac57699666647ae8085748624349c40f5b5babea8f8fe2bd83fdc7a5166fc9546da29a2dad368189ba6a252424ceb4dbbc9822bb62663e3a5da2e3a082e4031e202b6e7b0af10c1ffb71e386bd48b16d6093b819ab46bbf4a07bcda8decdb980fb54d537408d4e0ba37e267c087b7b9fc309d5aa65f30ac22751c7dcbd5db69c4cce8efc9c80f80323c8ea231dc4024718eb5a37f7a9a2eacede080f1129888995b1c4d9e3ecf0f23342456f717e8f97a0a7c4d6d7dbdfe8f7ff4d51528085979ba8afbed3dc01070c0d10202c3c40414b6669747d8097c5d4d7d9ecf1f60000000000000000000000000e202c4401",
        "00a147604c32203d59dde29ce5e85430aeecf6e0ed7b3184ff86b0067d3c2ff85198189d704f682ba9579528900fad7fd500ee90fa0247afea416e72d780495d020709eb1318cfe428622b4c67f9f5d70cad30b0f724eacccc5f58b1480bb91fa044ea9b4a449b5e9a22457898cafd89f944a1bce81fb4673de9315f6b4408bc84b4f9079f2c6a0f6484b30f2dc8598f8842a5a1158ab31f53d19220b4bc6b8099aa67520242d307f2c31c419a8e123ddf7fa8f1fe5d0398e18b8d78045df2ebfb69b12f780ae511bf75d274388428a16b9e32a9fb87934c181a7d4e3f17c50fe5b5122bd083e4251d9c467623d23564a30d7a241a2266a96e3ae606059f85d187703813316eaabf77191b43a4e8c7580c0bae8b4f7ec066acb7d7c695c56f4dd77906be78e36a4345c277ab183a2ddd28c563771a0757797eabb231b7810b4c8e06132c7197331b2bcd7d59a23f65be2ebc97df4b5b8ba98226b8329a4938bcc5e642b66ccb30e40560a7b307f9b20a3a39837f66d96e4ec89ccaad67ccb113a2737701e48c9f7c7453cf29ab0aca75ffbda64a70f4c040454684cff6c17d61d3d90d5d0601f896f1360758d21920e43723ca887492dd1f0742e9e871c41ff8878057cc24451cd28d5cb7c32035578918ab725be5cac5475c452d778aeebbdfc742d419292312a0141559e514132834bc173d6bcc77ce9e8dc07c929a7e7eda19256f5c78431cd5ebd45ee70b912d1efec992bd86c6b30ad80ec8bd58185d487e12731a597cb75c39644a678c8f85e37f6ba1e3acf34b02207874f8ff03a30472bf2fcc328985b339711576b1d00691e10c0a284d324171797b63ff5774d604b26a267ea53a69d3fb1fc3e3bb5113f5e8d830a0837fb20bf6033005ba5503439aa2828e6b9178d438c5330f5d5d59f14c57744137b0c7c04beb04bbebe8c2f2453e6b8cc2451578f8efa9d2416e52d665ae6f3e391b67d64b1e2b96c9a36431f94bf58f7342e9a53224cc850a783f9a5dce8c21fc3b9c36e8596d51325375aff2ffed3a2e0094c37d5f1d7a323a9aa2f53aca78a2951d8096018f91e55b42afad9552f9103f2da84ef27d7f96fdc3f505e8b9292bb291bd7c7eca55440611aa8cddb870e298a014f1497584fc19e913c56d65fd80dbd91a87a5f3f9f1e1f65cb89673a5267ff4e5c4d9b4082451e9f24083cc01998aae6aa755b8f611788855cc550e66217f15f67b70cc6a6295d092c0aa620d807f0a3ded20055b6a6fe0d381131d11b5abae0e7ac27db8b614b2e47c1761ab694d8f79cfc4b8715419826133646b0b699b6797672264dfccf92a50231105b5bb18f5b435909750f2539c01466a7236c2b124ab06431dcd0ed6173356fce338b09abe0efa493d62b5a9870662a73b58ec859b33429544f9d0537c00c88d397cd4d9aed8227bffec7fd545a18a5a6df1497062ae52e18cc92b8fb91b399bed2789c28e1089ddf670bd723e64093db79561ab83f5a1c887f539ebbf467c5a7cb72c59f02476abab9817dbf3f92dabc8bbdecfe202af4da964996acc76c6942c79ec97a80c22b7d98202f0c3b7615e102b711c99270f7c8284856e4a643f5c5d05b01d21cd0d7ba95bad5a095a0267b776e999410721243acf4a15ea69246989de49e6f94076a58bc23d74db4a8ab35e640cf83f995e7ebc5f6359676bfb9ce728f18763fe1957f3dfc11f9cabe9e5b9100304e80eac31baf55b9b043671f12bf97eb432f7831e7a6a4ff5a5c142f6ad11610f3a172367717396ed4bdde8bbc943d25482b838906b541a83f25ce3aac5221568596f7413bb29cb1ae0269b207184b6a25be42fb906ea18aa1762f3"
      ],
      "sequence": 4294967294
    }
  ],
  "vout": [
    {
      "value": 499985.7634,
      "n": 0,
      "scriptPubKey": {
        "asm": "1 dc346afa543229014e2634bad969ee2133ccc2177104373ae35c48ce45b94516",
        "hex": "5120dc346afa543229014e2634bad969ee2133ccc2177104373ae35c48ce45b94516",
        "reqSigs": 1,
        "type": "witness_v1_scripthash",
        "addresses": [
          "3QJmnh"
        ]
      }
    },
    {
      "value": 1.0,
      "n": 1,
      "scriptPubKey": {
        "asm": "OP_RETURN 47a377368363acf2aa48c1c2e22e93a7d46ccaf25cf34120bedd5c537b1bd5a1 559784bd30b9e0c62e12033194c401878c88a617cd167a2cfdeb29f2f09c817675b7a49d1099c0e60e322311b4e421a7aca88637ed365a0cddcb09d2d0bca15615d7c4fd70f9a0866e524371d48441c7ccc8e6578d563a6cbdab69b2b0dcc13635f7e4dd50d980a64e726351f4a461e7ece8c677ad761a4c9d8b499290fce116d517043db0396046ae9283b1144481070c0826974d96faac7d6ba972701c01f6f537241d901940668eb2a3913464a1272c2806b76db6da8c5d4b8952503c21d69557447df0792006eed2c3f15404c1474c4866d70dd6baec3d2be932305c41b6b577645dd0590026cef2e3d17424e1676c6846f72df69acc1d0bc912107c6196559784bd30b9e0c62e12033194c401878c88a617cd167a2cfdeb29f2f09c817675b7a49d1099c0e60e322311b4e421a7aca88637ed365a0cddcb09d2d0bca15615d7c4fd70f9a0866e524371d48441c7ccc8e6578d563a6cbdab69b2b0dcc13635f7e4dd50d980a64e726351f4a461e7ece8c677ad761a4c9d8b499290fce116d517043db0396046ae9283b1144481070c0826974d96faac7d6ba972701c01f6f537241d901940668eb2a3913464a1272c2806b76db6da8c5d4b8952503c21d69557447df0792006eed2c3f15404c1474c4866d70dd6baec3d2be932305c41b6b577645dd0590026cef2e3d17424e1676c6846f72df69acc1d0bc912107c6196559784bd30b9e0c62e12033194c401878c88a617cd167a2cfdeb29f2f09c817675b7a49d1099c0e60e322311b4e421a7aca88637ed365a0cddcb09d2d0bca15615d7c4fd70f9a0866e524371d48441c7ccc8e6578d563a6cbdab69b2b0dcc13635f7e4dd50d980a64e726351f4a461e7ece8c677ad761a4c9d8b499290fce116d517043db0396046ae9283b1144481070c0826974d96faac7d6ba972701c01f6f537241d901940668eb2a3913464a1272c2806b76db6da8c5d4b8952503c21d69557447df0792006eed2c3f15404c1474c4866d70dd6baec3d2be932305c41b6b577645dd0590026cef2e3d17424e1676c6846f72df69acc1d0bc912107c6196559784bd30b9e0c62e12033194c401878c88a617cd167a2cfdeb29f2f09c817675b7a49d1099c0e60e322311b4e421a7aca88637ed365a0cddcb09d2d0bca15615d7c4fd70f9a0866e524371d48441c7ccc8e6578d563a6cbdab69b2b0dcc13635f7e4dd50d980a64e726351f4a461e7ece8c677ad761a4c9d8b499290fce116d517043db0396046ae9283b1144481070c0826974d96faac7d6ba972701c01f6f537241d901940668eb2a3913464a1272c2806b76db6da8c5d4b8952503c21d69557447df0792006eed2c3f15404c1474c4866d70dd6baec3d2be932305c41b6b577645dd0590026cef2e3d17424e1676c6846f72df69acc1d0bc912107c6196559784bd30b9e0c62e12033194c401878c88a617cd167a2cfdeb29f2f09c817675b7a49d1099c0e60e322311b4e421a7aca88637ed365a0cddcb09d2d0bca15615d7c4fd70f9a0866e524371d48441c7ccc8e6578d563a6cbdab69b2b0dcc13635f7e4dd50d980a64e726351f4a461e7ece8c677ad761a4c9d8b499290fce116d517043db0396046ae9283b1144481076671276984411e1b788b3fdb1a37ef09a43df41a4f7df146d22caee113ef1b77",
        "hex": "6a2047a377368363acf2aa48c1c2e22e93a7d46ccaf25cf34120bedd5c537b1bd5a14db004559784bd30b9e0c62e12033194c401878c88a617cd167a2cfdeb29f2f09c817675b7a49d1099c0e60e322311b4e421a7aca88637ed365a0cddcb09d2d0bca15615d7c4fd70f9a0866e524371d48441c7ccc8e6578d563a6cbdab69b2b0dcc13635f7e4dd50d980a64e726351f4a461e7ece8c677ad761a4c9d8b499290fce116d517043db0396046ae9283b1144481070c0826974d96faac7d6ba972701c01f6f537241d901940668eb2a3913464a1272c2806b76db6da8c5d4b8952503c21d69557447df0792006eed2c3f15404c1474c4866d70dd6baec3d2be932305c41b6b577645dd0590026cef2e3d17424e1676c6846f72df69acc1d0bc912107c6196559784bd30b9e0c62e12033194c401878c88a617cd167a2cfdeb29f2f09c817675b7a49d1099c0e60e322311b4e421a7aca88637ed365a0cddcb09d2d0bca15615d7c4fd70f9a0866e524371d48441c7ccc8e6578d563a6cbdab69b2b0dcc13635f7e4dd50d980a64e726351f4a461e7ece8c677ad761a4c9d8b499290fce116d517043db0396046ae9283b1144481070c0826974d96faac7d6ba972701c01f6f537241d901940668eb2a3913464a1272c2806b76db6da8c5d4b8952503c21d69557447df0792006eed2c3f15404c1474c4866d70dd6baec3d2be932305c41b6b577645dd0590026cef2e3d17424e1676c6846f72df69acc1d0bc912107c6196559784bd30b9e0c62e12033194c401878c88a617cd167a2cfdeb29f2f09c817675b7a49d1099c0e60e322311b4e421a7aca88637ed365a0cddcb09d2d0bca15615d7c4fd70f9a0866e524371d48441c7ccc8e6578d563a6cbdab69b2b0dcc13635f7e4dd50d980a64e726351f4a461e7ece8c677ad761a4c9d8b499290fce116d517043db0396046ae9283b1144481070c0826974d96faac7d6ba972701c01f6f537241d901940668eb2a3913464a1272c2806b76db6da8c5d4b8952503c21d69557447df0792006eed2c3f15404c1474c4866d70dd6baec3d2be932305c41b6b577645dd0590026cef2e3d17424e1676c6846f72df69acc1d0bc912107c6196559784bd30b9e0c62e12033194c401878c88a617cd167a2cfdeb29f2f09c817675b7a49d1099c0e60e322311b4e421a7aca88637ed365a0cddcb09d2d0bca15615d7c4fd70f9a0866e524371d48441c7ccc8e6578d563a6cbdab69b2b0dcc13635f7e4dd50d980a64e726351f4a461e7ece8c677ad761a4c9d8b499290fce116d517043db0396046ae9283b1144481070c0826974d96faac7d6ba972701c01f6f537241d901940668eb2a3913464a1272c2806b76db6da8c5d4b8952503c21d69557447df0792006eed2c3f15404c1474c4866d70dd6baec3d2be932305c41b6b577645dd0590026cef2e3d17424e1676c6846f72df69acc1d0bc912107c6196559784bd30b9e0c62e12033194c401878c88a617cd167a2cfdeb29f2f09c817675b7a49d1099c0e60e322311b4e421a7aca88637ed365a0cddcb09d2d0bca15615d7c4fd70f9a0866e524371d48441c7ccc8e6578d563a6cbdab69b2b0dcc13635f7e4dd50d980a64e726351f4a461e7ece8c677ad761a4c9d8b499290fce116d517043db0396046ae9283b1144481076671276984411e1b788b3fdb1a37ef09a43df41a4f7df146d22caee113ef1b77",
        "type": "nulldata"
      }
    }
  ],
  "blockhash": "3f7b66b34673dd56727b9b27d02dfa4f8333ff75e8b72ddccb546061f2a7d063",
  "confirmations": 1,
  "time": 1764180681,
  "blocktime": 1764180681
}