{
  "hex": "01000000000101973ba54e5934a2ba7c67c3deb13d2218973273b37a15215b1f128b133694415c0100000000feffffff0200e1f50500000000fdd5046a202bd3cefead6c0a3c033fd2d81c0f21f9748b494b7ced4b748fb283dfa148b9724db0040d3ccdf5f6f73e592bcef805729faaab936238b416e15f12288565d7760262c42d1cedd5d6d71e790beed82552bf8a8bb342189436c17f3208a545f7562242e44d7c8db5b6b77e196b8eb84532dfeaebd32278f456a11f5268c52597364222846d5cad9596975e394bae986512ffcacbf30258d476813f7248e505b7166202a48dbc4d757677bed9ab4e7885f21f2a2b13e2b8349661df92a805e557f682e244ad9c6d5556579ef98b6e58a5d23f0a0b33c29814b641ffb28825c577d6a2c264cdfc0d353637fe99eb0e38c5b25f6a6b53a2f874d6219fd2e845a517b6c2a204eddc2d151617deb9cb2e18e5927f4a4b7382d854f601bff2c865853796e282240d3ccdf5f6f73e592bcef805729faaab936238b416e15f12288565d7760262c42d1cedd5d6d71e790beed82552bf8a8bb342189436c17f3208a545f7562242e44d7c8db5b6b77e196b8eb84532dfeaebd32278f456a11f5268c52597364222846d5cad9596975e394bae986512ffcacbf30258d476813f7248e505b7166202a48dbc4d757677bed9ab4e7885f21f2a2b13e2b8349661df92a805e557f682e244ad9c6d5556579ef98b6e58a5d23f0a0b33c29814b641ffb28825c577d6a2c264cdfc0d353637fe99eb0e38c5b25f6a6b53a2f874d6219fd2e845a517b6c2a204eddc2d151617deb9cb2e18e5927f4a4b7382d854f601bff2c865853796e282240d3ccdf5f6f73e592bcef805729faaab936238b416e15f12288565d7760262c42d1cedd5d6d71e790beed82552bf8a8bb342189436c17f3208a545f7562242e44d7c8db5b6b77e196b8eb84532dfeaebd32278f456a11f5268c52597364222846d5cad9596975e394bae986512ffcacbf30258d476813f7248e505b7166202a48dbc4d757677bed9ab4e7885f21f2a2b13e2b8349661df92a805e557f682e244ad9c6d5556579ef98b6e58a5d23f0a0b33c29814b641ffb28825c577d6a2c264cdfc0d353637fe99eb0e38c5b25f6a6b53a2f874d6219fd2e845a517b6c2a204eddc2d151617deb9cb2e18e5927f4a4b7382d854f601bff2c865853796e282240d3ccdf5f6f73e592bcef805729faaab936238b416e15f12288565d7760262c42d1cedd5d6d71e790beed82552bf8a8bb342189436c17f3208a545f7562242e44d7c8db5b6b77e196b8eb84532dfeaebd32278f456a11f5268c52597364222846d5cad9596975e394bae986512ffcacbf30258d476813f7248e505b7166202a48dbc4d757677bed9ab4e7885f21f2a2b13e2b8349661df92a805e557f682e244ad9c6d5556579ef98b6e58a5d23f0a0b33c29814b641ffb28825c577d6a2c264cdfc0d353637fe99eb0e38c5b25f6a6b53a2f874d6219fd2e845a517b6c2a204eddc2d151617deb9cb2e18e5927f4a4b7382d854f601bff2c865853796e282240d3ccdf5f6f73e592bcef805729faaab936238b416e15f12288565d7760262c42d1cedd5d6d71e790beed82552bf8a8bb342189436c17f3208a545f7562242e44d7c8db5b6b77e196b8eb84532dfeaebd32278f456a11f5268c52597364222846d5cad9596975e394bae986512ffcacbf30258d476813f7248e505b7166202a48dbc4d757677bed9ab4e7885f21f2a2b4402b95b35d481fc7f8d862ff6f78f1596b5c4c4c2155b992fdb9a42a66d1ea9c075fe6f792d00002251203470d0f57bc9ccb43ba7a0a90fc29a689ca103a3d1aeec6296df3a22ef043f8902fd75094671200d6151bad0d0cd83b44ffa4a09fe5030eb79cf5aef15e433a07cf9b1917b116b46cbd1c5104a2eac23d95ea0e5d569fc388f4cef44c12c841b3746152a21ddf2c79bb3b414e57f83cdf1905d78cbf51f7b0a9445209cf79a805d276f960c0b1edaff122f3ba20b01fb7ed557801c0d1e4ba5021f81f6946e54cfabd4db8e66cd64415ce1ea393d7b6ccf7a15534a71340646db3b548eac0881d6e5fc139c70de5a1f528cf63a405e339178ec311e9198d1ed8ba078aecf7f233531bf6c75d523545d640948d8fa683c64de3a4cb2db8f3b2c75757d13b28ea387033c61267eced3db2fd998084b146cc9b980a8a2423d4248a10e31c7f770bae94b734e0ff6e83121bb30de1df00adb7bb847b454cd40bcc97e66f1045fb795da58bcc2157eb408627a2a79219e464c7b210703b64016af9fc5c8c8e75dbf7ca7ef16b4b203cdeb01f2632bb8db3d71ac0e2ae63df96d7e9b55b959b5614387459318e7ecdb66c5b08797c54f607cb398e76a6021f7359d49a3da1a173e5074b63a9c557fa04dd1b68824c9b91288c60f5c30dfc4ea84550a4c75e2a3b78ad79d2995530ce5636ae61f6ed444753ea8495b89c46e4b9d3bf164cc4b03ad603a325123fef232e41108394a0d69b4ec35ae11a42eda3f44a20e314da1434aeba70925affe21905fdf327ee175611b0c443e95f9f940792f3f84f651b3c0900516782c3f4e411b39d76088119461ccd221429dc89d1be5350ed8c3e4b3ced99abdb8fe8ebe53da5fb483f8e4d474b90b84aaf26aa6560042b201253b06e4a8719e049a20337b027ef16f40907a680a4aa436706089243fc6a17a471648ac332efaab232af67ef6c7a37830400316da116f392413e4ae8ce1faada45132c7dfb50bee97c2ed47ad670fc6d0035bd66e74355bfc7a1ff71b295e9a6fd5a6e2dad6d141d86c8919c0adbea8b68c29974c9bba5c6796f221d0ffb92f4828d94fd46cdf593a96b16a107413c641fdc039443c93fbee29a3f943878da943ee87967fde2a1a853d5a8bc78566faed192a71ddc5047a0fc1aa540f200ba21e7f1df3acfcea5486dce09fd5771503b4bd6379b77829b187dfae2f74e15daa32e0330c2a3a40ba93b773df39d6999be7460cdcd4ecd93e85bdd211c41013cafd103f389034c99a2d73cd951e0e09a998d72154ead4fcb59a7ec3ed32d7a029123b06a71f996914c2b3f7756dc8ca5d9e5049ba13650165e573c8a3fc34ef5bdb4fc1e8256d2ce5c6b7cac473f5d09a251e7a560ffc3ed25e4573241bba7f4db994db27512bda5cf3220e86919ccc7b90e923ead869c1a9526d5125d20f92cc6fc0a2f8ccceff7446f01e595238af432e7b420b62ee50bb7c58fe2d41db4a7d07f327014ef5a0bfee7fd1b65699c6713b15f1c8c19b88ff17c05f00e2a7f2e1cbe8e9ed1a222b1eb2a22a48a6584b7df1615b76fd589bf396b3b551e48dfece2dbbafc90a09cac860a76ce05622d1ff99288b95f30aa1d6dd97457c69c818a307e6452d5509f7b8cface444fcd45b723f82afb5d60c08a33928448ed74145c2b5dc388d454c31105f870139ef2989ae60ba59856aab243452c44f9c3209a9b80b23472bf414789bb46ab4d87243d404a3a498f20936dcec3a7aae0a39b07ed13711f63b22c5cbef0892f0691df5556b7a4241b83d5ed88e7a0bb49afef39578066dce91b63cc14cdb2456eb7851455728a55fe48b910f44e9515dad97d0e5057ec26bc43a12edef3087e5002bd26a2617d67c9494b9f79d08fd65130df14275ff73d9398fe9d84f7ab883a5bcbbe73ab30f5f0203ea41d03cefcee12bd1ccb8b9f5026fd8f0e78fb46369c8ee6f48098d7df0fa1b49b88c389113a223f88f65668aa33aa00886176b611f35b73caa71351d9b1a4760ad0bab7d549355796a160deeedc171eaa53b3d1cc5e91423e15af1aab8a4cd1d4b3625ad65780cdcf64c74a95823be303cf1f59a71a7cc70f6146aa13b045332180064a01803ed287d0ebeddeab8f3e4997ab6a1b80a8b916ed2e2c37fa245b5117ae324978d15a454c32dbf4b43a7fbcc57d7cb70862e86d4ae3537400594b405d219a24536288eb9af776a0fb611e4acbb79d930bc3c2133a68f03b7b96273b05b7553a80f287216f92fa750e9c665ad88add3e766d0809486c96b3030533de6a66878251f4aba062d2141756f4601056fdda8a95948c19dd1d70b752838cfa9a9edb1753ac9bf660211825fa2d01438d5c2e9608b5216b0893764118215224285124dbb4c723260921f45285cd814b5733955f0cfcf2a6a950e824b03ff373dee30f92fa06e44d06ae9ec400f0d73bc99e47342b11c68ebc8e24eecd073e9012252d9dc3911abd7b3974db532d4ee7098d8522e9b4aebbe6dc5749e81b88903ff43686bc3df5181363908326545cb394c9815f9a06ba6f60f07a36449990c5310da354c7347e62cf059c8d7bbddb176da18d1dd8e817fe5e8117081dfdb5a543bed63badb32fc30764e236450b8a3e5d04992336c0ed4fbb00dd09aead0007b8cfb949c1cef76984bed8053d35511d4e8926e55bdd9e181a877bc31bf5661e79dd6eefdb250a3282618c9063dcf54f1406bd5d101f1de847d700489d3533049162ff3bd034b904759b53d165b71342be7662682f84c1aafaceb9c1fd42eec8c9894dbbdc7795cf822646aabdc8311a8e47130e1be963ed5bd88afff13cdc0efd608188d853338ef2302616f6ddf9470f4db1b680ac69b01aa7cfd2d66642da812b9d4c32fd38939e6d411ea0a8f533bd09f44a6520b9f5298356a9440c80ee43116f2046ba5ecb7e15cb944e3b111176e07097ab3d7432f5da84020935a4ea4fd4eb653bb2383361a2e9010859accc8e3b358e590b77c8b81f877aa3aee73885ed6cee69a9070e43d4dc170d1deaada088e872a8d5245cf6c9cc7d6919e4d6b468a14393ab842e53ae4a310a7627d27b3c1d84d085dc6bfee0d183d25bb2f7dcb9fcf4a5dd56d3d6d9a366742706f7c8944a94f549c1796327c19ee7ab62011f52edbae661b856ab25a78430749834d83bdf5f5b94814f8dff9a3a58e8f29e7c0e929be4a3315620871565a34442f110c022c2c174ffa903a61f7428db96fb1337b14a298d3b981cb84439d5f26ebfcf46cee6b09fc5c4e9a48f7e6aded3777209dfdb60f4834e340860cf3f98b4e30e43f60cab221fbb0c838dbfc0cfd342c8653c7464afa6f5ee7ce37912c24ac94236918897f6903d93a7b0f7a468f6af5b21c62e255877f14d3aac1ef788998661270a6bf101622272c2e387d858f9497a1a9abbacbd2e8f02022354048657c7ebabbd4ddf0000f31545c6a747576868bb0c8f01525313e4d696e87a8acb8e9f3000000000000000000000000000000000000000014212f3c01fd210500afd30e8232d6a35fb243e229be5903bb190e407ca0825b3f4f559fd69939c8d8ba5aa58e96795dc2eb2c371ad718140e3a147ce765dd75e3c44f524af1cfd3fc38c504fac8200b2bce73911d318fb163bddfb15b3ef1f81deea2214d6c92cfb52a48f2c3696208378e98c451027acf87ce43b6e1f99ae7fd6be698106a267f34914bfe2bfb9ebc7ca42518f0f254db371f4c6fdc8ac13dadcf45773fdcbd5e1664cb146ce26fcff89b5faf09b119167eb77f7a4bc7c10ff236fcdd3eab9cd366ec4144cec597a94a0a2bdc4f280f211a8154ef4947d8a5f3b08bd49cc5fab41996e2fc4c8b298a989ecebd4c39d07f88106d431325dcc5b1062a3899facaa545ceeb952d8882c2627b671ca48ac06c63275389b2090c912826680ae76363e49f19506165cd114a8b2254eb085b9e87af6dd2b8b673bb53b751c3b9ea396d27cb66e55be2eb4cf207232d2fa4f0997d0b916e8e4b9b675fdf6a6e8b8282fd38bd0a50ff268963585073d82d4d42088ba8d257eda1eb5163e0a173f1d58d9f47db4c060423b78363e856474119d1f124cb27b2cc51e9df3562829913def8d89eed86624dadc02b061e9de3300f453cd62608f17e0c093f10c307a5a118e4f033dba26e68de543c15b57c79126070efea0bd246e9f4cd7e62a0c386a5e08db38bf2004788b9b1df0da263f711a84791b8eaecac0517f7b12a72ab597a721238bb014bea536eb9142160bd09fdc4b9c5b409a8e0fe8ca9f15b2c9ee85066ead223530b45cd7e4d4a84488d864ded9d628caf4b5f26a33ea3049667ba023921d62412a840a6e4450fd6773625e67fa5c1993e5cccedce9d1a36d2e817037861029b6725316526f34ebe095185477834207a1d1a6ee1a643a72087e6809d5d2cb1078e175c5922fcd76e858a0f1cde0fce338a49b406efb249da27ae662f10cd947c55166e488583c4cd9bb8aadc95108d8736289a3baee3a3f613fe0cd957d7f610af005a138b6a2ee3e7e7dab70c2eda83da0d42cc40a279d4a404673e717766ff57ea7ea18f1f7b74aad3a6d431d19e8320c3bc4c9246936e85082ebae04726aa9b25d6b926195920d3de83850ab249c62a45e3b8a2d2bade1cf85f7d35d89aa10cca0509aa7dfc9e92f9c1d2c81515bc4527a7bc24ce3623ed8b75d9962405f5007e4b3a648b7ca1581a7218a449af1e18b46f8c440df68be70fb00987d80e9c4e05bb725f4ae07237217a6ea91b0dbebc9994204421f8bff39cf3e73368b220c814233530afca64f02f0d20bd15a8734f7f7ccf1fe9256cbf773050b115fbbdefc0acf05131c60bf89e418019355e2862a07e5dee1b1775c2df5938c1ce4ed4f42c787cd52860098ebd5f82570e4c72ee257b637626e0424e3a49f3bd51ca82badff9e3b2aaa846027215df96d112046b9bfe998cc1ce75e137d78a0199a4fc0f7197eec59d47c2d6b33eae9f4fbfdd52fbad5bfdc97384d3b70fe310e0106ff84aa0cc23eadd6f7075ed7a2d558dfbc4d30a902109582a4416166178b40b69f22077da93cd78a0aa7afa251587f3dd162ebed7bcabf6d40907468f8e3a05f802ace32554bc479c61c0512ba7c1440fa11360e6d87c03f85069fd12da3ad3aa797d5fcdafb4e92793360cb3d3ecac45f1773b8ca4e9611b907843132ad059e69509ed98e590f8f38cf456316bd43a45dc626f3a2b6817ff2966972de7026abfc6c93a8497c71b18903bea3c33d6c68caf382d37b7da690c6fe455dfc4187b30b22ffee56c3e5541ddc9ca813e89de7417cf6a93ec4b4dfe67044960b8f7d3889b0267e4e86298076d58d3a3b6cbcb1cb334897b7f1fe21cfae275db795d1a79d067000000",
  "txid": "178abcdfac566ce39e42141a3d12421e6b0c6d8299714b20bad764371b1ef427",
  "hash": "9f13f4807b9b231147a508f8ba79e466f2a2da71c7f98023ea9b2f364fcc6a73",
  "size": 5085,
  "vsize": 2278,
  "version": 1,
  "locktime": 103,
  "vin": [
    {
      "txid": "5c419436138b121f5b21157ab373329718223db1dec3677cbaa234594ea53b97",
      "vout": 1,
      "scriptSig": {
        "asm": "",
        "hex": ""
      },
      "txinwitness": [
        "4671200d6151bad0d0cd83b44ffa4a09fe5030eb79cf5aef15e433a07cf9b1917b116b46cbd1c5104a2eac23d95ea0e5d569fc388f4cef44c12c841b3746152a21ddf2c79bb3b414e57f83cdf1905d78cbf51f7b0a9445209cf79a805d276f960c0b1edaff122f3ba20b01fb7ed557801c0d1e4ba5021f81f6946e54cfabd4db8e66cd64415ce1ea393d7b6ccf7a15534a71340646db3b548eac0881d6e5fc139c70de5a1f528cf63a405e339178ec311e9198d1ed8ba078aecf7f233531bf6c75d523545d640948d8fa683c64de3a4cb2db8f3b2c75757d13b28ea387033c61267eced3db2fd998084b146cc9b980a8a2423d4248a10e31c7f770bae94b734e0ff6e83121bb30de1df00adb7bb847b454cd40bcc97e66f1045fb795da58bcc2157eb408627a2a79219e464c7b210703b64016af9fc5c8c8e75dbf7ca7ef16b4b203cdeb01f2632bb8db3d71ac0e2ae63df96d7e9b55b959b5614387459318e7ecdb66c5b08797c54f607cb398e76a6021f7359d49a3da1a173e5074b63a9c557fa04dd1b68824c9b91288c60f5c30dfc4ea84550a4c75e2a3b78ad79d2995530ce5636ae61f6ed444753ea8495b89c46e4b9d3bf164cc4b03ad603a325123fef232e41108394a0d69b4ec35ae11a42eda3f44a20e314da1434aeba70925affe21905fdf327ee175611b0c443e95f9f940792f3f84f651b3c0900516782c3f4e411b39d76088119461ccd221429dc89d1be5350ed8c3e4b3ced99abdb8fe8ebe53da5fb483f8e4d474b90b84aaf26aa6560042b201253b06e4a8719e049a20337b027ef16f40907a680a4aa436706089243fc6a17a471648ac332efaab232af67ef6c7a37830400316da116f392413e4ae8ce1faada45132c7dfb50bee97c2ed47ad670fc6d0035bd66e74355bfc7a1ff71b295e9a6fd5a6e2dad6d141d86c8919c0adbea8b68c29974c9bba5c6796f221d0ffb92f4828d94fd46cdf593a96b16a107413c641fdc039443c93fbee29a3f943878da943ee87967fde2a1a853d5a8bc78566faed192a71ddc5047a0fc1aa540f200ba21e7f1df3acfcea5486dce09fd5771503b4bd6379b77829b187dfae2f74e15daa32e0330c2a3a40ba93b773df39d6999be7460cdcd4ecd93e85bdd211c41013cafd103f389034c99a2d73cd951e0e09a998d72154ead4fcb59a7ec3ed32d7a029123b06a71f996914c2b3f7756dc8ca5d9e5049ba13650165e573c8a3fc34ef5bdb4fc1e8256d2ce5c6b7cac473f5d09a251e7a560ffc3ed25e4573241bba7f4db994db27512bda5cf3220e86919ccc7b90e923ead869c1a9526d5125d20f92cc6fc0a2f8ccceff7446f01e595238af432e7b420b62ee50bb7c58fe2d41db4a7d07f327014ef5a0bfee7fd1b65699c6713b15f1c8c19b88ff17c05f00e2a7f2e1cbe8e9ed1a222b1eb2a22a48a6584b7df1615b76fd589bf396b3b551e48dfece2dbbafc90a09cac860a76ce05622d1ff99288b95f30aa1d6dd97457c69c818a307e6452d5509f7b8cface444fcd45b723f82afb5d60c08a33928448ed74145c2b5dc388d454c31105f870139ef2989ae60ba59856aab243452c44f9c3209a9b80b23472bf414789bb46ab4d87243d404a3a498f20936dcec3a7aae0a39b07ed13711f63b22c5cbef0892f0691df5556b7a4241b83d5ed88e7a0bb49afef39578066dce91b63cc14cdb2456eb7851455728a55fe48b910f44e9515dad97d0e5057ec26bc43a12edef3087e5002bd26a2617d67c9494b9f79d08fd65130df14275ff73d9398fe9d84f7ab883a5bcbbe73ab30f5f0203ea41d03cefcee12bd1ccb8b9f5026fd8f0e78fb46369c8ee6f48098d7df0fa1b49b88c389113a223f88f65668aa33aa00886176b611f35b73caa71351d9b1a4760ad0bab7d549355796a160deeedc171eaa53b3d1cc5e91423e15af1aab8a4cd1d4b3625ad65780cdcf64c74a95823be303cf1f59a71a7cc70f6146aa13b045332180064a01803ed287d0ebeddeab8f3e4997ab6a1b80a8b916ed2e2c37fa245b5117ae324978d15a454c32dbf4b43a7fbcc57d7cb70862e86d4ae3537400594b405d219a24536288eb9af776a0fb611e4acbb79d930bc3c2133a68f03b7b96273b05b7553a80f287216f92fa750e9c665ad88add3e766d0809486c96b3030533de6a66878251f4aba062d2141756f4601056fdda8a95948c19dd1d70b752838cfa9a9edb1753ac9bf660211825fa2d01438d5c2e9608b5216b0893764118215224285124dbb4c723260921f45285cd814b5733955f0cfcf2a6a950e824b03ff373dee30f92fa06e44d06ae9ec400f0d73bc99e47342b11c68ebc8e24eecd073e9012252d9dc3911abd7b3974db532d4ee7098d8522e9b4aebbe6dc5749e81b88903ff43686bc3df5181363908326545cb394c9815f9a06ba6f60f07a36449990c5310da354c7347e62cf059c8d7bbddb176da18d1dd8e817fe5e8117081dfdb5a543bed63badb32fc30764e236450b8a3e5d04992336c0ed4fbb00dd09aead0007b8cfb949c1cef76984bed8053d35511d4e8926e55bdd9e181a877bc31bf5661e79dd6eefdb250a3282618c9063dcf54f1406bd5d101f1de847d700489d3533049162ff3bd034b904759b53d165b71342be7662682f84c1aafaceb9c1fd42eec8c9894dbbdc7795cf822646aabdc8311a8e47130e1be963ed5bd88afff13cdc0efd608188d853338ef2302616f6ddf9470f4db1b680ac69b01aa7cfd2d66642da812b9d4c32fd38939e6d411ea0a8f533bd09f44a6520b9f5298356a9440c80ee43116f2046ba5ecb7e15cb944e3b111176e07097ab3d7432f5da84020935a4ea4fd4eb653bb2383361a2e9010859accc8e3b358e590b77c8b81f877aa3aee73885ed6cee69a9070e43d4dc170d1deaada088e872a8d5245cf6c9cc7d6919e4d6b468a14393ab842e53ae4a310a7627d27b3c1d84d085dc6bfee0d183d25bb2f7dcb9fcf4a5dd56d3d6d9a366742706f7c8944a94f549c1796327c19ee7ab62011f52edbae661b856ab25a78430749834d83bdf5f5b94814f8dff9a3a58e8f29e7c0e929be4a3315620871565a34442f110c022c2c174ffa903a61f7428db96fb1337b14a298d3b981cb84439d5f26ebfcf46cee6b09fc5c4e9a48f7e6aded3777209dfdb60f4834e340860cf3f98b4e30e43f60cab221fbb0c838dbfc0cfd342c8653c7464afa6f5ee7ce37912c24ac94236918897f6903d93a7b0f7a468f6af5b21c62e255877f14d3aac1ef788998661270a6bf101622272c2e387d858f9497a1a9abbacbd2e8f02022354048657c7ebabbd4ddf0000f31545c6a747576868bb0c8f01525313e4d696e87a8acb8e9f3000000000000000000000000000000000000000014212f3c01",
        "00afd30e8232d6a35fb243e229be5903bb190e407ca0825b3f4f559fd69939c8d8ba5aa58e96795dc2eb2c371ad718140e3a147ce765dd75e3c44f524af1cfd3fc38c504fac8200b2bce73911d318fb163bddfb15b3ef1f81deea2214d6c92cfb52a48f2c3696208378e98c451027acf87ce43b6e1f99ae7fd6be698106a267f34914bfe2bfb9ebc7ca42518f0f254db371f4c6fdc8ac13dadcf45773fdcbd5e1664cb146ce26fcff89b5faf09b119167eb77f7a4bc7c10ff236fcdd3eab9cd366ec4144cec597a94a0a2bdc4f280f211a8154ef4947d8a5f3b08bd49cc5fab41996e2fc4c8b298a989ecebd4c39d07f88106d431325dcc5b1062a3899facaa545ceeb952d8882c2627b671ca48ac06c63275389b2090c912826680ae76363e49f19506165cd114a8b2254eb085b9e87af6dd2b8b673bb53b751c3b9ea396d27cb66e55be2eb4cf207232d2fa4f0997d0b916e8e4b9b675fdf6a6e8b8282fd38bd0a50ff268963585073d82d4d42088ba8d257eda1eb5163e0a173f1d58d9f47db4c060423b78363e856474119d1f124cb27b2cc51e9df3562829913def8d89eed86624dadc02b061e9de3300f453cd62608f17e0c093f10c307a5a118e4f033dba26e68de543c15b57c79126070efea0bd246e9f4cd7e62a0c386a5e08db38bf2004788b9b1df0da263f711a84791b8eaecac0517f7b12a72ab597a721238bb014bea536eb9142160bd09fdc4b9c5b409a8e0fe8ca9f15b2c9ee85066ead223530b45cd7e4d4a84488d864ded9d628caf4b5f26a33ea3049667ba023921d62412a840a6e4450fd6773625e67fa5c1993e5cccedce9d1a36d2e817037861029b6725316526f34ebe095185477834207a1d1a6ee1a643a72087e6809d5d2cb1078e175c5922fcd76e858a0f1cde0fce338a49b406efb249da27ae662f10cd947c55166e488583c4cd9bb8aadc95108d8736289a3baee3a3f613fe0cd957d7f610af005a138b6a2ee3e7e7dab70c2eda83da0d42cc40a279d4a404673e717766ff57ea7ea18f1f7b74aad3a6d431d19e8320c3bc4c9246936e85082ebae04726aa9b25d6b926195920d3de83850ab249c62a45e3b8a2d2bade1cf85f7d35d89aa10cca0509aa7dfc9e92f9c1d2c81515bc4527a7bc24ce3623ed8b75d9962405f5007e4b3a648b7ca1581a7218a449af1e18b46f8c440df68be70fb00987d80e9c4e05bb725f4ae07237217a6ea91b0dbebc9994204421f8bff39cf3e73368b220c814233530afca64f02f0d20bd15a8734f7f7ccf1fe9256cbf773050b115fbbdefc0acf05131c60bf89e418019355e2862a07e5dee1b1775c2df5938c1ce4ed4f42c787cd52860098ebd5f82570e4c72ee257b637626e0424e3a49f3bd51ca82badff9e3b2aaa846027215df96d112046b9bfe998cc1ce75e137d78a0199a4fc0f7197eec59d47c2d6b33eae9f4fbfdd52fbad5bfdc97384d3b70fe310e0106ff84aa0cc23eadd6f7075ed7a2d558dfbc4d30a902109582a4416166178b40b69f22077da93cd78a0aa7afa251587f3dd162ebed7bcabf6d40907468f8e3a05f802ace32554bc479c61c0512ba7c1440fa11360e6d87c03f85069fd12da3ad3aa797d5fcdafb4e92793360cb3d3ecac45f1773b8ca4e9611b907843132ad059e69509ed98e590f8f38cf456316bd43a45dc626f3a2b6817ff2966972de7026abfc6c93a8497c71b18903bea3c33d6c68caf382d37b7da690c6fe455dfc4187b30b22ffee56c3e5541ddc9ca813e89de7417cf6a93ec4b4dfe67044960b8f7d3889b0267e4e86298076d58d3a3b6cbcb1cb334897b7f1fe21cfae275db795d1a79d0"
      ],
      "sequence": 4294967294
    }
  ],
  "vout": [
    {
      "value": 1.0,
      "n": 0,
      "scriptPubKey": {
        "asm": "OP_RETURN 2bd3cefead6c0a3c033fd2d81c0f21f9748b494b7ced4b748fb283dfa148b972 0d3ccdf5f6f73e592bcef805729faaab936238b416e15f12288565d7760262c42d1cedd5d6d71e790beed82552bf8a8bb342189436c17f3208a545f7562242e44d7c8db5b6b77e196b8eb84532dfeaebd32278f456a11f5268c52597364222846d5cad9596975e394bae986512ffcacbf30258d476813f7248e505b7166202a48dbc4d757677bed9ab4e7885f21f2a2b13e2b8349661df92a805e557f682e244ad9c6d5556579ef98b6e58a5d23f0a0b33c29814b641ffb28825c577d6a2c264cdfc0d353637fe99eb0e38c5b25f6a6b53a2f874d6219fd2e845a517b6c2a204eddc2d151617deb9cb2e18e5927f4a4b7382d854f601bff2c865853796e282240d3ccdf5f6f73e592bcef805729faaab936238b416e15f12288565d7760262c42d1cedd5d6d71e790beed82552bf8a8bb342189436c17f3208a545f7562242e44d7c8db5b6b77e196b8eb84532dfeaebd32278f456a11f5268c52597364222846d5cad9596975e394bae986512ffcacbf30258d476813f7248e505b7166202a48dbc4d757677bed9ab4e7885f21f2a2b13e2b8349661df92a805e557f682e244ad9c6d5556579ef98b6e58a5d23f0a0b33c29814b641ffb28825c577d6a2c264cdfc0d353637fe99eb0e38c5b25f6a6b53a2f874d6219fd2e845a517b6c2a204eddc2d151617deb9cb2e18e5927f4a4b7382d854f601bff2c865853796e282240d3ccdf5f6f73e592bcef805729faaab936238b416e15f12288565d7760262c42d1cedd5d6d71e790beed82552bf8a8bb342189436c17f3208a545f7562242e44d7c8db5b6b77e196b8eb84532dfeaebd32278f456a11f5268c52597364222846d5cad9596975e394bae986512ffcacbf30258d476813f7248e505b7166202a48dbc4d757677bed9ab4e7885f21f2a2b13e2b8349661df92a805e557f682e244ad9c6d5556579ef98b6e58a5d23f0a0b33c29814b641ffb28825c577d6a2c264cdfc0d353637fe99eb0e38c5b25f6a6b53a2f874d6219fd2e845a517b6c2a204eddc2d151617deb9cb2e18e5927f4a4b7382d854f601bff2c865853796e282240d3ccdf5f6f73e592bcef805729faaab936238b416e15f12288565d7760262c42d1cedd5d6d71e790beed82552bf8a8bb342189436c17f3208a545f7562242e44d7c8db5b6b77e196b8eb84532dfeaebd32278f456a11f5268c52597364222846d5cad9596975e394bae986512ffcacbf30258d476813f7248e505b7166202a48dbc4d757677bed9ab4e7885f21f2a2b13e2b8349661df92a805e557f682e244ad9c6d5556579ef98b6e58a5d23f0a0b33c29814b641ffb28825c577d6a2c264cdfc0d353637fe99eb0e38c5b25f6a6b53a2f874d6219fd2e845a517b6c2a204eddc2d151617deb9cb2e18e5927f4a4b7382d854f601bff2c865853796e282240d3ccdf5f6f73e592bcef805729faaab936238b416e15f12288565d7760262c42d1cedd5d6d71e790beed82552bf8a8bb342189436c17f3208a545f7562242e44d7c8db5b6b77e196b8eb84532dfeaebd32278f456a11f5268c52597364222846d5cad9596975e394bae986512ffcacbf30258d476813f7248e505b7166202a48dbc4d757677bed9ab4e7885f21f2a2b4402b95b35d481fc7f8d862ff6f78f1596b5c4c4c2155b992fdb9a42a66d1ea9",
        "hex": "6a202bd3cefead6c0a3c033fd2d81c0f21f9748b494b7ced4b748fb283dfa148b9724db0040d3ccdf5f6f73e592bcef805729faaab936238b416e15f12288565d7760262c42d1cedd5d6d71e790beed82552bf8a8bb342189436c17f3208a545f7562242e44d7c8db5b6b77e196b8eb84532dfeaebd32278f456a11f5268c52597364222846d5cad9596975e394bae986512ffcacbf30258d476813f7248e505b7166202a48dbc4d757677bed9ab4e7885f21f2a2b13e2b8349661df92a805e557f682e244ad9c6d5556579ef98b6e58a5d23f0a0b33c29814b641ffb28825c577d6a2c264cdfc0d353637fe99eb0e38c5b25f6a6b53a2f874d6219fd2e845a517b6c2a204eddc2d151617deb9cb2e18e5927f4a4b7382d854f601bff2c865853796e282240d3ccdf5f6f73e592bcef805729faaab936238b416e15f12288565d7760262c42d1cedd5d6d71e790beed82552bf8a8bb342189436c17f3208a545f7562242e44d7c8db5b6b77e196b8eb84532dfeaebd32278f456a11f5268c52597364222846d5cad9596975e394bae986512ffcacbf30258d476813f7248e505b7166202a48dbc4d757677bed9ab4e7885f21f2a2b13e2b8349661df92a805e557f682e244ad9c6d5556579ef98b6e58a5d23f0a0b33c29814b641ffb28825c577d6a2c264cdfc0d353637fe99eb0e38c5b25f6a6b53a2f874d6219fd2e845a517b6c2a204eddc2d151617deb9cb2e18e5927f4a4b7382d854f601bff2c865853796e282240d3ccdf5f6f73e592bcef805729faaab936238b416e15f12288565d7760262c42d1cedd5d6d71e790beed82552bf8a8bb342189436c17f3208a545f7562242e44d7c8db5b6b77e196b8eb84532dfeaebd32278f456a11f5268c52597364222846d5cad9596975e394bae986512ffcacbf30258d476813f7248e505b7166202a48dbc4d757677bed9ab4e7885f21f2a2b13e2b8349661df92a805e557f682e244ad9c6d5556579ef98b6e58a5d23f0a0b33c29814b641ffb28825c577d6a2c264cdfc0d353637fe99eb0e38c5b25f6a6b53a2f874d6219fd2e845a517b6c2a204eddc2d151617deb9cb2e18e5927f4a4b7382d854f601bff2c865853796e282240d3ccdf5f6f73e592bcef805729faaab936238b416e15f12288565d7760262c42d1cedd5d6d71e790beed82552bf8a8bb342189436c17f3208a545f7562242e44d7c8db5b6b77e196b8eb84532dfeaebd32278f456a11f5268c52597364222846d5cad9596975e394bae986512ffcacbf30258d476813f7248e505b7166202a48dbc4d757677bed9ab4e7885f21f2a2b13e2b8349661df92a805e557f682e244ad9c6d5556579ef98b6e58a5d23f0a0b33c29814b641ffb28825c577d6a2c264cdfc0d353637fe99eb0e38c5b25f6a6b53a2f874d6219fd2e845a517b6c2a204eddc2d151617deb9cb2e18e5927f4a4b7382d854f601bff2c865853796e282240d3ccdf5f6f73e592bcef805729faaab936238b416e15f12288565d7760262c42d1cedd5d6d71e790beed82552bf8a8bb342189436c17f3208a545f7562242e44d7c8db5b6b77e196b8eb84532dfeaebd32278f456a11f5268c52597364222846d5cad9596975e394bae986512ffcacbf30258d476813f7248e505b7166202a48dbc4d757677bed9ab4e7885f21f2a2b4402b95b35d481fc7f8d862ff6f78f1596b5c4c4c2155b992fdb9a42a66d1ea9",
        "type": "nulldata"
      }
    },
    {
      "value": 499995.9324,
      "n": 1,
      "scriptPubKey": {
        "asm": "1 3470d0f57bc9ccb43ba7a0a90fc29a689ca103a3d1aeec6296df3a22ef043f89",
        "hex": "51203470d0f57bc9ccb43ba7a0a90fc29a689ca103a3d1aeec6296df3a22ef043f89",
        "reqSigs": 1,
        "type": "witness_v1_scripthash",
        "addresses": [
          "3QJmnh"
        ]
      }
    }
  ],
  "blockhash": "15af9b025c636b87e0a10c18a1a8de0e5f3c2069ad563b293161176d75df89a4",
  "confirmations": 1,
  "time": 1764174659,
  "blocktime": 1764174659
}