{
  "hex": "010000000001011950cf70142283c123196c4ae8d718348159923c6538981fd6f558c0a9e95a110000000000feffffff0200e1f50500000000fdd5046a20cae05a01d4a5547eab7a9593e28c82899f76405eaf623cc552eeb104b3d313394db004cc3b2e47b32a5f631da2f0f66a1f2fcd5e142bebc3eecc181b28555d745f096fec1b0e67930a7f433d82d0d64a3f0fed7e340bcbe3ceec383b08757d547f294f8c7b6e07f36a1f235de2b0b62a5f6f8d1e546bab83ae8c585b68151d341f492fac5b4e27d34a3f037dc290960a7f4fad3e744b8ba38eac787b48353d143f690f4cbbaec733aadfe39d227076ea9faf4dde94ab6b436e4c989ba8d5ddf4df89ef6c9b8ee7138affc3bd025056cabf8f6dfeb48b4b634e6cb8bb88f5fdd4ffa9cf0cfbee8773ea9fa3dd623036aadfef0d9ed4eb2b032e0cd8dbe8959db49fc9af2cdbcea753cabf83fd4210168affcf2dbef4cb0b230e2cf8fbc8b5bd94bfe98fcc3b2e47b32a5f631da2f0f66a1f2fcd5e142bebc3eecc181b28555d745f096fec1b0e67930a7f433d82d0d64a3f0fed7e340bcbe3ceec383b08757d547f294f8c7b6e07f36a1f235de2b0b62a5f6f8d1e546bab83ae8c585b68151d341f492fac5b4e27d34a3f037dc290960a7f4fad3e744b8ba38eac787b48353d143f690f4cbbaec733aadfe39d227076ea9faf4dde94ab6b436e4c989ba8d5ddf4df89ef6c9b8ee7138affc3bd025056cabf8f6dfeb48b4b634e6cb8bb88f5fdd4ffa9cf0cfbee8773ea9fa3dd623036aadfef0d9ed4eb2b032e0cd8dbe8959db49fc9af2cdbcea753cabf83fd4210168affcf2dbef4cb0b230e2cf8fbc8b5bd94bfe98fcc3b2e47b32a5f631da2f0f66a1f2fcd5e142bebc3eecc181b28555d745f096fec1b0e67930a7f433d82d0d64a3f0fed7e340bcbe3ceec383b08757d547f294f8c7b6e07f36a1f235de2b0b62a5f6f8d1e546bab83ae8c585b68151d341f492fac5b4e27d34a3f037dc290960a7f4fad3e744b8ba38eac787b48353d143f690f4cbbaec733aadfe39d227076ea9faf4dde94ab6b436e4c989ba8d5ddf4df89ef6c9b8ee7138affc3bd025056cabf8f6dfeb48b4b634e6cb8bb88f5fdd4ffa9cf0cfbee8773ea9fa3dd623036aadfef0d9ed4eb2b032e0cd8dbe8959db49fc9af2cdbcea753cabf83fd4210168affcf2dbef4cb0b230e2cf8fbc8b5bd94bfe98fcc3b2e47b32a5f631da2f0f66a1f2fcd5e142bebc3eecc181b28555d745f096fec1b0e67930a7f433d82d0d64a3f0fed7e340bcbe3ceec383b08757d547f294f8c7b6e07f36a1f235de2b0b62a5f6f8d1e546bab83ae8c585b68151d341f492fac5b4e27d34a3f037dc290960a7f4fad3e744b8ba38eac787b48353d143f690f4cbbaec733aadfe39d227076ea9faf4dde94ab6b436e4c989ba8d5ddf4df89ef6c9b8ee7138affc3bd025056cabf8f6dfeb48b4b634e6cb8bb88f5fdd4ffa9cf0cfbee8773ea9fa3dd623036aadfef0d9ed4eb2b032e0cd8dbe8959db49fc9af2cdbcea753cabf83fd4210168affcf2dbef4cb0b230e2cf8fbc8b5bd94bfe98fcc3b2e47b32a5f631da2f0f66a1f2fcd5e142bebc3eecc181b28555d745f096fec1b0e67930a7f433d82d0d64a3f0fed7e340bcbe3ceec383b08757d547f294f8c7b6e07f36a1f235de2b0b62a5f6f8d1e546bab83ae8c585b68151d341f492fac5b4e27d34a3f037dc290960a7f4fad3e744b8ba38eac787b48353d143f690f4cbbaec733aadfe39d227076ea9faf4da3b9b9d316a85a2584bfe2363f597f52f87dab275588706924cead5a59794e908022c5f6782d00002251201931da91c5344e3fcb39445e8d3f23d90fae0ee7c27d9df4f31ae7252f15c0f002fd750907bc291541b7ca3c0aaf9f7dbdadde1f59642f1f5be3c9ed13029abc77ef4d50ced695461a211d95d3f8dc664766b74c2bed7d8d4bff63eecd5eb340191552700c1da41613825328980a583e0f9c52daaf975284f2cb5a524ec0c5f3c456a9681d5c6cb8b83c678cb957b4eaa6e758f3220897db8daa3e7a2647ba653b8331669aa3d214aa5505e43ee32c250972954e5b4d7b3e9fc2d31db4fa6cb462ab326ae02919c627509a74edd626707f7dff1b09c090ececc86fc2db9a1c87df4cb6649363d51fe631102076f48b990e1e9d7e856d19ba4a9d47dde1291b1141ad859e4ccaef1d739066bb89707c7fc25fb5a35bab5ed8cc9ec98bf455d5d1cbb2cc95fbd35a560bfcd27a73572f20010fef5b35fca6465d9c1030ff7541e75b856006bc2bf707e33c5f3c0995e1b222d9762a43c2652a4d4d6ccc1bc7fabda9b21aed8e4f871927236c98db482f966cd7fc768527e3d662023da86822a41b9ecfd7a9e70da4f053521ea791802c91279c18b6bbba4418805fb216124bad44470c1636a5c8a93f011054291f75189daaacc08632d46ddfd590da640e652e9ff28c6e4b3cf68c9908aa21be26573d3c90432c8531bdfa70e2a1e86d05d0f8106250647d8204a3c61d7487c7d5f4456e806747d3ee6315ce6a1e85bb659e3294fdc22944a419ce8bc5d6efa31486cc226c2ffb07ece8c84235edcb02fdbbbe1426abe2d48b5c5bbd9ab5a9581427616b14b1c033003eb82aa1d11afcdabdf40242cbbcc1b776c7965f658d1aaadbcb0a847fc82149719c1cc2dfeb4377d806d48e5caeb5af565dc74b1028aeb059f33efb556166b919b4d65313bb02f9657423fd710ead35dcbb174b579200a605ad18b345f4797993dc249a7cdac1074f4f50a468dc57862a0172de1e3cb46473b3e5914996a36733e560976d1509b116fa29e954e1473fc31e55bebf8b8e9009640a7fd6cbcdc184c867e2af369b0e42410860e50150884d77eea8c623fcf2f740ff9e0d2c5dac6e0633ed40a0a8d87e28b7f7a8e66bba5fa56597e903f02ab3e26051ad5aa7fa0e51872dd9637801bf638e4c032840a665b38ebe77ec72fa2286fac9e957e934715ec96cc2101978584baecd52f6749b42b17a89970fadc46119705c94a55141e3f844f10dc927357fb50861d04e7243a0fd94a46c7dbf7c436026a900364a84ebbf66e617a52ad33fdc34d6f370d6af6656742233cc814ef825c2e446cf520b2145571ba71d3cc8123d19ef7fb1592f81d06ee0e00205575584996d14ca693eb32d5adbb0d30233cda868c23b6d4560c44341b25e0aa8734dfd1dfd7fd32c7d957837108489ea98a7237865310440b8aa15e3e251bc645614865e48ecc286a6bfea784703a73207ae5539937b2efa3550725327c848464e88915222d1c7fb6bcfa6bee6f8f79c35088d8e28d685a314f0d7ee440fd46aef5c945ec34852484874641fbc9d5a534c88443f19c5dad9d774f6f0b713d7d90e084a92bf54442ca1679794d18e5391fcd6159c1345f431c1618d0889358fa007120991cd6c8388dd244b76b790992798a386959c8cb7856596d275bde4302a92a0e61edc1eb72fe73f40eb723bdcd7081bb83345a053020c91385e1b5320f7b627cd77b7b406f7976c49b5036731d9b0aae40ea3eedc98053e26a0e7d14ca9d83385303f46d41bd05e7d5163e0c933500ee6284e0614eb534909233eec3d8f223d114f518ca2de90aafbc93e2266280cd0bd606cf222fc8994f132ade8352ff294a762f89c886ffff5cc04eb42007b6003769b8129a3fc6249e3d4449ce34f370ec78d79821d9f678e011b32665571e38c02203820a763b1c3ac39e00c2ec75fb69e7043826ec8451f6344493cb51b879a72cf9a25df7b0a368495e56ee5b4c7f0e5782be2807ce0e2448d7939cb0d92abc5d85414fe295d857855d30b289bdf8ea89150890c6ea157ffc6d990ad7c07f6fb51367401dfbaf9ae0cefbf293e8f44ae97c33bf3c76c647979460a55f83d2edfebcd7e427c85f1148585a8b891b9edc4ab61f1006cc4de17a73315ff0f109e08ff799a8ddda0fca7992aa53c64617c2caf120ca034ffad24712ba0f1b178d8580bb5f5a2a1c9219af785d4e62adc892c35eea727ef01c379ddd555e4f3f9b176d0206f6c65c11b9646fe218a91052f42cd51da0d119f69589265e50b027a1827b79ebbbddea1b6e699dbbbc4286d13617773efcf94d687e99310d8660e6f371be8a20800a1c0c7ac3f559c9be4efc49c3cf95b1a0f693e187c46a09767586d03cf419dea94812e56ad1d169e38d1e5e3ff8e284418a16429798aeed7164a70b2f98fa6383ad11f88c3471524bfae817d0a96f6e2ddb655c5e534f24a1fac1f03541c77bb929a3284ccde7e5e60b0418c8e36a902fb70ce565e820020f6b2c4b64e2b5f4855f042b923db6c5a869a159a2aaad9a3bc45631e7c580f68faf8a5e634a4a54eb11f73f897c12f55cdcf1b1e18f780476a2991533b415b434c526a471043404e140afe9d2e8de8e798740e25e4021291bde43f80e1a7f113f87cf9c266a04153d8244a4d0e5086c270b1496d9853cdea447c24f23c5e80606c80ebceac69ed476b8f30b00b400410f9e29a3399175c3fe1ab5654968f74343f2eb27d0f914417ab7ac72d2fc821cb0bbb98e11d512a9202d6321141fbf76abb9fe17dd620a2ea5e26c8b39c5bf436023542c0f54535b24dc7d133afc09123fb61089860390b855d2aedae541705cb5f487986ec79c6d47ed588fbc6306417a74e28319dc704ffced7f193150cd6ce5103aca0e388225959e900d0a72309f1ef4a738f9d9b0476dd49337e35a6d07a36a9656a4110e03fe3149ac677a938733a14221f6e08a0f3c81314806c7398e9458e54c33e45a485b22bd069d2094d9eb7e8f1976901244bd282556b10316d58cc00fd72502eb2348940cbbcd4ba4aaf4757f578abcb79d161c173d19c9c0d6dc5fca704a021442cc8ea039958af4fc7728fdb8a0e26a03a8c393801541c96f69afdda7b7503d2d9feabc7bff3fd6d7f31dd67350504359ab5dacf5a82fc2fe314841521df1ba2d5160194d5d3c05a3366e04e9ac1a47c63398d9b622447d80c09f16ac19c862a8b2e830c464d0d1e8f24243e0cb55eb6fc5946767a290f0181a38ddb865c4414db120aed2318d4c12a8dd75a11d6832f71ad6802ae6632813510bf07f54ea0cf86e4e6097c14e2952299430f66415694f35ce6daf1b12e3247d3e333216daf92aa7be714e85111e0999aea0081a7815c0fa9181f2d304c5769778283b3c0c4d9effd2b4d50535b666a87a2a8b4bac4dedfe202103c4f57728b8c9c9fa6afbfd4d9dbdce4eb1d393b50696b798c94999ba1adaeafb0b7c1ced4f500000000000000001020334801fd2105005ef94ccd269f95bfc6e6bf92090abd47804c51dcd0c17459230a269f91494554a9f21967d2b7fa30c1d2d4562d7bc4056f3c76e6b9c7b9ad55d43946b4a948fe7a69414993b9816b0504ade7d338a89e00ff3dae9889f4b133a2eff0590c8db3b2cc0d6653baf66d5d19dadf8620de48ff8af011af23a4b0569e838c510917c61f6f6d159af378ea9776044e8e8bf5b91462114d24ed930322a200aef2b4fc97413a1d9c80b4a1ed12d91ef23089e807041494980a62050c2ddd8ffcd632df1e015cf0716e49328d609023d292c72e5908c83b5b42596a8ebdc4105bde6e42d5b642c72de5e8ad8e9e8fe1a3260ff7d541d74108b978aa2514ff7c81c4022d6873aa1c6195c178f9ad9720b596534adada28467f5de360ac717c81e771bf8dea5fa35f2b102e299fb24426d353f2d3637ee7e724456f6f1b6a0657e52972d44f8b5779c58a6fd83b74b0d9ea13c2ae7c90050571cc19440de2f56db7215af388020467e9d7f126bf132e69be3da3f6573fa43b139f8970fd234883ddbb7abce0de0ae6171f24d3e13a6e7cc136939d6a546a686d87da2e98e36c5328ba5b6644f350c8b2533c47b4ff394fdf4a8fc13f6afd7634cbda20a4a02dfce43e270fb24522bd938abe9d1d295970cb2252e0d9f5b4f451aa1c93954c881e74d22f957ca75d05d6cedcca9fc34fab4d5bb71ac8436102ff1ac3bf35a8f36530673a0fabf71b5c7b0e5afc1eae258535bbf61cace08ed48cf9731ea84a8513c11fd429cec14e5c9773c84ba773a66f807aa8211d246ae8793ed7445a6e9a66bbcc469a3c75fcfa62b30a3b13e60cfac5d691a1259f050b6c2ef6729bee9c08c01d63f5cb421bfadaaf1bc86ef1fc0e7d669ce2c0b15d4acaff3436fcebf00392b294a5faaf45a605a7640fc23e2f9c91e24b5ef41db5bf966ae156a5566b68eef06d823d686fe77acc22abc8327e70d9b74f93d92f27a228cfa81661d553ebe4ed024e24480bb55a4782e532aa070616612be3d68357f9217c75bfd603d229184db2e7f5b0959d7eaa1abb2f151168df09493a3406dfc11e7f1789c764336be8cde85c4626d05d4fe553fdf6028d5fa76a3966b3c14d16bf327250b5d7b9fbc95ef3918526670f40d465021281f79f4e0b63a655798006f81ab0ab978d4e5ce971e8e1d298b490b93cc592f7f19ae337eaaf7b0c32db07960b303f31d2e842c9b1d8d9cc2c42097dfaca36b9ba7a4ce5717d4378e34a6bd7b7ef3488ac359a4fcffbc5f596f87972ccc91dce673d6281b59eef9df8e17777ed762e18501b9eb76f910f1f96b0b393ce87b63d3ccd554727c8b8a3201365d665f5f4294ded03ae0f78e8296b8a3fac1db28d35826af689686546170936faf1f77b73e84d57ea7c8737a240daaae86e4fa4f6f923445ac5238d26bd661745f5950be1606ba80582a27be9e678a11ec4e2632fb2ca3b90e58035b4fc7ae1a05c4a558b5d440bcd9a9f8a553bd9d12681186ae71a1cba4f88698c57cc80176035faa4ce62ae61347a83159cd194165e1c6a14705e179dd8c03cacfe6b309b0a89bd0ea9dcda9f65d7fb4ca18d0045631122392cceae6dca5a13519290c7077453faabe47b74eba3a03bb998a2bb62a13c56c19383410e4034b311f1d5a565e31c59e6c7c3997353b05969a452b45ba9dda0e294547cb6c730827c26958770dae44bcfe499c95d54bf541d5935f7f25ad460cc2ae7f99a7bdd6863d78d5bb451f1f92779cea2dbca01a2df1684672dbb5c297cd892c385e629d7931a135dd1ad0bd72d733801711625c22db08ace4e4824b9e848a23acc6c4dc674b9578cc02100f179f35d42268b812a1685dc79000000",
  "txid": "1390158ebb2ddcd32a073dededfc62341eb5816d4b536150d790ce650364ee64",
  "hash": "f16bbdab1c0faaa6b3f2d28a632631de249027c8661015cce8f32032f19b8a0b",
  "size": 5085,
  "vsize": 2278,
  "version": 1,
  "locktime": 121,
  "vin": [
    {
      "txid": "115ae9a9c058f5d61f9838653c9259813418d7e84a6c1923c183221470cf5019",
      "vout": 0,
      "scriptSig": {
        "asm": "",
        "hex": ""
      },
      "txinwitness": [
        "07bc291541b7ca3c0aaf9f7dbdadde1f59642f1f5be3c9ed13029abc77ef4d50ced695461a211d95d3f8dc664766b74c2bed7d8d4bff63eecd5eb340191552700c1da41613825328980a583e0f9c52daaf975284f2cb5a524ec0c5f3c456a9681d5c6cb8b83c678cb957b4eaa6e758f3220897db8daa3e7a2647ba653b8331669aa3d214aa5505e43ee32c250972954e5b4d7b3e9fc2d31db4fa6cb462ab326ae02919c627509a74edd626707f7dff1b09c090ececc86fc2db9a1c87df4cb6649363d51fe631102076f48b990e1e9d7e856d19ba4a9d47dde1291b1141ad859e4ccaef1d739066bb89707c7fc25fb5a35bab5ed8cc9ec98bf455d5d1cbb2cc95fbd35a560bfcd27a73572f20010fef5b35fca6465d9c1030ff7541e75b856006bc2bf707e33c5f3c0995e1b222d9762a43c2652a4d4d6ccc1bc7fabda9b21aed8e4f871927236c98db482f966cd7fc768527e3d662023da86822a41b9ecfd7a9e70da4f053521ea791802c91279c18b6bbba4418805fb216124bad44470c1636a5c8a93f011054291f75189daaacc08632d46ddfd590da640e652e9ff28c6e4b3cf68c9908aa21be26573d3c90432c8531bdfa70e2a1e86d05d0f8106250647d8204a3c61d7487c7d5f4456e806747d3ee6315ce6a1e85bb659e3294fdc22944a419ce8bc5d6efa31486cc226c2ffb07ece8c84235edcb02fdbbbe1426abe2d48b5c5bbd9ab5a9581427616b14b1c033003eb82aa1d11afcdabdf40242cbbcc1b776c7965f658d1aaadbcb0a847fc82149719c1cc2dfeb4377d806d48e5caeb5af565dc74b1028aeb059f33efb556166b919b4d65313bb02f9657423fd710ead35dcbb174b579200a605ad18b345f4797993dc249a7cdac1074f4f50a468dc57862a0172de1e3cb46473b3e5914996a36733e560976d1509b116fa29e954e1473fc31e55bebf8b8e9009640a7fd6cbcdc184c867e2af369b0e42410860e50150884d77eea8c623fcf2f740ff9e0d2c5dac6e0633ed40a0a8d87e28b7f7a8e66bba5fa56597e903f02ab3e26051ad5aa7fa0e51872dd9637801bf638e4c032840a665b38ebe77ec72fa2286fac9e957e934715ec96cc2101978584baecd52f6749b42b17a89970fadc46119705c94a55141e3f844f10dc927357fb50861d04e7243a0fd94a46c7dbf7c436026a900364a84ebbf66e617a52ad33fdc34d6f370d6af6656742233cc814ef825c2e446cf520b2145571ba71d3cc8123d19ef7fb1592f81d06ee0e00205575584996d14ca693eb32d5adbb0d30233cda868c23b6d4560c44341b25e0aa8734dfd1dfd7fd32c7d957837108489ea98a7237865310440b8aa15e3e251bc645614865e48ecc286a6bfea784703a73207ae5539937b2efa3550725327c848464e88915222d1c7fb6bcfa6bee6f8f79c35088d8e28d685a314f0d7ee440fd46aef5c945ec34852484874641fbc9d5a534c88443f19c5dad9d774f6f0b713d7d90e084a92bf54442ca1679794d18e5391fcd6159c1345f431c1618d0889358fa007120991cd6c8388dd244b76b790992798a386959c8cb7856596d275bde4302a92a0e61edc1eb72fe73f40eb723bdcd7081bb83345a053020c91385e1b5320f7b627cd77b7b406f7976c49b5036731d9b0aae40ea3eedc98053e26a0e7d14ca9d83385303f46d41bd05e7d5163e0c933500ee6284e0614eb534909233eec3d8f223d114f518ca2de90aafbc93e2266280cd0bd606cf222fc8994f132ade8352ff294a762f89c886ffff5cc04eb42007b6003769b8129a3fc6249e3d4449ce34f370ec78d79821d9f678e011b32665571e38c02203820a763b1c3ac39e00c2ec75fb69e7043826ec8451f6344493cb51b879a72cf9a25df7b0a368495e56ee5b4c7f0e5782be2807ce0e2448d7939cb0d92abc5d85414fe295d857855d30b289bdf8ea89150890c6ea157ffc6d990ad7c07f6fb51367401dfbaf9ae0cefbf293e8f44ae97c33bf3c76c647979460a55f83d2edfebcd7e427c85f1148585a8b891b9edc4ab61f1006cc4de17a73315ff0f109e08ff799a8ddda0fca7992aa53c64617c2caf120ca034ffad24712ba0f1b178d8580bb5f5a2a1c9219af785d4e62adc892c35eea727ef01c379ddd555e4f3f9b176d0206f6c65c11b9646fe218a91052f42cd51da0d119f69589265e50b027a1827b79ebbbddea1b6e699dbbbc4286d13617773efcf94d687e99310d8660e6f371be8a20800a1c0c7ac3f559c9be4efc49c3cf95b1a0f693e187c46a09767586d03cf419dea94812e56ad1d169e38d1e5e3ff8e284418a16429798aeed7164a70b2f98fa6383ad11f88c3471524bfae817d0a96f6e2ddb655c5e534f24a1fac1f03541c77bb929a3284ccde7e5e60b0418c8e36a902fb70ce565e820020f6b2c4b64e2b5f4855f042b923db6c5a869a159a2aaad9a3bc45631e7c580f68faf8a5e634a4a54eb11f73f897c12f55cdcf1b1e18f780476a2991533b415b434c526a471043404e140afe9d2e8de8e798740e25e4021291bde43f80e1a7f113f87cf9c266a04153d8244a4d0e5086c270b1496d9853cdea447c24f23c5e80606c80ebceac69ed476b8f30b00b400410f9e29a3399175c3fe1ab5654968f74343f2eb27d0f914417ab7ac72d2fc821cb0bbb98e11d512a9202d6321141fbf76abb9fe17dd620a2ea5e26c8b39c5bf436023542c0f54535b24dc7d133afc09123fb61089860390b855d2aedae541705cb5f487986ec79c6d47ed588fbc6306417a74e28319dc704ffced7f193150cd6ce5103aca0e388225959e900d0a72309f1ef4a738f9d9b0476dd49337e35a6d07a36a9656a4110e03fe3149ac677a938733a14221f6e08a0f3c81314806c7398e9458e54c33e45a485b22bd069d2094d9eb7e8f1976901244bd282556b10316d58cc00fd72502eb2348940cbbcd4ba4aaf4757f578abcb79d161c173d19c9c0d6dc5fca704a021442cc8ea039958af4fc7728fdb8a0e26a03a8c393801541c96f69afdda7b7503d2d9feabc7bff3fd6d7f31dd67350504359ab5dacf5a82fc2fe314841521df1ba2d5160194d5d3c05a3366e04e9ac1a47c63398d9b622447d80c09f16ac19c862a8b2e830c464d0d1e8f24243e0cb55eb6fc5946767a290f0181a38ddb865c4414db120aed2318d4c12a8dd75a11d6832f71ad6802ae6632813510bf07f54ea0cf86e4e6097c14e2952299430f66415694f35ce6daf1b12e3247d3e333216daf92aa7be714e85111e0999aea0081a7815c0fa9181f2d304c5769778283b3c0c4d9effd2b4d50535b666a87a2a8b4bac4dedfe202103c4f57728b8c9c9fa6afbfd4d9dbdce4eb1d393b50696b798c94999ba1adaeafb0b7c1ced4f500000000000000001020334801",
        "005ef94ccd269f95bfc6e6bf92090abd47804c51dcd0c17459230a269f91494554a9f21967d2b7fa30c1d2d4562d7bc4056f3c76e6b9c7b9ad55d43946b4a948fe7a69414993b9816b0504ade7d338a89e00ff3dae9889f4b133a2eff0590c8db3b2cc0d6653baf66d5d19dadf8620de48ff8af011af23a4b0569e838c510917c61f6f6d159af378ea9776044e8e8bf5b91462114d24ed930322a200aef2b4fc97413a1d9c80b4a1ed12d91ef23089e807041494980a62050c2ddd8ffcd632df1e015cf0716e49328d609023d292c72e5908c83b5b42596a8ebdc4105bde6e42d5b642c72de5e8ad8e9e8fe1a3260ff7d541d74108b978aa2514ff7c81c4022d6873aa1c6195c178f9ad9720b596534adada28467f5de360ac717c81e771bf8dea5fa35f2b102e299fb24426d353f2d3637ee7e724456f6f1b6a0657e52972d44f8b5779c58a6fd83b74b0d9ea13c2ae7c90050571cc19440de2f56db7215af388020467e9d7f126bf132e69be3da3f6573fa43b139f8970fd234883ddbb7abce0de0ae6171f24d3e13a6e7cc136939d6a546a686d87da2e98e36c5328ba5b6644f350c8b2533c47b4ff394fdf4a8fc13f6afd7634cbda20a4a02dfce43e270fb24522bd938abe9d1d295970cb2252e0d9f5b4f451aa1c93954c881e74d22f957ca75d05d6cedcca9fc34fab4d5bb71ac8436102ff1ac3bf35a8f36530673a0fabf71b5c7b0e5afc1eae258535bbf61cace08ed48cf9731ea84a8513c11fd429cec14e5c9773c84ba773a66f807aa8211d246ae8793ed7445a6e9a66bbcc469a3c75fcfa62b30a3b13e60cfac5d691a1259f050b6c2ef6729bee9c08c01d63f5cb421bfadaaf1bc86ef1fc0e7d669ce2c0b15d4acaff3436fcebf00392b294a5faaf45a605a7640fc23e2f9c91e24b5ef41db5bf966ae156a5566b68eef06d823d686fe77acc22abc8327e70d9b74f93d92f27a228cfa81661d553ebe4ed024e24480bb55a4782e532aa070616612be3d68357f9217c75bfd603d229184db2e7f5b0959d7eaa1abb2f151168df09493a3406dfc11e7f1789c764336be8cde85c4626d05d4fe553fdf6028d5fa76a3966b3c14d16bf327250b5d7b9fbc95ef3918526670f40d465021281f79f4e0b63a655798006f81ab0ab978d4e5ce971e8e1d298b490b93cc592f7f19ae337eaaf7b0c32db07960b303f31d2e842c9b1d8d9cc2c42097dfaca36b9ba7a4ce5717d4378e34a6bd7b7ef3488ac359a4fcffbc5f596f87972ccc91dce673d6281b59eef9df8e17777ed762e18501b9eb76f910f1f96b0b393ce87b63d3ccd554727c8b8a3201365d665f5f4294ded03ae0f78e8296b8a3fac1db28d35826af689686546170936faf1f77b73e84d57ea7c8737a240daaae86e4fa4f6f923445ac5238d26bd661745f5950be1606ba80582a27be9e678a11ec4e2632fb2ca3b90e58035b4fc7ae1a05c4a558b5d440bcd9a9f8a553bd9d12681186ae71a1cba4f88698c57cc80176035faa4ce62ae61347a83159cd194165e1c6a14705e179dd8c03cacfe6b309b0a89bd0ea9dcda9f65d7fb4ca18d0045631122392cceae6dca5a13519290c7077453faabe47b74eba3a03bb998a2bb62a13c56c19383410e4034b311f1d5a565e31c59e6c7c3997353b05969a452b45ba9dda0e294547cb6c730827c26958770dae44bcfe499c95d54bf541d5935f7f25ad460cc2ae7f99a7bdd6863d78d5bb451f1f92779cea2dbca01a2df1684672dbb5c297cd892c385e629d7931a135dd1ad0bd72d733801711625c22db08ace4e4824b9e848a23acc6c4dc674b9578cc02100f179f35d42268b812a1685dc"
      ],
      "sequence": 4294967294
    }
  ],
  "vout": [
    {
      "value": 1.0,
      "n": 0,
      "scriptPubKey": {
        "asm": "OP_RETURN cae05a01d4a5547eab7a9593e28c82899f76405eaf623cc552eeb104b3d31339 cc3b2e47b32a5f631da2f0f66a1f2fcd5e142bebc3eecc181b28555d745f096fec1b0e67930a7f433d82d0d64a3f0fed7e340bcbe3ceec383b08757d547f294f8c7b6e07f36a1f235de2b0b62a5f6f8d1e546bab83ae8c585b68151d341f492fac5b4e27d34a3f037dc290960a7f4fad3e744b8ba38eac787b48353d143f690f4cbbaec733aadfe39d227076ea9faf4dde94ab6b436e4c989ba8d5ddf4df89ef6c9b8ee7138affc3bd025056cabf8f6dfeb48b4b634e6cb8bb88f5fdd4ffa9cf0cfbee8773ea9fa3dd623036aadfef0d9ed4eb2b032e0cd8dbe8959db49fc9af2cdbcea753cabf83fd4210168affcf2dbef4cb0b230e2cf8fbc8b5bd94bfe98fcc3b2e47b32a5f631da2f0f66a1f2fcd5e142bebc3eecc181b28555d745f096fec1b0e67930a7f433d82d0d64a3f0fed7e340bcbe3ceec383b08757d547f294f8c7b6e07f36a1f235de2b0b62a5f6f8d1e546bab83ae8c585b68151d341f492fac5b4e27d34a3f037dc290960a7f4fad3e744b8ba38eac787b48353d143f690f4cbbaec733aadfe39d227076ea9faf4dde94ab6b436e4c989ba8d5ddf4df89ef6c9b8ee7138affc3bd025056cabf8f6dfeb48b4b634e6cb8bb88f5fdd4ffa9cf0cfbee8773ea9fa3dd623036aadfef0d9ed4eb2b032e0cd8dbe8959db49fc9af2cdbcea753cabf83fd4210168affcf2dbef4cb0b230e2cf8fbc8b5bd94bfe98fcc3b2e47b32a5f631da2f0f66a1f2fcd5e142bebc3eecc181b28555d745f096fec1b0e67930a7f433d82d0d64a3f0fed7e340bcbe3ceec383b08757d547f294f8c7b6e07f36a1f235de2b0b62a5f6f8d1e546bab83ae8c585b68151d341f492fac5b4e27d34a3f037dc290960a7f4fad3e744b8ba38eac787b48353d143f690f4cbbaec733aadfe39d227076ea9faf4dde94ab6b436e4c989ba8d5ddf4df89ef6c9b8ee7138affc3bd025056cabf8f6dfeb48b4b634e6cb8bb88f5fdd4ffa9cf0cfbee8773ea9fa3dd623036aadfef0d9ed4eb2b032e0cd8dbe8959db49fc9af2cdbcea753cabf83fd4210168affcf2dbef4cb0b230e2cf8fbc8b5bd94bfe98fcc3b2e47b32a5f631da2f0f66a1f2fcd5e142bebc3eecc181b28555d745f096fec1b0e67930a7f433d82d0d64a3f0fed7e340bcbe3ceec383b08757d547f294f8c7b6e07f36a1f235de2b0b62a5f6f8d1e546bab83ae8c585b68151d341f492fac5b4e27d34a3f037dc290960a7f4fad3e744b8ba38eac787b48353d143f690f4cbbaec733aadfe39d227076ea9faf4dde94ab6b436e4c989ba8d5ddf4df89ef6c9b8ee7138affc3bd025056cabf8f6dfeb48b4b634e6cb8bb88f5fdd4ffa9cf0cfbee8773ea9fa3dd623036aadfef0d9ed4eb2b032e0cd8dbe8959db49fc9af2cdbcea753cabf83fd4210168affcf2dbef4cb0b230e2cf8fbc8b5bd94bfe98fcc3b2e47b32a5f631da2f0f66a1f2fcd5e142bebc3eecc181b28555d745f096fec1b0e67930a7f433d82d0d64a3f0fed7e340bcbe3ceec383b08757d547f294f8c7b6e07f36a1f235de2b0b62a5f6f8d1e546bab83ae8c585b68151d341f492fac5b4e27d34a3f037dc290960a7f4fad3e744b8ba38eac787b48353d143f690f4cbbaec733aadfe39d227076ea9faf4da3b9b9d316a85a2584bfe2363f597f52f87dab275588706924cead5a59794e90",
        "hex": "6a20cae05a01d4a5547eab7a9593e28c82899f76405eaf623cc552eeb104b3d313394db004cc3b2e47b32a5f631da2f0f66a1f2fcd5e142bebc3eecc181b28555d745f096fec1b0e67930a7f433d82d0d64a3f0fed7e340bcbe3ceec383b08757d547f294f8c7b6e07f36a1f235de2b0b62a5f6f8d1e546bab83ae8c585b68151d341f492fac5b4e27d34a3f037dc290960a7f4fad3e744b8ba38eac787b48353d143f690f4cbbaec733aadfe39d227076ea9faf4dde94ab6b436e4c989ba8d5ddf4df89ef6c9b8ee7138affc3bd025056cabf8f6dfeb48b4b634e6cb8bb88f5fdd4ffa9cf0cfbee8773ea9fa3dd623036aadfef0d9ed4eb2b032e0cd8dbe8959db49fc9af2cdbcea753cabf83fd4210168affcf2dbef4cb0b230e2cf8fbc8b5bd94bfe98fcc3b2e47b32a5f631da2f0f66a1f2fcd5e142bebc3eecc181b28555d745f096fec1b0e67930a7f433d82d0d64a3f0fed7e340bcbe3ceec383b08757d547f294f8c7b6e07f36a1f235de2b0b62a5f6f8d1e546bab83ae8c585b68151d341f492fac5b4e27d34a3f037dc290960a7f4fad3e744b8ba38eac787b48353d143f690f4cbbaec733aadfe39d227076ea9faf4dde94ab6b436e4c989ba8d5ddf4df89ef6c9b8ee7138affc3bd025056cabf8f6dfeb48b4b634e6cb8bb88f5fdd4ffa9cf0cfbee8773ea9fa3dd623036aadfef0d9ed4eb2b032e0cd8dbe8959db49fc9af2cdbcea753cabf83fd4210168affcf2dbef4cb0b230e2cf8fbc8b5bd94bfe98fcc3b2e47b32a5f631da2f0f66a1f2fcd5e142bebc3eecc181b28555d745f096fec1b0e67930a7f433d82d0d64a3f0fed7e340bcbe3ceec383b08757d547f294f8c7b6e07f36a1f235de2b0b62a5f6f8d1e546bab83ae8c585b68151d341f492fac5b4e27d34a3f037dc290960a7f4fad3e744b8ba38eac787b48353d143f690f4cbbaec733aadfe39d227076ea9faf4dde94ab6b436e4c989ba8d5ddf4df89ef6c9b8ee7138affc3bd025056cabf8f6dfeb48b4b634e6cb8bb88f5fdd4ffa9cf0cfbee8773ea9fa3dd623036aadfef0d9ed4eb2b032e0cd8dbe8959db49fc9af2cdbcea753cabf83fd4210168affcf2dbef4cb0b230e2cf8fbc8b5bd94bfe98fcc3b2e47b32a5f631da2f0f66a1f2fcd5e142bebc3eecc181b28555d745f096fec1b0e67930a7f433d82d0d64a3f0fed7e340bcbe3ceec383b08757d547f294f8c7b6e07f36a1f235de2b0b62a5f6f8d1e546bab83ae8c585b68151d341f492fac5b4e27d34a3f037dc290960a7f4fad3e744b8ba38eac787b48353d143f690f4cbbaec733aadfe39d227076ea9faf4dde94ab6b436e4c989ba8d5ddf4df89ef6c9b8ee7138affc3bd025056cabf8f6dfeb48b4b634e6cb8bb88f5fdd4ffa9cf0cfbee8773ea9fa3dd623036aadfef0d9ed4eb2b032e0cd8dbe8959db49fc9af2cdbcea753cabf83fd4210168affcf2dbef4cb0b230e2cf8fbc8b5bd94bfe98fcc3b2e47b32a5f631da2f0f66a1f2fcd5e142bebc3eecc181b28555d745f096fec1b0e67930a7f433d82d0d64a3f0fed7e340bcbe3ceec383b08757d547f294f8c7b6e07f36a1f235de2b0b62a5f6f8d1e546bab83ae8c585b68151d341f492fac5b4e27d34a3f037dc290960a7f4fad3e744b8ba38eac787b48353d143f690f4cbbaec733aadfe39d227076ea9faf4da3b9b9d316a85a2584bfe2363f597f52f87dab275588706924cead5a59794e90",
        "type": "nulldata"
      }
    },
    {
      "value": 499975.5944,
      "n": 1,
      "scriptPubKey": {
        "asm": "1 1931da91c5344e3fcb39445e8d3f23d90fae0ee7c27d9df4f31ae7252f15c0f0",
        "hex": "51201931da91c5344e3fcb39445e8d3f23d90fae0ee7c27d9df4f31ae7252f15c0f0",
        "reqSigs": 1,
        "type": "witness_v1_scripthash",
        "addresses": [
          "3QJmnh"
        ]
      }
    }
  ],
  "blockhash": "b00c1afcc726d07acf9b884f47bf06130e4cba196c4900690ef7405d42c36beb",
  "confirmations": 1,
  "time": 1764180257,
  "blocktime": 1764180257
}