{
  "hex": "0100000000010102231165028644997b7226222db8126b666445c0358e2b2e6b5c42277705b0770000000000feffffff0200e1f50500000000fdd5046a20f9955eb7c19b88aca0acefa81a7955fd9fe7755cfa202a388ad96eaeba388fdf4db00493b8df4c1526b55b83967fb892e303211e8da23dd4013098eaf526114304abe2b398ff6c3506957ba3b65f98b2c323013ead821df42110b8cad5063163248bc2d3f89f0c5566f51bc3d63ff8d2a343615ecde27d944170d8aab566510344eba2f3d8bf2c7546d53be3f61fd8f28363417eedc25db46150f88a9546712364cb8213385fcc95a635db0316ff38126383a19e0d22bd5481b0186a75a691c3842b6233187fecb58615fb2336df183243a381be2d029d74a190384a5586b1e3a40b4253781f8cd5e6759b4356bf785223c3e1de4d62fd14c1f0582a35e6d183c46b2273583facf5c655bb63769f587203e3c1fe6d42dd34e1d0780a15c6f1a3e44b0293b8df4c1526b55b83967fb892e303211e8da23dd4013098eaf526114304abe2b398ff6c3506957ba3b65f98b2c323013ead821df42110b8cad5063163248bc2d3f89f0c5566f51bc3d63ff8d2a343615ecde27d944170d8aab566510344eba2f3d8bf2c7546d53be3f61fd8f28363417eedc25db46150f88a9546712364cb8213385fcc95a635db0316ff38126383a19e0d22bd5481b0186a75a691c3842b6233187fecb58615fb2336df183243a381be2d029d74a190384a5586b1e3a40b4253781f8cd5e6759b4356bf785223c3e1de4d62fd14c1f0582a35e6d183c46b2273583facf5c655bb63769f587203e3c1fe6d42dd34e1d0780a15c6f1a3e44b0293b8df4c1526b55b83967fb892e303211e8da23dd4013098eaf526114304abe2b398ff6c3506957ba3b65f98b2c323013ead821df42110b8cad5063163248bc2d3f89f0c5566f51bc3d63ff8d2a343615ecde27d944170d8aab566510344eba2f3d8bf2c7546d53be3f61fd8f28363417eedc25db46150f88a9546712364cb8213385fcc95a635db0316ff38126383a19e0d22bd5481b0186a75a691c3842b6233187fecb58615fb2336df183243a381be2d029d74a190384a5586b1e3a40b4253781f8cd5e6759b4356bf785223c3e1de4d62fd14c1f0582a35e6d183c46b2273583facf5c655bb63769f587203e3c1fe6d42dd34e1d0780a15c6f1a3e44b0293b8df4c1526b55b83967fb892e303211e8da23dd4013098eaf526114304abe2b398ff6c3506957ba3b65f98b2c323013ead821df42110b8cad5063163248bc2d3f89f0c5566f51bc3d63ff8d2a343615ecde27d944170d8aab566510344eba2f3d8bf2c7546d53be3f61fd8f28363417eedc25db46150f88a9546712364cb8213385fcc95a635db0316ff38126383a19e0d22bd5481b0186a75a691c3842b6233187fecb58615fb2336df183243a381be2d029d74a190384a5586b1e3a40b4253781f8cd5e6759b4356bf785223c3e1de4d62fd14c1f0582a35e6d183c46b2273583facf5c655bb63769f587203e3c1fe6d42dd34e1d0780a15c6f1a3e44b0293b8df4c1526b55b83967fb892e303211e8da23dd4013098eaf526114304abe2b398ff6c3506957ba3b65f98b2c323013ead821df42110b8cad5063163248bc2d3f89f0c5566f51bc3d63ff8d2a343615ecde27d944170d8aab566510344eba2f3d8bf2c7546d53be3f61fd8f28363417eedc25db46150f88a9546712364cb8213385fcc95a635db0316ff38126383a124b5e0da0947eeaf084a89ba4828588f8540b8251e9910c01a3d6cf4b23ccf909021522d792d0000225120658ff86d20bceed86eba623b6707fe17808dd783ed9ea7433bca33dd96bb0e9802fd750937eda19bbe2330440db8470c2a773dac703f9ae3ad7b910d383bbd7eda052e3b2d1840e466c97968a8006f95594e9d407329a0f5c9930388435099637bee3b7cad5281901beb1e95cc3e3c2939ef4a0c6a638553757e042a5af12e39de7ff9f15c362be9a652708038fa9b70ed92cf2c08fafdb12d60240a4f455b5cbb424ff34c69d5d57f10ffabc2ade342094ea2b7dbb576a612db08bce1363f2938a1d6087bc8faba370d45b7882b354ea37945dd7c1c6358eadc485a2531c0118fb804fe007ec79510d60e2889bbeea9b4fea0a551229180c1b93cafa9bf4f4b1cae82ff551d2c32baca19e223276ff6adc317908b4ae7d8da468c3772a8a906ae9ab5fcfa8eec03653bb4b52ab8f280aae6582df7f0529fd7a5d80d3f072f13e086654ea195e022f48a498ca2ea31bc418a917b8297c3115f6467975f2b67a99a6dd87afa7ea8d4dd7fdd3a05e98c09fe3bcafb78db8a81289c16b2c8c0433db2efcc647e1f501f3cf079d9e639964fdb56838f19b8378ddf594847bdfbb1654ce6b2ea1c520cf3e68d7d07481a6ae306a2d87184668d493d68ad04b5f3db0555fbad225c0f2d323ed7c929af41f5d657ffa622bdbac4bcb8a119160bda3cad918f913bb742cb2a0670750a91d876afba9739c6e746adf1f460a7264cbc116889773e6b2063c39894fd2a68879c2e339ae860ec749b2df44332532d66efd842b89eb40df1647985f12925e3ee34f5756799a7d1ac8de00d2e80d207d70cd34dfb9ac76c5ec4e77b2229857407223594a0eda4c75ab0067ff9da5ff8d0c9c95970401a70f0d774a4ba1452833d1a26f5d2ddbe13b5cb689c0fcea795023bc127ad8f811b08b4e1ca1930c0d6d5437cd3c232d5fde53e0b382aeaf7addc394a512b081b16a3ad545bcbf0670b07ad1aa6b0464cabe0f7e2e691dbf0084347f220a36ba5db703e8872248b475ce39c28cc51caec2d0dac67660301e03f73874a0cac14845265e380a036243bc688e5fb6ec984abbf1f0e9b30bdb808798bf834bf5d76652d0e223ae375b15042d9aea23874483f2af1255c059471c34ec1c49754aaa8b5bc02a37567a0ad10ec063e32bb3d89251844287cd58321b08f31b4b8b603d795044fe5ed44156049b24965598e110e1cca23f5c0423b9d15019fc681766920602b3878316588a9fbb7dad47044639f04c3630442c3dcf47c4e7aa809b8e60b6f9734b8b20daddf664c7c882bc5e42c27c9ea5485d8f911c688d3ea479f02b40bacef17bd44284e8b3fff1ba2b473b1ecef03b622e7ca99c9baf2d56a879261dd0d03a14a5e719505514929f32bbeade9cd3d8355406f8db2a56fd02810a9dd2fe96369d066d000592322bf97f840f244785644f5337f57179312a4f601145f628837a2a40eb1986df154e23a61354fb990f9d69db2c12c3c939214d4f3bf40c8fffc7e1970ee8a706febd8fa5a7ee1e174ee77a8ef23530f10e6a19a95afbcd9e1f9e362e5ac46c0b0885167cc8641292cd7e1f1a4c81e6525d664d362a06419f89f55d5a799eb99d7c37277b2d63eb75760d34f5934cefe19091edffc313d4aca543288224b6fe3b50cfd0ea2d83c0ed5baf6bfd2ac2bcb147acc131d02ffa719cab902e39c2d5f62d4f98db8a5bc417dda818cf92a2771a188128f302b7f316d3b594593ab16b56f757ac0f6dd9733fa5d04b56d45bfd952a873ba1a6f697f62a91f136e12fdc762d64bf7154fb2511746e2a8a8e296129be97b38a52eddc3b23b84ecc7c0a0695b2c058fe4eaf242542d6293cc2e5814b6919a149b3d57ab65837182795d131c9830dbaa8356db41ab0134e0b8a2447f58581cfce9751d6870eaae62d35d6c3350a83f033bea190c96c6c9707fdd6292a8be9a8cae43e17e769def076e1af38cf71379b7005888e0fa6df283b68e55076dbe4a05a1f91533eccb3b029e63aef4779ad0b28b1d80258a0bb9c4d2b0f62ff4308aa45a69d0f79e3a73ba618d8113f0fd8970edc50a6478ad0faa06adb8428dc5472a69d8d5af5fa69e823884dcaac3c30a2f19d057f67a0f6cf5ad03b1ee360537aff6fd79eee0c6ae10f480c0c36465ac902758dabdcea13362b40b6a555109d9dad10ee5e17461826688eb4247a8cfe04ecdc87b3a20a33656e974ff9e7834a9742a7abb35f15116772b4a8d7e8d6f0197b1648367857f049d129a653c64e346d2c1911a41576983dd2194a18df8baf0c2b788d98a9260f90d33f059a09b596c5160b0fee4b22a55de0231567e3a8af871a4c59b150e3ced990412320b2dc4c8a9cac9e16aa943bfd78de262550caf0633ca8bf07dcf519ed7cd1ed255fcd89ac89001c59ca5988e1d2369b6afa92ea8676a0b62431563d5f6d29e229a4edb58d8799ea188aa7f73ff8a389590801e39e2c21127e6e20d810e84dc471e32351d9cf8742a6079a3c7bbc865f4c5bbea2bf68b37090b64ba6348392045400e09c57564c9a1fa2ea7b7e3279961cc39bb40d1df27225b137173982659a86739ca68c57908f333e0d4044300f6f2341221cf79b89711b8328a77c9c9853ef37ad1f7a653ce23451b2d4bbe1759e2a2b5fb81aab4c0f411caea1f9d5b4c1d2fdf52cb3593e2ffc50174a439d3316c5c10c5edfc7f89001986707fe266ea1bcab60e79e17e634b7b858823fc68ca4ee7693e671d3a47456b11544bd29b08d9baaf98a58e20b829272d9dede3af36f4e96a8116c4353014c75cd0913227ca8d012dea6d1b3284824c63ade0cbd89cbb9928ce4ea2b8b61d02a9cf3c4c041194517dc72c5a8c986c5884944e913d06231fb2d0ccf6de356e4eae4166850f445ca466cb39cd2242bc261d7c6bece21a50f46b0a90a66ff8c6b5a7b4e4d9d3f704b0ad72f0495758063eb3ec09d4d3fb182815d8539e05178ac9e8f61d7856740a2b2e09558b0cb271b259c7f1cf68e27e326002f1036bc65e94e83888a521d2cfe3067274896bb5d39ddca9768af2898587cbff1a92211b023a75dce3beca0cd5915e7e4a23e7d4125e7f23e67322da7ab0c7b66b48acdc241dcae95169113e0b2e8a17545a0aaab105db175409b8b8c4ae7a35c8a09f010f398c316c57bbe67b51a56efdf4125da1625d23f527eb9e3b944d8224a908ed7e5e9a27a4ec32ece114d6e8386757cc4dd87f1ac7305c0ec270c923479adfd320b613c822afef5f7a4c931d923a288bd44fba6ddf35d346f9b22f181ac6e9d10cba88e510795de1ea120c4d7c541f201b121563aa77c75f4d78db116d155a309e06a0185e2da627595d47a88431ff282d225102090d254c565b66787fa5aeb3c2d5d8dde9062428353a484c556f767a858889c1ccf2161c1e2f3c5864686b858da3a9baebf909323f424c5185869495bbcbcddfe7e8f1f2fa000000000000000000001223334601fd210500c4ab54f8545637354394dd7e77be13e56a408132d85ecfe2bbd414222fe8ae4c52857efd7485600f8c0b11025bdf93a2e798417e0af892888435393f11c3d8ec27f295023770d543ebad3a99d1ac5d8c1056cf3c613ecc965a2f28ed82e3939e0865747cecebef8fa256cc37c64429bde9befd724fe16c65ba06fb2c1aa9d5d6b7917cd45bfbc5c90059648dea9301fd48870365ee4056c0dabd089ceb813cd86ba9b0c32f3c045850ba4308d4b3e86b8b7ad18757a6edf64ce9d309f53946968889142724b31b2d7bd72c13803c2a27512bf09268725ce0a650a0e4fee7b2bd2f2590f2b58161293c86a1167356f3f5cd6034eec295aefdf9cffd1967a367db37e9fca8b01709417c087319eb3f37a2782bf36d078ac5b4289d2fec2dea11efb8e4e1ee09f55101c3fdda92be2a2ec639b364bc09b1781785547a1bd6cd309fa5aff67546a0ee9c56edae026bb55b41626254dee517fe92acaa310c68c7e04664ba66a7779b83f144eb18e5f5c23621ada57fc90a145614d9e740584874c301e9257b604db844b47d0789c027cd291185d52cec9d0d19e5474109e3abc53d0f4f65fbc4c7baf61b69312522b12c33613be960066638c6825aa523e45cbc5081bdb333864a7c7572d75a37fab5b0270eebb0c167d6d6570784aff1772b3bb765db47a85b6ec850f612175ec5ce4aad7456296dd85bd53ce9c7e506373b2afe1ee9c958dd2012d431b8e40a6c14bd4acc531ffb5925261c302c97bb24f9e06bdea63afa7444d37edfd461a952ba419d1529d55ea325349f6f485a2094170ae1187e74f5b0bc72d2395678ad49b387de4aadd7db5af0381a02b5f5d3c743179ad0d1bf4a3b550fdcc2c2596fe474bc1c962b3a1ea0bcc26b50ebf0c612470f551ae5818e7d72afb0953dba4f29f13fb14d049774b9b9e42f1b2bc5f6a8b4668328ac00d5d49891b5713f35122ff34b6a6d38acc136d3d018d78a1e3e12649f7ad06c223a99c734771f3580a9eecb222cc3f32c38223c2b3b4ec1b6d337af4b508d011a1437ab9aa49f4a76fa1a8427cc0c9e060b26b08fbbb08d0b7965782e9409753ba53ab604c7d99f34b283f532d8621adb45ca818357d9e4f12e92d486586c6a0c797591c00653c53caa4c0bd3eca768ccd5cbf2923f799599934d11ea88e3d2d58285cab2909ca155047af96eac73987f680e459cffdcdc80864d11d1adde1827a4a94a904e85f3fa313b289e566528da25a8f4b20116e9b891fd4ce87a88d1d2488baca360518cb9da48f745683b836d04830bdbe76319f80dda01867aed7d5dd94e3de6425407eb4b10db4f2a531a81b86a331a82944af44c4b52783ad669f9f0a41eb4ff16fbcca4ef16b5590b83ffb580b7592e5da5571cf3c1e8ff9f83df5151348a742a391259e0ff9279f708095244d6e2cc202a3082c5ea5a4d12c219f870577a24788f3f9365da35968c0b400ac1e85dc894c1789bd3513e0c9a1f0f8fcfc91c14b46ab4a6aef6c929bd1fe19df3cbaba570517c8e823dfe894c941b67579c4a311b69d0c450bf9f2bfa0a0617f61882485dc50015242ce2822f210649ca4c93454f0d1c91de7e3df2af87735d5761dcdfbd1200336eff2d33ccc0b11fee63b29381b3ae91e403c3f7f51fba81738cd9d3d73041c14ae872f2649ac73f4120cf9908065fabd49f1464a1841d9329f3f9ef01f05339f47f12e401af148bfcdf9a7b87c396b60f4980a030f3dea2b4daced1d422013cd8cf9efb1c9e8bb928d9fce35412caf43a85d84d54c7f40c533ea3b143425022c48cdfd6b708d52015de26acac97f940ff821e3967bfac8ee7c18273b9f1b166b267e67c6471000000",
  "txid": "194c059ed54ee9032b3bf42c7a2e689855652b223a014824b352ab894cd762f1",
  "hash": "a2cbb9315fa73e80f970498fc296d2a40beda30a1f09f52c41d741c1060e9095",
  "size": 5085,
  "vsize": 2278,
  "version": 1,
  "locktime": 113,
  "vin": [
    {
      "txid": "77b0057727425c6b2e2b8e35c04564666b12b82d2226727b9944860265112302",
      "vout": 0,
      "scriptSig": {
        "asm": "",
        "hex": ""
      },
      "txinwitness": [
        "37eda19bbe2330440db8470c2a773dac703f9ae3ad7b910d383bbd7eda052e3b2d1840e466c97968a8006f95594e9d407329a0f5c9930388435099637bee3b7cad5281901beb1e95cc3e3c2939ef4a0c6a638553757e042a5af12e39de7ff9f15c362be9a652708038fa9b70ed92cf2c08fafdb12d60240a4f455b5cbb424ff34c69d5d57f10ffabc2ade342094ea2b7dbb576a612db08bce1363f2938a1d6087bc8faba370d45b7882b354ea37945dd7c1c6358eadc485a2531c0118fb804fe007ec79510d60e2889bbeea9b4fea0a551229180c1b93cafa9bf4f4b1cae82ff551d2c32baca19e223276ff6adc317908b4ae7d8da468c3772a8a906ae9ab5fcfa8eec03653bb4b52ab8f280aae6582df7f0529fd7a5d80d3f072f13e086654ea195e022f48a498ca2ea31bc418a917b8297c3115f6467975f2b67a99a6dd87afa7ea8d4dd7fdd3a05e98c09fe3bcafb78db8a81289c16b2c8c0433db2efcc647e1f501f3cf079d9e639964fdb56838f19b8378ddf594847bdfbb1654ce6b2ea1c520cf3e68d7d07481a6ae306a2d87184668d493d68ad04b5f3db0555fbad225c0f2d323ed7c929af41f5d657ffa622bdbac4bcb8a119160bda3cad918f913bb742cb2a0670750a91d876afba9739c6e746adf1f460a7264cbc116889773e6b2063c39894fd2a68879c2e339ae860ec749b2df44332532d66efd842b89eb40df1647985f12925e3ee34f5756799a7d1ac8de00d2e80d207d70cd34dfb9ac76c5ec4e77b2229857407223594a0eda4c75ab0067ff9da5ff8d0c9c95970401a70f0d774a4ba1452833d1a26f5d2ddbe13b5cb689c0fcea795023bc127ad8f811b08b4e1ca1930c0d6d5437cd3c232d5fde53e0b382aeaf7addc394a512b081b16a3ad545bcbf0670b07ad1aa6b0464cabe0f7e2e691dbf0084347f220a36ba5db703e8872248b475ce39c28cc51caec2d0dac67660301e03f73874a0cac14845265e380a036243bc688e5fb6ec984abbf1f0e9b30bdb808798bf834bf5d76652d0e223ae375b15042d9aea23874483f2af1255c059471c34ec1c49754aaa8b5bc02a37567a0ad10ec063e32bb3d89251844287cd58321b08f31b4b8b603d795044fe5ed44156049b24965598e110e1cca23f5c0423b9d15019fc681766920602b3878316588a9fbb7dad47044639f04c3630442c3dcf47c4e7aa809b8e60b6f9734b8b20daddf664c7c882bc5e42c27c9ea5485d8f911c688d3ea479f02b40bacef17bd44284e8b3fff1ba2b473b1ecef03b622e7ca99c9baf2d56a879261dd0d03a14a5e719505514929f32bbeade9cd3d8355406f8db2a56fd02810a9dd2fe96369d066d000592322bf97f840f244785644f5337f57179312a4f601145f628837a2a40eb1986df154e23a61354fb990f9d69db2c12c3c939214d4f3bf40c8fffc7e1970ee8a706febd8fa5a7ee1e174ee77a8ef23530f10e6a19a95afbcd9e1f9e362e5ac46c0b0885167cc8641292cd7e1f1a4c81e6525d664d362a06419f89f55d5a799eb99d7c37277b2d63eb75760d34f5934cefe19091edffc313d4aca543288224b6fe3b50cfd0ea2d83c0ed5baf6bfd2ac2bcb147acc131d02ffa719cab902e39c2d5f62d4f98db8a5bc417dda818cf92a2771a188128f302b7f316d3b594593ab16b56f757ac0f6dd9733fa5d04b56d45bfd952a873ba1a6f697f62a91f136e12fdc762d64bf7154fb2511746e2a8a8e296129be97b38a52eddc3b23b84ecc7c0a0695b2c058fe4eaf242542d6293cc2e5814b6919a149b3d57ab65837182795d131c9830dbaa8356db41ab0134e0b8a2447f58581cfce9751d6870eaae62d35d6c3350a83f033bea190c96c6c9707fdd6292a8be9a8cae43e17e769def076e1af38cf71379b7005888e0fa6df283b68e55076dbe4a05a1f91533eccb3b029e63aef4779ad0b28b1d80258a0bb9c4d2b0f62ff4308aa45a69d0f79e3a73ba618d8113f0fd8970edc50a6478ad0faa06adb8428dc5472a69d8d5af5fa69e823884dcaac3c30a2f19d057f67a0f6cf5ad03b1ee360537aff6fd79eee0c6ae10f480c0c36465ac902758dabdcea13362b40b6a555109d9dad10ee5e17461826688eb4247a8cfe04ecdc87b3a20a33656e974ff9e7834a9742a7abb35f15116772b4a8d7e8d6f0197b1648367857f049d129a653c64e346d2c1911a41576983dd2194a18df8baf0c2b788d98a9260f90d33f059a09b596c5160b0fee4b22a55de0231567e3a8af871a4c59b150e3ced990412320b2dc4c8a9cac9e16aa943bfd78de262550caf0633ca8bf07dcf519ed7cd1ed255fcd89ac89001c59ca5988e1d2369b6afa92ea8676a0b62431563d5f6d29e229a4edb58d8799ea188aa7f73ff8a389590801e39e2c21127e6e20d810e84dc471e32351d9cf8742a6079a3c7bbc865f4c5bbea2bf68b37090b64ba6348392045400e09c57564c9a1fa2ea7b7e3279961cc39bb40d1df27225b137173982659a86739ca68c57908f333e0d4044300f6f2341221cf79b89711b8328a77c9c9853ef37ad1f7a653ce23451b2d4bbe1759e2a2b5fb81aab4c0f411caea1f9d5b4c1d2fdf52cb3593e2ffc50174a439d3316c5c10c5edfc7f89001986707fe266ea1bcab60e79e17e634b7b858823fc68ca4ee7693e671d3a47456b11544bd29b08d9baaf98a58e20b829272d9dede3af36f4e96a8116c4353014c75cd0913227ca8d012dea6d1b3284824c63ade0cbd89cbb9928ce4ea2b8b61d02a9cf3c4c041194517dc72c5a8c986c5884944e913d06231fb2d0ccf6de356e4eae4166850f445ca466cb39cd2242bc261d7c6bece21a50f46b0a90a66ff8c6b5a7b4e4d9d3f704b0ad72f0495758063eb3ec09d4d3fb182815d8539e05178ac9e8f61d7856740a2b2e09558b0cb271b259c7f1cf68e27e326002f1036bc65e94e83888a521d2cfe3067274896bb5d39ddca9768af2898587cbff1a92211b023a75dce3beca0cd5915e7e4a23e7d4125e7f23e67322da7ab0c7b66b48acdc241dcae95169113e0b2e8a17545a0aaab105db175409b8b8c4ae7a35c8a09f010f398c316c57bbe67b51a56efdf4125da1625d23f527eb9e3b944d8224a908ed7e5e9a27a4ec32ece114d6e8386757cc4dd87f1ac7305c0ec270c923479adfd320b613c822afef5f7a4c931d923a288bd44fba6ddf35d346f9b22f181ac6e9d10cba88e510795de1ea120c4d7c541f201b121563aa77c75f4d78db116d155a309e06a0185e2da627595d47a88431ff282d225102090d254c565b66787fa5aeb3c2d5d8dde9062428353a484c556f767a858889c1ccf2161c1e2f3c5864686b858da3a9baebf909323f424c5185869495bbcbcddfe7e8f1f2fa000000000000000000001223334601",
        "00c4ab54f8545637354394dd7e77be13e56a408132d85ecfe2bbd414222fe8ae4c52857efd7485600f8c0b11025bdf93a2e798417e0af892888435393f11c3d8ec27f295023770d543ebad3a99d1ac5d8c1056cf3c613ecc965a2f28ed82e3939e0865747cecebef8fa256cc37c64429bde9befd724fe16c65ba06fb2c1aa9d5d6b7917cd45bfbc5c90059648dea9301fd48870365ee4056c0dabd089ceb813cd86ba9b0c32f3c045850ba4308d4b3e86b8b7ad18757a6edf64ce9d309f53946968889142724b31b2d7bd72c13803c2a27512bf09268725ce0a650a0e4fee7b2bd2f2590f2b58161293c86a1167356f3f5cd6034eec295aefdf9cffd1967a367db37e9fca8b01709417c087319eb3f37a2782bf36d078ac5b4289d2fec2dea11efb8e4e1ee09f55101c3fdda92be2a2ec639b364bc09b1781785547a1bd6cd309fa5aff67546a0ee9c56edae026bb55b41626254dee517fe92acaa310c68c7e04664ba66a7779b83f144eb18e5f5c23621ada57fc90a145614d9e740584874c301e9257b604db844b47d0789c027cd291185d52cec9d0d19e5474109e3abc53d0f4f65fbc4c7baf61b69312522b12c33613be960066638c6825aa523e45cbc5081bdb333864a7c7572d75a37fab5b0270eebb0c167d6d6570784aff1772b3bb765db47a85b6ec850f612175ec5ce4aad7456296dd85bd53ce9c7e506373b2afe1ee9c958dd2012d431b8e40a6c14bd4acc531ffb5925261c302c97bb24f9e06bdea63afa7444d37edfd461a952ba419d1529d55ea325349f6f485a2094170ae1187e74f5b0bc72d2395678ad49b387de4aadd7db5af0381a02b5f5d3c743179ad0d1bf4a3b550fdcc2c2596fe474bc1c962b3a1ea0bcc26b50ebf0c612470f551ae5818e7d72afb0953dba4f29f13fb14d049774b9b9e42f1b2bc5f6a8b4668328ac00d5d49891b5713f35122ff34b6a6d38acc136d3d018d78a1e3e12649f7ad06c223a99c734771f3580a9eecb222cc3f32c38223c2b3b4ec1b6d337af4b508d011a1437ab9aa49f4a76fa1a8427cc0c9e060b26b08fbbb08d0b7965782e9409753ba53ab604c7d99f34b283f532d8621adb45ca818357d9e4f12e92d486586c6a0c797591c00653c53caa4c0bd3eca768ccd5cbf2923f799599934d11ea88e3d2d58285cab2909ca155047af96eac73987f680e459cffdcdc80864d11d1adde1827a4a94a904e85f3fa313b289e566528da25a8f4b20116e9b891fd4ce87a88d1d2488baca360518cb9da48f745683b836d04830bdbe76319f80dda01867aed7d5dd94e3de6425407eb4b10db4f2a531a81b86a331a82944af44c4b52783ad669f9f0a41eb4ff16fbcca4ef16b5590b83ffb580b7592e5da5571cf3c1e8ff9f83df5151348a742a391259e0ff9279f708095244d6e2cc202a3082c5ea5a4d12c219f870577a24788f3f9365da35968c0b400ac1e85dc894c1789bd3513e0c9a1f0f8fcfc91c14b46ab4a6aef6c929bd1fe19df3cbaba570517c8e823dfe894c941b67579c4a311b69d0c450bf9f2bfa0a0617f61882485dc50015242ce2822f210649ca4c93454f0d1c91de7e3df2af87735d5761dcdfbd1200336eff2d33ccc0b11fee63b29381b3ae91e403c3f7f51fba81738cd9d3d73041c14ae872f2649ac73f4120cf9908065fabd49f1464a1841d9329f3f9ef01f05339f47f12e401af148bfcdf9a7b87c396b60f4980a030f3dea2b4daced1d422013cd8cf9efb1c9e8bb928d9fce35412caf43a85d84d54c7f40c533ea3b143425022c48cdfd6b708d52015de26acac97f940ff821e3967bfac8ee7c18273b9f1b166b267e67c64"
      ],
      "sequence": 4294967294
    }
  ],
  "vout": [
    {
      "value": 1.0,
      "n": 0,
      "scriptPubKey": {
        "asm": "OP_RETURN f9955eb7c19b88aca0acefa81a7955fd9fe7755cfa202a388ad96eaeba388fdf 93b8df4c1526b55b83967fb892e303211e8da23dd4013098eaf526114304abe2b398ff6c3506957ba3b65f98b2c323013ead821df42110b8cad5063163248bc2d3f89f0c5566f51bc3d63ff8d2a343615ecde27d944170d8aab566510344eba2f3d8bf2c7546d53be3f61fd8f28363417eedc25db46150f88a9546712364cb8213385fcc95a635db0316ff38126383a19e0d22bd5481b0186a75a691c3842b6233187fecb58615fb2336df183243a381be2d029d74a190384a5586b1e3a40b4253781f8cd5e6759b4356bf785223c3e1de4d62fd14c1f0582a35e6d183c46b2273583facf5c655bb63769f587203e3c1fe6d42dd34e1d0780a15c6f1a3e44b0293b8df4c1526b55b83967fb892e303211e8da23dd4013098eaf526114304abe2b398ff6c3506957ba3b65f98b2c323013ead821df42110b8cad5063163248bc2d3f89f0c5566f51bc3d63ff8d2a343615ecde27d944170d8aab566510344eba2f3d8bf2c7546d53be3f61fd8f28363417eedc25db46150f88a9546712364cb8213385fcc95a635db0316ff38126383a19e0d22bd5481b0186a75a691c3842b6233187fecb58615fb2336df183243a381be2d029d74a190384a5586b1e3a40b4253781f8cd5e6759b4356bf785223c3e1de4d62fd14c1f0582a35e6d183c46b2273583facf5c655bb63769f587203e3c1fe6d42dd34e1d0780a15c6f1a3e44b0293b8df4c1526b55b83967fb892e303211e8da23dd4013098eaf526114304abe2b398ff6c3506957ba3b65f98b2c323013ead821df42110b8cad5063163248bc2d3f89f0c5566f51bc3d63ff8d2a343615ecde27d944170d8aab566510344eba2f3d8bf2c7546d53be3f61fd8f28363417eedc25db46150f88a9546712364cb8213385fcc95a635db0316ff38126383a19e0d22bd5481b0186a75a691c3842b6233187fecb58615fb2336df183243a381be2d029d74a190384a5586b1e3a40b4253781f8cd5e6759b4356bf785223c3e1de4d62fd14c1f0582a35e6d183c46b2273583facf5c655bb63769f587203e3c1fe6d42dd34e1d0780a15c6f1a3e44b0293b8df4c1526b55b83967fb892e303211e8da23dd4013098eaf526114304abe2b398ff6c3506957ba3b65f98b2c323013ead821df42110b8cad5063163248bc2d3f89f0c5566f51bc3d63ff8d2a343615ecde27d944170d8aab566510344eba2f3d8bf2c7546d53be3f61fd8f28363417eedc25db46150f88a9546712364cb8213385fcc95a635db0316ff38126383a19e0d22bd5481b0186a75a691c3842b6233187fecb58615fb2336df183243a381be2d029d74a190384a5586b1e3a40b4253781f8cd5e6759b4356bf785223c3e1de4d62fd14c1f0582a35e6d183c46b2273583facf5c655bb63769f587203e3c1fe6d42dd34e1d0780a15c6f1a3e44b0293b8df4c1526b55b83967fb892e303211e8da23dd4013098eaf526114304abe2b398ff6c3506957ba3b65f98b2c323013ead821df42110b8cad5063163248bc2d3f89f0c5566f51bc3d63ff8d2a343615ecde27d944170d8aab566510344eba2f3d8bf2c7546d53be3f61fd8f28363417eedc25db46150f88a9546712364cb8213385fcc95a635db0316ff38126383a124b5e0da0947eeaf084a89ba4828588f8540b8251e9910c01a3d6cf4b23ccf90",
        "hex": "6a20f9955eb7c19b88aca0acefa81a7955fd9fe7755cfa202a388ad96eaeba388fdf4db00493b8df4c1526b55b83967fb892e303211e8da23dd4013098eaf526114304abe2b398ff6c3506957ba3b65f98b2c323013ead821df42110b8cad5063163248bc2d3f89f0c5566f51bc3d63ff8d2a343615ecde27d944170d8aab566510344eba2f3d8bf2c7546d53be3f61fd8f28363417eedc25db46150f88a9546712364cb8213385fcc95a635db0316ff38126383a19e0d22bd5481b0186a75a691c3842b6233187fecb58615fb2336df183243a381be2d029d74a190384a5586b1e3a40b4253781f8cd5e6759b4356bf785223c3e1de4d62fd14c1f0582a35e6d183c46b2273583facf5c655bb63769f587203e3c1fe6d42dd34e1d0780a15c6f1a3e44b0293b8df4c1526b55b83967fb892e303211e8da23dd4013098eaf526114304abe2b398ff6c3506957ba3b65f98b2c323013ead821df42110b8cad5063163248bc2d3f89f0c5566f51bc3d63ff8d2a343615ecde27d944170d8aab566510344eba2f3d8bf2c7546d53be3f61fd8f28363417eedc25db46150f88a9546712364cb8213385fcc95a635db0316ff38126383a19e0d22bd5481b0186a75a691c3842b6233187fecb58615fb2336df183243a381be2d029d74a190384a5586b1e3a40b4253781f8cd5e6759b4356bf785223c3e1de4d62fd14c1f0582a35e6d183c46b2273583facf5c655bb63769f587203e3c1fe6d42dd34e1d0780a15c6f1a3e44b0293b8df4c1526b55b83967fb892e303211e8da23dd4013098eaf526114304abe2b398ff6c3506957ba3b65f98b2c323013ead821df42110b8cad5063163248bc2d3f89f0c5566f51bc3d63ff8d2a343615ecde27d944170d8aab566510344eba2f3d8bf2c7546d53be3f61fd8f28363417eedc25db46150f88a9546712364cb8213385fcc95a635db0316ff38126383a19e0d22bd5481b0186a75a691c3842b6233187fecb58615fb2336df183243a381be2d029d74a190384a5586b1e3a40b4253781f8cd5e6759b4356bf785223c3e1de4d62fd14c1f0582a35e6d183c46b2273583facf5c655bb63769f587203e3c1fe6d42dd34e1d0780a15c6f1a3e44b0293b8df4c1526b55b83967fb892e303211e8da23dd4013098eaf526114304abe2b398ff6c3506957ba3b65f98b2c323013ead821df42110b8cad5063163248bc2d3f89f0c5566f51bc3d63ff8d2a343615ecde27d944170d8aab566510344eba2f3d8bf2c7546d53be3f61fd8f28363417eedc25db46150f88a9546712364cb8213385fcc95a635db0316ff38126383a19e0d22bd5481b0186a75a691c3842b6233187fecb58615fb2336df183243a381be2d029d74a190384a5586b1e3a40b4253781f8cd5e6759b4356bf785223c3e1de4d62fd14c1f0582a35e6d183c46b2273583facf5c655bb63769f587203e3c1fe6d42dd34e1d0780a15c6f1a3e44b0293b8df4c1526b55b83967fb892e303211e8da23dd4013098eaf526114304abe2b398ff6c3506957ba3b65f98b2c323013ead821df42110b8cad5063163248bc2d3f89f0c5566f51bc3d63ff8d2a343615ecde27d944170d8aab566510344eba2f3d8bf2c7546d53be3f61fd8f28363417eedc25db46150f88a9546712364cb8213385fcc95a635db0316ff38126383a124b5e0da0947eeaf084a89ba4828588f8540b8251e9910c01a3d6cf4b23ccf90",
        "type": "nulldata"
      }
    },
    {
      "value": 499984.7465,
      "n": 1,
      "scriptPubKey": {
        "asm": "1 658ff86d20bceed86eba623b6707fe17808dd783ed9ea7433bca33dd96bb0e98",
        "hex": "5120658ff86d20bceed86eba623b6707fe17808dd783ed9ea7433bca33dd96bb0e98",
        "reqSigs": 1,
        "type": "witness_v1_scripthash",
        "addresses": [
          "3QJmnh"
        ]
      }
    }
  ],
  "blockhash": "d7a7b9a6fa9b7eeca4ed3b292cd4c21f070551bfab2aaeca0619c41458c07723",
  "confirmations": 1,
  "time": 1764178593,
  "blocktime": 1764178593
}