{
  "hex": "0100000000010170764ac02a6bb53817f3988a84fed0e48bb99c0eac431fc65d375037859b84900100000000feffffff028022c5f6782d0000225120629e595fd214fca19db3b10e409224b173f9b212640a41112add6540557b09cf00e1f50500000000fdd5046a20c774f43d2160e43900010fd36c0eddb70c540344c80560b60b41d1575d4dea714db004fdb35e44982a2754d97d349ddcd8930d7b4da56221619559da8a4133dc966976dd937e64b80a0774f95d14bdfcf8b32d5b6d85420141b579faaa6113fcb64956bdf31e04d86a6714993d74dd9c98d34d3b0de5226121d5199aca01739cd629369dd33e24f84a4734b91d54fdbcb8f36d1b2dc5024101f539baea2153bcf609167d33dec418aaa7d459fdb41d5c58138dfbcd25e2a1e115d95a0ac1b35c16e9f65d13fee4388a87f479dd943d7c7833addbed05c281c135f97a2ae1937c36c9d63d739e8458eae79419bdf45d1c1853cdbb8d65a2e1a155991a4a81f31c56a9b61d53bea478cac7b4399dd47d3c3873ed9bad4582c18175b93a6aa1d33c768996fdb35e44982a2754d97d349ddcd8930d7b4da56221619559da8a4133dc966976dd937e64b80a0774f95d14bdfcf8b32d5b6d85420141b579faaa6113fcb64956bdf31e04d86a6714993d74dd9c98d34d3b0de5226121d5199aca01739cd629369dd33e24f84a4734b91d54fdbcb8f36d1b2dc5024101f539baea2153bcf609167d33dec418aaa7d459fdb41d5c58138dfbcd25e2a1e115d95a0ac1b35c16e9f65d13fee4388a87f479dd943d7c7833addbed05c281c135f97a2ae1937c36c9d63d739e8458eae79419bdf45d1c1853cdbb8d65a2e1a155991a4a81f31c56a9b61d53bea478cac7b4399dd47d3c3873ed9bad4582c18175b93a6aa1d33c768996fdb35e44982a2754d97d349ddcd8930d7b4da56221619559da8a4133dc966976dd937e64b80a0774f95d14bdfcf8b32d5b6d85420141b579faaa6113fcb64956bdf31e04d86a6714993d74dd9c98d34d3b0de5226121d5199aca01739cd629369dd33e24f84a4734b91d54fdbcb8f36d1b2dc5024101f539baea2153bcf609167d33dec418aaa7d459fdb41d5c58138dfbcd25e2a1e115d95a0ac1b35c16e9f65d13fee4388a87f479dd943d7c7833addbed05c281c135f97a2ae1937c36c9d63d739e8458eae79419bdf45d1c1853cdbb8d65a2e1a155991a4a81f31c56a9b61d53bea478cac7b4399dd47d3c3873ed9bad4582c18175b93a6aa1d33c768996fdb35e44982a2754d97d349ddcd8930d7b4da56221619559da8a4133dc966976dd937e64b80a0774f95d14bdfcf8b32d5b6d85420141b579faaa6113fcb64956bdf31e04d86a6714993d74dd9c98d34d3b0de5226121d5199aca01739cd629369dd33e24f84a4734b91d54fdbcb8f36d1b2dc5024101f539baea2153bcf609167d33dec418aaa7d459fdb41d5c58138dfbcd25e2a1e115d95a0ac1b35c16e9f65d13fee4388a87f479dd943d7c7833addbed05c281c135f97a2ae1937c36c9d63d739e8458eae79419bdf45d1c1853cdbb8d65a2e1a155991a4a81f31c56a9b61d53bea478cac7b4399dd47d3c3873ed9bad4582c18175b93a6aa1d33c768996fdb35e44982a2754d97d349ddcd8930d7b4da56221619559da8a4133dc966976dd937e64b80a0774f95d14bdfcf8b32d5b6d85420141b579faaa6113fcb64956bdf31e04d86a6714993d74dd9c98d34d3b0de5226121d5199aca01739cd629369dd33e24f84a4734b91d54fdbcb8f36d1b2dc5024101f539baea2153bcf609167d33dec418aaa7d459fdb41d5c58138d9c8a5de00abff698a1c6d7c3416a354b7465d98ce7b7f57d2be45cd563b32c7c02fd750958033d402445a4df3ec00ad97e156d34ce3629ea3b26efbac6c4105034449ca62a2d3e54b5cbcce514c42bf8793baefd27af5a4b280bb2a9af2d80c7632d29f54e382873d52e715c0fbad706abce3bf1b16c1a5f142df970451834159c704c5c6892dfb9f23dfc89058cfc620e2e736277ec0b109e0cb84b40c7fc5e683ddccfa573b86273f17aa11ff123387f430484fefe644ca6845164cab02feaf298ad2d40fbb066b5a042d0276528724a7a7b690e4f95aba96c0ce081ba2c5a7f51e65b022be0887ac00931be491a9c9dc3acc27da9f09de762070501352a6506fb3bc337110ab24da2e4d240cd0b848a6119501e7cf13bfe4bf6aac22db15f7e73f1fabc535659c1b0629858bcdf68fcdce43ac23816cdcf9de92e682feb095c222a5c79479d7560f3ba564d2709dab4add40db724c6bfbaa5c3f8a0d92ebcd337b60f1a75ca749adcc37f3b5a00a287e2dbc1f0ded675c47a88fa9f3b729449e03a97054324a8ce659f0837f1d89031c0afa80d50fc6fa7ecdb7e76cb88bbfd58a69169f7f16b8d2e1d1eb4ff407b20e2077f2eb3ae7550eded92a3465e614058abd13b7ac174bfb08dd76faebf04981a628335111024bb027ef515bcbff007cfca6b93b7b59f3087a1d825b4c82b902f6aba3c6a0e83cd43a75dd42d94fb4339bf80c2f434e817947f4f6f074ad514bc49fbf8636111b795df470704e9f72ec7122b8c9a5745ec8b7a2155ea19891da7b55799d9bc70b81e4e74a4ecdd87b4e9e0f57eb7e1ef67a67b8fb2593c304504a99cb4862411f925b57ce54e5c4b48e4471c76b9751665f0ab1df3fcfaddf47b6742eab4ae66706e7bee81c3af10b91d9ac9331f9eaf5fb2bbe3ee86cd0be17353ffc32424ccb6ef7dc1cec4e8f19cc938db1d7a0386740b2cc6e806764f75c9d9c7f7ca6d68d045614176ae265878a748b978e0c85c3c07cc85c0629291fe0941714c290f81c79c01e246ba36f5657bc46d190f5b5577bdbe0064a5d74e863694908180672f20c4a41c0f28226f028ae533af9892e1a1f93f05f1115cd5cc92be050cf55f3135057b1e2b80fb51141db0a8273217bf53a2d0ef64d288c98f023f665578cca3665c00a8a34f2eb0fdde97245d3b3f2d437c03597c8e6745762bbbb103bbc7ff39ad5b96623ba15f5519675119a2b185081286e011293c02b8c9ff1e10884c94cc2636df1c93af0e5e812c93c514836384c4e5e5dab3ff0db841b30da8f3dc108b2e164ae32a8c98592a29b6d81a49d4688e15d2586de2aa8064f2a863e3a4c420b1543f868ef86d4ebe9a0fb30bd728960f28b6a015c40e24c9ef61e67775eca0c8aff94e2e80e59268d8f97447bd9c051c0a85656d34bace4ef749a8951037ca1627100c61bb5d92d2a34f225b89bbc469c1c3b98e0112101729e198606fe9a16cd3cd55410b6989acb4bc62ab105a828007e54f5f8ea52e9c2d4b0457af9966c76e0f77130a2617b9bdb6640a2e7e00638d7f759a43870ca971ea6622ded2e3b8146e05c045ec6edc2177a7fcf51536cbcf17a0e8167f28348fb3aa4d305cee684d4823c26f8fa6d809b70443de2358b259c5686e97c75a0bd645d409435b210c3dff3fe3ac2ef5ac97ba8953c3f5b58e69b5b34bcd4e8a008319d12963b9fbd097822cf79da065e8ad5d7cff3726d51b4cc1252105cca612edab85b4b2cb1e8423a372dc3513682253359ab9fe2a12ab7f470d4e9ce5ae0acca32ec2c48189cfd875696b7a894a1eadfbc9526aaae7d3058c3405c94864c82414c77f0816dfc605e3a5905d4fc1f7f85faf2169b002295cc77e308ec854aadac845e2700090aa0a91e5f833039dbd383d9a78407c7e5492d602cdf62ebc3ba2c991146ddf5e5d3889581056c72a24f5502383828ad675ff01d1f733fba7e8228910be6f230fa253f21728c707b6cbe13bd3dbf6c3c5b4f2119143f48f8d9b20237b83c3d9c1523dbe053fd2a6d6fedbe1be464138c7418c7050ef2105d493727a8a2788bf5a409f995ab2b208564dcea722343228faea4e465b2aa3c08d571368860386c6b170331d68d3932202d3cb09928b9c4609b9aa7eeb0b89682118e03cfc89e1bf3bbfdb57ff62afdda0b5a0a13307d5e1e7d988fadd99911b18c1a34228f92f3db6cf5a3bc0275c4ed1e237b7a342bc5cd2ca503b091615bedf84c67842b11b12fb6447bb29edd216422bc2d26c10af59407e8e1898ab1276ca6994a68dbad31a549229eba880b062f29a84f0ac99d0c9aecf1f95cf4026720b34b06864235e49ea1c2137c9b22a2dfccfd8b554d2c51241e906772eb5bddfba2f4bef327eb048c907ba0952a868662fd850602533761801dd184dd28c7ba7828528b2612c5c314a07cee40e5608723031f459e5b04391bb3625b88f28aedd16699a63bc8714705f6f903f933fdb9824bb30d1107d29d5941966fdaf5f574a1d76b9666ea0a2f3514238d803db98bde3297c42778d4e815a29fd15034f58e399bbb543f09f7d8b14628591e6726409e12324fe96de4f5ad1ab1f22869e4d19b09ae1d0c9309314c205ce6cfa2b2620c6272a70039ba98fdb49870c840e849b8cbd4900889286147aab9739e8eb1eae3325cb99e8e1eeac453c69a4966c9a281f169c04eec012ef0787b3e4d1b1975536dc45428a1a55018d3f3d96dd4cec8ba8a15c12c75f708a03c1c7b0d67a0ec2c6753ef9db3a6e4b507f04e6c4e57720234d65f178846cb62ec3348a3afd7b3345f80f469e0131b5d30d6dbe77b047cb1a255a84f220cff9641dd2db403315e1700829c2caaa9ab4979514d898cd460d6b8309f485fbc5ca4c0fbfd889f732cbff162ee8b40b381c5cccc487f4768cf944b3894cc3d1174e6f9cc341b0e89d4178cf414db27442b618caeeaa9853644927c20b128c0691c3d8c85902db9f9656596dea524e6739237363043b4e8737663fd5d77f4066dca933d4e168cf445782b19db94ea64b7ce9d32ab0caf760c2319bd007468d92bb6a36f31fcf70875235047577e01e5accf951f417590574c6dbc6ae6faac6771871d46e3825ef5ddbafd9d0b3650364ce4bdbed84acffabffe0a17644b171a6b0f22a44926872ef019303de471c4273fb012339cd8a750aa8bc4c5d58b586f361589df6bd4b79c0431a9baea6b89b7366e1e1bac5817c06c8e1bcb3fb134d1057a9712029d939c30448501a0ff0742e33d57176891bfb945f3fabf3876110d3e5eb2a03e84767b28113932e67d7d1edcb392504d24a5c0018f286d646594ba2883c72061d104ddb10982c42ee5d080e2526376182879095a5fdfe0c3a454c5d6f98abbac2d7d9e9062d446b7a9db2b8ed080e1a1c26404c50595db3d4d9e9f60000000000000000000000000000000000000000000000000000000000000d1a233201fd210500b0238bcb39ea654854839371ffab76a74026c221115e712e0cea8373902af12f16b796419ccbe0f9c1d2cfa172868293eecb61dafae0bf924ff135e14ca857c6d64d1ae37fc1efee1b3d8236b38c98d1c4824be085c6cab68f5dfe30d615fb4d5ccc0cad452acde8a9e0002a224accf068a5668ee6a205ea84f08e7203646cc73cb75287288de349648366a1834e470caada1d5551e20704aa5aebb9848f214fc0a2e4c2df9bc8b593e18e16cd3254d2f82bb6ee0c2f79d80420251884b0304927b3feb791b465dc6320ed449dd9ed5f09ee1e1cacf723ce70e4e1ddb408762a8a9af080790a3ce8aa7758d64701c4a539a536e0e97d8c1789d94719544ccd781d67287664c96fd16f5d1dd3d85c218d18253590a50c1fed7f016646aaff840a69129a622b182107ea9f184a5e0fe535d2e568a6be9e15f9f430fbdd75cb29d60228d69a5ff1873c9e2e9b3ff6d8a80694f9d9fb4c212f254ad57200735a90e3a5d23b16e417afc3c645accf17101a326f2b3955f0364f1de60f9cd9a5cdcb0b4597b3adb4049a10f3282b99b6e9030a2b8e1b04ca2c9787a38aa96c004a580d17531fcb12581e52f87d38ff26f9af1c3fe089a54f2dff4278b6edbd34eb9e35dca228b7f45604c7990c7f89bf104ba4c1a3b1fadd521cd81c8098ef356816b1b2f291ce6c8199d6734531b17c38acc69c85f49ce19319dd6a21b0831ef2fc0e36b985c7ac58817b8e8e143f7c5d29d5724343bcf95cc1da42c5131896a7cb2c1c53a38f5ddb772d95ea95cd26682f3497d995fef8fbaa50c1d100ed85bef432966644e9ec43060f496930b63a9f5878bf6424968175465c89ce1ad575bd9895d59cc0a077ada4b0d4152644684c6072d8ebe9e703aa19ea71fb97468c7569b383ec140081e084251ca84728feb108e3e96451f6136cfd8097aa160332c9d9735dfc061ac6b8701ecb31d6f6f4ff0c39e2b553ebebbc49153e9be2c40f2cc758ef134f02f609a453493f2565c4a0cec5bb8189e045b98c08370e871a5767e33b382b797cdfe8bff128a860bf899f124db2187c7484fee1ea1dfcce1e30e3aa69656add2a43991ee7c9eee78c5f149a95d358eb27e0ce42819ca2e372bc75356b1cb54594bb450c20041abe7b099a6979c3df9d8e610fdc93cfa723bbaaf54c300a54b53c84fb7d420fd610bb781dc4f670a2efb8214c3f6b5e1bc0f45b076c6f0aaf196fefc47e19a71bd1599a529bf5e9180d9175e821b8ce2cb566f843712e8cbcb68b3142dee38256d0171b404495286bedaf08d0a605f0771c98707e45f669dff3127f37b3d9745d2da99fac88bde0c4f11a97bcb5f6ab703f7364656036b16364202fd077cd9eb86a050ba6aff7302de3048d03c14d9226c5259a56fcb4dec5335c978beb93477b1c2380977e869defed27ecfd747cef11060ae9ada208d5be878548f8c24c6f9abac37a423a98daddb2e362357d09ef82cf9e13d54c52538882f4ebba33b617bc3207bc2038ff90e9dc1d4943d43f6309d95704d6b6717c4ba009cbb0c75d014e44a6a6b66c386df9af4aed3c87be6a3bb0212a342185537afc2e1df483c0fa7b48d1c331d0a4af1716f14b022dae566528e229ce75f739e27d54bf92c6547235925e8da83a13907064e7f6193564d18651e672d65a41755ea156d761ee6ef460385b1b646c7ff8a01e6b49c7d4e0abc4f9bfb07fd138dcc8cfdf8409787e26aa3a1df7582b81d28eb2427ade925e7367167681a96a476f2de79fd4c11a241b809671866085dbc85892dc74906b5e6fd94093f377cdd772ecd8fb716181c50a6b6c90d41f6c13011d83d29fb1d17d227ff6c9fbad9d277a000000",
  "txid": "18ed516842f3837d887f155b3c5a7fd54360ec50d8b7b578bc4d36bfdebe273e",
  "hash": "3c4415bcb26d17def8d0313938b3608c20124d9e9dda0e58f94ba8a63cf24e52",
  "size": 5085,
  "vsize": 2278,
  "version": 1,
  "locktime": 122,
  "vin": [
    {
      "txid": "90849b853750375dc61f43ac0e9cb98be4d0fe848a98f31738b56b2ac04a7670",
      "vout": 1,
      "scriptSig": {
        "asm": "",
        "hex": ""
      },
      "txinwitness": [
        "58033d402445a4df3ec00ad97e156d34ce3629ea3b26efbac6c4105034449ca62a2d3e54b5cbcce514c42bf8793baefd27af5a4b280bb2a9af2d80c7632d29f54e382873d52e715c0fbad706abce3bf1b16c1a5f142df970451834159c704c5c6892dfb9f23dfc89058cfc620e2e736277ec0b109e0cb84b40c7fc5e683ddccfa573b86273f17aa11ff123387f430484fefe644ca6845164cab02feaf298ad2d40fbb066b5a042d0276528724a7a7b690e4f95aba96c0ce081ba2c5a7f51e65b022be0887ac00931be491a9c9dc3acc27da9f09de762070501352a6506fb3bc337110ab24da2e4d240cd0b848a6119501e7cf13bfe4bf6aac22db15f7e73f1fabc535659c1b0629858bcdf68fcdce43ac23816cdcf9de92e682feb095c222a5c79479d7560f3ba564d2709dab4add40db724c6bfbaa5c3f8a0d92ebcd337b60f1a75ca749adcc37f3b5a00a287e2dbc1f0ded675c47a88fa9f3b729449e03a97054324a8ce659f0837f1d89031c0afa80d50fc6fa7ecdb7e76cb88bbfd58a69169f7f16b8d2e1d1eb4ff407b20e2077f2eb3ae7550eded92a3465e614058abd13b7ac174bfb08dd76faebf04981a628335111024bb027ef515bcbff007cfca6b93b7b59f3087a1d825b4c82b902f6aba3c6a0e83cd43a75dd42d94fb4339bf80c2f434e817947f4f6f074ad514bc49fbf8636111b795df470704e9f72ec7122b8c9a5745ec8b7a2155ea19891da7b55799d9bc70b81e4e74a4ecdd87b4e9e0f57eb7e1ef67a67b8fb2593c304504a99cb4862411f925b57ce54e5c4b48e4471c76b9751665f0ab1df3fcfaddf47b6742eab4ae66706e7bee81c3af10b91d9ac9331f9eaf5fb2bbe3ee86cd0be17353ffc32424ccb6ef7dc1cec4e8f19cc938db1d7a0386740b2cc6e806764f75c9d9c7f7ca6d68d045614176ae265878a748b978e0c85c3c07cc85c0629291fe0941714c290f81c79c01e246ba36f5657bc46d190f5b5577bdbe0064a5d74e863694908180672f20c4a41c0f28226f028ae533af9892e1a1f93f05f1115cd5cc92be050cf55f3135057b1e2b80fb51141db0a8273217bf53a2d0ef64d288c98f023f665578cca3665c00a8a34f2eb0fdde97245d3b3f2d437c03597c8e6745762bbbb103bbc7ff39ad5b96623ba15f5519675119a2b185081286e011293c02b8c9ff1e10884c94cc2636df1c93af0e5e812c93c514836384c4e5e5dab3ff0db841b30da8f3dc108b2e164ae32a8c98592a29b6d81a49d4688e15d2586de2aa8064f2a863e3a4c420b1543f868ef86d4ebe9a0fb30bd728960f28b6a015c40e24c9ef61e67775eca0c8aff94e2e80e59268d8f97447bd9c051c0a85656d34bace4ef749a8951037ca1627100c61bb5d92d2a34f225b89bbc469c1c3b98e0112101729e198606fe9a16cd3cd55410b6989acb4bc62ab105a828007e54f5f8ea52e9c2d4b0457af9966c76e0f77130a2617b9bdb6640a2e7e00638d7f759a43870ca971ea6622ded2e3b8146e05c045ec6edc2177a7fcf51536cbcf17a0e8167f28348fb3aa4d305cee684d4823c26f8fa6d809b70443de2358b259c5686e97c75a0bd645d409435b210c3dff3fe3ac2ef5ac97ba8953c3f5b58e69b5b34bcd4e8a008319d12963b9fbd097822cf79da065e8ad5d7cff3726d51b4cc1252105cca612edab85b4b2cb1e8423a372dc3513682253359ab9fe2a12ab7f470d4e9ce5ae0acca32ec2c48189cfd875696b7a894a1eadfbc9526aaae7d3058c3405c94864c82414c77f0816dfc605e3a5905d4fc1f7f85faf2169b002295cc77e308ec854aadac845e2700090aa0a91e5f833039dbd383d9a78407c7e5492d602cdf62ebc3ba2c991146ddf5e5d3889581056c72a24f5502383828ad675ff01d1f733fba7e8228910be6f230fa253f21728c707b6cbe13bd3dbf6c3c5b4f2119143f48f8d9b20237b83c3d9c1523dbe053fd2a6d6fedbe1be464138c7418c7050ef2105d493727a8a2788bf5a409f995ab2b208564dcea722343228faea4e465b2aa3c08d571368860386c6b170331d68d3932202d3cb09928b9c4609b9aa7eeb0b89682118e03cfc89e1bf3bbfdb57ff62afdda0b5a0a13307d5e1e7d988fadd99911b18c1a34228f92f3db6cf5a3bc0275c4ed1e237b7a342bc5cd2ca503b091615bedf84c67842b11b12fb6447bb29edd216422bc2d26c10af59407e8e1898ab1276ca6994a68dbad31a549229eba880b062f29a84f0ac99d0c9aecf1f95cf4026720b34b06864235e49ea1c2137c9b22a2dfccfd8b554d2c51241e906772eb5bddfba2f4bef327eb048c907ba0952a868662fd850602533761801dd184dd28c7ba7828528b2612c5c314a07cee40e5608723031f459e5b04391bb3625b88f28aedd16699a63bc8714705f6f903f933fdb9824bb30d1107d29d5941966fdaf5f574a1d76b9666ea0a2f3514238d803db98bde3297c42778d4e815a29fd15034f58e399bbb543f09f7d8b14628591e6726409e12324fe96de4f5ad1ab1f22869e4d19b09ae1d0c9309314c205ce6cfa2b2620c6272a70039ba98fdb49870c840e849b8cbd4900889286147aab9739e8eb1eae3325cb99e8e1eeac453c69a4966c9a281f169c04eec012ef0787b3e4d1b1975536dc45428a1a55018d3f3d96dd4cec8ba8a15c12c75f708a03c1c7b0d67a0ec2c6753ef9db3a6e4b507f04e6c4e57720234d65f178846cb62ec3348a3afd7b3345f80f469e0131b5d30d6dbe77b047cb1a255a84f220cff9641dd2db403315e1700829c2caaa9ab4979514d898cd460d6b8309f485fbc5ca4c0fbfd889f732cbff162ee8b40b381c5cccc487f4768cf944b3894cc3d1174e6f9cc341b0e89d4178cf414db27442b618caeeaa9853644927c20b128c0691c3d8c85902db9f9656596dea524e6739237363043b4e8737663fd5d77f4066dca933d4e168cf445782b19db94ea64b7ce9d32ab0caf760c2319bd007468d92bb6a36f31fcf70875235047577e01e5accf951f417590574c6dbc6ae6faac6771871d46e3825ef5ddbafd9d0b3650364ce4bdbed84acffabffe0a17644b171a6b0f22a44926872ef019303de471c4273fb012339cd8a750aa8bc4c5d58b586f361589df6bd4b79c0431a9baea6b89b7366e1e1bac5817c06c8e1bcb3fb134d1057a9712029d939c30448501a0ff0742e33d57176891bfb945f3fabf3876110d3e5eb2a03e84767b28113932e67d7d1edcb392504d24a5c0018f286d646594ba2883c72061d104ddb10982c42ee5d080e2526376182879095a5fdfe0c3a454c5d6f98abbac2d7d9e9062d446b7a9db2b8ed080e1a1c26404c50595db3d4d9e9f60000000000000000000000000000000000000000000000000000000000000d1a233201",
        "00b0238bcb39ea654854839371ffab76a74026c221115e712e0cea8373902af12f16b796419ccbe0f9c1d2cfa172868293eecb61dafae0bf924ff135e14ca857c6d64d1ae37fc1efee1b3d8236b38c98d1c4824be085c6cab68f5dfe30d615fb4d5ccc0cad452acde8a9e0002a224accf068a5668ee6a205ea84f08e7203646cc73cb75287288de349648366a1834e470caada1d5551e20704aa5aebb9848f214fc0a2e4c2df9bc8b593e18e16cd3254d2f82bb6ee0c2f79d80420251884b0304927b3feb791b465dc6320ed449dd9ed5f09ee1e1cacf723ce70e4e1ddb408762a8a9af080790a3ce8aa7758d64701c4a539a536e0e97d8c1789d94719544ccd781d67287664c96fd16f5d1dd3d85c218d18253590a50c1fed7f016646aaff840a69129a622b182107ea9f184a5e0fe535d2e568a6be9e15f9f430fbdd75cb29d60228d69a5ff1873c9e2e9b3ff6d8a80694f9d9fb4c212f254ad57200735a90e3a5d23b16e417afc3c645accf17101a326f2b3955f0364f1de60f9cd9a5cdcb0b4597b3adb4049a10f3282b99b6e9030a2b8e1b04ca2c9787a38aa96c004a580d17531fcb12581e52f87d38ff26f9af1c3fe089a54f2dff4278b6edbd34eb9e35dca228b7f45604c7990c7f89bf104ba4c1a3b1fadd521cd81c8098ef356816b1b2f291ce6c8199d6734531b17c38acc69c85f49ce19319dd6a21b0831ef2fc0e36b985c7ac58817b8e8e143f7c5d29d5724343bcf95cc1da42c5131896a7cb2c1c53a38f5ddb772d95ea95cd26682f3497d995fef8fbaa50c1d100ed85bef432966644e9ec43060f496930b63a9f5878bf6424968175465c89ce1ad575bd9895d59cc0a077ada4b0d4152644684c6072d8ebe9e703aa19ea71fb97468c7569b383ec140081e084251ca84728feb108e3e96451f6136cfd8097aa160332c9d9735dfc061ac6b8701ecb31d6f6f4ff0c39e2b553ebebbc49153e9be2c40f2cc758ef134f02f609a453493f2565c4a0cec5bb8189e045b98c08370e871a5767e33b382b797cdfe8bff128a860bf899f124db2187c7484fee1ea1dfcce1e30e3aa69656add2a43991ee7c9eee78c5f149a95d358eb27e0ce42819ca2e372bc75356b1cb54594bb450c20041abe7b099a6979c3df9d8e610fdc93cfa723bbaaf54c300a54b53c84fb7d420fd610bb781dc4f670a2efb8214c3f6b5e1bc0f45b076c6f0aaf196fefc47e19a71bd1599a529bf5e9180d9175e821b8ce2cb566f843712e8cbcb68b3142dee38256d0171b404495286bedaf08d0a605f0771c98707e45f669dff3127f37b3d9745d2da99fac88bde0c4f11a97bcb5f6ab703f7364656036b16364202fd077cd9eb86a050ba6aff7302de3048d03c14d9226c5259a56fcb4dec5335c978beb93477b1c2380977e869defed27ecfd747cef11060ae9ada208d5be878548f8c24c6f9abac37a423a98daddb2e362357d09ef82cf9e13d54c52538882f4ebba33b617bc3207bc2038ff90e9dc1d4943d43f6309d95704d6b6717c4ba009cbb0c75d014e44a6a6b66c386df9af4aed3c87be6a3bb0212a342185537afc2e1df483c0fa7b48d1c331d0a4af1716f14b022dae566528e229ce75f739e27d54bf92c6547235925e8da83a13907064e7f6193564d18651e672d65a41755ea156d761ee6ef460385b1b646c7ff8a01e6b49c7d4e0abc4f9bfb07fd138dcc8cfdf8409787e26aa3a1df7582b81d28eb2427ade925e7367167681a96a476f2de79fd4c11a241b809671866085dbc85892dc74906b5e6fd94093f377cdd772ecd8fb716181c50a6b6c90d41f6c13011d83d29fb1d17d227ff6c9fbad9d27"
      ],
      "sequence": 4294967294
    }
  ],
  "vout": [
    {
      "value": 499975.5944,
      "n": 0,
      "scriptPubKey": {
        "asm": "1 629e595fd214fca19db3b10e409224b173f9b212640a41112add6540557b09cf",
        "hex": "5120629e595fd214fca19db3b10e409224b173f9b212640a41112add6540557b09cf",
        "reqSigs": 1,
        "type": "witness_v1_scripthash",
        "addresses": [
          "3QJmnh"
        ]
      }
    },
    {
      "value": 1.0,
      "n": 1,
      "scriptPubKey": {
        "asm": "OP_RETURN c774f43d2160e43900010fd36c0eddb70c540344c80560b60b41d1575d4dea71 fdb35e44982a2754d97d349ddcd8930d7b4da56221619559da8a4133dc966976dd937e64b80a0774f95d14bdfcf8b32d5b6d85420141b579faaa6113fcb64956bdf31e04d86a6714993d74dd9c98d34d3b0de5226121d5199aca01739cd629369dd33e24f84a4734b91d54fdbcb8f36d1b2dc5024101f539baea2153bcf609167d33dec418aaa7d459fdb41d5c58138dfbcd25e2a1e115d95a0ac1b35c16e9f65d13fee4388a87f479dd943d7c7833addbed05c281c135f97a2ae1937c36c9d63d739e8458eae79419bdf45d1c1853cdbb8d65a2e1a155991a4a81f31c56a9b61d53bea478cac7b4399dd47d3c3873ed9bad4582c18175b93a6aa1d33c768996fdb35e44982a2754d97d349ddcd8930d7b4da56221619559da8a4133dc966976dd937e64b80a0774f95d14bdfcf8b32d5b6d85420141b579faaa6113fcb64956bdf31e04d86a6714993d74dd9c98d34d3b0de5226121d5199aca01739cd629369dd33e24f84a4734b91d54fdbcb8f36d1b2dc5024101f539baea2153bcf609167d33dec418aaa7d459fdb41d5c58138dfbcd25e2a1e115d95a0ac1b35c16e9f65d13fee4388a87f479dd943d7c7833addbed05c281c135f97a2ae1937c36c9d63d739e8458eae79419bdf45d1c1853cdbb8d65a2e1a155991a4a81f31c56a9b61d53bea478cac7b4399dd47d3c3873ed9bad4582c18175b93a6aa1d33c768996fdb35e44982a2754d97d349ddcd8930d7b4da56221619559da8a4133dc966976dd937e64b80a0774f95d14bdfcf8b32d5b6d85420141b579faaa6113fcb64956bdf31e04d86a6714993d74dd9c98d34d3b0de5226121d5199aca01739cd629369dd33e24f84a4734b91d54fdbcb8f36d1b2dc5024101f539baea2153bcf609167d33dec418aaa7d459fdb41d5c58138dfbcd25e2a1e115d95a0ac1b35c16e9f65d13fee4388a87f479dd943d7c7833addbed05c281c135f97a2ae1937c36c9d63d739e8458eae79419bdf45d1c1853cdbb8d65a2e1a155991a4a81f31c56a9b61d53bea478cac7b4399dd47d3c3873ed9bad4582c18175b93a6aa1d33c768996fdb35e44982a2754d97d349ddcd8930d7b4da56221619559da8a4133dc966976dd937e64b80a0774f95d14bdfcf8b32d5b6d85420141b579faaa6113fcb64956bdf31e04d86a6714993d74dd9c98d34d3b0de5226121d5199aca01739cd629369dd33e24f84a4734b91d54fdbcb8f36d1b2dc5024101f539baea2153bcf609167d33dec418aaa7d459fdb41d5c58138dfbcd25e2a1e115d95a0ac1b35c16e9f65d13fee4388a87f479dd943d7c7833addbed05c281c135f97a2ae1937c36c9d63d739e8458eae79419bdf45d1c1853cdbb8d65a2e1a155991a4a81f31c56a9b61d53bea478cac7b4399dd47d3c3873ed9bad4582c18175b93a6aa1d33c768996fdb35e44982a2754d97d349ddcd8930d7b4da56221619559da8a4133dc966976dd937e64b80a0774f95d14bdfcf8b32d5b6d85420141b579faaa6113fcb64956bdf31e04d86a6714993d74dd9c98d34d3b0de5226121d5199aca01739cd629369dd33e24f84a4734b91d54fdbcb8f36d1b2dc5024101f539baea2153bcf609167d33dec418aaa7d459fdb41d5c58138d9c8a5de00abff698a1c6d7c3416a354b7465d98ce7b7f57d2be45cd563b32c7c",
        "hex": "6a20c774f43d2160e43900010fd36c0eddb70c540344c80560b60b41d1575d4dea714db004fdb35e44982a2754d97d349ddcd8930d7b4da56221619559da8a4133dc966976dd937e64b80a0774f95d14bdfcf8b32d5b6d85420141b579faaa6113fcb64956bdf31e04d86a6714993d74dd9c98d34d3b0de5226121d5199aca01739cd629369dd33e24f84a4734b91d54fdbcb8f36d1b2dc5024101f539baea2153bcf609167d33dec418aaa7d459fdb41d5c58138dfbcd25e2a1e115d95a0ac1b35c16e9f65d13fee4388a87f479dd943d7c7833addbed05c281c135f97a2ae1937c36c9d63d739e8458eae79419bdf45d1c1853cdbb8d65a2e1a155991a4a81f31c56a9b61d53bea478cac7b4399dd47d3c3873ed9bad4582c18175b93a6aa1d33c768996fdb35e44982a2754d97d349ddcd8930d7b4da56221619559da8a4133dc966976dd937e64b80a0774f95d14bdfcf8b32d5b6d85420141b579faaa6113fcb64956bdf31e04d86a6714993d74dd9c98d34d3b0de5226121d5199aca01739cd629369dd33e24f84a4734b91d54fdbcb8f36d1b2dc5024101f539baea2153bcf609167d33dec418aaa7d459fdb41d5c58138dfbcd25e2a1e115d95a0ac1b35c16e9f65d13fee4388a87f479dd943d7c7833addbed05c281c135f97a2ae1937c36c9d63d739e8458eae79419bdf45d1c1853cdbb8d65a2e1a155991a4a81f31c56a9b61d53bea478cac7b4399dd47d3c3873ed9bad4582c18175b93a6aa1d33c768996fdb35e44982a2754d97d349ddcd8930d7b4da56221619559da8a4133dc966976dd937e64b80a0774f95d14bdfcf8b32d5b6d85420141b579faaa6113fcb64956bdf31e04d86a6714993d74dd9c98d34d3b0de5226121d5199aca01739cd629369dd33e24f84a4734b91d54fdbcb8f36d1b2dc5024101f539baea2153bcf609167d33dec418aaa7d459fdb41d5c58138dfbcd25e2a1e115d95a0ac1b35c16e9f65d13fee4388a87f479dd943d7c7833addbed05c281c135f97a2ae1937c36c9d63d739e8458eae79419bdf45d1c1853cdbb8d65a2e1a155991a4a81f31c56a9b61d53bea478cac7b4399dd47d3c3873ed9bad4582c18175b93a6aa1d33c768996fdb35e44982a2754d97d349ddcd8930d7b4da56221619559da8a4133dc966976dd937e64b80a0774f95d14bdfcf8b32d5b6d85420141b579faaa6113fcb64956bdf31e04d86a6714993d74dd9c98d34d3b0de5226121d5199aca01739cd629369dd33e24f84a4734b91d54fdbcb8f36d1b2dc5024101f539baea2153bcf609167d33dec418aaa7d459fdb41d5c58138dfbcd25e2a1e115d95a0ac1b35c16e9f65d13fee4388a87f479dd943d7c7833addbed05c281c135f97a2ae1937c36c9d63d739e8458eae79419bdf45d1c1853cdbb8d65a2e1a155991a4a81f31c56a9b61d53bea478cac7b4399dd47d3c3873ed9bad4582c18175b93a6aa1d33c768996fdb35e44982a2754d97d349ddcd8930d7b4da56221619559da8a4133dc966976dd937e64b80a0774f95d14bdfcf8b32d5b6d85420141b579faaa6113fcb64956bdf31e04d86a6714993d74dd9c98d34d3b0de5226121d5199aca01739cd629369dd33e24f84a4734b91d54fdbcb8f36d1b2dc5024101f539baea2153bcf609167d33dec418aaa7d459fdb41d5c58138d9c8a5de00abff698a1c6d7c3416a354b7465d98ce7b7f57d2be45cd563b32c7c",
        "type": "nulldata"
      }
    }
  ],
  "blockhash": "ccdcfedcff6ade259e7f17160cbcd6ff75249aea4f0a85a59e1a4fb3f710df5f",
  "confirmations": 1,
  "time": 1764180435,
  "blocktime": 1764180435
}