{
  "hex": "01000000000101e018c8f3d9fc46b0af8f6ee105903525d5f7e60028bb78751ab3ebefd3d976100000000000feffffff021024da9b782d00002251208780c395ed196cca739c979782cf0b4c28118c9fa2190bad85964adfa3d6f98800e1f50500000000fdd5046a20e773380fc5b2f40348f46489eb3ddf0e7a2908f50414379aa8e95a6f0ebdf0034db00487e5aa9d7c21091c4d8b38ae1193d3b3e1ac75d7b4c6cde045d5ea97e1f09a43a7c58abd5c01293c6dab188e31b3f393c18c55f794e6edc065f5cab7c1d0ba63c7a5eadd3c61495c0dcb78ee51d393f3a1ec3597f4868da00595aad7a1b0da03e785cafd1c41697c2deb58ce71f3b3d381cc15b7d4a6ad8025b58af78190fa2307652a1dfca1899ccd0bb82e91135333612cf55734464d60c5556a1761701ac327450a3ddc81a9bced2b980eb1337313410cd57714666d40e5754a3741503ae347256a5dbce1c9dc8d4bf86ed1531373216cb51774060d2085152a5721305a8367054a7d9cc1e9fcad6bd84ef1733353014c953754262d00a5350a7701107aa387e5aa9d7c21091c4d8b38ae1193d3b3e1ac75d7b4c6cde045d5ea97e1f09a43a7c58abd5c01293c6dab188e31b3f393c18c55f794e6edc065f5cab7c1d0ba63c7a5eadd3c61495c0dcb78ee51d393f3a1ec3597f4868da00595aad7a1b0da03e785cafd1c41697c2deb58ce71f3b3d381cc15b7d4a6ad8025b58af78190fa2307652a1dfca1899ccd0bb82e91135333612cf55734464d60c5556a1761701ac327450a3ddc81a9bced2b980eb1337313410cd57714666d40e5754a3741503ae347256a5dbce1c9dc8d4bf86ed1531373216cb51774060d2085152a5721305a8367054a7d9cc1e9fcad6bd84ef1733353014c953754262d00a5350a7701107aa387e5aa9d7c21091c4d8b38ae1193d3b3e1ac75d7b4c6cde045d5ea97e1f09a43a7c58abd5c01293c6dab188e31b3f393c18c55f794e6edc065f5cab7c1d0ba63c7a5eadd3c61495c0dcb78ee51d393f3a1ec3597f4868da00595aad7a1b0da03e785cafd1c41697c2deb58ce71f3b3d381cc15b7d4a6ad8025b58af78190fa2307652a1dfca1899ccd0bb82e91135333612cf55734464d60c5556a1761701ac327450a3ddc81a9bced2b980eb1337313410cd57714666d40e5754a3741503ae347256a5dbce1c9dc8d4bf86ed1531373216cb51774060d2085152a5721305a8367054a7d9cc1e9fcad6bd84ef1733353014c953754262d00a5350a7701107aa387e5aa9d7c21091c4d8b38ae1193d3b3e1ac75d7b4c6cde045d5ea97e1f09a43a7c58abd5c01293c6dab188e31b3f393c18c55f794e6edc065f5cab7c1d0ba63c7a5eadd3c61495c0dcb78ee51d393f3a1ec3597f4868da00595aad7a1b0da03e785cafd1c41697c2deb58ce71f3b3d381cc15b7d4a6ad8025b58af78190fa2307652a1dfca1899ccd0bb82e91135333612cf55734464d60c5556a1761701ac327450a3ddc81a9bced2b980eb1337313410cd57714666d40e5754a3741503ae347256a5dbce1c9dc8d4bf86ed1531373216cb51774060d2085152a5721305a8367054a7d9cc1e9fcad6bd84ef1733353014c953754262d00a5350a7701107aa387e5aa9d7c21091c4d8b38ae1193d3b3e1ac75d7b4c6cde045d5ea97e1f09a43a7c58abd5c01293c6dab188e31b3f393c18c55f794e6edc065f5cab7c1d0ba63c7a5eadd3c61495c0dcb78ee51d393f3a1ec3597f4868da00595aad7a1b0da03e785cafd1c41697c2deb58ce71f3b3d381cc15b7d4a6ad8025b58af78190fa2307652a1dfca1899ccd0bb82e9113533392867bd3a11db8341501325bf6b9c2d4a3e2c1091bcdca89317836dc6894645c02fd7509798f8ac22588ab4f4a4e9b53e32986ab05d327c6005f0ffee1693f816cdebeeb80f2896214e6de806038980afaa3175a37a74f126aa3a3ebed7a580aebef5a3f33d02ca4744ca16e497534408943cf38da9aaca6c423c8db43512e2a89c8e0b53da9fae2f06d4b0f39c7f0a8a6227981df9b6ca213ce0fb811ae82cda2200297522debb0ceb04a017415f23df906ba949bc1f3ede07333468dcea6ab1c9bc54c990bc5378d5c0df0573b6038cee62c8e198a05dbf2ee92d56f2e76b0053d7d405c94125be950c49ee48d4e4944d3f2610729a16a52065256b1242730b9c91bb646701b80686829e5352a727218acf0d94bd2bd910f7c78d116e2885a761a77cca7ef13a442afabf912c7b843d2a4ff75ee8d41958f47cb6d60a583f3a3e173e89f5cc931a58e6f6a3cd8428369b7fd54afc731db0d5ff1d5e99a21e4645e0df1212c8c1fadc07e47ead8ea78112b721fad6d1089950667d8e96ca1ce1a9440fd5bec5dcde02b86c01c91c68779712010ef1a8a3366a36cc1a3bae2a38faa7243e8836e614c198e49d94337cc95372d722c81f8805aaa231cb321693480316ce91d1673bf1b420223afa8bdfd90ae567f039d851cfc00ebb62269faf4bd253858a40f903981af748bea84fb19c4d722fb202edbf507918b8c6ee09e429e4a24589b7faa76170e50691c2669c736e9553f4a555ac9db24735ab7f7ddfac6bd0e3225ff4f6f62d71fe5f1e0fdeb88c34b26d98a8a3ce04b03c7ea6acee24db6d2a9ea8e88d4ff28fd5943152e9617e3957e304e4dcc733e4b18c18e6a94c60c457e13a14635589d21c4314c672a26bc5232181a9e44fd76d388a91c8983741624dea26b254f0e610c9266d9190d1e294956b54171f417082c96d7938672bb3bb95b7fc5a331509dfc3ffecd39f7a0ecf834733bd79267f3f6d2eaff41e8aff6ce04493069f2e60ddbd119df02cb60e7b750398d872c26952187e0c132262be80b8ee526aa4488235c0405918c67d73c94d43da7a311711c94bedb3a391531cb1a1f7d09092af78e155de8f0d35ad111c5fc2283e6c5f35cd806cc787542269d82bc4c03f4faefdbff50a5bb6030b4696d595ce3a851f43628772ce32fe473955c5ab3f8e2e88c6d57118478aea24059aa19e00d6ea17f7ef1c65855ea7a1f7ebcea3a79282fba1b8aba37bb6c02330895764cbc37776e42aa86d40ef37ccb78bcaa878f8ea171f5e4fba36826ce5576c583eb9e456f10674dca73c805c52c5d04868fe6154abd4bb893b82c2ed024ccdf2e45fa32ba5a03fd0f77a3996b47f36f8c6ff496e419b6d1561fc68761b67097bda68ea94cba024cc7b150ba62e0edca86e4450d2f9f2535f3b218afb4b30fbb8dc8f33ed9d0aa77d6c07592e4aa1b6b13e802d2bacc7a3767ceb9223d3b2d2d8ddbf0eb0ffaad4e61c6caf3f9434c248aa4b225dc0728b23bbc43debc0130969f5671f1accc376bfbe96424cf053a552ad1f78a1656eefa65adb2c74f4343aebb48204d38af2e5d86dc9b906a367b19d6d4e987e885ecadff6b8bb095e316eeeeb1da101b68545acd46f53ebc0d66f97c4a7b595e746452a6e5bbe4c2c7c38cf3a5fd1fbc8f036cf825cfb4a5ab06aa541e9c518794b6bd897e766424c1ebe943867d4043b03409f97c00b1602edd2aa06e116b1734b05051113cde93367fc15a37615ba3aeb79db6b06115cd183a186d216c0a389d15fb0a12e5244c39b95059a041382984cf645dc959e0aeea166643faf1d59d582b5cb4414058423dabcb9e8c54af0ebeaea88d5b5f8498e549e2fe6a13a85fbc994c5fade8abaad74008f79d1f2932ccde99eee7853531d69039b6844faf3e155023698424910297a5f624e074e404c045197f2d535c68fe9d681d9a6f203bcaa84898a063b8fdaf1c9bf2141d7e813c7a899cb0be4b9b0534151fd3d0499dcd0b3b6df439c0aae96b203eb141855ec1343ee06afe6df68516b8ebe02b627ac444855e2c0ae75fc4b7c3a7b70ebb91f456700b156fe60a96208389cc0ac4cde2e73e1544e9cd64877f62352be256d6c067270272873c1d060646f9c8783f070086de796b70c51a0ef4ca9bd9d08ec510a8bf35d002d3f22841737063bbdf1516dc805f8f4d0b2efa987fcd8f1402ed0567634cf8061911b47565c00d195a32911a6aa067a02bea21ddc830ad0ea21540efcacfe0b13f875286bebee197427ae0d7b0babb94f390fe4ec57a2a68005da0fa9912064bc9077aa09ad61319f12f365ee08c8a3cdbc0e4db835c5eec5f87d972195db78f426f7e33403af73e8d9431b6f21651ae5c3f294b41518bf1ad67fbcbe10dc56bc8965d0be37e9daf2bf38664d8d40207f819bf91ef70f5cb74a3ce8c663496a4968d18605138ba0796cc92157b731726de3f5effa5ded69d9f78703e22b80cb9d6f659a9360ffcc2f9a059e107d9b1a606e763cb4510d8dc953cf7079c052e61f55a1782f80f61b482d800f62af09cbc9eb308bebe0cf910dc2f68cfd20e63334626ed7936934bcfa6b4838f9f16b15cbd30b631af75e931144828ff9e73ab7a8223841f13878c058da30aa55443cdc98dd32b21bc8bde4523f2bd2817ec7134032346520c331d94c747c8c28ddd9b63f7e60e5f1fbba8c9108398c5d63cbf6d1cbb28b71d4d73d2d9a43a67115b29475c56fa2228ba80789ae70a5c6026c3d9abfd6835c85f165c20a3dde216858a41d40677c51e19062c50dc456c599eaa3ef9d7ad3dfeee927e6c453336e4c9866a5da2afae2dfae662a22847d4937260406db8707efb668a54bea563c4395eb7b47fa6eb87af9cfa4669b221c148e5e11053e8966be7849e8b669ed07cff17d968964facfda7988805c2ad648127dabdc9bc84898d6f2c62eb7f9c1e98c5d91215f91d7685d11c0c11a3639ef92e33fb46d19500755f1e5ee0460eabe4e24f271ce7b444883e852608676ce3c1dbdead88bc58576e7c371f4887bca9d7b79bd03e5c3332473aa9fb63068a11fb249038f4bc60ccd49789f4eaf8b4dcaa6b0352bd81398c6fe5e88266eb4cd6b32f0b143d75b58b7127d3cb08d6d42343f649acf0480678b3da885e438589d901579da611506c976bdf4aeaa313fe5ecc1729de2ec4c539a42142813bcc7f26d653f99a17ae0aa68dc9746ea7709a8fe8cc196fc3f9bee05b908fc46506b87ca67de4b59aac3adcddbd5c7e3876882886ec26ee647c8b2764dac909685362c29a21b9f17f7be4d25ef28ab5791464969a93309dadad1d8093f19e9df2fd93d37702d68eb5bc413b8ad3b4061f3346484c60688ea1c5d7f0f115283d4354576a70878a969d9ecdecf3041d29425c748196b5b6d3d8dadbdff304080a15171b2f305c9195999caaafe7f0f5fc0000000000000000000000000000000e1e2e4101fd210500a4076ab2aa57e1c5ba7ef04ddf61289debc411693ddb98ccb8f35619bc68d95e8bc80c544f71ec55f157da634bd1b82f5ab227d88e409a4d0b6fecc24f4f3d135f0cddba0a97b717a1d1dbb7339676eaf805b9ff9b689d5f13e598524a392c40e3835a61bb6b032e3550fb49b5f91f79691f20c5ad37357a0618f05de0e1fd02128b78451611b0c910b59bd5001c92e42cf7a930a7cb9bba5cd3ec686b1151182ec3d95cafb33e2f2324e1e17fca886066cb60220d58f1d5866d332bfdb86aa0b1af650ba4d8634bc03bd88394e27bfb9ee6791a94488d0cc555c0c917e44e8d5fa6f0e62451e178f886be42804d5dc348a4ba78549e8e69e32f98de0ba3faab60e3ee43adee517bb368abcaf6dd204541fa423d44aa513ea4031cbc466ace589147c98d5cf5435a4759df59dede8b0805b5210ea1fb738c33b65f1a8978833290d0bef137267fa93ae776e338e66c9d830bc851e16519e91869f23a672cc3128b9c26703429a1664c55d966948b4690d737064342002e45c6dd90387715eb989a5d6244c844042787aa74e003d709630696390a854c10a0a1389b79f3753ceaa929d93cd35ee7ea23da8660c18928b802ed6e803746eed17c3ee46ff3c034dd125df6bcc63cd4ba14fe684b751556a125a056c9926ab7ffb8a57b7f9e4db070b0fcbfe56e4cde292dac43a571d522d18fef34b3d1db337f32b74a43440ee69646a36e5c48f1a79ac384b16737b744d38026c4e201e8fcac91897f5767886594c574f8a27cc8f078aa4bacc324eac00ecbade6747ac5becf790069a220227e497bdda88bd69c98165c762b935e4e6432c353ad312cf899c7454c86e388009127951e9b7d1af31c5fb3cbf5ecc91a49f7fa211fccb6d7b325b0d34441a4cfcc47e4de5911fee1fe22a435790a41f92f6ba40a3210954c63d6f7a0a818cbdb12aa8ad7720913a8a0c0fef9d412e971b8acc61f995ccabb9e9572e0299cbc011c0c88ce75d9fd641f541f6bd9f77b7ff8200c640c365063de38d3517004d3883c2428dcdd2a3639117d22cf06bb859fe64d62a6de574f32ee17eaa7fa96938caf48bfcff39c7baf8a9c7cedea3b709b81953a6cd60c1b2027204cf3848b65e3487fad44705974307d0dca8d3af78194880387222e0ee8252ab3470e81dcbdf18c8ef258e20c62a9966d33ab6a1544d4d66b1818347b981012a61793d80b9e2bb47ba7faa18e40fb0fbe16aff450318e7b1aa66d7911bef8c019da879815ca1318edae5e27cb21bce8afee2bc8a5f388c346b17aa308b6c3ca7183014b4dc0047ca5be6d4212d722e071c6a975c7980e92a2174722c31dfca92abf4d20029fd05ad93a57e23635511c94809c408bf035dd2155782f6e5de7e43dd15053e99fcea6532fd83be257d300243b0bd87f747f56e5ae21c58452cb1c8920ad6e557fc174e0f5fc0f22b9d2b52b8f185e1fb1abbff0a5abb6073596765cb9c22dfed6a15c57840fa6a06f9c18f5de01f6960ace85446d5bad37316572e08ce8dc88cd0dcea5177b699d63857a18dccd0da4c60ef40c6da1a3e32bf9c6e6561ab00dcbaf94fe1f8f6e5d2eb0f9bd256e90a0bf2f9d0940cddad839bd6195a57d18f4b727b836eb3da9692228abb65516e6295bbf82f50d253764e8c71c72473fb48a221a8dee1c30ea150b279b6cc1ac4108e62e7ae624945b6d976043ab6e9e4deb8e3246da0b52301e8f3f4fd797930bb04db733d72703cb8b453424f0e4ce7a76bf87bb1e6b3c3d14eac66d34b7a1e67776c57339e844c1900b7dd827f5053b6a638d9afb8de888d1ff412ab343dd1379d180aab054422f5a7726b11f39066178e5d7b5b388000000",
  "txid": "156ca620f95b551db0d104a6bc5aced412dd06d0840624d5ab1c9c84d06b8ba4",
  "hash": "378660199d8534a696911eee00f2f5c8458f1ba4d3e2f2312184801713435892",
  "size": 5085,
  "vsize": 2278,
  "version": 1,
  "locktime": 136,
  "vin": [
    {
      "txid": "1076d9d3efebb31a7578bb2800e6f7d525359005e16e8fafb046fcd9f3c818e0",
      "vout": 0,
      "scriptSig": {
        "asm": "",
        "hex": ""
      },
      "txinwitness": [
        "798f8ac22588ab4f4a4e9b53e32986ab05d327c6005f0ffee1693f816cdebeeb80f2896214e6de806038980afaa3175a37a74f126aa3a3ebed7a580aebef5a3f33d02ca4744ca16e497534408943cf38da9aaca6c423c8db43512e2a89c8e0b53da9fae2f06d4b0f39c7f0a8a6227981df9b6ca213ce0fb811ae82cda2200297522debb0ceb04a017415f23df906ba949bc1f3ede07333468dcea6ab1c9bc54c990bc5378d5c0df0573b6038cee62c8e198a05dbf2ee92d56f2e76b0053d7d405c94125be950c49ee48d4e4944d3f2610729a16a52065256b1242730b9c91bb646701b80686829e5352a727218acf0d94bd2bd910f7c78d116e2885a761a77cca7ef13a442afabf912c7b843d2a4ff75ee8d41958f47cb6d60a583f3a3e173e89f5cc931a58e6f6a3cd8428369b7fd54afc731db0d5ff1d5e99a21e4645e0df1212c8c1fadc07e47ead8ea78112b721fad6d1089950667d8e96ca1ce1a9440fd5bec5dcde02b86c01c91c68779712010ef1a8a3366a36cc1a3bae2a38faa7243e8836e614c198e49d94337cc95372d722c81f8805aaa231cb321693480316ce91d1673bf1b420223afa8bdfd90ae567f039d851cfc00ebb62269faf4bd253858a40f903981af748bea84fb19c4d722fb202edbf507918b8c6ee09e429e4a24589b7faa76170e50691c2669c736e9553f4a555ac9db24735ab7f7ddfac6bd0e3225ff4f6f62d71fe5f1e0fdeb88c34b26d98a8a3ce04b03c7ea6acee24db6d2a9ea8e88d4ff28fd5943152e9617e3957e304e4dcc733e4b18c18e6a94c60c457e13a14635589d21c4314c672a26bc5232181a9e44fd76d388a91c8983741624dea26b254f0e610c9266d9190d1e294956b54171f417082c96d7938672bb3bb95b7fc5a331509dfc3ffecd39f7a0ecf834733bd79267f3f6d2eaff41e8aff6ce04493069f2e60ddbd119df02cb60e7b750398d872c26952187e0c132262be80b8ee526aa4488235c0405918c67d73c94d43da7a311711c94bedb3a391531cb1a1f7d09092af78e155de8f0d35ad111c5fc2283e6c5f35cd806cc787542269d82bc4c03f4faefdbff50a5bb6030b4696d595ce3a851f43628772ce32fe473955c5ab3f8e2e88c6d57118478aea24059aa19e00d6ea17f7ef1c65855ea7a1f7ebcea3a79282fba1b8aba37bb6c02330895764cbc37776e42aa86d40ef37ccb78bcaa878f8ea171f5e4fba36826ce5576c583eb9e456f10674dca73c805c52c5d04868fe6154abd4bb893b82c2ed024ccdf2e45fa32ba5a03fd0f77a3996b47f36f8c6ff496e419b6d1561fc68761b67097bda68ea94cba024cc7b150ba62e0edca86e4450d2f9f2535f3b218afb4b30fbb8dc8f33ed9d0aa77d6c07592e4aa1b6b13e802d2bacc7a3767ceb9223d3b2d2d8ddbf0eb0ffaad4e61c6caf3f9434c248aa4b225dc0728b23bbc43debc0130969f5671f1accc376bfbe96424cf053a552ad1f78a1656eefa65adb2c74f4343aebb48204d38af2e5d86dc9b906a367b19d6d4e987e885ecadff6b8bb095e316eeeeb1da101b68545acd46f53ebc0d66f97c4a7b595e746452a6e5bbe4c2c7c38cf3a5fd1fbc8f036cf825cfb4a5ab06aa541e9c518794b6bd897e766424c1ebe943867d4043b03409f97c00b1602edd2aa06e116b1734b05051113cde93367fc15a37615ba3aeb79db6b06115cd183a186d216c0a389d15fb0a12e5244c39b95059a041382984cf645dc959e0aeea166643faf1d59d582b5cb4414058423dabcb9e8c54af0ebeaea88d5b5f8498e549e2fe6a13a85fbc994c5fade8abaad74008f79d1f2932ccde99eee7853531d69039b6844faf3e155023698424910297a5f624e074e404c045197f2d535c68fe9d681d9a6f203bcaa84898a063b8fdaf1c9bf2141d7e813c7a899cb0be4b9b0534151fd3d0499dcd0b3b6df439c0aae96b203eb141855ec1343ee06afe6df68516b8ebe02b627ac444855e2c0ae75fc4b7c3a7b70ebb91f456700b156fe60a96208389cc0ac4cde2e73e1544e9cd64877f62352be256d6c067270272873c1d060646f9c8783f070086de796b70c51a0ef4ca9bd9d08ec510a8bf35d002d3f22841737063bbdf1516dc805f8f4d0b2efa987fcd8f1402ed0567634cf8061911b47565c00d195a32911a6aa067a02bea21ddc830ad0ea21540efcacfe0b13f875286bebee197427ae0d7b0babb94f390fe4ec57a2a68005da0fa9912064bc9077aa09ad61319f12f365ee08c8a3cdbc0e4db835c5eec5f87d972195db78f426f7e33403af73e8d9431b6f21651ae5c3f294b41518bf1ad67fbcbe10dc56bc8965d0be37e9daf2bf38664d8d40207f819bf91ef70f5cb74a3ce8c663496a4968d18605138ba0796cc92157b731726de3f5effa5ded69d9f78703e22b80cb9d6f659a9360ffcc2f9a059e107d9b1a606e763cb4510d8dc953cf7079c052e61f55a1782f80f61b482d800f62af09cbc9eb308bebe0cf910dc2f68cfd20e63334626ed7936934bcfa6b4838f9f16b15cbd30b631af75e931144828ff9e73ab7a8223841f13878c058da30aa55443cdc98dd32b21bc8bde4523f2bd2817ec7134032346520c331d94c747c8c28ddd9b63f7e60e5f1fbba8c9108398c5d63cbf6d1cbb28b71d4d73d2d9a43a67115b29475c56fa2228ba80789ae70a5c6026c3d9abfd6835c85f165c20a3dde216858a41d40677c51e19062c50dc456c599eaa3ef9d7ad3dfeee927e6c453336e4c9866a5da2afae2dfae662a22847d4937260406db8707efb668a54bea563c4395eb7b47fa6eb87af9cfa4669b221c148e5e11053e8966be7849e8b669ed07cff17d968964facfda7988805c2ad648127dabdc9bc84898d6f2c62eb7f9c1e98c5d91215f91d7685d11c0c11a3639ef92e33fb46d19500755f1e5ee0460eabe4e24f271ce7b444883e852608676ce3c1dbdead88bc58576e7c371f4887bca9d7b79bd03e5c3332473aa9fb63068a11fb249038f4bc60ccd49789f4eaf8b4dcaa6b0352bd81398c6fe5e88266eb4cd6b32f0b143d75b58b7127d3cb08d6d42343f649acf0480678b3da885e438589d901579da611506c976bdf4aeaa313fe5ecc1729de2ec4c539a42142813bcc7f26d653f99a17ae0aa68dc9746ea7709a8fe8cc196fc3f9bee05b908fc46506b87ca67de4b59aac3adcddbd5c7e3876882886ec26ee647c8b2764dac909685362c29a21b9f17f7be4d25ef28ab5791464969a93309dadad1d8093f19e9df2fd93d37702d68eb5bc413b8ad3b4061f3346484c60688ea1c5d7f0f115283d4354576a70878a969d9ecdecf3041d29425c748196b5b6d3d8dadbdff304080a15171b2f305c9195999caaafe7f0f5fc0000000000000000000000000000000e1e2e4101",
        "00a4076ab2aa57e1c5ba7ef04ddf61289debc411693ddb98ccb8f35619bc68d95e8bc80c544f71ec55f157da634bd1b82f5ab227d88e409a4d0b6fecc24f4f3d135f0cddba0a97b717a1d1dbb7339676eaf805b9ff9b689d5f13e598524a392c40e3835a61bb6b032e3550fb49b5f91f79691f20c5ad37357a0618f05de0e1fd02128b78451611b0c910b59bd5001c92e42cf7a930a7cb9bba5cd3ec686b1151182ec3d95cafb33e2f2324e1e17fca886066cb60220d58f1d5866d332bfdb86aa0b1af650ba4d8634bc03bd88394e27bfb9ee6791a94488d0cc555c0c917e44e8d5fa6f0e62451e178f886be42804d5dc348a4ba78549e8e69e32f98de0ba3faab60e3ee43adee517bb368abcaf6dd204541fa423d44aa513ea4031cbc466ace589147c98d5cf5435a4759df59dede8b0805b5210ea1fb738c33b65f1a8978833290d0bef137267fa93ae776e338e66c9d830bc851e16519e91869f23a672cc3128b9c26703429a1664c55d966948b4690d737064342002e45c6dd90387715eb989a5d6244c844042787aa74e003d709630696390a854c10a0a1389b79f3753ceaa929d93cd35ee7ea23da8660c18928b802ed6e803746eed17c3ee46ff3c034dd125df6bcc63cd4ba14fe684b751556a125a056c9926ab7ffb8a57b7f9e4db070b0fcbfe56e4cde292dac43a571d522d18fef34b3d1db337f32b74a43440ee69646a36e5c48f1a79ac384b16737b744d38026c4e201e8fcac91897f5767886594c574f8a27cc8f078aa4bacc324eac00ecbade6747ac5becf790069a220227e497bdda88bd69c98165c762b935e4e6432c353ad312cf899c7454c86e388009127951e9b7d1af31c5fb3cbf5ecc91a49f7fa211fccb6d7b325b0d34441a4cfcc47e4de5911fee1fe22a435790a41f92f6ba40a3210954c63d6f7a0a818cbdb12aa8ad7720913a8a0c0fef9d412e971b8acc61f995ccabb9e9572e0299cbc011c0c88ce75d9fd641f541f6bd9f77b7ff8200c640c365063de38d3517004d3883c2428dcdd2a3639117d22cf06bb859fe64d62a6de574f32ee17eaa7fa96938caf48bfcff39c7baf8a9c7cedea3b709b81953a6cd60c1b2027204cf3848b65e3487fad44705974307d0dca8d3af78194880387222e0ee8252ab3470e81dcbdf18c8ef258e20c62a9966d33ab6a1544d4d66b1818347b981012a61793d80b9e2bb47ba7faa18e40fb0fbe16aff450318e7b1aa66d7911bef8c019da879815ca1318edae5e27cb21bce8afee2bc8a5f388c346b17aa308b6c3ca7183014b4dc0047ca5be6d4212d722e071c6a975c7980e92a2174722c31dfca92abf4d20029fd05ad93a57e23635511c94809c408bf035dd2155782f6e5de7e43dd15053e99fcea6532fd83be257d300243b0bd87f747f56e5ae21c58452cb1c8920ad6e557fc174e0f5fc0f22b9d2b52b8f185e1fb1abbff0a5abb6073596765cb9c22dfed6a15c57840fa6a06f9c18f5de01f6960ace85446d5bad37316572e08ce8dc88cd0dcea5177b699d63857a18dccd0da4c60ef40c6da1a3e32bf9c6e6561ab00dcbaf94fe1f8f6e5d2eb0f9bd256e90a0bf2f9d0940cddad839bd6195a57d18f4b727b836eb3da9692228abb65516e6295bbf82f50d253764e8c71c72473fb48a221a8dee1c30ea150b279b6cc1ac4108e62e7ae624945b6d976043ab6e9e4deb8e3246da0b52301e8f3f4fd797930bb04db733d72703cb8b453424f0e4ce7a76bf87bb1e6b3c3d14eac66d34b7a1e67776c57339e844c1900b7dd827f5053b6a638d9afb8de888d1ff412ab343dd1379d180aab054422f5a7726b11f39066178e5d7b5b3"
      ],
      "sequence": 4294967294
    }
  ],
  "vout": [
    {
      "value": 499960.3409,
      "n": 0,
      "scriptPubKey": {
        "asm": "1 8780c395ed196cca739c979782cf0b4c28118c9fa2190bad85964adfa3d6f988",
        "hex": "51208780c395ed196cca739c979782cf0b4c28118c9fa2190bad85964adfa3d6f988",
        "reqSigs": 1,
        "type": "witness_v1_scripthash",
        "addresses": [
          "3QJmnh"
        ]
      }
    },
    {
      "value": 1.0,
      "n": 1,
      "scriptPubKey": {
        "asm": "OP_RETURN e773380fc5b2f40348f46489eb3ddf0e7a2908f50414379aa8e95a6f0ebdf003 87e5aa9d7c21091c4d8b38ae1193d3b3e1ac75d7b4c6cde045d5ea97e1f09a43a7c58abd5c01293c6dab188e31b3f393c18c55f794e6edc065f5cab7c1d0ba63c7a5eadd3c61495c0dcb78ee51d393f3a1ec3597f4868da00595aad7a1b0da03e785cafd1c41697c2deb58ce71f3b3d381cc15b7d4a6ad8025b58af78190fa2307652a1dfca1899ccd0bb82e91135333612cf55734464d60c5556a1761701ac327450a3ddc81a9bced2b980eb1337313410cd57714666d40e5754a3741503ae347256a5dbce1c9dc8d4bf86ed1531373216cb51774060d2085152a5721305a8367054a7d9cc1e9fcad6bd84ef1733353014c953754262d00a5350a7701107aa387e5aa9d7c21091c4d8b38ae1193d3b3e1ac75d7b4c6cde045d5ea97e1f09a43a7c58abd5c01293c6dab188e31b3f393c18c55f794e6edc065f5cab7c1d0ba63c7a5eadd3c61495c0dcb78ee51d393f3a1ec3597f4868da00595aad7a1b0da03e785cafd1c41697c2deb58ce71f3b3d381cc15b7d4a6ad8025b58af78190fa2307652a1dfca1899ccd0bb82e91135333612cf55734464d60c5556a1761701ac327450a3ddc81a9bced2b980eb1337313410cd57714666d40e5754a3741503ae347256a5dbce1c9dc8d4bf86ed1531373216cb51774060d2085152a5721305a8367054a7d9cc1e9fcad6bd84ef1733353014c953754262d00a5350a7701107aa387e5aa9d7c21091c4d8b38ae1193d3b3e1ac75d7b4c6cde045d5ea97e1f09a43a7c58abd5c01293c6dab188e31b3f393c18c55f794e6edc065f5cab7c1d0ba63c7a5eadd3c61495c0dcb78ee51d393f3a1ec3597f4868da00595aad7a1b0da03e785cafd1c41697c2deb58ce71f3b3d381cc15b7d4a6ad8025b58af78190fa2307652a1dfca1899ccd0bb82e91135333612cf55734464d60c5556a1761701ac327450a3ddc81a9bced2b980eb1337313410cd57714666d40e5754a3741503ae347256a5dbce1c9dc8d4bf86ed1531373216cb51774060d2085152a5721305a8367054a7d9cc1e9fcad6bd84ef1733353014c953754262d00a5350a7701107aa387e5aa9d7c21091c4d8b38ae1193d3b3e1ac75d7b4c6cde045d5ea97e1f09a43a7c58abd5c01293c6dab188e31b3f393c18c55f794e6edc065f5cab7c1d0ba63c7a5eadd3c61495c0dcb78ee51d393f3a1ec3597f4868da00595aad7a1b0da03e785cafd1c41697c2deb58ce71f3b3d381cc15b7d4a6ad8025b58af78190fa2307652a1dfca1899ccd0bb82e91135333612cf55734464d60c5556a1761701ac327450a3ddc81a9bced2b980eb1337313410cd57714666d40e5754a3741503ae347256a5dbce1c9dc8d4bf86ed1531373216cb51774060d2085152a5721305a8367054a7d9cc1e9fcad6bd84ef1733353014c953754262d00a5350a7701107aa387e5aa9d7c21091c4d8b38ae1193d3b3e1ac75d7b4c6cde045d5ea97e1f09a43a7c58abd5c01293c6dab188e31b3f393c18c55f794e6edc065f5cab7c1d0ba63c7a5eadd3c61495c0dcb78ee51d393f3a1ec3597f4868da00595aad7a1b0da03e785cafd1c41697c2deb58ce71f3b3d381cc15b7d4a6ad8025b58af78190fa2307652a1dfca1899ccd0bb82e9113533392867bd3a11db8341501325bf6b9c2d4a3e2c1091bcdca89317836dc6894645c",
        "hex": "6a20e773380fc5b2f40348f46489eb3ddf0e7a2908f50414379aa8e95a6f0ebdf0034db00487e5aa9d7c21091c4d8b38ae1193d3b3e1ac75d7b4c6cde045d5ea97e1f09a43a7c58abd5c01293c6dab188e31b3f393c18c55f794e6edc065f5cab7c1d0ba63c7a5eadd3c61495c0dcb78ee51d393f3a1ec3597f4868da00595aad7a1b0da03e785cafd1c41697c2deb58ce71f3b3d381cc15b7d4a6ad8025b58af78190fa2307652a1dfca1899ccd0bb82e91135333612cf55734464d60c5556a1761701ac327450a3ddc81a9bced2b980eb1337313410cd57714666d40e5754a3741503ae347256a5dbce1c9dc8d4bf86ed1531373216cb51774060d2085152a5721305a8367054a7d9cc1e9fcad6bd84ef1733353014c953754262d00a5350a7701107aa387e5aa9d7c21091c4d8b38ae1193d3b3e1ac75d7b4c6cde045d5ea97e1f09a43a7c58abd5c01293c6dab188e31b3f393c18c55f794e6edc065f5cab7c1d0ba63c7a5eadd3c61495c0dcb78ee51d393f3a1ec3597f4868da00595aad7a1b0da03e785cafd1c41697c2deb58ce71f3b3d381cc15b7d4a6ad8025b58af78190fa2307652a1dfca1899ccd0bb82e91135333612cf55734464d60c5556a1761701ac327450a3ddc81a9bced2b980eb1337313410cd57714666d40e5754a3741503ae347256a5dbce1c9dc8d4bf86ed1531373216cb51774060d2085152a5721305a8367054a7d9cc1e9fcad6bd84ef1733353014c953754262d00a5350a7701107aa387e5aa9d7c21091c4d8b38ae1193d3b3e1ac75d7b4c6cde045d5ea97e1f09a43a7c58abd5c01293c6dab188e31b3f393c18c55f794e6edc065f5cab7c1d0ba63c7a5eadd3c61495c0dcb78ee51d393f3a1ec3597f4868da00595aad7a1b0da03e785cafd1c41697c2deb58ce71f3b3d381cc15b7d4a6ad8025b58af78190fa2307652a1dfca1899ccd0bb82e91135333612cf55734464d60c5556a1761701ac327450a3ddc81a9bced2b980eb1337313410cd57714666d40e5754a3741503ae347256a5dbce1c9dc8d4bf86ed1531373216cb51774060d2085152a5721305a8367054a7d9cc1e9fcad6bd84ef1733353014c953754262d00a5350a7701107aa387e5aa9d7c21091c4d8b38ae1193d3b3e1ac75d7b4c6cde045d5ea97e1f09a43a7c58abd5c01293c6dab188e31b3f393c18c55f794e6edc065f5cab7c1d0ba63c7a5eadd3c61495c0dcb78ee51d393f3a1ec3597f4868da00595aad7a1b0da03e785cafd1c41697c2deb58ce71f3b3d381cc15b7d4a6ad8025b58af78190fa2307652a1dfca1899ccd0bb82e91135333612cf55734464d60c5556a1761701ac327450a3ddc81a9bced2b980eb1337313410cd57714666d40e5754a3741503ae347256a5dbce1c9dc8d4bf86ed1531373216cb51774060d2085152a5721305a8367054a7d9cc1e9fcad6bd84ef1733353014c953754262d00a5350a7701107aa387e5aa9d7c21091c4d8b38ae1193d3b3e1ac75d7b4c6cde045d5ea97e1f09a43a7c58abd5c01293c6dab188e31b3f393c18c55f794e6edc065f5cab7c1d0ba63c7a5eadd3c61495c0dcb78ee51d393f3a1ec3597f4868da00595aad7a1b0da03e785cafd1c41697c2deb58ce71f3b3d381cc15b7d4a6ad8025b58af78190fa2307652a1dfca1899ccd0bb82e9113533392867bd3a11db8341501325bf6b9c2d4a3e2c1091bcdca89317836dc6894645c",
        "type": "nulldata"
      }
    }
  ],
  "blockhash": "c0ea0e6b16ad20f35d4757cbcff39c3d199dbd7e252fa8e6bc9f3f36ee858c22",
  "confirmations": 1,
  "time": 1764183276,
  "blocktime": 1764183276
}