{
  "hex": "010000000001015292cc5387354c54d44bc9053a52bef3285936ec62da76ab820aa9e956e69bb00100000000feffffff0200e1f50500000000fdd5046a20f8354d38145c7746010e9135d985226cb891401ae34e434d69166fc1c591b9c94db004726a0f71b9db3d77f2634b00e0bfa4274bfb3291bf6b9e724a022edab69ed642524a2f5199fb1d57d2436b20c09f84076bdb12b19f4bbe526a220efa96bef662322a4f31f99b7d37b2230b40a0ffe4670bbb72d1ff2bde320a426e9af6de9602120a6f11d9bb5d1792032b6080dfc4472b9b52f1df0bfe122a624ebad6feb622f2ea8ff1395bbdf772e3cb80603f24a7cb7bb2113feb1ef2ca82ae5a361e56c2d2caafd1197b9dd752c3eba0401f0487eb5b92311fcb3ed2eaa28e7a163e76e2b2aacfb1791bfdb732a38bc0207f64e78b3bf2517fab5eb28ac2ee1a765e1682928aef91593bdd971283abe0005f44c7ab1bd2715f8b7e92aae2ce3a567e36a2726a0f71b9db3d77f2634b00e0bfa4274bfb3291bf6b9e724a022edab69ed642524a2f5199fb1d57d2436b20c09f84076bdb12b19f4bbe526a220efa96bef662322a4f31f99b7d37b2230b40a0ffe4670bbb72d1ff2bde320a426e9af6de9602120a6f11d9bb5d1792032b6080dfc4472b9b52f1df0bfe122a624ebad6feb622f2ea8ff1395bbdf772e3cb80603f24a7cb7bb2113feb1ef2ca82ae5a361e56c2d2caafd1197b9dd752c3eba0401f0487eb5b92311fcb3ed2eaa28e7a163e76e2b2aacfb1791bfdb732a38bc0207f64e78b3bf2517fab5eb28ac2ee1a765e1682928aef91593bdd971283abe0005f44c7ab1bd2715f8b7e92aae2ce3a567e36a2726a0f71b9db3d77f2634b00e0bfa4274bfb3291bf6b9e724a022edab69ed642524a2f5199fb1d57d2436b20c09f84076bdb12b19f4bbe526a220efa96bef662322a4f31f99b7d37b2230b40a0ffe4670bbb72d1ff2bde320a426e9af6de9602120a6f11d9bb5d1792032b6080dfc4472b9b52f1df0bfe122a624ebad6feb622f2ea8ff1395bbdf772e3cb80603f24a7cb7bb2113feb1ef2ca82ae5a361e56c2d2caafd1197b9dd752c3eba0401f0487eb5b92311fcb3ed2eaa28e7a163e76e2b2aacfb1791bfdb732a38bc0207f64e78b3bf2517fab5eb28ac2ee1a765e1682928aef91593bdd971283abe0005f44c7ab1bd2715f8b7e92aae2ce3a567e36a2726a0f71b9db3d77f2634b00e0bfa4274bfb3291bf6b9e724a022edab69ed642524a2f5199fb1d57d2436b20c09f84076bdb12b19f4bbe526a220efa96bef662322a4f31f99b7d37b2230b40a0ffe4670bbb72d1ff2bde320a426e9af6de9602120a6f11d9bb5d1792032b6080dfc4472b9b52f1df0bfe122a624ebad6feb622f2ea8ff1395bbdf772e3cb80603f24a7cb7bb2113feb1ef2ca82ae5a361e56c2d2caafd1197b9dd752c3eba0401f0487eb5b92311fcb3ed2eaa28e7a163e76e2b2aacfb1791bfdb732a38bc0207f64e78b3bf2517fab5eb28ac2ee1a765e1682928aef91593bdd971283abe0005f44c7ab1bd2715f8b7e92aae2ce3a567e36a2726a0f71b9db3d77f2634b00e0bfa4274bfb3291bf6b9e724a022edab69ed642524a2f5199fb1d57d2436b20c09f84076bdb12b19f4bbe526a220efa96bef662322a4f31f99b7d37b2230b40a0ffe4670bbb72d1ff2bde320a426e9af6de9602120a6f11d9bb5d1792032b6080dfc4472b9b52f1df0bfe122a624ebad6feb622f2ea8ff1395bbdf772e3cb80603f24a7ac4633dd2599b1b40d87e4f8564ad53f82e43c1c53ccc99442a37f23ee99b039b0767139792d0000225120dc724831502db07c452155ef235d1731c52ea0234c3471eebd71556bb5155e7b02fd7509d9e6fed2ae47f7be98923a332ab9f5be8d62710f9362689632dcfc4dfbd19171da2e62b76efb40da39dd0db7aa90167bc8cc89add50af8d426016cdfff91325be3fb7289123666daffc1978da4b7d068f4a18710a69399f0b006858090086750e0a051868e78258b90ae76b2a5fe6c12c6fb07ee90cc576a96ae9c31dafdab38831438446dd24a4439f8fd87d0592294d9850b4c8f5436aeaaed32d6d9507b08f9a0901c0b4384f013fe04de999d92386ddf0a6916fc49a8003cb4a9f6b2b6b376bc08d6bc8970d2dfba341afca64885c9705fc9eaba8714a391db143360cfe2a3c0aa0034b9d38cf8334bf313422f39d99d460522c4fff10635be68fbe615f23b444f3d38b11c7ae2074a8ff9ba133dffe4242221371da7df1c1dc1093b58599b749c6a205ea40383a68949bb0257aa75a2270c358597455bc60a3008712aecad06ebaab4267f04144f0b20d4a4e7c4b23a41451d6f58635a4f7d2f5bef55484294535b516af60aa3e2ba9e85789cb93936190c260569ec5cab42fd4fc0b2c1ef49eb0f3dc846dcf4f5494396091055629eebb5fea69a2233c479352dad3be1d340099d7c0f1df3d34db1b71c031d27cee9ae1b7685817d959bacdd568352f5a70f30442eac23040747541929d9674c69004cbbefbe6e7f28a4104da4240de6c6809dc4ed3706619f58c20e03f2603738bfffac73af77ee2602df3f6295a0d2b093bbcf0ba21b43eb8bb0bc463a946f1fe0c6795dfc11bda8ca0d43fdb91e6d66c4cece7be60ce7d6ed6e06f3bec73eb9a9e7cd47b95f3c7e04c8d40ad85e59713c73aedb95e9f457f3533856b9fd8498ba0df8dd5307247cbbcdc56c89f48132dcf8769947c05859f7aff97e6bf21adfa8efae20ba3a42922c4892fcf61058ba650d2262a62f4f4059c80fdde81db5295406d00ad17ad8a2eb37939f5d680dd01e52b794c8f71f9acdc665c267aa60adb9e32aa94da9e850fa0c9ea36923fbea1adaa3773b51449be34da7e126251fc4a9ccc47d53a82819169e6b4a19abde9bd1f7e647848f4c1f8137545e713d53e2fac515751515a53b559375e21b41dbf9921f7f2d34ae8f77133edb9883ac82e729158280f91806614d8c0862c81d9250abce656185f4a9fd8e4c23d5a630a799374e6f339a6707250207b7e090c7f12e0bb978f155d3a1dd1a7fe93c750ac8f0b41c7acd85886a7a9bd1a9fabea1984ee861b8eab975c788226202cf85f2770a81edeb5f7ab4c335a265b9a12287d05d519fa8f5d35d79a89bb671cde773f3669e08024468d2c0ddf6a24ff00d95788e8bfe696f81208df80c124ec52ebe1c022de8f52dcabaad82886a6bc7a391d8544fefb4d770b955720513071505656efe062780b56aa7ef49943af9d7edd977a36a860c74e054f18081f774dae0d2fc4ab21e25e749e2e9ea75625ef28063d52adc3a93bf8504d65145b846d0dc3abd7842ed7f1a30de2771b569943b64113d691d244071ff424ece50324c79c6b7f19341bf8d85c2587de8290b671a704efc436784e85045aba7d55a0ca83748f8e1a0e6a3d3cbf6a3bef7b248a1341c2179e29fd0af9aadcf5d958d537df6658b6dfd716257b00f699666d44ecf05743efb256adab0da9f3d5cbd7e42788795365b0fa51b75f2f760d79813b08830af108c13c81b9a5271808ccf0ff7cbff6d900653a6f58ec35512fe5ee787e084df72ab677b2807bebce602f1537cbfa04dd112ffbd059a479bc4e451e52ddc92ea49e78aac3aee8bca67ebfd7160cc0828013f01913a69f3ed421f5677004eee0289e884ce237c8c2d2e55574a4018442c045d4a1f3f2ae87ad6b0d01938265393d9be79caf87a98e3bf8b106cf7bf500da4f310b295ba051e8c765487257d811ca7639ea3f27d708761ceb5050633c07e2ea2cc26d65bc5c5deb1c9a7d9bbf2869dd81f18898db2071cf5e46cadfeade330406ffe3711a253ff58042e1cb43f56d6cdd21ecac8ad56ced0912ec50cc6b1a8969408273f1a54b60d3fecef9f69d7b65fcf75def0e3f85f542144e5632570bc1099af1d553217a43a7b0f2f11c722f336f3c1a80d9879a777b3810a5e6efc17a3f9c1a8d84198c0ba844af631621c73e26ed47c81a376cc246bcf2d7b12ac9e854a9b275409bd171151d9ffae82ec6a10dd699c7294620abe37577abea3354ca57a489b24c2eb32baf27a12d839f67247c5170ccded7aec99d66fc68aa3b6721a0e0d7020bb8e761cc0b4c7514e05f90e19e2a548ceeaf0a0050625b35dcc19ff5b293093b67d304c04d55f4d980931aff1ded334485a39937ba69d39209e4ea327a720d86b6059ce0b9bcf0dbfeabe74cf458dc41903242aa785f9aa420c06664375e36512b6796d96a09d23d3ba722db5a41cc538ede0119e9a02831c591d6bb8ca3990888741324595cfddd1d79741cff82f9bac888f4f609f67174e01524b401df0b79633c23ff65b3236e77ac1bc148f85c191df050501df7c9e85c83ea4a3660eb7e39714a931ea8e996baea1382ee95bfc491f15016cc39b3276645c8531637f0f21730a149e424450e3e6ee79aa4aca5252753cf85f6283df44f31c610e6bd25da8ccaccdfa38e9931718046dbf68f8d368db41e2fffcbf5051ab1d008191ca52bcbcdbecab60ab90ac365274865c1822d3740533aadded00cd8c661467987125662938390d1a488fc42a92b4519612e9203f36ea79dd20589765db66386038fa18f18c4c0c98e449bd5fcfdbb308183a530b576dc1545c9caad38de6174d9366cad6c140dc8ecbf0db1ecc2a839e50c1a2d34400282298b0006fa117017ddd660a89448078309dbb834348f69ae340c9be9a1ad35d63f0f49caee88eb72f795580fa3bc6ac5c353b50ae47abb953f7a4e6d3a0fa524bfb4af6a410659e736d1e78115c8818d1f48e864f092dfac4890e9f31223dfec2df4e1eec9ddbf1409eecff5d65c0bad5da88842d5cfea327ccf4604b9256c2826d8ec051a4e5bc345f10496ef5441b015a96390fdb365f4644927ce0ce90ca9c4f73756a4b30f0adce4f07493d24f171208a84b4b12cf1ed05ac86b75d43ec53c392be83ab6ee63687a6f7b1e98561e7e79eede413a7b091189200f8bc512b1fe40dd10cf062408461117b7ebf1e1ceb8f590b218c514f575347cd3fd77f422a5008907a254fa0eb24b430c54a12833d75884117e8d0236f8051502ea61a5d8e41e3654d14298f9d3bace21e052dbba1751f87118cddb1b03d54cf03624183c1ee5071d8699f6b8cb610989a11b3931812967b98786a1d1e23292b3742444759858da8afc6dce0e3f826383c42839297a7a9d4d8d9e6f3f813172331535c67979ca4c0d9daf50506111627293241445f6c6e6f829fa0b4cdd0e60000000000000000000000001322304401fd2105005cbb593970cb921c53951fc81ef1616220d67dd270e14bc6af728f9cb4531a8e01583c9077b00d8b8a442d8320202f98da59eac4d0b3f56b438ee812ffc05169409d765c78998a3bb43a2c9e7d777b60f9530fb5e684cfde78e68ce3d2eb3935110f824830bd4bca7c79e2344c303811bfa4b968fa7f5229f4b36b0a362d0c5bc0ebb569751b6bb8c85967a0102359ce5ca22e79210404e4d4c15a2ef036155df371eda78e3953b58fb626489c67140c0256ffc25647c7e6c04ea24f0360f45d53680c1c1a084df18c016ca33c0314d3bc11bc1727f2f88288451f230cac2ba6b3b4fa0efe4083f985575beedceba3422d69f6fb8751836611797c51c51dd8f28c6ca339fd3ac2adbcc992f1ae82f315d0fab8cd0ae1928457bfa9f9c1e9053e4f62969af3096d341f2182dce953295a2a38c9a8c086e65c3a611965497b7b8aff2afa4c03bbdef6b32634c82c97c8b2e77ddc32c8053f4f0e7e32724a4264b83162c391af28d5efd14c15a7cf3bdde9ee556ddc318f9f4e1a5c5f7f0edc236f9d6c15878f035aac615ac0467195c6a6960c25898d597768234600eba491791ca39e6e65d6ab7ae156a80f61a2a6ffddb3fe98cae45a3a042e6625fed4d5e6f7d292b7eec21c3b1ab4c1da650acd26613f5bad9c22089431bbc9fd43876d3527b9f2c755cbe23d5f1016e2181fd74cee12bce32ce4e618ca3c98f20f5686e5d1e4d873ac5f22da44ca41ebcecd7326de0ec4e44fc93615c38b094b3cabf5ddd5117d23e54ce599aaf8f89b59d90c5a6ff1a955932886737767e52cf14e73c4c4d71d45fcbe34b71cf34961e5ddcf5e642c4ce7ef5f0dc0985b39002f5020e4e0cdb328a5f45d0eb7dd0b247d9908b8895c422f4439ff717ff407849fd74a72abe90eee98c82e468b7c597066b582c161bd91663b029cb37a3f139491e20c87708bf2523de5a57bf98c28a7164011fcc764af642989672a16fd90867084e1d0a981297133c28f2f1e46ac0dab935278e571e78f2b317cf2ce8c74fd9ff205a7fb7762582bd78af98d7fc0fd3f6c3791631bc3b70cc851ea595e76877477ed0e7e2812b24d0ffca69d4c8178dfccc203f26967d65639d0ccb1423bf544cf58e7742e9844866eaf2b0fa70a5ffa66c9cdd29fa103e3b2d6c12a2df7f01e8664c1b1befbd57202eb1acd938fd3432e422fd2a2ca69d42a5b1b95d597fc70a25b78f30899aa56edd1fd936b8b84acb2e62c4538cffc34abf00dc23b323b5a650db29a3cead8749a5542ca3cf547ab2ecd5531c34b99ab2917bf884497cffc45f8521931ddbe3c836a113cbb642e5c15973495a994d98b7350bbc2beb490d4026d15be692b5521bf15a5a94cd917cc739c828f68b1ffea252126f60e3a846375c593396f7cf07ee25466d1d6528765916f1f8e107ac528b985b5dbe790aa80623d605da215d388ba27a2d84d88cab2248da70c937b0bb0a45c476f21e24b7820890de2ef988f35c3336a6aebc437fb7de72a196acb355b65a0cea223f0851e3e6f38474269943bd1de3dc806bf584fed3fec5412cba724321642195cb9efaa7574229bfbf9f0aa08e8ad89f00fafbd533d95421cee60df87835201b417d901e0bb726dc9918f7f7fcb45997c25a96dcafb152b0b161a1caeda10e204b4b551e83e6ea37614aa2cd1925771ed60fb05e08753f8bb755aaadaebe5d073a965e02525d320cc0241ca11e03b2c7104a4dd8ed652c051a6698dd124c9337eb49044c570f6e7a51906b09094e6cc1e645e528cafab9c76606fdbc78acddb3cca91026938b6c15be60c0307884b1632134ef00022b33e4aca0627b4dcbb66ff092ff4706d37b96c000000",
  "txid": "1baf8d22c064c7b66cb81f30724ffadcd4b0701403cadf26cc64c340daba23da",
  "hash": "084c58cf918be5a15394f6a786b2ede3ba6e614edfa52d6a445a3e97750f0961",
  "size": 5085,
  "vsize": 2278,
  "version": 1,
  "locktime": 108,
  "vin": [
    {
      "txid": "b09be656e9a90a82ab76da62ec365928f3be523a05c94bd4544c358753cc9252",
      "vout": 1,
      "scriptSig": {
        "asm": "",
        "hex": ""
      },
      "txinwitness": [
        "d9e6fed2ae47f7be98923a332ab9f5be8d62710f9362689632dcfc4dfbd19171da2e62b76efb40da39dd0db7aa90167bc8cc89add50af8d426016cdfff91325be3fb7289123666daffc1978da4b7d068f4a18710a69399f0b006858090086750e0a051868e78258b90ae76b2a5fe6c12c6fb07ee90cc576a96ae9c31dafdab38831438446dd24a4439f8fd87d0592294d9850b4c8f5436aeaaed32d6d9507b08f9a0901c0b4384f013fe04de999d92386ddf0a6916fc49a8003cb4a9f6b2b6b376bc08d6bc8970d2dfba341afca64885c9705fc9eaba8714a391db143360cfe2a3c0aa0034b9d38cf8334bf313422f39d99d460522c4fff10635be68fbe615f23b444f3d38b11c7ae2074a8ff9ba133dffe4242221371da7df1c1dc1093b58599b749c6a205ea40383a68949bb0257aa75a2270c358597455bc60a3008712aecad06ebaab4267f04144f0b20d4a4e7c4b23a41451d6f58635a4f7d2f5bef55484294535b516af60aa3e2ba9e85789cb93936190c260569ec5cab42fd4fc0b2c1ef49eb0f3dc846dcf4f5494396091055629eebb5fea69a2233c479352dad3be1d340099d7c0f1df3d34db1b71c031d27cee9ae1b7685817d959bacdd568352f5a70f30442eac23040747541929d9674c69004cbbefbe6e7f28a4104da4240de6c6809dc4ed3706619f58c20e03f2603738bfffac73af77ee2602df3f6295a0d2b093bbcf0ba21b43eb8bb0bc463a946f1fe0c6795dfc11bda8ca0d43fdb91e6d66c4cece7be60ce7d6ed6e06f3bec73eb9a9e7cd47b95f3c7e04c8d40ad85e59713c73aedb95e9f457f3533856b9fd8498ba0df8dd5307247cbbcdc56c89f48132dcf8769947c05859f7aff97e6bf21adfa8efae20ba3a42922c4892fcf61058ba650d2262a62f4f4059c80fdde81db5295406d00ad17ad8a2eb37939f5d680dd01e52b794c8f71f9acdc665c267aa60adb9e32aa94da9e850fa0c9ea36923fbea1adaa3773b51449be34da7e126251fc4a9ccc47d53a82819169e6b4a19abde9bd1f7e647848f4c1f8137545e713d53e2fac515751515a53b559375e21b41dbf9921f7f2d34ae8f77133edb9883ac82e729158280f91806614d8c0862c81d9250abce656185f4a9fd8e4c23d5a630a799374e6f339a6707250207b7e090c7f12e0bb978f155d3a1dd1a7fe93c750ac8f0b41c7acd85886a7a9bd1a9fabea1984ee861b8eab975c788226202cf85f2770a81edeb5f7ab4c335a265b9a12287d05d519fa8f5d35d79a89bb671cde773f3669e08024468d2c0ddf6a24ff00d95788e8bfe696f81208df80c124ec52ebe1c022de8f52dcabaad82886a6bc7a391d8544fefb4d770b955720513071505656efe062780b56aa7ef49943af9d7edd977a36a860c74e054f18081f774dae0d2fc4ab21e25e749e2e9ea75625ef28063d52adc3a93bf8504d65145b846d0dc3abd7842ed7f1a30de2771b569943b64113d691d244071ff424ece50324c79c6b7f19341bf8d85c2587de8290b671a704efc436784e85045aba7d55a0ca83748f8e1a0e6a3d3cbf6a3bef7b248a1341c2179e29fd0af9aadcf5d958d537df6658b6dfd716257b00f699666d44ecf05743efb256adab0da9f3d5cbd7e42788795365b0fa51b75f2f760d79813b08830af108c13c81b9a5271808ccf0ff7cbff6d900653a6f58ec35512fe5ee787e084df72ab677b2807bebce602f1537cbfa04dd112ffbd059a479bc4e451e52ddc92ea49e78aac3aee8bca67ebfd7160cc0828013f01913a69f3ed421f5677004eee0289e884ce237c8c2d2e55574a4018442c045d4a1f3f2ae87ad6b0d01938265393d9be79caf87a98e3bf8b106cf7bf500da4f310b295ba051e8c765487257d811ca7639ea3f27d708761ceb5050633c07e2ea2cc26d65bc5c5deb1c9a7d9bbf2869dd81f18898db2071cf5e46cadfeade330406ffe3711a253ff58042e1cb43f56d6cdd21ecac8ad56ced0912ec50cc6b1a8969408273f1a54b60d3fecef9f69d7b65fcf75def0e3f85f542144e5632570bc1099af1d553217a43a7b0f2f11c722f336f3c1a80d9879a777b3810a5e6efc17a3f9c1a8d84198c0ba844af631621c73e26ed47c81a376cc246bcf2d7b12ac9e854a9b275409bd171151d9ffae82ec6a10dd699c7294620abe37577abea3354ca57a489b24c2eb32baf27a12d839f67247c5170ccded7aec99d66fc68aa3b6721a0e0d7020bb8e761cc0b4c7514e05f90e19e2a548ceeaf0a0050625b35dcc19ff5b293093b67d304c04d55f4d980931aff1ded334485a39937ba69d39209e4ea327a720d86b6059ce0b9bcf0dbfeabe74cf458dc41903242aa785f9aa420c06664375e36512b6796d96a09d23d3ba722db5a41cc538ede0119e9a02831c591d6bb8ca3990888741324595cfddd1d79741cff82f9bac888f4f609f67174e01524b401df0b79633c23ff65b3236e77ac1bc148f85c191df050501df7c9e85c83ea4a3660eb7e39714a931ea8e996baea1382ee95bfc491f15016cc39b3276645c8531637f0f21730a149e424450e3e6ee79aa4aca5252753cf85f6283df44f31c610e6bd25da8ccaccdfa38e9931718046dbf68f8d368db41e2fffcbf5051ab1d008191ca52bcbcdbecab60ab90ac365274865c1822d3740533aadded00cd8c661467987125662938390d1a488fc42a92b4519612e9203f36ea79dd20589765db66386038fa18f18c4c0c98e449bd5fcfdbb308183a530b576dc1545c9caad38de6174d9366cad6c140dc8ecbf0db1ecc2a839e50c1a2d34400282298b0006fa117017ddd660a89448078309dbb834348f69ae340c9be9a1ad35d63f0f49caee88eb72f795580fa3bc6ac5c353b50ae47abb953f7a4e6d3a0fa524bfb4af6a410659e736d1e78115c8818d1f48e864f092dfac4890e9f31223dfec2df4e1eec9ddbf1409eecff5d65c0bad5da88842d5cfea327ccf4604b9256c2826d8ec051a4e5bc345f10496ef5441b015a96390fdb365f4644927ce0ce90ca9c4f73756a4b30f0adce4f07493d24f171208a84b4b12cf1ed05ac86b75d43ec53c392be83ab6ee63687a6f7b1e98561e7e79eede413a7b091189200f8bc512b1fe40dd10cf062408461117b7ebf1e1ceb8f590b218c514f575347cd3fd77f422a5008907a254fa0eb24b430c54a12833d75884117e8d0236f8051502ea61a5d8e41e3654d14298f9d3bace21e052dbba1751f87118cddb1b03d54cf03624183c1ee5071d8699f6b8cb610989a11b3931812967b98786a1d1e23292b3742444759858da8afc6dce0e3f826383c42839297a7a9d4d8d9e6f3f813172331535c67979ca4c0d9daf50506111627293241445f6c6e6f829fa0b4cdd0e60000000000000000000000001322304401",
        "005cbb593970cb921c53951fc81ef1616220d67dd270e14bc6af728f9cb4531a8e01583c9077b00d8b8a442d8320202f98da59eac4d0b3f56b438ee812ffc05169409d765c78998a3bb43a2c9e7d777b60f9530fb5e684cfde78e68ce3d2eb3935110f824830bd4bca7c79e2344c303811bfa4b968fa7f5229f4b36b0a362d0c5bc0ebb569751b6bb8c85967a0102359ce5ca22e79210404e4d4c15a2ef036155df371eda78e3953b58fb626489c67140c0256ffc25647c7e6c04ea24f0360f45d53680c1c1a084df18c016ca33c0314d3bc11bc1727f2f88288451f230cac2ba6b3b4fa0efe4083f985575beedceba3422d69f6fb8751836611797c51c51dd8f28c6ca339fd3ac2adbcc992f1ae82f315d0fab8cd0ae1928457bfa9f9c1e9053e4f62969af3096d341f2182dce953295a2a38c9a8c086e65c3a611965497b7b8aff2afa4c03bbdef6b32634c82c97c8b2e77ddc32c8053f4f0e7e32724a4264b83162c391af28d5efd14c15a7cf3bdde9ee556ddc318f9f4e1a5c5f7f0edc236f9d6c15878f035aac615ac0467195c6a6960c25898d597768234600eba491791ca39e6e65d6ab7ae156a80f61a2a6ffddb3fe98cae45a3a042e6625fed4d5e6f7d292b7eec21c3b1ab4c1da650acd26613f5bad9c22089431bbc9fd43876d3527b9f2c755cbe23d5f1016e2181fd74cee12bce32ce4e618ca3c98f20f5686e5d1e4d873ac5f22da44ca41ebcecd7326de0ec4e44fc93615c38b094b3cabf5ddd5117d23e54ce599aaf8f89b59d90c5a6ff1a955932886737767e52cf14e73c4c4d71d45fcbe34b71cf34961e5ddcf5e642c4ce7ef5f0dc0985b39002f5020e4e0cdb328a5f45d0eb7dd0b247d9908b8895c422f4439ff717ff407849fd74a72abe90eee98c82e468b7c597066b582c161bd91663b029cb37a3f139491e20c87708bf2523de5a57bf98c28a7164011fcc764af642989672a16fd90867084e1d0a981297133c28f2f1e46ac0dab935278e571e78f2b317cf2ce8c74fd9ff205a7fb7762582bd78af98d7fc0fd3f6c3791631bc3b70cc851ea595e76877477ed0e7e2812b24d0ffca69d4c8178dfccc203f26967d65639d0ccb1423bf544cf58e7742e9844866eaf2b0fa70a5ffa66c9cdd29fa103e3b2d6c12a2df7f01e8664c1b1befbd57202eb1acd938fd3432e422fd2a2ca69d42a5b1b95d597fc70a25b78f30899aa56edd1fd936b8b84acb2e62c4538cffc34abf00dc23b323b5a650db29a3cead8749a5542ca3cf547ab2ecd5531c34b99ab2917bf884497cffc45f8521931ddbe3c836a113cbb642e5c15973495a994d98b7350bbc2beb490d4026d15be692b5521bf15a5a94cd917cc739c828f68b1ffea252126f60e3a846375c593396f7cf07ee25466d1d6528765916f1f8e107ac528b985b5dbe790aa80623d605da215d388ba27a2d84d88cab2248da70c937b0bb0a45c476f21e24b7820890de2ef988f35c3336a6aebc437fb7de72a196acb355b65a0cea223f0851e3e6f38474269943bd1de3dc806bf584fed3fec5412cba724321642195cb9efaa7574229bfbf9f0aa08e8ad89f00fafbd533d95421cee60df87835201b417d901e0bb726dc9918f7f7fcb45997c25a96dcafb152b0b161a1caeda10e204b4b551e83e6ea37614aa2cd1925771ed60fb05e08753f8bb755aaadaebe5d073a965e02525d320cc0241ca11e03b2c7104a4dd8ed652c051a6698dd124c9337eb49044c570f6e7a51906b09094e6cc1e645e528cafab9c76606fdbc78acddb3cca91026938b6c15be60c0307884b1632134ef00022b33e4aca0627b4dcbb66ff092ff4706d37b9"
      ],
      "sequence": 4294967294
    }
  ],
  "vout": [
    {
      "value": 1.0,
      "n": 0,
      "scriptPubKey": {
        "asm": "OP_RETURN f8354d38145c7746010e9135d985226cb891401ae34e434d69166fc1c591b9c9 726a0f71b9db3d77f2634b00e0bfa4274bfb3291bf6b9e724a022edab69ed642524a2f5199fb1d57d2436b20c09f84076bdb12b19f4bbe526a220efa96bef662322a4f31f99b7d37b2230b40a0ffe4670bbb72d1ff2bde320a426e9af6de9602120a6f11d9bb5d1792032b6080dfc4472b9b52f1df0bfe122a624ebad6feb622f2ea8ff1395bbdf772e3cb80603f24a7cb7bb2113feb1ef2ca82ae5a361e56c2d2caafd1197b9dd752c3eba0401f0487eb5b92311fcb3ed2eaa28e7a163e76e2b2aacfb1791bfdb732a38bc0207f64e78b3bf2517fab5eb28ac2ee1a765e1682928aef91593bdd971283abe0005f44c7ab1bd2715f8b7e92aae2ce3a567e36a2726a0f71b9db3d77f2634b00e0bfa4274bfb3291bf6b9e724a022edab69ed642524a2f5199fb1d57d2436b20c09f84076bdb12b19f4bbe526a220efa96bef662322a4f31f99b7d37b2230b40a0ffe4670bbb72d1ff2bde320a426e9af6de9602120a6f11d9bb5d1792032b6080dfc4472b9b52f1df0bfe122a624ebad6feb622f2ea8ff1395bbdf772e3cb80603f24a7cb7bb2113feb1ef2ca82ae5a361e56c2d2caafd1197b9dd752c3eba0401f0487eb5b92311fcb3ed2eaa28e7a163e76e2b2aacfb1791bfdb732a38bc0207f64e78b3bf2517fab5eb28ac2ee1a765e1682928aef91593bdd971283abe0005f44c7ab1bd2715f8b7e92aae2ce3a567e36a2726a0f71b9db3d77f2634b00e0bfa4274bfb3291bf6b9e724a022edab69ed642524a2f5199fb1d57d2436b20c09f84076bdb12b19f4bbe526a220efa96bef662322a4f31f99b7d37b2230b40a0ffe4670bbb72d1ff2bde320a426e9af6de9602120a6f11d9bb5d1792032b6080dfc4472b9b52f1df0bfe122a624ebad6feb622f2ea8ff1395bbdf772e3cb80603f24a7cb7bb2113feb1ef2ca82ae5a361e56c2d2caafd1197b9dd752c3eba0401f0487eb5b92311fcb3ed2eaa28e7a163e76e2b2aacfb1791bfdb732a38bc0207f64e78b3bf2517fab5eb28ac2ee1a765e1682928aef91593bdd971283abe0005f44c7ab1bd2715f8b7e92aae2ce3a567e36a2726a0f71b9db3d77f2634b00e0bfa4274bfb3291bf6b9e724a022edab69ed642524a2f5199fb1d57d2436b20c09f84076bdb12b19f4bbe526a220efa96bef662322a4f31f99b7d37b2230b40a0ffe4670bbb72d1ff2bde320a426e9af6de9602120a6f11d9bb5d1792032b6080dfc4472b9b52f1df0bfe122a624ebad6feb622f2ea8ff1395bbdf772e3cb80603f24a7cb7bb2113feb1ef2ca82ae5a361e56c2d2caafd1197b9dd752c3eba0401f0487eb5b92311fcb3ed2eaa28e7a163e76e2b2aacfb1791bfdb732a38bc0207f64e78b3bf2517fab5eb28ac2ee1a765e1682928aef91593bdd971283abe0005f44c7ab1bd2715f8b7e92aae2ce3a567e36a2726a0f71b9db3d77f2634b00e0bfa4274bfb3291bf6b9e724a022edab69ed642524a2f5199fb1d57d2436b20c09f84076bdb12b19f4bbe526a220efa96bef662322a4f31f99b7d37b2230b40a0ffe4670bbb72d1ff2bde320a426e9af6de9602120a6f11d9bb5d1792032b6080dfc4472b9b52f1df0bfe122a624ebad6feb622f2ea8ff1395bbdf772e3cb80603f24a7ac4633dd2599b1b40d87e4f8564ad53f82e43c1c53ccc99442a37f23ee99b039",
        "hex": "6a20f8354d38145c7746010e9135d985226cb891401ae34e434d69166fc1c591b9c94db004726a0f71b9db3d77f2634b00e0bfa4274bfb3291bf6b9e724a022edab69ed642524a2f5199fb1d57d2436b20c09f84076bdb12b19f4bbe526a220efa96bef662322a4f31f99b7d37b2230b40a0ffe4670bbb72d1ff2bde320a426e9af6de9602120a6f11d9bb5d1792032b6080dfc4472b9b52f1df0bfe122a624ebad6feb622f2ea8ff1395bbdf772e3cb80603f24a7cb7bb2113feb1ef2ca82ae5a361e56c2d2caafd1197b9dd752c3eba0401f0487eb5b92311fcb3ed2eaa28e7a163e76e2b2aacfb1791bfdb732a38bc0207f64e78b3bf2517fab5eb28ac2ee1a765e1682928aef91593bdd971283abe0005f44c7ab1bd2715f8b7e92aae2ce3a567e36a2726a0f71b9db3d77f2634b00e0bfa4274bfb3291bf6b9e724a022edab69ed642524a2f5199fb1d57d2436b20c09f84076bdb12b19f4bbe526a220efa96bef662322a4f31f99b7d37b2230b40a0ffe4670bbb72d1ff2bde320a426e9af6de9602120a6f11d9bb5d1792032b6080dfc4472b9b52f1df0bfe122a624ebad6feb622f2ea8ff1395bbdf772e3cb80603f24a7cb7bb2113feb1ef2ca82ae5a361e56c2d2caafd1197b9dd752c3eba0401f0487eb5b92311fcb3ed2eaa28e7a163e76e2b2aacfb1791bfdb732a38bc0207f64e78b3bf2517fab5eb28ac2ee1a765e1682928aef91593bdd971283abe0005f44c7ab1bd2715f8b7e92aae2ce3a567e36a2726a0f71b9db3d77f2634b00e0bfa4274bfb3291bf6b9e724a022edab69ed642524a2f5199fb1d57d2436b20c09f84076bdb12b19f4bbe526a220efa96bef662322a4f31f99b7d37b2230b40a0ffe4670bbb72d1ff2bde320a426e9af6de9602120a6f11d9bb5d1792032b6080dfc4472b9b52f1df0bfe122a624ebad6feb622f2ea8ff1395bbdf772e3cb80603f24a7cb7bb2113feb1ef2ca82ae5a361e56c2d2caafd1197b9dd752c3eba0401f0487eb5b92311fcb3ed2eaa28e7a163e76e2b2aacfb1791bfdb732a38bc0207f64e78b3bf2517fab5eb28ac2ee1a765e1682928aef91593bdd971283abe0005f44c7ab1bd2715f8b7e92aae2ce3a567e36a2726a0f71b9db3d77f2634b00e0bfa4274bfb3291bf6b9e724a022edab69ed642524a2f5199fb1d57d2436b20c09f84076bdb12b19f4bbe526a220efa96bef662322a4f31f99b7d37b2230b40a0ffe4670bbb72d1ff2bde320a426e9af6de9602120a6f11d9bb5d1792032b6080dfc4472b9b52f1df0bfe122a624ebad6feb622f2ea8ff1395bbdf772e3cb80603f24a7cb7bb2113feb1ef2ca82ae5a361e56c2d2caafd1197b9dd752c3eba0401f0487eb5b92311fcb3ed2eaa28e7a163e76e2b2aacfb1791bfdb732a38bc0207f64e78b3bf2517fab5eb28ac2ee1a765e1682928aef91593bdd971283abe0005f44c7ab1bd2715f8b7e92aae2ce3a567e36a2726a0f71b9db3d77f2634b00e0bfa4274bfb3291bf6b9e724a022edab69ed642524a2f5199fb1d57d2436b20c09f84076bdb12b19f4bbe526a220efa96bef662322a4f31f99b7d37b2230b40a0ffe4670bbb72d1ff2bde320a426e9af6de9602120a6f11d9bb5d1792032b6080dfc4472b9b52f1df0bfe122a624ebad6feb622f2ea8ff1395bbdf772e3cb80603f24a7ac4633dd2599b1b40d87e4f8564ad53f82e43c1c53ccc99442a37f23ee99b039",
        "type": "nulldata"
      }
    },
    {
      "value": 499986.7803,
      "n": 1,
      "scriptPubKey": {
        "asm": "1 dc724831502db07c452155ef235d1731c52ea0234c3471eebd71556bb5155e7b",
        "hex": "5120dc724831502db07c452155ef235d1731c52ea0234c3471eebd71556bb5155e7b",
        "reqSigs": 1,
        "type": "witness_v1_scripthash",
        "addresses": [
          "3QJmnh"
        ]
      }
    }
  ],
  "blockhash": "fed18006ccdab590a9e00afae0c126c0756e5b686d02c0375b028c4c6af5cb31",
  "confirmations": 1,
  "time": 1764177489,
  "blocktime": 1764177489
}