{
  "hex": "01000000000101c66214b9598b85f4c9ef38c4f113764f953216c2df92b82a44ff2b7e08d4eff80000000000feffffff02c0cc030f792d00002251206a449644dc6f584bc27f363ba826f344753091172c6fa42e83d6642fa3def5a200e1f50500000000fdd5046a208550302b185ca2df7b47c4ae4ad4eb7d25321c939d13fb9a59f24a944a8935f34db0048488bb1e163294c73e313784dcd7c5d65ce3b6e25f47b538eb1122abf9995531a4a89b3e3612b4e71e1117a4fcf7e5f67cc396c27f679518cb31028bd9b97511c4c8fb5e5672d4877e7177c49c9785961ca3f6a21f07f578ab5162ebb9d91571e4e8db7e7652f4a75e5157e4bcb7a5b63c83d6823f27d5588b7142cb99f9355104083b9e96b21447beb1b7045c574556dc633662dfc735b86b91a22b7919d5b124281bbeb69234679e9197247c776576fc431642ffe715984bb1820b5939f59144487bded6f25407fef1f7441c1705169c2376229f8775f82bd1e26b395995f164685bfef6d27427ded1d7643c372536bc035602bfa755d80bf1c24b1979b5d18488bb1e163294c73e313784dcd7c5d65ce3b6e25f47b538eb1122abf9995531a4a89b3e3612b4e71e1117a4fcf7e5f67cc396c27f679518cb31028bd9b97511c4c8fb5e5672d4877e7177c49c9785961ca3f6a21f07f578ab5162ebb9d91571e4e8db7e7652f4a75e5157e4bcb7a5b63c83d6823f27d5588b7142cb99f9355104083b9e96b21447beb1b7045c574556dc633662dfc735b86b91a22b7919d5b124281bbeb69234679e9197247c776576fc431642ffe715984bb1820b5939f59144487bded6f25407fef1f7441c1705169c2376229f8775f82bd1e26b395995f164685bfef6d27427ded1d7643c372536bc035602bfa755d80bf1c24b1979b5d18488bb1e163294c73e313784dcd7c5d65ce3b6e25f47b538eb1122abf9995531a4a89b3e3612b4e71e1117a4fcf7e5f67cc396c27f679518cb31028bd9b97511c4c8fb5e5672d4877e7177c49c9785961ca3f6a21f07f578ab5162ebb9d91571e4e8db7e7652f4a75e5157e4bcb7a5b63c83d6823f27d5588b7142cb99f9355104083b9e96b21447beb1b7045c574556dc633662dfc735b86b91a22b7919d5b124281bbeb69234679e9197247c776576fc431642ffe715984bb1820b5939f59144487bded6f25407fef1f7441c1705169c2376229f8775f82bd1e26b395995f164685bfef6d27427ded1d7643c372536bc035602bfa755d80bf1c24b1979b5d18488bb1e163294c73e313784dcd7c5d65ce3b6e25f47b538eb1122abf9995531a4a89b3e3612b4e71e1117a4fcf7e5f67cc396c27f679518cb31028bd9b97511c4c8fb5e5672d4877e7177c49c9785961ca3f6a21f07f578ab5162ebb9d91571e4e8db7e7652f4a75e5157e4bcb7a5b63c83d6823f27d5588b7142cb99f9355104083b9e96b21447beb1b7045c574556dc633662dfc735b86b91a22b7919d5b124281bbeb69234679e9197247c776576fc431642ffe715984bb1820b5939f59144487bded6f25407fef1f7441c1705169c2376229f8775f82bd1e26b395995f164685bfef6d27427ded1d7643c372536bc035602bfa755d80bf1c24b1979b5d18488bb1e163294c73e313784dcd7c5d65ce3b6e25f47b538eb1122abf9995531a4a89b3e3612b4e71e1117a4fcf7e5f67cc396c27f679518cb31028bd9b97511c4c8fb5e5672d4877e7177c49c9785961ca3f6a21f07f578ab5162ebb9d91571e4e8db7e7652f4a75e5157e4bcb7a5b63c83d6823f27d5588b7142cb99f9355104083b9e96b21447beb1b7045c5745560b34d211d8e3b21b2f7a7647eb479e62e03bdea19d01ecf73faf3193b2956e4f02fd7509811a0ba80afb205e27441583f199fd9c7289aa4fd6639d24e2a64fa435c885f575191bc20789ed40e6feb5e625882a0a2cf12b61e37f25482ff473da4c09e080472edde44edef4a8d44c5a6f1c328e2a8e97060cdbde509d13a93e31cb010bf2b2b8e8718951bb3da8e7d820a9f6d2cae705b882e768208593a728fea63ffde954e134db5b8b6d1638936b92786328671613e1918422723e23d6a3cd977d38549b1e3957c6342a5f2ea30a81a82334abc276f04f700a07aaafa1c8c4ea28b2f46845f3b743fcfde366ea2f82ba5d99a82abcb2dd94ace7646c2f3aa6d8ac65d268870b25243a4e9abbbc20f55bbe3afdba71a650448693c27f8cad0bcb6a2c36f9583c059f76d5b29c38b84d48e7e1d35d05c23c845a5119a997999263b21841f00335a3773b3c45f1967732e7ba7c64c8ecd6db7307b6d9b03be082c8eabd41e6a9a9c8915c1cffa9b13bfd74762dcfa0404d9a271def6e3d88fd7ba61a4bc67a1b58b1abbd13660fa7f9d9759a0597350906cfde0eea21016dcd00fe50265584647f96a6693bd563679a97775fe0844da0e8070bb224f20b8362aae69da792653a996385837553e2e6435c3aff447544d8336abe1c43fd4487b59e1c1ccb444c9ad1565c6f10458867c44662a03a59bd100f5841ed026a2874cdcad5aaa502b9cde147a95926015ad5e21635ec0273e355c2aaaeac1fbc98ee508ad4dbbf1486fd7f01d738b71d46e99241558c58c814745cd33f45374c4340e1b79394989e8909139c37e6dca6d930149588e6ae9094a58a9e7544b63028d076bb6f4e9d6ff3ea11f9ebee4930cebd174d83d34ac1863cd7c7060d0e1ab118aafcc4b3893ce77cfc4166ab4968fbc3f1dc17967ab0b31f13cc56b37f3fd02df3a5298b52dce50888dd5123c1f7a7d2252c2e8580830b6a04d09de1b4f65eedc8126ee241514e1d5b497015a5155528e2457949c71f767fa1ba5108dc8bf76193bb467292a389519fc82ef9e1f50d2111352ad935a26d008d024f89226bba5d2431b4cc1554e6f5ac184859b1e99d3d12ae2d96db65623122eb4e1a9ed886c85b331631ba1903b9b45e48106e92ad3502f36757d85a8e39a06d99ef83a556742a17d7930e8e11b64c439dfdc5fbbe29375c693ebfcaa20cf56768a0c8df9bc94baf6d7401200469d73184e2a2ba5c263c35c2978b83416ac207450bfa21d1bb25d4b63ecf811cf15d8772405301535cfa139c4597b258015fd3621d537ba5eb070fc7382b52aa6ebeeaafcff15d828b9c0bbb59bcfa25d2fc3d85e5c1c34ee70cb732012dddaa3dddaf81f54bf374b392b9a63a57651afc3c5e3ef5b219f5493be1b05a48fdf28895a5279bf933fdcddb98dbc6052f929ab071d478507b4c0cd0107dd1c62b11cf16e88feb61a5e5c2e3313e43b008a256e2b102d94776d224115b5d5d1719be144345e7fe1919dda633afdc3d403304a9ab82c5c6fae0637efb0d6890ac179058780b4a5be710a754f6265984e09cda1b649854f9dce8f64167870893af7af5d2cfa2cd25f8f146f0d2b4a3f0aadc1e6f5a6f5975859dc3cbd4b47e643c177a2a6a7f6579d62748b324e30411a2abd788f353b691599d65dfa876fbae85fbd333867b0c730342ccd0e2b0fe8b327724f4e1ea9b852d830fb5abb080a44f19709960dd7f0fa1cb81507bff29ca0cdbc59d5f710b0e708ed42cc636655b39546a97f7703bf04aafc8aee388690fed55eaebe8ed650dc06d6d15cf400865cd9a521709ac4de32cb90a6b11a1d9ebeea2ab793b697016970e11810ea4cee565e2535092922d9eed8be376aeaf2e6e52eb219cb5d521b592857d09ec5b173a8aede92f9c64668810da98b9adaa4e2fe68fd2193b63f181140085fc39c770dd8d905d0c978a26dda8f1687aa939f9513e522dc0c4a1b49c48dd1308074f824990fd09cebcc04dd1c602c478d2c175fe961c41c94b3ea881f0a3db9e7dccc0ce969b18ee944c0057341eee51fd6a1ef39aac945c7cc2b9d1cec62f8b4a8e7e253ccf2a7ac9b39104f99cfdaac541ce7dc1d933c19f327684e4be7d304542b7bfccc5a86816e46497d5d1cba1de26c12a6f526c21ae6017a5bcdc149085f60a5bbd6f8b3fef3b547d973e2b4be9f8c0889d558a83acd2d8d4f9a128dbff75d13b3445881c525396482b9cbeed177c24f59db65c5206791a041a7e85107468c944a28916f7bdf44486ac80cb48c6ebdceca4cf5b16bc6fa775fa5639520ff519c7158a9fd2c1ff01c9b66c5a4ff9de84d6a71b0c94530859f8c9989b48ad5ae89833c454a44d9a7f4823ae20ec92b51849caa1d933a18f4888e9948c5f5798a3ba0e2445970f851b16018b957f2a0901d0d713d74409523e3c6149f1b3feb1230ba7b6300d231bb8d0ecac2c059fe82686a5f59ddcfc32295b0cb9ecb4f1b13da9b7bcb1d6b9809fd8c196f4347b048981f095a6822b4962a2166fcb3fef9bb4223f19e14f252c42d18638e346e32fdb06c20e91bca30ef06c8c586913a07106176c1798b7e917e76a8ca9d91a7f1bf6d7b648e0bf3a76eb26d90e25d7430302f865918ea3827bdc15c11b571e553bf7fc54b60cb3b49974d83a7909dfedc3ca9a735fef1ebadefa259307432d63dfbabc70f5540d05380a04e2f5b4d44726f3b86f0685aa6e118d244a4ac38e23126e0490acb0bc884aa212999ac8cc0e84ea8d0a30a2cc65717508286efb29773ea2be6bfe40ab7a209633818ade58d8234f003af9498af8c6e96d693c34a2630135b4d6e800f089eacd387b2ea856784b26ea5c8871abef052a0d4652960217573a24a254ffaa921f8b057d3a8bc7c99933d64141b3058a87f0360e9b69c3353bdfbc5fb3ccfce64f8da6873082c654768e110881a163dd03006478156b43eff1a87bfc0ea82f79110cc168103d619f0aab4c7944fb67731a9288a7e736878395c9dc1360787427362e7b7dddee80e73460807c6684b3517509db2b84ebc54a74c202b458ebb6dc9d06ed500e1aaa69c5dc56b8f9940fe7562e5bc3c9e528d153af9d6b25e2a6b8560e1e37d15a159bba75e83926f4bdc05b29d71546ca3fcad42fc8463c369640070b3ec75edbfdefbbef340bc124a9bde0db4edb0ddb1aa4c92d86b3811e1bce4349c9c66a3e32544cf926129147bc518074e0b783f1205679ab5c04e7c06f6c0b19a509730f6fa608e915b2d50d4c8b74c72f8e53a3418c2fec6bf3fcfd6a75394023923c7f7f268e4c8e4c1a8fc2af8e0a4102c670cdec8a39d959750241ddc162b894443b83b4288b40893d020e1e40506378868c9cb2bac9d3d8e6f31431686ca3a5b4b9d6d7f5003144454a5c6162808aaababfe2e4edfbfc080a0f15282c3438484c596369778a8dd6f000000000000000000000000000000000111c2e4001fd21050005dbfcee4d818ebb3b3ad4249804fa5f40ae1ff4859773cb000e9f7cf7abc864c7a653f058e2192f7bb9aef5a579200e8389968787e6504c3fc3b555f2c9bc26c3c2c0d376823059339408723c68deee32ac433eacf046fd889e3b5cdd556868fe10033794d4891199b6550a3255891050f3a069d1491cf9129aea7a047b8ea1e62681a88faf2fb73e31ce6c46a538c5614c3907da56e636180f0409107b7f580f08e56eb3675c63b54e899a36cbe3c206847f8af5535bbdd430efea558fc2cb4b662093199a71358b1f3046933a00534cf00729ac2b04d5503c39080661b9383c327f3aef5a43112c99863513bd82ae60edb036c421f538e10258022b4a2fe7138cae29f4b3d44aac06a22d40164db3167e3c0abc591bcea7027ffbe66a258927ea9d23b214444fc2cf7e35eb072962990a4266a9865c6d8762968913d1f9058e6b1ea38afefbd535d40e66d3f7d611dcc435953ed4ee5d8a0eb7cb36b86371c532bfafe34ef7471a3da28ec4148d50d250abd0a4f7ca994de8c249ef0b3ba55a06a9e25f6a9d477e3f7a9654ad095894d4191109de2df26494142e60281c8e53cb96310eb4a26417f9c072cb2f87f4658db48e96fdbf422713d8141a83482ec22f0c32ddeccec49e0aa8138a4b4505f6ab37dab17413de5ee77a15210f6cde9d581f612fe9871102abc8e371e178a91bb2e2fe696cb89450d35fa68dd7f2ec17559b5acc5bb7133b1ebd55ef4b5236a41d0771c914a53c4fca885aa97f6a353a7a2da8347497fb71b2e9042366253ab34d15647d4af37ed42557bbe33ab66b01564749b35d5c8227acdbf5ee90f40adc592be02328564fd17dc22c62693ec522e3ca1a5efa1ad9b4698d4b2c09a642ef3e43bfcce4445fc3aa0228c364603251536262377ab8946a18d7accb23455bfb93083a5e30015e60616b47e12247195ca4533ab1d06fdf88ccb72b1c3a64ad87c53976c590a5e80f42f8a35cb2faa35a4ce155a826fc73d85e7b71ed35674efb65d57462a2e63430637520ec22ffce7e8e9721210507c516422fcc05e587a94666433a8805bfc0c3983240c52149f25ea4a235e47fb00702bc2a7fe04ed131d35983f5ac3f0a81b35f4d2bb439b043c998926f77abbd38aba2d29fc1e2ef62249e3535b08a249ac08e5be36b94a3ba7e713c19769e1b5c71e00ab4a5fff6a480301c230c78429433f9d37e758248493250d45dd6deed73a8b95fe78ebf668a96f6da2124618c0320a50ca44e472184ab87f6e0d63a77e3a188d289fb99181068b8b233715e312ac406a6ca4b6808f43ca8ac9cced626a978c66d6611a52eb6da258d738ee9b16c2a12e616b45044fc33e028e69f25bc69f23d48176d08db1d9c60694f7e750413749a2688f8282b66362feb8ef1e1728603c60085920b0b5cf5f9028e2fa7f51cd33f9b18a602d5a4ada2edcbb1ee92662ffdc1ace549149c3035de535e7687f3447d1f5f468f55e49f6bb3aa42346f6ba649e821bbfa02e5add4f552003e84d52ea179be47d6329aec69ac287a435972964313d412d3195faea5b95abb3eca4378d0f822f7eb2e0c42d78b14cee8e22d117a8dd815b35b2af2da7c9c87cadbe3fdea72e7aa8710b227bd6edc24a43e02e9a3d4d9dc98b3ddae014fa3af55799816ac13f61aecb7d59353dc573ca59ae2bff3b60d2de51663f2ad6422843d19622405c50fcbc74b279570a130d5e0a398b03599b788b2788fd1d0d95ea4fa8d61d8b9f8a9cbc25e21399ab4aacbcfb0f473b51495aea107307b88e1ec31b4ab63d830f6efb78fdb91a14931db3b8a30d9366dab4a3c6d8d398d7a507af9d326b01e001a1ca50d4f0576000000",
  "txid": "1a68863ae78aaeb02dfb410919e1fc99a64e70739ad97d2866048831b56bcd64",
  "hash": "1d13cf8d0ddbaec4ee0375f92aa19868d95832cf1f4d0acbc04a285c903be418",
  "size": 5085,
  "vsize": 2278,
  "version": 1,
  "locktime": 118,
  "vin": [
    {
      "txid": "f8efd4087e2bff442ab892dfc21632954f7613f1c438efc9f4858b59b91462c6",
      "vout": 0,
      "scriptSig": {
        "asm": "",
        "hex": ""
      },
      "txinwitness": [
        "811a0ba80afb205e27441583f199fd9c7289aa4fd6639d24e2a64fa435c885f575191bc20789ed40e6feb5e625882a0a2cf12b61e37f25482ff473da4c09e080472edde44edef4a8d44c5a6f1c328e2a8e97060cdbde509d13a93e31cb010bf2b2b8e8718951bb3da8e7d820a9f6d2cae705b882e768208593a728fea63ffde954e134db5b8b6d1638936b92786328671613e1918422723e23d6a3cd977d38549b1e3957c6342a5f2ea30a81a82334abc276f04f700a07aaafa1c8c4ea28b2f46845f3b743fcfde366ea2f82ba5d99a82abcb2dd94ace7646c2f3aa6d8ac65d268870b25243a4e9abbbc20f55bbe3afdba71a650448693c27f8cad0bcb6a2c36f9583c059f76d5b29c38b84d48e7e1d35d05c23c845a5119a997999263b21841f00335a3773b3c45f1967732e7ba7c64c8ecd6db7307b6d9b03be082c8eabd41e6a9a9c8915c1cffa9b13bfd74762dcfa0404d9a271def6e3d88fd7ba61a4bc67a1b58b1abbd13660fa7f9d9759a0597350906cfde0eea21016dcd00fe50265584647f96a6693bd563679a97775fe0844da0e8070bb224f20b8362aae69da792653a996385837553e2e6435c3aff447544d8336abe1c43fd4487b59e1c1ccb444c9ad1565c6f10458867c44662a03a59bd100f5841ed026a2874cdcad5aaa502b9cde147a95926015ad5e21635ec0273e355c2aaaeac1fbc98ee508ad4dbbf1486fd7f01d738b71d46e99241558c58c814745cd33f45374c4340e1b79394989e8909139c37e6dca6d930149588e6ae9094a58a9e7544b63028d076bb6f4e9d6ff3ea11f9ebee4930cebd174d83d34ac1863cd7c7060d0e1ab118aafcc4b3893ce77cfc4166ab4968fbc3f1dc17967ab0b31f13cc56b37f3fd02df3a5298b52dce50888dd5123c1f7a7d2252c2e8580830b6a04d09de1b4f65eedc8126ee241514e1d5b497015a5155528e2457949c71f767fa1ba5108dc8bf76193bb467292a389519fc82ef9e1f50d2111352ad935a26d008d024f89226bba5d2431b4cc1554e6f5ac184859b1e99d3d12ae2d96db65623122eb4e1a9ed886c85b331631ba1903b9b45e48106e92ad3502f36757d85a8e39a06d99ef83a556742a17d7930e8e11b64c439dfdc5fbbe29375c693ebfcaa20cf56768a0c8df9bc94baf6d7401200469d73184e2a2ba5c263c35c2978b83416ac207450bfa21d1bb25d4b63ecf811cf15d8772405301535cfa139c4597b258015fd3621d537ba5eb070fc7382b52aa6ebeeaafcff15d828b9c0bbb59bcfa25d2fc3d85e5c1c34ee70cb732012dddaa3dddaf81f54bf374b392b9a63a57651afc3c5e3ef5b219f5493be1b05a48fdf28895a5279bf933fdcddb98dbc6052f929ab071d478507b4c0cd0107dd1c62b11cf16e88feb61a5e5c2e3313e43b008a256e2b102d94776d224115b5d5d1719be144345e7fe1919dda633afdc3d403304a9ab82c5c6fae0637efb0d6890ac179058780b4a5be710a754f6265984e09cda1b649854f9dce8f64167870893af7af5d2cfa2cd25f8f146f0d2b4a3f0aadc1e6f5a6f5975859dc3cbd4b47e643c177a2a6a7f6579d62748b324e30411a2abd788f353b691599d65dfa876fbae85fbd333867b0c730342ccd0e2b0fe8b327724f4e1ea9b852d830fb5abb080a44f19709960dd7f0fa1cb81507bff29ca0cdbc59d5f710b0e708ed42cc636655b39546a97f7703bf04aafc8aee388690fed55eaebe8ed650dc06d6d15cf400865cd9a521709ac4de32cb90a6b11a1d9ebeea2ab793b697016970e11810ea4cee565e2535092922d9eed8be376aeaf2e6e52eb219cb5d521b592857d09ec5b173a8aede92f9c64668810da98b9adaa4e2fe68fd2193b63f181140085fc39c770dd8d905d0c978a26dda8f1687aa939f9513e522dc0c4a1b49c48dd1308074f824990fd09cebcc04dd1c602c478d2c175fe961c41c94b3ea881f0a3db9e7dccc0ce969b18ee944c0057341eee51fd6a1ef39aac945c7cc2b9d1cec62f8b4a8e7e253ccf2a7ac9b39104f99cfdaac541ce7dc1d933c19f327684e4be7d304542b7bfccc5a86816e46497d5d1cba1de26c12a6f526c21ae6017a5bcdc149085f60a5bbd6f8b3fef3b547d973e2b4be9f8c0889d558a83acd2d8d4f9a128dbff75d13b3445881c525396482b9cbeed177c24f59db65c5206791a041a7e85107468c944a28916f7bdf44486ac80cb48c6ebdceca4cf5b16bc6fa775fa5639520ff519c7158a9fd2c1ff01c9b66c5a4ff9de84d6a71b0c94530859f8c9989b48ad5ae89833c454a44d9a7f4823ae20ec92b51849caa1d933a18f4888e9948c5f5798a3ba0e2445970f851b16018b957f2a0901d0d713d74409523e3c6149f1b3feb1230ba7b6300d231bb8d0ecac2c059fe82686a5f59ddcfc32295b0cb9ecb4f1b13da9b7bcb1d6b9809fd8c196f4347b048981f095a6822b4962a2166fcb3fef9bb4223f19e14f252c42d18638e346e32fdb06c20e91bca30ef06c8c586913a07106176c1798b7e917e76a8ca9d91a7f1bf6d7b648e0bf3a76eb26d90e25d7430302f865918ea3827bdc15c11b571e553bf7fc54b60cb3b49974d83a7909dfedc3ca9a735fef1ebadefa259307432d63dfbabc70f5540d05380a04e2f5b4d44726f3b86f0685aa6e118d244a4ac38e23126e0490acb0bc884aa212999ac8cc0e84ea8d0a30a2cc65717508286efb29773ea2be6bfe40ab7a209633818ade58d8234f003af9498af8c6e96d693c34a2630135b4d6e800f089eacd387b2ea856784b26ea5c8871abef052a0d4652960217573a24a254ffaa921f8b057d3a8bc7c99933d64141b3058a87f0360e9b69c3353bdfbc5fb3ccfce64f8da6873082c654768e110881a163dd03006478156b43eff1a87bfc0ea82f79110cc168103d619f0aab4c7944fb67731a9288a7e736878395c9dc1360787427362e7b7dddee80e73460807c6684b3517509db2b84ebc54a74c202b458ebb6dc9d06ed500e1aaa69c5dc56b8f9940fe7562e5bc3c9e528d153af9d6b25e2a6b8560e1e37d15a159bba75e83926f4bdc05b29d71546ca3fcad42fc8463c369640070b3ec75edbfdefbbef340bc124a9bde0db4edb0ddb1aa4c92d86b3811e1bce4349c9c66a3e32544cf926129147bc518074e0b783f1205679ab5c04e7c06f6c0b19a509730f6fa608e915b2d50d4c8b74c72f8e53a3418c2fec6bf3fcfd6a75394023923c7f7f268e4c8e4c1a8fc2af8e0a4102c670cdec8a39d959750241ddc162b894443b83b4288b40893d020e1e40506378868c9cb2bac9d3d8e6f31431686ca3a5b4b9d6d7f5003144454a5c6162808aaababfe2e4edfbfc080a0f15282c3438484c596369778a8dd6f000000000000000000000000000000000111c2e4001",
        "0005dbfcee4d818ebb3b3ad4249804fa5f40ae1ff4859773cb000e9f7cf7abc864c7a653f058e2192f7bb9aef5a579200e8389968787e6504c3fc3b555f2c9bc26c3c2c0d376823059339408723c68deee32ac433eacf046fd889e3b5cdd556868fe10033794d4891199b6550a3255891050f3a069d1491cf9129aea7a047b8ea1e62681a88faf2fb73e31ce6c46a538c5614c3907da56e636180f0409107b7f580f08e56eb3675c63b54e899a36cbe3c206847f8af5535bbdd430efea558fc2cb4b662093199a71358b1f3046933a00534cf00729ac2b04d5503c39080661b9383c327f3aef5a43112c99863513bd82ae60edb036c421f538e10258022b4a2fe7138cae29f4b3d44aac06a22d40164db3167e3c0abc591bcea7027ffbe66a258927ea9d23b214444fc2cf7e35eb072962990a4266a9865c6d8762968913d1f9058e6b1ea38afefbd535d40e66d3f7d611dcc435953ed4ee5d8a0eb7cb36b86371c532bfafe34ef7471a3da28ec4148d50d250abd0a4f7ca994de8c249ef0b3ba55a06a9e25f6a9d477e3f7a9654ad095894d4191109de2df26494142e60281c8e53cb96310eb4a26417f9c072cb2f87f4658db48e96fdbf422713d8141a83482ec22f0c32ddeccec49e0aa8138a4b4505f6ab37dab17413de5ee77a15210f6cde9d581f612fe9871102abc8e371e178a91bb2e2fe696cb89450d35fa68dd7f2ec17559b5acc5bb7133b1ebd55ef4b5236a41d0771c914a53c4fca885aa97f6a353a7a2da8347497fb71b2e9042366253ab34d15647d4af37ed42557bbe33ab66b01564749b35d5c8227acdbf5ee90f40adc592be02328564fd17dc22c62693ec522e3ca1a5efa1ad9b4698d4b2c09a642ef3e43bfcce4445fc3aa0228c364603251536262377ab8946a18d7accb23455bfb93083a5e30015e60616b47e12247195ca4533ab1d06fdf88ccb72b1c3a64ad87c53976c590a5e80f42f8a35cb2faa35a4ce155a826fc73d85e7b71ed35674efb65d57462a2e63430637520ec22ffce7e8e9721210507c516422fcc05e587a94666433a8805bfc0c3983240c52149f25ea4a235e47fb00702bc2a7fe04ed131d35983f5ac3f0a81b35f4d2bb439b043c998926f77abbd38aba2d29fc1e2ef62249e3535b08a249ac08e5be36b94a3ba7e713c19769e1b5c71e00ab4a5fff6a480301c230c78429433f9d37e758248493250d45dd6deed73a8b95fe78ebf668a96f6da2124618c0320a50ca44e472184ab87f6e0d63a77e3a188d289fb99181068b8b233715e312ac406a6ca4b6808f43ca8ac9cced626a978c66d6611a52eb6da258d738ee9b16c2a12e616b45044fc33e028e69f25bc69f23d48176d08db1d9c60694f7e750413749a2688f8282b66362feb8ef1e1728603c60085920b0b5cf5f9028e2fa7f51cd33f9b18a602d5a4ada2edcbb1ee92662ffdc1ace549149c3035de535e7687f3447d1f5f468f55e49f6bb3aa42346f6ba649e821bbfa02e5add4f552003e84d52ea179be47d6329aec69ac287a435972964313d412d3195faea5b95abb3eca4378d0f822f7eb2e0c42d78b14cee8e22d117a8dd815b35b2af2da7c9c87cadbe3fdea72e7aa8710b227bd6edc24a43e02e9a3d4d9dc98b3ddae014fa3af55799816ac13f61aecb7d59353dc573ca59ae2bff3b60d2de51663f2ad6422843d19622405c50fcbc74b279570a130d5e0a398b03599b788b2788fd1d0d95ea4fa8d61d8b9f8a9cbc25e21399ab4aacbcfb0f473b51495aea107307b88e1ec31b4ab63d830f6efb78fdb91a14931db3b8a30d9366dab4a3c6d8d398d7a507af9d326b01e001a1ca50d4f05"
      ],
      "sequence": 4294967294
    }
  ],
  "vout": [
    {
      "value": 499979.662,
      "n": 0,
      "scriptPubKey": {
        "asm": "1 6a449644dc6f584bc27f363ba826f344753091172c6fa42e83d6642fa3def5a2",
        "hex": "51206a449644dc6f584bc27f363ba826f344753091172c6fa42e83d6642fa3def5a2",
        "reqSigs": 1,
        "type": "witness_v1_scripthash",
        "addresses": [
          "3QJmnh"
        ]
      }
    },
    {
      "value": 1.0,
      "n": 1,
      "scriptPubKey": {
        "asm": "OP_RETURN 8550302b185ca2df7b47c4ae4ad4eb7d25321c939d13fb9a59f24a944a8935f3 8488bb1e163294c73e313784dcd7c5d65ce3b6e25f47b538eb1122abf9995531a4a89b3e3612b4e71e1117a4fcf7e5f67cc396c27f679518cb31028bd9b97511c4c8fb5e5672d4877e7177c49c9785961ca3f6a21f07f578ab5162ebb9d91571e4e8db7e7652f4a75e5157e4bcb7a5b63c83d6823f27d5588b7142cb99f9355104083b9e96b21447beb1b7045c574556dc633662dfc735b86b91a22b7919d5b124281bbeb69234679e9197247c776576fc431642ffe715984bb1820b5939f59144487bded6f25407fef1f7441c1705169c2376229f8775f82bd1e26b395995f164685bfef6d27427ded1d7643c372536bc035602bfa755d80bf1c24b1979b5d18488bb1e163294c73e313784dcd7c5d65ce3b6e25f47b538eb1122abf9995531a4a89b3e3612b4e71e1117a4fcf7e5f67cc396c27f679518cb31028bd9b97511c4c8fb5e5672d4877e7177c49c9785961ca3f6a21f07f578ab5162ebb9d91571e4e8db7e7652f4a75e5157e4bcb7a5b63c83d6823f27d5588b7142cb99f9355104083b9e96b21447beb1b7045c574556dc633662dfc735b86b91a22b7919d5b124281bbeb69234679e9197247c776576fc431642ffe715984bb1820b5939f59144487bded6f25407fef1f7441c1705169c2376229f8775f82bd1e26b395995f164685bfef6d27427ded1d7643c372536bc035602bfa755d80bf1c24b1979b5d18488bb1e163294c73e313784dcd7c5d65ce3b6e25f47b538eb1122abf9995531a4a89b3e3612b4e71e1117a4fcf7e5f67cc396c27f679518cb31028bd9b97511c4c8fb5e5672d4877e7177c49c9785961ca3f6a21f07f578ab5162ebb9d91571e4e8db7e7652f4a75e5157e4bcb7a5b63c83d6823f27d5588b7142cb99f9355104083b9e96b21447beb1b7045c574556dc633662dfc735b86b91a22b7919d5b124281bbeb69234679e9197247c776576fc431642ffe715984bb1820b5939f59144487bded6f25407fef1f7441c1705169c2376229f8775f82bd1e26b395995f164685bfef6d27427ded1d7643c372536bc035602bfa755d80bf1c24b1979b5d18488bb1e163294c73e313784dcd7c5d65ce3b6e25f47b538eb1122abf9995531a4a89b3e3612b4e71e1117a4fcf7e5f67cc396c27f679518cb31028bd9b97511c4c8fb5e5672d4877e7177c49c9785961ca3f6a21f07f578ab5162ebb9d91571e4e8db7e7652f4a75e5157e4bcb7a5b63c83d6823f27d5588b7142cb99f9355104083b9e96b21447beb1b7045c574556dc633662dfc735b86b91a22b7919d5b124281bbeb69234679e9197247c776576fc431642ffe715984bb1820b5939f59144487bded6f25407fef1f7441c1705169c2376229f8775f82bd1e26b395995f164685bfef6d27427ded1d7643c372536bc035602bfa755d80bf1c24b1979b5d18488bb1e163294c73e313784dcd7c5d65ce3b6e25f47b538eb1122abf9995531a4a89b3e3612b4e71e1117a4fcf7e5f67cc396c27f679518cb31028bd9b97511c4c8fb5e5672d4877e7177c49c9785961ca3f6a21f07f578ab5162ebb9d91571e4e8db7e7652f4a75e5157e4bcb7a5b63c83d6823f27d5588b7142cb99f9355104083b9e96b21447beb1b7045c5745560b34d211d8e3b21b2f7a7647eb479e62e03bdea19d01ecf73faf3193b2956e4f",
        "hex": "6a208550302b185ca2df7b47c4ae4ad4eb7d25321c939d13fb9a59f24a944a8935f34db0048488bb1e163294c73e313784dcd7c5d65ce3b6e25f47b538eb1122abf9995531a4a89b3e3612b4e71e1117a4fcf7e5f67cc396c27f679518cb31028bd9b97511c4c8fb5e5672d4877e7177c49c9785961ca3f6a21f07f578ab5162ebb9d91571e4e8db7e7652f4a75e5157e4bcb7a5b63c83d6823f27d5588b7142cb99f9355104083b9e96b21447beb1b7045c574556dc633662dfc735b86b91a22b7919d5b124281bbeb69234679e9197247c776576fc431642ffe715984bb1820b5939f59144487bded6f25407fef1f7441c1705169c2376229f8775f82bd1e26b395995f164685bfef6d27427ded1d7643c372536bc035602bfa755d80bf1c24b1979b5d18488bb1e163294c73e313784dcd7c5d65ce3b6e25f47b538eb1122abf9995531a4a89b3e3612b4e71e1117a4fcf7e5f67cc396c27f679518cb31028bd9b97511c4c8fb5e5672d4877e7177c49c9785961ca3f6a21f07f578ab5162ebb9d91571e4e8db7e7652f4a75e5157e4bcb7a5b63c83d6823f27d5588b7142cb99f9355104083b9e96b21447beb1b7045c574556dc633662dfc735b86b91a22b7919d5b124281bbeb69234679e9197247c776576fc431642ffe715984bb1820b5939f59144487bded6f25407fef1f7441c1705169c2376229f8775f82bd1e26b395995f164685bfef6d27427ded1d7643c372536bc035602bfa755d80bf1c24b1979b5d18488bb1e163294c73e313784dcd7c5d65ce3b6e25f47b538eb1122abf9995531a4a89b3e3612b4e71e1117a4fcf7e5f67cc396c27f679518cb31028bd9b97511c4c8fb5e5672d4877e7177c49c9785961ca3f6a21f07f578ab5162ebb9d91571e4e8db7e7652f4a75e5157e4bcb7a5b63c83d6823f27d5588b7142cb99f9355104083b9e96b21447beb1b7045c574556dc633662dfc735b86b91a22b7919d5b124281bbeb69234679e9197247c776576fc431642ffe715984bb1820b5939f59144487bded6f25407fef1f7441c1705169c2376229f8775f82bd1e26b395995f164685bfef6d27427ded1d7643c372536bc035602bfa755d80bf1c24b1979b5d18488bb1e163294c73e313784dcd7c5d65ce3b6e25f47b538eb1122abf9995531a4a89b3e3612b4e71e1117a4fcf7e5f67cc396c27f679518cb31028bd9b97511c4c8fb5e5672d4877e7177c49c9785961ca3f6a21f07f578ab5162ebb9d91571e4e8db7e7652f4a75e5157e4bcb7a5b63c83d6823f27d5588b7142cb99f9355104083b9e96b21447beb1b7045c574556dc633662dfc735b86b91a22b7919d5b124281bbeb69234679e9197247c776576fc431642ffe715984bb1820b5939f59144487bded6f25407fef1f7441c1705169c2376229f8775f82bd1e26b395995f164685bfef6d27427ded1d7643c372536bc035602bfa755d80bf1c24b1979b5d18488bb1e163294c73e313784dcd7c5d65ce3b6e25f47b538eb1122abf9995531a4a89b3e3612b4e71e1117a4fcf7e5f67cc396c27f679518cb31028bd9b97511c4c8fb5e5672d4877e7177c49c9785961ca3f6a21f07f578ab5162ebb9d91571e4e8db7e7652f4a75e5157e4bcb7a5b63c83d6823f27d5588b7142cb99f9355104083b9e96b21447beb1b7045c5745560b34d211d8e3b21b2f7a7647eb479e62e03bdea19d01ecf73faf3193b2956e4f",
        "type": "nulldata"
      }
    }
  ],
  "blockhash": "c592ff09702ccc153ea7e0356b0e5a10b37ebf9436b5bd4870b29e5d1c636d36",
  "confirmations": 1,
  "time": 1764179615,
  "blocktime": 1764179615
}