{
  "hex": "0100000000010184d2b1fe47bd987e622e83fac17c3ec20a8f4ba58d6acec2101c67797a5258c00000000000feffffff02c075fe6f792d0000225120d962dd1c43d3cafa073f35741928a82004abe580d35e5212e8d6c259d5cbd53f00e1f50500000000fdd5046a203952ca8624aa751e08048dbce769747f7e79b6eee616a4c83d1c3558a3608d924db00444a85645eb639277dd107f2b24d06841f659419a942c6fe6db3cd39d1d0974d364887665cb43b257fd305f0b04f04861d67961bab40c4fc6fb1cf3bd3d2954f304e81605ab23d2379d503f6b64902801b61901dad46c2fa69b7c93dd5d49349324c836258b03f217bd701f4b44b00821963921faf44c0f86bb5cb3fd7d6914b3c428d6c56be312f75d90ffaba450e8c176d9c11a14acef665bbc531d9d89f453e408f6e54bc332d77db0df8b8470c8e156f9e13a348ccf467b9c733dbda9d473846896852ba352b71dd0bfebe410a8813699815a54ecaf261bfc135dddc9b413a448b6a50b8372973df09fcbc43088a116b9a17a74cc8f063bdc337dfde9943344a85645eb639277dd107f2b24d06841f659419a942c6fe6db3cd39d1d0974d364887665cb43b257fd305f0b04f04861d67961bab40c4fc6fb1cf3bd3d2954f304e81605ab23d2379d503f6b64902801b61901dad46c2fa69b7c93dd5d49349324c836258b03f217bd701f4b44b00821963921faf44c0f86bb5cb3fd7d6914b3c428d6c56be312f75d90ffaba450e8c176d9c11a14acef665bbc531d9d89f453e408f6e54bc332d77db0df8b8470c8e156f9e13a348ccf467b9c733dbda9d473846896852ba352b71dd0bfebe410a8813699815a54ecaf261bfc135dddc9b413a448b6a50b8372973df09fcbc43088a116b9a17a74cc8f063bdc337dfde9943344a85645eb639277dd107f2b24d06841f659419a942c6fe6db3cd39d1d0974d364887665cb43b257fd305f0b04f04861d67961bab40c4fc6fb1cf3bd3d2954f304e81605ab23d2379d503f6b64902801b61901dad46c2fa69b7c93dd5d49349324c836258b03f217bd701f4b44b00821963921faf44c0f86bb5cb3fd7d6914b3c428d6c56be312f75d90ffaba450e8c176d9c11a14acef665bbc531d9d89f453e408f6e54bc332d77db0df8b8470c8e156f9e13a348ccf467b9c733dbda9d473846896852ba352b71dd0bfebe410a8813699815a54ecaf261bfc135dddc9b413a448b6a50b8372973df09fcbc43088a116b9a17a74cc8f063bdc337dfde9943344a85645eb639277dd107f2b24d06841f659419a942c6fe6db3cd39d1d0974d364887665cb43b257fd305f0b04f04861d67961bab40c4fc6fb1cf3bd3d2954f304e81605ab23d2379d503f6b64902801b61901dad46c2fa69b7c93dd5d49349324c836258b03f217bd701f4b44b00821963921faf44c0f86bb5cb3fd7d6914b3c428d6c56be312f75d90ffaba450e8c176d9c11a14acef665bbc531d9d89f453e408f6e54bc332d77db0df8b8470c8e156f9e13a348ccf467b9c733dbda9d473846896852ba352b71dd0bfebe410a8813699815a54ecaf261bfc135dddc9b413a448b6a50b8372973df09fcbc43088a116b9a17a74cc8f063bdc337dfde9943344a85645eb639277dd107f2b24d06841f659419a942c6fe6db3cd39d1d0974d364887665cb43b257fd305f0b04f04861d67961bab40c4fc6fb1cf3bd3d2954f304e81605ab23d2379d503f6b64902801b61901dad46c2fa69b7c93dd5d49349324c836258b03f217bd701f4b44b00821963921faf44c0f86bb5cb3fd7d6914b3c428d6c56be312f75d90ffaba450e8c13448a5963b4234121b4e0da396143ca4123add7e3bebfcf624130d660a14dc8e02fd7509f5a6d4b636313af30f5def7bf5e3c4a7f78b6f11208f294c8eef754db279fec5d96947d66d017a3acdb9e6ac853c1111a5f00e023001ff4e9309ad3d86be4a347e252c6a8d1dca3d396da775e0af9cafd4e1e1f1723d032dae6d7af74c5f53a35b7ce56be08144aa3b14f9b141fd2e59dc55cc02b160892edf455ce9f6adb757f24bec0bc777e88b5da02c3f1b353b23d2de4b5eb182810805b276aa24c0bebd015a4899d769adbcf18dc8b81f4288d674606bc818323bac7496dbbadb79fc405d7e7780ed9604672e0fa4a42901cfcc2a5a0d48f5266d19ac3fb61d60bfe33fd419af796dd9ef675fc0f547d15fba6591476de7bd30278bfc0f088bc7eea8905b47637089aacbd04ac72f24ef5b8d5954ec3e5cd3bdb1fbae751fc5c5b00a6ec1534e0ce32c1946dd7491b0b1fc8d8b64f60efb6c48bacb6b44ea4c31608b3235b19af67c2fd2a59ceeeaeb5337d745027a9fb17581f2dd3719998b3062002b664f2e15b9d5af7c0b608b920ad9c9e7a4642d379358f11bd770bd9fe29f17a9296eda8dd67e8627a343911120150d80873ba362a086b7b48ae3c9ab06e35e2ab80e85e735760e98b6ec86867133b4b774330f0bcbb6a3a38f15309ab73cbb14cf4bcfbb43a04e4595e5850b53943a3c47d0c1c67817cc447acc62eac12c85e86e8a9a93dfcefe15494be52dc7d139b75f18a4c7d0a5518d8cce9bb494db0d3ed7804eff97665a7963c74f84c14e23c99168bf554120164028810be1f582e75d183e7653798c5a91c995fa19ff650078d3985709618649e3954814935769c4edeb90b4096a6e6fbbee66802c75b01a1b25e056ce350474096ce7e71604c220998b32c5767f1c6e887655f2e25dad9ed4204cb80fedef24575d1521f10f0adb99ba85f62e30082287e1b906cb96ae98d689e6aa0c383bebe03c6798204877d2bc3adc25af8c0ebc4c75fef0c973c17e1cdf3af5d112c55a49ca0f1b5837b0c863555888a89c82850ae5e88fbffd6801a126255828ee7ca6a58867c7448e232e1cf128944e1728396647862e277b41ce699e665949b76eca41b86b4bd25f5dd0c774bec0db4762faa480619622add2c8ead02499f25dcfcee8aa8d4660f3af1dc076a2e12e835c12fc0b55c59bf0569ad53e252a08f72c9605448c66ec826cdbb68597cb606763f339cf070ae2ba3bceba1cb4a435fd79013448cd19c8d0376c43db6f8b5b43d4c0e2ab4e67671bc03ea183fa45e40892a03694f209ea5d170ad8974a099bd9d356c18ddfd6432ed85beea9969bf65548b8151ce37899f906e219fb63a21f3204438e3ef0438bcf519d0778f2ff93e46768f5f320b2635a75b089ad1d7c399188ecdd7dbca63850490913bf91c0bd39e39621a9851f9b2935073cc9aa470e20221eed403f7575ffa2774a08d295ada98e3869183c8f74f2d99f65f37ad69f5e22cc5d1847f2464a2238917627412ac737ad2452c7247eb403d01fd3c06ad1fd992b56ba2916c59dcfc7dc441d1f44115d70d8ded1f71e2f357b260bcc45c8c3f88b6fafac8eb6fd33b41e8ee578ce5e5e0ce9b5b5f299285d574aeee0c29a391bf8200c98372cc375df3699ff4e7c4ebcd3e8a2c0b05cd5a2891e15baa1e0f1529cd110b52a648fa0e259992f1ffdaad932485552369858f9b13f93e8f805928849ac2d168084a1a85033f250b1b30a3a9b3b01475487974c02a6edf6339ba527363fd8fe6045bb58a73a5a241800a416e4b0c61b5846bae45faf44dcd9d9784d6f981ed6e0412a05a16c8b914f0874465a025848a58bd9f3ef581fd7d5977fb96105102cca235ae3895c26392d4e51541fb27a02c48045c6aae445b04cb964123e006d1a37af38251205450776227bfaba8b4393deac2307e3b1f8d2e46ab8a1ed55b8c9824a22d43becb823d93cbba795db63515f5aa600ea00efe07a75a8c486b0a3b8cbec3c88008f8a790fd394c1b9d659a28adddce64717d1fda948bd98c4179e5b42e211c856bfe081708f52e85df866e38415f8949df8edb5adcb4fd71c5a61334f5df3cea015400f23241cbed02f71278ca5857acd35d054e6d03f14eea30197614a43cd54a50449fa817fb94c6c5afbeb60104bbaa8159579ee88ee0f47699aa826bfc67d7894e3de3bbb553bd5a02e8be9b6b0cc56ba6eeb25c919db8f79fcf90ed0efe5cd9be6a2e5259da406bb27928735e8c4e518bbedf6a9df3d480a3ff433c457dfeaa6a222a73fb8164db9c8ba4cf07ac41212aab50172c765e2760348846bef09a0579f2f4db67d7451f29fb4fe237af8f3d12bc0def7d49295dbf368d6aa81ac6e9e913d16a8e2c2a6f41c6c9b21892706c38febc635e004ce5ddaa91bde7fd93576b38c394f60e68334cb0720b9eda2a08e9798bd3edf2c063c5b7908e8811f1cf2b40b550f712266eeb7746386af3c149b8ce159efca530434aa900145c0dd72550da2a03b7d4a2acb4338e608dc22e656d8b478c4f711a053a2e7914a47dd45ac175dedcda691ffcd1375dc152c8c18f5d5639dd62648f219a665bb6ccc911434822150454ec83387e36b0cf558c303ef69a2a72ac166110a161f0e07838d1e9878e7efd79e87dd2f703a6263ed142db29cfe3b65a68fb6a06aa3336581900b8979681620603290f76bc6a5496c18187884b563ec88d1e336d4498f6a83e6fe39f08b1d97abb452343dd6bd74848f3ade4740dbfa8667b11099530a4d332cc6b98779efbebc8b1fa73b3319839792768eb21d726f3f590dc8ef4f1c6d72b2f00f47dde5d4efb86937693f91796b0ff75bff0bf8192fae7a5a5e5882142ba032a4a379f1aaafc9f7adca3ade50368dfc0dbc8e4c2ac91e76b503826322cda3267bf3aa86966c85192da1289f7e3e8a67c3de4710f02d2c4a4d67c82485bc67421f11591047db233fb595e1b84e2a50f4601ddf4ebce7c3cda96fc14b8c7233a8c24e8f2dd95b626f5340d503ac94d22994fa9ace16b37981e5ae73015488e15268534c582cf67c93024fc39e729ce67b6732595c470fd1d7db29ffa2068869e8f2b3504c87261c4eeec95b1d2280664ddf3fcf2836c49d39892126bb7b2b392351e1f018001ad08306f2eec49bc6c91136e61de023d9ad7344705194cf3f228af0e8d15dcc07452c2c96e2cb87367d21a74650d1665941172966ce5c701eec5ab79c89707aa4dabc8264cd5809189d5fb25b3239ab7cc28b8c08ce6581a678f60d754ab84e66526af4cefa610ed27c97113bafdbdd86591b1a8da5f3573e39e70bd8d5c01db73047f31edae913bfac271821485f8da7b3b4c0c1c4d6e8ecef081528343e5052566691a0a9b3bcc2cad1fc00141a3f464c5b676a747881a6b0bbc2d3d5fa0a0e184d5977808fbeccd1d2e4fc00000000000000000000000000000f21344201fd2105003a818923adcb9e140a422ce86892c66ab9d9085c8ba24d68f8c0c448c9a4c60eaa9fc931b8528e3e5b4e75a9430a9e833f2f23bc9bd748cedc2ab2483f939918df8995f1f9e2da8708782b197b18c8dc34410e833fef0b5d23adfe8682dac26eebcbea704e38356a3c91854889c8a903bc9f3c9ca3566a43b9896f91c6acb6273dd4d8528ba8e89d96fd37fa51dc085c708b3b6189d6b70ddb366ab11e7bd07ebcf1ef8c04e076afcc0f6a8ee3c466b928276256be033eaa808826abee81250adc327a46c092618ffe8a2a0f75ae35672f5bb42c70c179965d13f82e7c27f02c0af77338432800b8869bf2047ad6d0c67e213764bb97eb4e3458157b7c0d096336c16ee8870058f9fc14b15ddaf0479a009b34e87fd0c0bd696dcb80e07af8efe98f0d152cc080aa394a0dcfebfc983cb48696dab24639b50b53399a61ac86f4715ab1a8024bc940f7753de78b1d3548b85caf346b57035e97efb6f98bfd5113765444152dcd04731b804389222523de98d2bd32dc8cf120f663aa8dc0f5f044f93104c48fa7ca68dd3685385b1b214358398299c667f2624aa872a178f85879387b5fd96490edc8baaf1fcfbb402c704fc88e34fc7e305e744e8e5d910208ca35130388ef827b7ccafe4c7497b2c226872d236dd921b05a1bd2df4715090bc232871693bb7f3da957d99162c7bd0685c9305d236d8cfa2baaf9b52e3722ad60ae36576a718a1bc4b63e1a60ac3ae9cee4ba3f46a038935bf1cb0291c96ef5942eb926b12a183b0e7807c5c9982f2348a77f84717a69881bfc270191d2bd50f104fc150f43612de206c17b611f3cfb31dcc2a1647ab4776e374f0d9a4638464697203456efcd1bac40290d4e1314ddf6ad595fb9bd2d8db573f5263a3b1658bcb8643081425c2bcfbb5d8faef4b92ccee9b2d58f39c70069c7e5a144bea8e73f6b3873d80ec72b15943f14e45c2fb35c55c78eef068c7cec335f77a642a6eb36fe24cd62988804bb69482ff9bdf534ec6054477e1de0c6392913245ba6d35bbe182cd21598403a88a1deacdf332a200acf2fb86a272eef4ef29e816541fe9cd0c8f67fe205cc28f24a47345cba9baa25873a98d9cfe1cdfd6125ca0867928fadd120a3e2f1411f249bd274331bfe516d4ad323bc97b60801ff6eea0f82ee17c0fd2324e0e21d0689969d3142c32d04b627d7590ae9fb0e493be0524baf114112f6641d286d44743b3f967d895030e6509b737b6c90d9ea2357d7a0bec00e1362b842b924bc0ece036c771a71da754d86bbdd5ed913e53d5801077b5662c8dafa76c4efbcaf5a936a6439609ff08d762ccad2df331e34c1244a3f84681be33144aeed06b866b8ed55cba8b4cc27e3493a533de759c1fd9a15a67e1eec1aa55fbe5d1f3ff7fc5e2fa7a62a0fa563d1dc9a532b94fec4bc401bdfd2ebca3320a846e0411735c0cd740aa30d7483f758b4cd6bf0a3ee9ed14b696aad9b7a38d4e7566bff2928e53d93b29f2d4b2947fd09a7140aa664971acb6ea5b9792c0f5c3532b7395a943dc8c2f8e946299c771be668911a38c424775c3d7469707fd287bf4a86812ff4c41b926dabc8e5de5d2b5d7557ce953dcc2e24efe6b9db97cb6f0796cab9040ae4a409a339e9b43f3f2fef68e55bc61a4db0f889f8ccba1ef3299c38f02effa073b1ec868b92033354ec1373d3c103e747542903d37d5a00d9ae2ae468e6c07c970233920dc3db60337dafc7eb1ad0e6a9a67dba6ccc4a51316e6755fd500bc24ca205aead510c83a43f7159f7fc9d6f7ce7e4debd2d4a1748019226ec0f063e69378bbb7dec81fd0e1d25e5285c969a6821a0966c8b01dbd786eb155e000000",
  "txid": "1ec83fbc039b5f8cb6b4785633f1a3691fb4ddb475534772208975f9abbeb624",
  "hash": "389375d774f20bab63a57ada3692a3479384c2a4e2162a371870ebf296d02e7a",
  "size": 5085,
  "vsize": 2278,
  "version": 1,
  "locktime": 94,
  "vin": [
    {
      "txid": "c058527a79671c10c2ce6a8da54b8f0ac23e7cc1fa832e627e98bd47feb1d284",
      "vout": 0,
      "scriptSig": {
        "asm": "",
        "hex": ""
      },
      "txinwitness": [
        "f5a6d4b636313af30f5def7bf5e3c4a7f78b6f11208f294c8eef754db279fec5d96947d66d017a3acdb9e6ac853c1111a5f00e023001ff4e9309ad3d86be4a347e252c6a8d1dca3d396da775e0af9cafd4e1e1f1723d032dae6d7af74c5f53a35b7ce56be08144aa3b14f9b141fd2e59dc55cc02b160892edf455ce9f6adb757f24bec0bc777e88b5da02c3f1b353b23d2de4b5eb182810805b276aa24c0bebd015a4899d769adbcf18dc8b81f4288d674606bc818323bac7496dbbadb79fc405d7e7780ed9604672e0fa4a42901cfcc2a5a0d48f5266d19ac3fb61d60bfe33fd419af796dd9ef675fc0f547d15fba6591476de7bd30278bfc0f088bc7eea8905b47637089aacbd04ac72f24ef5b8d5954ec3e5cd3bdb1fbae751fc5c5b00a6ec1534e0ce32c1946dd7491b0b1fc8d8b64f60efb6c48bacb6b44ea4c31608b3235b19af67c2fd2a59ceeeaeb5337d745027a9fb17581f2dd3719998b3062002b664f2e15b9d5af7c0b608b920ad9c9e7a4642d379358f11bd770bd9fe29f17a9296eda8dd67e8627a343911120150d80873ba362a086b7b48ae3c9ab06e35e2ab80e85e735760e98b6ec86867133b4b774330f0bcbb6a3a38f15309ab73cbb14cf4bcfbb43a04e4595e5850b53943a3c47d0c1c67817cc447acc62eac12c85e86e8a9a93dfcefe15494be52dc7d139b75f18a4c7d0a5518d8cce9bb494db0d3ed7804eff97665a7963c74f84c14e23c99168bf554120164028810be1f582e75d183e7653798c5a91c995fa19ff650078d3985709618649e3954814935769c4edeb90b4096a6e6fbbee66802c75b01a1b25e056ce350474096ce7e71604c220998b32c5767f1c6e887655f2e25dad9ed4204cb80fedef24575d1521f10f0adb99ba85f62e30082287e1b906cb96ae98d689e6aa0c383bebe03c6798204877d2bc3adc25af8c0ebc4c75fef0c973c17e1cdf3af5d112c55a49ca0f1b5837b0c863555888a89c82850ae5e88fbffd6801a126255828ee7ca6a58867c7448e232e1cf128944e1728396647862e277b41ce699e665949b76eca41b86b4bd25f5dd0c774bec0db4762faa480619622add2c8ead02499f25dcfcee8aa8d4660f3af1dc076a2e12e835c12fc0b55c59bf0569ad53e252a08f72c9605448c66ec826cdbb68597cb606763f339cf070ae2ba3bceba1cb4a435fd79013448cd19c8d0376c43db6f8b5b43d4c0e2ab4e67671bc03ea183fa45e40892a03694f209ea5d170ad8974a099bd9d356c18ddfd6432ed85beea9969bf65548b8151ce37899f906e219fb63a21f3204438e3ef0438bcf519d0778f2ff93e46768f5f320b2635a75b089ad1d7c399188ecdd7dbca63850490913bf91c0bd39e39621a9851f9b2935073cc9aa470e20221eed403f7575ffa2774a08d295ada98e3869183c8f74f2d99f65f37ad69f5e22cc5d1847f2464a2238917627412ac737ad2452c7247eb403d01fd3c06ad1fd992b56ba2916c59dcfc7dc441d1f44115d70d8ded1f71e2f357b260bcc45c8c3f88b6fafac8eb6fd33b41e8ee578ce5e5e0ce9b5b5f299285d574aeee0c29a391bf8200c98372cc375df3699ff4e7c4ebcd3e8a2c0b05cd5a2891e15baa1e0f1529cd110b52a648fa0e259992f1ffdaad932485552369858f9b13f93e8f805928849ac2d168084a1a85033f250b1b30a3a9b3b01475487974c02a6edf6339ba527363fd8fe6045bb58a73a5a241800a416e4b0c61b5846bae45faf44dcd9d9784d6f981ed6e0412a05a16c8b914f0874465a025848a58bd9f3ef581fd7d5977fb96105102cca235ae3895c26392d4e51541fb27a02c48045c6aae445b04cb964123e006d1a37af38251205450776227bfaba8b4393deac2307e3b1f8d2e46ab8a1ed55b8c9824a22d43becb823d93cbba795db63515f5aa600ea00efe07a75a8c486b0a3b8cbec3c88008f8a790fd394c1b9d659a28adddce64717d1fda948bd98c4179e5b42e211c856bfe081708f52e85df866e38415f8949df8edb5adcb4fd71c5a61334f5df3cea015400f23241cbed02f71278ca5857acd35d054e6d03f14eea30197614a43cd54a50449fa817fb94c6c5afbeb60104bbaa8159579ee88ee0f47699aa826bfc67d7894e3de3bbb553bd5a02e8be9b6b0cc56ba6eeb25c919db8f79fcf90ed0efe5cd9be6a2e5259da406bb27928735e8c4e518bbedf6a9df3d480a3ff433c457dfeaa6a222a73fb8164db9c8ba4cf07ac41212aab50172c765e2760348846bef09a0579f2f4db67d7451f29fb4fe237af8f3d12bc0def7d49295dbf368d6aa81ac6e9e913d16a8e2c2a6f41c6c9b21892706c38febc635e004ce5ddaa91bde7fd93576b38c394f60e68334cb0720b9eda2a08e9798bd3edf2c063c5b7908e8811f1cf2b40b550f712266eeb7746386af3c149b8ce159efca530434aa900145c0dd72550da2a03b7d4a2acb4338e608dc22e656d8b478c4f711a053a2e7914a47dd45ac175dedcda691ffcd1375dc152c8c18f5d5639dd62648f219a665bb6ccc911434822150454ec83387e36b0cf558c303ef69a2a72ac166110a161f0e07838d1e9878e7efd79e87dd2f703a6263ed142db29cfe3b65a68fb6a06aa3336581900b8979681620603290f76bc6a5496c18187884b563ec88d1e336d4498f6a83e6fe39f08b1d97abb452343dd6bd74848f3ade4740dbfa8667b11099530a4d332cc6b98779efbebc8b1fa73b3319839792768eb21d726f3f590dc8ef4f1c6d72b2f00f47dde5d4efb86937693f91796b0ff75bff0bf8192fae7a5a5e5882142ba032a4a379f1aaafc9f7adca3ade50368dfc0dbc8e4c2ac91e76b503826322cda3267bf3aa86966c85192da1289f7e3e8a67c3de4710f02d2c4a4d67c82485bc67421f11591047db233fb595e1b84e2a50f4601ddf4ebce7c3cda96fc14b8c7233a8c24e8f2dd95b626f5340d503ac94d22994fa9ace16b37981e5ae73015488e15268534c582cf67c93024fc39e729ce67b6732595c470fd1d7db29ffa2068869e8f2b3504c87261c4eeec95b1d2280664ddf3fcf2836c49d39892126bb7b2b392351e1f018001ad08306f2eec49bc6c91136e61de023d9ad7344705194cf3f228af0e8d15dcc07452c2c96e2cb87367d21a74650d1665941172966ce5c701eec5ab79c89707aa4dabc8264cd5809189d5fb25b3239ab7cc28b8c08ce6581a678f60d754ab84e66526af4cefa610ed27c97113bafdbdd86591b1a8da5f3573e39e70bd8d5c01db73047f31edae913bfac271821485f8da7b3b4c0c1c4d6e8ecef081528343e5052566691a0a9b3bcc2cad1fc00141a3f464c5b676a747881a6b0bbc2d3d5fa0a0e184d5977808fbeccd1d2e4fc00000000000000000000000000000f21344201",
        "003a818923adcb9e140a422ce86892c66ab9d9085c8ba24d68f8c0c448c9a4c60eaa9fc931b8528e3e5b4e75a9430a9e833f2f23bc9bd748cedc2ab2483f939918df8995f1f9e2da8708782b197b18c8dc34410e833fef0b5d23adfe8682dac26eebcbea704e38356a3c91854889c8a903bc9f3c9ca3566a43b9896f91c6acb6273dd4d8528ba8e89d96fd37fa51dc085c708b3b6189d6b70ddb366ab11e7bd07ebcf1ef8c04e076afcc0f6a8ee3c466b928276256be033eaa808826abee81250adc327a46c092618ffe8a2a0f75ae35672f5bb42c70c179965d13f82e7c27f02c0af77338432800b8869bf2047ad6d0c67e213764bb97eb4e3458157b7c0d096336c16ee8870058f9fc14b15ddaf0479a009b34e87fd0c0bd696dcb80e07af8efe98f0d152cc080aa394a0dcfebfc983cb48696dab24639b50b53399a61ac86f4715ab1a8024bc940f7753de78b1d3548b85caf346b57035e97efb6f98bfd5113765444152dcd04731b804389222523de98d2bd32dc8cf120f663aa8dc0f5f044f93104c48fa7ca68dd3685385b1b214358398299c667f2624aa872a178f85879387b5fd96490edc8baaf1fcfbb402c704fc88e34fc7e305e744e8e5d910208ca35130388ef827b7ccafe4c7497b2c226872d236dd921b05a1bd2df4715090bc232871693bb7f3da957d99162c7bd0685c9305d236d8cfa2baaf9b52e3722ad60ae36576a718a1bc4b63e1a60ac3ae9cee4ba3f46a038935bf1cb0291c96ef5942eb926b12a183b0e7807c5c9982f2348a77f84717a69881bfc270191d2bd50f104fc150f43612de206c17b611f3cfb31dcc2a1647ab4776e374f0d9a4638464697203456efcd1bac40290d4e1314ddf6ad595fb9bd2d8db573f5263a3b1658bcb8643081425c2bcfbb5d8faef4b92ccee9b2d58f39c70069c7e5a144bea8e73f6b3873d80ec72b15943f14e45c2fb35c55c78eef068c7cec335f77a642a6eb36fe24cd62988804bb69482ff9bdf534ec6054477e1de0c6392913245ba6d35bbe182cd21598403a88a1deacdf332a200acf2fb86a272eef4ef29e816541fe9cd0c8f67fe205cc28f24a47345cba9baa25873a98d9cfe1cdfd6125ca0867928fadd120a3e2f1411f249bd274331bfe516d4ad323bc97b60801ff6eea0f82ee17c0fd2324e0e21d0689969d3142c32d04b627d7590ae9fb0e493be0524baf114112f6641d286d44743b3f967d895030e6509b737b6c90d9ea2357d7a0bec00e1362b842b924bc0ece036c771a71da754d86bbdd5ed913e53d5801077b5662c8dafa76c4efbcaf5a936a6439609ff08d762ccad2df331e34c1244a3f84681be33144aeed06b866b8ed55cba8b4cc27e3493a533de759c1fd9a15a67e1eec1aa55fbe5d1f3ff7fc5e2fa7a62a0fa563d1dc9a532b94fec4bc401bdfd2ebca3320a846e0411735c0cd740aa30d7483f758b4cd6bf0a3ee9ed14b696aad9b7a38d4e7566bff2928e53d93b29f2d4b2947fd09a7140aa664971acb6ea5b9792c0f5c3532b7395a943dc8c2f8e946299c771be668911a38c424775c3d7469707fd287bf4a86812ff4c41b926dabc8e5de5d2b5d7557ce953dcc2e24efe6b9db97cb6f0796cab9040ae4a409a339e9b43f3f2fef68e55bc61a4db0f889f8ccba1ef3299c38f02effa073b1ec868b92033354ec1373d3c103e747542903d37d5a00d9ae2ae468e6c07c970233920dc3db60337dafc7eb1ad0e6a9a67dba6ccc4a51316e6755fd500bc24ca205aead510c83a43f7159f7fc9d6f7ce7e4debd2d4a1748019226ec0f063e69378bbb7dec81fd0e1d25e5285c969a6821a0966c8b01dbd786eb15"
      ],
      "sequence": 4294967294
    }
  ],
  "vout": [
    {
      "value": 499995.9324,
      "n": 0,
      "scriptPubKey": {
        "asm": "1 d962dd1c43d3cafa073f35741928a82004abe580d35e5212e8d6c259d5cbd53f",
        "hex": "5120d962dd1c43d3cafa073f35741928a82004abe580d35e5212e8d6c259d5cbd53f",
        "reqSigs": 1,
        "type": "witness_v1_scripthash",
        "addresses": [
          "3QJmnh"
        ]
      }
    },
    {
      "value": 1.0,
      "n": 1,
      "scriptPubKey": {
        "asm": "OP_RETURN 3952ca8624aa751e08048dbce769747f7e79b6eee616a4c83d1c3558a3608d92 44a85645eb639277dd107f2b24d06841f659419a942c6fe6db3cd39d1d0974d364887665cb43b257fd305f0b04f04861d67961bab40c4fc6fb1cf3bd3d2954f304e81605ab23d2379d503f6b64902801b61901dad46c2fa69b7c93dd5d49349324c836258b03f217bd701f4b44b00821963921faf44c0f86bb5cb3fd7d6914b3c428d6c56be312f75d90ffaba450e8c176d9c11a14acef665bbc531d9d89f453e408f6e54bc332d77db0df8b8470c8e156f9e13a348ccf467b9c733dbda9d473846896852ba352b71dd0bfebe410a8813699815a54ecaf261bfc135dddc9b413a448b6a50b8372973df09fcbc43088a116b9a17a74cc8f063bdc337dfde9943344a85645eb639277dd107f2b24d06841f659419a942c6fe6db3cd39d1d0974d364887665cb43b257fd305f0b04f04861d67961bab40c4fc6fb1cf3bd3d2954f304e81605ab23d2379d503f6b64902801b61901dad46c2fa69b7c93dd5d49349324c836258b03f217bd701f4b44b00821963921faf44c0f86bb5cb3fd7d6914b3c428d6c56be312f75d90ffaba450e8c176d9c11a14acef665bbc531d9d89f453e408f6e54bc332d77db0df8b8470c8e156f9e13a348ccf467b9c733dbda9d473846896852ba352b71dd0bfebe410a8813699815a54ecaf261bfc135dddc9b413a448b6a50b8372973df09fcbc43088a116b9a17a74cc8f063bdc337dfde9943344a85645eb639277dd107f2b24d06841f659419a942c6fe6db3cd39d1d0974d364887665cb43b257fd305f0b04f04861d67961bab40c4fc6fb1cf3bd3d2954f304e81605ab23d2379d503f6b64902801b61901dad46c2fa69b7c93dd5d49349324c836258b03f217bd701f4b44b00821963921faf44c0f86bb5cb3fd7d6914b3c428d6c56be312f75d90ffaba450e8c176d9c11a14acef665bbc531d9d89f453e408f6e54bc332d77db0df8b8470c8e156f9e13a348ccf467b9c733dbda9d473846896852ba352b71dd0bfebe410a8813699815a54ecaf261bfc135dddc9b413a448b6a50b8372973df09fcbc43088a116b9a17a74cc8f063bdc337dfde9943344a85645eb639277dd107f2b24d06841f659419a942c6fe6db3cd39d1d0974d364887665cb43b257fd305f0b04f04861d67961bab40c4fc6fb1cf3bd3d2954f304e81605ab23d2379d503f6b64902801b61901dad46c2fa69b7c93dd5d49349324c836258b03f217bd701f4b44b00821963921faf44c0f86bb5cb3fd7d6914b3c428d6c56be312f75d90ffaba450e8c176d9c11a14acef665bbc531d9d89f453e408f6e54bc332d77db0df8b8470c8e156f9e13a348ccf467b9c733dbda9d473846896852ba352b71dd0bfebe410a8813699815a54ecaf261bfc135dddc9b413a448b6a50b8372973df09fcbc43088a116b9a17a74cc8f063bdc337dfde9943344a85645eb639277dd107f2b24d06841f659419a942c6fe6db3cd39d1d0974d364887665cb43b257fd305f0b04f04861d67961bab40c4fc6fb1cf3bd3d2954f304e81605ab23d2379d503f6b64902801b61901dad46c2fa69b7c93dd5d49349324c836258b03f217bd701f4b44b00821963921faf44c0f86bb5cb3fd7d6914b3c428d6c56be312f75d90ffaba450e8c13448a5963b4234121b4e0da396143ca4123add7e3bebfcf624130d660a14dc8e",
        "hex": "6a203952ca8624aa751e08048dbce769747f7e79b6eee616a4c83d1c3558a3608d924db00444a85645eb639277dd107f2b24d06841f659419a942c6fe6db3cd39d1d0974d364887665cb43b257fd305f0b04f04861d67961bab40c4fc6fb1cf3bd3d2954f304e81605ab23d2379d503f6b64902801b61901dad46c2fa69b7c93dd5d49349324c836258b03f217bd701f4b44b00821963921faf44c0f86bb5cb3fd7d6914b3c428d6c56be312f75d90ffaba450e8c176d9c11a14acef665bbc531d9d89f453e408f6e54bc332d77db0df8b8470c8e156f9e13a348ccf467b9c733dbda9d473846896852ba352b71dd0bfebe410a8813699815a54ecaf261bfc135dddc9b413a448b6a50b8372973df09fcbc43088a116b9a17a74cc8f063bdc337dfde9943344a85645eb639277dd107f2b24d06841f659419a942c6fe6db3cd39d1d0974d364887665cb43b257fd305f0b04f04861d67961bab40c4fc6fb1cf3bd3d2954f304e81605ab23d2379d503f6b64902801b61901dad46c2fa69b7c93dd5d49349324c836258b03f217bd701f4b44b00821963921faf44c0f86bb5cb3fd7d6914b3c428d6c56be312f75d90ffaba450e8c176d9c11a14acef665bbc531d9d89f453e408f6e54bc332d77db0df8b8470c8e156f9e13a348ccf467b9c733dbda9d473846896852ba352b71dd0bfebe410a8813699815a54ecaf261bfc135dddc9b413a448b6a50b8372973df09fcbc43088a116b9a17a74cc8f063bdc337dfde9943344a85645eb639277dd107f2b24d06841f659419a942c6fe6db3cd39d1d0974d364887665cb43b257fd305f0b04f04861d67961bab40c4fc6fb1cf3bd3d2954f304e81605ab23d2379d503f6b64902801b61901dad46c2fa69b7c93dd5d49349324c836258b03f217bd701f4b44b00821963921faf44c0f86bb5cb3fd7d6914b3c428d6c56be312f75d90ffaba450e8c176d9c11a14acef665bbc531d9d89f453e408f6e54bc332d77db0df8b8470c8e156f9e13a348ccf467b9c733dbda9d473846896852ba352b71dd0bfebe410a8813699815a54ecaf261bfc135dddc9b413a448b6a50b8372973df09fcbc43088a116b9a17a74cc8f063bdc337dfde9943344a85645eb639277dd107f2b24d06841f659419a942c6fe6db3cd39d1d0974d364887665cb43b257fd305f0b04f04861d67961bab40c4fc6fb1cf3bd3d2954f304e81605ab23d2379d503f6b64902801b61901dad46c2fa69b7c93dd5d49349324c836258b03f217bd701f4b44b00821963921faf44c0f86bb5cb3fd7d6914b3c428d6c56be312f75d90ffaba450e8c176d9c11a14acef665bbc531d9d89f453e408f6e54bc332d77db0df8b8470c8e156f9e13a348ccf467b9c733dbda9d473846896852ba352b71dd0bfebe410a8813699815a54ecaf261bfc135dddc9b413a448b6a50b8372973df09fcbc43088a116b9a17a74cc8f063bdc337dfde9943344a85645eb639277dd107f2b24d06841f659419a942c6fe6db3cd39d1d0974d364887665cb43b257fd305f0b04f04861d67961bab40c4fc6fb1cf3bd3d2954f304e81605ab23d2379d503f6b64902801b61901dad46c2fa69b7c93dd5d49349324c836258b03f217bd701f4b44b00821963921faf44c0f86bb5cb3fd7d6914b3c428d6c56be312f75d90ffaba450e8c13448a5963b4234121b4e0da396143ca4123add7e3bebfcf624130d660a14dc8e",
        "type": "nulldata"
      }
    }
  ],
  "blockhash": "15af9b025c636b87e0a10c18a1a8de0e5f3c2069ad563b293161176d75df89a4",
  "confirmations": 1,
  "time": 1764174659,
  "blocktime": 1764174659
}