{
  "hex": "010000000001016b7b2194e196658675b94391e45cd9ae757cad1c9788faf7c9aad876fa5811b50000000000feffffff02a020df63792d0000225120b951628d11610efcb957042159b9745e82e991c3a5860dc3d9b4e66fd9efe44f00e1f50500000000fdd5046a203e90683f309ad006e9b05b3a452d53df8cd49bf9c27e4b4b7e3e21079a269cad4db00481d2ef9e2233df18c830074130d391133b42e5ec539e4ce085e095340df790b4a1f2cfbe0213ff38e810276110f3b1331b62c5cc73be6cc0a5c0b5142dd7b094c192afde62739f58887047017093d1537b02a5ac13de0ca0c5a0d5744db7d0f4e1b28ffe4253bf78a850672150b3f1735b22858c33fe2c80e580f5546d97f0d401526f1ea2b35f9848b087c1b0531193bbc2656cd31ecc60056015b48d77103421724f3e82937fb86890a7e1907331b39be2454cf33eec4025403594ad57301441122f5ee2f31fd808f0c781f01351d3fb82252c935e8c20452055f4cd37507461320f7ec2d33ff828d0e7a1d03371f3dba2050cb37eac00650075d4ed17705481d2ef9e2233df18c830074130d391133b42e5ec539e4ce085e095340df790b4a1f2cfbe0213ff38e810276110f3b1331b62c5cc73be6cc0a5c0b5142dd7b094c192afde62739f58887047017093d1537b02a5ac13de0ca0c5a0d5744db7d0f4e1b28ffe4253bf78a850672150b3f1735b22858c33fe2c80e580f5546d97f0d401526f1ea2b35f9848b087c1b0531193bbc2656cd31ecc60056015b48d77103421724f3e82937fb86890a7e1907331b39be2454cf33eec4025403594ad57301441122f5ee2f31fd808f0c781f01351d3fb82252c935e8c20452055f4cd37507461320f7ec2d33ff828d0e7a1d03371f3dba2050cb37eac00650075d4ed17705481d2ef9e2233df18c830074130d391133b42e5ec539e4ce085e095340df790b4a1f2cfbe0213ff38e810276110f3b1331b62c5cc73be6cc0a5c0b5142dd7b094c192afde62739f58887047017093d1537b02a5ac13de0ca0c5a0d5744db7d0f4e1b28ffe4253bf78a850672150b3f1735b22858c33fe2c80e580f5546d97f0d401526f1ea2b35f9848b087c1b0531193bbc2656cd31ecc60056015b48d77103421724f3e82937fb86890a7e1907331b39be2454cf33eec4025403594ad57301441122f5ee2f31fd808f0c781f01351d3fb82252c935e8c20452055f4cd37507461320f7ec2d33ff828d0e7a1d03371f3dba2050cb37eac00650075d4ed17705481d2ef9e2233df18c830074130d391133b42e5ec539e4ce085e095340df790b4a1f2cfbe0213ff38e810276110f3b1331b62c5cc73be6cc0a5c0b5142dd7b094c192afde62739f58887047017093d1537b02a5ac13de0ca0c5a0d5744db7d0f4e1b28ffe4253bf78a850672150b3f1735b22858c33fe2c80e580f5546d97f0d401526f1ea2b35f9848b087c1b0531193bbc2656cd31ecc60056015b48d77103421724f3e82937fb86890a7e1907331b39be2454cf33eec4025403594ad57301441122f5ee2f31fd808f0c781f01351d3fb82252c935e8c20452055f4cd37507461320f7ec2d33ff828d0e7a1d03371f3dba2050cb37eac00650075d4ed17705481d2ef9e2233df18c830074130d391133b42e5ec539e4ce085e095340df790b4a1f2cfbe0213ff38e810276110f3b1331b62c5cc73be6cc0a5c0b5142dd7b094c192afde62739f58887047017093d1537b02a5ac13de0ca0c5a0d5744db7d0f4e1b28ffe4253bf78a850672150b3f1735b22858c33fe2c80e580f5546d97f0d401526f1ea2b35f9848b087c1b0531193577b932589868afb33953c448330c7d59170a538fbcd137b5321dfeac4014bd002fd750925e299ef8ba53db1cf390983ef7eaaff732ed3e2be6be6b9ff87ad793c801de2b4329b181181887bc604c716c8631c6e6fe19074735eec36ef753975a36b7cd2a9d8ca658a8f9c5c6c3747096bbe9838ef7c023a5680d0fad7966ebc3483fb34dfe94c8f7b075af77633d1e2de8441308aa833aca47598b86a3346f80ecd7cf564095e7d40ad3cb86715a963858e594e3516d2fe3210f832be71e98363d6e7ecbacf5594d53d0caca5d5d43a819cf5d584870c6cfa80217c929ae896515cd6536fb1e4957feb23e63f46b50eba4b048c6e7bbb6d051a309228c818557d79030b458be1392eabb21f0565bac80365caa7bd0bfd30057c99614220eb38ae9b4edfce85f131ea6071b1330407333a9c22222dfcb4d74d3f8df9044c16a11439de57501b2da23b493440c4b7cba1b7abaa40fdc980dc1c1d8072e38d7ad3e618cd3ed2a2fd0b79b9c114e5119e688ca091e48359dec6f2139bc8948500a098298dbce5f74704f178220724774c494ed0145b1e5ecf4014eeb3862e79d6e747d7da69950faa90841785aa84d7c3a3f2f14fc6d84d56bde974a1e7f6e6467a78d1c62697725137553b1c7b43727e5ab7c7aad33a6584ea651910452a8a53161159b56440c403f259b3399fd5532a4f65c55facd1c6484dd14524f7431bdb67d09f7a055d6c7298b1954a6be73af4438d6c974fc2f216710197414225d590317d7ae52ccef1ede48b4cc41dd51043a8229338dfa0a55a1376e31979d7314cd174e9b97b1de0a54f6ff8c94b27b0a38189aa43b5cd094f9543be986df04a94f30c70b1ba799f73edb266ec005b8cddbe286cc607aa1efa9c884180018762b4534f9b05ae37a2c5df5ba4d03ac2f9d287bff216206d841096bfa663a6ecf237b7dc383c151d9c922f783f5407a8405cd0df150d34fc084eefad118aaed6542b47179b4c071f5059bb4667d632aafc106680767d0cd348ca49806bc1e5020a3408d89f9e196c250b1899cd9c6b02627624b22fce3abd9390df50b7f5eba8d2ebc314337847692fcd9eb7f7a97abbf595286ecf7d8a7f12a2b29d6718390a8df1af2957e633a6316ee9977c143317ac3e0eaf02b7cf5ccdff06b199f0a7d859a47c252f4b8e00ef5f33037e48444d83d2549b0fb64db5e56654bc0623c3f163bf9c625d7586039a29031454fd792d3b604e9ce3349f3cb7da1cbbab84a797fa840f62c612cff0b99dae04f30b8859767f7b2c8cc4592e889651f17b93dfc6b53961101eebdd9358d45c1c3cff0e621f9fb277b5183f184a5cbba87e19c83260a1c00876c1625ba94eefabfb2551e3a66582e5442a1dc94237510f581061aa13aa09892e786ef4af62133033699c37e07e8f4db6ed22866933c812168cad9a00221f384042884223768ca26220139c01c4f28aecbceb624edab53ceea839daa67458ad4a070c667a1001ec6fc165323f7e3985b4f71b662b209ed5efc69133813f1ed0f883db2ba1807d2f071256df3933857524347fbdab39bbaa496e9a26db2e2e9b827faa44a0ef78fc9e1fa83a2f478077eba1b03d02c8bd3ea65cf267845ba14847369e41d3cae3e02183a22aee5f4f0dd725caeb6dc07f4a181eeae656c0dfedc618efc8020c8bf98ef5201b59ec673a970c57586f9e755cf2f4d8f2d30f13ca0ee1dc39dafd1fd708697d8ad90f5ddb1e85a67735e7903259a2630c6ab58d7954083323469502606fccc04cdfb7385f09767d2534e22674cfcc4fd93871a69197643d79536e5a5f1b88942c12d1c2ab3540c2693f66c24cfffc555a4497bebd5b9732bdf3f5c3b7dad35e6f9702369aca4e6ee3185fd0f320683a4a313c255677fc0c2e14b8561212f61476bab8c8da6f08daf8035518850852423e3256f67c09a2cbdfb95374e65f44632f52e1d8fc4df1cf79ab32b4da401e8c5d5cd9572fdb9a957bdbce3c768822dfa8938e97385f808e86366bec1c048778576000d2aba391ac3c5d9f3894b517e450d78956000dd95ee4c0b6a838c7d6af0cc09ad819f79e6ace74c0fadd951628c0d8159c0a65be13dabf0641f485296dea5e53aab3757d23c444782a3dd1d8871dcb70f882ea1a3b10bcc289182fd8b44542939e383aaa595f57e210f4725f676bb9e8c077da71b96ae1b3f5cced387476c4fa639796ef79fc38d31ada8eddda5a41fa1b1ed125ec4a2417fcbc31282f036486d2138ad85843c7aa4980729fd5bbf47934ef2a6f09e6a27becf279278d28ca1b203af36cfe154cf2ca9fec12ea648a3435c50b7be31347f25dfc12f107516f8519dad2aac1380b115c4b73be67b6351dc725a8366c2909a59a082995799466e57a7dacdf23f33fbd6a89f8c28ce626e42fd5b53da4c18f2209e57d1a4c641f01c447d7c7c07318dfb9efccb326066e217c70f91389443676a8ae2297dab060f554a4caca97404c03421e87c8f8843b5031140e29b309ea19e1e8dfb0fa8e6feb47bcb3924530d2fab2cf4469c38e4c68e6323af6651cf55ee0d2e07656f12c396e1a88e6610a52128f3d5c55376586a0dca2b7ed3a180e00bfb437441605de45091bde64c390f019eed578b2cf1f33b2d56f7d08986961f9aee788ea266ff76285e6fcfae00d72bd6fb1b10556014e7dfa6104d18d8a0d1e3f2f7363fd94bc5f3d262859c9936a98e9e722e01f51bce5e6509f2dff32033fbfb30a4f4e4d9f5fdf52f169660929f091e9f4bbdd0795c45336ed8067437c9a098b172e8bb0181f237e0b40630779859998be02e3c98058f89400afe01ca1c8c4d7d440e2834675ad657e8e6af8421e1959a1ae3641dcd97e395bf21e9b1b2236407a349d2b5327248fe2bd51eb8f14d719245f72db13fd4d9f5e8a5944306b2b38eefdfbee8044a0b73838eb8c8a70e503f35d3aae5778743b5a46332721b7335bd7f822326bf0666e381cefdc06599b896b973c9048016e6b15ba6668cce2521c235018e232cc2560fc35592ab1f02cce0e65c71d6be4517bb1dd016019fa30828fbfc4963f875531450aadcd1f576d52ddc29035c07e5597cd94e5d1dc9a657ba5c82461cadb04b6c7326b81b79483b9ae0c83bc40b5c7cec02ec73aa807e54a24d43f35f5ab6a343c48abf566f5664c03eea4b356f4571961f30db1ca8f0d5f045d2083fa6ee483921fa9587da1ead7e00e64d059fc68ce5a7dba07d2defc8091456f1abe8ef5009ce9670f1f8ad9f3bc711e42bdb4d88615e696abe7839f70d1a223fdf1875884662e002f9f41c3e1d8e904c5fb5675daa418002bda4b6320dc9c50e7c380a37070f968000a24252a6a8eb0c7d3ddea05263e416290b1b4c3cecff1fa03154e5d849bb9c2c6cbd1e5e9eb0a1634485a5b6164879198c3e7ea0000000000000000000000000000000000000000000000000000000c19273501fd2105009e305601c094a5bd38bfd577fa8749231ce2cc362cdd14c5079ac8d842e03b3b6cce347fcee26918570f75542dc6dd1ad4f925f03179f8edbf8c295170182f033e6f5ff65c8579ba6d453412d3e0c7e2bce45fbb3f20e1f9306b85d7673d32a1720e885901e523dc7a24e067d56c455ab482347c4c93e92ded9e692fcf807c4298a012a23d89a8d1ea51a1fc08cb10e8c02622731205ab065cb80ebf617a4821c96ae9f199bd2f2341fc500523af4d1a9106015fab4344ce74d62c232fee76b257e1d4df5df16bcffdc98a02b2d593a55aeed7a053f779f647587fd88604f60e3fa21779d85bb75bae2e3cc2df9c2165f0415ee4b2a9fb7fef2ffaecb6bb8e94789b5d208e331cee168fa1a25553e8c0fb89a219f00a7a416b7391dc4984291ccb2b3a2260eed3738bf98830b5ef2e338b503bb45e976117b26af31272510de8a08543149ad1ce3e7b34034eed38971f8ab7fa41a7c3650f13d657ae5c1be849140188456a1913737abe4d90f1eb4e64832d3c2b9e4378413a9acefcb1ce818efd4affcc2d29114d99ceedb9ba90e188bfefce0196085dae972196b2c9a51b53109c0dde7f2127da0d2dbd7de14ff58ffb3b123c5742cb65ff89ab74a8c22ad9017aa8c0ea1145c37a13cc12a7a263d65d16fd737b5601c64138a8bbadfa4ffd344a0e71e45b6ab703cecc5a439ae670144f11cea4bf1244e3ad99a34ba48ead510a02199352085db394c1c4179264aa875fd229c3643b8d9a1fe2b4ba424bdb0743e7063d9bb11c75d8517bf4b7e494afa5be31d91d8882122787b5044f794cea68151f83450387010880287071f0acd19bda7d8803810777caf05c4e9c087f5fe8b1c0f8f0f1d8eee0b8186a7d347440b4dcdfa017646f176f711267c8701c3717982f6ac7da20e53e1f7b9afd9e8e5bfd06252456f5232a25f85e520a03d3aa0f5f088d59c71118794ba76c24342d88721e5c70522a219fca3006dfa4b6c81fd853bd5ad6b7268d02ff59d36dbc1c811698d91dee886932761ffe0a01a2e027e57ac757abcd1322545184a7bcb4b3813b7ec66ca0e2ea29b2b2c44f8cddc57ba944dc786958ded3a4655a709a088909344f94a21e0f7068e30a63430cc93602c73848b55ca070631e2d03685d93f7f30f60233b23b79bf0b39e585309cbf53ac89480de12cbcb76f919d986accb31ad9b88996062113a04acccbe5f97533ac601df2145158db3c7555e82ab52c7f2aaa3e813228d61aee492e4fe84f06cea9fc977d96e1577bcb712d332f11624862f1608358f965746ce713daa5131108376e51a5962f75a390cf5e76fad26886b92c1afe4d41ca3ef335e4dec9f40120f411b9adde7e294b216a7c7896951d38fcedbe7dc3bee9bf5fe46b31390a93e69a9dca4b678a4069657187afe6a065efc491bdecc1e4b7088785429e9106e25134b0029f53a31add4a500705e98f939819b3b130d80d1e7a092ebacc394525ad397560c980352f224e46b5f36b9620bebd3e5f61e99f801537e8f393212ae16251da675f392279054a9e7df8f36e7e0380203f379a733bb9d7f7dc5a1b30bceeff40f8fce2662208385c9ca5067f5a65a15406dae6d02fb917896dbcf1216161aaea57ca2cb227a2aba6346706e95c05cebba7a5cc16d717d4e9f1f87808aa2f1d91d95ccd0ae766fd6ac2c8fdebe24834a56bbddbc4b67ae9fdd7d0e650f44d833909f19268990290135c11a6116347ed84d39bd7c014ca9e0761debcff56af1aa566195918a7f13c7cb6b114e70f24ab3912e631464a004a77218580e14396eee1569002ac5599eee31f3dc60b79833ebbf2716c72f429b32a4c90eaf95dff233000000",
  "txid": "108b1ce0bc42317d0a358794bccd52394fa6a5fd5d2f6bc844abd08147a9565b",
  "hash": "4e8fad92f69454e758a8b51938ab142b5b6b543b82aa1cd9867df695c4dd5d3e",
  "size": 5085,
  "vsize": 2278,
  "version": 1,
  "locktime": 51,
  "vin": [
    {
      "txid": "b51158fa76d8aac9f7fa88971cad7c75aed95ce49143b975866596e194217b6b",
      "vout": 0,
      "scriptSig": {
        "asm": "",
        "hex": ""
      },
      "txinwitness": [
        "25e299ef8ba53db1cf390983ef7eaaff732ed3e2be6be6b9ff87ad793c801de2b4329b181181887bc604c716c8631c6e6fe19074735eec36ef753975a36b7cd2a9d8ca658a8f9c5c6c3747096bbe9838ef7c023a5680d0fad7966ebc3483fb34dfe94c8f7b075af77633d1e2de8441308aa833aca47598b86a3346f80ecd7cf564095e7d40ad3cb86715a963858e594e3516d2fe3210f832be71e98363d6e7ecbacf5594d53d0caca5d5d43a819cf5d584870c6cfa80217c929ae896515cd6536fb1e4957feb23e63f46b50eba4b048c6e7bbb6d051a309228c818557d79030b458be1392eabb21f0565bac80365caa7bd0bfd30057c99614220eb38ae9b4edfce85f131ea6071b1330407333a9c22222dfcb4d74d3f8df9044c16a11439de57501b2da23b493440c4b7cba1b7abaa40fdc980dc1c1d8072e38d7ad3e618cd3ed2a2fd0b79b9c114e5119e688ca091e48359dec6f2139bc8948500a098298dbce5f74704f178220724774c494ed0145b1e5ecf4014eeb3862e79d6e747d7da69950faa90841785aa84d7c3a3f2f14fc6d84d56bde974a1e7f6e6467a78d1c62697725137553b1c7b43727e5ab7c7aad33a6584ea651910452a8a53161159b56440c403f259b3399fd5532a4f65c55facd1c6484dd14524f7431bdb67d09f7a055d6c7298b1954a6be73af4438d6c974fc2f216710197414225d590317d7ae52ccef1ede48b4cc41dd51043a8229338dfa0a55a1376e31979d7314cd174e9b97b1de0a54f6ff8c94b27b0a38189aa43b5cd094f9543be986df04a94f30c70b1ba799f73edb266ec005b8cddbe286cc607aa1efa9c884180018762b4534f9b05ae37a2c5df5ba4d03ac2f9d287bff216206d841096bfa663a6ecf237b7dc383c151d9c922f783f5407a8405cd0df150d34fc084eefad118aaed6542b47179b4c071f5059bb4667d632aafc106680767d0cd348ca49806bc1e5020a3408d89f9e196c250b1899cd9c6b02627624b22fce3abd9390df50b7f5eba8d2ebc314337847692fcd9eb7f7a97abbf595286ecf7d8a7f12a2b29d6718390a8df1af2957e633a6316ee9977c143317ac3e0eaf02b7cf5ccdff06b199f0a7d859a47c252f4b8e00ef5f33037e48444d83d2549b0fb64db5e56654bc0623c3f163bf9c625d7586039a29031454fd792d3b604e9ce3349f3cb7da1cbbab84a797fa840f62c612cff0b99dae04f30b8859767f7b2c8cc4592e889651f17b93dfc6b53961101eebdd9358d45c1c3cff0e621f9fb277b5183f184a5cbba87e19c83260a1c00876c1625ba94eefabfb2551e3a66582e5442a1dc94237510f581061aa13aa09892e786ef4af62133033699c37e07e8f4db6ed22866933c812168cad9a00221f384042884223768ca26220139c01c4f28aecbceb624edab53ceea839daa67458ad4a070c667a1001ec6fc165323f7e3985b4f71b662b209ed5efc69133813f1ed0f883db2ba1807d2f071256df3933857524347fbdab39bbaa496e9a26db2e2e9b827faa44a0ef78fc9e1fa83a2f478077eba1b03d02c8bd3ea65cf267845ba14847369e41d3cae3e02183a22aee5f4f0dd725caeb6dc07f4a181eeae656c0dfedc618efc8020c8bf98ef5201b59ec673a970c57586f9e755cf2f4d8f2d30f13ca0ee1dc39dafd1fd708697d8ad90f5ddb1e85a67735e7903259a2630c6ab58d7954083323469502606fccc04cdfb7385f09767d2534e22674cfcc4fd93871a69197643d79536e5a5f1b88942c12d1c2ab3540c2693f66c24cfffc555a4497bebd5b9732bdf3f5c3b7dad35e6f9702369aca4e6ee3185fd0f320683a4a313c255677fc0c2e14b8561212f61476bab8c8da6f08daf8035518850852423e3256f67c09a2cbdfb95374e65f44632f52e1d8fc4df1cf79ab32b4da401e8c5d5cd9572fdb9a957bdbce3c768822dfa8938e97385f808e86366bec1c048778576000d2aba391ac3c5d9f3894b517e450d78956000dd95ee4c0b6a838c7d6af0cc09ad819f79e6ace74c0fadd951628c0d8159c0a65be13dabf0641f485296dea5e53aab3757d23c444782a3dd1d8871dcb70f882ea1a3b10bcc289182fd8b44542939e383aaa595f57e210f4725f676bb9e8c077da71b96ae1b3f5cced387476c4fa639796ef79fc38d31ada8eddda5a41fa1b1ed125ec4a2417fcbc31282f036486d2138ad85843c7aa4980729fd5bbf47934ef2a6f09e6a27becf279278d28ca1b203af36cfe154cf2ca9fec12ea648a3435c50b7be31347f25dfc12f107516f8519dad2aac1380b115c4b73be67b6351dc725a8366c2909a59a082995799466e57a7dacdf23f33fbd6a89f8c28ce626e42fd5b53da4c18f2209e57d1a4c641f01c447d7c7c07318dfb9efccb326066e217c70f91389443676a8ae2297dab060f554a4caca97404c03421e87c8f8843b5031140e29b309ea19e1e8dfb0fa8e6feb47bcb3924530d2fab2cf4469c38e4c68e6323af6651cf55ee0d2e07656f12c396e1a88e6610a52128f3d5c55376586a0dca2b7ed3a180e00bfb437441605de45091bde64c390f019eed578b2cf1f33b2d56f7d08986961f9aee788ea266ff76285e6fcfae00d72bd6fb1b10556014e7dfa6104d18d8a0d1e3f2f7363fd94bc5f3d262859c9936a98e9e722e01f51bce5e6509f2dff32033fbfb30a4f4e4d9f5fdf52f169660929f091e9f4bbdd0795c45336ed8067437c9a098b172e8bb0181f237e0b40630779859998be02e3c98058f89400afe01ca1c8c4d7d440e2834675ad657e8e6af8421e1959a1ae3641dcd97e395bf21e9b1b2236407a349d2b5327248fe2bd51eb8f14d719245f72db13fd4d9f5e8a5944306b2b38eefdfbee8044a0b73838eb8c8a70e503f35d3aae5778743b5a46332721b7335bd7f822326bf0666e381cefdc06599b896b973c9048016e6b15ba6668cce2521c235018e232cc2560fc35592ab1f02cce0e65c71d6be4517bb1dd016019fa30828fbfc4963f875531450aadcd1f576d52ddc29035c07e5597cd94e5d1dc9a657ba5c82461cadb04b6c7326b81b79483b9ae0c83bc40b5c7cec02ec73aa807e54a24d43f35f5ab6a343c48abf566f5664c03eea4b356f4571961f30db1ca8f0d5f045d2083fa6ee483921fa9587da1ead7e00e64d059fc68ce5a7dba07d2defc8091456f1abe8ef5009ce9670f1f8ad9f3bc711e42bdb4d88615e696abe7839f70d1a223fdf1875884662e002f9f41c3e1d8e904c5fb5675daa418002bda4b6320dc9c50e7c380a37070f968000a24252a6a8eb0c7d3ddea05263e416290b1b4c3cecff1fa03154e5d849bb9c2c6cbd1e5e9eb0a1634485a5b6164879198c3e7ea0000000000000000000000000000000000000000000000000000000c19273501",
        "009e305601c094a5bd38bfd577fa8749231ce2cc362cdd14c5079ac8d842e03b3b6cce347fcee26918570f75542dc6dd1ad4f925f03179f8edbf8c295170182f033e6f5ff65c8579ba6d453412d3e0c7e2bce45fbb3f20e1f9306b85d7673d32a1720e885901e523dc7a24e067d56c455ab482347c4c93e92ded9e692fcf807c4298a012a23d89a8d1ea51a1fc08cb10e8c02622731205ab065cb80ebf617a4821c96ae9f199bd2f2341fc500523af4d1a9106015fab4344ce74d62c232fee76b257e1d4df5df16bcffdc98a02b2d593a55aeed7a053f779f647587fd88604f60e3fa21779d85bb75bae2e3cc2df9c2165f0415ee4b2a9fb7fef2ffaecb6bb8e94789b5d208e331cee168fa1a25553e8c0fb89a219f00a7a416b7391dc4984291ccb2b3a2260eed3738bf98830b5ef2e338b503bb45e976117b26af31272510de8a08543149ad1ce3e7b34034eed38971f8ab7fa41a7c3650f13d657ae5c1be849140188456a1913737abe4d90f1eb4e64832d3c2b9e4378413a9acefcb1ce818efd4affcc2d29114d99ceedb9ba90e188bfefce0196085dae972196b2c9a51b53109c0dde7f2127da0d2dbd7de14ff58ffb3b123c5742cb65ff89ab74a8c22ad9017aa8c0ea1145c37a13cc12a7a263d65d16fd737b5601c64138a8bbadfa4ffd344a0e71e45b6ab703cecc5a439ae670144f11cea4bf1244e3ad99a34ba48ead510a02199352085db394c1c4179264aa875fd229c3643b8d9a1fe2b4ba424bdb0743e7063d9bb11c75d8517bf4b7e494afa5be31d91d8882122787b5044f794cea68151f83450387010880287071f0acd19bda7d8803810777caf05c4e9c087f5fe8b1c0f8f0f1d8eee0b8186a7d347440b4dcdfa017646f176f711267c8701c3717982f6ac7da20e53e1f7b9afd9e8e5bfd06252456f5232a25f85e520a03d3aa0f5f088d59c71118794ba76c24342d88721e5c70522a219fca3006dfa4b6c81fd853bd5ad6b7268d02ff59d36dbc1c811698d91dee886932761ffe0a01a2e027e57ac757abcd1322545184a7bcb4b3813b7ec66ca0e2ea29b2b2c44f8cddc57ba944dc786958ded3a4655a709a088909344f94a21e0f7068e30a63430cc93602c73848b55ca070631e2d03685d93f7f30f60233b23b79bf0b39e585309cbf53ac89480de12cbcb76f919d986accb31ad9b88996062113a04acccbe5f97533ac601df2145158db3c7555e82ab52c7f2aaa3e813228d61aee492e4fe84f06cea9fc977d96e1577bcb712d332f11624862f1608358f965746ce713daa5131108376e51a5962f75a390cf5e76fad26886b92c1afe4d41ca3ef335e4dec9f40120f411b9adde7e294b216a7c7896951d38fcedbe7dc3bee9bf5fe46b31390a93e69a9dca4b678a4069657187afe6a065efc491bdecc1e4b7088785429e9106e25134b0029f53a31add4a500705e98f939819b3b130d80d1e7a092ebacc394525ad397560c980352f224e46b5f36b9620bebd3e5f61e99f801537e8f393212ae16251da675f392279054a9e7df8f36e7e0380203f379a733bb9d7f7dc5a1b30bceeff40f8fce2662208385c9ca5067f5a65a15406dae6d02fb917896dbcf1216161aaea57ca2cb227a2aba6346706e95c05cebba7a5cc16d717d4e9f1f87808aa2f1d91d95ccd0ae766fd6ac2c8fdebe24834a56bbddbc4b67ae9fdd7d0e650f44d833909f19268990290135c11a6116347ed84d39bd7c014ca9e0761debcff56af1aa566195918a7f13c7cb6b114e70f24ab3912e631464a004a77218580e14396eee1569002ac5599eee31f3dc60b79833ebbf2716c72f429b32a4c90eaf95dff2"
      ],
      "sequence": 4294967294
    }
  ],
  "vout": [
    {
      "value": 499993.8986,
      "n": 0,
      "scriptPubKey": {
        "asm": "1 b951628d11610efcb957042159b9745e82e991c3a5860dc3d9b4e66fd9efe44f",
        "hex": "5120b951628d11610efcb957042159b9745e82e991c3a5860dc3d9b4e66fd9efe44f",
        "reqSigs": 1,
        "type": "witness_v1_scripthash",
        "addresses": [
          "3QJmnh"
        ]
      }
    },
    {
      "value": 1.0,
      "n": 1,
      "scriptPubKey": {
        "asm": "OP_RETURN 3e90683f309ad006e9b05b3a452d53df8cd49bf9c27e4b4b7e3e21079a269cad 81d2ef9e2233df18c830074130d391133b42e5ec539e4ce085e095340df790b4a1f2cfbe0213ff38e810276110f3b1331b62c5cc73be6cc0a5c0b5142dd7b094c192afde62739f58887047017093d1537b02a5ac13de0ca0c5a0d5744db7d0f4e1b28ffe4253bf78a850672150b3f1735b22858c33fe2c80e580f5546d97f0d401526f1ea2b35f9848b087c1b0531193bbc2656cd31ecc60056015b48d77103421724f3e82937fb86890a7e1907331b39be2454cf33eec4025403594ad57301441122f5ee2f31fd808f0c781f01351d3fb82252c935e8c20452055f4cd37507461320f7ec2d33ff828d0e7a1d03371f3dba2050cb37eac00650075d4ed17705481d2ef9e2233df18c830074130d391133b42e5ec539e4ce085e095340df790b4a1f2cfbe0213ff38e810276110f3b1331b62c5cc73be6cc0a5c0b5142dd7b094c192afde62739f58887047017093d1537b02a5ac13de0ca0c5a0d5744db7d0f4e1b28ffe4253bf78a850672150b3f1735b22858c33fe2c80e580f5546d97f0d401526f1ea2b35f9848b087c1b0531193bbc2656cd31ecc60056015b48d77103421724f3e82937fb86890a7e1907331b39be2454cf33eec4025403594ad57301441122f5ee2f31fd808f0c781f01351d3fb82252c935e8c20452055f4cd37507461320f7ec2d33ff828d0e7a1d03371f3dba2050cb37eac00650075d4ed17705481d2ef9e2233df18c830074130d391133b42e5ec539e4ce085e095340df790b4a1f2cfbe0213ff38e810276110f3b1331b62c5cc73be6cc0a5c0b5142dd7b094c192afde62739f58887047017093d1537b02a5ac13de0ca0c5a0d5744db7d0f4e1b28ffe4253bf78a850672150b3f1735b22858c33fe2c80e580f5546d97f0d401526f1ea2b35f9848b087c1b0531193bbc2656cd31ecc60056015b48d77103421724f3e82937fb86890a7e1907331b39be2454cf33eec4025403594ad57301441122f5ee2f31fd808f0c781f01351d3fb82252c935e8c20452055f4cd37507461320f7ec2d33ff828d0e7a1d03371f3dba2050cb37eac00650075d4ed17705481d2ef9e2233df18c830074130d391133b42e5ec539e4ce085e095340df790b4a1f2cfbe0213ff38e810276110f3b1331b62c5cc73be6cc0a5c0b5142dd7b094c192afde62739f58887047017093d1537b02a5ac13de0ca0c5a0d5744db7d0f4e1b28ffe4253bf78a850672150b3f1735b22858c33fe2c80e580f5546d97f0d401526f1ea2b35f9848b087c1b0531193bbc2656cd31ecc60056015b48d77103421724f3e82937fb86890a7e1907331b39be2454cf33eec4025403594ad57301441122f5ee2f31fd808f0c781f01351d3fb82252c935e8c20452055f4cd37507461320f7ec2d33ff828d0e7a1d03371f3dba2050cb37eac00650075d4ed17705481d2ef9e2233df18c830074130d391133b42e5ec539e4ce085e095340df790b4a1f2cfbe0213ff38e810276110f3b1331b62c5cc73be6cc0a5c0b5142dd7b094c192afde62739f58887047017093d1537b02a5ac13de0ca0c5a0d5744db7d0f4e1b28ffe4253bf78a850672150b3f1735b22858c33fe2c80e580f5546d97f0d401526f1ea2b35f9848b087c1b0531193577b932589868afb33953c448330c7d59170a538fbcd137b5321dfeac4014bd0",
        "hex": "6a203e90683f309ad006e9b05b3a452d53df8cd49bf9c27e4b4b7e3e21079a269cad4db00481d2ef9e2233df18c830074130d391133b42e5ec539e4ce085e095340df790b4a1f2cfbe0213ff38e810276110f3b1331b62c5cc73be6cc0a5c0b5142dd7b094c192afde62739f58887047017093d1537b02a5ac13de0ca0c5a0d5744db7d0f4e1b28ffe4253bf78a850672150b3f1735b22858c33fe2c80e580f5546d97f0d401526f1ea2b35f9848b087c1b0531193bbc2656cd31ecc60056015b48d77103421724f3e82937fb86890a7e1907331b39be2454cf33eec4025403594ad57301441122f5ee2f31fd808f0c781f01351d3fb82252c935e8c20452055f4cd37507461320f7ec2d33ff828d0e7a1d03371f3dba2050cb37eac00650075d4ed17705481d2ef9e2233df18c830074130d391133b42e5ec539e4ce085e095340df790b4a1f2cfbe0213ff38e810276110f3b1331b62c5cc73be6cc0a5c0b5142dd7b094c192afde62739f58887047017093d1537b02a5ac13de0ca0c5a0d5744db7d0f4e1b28ffe4253bf78a850672150b3f1735b22858c33fe2c80e580f5546d97f0d401526f1ea2b35f9848b087c1b0531193bbc2656cd31ecc60056015b48d77103421724f3e82937fb86890a7e1907331b39be2454cf33eec4025403594ad57301441122f5ee2f31fd808f0c781f01351d3fb82252c935e8c20452055f4cd37507461320f7ec2d33ff828d0e7a1d03371f3dba2050cb37eac00650075d4ed17705481d2ef9e2233df18c830074130d391133b42e5ec539e4ce085e095340df790b4a1f2cfbe0213ff38e810276110f3b1331b62c5cc73be6cc0a5c0b5142dd7b094c192afde62739f58887047017093d1537b02a5ac13de0ca0c5a0d5744db7d0f4e1b28ffe4253bf78a850672150b3f1735b22858c33fe2c80e580f5546d97f0d401526f1ea2b35f9848b087c1b0531193bbc2656cd31ecc60056015b48d77103421724f3e82937fb86890a7e1907331b39be2454cf33eec4025403594ad57301441122f5ee2f31fd808f0c781f01351d3fb82252c935e8c20452055f4cd37507461320f7ec2d33ff828d0e7a1d03371f3dba2050cb37eac00650075d4ed17705481d2ef9e2233df18c830074130d391133b42e5ec539e4ce085e095340df790b4a1f2cfbe0213ff38e810276110f3b1331b62c5cc73be6cc0a5c0b5142dd7b094c192afde62739f58887047017093d1537b02a5ac13de0ca0c5a0d5744db7d0f4e1b28ffe4253bf78a850672150b3f1735b22858c33fe2c80e580f5546d97f0d401526f1ea2b35f9848b087c1b0531193bbc2656cd31ecc60056015b48d77103421724f3e82937fb86890a7e1907331b39be2454cf33eec4025403594ad57301441122f5ee2f31fd808f0c781f01351d3fb82252c935e8c20452055f4cd37507461320f7ec2d33ff828d0e7a1d03371f3dba2050cb37eac00650075d4ed17705481d2ef9e2233df18c830074130d391133b42e5ec539e4ce085e095340df790b4a1f2cfbe0213ff38e810276110f3b1331b62c5cc73be6cc0a5c0b5142dd7b094c192afde62739f58887047017093d1537b02a5ac13de0ca0c5a0d5744db7d0f4e1b28ffe4253bf78a850672150b3f1735b22858c33fe2c80e580f5546d97f0d401526f1ea2b35f9848b087c1b0531193577b932589868afb33953c448330c7d59170a538fbcd137b5321dfeac4014bd0",
        "type": "nulldata"
      }
    }
  ],
  "blockhash": "32a2d379a33ec88ae1cb3a8a1a44f2d12b76aebf574ecf7ac16b289397ed6cd9",
  "confirmations": 1,
  "time": 1764176557,
  "blocktime": 1764176557
}