{
  "hex": "0100000000010120411d799ecbad3bb2783a4d1ec02de97201324fa3a119b380b1959ff8fe1eb10000000000feffffff02907857cc782d0000225120ddc5fa2a169b709b2a6613283533a3e6aaaa30f09fa2e17e30254047227b1d8e00e1f50500000000fdd5046a20c2f8ec293395c5d71483cc5e5f8cd2306038b135a04bc2624c378ddc82f636914db0042971abc6a7ba27b5502e2949b44c5e9a95768fa1b84b0c8d1e05d6a1c7587cbe09518be6879a0795700e0969946c7ebab556af81986b2cad3e25f681e7785c9e6931eb86e7fa67f5106e6909f40c1edad536cfe1f80b4ccd5e4596e187183cfe4911cba6c7da47d5304e4929d42c3efaf516efc1d82b6ced7e65b6c1a7381cdea9f12b46273aa735d0aea9c934ccde1a15f60f2138cb8c0d9e85562147d8fc3e89d10b66071a8715f08e89e914ecfe3a35d62f0118ebac2dbea5760167f8dc1ee9b16b06677ae77590eee989748c9e5a55b64f61788bcc4ddec516610798bc7ec9914b26475ac755b0cec9a954acbe7a75966f4158abec6dfee5364127b89c5e2971abc6a7ba27b5502e2949b44c5e9a95768fa1b84b0c8d1e05d6a1c7587cbe09518be6879a0795700e0969946c7ebab556af81986b2cad3e25f681e7785c9e6931eb86e7fa67f5106e6909f40c1edad536cfe1f80b4ccd5e4596e187183cfe4911cba6c7da47d5304e4929d42c3efaf516efc1d82b6ced7e65b6c1a7381cdea9f12b46273aa735d0aea9c934ccde1a15f60f2138cb8c0d9e85562147d8fc3e89d10b66071a8715f08e89e914ecfe3a35d62f0118ebac2dbea5760167f8dc1ee9b16b06677ae77590eee989748c9e5a55b64f61788bcc4ddec516610798bc7ec9914b26475ac755b0cec9a954acbe7a75966f4158abec6dfee5364127b89c5e2971abc6a7ba27b5502e2949b44c5e9a95768fa1b84b0c8d1e05d6a1c7587cbe09518be6879a0795700e0969946c7ebab556af81986b2cad3e25f681e7785c9e6931eb86e7fa67f5106e6909f40c1edad536cfe1f80b4ccd5e4596e187183cfe4911cba6c7da47d5304e4929d42c3efaf516efc1d82b6ced7e65b6c1a7381cdea9f12b46273aa735d0aea9c934ccde1a15f60f2138cb8c0d9e85562147d8fc3e89d10b66071a8715f08e89e914ecfe3a35d62f0118ebac2dbea5760167f8dc1ee9b16b06677ae77590eee989748c9e5a55b64f61788bcc4ddec516610798bc7ec9914b26475ac755b0cec9a954acbe7a75966f4158abec6dfee5364127b89c5e2971abc6a7ba27b5502e2949b44c5e9a95768fa1b84b0c8d1e05d6a1c7587cbe09518be6879a0795700e0969946c7ebab556af81986b2cad3e25f681e7785c9e6931eb86e7fa67f5106e6909f40c1edad536cfe1f80b4ccd5e4596e187183cfe4911cba6c7da47d5304e4929d42c3efaf516efc1d82b6ced7e65b6c1a7381cdea9f12b46273aa735d0aea9c934ccde1a15f60f2138cb8c0d9e85562147d8fc3e89d10b66071a8715f08e89e914ecfe3a35d62f0118ebac2dbea5760167f8dc1ee9b16b06677ae77590eee989748c9e5a55b64f61788bcc4ddec516610798bc7ec9914b26475ac755b0cec9a954acbe7a75966f4158abec6dfee5364127b89c5e2971abc6a7ba27b5502e2949b44c5e9a95768fa1b84b0c8d1e05d6a1c7587cbe09518be6879a0795700e0969946c7ebab556af81986b2cad3e25f681e7785c9e6931eb86e7fa67f5106e6909f40c1edad536cfe1f80b4ccd5e4596e187183cfe4911cba6c7da47d5304e4929d42c3efaf516efc1d82b6ced7e65b6c1a7381cdea9f12b46273aa735d0aea9c934ccde1a8c0cd4b15e0a31208386bbf01ca403077647eb1a74ddb709a15413cae515911502fd750994d5030ecca2c6d85dc7ab1e63a9dcdf4cb3021c3fde362111d019537ca85a1bdbb431a58b7bd452cfa118ef549af925a094cffd398c11795b75cc04328963c76ba20c372bf73f09d9d3e493c1cf95819ebcc90069a8ac3e8fd0d64712445df2e92f73f83c692fe9544b1a2af844925527c3405dcf905bdfeb3218afde8c5ce8070d9ba22b73cb4cbad181cbae9bf8c73fcceefbde4729d5e922798084b5c39ca3677dbcbe7b8e6a1f955a53ebb454ac60d4cede2ce334750023dfd00b042cd37577d1eaea5f8a6c8796015c499645ef6d692bded0860a93176ca3f463075cb87a4973b353cf121e754f189cb14db940083924f590cba59b1d903fe7ef419bf553c3afb824f0219f20ef7e2df738c2e8314dfdf8c63bd83dc9749943299b640b1c638f7431a36fdcb8b6845fbdd66475d231e1fd1fce3ec77c6d97da8f53cc2a17beeea84869cf35df8c070d788a919e8e61095b0b4ed263e0c3e7ba9d754f8852f0ce980cd8d4b154144755c7fa5bcd0be7c80e02312221935ea982a9a6d93632a7283de836bae280d95b93232da4377251457489725b8d321bd6c6c631804b723930cc49ae8aee16694ef46618479e1171db5be1a0e7082534cd126d02642d874b36575e04311a322e4fe81e1a271c37c865cf8591ff1dedd081a5a2c4af744d3744b2282e4047f111a0520ee9f452c71d428b5b787a7b0e43b94fa2b2a1d7975f81d8dab0cd24858c9d334a4f54b1a4b4b61aa74b224b0631562a5811c7f6be37def60de4b47652c19c6644a6b202092bca88264f5fa344e0da99063547fc39ee9745fe5382e056310976c3ffcc73651f09b5b24347f0fa0d4579c756b78ba7c47bd2d47b53a881c648766d3c2302229a5d91a9b24beb220425f94c753cd46b297617d24f96b5ab7e8b88a0a4611d337112b7241cb112914ee8f3445439ef58c223dd6587b5c0bf0b38fbe26949880a8eb61b756f7a728dc130f89a50a61a40a2d76fde25534b1a7369088a18ee44b1ccfbea456b185b1cedd00b3e33b1303e33f29d45bc11e4a9fb5a496d961db892d8c53f4456febe1cc5bcbe16691021c414e7d961ae59d91460fa9249b9e6af6bfd7deb60485acf7d6e1e9ccb3284aa483edbff7d2910cee9cc638c595ae7b3949af53fd0af2969bfebe50c58383ddf66a3432896e8e85dec3bef8a73ef51ad49471c4cf8df37e14d8752060a8ebdd167916052cb7eba56b8828c62c7afa6bbbbcc2d569295938a7d0e3a21406e3df59f13d9f1061d623650d66a6e86c2d0c357a03b66404e83a1391cad991243a6ce9b525a792c85aba7da6f2d719fe73670f7d90647bdde8bb334e9f3b36e9f65da729be0c3d69512895eeb4d286f36c6ea97f268a43dc01eeb7f6955f43923cd19d33f94bdadf99177f7ea3e1d510ff6a0f822c018a03d0a984a88607ab45b599564c76eab5588bf1b78afa478443a29280c215fd5f37a9ae2174a9ad04c38a7221443c7fb7e235f4e653bf0e5cb804b4785c48cabb4d2e6f7daef3ff9e34361dcc5fe9d22e279c0cdf7a14fd4f7e0f78ed9656cc7b8c89fbe6f59265f72d72388c3196f15b713b527a324563152ee536b8e2383e000fae968564a88fa19f817c5c4ffcb0d156902b196e362393bf88985e609b1e90129adfd6fb7a41a99fbafa0591aaa9ec523d877318995c15f39399a4dd9b14096007773b5ee9bf8fa025457fb86ff31d6694d4d2e277e94150b1ebb87086788207d05809684545ba4ff5605d61f26f25efd0a8ff4ad7ca7e18ae27a89757b4855e02ce89f812e5e6fa641df88dbf8476f4be95e224e3445f07f61eb5e4b8adbe820c583ec38ce333932a1452f26ee5c87a9ebdf3e76a0107e193ee62fc13420c107a07f6c6c44336de2e649cc83e5e2dbaa044a05364953fc5b15e36338ebc8b073150b450ddf0eedf78fd41a3cd7653071d99c7665168a348555a436084d6a4cca345897168744729ea3e0f4d5087904a840f963c53d12754b69f08d96efba53fc366bdad090de453159e7b39f31ad56d436b2b06aaa2da3e18beb660dedbb5c8fb2e13272fee8023f97aebd86e01443ca739544921e5e3eb53ced027fa6338cf66e8ad86a54ce232d114ac37f8bfe565bf7413055bde09e87b021417c7952a02f8e1b3d8af31daa13e38652c5e742190fc47a61dfa216ce1f2899dcc2c54d802055fbb221204c2fc05a7653c9376715750e6507ec95e9ba68712c5e095973acd8f0fd65de55b0837cf7647b5231f0c2970c5c7449e0e42435042ba33a26b2b7834bfd5459d6fd2888dbb85e18e9d9b9fc8471e5996a8e1f82364f64d5a2c1cc578f6eeda275041a9f9c517f203600fde0bc95a9ff3969053ab2363f243dadbde0203d0d6e2046cb9b91e5ad6341ea2cbeb4aee453c468ccef86baf4eaa9686200bc89e8e028594039196cbba39035d23e951355841175e720b14d19b9a99195ea0248fb46d6044508b47f4c1b15f6b3d0f6cfa091352b8737ee694173717cfe00af1ebe0b863c39649f7f63bf7e829e4fab17165adf7d649527ad7451aa0435005dbe7698610d103f673cb366c9d4cd36b81e4a9c032cd76c5f97b03eff3100245c7013f0d0d6f71e6ca6fac39013bd831eeb17153099e7d630a9f80eb48f4177adbd2af1a49fdbf37b3d2edc1a66b131e772861093c28e00020e1aa4753757a7977758fa08dc5cbf916fdcd61fa70c1ed0a458dc6d5a24210baa69b612513576904017a4be0ed07235f8bdada5409cdfeca3e4046b62b0cceb8ece8f75766e55c125274a08dc1bdacb01d4070ed3d816ac0282b28bce38ced36bfe08893a28b71bf169a3dabb8c84dcd82a26d2bea3cc529e695fa2ba0c045c2a8c829a4a6eac4f0ba5b0d1790a006792f853f13d1c5010de31eafe8f40dfe6a152fee0d86f607b403a7dd8f4614e95099093a7891bad1741e9bf976fd44eaba5d687096079a4e7659f0b7b25edc739b72f816e2d98f5ece3d65f3b67970c7399f11252bfbd804b66cfcaa39322274a79e2cc12b1aa2b46f5bde184db3fcb21d32e8611af10654dd912a4a92ab89c7c22332d9b434f5aed99ac9496612e17721d159a35c4768c3b9470edcfdaa8600a7ac65622b7e7759221ddd8ed72caa7092307929862ed6f5258132b2e0bc6ba94c7bc85b2f96c4a60d0a989435beef1599d8c9b8e9efcf9d056211fde531793af01327edf13569ab98fadc9685c862ff4878dd88fd1d2f3bc8e46b6e38a3bf19e7e6bebd2578c32032529cfc030ae1d16f0b272a2b421d9392e115b1f058c16e99617222d2e59707c919cd6f8053036373f4d508f949ba0a8b7dce61d2b58636d919fa2a4aaabc1c2cfd0f2001c555e61707479839da0b9c6cdced2f2f400000000000000000000000000000000000000000b1a2a3c01fd210500e8bf5b734a1df8450a3f5c1ab106f309b557f0f3e796ba9528904e7737b0213cb05a6e59fa3e4336a5578fd76d1d0c627e6395e08b5f56da74339b8067e10e0868efda1ab738b2d65c67567bf89df048ff5becc56a722c2c6b7ce32ce69e84a310fab1dbb2d55d12dd577f6847cee1371a2a2eb515639236f69b3d6afbcfecefc4c25041e623d899c799c0f0e087fda5a04076ecbffe9e0a7ebfc761c213fc9eb595dbada9ea4ca68e72936712431a72add0efd1bdade06719f1d43f0ec69c30c87fb557aee419ef23b83c7205be50d67c5798853e89e3f5ac7b3dec1cd8b4f74c87a1670f7c51d61699a6108a23ea157f5f9f00cf840679be9853ee24bb397a99f56eae36d56cadf1d3a294bc9f5f065d3b8526a7800cc106b9061fd60347f0809484c67e44b28f3c26956af8df7de04881e6b659ff2bb837967470c84be2a73d36f4ee20a1d91d9d3ba391b17a5fbdc363d3501c562722820a786ff32f936f79bc08a753c8eeb81e8d2134948c402a6799b76e0783752928a54c258ccc4cc60ca5e1517c6187d6a2744ba73cf4d7c264f7457c74c8216b6aa73410007e38c15c0bee8c5d95454c1abc75dce8b77a10a8fd86d474a659b059d22753e49297e3f5a037263286d8a1511b8b73c3b297d2f46623336bc11f86f877dee4c2a065c66b8e084d6a0b16b64d4b6100ab1ace0986d6c04a7f7cd100dadab84c61834f63f07f99527e48807d41c9619ce8be4b6db1d6a69ded2cfef1e69bf9f752bca5855378d1768239be9a79ee9c1cfeac02ce254b418944f648e0f1229efdcdc8b240b75845cb67feb5777c6b80ad8e94cd3c039cffc51a3c3de707d5380beea3e58481012fa43fd98c88a0058478d2eff7b8df6074e441c11824550ba66d0888011f6f49c25f07e71acac2a768b6ae26d3cc08632a8948f3694b568257f08e5cc894bcf6d093f09499a86ec004c8e90ee947a7eaaa2b02d21326d5a924e415fed3abadf24cfe3fb1bd7e94c1d7fc62ed4fb879ae32a24a4be229842d0631ce9c0f69495803b32a0c827c50e3722bb3f4cb32e94399f996247420dd8235bd84a161422b81153c793a2fd913f7e957f375c4afc88d2b1484423b97e5181feb0d1e27c7e84590cd9cd4aaf95bdb14b2a9611382e0192b9c70a53d02ee708b574c594c50c23f737217b729f9b73b9f2df2009e4e92ebc1452828383ce0c7c0e215de839da1cbf46153a836b2e0326f9826b5594c97e88194a61ab71dc6a3b57accdcab8c97c1cc7634fcddbb30898c21977a3c3344dd156fc73c66280b091724b315a3fab47aa608beee0bd9ec6b95764455d46152c12c076e2d72f2889cee93610f42ae6391abff0450b0e6b791660253616e08c3781d6e8effcc656489013798a080d4e4460779f7e33f2db3321e0be4493e0b9ff4945aa0cd6d70371cdee28bd28b945fa85cd0be43d72596e67ad0158cda2d69d8d4b347f42936540374f91613258f64e96482d0850042776d8713c5fa546db4ff3e5a04f9600f64eb665f8062b1529ecdf9e5a04dbcd3a31925d1a1978dadf599c4755625bfb3902a40f4390870fb7c420a11b03a6746557873487ac04742e97ecc4dba8ed8fe1c8b4e11b517973d4e76af3029d4414e3bb4e644a7ba36396a7039b7b0f72c555c7a0cfdbd22775cd9f185186fac27b6e7c7c17b4aa91db2a5d77daabcc9ef358650fb2daeda8ad1e4335eed20447671bd41c1374197e6e021ee81b581cac9f72ea12eac49cc3fca6ac876150aecf4acbb6256564545e41fb35a43d815c382f90ca9ef431650f51491a2f024b7c3b0f5a1d11c11072261e147120cbe70b692ee128d9fc994b38df288000000",
  "txid": "18318ab4b1966c556924f1f1efe5518d6c4f9d148723d156d2e6ba10f31c24f9",
  "hash": "3a332b2216ec3e9b16fa41609cd97b0ac937f118124c0cd643cfe2b5e55cbc5c",
  "size": 5085,
  "vsize": 2278,
  "version": 1,
  "locktime": 136,
  "vin": [
    {
      "txid": "b11efef89f95b180b319a1a34f320172e92dc01e4d3a78b23badcb9e791d4120",
      "vout": 0,
      "scriptSig": {
        "asm": "",
        "hex": ""
      },
      "txinwitness": [
        "94d5030ecca2c6d85dc7ab1e63a9dcdf4cb3021c3fde362111d019537ca85a1bdbb431a58b7bd452cfa118ef549af925a094cffd398c11795b75cc04328963c76ba20c372bf73f09d9d3e493c1cf95819ebcc90069a8ac3e8fd0d64712445df2e92f73f83c692fe9544b1a2af844925527c3405dcf905bdfeb3218afde8c5ce8070d9ba22b73cb4cbad181cbae9bf8c73fcceefbde4729d5e922798084b5c39ca3677dbcbe7b8e6a1f955a53ebb454ac60d4cede2ce334750023dfd00b042cd37577d1eaea5f8a6c8796015c499645ef6d692bded0860a93176ca3f463075cb87a4973b353cf121e754f189cb14db940083924f590cba59b1d903fe7ef419bf553c3afb824f0219f20ef7e2df738c2e8314dfdf8c63bd83dc9749943299b640b1c638f7431a36fdcb8b6845fbdd66475d231e1fd1fce3ec77c6d97da8f53cc2a17beeea84869cf35df8c070d788a919e8e61095b0b4ed263e0c3e7ba9d754f8852f0ce980cd8d4b154144755c7fa5bcd0be7c80e02312221935ea982a9a6d93632a7283de836bae280d95b93232da4377251457489725b8d321bd6c6c631804b723930cc49ae8aee16694ef46618479e1171db5be1a0e7082534cd126d02642d874b36575e04311a322e4fe81e1a271c37c865cf8591ff1dedd081a5a2c4af744d3744b2282e4047f111a0520ee9f452c71d428b5b787a7b0e43b94fa2b2a1d7975f81d8dab0cd24858c9d334a4f54b1a4b4b61aa74b224b0631562a5811c7f6be37def60de4b47652c19c6644a6b202092bca88264f5fa344e0da99063547fc39ee9745fe5382e056310976c3ffcc73651f09b5b24347f0fa0d4579c756b78ba7c47bd2d47b53a881c648766d3c2302229a5d91a9b24beb220425f94c753cd46b297617d24f96b5ab7e8b88a0a4611d337112b7241cb112914ee8f3445439ef58c223dd6587b5c0bf0b38fbe26949880a8eb61b756f7a728dc130f89a50a61a40a2d76fde25534b1a7369088a18ee44b1ccfbea456b185b1cedd00b3e33b1303e33f29d45bc11e4a9fb5a496d961db892d8c53f4456febe1cc5bcbe16691021c414e7d961ae59d91460fa9249b9e6af6bfd7deb60485acf7d6e1e9ccb3284aa483edbff7d2910cee9cc638c595ae7b3949af53fd0af2969bfebe50c58383ddf66a3432896e8e85dec3bef8a73ef51ad49471c4cf8df37e14d8752060a8ebdd167916052cb7eba56b8828c62c7afa6bbbbcc2d569295938a7d0e3a21406e3df59f13d9f1061d623650d66a6e86c2d0c357a03b66404e83a1391cad991243a6ce9b525a792c85aba7da6f2d719fe73670f7d90647bdde8bb334e9f3b36e9f65da729be0c3d69512895eeb4d286f36c6ea97f268a43dc01eeb7f6955f43923cd19d33f94bdadf99177f7ea3e1d510ff6a0f822c018a03d0a984a88607ab45b599564c76eab5588bf1b78afa478443a29280c215fd5f37a9ae2174a9ad04c38a7221443c7fb7e235f4e653bf0e5cb804b4785c48cabb4d2e6f7daef3ff9e34361dcc5fe9d22e279c0cdf7a14fd4f7e0f78ed9656cc7b8c89fbe6f59265f72d72388c3196f15b713b527a324563152ee536b8e2383e000fae968564a88fa19f817c5c4ffcb0d156902b196e362393bf88985e609b1e90129adfd6fb7a41a99fbafa0591aaa9ec523d877318995c15f39399a4dd9b14096007773b5ee9bf8fa025457fb86ff31d6694d4d2e277e94150b1ebb87086788207d05809684545ba4ff5605d61f26f25efd0a8ff4ad7ca7e18ae27a89757b4855e02ce89f812e5e6fa641df88dbf8476f4be95e224e3445f07f61eb5e4b8adbe820c583ec38ce333932a1452f26ee5c87a9ebdf3e76a0107e193ee62fc13420c107a07f6c6c44336de2e649cc83e5e2dbaa044a05364953fc5b15e36338ebc8b073150b450ddf0eedf78fd41a3cd7653071d99c7665168a348555a436084d6a4cca345897168744729ea3e0f4d5087904a840f963c53d12754b69f08d96efba53fc366bdad090de453159e7b39f31ad56d436b2b06aaa2da3e18beb660dedbb5c8fb2e13272fee8023f97aebd86e01443ca739544921e5e3eb53ced027fa6338cf66e8ad86a54ce232d114ac37f8bfe565bf7413055bde09e87b021417c7952a02f8e1b3d8af31daa13e38652c5e742190fc47a61dfa216ce1f2899dcc2c54d802055fbb221204c2fc05a7653c9376715750e6507ec95e9ba68712c5e095973acd8f0fd65de55b0837cf7647b5231f0c2970c5c7449e0e42435042ba33a26b2b7834bfd5459d6fd2888dbb85e18e9d9b9fc8471e5996a8e1f82364f64d5a2c1cc578f6eeda275041a9f9c517f203600fde0bc95a9ff3969053ab2363f243dadbde0203d0d6e2046cb9b91e5ad6341ea2cbeb4aee453c468ccef86baf4eaa9686200bc89e8e028594039196cbba39035d23e951355841175e720b14d19b9a99195ea0248fb46d6044508b47f4c1b15f6b3d0f6cfa091352b8737ee694173717cfe00af1ebe0b863c39649f7f63bf7e829e4fab17165adf7d649527ad7451aa0435005dbe7698610d103f673cb366c9d4cd36b81e4a9c032cd76c5f97b03eff3100245c7013f0d0d6f71e6ca6fac39013bd831eeb17153099e7d630a9f80eb48f4177adbd2af1a49fdbf37b3d2edc1a66b131e772861093c28e00020e1aa4753757a7977758fa08dc5cbf916fdcd61fa70c1ed0a458dc6d5a24210baa69b612513576904017a4be0ed07235f8bdada5409cdfeca3e4046b62b0cceb8ece8f75766e55c125274a08dc1bdacb01d4070ed3d816ac0282b28bce38ced36bfe08893a28b71bf169a3dabb8c84dcd82a26d2bea3cc529e695fa2ba0c045c2a8c829a4a6eac4f0ba5b0d1790a006792f853f13d1c5010de31eafe8f40dfe6a152fee0d86f607b403a7dd8f4614e95099093a7891bad1741e9bf976fd44eaba5d687096079a4e7659f0b7b25edc739b72f816e2d98f5ece3d65f3b67970c7399f11252bfbd804b66cfcaa39322274a79e2cc12b1aa2b46f5bde184db3fcb21d32e8611af10654dd912a4a92ab89c7c22332d9b434f5aed99ac9496612e17721d159a35c4768c3b9470edcfdaa8600a7ac65622b7e7759221ddd8ed72caa7092307929862ed6f5258132b2e0bc6ba94c7bc85b2f96c4a60d0a989435beef1599d8c9b8e9efcf9d056211fde531793af01327edf13569ab98fadc9685c862ff4878dd88fd1d2f3bc8e46b6e38a3bf19e7e6bebd2578c32032529cfc030ae1d16f0b272a2b421d9392e115b1f058c16e99617222d2e59707c919cd6f8053036373f4d508f949ba0a8b7dce61d2b58636d919fa2a4aaabc1c2cfd0f2001c555e61707479839da0b9c6cdced2f2f400000000000000000000000000000000000000000b1a2a3c01",
        "00e8bf5b734a1df8450a3f5c1ab106f309b557f0f3e796ba9528904e7737b0213cb05a6e59fa3e4336a5578fd76d1d0c627e6395e08b5f56da74339b8067e10e0868efda1ab738b2d65c67567bf89df048ff5becc56a722c2c6b7ce32ce69e84a310fab1dbb2d55d12dd577f6847cee1371a2a2eb515639236f69b3d6afbcfecefc4c25041e623d899c799c0f0e087fda5a04076ecbffe9e0a7ebfc761c213fc9eb595dbada9ea4ca68e72936712431a72add0efd1bdade06719f1d43f0ec69c30c87fb557aee419ef23b83c7205be50d67c5798853e89e3f5ac7b3dec1cd8b4f74c87a1670f7c51d61699a6108a23ea157f5f9f00cf840679be9853ee24bb397a99f56eae36d56cadf1d3a294bc9f5f065d3b8526a7800cc106b9061fd60347f0809484c67e44b28f3c26956af8df7de04881e6b659ff2bb837967470c84be2a73d36f4ee20a1d91d9d3ba391b17a5fbdc363d3501c562722820a786ff32f936f79bc08a753c8eeb81e8d2134948c402a6799b76e0783752928a54c258ccc4cc60ca5e1517c6187d6a2744ba73cf4d7c264f7457c74c8216b6aa73410007e38c15c0bee8c5d95454c1abc75dce8b77a10a8fd86d474a659b059d22753e49297e3f5a037263286d8a1511b8b73c3b297d2f46623336bc11f86f877dee4c2a065c66b8e084d6a0b16b64d4b6100ab1ace0986d6c04a7f7cd100dadab84c61834f63f07f99527e48807d41c9619ce8be4b6db1d6a69ded2cfef1e69bf9f752bca5855378d1768239be9a79ee9c1cfeac02ce254b418944f648e0f1229efdcdc8b240b75845cb67feb5777c6b80ad8e94cd3c039cffc51a3c3de707d5380beea3e58481012fa43fd98c88a0058478d2eff7b8df6074e441c11824550ba66d0888011f6f49c25f07e71acac2a768b6ae26d3cc08632a8948f3694b568257f08e5cc894bcf6d093f09499a86ec004c8e90ee947a7eaaa2b02d21326d5a924e415fed3abadf24cfe3fb1bd7e94c1d7fc62ed4fb879ae32a24a4be229842d0631ce9c0f69495803b32a0c827c50e3722bb3f4cb32e94399f996247420dd8235bd84a161422b81153c793a2fd913f7e957f375c4afc88d2b1484423b97e5181feb0d1e27c7e84590cd9cd4aaf95bdb14b2a9611382e0192b9c70a53d02ee708b574c594c50c23f737217b729f9b73b9f2df2009e4e92ebc1452828383ce0c7c0e215de839da1cbf46153a836b2e0326f9826b5594c97e88194a61ab71dc6a3b57accdcab8c97c1cc7634fcddbb30898c21977a3c3344dd156fc73c66280b091724b315a3fab47aa608beee0bd9ec6b95764455d46152c12c076e2d72f2889cee93610f42ae6391abff0450b0e6b791660253616e08c3781d6e8effcc656489013798a080d4e4460779f7e33f2db3321e0be4493e0b9ff4945aa0cd6d70371cdee28bd28b945fa85cd0be43d72596e67ad0158cda2d69d8d4b347f42936540374f91613258f64e96482d0850042776d8713c5fa546db4ff3e5a04f9600f64eb665f8062b1529ecdf9e5a04dbcd3a31925d1a1978dadf599c4755625bfb3902a40f4390870fb7c420a11b03a6746557873487ac04742e97ecc4dba8ed8fe1c8b4e11b517973d4e76af3029d4414e3bb4e644a7ba36396a7039b7b0f72c555c7a0cfdbd22775cd9f185186fac27b6e7c7c17b4aa91db2a5d77daabcc9ef358650fb2daeda8ad1e4335eed20447671bd41c1374197e6e021ee81b581cac9f72ea12eac49cc3fca6ac876150aecf4acbb6256564545e41fb35a43d815c382f90ca9ef431650f51491a2f024b7c3b0f5a1d11c11072261e147120cbe70b692ee128d9fc994b38df2"
      ],
      "sequence": 4294967294
    }
  ],
  "vout": [
    {
      "value": 499968.4761,
      "n": 0,
      "scriptPubKey": {
        "asm": "1 ddc5fa2a169b709b2a6613283533a3e6aaaa30f09fa2e17e30254047227b1d8e",
        "hex": "5120ddc5fa2a169b709b2a6613283533a3e6aaaa30f09fa2e17e30254047227b1d8e",
        "reqSigs": 1,
        "type": "witness_v1_scripthash",
        "addresses": [
          "3QJmnh"
        ]
      }
    },
    {
      "value": 1.0,
      "n": 1,
      "scriptPubKey": {
        "asm": "OP_RETURN c2f8ec293395c5d71483cc5e5f8cd2306038b135a04bc2624c378ddc82f63691 2971abc6a7ba27b5502e2949b44c5e9a95768fa1b84b0c8d1e05d6a1c7587cbe09518be6879a0795700e0969946c7ebab556af81986b2cad3e25f681e7785c9e6931eb86e7fa67f5106e6909f40c1edad536cfe1f80b4ccd5e4596e187183cfe4911cba6c7da47d5304e4929d42c3efaf516efc1d82b6ced7e65b6c1a7381cdea9f12b46273aa735d0aea9c934ccde1a15f60f2138cb8c0d9e85562147d8fc3e89d10b66071a8715f08e89e914ecfe3a35d62f0118ebac2dbea5760167f8dc1ee9b16b06677ae77590eee989748c9e5a55b64f61788bcc4ddec516610798bc7ec9914b26475ac755b0cec9a954acbe7a75966f4158abec6dfee5364127b89c5e2971abc6a7ba27b5502e2949b44c5e9a95768fa1b84b0c8d1e05d6a1c7587cbe09518be6879a0795700e0969946c7ebab556af81986b2cad3e25f681e7785c9e6931eb86e7fa67f5106e6909f40c1edad536cfe1f80b4ccd5e4596e187183cfe4911cba6c7da47d5304e4929d42c3efaf516efc1d82b6ced7e65b6c1a7381cdea9f12b46273aa735d0aea9c934ccde1a15f60f2138cb8c0d9e85562147d8fc3e89d10b66071a8715f08e89e914ecfe3a35d62f0118ebac2dbea5760167f8dc1ee9b16b06677ae77590eee989748c9e5a55b64f61788bcc4ddec516610798bc7ec9914b26475ac755b0cec9a954acbe7a75966f4158abec6dfee5364127b89c5e2971abc6a7ba27b5502e2949b44c5e9a95768fa1b84b0c8d1e05d6a1c7587cbe09518be6879a0795700e0969946c7ebab556af81986b2cad3e25f681e7785c9e6931eb86e7fa67f5106e6909f40c1edad536cfe1f80b4ccd5e4596e187183cfe4911cba6c7da47d5304e4929d42c3efaf516efc1d82b6ced7e65b6c1a7381cdea9f12b46273aa735d0aea9c934ccde1a15f60f2138cb8c0d9e85562147d8fc3e89d10b66071a8715f08e89e914ecfe3a35d62f0118ebac2dbea5760167f8dc1ee9b16b06677ae77590eee989748c9e5a55b64f61788bcc4ddec516610798bc7ec9914b26475ac755b0cec9a954acbe7a75966f4158abec6dfee5364127b89c5e2971abc6a7ba27b5502e2949b44c5e9a95768fa1b84b0c8d1e05d6a1c7587cbe09518be6879a0795700e0969946c7ebab556af81986b2cad3e25f681e7785c9e6931eb86e7fa67f5106e6909f40c1edad536cfe1f80b4ccd5e4596e187183cfe4911cba6c7da47d5304e4929d42c3efaf516efc1d82b6ced7e65b6c1a7381cdea9f12b46273aa735d0aea9c934ccde1a15f60f2138cb8c0d9e85562147d8fc3e89d10b66071a8715f08e89e914ecfe3a35d62f0118ebac2dbea5760167f8dc1ee9b16b06677ae77590eee989748c9e5a55b64f61788bcc4ddec516610798bc7ec9914b26475ac755b0cec9a954acbe7a75966f4158abec6dfee5364127b89c5e2971abc6a7ba27b5502e2949b44c5e9a95768fa1b84b0c8d1e05d6a1c7587cbe09518be6879a0795700e0969946c7ebab556af81986b2cad3e25f681e7785c9e6931eb86e7fa67f5106e6909f40c1edad536cfe1f80b4ccd5e4596e187183cfe4911cba6c7da47d5304e4929d42c3efaf516efc1d82b6ced7e65b6c1a7381cdea9f12b46273aa735d0aea9c934ccde1a8c0cd4b15e0a31208386bbf01ca403077647eb1a74ddb709a15413cae5159115",
        "hex": "6a20c2f8ec293395c5d71483cc5e5f8cd2306038b135a04bc2624c378ddc82f636914db0042971abc6a7ba27b5502e2949b44c5e9a95768fa1b84b0c8d1e05d6a1c7587cbe09518be6879a0795700e0969946c7ebab556af81986b2cad3e25f681e7785c9e6931eb86e7fa67f5106e6909f40c1edad536cfe1f80b4ccd5e4596e187183cfe4911cba6c7da47d5304e4929d42c3efaf516efc1d82b6ced7e65b6c1a7381cdea9f12b46273aa735d0aea9c934ccde1a15f60f2138cb8c0d9e85562147d8fc3e89d10b66071a8715f08e89e914ecfe3a35d62f0118ebac2dbea5760167f8dc1ee9b16b06677ae77590eee989748c9e5a55b64f61788bcc4ddec516610798bc7ec9914b26475ac755b0cec9a954acbe7a75966f4158abec6dfee5364127b89c5e2971abc6a7ba27b5502e2949b44c5e9a95768fa1b84b0c8d1e05d6a1c7587cbe09518be6879a0795700e0969946c7ebab556af81986b2cad3e25f681e7785c9e6931eb86e7fa67f5106e6909f40c1edad536cfe1f80b4ccd5e4596e187183cfe4911cba6c7da47d5304e4929d42c3efaf516efc1d82b6ced7e65b6c1a7381cdea9f12b46273aa735d0aea9c934ccde1a15f60f2138cb8c0d9e85562147d8fc3e89d10b66071a8715f08e89e914ecfe3a35d62f0118ebac2dbea5760167f8dc1ee9b16b06677ae77590eee989748c9e5a55b64f61788bcc4ddec516610798bc7ec9914b26475ac755b0cec9a954acbe7a75966f4158abec6dfee5364127b89c5e2971abc6a7ba27b5502e2949b44c5e9a95768fa1b84b0c8d1e05d6a1c7587cbe09518be6879a0795700e0969946c7ebab556af81986b2cad3e25f681e7785c9e6931eb86e7fa67f5106e6909f40c1edad536cfe1f80b4ccd5e4596e187183cfe4911cba6c7da47d5304e4929d42c3efaf516efc1d82b6ced7e65b6c1a7381cdea9f12b46273aa735d0aea9c934ccde1a15f60f2138cb8c0d9e85562147d8fc3e89d10b66071a8715f08e89e914ecfe3a35d62f0118ebac2dbea5760167f8dc1ee9b16b06677ae77590eee989748c9e5a55b64f61788bcc4ddec516610798bc7ec9914b26475ac755b0cec9a954acbe7a75966f4158abec6dfee5364127b89c5e2971abc6a7ba27b5502e2949b44c5e9a95768fa1b84b0c8d1e05d6a1c7587cbe09518be6879a0795700e0969946c7ebab556af81986b2cad3e25f681e7785c9e6931eb86e7fa67f5106e6909f40c1edad536cfe1f80b4ccd5e4596e187183cfe4911cba6c7da47d5304e4929d42c3efaf516efc1d82b6ced7e65b6c1a7381cdea9f12b46273aa735d0aea9c934ccde1a15f60f2138cb8c0d9e85562147d8fc3e89d10b66071a8715f08e89e914ecfe3a35d62f0118ebac2dbea5760167f8dc1ee9b16b06677ae77590eee989748c9e5a55b64f61788bcc4ddec516610798bc7ec9914b26475ac755b0cec9a954acbe7a75966f4158abec6dfee5364127b89c5e2971abc6a7ba27b5502e2949b44c5e9a95768fa1b84b0c8d1e05d6a1c7587cbe09518be6879a0795700e0969946c7ebab556af81986b2cad3e25f681e7785c9e6931eb86e7fa67f5106e6909f40c1edad536cfe1f80b4ccd5e4596e187183cfe4911cba6c7da47d5304e4929d42c3efaf516efc1d82b6ced7e65b6c1a7381cdea9f12b46273aa735d0aea9c934ccde1a8c0cd4b15e0a31208386bbf01ca403077647eb1a74ddb709a15413cae5159115",
        "type": "nulldata"
      }
    }
  ],
  "blockhash": "c0ea0e6b16ad20f35d4757cbcff39c3d199dbd7e252fa8e6bc9f3f36ee858c22",
  "confirmations": 1,
  "time": 1764183276,
  "blocktime": 1764183276
}