{
  "hex": "01000000000101699a305c4ef714b16998c3da947163e3e6796432bc12bf8ee3862a168dd919d90100000000feffffff0200e1f50500000000fdd5046a20b4e0eb8dbd6bd58f1196332f117097878ef1a28e3329285100c54bf47099cb5a4db0040acc2c64d2a5fab8526534574a9871c6c5cde1a5c0b583be81d76802c53cf40b2aec0c44f285da98724514776ab851e6e5edc185e095a39ea1f74822e51cd42b4a8c6c2492e5baf8122574170ad83186858da1e580f5c3fec1972842857cb44b6aac4c04b2c59ad8320554372af811a6a5ad81c5a0d5e3dee1b70862a55c946b8a4cace452257a38d2e5b4d7ca18f146454d61254035033e0157e88245bc748baa6c8cc472055a18f2c594f7ea38d166656d41056015231e2177c8a2659c54abca0ceca412653a7892a5f4978a58b106050d21650075437e4117a8c205fc34cbea2ccc8432451a58b285d4b7aa789126252d01452055635e613788e225dc14eb0acc2c64d2a5fab8526534574a9871c6c5cde1a5c0b583be81d76802c53cf40b2aec0c44f285da98724514776ab851e6e5edc185e095a39ea1f74822e51cd42b4a8c6c2492e5baf8122574170ad83186858da1e580f5c3fec1972842857cb44b6aac4c04b2c59ad8320554372af811a6a5ad81c5a0d5e3dee1b70862a55c946b8a4cace452257a38d2e5b4d7ca18f146454d61254035033e0157e88245bc748baa6c8cc472055a18f2c594f7ea38d166656d41056015231e2177c8a2659c54abca0ceca412653a7892a5f4978a58b106050d21650075437e4117a8c205fc34cbea2ccc8432451a58b285d4b7aa789126252d01452055635e613788e225dc14eb0acc2c64d2a5fab8526534574a9871c6c5cde1a5c0b583be81d76802c53cf40b2aec0c44f285da98724514776ab851e6e5edc185e095a39ea1f74822e51cd42b4a8c6c2492e5baf8122574170ad83186858da1e580f5c3fec1972842857cb44b6aac4c04b2c59ad8320554372af811a6a5ad81c5a0d5e3dee1b70862a55c946b8a4cace452257a38d2e5b4d7ca18f146454d61254035033e0157e88245bc748baa6c8cc472055a18f2c594f7ea38d166656d41056015231e2177c8a2659c54abca0ceca412653a7892a5f4978a58b106050d21650075437e4117a8c205fc34cbea2ccc8432451a58b285d4b7aa789126252d01452055635e613788e225dc14eb0acc2c64d2a5fab8526534574a9871c6c5cde1a5c0b583be81d76802c53cf40b2aec0c44f285da98724514776ab851e6e5edc185e095a39ea1f74822e51cd42b4a8c6c2492e5baf8122574170ad83186858da1e580f5c3fec1972842857cb44b6aac4c04b2c59ad8320554372af811a6a5ad81c5a0d5e3dee1b70862a55c946b8a4cace452257a38d2e5b4d7ca18f146454d61254035033e0157e88245bc748baa6c8cc472055a18f2c594f7ea38d166656d41056015231e2177c8a2659c54abca0ceca412653a7892a5f4978a58b106050d21650075437e4117a8c205fc34cbea2ccc8432451a58b285d4b7aa789126252d01452055635e613788e225dc14eb0acc2c64d2a5fab8526534574a9871c6c5cde1a5c0b583be81d76802c53cf40b2aec0c44f285da98724514776ab851e6e5edc185e095a39ea1f74822e51cd42b4a8c6c2492e5baf8122574170ad83186858da1e580f5c3fec1972842857cb44b6aac4c04b2c59ad8320554372af811a6a5ad81c5a0d5e3dee1b70862a55c946b8a4cace452257a38d2e5b4d7ca18f14690c23601d3c6d4b4c7eb30a00d33b606a3ef8e242293d7f557c509e1a068b3426076a04b792d00002251202b062f05c88d280f4a29c10c824d74039a4fbbc4b9acaf6dcc7d2433eea8ce5c02fd7509360cd0ca163aebc8e193db81f78685c5c95eda65bdc8703f51943466d7a14da596c9cfdb44d931799c8af36efd9f74b598634269bd8f5bd591a0dacdf777a116da96ebd7bfa5a2c1e6a3aa5b6ac117d8efb1b63fbaf415808ffeebe5c64cf1497a257b44e474d01e1fd0e07aeb98370ddd6b2281b2a36e49c9a16c167766a16096e190849c6cde5c3dbd706bb8f7a61f8318007b06b7ab8736d6fb5b18d379c2b8716a9580572130d264ed59d930693613d1a8a7fede310254c95da224d58df60ea83b99eb8d613749243c52f9fa76e2b89dbf68cd115c758c1322a345fa6df329b0223ba3eca19fec4ec1f6b9e72d863c2203829199382cdee1f83e7662eb03dc6ffff5c145674f6f380fd6bc5a4d630d29e969ecd38f09418d2cf4db2205b02299f2f166d17079606509d9ad5d70e05f609da739694aee4a2b053f0e456587c70079a49d260fed3f184b01c4d68ab17a0198a74e38973dcfc4b0d099963d69bb9b244c2bc17e6c2ffec2f9b6e674d6986563a108bab1a05c4cd256b2fe50b885ab5180814f894f66447067ffd293d1850bfab3bd8c5c0093c25313363ef5efdccf2c785511867d3e178f92359419e25f9df400c4a1946883f711895d5df2a0d7f65011a52af0b914912da04012784dd8c7a72f34dfe55bc04fbda1cb5bd1864df535a0bca73ce5d1b70ac26b93514b94dd4530355ae46034ec901cb271572c9974742f67fcc245088d22aaf674de3d0a95cee0366adc795bb6c4803f0a9761608d1617297abb7fff7cf3323e982bade6d2378104d62fe5d0d763d512893378f79c63a9c288bcf1efccdc49cf0d35d998f4d14bc7992bc822048fd8459bbf7767dda1b53aae2c4bf86ed775d7d0efa4bf67b541157c33395dbf53460c35d2b66621fef2e3959151ff5f02548d241d244f6dd6147c314a3cacf6f10ef3be55519b31a4860084c1f8dd8c95c323a1f8eec4d5fa7f791dd753e407c4becc79f0e77dcf9fbbc33afd2dd4d731d70677b86ab4720fda1c55d9a21f76dbe9a7e09303bb7ba90954a125e3c84bfebaa98177b4b336f3b0d930e020b5fa3a85ece1025e21e187870de440a308fef3e013df25be3b1ea2e0ae6191e6e5a18d6c928fcc85168e2a6dd02e202c5eee20c9323dabc94b0f32b9593ca10b5ba75f20f53e33b194bab8be38d8e1236959ea5e2930186072f4de9f2fefc48a3646adbd2c929173a4e00d19f28c9e561016bfac3a817a79958a285ef51784cdce82b5c515c00735dde7894f27951b93236675e942ae41795a15cc12d6a1819985d8ca80791222b277f9d1024ad295af381fadcba9bf2f79e2f822bf5f8dbd6f04261633c726f2fd9813e76be744e90e4e2e9dd730035b44a0ec139f4f16ecd02b9865e03608b916d99a9cf163f23513f9e6583e5e0b2c5a81d80aa0d8ef9c75ba259caec811df679d130008450b5e8d53074036ef28e6835a8c45e31de94695f3606d781c7af63a81697933ac0a4cb857f24779f59fdfc0a7984981f37bfe0e44dbaf805a3e44792a3f7f59d8ebd0953732a5d6e36707398436b16134c469c17a7d64ba3ac1b1f9b6ec2f8c62b8789a2eac5305d2ebba7fe70f56c141caf88d4790b5df6e0f2790cd3e1f8d546635404e629fd7705051bec77f79fad64d6aa783060119ddceccbc14fb952a9f5c829ebe605227f8694269bc372f711e84bbdb12ff52b3244a08edf9df6c250c07f0b034bd23e5da0f2c17b90861d66590149388dccb1bd81c77c502c6ab244d5864f571143c864fa80fd73c07698b96c20dbabae153d25287b126d99276f0790f5df9cae05b54dfb0eace4731aed05aa41fa94046a25915b926d2169987b5e6c62d2445fa31ac3b14226288ccc8022870f9da56a66c4cf20c7321feb3a8c4f1c50bb61845a7af3576c3b0e4aa17e108267a45768a1c0d081b365707e86fd018f0a844723b44380522457286440950d81b50d067a5bc6acb13c46dbe73c976088deb0c2111362bc8bce9a8c106263d5be82c70f9a027129bcff59a2128fe68884a69c0f995b7b6a863b229c1798d09a5f776f0d200329efd6a6dd94b12b782ffc60329f25d5710e9c5395e8a2844f5cd4c2da2d403d5ee54f90c24a853eab588044b97510329051b2fec1eba7bf9998e936addfa93f938b39247630810c059eacd22b42714dc087f48fcb82ecd29ec5927d934092888826df598873320223d17e0fd3d2b841a171990c81dff18005173c9acc41a5038dc810bf54246bbfaf601f51b402ae79166e327dd6b9109f1170568e7c343ccc4651d69607122315bd3f4436785854d1eadedd41f3a18f041564867746b926a4fde0212b0e39b4a37ebf9ab10343f2e7e129be0159c3f997fc484e6b37dff4b4135bf4b40005550283213582327e55e67e9b0fdc999188b2bc65dd27137ff0cbb194d20faee5b9791c50da4e62c17efa4163f560e264edd383a5cb6ecc9cde9b6c4c1960b2dd0f937753c07bf115f2b63b88f81a59e900a6385cefe48164ec7386bcd3494d6281d191997f3a5906565329530cd0bbde1e318146bf554788dc8071a6e354d0e7558714d6d0a1f192d537afd46f8a30d1388e4e15c764cbb2fb39545031c3c8d6f7cff396b5a22e9200545cd648a420f617cbb1bfe506ba33e4d8c44bda2f7948d24c7615050a1da55125de261eefd48a5a7b2864c84126aae477b2a461c85b3b8fc4fade37792b5eae005bc777df3cff216637e7abf0af87f2972d1039a1afb1acbecfafdc3f0b99eb70e9dc36428d6557947917dc2fa37e6afec39713f569269068fc64959fdfa957a6e7f75941aae873acf929943c8bef3d60ba22aff9d07d145a1999524493519ee60a2752ba8ceff783b5bb42c3ee96cbdbc582dc077464d3ba4172a719dc86175727e98de7b520637c06152eba67d155d1246765893ffe2b593588b264b4cad15d897eb66d78e2eeb6b336eee5fe1e843b4d0dd2d8a4e0e1857d5c7798c31b63bc3f962895c3bcf281dd2456eb85656406a89cb6e650b56e495a38443086c1cda8a0ac38ac3807bca336977c24d7de15aafc1c5950b900c40c9e6e69e5433090e103be0a0394b8cc7347cf05fef125d3fe979ae85a78378fc525deaee6a2bba3a1d2771fb206617b6a50e7bd28d990b1c1191b7226b23975e8152f0cca8eede5481e0a4eca332f255aa1f67e3e633ff566a69e5beeb4d49124db5df42b23b3b31ddcfcdc0d51dd977344772ee8933ae9ce63f89081803bfe544df6827cb93ee52ccf4d1799c98dff1e46c7c74d5ef5fae6c4b5e7417020308203a3d4d6778898c8dadbbd7ee0a526d7f85a3a6b1badae7f1f3020425282c3f444c59607176b1b7bbc0c8d001070d2b3d576263646586878ea6fd000000000000000000000000000000000000000f1c2e3d01fd210500181826f5d71417e6f643acb311a0b6eda0df5ca94bfb94ea09adbe4cef50808fdfcf4099ab5a6d12cb4ff771f716c69deb119e38fda064b8b917b4c5192b57eb6b286afc0c3da5f2c5377aa57fd03643bf086c2f1c768bc24ad7889a3af5b56f9805b6f29fbd8b519de07a9099791b2798afbafcfa442823f8a8f77cbed3af8a5c63ee1c0fd34bf16334bfdb9abc9ee9f99f8b227a23010e9a675b4304a0917d8e132ac5b51361a1fcf41b5a8e9a091d059e5a3cbd18d6eb90451286644480528f9a6db461671742910539f4795ef280ffac7bd95e59a3865373ad8401a9b6c314ce5d4b21e4ba1058836c2e6afdfd0f42c39d19ba4a388002957090b802a96e13d68b6214e8c0083e6ad81abd750281e99f42798202e207a12595afc18b01e53920ca1b79a6a928b28e36728a856fde494f3b945a941438f346df3bef12b46136c7ba9face35142ec9bbde4e62696671fce3d42d5354f5046810a0a6767f987e8b641a68f758860730d111e5c9858497b46dc35f7ab196075869a472e99bd0778fed6a879f3056f1246843dc2512f60d615d899a4074da4088109602e38f95427085593cf7985c1685b5459adad2b1e24e3fa51eebb90dbfd60ef87a53ffae5ef63c2c21f20461a59ca516e0dfd274d5106281395f3ac33028ed0d03e9cbd664f308b98467e025442b8b06a1da739937f7d63b1ee76c86920a7dbe7a8b33dddbe7bf5997b3c1a8e292bdf9b70541bef2a26cfa71484aa063daae1c87e3ec92afc443ff4b48d199bc785391f316151e55aa9ee5f5a9f66f35d9028d5a4302a97c81d1083e7ebb282fa90836a07f5e4a74854c64e3372e6ff29b6cf069d7972bc3aa8fea6f4a7244e26636b465f089a4623010d3c71e753a1d97c1f5fc8315c6dca446c127a4ab17dc25776fc6dc95d2a661316b862807611d3280770913db41c6cf60f30afe9d234826ba6f76ea05f095a300a990efe22bf64ae68b9d2612cfdfc6e9237308e12109500dee988330c7389dab5616bf71cdc92856241d519494bcafb09a4ae091532ab8a5a6cc16f1c5359e1e62ef2b684a9cc864b36c5545bcc81e895ba66c0a7d4b0a942a4a054f69fd37427e35d37702784a2f40588989c82aea7e6c71d4861abdd833e10ea9a6d9dc263dd4f0df8f5cfa1c5c4e16bdf347e0e2b562c1e249be1eda45cdcc45641dfd0bf38f5e965eedbaf9458d212d23144f4fdcb19052f84b0140586d2fd48d51c0cbbfb2293159d7f08ee6c0c85ee3496451fae839356edfe76fe599a8350a498ee4a9ee30cda3b267c5586edca01548055bc460f982df09a9a92a53b353d30aaa771cb5d473d6f9f93d85e2368dbf71b34c196f369642d9ab0c0a52a0bcb52ad4379bdf07e4beed38bcf18a8115c38c9de7897b6ef8542a04e727fde620fc1b03238ebea3dd927c7cd80160ef3c4b75c1f974a73bac12eba7df75076b9eb269bf24b3f758af2f389d4f688ab12d236f96afbea76ede5806f89ca32b206765a3667d794f3085846e77ebb5ab0ffeff3ff90bcc368c103e46b2c16aa4c773549d635c439e3c4e44a0858b4b31c67d240c5874a2c022b4c262f4c3829615948bf18f0d9286cb976c904a5a52067223ae0658e7a6411cdd0d93c9d1fe49fda2fdc043e32d0ba646472823d3e2937671665b97cab999843f176e357c9279074d9ae2dcd6423a37b9bb17551f411401cbfef957ec60f729b0a8ddbd01dd62a2600666f552454df3f21c6f7f1cfd3b5347848cbeed1c5236100dcd25db70a88419aef0e478c9953603ee5b959a3124de6652e6a5edfef486a475d13f04cd6f35fee6ef480421f69293b628c08e6d1a2b4fb987a7c000000",
  "txid": "1116215ad6e6d59666d345a2c99df85c2103d4d39bee4b4611eae203bdce0b2c",
  "hash": "2ef7c187bb9173e9b1079025bfcdaa290c8cb010bb756430279336a325f0694e",
  "size": 5085,
  "vsize": 2278,
  "version": 1,
  "locktime": 124,
  "vin": [
    {
      "txid": "d919d98d162a86e38ebf12bc326479e6e3637194dac39869b114f74e5c309a69",
      "vout": 1,
      "scriptSig": {
        "asm": "",
        "hex": ""
      },
      "txinwitness": [
        "360cd0ca163aebc8e193db81f78685c5c95eda65bdc8703f51943466d7a14da596c9cfdb44d931799c8af36efd9f74b598634269bd8f5bd591a0dacdf777a116da96ebd7bfa5a2c1e6a3aa5b6ac117d8efb1b63fbaf415808ffeebe5c64cf1497a257b44e474d01e1fd0e07aeb98370ddd6b2281b2a36e49c9a16c167766a16096e190849c6cde5c3dbd706bb8f7a61f8318007b06b7ab8736d6fb5b18d379c2b8716a9580572130d264ed59d930693613d1a8a7fede310254c95da224d58df60ea83b99eb8d613749243c52f9fa76e2b89dbf68cd115c758c1322a345fa6df329b0223ba3eca19fec4ec1f6b9e72d863c2203829199382cdee1f83e7662eb03dc6ffff5c145674f6f380fd6bc5a4d630d29e969ecd38f09418d2cf4db2205b02299f2f166d17079606509d9ad5d70e05f609da739694aee4a2b053f0e456587c70079a49d260fed3f184b01c4d68ab17a0198a74e38973dcfc4b0d099963d69bb9b244c2bc17e6c2ffec2f9b6e674d6986563a108bab1a05c4cd256b2fe50b885ab5180814f894f66447067ffd293d1850bfab3bd8c5c0093c25313363ef5efdccf2c785511867d3e178f92359419e25f9df400c4a1946883f711895d5df2a0d7f65011a52af0b914912da04012784dd8c7a72f34dfe55bc04fbda1cb5bd1864df535a0bca73ce5d1b70ac26b93514b94dd4530355ae46034ec901cb271572c9974742f67fcc245088d22aaf674de3d0a95cee0366adc795bb6c4803f0a9761608d1617297abb7fff7cf3323e982bade6d2378104d62fe5d0d763d512893378f79c63a9c288bcf1efccdc49cf0d35d998f4d14bc7992bc822048fd8459bbf7767dda1b53aae2c4bf86ed775d7d0efa4bf67b541157c33395dbf53460c35d2b66621fef2e3959151ff5f02548d241d244f6dd6147c314a3cacf6f10ef3be55519b31a4860084c1f8dd8c95c323a1f8eec4d5fa7f791dd753e407c4becc79f0e77dcf9fbbc33afd2dd4d731d70677b86ab4720fda1c55d9a21f76dbe9a7e09303bb7ba90954a125e3c84bfebaa98177b4b336f3b0d930e020b5fa3a85ece1025e21e187870de440a308fef3e013df25be3b1ea2e0ae6191e6e5a18d6c928fcc85168e2a6dd02e202c5eee20c9323dabc94b0f32b9593ca10b5ba75f20f53e33b194bab8be38d8e1236959ea5e2930186072f4de9f2fefc48a3646adbd2c929173a4e00d19f28c9e561016bfac3a817a79958a285ef51784cdce82b5c515c00735dde7894f27951b93236675e942ae41795a15cc12d6a1819985d8ca80791222b277f9d1024ad295af381fadcba9bf2f79e2f822bf5f8dbd6f04261633c726f2fd9813e76be744e90e4e2e9dd730035b44a0ec139f4f16ecd02b9865e03608b916d99a9cf163f23513f9e6583e5e0b2c5a81d80aa0d8ef9c75ba259caec811df679d130008450b5e8d53074036ef28e6835a8c45e31de94695f3606d781c7af63a81697933ac0a4cb857f24779f59fdfc0a7984981f37bfe0e44dbaf805a3e44792a3f7f59d8ebd0953732a5d6e36707398436b16134c469c17a7d64ba3ac1b1f9b6ec2f8c62b8789a2eac5305d2ebba7fe70f56c141caf88d4790b5df6e0f2790cd3e1f8d546635404e629fd7705051bec77f79fad64d6aa783060119ddceccbc14fb952a9f5c829ebe605227f8694269bc372f711e84bbdb12ff52b3244a08edf9df6c250c07f0b034bd23e5da0f2c17b90861d66590149388dccb1bd81c77c502c6ab244d5864f571143c864fa80fd73c07698b96c20dbabae153d25287b126d99276f0790f5df9cae05b54dfb0eace4731aed05aa41fa94046a25915b926d2169987b5e6c62d2445fa31ac3b14226288ccc8022870f9da56a66c4cf20c7321feb3a8c4f1c50bb61845a7af3576c3b0e4aa17e108267a45768a1c0d081b365707e86fd018f0a844723b44380522457286440950d81b50d067a5bc6acb13c46dbe73c976088deb0c2111362bc8bce9a8c106263d5be82c70f9a027129bcff59a2128fe68884a69c0f995b7b6a863b229c1798d09a5f776f0d200329efd6a6dd94b12b782ffc60329f25d5710e9c5395e8a2844f5cd4c2da2d403d5ee54f90c24a853eab588044b97510329051b2fec1eba7bf9998e936addfa93f938b39247630810c059eacd22b42714dc087f48fcb82ecd29ec5927d934092888826df598873320223d17e0fd3d2b841a171990c81dff18005173c9acc41a5038dc810bf54246bbfaf601f51b402ae79166e327dd6b9109f1170568e7c343ccc4651d69607122315bd3f4436785854d1eadedd41f3a18f041564867746b926a4fde0212b0e39b4a37ebf9ab10343f2e7e129be0159c3f997fc484e6b37dff4b4135bf4b40005550283213582327e55e67e9b0fdc999188b2bc65dd27137ff0cbb194d20faee5b9791c50da4e62c17efa4163f560e264edd383a5cb6ecc9cde9b6c4c1960b2dd0f937753c07bf115f2b63b88f81a59e900a6385cefe48164ec7386bcd3494d6281d191997f3a5906565329530cd0bbde1e318146bf554788dc8071a6e354d0e7558714d6d0a1f192d537afd46f8a30d1388e4e15c764cbb2fb39545031c3c8d6f7cff396b5a22e9200545cd648a420f617cbb1bfe506ba33e4d8c44bda2f7948d24c7615050a1da55125de261eefd48a5a7b2864c84126aae477b2a461c85b3b8fc4fade37792b5eae005bc777df3cff216637e7abf0af87f2972d1039a1afb1acbecfafdc3f0b99eb70e9dc36428d6557947917dc2fa37e6afec39713f569269068fc64959fdfa957a6e7f75941aae873acf929943c8bef3d60ba22aff9d07d145a1999524493519ee60a2752ba8ceff783b5bb42c3ee96cbdbc582dc077464d3ba4172a719dc86175727e98de7b520637c06152eba67d155d1246765893ffe2b593588b264b4cad15d897eb66d78e2eeb6b336eee5fe1e843b4d0dd2d8a4e0e1857d5c7798c31b63bc3f962895c3bcf281dd2456eb85656406a89cb6e650b56e495a38443086c1cda8a0ac38ac3807bca336977c24d7de15aafc1c5950b900c40c9e6e69e5433090e103be0a0394b8cc7347cf05fef125d3fe979ae85a78378fc525deaee6a2bba3a1d2771fb206617b6a50e7bd28d990b1c1191b7226b23975e8152f0cca8eede5481e0a4eca332f255aa1f67e3e633ff566a69e5beeb4d49124db5df42b23b3b31ddcfcdc0d51dd977344772ee8933ae9ce63f89081803bfe544df6827cb93ee52ccf4d1799c98dff1e46c7c74d5ef5fae6c4b5e7417020308203a3d4d6778898c8dadbbd7ee0a526d7f85a3a6b1badae7f1f3020425282c3f444c59607176b1b7bbc0c8d001070d2b3d576263646586878ea6fd000000000000000000000000000000000000000f1c2e3d01",
        "00181826f5d71417e6f643acb311a0b6eda0df5ca94bfb94ea09adbe4cef50808fdfcf4099ab5a6d12cb4ff771f716c69deb119e38fda064b8b917b4c5192b57eb6b286afc0c3da5f2c5377aa57fd03643bf086c2f1c768bc24ad7889a3af5b56f9805b6f29fbd8b519de07a9099791b2798afbafcfa442823f8a8f77cbed3af8a5c63ee1c0fd34bf16334bfdb9abc9ee9f99f8b227a23010e9a675b4304a0917d8e132ac5b51361a1fcf41b5a8e9a091d059e5a3cbd18d6eb90451286644480528f9a6db461671742910539f4795ef280ffac7bd95e59a3865373ad8401a9b6c314ce5d4b21e4ba1058836c2e6afdfd0f42c39d19ba4a388002957090b802a96e13d68b6214e8c0083e6ad81abd750281e99f42798202e207a12595afc18b01e53920ca1b79a6a928b28e36728a856fde494f3b945a941438f346df3bef12b46136c7ba9face35142ec9bbde4e62696671fce3d42d5354f5046810a0a6767f987e8b641a68f758860730d111e5c9858497b46dc35f7ab196075869a472e99bd0778fed6a879f3056f1246843dc2512f60d615d899a4074da4088109602e38f95427085593cf7985c1685b5459adad2b1e24e3fa51eebb90dbfd60ef87a53ffae5ef63c2c21f20461a59ca516e0dfd274d5106281395f3ac33028ed0d03e9cbd664f308b98467e025442b8b06a1da739937f7d63b1ee76c86920a7dbe7a8b33dddbe7bf5997b3c1a8e292bdf9b70541bef2a26cfa71484aa063daae1c87e3ec92afc443ff4b48d199bc785391f316151e55aa9ee5f5a9f66f35d9028d5a4302a97c81d1083e7ebb282fa90836a07f5e4a74854c64e3372e6ff29b6cf069d7972bc3aa8fea6f4a7244e26636b465f089a4623010d3c71e753a1d97c1f5fc8315c6dca446c127a4ab17dc25776fc6dc95d2a661316b862807611d3280770913db41c6cf60f30afe9d234826ba6f76ea05f095a300a990efe22bf64ae68b9d2612cfdfc6e9237308e12109500dee988330c7389dab5616bf71cdc92856241d519494bcafb09a4ae091532ab8a5a6cc16f1c5359e1e62ef2b684a9cc864b36c5545bcc81e895ba66c0a7d4b0a942a4a054f69fd37427e35d37702784a2f40588989c82aea7e6c71d4861abdd833e10ea9a6d9dc263dd4f0df8f5cfa1c5c4e16bdf347e0e2b562c1e249be1eda45cdcc45641dfd0bf38f5e965eedbaf9458d212d23144f4fdcb19052f84b0140586d2fd48d51c0cbbfb2293159d7f08ee6c0c85ee3496451fae839356edfe76fe599a8350a498ee4a9ee30cda3b267c5586edca01548055bc460f982df09a9a92a53b353d30aaa771cb5d473d6f9f93d85e2368dbf71b34c196f369642d9ab0c0a52a0bcb52ad4379bdf07e4beed38bcf18a8115c38c9de7897b6ef8542a04e727fde620fc1b03238ebea3dd927c7cd80160ef3c4b75c1f974a73bac12eba7df75076b9eb269bf24b3f758af2f389d4f688ab12d236f96afbea76ede5806f89ca32b206765a3667d794f3085846e77ebb5ab0ffeff3ff90bcc368c103e46b2c16aa4c773549d635c439e3c4e44a0858b4b31c67d240c5874a2c022b4c262f4c3829615948bf18f0d9286cb976c904a5a52067223ae0658e7a6411cdd0d93c9d1fe49fda2fdc043e32d0ba646472823d3e2937671665b97cab999843f176e357c9279074d9ae2dcd6423a37b9bb17551f411401cbfef957ec60f729b0a8ddbd01dd62a2600666f552454df3f21c6f7f1cfd3b5347848cbeed1c5236100dcd25db70a88419aef0e478c9953603ee5b959a3124de6652e6a5edfef486a475d13f04cd6f35fee6ef480421f69293b628c08e6d1a2b4fb987a"
      ],
      "sequence": 4294967294
    }
  ],
  "vout": [
    {
      "value": 1.0,
      "n": 0,
      "scriptPubKey": {
        "asm": "OP_RETURN b4e0eb8dbd6bd58f1196332f117097878ef1a28e3329285100c54bf47099cb5a 0acc2c64d2a5fab8526534574a9871c6c5cde1a5c0b583be81d76802c53cf40b2aec0c44f285da98724514776ab851e6e5edc185e095a39ea1f74822e51cd42b4a8c6c2492e5baf8122574170ad83186858da1e580f5c3fec1972842857cb44b6aac4c04b2c59ad8320554372af811a6a5ad81c5a0d5e3dee1b70862a55c946b8a4cace452257a38d2e5b4d7ca18f146454d61254035033e0157e88245bc748baa6c8cc472055a18f2c594f7ea38d166656d41056015231e2177c8a2659c54abca0ceca412653a7892a5f4978a58b106050d21650075437e4117a8c205fc34cbea2ccc8432451a58b285d4b7aa789126252d01452055635e613788e225dc14eb0acc2c64d2a5fab8526534574a9871c6c5cde1a5c0b583be81d76802c53cf40b2aec0c44f285da98724514776ab851e6e5edc185e095a39ea1f74822e51cd42b4a8c6c2492e5baf8122574170ad83186858da1e580f5c3fec1972842857cb44b6aac4c04b2c59ad8320554372af811a6a5ad81c5a0d5e3dee1b70862a55c946b8a4cace452257a38d2e5b4d7ca18f146454d61254035033e0157e88245bc748baa6c8cc472055a18f2c594f7ea38d166656d41056015231e2177c8a2659c54abca0ceca412653a7892a5f4978a58b106050d21650075437e4117a8c205fc34cbea2ccc8432451a58b285d4b7aa789126252d01452055635e613788e225dc14eb0acc2c64d2a5fab8526534574a9871c6c5cde1a5c0b583be81d76802c53cf40b2aec0c44f285da98724514776ab851e6e5edc185e095a39ea1f74822e51cd42b4a8c6c2492e5baf8122574170ad83186858da1e580f5c3fec1972842857cb44b6aac4c04b2c59ad8320554372af811a6a5ad81c5a0d5e3dee1b70862a55c946b8a4cace452257a38d2e5b4d7ca18f146454d61254035033e0157e88245bc748baa6c8cc472055a18f2c594f7ea38d166656d41056015231e2177c8a2659c54abca0ceca412653a7892a5f4978a58b106050d21650075437e4117a8c205fc34cbea2ccc8432451a58b285d4b7aa789126252d01452055635e613788e225dc14eb0acc2c64d2a5fab8526534574a9871c6c5cde1a5c0b583be81d76802c53cf40b2aec0c44f285da98724514776ab851e6e5edc185e095a39ea1f74822e51cd42b4a8c6c2492e5baf8122574170ad83186858da1e580f5c3fec1972842857cb44b6aac4c04b2c59ad8320554372af811a6a5ad81c5a0d5e3dee1b70862a55c946b8a4cace452257a38d2e5b4d7ca18f146454d61254035033e0157e88245bc748baa6c8cc472055a18f2c594f7ea38d166656d41056015231e2177c8a2659c54abca0ceca412653a7892a5f4978a58b106050d21650075437e4117a8c205fc34cbea2ccc8432451a58b285d4b7aa789126252d01452055635e613788e225dc14eb0acc2c64d2a5fab8526534574a9871c6c5cde1a5c0b583be81d76802c53cf40b2aec0c44f285da98724514776ab851e6e5edc185e095a39ea1f74822e51cd42b4a8c6c2492e5baf8122574170ad83186858da1e580f5c3fec1972842857cb44b6aac4c04b2c59ad8320554372af811a6a5ad81c5a0d5e3dee1b70862a55c946b8a4cace452257a38d2e5b4d7ca18f14690c23601d3c6d4b4c7eb30a00d33b606a3ef8e242293d7f557c509e1a068b342",
        "hex": "6a20b4e0eb8dbd6bd58f1196332f117097878ef1a28e3329285100c54bf47099cb5a4db0040acc2c64d2a5fab8526534574a9871c6c5cde1a5c0b583be81d76802c53cf40b2aec0c44f285da98724514776ab851e6e5edc185e095a39ea1f74822e51cd42b4a8c6c2492e5baf8122574170ad83186858da1e580f5c3fec1972842857cb44b6aac4c04b2c59ad8320554372af811a6a5ad81c5a0d5e3dee1b70862a55c946b8a4cace452257a38d2e5b4d7ca18f146454d61254035033e0157e88245bc748baa6c8cc472055a18f2c594f7ea38d166656d41056015231e2177c8a2659c54abca0ceca412653a7892a5f4978a58b106050d21650075437e4117a8c205fc34cbea2ccc8432451a58b285d4b7aa789126252d01452055635e613788e225dc14eb0acc2c64d2a5fab8526534574a9871c6c5cde1a5c0b583be81d76802c53cf40b2aec0c44f285da98724514776ab851e6e5edc185e095a39ea1f74822e51cd42b4a8c6c2492e5baf8122574170ad83186858da1e580f5c3fec1972842857cb44b6aac4c04b2c59ad8320554372af811a6a5ad81c5a0d5e3dee1b70862a55c946b8a4cace452257a38d2e5b4d7ca18f146454d61254035033e0157e88245bc748baa6c8cc472055a18f2c594f7ea38d166656d41056015231e2177c8a2659c54abca0ceca412653a7892a5f4978a58b106050d21650075437e4117a8c205fc34cbea2ccc8432451a58b285d4b7aa789126252d01452055635e613788e225dc14eb0acc2c64d2a5fab8526534574a9871c6c5cde1a5c0b583be81d76802c53cf40b2aec0c44f285da98724514776ab851e6e5edc185e095a39ea1f74822e51cd42b4a8c6c2492e5baf8122574170ad83186858da1e580f5c3fec1972842857cb44b6aac4c04b2c59ad8320554372af811a6a5ad81c5a0d5e3dee1b70862a55c946b8a4cace452257a38d2e5b4d7ca18f146454d61254035033e0157e88245bc748baa6c8cc472055a18f2c594f7ea38d166656d41056015231e2177c8a2659c54abca0ceca412653a7892a5f4978a58b106050d21650075437e4117a8c205fc34cbea2ccc8432451a58b285d4b7aa789126252d01452055635e613788e225dc14eb0acc2c64d2a5fab8526534574a9871c6c5cde1a5c0b583be81d76802c53cf40b2aec0c44f285da98724514776ab851e6e5edc185e095a39ea1f74822e51cd42b4a8c6c2492e5baf8122574170ad83186858da1e580f5c3fec1972842857cb44b6aac4c04b2c59ad8320554372af811a6a5ad81c5a0d5e3dee1b70862a55c946b8a4cace452257a38d2e5b4d7ca18f146454d61254035033e0157e88245bc748baa6c8cc472055a18f2c594f7ea38d166656d41056015231e2177c8a2659c54abca0ceca412653a7892a5f4978a58b106050d21650075437e4117a8c205fc34cbea2ccc8432451a58b285d4b7aa789126252d01452055635e613788e225dc14eb0acc2c64d2a5fab8526534574a9871c6c5cde1a5c0b583be81d76802c53cf40b2aec0c44f285da98724514776ab851e6e5edc185e095a39ea1f74822e51cd42b4a8c6c2492e5baf8122574170ad83186858da1e580f5c3fec1972842857cb44b6aac4c04b2c59ad8320554372af811a6a5ad81c5a0d5e3dee1b70862a55c946b8a4cace452257a38d2e5b4d7ca18f14690c23601d3c6d4b4c7eb30a00d33b606a3ef8e242293d7f557c509e1a068b342",
        "type": "nulldata"
      }
    },
    {
      "value": 499989.831,
      "n": 1,
      "scriptPubKey": {
        "asm": "1 2b062f05c88d280f4a29c10c824d74039a4fbbc4b9acaf6dcc7d2433eea8ce5c",
        "hex": "51202b062f05c88d280f4a29c10c824d74039a4fbbc4b9acaf6dcc7d2433eea8ce5c",
        "reqSigs": 1,
        "type": "witness_v1_scripthash",
        "addresses": [
          "3QJmnh"
        ]
      }
    }
  ],
  "blockhash": "fe93069f37b49cfb15542a42b300d4e9dc573fdbbe6c5d081907ef62d551896a",
  "confirmations": 1,
  "time": 1764180962,
  "blocktime": 1764180962
}