{
  "hex": "01000000000101a0eca1f417fb859c4d8ee69b1f7d44365bd0e07868bc9a57c7fd545646ea1aad0000000000feffffff0200e1f50500000000fdd5046a20bd9d1f74cd00a89c159b9a92c6a3ab6e68c7d53c1b4dbd373db8f012caa7553d4db00493f5eb0e3031aa1e185a30f39758ff68e4ddba88c6d121c570cc42acb02a0314b3d5cb2e10118a3e387a10d3b778df48c4fd9aa8e6f101e550ec628c900a2334d3b5ab4e7071ea5e581a70b3d718bf28a49dfac886916185308c02ecf06a4354f3958b6e5051ca7e783a5093f7389f0884bddae8a6b141a510ac22ccd04a637413756b8eb0b12a9e98dab07317d87fe8645d3a084651a145f04cc22c30aa839433554bae90910abeb8fa905337f85fc8447d1a2866718165d06ce20c108aa3b453352bcef0f16aded89af03357983fa8241d7a480611e105b00c826c70eac3d473150beed0d14afef8bad01377b81f88043d5a682631c125902ca24c50cae3f493f5eb0e3031aa1e185a30f39758ff68e4ddba88c6d121c570cc42acb02a0314b3d5cb2e10118a3e387a10d3b778df48c4fd9aa8e6f101e550ec628c900a2334d3b5ab4e7071ea5e581a70b3d718bf28a49dfac886916185308c02ecf06a4354f3958b6e5051ca7e783a5093f7389f0884bddae8a6b141a510ac22ccd04a637413756b8eb0b12a9e98dab07317d87fe8645d3a084651a145f04cc22c30aa839433554bae90910abeb8fa905337f85fc8447d1a2866718165d06ce20c108aa3b453352bcef0f16aded89af03357983fa8241d7a480611e105b00c826c70eac3d473150beed0d14afef8bad01377b81f88043d5a682631c125902ca24c50cae3f493f5eb0e3031aa1e185a30f39758ff68e4ddba88c6d121c570cc42acb02a0314b3d5cb2e10118a3e387a10d3b778df48c4fd9aa8e6f101e550ec628c900a2334d3b5ab4e7071ea5e581a70b3d718bf28a49dfac886916185308c02ecf06a4354f3958b6e5051ca7e783a5093f7389f0884bddae8a6b141a510ac22ccd04a637413756b8eb0b12a9e98dab07317d87fe8645d3a084651a145f04cc22c30aa839433554bae90910abeb8fa905337f85fc8447d1a2866718165d06ce20c108aa3b453352bcef0f16aded89af03357983fa8241d7a480611e105b00c826c70eac3d473150beed0d14afef8bad01377b81f88043d5a682631c125902ca24c50cae3f493f5eb0e3031aa1e185a30f39758ff68e4ddba88c6d121c570cc42acb02a0314b3d5cb2e10118a3e387a10d3b778df48c4fd9aa8e6f101e550ec628c900a2334d3b5ab4e7071ea5e581a70b3d718bf28a49dfac886916185308c02ecf06a4354f3958b6e5051ca7e783a5093f7389f0884bddae8a6b141a510ac22ccd04a637413756b8eb0b12a9e98dab07317d87fe8645d3a084651a145f04cc22c30aa839433554bae90910abeb8fa905337f85fc8447d1a2866718165d06ce20c108aa3b453352bcef0f16aded89af03357983fa8241d7a480611e105b00c826c70eac3d473150beed0d14afef8bad01377b81f88043d5a682631c125902ca24c50cae3f493f5eb0e3031aa1e185a30f39758ff68e4ddba88c6d121c570cc42acb02a0314b3d5cb2e10118a3e387a10d3b778df48c4fd9aa8e6f101e550ec628c900a2334d3b5ab4e7071ea5e581a70b3d718bf28a49dfac886916185308c02ecf06a4354f3958b6e5051ca7e783a5093f7389f0884bddae8a6b141a510ac22ccd04a637413756b8eb0b12a9e98dab07317d87fe8bfdd9b62a7d9c7d0f57cc79797271a16141fd22a545d02afc76607f8bfdab0a1c075fe6f792d0000225120592bd041144f8c3ff81b5fefeef9a2ca13d4872f036cec56c05fba54499f5f6102fd75091598267f0d9610001211ae61317316444ea24ba1d36b9b4aa80ed42f1a5e46ea90f70b59238a5665969c49cde239ebadb1362400cb48db2555d5d1736bff718c8592b86fbf18b2ae85084b3f8da8f5cfef5789a68f4fb47b56ee99ae5d06c3f00f493d21be473647c6b84f1a6315491bfa500d63bd2cc8201e622daa95acec714ce659c1f1942acc1e8c517f27cfd48ea00d017d29c5d3831ffb3b11496a5e2d0fa54c3b8fe0e03a93ad420266e1e10f8de7e6534d02cedd2d54e0a3bc55b569e807a9e23a1e0daa165cd763c350424d0b8c9a40a6a56b895d98710c102c7db0e9927c5771bd27b2d538d64c66b6fa8f17d8c9ed95072124ef0779c1d60b7859a4705f2aa1e68d22b5a24a66649099d730f7cb7c68f5beda8e96956c0898ea1b7abe98c0cf476972997a58ebd751c1bdfa39975f204e0c00364dcb80ddb65a2ca4ad0173604a78cb68bae217f19ea48d0a58b6e4f86129b647860304f9b4aab1091d44851f31659e425bdc0436c4e3564bc328e0c5630e0e165d8fe799293bc79d06525cc9eb1afa18406c81bb13e288fa44a144a24820a2186955ada5cdeacdb13337747caf9c8ffeefc0b8868d32842310ff4dfedc0ddf9ec7eca3cd3619d3a3bd02ffa7c089c5573d9dc9a3daa2195553b02e738c9e0cb0340e5c30194f2befa8b35a2b0f1b135a536c6dc0c7373532d6e394ff5d4706b0ae8468da2148143bff826bd54b1788379bb88c33ce4a788a10301cf4115b46bd2466aa0dd1d78a7b63563ce88ad8d38b0bb0aa805b35977635260405f8868f7a4700d3cded252c28daf9204384e06ca518d3eab9949d34da73ee23cae049721d84f5da047224bebff241c676fc0b28d261075d37cb323d53f2e347e2cf7d6d1e1b4b4c2389130a070d86858c84ff474de14ff644f89bcecbe63335ec1bdb227644d26ac414a817c6c0b3701f2de26364a16e865e0ced8e733efbfb043a9e4e7553fc928b6f84c25cc0c2f717dd9e91f284ca40eff3b3059cf0466d03b1d87fb2bbb44fa9dc6d17e8cc8883f07eb625aec03eb78ff75128dc83c9066a65e7f60ab943e7975d53a6ecb8dafced85515ca4caccebf82f2ad9b571f26de787d46970459311f67920b0d8ff55156b92f18b86268acc4078ca645a0465d55b33828ac793c8ae6c6f9af9518894d0810f90a208f58f29bd2bdb7933eff2c123deca409876f4cbd2aabd3101679d6725a90770f9e7efc1467df3e9ad7d432ca772e4234cc0968b4d922e2398e4337c9d7fc6c3d9658f0646fa6de87a3824d939cc78b66092e5419ad5c365e1a606c49dab3323630411859ec340a73e576fa15bf807d39be4bae0a563c4d71a367400d2f01a8c08965099fef79036daebef40d7def861482cb03ea461286f2436fe1a2bdec348c8969f4d3153300f5b8f626ec69a67eacaa9c1c200a28a5b37f7377244efd177d2f0cbb53bb72f094eb8967af5135a1daa6b591547a9645f510136d136eeea0abbd8ab22dbb17b3022d0ae7728cf2bcecd439a39b673e7ebd2da88852d3c8e4b4a0172a2f401d0cad25f063c48fa4890c4399f4ed179a3f7d6f8b297dc2199c8b755bd0488cac56af6b66f1255cec2cbd6cb360b918846fc0d633cfc7a53aae09c923c861272e87e5d2a2ba104651bf808eac46bc48ef80ebb58ab385c083528b45cfb1c3c49603f530ca924d5ecc0f6051670f4c83904ee18199687ba495a5c8104d0cbb309595c57338ad72353d1c243642b53b6fc1808be73156da134dc65f6ad1754b480f0f9712691ffef78a7f3d689a33c6cacc9682dfd2831cf224353f86e1423c2ea3f2b858d52e5a6cec746f13eaed2e0cafe077ea7cbf0fa0de739888e2e8b6454cd9be65fd7378a50ebaf74442750dedb58f885fb40df5f3fe5313939e37834b7a72f069982a83075129d3be04b291c3ab634d1b6db74d9112ad1834791897cea0586042577a8d3dedab2a016ea6c60bf1c231acf2fe7763bd4ad3744cb76b090ce064392f635099da326ca2a0c665c1a22f920986dcab98df35e515c22eeedca41db807f175388aa7f173d879c6d40c98c38c851af125d658288f7644969d8d43ab486701a071039470cb80109bcabaee32df3eb0172500809b66c35d69c6220aa2b616b3cbda83d5bbbb6e78a78d28ddb700c8253532db068b379f18d190b635749afeca11fe0517a466361c55dbdaa3731a2f2d42aba99c27c2802d9acc00d44b07b8d6ae86d33b2a7b63abe6c9f8a59b7d2e3e5828f6a5dc5fca718c2d39c9a364303acd7dc8a2b4c4009290857e2e29f8fe961bbda15e0317d61f92e2a0414e97cd1e0adb9e69c28f8bd479fce28ff46952aa8a0a52730eda0908a91448b676d1bfe516f8bb0049ea98ee1fa25f50f7803a193dcecce066c6c576bbacb204b125ec93de547dcbd69faaa07f4db4e8d1b413998fadb17c995cae55c4db32e177aa990332f4573cb9eaa7675f7110bbdaa3bc9fa9354f2d37379e348178e8b19cd6c69f92460841b7c158ee95c17d4467413a1fde07286348fc6ac08899734fa94990886f755781a0ed1858cfea11fb621926e81671507d3f63264a86a79bceaa4624316257baf2bef13c79848117fd9722391da9e72d428127035241cb48295c26efd5e93ad87aa94be7000178a793b8870050cf4e40cd759f7b04d738d527f82e56f3735a2e68abc16d5ae4f05cbd52ed4cd5d73f8a4cb58b5fc003c974ce8635796ad722791424c9eb0347e09663a5a09705f2a3d14c44fd62a18d5d6749b28521bab9b583bb41353e9a0d7a9850da2a510625257fb3da9aeff3756cbdd52828b41ef3202dcf4b3a3151f0cb322373504c6f21503247be7604e78aa209f10d8f8c9e188963ea252da4ca16a53e440de2104dc2cbc4be3a4a642005d2ab140964d7f2093b924350e657b824926ee886e157f9227d632b1c3299dffeeafff694148720d89ac04feceb4faf52910a9e754fe9d49fd06320423704932dad162f4399e904b24358abd4e2deac671e3a9ff581167b21e74dac0aef6f1677a031176d376f88bb209cce7998f18070cf9031d3f72cce883c6394c7c0206f55f3839e42952414145e8526914e68e2998d888bd2e869d1b9c2f91b40499df47d4e144ebf0e1af859a8f9ef9576d9f4876beb784ffdadf59089413141ff656c95a4f25d7e750ac50e8a04e9653bb0f2294283dd32c19d9f853bc4c0b18ffc64fadae57daf5d4f496c052a5eca2406463f5db3e2cd8a9cd6ec04715ae0c9aff1904167268e053e9f8b3a6097ef68c4f3f2f6162cc770a16172368aab4dae6eff80312182225404f50547a86898c9ab0b9cedae9eaeef1082f51656f7a8789a2b5bebfcedcdfe8ebef0415191d1e2e3035525e68797c7d85879193ced4e6f4f60000000000000b21334a01fd2105006bbf64ab3431584a0fdb895a3b5de4b52c2f127c91bc82859ede83c704af5df0723f0dfed9c42c248af7399b8d5ced2aec65506c1160b73206c28e4be73e53c445fc87db62b980e856d7de564831d3ec08e401078261a08510043213f29d972f24d8f46c2c01e238439d28e462d4075e135e087ad24fe975c018fca9128fb20db54e5c2e064a457ba696011e55e9ac51532e3eb388648aea5a019a8692a857cf4bc381f634085f8548f8f7c60ddc3eaf9c2d60047e3dc39744ee0bc21b32bcfdae8c4c49c6ba574617b186b6a5b9d0812e548b3effc59e0b417709e15f6bcc9917b446970520767b9eac6f12c9e494a831558865d86829b9b27732888117d88f48005653ef740cbbc74a50c4f21a1c419578ade2968b8e8e49d1e5da20fddf93069ebc733513de0e446230a696b377080214e410b2522879027836fd9eb70717935412cd58db2aac87dae583233a3b90349ff6b98127aa363bd2b08bcf99d78ae746f588be251733ad01909443473ac6296892d116d2a722f1156b72ce9f523f758e6d1a9f4450c4e71bd81411c25d74565fb87c6bf44ecb79b842a4c7f83a3486e601fcb836cab25bd41abdbcefb7bb4823790adff983345070ad9341b5bc747a35ee9cff12128fbd144ae5ecb10954918440e6d464d50375148f7e01592fe5a2ec74a95938ade9e16485cc8aee7d04b763cf4736f27f6cdef41cd938ea240789e382c70746d2aaf88dc1b97567103167d2edf0c37b06509069e79ee31bfcd783b15b87fe8408871bb196feea06853f2b7b1310b886952724dcb599874ae4bcc0c084459f22c1c11079f5cb37f08ba12b59a47aed2cd315124ef230567b0c89189f50124edd7c687b636e6a4bf6dbcbdf8ca28be8cd887bb2d7d8c1913d50ff42f72ee6eecfd1912fbb4a8ada83f97239b2d89db2685813b985d02316ef499eff2c97d9277d5125af54375e5c8977b87498f50630f0da6f5b31c23538aeccfc0dc6a97e70ccc2e076faa161df9b205f99046982b70f6df1e071e137fbd06795557ace70271a29df37817423b12a22259e879bfef8015edc561379b4f0ab0a88eab4d35045fa76d47409f9e0884164e3fff690a309f5994e6cf070bad5915f9ea1fb6e4a408e7a4b0f398b2101e83d243ceea913e1bc7bbf125424f881c3d5398f1163a6f8e7f75a97090b7305ffc5b116ff1233441cf4970628cef0761064eeb247e545d0230b27371cfdad32ab452576f998dd0df0abf83a94d48bc08bf00e46a756a3cda2aa1a13403c80ed6cab325d4b3e8d050528b786c9640b87cfc40f9a26a6292809b2d91c54164060e2e5f9409b34b506a6d237d90360a3e413e1983a0b502824fd75a99b151822614997154b36489f60ff1e389dcde0d22cfc35a041b46d57b455319851c22c1ba8a9be4241320cfa6de2d3ed9f4c92cf7ba757b0956d8ee0ebff24287fb4b39ba92506fb49f60a3ddb668ee72c872caa1d551f64722daf587adb89ba8911f3bb889bf6b642c013639a71a8475fe31c96d4d943ea829e19b5b196c30c238e33edeac6c2958c436c7d6ca2513f3069dbde34f70d1e2d8e999c653a3f8e715ec6db4c3841343695dba7d513bcd18b7cd807383e9dc4252f09369b756f78b3b20172a314fd8a0d9dac2f79ffc25ad3186e1d3d4b8afe281407664f3c68ec2f684ee28469118eff20fe74c876fdfaf0ca516b88a4d3078b2c2dad7f88a43eea2e78ec130c08eb57cc1e9100367bb22ffd32f220b5ae64836ae296219992425f6d3e8ebed45c867b966b371cb84b6cafb643c2c6c6842a10af22a6f52b642095a03325264f6ad40eb888d42a4b2aeb23dd501fecb127ca67000000",
  "txid": "16dc3c8d4f174d81c404b7429e08939e9055cc7166234725fce802a8bd895e4b",
  "hash": "ca6689c6a66ad36e05a6fe489f0b36a2fee3fec2aefaa283daa8c5ddf2a86152",
  "size": 5085,
  "vsize": 2278,
  "version": 1,
  "locktime": 103,
  "vin": [
    {
      "txid": "ad1aea465654fdc7579abc6878e0d05b36447d1f9be68e4d9c85fb17f4a1eca0",
      "vout": 0,
      "scriptSig": {
        "asm": "",
        "hex": ""
      },
      "txinwitness": [
        "1598267f0d9610001211ae61317316444ea24ba1d36b9b4aa80ed42f1a5e46ea90f70b59238a5665969c49cde239ebadb1362400cb48db2555d5d1736bff718c8592b86fbf18b2ae85084b3f8da8f5cfef5789a68f4fb47b56ee99ae5d06c3f00f493d21be473647c6b84f1a6315491bfa500d63bd2cc8201e622daa95acec714ce659c1f1942acc1e8c517f27cfd48ea00d017d29c5d3831ffb3b11496a5e2d0fa54c3b8fe0e03a93ad420266e1e10f8de7e6534d02cedd2d54e0a3bc55b569e807a9e23a1e0daa165cd763c350424d0b8c9a40a6a56b895d98710c102c7db0e9927c5771bd27b2d538d64c66b6fa8f17d8c9ed95072124ef0779c1d60b7859a4705f2aa1e68d22b5a24a66649099d730f7cb7c68f5beda8e96956c0898ea1b7abe98c0cf476972997a58ebd751c1bdfa39975f204e0c00364dcb80ddb65a2ca4ad0173604a78cb68bae217f19ea48d0a58b6e4f86129b647860304f9b4aab1091d44851f31659e425bdc0436c4e3564bc328e0c5630e0e165d8fe799293bc79d06525cc9eb1afa18406c81bb13e288fa44a144a24820a2186955ada5cdeacdb13337747caf9c8ffeefc0b8868d32842310ff4dfedc0ddf9ec7eca3cd3619d3a3bd02ffa7c089c5573d9dc9a3daa2195553b02e738c9e0cb0340e5c30194f2befa8b35a2b0f1b135a536c6dc0c7373532d6e394ff5d4706b0ae8468da2148143bff826bd54b1788379bb88c33ce4a788a10301cf4115b46bd2466aa0dd1d78a7b63563ce88ad8d38b0bb0aa805b35977635260405f8868f7a4700d3cded252c28daf9204384e06ca518d3eab9949d34da73ee23cae049721d84f5da047224bebff241c676fc0b28d261075d37cb323d53f2e347e2cf7d6d1e1b4b4c2389130a070d86858c84ff474de14ff644f89bcecbe63335ec1bdb227644d26ac414a817c6c0b3701f2de26364a16e865e0ced8e733efbfb043a9e4e7553fc928b6f84c25cc0c2f717dd9e91f284ca40eff3b3059cf0466d03b1d87fb2bbb44fa9dc6d17e8cc8883f07eb625aec03eb78ff75128dc83c9066a65e7f60ab943e7975d53a6ecb8dafced85515ca4caccebf82f2ad9b571f26de787d46970459311f67920b0d8ff55156b92f18b86268acc4078ca645a0465d55b33828ac793c8ae6c6f9af9518894d0810f90a208f58f29bd2bdb7933eff2c123deca409876f4cbd2aabd3101679d6725a90770f9e7efc1467df3e9ad7d432ca772e4234cc0968b4d922e2398e4337c9d7fc6c3d9658f0646fa6de87a3824d939cc78b66092e5419ad5c365e1a606c49dab3323630411859ec340a73e576fa15bf807d39be4bae0a563c4d71a367400d2f01a8c08965099fef79036daebef40d7def861482cb03ea461286f2436fe1a2bdec348c8969f4d3153300f5b8f626ec69a67eacaa9c1c200a28a5b37f7377244efd177d2f0cbb53bb72f094eb8967af5135a1daa6b591547a9645f510136d136eeea0abbd8ab22dbb17b3022d0ae7728cf2bcecd439a39b673e7ebd2da88852d3c8e4b4a0172a2f401d0cad25f063c48fa4890c4399f4ed179a3f7d6f8b297dc2199c8b755bd0488cac56af6b66f1255cec2cbd6cb360b918846fc0d633cfc7a53aae09c923c861272e87e5d2a2ba104651bf808eac46bc48ef80ebb58ab385c083528b45cfb1c3c49603f530ca924d5ecc0f6051670f4c83904ee18199687ba495a5c8104d0cbb309595c57338ad72353d1c243642b53b6fc1808be73156da134dc65f6ad1754b480f0f9712691ffef78a7f3d689a33c6cacc9682dfd2831cf224353f86e1423c2ea3f2b858d52e5a6cec746f13eaed2e0cafe077ea7cbf0fa0de739888e2e8b6454cd9be65fd7378a50ebaf74442750dedb58f885fb40df5f3fe5313939e37834b7a72f069982a83075129d3be04b291c3ab634d1b6db74d9112ad1834791897cea0586042577a8d3dedab2a016ea6c60bf1c231acf2fe7763bd4ad3744cb76b090ce064392f635099da326ca2a0c665c1a22f920986dcab98df35e515c22eeedca41db807f175388aa7f173d879c6d40c98c38c851af125d658288f7644969d8d43ab486701a071039470cb80109bcabaee32df3eb0172500809b66c35d69c6220aa2b616b3cbda83d5bbbb6e78a78d28ddb700c8253532db068b379f18d190b635749afeca11fe0517a466361c55dbdaa3731a2f2d42aba99c27c2802d9acc00d44b07b8d6ae86d33b2a7b63abe6c9f8a59b7d2e3e5828f6a5dc5fca718c2d39c9a364303acd7dc8a2b4c4009290857e2e29f8fe961bbda15e0317d61f92e2a0414e97cd1e0adb9e69c28f8bd479fce28ff46952aa8a0a52730eda0908a91448b676d1bfe516f8bb0049ea98ee1fa25f50f7803a193dcecce066c6c576bbacb204b125ec93de547dcbd69faaa07f4db4e8d1b413998fadb17c995cae55c4db32e177aa990332f4573cb9eaa7675f7110bbdaa3bc9fa9354f2d37379e348178e8b19cd6c69f92460841b7c158ee95c17d4467413a1fde07286348fc6ac08899734fa94990886f755781a0ed1858cfea11fb621926e81671507d3f63264a86a79bceaa4624316257baf2bef13c79848117fd9722391da9e72d428127035241cb48295c26efd5e93ad87aa94be7000178a793b8870050cf4e40cd759f7b04d738d527f82e56f3735a2e68abc16d5ae4f05cbd52ed4cd5d73f8a4cb58b5fc003c974ce8635796ad722791424c9eb0347e09663a5a09705f2a3d14c44fd62a18d5d6749b28521bab9b583bb41353e9a0d7a9850da2a510625257fb3da9aeff3756cbdd52828b41ef3202dcf4b3a3151f0cb322373504c6f21503247be7604e78aa209f10d8f8c9e188963ea252da4ca16a53e440de2104dc2cbc4be3a4a642005d2ab140964d7f2093b924350e657b824926ee886e157f9227d632b1c3299dffeeafff694148720d89ac04feceb4faf52910a9e754fe9d49fd06320423704932dad162f4399e904b24358abd4e2deac671e3a9ff581167b21e74dac0aef6f1677a031176d376f88bb209cce7998f18070cf9031d3f72cce883c6394c7c0206f55f3839e42952414145e8526914e68e2998d888bd2e869d1b9c2f91b40499df47d4e144ebf0e1af859a8f9ef9576d9f4876beb784ffdadf59089413141ff656c95a4f25d7e750ac50e8a04e9653bb0f2294283dd32c19d9f853bc4c0b18ffc64fadae57daf5d4f496c052a5eca2406463f5db3e2cd8a9cd6ec04715ae0c9aff1904167268e053e9f8b3a6097ef68c4f3f2f6162cc770a16172368aab4dae6eff80312182225404f50547a86898c9ab0b9cedae9eaeef1082f51656f7a8789a2b5bebfcedcdfe8ebef0415191d1e2e3035525e68797c7d85879193ced4e6f4f60000000000000b21334a01",
        "006bbf64ab3431584a0fdb895a3b5de4b52c2f127c91bc82859ede83c704af5df0723f0dfed9c42c248af7399b8d5ced2aec65506c1160b73206c28e4be73e53c445fc87db62b980e856d7de564831d3ec08e401078261a08510043213f29d972f24d8f46c2c01e238439d28e462d4075e135e087ad24fe975c018fca9128fb20db54e5c2e064a457ba696011e55e9ac51532e3eb388648aea5a019a8692a857cf4bc381f634085f8548f8f7c60ddc3eaf9c2d60047e3dc39744ee0bc21b32bcfdae8c4c49c6ba574617b186b6a5b9d0812e548b3effc59e0b417709e15f6bcc9917b446970520767b9eac6f12c9e494a831558865d86829b9b27732888117d88f48005653ef740cbbc74a50c4f21a1c419578ade2968b8e8e49d1e5da20fddf93069ebc733513de0e446230a696b377080214e410b2522879027836fd9eb70717935412cd58db2aac87dae583233a3b90349ff6b98127aa363bd2b08bcf99d78ae746f588be251733ad01909443473ac6296892d116d2a722f1156b72ce9f523f758e6d1a9f4450c4e71bd81411c25d74565fb87c6bf44ecb79b842a4c7f83a3486e601fcb836cab25bd41abdbcefb7bb4823790adff983345070ad9341b5bc747a35ee9cff12128fbd144ae5ecb10954918440e6d464d50375148f7e01592fe5a2ec74a95938ade9e16485cc8aee7d04b763cf4736f27f6cdef41cd938ea240789e382c70746d2aaf88dc1b97567103167d2edf0c37b06509069e79ee31bfcd783b15b87fe8408871bb196feea06853f2b7b1310b886952724dcb599874ae4bcc0c084459f22c1c11079f5cb37f08ba12b59a47aed2cd315124ef230567b0c89189f50124edd7c687b636e6a4bf6dbcbdf8ca28be8cd887bb2d7d8c1913d50ff42f72ee6eecfd1912fbb4a8ada83f97239b2d89db2685813b985d02316ef499eff2c97d9277d5125af54375e5c8977b87498f50630f0da6f5b31c23538aeccfc0dc6a97e70ccc2e076faa161df9b205f99046982b70f6df1e071e137fbd06795557ace70271a29df37817423b12a22259e879bfef8015edc561379b4f0ab0a88eab4d35045fa76d47409f9e0884164e3fff690a309f5994e6cf070bad5915f9ea1fb6e4a408e7a4b0f398b2101e83d243ceea913e1bc7bbf125424f881c3d5398f1163a6f8e7f75a97090b7305ffc5b116ff1233441cf4970628cef0761064eeb247e545d0230b27371cfdad32ab452576f998dd0df0abf83a94d48bc08bf00e46a756a3cda2aa1a13403c80ed6cab325d4b3e8d050528b786c9640b87cfc40f9a26a6292809b2d91c54164060e2e5f9409b34b506a6d237d90360a3e413e1983a0b502824fd75a99b151822614997154b36489f60ff1e389dcde0d22cfc35a041b46d57b455319851c22c1ba8a9be4241320cfa6de2d3ed9f4c92cf7ba757b0956d8ee0ebff24287fb4b39ba92506fb49f60a3ddb668ee72c872caa1d551f64722daf587adb89ba8911f3bb889bf6b642c013639a71a8475fe31c96d4d943ea829e19b5b196c30c238e33edeac6c2958c436c7d6ca2513f3069dbde34f70d1e2d8e999c653a3f8e715ec6db4c3841343695dba7d513bcd18b7cd807383e9dc4252f09369b756f78b3b20172a314fd8a0d9dac2f79ffc25ad3186e1d3d4b8afe281407664f3c68ec2f684ee28469118eff20fe74c876fdfaf0ca516b88a4d3078b2c2dad7f88a43eea2e78ec130c08eb57cc1e9100367bb22ffd32f220b5ae64836ae296219992425f6d3e8ebed45c867b966b371cb84b6cafb643c2c6c6842a10af22a6f52b642095a03325264f6ad40eb888d42a4b2aeb23dd501fecb127ca"
      ],
      "sequence": 4294967294
    }
  ],
  "vout": [
    {
      "value": 1.0,
      "n": 0,
      "scriptPubKey": {
        "asm": "OP_RETURN bd9d1f74cd00a89c159b9a92c6a3ab6e68c7d53c1b4dbd373db8f012caa7553d 93f5eb0e3031aa1e185a30f39758ff68e4ddba88c6d121c570cc42acb02a0314b3d5cb2e10118a3e387a10d3b778df48c4fd9aa8e6f101e550ec628c900a2334d3b5ab4e7071ea5e581a70b3d718bf28a49dfac886916185308c02ecf06a4354f3958b6e5051ca7e783a5093f7389f0884bddae8a6b141a510ac22ccd04a637413756b8eb0b12a9e98dab07317d87fe8645d3a084651a145f04cc22c30aa839433554bae90910abeb8fa905337f85fc8447d1a2866718165d06ce20c108aa3b453352bcef0f16aded89af03357983fa8241d7a480611e105b00c826c70eac3d473150beed0d14afef8bad01377b81f88043d5a682631c125902ca24c50cae3f493f5eb0e3031aa1e185a30f39758ff68e4ddba88c6d121c570cc42acb02a0314b3d5cb2e10118a3e387a10d3b778df48c4fd9aa8e6f101e550ec628c900a2334d3b5ab4e7071ea5e581a70b3d718bf28a49dfac886916185308c02ecf06a4354f3958b6e5051ca7e783a5093f7389f0884bddae8a6b141a510ac22ccd04a637413756b8eb0b12a9e98dab07317d87fe8645d3a084651a145f04cc22c30aa839433554bae90910abeb8fa905337f85fc8447d1a2866718165d06ce20c108aa3b453352bcef0f16aded89af03357983fa8241d7a480611e105b00c826c70eac3d473150beed0d14afef8bad01377b81f88043d5a682631c125902ca24c50cae3f493f5eb0e3031aa1e185a30f39758ff68e4ddba88c6d121c570cc42acb02a0314b3d5cb2e10118a3e387a10d3b778df48c4fd9aa8e6f101e550ec628c900a2334d3b5ab4e7071ea5e581a70b3d718bf28a49dfac886916185308c02ecf06a4354f3958b6e5051ca7e783a5093f7389f0884bddae8a6b141a510ac22ccd04a637413756b8eb0b12a9e98dab07317d87fe8645d3a084651a145f04cc22c30aa839433554bae90910abeb8fa905337f85fc8447d1a2866718165d06ce20c108aa3b453352bcef0f16aded89af03357983fa8241d7a480611e105b00c826c70eac3d473150beed0d14afef8bad01377b81f88043d5a682631c125902ca24c50cae3f493f5eb0e3031aa1e185a30f39758ff68e4ddba88c6d121c570cc42acb02a0314b3d5cb2e10118a3e387a10d3b778df48c4fd9aa8e6f101e550ec628c900a2334d3b5ab4e7071ea5e581a70b3d718bf28a49dfac886916185308c02ecf06a4354f3958b6e5051ca7e783a5093f7389f0884bddae8a6b141a510ac22ccd04a637413756b8eb0b12a9e98dab07317d87fe8645d3a084651a145f04cc22c30aa839433554bae90910abeb8fa905337f85fc8447d1a2866718165d06ce20c108aa3b453352bcef0f16aded89af03357983fa8241d7a480611e105b00c826c70eac3d473150beed0d14afef8bad01377b81f88043d5a682631c125902ca24c50cae3f493f5eb0e3031aa1e185a30f39758ff68e4ddba88c6d121c570cc42acb02a0314b3d5cb2e10118a3e387a10d3b778df48c4fd9aa8e6f101e550ec628c900a2334d3b5ab4e7071ea5e581a70b3d718bf28a49dfac886916185308c02ecf06a4354f3958b6e5051ca7e783a5093f7389f0884bddae8a6b141a510ac22ccd04a637413756b8eb0b12a9e98dab07317d87fe8bfdd9b62a7d9c7d0f57cc79797271a16141fd22a545d02afc76607f8bfdab0a1",
        "hex": "6a20bd9d1f74cd00a89c159b9a92c6a3ab6e68c7d53c1b4dbd373db8f012caa7553d4db00493f5eb0e3031aa1e185a30f39758ff68e4ddba88c6d121c570cc42acb02a0314b3d5cb2e10118a3e387a10d3b778df48c4fd9aa8e6f101e550ec628c900a2334d3b5ab4e7071ea5e581a70b3d718bf28a49dfac886916185308c02ecf06a4354f3958b6e5051ca7e783a5093f7389f0884bddae8a6b141a510ac22ccd04a637413756b8eb0b12a9e98dab07317d87fe8645d3a084651a145f04cc22c30aa839433554bae90910abeb8fa905337f85fc8447d1a2866718165d06ce20c108aa3b453352bcef0f16aded89af03357983fa8241d7a480611e105b00c826c70eac3d473150beed0d14afef8bad01377b81f88043d5a682631c125902ca24c50cae3f493f5eb0e3031aa1e185a30f39758ff68e4ddba88c6d121c570cc42acb02a0314b3d5cb2e10118a3e387a10d3b778df48c4fd9aa8e6f101e550ec628c900a2334d3b5ab4e7071ea5e581a70b3d718bf28a49dfac886916185308c02ecf06a4354f3958b6e5051ca7e783a5093f7389f0884bddae8a6b141a510ac22ccd04a637413756b8eb0b12a9e98dab07317d87fe8645d3a084651a145f04cc22c30aa839433554bae90910abeb8fa905337f85fc8447d1a2866718165d06ce20c108aa3b453352bcef0f16aded89af03357983fa8241d7a480611e105b00c826c70eac3d473150beed0d14afef8bad01377b81f88043d5a682631c125902ca24c50cae3f493f5eb0e3031aa1e185a30f39758ff68e4ddba88c6d121c570cc42acb02a0314b3d5cb2e10118a3e387a10d3b778df48c4fd9aa8e6f101e550ec628c900a2334d3b5ab4e7071ea5e581a70b3d718bf28a49dfac886916185308c02ecf06a4354f3958b6e5051ca7e783a5093f7389f0884bddae8a6b141a510ac22ccd04a637413756b8eb0b12a9e98dab07317d87fe8645d3a084651a145f04cc22c30aa839433554bae90910abeb8fa905337f85fc8447d1a2866718165d06ce20c108aa3b453352bcef0f16aded89af03357983fa8241d7a480611e105b00c826c70eac3d473150beed0d14afef8bad01377b81f88043d5a682631c125902ca24c50cae3f493f5eb0e3031aa1e185a30f39758ff68e4ddba88c6d121c570cc42acb02a0314b3d5cb2e10118a3e387a10d3b778df48c4fd9aa8e6f101e550ec628c900a2334d3b5ab4e7071ea5e581a70b3d718bf28a49dfac886916185308c02ecf06a4354f3958b6e5051ca7e783a5093f7389f0884bddae8a6b141a510ac22ccd04a637413756b8eb0b12a9e98dab07317d87fe8645d3a084651a145f04cc22c30aa839433554bae90910abeb8fa905337f85fc8447d1a2866718165d06ce20c108aa3b453352bcef0f16aded89af03357983fa8241d7a480611e105b00c826c70eac3d473150beed0d14afef8bad01377b81f88043d5a682631c125902ca24c50cae3f493f5eb0e3031aa1e185a30f39758ff68e4ddba88c6d121c570cc42acb02a0314b3d5cb2e10118a3e387a10d3b778df48c4fd9aa8e6f101e550ec628c900a2334d3b5ab4e7071ea5e581a70b3d718bf28a49dfac886916185308c02ecf06a4354f3958b6e5051ca7e783a5093f7389f0884bddae8a6b141a510ac22ccd04a637413756b8eb0b12a9e98dab07317d87fe8bfdd9b62a7d9c7d0f57cc79797271a16141fd22a545d02afc76607f8bfdab0a1",
        "type": "nulldata"
      }
    },
    {
      "value": 499995.9324,
      "n": 1,
      "scriptPubKey": {
        "asm": "1 592bd041144f8c3ff81b5fefeef9a2ca13d4872f036cec56c05fba54499f5f61",
        "hex": "5120592bd041144f8c3ff81b5fefeef9a2ca13d4872f036cec56c05fba54499f5f61",
        "reqSigs": 1,
        "type": "witness_v1_scripthash",
        "addresses": [
          "3QJmnh"
        ]
      }
    }
  ],
  "blockhash": "15af9b025c636b87e0a10c18a1a8de0e5f3c2069ad563b293161176d75df89a4",
  "confirmations": 1,
  "time": 1764174659,
  "blocktime": 1764174659
}