{
  "hex": "01000000000101462c8dd5fb9fbc8f24427f7eaf67d66d0eb0089ebeae11083048169582146fb40000000000feffffff0210cdd4fc782d0000225120d64e465dac76736251705e679616a22aedf4559048321fe2c925a703221d464700e1f50500000000fdd5046a201ef518615d503b511c02f851f02879e37a5e7aa78d24acd14ef2e9a492b7ad034db0047430f077bf63202928fd2d9bfd40c6cc4ddb6743adbfee16ca0f02f7089498cc5410d0579f43000908dd0dbbdd60e6ec6dfb47638d9fce36ea2f22d728b4b8ec3470b037ff23606968bd6ddbbd00868c0d9b2703edffae568a4f42b748d4d88c14509017df034049489d4dfb9d20a6ac2dbb0723cddf8e76aa6f629768f4f8acf4b070f73fe3a0a9a87dad1b7dc0464ccd5be7c32d3f6e964a8f82778814184cd49050d71fc38089885d8d3b5de0666ced7bc7e30d1f4eb66aafa257a834386cb4f030b77fa3e0e9e83ded5b3d80060c8d1ba7836d7f2ed60acfc237c854580c94d010975f83c0c9c81dcd7b1da0262cad3b87a34d5f0ef62aefe217e874782c7430f077bf63202928fd2d9bfd40c6cc4ddb6743adbfee16ca0f02f7089498cc5410d0579f43000908dd0dbbdd60e6ec6dfb47638d9fce36ea2f22d728b4b8ec3470b037ff23606968bd6ddbbd00868c0d9b2703edffae568a4f42b748d4d88c14509017df034049489d4dfb9d20a6ac2dbb0723cddf8e76aa6f629768f4f8acf4b070f73fe3a0a9a87dad1b7dc0464ccd5be7c32d3f6e964a8f82778814184cd49050d71fc38089885d8d3b5de0666ced7bc7e30d1f4eb66aafa257a834386cb4f030b77fa3e0e9e83ded5b3d80060c8d1ba7836d7f2ed60acfc237c854580c94d010975f83c0c9c81dcd7b1da0262cad3b87a34d5f0ef62aefe217e874782c7430f077bf63202928fd2d9bfd40c6cc4ddb6743adbfee16ca0f02f7089498cc5410d0579f43000908dd0dbbdd60e6ec6dfb47638d9fce36ea2f22d728b4b8ec3470b037ff23606968bd6ddbbd00868c0d9b2703edffae568a4f42b748d4d88c14509017df034049489d4dfb9d20a6ac2dbb0723cddf8e76aa6f629768f4f8acf4b070f73fe3a0a9a87dad1b7dc0464ccd5be7c32d3f6e964a8f82778814184cd49050d71fc38089885d8d3b5de0666ced7bc7e30d1f4eb66aafa257a834386cb4f030b77fa3e0e9e83ded5b3d80060c8d1ba7836d7f2ed60acfc237c854580c94d010975f83c0c9c81dcd7b1da0262cad3b87a34d5f0ef62aefe217e874782c7430f077bf63202928fd2d9bfd40c6cc4ddb6743adbfee16ca0f02f7089498cc5410d0579f43000908dd0dbbdd60e6ec6dfb47638d9fce36ea2f22d728b4b8ec3470b037ff23606968bd6ddbbd00868c0d9b2703edffae568a4f42b748d4d88c14509017df034049489d4dfb9d20a6ac2dbb0723cddf8e76aa6f629768f4f8acf4b070f73fe3a0a9a87dad1b7dc0464ccd5be7c32d3f6e964a8f82778814184cd49050d71fc38089885d8d3b5de0666ced7bc7e30d1f4eb66aafa257a834386cb4f030b77fa3e0e9e83ded5b3d80060c8d1ba7836d7f2ed60acfc237c854580c94d010975f83c0c9c81dcd7b1da0262cad3b87a34d5f0ef62aefe217e874782c7430f077bf63202928fd2d9bfd40c6cc4ddb6743adbfee16ca0f02f7089498cc5410d0579f43000908dd0dbbdd60e6ec6dfb47638d9fce36ea2f22d728b4b8ec3470b037ff23606968bd6ddbbd00868c0d9b2703edffae568a4f42b748d4d88c14509017df034049489d4dfb9d20a6ac2dbb0723cddf8e76aa6f629768f4f8acf4b070f73fe3a0a9a87dad1b7dc0464c463487a282a4d5ca3ae09aaf1df540850bd054ff48167e7b7a3f19643f2dd66202fd7509c7c17b3f0cce5a38afaba99e8fb50e57dd1074ea5148bddfdeca1482d978cc4b6e5ca519087d158a597e0940b60c4f0dafa0efa971106e8391308bc7d904e54671c8afced5736ee47a63b6fa3f21e3619c0d2bf85f8f3442d783ae397e28b525f9408ef3525cf3bbc89f2f0cacaedb3e2f0e07cc8d0a56a027a9298b0bccfcdeb2e3ca0c5c3470751c4fb9690bc48f7149b820ab1cfe363cd79e9e495db78d21e220b81fefa8117d28a12d74f757e1f6fb657c1051db6feec81e07f23acff4bbd1eac193b0717ed089b36b17ac455af9f413ce37bd8feae9b356a9a3f5d1f3d7c5c96c48950862261483b69a6ccae10e98f94d6192b4ce7ab15c92900ed440d5d8596ab0f7b015a3157d214d75fb56c990b2776fc8697441e2097bccad70ca9896f91f660c3b3de15f93577e7083da951904fe7fa73238690bacb5901ae7c87ac53af3cc2b00750a63cce5e5c3c6cdd3e2f64797fb82ceb5e442d3923aacaf441d01f77366eb8c4bcb89d9846153fa212f0f2fa1405f762b8dfdb728206780cd9529eb929403b0dbaef05d835ab3574ad9cbcd3cefb03d1e253389fd4d9ec66fa1eacd40f442e3131b893493f36bef94908d7c201efefa46535a1cae5266d65946784e32fed610b49c6b8870638d1ebb4ab34a68eaa7dc31f5410dad3e85ae9ab38a262510e1341257dcc8b1f411ec03e7265a1f58b5b7a124e86b15842f610e8cd9d455a10b7a3ed31c6fc1504095747dc42ebe7b3f1d66e3402d85050f5ac2f2092e717a9dac8fe06b8c7bb945bbff33457d12952d44a967a914df75904e5ba67035cdf4036df56184ec51c02db2d812acb03cecb726a6900d1922bc3c12d64b657f358bd2726d77fedaa3f84e43153f2111c5f60293ae42ca94d460b9f530a4632b71d6c82eb0ec8b68ed8d1f9a3c1a5c13cfe25fa1aad0f40fa8336aaf50e1c5410715da0315f881a48dfd6fd7e04da98d14272efa959fbbebd8199ff11f784ec2881416090543bd561d68c70ddabc816f4bda20551c369b659343ead54bc9c5918382447bfbc75770e7f7d4ed193b72d87658f1c026c900a02b9f5991e85c5af40658b98a6028df84c1d601de15718010a4cc0ab2690eb1e241794ef1691470a8fd6196cfb8e69ab31ed49453e89728febbaf1ef84ca86a26e55ee8dca426f03502b2bc011ddfe4ec5a683762470648b4a65cf8ca5a06b96cbfb87335c71c4aa050e9ff77c645ee7959c76ff61cd2b2aa4ee99ccf61a9909f11a73b57d8ff295e5abcf3aea2ce093104d97c9288d9c513ae3cec65f6976218f241615d7f5a00b776472e38bd3bd27e505f9abb06a0c7b585304a3754199b5e2c774d76e3b3f78416f2ae0cc92881df35b0c330d5333c709bb968669db012a40161b7f240f2ce3b69b2487eb4057ac3ee7381b2a4e6db66ebf3523b5c8295d5a525a09ac8354417cc403633150c014a7a26d4a275ca0cc5fb64fcf30630fa1681c6dd7e0c723c89f60afa35eb44a89fbbc3dc3bd0383ce8545aa64bd065106d8d7ca8d126da432e04868ded4f561150bedeeca0669d4f6105029d13c1bc596c6d0fc196c64055b4f6685e254c842295ac74633ad62ff7c808e1d14b504fc3ce9ee305a9c0a53b2a82e9a9150c5d4f6bc276804727755903c98186ce22c2a318a73a39bbf4cb44414ee9f71d51af9d7d2884cb309f1006dcffe2e906ca7c020157e97204bbb9438c06cc852234cf24e9a635ed5218b96c82ad4f20c07ef87a2735b3e8fe68c052565ffd0f74609b8604c06fdbf1c6ee7c5b91b35d10427dc19862f1a0e39318d7559dc747873d5ba452eaa3f79b93416550de91b32aaff96f4ddaf4d431c0da4312d6197a160eaa2d093b36498353e38a8b9ff689f1caa288d52542e79e3c7469a6805d6ffba72b0f0efa50b267ca74af666da03124d553a7b34854523e48c34dce6ad93ba9214c60a38ee6cd418eac895e8159c205709bf27b1e96a7edf11645e657415f2a0464a0df198056b9529beaa65e8ef9832732c47edf5ddb4861326d4c8b800c7bd046311ec5d88ab9b4db9c4fb28332cfe32029476a9432fa7fa7e5daffd31cbf245e5dcd28d4d1d67dd4feec16f3d7573bd35f9e1c23c5377655255a0d3894a08a0ab2c7bde75d883b9d97bfa2a4c5b434c31b9fb0805dee12cd8876d3774c6904e167ba492b6fefa386e22a3811db1a4e219fdeb8271b2a523d6cd5cb365401c9da37cedcfd75263c31837fcb3d1f732b6faff64d8e0c9added8caf508d0b744e49106e7fbca095aaa70099eea0cd381226c6a8377cdf98608fad21b19beb03db33da2030cc307dd2e9fd1ecdf9bc147d2310a674476062f609b6371f745fd43342b54202c8812d91bbb662511fd9db8a8154075069fb6bdf05f4efc5c0e3f6553decf118efb27cfd316074ff97f183f97a031879256b8d6116ca13bc1d6edf1fa3895e019e04fdd61dc348770bed48dcfc26cbdd44232be58b32cf2266d23a18882329f345af242a627aa30795509358c1a95b9818a1a00d50d9ab5e50f5e854faaa701c39c5b06d195de572d0bdf961afd3a2aee5efb51141c12ce00bb8b416bf93d25c4b783f42049f08aeef0b5a495d9f4870ce4c6dc191b39ac1c88faf560ef5916ad992ec774c8e310a3a576156d23feade5edb6ececd772e17fcd4d9acb8cde7e445dd9194c391cc0ac7c887334337c96247000eaba370969fbaa00bd6e13928d04b50f9f8b65c3086931149abf2011b91865b5e52f43d567a5f31e0f1c9c423e63238bca1b226a05e7087af60e1c9da065e3c6edac8a1d279673bb83240b2b1588ff3cc0366934bb4653002083a887259090ff8a329f3d7e6b7cbd19145f54804107a0718ddde00b08cc34819d64cc9713ec08cd001b6fff1fb9e990d729bda81e4c2c811dd7b6baff30863418b95c9f5733f713290306d552e773c245da26565c7d65517ee9ca3c6c214a12ec661c12563302923edee396f5b72b5a366d7bb32a49946b349d451118db6535830c367744f86f06d4dfafc821fb0598878d6cfa85521d922bc5fce1c93afebc2803a96d9f1559158ae2b1c1c83f672f35f2f31da2f4c2ffba4c012a6b788b8b5b22484e2f86da67c23f041838fd1cd1910fd65134f0ced804f7c01c55049659c6d15034d9e0a70666e5badd478beafe3d0c09975a18ff4c8df48522b4831a2017f1731a6bdb6c75f04ec54da0ce6a64b25b1c93e3c1da0763372232b6b247fe4c2c8c57f6bcddba162a4bcb86bd4eb734b664cd911469f8e506e578b5b89a229fee66bbb8a5fd5714c585e6475768b8fa3a4afb1b6e0f7f92e3f424454888fbad4f312171b2f525d5e8788aff31c2024314144486e7a8aa5aab9eaf7f8000000000000000000000000000000000000000000000000000000101a253501fd210500b6dd51586946c91c70b3dee8a56a8b1c90680faf59a9dbe565ea7496e6be2ba545b0ecc109b96ceb119fca427450379dacdc6ef82cf1ee9711b4633aaf520b2ec5b31e88b119b8e9d2bab42d9979fe878ee12e08e840a8c1755cf3d51447867ee94009c087e1c9cb62ee1ba355772bc2c2d16c67dec0c5b7d393caa9a60bc22673a3d15e2240e43af1c1fe1e346b34e21c3f39c19d64745de2a31743d8ca1f34d5cbba97e1cf7077fe172e7dc66aa6a6fa7892345e58cd0230901d878c86eb24165284c2b4fe132fce3fb22e45096dca99b2f92d2e7977800b47a6f6dc05e150cccec6f2bbf962286472528d6e46ddd9b7572caec6eb0ab18cb09cf022fec724e2ca56fe44a3050a8a987e7cae26e1c8020eb3fe7d13f41d7777a1eaada443d63f5908fb9e953973a881a9d9a0fa11dbd0415d4537903ccdcb150ae7287295abdc63e1cf3af75f80edf5949301669e54ba9c4432d9258dc5eb719bb6270f0e5b974204c489d51be1dd4f830f8e5975539e8b18b695d58dd060db1f2c7f315f3d97a3f6a994aee6f563e713ac897449a47e3111ace4993534cd076c1dc77f5ac6887ebcb9d1e98fc255e12126454b1be93e789f7a254a2c4e845a238f4af662b5dec7c9e176d45bfe6cc19791c538534c762fb2d3ffd8efbca9ae45a3c800d435516d553598baeb2f8748810d69e1191469c0225cbb93ed1b93b6bda998b3f263510f84a4fc7199af4f6099daca63092038cfcf2294e44e889a4baf7f6035f692b29fe126bb77d72338b47d64d9837fbba46460a053a51c6a21ab306317cda104c5556d198d52f753e4172879aa932efb2eb0c66c6020a515784ce09501b3ec0ff248f00a5f544372b4dbb0bf18c33ef024864abefd90a9b769ed12842e91733a344b87c19295cc5dadb5d45c52f07a62a3137be99fdf640201ec86784add7020bd379c947f8bb34d8ceb429b33c896a4003a69e3fd70d9913489773dc1d49fd5778ab327d7978e071b71b6c6791b40278ef13622656da1f9b46f093863bfa3a9608de9915e57989e5d4880189941f3519de78b6f396201e21f25bbd4850c625e8c28644c3f734fdb874403e138f63a183879dcdf380df35f609f5aa4bf20d298ae18554e3677da5e84ab01cf4e395e71e6d20d5382b1641b4872dc78358a49e9e39a73cb2e233bcec4dc71525bd6d6c02e51148e077873a630e91bff596e7b66c7042c369f1b1cf58dc8aaa55f45b0fea03996bac59322914335934264c2f7f519e309dc96ba67f746e5dc0d5056b83f61984013900e6d118e64bcd8674c6e4178fe15472792a257a0e411da2824b2d9bb62746e2847a88c0eedc9ce603e342ed4792e689c00064bf1fb87ce5c6563d13bc05df64514c8599d1bf821c70010efc70b62b727ef61bee31c2ac0065f0eb990dd6b7823a93e0ac2fc872502053407210accee2c95ee6449b285a1965902ab50847c2fdad955976778410e5fd3f3cf3c62896ecc62e21385e62b432e8c5240d0c7d85daed6ed0c21bda90a2590b8b12fb79cdb1028ac1cb08de8666bba0756d040a64687c56256dc7cc1bd1a99c19c8dac2c9d5d6eaaad16765663375f2aeafa74f5648b65c701c982df14d4b9be340f8fe05c30398c870b2e5402bf27317d5928a0e96cb43b0a35a34d95d978556351de54cc2a2c0e7b1834deb7bfd793621242b70a0c8ab4b676e395833ff686f6bcd627642b464c9483752c0a4fcbed389769c9a0ac5226cf9cb25086103e0259c128d56de73161de8a3ecc04a1e28ceb1f601e60374f4a37b66f6997dd01bfbdffb80b457c800530a2b88a76250b302408ac7e9d24def266f6e2755678d3344a72000000",
  "txid": "1f1f69424590104f73f2128eac276de2185ba4254b19e37e0a436436d38b81ae",
  "hash": "6f2ffb9503a6a2a8a87d99e41bb72b37bcf3e08ccfced19b8318fe6af847aee5",
  "size": 5085,
  "vsize": 2278,
  "version": 1,
  "locktime": 114,
  "vin": [
    {
      "txid": "b46f1482951648300811aebe9e08b00e6dd667af7e7f42248fbc9ffbd58d2c46",
      "vout": 0,
      "scriptSig": {
        "asm": "",
        "hex": ""
      },
      "txinwitness": [
        "c7c17b3f0cce5a38afaba99e8fb50e57dd1074ea5148bddfdeca1482d978cc4b6e5ca519087d158a597e0940b60c4f0dafa0efa971106e8391308bc7d904e54671c8afced5736ee47a63b6fa3f21e3619c0d2bf85f8f3442d783ae397e28b525f9408ef3525cf3bbc89f2f0cacaedb3e2f0e07cc8d0a56a027a9298b0bccfcdeb2e3ca0c5c3470751c4fb9690bc48f7149b820ab1cfe363cd79e9e495db78d21e220b81fefa8117d28a12d74f757e1f6fb657c1051db6feec81e07f23acff4bbd1eac193b0717ed089b36b17ac455af9f413ce37bd8feae9b356a9a3f5d1f3d7c5c96c48950862261483b69a6ccae10e98f94d6192b4ce7ab15c92900ed440d5d8596ab0f7b015a3157d214d75fb56c990b2776fc8697441e2097bccad70ca9896f91f660c3b3de15f93577e7083da951904fe7fa73238690bacb5901ae7c87ac53af3cc2b00750a63cce5e5c3c6cdd3e2f64797fb82ceb5e442d3923aacaf441d01f77366eb8c4bcb89d9846153fa212f0f2fa1405f762b8dfdb728206780cd9529eb929403b0dbaef05d835ab3574ad9cbcd3cefb03d1e253389fd4d9ec66fa1eacd40f442e3131b893493f36bef94908d7c201efefa46535a1cae5266d65946784e32fed610b49c6b8870638d1ebb4ab34a68eaa7dc31f5410dad3e85ae9ab38a262510e1341257dcc8b1f411ec03e7265a1f58b5b7a124e86b15842f610e8cd9d455a10b7a3ed31c6fc1504095747dc42ebe7b3f1d66e3402d85050f5ac2f2092e717a9dac8fe06b8c7bb945bbff33457d12952d44a967a914df75904e5ba67035cdf4036df56184ec51c02db2d812acb03cecb726a6900d1922bc3c12d64b657f358bd2726d77fedaa3f84e43153f2111c5f60293ae42ca94d460b9f530a4632b71d6c82eb0ec8b68ed8d1f9a3c1a5c13cfe25fa1aad0f40fa8336aaf50e1c5410715da0315f881a48dfd6fd7e04da98d14272efa959fbbebd8199ff11f784ec2881416090543bd561d68c70ddabc816f4bda20551c369b659343ead54bc9c5918382447bfbc75770e7f7d4ed193b72d87658f1c026c900a02b9f5991e85c5af40658b98a6028df84c1d601de15718010a4cc0ab2690eb1e241794ef1691470a8fd6196cfb8e69ab31ed49453e89728febbaf1ef84ca86a26e55ee8dca426f03502b2bc011ddfe4ec5a683762470648b4a65cf8ca5a06b96cbfb87335c71c4aa050e9ff77c645ee7959c76ff61cd2b2aa4ee99ccf61a9909f11a73b57d8ff295e5abcf3aea2ce093104d97c9288d9c513ae3cec65f6976218f241615d7f5a00b776472e38bd3bd27e505f9abb06a0c7b585304a3754199b5e2c774d76e3b3f78416f2ae0cc92881df35b0c330d5333c709bb968669db012a40161b7f240f2ce3b69b2487eb4057ac3ee7381b2a4e6db66ebf3523b5c8295d5a525a09ac8354417cc403633150c014a7a26d4a275ca0cc5fb64fcf30630fa1681c6dd7e0c723c89f60afa35eb44a89fbbc3dc3bd0383ce8545aa64bd065106d8d7ca8d126da432e04868ded4f561150bedeeca0669d4f6105029d13c1bc596c6d0fc196c64055b4f6685e254c842295ac74633ad62ff7c808e1d14b504fc3ce9ee305a9c0a53b2a82e9a9150c5d4f6bc276804727755903c98186ce22c2a318a73a39bbf4cb44414ee9f71d51af9d7d2884cb309f1006dcffe2e906ca7c020157e97204bbb9438c06cc852234cf24e9a635ed5218b96c82ad4f20c07ef87a2735b3e8fe68c052565ffd0f74609b8604c06fdbf1c6ee7c5b91b35d10427dc19862f1a0e39318d7559dc747873d5ba452eaa3f79b93416550de91b32aaff96f4ddaf4d431c0da4312d6197a160eaa2d093b36498353e38a8b9ff689f1caa288d52542e79e3c7469a6805d6ffba72b0f0efa50b267ca74af666da03124d553a7b34854523e48c34dce6ad93ba9214c60a38ee6cd418eac895e8159c205709bf27b1e96a7edf11645e657415f2a0464a0df198056b9529beaa65e8ef9832732c47edf5ddb4861326d4c8b800c7bd046311ec5d88ab9b4db9c4fb28332cfe32029476a9432fa7fa7e5daffd31cbf245e5dcd28d4d1d67dd4feec16f3d7573bd35f9e1c23c5377655255a0d3894a08a0ab2c7bde75d883b9d97bfa2a4c5b434c31b9fb0805dee12cd8876d3774c6904e167ba492b6fefa386e22a3811db1a4e219fdeb8271b2a523d6cd5cb365401c9da37cedcfd75263c31837fcb3d1f732b6faff64d8e0c9added8caf508d0b744e49106e7fbca095aaa70099eea0cd381226c6a8377cdf98608fad21b19beb03db33da2030cc307dd2e9fd1ecdf9bc147d2310a674476062f609b6371f745fd43342b54202c8812d91bbb662511fd9db8a8154075069fb6bdf05f4efc5c0e3f6553decf118efb27cfd316074ff97f183f97a031879256b8d6116ca13bc1d6edf1fa3895e019e04fdd61dc348770bed48dcfc26cbdd44232be58b32cf2266d23a18882329f345af242a627aa30795509358c1a95b9818a1a00d50d9ab5e50f5e854faaa701c39c5b06d195de572d0bdf961afd3a2aee5efb51141c12ce00bb8b416bf93d25c4b783f42049f08aeef0b5a495d9f4870ce4c6dc191b39ac1c88faf560ef5916ad992ec774c8e310a3a576156d23feade5edb6ececd772e17fcd4d9acb8cde7e445dd9194c391cc0ac7c887334337c96247000eaba370969fbaa00bd6e13928d04b50f9f8b65c3086931149abf2011b91865b5e52f43d567a5f31e0f1c9c423e63238bca1b226a05e7087af60e1c9da065e3c6edac8a1d279673bb83240b2b1588ff3cc0366934bb4653002083a887259090ff8a329f3d7e6b7cbd19145f54804107a0718ddde00b08cc34819d64cc9713ec08cd001b6fff1fb9e990d729bda81e4c2c811dd7b6baff30863418b95c9f5733f713290306d552e773c245da26565c7d65517ee9ca3c6c214a12ec661c12563302923edee396f5b72b5a366d7bb32a49946b349d451118db6535830c367744f86f06d4dfafc821fb0598878d6cfa85521d922bc5fce1c93afebc2803a96d9f1559158ae2b1c1c83f672f35f2f31da2f4c2ffba4c012a6b788b8b5b22484e2f86da67c23f041838fd1cd1910fd65134f0ced804f7c01c55049659c6d15034d9e0a70666e5badd478beafe3d0c09975a18ff4c8df48522b4831a2017f1731a6bdb6c75f04ec54da0ce6a64b25b1c93e3c1da0763372232b6b247fe4c2c8c57f6bcddba162a4bcb86bd4eb734b664cd911469f8e506e578b5b89a229fee66bbb8a5fd5714c585e6475768b8fa3a4afb1b6e0f7f92e3f424454888fbad4f312171b2f525d5e8788aff31c2024314144486e7a8aa5aab9eaf7f8000000000000000000000000000000000000000000000000000000101a253501",
        "00b6dd51586946c91c70b3dee8a56a8b1c90680faf59a9dbe565ea7496e6be2ba545b0ecc109b96ceb119fca427450379dacdc6ef82cf1ee9711b4633aaf520b2ec5b31e88b119b8e9d2bab42d9979fe878ee12e08e840a8c1755cf3d51447867ee94009c087e1c9cb62ee1ba355772bc2c2d16c67dec0c5b7d393caa9a60bc22673a3d15e2240e43af1c1fe1e346b34e21c3f39c19d64745de2a31743d8ca1f34d5cbba97e1cf7077fe172e7dc66aa6a6fa7892345e58cd0230901d878c86eb24165284c2b4fe132fce3fb22e45096dca99b2f92d2e7977800b47a6f6dc05e150cccec6f2bbf962286472528d6e46ddd9b7572caec6eb0ab18cb09cf022fec724e2ca56fe44a3050a8a987e7cae26e1c8020eb3fe7d13f41d7777a1eaada443d63f5908fb9e953973a881a9d9a0fa11dbd0415d4537903ccdcb150ae7287295abdc63e1cf3af75f80edf5949301669e54ba9c4432d9258dc5eb719bb6270f0e5b974204c489d51be1dd4f830f8e5975539e8b18b695d58dd060db1f2c7f315f3d97a3f6a994aee6f563e713ac897449a47e3111ace4993534cd076c1dc77f5ac6887ebcb9d1e98fc255e12126454b1be93e789f7a254a2c4e845a238f4af662b5dec7c9e176d45bfe6cc19791c538534c762fb2d3ffd8efbca9ae45a3c800d435516d553598baeb2f8748810d69e1191469c0225cbb93ed1b93b6bda998b3f263510f84a4fc7199af4f6099daca63092038cfcf2294e44e889a4baf7f6035f692b29fe126bb77d72338b47d64d9837fbba46460a053a51c6a21ab306317cda104c5556d198d52f753e4172879aa932efb2eb0c66c6020a515784ce09501b3ec0ff248f00a5f544372b4dbb0bf18c33ef024864abefd90a9b769ed12842e91733a344b87c19295cc5dadb5d45c52f07a62a3137be99fdf640201ec86784add7020bd379c947f8bb34d8ceb429b33c896a4003a69e3fd70d9913489773dc1d49fd5778ab327d7978e071b71b6c6791b40278ef13622656da1f9b46f093863bfa3a9608de9915e57989e5d4880189941f3519de78b6f396201e21f25bbd4850c625e8c28644c3f734fdb874403e138f63a183879dcdf380df35f609f5aa4bf20d298ae18554e3677da5e84ab01cf4e395e71e6d20d5382b1641b4872dc78358a49e9e39a73cb2e233bcec4dc71525bd6d6c02e51148e077873a630e91bff596e7b66c7042c369f1b1cf58dc8aaa55f45b0fea03996bac59322914335934264c2f7f519e309dc96ba67f746e5dc0d5056b83f61984013900e6d118e64bcd8674c6e4178fe15472792a257a0e411da2824b2d9bb62746e2847a88c0eedc9ce603e342ed4792e689c00064bf1fb87ce5c6563d13bc05df64514c8599d1bf821c70010efc70b62b727ef61bee31c2ac0065f0eb990dd6b7823a93e0ac2fc872502053407210accee2c95ee6449b285a1965902ab50847c2fdad955976778410e5fd3f3cf3c62896ecc62e21385e62b432e8c5240d0c7d85daed6ed0c21bda90a2590b8b12fb79cdb1028ac1cb08de8666bba0756d040a64687c56256dc7cc1bd1a99c19c8dac2c9d5d6eaaad16765663375f2aeafa74f5648b65c701c982df14d4b9be340f8fe05c30398c870b2e5402bf27317d5928a0e96cb43b0a35a34d95d978556351de54cc2a2c0e7b1834deb7bfd793621242b70a0c8ab4b676e395833ff686f6bcd627642b464c9483752c0a4fcbed389769c9a0ac5226cf9cb25086103e0259c128d56de73161de8a3ecc04a1e28ceb1f601e60374f4a37b66f6997dd01bfbdffb80b457c800530a2b88a76250b302408ac7e9d24def266f6e2755678d3344a"
      ],
      "sequence": 4294967294
    }
  ],
  "vout": [
    {
      "value": 499976.6113,
      "n": 0,
      "scriptPubKey": {
        "asm": "1 d64e465dac76736251705e679616a22aedf4559048321fe2c925a703221d4647",
        "hex": "5120d64e465dac76736251705e679616a22aedf4559048321fe2c925a703221d4647",
        "reqSigs": 1,
        "type": "witness_v1_scripthash",
        "addresses": [
          "3QJmnh"
        ]
      }
    },
    {
      "value": 1.0,
      "n": 1,
      "scriptPubKey": {
        "asm": "OP_RETURN 1ef518615d503b511c02f851f02879e37a5e7aa78d24acd14ef2e9a492b7ad03 7430f077bf63202928fd2d9bfd40c6cc4ddb6743adbfee16ca0f02f7089498cc5410d0579f43000908dd0dbbdd60e6ec6dfb47638d9fce36ea2f22d728b4b8ec3470b037ff23606968bd6ddbbd00868c0d9b2703edffae568a4f42b748d4d88c14509017df034049489d4dfb9d20a6ac2dbb0723cddf8e76aa6f629768f4f8acf4b070f73fe3a0a9a87dad1b7dc0464ccd5be7c32d3f6e964a8f82778814184cd49050d71fc38089885d8d3b5de0666ced7bc7e30d1f4eb66aafa257a834386cb4f030b77fa3e0e9e83ded5b3d80060c8d1ba7836d7f2ed60acfc237c854580c94d010975f83c0c9c81dcd7b1da0262cad3b87a34d5f0ef62aefe217e874782c7430f077bf63202928fd2d9bfd40c6cc4ddb6743adbfee16ca0f02f7089498cc5410d0579f43000908dd0dbbdd60e6ec6dfb47638d9fce36ea2f22d728b4b8ec3470b037ff23606968bd6ddbbd00868c0d9b2703edffae568a4f42b748d4d88c14509017df034049489d4dfb9d20a6ac2dbb0723cddf8e76aa6f629768f4f8acf4b070f73fe3a0a9a87dad1b7dc0464ccd5be7c32d3f6e964a8f82778814184cd49050d71fc38089885d8d3b5de0666ced7bc7e30d1f4eb66aafa257a834386cb4f030b77fa3e0e9e83ded5b3d80060c8d1ba7836d7f2ed60acfc237c854580c94d010975f83c0c9c81dcd7b1da0262cad3b87a34d5f0ef62aefe217e874782c7430f077bf63202928fd2d9bfd40c6cc4ddb6743adbfee16ca0f02f7089498cc5410d0579f43000908dd0dbbdd60e6ec6dfb47638d9fce36ea2f22d728b4b8ec3470b037ff23606968bd6ddbbd00868c0d9b2703edffae568a4f42b748d4d88c14509017df034049489d4dfb9d20a6ac2dbb0723cddf8e76aa6f629768f4f8acf4b070f73fe3a0a9a87dad1b7dc0464ccd5be7c32d3f6e964a8f82778814184cd49050d71fc38089885d8d3b5de0666ced7bc7e30d1f4eb66aafa257a834386cb4f030b77fa3e0e9e83ded5b3d80060c8d1ba7836d7f2ed60acfc237c854580c94d010975f83c0c9c81dcd7b1da0262cad3b87a34d5f0ef62aefe217e874782c7430f077bf63202928fd2d9bfd40c6cc4ddb6743adbfee16ca0f02f7089498cc5410d0579f43000908dd0dbbdd60e6ec6dfb47638d9fce36ea2f22d728b4b8ec3470b037ff23606968bd6ddbbd00868c0d9b2703edffae568a4f42b748d4d88c14509017df034049489d4dfb9d20a6ac2dbb0723cddf8e76aa6f629768f4f8acf4b070f73fe3a0a9a87dad1b7dc0464ccd5be7c32d3f6e964a8f82778814184cd49050d71fc38089885d8d3b5de0666ced7bc7e30d1f4eb66aafa257a834386cb4f030b77fa3e0e9e83ded5b3d80060c8d1ba7836d7f2ed60acfc237c854580c94d010975f83c0c9c81dcd7b1da0262cad3b87a34d5f0ef62aefe217e874782c7430f077bf63202928fd2d9bfd40c6cc4ddb6743adbfee16ca0f02f7089498cc5410d0579f43000908dd0dbbdd60e6ec6dfb47638d9fce36ea2f22d728b4b8ec3470b037ff23606968bd6ddbbd00868c0d9b2703edffae568a4f42b748d4d88c14509017df034049489d4dfb9d20a6ac2dbb0723cddf8e76aa6f629768f4f8acf4b070f73fe3a0a9a87dad1b7dc0464c463487a282a4d5ca3ae09aaf1df540850bd054ff48167e7b7a3f19643f2dd662",
        "hex": "6a201ef518615d503b511c02f851f02879e37a5e7aa78d24acd14ef2e9a492b7ad034db0047430f077bf63202928fd2d9bfd40c6cc4ddb6743adbfee16ca0f02f7089498cc5410d0579f43000908dd0dbbdd60e6ec6dfb47638d9fce36ea2f22d728b4b8ec3470b037ff23606968bd6ddbbd00868c0d9b2703edffae568a4f42b748d4d88c14509017df034049489d4dfb9d20a6ac2dbb0723cddf8e76aa6f629768f4f8acf4b070f73fe3a0a9a87dad1b7dc0464ccd5be7c32d3f6e964a8f82778814184cd49050d71fc38089885d8d3b5de0666ced7bc7e30d1f4eb66aafa257a834386cb4f030b77fa3e0e9e83ded5b3d80060c8d1ba7836d7f2ed60acfc237c854580c94d010975f83c0c9c81dcd7b1da0262cad3b87a34d5f0ef62aefe217e874782c7430f077bf63202928fd2d9bfd40c6cc4ddb6743adbfee16ca0f02f7089498cc5410d0579f43000908dd0dbbdd60e6ec6dfb47638d9fce36ea2f22d728b4b8ec3470b037ff23606968bd6ddbbd00868c0d9b2703edffae568a4f42b748d4d88c14509017df034049489d4dfb9d20a6ac2dbb0723cddf8e76aa6f629768f4f8acf4b070f73fe3a0a9a87dad1b7dc0464ccd5be7c32d3f6e964a8f82778814184cd49050d71fc38089885d8d3b5de0666ced7bc7e30d1f4eb66aafa257a834386cb4f030b77fa3e0e9e83ded5b3d80060c8d1ba7836d7f2ed60acfc237c854580c94d010975f83c0c9c81dcd7b1da0262cad3b87a34d5f0ef62aefe217e874782c7430f077bf63202928fd2d9bfd40c6cc4ddb6743adbfee16ca0f02f7089498cc5410d0579f43000908dd0dbbdd60e6ec6dfb47638d9fce36ea2f22d728b4b8ec3470b037ff23606968bd6ddbbd00868c0d9b2703edffae568a4f42b748d4d88c14509017df034049489d4dfb9d20a6ac2dbb0723cddf8e76aa6f629768f4f8acf4b070f73fe3a0a9a87dad1b7dc0464ccd5be7c32d3f6e964a8f82778814184cd49050d71fc38089885d8d3b5de0666ced7bc7e30d1f4eb66aafa257a834386cb4f030b77fa3e0e9e83ded5b3d80060c8d1ba7836d7f2ed60acfc237c854580c94d010975f83c0c9c81dcd7b1da0262cad3b87a34d5f0ef62aefe217e874782c7430f077bf63202928fd2d9bfd40c6cc4ddb6743adbfee16ca0f02f7089498cc5410d0579f43000908dd0dbbdd60e6ec6dfb47638d9fce36ea2f22d728b4b8ec3470b037ff23606968bd6ddbbd00868c0d9b2703edffae568a4f42b748d4d88c14509017df034049489d4dfb9d20a6ac2dbb0723cddf8e76aa6f629768f4f8acf4b070f73fe3a0a9a87dad1b7dc0464ccd5be7c32d3f6e964a8f82778814184cd49050d71fc38089885d8d3b5de0666ced7bc7e30d1f4eb66aafa257a834386cb4f030b77fa3e0e9e83ded5b3d80060c8d1ba7836d7f2ed60acfc237c854580c94d010975f83c0c9c81dcd7b1da0262cad3b87a34d5f0ef62aefe217e874782c7430f077bf63202928fd2d9bfd40c6cc4ddb6743adbfee16ca0f02f7089498cc5410d0579f43000908dd0dbbdd60e6ec6dfb47638d9fce36ea2f22d728b4b8ec3470b037ff23606968bd6ddbbd00868c0d9b2703edffae568a4f42b748d4d88c14509017df034049489d4dfb9d20a6ac2dbb0723cddf8e76aa6f629768f4f8acf4b070f73fe3a0a9a87dad1b7dc0464c463487a282a4d5ca3ae09aaf1df540850bd054ff48167e7b7a3f19643f2dd662",
        "type": "nulldata"
      }
    }
  ],
  "blockhash": "b00c1afcc726d07acf9b884f47bf06130e4cba196c4900690ef7405d42c36beb",
  "confirmations": 1,
  "time": 1764180257,
  "blocktime": 1764180257
}