{
  "hex": "01000000000101fea9de0ea54732d61e6dd84e66462970ac8be8267e9d32072ff03b0f2005b57b0100000000feffffff0200ce47c6782d0000225120e32909a9fcb0ce0c924b5a8b91f85e898671b4fbba8e0986dfbfcc2c305ae44300e1f50500000000fdd5046a20ecade9c0b7c1930534a0e27f39de8d2dfb1ab7d8abefb12f6f9686478e2cb5a54db00435408d84ccbbd08bb575d0dfd42a1dea82776aed3e134797ac7e8ba65caa60371560ada4ec9bf0ab9555f0fff40a3dcaa2574acd1e3367b78c5eab867c8a40177500cdc48cfb90cbf535909f946a5daac2372aad7e5307d7ec3ecbe61cea20775520ede4acdbb0ebd515b0bfb44a7d8ae2170a8d5e7327f7cc1eebc63cca0057b5c00d044c3b500b35f5505f54aa9d6a02f7ea6dbe93c7172cfe0b26dc2ae0b795e02d246c1b702b15d5707f748abd4a22d7ca4d9eb3e7370cde2b06fc0ac097f5804d440c7b104b75b5101f14eadd2a42b7aa2dfed387576cbe4b669c6aa0f7d5a06d642c5b306b5595303f34cafd0a62978a0ddef3a7774c9e6b46bc4a80d735408d84ccbbd08bb575d0dfd42a1dea82776aed3e134797ac7e8ba65caa60371560ada4ec9bf0ab9555f0fff40a3dcaa2574acd1e3367b78c5eab867c8a40177500cdc48cfb90cbf535909f946a5daac2372aad7e5307d7ec3ecbe61cea20775520ede4acdbb0ebd515b0bfb44a7d8ae2170a8d5e7327f7cc1eebc63cca0057b5c00d044c3b500b35f5505f54aa9d6a02f7ea6dbe93c7172cfe0b26dc2ae0b795e02d246c1b702b15d5707f748abd4a22d7ca4d9eb3e7370cde2b06fc0ac097f5804d440c7b104b75b5101f14eadd2a42b7aa2dfed387576cbe4b669c6aa0f7d5a06d642c5b306b5595303f34cafd0a62978a0ddef3a7774c9e6b46bc4a80d735408d84ccbbd08bb575d0dfd42a1dea82776aed3e134797ac7e8ba65caa60371560ada4ec9bf0ab9555f0fff40a3dcaa2574acd1e3367b78c5eab867c8a40177500cdc48cfb90cbf535909f946a5daac2372aad7e5307d7ec3ecbe61cea20775520ede4acdbb0ebd515b0bfb44a7d8ae2170a8d5e7327f7cc1eebc63cca0057b5c00d044c3b500b35f5505f54aa9d6a02f7ea6dbe93c7172cfe0b26dc2ae0b795e02d246c1b702b15d5707f748abd4a22d7ca4d9eb3e7370cde2b06fc0ac097f5804d440c7b104b75b5101f14eadd2a42b7aa2dfed387576cbe4b669c6aa0f7d5a06d642c5b306b5595303f34cafd0a62978a0ddef3a7774c9e6b46bc4a80d735408d84ccbbd08bb575d0dfd42a1dea82776aed3e134797ac7e8ba65caa60371560ada4ec9bf0ab9555f0fff40a3dcaa2574acd1e3367b78c5eab867c8a40177500cdc48cfb90cbf535909f946a5daac2372aad7e5307d7ec3ecbe61cea20775520ede4acdbb0ebd515b0bfb44a7d8ae2170a8d5e7327f7cc1eebc63cca0057b5c00d044c3b500b35f5505f54aa9d6a02f7ea6dbe93c7172cfe0b26dc2ae0b795e02d246c1b702b15d5707f748abd4a22d7ca4d9eb3e7370cde2b06fc0ac097f5804d440c7b104b75b5101f14eadd2a42b7aa2dfed387576cbe4b669c6aa0f7d5a06d642c5b306b5595303f34cafd0a62978a0ddef3a7774c9e6b46bc4a80d735408d84ccbbd08bb575d0dfd42a1dea82776aed3e134797ac7e8ba65caa60371560ada4ec9bf0ab9555f0fff40a3dcaa2574acd1e3367b78c5eab867c8a40177500cdc48cfb90cbf535909f946a5daac2372aad7e5307d7ec3ecbe61cea20775520ede4acdbb0ebd515b0bfb44a7d8ae2170a8d5e7327f7cc1eebc63cca0057b5c00d044c3b500b35f5505f54aa9d6af130ffba8020eb35b04a4ab15422cd4a8090ffdd16d7229ea5ef1f295efaac8202fd7509b44e9ff06e4187e3c14e83e98cc96340d0b17b226de67407978d6efa8f40e876f210018bc753da7506681a3af5885e59ac1988bf286927fadb6d57128df98b9ce85c7e5978451cff774a7fdbf56b9240815be94b0bbe784f953cda92526a2475e291eea1fa5b513dd3245b0c1f2758f3b7e57474c4cd8b5e927c2953dd071c7e29695648c765b97d2917584e4e31bcb424db8db17674f012c5465edf2633ccc3928a5a714a610d55d79ec722ee53d1155ca40ae95b33f625ad19fc385ee0dd878fff35b221a2163c20056c3581892aebf9ee5a9df2e4d2ff212794094bac143a689805921b18ac7f49ed6d8141eb42a4ba6e5fb3fbe1ab83a77ef02c0f4798a48d7ea4be64a6e602d0516e03bfdd83ba5ad11e27d51f5e9bdd49dcc4701d4c71edbde633f20fbf87744150870fe46fb0fd51f59d37fe70ab142e66bb08137893cd835d6791d45f1419f1f2486c2c31bc5505cf3cde66044487f02882e326aa6099d01d2fa37e43e0bc708d4814501b29db5ce96cff568751e9998d962605f3369e63c3ae15b7201dc159de018e17673dbef4deb85cd5eb77a3f443785db78701631c4fe08c31574a8163c97c327a26c268658a9c13ac5481dba74db29e6b70d6ac1b080f12a235d165f9aa97f562b2e565c8211c5dd0ab8982257a26fe932f01f57d8115a89d43e14a33e18f44280fc85b656e2e6dbbeb4ea842890d1d7f93236aad1629952fefe4191338404ccc0a54c16bba67391c53715c5dd6b740327e7017c6edae4de611345439d5fee25e088ba05137fd5b918a4bea1c867deaf2f2b13b5684a0b221711ec1b9b281d19a3e6c4e25f4e39171af2aca1eb22b594d21f037b43d968126742942908480e8e81d85001fcbf23dfecd2fcb850b094ed1f1ec8cb9cfb04bfc134b8ba8a5cbf745db35e22c594701307f49718634983469691c2fba23da75e725aa75f5a7518c26de25fb5c716c7a97e5049186904918fa761337a7113a34288929a4fc724777c8e805df4c4f2c9fe61ba20d22b62b4ebc7a3de76ef71e4e4c4678a76d4ea80e297d2b4b4fcaa6363be56429f7a56092a07bd4d3637415d400b97824a470bc821ba474ad8ca11d843d286ee5a1f6a9478463750e3e9755f2032b2b704686d7370ab7bf0d3763c7b31e8f6c2ee7c97996daa9fdbee28430a36b3a7d4916e89639a0aa7203649af797c157934d1b9b8dcadf0507f8d20c135595cf9fb6a786698619c2db5a75e1ab97fc266f0499239ee6e40832da7dd6ebf128082c16f1385f87930714b1c2bff94aa4bcca53e8609ae38641a731ef7c0f845df647c3e2eec862facd76ad2a27b8d6ba74eb311307176f6694c8aaa65991a9bed0a5a99eb1857c51babc93ae648861f500b1641531cccef474258f47663b15d498d9091573b179a6fcfcdc105411869cabfb81dbe14febf744072c128854a694261682e613572564db4a894f7fdb93d0c68108adf70bb5e8dafc0b3f357882006c9565a668a24dc859fbb89e6efc4562d5486b93c3805dd2bc33d185fe259ada1d56d29f303090c9a5490190d2e9678c4638062dc85da6542789618327439d8cd40dbd19e5f706ec5a008f75729ad8fa3c1c4d44d57e74f5ed4dbc3de83cd1dc5c347866a39b30512f6b805d8230b8f62ad7c77d2f7eb5e9349d17fe55b664eb36cb356b8fe9431e8b382dd56b8fa4f600bc557ed711e8b476e708799ba8762836d485566bc9622aa09851333c4bc174bbfb3e7615b2f881803ecf239556dd348cb465546bddb3ceafaa61d35b2efe96f67a8e968ebfbfac1e5ecadb57961958f6a71921139e3ed3f25ef355055123e4bf555032bc47381ec7308e324ae1012369597a5fd15bce4d59b8ecf8ad6bac58fe8e9a20a447351ac1fc4a5dfe4ef703562047335fc83ebbda54264bda1f812c82a911ee1161a7c28d98bb1438fb28fe314c0c52a49ee62fd607b54964146b6b2716ee3c10806f4efd785fffe60b8e72cfee0ba5fd132a7af97f335c7b154a30f22e5432923b5f67bd17250f8b24b429fab3573207481ad6767510af81a4a3aa66aac87dba1ec5aa80dd6ae04ae13e89d18690d0c17f6c6968fe5d8b929815909021ae5b8bc621c23afe11788f1c1404e097bbb8eef0296a3f1a30c293729e4a6f656ed7a91256b00e111d57a7fd8f27ddf5bd3d8a0e6771c8c2fdef79442ed9ae2433484e3049fc196dc11e00a6dc143f6a324972f73de374658b1b282d843cd674a64393a964c7479407f797cb07390da46a41ff4296855e6f5ba171489d5924fa49b8e6d67b003cd27d5cf56ed6b2b18b35212b2f5767ec4db72a601020feed270d973c60a5bb391a2be8912ccd69657e85325356dd2f7cb4885ca58eb75fbc9949d7118004858fe24bc9801ac75ddc8213a478d4cd328499109ab82227dd83d1166d6066ec571d7cdbc1fc6131c25c7f86cf5f986cda60aca80e5444412bbe9000818837b3e358bd13157cf241c8ce117aac2e4ebc1a2f779b0c7d53a3e8b9d3b1e4a42c2152ad3464345eb3d7d8dcea5d94e1b1acab988564f1c50f2084e381f24be6ba808df188cc0dc28df35d03097ede014a67f9c567d016ccae1dd408ae3df745876ccdc1fc0999daaed5d182d24881da2cfbfb7a80f89ea7f660d4a51e306cb24c68298df2c29e4d4604999db6377e23abd9646b389ea6323cdd848b37471b60c73486799e59bd9d473af0101bad18b5ba3330e8405d6176501e671d512961bd4ae1f32f3483a56de137f8a3371660b6e373a79a53589376e8e675bbab6c69f1496bd431bfd22cc5b998cc9a61ad338441d160912a2a4681a203bfb894e74911272728ee21e3138549124c499392104abfe1937e41b34e54f94218c4141912277574440ee766e0708383327047787809f7ee592b87b54b6e87a30b3eb813d4f4d9fa6e9aecebc6c0f0cae497e8e0b77bf1de00fc03d28b350ae7b4511d10fe8d3a50582b0f31ef08fb0ce027540b5e1897a4e3a808af1fd416a64efd47eafd3bd19fe11c9a2ff59810a0fa75265e8bb029e951585e9835cb38d681e5ca5d295fea85a082c9baa702be27a0d06fbfa065d970ddf65f460861f52e098f38c6fad72b9d36272f15c9678741e67c18a3c7ce5fa2c2b2690b34c624b309f904caaaa458024de2e8ba3c370ed01036e80d610a6f7be14db0d439efb96da51ab31330c5f8bb3cbc688bdf11e2f6c2353ff379e0c32431506ba1e29e4faa27cff5b0aa65bb9eb07fa0bf44b1ea6a7c79b134f8824001fc37e89345d00d005b6a8ea24654927f57088c080a31353c55696a7376a8de1f2831505d696b6fa6b4b7bcc10623242629395058787ca0a3a7b4c9cbd6d9e1e8ebf5f6f819232b324863717d7e81939ac7dbe1f60000000000000000000000000000000c19314101fd2105008636f542e6d2b92263e8362b3c0f648e59b9fc9b10341c2627fe0e7f193d18ab9ec9c20bd2d673a743f4b80cc7d8621ae3bbc340ecf82661bcd78639382a939177ff38d6b07d0ed184014f321f92933aee6ae55e65f02411deb7b69aa4eaae02c78d02d058417c5b678678d0a004d84c0d61bfe603fba77dfc48ef9dfa8292f8452897860649e2b1c8804847952ac0dcb294fabcf0e7cfee6b60dcb4792b9298c2c5d616fcf363b0cd4ce2376bf49f910d925a0beb0ba23bb9aa9344b9088cd6361b1bea4c8cb0a09ed5b956c7f48b8d96a091c2ca44ad3237271bbdaf631243d3af2c5cecff282e0d07db639e2a134a1459bec174198e025e25fbe5b27c8c5dd86389c1cf397067dd8877344e970a42f032be3914e4e7d86014983940a032868d68d68f69bed6a7abc36f3388b52d00840b3f4c936da51371ffd48db4de1449d8c6626154e5f505f0067a828ee46b2a3b4b86c075aa51e0fd2de7a41f26a85eaf866f7d6038f108a18f297d1f65e480df66f61fa9b725eb5fa00c186bd8341f8a8511221aa67d06752c70f82950bfa856cf3dd77aeafc2e69b36e38b2f612f308fb05c2ecbbc1bf6267b8052569c583a7f44b328b72d6e99efd3062f6cb5f146c2ee452c455afa392a1a1810a31870dfcc4ec9c1d8940b5acc253021e0fd562189098522a4f26ee8617b87b76e66531130a1083c1a86d40bf857641eeca49cc612ca289f6a03ade1c63c833688194f05e0c64edb0d5dd5d9d7bfae3f42e4d845c63b0204615db216e894a5fa3adbd93e493e04dda0342ab3b65ec616f786d24cf48d26635e3ea0e8bb19e824c9d692079e13b55fb4fab06bc06ca188165f172d1a0467f11e9e1806651a82bfd08064da433c252d8efda146515f1e5aab32cbc97f555b8ad5ffa2e2a822561d88eb4e79df0ab648c7f15a1e5beb662d66a571cce8e80b762e7778050fa4e23a4b913a62e9e4e25c90887dc5fda3bb7a3c0f24676d5098b00134321998719f2b1c5bf3259a0f4e91d345440a1dc5201ae4e664e9480688892deee840ba27e5ef561ef64838541dc798e629a7c7d6cbace89dfdc95c0f3e5d3619b55cc3f954688837a9c335ce0e7f6038f14442268575a8a57faa804a9cceb7c87e7e5aecc01788316ab5374fff93b46a2abba56085f3c00bffa671643175b3a9d9fc2c2a57b88904e2c46dd86978583675965e20dcd8ea617c8fec74e2539822b8660c6cbdf713dc2617f26ea6d1e6163488a72dcc96356f1dac9aabb5bbb83cfb35463fdf1ca73430c15ebd869690b1b60868da59e14e2afc6441ee5a83e026ee09136b98f829324a08cd031020b3dca74cb2d7ce7df9e1f1881437059ffc6f3a6bf6fac6cd15419c16ce377e9847a9f60b1bc642b500e7edd258551e4ee1d8927cbe23d574f8090ce89d86d27ae5d9af93e0e0d0538883bb07b517fad11cbf8ec1080978607c36429006af5134f3580e620e740922603b6aa3edd4348447aa3aa568c6bb2200390fad55bef0cb4c3f3ac554a81aa2dc34f6062cba4d5580b8ef0d471c087b5945071e230ef96bfde976a20e2a8b923141617ccda6affa496605a1f7949710d45969f3d2805600eededc72cf7eedc01084396bf1acffb06dfbd06f52fc912187536b4fbaed2e603a12d89dabd445a96869dda4e6990ebb6d36d25a0ae0b634256a0e13d6d5b7a64a60e762190349008bc9401e4fbd2307c8e50e8a68349028a07baff5f7d6658390335f81f647b4fd80129bbe0ecd7085b934b4570e72f35e43e9468620fc7bb82f2fc06ad764a68de0927cc3a7afed476de5ef34077cfc985ab4945ac4bd7358c6ee0b9b3d1b2cfbeacf52b7f000000",
  "txid": "19b7dd97f16be2336986bfb857f85ecc9ad8c4e5b1f4de9fa18cd6a0c9f3062a",
  "hash": "8387817f8ebf85146067fba7247912b0ad0700603ec3dafb5bda34ddbd77f65b",
  "size": 5085,
  "vsize": 2278,
  "version": 1,
  "locktime": 127,
  "vin": [
    {
      "txid": "7bb505200f3bf02f07329d7e26e88bac702946664ed86d1ed63247a50edea9fe",
      "vout": 1,
      "scriptSig": {
        "asm": "",
        "hex": ""
      },
      "txinwitness": [
        "b44e9ff06e4187e3c14e83e98cc96340d0b17b226de67407978d6efa8f40e876f210018bc753da7506681a3af5885e59ac1988bf286927fadb6d57128df98b9ce85c7e5978451cff774a7fdbf56b9240815be94b0bbe784f953cda92526a2475e291eea1fa5b513dd3245b0c1f2758f3b7e57474c4cd8b5e927c2953dd071c7e29695648c765b97d2917584e4e31bcb424db8db17674f012c5465edf2633ccc3928a5a714a610d55d79ec722ee53d1155ca40ae95b33f625ad19fc385ee0dd878fff35b221a2163c20056c3581892aebf9ee5a9df2e4d2ff212794094bac143a689805921b18ac7f49ed6d8141eb42a4ba6e5fb3fbe1ab83a77ef02c0f4798a48d7ea4be64a6e602d0516e03bfdd83ba5ad11e27d51f5e9bdd49dcc4701d4c71edbde633f20fbf87744150870fe46fb0fd51f59d37fe70ab142e66bb08137893cd835d6791d45f1419f1f2486c2c31bc5505cf3cde66044487f02882e326aa6099d01d2fa37e43e0bc708d4814501b29db5ce96cff568751e9998d962605f3369e63c3ae15b7201dc159de018e17673dbef4deb85cd5eb77a3f443785db78701631c4fe08c31574a8163c97c327a26c268658a9c13ac5481dba74db29e6b70d6ac1b080f12a235d165f9aa97f562b2e565c8211c5dd0ab8982257a26fe932f01f57d8115a89d43e14a33e18f44280fc85b656e2e6dbbeb4ea842890d1d7f93236aad1629952fefe4191338404ccc0a54c16bba67391c53715c5dd6b740327e7017c6edae4de611345439d5fee25e088ba05137fd5b918a4bea1c867deaf2f2b13b5684a0b221711ec1b9b281d19a3e6c4e25f4e39171af2aca1eb22b594d21f037b43d968126742942908480e8e81d85001fcbf23dfecd2fcb850b094ed1f1ec8cb9cfb04bfc134b8ba8a5cbf745db35e22c594701307f49718634983469691c2fba23da75e725aa75f5a7518c26de25fb5c716c7a97e5049186904918fa761337a7113a34288929a4fc724777c8e805df4c4f2c9fe61ba20d22b62b4ebc7a3de76ef71e4e4c4678a76d4ea80e297d2b4b4fcaa6363be56429f7a56092a07bd4d3637415d400b97824a470bc821ba474ad8ca11d843d286ee5a1f6a9478463750e3e9755f2032b2b704686d7370ab7bf0d3763c7b31e8f6c2ee7c97996daa9fdbee28430a36b3a7d4916e89639a0aa7203649af797c157934d1b9b8dcadf0507f8d20c135595cf9fb6a786698619c2db5a75e1ab97fc266f0499239ee6e40832da7dd6ebf128082c16f1385f87930714b1c2bff94aa4bcca53e8609ae38641a731ef7c0f845df647c3e2eec862facd76ad2a27b8d6ba74eb311307176f6694c8aaa65991a9bed0a5a99eb1857c51babc93ae648861f500b1641531cccef474258f47663b15d498d9091573b179a6fcfcdc105411869cabfb81dbe14febf744072c128854a694261682e613572564db4a894f7fdb93d0c68108adf70bb5e8dafc0b3f357882006c9565a668a24dc859fbb89e6efc4562d5486b93c3805dd2bc33d185fe259ada1d56d29f303090c9a5490190d2e9678c4638062dc85da6542789618327439d8cd40dbd19e5f706ec5a008f75729ad8fa3c1c4d44d57e74f5ed4dbc3de83cd1dc5c347866a39b30512f6b805d8230b8f62ad7c77d2f7eb5e9349d17fe55b664eb36cb356b8fe9431e8b382dd56b8fa4f600bc557ed711e8b476e708799ba8762836d485566bc9622aa09851333c4bc174bbfb3e7615b2f881803ecf239556dd348cb465546bddb3ceafaa61d35b2efe96f67a8e968ebfbfac1e5ecadb57961958f6a71921139e3ed3f25ef355055123e4bf555032bc47381ec7308e324ae1012369597a5fd15bce4d59b8ecf8ad6bac58fe8e9a20a447351ac1fc4a5dfe4ef703562047335fc83ebbda54264bda1f812c82a911ee1161a7c28d98bb1438fb28fe314c0c52a49ee62fd607b54964146b6b2716ee3c10806f4efd785fffe60b8e72cfee0ba5fd132a7af97f335c7b154a30f22e5432923b5f67bd17250f8b24b429fab3573207481ad6767510af81a4a3aa66aac87dba1ec5aa80dd6ae04ae13e89d18690d0c17f6c6968fe5d8b929815909021ae5b8bc621c23afe11788f1c1404e097bbb8eef0296a3f1a30c293729e4a6f656ed7a91256b00e111d57a7fd8f27ddf5bd3d8a0e6771c8c2fdef79442ed9ae2433484e3049fc196dc11e00a6dc143f6a324972f73de374658b1b282d843cd674a64393a964c7479407f797cb07390da46a41ff4296855e6f5ba171489d5924fa49b8e6d67b003cd27d5cf56ed6b2b18b35212b2f5767ec4db72a601020feed270d973c60a5bb391a2be8912ccd69657e85325356dd2f7cb4885ca58eb75fbc9949d7118004858fe24bc9801ac75ddc8213a478d4cd328499109ab82227dd83d1166d6066ec571d7cdbc1fc6131c25c7f86cf5f986cda60aca80e5444412bbe9000818837b3e358bd13157cf241c8ce117aac2e4ebc1a2f779b0c7d53a3e8b9d3b1e4a42c2152ad3464345eb3d7d8dcea5d94e1b1acab988564f1c50f2084e381f24be6ba808df188cc0dc28df35d03097ede014a67f9c567d016ccae1dd408ae3df745876ccdc1fc0999daaed5d182d24881da2cfbfb7a80f89ea7f660d4a51e306cb24c68298df2c29e4d4604999db6377e23abd9646b389ea6323cdd848b37471b60c73486799e59bd9d473af0101bad18b5ba3330e8405d6176501e671d512961bd4ae1f32f3483a56de137f8a3371660b6e373a79a53589376e8e675bbab6c69f1496bd431bfd22cc5b998cc9a61ad338441d160912a2a4681a203bfb894e74911272728ee21e3138549124c499392104abfe1937e41b34e54f94218c4141912277574440ee766e0708383327047787809f7ee592b87b54b6e87a30b3eb813d4f4d9fa6e9aecebc6c0f0cae497e8e0b77bf1de00fc03d28b350ae7b4511d10fe8d3a50582b0f31ef08fb0ce027540b5e1897a4e3a808af1fd416a64efd47eafd3bd19fe11c9a2ff59810a0fa75265e8bb029e951585e9835cb38d681e5ca5d295fea85a082c9baa702be27a0d06fbfa065d970ddf65f460861f52e098f38c6fad72b9d36272f15c9678741e67c18a3c7ce5fa2c2b2690b34c624b309f904caaaa458024de2e8ba3c370ed01036e80d610a6f7be14db0d439efb96da51ab31330c5f8bb3cbc688bdf11e2f6c2353ff379e0c32431506ba1e29e4faa27cff5b0aa65bb9eb07fa0bf44b1ea6a7c79b134f8824001fc37e89345d00d005b6a8ea24654927f57088c080a31353c55696a7376a8de1f2831505d696b6fa6b4b7bcc10623242629395058787ca0a3a7b4c9cbd6d9e1e8ebf5f6f819232b324863717d7e81939ac7dbe1f60000000000000000000000000000000c19314101",
        "008636f542e6d2b92263e8362b3c0f648e59b9fc9b10341c2627fe0e7f193d18ab9ec9c20bd2d673a743f4b80cc7d8621ae3bbc340ecf82661bcd78639382a939177ff38d6b07d0ed184014f321f92933aee6ae55e65f02411deb7b69aa4eaae02c78d02d058417c5b678678d0a004d84c0d61bfe603fba77dfc48ef9dfa8292f8452897860649e2b1c8804847952ac0dcb294fabcf0e7cfee6b60dcb4792b9298c2c5d616fcf363b0cd4ce2376bf49f910d925a0beb0ba23bb9aa9344b9088cd6361b1bea4c8cb0a09ed5b956c7f48b8d96a091c2ca44ad3237271bbdaf631243d3af2c5cecff282e0d07db639e2a134a1459bec174198e025e25fbe5b27c8c5dd86389c1cf397067dd8877344e970a42f032be3914e4e7d86014983940a032868d68d68f69bed6a7abc36f3388b52d00840b3f4c936da51371ffd48db4de1449d8c6626154e5f505f0067a828ee46b2a3b4b86c075aa51e0fd2de7a41f26a85eaf866f7d6038f108a18f297d1f65e480df66f61fa9b725eb5fa00c186bd8341f8a8511221aa67d06752c70f82950bfa856cf3dd77aeafc2e69b36e38b2f612f308fb05c2ecbbc1bf6267b8052569c583a7f44b328b72d6e99efd3062f6cb5f146c2ee452c455afa392a1a1810a31870dfcc4ec9c1d8940b5acc253021e0fd562189098522a4f26ee8617b87b76e66531130a1083c1a86d40bf857641eeca49cc612ca289f6a03ade1c63c833688194f05e0c64edb0d5dd5d9d7bfae3f42e4d845c63b0204615db216e894a5fa3adbd93e493e04dda0342ab3b65ec616f786d24cf48d26635e3ea0e8bb19e824c9d692079e13b55fb4fab06bc06ca188165f172d1a0467f11e9e1806651a82bfd08064da433c252d8efda146515f1e5aab32cbc97f555b8ad5ffa2e2a822561d88eb4e79df0ab648c7f15a1e5beb662d66a571cce8e80b762e7778050fa4e23a4b913a62e9e4e25c90887dc5fda3bb7a3c0f24676d5098b00134321998719f2b1c5bf3259a0f4e91d345440a1dc5201ae4e664e9480688892deee840ba27e5ef561ef64838541dc798e629a7c7d6cbace89dfdc95c0f3e5d3619b55cc3f954688837a9c335ce0e7f6038f14442268575a8a57faa804a9cceb7c87e7e5aecc01788316ab5374fff93b46a2abba56085f3c00bffa671643175b3a9d9fc2c2a57b88904e2c46dd86978583675965e20dcd8ea617c8fec74e2539822b8660c6cbdf713dc2617f26ea6d1e6163488a72dcc96356f1dac9aabb5bbb83cfb35463fdf1ca73430c15ebd869690b1b60868da59e14e2afc6441ee5a83e026ee09136b98f829324a08cd031020b3dca74cb2d7ce7df9e1f1881437059ffc6f3a6bf6fac6cd15419c16ce377e9847a9f60b1bc642b500e7edd258551e4ee1d8927cbe23d574f8090ce89d86d27ae5d9af93e0e0d0538883bb07b517fad11cbf8ec1080978607c36429006af5134f3580e620e740922603b6aa3edd4348447aa3aa568c6bb2200390fad55bef0cb4c3f3ac554a81aa2dc34f6062cba4d5580b8ef0d471c087b5945071e230ef96bfde976a20e2a8b923141617ccda6affa496605a1f7949710d45969f3d2805600eededc72cf7eedc01084396bf1acffb06dfbd06f52fc912187536b4fbaed2e603a12d89dabd445a96869dda4e6990ebb6d36d25a0ae0b634256a0e13d6d5b7a64a60e762190349008bc9401e4fbd2307c8e50e8a68349028a07baff5f7d6658390335f81f647b4fd80129bbe0ecd7085b934b4570e72f35e43e9468620fc7bb82f2fc06ad764a68de0927cc3a7afed476de5ef34077cfc985ab4945ac4bd7358c6ee0b9b3d1b2cfbeacf52b"
      ],
      "sequence": 4294967294
    }
  ],
  "vout": [
    {
      "value": 499967.4592,
      "n": 0,
      "scriptPubKey": {
        "asm": "1 e32909a9fcb0ce0c924b5a8b91f85e898671b4fbba8e0986dfbfcc2c305ae443",
        "hex": "5120e32909a9fcb0ce0c924b5a8b91f85e898671b4fbba8e0986dfbfcc2c305ae443",
        "reqSigs": 1,
        "type": "witness_v1_scripthash",
        "addresses": [
          "3QJmnh"
        ]
      }
    },
    {
      "value": 1.0,
      "n": 1,
      "scriptPubKey": {
        "asm": "OP_RETURN ecade9c0b7c1930534a0e27f39de8d2dfb1ab7d8abefb12f6f9686478e2cb5a5 35408d84ccbbd08bb575d0dfd42a1dea82776aed3e134797ac7e8ba65caa60371560ada4ec9bf0ab9555f0fff40a3dcaa2574acd1e3367b78c5eab867c8a40177500cdc48cfb90cbf535909f946a5daac2372aad7e5307d7ec3ecbe61cea20775520ede4acdbb0ebd515b0bfb44a7d8ae2170a8d5e7327f7cc1eebc63cca0057b5c00d044c3b500b35f5505f54aa9d6a02f7ea6dbe93c7172cfe0b26dc2ae0b795e02d246c1b702b15d5707f748abd4a22d7ca4d9eb3e7370cde2b06fc0ac097f5804d440c7b104b75b5101f14eadd2a42b7aa2dfed387576cbe4b669c6aa0f7d5a06d642c5b306b5595303f34cafd0a62978a0ddef3a7774c9e6b46bc4a80d735408d84ccbbd08bb575d0dfd42a1dea82776aed3e134797ac7e8ba65caa60371560ada4ec9bf0ab9555f0fff40a3dcaa2574acd1e3367b78c5eab867c8a40177500cdc48cfb90cbf535909f946a5daac2372aad7e5307d7ec3ecbe61cea20775520ede4acdbb0ebd515b0bfb44a7d8ae2170a8d5e7327f7cc1eebc63cca0057b5c00d044c3b500b35f5505f54aa9d6a02f7ea6dbe93c7172cfe0b26dc2ae0b795e02d246c1b702b15d5707f748abd4a22d7ca4d9eb3e7370cde2b06fc0ac097f5804d440c7b104b75b5101f14eadd2a42b7aa2dfed387576cbe4b669c6aa0f7d5a06d642c5b306b5595303f34cafd0a62978a0ddef3a7774c9e6b46bc4a80d735408d84ccbbd08bb575d0dfd42a1dea82776aed3e134797ac7e8ba65caa60371560ada4ec9bf0ab9555f0fff40a3dcaa2574acd1e3367b78c5eab867c8a40177500cdc48cfb90cbf535909f946a5daac2372aad7e5307d7ec3ecbe61cea20775520ede4acdbb0ebd515b0bfb44a7d8ae2170a8d5e7327f7cc1eebc63cca0057b5c00d044c3b500b35f5505f54aa9d6a02f7ea6dbe93c7172cfe0b26dc2ae0b795e02d246c1b702b15d5707f748abd4a22d7ca4d9eb3e7370cde2b06fc0ac097f5804d440c7b104b75b5101f14eadd2a42b7aa2dfed387576cbe4b669c6aa0f7d5a06d642c5b306b5595303f34cafd0a62978a0ddef3a7774c9e6b46bc4a80d735408d84ccbbd08bb575d0dfd42a1dea82776aed3e134797ac7e8ba65caa60371560ada4ec9bf0ab9555f0fff40a3dcaa2574acd1e3367b78c5eab867c8a40177500cdc48cfb90cbf535909f946a5daac2372aad7e5307d7ec3ecbe61cea20775520ede4acdbb0ebd515b0bfb44a7d8ae2170a8d5e7327f7cc1eebc63cca0057b5c00d044c3b500b35f5505f54aa9d6a02f7ea6dbe93c7172cfe0b26dc2ae0b795e02d246c1b702b15d5707f748abd4a22d7ca4d9eb3e7370cde2b06fc0ac097f5804d440c7b104b75b5101f14eadd2a42b7aa2dfed387576cbe4b669c6aa0f7d5a06d642c5b306b5595303f34cafd0a62978a0ddef3a7774c9e6b46bc4a80d735408d84ccbbd08bb575d0dfd42a1dea82776aed3e134797ac7e8ba65caa60371560ada4ec9bf0ab9555f0fff40a3dcaa2574acd1e3367b78c5eab867c8a40177500cdc48cfb90cbf535909f946a5daac2372aad7e5307d7ec3ecbe61cea20775520ede4acdbb0ebd515b0bfb44a7d8ae2170a8d5e7327f7cc1eebc63cca0057b5c00d044c3b500b35f5505f54aa9d6af130ffba8020eb35b04a4ab15422cd4a8090ffdd16d7229ea5ef1f295efaac82",
        "hex": "6a20ecade9c0b7c1930534a0e27f39de8d2dfb1ab7d8abefb12f6f9686478e2cb5a54db00435408d84ccbbd08bb575d0dfd42a1dea82776aed3e134797ac7e8ba65caa60371560ada4ec9bf0ab9555f0fff40a3dcaa2574acd1e3367b78c5eab867c8a40177500cdc48cfb90cbf535909f946a5daac2372aad7e5307d7ec3ecbe61cea20775520ede4acdbb0ebd515b0bfb44a7d8ae2170a8d5e7327f7cc1eebc63cca0057b5c00d044c3b500b35f5505f54aa9d6a02f7ea6dbe93c7172cfe0b26dc2ae0b795e02d246c1b702b15d5707f748abd4a22d7ca4d9eb3e7370cde2b06fc0ac097f5804d440c7b104b75b5101f14eadd2a42b7aa2dfed387576cbe4b669c6aa0f7d5a06d642c5b306b5595303f34cafd0a62978a0ddef3a7774c9e6b46bc4a80d735408d84ccbbd08bb575d0dfd42a1dea82776aed3e134797ac7e8ba65caa60371560ada4ec9bf0ab9555f0fff40a3dcaa2574acd1e3367b78c5eab867c8a40177500cdc48cfb90cbf535909f946a5daac2372aad7e5307d7ec3ecbe61cea20775520ede4acdbb0ebd515b0bfb44a7d8ae2170a8d5e7327f7cc1eebc63cca0057b5c00d044c3b500b35f5505f54aa9d6a02f7ea6dbe93c7172cfe0b26dc2ae0b795e02d246c1b702b15d5707f748abd4a22d7ca4d9eb3e7370cde2b06fc0ac097f5804d440c7b104b75b5101f14eadd2a42b7aa2dfed387576cbe4b669c6aa0f7d5a06d642c5b306b5595303f34cafd0a62978a0ddef3a7774c9e6b46bc4a80d735408d84ccbbd08bb575d0dfd42a1dea82776aed3e134797ac7e8ba65caa60371560ada4ec9bf0ab9555f0fff40a3dcaa2574acd1e3367b78c5eab867c8a40177500cdc48cfb90cbf535909f946a5daac2372aad7e5307d7ec3ecbe61cea20775520ede4acdbb0ebd515b0bfb44a7d8ae2170a8d5e7327f7cc1eebc63cca0057b5c00d044c3b500b35f5505f54aa9d6a02f7ea6dbe93c7172cfe0b26dc2ae0b795e02d246c1b702b15d5707f748abd4a22d7ca4d9eb3e7370cde2b06fc0ac097f5804d440c7b104b75b5101f14eadd2a42b7aa2dfed387576cbe4b669c6aa0f7d5a06d642c5b306b5595303f34cafd0a62978a0ddef3a7774c9e6b46bc4a80d735408d84ccbbd08bb575d0dfd42a1dea82776aed3e134797ac7e8ba65caa60371560ada4ec9bf0ab9555f0fff40a3dcaa2574acd1e3367b78c5eab867c8a40177500cdc48cfb90cbf535909f946a5daac2372aad7e5307d7ec3ecbe61cea20775520ede4acdbb0ebd515b0bfb44a7d8ae2170a8d5e7327f7cc1eebc63cca0057b5c00d044c3b500b35f5505f54aa9d6a02f7ea6dbe93c7172cfe0b26dc2ae0b795e02d246c1b702b15d5707f748abd4a22d7ca4d9eb3e7370cde2b06fc0ac097f5804d440c7b104b75b5101f14eadd2a42b7aa2dfed387576cbe4b669c6aa0f7d5a06d642c5b306b5595303f34cafd0a62978a0ddef3a7774c9e6b46bc4a80d735408d84ccbbd08bb575d0dfd42a1dea82776aed3e134797ac7e8ba65caa60371560ada4ec9bf0ab9555f0fff40a3dcaa2574acd1e3367b78c5eab867c8a40177500cdc48cfb90cbf535909f946a5daac2372aad7e5307d7ec3ecbe61cea20775520ede4acdbb0ebd515b0bfb44a7d8ae2170a8d5e7327f7cc1eebc63cca0057b5c00d044c3b500b35f5505f54aa9d6af130ffba8020eb35b04a4ab15422cd4a8090ffdd16d7229ea5ef1f295efaac82",
        "type": "nulldata"
      }
    }
  ],
  "blockhash": "f7496688ea8085f6c88d1199f2534797ba9d5c262af7501e5ddf271dd00b2202",
  "confirmations": 1,
  "time": 1764181480,
  "blocktime": 1764181480
}