{
  "hex": "01000000000101c43c861212f4da4bc4ab33f20c4edb413715997c9d0c1b36fa4fe58038e5ad010100000000feffffff021076cf5d792d00002251200a8135e74ff647533a83e2f14401d88e6861f130f521862c2d45488d212fc35e00e1f50500000000fdd5046a20325e712d52bf098f75b6a0f7ba634f50a0fc62fe944e2d820ae5a7f3937a00224db004ffda05c8fc31ea89e87114bbb563e1e3a88d06edf0e0677da836c2a837adadd5dffa25e8dc11caa9c851349b9543c1c388ad26cdd0c0475d8816e288178d8df5bf9a4588bc71aac9a83154fbf523a1a3e8cd46adb0a0273de87682e877eded959fba65a89c518ae9881174dbd5038183c8ed668d9080071dc856a2c857cdcdb57f5a85487cb16a0968f1943b35e36163280d866d7060e7fd28b64228b72d2d555f7aa5685c914a2948d1b41b15c34143082da64d5040c7dd08966208970d0d753f1ac5083cf12a4928b1d47b75a32123684dc62d3020a7bd68f60268f76d6d151f3ae5281cd10a690891f45b55830103486de60d1000879d48d62248d74d4d35ffda05c8fc31ea89e87114bbb563e1e3a88d06edf0e0677da836c2a837adadd5dffa25e8dc11caa9c851349b9543c1c388ad26cdd0c0475d8816e288178d8df5bf9a4588bc71aac9a83154fbf523a1a3e8cd46adb0a0273de87682e877eded959fba65a89c518ae9881174dbd5038183c8ed668d9080071dc856a2c857cdcdb57f5a85487cb16a0968f1943b35e36163280d866d7060e7fd28b64228b72d2d555f7aa5685c914a2948d1b41b15c34143082da64d5040c7dd08966208970d0d753f1ac5083cf12a4928b1d47b75a32123684dc62d3020a7bd68f60268f76d6d151f3ae5281cd10a690891f45b55830103486de60d1000879d48d62248d74d4d35ffda05c8fc31ea89e87114bbb563e1e3a88d06edf0e0677da836c2a837adadd5dffa25e8dc11caa9c851349b9543c1c388ad26cdd0c0475d8816e288178d8df5bf9a4588bc71aac9a83154fbf523a1a3e8cd46adb0a0273de87682e877eded959fba65a89c518ae9881174dbd5038183c8ed668d9080071dc856a2c857cdcdb57f5a85487cb16a0968f1943b35e36163280d866d7060e7fd28b64228b72d2d555f7aa5685c914a2948d1b41b15c34143082da64d5040c7dd08966208970d0d753f1ac5083cf12a4928b1d47b75a32123684dc62d3020a7bd68f60268f76d6d151f3ae5281cd10a690891f45b55830103486de60d1000879d48d62248d74d4d35ffda05c8fc31ea89e87114bbb563e1e3a88d06edf0e0677da836c2a837adadd5dffa25e8dc11caa9c851349b9543c1c388ad26cdd0c0475d8816e288178d8df5bf9a4588bc71aac9a83154fbf523a1a3e8cd46adb0a0273de87682e877eded959fba65a89c518ae9881174dbd5038183c8ed668d9080071dc856a2c857cdcdb57f5a85487cb16a0968f1943b35e36163280d866d7060e7fd28b64228b72d2d555f7aa5685c914a2948d1b41b15c34143082da64d5040c7dd08966208970d0d753f1ac5083cf12a4928b1d47b75a32123684dc62d3020a7bd68f60268f76d6d151f3ae5281cd10a690891f45b55830103486de60d1000879d48d62248d74d4d35ffda05c8fc31ea89e87114bbb563e1e3a88d06edf0e0677da836c2a837adadd5dffa25e8dc11caa9c851349b9543c1c388ad26cdd0c0475d8816e288178d8df5bf9a4588bc71aac9a83154fbf523a1a3e8cd46adb0a0273de87682e877eded959fba65a89c518ae9881174dbd5038183c8ed668d9080071dc856a2c857cdcdb57f5a85487cb16a0968f1943b35e36163c098ba7a0352a46e63a0ba452d131a76751b9f375ce27bc08a789147d95dbf9b02fd750970c6403a8503f39c0cae7f1af4323dfef5b333e3caec002df45f97ad134781bdce05f1a7e42c890469e0f449f335f4e37c7106303e33ee57ab35e6320f15ddf3371aab323af2a973dc9ac541b99f288471a3205ee39f7394c6b95a0844f0f28297f019571558fc1fd5fcf6f4262294f0c69e9cd23c3ceb2e11170c78d8f768b4e7620ccc3e684fa2d06f3730dfb9a80560901f4107fff0a0a791fd46ec45df748c1995cdb32d23e99fe56a00f9a7ef75bd05a7c4de8a05c51e55904f7e4844f817f1027c750f13f7048e59109a694a5a303f65f634da49cb7ff609a7fa734be2250e55718edad11b8bb863f9af65b96bf2c871c30e63bb99f71dde3af936db7944f85e759ea748141274e567ae90316580ec645e873ab75ff0edb9fe1aff78ea511544e704f6dd0dd4f5d50068d991e65b6b3d9184cb3397cc0abb7b635811815e02bfe152f97e47f5fd3184d522150e5e8782f8f46225829f0f224245814d6fafb42476eaceb7af7a2275a0b7568a5db718ee6de1c6da5271b93c62015ce950acae4b57074b11261ff020c1d23df68ca4d278c7c71ea04234f722f6bc2c08bc8e41716f67058e70b7c24e9ea607075bb9216ba27f564630e5ab2fae895aed119f7e30882da9ad19a60d81903110dd8cbcb0bfb9d482db169aff3ce0e989a56306978c9fbf1860c0f38354ea4af63334acdadda6391ad009fcf593f22489ef6c6858377bbbbd897e09266a45656f3c6113ee6325ff08612455a7f4a6d913f3a2f2503774fb7dc1822180beda9637765a9ffef4e7e8f21e1f7fefffb9885059ab99e693b32fd518443307a60301817fc7f03be65ca832e7df79ad2781b75ed760d452337421056919085854e690cbccf9325d302fb9602b82c9d34e52d9a76a96608d764ed147369505956b216d48a69ca1a1605275bf8cc7201782cdb51a7c5547e40c4e460426209c670c9554ae758a0e010ac2d7db88b126608a8b62b617913edf5958d906293f86daf00ff3f5257442dd4f9d9fafbca6ed3d60270552c9a8d189294f8958781bb8e2c23189cf1db4787b2076d5c10c41e071d03de00a1d1a93a2e58b68ed912b291477cb1467f285961d5df174bf59d9fdd66518fc417887329d1971fb057c9864f9c325db4934f1d2b09e05d0e562acfbb3f8b766654c90f3048f52432ed33377b61389fd16594cb111c7a951739b7310f62d60a7aa0793d2f2516fd39c24eb7b03d80a5dc5b87c0691d65d9861b9f033691df693314cea029982716da2dc81243d99227d919e49a055a103ebfc75d77a337450a1aeb8c510297985536e3e2a1fafda704d0c1066626b13cec34ec7fa1bd86f13e546f65ac5596af6e8ab343c5018ee6363777391d31ec31fb3991b2ee6dcf9316e537401f558d3da920dbb2dcfb8ba0dcc84c731e99901446f15565e07d487d614f28ed4e5d91a74d609ccb770a6bd4f72215f99ba3280d97ca6c98ccdda2aac515a4448a3098607f744e2bbca655a58f2e55ca032fe1c55e537873121724df2c5aff14270c1f6199d0ff239afbcfe02711d582459ba3f6e5b9d9a0646ff33fe3b1132ed90bdb1de7cc4d95bd8cb2553b57eac21a32e176289bb45a8a9082db2961876908a1d73873c2fa21d35697b4ea7c261335cf1b2c06ea4622e0e63ba80bc13609c84bd691b19b022c1a614f09da3f32bfc012a772cea59b838b7fa764b2683c601c5eb4ae8e82b3eac1f7f6512963c2a31264df2817f270072c86a12d67ed4120fbf88d1f12790abdb34e508c52d42e64ef7cad65386c5b5413b267b24c90bb7ad345fd088a079e1946ea04b64a01410fd99b10e9d1fd435d4c1e1dcd547ea87db914156d33fd36b95a5ddc6c5869775b59f7ccea0dba98baf7dfa081861f118ec8a0a59586fdedc27195f8642316fa123adb342854038389d39c55880e08e3fe1845b3c7842ff7940d388d3579db9d1fe10982cb659c947caa811eecb25b5c59684def77faea6eb4eb19ea7c2130975ae0314768b05c37c998c2420405e88381af7d825df79de707131ae65abc5a238db381b7138b7441a0181f6085d16f62ba4d4d4a9d0cc77fde5d336c9ca78e681194bb0273572a055dc3855f30f2d80963250ab86e70a2434cf8993f6dc3e32dee9ad18ff4762539487c75ce83038e99b1770a18dfadd1210262e32c2967b15bac7228c45a4984f5b2663bb1bdc8c88c3696314bec8f3bf5bffa5af058c6abf590a20ef7682b4d72ddfc1c8ae09004c821dd598e3bd2e3b900f399db9ff2277af7fbe41f3d64e26ec23a852b0c7e4f50f9f2a459327dfd79aabe8b2023b965db50945f3567a9dbb2e608f7729da69cc004b44a0864e019aa6da6bea067619e614f0a81e2fcbaba14f6dcdc7006751a21a799ec0aebd54d3f7fe42d18975c898585a52874a9f0ec107051e094c089386ceab43a04eae9ceb87b8db2aa797a55d157ba9b89e00eb4982a269acdd2968e030c44b1201cc4a86559dd5b91b72436ce68921e79dfc7b18c608de033c289cafd06e041b5e2cc5077cae820de039f0462402e15b7b91065637c5dded776ff0e4a73dd2d6f79279aa381b44235c1dc1de2671e9e84f2cac8dff3451f6fbc48843280ff41447b071bf511ecbccd29e869b5bcedf754bc8540894607603c3d4b8b401f503250fcd5a76473bc14be49b94dd3660d5b1348f3bc6a8316ec9e41e6f078aea31db29845ccaf2f8fbbc11b3fff6f6abdfa55b1489271348c3a623cbb90a3728bfc508133b477334f0b7c3eb218188065c304409dc4607bf232804af432b6a732467f9c401d34f7a6bbd3d013a36405c61f2f06836676c35b2a2a306d2570c049a117af027a16e55b92e6def870187f0f1a6326d4a67cf13579ff899880f50ef8f44985c9e7e1f0d346a16c46417a26ac2d6924e5859a8ae41292b7bb759d58caec76b37b86b6fd21780c31c5296f6c27f4b1e816b37907452c6b6b1656da9493c553a40bd3ed1e0dd2591339813af6e9ce33394f305cabc163cb70f3c42954986db19447b3a0f0b4a0d5940a706a95e89f6fa02758ff3db59a74060002dd6b63dc8e1d70d840317d72e6c9843876d890874e60547f4a4b83cae5b6124d9c00d22f48a41c21e5761b139dcd26302e329c9c20062c67c60390f2fc4c1bcd872c5680ace8ce2d11109a0ed399d1de4f29dfa607091bc978e31a2e80519760ee044fc0238f09877f1cd91f775d4888ad3776b1eb7f00a9b1165d182d653d21de2866002b20e1e31322b10deb6ab71e64000233e7eada1b060d0dfdc268f8f6213f90e0f292b6b859facafc1c5c7dfeb05252b2c4345595e718893989ca0a8b5c2c7c9cad7272c3141464a4c7e808c9fa3adbfc9cce82f4659648191acc0c9dbdfe6f00000000000000000000000000000000e23344101fd21050081134ec69aa8e574728f02e409f89681c2c700fae90bab52743aec905c176427aa787b9d684ef959a96d968b5746caf50756b049b0a1aabe9b4691990408259a6901c004dc8329f05c5e422a9d73a46c49710ad2b8d88b908b12803ce652269e5fb34cf3f843c708d755bfc646390e170c4ada54af6bc5cf2e9d8c620d1ef5f536de5488c942334020d542941d4a4af6b95c95189109e36097b3de22fe66470a991b051470faf85b28dd1dffdec2ac9a2532fdb0dfe66d36f67dbc1d68fb6ab7b7f7c3f8d5ef8b46d6a36828b128d8140ba82edae4007d09b82dcfae1cce4bb248171d8b2762aa98daebbd064adc0eea5b7e70382db0965670e9f02787fdeec41ea9d3d209ae42736ca2d277b0eab1fcb91a26ce1a55a6af8173797565d9c8293423afe0061b69fffda86400a2e6e2e7af47b78a6acb3b21ad533a4abc88dc754e0f8c2fe6adea88a41173535bb5003679a68d5fffa5aacc4c4b5c21282d25dafabd722a5b4ac4bc2dbd80b98fc9f5561635e0318d9f23956602559eca54a7afc5672c45cd9ce8e18748ae11bc00ef74df2ce6c0a4e0fc5d6234dace886cf5dd0650433d5188e9494a72ef5650ad812f5ed47132695f6162ab8abf7c121a1f4f4cea59e67669619b57deed745d56a02821033f334a52070229a9f0cbe3ef5d6078b223530888e0aa66b084916672f28deb0fa895b772721c39fdf8c7acdb59134577f31060025652f80ee7d1e4a1849f57ed70f84aec7221eff25f57760193e941c24624c423aa44a3f2055d5f723d29a605d43a9a39bd719f21ed68b7fbb594fe84672ce3a9ea8b7c1935198c35fbb47d415ed35fc9564737497b9716ef94e0aed03efc8b44f50fdd9de0aeea41bc4ccc6b11b90315b92492d083f16945ef2836fb58ea5f470077cd2cce4e9769b7fcd06f0774019a9f04bba02950bc0e0495d68599cd2a5b5376dfc20bf80218ecca5dd10d8d1aa885ac6548384b77b10b7a2cf8064acf8310c260d2292f2724a96433be5cbd1e223c8561f0d1a7de6760463234608ad63cecc391855b8a50176bbb4740c71045b9a8182bf0c448fa5a67ac40610b52177ca357a79be59d404bf02378f154dc8790106dcfc4351319aca9e1e59cfe4a430d5b46bc2e3886d9679a6303707026aea2e4512c0077223ec344308b0c8120f62d3eb3376a8f93271f7871bda740bf027d70e023a319e2fd860b8a686fa04956a9d490fadb0c53c45cbd32e3702a6a5eec24e37016fa472a9c8f05a00bd947b9227e6a5f4154c8294e3e4031b98e93dfe52db041cfdcd9ccc982ca41545fe9a3f125fef056c3ff4b1f76df25964c3415437551706268d802d6723d34ea213c63a46072fe33c4c0bcfb3eb398f33bb8e6558ddce4edc9eb6bb6af2fc62ab8a94766368e404f2c052471223847f5b543856671ed0cb31b49e32dd0ef377f80e53dd23209bdc36c219ce208a411827a96fb52ad7f7c74260bd5835e500a4153b10300b390aae6bf106922f5b3e4c46ec4c883ce9f3eb2ea07e2e6cc29c0c4fc2515ba24521e0834cf652ca4c4f6c5d770c3b8ea24babe9769f94bfeb572998a60e125f2ca480d6aa310d17a92209423403e604f6d6cac41011ad1df7160e17a2aa4f80d0ef96602840e82a284435d8ecb072fd19a0d76eecb3a2991bc00b2376babb4cdc2cb2bb8506c7e3e14f4c204c410f3675a02340bc87daac5f7b3587bf6a59196f91bdbc8f7069d2208edb0e9bdc88e496d0e98053f8ab13e7d3e638757bbc8826c77a72bf2a3491f0057457532cb501febdbc75d8df1caccc2233206fbf471fb5c1e26ace5afb5cc4fdf8b533f5ce3dfd1323e59403f4941a329000000",
  "txid": "18b8a62892940607bc5e523702e0760a84216cee1773aeb3d7af6c94ea960fee",
  "hash": "d698e6d6c6a08aa99caf9c544222c9a887a6d176cffe17f1124363fe38cb47bf",
  "size": 5085,
  "vsize": 2278,
  "version": 1,
  "locktime": 41,
  "vin": [
    {
      "txid": "01ade53880e54ffa361b0c9d7c99153741db4e0cf233abc44bdaf41212863cc4",
      "vout": 1,
      "scriptSig": {
        "asm": "",
        "hex": ""
      },
      "txinwitness": [
        "70c6403a8503f39c0cae7f1af4323dfef5b333e3caec002df45f97ad134781bdce05f1a7e42c890469e0f449f335f4e37c7106303e33ee57ab35e6320f15ddf3371aab323af2a973dc9ac541b99f288471a3205ee39f7394c6b95a0844f0f28297f019571558fc1fd5fcf6f4262294f0c69e9cd23c3ceb2e11170c78d8f768b4e7620ccc3e684fa2d06f3730dfb9a80560901f4107fff0a0a791fd46ec45df748c1995cdb32d23e99fe56a00f9a7ef75bd05a7c4de8a05c51e55904f7e4844f817f1027c750f13f7048e59109a694a5a303f65f634da49cb7ff609a7fa734be2250e55718edad11b8bb863f9af65b96bf2c871c30e63bb99f71dde3af936db7944f85e759ea748141274e567ae90316580ec645e873ab75ff0edb9fe1aff78ea511544e704f6dd0dd4f5d50068d991e65b6b3d9184cb3397cc0abb7b635811815e02bfe152f97e47f5fd3184d522150e5e8782f8f46225829f0f224245814d6fafb42476eaceb7af7a2275a0b7568a5db718ee6de1c6da5271b93c62015ce950acae4b57074b11261ff020c1d23df68ca4d278c7c71ea04234f722f6bc2c08bc8e41716f67058e70b7c24e9ea607075bb9216ba27f564630e5ab2fae895aed119f7e30882da9ad19a60d81903110dd8cbcb0bfb9d482db169aff3ce0e989a56306978c9fbf1860c0f38354ea4af63334acdadda6391ad009fcf593f22489ef6c6858377bbbbd897e09266a45656f3c6113ee6325ff08612455a7f4a6d913f3a2f2503774fb7dc1822180beda9637765a9ffef4e7e8f21e1f7fefffb9885059ab99e693b32fd518443307a60301817fc7f03be65ca832e7df79ad2781b75ed760d452337421056919085854e690cbccf9325d302fb9602b82c9d34e52d9a76a96608d764ed147369505956b216d48a69ca1a1605275bf8cc7201782cdb51a7c5547e40c4e460426209c670c9554ae758a0e010ac2d7db88b126608a8b62b617913edf5958d906293f86daf00ff3f5257442dd4f9d9fafbca6ed3d60270552c9a8d189294f8958781bb8e2c23189cf1db4787b2076d5c10c41e071d03de00a1d1a93a2e58b68ed912b291477cb1467f285961d5df174bf59d9fdd66518fc417887329d1971fb057c9864f9c325db4934f1d2b09e05d0e562acfbb3f8b766654c90f3048f52432ed33377b61389fd16594cb111c7a951739b7310f62d60a7aa0793d2f2516fd39c24eb7b03d80a5dc5b87c0691d65d9861b9f033691df693314cea029982716da2dc81243d99227d919e49a055a103ebfc75d77a337450a1aeb8c510297985536e3e2a1fafda704d0c1066626b13cec34ec7fa1bd86f13e546f65ac5596af6e8ab343c5018ee6363777391d31ec31fb3991b2ee6dcf9316e537401f558d3da920dbb2dcfb8ba0dcc84c731e99901446f15565e07d487d614f28ed4e5d91a74d609ccb770a6bd4f72215f99ba3280d97ca6c98ccdda2aac515a4448a3098607f744e2bbca655a58f2e55ca032fe1c55e537873121724df2c5aff14270c1f6199d0ff239afbcfe02711d582459ba3f6e5b9d9a0646ff33fe3b1132ed90bdb1de7cc4d95bd8cb2553b57eac21a32e176289bb45a8a9082db2961876908a1d73873c2fa21d35697b4ea7c261335cf1b2c06ea4622e0e63ba80bc13609c84bd691b19b022c1a614f09da3f32bfc012a772cea59b838b7fa764b2683c601c5eb4ae8e82b3eac1f7f6512963c2a31264df2817f270072c86a12d67ed4120fbf88d1f12790abdb34e508c52d42e64ef7cad65386c5b5413b267b24c90bb7ad345fd088a079e1946ea04b64a01410fd99b10e9d1fd435d4c1e1dcd547ea87db914156d33fd36b95a5ddc6c5869775b59f7ccea0dba98baf7dfa081861f118ec8a0a59586fdedc27195f8642316fa123adb342854038389d39c55880e08e3fe1845b3c7842ff7940d388d3579db9d1fe10982cb659c947caa811eecb25b5c59684def77faea6eb4eb19ea7c2130975ae0314768b05c37c998c2420405e88381af7d825df79de707131ae65abc5a238db381b7138b7441a0181f6085d16f62ba4d4d4a9d0cc77fde5d336c9ca78e681194bb0273572a055dc3855f30f2d80963250ab86e70a2434cf8993f6dc3e32dee9ad18ff4762539487c75ce83038e99b1770a18dfadd1210262e32c2967b15bac7228c45a4984f5b2663bb1bdc8c88c3696314bec8f3bf5bffa5af058c6abf590a20ef7682b4d72ddfc1c8ae09004c821dd598e3bd2e3b900f399db9ff2277af7fbe41f3d64e26ec23a852b0c7e4f50f9f2a459327dfd79aabe8b2023b965db50945f3567a9dbb2e608f7729da69cc004b44a0864e019aa6da6bea067619e614f0a81e2fcbaba14f6dcdc7006751a21a799ec0aebd54d3f7fe42d18975c898585a52874a9f0ec107051e094c089386ceab43a04eae9ceb87b8db2aa797a55d157ba9b89e00eb4982a269acdd2968e030c44b1201cc4a86559dd5b91b72436ce68921e79dfc7b18c608de033c289cafd06e041b5e2cc5077cae820de039f0462402e15b7b91065637c5dded776ff0e4a73dd2d6f79279aa381b44235c1dc1de2671e9e84f2cac8dff3451f6fbc48843280ff41447b071bf511ecbccd29e869b5bcedf754bc8540894607603c3d4b8b401f503250fcd5a76473bc14be49b94dd3660d5b1348f3bc6a8316ec9e41e6f078aea31db29845ccaf2f8fbbc11b3fff6f6abdfa55b1489271348c3a623cbb90a3728bfc508133b477334f0b7c3eb218188065c304409dc4607bf232804af432b6a732467f9c401d34f7a6bbd3d013a36405c61f2f06836676c35b2a2a306d2570c049a117af027a16e55b92e6def870187f0f1a6326d4a67cf13579ff899880f50ef8f44985c9e7e1f0d346a16c46417a26ac2d6924e5859a8ae41292b7bb759d58caec76b37b86b6fd21780c31c5296f6c27f4b1e816b37907452c6b6b1656da9493c553a40bd3ed1e0dd2591339813af6e9ce33394f305cabc163cb70f3c42954986db19447b3a0f0b4a0d5940a706a95e89f6fa02758ff3db59a74060002dd6b63dc8e1d70d840317d72e6c9843876d890874e60547f4a4b83cae5b6124d9c00d22f48a41c21e5761b139dcd26302e329c9c20062c67c60390f2fc4c1bcd872c5680ace8ce2d11109a0ed399d1de4f29dfa607091bc978e31a2e80519760ee044fc0238f09877f1cd91f775d4888ad3776b1eb7f00a9b1165d182d653d21de2866002b20e1e31322b10deb6ab71e64000233e7eada1b060d0dfdc268f8f6213f90e0f292b6b859facafc1c5c7dfeb05252b2c4345595e718893989ca0a8b5c2c7c9cad7272c3141464a4c7e808c9fa3adbfc9cce82f4659648191acc0c9dbdfe6f00000000000000000000000000000000e23344101",
        "0081134ec69aa8e574728f02e409f89681c2c700fae90bab52743aec905c176427aa787b9d684ef959a96d968b5746caf50756b049b0a1aabe9b4691990408259a6901c004dc8329f05c5e422a9d73a46c49710ad2b8d88b908b12803ce652269e5fb34cf3f843c708d755bfc646390e170c4ada54af6bc5cf2e9d8c620d1ef5f536de5488c942334020d542941d4a4af6b95c95189109e36097b3de22fe66470a991b051470faf85b28dd1dffdec2ac9a2532fdb0dfe66d36f67dbc1d68fb6ab7b7f7c3f8d5ef8b46d6a36828b128d8140ba82edae4007d09b82dcfae1cce4bb248171d8b2762aa98daebbd064adc0eea5b7e70382db0965670e9f02787fdeec41ea9d3d209ae42736ca2d277b0eab1fcb91a26ce1a55a6af8173797565d9c8293423afe0061b69fffda86400a2e6e2e7af47b78a6acb3b21ad533a4abc88dc754e0f8c2fe6adea88a41173535bb5003679a68d5fffa5aacc4c4b5c21282d25dafabd722a5b4ac4bc2dbd80b98fc9f5561635e0318d9f23956602559eca54a7afc5672c45cd9ce8e18748ae11bc00ef74df2ce6c0a4e0fc5d6234dace886cf5dd0650433d5188e9494a72ef5650ad812f5ed47132695f6162ab8abf7c121a1f4f4cea59e67669619b57deed745d56a02821033f334a52070229a9f0cbe3ef5d6078b223530888e0aa66b084916672f28deb0fa895b772721c39fdf8c7acdb59134577f31060025652f80ee7d1e4a1849f57ed70f84aec7221eff25f57760193e941c24624c423aa44a3f2055d5f723d29a605d43a9a39bd719f21ed68b7fbb594fe84672ce3a9ea8b7c1935198c35fbb47d415ed35fc9564737497b9716ef94e0aed03efc8b44f50fdd9de0aeea41bc4ccc6b11b90315b92492d083f16945ef2836fb58ea5f470077cd2cce4e9769b7fcd06f0774019a9f04bba02950bc0e0495d68599cd2a5b5376dfc20bf80218ecca5dd10d8d1aa885ac6548384b77b10b7a2cf8064acf8310c260d2292f2724a96433be5cbd1e223c8561f0d1a7de6760463234608ad63cecc391855b8a50176bbb4740c71045b9a8182bf0c448fa5a67ac40610b52177ca357a79be59d404bf02378f154dc8790106dcfc4351319aca9e1e59cfe4a430d5b46bc2e3886d9679a6303707026aea2e4512c0077223ec344308b0c8120f62d3eb3376a8f93271f7871bda740bf027d70e023a319e2fd860b8a686fa04956a9d490fadb0c53c45cbd32e3702a6a5eec24e37016fa472a9c8f05a00bd947b9227e6a5f4154c8294e3e4031b98e93dfe52db041cfdcd9ccc982ca41545fe9a3f125fef056c3ff4b1f76df25964c3415437551706268d802d6723d34ea213c63a46072fe33c4c0bcfb3eb398f33bb8e6558ddce4edc9eb6bb6af2fc62ab8a94766368e404f2c052471223847f5b543856671ed0cb31b49e32dd0ef377f80e53dd23209bdc36c219ce208a411827a96fb52ad7f7c74260bd5835e500a4153b10300b390aae6bf106922f5b3e4c46ec4c883ce9f3eb2ea07e2e6cc29c0c4fc2515ba24521e0834cf652ca4c4f6c5d770c3b8ea24babe9769f94bfeb572998a60e125f2ca480d6aa310d17a92209423403e604f6d6cac41011ad1df7160e17a2aa4f80d0ef96602840e82a284435d8ecb072fd19a0d76eecb3a2991bc00b2376babb4cdc2cb2bb8506c7e3e14f4c204c410f3675a02340bc87daac5f7b3587bf6a59196f91bdbc8f7069d2208edb0e9bdc88e496d0e98053f8ab13e7d3e638757bbc8826c77a72bf2a3491f0057457532cb501febdbc75d8df1caccc2233206fbf471fb5c1e26ace5afb5cc4fdf8b533f5ce3dfd1323e59403f4941a3"
      ],
      "sequence": 4294967294
    }
  ],
  "vout": [
    {
      "value": 499992.8817,
      "n": 0,
      "scriptPubKey": {
        "asm": "1 0a8135e74ff647533a83e2f14401d88e6861f130f521862c2d45488d212fc35e",
        "hex": "51200a8135e74ff647533a83e2f14401d88e6861f130f521862c2d45488d212fc35e",
        "reqSigs": 1,
        "type": "witness_v1_scripthash",
        "addresses": [
          "3QJmnh"
        ]
      }
    },
    {
      "value": 1.0,
      "n": 1,
      "scriptPubKey": {
        "asm": "OP_RETURN 325e712d52bf098f75b6a0f7ba634f50a0fc62fe944e2d820ae5a7f3937a0022 ffda05c8fc31ea89e87114bbb563e1e3a88d06edf0e0677da836c2a837adadd5dffa25e8dc11caa9c851349b9543c1c388ad26cdd0c0475d8816e288178d8df5bf9a4588bc71aac9a83154fbf523a1a3e8cd46adb0a0273de87682e877eded959fba65a89c518ae9881174dbd5038183c8ed668d9080071dc856a2c857cdcdb57f5a85487cb16a0968f1943b35e36163280d866d7060e7fd28b64228b72d2d555f7aa5685c914a2948d1b41b15c34143082da64d5040c7dd08966208970d0d753f1ac5083cf12a4928b1d47b75a32123684dc62d3020a7bd68f60268f76d6d151f3ae5281cd10a690891f45b55830103486de60d1000879d48d62248d74d4d35ffda05c8fc31ea89e87114bbb563e1e3a88d06edf0e0677da836c2a837adadd5dffa25e8dc11caa9c851349b9543c1c388ad26cdd0c0475d8816e288178d8df5bf9a4588bc71aac9a83154fbf523a1a3e8cd46adb0a0273de87682e877eded959fba65a89c518ae9881174dbd5038183c8ed668d9080071dc856a2c857cdcdb57f5a85487cb16a0968f1943b35e36163280d866d7060e7fd28b64228b72d2d555f7aa5685c914a2948d1b41b15c34143082da64d5040c7dd08966208970d0d753f1ac5083cf12a4928b1d47b75a32123684dc62d3020a7bd68f60268f76d6d151f3ae5281cd10a690891f45b55830103486de60d1000879d48d62248d74d4d35ffda05c8fc31ea89e87114bbb563e1e3a88d06edf0e0677da836c2a837adadd5dffa25e8dc11caa9c851349b9543c1c388ad26cdd0c0475d8816e288178d8df5bf9a4588bc71aac9a83154fbf523a1a3e8cd46adb0a0273de87682e877eded959fba65a89c518ae9881174dbd5038183c8ed668d9080071dc856a2c857cdcdb57f5a85487cb16a0968f1943b35e36163280d866d7060e7fd28b64228b72d2d555f7aa5685c914a2948d1b41b15c34143082da64d5040c7dd08966208970d0d753f1ac5083cf12a4928b1d47b75a32123684dc62d3020a7bd68f60268f76d6d151f3ae5281cd10a690891f45b55830103486de60d1000879d48d62248d74d4d35ffda05c8fc31ea89e87114bbb563e1e3a88d06edf0e0677da836c2a837adadd5dffa25e8dc11caa9c851349b9543c1c388ad26cdd0c0475d8816e288178d8df5bf9a4588bc71aac9a83154fbf523a1a3e8cd46adb0a0273de87682e877eded959fba65a89c518ae9881174dbd5038183c8ed668d9080071dc856a2c857cdcdb57f5a85487cb16a0968f1943b35e36163280d866d7060e7fd28b64228b72d2d555f7aa5685c914a2948d1b41b15c34143082da64d5040c7dd08966208970d0d753f1ac5083cf12a4928b1d47b75a32123684dc62d3020a7bd68f60268f76d6d151f3ae5281cd10a690891f45b55830103486de60d1000879d48d62248d74d4d35ffda05c8fc31ea89e87114bbb563e1e3a88d06edf0e0677da836c2a837adadd5dffa25e8dc11caa9c851349b9543c1c388ad26cdd0c0475d8816e288178d8df5bf9a4588bc71aac9a83154fbf523a1a3e8cd46adb0a0273de87682e877eded959fba65a89c518ae9881174dbd5038183c8ed668d9080071dc856a2c857cdcdb57f5a85487cb16a0968f1943b35e36163c098ba7a0352a46e63a0ba452d131a76751b9f375ce27bc08a789147d95dbf9b",
        "hex": "6a20325e712d52bf098f75b6a0f7ba634f50a0fc62fe944e2d820ae5a7f3937a00224db004ffda05c8fc31ea89e87114bbb563e1e3a88d06edf0e0677da836c2a837adadd5dffa25e8dc11caa9c851349b9543c1c388ad26cdd0c0475d8816e288178d8df5bf9a4588bc71aac9a83154fbf523a1a3e8cd46adb0a0273de87682e877eded959fba65a89c518ae9881174dbd5038183c8ed668d9080071dc856a2c857cdcdb57f5a85487cb16a0968f1943b35e36163280d866d7060e7fd28b64228b72d2d555f7aa5685c914a2948d1b41b15c34143082da64d5040c7dd08966208970d0d753f1ac5083cf12a4928b1d47b75a32123684dc62d3020a7bd68f60268f76d6d151f3ae5281cd10a690891f45b55830103486de60d1000879d48d62248d74d4d35ffda05c8fc31ea89e87114bbb563e1e3a88d06edf0e0677da836c2a837adadd5dffa25e8dc11caa9c851349b9543c1c388ad26cdd0c0475d8816e288178d8df5bf9a4588bc71aac9a83154fbf523a1a3e8cd46adb0a0273de87682e877eded959fba65a89c518ae9881174dbd5038183c8ed668d9080071dc856a2c857cdcdb57f5a85487cb16a0968f1943b35e36163280d866d7060e7fd28b64228b72d2d555f7aa5685c914a2948d1b41b15c34143082da64d5040c7dd08966208970d0d753f1ac5083cf12a4928b1d47b75a32123684dc62d3020a7bd68f60268f76d6d151f3ae5281cd10a690891f45b55830103486de60d1000879d48d62248d74d4d35ffda05c8fc31ea89e87114bbb563e1e3a88d06edf0e0677da836c2a837adadd5dffa25e8dc11caa9c851349b9543c1c388ad26cdd0c0475d8816e288178d8df5bf9a4588bc71aac9a83154fbf523a1a3e8cd46adb0a0273de87682e877eded959fba65a89c518ae9881174dbd5038183c8ed668d9080071dc856a2c857cdcdb57f5a85487cb16a0968f1943b35e36163280d866d7060e7fd28b64228b72d2d555f7aa5685c914a2948d1b41b15c34143082da64d5040c7dd08966208970d0d753f1ac5083cf12a4928b1d47b75a32123684dc62d3020a7bd68f60268f76d6d151f3ae5281cd10a690891f45b55830103486de60d1000879d48d62248d74d4d35ffda05c8fc31ea89e87114bbb563e1e3a88d06edf0e0677da836c2a837adadd5dffa25e8dc11caa9c851349b9543c1c388ad26cdd0c0475d8816e288178d8df5bf9a4588bc71aac9a83154fbf523a1a3e8cd46adb0a0273de87682e877eded959fba65a89c518ae9881174dbd5038183c8ed668d9080071dc856a2c857cdcdb57f5a85487cb16a0968f1943b35e36163280d866d7060e7fd28b64228b72d2d555f7aa5685c914a2948d1b41b15c34143082da64d5040c7dd08966208970d0d753f1ac5083cf12a4928b1d47b75a32123684dc62d3020a7bd68f60268f76d6d151f3ae5281cd10a690891f45b55830103486de60d1000879d48d62248d74d4d35ffda05c8fc31ea89e87114bbb563e1e3a88d06edf0e0677da836c2a837adadd5dffa25e8dc11caa9c851349b9543c1c388ad26cdd0c0475d8816e288178d8df5bf9a4588bc71aac9a83154fbf523a1a3e8cd46adb0a0273de87682e877eded959fba65a89c518ae9881174dbd5038183c8ed668d9080071dc856a2c857cdcdb57f5a85487cb16a0968f1943b35e36163c098ba7a0352a46e63a0ba452d131a76751b9f375ce27bc08a789147d95dbf9b",
        "type": "nulldata"
      }
    }
  ],
  "blockhash": "86d3aa2e412fd1c0ad7fd5d7d84b7ddcf41a8bf652344eaa49dd1e6444ae5dce",
  "confirmations": 1,
  "time": 1764176858,
  "blocktime": 1764176858
}