{
  "hex": "010000000001018ff7925d4451f8c83afd0fa63cb66bea7bc05a2e29e3a290c43c4b77e82dec7f0000000000feffffff02907857cc782d0000225120e9668d46c27114aca0c7b6995852ea74c5d4f3513a3ff4d3187a243ee42c7cae00e1f50500000000fdd5046a20c03eff6240ed3ab065d891fd63d1899800063d90df16906fc97eb6980eab17734db0047f95dbd8dee168330df6ba411357fc60df929894cb1ca254586c526b42c223b85fb5fbf8fec148132dd69a613377dc40ffb2b8b4eb3c8274784c724b62e203983fd59b989ea128734db6fa015317bc209fd2d8d48b5ce214182c122b028263f81ff5bbb8be8108536d96da2173379c00bff2f8f4ab7cc234380c320b22a243d8ff155b585e61e8b38d763ac193d77ce05f1218144b9c22d4d8ecd2ebc242a338df357b787e41c893ad561ae1b3f75cc07f3238346bbc02f4f8ccf2cbe2628318bf551b181e21a8f3cd367a81d3973ca01f5258540bdc629498ac92ab8202e3789f753b383e0188d3ed165aa1f3b71c803f7278742bfc42b4b88cb28ba222c3587f95dbd8dee168330df6ba411357fc60df929894cb1ca254586c526b42c223b85fb5fbf8fec148132dd69a613377dc40ffb2b8b4eb3c8274784c724b62e203983fd59b989ea128734db6fa015317bc209fd2d8d48b5ce214182c122b028263f81ff5bbb8be8108536d96da2173379c00bff2f8f4ab7cc234380c320b22a243d8ff155b585e61e8b38d763ac193d77ce05f1218144b9c22d4d8ecd2ebc242a338df357b787e41c893ad561ae1b3f75cc07f3238346bbc02f4f8ccf2cbe2628318bf551b181e21a8f3cd367a81d3973ca01f5258540bdc629498ac92ab8202e3789f753b383e0188d3ed165aa1f3b71c803f7278742bfc42b4b88cb28ba222c3587f95dbd8dee168330df6ba411357fc60df929894cb1ca254586c526b42c223b85fb5fbf8fec148132dd69a613377dc40ffb2b8b4eb3c8274784c724b62e203983fd59b989ea128734db6fa015317bc209fd2d8d48b5ce214182c122b028263f81ff5bbb8be8108536d96da2173379c00bff2f8f4ab7cc234380c320b22a243d8ff155b585e61e8b38d763ac193d77ce05f1218144b9c22d4d8ecd2ebc242a338df357b787e41c893ad561ae1b3f75cc07f3238346bbc02f4f8ccf2cbe2628318bf551b181e21a8f3cd367a81d3973ca01f5258540bdc629498ac92ab8202e3789f753b383e0188d3ed165aa1f3b71c803f7278742bfc42b4b88cb28ba222c3587f95dbd8dee168330df6ba411357fc60df929894cb1ca254586c526b42c223b85fb5fbf8fec148132dd69a613377dc40ffb2b8b4eb3c8274784c724b62e203983fd59b989ea128734db6fa015317bc209fd2d8d48b5ce214182c122b028263f81ff5bbb8be8108536d96da2173379c00bff2f8f4ab7cc234380c320b22a243d8ff155b585e61e8b38d763ac193d77ce05f1218144b9c22d4d8ecd2ebc242a338df357b787e41c893ad561ae1b3f75cc07f3238346bbc02f4f8ccf2cbe2628318bf551b181e21a8f3cd367a81d3973ca01f5258540bdc629498ac92ab8202e3789f753b383e0188d3ed165aa1f3b71c803f7278742bfc42b4b88cb28ba222c3587f95dbd8dee168330df6ba411357fc60df929894cb1ca254586c526b42c223b85fb5fbf8fec148132dd69a613377dc40ffb2b8b4eb3c8274784c724b62e203983fd59b989ea128734db6fa015317bc209fd2d8d48b5ce214182c122b028263f81ff5bbb8be8108536d96da2173379c00bff2f8f4ab7cc234380c320b22a243d8ff155b585e61e8b38d763ac193d77ce01e3865a95511bc286f3f7f34beeb7b3d9c758cbaba1ea832fc38f6d174b01a1202fd75099623ed1900e91666000fdb28848b55a00a58ff9fca04cbc43beae0016f65f243a6fcbcb29e2ff9de85b1b84d8ebf5303723e781f4eba21a5aa21662c0d9bb34d9de6ae97136df2ae572e79ea4a6570bbd3613e7abfe61a57703fc4f6c182a7ead03a4a030d466a909f5e35537f9d3aee38567eeb387cbfba456a7a38fb266e2ec7382ae18cb1f67ca481f9d6a5e9b5cb465f47260d8ad5fa026a1010cb4b633d4396d171d8666640b934d7db3dcded25e3e7844ffbee04b992f0a9c1a5f21dcd6c5d929ae4ca7eb3b4cef34b471f4aa332caf3426a673fc664aecd176b159d2e779b48d5674a15352927f794a491d51ff0ce2e47c4aaa1d33ba63caf5bce63280a07ef225a1c0be440c01ac0a3b410d678cb2acf42b223a54f6cfec21abb9bb0593ffd149b2ad4aad9a85ded751c2cfc37d6125eb2aaef845f8ed6fa647728f87e2b3720533f6b40aca4b7db68c2663a298584c0c25e05fad64f30f488ce756f7da25c5cdfa72c1ec0e66ca80a81d88b51b1f8b13940f92ce8ceb37397207322938439a842e038128ea31d08271fc8eaacfde6556e43991560d30c0093fb8faa94cf70d9171b7b630d57dceb276d15f574dd1a42e67683453d87017eb6b6377511d956fe542bdd154239915e03a2ab91233323c3f7681f081151383aa95e7035efcf41a01c0ff8f6401158671436d190778397db4abdd12c562c761ef6b3e0390e84ca73bf9dffb962e6b82d699570c1d7a64aed28c8125f89012ce2cd0ba8fb0152527563327f5dbb91296d36b3a31b03723217bd2bcdb4e800a04c98d53ba59b78a89309613894553afb8c203c03ffaf124fb65f650c3a2f95793d19b229979662aeadcbacd7d86b86dfa42f35a9399bcf580228adc29ab41f41061edd820bbf9854833ed9df920e0f9cfcb3780c063ba28e0c341671dfd922d065a7aacab2d3a3b2c42db437b0ba6163eca8bfa42a8f1e33ab6e0258df78edd7be2f7e434fd920b56c7bf34384d4a1cd179bffdf244ab4c2171b6be1b873cb4eb70433c6c29de4a7ded72313255ec49cf09fbb48f23f30f91f9f7d6eaedbcb508a80428d8ccdf4727c5f53091e2bda31ef716876966069f16e6994fc68a08a1d4e28c93fb37cfe444bd213baadb7e3d3a3e0a797c93a7e3e2272d767bcb6654963ea812aaaaa9cb2e9cf8b88ce2340bd35640de34f7f56dc7a167dfdc91eedbf492e3e749886ebcb48a969ee5e323381575f34bb0fddd5537e67e827c7970225bcbfb6ecda29a4b97fdf9af4c442444df29b8ef74ed8accc2fab1cd4f0cce0cde098c9637c40c59cc20c4c1fd7c81c1a5c18717b2086c76ac4d3b604e93344397be0b87895eb0e1a613bc74384caa49e7bbd5a2508e06984ac74deb60f21598050167bbc5a25fa816e5016f70e6b5cd41d9d8c31408f523500506ebe767cf97e725396115024e0d99bfa65f143f3cddb15d0d5dfe8fbd19dff3a9e09f167c57873fb2b2826fad2eaa451809c509339c0758643d4b1bf1edfd75a0b2fd6ca7ed80148ede8dc405dc296c5c4418d9f9fe51a43bb0221f03b4bd54ef77e9aa660c6422b80f6c4473c104cf4516609c3365daca312392b08e0c181b6c95a8ca6b42563e0cf15fd9fc4e93adb63e04e4e61ef62e8f8986719d8e49cf8816d65fd63b765abf0b98e77c857398dab3d00d3234e678b3507ea10b93b4f0a35701ae913b58e68554bce605fac492731c732a175e96b99c3a3f7b94478739822614e67a0f7f2099b2db1844a301ee2da701b660f5076b248c6f39514e26e35506ce4c89676e38e144cbca79f34977373d8ffbcc7615587457289f5094fa314e3f44341c72d26043c554bf94a1fd4102c6ba9daa097805dc4ac6e07e05477747905bf3172affac2df723e83fa6dc38a4d5f52bd5e84c4fae4e44cb3895582489cb85fc964c4bf8ac789dd0f15daafe9d0b8dfbd2707922ce2e4925d93ed17f5b456359f7bdcf1a6bc1602aade6cb9db7bf35075d3a90efcdc3236aec3099951080e45b24e4d73f02131c698ee1111ea865988a6cb848ef6c65f9bfb5985614472b2f663a2f5f29fb0acc654cc6576bb7eeb6a2c3d5e7dbc08c833d4230dfc2e46c2be9855417a45ba142b7eb0f1ebe47a24a0c3a995ca9a47795ac4df3c4198f9d90e291b49ef7a8351382f29d33af45f807c8b0a07834547021751af2ab50fc9ef917215502c7471c11ef10e3a68f4d6dd2161cf9925411d95a8743aa48224f9dc317e9d203ddf633a962c890c70aa541fb7a94ec40175c24150dbe866fb8667b9ff0d737b71a9ede44a9f7fe3fc0738d6637fb2ab29d6030a82d1a388b1ed1e1325b479cbc653e798a83e08be3ce7528fd4cad35de1c92ab9e5f73ec3a6ed7c3001138cecc47bbb437d8ebeeff904cb9ed5bd5014d5712452eee4bdabe4b887d62eb48a96f70e6cd0372ea90904962146a0671ad928a54acf9a1b11c89528c90a1d97232563dc5b35ed34b120613a71b89b1f8c0148f3057a8f24da9991ad20d85ff1cc8a5197a871295d017cb374ec940af0295b709ab9ae8f98b5af2a04d1570d0be65c597fe1c624e1405b3371e1c1369f6428ebd99ed54bda33932efe20fae3d4feffe74dbce9ae2697b4adf25041006874a00c35b62852e971f851a2b2f3fcd021010bdbd8bdd6428584c12cb2bbb461a209f0ac8e5ac91d9bf9c0cca02ed0fb494976388f219edaf49e7d8a3180892fea29d9e22382fa7b1ed7c79519f63ddf15be4e094e9a7b2877bcdbc530c23ac2d8f9aa0e847d487340059f818d69232a3cd6eef039edd8be8803a2aba326fa4ca022311440a36acfc0d2d94ef84075cebc28e61872c05b570a09cf6a396b09da94f68f51b667bfecb928cad88197421f7407dcc7b07dbd2fc9682e778e09f2a5918881c687012d322a63c4ea6f786a84b560b60e18e2168afe4d74a3dbe1bdbfca30f3d05647c259eb1b3effe6b085bc54b5cc54212da37fc0589e7d46cd2bb6b524ec69c44862b5b1626439844f1cd52bb3d673bab1cedf5101b899051fdcb3f27bdbaacfda225858b2b71e5913b9597325c8260ab573a62517060f29a4f766bb5acf8317447096bc902abd2a58be46c876f0b96299d648d02aaddb422efa4cfb4ee19df2c2df86d82562741d20a762b055d27aae8d01682c67d477ee8abe642de3a769aa5a0b71526d1dae7b13cd622b59d6d0a24dabff7678780dc582ab273ab3a24b7d7c2f2370c51b10aab374e45f256714a3585e22f1158cad94c10ee7325090b8fe22e14d4af5abccf29baae0f388694017a3b91a33383b6883848a93a6fd0b15223849607b82dbdce4e603181b212e3a43545c5f6b6c7a9ea1a8dbec000a2b31363e545c667f839bc6d7ec0000000000000000000000000000000000000000000000000b17293801fd2105001166eb707c2b2b7e42ef2ebe0dea3e622c9c54e7e9d02fb27ae6ffd0b7b849e0174f6539f6b0428d286f7a753ebe07dee1382bcea3e48f2b61d6ac97316c39de2713d209599b6362a09871e5f4ad9d860c9cfd3390fba87092a2cbe07d187f9958315df68ce83ee737d3d38a46b6d372776d5a127aa38174835eed2187c97bb0f5d340cecbe660f5080a4b51ae9a7f1cbcf5c1201bf39ba8f29485b6e48c0cf5e4dc71b78a6fadc1effa0c8d423cff335ab896f822e69f4001c6bdce9ab0adcd5579f9c6a6b334b75d7ba34619e98ea2992ef16c48399bc746e85a8fb376f95e0140594c5293b3da76fdf408c88eba1b28bbb96ece29ff043c9132fe6215c09a81788dad2eff8befe4a0f902a3bf1679a601f7387a7f20457dbb0b157debc4f474f90e8f851ddbd507a8ec90f24c95c7710a5f969f8059cc9c07c8403d3a55c9f43dff104bcb274aff9768cd6471423cf4530ed1bd6f790f53cdb1d130cbf317c3ecc859c977c40364566883573c3bdd24764ee241cbbd9b5d349b311102395b15843e1704bd1a1d7967db444bd2d6b443a0ab58db16406386018441a7baabd8628826fa3f4e28ca1d57e8187cf6e5bbd9b8c289146d0ea29c6ec44e4aa924a8e92907ced7326deb694fcaf5d3c073f8579cdd6c2e23e6bc8d9e88f87ee35d32177e7d1fe07c8f6169ea5fe135bbf2bd904152a495e0fed1d555d01007134f223db56da7c0dd611b5802a415ada78decca418e393412deff57d5e0b0b4bc4b1b91338cf506a7b6e89e91a0095fa8f49ad0a5a67be5734027d40330e14fdbab51226fe27c230a5953a60720c6267769a1279db9bdcdeec6b1827482d6812a28434c833d2fbd3c9fe85eddec606f83a542ce6e3ca7c5e27966cd882c012f0964e1145b921e1ae78599d55475dba3ee67577df2b3ba6c11ef75c2d28f288f56aa7f4d1fae60f4c106708f765e613e0fd69126080c837b24432db86a544f7c34d45007018f3e90bcb79e8ed6ac6c78cdf4bdedde43b526a138783ac368e2e0aeb1c6e0d94c40bcbf899f3422b4397c8a47b9a2909bc276bc6c374f8a32599410e2413b2e8a04313f9b9af6958201cb20a331cd0ff9c91a322987ecc0428b9ebbcc49eaac5575243014094a986887bf1e817dfc54d2fc4b5e790bb1b063ccc8b84a6dd4ec480835368e0eae9b1444c3917416fd9a04c3c87fd9e28b7199d51c9fdaac8575c74f8358dcd0f3046b1ebf9c4d4d363e84057e1438f959cf2f3a12990eb3159da6fc26768ffb8741555b34fc0ad276efcfa1661f3f9c9dd8c56943501072e9c327937393ddf57cfdff07fc28e97d4bc488d68b4bf402b49764e5bdc3d7dc4e7307cec966e2117ad22952d0d425879d000ed3b61b1e83aef55069497ee313427f37013c06ebc9225dc805088c13d6f1546ab22730f33e5afc9fad7ba739048c131abef6f0f5395c8570ab7fe86e7229c583a95b398ffc695f7d44926a5b39f90d8c48bf29d887081c89a88ece10950d6e442c5862791b51bc26bf6d941a286454a99b9a7f7c2fc0c6616b406be4ae22478e125c8017a529dc8ff5d60962563bf3b203b10206bde025c757f6ebcfd45699d64ebce58e9f8738a1fcdbf72045e025392a3bd123e9200c6d495c062028426bfb60857bb0790875eca99da64355af0633772a6153d54f6962913d1d6928ab7d260c90f2157554ce6f477a43f7d68ddcb77d3a492399e4fc3d1430a98ba25c6ce5c0b34ca4751adb47e88674f362322ab0d00886bfe3d9e717b6c47359c7d32e1f2fd0ac8818252c781de701108bc57c062e198122045e0ebe550e81f61555843e1ee8991205d7df7c7ad25d036f81000000",
  "txid": "1f4e47a26fefbbc2a8e89e50c402431015a4e900ebb4a545ca7632e785775f61",
  "hash": "b22609f50450f58836ed03b6cd6dd055472c5b220dc55165dbb792238c2fdbeb",
  "size": 5085,
  "vsize": 2278,
  "version": 1,
  "locktime": 129,
  "vin": [
    {
      "txid": "7fec2de8774b3cc490a2e3292e5ac07bea6bb63ca60ffd3ac8f851445d92f78f",
      "vout": 0,
      "scriptSig": {
        "asm": "",
        "hex": ""
      },
      "txinwitness": [
        "9623ed1900e91666000fdb28848b55a00a58ff9fca04cbc43beae0016f65f243a6fcbcb29e2ff9de85b1b84d8ebf5303723e781f4eba21a5aa21662c0d9bb34d9de6ae97136df2ae572e79ea4a6570bbd3613e7abfe61a57703fc4f6c182a7ead03a4a030d466a909f5e35537f9d3aee38567eeb387cbfba456a7a38fb266e2ec7382ae18cb1f67ca481f9d6a5e9b5cb465f47260d8ad5fa026a1010cb4b633d4396d171d8666640b934d7db3dcded25e3e7844ffbee04b992f0a9c1a5f21dcd6c5d929ae4ca7eb3b4cef34b471f4aa332caf3426a673fc664aecd176b159d2e779b48d5674a15352927f794a491d51ff0ce2e47c4aaa1d33ba63caf5bce63280a07ef225a1c0be440c01ac0a3b410d678cb2acf42b223a54f6cfec21abb9bb0593ffd149b2ad4aad9a85ded751c2cfc37d6125eb2aaef845f8ed6fa647728f87e2b3720533f6b40aca4b7db68c2663a298584c0c25e05fad64f30f488ce756f7da25c5cdfa72c1ec0e66ca80a81d88b51b1f8b13940f92ce8ceb37397207322938439a842e038128ea31d08271fc8eaacfde6556e43991560d30c0093fb8faa94cf70d9171b7b630d57dceb276d15f574dd1a42e67683453d87017eb6b6377511d956fe542bdd154239915e03a2ab91233323c3f7681f081151383aa95e7035efcf41a01c0ff8f6401158671436d190778397db4abdd12c562c761ef6b3e0390e84ca73bf9dffb962e6b82d699570c1d7a64aed28c8125f89012ce2cd0ba8fb0152527563327f5dbb91296d36b3a31b03723217bd2bcdb4e800a04c98d53ba59b78a89309613894553afb8c203c03ffaf124fb65f650c3a2f95793d19b229979662aeadcbacd7d86b86dfa42f35a9399bcf580228adc29ab41f41061edd820bbf9854833ed9df920e0f9cfcb3780c063ba28e0c341671dfd922d065a7aacab2d3a3b2c42db437b0ba6163eca8bfa42a8f1e33ab6e0258df78edd7be2f7e434fd920b56c7bf34384d4a1cd179bffdf244ab4c2171b6be1b873cb4eb70433c6c29de4a7ded72313255ec49cf09fbb48f23f30f91f9f7d6eaedbcb508a80428d8ccdf4727c5f53091e2bda31ef716876966069f16e6994fc68a08a1d4e28c93fb37cfe444bd213baadb7e3d3a3e0a797c93a7e3e2272d767bcb6654963ea812aaaaa9cb2e9cf8b88ce2340bd35640de34f7f56dc7a167dfdc91eedbf492e3e749886ebcb48a969ee5e323381575f34bb0fddd5537e67e827c7970225bcbfb6ecda29a4b97fdf9af4c442444df29b8ef74ed8accc2fab1cd4f0cce0cde098c9637c40c59cc20c4c1fd7c81c1a5c18717b2086c76ac4d3b604e93344397be0b87895eb0e1a613bc74384caa49e7bbd5a2508e06984ac74deb60f21598050167bbc5a25fa816e5016f70e6b5cd41d9d8c31408f523500506ebe767cf97e725396115024e0d99bfa65f143f3cddb15d0d5dfe8fbd19dff3a9e09f167c57873fb2b2826fad2eaa451809c509339c0758643d4b1bf1edfd75a0b2fd6ca7ed80148ede8dc405dc296c5c4418d9f9fe51a43bb0221f03b4bd54ef77e9aa660c6422b80f6c4473c104cf4516609c3365daca312392b08e0c181b6c95a8ca6b42563e0cf15fd9fc4e93adb63e04e4e61ef62e8f8986719d8e49cf8816d65fd63b765abf0b98e77c857398dab3d00d3234e678b3507ea10b93b4f0a35701ae913b58e68554bce605fac492731c732a175e96b99c3a3f7b94478739822614e67a0f7f2099b2db1844a301ee2da701b660f5076b248c6f39514e26e35506ce4c89676e38e144cbca79f34977373d8ffbcc7615587457289f5094fa314e3f44341c72d26043c554bf94a1fd4102c6ba9daa097805dc4ac6e07e05477747905bf3172affac2df723e83fa6dc38a4d5f52bd5e84c4fae4e44cb3895582489cb85fc964c4bf8ac789dd0f15daafe9d0b8dfbd2707922ce2e4925d93ed17f5b456359f7bdcf1a6bc1602aade6cb9db7bf35075d3a90efcdc3236aec3099951080e45b24e4d73f02131c698ee1111ea865988a6cb848ef6c65f9bfb5985614472b2f663a2f5f29fb0acc654cc6576bb7eeb6a2c3d5e7dbc08c833d4230dfc2e46c2be9855417a45ba142b7eb0f1ebe47a24a0c3a995ca9a47795ac4df3c4198f9d90e291b49ef7a8351382f29d33af45f807c8b0a07834547021751af2ab50fc9ef917215502c7471c11ef10e3a68f4d6dd2161cf9925411d95a8743aa48224f9dc317e9d203ddf633a962c890c70aa541fb7a94ec40175c24150dbe866fb8667b9ff0d737b71a9ede44a9f7fe3fc0738d6637fb2ab29d6030a82d1a388b1ed1e1325b479cbc653e798a83e08be3ce7528fd4cad35de1c92ab9e5f73ec3a6ed7c3001138cecc47bbb437d8ebeeff904cb9ed5bd5014d5712452eee4bdabe4b887d62eb48a96f70e6cd0372ea90904962146a0671ad928a54acf9a1b11c89528c90a1d97232563dc5b35ed34b120613a71b89b1f8c0148f3057a8f24da9991ad20d85ff1cc8a5197a871295d017cb374ec940af0295b709ab9ae8f98b5af2a04d1570d0be65c597fe1c624e1405b3371e1c1369f6428ebd99ed54bda33932efe20fae3d4feffe74dbce9ae2697b4adf25041006874a00c35b62852e971f851a2b2f3fcd021010bdbd8bdd6428584c12cb2bbb461a209f0ac8e5ac91d9bf9c0cca02ed0fb494976388f219edaf49e7d8a3180892fea29d9e22382fa7b1ed7c79519f63ddf15be4e094e9a7b2877bcdbc530c23ac2d8f9aa0e847d487340059f818d69232a3cd6eef039edd8be8803a2aba326fa4ca022311440a36acfc0d2d94ef84075cebc28e61872c05b570a09cf6a396b09da94f68f51b667bfecb928cad88197421f7407dcc7b07dbd2fc9682e778e09f2a5918881c687012d322a63c4ea6f786a84b560b60e18e2168afe4d74a3dbe1bdbfca30f3d05647c259eb1b3effe6b085bc54b5cc54212da37fc0589e7d46cd2bb6b524ec69c44862b5b1626439844f1cd52bb3d673bab1cedf5101b899051fdcb3f27bdbaacfda225858b2b71e5913b9597325c8260ab573a62517060f29a4f766bb5acf8317447096bc902abd2a58be46c876f0b96299d648d02aaddb422efa4cfb4ee19df2c2df86d82562741d20a762b055d27aae8d01682c67d477ee8abe642de3a769aa5a0b71526d1dae7b13cd622b59d6d0a24dabff7678780dc582ab273ab3a24b7d7c2f2370c51b10aab374e45f256714a3585e22f1158cad94c10ee7325090b8fe22e14d4af5abccf29baae0f388694017a3b91a33383b6883848a93a6fd0b15223849607b82dbdce4e603181b212e3a43545c5f6b6c7a9ea1a8dbec000a2b31363e545c667f839bc6d7ec0000000000000000000000000000000000000000000000000b17293801",
        "001166eb707c2b2b7e42ef2ebe0dea3e622c9c54e7e9d02fb27ae6ffd0b7b849e0174f6539f6b0428d286f7a753ebe07dee1382bcea3e48f2b61d6ac97316c39de2713d209599b6362a09871e5f4ad9d860c9cfd3390fba87092a2cbe07d187f9958315df68ce83ee737d3d38a46b6d372776d5a127aa38174835eed2187c97bb0f5d340cecbe660f5080a4b51ae9a7f1cbcf5c1201bf39ba8f29485b6e48c0cf5e4dc71b78a6fadc1effa0c8d423cff335ab896f822e69f4001c6bdce9ab0adcd5579f9c6a6b334b75d7ba34619e98ea2992ef16c48399bc746e85a8fb376f95e0140594c5293b3da76fdf408c88eba1b28bbb96ece29ff043c9132fe6215c09a81788dad2eff8befe4a0f902a3bf1679a601f7387a7f20457dbb0b157debc4f474f90e8f851ddbd507a8ec90f24c95c7710a5f969f8059cc9c07c8403d3a55c9f43dff104bcb274aff9768cd6471423cf4530ed1bd6f790f53cdb1d130cbf317c3ecc859c977c40364566883573c3bdd24764ee241cbbd9b5d349b311102395b15843e1704bd1a1d7967db444bd2d6b443a0ab58db16406386018441a7baabd8628826fa3f4e28ca1d57e8187cf6e5bbd9b8c289146d0ea29c6ec44e4aa924a8e92907ced7326deb694fcaf5d3c073f8579cdd6c2e23e6bc8d9e88f87ee35d32177e7d1fe07c8f6169ea5fe135bbf2bd904152a495e0fed1d555d01007134f223db56da7c0dd611b5802a415ada78decca418e393412deff57d5e0b0b4bc4b1b91338cf506a7b6e89e91a0095fa8f49ad0a5a67be5734027d40330e14fdbab51226fe27c230a5953a60720c6267769a1279db9bdcdeec6b1827482d6812a28434c833d2fbd3c9fe85eddec606f83a542ce6e3ca7c5e27966cd882c012f0964e1145b921e1ae78599d55475dba3ee67577df2b3ba6c11ef75c2d28f288f56aa7f4d1fae60f4c106708f765e613e0fd69126080c837b24432db86a544f7c34d45007018f3e90bcb79e8ed6ac6c78cdf4bdedde43b526a138783ac368e2e0aeb1c6e0d94c40bcbf899f3422b4397c8a47b9a2909bc276bc6c374f8a32599410e2413b2e8a04313f9b9af6958201cb20a331cd0ff9c91a322987ecc0428b9ebbcc49eaac5575243014094a986887bf1e817dfc54d2fc4b5e790bb1b063ccc8b84a6dd4ec480835368e0eae9b1444c3917416fd9a04c3c87fd9e28b7199d51c9fdaac8575c74f8358dcd0f3046b1ebf9c4d4d363e84057e1438f959cf2f3a12990eb3159da6fc26768ffb8741555b34fc0ad276efcfa1661f3f9c9dd8c56943501072e9c327937393ddf57cfdff07fc28e97d4bc488d68b4bf402b49764e5bdc3d7dc4e7307cec966e2117ad22952d0d425879d000ed3b61b1e83aef55069497ee313427f37013c06ebc9225dc805088c13d6f1546ab22730f33e5afc9fad7ba739048c131abef6f0f5395c8570ab7fe86e7229c583a95b398ffc695f7d44926a5b39f90d8c48bf29d887081c89a88ece10950d6e442c5862791b51bc26bf6d941a286454a99b9a7f7c2fc0c6616b406be4ae22478e125c8017a529dc8ff5d60962563bf3b203b10206bde025c757f6ebcfd45699d64ebce58e9f8738a1fcdbf72045e025392a3bd123e9200c6d495c062028426bfb60857bb0790875eca99da64355af0633772a6153d54f6962913d1d6928ab7d260c90f2157554ce6f477a43f7d68ddcb77d3a492399e4fc3d1430a98ba25c6ce5c0b34ca4751adb47e88674f362322ab0d00886bfe3d9e717b6c47359c7d32e1f2fd0ac8818252c781de701108bc57c062e198122045e0ebe550e81f61555843e1ee8991205d7df7c7ad25d036f"
      ],
      "sequence": 4294967294
    }
  ],
  "vout": [
    {
      "value": 499968.4761,
      "n": 0,
      "scriptPubKey": {
        "asm": "1 e9668d46c27114aca0c7b6995852ea74c5d4f3513a3ff4d3187a243ee42c7cae",
        "hex": "5120e9668d46c27114aca0c7b6995852ea74c5d4f3513a3ff4d3187a243ee42c7cae",
        "reqSigs": 1,
        "type": "witness_v1_scripthash",
        "addresses": [
          "3QJmnh"
        ]
      }
    },
    {
      "value": 1.0,
      "n": 1,
      "scriptPubKey": {
        "asm": "OP_RETURN c03eff6240ed3ab065d891fd63d1899800063d90df16906fc97eb6980eab1773 7f95dbd8dee168330df6ba411357fc60df929894cb1ca254586c526b42c223b85fb5fbf8fec148132dd69a613377dc40ffb2b8b4eb3c8274784c724b62e203983fd59b989ea128734db6fa015317bc209fd2d8d48b5ce214182c122b028263f81ff5bbb8be8108536d96da2173379c00bff2f8f4ab7cc234380c320b22a243d8ff155b585e61e8b38d763ac193d77ce05f1218144b9c22d4d8ecd2ebc242a338df357b787e41c893ad561ae1b3f75cc07f3238346bbc02f4f8ccf2cbe2628318bf551b181e21a8f3cd367a81d3973ca01f5258540bdc629498ac92ab8202e3789f753b383e0188d3ed165aa1f3b71c803f7278742bfc42b4b88cb28ba222c3587f95dbd8dee168330df6ba411357fc60df929894cb1ca254586c526b42c223b85fb5fbf8fec148132dd69a613377dc40ffb2b8b4eb3c8274784c724b62e203983fd59b989ea128734db6fa015317bc209fd2d8d48b5ce214182c122b028263f81ff5bbb8be8108536d96da2173379c00bff2f8f4ab7cc234380c320b22a243d8ff155b585e61e8b38d763ac193d77ce05f1218144b9c22d4d8ecd2ebc242a338df357b787e41c893ad561ae1b3f75cc07f3238346bbc02f4f8ccf2cbe2628318bf551b181e21a8f3cd367a81d3973ca01f5258540bdc629498ac92ab8202e3789f753b383e0188d3ed165aa1f3b71c803f7278742bfc42b4b88cb28ba222c3587f95dbd8dee168330df6ba411357fc60df929894cb1ca254586c526b42c223b85fb5fbf8fec148132dd69a613377dc40ffb2b8b4eb3c8274784c724b62e203983fd59b989ea128734db6fa015317bc209fd2d8d48b5ce214182c122b028263f81ff5bbb8be8108536d96da2173379c00bff2f8f4ab7cc234380c320b22a243d8ff155b585e61e8b38d763ac193d77ce05f1218144b9c22d4d8ecd2ebc242a338df357b787e41c893ad561ae1b3f75cc07f3238346bbc02f4f8ccf2cbe2628318bf551b181e21a8f3cd367a81d3973ca01f5258540bdc629498ac92ab8202e3789f753b383e0188d3ed165aa1f3b71c803f7278742bfc42b4b88cb28ba222c3587f95dbd8dee168330df6ba411357fc60df929894cb1ca254586c526b42c223b85fb5fbf8fec148132dd69a613377dc40ffb2b8b4eb3c8274784c724b62e203983fd59b989ea128734db6fa015317bc209fd2d8d48b5ce214182c122b028263f81ff5bbb8be8108536d96da2173379c00bff2f8f4ab7cc234380c320b22a243d8ff155b585e61e8b38d763ac193d77ce05f1218144b9c22d4d8ecd2ebc242a338df357b787e41c893ad561ae1b3f75cc07f3238346bbc02f4f8ccf2cbe2628318bf551b181e21a8f3cd367a81d3973ca01f5258540bdc629498ac92ab8202e3789f753b383e0188d3ed165aa1f3b71c803f7278742bfc42b4b88cb28ba222c3587f95dbd8dee168330df6ba411357fc60df929894cb1ca254586c526b42c223b85fb5fbf8fec148132dd69a613377dc40ffb2b8b4eb3c8274784c724b62e203983fd59b989ea128734db6fa015317bc209fd2d8d48b5ce214182c122b028263f81ff5bbb8be8108536d96da2173379c00bff2f8f4ab7cc234380c320b22a243d8ff155b585e61e8b38d763ac193d77ce01e3865a95511bc286f3f7f34beeb7b3d9c758cbaba1ea832fc38f6d174b01a12",
        "hex": "6a20c03eff6240ed3ab065d891fd63d1899800063d90df16906fc97eb6980eab17734db0047f95dbd8dee168330df6ba411357fc60df929894cb1ca254586c526b42c223b85fb5fbf8fec148132dd69a613377dc40ffb2b8b4eb3c8274784c724b62e203983fd59b989ea128734db6fa015317bc209fd2d8d48b5ce214182c122b028263f81ff5bbb8be8108536d96da2173379c00bff2f8f4ab7cc234380c320b22a243d8ff155b585e61e8b38d763ac193d77ce05f1218144b9c22d4d8ecd2ebc242a338df357b787e41c893ad561ae1b3f75cc07f3238346bbc02f4f8ccf2cbe2628318bf551b181e21a8f3cd367a81d3973ca01f5258540bdc629498ac92ab8202e3789f753b383e0188d3ed165aa1f3b71c803f7278742bfc42b4b88cb28ba222c3587f95dbd8dee168330df6ba411357fc60df929894cb1ca254586c526b42c223b85fb5fbf8fec148132dd69a613377dc40ffb2b8b4eb3c8274784c724b62e203983fd59b989ea128734db6fa015317bc209fd2d8d48b5ce214182c122b028263f81ff5bbb8be8108536d96da2173379c00bff2f8f4ab7cc234380c320b22a243d8ff155b585e61e8b38d763ac193d77ce05f1218144b9c22d4d8ecd2ebc242a338df357b787e41c893ad561ae1b3f75cc07f3238346bbc02f4f8ccf2cbe2628318bf551b181e21a8f3cd367a81d3973ca01f5258540bdc629498ac92ab8202e3789f753b383e0188d3ed165aa1f3b71c803f7278742bfc42b4b88cb28ba222c3587f95dbd8dee168330df6ba411357fc60df929894cb1ca254586c526b42c223b85fb5fbf8fec148132dd69a613377dc40ffb2b8b4eb3c8274784c724b62e203983fd59b989ea128734db6fa015317bc209fd2d8d48b5ce214182c122b028263f81ff5bbb8be8108536d96da2173379c00bff2f8f4ab7cc234380c320b22a243d8ff155b585e61e8b38d763ac193d77ce05f1218144b9c22d4d8ecd2ebc242a338df357b787e41c893ad561ae1b3f75cc07f3238346bbc02f4f8ccf2cbe2628318bf551b181e21a8f3cd367a81d3973ca01f5258540bdc629498ac92ab8202e3789f753b383e0188d3ed165aa1f3b71c803f7278742bfc42b4b88cb28ba222c3587f95dbd8dee168330df6ba411357fc60df929894cb1ca254586c526b42c223b85fb5fbf8fec148132dd69a613377dc40ffb2b8b4eb3c8274784c724b62e203983fd59b989ea128734db6fa015317bc209fd2d8d48b5ce214182c122b028263f81ff5bbb8be8108536d96da2173379c00bff2f8f4ab7cc234380c320b22a243d8ff155b585e61e8b38d763ac193d77ce05f1218144b9c22d4d8ecd2ebc242a338df357b787e41c893ad561ae1b3f75cc07f3238346bbc02f4f8ccf2cbe2628318bf551b181e21a8f3cd367a81d3973ca01f5258540bdc629498ac92ab8202e3789f753b383e0188d3ed165aa1f3b71c803f7278742bfc42b4b88cb28ba222c3587f95dbd8dee168330df6ba411357fc60df929894cb1ca254586c526b42c223b85fb5fbf8fec148132dd69a613377dc40ffb2b8b4eb3c8274784c724b62e203983fd59b989ea128734db6fa015317bc209fd2d8d48b5ce214182c122b028263f81ff5bbb8be8108536d96da2173379c00bff2f8f4ab7cc234380c320b22a243d8ff155b585e61e8b38d763ac193d77ce01e3865a95511bc286f3f7f34beeb7b3d9c758cbaba1ea832fc38f6d174b01a12",
        "type": "nulldata"
      }
    }
  ],
  "blockhash": "e950f66e7d48487e03ac7a1b4e7864aa28758accf0e3d98358cdf64a352531e0",
  "confirmations": 1,
  "time": 1764181937,
  "blocktime": 1764181937
}