{
  "hex": "010000000001017ddd6682daade2ed14268393eb0171a7c9f5786532ede43af8d5b05a20c2df410100000000feffffff02b0cd76d8782d00002251206b684ed44c1faffbd1038d78e35eb6561ffd2f0443cc724824342350654b87b200e1f50500000000fdd5046a2079cfea014e9efa168afb05b1cca47c9f22e5778f3f652006a895232631dffec64db0045a3b5dcc865cc028963bb648c9993211b934ae22f89d166977ec84608672766c7a1b7deca67ce008b61b9668e9b9123199148e02d8bd364957cca440a652564c1a7b1d8cc61c8068d67bf60889d97251f974ee62b8dd562937acc420c632362c3a5b3dace63ca048f65bd628a9f95271d954ce4298fd7609178ce400e612160cdabbdd4c06dc40a816bb36c84919b29139b42ea2781d96e9f76c04e006f2f6ecfa9bfd6c26fc6088369b16e8693992b119940e82583db6c9d74c24c026d2d6cc9afb9d0c469c00e856fb76880959f2d179f46ee2385dd6a9b72c44a046b2b6acbadbbd2c66bc20c876db56a82979d2f159d44ec2187df689970c64806692968c5a3b5dcc865cc028963bb648c9993211b934ae22f89d166977ec84608672766c7a1b7deca67ce008b61b9668e9b9123199148e02d8bd364957cca440a652564c1a7b1d8cc61c8068d67bf60889d97251f974ee62b8dd562937acc420c632362c3a5b3dace63ca048f65bd628a9f95271d954ce4298fd7609178ce400e612160cdabbdd4c06dc40a816bb36c84919b29139b42ea2781d96e9f76c04e006f2f6ecfa9bfd6c26fc6088369b16e8693992b119940e82583db6c9d74c24c026d2d6cc9afb9d0c469c00e856fb76880959f2d179f46ee2385dd6a9b72c44a046b2b6acbadbbd2c66bc20c876db56a82979d2f159d44ec2187df689970c64806692968c5a3b5dcc865cc028963bb648c9993211b934ae22f89d166977ec84608672766c7a1b7deca67ce008b61b9668e9b9123199148e02d8bd364957cca440a652564c1a7b1d8cc61c8068d67bf60889d97251f974ee62b8dd562937acc420c632362c3a5b3dace63ca048f65bd628a9f95271d954ce4298fd7609178ce400e612160cdabbdd4c06dc40a816bb36c84919b29139b42ea2781d96e9f76c04e006f2f6ecfa9bfd6c26fc6088369b16e8693992b119940e82583db6c9d74c24c026d2d6cc9afb9d0c469c00e856fb76880959f2d179f46ee2385dd6a9b72c44a046b2b6acbadbbd2c66bc20c876db56a82979d2f159d44ec2187df689970c64806692968c5a3b5dcc865cc028963bb648c9993211b934ae22f89d166977ec84608672766c7a1b7deca67ce008b61b9668e9b9123199148e02d8bd364957cca440a652564c1a7b1d8cc61c8068d67bf60889d97251f974ee62b8dd562937acc420c632362c3a5b3dace63ca048f65bd628a9f95271d954ce4298fd7609178ce400e612160cdabbdd4c06dc40a816bb36c84919b29139b42ea2781d96e9f76c04e006f2f6ecfa9bfd6c26fc6088369b16e8693992b119940e82583db6c9d74c24c026d2d6cc9afb9d0c469c00e856fb76880959f2d179f46ee2385dd6a9b72c44a046b2b6acbadbbd2c66bc20c876db56a82979d2f159d44ec2187df689970c64806692968c5a3b5dcc865cc028963bb648c9993211b934ae22f89d166977ec84608672766c7a1b7deca67ce008b61b9668e9b9123199148e02d8bd364957cca440a652564c1a7b1d8cc61c8068d67bf60889d97251f974ee62b8dd562937acc420c632362c3a5b3dace63ca048f65bd628a9f95271d954ce4298fd7609178ce400e612160cdabbdd4c06dc40a816bb36c84919b2912f0aca5452604ac7b2abc649af34ed26f547d29753e4c7023c8fb72d56372d3c02fd7509a8edacfe2058709523fce2038a32d8f1d9dfa7fe73078bfe01deb94056bac25d1ff6fce8e23318ae84933500ca563064398cdb4e8ebb235fa2fc3b0459cf889901d7f5756808893dce4d4cf4707146be4a18478ffb001a2ab28682084922753d13d75a4efddcc60c11f612e2b4d9ce55bf9787e40f12e4fe363e9b43bb22208b628a0e4933f91cbb5118cb211d20ad4315f4bc490c4a99881463adc1045fba7d3290d313624b3c37e2a015f0dd6a4ebc24e1e01522b763947c3e9d6dfcc9a81cc445863b90cb1492bd449a2c65fa667a15375062d04767b4705df388acb241ede29139b1b4c6c3bccc5726256c3edcef20d12a4d05921ba7e462d75bd9ac1325251ba96adec2bd57bce8d0cc56a0269234a19d08eee1161c3af2d3740f1dcc0f70a56d896ab23d5a3548a07fd2c1ee1dac845f251d82f6c4900a8ffddab801c9bca06e5d3745d416370a4f3ebb5db0f0981060f28f3469bc816335e19cfc162de9c3cf742a8b05f6c211288f43eee174c16ef9d46da4f9803545c92a5417c6a332e50d439b4e9b503274afb80d491e1e3a5f817a8009e16ce8654d1f69a2a4e7cf01d0ae9a4cc0b4b38940c6d1d35b8d247b51fbaa5441a4680308560e8c9c94dd73850185f1a4e67d0ba3d00f432b507c8913ec2455917a46846822ad16eed3956c249455694872679e579584b3b28358c39462aa25c26da69777a3724362790d1cc1b09c4891be59fc6e8b8554944e35e74a7acfeb23430008edbd67f218700a1d46bf2463ce81019ff46b9e2809beaab1055003e7b29be74ac49809f0154bd3b78fea7c9860c95d341ff54140872a35f0545f4ffc1785ed397881aec80d62a1dacb03efb4b4245db6ae73f14728f8947a5476dc8a66b45c956381571868e299203572cbbbd5a9a9659f2e1a1afac8597be39772715ba654a856653521cc21b6d305c87641dbbb7bc2d7d601d2a6510dea0a0b56286a289b570f113c005dad5c8016add0da88dfdb8343a31d7f01b6b57f60bd2a75354bf39cc5698d5dc9778269b4453b4184b52e92d56c72b1715a8b2a70824b83c21ed0afc5a7a9136509c2de3b4ff8afe33afa3db5f0f5eef8ca9d27f4ed3a36917e6619460730ae1c8ead409cdb2286c9ceb6285c18d1a7c0baa2a4502b417e6d27b8c975bf36545af175d64c5fde495313c12eecf4e4732164770277235b7c9b021cdc69ba458cb8d73903a6d2372234d47b56f5f28c6c0678b334a22ffa2b9d7d648e8f8e64324496e9815eed25da9cde661d1951ec0dddc771102f5ce940f208f41cc4faa7388ddcaf5bc18cbc0f432c3843bb00968a959daece78db7516258a7f7df54b6358ecbed85dd7c6259955228926bac3e54876df352290cd16baaa76292d5ae6667cde1cebcdbbe8fe724ad152b6fa7fcdd49becee05392c4d5208b2ea52dc77e653df1179ec4d3867db1c2cf97a95f15731841a6e3abdd5a2be4166dfc7fb101e8b6d10bb53bd2479c91519129d7dab7b8cf7528ec008a910845325eb456e4467af28efce62fb1804fd7335e48397bc1bb83ccf3b3411f41bbd04153d634f75bb739af32a013720d4c44612243477acf9416b69b4621d1ae5c2398752523269f8a62ce9b6fd015554a1cb0f7251b242cde6a017fbaeed93599c5ae83ebce0c994da3201df8fb808a60c43785ed02ee1b41762264a82d22c68744c8d2f0aa9e125018a9bb20d945f36cba3ad5be110539d8ad6961c65893b9c1c34d8ff9df6583f3a3f4992301ddad31202d2a93136170a3eb8d3e6626e4090c4bf7d05259425be775a27852abfcef12c6c3fd77c9b71ebe7bd9db85423449c1928a2bd9190a0ee20410ee0d0edba5769fbfeb99af1d846ba6b8a5295a39cb1727bb6495a2203fff0f97a749275b5016dd13bf6c18d15a9ebc1d3d86f133e0efbaa8f536f592ec8ee09c8215277135def1a7be9e1d2c34fd6ccbaf680be479ff8df0233f852d82bc3f8f6954264d96df153de1ad20fb93e82f416d9909709086ac85a9f9e1ce5f40bfa5f2c5fd87d37bea2711e44b142679acd9023bb27ec2d823a7d3d5abcac258f1fe26c9c6043cecd8ee83fb3b4badf71abace387452e9f9e1e935ee4c236595a6b72e73405c2e8657cd8393154943e1834a3746088f95242a8f686f2265dbcfcef96d4567a4dfcf4b400136ddeeb08ea32bd0a8042b00b61b86e13d36d00f61bf955f0fc61abb27ef6f4ab8c734fc543c754f31be0617326fb5db35696cf9409d8cded7ed8c279a6de93a782a62450df8e00db03d87d8ab0c5f6f226881cf4a50bb49b64a99daacd3d254a2e9d157c0b344ec24cae94582236641a6266db5b3b428382eacc37cf37f9b2b9773b9a199fece0000cfa049f46889cd1f01bdd15d2ed297cdfa83bb22eb852f677b7086050ee6bc7c51f925ff4a1ce43769378565451d0f4dd07dc9833737a4c2d88ba243b8cb32ce215782ae02c8b237e7b0eff5dabdba4f95e3fdca9558b12e0dca8197bdb0c360d22cdaa23dcfe886909aaeaecca8909aa23c56692c2f7bc63d7499117526acb9c3aa2971431b2fd5dc9d51c80f778d905be866fa3893683595a4fec29f4f4166be305bce4c19358d4fa57687612201e9b240bce236fc05a8496a6a1db981d52b7861ba5ce58d05248597048274b804cd4a5d3581217449e54fd701dac818a272c85bdc6ecc72762dffc2576e27cae05d3566ceb3b721aa6c9fe895b6ab8e56967124b0e70923599084bf75c51427e5b88ec4bc1f8e6b5135788a8eee8c42469612654cb57d4d3b4702b4e6647fec4c203e8c457dafc2b1cf3aaeb7216026ed8e0c39b4c1275e0c37ed928250ca061a391f713c2cc0f50c8112c5a41257331a2448012e10f4549aa2d1cf5953900a63c7f1fbc27b46973927f85561c061258f84bacb86404a9cb3c1d5a29416b49f034ed9812a3d28db3bb3093c98d69f74c4bcdf8edbf98422c09a29196185a76732350812895ac5a3f5d105f90da396c8c9c0dc0282ec90a8abb852d59fb8aeed2294cc58fca106c01fe62e8635f7c86a53a7c87f795b098ec1d72026fe21e13262d5a7015b0c3630e07d9785e1edd038501b2e64a343786c0878ad0a2cd7964ebe932322eaaefe4f259468b5147c4aa5d831e532320cb43c213f6cf5fab1345f1429229fdad4bedf9c6359d7a0a55ea14171834da3b27496afb4b00d2ac398f6cb1cff1af2af6923b0a54a784e54cb13e64ce6bf78dc61a0a19303d6e560e5691f18bea51ef350bac01ac740b90f8458f93444ba3899e0bb083a8e3b8cead5b241c272833454656576369777e81868f92a0a6a8b1d4d8e4e804132a42595e6489a4a6a8deea191d42454e717c7d868793b1b7c6ced1daedf4f606191f2c5464848b98a5b4c9ccce0000000000000000001825394701fd21050079b973d7e31d1aab9c9f92dbfe8e18259043b577fa4af0d38dc1c89d88204b3ad5ea7931d20be1474fdb0da72e2e4115ddce80ce168520e2c7bff969d0d0a0cd49e330baf3e32e7a1afef77d7244526d20f6ca8daac4cb1a619536e473e551fccd057804d62e51b932d78ed8924970015fed2931ae26f75aec97c8e05eaba7d86c6836bf1f18f18cd568eb28715b7c11bc1f30031b8f8989359ebff18814266e48e9a9d45ac48ff40f77010f61c5a335f2a6062cc5ffdde46db69980ee857119270e327cea567c69c929efc45290ee9b2f421a51779cd804e78cfa578fed05534175d37f1f3c313ba39154d56e59a9b9f9a0a87d9d1bb8473ca5494439353377a1dbc27c337aafa7a2f988a4bf1cc26107b83200004ff0faf92533012f89e12e1b5fe41b0d2efb71c1a8e334327c2826665ddaf002d9cb14ac449451230679d6b0d3a03bdf429f2cff38220ef77844fff054c15447f94fd488b1b79dc2f3317516f3687016079684ede34945ff862b3be64bd695aab12ad38f4d9c9e6932aa2d0ee16ec98ee22396427a0889e340090cdae85cf918761e5b8fc73a82f3411131401ec5175a3cbb7926e3c3647213543e7a33510ee84e1b969f7bf8e5053f252bbc76562c82a9fc7d731c4a817e3895f331e1585d5b08aabbabf7d000dc047961482ca9c9fed329cf68fe44e7256a8a8da6e05514bf897ec6ef8265ee90e66dcedc52bb432195a7092e0b4c788589f3b2e782489e14ec13866806b69ae0d11d36d3b450920afe63465502fa898e7eef34a2a6ad8a49eaa41ffab6303695ba28267bd91f7f6b151a995830611758f9f43f65b8b027a55b5fe67f7fbf02a71e7e2b546e0d85ffdd9c394df9a8a17edddb5e920b010b62974339643eb7817a15abbfa952014301dccd8a63b249710503cbf5ec813102093380efd5d406483eca5ab6eab7d9ed4a0a818a1d33674aaa18c4160948d67a376787e549997e318d9574342e2dbf5b4af89f1918f569f3af3e8598c50dff4cd3bd35cab47cb59778f30ad756ea7eb162c58cf52eebf58e195e66da6704ec51ce9fab9e4a49a2c5141aa927aa9e342feff4958237176c09e3de111d159c1f835285956171ef86fe652660837fccbc414163c7305225225bb037c96cfdf7c2539a68c723319a6f109c617ba7aa2cb5d484aa3c699cf2a4613183c095b8131b62ae98ea464645687b257c5b8a5b4853794e0f30cf98e627163e8927b46d88d4c1dfde6bec102fe94b478695f40e38883c489d79f6755dbd05eb61c3798fbeecefc078628a8a42bb5768ec5883c167336a7d13e763ad68d9e5c71566e317bfabbbd48df00e9ff85487624bfed0dc3290dfb28da0e9fc2a538448c82b5ee660f75a2bcddce892e4d0e8da6919ebac64dd52538a1567e7bcdc3e38f3ad471ca39c65234e7352cac4b55a6a7955c9d56b401bd536ad40160557be99a11b4ad6caef6127925ce63fcc70b115fb519dc73db1cb7a3e3581e35e74e53cf7bd0594882d8f306edcc3f11049ad4d626c5338bb781be941ae2d47f136f2e7988c82581942695b7c6f64dcd026d836d19f19cae2a76918796a0341b84529b71b699040aecd76e3e96779efabd575847b55e3af184d9afbfe68e9a7e5fc0b7af104e0f58d492a4c126ea1d4453e149bc05b4c922cae52965b86af82d2871da938ad5a83f49677268494321e7cf349291fa3157dc1f3bac969f70a45d8dd744fb12483818d1d5273a07b4a70fe6a83d161a0f54da8b15fab4ce2b9343381211670c67da43d5197ecb7205da40a3dff22020e0d11cf166d5af1027f03b041ccbb00cfd84782fe04fbfd79a49e54788c926f14c77f000000",
  "txid": "20b824fb0c607e6996db9d0d9d0868ee34bc8d432676a928c6ca41d9df711ce1",
  "hash": "5853880224f60dea8dbe56d45963f90071d27c50a390a00aea4574909e6120b4",
  "size": 5085,
  "vsize": 2278,
  "version": 1,
  "locktime": 127,
  "vin": [
    {
      "txid": "41dfc2205ab0d5f83ae4ed326578f5c9a77101eb93832614ede2adda8266dd7d",
      "vout": 1,
      "scriptSig": {
        "asm": "",
        "hex": ""
      },
      "txinwitness": [
        "a8edacfe2058709523fce2038a32d8f1d9dfa7fe73078bfe01deb94056bac25d1ff6fce8e23318ae84933500ca563064398cdb4e8ebb235fa2fc3b0459cf889901d7f5756808893dce4d4cf4707146be4a18478ffb001a2ab28682084922753d13d75a4efddcc60c11f612e2b4d9ce55bf9787e40f12e4fe363e9b43bb22208b628a0e4933f91cbb5118cb211d20ad4315f4bc490c4a99881463adc1045fba7d3290d313624b3c37e2a015f0dd6a4ebc24e1e01522b763947c3e9d6dfcc9a81cc445863b90cb1492bd449a2c65fa667a15375062d04767b4705df388acb241ede29139b1b4c6c3bccc5726256c3edcef20d12a4d05921ba7e462d75bd9ac1325251ba96adec2bd57bce8d0cc56a0269234a19d08eee1161c3af2d3740f1dcc0f70a56d896ab23d5a3548a07fd2c1ee1dac845f251d82f6c4900a8ffddab801c9bca06e5d3745d416370a4f3ebb5db0f0981060f28f3469bc816335e19cfc162de9c3cf742a8b05f6c211288f43eee174c16ef9d46da4f9803545c92a5417c6a332e50d439b4e9b503274afb80d491e1e3a5f817a8009e16ce8654d1f69a2a4e7cf01d0ae9a4cc0b4b38940c6d1d35b8d247b51fbaa5441a4680308560e8c9c94dd73850185f1a4e67d0ba3d00f432b507c8913ec2455917a46846822ad16eed3956c249455694872679e579584b3b28358c39462aa25c26da69777a3724362790d1cc1b09c4891be59fc6e8b8554944e35e74a7acfeb23430008edbd67f218700a1d46bf2463ce81019ff46b9e2809beaab1055003e7b29be74ac49809f0154bd3b78fea7c9860c95d341ff54140872a35f0545f4ffc1785ed397881aec80d62a1dacb03efb4b4245db6ae73f14728f8947a5476dc8a66b45c956381571868e299203572cbbbd5a9a9659f2e1a1afac8597be39772715ba654a856653521cc21b6d305c87641dbbb7bc2d7d601d2a6510dea0a0b56286a289b570f113c005dad5c8016add0da88dfdb8343a31d7f01b6b57f60bd2a75354bf39cc5698d5dc9778269b4453b4184b52e92d56c72b1715a8b2a70824b83c21ed0afc5a7a9136509c2de3b4ff8afe33afa3db5f0f5eef8ca9d27f4ed3a36917e6619460730ae1c8ead409cdb2286c9ceb6285c18d1a7c0baa2a4502b417e6d27b8c975bf36545af175d64c5fde495313c12eecf4e4732164770277235b7c9b021cdc69ba458cb8d73903a6d2372234d47b56f5f28c6c0678b334a22ffa2b9d7d648e8f8e64324496e9815eed25da9cde661d1951ec0dddc771102f5ce940f208f41cc4faa7388ddcaf5bc18cbc0f432c3843bb00968a959daece78db7516258a7f7df54b6358ecbed85dd7c6259955228926bac3e54876df352290cd16baaa76292d5ae6667cde1cebcdbbe8fe724ad152b6fa7fcdd49becee05392c4d5208b2ea52dc77e653df1179ec4d3867db1c2cf97a95f15731841a6e3abdd5a2be4166dfc7fb101e8b6d10bb53bd2479c91519129d7dab7b8cf7528ec008a910845325eb456e4467af28efce62fb1804fd7335e48397bc1bb83ccf3b3411f41bbd04153d634f75bb739af32a013720d4c44612243477acf9416b69b4621d1ae5c2398752523269f8a62ce9b6fd015554a1cb0f7251b242cde6a017fbaeed93599c5ae83ebce0c994da3201df8fb808a60c43785ed02ee1b41762264a82d22c68744c8d2f0aa9e125018a9bb20d945f36cba3ad5be110539d8ad6961c65893b9c1c34d8ff9df6583f3a3f4992301ddad31202d2a93136170a3eb8d3e6626e4090c4bf7d05259425be775a27852abfcef12c6c3fd77c9b71ebe7bd9db85423449c1928a2bd9190a0ee20410ee0d0edba5769fbfeb99af1d846ba6b8a5295a39cb1727bb6495a2203fff0f97a749275b5016dd13bf6c18d15a9ebc1d3d86f133e0efbaa8f536f592ec8ee09c8215277135def1a7be9e1d2c34fd6ccbaf680be479ff8df0233f852d82bc3f8f6954264d96df153de1ad20fb93e82f416d9909709086ac85a9f9e1ce5f40bfa5f2c5fd87d37bea2711e44b142679acd9023bb27ec2d823a7d3d5abcac258f1fe26c9c6043cecd8ee83fb3b4badf71abace387452e9f9e1e935ee4c236595a6b72e73405c2e8657cd8393154943e1834a3746088f95242a8f686f2265dbcfcef96d4567a4dfcf4b400136ddeeb08ea32bd0a8042b00b61b86e13d36d00f61bf955f0fc61abb27ef6f4ab8c734fc543c754f31be0617326fb5db35696cf9409d8cded7ed8c279a6de93a782a62450df8e00db03d87d8ab0c5f6f226881cf4a50bb49b64a99daacd3d254a2e9d157c0b344ec24cae94582236641a6266db5b3b428382eacc37cf37f9b2b9773b9a199fece0000cfa049f46889cd1f01bdd15d2ed297cdfa83bb22eb852f677b7086050ee6bc7c51f925ff4a1ce43769378565451d0f4dd07dc9833737a4c2d88ba243b8cb32ce215782ae02c8b237e7b0eff5dabdba4f95e3fdca9558b12e0dca8197bdb0c360d22cdaa23dcfe886909aaeaecca8909aa23c56692c2f7bc63d7499117526acb9c3aa2971431b2fd5dc9d51c80f778d905be866fa3893683595a4fec29f4f4166be305bce4c19358d4fa57687612201e9b240bce236fc05a8496a6a1db981d52b7861ba5ce58d05248597048274b804cd4a5d3581217449e54fd701dac818a272c85bdc6ecc72762dffc2576e27cae05d3566ceb3b721aa6c9fe895b6ab8e56967124b0e70923599084bf75c51427e5b88ec4bc1f8e6b5135788a8eee8c42469612654cb57d4d3b4702b4e6647fec4c203e8c457dafc2b1cf3aaeb7216026ed8e0c39b4c1275e0c37ed928250ca061a391f713c2cc0f50c8112c5a41257331a2448012e10f4549aa2d1cf5953900a63c7f1fbc27b46973927f85561c061258f84bacb86404a9cb3c1d5a29416b49f034ed9812a3d28db3bb3093c98d69f74c4bcdf8edbf98422c09a29196185a76732350812895ac5a3f5d105f90da396c8c9c0dc0282ec90a8abb852d59fb8aeed2294cc58fca106c01fe62e8635f7c86a53a7c87f795b098ec1d72026fe21e13262d5a7015b0c3630e07d9785e1edd038501b2e64a343786c0878ad0a2cd7964ebe932322eaaefe4f259468b5147c4aa5d831e532320cb43c213f6cf5fab1345f1429229fdad4bedf9c6359d7a0a55ea14171834da3b27496afb4b00d2ac398f6cb1cff1af2af6923b0a54a784e54cb13e64ce6bf78dc61a0a19303d6e560e5691f18bea51ef350bac01ac740b90f8458f93444ba3899e0bb083a8e3b8cead5b241c272833454656576369777e81868f92a0a6a8b1d4d8e4e804132a42595e6489a4a6a8deea191d42454e717c7d868793b1b7c6ced1daedf4f606191f2c5464848b98a5b4c9ccce0000000000000000001825394701",
        "0079b973d7e31d1aab9c9f92dbfe8e18259043b577fa4af0d38dc1c89d88204b3ad5ea7931d20be1474fdb0da72e2e4115ddce80ce168520e2c7bff969d0d0a0cd49e330baf3e32e7a1afef77d7244526d20f6ca8daac4cb1a619536e473e551fccd057804d62e51b932d78ed8924970015fed2931ae26f75aec97c8e05eaba7d86c6836bf1f18f18cd568eb28715b7c11bc1f30031b8f8989359ebff18814266e48e9a9d45ac48ff40f77010f61c5a335f2a6062cc5ffdde46db69980ee857119270e327cea567c69c929efc45290ee9b2f421a51779cd804e78cfa578fed05534175d37f1f3c313ba39154d56e59a9b9f9a0a87d9d1bb8473ca5494439353377a1dbc27c337aafa7a2f988a4bf1cc26107b83200004ff0faf92533012f89e12e1b5fe41b0d2efb71c1a8e334327c2826665ddaf002d9cb14ac449451230679d6b0d3a03bdf429f2cff38220ef77844fff054c15447f94fd488b1b79dc2f3317516f3687016079684ede34945ff862b3be64bd695aab12ad38f4d9c9e6932aa2d0ee16ec98ee22396427a0889e340090cdae85cf918761e5b8fc73a82f3411131401ec5175a3cbb7926e3c3647213543e7a33510ee84e1b969f7bf8e5053f252bbc76562c82a9fc7d731c4a817e3895f331e1585d5b08aabbabf7d000dc047961482ca9c9fed329cf68fe44e7256a8a8da6e05514bf897ec6ef8265ee90e66dcedc52bb432195a7092e0b4c788589f3b2e782489e14ec13866806b69ae0d11d36d3b450920afe63465502fa898e7eef34a2a6ad8a49eaa41ffab6303695ba28267bd91f7f6b151a995830611758f9f43f65b8b027a55b5fe67f7fbf02a71e7e2b546e0d85ffdd9c394df9a8a17edddb5e920b010b62974339643eb7817a15abbfa952014301dccd8a63b249710503cbf5ec813102093380efd5d406483eca5ab6eab7d9ed4a0a818a1d33674aaa18c4160948d67a376787e549997e318d9574342e2dbf5b4af89f1918f569f3af3e8598c50dff4cd3bd35cab47cb59778f30ad756ea7eb162c58cf52eebf58e195e66da6704ec51ce9fab9e4a49a2c5141aa927aa9e342feff4958237176c09e3de111d159c1f835285956171ef86fe652660837fccbc414163c7305225225bb037c96cfdf7c2539a68c723319a6f109c617ba7aa2cb5d484aa3c699cf2a4613183c095b8131b62ae98ea464645687b257c5b8a5b4853794e0f30cf98e627163e8927b46d88d4c1dfde6bec102fe94b478695f40e38883c489d79f6755dbd05eb61c3798fbeecefc078628a8a42bb5768ec5883c167336a7d13e763ad68d9e5c71566e317bfabbbd48df00e9ff85487624bfed0dc3290dfb28da0e9fc2a538448c82b5ee660f75a2bcddce892e4d0e8da6919ebac64dd52538a1567e7bcdc3e38f3ad471ca39c65234e7352cac4b55a6a7955c9d56b401bd536ad40160557be99a11b4ad6caef6127925ce63fcc70b115fb519dc73db1cb7a3e3581e35e74e53cf7bd0594882d8f306edcc3f11049ad4d626c5338bb781be941ae2d47f136f2e7988c82581942695b7c6f64dcd026d836d19f19cae2a76918796a0341b84529b71b699040aecd76e3e96779efabd575847b55e3af184d9afbfe68e9a7e5fc0b7af104e0f58d492a4c126ea1d4453e149bc05b4c922cae52965b86af82d2871da938ad5a83f49677268494321e7cf349291fa3157dc1f3bac969f70a45d8dd744fb12483818d1d5273a07b4a70fe6a83d161a0f54da8b15fab4ce2b9343381211670c67da43d5197ecb7205da40a3dff22020e0d11cf166d5af1027f03b041ccbb00cfd84782fe04fbfd79a49e54788c926f14c7"
      ],
      "sequence": 4294967294
    }
  ],
  "vout": [
    {
      "value": 499970.5099,
      "n": 0,
      "scriptPubKey": {
        "asm": "1 6b684ed44c1faffbd1038d78e35eb6561ffd2f0443cc724824342350654b87b2",
        "hex": "51206b684ed44c1faffbd1038d78e35eb6561ffd2f0443cc724824342350654b87b2",
        "reqSigs": 1,
        "type": "witness_v1_scripthash",
        "addresses": [
          "3QJmnh"
        ]
      }
    },
    {
      "value": 1.0,
      "n": 1,
      "scriptPubKey": {
        "asm": "OP_RETURN 79cfea014e9efa168afb05b1cca47c9f22e5778f3f652006a895232631dffec6 5a3b5dcc865cc028963bb648c9993211b934ae22f89d166977ec84608672766c7a1b7deca67ce008b61b9668e9b9123199148e02d8bd364957cca440a652564c1a7b1d8cc61c8068d67bf60889d97251f974ee62b8dd562937acc420c632362c3a5b3dace63ca048f65bd628a9f95271d954ce4298fd7609178ce400e612160cdabbdd4c06dc40a816bb36c84919b29139b42ea2781d96e9f76c04e006f2f6ecfa9bfd6c26fc6088369b16e8693992b119940e82583db6c9d74c24c026d2d6cc9afb9d0c469c00e856fb76880959f2d179f46ee2385dd6a9b72c44a046b2b6acbadbbd2c66bc20c876db56a82979d2f159d44ec2187df689970c64806692968c5a3b5dcc865cc028963bb648c9993211b934ae22f89d166977ec84608672766c7a1b7deca67ce008b61b9668e9b9123199148e02d8bd364957cca440a652564c1a7b1d8cc61c8068d67bf60889d97251f974ee62b8dd562937acc420c632362c3a5b3dace63ca048f65bd628a9f95271d954ce4298fd7609178ce400e612160cdabbdd4c06dc40a816bb36c84919b29139b42ea2781d96e9f76c04e006f2f6ecfa9bfd6c26fc6088369b16e8693992b119940e82583db6c9d74c24c026d2d6cc9afb9d0c469c00e856fb76880959f2d179f46ee2385dd6a9b72c44a046b2b6acbadbbd2c66bc20c876db56a82979d2f159d44ec2187df689970c64806692968c5a3b5dcc865cc028963bb648c9993211b934ae22f89d166977ec84608672766c7a1b7deca67ce008b61b9668e9b9123199148e02d8bd364957cca440a652564c1a7b1d8cc61c8068d67bf60889d97251f974ee62b8dd562937acc420c632362c3a5b3dace63ca048f65bd628a9f95271d954ce4298fd7609178ce400e612160cdabbdd4c06dc40a816bb36c84919b29139b42ea2781d96e9f76c04e006f2f6ecfa9bfd6c26fc6088369b16e8693992b119940e82583db6c9d74c24c026d2d6cc9afb9d0c469c00e856fb76880959f2d179f46ee2385dd6a9b72c44a046b2b6acbadbbd2c66bc20c876db56a82979d2f159d44ec2187df689970c64806692968c5a3b5dcc865cc028963bb648c9993211b934ae22f89d166977ec84608672766c7a1b7deca67ce008b61b9668e9b9123199148e02d8bd364957cca440a652564c1a7b1d8cc61c8068d67bf60889d97251f974ee62b8dd562937acc420c632362c3a5b3dace63ca048f65bd628a9f95271d954ce4298fd7609178ce400e612160cdabbdd4c06dc40a816bb36c84919b29139b42ea2781d96e9f76c04e006f2f6ecfa9bfd6c26fc6088369b16e8693992b119940e82583db6c9d74c24c026d2d6cc9afb9d0c469c00e856fb76880959f2d179f46ee2385dd6a9b72c44a046b2b6acbadbbd2c66bc20c876db56a82979d2f159d44ec2187df689970c64806692968c5a3b5dcc865cc028963bb648c9993211b934ae22f89d166977ec84608672766c7a1b7deca67ce008b61b9668e9b9123199148e02d8bd364957cca440a652564c1a7b1d8cc61c8068d67bf60889d97251f974ee62b8dd562937acc420c632362c3a5b3dace63ca048f65bd628a9f95271d954ce4298fd7609178ce400e612160cdabbdd4c06dc40a816bb36c84919b2912f0aca5452604ac7b2abc649af34ed26f547d29753e4c7023c8fb72d56372d3c",
        "hex": "6a2079cfea014e9efa168afb05b1cca47c9f22e5778f3f652006a895232631dffec64db0045a3b5dcc865cc028963bb648c9993211b934ae22f89d166977ec84608672766c7a1b7deca67ce008b61b9668e9b9123199148e02d8bd364957cca440a652564c1a7b1d8cc61c8068d67bf60889d97251f974ee62b8dd562937acc420c632362c3a5b3dace63ca048f65bd628a9f95271d954ce4298fd7609178ce400e612160cdabbdd4c06dc40a816bb36c84919b29139b42ea2781d96e9f76c04e006f2f6ecfa9bfd6c26fc6088369b16e8693992b119940e82583db6c9d74c24c026d2d6cc9afb9d0c469c00e856fb76880959f2d179f46ee2385dd6a9b72c44a046b2b6acbadbbd2c66bc20c876db56a82979d2f159d44ec2187df689970c64806692968c5a3b5dcc865cc028963bb648c9993211b934ae22f89d166977ec84608672766c7a1b7deca67ce008b61b9668e9b9123199148e02d8bd364957cca440a652564c1a7b1d8cc61c8068d67bf60889d97251f974ee62b8dd562937acc420c632362c3a5b3dace63ca048f65bd628a9f95271d954ce4298fd7609178ce400e612160cdabbdd4c06dc40a816bb36c84919b29139b42ea2781d96e9f76c04e006f2f6ecfa9bfd6c26fc6088369b16e8693992b119940e82583db6c9d74c24c026d2d6cc9afb9d0c469c00e856fb76880959f2d179f46ee2385dd6a9b72c44a046b2b6acbadbbd2c66bc20c876db56a82979d2f159d44ec2187df689970c64806692968c5a3b5dcc865cc028963bb648c9993211b934ae22f89d166977ec84608672766c7a1b7deca67ce008b61b9668e9b9123199148e02d8bd364957cca440a652564c1a7b1d8cc61c8068d67bf60889d97251f974ee62b8dd562937acc420c632362c3a5b3dace63ca048f65bd628a9f95271d954ce4298fd7609178ce400e612160cdabbdd4c06dc40a816bb36c84919b29139b42ea2781d96e9f76c04e006f2f6ecfa9bfd6c26fc6088369b16e8693992b119940e82583db6c9d74c24c026d2d6cc9afb9d0c469c00e856fb76880959f2d179f46ee2385dd6a9b72c44a046b2b6acbadbbd2c66bc20c876db56a82979d2f159d44ec2187df689970c64806692968c5a3b5dcc865cc028963bb648c9993211b934ae22f89d166977ec84608672766c7a1b7deca67ce008b61b9668e9b9123199148e02d8bd364957cca440a652564c1a7b1d8cc61c8068d67bf60889d97251f974ee62b8dd562937acc420c632362c3a5b3dace63ca048f65bd628a9f95271d954ce4298fd7609178ce400e612160cdabbdd4c06dc40a816bb36c84919b29139b42ea2781d96e9f76c04e006f2f6ecfa9bfd6c26fc6088369b16e8693992b119940e82583db6c9d74c24c026d2d6cc9afb9d0c469c00e856fb76880959f2d179f46ee2385dd6a9b72c44a046b2b6acbadbbd2c66bc20c876db56a82979d2f159d44ec2187df689970c64806692968c5a3b5dcc865cc028963bb648c9993211b934ae22f89d166977ec84608672766c7a1b7deca67ce008b61b9668e9b9123199148e02d8bd364957cca440a652564c1a7b1d8cc61c8068d67bf60889d97251f974ee62b8dd562937acc420c632362c3a5b3dace63ca048f65bd628a9f95271d954ce4298fd7609178ce400e612160cdabbdd4c06dc40a816bb36c84919b2912f0aca5452604ac7b2abc649af34ed26f547d29753e4c7023c8fb72d56372d3c",
        "type": "nulldata"
      }
    }
  ],
  "blockhash": "f7496688ea8085f6c88d1199f2534797ba9d5c262af7501e5ddf271dd00b2202",
  "confirmations": 1,
  "time": 1764181480,
  "blocktime": 1764181480
}