{
  "hex": "010000000001010f724f35587c65af3686df5f0c2b7d31db1f62366cb4eb31ef325a5cad8279aa0000000000feffffff02e021231b792d00002251208884cc51a007c1cbecd32c8a1b1cd72a16676bcf933a4d2a53670e3b0f51d4f900e1f50500000000fdd5046a20591cbbb7cce27bc1d6d4bbfd4c86e967e42d9826a654840fba7aa1571fe6bdc04db0042e07b5053a1b48db97dc0118a9fe1b626e4d527fffdfc11e324f7d027a97571f0e2795251a3b68fbb7fc213889de3b424e6d725fdfffe13e126f5d225ab7773f6e47f5457a5b089bd79c4158e9be5b222e0d123fbf9f815e720f3d423ad7175f4e67d5655a7b28bbf7bc6178c99e7b020e2d321f9fbfa17e522f1d621af7377fae873585ba9bc85b175c8198297e9be2eecdd2ff7f5f419eb2cffd82fa17d79f8ea715a59abbe87b377ca1b8095ebbc2ceedf2df5f7f61be92efdda2da37f7bfeec775c5fadb881b571cc1d8693edba2ae8d92bf3f1f01def28fbdc2ba5797dfcee755e5dafba83b773ce1f8491efb828eadb29f1f3f21fed2af9de29a77b7ff2e07b5053a1b48db97dc0118a9fe1b626e4d527fffdfc11e324f7d027a97571f0e2795251a3b68fbb7fc213889de3b424e6d725fdfffe13e126f5d225ab7773f6e47f5457a5b089bd79c4158e9be5b222e0d123fbf9f815e720f3d423ad7175f4e67d5655a7b28bbf7bc6178c99e7b020e2d321f9fbfa17e522f1d621af7377fae873585ba9bc85b175c8198297e9be2eecdd2ff7f5f419eb2cffd82fa17d79f8ea715a59abbe87b377ca1b8095ebbc2ceedf2df5f7f61be92efdda2da37f7bfeec775c5fadb881b571cc1d8693edba2ae8d92bf3f1f01def28fbdc2ba5797dfcee755e5dafba83b773ce1f8491efb828eadb29f1f3f21fed2af9de29a77b7ff2e07b5053a1b48db97dc0118a9fe1b626e4d527fffdfc11e324f7d027a97571f0e2795251a3b68fbb7fc213889de3b424e6d725fdfffe13e126f5d225ab7773f6e47f5457a5b089bd79c4158e9be5b222e0d123fbf9f815e720f3d423ad7175f4e67d5655a7b28bbf7bc6178c99e7b020e2d321f9fbfa17e522f1d621af7377fae873585ba9bc85b175c8198297e9be2eecdd2ff7f5f419eb2cffd82fa17d79f8ea715a59abbe87b377ca1b8095ebbc2ceedf2df5f7f61be92efdda2da37f7bfeec775c5fadb881b571cc1d8693edba2ae8d92bf3f1f01def28fbdc2ba5797dfcee755e5dafba83b773ce1f8491efb828eadb29f1f3f21fed2af9de29a77b7ff2e07b5053a1b48db97dc0118a9fe1b626e4d527fffdfc11e324f7d027a97571f0e2795251a3b68fbb7fc213889de3b424e6d725fdfffe13e126f5d225ab7773f6e47f5457a5b089bd79c4158e9be5b222e0d123fbf9f815e720f3d423ad7175f4e67d5655a7b28bbf7bc6178c99e7b020e2d321f9fbfa17e522f1d621af7377fae873585ba9bc85b175c8198297e9be2eecdd2ff7f5f419eb2cffd82fa17d79f8ea715a59abbe87b377ca1b8095ebbc2ceedf2df5f7f61be92efdda2da37f7bfeec775c5fadb881b571cc1d8693edba2ae8d92bf3f1f01def28fbdc2ba5797dfcee755e5dafba83b773ce1f8491efb828eadb29f1f3f21fed2af9de29a77b7ff2e07b5053a1b48db97dc0118a9fe1b626e4d527fffdfc11e324f7d027a97571f0e2795251a3b68fbb7fc213889de3b424e6d725fdfffe13e126f5d225ab7773f6e47f5457a5b089bd79c4158e9be5b222e0d123fbf9f815e720f3d423ad7175f4e67d5655a7b28bbf7bc6178c99e7b020e2d321f9fbfa17e522f1d621af7377fae873585ba9bc85b175c8198297e9be2d5bd40a518ea892e62fe266ace3c2fe42375389211a3ee6b9d483ab1a85e348002fd7509fdaff90e76b797ae535a309654afb3fa6b87abfe092c9e8904244fd34fa64cfe66c25e408ee8a77f293131dda02ba41d6c325bf0a83a0be96e76b0c5ca9c1a32c5388153719c486816ec1bd9bdd0130508cb75ac85e76fffbff664322fcf9a7d9c2ddbb4c3c823e227ec722cdc0a3b482c8f320a8c41151cfb95cd34f29df3b6248ac99276a3deedb84ee0daab5247f23b7de20946dfbb18ac939eb4bc95470495d560e94f2e287ffd9228d617bbe96657c1377fe9c4645ba613ab8516cae76f05e2acd657394c424c46461b2c5ecfff82c7efe418edaa8d699a6635ac04b72d9f53d8f4b5cb88d54481cf74207e00138ff038027752f21f3a3ecb98ffe748d3f2e46ae42937fc3d343f195b802fba4ed7cb17d04b8604732024123587fe4fb4dd1f84d4528b234f1fbba251a385c7be5a650092c3c4dd60238faa9df02ea75621c713bc0ae3a887179c93ccbebca6465b139ab076871a10a52b7d51cce98b752303968c0c2492e27efe67a1ed9970ab536fb8d5ff68a727e29910d1e18a547601407ddcb354b5e419926cddd3ee462236790eb99112be7e1cb76267ad9a10c09e78b91ba473b203281c118f3394e4c2990497aef21aa0d05f72d6005df425472a664cb3f1a480753115994ea0d619628228ccbf2dd879ae29bddd0d003eb38ed37a8d6ead5e938b4f04c01e747fd86da28e963d10e86cbcf7fef93adaa0a265e91857a0d6e5d4b66e0bb8e9c1f22dec0316a2dc7050904b13e356275bae4392934012740d12ae0d4c0b738412af57772a7d07971dd0c952f64e6c6ba7eb4ef5e9e5d1893f0b8ab36705e70df55cd6c4dd2d621b7451196807f1e0f56ab055c044eb5000148a337e19062f160506ad33e06ad6f701ad0f2cb9030ad2b7634f2a5ebf77e8b52ef5a5e545a0caff1c2a8612f1abfa68ce58703069e08a9fd156f1af59e76819d5794c97768ed1a48d4962a261aa6353a820f483d6fbcbeb37db66fda4652266d2362e6552f175571be611ca32dde36ff27393dce67347d0ed315ad848c7dac02242b1d47b403619ea4b298c9b165fa8c7c6600b6ae8fb8af1723efa70edf3ca9bddb41e7f97fb7d2c9709a0111f6439bfe610884c8077f6076f8a3b2f94f174d952db3cdb228cd33337bee341a3fb80ddfa9e48ae2a22fc67a664f7a7e28623245dd246070ea8c5cab31ff7b279d2bf8eb6a3280edc9c8a22835d9710a6593674d9f14d1f60a6bcfc1eb6fc8f8a47f2ddf4561c992a84238031c3d51452830f4fef39fdf617a774b23fb3a60f27a0e259b264efc901e387d4d691411a8a406878a9ac6a417c9ff6c2c90585ab5b97a0fdec4f368de450771e543a9865293a28f0c624acc6bfe4de5dfcc90dfd749440be1d061ad5363a87a5b893eba5548269f7f2347c2590bcb6d38c6af0866bc7cafb7d34768aec53c46d4eb094bfd2731f5eed8dd757021a72ad5060d704f79f50b5ad5b284b97c86602bd747164a137334a9c11a3df9e3e63606eda18a760a209d574c9aab776acee124749f9c17f44f113325ea9e420225f22edf53bdb52f7f25dd9132a3e9e2fa64eb6198318205259106dfb0b6557e55facf9b4baa6c5a1ab6ad6ccecfd0239f6f713c7b8b8e7750678c0fc4b29a0062a8e4ab57ca9b8a36f03ac5518e0605b554d3d81b68dec6b29c899880165090a28b0682a16b022a656a3561f2808f0dfe0b823de9e6b9c04e192cc16f59603dc9f976f83d302fe8be8ffdc585af8e5be646f218376ce4d77c21eec015d4608b736fb6b72fb974b9593b641acd063e55c2b29fb1d87cefcddcc5ac30539ea83c231b6d06684df4fd67502a23f0520f6b73324e9b6b3beb9418953f3803ed12fd98ea9bfaab501a203b6471e7974ad33c85013dd955935606b7842ee74c018f3c7ea5bd1a710bc1b14a874622fd3243234276051421507033e998529a635c3662ffb9b897b6566b49001c680f8f494883b443810bbe0ab6c3731038e49e8e158122e7d07d691d0578473bfe8f2d7c118a1c6e2864d82c232ee4329a210fd5e1e34a30a75f3470a9785b95b5e151dc13d8cbb0f44580a665ff4baece36f07be5fffc09389b175f531ac4854c943f6e383b34d66e9b8082d8b344afb90022180a90fa3cc78d54567f88adc14664f2406bf400e7633d509f26f11db91ca10dc9186c123122c3a53fa0026fde16db20e160d3dd402e2b05b761084637909bfc011128e068901abb9fda333615a53f0d4ba4dec091f49a5d4a54df0452afdf2d1d68cd9a0413d1cba6fa0322c2aefe36b60e9c13fc7cf0ccbf1daf6e9e07d934fc10348255322d3a822e2d99a3e3f6789f5c254ccf10a518584dbea73a5f7e2a3478070a84f1c6dae634ba34e284c86dee3c341f27c0883e4d27b0cf317ed675f60c86d4c03365d61c28506de4714433c88c546b180424f1c7a68f44864ce52502b2ae5fda1fb9b4c4c9c744de32bca82ce353c11ce990b769292a31dbb30131de265485e47cfa0704b7c4d24c49f5cdee46e88f880edd86a5ee7383d7628943c890aa1675f2207c9d6b2fe27a0ab52a6e30a5488827bf687497be63ca345c4a1c6100549f33c9939b7f8ea680c04f748984a50c8e2e1d9c0f523741797b72710659cdd9ebed787db45e1d4e9b32cc3b5b8b5f7c43030dc2a19c90d4370ad0e4121ebf40dba5e7867740b43111365bab3eac4a44a004d31d763fbfb6a7e45951f80c2994246f092e0d5efb26888e871cd6156a7b8cefe42aabf5c1c3e8d87bd2e435edf355bd78e8dfa97430989fc7d86754b09fc20730ff0c05cf98a200c19776b5524a76df3315ed9c86bfe27ff30390867de832ad1a4faca4c1b36ee129d1f2499e90f17a966e34a7903c3484737fc4a7253e1e691e8bbfe1b04610f88d9321fcb80eb14bcdd81ee41b3b62fcb305f076e63b3a2a1923f2fdb735746320507b1304eab6002fca302380917776fd100fa0f8c65b46b35c8accc63a676ce015878135cf341b3f21a9940dfde07de38ab939a49031e70d225cdd63245d214f39c63836f983ed41514d6f59acb6beba6821accd4bfe48b56a5912261e118eb1963411611ef00137f60aa0c611f99b50019d1c46ae3ee22d14ec87f132dfd0c5cbcb49d351ee823d0d6649fa153ec2052aeaead2ec9bfdb196a7abc7a79363a104dd4523db325447eb55d4b457b8e9e251d66c38a1016ccac62abb60994e59466060b043862fbced2ac73f1395c113556fe175f62d12ffd38f39ef37ae9783903eed73ec528a982ecef0b05b39165aa6dac63b327eb578741161a1d202c3d46496c7e9fa3aeb6d4d7ddf10a1260636a72878e9b9ea2b5d3e2f001040c147a819da9bbd3dadfe01d253543484a4b4e7079b6b9d0d4d6d7fa000000000000000000000000000000000012212e3f01fd210500685a41b2cada03dda77ba698d82617148b65bebf0ab02b64dec4d87fb796c6562c2ed46e8f3ff8e57d6bac0cddddd7bc2d8cf8996e2900e3b72651f08948da6aeb187a04b40ec0a11cb48def1672c93a5bea0f9a99ab579317b0273b102d3953d9ee7b7c0459b698ba35abb19c443a72f63fa4d498db701ca514b540d4e60a8452f8b428fae91a27498fc45c973dd817fe3a8312ec8e84342a663eb7619474eef54df7d49b629d5fa4411e0cb2df90374f906c038edaf494d632f39efee4b7acf3ed945d0e0172c155f30943e51130677395f57229700e49c23478b44ee71446f70a1c5b55e8c6499d38c2053ef473f28a3cb2d5e84959ba01c00560fab6e681053478739c4a0cf138dfdbd22126868bbf33f418c30eb7b3752461fba37ebbc78eaeca3ddf1cf02f6f435750132191fab9e55582e6049ef1471d08da01e3c5e4c8c4b4cd9cdeb34acdc39cc380a821eab1dcc646ae715e579c74fb77c29cc7138f28ee9b28277cf02e2ef7bb87f906300bc5b04da8c2b77715915b065fcb62309d2a34bf35cac7cf0fd385fe3652f959d7ec967014a582d57ad6bcc5d926b28e23285b3b03e377b3f2b43f6365f81efa3b7e9f35f7b51c72f7cfa11ab526a38c307f7897f045af090fa13f06333e536ab0b3f40e79c115211cfefdd3051dd49f1eea616715822c3dc47b463e5c20683a1426492b68eea54b7b9e79f5322a49cff852763627b8858c5dfa3fdd239a8ef46f8545cbee38e36ec2e741cf10dfb39fedf00b996312957f9b137079c0e9a681dee27a4d8a6862f19febc6dfbd2cf521ccb991305444804e81b2f9c808d0bf3ebcf0a1a7ed197705d9cea1b910e09f8d0f02c1d3a96fdccb8038d9d254bb5670fa9f4f7aad8f4b49a33bfccb89e16e5c4e3575d7c1ff8c5d587b7d2578056c7cd2d1ac7f2bfa234e4e32e94aa210c8c20a9297514bd7afb92a543ef00f55220d64af54859c26ed6616f33b05a76c4367a8afbea19ba3c190d74972ab886be393ce0fd3220e8f192955cab3d0c83c4ca7cf0addea467bd606447752bc07d6487054200c03fa6900f8c896b466775331df4c01a6611bb7e7a439535ef2851731f7a829b46075fc8dfada0885f3fd8adcdea77e00a6a3bf351a6b97569fbe8543cb5e75ff7769cc8f2ea81d4fa4b4314cd29a1d1f16acc8170dea12b52f97de7cb7e687ca54c7dcec19b926df478d454f1fb18fa3d5764337447e078dd365bbcf1708dd1b1320126f9c43865b23b8c141f38c6d8f92638609351c588a7be732333a783c868a5dd440f2874eb5dff31275776122a6daf86c0ae87c69dd6b66a9c89489da1fa19796040d6bd4f855e5ccdd05ced51503e9183a0e5ebe6de29b2f3288001f1a21617445bbfc007191f34eae0c4b3666bf6b82c5f7487ea0ca402c5282365a6e093e7b74c0d8ddc3ab228356e11927748cdd17a2c0298e5a3a7773aa4d24ec0fb4aad63c998dedad59b6cd4dc669095142f8168e8e7c9f81724df8cdce72b5097d8d0a43c65ce14edadd588a42cef3abfba59da6ef6b07c24025c49d9499aa26e6ccb13b4ff99df8c9982436cc9b26febdd94759fd17c9a2e1477ae7ec57e5edac80ecba5ef076cf69e1370311e6956392a5df15200559349103defb8f78266f242f933477bb6f64bde63178e1165492cd51969429aa03e97575bcf16390cfbe8031377c750e5423e555807c7fa34a17a8bf56ce6a8b636d17ff7e39efcdfe65ecc0d288b4fcf34685a574df6cf281462ada0eb7839e36fe27139f47b5a84e9a100b00c69d7f5034c5717535543a1a7b28e2a13d87924111c34bf56447e69b0ae3b750238a534f209fddcb1b9273000000",
  "txid": "239a4957758c50494794669cae0095baddcaa22b69ffee498df08578f0c162f9",
  "hash": "9c85805b7e5262aaf826ab55fdbafaaec29558643cb2add09b2ebbe11421a9f1",
  "size": 5085,
  "vsize": 2278,
  "version": 1,
  "locktime": 115,
  "vin": [
    {
      "txid": "aa7982ad5c5a32ef31ebb46c36621fdb317d2b0c5fdf8636af657c58354f720f",
      "vout": 0,
      "scriptSig": {
        "asm": "",
        "hex": ""
      },
      "txinwitness": [
        "fdaff90e76b797ae535a309654afb3fa6b87abfe092c9e8904244fd34fa64cfe66c25e408ee8a77f293131dda02ba41d6c325bf0a83a0be96e76b0c5ca9c1a32c5388153719c486816ec1bd9bdd0130508cb75ac85e76fffbff664322fcf9a7d9c2ddbb4c3c823e227ec722cdc0a3b482c8f320a8c41151cfb95cd34f29df3b6248ac99276a3deedb84ee0daab5247f23b7de20946dfbb18ac939eb4bc95470495d560e94f2e287ffd9228d617bbe96657c1377fe9c4645ba613ab8516cae76f05e2acd657394c424c46461b2c5ecfff82c7efe418edaa8d699a6635ac04b72d9f53d8f4b5cb88d54481cf74207e00138ff038027752f21f3a3ecb98ffe748d3f2e46ae42937fc3d343f195b802fba4ed7cb17d04b8604732024123587fe4fb4dd1f84d4528b234f1fbba251a385c7be5a650092c3c4dd60238faa9df02ea75621c713bc0ae3a887179c93ccbebca6465b139ab076871a10a52b7d51cce98b752303968c0c2492e27efe67a1ed9970ab536fb8d5ff68a727e29910d1e18a547601407ddcb354b5e419926cddd3ee462236790eb99112be7e1cb76267ad9a10c09e78b91ba473b203281c118f3394e4c2990497aef21aa0d05f72d6005df425472a664cb3f1a480753115994ea0d619628228ccbf2dd879ae29bddd0d003eb38ed37a8d6ead5e938b4f04c01e747fd86da28e963d10e86cbcf7fef93adaa0a265e91857a0d6e5d4b66e0bb8e9c1f22dec0316a2dc7050904b13e356275bae4392934012740d12ae0d4c0b738412af57772a7d07971dd0c952f64e6c6ba7eb4ef5e9e5d1893f0b8ab36705e70df55cd6c4dd2d621b7451196807f1e0f56ab055c044eb5000148a337e19062f160506ad33e06ad6f701ad0f2cb9030ad2b7634f2a5ebf77e8b52ef5a5e545a0caff1c2a8612f1abfa68ce58703069e08a9fd156f1af59e76819d5794c97768ed1a48d4962a261aa6353a820f483d6fbcbeb37db66fda4652266d2362e6552f175571be611ca32dde36ff27393dce67347d0ed315ad848c7dac02242b1d47b403619ea4b298c9b165fa8c7c6600b6ae8fb8af1723efa70edf3ca9bddb41e7f97fb7d2c9709a0111f6439bfe610884c8077f6076f8a3b2f94f174d952db3cdb228cd33337bee341a3fb80ddfa9e48ae2a22fc67a664f7a7e28623245dd246070ea8c5cab31ff7b279d2bf8eb6a3280edc9c8a22835d9710a6593674d9f14d1f60a6bcfc1eb6fc8f8a47f2ddf4561c992a84238031c3d51452830f4fef39fdf617a774b23fb3a60f27a0e259b264efc901e387d4d691411a8a406878a9ac6a417c9ff6c2c90585ab5b97a0fdec4f368de450771e543a9865293a28f0c624acc6bfe4de5dfcc90dfd749440be1d061ad5363a87a5b893eba5548269f7f2347c2590bcb6d38c6af0866bc7cafb7d34768aec53c46d4eb094bfd2731f5eed8dd757021a72ad5060d704f79f50b5ad5b284b97c86602bd747164a137334a9c11a3df9e3e63606eda18a760a209d574c9aab776acee124749f9c17f44f113325ea9e420225f22edf53bdb52f7f25dd9132a3e9e2fa64eb6198318205259106dfb0b6557e55facf9b4baa6c5a1ab6ad6ccecfd0239f6f713c7b8b8e7750678c0fc4b29a0062a8e4ab57ca9b8a36f03ac5518e0605b554d3d81b68dec6b29c899880165090a28b0682a16b022a656a3561f2808f0dfe0b823de9e6b9c04e192cc16f59603dc9f976f83d302fe8be8ffdc585af8e5be646f218376ce4d77c21eec015d4608b736fb6b72fb974b9593b641acd063e55c2b29fb1d87cefcddcc5ac30539ea83c231b6d06684df4fd67502a23f0520f6b73324e9b6b3beb9418953f3803ed12fd98ea9bfaab501a203b6471e7974ad33c85013dd955935606b7842ee74c018f3c7ea5bd1a710bc1b14a874622fd3243234276051421507033e998529a635c3662ffb9b897b6566b49001c680f8f494883b443810bbe0ab6c3731038e49e8e158122e7d07d691d0578473bfe8f2d7c118a1c6e2864d82c232ee4329a210fd5e1e34a30a75f3470a9785b95b5e151dc13d8cbb0f44580a665ff4baece36f07be5fffc09389b175f531ac4854c943f6e383b34d66e9b8082d8b344afb90022180a90fa3cc78d54567f88adc14664f2406bf400e7633d509f26f11db91ca10dc9186c123122c3a53fa0026fde16db20e160d3dd402e2b05b761084637909bfc011128e068901abb9fda333615a53f0d4ba4dec091f49a5d4a54df0452afdf2d1d68cd9a0413d1cba6fa0322c2aefe36b60e9c13fc7cf0ccbf1daf6e9e07d934fc10348255322d3a822e2d99a3e3f6789f5c254ccf10a518584dbea73a5f7e2a3478070a84f1c6dae634ba34e284c86dee3c341f27c0883e4d27b0cf317ed675f60c86d4c03365d61c28506de4714433c88c546b180424f1c7a68f44864ce52502b2ae5fda1fb9b4c4c9c744de32bca82ce353c11ce990b769292a31dbb30131de265485e47cfa0704b7c4d24c49f5cdee46e88f880edd86a5ee7383d7628943c890aa1675f2207c9d6b2fe27a0ab52a6e30a5488827bf687497be63ca345c4a1c6100549f33c9939b7f8ea680c04f748984a50c8e2e1d9c0f523741797b72710659cdd9ebed787db45e1d4e9b32cc3b5b8b5f7c43030dc2a19c90d4370ad0e4121ebf40dba5e7867740b43111365bab3eac4a44a004d31d763fbfb6a7e45951f80c2994246f092e0d5efb26888e871cd6156a7b8cefe42aabf5c1c3e8d87bd2e435edf355bd78e8dfa97430989fc7d86754b09fc20730ff0c05cf98a200c19776b5524a76df3315ed9c86bfe27ff30390867de832ad1a4faca4c1b36ee129d1f2499e90f17a966e34a7903c3484737fc4a7253e1e691e8bbfe1b04610f88d9321fcb80eb14bcdd81ee41b3b62fcb305f076e63b3a2a1923f2fdb735746320507b1304eab6002fca302380917776fd100fa0f8c65b46b35c8accc63a676ce015878135cf341b3f21a9940dfde07de38ab939a49031e70d225cdd63245d214f39c63836f983ed41514d6f59acb6beba6821accd4bfe48b56a5912261e118eb1963411611ef00137f60aa0c611f99b50019d1c46ae3ee22d14ec87f132dfd0c5cbcb49d351ee823d0d6649fa153ec2052aeaead2ec9bfdb196a7abc7a79363a104dd4523db325447eb55d4b457b8e9e251d66c38a1016ccac62abb60994e59466060b043862fbced2ac73f1395c113556fe175f62d12ffd38f39ef37ae9783903eed73ec528a982ecef0b05b39165aa6dac63b327eb578741161a1d202c3d46496c7e9fa3aeb6d4d7ddf10a1260636a72878e9b9ea2b5d3e2f001040c147a819da9bbd3dadfe01d253543484a4b4e7079b6b9d0d4d6d7fa000000000000000000000000000000000012212e3f01",
        "00685a41b2cada03dda77ba698d82617148b65bebf0ab02b64dec4d87fb796c6562c2ed46e8f3ff8e57d6bac0cddddd7bc2d8cf8996e2900e3b72651f08948da6aeb187a04b40ec0a11cb48def1672c93a5bea0f9a99ab579317b0273b102d3953d9ee7b7c0459b698ba35abb19c443a72f63fa4d498db701ca514b540d4e60a8452f8b428fae91a27498fc45c973dd817fe3a8312ec8e84342a663eb7619474eef54df7d49b629d5fa4411e0cb2df90374f906c038edaf494d632f39efee4b7acf3ed945d0e0172c155f30943e51130677395f57229700e49c23478b44ee71446f70a1c5b55e8c6499d38c2053ef473f28a3cb2d5e84959ba01c00560fab6e681053478739c4a0cf138dfdbd22126868bbf33f418c30eb7b3752461fba37ebbc78eaeca3ddf1cf02f6f435750132191fab9e55582e6049ef1471d08da01e3c5e4c8c4b4cd9cdeb34acdc39cc380a821eab1dcc646ae715e579c74fb77c29cc7138f28ee9b28277cf02e2ef7bb87f906300bc5b04da8c2b77715915b065fcb62309d2a34bf35cac7cf0fd385fe3652f959d7ec967014a582d57ad6bcc5d926b28e23285b3b03e377b3f2b43f6365f81efa3b7e9f35f7b51c72f7cfa11ab526a38c307f7897f045af090fa13f06333e536ab0b3f40e79c115211cfefdd3051dd49f1eea616715822c3dc47b463e5c20683a1426492b68eea54b7b9e79f5322a49cff852763627b8858c5dfa3fdd239a8ef46f8545cbee38e36ec2e741cf10dfb39fedf00b996312957f9b137079c0e9a681dee27a4d8a6862f19febc6dfbd2cf521ccb991305444804e81b2f9c808d0bf3ebcf0a1a7ed197705d9cea1b910e09f8d0f02c1d3a96fdccb8038d9d254bb5670fa9f4f7aad8f4b49a33bfccb89e16e5c4e3575d7c1ff8c5d587b7d2578056c7cd2d1ac7f2bfa234e4e32e94aa210c8c20a9297514bd7afb92a543ef00f55220d64af54859c26ed6616f33b05a76c4367a8afbea19ba3c190d74972ab886be393ce0fd3220e8f192955cab3d0c83c4ca7cf0addea467bd606447752bc07d6487054200c03fa6900f8c896b466775331df4c01a6611bb7e7a439535ef2851731f7a829b46075fc8dfada0885f3fd8adcdea77e00a6a3bf351a6b97569fbe8543cb5e75ff7769cc8f2ea81d4fa4b4314cd29a1d1f16acc8170dea12b52f97de7cb7e687ca54c7dcec19b926df478d454f1fb18fa3d5764337447e078dd365bbcf1708dd1b1320126f9c43865b23b8c141f38c6d8f92638609351c588a7be732333a783c868a5dd440f2874eb5dff31275776122a6daf86c0ae87c69dd6b66a9c89489da1fa19796040d6bd4f855e5ccdd05ced51503e9183a0e5ebe6de29b2f3288001f1a21617445bbfc007191f34eae0c4b3666bf6b82c5f7487ea0ca402c5282365a6e093e7b74c0d8ddc3ab228356e11927748cdd17a2c0298e5a3a7773aa4d24ec0fb4aad63c998dedad59b6cd4dc669095142f8168e8e7c9f81724df8cdce72b5097d8d0a43c65ce14edadd588a42cef3abfba59da6ef6b07c24025c49d9499aa26e6ccb13b4ff99df8c9982436cc9b26febdd94759fd17c9a2e1477ae7ec57e5edac80ecba5ef076cf69e1370311e6956392a5df15200559349103defb8f78266f242f933477bb6f64bde63178e1165492cd51969429aa03e97575bcf16390cfbe8031377c750e5423e555807c7fa34a17a8bf56ce6a8b636d17ff7e39efcdfe65ecc0d288b4fcf34685a574df6cf281462ada0eb7839e36fe27139f47b5a84e9a100b00c69d7f5034c5717535543a1a7b28e2a13d87924111c34bf56447e69b0ae3b750238a534f209fddcb1b92"
      ],
      "sequence": 4294967294
    }
  ],
  "vout": [
    {
      "value": 499981.6958,
      "n": 0,
      "scriptPubKey": {
        "asm": "1 8884cc51a007c1cbecd32c8a1b1cd72a16676bcf933a4d2a53670e3b0f51d4f9",
        "hex": "51208884cc51a007c1cbecd32c8a1b1cd72a16676bcf933a4d2a53670e3b0f51d4f9",
        "reqSigs": 1,
        "type": "witness_v1_scripthash",
        "addresses": [
          "3QJmnh"
        ]
      }
    },
    {
      "value": 1.0,
      "n": 1,
      "scriptPubKey": {
        "asm": "OP_RETURN 591cbbb7cce27bc1d6d4bbfd4c86e967e42d9826a654840fba7aa1571fe6bdc0 2e07b5053a1b48db97dc0118a9fe1b626e4d527fffdfc11e324f7d027a97571f0e2795251a3b68fbb7fc213889de3b424e6d725fdfffe13e126f5d225ab7773f6e47f5457a5b089bd79c4158e9be5b222e0d123fbf9f815e720f3d423ad7175f4e67d5655a7b28bbf7bc6178c99e7b020e2d321f9fbfa17e522f1d621af7377fae873585ba9bc85b175c8198297e9be2eecdd2ff7f5f419eb2cffd82fa17d79f8ea715a59abbe87b377ca1b8095ebbc2ceedf2df5f7f61be92efdda2da37f7bfeec775c5fadb881b571cc1d8693edba2ae8d92bf3f1f01def28fbdc2ba5797dfcee755e5dafba83b773ce1f8491efb828eadb29f1f3f21fed2af9de29a77b7ff2e07b5053a1b48db97dc0118a9fe1b626e4d527fffdfc11e324f7d027a97571f0e2795251a3b68fbb7fc213889de3b424e6d725fdfffe13e126f5d225ab7773f6e47f5457a5b089bd79c4158e9be5b222e0d123fbf9f815e720f3d423ad7175f4e67d5655a7b28bbf7bc6178c99e7b020e2d321f9fbfa17e522f1d621af7377fae873585ba9bc85b175c8198297e9be2eecdd2ff7f5f419eb2cffd82fa17d79f8ea715a59abbe87b377ca1b8095ebbc2ceedf2df5f7f61be92efdda2da37f7bfeec775c5fadb881b571cc1d8693edba2ae8d92bf3f1f01def28fbdc2ba5797dfcee755e5dafba83b773ce1f8491efb828eadb29f1f3f21fed2af9de29a77b7ff2e07b5053a1b48db97dc0118a9fe1b626e4d527fffdfc11e324f7d027a97571f0e2795251a3b68fbb7fc213889de3b424e6d725fdfffe13e126f5d225ab7773f6e47f5457a5b089bd79c4158e9be5b222e0d123fbf9f815e720f3d423ad7175f4e67d5655a7b28bbf7bc6178c99e7b020e2d321f9fbfa17e522f1d621af7377fae873585ba9bc85b175c8198297e9be2eecdd2ff7f5f419eb2cffd82fa17d79f8ea715a59abbe87b377ca1b8095ebbc2ceedf2df5f7f61be92efdda2da37f7bfeec775c5fadb881b571cc1d8693edba2ae8d92bf3f1f01def28fbdc2ba5797dfcee755e5dafba83b773ce1f8491efb828eadb29f1f3f21fed2af9de29a77b7ff2e07b5053a1b48db97dc0118a9fe1b626e4d527fffdfc11e324f7d027a97571f0e2795251a3b68fbb7fc213889de3b424e6d725fdfffe13e126f5d225ab7773f6e47f5457a5b089bd79c4158e9be5b222e0d123fbf9f815e720f3d423ad7175f4e67d5655a7b28bbf7bc6178c99e7b020e2d321f9fbfa17e522f1d621af7377fae873585ba9bc85b175c8198297e9be2eecdd2ff7f5f419eb2cffd82fa17d79f8ea715a59abbe87b377ca1b8095ebbc2ceedf2df5f7f61be92efdda2da37f7bfeec775c5fadb881b571cc1d8693edba2ae8d92bf3f1f01def28fbdc2ba5797dfcee755e5dafba83b773ce1f8491efb828eadb29f1f3f21fed2af9de29a77b7ff2e07b5053a1b48db97dc0118a9fe1b626e4d527fffdfc11e324f7d027a97571f0e2795251a3b68fbb7fc213889de3b424e6d725fdfffe13e126f5d225ab7773f6e47f5457a5b089bd79c4158e9be5b222e0d123fbf9f815e720f3d423ad7175f4e67d5655a7b28bbf7bc6178c99e7b020e2d321f9fbfa17e522f1d621af7377fae873585ba9bc85b175c8198297e9be2d5bd40a518ea892e62fe266ace3c2fe42375389211a3ee6b9d483ab1a85e3480",
        "hex": "6a20591cbbb7cce27bc1d6d4bbfd4c86e967e42d9826a654840fba7aa1571fe6bdc04db0042e07b5053a1b48db97dc0118a9fe1b626e4d527fffdfc11e324f7d027a97571f0e2795251a3b68fbb7fc213889de3b424e6d725fdfffe13e126f5d225ab7773f6e47f5457a5b089bd79c4158e9be5b222e0d123fbf9f815e720f3d423ad7175f4e67d5655a7b28bbf7bc6178c99e7b020e2d321f9fbfa17e522f1d621af7377fae873585ba9bc85b175c8198297e9be2eecdd2ff7f5f419eb2cffd82fa17d79f8ea715a59abbe87b377ca1b8095ebbc2ceedf2df5f7f61be92efdda2da37f7bfeec775c5fadb881b571cc1d8693edba2ae8d92bf3f1f01def28fbdc2ba5797dfcee755e5dafba83b773ce1f8491efb828eadb29f1f3f21fed2af9de29a77b7ff2e07b5053a1b48db97dc0118a9fe1b626e4d527fffdfc11e324f7d027a97571f0e2795251a3b68fbb7fc213889de3b424e6d725fdfffe13e126f5d225ab7773f6e47f5457a5b089bd79c4158e9be5b222e0d123fbf9f815e720f3d423ad7175f4e67d5655a7b28bbf7bc6178c99e7b020e2d321f9fbfa17e522f1d621af7377fae873585ba9bc85b175c8198297e9be2eecdd2ff7f5f419eb2cffd82fa17d79f8ea715a59abbe87b377ca1b8095ebbc2ceedf2df5f7f61be92efdda2da37f7bfeec775c5fadb881b571cc1d8693edba2ae8d92bf3f1f01def28fbdc2ba5797dfcee755e5dafba83b773ce1f8491efb828eadb29f1f3f21fed2af9de29a77b7ff2e07b5053a1b48db97dc0118a9fe1b626e4d527fffdfc11e324f7d027a97571f0e2795251a3b68fbb7fc213889de3b424e6d725fdfffe13e126f5d225ab7773f6e47f5457a5b089bd79c4158e9be5b222e0d123fbf9f815e720f3d423ad7175f4e67d5655a7b28bbf7bc6178c99e7b020e2d321f9fbfa17e522f1d621af7377fae873585ba9bc85b175c8198297e9be2eecdd2ff7f5f419eb2cffd82fa17d79f8ea715a59abbe87b377ca1b8095ebbc2ceedf2df5f7f61be92efdda2da37f7bfeec775c5fadb881b571cc1d8693edba2ae8d92bf3f1f01def28fbdc2ba5797dfcee755e5dafba83b773ce1f8491efb828eadb29f1f3f21fed2af9de29a77b7ff2e07b5053a1b48db97dc0118a9fe1b626e4d527fffdfc11e324f7d027a97571f0e2795251a3b68fbb7fc213889de3b424e6d725fdfffe13e126f5d225ab7773f6e47f5457a5b089bd79c4158e9be5b222e0d123fbf9f815e720f3d423ad7175f4e67d5655a7b28bbf7bc6178c99e7b020e2d321f9fbfa17e522f1d621af7377fae873585ba9bc85b175c8198297e9be2eecdd2ff7f5f419eb2cffd82fa17d79f8ea715a59abbe87b377ca1b8095ebbc2ceedf2df5f7f61be92efdda2da37f7bfeec775c5fadb881b571cc1d8693edba2ae8d92bf3f1f01def28fbdc2ba5797dfcee755e5dafba83b773ce1f8491efb828eadb29f1f3f21fed2af9de29a77b7ff2e07b5053a1b48db97dc0118a9fe1b626e4d527fffdfc11e324f7d027a97571f0e2795251a3b68fbb7fc213889de3b424e6d725fdfffe13e126f5d225ab7773f6e47f5457a5b089bd79c4158e9be5b222e0d123fbf9f815e720f3d423ad7175f4e67d5655a7b28bbf7bc6178c99e7b020e2d321f9fbfa17e522f1d621af7377fae873585ba9bc85b175c8198297e9be2d5bd40a518ea892e62fe266ace3c2fe42375389211a3ee6b9d483ab1a85e3480",
        "type": "nulldata"
      }
    }
  ],
  "blockhash": "b157fe5006ea74e3e2696296011f5383f171fa956e468cbbd84742f98a1af3af",
  "confirmations": 1,
  "time": 1764179051,
  "blocktime": 1764179051
}