{
  "hex": "01000000000101c2f674f895ff0f8f0ab4b79e6d6e8f1f83cb649e8c26c1de8a14c6b517dd42240100000000feffffff02a0cee9a1782d000022512035a69f0613d4b72b714d81c9b0201938dc86898b38683434edbe0330f16adfe700e1f50500000000fdd5046a205597d8a90cb5a15a9c1bb798293fbb1e45b6d3ffeb16d60d860d64ece0b370224db00425568d990cb12f506405dc0892a0fab82e7410ebff06f55b8ba74bd1f84b48f40576adb92c910f704425fc28b280da980e5430cbdf26d57bab876bf1d86b68d46516cdd94cf16f1024459c48d2e0baf86e3450abbf46b51bcbe70b91b80b08b44536edf96cd14f300465bc68f2c09ad84e14708b9f66953bebc72bb1982b2894a5d60d198c31afd0e4855c8812207a38aef4906b7f8675db0b27cb5178cbc87485f62d39ac118ff0c4a57ca832005a188ed4b04b5fa655fb2b07eb7158ebe854e5964d59cc71ef90a4c51cc852603a78eeb4d02b3fc6359b4b678b11388b8834c5b66d79ec51cfb084e53ce872401a58ce94f00b1fe615bb6b47ab3118aba81425568d990cb12f506405dc0892a0fab82e7410ebff06f55b8ba74bd1f84b48f40576adb92c910f704425fc28b280da980e5430cbdf26d57bab876bf1d86b68d46516cdd94cf16f1024459c48d2e0baf86e3450abbf46b51bcbe70b91b80b08b44536edf96cd14f300465bc68f2c09ad84e14708b9f66953bebc72bb1982b2894a5d60d198c31afd0e4855c8812207a38aef4906b7f8675db0b27cb5178cbc87485f62d39ac118ff0c4a57ca832005a188ed4b04b5fa655fb2b07eb7158ebe854e5964d59cc71ef90a4c51cc852603a78eeb4d02b3fc6359b4b678b11388b8834c5b66d79ec51cfb084e53ce872401a58ce94f00b1fe615bb6b47ab3118aba81425568d990cb12f506405dc0892a0fab82e7410ebff06f55b8ba74bd1f84b48f40576adb92c910f704425fc28b280da980e5430cbdf26d57bab876bf1d86b68d46516cdd94cf16f1024459c48d2e0baf86e3450abbf46b51bcbe70b91b80b08b44536edf96cd14f300465bc68f2c09ad84e14708b9f66953bebc72bb1982b2894a5d60d198c31afd0e4855c8812207a38aef4906b7f8675db0b27cb5178cbc87485f62d39ac118ff0c4a57ca832005a188ed4b04b5fa655fb2b07eb7158ebe854e5964d59cc71ef90a4c51cc852603a78eeb4d02b3fc6359b4b678b11388b8834c5b66d79ec51cfb084e53ce872401a58ce94f00b1fe615bb6b47ab3118aba81425568d990cb12f506405dc0892a0fab82e7410ebff06f55b8ba74bd1f84b48f40576adb92c910f704425fc28b280da980e5430cbdf26d57bab876bf1d86b68d46516cdd94cf16f1024459c48d2e0baf86e3450abbf46b51bcbe70b91b80b08b44536edf96cd14f300465bc68f2c09ad84e14708b9f66953bebc72bb1982b2894a5d60d198c31afd0e4855c8812207a38aef4906b7f8675db0b27cb5178cbc87485f62d39ac118ff0c4a57ca832005a188ed4b04b5fa655fb2b07eb7158ebe854e5964d59cc71ef90a4c51cc852603a78eeb4d02b3fc6359b4b678b11388b8834c5b66d79ec51cfb084e53ce872401a58ce94f00b1fe615bb6b47ab3118aba81425568d990cb12f506405dc0892a0fab82e7410ebff06f55b8ba74bd1f84b48f40576adb92c910f704425fc28b280da980e5430cbdf26d57bab876bf1d86b68d46516cdd94cf16f1024459c48d2e0baf86e3450abbf46b51bcbe70b91b80b08b44536edf96cd14f300465bc68f2c09ad84e14708b9f66953bebc72bb1982b2894a5d60d198c31afd0e4855c8812207a38c82e4524753e7195d6e10dc73aa2fb5b525762ecb7e08963277f91c23a98e68d02fd7509ae7e0229e2eb17403898b56a4411e8c69eb6ed8265dc19439f966c6ffd22d45fea67595e19c6aa8e0834873dfef473a61c4a6233cc34059d62340ed8ae7d33f2178bf171bb7983187585495628dc50e6db5827814a6a050c6e082d69ff774fcb2f0580a766bd4ee4c0b4a5f4f1f7720b17d8ade9735fb780edcda61a449127fb5c1550541123eead5843618263e6d71ed688996abfb018ea7a04f2e4c3eaaffd50684dc41700f563315ab8d998312ed761026f69d61ab92ae19882bcb1d33f9d1d4ba9f01e6a632fadbd3e390e3fea7d37d5003cc8d9d11aaa151702801688a9d542c34932d4536e95997cb40ae6e7905233fe39435a2c4eb1aa5dcb6483e90421916ae4ceca0ac3dd7c2f8db60d31db09393a2801b0149f6e5afde1e6fbd655a0132755fcbab34e0f4b43b2070a084d7148d1d085da1c8fcc2c91bf8a19d2ecc62eb2ac766a45019445d05494521236f2583e6e72e8a35c5b1960345e838e264783d862ba7e05809af184f026afda16c0ccc8af349b80e3e6284925eb96c5ce421059c085886a0a89e5d9adf0a30478aee321d32c42a51a815df5d6a97ac66d0b43467d1dc9ebee6871d65b964b7c009d2dcea9ab499d35e34e022acc487c26365eb8a7745c8c8466b285b0c6752cf64a7458932f45cfdfcf3b2507dcc785134e625351003fccc36773a8086865afd5baae8e73d470b2f47f0ba1e893bbfc73ee696f20c219c87c0eb723c90d3dec04fc9a07b9e05c4dcf49757fc7ba88f84c034d46c1b53de78c1ed42d20dcd93e4997ad353ad4a967788501cf082f8e5d059bf81a72b92eefec35f5c3ca3c16a91a45534054ec54ea01f94935cb52cceb3c78c8f100c88ede240d186ee858f4e7ac561edf11beb834583cb02d33b3fb1d415caf249ed06b2466f58e24a4df7d3dc827fe32edd3859bc8ce35c729d6ffd984cdf6397f45c7221bc63a1ae3d69fff3a1aff1f8c75cd7c30cc8738b3efdca908f93ddfe5b06331e49ba5a0941e7bc472c0755a797c6c1b151576caa13f58cbaf92cff4f6f6abd2dec407f751d1e1ee26c889d315ee464e79901533f93973a604483a48496ce0f7f133ec35d1974b65010d53a8de328cc9b78253e05011cdc9eb8834c73da398d1d9bba0fc9ca35b8740ceeb0b12a17adc5db41ab4cd52598da7e4c216fd53e54c0990d28cb8caaa5abc097de8204daf755e9475667d9a12037fe5c44ee4ab393ee2718d2658e3cd6f23c3fe1f0b087ad72542cedb8858f7cf1a77ca44ec85c790340906b6077f33c28985f38cb78cccbd3d3567abb060daeda285e9d9471212501286d6a8ad6f67f66c9997fbac61ec83b2b8fb32af8f9941dee5197ba18ace70c6f1c06f76e197ec2c6e955940051e37bdda595278ecd621c74bc42aa7edf23e81d583eb300e9962fc1e4d49443969fdfbe06e6cd82f9368e5aefb929e3743a5402a14808ef50fec29368bad54264d32903f02c0b8335d2e9c8716594ee39e1e1f7d55e13240f56aec29296dc2eaae60381ea71e3b63ed42aad2774f47a6a98ca3d6d888f17a1795a168564acbfcd824b69f5baff3013d9d1b66bc6b4b1485722b88d0e1775b0f81931362ee82a076a3c19586d500f03c3f5225c3628c0378b30d351ad661c85c30b62b7468a88e23ce170b91b0ad90fb5cb2b4f9b2ae13d37db2c2db8b286508989e1df2a371a76799e782b7093ef0de6a5f22e46f0698ded55d15dfa4ce215d94463ad0a0df7596da4ac087a022c3c47c3ec817742ce3c999ef9d1f2d2b5f18dc79b53f8ab3fb7e215c4a271eeff902563acdc0361c448f1c2b907483a1bd03d19cbcefb18add445720e5497b64504cf5b788e85cb293b71c528ed53166d466b8c00ea0144c96fa2e10ef6053b1736da59c71960fa0360d3f50ce36b5b625c06bd85280464b705ae729bcf84d9b53e91bb971f3ba166dfd8427cd7d0e65da3baeb26f7d9bbcb0289f5b958a83fde2342029786f88abd3065a4d56c6e99631abf8f9ec64d68df42f7768d09eb24287bf4db0d72285b9604ce049df0be46f5c557501371f071c9304cf12457f8a8f6472f8bd47f469920ea0830972e93fb97b2441f3a7e5aeeecb0513777456c088ab19bf822aba06f5c3bc1185f7d9a6e7a9a884724cbbd419d2156cd1b8a38eb1ce3303ad78f6fd7c0c4c880bb8ddbb717739f8c711aad4b4914bd8e8514571f8b90254e9db3c46ce42f36e05f662ae2fbbbf46769582e7e7d1c3426f82b9b9842895ac176af029048623afae14d99d034c81fc88dd56d66e88ebc426b5232d1fd55d8537f9faa3cca91240aeb295d8c5bf835b8d2422dd479411b8ad24306e56c7e9043aba5de2d2bbeeb2053859d75b5dd3b31c164c7b89c2bd17c42e2b0c2d365e0f6d1f520298acc42dafbf2df153cd81c604aa0e10eedde2afdba97e3228b4384b5749982dafd54ab413aa51f5daae215fd76a3b1416680277e6d287a830430e1030f9b1a954124bd196904cf0aeccb109e48584be611d4071bdb685ef8c591952aa1ad9b75ceeb5b78a2b50cdd18d0714748cdf4bdabaa52c7807de7aa1b6c5ca8dcca7458abf798588e84e6dd493d16cf738a8ee0decf50f04d89c10acd87fa32d2cb660020cb2a2d82b6e5e492520fdb27e757a00e2165db18a9ad82b3bf6b63e9a81671ac7c9e2180fbae416a2b739f91df8879e287527a6f86e2edccbcc683653c9fc1fefebe700720ecb45430e5b8fca25d53940323551c514f3b3276ab61ed1177a0dcfbe1df241be359994a878e85c2c6c7926a83500388818ac9f019573388f6534399e3c0fbc08b530572f9aa61e7ff89ffd8a82ea373c0a61b64025d62221ecc085d6294f78e8ec4dd20001448ab93523234442a7e43fa64aa67ecb5484003828e476b496d7b4d469446fd97284b60115c7905f7f452b6f9916a7d73112ed1bdb0cf1e01e19f6ca124215cb64f055ac2907354012a9530dbb85d72e7e9893d6031a7d82c715462d14f69cf15176f4d530773b47b7119f8c693a4bb938c2cf26b82da4a331a286aa9c1710a2aec70909a5a9fec0bc062434124aa26ac7a1642a7a0275ec5a98c371f754f7aba05cba45857e834addb6b72b00a7008e15009931491bec88b625da7c99560341fecd4426d34d78ec554a2004d2af5ca0d3f2913b9c745ebe0e37761002296641b000e7f156593826650853652619fc698111d1dc5fb1b5449bfaeff54bf17d9a8d689f0709d0b36a62b348a193d2f999789d7a54c28412e7360339ac44fd75c3eafe2466d0c45e82012ad7501bc211c40d13343c64687a818697c1f3f5f6fdfeff0f18474b6a7696a4acaeb1cacdf9fa272c4c616e7d858ea3a9b4c5dddffb0d111b38575d6774828b99a6d1e9f200000000000000000000000000000000000000101f2e3d01fd210500c45e84b6289215f3075d4435fce643258e0f3ddb5169cdd405132d32884d85efd025a579daa067bb0403e41becb2643190462c9bedf480f9e226b6d8acefc11e42e2e71fdf1863012d8087ef2b95d494859c21314e6fb9d44228872fccb67bd957e6d8955837990245b1b6d457479b7eaf08013dd06cc37431f4dbe5cea0d6e9bf2e8f316131b0a29738d0cafcdd1426285e8f7e48181cbb244ba836c19dae344feb819da84f69d7aab4345343136551187ee946fab0782d0a485e0db941d81c44ed75de0c8ed92956444ead7fd172e462333c50976ab4baa28b762c5c44f41f160addd8372ea5b966eacbf4c3992434eec775134a89146651148cdf4e543229b007e7cabc88175c27af4ae03904242242dacd740960a50308fa442c3dcff2147b94501bef73e160b17eded441afcbe2aabbdc90d784fe94a29414cfa14c7d0111345dc59cd553ad4e5146b7e245a376579621b07b2a9be071398b7f0deab337423c37d635b58950e4b283b109f7cf16d812defad9b7d9115788a22f3f41639e8ae9d46c8515c09457b3eec54be0f3abc9de60c407d466c94dd07d38ad6d93ca1a0b6d638bcc1f4989a91bbac70fc6dd5097ef83c6c5c1403f45439ff90858c0488ca8dd58a0b7da342d8df2b55358630dc478111888d6fcca4f2de129366d54e20b698d54279525b0a8c67693e4951c06f49f222e24cfa9364aa6822870d922f3339c0a0bee1846b0f8ee3709da78156bf821e7e1ac95f88e7c03c4ba6d74c93623007ad6e2ded47459c41da860820548ed1ef1c7bebc3356915dee5e47b4f4a3c8d3cd3c1fe51e36e63da6d3c53680d47ad74986569ad5755ccd2d3833458d28996c5669df126e368738e1535bb52bc747259f91a9ed2c23c04dc9f1d8026fa85c8cb7ea1aa77d475c0894907d1bbe57c0b343a328d7c3c76c86340d1e7b68b595318529c87c4fd7ec182668ca926c627cc5cdade82acdb16b5b534fa54e5df38bd34b5f607c2bb9cdf21e5e527601137d5b61bd83a08860931f4b9e12ef268371720c6a13607ed6c8e953fc8b62488a3e3efb0170df57e02bdc466394cbf4bfb7b6fed065684d7c56b67c9290cc9631beef7607f494fe9cb0542589d227f11aa44663044660425911532c5b0e0efa8d7895ac3d5818fb540570b1ff188371e4c1c27205c7ee4885631472680a0cf6816f9dce876a8f3885f8036d90cf95f4351b56aac5ed1c350ce9348e6f89133963096badad39018ce2ee7a3ac526a42c567e2919f6bdcdc4bbd3347ba0006956cad20cdf22c2a36d71d1e2a1ae92210fb6839ddc6f2b63ecc3368714dccc2971b5f6d425b2aedbdaef011bce2bb9e4c20eedca8e8c67cb9b996b865e2ef2ade259eddcef963d91e35419c7052e0de368ba84f77810f98ad143669a781680731759df23f385ed890c179e71afc22c66cd60ded1e57dea40f6aaf4c112f8f9dbf8991318cc957c1e1f58ed60ad8f34b75dfe43b8ab8db7359527f1dd8a52ef1ed2597cf78fe1b77e248af7e7d5b71c0a774eb543894cc70bad414427eef3c8fb7c04cba498721e714f48adff5b7d49758c16f250c7b20969084da03f5f5ef8479527ccbb6b303f2dbfe370b685e88728ea41bf904f5320feccabd0a1b3078cf68b1e9041effcdbb1e53c240841224051d8e00ce46745c3088b1ad70ae64134ea5f2fc2d0ecdeec91b21e453429a7e1f5d88adb3ba8a2ff5e6fe075ec0e41898f03e1fffae23564b32c8ffe5bd87c6ab9a5a50e4f41c3f60775a3a44a8d8d921a55e8a7ade9cc83b9ed9bad371aa2d85f5f57e9cc86d4ed87d042ff140cd4ae59af4cd2269731c0a2ed2ece861648a6c3b059000000",
  "txid": "219ed9081fbd74f0ad4ab8c24cfbbf66fc6bfa7154dd7cc2eaa7565e62ef4621",
  "hash": "3444d2b498c04d56bf4e281b0e4f3f0222cf1406c937b87e93365f1ec7f4e356",
  "size": 5085,
  "vsize": 2278,
  "version": 1,
  "locktime": 89,
  "vin": [
    {
      "txid": "2442dd17b5c6148adec1268c9e64cb831f8f6e6d9eb7b40a8f0fff95f874f6c2",
      "vout": 1,
      "scriptSig": {
        "asm": "",
        "hex": ""
      },
      "txinwitness": [
        "ae7e0229e2eb17403898b56a4411e8c69eb6ed8265dc19439f966c6ffd22d45fea67595e19c6aa8e0834873dfef473a61c4a6233cc34059d62340ed8ae7d33f2178bf171bb7983187585495628dc50e6db5827814a6a050c6e082d69ff774fcb2f0580a766bd4ee4c0b4a5f4f1f7720b17d8ade9735fb780edcda61a449127fb5c1550541123eead5843618263e6d71ed688996abfb018ea7a04f2e4c3eaaffd50684dc41700f563315ab8d998312ed761026f69d61ab92ae19882bcb1d33f9d1d4ba9f01e6a632fadbd3e390e3fea7d37d5003cc8d9d11aaa151702801688a9d542c34932d4536e95997cb40ae6e7905233fe39435a2c4eb1aa5dcb6483e90421916ae4ceca0ac3dd7c2f8db60d31db09393a2801b0149f6e5afde1e6fbd655a0132755fcbab34e0f4b43b2070a084d7148d1d085da1c8fcc2c91bf8a19d2ecc62eb2ac766a45019445d05494521236f2583e6e72e8a35c5b1960345e838e264783d862ba7e05809af184f026afda16c0ccc8af349b80e3e6284925eb96c5ce421059c085886a0a89e5d9adf0a30478aee321d32c42a51a815df5d6a97ac66d0b43467d1dc9ebee6871d65b964b7c009d2dcea9ab499d35e34e022acc487c26365eb8a7745c8c8466b285b0c6752cf64a7458932f45cfdfcf3b2507dcc785134e625351003fccc36773a8086865afd5baae8e73d470b2f47f0ba1e893bbfc73ee696f20c219c87c0eb723c90d3dec04fc9a07b9e05c4dcf49757fc7ba88f84c034d46c1b53de78c1ed42d20dcd93e4997ad353ad4a967788501cf082f8e5d059bf81a72b92eefec35f5c3ca3c16a91a45534054ec54ea01f94935cb52cceb3c78c8f100c88ede240d186ee858f4e7ac561edf11beb834583cb02d33b3fb1d415caf249ed06b2466f58e24a4df7d3dc827fe32edd3859bc8ce35c729d6ffd984cdf6397f45c7221bc63a1ae3d69fff3a1aff1f8c75cd7c30cc8738b3efdca908f93ddfe5b06331e49ba5a0941e7bc472c0755a797c6c1b151576caa13f58cbaf92cff4f6f6abd2dec407f751d1e1ee26c889d315ee464e79901533f93973a604483a48496ce0f7f133ec35d1974b65010d53a8de328cc9b78253e05011cdc9eb8834c73da398d1d9bba0fc9ca35b8740ceeb0b12a17adc5db41ab4cd52598da7e4c216fd53e54c0990d28cb8caaa5abc097de8204daf755e9475667d9a12037fe5c44ee4ab393ee2718d2658e3cd6f23c3fe1f0b087ad72542cedb8858f7cf1a77ca44ec85c790340906b6077f33c28985f38cb78cccbd3d3567abb060daeda285e9d9471212501286d6a8ad6f67f66c9997fbac61ec83b2b8fb32af8f9941dee5197ba18ace70c6f1c06f76e197ec2c6e955940051e37bdda595278ecd621c74bc42aa7edf23e81d583eb300e9962fc1e4d49443969fdfbe06e6cd82f9368e5aefb929e3743a5402a14808ef50fec29368bad54264d32903f02c0b8335d2e9c8716594ee39e1e1f7d55e13240f56aec29296dc2eaae60381ea71e3b63ed42aad2774f47a6a98ca3d6d888f17a1795a168564acbfcd824b69f5baff3013d9d1b66bc6b4b1485722b88d0e1775b0f81931362ee82a076a3c19586d500f03c3f5225c3628c0378b30d351ad661c85c30b62b7468a88e23ce170b91b0ad90fb5cb2b4f9b2ae13d37db2c2db8b286508989e1df2a371a76799e782b7093ef0de6a5f22e46f0698ded55d15dfa4ce215d94463ad0a0df7596da4ac087a022c3c47c3ec817742ce3c999ef9d1f2d2b5f18dc79b53f8ab3fb7e215c4a271eeff902563acdc0361c448f1c2b907483a1bd03d19cbcefb18add445720e5497b64504cf5b788e85cb293b71c528ed53166d466b8c00ea0144c96fa2e10ef6053b1736da59c71960fa0360d3f50ce36b5b625c06bd85280464b705ae729bcf84d9b53e91bb971f3ba166dfd8427cd7d0e65da3baeb26f7d9bbcb0289f5b958a83fde2342029786f88abd3065a4d56c6e99631abf8f9ec64d68df42f7768d09eb24287bf4db0d72285b9604ce049df0be46f5c557501371f071c9304cf12457f8a8f6472f8bd47f469920ea0830972e93fb97b2441f3a7e5aeeecb0513777456c088ab19bf822aba06f5c3bc1185f7d9a6e7a9a884724cbbd419d2156cd1b8a38eb1ce3303ad78f6fd7c0c4c880bb8ddbb717739f8c711aad4b4914bd8e8514571f8b90254e9db3c46ce42f36e05f662ae2fbbbf46769582e7e7d1c3426f82b9b9842895ac176af029048623afae14d99d034c81fc88dd56d66e88ebc426b5232d1fd55d8537f9faa3cca91240aeb295d8c5bf835b8d2422dd479411b8ad24306e56c7e9043aba5de2d2bbeeb2053859d75b5dd3b31c164c7b89c2bd17c42e2b0c2d365e0f6d1f520298acc42dafbf2df153cd81c604aa0e10eedde2afdba97e3228b4384b5749982dafd54ab413aa51f5daae215fd76a3b1416680277e6d287a830430e1030f9b1a954124bd196904cf0aeccb109e48584be611d4071bdb685ef8c591952aa1ad9b75ceeb5b78a2b50cdd18d0714748cdf4bdabaa52c7807de7aa1b6c5ca8dcca7458abf798588e84e6dd493d16cf738a8ee0decf50f04d89c10acd87fa32d2cb660020cb2a2d82b6e5e492520fdb27e757a00e2165db18a9ad82b3bf6b63e9a81671ac7c9e2180fbae416a2b739f91df8879e287527a6f86e2edccbcc683653c9fc1fefebe700720ecb45430e5b8fca25d53940323551c514f3b3276ab61ed1177a0dcfbe1df241be359994a878e85c2c6c7926a83500388818ac9f019573388f6534399e3c0fbc08b530572f9aa61e7ff89ffd8a82ea373c0a61b64025d62221ecc085d6294f78e8ec4dd20001448ab93523234442a7e43fa64aa67ecb5484003828e476b496d7b4d469446fd97284b60115c7905f7f452b6f9916a7d73112ed1bdb0cf1e01e19f6ca124215cb64f055ac2907354012a9530dbb85d72e7e9893d6031a7d82c715462d14f69cf15176f4d530773b47b7119f8c693a4bb938c2cf26b82da4a331a286aa9c1710a2aec70909a5a9fec0bc062434124aa26ac7a1642a7a0275ec5a98c371f754f7aba05cba45857e834addb6b72b00a7008e15009931491bec88b625da7c99560341fecd4426d34d78ec554a2004d2af5ca0d3f2913b9c745ebe0e37761002296641b000e7f156593826650853652619fc698111d1dc5fb1b5449bfaeff54bf17d9a8d689f0709d0b36a62b348a193d2f999789d7a54c28412e7360339ac44fd75c3eafe2466d0c45e82012ad7501bc211c40d13343c64687a818697c1f3f5f6fdfeff0f18474b6a7696a4acaeb1cacdf9fa272c4c616e7d858ea3a9b4c5dddffb0d111b38575d6774828b99a6d1e9f200000000000000000000000000000000000000101f2e3d01",
        "00c45e84b6289215f3075d4435fce643258e0f3ddb5169cdd405132d32884d85efd025a579daa067bb0403e41becb2643190462c9bedf480f9e226b6d8acefc11e42e2e71fdf1863012d8087ef2b95d494859c21314e6fb9d44228872fccb67bd957e6d8955837990245b1b6d457479b7eaf08013dd06cc37431f4dbe5cea0d6e9bf2e8f316131b0a29738d0cafcdd1426285e8f7e48181cbb244ba836c19dae344feb819da84f69d7aab4345343136551187ee946fab0782d0a485e0db941d81c44ed75de0c8ed92956444ead7fd172e462333c50976ab4baa28b762c5c44f41f160addd8372ea5b966eacbf4c3992434eec775134a89146651148cdf4e543229b007e7cabc88175c27af4ae03904242242dacd740960a50308fa442c3dcff2147b94501bef73e160b17eded441afcbe2aabbdc90d784fe94a29414cfa14c7d0111345dc59cd553ad4e5146b7e245a376579621b07b2a9be071398b7f0deab337423c37d635b58950e4b283b109f7cf16d812defad9b7d9115788a22f3f41639e8ae9d46c8515c09457b3eec54be0f3abc9de60c407d466c94dd07d38ad6d93ca1a0b6d638bcc1f4989a91bbac70fc6dd5097ef83c6c5c1403f45439ff90858c0488ca8dd58a0b7da342d8df2b55358630dc478111888d6fcca4f2de129366d54e20b698d54279525b0a8c67693e4951c06f49f222e24cfa9364aa6822870d922f3339c0a0bee1846b0f8ee3709da78156bf821e7e1ac95f88e7c03c4ba6d74c93623007ad6e2ded47459c41da860820548ed1ef1c7bebc3356915dee5e47b4f4a3c8d3cd3c1fe51e36e63da6d3c53680d47ad74986569ad5755ccd2d3833458d28996c5669df126e368738e1535bb52bc747259f91a9ed2c23c04dc9f1d8026fa85c8cb7ea1aa77d475c0894907d1bbe57c0b343a328d7c3c76c86340d1e7b68b595318529c87c4fd7ec182668ca926c627cc5cdade82acdb16b5b534fa54e5df38bd34b5f607c2bb9cdf21e5e527601137d5b61bd83a08860931f4b9e12ef268371720c6a13607ed6c8e953fc8b62488a3e3efb0170df57e02bdc466394cbf4bfb7b6fed065684d7c56b67c9290cc9631beef7607f494fe9cb0542589d227f11aa44663044660425911532c5b0e0efa8d7895ac3d5818fb540570b1ff188371e4c1c27205c7ee4885631472680a0cf6816f9dce876a8f3885f8036d90cf95f4351b56aac5ed1c350ce9348e6f89133963096badad39018ce2ee7a3ac526a42c567e2919f6bdcdc4bbd3347ba0006956cad20cdf22c2a36d71d1e2a1ae92210fb6839ddc6f2b63ecc3368714dccc2971b5f6d425b2aedbdaef011bce2bb9e4c20eedca8e8c67cb9b996b865e2ef2ade259eddcef963d91e35419c7052e0de368ba84f77810f98ad143669a781680731759df23f385ed890c179e71afc22c66cd60ded1e57dea40f6aaf4c112f8f9dbf8991318cc957c1e1f58ed60ad8f34b75dfe43b8ab8db7359527f1dd8a52ef1ed2597cf78fe1b77e248af7e7d5b71c0a774eb543894cc70bad414427eef3c8fb7c04cba498721e714f48adff5b7d49758c16f250c7b20969084da03f5f5ef8479527ccbb6b303f2dbfe370b685e88728ea41bf904f5320feccabd0a1b3078cf68b1e9041effcdbb1e53c240841224051d8e00ce46745c3088b1ad70ae64134ea5f2fc2d0ecdeec91b21e453429a7e1f5d88adb3ba8a2ff5e6fe075ec0e41898f03e1fffae23564b32c8ffe5bd87c6ab9a5a50e4f41c3f60775a3a44a8d8d921a55e8a7ade9cc83b9ed9bad371aa2d85f5f57e9cc86d4ed87d042ff140cd4ae59af4cd2269731c0a2ed2ece861648a6c3b0"
      ],
      "sequence": 4294967294
    }
  ],
  "vout": [
    {
      "value": 499961.3578,
      "n": 0,
      "scriptPubKey": {
        "asm": "1 35a69f0613d4b72b714d81c9b0201938dc86898b38683434edbe0330f16adfe7",
        "hex": "512035a69f0613d4b72b714d81c9b0201938dc86898b38683434edbe0330f16adfe7",
        "reqSigs": 1,
        "type": "witness_v1_scripthash",
        "addresses": [
          "3QJmnh"
        ]
      }
    },
    {
      "value": 1.0,
      "n": 1,
      "scriptPubKey": {
        "asm": "OP_RETURN 5597d8a90cb5a15a9c1bb798293fbb1e45b6d3ffeb16d60d860d64ece0b37022 25568d990cb12f506405dc0892a0fab82e7410ebff06f55b8ba74bd1f84b48f40576adb92c910f704425fc28b280da980e5430cbdf26d57bab876bf1d86b68d46516cdd94cf16f1024459c48d2e0baf86e3450abbf46b51bcbe70b91b80b08b44536edf96cd14f300465bc68f2c09ad84e14708b9f66953bebc72bb1982b2894a5d60d198c31afd0e4855c8812207a38aef4906b7f8675db0b27cb5178cbc87485f62d39ac118ff0c4a57ca832005a188ed4b04b5fa655fb2b07eb7158ebe854e5964d59cc71ef90a4c51cc852603a78eeb4d02b3fc6359b4b678b11388b8834c5b66d79ec51cfb084e53ce872401a58ce94f00b1fe615bb6b47ab3118aba81425568d990cb12f506405dc0892a0fab82e7410ebff06f55b8ba74bd1f84b48f40576adb92c910f704425fc28b280da980e5430cbdf26d57bab876bf1d86b68d46516cdd94cf16f1024459c48d2e0baf86e3450abbf46b51bcbe70b91b80b08b44536edf96cd14f300465bc68f2c09ad84e14708b9f66953bebc72bb1982b2894a5d60d198c31afd0e4855c8812207a38aef4906b7f8675db0b27cb5178cbc87485f62d39ac118ff0c4a57ca832005a188ed4b04b5fa655fb2b07eb7158ebe854e5964d59cc71ef90a4c51cc852603a78eeb4d02b3fc6359b4b678b11388b8834c5b66d79ec51cfb084e53ce872401a58ce94f00b1fe615bb6b47ab3118aba81425568d990cb12f506405dc0892a0fab82e7410ebff06f55b8ba74bd1f84b48f40576adb92c910f704425fc28b280da980e5430cbdf26d57bab876bf1d86b68d46516cdd94cf16f1024459c48d2e0baf86e3450abbf46b51bcbe70b91b80b08b44536edf96cd14f300465bc68f2c09ad84e14708b9f66953bebc72bb1982b2894a5d60d198c31afd0e4855c8812207a38aef4906b7f8675db0b27cb5178cbc87485f62d39ac118ff0c4a57ca832005a188ed4b04b5fa655fb2b07eb7158ebe854e5964d59cc71ef90a4c51cc852603a78eeb4d02b3fc6359b4b678b11388b8834c5b66d79ec51cfb084e53ce872401a58ce94f00b1fe615bb6b47ab3118aba81425568d990cb12f506405dc0892a0fab82e7410ebff06f55b8ba74bd1f84b48f40576adb92c910f704425fc28b280da980e5430cbdf26d57bab876bf1d86b68d46516cdd94cf16f1024459c48d2e0baf86e3450abbf46b51bcbe70b91b80b08b44536edf96cd14f300465bc68f2c09ad84e14708b9f66953bebc72bb1982b2894a5d60d198c31afd0e4855c8812207a38aef4906b7f8675db0b27cb5178cbc87485f62d39ac118ff0c4a57ca832005a188ed4b04b5fa655fb2b07eb7158ebe854e5964d59cc71ef90a4c51cc852603a78eeb4d02b3fc6359b4b678b11388b8834c5b66d79ec51cfb084e53ce872401a58ce94f00b1fe615bb6b47ab3118aba81425568d990cb12f506405dc0892a0fab82e7410ebff06f55b8ba74bd1f84b48f40576adb92c910f704425fc28b280da980e5430cbdf26d57bab876bf1d86b68d46516cdd94cf16f1024459c48d2e0baf86e3450abbf46b51bcbe70b91b80b08b44536edf96cd14f300465bc68f2c09ad84e14708b9f66953bebc72bb1982b2894a5d60d198c31afd0e4855c8812207a38c82e4524753e7195d6e10dc73aa2fb5b525762ecb7e08963277f91c23a98e68d",
        "hex": "6a205597d8a90cb5a15a9c1bb798293fbb1e45b6d3ffeb16d60d860d64ece0b370224db00425568d990cb12f506405dc0892a0fab82e7410ebff06f55b8ba74bd1f84b48f40576adb92c910f704425fc28b280da980e5430cbdf26d57bab876bf1d86b68d46516cdd94cf16f1024459c48d2e0baf86e3450abbf46b51bcbe70b91b80b08b44536edf96cd14f300465bc68f2c09ad84e14708b9f66953bebc72bb1982b2894a5d60d198c31afd0e4855c8812207a38aef4906b7f8675db0b27cb5178cbc87485f62d39ac118ff0c4a57ca832005a188ed4b04b5fa655fb2b07eb7158ebe854e5964d59cc71ef90a4c51cc852603a78eeb4d02b3fc6359b4b678b11388b8834c5b66d79ec51cfb084e53ce872401a58ce94f00b1fe615bb6b47ab3118aba81425568d990cb12f506405dc0892a0fab82e7410ebff06f55b8ba74bd1f84b48f40576adb92c910f704425fc28b280da980e5430cbdf26d57bab876bf1d86b68d46516cdd94cf16f1024459c48d2e0baf86e3450abbf46b51bcbe70b91b80b08b44536edf96cd14f300465bc68f2c09ad84e14708b9f66953bebc72bb1982b2894a5d60d198c31afd0e4855c8812207a38aef4906b7f8675db0b27cb5178cbc87485f62d39ac118ff0c4a57ca832005a188ed4b04b5fa655fb2b07eb7158ebe854e5964d59cc71ef90a4c51cc852603a78eeb4d02b3fc6359b4b678b11388b8834c5b66d79ec51cfb084e53ce872401a58ce94f00b1fe615bb6b47ab3118aba81425568d990cb12f506405dc0892a0fab82e7410ebff06f55b8ba74bd1f84b48f40576adb92c910f704425fc28b280da980e5430cbdf26d57bab876bf1d86b68d46516cdd94cf16f1024459c48d2e0baf86e3450abbf46b51bcbe70b91b80b08b44536edf96cd14f300465bc68f2c09ad84e14708b9f66953bebc72bb1982b2894a5d60d198c31afd0e4855c8812207a38aef4906b7f8675db0b27cb5178cbc87485f62d39ac118ff0c4a57ca832005a188ed4b04b5fa655fb2b07eb7158ebe854e5964d59cc71ef90a4c51cc852603a78eeb4d02b3fc6359b4b678b11388b8834c5b66d79ec51cfb084e53ce872401a58ce94f00b1fe615bb6b47ab3118aba81425568d990cb12f506405dc0892a0fab82e7410ebff06f55b8ba74bd1f84b48f40576adb92c910f704425fc28b280da980e5430cbdf26d57bab876bf1d86b68d46516cdd94cf16f1024459c48d2e0baf86e3450abbf46b51bcbe70b91b80b08b44536edf96cd14f300465bc68f2c09ad84e14708b9f66953bebc72bb1982b2894a5d60d198c31afd0e4855c8812207a38aef4906b7f8675db0b27cb5178cbc87485f62d39ac118ff0c4a57ca832005a188ed4b04b5fa655fb2b07eb7158ebe854e5964d59cc71ef90a4c51cc852603a78eeb4d02b3fc6359b4b678b11388b8834c5b66d79ec51cfb084e53ce872401a58ce94f00b1fe615bb6b47ab3118aba81425568d990cb12f506405dc0892a0fab82e7410ebff06f55b8ba74bd1f84b48f40576adb92c910f704425fc28b280da980e5430cbdf26d57bab876bf1d86b68d46516cdd94cf16f1024459c48d2e0baf86e3450abbf46b51bcbe70b91b80b08b44536edf96cd14f300465bc68f2c09ad84e14708b9f66953bebc72bb1982b2894a5d60d198c31afd0e4855c8812207a38c82e4524753e7195d6e10dc73aa2fb5b525762ecb7e08963277f91c23a98e68d",
        "type": "nulldata"
      }
    }
  ],
  "blockhash": "9c49f121af07ca043271baff5049446c1aadf74400091ff8de6bf4087ac8778e",
  "confirmations": 1,
  "time": 1764183425,
  "blocktime": 1764183425
}