{
  "hex": "010000000001015fff7763ff4aa53896f9aa329493fa129971110c40a4ba31371275fb81e10c7d0000000000feffffff02c075fe6f792d00002251205131d2e47baf7df1a7b8f955e31bc79de784b12ebb3b792ea16c41c2df31731900e1f50500000000fdd5046a20025f5bded901f9afaeaa466fefd02088df4a2f07965f891f45aa33411055ccb14db004ca84ee6abd75535a47235103ac7133d4bc76540787716621002dec992d496d33eaa4ce4a9d55737a670371238c5113f49c567427a7514601200dccb90d694d138ac4ae2afd35131a07631143ec317394fc361447c7312661406dacd96d092d73aae48e0add15333a27433163cc1153b4dc163467e7110641604d8cf94d290d534a046eea3df5d3dac7a3d1832cf1b3543cf6d48707f1e6a180ad6c19adc9edb36a244eca1dd5f3fae783f1a30cd193741cd6f4a727d1c681a08d4c398de9cd930a442eaa7db5939a87e391c36cb1f3147cb694c747b1a6e1c0ed2c59ed89adf32a640e8a5d95b3baa7c3b1e34c91d3345c96b4e7679186c1e0cd0c79cda98dd3ca84ee6abd75535a47235103ac7133d4bc76540787716621002dec992d496d33eaa4ce4a9d55737a670371238c5113f49c567427a7514601200dccb90d694d138ac4ae2afd35131a07631143ec317394fc361447c7312661406dacd96d092d73aae48e0add15333a27433163cc1153b4dc163467e7110641604d8cf94d290d534a046eea3df5d3dac7a3d1832cf1b3543cf6d48707f1e6a180ad6c19adc9edb36a244eca1dd5f3fae783f1a30cd193741cd6f4a727d1c681a08d4c398de9cd930a442eaa7db5939a87e391c36cb1f3147cb694c747b1a6e1c0ed2c59ed89adf32a640e8a5d95b3baa7c3b1e34c91d3345c96b4e7679186c1e0cd0c79cda98dd3ca84ee6abd75535a47235103ac7133d4bc76540787716621002dec992d496d33eaa4ce4a9d55737a670371238c5113f49c567427a7514601200dccb90d694d138ac4ae2afd35131a07631143ec317394fc361447c7312661406dacd96d092d73aae48e0add15333a27433163cc1153b4dc163467e7110641604d8cf94d290d534a046eea3df5d3dac7a3d1832cf1b3543cf6d48707f1e6a180ad6c19adc9edb36a244eca1dd5f3fae783f1a30cd193741cd6f4a727d1c681a08d4c398de9cd930a442eaa7db5939a87e391c36cb1f3147cb694c747b1a6e1c0ed2c59ed89adf32a640e8a5d95b3baa7c3b1e34c91d3345c96b4e7679186c1e0cd0c79cda98dd3ca84ee6abd75535a47235103ac7133d4bc76540787716621002dec992d496d33eaa4ce4a9d55737a670371238c5113f49c567427a7514601200dccb90d694d138ac4ae2afd35131a07631143ec317394fc361447c7312661406dacd96d092d73aae48e0add15333a27433163cc1153b4dc163467e7110641604d8cf94d290d534a046eea3df5d3dac7a3d1832cf1b3543cf6d48707f1e6a180ad6c19adc9edb36a244eca1dd5f3fae783f1a30cd193741cd6f4a727d1c681a08d4c398de9cd930a442eaa7db5939a87e391c36cb1f3147cb694c747b1a6e1c0ed2c59ed89adf32a640e8a5d95b3baa7c3b1e34c91d3345c96b4e7679186c1e0cd0c79cda98dd3ca84ee6abd75535a47235103ac7133d4bc76540787716621002dec992d496d33eaa4ce4a9d55737a670371238c5113f49c567427a7514601200dccb90d694d138ac4ae2afd35131a07631143ec317394fc361447c7312661406dacd96d092d73aae48e0add15333a27433163cc1153b4dc163467e7110641604d8cf94d290d534a046eea3df5d3dac7a3d1832cf1b35426e4f3a2b26e9b4e098c8bdef6f60e12605eb7095470e3c386c04c037cadf3be02fd7509bcd19831ab92952d8775663a4a7a67c4f77f1096b7613887f61d801bf5b5298ef35cc6f2ad992cc3b8eb3a96f5d12a40131971ac618f8596a1e378335b707b878b0a99b2b3c61bfc51cfbc2b87b81e9dac05a957e8c7d3d1637a2f9c8b8c0d92199bc950f89ce91f90825bb25a9ff443f461ba7dc439f09b53ad90d757e36e5263423465ea64a5aa68d1cef2dc4d24f1450ea720f3e656c673b01b33c4d87dd1a82c786c8fc351d0eb2de51f9c0f370bd7622e299103d072922058db277c4ef496040ec58b3d2b5aaac0cda0f75d7a072764d9d9a32b27583022d017eac8220d50b094159e05479d5609d120a7a11430355fe5787d29e43afd046751df2730626d7df07e2e0d105b8ed2c6f04f525bec471bf123487ff245983fad6db9a77af07a88d3678645f521c72b09912bcce067ea783ebad9afb8ab730aa612d13612cb50ffe31b511c9a8efbb3d01ac4a4c4ffe82dc46fd824f79728cb60e8265d3d46c7895e35660945a628e365312e921c6d9e7359c51c56f38a49c87773200e95d1eab78bd0f55437cefebd4efde12cd1908dcf285615eb09fff05590d81b538e3b313b9dacf8d4b442e0aeec6dc01ffa937a01a5a64c6891bdc4f0d316b2ae0233b449c7942533a8001f1ba922a05f4b7cb0bce0c4d4fce9be7d34a11443a387c49cc97f48300ef37c78bc41c01a5d967de5bf673f5a95f0179ecb130a136ecbe0c02148dc9eda3f863694d1ff9f66a2efaffad9c74a532a2c6989bc823713bcc34306562d8021986bb92ba7e5b0d8eb78dbc57bbeeb8723c8293fb77b82c876b9c46b3d2eada94773004154e4ae60a23d943c6279a4c03c66324c41a3ee2f74f9b837ff18e3a087efba22a78e2786aa3e3e72feb18dcaff7abc209e46565d3d68ff2b000777d8faeb89aa7c85d34188943d793957bf57bf4767c18129734727a76db0eb938cd918964945ec0d3aa0e6b769927684aea912c60491f749a26737cff392cf6553be1c9b08f7945e38f798078e5fe92637ab41518082ffb18859798e6772b8c49f72d8e732bb67f4cb1a7e9f57a9669c625c19107ba8869656bcae19466b322059f06e5fbb1e22cd3ed4823520888a295488c196124633198250958b040c8e87efbb8ca708c028dd3d940c51542f7f0cf96d6ea39d466def762caf8f7fba7ae2aa5c6766e4c8202594e34580e1081f06aa40336d60e09e370ba2839e01a3786c20d9b5ae5ff45fd7ac561e3b56a7b93bec117749f6bec8fdd1f2838a1b05f4460c5ba7c20ab6c1812fbeebe318e97b745aa0485a15e6d6cd7e4b5b06f5d6a1d013ae1740384c882b814d5aebaf966072db626d758aa69b6fe5747d0f3342e2e25f93cfed26c0ec715d207c5dcac12a26430ee23afbb47e9c5303cd165eaad525516e3c98c0aabad6f090f0e948fd24ead49975aa3842e90cea0098674e693ab56f10d726b9e7e48365d666edb40878eda1817ad556b04132954fc306d468325d2b7ed62b910f99d56ea0734e638611631dc08d22c81ff640a7dc0d6524103576ad9605deaf9cba54904bb485792f1d512fa246f42da9dcdafdadc2b19c74a5725f3c5b358cbfba05964eae12af91fcce786e3cf53461a224f3ee5e5a47f0a4f51df0acec3843dffad119bc47de1ab6a624d9e6f94331a69bf3aabcd07d74e0d3c0f2bbb55facab72c9895834e3477fad0376cd0257d2ecda4506ed401bffad1636f91bad3a7728b7dd3e1e73efb8b8c86d15b19ad663c3c306604acb7162ebadd532f7d63282d87dcbbfbed516d836461f9e9f3da876624b7af3d85b0635782dc62fdd175d9f8eb2aa9e48c303214c6302f9764c3392b5b1ecb91006d1993eb7dd694f9c882a739e96b421f58249ad2d9dd433ee2caed0e9c789346b2b0bb0245c3ab218cdeb64a3b40de96b89256f56a0b59d24c068249e8b69ec30a92816b4353e9994c789d72b7909e9eb74e4846d7821de25edee53fc401bcd2903d6a01070dd913b4facbde21bcb8b52c3faaa4e0c204b3027d3f74fad866927561fa98b4f25ae926c7dab63ec62f6bbdd76fcc69ceb9c625d9dca0976aa83f4e0d08006a73945e3c900b4fec3fdb87777a3e2f36b4ed24a2e46efefcec8c9c8b05f4c474bbd3f735ac2de8ba2ecff31577190c64c5eab9237075fb59cf3ac64dd3c72e13b6b889359699a08893ddbc0743da15943428fe3fbb950b5a6eee32c086712191832f5ecbdd76664d80e93137413a8ba74f65c74f9130ed4e92e67beb57c1487936d23362d632e3f952098e6f1d4119521f652b562b25533a143438c77ccdca19beffa0e00715b4b57e62727df5d102ba997a8f3696b69f2731a6e06f1d4d4c94975ed7efc8a338cdc13c915d5fd358a39aec2685063f51b710e95f49fb4f0ffa6cef9b50dcd0a6b964c4ced8c755be7f6fb340e5ac660eda42388388e5185cf7c4cce1ec5f09ad047ce6bff206804c67c9fb7d3ec2b2dfef47656ce541f64869d681e74c0b92f3c4a8d0f46916a863557721f24a64787ffbc20e33d4ffc29b3815c63d380a6d1efc687692f24ccd3fda2998c7143f6e289a8a5eabdfd39c8c938cff2b78040a388fbbe3f510de919b67cc507ab3af683a268f126adf7f2b0e0943e67a3c5e45cb20c7ab1c611f9ac54ecb1f1a936b9255197aa08e93c19672cc0e067850347e811823998051001ad7bbcd54e316a0906131fe689f4ff38630631b2f628e500d266d945871ace703f7454fbdf52805d24253999eda31defd8239029f68b99d9b1219429a99114276f8ab7e226d2fa166d49e49390537aaa6d295d44d85ba5440772516e4e92ccce1a3283784a841bddb3cfc30c5a1fef5fa0d2259bb0b17e6c16a61871fdb280c72cef1bc256329940e5fdc7312d9471ffc2c840e6dab90ce4f689e5f0d1c736323f3a83503d09e5b52d04e289e0835b60af9a3207052bc5db75ec26c6f04bb544b29b94ad199292428744b6ebefd50939e632d8ffe61ab4dcaa4495965a5311d59950baecc00c0b7ed414af8c3584adf0e53a9395f99caf30614d37ea6b2bb732b053ffab32e36658349109844f25d1fa3429e7a91b221fb6a691018746ecee607854fa89097cef82b1214da4c06084bad992cf44a258dc370a3c9b555911f397e58edb0340941879cda6a294b322eb7a510927531c806bd1a0ca4ffe2d9904520e8d669cf6671a36a819fe5fa13502b1d4219c4d86fd59b2cc4b758da54724babfa68ece758d95aa4f0009c91da325de69b4e15d7b4f69c64feb4b1a08ecab0e7dd7e2fce429257bef2f6761cd4d33424f5a718b90bfe5e6fa02232c404760679ac3dfedf008112b393c444b51595e647a8084a4a7a8aeb1bac40a1c1d1e1f2c3f43455a667f848eb0c6d4dbdee3f80000000000000000000000000000000b172c4101fd2105000ad6c5aedee4afb166b1a77e6ab3db44ffab359edbb1d023fc6380c3b0c4a9cb5e90352bcf1b8d10115668687142c07a7558e1679dd8339ebfcb3c0f1b1eca3862f5357a483f9cd6e11f9f69f758891dcc3eefdb9b661c38dae7cc9aabd602aacd4dd0a9e2fc320a3c788cd47209ff30d35bda0e02d669dfac40a59fbb3249ec34dc3535901461964db89f24b8bbea0e252a4638d1e549c5932787f34177512a73370983779280214243eb676b821e0d252043b5d86b635f07243ca59222388467071c626d1e000a31ea37c63cce3723c75d8a579f99595040e4f862041e79bb50fb7dde9d5fe35c547d1dafb2c7eda53f130dc97100bda97a02dd1f4b5cf0d13eac850b7a9e6d4170c94a66c22a7f2c32dda857cb1fdcad2559a0a8624813280131130ebd0948ffd0dea3c3dfb531fa5cdd26d335ccab237689e932795969c9b55ad7f420ce17454e9b449b4ccb90133f8d558f8bd6c70707730ac5a1ab8d49207c89e4471d6f7120cb7a186f17741a79e9165bc3d5f0ea5a1d891f4d6d79ec6d4fd6e30dbe65e2b9d890151723c0b0b795832162f168a59df7680ce66ec130cbc7c215bd3920f674bd1a98ee02c335d3c0b39179209c96eaf4d6ce71cc0c25f402827f7c56e5aa8c26093e1d77f9b7008b4b37daa46cd5274b82c8133f5fa877e59b9e8f50dd1d8f5be327bc352e3fe2d0b8d154998477ee72ad69af76abdeee159d2ebacc5c48e6756844bf7225c6dae707e9aa3c20e9fd7f6ce81ca3729ef94c376fed1da3cc15075bda41ea34dc8bd7f2dd65eac2274183365fe0d252ba5162aedd31b0791ae9a80b3a97760a2d0b680a3b7fff83d7337ac7a5cfc3696035d56c27350c7f9283b5aa894ec4c488404ce5e6d971318dc3089a5761be4f2f85ba1f947eca8d6c047385cf7fac52eed31888900cdf1cd7f83a60f60906ed5adf399e80301c57d721c26ea999910a07eee8bfd144097e7747be1feeaa6502792b32e40231217f15445b0eb9ff9b92b225b151449f49e6d87674f4e956bbf19359f2c09ada3ca5df040c63119d471d4675c1f45bec0e6d9ef37b1b8e8f31f73d97775ba0583267bb7d115af18e36d046e3d46c1a685aa8c875e2f513b43295aa279125f532df6601177bbf6dce0474b263ebb8ebec9e1e8a563219140c0063d282b3808d3cbc3f5cd2f38057f9a9309d96f8f3c5918dbcb6245db2c15fd33a830a45e871e86a85bd80672dd4c8249f7ad790d0dabe02998bb0bf1d8fcb222cb07b9f5dc0321beec7f42ec3df26bf0c297c212d4623119668a963c1b9f684b5e5220d90e96f8a66ea7dfe445450531f3e284115d11f62abe698d8388d8c1b653a382f7825594ec447313f74e6be5dd5ee2af33dab08b288a9bc0b61d5c778b33f362c0968d98d60ff1d718133e109d190f27fe0aaf6e5dc1a72f40448e76834d3e5c2ad7d3dc16eab749dcba2fe39210ddf67adf84e4ebd75b3f481960816cb4ff1008214a28ace6543a56edd15941b8157feb2d2a467a80d26c7ccab85fc0b637c7401eab5d7e53bf39019b9cb70e2b6382903c7f52b28b6108a1233a8a210c1dec28d1defc1a361bf26073b570d7db49ba89f782c0557ad1f04fdc1caeddce066f4cbd1567d2167bf7d99355c2a320715f35b15a3cf7e033e3fb74112aea7cbb85fbdc7ba67fee1019498aa65515b3447b9ad27331e24d0586bc1111de9ea8813938ea83c783d566c04774a630a2f3e0d2557eea1b2fdfb386099fc8c465e8982c2c9a3b4d090553e37bc5cfcaac9ee3c9a7fffccc5ce9b3e68808ad96a042caeb2e21c1dd91597d30577034b475d319a2301744d93d9ab4d9c6c658422ad3d68000000",
  "txid": "232313ceaef5697d321d436ab1f6c4d84a679e403264107a9b41fc8a70057f9b",
  "hash": "a84162939e78e1fc407d6cac2f25dc73501cf6a6a6ce9ace1150b2a41e30688d",
  "size": 5085,
  "vsize": 2278,
  "version": 1,
  "locktime": 104,
  "vin": [
    {
      "txid": "7d0ce181fb75123731baa4400c11719912fa939432aaf99638a54aff6377ff5f",
      "vout": 0,
      "scriptSig": {
        "asm": "",
        "hex": ""
      },
      "txinwitness": [
        "bcd19831ab92952d8775663a4a7a67c4f77f1096b7613887f61d801bf5b5298ef35cc6f2ad992cc3b8eb3a96f5d12a40131971ac618f8596a1e378335b707b878b0a99b2b3c61bfc51cfbc2b87b81e9dac05a957e8c7d3d1637a2f9c8b8c0d92199bc950f89ce91f90825bb25a9ff443f461ba7dc439f09b53ad90d757e36e5263423465ea64a5aa68d1cef2dc4d24f1450ea720f3e656c673b01b33c4d87dd1a82c786c8fc351d0eb2de51f9c0f370bd7622e299103d072922058db277c4ef496040ec58b3d2b5aaac0cda0f75d7a072764d9d9a32b27583022d017eac8220d50b094159e05479d5609d120a7a11430355fe5787d29e43afd046751df2730626d7df07e2e0d105b8ed2c6f04f525bec471bf123487ff245983fad6db9a77af07a88d3678645f521c72b09912bcce067ea783ebad9afb8ab730aa612d13612cb50ffe31b511c9a8efbb3d01ac4a4c4ffe82dc46fd824f79728cb60e8265d3d46c7895e35660945a628e365312e921c6d9e7359c51c56f38a49c87773200e95d1eab78bd0f55437cefebd4efde12cd1908dcf285615eb09fff05590d81b538e3b313b9dacf8d4b442e0aeec6dc01ffa937a01a5a64c6891bdc4f0d316b2ae0233b449c7942533a8001f1ba922a05f4b7cb0bce0c4d4fce9be7d34a11443a387c49cc97f48300ef37c78bc41c01a5d967de5bf673f5a95f0179ecb130a136ecbe0c02148dc9eda3f863694d1ff9f66a2efaffad9c74a532a2c6989bc823713bcc34306562d8021986bb92ba7e5b0d8eb78dbc57bbeeb8723c8293fb77b82c876b9c46b3d2eada94773004154e4ae60a23d943c6279a4c03c66324c41a3ee2f74f9b837ff18e3a087efba22a78e2786aa3e3e72feb18dcaff7abc209e46565d3d68ff2b000777d8faeb89aa7c85d34188943d793957bf57bf4767c18129734727a76db0eb938cd918964945ec0d3aa0e6b769927684aea912c60491f749a26737cff392cf6553be1c9b08f7945e38f798078e5fe92637ab41518082ffb18859798e6772b8c49f72d8e732bb67f4cb1a7e9f57a9669c625c19107ba8869656bcae19466b322059f06e5fbb1e22cd3ed4823520888a295488c196124633198250958b040c8e87efbb8ca708c028dd3d940c51542f7f0cf96d6ea39d466def762caf8f7fba7ae2aa5c6766e4c8202594e34580e1081f06aa40336d60e09e370ba2839e01a3786c20d9b5ae5ff45fd7ac561e3b56a7b93bec117749f6bec8fdd1f2838a1b05f4460c5ba7c20ab6c1812fbeebe318e97b745aa0485a15e6d6cd7e4b5b06f5d6a1d013ae1740384c882b814d5aebaf966072db626d758aa69b6fe5747d0f3342e2e25f93cfed26c0ec715d207c5dcac12a26430ee23afbb47e9c5303cd165eaad525516e3c98c0aabad6f090f0e948fd24ead49975aa3842e90cea0098674e693ab56f10d726b9e7e48365d666edb40878eda1817ad556b04132954fc306d468325d2b7ed62b910f99d56ea0734e638611631dc08d22c81ff640a7dc0d6524103576ad9605deaf9cba54904bb485792f1d512fa246f42da9dcdafdadc2b19c74a5725f3c5b358cbfba05964eae12af91fcce786e3cf53461a224f3ee5e5a47f0a4f51df0acec3843dffad119bc47de1ab6a624d9e6f94331a69bf3aabcd07d74e0d3c0f2bbb55facab72c9895834e3477fad0376cd0257d2ecda4506ed401bffad1636f91bad3a7728b7dd3e1e73efb8b8c86d15b19ad663c3c306604acb7162ebadd532f7d63282d87dcbbfbed516d836461f9e9f3da876624b7af3d85b0635782dc62fdd175d9f8eb2aa9e48c303214c6302f9764c3392b5b1ecb91006d1993eb7dd694f9c882a739e96b421f58249ad2d9dd433ee2caed0e9c789346b2b0bb0245c3ab218cdeb64a3b40de96b89256f56a0b59d24c068249e8b69ec30a92816b4353e9994c789d72b7909e9eb74e4846d7821de25edee53fc401bcd2903d6a01070dd913b4facbde21bcb8b52c3faaa4e0c204b3027d3f74fad866927561fa98b4f25ae926c7dab63ec62f6bbdd76fcc69ceb9c625d9dca0976aa83f4e0d08006a73945e3c900b4fec3fdb87777a3e2f36b4ed24a2e46efefcec8c9c8b05f4c474bbd3f735ac2de8ba2ecff31577190c64c5eab9237075fb59cf3ac64dd3c72e13b6b889359699a08893ddbc0743da15943428fe3fbb950b5a6eee32c086712191832f5ecbdd76664d80e93137413a8ba74f65c74f9130ed4e92e67beb57c1487936d23362d632e3f952098e6f1d4119521f652b562b25533a143438c77ccdca19beffa0e00715b4b57e62727df5d102ba997a8f3696b69f2731a6e06f1d4d4c94975ed7efc8a338cdc13c915d5fd358a39aec2685063f51b710e95f49fb4f0ffa6cef9b50dcd0a6b964c4ced8c755be7f6fb340e5ac660eda42388388e5185cf7c4cce1ec5f09ad047ce6bff206804c67c9fb7d3ec2b2dfef47656ce541f64869d681e74c0b92f3c4a8d0f46916a863557721f24a64787ffbc20e33d4ffc29b3815c63d380a6d1efc687692f24ccd3fda2998c7143f6e289a8a5eabdfd39c8c938cff2b78040a388fbbe3f510de919b67cc507ab3af683a268f126adf7f2b0e0943e67a3c5e45cb20c7ab1c611f9ac54ecb1f1a936b9255197aa08e93c19672cc0e067850347e811823998051001ad7bbcd54e316a0906131fe689f4ff38630631b2f628e500d266d945871ace703f7454fbdf52805d24253999eda31defd8239029f68b99d9b1219429a99114276f8ab7e226d2fa166d49e49390537aaa6d295d44d85ba5440772516e4e92ccce1a3283784a841bddb3cfc30c5a1fef5fa0d2259bb0b17e6c16a61871fdb280c72cef1bc256329940e5fdc7312d9471ffc2c840e6dab90ce4f689e5f0d1c736323f3a83503d09e5b52d04e289e0835b60af9a3207052bc5db75ec26c6f04bb544b29b94ad199292428744b6ebefd50939e632d8ffe61ab4dcaa4495965a5311d59950baecc00c0b7ed414af8c3584adf0e53a9395f99caf30614d37ea6b2bb732b053ffab32e36658349109844f25d1fa3429e7a91b221fb6a691018746ecee607854fa89097cef82b1214da4c06084bad992cf44a258dc370a3c9b555911f397e58edb0340941879cda6a294b322eb7a510927531c806bd1a0ca4ffe2d9904520e8d669cf6671a36a819fe5fa13502b1d4219c4d86fd59b2cc4b758da54724babfa68ece758d95aa4f0009c91da325de69b4e15d7b4f69c64feb4b1a08ecab0e7dd7e2fce429257bef2f6761cd4d33424f5a718b90bfe5e6fa02232c404760679ac3dfedf008112b393c444b51595e647a8084a4a7a8aeb1bac40a1c1d1e1f2c3f43455a667f848eb0c6d4dbdee3f80000000000000000000000000000000b172c4101",
        "000ad6c5aedee4afb166b1a77e6ab3db44ffab359edbb1d023fc6380c3b0c4a9cb5e90352bcf1b8d10115668687142c07a7558e1679dd8339ebfcb3c0f1b1eca3862f5357a483f9cd6e11f9f69f758891dcc3eefdb9b661c38dae7cc9aabd602aacd4dd0a9e2fc320a3c788cd47209ff30d35bda0e02d669dfac40a59fbb3249ec34dc3535901461964db89f24b8bbea0e252a4638d1e549c5932787f34177512a73370983779280214243eb676b821e0d252043b5d86b635f07243ca59222388467071c626d1e000a31ea37c63cce3723c75d8a579f99595040e4f862041e79bb50fb7dde9d5fe35c547d1dafb2c7eda53f130dc97100bda97a02dd1f4b5cf0d13eac850b7a9e6d4170c94a66c22a7f2c32dda857cb1fdcad2559a0a8624813280131130ebd0948ffd0dea3c3dfb531fa5cdd26d335ccab237689e932795969c9b55ad7f420ce17454e9b449b4ccb90133f8d558f8bd6c70707730ac5a1ab8d49207c89e4471d6f7120cb7a186f17741a79e9165bc3d5f0ea5a1d891f4d6d79ec6d4fd6e30dbe65e2b9d890151723c0b0b795832162f168a59df7680ce66ec130cbc7c215bd3920f674bd1a98ee02c335d3c0b39179209c96eaf4d6ce71cc0c25f402827f7c56e5aa8c26093e1d77f9b7008b4b37daa46cd5274b82c8133f5fa877e59b9e8f50dd1d8f5be327bc352e3fe2d0b8d154998477ee72ad69af76abdeee159d2ebacc5c48e6756844bf7225c6dae707e9aa3c20e9fd7f6ce81ca3729ef94c376fed1da3cc15075bda41ea34dc8bd7f2dd65eac2274183365fe0d252ba5162aedd31b0791ae9a80b3a97760a2d0b680a3b7fff83d7337ac7a5cfc3696035d56c27350c7f9283b5aa894ec4c488404ce5e6d971318dc3089a5761be4f2f85ba1f947eca8d6c047385cf7fac52eed31888900cdf1cd7f83a60f60906ed5adf399e80301c57d721c26ea999910a07eee8bfd144097e7747be1feeaa6502792b32e40231217f15445b0eb9ff9b92b225b151449f49e6d87674f4e956bbf19359f2c09ada3ca5df040c63119d471d4675c1f45bec0e6d9ef37b1b8e8f31f73d97775ba0583267bb7d115af18e36d046e3d46c1a685aa8c875e2f513b43295aa279125f532df6601177bbf6dce0474b263ebb8ebec9e1e8a563219140c0063d282b3808d3cbc3f5cd2f38057f9a9309d96f8f3c5918dbcb6245db2c15fd33a830a45e871e86a85bd80672dd4c8249f7ad790d0dabe02998bb0bf1d8fcb222cb07b9f5dc0321beec7f42ec3df26bf0c297c212d4623119668a963c1b9f684b5e5220d90e96f8a66ea7dfe445450531f3e284115d11f62abe698d8388d8c1b653a382f7825594ec447313f74e6be5dd5ee2af33dab08b288a9bc0b61d5c778b33f362c0968d98d60ff1d718133e109d190f27fe0aaf6e5dc1a72f40448e76834d3e5c2ad7d3dc16eab749dcba2fe39210ddf67adf84e4ebd75b3f481960816cb4ff1008214a28ace6543a56edd15941b8157feb2d2a467a80d26c7ccab85fc0b637c7401eab5d7e53bf39019b9cb70e2b6382903c7f52b28b6108a1233a8a210c1dec28d1defc1a361bf26073b570d7db49ba89f782c0557ad1f04fdc1caeddce066f4cbd1567d2167bf7d99355c2a320715f35b15a3cf7e033e3fb74112aea7cbb85fbdc7ba67fee1019498aa65515b3447b9ad27331e24d0586bc1111de9ea8813938ea83c783d566c04774a630a2f3e0d2557eea1b2fdfb386099fc8c465e8982c2c9a3b4d090553e37bc5cfcaac9ee3c9a7fffccc5ce9b3e68808ad96a042caeb2e21c1dd91597d30577034b475d319a2301744d93d9ab4d9c6c658422ad3d"
      ],
      "sequence": 4294967294
    }
  ],
  "vout": [
    {
      "value": 499995.9324,
      "n": 0,
      "scriptPubKey": {
        "asm": "1 5131d2e47baf7df1a7b8f955e31bc79de784b12ebb3b792ea16c41c2df317319",
        "hex": "51205131d2e47baf7df1a7b8f955e31bc79de784b12ebb3b792ea16c41c2df317319",
        "reqSigs": 1,
        "type": "witness_v1_scripthash",
        "addresses": [
          "3QJmnh"
        ]
      }
    },
    {
      "value": 1.0,
      "n": 1,
      "scriptPubKey": {
        "asm": "OP_RETURN 025f5bded901f9afaeaa466fefd02088df4a2f07965f891f45aa33411055ccb1 ca84ee6abd75535a47235103ac7133d4bc76540787716621002dec992d496d33eaa4ce4a9d55737a670371238c5113f49c567427a7514601200dccb90d694d138ac4ae2afd35131a07631143ec317394fc361447c7312661406dacd96d092d73aae48e0add15333a27433163cc1153b4dc163467e7110641604d8cf94d290d534a046eea3df5d3dac7a3d1832cf1b3543cf6d48707f1e6a180ad6c19adc9edb36a244eca1dd5f3fae783f1a30cd193741cd6f4a727d1c681a08d4c398de9cd930a442eaa7db5939a87e391c36cb1f3147cb694c747b1a6e1c0ed2c59ed89adf32a640e8a5d95b3baa7c3b1e34c91d3345c96b4e7679186c1e0cd0c79cda98dd3ca84ee6abd75535a47235103ac7133d4bc76540787716621002dec992d496d33eaa4ce4a9d55737a670371238c5113f49c567427a7514601200dccb90d694d138ac4ae2afd35131a07631143ec317394fc361447c7312661406dacd96d092d73aae48e0add15333a27433163cc1153b4dc163467e7110641604d8cf94d290d534a046eea3df5d3dac7a3d1832cf1b3543cf6d48707f1e6a180ad6c19adc9edb36a244eca1dd5f3fae783f1a30cd193741cd6f4a727d1c681a08d4c398de9cd930a442eaa7db5939a87e391c36cb1f3147cb694c747b1a6e1c0ed2c59ed89adf32a640e8a5d95b3baa7c3b1e34c91d3345c96b4e7679186c1e0cd0c79cda98dd3ca84ee6abd75535a47235103ac7133d4bc76540787716621002dec992d496d33eaa4ce4a9d55737a670371238c5113f49c567427a7514601200dccb90d694d138ac4ae2afd35131a07631143ec317394fc361447c7312661406dacd96d092d73aae48e0add15333a27433163cc1153b4dc163467e7110641604d8cf94d290d534a046eea3df5d3dac7a3d1832cf1b3543cf6d48707f1e6a180ad6c19adc9edb36a244eca1dd5f3fae783f1a30cd193741cd6f4a727d1c681a08d4c398de9cd930a442eaa7db5939a87e391c36cb1f3147cb694c747b1a6e1c0ed2c59ed89adf32a640e8a5d95b3baa7c3b1e34c91d3345c96b4e7679186c1e0cd0c79cda98dd3ca84ee6abd75535a47235103ac7133d4bc76540787716621002dec992d496d33eaa4ce4a9d55737a670371238c5113f49c567427a7514601200dccb90d694d138ac4ae2afd35131a07631143ec317394fc361447c7312661406dacd96d092d73aae48e0add15333a27433163cc1153b4dc163467e7110641604d8cf94d290d534a046eea3df5d3dac7a3d1832cf1b3543cf6d48707f1e6a180ad6c19adc9edb36a244eca1dd5f3fae783f1a30cd193741cd6f4a727d1c681a08d4c398de9cd930a442eaa7db5939a87e391c36cb1f3147cb694c747b1a6e1c0ed2c59ed89adf32a640e8a5d95b3baa7c3b1e34c91d3345c96b4e7679186c1e0cd0c79cda98dd3ca84ee6abd75535a47235103ac7133d4bc76540787716621002dec992d496d33eaa4ce4a9d55737a670371238c5113f49c567427a7514601200dccb90d694d138ac4ae2afd35131a07631143ec317394fc361447c7312661406dacd96d092d73aae48e0add15333a27433163cc1153b4dc163467e7110641604d8cf94d290d534a046eea3df5d3dac7a3d1832cf1b35426e4f3a2b26e9b4e098c8bdef6f60e12605eb7095470e3c386c04c037cadf3be",
        "hex": "6a20025f5bded901f9afaeaa466fefd02088df4a2f07965f891f45aa33411055ccb14db004ca84ee6abd75535a47235103ac7133d4bc76540787716621002dec992d496d33eaa4ce4a9d55737a670371238c5113f49c567427a7514601200dccb90d694d138ac4ae2afd35131a07631143ec317394fc361447c7312661406dacd96d092d73aae48e0add15333a27433163cc1153b4dc163467e7110641604d8cf94d290d534a046eea3df5d3dac7a3d1832cf1b3543cf6d48707f1e6a180ad6c19adc9edb36a244eca1dd5f3fae783f1a30cd193741cd6f4a727d1c681a08d4c398de9cd930a442eaa7db5939a87e391c36cb1f3147cb694c747b1a6e1c0ed2c59ed89adf32a640e8a5d95b3baa7c3b1e34c91d3345c96b4e7679186c1e0cd0c79cda98dd3ca84ee6abd75535a47235103ac7133d4bc76540787716621002dec992d496d33eaa4ce4a9d55737a670371238c5113f49c567427a7514601200dccb90d694d138ac4ae2afd35131a07631143ec317394fc361447c7312661406dacd96d092d73aae48e0add15333a27433163cc1153b4dc163467e7110641604d8cf94d290d534a046eea3df5d3dac7a3d1832cf1b3543cf6d48707f1e6a180ad6c19adc9edb36a244eca1dd5f3fae783f1a30cd193741cd6f4a727d1c681a08d4c398de9cd930a442eaa7db5939a87e391c36cb1f3147cb694c747b1a6e1c0ed2c59ed89adf32a640e8a5d95b3baa7c3b1e34c91d3345c96b4e7679186c1e0cd0c79cda98dd3ca84ee6abd75535a47235103ac7133d4bc76540787716621002dec992d496d33eaa4ce4a9d55737a670371238c5113f49c567427a7514601200dccb90d694d138ac4ae2afd35131a07631143ec317394fc361447c7312661406dacd96d092d73aae48e0add15333a27433163cc1153b4dc163467e7110641604d8cf94d290d534a046eea3df5d3dac7a3d1832cf1b3543cf6d48707f1e6a180ad6c19adc9edb36a244eca1dd5f3fae783f1a30cd193741cd6f4a727d1c681a08d4c398de9cd930a442eaa7db5939a87e391c36cb1f3147cb694c747b1a6e1c0ed2c59ed89adf32a640e8a5d95b3baa7c3b1e34c91d3345c96b4e7679186c1e0cd0c79cda98dd3ca84ee6abd75535a47235103ac7133d4bc76540787716621002dec992d496d33eaa4ce4a9d55737a670371238c5113f49c567427a7514601200dccb90d694d138ac4ae2afd35131a07631143ec317394fc361447c7312661406dacd96d092d73aae48e0add15333a27433163cc1153b4dc163467e7110641604d8cf94d290d534a046eea3df5d3dac7a3d1832cf1b3543cf6d48707f1e6a180ad6c19adc9edb36a244eca1dd5f3fae783f1a30cd193741cd6f4a727d1c681a08d4c398de9cd930a442eaa7db5939a87e391c36cb1f3147cb694c747b1a6e1c0ed2c59ed89adf32a640e8a5d95b3baa7c3b1e34c91d3345c96b4e7679186c1e0cd0c79cda98dd3ca84ee6abd75535a47235103ac7133d4bc76540787716621002dec992d496d33eaa4ce4a9d55737a670371238c5113f49c567427a7514601200dccb90d694d138ac4ae2afd35131a07631143ec317394fc361447c7312661406dacd96d092d73aae48e0add15333a27433163cc1153b4dc163467e7110641604d8cf94d290d534a046eea3df5d3dac7a3d1832cf1b35426e4f3a2b26e9b4e098c8bdef6f60e12605eb7095470e3c386c04c037cadf3be",
        "type": "nulldata"
      }
    }
  ],
  "blockhash": "32a2d379a33ec88ae1cb3a8a1a44f2d12b76aebf574ecf7ac16b289397ed6cd9",
  "confirmations": 1,
  "time": 1764176557,
  "blocktime": 1764176557
}