{
  "hex": "01000000000101c21f082e07a44499c8ce8e8088200c7ccc980c04dc86451e13844562488f62070100000000feffffff02202367d2782d000022512032458be1308f0c747008795053b608474a845dca3c2da7d71e3626c98ad476b000e1f50500000000fdd5046a207a03737e019b5a0a9cec26d6b36b1057084ecab5a5d14c60dc16e771fb4839134db0043dea17f8f212615ffecf094b6a19940c0bf5a1363c2b1b20c25151c0626394451dca37d8d232417fdeef296b4a39b42c2bd581161c0b3b00e27171e04243b4657daa57b8b252211fbe8f490b2a59d44c4bb5e1767c6b5b60821111802223d4055d8a77989272013f9eaf692b0a79f46c6b95c1565c4b7b40a23131a00203f425bd6a97787292e1df7e4f89cbea99148c8b7521b6bcab9ba042d1d140e2e314c59d4ab75852b2c1ff5e6fa9ebcab934acab5501969c8bbb8062f1f160c2c334e5fd2ad73832d2a19f3e0fc98baad954cccb3561f6fcebdbe002919100a2a35485dd0af71812f281bf1e2fe9ab8af974eceb1541d6dccbfbc022b1b120828374a53dea17f8f212615ffecf094b6a19940c0bf5a1363c2b1b20c25151c0626394451dca37d8d232417fdeef296b4a39b42c2bd581161c0b3b00e27171e04243b4657daa57b8b252211fbe8f490b2a59d44c4bb5e1767c6b5b60821111802223d4055d8a77989272013f9eaf692b0a79f46c6b95c1565c4b7b40a23131a00203f425bd6a97787292e1df7e4f89cbea99148c8b7521b6bcab9ba042d1d140e2e314c59d4ab75852b2c1ff5e6fa9ebcab934acab5501969c8bbb8062f1f160c2c334e5fd2ad73832d2a19f3e0fc98baad954cccb3561f6fcebdbe002919100a2a35485dd0af71812f281bf1e2fe9ab8af974eceb1541d6dccbfbc022b1b120828374a53dea17f8f212615ffecf094b6a19940c0bf5a1363c2b1b20c25151c0626394451dca37d8d232417fdeef296b4a39b42c2bd581161c0b3b00e27171e04243b4657daa57b8b252211fbe8f490b2a59d44c4bb5e1767c6b5b60821111802223d4055d8a77989272013f9eaf692b0a79f46c6b95c1565c4b7b40a23131a00203f425bd6a97787292e1df7e4f89cbea99148c8b7521b6bcab9ba042d1d140e2e314c59d4ab75852b2c1ff5e6fa9ebcab934acab5501969c8bbb8062f1f160c2c334e5fd2ad73832d2a19f3e0fc98baad954cccb3561f6fcebdbe002919100a2a35485dd0af71812f281bf1e2fe9ab8af974eceb1541d6dccbfbc022b1b120828374a53dea17f8f212615ffecf094b6a19940c0bf5a1363c2b1b20c25151c0626394451dca37d8d232417fdeef296b4a39b42c2bd581161c0b3b00e27171e04243b4657daa57b8b252211fbe8f490b2a59d44c4bb5e1767c6b5b60821111802223d4055d8a77989272013f9eaf692b0a79f46c6b95c1565c4b7b40a23131a00203f425bd6a97787292e1df7e4f89cbea99148c8b7521b6bcab9ba042d1d140e2e314c59d4ab75852b2c1ff5e6fa9ebcab934acab5501969c8bbb8062f1f160c2c334e5fd2ad73832d2a19f3e0fc98baad954cccb3561f6fcebdbe002919100a2a35485dd0af71812f281bf1e2fe9ab8af974eceb1541d6dccbfbc022b1b120828374a53dea17f8f212615ffecf094b6a19940c0bf5a1363c2b1b20c25151c0626394451dca37d8d232417fdeef296b4a39b42c2bd581161c0b3b00e27171e04243b4657daa57b8b252211fbe8f490b2a59d44c4bb5e1767c6b5b60821111802223d4055d8a77989272013f9eaf692b0a79f46c6b95c1565c4b7b40a23131a00203f425bd6a97787292e1df7e4f89cbea99148cc8c6546cb5eeee595c8617b103f096d43c6ac34c3076286f7427eeca9db1a2e602fd7509adeb586b65ff4fcaa1f64bd7fe6f46f97860f7cbc30fe2ece819cb446db8cf7c25077faba9eeb6f47be5e2b850a71586cde00c550a845eeefeb53891ac8cca76e6528db6c1310da5f9e2e1471973e129e16059ca7ea972d796a654a223d05be2bbd1b7d2e577a94e834d3a4b3535ad546f533e8f57bf6e773fca48d162fd15fc03807d6121c150f799389c7920cd1b474c666e0d5aca0665dbd2a281d1421261eff606577027509870386779a51b30087b87f50c6f68793059ccfa3eaed140604c7ffad0d858c4f3cb5edb0310c79f33623212210e22e915df2ed1ca8443a58d7c86ee06a15cdd281d61d54a86f4ee69cf95d819a2c540be18b6c2799093dbecc0f7b65d5dc663e3199823f4757c03c44855416dadea129411657c0bf8a27fe7f903d60d327c262410711a9cab74798872dcd1cd94a1d0df2d97f132985e1a0fd38274c04a9b7856e076d790b87e38ab80e74241847e1bb0a25b6dedab42d04efff0f76ebf0f71b3fceb032aa750f0acfa0537541fee4770b7bb7b0cf47446cc4266092bc68bbcda324a645c6758a97ab23923ebf29a9216615d886b88d96627a6bc6ab4377738745c9cd63a354d3a1fc01b32fb86cda2672e7566a9a00c3c7fe4745f82738e5a23136f0e0385799567efc0fe71799837e0b8796b37db991df01ba5c9198dcce93cf7e9c8c04fc062b6d61fb0c725e53fba1e7b7979100e0b4e12ad2860ba1f09e359db581e18b2379bd5f2ddd7f9fdf139e4794aa120ab98febc522a4d9cfb983e5623286978eb209c9fe9558068d3e8fe15f9f3a7e932d91b86a02494c273d1cf7f4d0eca7418db38038647d6c709c4d6fbbdb550e100a46eee1f1361be762047eba9699a1785e101c2b79015580def6df9e57ddab0800317aa9041b5b3ea7d8eff15b845f684a69a691541a02124f4298cd358d8d9e06bf8c9c46a7296d039cac0d16e65b192bc4468a6b5a444eac535013406f60dad45d0dbb7094fe50931455470796097fd6aa00b585d6c88abb0c0650013407af682872ec3f10677c6d928c69eb0c71e01a365c2b63afd5f1ce4695c329cf26c4d1790f030a726c2427fb0fa72512d037243ce7dc1979e351d1bc9d2cbf38df46dbef571b12e97114256be590e99049b0284f218660fcdb8ef9af633edb72a7a405cce959bed8e8c11e2b9e642aa8ef073c4a9229780f6acf2b486e3554163c2f8b853ba3579729e26479bd286b7123e7ee15df40bb77396496a6b581a8525dd5387f59d51c0f97dfbf28e67a0326773bb2f1826d15584dd20c88fabdf441bdefd8d988c47696c0477477a67ac7e3746bd3e957ac226bfbd968d47418cc25dd33edf5135c96e2c9bf8d179ccf952be888e25fb5418740a32f0d81f474c9508f401d9f69b049874a8850e1771e7e0dc37d2959c64a32a5115fec6d12da9a5edcd98893b3eb750ec58f0a41a03e3aee9c3abb0fb773c9a6266461b169745bce6f94c4cf26406e3c514bcd5e1414a34be99790fc9959d52cdaa4039ff4351399b897b00da1bdded2b0ba49644be3343021f6d8f14f6e3a7be3c39623e0015dcbbd8354bcf2d5c54fa1bca282e6eea31c017ffad45b82d34eae78d128f1dc1599562a1aef7d344ca15966d415aef5776e80c52cb924d4d5fa6c65bc053226af8524be2f5d974369fb81153940b752b94fee7ba56a0871b0bfb970d2b28e0d2cbbf485328d4131d9b47264808bca56c553e50ca8db6c690c588bcfa9d98b45b25a1967375ced4908f56974c99d1d5f5cbb636c9f934f061bb3ecd7291fe01047c0d782ff989e810f7310272e5e8cc563f38b94cf5be8c1cd3d8fb62d4c9cc5247338c7a872ecc54c710f97253364069f64a8f5b15bc19dadb30842e789c88bee7f57f4602d0f633a808b4b972cf1f9e6152786d8f15c4bd7a1ee4537112d1ce340fca9ab97e9b964cfcbe89b106e767fd1261d791d21c4f45679441b920c8c157039e93f601331fc1df1d6cd46c18be2d923a221b4e36fc4fc9f28323061179ccc91d6bcffdd2b5a3a5885545c528a30cb8d96cb4c85f1eced4d3bd59bf1a2687828a292e6c0eb1949f1291274fd5993e1cc5f2be13fb55286ea6ada823f395a2499eeb119405fe7555bb3b2cb0ad14aac893c6d53b8c3ab81ac71d580c0e34a14a586c81e173165682ab0a4997a01f59d42b026cda1c4b5be9278deef4e571c64ae98f00000beeeea0882c8a0a6722db84e5616f5f5b964ccd058bd8093e7239a98d4fc757b2bd5b54e16d25db60677ad4f4128631792c06015d8896136fff281b4803c0d3970b5dcd78689166d0d9b2ee50523e62cdea524ea5d8ee78c2868e906f1260dcfc2d6877d8ca7e07eb004a7d4c27d22613a2b6f8cc551815df70a8edc76bc33ca4b07cf6fbb3d7f4fb8a1230129fd297f83a2b1f674a4dc497cde8d8468f337bb92089b51e0846bb7d2d5c019c734362d8faf8326930d2d6d77bbe68d91b5978d82ca96c7dd25f07d9603ffd6b547bea76da7c957b7c1eac0b2213a20c931bb9a55aee6e006fb959898e141459553b1a601b86338a7cd14decfda03538a3cdf82a0abba7964adad984d4ab57a9144abff94c17b7acd43983f73e942dc90e1c7e18c74880b2e9d5fcd8b5c97bf4ce353b9de779ae82cb29b168c98aafbf1e814e0980e24c2241b4eb729b11ebbbf6141bfbf1931a34a6c8efba991a7d36642e6fb4249b3c495dfb7defabe9eb8e6b1d74c22bfd6feb07a00b377576877be0ebc74bbf92193580a08903ee98bb55a53e831f1b478a07eec2a9c2d94f4f0ef439a7d808edd13192a703f90497341aff865b64fc6c74830cfadb5c6679ac24d8fd514c86b39c24189e6733eea707e94e816ae274cdf21c60ec74178e59a090144e5bcc0bafb2f43c2b3d077678e0a84fe35e3edd6924a3a07b3d38745909783b8baff58b5c450b82218baa0e2937a2c22a31d0278d79e9321610a64e4e1f761882d0c7a9c57a9f89e8722a09b70e1c562068728ec3556e7d606a45486789bd31a93a329a99a08beec937db3e323d719bf9040d458924e51bc3626b697d7659ad91a78329776c5875dae994335fc12b70e85afad1f73fccfef958b5685dfb4a1fc1aeb4735aee2d3641a34a8de29d75e43fb792de7d50fed9406f8fea971bcf6a4d0c3655b143418d4e233f664828911df148b4421241a670dd1055f31cc05292fbf17bb43bf5da7040a9834829cd97999c8feea3c23e582deafd0196990109d1bf70c663043381c9779779822403c87a12c6fd9e4fff0eac361bfe8f6fadd8fc424d0b0c22293c5664656c7d88898e919ab5c6cbe1073b53626c747c8d9fa6b0d2d4e3f4fdff1f203c455354698c909b9eadb3bdd4ef031623337d95a7a8b9bbc4c9ced7d8e3f700000000000000000000001324344501fd21050065930a655d35b271523726937a8247d22ea5de3eafc2ea8ad866269ee958ebedd153cb61a2a7b175a3822238b4ac33006e9ad725b4f762f282dd462e5723d92bfe355c516ee56245f143a356dbfbbfa6e556e3582dbab0c13a7755cff6b8395aef37b137081c76d8d34a12c062fd9465311af4f6bffa723dedca8a28bda874fb3a1846bb39d511de20d034a0efc2af0db7dec15004a268857ab18c370b733b2fdd1d78294866339bb1b4e9f14e648b4a8c8f531532cf611b01dd352ae716ac60859bcec1b755278a8359feaedd05a610812cbf53102f6576e10f688e8ce2485f408912f0745d1688cc5db5be2fab577a760ab778f9797745fedaebbf620f728a5f29903ecc8e67837c7edf049a1654288bd7ce589b83c148fb3f00beff2557235219ba8da2fc2b5ed88f1b49cf81c71d6c7fadbd12aeee92b27607cead3e1b5c4f5ec0626e2de69e1cdbce5c64742f36646ff15ed3a43bd6795ba9e5b3fb4a4cb55481c1acd69097b24cd1ba08658b4a80aaa63a305f1da96eb0c5847d2836fc6239af11981b89d09c138e09ba023944937fa5ba4a6e9fa57500b55234abb4e9915156276e939292c13c99baf19fd227f294964bf863919b4d2b76cd3f641fd4ac7e115cee0bb55f03a8797057871ed3fdca45f2d8dbf8a5c0e314ea30f421c8ede80b9eaf73b3b062f7d92aca8d61cc16261ae313bec9aa11f5156a15a6fba3f9e39bf94dfa4f564cdcc0c277fa4927d40df65c6bcaabaa5f0a379c479a7d7b90d911abab13257e981c4a4e6e558250bff719ca86aca7a07332c99b5d273ceb6fbc10073e45a80efa627943bfbb14dbefa6276ed3e576233689b1d13e8de23deee437cb1be14bea55b651d4d8451c2d1cf87b1dcc46ae3efc991e6fd39fa41dad9b9d6308e86cc7a5117eb7bebdaf798f6191c32a210b2c6911753330888c810e60842e4da789164db1ecf04a1fad5f8c707fde6aca9accacd63dd94cf170c59cf8e23714f4df1487f4409d990f5b66bc6740d854a7926213c17484f5a9c4a19bf98be59d2698025b4a7d914593f928da29f900598e5b41ae058f264328d482653c6f7d1a3917bb31e9f72e5ac6e386901f5835202ee430e51650cac5c0775200e12941e2307cee319c98201130f5bdb5b4e8db85780f0c378d70ba4566575394a94c845619bc281b282479f2e4ddf573b0f1e38454fe11c3be8479b6c18f4c11297c1bda334d060ae336d2adcf296bdf5f668118c2e659defd588b0ac79347f81951cc37217d844df5667506a1b4c8ffed5e4a5b26952348a12f5b1c3e3867befaae5d9f8e71bc19e845d33be25f6df9d3eaea142ed70ba4ae3a05ad7777fe47d57f7654cd0350d1de072e1d1c57efc04381849e525206224b640719becac09351f6abbb3def51f1aad6c1411e968ad6da13190baaaed4ddbd84c2c57a626160bb6568b576c17593f4fa5581f8450edb07eda2e185bca26356c38f4cfdc5aa69c1fb65d47f7b857cbc743c75489b7fedd5a1a6318377e06fa8e462cdbfcbbe1cf8a3586e200ec8689abc995404f6d72e6d1e7e307929ac6fa74b08af4b41478ef343ec97e27a7fdaaea10757c05b3dfb816b9e8788d87d33f3a1774fad1279469d67ffb377f8e091d560afe78a1bf537bdbae88357800976013ae7e3dbdab2030a009765abc606fbd4de9d9752ac904f79b8cb9e4d17443fb1600fb3819d1c133a136b5173d7d5304c5a009dde68f538455c933911cfb4e8638d318126758f424949c6f42f7a2b3b6ccdbf69adbe26903e15f0d34a4ad14db713d9548380d9368711e266df0b51e7a6c2b5cc8287b45c085d1e14c45867d7be59afb6a25c847f000000",
  "txid": "2896415409a8fcf6c34ccf31e020e7246d787930ef5bd890f8978ed31c20b3df",
  "hash": "6362e56ba5b96eb6fbb1b1e9a2187386d7ddb3c3dd62fe452780b762867cdcf7",
  "size": 5085,
  "vsize": 2278,
  "version": 1,
  "locktime": 127,
  "vin": [
    {
      "txid": "07628f48624584131e4586dc040c98cc7c0c2088808ecec89944a4072e081fc2",
      "vout": 1,
      "scriptSig": {
        "asm": "",
        "hex": ""
      },
      "txinwitness": [
        "adeb586b65ff4fcaa1f64bd7fe6f46f97860f7cbc30fe2ece819cb446db8cf7c25077faba9eeb6f47be5e2b850a71586cde00c550a845eeefeb53891ac8cca76e6528db6c1310da5f9e2e1471973e129e16059ca7ea972d796a654a223d05be2bbd1b7d2e577a94e834d3a4b3535ad546f533e8f57bf6e773fca48d162fd15fc03807d6121c150f799389c7920cd1b474c666e0d5aca0665dbd2a281d1421261eff606577027509870386779a51b30087b87f50c6f68793059ccfa3eaed140604c7ffad0d858c4f3cb5edb0310c79f33623212210e22e915df2ed1ca8443a58d7c86ee06a15cdd281d61d54a86f4ee69cf95d819a2c540be18b6c2799093dbecc0f7b65d5dc663e3199823f4757c03c44855416dadea129411657c0bf8a27fe7f903d60d327c262410711a9cab74798872dcd1cd94a1d0df2d97f132985e1a0fd38274c04a9b7856e076d790b87e38ab80e74241847e1bb0a25b6dedab42d04efff0f76ebf0f71b3fceb032aa750f0acfa0537541fee4770b7bb7b0cf47446cc4266092bc68bbcda324a645c6758a97ab23923ebf29a9216615d886b88d96627a6bc6ab4377738745c9cd63a354d3a1fc01b32fb86cda2672e7566a9a00c3c7fe4745f82738e5a23136f0e0385799567efc0fe71799837e0b8796b37db991df01ba5c9198dcce93cf7e9c8c04fc062b6d61fb0c725e53fba1e7b7979100e0b4e12ad2860ba1f09e359db581e18b2379bd5f2ddd7f9fdf139e4794aa120ab98febc522a4d9cfb983e5623286978eb209c9fe9558068d3e8fe15f9f3a7e932d91b86a02494c273d1cf7f4d0eca7418db38038647d6c709c4d6fbbdb550e100a46eee1f1361be762047eba9699a1785e101c2b79015580def6df9e57ddab0800317aa9041b5b3ea7d8eff15b845f684a69a691541a02124f4298cd358d8d9e06bf8c9c46a7296d039cac0d16e65b192bc4468a6b5a444eac535013406f60dad45d0dbb7094fe50931455470796097fd6aa00b585d6c88abb0c0650013407af682872ec3f10677c6d928c69eb0c71e01a365c2b63afd5f1ce4695c329cf26c4d1790f030a726c2427fb0fa72512d037243ce7dc1979e351d1bc9d2cbf38df46dbef571b12e97114256be590e99049b0284f218660fcdb8ef9af633edb72a7a405cce959bed8e8c11e2b9e642aa8ef073c4a9229780f6acf2b486e3554163c2f8b853ba3579729e26479bd286b7123e7ee15df40bb77396496a6b581a8525dd5387f59d51c0f97dfbf28e67a0326773bb2f1826d15584dd20c88fabdf441bdefd8d988c47696c0477477a67ac7e3746bd3e957ac226bfbd968d47418cc25dd33edf5135c96e2c9bf8d179ccf952be888e25fb5418740a32f0d81f474c9508f401d9f69b049874a8850e1771e7e0dc37d2959c64a32a5115fec6d12da9a5edcd98893b3eb750ec58f0a41a03e3aee9c3abb0fb773c9a6266461b169745bce6f94c4cf26406e3c514bcd5e1414a34be99790fc9959d52cdaa4039ff4351399b897b00da1bdded2b0ba49644be3343021f6d8f14f6e3a7be3c39623e0015dcbbd8354bcf2d5c54fa1bca282e6eea31c017ffad45b82d34eae78d128f1dc1599562a1aef7d344ca15966d415aef5776e80c52cb924d4d5fa6c65bc053226af8524be2f5d974369fb81153940b752b94fee7ba56a0871b0bfb970d2b28e0d2cbbf485328d4131d9b47264808bca56c553e50ca8db6c690c588bcfa9d98b45b25a1967375ced4908f56974c99d1d5f5cbb636c9f934f061bb3ecd7291fe01047c0d782ff989e810f7310272e5e8cc563f38b94cf5be8c1cd3d8fb62d4c9cc5247338c7a872ecc54c710f97253364069f64a8f5b15bc19dadb30842e789c88bee7f57f4602d0f633a808b4b972cf1f9e6152786d8f15c4bd7a1ee4537112d1ce340fca9ab97e9b964cfcbe89b106e767fd1261d791d21c4f45679441b920c8c157039e93f601331fc1df1d6cd46c18be2d923a221b4e36fc4fc9f28323061179ccc91d6bcffdd2b5a3a5885545c528a30cb8d96cb4c85f1eced4d3bd59bf1a2687828a292e6c0eb1949f1291274fd5993e1cc5f2be13fb55286ea6ada823f395a2499eeb119405fe7555bb3b2cb0ad14aac893c6d53b8c3ab81ac71d580c0e34a14a586c81e173165682ab0a4997a01f59d42b026cda1c4b5be9278deef4e571c64ae98f00000beeeea0882c8a0a6722db84e5616f5f5b964ccd058bd8093e7239a98d4fc757b2bd5b54e16d25db60677ad4f4128631792c06015d8896136fff281b4803c0d3970b5dcd78689166d0d9b2ee50523e62cdea524ea5d8ee78c2868e906f1260dcfc2d6877d8ca7e07eb004a7d4c27d22613a2b6f8cc551815df70a8edc76bc33ca4b07cf6fbb3d7f4fb8a1230129fd297f83a2b1f674a4dc497cde8d8468f337bb92089b51e0846bb7d2d5c019c734362d8faf8326930d2d6d77bbe68d91b5978d82ca96c7dd25f07d9603ffd6b547bea76da7c957b7c1eac0b2213a20c931bb9a55aee6e006fb959898e141459553b1a601b86338a7cd14decfda03538a3cdf82a0abba7964adad984d4ab57a9144abff94c17b7acd43983f73e942dc90e1c7e18c74880b2e9d5fcd8b5c97bf4ce353b9de779ae82cb29b168c98aafbf1e814e0980e24c2241b4eb729b11ebbbf6141bfbf1931a34a6c8efba991a7d36642e6fb4249b3c495dfb7defabe9eb8e6b1d74c22bfd6feb07a00b377576877be0ebc74bbf92193580a08903ee98bb55a53e831f1b478a07eec2a9c2d94f4f0ef439a7d808edd13192a703f90497341aff865b64fc6c74830cfadb5c6679ac24d8fd514c86b39c24189e6733eea707e94e816ae274cdf21c60ec74178e59a090144e5bcc0bafb2f43c2b3d077678e0a84fe35e3edd6924a3a07b3d38745909783b8baff58b5c450b82218baa0e2937a2c22a31d0278d79e9321610a64e4e1f761882d0c7a9c57a9f89e8722a09b70e1c562068728ec3556e7d606a45486789bd31a93a329a99a08beec937db3e323d719bf9040d458924e51bc3626b697d7659ad91a78329776c5875dae994335fc12b70e85afad1f73fccfef958b5685dfb4a1fc1aeb4735aee2d3641a34a8de29d75e43fb792de7d50fed9406f8fea971bcf6a4d0c3655b143418d4e233f664828911df148b4421241a670dd1055f31cc05292fbf17bb43bf5da7040a9834829cd97999c8feea3c23e582deafd0196990109d1bf70c663043381c9779779822403c87a12c6fd9e4fff0eac361bfe8f6fadd8fc424d0b0c22293c5664656c7d88898e919ab5c6cbe1073b53626c747c8d9fa6b0d2d4e3f4fdff1f203c455354698c909b9eadb3bdd4ef031623337d95a7a8b9bbc4c9ced7d8e3f700000000000000000000001324344501",
        "0065930a655d35b271523726937a8247d22ea5de3eafc2ea8ad866269ee958ebedd153cb61a2a7b175a3822238b4ac33006e9ad725b4f762f282dd462e5723d92bfe355c516ee56245f143a356dbfbbfa6e556e3582dbab0c13a7755cff6b8395aef37b137081c76d8d34a12c062fd9465311af4f6bffa723dedca8a28bda874fb3a1846bb39d511de20d034a0efc2af0db7dec15004a268857ab18c370b733b2fdd1d78294866339bb1b4e9f14e648b4a8c8f531532cf611b01dd352ae716ac60859bcec1b755278a8359feaedd05a610812cbf53102f6576e10f688e8ce2485f408912f0745d1688cc5db5be2fab577a760ab778f9797745fedaebbf620f728a5f29903ecc8e67837c7edf049a1654288bd7ce589b83c148fb3f00beff2557235219ba8da2fc2b5ed88f1b49cf81c71d6c7fadbd12aeee92b27607cead3e1b5c4f5ec0626e2de69e1cdbce5c64742f36646ff15ed3a43bd6795ba9e5b3fb4a4cb55481c1acd69097b24cd1ba08658b4a80aaa63a305f1da96eb0c5847d2836fc6239af11981b89d09c138e09ba023944937fa5ba4a6e9fa57500b55234abb4e9915156276e939292c13c99baf19fd227f294964bf863919b4d2b76cd3f641fd4ac7e115cee0bb55f03a8797057871ed3fdca45f2d8dbf8a5c0e314ea30f421c8ede80b9eaf73b3b062f7d92aca8d61cc16261ae313bec9aa11f5156a15a6fba3f9e39bf94dfa4f564cdcc0c277fa4927d40df65c6bcaabaa5f0a379c479a7d7b90d911abab13257e981c4a4e6e558250bff719ca86aca7a07332c99b5d273ceb6fbc10073e45a80efa627943bfbb14dbefa6276ed3e576233689b1d13e8de23deee437cb1be14bea55b651d4d8451c2d1cf87b1dcc46ae3efc991e6fd39fa41dad9b9d6308e86cc7a5117eb7bebdaf798f6191c32a210b2c6911753330888c810e60842e4da789164db1ecf04a1fad5f8c707fde6aca9accacd63dd94cf170c59cf8e23714f4df1487f4409d990f5b66bc6740d854a7926213c17484f5a9c4a19bf98be59d2698025b4a7d914593f928da29f900598e5b41ae058f264328d482653c6f7d1a3917bb31e9f72e5ac6e386901f5835202ee430e51650cac5c0775200e12941e2307cee319c98201130f5bdb5b4e8db85780f0c378d70ba4566575394a94c845619bc281b282479f2e4ddf573b0f1e38454fe11c3be8479b6c18f4c11297c1bda334d060ae336d2adcf296bdf5f668118c2e659defd588b0ac79347f81951cc37217d844df5667506a1b4c8ffed5e4a5b26952348a12f5b1c3e3867befaae5d9f8e71bc19e845d33be25f6df9d3eaea142ed70ba4ae3a05ad7777fe47d57f7654cd0350d1de072e1d1c57efc04381849e525206224b640719becac09351f6abbb3def51f1aad6c1411e968ad6da13190baaaed4ddbd84c2c57a626160bb6568b576c17593f4fa5581f8450edb07eda2e185bca26356c38f4cfdc5aa69c1fb65d47f7b857cbc743c75489b7fedd5a1a6318377e06fa8e462cdbfcbbe1cf8a3586e200ec8689abc995404f6d72e6d1e7e307929ac6fa74b08af4b41478ef343ec97e27a7fdaaea10757c05b3dfb816b9e8788d87d33f3a1774fad1279469d67ffb377f8e091d560afe78a1bf537bdbae88357800976013ae7e3dbdab2030a009765abc606fbd4de9d9752ac904f79b8cb9e4d17443fb1600fb3819d1c133a136b5173d7d5304c5a009dde68f538455c933911cfb4e8638d318126758f424949c6f42f7a2b3b6ccdbf69adbe26903e15f0d34a4ad14db713d9548380d9368711e266df0b51e7a6c2b5cc8287b45c085d1e14c45867d7be59afb6a25c84"
      ],
      "sequence": 4294967294
    }
  ],
  "vout": [
    {
      "value": 499969.493,
      "n": 0,
      "scriptPubKey": {
        "asm": "1 32458be1308f0c747008795053b608474a845dca3c2da7d71e3626c98ad476b0",
        "hex": "512032458be1308f0c747008795053b608474a845dca3c2da7d71e3626c98ad476b0",
        "reqSigs": 1,
        "type": "witness_v1_scripthash",
        "addresses": [
          "3QJmnh"
        ]
      }
    },
    {
      "value": 1.0,
      "n": 1,
      "scriptPubKey": {
        "asm": "OP_RETURN 7a03737e019b5a0a9cec26d6b36b1057084ecab5a5d14c60dc16e771fb483913 3dea17f8f212615ffecf094b6a19940c0bf5a1363c2b1b20c25151c0626394451dca37d8d232417fdeef296b4a39b42c2bd581161c0b3b00e27171e04243b4657daa57b8b252211fbe8f490b2a59d44c4bb5e1767c6b5b60821111802223d4055d8a77989272013f9eaf692b0a79f46c6b95c1565c4b7b40a23131a00203f425bd6a97787292e1df7e4f89cbea99148c8b7521b6bcab9ba042d1d140e2e314c59d4ab75852b2c1ff5e6fa9ebcab934acab5501969c8bbb8062f1f160c2c334e5fd2ad73832d2a19f3e0fc98baad954cccb3561f6fcebdbe002919100a2a35485dd0af71812f281bf1e2fe9ab8af974eceb1541d6dccbfbc022b1b120828374a53dea17f8f212615ffecf094b6a19940c0bf5a1363c2b1b20c25151c0626394451dca37d8d232417fdeef296b4a39b42c2bd581161c0b3b00e27171e04243b4657daa57b8b252211fbe8f490b2a59d44c4bb5e1767c6b5b60821111802223d4055d8a77989272013f9eaf692b0a79f46c6b95c1565c4b7b40a23131a00203f425bd6a97787292e1df7e4f89cbea99148c8b7521b6bcab9ba042d1d140e2e314c59d4ab75852b2c1ff5e6fa9ebcab934acab5501969c8bbb8062f1f160c2c334e5fd2ad73832d2a19f3e0fc98baad954cccb3561f6fcebdbe002919100a2a35485dd0af71812f281bf1e2fe9ab8af974eceb1541d6dccbfbc022b1b120828374a53dea17f8f212615ffecf094b6a19940c0bf5a1363c2b1b20c25151c0626394451dca37d8d232417fdeef296b4a39b42c2bd581161c0b3b00e27171e04243b4657daa57b8b252211fbe8f490b2a59d44c4bb5e1767c6b5b60821111802223d4055d8a77989272013f9eaf692b0a79f46c6b95c1565c4b7b40a23131a00203f425bd6a97787292e1df7e4f89cbea99148c8b7521b6bcab9ba042d1d140e2e314c59d4ab75852b2c1ff5e6fa9ebcab934acab5501969c8bbb8062f1f160c2c334e5fd2ad73832d2a19f3e0fc98baad954cccb3561f6fcebdbe002919100a2a35485dd0af71812f281bf1e2fe9ab8af974eceb1541d6dccbfbc022b1b120828374a53dea17f8f212615ffecf094b6a19940c0bf5a1363c2b1b20c25151c0626394451dca37d8d232417fdeef296b4a39b42c2bd581161c0b3b00e27171e04243b4657daa57b8b252211fbe8f490b2a59d44c4bb5e1767c6b5b60821111802223d4055d8a77989272013f9eaf692b0a79f46c6b95c1565c4b7b40a23131a00203f425bd6a97787292e1df7e4f89cbea99148c8b7521b6bcab9ba042d1d140e2e314c59d4ab75852b2c1ff5e6fa9ebcab934acab5501969c8bbb8062f1f160c2c334e5fd2ad73832d2a19f3e0fc98baad954cccb3561f6fcebdbe002919100a2a35485dd0af71812f281bf1e2fe9ab8af974eceb1541d6dccbfbc022b1b120828374a53dea17f8f212615ffecf094b6a19940c0bf5a1363c2b1b20c25151c0626394451dca37d8d232417fdeef296b4a39b42c2bd581161c0b3b00e27171e04243b4657daa57b8b252211fbe8f490b2a59d44c4bb5e1767c6b5b60821111802223d4055d8a77989272013f9eaf692b0a79f46c6b95c1565c4b7b40a23131a00203f425bd6a97787292e1df7e4f89cbea99148cc8c6546cb5eeee595c8617b103f096d43c6ac34c3076286f7427eeca9db1a2e6",
        "hex": "6a207a03737e019b5a0a9cec26d6b36b1057084ecab5a5d14c60dc16e771fb4839134db0043dea17f8f212615ffecf094b6a19940c0bf5a1363c2b1b20c25151c0626394451dca37d8d232417fdeef296b4a39b42c2bd581161c0b3b00e27171e04243b4657daa57b8b252211fbe8f490b2a59d44c4bb5e1767c6b5b60821111802223d4055d8a77989272013f9eaf692b0a79f46c6b95c1565c4b7b40a23131a00203f425bd6a97787292e1df7e4f89cbea99148c8b7521b6bcab9ba042d1d140e2e314c59d4ab75852b2c1ff5e6fa9ebcab934acab5501969c8bbb8062f1f160c2c334e5fd2ad73832d2a19f3e0fc98baad954cccb3561f6fcebdbe002919100a2a35485dd0af71812f281bf1e2fe9ab8af974eceb1541d6dccbfbc022b1b120828374a53dea17f8f212615ffecf094b6a19940c0bf5a1363c2b1b20c25151c0626394451dca37d8d232417fdeef296b4a39b42c2bd581161c0b3b00e27171e04243b4657daa57b8b252211fbe8f490b2a59d44c4bb5e1767c6b5b60821111802223d4055d8a77989272013f9eaf692b0a79f46c6b95c1565c4b7b40a23131a00203f425bd6a97787292e1df7e4f89cbea99148c8b7521b6bcab9ba042d1d140e2e314c59d4ab75852b2c1ff5e6fa9ebcab934acab5501969c8bbb8062f1f160c2c334e5fd2ad73832d2a19f3e0fc98baad954cccb3561f6fcebdbe002919100a2a35485dd0af71812f281bf1e2fe9ab8af974eceb1541d6dccbfbc022b1b120828374a53dea17f8f212615ffecf094b6a19940c0bf5a1363c2b1b20c25151c0626394451dca37d8d232417fdeef296b4a39b42c2bd581161c0b3b00e27171e04243b4657daa57b8b252211fbe8f490b2a59d44c4bb5e1767c6b5b60821111802223d4055d8a77989272013f9eaf692b0a79f46c6b95c1565c4b7b40a23131a00203f425bd6a97787292e1df7e4f89cbea99148c8b7521b6bcab9ba042d1d140e2e314c59d4ab75852b2c1ff5e6fa9ebcab934acab5501969c8bbb8062f1f160c2c334e5fd2ad73832d2a19f3e0fc98baad954cccb3561f6fcebdbe002919100a2a35485dd0af71812f281bf1e2fe9ab8af974eceb1541d6dccbfbc022b1b120828374a53dea17f8f212615ffecf094b6a19940c0bf5a1363c2b1b20c25151c0626394451dca37d8d232417fdeef296b4a39b42c2bd581161c0b3b00e27171e04243b4657daa57b8b252211fbe8f490b2a59d44c4bb5e1767c6b5b60821111802223d4055d8a77989272013f9eaf692b0a79f46c6b95c1565c4b7b40a23131a00203f425bd6a97787292e1df7e4f89cbea99148c8b7521b6bcab9ba042d1d140e2e314c59d4ab75852b2c1ff5e6fa9ebcab934acab5501969c8bbb8062f1f160c2c334e5fd2ad73832d2a19f3e0fc98baad954cccb3561f6fcebdbe002919100a2a35485dd0af71812f281bf1e2fe9ab8af974eceb1541d6dccbfbc022b1b120828374a53dea17f8f212615ffecf094b6a19940c0bf5a1363c2b1b20c25151c0626394451dca37d8d232417fdeef296b4a39b42c2bd581161c0b3b00e27171e04243b4657daa57b8b252211fbe8f490b2a59d44c4bb5e1767c6b5b60821111802223d4055d8a77989272013f9eaf692b0a79f46c6b95c1565c4b7b40a23131a00203f425bd6a97787292e1df7e4f89cbea99148cc8c6546cb5eeee595c8617b103f096d43c6ac34c3076286f7427eeca9db1a2e6",
        "type": "nulldata"
      }
    }
  ],
  "blockhash": "f7496688ea8085f6c88d1199f2534797ba9d5c262af7501e5ddf271dd00b2202",
  "confirmations": 1,
  "time": 1764181480,
  "blocktime": 1764181480
}