{
  "hex": "010000000001012b04c7909af4706bea9b63f33d9ccd67e2951605741b5734f7c67a5aa51364550100000000feffffff0200e1f50500000000fdd5046a204e899cc0474fee6f3b064e281f360a5d5a3d672e9152534df2c0eac956ee88c44db004b3872d056034cbe931de7aa81843ac81bed51f17e2526108d14baf5549a2e90d93a70d254014ebc911fe5a8838638ca19ef53f37c2724128f16b8f756982c92df3c76d4520748ba9719e3ae85803ecc1fe955f57a2122148910bef1509e2a94dd3e74d650054ab8951be1ac87823cce1deb57f7782320168b12bcf3529c2896d3307ad85e0b44b69b15efa2898c32c013e559f9762d2e18851cb2fd5c922698d13278da5c0946b49917eda08b8e30c211e75bfb742f2c1a871eb0ff5e90249ad7347edc5a0f40b29f11eba68d8836c417e15dfd72292a1c8118b6f95896229cd5367cde580d42b09d13e9a48f8a34c615e35fff702b281e831ab4fb5a94209edb3872d056034cbe931de7aa81843ac81bed51f17e2526108d14baf5549a2e90d93a70d254014ebc911fe5a8838638ca19ef53f37c2724128f16b8f756982c92df3c76d4520748ba9719e3ae85803ecc1fe955f57a2122148910bef1509e2a94dd3e74d650054ab8951be1ac87823cce1deb57f7782320168b12bcf3529c2896d3307ad85e0b44b69b15efa2898c32c013e559f9762d2e18851cb2fd5c922698d13278da5c0946b49917eda08b8e30c211e75bfb742f2c1a871eb0ff5e90249ad7347edc5a0f40b29f11eba68d8836c417e15dfd72292a1c8118b6f95896229cd5367cde580d42b09d13e9a48f8a34c615e35fff702b281e831ab4fb5a94209edb3872d056034cbe931de7aa81843ac81bed51f17e2526108d14baf5549a2e90d93a70d254014ebc911fe5a8838638ca19ef53f37c2724128f16b8f756982c92df3c76d4520748ba9719e3ae85803ecc1fe955f57a2122148910bef1509e2a94dd3e74d650054ab8951be1ac87823cce1deb57f7782320168b12bcf3529c2896d3307ad85e0b44b69b15efa2898c32c013e559f9762d2e18851cb2fd5c922698d13278da5c0946b49917eda08b8e30c211e75bfb742f2c1a871eb0ff5e90249ad7347edc5a0f40b29f11eba68d8836c417e15dfd72292a1c8118b6f95896229cd5367cde580d42b09d13e9a48f8a34c615e35fff702b281e831ab4fb5a94209edb3872d056034cbe931de7aa81843ac81bed51f17e2526108d14baf5549a2e90d93a70d254014ebc911fe5a8838638ca19ef53f37c2724128f16b8f756982c92df3c76d4520748ba9719e3ae85803ecc1fe955f57a2122148910bef1509e2a94dd3e74d650054ab8951be1ac87823cce1deb57f7782320168b12bcf3529c2896d3307ad85e0b44b69b15efa2898c32c013e559f9762d2e18851cb2fd5c922698d13278da5c0946b49917eda08b8e30c211e75bfb742f2c1a871eb0ff5e90249ad7347edc5a0f40b29f11eba68d8836c417e15dfd72292a1c8118b6f95896229cd5367cde580d42b09d13e9a48f8a34c615e35fff702b281e831ab4fb5a94209edb3872d056034cbe931de7aa81843ac81bed51f17e2526108d14baf5549a2e90d93a70d254014ebc911fe5a8838638ca19ef53f37c2724128f16b8f756982c92df3c76d4520748ba9719e3ae85803ecc1fe955f57a2122148910bef1509e2a94dd3e74d650054ab8951be1ac87823cce1deb57f7782320168b12bcf3529c2896d3307ad85e0b44b69b15efa2898c32c01c7b386f25444e68e12acc35e1b5c221dedfb42055d33eea2af5a3ca3d15662fa3079f9a7782d00002251202843ca4aa650d5a753475662d2f5b6f7c6ae05bea97f979be60b30218a81762902fd75090b2ff0515026a37aaabc96f4e4585c84f14ae35ebf8a8d65c8c739bccc24b63d0e8ee47f3a6404cef80715b33487d747ee702c1476814837b2a1f0ca9d1253962ce2f546b9b3d31368d3ac031394c167a43328338ee1d9d021172823a44a65c4d23ccde9caf2b834298f5dcbcd52f44dafebf4fac2689f1b93c8d66063e1b575f59db0cf196c5679835897faaab6a65899d3af485f1c520a6995f6b2f726d45fa062aeb718a9709b1b44d20ea693283e04618aa2130b5743450207e4413de9ab1a041074892a3e16322cc8f07509daaad2a3664ab222ff952b730f1071c3bb3d0e786dcd1022e786f638447895cb2414c4c62395e24bb72dc876b44dcfec2d31d1809a3430234aad794462637f27e1cde71fd14bc659e7a8180f382491c31df2cf2e068df84787ce7f5bbc9544cf3947f6f1b92817b3c414e49a96ee99a17de87cee7b8f709e19d8063133a6f744f82c105043c46511d2edc40019f5f8627032d53b2596f542d19214601c2bd63439a78ec406d388e54207551759218ee3a92114e46912ea66223294c3e2dec8ee238a9444858d2bb9ab5d1029c7a8f816b794ff177d28ceaf1c2f242baced38c6c64867c286644643a1ece78864aff84bc329a7feab94219b7d05d2801ebe244140599b1c55aa842a8acd239c097800940faeed9a3654a482df9990d95b2851835a4e20f1b0726a6a221f5ddead69469672c81fecc72ee1c36dd37da15574fe6a26232aa54f50d64b1175f6995d111cf0263d8f491e3d7f019358f57c3239cef601a9f17d8a9bbb61a5f0f90e20e72c4b9b81cf597bf326f9e026a179aec045c574ab6bca791c449056795e70849ce460d1d3b3495efbbeb5e132bde30ab26c21e5d2587b76bafed30ef5142a5f3ab07b9f7a4abeaec5cf9edc2a0727703b505271a99009244bfe9fcab4a5fd2bd1b56c338a1dec9255bea8697b1bcaf81fcdffcf7ffebafee28c5b9e51069278e28731b4a194f40d9d1e7bc58563c5ac6d5c81082c5874a973743bd18ec5dad0c3ee872660b4fb20d26925c54d20b368c38b6800267e1a5ef9b087e532e468e0a46ff5be2ef074942c9bff6528ed8588e6b3365f8f5ada2eed128ad66960aae0328b9f2a164ea4105c950ed0ae02b5bd6188ffd0439ea1965a8143921381a0186febcde2c77dc36c6e5cbe3a075cdf2fc7f8e81b7cb2c5e8ae90ebd6d953a83923ec659379f55a70b5e96980754f92fe9c3654f06fb75b0a5e7cc4aa1911de86119001b2b99f8c0f212754bcfd3fffce4d9a325149f8478cc93ee227a8807cf921a198392907f414025b17bdd026d4d0bd6e5dd9aa2fc68fa359d5da5f8bd4e325512e406e650966dba848591629dee74c7a8d0d1e4429bd711a21f62993eaf20e3eeb7d17099255449f3f9a6e98435247f7ac38c9cd1afc1ab97f4ecc49c1d698107bd74a42f55f5b39dc33df18d6edf95c3f474b634a7229e8f008d9826e8e3515c3560c4b421213a54c09a79799f817c1cb4f79c6671d179d18d4eb7bbd565e552e8a614053f6745c77ddb386dddfa6817ac9e626fe77bb3232674f858a6e0aafe3bf589bdbca1953b4860acd6a550da5e86ea3069ab4a5f73e6fc729c979fd287d0957445f90b2e67eb1d84784b1986fd1acaac69d3bd5607b2731dcf0310dec46f36d2d6822c7ce5dc7111629c03e587f57701b31b2429d2bf396d84a0c6a62d285aaa75521afc96f8a7f5b14270cfc1e4604e582d1b00da041dce91217e0f509f96c4b9f3e80affce42cce0530be938ffbd8d168bf0a32b17ec7115825b0bd11617a4b92abd8591f80f6144f0dbfe9069f174561df103c91bb6e4732caa8256573704868e5afa00074212eceaa1844b5b879f3821cc1c653b80a681e82756b3c57ac54f7b41b1ef808ab353f0efd8180be1808aa85c29140d391bf501e94e9ec94c48809ddefe8dd1b26118d351954f6e85ddaf4ee4c8f508b03c70a80f5e0a17893663578cb5aa306cc5053587a5b6e86c3ef304df4b68568a6bbb505a042cea3675ebaae5f059bb7d94ab81b57d94c83e3bd24f0d5286d5ee3bccca8a85321dda8fdce73c1cd89207e71d731dfa02401f8532289effb7c54a34abe2c778e919ee206a2ee7b966e0d19e02a223a3f741d65ed503ce109ac9fd107101e105237a6c9905c3f99d819fd4181fc6a9986cdd1a5f40b2f70f84668a4bdd1b0e3b543c57a1e8d4c8c3fe557dd6a4d1abef109d83159ed22b4ea037f5c06d6ed154b85e866d31a7f51e7b3334c92716191e698a5e204aa796ca84ac00457e2fb2dd96d88b1795614b3549bff29890b294e2baef095740fce90991c94038ec1f8c42164210f375e8dc8999ad00fbfd033bdb1e34ee113c3c18965a0d06aaada0d7017d08e92292acc69691547fff4452155310cf2a9ac0b690ae3a1da315aed8aaf708ccff28e8cf8fcde2fb986a1c78f78b53257c3ac9e52c3de87b1d8d2e746b181b9c45471a57ee8fca20f24eed0eb1321f218bdbc2c73069711c092aa621c782eaea43969763a5c9e77b1942946efb595fc9f2335248df4209567688d836ed3320d927cae56d5820796fc6c6e45357252b55008d75fb82133d1b79bb01aac44b0ee69798801d1ed4378847bc38caecf194fd76108668a43cdbe32106848b2c1094dcbd14cb0641ea19990d662918b035358e02e96adaf8e446670d7a08b68d77e4b372f7575cb105e4bdeadcad84f99361c7780d6fc6c158c5652b1ea1403c14a41debca271514ca1de88042bc83d714ab60689699016084310e32fc62913aeb28042cff665f318bdbd367143c48d9fa31833586b4befd6148e74c8d26ac9f85fbd424f5a133f788b704e4ae2f4efb088b7825fcd326587ce512556958c692aec456a73c7e0370ce1d290bcadd6cd5292c49d6b8a8139dd337384b5e0c5d2cfef83de7ffae85f578e8b8a037862f73dc9eafe4264f88ea4916943dd75041fa48ae84883bf694ef9a60ef7f55bdb7b051ffdcb9267ccfe202ed30fcd90907e8f1a23cac50d9f847b49209fdfbbdf7766bdd056e7248817010cc1b8e3da194189fe0f4dbd7fb3863d196d9a791a52a179760df00e404a72d1080efcaab6c4700ca32d35c510833fc7ddfa39a71707371cedcfe0d2e48f48cd032d195b3056941156b8d3ff4515875ffd3c010332677874c702e2ac0f4e29c103415bb5750980972b8435d1bba63dda6974e78042d85336abd0f650eff27060fc03bf62ac56505f48765c5debeeeada5ec72b20f6d77c139436125a0178361c003f48521f5b968d55435ed82631384247495561667074768e91a2a7b1ba767887b1b9e5e9f5f901101f203c3f78a4b1b3b9f71a1c29353c3d575c849096b7cfed000000000000000000000000000000000000000000000000000000121b273501fd21050068b97fd7afc989581914d93616874f06ec6e6060ef56ba623209fd340d25251c8567a97d743d8693e43b1a2cbb30293825187ee995597de462b2d0e7ca1840148dac087ce94b3f0983a0411667ed83d8e80a58ccbfaaf4f16c996d182fed68603d9c07ea598a940bcb5cfb78aeda759bfddecb136d1f7cbbf3d8d6ef8e55552cc9905b69ffe1a48629503613007cb5096c681f952dcea557621ca8f85b232cc98601166d91fdbd40de1789397528fa33cb4b2bcf10698b31565b3dbeb1796cad4ab297837a16a7a1a911f45f8290f1a488a36a694708ddde2249a47db5e8a0d0a7792e12caafe109544db73dbdcae47a1372136fc2d0182f08e383427503d7191f599b5a3a4e449bad9c4c9361857afc70bf133d063cb114849d89f03b6e1bda02aed3e76a322b63087e6cbb51e29cecc74157b79db3ed051392d6898012fcfa81d44aa66a3c015ef9d5275a2202b19de7b5428da2d1a0ed37f732c18c75b88eddf7588d0cb7a1812e027795dd57609126344426017073fc15a41a011f4a15bd04e88f4256e3326c18f4d7fb5e504728392ff31a26426a03d42ca265c273efc47f5dad8830575f0de80e90d9366f7bb8d982138719a2990058f3ff8a90171502517d89f9de0539226626cb0eeac5420fa931307d1e1e101c318a3aec10a66d6ce27071231ff8020da8e3218ca260c1976d3f8b77290495077d82f908d06cf5cb72d6813216e5bba8dea1d0331644e55d7968611b84fced2d937215b9497e20d46a1244c520367722783dc7242187ccd106f9436f6aa1526fe7c9b7290cc9dc462b0b505a441e9eb346f8d49cd6499ccf6ae66c6f6c6ae77ccd61f75ce00968435170e74ffabc4a3bab1cf3a629737491cc0a8bb19615e480576cd211622a28df185f7ffc2b5211cf74b130a07a9f392d837da1ac683c9da64212e4d16ac915b9511c80d387b6e79ed2882dd6216dd3d3b2f6b3288e6c52204fae4415c654e9ee52db976dc13e61ea3152c3d5793831636a8f6f6301516ccf4c770022b4ec2ca252f2358be7a760b1b9405c1ed56e2f742e8412b57cb4bd6a53c563d4104c1c0281a83e3aa2499b3f2e3d3e107c8aacc19c4a5e2b73d8095f926dd64d05ec12e3a75a5aa76dcf26d86819e1b7718dc2942cfa9315fceaf5f96b62ffce0b3dd57024d2fd04e6e4e67d24294bda2779ce339371dee9a67ecfb1ef6555e6171af4744d7b6a98e2d839c6adfefd2cc2b63e216d6b2dcfd98eac8cb7ab1adb0339c12bbc119eb4dba1d2cec06c35f9bbd3ce76d7b75822fdad70a0a82d0cb80ececb137137b3306f4381a9b8e9a0ef73216dd1d6ee7ed80b9cd5314e390426daee939ee42ef3ccd4e75da672a9aec64ef918181846c70a6ff83e73bfad14fc8a6213442681a8bb65127f8c0c07a938132f74208878b5943d0fafc2c6fe532c0ee0e1d57ff5ae2acde86004fbe1a9de7b39b49271d36124427f9c63d2a413b5ce28ce6e573f0fc157f9f4e0c0993040b51772a418175f17c80a42812c241d838ef9ec93212443c3c0ab1285fcacdeac38d9e0959b99369bcb32a2139b830cd5d2f363578255bbb7e0adbf6969d60d3af4f4bbc0a24a61f36daa30339cba328e522a0844d8c0e29bd06cee0dcefc010d5919e246e7318ea5af65be0155aa652bbd2a014c60cbd3eeb78e55338472eb67f4f58be70237b29e39803c183d055084cecb7c6beb1b2030a512e5bf8adb130b39063e916f1e49b943e8586f2809970e00f4d0c2f24d3b7c88ef29e24b443c2692000c98b79e4bdb48ad92e3eaf91112749cb4e3226c69c432c15b9a5aae8138d356377530310557f2daa736aa68eb76629968c488000000",
  "txid": "2442dd17b5c6148adec1268c9e64cb831f8f6e6d9eb7b40a8f0fff95f874f6c2",
  "hash": "dcda5b5efc4783a276a894dc2cd9fa08fa6d334a714b9cc3490cd3cc7b6143af",
  "size": 5085,
  "vsize": 2278,
  "version": 1,
  "locktime": 136,
  "vin": [
    {
      "txid": "556413a55a7ac6f734571b74051695e267cd9c3df3639bea6b70f49a90c7042b",
      "vout": 1,
      "scriptSig": {
        "asm": "",
        "hex": ""
      },
      "txinwitness": [
        "0b2ff0515026a37aaabc96f4e4585c84f14ae35ebf8a8d65c8c739bccc24b63d0e8ee47f3a6404cef80715b33487d747ee702c1476814837b2a1f0ca9d1253962ce2f546b9b3d31368d3ac031394c167a43328338ee1d9d021172823a44a65c4d23ccde9caf2b834298f5dcbcd52f44dafebf4fac2689f1b93c8d66063e1b575f59db0cf196c5679835897faaab6a65899d3af485f1c520a6995f6b2f726d45fa062aeb718a9709b1b44d20ea693283e04618aa2130b5743450207e4413de9ab1a041074892a3e16322cc8f07509daaad2a3664ab222ff952b730f1071c3bb3d0e786dcd1022e786f638447895cb2414c4c62395e24bb72dc876b44dcfec2d31d1809a3430234aad794462637f27e1cde71fd14bc659e7a8180f382491c31df2cf2e068df84787ce7f5bbc9544cf3947f6f1b92817b3c414e49a96ee99a17de87cee7b8f709e19d8063133a6f744f82c105043c46511d2edc40019f5f8627032d53b2596f542d19214601c2bd63439a78ec406d388e54207551759218ee3a92114e46912ea66223294c3e2dec8ee238a9444858d2bb9ab5d1029c7a8f816b794ff177d28ceaf1c2f242baced38c6c64867c286644643a1ece78864aff84bc329a7feab94219b7d05d2801ebe244140599b1c55aa842a8acd239c097800940faeed9a3654a482df9990d95b2851835a4e20f1b0726a6a221f5ddead69469672c81fecc72ee1c36dd37da15574fe6a26232aa54f50d64b1175f6995d111cf0263d8f491e3d7f019358f57c3239cef601a9f17d8a9bbb61a5f0f90e20e72c4b9b81cf597bf326f9e026a179aec045c574ab6bca791c449056795e70849ce460d1d3b3495efbbeb5e132bde30ab26c21e5d2587b76bafed30ef5142a5f3ab07b9f7a4abeaec5cf9edc2a0727703b505271a99009244bfe9fcab4a5fd2bd1b56c338a1dec9255bea8697b1bcaf81fcdffcf7ffebafee28c5b9e51069278e28731b4a194f40d9d1e7bc58563c5ac6d5c81082c5874a973743bd18ec5dad0c3ee872660b4fb20d26925c54d20b368c38b6800267e1a5ef9b087e532e468e0a46ff5be2ef074942c9bff6528ed8588e6b3365f8f5ada2eed128ad66960aae0328b9f2a164ea4105c950ed0ae02b5bd6188ffd0439ea1965a8143921381a0186febcde2c77dc36c6e5cbe3a075cdf2fc7f8e81b7cb2c5e8ae90ebd6d953a83923ec659379f55a70b5e96980754f92fe9c3654f06fb75b0a5e7cc4aa1911de86119001b2b99f8c0f212754bcfd3fffce4d9a325149f8478cc93ee227a8807cf921a198392907f414025b17bdd026d4d0bd6e5dd9aa2fc68fa359d5da5f8bd4e325512e406e650966dba848591629dee74c7a8d0d1e4429bd711a21f62993eaf20e3eeb7d17099255449f3f9a6e98435247f7ac38c9cd1afc1ab97f4ecc49c1d698107bd74a42f55f5b39dc33df18d6edf95c3f474b634a7229e8f008d9826e8e3515c3560c4b421213a54c09a79799f817c1cb4f79c6671d179d18d4eb7bbd565e552e8a614053f6745c77ddb386dddfa6817ac9e626fe77bb3232674f858a6e0aafe3bf589bdbca1953b4860acd6a550da5e86ea3069ab4a5f73e6fc729c979fd287d0957445f90b2e67eb1d84784b1986fd1acaac69d3bd5607b2731dcf0310dec46f36d2d6822c7ce5dc7111629c03e587f57701b31b2429d2bf396d84a0c6a62d285aaa75521afc96f8a7f5b14270cfc1e4604e582d1b00da041dce91217e0f509f96c4b9f3e80affce42cce0530be938ffbd8d168bf0a32b17ec7115825b0bd11617a4b92abd8591f80f6144f0dbfe9069f174561df103c91bb6e4732caa8256573704868e5afa00074212eceaa1844b5b879f3821cc1c653b80a681e82756b3c57ac54f7b41b1ef808ab353f0efd8180be1808aa85c29140d391bf501e94e9ec94c48809ddefe8dd1b26118d351954f6e85ddaf4ee4c8f508b03c70a80f5e0a17893663578cb5aa306cc5053587a5b6e86c3ef304df4b68568a6bbb505a042cea3675ebaae5f059bb7d94ab81b57d94c83e3bd24f0d5286d5ee3bccca8a85321dda8fdce73c1cd89207e71d731dfa02401f8532289effb7c54a34abe2c778e919ee206a2ee7b966e0d19e02a223a3f741d65ed503ce109ac9fd107101e105237a6c9905c3f99d819fd4181fc6a9986cdd1a5f40b2f70f84668a4bdd1b0e3b543c57a1e8d4c8c3fe557dd6a4d1abef109d83159ed22b4ea037f5c06d6ed154b85e866d31a7f51e7b3334c92716191e698a5e204aa796ca84ac00457e2fb2dd96d88b1795614b3549bff29890b294e2baef095740fce90991c94038ec1f8c42164210f375e8dc8999ad00fbfd033bdb1e34ee113c3c18965a0d06aaada0d7017d08e92292acc69691547fff4452155310cf2a9ac0b690ae3a1da315aed8aaf708ccff28e8cf8fcde2fb986a1c78f78b53257c3ac9e52c3de87b1d8d2e746b181b9c45471a57ee8fca20f24eed0eb1321f218bdbc2c73069711c092aa621c782eaea43969763a5c9e77b1942946efb595fc9f2335248df4209567688d836ed3320d927cae56d5820796fc6c6e45357252b55008d75fb82133d1b79bb01aac44b0ee69798801d1ed4378847bc38caecf194fd76108668a43cdbe32106848b2c1094dcbd14cb0641ea19990d662918b035358e02e96adaf8e446670d7a08b68d77e4b372f7575cb105e4bdeadcad84f99361c7780d6fc6c158c5652b1ea1403c14a41debca271514ca1de88042bc83d714ab60689699016084310e32fc62913aeb28042cff665f318bdbd367143c48d9fa31833586b4befd6148e74c8d26ac9f85fbd424f5a133f788b704e4ae2f4efb088b7825fcd326587ce512556958c692aec456a73c7e0370ce1d290bcadd6cd5292c49d6b8a8139dd337384b5e0c5d2cfef83de7ffae85f578e8b8a037862f73dc9eafe4264f88ea4916943dd75041fa48ae84883bf694ef9a60ef7f55bdb7b051ffdcb9267ccfe202ed30fcd90907e8f1a23cac50d9f847b49209fdfbbdf7766bdd056e7248817010cc1b8e3da194189fe0f4dbd7fb3863d196d9a791a52a179760df00e404a72d1080efcaab6c4700ca32d35c510833fc7ddfa39a71707371cedcfe0d2e48f48cd032d195b3056941156b8d3ff4515875ffd3c010332677874c702e2ac0f4e29c103415bb5750980972b8435d1bba63dda6974e78042d85336abd0f650eff27060fc03bf62ac56505f48765c5debeeeada5ec72b20f6d77c139436125a0178361c003f48521f5b968d55435ed82631384247495561667074768e91a2a7b1ba767887b1b9e5e9f5f901101f203c3f78a4b1b3b9f71a1c29353c3d575c849096b7cfed000000000000000000000000000000000000000000000000000000121b273501",
        "0068b97fd7afc989581914d93616874f06ec6e6060ef56ba623209fd340d25251c8567a97d743d8693e43b1a2cbb30293825187ee995597de462b2d0e7ca1840148dac087ce94b3f0983a0411667ed83d8e80a58ccbfaaf4f16c996d182fed68603d9c07ea598a940bcb5cfb78aeda759bfddecb136d1f7cbbf3d8d6ef8e55552cc9905b69ffe1a48629503613007cb5096c681f952dcea557621ca8f85b232cc98601166d91fdbd40de1789397528fa33cb4b2bcf10698b31565b3dbeb1796cad4ab297837a16a7a1a911f45f8290f1a488a36a694708ddde2249a47db5e8a0d0a7792e12caafe109544db73dbdcae47a1372136fc2d0182f08e383427503d7191f599b5a3a4e449bad9c4c9361857afc70bf133d063cb114849d89f03b6e1bda02aed3e76a322b63087e6cbb51e29cecc74157b79db3ed051392d6898012fcfa81d44aa66a3c015ef9d5275a2202b19de7b5428da2d1a0ed37f732c18c75b88eddf7588d0cb7a1812e027795dd57609126344426017073fc15a41a011f4a15bd04e88f4256e3326c18f4d7fb5e504728392ff31a26426a03d42ca265c273efc47f5dad8830575f0de80e90d9366f7bb8d982138719a2990058f3ff8a90171502517d89f9de0539226626cb0eeac5420fa931307d1e1e101c318a3aec10a66d6ce27071231ff8020da8e3218ca260c1976d3f8b77290495077d82f908d06cf5cb72d6813216e5bba8dea1d0331644e55d7968611b84fced2d937215b9497e20d46a1244c520367722783dc7242187ccd106f9436f6aa1526fe7c9b7290cc9dc462b0b505a441e9eb346f8d49cd6499ccf6ae66c6f6c6ae77ccd61f75ce00968435170e74ffabc4a3bab1cf3a629737491cc0a8bb19615e480576cd211622a28df185f7ffc2b5211cf74b130a07a9f392d837da1ac683c9da64212e4d16ac915b9511c80d387b6e79ed2882dd6216dd3d3b2f6b3288e6c52204fae4415c654e9ee52db976dc13e61ea3152c3d5793831636a8f6f6301516ccf4c770022b4ec2ca252f2358be7a760b1b9405c1ed56e2f742e8412b57cb4bd6a53c563d4104c1c0281a83e3aa2499b3f2e3d3e107c8aacc19c4a5e2b73d8095f926dd64d05ec12e3a75a5aa76dcf26d86819e1b7718dc2942cfa9315fceaf5f96b62ffce0b3dd57024d2fd04e6e4e67d24294bda2779ce339371dee9a67ecfb1ef6555e6171af4744d7b6a98e2d839c6adfefd2cc2b63e216d6b2dcfd98eac8cb7ab1adb0339c12bbc119eb4dba1d2cec06c35f9bbd3ce76d7b75822fdad70a0a82d0cb80ececb137137b3306f4381a9b8e9a0ef73216dd1d6ee7ed80b9cd5314e390426daee939ee42ef3ccd4e75da672a9aec64ef918181846c70a6ff83e73bfad14fc8a6213442681a8bb65127f8c0c07a938132f74208878b5943d0fafc2c6fe532c0ee0e1d57ff5ae2acde86004fbe1a9de7b39b49271d36124427f9c63d2a413b5ce28ce6e573f0fc157f9f4e0c0993040b51772a418175f17c80a42812c241d838ef9ec93212443c3c0ab1285fcacdeac38d9e0959b99369bcb32a2139b830cd5d2f363578255bbb7e0adbf6969d60d3af4f4bbc0a24a61f36daa30339cba328e522a0844d8c0e29bd06cee0dcefc010d5919e246e7318ea5af65be0155aa652bbd2a014c60cbd3eeb78e55338472eb67f4f58be70237b29e39803c183d055084cecb7c6beb1b2030a512e5bf8adb130b39063e916f1e49b943e8586f2809970e00f4d0c2f24d3b7c88ef29e24b443c2692000c98b79e4bdb48ad92e3eaf91112749cb4e3226c69c432c15b9a5aae8138d356377530310557f2daa736aa68eb76629968c4"
      ],
      "sequence": 4294967294
    }
  ],
  "vout": [
    {
      "value": 1.0,
      "n": 0,
      "scriptPubKey": {
        "asm": "OP_RETURN 4e899cc0474fee6f3b064e281f360a5d5a3d672e9152534df2c0eac956ee88c4 b3872d056034cbe931de7aa81843ac81bed51f17e2526108d14baf5549a2e90d93a70d254014ebc911fe5a8838638ca19ef53f37c2724128f16b8f756982c92df3c76d4520748ba9719e3ae85803ecc1fe955f57a2122148910bef1509e2a94dd3e74d650054ab8951be1ac87823cce1deb57f7782320168b12bcf3529c2896d3307ad85e0b44b69b15efa2898c32c013e559f9762d2e18851cb2fd5c922698d13278da5c0946b49917eda08b8e30c211e75bfb742f2c1a871eb0ff5e90249ad7347edc5a0f40b29f11eba68d8836c417e15dfd72292a1c8118b6f95896229cd5367cde580d42b09d13e9a48f8a34c615e35fff702b281e831ab4fb5a94209edb3872d056034cbe931de7aa81843ac81bed51f17e2526108d14baf5549a2e90d93a70d254014ebc911fe5a8838638ca19ef53f37c2724128f16b8f756982c92df3c76d4520748ba9719e3ae85803ecc1fe955f57a2122148910bef1509e2a94dd3e74d650054ab8951be1ac87823cce1deb57f7782320168b12bcf3529c2896d3307ad85e0b44b69b15efa2898c32c013e559f9762d2e18851cb2fd5c922698d13278da5c0946b49917eda08b8e30c211e75bfb742f2c1a871eb0ff5e90249ad7347edc5a0f40b29f11eba68d8836c417e15dfd72292a1c8118b6f95896229cd5367cde580d42b09d13e9a48f8a34c615e35fff702b281e831ab4fb5a94209edb3872d056034cbe931de7aa81843ac81bed51f17e2526108d14baf5549a2e90d93a70d254014ebc911fe5a8838638ca19ef53f37c2724128f16b8f756982c92df3c76d4520748ba9719e3ae85803ecc1fe955f57a2122148910bef1509e2a94dd3e74d650054ab8951be1ac87823cce1deb57f7782320168b12bcf3529c2896d3307ad85e0b44b69b15efa2898c32c013e559f9762d2e18851cb2fd5c922698d13278da5c0946b49917eda08b8e30c211e75bfb742f2c1a871eb0ff5e90249ad7347edc5a0f40b29f11eba68d8836c417e15dfd72292a1c8118b6f95896229cd5367cde580d42b09d13e9a48f8a34c615e35fff702b281e831ab4fb5a94209edb3872d056034cbe931de7aa81843ac81bed51f17e2526108d14baf5549a2e90d93a70d254014ebc911fe5a8838638ca19ef53f37c2724128f16b8f756982c92df3c76d4520748ba9719e3ae85803ecc1fe955f57a2122148910bef1509e2a94dd3e74d650054ab8951be1ac87823cce1deb57f7782320168b12bcf3529c2896d3307ad85e0b44b69b15efa2898c32c013e559f9762d2e18851cb2fd5c922698d13278da5c0946b49917eda08b8e30c211e75bfb742f2c1a871eb0ff5e90249ad7347edc5a0f40b29f11eba68d8836c417e15dfd72292a1c8118b6f95896229cd5367cde580d42b09d13e9a48f8a34c615e35fff702b281e831ab4fb5a94209edb3872d056034cbe931de7aa81843ac81bed51f17e2526108d14baf5549a2e90d93a70d254014ebc911fe5a8838638ca19ef53f37c2724128f16b8f756982c92df3c76d4520748ba9719e3ae85803ecc1fe955f57a2122148910bef1509e2a94dd3e74d650054ab8951be1ac87823cce1deb57f7782320168b12bcf3529c2896d3307ad85e0b44b69b15efa2898c32c01c7b386f25444e68e12acc35e1b5c221dedfb42055d33eea2af5a3ca3d15662fa",
        "hex": "6a204e899cc0474fee6f3b064e281f360a5d5a3d672e9152534df2c0eac956ee88c44db004b3872d056034cbe931de7aa81843ac81bed51f17e2526108d14baf5549a2e90d93a70d254014ebc911fe5a8838638ca19ef53f37c2724128f16b8f756982c92df3c76d4520748ba9719e3ae85803ecc1fe955f57a2122148910bef1509e2a94dd3e74d650054ab8951be1ac87823cce1deb57f7782320168b12bcf3529c2896d3307ad85e0b44b69b15efa2898c32c013e559f9762d2e18851cb2fd5c922698d13278da5c0946b49917eda08b8e30c211e75bfb742f2c1a871eb0ff5e90249ad7347edc5a0f40b29f11eba68d8836c417e15dfd72292a1c8118b6f95896229cd5367cde580d42b09d13e9a48f8a34c615e35fff702b281e831ab4fb5a94209edb3872d056034cbe931de7aa81843ac81bed51f17e2526108d14baf5549a2e90d93a70d254014ebc911fe5a8838638ca19ef53f37c2724128f16b8f756982c92df3c76d4520748ba9719e3ae85803ecc1fe955f57a2122148910bef1509e2a94dd3e74d650054ab8951be1ac87823cce1deb57f7782320168b12bcf3529c2896d3307ad85e0b44b69b15efa2898c32c013e559f9762d2e18851cb2fd5c922698d13278da5c0946b49917eda08b8e30c211e75bfb742f2c1a871eb0ff5e90249ad7347edc5a0f40b29f11eba68d8836c417e15dfd72292a1c8118b6f95896229cd5367cde580d42b09d13e9a48f8a34c615e35fff702b281e831ab4fb5a94209edb3872d056034cbe931de7aa81843ac81bed51f17e2526108d14baf5549a2e90d93a70d254014ebc911fe5a8838638ca19ef53f37c2724128f16b8f756982c92df3c76d4520748ba9719e3ae85803ecc1fe955f57a2122148910bef1509e2a94dd3e74d650054ab8951be1ac87823cce1deb57f7782320168b12bcf3529c2896d3307ad85e0b44b69b15efa2898c32c013e559f9762d2e18851cb2fd5c922698d13278da5c0946b49917eda08b8e30c211e75bfb742f2c1a871eb0ff5e90249ad7347edc5a0f40b29f11eba68d8836c417e15dfd72292a1c8118b6f95896229cd5367cde580d42b09d13e9a48f8a34c615e35fff702b281e831ab4fb5a94209edb3872d056034cbe931de7aa81843ac81bed51f17e2526108d14baf5549a2e90d93a70d254014ebc911fe5a8838638ca19ef53f37c2724128f16b8f756982c92df3c76d4520748ba9719e3ae85803ecc1fe955f57a2122148910bef1509e2a94dd3e74d650054ab8951be1ac87823cce1deb57f7782320168b12bcf3529c2896d3307ad85e0b44b69b15efa2898c32c013e559f9762d2e18851cb2fd5c922698d13278da5c0946b49917eda08b8e30c211e75bfb742f2c1a871eb0ff5e90249ad7347edc5a0f40b29f11eba68d8836c417e15dfd72292a1c8118b6f95896229cd5367cde580d42b09d13e9a48f8a34c615e35fff702b281e831ab4fb5a94209edb3872d056034cbe931de7aa81843ac81bed51f17e2526108d14baf5549a2e90d93a70d254014ebc911fe5a8838638ca19ef53f37c2724128f16b8f756982c92df3c76d4520748ba9719e3ae85803ecc1fe955f57a2122148910bef1509e2a94dd3e74d650054ab8951be1ac87823cce1deb57f7782320168b12bcf3529c2896d3307ad85e0b44b69b15efa2898c32c01c7b386f25444e68e12acc35e1b5c221dedfb42055d33eea2af5a3ca3d15662fa",
        "type": "nulldata"
      }
    },
    {
      "value": 499962.3747,
      "n": 1,
      "scriptPubKey": {
        "asm": "1 2843ca4aa650d5a753475662d2f5b6f7c6ae05bea97f979be60b30218a817629",
        "hex": "51202843ca4aa650d5a753475662d2f5b6f7c6ae05bea97f979be60b30218a817629",
        "reqSigs": 1,
        "type": "witness_v1_scripthash",
        "addresses": [
          "3QJmnh"
        ]
      }
    }
  ],
  "blockhash": "c0ea0e6b16ad20f35d4757cbcff39c3d199dbd7e252fa8e6bc9f3f36ee858c22",
  "confirmations": 1,
  "time": 1764183276,
  "blocktime": 1764183276
}