{
  "hex": "0100000000010187c2d185875ee54489f9432671c345e9eda2891b59976bde775d15dc511952240100000000feffffff0200e1f50500000000fdd5046a202473a0cff2977b54d221e6980d229a4ec6089e7d2852fa4988b890c5d3b574134db0046f1592003d3569e564b457f444eea9a58cf772403168e461deb985ebc4388bb14f35b2201d1549c5449477d464ce8985acd752601148c441fe99a5cbe418ab912f55d2407d7529a524f417b404aee9e5ccb732007128a4219ef9c5ab8478cbf10f75f2605d55098504d43794248ec9c5ec97122051088401bed9e58ba458ebd1ef951280bdb5e965e434d774c46e29250c77f2c0b1e864e15e39056b44b80b31cfb532a09d95c945c414f754e44e09052c57d2e091c844c17e19254b64982b11afd552c0fdf5a925a4749734842e69654c37b280f1a824a11e79452b04f84b718ff572e0ddd589058454b714a40e49456c1792a0d18804813e59650b24d86b516f1592003d3569e564b457f444eea9a58cf772403168e461deb985ebc4388bb14f35b2201d1549c5449477d464ce8985acd752601148c441fe99a5cbe418ab912f55d2407d7529a524f417b404aee9e5ccb732007128a4219ef9c5ab8478cbf10f75f2605d55098504d43794248ec9c5ec97122051088401bed9e58ba458ebd1ef951280bdb5e965e434d774c46e29250c77f2c0b1e864e15e39056b44b80b31cfb532a09d95c945c414f754e44e09052c57d2e091c844c17e19254b64982b11afd552c0fdf5a925a4749734842e69654c37b280f1a824a11e79452b04f84b718ff572e0ddd589058454b714a40e49456c1792a0d18804813e59650b24d86b516f1592003d3569e564b457f444eea9a58cf772403168e461deb985ebc4388bb14f35b2201d1549c5449477d464ce8985acd752601148c441fe99a5cbe418ab912f55d2407d7529a524f417b404aee9e5ccb732007128a4219ef9c5ab8478cbf10f75f2605d55098504d43794248ec9c5ec97122051088401bed9e58ba458ebd1ef951280bdb5e965e434d774c46e29250c77f2c0b1e864e15e39056b44b80b31cfb532a09d95c945c414f754e44e09052c57d2e091c844c17e19254b64982b11afd552c0fdf5a925a4749734842e69654c37b280f1a824a11e79452b04f84b718ff572e0ddd589058454b714a40e49456c1792a0d18804813e59650b24d86b516f1592003d3569e564b457f444eea9a58cf772403168e461deb985ebc4388bb14f35b2201d1549c5449477d464ce8985acd752601148c441fe99a5cbe418ab912f55d2407d7529a524f417b404aee9e5ccb732007128a4219ef9c5ab8478cbf10f75f2605d55098504d43794248ec9c5ec97122051088401bed9e58ba458ebd1ef951280bdb5e965e434d774c46e29250c77f2c0b1e864e15e39056b44b80b31cfb532a09d95c945c414f754e44e09052c57d2e091c844c17e19254b64982b11afd552c0fdf5a925a4749734842e69654c37b280f1a824a11e79452b04f84b718ff572e0ddd589058454b714a40e49456c1792a0d18804813e59650b24d86b516f1592003d3569e564b457f444eea9a58cf772403168e461deb985ebc4388bb14f35b2201d1549c5449477d464ce8985acd752601148c441fe99a5cbe418ab912f55d2407d7529a524f417b404aee9e5ccb732007128a4219ef9c5ab8478cbf10f75f2605d55098504d43794248ec9c5ec97122051088401bed9e58ba458ebd1ef951280bdb5e965e434d774c46e2925909a067338f472a1a3836dcd472261509dab15cdbeee954768e4a1c75f31658850ce18b4782d00002251209f24a9404b3d4d0a392f90cba0c1b1f3e6449e8e0e592401841410e2f9ac1ebc02fd7509b4c8e105c73ca84dc4982c7e95698a5e00073e1c08479ca0aa77f734f9e226260cca8d435f79e74dbdabd6fba353e49e1f7ca86a6b6bbbef1b58d8fb2d4233bd3202aa68bec5c083455ca24b8292a5ace5363b88bfb7ef74b24b0da177595c5239744db58091fcc5598ddec8dfcda40506933a56dc56e5d9eb52eacf45ec0cce204288965d3b87b9d2427c10beb434297db3f9034e58c9d3694d52735fc4a558e48c95cb8a7b2fe05310ee6958d7c67bb4b116c0f7a791cd5b551db21258d91dda439ee1d408d8b56e8cd65db5710ffc9bedf7d78ce041027d66fc79696861b6ac62cdef75fe4868d798cb6cb378e5590738dc273f6c005bf64a5cfc31b60453fe97fe627fdbc1305bdad34c25303ede4a705ac0966e7c39530cccf67256698e76d34142960b5621d922be6f3d99f4a0204fc43bad7fa8f838c241a0cac0f86d6205b638b241363dcace55a11b8eb85b7a305359620fb3ae9fb0d9831b20031593810d8e807633cca2f34693278bc702abb81de23d026620eaee6c7c4836a6bd8b15ab31986139aa6c54ad94faf6774528ece931ca87226822858641ea7f9126ee08821c119f75c6bc67f5cf78a479162fead76edc96feb4d197d39e7cf8f2ba31dcef3f496af7f10af8b9c5f3ceeb75d609c2666dcacbe8aa8550a92114caa26de0b1ee31261e1ce4070442caf3d35cf0eb4b15163fa9d390070cb1f2e5d77d6a836f02420d9f18f814c4f3be71d76b5052679af3772eb8260ab881429bece3bffb5730385915df6c60d8acd6a8eba2926050fb8b671d548211643069a2a57af232b6d58237eaed0ae8d3040cefd925b971400fb5b0c71b64969c88322f999cfff8fb9f54cf9a38205c9a8dd8a6e8110808008f819f4b945e1dcce742f7506d1066a5c1119f33b4e373fe4d2600e78edf933c7640231bed6737f6676fa29e1d340093269fb66f57ae9937033e568494ca648dfc1291cfeaee7001d2148a0f1bd1a4fdbf1cc7bd83774faa0fb93c388bb897d5b7f56a3a83905afd6130a7bc2cc3d865e58a95688e15e2522d1aadca7795b24f87648bc0e2d6a6714019fd0da61e303786fadeb5746c1ec9745375f688a7cebbf594bd2bc573bf36ef6922be876934a08179a3a2278c35e13a08d0b96503c1d76d1ea05f450392f6cbf71550bab7931310bd70209a37eb746c9a1d01ca6660c15bb3f4e99f58f88b5f9142e3e543ec9b267226499e948a1683a3234d406626703078bc6dc4e75bee18a086e10ecf21f97fa371612e5c2e8814befb0c9729743024013084739c6e5087e8e452a3bbfeb3a50a022efe25950dd27e353fcef4656c781149878a7f8ac9a649663faef1fb8711067c18b99fd1927402a47be5aae5694325a8d279bdf5fedf18b36211d9fb8a2c41423a5a438ad5e2bd7653cb29b263d9a50e8b3bdc24cba2c5f87dacc784082fe7fa5f0334fa244f136ba6237671683df6ac1a0ba8cefba2008aa8654a3afae67c2edc2012e77915fb2c25a1c5d2878f2175962ad0575d19c5ab8645b0cc992bbfa84b7a275cdd250a18e7f61f66b70de17f936bbd8977078cac02baf4bad8d01b4d450c62763cf9fe59591a10a0efdad12c1b768c279f90e8bec3eb956d8cd3a1e10acd017a29ebee8431d46895d54ca7bdd53476562076d032e13c70dd93a6fb60bf15917ced0b1b90e30adf9b43e51ac5e38feb5d5b66b3c59119e406008132472645db26b1fcd529753f6335992a27dc85fd827c826bb11d5ebcdf729e4485065e756f1a844683209f27ee555514e063b62aef0468416dda4419aee04c9b894374c46b7298c4e80e340bca0cebf4268c9c4f1f52923804c053418ad44f2e7569f07fac9a4dc8c7960cc6b427c75752c108e7834897f99183566c46d6d3d975a5ca641fa82812466257b3a2b1c17e6459dc12ba6d8097db3122758dcf85d016873177b6bc540e10298e9350c54a38e8fb5aaffc4c9efe0a9243694738ff533b3b99ccbdc2f493b146c47d6e4a682fdbdd291845ef8d285d27538b2cf932b51b387d5682218358de4681826c424c1599b6e5d50b01dce39445c2aaf0fb437e743686502cfadbd544f2b77d9fd9a7961c93cadb35d077799769d2eaf75de4b8ff11f246b286f3ccaf1529478f90e531d9612a0dcc3e353ca7f021eedec7bcd2f0f6e3f95596b74bbeb5618754b3d1167af26979f20b55b5dfd365e9d30565f9e593dcf787fbc423c9039ac26672ec21af66c6f47cdd2838cc5633580bc2a29293da66538efbbe9f58d680dda7854f591be19be88ed52854cdaa9b320ad9181269ab82421874b244db54a183800d38dddb6032f8c98db84f9af3fa72696f70a6c68b0d18de68f994b186b5e8dea3a18eee63e2ff9d8d87bbe13e5ad21a3e245ca9bb32fe5941dda442d294154a9dcd42a598796f1408c0b79c21e137f02fa056831fb6214d940d74965032b639de0502bab74e0be210f565b4af767598d3f286a11cdb4082c1bad458a72c27a6679c99788c10e913be88df7d8d0fe9493cf3f67bef3963bc6202b5b25c387c90d6bae338eefc58772d7b1d943001360b6e62a4a7cb01810e700152a816f724a7945fa4572fc5a897045067b21fe0ec24ac57ad2442a1affdb836e1bfe0d404afa3a973fef05d5893b1f3ac93c205c5029765bce84c166223b5adba32bf388f04c0b60badd3845d0f82a2266eacfe93ce143e5d7aead81ec08ebd60332bf83957e768b843cfe3f72ad1a55677781735a844981113139e251d5e19ecb5d86fd81a1220f1e38cb9bb098eeb32912fe7d4dd2f6025faa5d6352f674565558311da7b21c2639f3cfe8d6b5da6b03983dcda52dc3e154c997e815410ac97616d2cfd0c37d59915a31ab3448ddc3c172cdbfb9dd9a89d4bcb96dfc6ff28cbad2f178611fc5d74bc915f40905ad86708dbad7b866c66b785919a890f6cf2ebf74873bd740a712244f6400e4dca27c8630e361d3d9910a3cb56cfce36b63a0678bff12002395a08bfc0ee0b8b386b0542c3467c2ff08c29bca3b98020b40a09871897055eba1d99bc6b200f5fd69350cd47fbabc36a449ac79fce2dca5c6541247c6685ecbf7cda7c9356a7bf49566bcb3afb8d56a3ee50c35a6aa53813eb041b57eeda24fac5c92fd1d57439c6189d913006dca9f34027d87c65717093ab87b1485c76b3247d702d794e351cdd8b5921fd2a11026d5ceaa89f58b7022e85d8718a2230c16c4dd005db6db65a683ac1aeb4875557816eacc43a8aa985dbc1b8db24d51ccef0897237b05e0ceff45fa2ab32c9cb162c3e595a7895989eafc5eaf50c1b1d343b3c444b4d576a6f74a0afbedadde3ecfdfeff142226282b4e586062656e75859798b0b4dff1f5f8fa031a232d43525480828aa9aebfc3caeb0000000000000d243a4a01fd210500b78afc903f96afd72f517e9afab8ceb3fe2ebdf688c73742a5ed4f8101f599b1cf02c93a30f1b8e81604525e009f6586eb661cb401c296ae8ec26fa28874f58204910741b0e7c840f4ca159e19346229e129432dc177d7bc1ea3b6c904bdb779d9c000cac12519cb6d3ad0e6197d34bef955cfde9a62375beace292cbd0e1da34fd2fe2d67c5e11e4b61dd3c7f68d778d18129d24918f78d6d7a0de9babb4a528bb4525ca70951f5a24edcae50da5d3c0b5425310190115a092f3c528a89392e548d744eb35103e8a4d5055a811998479427be7b7f0c7f14a6e5b2e0df5a8c9b80895a6e930532ffd6808bc8b9fee2f4b9b3d94f7a280ace3b98a459cd0c73832d1c23d59902319485575b48c0ac35caa8788d0ac672c4786455087723e6d4854b4330b8ef266e2728b4dd4960f120475d8ae44f5b3a1387b22724fc87bdf44c31077041f0776f3a3e077fbc359f75fc35c4227d8b7ac1d1c8f0a7e8ec8b4fa24a5c29e5bbf459d8495bfe1bb2860e196d10855b938ee4473692d03c33826865371b0b2e820e03d6930c27714dedd5f08454e3a9ffa129bd0feb0e4d6b0460fe27498db9ec01c58949cde25fc604f0e42064447208a33709f7c09b5f377d32e06aff0b0b61646f491079bdb4339349a1be31eae1ce556621b4be62319cd42297741e2a27a78c1330894aaa68f58303208b899e424ed3f6242196e83e02362fe2710287b707551ef6721157deea59a3fe988de0d58d7817527350f303d02bb75cce7ac2287606a8a746d0ace3d42cc9501b8cb99e6adeea1cb19c0015c7e699fbcd0963f7266ee2321f569dbfd5c82ccaea629677a756f17e3ad587dcf728bbeeb17c86dfc3c62bdf65213cb6dff23ff93a8769b62035348638ac3fad73e3978f1122bbeac3c83fc015de00aa82f6682413e0852ee6e8e4eaada0f5b393fe05f7630b79774fa65a3396550876b45b627ab0073a4fa603eae983e6aac1e69c5d3db7f651c5edcd6518a3203d41a47e4433745cb63d096d3c259726b56d3083fee2d6101547fc74fa645550fe378703c3c68dc8ddfb6b3a056deee2e7d0c9fb76552aea309d2905c2025ef6eb836a1ac4d76612b2ebb7dce284d65446da9228ecb3781828b901ec80d7134bf7540f10b35758f065287611dc12fd58b5b58073d6e22c14cdcfe7a2aafaff66a34c207c5b125733bae100a27dea073f52e0c3f9478ca6d1c0261ea5b4d41e54f6ea6e1d5a2103676310a514b09a0cb3082481411509bbcc7ce0218edb83aade5962c4e6620f14e8ba04ed923a1ff24eb9c465e89070f4a1f92b9191fdf788b5691d7bcaa82c077ae3a699ff8788d1fa8809957d739787a2a63eb5b4eb1a54d7958b9d13fdd1d28b620c18b6772afa92c92d52bd46aefa6a346e9ef6fb385618c36d2869b2c4f0eecf28e0b43064d72ebeea36b2dc999c58b0a33347407ab89fd05be3c334b5bf3b8f17938fa042501736cea78c71e4db40093dd09aa0e42db00069da6a64bc99ae1b5655485bde57d65006b32a79767a6a35541f71dcf4cab7ee96b7775849b9da237c4d5dfa6e3b5e1b0e9bd43e576b93a1627838a943044a160fcbea3ce46a207a36d4751a141a256a3422dd7f0b63d38cd97ee2f2a47479a1a027def13dd1260961334aaef43db4ff10ed42c095a8f30797ee3b67de2a851ef931158c99b64ad324bcedb318b7c70e6bfd346b8c719575a223faf7e23fc1e2e34e1ae95091f2edb65300ae5d0b6263a4636e0a1c474d6f5655951d4b187f98c65520f5007434ed38f34d25c1f62257dc99f73cd56e0f2ae81b34a62e7e2d2ef025e5b65689a8b1efddbe03e961860fc9a788c15a85000000",
  "txid": "27726e9f16b810becac36e9a2242b76a9afe6159c47d49f21f9c7ec79e8b4e94",
  "hash": "d3569a07459313009c795e7d51bc38ef14738ba8ef58517af852f83abb19ebfa",
  "size": 5085,
  "vsize": 2278,
  "version": 1,
  "locktime": 133,
  "vin": [
    {
      "txid": "24521951dc155d77de6b97591b89a2ede945c3712643f98944e55e8785d1c287",
      "vout": 1,
      "scriptSig": {
        "asm": "",
        "hex": ""
      },
      "txinwitness": [
        "b4c8e105c73ca84dc4982c7e95698a5e00073e1c08479ca0aa77f734f9e226260cca8d435f79e74dbdabd6fba353e49e1f7ca86a6b6bbbef1b58d8fb2d4233bd3202aa68bec5c083455ca24b8292a5ace5363b88bfb7ef74b24b0da177595c5239744db58091fcc5598ddec8dfcda40506933a56dc56e5d9eb52eacf45ec0cce204288965d3b87b9d2427c10beb434297db3f9034e58c9d3694d52735fc4a558e48c95cb8a7b2fe05310ee6958d7c67bb4b116c0f7a791cd5b551db21258d91dda439ee1d408d8b56e8cd65db5710ffc9bedf7d78ce041027d66fc79696861b6ac62cdef75fe4868d798cb6cb378e5590738dc273f6c005bf64a5cfc31b60453fe97fe627fdbc1305bdad34c25303ede4a705ac0966e7c39530cccf67256698e76d34142960b5621d922be6f3d99f4a0204fc43bad7fa8f838c241a0cac0f86d6205b638b241363dcace55a11b8eb85b7a305359620fb3ae9fb0d9831b20031593810d8e807633cca2f34693278bc702abb81de23d026620eaee6c7c4836a6bd8b15ab31986139aa6c54ad94faf6774528ece931ca87226822858641ea7f9126ee08821c119f75c6bc67f5cf78a479162fead76edc96feb4d197d39e7cf8f2ba31dcef3f496af7f10af8b9c5f3ceeb75d609c2666dcacbe8aa8550a92114caa26de0b1ee31261e1ce4070442caf3d35cf0eb4b15163fa9d390070cb1f2e5d77d6a836f02420d9f18f814c4f3be71d76b5052679af3772eb8260ab881429bece3bffb5730385915df6c60d8acd6a8eba2926050fb8b671d548211643069a2a57af232b6d58237eaed0ae8d3040cefd925b971400fb5b0c71b64969c88322f999cfff8fb9f54cf9a38205c9a8dd8a6e8110808008f819f4b945e1dcce742f7506d1066a5c1119f33b4e373fe4d2600e78edf933c7640231bed6737f6676fa29e1d340093269fb66f57ae9937033e568494ca648dfc1291cfeaee7001d2148a0f1bd1a4fdbf1cc7bd83774faa0fb93c388bb897d5b7f56a3a83905afd6130a7bc2cc3d865e58a95688e15e2522d1aadca7795b24f87648bc0e2d6a6714019fd0da61e303786fadeb5746c1ec9745375f688a7cebbf594bd2bc573bf36ef6922be876934a08179a3a2278c35e13a08d0b96503c1d76d1ea05f450392f6cbf71550bab7931310bd70209a37eb746c9a1d01ca6660c15bb3f4e99f58f88b5f9142e3e543ec9b267226499e948a1683a3234d406626703078bc6dc4e75bee18a086e10ecf21f97fa371612e5c2e8814befb0c9729743024013084739c6e5087e8e452a3bbfeb3a50a022efe25950dd27e353fcef4656c781149878a7f8ac9a649663faef1fb8711067c18b99fd1927402a47be5aae5694325a8d279bdf5fedf18b36211d9fb8a2c41423a5a438ad5e2bd7653cb29b263d9a50e8b3bdc24cba2c5f87dacc784082fe7fa5f0334fa244f136ba6237671683df6ac1a0ba8cefba2008aa8654a3afae67c2edc2012e77915fb2c25a1c5d2878f2175962ad0575d19c5ab8645b0cc992bbfa84b7a275cdd250a18e7f61f66b70de17f936bbd8977078cac02baf4bad8d01b4d450c62763cf9fe59591a10a0efdad12c1b768c279f90e8bec3eb956d8cd3a1e10acd017a29ebee8431d46895d54ca7bdd53476562076d032e13c70dd93a6fb60bf15917ced0b1b90e30adf9b43e51ac5e38feb5d5b66b3c59119e406008132472645db26b1fcd529753f6335992a27dc85fd827c826bb11d5ebcdf729e4485065e756f1a844683209f27ee555514e063b62aef0468416dda4419aee04c9b894374c46b7298c4e80e340bca0cebf4268c9c4f1f52923804c053418ad44f2e7569f07fac9a4dc8c7960cc6b427c75752c108e7834897f99183566c46d6d3d975a5ca641fa82812466257b3a2b1c17e6459dc12ba6d8097db3122758dcf85d016873177b6bc540e10298e9350c54a38e8fb5aaffc4c9efe0a9243694738ff533b3b99ccbdc2f493b146c47d6e4a682fdbdd291845ef8d285d27538b2cf932b51b387d5682218358de4681826c424c1599b6e5d50b01dce39445c2aaf0fb437e743686502cfadbd544f2b77d9fd9a7961c93cadb35d077799769d2eaf75de4b8ff11f246b286f3ccaf1529478f90e531d9612a0dcc3e353ca7f021eedec7bcd2f0f6e3f95596b74bbeb5618754b3d1167af26979f20b55b5dfd365e9d30565f9e593dcf787fbc423c9039ac26672ec21af66c6f47cdd2838cc5633580bc2a29293da66538efbbe9f58d680dda7854f591be19be88ed52854cdaa9b320ad9181269ab82421874b244db54a183800d38dddb6032f8c98db84f9af3fa72696f70a6c68b0d18de68f994b186b5e8dea3a18eee63e2ff9d8d87bbe13e5ad21a3e245ca9bb32fe5941dda442d294154a9dcd42a598796f1408c0b79c21e137f02fa056831fb6214d940d74965032b639de0502bab74e0be210f565b4af767598d3f286a11cdb4082c1bad458a72c27a6679c99788c10e913be88df7d8d0fe9493cf3f67bef3963bc6202b5b25c387c90d6bae338eefc58772d7b1d943001360b6e62a4a7cb01810e700152a816f724a7945fa4572fc5a897045067b21fe0ec24ac57ad2442a1affdb836e1bfe0d404afa3a973fef05d5893b1f3ac93c205c5029765bce84c166223b5adba32bf388f04c0b60badd3845d0f82a2266eacfe93ce143e5d7aead81ec08ebd60332bf83957e768b843cfe3f72ad1a55677781735a844981113139e251d5e19ecb5d86fd81a1220f1e38cb9bb098eeb32912fe7d4dd2f6025faa5d6352f674565558311da7b21c2639f3cfe8d6b5da6b03983dcda52dc3e154c997e815410ac97616d2cfd0c37d59915a31ab3448ddc3c172cdbfb9dd9a89d4bcb96dfc6ff28cbad2f178611fc5d74bc915f40905ad86708dbad7b866c66b785919a890f6cf2ebf74873bd740a712244f6400e4dca27c8630e361d3d9910a3cb56cfce36b63a0678bff12002395a08bfc0ee0b8b386b0542c3467c2ff08c29bca3b98020b40a09871897055eba1d99bc6b200f5fd69350cd47fbabc36a449ac79fce2dca5c6541247c6685ecbf7cda7c9356a7bf49566bcb3afb8d56a3ee50c35a6aa53813eb041b57eeda24fac5c92fd1d57439c6189d913006dca9f34027d87c65717093ab87b1485c76b3247d702d794e351cdd8b5921fd2a11026d5ceaa89f58b7022e85d8718a2230c16c4dd005db6db65a683ac1aeb4875557816eacc43a8aa985dbc1b8db24d51ccef0897237b05e0ceff45fa2ab32c9cb162c3e595a7895989eafc5eaf50c1b1d343b3c444b4d576a6f74a0afbedadde3ecfdfeff142226282b4e586062656e75859798b0b4dff1f5f8fa031a232d43525480828aa9aebfc3caeb0000000000000d243a4a01",
        "00b78afc903f96afd72f517e9afab8ceb3fe2ebdf688c73742a5ed4f8101f599b1cf02c93a30f1b8e81604525e009f6586eb661cb401c296ae8ec26fa28874f58204910741b0e7c840f4ca159e19346229e129432dc177d7bc1ea3b6c904bdb779d9c000cac12519cb6d3ad0e6197d34bef955cfde9a62375beace292cbd0e1da34fd2fe2d67c5e11e4b61dd3c7f68d778d18129d24918f78d6d7a0de9babb4a528bb4525ca70951f5a24edcae50da5d3c0b5425310190115a092f3c528a89392e548d744eb35103e8a4d5055a811998479427be7b7f0c7f14a6e5b2e0df5a8c9b80895a6e930532ffd6808bc8b9fee2f4b9b3d94f7a280ace3b98a459cd0c73832d1c23d59902319485575b48c0ac35caa8788d0ac672c4786455087723e6d4854b4330b8ef266e2728b4dd4960f120475d8ae44f5b3a1387b22724fc87bdf44c31077041f0776f3a3e077fbc359f75fc35c4227d8b7ac1d1c8f0a7e8ec8b4fa24a5c29e5bbf459d8495bfe1bb2860e196d10855b938ee4473692d03c33826865371b0b2e820e03d6930c27714dedd5f08454e3a9ffa129bd0feb0e4d6b0460fe27498db9ec01c58949cde25fc604f0e42064447208a33709f7c09b5f377d32e06aff0b0b61646f491079bdb4339349a1be31eae1ce556621b4be62319cd42297741e2a27a78c1330894aaa68f58303208b899e424ed3f6242196e83e02362fe2710287b707551ef6721157deea59a3fe988de0d58d7817527350f303d02bb75cce7ac2287606a8a746d0ace3d42cc9501b8cb99e6adeea1cb19c0015c7e699fbcd0963f7266ee2321f569dbfd5c82ccaea629677a756f17e3ad587dcf728bbeeb17c86dfc3c62bdf65213cb6dff23ff93a8769b62035348638ac3fad73e3978f1122bbeac3c83fc015de00aa82f6682413e0852ee6e8e4eaada0f5b393fe05f7630b79774fa65a3396550876b45b627ab0073a4fa603eae983e6aac1e69c5d3db7f651c5edcd6518a3203d41a47e4433745cb63d096d3c259726b56d3083fee2d6101547fc74fa645550fe378703c3c68dc8ddfb6b3a056deee2e7d0c9fb76552aea309d2905c2025ef6eb836a1ac4d76612b2ebb7dce284d65446da9228ecb3781828b901ec80d7134bf7540f10b35758f065287611dc12fd58b5b58073d6e22c14cdcfe7a2aafaff66a34c207c5b125733bae100a27dea073f52e0c3f9478ca6d1c0261ea5b4d41e54f6ea6e1d5a2103676310a514b09a0cb3082481411509bbcc7ce0218edb83aade5962c4e6620f14e8ba04ed923a1ff24eb9c465e89070f4a1f92b9191fdf788b5691d7bcaa82c077ae3a699ff8788d1fa8809957d739787a2a63eb5b4eb1a54d7958b9d13fdd1d28b620c18b6772afa92c92d52bd46aefa6a346e9ef6fb385618c36d2869b2c4f0eecf28e0b43064d72ebeea36b2dc999c58b0a33347407ab89fd05be3c334b5bf3b8f17938fa042501736cea78c71e4db40093dd09aa0e42db00069da6a64bc99ae1b5655485bde57d65006b32a79767a6a35541f71dcf4cab7ee96b7775849b9da237c4d5dfa6e3b5e1b0e9bd43e576b93a1627838a943044a160fcbea3ce46a207a36d4751a141a256a3422dd7f0b63d38cd97ee2f2a47479a1a027def13dd1260961334aaef43db4ff10ed42c095a8f30797ee3b67de2a851ef931158c99b64ad324bcedb318b7c70e6bfd346b8c719575a223faf7e23fc1e2e34e1ae95091f2edb65300ae5d0b6263a4636e0a1c474d6f5655951d4b187f98c65520f5007434ed38f34d25c1f62257dc99f73cd56e0f2ae81b34a62e7e2d2ef025e5b65689a8b1efddbe03e961860fc9a788c15a"
      ],
      "sequence": 4294967294
    }
  ],
  "vout": [
    {
      "value": 1.0,
      "n": 0,
      "scriptPubKey": {
        "asm": "OP_RETURN 2473a0cff2977b54d221e6980d229a4ec6089e7d2852fa4988b890c5d3b57413 6f1592003d3569e564b457f444eea9a58cf772403168e461deb985ebc4388bb14f35b2201d1549c5449477d464ce8985acd752601148c441fe99a5cbe418ab912f55d2407d7529a524f417b404aee9e5ccb732007128a4219ef9c5ab8478cbf10f75f2605d55098504d43794248ec9c5ec97122051088401bed9e58ba458ebd1ef951280bdb5e965e434d774c46e29250c77f2c0b1e864e15e39056b44b80b31cfb532a09d95c945c414f754e44e09052c57d2e091c844c17e19254b64982b11afd552c0fdf5a925a4749734842e69654c37b280f1a824a11e79452b04f84b718ff572e0ddd589058454b714a40e49456c1792a0d18804813e59650b24d86b516f1592003d3569e564b457f444eea9a58cf772403168e461deb985ebc4388bb14f35b2201d1549c5449477d464ce8985acd752601148c441fe99a5cbe418ab912f55d2407d7529a524f417b404aee9e5ccb732007128a4219ef9c5ab8478cbf10f75f2605d55098504d43794248ec9c5ec97122051088401bed9e58ba458ebd1ef951280bdb5e965e434d774c46e29250c77f2c0b1e864e15e39056b44b80b31cfb532a09d95c945c414f754e44e09052c57d2e091c844c17e19254b64982b11afd552c0fdf5a925a4749734842e69654c37b280f1a824a11e79452b04f84b718ff572e0ddd589058454b714a40e49456c1792a0d18804813e59650b24d86b516f1592003d3569e564b457f444eea9a58cf772403168e461deb985ebc4388bb14f35b2201d1549c5449477d464ce8985acd752601148c441fe99a5cbe418ab912f55d2407d7529a524f417b404aee9e5ccb732007128a4219ef9c5ab8478cbf10f75f2605d55098504d43794248ec9c5ec97122051088401bed9e58ba458ebd1ef951280bdb5e965e434d774c46e29250c77f2c0b1e864e15e39056b44b80b31cfb532a09d95c945c414f754e44e09052c57d2e091c844c17e19254b64982b11afd552c0fdf5a925a4749734842e69654c37b280f1a824a11e79452b04f84b718ff572e0ddd589058454b714a40e49456c1792a0d18804813e59650b24d86b516f1592003d3569e564b457f444eea9a58cf772403168e461deb985ebc4388bb14f35b2201d1549c5449477d464ce8985acd752601148c441fe99a5cbe418ab912f55d2407d7529a524f417b404aee9e5ccb732007128a4219ef9c5ab8478cbf10f75f2605d55098504d43794248ec9c5ec97122051088401bed9e58ba458ebd1ef951280bdb5e965e434d774c46e29250c77f2c0b1e864e15e39056b44b80b31cfb532a09d95c945c414f754e44e09052c57d2e091c844c17e19254b64982b11afd552c0fdf5a925a4749734842e69654c37b280f1a824a11e79452b04f84b718ff572e0ddd589058454b714a40e49456c1792a0d18804813e59650b24d86b516f1592003d3569e564b457f444eea9a58cf772403168e461deb985ebc4388bb14f35b2201d1549c5449477d464ce8985acd752601148c441fe99a5cbe418ab912f55d2407d7529a524f417b404aee9e5ccb732007128a4219ef9c5ab8478cbf10f75f2605d55098504d43794248ec9c5ec97122051088401bed9e58ba458ebd1ef951280bdb5e965e434d774c46e2925909a067338f472a1a3836dcd472261509dab15cdbeee954768e4a1c75f316588",
        "hex": "6a202473a0cff2977b54d221e6980d229a4ec6089e7d2852fa4988b890c5d3b574134db0046f1592003d3569e564b457f444eea9a58cf772403168e461deb985ebc4388bb14f35b2201d1549c5449477d464ce8985acd752601148c441fe99a5cbe418ab912f55d2407d7529a524f417b404aee9e5ccb732007128a4219ef9c5ab8478cbf10f75f2605d55098504d43794248ec9c5ec97122051088401bed9e58ba458ebd1ef951280bdb5e965e434d774c46e29250c77f2c0b1e864e15e39056b44b80b31cfb532a09d95c945c414f754e44e09052c57d2e091c844c17e19254b64982b11afd552c0fdf5a925a4749734842e69654c37b280f1a824a11e79452b04f84b718ff572e0ddd589058454b714a40e49456c1792a0d18804813e59650b24d86b516f1592003d3569e564b457f444eea9a58cf772403168e461deb985ebc4388bb14f35b2201d1549c5449477d464ce8985acd752601148c441fe99a5cbe418ab912f55d2407d7529a524f417b404aee9e5ccb732007128a4219ef9c5ab8478cbf10f75f2605d55098504d43794248ec9c5ec97122051088401bed9e58ba458ebd1ef951280bdb5e965e434d774c46e29250c77f2c0b1e864e15e39056b44b80b31cfb532a09d95c945c414f754e44e09052c57d2e091c844c17e19254b64982b11afd552c0fdf5a925a4749734842e69654c37b280f1a824a11e79452b04f84b718ff572e0ddd589058454b714a40e49456c1792a0d18804813e59650b24d86b516f1592003d3569e564b457f444eea9a58cf772403168e461deb985ebc4388bb14f35b2201d1549c5449477d464ce8985acd752601148c441fe99a5cbe418ab912f55d2407d7529a524f417b404aee9e5ccb732007128a4219ef9c5ab8478cbf10f75f2605d55098504d43794248ec9c5ec97122051088401bed9e58ba458ebd1ef951280bdb5e965e434d774c46e29250c77f2c0b1e864e15e39056b44b80b31cfb532a09d95c945c414f754e44e09052c57d2e091c844c17e19254b64982b11afd552c0fdf5a925a4749734842e69654c37b280f1a824a11e79452b04f84b718ff572e0ddd589058454b714a40e49456c1792a0d18804813e59650b24d86b516f1592003d3569e564b457f444eea9a58cf772403168e461deb985ebc4388bb14f35b2201d1549c5449477d464ce8985acd752601148c441fe99a5cbe418ab912f55d2407d7529a524f417b404aee9e5ccb732007128a4219ef9c5ab8478cbf10f75f2605d55098504d43794248ec9c5ec97122051088401bed9e58ba458ebd1ef951280bdb5e965e434d774c46e29250c77f2c0b1e864e15e39056b44b80b31cfb532a09d95c945c414f754e44e09052c57d2e091c844c17e19254b64982b11afd552c0fdf5a925a4749734842e69654c37b280f1a824a11e79452b04f84b718ff572e0ddd589058454b714a40e49456c1792a0d18804813e59650b24d86b516f1592003d3569e564b457f444eea9a58cf772403168e461deb985ebc4388bb14f35b2201d1549c5449477d464ce8985acd752601148c441fe99a5cbe418ab912f55d2407d7529a524f417b404aee9e5ccb732007128a4219ef9c5ab8478cbf10f75f2605d55098504d43794248ec9c5ec97122051088401bed9e58ba458ebd1ef951280bdb5e965e434d774c46e2925909a067338f472a1a3836dcd472261509dab15cdbeee954768e4a1c75f316588",
        "type": "nulldata"
      }
    },
    {
      "value": 499964.4085,
      "n": 1,
      "scriptPubKey": {
        "asm": "1 9f24a9404b3d4d0a392f90cba0c1b1f3e6449e8e0e592401841410e2f9ac1ebc",
        "hex": "51209f24a9404b3d4d0a392f90cba0c1b1f3e6449e8e0e592401841410e2f9ac1ebc",
        "reqSigs": 1,
        "type": "witness_v1_scripthash",
        "addresses": [
          "3QJmnh"
        ]
      }
    }
  ],
  "blockhash": "e83fb8d8eae63b54f6b1b3d1fbcbee555d4e910f42cfd1b5d97cc48d92172bc4",
  "confirmations": 1,
  "time": 1764182633,
  "blocktime": 1764182633
}