{
  "hex": "0100000000010103ec8beac89ea3fd62c18926c89f277f58f2fde5fe7f111e648b9784bfabba0a0100000000feffffff0200e1f50500000000fdd5046a203f37670ced1d0c01927be53c5292dee9bb4f3d0d1b7fc2037cb1a1dc10b4b92d4db0049e0f928410046de141e0635f448cedea27669c68bdaaac63a2ab8c93adb0fdfbbe2fb2a430244dc161c0437f64accdca0746bc489d8a8c43828bacb38d90dddbde4fd2c450442da101a0231f04ccadaa6726dc28fdeaec23e2ebccd3edf0bdbbfe6ff2e470640d812180033f24ec8d8a4706fc08ddcacc03c2cbecf3cdd09d9b1e8f12049084ed61c160e3dfc40c6d6aa7e61ce83d2a2ce3222b0c132d307d7b3eaf3224b0a4cd41e140c3ffe42c4d4a87c63cc81d0a0cc3020b2c330d105d5b5ecf5244d0c4ad218120a39f844c2d2ae7a65ca87d6a6ca3626b4c536d703d3b7eef7264f0e48d01a10083bfa46c0d0ac7867c885d4a4c83424b6c734d501d1b9e0f928410046de141e0635f448cedea27669c68bdaaac63a2ab8c93adb0fdfbbe2fb2a430244dc161c0437f64accdca0746bc489d8a8c43828bacb38d90dddbde4fd2c450442da101a0231f04ccadaa6726dc28fdeaec23e2ebccd3edf0bdbbfe6ff2e470640d812180033f24ec8d8a4706fc08ddcacc03c2cbecf3cdd09d9b1e8f12049084ed61c160e3dfc40c6d6aa7e61ce83d2a2ce3222b0c132d307d7b3eaf3224b0a4cd41e140c3ffe42c4d4a87c63cc81d0a0cc3020b2c330d105d5b5ecf5244d0c4ad218120a39f844c2d2ae7a65ca87d6a6ca3626b4c536d703d3b7eef7264f0e48d01a10083bfa46c0d0ac7867c885d4a4c83424b6c734d501d1b9e0f928410046de141e0635f448cedea27669c68bdaaac63a2ab8c93adb0fdfbbe2fb2a430244dc161c0437f64accdca0746bc489d8a8c43828bacb38d90dddbde4fd2c450442da101a0231f04ccadaa6726dc28fdeaec23e2ebccd3edf0bdbbfe6ff2e470640d812180033f24ec8d8a4706fc08ddcacc03c2cbecf3cdd09d9b1e8f12049084ed61c160e3dfc40c6d6aa7e61ce83d2a2ce3222b0c132d307d7b3eaf3224b0a4cd41e140c3ffe42c4d4a87c63cc81d0a0cc3020b2c330d105d5b5ecf5244d0c4ad218120a39f844c2d2ae7a65ca87d6a6ca3626b4c536d703d3b7eef7264f0e48d01a10083bfa46c0d0ac7867c885d4a4c83424b6c734d501d1b9e0f928410046de141e0635f448cedea27669c68bdaaac63a2ab8c93adb0fdfbbe2fb2a430244dc161c0437f64accdca0746bc489d8a8c43828bacb38d90dddbde4fd2c450442da101a0231f04ccadaa6726dc28fdeaec23e2ebccd3edf0bdbbfe6ff2e470640d812180033f24ec8d8a4706fc08ddcacc03c2cbecf3cdd09d9b1e8f12049084ed61c160e3dfc40c6d6aa7e61ce83d2a2ce3222b0c132d307d7b3eaf3224b0a4cd41e140c3ffe42c4d4a87c63cc81d0a0cc3020b2c330d105d5b5ecf5244d0c4ad218120a39f844c2d2ae7a65ca87d6a6ca3626b4c536d703d3b7eef7264f0e48d01a10083bfa46c0d0ac7867c885d4a4c83424b6c734d501d1b9e0f928410046de141e0635f448cedea27669c68bdaaac63a2ab8c93adb0fdfbbe2fb2a430244dc161c0437f64accdca0746bc489d8a8c43828bacb38d90dddbde4fd2c450442da101a0231f04ccadaa6726dc28fdeaec23e2ebccd3edf0bdbbfe6ff2e470640d812180033f24ec8d8a4706fc08ddcacc03c2cbecf3cdd09d9b1e8f12049084ed61c160e3dfc40c6d6ad47a935c50be63ed63ba2b0bb2025882ef1b4c978818d9f47930d4b12ec44ce880cbbf57792d00002251208e13d503583868da40a0506f9e55304d073a1f05cc74f5fa460230047bfec67902fd7509b7ed59bcaa07bb030f95a59280b3c95993f23886a9fa5b5664285b47470c14613651a9c175addf60e841c63257e748ba9aff27ac6b8eab4119913f97723f24ff1d004078988e27fb1186bbfb103b0025829f516328ece714a31242952da14a1d3efdef0483b7ed622d0ced0ed8c3364ad4cc7112bf139298cef081fc06339871d04a024aa201524dfd9d221e5af0742d2467ac7d9e883358c219ee0e9f9ab0408e7c04aa1cc84f52c3ffa992154ea8a2880bb67874e9a2968570e19c1d686ea36f1c683f2fd73e7d41eed68d13ed732034a993e94dba03b5231f42d888229dd39e7139d6e0607444f0055a08f6d8f916796d637e0602435991576780a453d2f84948c14216b6618243f659f38a97c99f2db08a94480f2b465088a6ffe7764c907d4e144e361c95a58ed032cb9473ecd57466c3b0e13e829feb5c778b402bf835d0b88137521ac37988b7ee278bb241053585499aff40e539546d0e55177777df09921da43723a3040effddbb2866a102c35af3e6654d45ec54bb9b9d1418a40d1cf2d1ba9e4b0c4e2d5f6ffeab554df54dc7d8e426d4a1ee4ccacd76675b6db136b94d4b269c9e79176034257fe5adee6fd05eec735ee4a6c44799b0c147638170ca1cc103c0050a22acf7a154d4ef30d3fd5438af0f14f70237cc0f62760ec80cf3ecfc910b73b0ec05c11f2d4a905559fadf2ccc3bb1f48874d3573e6cb898e669204e8010d013c417d346a36998e06e8d7dfbc4f5391c9d2971445f75fc1017228c5e6fe59f38ac74d95e9d64a29b00a096a5e3f026e6f25d13fddb161b279c9abe22b54521dbfca1bb31c3b66821863eb13398219282fd7280c00a40f69218235b3b4ae81c0eb140a90dfb8d6c9a93b920b911d04fbbd7c0235ed8b58f3f7162cf2e46ba0ac7fda3d4ba7b233fe59682f6ac8f34f1248e540e90ac6c5e343f65c549dc5be9f6658a5c0bd8561e0bcf4f70840a4bd1194729c7fd70b13544e4f1d9586d0e22b00fee3ef4d3a858953c6768577ddaebe8a8b38ab1e36bb811f8b94d22c71c9796e57e78c60299ec76a6da31c4fe9d1b4f3cc1a421d30eb3b3d47f0a652d3e9c9106804c855e27928ef5f60f86c7194798155423a4021caf085a7836f37fc0c33bc7ebf8176ca6c2b47da9230ebd2352c6a2d47efb177decdfa29acd620cc378dfe8da0fdb245d0f46a4d240d5baba10c575594304421093390a66ec48101ec92214e7a8c6eb9f33771d47a98da7146091c902a84c3f4a61a3c283b6887775eef49bbad7f5387c18743dfa5019bbe7ab98476f9b52fe5b9120afa903844ac9039167e0fa32122df0cc9bdc5bbbd2a79685a3c99550260fe5eea847502fb7df2e0a01a7e341e85997247dd2e97e82124263682053170fe842eaa7d8de07fe58d5ab69412fdde2b1ca6bfaeeb3280fc056f7e6565cbf999580951a1e45c47fe9a5b7dc9c55406f7d9d087618e07a56be827c35406eb4d724cd8f1112b2395f1b7570feae5a97b1dcfa92c238318bb2394254085f2240710c4926f9196488fce94b4e7e883e0114e74f4f03fe38c068c167c846445d5c7760829396d2bad8501023edffde8568acb69902c459a83d9d4192e02a34f76b33451165cf7880a6d833512f955c9012d5c4b47f8b077a5d60900fb29b06da0355704db79c339ae2994b899d22c6c2cc5aea5c2fc7eaf12862f6f61867b0fa30190190549bd195efe3dc0fd96c67f30a20247530ad1a3d6d38110decc0af229fcbd60cf082a470fa53d4426b596a9b33e5baa9f5b40afe0531e548aab2679250eddc38c435dc59875704a3f4ae4bdbd1c6f64861f44a1460cab76037fa4bbda4bd1a5cb038687cfa42e9aea5e04eaee573e4094d65bc6f13555c06c1852c2a84246ef57f748c742ced9a9a8b3d24eb95ff503242909264f2158eb26f86eaca46080f53ea7b769402c6bbaafa2dc3368f99d3f733646ffecbc2d5cfb5b6d717bf545629aa671c499608fe0b1042b2e211e0407becd3f5e8e2333924259be6986cee17a39003c92485387723b3e9c232be23f252515e57017a1be7a2e7bd62e280948c041896117cb7d2c183f5f55db4c012e60c22377582419d9e68dd8238a958d530bb771980219dbcfde3a8c187d9be3c49d42ec5335933d15d8a58271d3ac91cc71793101cbd99f49b77768778ead174952dc8a7b9ff4a8acc6358ec6424d607c54d17cc27d041cafa7ed9362edf0dab2706dd1b2d89d6db59484dbf54aa5e7887cba73838a4026b1ced43c6f148c08bb0122d4778ac61380bc3b48b06485eecc51be2743780d9f97f2f65f11d02889266cda8ad839ed88e7af166c063cd21e64b12a4b41e39009ae42a0615085ad9a2d21d9cd1cb49a6389a977ac498b06865eaf676076dd78f9feaf952665db10d670db7e4fe9697658dbe07c62e87a4fe05cdb83a348dba0f193da4835ee23203d1be677c65deff649e6a226db8fdf7b4eeb570faf9341503ff37c46e61b5a540c3705d9b555528119ee3fcff84e2d40271000a72ef039ecfad5a52a5bd7680a0013223e07434733b4eb3e6ac9098af95770ba9ceec045dfdef967a028c9526031f4ec691e1ee15abd2dcdca23bd666c7596a368092f7c0519363960e65e581085c8da370f4d1c07d29d1e9b6cdeebb567017f1af5cefa21d97891f3c75046fe66e8ff138919b6b610d85d1c6ccb14ac66e80043f187f4f3999255e7e6c986185b711cbe3f74366402060cbb86a49826d7000a125b3faef6f870de063de558d1c3487ed09bbc08dcaa7a732783cae8d6aee050cad095d7cbf05f9aaaedcbc0ff11875c3c1ee7c52da294c96c29635d1ac8a09378b1e625bab39a195568ba93c2594a3446fe8ecd25a9437b9e47941fde4fabbe4fe119a28046f99543def2c551c38dd89b7c4a8fa87d9bde7801d681ae2e653b2f9fdee127446cf7942ebda7990b1b94260f0d099ee872b3d3a43fb59a76185a6cb3f5eee9faf88cbf783341d391376adacbf461e6a81ec7b20488a367379915d503ab030d412bad5e5ab600b78daa4d7befd44c463f190afc4466b6b046d15087161e5a7c56987385aefdc640966247f5e41486ebedbd2d23d7f89c78afc0dfa53b57684f737f952a47c1583c139cc98d517aca717a23160b8b52e3e219a20a479f6cd716b1d40e0c8999bd402986198204784817e6d045f5c73626a2af9cecb262545b5a9285b5689513470671efaf4f2b4732545a05f70044f16dec597f2ebb07cc4abb714fc0c521734ce30f82277343373a592f7a429b29568b3fe577c52ae1013141e3a3d4870798697b1b7bac5edeff5fcfdfeff0b0c52556a7c8992a6a7b7cae7ebf407161b323647969d9ea1a8c3d9e8f5f6010b222d46529499aab1cdced5d9000000000000000000000000001625354301fd210500fdfb4873f9710420840b6e8c50b6d8fc5d71391da617eed77dc4e3183ecbc27a5610b2dfa55a9438b2ccb851b56660741b77dd9928805bf800c18d34e9dee6bee1d503570f4952ce9293594c3e56a0735e64225eddf47e9283a37796bf50c0610c744af0fcf53c2119cd8200d47bf1d8dda804d14620f8e2c3e9bdbc027b8f378e176a56e3a0ff1839c73c84d7e5e3a85c41f433400a30aae6fb8b2a962dd2433bb8c6abad8e08b4322eb28132bcab93107e3d12fdf925d89af08373343e45bae4e94dc4a70ee33397cb85bbc0f9b7bb707ff705dda06f9fee9c0556b437c722207d89703b7f6adae08fe64a69f5602fa6b1478ce0044ccec30cd2c59ae3a584bbfc450e7ad3233f56f8cadd939fffb95e86c3b0617dbb841fdd138922d462810ad040111b33520dca08f4cadad0c9c8bb82c97e8c0395dfa0d2c19fae18adf4624c33a45a09eef38d1b9cc6da432baa7b41a64ed1432a2815f5983667df85a57ccddee406d302bdbe4e7394175524f9b43417429d5c4f5debe61ca30a49f29610e6fb05eb4ab65eef77c977f655f14af8101d1f2623efafdfb8557a55975404a5e373e403e0a09840adebb74d913787efee12c3cd9de5d0e0cabcac641579785316c96f450767a451f3d3b29ba0ae80dba89c002af5d3264f7a8c57054f05196da3b86ba99099a519c7917429a721ec965ac8ca71236d7ba460c6e811928abec4c7d448311eff048c7219368cde3f857333ef9c68dea5b9d208be12adb42cef4c2c0a897f427fdb030bef78550bb9f0f4f941848f166b774582542e1cf8b0d9c4ccc437554c5e8a5a9ed6ab3572344acfac15ec19831bd96dabf9cb053a7ae25b1b2074005fb734b687c147c00ffaaca87d8a4d7c5b831fd9f8e00234623cfc3e943471f44a98ae0c1290a4fd1c424e4972170d488df9b6db593a9654d02f70b9cb2752f7ee89bbce400c226a8d235d66f20fc0da74410e74ebd58e615ba0d05450ccc75a913d14c7ca4500ca3d898491e55d03dadfdedc7fa2a3a4690695a3399e1e49eaef0ce6f927c5a557027a25fc893de60d91d1135b43496c28a3361fbcc1d401876215b2c01a83a370fed6b00cbe6bf8e8c7999e6919c57b2be56e94805eb5d44846301b195e196994a3a728efe6a4187c511919739517b5dad638eddf967b3164599a901f4f048b7c7d344288d62220c067a71608c763599d06d59e1e4ebf7453aba32e4da4fc86a5106bdd777c889fbd73d2e343e5d4a283cf495a7fdcd1e740b1e9d57bad7c9c2377dbb9bd16e1236cbbc303841e466341730bc5a872bebde4e7b10f3669d56ab524d8a1a9c8b68e6a8efa1c6a5d63ae50f16492affe7f622b890536b2ea6ba303a0ddefe12a88248fcf254179b99d45650cbc32fb4b97efb5ac78d2dd2d00b53aa13d5559d763e11e979aca595d230eb3cb113ac65f3358b62f75b41312fdedc1f9f5b7375ea06d3cdbcd53cbdcd6747b1b2cfd3bd6925b4a441290a41c425317674b003bc82930b2e123fa1696eb442b39947e41f404a5b8a7759cb69f6bbbed9c78843c2ac0e0446c32382a8c113772302c1f92c6a519bbafb0468f57730f7db43f0a37e2e3bb6f23dae1a19b8d38308aff0462385e6b85bbf44d9a580d266e35430b02448186935926f9c8cc91fd7c15c547c67fa47a9ecafd782f485f7700c7d6a65375c0721b62ac92d0061b72c23fd89057e58be64049b0698431135cd3a9bddf0e30e649e8a42a1addf77b8d81015b1325ecb4dca5a1199a34f2754c271c0edccf10af445eca5512750672186af2799bd63169ecf8911a9860544353cda06926b640d307a22dd051d27c7220f694977b6a000000",
  "txid": "29c94a8613a5a99d770abcbc362c6a60572f6fe7f683cf1cf7d6d0708650e65a",
  "hash": "288ea4f44e4c43b2bbddae2b15afc8fe5c7e77de63b506f747ae7525e1ff7eb4",
  "size": 5085,
  "vsize": 2278,
  "version": 1,
  "locktime": 106,
  "vin": [
    {
      "txid": "0abaabbf84978b641e117ffee5fdf2587f279fc82689c162fda39ec8ea8bec03",
      "vout": 1,
      "scriptSig": {
        "asm": "",
        "hex": ""
      },
      "txinwitness": [
        "b7ed59bcaa07bb030f95a59280b3c95993f23886a9fa5b5664285b47470c14613651a9c175addf60e841c63257e748ba9aff27ac6b8eab4119913f97723f24ff1d004078988e27fb1186bbfb103b0025829f516328ece714a31242952da14a1d3efdef0483b7ed622d0ced0ed8c3364ad4cc7112bf139298cef081fc06339871d04a024aa201524dfd9d221e5af0742d2467ac7d9e883358c219ee0e9f9ab0408e7c04aa1cc84f52c3ffa992154ea8a2880bb67874e9a2968570e19c1d686ea36f1c683f2fd73e7d41eed68d13ed732034a993e94dba03b5231f42d888229dd39e7139d6e0607444f0055a08f6d8f916796d637e0602435991576780a453d2f84948c14216b6618243f659f38a97c99f2db08a94480f2b465088a6ffe7764c907d4e144e361c95a58ed032cb9473ecd57466c3b0e13e829feb5c778b402bf835d0b88137521ac37988b7ee278bb241053585499aff40e539546d0e55177777df09921da43723a3040effddbb2866a102c35af3e6654d45ec54bb9b9d1418a40d1cf2d1ba9e4b0c4e2d5f6ffeab554df54dc7d8e426d4a1ee4ccacd76675b6db136b94d4b269c9e79176034257fe5adee6fd05eec735ee4a6c44799b0c147638170ca1cc103c0050a22acf7a154d4ef30d3fd5438af0f14f70237cc0f62760ec80cf3ecfc910b73b0ec05c11f2d4a905559fadf2ccc3bb1f48874d3573e6cb898e669204e8010d013c417d346a36998e06e8d7dfbc4f5391c9d2971445f75fc1017228c5e6fe59f38ac74d95e9d64a29b00a096a5e3f026e6f25d13fddb161b279c9abe22b54521dbfca1bb31c3b66821863eb13398219282fd7280c00a40f69218235b3b4ae81c0eb140a90dfb8d6c9a93b920b911d04fbbd7c0235ed8b58f3f7162cf2e46ba0ac7fda3d4ba7b233fe59682f6ac8f34f1248e540e90ac6c5e343f65c549dc5be9f6658a5c0bd8561e0bcf4f70840a4bd1194729c7fd70b13544e4f1d9586d0e22b00fee3ef4d3a858953c6768577ddaebe8a8b38ab1e36bb811f8b94d22c71c9796e57e78c60299ec76a6da31c4fe9d1b4f3cc1a421d30eb3b3d47f0a652d3e9c9106804c855e27928ef5f60f86c7194798155423a4021caf085a7836f37fc0c33bc7ebf8176ca6c2b47da9230ebd2352c6a2d47efb177decdfa29acd620cc378dfe8da0fdb245d0f46a4d240d5baba10c575594304421093390a66ec48101ec92214e7a8c6eb9f33771d47a98da7146091c902a84c3f4a61a3c283b6887775eef49bbad7f5387c18743dfa5019bbe7ab98476f9b52fe5b9120afa903844ac9039167e0fa32122df0cc9bdc5bbbd2a79685a3c99550260fe5eea847502fb7df2e0a01a7e341e85997247dd2e97e82124263682053170fe842eaa7d8de07fe58d5ab69412fdde2b1ca6bfaeeb3280fc056f7e6565cbf999580951a1e45c47fe9a5b7dc9c55406f7d9d087618e07a56be827c35406eb4d724cd8f1112b2395f1b7570feae5a97b1dcfa92c238318bb2394254085f2240710c4926f9196488fce94b4e7e883e0114e74f4f03fe38c068c167c846445d5c7760829396d2bad8501023edffde8568acb69902c459a83d9d4192e02a34f76b33451165cf7880a6d833512f955c9012d5c4b47f8b077a5d60900fb29b06da0355704db79c339ae2994b899d22c6c2cc5aea5c2fc7eaf12862f6f61867b0fa30190190549bd195efe3dc0fd96c67f30a20247530ad1a3d6d38110decc0af229fcbd60cf082a470fa53d4426b596a9b33e5baa9f5b40afe0531e548aab2679250eddc38c435dc59875704a3f4ae4bdbd1c6f64861f44a1460cab76037fa4bbda4bd1a5cb038687cfa42e9aea5e04eaee573e4094d65bc6f13555c06c1852c2a84246ef57f748c742ced9a9a8b3d24eb95ff503242909264f2158eb26f86eaca46080f53ea7b769402c6bbaafa2dc3368f99d3f733646ffecbc2d5cfb5b6d717bf545629aa671c499608fe0b1042b2e211e0407becd3f5e8e2333924259be6986cee17a39003c92485387723b3e9c232be23f252515e57017a1be7a2e7bd62e280948c041896117cb7d2c183f5f55db4c012e60c22377582419d9e68dd8238a958d530bb771980219dbcfde3a8c187d9be3c49d42ec5335933d15d8a58271d3ac91cc71793101cbd99f49b77768778ead174952dc8a7b9ff4a8acc6358ec6424d607c54d17cc27d041cafa7ed9362edf0dab2706dd1b2d89d6db59484dbf54aa5e7887cba73838a4026b1ced43c6f148c08bb0122d4778ac61380bc3b48b06485eecc51be2743780d9f97f2f65f11d02889266cda8ad839ed88e7af166c063cd21e64b12a4b41e39009ae42a0615085ad9a2d21d9cd1cb49a6389a977ac498b06865eaf676076dd78f9feaf952665db10d670db7e4fe9697658dbe07c62e87a4fe05cdb83a348dba0f193da4835ee23203d1be677c65deff649e6a226db8fdf7b4eeb570faf9341503ff37c46e61b5a540c3705d9b555528119ee3fcff84e2d40271000a72ef039ecfad5a52a5bd7680a0013223e07434733b4eb3e6ac9098af95770ba9ceec045dfdef967a028c9526031f4ec691e1ee15abd2dcdca23bd666c7596a368092f7c0519363960e65e581085c8da370f4d1c07d29d1e9b6cdeebb567017f1af5cefa21d97891f3c75046fe66e8ff138919b6b610d85d1c6ccb14ac66e80043f187f4f3999255e7e6c986185b711cbe3f74366402060cbb86a49826d7000a125b3faef6f870de063de558d1c3487ed09bbc08dcaa7a732783cae8d6aee050cad095d7cbf05f9aaaedcbc0ff11875c3c1ee7c52da294c96c29635d1ac8a09378b1e625bab39a195568ba93c2594a3446fe8ecd25a9437b9e47941fde4fabbe4fe119a28046f99543def2c551c38dd89b7c4a8fa87d9bde7801d681ae2e653b2f9fdee127446cf7942ebda7990b1b94260f0d099ee872b3d3a43fb59a76185a6cb3f5eee9faf88cbf783341d391376adacbf461e6a81ec7b20488a367379915d503ab030d412bad5e5ab600b78daa4d7befd44c463f190afc4466b6b046d15087161e5a7c56987385aefdc640966247f5e41486ebedbd2d23d7f89c78afc0dfa53b57684f737f952a47c1583c139cc98d517aca717a23160b8b52e3e219a20a479f6cd716b1d40e0c8999bd402986198204784817e6d045f5c73626a2af9cecb262545b5a9285b5689513470671efaf4f2b4732545a05f70044f16dec597f2ebb07cc4abb714fc0c521734ce30f82277343373a592f7a429b29568b3fe577c52ae1013141e3a3d4870798697b1b7bac5edeff5fcfdfeff0b0c52556a7c8992a6a7b7cae7ebf407161b323647969d9ea1a8c3d9e8f5f6010b222d46529499aab1cdced5d9000000000000000000000000001625354301",
        "00fdfb4873f9710420840b6e8c50b6d8fc5d71391da617eed77dc4e3183ecbc27a5610b2dfa55a9438b2ccb851b56660741b77dd9928805bf800c18d34e9dee6bee1d503570f4952ce9293594c3e56a0735e64225eddf47e9283a37796bf50c0610c744af0fcf53c2119cd8200d47bf1d8dda804d14620f8e2c3e9bdbc027b8f378e176a56e3a0ff1839c73c84d7e5e3a85c41f433400a30aae6fb8b2a962dd2433bb8c6abad8e08b4322eb28132bcab93107e3d12fdf925d89af08373343e45bae4e94dc4a70ee33397cb85bbc0f9b7bb707ff705dda06f9fee9c0556b437c722207d89703b7f6adae08fe64a69f5602fa6b1478ce0044ccec30cd2c59ae3a584bbfc450e7ad3233f56f8cadd939fffb95e86c3b0617dbb841fdd138922d462810ad040111b33520dca08f4cadad0c9c8bb82c97e8c0395dfa0d2c19fae18adf4624c33a45a09eef38d1b9cc6da432baa7b41a64ed1432a2815f5983667df85a57ccddee406d302bdbe4e7394175524f9b43417429d5c4f5debe61ca30a49f29610e6fb05eb4ab65eef77c977f655f14af8101d1f2623efafdfb8557a55975404a5e373e403e0a09840adebb74d913787efee12c3cd9de5d0e0cabcac641579785316c96f450767a451f3d3b29ba0ae80dba89c002af5d3264f7a8c57054f05196da3b86ba99099a519c7917429a721ec965ac8ca71236d7ba460c6e811928abec4c7d448311eff048c7219368cde3f857333ef9c68dea5b9d208be12adb42cef4c2c0a897f427fdb030bef78550bb9f0f4f941848f166b774582542e1cf8b0d9c4ccc437554c5e8a5a9ed6ab3572344acfac15ec19831bd96dabf9cb053a7ae25b1b2074005fb734b687c147c00ffaaca87d8a4d7c5b831fd9f8e00234623cfc3e943471f44a98ae0c1290a4fd1c424e4972170d488df9b6db593a9654d02f70b9cb2752f7ee89bbce400c226a8d235d66f20fc0da74410e74ebd58e615ba0d05450ccc75a913d14c7ca4500ca3d898491e55d03dadfdedc7fa2a3a4690695a3399e1e49eaef0ce6f927c5a557027a25fc893de60d91d1135b43496c28a3361fbcc1d401876215b2c01a83a370fed6b00cbe6bf8e8c7999e6919c57b2be56e94805eb5d44846301b195e196994a3a728efe6a4187c511919739517b5dad638eddf967b3164599a901f4f048b7c7d344288d62220c067a71608c763599d06d59e1e4ebf7453aba32e4da4fc86a5106bdd777c889fbd73d2e343e5d4a283cf495a7fdcd1e740b1e9d57bad7c9c2377dbb9bd16e1236cbbc303841e466341730bc5a872bebde4e7b10f3669d56ab524d8a1a9c8b68e6a8efa1c6a5d63ae50f16492affe7f622b890536b2ea6ba303a0ddefe12a88248fcf254179b99d45650cbc32fb4b97efb5ac78d2dd2d00b53aa13d5559d763e11e979aca595d230eb3cb113ac65f3358b62f75b41312fdedc1f9f5b7375ea06d3cdbcd53cbdcd6747b1b2cfd3bd6925b4a441290a41c425317674b003bc82930b2e123fa1696eb442b39947e41f404a5b8a7759cb69f6bbbed9c78843c2ac0e0446c32382a8c113772302c1f92c6a519bbafb0468f57730f7db43f0a37e2e3bb6f23dae1a19b8d38308aff0462385e6b85bbf44d9a580d266e35430b02448186935926f9c8cc91fd7c15c547c67fa47a9ecafd782f485f7700c7d6a65375c0721b62ac92d0061b72c23fd89057e58be64049b0698431135cd3a9bddf0e30e649e8a42a1addf77b8d81015b1325ecb4dca5a1199a34f2754c271c0edccf10af445eca5512750672186af2799bd63169ecf8911a9860544353cda06926b640d307a22dd051d27c7220f694977b"
      ],
      "sequence": 4294967294
    }
  ],
  "vout": [
    {
      "value": 1.0,
      "n": 0,
      "scriptPubKey": {
        "asm": "OP_RETURN 3f37670ced1d0c01927be53c5292dee9bb4f3d0d1b7fc2037cb1a1dc10b4b92d 9e0f928410046de141e0635f448cedea27669c68bdaaac63a2ab8c93adb0fdfbbe2fb2a430244dc161c0437f64accdca0746bc489d8a8c43828bacb38d90dddbde4fd2c450442da101a0231f04ccadaa6726dc28fdeaec23e2ebccd3edf0bdbbfe6ff2e470640d812180033f24ec8d8a4706fc08ddcacc03c2cbecf3cdd09d9b1e8f12049084ed61c160e3dfc40c6d6aa7e61ce83d2a2ce3222b0c132d307d7b3eaf3224b0a4cd41e140c3ffe42c4d4a87c63cc81d0a0cc3020b2c330d105d5b5ecf5244d0c4ad218120a39f844c2d2ae7a65ca87d6a6ca3626b4c536d703d3b7eef7264f0e48d01a10083bfa46c0d0ac7867c885d4a4c83424b6c734d501d1b9e0f928410046de141e0635f448cedea27669c68bdaaac63a2ab8c93adb0fdfbbe2fb2a430244dc161c0437f64accdca0746bc489d8a8c43828bacb38d90dddbde4fd2c450442da101a0231f04ccadaa6726dc28fdeaec23e2ebccd3edf0bdbbfe6ff2e470640d812180033f24ec8d8a4706fc08ddcacc03c2cbecf3cdd09d9b1e8f12049084ed61c160e3dfc40c6d6aa7e61ce83d2a2ce3222b0c132d307d7b3eaf3224b0a4cd41e140c3ffe42c4d4a87c63cc81d0a0cc3020b2c330d105d5b5ecf5244d0c4ad218120a39f844c2d2ae7a65ca87d6a6ca3626b4c536d703d3b7eef7264f0e48d01a10083bfa46c0d0ac7867c885d4a4c83424b6c734d501d1b9e0f928410046de141e0635f448cedea27669c68bdaaac63a2ab8c93adb0fdfbbe2fb2a430244dc161c0437f64accdca0746bc489d8a8c43828bacb38d90dddbde4fd2c450442da101a0231f04ccadaa6726dc28fdeaec23e2ebccd3edf0bdbbfe6ff2e470640d812180033f24ec8d8a4706fc08ddcacc03c2cbecf3cdd09d9b1e8f12049084ed61c160e3dfc40c6d6aa7e61ce83d2a2ce3222b0c132d307d7b3eaf3224b0a4cd41e140c3ffe42c4d4a87c63cc81d0a0cc3020b2c330d105d5b5ecf5244d0c4ad218120a39f844c2d2ae7a65ca87d6a6ca3626b4c536d703d3b7eef7264f0e48d01a10083bfa46c0d0ac7867c885d4a4c83424b6c734d501d1b9e0f928410046de141e0635f448cedea27669c68bdaaac63a2ab8c93adb0fdfbbe2fb2a430244dc161c0437f64accdca0746bc489d8a8c43828bacb38d90dddbde4fd2c450442da101a0231f04ccadaa6726dc28fdeaec23e2ebccd3edf0bdbbfe6ff2e470640d812180033f24ec8d8a4706fc08ddcacc03c2cbecf3cdd09d9b1e8f12049084ed61c160e3dfc40c6d6aa7e61ce83d2a2ce3222b0c132d307d7b3eaf3224b0a4cd41e140c3ffe42c4d4a87c63cc81d0a0cc3020b2c330d105d5b5ecf5244d0c4ad218120a39f844c2d2ae7a65ca87d6a6ca3626b4c536d703d3b7eef7264f0e48d01a10083bfa46c0d0ac7867c885d4a4c83424b6c734d501d1b9e0f928410046de141e0635f448cedea27669c68bdaaac63a2ab8c93adb0fdfbbe2fb2a430244dc161c0437f64accdca0746bc489d8a8c43828bacb38d90dddbde4fd2c450442da101a0231f04ccadaa6726dc28fdeaec23e2ebccd3edf0bdbbfe6ff2e470640d812180033f24ec8d8a4706fc08ddcacc03c2cbecf3cdd09d9b1e8f12049084ed61c160e3dfc40c6d6ad47a935c50be63ed63ba2b0bb2025882ef1b4c978818d9f47930d4b12ec44ce8",
        "hex": "6a203f37670ced1d0c01927be53c5292dee9bb4f3d0d1b7fc2037cb1a1dc10b4b92d4db0049e0f928410046de141e0635f448cedea27669c68bdaaac63a2ab8c93adb0fdfbbe2fb2a430244dc161c0437f64accdca0746bc489d8a8c43828bacb38d90dddbde4fd2c450442da101a0231f04ccadaa6726dc28fdeaec23e2ebccd3edf0bdbbfe6ff2e470640d812180033f24ec8d8a4706fc08ddcacc03c2cbecf3cdd09d9b1e8f12049084ed61c160e3dfc40c6d6aa7e61ce83d2a2ce3222b0c132d307d7b3eaf3224b0a4cd41e140c3ffe42c4d4a87c63cc81d0a0cc3020b2c330d105d5b5ecf5244d0c4ad218120a39f844c2d2ae7a65ca87d6a6ca3626b4c536d703d3b7eef7264f0e48d01a10083bfa46c0d0ac7867c885d4a4c83424b6c734d501d1b9e0f928410046de141e0635f448cedea27669c68bdaaac63a2ab8c93adb0fdfbbe2fb2a430244dc161c0437f64accdca0746bc489d8a8c43828bacb38d90dddbde4fd2c450442da101a0231f04ccadaa6726dc28fdeaec23e2ebccd3edf0bdbbfe6ff2e470640d812180033f24ec8d8a4706fc08ddcacc03c2cbecf3cdd09d9b1e8f12049084ed61c160e3dfc40c6d6aa7e61ce83d2a2ce3222b0c132d307d7b3eaf3224b0a4cd41e140c3ffe42c4d4a87c63cc81d0a0cc3020b2c330d105d5b5ecf5244d0c4ad218120a39f844c2d2ae7a65ca87d6a6ca3626b4c536d703d3b7eef7264f0e48d01a10083bfa46c0d0ac7867c885d4a4c83424b6c734d501d1b9e0f928410046de141e0635f448cedea27669c68bdaaac63a2ab8c93adb0fdfbbe2fb2a430244dc161c0437f64accdca0746bc489d8a8c43828bacb38d90dddbde4fd2c450442da101a0231f04ccadaa6726dc28fdeaec23e2ebccd3edf0bdbbfe6ff2e470640d812180033f24ec8d8a4706fc08ddcacc03c2cbecf3cdd09d9b1e8f12049084ed61c160e3dfc40c6d6aa7e61ce83d2a2ce3222b0c132d307d7b3eaf3224b0a4cd41e140c3ffe42c4d4a87c63cc81d0a0cc3020b2c330d105d5b5ecf5244d0c4ad218120a39f844c2d2ae7a65ca87d6a6ca3626b4c536d703d3b7eef7264f0e48d01a10083bfa46c0d0ac7867c885d4a4c83424b6c734d501d1b9e0f928410046de141e0635f448cedea27669c68bdaaac63a2ab8c93adb0fdfbbe2fb2a430244dc161c0437f64accdca0746bc489d8a8c43828bacb38d90dddbde4fd2c450442da101a0231f04ccadaa6726dc28fdeaec23e2ebccd3edf0bdbbfe6ff2e470640d812180033f24ec8d8a4706fc08ddcacc03c2cbecf3cdd09d9b1e8f12049084ed61c160e3dfc40c6d6aa7e61ce83d2a2ce3222b0c132d307d7b3eaf3224b0a4cd41e140c3ffe42c4d4a87c63cc81d0a0cc3020b2c330d105d5b5ecf5244d0c4ad218120a39f844c2d2ae7a65ca87d6a6ca3626b4c536d703d3b7eef7264f0e48d01a10083bfa46c0d0ac7867c885d4a4c83424b6c734d501d1b9e0f928410046de141e0635f448cedea27669c68bdaaac63a2ab8c93adb0fdfbbe2fb2a430244dc161c0437f64accdca0746bc489d8a8c43828bacb38d90dddbde4fd2c450442da101a0231f04ccadaa6726dc28fdeaec23e2ebccd3edf0bdbbfe6ff2e470640d812180033f24ec8d8a4706fc08ddcacc03c2cbecf3cdd09d9b1e8f12049084ed61c160e3dfc40c6d6ad47a935c50be63ed63ba2b0bb2025882ef1b4c978818d9f47930d4b12ec44ce8",
        "type": "nulldata"
      }
    },
    {
      "value": 499991.8648,
      "n": 1,
      "scriptPubKey": {
        "asm": "1 8e13d503583868da40a0506f9e55304d073a1f05cc74f5fa460230047bfec679",
        "hex": "51208e13d503583868da40a0506f9e55304d073a1f05cc74f5fa460230047bfec679",
        "reqSigs": 1,
        "type": "witness_v1_scripthash",
        "addresses": [
          "3QJmnh"
        ]
      }
    }
  ],
  "blockhash": "ed58b71ef50cb049f6fd5c1ad274bdeb3951d970e0a56ec51ef7152d34b6d8c5",
  "confirmations": 1,
  "time": 1764177054,
  "blocktime": 1764177054
}