{
  "hex": "0100000000010196b452b2bc9ee37fb3b46718545d6c2bd06b3a0b5cea9a4ee7ffa47d7affea530000000000feffffff02d0cb9045792d0000225120e69a18d74ed30decee7a05b37e03d5dd3b08cc4a6bd525f4fd2b6a9d16da1dc100e1f50500000000fdd5046a209ecacd969cfa8ad30894ed1bb55ebf1b4ac7d0132b6436b6a0794461da8e25f84db004c0ce5ba299d43e9c1454e498d96eb600314c0aff5bf8e7b8c74f3534607f00c3e0ee7b82b9f41ebc3474c4b8f94e9620116c2adf7bd8c798e76f1514405f20e3808e1be2d9947edc5414a4d8992ef640710c4abf1bb8a7f8870f7574203f4083a0ae3bc2f9b45efc743484f8b90ed660512c6a9f3b9887d8a72f5554001f60a3404edb221954be1c94d4641859ee3680b1cc8a7fdb78673847cfb5b4e0ff8043606efb0239749e3cb4f4443879ce16a091ecaa5ffb58471867ef9594c0dfa063000e9b625914fe5cd494245819ae76c0f18cca3f9b382778078ff5f4a0bfc003202ebb427934de7cf4b40478398e56e0d1acea1fbb18075827afd5d4809fe023c0ce5ba299d43e9c1454e498d96eb600314c0aff5bf8e7b8c74f3534607f00c3e0ee7b82b9f41ebc3474c4b8f94e9620116c2adf7bd8c798e76f1514405f20e3808e1be2d9947edc5414a4d8992ef640710c4abf1bb8a7f8870f7574203f4083a0ae3bc2f9b45efc743484f8b90ed660512c6a9f3b9887d8a72f5554001f60a3404edb221954be1c94d4641859ee3680b1cc8a7fdb78673847cfb5b4e0ff8043606efb0239749e3cb4f4443879ce16a091ecaa5ffb58471867ef9594c0dfa063000e9b625914fe5cd494245819ae76c0f18cca3f9b382778078ff5f4a0bfc003202ebb427934de7cf4b40478398e56e0d1acea1fbb18075827afd5d4809fe023c0ce5ba299d43e9c1454e498d96eb600314c0aff5bf8e7b8c74f3534607f00c3e0ee7b82b9f41ebc3474c4b8f94e9620116c2adf7bd8c798e76f1514405f20e3808e1be2d9947edc5414a4d8992ef640710c4abf1bb8a7f8870f7574203f4083a0ae3bc2f9b45efc743484f8b90ed660512c6a9f3b9887d8a72f5554001f60a3404edb221954be1c94d4641859ee3680b1cc8a7fdb78673847cfb5b4e0ff8043606efb0239749e3cb4f4443879ce16a091ecaa5ffb58471867ef9594c0dfa063000e9b625914fe5cd494245819ae76c0f18cca3f9b382778078ff5f4a0bfc003202ebb427934de7cf4b40478398e56e0d1acea1fbb18075827afd5d4809fe023c0ce5ba299d43e9c1454e498d96eb600314c0aff5bf8e7b8c74f3534607f00c3e0ee7b82b9f41ebc3474c4b8f94e9620116c2adf7bd8c798e76f1514405f20e3808e1be2d9947edc5414a4d8992ef640710c4abf1bb8a7f8870f7574203f4083a0ae3bc2f9b45efc743484f8b90ed660512c6a9f3b9887d8a72f5554001f60a3404edb221954be1c94d4641859ee3680b1cc8a7fdb78673847cfb5b4e0ff8043606efb0239749e3cb4f4443879ce16a091ecaa5ffb58471867ef9594c0dfa063000e9b625914fe5cd494245819ae76c0f18cca3f9b382778078ff5f4a0bfc003202ebb427934de7cf4b40478398e56e0d1acea1fbb18075827afd5d4809fe023c0ce5ba299d43e9c1454e498d96eb600314c0aff5bf8e7b8c74f3534607f00c3e0ee7b82b9f41ebc3474c4b8f94e9620116c2adf7bd8c798e76f1514405f20e3808e1be2d9947edc5414a4d8992ef640710c4abf1bb8a7f8870f7574203f4083a0ae3bc2f9b45efc743484f8b90ed660512c6a9f3b9887d8a72f5554001f60a3404edb221954be1c94d4641859ee36806788d11a06d39798d31124fc104a509086ac30ec08fdc65ec6a35ab6dca8878702fd7509ede9edb3051316f08ee1aa3a7453b3e72fd3639337f7bab7b541984e451eb5e7ea5990849d747dca9e81fffcb891175d98b2f57e572d51e2b33981b6aa06cbae818cb6fae610691cde06f26aac8db9b5f9554f93beac0ffa4eb9be3b0c7119c2601780d08f052f80e962bd521607c60a012b9638daa62199c82beb94893025723d33b11ea1150e23e989dd8c43aeb693e5caaf5889265972358cb9087375f7e5617a6d41ccfceb759491e35a95772acc91a9f8f30da8994d76e1b36ef9358f64e26a2c8486e2cf228549c9102576376adfe7f222de1881a488ba97567878891ff1f60001b3d692097450b135d507ce19beab24888d420dadafa46d7fc7f1333d489a0b0a5bae7f9e605bce499c49cbd146c8560746cb36f9abf6e48c89ed40a2ea9bc5524f922594a8eaffc27afcc895b4db064105309bd4b8f0425facd2e04d6bcf9c55981f4421c0ccbb8d2df8ca0bf0d061da888112ce8f0af8125f0d727701186864634318c8bf0923de42ee0ce7c8349e8ce04bf37253cb35ca32b702c79f61a7088eb93ef1a05cda5bf5a5f337c853b91f445e8f4cd8475d106c146d0f56bafd2db83c0d04bb94840dd0ee6c8df4889fe0da150d55ec01920dc6e01a1b635b351b01375c7963dec9f4e584accc6b74f1854e96bd24cc44a953861478786e15bc21b24ffecf7aa6312dba3811db14ccb12db4b65273d126c96de22af6c756cbb6f260e1467866a5d4ca0fb116572f6625e7478c9093b05b57e61bfbbaabcfd6c1128bd64300484c73592002d9a580be4e3bb33c0bbd6148c0fbae43b4d6de303012a21c8130a7e4d8cbdf81e6680346b941bc53ee836ed6252e77b6a2472ec4333fa6e66f4a72735fe864983f927385f4f92e38fd380c6283f61157056a0af1767a9e9166966739ddff99f578a273c2fa62d797258b33c08461b962f3351035707c53f2e2d880ac787e0fe62c71fd973c8a4db3a5c67ef52ab34271be27f7620dda4f613fc01a2b59d7df654d08c2939e102aaab574ac0481150c6d8ae47fb75573de370ac0a993d5c7e1c5a769941e9c756c04890e35fa1b4d0540cf2ee5b36d6d332c1c2824009d8cdbb9142d1fff81e86226aff322e23d36145bf39d43fe59cd238dd081c09d1bd01b61118f6c9d0efc452f024c1cd5e154b825d25a31fb414c1339591426c527ab8282ef9d070209a726d0d6b2ac8331ed912eb00f8dd930b38778a6ef0f9e3f57b65e965ec62250cffb3deeba562a4ca553dad145b207dd38fb7bf0ffdf9cfea46c990b1b73465ea9ac6eb964b6a2c2ffd4fa30688e50ba1eb773c0c581d6a7328c2731e62d64c639d89f352c773168880065d99dc581d5efe249e864d62a3fc864c553affe3495c1ca9be2067f5a8365ac3b4f7f1d6ce0671812caefca5e0ee57207fb77ceeea256a72bdad46cc97d512096e033ca9c6e559c7f44d39bd2daba073425ab0114346e366ddf6ab4ac61ecc6afbcb33df4db6b6a2d002f4a409128fd2fa5b358988601ebf171ac3e2aa3dab12987020ef16b35670720549fd8acf98a25997a6363412b6214ee965d0f985d68f678f1ccefb878e5c6ba918fd9d0e1746e2ca4c35bc67516205bc13a08f06b590c20ad8d36aecb5baea4735dd0b28c32f36c9867018ca32d1a66d673bf95f1f27e312eef06ff70131633435c42f03241dfb743b724a19b01e48608667176a985fc7ae5dd9c4e8dd8c45f78eeaece6b6bd94ae4ad7361d4deb31128ad6841c796a72ca78cb13849df6fce96dc0c97c8087f76f11c44cc80062e4d2011d41a88cf168b663ad9a9da632c4479c98f4a641450db03ba36401fd8d5c0ed81f2b249a980a3c27edaa7d010d79c44a3db73863b6c8c8ccde7ab97a48da91d9609643c1ce919307c0e62eefb9b8130b3e9579273c35fb2998dcfabe0442d601e6325ea50020ee247c2f68f79a16ac0415b6dafb43f6cf800ad7864045c56ac48b2f190ccd8e9af909913f44d52072215c07f2f52dfe5062fc64d5e7ff1490966f139f0081477aa1c717e71ec32cd6087d517e3752ff87fea142789ec3fdba7ae2202f19ab2a6d1044fb384a8d9064e58847c60d5d52789b9f6c09d87f4f921eb286adc46172ced1bb53a887ee581f301c203bda83b0abfdfafe78b8dbfeafbebadb644ce9a083d32bc76f111c069b3aabc4f144fc7810c75892409234653b99ec31fcfe80699c3cf5f199e19634f63bffb9654292a169818f24b0484ff40d103a3290aa0ec630140b7a3d26da277d0f464b5ea12686ac596dedfc2ce819aa50e94e3614e718ffc9e5184c3554b59e840f0d0133eb8918d1a69c79aa1fc0f903076571c29f44809bc87865c0f46d72f85aa7692508b8e3298b0dcd4a816f2432123034e9be2429025d9486ca2468bcfc0fc21ff2f8aca62cfb3ffc020bde26ee77cc4a1deb7c84b598b96dd7461de4995382c031c2c1866fbed888682a70b7444ecacce61725305c2b69356f5038b3b32e54fada223e895c0a64961fe8f262b4751c2e1f368c1df84b3eed3fdad56579fbd3fa8135e0e44d89acff0a56866e0932fd880430739d1d4e15bbc46050f82b3f87fa91c96bd2572a090633ef93bd969f0d8207f51b96bb2cabde4fac504a2c803f20e980a155a7750fa2d24c10ca88ce51384770196feb63701b0597a7848f4439baa27860991d7a3a581e9a0c1f963879dec0c2299222e57545c4e2a8a9f50b853bdda38b5a3402c480dfb3390e4280779c1a0360b7e610af073745f45fa0141584c2df7d73f362fabb411d79206b0694fd477e41384c7e7ed9a7db31ddd9d2372755a12a0c3411bd3b793430d51d844a9da4cdd4afceaf0b44c8ffa2fde9e10a28354c50be084b5c042f42912138689f617fff61e9208d0f39e59dff8b259707d7f7dfe4c3bcbfd70e831b9351870cfee3c131ce524f6c37a7b587ca04e12abe4c49e6d60d85cadbced9735fbc6f19ed5c3cea43c25c740d5da3dc26c92bffea419029c1c94cd7d1ef56cb91e1093100ebd8dbf4b22d2ca97e6777807446711c4fac2119898ca6e6a64401541d15ec00fdc4315dc394186c69db538d3a9aaa35eeaf67ed628856dd176c6594ce971d2a4e286bc4c6d14a4190daf3618d5f9161bf451f54c64fe5caac24afd971eaaba298dd73a9b0ffbfba153c27a439af62c199ff9c62755ffc6013f3c430d1c09a48a8e7f74f0cbb5c93f8e60c4f58f0840442424bf73d021f0634da44c5848cfff52761fc2e792e6bf3f2757ccb663c0ca00dcc3777fb3312f63c85421c70efadad3787b87754f1d3453666b7185c5e0ea03061121363844565b79a6bbbfd3d4f0082e384c5871888a8eb8bccfdbea0e435965787aa4bac4cefb00000000000000000000000000000000000000000000000000000000000a1a283301fd21050039bfda3aa21b1067fc7b4678f52fd13543ac9a433b36886b8b9be33f7833518c6e9ece38a2edc9248e6e3bfaba5af8efedc8451bcb17a2c8ae0aea3ced30aa7b49f6c3632bb393607f183ff5840129707b0e25abb718f463db2872861b4f37623e5999dab8d6f8b796a3e9decde5411142c66a321b869f650d56467e8d6ba77d326cf288f06539add4beca5db23a038ce139947685c973e2eb843eea858d70624beee9f20ae946d54cd295c93393d62ec1cfbdc8fc08847fc732888de588a141f78fa2a590a986be45cbd89dc7235738dd70e3261ea8523d8f2ee0514d12c6343f6cc9088433cab27c614a53509f8b8e4d6f979e592a6fa559c305ff0df360c09b2cb1f7fa986a6e99af9b211e642cf805d6850d4c32748eba7f2cc093981b23c919c861766db50233bb53c63fbd8383c487c8d1cf9b457e72db5bc3d72862718ba7f3bac890c7dc9afceb4b67333768a502592e30a1335330e1fdc03a78e22e3f6b28d6e01a888178f82c69dae71d905c1e775249c144eed97e5ab41888aab91e4b694420c5cf3b1fa02ce505243f36b681b794bb6e41b1c890856e035283d134c0e31b235ef70e5e87636e55ab8023411be84c229c9091a7041cbd092e2b85274af0fcec8d59a8bdf125e0a3df96b04675a4d9809d753becc963c6c4ad8ab3f708e02e5ca01dec4acaab813d3b8a398b5541a558977a8450891b0674640a5e02c77924444ab9f21c2f1b9095e0f6af87f18c29249b47f58550134914a7132ad149511d99c67f3963e70107874a9009224b5ffa76cccde1e5afb109290114de4829abe621671aba57260a55eb55884527a75231ac99dc5c9a345b582d873edba70ae694b4c9757555cd1bd97b84ff987701162804bd8775dec313f69cdc3aaaf4202659257970a247c52126c9588aae77b71c27d39cc68856a525823824fe593d01def98862b7f20a5cc1081e7d0df6bade0e60e5a1cb8e993bfc56f32e3e0217c6fa807ad461304a8559ed4550bdf6c9fef28d3f3abb11a4d73633c401a4a015b0e196a549b6d9d40cd7e1ea534b6f2eb0acd9d8f0746bebfce21c130b67c04ea518cb1c91ac7f2a253a8bbbd137b5148936ee5f5661065c853ad5d41d0fb10da935e980e271506c273e9322d43d214f7cfc97d55f34af7613e6d91eb521928a7850037a0215d31e953cc4b7b88c3fc6bf80b69f2cac7c5900c72b317665037ed192fcfdccab6d4992a49a2a6ae5e644bc9c5ecbbc582edc0635c5c12a1dad33a96e0a596a22c6ef27ceaa913cd01d0e8a8d56fd707e6f8373c9e9b68942f6f7fd994c08a651083fbd7da42615458b6e7eef85a6ce205b73b9a2a96fcd329a21911213a48cbe5665c57c009a6ea3b1884d7f865c9d9031516d33f2b3787e8c5d80214bc1e6851730192b2b599398da7b3e2619850cb2f8a2fc1aca3208e916f785d262f5199a496d6c7ecceccd08dae8a5e5e701c17520b5ca4bb1fb50b530c39e7c03e1bff983c4b95c3dac230ec7a37dfe6e16c12c7123fa4e66519383af5801e8b7a494e6ce3084c8ac1adfc97fec2d7b2d69c10af439bf6acc4f4904f41c1d39acd92a435ef1160920e890bd98d2abe236c1c923d3cc97c7bdfb6ff8d417856a6e86188369f303239e69adda005958b4f4c2ad24f881a9435b67649ae968357afd515cc2393c38b5602264424d9e293127f40ced3e99a4cb71f59df9fdb8cccb21c00f7588bbeaa00f4f1dba9b3ee93c839b80ff85a9b8487e8ade58c3645de2c79055678e342dc083e47aa658ee3287a1a6e7f660bae384cd722fde732bd4045258ee713ff592ad2e3bc7947427c6686bdc1d51d0a6aeba87dbc298fe71000000",
  "txid": "2f48060809c65ca47847c39dcceab70b7f6f2adfe616962ab9d97648d62534c0",
  "hash": "0416f19d306cfbd18897886206b5533848d3d2f0d2022438b9ea1975d3e3a07e",
  "size": 5085,
  "vsize": 2278,
  "version": 1,
  "locktime": 113,
  "vin": [
    {
      "txid": "53eaff7a7da4ffe74e9aea5c0b3a6bd02b6c5d541867b4b37fe39ebcb252b496",
      "vout": 0,
      "scriptSig": {
        "asm": "",
        "hex": ""
      },
      "txinwitness": [
        "ede9edb3051316f08ee1aa3a7453b3e72fd3639337f7bab7b541984e451eb5e7ea5990849d747dca9e81fffcb891175d98b2f57e572d51e2b33981b6aa06cbae818cb6fae610691cde06f26aac8db9b5f9554f93beac0ffa4eb9be3b0c7119c2601780d08f052f80e962bd521607c60a012b9638daa62199c82beb94893025723d33b11ea1150e23e989dd8c43aeb693e5caaf5889265972358cb9087375f7e5617a6d41ccfceb759491e35a95772acc91a9f8f30da8994d76e1b36ef9358f64e26a2c8486e2cf228549c9102576376adfe7f222de1881a488ba97567878891ff1f60001b3d692097450b135d507ce19beab24888d420dadafa46d7fc7f1333d489a0b0a5bae7f9e605bce499c49cbd146c8560746cb36f9abf6e48c89ed40a2ea9bc5524f922594a8eaffc27afcc895b4db064105309bd4b8f0425facd2e04d6bcf9c55981f4421c0ccbb8d2df8ca0bf0d061da888112ce8f0af8125f0d727701186864634318c8bf0923de42ee0ce7c8349e8ce04bf37253cb35ca32b702c79f61a7088eb93ef1a05cda5bf5a5f337c853b91f445e8f4cd8475d106c146d0f56bafd2db83c0d04bb94840dd0ee6c8df4889fe0da150d55ec01920dc6e01a1b635b351b01375c7963dec9f4e584accc6b74f1854e96bd24cc44a953861478786e15bc21b24ffecf7aa6312dba3811db14ccb12db4b65273d126c96de22af6c756cbb6f260e1467866a5d4ca0fb116572f6625e7478c9093b05b57e61bfbbaabcfd6c1128bd64300484c73592002d9a580be4e3bb33c0bbd6148c0fbae43b4d6de303012a21c8130a7e4d8cbdf81e6680346b941bc53ee836ed6252e77b6a2472ec4333fa6e66f4a72735fe864983f927385f4f92e38fd380c6283f61157056a0af1767a9e9166966739ddff99f578a273c2fa62d797258b33c08461b962f3351035707c53f2e2d880ac787e0fe62c71fd973c8a4db3a5c67ef52ab34271be27f7620dda4f613fc01a2b59d7df654d08c2939e102aaab574ac0481150c6d8ae47fb75573de370ac0a993d5c7e1c5a769941e9c756c04890e35fa1b4d0540cf2ee5b36d6d332c1c2824009d8cdbb9142d1fff81e86226aff322e23d36145bf39d43fe59cd238dd081c09d1bd01b61118f6c9d0efc452f024c1cd5e154b825d25a31fb414c1339591426c527ab8282ef9d070209a726d0d6b2ac8331ed912eb00f8dd930b38778a6ef0f9e3f57b65e965ec62250cffb3deeba562a4ca553dad145b207dd38fb7bf0ffdf9cfea46c990b1b73465ea9ac6eb964b6a2c2ffd4fa30688e50ba1eb773c0c581d6a7328c2731e62d64c639d89f352c773168880065d99dc581d5efe249e864d62a3fc864c553affe3495c1ca9be2067f5a8365ac3b4f7f1d6ce0671812caefca5e0ee57207fb77ceeea256a72bdad46cc97d512096e033ca9c6e559c7f44d39bd2daba073425ab0114346e366ddf6ab4ac61ecc6afbcb33df4db6b6a2d002f4a409128fd2fa5b358988601ebf171ac3e2aa3dab12987020ef16b35670720549fd8acf98a25997a6363412b6214ee965d0f985d68f678f1ccefb878e5c6ba918fd9d0e1746e2ca4c35bc67516205bc13a08f06b590c20ad8d36aecb5baea4735dd0b28c32f36c9867018ca32d1a66d673bf95f1f27e312eef06ff70131633435c42f03241dfb743b724a19b01e48608667176a985fc7ae5dd9c4e8dd8c45f78eeaece6b6bd94ae4ad7361d4deb31128ad6841c796a72ca78cb13849df6fce96dc0c97c8087f76f11c44cc80062e4d2011d41a88cf168b663ad9a9da632c4479c98f4a641450db03ba36401fd8d5c0ed81f2b249a980a3c27edaa7d010d79c44a3db73863b6c8c8ccde7ab97a48da91d9609643c1ce919307c0e62eefb9b8130b3e9579273c35fb2998dcfabe0442d601e6325ea50020ee247c2f68f79a16ac0415b6dafb43f6cf800ad7864045c56ac48b2f190ccd8e9af909913f44d52072215c07f2f52dfe5062fc64d5e7ff1490966f139f0081477aa1c717e71ec32cd6087d517e3752ff87fea142789ec3fdba7ae2202f19ab2a6d1044fb384a8d9064e58847c60d5d52789b9f6c09d87f4f921eb286adc46172ced1bb53a887ee581f301c203bda83b0abfdfafe78b8dbfeafbebadb644ce9a083d32bc76f111c069b3aabc4f144fc7810c75892409234653b99ec31fcfe80699c3cf5f199e19634f63bffb9654292a169818f24b0484ff40d103a3290aa0ec630140b7a3d26da277d0f464b5ea12686ac596dedfc2ce819aa50e94e3614e718ffc9e5184c3554b59e840f0d0133eb8918d1a69c79aa1fc0f903076571c29f44809bc87865c0f46d72f85aa7692508b8e3298b0dcd4a816f2432123034e9be2429025d9486ca2468bcfc0fc21ff2f8aca62cfb3ffc020bde26ee77cc4a1deb7c84b598b96dd7461de4995382c031c2c1866fbed888682a70b7444ecacce61725305c2b69356f5038b3b32e54fada223e895c0a64961fe8f262b4751c2e1f368c1df84b3eed3fdad56579fbd3fa8135e0e44d89acff0a56866e0932fd880430739d1d4e15bbc46050f82b3f87fa91c96bd2572a090633ef93bd969f0d8207f51b96bb2cabde4fac504a2c803f20e980a155a7750fa2d24c10ca88ce51384770196feb63701b0597a7848f4439baa27860991d7a3a581e9a0c1f963879dec0c2299222e57545c4e2a8a9f50b853bdda38b5a3402c480dfb3390e4280779c1a0360b7e610af073745f45fa0141584c2df7d73f362fabb411d79206b0694fd477e41384c7e7ed9a7db31ddd9d2372755a12a0c3411bd3b793430d51d844a9da4cdd4afceaf0b44c8ffa2fde9e10a28354c50be084b5c042f42912138689f617fff61e9208d0f39e59dff8b259707d7f7dfe4c3bcbfd70e831b9351870cfee3c131ce524f6c37a7b587ca04e12abe4c49e6d60d85cadbced9735fbc6f19ed5c3cea43c25c740d5da3dc26c92bffea419029c1c94cd7d1ef56cb91e1093100ebd8dbf4b22d2ca97e6777807446711c4fac2119898ca6e6a64401541d15ec00fdc4315dc394186c69db538d3a9aaa35eeaf67ed628856dd176c6594ce971d2a4e286bc4c6d14a4190daf3618d5f9161bf451f54c64fe5caac24afd971eaaba298dd73a9b0ffbfba153c27a439af62c199ff9c62755ffc6013f3c430d1c09a48a8e7f74f0cbb5c93f8e60c4f58f0840442424bf73d021f0634da44c5848cfff52761fc2e792e6bf3f2757ccb663c0ca00dcc3777fb3312f63c85421c70efadad3787b87754f1d3453666b7185c5e0ea03061121363844565b79a6bbbfd3d4f0082e384c5871888a8eb8bccfdbea0e435965787aa4bac4cefb00000000000000000000000000000000000000000000000000000000000a1a283301",
        "0039bfda3aa21b1067fc7b4678f52fd13543ac9a433b36886b8b9be33f7833518c6e9ece38a2edc9248e6e3bfaba5af8efedc8451bcb17a2c8ae0aea3ced30aa7b49f6c3632bb393607f183ff5840129707b0e25abb718f463db2872861b4f37623e5999dab8d6f8b796a3e9decde5411142c66a321b869f650d56467e8d6ba77d326cf288f06539add4beca5db23a038ce139947685c973e2eb843eea858d70624beee9f20ae946d54cd295c93393d62ec1cfbdc8fc08847fc732888de588a141f78fa2a590a986be45cbd89dc7235738dd70e3261ea8523d8f2ee0514d12c6343f6cc9088433cab27c614a53509f8b8e4d6f979e592a6fa559c305ff0df360c09b2cb1f7fa986a6e99af9b211e642cf805d6850d4c32748eba7f2cc093981b23c919c861766db50233bb53c63fbd8383c487c8d1cf9b457e72db5bc3d72862718ba7f3bac890c7dc9afceb4b67333768a502592e30a1335330e1fdc03a78e22e3f6b28d6e01a888178f82c69dae71d905c1e775249c144eed97e5ab41888aab91e4b694420c5cf3b1fa02ce505243f36b681b794bb6e41b1c890856e035283d134c0e31b235ef70e5e87636e55ab8023411be84c229c9091a7041cbd092e2b85274af0fcec8d59a8bdf125e0a3df96b04675a4d9809d753becc963c6c4ad8ab3f708e02e5ca01dec4acaab813d3b8a398b5541a558977a8450891b0674640a5e02c77924444ab9f21c2f1b9095e0f6af87f18c29249b47f58550134914a7132ad149511d99c67f3963e70107874a9009224b5ffa76cccde1e5afb109290114de4829abe621671aba57260a55eb55884527a75231ac99dc5c9a345b582d873edba70ae694b4c9757555cd1bd97b84ff987701162804bd8775dec313f69cdc3aaaf4202659257970a247c52126c9588aae77b71c27d39cc68856a525823824fe593d01def98862b7f20a5cc1081e7d0df6bade0e60e5a1cb8e993bfc56f32e3e0217c6fa807ad461304a8559ed4550bdf6c9fef28d3f3abb11a4d73633c401a4a015b0e196a549b6d9d40cd7e1ea534b6f2eb0acd9d8f0746bebfce21c130b67c04ea518cb1c91ac7f2a253a8bbbd137b5148936ee5f5661065c853ad5d41d0fb10da935e980e271506c273e9322d43d214f7cfc97d55f34af7613e6d91eb521928a7850037a0215d31e953cc4b7b88c3fc6bf80b69f2cac7c5900c72b317665037ed192fcfdccab6d4992a49a2a6ae5e644bc9c5ecbbc582edc0635c5c12a1dad33a96e0a596a22c6ef27ceaa913cd01d0e8a8d56fd707e6f8373c9e9b68942f6f7fd994c08a651083fbd7da42615458b6e7eef85a6ce205b73b9a2a96fcd329a21911213a48cbe5665c57c009a6ea3b1884d7f865c9d9031516d33f2b3787e8c5d80214bc1e6851730192b2b599398da7b3e2619850cb2f8a2fc1aca3208e916f785d262f5199a496d6c7ecceccd08dae8a5e5e701c17520b5ca4bb1fb50b530c39e7c03e1bff983c4b95c3dac230ec7a37dfe6e16c12c7123fa4e66519383af5801e8b7a494e6ce3084c8ac1adfc97fec2d7b2d69c10af439bf6acc4f4904f41c1d39acd92a435ef1160920e890bd98d2abe236c1c923d3cc97c7bdfb6ff8d417856a6e86188369f303239e69adda005958b4f4c2ad24f881a9435b67649ae968357afd515cc2393c38b5602264424d9e293127f40ced3e99a4cb71f59df9fdb8cccb21c00f7588bbeaa00f4f1dba9b3ee93c839b80ff85a9b8487e8ade58c3645de2c79055678e342dc083e47aa658ee3287a1a6e7f660bae384cd722fde732bd4045258ee713ff592ad2e3bc7947427c6686bdc1d51d0a6aeba87dbc298fe"
      ],
      "sequence": 4294967294
    }
  ],
  "vout": [
    {
      "value": 499988.8141,
      "n": 0,
      "scriptPubKey": {
        "asm": "1 e69a18d74ed30decee7a05b37e03d5dd3b08cc4a6bd525f4fd2b6a9d16da1dc1",
        "hex": "5120e69a18d74ed30decee7a05b37e03d5dd3b08cc4a6bd525f4fd2b6a9d16da1dc1",
        "reqSigs": 1,
        "type": "witness_v1_scripthash",
        "addresses": [
          "3QJmnh"
        ]
      }
    },
    {
      "value": 1.0,
      "n": 1,
      "scriptPubKey": {
        "asm": "OP_RETURN 9ecacd969cfa8ad30894ed1bb55ebf1b4ac7d0132b6436b6a0794461da8e25f8 c0ce5ba299d43e9c1454e498d96eb600314c0aff5bf8e7b8c74f3534607f00c3e0ee7b82b9f41ebc3474c4b8f94e9620116c2adf7bd8c798e76f1514405f20e3808e1be2d9947edc5414a4d8992ef640710c4abf1bb8a7f8870f7574203f4083a0ae3bc2f9b45efc743484f8b90ed660512c6a9f3b9887d8a72f5554001f60a3404edb221954be1c94d4641859ee3680b1cc8a7fdb78673847cfb5b4e0ff8043606efb0239749e3cb4f4443879ce16a091ecaa5ffb58471867ef9594c0dfa063000e9b625914fe5cd494245819ae76c0f18cca3f9b382778078ff5f4a0bfc003202ebb427934de7cf4b40478398e56e0d1acea1fbb18075827afd5d4809fe023c0ce5ba299d43e9c1454e498d96eb600314c0aff5bf8e7b8c74f3534607f00c3e0ee7b82b9f41ebc3474c4b8f94e9620116c2adf7bd8c798e76f1514405f20e3808e1be2d9947edc5414a4d8992ef640710c4abf1bb8a7f8870f7574203f4083a0ae3bc2f9b45efc743484f8b90ed660512c6a9f3b9887d8a72f5554001f60a3404edb221954be1c94d4641859ee3680b1cc8a7fdb78673847cfb5b4e0ff8043606efb0239749e3cb4f4443879ce16a091ecaa5ffb58471867ef9594c0dfa063000e9b625914fe5cd494245819ae76c0f18cca3f9b382778078ff5f4a0bfc003202ebb427934de7cf4b40478398e56e0d1acea1fbb18075827afd5d4809fe023c0ce5ba299d43e9c1454e498d96eb600314c0aff5bf8e7b8c74f3534607f00c3e0ee7b82b9f41ebc3474c4b8f94e9620116c2adf7bd8c798e76f1514405f20e3808e1be2d9947edc5414a4d8992ef640710c4abf1bb8a7f8870f7574203f4083a0ae3bc2f9b45efc743484f8b90ed660512c6a9f3b9887d8a72f5554001f60a3404edb221954be1c94d4641859ee3680b1cc8a7fdb78673847cfb5b4e0ff8043606efb0239749e3cb4f4443879ce16a091ecaa5ffb58471867ef9594c0dfa063000e9b625914fe5cd494245819ae76c0f18cca3f9b382778078ff5f4a0bfc003202ebb427934de7cf4b40478398e56e0d1acea1fbb18075827afd5d4809fe023c0ce5ba299d43e9c1454e498d96eb600314c0aff5bf8e7b8c74f3534607f00c3e0ee7b82b9f41ebc3474c4b8f94e9620116c2adf7bd8c798e76f1514405f20e3808e1be2d9947edc5414a4d8992ef640710c4abf1bb8a7f8870f7574203f4083a0ae3bc2f9b45efc743484f8b90ed660512c6a9f3b9887d8a72f5554001f60a3404edb221954be1c94d4641859ee3680b1cc8a7fdb78673847cfb5b4e0ff8043606efb0239749e3cb4f4443879ce16a091ecaa5ffb58471867ef9594c0dfa063000e9b625914fe5cd494245819ae76c0f18cca3f9b382778078ff5f4a0bfc003202ebb427934de7cf4b40478398e56e0d1acea1fbb18075827afd5d4809fe023c0ce5ba299d43e9c1454e498d96eb600314c0aff5bf8e7b8c74f3534607f00c3e0ee7b82b9f41ebc3474c4b8f94e9620116c2adf7bd8c798e76f1514405f20e3808e1be2d9947edc5414a4d8992ef640710c4abf1bb8a7f8870f7574203f4083a0ae3bc2f9b45efc743484f8b90ed660512c6a9f3b9887d8a72f5554001f60a3404edb221954be1c94d4641859ee36806788d11a06d39798d31124fc104a509086ac30ec08fdc65ec6a35ab6dca88787",
        "hex": "6a209ecacd969cfa8ad30894ed1bb55ebf1b4ac7d0132b6436b6a0794461da8e25f84db004c0ce5ba299d43e9c1454e498d96eb600314c0aff5bf8e7b8c74f3534607f00c3e0ee7b82b9f41ebc3474c4b8f94e9620116c2adf7bd8c798e76f1514405f20e3808e1be2d9947edc5414a4d8992ef640710c4abf1bb8a7f8870f7574203f4083a0ae3bc2f9b45efc743484f8b90ed660512c6a9f3b9887d8a72f5554001f60a3404edb221954be1c94d4641859ee3680b1cc8a7fdb78673847cfb5b4e0ff8043606efb0239749e3cb4f4443879ce16a091ecaa5ffb58471867ef9594c0dfa063000e9b625914fe5cd494245819ae76c0f18cca3f9b382778078ff5f4a0bfc003202ebb427934de7cf4b40478398e56e0d1acea1fbb18075827afd5d4809fe023c0ce5ba299d43e9c1454e498d96eb600314c0aff5bf8e7b8c74f3534607f00c3e0ee7b82b9f41ebc3474c4b8f94e9620116c2adf7bd8c798e76f1514405f20e3808e1be2d9947edc5414a4d8992ef640710c4abf1bb8a7f8870f7574203f4083a0ae3bc2f9b45efc743484f8b90ed660512c6a9f3b9887d8a72f5554001f60a3404edb221954be1c94d4641859ee3680b1cc8a7fdb78673847cfb5b4e0ff8043606efb0239749e3cb4f4443879ce16a091ecaa5ffb58471867ef9594c0dfa063000e9b625914fe5cd494245819ae76c0f18cca3f9b382778078ff5f4a0bfc003202ebb427934de7cf4b40478398e56e0d1acea1fbb18075827afd5d4809fe023c0ce5ba299d43e9c1454e498d96eb600314c0aff5bf8e7b8c74f3534607f00c3e0ee7b82b9f41ebc3474c4b8f94e9620116c2adf7bd8c798e76f1514405f20e3808e1be2d9947edc5414a4d8992ef640710c4abf1bb8a7f8870f7574203f4083a0ae3bc2f9b45efc743484f8b90ed660512c6a9f3b9887d8a72f5554001f60a3404edb221954be1c94d4641859ee3680b1cc8a7fdb78673847cfb5b4e0ff8043606efb0239749e3cb4f4443879ce16a091ecaa5ffb58471867ef9594c0dfa063000e9b625914fe5cd494245819ae76c0f18cca3f9b382778078ff5f4a0bfc003202ebb427934de7cf4b40478398e56e0d1acea1fbb18075827afd5d4809fe023c0ce5ba299d43e9c1454e498d96eb600314c0aff5bf8e7b8c74f3534607f00c3e0ee7b82b9f41ebc3474c4b8f94e9620116c2adf7bd8c798e76f1514405f20e3808e1be2d9947edc5414a4d8992ef640710c4abf1bb8a7f8870f7574203f4083a0ae3bc2f9b45efc743484f8b90ed660512c6a9f3b9887d8a72f5554001f60a3404edb221954be1c94d4641859ee3680b1cc8a7fdb78673847cfb5b4e0ff8043606efb0239749e3cb4f4443879ce16a091ecaa5ffb58471867ef9594c0dfa063000e9b625914fe5cd494245819ae76c0f18cca3f9b382778078ff5f4a0bfc003202ebb427934de7cf4b40478398e56e0d1acea1fbb18075827afd5d4809fe023c0ce5ba299d43e9c1454e498d96eb600314c0aff5bf8e7b8c74f3534607f00c3e0ee7b82b9f41ebc3474c4b8f94e9620116c2adf7bd8c798e76f1514405f20e3808e1be2d9947edc5414a4d8992ef640710c4abf1bb8a7f8870f7574203f4083a0ae3bc2f9b45efc743484f8b90ed660512c6a9f3b9887d8a72f5554001f60a3404edb221954be1c94d4641859ee36806788d11a06d39798d31124fc104a509086ac30ec08fdc65ec6a35ab6dca88787",
        "type": "nulldata"
      }
    }
  ],
  "blockhash": "d7a7b9a6fa9b7eeca4ed3b292cd4c21f070551bfab2aaeca0619c41458c07723",
  "confirmations": 1,
  "time": 1764178593,
  "blocktime": 1764178593
}