{
  "hex": "010000000001012528250eb203341d70880ff248766db09b25c48020ac2f04cdb887859f43ebe00000000000feffffff0280cbbf57792d0000225120df16d98a89584c3166ad8da8b4bbc603bf25ee55c08b1536329ad7fce507a83b00e1f50500000000fdd5046a200779c29544fd998953881efe194b7f286f29b726bf3825819f402fe51c89af954db004e15ef672ad611d3afcf3b1f39ec47a21920aba9edede67a6bcf9f6e35130a0f7c17ed6528d413d1adcd391d3bee45a01b22a9abefefe47869cd9d6c3711080d7a11eb632ed215d7abcb3f1b3de843a61d24afade9e9e27e6fcb9b6a31170e0b7813e9612cd017d5a9c93d193fea41a41f26adafebebe07c6dc9996833150c09761de76f22de19dba7c7331731e44faa1128a3a1e5e5ee7263c797663d1b0207741fe56d20dc1bd9a5c5311533e64da8132aa1a3e7e7ec7061c595643f1900057219e36b26da1ddfa3c3371335e04bae152ca7a5e1e1ea7667c39362391f0603701be16924d81fdda1c1351137e249ac172ea5a7e3e3e87465c191603b1d04017e15ef672ad611d3afcf3b1f39ec47a21920aba9edede67a6bcf9f6e35130a0f7c17ed6528d413d1adcd391d3bee45a01b22a9abefefe47869cd9d6c3711080d7a11eb632ed215d7abcb3f1b3de843a61d24afade9e9e27e6fcb9b6a31170e0b7813e9612cd017d5a9c93d193fea41a41f26adafebebe07c6dc9996833150c09761de76f22de19dba7c7331731e44faa1128a3a1e5e5ee7263c797663d1b0207741fe56d20dc1bd9a5c5311533e64da8132aa1a3e7e7ec7061c595643f1900057219e36b26da1ddfa3c3371335e04bae152ca7a5e1e1ea7667c39362391f0603701be16924d81fdda1c1351137e249ac172ea5a7e3e3e87465c191603b1d04017e15ef672ad611d3afcf3b1f39ec47a21920aba9edede67a6bcf9f6e35130a0f7c17ed6528d413d1adcd391d3bee45a01b22a9abefefe47869cd9d6c3711080d7a11eb632ed215d7abcb3f1b3de843a61d24afade9e9e27e6fcb9b6a31170e0b7813e9612cd017d5a9c93d193fea41a41f26adafebebe07c6dc9996833150c09761de76f22de19dba7c7331731e44faa1128a3a1e5e5ee7263c797663d1b0207741fe56d20dc1bd9a5c5311533e64da8132aa1a3e7e7ec7061c595643f1900057219e36b26da1ddfa3c3371335e04bae152ca7a5e1e1ea7667c39362391f0603701be16924d81fdda1c1351137e249ac172ea5a7e3e3e87465c191603b1d04017e15ef672ad611d3afcf3b1f39ec47a21920aba9edede67a6bcf9f6e35130a0f7c17ed6528d413d1adcd391d3bee45a01b22a9abefefe47869cd9d6c3711080d7a11eb632ed215d7abcb3f1b3de843a61d24afade9e9e27e6fcb9b6a31170e0b7813e9612cd017d5a9c93d193fea41a41f26adafebebe07c6dc9996833150c09761de76f22de19dba7c7331731e44faa1128a3a1e5e5ee7263c797663d1b0207741fe56d20dc1bd9a5c5311533e64da8132aa1a3e7e7ec7061c595643f1900057219e36b26da1ddfa3c3371335e04bae152ca7a5e1e1ea7667c39362391f0603701be16924d81fdda1c1351137e249ac172ea5a7e3e3e87465c191603b1d04017e15ef672ad611d3afcf3b1f39ec47a21920aba9edede67a6bcf9f6e35130a0f7c17ed6528d413d1adcd391d3bee45a01b22a9abefefe47869cd9d6c3711080d7a11eb632ed215d7abcb3f1b3de843a61d24afade9e9e27e6fcb9b6a31170e0b7813e9612cd017d5a9c93d193fea41a41f26adafebebe07c6dc9996833150c09761de76f22de19dba7c7331731e44faa1a542dbd5c2176ebc0242f9186311c8f60505facd7cec69d19b70aea9e54f4f3c02fd7509f5abc4e2e471438c1128c55a3dbc1209300b9f333008f0b46ac3b4f49c0b8d334a8977539cea7efc1be6cf3272c7a3d45e0b7cc766f213101a609d2def57741d7974f6ecd90bb6cbeb54b3c31c318cecbeeb5dc891bf2c862a483a56c78430810fc1e2015085f7afde7e963434492d1bb3997e6241848421a61dcbeeda7b1a44bd5ed214427383c689fc43c7f96f8333cd1f9c9fa67ad6a20353cc5696fa534806f621b8c62870b6d5c24081dcf97413a9c52dde36dbf8e55021742ea760cd693f6be082aa816ab693a8e4d926d20e34329cec28fb244a68a85a405ae38b6068b3a67b6bfa4abee0cfe1833aa04ae69d8d77e27c0bd1a0b6a1bc8b2ed60e0bb4067c219150fcc87980f1545a6f766d4683283bc3a93c04ecd8b30525178b46eafb8175cf001aef3a94820a8a99544499c1684d194f1e36eb9a93100f8e33cdb5722179080c8d369dcfcef9d2424f04240fe66b81b63d8f032eb14be8d6c37ee66891ec2a6b5c9d95cd74d6d127157363ec9100a2c2a02c46b4c86290a4282542819ab09254a54910acc65edc6cd793a99b22824f2c5e6e0b0cbab449dc2fa6754cf416ff049535e9924e74d334ae26392f04e47446fb05726973824ab3459eb1db219dc22871e42c9398fab637a872143df356a6f520a4539fefbb715bc73fc1ecab32dd2233f69ba58427ccb835acd1141bc9d0d3484eaf6ff8054bc7e1b1caed589f56542ecce66f213a9bdc3bc3f29f69b2b2c0a22fc99212fb5d454772898e50fd87b444c794863026c43e66a1890187153ca9fa492ae7bd90111533b6bd024f8119d9e5f5e4fd11e7d6e70205d3af0d731da25a8a0213a0c9bd573f18c202910eb015120ce40b48f97993e16c0e33bf93cf244fb45f71aa2aa73ea2e2aa82d21122480e929fa30beed1ca81b7380da9be104545ed8240c4c432044a5ecd7e2ac9f8ae96bb9b84fb348c9292195ecee16d020b2fb5a9e49cb7a7dfd63a29853f5964db9db77a5d6372f2fc0f7868a921a269af746bae8929d9a8fd7c3cde5d5cad661a98f536b37ce5585c1c7b76b15249655532c280ac84c948739f5f133ad80cfd7adfdac0a853b715cbf65ee0f6d183fc7c2de3d81bc7cd612f99f9329321ed50662a04556cd600543738fc4dd1a62fe2f7202eecb04ef7b2856c4727cceb1a3dd0f76810533c9f2fcdc11f3d650f9a15a1d916b52a4c9c35c2dac2422807cffeef33ba81d8fe4631d41684149824d29e9d0d4d5f26fd4c60e9d0becfae7a799877ae6cd1c47a53bef2342cd093832ea7aaf3fdbee9700b2d5a6bdf28811082628b363f0419146aa945ebc9a9639e1af56e5f59f4a1e544e2bf989d6ccdebe3571f1f6b9a43a6c8b7dafc4a165f6531ad9dd08d0b8d4ba544d9c71d9f79e17b6aed6dea800b628a388ed6e5b20c72dad8498aef6e85ed76265cf2cf7371ad5802dc011b219fecf5fc188c628655bf2ab6b181c0add8f0f745fd184e814d85194ff290bba432b7716ac004af1a75674f9e55691112d9e18ae76c6080342c4ec1a07d2092d0f9be0e369ad35e6c789bc957317db2467d2270861a2847d346bbb45f8ef75bdad3d541e57f2bdd6774b13025318db7e0d5f0e53e5ab136172ae346865f569cee6726e7edbb5f4593cd326876613bda9823113bc35f0efc23f87e5f644b3806fd3886e1afb5626c68fb4a46301c8fb74e72920239eda37e3cef54d41e670fc8cca6459fd2b0e3afb8a6094f4cb6e4bde620cd353dba29d865bdeeaca8a8b4f61f76f545826c76af6dc8d9fbf4752097c9050e13087662898a0cb4aeaaf679ab8fd9db50c6398607be805ca9a681543eec466b2e4a99f147035242bc9f307fc8c347bf4bbdfd7b4425eab4fb51939f26ac5590eaeafda6ac77d713e91b1e6414745c855d1064883bc221538ca6282f809fa29fa98012038ad5b1fbff7651ebfb698758178dbbcacd976993a222b5ebae0cf2fc705db161d9a561cf2976707b50789cf5a2f5e29fd71473b19edb585c18b51b4fb2d6bde999547bc0254f64d9efbe424dcde7229b38ce3cc3deb0c1896aa60fa6e883a38a68519623a4b7dfabf7b82a09ab7a61521d0d9a896732704bef4b59087c88bdc385b45395d4baaae93cede09c824c2a45aa28d63fdeaa28531b3fa744ec6457f84440d3cf7771e60b0a1092d68c02a1556a50118bc7b18c7d94ed32601bbc4c45811845c57d3f38a2d882c0fb44ca1de21a8be8da054cefb3ba78f411c4c05d72633fabdb87dc0c9c0f63692265054dca59052a61e470e4c9755fbde1db818a3e37cc37a784f8c00827b8d9ec1094f39c3b1ca84424c874d3bb3bdf7ed4cca52cfdf519626194132c0af6a0cd6c79aeffa3f99e2a38df518f8de9f12f7bac29ecc0d0019f98ec563c22384999837470c7c5b715e5de434eb4a81dfbf8e5ba2a99ed0d314708f160d4c6fdd1f9ad15c8e1c83b0f0bcced284e72774fe0a4139bdb395456e0f93e8c365c34c94e7017e4ad17c480e56a0707ee450a2df1b34ec0f00ee1e384a96f471d564b487cf102ceb529ef505e185b065ac588f36a8b9169bca3b968f6a98bc216e14f98d9af379ce8b9afe559530af015c7b26c63342905b846b55145aace682732dece121cc698ad8d553b431dc844197ad9aec39b5e6f29bbf206379560a5bd2038fccf51fb45cf6d408a1531565a2363acae5ac58a5c4ab677805d87b78da4572365027d97cf69b421a967b0e266e6d709a4bebea0efa2d0edd92e1f9ef2db36abdbaf4cd7df9555dc6ebb025d0501e5b3f6468fa8edfa0dc14de4ed8bf69021f35e5900dfa8ef64a47c052d61c21b235500854ff4a0356b58b9d7cd4529d53033f5b6cc81efc15438d68e375eb6aa9b4a566ca8a7e13bfe5a37a2bf434ee69a2b64c90b247074987bf85c7b5e089239e41a75a6a974f913be66d9aaea8bd9ab748a342de0179f6afe4f49ee19e758c66467fb98d4570bb2caec2ed490bcce42057161be8288ba5944146e53a8fe1f1c7de6b67b75a71af37b82e30b4f0b9b570a8408523f7ce68c121195346b63dfd220948ae782f59d75ac3994cafcfd0e23d95d207d5bd0983559643b13cc81fa967d9718d31beed3fb72516102ac31ec2798033122c34cebf55915d13fc1795c3febcfc6b72d94ea0f9b91a80bdd448dc1521a4b028e2250b0eb4865125c22d9e2a8dce11df6d6a87ce1bdfbf683bb2449f947a5885f49c185486c6d010dead37d847ff2fe83bd0a7cd72fca1f6b775c8ccf1574bd30e83d5f052e9b42fd96346aee11d12e3ec6303f9d24484c5152555b748e8f9abacfd5d6db0d2457636c768485888d91d1d9ebf4162234424f5155566d72839c9fb4bbdbe4ebf91e252d31373c4c4f6b8898a4d7deebef0000000000000000000000000000101f324201fd210500e6d50dd800840f8821ab2c6211d766ac2caf8d0cbf59599ccb106464583b34aade16691ffb114893ce1a68b24018596801e764312da4eafaef13dbfa26867827058ca08e8284e4a36170e0c079ccdedf3f5b7fb97c76f185a1c5598a5a5723afc32086ad019848d71ecfd7dd1c96762caa562d4c523b71c0400e888302b5edd9875d2bbe19e735b34bf61e5fe8727c84ae53e115bc99f3a8ba1f8d0f435b645dcb3bc133b12815bc64a03c150550e8b13b4af6c9fa9762fbd1246cd6c271b4b6952254b16367bbdf554d678f6e7c5399af4cff200b1d850587b13c9e58a697f6523368e786587be0fb32c518061f8514e5cd199675465d9966baa65257230d1ab9b78631b78f18fc8ae947746313a931ae10215747d598d9b4ce040400c218456ac034ff0cda4145492156097224ce567dbfe80df2a116b63c789ab3898735c3a0d113533c8b30582305e738cc0c95ead8c9006a2f8145badecfdbc25648f5efe44284e7b70c7de6db659fa24e968c8bb3dd139d2aea7d8edc0be0aeaea63da3effff293122369be54cc901b6cb1aa6c4c9820894473fca3b52cc96148e52420d19fab766e2135f1a519f44f25d7d6d07c56d5620cbfd7d333825d9430e5d04c2e9138bd1aef76743b700147dcefc6a4baaeb305d8d0eda1c7e8562a57687350e6d233472a9aef55288bee0a33abd43d2994c095a5a065cff44044f9e28535a29f998aa5e7b932fea888b4bec09ed3e033467d73c70d896b9595c022e9f26a33fdbfe3f9c757ffb4b456ffe549318becb6b43b0a3d2ccc22e618dd95440ceb8a15f743df7117386abe16f6eb651e5e67e6bbf5cd8a008b30b6a3ba5477d95f5aee08271e06b116c6113ecde59018d0ca176bc6234ecc178e65ba2ff8474fc7a99d5dc066cec1107ebba57c185c96a42a56c38aecb59bca1677a721a8cb265a65563d65114973cd983bcfd9c24d157bf64f73badd90cd2bb48f4c9521c7ae0619e9d216354420dd66ad29e1448fe7c534919fd33e9891b1058b2f98afaf37ae8172168f6c1c51e9cb279db3e7335421e821aa3ea1f6eb862c6f6805f8dfdbb443a7afd7ccea6bc7c21786ea88a9f75c8bae5a0d966f37a39d9043fb4df909b65f361e3f7ceb98b3f7ff8eff35bd2a4a6911f5e45c5103df1cfb14ea4d9a672ecef5d4354414701ad78dc1f181eefe5b1eb8f200f7a42f7865a92eb162241a2377aa9408db08cedff71c2097152f42f1149fdcb2eb55cd6c204df8246e32f7bb05d02d8563ef1e53e3353e5553fee9b3993450b5525010d242edfbf1047e28bb14e2b7d4ded07d6c27c6ded34d94f17e86860f1d00933db7e579a373e6efed19c130fc591cc12ae8d56355cd323c68bd8cb81b0eea21f6623709e21b3245b77597c5ed4613b358abe29e0f62415407b95a502b74e87450654319874456f0dab041cc9712f78f13265af75c213844414f9f28c7556a8d229796561290d9795e6d0898961936ea24f98917474b7681c5fa4f96dac140beb96fc5978a69d792418561739a49d1e81edb7734d5fe629a4e509c008c731a1fdec1b58a106a0e40a96184d06da0053c613d71687291f379e0879a91a321df1db41fe5fb9a0c68d9680f37246afd73d4c8c37773c58628c35abdfe0f5ce977228b60326a5213a3dcc2df3f98e0e03b3712c92d3e6ac696e7f4388ea7e2bd6d4bc99b1d5d322f5d8f28e33a047c50cbabffcd56d1882c549c0733b2990f2781e7a21f3365e2a177a1d1952cb5164d8a2f2ad2cdb9a7574f94ea8fe05dc205f1e22f378ae8e1cffc9133b6de0b82c09fe5cb4ccb19b78ac0d019ce5948d7268d5b7869d53fa7b56aa17638b86a000000",
  "txid": "2a6915c2c97a5cd520fcb1211528288cdcf854348f5c703d0386c3b69099f24b",
  "hash": "3d5732d9686b11f32fef8f81a4e85f72a8938e4d85f9a9ef9177ee2f1920c795",
  "size": 5085,
  "vsize": 2278,
  "version": 1,
  "locktime": 106,
  "vin": [
    {
      "txid": "e0eb439f8587b8cd042fac2080c4259bb06d7648f20f88701d3403b20e252825",
      "vout": 0,
      "scriptSig": {
        "asm": "",
        "hex": ""
      },
      "txinwitness": [
        "f5abc4e2e471438c1128c55a3dbc1209300b9f333008f0b46ac3b4f49c0b8d334a8977539cea7efc1be6cf3272c7a3d45e0b7cc766f213101a609d2def57741d7974f6ecd90bb6cbeb54b3c31c318cecbeeb5dc891bf2c862a483a56c78430810fc1e2015085f7afde7e963434492d1bb3997e6241848421a61dcbeeda7b1a44bd5ed214427383c689fc43c7f96f8333cd1f9c9fa67ad6a20353cc5696fa534806f621b8c62870b6d5c24081dcf97413a9c52dde36dbf8e55021742ea760cd693f6be082aa816ab693a8e4d926d20e34329cec28fb244a68a85a405ae38b6068b3a67b6bfa4abee0cfe1833aa04ae69d8d77e27c0bd1a0b6a1bc8b2ed60e0bb4067c219150fcc87980f1545a6f766d4683283bc3a93c04ecd8b30525178b46eafb8175cf001aef3a94820a8a99544499c1684d194f1e36eb9a93100f8e33cdb5722179080c8d369dcfcef9d2424f04240fe66b81b63d8f032eb14be8d6c37ee66891ec2a6b5c9d95cd74d6d127157363ec9100a2c2a02c46b4c86290a4282542819ab09254a54910acc65edc6cd793a99b22824f2c5e6e0b0cbab449dc2fa6754cf416ff049535e9924e74d334ae26392f04e47446fb05726973824ab3459eb1db219dc22871e42c9398fab637a872143df356a6f520a4539fefbb715bc73fc1ecab32dd2233f69ba58427ccb835acd1141bc9d0d3484eaf6ff8054bc7e1b1caed589f56542ecce66f213a9bdc3bc3f29f69b2b2c0a22fc99212fb5d454772898e50fd87b444c794863026c43e66a1890187153ca9fa492ae7bd90111533b6bd024f8119d9e5f5e4fd11e7d6e70205d3af0d731da25a8a0213a0c9bd573f18c202910eb015120ce40b48f97993e16c0e33bf93cf244fb45f71aa2aa73ea2e2aa82d21122480e929fa30beed1ca81b7380da9be104545ed8240c4c432044a5ecd7e2ac9f8ae96bb9b84fb348c9292195ecee16d020b2fb5a9e49cb7a7dfd63a29853f5964db9db77a5d6372f2fc0f7868a921a269af746bae8929d9a8fd7c3cde5d5cad661a98f536b37ce5585c1c7b76b15249655532c280ac84c948739f5f133ad80cfd7adfdac0a853b715cbf65ee0f6d183fc7c2de3d81bc7cd612f99f9329321ed50662a04556cd600543738fc4dd1a62fe2f7202eecb04ef7b2856c4727cceb1a3dd0f76810533c9f2fcdc11f3d650f9a15a1d916b52a4c9c35c2dac2422807cffeef33ba81d8fe4631d41684149824d29e9d0d4d5f26fd4c60e9d0becfae7a799877ae6cd1c47a53bef2342cd093832ea7aaf3fdbee9700b2d5a6bdf28811082628b363f0419146aa945ebc9a9639e1af56e5f59f4a1e544e2bf989d6ccdebe3571f1f6b9a43a6c8b7dafc4a165f6531ad9dd08d0b8d4ba544d9c71d9f79e17b6aed6dea800b628a388ed6e5b20c72dad8498aef6e85ed76265cf2cf7371ad5802dc011b219fecf5fc188c628655bf2ab6b181c0add8f0f745fd184e814d85194ff290bba432b7716ac004af1a75674f9e55691112d9e18ae76c6080342c4ec1a07d2092d0f9be0e369ad35e6c789bc957317db2467d2270861a2847d346bbb45f8ef75bdad3d541e57f2bdd6774b13025318db7e0d5f0e53e5ab136172ae346865f569cee6726e7edbb5f4593cd326876613bda9823113bc35f0efc23f87e5f644b3806fd3886e1afb5626c68fb4a46301c8fb74e72920239eda37e3cef54d41e670fc8cca6459fd2b0e3afb8a6094f4cb6e4bde620cd353dba29d865bdeeaca8a8b4f61f76f545826c76af6dc8d9fbf4752097c9050e13087662898a0cb4aeaaf679ab8fd9db50c6398607be805ca9a681543eec466b2e4a99f147035242bc9f307fc8c347bf4bbdfd7b4425eab4fb51939f26ac5590eaeafda6ac77d713e91b1e6414745c855d1064883bc221538ca6282f809fa29fa98012038ad5b1fbff7651ebfb698758178dbbcacd976993a222b5ebae0cf2fc705db161d9a561cf2976707b50789cf5a2f5e29fd71473b19edb585c18b51b4fb2d6bde999547bc0254f64d9efbe424dcde7229b38ce3cc3deb0c1896aa60fa6e883a38a68519623a4b7dfabf7b82a09ab7a61521d0d9a896732704bef4b59087c88bdc385b45395d4baaae93cede09c824c2a45aa28d63fdeaa28531b3fa744ec6457f84440d3cf7771e60b0a1092d68c02a1556a50118bc7b18c7d94ed32601bbc4c45811845c57d3f38a2d882c0fb44ca1de21a8be8da054cefb3ba78f411c4c05d72633fabdb87dc0c9c0f63692265054dca59052a61e470e4c9755fbde1db818a3e37cc37a784f8c00827b8d9ec1094f39c3b1ca84424c874d3bb3bdf7ed4cca52cfdf519626194132c0af6a0cd6c79aeffa3f99e2a38df518f8de9f12f7bac29ecc0d0019f98ec563c22384999837470c7c5b715e5de434eb4a81dfbf8e5ba2a99ed0d314708f160d4c6fdd1f9ad15c8e1c83b0f0bcced284e72774fe0a4139bdb395456e0f93e8c365c34c94e7017e4ad17c480e56a0707ee450a2df1b34ec0f00ee1e384a96f471d564b487cf102ceb529ef505e185b065ac588f36a8b9169bca3b968f6a98bc216e14f98d9af379ce8b9afe559530af015c7b26c63342905b846b55145aace682732dece121cc698ad8d553b431dc844197ad9aec39b5e6f29bbf206379560a5bd2038fccf51fb45cf6d408a1531565a2363acae5ac58a5c4ab677805d87b78da4572365027d97cf69b421a967b0e266e6d709a4bebea0efa2d0edd92e1f9ef2db36abdbaf4cd7df9555dc6ebb025d0501e5b3f6468fa8edfa0dc14de4ed8bf69021f35e5900dfa8ef64a47c052d61c21b235500854ff4a0356b58b9d7cd4529d53033f5b6cc81efc15438d68e375eb6aa9b4a566ca8a7e13bfe5a37a2bf434ee69a2b64c90b247074987bf85c7b5e089239e41a75a6a974f913be66d9aaea8bd9ab748a342de0179f6afe4f49ee19e758c66467fb98d4570bb2caec2ed490bcce42057161be8288ba5944146e53a8fe1f1c7de6b67b75a71af37b82e30b4f0b9b570a8408523f7ce68c121195346b63dfd220948ae782f59d75ac3994cafcfd0e23d95d207d5bd0983559643b13cc81fa967d9718d31beed3fb72516102ac31ec2798033122c34cebf55915d13fc1795c3febcfc6b72d94ea0f9b91a80bdd448dc1521a4b028e2250b0eb4865125c22d9e2a8dce11df6d6a87ce1bdfbf683bb2449f947a5885f49c185486c6d010dead37d847ff2fe83bd0a7cd72fca1f6b775c8ccf1574bd30e83d5f052e9b42fd96346aee11d12e3ec6303f9d24484c5152555b748e8f9abacfd5d6db0d2457636c768485888d91d1d9ebf4162234424f5155566d72839c9fb4bbdbe4ebf91e252d31373c4c4f6b8898a4d7deebef0000000000000000000000000000101f324201",
        "00e6d50dd800840f8821ab2c6211d766ac2caf8d0cbf59599ccb106464583b34aade16691ffb114893ce1a68b24018596801e764312da4eafaef13dbfa26867827058ca08e8284e4a36170e0c079ccdedf3f5b7fb97c76f185a1c5598a5a5723afc32086ad019848d71ecfd7dd1c96762caa562d4c523b71c0400e888302b5edd9875d2bbe19e735b34bf61e5fe8727c84ae53e115bc99f3a8ba1f8d0f435b645dcb3bc133b12815bc64a03c150550e8b13b4af6c9fa9762fbd1246cd6c271b4b6952254b16367bbdf554d678f6e7c5399af4cff200b1d850587b13c9e58a697f6523368e786587be0fb32c518061f8514e5cd199675465d9966baa65257230d1ab9b78631b78f18fc8ae947746313a931ae10215747d598d9b4ce040400c218456ac034ff0cda4145492156097224ce567dbfe80df2a116b63c789ab3898735c3a0d113533c8b30582305e738cc0c95ead8c9006a2f8145badecfdbc25648f5efe44284e7b70c7de6db659fa24e968c8bb3dd139d2aea7d8edc0be0aeaea63da3effff293122369be54cc901b6cb1aa6c4c9820894473fca3b52cc96148e52420d19fab766e2135f1a519f44f25d7d6d07c56d5620cbfd7d333825d9430e5d04c2e9138bd1aef76743b700147dcefc6a4baaeb305d8d0eda1c7e8562a57687350e6d233472a9aef55288bee0a33abd43d2994c095a5a065cff44044f9e28535a29f998aa5e7b932fea888b4bec09ed3e033467d73c70d896b9595c022e9f26a33fdbfe3f9c757ffb4b456ffe549318becb6b43b0a3d2ccc22e618dd95440ceb8a15f743df7117386abe16f6eb651e5e67e6bbf5cd8a008b30b6a3ba5477d95f5aee08271e06b116c6113ecde59018d0ca176bc6234ecc178e65ba2ff8474fc7a99d5dc066cec1107ebba57c185c96a42a56c38aecb59bca1677a721a8cb265a65563d65114973cd983bcfd9c24d157bf64f73badd90cd2bb48f4c9521c7ae0619e9d216354420dd66ad29e1448fe7c534919fd33e9891b1058b2f98afaf37ae8172168f6c1c51e9cb279db3e7335421e821aa3ea1f6eb862c6f6805f8dfdbb443a7afd7ccea6bc7c21786ea88a9f75c8bae5a0d966f37a39d9043fb4df909b65f361e3f7ceb98b3f7ff8eff35bd2a4a6911f5e45c5103df1cfb14ea4d9a672ecef5d4354414701ad78dc1f181eefe5b1eb8f200f7a42f7865a92eb162241a2377aa9408db08cedff71c2097152f42f1149fdcb2eb55cd6c204df8246e32f7bb05d02d8563ef1e53e3353e5553fee9b3993450b5525010d242edfbf1047e28bb14e2b7d4ded07d6c27c6ded34d94f17e86860f1d00933db7e579a373e6efed19c130fc591cc12ae8d56355cd323c68bd8cb81b0eea21f6623709e21b3245b77597c5ed4613b358abe29e0f62415407b95a502b74e87450654319874456f0dab041cc9712f78f13265af75c213844414f9f28c7556a8d229796561290d9795e6d0898961936ea24f98917474b7681c5fa4f96dac140beb96fc5978a69d792418561739a49d1e81edb7734d5fe629a4e509c008c731a1fdec1b58a106a0e40a96184d06da0053c613d71687291f379e0879a91a321df1db41fe5fb9a0c68d9680f37246afd73d4c8c37773c58628c35abdfe0f5ce977228b60326a5213a3dcc2df3f98e0e03b3712c92d3e6ac696e7f4388ea7e2bd6d4bc99b1d5d322f5d8f28e33a047c50cbabffcd56d1882c549c0733b2990f2781e7a21f3365e2a177a1d1952cb5164d8a2f2ad2cdb9a7574f94ea8fe05dc205f1e22f378ae8e1cffc9133b6de0b82c09fe5cb4ccb19b78ac0d019ce5948d7268d5b7869d53fa7b56aa17638b8"
      ],
      "sequence": 4294967294
    }
  ],
  "vout": [
    {
      "value": 499991.8648,
      "n": 0,
      "scriptPubKey": {
        "asm": "1 df16d98a89584c3166ad8da8b4bbc603bf25ee55c08b1536329ad7fce507a83b",
        "hex": "5120df16d98a89584c3166ad8da8b4bbc603bf25ee55c08b1536329ad7fce507a83b",
        "reqSigs": 1,
        "type": "witness_v1_scripthash",
        "addresses": [
          "3QJmnh"
        ]
      }
    },
    {
      "value": 1.0,
      "n": 1,
      "scriptPubKey": {
        "asm": "OP_RETURN 0779c29544fd998953881efe194b7f286f29b726bf3825819f402fe51c89af95 e15ef672ad611d3afcf3b1f39ec47a21920aba9edede67a6bcf9f6e35130a0f7c17ed6528d413d1adcd391d3bee45a01b22a9abefefe47869cd9d6c3711080d7a11eb632ed215d7abcb3f1b3de843a61d24afade9e9e27e6fcb9b6a31170e0b7813e9612cd017d5a9c93d193fea41a41f26adafebebe07c6dc9996833150c09761de76f22de19dba7c7331731e44faa1128a3a1e5e5ee7263c797663d1b0207741fe56d20dc1bd9a5c5311533e64da8132aa1a3e7e7ec7061c595643f1900057219e36b26da1ddfa3c3371335e04bae152ca7a5e1e1ea7667c39362391f0603701be16924d81fdda1c1351137e249ac172ea5a7e3e3e87465c191603b1d04017e15ef672ad611d3afcf3b1f39ec47a21920aba9edede67a6bcf9f6e35130a0f7c17ed6528d413d1adcd391d3bee45a01b22a9abefefe47869cd9d6c3711080d7a11eb632ed215d7abcb3f1b3de843a61d24afade9e9e27e6fcb9b6a31170e0b7813e9612cd017d5a9c93d193fea41a41f26adafebebe07c6dc9996833150c09761de76f22de19dba7c7331731e44faa1128a3a1e5e5ee7263c797663d1b0207741fe56d20dc1bd9a5c5311533e64da8132aa1a3e7e7ec7061c595643f1900057219e36b26da1ddfa3c3371335e04bae152ca7a5e1e1ea7667c39362391f0603701be16924d81fdda1c1351137e249ac172ea5a7e3e3e87465c191603b1d04017e15ef672ad611d3afcf3b1f39ec47a21920aba9edede67a6bcf9f6e35130a0f7c17ed6528d413d1adcd391d3bee45a01b22a9abefefe47869cd9d6c3711080d7a11eb632ed215d7abcb3f1b3de843a61d24afade9e9e27e6fcb9b6a31170e0b7813e9612cd017d5a9c93d193fea41a41f26adafebebe07c6dc9996833150c09761de76f22de19dba7c7331731e44faa1128a3a1e5e5ee7263c797663d1b0207741fe56d20dc1bd9a5c5311533e64da8132aa1a3e7e7ec7061c595643f1900057219e36b26da1ddfa3c3371335e04bae152ca7a5e1e1ea7667c39362391f0603701be16924d81fdda1c1351137e249ac172ea5a7e3e3e87465c191603b1d04017e15ef672ad611d3afcf3b1f39ec47a21920aba9edede67a6bcf9f6e35130a0f7c17ed6528d413d1adcd391d3bee45a01b22a9abefefe47869cd9d6c3711080d7a11eb632ed215d7abcb3f1b3de843a61d24afade9e9e27e6fcb9b6a31170e0b7813e9612cd017d5a9c93d193fea41a41f26adafebebe07c6dc9996833150c09761de76f22de19dba7c7331731e44faa1128a3a1e5e5ee7263c797663d1b0207741fe56d20dc1bd9a5c5311533e64da8132aa1a3e7e7ec7061c595643f1900057219e36b26da1ddfa3c3371335e04bae152ca7a5e1e1ea7667c39362391f0603701be16924d81fdda1c1351137e249ac172ea5a7e3e3e87465c191603b1d04017e15ef672ad611d3afcf3b1f39ec47a21920aba9edede67a6bcf9f6e35130a0f7c17ed6528d413d1adcd391d3bee45a01b22a9abefefe47869cd9d6c3711080d7a11eb632ed215d7abcb3f1b3de843a61d24afade9e9e27e6fcb9b6a31170e0b7813e9612cd017d5a9c93d193fea41a41f26adafebebe07c6dc9996833150c09761de76f22de19dba7c7331731e44faa1a542dbd5c2176ebc0242f9186311c8f60505facd7cec69d19b70aea9e54f4f3c",
        "hex": "6a200779c29544fd998953881efe194b7f286f29b726bf3825819f402fe51c89af954db004e15ef672ad611d3afcf3b1f39ec47a21920aba9edede67a6bcf9f6e35130a0f7c17ed6528d413d1adcd391d3bee45a01b22a9abefefe47869cd9d6c3711080d7a11eb632ed215d7abcb3f1b3de843a61d24afade9e9e27e6fcb9b6a31170e0b7813e9612cd017d5a9c93d193fea41a41f26adafebebe07c6dc9996833150c09761de76f22de19dba7c7331731e44faa1128a3a1e5e5ee7263c797663d1b0207741fe56d20dc1bd9a5c5311533e64da8132aa1a3e7e7ec7061c595643f1900057219e36b26da1ddfa3c3371335e04bae152ca7a5e1e1ea7667c39362391f0603701be16924d81fdda1c1351137e249ac172ea5a7e3e3e87465c191603b1d04017e15ef672ad611d3afcf3b1f39ec47a21920aba9edede67a6bcf9f6e35130a0f7c17ed6528d413d1adcd391d3bee45a01b22a9abefefe47869cd9d6c3711080d7a11eb632ed215d7abcb3f1b3de843a61d24afade9e9e27e6fcb9b6a31170e0b7813e9612cd017d5a9c93d193fea41a41f26adafebebe07c6dc9996833150c09761de76f22de19dba7c7331731e44faa1128a3a1e5e5ee7263c797663d1b0207741fe56d20dc1bd9a5c5311533e64da8132aa1a3e7e7ec7061c595643f1900057219e36b26da1ddfa3c3371335e04bae152ca7a5e1e1ea7667c39362391f0603701be16924d81fdda1c1351137e249ac172ea5a7e3e3e87465c191603b1d04017e15ef672ad611d3afcf3b1f39ec47a21920aba9edede67a6bcf9f6e35130a0f7c17ed6528d413d1adcd391d3bee45a01b22a9abefefe47869cd9d6c3711080d7a11eb632ed215d7abcb3f1b3de843a61d24afade9e9e27e6fcb9b6a31170e0b7813e9612cd017d5a9c93d193fea41a41f26adafebebe07c6dc9996833150c09761de76f22de19dba7c7331731e44faa1128a3a1e5e5ee7263c797663d1b0207741fe56d20dc1bd9a5c5311533e64da8132aa1a3e7e7ec7061c595643f1900057219e36b26da1ddfa3c3371335e04bae152ca7a5e1e1ea7667c39362391f0603701be16924d81fdda1c1351137e249ac172ea5a7e3e3e87465c191603b1d04017e15ef672ad611d3afcf3b1f39ec47a21920aba9edede67a6bcf9f6e35130a0f7c17ed6528d413d1adcd391d3bee45a01b22a9abefefe47869cd9d6c3711080d7a11eb632ed215d7abcb3f1b3de843a61d24afade9e9e27e6fcb9b6a31170e0b7813e9612cd017d5a9c93d193fea41a41f26adafebebe07c6dc9996833150c09761de76f22de19dba7c7331731e44faa1128a3a1e5e5ee7263c797663d1b0207741fe56d20dc1bd9a5c5311533e64da8132aa1a3e7e7ec7061c595643f1900057219e36b26da1ddfa3c3371335e04bae152ca7a5e1e1ea7667c39362391f0603701be16924d81fdda1c1351137e249ac172ea5a7e3e3e87465c191603b1d04017e15ef672ad611d3afcf3b1f39ec47a21920aba9edede67a6bcf9f6e35130a0f7c17ed6528d413d1adcd391d3bee45a01b22a9abefefe47869cd9d6c3711080d7a11eb632ed215d7abcb3f1b3de843a61d24afade9e9e27e6fcb9b6a31170e0b7813e9612cd017d5a9c93d193fea41a41f26adafebebe07c6dc9996833150c09761de76f22de19dba7c7331731e44faa1a542dbd5c2176ebc0242f9186311c8f60505facd7cec69d19b70aea9e54f4f3c",
        "type": "nulldata"
      }
    }
  ],
  "blockhash": "ed58b71ef50cb049f6fd5c1ad274bdeb3951d970e0a56ec51ef7152d34b6d8c5",
  "confirmations": 1,
  "time": 1764177054,
  "blocktime": 1764177054
}