{
  "hex": "0100000000010157bb4befa79682f3bbb353deb87ac0422c276846b4986eb6a7e6501c9f5f160d0100000000feffffff02d0cb9045792d0000225120707145aca8094e0ae156763479a26db1cd6b16a4a572d326e5afb91c0a7577cb00e1f50500000000fdd5046a20a86b8231492c615769c9c34397ffe2e92582654e175952bb453bcec8313c91844db004f31ce8a774f89a8992608d98dbfaf6916aafcd5aa53b9f6c8c24422631fa12d6d33cc88754d8baa9b240adb8fbdad6b14a8fed7a851bbf4cac04620611da32f6b35ca8e734b8dac9d220cdd89bbab6d12aef8d1ae57bdf2ccc64026671ba5296937c88c71498fae9f200edf8bb9a96f10acfad3ac55bff0cec442246519a72b6739c6827f4781a0912e00d185b7a7611ea2f4dda25bb1fec0ca4c2a6b17a925653bc4807d4583a2932c02d387b5a5631ca0f6dfa059b3fcc2c84e286915ab27633dc2867b4385a4952a04d581b3a3651aa6f0d9a65fb5fac4ce482e6f13ad21613fc084794187a6972806d783b1a16718a4f2dba45db7f8c6cc4a2c6d11af236f31ce8a774f89a8992608d98dbfaf6916aafcd5aa53b9f6c8c24422631fa12d6d33cc88754d8baa9b240adb8fbdad6b14a8fed7a851bbf4cac04620611da32f6b35ca8e734b8dac9d220cdd89bbab6d12aef8d1ae57bdf2ccc64026671ba5296937c88c71498fae9f200edf8bb9a96f10acfad3ac55bff0cec442246519a72b6739c6827f4781a0912e00d185b7a7611ea2f4dda25bb1fec0ca4c2a6b17a925653bc4807d4583a2932c02d387b5a5631ca0f6dfa059b3fcc2c84e286915ab27633dc2867b4385a4952a04d581b3a3651aa6f0d9a65fb5fac4ce482e6f13ad21613fc084794187a6972806d783b1a16718a4f2dba45db7f8c6cc4a2c6d11af236f31ce8a774f89a8992608d98dbfaf6916aafcd5aa53b9f6c8c24422631fa12d6d33cc88754d8baa9b240adb8fbdad6b14a8fed7a851bbf4cac04620611da32f6b35ca8e734b8dac9d220cdd89bbab6d12aef8d1ae57bdf2ccc64026671ba5296937c88c71498fae9f200edf8bb9a96f10acfad3ac55bff0cec442246519a72b6739c6827f4781a0912e00d185b7a7611ea2f4dda25bb1fec0ca4c2a6b17a925653bc4807d4583a2932c02d387b5a5631ca0f6dfa059b3fcc2c84e286915ab27633dc2867b4385a4952a04d581b3a3651aa6f0d9a65fb5fac4ce482e6f13ad21613fc084794187a6972806d783b1a16718a4f2dba45db7f8c6cc4a2c6d11af236f31ce8a774f89a8992608d98dbfaf6916aafcd5aa53b9f6c8c24422631fa12d6d33cc88754d8baa9b240adb8fbdad6b14a8fed7a851bbf4cac04620611da32f6b35ca8e734b8dac9d220cdd89bbab6d12aef8d1ae57bdf2ccc64026671ba5296937c88c71498fae9f200edf8bb9a96f10acfad3ac55bff0cec442246519a72b6739c6827f4781a0912e00d185b7a7611ea2f4dda25bb1fec0ca4c2a6b17a925653bc4807d4583a2932c02d387b5a5631ca0f6dfa059b3fcc2c84e286915ab27633dc2867b4385a4952a04d581b3a3651aa6f0d9a65fb5fac4ce482e6f13ad21613fc084794187a6972806d783b1a16718a4f2dba45db7f8c6cc4a2c6d11af236f31ce8a774f89a8992608d98dbfaf6916aafcd5aa53b9f6c8c24422631fa12d6d33cc88754d8baa9b240adb8fbdad6b14a8fed7a851bbf4cac04620611da32f6b35ca8e734b8dac9d220cdd89bbab6d12aef8d1ae57bdf2ccc64026671ba5296937c88c71498fae9f200edf8bb9a96f10acfad3ac55bff0cec442246519a72b6739c6827f4781a0912e00d185b7a7611f079b51828e2bd26c85ed1b910febcd15056726b84a216601cf3bfa17a8d3a4402fd75093647867483f97a920f83b7eefab6e9541ca65617b086e5c57221e3d9f727a64945a6d7126d444d9591e3bad97fe0952bd0999f4c73be169b4bbefea19234a76a7377603d2905b0f13579149ac957212bf71f9173c0a94d28eb36de385ae3938ca23ee8731b2124bd3d2b879d0f75df99120d4562fc665e28a853a9af8e63516575cb5d97032f51d3ffef907fb2430e96610a9d92fb214dbe934037751bb3a03e31219f7a4c3a8b67b5d26d192b143387a326df5009f042482a68ed50b67a679deea2285759a2ac47bdd7f486d7572353bcd634febee23ed3e2d30733dc7651f71c0da9c59d2d6e75ea49a426ba03c2b98773cebd5038ed32aa8329203cc026c0299083bbaa5b6bd9bed1077c32c252a8622e3ec2d1aaa1de58a350d0d27fb7bdbe6158f1389c187d8dc2297f136c0de4956b8f8d1a07da85513a94d7783d92c5d55c457dfdba9c96f0646152099c3a3f48c4246f43ada4612fe8ce5251a9b8681401dae3cc2168fd7c1bf1700922d539f6795e1b2a2f1f08ee7e5f74bd7d17af0c2d7b0ea3a4a09d3de0053b8c8ee5a6fa48e6ca85cdc859fbdf2fc4822b20500c3a4f45a54086053dad5ed32873fe2b8aee3b5eed563659d4a183e56713c329f3854cbecefa7c9855b9ceb2ef574d31010f81d94be85da100accc515c93ffb282b1684a04c2cc23f13b122cc0b2ccc096ce17df2b1f225d053486ef1416d8507b38e934041f46dc8b59888ad0d6893734cd4764f5264a40f1f2317ad98788319102f714657141b712315da983973aa5684884398533068af795da20b0be6be02d787e18dda6993c3eddc7b437d4483ff032fd64fab6751e28cf7d7380c7e0b2382b39a6e6b6982419c9409d3503611062099cf2a77cd077b99ea14f882d483c1f34ee94c0bd2f32eeba6c4e234393a1fcebab71e68d76bd9fb2e11f984e6fce8a21b4d4f921777f3017af1586a080bd2e3a57651ffe5c9aa3ee7c3b411a1c36d664a451ddbcd9653f90d2af610d29f4203afa1b8c2a483b683f2ad55539db17932561e06bba63f9e027b8a03a752d1c2e95b112137552f49f3b39c6cd474573ef4c80d8442b4dd8b8ae5babd8f03227d86ff555b26f105146d3439667eb54409b2e985742ac170d7b690443764561666f4d65edb303597093299f1218cdebf144ddb8f559323ca3e1aab2ac6ce08e5f50fdfbb675a9a581793a275ff500f6331e9a4a933b21547c468da63118dfa887b21e0ca3fbd76754a5b321c3b16718b439ac58620a6adc690044f139d8a1f02f337e71c8e8c6cd7cde7a603db8cf3989d92f2f4233a26c0017cefb48ded32e27b451723b6c2572b6c7e002ffa890c95c31ffdb6220bf50dcad095d2cb6a8afd609ef9564656687955c2165b1a2adfbc2569588b3447d87958687b8ec4c032c00d2bafbb180951292c40a9da8bd06265d38944172f0a738f06e693862f755cfe44c6f840ae15ce4b3e5d69b9e74a96f32c251c273e8dbb1c85e0cac5bb30ad82417af6e4209d0178bf61e349f7f987e12aa5d2d7236a12f4b4c1846941bf0887a1be4b252b745d11b94e37f358b84d8d52d97a24d4bd3ae161eb37154180ac14eb85849e506cbe3c655c7f7ad4fba1ae466beb17ceb3d60da183e6d35cbcb0bf2a3232040d1738da720fe4c97670f1772145cf7dcca1b21ca6d5c22924d6a37d4245937b5a88fe0818c46252374dd98ada9dba0a9c6a7b5a3fb3750df407e662078f967128c925c85957fe4108e462fd3d14a799d0aba19269bab3851f52fa825b5bdb9cf8288d9872b5b74c96505dc249cc9bdef8c79ea583242e9c83a0db9cda67c589c9c6cc3762bdab80f71ed9a154e22fb17d52545088235c573cac04de056cf67f486663fca7a87c1a61b9ce20a6f53372e74bc0fd53395cc3040ef0621403c657644fb009a5a58de1b6b6f0c7ba8bfcb188bc5313b70226eb2ea2391c74c772a8e855348a5ceeccaaa444e061991c34baa3af621ad2cb51bd9db3f4b3131ac197111ce57a1664fae6eab590e988c730ff895117399219bea6161ebe74a87ac84bf4744f352b2d41327db276a801f9f686072c099bbf5a124d76bdea8f929d1f38993af1b4f9b42f2cf1127ae30319f7b82a1e59bc47e2591c29c90e059a0796c944a2aaaf3d9db2a315a58a06463bebecc5c4ac840328d9c3e00d1ba0623683ff242b41522f0889dde726b4ab58b8402f3adb9e6987237e32510dd83448e2e53b253fad086be880d4ae0b32f0d66696dcd46404d194b78288cf1cc2f7ee2294e809735755b859dadf78618a770ad10ef02c7faadd01d08921a9785e2a33be3562c1c6e532021d9517cde7e43f6e420a28fc65791f759ec3d319b3d3defc3ef4f578a1f6d559e570ad35d1026db6c9273f8976046552fdecd954fd0c0420f5841d52d2fe2d8a9887965aa6c9aa862c1e99d729a02d0e14dc237f134606224db302ae8e973d8697cd8f86a0412b2e19fca7582a2a3cf8be9343756342fafe5f294be9d4dc6f95dc1814d938ba484845808d3e068b4ebf2da085b3d8849fe19edc7966b393c104761a3ff32bfa74d93c55cde5f3873a990d46d34450f278b15bee6aa286dcf62f024eff66387ca24c1234a4319bbd9470d3b6a0201d6ad7d2ac7f34c72f71b00ec38deccc00a7716e010861da5af40c39f2ce08457808c6603309b4da4ed34e4e0ccde3b10674049220bfee04b78fe56addc6502c77c6ab9bbc20e39b3296a89c316b0b61fd842f892a798e9d30b8b743b517f3ffd5361ebae109a33f3b5c5048455bc5f3865feaa317bccb74367d239bee7ef7788cc47b160ecd4c7432e12cfe6473650960f4a7b1288ab334e14ff05aecc7da1439c1bbf571e30435f3412aaca013e3b7e8f0c2f07c1d2a1e4d6a3356c49b71846e69268b0082e2f783ed7e726828330579325600a909786398edb249360c7951e12df664b6fbb0a63e942e2eacadf4ab8754f6907e49e3bea87269c8b959991a327ebc3f9c93d9afdcd23f977234829ec49df232bcbf9b8f8e8efae5513da2f1d65bde6776cf13ab4aafca941329c4a3247492783469fc6c70ba250c843018a8ea96aafc89e84000f7240253445b998d428d7cf60f4be091c9710fd2c263fb2718e4b20bd39f47d4702aada2cbf008f62391905017fea764e94d4f64263f86702798396d47a69c28760e280bb732305fb8d79c1efcc5920b094f3b4a267ef1c72a014ff8f309567266a514917dce13b95085d11e52db3c0ec577f6ce4dbb3d942ad1e815b855ced6c832c9b93be1fba077c5cf11e2b45697d859d9fb4c7f12930344c55667076acb7bcd4e9132a2c383f5e6f7a7fa8b3b7b9c0c5cdf4fdfe0f242d4e59627d7e8298b1f3000000000000000000000000000000000000000000000000000b182b3701fd21050023fd3359a8c8b09d2abc7a32e03996990e498e6122156683dd97e11150160ce95ebae940072a4a40e127460dbc8289fb62dc513171fc08dfe10e15506008a5efc731d9f539745dbdf0b7ff791a4b8769dbc33a25ab61a13281d905b4ce0af23b29a9d65a7fb3012dc39b091ec51c4da17dbb744152585b5219c2a2bea663c4d1ca45a57f170b83a8ac19d7381730d3e9c86bc760a15206c4537c24c319f82e29f14e17fd815e781e09cd2d6a8eab3c391d90942b68b49eb46cf208dfbc7b95d07ed4800ba604aedcb2a45a33acc6445b4997b50ba5735ab3609a015fa8c0e9436f4290f5a218399a12e4a373e3b1dbeed13f1be75679c567196ea783276fd6be87be542eaae7153ee3f1654a13ae982b445fdce9a170841d8b6ea0b60c23d6148d6eb251bb7ef299402f88df996821daf303dd1868798fb1b7e8c5a0e515045b016ed62536737dd01c3609a1c1ba13b70cfd25477ce4b681aeb71e32c36d490ce44c0f12d4a5ffe62a20a9e0a080be3c1dd1813f50495dba72a0dc066a103c3aa3977549d315da89fb0c9be20c19bbf3675a89b94370bb03cfb4f573ae9f746382b44b516220db94930b968eb6adccb601bf0fc4fabce862f5f5ce69780bc4213d9783175f57d16f7048fe789a860412aa76a620aa47e97a3e0dd3289090209f420bc0f6c44e6ba796ce98cb7efd3c89cadbbb604d421b437fb3dd1908bb9c698547222366f3f458872f7b0bb6ea3ccb28b376c2e8bf32830ea086a12518cc76439dc43ffcfadf6667327982888d0bdfa1c43062817bac69601587f194ed9d8b208850cb11e5f42a71f1f83cc50ea5c76afe250a44078d66f4ad06efe40bc042873653de57ef6eff291b4a5f75125ca3a2a327acece2acb67d344007bb373b9de6f5e92f77effce358138a8dbb2f69ea345afa94c73a0b03e0cb12fd6d93d011e78146363ea2c86795d98e352b2ce1825c4c3638a16363f5c06904834c0d968760db0b582df3973b4f6df05294a32413efe34a5b3c36dc03d576571b433677578f3800f09a5748587d8483c6be6bfbaf6b7862adc3e8ff6011a1b426960de10f83cffab76f361cd4d3c16c37a7541a6f9a564dcc2b904a1ed75137713412c77d1d2406196ca162948723178a9241fb6cacc7cdb250bc60498b460811ea124bc045ba1bf4d7add1e05062c8ed3156ba1aaae300e4de1ec6614e2279b093c401056f31d6a2e7d443b2b5698d284d46d2397ca3e020a336226dd3543b5bcd18356d074955303534b122d1fc1b988c2453f776ee1a9a8c834e4f62e2f524dba4475e137c77cf16071fa2c90e867ad2afad1f0177a20bfdd130e21057f319acc9fa9575304477b431ac5c0534688bab85fcf7c770e56d96f805c390cbe47b11a233f6a375622d8a41d0f909aa972ebabf74f4423030bae43935ccd97b9d455c4f45a22c66be93c2db3d3b334d95d8db61bd1dd236b521876593ead1a74d77bd2aa8bddea251c6cef74e14cd1195179a08cd22d705113a0d19b2d52e4f6c6d9141d81a8379484343a08c672f33cb56df85fcbcfb3c277c9ac3374da09fd7debab22d303c63476564b60f6e81b1c8e69a47ea695bdac92e69dc9df19b302cf7bbd0bd7a6acefa066fadea67cac2c3bcfcf47cbf123db39034b8f2534fc60150abde3e5d2ba2b94cfe6af0c00f190feb7af50e29ddfd63471c1fb96db928f56db76515dd52305c741755c142273a25fc8e3599631833c159fbfa3e3e0896c336e26b01e7e8425b8d728b2a9af37b6fff3ecd739958c3a16565af1c7b006e0047b8924e84a158cf1e69083ac55201b73a4f83293cef5abb17df13219754f399136b2786ad6e000000",
  "txid": "26ccbed02b7dd2741fb3b3cb3008370aa2177b1d772f116688796edc8cf511f2",
  "hash": "44ac3c210152545dee4228abc155fc2bfcb4c840fd241d210ebf7adc05b83798",
  "size": 5085,
  "vsize": 2278,
  "version": 1,
  "locktime": 110,
  "vin": [
    {
      "txid": "0d165f9f1c50e6a7b66e98b44668272c42c07ab8de53b3bbf38296a7ef4bbb57",
      "vout": 1,
      "scriptSig": {
        "asm": "",
        "hex": ""
      },
      "txinwitness": [
        "3647867483f97a920f83b7eefab6e9541ca65617b086e5c57221e3d9f727a64945a6d7126d444d9591e3bad97fe0952bd0999f4c73be169b4bbefea19234a76a7377603d2905b0f13579149ac957212bf71f9173c0a94d28eb36de385ae3938ca23ee8731b2124bd3d2b879d0f75df99120d4562fc665e28a853a9af8e63516575cb5d97032f51d3ffef907fb2430e96610a9d92fb214dbe934037751bb3a03e31219f7a4c3a8b67b5d26d192b143387a326df5009f042482a68ed50b67a679deea2285759a2ac47bdd7f486d7572353bcd634febee23ed3e2d30733dc7651f71c0da9c59d2d6e75ea49a426ba03c2b98773cebd5038ed32aa8329203cc026c0299083bbaa5b6bd9bed1077c32c252a8622e3ec2d1aaa1de58a350d0d27fb7bdbe6158f1389c187d8dc2297f136c0de4956b8f8d1a07da85513a94d7783d92c5d55c457dfdba9c96f0646152099c3a3f48c4246f43ada4612fe8ce5251a9b8681401dae3cc2168fd7c1bf1700922d539f6795e1b2a2f1f08ee7e5f74bd7d17af0c2d7b0ea3a4a09d3de0053b8c8ee5a6fa48e6ca85cdc859fbdf2fc4822b20500c3a4f45a54086053dad5ed32873fe2b8aee3b5eed563659d4a183e56713c329f3854cbecefa7c9855b9ceb2ef574d31010f81d94be85da100accc515c93ffb282b1684a04c2cc23f13b122cc0b2ccc096ce17df2b1f225d053486ef1416d8507b38e934041f46dc8b59888ad0d6893734cd4764f5264a40f1f2317ad98788319102f714657141b712315da983973aa5684884398533068af795da20b0be6be02d787e18dda6993c3eddc7b437d4483ff032fd64fab6751e28cf7d7380c7e0b2382b39a6e6b6982419c9409d3503611062099cf2a77cd077b99ea14f882d483c1f34ee94c0bd2f32eeba6c4e234393a1fcebab71e68d76bd9fb2e11f984e6fce8a21b4d4f921777f3017af1586a080bd2e3a57651ffe5c9aa3ee7c3b411a1c36d664a451ddbcd9653f90d2af610d29f4203afa1b8c2a483b683f2ad55539db17932561e06bba63f9e027b8a03a752d1c2e95b112137552f49f3b39c6cd474573ef4c80d8442b4dd8b8ae5babd8f03227d86ff555b26f105146d3439667eb54409b2e985742ac170d7b690443764561666f4d65edb303597093299f1218cdebf144ddb8f559323ca3e1aab2ac6ce08e5f50fdfbb675a9a581793a275ff500f6331e9a4a933b21547c468da63118dfa887b21e0ca3fbd76754a5b321c3b16718b439ac58620a6adc690044f139d8a1f02f337e71c8e8c6cd7cde7a603db8cf3989d92f2f4233a26c0017cefb48ded32e27b451723b6c2572b6c7e002ffa890c95c31ffdb6220bf50dcad095d2cb6a8afd609ef9564656687955c2165b1a2adfbc2569588b3447d87958687b8ec4c032c00d2bafbb180951292c40a9da8bd06265d38944172f0a738f06e693862f755cfe44c6f840ae15ce4b3e5d69b9e74a96f32c251c273e8dbb1c85e0cac5bb30ad82417af6e4209d0178bf61e349f7f987e12aa5d2d7236a12f4b4c1846941bf0887a1be4b252b745d11b94e37f358b84d8d52d97a24d4bd3ae161eb37154180ac14eb85849e506cbe3c655c7f7ad4fba1ae466beb17ceb3d60da183e6d35cbcb0bf2a3232040d1738da720fe4c97670f1772145cf7dcca1b21ca6d5c22924d6a37d4245937b5a88fe0818c46252374dd98ada9dba0a9c6a7b5a3fb3750df407e662078f967128c925c85957fe4108e462fd3d14a799d0aba19269bab3851f52fa825b5bdb9cf8288d9872b5b74c96505dc249cc9bdef8c79ea583242e9c83a0db9cda67c589c9c6cc3762bdab80f71ed9a154e22fb17d52545088235c573cac04de056cf67f486663fca7a87c1a61b9ce20a6f53372e74bc0fd53395cc3040ef0621403c657644fb009a5a58de1b6b6f0c7ba8bfcb188bc5313b70226eb2ea2391c74c772a8e855348a5ceeccaaa444e061991c34baa3af621ad2cb51bd9db3f4b3131ac197111ce57a1664fae6eab590e988c730ff895117399219bea6161ebe74a87ac84bf4744f352b2d41327db276a801f9f686072c099bbf5a124d76bdea8f929d1f38993af1b4f9b42f2cf1127ae30319f7b82a1e59bc47e2591c29c90e059a0796c944a2aaaf3d9db2a315a58a06463bebecc5c4ac840328d9c3e00d1ba0623683ff242b41522f0889dde726b4ab58b8402f3adb9e6987237e32510dd83448e2e53b253fad086be880d4ae0b32f0d66696dcd46404d194b78288cf1cc2f7ee2294e809735755b859dadf78618a770ad10ef02c7faadd01d08921a9785e2a33be3562c1c6e532021d9517cde7e43f6e420a28fc65791f759ec3d319b3d3defc3ef4f578a1f6d559e570ad35d1026db6c9273f8976046552fdecd954fd0c0420f5841d52d2fe2d8a9887965aa6c9aa862c1e99d729a02d0e14dc237f134606224db302ae8e973d8697cd8f86a0412b2e19fca7582a2a3cf8be9343756342fafe5f294be9d4dc6f95dc1814d938ba484845808d3e068b4ebf2da085b3d8849fe19edc7966b393c104761a3ff32bfa74d93c55cde5f3873a990d46d34450f278b15bee6aa286dcf62f024eff66387ca24c1234a4319bbd9470d3b6a0201d6ad7d2ac7f34c72f71b00ec38deccc00a7716e010861da5af40c39f2ce08457808c6603309b4da4ed34e4e0ccde3b10674049220bfee04b78fe56addc6502c77c6ab9bbc20e39b3296a89c316b0b61fd842f892a798e9d30b8b743b517f3ffd5361ebae109a33f3b5c5048455bc5f3865feaa317bccb74367d239bee7ef7788cc47b160ecd4c7432e12cfe6473650960f4a7b1288ab334e14ff05aecc7da1439c1bbf571e30435f3412aaca013e3b7e8f0c2f07c1d2a1e4d6a3356c49b71846e69268b0082e2f783ed7e726828330579325600a909786398edb249360c7951e12df664b6fbb0a63e942e2eacadf4ab8754f6907e49e3bea87269c8b959991a327ebc3f9c93d9afdcd23f977234829ec49df232bcbf9b8f8e8efae5513da2f1d65bde6776cf13ab4aafca941329c4a3247492783469fc6c70ba250c843018a8ea96aafc89e84000f7240253445b998d428d7cf60f4be091c9710fd2c263fb2718e4b20bd39f47d4702aada2cbf008f62391905017fea764e94d4f64263f86702798396d47a69c28760e280bb732305fb8d79c1efcc5920b094f3b4a267ef1c72a014ff8f309567266a514917dce13b95085d11e52db3c0ec577f6ce4dbb3d942ad1e815b855ced6c832c9b93be1fba077c5cf11e2b45697d859d9fb4c7f12930344c55667076acb7bcd4e9132a2c383f5e6f7a7fa8b3b7b9c0c5cdf4fdfe0f242d4e59627d7e8298b1f3000000000000000000000000000000000000000000000000000b182b3701",
        "0023fd3359a8c8b09d2abc7a32e03996990e498e6122156683dd97e11150160ce95ebae940072a4a40e127460dbc8289fb62dc513171fc08dfe10e15506008a5efc731d9f539745dbdf0b7ff791a4b8769dbc33a25ab61a13281d905b4ce0af23b29a9d65a7fb3012dc39b091ec51c4da17dbb744152585b5219c2a2bea663c4d1ca45a57f170b83a8ac19d7381730d3e9c86bc760a15206c4537c24c319f82e29f14e17fd815e781e09cd2d6a8eab3c391d90942b68b49eb46cf208dfbc7b95d07ed4800ba604aedcb2a45a33acc6445b4997b50ba5735ab3609a015fa8c0e9436f4290f5a218399a12e4a373e3b1dbeed13f1be75679c567196ea783276fd6be87be542eaae7153ee3f1654a13ae982b445fdce9a170841d8b6ea0b60c23d6148d6eb251bb7ef299402f88df996821daf303dd1868798fb1b7e8c5a0e515045b016ed62536737dd01c3609a1c1ba13b70cfd25477ce4b681aeb71e32c36d490ce44c0f12d4a5ffe62a20a9e0a080be3c1dd1813f50495dba72a0dc066a103c3aa3977549d315da89fb0c9be20c19bbf3675a89b94370bb03cfb4f573ae9f746382b44b516220db94930b968eb6adccb601bf0fc4fabce862f5f5ce69780bc4213d9783175f57d16f7048fe789a860412aa76a620aa47e97a3e0dd3289090209f420bc0f6c44e6ba796ce98cb7efd3c89cadbbb604d421b437fb3dd1908bb9c698547222366f3f458872f7b0bb6ea3ccb28b376c2e8bf32830ea086a12518cc76439dc43ffcfadf6667327982888d0bdfa1c43062817bac69601587f194ed9d8b208850cb11e5f42a71f1f83cc50ea5c76afe250a44078d66f4ad06efe40bc042873653de57ef6eff291b4a5f75125ca3a2a327acece2acb67d344007bb373b9de6f5e92f77effce358138a8dbb2f69ea345afa94c73a0b03e0cb12fd6d93d011e78146363ea2c86795d98e352b2ce1825c4c3638a16363f5c06904834c0d968760db0b582df3973b4f6df05294a32413efe34a5b3c36dc03d576571b433677578f3800f09a5748587d8483c6be6bfbaf6b7862adc3e8ff6011a1b426960de10f83cffab76f361cd4d3c16c37a7541a6f9a564dcc2b904a1ed75137713412c77d1d2406196ca162948723178a9241fb6cacc7cdb250bc60498b460811ea124bc045ba1bf4d7add1e05062c8ed3156ba1aaae300e4de1ec6614e2279b093c401056f31d6a2e7d443b2b5698d284d46d2397ca3e020a336226dd3543b5bcd18356d074955303534b122d1fc1b988c2453f776ee1a9a8c834e4f62e2f524dba4475e137c77cf16071fa2c90e867ad2afad1f0177a20bfdd130e21057f319acc9fa9575304477b431ac5c0534688bab85fcf7c770e56d96f805c390cbe47b11a233f6a375622d8a41d0f909aa972ebabf74f4423030bae43935ccd97b9d455c4f45a22c66be93c2db3d3b334d95d8db61bd1dd236b521876593ead1a74d77bd2aa8bddea251c6cef74e14cd1195179a08cd22d705113a0d19b2d52e4f6c6d9141d81a8379484343a08c672f33cb56df85fcbcfb3c277c9ac3374da09fd7debab22d303c63476564b60f6e81b1c8e69a47ea695bdac92e69dc9df19b302cf7bbd0bd7a6acefa066fadea67cac2c3bcfcf47cbf123db39034b8f2534fc60150abde3e5d2ba2b94cfe6af0c00f190feb7af50e29ddfd63471c1fb96db928f56db76515dd52305c741755c142273a25fc8e3599631833c159fbfa3e3e0896c336e26b01e7e8425b8d728b2a9af37b6fff3ecd739958c3a16565af1c7b006e0047b8924e84a158cf1e69083ac55201b73a4f83293cef5abb17df13219754f399136b2786ad"
      ],
      "sequence": 4294967294
    }
  ],
  "vout": [
    {
      "value": 499988.8141,
      "n": 0,
      "scriptPubKey": {
        "asm": "1 707145aca8094e0ae156763479a26db1cd6b16a4a572d326e5afb91c0a7577cb",
        "hex": "5120707145aca8094e0ae156763479a26db1cd6b16a4a572d326e5afb91c0a7577cb",
        "reqSigs": 1,
        "type": "witness_v1_scripthash",
        "addresses": [
          "3QJmnh"
        ]
      }
    },
    {
      "value": 1.0,
      "n": 1,
      "scriptPubKey": {
        "asm": "OP_RETURN a86b8231492c615769c9c34397ffe2e92582654e175952bb453bcec8313c9184 f31ce8a774f89a8992608d98dbfaf6916aafcd5aa53b9f6c8c24422631fa12d6d33cc88754d8baa9b240adb8fbdad6b14a8fed7a851bbf4cac04620611da32f6b35ca8e734b8dac9d220cdd89bbab6d12aef8d1ae57bdf2ccc64026671ba5296937c88c71498fae9f200edf8bb9a96f10acfad3ac55bff0cec442246519a72b6739c6827f4781a0912e00d185b7a7611ea2f4dda25bb1fec0ca4c2a6b17a925653bc4807d4583a2932c02d387b5a5631ca0f6dfa059b3fcc2c84e286915ab27633dc2867b4385a4952a04d581b3a3651aa6f0d9a65fb5fac4ce482e6f13ad21613fc084794187a6972806d783b1a16718a4f2dba45db7f8c6cc4a2c6d11af236f31ce8a774f89a8992608d98dbfaf6916aafcd5aa53b9f6c8c24422631fa12d6d33cc88754d8baa9b240adb8fbdad6b14a8fed7a851bbf4cac04620611da32f6b35ca8e734b8dac9d220cdd89bbab6d12aef8d1ae57bdf2ccc64026671ba5296937c88c71498fae9f200edf8bb9a96f10acfad3ac55bff0cec442246519a72b6739c6827f4781a0912e00d185b7a7611ea2f4dda25bb1fec0ca4c2a6b17a925653bc4807d4583a2932c02d387b5a5631ca0f6dfa059b3fcc2c84e286915ab27633dc2867b4385a4952a04d581b3a3651aa6f0d9a65fb5fac4ce482e6f13ad21613fc084794187a6972806d783b1a16718a4f2dba45db7f8c6cc4a2c6d11af236f31ce8a774f89a8992608d98dbfaf6916aafcd5aa53b9f6c8c24422631fa12d6d33cc88754d8baa9b240adb8fbdad6b14a8fed7a851bbf4cac04620611da32f6b35ca8e734b8dac9d220cdd89bbab6d12aef8d1ae57bdf2ccc64026671ba5296937c88c71498fae9f200edf8bb9a96f10acfad3ac55bff0cec442246519a72b6739c6827f4781a0912e00d185b7a7611ea2f4dda25bb1fec0ca4c2a6b17a925653bc4807d4583a2932c02d387b5a5631ca0f6dfa059b3fcc2c84e286915ab27633dc2867b4385a4952a04d581b3a3651aa6f0d9a65fb5fac4ce482e6f13ad21613fc084794187a6972806d783b1a16718a4f2dba45db7f8c6cc4a2c6d11af236f31ce8a774f89a8992608d98dbfaf6916aafcd5aa53b9f6c8c24422631fa12d6d33cc88754d8baa9b240adb8fbdad6b14a8fed7a851bbf4cac04620611da32f6b35ca8e734b8dac9d220cdd89bbab6d12aef8d1ae57bdf2ccc64026671ba5296937c88c71498fae9f200edf8bb9a96f10acfad3ac55bff0cec442246519a72b6739c6827f4781a0912e00d185b7a7611ea2f4dda25bb1fec0ca4c2a6b17a925653bc4807d4583a2932c02d387b5a5631ca0f6dfa059b3fcc2c84e286915ab27633dc2867b4385a4952a04d581b3a3651aa6f0d9a65fb5fac4ce482e6f13ad21613fc084794187a6972806d783b1a16718a4f2dba45db7f8c6cc4a2c6d11af236f31ce8a774f89a8992608d98dbfaf6916aafcd5aa53b9f6c8c24422631fa12d6d33cc88754d8baa9b240adb8fbdad6b14a8fed7a851bbf4cac04620611da32f6b35ca8e734b8dac9d220cdd89bbab6d12aef8d1ae57bdf2ccc64026671ba5296937c88c71498fae9f200edf8bb9a96f10acfad3ac55bff0cec442246519a72b6739c6827f4781a0912e00d185b7a7611f079b51828e2bd26c85ed1b910febcd15056726b84a216601cf3bfa17a8d3a44",
        "hex": "6a20a86b8231492c615769c9c34397ffe2e92582654e175952bb453bcec8313c91844db004f31ce8a774f89a8992608d98dbfaf6916aafcd5aa53b9f6c8c24422631fa12d6d33cc88754d8baa9b240adb8fbdad6b14a8fed7a851bbf4cac04620611da32f6b35ca8e734b8dac9d220cdd89bbab6d12aef8d1ae57bdf2ccc64026671ba5296937c88c71498fae9f200edf8bb9a96f10acfad3ac55bff0cec442246519a72b6739c6827f4781a0912e00d185b7a7611ea2f4dda25bb1fec0ca4c2a6b17a925653bc4807d4583a2932c02d387b5a5631ca0f6dfa059b3fcc2c84e286915ab27633dc2867b4385a4952a04d581b3a3651aa6f0d9a65fb5fac4ce482e6f13ad21613fc084794187a6972806d783b1a16718a4f2dba45db7f8c6cc4a2c6d11af236f31ce8a774f89a8992608d98dbfaf6916aafcd5aa53b9f6c8c24422631fa12d6d33cc88754d8baa9b240adb8fbdad6b14a8fed7a851bbf4cac04620611da32f6b35ca8e734b8dac9d220cdd89bbab6d12aef8d1ae57bdf2ccc64026671ba5296937c88c71498fae9f200edf8bb9a96f10acfad3ac55bff0cec442246519a72b6739c6827f4781a0912e00d185b7a7611ea2f4dda25bb1fec0ca4c2a6b17a925653bc4807d4583a2932c02d387b5a5631ca0f6dfa059b3fcc2c84e286915ab27633dc2867b4385a4952a04d581b3a3651aa6f0d9a65fb5fac4ce482e6f13ad21613fc084794187a6972806d783b1a16718a4f2dba45db7f8c6cc4a2c6d11af236f31ce8a774f89a8992608d98dbfaf6916aafcd5aa53b9f6c8c24422631fa12d6d33cc88754d8baa9b240adb8fbdad6b14a8fed7a851bbf4cac04620611da32f6b35ca8e734b8dac9d220cdd89bbab6d12aef8d1ae57bdf2ccc64026671ba5296937c88c71498fae9f200edf8bb9a96f10acfad3ac55bff0cec442246519a72b6739c6827f4781a0912e00d185b7a7611ea2f4dda25bb1fec0ca4c2a6b17a925653bc4807d4583a2932c02d387b5a5631ca0f6dfa059b3fcc2c84e286915ab27633dc2867b4385a4952a04d581b3a3651aa6f0d9a65fb5fac4ce482e6f13ad21613fc084794187a6972806d783b1a16718a4f2dba45db7f8c6cc4a2c6d11af236f31ce8a774f89a8992608d98dbfaf6916aafcd5aa53b9f6c8c24422631fa12d6d33cc88754d8baa9b240adb8fbdad6b14a8fed7a851bbf4cac04620611da32f6b35ca8e734b8dac9d220cdd89bbab6d12aef8d1ae57bdf2ccc64026671ba5296937c88c71498fae9f200edf8bb9a96f10acfad3ac55bff0cec442246519a72b6739c6827f4781a0912e00d185b7a7611ea2f4dda25bb1fec0ca4c2a6b17a925653bc4807d4583a2932c02d387b5a5631ca0f6dfa059b3fcc2c84e286915ab27633dc2867b4385a4952a04d581b3a3651aa6f0d9a65fb5fac4ce482e6f13ad21613fc084794187a6972806d783b1a16718a4f2dba45db7f8c6cc4a2c6d11af236f31ce8a774f89a8992608d98dbfaf6916aafcd5aa53b9f6c8c24422631fa12d6d33cc88754d8baa9b240adb8fbdad6b14a8fed7a851bbf4cac04620611da32f6b35ca8e734b8dac9d220cdd89bbab6d12aef8d1ae57bdf2ccc64026671ba5296937c88c71498fae9f200edf8bb9a96f10acfad3ac55bff0cec442246519a72b6739c6827f4781a0912e00d185b7a7611f079b51828e2bd26c85ed1b910febcd15056726b84a216601cf3bfa17a8d3a44",
        "type": "nulldata"
      }
    }
  ],
  "blockhash": "2622e54cefe9d3081f6ac04e4c67f268d7c1e3313b2268ffede4439aafe1acd1",
  "confirmations": 1,
  "time": 1764177922,
  "blocktime": 1764177922
}