{
  "hex": "0100000000010135231104672b53e38c5fc58b473fa41970a2a52cf695bbf73f85f024b3f976600100000000feffffff029021522d792d0000225120121af7f7b136b2dfb28eb9fe8b60d8a75ecb7b2a8909cd212db646435c5f638f00e1f50500000000fdd5046a208b2ae0318cbc80db397fdb846a7d9e5f37011dd232cef6ab08babab866de0bdd4db0041765d84644de4f4ef3dec16157f1a6c82446c1003ce64191e7cf8fb49324a3c53745f86664fe6f6ed3fee14177d186e80466e1201cc661b1c7efaf94b30483e557259806049e0f0eb39e812117b1e688640681407ca601d1a78fcff4d364e3857705b82624be2f2e93bea1013791c6a84426a1605c8621f187afefd4f344c3a597e558c6c45ecfce735e41e1d7712648a4c64180bc66c111674f0f3413a42345b7c578e6e47eefee537e61c1f751066884e661a09c46e131476f2f1433840365d7a51886841e8f8e331e01a197316608e48601c0fc268151270f4f7453e46305f78538a6a43eafae133e2181b7114628c4a621e0dc06a171072f6f5473c443251765d84644de4f4ef3dec16157f1a6c82446c1003ce64191e7cf8fb49324a3c53745f86664fe6f6ed3fee14177d186e80466e1201cc661b1c7efaf94b30483e557259806049e0f0eb39e812117b1e688640681407ca601d1a78fcff4d364e3857705b82624be2f2e93bea1013791c6a84426a1605c8621f187afefd4f344c3a597e558c6c45ecfce735e41e1d7712648a4c64180bc66c111674f0f3413a42345b7c578e6e47eefee537e61c1f751066884e661a09c46e131476f2f1433840365d7a51886841e8f8e331e01a197316608e48601c0fc268151270f4f7453e46305f78538a6a43eafae133e2181b7114628c4a621e0dc06a171072f6f5473c443251765d84644de4f4ef3dec16157f1a6c82446c1003ce64191e7cf8fb49324a3c53745f86664fe6f6ed3fee14177d186e80466e1201cc661b1c7efaf94b30483e557259806049e0f0eb39e812117b1e688640681407ca601d1a78fcff4d364e3857705b82624be2f2e93bea1013791c6a84426a1605c8621f187afefd4f344c3a597e558c6c45ecfce735e41e1d7712648a4c64180bc66c111674f0f3413a42345b7c578e6e47eefee537e61c1f751066884e661a09c46e131476f2f1433840365d7a51886841e8f8e331e01a197316608e48601c0fc268151270f4f7453e46305f78538a6a43eafae133e2181b7114628c4a621e0dc06a171072f6f5473c443251765d84644de4f4ef3dec16157f1a6c82446c1003ce64191e7cf8fb49324a3c53745f86664fe6f6ed3fee14177d186e80466e1201cc661b1c7efaf94b30483e557259806049e0f0eb39e812117b1e688640681407ca601d1a78fcff4d364e3857705b82624be2f2e93bea1013791c6a84426a1605c8621f187afefd4f344c3a597e558c6c45ecfce735e41e1d7712648a4c64180bc66c111674f0f3413a42345b7c578e6e47eefee537e61c1f751066884e661a09c46e131476f2f1433840365d7a51886841e8f8e331e01a197316608e48601c0fc268151270f4f7453e46305f78538a6a43eafae133e2181b7114628c4a621e0dc06a171072f6f5473c443251765d84644de4f4ef3dec16157f1a6c82446c1003ce64191e7cf8fb49324a3c53745f86664fe6f6ed3fee14177d186e80466e1201cc661b1c7efaf94b30483e557259806049e0f0eb39e812117b1e688640681407ca601d1a78fcff4d364e3857705b82624be2f2e93bea1013791c6a84426a1605c8621f187afefd4f344c3a597e558c6c45ecfce735e41e1d77126484c413be060627d4885cdf9b54d29dd43e8533c5d5d074d7f8b67468c3ea8e68b02fd7509c308ba63ad57e5cea030b8509d5139d48f4e74c7887a0361f7fe82e0b1bdec0b9d20f8f00b6052d4a5b6f0c6e055d9635a74f8e9a4456dffd028ca4a893452248ec826b0fee2ac153b9eed8701a5a60e3c40ab1fa296adc89bba6f35cf1ce9997b6a5c21f2014cf146ca8f1aa4d7a2b8000dc73a47114d24359b82d92c732ca68d2ae266e2883fca789453d7d55ec1487219b51c5d31e62ac44c854c602b97f54191ed270bc1df219e04659de06685f8057b35fe3c91983a265d4bbf422449202c702ef277ae3f3420ab10eea28193d22df328821be72ef2334146785799b9b9a7c62ff2d2e53f4c644c71e82567962ca56621831d6101e6fe7e37a6dde6f81756aed9992c92f7eba1ff8714b71b5b67b09a7c153f504b7134c59ba9cd715e7940ba543d3e1241de98be2ddb009e2e205896696fd5e6015e9ad92d03a80258ef3191f1f48e1705bee3df301158855333c4617bbd19f43f633413db67b33b20715c2d7e3cc3e369b32940aba8906aeb63bffbcb1a188c12bf55e6849f5efdc86f042217dc2350abdf120a989b388032dd836580555ade65264e8f5c94169fbbfe73f637b85944ae0ab6ef5f29cb25bf6b6df45c613f8c2002c5d9e9c308dbcad3f315015c074e478380dbda0fca0360ddf39250e7823176b681f5dcb41c3fdf912a8fa0a374b7f436c7b41ed180154ce566f9ca9f0c832bf9d11eff5130e6a31390f3055a820c8d415272591e70b5b81470295ee11843c20452522d1d07d16b9ad1bcee860eecb408e33117a7b4a30217c6f81d3f4c7fd469f5409b447244f55ceadf95a05802220389d7c0a3e72da3351b5c5bc22ba8d3fa0b6a04b1c143926bad7e06cc9237cb10542ca55bb64a7a48b0cf3f75d36ec25786da6a825d3d4cd8a6c76a4f6b70a7c4d0c8f0953b2d00727477db6cd1ad08c2230c97dcbbd55fcdc69c23bef6d816611e5cd36b9ec8e4ac799d86108d81464eb87eb32f366900991a962bcb65bf79fc4fceef066a9dafb86b5fa59bd0297d7330d95ba6db1aca7a2d93c543243310da7509b935046ad1ac1b672dd503f24478dd41be9787ef911b56e6479a2aa39f4cd43cb3c0d37847ff2cd62fbf7bd876e36f0cb01f71fe2ef1f5302598dbcbe6b1f84e95f9d5b86857dfbb5787e109dc2971719463718c94acb682d49629840614b2ba95ea68f2bcef4de83477b4409b332dfb2268e02bc6957ec809e0b20422d0106063b43cf1c14e853bc3485e3493debb4444314fa9768ecb0aea4374e95f99620577f17d2dcbca36b2d645f607ad31a4482ef6c271d3620f8fc0a0be34e24301734f1522fb5c2df299573b5cc19e6502c669eced8c7b452ae947e855deddde958ec9c95823976609f7d78cc1aa2511f95694b11e6834c62b9d91355fb8eae0f442f44ac6a9b39f01b78300deb4426867b8a77e6372ffcebabd960ba0c935bd9f67823c076dede260ef6e7fada6dccd9268d5aad027be475b4d669d95fc918c399fb9cb460eef03601df4fcd3ac134a1c24a5552db7367c881ba2778abe1c84e64bdf6251aa3e6b0fbcae12d50d93d551346ef291bcaf7d31e2933cb729c98fd47ed037fda316dab5955b7405020638db24a050d515c1adf2973ac00fd74c02212f3461e1c9a186d0c0b205c3e2363e1d8a5e50dc0637f09fe11a85700c4b291d73bf58c8caa96b305fc0d87cf2705c3b41c1257785f51e40c9aefbeec32859c6933b214cfb3f658f27f4ae1e11c1d77898bce965afcbf7193b07644857eccf71b42bc0c85f736f7b05b816a2c23a4762f7a7289f0a5c3e0711a014e347f89aa5c4772a36ff415b623702928efb288580b7f56168725d6b4f40a756e652d4e8364d6297909d279ace5a9aa397013817ef822b5933d21cd3a0b1445fa6fdbe234b35d53061dc60eedb28b6f37e97deff02f9f84b3725838f132b498317278ed266e11bda7f3d77095ec5ae4d40bc4351b57b2511167557c5e2950d40b01bd1ffadcc7cc2b068dc2cde66374bf459fa08a8fc8de2913da045ea55d3802743d74fe55fd81dfa8570e9bf55b8df356175231955ff6b39a8b8e0393caad78677d816884e08b38d867b232007f6296eaeda8b9d7774111f496c94082b45da0a045f76b06a797a8a8b0ae20fcd6928e4c0fad49d6c43cf15fe68f53b80016ad544943d682fc783c48fcba65b1b6a3f053a981bcf0356e5dab178a90938f2a9709c1ae5055ef59fb358c970c5d20b9c6ed9da83e2ff8a810ec2343374d29040ea55a6d4a061bb274da5620ebb0692e9efe3a11369eb86bb06de6732e2eac236633215e7005b7d40147a9c3b5acd5df1f57c0f10f481978ea7f2da40a9dc41c72cf73dda3505d03623c78972ee3f50432b788905c47f1ae84f24457239228c623bdd3cf713f3dbb7516a92e2994244c72339a8f2a437eb218660d114149974577c850e9fa2b2fd5d6458b241eb6012d7f594fd6c0b81a4a5b8f34fae10607e99986c0d4fd1c4bb970bcc578b0002001b76fc4004a71518e1bada87438a8bd4e77a957b8018409f4172b0a85ae1899b17a4462a5df99206ccb1e21dab4854211f1f7b326deb7d52de5a9d0c7323790c5f7461e789b4bf85102e95c009d5e60ac093845fe089f23546aa452478274f7d999a3660801094447435f34afddb03fcb21589f0579d7ce3424155a3f507798e917f975af0310c74fde3c07cba6903d490796fea78486a9195f56b54267f8de8b201743d7a78e7837bf3d89c39b6b31fb910289ff4635c3ab728504fff9a20cb76c71d5a5bed09c83101be7ce4178346a3c4579e86b1c6519fe796ccaaacbdc2304c0d8610a14960e835ecbd613a0979c54078f56ba118b6a264b265a874e4b8041c59c327ce6dca18367f60ddd3adcd8ca6cc699b3708e17adb6fad9ece5d966cebd66d1aa0ad0463b96044ccd9137959bf104a894037576eeb40603514684b43ca4e98b12c217ee6edca13830634f16c20187356bcba115860e06bfc3f1fb1e76e5d415bb5714682e61e78d99d8e81f446fbd45b7c5e9f853b4948ee0c96c9f0fc187fdec622ab5737c9758bcdaada74d677cbfc3744cb1413d5ef3d36a12fe0de22c2c113fbf981b3c8c483b7ea30ced6444218789d489040a50b26a68e695e5bd1560c658be9993328fdc1f1de0fcd4b398371e81ec027e1568ea3d112f87aaee5014baee5d55f927ea0060e2380b0ec7d6d24c396e2f63e6c11eee0e45d9fd09fb2f18990a91b93e174eed0578a4186e80efe59b32fc83767a64e911df9bc368359d893d1f169f51b2654161c5c6b74a0b1dadfe10312192a81a8ccda051f20314d5866696e7988929a9ea7abbdbec1c8d5d8dfe5eaf4f90508181b26314e53636d949b9ca2a4c0d8e100000000000000000000000000000000000a122d3f01fd210500f3cb0593ffc02bc06d426e3c628e1c6ac52cc6b291a247d33100db047f5c122004c3be2ac70555dd9041d917c4fa33023de6836073a71a0347e1f61f86d5508f5f4d454a36b5b2fda8feff69fc872ca574a91d13179aa875f9d4025a53e43248e5ed53b29d4738f13f171bfa8a0cf3f65e57c99a1705bb8d1c3d15258f67449b48d7c23613a8ab72270e7afd992a50b867743368652d8efc7098c61d8df2b5e60d692a972764835c9333db019520e789773ea803275d5c7fd6ec5189aec3cd2c62e64156d1601a141cd4aa8c31ebc344da03d43781f4052ef64213660f111a7aeb4e302403e2456d667199146cd3436d7408ee61e5e4c1320f305edff01a530587cb6d3f19e62b9a9a418f5ac5f098df34706c26240d4bffd2ccef106af4666142af3a37a52fa7b82d99d883205d3af6011a7da5c5e36b9ea19eaf3c34deaa4deae3ca0f17c2cdc19f0ca80fc3c86f962687fdacf7dd179862005727eb1223d9da98313feb5e3177357dc909baf52bb6817c5dd13a944abe97598e0c63bfa75b781390a657ac4430130efbd25140591c4389e02c75bbd3c601dc6d591b84e5a6b8e3a3bc11de2ec62cdcf8e4ce9d52dcea643ff6cb69b952773b6f8f6cb6a0fb5b0b2fff2cc6d98f93fe321cf104124e62302e130d5c24bffc1f933a5d7f406f976c17e7d70dc14f84a9c3552fa5d249367f78eeb2d56f85fb13e1f2b8f516359e89469f80aceb268ce4046e3d73c9534d38818a82d6f6f986bed2e42c1f850e813c8f81774b1fe97f9ea6b23e35586bdd3501dafe476838b2d6d19f1904a83c21ed9c55e0ac9557241e9e9ec3ec9f52f8b89e6bf8d35f6b9d3a2d02566aee7e8eae91e6ef3e936ecdd5025613e780933cf9508fac6996a69b8b0099bc92f7fc5434ce5fa663cee64a6d82e6682dca98ca38fa6e3eaff7900c3b03790b834c28300f2ad5084c6042a3c7db2df627ddb16e4f6e85e5a2dbc70e61f1dcbc732d78f243f00e51d47d3016778284cfcdb84794b68829ab396f45b238a63fd3fa83c60e4ec155e86cc2a122d804065e85052455d79ce448e15e3243af9577e565478516c82af5508f44dab4738333f4be9bc6d0197d90cf58c2e6acfdf310757d84b940be5d6d7d19a03e112426b4193647d510ec20b6277b926db3e402cc399169fb4b8eb2a002e94b9818bb1ab736119adb5952a0df4011f800ad50b640509df3cb7302c87cf6f5539480c913ea9737b39efe13b8350a15a31d70acdba5c8da6c331410f6f6f7057fafa0cdb3d188956aaaeca5d7df58d50b89af3c97b227789c01e201425a754a356fcfd56fae608131eb540e4be2fcb27f6457bf84c99a524bfe61a196c0765ba7ea906c396cd1987d17567d0640d16ab42723c393690f688532790e000ce324c45ce4f07a5a47a92594b39e7ac759b9805163c10b3b29254e747a8873b0799b415aae0c848e58c6e44cec9190c5df525207b72631ed80365dfc4add6047fab44a6e0b2898d268e8cf0650c265727d8915ebbe6d32d1952921b3ebd2d7899112122c9815ad7f861b196196441e9cbd1db1a2c04d23a6102e47265d54b5b99c180d9b60ff8e3170c7693935ff61f72e987a7eb036e1e45c6b753d728f8d5965dceb6a58926c6a2b7cc8a22fbfc6b3dd32daf1d233ba207c635727ec17db3759e1926d04666d58862b27ccd9e3e78e8a31e5be2187757e012f537e539dd1fa1b35488bfa2173b7088f72b2f0d25a092d5fc9a7de31225b2a9b83f5fd462f4429b3acb2cbb2f7f4423d653467849418730cd552a8e6b2c1d5518d73bff42ee3e74abe369413c4cc6fe576e28fc3b0fc5edb898b359f7f6f6610408c71000000",
  "txid": "25ae99b15642e1a969fdbffb1e91d10657547e5667f4484249c4a8c5662d2913",
  "hash": "ff6970caf27eb41e56d1da39b461b63e6a27e29b56503e6ec7067599214de383",
  "size": 5085,
  "vsize": 2278,
  "version": 1,
  "locktime": 113,
  "vin": [
    {
      "txid": "6076f9b324f0853ff7bb95f62ca5a27019a43f478bc55f8ce3532b6704112335",
      "vout": 1,
      "scriptSig": {
        "asm": "",
        "hex": ""
      },
      "txinwitness": [
        "c308ba63ad57e5cea030b8509d5139d48f4e74c7887a0361f7fe82e0b1bdec0b9d20f8f00b6052d4a5b6f0c6e055d9635a74f8e9a4456dffd028ca4a893452248ec826b0fee2ac153b9eed8701a5a60e3c40ab1fa296adc89bba6f35cf1ce9997b6a5c21f2014cf146ca8f1aa4d7a2b8000dc73a47114d24359b82d92c732ca68d2ae266e2883fca789453d7d55ec1487219b51c5d31e62ac44c854c602b97f54191ed270bc1df219e04659de06685f8057b35fe3c91983a265d4bbf422449202c702ef277ae3f3420ab10eea28193d22df328821be72ef2334146785799b9b9a7c62ff2d2e53f4c644c71e82567962ca56621831d6101e6fe7e37a6dde6f81756aed9992c92f7eba1ff8714b71b5b67b09a7c153f504b7134c59ba9cd715e7940ba543d3e1241de98be2ddb009e2e205896696fd5e6015e9ad92d03a80258ef3191f1f48e1705bee3df301158855333c4617bbd19f43f633413db67b33b20715c2d7e3cc3e369b32940aba8906aeb63bffbcb1a188c12bf55e6849f5efdc86f042217dc2350abdf120a989b388032dd836580555ade65264e8f5c94169fbbfe73f637b85944ae0ab6ef5f29cb25bf6b6df45c613f8c2002c5d9e9c308dbcad3f315015c074e478380dbda0fca0360ddf39250e7823176b681f5dcb41c3fdf912a8fa0a374b7f436c7b41ed180154ce566f9ca9f0c832bf9d11eff5130e6a31390f3055a820c8d415272591e70b5b81470295ee11843c20452522d1d07d16b9ad1bcee860eecb408e33117a7b4a30217c6f81d3f4c7fd469f5409b447244f55ceadf95a05802220389d7c0a3e72da3351b5c5bc22ba8d3fa0b6a04b1c143926bad7e06cc9237cb10542ca55bb64a7a48b0cf3f75d36ec25786da6a825d3d4cd8a6c76a4f6b70a7c4d0c8f0953b2d00727477db6cd1ad08c2230c97dcbbd55fcdc69c23bef6d816611e5cd36b9ec8e4ac799d86108d81464eb87eb32f366900991a962bcb65bf79fc4fceef066a9dafb86b5fa59bd0297d7330d95ba6db1aca7a2d93c543243310da7509b935046ad1ac1b672dd503f24478dd41be9787ef911b56e6479a2aa39f4cd43cb3c0d37847ff2cd62fbf7bd876e36f0cb01f71fe2ef1f5302598dbcbe6b1f84e95f9d5b86857dfbb5787e109dc2971719463718c94acb682d49629840614b2ba95ea68f2bcef4de83477b4409b332dfb2268e02bc6957ec809e0b20422d0106063b43cf1c14e853bc3485e3493debb4444314fa9768ecb0aea4374e95f99620577f17d2dcbca36b2d645f607ad31a4482ef6c271d3620f8fc0a0be34e24301734f1522fb5c2df299573b5cc19e6502c669eced8c7b452ae947e855deddde958ec9c95823976609f7d78cc1aa2511f95694b11e6834c62b9d91355fb8eae0f442f44ac6a9b39f01b78300deb4426867b8a77e6372ffcebabd960ba0c935bd9f67823c076dede260ef6e7fada6dccd9268d5aad027be475b4d669d95fc918c399fb9cb460eef03601df4fcd3ac134a1c24a5552db7367c881ba2778abe1c84e64bdf6251aa3e6b0fbcae12d50d93d551346ef291bcaf7d31e2933cb729c98fd47ed037fda316dab5955b7405020638db24a050d515c1adf2973ac00fd74c02212f3461e1c9a186d0c0b205c3e2363e1d8a5e50dc0637f09fe11a85700c4b291d73bf58c8caa96b305fc0d87cf2705c3b41c1257785f51e40c9aefbeec32859c6933b214cfb3f658f27f4ae1e11c1d77898bce965afcbf7193b07644857eccf71b42bc0c85f736f7b05b816a2c23a4762f7a7289f0a5c3e0711a014e347f89aa5c4772a36ff415b623702928efb288580b7f56168725d6b4f40a756e652d4e8364d6297909d279ace5a9aa397013817ef822b5933d21cd3a0b1445fa6fdbe234b35d53061dc60eedb28b6f37e97deff02f9f84b3725838f132b498317278ed266e11bda7f3d77095ec5ae4d40bc4351b57b2511167557c5e2950d40b01bd1ffadcc7cc2b068dc2cde66374bf459fa08a8fc8de2913da045ea55d3802743d74fe55fd81dfa8570e9bf55b8df356175231955ff6b39a8b8e0393caad78677d816884e08b38d867b232007f6296eaeda8b9d7774111f496c94082b45da0a045f76b06a797a8a8b0ae20fcd6928e4c0fad49d6c43cf15fe68f53b80016ad544943d682fc783c48fcba65b1b6a3f053a981bcf0356e5dab178a90938f2a9709c1ae5055ef59fb358c970c5d20b9c6ed9da83e2ff8a810ec2343374d29040ea55a6d4a061bb274da5620ebb0692e9efe3a11369eb86bb06de6732e2eac236633215e7005b7d40147a9c3b5acd5df1f57c0f10f481978ea7f2da40a9dc41c72cf73dda3505d03623c78972ee3f50432b788905c47f1ae84f24457239228c623bdd3cf713f3dbb7516a92e2994244c72339a8f2a437eb218660d114149974577c850e9fa2b2fd5d6458b241eb6012d7f594fd6c0b81a4a5b8f34fae10607e99986c0d4fd1c4bb970bcc578b0002001b76fc4004a71518e1bada87438a8bd4e77a957b8018409f4172b0a85ae1899b17a4462a5df99206ccb1e21dab4854211f1f7b326deb7d52de5a9d0c7323790c5f7461e789b4bf85102e95c009d5e60ac093845fe089f23546aa452478274f7d999a3660801094447435f34afddb03fcb21589f0579d7ce3424155a3f507798e917f975af0310c74fde3c07cba6903d490796fea78486a9195f56b54267f8de8b201743d7a78e7837bf3d89c39b6b31fb910289ff4635c3ab728504fff9a20cb76c71d5a5bed09c83101be7ce4178346a3c4579e86b1c6519fe796ccaaacbdc2304c0d8610a14960e835ecbd613a0979c54078f56ba118b6a264b265a874e4b8041c59c327ce6dca18367f60ddd3adcd8ca6cc699b3708e17adb6fad9ece5d966cebd66d1aa0ad0463b96044ccd9137959bf104a894037576eeb40603514684b43ca4e98b12c217ee6edca13830634f16c20187356bcba115860e06bfc3f1fb1e76e5d415bb5714682e61e78d99d8e81f446fbd45b7c5e9f853b4948ee0c96c9f0fc187fdec622ab5737c9758bcdaada74d677cbfc3744cb1413d5ef3d36a12fe0de22c2c113fbf981b3c8c483b7ea30ced6444218789d489040a50b26a68e695e5bd1560c658be9993328fdc1f1de0fcd4b398371e81ec027e1568ea3d112f87aaee5014baee5d55f927ea0060e2380b0ec7d6d24c396e2f63e6c11eee0e45d9fd09fb2f18990a91b93e174eed0578a4186e80efe59b32fc83767a64e911df9bc368359d893d1f169f51b2654161c5c6b74a0b1dadfe10312192a81a8ccda051f20314d5866696e7988929a9ea7abbdbec1c8d5d8dfe5eaf4f90508181b26314e53636d949b9ca2a4c0d8e100000000000000000000000000000000000a122d3f01",
        "00f3cb0593ffc02bc06d426e3c628e1c6ac52cc6b291a247d33100db047f5c122004c3be2ac70555dd9041d917c4fa33023de6836073a71a0347e1f61f86d5508f5f4d454a36b5b2fda8feff69fc872ca574a91d13179aa875f9d4025a53e43248e5ed53b29d4738f13f171bfa8a0cf3f65e57c99a1705bb8d1c3d15258f67449b48d7c23613a8ab72270e7afd992a50b867743368652d8efc7098c61d8df2b5e60d692a972764835c9333db019520e789773ea803275d5c7fd6ec5189aec3cd2c62e64156d1601a141cd4aa8c31ebc344da03d43781f4052ef64213660f111a7aeb4e302403e2456d667199146cd3436d7408ee61e5e4c1320f305edff01a530587cb6d3f19e62b9a9a418f5ac5f098df34706c26240d4bffd2ccef106af4666142af3a37a52fa7b82d99d883205d3af6011a7da5c5e36b9ea19eaf3c34deaa4deae3ca0f17c2cdc19f0ca80fc3c86f962687fdacf7dd179862005727eb1223d9da98313feb5e3177357dc909baf52bb6817c5dd13a944abe97598e0c63bfa75b781390a657ac4430130efbd25140591c4389e02c75bbd3c601dc6d591b84e5a6b8e3a3bc11de2ec62cdcf8e4ce9d52dcea643ff6cb69b952773b6f8f6cb6a0fb5b0b2fff2cc6d98f93fe321cf104124e62302e130d5c24bffc1f933a5d7f406f976c17e7d70dc14f84a9c3552fa5d249367f78eeb2d56f85fb13e1f2b8f516359e89469f80aceb268ce4046e3d73c9534d38818a82d6f6f986bed2e42c1f850e813c8f81774b1fe97f9ea6b23e35586bdd3501dafe476838b2d6d19f1904a83c21ed9c55e0ac9557241e9e9ec3ec9f52f8b89e6bf8d35f6b9d3a2d02566aee7e8eae91e6ef3e936ecdd5025613e780933cf9508fac6996a69b8b0099bc92f7fc5434ce5fa663cee64a6d82e6682dca98ca38fa6e3eaff7900c3b03790b834c28300f2ad5084c6042a3c7db2df627ddb16e4f6e85e5a2dbc70e61f1dcbc732d78f243f00e51d47d3016778284cfcdb84794b68829ab396f45b238a63fd3fa83c60e4ec155e86cc2a122d804065e85052455d79ce448e15e3243af9577e565478516c82af5508f44dab4738333f4be9bc6d0197d90cf58c2e6acfdf310757d84b940be5d6d7d19a03e112426b4193647d510ec20b6277b926db3e402cc399169fb4b8eb2a002e94b9818bb1ab736119adb5952a0df4011f800ad50b640509df3cb7302c87cf6f5539480c913ea9737b39efe13b8350a15a31d70acdba5c8da6c331410f6f6f7057fafa0cdb3d188956aaaeca5d7df58d50b89af3c97b227789c01e201425a754a356fcfd56fae608131eb540e4be2fcb27f6457bf84c99a524bfe61a196c0765ba7ea906c396cd1987d17567d0640d16ab42723c393690f688532790e000ce324c45ce4f07a5a47a92594b39e7ac759b9805163c10b3b29254e747a8873b0799b415aae0c848e58c6e44cec9190c5df525207b72631ed80365dfc4add6047fab44a6e0b2898d268e8cf0650c265727d8915ebbe6d32d1952921b3ebd2d7899112122c9815ad7f861b196196441e9cbd1db1a2c04d23a6102e47265d54b5b99c180d9b60ff8e3170c7693935ff61f72e987a7eb036e1e45c6b753d728f8d5965dceb6a58926c6a2b7cc8a22fbfc6b3dd32daf1d233ba207c635727ec17db3759e1926d04666d58862b27ccd9e3e78e8a31e5be2187757e012f537e539dd1fa1b35488bfa2173b7088f72b2f0d25a092d5fc9a7de31225b2a9b83f5fd462f4429b3acb2cbb2f7f4423d653467849418730cd552a8e6b2c1d5518d73bff42ee3e74abe369413c4cc6fe576e28fc3b0fc5edb898b359f7f6f6610408c"
      ],
      "sequence": 4294967294
    }
  ],
  "vout": [
    {
      "value": 499984.7465,
      "n": 0,
      "scriptPubKey": {
        "asm": "1 121af7f7b136b2dfb28eb9fe8b60d8a75ecb7b2a8909cd212db646435c5f638f",
        "hex": "5120121af7f7b136b2dfb28eb9fe8b60d8a75ecb7b2a8909cd212db646435c5f638f",
        "reqSigs": 1,
        "type": "witness_v1_scripthash",
        "addresses": [
          "3QJmnh"
        ]
      }
    },
    {
      "value": 1.0,
      "n": 1,
      "scriptPubKey": {
        "asm": "OP_RETURN 8b2ae0318cbc80db397fdb846a7d9e5f37011dd232cef6ab08babab866de0bdd 1765d84644de4f4ef3dec16157f1a6c82446c1003ce64191e7cf8fb49324a3c53745f86664fe6f6ed3fee14177d186e80466e1201cc661b1c7efaf94b30483e557259806049e0f0eb39e812117b1e688640681407ca601d1a78fcff4d364e3857705b82624be2f2e93bea1013791c6a84426a1605c8621f187afefd4f344c3a597e558c6c45ecfce735e41e1d7712648a4c64180bc66c111674f0f3413a42345b7c578e6e47eefee537e61c1f751066884e661a09c46e131476f2f1433840365d7a51886841e8f8e331e01a197316608e48601c0fc268151270f4f7453e46305f78538a6a43eafae133e2181b7114628c4a621e0dc06a171072f6f5473c443251765d84644de4f4ef3dec16157f1a6c82446c1003ce64191e7cf8fb49324a3c53745f86664fe6f6ed3fee14177d186e80466e1201cc661b1c7efaf94b30483e557259806049e0f0eb39e812117b1e688640681407ca601d1a78fcff4d364e3857705b82624be2f2e93bea1013791c6a84426a1605c8621f187afefd4f344c3a597e558c6c45ecfce735e41e1d7712648a4c64180bc66c111674f0f3413a42345b7c578e6e47eefee537e61c1f751066884e661a09c46e131476f2f1433840365d7a51886841e8f8e331e01a197316608e48601c0fc268151270f4f7453e46305f78538a6a43eafae133e2181b7114628c4a621e0dc06a171072f6f5473c443251765d84644de4f4ef3dec16157f1a6c82446c1003ce64191e7cf8fb49324a3c53745f86664fe6f6ed3fee14177d186e80466e1201cc661b1c7efaf94b30483e557259806049e0f0eb39e812117b1e688640681407ca601d1a78fcff4d364e3857705b82624be2f2e93bea1013791c6a84426a1605c8621f187afefd4f344c3a597e558c6c45ecfce735e41e1d7712648a4c64180bc66c111674f0f3413a42345b7c578e6e47eefee537e61c1f751066884e661a09c46e131476f2f1433840365d7a51886841e8f8e331e01a197316608e48601c0fc268151270f4f7453e46305f78538a6a43eafae133e2181b7114628c4a621e0dc06a171072f6f5473c443251765d84644de4f4ef3dec16157f1a6c82446c1003ce64191e7cf8fb49324a3c53745f86664fe6f6ed3fee14177d186e80466e1201cc661b1c7efaf94b30483e557259806049e0f0eb39e812117b1e688640681407ca601d1a78fcff4d364e3857705b82624be2f2e93bea1013791c6a84426a1605c8621f187afefd4f344c3a597e558c6c45ecfce735e41e1d7712648a4c64180bc66c111674f0f3413a42345b7c578e6e47eefee537e61c1f751066884e661a09c46e131476f2f1433840365d7a51886841e8f8e331e01a197316608e48601c0fc268151270f4f7453e46305f78538a6a43eafae133e2181b7114628c4a621e0dc06a171072f6f5473c443251765d84644de4f4ef3dec16157f1a6c82446c1003ce64191e7cf8fb49324a3c53745f86664fe6f6ed3fee14177d186e80466e1201cc661b1c7efaf94b30483e557259806049e0f0eb39e812117b1e688640681407ca601d1a78fcff4d364e3857705b82624be2f2e93bea1013791c6a84426a1605c8621f187afefd4f344c3a597e558c6c45ecfce735e41e1d77126484c413be060627d4885cdf9b54d29dd43e8533c5d5d074d7f8b67468c3ea8e68b",
        "hex": "6a208b2ae0318cbc80db397fdb846a7d9e5f37011dd232cef6ab08babab866de0bdd4db0041765d84644de4f4ef3dec16157f1a6c82446c1003ce64191e7cf8fb49324a3c53745f86664fe6f6ed3fee14177d186e80466e1201cc661b1c7efaf94b30483e557259806049e0f0eb39e812117b1e688640681407ca601d1a78fcff4d364e3857705b82624be2f2e93bea1013791c6a84426a1605c8621f187afefd4f344c3a597e558c6c45ecfce735e41e1d7712648a4c64180bc66c111674f0f3413a42345b7c578e6e47eefee537e61c1f751066884e661a09c46e131476f2f1433840365d7a51886841e8f8e331e01a197316608e48601c0fc268151270f4f7453e46305f78538a6a43eafae133e2181b7114628c4a621e0dc06a171072f6f5473c443251765d84644de4f4ef3dec16157f1a6c82446c1003ce64191e7cf8fb49324a3c53745f86664fe6f6ed3fee14177d186e80466e1201cc661b1c7efaf94b30483e557259806049e0f0eb39e812117b1e688640681407ca601d1a78fcff4d364e3857705b82624be2f2e93bea1013791c6a84426a1605c8621f187afefd4f344c3a597e558c6c45ecfce735e41e1d7712648a4c64180bc66c111674f0f3413a42345b7c578e6e47eefee537e61c1f751066884e661a09c46e131476f2f1433840365d7a51886841e8f8e331e01a197316608e48601c0fc268151270f4f7453e46305f78538a6a43eafae133e2181b7114628c4a621e0dc06a171072f6f5473c443251765d84644de4f4ef3dec16157f1a6c82446c1003ce64191e7cf8fb49324a3c53745f86664fe6f6ed3fee14177d186e80466e1201cc661b1c7efaf94b30483e557259806049e0f0eb39e812117b1e688640681407ca601d1a78fcff4d364e3857705b82624be2f2e93bea1013791c6a84426a1605c8621f187afefd4f344c3a597e558c6c45ecfce735e41e1d7712648a4c64180bc66c111674f0f3413a42345b7c578e6e47eefee537e61c1f751066884e661a09c46e131476f2f1433840365d7a51886841e8f8e331e01a197316608e48601c0fc268151270f4f7453e46305f78538a6a43eafae133e2181b7114628c4a621e0dc06a171072f6f5473c443251765d84644de4f4ef3dec16157f1a6c82446c1003ce64191e7cf8fb49324a3c53745f86664fe6f6ed3fee14177d186e80466e1201cc661b1c7efaf94b30483e557259806049e0f0eb39e812117b1e688640681407ca601d1a78fcff4d364e3857705b82624be2f2e93bea1013791c6a84426a1605c8621f187afefd4f344c3a597e558c6c45ecfce735e41e1d7712648a4c64180bc66c111674f0f3413a42345b7c578e6e47eefee537e61c1f751066884e661a09c46e131476f2f1433840365d7a51886841e8f8e331e01a197316608e48601c0fc268151270f4f7453e46305f78538a6a43eafae133e2181b7114628c4a621e0dc06a171072f6f5473c443251765d84644de4f4ef3dec16157f1a6c82446c1003ce64191e7cf8fb49324a3c53745f86664fe6f6ed3fee14177d186e80466e1201cc661b1c7efaf94b30483e557259806049e0f0eb39e812117b1e688640681407ca601d1a78fcff4d364e3857705b82624be2f2e93bea1013791c6a84426a1605c8621f187afefd4f344c3a597e558c6c45ecfce735e41e1d77126484c413be060627d4885cdf9b54d29dd43e8533c5d5d074d7f8b67468c3ea8e68b",
        "type": "nulldata"
      }
    }
  ],
  "blockhash": "d7a7b9a6fa9b7eeca4ed3b292cd4c21f070551bfab2aaeca0619c41458c07723",
  "confirmations": 1,
  "time": 1764178593,
  "blocktime": 1764178593
}