{
  "hex": "01000000000101907c5c1439812bd4d4f11d76b48f3315b471d63aa11378c264f4914b42dec51b0000000000feffffff02e021231b792d0000225120f542946e0753affbc7b7158ca047604d912ca5f037e2248860f88134702ca7dc00e1f50500000000fdd5046a202de42a33cfe37a9cc93047b05bc3eaa6038324ff8f9d217a89e7c677d19c200e4db00448ff3939ea57b540b2902047a1509b8b3f784f863a29d54821bffc254cbb09cb68df1919ca77956092b000678170bbab1f586fa61a09f568019fdc056c9b29eb08bf7979aa17f500f2d06007e110dbcb7f380fc67a69950861ffbc650cfb498b289f59598a37d520d2f04027c130fbeb5f182fe65a49b52841df9c452cdb69abc87fb9b96ad735c03210a0c721d01b0bbff8cf06baa955c8a13f7ca5cc3b894be85f99994af715e0123080e701f03b2b9fd8ef269a8975e8811f5c85ec1ba96b883ff9f92a9775807250e08761905b4bffb88f46fae91588e17f3ce58c7bc90ba81fd9d90ab755a05270c0a741b07b6bdf98af66dac935a8c15f1cc5ac5be92b48ff3939ea57b540b2902047a1509b8b3f784f863a29d54821bffc254cbb09cb68df1919ca77956092b000678170bbab1f586fa61a09f568019fdc056c9b29eb08bf7979aa17f500f2d06007e110dbcb7f380fc67a69950861ffbc650cfb498b289f59598a37d520d2f04027c130fbeb5f182fe65a49b52841df9c452cdb69abc87fb9b96ad735c03210a0c721d01b0bbff8cf06baa955c8a13f7ca5cc3b894be85f99994af715e0123080e701f03b2b9fd8ef269a8975e8811f5c85ec1ba96b883ff9f92a9775807250e08761905b4bffb88f46fae91588e17f3ce58c7bc90ba81fd9d90ab755a05270c0a741b07b6bdf98af66dac935a8c15f1cc5ac5be92b48ff3939ea57b540b2902047a1509b8b3f784f863a29d54821bffc254cbb09cb68df1919ca77956092b000678170bbab1f586fa61a09f568019fdc056c9b29eb08bf7979aa17f500f2d06007e110dbcb7f380fc67a69950861ffbc650cfb498b289f59598a37d520d2f04027c130fbeb5f182fe65a49b52841df9c452cdb69abc87fb9b96ad735c03210a0c721d01b0bbff8cf06baa955c8a13f7ca5cc3b894be85f99994af715e0123080e701f03b2b9fd8ef269a8975e8811f5c85ec1ba96b883ff9f92a9775807250e08761905b4bffb88f46fae91588e17f3ce58c7bc90ba81fd9d90ab755a05270c0a741b07b6bdf98af66dac935a8c15f1cc5ac5be92b48ff3939ea57b540b2902047a1509b8b3f784f863a29d54821bffc254cbb09cb68df1919ca77956092b000678170bbab1f586fa61a09f568019fdc056c9b29eb08bf7979aa17f500f2d06007e110dbcb7f380fc67a69950861ffbc650cfb498b289f59598a37d520d2f04027c130fbeb5f182fe65a49b52841df9c452cdb69abc87fb9b96ad735c03210a0c721d01b0bbff8cf06baa955c8a13f7ca5cc3b894be85f99994af715e0123080e701f03b2b9fd8ef269a8975e8811f5c85ec1ba96b883ff9f92a9775807250e08761905b4bffb88f46fae91588e17f3ce58c7bc90ba81fd9d90ab755a05270c0a741b07b6bdf98af66dac935a8c15f1cc5ac5be92b48ff3939ea57b540b2902047a1509b8b3f784f863a29d54821bffc254cbb09cb68df1919ca77956092b000678170bbab1f586fa61a09f568019fdc056c9b29eb08bf7979aa17f500f2d06007e110dbcb7f380fc67a69950861ffbc650cfb498b289f59598a37d520d2f04027c130fbeb5f182fe65a49b52841df9c452cdb69abc87fb9b96ad735c03210a0c721d01b0b78c447ec2fc757d84fd4bfc9d2cdd0e835241b58a5880c0b8fb21abec296f57b02fd750991d91b9933dbd9439e23308dfc321890a9a0e6c2e82edeec66f401af9f93ccbf0276149a5153f4ea14efadf6f1073b3b17fadc5875a3c58a0e6e961e87f6597d5f584124a6d57372d226874463470425a8f3a093065d76beb289fee17556ba20dd6ce87821fb2a30865e3ac390d30e16089e42b087d3d8cfdda7ec87adf283a42757f46bf7d707be15b29a317e2fb9f388aaa0a1efb05089fdc27cffa1fcc0ddabe7946a7ae94145d8c182650c5a3f89b928526d0d0fe8ec61ac057446109d2dd05dfed92dc3ccca62e3b188ccdce065a84933cac58919cac315591d61d974a9e887291f70b475cf00fe5ebf037d2408ac725ce1b2db6e9bb14e7bbf70d4dc750edf169caac2a106372e617f4eedb6b06717a5de5a77abb6886c3e8ca1c2953fbfcbaa4cbd2f931b9f141971aab2d1b28991cdb9738a4389b7a1ec8a2dc8da82230fbdcf48e22dad874d8f8bcb3d7449831162a68ee5c183f8d9689439637bfad84513101351b790eabd4b6a7d8e9bc4e1b987d186da9e8e39a3fc90a2ed17a088f3e7f741f3a1a4dda8058768254234375ba152463224c8f85f29f22876b6b1fc6beb1e28892c82a9325206d906b479aad96fb5152fda88306fca160cc7ffce4e914e147a5c3940ca5ec203f7754d800cc3af7e88bf0436746edf31eab35dfbd4708643e8c00f77e27122544c2cbe1fa0e166831e43fe0adbc9ae77f5f8b0fd79a35823beb55d64871f318473d159d689575950d46a9a8e55e607a11c8df5a0f5dffc6d2baaa644bc0bea9b0bb6fe768ff2ca2ee68ab1a6acb76fd417154bbb9a04c13bfccbde039a7fadc5a7c1412aca9cc7670f65fe224c5ab07af67704402f28adf7311eb6ec9f9cad82bfde6ebf8367b02984f124f43551e73ef47e85c363318d92e728b187953be2f5cfa9cfc109e33e504de8f2268cd1d58be3aba0b644a2ac10827ce8985bc286790ec5cb26601fcd8024cfd8ede3bc32e892e12c8f01336e962295bbdf32d342c836a443d69cef3c62b91ebad8763c2171b1fae9686cac04039ccd24cfc977ba8aa1de8b1e84571ffe88a41e7423c2dcd548c8108bfbd589342a6860e67449c481296b22954b5795d459af4228e56ba7553aedce010fbc6d72b841a06148a190ed14dd00f70f20a8e9a89fb29f06b54c82591e3defd046acf90a5a59ebb4329c6c13a7007637794a72ab9e5a53467008260c44f9d346401c6c9515c5e9fa65380922598def6ba3fdde3acfd49df29bfa0b2b98c47e84fbd4c1f65345dc5a0c1660ea5931442cfcde6ba3dc5b9824bf30601efe47fe430cbc07e7a2301c8e15f942037d6c42e50053214c684e990d3f890b28801c5f9b83873317cf24d72ddfc7971c2aef426a6e2e3768b517d5ca6a51fa5a71c2a59e674a2e2d8b191f6294f8f6f0da9323f0e4e93fa4cfd0c120e2ed8c896fd81a374f268ccd887b488d7709d51190052949499af335877b4e62cd80090a4c36a4f41e294fc1c5d6076730ace32405854aa7f9c4e9457ab3a212d3635f812347010d1b7a3ca15ac5b6956b79a1f7f1d6b93e9c8f8692d96b5bb5976e614c569abea246733d532c92cd91b40b4d07c872c53b5a8d453b833bfe91d7710afd56132b11580268ede766013274468ffd9dcfeb5e4648c594067818e5ef47aa751065279b40379c6cde3b7fe2ba44bb2fc3bdf7c4f33b97e1e5a8d4713482e520256030f651cb498dc52c9929d5d80fa230667b00098caa77fc170471d025706ad70cee71ebf12deb14a0840823586ede6bf2ac8f86bc59eafaaaa87416ead6660e43c4a28c0294eafb3197a8aed68dc2cb2b92e9d5ed2ffeb53acd3a70e25b76e41eb10f08855e4c98eaaea11dabd7fb41e7ce6b8f15124b490bad7f5bb42725081d4403d99eb2eb31df109549021feae2e48f2554645c048d2baf4620b86b42d291f8f26419409ea706f9f23d5607f8a52f7a817b0524c904312b44568147e668a63e151f2da1372c288f60138a5df16f01707b42c5ec62d67537b2200acd764e3d93dab64c7d8b11df106a33794de2e7f614a49e30812e8ea1acc5caeb3508c658455de3c34e3ac42443b89a7685a46fdd3edca7e66162b08bc2028a863f4276b0988200a2d1dd94070cb0900eea81bf10ec9b95418c67fcd7db99032c233fb3210a61cdc7732b3ce9cfc42c92026648ae4702457e19806483f1b565b0b8ff205fff9262881778329c58bf6a7ba1e2987d6a72d0f3f05125093e9205822c2d65fde8c67f0e680160e3559a834aeac5b072d08bacaea6469a9b2b7511fd625c583ac426968ed2eb196770cb03e204e1caa45ce34006b24161ab2b9a5d13c093ad0866b6d69dc16be4af4c68310720c94605581a2c84ac1fb90bd3663d4b792d7e3587ab8029c198167fa6c17cc092708a1dd05414c277e6a426d9497dca66e40a2d69c1c6bcfcd4fd1d84806ed9ffd3e44cfe3f1922f180bfe4edc90602a88c908b6c65a602eaaf5d0fb3ad1af8a33b17592c56b910a2abcd2e244d8eb39e50e761a2deb1c256e9ef494641b900499d179cf6dac04ac801eb5f912f74c1cb4e438aa9c30bd76ae3ec7322e76520e9bcac5ddfa52ba87a3e9ce08b8cc6e414e1eba9836a0a237d14338ac6555a5fd909241193793c4b14d79154f5eefb13b9c93d3b624b17a9f67c9e601ae669d7a744701e2b6f8c7d4e1962da547047e91ff754eeba301040c6d0c970bef8d19de1288afc6f95c5c278b23e17c7cd3c1554e10da3fcee1b05295b84dc413e21bb8774197a5c3ccd7014a4470514c01b45ed2a65a575b7f796bfb2484bcbf85f4c6db9d0cbbfe047f93a5891e0f69935ef787d109fff5d1721fa35977289879d23876ab40ed3c5fb7e48818831c2bd8879946ea10dca8f0c42a996c6683aaca216f599da6e9fb9ecc7b135b2a6b2006e9fe8312254c3c357af7f49ad523d6fd5f008a8ea503633907f6a1363a017734e7760ac3b4c31d6241af76fc3eaa1a13e1ac2aa683d22313f567178e52d7c1c3ed079a669601788b7fa55cd0fe2d4c29306da0ff1618a418de4982f45e09a09914a16b1a3f6835007c967d7ca1d50e91f6891daca1fb318971328efb5e3cccead9f7efdf167a5a898741a209fbe2e279e1576669579ed10f55361e525d07a44614b87febcd1fcefd721eff2b72740edec93c43d67da6a2dc3ab3251b89aaef2303c267e400cc719f3eb587bf6c7a571deaa35375a1cd2966689b690c052aadc93a1298565136f106cf5b52abebb8f55743ce64ee2ebf3e044825433741ec2ea0b2a62b1ee476d0a14205d76868db7bcc0ce060a162124272e34394089a1adb8bbc4c6effd1636495a5c5f7a8a9aa8b2c0c6c7e7eef1034d686a7277858e95989a9db6d3f20000000000000000000000000000000000000b1e2f3e01fd2105008051e160fc2ba6541b85d46100b9ae675c6170e854ce8009c9131c899f195749a8c8f07a65d77645ac9b5744605adf4e530057bf1e6f6807c6f17ce17152aef4bbe7907d668f96a7e3ca2dc6b93d7c46a1e7ee55445eab666b8d6af93e79b6c345d9255b3714be87adeb9a895de584fb97e063486dcfed277dd9333fd9aa9fcc86dbb1b8d391dda771f6a95fa12df18b62bb9d06b012e136f82a2bbf0e3d23d8c88c4f80c1d10ed5f874865505ed16fba96282e9634df31adb0214a12df787dd75bae1397b0a28bdbc42cea5b955a95cc1e0b015fa05601faccb5f6b49c68e98ca029b63caadaa33e3b44f3959f606b0e4ad4ab097bb6261a90545b1a75f7add6ca9f2e6d794117609bc7a3b744bb44388c2e807ee960dc008e386f1d5dab5251b113d6f85ec0696ec1914c3d7de83aa140a44678fc499b31ee6e3c53c192bb9da381dc62fa16eb62dff5bc3c355345758dfdd76f1b8d9ed66a848c4e94a89931738666fec207d0c8778c24277120992f76484194f1a23ed6620270b36bbefc32d6c6201fa8caa865393717051b385a0505b57d734f7c2d26f209a9e8aad47c7b58f94a6bb9efb93139a9e247fb7807779ab210e057c434bd69465e3021373c798d0f02b3f4ae1dbcf42de4034ac3a57e7ee034436fa896ee97e5985563cfaf7b8e057656dc47e7b5f538bbf030bfeb475e12c384208fac945050cfa5f037faeee550577b103e0832a7c0b9c32f18d94cac9ec8ab4ca61e39453570b567fad561175ba004c7d2af17341c0002aaf011bde20f082069e9b016cf40d13a8badfb87a3eb8ca95cc94f3276f393309bb7ea2f1517b8810c90b8e9f32ae78aa4a29085a0a3c188237650b75b66c773e9412e4daecf319c7da1c8db40e685a88b9995bad097032ffae5017834ebe33007f5d6e4f17916299b6e624338560b5a4cf0c0c164d468e4b2ac2fa327b68674abb225b024dd0a44b356d945fd71fbb8be109c613acd395999ecd5f272de49432d14a629ffa64cf4259c80bd8727865c81123af3628edb53ed518a816bafeb3787567eca0550ccd92571e11922d69b715304e7d67bf2c7457f5b216099425c227ad14e28ff81b812665b7e23e14fb7dc4004f68e968b05489dbd6c030b152a3b06cd0408358aec5d680ce0612eae4c9b4a6d7bf85a85e900dad70ca90ad435cd5bdd4f155632f391938db60ba2cd0dd5cc6bd712da6574f74a54676437587b7ed1bee09840af138765f3ffe1309aaea4350b631455d0c434e9c0b5b2793da921a649a51293d99e7eee48e0294f196fb9ceff8576d2538e18dfddcf0a228c4a1f079c46f9f387cda7a99aa9595cc652de8e679babad0d73a998f669770f903060d126965a799675953af3989f32d6221a4326871e067a728ce8be5ecfd2f0a7116e8b831ee69f74aed372d2465a002486d8d615a251f93762804a98b4eb5357d4d8328b510b430b917519572eb148540eac599a2c4b5fece8aa97f92a458d4baa81f587a01757b172ad740efe296d89811d224d66dc78332768f8cedc880d58a8ec55cb6dc38739a1831440a9ed10326b1f08543bfe30062d7e77ab65f2938908f9c967d6d32b487846c246f8d597215c664a10c51a3158b7c7d487ca11be27f3272f733cbad03eaad17f184603fa30858b220aff1d048aa7ac8b2426d78936138b70e20d520c601769da8edccbc8b9c32a82287b71a4a2950cdfbde8c2af00e44dfc4a4b6532c074c57dc84bc0a4ec68b6fed817cb47128452b6ae40400f369ebf7ca8eb9efd36c177494e82133a9badd413d7f74f022f24c8eb5b0fcd3e298761adf1a78b979a9ea2df511b1cc0752c8e1432174000000",
  "txid": "2a842a4d2162192028461f030dbb97603510d1bf8f3c68f7b4c3d24af095042f",
  "hash": "4718a012e93225d2c3e73baf7b52ef39fef7e3807492e4d50cd12bf5667f1e0d",
  "size": 5085,
  "vsize": 2278,
  "version": 1,
  "locktime": 116,
  "vin": [
    {
      "txid": "1bc5de424b91f464c27813a13ad671b415338fb4761df1d4d42b8139145c7c90",
      "vout": 0,
      "scriptSig": {
        "asm": "",
        "hex": ""
      },
      "txinwitness": [
        "91d91b9933dbd9439e23308dfc321890a9a0e6c2e82edeec66f401af9f93ccbf0276149a5153f4ea14efadf6f1073b3b17fadc5875a3c58a0e6e961e87f6597d5f584124a6d57372d226874463470425a8f3a093065d76beb289fee17556ba20dd6ce87821fb2a30865e3ac390d30e16089e42b087d3d8cfdda7ec87adf283a42757f46bf7d707be15b29a317e2fb9f388aaa0a1efb05089fdc27cffa1fcc0ddabe7946a7ae94145d8c182650c5a3f89b928526d0d0fe8ec61ac057446109d2dd05dfed92dc3ccca62e3b188ccdce065a84933cac58919cac315591d61d974a9e887291f70b475cf00fe5ebf037d2408ac725ce1b2db6e9bb14e7bbf70d4dc750edf169caac2a106372e617f4eedb6b06717a5de5a77abb6886c3e8ca1c2953fbfcbaa4cbd2f931b9f141971aab2d1b28991cdb9738a4389b7a1ec8a2dc8da82230fbdcf48e22dad874d8f8bcb3d7449831162a68ee5c183f8d9689439637bfad84513101351b790eabd4b6a7d8e9bc4e1b987d186da9e8e39a3fc90a2ed17a088f3e7f741f3a1a4dda8058768254234375ba152463224c8f85f29f22876b6b1fc6beb1e28892c82a9325206d906b479aad96fb5152fda88306fca160cc7ffce4e914e147a5c3940ca5ec203f7754d800cc3af7e88bf0436746edf31eab35dfbd4708643e8c00f77e27122544c2cbe1fa0e166831e43fe0adbc9ae77f5f8b0fd79a35823beb55d64871f318473d159d689575950d46a9a8e55e607a11c8df5a0f5dffc6d2baaa644bc0bea9b0bb6fe768ff2ca2ee68ab1a6acb76fd417154bbb9a04c13bfccbde039a7fadc5a7c1412aca9cc7670f65fe224c5ab07af67704402f28adf7311eb6ec9f9cad82bfde6ebf8367b02984f124f43551e73ef47e85c363318d92e728b187953be2f5cfa9cfc109e33e504de8f2268cd1d58be3aba0b644a2ac10827ce8985bc286790ec5cb26601fcd8024cfd8ede3bc32e892e12c8f01336e962295bbdf32d342c836a443d69cef3c62b91ebad8763c2171b1fae9686cac04039ccd24cfc977ba8aa1de8b1e84571ffe88a41e7423c2dcd548c8108bfbd589342a6860e67449c481296b22954b5795d459af4228e56ba7553aedce010fbc6d72b841a06148a190ed14dd00f70f20a8e9a89fb29f06b54c82591e3defd046acf90a5a59ebb4329c6c13a7007637794a72ab9e5a53467008260c44f9d346401c6c9515c5e9fa65380922598def6ba3fdde3acfd49df29bfa0b2b98c47e84fbd4c1f65345dc5a0c1660ea5931442cfcde6ba3dc5b9824bf30601efe47fe430cbc07e7a2301c8e15f942037d6c42e50053214c684e990d3f890b28801c5f9b83873317cf24d72ddfc7971c2aef426a6e2e3768b517d5ca6a51fa5a71c2a59e674a2e2d8b191f6294f8f6f0da9323f0e4e93fa4cfd0c120e2ed8c896fd81a374f268ccd887b488d7709d51190052949499af335877b4e62cd80090a4c36a4f41e294fc1c5d6076730ace32405854aa7f9c4e9457ab3a212d3635f812347010d1b7a3ca15ac5b6956b79a1f7f1d6b93e9c8f8692d96b5bb5976e614c569abea246733d532c92cd91b40b4d07c872c53b5a8d453b833bfe91d7710afd56132b11580268ede766013274468ffd9dcfeb5e4648c594067818e5ef47aa751065279b40379c6cde3b7fe2ba44bb2fc3bdf7c4f33b97e1e5a8d4713482e520256030f651cb498dc52c9929d5d80fa230667b00098caa77fc170471d025706ad70cee71ebf12deb14a0840823586ede6bf2ac8f86bc59eafaaaa87416ead6660e43c4a28c0294eafb3197a8aed68dc2cb2b92e9d5ed2ffeb53acd3a70e25b76e41eb10f08855e4c98eaaea11dabd7fb41e7ce6b8f15124b490bad7f5bb42725081d4403d99eb2eb31df109549021feae2e48f2554645c048d2baf4620b86b42d291f8f26419409ea706f9f23d5607f8a52f7a817b0524c904312b44568147e668a63e151f2da1372c288f60138a5df16f01707b42c5ec62d67537b2200acd764e3d93dab64c7d8b11df106a33794de2e7f614a49e30812e8ea1acc5caeb3508c658455de3c34e3ac42443b89a7685a46fdd3edca7e66162b08bc2028a863f4276b0988200a2d1dd94070cb0900eea81bf10ec9b95418c67fcd7db99032c233fb3210a61cdc7732b3ce9cfc42c92026648ae4702457e19806483f1b565b0b8ff205fff9262881778329c58bf6a7ba1e2987d6a72d0f3f05125093e9205822c2d65fde8c67f0e680160e3559a834aeac5b072d08bacaea6469a9b2b7511fd625c583ac426968ed2eb196770cb03e204e1caa45ce34006b24161ab2b9a5d13c093ad0866b6d69dc16be4af4c68310720c94605581a2c84ac1fb90bd3663d4b792d7e3587ab8029c198167fa6c17cc092708a1dd05414c277e6a426d9497dca66e40a2d69c1c6bcfcd4fd1d84806ed9ffd3e44cfe3f1922f180bfe4edc90602a88c908b6c65a602eaaf5d0fb3ad1af8a33b17592c56b910a2abcd2e244d8eb39e50e761a2deb1c256e9ef494641b900499d179cf6dac04ac801eb5f912f74c1cb4e438aa9c30bd76ae3ec7322e76520e9bcac5ddfa52ba87a3e9ce08b8cc6e414e1eba9836a0a237d14338ac6555a5fd909241193793c4b14d79154f5eefb13b9c93d3b624b17a9f67c9e601ae669d7a744701e2b6f8c7d4e1962da547047e91ff754eeba301040c6d0c970bef8d19de1288afc6f95c5c278b23e17c7cd3c1554e10da3fcee1b05295b84dc413e21bb8774197a5c3ccd7014a4470514c01b45ed2a65a575b7f796bfb2484bcbf85f4c6db9d0cbbfe047f93a5891e0f69935ef787d109fff5d1721fa35977289879d23876ab40ed3c5fb7e48818831c2bd8879946ea10dca8f0c42a996c6683aaca216f599da6e9fb9ecc7b135b2a6b2006e9fe8312254c3c357af7f49ad523d6fd5f008a8ea503633907f6a1363a017734e7760ac3b4c31d6241af76fc3eaa1a13e1ac2aa683d22313f567178e52d7c1c3ed079a669601788b7fa55cd0fe2d4c29306da0ff1618a418de4982f45e09a09914a16b1a3f6835007c967d7ca1d50e91f6891daca1fb318971328efb5e3cccead9f7efdf167a5a898741a209fbe2e279e1576669579ed10f55361e525d07a44614b87febcd1fcefd721eff2b72740edec93c43d67da6a2dc3ab3251b89aaef2303c267e400cc719f3eb587bf6c7a571deaa35375a1cd2966689b690c052aadc93a1298565136f106cf5b52abebb8f55743ce64ee2ebf3e044825433741ec2ea0b2a62b1ee476d0a14205d76868db7bcc0ce060a162124272e34394089a1adb8bbc4c6effd1636495a5c5f7a8a9aa8b2c0c6c7e7eef1034d686a7277858e95989a9db6d3f20000000000000000000000000000000000000b1e2f3e01",
        "008051e160fc2ba6541b85d46100b9ae675c6170e854ce8009c9131c899f195749a8c8f07a65d77645ac9b5744605adf4e530057bf1e6f6807c6f17ce17152aef4bbe7907d668f96a7e3ca2dc6b93d7c46a1e7ee55445eab666b8d6af93e79b6c345d9255b3714be87adeb9a895de584fb97e063486dcfed277dd9333fd9aa9fcc86dbb1b8d391dda771f6a95fa12df18b62bb9d06b012e136f82a2bbf0e3d23d8c88c4f80c1d10ed5f874865505ed16fba96282e9634df31adb0214a12df787dd75bae1397b0a28bdbc42cea5b955a95cc1e0b015fa05601faccb5f6b49c68e98ca029b63caadaa33e3b44f3959f606b0e4ad4ab097bb6261a90545b1a75f7add6ca9f2e6d794117609bc7a3b744bb44388c2e807ee960dc008e386f1d5dab5251b113d6f85ec0696ec1914c3d7de83aa140a44678fc499b31ee6e3c53c192bb9da381dc62fa16eb62dff5bc3c355345758dfdd76f1b8d9ed66a848c4e94a89931738666fec207d0c8778c24277120992f76484194f1a23ed6620270b36bbefc32d6c6201fa8caa865393717051b385a0505b57d734f7c2d26f209a9e8aad47c7b58f94a6bb9efb93139a9e247fb7807779ab210e057c434bd69465e3021373c798d0f02b3f4ae1dbcf42de4034ac3a57e7ee034436fa896ee97e5985563cfaf7b8e057656dc47e7b5f538bbf030bfeb475e12c384208fac945050cfa5f037faeee550577b103e0832a7c0b9c32f18d94cac9ec8ab4ca61e39453570b567fad561175ba004c7d2af17341c0002aaf011bde20f082069e9b016cf40d13a8badfb87a3eb8ca95cc94f3276f393309bb7ea2f1517b8810c90b8e9f32ae78aa4a29085a0a3c188237650b75b66c773e9412e4daecf319c7da1c8db40e685a88b9995bad097032ffae5017834ebe33007f5d6e4f17916299b6e624338560b5a4cf0c0c164d468e4b2ac2fa327b68674abb225b024dd0a44b356d945fd71fbb8be109c613acd395999ecd5f272de49432d14a629ffa64cf4259c80bd8727865c81123af3628edb53ed518a816bafeb3787567eca0550ccd92571e11922d69b715304e7d67bf2c7457f5b216099425c227ad14e28ff81b812665b7e23e14fb7dc4004f68e968b05489dbd6c030b152a3b06cd0408358aec5d680ce0612eae4c9b4a6d7bf85a85e900dad70ca90ad435cd5bdd4f155632f391938db60ba2cd0dd5cc6bd712da6574f74a54676437587b7ed1bee09840af138765f3ffe1309aaea4350b631455d0c434e9c0b5b2793da921a649a51293d99e7eee48e0294f196fb9ceff8576d2538e18dfddcf0a228c4a1f079c46f9f387cda7a99aa9595cc652de8e679babad0d73a998f669770f903060d126965a799675953af3989f32d6221a4326871e067a728ce8be5ecfd2f0a7116e8b831ee69f74aed372d2465a002486d8d615a251f93762804a98b4eb5357d4d8328b510b430b917519572eb148540eac599a2c4b5fece8aa97f92a458d4baa81f587a01757b172ad740efe296d89811d224d66dc78332768f8cedc880d58a8ec55cb6dc38739a1831440a9ed10326b1f08543bfe30062d7e77ab65f2938908f9c967d6d32b487846c246f8d597215c664a10c51a3158b7c7d487ca11be27f3272f733cbad03eaad17f184603fa30858b220aff1d048aa7ac8b2426d78936138b70e20d520c601769da8edccbc8b9c32a82287b71a4a2950cdfbde8c2af00e44dfc4a4b6532c074c57dc84bc0a4ec68b6fed817cb47128452b6ae40400f369ebf7ca8eb9efd36c177494e82133a9badd413d7f74f022f24c8eb5b0fcd3e298761adf1a78b979a9ea2df511b1cc0752c8e14321"
      ],
      "sequence": 4294967294
    }
  ],
  "vout": [
    {
      "value": 499981.6958,
      "n": 0,
      "scriptPubKey": {
        "asm": "1 f542946e0753affbc7b7158ca047604d912ca5f037e2248860f88134702ca7dc",
        "hex": "5120f542946e0753affbc7b7158ca047604d912ca5f037e2248860f88134702ca7dc",
        "reqSigs": 1,
        "type": "witness_v1_scripthash",
        "addresses": [
          "3QJmnh"
        ]
      }
    },
    {
      "value": 1.0,
      "n": 1,
      "scriptPubKey": {
        "asm": "OP_RETURN 2de42a33cfe37a9cc93047b05bc3eaa6038324ff8f9d217a89e7c677d19c200e 48ff3939ea57b540b2902047a1509b8b3f784f863a29d54821bffc254cbb09cb68df1919ca77956092b000678170bbab1f586fa61a09f568019fdc056c9b29eb08bf7979aa17f500f2d06007e110dbcb7f380fc67a69950861ffbc650cfb498b289f59598a37d520d2f04027c130fbeb5f182fe65a49b52841df9c452cdb69abc87fb9b96ad735c03210a0c721d01b0bbff8cf06baa955c8a13f7ca5cc3b894be85f99994af715e0123080e701f03b2b9fd8ef269a8975e8811f5c85ec1ba96b883ff9f92a9775807250e08761905b4bffb88f46fae91588e17f3ce58c7bc90ba81fd9d90ab755a05270c0a741b07b6bdf98af66dac935a8c15f1cc5ac5be92b48ff3939ea57b540b2902047a1509b8b3f784f863a29d54821bffc254cbb09cb68df1919ca77956092b000678170bbab1f586fa61a09f568019fdc056c9b29eb08bf7979aa17f500f2d06007e110dbcb7f380fc67a69950861ffbc650cfb498b289f59598a37d520d2f04027c130fbeb5f182fe65a49b52841df9c452cdb69abc87fb9b96ad735c03210a0c721d01b0bbff8cf06baa955c8a13f7ca5cc3b894be85f99994af715e0123080e701f03b2b9fd8ef269a8975e8811f5c85ec1ba96b883ff9f92a9775807250e08761905b4bffb88f46fae91588e17f3ce58c7bc90ba81fd9d90ab755a05270c0a741b07b6bdf98af66dac935a8c15f1cc5ac5be92b48ff3939ea57b540b2902047a1509b8b3f784f863a29d54821bffc254cbb09cb68df1919ca77956092b000678170bbab1f586fa61a09f568019fdc056c9b29eb08bf7979aa17f500f2d06007e110dbcb7f380fc67a69950861ffbc650cfb498b289f59598a37d520d2f04027c130fbeb5f182fe65a49b52841df9c452cdb69abc87fb9b96ad735c03210a0c721d01b0bbff8cf06baa955c8a13f7ca5cc3b894be85f99994af715e0123080e701f03b2b9fd8ef269a8975e8811f5c85ec1ba96b883ff9f92a9775807250e08761905b4bffb88f46fae91588e17f3ce58c7bc90ba81fd9d90ab755a05270c0a741b07b6bdf98af66dac935a8c15f1cc5ac5be92b48ff3939ea57b540b2902047a1509b8b3f784f863a29d54821bffc254cbb09cb68df1919ca77956092b000678170bbab1f586fa61a09f568019fdc056c9b29eb08bf7979aa17f500f2d06007e110dbcb7f380fc67a69950861ffbc650cfb498b289f59598a37d520d2f04027c130fbeb5f182fe65a49b52841df9c452cdb69abc87fb9b96ad735c03210a0c721d01b0bbff8cf06baa955c8a13f7ca5cc3b894be85f99994af715e0123080e701f03b2b9fd8ef269a8975e8811f5c85ec1ba96b883ff9f92a9775807250e08761905b4bffb88f46fae91588e17f3ce58c7bc90ba81fd9d90ab755a05270c0a741b07b6bdf98af66dac935a8c15f1cc5ac5be92b48ff3939ea57b540b2902047a1509b8b3f784f863a29d54821bffc254cbb09cb68df1919ca77956092b000678170bbab1f586fa61a09f568019fdc056c9b29eb08bf7979aa17f500f2d06007e110dbcb7f380fc67a69950861ffbc650cfb498b289f59598a37d520d2f04027c130fbeb5f182fe65a49b52841df9c452cdb69abc87fb9b96ad735c03210a0c721d01b0b78c447ec2fc757d84fd4bfc9d2cdd0e835241b58a5880c0b8fb21abec296f57b",
        "hex": "6a202de42a33cfe37a9cc93047b05bc3eaa6038324ff8f9d217a89e7c677d19c200e4db00448ff3939ea57b540b2902047a1509b8b3f784f863a29d54821bffc254cbb09cb68df1919ca77956092b000678170bbab1f586fa61a09f568019fdc056c9b29eb08bf7979aa17f500f2d06007e110dbcb7f380fc67a69950861ffbc650cfb498b289f59598a37d520d2f04027c130fbeb5f182fe65a49b52841df9c452cdb69abc87fb9b96ad735c03210a0c721d01b0bbff8cf06baa955c8a13f7ca5cc3b894be85f99994af715e0123080e701f03b2b9fd8ef269a8975e8811f5c85ec1ba96b883ff9f92a9775807250e08761905b4bffb88f46fae91588e17f3ce58c7bc90ba81fd9d90ab755a05270c0a741b07b6bdf98af66dac935a8c15f1cc5ac5be92b48ff3939ea57b540b2902047a1509b8b3f784f863a29d54821bffc254cbb09cb68df1919ca77956092b000678170bbab1f586fa61a09f568019fdc056c9b29eb08bf7979aa17f500f2d06007e110dbcb7f380fc67a69950861ffbc650cfb498b289f59598a37d520d2f04027c130fbeb5f182fe65a49b52841df9c452cdb69abc87fb9b96ad735c03210a0c721d01b0bbff8cf06baa955c8a13f7ca5cc3b894be85f99994af715e0123080e701f03b2b9fd8ef269a8975e8811f5c85ec1ba96b883ff9f92a9775807250e08761905b4bffb88f46fae91588e17f3ce58c7bc90ba81fd9d90ab755a05270c0a741b07b6bdf98af66dac935a8c15f1cc5ac5be92b48ff3939ea57b540b2902047a1509b8b3f784f863a29d54821bffc254cbb09cb68df1919ca77956092b000678170bbab1f586fa61a09f568019fdc056c9b29eb08bf7979aa17f500f2d06007e110dbcb7f380fc67a69950861ffbc650cfb498b289f59598a37d520d2f04027c130fbeb5f182fe65a49b52841df9c452cdb69abc87fb9b96ad735c03210a0c721d01b0bbff8cf06baa955c8a13f7ca5cc3b894be85f99994af715e0123080e701f03b2b9fd8ef269a8975e8811f5c85ec1ba96b883ff9f92a9775807250e08761905b4bffb88f46fae91588e17f3ce58c7bc90ba81fd9d90ab755a05270c0a741b07b6bdf98af66dac935a8c15f1cc5ac5be92b48ff3939ea57b540b2902047a1509b8b3f784f863a29d54821bffc254cbb09cb68df1919ca77956092b000678170bbab1f586fa61a09f568019fdc056c9b29eb08bf7979aa17f500f2d06007e110dbcb7f380fc67a69950861ffbc650cfb498b289f59598a37d520d2f04027c130fbeb5f182fe65a49b52841df9c452cdb69abc87fb9b96ad735c03210a0c721d01b0bbff8cf06baa955c8a13f7ca5cc3b894be85f99994af715e0123080e701f03b2b9fd8ef269a8975e8811f5c85ec1ba96b883ff9f92a9775807250e08761905b4bffb88f46fae91588e17f3ce58c7bc90ba81fd9d90ab755a05270c0a741b07b6bdf98af66dac935a8c15f1cc5ac5be92b48ff3939ea57b540b2902047a1509b8b3f784f863a29d54821bffc254cbb09cb68df1919ca77956092b000678170bbab1f586fa61a09f568019fdc056c9b29eb08bf7979aa17f500f2d06007e110dbcb7f380fc67a69950861ffbc650cfb498b289f59598a37d520d2f04027c130fbeb5f182fe65a49b52841df9c452cdb69abc87fb9b96ad735c03210a0c721d01b0b78c447ec2fc757d84fd4bfc9d2cdd0e835241b58a5880c0b8fb21abec296f57b",
        "type": "nulldata"
      }
    }
  ],
  "blockhash": "73359bfd0a4582986ffd1e7664419d7a0ef7b090643ab62685454f7a097cd719",
  "confirmations": 1,
  "time": 1764179247,
  "blocktime": 1764179247
}