{
  "hex": "01000000000101db2fc315919bf222011467c266dd26b70b60f2df37ebc29ef9ca83691a89a9c40000000000feffffff0200e1f50500000000fdd5046a20e5037226e3701bafa9b808121571d41743f3b28d86240c125a2ab6b66e1130e94db004f2ee206a07a6896323741fbe6f2d292601fa8bf49dab8e72dcbf127577ae0b05d2ce004a2786a94303543f9e4f0d090621daabd4bd8bae52fc9f3255578e2b25b2ae602a47e6c92363345ffe2f6d696641bacbb4ddebce329cff523537ee4b45928e400a67c6e90343147fde0f4d4946619aeb94fdcbee12bcdf721517ce6b65726ea0ea872609e3a3f49f3eefada9a6817a0b741d2b0ef25c3f92f5f72e8b85524e80caa70629c383d4bf1ecf8d8986a15a2b543d0b2ed27c1fb2d5d70eaba5322ee0aac76649a3e3b4df7eafede9e6c13a4b345d6b4eb21c7fd2b5b76ecbc5120ec08ae7466983c394ff5e8fcdc9c6e11a6b147d4b6e923c5ff295974eebe5f2ee206a07a6896323741fbe6f2d292601fa8bf49dab8e72dcbf127577ae0b05d2ce004a2786a94303543f9e4f0d090621daabd4bd8bae52fc9f3255578e2b25b2ae602a47e6c92363345ffe2f6d696641bacbb4ddebce329cff523537ee4b45928e400a67c6e90343147fde0f4d4946619aeb94fdcbee12bcdf721517ce6b65726ea0ea872609e3a3f49f3eefada9a6817a0b741d2b0ef25c3f92f5f72e8b85524e80caa70629c383d4bf1ecf8d8986a15a2b543d0b2ed27c1fb2d5d70eaba5322ee0aac76649a3e3b4df7eafede9e6c13a4b345d6b4eb21c7fd2b5b76ecbc5120ec08ae7466983c394ff5e8fcdc9c6e11a6b147d4b6e923c5ff295974eebe5f2ee206a07a6896323741fbe6f2d292601fa8bf49dab8e72dcbf127577ae0b05d2ce004a2786a94303543f9e4f0d090621daabd4bd8bae52fc9f3255578e2b25b2ae602a47e6c92363345ffe2f6d696641bacbb4ddebce329cff523537ee4b45928e400a67c6e90343147fde0f4d4946619aeb94fdcbee12bcdf721517ce6b65726ea0ea872609e3a3f49f3eefada9a6817a0b741d2b0ef25c3f92f5f72e8b85524e80caa70629c383d4bf1ecf8d8986a15a2b543d0b2ed27c1fb2d5d70eaba5322ee0aac76649a3e3b4df7eafede9e6c13a4b345d6b4eb21c7fd2b5b76ecbc5120ec08ae7466983c394ff5e8fcdc9c6e11a6b147d4b6e923c5ff295974eebe5f2ee206a07a6896323741fbe6f2d292601fa8bf49dab8e72dcbf127577ae0b05d2ce004a2786a94303543f9e4f0d090621daabd4bd8bae52fc9f3255578e2b25b2ae602a47e6c92363345ffe2f6d696641bacbb4ddebce329cff523537ee4b45928e400a67c6e90343147fde0f4d4946619aeb94fdcbee12bcdf721517ce6b65726ea0ea872609e3a3f49f3eefada9a6817a0b741d2b0ef25c3f92f5f72e8b85524e80caa70629c383d4bf1ecf8d8986a15a2b543d0b2ed27c1fb2d5d70eaba5322ee0aac76649a3e3b4df7eafede9e6c13a4b345d6b4eb21c7fd2b5b76ecbc5120ec08ae7466983c394ff5e8fcdc9c6e11a6b147d4b6e923c5ff295974eebe5f2ee206a07a6896323741fbe6f2d292601fa8bf49dab8e72dcbf127577ae0b05d2ce004a2786a94303543f9e4f0d090621daabd4bd8bae52fc9f3255578e2b25b2ae602a47e6c92363345ffe2f6d696641bacbb4ddebce329cff523537ee4b45928e400a67c6e90343147fde0f4d4946619aeb94fdcbee12bcdf721517ce6b65726ea0ea872609e3a3f49f3eefada9a631e79fbe154332ebbbb961baa7d8f4ece566d4b03dc8f827cd8676232dc6e6d7e07828ba782d000022512071dd68451a36f7bb7496b2b6947dad77d8c82ec6dd89e9ebd200fe5a6ba59a3802fd75092626f9d384bb94f1718ca09976111adbcbacb80297f4917b4b55c090d81f5a483ed3eb3e3879f4ad25220eb5a64bf2720ab2152ba1abd4fac5ae6b111503a8be96161cda7e85d13ccfe07fc484e1e0af98d858b9101ff0652f320054dbb72a5750cb837367deffa5eb4f06d3567400059efe9286645bc463698f4610481b1d7b92f506a0be1b0c8a353c73ec88b72c27b71c1d55ba417a569fcada3ef3e47f3ad581fad1b86b32a518bbfec8275d0daaba3555c4416f74307675e6150a26a87fa9bd4f69cf75f5ea8f006841d062e2a19802843a12a8bf08849bf218a7878a9b05effdac6455028c16499fd21e181f538bf39b1e9e0d8b85d6bbdfbaa7d8caf7b36748db87c19dc40e93d4ef44fe13c92ca1dc32dcf7365c8c72041f2dbaea87ed148be8a09e8fdcd5f3a9a1ee9dd39aa754c165d6af3917119b05461386d6c6492ccf0ff42025630f9416279d79c6bea0d97304b953e3f74e347217137335e5d2371ffe67311d57c7a00d241ba7a3d246cb9859ca9889ca18187968446c2c7e2412e5ff43f6fb5f9c837c76d006ac1c029923beb5f5c8031291c31717084bc2436fa29df40d533af3823f6a4f4faaadab89641379ab8e0135765e9493bac5a720c41aa9a1ea4e7859fe730ed8d71d84a51b1362225a1906876fd791da2e79ed7d227a42a62d0969f2932c5d02e0f571ce4409e0bff0d018a76714fe4793be2761663799106dc4c844d865e706874126fecdfc5d67bc6e4114d9078a6d16e154ac705551fc4a3c04114babd6c9f78d16d6697ef916a94cedc7954ee28a5c8243082331a32ceb7af623ac0766d83d76f5c4a31bd013d2ced292d6de7a9d72e54077dbd226e37b4b92610eabebddaa66e7e084c4cdf37a89d1a3d50dbb32a58f7efdb401cd9d3a4453e511ae275a5431f6f1b62f20da0e3fed760d95544350a24dca86126bcc459b0cf02b15d34b1a19c7365dea96d554aa317a5176c968d2d1cc0aa122ae0b15e974efdf2de8fa2694aa24293d5ec01135cdc6851078e302f7af669a1fce67eacec6162d7191b8aaa441ad922ecd8e74f19fe577d97d577f1f5c8b9150aad978f8f3112b4abbd0baa3565b738d0736f80ebf0eea4d99c5b2c8d0e9c73d8e6b0d6d84be56d52b17733b93ec1e8ae9ec9977f0998ed6c27caa6d2729da58f5c8cfc076af1d90ee51668890341f702fb46566cbc56ae1443965016b823a03c3635bb6ce595817dc44c0a5850d55a800d33e3d2682c65e84c484da5aeb9b523cc08d36def33435494ed8a46ea5b869e4ee57cdc115b47c33b14fe43f99b78e292b654d931e9c4f5cff731d5398aba64a0b591f5dcce3b5da7b3a59cf01b1afa1303bcd2a9a82745380726fc3abe5c767f1471a3c41d8e93d68e4a3bddff7e40460d9baa42d37f7d1528e172a0b042b32a19068876b336f56c211711eab2da869059d7391976a2e0d376922145ff6dcf23c17afde1eb90b43c47f744f260fb1829ccddbc376b71b88343f328eb2243de24acfa1836785bd1ec27b1e4a1d7c078550d091a70669202daf384b061bb812d12f61cd6f5beff07de566d5630c6098f1a9490935fcc12ebe20d9b791856317c5e6c6a5841275747718183e531545ff4402eb9a1d1a32d50fb3cd030e993d343ac69ef9daa4bed9c36434d8a9972a9453c927f7f726531efccf6068fe3be8478e121fbf38df0d2797f10d581669acc00513dee1bdc7c8ba0f138b5a04e67c19359ac0d5bce4baba84b7d58212432bab31346fa82f8e94f7e57d212e5edb3927e08e558b10926a59f3b1f41ee9b22b6ca8fe775a758b30d118b9c708f8586d7d47d0208916e9b7729e441192a69c9be3bf2bc2159a482a91437895e0bb997b619d019a75ec3aeae8931b82973916b0dd5f2ebda60c2c1771c601abbdce2dab563395db6847f05ffb883690caf9958b808ac3a03ff98807cf5afb24cce76ad17ba6ebc8b6d2196e2767506f1b8332ae16a0d3785dcbd3ae471cac9f3cc1bd29ae05389308f15dae18eba1655c7be0c71bf2925b10110a632513a544da4e6da924aa6e5c90094b4723ff94942167b177dad915a75bc298ceb032b00e31d29c9d7fabc423c80ac103f12e75b83657fa84671bb010cc193536efa2f5e514903fe75ce0c83954f732e040cfccd7b85eca7b32289fab9a49466d48e885c081fb2dbfee14bc6e910cfa9c9ee54a416816d4d56c18cf198b3fc7f62d36558f46c54766da015c20ebcda3b425361a7c76e2488120309214354ce423f0c46d1ecdb6b7f8250d7e739d32e6df6cd90b2b8a7802d8bb8eeee8357e0ce1f5adc25a074ea1ba99c7e01197f0320e45760d01530f8457db4a1bbdf55d2d491b61d039504b75a59656dd5835ff1d4962c6b6c5da52dec82bd0eb94a0b4845269705a5c3071791a72cd0886fa445b8336c0048cd2e94c08063294662dabe33e1d19214e60557afb5a4c4171a62c82685351e0cc587b2ecfcbd9e6f630dc84619417edf3859fd686fb005bff893fb52f7836c983f4fb3682331eb6822db28b068b9a0fab593e63b16a8b9a3d78c269198c66c42a751df74616d195d97438f6e11b61d4eb822a97b3f18d4adc6f7bb9bb6955fea209019f384b6e0a75bcafb33b88d2cc024cbc2b089d776c4761e95033924a2f5c0262458ea49f0c611927808edb4e02e3e34e3e0666ee044acfffd80f659baca07a0b409f7dbfc7b2cb3353d1d352aec93ae6a49dd69af3bcb8ca5f11c5426be95b5b70abdfe70c35b8876614697e23c50a0581992828a2c66202edf1e1faa945e0b3c7b4744fd74062580aa351569dddd6cc8dfb549a19eb07c2e817d20843cdae3a46880ab67755155ae0b2ea3161a3cd8dd1a228cdbe141e7a2f9bac8fc2be3e4b2025dda185382701502b1c5c1aa858fd5871858b3c2ef6380ff0eef7b8ed22039a405c639c9336fac369aa591b65e611e587860c4870f0d17303f2b9a74479a646118dc123c8894960cf6b04c564db4390558d8f3235ee96aa463c8388a118602351ef46a77601da848c73940c893fc1288af88de71e605243a74b26549c3c17290c7e4643f60de01e5996967056235898fbda47ebdac9712131b1cbea4599180de8eeee777ce500c7d0e86d6e42da9148491dd3305dcdb330eb1ecd7be74e225dff35b820d7871dadd149af260aa4a472708507561430a9209d06a4fe015c6c551921d62bdb950982a489c53407340948662fc10cb6966bb485e59f990ecba245f684f62de8f8a7f1b3ed5bfdf85ccefcb526571c48e55c455e37b1d5c88a8f00042933383c40464a71757781a6b3c4cfd2dbe401070d2b2d3c6061878e8f9b9faebcd6e3f1f3fb181d26274b5d6b7e80abb0e7f4f6f9fa1e32354e5a6f70727c94b8bfcfd1d5f200000000000000001428384801fd210500c599ba948312b564491b019cde66fb2d2f6efcf54b7db261d0fafad8c6ec2ffe22208e8b6e12f04f16604a7a1d0ecdf220f8d4bc6dbeeee10123325d34d1a88c8cdce342cd71481d3a85fddefb1ae524bb380d141d71b964b62fa3f282a4a99247f752c07d52964009cb1150137e7becb5c94b66d63853fac19a9a5f0271844edc41f9096970ee8d13e6ce034d87546e0f04504fede7a318c3859e6585fe13e345147f78dff45ad6bbc8dc0b848730181881cfa5a8d0359e0b94749054c61ab27e83dc8b38397a7a37583524995e01b89b1ff48785e73691bfd5331be226ca00446f0d436e05eeac73ddd1db4d06249737b81453731cf2cb4f8c24765894279db0a3147333261e91a0cfddc1d5433efa2b36462176b28ceeab9e6a53319dd14aa8cca7fbe6303371e705921bd1946f7319ddcdd524f41fd5c26e5979c15228aba7b866d126d00320a4056f827ffa65ecc946ac19ffb72c20cfeb4f2d6f47767bcae5f1cbdd9cf3c77c0bf7e1ee5b7992b02ff0f35af73309f0d174a72575931caba16bdbdf562a6a569077fe5ff7a6602484b1db6689f448789a4ab94716d8ddf390e9df91281b24f913b2b43f65980c19b8ab21db522b0bde48521816789ffbcbb2fbeafbf1db25e7e0c3ae93c21c6d7313dfe7aaa293bca9249ac1a9e0bb4455afbe859c49117e1e0dea19dee04f2bc272240e55c5b7e7137a448e5952e2ce744981be8515160cd8282b24552401fcf6d0b02e979fe434d85d6eda558dfe3602b96807c9b5a570bc2eed2bbf751b3d8b243f717223eddbb91dcead07c1babf2ba2e90831fb7e08417c579e20fa9e34c2210e65fc1bdedb8d4ac27b3671f772ec582df297fd455a304f1615230615dee94887b1c25c51cd10fc1a9729c3c6c32f04caf98b20018e5e8e86be71e95f6598e6984a4308e625131ca9c4a2e893bbb38f24a7546bc95a85d97099e6bf6a7d6ddd88a83e8518902398cffdb9a4a43fa809d122c320ed4779dc094a2af8abd4c4e83b84eee5b84d4f6d0d0473ec0b14168748f720ec3eb1e7c6ce64cebc0d12db69f8d55f0554f5c7f71485a573d68272f8cd07ccea22b495f9972a59531671ec9e46cc448fbd28316cd4d0b35f223e862c4dbc4ef303fd99c170910abfaf0cc8e98fa974d0d2ba9fa8a2aedd130d774f00e9df871cf4aba8e0effc1e903edcb76b9fef93f96487e8ea53ba25a6d13331e3d77e1ace4dcf4adbe31629eca68cc865b1e831e9dcad8cb382e4f393d7168808aaf12f811bed2c3f2f13c2c39cac0fd5f4a03060a05f63e10e7a1a94b6b814c68fe62b42ac777fd59f4c3031b468857ba2d9c3dfe79f308821ac44abd673c3b777fb96c5c342e9f101985c9f1167c328a60a67b2471e735312fdf506691e2d23b28b6d369a193ab7a593858bb85064ae016355d9353e9ae66b214cdf8a6301606f8d14281d604159b5d9e16f8b76e90da6b79c741c40074f4d490d1bf7f98992a3f821709b9766400945e1a2a6ca9d4e0d3567b01558fa5a26ebfdd2801da4f016136dd7b5771d0aa120caa14c04df19b4f5bf49c150ab98cff3b89391c1f071cf9bb2a7c068ca85815af1ea8a180393bcd7d998573281918f53bb4875b52957c8b8b05672958005d58941001e70e367b349f21c7214ea804e40c52b7fc718ea5edc9c08e9ea51acedbd7056c4e10c181b6dc8d933854c20b5e83ed6cbbcd442b991c605b37b149923b5883f73b661e1ef5cde25b9d5bb4c23770d1dd275edf5641f13a8aac88977fd786191570eded24ac2a3dc053d0f107b0da491ce70a21af80badfd1462d6f63b8e9d9685a4fc6ab903a508fc3653926129e9d7c4db84000000",
  "txid": "24521951dc155d77de6b97591b89a2ede945c3712643f98944e55e8785d1c287",
  "hash": "3f4be66ad6a4970f335fc43287cc43e74d0657dc4c5ae5c25dd4784523eea65a",
  "size": 5085,
  "vsize": 2278,
  "version": 1,
  "locktime": 132,
  "vin": [
    {
      "txid": "c4a9891a6983caf99ec2eb37dff2600bb726dd66c267140122f29b9115c32fdb",
      "vout": 0,
      "scriptSig": {
        "asm": "",
        "hex": ""
      },
      "txinwitness": [
        "2626f9d384bb94f1718ca09976111adbcbacb80297f4917b4b55c090d81f5a483ed3eb3e3879f4ad25220eb5a64bf2720ab2152ba1abd4fac5ae6b111503a8be96161cda7e85d13ccfe07fc484e1e0af98d858b9101ff0652f320054dbb72a5750cb837367deffa5eb4f06d3567400059efe9286645bc463698f4610481b1d7b92f506a0be1b0c8a353c73ec88b72c27b71c1d55ba417a569fcada3ef3e47f3ad581fad1b86b32a518bbfec8275d0daaba3555c4416f74307675e6150a26a87fa9bd4f69cf75f5ea8f006841d062e2a19802843a12a8bf08849bf218a7878a9b05effdac6455028c16499fd21e181f538bf39b1e9e0d8b85d6bbdfbaa7d8caf7b36748db87c19dc40e93d4ef44fe13c92ca1dc32dcf7365c8c72041f2dbaea87ed148be8a09e8fdcd5f3a9a1ee9dd39aa754c165d6af3917119b05461386d6c6492ccf0ff42025630f9416279d79c6bea0d97304b953e3f74e347217137335e5d2371ffe67311d57c7a00d241ba7a3d246cb9859ca9889ca18187968446c2c7e2412e5ff43f6fb5f9c837c76d006ac1c029923beb5f5c8031291c31717084bc2436fa29df40d533af3823f6a4f4faaadab89641379ab8e0135765e9493bac5a720c41aa9a1ea4e7859fe730ed8d71d84a51b1362225a1906876fd791da2e79ed7d227a42a62d0969f2932c5d02e0f571ce4409e0bff0d018a76714fe4793be2761663799106dc4c844d865e706874126fecdfc5d67bc6e4114d9078a6d16e154ac705551fc4a3c04114babd6c9f78d16d6697ef916a94cedc7954ee28a5c8243082331a32ceb7af623ac0766d83d76f5c4a31bd013d2ced292d6de7a9d72e54077dbd226e37b4b92610eabebddaa66e7e084c4cdf37a89d1a3d50dbb32a58f7efdb401cd9d3a4453e511ae275a5431f6f1b62f20da0e3fed760d95544350a24dca86126bcc459b0cf02b15d34b1a19c7365dea96d554aa317a5176c968d2d1cc0aa122ae0b15e974efdf2de8fa2694aa24293d5ec01135cdc6851078e302f7af669a1fce67eacec6162d7191b8aaa441ad922ecd8e74f19fe577d97d577f1f5c8b9150aad978f8f3112b4abbd0baa3565b738d0736f80ebf0eea4d99c5b2c8d0e9c73d8e6b0d6d84be56d52b17733b93ec1e8ae9ec9977f0998ed6c27caa6d2729da58f5c8cfc076af1d90ee51668890341f702fb46566cbc56ae1443965016b823a03c3635bb6ce595817dc44c0a5850d55a800d33e3d2682c65e84c484da5aeb9b523cc08d36def33435494ed8a46ea5b869e4ee57cdc115b47c33b14fe43f99b78e292b654d931e9c4f5cff731d5398aba64a0b591f5dcce3b5da7b3a59cf01b1afa1303bcd2a9a82745380726fc3abe5c767f1471a3c41d8e93d68e4a3bddff7e40460d9baa42d37f7d1528e172a0b042b32a19068876b336f56c211711eab2da869059d7391976a2e0d376922145ff6dcf23c17afde1eb90b43c47f744f260fb1829ccddbc376b71b88343f328eb2243de24acfa1836785bd1ec27b1e4a1d7c078550d091a70669202daf384b061bb812d12f61cd6f5beff07de566d5630c6098f1a9490935fcc12ebe20d9b791856317c5e6c6a5841275747718183e531545ff4402eb9a1d1a32d50fb3cd030e993d343ac69ef9daa4bed9c36434d8a9972a9453c927f7f726531efccf6068fe3be8478e121fbf38df0d2797f10d581669acc00513dee1bdc7c8ba0f138b5a04e67c19359ac0d5bce4baba84b7d58212432bab31346fa82f8e94f7e57d212e5edb3927e08e558b10926a59f3b1f41ee9b22b6ca8fe775a758b30d118b9c708f8586d7d47d0208916e9b7729e441192a69c9be3bf2bc2159a482a91437895e0bb997b619d019a75ec3aeae8931b82973916b0dd5f2ebda60c2c1771c601abbdce2dab563395db6847f05ffb883690caf9958b808ac3a03ff98807cf5afb24cce76ad17ba6ebc8b6d2196e2767506f1b8332ae16a0d3785dcbd3ae471cac9f3cc1bd29ae05389308f15dae18eba1655c7be0c71bf2925b10110a632513a544da4e6da924aa6e5c90094b4723ff94942167b177dad915a75bc298ceb032b00e31d29c9d7fabc423c80ac103f12e75b83657fa84671bb010cc193536efa2f5e514903fe75ce0c83954f732e040cfccd7b85eca7b32289fab9a49466d48e885c081fb2dbfee14bc6e910cfa9c9ee54a416816d4d56c18cf198b3fc7f62d36558f46c54766da015c20ebcda3b425361a7c76e2488120309214354ce423f0c46d1ecdb6b7f8250d7e739d32e6df6cd90b2b8a7802d8bb8eeee8357e0ce1f5adc25a074ea1ba99c7e01197f0320e45760d01530f8457db4a1bbdf55d2d491b61d039504b75a59656dd5835ff1d4962c6b6c5da52dec82bd0eb94a0b4845269705a5c3071791a72cd0886fa445b8336c0048cd2e94c08063294662dabe33e1d19214e60557afb5a4c4171a62c82685351e0cc587b2ecfcbd9e6f630dc84619417edf3859fd686fb005bff893fb52f7836c983f4fb3682331eb6822db28b068b9a0fab593e63b16a8b9a3d78c269198c66c42a751df74616d195d97438f6e11b61d4eb822a97b3f18d4adc6f7bb9bb6955fea209019f384b6e0a75bcafb33b88d2cc024cbc2b089d776c4761e95033924a2f5c0262458ea49f0c611927808edb4e02e3e34e3e0666ee044acfffd80f659baca07a0b409f7dbfc7b2cb3353d1d352aec93ae6a49dd69af3bcb8ca5f11c5426be95b5b70abdfe70c35b8876614697e23c50a0581992828a2c66202edf1e1faa945e0b3c7b4744fd74062580aa351569dddd6cc8dfb549a19eb07c2e817d20843cdae3a46880ab67755155ae0b2ea3161a3cd8dd1a228cdbe141e7a2f9bac8fc2be3e4b2025dda185382701502b1c5c1aa858fd5871858b3c2ef6380ff0eef7b8ed22039a405c639c9336fac369aa591b65e611e587860c4870f0d17303f2b9a74479a646118dc123c8894960cf6b04c564db4390558d8f3235ee96aa463c8388a118602351ef46a77601da848c73940c893fc1288af88de71e605243a74b26549c3c17290c7e4643f60de01e5996967056235898fbda47ebdac9712131b1cbea4599180de8eeee777ce500c7d0e86d6e42da9148491dd3305dcdb330eb1ecd7be74e225dff35b820d7871dadd149af260aa4a472708507561430a9209d06a4fe015c6c551921d62bdb950982a489c53407340948662fc10cb6966bb485e59f990ecba245f684f62de8f8a7f1b3ed5bfdf85ccefcb526571c48e55c455e37b1d5c88a8f00042933383c40464a71757781a6b3c4cfd2dbe401070d2b2d3c6061878e8f9b9faebcd6e3f1f3fb181d26274b5d6b7e80abb0e7f4f6f9fa1e32354e5a6f70727c94b8bfcfd1d5f200000000000000001428384801",
        "00c599ba948312b564491b019cde66fb2d2f6efcf54b7db261d0fafad8c6ec2ffe22208e8b6e12f04f16604a7a1d0ecdf220f8d4bc6dbeeee10123325d34d1a88c8cdce342cd71481d3a85fddefb1ae524bb380d141d71b964b62fa3f282a4a99247f752c07d52964009cb1150137e7becb5c94b66d63853fac19a9a5f0271844edc41f9096970ee8d13e6ce034d87546e0f04504fede7a318c3859e6585fe13e345147f78dff45ad6bbc8dc0b848730181881cfa5a8d0359e0b94749054c61ab27e83dc8b38397a7a37583524995e01b89b1ff48785e73691bfd5331be226ca00446f0d436e05eeac73ddd1db4d06249737b81453731cf2cb4f8c24765894279db0a3147333261e91a0cfddc1d5433efa2b36462176b28ceeab9e6a53319dd14aa8cca7fbe6303371e705921bd1946f7319ddcdd524f41fd5c26e5979c15228aba7b866d126d00320a4056f827ffa65ecc946ac19ffb72c20cfeb4f2d6f47767bcae5f1cbdd9cf3c77c0bf7e1ee5b7992b02ff0f35af73309f0d174a72575931caba16bdbdf562a6a569077fe5ff7a6602484b1db6689f448789a4ab94716d8ddf390e9df91281b24f913b2b43f65980c19b8ab21db522b0bde48521816789ffbcbb2fbeafbf1db25e7e0c3ae93c21c6d7313dfe7aaa293bca9249ac1a9e0bb4455afbe859c49117e1e0dea19dee04f2bc272240e55c5b7e7137a448e5952e2ce744981be8515160cd8282b24552401fcf6d0b02e979fe434d85d6eda558dfe3602b96807c9b5a570bc2eed2bbf751b3d8b243f717223eddbb91dcead07c1babf2ba2e90831fb7e08417c579e20fa9e34c2210e65fc1bdedb8d4ac27b3671f772ec582df297fd455a304f1615230615dee94887b1c25c51cd10fc1a9729c3c6c32f04caf98b20018e5e8e86be71e95f6598e6984a4308e625131ca9c4a2e893bbb38f24a7546bc95a85d97099e6bf6a7d6ddd88a83e8518902398cffdb9a4a43fa809d122c320ed4779dc094a2af8abd4c4e83b84eee5b84d4f6d0d0473ec0b14168748f720ec3eb1e7c6ce64cebc0d12db69f8d55f0554f5c7f71485a573d68272f8cd07ccea22b495f9972a59531671ec9e46cc448fbd28316cd4d0b35f223e862c4dbc4ef303fd99c170910abfaf0cc8e98fa974d0d2ba9fa8a2aedd130d774f00e9df871cf4aba8e0effc1e903edcb76b9fef93f96487e8ea53ba25a6d13331e3d77e1ace4dcf4adbe31629eca68cc865b1e831e9dcad8cb382e4f393d7168808aaf12f811bed2c3f2f13c2c39cac0fd5f4a03060a05f63e10e7a1a94b6b814c68fe62b42ac777fd59f4c3031b468857ba2d9c3dfe79f308821ac44abd673c3b777fb96c5c342e9f101985c9f1167c328a60a67b2471e735312fdf506691e2d23b28b6d369a193ab7a593858bb85064ae016355d9353e9ae66b214cdf8a6301606f8d14281d604159b5d9e16f8b76e90da6b79c741c40074f4d490d1bf7f98992a3f821709b9766400945e1a2a6ca9d4e0d3567b01558fa5a26ebfdd2801da4f016136dd7b5771d0aa120caa14c04df19b4f5bf49c150ab98cff3b89391c1f071cf9bb2a7c068ca85815af1ea8a180393bcd7d998573281918f53bb4875b52957c8b8b05672958005d58941001e70e367b349f21c7214ea804e40c52b7fc718ea5edc9c08e9ea51acedbd7056c4e10c181b6dc8d933854c20b5e83ed6cbbcd442b991c605b37b149923b5883f73b661e1ef5cde25b9d5bb4c23770d1dd275edf5641f13a8aac88977fd786191570eded24ac2a3dc053d0f107b0da491ce70a21af80badfd1462d6f63b8e9d9685a4fc6ab903a508fc3653926129e9d7c4db"
      ],
      "sequence": 4294967294
    }
  ],
  "vout": [
    {
      "value": 1.0,
      "n": 0,
      "scriptPubKey": {
        "asm": "OP_RETURN e5037226e3701bafa9b808121571d41743f3b28d86240c125a2ab6b66e1130e9 f2ee206a07a6896323741fbe6f2d292601fa8bf49dab8e72dcbf127577ae0b05d2ce004a2786a94303543f9e4f0d090621daabd4bd8bae52fc9f3255578e2b25b2ae602a47e6c92363345ffe2f6d696641bacbb4ddebce329cff523537ee4b45928e400a67c6e90343147fde0f4d4946619aeb94fdcbee12bcdf721517ce6b65726ea0ea872609e3a3f49f3eefada9a6817a0b741d2b0ef25c3f92f5f72e8b85524e80caa70629c383d4bf1ecf8d8986a15a2b543d0b2ed27c1fb2d5d70eaba5322ee0aac76649a3e3b4df7eafede9e6c13a4b345d6b4eb21c7fd2b5b76ecbc5120ec08ae7466983c394ff5e8fcdc9c6e11a6b147d4b6e923c5ff295974eebe5f2ee206a07a6896323741fbe6f2d292601fa8bf49dab8e72dcbf127577ae0b05d2ce004a2786a94303543f9e4f0d090621daabd4bd8bae52fc9f3255578e2b25b2ae602a47e6c92363345ffe2f6d696641bacbb4ddebce329cff523537ee4b45928e400a67c6e90343147fde0f4d4946619aeb94fdcbee12bcdf721517ce6b65726ea0ea872609e3a3f49f3eefada9a6817a0b741d2b0ef25c3f92f5f72e8b85524e80caa70629c383d4bf1ecf8d8986a15a2b543d0b2ed27c1fb2d5d70eaba5322ee0aac76649a3e3b4df7eafede9e6c13a4b345d6b4eb21c7fd2b5b76ecbc5120ec08ae7466983c394ff5e8fcdc9c6e11a6b147d4b6e923c5ff295974eebe5f2ee206a07a6896323741fbe6f2d292601fa8bf49dab8e72dcbf127577ae0b05d2ce004a2786a94303543f9e4f0d090621daabd4bd8bae52fc9f3255578e2b25b2ae602a47e6c92363345ffe2f6d696641bacbb4ddebce329cff523537ee4b45928e400a67c6e90343147fde0f4d4946619aeb94fdcbee12bcdf721517ce6b65726ea0ea872609e3a3f49f3eefada9a6817a0b741d2b0ef25c3f92f5f72e8b85524e80caa70629c383d4bf1ecf8d8986a15a2b543d0b2ed27c1fb2d5d70eaba5322ee0aac76649a3e3b4df7eafede9e6c13a4b345d6b4eb21c7fd2b5b76ecbc5120ec08ae7466983c394ff5e8fcdc9c6e11a6b147d4b6e923c5ff295974eebe5f2ee206a07a6896323741fbe6f2d292601fa8bf49dab8e72dcbf127577ae0b05d2ce004a2786a94303543f9e4f0d090621daabd4bd8bae52fc9f3255578e2b25b2ae602a47e6c92363345ffe2f6d696641bacbb4ddebce329cff523537ee4b45928e400a67c6e90343147fde0f4d4946619aeb94fdcbee12bcdf721517ce6b65726ea0ea872609e3a3f49f3eefada9a6817a0b741d2b0ef25c3f92f5f72e8b85524e80caa70629c383d4bf1ecf8d8986a15a2b543d0b2ed27c1fb2d5d70eaba5322ee0aac76649a3e3b4df7eafede9e6c13a4b345d6b4eb21c7fd2b5b76ecbc5120ec08ae7466983c394ff5e8fcdc9c6e11a6b147d4b6e923c5ff295974eebe5f2ee206a07a6896323741fbe6f2d292601fa8bf49dab8e72dcbf127577ae0b05d2ce004a2786a94303543f9e4f0d090621daabd4bd8bae52fc9f3255578e2b25b2ae602a47e6c92363345ffe2f6d696641bacbb4ddebce329cff523537ee4b45928e400a67c6e90343147fde0f4d4946619aeb94fdcbee12bcdf721517ce6b65726ea0ea872609e3a3f49f3eefada9a631e79fbe154332ebbbb961baa7d8f4ece566d4b03dc8f827cd8676232dc6e6d7",
        "hex": "6a20e5037226e3701bafa9b808121571d41743f3b28d86240c125a2ab6b66e1130e94db004f2ee206a07a6896323741fbe6f2d292601fa8bf49dab8e72dcbf127577ae0b05d2ce004a2786a94303543f9e4f0d090621daabd4bd8bae52fc9f3255578e2b25b2ae602a47e6c92363345ffe2f6d696641bacbb4ddebce329cff523537ee4b45928e400a67c6e90343147fde0f4d4946619aeb94fdcbee12bcdf721517ce6b65726ea0ea872609e3a3f49f3eefada9a6817a0b741d2b0ef25c3f92f5f72e8b85524e80caa70629c383d4bf1ecf8d8986a15a2b543d0b2ed27c1fb2d5d70eaba5322ee0aac76649a3e3b4df7eafede9e6c13a4b345d6b4eb21c7fd2b5b76ecbc5120ec08ae7466983c394ff5e8fcdc9c6e11a6b147d4b6e923c5ff295974eebe5f2ee206a07a6896323741fbe6f2d292601fa8bf49dab8e72dcbf127577ae0b05d2ce004a2786a94303543f9e4f0d090621daabd4bd8bae52fc9f3255578e2b25b2ae602a47e6c92363345ffe2f6d696641bacbb4ddebce329cff523537ee4b45928e400a67c6e90343147fde0f4d4946619aeb94fdcbee12bcdf721517ce6b65726ea0ea872609e3a3f49f3eefada9a6817a0b741d2b0ef25c3f92f5f72e8b85524e80caa70629c383d4bf1ecf8d8986a15a2b543d0b2ed27c1fb2d5d70eaba5322ee0aac76649a3e3b4df7eafede9e6c13a4b345d6b4eb21c7fd2b5b76ecbc5120ec08ae7466983c394ff5e8fcdc9c6e11a6b147d4b6e923c5ff295974eebe5f2ee206a07a6896323741fbe6f2d292601fa8bf49dab8e72dcbf127577ae0b05d2ce004a2786a94303543f9e4f0d090621daabd4bd8bae52fc9f3255578e2b25b2ae602a47e6c92363345ffe2f6d696641bacbb4ddebce329cff523537ee4b45928e400a67c6e90343147fde0f4d4946619aeb94fdcbee12bcdf721517ce6b65726ea0ea872609e3a3f49f3eefada9a6817a0b741d2b0ef25c3f92f5f72e8b85524e80caa70629c383d4bf1ecf8d8986a15a2b543d0b2ed27c1fb2d5d70eaba5322ee0aac76649a3e3b4df7eafede9e6c13a4b345d6b4eb21c7fd2b5b76ecbc5120ec08ae7466983c394ff5e8fcdc9c6e11a6b147d4b6e923c5ff295974eebe5f2ee206a07a6896323741fbe6f2d292601fa8bf49dab8e72dcbf127577ae0b05d2ce004a2786a94303543f9e4f0d090621daabd4bd8bae52fc9f3255578e2b25b2ae602a47e6c92363345ffe2f6d696641bacbb4ddebce329cff523537ee4b45928e400a67c6e90343147fde0f4d4946619aeb94fdcbee12bcdf721517ce6b65726ea0ea872609e3a3f49f3eefada9a6817a0b741d2b0ef25c3f92f5f72e8b85524e80caa70629c383d4bf1ecf8d8986a15a2b543d0b2ed27c1fb2d5d70eaba5322ee0aac76649a3e3b4df7eafede9e6c13a4b345d6b4eb21c7fd2b5b76ecbc5120ec08ae7466983c394ff5e8fcdc9c6e11a6b147d4b6e923c5ff295974eebe5f2ee206a07a6896323741fbe6f2d292601fa8bf49dab8e72dcbf127577ae0b05d2ce004a2786a94303543f9e4f0d090621daabd4bd8bae52fc9f3255578e2b25b2ae602a47e6c92363345ffe2f6d696641bacbb4ddebce329cff523537ee4b45928e400a67c6e90343147fde0f4d4946619aeb94fdcbee12bcdf721517ce6b65726ea0ea872609e3a3f49f3eefada9a631e79fbe154332ebbbb961baa7d8f4ece566d4b03dc8f827cd8676232dc6e6d7",
        "type": "nulldata"
      }
    },
    {
      "value": 499965.4254,
      "n": 1,
      "scriptPubKey": {
        "asm": "1 71dd68451a36f7bb7496b2b6947dad77d8c82ec6dd89e9ebd200fe5a6ba59a38",
        "hex": "512071dd68451a36f7bb7496b2b6947dad77d8c82ec6dd89e9ebd200fe5a6ba59a38",
        "reqSigs": 1,
        "type": "witness_v1_scripthash",
        "addresses": [
          "3QJmnh"
        ]
      }
    }
  ],
  "blockhash": "2dfbfbf9a9b6a37d5bbaa2d3fd41803f08650e7d63861427b8d0526132d1543b",
  "confirmations": 1,
  "time": 1764182436,
  "blocktime": 1764182436
}