{
  "hex": "010000000001015e8c2dc945e1f6cb7ae970ba8672b8503001e00a81a7a62868353dfdad59583e0000000000feffffff02f0ceba8f782d0000225120d46319ac8ec00caf77a3f422d0486306409266a42eafdc199f2918503c5e065a00e1f50500000000fdd5046a202699ab9f659c0afb090300728e2a916472f234b05f5d108e5e401cb68314a7d64db00486aa7e132cafb4a16b49c77e5cf9b2dd2a8deb7a50cef15aa60bf1c98d691ecea68a5e330c8f94814b69e75e7cd992fd0aadcb5a70eed17a862bd1e9ad493eeec6ea3e536ceff4e12b09873e1cb9f29d6acdab3a108eb11ae64bb189cd295e8ee6ca1e734ccfd4c10b29a71e3c99d2bd4aed8b1a30ae913ac66b91a9ed097eae062afe93ac2f3421ebc947fedc79325daa0d6bfad04e71da268b71490de99e4e260adeb38c0f1401cbe967defc59127d8a2d4bdaf06e51fa06ab51692dc9be6e466abed3ec6f7461ab8907be9c39721dea4d2bba900e319a66cb31094da9de0e664a9ef3cc4f54418ba9279ebc19523dca6d0b9ab02e11ba46eb11296d89fe2e86aa7e132cafb4a16b49c77e5cf9b2dd2a8deb7a50cef15aa60bf1c98d691ecea68a5e330c8f94814b69e75e7cd992fd0aadcb5a70eed17a862bd1e9ad493eeec6ea3e536ceff4e12b09873e1cb9f29d6acdab3a108eb11ae64bb189cd295e8ee6ca1e734ccfd4c10b29a71e3c99d2bd4aed8b1a30ae913ac66b91a9ed097eae062afe93ac2f3421ebc947fedc79325daa0d6bfad04e71da268b71490de99e4e260adeb38c0f1401cbe967defc59127d8a2d4bdaf06e51fa06ab51692dc9be6e466abed3ec6f7461ab8907be9c39721dea4d2bba900e319a66cb31094da9de0e664a9ef3cc4f54418ba9279ebc19523dca6d0b9ab02e11ba46eb11296d89fe2e86aa7e132cafb4a16b49c77e5cf9b2dd2a8deb7a50cef15aa60bf1c98d691ecea68a5e330c8f94814b69e75e7cd992fd0aadcb5a70eed17a862bd1e9ad493eeec6ea3e536ceff4e12b09873e1cb9f29d6acdab3a108eb11ae64bb189cd295e8ee6ca1e734ccfd4c10b29a71e3c99d2bd4aed8b1a30ae913ac66b91a9ed097eae062afe93ac2f3421ebc947fedc79325daa0d6bfad04e71da268b71490de99e4e260adeb38c0f1401cbe967defc59127d8a2d4bdaf06e51fa06ab51692dc9be6e466abed3ec6f7461ab8907be9c39721dea4d2bba900e319a66cb31094da9de0e664a9ef3cc4f54418ba9279ebc19523dca6d0b9ab02e11ba46eb11296d89fe2e86aa7e132cafb4a16b49c77e5cf9b2dd2a8deb7a50cef15aa60bf1c98d691ecea68a5e330c8f94814b69e75e7cd992fd0aadcb5a70eed17a862bd1e9ad493eeec6ea3e536ceff4e12b09873e1cb9f29d6acdab3a108eb11ae64bb189cd295e8ee6ca1e734ccfd4c10b29a71e3c99d2bd4aed8b1a30ae913ac66b91a9ed097eae062afe93ac2f3421ebc947fedc79325daa0d6bfad04e71da268b71490de99e4e260adeb38c0f1401cbe967defc59127d8a2d4bdaf06e51fa06ab51692dc9be6e466abed3ec6f7461ab8907be9c39721dea4d2bba900e319a66cb31094da9de0e664a9ef3cc4f54418ba9279ebc19523dca6d0b9ab02e11ba46eb11296d89fe2e86aa7e132cafb4a16b49c77e5cf9b2dd2a8deb7a50cef15aa60bf1c98d691ecea68a5e330c8f94814b69e75e7cd992fd0aadcb5a70eed17a862bd1e9ad493eeec6ea3e536ceff4e12b09873e1cb9f29d6acdab3a108eb11ae64bb189cd295e8ee6ca1e734ccfd4c10b29a71e3c99d2bd4aed8b1a30ae913ac66b91a9ed097eae062afe93ac2f3421ebc947fedc79325de0e6149d40d7b0d35ff56843ed6bdbaf0a32d38e2698893f27eaec3b136c349d02fd7509c8c2e3a926bf6e608cb12327d173aca752291beff3e1995b6221705944912148ebb7a5db108f657d88f7e8ae417c90fc79513ec9a9e0a1dac5cd554ff6698a180eab6a8c02c320153fe91a6f9083a261cb92787d6cf070ffc92fb0da8a2a3cea23dba6d0943d77fae9a933df82d96b68742e81e270fb797034409e5600adf54058a7ff7010d32c30324656b9bda779b9b7104d5c5a33aac7d67377817058c7bc75093af07ea5bbb3e477369a5c086df876f1dbbe9de13c767af9085bbf13ffa3b9b33bc1da759bdfba0d9eeb3acbb7d7dc62f406aad90769131eaf99a4abfe48fac046f5975cfa27ae6b189f5dee20ba14fe4288c0af6a696a6fd451ccd8a5689f2d26b5a7f95153eaa09a61b603a398ad2a5c1ab1219accf2f0785f1789d79ecd73ecaab20a4f94abe429b11d5bbe5dc0c3eeac8383b9029474bcf5ca0690d3cccbfe37d84841aadfae1827e6d6556354b0b2f872693ea4f38018f15fc19742302925f732941aebed2e98ebff02b9e23245afa846530419250717eec104fe81ee9ead263f71fffbb77754ff52e083bb2e6515fd7d4e855bb249e25efbb94f793928bcce2fab662f475eb2453072934282702526e3b9a76541a9edd3960fbfcdf6036bd90106d65c317b33f7aed03f72e6c4211b5a251ea734c488012ef8291095379c01d002882eb37136d1325a8c0bf13ff4bd4be9b350997d2ad3b5c39d97dcf8acea8da050ac5b201ee5073e03fed54238d6f2d8818c6315e26b4c1875d797daa6543e28d5644831ab034902fe479860b294bce4b26e45b1021a95f3098b90918551a287eae4c26f5a75a70c06a61fda82f913af50b84b859777e08fc8940ae27e036ca13992519cd443fd5605538a24a75f26f52325572ad38afb1b6ac1372dae0e3f6b2386ba5ddf9dddbe9338c498c112d3bbcf0ffc1fdca7741ce211250f0699ff1a818f3b882d9764780302710bed841829e84d168d7381e213e8063f7e148c91660f0805d7212bde48d015b21b550d8d9a7ebe0b942fc775c211219f81a2ab6d026feb68530d2757f65bafe9fcb5c6fe69d9348062c8312fe24ef02c54a668667036abe6880ec399a3c994b1d50bf9d34533f6258051289f950e82a8c498d61ac98073783c4edfc0c3e0d979ed2e4d332b69ea4530960ec480b5701c51e8274badd9390d9269bc2ab37893b9d6dfe3f4a78e20a8f739c3d7071df0c2093d78c7231202df9e0ad20adb887e4fca5cf89274ef58cb0bbe05e3c209388d413264af6b78c346130aeccccb6a58711e6a8cd040e65f0c11fb8cb689f29663be0574e10db0b03065c91f13fcda85ac7430057a24668e44f328d0797119a3a132856460e93eb2aada300609074999adbd214105cb547a6d22a9a6f78b2abc4cfea606607c9dec781b2078291c729bd165a6d914b191b35f27238a0a333f18955cd2e22233fa6fff1b619c4883500f16c63f73bb4e84636d8bb5f7dfc434ec3f14ae180d51d608def6c2b9c66135b252ccfbb33a5cd83523324085e6f05ba74d30343db34a12757f804d26e42bfbb601ad3588f437f8e76e7da89728965261d99c8b33627f3fe3f8a73720791fa59e6231a2aab3012cb4f2557be6579d50c521c1315a2db4efb08e9bb44b44c8fb07f9c31c8f30faf3cec10fe21dc8e3ca378eba7dc018d3d8615836756533f6fc1e578783bd79e0f99842d6ebeff5c67ca4abbb21f3b3c1d5779849eaaf8865a056bd72e4f9eb940316776b242a79974234a347e548b49a068603ce58f8504cc42e9eaa092dc534853829e5cc933e00c40160cc2d846ede6fab5634373b7b8cbbef52844c5bbe0e0368b0e29258cc41df9a34120471e14213b6c7a9e6bb429860531d7cce381e49e2105c1c11acb843950a2ef503098c0e206b925a82c34c72d521b8b1f1b3a4d53cfd050c08eceb4bf5bf270e234a2deaa573af719997937c22bd19a0ac7d3927ba5ac4164e947c5b8b75de29a90d5ffec81159e71dc279f6574d9e76462c1a071bb3dc563676399c95664ad6973472f04e6782dd207542711cca8ff9ca9652027b3e3978112605aab767d28dd6ec15609b0f3d5a807e3975fd63ddd1d561c97be09a7f8b370eb837decf55837edd831c27bf473a7a1b506c22ea07bb98f90ed9f7ba81a1b84bfcfbbe7fa6e8dc9d816b6158d4b53e8fd3b99b423b6cef117a60446e0611433221dc3856d08fb95cf048524beaa99d3ac3028ca0cf849958f9e1b1f476572b31b35820f612db603ffd46204622e6dcd813b82696cda13ea3f658e069824686236cfa4b881c6e20e1acb2ae59314d675af683d7596d75fed9e1f4c6299151b9dcea4e7113774301dd94f1a0e0c4530681848975f7fa80301d983b91c5475aa93c8dfbf4b411f9186359289d91cdb205e06c8e705bcaf8a9b08e1ca1dc338d0a4af4466e74d3678d945f4220f11f5592e27e6ec5480243058981e75fa541381f2bec6129c7e80b1816d9041751946ff473484bd23b0b55a2a1d6e6bbcb80ccf5310d122d40e6b20ca224b4ed1dadc799a652a2ce72d9aefd0938774d685da67b4870ff328646909afa20c8d9bc7749c7dceeb3692735cc174671511983e6d02531b221807253de27047010fe5cefbccb51f080df4e62dfcfe4a3b2d412473b29f687815d70123bdf0bbf8fb76683f9673dd5bb351402a13910e62076f4ba157014b106104bebd14a9dd0633b0abd551e1da2701930868a9db26bb340c1cdca9e8d54cef4adc20e0ee978c926864693857e3eba0f3e55de1d0528b36e7e1b60e2b0e3a21bc05f0ab2afcdc2a4c486bd38991eae014af429dbcab51a065207429cb1033d2777a67f63587f67372f04ef4033ed8ecc1d529eaaaf7d846655b08a276b41bcf27f39209a37f4142d42b2115bd8b7074cb9db63079fdd4c4ae6e51a68551937119e7c91c8aa1aaa617c68cd0b24088f895be2e1b724a40a9f1d3c01b83845401edf03a7d4deb16184d112ffbc469a82f79eb647aa141b73c1129fa9a59857182cd93d1e1570c92d16d7fbacc64b4c5bac74df77eb48b9923af4e63e91dc8f59170d719f23716a1401c161c8421f7ee1c85968bc1540bef3d04f88ec0b612c2a6f9eef4edc9a45e30c943b66b3e26b4bce76107bc3775068c99967af7fa45c1c9790c3a5c8fd69521b7384c10af4bc3545adadb6e7a70ee230b01e3d7edaf9b3af473edbfe4dcec4f38c7686a5d363d275b37808849f52dd718fa1f7db80f1bb6296a4ae5067e2b567db18678ead5e4f00d3da2b81016763bb6348cd4d33c5c4c32e0e144f606869768b9eb1c2c7cad2dfe7f6fc074e6c7e929aa7cfdb0109454a607e8da3b3c0c1ca0001273857939a9cccd0d1e4f3f7f80000000000000000000000000000000000000000000000000000121b273601fd2105007d4e4bea24eff7f9377610c4b073d2e297265f58725ec4c913a7c5ad07c065d803851c59b5c14c511e8818bfda6c0fbffea4c63e2cb87b754ae3ec792aa697cf3ebddebba0cb4aab59ea2d251498c8f00df86fa3e4804a272fa386b83d926128d70caaf3f5b4dada4883880647ee18b5c8b8aa66bcea3ab0fcc421343e6ffdc26264a35a13e68d04311283ad59cce6683fdf949e265aa749f7bb01ba976c0e83b0dfc8b78513e59a170ef854b51ffc03c42854bdb1a4d5828125a6c02eab7ac900817cd1f6729de49db46ae9235718b8a1391554749e478042497351e11d7891b9868926a9fbafe2e7217a4b59d985feb2c1932aed4a89734acab4a16ad4ed755fba3364fa4905816b19c91bfac26a0a93168523c22610bd5e32d5aed4b2204cf570ffb31bd081b60f121bc3a26073932ac635dd5fa3d8c2773a8908adb76606dd8d6c0481374e880e0cfc6e55f4731acf7ebaf00cb770e7b9af40bfdc946c6741b75b967f9d68a5240f34be29b6879f2ed24e668d8904b57b858c8c3505695574f71fc753a720143b50b5b6784fb4ccd0d6bfb2c1ea95b6b4a9730d031066f9c8b81db3be48e841b10657ba37e820ad1ed970e2b527bc40d683d21d48b49a1f31eb71de93931556d8ab41062b4dd2218ee5be77275c225dbdf751cd10cd49aa405a90cc69da7e4ac2368e62d878b1c1ac6bee0616fdfe30b554dbbc67cd98f670ad0c5316d4fa6a0a18305dbe96725c71b3d6fdeb7d8d3b086f98a27b2adf5c87826c4561d3a7cfe981848e25df17b37e55891f7b345243125cfff9564acaa69c88c69a2399e19fb559166637f76c01367956d81f78ae8cd3fa9bb1dbfab0116358be81a5ec0bd694837711c41e0d2c24c3b59822663bd6ebe7b6c0b1ad309961cfed5bdb580a660ed399ba5d7a2c8fcece14d3beefb7f3636f95bd5278156c4c10fe4b20aa3e5e91a47fe88762a482dd31343b4d4757a516016ad90ddeb240f89fd9e5c257e5f005acc2a448ef883ba93d00d04f56b4d99970c99a788423e974f302792abfaf76f5e991348cc6316b6b9b81bee99d72d621969d002001bab3ecab61cbf13b869a4758d599452216333c2ac6df997aaa174f9a9c132bd83b76baf6d88e1310320227b2674c64b373ec3cd63c433a9b9650f5a1268514c199cad75f2ce07e873ce4f4e1c59546052b47ac5c6049fc2757cd6b29ee4d21abd110565790fead72bdaf77d60673dfe662cfcd9cf49fe83a534634683691fedc672b124289f0c11aad43ecc5b332c74d777906df5d65ab5919e8392b294c16c0415a6d1a5536d2a753a8b0c5443bda8af848aa9bf9ece79ddeb5946aa6a080d7a8fb6dd5f85e154c78db90ff1a16edfb7b86ad08e9c7fd6371ebc019b8a82a541ba87cf5e6e887f3fbe66f8b31a06384670619f51edf211b08b12f6c402f320fc89a0c13165114bbba5a8b5754522da38200e7de7518d1926c5b60566a2322768c95be217ef9e330606c0c033153d2f7781a1c9d34fad3a8e3918af3e0b3c32ef1727ceb0e7f9e0a22d66062ed5821841b5cb84bb423af920334f51441ff2770a469211d04b29a612f683143b692030782cbb1138909ffe3635d99cc7804e759aaa502a632a950d40c3f80469bf8b7a5f43c83641aea1ea9dc6f8cc47b91f91fa63ef151df6c20067656b76f89c1c797a6f1198c6f85102a9d44fe0be799ff127f610a4dc93ffc34129bf89a409718096f68be59c2cff7600e93dded6b877953f0e03dc224565549268d80b8da607d7e24a375dbd277a94ac5dde49702ab2bffe805b4bb4893c7b2ca8c4ea954a5dd9148a84ae46feb5eb0c5921b8a7ec8e960f22e8b000000",
  "txid": "20a33994a52c0bb132baa954ff8fe5604ece201e7d1b6aa81bde89f24ff16f35",
  "hash": "0ef0f8391056c0e547d3a70fdc4c4b23547f0d84ff5f086f819a5575a64ac6b7",
  "size": 5085,
  "vsize": 2278,
  "version": 1,
  "locktime": 139,
  "vin": [
    {
      "txid": "3e5859adfd3d356828a6a7810ae0013050b87286ba70e97acbf6e145c92d8c5e",
      "vout": 0,
      "scriptSig": {
        "asm": "",
        "hex": ""
      },
      "txinwitness": [
        "c8c2e3a926bf6e608cb12327d173aca752291beff3e1995b6221705944912148ebb7a5db108f657d88f7e8ae417c90fc79513ec9a9e0a1dac5cd554ff6698a180eab6a8c02c320153fe91a6f9083a261cb92787d6cf070ffc92fb0da8a2a3cea23dba6d0943d77fae9a933df82d96b68742e81e270fb797034409e5600adf54058a7ff7010d32c30324656b9bda779b9b7104d5c5a33aac7d67377817058c7bc75093af07ea5bbb3e477369a5c086df876f1dbbe9de13c767af9085bbf13ffa3b9b33bc1da759bdfba0d9eeb3acbb7d7dc62f406aad90769131eaf99a4abfe48fac046f5975cfa27ae6b189f5dee20ba14fe4288c0af6a696a6fd451ccd8a5689f2d26b5a7f95153eaa09a61b603a398ad2a5c1ab1219accf2f0785f1789d79ecd73ecaab20a4f94abe429b11d5bbe5dc0c3eeac8383b9029474bcf5ca0690d3cccbfe37d84841aadfae1827e6d6556354b0b2f872693ea4f38018f15fc19742302925f732941aebed2e98ebff02b9e23245afa846530419250717eec104fe81ee9ead263f71fffbb77754ff52e083bb2e6515fd7d4e855bb249e25efbb94f793928bcce2fab662f475eb2453072934282702526e3b9a76541a9edd3960fbfcdf6036bd90106d65c317b33f7aed03f72e6c4211b5a251ea734c488012ef8291095379c01d002882eb37136d1325a8c0bf13ff4bd4be9b350997d2ad3b5c39d97dcf8acea8da050ac5b201ee5073e03fed54238d6f2d8818c6315e26b4c1875d797daa6543e28d5644831ab034902fe479860b294bce4b26e45b1021a95f3098b90918551a287eae4c26f5a75a70c06a61fda82f913af50b84b859777e08fc8940ae27e036ca13992519cd443fd5605538a24a75f26f52325572ad38afb1b6ac1372dae0e3f6b2386ba5ddf9dddbe9338c498c112d3bbcf0ffc1fdca7741ce211250f0699ff1a818f3b882d9764780302710bed841829e84d168d7381e213e8063f7e148c91660f0805d7212bde48d015b21b550d8d9a7ebe0b942fc775c211219f81a2ab6d026feb68530d2757f65bafe9fcb5c6fe69d9348062c8312fe24ef02c54a668667036abe6880ec399a3c994b1d50bf9d34533f6258051289f950e82a8c498d61ac98073783c4edfc0c3e0d979ed2e4d332b69ea4530960ec480b5701c51e8274badd9390d9269bc2ab37893b9d6dfe3f4a78e20a8f739c3d7071df0c2093d78c7231202df9e0ad20adb887e4fca5cf89274ef58cb0bbe05e3c209388d413264af6b78c346130aeccccb6a58711e6a8cd040e65f0c11fb8cb689f29663be0574e10db0b03065c91f13fcda85ac7430057a24668e44f328d0797119a3a132856460e93eb2aada300609074999adbd214105cb547a6d22a9a6f78b2abc4cfea606607c9dec781b2078291c729bd165a6d914b191b35f27238a0a333f18955cd2e22233fa6fff1b619c4883500f16c63f73bb4e84636d8bb5f7dfc434ec3f14ae180d51d608def6c2b9c66135b252ccfbb33a5cd83523324085e6f05ba74d30343db34a12757f804d26e42bfbb601ad3588f437f8e76e7da89728965261d99c8b33627f3fe3f8a73720791fa59e6231a2aab3012cb4f2557be6579d50c521c1315a2db4efb08e9bb44b44c8fb07f9c31c8f30faf3cec10fe21dc8e3ca378eba7dc018d3d8615836756533f6fc1e578783bd79e0f99842d6ebeff5c67ca4abbb21f3b3c1d5779849eaaf8865a056bd72e4f9eb940316776b242a79974234a347e548b49a068603ce58f8504cc42e9eaa092dc534853829e5cc933e00c40160cc2d846ede6fab5634373b7b8cbbef52844c5bbe0e0368b0e29258cc41df9a34120471e14213b6c7a9e6bb429860531d7cce381e49e2105c1c11acb843950a2ef503098c0e206b925a82c34c72d521b8b1f1b3a4d53cfd050c08eceb4bf5bf270e234a2deaa573af719997937c22bd19a0ac7d3927ba5ac4164e947c5b8b75de29a90d5ffec81159e71dc279f6574d9e76462c1a071bb3dc563676399c95664ad6973472f04e6782dd207542711cca8ff9ca9652027b3e3978112605aab767d28dd6ec15609b0f3d5a807e3975fd63ddd1d561c97be09a7f8b370eb837decf55837edd831c27bf473a7a1b506c22ea07bb98f90ed9f7ba81a1b84bfcfbbe7fa6e8dc9d816b6158d4b53e8fd3b99b423b6cef117a60446e0611433221dc3856d08fb95cf048524beaa99d3ac3028ca0cf849958f9e1b1f476572b31b35820f612db603ffd46204622e6dcd813b82696cda13ea3f658e069824686236cfa4b881c6e20e1acb2ae59314d675af683d7596d75fed9e1f4c6299151b9dcea4e7113774301dd94f1a0e0c4530681848975f7fa80301d983b91c5475aa93c8dfbf4b411f9186359289d91cdb205e06c8e705bcaf8a9b08e1ca1dc338d0a4af4466e74d3678d945f4220f11f5592e27e6ec5480243058981e75fa541381f2bec6129c7e80b1816d9041751946ff473484bd23b0b55a2a1d6e6bbcb80ccf5310d122d40e6b20ca224b4ed1dadc799a652a2ce72d9aefd0938774d685da67b4870ff328646909afa20c8d9bc7749c7dceeb3692735cc174671511983e6d02531b221807253de27047010fe5cefbccb51f080df4e62dfcfe4a3b2d412473b29f687815d70123bdf0bbf8fb76683f9673dd5bb351402a13910e62076f4ba157014b106104bebd14a9dd0633b0abd551e1da2701930868a9db26bb340c1cdca9e8d54cef4adc20e0ee978c926864693857e3eba0f3e55de1d0528b36e7e1b60e2b0e3a21bc05f0ab2afcdc2a4c486bd38991eae014af429dbcab51a065207429cb1033d2777a67f63587f67372f04ef4033ed8ecc1d529eaaaf7d846655b08a276b41bcf27f39209a37f4142d42b2115bd8b7074cb9db63079fdd4c4ae6e51a68551937119e7c91c8aa1aaa617c68cd0b24088f895be2e1b724a40a9f1d3c01b83845401edf03a7d4deb16184d112ffbc469a82f79eb647aa141b73c1129fa9a59857182cd93d1e1570c92d16d7fbacc64b4c5bac74df77eb48b9923af4e63e91dc8f59170d719f23716a1401c161c8421f7ee1c85968bc1540bef3d04f88ec0b612c2a6f9eef4edc9a45e30c943b66b3e26b4bce76107bc3775068c99967af7fa45c1c9790c3a5c8fd69521b7384c10af4bc3545adadb6e7a70ee230b01e3d7edaf9b3af473edbfe4dcec4f38c7686a5d363d275b37808849f52dd718fa1f7db80f1bb6296a4ae5067e2b567db18678ead5e4f00d3da2b81016763bb6348cd4d33c5c4c32e0e144f606869768b9eb1c2c7cad2dfe7f6fc074e6c7e929aa7cfdb0109454a607e8da3b3c0c1ca0001273857939a9cccd0d1e4f3f7f80000000000000000000000000000000000000000000000000000121b273601",
        "007d4e4bea24eff7f9377610c4b073d2e297265f58725ec4c913a7c5ad07c065d803851c59b5c14c511e8818bfda6c0fbffea4c63e2cb87b754ae3ec792aa697cf3ebddebba0cb4aab59ea2d251498c8f00df86fa3e4804a272fa386b83d926128d70caaf3f5b4dada4883880647ee18b5c8b8aa66bcea3ab0fcc421343e6ffdc26264a35a13e68d04311283ad59cce6683fdf949e265aa749f7bb01ba976c0e83b0dfc8b78513e59a170ef854b51ffc03c42854bdb1a4d5828125a6c02eab7ac900817cd1f6729de49db46ae9235718b8a1391554749e478042497351e11d7891b9868926a9fbafe2e7217a4b59d985feb2c1932aed4a89734acab4a16ad4ed755fba3364fa4905816b19c91bfac26a0a93168523c22610bd5e32d5aed4b2204cf570ffb31bd081b60f121bc3a26073932ac635dd5fa3d8c2773a8908adb76606dd8d6c0481374e880e0cfc6e55f4731acf7ebaf00cb770e7b9af40bfdc946c6741b75b967f9d68a5240f34be29b6879f2ed24e668d8904b57b858c8c3505695574f71fc753a720143b50b5b6784fb4ccd0d6bfb2c1ea95b6b4a9730d031066f9c8b81db3be48e841b10657ba37e820ad1ed970e2b527bc40d683d21d48b49a1f31eb71de93931556d8ab41062b4dd2218ee5be77275c225dbdf751cd10cd49aa405a90cc69da7e4ac2368e62d878b1c1ac6bee0616fdfe30b554dbbc67cd98f670ad0c5316d4fa6a0a18305dbe96725c71b3d6fdeb7d8d3b086f98a27b2adf5c87826c4561d3a7cfe981848e25df17b37e55891f7b345243125cfff9564acaa69c88c69a2399e19fb559166637f76c01367956d81f78ae8cd3fa9bb1dbfab0116358be81a5ec0bd694837711c41e0d2c24c3b59822663bd6ebe7b6c0b1ad309961cfed5bdb580a660ed399ba5d7a2c8fcece14d3beefb7f3636f95bd5278156c4c10fe4b20aa3e5e91a47fe88762a482dd31343b4d4757a516016ad90ddeb240f89fd9e5c257e5f005acc2a448ef883ba93d00d04f56b4d99970c99a788423e974f302792abfaf76f5e991348cc6316b6b9b81bee99d72d621969d002001bab3ecab61cbf13b869a4758d599452216333c2ac6df997aaa174f9a9c132bd83b76baf6d88e1310320227b2674c64b373ec3cd63c433a9b9650f5a1268514c199cad75f2ce07e873ce4f4e1c59546052b47ac5c6049fc2757cd6b29ee4d21abd110565790fead72bdaf77d60673dfe662cfcd9cf49fe83a534634683691fedc672b124289f0c11aad43ecc5b332c74d777906df5d65ab5919e8392b294c16c0415a6d1a5536d2a753a8b0c5443bda8af848aa9bf9ece79ddeb5946aa6a080d7a8fb6dd5f85e154c78db90ff1a16edfb7b86ad08e9c7fd6371ebc019b8a82a541ba87cf5e6e887f3fbe66f8b31a06384670619f51edf211b08b12f6c402f320fc89a0c13165114bbba5a8b5754522da38200e7de7518d1926c5b60566a2322768c95be217ef9e330606c0c033153d2f7781a1c9d34fad3a8e3918af3e0b3c32ef1727ceb0e7f9e0a22d66062ed5821841b5cb84bb423af920334f51441ff2770a469211d04b29a612f683143b692030782cbb1138909ffe3635d99cc7804e759aaa502a632a950d40c3f80469bf8b7a5f43c83641aea1ea9dc6f8cc47b91f91fa63ef151df6c20067656b76f89c1c797a6f1198c6f85102a9d44fe0be799ff127f610a4dc93ffc34129bf89a409718096f68be59c2cff7600e93dded6b877953f0e03dc224565549268d80b8da607d7e24a375dbd277a94ac5dde49702ab2bffe805b4bb4893c7b2ca8c4ea954a5dd9148a84ae46feb5eb0c5921b8a7ec8e960f22e"
      ],
      "sequence": 4294967294
    }
  ],
  "vout": [
    {
      "value": 499958.3071,
      "n": 0,
      "scriptPubKey": {
        "asm": "1 d46319ac8ec00caf77a3f422d0486306409266a42eafdc199f2918503c5e065a",
        "hex": "5120d46319ac8ec00caf77a3f422d0486306409266a42eafdc199f2918503c5e065a",
        "reqSigs": 1,
        "type": "witness_v1_scripthash",
        "addresses": [
          "3QJmnh"
        ]
      }
    },
    {
      "value": 1.0,
      "n": 1,
      "scriptPubKey": {
        "asm": "OP_RETURN 2699ab9f659c0afb090300728e2a916472f234b05f5d108e5e401cb68314a7d6 86aa7e132cafb4a16b49c77e5cf9b2dd2a8deb7a50cef15aa60bf1c98d691ecea68a5e330c8f94814b69e75e7cd992fd0aadcb5a70eed17a862bd1e9ad493eeec6ea3e536ceff4e12b09873e1cb9f29d6acdab3a108eb11ae64bb189cd295e8ee6ca1e734ccfd4c10b29a71e3c99d2bd4aed8b1a30ae913ac66b91a9ed097eae062afe93ac2f3421ebc947fedc79325daa0d6bfad04e71da268b71490de99e4e260adeb38c0f1401cbe967defc59127d8a2d4bdaf06e51fa06ab51692dc9be6e466abed3ec6f7461ab8907be9c39721dea4d2bba900e319a66cb31094da9de0e664a9ef3cc4f54418ba9279ebc19523dca6d0b9ab02e11ba46eb11296d89fe2e86aa7e132cafb4a16b49c77e5cf9b2dd2a8deb7a50cef15aa60bf1c98d691ecea68a5e330c8f94814b69e75e7cd992fd0aadcb5a70eed17a862bd1e9ad493eeec6ea3e536ceff4e12b09873e1cb9f29d6acdab3a108eb11ae64bb189cd295e8ee6ca1e734ccfd4c10b29a71e3c99d2bd4aed8b1a30ae913ac66b91a9ed097eae062afe93ac2f3421ebc947fedc79325daa0d6bfad04e71da268b71490de99e4e260adeb38c0f1401cbe967defc59127d8a2d4bdaf06e51fa06ab51692dc9be6e466abed3ec6f7461ab8907be9c39721dea4d2bba900e319a66cb31094da9de0e664a9ef3cc4f54418ba9279ebc19523dca6d0b9ab02e11ba46eb11296d89fe2e86aa7e132cafb4a16b49c77e5cf9b2dd2a8deb7a50cef15aa60bf1c98d691ecea68a5e330c8f94814b69e75e7cd992fd0aadcb5a70eed17a862bd1e9ad493eeec6ea3e536ceff4e12b09873e1cb9f29d6acdab3a108eb11ae64bb189cd295e8ee6ca1e734ccfd4c10b29a71e3c99d2bd4aed8b1a30ae913ac66b91a9ed097eae062afe93ac2f3421ebc947fedc79325daa0d6bfad04e71da268b71490de99e4e260adeb38c0f1401cbe967defc59127d8a2d4bdaf06e51fa06ab51692dc9be6e466abed3ec6f7461ab8907be9c39721dea4d2bba900e319a66cb31094da9de0e664a9ef3cc4f54418ba9279ebc19523dca6d0b9ab02e11ba46eb11296d89fe2e86aa7e132cafb4a16b49c77e5cf9b2dd2a8deb7a50cef15aa60bf1c98d691ecea68a5e330c8f94814b69e75e7cd992fd0aadcb5a70eed17a862bd1e9ad493eeec6ea3e536ceff4e12b09873e1cb9f29d6acdab3a108eb11ae64bb189cd295e8ee6ca1e734ccfd4c10b29a71e3c99d2bd4aed8b1a30ae913ac66b91a9ed097eae062afe93ac2f3421ebc947fedc79325daa0d6bfad04e71da268b71490de99e4e260adeb38c0f1401cbe967defc59127d8a2d4bdaf06e51fa06ab51692dc9be6e466abed3ec6f7461ab8907be9c39721dea4d2bba900e319a66cb31094da9de0e664a9ef3cc4f54418ba9279ebc19523dca6d0b9ab02e11ba46eb11296d89fe2e86aa7e132cafb4a16b49c77e5cf9b2dd2a8deb7a50cef15aa60bf1c98d691ecea68a5e330c8f94814b69e75e7cd992fd0aadcb5a70eed17a862bd1e9ad493eeec6ea3e536ceff4e12b09873e1cb9f29d6acdab3a108eb11ae64bb189cd295e8ee6ca1e734ccfd4c10b29a71e3c99d2bd4aed8b1a30ae913ac66b91a9ed097eae062afe93ac2f3421ebc947fedc79325de0e6149d40d7b0d35ff56843ed6bdbaf0a32d38e2698893f27eaec3b136c349d",
        "hex": "6a202699ab9f659c0afb090300728e2a916472f234b05f5d108e5e401cb68314a7d64db00486aa7e132cafb4a16b49c77e5cf9b2dd2a8deb7a50cef15aa60bf1c98d691ecea68a5e330c8f94814b69e75e7cd992fd0aadcb5a70eed17a862bd1e9ad493eeec6ea3e536ceff4e12b09873e1cb9f29d6acdab3a108eb11ae64bb189cd295e8ee6ca1e734ccfd4c10b29a71e3c99d2bd4aed8b1a30ae913ac66b91a9ed097eae062afe93ac2f3421ebc947fedc79325daa0d6bfad04e71da268b71490de99e4e260adeb38c0f1401cbe967defc59127d8a2d4bdaf06e51fa06ab51692dc9be6e466abed3ec6f7461ab8907be9c39721dea4d2bba900e319a66cb31094da9de0e664a9ef3cc4f54418ba9279ebc19523dca6d0b9ab02e11ba46eb11296d89fe2e86aa7e132cafb4a16b49c77e5cf9b2dd2a8deb7a50cef15aa60bf1c98d691ecea68a5e330c8f94814b69e75e7cd992fd0aadcb5a70eed17a862bd1e9ad493eeec6ea3e536ceff4e12b09873e1cb9f29d6acdab3a108eb11ae64bb189cd295e8ee6ca1e734ccfd4c10b29a71e3c99d2bd4aed8b1a30ae913ac66b91a9ed097eae062afe93ac2f3421ebc947fedc79325daa0d6bfad04e71da268b71490de99e4e260adeb38c0f1401cbe967defc59127d8a2d4bdaf06e51fa06ab51692dc9be6e466abed3ec6f7461ab8907be9c39721dea4d2bba900e319a66cb31094da9de0e664a9ef3cc4f54418ba9279ebc19523dca6d0b9ab02e11ba46eb11296d89fe2e86aa7e132cafb4a16b49c77e5cf9b2dd2a8deb7a50cef15aa60bf1c98d691ecea68a5e330c8f94814b69e75e7cd992fd0aadcb5a70eed17a862bd1e9ad493eeec6ea3e536ceff4e12b09873e1cb9f29d6acdab3a108eb11ae64bb189cd295e8ee6ca1e734ccfd4c10b29a71e3c99d2bd4aed8b1a30ae913ac66b91a9ed097eae062afe93ac2f3421ebc947fedc79325daa0d6bfad04e71da268b71490de99e4e260adeb38c0f1401cbe967defc59127d8a2d4bdaf06e51fa06ab51692dc9be6e466abed3ec6f7461ab8907be9c39721dea4d2bba900e319a66cb31094da9de0e664a9ef3cc4f54418ba9279ebc19523dca6d0b9ab02e11ba46eb11296d89fe2e86aa7e132cafb4a16b49c77e5cf9b2dd2a8deb7a50cef15aa60bf1c98d691ecea68a5e330c8f94814b69e75e7cd992fd0aadcb5a70eed17a862bd1e9ad493eeec6ea3e536ceff4e12b09873e1cb9f29d6acdab3a108eb11ae64bb189cd295e8ee6ca1e734ccfd4c10b29a71e3c99d2bd4aed8b1a30ae913ac66b91a9ed097eae062afe93ac2f3421ebc947fedc79325daa0d6bfad04e71da268b71490de99e4e260adeb38c0f1401cbe967defc59127d8a2d4bdaf06e51fa06ab51692dc9be6e466abed3ec6f7461ab8907be9c39721dea4d2bba900e319a66cb31094da9de0e664a9ef3cc4f54418ba9279ebc19523dca6d0b9ab02e11ba46eb11296d89fe2e86aa7e132cafb4a16b49c77e5cf9b2dd2a8deb7a50cef15aa60bf1c98d691ecea68a5e330c8f94814b69e75e7cd992fd0aadcb5a70eed17a862bd1e9ad493eeec6ea3e536ceff4e12b09873e1cb9f29d6acdab3a108eb11ae64bb189cd295e8ee6ca1e734ccfd4c10b29a71e3c99d2bd4aed8b1a30ae913ac66b91a9ed097eae062afe93ac2f3421ebc947fedc79325de0e6149d40d7b0d35ff56843ed6bdbaf0a32d38e2698893f27eaec3b136c349d",
        "type": "nulldata"
      }
    }
  ],
  "blockhash": "fe774b47c0e88c04e0fb50de4979690042b0828e482e852985a1cce393f947a2",
  "confirmations": 1,
  "time": 1764183806,
  "blocktime": 1764183806
}