{
  "hex": "01000000000101658278ed19b1c16c3ccef290b682322af94faf8fe8261bfa36d5957447da6a580100000000feffffff0200e1f50500000000fdd5046a20a96e7c111e40be4b679fe8a625ae40e4441fd5a8d607f74e230eb3d36f4cf70c4db004b3b16399a6ac3ec963fd4e13d1f213103bba2507c335ccf5c02fe4f0939de09c939143b9868c1ee943dd6e33f1d233301b9a0527e315ecd5e00fc4d0b3bdc0bcf3f123d9e6ec7e8923bd0e5391b253507bfa654783758cb5806fa4b0d3dda0dcd3d103f9c6cc5ea9039d2e73b19273705bda4567a355ac95a04f8490f3fd80fc3331e319262cbe49e37dce9351729390bb3aa58743b54c7540af6470131d601c1311c339060c9e69c35deeb37152b3b09b1a85a763956c55608f4450333d403c7371a359666cfe09a33d8ed31132d3d0fb7ae5c703f50c3500ef2430535d205c53518379464cde29831daef33112f3f0db5ac5e723d52c1520cf0410737d007cb3b16399a6ac3ec963fd4e13d1f213103bba2507c335ccf5c02fe4f0939de09c939143b9868c1ee943dd6e33f1d233301b9a0527e315ecd5e00fc4d0b3bdc0bcf3f123d9e6ec7e8923bd0e5391b253507bfa654783758cb5806fa4b0d3dda0dcd3d103f9c6cc5ea9039d2e73b19273705bda4567a355ac95a04f8490f3fd80fc3331e319262cbe49e37dce9351729390bb3aa58743b54c7540af6470131d601c1311c339060c9e69c35deeb37152b3b09b1a85a763956c55608f4450333d403c7371a359666cfe09a33d8ed31132d3d0fb7ae5c703f50c3500ef2430535d205c53518379464cde29831daef33112f3f0db5ac5e723d52c1520cf0410737d007cb3b16399a6ac3ec963fd4e13d1f213103bba2507c335ccf5c02fe4f0939de09c939143b9868c1ee943dd6e33f1d233301b9a0527e315ecd5e00fc4d0b3bdc0bcf3f123d9e6ec7e8923bd0e5391b253507bfa654783758cb5806fa4b0d3dda0dcd3d103f9c6cc5ea9039d2e73b19273705bda4567a355ac95a04f8490f3fd80fc3331e319262cbe49e37dce9351729390bb3aa58743b54c7540af6470131d601c1311c339060c9e69c35deeb37152b3b09b1a85a763956c55608f4450333d403c7371a359666cfe09a33d8ed31132d3d0fb7ae5c703f50c3500ef2430535d205c53518379464cde29831daef33112f3f0db5ac5e723d52c1520cf0410737d007cb3b16399a6ac3ec963fd4e13d1f213103bba2507c335ccf5c02fe4f0939de09c939143b9868c1ee943dd6e33f1d233301b9a0527e315ecd5e00fc4d0b3bdc0bcf3f123d9e6ec7e8923bd0e5391b253507bfa654783758cb5806fa4b0d3dda0dcd3d103f9c6cc5ea9039d2e73b19273705bda4567a355ac95a04f8490f3fd80fc3331e319262cbe49e37dce9351729390bb3aa58743b54c7540af6470131d601c1311c339060c9e69c35deeb37152b3b09b1a85a763956c55608f4450333d403c7371a359666cfe09a33d8ed31132d3d0fb7ae5c703f50c3500ef2430535d205c53518379464cde29831daef33112f3f0db5ac5e723d52c1520cf0410737d007cb3b16399a6ac3ec963fd4e13d1f213103bba2507c335ccf5c02fe4f0939de09c939143b9868c1ee943dd6e33f1d233301b9a0527e315ecd5e00fc4d0b3bdc0bcf3f123d9e6ec7e8923bd0e5391b253507bfa654783758cb5806fa4b0d3dda0dcd3d103f9c6cc5ea9039d2e73b19273705bda4567a355ac95a04f8490f3fd80fc3331e319262cbe49e37dce935172939039e683bd63b71155678fa5f6a80eafa29126102301226faf3af6c96c12a5eece1076cf5d792d00002251207e0d1ac04fe466a2002149aee3dd0ba6b9c332beb14a16e51b21cbead5fee8fb02fd750960b6ceb7a557bd4741c7d8abe0b6a2aab39705d92b7cf36594bbaaa42de20a16376caaf25cb40c7b80ea1b9c3153bc3dbc444f97ded99183c2e722c3ace38a7547f2acd8b882489f231e207e00ca1e269801a8a83649cae7e0c4d93aa6fb8f5b274239425ec3d51992a889dd2eab88a9d8a9e6fd668befcf64beccfdf71b9fcdcdcc6ac73ba166d2b466241d6b8b3389d1342281acfa97ad43d0f35afb026644487f40c3373cdd0bcda7a66e0201ab33ac0c87d29544440faf9881ac42a57a359d4213cf1273ca68832c6544f75a62c517f2e440a48ff84227380611d36899d93718028d681317ac842811bbb4e6e8f40d2e397ebf38c7bf67ed3c6fd7118a972aca40670b2e93b2c777feae6e3dd2886f7742870177d2a953703a3fdec9233bb6602735a06d29006988de08a4fd2490432504ea39b01908b28d680f99531b34b661e56b961529d2dbbb2b0ffbb6c84c33b1911be709815adf493b895391bf4708f5bf2a9b2c1ad12b73e1c04c371d8d80563fd12c7754e7cb73126b6e893b3a62cc022027de257f79c8e17d08ccbd5df9e7fedcea14363f530efefaf39ae35a8e705aad601102473c3abb6a4b4e93a6f0cdc73f667928733e2e196fb76cdf022c80594280b720cd43e6f2bcf8fa26db3a031677eeacb38b0f625c25c7d9654489e8208616221501bde1045d78233f34d01f6417319851f16373e25e907fed1b9751577a1c76178b05779a216d85cbe93f0c4d38c2d7e11892c2380cffca90696313a220bd52ae0f105d3fd441bf4a0e12a445ca2bd2e4bb62fd2415ccd6192c07ecd27f304445c8d6acdb20c890f32e80ca2425e9f32224af02bb2c5a8b14b6ea407438fd365bbe69e965f4fc4a21b773fca1ddb0270fa577d3e41655aae40eafa9142d77354a0827cbe7a6951070c1ad22e56eb1283326b533835a2da7e846dc0fe1d87e398e7cdb8cfa0e617da5fd0f133ffa523165b56c5077638a18f5cf87007a87681ffec7c58d0982c6fe5b08bb93987927d1711ce7cfb73c76c543ca895426304c8de2e54fa2475a9c62b99fa5c3bb7b10f6196c09e39e4372581ef44d9322a5cb8407df2c2c93fb8b6e2a1774d009697706f391f63b9577ff3a4f3e23f78718bd02c310c51de5b695e1e49c83f33f6f0ede03b5bcc333828487e5f6a2c656aa5bb602f5948a6c08800823a120247a7057d80dde6c324a1791f26940f837c16686f2ade741521387d9ed7f7631a58bb0a52abd817e9480aec1cf0078c5b8e640d2266fe3f398889a057d9ba7e3f3bf2e40570832a62fe6163e358759932bdfbadbc73a0324c410fbfef19248088715fa6b75613790b95b9d51dc6e756d72027142097b3ae5ce4a88d1b73b8d749bf500d87e6abb2759d88633ec63c2865d7499cd5294c8d5a92f1e3c4992082982479b0a746ee4526da455e51895fad2b1673e5bf7330273b5d244a36d1b551af4c09125ef275247709074e5eb69fe1fdb4ebb7a9ba8d4e399f778938dc6c9ec29c1b875d9ce7efdf9c5d51f0125972d2269f38610e3808141769f42c77fb99f71229c3f0747adef48d5a3c02d05cb2d7bccbb3e2b248840c1c42f343d23483c706d2d8d8c46a57aefa7b70ec117aa9ad7a3f94c969b4a893f3f9efa39f082468d1bd9323185070249a2ded92cc9bf9e6efc20cb57c3b5745e696f56cfd1fe97b06262590f139b2c42fc1fe174390084a4e20d0679d41934b1af168cdff064de3e836a1580f5aee72ae4d1a2a2b78b07721b3cf63f242d5c82a141a4b262c59f50fea82c8a82ccefef21c0aaf14a5873136b3ef2814b4744b7845e2622a302389aa681a32904c06806c07ca3eeaeab092c5b7ec9b8414e1822acc38a7f6c755543d3dfa3809cab9f449185fe016cf1c61941ab2fdc84dc4daf541125f6f9d1d0862f94f12790d43aa2554556546ba4857c6f52f756fd3d4beeb8b4c38524ac7cffee8277b305839721181eddc573a6659c8ace8272b20f3929117e4ba98bafc24a58e55e3f8694db3e8460725bc1ee53bb22f0a886e7c7598eaf573ace57b89f1e3dbc22af95bc2eefbc9e9638dc891ed665d117597a6d7fac9ad408524584f6439c233654fa7f1385509b812eddd5be0c2187cf337831ebb059206d52172c37158d0ecf692802fef89d59f6062925492301855ecf48374e8bd11477824e886f0e3611f3f46cc4d86cf6b367de7b478dc663fb3c20e65775b3340000b8eb4af0a4e1e6f923c97c0f4d5b00fda8de90086f8686f72c4a71203d0e36b2822e953f3eb3ba96a0d653f56480d10082543a298991b649540118b97584a1ed5692af8ddbd4132fc57d3d95ef91a9349ab6a23c08b555052620bae9ec2547593333162211e806f1e50797a365bb62d66b94d2c31e9655650e39da707d7fe2d3fe7027594e8199d50109e1277dcb4f65950fe6ebf707050a6eb8c5d045818510393e8287a2f08e782f635a09f4f905c0d163a4b3cf20115ef69bfd0adfead342a09226a0e3c2469a7305a34876974152496dd3fcedbf0ca18d8ee6ebef271f5da8a4767a71ad0b366d1a602ab627dbdec23cb89b8b4c1ff441d71fb2f2d9b3f8010b548b3606fa36537df16a711263aedb505abb35bf29554c5f05036d8e10319add2194604bd6031bd7f3e3b982b86d9768a8a2e244797284cb059a58a92334b87c998e2dab0fbd4bca528eeff78b94d8dda81ccab6b9c57eee0d801c93ebf883f4c9e4029cf294f6cb6063e019411fc9e39754db560cf4db562ece0743ce59aeffc8090864270db408cc5d8e34c7b62f15b504a266b68195e3e085093775aa054d43640ec2f552b2f3f391129df80f494d336f88fef25384291e6207f464f6628ada8c7ec532bc4568bea39c3d7cf1a114f5802f469b8031dcf67b5e02504a5a037eb775f31c6d9f2811e95e964d7df1cda31e3a27ee3bbde0232acd5174affba0473416cc820c9a1017bf707bd43e3bff655a34957ba88877f05a835da28595507ff3aa56063ff71b56aae051806d355dc08b0ecb704a353b56ad934925ba9325bda0507c58ab3a20bbd5679b16bdab2356dd30c2b108554dc7e99aca9aa867d8bb2e061d0993677b9bed4f00a6c0ffaa6e1b23443fe546f2516e3bb86f40c7f525c1ed2273f00781d3089fb95b5335fdd686be95e2413d72498eead5c66c24ceb833487e29597307ccc6875bcf70ec6c47defed07172b74ef753f515ce30aceac7d86f53e1dbc3fe763e5e72310d2b5cb675a6b20702fb438db39832f4529d87896ba5c8e4d8f0c9a7c0b1d30f91f6d5fe000e2a6d9bc8daebf21e2835484f5b6d79878e9198a7acb0dcebff10181e2b414a5456636f8c979a9ca3baedf0f6fa475762668b8c91999ca5b8cdd7d9df000000000000000000000000000000000000091b2f3e01fd21050081e7bb8612f5076b23f3915090aeb9e6624ef45abda71907cc1ef57604849d72ef153ed4a2bc2edd73580e0b457a6d873db82a34254bb75132ab11fc8623f07e5020418eca6b79945c45c7bc50942c7a49db2e804a24c8bc56b02bc485fadf93f3aaf19c8510f05dc2e4eecb7d54b0e527dd67033efa74d40b5dc2261e3c0812a30de42c0fdf5af8ca95c119517212a7eef75dc70a744feda2e173a8f8974b54bf24892a5ec82882a718020ec96c2d0a4ec9fef1b1455937818556416c8b19e51d344df4c76659c01e5979fd8c4091016dca11c1a73b7612b2b7d3b7fdfa7c48bfaaa5e668b3e7ca0d6bf91e44e5064ae130fa6c47913f90b32f13b239fd5e22410f964d7f43e54a14bc7333e80d2989ec743cf4d76bce2fe5d239505596050385e65f7b64a3aa282302b83b32990c09e322266a95b7ffef8df8aed36a1e8fcf75e5c2bc242295206f6b2abc7d70e66b035d70dbda3990ea9eac49032d9e3685a6b9c98719ae38873032c224e9e4313f2b441229018e1c25be647529ba4edca73ac2d2b6b0d03b3b94ccb90b3d6e053e4e23de9d32e1fa0fa6ddcd1273894f7ac2eda1f2288f3b1dfae656e2b9ebf8f96f31ee2c8e627a54b1f2755e8d9158be25af407e616439386317647b6afe67a063ebb55705b1f88a125ada42c9c6d8cb3c95f1dd907dac74c459877275c250ab041588a88c26ac57def2e60810d4e3e94c6ee9970a390dd78d033e664514801f016986839892cfa56b2ec5e364e8a3f1e31295264d6e90e856e70f8f57c3f939eed5e0ba624e8ffb948c4e895ac2c0fc86e6f0cb12bc8b52e17a192d014a8af9d204ee463986a9989d95da962eca26b782209857cfa05ec7ace055d44d0c95d63be988eff0dd67beda7c075e41063582445bad81ab2277b412c6e6ea76e491520c518caa10d14b4d8bb4c76aecb0b7d326bd67364b050d6f5799e8ea22eae75d4d40d5544948cc07a175a4a954b56ec8b2975310697132725a8e6bd4edd03f8d7978f2b1f05cf0d171aef997021535e3c211cad703ef0b84bde2414c07849fadeee8a8241b486a6b4396a936c40dea34c704919372a8faa89e66721725ab4731b2231d1740268d555dcf00498fc61172688086b2d785cc102832ad40536a29b8087d100bc4149e44f21052fc906e1d1b5a1095a3e6a8dec87d3584a7f552e7249895fddffd4ef27b6b798b9d9b93861cff123bf22faf8760d7aca6fb50282b6cf24cb5866c6b4663085e0048b8406e2e1ee4c035e5e184ce10238c6ca0aef9f8fe7cb1a0f36a7d33fd52077bf0125e8ada012cdead3984541379ab71027d68579fd0394890d642c19e27a1c5803a9f0c1ffc06790be0dddb980019ab60a30e2727db3ce2d3f2a9e39b28839889ea227a56cc642f9e52fcda8f4e2999edd532b29038dd1c0fa43a3356b21f2fc6eccdb1c35f36b2d5d8b4c9da1e4dc02e5e604548662a0545b8692c1fe66a03ceffb809eb44bc1512164c84e0eba3ccbc3976237385f86e008571fb44c3e09e71d90c1724d2760e2b203df7b4edb8c0979fcbecfe9cc83c4abcd093533e737a71c38ec7e2170272c0ae9350d71c5bc130b2920dfa406b8fe4501aaafda5cf44c3d059e6d6811e17ddfe55dfc8bc99d663b44b92bd3e06d68729fcc9ab5b14ebd4fe570c47324637a34c5ae178123d4196565aa24550ed6d2d9cc0abbc8500cd3bcf0a047195347e0342c09d21b1d2628a0754c600b63246af4b8a9f871abd8818c70797afa1de1b43f467990bfb03f8e2f2d000bb70ee68b56184a979b4a2519b49646a2098a31130edac9f10cf2d4288ebb121f0eeeb17c458c4d0b542dc372c4328d769000000",
  "txid": "20abdf1f7818470dba3683baf26003bb00495e5e34dc1333b056e15980587c32",
  "hash": "a34a2d1f1b6825aeb9a04958d88a41bd53e8f887f6190834df615b916c1e7023",
  "size": 5085,
  "vsize": 2278,
  "version": 1,
  "locktime": 105,
  "vin": [
    {
      "txid": "586ada477495d536fa1b26e88faf4ff92a3282b690f2ce3c6cc1b119ed788265",
      "vout": 1,
      "scriptSig": {
        "asm": "",
        "hex": ""
      },
      "txinwitness": [
        "60b6ceb7a557bd4741c7d8abe0b6a2aab39705d92b7cf36594bbaaa42de20a16376caaf25cb40c7b80ea1b9c3153bc3dbc444f97ded99183c2e722c3ace38a7547f2acd8b882489f231e207e00ca1e269801a8a83649cae7e0c4d93aa6fb8f5b274239425ec3d51992a889dd2eab88a9d8a9e6fd668befcf64beccfdf71b9fcdcdcc6ac73ba166d2b466241d6b8b3389d1342281acfa97ad43d0f35afb026644487f40c3373cdd0bcda7a66e0201ab33ac0c87d29544440faf9881ac42a57a359d4213cf1273ca68832c6544f75a62c517f2e440a48ff84227380611d36899d93718028d681317ac842811bbb4e6e8f40d2e397ebf38c7bf67ed3c6fd7118a972aca40670b2e93b2c777feae6e3dd2886f7742870177d2a953703a3fdec9233bb6602735a06d29006988de08a4fd2490432504ea39b01908b28d680f99531b34b661e56b961529d2dbbb2b0ffbb6c84c33b1911be709815adf493b895391bf4708f5bf2a9b2c1ad12b73e1c04c371d8d80563fd12c7754e7cb73126b6e893b3a62cc022027de257f79c8e17d08ccbd5df9e7fedcea14363f530efefaf39ae35a8e705aad601102473c3abb6a4b4e93a6f0cdc73f667928733e2e196fb76cdf022c80594280b720cd43e6f2bcf8fa26db3a031677eeacb38b0f625c25c7d9654489e8208616221501bde1045d78233f34d01f6417319851f16373e25e907fed1b9751577a1c76178b05779a216d85cbe93f0c4d38c2d7e11892c2380cffca90696313a220bd52ae0f105d3fd441bf4a0e12a445ca2bd2e4bb62fd2415ccd6192c07ecd27f304445c8d6acdb20c890f32e80ca2425e9f32224af02bb2c5a8b14b6ea407438fd365bbe69e965f4fc4a21b773fca1ddb0270fa577d3e41655aae40eafa9142d77354a0827cbe7a6951070c1ad22e56eb1283326b533835a2da7e846dc0fe1d87e398e7cdb8cfa0e617da5fd0f133ffa523165b56c5077638a18f5cf87007a87681ffec7c58d0982c6fe5b08bb93987927d1711ce7cfb73c76c543ca895426304c8de2e54fa2475a9c62b99fa5c3bb7b10f6196c09e39e4372581ef44d9322a5cb8407df2c2c93fb8b6e2a1774d009697706f391f63b9577ff3a4f3e23f78718bd02c310c51de5b695e1e49c83f33f6f0ede03b5bcc333828487e5f6a2c656aa5bb602f5948a6c08800823a120247a7057d80dde6c324a1791f26940f837c16686f2ade741521387d9ed7f7631a58bb0a52abd817e9480aec1cf0078c5b8e640d2266fe3f398889a057d9ba7e3f3bf2e40570832a62fe6163e358759932bdfbadbc73a0324c410fbfef19248088715fa6b75613790b95b9d51dc6e756d72027142097b3ae5ce4a88d1b73b8d749bf500d87e6abb2759d88633ec63c2865d7499cd5294c8d5a92f1e3c4992082982479b0a746ee4526da455e51895fad2b1673e5bf7330273b5d244a36d1b551af4c09125ef275247709074e5eb69fe1fdb4ebb7a9ba8d4e399f778938dc6c9ec29c1b875d9ce7efdf9c5d51f0125972d2269f38610e3808141769f42c77fb99f71229c3f0747adef48d5a3c02d05cb2d7bccbb3e2b248840c1c42f343d23483c706d2d8d8c46a57aefa7b70ec117aa9ad7a3f94c969b4a893f3f9efa39f082468d1bd9323185070249a2ded92cc9bf9e6efc20cb57c3b5745e696f56cfd1fe97b06262590f139b2c42fc1fe174390084a4e20d0679d41934b1af168cdff064de3e836a1580f5aee72ae4d1a2a2b78b07721b3cf63f242d5c82a141a4b262c59f50fea82c8a82ccefef21c0aaf14a5873136b3ef2814b4744b7845e2622a302389aa681a32904c06806c07ca3eeaeab092c5b7ec9b8414e1822acc38a7f6c755543d3dfa3809cab9f449185fe016cf1c61941ab2fdc84dc4daf541125f6f9d1d0862f94f12790d43aa2554556546ba4857c6f52f756fd3d4beeb8b4c38524ac7cffee8277b305839721181eddc573a6659c8ace8272b20f3929117e4ba98bafc24a58e55e3f8694db3e8460725bc1ee53bb22f0a886e7c7598eaf573ace57b89f1e3dbc22af95bc2eefbc9e9638dc891ed665d117597a6d7fac9ad408524584f6439c233654fa7f1385509b812eddd5be0c2187cf337831ebb059206d52172c37158d0ecf692802fef89d59f6062925492301855ecf48374e8bd11477824e886f0e3611f3f46cc4d86cf6b367de7b478dc663fb3c20e65775b3340000b8eb4af0a4e1e6f923c97c0f4d5b00fda8de90086f8686f72c4a71203d0e36b2822e953f3eb3ba96a0d653f56480d10082543a298991b649540118b97584a1ed5692af8ddbd4132fc57d3d95ef91a9349ab6a23c08b555052620bae9ec2547593333162211e806f1e50797a365bb62d66b94d2c31e9655650e39da707d7fe2d3fe7027594e8199d50109e1277dcb4f65950fe6ebf707050a6eb8c5d045818510393e8287a2f08e782f635a09f4f905c0d163a4b3cf20115ef69bfd0adfead342a09226a0e3c2469a7305a34876974152496dd3fcedbf0ca18d8ee6ebef271f5da8a4767a71ad0b366d1a602ab627dbdec23cb89b8b4c1ff441d71fb2f2d9b3f8010b548b3606fa36537df16a711263aedb505abb35bf29554c5f05036d8e10319add2194604bd6031bd7f3e3b982b86d9768a8a2e244797284cb059a58a92334b87c998e2dab0fbd4bca528eeff78b94d8dda81ccab6b9c57eee0d801c93ebf883f4c9e4029cf294f6cb6063e019411fc9e39754db560cf4db562ece0743ce59aeffc8090864270db408cc5d8e34c7b62f15b504a266b68195e3e085093775aa054d43640ec2f552b2f3f391129df80f494d336f88fef25384291e6207f464f6628ada8c7ec532bc4568bea39c3d7cf1a114f5802f469b8031dcf67b5e02504a5a037eb775f31c6d9f2811e95e964d7df1cda31e3a27ee3bbde0232acd5174affba0473416cc820c9a1017bf707bd43e3bff655a34957ba88877f05a835da28595507ff3aa56063ff71b56aae051806d355dc08b0ecb704a353b56ad934925ba9325bda0507c58ab3a20bbd5679b16bdab2356dd30c2b108554dc7e99aca9aa867d8bb2e061d0993677b9bed4f00a6c0ffaa6e1b23443fe546f2516e3bb86f40c7f525c1ed2273f00781d3089fb95b5335fdd686be95e2413d72498eead5c66c24ceb833487e29597307ccc6875bcf70ec6c47defed07172b74ef753f515ce30aceac7d86f53e1dbc3fe763e5e72310d2b5cb675a6b20702fb438db39832f4529d87896ba5c8e4d8f0c9a7c0b1d30f91f6d5fe000e2a6d9bc8daebf21e2835484f5b6d79878e9198a7acb0dcebff10181e2b414a5456636f8c979a9ca3baedf0f6fa475762668b8c91999ca5b8cdd7d9df000000000000000000000000000000000000091b2f3e01",
        "0081e7bb8612f5076b23f3915090aeb9e6624ef45abda71907cc1ef57604849d72ef153ed4a2bc2edd73580e0b457a6d873db82a34254bb75132ab11fc8623f07e5020418eca6b79945c45c7bc50942c7a49db2e804a24c8bc56b02bc485fadf93f3aaf19c8510f05dc2e4eecb7d54b0e527dd67033efa74d40b5dc2261e3c0812a30de42c0fdf5af8ca95c119517212a7eef75dc70a744feda2e173a8f8974b54bf24892a5ec82882a718020ec96c2d0a4ec9fef1b1455937818556416c8b19e51d344df4c76659c01e5979fd8c4091016dca11c1a73b7612b2b7d3b7fdfa7c48bfaaa5e668b3e7ca0d6bf91e44e5064ae130fa6c47913f90b32f13b239fd5e22410f964d7f43e54a14bc7333e80d2989ec743cf4d76bce2fe5d239505596050385e65f7b64a3aa282302b83b32990c09e322266a95b7ffef8df8aed36a1e8fcf75e5c2bc242295206f6b2abc7d70e66b035d70dbda3990ea9eac49032d9e3685a6b9c98719ae38873032c224e9e4313f2b441229018e1c25be647529ba4edca73ac2d2b6b0d03b3b94ccb90b3d6e053e4e23de9d32e1fa0fa6ddcd1273894f7ac2eda1f2288f3b1dfae656e2b9ebf8f96f31ee2c8e627a54b1f2755e8d9158be25af407e616439386317647b6afe67a063ebb55705b1f88a125ada42c9c6d8cb3c95f1dd907dac74c459877275c250ab041588a88c26ac57def2e60810d4e3e94c6ee9970a390dd78d033e664514801f016986839892cfa56b2ec5e364e8a3f1e31295264d6e90e856e70f8f57c3f939eed5e0ba624e8ffb948c4e895ac2c0fc86e6f0cb12bc8b52e17a192d014a8af9d204ee463986a9989d95da962eca26b782209857cfa05ec7ace055d44d0c95d63be988eff0dd67beda7c075e41063582445bad81ab2277b412c6e6ea76e491520c518caa10d14b4d8bb4c76aecb0b7d326bd67364b050d6f5799e8ea22eae75d4d40d5544948cc07a175a4a954b56ec8b2975310697132725a8e6bd4edd03f8d7978f2b1f05cf0d171aef997021535e3c211cad703ef0b84bde2414c07849fadeee8a8241b486a6b4396a936c40dea34c704919372a8faa89e66721725ab4731b2231d1740268d555dcf00498fc61172688086b2d785cc102832ad40536a29b8087d100bc4149e44f21052fc906e1d1b5a1095a3e6a8dec87d3584a7f552e7249895fddffd4ef27b6b798b9d9b93861cff123bf22faf8760d7aca6fb50282b6cf24cb5866c6b4663085e0048b8406e2e1ee4c035e5e184ce10238c6ca0aef9f8fe7cb1a0f36a7d33fd52077bf0125e8ada012cdead3984541379ab71027d68579fd0394890d642c19e27a1c5803a9f0c1ffc06790be0dddb980019ab60a30e2727db3ce2d3f2a9e39b28839889ea227a56cc642f9e52fcda8f4e2999edd532b29038dd1c0fa43a3356b21f2fc6eccdb1c35f36b2d5d8b4c9da1e4dc02e5e604548662a0545b8692c1fe66a03ceffb809eb44bc1512164c84e0eba3ccbc3976237385f86e008571fb44c3e09e71d90c1724d2760e2b203df7b4edb8c0979fcbecfe9cc83c4abcd093533e737a71c38ec7e2170272c0ae9350d71c5bc130b2920dfa406b8fe4501aaafda5cf44c3d059e6d6811e17ddfe55dfc8bc99d663b44b92bd3e06d68729fcc9ab5b14ebd4fe570c47324637a34c5ae178123d4196565aa24550ed6d2d9cc0abbc8500cd3bcf0a047195347e0342c09d21b1d2628a0754c600b63246af4b8a9f871abd8818c70797afa1de1b43f467990bfb03f8e2f2d000bb70ee68b56184a979b4a2519b49646a2098a31130edac9f10cf2d4288ebb121f0eeeb17c458c4d0b542dc372c4328d7"
      ],
      "sequence": 4294967294
    }
  ],
  "vout": [
    {
      "value": 1.0,
      "n": 0,
      "scriptPubKey": {
        "asm": "OP_RETURN a96e7c111e40be4b679fe8a625ae40e4441fd5a8d607f74e230eb3d36f4cf70c b3b16399a6ac3ec963fd4e13d1f213103bba2507c335ccf5c02fe4f0939de09c939143b9868c1ee943dd6e33f1d233301b9a0527e315ecd5e00fc4d0b3bdc0bcf3f123d9e6ec7e8923bd0e5391b253507bfa654783758cb5806fa4b0d3dda0dcd3d103f9c6cc5ea9039d2e73b19273705bda4567a355ac95a04f8490f3fd80fc3331e319262cbe49e37dce9351729390bb3aa58743b54c7540af6470131d601c1311c339060c9e69c35deeb37152b3b09b1a85a763956c55608f4450333d403c7371a359666cfe09a33d8ed31132d3d0fb7ae5c703f50c3500ef2430535d205c53518379464cde29831daef33112f3f0db5ac5e723d52c1520cf0410737d007cb3b16399a6ac3ec963fd4e13d1f213103bba2507c335ccf5c02fe4f0939de09c939143b9868c1ee943dd6e33f1d233301b9a0527e315ecd5e00fc4d0b3bdc0bcf3f123d9e6ec7e8923bd0e5391b253507bfa654783758cb5806fa4b0d3dda0dcd3d103f9c6cc5ea9039d2e73b19273705bda4567a355ac95a04f8490f3fd80fc3331e319262cbe49e37dce9351729390bb3aa58743b54c7540af6470131d601c1311c339060c9e69c35deeb37152b3b09b1a85a763956c55608f4450333d403c7371a359666cfe09a33d8ed31132d3d0fb7ae5c703f50c3500ef2430535d205c53518379464cde29831daef33112f3f0db5ac5e723d52c1520cf0410737d007cb3b16399a6ac3ec963fd4e13d1f213103bba2507c335ccf5c02fe4f0939de09c939143b9868c1ee943dd6e33f1d233301b9a0527e315ecd5e00fc4d0b3bdc0bcf3f123d9e6ec7e8923bd0e5391b253507bfa654783758cb5806fa4b0d3dda0dcd3d103f9c6cc5ea9039d2e73b19273705bda4567a355ac95a04f8490f3fd80fc3331e319262cbe49e37dce9351729390bb3aa58743b54c7540af6470131d601c1311c339060c9e69c35deeb37152b3b09b1a85a763956c55608f4450333d403c7371a359666cfe09a33d8ed31132d3d0fb7ae5c703f50c3500ef2430535d205c53518379464cde29831daef33112f3f0db5ac5e723d52c1520cf0410737d007cb3b16399a6ac3ec963fd4e13d1f213103bba2507c335ccf5c02fe4f0939de09c939143b9868c1ee943dd6e33f1d233301b9a0527e315ecd5e00fc4d0b3bdc0bcf3f123d9e6ec7e8923bd0e5391b253507bfa654783758cb5806fa4b0d3dda0dcd3d103f9c6cc5ea9039d2e73b19273705bda4567a355ac95a04f8490f3fd80fc3331e319262cbe49e37dce9351729390bb3aa58743b54c7540af6470131d601c1311c339060c9e69c35deeb37152b3b09b1a85a763956c55608f4450333d403c7371a359666cfe09a33d8ed31132d3d0fb7ae5c703f50c3500ef2430535d205c53518379464cde29831daef33112f3f0db5ac5e723d52c1520cf0410737d007cb3b16399a6ac3ec963fd4e13d1f213103bba2507c335ccf5c02fe4f0939de09c939143b9868c1ee943dd6e33f1d233301b9a0527e315ecd5e00fc4d0b3bdc0bcf3f123d9e6ec7e8923bd0e5391b253507bfa654783758cb5806fa4b0d3dda0dcd3d103f9c6cc5ea9039d2e73b19273705bda4567a355ac95a04f8490f3fd80fc3331e319262cbe49e37dce935172939039e683bd63b71155678fa5f6a80eafa29126102301226faf3af6c96c12a5eece",
        "hex": "6a20a96e7c111e40be4b679fe8a625ae40e4441fd5a8d607f74e230eb3d36f4cf70c4db004b3b16399a6ac3ec963fd4e13d1f213103bba2507c335ccf5c02fe4f0939de09c939143b9868c1ee943dd6e33f1d233301b9a0527e315ecd5e00fc4d0b3bdc0bcf3f123d9e6ec7e8923bd0e5391b253507bfa654783758cb5806fa4b0d3dda0dcd3d103f9c6cc5ea9039d2e73b19273705bda4567a355ac95a04f8490f3fd80fc3331e319262cbe49e37dce9351729390bb3aa58743b54c7540af6470131d601c1311c339060c9e69c35deeb37152b3b09b1a85a763956c55608f4450333d403c7371a359666cfe09a33d8ed31132d3d0fb7ae5c703f50c3500ef2430535d205c53518379464cde29831daef33112f3f0db5ac5e723d52c1520cf0410737d007cb3b16399a6ac3ec963fd4e13d1f213103bba2507c335ccf5c02fe4f0939de09c939143b9868c1ee943dd6e33f1d233301b9a0527e315ecd5e00fc4d0b3bdc0bcf3f123d9e6ec7e8923bd0e5391b253507bfa654783758cb5806fa4b0d3dda0dcd3d103f9c6cc5ea9039d2e73b19273705bda4567a355ac95a04f8490f3fd80fc3331e319262cbe49e37dce9351729390bb3aa58743b54c7540af6470131d601c1311c339060c9e69c35deeb37152b3b09b1a85a763956c55608f4450333d403c7371a359666cfe09a33d8ed31132d3d0fb7ae5c703f50c3500ef2430535d205c53518379464cde29831daef33112f3f0db5ac5e723d52c1520cf0410737d007cb3b16399a6ac3ec963fd4e13d1f213103bba2507c335ccf5c02fe4f0939de09c939143b9868c1ee943dd6e33f1d233301b9a0527e315ecd5e00fc4d0b3bdc0bcf3f123d9e6ec7e8923bd0e5391b253507bfa654783758cb5806fa4b0d3dda0dcd3d103f9c6cc5ea9039d2e73b19273705bda4567a355ac95a04f8490f3fd80fc3331e319262cbe49e37dce9351729390bb3aa58743b54c7540af6470131d601c1311c339060c9e69c35deeb37152b3b09b1a85a763956c55608f4450333d403c7371a359666cfe09a33d8ed31132d3d0fb7ae5c703f50c3500ef2430535d205c53518379464cde29831daef33112f3f0db5ac5e723d52c1520cf0410737d007cb3b16399a6ac3ec963fd4e13d1f213103bba2507c335ccf5c02fe4f0939de09c939143b9868c1ee943dd6e33f1d233301b9a0527e315ecd5e00fc4d0b3bdc0bcf3f123d9e6ec7e8923bd0e5391b253507bfa654783758cb5806fa4b0d3dda0dcd3d103f9c6cc5ea9039d2e73b19273705bda4567a355ac95a04f8490f3fd80fc3331e319262cbe49e37dce9351729390bb3aa58743b54c7540af6470131d601c1311c339060c9e69c35deeb37152b3b09b1a85a763956c55608f4450333d403c7371a359666cfe09a33d8ed31132d3d0fb7ae5c703f50c3500ef2430535d205c53518379464cde29831daef33112f3f0db5ac5e723d52c1520cf0410737d007cb3b16399a6ac3ec963fd4e13d1f213103bba2507c335ccf5c02fe4f0939de09c939143b9868c1ee943dd6e33f1d233301b9a0527e315ecd5e00fc4d0b3bdc0bcf3f123d9e6ec7e8923bd0e5391b253507bfa654783758cb5806fa4b0d3dda0dcd3d103f9c6cc5ea9039d2e73b19273705bda4567a355ac95a04f8490f3fd80fc3331e319262cbe49e37dce935172939039e683bd63b71155678fa5f6a80eafa29126102301226faf3af6c96c12a5eece",
        "type": "nulldata"
      }
    },
    {
      "value": 499992.8817,
      "n": 1,
      "scriptPubKey": {
        "asm": "1 7e0d1ac04fe466a2002149aee3dd0ba6b9c332beb14a16e51b21cbead5fee8fb",
        "hex": "51207e0d1ac04fe466a2002149aee3dd0ba6b9c332beb14a16e51b21cbead5fee8fb",
        "reqSigs": 1,
        "type": "witness_v1_scripthash",
        "addresses": [
          "3QJmnh"
        ]
      }
    }
  ],
  "blockhash": "86d3aa2e412fd1c0ad7fd5d7d84b7ddcf41a8bf652344eaa49dd1e6444ae5dce",
  "confirmations": 1,
  "time": 1764176858,
  "blocktime": 1764176858
}