{
  "hex": "010000000001019c22274de565d293ebd133a5d4c69519c33c933ef95e8c26419b1a3dd27470250000000000feffffff02c075fe6f792d00002251205bc62e1214ad2aef858d9306b7c77c6c78c4456d256a844d503b4dd129e4d17800e1f50500000000fdd5046a2017388f989e1e3697d92337ba626caef8d8fae723749a597316fa120f4eabe3924db004f5ce12bbf2f8cfe440e3a9680d8515cdc23685f6621f3c4b2974dce93078e58ad5ee329bd2d8efc460c389482da535ede216a5d6423f1c6b0954fcc91058c5aab58e52fbb2b88fa400a3e9284dc5558d8276c5b6225f7c0b69349ca97038a5ca95ae72db9298af842083c9086de575ada256e596027f5c2b4914bc89501885ea754e923b72784f64c06329e88d05954d42b60576e29fbccba9f45c69b0f8650a556eb21b52586f44e04309c8ad25b56d62962556c2bf9ceb89d47c4990d8452a350ed27b32380f24802369a8cd45d50d02f64536a2dffc8be9b41c29f0b8254a152ef25b12182f04a0034988ed65f52d22d6651682ffdcabc9943c09d098056af5ce12bbf2f8cfe440e3a9680d8515cdc23685f6621f3c4b2974dce93078e58ad5ee329bd2d8efc460c389482da535ede216a5d6423f1c6b0954fcc91058c5aab58e52fbb2b88fa400a3e9284dc5558d8276c5b6225f7c0b69349ca97038a5ca95ae72db9298af842083c9086de575ada256e596027f5c2b4914bc89501885ea754e923b72784f64c06329e88d05954d42b60576e29fbccba9f45c69b0f8650a556eb21b52586f44e04309c8ad25b56d62962556c2bf9ceb89d47c4990d8452a350ed27b32380f24802369a8cd45d50d02f64536a2dffc8be9b41c29f0b8254a152ef25b12182f04a0034988ed65f52d22d6651682ffdcabc9943c09d098056af5ce12bbf2f8cfe440e3a9680d8515cdc23685f6621f3c4b2974dce93078e58ad5ee329bd2d8efc460c389482da535ede216a5d6423f1c6b0954fcc91058c5aab58e52fbb2b88fa400a3e9284dc5558d8276c5b6225f7c0b69349ca97038a5ca95ae72db9298af842083c9086de575ada256e596027f5c2b4914bc89501885ea754e923b72784f64c06329e88d05954d42b60576e29fbccba9f45c69b0f8650a556eb21b52586f44e04309c8ad25b56d62962556c2bf9ceb89d47c4990d8452a350ed27b32380f24802369a8cd45d50d02f64536a2dffc8be9b41c29f0b8254a152ef25b12182f04a0034988ed65f52d22d6651682ffdcabc9943c09d098056af5ce12bbf2f8cfe440e3a9680d8515cdc23685f6621f3c4b2974dce93078e58ad5ee329bd2d8efc460c389482da535ede216a5d6423f1c6b0954fcc91058c5aab58e52fbb2b88fa400a3e9284dc5558d8276c5b6225f7c0b69349ca97038a5ca95ae72db9298af842083c9086de575ada256e596027f5c2b4914bc89501885ea754e923b72784f64c06329e88d05954d42b60576e29fbccba9f45c69b0f8650a556eb21b52586f44e04309c8ad25b56d62962556c2bf9ceb89d47c4990d8452a350ed27b32380f24802369a8cd45d50d02f64536a2dffc8be9b41c29f0b8254a152ef25b12182f04a0034988ed65f52d22d6651682ffdcabc9943c09d098056af5ce12bbf2f8cfe440e3a9680d8515cdc23685f6621f3c4b2974dce93078e58ad5ee329bd2d8efc460c389482da535ede216a5d6423f1c6b0954fcc91058c5aab58e52fbb2b88fa400a3e9284dc5558d8276c5b6225f7c0b69349ca97038a5ca95ae72db9298af842083c9086de575ada256e596027f5c2b4914bc89501885ea754e923b72784f64c06329e88d05954d87bd413037c582c3d732abd8c39aff9908474203834ca6fdaa800309475ab13e02fd7509867843de161b7dcea67741075ec07e18413f2f706e2265cfbd978d2d8c726b7ce17c2512498895a3f31a62dc903de9f40c60e51709310c951d2056c844fb9e9ab051bcadbea42fb84ce7c5ae87a38c7ec94f0c14a7d3b6888480162d2fe61ff0f4eaff051fe5a8e017b568a0860a40353c0e2af4ad8bb28513e54e0a8fe7c2ea72edd7f4ce3fb0ca36a08958c7dda87fc5aefb7d4e8d1c717f9b03ff8e3c775b024f6652778670e6d44a7d986aa02dca1a9a4f80e5358b5c141b23a79ba8bdba6cbcebdacf053e97437f1ec3a16ccf71f823e2c895724f314eb21f51307fc3d7eeea4899581bdfd59c5202e84b47033936276817b49d5b73b2235db94e4d2d01f5a84a9df66a43561bb1546746d22cbf304b21890679b38ec76cda68466cfd7baee7c931fc85c3ef042dea5dd8aaa9fcb80b868985eb5735e1042e2b963d3a984121def3c4f703b8f171cb1a9db9594c37bf7d2269ce3cd81a06f1561df63c64a39ebc9bf05fd9a611d8e5a2be88d25cc009bb9c75184b422e488cfc71100812507d365370d778ffde43a93df2c27c9a391a1c105f5a74c0e2705a655a7edc97fd3c355efad3f0a1b74696a9dd20d45e2a63b874c6dd6b6dc8270d3f63c19cdb5b68d3adfa659c86602beee6a179017f47bf13f4dcb91194e55b7f8b88421f9d68437be6135b2a78d009d4c1d04253ca5b49992568d92b2cc464ee89fec14272e432d3cf0dd6a32540c35733f5f218f734d8b7fe619b4b121132ef7afcc2ae764257adbfb8c4d715758f5fb17f8288aa5fdde03573843868a687cd5e42b8c155e36395c66b2a4497b4e47d3aa23935e70eed96bfd3b8538314e0577ad54c74a69168e3b93d75f59942e515f7cba2c9922eea5a30fdd9bf78959e19983a1fa909cd4892d1f88bba7e48fdc0ce3f7f2c846fad2a4b1fb9c80a0087c421d92e605a35849f9b8045f793edc263dae76ad1d53f5d6d0055df738f6329926da8f00228964f18aff206297df2ad7df203503e07110fe317dea3203fad9748a35a80466c5a7699629d4d38198ded58332525031eb91e2d02b57bf8329eb9b508cd52116c9c38ed28aca0a3de3f17b44caf350c15830d15e6ac4880cd23b063cc2e1384ecbef177d584c510b2feb6965ed72e85eceb7290c6f43fed41077d2cc7c3bf29143aad97245a3dba5ed6f2b84ac59977cffecf2154538947b68339395cadce0ef9f59ef55d06ecb24afaa655d323e769147e16530cb85d4f66c342e3b9ffabec39ac8b0086ed098e3fce72b7134df0f782219105f40be28bc3f5337abcd00fddcf35ba0982a97fe19b081e2e5e9c5ed3f8b50484f6838280d4e63cb8b8b228bd8ca6f950fb119031bed0c0a2a70f3dac2cfadb7bfe9b6808bd7245e053e18a04d0068e894c74c2b12d71d6c30ece5631aa052c47a11240c5a02b2ea029f24265865a7a2876b47f78b81294236a8acb9d84097f8d3b825d8dab3e23cd97826143bfe22e0af79d7609d124e710597b9fe41c76c237b91a511a07b6cf3e38c91ea0836542b2ed56c4f997dfffd414aa9e9b990f4ed5221849c91d069d703c562c94a3d4eaf4bd73e422252bba3f6c5ba4009cf4087c6896157705c3050c9b130198e951d2fadf175fe03a846b9ff2b0a039d846e2a8e6f0c563b26a911402e95963a4f79bf9da606995d4985acefc8c4894742c8bec6eac92f8784e2b20f2215aea321997590e027338529c72e6b4a609b556149036d7967caecdaeac25784b0bf5b16c92b9a86f1eed71b568623627d14aed18d9cae139dd877531e8800a0968ce4100bed0352fb1904cb2051cf60ce1a99218388ef54146df040e3b660976e2628832db3bc38cccb426f6973abd7938e9f2dcc57ec90c65b82cb55fc382b2dcb44f5418f6e1c677abfee2374b26c0ed81e292a78701be52fa8e5d1d00a27d6048ad32a0bef6aef00a4163029ac9b95b8ff992ec53cf0ffd6c7ef9234a18df1bdb301d730581091670f0ba37f7bdde10d5c4c2b287df94d4523b21fa33d35b39df047317bd5ef82882c7ace5eb786c5d231f070777b69a7709bbf2d0efe181f3c8de16174220bcac7904077c0bb6ba4863dc8207461e79caa3e4ee7d81ab626e55473a23611f0868e00f34e228d1f831a4a065b5770e9dcd5270a2f78888a86cd3e3646c9790c67ffedee61af93f92ce509fa08beaf87665aa2a299f06f6fbce7bbc2b51c52232c1cad6a2f454fe6a999e7df5b21941668c77017d0c88d9cc1312f1ce681b3e385adb581acff0cee3a20ec3f16c2e9f8dbc39968d7b7cfa289a1e5c35eac6c939c1cda82e9d364b9b45d563a733fe0634e64a4a6b0110c48ecac50f296f163d85818aaa616592c1a16e66101c94cb29bcb8d2738b3937f756c082ab65a0b7f578ce0717b6278faeb44888fa42ac8c9071f6903d6609731ed5302aabfbdf32a84ba458e55772db733238cb2b2895d8f6b3f538f1a263675de689d47d81bcb7524f936feaa485c1e85b0db304b916b6e8732862bdd09c70b76bca96a3e6461b76d416ab12e6b896f52fac21a0e8ce7a3d59f0a752bcaa6ccb508e969aca13f9666d79709e6b22c7681c2c5da5f3ace84c1c8404d781943c5c12637c86ab333ce903c2e82d5bdc581b40bba78b4c9571cef64698e98b593304eb6896ee12d5b75d2d7ea746e81ae0812a49dac7643dffa51223cda9a730a60079b8902172d16025ade4c0d4bafed9e7d6d972e66928e8951747423361df2b931a40304bed4cc504a860f1d2f8e4fcab6fa6e25707dc4cba46f9cb09793b148a6d270f02cf98f1f48d1ff7bc74598e85384414cc4206ce725c0f1167d48910422e1947194514e9e94bd014a07015a9be946ce676bac42d6c99866b9b1458a38dff7539c60352345350fb7b11e511d88acfb321177226314541dee1a3aa659040cfc35bf171bfdc35b4be9d6e50b6e97132e72ad9d9e78521310106e098154f5c6ea8bd9ba249c9e5d01cac5aae1fe80fbd792b0c11f42aa4e3238d587eaa65ed5ac99cf33e26f98623290d21c9876f2330fbb45fc2ba74054d8f498d975c291908528886279e4bccd20ea203e6a5f7bb63ad2459f086bae4d2cc223d7b3fbc4ca45e5b5789f6d5352888c2e6e96d61ec9d8d679c68004d77d8f9d72566ce08ba90544ae285af2e522663ed0b1d7959a1f2aa0aba95a4ade06391c45e44fdbd19c9f8a7bd8ed35f2cb0e36ef9b92b27c8e5a0002c97f5c29152c5dd1dc64f3ab2b3ef27382dfff05dc8cdcf2122a81253ad8db9561a4aec9872a4ee9982878dccfb7a1c47161d3341424752585a6b7a9baab7b8c0c8d7fd0310192d3b505c6e7c98b7d4dae5e7f6f7fc08145e6872a2b0ccd6dbe5e80f101516212d354044587d8f9599a1a8cce2f3f900000000000000000000001325314501fd2105005b6f5ae8155fe1f7ac337ea6c0d1c297b4c6295f792af46ae80185a839002bfbf4cea8ec86cb72b4def8c773f2c4a2ff8e20350d7b6121e35ab6bc743abd00e193dc951ff498b1d7f2074a73700c2ed11f1ba542fd76f3d89112720c6aaad9707d3b31c7f659dcf51eb728771370196fbfa10cd92c9b69e80d0acb696c7b537eb3055268cddf2f4dfe54cdecb76214255258df846ac4ac39e8b30355d90a693b61135bea658ff203c3d61af25aa5036e232b53f8ec5382ca5304e839edbabecf49e774b196fb44adc489296a7ebfb1dc5124b90b29692d5e379dd10982e3fb05739a7bb0bcd8e0288af45024f4cb9d92577c76a77e444a0dddbbb28febb574cd6973d3fdabee33e50fd14f03f9c5c270d93aa20e1e68eee4257f54ee638271081b2f74ce500cd3e5359fa4fa3403e54bdf671e4fe6e23225f546b19be91374f6b4b066b92e6647f7c3e3c58bcc263028a9453de7a7b80d8e65286498d04afe1d0e6b6f10e26708da8b87157c97e662988e2390b112b06a89bd5de124e8856b2227143d978b701e10ed4cb7dd456dfffc0fe4b777ff27ff1766ac629787f37466fff1b0a9ced3fc1622a09e06d8bd8c018d0457789a311a443ca99a3157a2e93f8a3b733a25e20a730321f1f2fca3b2ae7926dc071472e7108b5f15e1370933310d5303c259972eb9061acec8a498dfa3f5aa860e55270aff9450ddb2f211e85612e1addc6634b3d9e8a7acef2e751958a1a3cc856e6eea10bfddb871b76c9ad0f917867bd29cb6024151379f96e93066d2424a81c6b3f580668fef50e8de2bbee5a87651f36aacc7f95bfdd2cc5c94e8175df6b3ed09460fbaf4371fcfa503ba4485c41fc84289bbc1a6f34909922d9929dfd09e7f43aa58bac0149b1f6aa67b38b5e55794c336ee253e825d3dca547c330e1a6f9bdab62bea04926bfc371982fff98a944916532088e0e6eb0427a7b7ce62130a6f56389a984f08c70e4edc76cf817849fdaae47609a7493b65c6863f639fc2623350c0d47a81e8d6d50e54045ff1fb4bc2bf74f6be6578aebc99e0d1bd4404bca63a401171a7d4aa25cd35e47ba45d9fc8b19aa3968210663b7b423f2a0029e60eb47ff9d1cf5bfa820149c51383c6c80eb32847cf81a060b92f1444cb8404c4c53678ae0314bca91ecc8a72fd9e55e44405570a84f02a120f11bc373aca17a37fc6ddc8907791049fc82db47b773093b1fd71fef065e97781350b2c80d50277d76948ece8c5c6b4e72df8a7838327b54622d270e5e1e11096c5b6bcf0b2dd4fd2442c94d5c5fad978ace61eb4d697ebc646cdb0f88bd216b80a7ef22ed99ea82808511be2715f473737b154eb1a8cd779d90413771946928b83fb56109bd64c75e64d5459d9e8d5fc9697c9216ded9f73b5723dc9e1b09a28b22ba620041cbb442be0f0674c32d0c4c40aa5fef78e83f0805bac917615a8f726ab3c518659cdec37e4debdac6bf1a7acd732079499604a05b0eeb9fd2483570136656826b4cbddc8deb6ddfd8724f0497f259756f4269413e267714e09311d3530689c680f3cfd3e99c4a190a57abdfc833bd8515f6be7ab8552847b1f707ef671b6f2cf863b9dd5388930b00ad4c34872c0ea1d2d0d3507fdcffe966ccb1bb51b56a9f5950ac52ae775764530ba840bd44a9889a3c144ac8bd20f1b4507af5c0147e97297e87f4d3123da83b25f1f679b0939f2d959fce581c220a8c2b11d0df7495c8cf7b29fe7d5737d3cc0efab415fee9cc104713390685836468cc6ffe30d4b6f54fa6769d30d4d7446af0c79c9b129305064b06b4a8fcd645cc3e42dac2941b85670287cd8110749cb7bf9c970358e64000000",
  "txid": "2b0cdecfe1a47a4a997df9fee3a999fe9dbec9e5511ee46c6580759f099f6fe8",
  "hash": "625d2dc20aa965267979ec506cf1f32f86f842149e8fdd10edf4036b2fa076a6",
  "size": 5085,
  "vsize": 2278,
  "version": 1,
  "locktime": 100,
  "vin": [
    {
      "txid": "257074d23d1a9b41268c5ef93e933cc31995c6d4a533d1eb93d265e54d27229c",
      "vout": 0,
      "scriptSig": {
        "asm": "",
        "hex": ""
      },
      "txinwitness": [
        "867843de161b7dcea67741075ec07e18413f2f706e2265cfbd978d2d8c726b7ce17c2512498895a3f31a62dc903de9f40c60e51709310c951d2056c844fb9e9ab051bcadbea42fb84ce7c5ae87a38c7ec94f0c14a7d3b6888480162d2fe61ff0f4eaff051fe5a8e017b568a0860a40353c0e2af4ad8bb28513e54e0a8fe7c2ea72edd7f4ce3fb0ca36a08958c7dda87fc5aefb7d4e8d1c717f9b03ff8e3c775b024f6652778670e6d44a7d986aa02dca1a9a4f80e5358b5c141b23a79ba8bdba6cbcebdacf053e97437f1ec3a16ccf71f823e2c895724f314eb21f51307fc3d7eeea4899581bdfd59c5202e84b47033936276817b49d5b73b2235db94e4d2d01f5a84a9df66a43561bb1546746d22cbf304b21890679b38ec76cda68466cfd7baee7c931fc85c3ef042dea5dd8aaa9fcb80b868985eb5735e1042e2b963d3a984121def3c4f703b8f171cb1a9db9594c37bf7d2269ce3cd81a06f1561df63c64a39ebc9bf05fd9a611d8e5a2be88d25cc009bb9c75184b422e488cfc71100812507d365370d778ffde43a93df2c27c9a391a1c105f5a74c0e2705a655a7edc97fd3c355efad3f0a1b74696a9dd20d45e2a63b874c6dd6b6dc8270d3f63c19cdb5b68d3adfa659c86602beee6a179017f47bf13f4dcb91194e55b7f8b88421f9d68437be6135b2a78d009d4c1d04253ca5b49992568d92b2cc464ee89fec14272e432d3cf0dd6a32540c35733f5f218f734d8b7fe619b4b121132ef7afcc2ae764257adbfb8c4d715758f5fb17f8288aa5fdde03573843868a687cd5e42b8c155e36395c66b2a4497b4e47d3aa23935e70eed96bfd3b8538314e0577ad54c74a69168e3b93d75f59942e515f7cba2c9922eea5a30fdd9bf78959e19983a1fa909cd4892d1f88bba7e48fdc0ce3f7f2c846fad2a4b1fb9c80a0087c421d92e605a35849f9b8045f793edc263dae76ad1d53f5d6d0055df738f6329926da8f00228964f18aff206297df2ad7df203503e07110fe317dea3203fad9748a35a80466c5a7699629d4d38198ded58332525031eb91e2d02b57bf8329eb9b508cd52116c9c38ed28aca0a3de3f17b44caf350c15830d15e6ac4880cd23b063cc2e1384ecbef177d584c510b2feb6965ed72e85eceb7290c6f43fed41077d2cc7c3bf29143aad97245a3dba5ed6f2b84ac59977cffecf2154538947b68339395cadce0ef9f59ef55d06ecb24afaa655d323e769147e16530cb85d4f66c342e3b9ffabec39ac8b0086ed098e3fce72b7134df0f782219105f40be28bc3f5337abcd00fddcf35ba0982a97fe19b081e2e5e9c5ed3f8b50484f6838280d4e63cb8b8b228bd8ca6f950fb119031bed0c0a2a70f3dac2cfadb7bfe9b6808bd7245e053e18a04d0068e894c74c2b12d71d6c30ece5631aa052c47a11240c5a02b2ea029f24265865a7a2876b47f78b81294236a8acb9d84097f8d3b825d8dab3e23cd97826143bfe22e0af79d7609d124e710597b9fe41c76c237b91a511a07b6cf3e38c91ea0836542b2ed56c4f997dfffd414aa9e9b990f4ed5221849c91d069d703c562c94a3d4eaf4bd73e422252bba3f6c5ba4009cf4087c6896157705c3050c9b130198e951d2fadf175fe03a846b9ff2b0a039d846e2a8e6f0c563b26a911402e95963a4f79bf9da606995d4985acefc8c4894742c8bec6eac92f8784e2b20f2215aea321997590e027338529c72e6b4a609b556149036d7967caecdaeac25784b0bf5b16c92b9a86f1eed71b568623627d14aed18d9cae139dd877531e8800a0968ce4100bed0352fb1904cb2051cf60ce1a99218388ef54146df040e3b660976e2628832db3bc38cccb426f6973abd7938e9f2dcc57ec90c65b82cb55fc382b2dcb44f5418f6e1c677abfee2374b26c0ed81e292a78701be52fa8e5d1d00a27d6048ad32a0bef6aef00a4163029ac9b95b8ff992ec53cf0ffd6c7ef9234a18df1bdb301d730581091670f0ba37f7bdde10d5c4c2b287df94d4523b21fa33d35b39df047317bd5ef82882c7ace5eb786c5d231f070777b69a7709bbf2d0efe181f3c8de16174220bcac7904077c0bb6ba4863dc8207461e79caa3e4ee7d81ab626e55473a23611f0868e00f34e228d1f831a4a065b5770e9dcd5270a2f78888a86cd3e3646c9790c67ffedee61af93f92ce509fa08beaf87665aa2a299f06f6fbce7bbc2b51c52232c1cad6a2f454fe6a999e7df5b21941668c77017d0c88d9cc1312f1ce681b3e385adb581acff0cee3a20ec3f16c2e9f8dbc39968d7b7cfa289a1e5c35eac6c939c1cda82e9d364b9b45d563a733fe0634e64a4a6b0110c48ecac50f296f163d85818aaa616592c1a16e66101c94cb29bcb8d2738b3937f756c082ab65a0b7f578ce0717b6278faeb44888fa42ac8c9071f6903d6609731ed5302aabfbdf32a84ba458e55772db733238cb2b2895d8f6b3f538f1a263675de689d47d81bcb7524f936feaa485c1e85b0db304b916b6e8732862bdd09c70b76bca96a3e6461b76d416ab12e6b896f52fac21a0e8ce7a3d59f0a752bcaa6ccb508e969aca13f9666d79709e6b22c7681c2c5da5f3ace84c1c8404d781943c5c12637c86ab333ce903c2e82d5bdc581b40bba78b4c9571cef64698e98b593304eb6896ee12d5b75d2d7ea746e81ae0812a49dac7643dffa51223cda9a730a60079b8902172d16025ade4c0d4bafed9e7d6d972e66928e8951747423361df2b931a40304bed4cc504a860f1d2f8e4fcab6fa6e25707dc4cba46f9cb09793b148a6d270f02cf98f1f48d1ff7bc74598e85384414cc4206ce725c0f1167d48910422e1947194514e9e94bd014a07015a9be946ce676bac42d6c99866b9b1458a38dff7539c60352345350fb7b11e511d88acfb321177226314541dee1a3aa659040cfc35bf171bfdc35b4be9d6e50b6e97132e72ad9d9e78521310106e098154f5c6ea8bd9ba249c9e5d01cac5aae1fe80fbd792b0c11f42aa4e3238d587eaa65ed5ac99cf33e26f98623290d21c9876f2330fbb45fc2ba74054d8f498d975c291908528886279e4bccd20ea203e6a5f7bb63ad2459f086bae4d2cc223d7b3fbc4ca45e5b5789f6d5352888c2e6e96d61ec9d8d679c68004d77d8f9d72566ce08ba90544ae285af2e522663ed0b1d7959a1f2aa0aba95a4ade06391c45e44fdbd19c9f8a7bd8ed35f2cb0e36ef9b92b27c8e5a0002c97f5c29152c5dd1dc64f3ab2b3ef27382dfff05dc8cdcf2122a81253ad8db9561a4aec9872a4ee9982878dccfb7a1c47161d3341424752585a6b7a9baab7b8c0c8d7fd0310192d3b505c6e7c98b7d4dae5e7f6f7fc08145e6872a2b0ccd6dbe5e80f101516212d354044587d8f9599a1a8cce2f3f900000000000000000000001325314501",
        "005b6f5ae8155fe1f7ac337ea6c0d1c297b4c6295f792af46ae80185a839002bfbf4cea8ec86cb72b4def8c773f2c4a2ff8e20350d7b6121e35ab6bc743abd00e193dc951ff498b1d7f2074a73700c2ed11f1ba542fd76f3d89112720c6aaad9707d3b31c7f659dcf51eb728771370196fbfa10cd92c9b69e80d0acb696c7b537eb3055268cddf2f4dfe54cdecb76214255258df846ac4ac39e8b30355d90a693b61135bea658ff203c3d61af25aa5036e232b53f8ec5382ca5304e839edbabecf49e774b196fb44adc489296a7ebfb1dc5124b90b29692d5e379dd10982e3fb05739a7bb0bcd8e0288af45024f4cb9d92577c76a77e444a0dddbbb28febb574cd6973d3fdabee33e50fd14f03f9c5c270d93aa20e1e68eee4257f54ee638271081b2f74ce500cd3e5359fa4fa3403e54bdf671e4fe6e23225f546b19be91374f6b4b066b92e6647f7c3e3c58bcc263028a9453de7a7b80d8e65286498d04afe1d0e6b6f10e26708da8b87157c97e662988e2390b112b06a89bd5de124e8856b2227143d978b701e10ed4cb7dd456dfffc0fe4b777ff27ff1766ac629787f37466fff1b0a9ced3fc1622a09e06d8bd8c018d0457789a311a443ca99a3157a2e93f8a3b733a25e20a730321f1f2fca3b2ae7926dc071472e7108b5f15e1370933310d5303c259972eb9061acec8a498dfa3f5aa860e55270aff9450ddb2f211e85612e1addc6634b3d9e8a7acef2e751958a1a3cc856e6eea10bfddb871b76c9ad0f917867bd29cb6024151379f96e93066d2424a81c6b3f580668fef50e8de2bbee5a87651f36aacc7f95bfdd2cc5c94e8175df6b3ed09460fbaf4371fcfa503ba4485c41fc84289bbc1a6f34909922d9929dfd09e7f43aa58bac0149b1f6aa67b38b5e55794c336ee253e825d3dca547c330e1a6f9bdab62bea04926bfc371982fff98a944916532088e0e6eb0427a7b7ce62130a6f56389a984f08c70e4edc76cf817849fdaae47609a7493b65c6863f639fc2623350c0d47a81e8d6d50e54045ff1fb4bc2bf74f6be6578aebc99e0d1bd4404bca63a401171a7d4aa25cd35e47ba45d9fc8b19aa3968210663b7b423f2a0029e60eb47ff9d1cf5bfa820149c51383c6c80eb32847cf81a060b92f1444cb8404c4c53678ae0314bca91ecc8a72fd9e55e44405570a84f02a120f11bc373aca17a37fc6ddc8907791049fc82db47b773093b1fd71fef065e97781350b2c80d50277d76948ece8c5c6b4e72df8a7838327b54622d270e5e1e11096c5b6bcf0b2dd4fd2442c94d5c5fad978ace61eb4d697ebc646cdb0f88bd216b80a7ef22ed99ea82808511be2715f473737b154eb1a8cd779d90413771946928b83fb56109bd64c75e64d5459d9e8d5fc9697c9216ded9f73b5723dc9e1b09a28b22ba620041cbb442be0f0674c32d0c4c40aa5fef78e83f0805bac917615a8f726ab3c518659cdec37e4debdac6bf1a7acd732079499604a05b0eeb9fd2483570136656826b4cbddc8deb6ddfd8724f0497f259756f4269413e267714e09311d3530689c680f3cfd3e99c4a190a57abdfc833bd8515f6be7ab8552847b1f707ef671b6f2cf863b9dd5388930b00ad4c34872c0ea1d2d0d3507fdcffe966ccb1bb51b56a9f5950ac52ae775764530ba840bd44a9889a3c144ac8bd20f1b4507af5c0147e97297e87f4d3123da83b25f1f679b0939f2d959fce581c220a8c2b11d0df7495c8cf7b29fe7d5737d3cc0efab415fee9cc104713390685836468cc6ffe30d4b6f54fa6769d30d4d7446af0c79c9b129305064b06b4a8fcd645cc3e42dac2941b85670287cd8110749cb7bf9c970358e"
      ],
      "sequence": 4294967294
    }
  ],
  "vout": [
    {
      "value": 499995.9324,
      "n": 0,
      "scriptPubKey": {
        "asm": "1 5bc62e1214ad2aef858d9306b7c77c6c78c4456d256a844d503b4dd129e4d178",
        "hex": "51205bc62e1214ad2aef858d9306b7c77c6c78c4456d256a844d503b4dd129e4d178",
        "reqSigs": 1,
        "type": "witness_v1_scripthash",
        "addresses": [
          "3QJmnh"
        ]
      }
    },
    {
      "value": 1.0,
      "n": 1,
      "scriptPubKey": {
        "asm": "OP_RETURN 17388f989e1e3697d92337ba626caef8d8fae723749a597316fa120f4eabe392 f5ce12bbf2f8cfe440e3a9680d8515cdc23685f6621f3c4b2974dce93078e58ad5ee329bd2d8efc460c389482da535ede216a5d6423f1c6b0954fcc91058c5aab58e52fbb2b88fa400a3e9284dc5558d8276c5b6225f7c0b69349ca97038a5ca95ae72db9298af842083c9086de575ada256e596027f5c2b4914bc89501885ea754e923b72784f64c06329e88d05954d42b60576e29fbccba9f45c69b0f8650a556eb21b52586f44e04309c8ad25b56d62962556c2bf9ceb89d47c4990d8452a350ed27b32380f24802369a8cd45d50d02f64536a2dffc8be9b41c29f0b8254a152ef25b12182f04a0034988ed65f52d22d6651682ffdcabc9943c09d098056af5ce12bbf2f8cfe440e3a9680d8515cdc23685f6621f3c4b2974dce93078e58ad5ee329bd2d8efc460c389482da535ede216a5d6423f1c6b0954fcc91058c5aab58e52fbb2b88fa400a3e9284dc5558d8276c5b6225f7c0b69349ca97038a5ca95ae72db9298af842083c9086de575ada256e596027f5c2b4914bc89501885ea754e923b72784f64c06329e88d05954d42b60576e29fbccba9f45c69b0f8650a556eb21b52586f44e04309c8ad25b56d62962556c2bf9ceb89d47c4990d8452a350ed27b32380f24802369a8cd45d50d02f64536a2dffc8be9b41c29f0b8254a152ef25b12182f04a0034988ed65f52d22d6651682ffdcabc9943c09d098056af5ce12bbf2f8cfe440e3a9680d8515cdc23685f6621f3c4b2974dce93078e58ad5ee329bd2d8efc460c389482da535ede216a5d6423f1c6b0954fcc91058c5aab58e52fbb2b88fa400a3e9284dc5558d8276c5b6225f7c0b69349ca97038a5ca95ae72db9298af842083c9086de575ada256e596027f5c2b4914bc89501885ea754e923b72784f64c06329e88d05954d42b60576e29fbccba9f45c69b0f8650a556eb21b52586f44e04309c8ad25b56d62962556c2bf9ceb89d47c4990d8452a350ed27b32380f24802369a8cd45d50d02f64536a2dffc8be9b41c29f0b8254a152ef25b12182f04a0034988ed65f52d22d6651682ffdcabc9943c09d098056af5ce12bbf2f8cfe440e3a9680d8515cdc23685f6621f3c4b2974dce93078e58ad5ee329bd2d8efc460c389482da535ede216a5d6423f1c6b0954fcc91058c5aab58e52fbb2b88fa400a3e9284dc5558d8276c5b6225f7c0b69349ca97038a5ca95ae72db9298af842083c9086de575ada256e596027f5c2b4914bc89501885ea754e923b72784f64c06329e88d05954d42b60576e29fbccba9f45c69b0f8650a556eb21b52586f44e04309c8ad25b56d62962556c2bf9ceb89d47c4990d8452a350ed27b32380f24802369a8cd45d50d02f64536a2dffc8be9b41c29f0b8254a152ef25b12182f04a0034988ed65f52d22d6651682ffdcabc9943c09d098056af5ce12bbf2f8cfe440e3a9680d8515cdc23685f6621f3c4b2974dce93078e58ad5ee329bd2d8efc460c389482da535ede216a5d6423f1c6b0954fcc91058c5aab58e52fbb2b88fa400a3e9284dc5558d8276c5b6225f7c0b69349ca97038a5ca95ae72db9298af842083c9086de575ada256e596027f5c2b4914bc89501885ea754e923b72784f64c06329e88d05954d87bd413037c582c3d732abd8c39aff9908474203834ca6fdaa800309475ab13e",
        "hex": "6a2017388f989e1e3697d92337ba626caef8d8fae723749a597316fa120f4eabe3924db004f5ce12bbf2f8cfe440e3a9680d8515cdc23685f6621f3c4b2974dce93078e58ad5ee329bd2d8efc460c389482da535ede216a5d6423f1c6b0954fcc91058c5aab58e52fbb2b88fa400a3e9284dc5558d8276c5b6225f7c0b69349ca97038a5ca95ae72db9298af842083c9086de575ada256e596027f5c2b4914bc89501885ea754e923b72784f64c06329e88d05954d42b60576e29fbccba9f45c69b0f8650a556eb21b52586f44e04309c8ad25b56d62962556c2bf9ceb89d47c4990d8452a350ed27b32380f24802369a8cd45d50d02f64536a2dffc8be9b41c29f0b8254a152ef25b12182f04a0034988ed65f52d22d6651682ffdcabc9943c09d098056af5ce12bbf2f8cfe440e3a9680d8515cdc23685f6621f3c4b2974dce93078e58ad5ee329bd2d8efc460c389482da535ede216a5d6423f1c6b0954fcc91058c5aab58e52fbb2b88fa400a3e9284dc5558d8276c5b6225f7c0b69349ca97038a5ca95ae72db9298af842083c9086de575ada256e596027f5c2b4914bc89501885ea754e923b72784f64c06329e88d05954d42b60576e29fbccba9f45c69b0f8650a556eb21b52586f44e04309c8ad25b56d62962556c2bf9ceb89d47c4990d8452a350ed27b32380f24802369a8cd45d50d02f64536a2dffc8be9b41c29f0b8254a152ef25b12182f04a0034988ed65f52d22d6651682ffdcabc9943c09d098056af5ce12bbf2f8cfe440e3a9680d8515cdc23685f6621f3c4b2974dce93078e58ad5ee329bd2d8efc460c389482da535ede216a5d6423f1c6b0954fcc91058c5aab58e52fbb2b88fa400a3e9284dc5558d8276c5b6225f7c0b69349ca97038a5ca95ae72db9298af842083c9086de575ada256e596027f5c2b4914bc89501885ea754e923b72784f64c06329e88d05954d42b60576e29fbccba9f45c69b0f8650a556eb21b52586f44e04309c8ad25b56d62962556c2bf9ceb89d47c4990d8452a350ed27b32380f24802369a8cd45d50d02f64536a2dffc8be9b41c29f0b8254a152ef25b12182f04a0034988ed65f52d22d6651682ffdcabc9943c09d098056af5ce12bbf2f8cfe440e3a9680d8515cdc23685f6621f3c4b2974dce93078e58ad5ee329bd2d8efc460c389482da535ede216a5d6423f1c6b0954fcc91058c5aab58e52fbb2b88fa400a3e9284dc5558d8276c5b6225f7c0b69349ca97038a5ca95ae72db9298af842083c9086de575ada256e596027f5c2b4914bc89501885ea754e923b72784f64c06329e88d05954d42b60576e29fbccba9f45c69b0f8650a556eb21b52586f44e04309c8ad25b56d62962556c2bf9ceb89d47c4990d8452a350ed27b32380f24802369a8cd45d50d02f64536a2dffc8be9b41c29f0b8254a152ef25b12182f04a0034988ed65f52d22d6651682ffdcabc9943c09d098056af5ce12bbf2f8cfe440e3a9680d8515cdc23685f6621f3c4b2974dce93078e58ad5ee329bd2d8efc460c389482da535ede216a5d6423f1c6b0954fcc91058c5aab58e52fbb2b88fa400a3e9284dc5558d8276c5b6225f7c0b69349ca97038a5ca95ae72db9298af842083c9086de575ada256e596027f5c2b4914bc89501885ea754e923b72784f64c06329e88d05954d87bd413037c582c3d732abd8c39aff9908474203834ca6fdaa800309475ab13e",
        "type": "nulldata"
      }
    }
  ],
  "blockhash": "15af9b025c636b87e0a10c18a1a8de0e5f3c2069ad563b293161176d75df89a4",
  "confirmations": 1,
  "time": 1764174659,
  "blocktime": 1764174659
}