{
  "hex": "01000000000101472ec5558019bf388ac18571bf0ab567844dc0a8761246b2527f5b5f9bc9323e0100000000feffffff0200e1f50500000000fdd5046a201ccb4e5b616b9dbbd22356e32a1f3e19641834c53b849575b6765063276d274b4db004e299f48eea0bd8e471ed381b20ab9ed00f62d2362b5af964b37a18a87638dcebc2b9d4aeca2bf8c451cd183b008bbef02f42f2160b7ad944935a38885618fccba2d9b4ceaa4b98a431ad785b60ebde904f2292766b1ab924f33a58e836789cab82f994ee8a6bb884118d587b40cbfeb06f02b2564b3a9904d31a78c81658bc8b6219740e6a8b5864f16db89ba02b1e508fe252b6abda79e433fa9828f6b85c6b4239542e4aab7844d14d98bb800b3e70afc272968bfa59c413dab808d6987c4b2259344e2acb1824b12df8dbe06b5e10cfa212f6eb9a39a473bad868b6f81c2b0279146e0aeb3804910dd8fbc04b7e30ef8232d6cbba1984539af84896d83c0be299f48eea0bd8e471ed381b20ab9ed00f62d2362b5af964b37a18a87638dcebc2b9d4aeca2bf8c451cd183b008bbef02f42f2160b7ad944935a38885618fccba2d9b4ceaa4b98a431ad785b60ebde904f2292766b1ab924f33a58e836789cab82f994ee8a6bb884118d587b40cbfeb06f02b2564b3a9904d31a78c81658bc8b6219740e6a8b5864f16db89ba02b1e508fe252b6abda79e433fa9828f6b85c6b4239542e4aab7844d14d98bb800b3e70afc272968bfa59c413dab808d6987c4b2259344e2acb1824b12df8dbe06b5e10cfa212f6eb9a39a473bad868b6f81c2b0279146e0aeb3804910dd8fbc04b7e30ef8232d6cbba1984539af84896d83c0be299f48eea0bd8e471ed381b20ab9ed00f62d2362b5af964b37a18a87638dcebc2b9d4aeca2bf8c451cd183b008bbef02f42f2160b7ad944935a38885618fccba2d9b4ceaa4b98a431ad785b60ebde904f2292766b1ab924f33a58e836789cab82f994ee8a6bb884118d587b40cbfeb06f02b2564b3a9904d31a78c81658bc8b6219740e6a8b5864f16db89ba02b1e508fe252b6abda79e433fa9828f6b85c6b4239542e4aab7844d14d98bb800b3e70afc272968bfa59c413dab808d6987c4b2259344e2acb1824b12df8dbe06b5e10cfa212f6eb9a39a473bad868b6f81c2b0279146e0aeb3804910dd8fbc04b7e30ef8232d6cbba1984539af84896d83c0be299f48eea0bd8e471ed381b20ab9ed00f62d2362b5af964b37a18a87638dcebc2b9d4aeca2bf8c451cd183b008bbef02f42f2160b7ad944935a38885618fccba2d9b4ceaa4b98a431ad785b60ebde904f2292766b1ab924f33a58e836789cab82f994ee8a6bb884118d587b40cbfeb06f02b2564b3a9904d31a78c81658bc8b6219740e6a8b5864f16db89ba02b1e508fe252b6abda79e433fa9828f6b85c6b4239542e4aab7844d14d98bb800b3e70afc272968bfa59c413dab808d6987c4b2259344e2acb1824b12df8dbe06b5e10cfa212f6eb9a39a473bad868b6f81c2b0279146e0aeb3804910dd8fbc04b7e30ef8232d6cbba1984539af84896d83c0be299f48eea0bd8e471ed381b20ab9ed00f62d2362b5af964b37a18a87638dcebc2b9d4aeca2bf8c451cd183b008bbef02f42f2160b7ad944935a38885618fccba2d9b4ceaa4b98a431ad785b60ebde904f2292766b1ab924f33a58e836789cab82f994ee8a6bb884118d587b40cbfeb06f02b2564b3a9904d31a78c81658bc8b6219740e6a8b5864f16db89ba02b1e50fca2073a86416bed41bf9d76bf34c925411278a7bf3a8bd075b26aa32c860185b0767139792d000022512002b0c2ad31dff36ea37e8ea0c68e0635d365dca1d7485932a12676b56a60836902fd750901c28f7a02badf4dbd814f1f3e8223a42adf32b02ffe1dbf8e4ad826767c8c29412669612bbf5b1d6e2d050655280c25d73927fcebdf506abff3fc8e044fda792f206d2531956881cfa63a4488ccef790768209b69d2bed394dede30979ce92f33a91823e4e2096347f8c14bc9b98b35af909fb8e85a075379dd0f3cfb0b1eb8d587536258728f4e6bee501511a56018b9dff564a52b645e9ffd5b450585fe02e0a5eff962f0819ceb78fd913994f0f77b5b516e373b06f58576d056879bbe8ed5abd66db70873abaef997fcd58f2108b1cfceedffe24d0396bf1961cd9d0ba1d201e5d375df96200eef94bcf293aad06052513e5185e646a28a130c05179310d06316f57c87a8d49014d0841a0c3acd2b67b189b65aff898b6cc0d95e4d99466171e9179dced2297f733110a90a65553e52f6d59cf29fa040cb3dfc8b1182521ba9ebf742afe129a1900fee27eb796f9b380d925850cb6ada207bef66ac9fa0fb84abfb7c2ecd2fa0978000a63c58b5ccc5b2ae3fc6d7d0602e706ce0e6f3908533c82e28063b38abfc2c16edec347caed716f6b012c71495ddf54c6238b2ee37e602c70c0f5929b4e77ce6228991fa4ff2b76ef518f032938f3c45b2d78f81d5baa5f41dc0a1beb7e37bc55fca0edd829c66a5efaf80e0a9b14a7c588fe562aa39940130a4f1974b64eb0c149be2a12fa906a70b4aa735e6c37bfd6ca938495345c3d580e340561fe8edf42f2c05744f1a7fc2e8a5130edd17d1b7df72a591c4e7af13408b3b34fcd3de4b9caf254239a1d47dc52f3460230fd231a6802aa1eb9b2e365384404fd1435ade396ac5d0e392faccfec5d742b2b108a53991169dc0a4f56856ba864e54ab89f69a2e8c6028ab0df632c3c3bcb5a41711a2d8189fe202f3a0f143fbc4fcbcc8446cf72bd5342cd1fd09861ba1072d4e09496fde8dfe6ba78a06a1de6040e8716956cc830e4d6fb124c9b1d7dbfe9e39896feb14fee09c456bfdffacc26248b70b2798ad900928eb77fd73ff2e9ad0d6768cfa96abb364ea0778cfc93ab0ae2b22f636665feb8a243ddeb097f4fa4696d1d4ddf8fcecca40f25f486da158192610fba30322e577006c3e7d19964f2f82efe538c2c1b8382302b59977606e3db3786fe2f31cf1919a777ee21c2fb827cc5496697b98a18fdb6309e8f2ff433d5f7d51c5dc5c02f5e0b223a1b14e8d0a222ae53c54d67625e0826eb6a2fcc8f3e683fe5b3f393808a79b8e0c6c248d79eaaed46f1fd2611644fe7fcdccb1d3a401e7a0bae4a0665059204c4bb8fa65a6099a27fc0704962fd176545433dd0390b8fad7985c8a685a15c49902ce733a16f181cba767400e46c59eaba8b49355a357ef24feec19151ccdcabec2babd739978531f4e6df4963e2e391a9608185a9268e7a6ec636a0d4a5de6b53ded711d0a9f547974a06a780949e87f127605984576c9c99d2542da9cc173b26303a0eba2ff236154f96d183f671835084d40f6cfb499a9a5d9cea382a2f0763ee2948b74f50f6323462c2b80c8992a34f2c17ea30b00d886ea35135e9ce66fcc680255ad68bfe03151377b8399e8b2a6b54fe87bc976f913208e44a93610c7e8940ceb97c34cc72eac93396b9f23eafbc4d8d25311d1594a613811de8b831a66c8c390e837edad2a27d2fae3d6b59f988cae206072284805719abdf8333daecd823fd4fb636720500386d6ef678189d959a039cb6aac3820a49a2091520f2a401d043558f6f3c74c68d0df73bdebf3788a1bb4ddc81c873f5124bb73f55f59c449e2c6b399ba3277b7ec33d71fda2ff931c1e66b7db9db662a0bca5b25f5d5295b351a39165b1cb22066993e0849b726d20dd9c06c9d1258a035c2b733a19de0b08936c7b09bc216a206843067cc0bbcfff5fce621da8d996c376021011cff5eeac0e2ecd07eb1cb4ec1c0cec13d328e0d3b185439c71ce924def3c7d7d2391636e78354e58cdbe2e6237523ea7a0acfb350897461b92a8946c61e7afca0ab95be7f43db5c185a09f01c252ef7d52bd9b755cf612a64d690a4ac562b6c80974033ba567fe46b88a477778102c23e512d81bf72a96d3cdd84cd1707d8e7a308da127176d6a12a5c2fbcb9d54605238bd953324ae05e300faf15cc96c9d6d463cba00fbf3eb95b7b895121b018a49adc97f55e4fb1c3ec5e09b37e5e0f5072d676b99b722094bd5524b51cb65a8be0fc0b24b53d058f3fd08c9322b26b06938be0b1d6f8a8c86c6c63951fcacdd3587f7c96449afa595949b2ed30f41a5dfa85aa5a110c6e58fe48d599e925df0d9575b2ad606b48ecfd87e89ffc0bbb7c5bf44a82e3e0c5f89e1eab93cca9b86b423fef6ee3f1d6cfdd4f06087d0f644376a0fbf3bce3787ee9861e28d2bc9ca502b41548223771ced8f30d4aa4ef86f3b638fe838d3f583da18bd6d74c547e7f1488c874f7f37c058b482dade099ff583d719f069e57354ad86a9938501851d6337111024a13266769b59b8dd9fb374d57bed5636f1fa02a2e1b94165890fdf79fdcdc5e989f0116b06743caea02056697fded57c4dd438237f69ba23673a3cd4b37a7fae5bcee951b8bbab6d42c7d253cf4d04de3ac996610fc61820579ac51c3f59a0322feb37e74252c5ba0fd8804e7c01eeb96deb369c22a9a67e7d9fc3da872275f75b71ea395318e5164c91c2e955534c77c2d6a2c97f6e73b14ad3297ad4c6cde895793785e8040a094d333ab34a19377c326ccd5d6d66a797819ba458b66c9d70de01722b63e90beae08920b61e7eafe98774bbc5f87dcf7772c52e6c5dbfdad0a73310e25e3c5d5e6a8d266812ee56d963102703c5de312e552b014654f78db0111b8a9857bdabd4d9bb47170d76d1de517646ccc7c324231726e07ed303a49c0f4c24aafab1bb1be2c2688aacf8b0ca4e76462984b2a79e05b21967a0060cedbaa09e5d0efb0b7f1ffebb4eecd7680cb5f266297e22b0c87a4b18733e6d10550e94dd5563e83560a8dd7b87c6b41d4c8cdef40c6422068c9a54f4c1603bcd542e5f7705ca2494ef8644be2cf0d2dcdc04e6654026580283dcfc64c0448b9307db7c977c55e6ff478667664a8d3cf13c0a5324f6607569ec2057916a1dc3b5a06d03778ecaf8786527a2ff60c81d660f604d9ebd956b3a021727c28c9f29c92afdc6651f580f7f71fe6e221fc2c16205178fc87ea91b8bb3f5faec01b28e1531ce0159b5124d4b4b4027746f2370a80dae50b576cc2aaab663565e89f0d80f3f009876993ad786bbc33698dc9989fb3666845902690c3468103060a33345b6b757aa5a9d3ddf3fd16171d2b677e7f818c9fa9aed6e0f70c1a272b2f6d7881969ca0a6aec2c9ec38456f8286d2dcf0f9fb0000000000000000000000000000000000000000000000000f1e2e3801fd210500e07976b4c73212128d859112d1ea2b27712f4fa7ab2e2add6d67950e5847285a8dd468c7ff75124d5c78a4ddd17098af279e54999c4e956c89cbaeaa548fe4338b8c484ef0264835ce2c4545c15d8859455186f4c65cd77fa7ee9142deda40342c15a40a7afe73f2147797a61803fa620b7f70507dbd46421c3b7651e039593a00293e493bf640872e43bb5f64e88fc4b173af417e4360fd0add4450d4c26525c7ebaaa96f4d945f70d66e23e86208b4be1709891bc1d3b2e17d8b604b04cd56478e7fd90f0e71d90eec57a611c28d0defcfaa568eb53b9f509bb58d26e3800b7d608611be9c6899d7a3ab3c3aa1bb1428a55fcaec6ff1a22f53d38e3397878a78297ef215034345f729caa92343b44ca7d52f4f3b841dd6047f3b295bfe2b2fd0099eeaef76709852d10a2aa32a01d66eed0957658124e25e12dd24eea4008ca6fb90b10026291232267a9e4e69cee6125a9e9928ac33aa2390826ed82328c83229aa3c66cb695892682a0440e6132c3e7197f0fa264b3fed025bde6e027fb6835491d6cf3dcd1955c27f0e5ca7cf6cd93e8ad088fa34d034c7cf73caac1cd4f57aa42afd491003a1755dd776c5758f42c177325addda03dccaeecf8851c5a9637de1e217636f8dd41616f5f131764d608f4b62f7ac460f5b05a0c2c11e9a8822466ef3944017f1f118c4f79450ac0de2abb663b908ad154a7125c857097f2b4efbbc020988548682fc797a4128cedf492cabe21419653a0b3311a24b67bb67b984c003f3564cbfc6013af0c15d3f0a7acce49a5b5496146cc0f3f1ea5b439bb512b40001fe3d651a9d723b4a3d2747492a80587ef3e02579077e27e084e0a2486fc616db6a548430938fc93fedb0d0d82caffa71b45e3e3b253526947ba3d043375ba29bb39f8a5eee60baa010f6a748f28d6efac27b88640328df77e5d4add454b8582477fd6baa59b438dd24e29a727b99aa854666d930f309a1a118fa5cebd0b4176023f8d97c221ad5e4f015ca51e98a025dbd98643888bf676d0953c04bc2b6a6d57cd2b9423be0af96b5dc95caea900a2f1dfab2ce0dd359ceb4b5a6b567c0ef98c99d6cf12d6a3d0b4e913b6ab399c950dbe67e20e0dd36d74a64aacd5bc9bbcc8a60ed77c4ae8f9976e2740b39dde81f6c4daefbad1f37573ac82664e5a80b654edc06fc8531dbbe51ede85881bf83abf77b6f83af5861a8bc6a7762dc838f224be35e836ffb229204e76d11144f9af78982a5da2d3ce718b0b74528fe2c20170260573fd3bea5a8f7b00a36d8b464fc77dff8309c4dceb8b0f4a87fde14df7658e48c9e05b4246c3f44a1963bea317a3c4296bc7147ed35d8b86e61e72365229b33ed9bf86c20be2c4ac57e91016e25df90912de780ee1ba1466d6a1a98c5f4d95cc2750edfaeeb35fd93e5cbe5fdf42dbcb1a34750a21ba5e6f1e37cdecccde27bca7946662da409aed0a46fe37e7becaec15ee1dfe32644ecc11584cb010e5d5d761dbdaba68a46de19fb83a9ede3034e19fdc1c64c8e6840a3268786d8549dd2ea389a12004903e96a90cab5b25c96e8d42459726f8a5d230dd0f9b22c138050605ae9b694a75898c551f2b83931758e032fb30c280a32f1e5826d09b5dfdfe95ed85adc34fbedd5db1e4cbf0f6223a94cca1af8e4e6dd64f957b4ccf5bfc8afb7e873c8d0e0aade6b604e723ce41cc49dc16b06d9336ef8d83dd10c3ff9fa7bf52c6462c83d89e86ca98347e5132d699709c6ece8da3d069bbd636aca9dd011a3c155abd4c2701bb1808e3af0747de994e47001c618cf609a87785ab82db242c5aea7e1ec75a50597bbd34936c08f3b1348adf43e4c0404bc77000000",
  "txid": "2c5ef724c6f064005aad2101d22ad309b86844fc5f0fbec2be0394268c3c82ab",
  "hash": "d0b8c9ee4d7321386084418b85f716a1c1fefb6da70d13b0f5b682a394ec8c81",
  "size": 5085,
  "vsize": 2278,
  "version": 1,
  "locktime": 119,
  "vin": [
    {
      "txid": "3e32c99b5f5b7f52b2461276a8c04d8467b50abf7185c18a38bf198055c52e47",
      "vout": 1,
      "scriptSig": {
        "asm": "",
        "hex": ""
      },
      "txinwitness": [
        "01c28f7a02badf4dbd814f1f3e8223a42adf32b02ffe1dbf8e4ad826767c8c29412669612bbf5b1d6e2d050655280c25d73927fcebdf506abff3fc8e044fda792f206d2531956881cfa63a4488ccef790768209b69d2bed394dede30979ce92f33a91823e4e2096347f8c14bc9b98b35af909fb8e85a075379dd0f3cfb0b1eb8d587536258728f4e6bee501511a56018b9dff564a52b645e9ffd5b450585fe02e0a5eff962f0819ceb78fd913994f0f77b5b516e373b06f58576d056879bbe8ed5abd66db70873abaef997fcd58f2108b1cfceedffe24d0396bf1961cd9d0ba1d201e5d375df96200eef94bcf293aad06052513e5185e646a28a130c05179310d06316f57c87a8d49014d0841a0c3acd2b67b189b65aff898b6cc0d95e4d99466171e9179dced2297f733110a90a65553e52f6d59cf29fa040cb3dfc8b1182521ba9ebf742afe129a1900fee27eb796f9b380d925850cb6ada207bef66ac9fa0fb84abfb7c2ecd2fa0978000a63c58b5ccc5b2ae3fc6d7d0602e706ce0e6f3908533c82e28063b38abfc2c16edec347caed716f6b012c71495ddf54c6238b2ee37e602c70c0f5929b4e77ce6228991fa4ff2b76ef518f032938f3c45b2d78f81d5baa5f41dc0a1beb7e37bc55fca0edd829c66a5efaf80e0a9b14a7c588fe562aa39940130a4f1974b64eb0c149be2a12fa906a70b4aa735e6c37bfd6ca938495345c3d580e340561fe8edf42f2c05744f1a7fc2e8a5130edd17d1b7df72a591c4e7af13408b3b34fcd3de4b9caf254239a1d47dc52f3460230fd231a6802aa1eb9b2e365384404fd1435ade396ac5d0e392faccfec5d742b2b108a53991169dc0a4f56856ba864e54ab89f69a2e8c6028ab0df632c3c3bcb5a41711a2d8189fe202f3a0f143fbc4fcbcc8446cf72bd5342cd1fd09861ba1072d4e09496fde8dfe6ba78a06a1de6040e8716956cc830e4d6fb124c9b1d7dbfe9e39896feb14fee09c456bfdffacc26248b70b2798ad900928eb77fd73ff2e9ad0d6768cfa96abb364ea0778cfc93ab0ae2b22f636665feb8a243ddeb097f4fa4696d1d4ddf8fcecca40f25f486da158192610fba30322e577006c3e7d19964f2f82efe538c2c1b8382302b59977606e3db3786fe2f31cf1919a777ee21c2fb827cc5496697b98a18fdb6309e8f2ff433d5f7d51c5dc5c02f5e0b223a1b14e8d0a222ae53c54d67625e0826eb6a2fcc8f3e683fe5b3f393808a79b8e0c6c248d79eaaed46f1fd2611644fe7fcdccb1d3a401e7a0bae4a0665059204c4bb8fa65a6099a27fc0704962fd176545433dd0390b8fad7985c8a685a15c49902ce733a16f181cba767400e46c59eaba8b49355a357ef24feec19151ccdcabec2babd739978531f4e6df4963e2e391a9608185a9268e7a6ec636a0d4a5de6b53ded711d0a9f547974a06a780949e87f127605984576c9c99d2542da9cc173b26303a0eba2ff236154f96d183f671835084d40f6cfb499a9a5d9cea382a2f0763ee2948b74f50f6323462c2b80c8992a34f2c17ea30b00d886ea35135e9ce66fcc680255ad68bfe03151377b8399e8b2a6b54fe87bc976f913208e44a93610c7e8940ceb97c34cc72eac93396b9f23eafbc4d8d25311d1594a613811de8b831a66c8c390e837edad2a27d2fae3d6b59f988cae206072284805719abdf8333daecd823fd4fb636720500386d6ef678189d959a039cb6aac3820a49a2091520f2a401d043558f6f3c74c68d0df73bdebf3788a1bb4ddc81c873f5124bb73f55f59c449e2c6b399ba3277b7ec33d71fda2ff931c1e66b7db9db662a0bca5b25f5d5295b351a39165b1cb22066993e0849b726d20dd9c06c9d1258a035c2b733a19de0b08936c7b09bc216a206843067cc0bbcfff5fce621da8d996c376021011cff5eeac0e2ecd07eb1cb4ec1c0cec13d328e0d3b185439c71ce924def3c7d7d2391636e78354e58cdbe2e6237523ea7a0acfb350897461b92a8946c61e7afca0ab95be7f43db5c185a09f01c252ef7d52bd9b755cf612a64d690a4ac562b6c80974033ba567fe46b88a477778102c23e512d81bf72a96d3cdd84cd1707d8e7a308da127176d6a12a5c2fbcb9d54605238bd953324ae05e300faf15cc96c9d6d463cba00fbf3eb95b7b895121b018a49adc97f55e4fb1c3ec5e09b37e5e0f5072d676b99b722094bd5524b51cb65a8be0fc0b24b53d058f3fd08c9322b26b06938be0b1d6f8a8c86c6c63951fcacdd3587f7c96449afa595949b2ed30f41a5dfa85aa5a110c6e58fe48d599e925df0d9575b2ad606b48ecfd87e89ffc0bbb7c5bf44a82e3e0c5f89e1eab93cca9b86b423fef6ee3f1d6cfdd4f06087d0f644376a0fbf3bce3787ee9861e28d2bc9ca502b41548223771ced8f30d4aa4ef86f3b638fe838d3f583da18bd6d74c547e7f1488c874f7f37c058b482dade099ff583d719f069e57354ad86a9938501851d6337111024a13266769b59b8dd9fb374d57bed5636f1fa02a2e1b94165890fdf79fdcdc5e989f0116b06743caea02056697fded57c4dd438237f69ba23673a3cd4b37a7fae5bcee951b8bbab6d42c7d253cf4d04de3ac996610fc61820579ac51c3f59a0322feb37e74252c5ba0fd8804e7c01eeb96deb369c22a9a67e7d9fc3da872275f75b71ea395318e5164c91c2e955534c77c2d6a2c97f6e73b14ad3297ad4c6cde895793785e8040a094d333ab34a19377c326ccd5d6d66a797819ba458b66c9d70de01722b63e90beae08920b61e7eafe98774bbc5f87dcf7772c52e6c5dbfdad0a73310e25e3c5d5e6a8d266812ee56d963102703c5de312e552b014654f78db0111b8a9857bdabd4d9bb47170d76d1de517646ccc7c324231726e07ed303a49c0f4c24aafab1bb1be2c2688aacf8b0ca4e76462984b2a79e05b21967a0060cedbaa09e5d0efb0b7f1ffebb4eecd7680cb5f266297e22b0c87a4b18733e6d10550e94dd5563e83560a8dd7b87c6b41d4c8cdef40c6422068c9a54f4c1603bcd542e5f7705ca2494ef8644be2cf0d2dcdc04e6654026580283dcfc64c0448b9307db7c977c55e6ff478667664a8d3cf13c0a5324f6607569ec2057916a1dc3b5a06d03778ecaf8786527a2ff60c81d660f604d9ebd956b3a021727c28c9f29c92afdc6651f580f7f71fe6e221fc2c16205178fc87ea91b8bb3f5faec01b28e1531ce0159b5124d4b4b4027746f2370a80dae50b576cc2aaab663565e89f0d80f3f009876993ad786bbc33698dc9989fb3666845902690c3468103060a33345b6b757aa5a9d3ddf3fd16171d2b677e7f818c9fa9aed6e0f70c1a272b2f6d7881969ca0a6aec2c9ec38456f8286d2dcf0f9fb0000000000000000000000000000000000000000000000000f1e2e3801",
        "00e07976b4c73212128d859112d1ea2b27712f4fa7ab2e2add6d67950e5847285a8dd468c7ff75124d5c78a4ddd17098af279e54999c4e956c89cbaeaa548fe4338b8c484ef0264835ce2c4545c15d8859455186f4c65cd77fa7ee9142deda40342c15a40a7afe73f2147797a61803fa620b7f70507dbd46421c3b7651e039593a00293e493bf640872e43bb5f64e88fc4b173af417e4360fd0add4450d4c26525c7ebaaa96f4d945f70d66e23e86208b4be1709891bc1d3b2e17d8b604b04cd56478e7fd90f0e71d90eec57a611c28d0defcfaa568eb53b9f509bb58d26e3800b7d608611be9c6899d7a3ab3c3aa1bb1428a55fcaec6ff1a22f53d38e3397878a78297ef215034345f729caa92343b44ca7d52f4f3b841dd6047f3b295bfe2b2fd0099eeaef76709852d10a2aa32a01d66eed0957658124e25e12dd24eea4008ca6fb90b10026291232267a9e4e69cee6125a9e9928ac33aa2390826ed82328c83229aa3c66cb695892682a0440e6132c3e7197f0fa264b3fed025bde6e027fb6835491d6cf3dcd1955c27f0e5ca7cf6cd93e8ad088fa34d034c7cf73caac1cd4f57aa42afd491003a1755dd776c5758f42c177325addda03dccaeecf8851c5a9637de1e217636f8dd41616f5f131764d608f4b62f7ac460f5b05a0c2c11e9a8822466ef3944017f1f118c4f79450ac0de2abb663b908ad154a7125c857097f2b4efbbc020988548682fc797a4128cedf492cabe21419653a0b3311a24b67bb67b984c003f3564cbfc6013af0c15d3f0a7acce49a5b5496146cc0f3f1ea5b439bb512b40001fe3d651a9d723b4a3d2747492a80587ef3e02579077e27e084e0a2486fc616db6a548430938fc93fedb0d0d82caffa71b45e3e3b253526947ba3d043375ba29bb39f8a5eee60baa010f6a748f28d6efac27b88640328df77e5d4add454b8582477fd6baa59b438dd24e29a727b99aa854666d930f309a1a118fa5cebd0b4176023f8d97c221ad5e4f015ca51e98a025dbd98643888bf676d0953c04bc2b6a6d57cd2b9423be0af96b5dc95caea900a2f1dfab2ce0dd359ceb4b5a6b567c0ef98c99d6cf12d6a3d0b4e913b6ab399c950dbe67e20e0dd36d74a64aacd5bc9bbcc8a60ed77c4ae8f9976e2740b39dde81f6c4daefbad1f37573ac82664e5a80b654edc06fc8531dbbe51ede85881bf83abf77b6f83af5861a8bc6a7762dc838f224be35e836ffb229204e76d11144f9af78982a5da2d3ce718b0b74528fe2c20170260573fd3bea5a8f7b00a36d8b464fc77dff8309c4dceb8b0f4a87fde14df7658e48c9e05b4246c3f44a1963bea317a3c4296bc7147ed35d8b86e61e72365229b33ed9bf86c20be2c4ac57e91016e25df90912de780ee1ba1466d6a1a98c5f4d95cc2750edfaeeb35fd93e5cbe5fdf42dbcb1a34750a21ba5e6f1e37cdecccde27bca7946662da409aed0a46fe37e7becaec15ee1dfe32644ecc11584cb010e5d5d761dbdaba68a46de19fb83a9ede3034e19fdc1c64c8e6840a3268786d8549dd2ea389a12004903e96a90cab5b25c96e8d42459726f8a5d230dd0f9b22c138050605ae9b694a75898c551f2b83931758e032fb30c280a32f1e5826d09b5dfdfe95ed85adc34fbedd5db1e4cbf0f6223a94cca1af8e4e6dd64f957b4ccf5bfc8afb7e873c8d0e0aade6b604e723ce41cc49dc16b06d9336ef8d83dd10c3ff9fa7bf52c6462c83d89e86ca98347e5132d699709c6ece8da3d069bbd636aca9dd011a3c155abd4c2701bb1808e3af0747de994e47001c618cf609a87785ab82db242c5aea7e1ec75a50597bbd34936c08f3b1348adf43e4c0404bc"
      ],
      "sequence": 4294967294
    }
  ],
  "vout": [
    {
      "value": 1.0,
      "n": 0,
      "scriptPubKey": {
        "asm": "OP_RETURN 1ccb4e5b616b9dbbd22356e32a1f3e19641834c53b849575b6765063276d274b e299f48eea0bd8e471ed381b20ab9ed00f62d2362b5af964b37a18a87638dcebc2b9d4aeca2bf8c451cd183b008bbef02f42f2160b7ad944935a38885618fccba2d9b4ceaa4b98a431ad785b60ebde904f2292766b1ab924f33a58e836789cab82f994ee8a6bb884118d587b40cbfeb06f02b2564b3a9904d31a78c81658bc8b6219740e6a8b5864f16db89ba02b1e508fe252b6abda79e433fa9828f6b85c6b4239542e4aab7844d14d98bb800b3e70afc272968bfa59c413dab808d6987c4b2259344e2acb1824b12df8dbe06b5e10cfa212f6eb9a39a473bad868b6f81c2b0279146e0aeb3804910dd8fbc04b7e30ef8232d6cbba1984539af84896d83c0be299f48eea0bd8e471ed381b20ab9ed00f62d2362b5af964b37a18a87638dcebc2b9d4aeca2bf8c451cd183b008bbef02f42f2160b7ad944935a38885618fccba2d9b4ceaa4b98a431ad785b60ebde904f2292766b1ab924f33a58e836789cab82f994ee8a6bb884118d587b40cbfeb06f02b2564b3a9904d31a78c81658bc8b6219740e6a8b5864f16db89ba02b1e508fe252b6abda79e433fa9828f6b85c6b4239542e4aab7844d14d98bb800b3e70afc272968bfa59c413dab808d6987c4b2259344e2acb1824b12df8dbe06b5e10cfa212f6eb9a39a473bad868b6f81c2b0279146e0aeb3804910dd8fbc04b7e30ef8232d6cbba1984539af84896d83c0be299f48eea0bd8e471ed381b20ab9ed00f62d2362b5af964b37a18a87638dcebc2b9d4aeca2bf8c451cd183b008bbef02f42f2160b7ad944935a38885618fccba2d9b4ceaa4b98a431ad785b60ebde904f2292766b1ab924f33a58e836789cab82f994ee8a6bb884118d587b40cbfeb06f02b2564b3a9904d31a78c81658bc8b6219740e6a8b5864f16db89ba02b1e508fe252b6abda79e433fa9828f6b85c6b4239542e4aab7844d14d98bb800b3e70afc272968bfa59c413dab808d6987c4b2259344e2acb1824b12df8dbe06b5e10cfa212f6eb9a39a473bad868b6f81c2b0279146e0aeb3804910dd8fbc04b7e30ef8232d6cbba1984539af84896d83c0be299f48eea0bd8e471ed381b20ab9ed00f62d2362b5af964b37a18a87638dcebc2b9d4aeca2bf8c451cd183b008bbef02f42f2160b7ad944935a38885618fccba2d9b4ceaa4b98a431ad785b60ebde904f2292766b1ab924f33a58e836789cab82f994ee8a6bb884118d587b40cbfeb06f02b2564b3a9904d31a78c81658bc8b6219740e6a8b5864f16db89ba02b1e508fe252b6abda79e433fa9828f6b85c6b4239542e4aab7844d14d98bb800b3e70afc272968bfa59c413dab808d6987c4b2259344e2acb1824b12df8dbe06b5e10cfa212f6eb9a39a473bad868b6f81c2b0279146e0aeb3804910dd8fbc04b7e30ef8232d6cbba1984539af84896d83c0be299f48eea0bd8e471ed381b20ab9ed00f62d2362b5af964b37a18a87638dcebc2b9d4aeca2bf8c451cd183b008bbef02f42f2160b7ad944935a38885618fccba2d9b4ceaa4b98a431ad785b60ebde904f2292766b1ab924f33a58e836789cab82f994ee8a6bb884118d587b40cbfeb06f02b2564b3a9904d31a78c81658bc8b6219740e6a8b5864f16db89ba02b1e50fca2073a86416bed41bf9d76bf34c925411278a7bf3a8bd075b26aa32c860185",
        "hex": "6a201ccb4e5b616b9dbbd22356e32a1f3e19641834c53b849575b6765063276d274b4db004e299f48eea0bd8e471ed381b20ab9ed00f62d2362b5af964b37a18a87638dcebc2b9d4aeca2bf8c451cd183b008bbef02f42f2160b7ad944935a38885618fccba2d9b4ceaa4b98a431ad785b60ebde904f2292766b1ab924f33a58e836789cab82f994ee8a6bb884118d587b40cbfeb06f02b2564b3a9904d31a78c81658bc8b6219740e6a8b5864f16db89ba02b1e508fe252b6abda79e433fa9828f6b85c6b4239542e4aab7844d14d98bb800b3e70afc272968bfa59c413dab808d6987c4b2259344e2acb1824b12df8dbe06b5e10cfa212f6eb9a39a473bad868b6f81c2b0279146e0aeb3804910dd8fbc04b7e30ef8232d6cbba1984539af84896d83c0be299f48eea0bd8e471ed381b20ab9ed00f62d2362b5af964b37a18a87638dcebc2b9d4aeca2bf8c451cd183b008bbef02f42f2160b7ad944935a38885618fccba2d9b4ceaa4b98a431ad785b60ebde904f2292766b1ab924f33a58e836789cab82f994ee8a6bb884118d587b40cbfeb06f02b2564b3a9904d31a78c81658bc8b6219740e6a8b5864f16db89ba02b1e508fe252b6abda79e433fa9828f6b85c6b4239542e4aab7844d14d98bb800b3e70afc272968bfa59c413dab808d6987c4b2259344e2acb1824b12df8dbe06b5e10cfa212f6eb9a39a473bad868b6f81c2b0279146e0aeb3804910dd8fbc04b7e30ef8232d6cbba1984539af84896d83c0be299f48eea0bd8e471ed381b20ab9ed00f62d2362b5af964b37a18a87638dcebc2b9d4aeca2bf8c451cd183b008bbef02f42f2160b7ad944935a38885618fccba2d9b4ceaa4b98a431ad785b60ebde904f2292766b1ab924f33a58e836789cab82f994ee8a6bb884118d587b40cbfeb06f02b2564b3a9904d31a78c81658bc8b6219740e6a8b5864f16db89ba02b1e508fe252b6abda79e433fa9828f6b85c6b4239542e4aab7844d14d98bb800b3e70afc272968bfa59c413dab808d6987c4b2259344e2acb1824b12df8dbe06b5e10cfa212f6eb9a39a473bad868b6f81c2b0279146e0aeb3804910dd8fbc04b7e30ef8232d6cbba1984539af84896d83c0be299f48eea0bd8e471ed381b20ab9ed00f62d2362b5af964b37a18a87638dcebc2b9d4aeca2bf8c451cd183b008bbef02f42f2160b7ad944935a38885618fccba2d9b4ceaa4b98a431ad785b60ebde904f2292766b1ab924f33a58e836789cab82f994ee8a6bb884118d587b40cbfeb06f02b2564b3a9904d31a78c81658bc8b6219740e6a8b5864f16db89ba02b1e508fe252b6abda79e433fa9828f6b85c6b4239542e4aab7844d14d98bb800b3e70afc272968bfa59c413dab808d6987c4b2259344e2acb1824b12df8dbe06b5e10cfa212f6eb9a39a473bad868b6f81c2b0279146e0aeb3804910dd8fbc04b7e30ef8232d6cbba1984539af84896d83c0be299f48eea0bd8e471ed381b20ab9ed00f62d2362b5af964b37a18a87638dcebc2b9d4aeca2bf8c451cd183b008bbef02f42f2160b7ad944935a38885618fccba2d9b4ceaa4b98a431ad785b60ebde904f2292766b1ab924f33a58e836789cab82f994ee8a6bb884118d587b40cbfeb06f02b2564b3a9904d31a78c81658bc8b6219740e6a8b5864f16db89ba02b1e50fca2073a86416bed41bf9d76bf34c925411278a7bf3a8bd075b26aa32c860185",
        "type": "nulldata"
      }
    },
    {
      "value": 499986.7803,
      "n": 1,
      "scriptPubKey": {
        "asm": "1 02b0c2ad31dff36ea37e8ea0c68e0635d365dca1d7485932a12676b56a608369",
        "hex": "512002b0c2ad31dff36ea37e8ea0c68e0635d365dca1d7485932a12676b56a608369",
        "reqSigs": 1,
        "type": "witness_v1_scripthash",
        "addresses": [
          "3QJmnh"
        ]
      }
    }
  ],
  "blockhash": "2c44072194b49e49486c87ae6b37abdd6c2c23e2c7b477f70371a1b5276080d1",
  "confirmations": 1,
  "time": 1764179865,
  "blocktime": 1764179865
}