{
  "hex": "01000000000101292279989a8dfa1a1bd79731f1280e7472aea8517a5f5239003c5791d68ae53c0000000000feffffff02d02296e4782d0000225120cee9b7333b7885c9fc0af61807a7d6fbdd29cbffb92f6e70e745760a24459fa300e1f50500000000fdd5046a203244cf17034edca1252db0f193f44988e140fa5cb6003f5c612edd3b8cd572944db00491b9887583f393d70771236371e2788b29851b800d220c48455250c4c8f7cb1fb199a855a3d3b3f72751034351c258ab09a53ba02d022c68657270e4e8d7eb3fd1f9c835c3b3d3974731632331a238cb69c55bc04d624c080512108488b78b5ff1d9e815e393f3b767114303118218eb49e57be06d426c28253230a4a897ab7f113908f50373135787f1a3e3f162f80ba9059b008da28cc8c5d2d04448774b9f311928d523533377a7d183c3d142d82b8925bb20ad82ace8e5f2f06468576bbf517948b543335317c7b1e3a3b122b84be945db40cde2cc888592900408370bdf7159689563137337e791c3839102986bc965fb60edc2eca8a5b2b02428172bff91b9887583f393d70771236371e2788b29851b800d220c48455250c4c8f7cb1fb199a855a3d3b3f72751034351c258ab09a53ba02d022c68657270e4e8d7eb3fd1f9c835c3b3d3974731632331a238cb69c55bc04d624c080512108488b78b5ff1d9e815e393f3b767114303118218eb49e57be06d426c28253230a4a897ab7f113908f50373135787f1a3e3f162f80ba9059b008da28cc8c5d2d04448774b9f311928d523533377a7d183c3d142d82b8925bb20ad82ace8e5f2f06468576bbf517948b543335317c7b1e3a3b122b84be945db40cde2cc888592900408370bdf7159689563137337e791c3839102986bc965fb60edc2eca8a5b2b02428172bff91b9887583f393d70771236371e2788b29851b800d220c48455250c4c8f7cb1fb199a855a3d3b3f72751034351c258ab09a53ba02d022c68657270e4e8d7eb3fd1f9c835c3b3d3974731632331a238cb69c55bc04d624c080512108488b78b5ff1d9e815e393f3b767114303118218eb49e57be06d426c28253230a4a897ab7f113908f50373135787f1a3e3f162f80ba9059b008da28cc8c5d2d04448774b9f311928d523533377a7d183c3d142d82b8925bb20ad82ace8e5f2f06468576bbf517948b543335317c7b1e3a3b122b84be945db40cde2cc888592900408370bdf7159689563137337e791c3839102986bc965fb60edc2eca8a5b2b02428172bff91b9887583f393d70771236371e2788b29851b800d220c48455250c4c8f7cb1fb199a855a3d3b3f72751034351c258ab09a53ba02d022c68657270e4e8d7eb3fd1f9c835c3b3d3974731632331a238cb69c55bc04d624c080512108488b78b5ff1d9e815e393f3b767114303118218eb49e57be06d426c28253230a4a897ab7f113908f50373135787f1a3e3f162f80ba9059b008da28cc8c5d2d04448774b9f311928d523533377a7d183c3d142d82b8925bb20ad82ace8e5f2f06468576bbf517948b543335317c7b1e3a3b122b84be945db40cde2cc888592900408370bdf7159689563137337e791c3839102986bc965fb60edc2eca8a5b2b02428172bff91b9887583f393d70771236371e2788b29851b800d220c48455250c4c8f7cb1fb199a855a3d3b3f72751034351c258ab09a53ba02d022c68657270e4e8d7eb3fd1f9c835c3b3d3974731632331a238cb69c55bc04d624c080512108488b78b5ff1d9e815e393f3b767114303118218eb49e57be06d426c28253230a4a897ab7f113908f50373135787f1a3e3f162f80bec336045603aac06d1ae75fd74f42f1c43bdfde8c87564b553356f724186c9d502fd75093e0d85c375e50b16c6223f7230e193b1ec4492657d419e034a81eb5f67a04164c78c09fa6a758ef4a03d2a7ced61d98ddc8f1f2769118005f60c99553b3eafc8603c38c30d0e31e3d817c2c681d0a0af8c8147f5bd7740b3782af3be4f56e8229198670e705350855bac2fbfd1a4dc898efa3092d37c5dc6ba57169b97f7e3ff9ebf894a3ad3ff391d37a10b4a4ba1922a847904f4be10c4db12f5d9260db32b3398f620aa64603acfbc918b84a8838788e234be585a808cfd01ed87d9c951585e7a4f11e71ac096dfa4b899183770b6a58c8f60dfa191e0c58c4fe4ce0e272eb99e504e73950bc5a5344f16d4e3362c15f67b44b679a732e386044138394bb6a26db9963fc3984a818eefaee5db8f5198a3f11efca868b99327db86881ea9b146f1a8ed6eb631fe5ec93341b4aa7755ef14433bb05d583c48447f1c53c22c3b982842ce0e51449226f92dbadd4efed2ce7ddc8e0ec56bf0408b08032a8e059495ed4458a0d1ff84df30f11c526b73a9e1d390ad91f17e4d986284a1e18ffa08ff1cd734036feaca329621ac3d077e53262326f73ca6dd442263635fceb17d3c9f7e44888a31770ae48de507359b07b5c1cfdd9b3aa05a851a6bb6197a4ded66a0572f37b1de60aeaefc98a709f17b05103f141b19ae2e45e0bf158d79197f78eedb0b4e27e029d70fd52276e954d6b9cf8e9c7da091e164a95a135c002b0a2e251adea308174a85b318d2fb1d721a245b3af498da426784639808d184ced3da9c5b7593540cb9a54230eb2e8e139566b9731d7813da8ab021bca0ae7666d807cca34ceac346768743f5d77003643fa25f9b09b157cefa1a5a4ac1399c0e76e51b4483e4f9409bb9644af664ba24dd574504a53bc56ad99355825f71d930b86f387437e3bd751d756a2b7eb638ccb3b6bcb5f4f62747cd3bd0efc5b5ed128bb1339459a9616d5f75951354ea5508bb33176101f880977986f5110fb1c1da15b30c6a2c23bdbfc5504adc3d729ca9bf65af11480275d353465fce775052eb1f7c0006d6f641a9eee4acafe906a3136aa4f540e26a3a38426ea751f03b442d2bafb980a7373c96ec84a148f1860636a52deccadd89f97fcb23d4237cd857d2b997a50621ef1168ece22b0dcaec9b74bbdf673b44fc385ad99a4424d1d7b3f519446e764adbac6b494d4bbb9e5bc5339a3164ab418a922d90692afed5850f6090ce05810458356320fc38f984456fba5002ee10e5a7adb75f8f54d6a8d6acb90adc668ecb68a420af9a0727b262584fe038283bfd66f22e85d601cc487a120166ec86e47c226fb28253b72b61d743d480b9c48faa07fc411274a9c7732a6d006a837df64061969e5d960f988c56dce6c8b882374fd7ea81432f627361a84b0f384a96dc8dbb4de911df83ca2609bb472231d06075714f39179ef359aadd143ca7faf1141e37bac36088d3b897fc9d999bc66d5e86692e7f39f6fca81a35aa480e13f11203a079344fac72ed5ede9b1dc626e78a1b7042cb4538317e533c034b7192d62d42c8e2cf38a129aa2a579c454a9b6a3cbc6afa9ff970a583215bb565f6e6a2d169abfcda7c6ad95db8031ca986eff593c4de76dd9f26a303e6d9674e0c18a3c467efd65cce104590c804168c595583cf134316827d8527f9aa6eda0d63fa2f9990e98774a021cee5d846178b218e19837cd1dee47399697ebf21961291ad5de7c5744e911313120e454dad98d1dba4a232db0208da6e9df5ba371b60575e1bbbc76223386296e7a7e6046af01ae24dcba257ff26a5537197dd6b7c367901d7405bf02315f8f4c54d1af1ea928f9788d80477d9ea3587623c0b77e391fe4aa6cf7153fa4b0a0d51d4edb68ceeac76b3366679bcc9cedeba221ff0c8bdcd389594d837d74fdcd39444f1de40bea243200ca6bdd2086c0d24dddbc9e875c81651275d849aaadd8793b4ec1e55bd1bd0b1239ce566c2fa20929e0bac70533f27ae94367ddc1a5455cda4ff11cb8a5bb7a7ba97c78cb95904e9be2f7b59f7223f3647750425472d6de7cebdbac6b0a4c17cb8484091476c1ac1d7728263ee9534dd419924437fbf1c93f0cc1b5754f5cec621632486b34cc9552509051a25425d2ca2ac14b800f7c22f3de575f7141267c9ddb9a1734aec5b9c0f21f9bfe766e1684f4f5882f091e27847ce817fa5a83f3745bfce546f45654fb4f6693f8cd693c511b11691dc6d671314531120ebb18ea6e8328f92efcedb591b95053e903e912830f402deeeb96ea72c944b42948648309e9b9912160f7b267bf7d0cde1e41f306c21a8288ee0135f2538bf3c47c55104310764230a2af82ff3d617e58e5aa1b850bfbed3446be075e7371b943d7b587ed94f9f1acf546a036fe151e6b19942395d605f37cb3d2695eab6bf2346199d9026c3f7b91bfe66efd9edb2b63fd40a95207a1730387dae8682ac131dbecf5ab016491e6a580332a6eb443211917250575009639e71af171b71057ef83de05060d26ea309d268951b7e6a84997e312ac2b42b2f620bdea55d1976ff8c8cfcabb7833cfe452107269c13a17d6bd491a58bc5ca4d8b6e16eefa4bf57bba682514d7952399f5f4ada76c1f3b01aa850f3aa0b4775671e33a5d1ce337181e963a5d145eb92136e1252ceddbc3712a149633334a2571361b1e904a9594b6fd6cfac7170635994a04a085b0babfa7daa61295cc9a348a9521ae1cc9e2798fc7ae973cdf2bb507258693725991562542717736b91b5fb0be1c9b45f5495382c713893edcdf58597d7e0823df9205107e574394b28879383367b70fecc441a935ba2d4e8823175a5fed3377e8c5b6096742d8ba18d31f7ab9ae0ab698556a43fae69591e3ab6d62cefc8bcd4eeb1c37f383bbf1c1510bd286c377ee0060c9cbe4a5e2664c8db3178109753d7098c526fdbc428f2457899ddea345cffdf3f601f86814075aeeafa92371260f76d30bce7e9e84e4a87fde45e753f754baec6e6dd21667fa928202ae6d4c51d5bcd285f2c05e02c770ee34346acb2bde68f3af1b46677e7a4819b61de466b716398fd6a6a762bdf7029279f42513537f4d2546bcb538b74f5bf8ef99df257e462dffc5378b944489976bba628c26712d634d050575f4ab1c08129a2bed2874af9d1f04d7c24924643654bd1870b2e24a2ac019a3a4649e0edafe9258a18bb63f78405ec2d0f321a6031ffbf9f0a172d2bffae0e4f65942a551da821a18701a040359ac5a19be4b3c067d05371d3fd6fa8c90023435385912e37d8a01fd8de58a97020b8c134cfa4d03043a4a547995a2a7aab3b8bcbfc8000730354243516e70818590b3cbcee1000613152d383a3b4e646b7c92dbddfb1026384e637173848798b6b8bfe0ef0000000000000000000000000000000000000f1f2f3e01fd2105007f3f19d2144b7aab03ff31e8de17cc052fb5bf159105ff55084930e4e67195c5b5646077ee38aede7b13b9ee8a8b9eef5fdf64965d630bcc60f334cfac42f14931ecad1baebe1a57a08a790b71291610f5f5532337ae3e3997a3216d79de567de9fbc29eb8a6dd24e7a95129d15afc3ea58e398469e0661b50b8a998b0c3b6961cf7207490f6c354ce7183744941129948f2c64ddb381508e6ce668c54626b42d6e8fe3a4f7ceb6debf202d6e5cc8d4ef0d1dae68df2597312fb9908affc78c9d0b5fba494d036caa6dae002d69ce74f14036d0819b6ad5c352753e0966273d6f1633ed752e673db6b71442f1a299cd37bd55d45f4851f61c4564437256b70ef264746e596665453418d39453b2285f3475ac38a55c444498e229f4a0188c9211c4453dee300c05ba631020945bfdde0fd123a5183bb54a022d3a3aece0b52bf3121458b40b52393c493314f5574e01cd1c30968bd4da06824a1c3ba99ec412f6b347798a3fb242fe04108ab5410f5f300cff3a3a8d789ed0fe92211ab8ca4c3dd2e50b7269a97f4faf231781b8d24c5a4ca8bdc3be1119524c87a5720450125f8e6d9dd2840e410a06b39bd895b47239720a7a4c203b000e2f0fe7dd8d2bbc0d771c352cb2efaee6c0daa815211a0114a09934a5360b633701362558fbed1a3d37ad11b9a0ec2a5034ea3bdfabbeeec109bfb3d4d388ba572465eac8f3531246eb2789413954d30b2776649654a9a10ef5d5838169d2bac5c8655eb885bfaf1ca0e328eef0eea3fd719e36665a9b581023cda44728364059cd83c8979458a482959391cd10b23c68b2ed1708192e776649aaa535e04eb905310c2edb1a2d96bf80185b13a4a239c35cbcf06588d96d2e098de541a1833e0d35d78e25703d804cc50b88a8f294bad62958281da8abeb6716e29ee801fbe4f352fae33513c983ec72e2bc864eef1a6e25645d4e685cbcabdf2cfc6a5392103e876610675f3e3e2637ab950fb10c097c3a453ae275d02a45ffb8961cfdebcb658ecb908e3c3000f8354ee80e137c55c361a4d55745abd1498272605b3e160bb8f7c3491bd141c63f4b5706894f3ad51a9f0eb424bdcafd6f3466e2d063e31c8567ac0c16735e9646eb017639ed3d3e74c3f8ebe355b39a82eab3a367276d150f24d892200cbec40720d5420d81a61e00d532dd7c153fbeeef8313e3e73394245e557a1a1d48c13190561248b7138dd002e4b7dd1e52d814e2344cb3821f6518a5bb53f8784e687429c669eb0630054f19b0a7271853e6d10b945cda9e177cea15532d01777a737f9f622f34a77879e5eb7f0c36b32f4b97895d158ed2e37c9a888fddcbf1d277fd215a3b95ccd12ac71e9555f53ef5bb4244163911efc1c2a24520889e7cecb0cfbf523c20f6197aa8ab328838a81095cd43c4b06a5092e3b7f4e6ff61e62f0822ce07101b102ced6f71ad9367e42f3fcbab4ea70e7151eb2831b5f488ecb62d18dcf506cdda183cbf783ba5aaccd221550447182415e37595e864008847954db5a27ac64a63ad16cb3ea24e5dd5a4acb441efe76b03300937365de14d85f36719b9851c1a3594a2615f0e4d71d8bba63ca3478f9295b0ec00a47f34f0715e838b097abb99bedd89e33af8432bddd52063e7b6b1b2ccbb7c955d843cd3ecda4dc7173e02bb78d74cbe6b1bbb8ffd2bfd546016ad10b8c5615092be30de5fc0ba041085fdc8b04491407df61c38aae4fcee33743bd46ee5170e280e6f6fa12626fe1654c291b6857cba61483fb8f25a7145ece1e3164328a395f40c4040aca2ac5e15b2240347584d96d90296beaa78588f299f5cce7eae29ad4d287fa2442564937d000000",
  "txid": "2d87216c70691287e4b4fec03638e6133f8c8fe12e9d1479cceb34510a2921c0",
  "hash": "b828f157ea9d5383f26daf43765696e42387514fc8d4cbec34ac4f256c53dd12",
  "size": 5085,
  "vsize": 2278,
  "version": 1,
  "locktime": 125,
  "vin": [
    {
      "txid": "3ce58ad691573c0039525f7a51a8ae72740e28f13197d71b1afa8d9a98792229",
      "vout": 0,
      "scriptSig": {
        "asm": "",
        "hex": ""
      },
      "txinwitness": [
        "3e0d85c375e50b16c6223f7230e193b1ec4492657d419e034a81eb5f67a04164c78c09fa6a758ef4a03d2a7ced61d98ddc8f1f2769118005f60c99553b3eafc8603c38c30d0e31e3d817c2c681d0a0af8c8147f5bd7740b3782af3be4f56e8229198670e705350855bac2fbfd1a4dc898efa3092d37c5dc6ba57169b97f7e3ff9ebf894a3ad3ff391d37a10b4a4ba1922a847904f4be10c4db12f5d9260db32b3398f620aa64603acfbc918b84a8838788e234be585a808cfd01ed87d9c951585e7a4f11e71ac096dfa4b899183770b6a58c8f60dfa191e0c58c4fe4ce0e272eb99e504e73950bc5a5344f16d4e3362c15f67b44b679a732e386044138394bb6a26db9963fc3984a818eefaee5db8f5198a3f11efca868b99327db86881ea9b146f1a8ed6eb631fe5ec93341b4aa7755ef14433bb05d583c48447f1c53c22c3b982842ce0e51449226f92dbadd4efed2ce7ddc8e0ec56bf0408b08032a8e059495ed4458a0d1ff84df30f11c526b73a9e1d390ad91f17e4d986284a1e18ffa08ff1cd734036feaca329621ac3d077e53262326f73ca6dd442263635fceb17d3c9f7e44888a31770ae48de507359b07b5c1cfdd9b3aa05a851a6bb6197a4ded66a0572f37b1de60aeaefc98a709f17b05103f141b19ae2e45e0bf158d79197f78eedb0b4e27e029d70fd52276e954d6b9cf8e9c7da091e164a95a135c002b0a2e251adea308174a85b318d2fb1d721a245b3af498da426784639808d184ced3da9c5b7593540cb9a54230eb2e8e139566b9731d7813da8ab021bca0ae7666d807cca34ceac346768743f5d77003643fa25f9b09b157cefa1a5a4ac1399c0e76e51b4483e4f9409bb9644af664ba24dd574504a53bc56ad99355825f71d930b86f387437e3bd751d756a2b7eb638ccb3b6bcb5f4f62747cd3bd0efc5b5ed128bb1339459a9616d5f75951354ea5508bb33176101f880977986f5110fb1c1da15b30c6a2c23bdbfc5504adc3d729ca9bf65af11480275d353465fce775052eb1f7c0006d6f641a9eee4acafe906a3136aa4f540e26a3a38426ea751f03b442d2bafb980a7373c96ec84a148f1860636a52deccadd89f97fcb23d4237cd857d2b997a50621ef1168ece22b0dcaec9b74bbdf673b44fc385ad99a4424d1d7b3f519446e764adbac6b494d4bbb9e5bc5339a3164ab418a922d90692afed5850f6090ce05810458356320fc38f984456fba5002ee10e5a7adb75f8f54d6a8d6acb90adc668ecb68a420af9a0727b262584fe038283bfd66f22e85d601cc487a120166ec86e47c226fb28253b72b61d743d480b9c48faa07fc411274a9c7732a6d006a837df64061969e5d960f988c56dce6c8b882374fd7ea81432f627361a84b0f384a96dc8dbb4de911df83ca2609bb472231d06075714f39179ef359aadd143ca7faf1141e37bac36088d3b897fc9d999bc66d5e86692e7f39f6fca81a35aa480e13f11203a079344fac72ed5ede9b1dc626e78a1b7042cb4538317e533c034b7192d62d42c8e2cf38a129aa2a579c454a9b6a3cbc6afa9ff970a583215bb565f6e6a2d169abfcda7c6ad95db8031ca986eff593c4de76dd9f26a303e6d9674e0c18a3c467efd65cce104590c804168c595583cf134316827d8527f9aa6eda0d63fa2f9990e98774a021cee5d846178b218e19837cd1dee47399697ebf21961291ad5de7c5744e911313120e454dad98d1dba4a232db0208da6e9df5ba371b60575e1bbbc76223386296e7a7e6046af01ae24dcba257ff26a5537197dd6b7c367901d7405bf02315f8f4c54d1af1ea928f9788d80477d9ea3587623c0b77e391fe4aa6cf7153fa4b0a0d51d4edb68ceeac76b3366679bcc9cedeba221ff0c8bdcd389594d837d74fdcd39444f1de40bea243200ca6bdd2086c0d24dddbc9e875c81651275d849aaadd8793b4ec1e55bd1bd0b1239ce566c2fa20929e0bac70533f27ae94367ddc1a5455cda4ff11cb8a5bb7a7ba97c78cb95904e9be2f7b59f7223f3647750425472d6de7cebdbac6b0a4c17cb8484091476c1ac1d7728263ee9534dd419924437fbf1c93f0cc1b5754f5cec621632486b34cc9552509051a25425d2ca2ac14b800f7c22f3de575f7141267c9ddb9a1734aec5b9c0f21f9bfe766e1684f4f5882f091e27847ce817fa5a83f3745bfce546f45654fb4f6693f8cd693c511b11691dc6d671314531120ebb18ea6e8328f92efcedb591b95053e903e912830f402deeeb96ea72c944b42948648309e9b9912160f7b267bf7d0cde1e41f306c21a8288ee0135f2538bf3c47c55104310764230a2af82ff3d617e58e5aa1b850bfbed3446be075e7371b943d7b587ed94f9f1acf546a036fe151e6b19942395d605f37cb3d2695eab6bf2346199d9026c3f7b91bfe66efd9edb2b63fd40a95207a1730387dae8682ac131dbecf5ab016491e6a580332a6eb443211917250575009639e71af171b71057ef83de05060d26ea309d268951b7e6a84997e312ac2b42b2f620bdea55d1976ff8c8cfcabb7833cfe452107269c13a17d6bd491a58bc5ca4d8b6e16eefa4bf57bba682514d7952399f5f4ada76c1f3b01aa850f3aa0b4775671e33a5d1ce337181e963a5d145eb92136e1252ceddbc3712a149633334a2571361b1e904a9594b6fd6cfac7170635994a04a085b0babfa7daa61295cc9a348a9521ae1cc9e2798fc7ae973cdf2bb507258693725991562542717736b91b5fb0be1c9b45f5495382c713893edcdf58597d7e0823df9205107e574394b28879383367b70fecc441a935ba2d4e8823175a5fed3377e8c5b6096742d8ba18d31f7ab9ae0ab698556a43fae69591e3ab6d62cefc8bcd4eeb1c37f383bbf1c1510bd286c377ee0060c9cbe4a5e2664c8db3178109753d7098c526fdbc428f2457899ddea345cffdf3f601f86814075aeeafa92371260f76d30bce7e9e84e4a87fde45e753f754baec6e6dd21667fa928202ae6d4c51d5bcd285f2c05e02c770ee34346acb2bde68f3af1b46677e7a4819b61de466b716398fd6a6a762bdf7029279f42513537f4d2546bcb538b74f5bf8ef99df257e462dffc5378b944489976bba628c26712d634d050575f4ab1c08129a2bed2874af9d1f04d7c24924643654bd1870b2e24a2ac019a3a4649e0edafe9258a18bb63f78405ec2d0f321a6031ffbf9f0a172d2bffae0e4f65942a551da821a18701a040359ac5a19be4b3c067d05371d3fd6fa8c90023435385912e37d8a01fd8de58a97020b8c134cfa4d03043a4a547995a2a7aab3b8bcbfc8000730354243516e70818590b3cbcee1000613152d383a3b4e646b7c92dbddfb1026384e637173848798b6b8bfe0ef0000000000000000000000000000000000000f1f2f3e01",
        "007f3f19d2144b7aab03ff31e8de17cc052fb5bf159105ff55084930e4e67195c5b5646077ee38aede7b13b9ee8a8b9eef5fdf64965d630bcc60f334cfac42f14931ecad1baebe1a57a08a790b71291610f5f5532337ae3e3997a3216d79de567de9fbc29eb8a6dd24e7a95129d15afc3ea58e398469e0661b50b8a998b0c3b6961cf7207490f6c354ce7183744941129948f2c64ddb381508e6ce668c54626b42d6e8fe3a4f7ceb6debf202d6e5cc8d4ef0d1dae68df2597312fb9908affc78c9d0b5fba494d036caa6dae002d69ce74f14036d0819b6ad5c352753e0966273d6f1633ed752e673db6b71442f1a299cd37bd55d45f4851f61c4564437256b70ef264746e596665453418d39453b2285f3475ac38a55c444498e229f4a0188c9211c4453dee300c05ba631020945bfdde0fd123a5183bb54a022d3a3aece0b52bf3121458b40b52393c493314f5574e01cd1c30968bd4da06824a1c3ba99ec412f6b347798a3fb242fe04108ab5410f5f300cff3a3a8d789ed0fe92211ab8ca4c3dd2e50b7269a97f4faf231781b8d24c5a4ca8bdc3be1119524c87a5720450125f8e6d9dd2840e410a06b39bd895b47239720a7a4c203b000e2f0fe7dd8d2bbc0d771c352cb2efaee6c0daa815211a0114a09934a5360b633701362558fbed1a3d37ad11b9a0ec2a5034ea3bdfabbeeec109bfb3d4d388ba572465eac8f3531246eb2789413954d30b2776649654a9a10ef5d5838169d2bac5c8655eb885bfaf1ca0e328eef0eea3fd719e36665a9b581023cda44728364059cd83c8979458a482959391cd10b23c68b2ed1708192e776649aaa535e04eb905310c2edb1a2d96bf80185b13a4a239c35cbcf06588d96d2e098de541a1833e0d35d78e25703d804cc50b88a8f294bad62958281da8abeb6716e29ee801fbe4f352fae33513c983ec72e2bc864eef1a6e25645d4e685cbcabdf2cfc6a5392103e876610675f3e3e2637ab950fb10c097c3a453ae275d02a45ffb8961cfdebcb658ecb908e3c3000f8354ee80e137c55c361a4d55745abd1498272605b3e160bb8f7c3491bd141c63f4b5706894f3ad51a9f0eb424bdcafd6f3466e2d063e31c8567ac0c16735e9646eb017639ed3d3e74c3f8ebe355b39a82eab3a367276d150f24d892200cbec40720d5420d81a61e00d532dd7c153fbeeef8313e3e73394245e557a1a1d48c13190561248b7138dd002e4b7dd1e52d814e2344cb3821f6518a5bb53f8784e687429c669eb0630054f19b0a7271853e6d10b945cda9e177cea15532d01777a737f9f622f34a77879e5eb7f0c36b32f4b97895d158ed2e37c9a888fddcbf1d277fd215a3b95ccd12ac71e9555f53ef5bb4244163911efc1c2a24520889e7cecb0cfbf523c20f6197aa8ab328838a81095cd43c4b06a5092e3b7f4e6ff61e62f0822ce07101b102ced6f71ad9367e42f3fcbab4ea70e7151eb2831b5f488ecb62d18dcf506cdda183cbf783ba5aaccd221550447182415e37595e864008847954db5a27ac64a63ad16cb3ea24e5dd5a4acb441efe76b03300937365de14d85f36719b9851c1a3594a2615f0e4d71d8bba63ca3478f9295b0ec00a47f34f0715e838b097abb99bedd89e33af8432bddd52063e7b6b1b2ccbb7c955d843cd3ecda4dc7173e02bb78d74cbe6b1bbb8ffd2bfd546016ad10b8c5615092be30de5fc0ba041085fdc8b04491407df61c38aae4fcee33743bd46ee5170e280e6f6fa12626fe1654c291b6857cba61483fb8f25a7145ece1e3164328a395f40c4040aca2ac5e15b2240347584d96d90296beaa78588f299f5cce7eae29ad4d287fa244256493"
      ],
      "sequence": 4294967294
    }
  ],
  "vout": [
    {
      "value": 499972.5437,
      "n": 0,
      "scriptPubKey": {
        "asm": "1 cee9b7333b7885c9fc0af61807a7d6fbdd29cbffb92f6e70e745760a24459fa3",
        "hex": "5120cee9b7333b7885c9fc0af61807a7d6fbdd29cbffb92f6e70e745760a24459fa3",
        "reqSigs": 1,
        "type": "witness_v1_scripthash",
        "addresses": [
          "3QJmnh"
        ]
      }
    },
    {
      "value": 1.0,
      "n": 1,
      "scriptPubKey": {
        "asm": "OP_RETURN 3244cf17034edca1252db0f193f44988e140fa5cb6003f5c612edd3b8cd57294 91b9887583f393d70771236371e2788b29851b800d220c48455250c4c8f7cb1fb199a855a3d3b3f72751034351c258ab09a53ba02d022c68657270e4e8d7eb3fd1f9c835c3b3d3974731632331a238cb69c55bc04d624c080512108488b78b5ff1d9e815e393f3b767114303118218eb49e57be06d426c28253230a4a897ab7f113908f50373135787f1a3e3f162f80ba9059b008da28cc8c5d2d04448774b9f311928d523533377a7d183c3d142d82b8925bb20ad82ace8e5f2f06468576bbf517948b543335317c7b1e3a3b122b84be945db40cde2cc888592900408370bdf7159689563137337e791c3839102986bc965fb60edc2eca8a5b2b02428172bff91b9887583f393d70771236371e2788b29851b800d220c48455250c4c8f7cb1fb199a855a3d3b3f72751034351c258ab09a53ba02d022c68657270e4e8d7eb3fd1f9c835c3b3d3974731632331a238cb69c55bc04d624c080512108488b78b5ff1d9e815e393f3b767114303118218eb49e57be06d426c28253230a4a897ab7f113908f50373135787f1a3e3f162f80ba9059b008da28cc8c5d2d04448774b9f311928d523533377a7d183c3d142d82b8925bb20ad82ace8e5f2f06468576bbf517948b543335317c7b1e3a3b122b84be945db40cde2cc888592900408370bdf7159689563137337e791c3839102986bc965fb60edc2eca8a5b2b02428172bff91b9887583f393d70771236371e2788b29851b800d220c48455250c4c8f7cb1fb199a855a3d3b3f72751034351c258ab09a53ba02d022c68657270e4e8d7eb3fd1f9c835c3b3d3974731632331a238cb69c55bc04d624c080512108488b78b5ff1d9e815e393f3b767114303118218eb49e57be06d426c28253230a4a897ab7f113908f50373135787f1a3e3f162f80ba9059b008da28cc8c5d2d04448774b9f311928d523533377a7d183c3d142d82b8925bb20ad82ace8e5f2f06468576bbf517948b543335317c7b1e3a3b122b84be945db40cde2cc888592900408370bdf7159689563137337e791c3839102986bc965fb60edc2eca8a5b2b02428172bff91b9887583f393d70771236371e2788b29851b800d220c48455250c4c8f7cb1fb199a855a3d3b3f72751034351c258ab09a53ba02d022c68657270e4e8d7eb3fd1f9c835c3b3d3974731632331a238cb69c55bc04d624c080512108488b78b5ff1d9e815e393f3b767114303118218eb49e57be06d426c28253230a4a897ab7f113908f50373135787f1a3e3f162f80ba9059b008da28cc8c5d2d04448774b9f311928d523533377a7d183c3d142d82b8925bb20ad82ace8e5f2f06468576bbf517948b543335317c7b1e3a3b122b84be945db40cde2cc888592900408370bdf7159689563137337e791c3839102986bc965fb60edc2eca8a5b2b02428172bff91b9887583f393d70771236371e2788b29851b800d220c48455250c4c8f7cb1fb199a855a3d3b3f72751034351c258ab09a53ba02d022c68657270e4e8d7eb3fd1f9c835c3b3d3974731632331a238cb69c55bc04d624c080512108488b78b5ff1d9e815e393f3b767114303118218eb49e57be06d426c28253230a4a897ab7f113908f50373135787f1a3e3f162f80bec336045603aac06d1ae75fd74f42f1c43bdfde8c87564b553356f724186c9d5",
        "hex": "6a203244cf17034edca1252db0f193f44988e140fa5cb6003f5c612edd3b8cd572944db00491b9887583f393d70771236371e2788b29851b800d220c48455250c4c8f7cb1fb199a855a3d3b3f72751034351c258ab09a53ba02d022c68657270e4e8d7eb3fd1f9c835c3b3d3974731632331a238cb69c55bc04d624c080512108488b78b5ff1d9e815e393f3b767114303118218eb49e57be06d426c28253230a4a897ab7f113908f50373135787f1a3e3f162f80ba9059b008da28cc8c5d2d04448774b9f311928d523533377a7d183c3d142d82b8925bb20ad82ace8e5f2f06468576bbf517948b543335317c7b1e3a3b122b84be945db40cde2cc888592900408370bdf7159689563137337e791c3839102986bc965fb60edc2eca8a5b2b02428172bff91b9887583f393d70771236371e2788b29851b800d220c48455250c4c8f7cb1fb199a855a3d3b3f72751034351c258ab09a53ba02d022c68657270e4e8d7eb3fd1f9c835c3b3d3974731632331a238cb69c55bc04d624c080512108488b78b5ff1d9e815e393f3b767114303118218eb49e57be06d426c28253230a4a897ab7f113908f50373135787f1a3e3f162f80ba9059b008da28cc8c5d2d04448774b9f311928d523533377a7d183c3d142d82b8925bb20ad82ace8e5f2f06468576bbf517948b543335317c7b1e3a3b122b84be945db40cde2cc888592900408370bdf7159689563137337e791c3839102986bc965fb60edc2eca8a5b2b02428172bff91b9887583f393d70771236371e2788b29851b800d220c48455250c4c8f7cb1fb199a855a3d3b3f72751034351c258ab09a53ba02d022c68657270e4e8d7eb3fd1f9c835c3b3d3974731632331a238cb69c55bc04d624c080512108488b78b5ff1d9e815e393f3b767114303118218eb49e57be06d426c28253230a4a897ab7f113908f50373135787f1a3e3f162f80ba9059b008da28cc8c5d2d04448774b9f311928d523533377a7d183c3d142d82b8925bb20ad82ace8e5f2f06468576bbf517948b543335317c7b1e3a3b122b84be945db40cde2cc888592900408370bdf7159689563137337e791c3839102986bc965fb60edc2eca8a5b2b02428172bff91b9887583f393d70771236371e2788b29851b800d220c48455250c4c8f7cb1fb199a855a3d3b3f72751034351c258ab09a53ba02d022c68657270e4e8d7eb3fd1f9c835c3b3d3974731632331a238cb69c55bc04d624c080512108488b78b5ff1d9e815e393f3b767114303118218eb49e57be06d426c28253230a4a897ab7f113908f50373135787f1a3e3f162f80ba9059b008da28cc8c5d2d04448774b9f311928d523533377a7d183c3d142d82b8925bb20ad82ace8e5f2f06468576bbf517948b543335317c7b1e3a3b122b84be945db40cde2cc888592900408370bdf7159689563137337e791c3839102986bc965fb60edc2eca8a5b2b02428172bff91b9887583f393d70771236371e2788b29851b800d220c48455250c4c8f7cb1fb199a855a3d3b3f72751034351c258ab09a53ba02d022c68657270e4e8d7eb3fd1f9c835c3b3d3974731632331a238cb69c55bc04d624c080512108488b78b5ff1d9e815e393f3b767114303118218eb49e57be06d426c28253230a4a897ab7f113908f50373135787f1a3e3f162f80bec336045603aac06d1ae75fd74f42f1c43bdfde8c87564b553356f724186c9d5",
        "type": "nulldata"
      }
    }
  ],
  "blockhash": "e6a4adf54726245f4c34283d217923918cb1557d6baaa77edf2bc72597605551",
  "confirmations": 1,
  "time": 1764181118,
  "blocktime": 1764181118
}