{
  "hex": "01000000000101ad2ff04b18f3e3a89532876245f7e4ca8def1cdb94f13fc30802821c39d7baeb0100000000feffffff02b0767139792d000022512019372836c758a2ee470088a851bfa2422f6c15f57119958b6a6da3cde121fd5c00e1f50500000000fdd5046a20624c72d59b81cb3ceb2526157e624eb6ad1422a69559795a8d05438214b9b4514db004c04a418cf5afde65c22079658618c27e155b879e42499e80cf93e3210ac709bde06a61acd58ffe45e2005945a638e25e357ba7be6269bea0efb3c3012ae7299d800a01ccb5ef9e2582603925c658823e551bc7de0209dec08fd3a3614a8749fda02a21ec95cfbe05a2401905e678a21e753be7fe2229fee0aff383416aa769dd40cac10c752f5ee542a0f9e5069842fe95db071ec2c91e004f1363a18a47893d60eae12c550f7ec56280d9c526b862deb5fb273ee2e93e206f334381aa67a91d008a814c356f1ea502e0b9a546d802bed59b475e82895e400f5323e1ca07c97d20aaa16c154f3e8522c0998566f8229ef5bb677ea2a97e602f7303c1ea27e95dc04a418cf5afde65c22079658618c27e155b879e42499e80cf93e3210ac709bde06a61acd58ffe45e2005945a638e25e357ba7be6269bea0efb3c3012ae7299d800a01ccb5ef9e2582603925c658823e551bc7de0209dec08fd3a3614a8749fda02a21ec95cfbe05a2401905e678a21e753be7fe2229fee0aff383416aa769dd40cac10c752f5ee542a0f9e5069842fe95db071ec2c91e004f1363a18a47893d60eae12c550f7ec56280d9c526b862deb5fb273ee2e93e206f334381aa67a91d008a814c356f1ea502e0b9a546d802bed59b475e82895e400f5323e1ca07c97d20aaa16c154f3e8522c0998566f8229ef5bb677ea2a97e602f7303c1ea27e95dc04a418cf5afde65c22079658618c27e155b879e42499e80cf93e3210ac709bde06a61acd58ffe45e2005945a638e25e357ba7be6269bea0efb3c3012ae7299d800a01ccb5ef9e2582603925c658823e551bc7de0209dec08fd3a3614a8749fda02a21ec95cfbe05a2401905e678a21e753be7fe2229fee0aff383416aa769dd40cac10c752f5ee542a0f9e5069842fe95db071ec2c91e004f1363a18a47893d60eae12c550f7ec56280d9c526b862deb5fb273ee2e93e206f334381aa67a91d008a814c356f1ea502e0b9a546d802bed59b475e82895e400f5323e1ca07c97d20aaa16c154f3e8522c0998566f8229ef5bb677ea2a97e602f7303c1ea27e95dc04a418cf5afde65c22079658618c27e155b879e42499e80cf93e3210ac709bde06a61acd58ffe45e2005945a638e25e357ba7be6269bea0efb3c3012ae7299d800a01ccb5ef9e2582603925c658823e551bc7de0209dec08fd3a3614a8749fda02a21ec95cfbe05a2401905e678a21e753be7fe2229fee0aff383416aa769dd40cac10c752f5ee542a0f9e5069842fe95db071ec2c91e004f1363a18a47893d60eae12c550f7ec56280d9c526b862deb5fb273ee2e93e206f334381aa67a91d008a814c356f1ea502e0b9a546d802bed59b475e82895e400f5323e1ca07c97d20aaa16c154f3e8522c0998566f8229ef5bb677ea2a97e602f7303c1ea27e95dc04a418cf5afde65c22079658618c27e155b879e42499e80cf93e3210ac709bde06a61acd58ffe45e2005945a638e25e357ba7be6269bea0efb3c3012ae7299d800a01ccb5ef9e2582603925c658823e551bc7de0209dec08fd3a3614a8749fda02a21ec95cfbe05a2401905e678a21e753be7fe2229fee0aff383416aa769dd40cac10c752f5ee542a0f9e5069842fea00ab29d9697c6f527bae71e6f6c54aae90938caebdef1657be0c5b1db58ffaa02fd750957c2b007cd57f80dddfffe2afe34b6abd033dca04d89fab0b3a32401ac259fc4e4e499eafc4f8fbdaaae0d9c1fbcd52e633db5abc5b2561ee0012d742c8d51f59225b9bdac1c4d662f517fa92b7d09a302afff0854b21875e5067ceea7e85b2e0a5acbc27b5b71504b03ef81479fa5bffaa53d55aa004e8437d74f2f146dd4c48c6e49868bb5826994bcaf895bc4ce7f8727edfbdc33e2d81c651f89ba2a2f85949d30535846b060a38ccbe932eea64495b9807f2aa083455f6405883cd207c2e1b5fb55fa672f389552d71cd914e85de40bb32018535ac969e5a31b0e33c494ea8e991651e147a3d9a78d55200d8714679c360c0bdf3d79ccc110209e9880554038785d44e8864be66e93f4be051eed5c2a0ff6c70e23bad2f9023c5939a26073332971de1e1df1ba3f5b024e8aa12a7e7fbdc915f44c3e7c1f2f82cb28d59e50df3fb8cf575e9a6c3583f0e3421ad376b530b504f71f4d5229db969ae3074a78c742f1fd96d6f16ec1f4c99ca1bf7eaccaf7f201fc20f6e36fd49a2e8fbc69bc755db5874d663ab81bd66f476bb15903edfeb3fc7366193a3daf31c0b3bab30843cbf0073b90c1a90708d1821d3fab0210e0854c065c94658f244efceb14ff895e31854a0e767915686aed217459656609510646f6bfe5bcef12e9739806c96fc1e54ccbae325baeb99fcbb1c72d9a0f3345a3a64d6537865960e2d8200005f24ee75715504c031549c1bbd44b2cee83b3f69ef62a2d3319d61c3c25db6de656214176b41880f3747b6955dfe1d1f46a4e36885ec17f90b9db2edd09b97954b805486ed19a9d0de43b49c9312ce516b4e86c5c6f1d6286921c10eb8d743a710c94c4fd863b1393bd17696e14127a5c1d4c85a87935d54b16644ffc9b0dd13f47a5406a3dba38e9be86b8e2e7add60973d2204bfd95fa016d9fdfc4e414e394072e1126cd370ba654f9ab60a0a02d8c1e46612ef10aa22aebe647352fc27db08e7d37a8560aed2a6ba79cfc3d0d18061a7f8e0826434a0637bf4e3b557a5d50587fa07ad8819d9322ba495e563e12b73588761688cd43bb1da0511636e28cbecc437d3d17c2c8f8617ed180a801e1d7444679c624928a5cce55c0201ad7016d7352265b5844b3b0c8c9bf964204c1cdda86a9d9e5009004ecf980684c459e20e35c16ef909622eef14cff84df7e430a8b4f2793d03a0e208c29f36875b0d5f3aebe8ad135b15e475c3655af7d740e0deaca514908524c895b0fb150cbbc1c6046ce9782d83648612b53df847448c1f610b21a3b6795ed83856875d0616ebbcf542bc0f5a2814b7e0230b6921c421a5e2885e39082c9804624053bf0b646cef504127857bb25555cb7e52ae204c6c08255f299bf14f7336a62a6cfa4a93fe0f3cb36059a0ec245c6faea65b3629545a173b79506c84a4ea8a52a369ea29cabb6c15ea9a30e77de94fe67ad096b67ce0912adb18d8c2c0eafdc4f9b472c80db4947b046bef51096dd36cfca8bc8e7e51cb9c737042cab945e177c4818014a1e5e53ca6a98a895f1a0a5ba02bc6c453cde72e832e8170940b94d292ff00b26ebbe71230db2562b27936e3b3c8e1a0c2b975e1c55d71686de1abfb442f1ede863e8fd410b83bb9d2478bf28523140337ecb8c24c61e51ac1a2738a15d40841630adca8e79a18ed9a87eba96e577504a7bc282ea6ae5016bdd426a047bbae091021d580f09977242874fa3225110fdb1076c00094dbfb3ae79d1dfbffdf486bb3ff9fa7bb8392289223b47e172dd8473dd8f991575e1ae56c52c80be600438573858270e37b47acc2a70a04f1860718b17fad6abbb06644105772c3c848138d9f7d1bd3318fb85359e99d231c38332d4c4aee42b82327d9eb474eddddb3b7e05823bd2fafcfbada3f4267cae3c6f4914ca3fa26b95e6861ec7e2fbd17ce8fb3391352b2fe02157af0e68e12bfad17d0197b084a352d975f766e9bff44b2543577f5f314b826e97f1f0c766a4d2efbc6740e648b01849b56ded8a7384ce8f1f586c6e05ebc858e7aea9f341737a716d633f1dd1cff44b61b578c3606a9e94d66ea34d0d4f7983e8f208e045bb0bacdb51c83484999e0328bed6ec2b9c6a8eb54ccd798ca99f3a3fad451f734be4f74576e558f42a672f5c389313c14dca4ddf6a8140f7e277f02326e31afca8a15a5b8d47e6d2c336028fa4fc6c9cbae244f0a3223516a600abd9c4c8eaff3b2ed54a76d98b18c9ecea5c0c9af2c60f5c97c8dafe4e2542200a4169669ca728d1f5e1cf9825e537cf14715ec93ae95d28eaa8a5a315cf249e6e81114d2bf17a20eec27aff87ba4ad6d62afd6f8e4cec915e6b2ad9d9a17a88a04826ab2d031f28f789ac0046d908dd50a6338e95f13c2ef2599d67029bfdd6343edcbd9620cb74d588e15a80bfd51f918b875403ad289e74e993db32b2d4216b9979e3e1ce61283c8da7a7ba6f652ae6036d6d689a23297ccb8ae0bf6b67a4268a8e2e387265b2856b82fa619dbfba0672bf01d483d803dd1ce08e8da54aa461dc9f65be742cdaa75f90d4cc8c34de62a725afd6351f5c6839c97ee56611082635193fdc97b1e5e8c7d5fb27bd461a2673d1030aa2002776d390218d7fcb892c227ba77ad3fa27231c4449c3987a6e907fc8be5aaad772040a24fe5147739928066f7c54b98ab8d38dfa9bc426118e548080bd865794e654eff8526d1dbe9773e586d25f55bc84156cd69dccc2b6c620a3a7fb59f06426203246dacdd03c0e7b3a3fe29fc400f5944ba4ba63056a5b80e0c7b869a808d47c24cf36416139798009fd5efd4c51ec5d95e0fbf61d58ff5acc8f0487da5090a0e931d2833bb977b15f34819a807270f5bff4c0679e0bfc38d7cbccd5dc28a29619d44c0b0cf4236001d6ae60bf92d5b031c36d7480349c8d9dc23632508620db4d7b1c224a67fc6039b1067de6e91fb4c55285cbc87faca518c044b69ec1a1209e4ac2937888635639d2dcef2d38bb97ec4665d645eedd32f054d0fcdf2c6ea6ee72f8e8f07396219976e1b3c7db8f8d53095ec825a3491d5a043bcb6f04b70f862b8b1dfe9cc660abd31317864393b37739c2c1101ff59e8ca732323b3973c0d4e02a9f38cc583983ecbc759659cde0447cf87c647d3415aabd6632a0bd63aad85e79a5b44f185c4cb736e6d29d56b37032edacb58768c65135f24bd639623a5e58654c828f69b20dc902e16da856bbb8a61a7f28563927fc749323d07199304fc280a29aa614b69941b2cf5ee97b85b3fad02d7af797a9a0e0fa1aab011028e0608fea001f2e5962636c7098c5e5ebee121c20354b5f646c708bacb9bcbdbff7fa104550567a84898aafb8bacbd8dcdd000c101519243d484d5a5b687a808498aefb00000000000000000000000000000000000d1e2d3f01fd21050002a35f5c6ef27b3d266c3baad1dd27ba729370c650731da334a0697c161b469bfe82772d150fae597048acd9e2e4314d84c2849d4109aab3c1c6b95c1ca28549147d9b6e878a2f56e4dfb38299b4953beff4d05b9e9a387b46bafc70870a770646f5ce5d321452ea77e6c71a2b4fdff7a69992bb34c01f3450732b308e326f54136a015b7f010a376f97a324107037f4c8433d11ab3044d17d783926596014698521b73f5a67b9f5f5ea8cca29bccba04975b785cfce6c5fe40502212dbcf30920cda339024198b6c77f56ccbed7fbb6d4d23a423772c8bfcb343259781355a65fc401bd1932b5d1ab67b1d05163ae838a51169023e1e48a0dd76f595de064deca56986b1f4bc93b2859922942835a0c7aa0919d644f0820f4ac091784d6643da4bba1d4e62c44c3e28ee3985604817aeccdf9c59b5cca4775bc9975e9c6e0f1b19a2f365c06e2a68aeb774a886c449acc6553d89bec15005913556714ce7d83d249893d1616eef2acbfc4cc8786e9ea0cf9fdcb61545fc0a1496351f03aabf82223a64fcab6ec2688d049e69ad0ac899b565170418ddf41fbdc52cbb4b831e7d24847f9186b24a522de9f48e0dc6618c8538cdf4565da81cc761f39b96656703a702561b18bc37e1352273362ab2a2b89e34351004d4ab7024e64d25d21559d5cff13d3fce0a180541ca94bf429789d703542d89ab7856f42ea33949181811ad0fff9fc5a4944adde63c4cef1a5df193c057868784db8cda3f6477b61315ccd1f6d9c83f2dfe83a889b855f1b169c2e7267c5fa500495517bef760cf280ad10d861784f744e5b185c06a22ecfbf3745c5eb5e2151f0b0b0e557dbd915736170fac349000a7d03e585a55e1f65a77e0dd9b0a6880e891f892cc9076c0b78fb507af00371f410a5b0dc52091f7435e32610ec4e658620cb404f50756477ac3d4aa2a14e07f7b5180dac0ff0d9397aa4044e343f90c83be78fa748d7538e822a0bc3272df8dfe3cf396dfddfb89a8d2c89997e21a16871ffab04f4f934ce921257da85f9a86384c53bf21ec5cfc648453be94e3c19866a68b7e5409d0b869976cbbab24221d6740278582df0d327a6a43c30f1dcc185d782653507345d987b240cce5f43b95759dfe3927f889a4cbd014b5ded8dc60dd3eeefc852a4bd59076fdf2c78ebc8cbfcd412c6dfdc13d185972302cde380d932cd459fddb27160c3f7740a797acf0b36ed2a852cb390876fae8ff2986954d3b8550ac4c789e5a04698a62510e89950ee6b8cacd217bfca3a6e5ae896245ea5688ff9d48d2a04f45201478255aa9a610dd6b98c96aea60adcdfe6d702a155678d59d63390f8ee650e79a22cd7fb3082e0682e7eb341ab543c66093c427d48541d5332518b7eecbfd8231c7fed82a664ec9d9336c832681056f4b7c78faab1855de37aa55bf428b624483a1cd1f73fb2ece270c8f05a1b4e508f8002469d9c8b761e2098a0bf3cd9fe264f52dc09657965ff343b997de1f4db83fe0b4f52e5c656e2d100b7d94f38e25747b76d5c1d1da44e0170d35dfd3aa614b179177f772d51dca51654222432ae5da70df2d135a6b47a33252b23642c32d2a515b245409668dbe94bf7275e68af202b7c6bcace7b9c768db5b898e49c00f649503404166d6833eee6ecb259f7fc3f0f502a335bfee0f693510df9e3218fafc570c04d5b6462ab7a8ec9963c9bb9cdd75daa09d027e07851c8549f7ede3aa74c8a92c90f837c73f993347c26009d0795d9dd88b991f1e09d2caff5a464bc052431ebcd5d5bd07fefc4482a03bbdae3c682345d03b479254adf584c28ce3ffce6406913e7eb760a301237ad03a44bc0aa77000000",
  "txid": "2a55363933cb59c79c478d6e0e74f1f9c8daee35ff3703b6d2aed2ab97a9aa98",
  "hash": "db844d822d225dd4498d38b57a73479622696195c58f7e45eb33ace5d535a73c",
  "size": 5085,
  "vsize": 2278,
  "version": 1,
  "locktime": 119,
  "vin": [
    {
      "txid": "ebbad7391c820208c33ff194db1cef8dcae4f74562873295a8e3f3184bf02fad",
      "vout": 1,
      "scriptSig": {
        "asm": "",
        "hex": ""
      },
      "txinwitness": [
        "57c2b007cd57f80dddfffe2afe34b6abd033dca04d89fab0b3a32401ac259fc4e4e499eafc4f8fbdaaae0d9c1fbcd52e633db5abc5b2561ee0012d742c8d51f59225b9bdac1c4d662f517fa92b7d09a302afff0854b21875e5067ceea7e85b2e0a5acbc27b5b71504b03ef81479fa5bffaa53d55aa004e8437d74f2f146dd4c48c6e49868bb5826994bcaf895bc4ce7f8727edfbdc33e2d81c651f89ba2a2f85949d30535846b060a38ccbe932eea64495b9807f2aa083455f6405883cd207c2e1b5fb55fa672f389552d71cd914e85de40bb32018535ac969e5a31b0e33c494ea8e991651e147a3d9a78d55200d8714679c360c0bdf3d79ccc110209e9880554038785d44e8864be66e93f4be051eed5c2a0ff6c70e23bad2f9023c5939a26073332971de1e1df1ba3f5b024e8aa12a7e7fbdc915f44c3e7c1f2f82cb28d59e50df3fb8cf575e9a6c3583f0e3421ad376b530b504f71f4d5229db969ae3074a78c742f1fd96d6f16ec1f4c99ca1bf7eaccaf7f201fc20f6e36fd49a2e8fbc69bc755db5874d663ab81bd66f476bb15903edfeb3fc7366193a3daf31c0b3bab30843cbf0073b90c1a90708d1821d3fab0210e0854c065c94658f244efceb14ff895e31854a0e767915686aed217459656609510646f6bfe5bcef12e9739806c96fc1e54ccbae325baeb99fcbb1c72d9a0f3345a3a64d6537865960e2d8200005f24ee75715504c031549c1bbd44b2cee83b3f69ef62a2d3319d61c3c25db6de656214176b41880f3747b6955dfe1d1f46a4e36885ec17f90b9db2edd09b97954b805486ed19a9d0de43b49c9312ce516b4e86c5c6f1d6286921c10eb8d743a710c94c4fd863b1393bd17696e14127a5c1d4c85a87935d54b16644ffc9b0dd13f47a5406a3dba38e9be86b8e2e7add60973d2204bfd95fa016d9fdfc4e414e394072e1126cd370ba654f9ab60a0a02d8c1e46612ef10aa22aebe647352fc27db08e7d37a8560aed2a6ba79cfc3d0d18061a7f8e0826434a0637bf4e3b557a5d50587fa07ad8819d9322ba495e563e12b73588761688cd43bb1da0511636e28cbecc437d3d17c2c8f8617ed180a801e1d7444679c624928a5cce55c0201ad7016d7352265b5844b3b0c8c9bf964204c1cdda86a9d9e5009004ecf980684c459e20e35c16ef909622eef14cff84df7e430a8b4f2793d03a0e208c29f36875b0d5f3aebe8ad135b15e475c3655af7d740e0deaca514908524c895b0fb150cbbc1c6046ce9782d83648612b53df847448c1f610b21a3b6795ed83856875d0616ebbcf542bc0f5a2814b7e0230b6921c421a5e2885e39082c9804624053bf0b646cef504127857bb25555cb7e52ae204c6c08255f299bf14f7336a62a6cfa4a93fe0f3cb36059a0ec245c6faea65b3629545a173b79506c84a4ea8a52a369ea29cabb6c15ea9a30e77de94fe67ad096b67ce0912adb18d8c2c0eafdc4f9b472c80db4947b046bef51096dd36cfca8bc8e7e51cb9c737042cab945e177c4818014a1e5e53ca6a98a895f1a0a5ba02bc6c453cde72e832e8170940b94d292ff00b26ebbe71230db2562b27936e3b3c8e1a0c2b975e1c55d71686de1abfb442f1ede863e8fd410b83bb9d2478bf28523140337ecb8c24c61e51ac1a2738a15d40841630adca8e79a18ed9a87eba96e577504a7bc282ea6ae5016bdd426a047bbae091021d580f09977242874fa3225110fdb1076c00094dbfb3ae79d1dfbffdf486bb3ff9fa7bb8392289223b47e172dd8473dd8f991575e1ae56c52c80be600438573858270e37b47acc2a70a04f1860718b17fad6abbb06644105772c3c848138d9f7d1bd3318fb85359e99d231c38332d4c4aee42b82327d9eb474eddddb3b7e05823bd2fafcfbada3f4267cae3c6f4914ca3fa26b95e6861ec7e2fbd17ce8fb3391352b2fe02157af0e68e12bfad17d0197b084a352d975f766e9bff44b2543577f5f314b826e97f1f0c766a4d2efbc6740e648b01849b56ded8a7384ce8f1f586c6e05ebc858e7aea9f341737a716d633f1dd1cff44b61b578c3606a9e94d66ea34d0d4f7983e8f208e045bb0bacdb51c83484999e0328bed6ec2b9c6a8eb54ccd798ca99f3a3fad451f734be4f74576e558f42a672f5c389313c14dca4ddf6a8140f7e277f02326e31afca8a15a5b8d47e6d2c336028fa4fc6c9cbae244f0a3223516a600abd9c4c8eaff3b2ed54a76d98b18c9ecea5c0c9af2c60f5c97c8dafe4e2542200a4169669ca728d1f5e1cf9825e537cf14715ec93ae95d28eaa8a5a315cf249e6e81114d2bf17a20eec27aff87ba4ad6d62afd6f8e4cec915e6b2ad9d9a17a88a04826ab2d031f28f789ac0046d908dd50a6338e95f13c2ef2599d67029bfdd6343edcbd9620cb74d588e15a80bfd51f918b875403ad289e74e993db32b2d4216b9979e3e1ce61283c8da7a7ba6f652ae6036d6d689a23297ccb8ae0bf6b67a4268a8e2e387265b2856b82fa619dbfba0672bf01d483d803dd1ce08e8da54aa461dc9f65be742cdaa75f90d4cc8c34de62a725afd6351f5c6839c97ee56611082635193fdc97b1e5e8c7d5fb27bd461a2673d1030aa2002776d390218d7fcb892c227ba77ad3fa27231c4449c3987a6e907fc8be5aaad772040a24fe5147739928066f7c54b98ab8d38dfa9bc426118e548080bd865794e654eff8526d1dbe9773e586d25f55bc84156cd69dccc2b6c620a3a7fb59f06426203246dacdd03c0e7b3a3fe29fc400f5944ba4ba63056a5b80e0c7b869a808d47c24cf36416139798009fd5efd4c51ec5d95e0fbf61d58ff5acc8f0487da5090a0e931d2833bb977b15f34819a807270f5bff4c0679e0bfc38d7cbccd5dc28a29619d44c0b0cf4236001d6ae60bf92d5b031c36d7480349c8d9dc23632508620db4d7b1c224a67fc6039b1067de6e91fb4c55285cbc87faca518c044b69ec1a1209e4ac2937888635639d2dcef2d38bb97ec4665d645eedd32f054d0fcdf2c6ea6ee72f8e8f07396219976e1b3c7db8f8d53095ec825a3491d5a043bcb6f04b70f862b8b1dfe9cc660abd31317864393b37739c2c1101ff59e8ca732323b3973c0d4e02a9f38cc583983ecbc759659cde0447cf87c647d3415aabd6632a0bd63aad85e79a5b44f185c4cb736e6d29d56b37032edacb58768c65135f24bd639623a5e58654c828f69b20dc902e16da856bbb8a61a7f28563927fc749323d07199304fc280a29aa614b69941b2cf5ee97b85b3fad02d7af797a9a0e0fa1aab011028e0608fea001f2e5962636c7098c5e5ebee121c20354b5f646c708bacb9bcbdbff7fa104550567a84898aafb8bacbd8dcdd000c101519243d484d5a5b687a808498aefb00000000000000000000000000000000000d1e2d3f01",
        "0002a35f5c6ef27b3d266c3baad1dd27ba729370c650731da334a0697c161b469bfe82772d150fae597048acd9e2e4314d84c2849d4109aab3c1c6b95c1ca28549147d9b6e878a2f56e4dfb38299b4953beff4d05b9e9a387b46bafc70870a770646f5ce5d321452ea77e6c71a2b4fdff7a69992bb34c01f3450732b308e326f54136a015b7f010a376f97a324107037f4c8433d11ab3044d17d783926596014698521b73f5a67b9f5f5ea8cca29bccba04975b785cfce6c5fe40502212dbcf30920cda339024198b6c77f56ccbed7fbb6d4d23a423772c8bfcb343259781355a65fc401bd1932b5d1ab67b1d05163ae838a51169023e1e48a0dd76f595de064deca56986b1f4bc93b2859922942835a0c7aa0919d644f0820f4ac091784d6643da4bba1d4e62c44c3e28ee3985604817aeccdf9c59b5cca4775bc9975e9c6e0f1b19a2f365c06e2a68aeb774a886c449acc6553d89bec15005913556714ce7d83d249893d1616eef2acbfc4cc8786e9ea0cf9fdcb61545fc0a1496351f03aabf82223a64fcab6ec2688d049e69ad0ac899b565170418ddf41fbdc52cbb4b831e7d24847f9186b24a522de9f48e0dc6618c8538cdf4565da81cc761f39b96656703a702561b18bc37e1352273362ab2a2b89e34351004d4ab7024e64d25d21559d5cff13d3fce0a180541ca94bf429789d703542d89ab7856f42ea33949181811ad0fff9fc5a4944adde63c4cef1a5df193c057868784db8cda3f6477b61315ccd1f6d9c83f2dfe83a889b855f1b169c2e7267c5fa500495517bef760cf280ad10d861784f744e5b185c06a22ecfbf3745c5eb5e2151f0b0b0e557dbd915736170fac349000a7d03e585a55e1f65a77e0dd9b0a6880e891f892cc9076c0b78fb507af00371f410a5b0dc52091f7435e32610ec4e658620cb404f50756477ac3d4aa2a14e07f7b5180dac0ff0d9397aa4044e343f90c83be78fa748d7538e822a0bc3272df8dfe3cf396dfddfb89a8d2c89997e21a16871ffab04f4f934ce921257da85f9a86384c53bf21ec5cfc648453be94e3c19866a68b7e5409d0b869976cbbab24221d6740278582df0d327a6a43c30f1dcc185d782653507345d987b240cce5f43b95759dfe3927f889a4cbd014b5ded8dc60dd3eeefc852a4bd59076fdf2c78ebc8cbfcd412c6dfdc13d185972302cde380d932cd459fddb27160c3f7740a797acf0b36ed2a852cb390876fae8ff2986954d3b8550ac4c789e5a04698a62510e89950ee6b8cacd217bfca3a6e5ae896245ea5688ff9d48d2a04f45201478255aa9a610dd6b98c96aea60adcdfe6d702a155678d59d63390f8ee650e79a22cd7fb3082e0682e7eb341ab543c66093c427d48541d5332518b7eecbfd8231c7fed82a664ec9d9336c832681056f4b7c78faab1855de37aa55bf428b624483a1cd1f73fb2ece270c8f05a1b4e508f8002469d9c8b761e2098a0bf3cd9fe264f52dc09657965ff343b997de1f4db83fe0b4f52e5c656e2d100b7d94f38e25747b76d5c1d1da44e0170d35dfd3aa614b179177f772d51dca51654222432ae5da70df2d135a6b47a33252b23642c32d2a515b245409668dbe94bf7275e68af202b7c6bcace7b9c768db5b898e49c00f649503404166d6833eee6ecb259f7fc3f0f502a335bfee0f693510df9e3218fafc570c04d5b6462ab7a8ec9963c9bb9cdd75daa09d027e07851c8549f7ede3aa74c8a92c90f837c73f993347c26009d0795d9dd88b991f1e09d2caff5a464bc052431ebcd5d5bd07fefc4482a03bbdae3c682345d03b479254adf584c28ce3ffce6406913e7eb760a301237ad03a44bc0aa"
      ],
      "sequence": 4294967294
    }
  ],
  "vout": [
    {
      "value": 499986.7803,
      "n": 0,
      "scriptPubKey": {
        "asm": "1 19372836c758a2ee470088a851bfa2422f6c15f57119958b6a6da3cde121fd5c",
        "hex": "512019372836c758a2ee470088a851bfa2422f6c15f57119958b6a6da3cde121fd5c",
        "reqSigs": 1,
        "type": "witness_v1_scripthash",
        "addresses": [
          "3QJmnh"
        ]
      }
    },
    {
      "value": 1.0,
      "n": 1,
      "scriptPubKey": {
        "asm": "OP_RETURN 624c72d59b81cb3ceb2526157e624eb6ad1422a69559795a8d05438214b9b451 c04a418cf5afde65c22079658618c27e155b879e42499e80cf93e3210ac709bde06a61acd58ffe45e2005945a638e25e357ba7be6269bea0efb3c3012ae7299d800a01ccb5ef9e2582603925c658823e551bc7de0209dec08fd3a3614a8749fda02a21ec95cfbe05a2401905e678a21e753be7fe2229fee0aff383416aa769dd40cac10c752f5ee542a0f9e5069842fe95db071ec2c91e004f1363a18a47893d60eae12c550f7ec56280d9c526b862deb5fb273ee2e93e206f334381aa67a91d008a814c356f1ea502e0b9a546d802bed59b475e82895e400f5323e1ca07c97d20aaa16c154f3e8522c0998566f8229ef5bb677ea2a97e602f7303c1ea27e95dc04a418cf5afde65c22079658618c27e155b879e42499e80cf93e3210ac709bde06a61acd58ffe45e2005945a638e25e357ba7be6269bea0efb3c3012ae7299d800a01ccb5ef9e2582603925c658823e551bc7de0209dec08fd3a3614a8749fda02a21ec95cfbe05a2401905e678a21e753be7fe2229fee0aff383416aa769dd40cac10c752f5ee542a0f9e5069842fe95db071ec2c91e004f1363a18a47893d60eae12c550f7ec56280d9c526b862deb5fb273ee2e93e206f334381aa67a91d008a814c356f1ea502e0b9a546d802bed59b475e82895e400f5323e1ca07c97d20aaa16c154f3e8522c0998566f8229ef5bb677ea2a97e602f7303c1ea27e95dc04a418cf5afde65c22079658618c27e155b879e42499e80cf93e3210ac709bde06a61acd58ffe45e2005945a638e25e357ba7be6269bea0efb3c3012ae7299d800a01ccb5ef9e2582603925c658823e551bc7de0209dec08fd3a3614a8749fda02a21ec95cfbe05a2401905e678a21e753be7fe2229fee0aff383416aa769dd40cac10c752f5ee542a0f9e5069842fe95db071ec2c91e004f1363a18a47893d60eae12c550f7ec56280d9c526b862deb5fb273ee2e93e206f334381aa67a91d008a814c356f1ea502e0b9a546d802bed59b475e82895e400f5323e1ca07c97d20aaa16c154f3e8522c0998566f8229ef5bb677ea2a97e602f7303c1ea27e95dc04a418cf5afde65c22079658618c27e155b879e42499e80cf93e3210ac709bde06a61acd58ffe45e2005945a638e25e357ba7be6269bea0efb3c3012ae7299d800a01ccb5ef9e2582603925c658823e551bc7de0209dec08fd3a3614a8749fda02a21ec95cfbe05a2401905e678a21e753be7fe2229fee0aff383416aa769dd40cac10c752f5ee542a0f9e5069842fe95db071ec2c91e004f1363a18a47893d60eae12c550f7ec56280d9c526b862deb5fb273ee2e93e206f334381aa67a91d008a814c356f1ea502e0b9a546d802bed59b475e82895e400f5323e1ca07c97d20aaa16c154f3e8522c0998566f8229ef5bb677ea2a97e602f7303c1ea27e95dc04a418cf5afde65c22079658618c27e155b879e42499e80cf93e3210ac709bde06a61acd58ffe45e2005945a638e25e357ba7be6269bea0efb3c3012ae7299d800a01ccb5ef9e2582603925c658823e551bc7de0209dec08fd3a3614a8749fda02a21ec95cfbe05a2401905e678a21e753be7fe2229fee0aff383416aa769dd40cac10c752f5ee542a0f9e5069842fea00ab29d9697c6f527bae71e6f6c54aae90938caebdef1657be0c5b1db58ffaa",
        "hex": "6a20624c72d59b81cb3ceb2526157e624eb6ad1422a69559795a8d05438214b9b4514db004c04a418cf5afde65c22079658618c27e155b879e42499e80cf93e3210ac709bde06a61acd58ffe45e2005945a638e25e357ba7be6269bea0efb3c3012ae7299d800a01ccb5ef9e2582603925c658823e551bc7de0209dec08fd3a3614a8749fda02a21ec95cfbe05a2401905e678a21e753be7fe2229fee0aff383416aa769dd40cac10c752f5ee542a0f9e5069842fe95db071ec2c91e004f1363a18a47893d60eae12c550f7ec56280d9c526b862deb5fb273ee2e93e206f334381aa67a91d008a814c356f1ea502e0b9a546d802bed59b475e82895e400f5323e1ca07c97d20aaa16c154f3e8522c0998566f8229ef5bb677ea2a97e602f7303c1ea27e95dc04a418cf5afde65c22079658618c27e155b879e42499e80cf93e3210ac709bde06a61acd58ffe45e2005945a638e25e357ba7be6269bea0efb3c3012ae7299d800a01ccb5ef9e2582603925c658823e551bc7de0209dec08fd3a3614a8749fda02a21ec95cfbe05a2401905e678a21e753be7fe2229fee0aff383416aa769dd40cac10c752f5ee542a0f9e5069842fe95db071ec2c91e004f1363a18a47893d60eae12c550f7ec56280d9c526b862deb5fb273ee2e93e206f334381aa67a91d008a814c356f1ea502e0b9a546d802bed59b475e82895e400f5323e1ca07c97d20aaa16c154f3e8522c0998566f8229ef5bb677ea2a97e602f7303c1ea27e95dc04a418cf5afde65c22079658618c27e155b879e42499e80cf93e3210ac709bde06a61acd58ffe45e2005945a638e25e357ba7be6269bea0efb3c3012ae7299d800a01ccb5ef9e2582603925c658823e551bc7de0209dec08fd3a3614a8749fda02a21ec95cfbe05a2401905e678a21e753be7fe2229fee0aff383416aa769dd40cac10c752f5ee542a0f9e5069842fe95db071ec2c91e004f1363a18a47893d60eae12c550f7ec56280d9c526b862deb5fb273ee2e93e206f334381aa67a91d008a814c356f1ea502e0b9a546d802bed59b475e82895e400f5323e1ca07c97d20aaa16c154f3e8522c0998566f8229ef5bb677ea2a97e602f7303c1ea27e95dc04a418cf5afde65c22079658618c27e155b879e42499e80cf93e3210ac709bde06a61acd58ffe45e2005945a638e25e357ba7be6269bea0efb3c3012ae7299d800a01ccb5ef9e2582603925c658823e551bc7de0209dec08fd3a3614a8749fda02a21ec95cfbe05a2401905e678a21e753be7fe2229fee0aff383416aa769dd40cac10c752f5ee542a0f9e5069842fe95db071ec2c91e004f1363a18a47893d60eae12c550f7ec56280d9c526b862deb5fb273ee2e93e206f334381aa67a91d008a814c356f1ea502e0b9a546d802bed59b475e82895e400f5323e1ca07c97d20aaa16c154f3e8522c0998566f8229ef5bb677ea2a97e602f7303c1ea27e95dc04a418cf5afde65c22079658618c27e155b879e42499e80cf93e3210ac709bde06a61acd58ffe45e2005945a638e25e357ba7be6269bea0efb3c3012ae7299d800a01ccb5ef9e2582603925c658823e551bc7de0209dec08fd3a3614a8749fda02a21ec95cfbe05a2401905e678a21e753be7fe2229fee0aff383416aa769dd40cac10c752f5ee542a0f9e5069842fea00ab29d9697c6f527bae71e6f6c54aae90938caebdef1657be0c5b1db58ffaa",
        "type": "nulldata"
      }
    }
  ],
  "blockhash": "2c44072194b49e49486c87ae6b37abdd6c2c23e2c7b477f70371a1b5276080d1",
  "confirmations": 1,
  "time": 1764179865,
  "blocktime": 1764179865
}