{
  "hex": "0100000000010193fa41fc422bb9094947caf38fe02fae0fdc65caedb47408a38228e2bc150e0d0000000000feffffff0200e1f50500000000fdd5046a20aabb4a0498555ada24c9b0a2642a76f8fa44c562862ab49018d7edc8c117aa7d4db00450814866bd5d99f15b9886704142e2079fcfc0904277659560369ea50ced701970a168469d7db9d17bb8a6506162c227bfefe0b0625745b54016be852ccd503910c10826fd1dd9b11bd8c6300102a247df8f80d0023725d52076dee54cad305930e12806dd3df9913bf8e61021228267ffafa0f0221705f50056fec56c8d1079d001c8e63ddd1971db1806f0c1c262871f4f4010c2f7e515e0b61e258c6df099f021e8c61dfd3951fb3826d0e1e242a73f6f6030e2d7c535c0963e05ac4dd0b9904188a67d9d59319b5846b0818222c75f0f005082b7a555a0f65e65cc2db0d9b061a8865dbd7911bb786690a1a202e77f2f2070a297857580d67e45ec0d90f950814866bd5d99f15b9886704142e2079fcfc0904277659560369ea50ced701970a168469d7db9d17bb8a6506162c227bfefe0b0625745b54016be852ccd503910c10826fd1dd9b11bd8c6300102a247df8f80d0023725d52076dee54cad305930e12806dd3df9913bf8e61021228267ffafa0f0221705f50056fec56c8d1079d001c8e63ddd1971db1806f0c1c262871f4f4010c2f7e515e0b61e258c6df099f021e8c61dfd3951fb3826d0e1e242a73f6f6030e2d7c535c0963e05ac4dd0b9904188a67d9d59319b5846b0818222c75f0f005082b7a555a0f65e65cc2db0d9b061a8865dbd7911bb786690a1a202e77f2f2070a297857580d67e45ec0d90f950814866bd5d99f15b9886704142e2079fcfc0904277659560369ea50ced701970a168469d7db9d17bb8a6506162c227bfefe0b0625745b54016be852ccd503910c10826fd1dd9b11bd8c6300102a247df8f80d0023725d52076dee54cad305930e12806dd3df9913bf8e61021228267ffafa0f0221705f50056fec56c8d1079d001c8e63ddd1971db1806f0c1c262871f4f4010c2f7e515e0b61e258c6df099f021e8c61dfd3951fb3826d0e1e242a73f6f6030e2d7c535c0963e05ac4dd0b9904188a67d9d59319b5846b0818222c75f0f005082b7a555a0f65e65cc2db0d9b061a8865dbd7911bb786690a1a202e77f2f2070a297857580d67e45ec0d90f950814866bd5d99f15b9886704142e2079fcfc0904277659560369ea50ced701970a168469d7db9d17bb8a6506162c227bfefe0b0625745b54016be852ccd503910c10826fd1dd9b11bd8c6300102a247df8f80d0023725d52076dee54cad305930e12806dd3df9913bf8e61021228267ffafa0f0221705f50056fec56c8d1079d001c8e63ddd1971db1806f0c1c262871f4f4010c2f7e515e0b61e258c6df099f021e8c61dfd3951fb3826d0e1e242a73f6f6030e2d7c535c0963e05ac4dd0b9904188a67d9d59319b5846b0818222c75f0f005082b7a555a0f65e65cc2db0d9b061a8865dbd7911bb786690a1a202e77f2f2070a297857580d67e45ec0d90f950814866bd5d99f15b9886704142e2079fcfc0904277659560369ea50ced701970a168469d7db9d17bb8a6506162c227bfefe0b0625745b54016be852ccd503910c10826fd1dd9b11bd8c6300102a247df8f80d0023725d52076dee54cad305930e12806dd3df9913bf8e61021228267ffafa0f0221705f50056fec56c8d1079d001c8e63ddd1971db1806f0c1c26287d51c07f23bfe7a42e7c08291f72998d30163ec1abdb0edbad189e5e17591f69bc075fe6f792d00002251200f704043e289f382028d325a3f49430a80598ef215aa40ff19bc0a60d1c58b0802fd7509fdb60bb2250fb0117f470be6ffafb550468ca4270600b85868ea5c6632fc48e68b23b0409ae5602082c8eeb15f57b4e6482e8bf735fbb37eef738558006dd4ef9496ebfa9fec4d144e33701a627a3de6b7c739769ab9f20cae1931fd66b5b34c64ccb5fe09efc58ed88792f2a6c62711d57a58e8a2017e0b82fb054f7d90eda5378bda6feeb1c0a91962013204a9e150e56804b4ac79560ed36395660802f58d1e041ae7243d5d4933f234ea209ace1e1c2c518cf94d52398ab145443a2c84a5458f00172898d415a30057b7eb5357494fd71f33777c9e38f19b3713d30f47b74b18b0cc815a86709d2a6013142bd74a6f5751ba3f2cb60bf47e2c043b02b03402437dae79ff72bb4bef29a35fcbed6f8069f4c8ec055326762cc7c848662e831ad1ee3dbd007796ebbb908a418738b4cabe01bd583549c1c8894e06917ba46e602c5c101ad8add7c5e1419207ce3f0d93b08fd21e8ee65b6a482bffb70043058f83dfdbeead850129e3cd6890e0fcebd2e843602e57c896177314d551b60cf6a359d83f07a7726503e9b32968985b0e0b3fd8af54952016f6fb6373d5a69e5ee382cb3255971e957966dca2b079f01813b3a54ce76b5049700ed52f9fae5d6aa92154afa873a45b4d795c0a8d3b861a474d3a7859fd7b8d4119e8cf3e01e122a69f502ce35a8b12b87dc5c4735c101b7dac41da5102482297dd923738f06653e424d1d7a37e643d94d1f130f3dfaf5a21c261c356c8ab671e978731656adc31f54b2dca89c9d272e77242f43e0cd9a1172ee782d1628d588e0dc7d7662d6c280aa1616f65186c28e0214ce1f4412cfb817d585e7bc3f98dde4f65b4d64ee4a9895899cd4bcd924c0c2e799bd07e07d7b32e4cd8e3ff45ab94f299b75a3c9e30d279f27d9166e9a4459f89bb604608282493f80a6e45ecb8c709b239404ba10e43bb2c847407d7c4eb839527c3f5231811c29a50a7bec9b45ccca7ca0d9da004b785e59efa4b6a7fde232b816ecf72f4d200bdbd155c90f3cdf0b4c2e99fd9dddc9f218251dd98f73f75eb2606dd88a0fe6c555b54bef416484e5988f0b4abb5a5b42d643dfc8e5061ac177d461dad7a0438ba907cd3bd37d5011cf0f017425b8e7eb0fd435ec165504eff4cdbf5418c8e38f286b0c0c52c4d36f9a714def4c84bce4d29f62fbe76e9c658d7bc689ff359c0830325aea8d4ef15b2c41dcb06eb8f3b85fa3852665c841f990ff72e4237841287475a18410eacb6437da62bac26bb7603acedbe8c4c3af0db589d949c7d1afc6c72a927311bbea8b2116d31704c688e265655e3959145271248bad6b4cf8fd1acec61998f7f3c5ce97994dd2884cdbc3568a8104d50fc547e68f6d9a5f47467deb154d6cf95e24d09285c24c890d199a2dd861792cde2cb5798c9a3763d255847b085dab0a9e9e68127185da57ae83dca4856c30a7376b75b0eb10a7a351a6cfb42bda36a58c22850d8ee06d3a6f6706b8e40427c84fad2ea62ede43f98aff2a2cfd25891380d40df9d844aa4169251a178a15707ba3d06434a4360c75910c6d47cbf8fd643479ae881460d693f1dfdda5dab41597b22196789315bc4ebed9de8aee7dc830a33862f97362bc20ce3f9c7c73881a09eaff67fa8c3c0adf172b339e6ffb6e0be1c78a41dc5b35ecf16fa01c73b759f8b0a2fa6039f1626ccbfdac5761e37b9ba19eafaff410d32962cc144f5d3febb41b26420ce26ae44f02c5e665ab50be6b4549bad0e326acdb0986c600edfcaa5fda10f30a8477fd50af5f1ee7c852cdb74dfc0607f6fd4041ad9cd6acfbb961f78e350b68efe81c2ed031dac8f1be56e73e9f1f61a8adf7893f57059a3145f8e733b106e81743256edcd5413758483226e441d156d02a24040db4594990651ef3e14f5f71f1ce82042fd5a94cd6acce162de21707dfadbadbb144707df69c9ffc3d42175a96a19ede038ff489cc316c7fd2beb10c2d8ff08c89108cfadffcb1329aa83c593e19db5e9b0203e85a01b8761623a84a7b0646b587535bc12679c0180a54008dba4788c47eca765789bf411ac53d14d2ce2912441996e088fd2fe2062f078a2d2de9c53ed1a2594919ede12eaa9bed741533807d2cbe19599aeb8cde2e0e66edaaed3a23d31dc34a35031a7a81b2b44f44bdbd0cd83ab5a6c01d763aa9f6b76d7bde3cb60fc6be073d7d5cc03a53658633b885ccf02e1eebceb2d5d22996cc5662ac90aa447b22be73457fe52c3512d6799b5d5cebc26b8a9c3fe1ce65832ef4f727a6d612830def620a79ff1e286e1c34d21cc777c395df83a9d14fc3ecb95cd9c90c63f8e458075e758fec1f2b38540198c4b8b9bff0dad09ef18bc9c6250a2b7743678b60e9ff5ed5e2f502610d8a57ca2a91572e9e095296709be49d6659dd80c7be5c407ed756b4b8a152e2e8895178b764e641d5ef55bb720f4d63416ac30756d2ad7e06b992a8307b8bdbac6248cf24122701b5e8bdd6a98a784d409cb3926503bdad7aaa5013b5e3bdd4c4926ec53cdedce456f033360ce291cff91297c884e7d5df1f70776eb9b25d003c3821ecd3e80c21dda23a915a5fa316038bc6448a2c5145e3dd1fa2a93b7067b4987951d0be5463a9c550b4d5ed534f9b6a0f0bda8942bb62ef95164edd4ba8293d5f138db072bcee76830e46926cdfe277696b6025be6099d42dc0e67c6fcb8ebb3069f51c8397512aca3bdc8aa930725c8f76c389273ad5003597a29fa2e633f035072b8cbd7ae7a168ab51415f340df890a8aafc215d169f1db1bd20f58ccee4919e35bcdc4a8301ed3a6237f365d4434c452b639c7ad0f74099fb69e896dd39194d8cf76b09c4771007034ad6b18b16f20d6355aa365b52b84e28ae8744b41c4bb6abc0a9f7985259954058bda12ff5909fe886fc510fc786d6dc07461c986f53670b772ee5f763dbf6748c49a3924be5555873d3fcb455815ae0ac3dca75f792843be89b5268f0752766e2556b8c53eee03488caf15b371b8795c0ae132bd9ebfb83784d16a79fc99f12bd139ad58845b2a07fbdde2517cf647d8ec51bf8f3e3aa436226c179b5670aebb1a62f7f371db968d7127cc94aa5ab3ef371586ee36e6383e1a4d48cf15269a62b4aca299321595bcdd2d7a7acd0d50822c925408499ba53766d39201f41bc40156a1012fd586c7a949f23d408d67ed0a010fc708bfda135cd07dabb4acc0a9b898cf065219c0cbfd42dee3d1b829d79defab5f17767bf3052a4c38a36cd0fc163fefa324fde560dff5a8964a076f22e4409502026b495f375b2123262833383a3b5b5c7b7e828f9498999aa1b1cacee006242b2f36383c585e606465a0b4becccdf304080b111e1f53686980818396aaaeb9d3e2e6fd06152c31479ab5edf10000000000000000000017293d4601fd210500df4ac1385e96eec474b6ee80138b169f5d15e083b7073a10054ce769c75c18038784a8aeeca4cf1ec380679e248e6fddc8f905c996f7e35a2c24bef3ab1ef42d73dbbe85dfe29a0fdd2c9873998cd3d94205eea57d6d471f2c57f7e80717cb2ca4c61caa6ab1ec0c80b5644187bd326bd6636fac42341d594c227d0f950f56d8d21dfac7d90b7bb009a16a18424259d6cbab7b2e2907369ef6c0ad0d4ebf4ac7f1c0cf041a3fe8c2b1fe5a1de8739bfca0a0da050b6f9bf09b6cae0d1f57cb601cdb69f61d4d6ed7264d4bbbb4fd9595d9ec3f2a9ea207d41933893fe45ffa5ee9049ffb250963de1c1f1851c5985323f8cb2101e62dedb9fa8682f110d6798edd9ebc2b47ff4dd87d15e11dea7866e3c33eb79e4631c1eddf4462e302c07099383f363d72e7353e558aee62688b997e6e2cb6c9fca9ac2fe62459f1410db26552e1e6c29795772f66f4ddff72fd7a41d8ced272c2565525a48cbc3646c2875a54ac8b651d509a91a7c6bc3f1be7bedb87db9f094dbdc72602aca781070959d7bab7537e2d6fb398cec9a211d37006846548ab68809489b83f180fffc67fbc362804353bd3fb8f272aa5290a7e30099acc99acdd3e0de9cad7c50b6700e588b5b54b632a7fc84c3c3bb9d262ad4fcb10e074aa798273f88f1f47c6c58efc757163cf05bd0ca064ce68b10909f93627065520ce50f1808b9ffeb3c2cd94884f3ba0ccbd64b7555e5f88c542c11c0ed7a953a8850f7887d1af37e5d39c08da86a6abb6ed024fccbf6ac97ad85ec3b32cda1dc86b63b1e41a4e00d930f74b4694f7294bc4e4a75109aa0322ae9caadc2724fc0fe2865816245b93213f5b4f0cf84c11e1b2268bdfd8ba047a17e32dfd5e5053a96f7c027df81ff5b2cae543721e33d3f48876c89b077093d243c327d5ed1d8fb2c4454d2d00e1ac40125d92fe9a86bed55ccaa6608b51dd95087a70a73921b452bf6dc958d3d45d1d85cc0baf982fe2fe6cbd874e83cc4a626cc34a11d4618013f22f0125b50c90bcceeec72c3650e6878ce97dee6136e6e3ec8772f39d121a9e98f49bc98c27a6e3cfdd7f3cf100cdc1ad9d2c0d4fcdeb334481a3e53ad30965e2274a4b37ca7294cf16bed513675ac78678f8de4ff409a1506b68523a6c91c0da1436b66a3fc9a83399fdca371fd72fb60bf31e24f183c6043a37abfdf6c45d20a391349cf2e389173d89fd5ed3f3bed2aba9cb5a8f21df148beb99e8501b9149fe943721b85f98703145eafa6209a48463f760ca0a6a262a6df60ae4f57bb47855ad4d594f872ca74bb8f1cab2a6ed24b1e43fb464f0f7a806c7f5b4bbafa3b626db9761e3fc350ce67552aa9653e636746ca98212662b6a18dac4e55e344ebcced719444e0e07e93f6b61c681f8a336a84c1518d1817dfdedec0914a70deb73a505be9fc50d99698881ee6f7f505da3a50e155d2afd31abe0ccae402034cd821e341c9f2f63c23ece136069d1b2203707be9dde032b9a8098ce46683d9fb4cfe747cfc9a189c5e3aedd86dffdf7ebe7946a4812605db472932355944a4bffc1d33f3fc64c5a5415cf653f3c0452faabd2f3bbd8d2be2dc938472ae56a855e3bfea011213580f3d8695f9dc0df3910e292a4e44eeef842b16bc3874bdb1b9a9970e425b1b3a301bc117796e4625526e7a1bbb2015cfd33a616a13961feea88c6a8e355ae5171e082bff8fa8fa7ff5dc17f7d47465df42944764d8dca0b375c5e5a8642f74239542fea97590f476bbc80aad354ec92fa897f6150aed778bb9379ff3cec5b7e366d7117dbffc989c64efb918d1af6167193ee9cd32ef27e72ea3baab654084f742dda3d1fd0ad7867000000",
  "txid": "267a5c66120287172c532f9cd397424a4252848c80a97317afb58b73b454bf7a",
  "hash": "6f53f8f133d8b39c9e65ea784cf0cdc9c9b922ea24e74c6322845500001e9ea6",
  "size": 5085,
  "vsize": 2278,
  "version": 1,
  "locktime": 103,
  "vin": [
    {
      "txid": "0d0e15bce22882a30874b4edca65dc0fae2fe08ff3ca474909b92b42fc41fa93",
      "vout": 0,
      "scriptSig": {
        "asm": "",
        "hex": ""
      },
      "txinwitness": [
        "fdb60bb2250fb0117f470be6ffafb550468ca4270600b85868ea5c6632fc48e68b23b0409ae5602082c8eeb15f57b4e6482e8bf735fbb37eef738558006dd4ef9496ebfa9fec4d144e33701a627a3de6b7c739769ab9f20cae1931fd66b5b34c64ccb5fe09efc58ed88792f2a6c62711d57a58e8a2017e0b82fb054f7d90eda5378bda6feeb1c0a91962013204a9e150e56804b4ac79560ed36395660802f58d1e041ae7243d5d4933f234ea209ace1e1c2c518cf94d52398ab145443a2c84a5458f00172898d415a30057b7eb5357494fd71f33777c9e38f19b3713d30f47b74b18b0cc815a86709d2a6013142bd74a6f5751ba3f2cb60bf47e2c043b02b03402437dae79ff72bb4bef29a35fcbed6f8069f4c8ec055326762cc7c848662e831ad1ee3dbd007796ebbb908a418738b4cabe01bd583549c1c8894e06917ba46e602c5c101ad8add7c5e1419207ce3f0d93b08fd21e8ee65b6a482bffb70043058f83dfdbeead850129e3cd6890e0fcebd2e843602e57c896177314d551b60cf6a359d83f07a7726503e9b32968985b0e0b3fd8af54952016f6fb6373d5a69e5ee382cb3255971e957966dca2b079f01813b3a54ce76b5049700ed52f9fae5d6aa92154afa873a45b4d795c0a8d3b861a474d3a7859fd7b8d4119e8cf3e01e122a69f502ce35a8b12b87dc5c4735c101b7dac41da5102482297dd923738f06653e424d1d7a37e643d94d1f130f3dfaf5a21c261c356c8ab671e978731656adc31f54b2dca89c9d272e77242f43e0cd9a1172ee782d1628d588e0dc7d7662d6c280aa1616f65186c28e0214ce1f4412cfb817d585e7bc3f98dde4f65b4d64ee4a9895899cd4bcd924c0c2e799bd07e07d7b32e4cd8e3ff45ab94f299b75a3c9e30d279f27d9166e9a4459f89bb604608282493f80a6e45ecb8c709b239404ba10e43bb2c847407d7c4eb839527c3f5231811c29a50a7bec9b45ccca7ca0d9da004b785e59efa4b6a7fde232b816ecf72f4d200bdbd155c90f3cdf0b4c2e99fd9dddc9f218251dd98f73f75eb2606dd88a0fe6c555b54bef416484e5988f0b4abb5a5b42d643dfc8e5061ac177d461dad7a0438ba907cd3bd37d5011cf0f017425b8e7eb0fd435ec165504eff4cdbf5418c8e38f286b0c0c52c4d36f9a714def4c84bce4d29f62fbe76e9c658d7bc689ff359c0830325aea8d4ef15b2c41dcb06eb8f3b85fa3852665c841f990ff72e4237841287475a18410eacb6437da62bac26bb7603acedbe8c4c3af0db589d949c7d1afc6c72a927311bbea8b2116d31704c688e265655e3959145271248bad6b4cf8fd1acec61998f7f3c5ce97994dd2884cdbc3568a8104d50fc547e68f6d9a5f47467deb154d6cf95e24d09285c24c890d199a2dd861792cde2cb5798c9a3763d255847b085dab0a9e9e68127185da57ae83dca4856c30a7376b75b0eb10a7a351a6cfb42bda36a58c22850d8ee06d3a6f6706b8e40427c84fad2ea62ede43f98aff2a2cfd25891380d40df9d844aa4169251a178a15707ba3d06434a4360c75910c6d47cbf8fd643479ae881460d693f1dfdda5dab41597b22196789315bc4ebed9de8aee7dc830a33862f97362bc20ce3f9c7c73881a09eaff67fa8c3c0adf172b339e6ffb6e0be1c78a41dc5b35ecf16fa01c73b759f8b0a2fa6039f1626ccbfdac5761e37b9ba19eafaff410d32962cc144f5d3febb41b26420ce26ae44f02c5e665ab50be6b4549bad0e326acdb0986c600edfcaa5fda10f30a8477fd50af5f1ee7c852cdb74dfc0607f6fd4041ad9cd6acfbb961f78e350b68efe81c2ed031dac8f1be56e73e9f1f61a8adf7893f57059a3145f8e733b106e81743256edcd5413758483226e441d156d02a24040db4594990651ef3e14f5f71f1ce82042fd5a94cd6acce162de21707dfadbadbb144707df69c9ffc3d42175a96a19ede038ff489cc316c7fd2beb10c2d8ff08c89108cfadffcb1329aa83c593e19db5e9b0203e85a01b8761623a84a7b0646b587535bc12679c0180a54008dba4788c47eca765789bf411ac53d14d2ce2912441996e088fd2fe2062f078a2d2de9c53ed1a2594919ede12eaa9bed741533807d2cbe19599aeb8cde2e0e66edaaed3a23d31dc34a35031a7a81b2b44f44bdbd0cd83ab5a6c01d763aa9f6b76d7bde3cb60fc6be073d7d5cc03a53658633b885ccf02e1eebceb2d5d22996cc5662ac90aa447b22be73457fe52c3512d6799b5d5cebc26b8a9c3fe1ce65832ef4f727a6d612830def620a79ff1e286e1c34d21cc777c395df83a9d14fc3ecb95cd9c90c63f8e458075e758fec1f2b38540198c4b8b9bff0dad09ef18bc9c6250a2b7743678b60e9ff5ed5e2f502610d8a57ca2a91572e9e095296709be49d6659dd80c7be5c407ed756b4b8a152e2e8895178b764e641d5ef55bb720f4d63416ac30756d2ad7e06b992a8307b8bdbac6248cf24122701b5e8bdd6a98a784d409cb3926503bdad7aaa5013b5e3bdd4c4926ec53cdedce456f033360ce291cff91297c884e7d5df1f70776eb9b25d003c3821ecd3e80c21dda23a915a5fa316038bc6448a2c5145e3dd1fa2a93b7067b4987951d0be5463a9c550b4d5ed534f9b6a0f0bda8942bb62ef95164edd4ba8293d5f138db072bcee76830e46926cdfe277696b6025be6099d42dc0e67c6fcb8ebb3069f51c8397512aca3bdc8aa930725c8f76c389273ad5003597a29fa2e633f035072b8cbd7ae7a168ab51415f340df890a8aafc215d169f1db1bd20f58ccee4919e35bcdc4a8301ed3a6237f365d4434c452b639c7ad0f74099fb69e896dd39194d8cf76b09c4771007034ad6b18b16f20d6355aa365b52b84e28ae8744b41c4bb6abc0a9f7985259954058bda12ff5909fe886fc510fc786d6dc07461c986f53670b772ee5f763dbf6748c49a3924be5555873d3fcb455815ae0ac3dca75f792843be89b5268f0752766e2556b8c53eee03488caf15b371b8795c0ae132bd9ebfb83784d16a79fc99f12bd139ad58845b2a07fbdde2517cf647d8ec51bf8f3e3aa436226c179b5670aebb1a62f7f371db968d7127cc94aa5ab3ef371586ee36e6383e1a4d48cf15269a62b4aca299321595bcdd2d7a7acd0d50822c925408499ba53766d39201f41bc40156a1012fd586c7a949f23d408d67ed0a010fc708bfda135cd07dabb4acc0a9b898cf065219c0cbfd42dee3d1b829d79defab5f17767bf3052a4c38a36cd0fc163fefa324fde560dff5a8964a076f22e4409502026b495f375b2123262833383a3b5b5c7b7e828f9498999aa1b1cacee006242b2f36383c585e606465a0b4becccdf304080b111e1f53686980818396aaaeb9d3e2e6fd06152c31479ab5edf10000000000000000000017293d4601",
        "00df4ac1385e96eec474b6ee80138b169f5d15e083b7073a10054ce769c75c18038784a8aeeca4cf1ec380679e248e6fddc8f905c996f7e35a2c24bef3ab1ef42d73dbbe85dfe29a0fdd2c9873998cd3d94205eea57d6d471f2c57f7e80717cb2ca4c61caa6ab1ec0c80b5644187bd326bd6636fac42341d594c227d0f950f56d8d21dfac7d90b7bb009a16a18424259d6cbab7b2e2907369ef6c0ad0d4ebf4ac7f1c0cf041a3fe8c2b1fe5a1de8739bfca0a0da050b6f9bf09b6cae0d1f57cb601cdb69f61d4d6ed7264d4bbbb4fd9595d9ec3f2a9ea207d41933893fe45ffa5ee9049ffb250963de1c1f1851c5985323f8cb2101e62dedb9fa8682f110d6798edd9ebc2b47ff4dd87d15e11dea7866e3c33eb79e4631c1eddf4462e302c07099383f363d72e7353e558aee62688b997e6e2cb6c9fca9ac2fe62459f1410db26552e1e6c29795772f66f4ddff72fd7a41d8ced272c2565525a48cbc3646c2875a54ac8b651d509a91a7c6bc3f1be7bedb87db9f094dbdc72602aca781070959d7bab7537e2d6fb398cec9a211d37006846548ab68809489b83f180fffc67fbc362804353bd3fb8f272aa5290a7e30099acc99acdd3e0de9cad7c50b6700e588b5b54b632a7fc84c3c3bb9d262ad4fcb10e074aa798273f88f1f47c6c58efc757163cf05bd0ca064ce68b10909f93627065520ce50f1808b9ffeb3c2cd94884f3ba0ccbd64b7555e5f88c542c11c0ed7a953a8850f7887d1af37e5d39c08da86a6abb6ed024fccbf6ac97ad85ec3b32cda1dc86b63b1e41a4e00d930f74b4694f7294bc4e4a75109aa0322ae9caadc2724fc0fe2865816245b93213f5b4f0cf84c11e1b2268bdfd8ba047a17e32dfd5e5053a96f7c027df81ff5b2cae543721e33d3f48876c89b077093d243c327d5ed1d8fb2c4454d2d00e1ac40125d92fe9a86bed55ccaa6608b51dd95087a70a73921b452bf6dc958d3d45d1d85cc0baf982fe2fe6cbd874e83cc4a626cc34a11d4618013f22f0125b50c90bcceeec72c3650e6878ce97dee6136e6e3ec8772f39d121a9e98f49bc98c27a6e3cfdd7f3cf100cdc1ad9d2c0d4fcdeb334481a3e53ad30965e2274a4b37ca7294cf16bed513675ac78678f8de4ff409a1506b68523a6c91c0da1436b66a3fc9a83399fdca371fd72fb60bf31e24f183c6043a37abfdf6c45d20a391349cf2e389173d89fd5ed3f3bed2aba9cb5a8f21df148beb99e8501b9149fe943721b85f98703145eafa6209a48463f760ca0a6a262a6df60ae4f57bb47855ad4d594f872ca74bb8f1cab2a6ed24b1e43fb464f0f7a806c7f5b4bbafa3b626db9761e3fc350ce67552aa9653e636746ca98212662b6a18dac4e55e344ebcced719444e0e07e93f6b61c681f8a336a84c1518d1817dfdedec0914a70deb73a505be9fc50d99698881ee6f7f505da3a50e155d2afd31abe0ccae402034cd821e341c9f2f63c23ece136069d1b2203707be9dde032b9a8098ce46683d9fb4cfe747cfc9a189c5e3aedd86dffdf7ebe7946a4812605db472932355944a4bffc1d33f3fc64c5a5415cf653f3c0452faabd2f3bbd8d2be2dc938472ae56a855e3bfea011213580f3d8695f9dc0df3910e292a4e44eeef842b16bc3874bdb1b9a9970e425b1b3a301bc117796e4625526e7a1bbb2015cfd33a616a13961feea88c6a8e355ae5171e082bff8fa8fa7ff5dc17f7d47465df42944764d8dca0b375c5e5a8642f74239542fea97590f476bbc80aad354ec92fa897f6150aed778bb9379ff3cec5b7e366d7117dbffc989c64efb918d1af6167193ee9cd32ef27e72ea3baab654084f742dda3d1fd0ad78"
      ],
      "sequence": 4294967294
    }
  ],
  "vout": [
    {
      "value": 1.0,
      "n": 0,
      "scriptPubKey": {
        "asm": "OP_RETURN aabb4a0498555ada24c9b0a2642a76f8fa44c562862ab49018d7edc8c117aa7d 50814866bd5d99f15b9886704142e2079fcfc0904277659560369ea50ced701970a168469d7db9d17bb8a6506162c227bfefe0b0625745b54016be852ccd503910c10826fd1dd9b11bd8c6300102a247df8f80d0023725d52076dee54cad305930e12806dd3df9913bf8e61021228267ffafa0f0221705f50056fec56c8d1079d001c8e63ddd1971db1806f0c1c262871f4f4010c2f7e515e0b61e258c6df099f021e8c61dfd3951fb3826d0e1e242a73f6f6030e2d7c535c0963e05ac4dd0b9904188a67d9d59319b5846b0818222c75f0f005082b7a555a0f65e65cc2db0d9b061a8865dbd7911bb786690a1a202e77f2f2070a297857580d67e45ec0d90f950814866bd5d99f15b9886704142e2079fcfc0904277659560369ea50ced701970a168469d7db9d17bb8a6506162c227bfefe0b0625745b54016be852ccd503910c10826fd1dd9b11bd8c6300102a247df8f80d0023725d52076dee54cad305930e12806dd3df9913bf8e61021228267ffafa0f0221705f50056fec56c8d1079d001c8e63ddd1971db1806f0c1c262871f4f4010c2f7e515e0b61e258c6df099f021e8c61dfd3951fb3826d0e1e242a73f6f6030e2d7c535c0963e05ac4dd0b9904188a67d9d59319b5846b0818222c75f0f005082b7a555a0f65e65cc2db0d9b061a8865dbd7911bb786690a1a202e77f2f2070a297857580d67e45ec0d90f950814866bd5d99f15b9886704142e2079fcfc0904277659560369ea50ced701970a168469d7db9d17bb8a6506162c227bfefe0b0625745b54016be852ccd503910c10826fd1dd9b11bd8c6300102a247df8f80d0023725d52076dee54cad305930e12806dd3df9913bf8e61021228267ffafa0f0221705f50056fec56c8d1079d001c8e63ddd1971db1806f0c1c262871f4f4010c2f7e515e0b61e258c6df099f021e8c61dfd3951fb3826d0e1e242a73f6f6030e2d7c535c0963e05ac4dd0b9904188a67d9d59319b5846b0818222c75f0f005082b7a555a0f65e65cc2db0d9b061a8865dbd7911bb786690a1a202e77f2f2070a297857580d67e45ec0d90f950814866bd5d99f15b9886704142e2079fcfc0904277659560369ea50ced701970a168469d7db9d17bb8a6506162c227bfefe0b0625745b54016be852ccd503910c10826fd1dd9b11bd8c6300102a247df8f80d0023725d52076dee54cad305930e12806dd3df9913bf8e61021228267ffafa0f0221705f50056fec56c8d1079d001c8e63ddd1971db1806f0c1c262871f4f4010c2f7e515e0b61e258c6df099f021e8c61dfd3951fb3826d0e1e242a73f6f6030e2d7c535c0963e05ac4dd0b9904188a67d9d59319b5846b0818222c75f0f005082b7a555a0f65e65cc2db0d9b061a8865dbd7911bb786690a1a202e77f2f2070a297857580d67e45ec0d90f950814866bd5d99f15b9886704142e2079fcfc0904277659560369ea50ced701970a168469d7db9d17bb8a6506162c227bfefe0b0625745b54016be852ccd503910c10826fd1dd9b11bd8c6300102a247df8f80d0023725d52076dee54cad305930e12806dd3df9913bf8e61021228267ffafa0f0221705f50056fec56c8d1079d001c8e63ddd1971db1806f0c1c26287d51c07f23bfe7a42e7c08291f72998d30163ec1abdb0edbad189e5e17591f69b",
        "hex": "6a20aabb4a0498555ada24c9b0a2642a76f8fa44c562862ab49018d7edc8c117aa7d4db00450814866bd5d99f15b9886704142e2079fcfc0904277659560369ea50ced701970a168469d7db9d17bb8a6506162c227bfefe0b0625745b54016be852ccd503910c10826fd1dd9b11bd8c6300102a247df8f80d0023725d52076dee54cad305930e12806dd3df9913bf8e61021228267ffafa0f0221705f50056fec56c8d1079d001c8e63ddd1971db1806f0c1c262871f4f4010c2f7e515e0b61e258c6df099f021e8c61dfd3951fb3826d0e1e242a73f6f6030e2d7c535c0963e05ac4dd0b9904188a67d9d59319b5846b0818222c75f0f005082b7a555a0f65e65cc2db0d9b061a8865dbd7911bb786690a1a202e77f2f2070a297857580d67e45ec0d90f950814866bd5d99f15b9886704142e2079fcfc0904277659560369ea50ced701970a168469d7db9d17bb8a6506162c227bfefe0b0625745b54016be852ccd503910c10826fd1dd9b11bd8c6300102a247df8f80d0023725d52076dee54cad305930e12806dd3df9913bf8e61021228267ffafa0f0221705f50056fec56c8d1079d001c8e63ddd1971db1806f0c1c262871f4f4010c2f7e515e0b61e258c6df099f021e8c61dfd3951fb3826d0e1e242a73f6f6030e2d7c535c0963e05ac4dd0b9904188a67d9d59319b5846b0818222c75f0f005082b7a555a0f65e65cc2db0d9b061a8865dbd7911bb786690a1a202e77f2f2070a297857580d67e45ec0d90f950814866bd5d99f15b9886704142e2079fcfc0904277659560369ea50ced701970a168469d7db9d17bb8a6506162c227bfefe0b0625745b54016be852ccd503910c10826fd1dd9b11bd8c6300102a247df8f80d0023725d52076dee54cad305930e12806dd3df9913bf8e61021228267ffafa0f0221705f50056fec56c8d1079d001c8e63ddd1971db1806f0c1c262871f4f4010c2f7e515e0b61e258c6df099f021e8c61dfd3951fb3826d0e1e242a73f6f6030e2d7c535c0963e05ac4dd0b9904188a67d9d59319b5846b0818222c75f0f005082b7a555a0f65e65cc2db0d9b061a8865dbd7911bb786690a1a202e77f2f2070a297857580d67e45ec0d90f950814866bd5d99f15b9886704142e2079fcfc0904277659560369ea50ced701970a168469d7db9d17bb8a6506162c227bfefe0b0625745b54016be852ccd503910c10826fd1dd9b11bd8c6300102a247df8f80d0023725d52076dee54cad305930e12806dd3df9913bf8e61021228267ffafa0f0221705f50056fec56c8d1079d001c8e63ddd1971db1806f0c1c262871f4f4010c2f7e515e0b61e258c6df099f021e8c61dfd3951fb3826d0e1e242a73f6f6030e2d7c535c0963e05ac4dd0b9904188a67d9d59319b5846b0818222c75f0f005082b7a555a0f65e65cc2db0d9b061a8865dbd7911bb786690a1a202e77f2f2070a297857580d67e45ec0d90f950814866bd5d99f15b9886704142e2079fcfc0904277659560369ea50ced701970a168469d7db9d17bb8a6506162c227bfefe0b0625745b54016be852ccd503910c10826fd1dd9b11bd8c6300102a247df8f80d0023725d52076dee54cad305930e12806dd3df9913bf8e61021228267ffafa0f0221705f50056fec56c8d1079d001c8e63ddd1971db1806f0c1c26287d51c07f23bfe7a42e7c08291f72998d30163ec1abdb0edbad189e5e17591f69b",
        "type": "nulldata"
      }
    },
    {
      "value": 499995.9324,
      "n": 1,
      "scriptPubKey": {
        "asm": "1 0f704043e289f382028d325a3f49430a80598ef215aa40ff19bc0a60d1c58b08",
        "hex": "51200f704043e289f382028d325a3f49430a80598ef215aa40ff19bc0a60d1c58b08",
        "reqSigs": 1,
        "type": "witness_v1_scripthash",
        "addresses": [
          "3QJmnh"
        ]
      }
    }
  ],
  "blockhash": "15af9b025c636b87e0a10c18a1a8de0e5f3c2069ad563b293161176d75df89a4",
  "confirmations": 1,
  "time": 1764174659,
  "blocktime": 1764174659
}