{
  "hex": "01000000000101fb4e0f05604cc5d95395aff73f4f2d953c3ebe606983fb8787c738f84c4fa0850100000000feffffff02c075fe6f792d00002251205c8d03eb99ca275a9e1e5e12452c5bbd545154d688f55b092965e7f9054edc6c00e1f50500000000fdd5046a20b38c19d4013065ebf4f5b5391332166d23f812556197053a0582490f305e7f9b4db00441b8a2b100e8c1d3b18a6ec7af8a6047f92b87746b7a27740344626426d1d18c6198829120c8e1f391aa4ee78faa4067d90ba7544b5a07542364424406f1f1ac01f8e2f140a88193f1ca2e87efca2007b96bc7342b3a673443042224669191cc21d8c2d16088a1b3d1ea0ea7cfea0027994be7140b1a47146324020446b1b1ecc138223180684153310aee472f0ae0c779ab07f4ebfaa7f483c4e2e4a651510ce1180211a0486173112ace670f2ac0e7598b27d4cbda87d4a3e4c2c48671712c81786271c0280113714aae076f4aa08739eb47b4abbae7b4c384a2a4e611114ca1584251e0082133516a8e274f6a80a719cb67948b9ac794e3a48284c631316c41b8a2b100e8c1d3b18a6ec7af8a6047f92b87746b7a27740344626426d1d18c6198829120c8e1f391aa4ee78faa4067d90ba7544b5a07542364424406f1f1ac01f8e2f140a88193f1ca2e87efca2007b96bc7342b3a673443042224669191cc21d8c2d16088a1b3d1ea0ea7cfea0027994be7140b1a47146324020446b1b1ecc138223180684153310aee472f0ae0c779ab07f4ebfaa7f483c4e2e4a651510ce1180211a0486173112ace670f2ac0e7598b27d4cbda87d4a3e4c2c48671712c81786271c0280113714aae076f4aa08739eb47b4abbae7b4c384a2a4e611114ca1584251e0082133516a8e274f6a80a719cb67948b9ac794e3a48284c631316c41b8a2b100e8c1d3b18a6ec7af8a6047f92b87746b7a27740344626426d1d18c6198829120c8e1f391aa4ee78faa4067d90ba7544b5a07542364424406f1f1ac01f8e2f140a88193f1ca2e87efca2007b96bc7342b3a673443042224669191cc21d8c2d16088a1b3d1ea0ea7cfea0027994be7140b1a47146324020446b1b1ecc138223180684153310aee472f0ae0c779ab07f4ebfaa7f483c4e2e4a651510ce1180211a0486173112ace670f2ac0e7598b27d4cbda87d4a3e4c2c48671712c81786271c0280113714aae076f4aa08739eb47b4abbae7b4c384a2a4e611114ca1584251e0082133516a8e274f6a80a719cb67948b9ac794e3a48284c631316c41b8a2b100e8c1d3b18a6ec7af8a6047f92b87746b7a27740344626426d1d18c6198829120c8e1f391aa4ee78faa4067d90ba7544b5a07542364424406f1f1ac01f8e2f140a88193f1ca2e87efca2007b96bc7342b3a673443042224669191cc21d8c2d16088a1b3d1ea0ea7cfea0027994be7140b1a47146324020446b1b1ecc138223180684153310aee472f0ae0c779ab07f4ebfaa7f483c4e2e4a651510ce1180211a0486173112ace670f2ac0e7598b27d4cbda87d4a3e4c2c48671712c81786271c0280113714aae076f4aa08739eb47b4abbae7b4c384a2a4e611114ca1584251e0082133516a8e274f6a80a719cb67948b9ac794e3a48284c631316c41b8a2b100e8c1d3b18a6ec7af8a6047f92b87746b7a27740344626426d1d18c6198829120c8e1f391aa4ee78faa4067d90ba7544b5a07542364424406f1f1ac01f8e2f140a88193f1ca2e87efca2007b96bc7342b3a673443042224669191cc21d8c2d16088a1b3d1ea0ea7cfea0027994be7140b1a47146324020446b1b1ecc138223180684153310aee472f0ae0c7bd4075427095044742749c475a21cdf9555e9c80aee28e8284b6fac1096c458102fd7509240436711e69cf679822077a358d0072b4b6776da2ef0322c6222dd2c48acb53c4fae83f2e6f25afc8ea7c7b06b6790d511275b9609523568f558dfe0869aa0a7561db28285b41abd5db53db1bf2a8f15b5d3e749a30660965d313d05380e614c6f0561030d19613cf7252ec1108cad859359e11a62254b1f3a635f5bfc57974f955af6348d8caead87631b51500a7088083e688149e274a335ca0fc19148b46b37fc96b9c15e6d9890f97f7eb108961f597d2cb91b075e7d9222adb2d940f3d50178ff13bcae152e9c0f0c7f60acacbb53a031a539afd9bccb3ab051bc6489e645c501ab1ce915af6c6b6cbf0b845b1c51a44e688f9129e9226c689bc8051270b6d0fdcb47268eabaa9c521cac6a4cf6530437d017c5c056b9e09d0c0dd01ac824d602862ad893ee00d69c80de94102e985621cff45b3f6127a72241f5c176a49d55671ec0e47b514c2d3321cdd3d1824e312f1393745590968acd3906326e3d515a04b8a0c9bd34116d446bc9f294db62f445a11236cd3b66353d2139c7a1bb589713a71f09dfac3b91144e6639cb56c7bd104cfe7952778cd8ea60b38a309394a8248bec53406d58a742f5ed4e9a892901dd35205f7ded02c36ea032001c57eb3cc4ecf6e12d70028abe8819cad312744c5316a191a5c28a108ce1192bf16521a1e80e92d687713db40e0c93b99fb7ea1ecaefe4cc74b47b2d34233b946812977b622fe3b97fda3d0513fa96995b6ccb2c2dc3f0ff4cf9260b1c9cd083b5ef9ef02d23552703e5212b689b6a45ed64d3c56c142b7f0f33a78370a34f8ecfc7bd5c866488982992947abdc50f3307697d1e3db0ff69a5a8c2d60a80d275a4beeef9f9284c227cf339a1c73aaa11f1c85c1ea5f8d3db9b3585c9b3f3402208b5e648380b0701fd22443e81372d8db827a80ebbbdc75026e41b6605051ddac4ad6fd288d66bc983c49000d58e1210e24de1eb55ca9c5848922f50aa91e1366ca36c4947fdfc26f52a15cd6b68e223fd9823994d0308a5716d26f2863c21d3146fac3565f2a30084a34be670d9b41ed02d1f747f3040c5ae28242fef6cea5c123128dbb75c1e90d2e1032ef83d4424df08410d30ae7b47326d039f0a5a83cdba9462c80e75ae3ac766c26f5f5cd12dcf94b8c9de3be314208e00c12d247bd32d745db51a37e17fc2268d6e13ff839c9de39d341cbad4234d3861d27188c1ff219433d36ff62e07ea79414cd43ce25140a6ab20bdfa02ccdba34570e5eaeef4f184dff50a9a85675ddaf31e9f2888caf5164d88ae9806681b61b06c30a9149af2b75c5cda560557a0aab3e001ac58b9b7b041ce08488f0e453ab7fd57d1bf59328d8176d6f846d96e8973f6b3409e0e5f30aef421918bf6115f29ddd7f06642667f7770fd3264f7804cb0d512971b429e674d0c7e72b2eee14019f5e03e298d504acc9ab4d2b16ce8c486a7bdef8f6557fbe537cfbbff786870c63ca6b4288dd710767cce0d8ae6e70f0cc242826b1164dd22729e0529be8570d02f1e86d597a226471141d7097dd7d20fcb17b3852dee017293cf16e28951fc00acd640fb3736acd91f0080d6476d21d218b6a035a779b4587909133342d17ccd013613f8fe3b1243f08c371169177e4f937d0bf8ba8e4154a04f56912631ea5b5afff189ec28d9e66449141c8e71d5deeea4990a18e993ee33318c02f78aafc9321a3f6ac4223eef8d685753c9366e9b7fd57f5f683f0f33045e7f318be9e6c966b7fdd8b9c99b96ce3b10fc13b513caace91fc4001ce3acd085ffd00a29898ba58a0f9e3b308d85d068d2e083bf1b095814ea07f6a82485ddfc1d10c1caa5cd7e6a1ade1a1198165c373c0afdf43859b6acebcd874b4e3851adbda5bfbbd65425134702eae2841946a2352e10d4977a80b0c9e78eeda7535430f2dab1ae70c5bb8fc21280f3a6869b0c69a99a01ca10940c4cb96d314933486510ae7d7dc7cd3cc52aa55b87d1ae7950189e4fccfa87eb6ba9ff514868859c5e1426368b8c14f6559fcc694db0b56cbb6976d094a59b342a7cf5ce8570d262fac09f7b2caaa4b4684add2026f46a412b0517342e1afe9bd00007a984430ca3e00974129fc0aa0b8e290b0d74bc0f7f89173e3be10bfe9de30aebe885d0b6e33d00f1dfe7cd7b9f795e35a922f489428eaf1c2831778b39581f111bd2ff602802b2ec2174e9b066d7dc70458096f056c93bf8ade5c399be2ed4b436c0a7b8e8f845a6a52f2106f0251b769b52b1badffc62be2dc35caed901594fc0519caeef9e5f37bee75bc85840bc1cf6af3d25c8ecbe84c02b0a10dc5ed0584e8a911963d4d7da8282f4265f3899bf8d1c296cfaa29a44ee11b3f3ff12f646de507764ef888cb21b85ca77e95b7a63eae6d2f91a932a599cb204161ed25dc3c28d03b074fdc110b6414f031aa6bc3c14d68a457528ba4111ef569404be0daf63bb4c4e26d0dd539f22239ca72ed53a6c8e28d431adfe638c24b52f1b30e56d474dd16b8ed36c3e1f950d837159e813e172730cdc279aaecfd403c4772f4f30c41485eebdc5dea63aca81efd9ec81301d7a863b7439ffde11045eeb5abc9836418916fd457aa17790dd30315ceee19fd7dc53670619ec334064dd84cf7a69d5c48604c573f2aeaf015c7b1f49e87abb4e8f1e42ea56348ddd2fe75e1c474ce0ad40a954bbd166517acb67da65560211cd3167e2bb762a73f5b2428f9f67996415fc547a79df26f10c88ae9a57fad3e826ef17b2ca1ac32595ed5a2e12125e45a7e73cdb7d816f0c95d11b31d9f3eb62f402b634e3d5cb8611d804d18412e9a8769f970a08ee07f89c64b137e1aba24ff2c7f8b16d9602b1915e535bc1b81e7ab447cefd86349406373c921a07aa62e60a25b7de1495836e1692ba78ce406a47da89b06dfa0881546ecde1da1452bbf0474c95abbc0cedae923dbc89481b1647ad429e0413a7e6d890183cbdf40d87707a5f4a081bfa7f4b7745f13d616e42cb9cd198c71aac2da9246ddea090bd63090d005c48fe452692e3f2a857188e2d94de028c81ba1e9bbbbb8ca21b9781cec369fced3a39f1d578ebc385e158939ac36eec558ceee0e7a3ef31e5e11a773d5e16ce1488f96435a723b036816d5b2028e1e529a7c607189875b24455874ff87c2eff60fce147e23b1df10e158f9363848020a9aa245181ed797db62db2b983bbc72acc7f4f14baf9ddd642b099ea81827df455ab72766ed2707f71417ab9ee459adf8d00a449529a3969f013861e0e20fe20489efeb88077d2423fbcdbd9f03b414e300081b1c354b595f66878eadb7e6f1f8111c405559757b909ea3c6fb0015233f494e5d5e5f7f8a8c8d97a0a6aab5c4f2f3fb06081323315b687b9ba3a4b0c4d000000000000000000000000000000000101c324001fd210500ecff48af192024effa5f7e54ed0142a76801bee01d8199b1e2e95de698571769e82086ab54584833b277c1980868a04170eca4ba50ace734c4c4cdb2030cdec61209bf7a414a751de9d05142d7ae916977f7dddf12afa786348cc1a63aef119a0ebea442841d66d68a96f32af7d62fbeac41dbf6220ab7b5a5582faf64b8cabc87894ff659e27996c7d6434072c3120014a6ffbfecbbd59cce61e0710bbd7c35085cac4cc5c9d1fc58e4cc4c45358b23b2069b3b2a9ffbbaa9cec31ed2d8af6d35a30a1e5d99541436d7a9670c3195015e30dce2470f4c777d7028fe7c0356c9a82b056c75f4cdadee6e86f68efe1caf62b80430afcbed92b12dc6406bcabf484b74db0c13327c055308d2e29b3b914273b42a041c46d6fbc91654d83246ebcf3a8570de32fead2b117164c42301ed59d0fd90e53e5d92f9f782f604dbf0f0b8354e5e01640c079c9ba1375d8a18f48043601a132defc4646a515968eaed13e644756ff4a4b4444076ed01fbbb10edb87b301aaaa90630ca9d07bae74acdec57fbddb2b228a76b5da646215f85ef0033a0321b1db7b8989d3d89b3066f03b5e891475e7247df0c8255fcb10435a5f92d9b4443bbacac98aeb63986f4e94a61941874be299960ad2daec37df7c9ccdc2b8955758c82f9a8135371eff42df37c1efae940dc491f374e6f0e459f4ece1dad81f54ae68bb2c4d3d5ec45c378a5b355a477aefeb6d445229568e6ad15bb1728a3b226eff3d23762f1a9ce17bb0d550d4caceff470a86aee0b840de4f8749c6625c161b127b3f9e57984ac286bdff22448e93f72fdf9ad23a896720992b63f58e2124f94b412b4d4d20654d001e750d7529fe04f3c74042f2e3e8a40ab47ed332b88e11a934d90d16b725e34abc4486ef57510843943e11439715c57c8910f4b201e612e8e76aac92621be1c913351395a9f849c9728e32841610c189cc610ec26dbc24894c8056bb1fc24e1e24a2c2d7db663782c6929b52392b7a1571ee930803d4acb3e446c11ba3f49f3bccc2d94579f9658de5a4d8721ea04a8eec9e64c9d94b22aeb94db90a697d18c8d03c539b5c7b4af9c8d5029ce3f1d85d51ac7bb77ac266501bdf6ec8b14a7a2d2835af36f029335da52591fc4ce9c6726c9df75dbfffc2e3021b7c9be25001ac49fc3a8e80ac6eb22ee1302a1e96505e2b293c2fdf00068a85e4ae26a2787db9942debf9cbc570ff39153e39daf0379e5c6d94c284a138f147614f3e0f86f554545ad74a0dc712f4ca85e35eb9edc55249c172a915c88785a402271fc40d20bdf08035c2a1b2cb98e19965c4d19b8d71af8241e2e389abff9faec37a595d3dd8c067096de76f51128f3b762a2e10e3cc8420e8269f9d49aeaf8723bd0aaed07a33aff5bbca4b3ba951850f44116b864e0936c25e4a74e9153bc32fee6d422b536ad6d154d494bb7242f37913da66f5008bea6044c465f24477d39b553222ca85aaaaf4022861ebdb3169be649d25f10a810117e8b558fe2d28678baee672f4f3e23bc2fcf4c58d5d1d26359a219c527ac2e181362e98346eb11a933099bd256d0ef8c69bb94b4c18e1a8ac150e68ccfeadbd6b7291c18c7497ab71d9f6cd4ad159d3f47c8eea10ef3435eb22f76847f4f26361ef3f37259b2f02c532313ca4a77a6d5088da7a55d241215ce69518b26ed66efad0e0d2d55f4c712f9b542e73f8c1f827b0d12ea2efbda144efb1c5dcf4930db7d7c268799bd86a87e7c5d7e3167c27f2c7a812db5d9da1c965c793da04faa78792edabde31ffd8b585cfdbdc324dedbe6f39f898434f4042a95f0e4dd517f720b61d3099438450d5dd39ab0ec7308d2ba67000000",
  "txid": "293d4c686e90e949dd27b06db0a91a504af6601e1d3a800576ed7e90d61fe835",
  "hash": "f7b909ecd7a55c2e40b3a960114690cf14c6edc28f0c76f30891c747c5f60da7",
  "size": 5085,
  "vsize": 2278,
  "version": 1,
  "locktime": 103,
  "vin": [
    {
      "txid": "85a04f4cf838c78787fb836960be3e3c952d4f3ff7af9553d9c54c60050f4efb",
      "vout": 1,
      "scriptSig": {
        "asm": "",
        "hex": ""
      },
      "txinwitness": [
        "240436711e69cf679822077a358d0072b4b6776da2ef0322c6222dd2c48acb53c4fae83f2e6f25afc8ea7c7b06b6790d511275b9609523568f558dfe0869aa0a7561db28285b41abd5db53db1bf2a8f15b5d3e749a30660965d313d05380e614c6f0561030d19613cf7252ec1108cad859359e11a62254b1f3a635f5bfc57974f955af6348d8caead87631b51500a7088083e688149e274a335ca0fc19148b46b37fc96b9c15e6d9890f97f7eb108961f597d2cb91b075e7d9222adb2d940f3d50178ff13bcae152e9c0f0c7f60acacbb53a031a539afd9bccb3ab051bc6489e645c501ab1ce915af6c6b6cbf0b845b1c51a44e688f9129e9226c689bc8051270b6d0fdcb47268eabaa9c521cac6a4cf6530437d017c5c056b9e09d0c0dd01ac824d602862ad893ee00d69c80de94102e985621cff45b3f6127a72241f5c176a49d55671ec0e47b514c2d3321cdd3d1824e312f1393745590968acd3906326e3d515a04b8a0c9bd34116d446bc9f294db62f445a11236cd3b66353d2139c7a1bb589713a71f09dfac3b91144e6639cb56c7bd104cfe7952778cd8ea60b38a309394a8248bec53406d58a742f5ed4e9a892901dd35205f7ded02c36ea032001c57eb3cc4ecf6e12d70028abe8819cad312744c5316a191a5c28a108ce1192bf16521a1e80e92d687713db40e0c93b99fb7ea1ecaefe4cc74b47b2d34233b946812977b622fe3b97fda3d0513fa96995b6ccb2c2dc3f0ff4cf9260b1c9cd083b5ef9ef02d23552703e5212b689b6a45ed64d3c56c142b7f0f33a78370a34f8ecfc7bd5c866488982992947abdc50f3307697d1e3db0ff69a5a8c2d60a80d275a4beeef9f9284c227cf339a1c73aaa11f1c85c1ea5f8d3db9b3585c9b3f3402208b5e648380b0701fd22443e81372d8db827a80ebbbdc75026e41b6605051ddac4ad6fd288d66bc983c49000d58e1210e24de1eb55ca9c5848922f50aa91e1366ca36c4947fdfc26f52a15cd6b68e223fd9823994d0308a5716d26f2863c21d3146fac3565f2a30084a34be670d9b41ed02d1f747f3040c5ae28242fef6cea5c123128dbb75c1e90d2e1032ef83d4424df08410d30ae7b47326d039f0a5a83cdba9462c80e75ae3ac766c26f5f5cd12dcf94b8c9de3be314208e00c12d247bd32d745db51a37e17fc2268d6e13ff839c9de39d341cbad4234d3861d27188c1ff219433d36ff62e07ea79414cd43ce25140a6ab20bdfa02ccdba34570e5eaeef4f184dff50a9a85675ddaf31e9f2888caf5164d88ae9806681b61b06c30a9149af2b75c5cda560557a0aab3e001ac58b9b7b041ce08488f0e453ab7fd57d1bf59328d8176d6f846d96e8973f6b3409e0e5f30aef421918bf6115f29ddd7f06642667f7770fd3264f7804cb0d512971b429e674d0c7e72b2eee14019f5e03e298d504acc9ab4d2b16ce8c486a7bdef8f6557fbe537cfbbff786870c63ca6b4288dd710767cce0d8ae6e70f0cc242826b1164dd22729e0529be8570d02f1e86d597a226471141d7097dd7d20fcb17b3852dee017293cf16e28951fc00acd640fb3736acd91f0080d6476d21d218b6a035a779b4587909133342d17ccd013613f8fe3b1243f08c371169177e4f937d0bf8ba8e4154a04f56912631ea5b5afff189ec28d9e66449141c8e71d5deeea4990a18e993ee33318c02f78aafc9321a3f6ac4223eef8d685753c9366e9b7fd57f5f683f0f33045e7f318be9e6c966b7fdd8b9c99b96ce3b10fc13b513caace91fc4001ce3acd085ffd00a29898ba58a0f9e3b308d85d068d2e083bf1b095814ea07f6a82485ddfc1d10c1caa5cd7e6a1ade1a1198165c373c0afdf43859b6acebcd874b4e3851adbda5bfbbd65425134702eae2841946a2352e10d4977a80b0c9e78eeda7535430f2dab1ae70c5bb8fc21280f3a6869b0c69a99a01ca10940c4cb96d314933486510ae7d7dc7cd3cc52aa55b87d1ae7950189e4fccfa87eb6ba9ff514868859c5e1426368b8c14f6559fcc694db0b56cbb6976d094a59b342a7cf5ce8570d262fac09f7b2caaa4b4684add2026f46a412b0517342e1afe9bd00007a984430ca3e00974129fc0aa0b8e290b0d74bc0f7f89173e3be10bfe9de30aebe885d0b6e33d00f1dfe7cd7b9f795e35a922f489428eaf1c2831778b39581f111bd2ff602802b2ec2174e9b066d7dc70458096f056c93bf8ade5c399be2ed4b436c0a7b8e8f845a6a52f2106f0251b769b52b1badffc62be2dc35caed901594fc0519caeef9e5f37bee75bc85840bc1cf6af3d25c8ecbe84c02b0a10dc5ed0584e8a911963d4d7da8282f4265f3899bf8d1c296cfaa29a44ee11b3f3ff12f646de507764ef888cb21b85ca77e95b7a63eae6d2f91a932a599cb204161ed25dc3c28d03b074fdc110b6414f031aa6bc3c14d68a457528ba4111ef569404be0daf63bb4c4e26d0dd539f22239ca72ed53a6c8e28d431adfe638c24b52f1b30e56d474dd16b8ed36c3e1f950d837159e813e172730cdc279aaecfd403c4772f4f30c41485eebdc5dea63aca81efd9ec81301d7a863b7439ffde11045eeb5abc9836418916fd457aa17790dd30315ceee19fd7dc53670619ec334064dd84cf7a69d5c48604c573f2aeaf015c7b1f49e87abb4e8f1e42ea56348ddd2fe75e1c474ce0ad40a954bbd166517acb67da65560211cd3167e2bb762a73f5b2428f9f67996415fc547a79df26f10c88ae9a57fad3e826ef17b2ca1ac32595ed5a2e12125e45a7e73cdb7d816f0c95d11b31d9f3eb62f402b634e3d5cb8611d804d18412e9a8769f970a08ee07f89c64b137e1aba24ff2c7f8b16d9602b1915e535bc1b81e7ab447cefd86349406373c921a07aa62e60a25b7de1495836e1692ba78ce406a47da89b06dfa0881546ecde1da1452bbf0474c95abbc0cedae923dbc89481b1647ad429e0413a7e6d890183cbdf40d87707a5f4a081bfa7f4b7745f13d616e42cb9cd198c71aac2da9246ddea090bd63090d005c48fe452692e3f2a857188e2d94de028c81ba1e9bbbbb8ca21b9781cec369fced3a39f1d578ebc385e158939ac36eec558ceee0e7a3ef31e5e11a773d5e16ce1488f96435a723b036816d5b2028e1e529a7c607189875b24455874ff87c2eff60fce147e23b1df10e158f9363848020a9aa245181ed797db62db2b983bbc72acc7f4f14baf9ddd642b099ea81827df455ab72766ed2707f71417ab9ee459adf8d00a449529a3969f013861e0e20fe20489efeb88077d2423fbcdbd9f03b414e300081b1c354b595f66878eadb7e6f1f8111c405559757b909ea3c6fb0015233f494e5d5e5f7f8a8c8d97a0a6aab5c4f2f3fb06081323315b687b9ba3a4b0c4d000000000000000000000000000000000101c324001",
        "00ecff48af192024effa5f7e54ed0142a76801bee01d8199b1e2e95de698571769e82086ab54584833b277c1980868a04170eca4ba50ace734c4c4cdb2030cdec61209bf7a414a751de9d05142d7ae916977f7dddf12afa786348cc1a63aef119a0ebea442841d66d68a96f32af7d62fbeac41dbf6220ab7b5a5582faf64b8cabc87894ff659e27996c7d6434072c3120014a6ffbfecbbd59cce61e0710bbd7c35085cac4cc5c9d1fc58e4cc4c45358b23b2069b3b2a9ffbbaa9cec31ed2d8af6d35a30a1e5d99541436d7a9670c3195015e30dce2470f4c777d7028fe7c0356c9a82b056c75f4cdadee6e86f68efe1caf62b80430afcbed92b12dc6406bcabf484b74db0c13327c055308d2e29b3b914273b42a041c46d6fbc91654d83246ebcf3a8570de32fead2b117164c42301ed59d0fd90e53e5d92f9f782f604dbf0f0b8354e5e01640c079c9ba1375d8a18f48043601a132defc4646a515968eaed13e644756ff4a4b4444076ed01fbbb10edb87b301aaaa90630ca9d07bae74acdec57fbddb2b228a76b5da646215f85ef0033a0321b1db7b8989d3d89b3066f03b5e891475e7247df0c8255fcb10435a5f92d9b4443bbacac98aeb63986f4e94a61941874be299960ad2daec37df7c9ccdc2b8955758c82f9a8135371eff42df37c1efae940dc491f374e6f0e459f4ece1dad81f54ae68bb2c4d3d5ec45c378a5b355a477aefeb6d445229568e6ad15bb1728a3b226eff3d23762f1a9ce17bb0d550d4caceff470a86aee0b840de4f8749c6625c161b127b3f9e57984ac286bdff22448e93f72fdf9ad23a896720992b63f58e2124f94b412b4d4d20654d001e750d7529fe04f3c74042f2e3e8a40ab47ed332b88e11a934d90d16b725e34abc4486ef57510843943e11439715c57c8910f4b201e612e8e76aac92621be1c913351395a9f849c9728e32841610c189cc610ec26dbc24894c8056bb1fc24e1e24a2c2d7db663782c6929b52392b7a1571ee930803d4acb3e446c11ba3f49f3bccc2d94579f9658de5a4d8721ea04a8eec9e64c9d94b22aeb94db90a697d18c8d03c539b5c7b4af9c8d5029ce3f1d85d51ac7bb77ac266501bdf6ec8b14a7a2d2835af36f029335da52591fc4ce9c6726c9df75dbfffc2e3021b7c9be25001ac49fc3a8e80ac6eb22ee1302a1e96505e2b293c2fdf00068a85e4ae26a2787db9942debf9cbc570ff39153e39daf0379e5c6d94c284a138f147614f3e0f86f554545ad74a0dc712f4ca85e35eb9edc55249c172a915c88785a402271fc40d20bdf08035c2a1b2cb98e19965c4d19b8d71af8241e2e389abff9faec37a595d3dd8c067096de76f51128f3b762a2e10e3cc8420e8269f9d49aeaf8723bd0aaed07a33aff5bbca4b3ba951850f44116b864e0936c25e4a74e9153bc32fee6d422b536ad6d154d494bb7242f37913da66f5008bea6044c465f24477d39b553222ca85aaaaf4022861ebdb3169be649d25f10a810117e8b558fe2d28678baee672f4f3e23bc2fcf4c58d5d1d26359a219c527ac2e181362e98346eb11a933099bd256d0ef8c69bb94b4c18e1a8ac150e68ccfeadbd6b7291c18c7497ab71d9f6cd4ad159d3f47c8eea10ef3435eb22f76847f4f26361ef3f37259b2f02c532313ca4a77a6d5088da7a55d241215ce69518b26ed66efad0e0d2d55f4c712f9b542e73f8c1f827b0d12ea2efbda144efb1c5dcf4930db7d7c268799bd86a87e7c5d7e3167c27f2c7a812db5d9da1c965c793da04faa78792edabde31ffd8b585cfdbdc324dedbe6f39f898434f4042a95f0e4dd517f720b61d3099438450d5dd39ab0ec7308d2ba"
      ],
      "sequence": 4294967294
    }
  ],
  "vout": [
    {
      "value": 499995.9324,
      "n": 0,
      "scriptPubKey": {
        "asm": "1 5c8d03eb99ca275a9e1e5e12452c5bbd545154d688f55b092965e7f9054edc6c",
        "hex": "51205c8d03eb99ca275a9e1e5e12452c5bbd545154d688f55b092965e7f9054edc6c",
        "reqSigs": 1,
        "type": "witness_v1_scripthash",
        "addresses": [
          "3QJmnh"
        ]
      }
    },
    {
      "value": 1.0,
      "n": 1,
      "scriptPubKey": {
        "asm": "OP_RETURN b38c19d4013065ebf4f5b5391332166d23f812556197053a0582490f305e7f9b 41b8a2b100e8c1d3b18a6ec7af8a6047f92b87746b7a27740344626426d1d18c6198829120c8e1f391aa4ee78faa4067d90ba7544b5a07542364424406f1f1ac01f8e2f140a88193f1ca2e87efca2007b96bc7342b3a673443042224669191cc21d8c2d16088a1b3d1ea0ea7cfea0027994be7140b1a47146324020446b1b1ecc138223180684153310aee472f0ae0c779ab07f4ebfaa7f483c4e2e4a651510ce1180211a0486173112ace670f2ac0e7598b27d4cbda87d4a3e4c2c48671712c81786271c0280113714aae076f4aa08739eb47b4abbae7b4c384a2a4e611114ca1584251e0082133516a8e274f6a80a719cb67948b9ac794e3a48284c631316c41b8a2b100e8c1d3b18a6ec7af8a6047f92b87746b7a27740344626426d1d18c6198829120c8e1f391aa4ee78faa4067d90ba7544b5a07542364424406f1f1ac01f8e2f140a88193f1ca2e87efca2007b96bc7342b3a673443042224669191cc21d8c2d16088a1b3d1ea0ea7cfea0027994be7140b1a47146324020446b1b1ecc138223180684153310aee472f0ae0c779ab07f4ebfaa7f483c4e2e4a651510ce1180211a0486173112ace670f2ac0e7598b27d4cbda87d4a3e4c2c48671712c81786271c0280113714aae076f4aa08739eb47b4abbae7b4c384a2a4e611114ca1584251e0082133516a8e274f6a80a719cb67948b9ac794e3a48284c631316c41b8a2b100e8c1d3b18a6ec7af8a6047f92b87746b7a27740344626426d1d18c6198829120c8e1f391aa4ee78faa4067d90ba7544b5a07542364424406f1f1ac01f8e2f140a88193f1ca2e87efca2007b96bc7342b3a673443042224669191cc21d8c2d16088a1b3d1ea0ea7cfea0027994be7140b1a47146324020446b1b1ecc138223180684153310aee472f0ae0c779ab07f4ebfaa7f483c4e2e4a651510ce1180211a0486173112ace670f2ac0e7598b27d4cbda87d4a3e4c2c48671712c81786271c0280113714aae076f4aa08739eb47b4abbae7b4c384a2a4e611114ca1584251e0082133516a8e274f6a80a719cb67948b9ac794e3a48284c631316c41b8a2b100e8c1d3b18a6ec7af8a6047f92b87746b7a27740344626426d1d18c6198829120c8e1f391aa4ee78faa4067d90ba7544b5a07542364424406f1f1ac01f8e2f140a88193f1ca2e87efca2007b96bc7342b3a673443042224669191cc21d8c2d16088a1b3d1ea0ea7cfea0027994be7140b1a47146324020446b1b1ecc138223180684153310aee472f0ae0c779ab07f4ebfaa7f483c4e2e4a651510ce1180211a0486173112ace670f2ac0e7598b27d4cbda87d4a3e4c2c48671712c81786271c0280113714aae076f4aa08739eb47b4abbae7b4c384a2a4e611114ca1584251e0082133516a8e274f6a80a719cb67948b9ac794e3a48284c631316c41b8a2b100e8c1d3b18a6ec7af8a6047f92b87746b7a27740344626426d1d18c6198829120c8e1f391aa4ee78faa4067d90ba7544b5a07542364424406f1f1ac01f8e2f140a88193f1ca2e87efca2007b96bc7342b3a673443042224669191cc21d8c2d16088a1b3d1ea0ea7cfea0027994be7140b1a47146324020446b1b1ecc138223180684153310aee472f0ae0c7bd4075427095044742749c475a21cdf9555e9c80aee28e8284b6fac1096c4581",
        "hex": "6a20b38c19d4013065ebf4f5b5391332166d23f812556197053a0582490f305e7f9b4db00441b8a2b100e8c1d3b18a6ec7af8a6047f92b87746b7a27740344626426d1d18c6198829120c8e1f391aa4ee78faa4067d90ba7544b5a07542364424406f1f1ac01f8e2f140a88193f1ca2e87efca2007b96bc7342b3a673443042224669191cc21d8c2d16088a1b3d1ea0ea7cfea0027994be7140b1a47146324020446b1b1ecc138223180684153310aee472f0ae0c779ab07f4ebfaa7f483c4e2e4a651510ce1180211a0486173112ace670f2ac0e7598b27d4cbda87d4a3e4c2c48671712c81786271c0280113714aae076f4aa08739eb47b4abbae7b4c384a2a4e611114ca1584251e0082133516a8e274f6a80a719cb67948b9ac794e3a48284c631316c41b8a2b100e8c1d3b18a6ec7af8a6047f92b87746b7a27740344626426d1d18c6198829120c8e1f391aa4ee78faa4067d90ba7544b5a07542364424406f1f1ac01f8e2f140a88193f1ca2e87efca2007b96bc7342b3a673443042224669191cc21d8c2d16088a1b3d1ea0ea7cfea0027994be7140b1a47146324020446b1b1ecc138223180684153310aee472f0ae0c779ab07f4ebfaa7f483c4e2e4a651510ce1180211a0486173112ace670f2ac0e7598b27d4cbda87d4a3e4c2c48671712c81786271c0280113714aae076f4aa08739eb47b4abbae7b4c384a2a4e611114ca1584251e0082133516a8e274f6a80a719cb67948b9ac794e3a48284c631316c41b8a2b100e8c1d3b18a6ec7af8a6047f92b87746b7a27740344626426d1d18c6198829120c8e1f391aa4ee78faa4067d90ba7544b5a07542364424406f1f1ac01f8e2f140a88193f1ca2e87efca2007b96bc7342b3a673443042224669191cc21d8c2d16088a1b3d1ea0ea7cfea0027994be7140b1a47146324020446b1b1ecc138223180684153310aee472f0ae0c779ab07f4ebfaa7f483c4e2e4a651510ce1180211a0486173112ace670f2ac0e7598b27d4cbda87d4a3e4c2c48671712c81786271c0280113714aae076f4aa08739eb47b4abbae7b4c384a2a4e611114ca1584251e0082133516a8e274f6a80a719cb67948b9ac794e3a48284c631316c41b8a2b100e8c1d3b18a6ec7af8a6047f92b87746b7a27740344626426d1d18c6198829120c8e1f391aa4ee78faa4067d90ba7544b5a07542364424406f1f1ac01f8e2f140a88193f1ca2e87efca2007b96bc7342b3a673443042224669191cc21d8c2d16088a1b3d1ea0ea7cfea0027994be7140b1a47146324020446b1b1ecc138223180684153310aee472f0ae0c779ab07f4ebfaa7f483c4e2e4a651510ce1180211a0486173112ace670f2ac0e7598b27d4cbda87d4a3e4c2c48671712c81786271c0280113714aae076f4aa08739eb47b4abbae7b4c384a2a4e611114ca1584251e0082133516a8e274f6a80a719cb67948b9ac794e3a48284c631316c41b8a2b100e8c1d3b18a6ec7af8a6047f92b87746b7a27740344626426d1d18c6198829120c8e1f391aa4ee78faa4067d90ba7544b5a07542364424406f1f1ac01f8e2f140a88193f1ca2e87efca2007b96bc7342b3a673443042224669191cc21d8c2d16088a1b3d1ea0ea7cfea0027994be7140b1a47146324020446b1b1ecc138223180684153310aee472f0ae0c7bd4075427095044742749c475a21cdf9555e9c80aee28e8284b6fac1096c4581",
        "type": "nulldata"
      }
    }
  ],
  "blockhash": "15af9b025c636b87e0a10c18a1a8de0e5f3c2069ad563b293161176d75df89a4",
  "confirmations": 1,
  "time": 1764174659,
  "blocktime": 1764174659
}