{
  "hex": "010000000001017636dc9989e0b0a7cbde7555363ec1595fe8336f1285ca05150be91741dc77e80100000000feffffff02202367d2782d0000225120b6c495a7b3230207d85b9c6c0d478d0303f91d86da47f52a0418f53b36826c3e00e1f50500000000fdd5046a20695f39620b85e019d774f6c4db9987a687070c44ad0fbaf1e4d781ae7ab0a6834db00495bf4f44bf3293d51709f615ab5730d9a6eecda3886c2a124703a9e0d022bc34b59f6f649f12b3f53729d6358b7710f986ceed83a84c0a32672389c0f0029c14d5ff0f04ff72d3955749b655eb177099e6ae8de3c82c6a520743e9a09062fc74f5df2f24df52f3b577699675cb3750b9c68eadc3e80c4a722763c980b042dc54153fcfc43fb21355978976952bd7b059266e4d2308ecaa92c783296050a23cb4351fefe41f923375b7a956b50bf79079064e6d0328cc8ab2e7a3094070821c94557f8f847ff25315d7c936d56b97f019662e0d6348acead287c3692010e27cf4755fafa45fd27335f7e916f54bb7d039460e2d43688ccaf2a7e3490030c25cd495bf4f44bf3293d51709f615ab5730d9a6eecda3886c2a124703a9e0d022bc34b59f6f649f12b3f53729d6358b7710f986ceed83a84c0a32672389c0f0029c14d5ff0f04ff72d3955749b655eb177099e6ae8de3c82c6a520743e9a09062fc74f5df2f24df52f3b577699675cb3750b9c68eadc3e80c4a722763c980b042dc54153fcfc43fb21355978976952bd7b059266e4d2308ecaa92c783296050a23cb4351fefe41f923375b7a956b50bf79079064e6d0328cc8ab2e7a3094070821c94557f8f847ff25315d7c936d56b97f019662e0d6348acead287c3692010e27cf4755fafa45fd27335f7e916f54bb7d039460e2d43688ccaf2a7e3490030c25cd495bf4f44bf3293d51709f615ab5730d9a6eecda3886c2a124703a9e0d022bc34b59f6f649f12b3f53729d6358b7710f986ceed83a84c0a32672389c0f0029c14d5ff0f04ff72d3955749b655eb177099e6ae8de3c82c6a520743e9a09062fc74f5df2f24df52f3b577699675cb3750b9c68eadc3e80c4a722763c980b042dc54153fcfc43fb21355978976952bd7b059266e4d2308ecaa92c783296050a23cb4351fefe41f923375b7a956b50bf79079064e6d0328cc8ab2e7a3094070821c94557f8f847ff25315d7c936d56b97f019662e0d6348acead287c3692010e27cf4755fafa45fd27335f7e916f54bb7d039460e2d43688ccaf2a7e3490030c25cd495bf4f44bf3293d51709f615ab5730d9a6eecda3886c2a124703a9e0d022bc34b59f6f649f12b3f53729d6358b7710f986ceed83a84c0a32672389c0f0029c14d5ff0f04ff72d3955749b655eb177099e6ae8de3c82c6a520743e9a09062fc74f5df2f24df52f3b577699675cb3750b9c68eadc3e80c4a722763c980b042dc54153fcfc43fb21355978976952bd7b059266e4d2308ecaa92c783296050a23cb4351fefe41f923375b7a956b50bf79079064e6d0328cc8ab2e7a3094070821c94557f8f847ff25315d7c936d56b97f019662e0d6348acead287c3692010e27cf4755fafa45fd27335f7e916f54bb7d039460e2d43688ccaf2a7e3490030c25cd495bf4f44bf3293d51709f615ab5730d9a6eecda3886c2a124703a9e0d022bc34b59f6f649f12b3f53729d6358b7710f986ceed83a84c0a32672389c0f0029c14d5ff0f04ff72d3955749b655eb177099e6ae8de3c82c6a520743e9a09062fc74f5df2f24df52f3b577699675cb3750b9c68eadc3e80c4a722763c980b042dc54153fcfc43fb21355978976952bd7b0596b3fbd6fa00b686c835e83a01a2b317a77013f1d37588bc1663847aea6b014e602fd750909c4cbd250a13ebc0695521e37d57828b0b1c9196f60c5598268113073cdcdac308a1f54d3735c0c706c14514ec45afeeb19f1407e1d0aa95b6b51e6ed9349a5d7f68635fa053295aba409f3a5aa0fc366c304326fac40cce7602e1531d5d2eab7fc145ed3a75e86ff072c0391b35f66bcf0309a69df24a78df46a877b3664e50eb37b7fd29fe62cd34454705fdb90393909f9bb6fe0efd64883a06e49ff664fa5c7e77a6cd030ad881fcb5fe9e2a0c420988bec72313c62a9dc68784115307beaf4f2b570527f54d144bc342e355e9404cd56ffdb6886a498bea55e6a845d19c4ecfab8c9c5c0dd88812f204f268b2f172ecd8cd3dd20b279c4da81a84e75737919aa9278dc0abe28b6aaf48d026208edf4cda37c4e1f03f07040819a0f06a028cc9ce55a3a8da5d4ea4e624f9ec9c82977991651a12a046a95e8f86bc0360624eac8f67550f049cd656ac914c57c89914c18fad24b559bf1f4db97f81e8c7bc37254fab67ee728a19bef92f295e470757d4dca18ef18c605bca42730a8070f5f5e1464b9a29eec47af1f570d5d2685a9b2f873547cb7993c7301e58f4587a9bbef393f0648076979d4494731c3c8764e3119046cedc6d41da8c8e87e797981acba920d13673ac82b411add42fcb2d6a03cbaa46c6135663790602b78b3946e6935852a1c62caf971faaabf1e1210df89e5194502270de6d79fde49020f4249db93c0344b4a390a7a940a9e6d6c043a6dfabd8646cc5cd30ec5054580970705ed13a6372a5e0b27d3afe8f31f82e6f1a6160c8a3d4949a583d30b10d938ca63557d9dc8cbe17f199dd9998cf72a4931c218ca61adbe196c47df6c763eed3d90885ae462752218a11f695b7c75b8389b73533120d6a6a03d038d20d62b5b71a91c25885e10dc0d51217ae90fe7fd01d94ea2436d2e04a7fd732152150be4dde41b74e6b6c6a38c54772fc76b75a3709247987890c985418ab5aabc20185366fb71e847f07ddf9b815e21b01e8d87864fdad093c3920694d8eb5b2cb0f8ee6dee9805441751259761eb2862ed6fa1d35d260bac57e75b105e2272e9802f6114785720a948b056d84de5a4fc230bf2292b72fdaaa1a2feae05340690ac6b95dcdabbae3a9c465cbfcb5f3037cc7607535f08c8b6370e4180c57a896e2ab7d74f14033479ebdd908b87a9bcfd8a318960202e9ebbec4284927eccab352a54d0030d05ef154e7067033bf6f872de218a4a9eeeae4ba264da87781680b2eb98a45dffd86ecb59098ef30de3a10c21f219ac35b06588c66785595fb73b7ff0965a51b9e1be32b8544f9eaf7cf04bd095740035e18c9f7705589b3c1cbda00d1721f67ebbe515a6bf9cbb5f47dc274b088b777ae2206cfca1fed607172ff300d0ca2fd9e95ddf0b2c293c179e954b76c0f5c0569ec8c0f228e4bd7c8407ef6f510343682d7a11f6999d2d775f281e435abded03024446d5043f2e21244ead86545893ac02775596cb513195525f6c6f605dc1edde8ce924ae2582863182e2cfde37203512afd5521af5b57d7a876da4a694f086910177d6e279a0c55e1c230761b5a65ef82774ed795f5f6f1eb132cadec3a243028c0c2cb4542dcc2519742e192dc9cf8e4e996d53b785bb8227ce280b03e66abf61f50726fb9f709f8a86ae04d687434c1be7caac658c5935bb4579e644fa4d0880c83588897be04fd3a3850095d3e59fd31428450d17696de1c45983254867e6d51a5ecd75630f17c31ac4c43d16d61329ca5bf73dbde047f6ae086a49c9aae9587c7ad826e70b52983a22aba357ba26892f44f48f2f1c5af6aae8049af4ed246f9c75c4bb448fb0ecd49ea131419fb1de7ab03ba333323a8053af95328b3ac912bf53d64f67d36d3dbcefb18d6e77bc5f5c1c9f9aa29acc5d5e18a92488c52f7b51ea6bd01634f609076b098c88ab36ed7143a087fc1866d26afacb1de0c98e75d6a2863222f9b0261b2c0caad3e6150de55b523e48c6deb2d1abab08150ca5633b9628a68640e8464bb1f4df30b0f7e51f3535b03bde2396877eaa380aac96c6d71e577ee4f35b5aa57ac3db8233c51634b578dd075bd92fc8d0a2764011f62e1e262def06a5e73cea1390f803605e00d9139648f9ce4d75a9651e35a95de0e6fc4e0ccdd4587d4a9ff3a8f66db81e0519522ef2ebc25e369b21badb4c4a51ffa0faf2f0622ae638253d99e1231c2aa3ac1ae01541e8d872588893b9cac2a1f6bbac1d120b4692a5d8fd290c8ae35a87c9c8f564180b4590e491c8c6a179fbcd623cf10f20f3fb411a9ba2df7f3acc1c70964bfebb66e3ffd4bf26f860b4fd684c73b5b89b797acbb4ae38b180766b5a2c743c57b867f238d2550a6009fcedb0ef9df750979e825b3eae0ebe51e7333ca00e6256f512b6da9dae71be96681cbee4a264ae6818bbb2751402b25c23795e988d55df8ef367ce0d3404878f08e72470d57a1e36cf3def46424168b48318c8a62dc20110e851e1d643f38dc80f697b9efe0983031eaaf9efe387ab7907c8d03222ee94ec9040f5a283f7fd5bea7e51f6477db6fda0f233c2912baf8e349456e6b044de95bd5131cdef5d891f3e3f69cd2f17aa6913196204d2c0c664ea63304e744e068ced684671009a71adc2c480c39c2658d888697ddede237c59e6218f4bcf2b482cb4a014471da9700ce21207e01d79f2fb6f9d90be168386df5cc92eb429bc1b2430168564a021acf9292919e3c507023e7d3efed57ef272499c5b1f775de84c80a58ecbd57b825f833a63d42133b9335a8b5b8153180a34dfd26214c09de1b45c65cf5f2a96429f691337be892b47c8c3711a7ffef9bc39e7b51e1656672ad39860268efaf0bab9a1b0b7790c3eb78391b8e8f19a9a73a5f07007a92d3708554f58e2d16451e28f40f3517802c2eed318b68e72f27c0e3311f3a83b5fb99572c9a0405dd30b82bea92c36d5de8f58824e2feaca6753870bdec1633d6038673cade692a0b5ecd375611b8f6edd7e2a86d16f99e9980870a7389673660be7fcaa3dd1365895983f32f302d5d60c5b7eda85ad597f56d7451568d68187599206be283d3bb31fbc2ba39cef29aac8b21959ea12fa74232fa1071bc73df30e2bcb938fe6ad8468a31c2179ea0ee7e1f14aabd7443ddc709c1e060be685fdee50f4e873aaea5c2c8c20250cad7193b3be9bc7de3a196d8481a701a045c2fda30245112d0c02d076d13cec971d60b4bc18c3e01a7e9d80798f01395538aa262313d6ba76e03eec2732273d0ed3df13deb2a522ec6952616bb2775e01bb171924596163747d8d9dc0eb1b515a848e9fb2b7c1dff2ff0c252f4043505156628aacb0bdbe0731335a676b7295a2b0c0ced6eef10000000000000000000000000000000000000000000000000000000c18263501fd21050040522f9ba6f91d87e60d3bf49f054c268e85055ad206bed7f4ddfe164292fa169af3d27d5686ef1afb7d2b194067d8d9b9d6857c83bef774c0cb4859528c61610011ce0f2a6f7d204eac511d77ee6c843ee2c6ebdabed36c06fed459c9bdba0f3899ce0935d07b8a36b11734a129b04c28ac42df573e50c4a4d492a80dda8afe300a7893e669a5bcb298206b3b3adfff78563a3b8617553e0ec326f2799db9bd066f16f35c4ea05b7573ed5922bb6378339823901b3d2de0dc7b0edea88e970c33c7ecfbe95658c7389c5672aed002e489f3b4f3226c0a046e4de70b8bdfddd2aeb1e0ceaae6a1800f0c927d89d6513060626ad9773093d7450daaff20855cbc417c034413f2d85c78bb681d45c2d59affe10d5ad0969938edc84a2102c861ec5cd9edadf93f12e2f8c432f4f59b1e10fded79d2f92173c37e36142585784e887d42a355d528304120e566cd95f4e61223b0b65f26ba58cb808ad7df8250a7b2a61e58b86c6a801c1b9986b0ea5f73d1b0cdb05ed87d394dab2ad4a135c00e23a2cfb031fb5d7b5ecf6d676f2063cc76b4e966dbc5401e2e52d292c014484e0ed4228c767501c599cb099477263e387bb607983b2451a50b0916110842ebbef93b9d07f693c1efd5dadc210d1b3b02f05a6b57dc678007b04387b6fc072f4c32ca2c7e8bbc7eee514001642833f388c0760d5585767b3599b68b544194366e0c1e0d706efe034850f5d1495b6f65b8c1b6c88b76ef8458d784a9c3f79177057f830e80660369c3e9001bb001ed27004b3a9c53265512f77fd927c745619b62371e1924ab2890de7f7448e15fd950b78384dbcaa0dcf270dd03bc1f8d839634fdf3398f2891ff5b70a9ba0a2236160965ba30a0a6a8d65207dbbd194cca75e520dacb5218c30158ea92ef02f8740ac6f8919e34c381f25e9dfdb67477cf422278f00833acba392e519bee29e8ee68ee7b4b503ecceabf0ade0087835b507edc8785620e542ce4d1e07e3920eb3070156d06a5b969265ac1746b2aae680c7c041530d3df1cd6bed203e02d209e80c81c138b7dac0d2fd6067bf445a021371ef7c2897c2d63b9ad993b67b8245a0243dc01b4a24398ea6cfe22f48d45acca4b5253248ebcaa1570443b9682f3059c959e8e5a2dae09a40ad9635294682032f8b2c2f09332a19eaa2cc65af86925b7244e053af39f584ea95c6b323af65d5848f466cde0dec87e4e74a6b0c383eced5fbb681e7995120875169dd8d800912507ebcf8f78cc6d400bb1a5f170f79d6c7aa42ac0ec4deb27f5a6258461058ef7a70ab9e0de03e5b44400010ed32444da995816a03aa9d7301fd88c0493e6aca759815383d534da6890cd3cfe7f6bfd7c1e938f1accd7ad5638571e37f9eb2813cebf6c656f326061e724654da859a8cf1687c3afa8d61b7f931bc6706b4ecde7a7715a762b89616bd3c66267f0a157e34d221faf937afc4066f98fa2f108815a7f5557138a3b868e4f93fa083d1ed1b2a4bb945eefc273b3b413fb80eb3bd59963eea1a12186202392af25ffa9927bef161c0bba9a1c58d74778dfdde4b0962692c7ec2162236b1af3918873be4cf6c29680488f98c354deefc36c5d9ae68c24efc1706ffe2245644376227577d5b8b32e9624436974fc87e0e6e230cc5a05b0b79d1185c1a8a450350373c3ff5d70a7caf28e0133761a43e77209635304425a775d3b6849065cf145754eb1d448bf07df9e3f45cde77da907fe3994d246101cd16e43d045af954c4fdd45664ac840f8f540ff8469ccdafdd4883136a85e4adaa0912ab2437292601d1e6c51bad41a094e02ed60fa764de1295553bf8168f6f374378880000000",
  "txid": "21912a7b9eb2b6d5ec1c93ea7f5e558b18200268157ac243040b95d15aa8eab9",
  "hash": "5e47cb48bc988b3d8a204fdbdc4ae3893eccc8f72c0e628b7525fd2cfa009aaf",
  "size": 5085,
  "vsize": 2278,
  "version": 1,
  "locktime": 128,
  "vin": [
    {
      "txid": "e877dc4117e90b1505ca85126f33e85f59c13e365575decba7b0e08999dc3676",
      "vout": 1,
      "scriptSig": {
        "asm": "",
        "hex": ""
      },
      "txinwitness": [
        "09c4cbd250a13ebc0695521e37d57828b0b1c9196f60c5598268113073cdcdac308a1f54d3735c0c706c14514ec45afeeb19f1407e1d0aa95b6b51e6ed9349a5d7f68635fa053295aba409f3a5aa0fc366c304326fac40cce7602e1531d5d2eab7fc145ed3a75e86ff072c0391b35f66bcf0309a69df24a78df46a877b3664e50eb37b7fd29fe62cd34454705fdb90393909f9bb6fe0efd64883a06e49ff664fa5c7e77a6cd030ad881fcb5fe9e2a0c420988bec72313c62a9dc68784115307beaf4f2b570527f54d144bc342e355e9404cd56ffdb6886a498bea55e6a845d19c4ecfab8c9c5c0dd88812f204f268b2f172ecd8cd3dd20b279c4da81a84e75737919aa9278dc0abe28b6aaf48d026208edf4cda37c4e1f03f07040819a0f06a028cc9ce55a3a8da5d4ea4e624f9ec9c82977991651a12a046a95e8f86bc0360624eac8f67550f049cd656ac914c57c89914c18fad24b559bf1f4db97f81e8c7bc37254fab67ee728a19bef92f295e470757d4dca18ef18c605bca42730a8070f5f5e1464b9a29eec47af1f570d5d2685a9b2f873547cb7993c7301e58f4587a9bbef393f0648076979d4494731c3c8764e3119046cedc6d41da8c8e87e797981acba920d13673ac82b411add42fcb2d6a03cbaa46c6135663790602b78b3946e6935852a1c62caf971faaabf1e1210df89e5194502270de6d79fde49020f4249db93c0344b4a390a7a940a9e6d6c043a6dfabd8646cc5cd30ec5054580970705ed13a6372a5e0b27d3afe8f31f82e6f1a6160c8a3d4949a583d30b10d938ca63557d9dc8cbe17f199dd9998cf72a4931c218ca61adbe196c47df6c763eed3d90885ae462752218a11f695b7c75b8389b73533120d6a6a03d038d20d62b5b71a91c25885e10dc0d51217ae90fe7fd01d94ea2436d2e04a7fd732152150be4dde41b74e6b6c6a38c54772fc76b75a3709247987890c985418ab5aabc20185366fb71e847f07ddf9b815e21b01e8d87864fdad093c3920694d8eb5b2cb0f8ee6dee9805441751259761eb2862ed6fa1d35d260bac57e75b105e2272e9802f6114785720a948b056d84de5a4fc230bf2292b72fdaaa1a2feae05340690ac6b95dcdabbae3a9c465cbfcb5f3037cc7607535f08c8b6370e4180c57a896e2ab7d74f14033479ebdd908b87a9bcfd8a318960202e9ebbec4284927eccab352a54d0030d05ef154e7067033bf6f872de218a4a9eeeae4ba264da87781680b2eb98a45dffd86ecb59098ef30de3a10c21f219ac35b06588c66785595fb73b7ff0965a51b9e1be32b8544f9eaf7cf04bd095740035e18c9f7705589b3c1cbda00d1721f67ebbe515a6bf9cbb5f47dc274b088b777ae2206cfca1fed607172ff300d0ca2fd9e95ddf0b2c293c179e954b76c0f5c0569ec8c0f228e4bd7c8407ef6f510343682d7a11f6999d2d775f281e435abded03024446d5043f2e21244ead86545893ac02775596cb513195525f6c6f605dc1edde8ce924ae2582863182e2cfde37203512afd5521af5b57d7a876da4a694f086910177d6e279a0c55e1c230761b5a65ef82774ed795f5f6f1eb132cadec3a243028c0c2cb4542dcc2519742e192dc9cf8e4e996d53b785bb8227ce280b03e66abf61f50726fb9f709f8a86ae04d687434c1be7caac658c5935bb4579e644fa4d0880c83588897be04fd3a3850095d3e59fd31428450d17696de1c45983254867e6d51a5ecd75630f17c31ac4c43d16d61329ca5bf73dbde047f6ae086a49c9aae9587c7ad826e70b52983a22aba357ba26892f44f48f2f1c5af6aae8049af4ed246f9c75c4bb448fb0ecd49ea131419fb1de7ab03ba333323a8053af95328b3ac912bf53d64f67d36d3dbcefb18d6e77bc5f5c1c9f9aa29acc5d5e18a92488c52f7b51ea6bd01634f609076b098c88ab36ed7143a087fc1866d26afacb1de0c98e75d6a2863222f9b0261b2c0caad3e6150de55b523e48c6deb2d1abab08150ca5633b9628a68640e8464bb1f4df30b0f7e51f3535b03bde2396877eaa380aac96c6d71e577ee4f35b5aa57ac3db8233c51634b578dd075bd92fc8d0a2764011f62e1e262def06a5e73cea1390f803605e00d9139648f9ce4d75a9651e35a95de0e6fc4e0ccdd4587d4a9ff3a8f66db81e0519522ef2ebc25e369b21badb4c4a51ffa0faf2f0622ae638253d99e1231c2aa3ac1ae01541e8d872588893b9cac2a1f6bbac1d120b4692a5d8fd290c8ae35a87c9c8f564180b4590e491c8c6a179fbcd623cf10f20f3fb411a9ba2df7f3acc1c70964bfebb66e3ffd4bf26f860b4fd684c73b5b89b797acbb4ae38b180766b5a2c743c57b867f238d2550a6009fcedb0ef9df750979e825b3eae0ebe51e7333ca00e6256f512b6da9dae71be96681cbee4a264ae6818bbb2751402b25c23795e988d55df8ef367ce0d3404878f08e72470d57a1e36cf3def46424168b48318c8a62dc20110e851e1d643f38dc80f697b9efe0983031eaaf9efe387ab7907c8d03222ee94ec9040f5a283f7fd5bea7e51f6477db6fda0f233c2912baf8e349456e6b044de95bd5131cdef5d891f3e3f69cd2f17aa6913196204d2c0c664ea63304e744e068ced684671009a71adc2c480c39c2658d888697ddede237c59e6218f4bcf2b482cb4a014471da9700ce21207e01d79f2fb6f9d90be168386df5cc92eb429bc1b2430168564a021acf9292919e3c507023e7d3efed57ef272499c5b1f775de84c80a58ecbd57b825f833a63d42133b9335a8b5b8153180a34dfd26214c09de1b45c65cf5f2a96429f691337be892b47c8c3711a7ffef9bc39e7b51e1656672ad39860268efaf0bab9a1b0b7790c3eb78391b8e8f19a9a73a5f07007a92d3708554f58e2d16451e28f40f3517802c2eed318b68e72f27c0e3311f3a83b5fb99572c9a0405dd30b82bea92c36d5de8f58824e2feaca6753870bdec1633d6038673cade692a0b5ecd375611b8f6edd7e2a86d16f99e9980870a7389673660be7fcaa3dd1365895983f32f302d5d60c5b7eda85ad597f56d7451568d68187599206be283d3bb31fbc2ba39cef29aac8b21959ea12fa74232fa1071bc73df30e2bcb938fe6ad8468a31c2179ea0ee7e1f14aabd7443ddc709c1e060be685fdee50f4e873aaea5c2c8c20250cad7193b3be9bc7de3a196d8481a701a045c2fda30245112d0c02d076d13cec971d60b4bc18c3e01a7e9d80798f01395538aa262313d6ba76e03eec2732273d0ed3df13deb2a522ec6952616bb2775e01bb171924596163747d8d9dc0eb1b515a848e9fb2b7c1dff2ff0c252f4043505156628aacb0bdbe0731335a676b7295a2b0c0ced6eef10000000000000000000000000000000000000000000000000000000c18263501",
        "0040522f9ba6f91d87e60d3bf49f054c268e85055ad206bed7f4ddfe164292fa169af3d27d5686ef1afb7d2b194067d8d9b9d6857c83bef774c0cb4859528c61610011ce0f2a6f7d204eac511d77ee6c843ee2c6ebdabed36c06fed459c9bdba0f3899ce0935d07b8a36b11734a129b04c28ac42df573e50c4a4d492a80dda8afe300a7893e669a5bcb298206b3b3adfff78563a3b8617553e0ec326f2799db9bd066f16f35c4ea05b7573ed5922bb6378339823901b3d2de0dc7b0edea88e970c33c7ecfbe95658c7389c5672aed002e489f3b4f3226c0a046e4de70b8bdfddd2aeb1e0ceaae6a1800f0c927d89d6513060626ad9773093d7450daaff20855cbc417c034413f2d85c78bb681d45c2d59affe10d5ad0969938edc84a2102c861ec5cd9edadf93f12e2f8c432f4f59b1e10fded79d2f92173c37e36142585784e887d42a355d528304120e566cd95f4e61223b0b65f26ba58cb808ad7df8250a7b2a61e58b86c6a801c1b9986b0ea5f73d1b0cdb05ed87d394dab2ad4a135c00e23a2cfb031fb5d7b5ecf6d676f2063cc76b4e966dbc5401e2e52d292c014484e0ed4228c767501c599cb099477263e387bb607983b2451a50b0916110842ebbef93b9d07f693c1efd5dadc210d1b3b02f05a6b57dc678007b04387b6fc072f4c32ca2c7e8bbc7eee514001642833f388c0760d5585767b3599b68b544194366e0c1e0d706efe034850f5d1495b6f65b8c1b6c88b76ef8458d784a9c3f79177057f830e80660369c3e9001bb001ed27004b3a9c53265512f77fd927c745619b62371e1924ab2890de7f7448e15fd950b78384dbcaa0dcf270dd03bc1f8d839634fdf3398f2891ff5b70a9ba0a2236160965ba30a0a6a8d65207dbbd194cca75e520dacb5218c30158ea92ef02f8740ac6f8919e34c381f25e9dfdb67477cf422278f00833acba392e519bee29e8ee68ee7b4b503ecceabf0ade0087835b507edc8785620e542ce4d1e07e3920eb3070156d06a5b969265ac1746b2aae680c7c041530d3df1cd6bed203e02d209e80c81c138b7dac0d2fd6067bf445a021371ef7c2897c2d63b9ad993b67b8245a0243dc01b4a24398ea6cfe22f48d45acca4b5253248ebcaa1570443b9682f3059c959e8e5a2dae09a40ad9635294682032f8b2c2f09332a19eaa2cc65af86925b7244e053af39f584ea95c6b323af65d5848f466cde0dec87e4e74a6b0c383eced5fbb681e7995120875169dd8d800912507ebcf8f78cc6d400bb1a5f170f79d6c7aa42ac0ec4deb27f5a6258461058ef7a70ab9e0de03e5b44400010ed32444da995816a03aa9d7301fd88c0493e6aca759815383d534da6890cd3cfe7f6bfd7c1e938f1accd7ad5638571e37f9eb2813cebf6c656f326061e724654da859a8cf1687c3afa8d61b7f931bc6706b4ecde7a7715a762b89616bd3c66267f0a157e34d221faf937afc4066f98fa2f108815a7f5557138a3b868e4f93fa083d1ed1b2a4bb945eefc273b3b413fb80eb3bd59963eea1a12186202392af25ffa9927bef161c0bba9a1c58d74778dfdde4b0962692c7ec2162236b1af3918873be4cf6c29680488f98c354deefc36c5d9ae68c24efc1706ffe2245644376227577d5b8b32e9624436974fc87e0e6e230cc5a05b0b79d1185c1a8a450350373c3ff5d70a7caf28e0133761a43e77209635304425a775d3b6849065cf145754eb1d448bf07df9e3f45cde77da907fe3994d246101cd16e43d045af954c4fdd45664ac840f8f540ff8469ccdafdd4883136a85e4adaa0912ab2437292601d1e6c51bad41a094e02ed60fa764de1295553bf8168f6f3743788"
      ],
      "sequence": 4294967294
    }
  ],
  "vout": [
    {
      "value": 499969.493,
      "n": 0,
      "scriptPubKey": {
        "asm": "1 b6c495a7b3230207d85b9c6c0d478d0303f91d86da47f52a0418f53b36826c3e",
        "hex": "5120b6c495a7b3230207d85b9c6c0d478d0303f91d86da47f52a0418f53b36826c3e",
        "reqSigs": 1,
        "type": "witness_v1_scripthash",
        "addresses": [
          "3QJmnh"
        ]
      }
    },
    {
      "value": 1.0,
      "n": 1,
      "scriptPubKey": {
        "asm": "OP_RETURN 695f39620b85e019d774f6c4db9987a687070c44ad0fbaf1e4d781ae7ab0a683 95bf4f44bf3293d51709f615ab5730d9a6eecda3886c2a124703a9e0d022bc34b59f6f649f12b3f53729d6358b7710f986ceed83a84c0a32672389c0f0029c14d5ff0f04ff72d3955749b655eb177099e6ae8de3c82c6a520743e9a09062fc74f5df2f24df52f3b577699675cb3750b9c68eadc3e80c4a722763c980b042dc54153fcfc43fb21355978976952bd7b059266e4d2308ecaa92c783296050a23cb4351fefe41f923375b7a956b50bf79079064e6d0328cc8ab2e7a3094070821c94557f8f847ff25315d7c936d56b97f019662e0d6348acead287c3692010e27cf4755fafa45fd27335f7e916f54bb7d039460e2d43688ccaf2a7e3490030c25cd495bf4f44bf3293d51709f615ab5730d9a6eecda3886c2a124703a9e0d022bc34b59f6f649f12b3f53729d6358b7710f986ceed83a84c0a32672389c0f0029c14d5ff0f04ff72d3955749b655eb177099e6ae8de3c82c6a520743e9a09062fc74f5df2f24df52f3b577699675cb3750b9c68eadc3e80c4a722763c980b042dc54153fcfc43fb21355978976952bd7b059266e4d2308ecaa92c783296050a23cb4351fefe41f923375b7a956b50bf79079064e6d0328cc8ab2e7a3094070821c94557f8f847ff25315d7c936d56b97f019662e0d6348acead287c3692010e27cf4755fafa45fd27335f7e916f54bb7d039460e2d43688ccaf2a7e3490030c25cd495bf4f44bf3293d51709f615ab5730d9a6eecda3886c2a124703a9e0d022bc34b59f6f649f12b3f53729d6358b7710f986ceed83a84c0a32672389c0f0029c14d5ff0f04ff72d3955749b655eb177099e6ae8de3c82c6a520743e9a09062fc74f5df2f24df52f3b577699675cb3750b9c68eadc3e80c4a722763c980b042dc54153fcfc43fb21355978976952bd7b059266e4d2308ecaa92c783296050a23cb4351fefe41f923375b7a956b50bf79079064e6d0328cc8ab2e7a3094070821c94557f8f847ff25315d7c936d56b97f019662e0d6348acead287c3692010e27cf4755fafa45fd27335f7e916f54bb7d039460e2d43688ccaf2a7e3490030c25cd495bf4f44bf3293d51709f615ab5730d9a6eecda3886c2a124703a9e0d022bc34b59f6f649f12b3f53729d6358b7710f986ceed83a84c0a32672389c0f0029c14d5ff0f04ff72d3955749b655eb177099e6ae8de3c82c6a520743e9a09062fc74f5df2f24df52f3b577699675cb3750b9c68eadc3e80c4a722763c980b042dc54153fcfc43fb21355978976952bd7b059266e4d2308ecaa92c783296050a23cb4351fefe41f923375b7a956b50bf79079064e6d0328cc8ab2e7a3094070821c94557f8f847ff25315d7c936d56b97f019662e0d6348acead287c3692010e27cf4755fafa45fd27335f7e916f54bb7d039460e2d43688ccaf2a7e3490030c25cd495bf4f44bf3293d51709f615ab5730d9a6eecda3886c2a124703a9e0d022bc34b59f6f649f12b3f53729d6358b7710f986ceed83a84c0a32672389c0f0029c14d5ff0f04ff72d3955749b655eb177099e6ae8de3c82c6a520743e9a09062fc74f5df2f24df52f3b577699675cb3750b9c68eadc3e80c4a722763c980b042dc54153fcfc43fb21355978976952bd7b0596b3fbd6fa00b686c835e83a01a2b317a77013f1d37588bc1663847aea6b014e6",
        "hex": "6a20695f39620b85e019d774f6c4db9987a687070c44ad0fbaf1e4d781ae7ab0a6834db00495bf4f44bf3293d51709f615ab5730d9a6eecda3886c2a124703a9e0d022bc34b59f6f649f12b3f53729d6358b7710f986ceed83a84c0a32672389c0f0029c14d5ff0f04ff72d3955749b655eb177099e6ae8de3c82c6a520743e9a09062fc74f5df2f24df52f3b577699675cb3750b9c68eadc3e80c4a722763c980b042dc54153fcfc43fb21355978976952bd7b059266e4d2308ecaa92c783296050a23cb4351fefe41f923375b7a956b50bf79079064e6d0328cc8ab2e7a3094070821c94557f8f847ff25315d7c936d56b97f019662e0d6348acead287c3692010e27cf4755fafa45fd27335f7e916f54bb7d039460e2d43688ccaf2a7e3490030c25cd495bf4f44bf3293d51709f615ab5730d9a6eecda3886c2a124703a9e0d022bc34b59f6f649f12b3f53729d6358b7710f986ceed83a84c0a32672389c0f0029c14d5ff0f04ff72d3955749b655eb177099e6ae8de3c82c6a520743e9a09062fc74f5df2f24df52f3b577699675cb3750b9c68eadc3e80c4a722763c980b042dc54153fcfc43fb21355978976952bd7b059266e4d2308ecaa92c783296050a23cb4351fefe41f923375b7a956b50bf79079064e6d0328cc8ab2e7a3094070821c94557f8f847ff25315d7c936d56b97f019662e0d6348acead287c3692010e27cf4755fafa45fd27335f7e916f54bb7d039460e2d43688ccaf2a7e3490030c25cd495bf4f44bf3293d51709f615ab5730d9a6eecda3886c2a124703a9e0d022bc34b59f6f649f12b3f53729d6358b7710f986ceed83a84c0a32672389c0f0029c14d5ff0f04ff72d3955749b655eb177099e6ae8de3c82c6a520743e9a09062fc74f5df2f24df52f3b577699675cb3750b9c68eadc3e80c4a722763c980b042dc54153fcfc43fb21355978976952bd7b059266e4d2308ecaa92c783296050a23cb4351fefe41f923375b7a956b50bf79079064e6d0328cc8ab2e7a3094070821c94557f8f847ff25315d7c936d56b97f019662e0d6348acead287c3692010e27cf4755fafa45fd27335f7e916f54bb7d039460e2d43688ccaf2a7e3490030c25cd495bf4f44bf3293d51709f615ab5730d9a6eecda3886c2a124703a9e0d022bc34b59f6f649f12b3f53729d6358b7710f986ceed83a84c0a32672389c0f0029c14d5ff0f04ff72d3955749b655eb177099e6ae8de3c82c6a520743e9a09062fc74f5df2f24df52f3b577699675cb3750b9c68eadc3e80c4a722763c980b042dc54153fcfc43fb21355978976952bd7b059266e4d2308ecaa92c783296050a23cb4351fefe41f923375b7a956b50bf79079064e6d0328cc8ab2e7a3094070821c94557f8f847ff25315d7c936d56b97f019662e0d6348acead287c3692010e27cf4755fafa45fd27335f7e916f54bb7d039460e2d43688ccaf2a7e3490030c25cd495bf4f44bf3293d51709f615ab5730d9a6eecda3886c2a124703a9e0d022bc34b59f6f649f12b3f53729d6358b7710f986ceed83a84c0a32672389c0f0029c14d5ff0f04ff72d3955749b655eb177099e6ae8de3c82c6a520743e9a09062fc74f5df2f24df52f3b577699675cb3750b9c68eadc3e80c4a722763c980b042dc54153fcfc43fb21355978976952bd7b0596b3fbd6fa00b686c835e83a01a2b317a77013f1d37588bc1663847aea6b014e6",
        "type": "nulldata"
      }
    }
  ],
  "blockhash": "f0ff1fbaae405cadeb51abb379c93a956cf666ff613992ee95c2f945c1780bd2",
  "confirmations": 1,
  "time": 1764181685,
  "blocktime": 1764181685
}