{
  "hex": "01000000000101cd4e17f0191b60c2141c67a18e0278ec293df3b54d56201284578ebb193398280000000000feffffff02a020df63792d0000225120db6cfe548981a034db8311bd8263e3b4e415a895f4cccf8a2d6139066ae483c200e1f50500000000fdd5046a203eba325098592786d47dc8b4c7b1ed4b9789e7b6c7c9d60743791fd2237413c24db004a3e23aa288cd6db5050a8ee48fcdcd00e5b36ef52a938c17447deba79bee570b83c21a82a8ed4d95252aaec4afeded20c5934ed50ab3ac37645dcb87bbce772be3a27ae2c88d2df5454acea4cf8d8d40a5f32eb56ad3cc57043dabe7dbae174bc3825ac2e8ad0dd5656aee84efadad6085d30e954af3ec77241d8bc7fb8e376b2362ba22084ded35858a0e640f4d4d806533ee75aa130c97c4fd6b271b6ed78b03429a02286dcd15a5aa2e442f6d6da04513ce558a332cb7e4dd4b073b4ef7ab6322fa62480dad75c5ca4e244f0d0dc02573ae35ea534cd784bd2b675b2e97cb4302da42682d8d55e5ea6e046f2d2de005538e15ca736cf7a49d0b477b0eb7eba3e23aa288cd6db5050a8ee48fcdcd00e5b36ef52a938c17447deba79bee570b83c21a82a8ed4d95252aaec4afeded20c5934ed50ab3ac37645dcb87bbce772be3a27ae2c88d2df5454acea4cf8d8d40a5f32eb56ad3cc57043dabe7dbae174bc3825ac2e8ad0dd5656aee84efadad6085d30e954af3ec77241d8bc7fb8e376b2362ba22084ded35858a0e640f4d4d806533ee75aa130c97c4fd6b271b6ed78b03429a02286dcd15a5aa2e442f6d6da04513ce558a332cb7e4dd4b073b4ef7ab6322fa62480dad75c5ca4e244f0d0dc02573ae35ea534cd784bd2b675b2e97cb4302da42682d8d55e5ea6e046f2d2de005538e15ca736cf7a49d0b477b0eb7eba3e23aa288cd6db5050a8ee48fcdcd00e5b36ef52a938c17447deba79bee570b83c21a82a8ed4d95252aaec4afeded20c5934ed50ab3ac37645dcb87bbce772be3a27ae2c88d2df5454acea4cf8d8d40a5f32eb56ad3cc57043dabe7dbae174bc3825ac2e8ad0dd5656aee84efadad6085d30e954af3ec77241d8bc7fb8e376b2362ba22084ded35858a0e640f4d4d806533ee75aa130c97c4fd6b271b6ed78b03429a02286dcd15a5aa2e442f6d6da04513ce558a332cb7e4dd4b073b4ef7ab6322fa62480dad75c5ca4e244f0d0dc02573ae35ea534cd784bd2b675b2e97cb4302da42682d8d55e5ea6e046f2d2de005538e15ca736cf7a49d0b477b0eb7eba3e23aa288cd6db5050a8ee48fcdcd00e5b36ef52a938c17447deba79bee570b83c21a82a8ed4d95252aaec4afeded20c5934ed50ab3ac37645dcb87bbce772be3a27ae2c88d2df5454acea4cf8d8d40a5f32eb56ad3cc57043dabe7dbae174bc3825ac2e8ad0dd5656aee84efadad6085d30e954af3ec77241d8bc7fb8e376b2362ba22084ded35858a0e640f4d4d806533ee75aa130c97c4fd6b271b6ed78b03429a02286dcd15a5aa2e442f6d6da04513ce558a332cb7e4dd4b073b4ef7ab6322fa62480dad75c5ca4e244f0d0dc02573ae35ea534cd784bd2b675b2e97cb4302da42682d8d55e5ea6e046f2d2de005538e15ca736cf7a49d0b477b0eb7eba3e23aa288cd6db5050a8ee48fcdcd00e5b36ef52a938c17447deba79bee570b83c21a82a8ed4d95252aaec4afeded20c5934ed50ab3ac37645dcb87bbce772be3a27ae2c88d2df5454acea4cf8d8d40a5f32eb56ad3cc57043dabe7dbae174bc3825ac2e8ad0dd5656aee84efadad6085d30e954af3ec77241d8bc7fb8e376b2362ba22084ded35858a0e640f4d4d80b7551d950fd01967766cabb0a0b6ac8a4771a1ed307d5fa3cc52ff0bafb225a402fd750916a000e80417ab7a824d73c2a29531b45e1fcc62de40442ae30ea76807ef8f57a6e9f9fed61b5544c53d89ee6b75d77aaf7646b39d1092910845defc19d56486675aa0b83df694e17906f81756534e5aada31cead9d1846b52f1c34ee3b43f937cad5f1e30eed913496a58e30ff0a9faec9fdd107f1311babd7fb356602aca64d36758a7c2d84d40d2ed55f77bad76d36356b4a67282ff75a759c10fbfcd971d5e633e33e03a38315b9fdc9a0edacc3d3e513ad62cdea65c9379e11b8088e8d48f1d313c6c8a7a213056d8a199d1376e9a5bb4f47178d3e53cb5d547f3de7b7ea9ef87bdf228897da20154c9c9b81a218542282886e08d7ea7b9d02242d5f7bbd98b7d6a8234b8fe4ccf877e0834edc781a8969982e262ffd31f8beecc0248ddff2750bda97a04476b1b808815bfddcc177a44b341ec633d35099991c8d2d8ee47f45a0af383cc7cb563385a52c197e7fef70c4572acc9c15d6a9db1ce8f3038c5dfb0eb360e6a2eed49400dd5f24dc058a65169e2ca3e29c14e4355f14206dc382ea6ce2714063de9f9d75bf20fbde6a644ef190ccb382e1ec615947ba022843cd91b74c98bc80a6f0991d71ecda9e9777d378f320608a5cee0422d5b5313b1e8dee0296e2f737dc313dc96e16f976cf10fc3fe7046720d768e7c62b86138f33ef6459d9dcd4f545e24addd51b2ad9d1ab1e621c7a9785e3b740d139d14e831db59a21e533ed652b84d9a03d9f6b4aeb42411dfeece6dfab7b0b74b27fcdb2174fb06a61b9b6a45779d7dc4e00976e4a7d07a3f6af98e3359a63e3a61285a6f4166e6c392a07cf23274174d3fa72f25f9362f60b7a0ac69a6f1fd0c96210be67dc4f0665806edbccac16288044bcd5159b7b6fc37dea6c2b7ababc3d85d551e15c12f2ca98b74cedb3ddfda3e7b9c9588845302aaf0f46d9d97fb6a4168bbab60bfe9d73003d6bf520372147bc9162a2a8cdaabaaa618f1239c65ec193549700db8609a58a15bd701ea0672477011d92e831d99e1a53c94883ed5d2c28c83c156a3498ed5577112522781ba8e75ac3592c340629afeaafbc8ff2917c6f3d5bd8a94b341277027f0f1f67c7bce650059af53ff9cb23bfdac5faea614c6a82597bac76de2899eb8101d8d49bb7043762b35a3a72046bbd793457f049a9d74b66870e0b5883a9027473b4f71cf1b5b43629ded914794406fc4b0dc0de1317a721a43e54d11a8bb5ca54af824d3f395aac9bd9d471e5353c6cdb2f52afd2a180a8f5ba4a49dbb12593af14001b68aad5b3325bdbd59a3b885dd72f2f58c9bcee486b57dc5456becdff42fc6a1b3ed57246f4ed72a07d9a28ed8c254123f978612286673ab4b998129bac41cb6ab406f79bd47d5638d57b6c309f699d1eb9be796ce635345da425e3c51255ef97c07281c2e25880bbb1e2db904cd84d28e0dbe0265bc000d4568480c2ff8acd30ca25c3e0a5b6404aa77d7f2ffd5a59270ed3aaba6194a756063901a818a94c9277c8a63391968409dcf994189bacee0c1a57cac9d18833d1155da6673f1b468c438272dcdffd9679f729080bb47c99abc1094a01ce99e482e8db06e156ed15987f6b5cd230f4b2cbcbac4c0aaf2c9f92a2d321ef61faaf6e73779f3027134cf09c46cf545a33b276e161600b0bad58ce1241d405bae79f127bdd8120ef91a9669373b279ebadafda9d3e4875b45fb9f71a5714a2ee47559502da61c0b7110bc87ca5e3565e2d6054eeb417be68943ef15100bd67f9b39e0e7d1058eb70621a30bf4422b617067721457b913298803ef18f4f5af0b4fffd610a760121d210341a0d5d50989a2fe67c31129909301b00b58bc9d26d69c3dacfc1580fa87eb36b9f27ab559c0dd6da7e8a70415619c2ccd87edde658e444c52a8aa127b69fb8adbd9563ec424ebe4586a695ebd4a7fe3b61f2b06bf3b1c662add86ecfd8a6c034c68e80a401d2bd1a09906c900b09ae3bc2ff47b0d7b5585ed6fb53fc6d52421e04cd6d240d2c929176b25672cd3f494deadd30498c69a0d67fe53e5996da20c18e024d5f11f68318bc737df20b37178c0628bea73fa61ca1075c18a1f7702aad048c36f25fae6c8b264c37c25254c763dacf48a6dcf3fa76d2702201087519de6b7af7fc42c593544c3382057d38b103446e75a6da81df7e63a2d869bb7a2f97bfeed11214d7d84d0c715aee70839e42d51c613ce60e303ba38977a9a878369be574ef23844bd2d395cb2ebb524b6bca200a0c38e4be883c233b456a2f7b5c07a654c711df6059df628fb90d7365fd46551c67ff157b80cb1c48360edf43ab1d28e96caaabc7ada5177b53b3f3e9a0fe1ee17735857f021949307bee4d54957eb5d0f3115ecc4a16463c470d6b0cc269b351c4bd584ecacfb72528cc63b65c477aaa2c39a9c546e7e6965582f5e4928f0a27b6bd6033f907f8851962b989b492ccf035c173bb7a67b8fc73190a8ad5532dbc52331f6a63edd6f6c0492efd6eeaefb45e65bc52dad7ca1e40beb8711857b5112083f582d094b85691890d43618851c71ec1fc2d464b6b2743a1afec645add9b86acb7f08d3b5d55c22e14163cd959fc880ffac69c9ffc683040682ac19366ac585e122894a34cbcbe6201094e221c10166b0e52174ebb9ff81822f608a21b94b2cfadcd20ebd92d71b30f8a3feb250a27f362480d9c436fa03368198d50e655ecad87084b17f83476f592816eccc0b6c7ec6bfccdeca8be494b1ed66a72723ef525138c93d8d36463add07532024ce9e06af741e3e369639318aef93390e685015fe627d923e477519599d43bf657b365fcc5dd6e4848961c7aa7d23a8e172a15b8aa8ce7469014649761cd2cd6d6c94bbc77d815d15c57be80c6f3e95a2be40a23f11768fd4c3d06f3348a54f694fcf7655718d49c16c27ff9cd206426e31007eddd98efc2b891d4e4897d9540d9ade9a267d136f7188ffce12cf780412808aa5bc1385ba644de97b9144d6c7eddd3d5f5936c8dbf459770fcf93511bde53ccbae1fc5aab6db716ff66c21a5e135c56691b1abce9ffe70dd1611f8ecd13782abd09312a7e104b9245e4e8e0f907e7bc6c0507d3816bdafb2040b6b4f3a4e04cc339dcd755364d1ef02dc97e23d07cc090adbb78e45c6c8ef79c565ec69b9646737172a7625db044729627426faa84f4af1537db7a2bf09c956755c92816052f27c3bcba8eda40d880c07a7d2edb6037706b665e1d74bde75b59b53edda7bbb44746f5a5302041d0bc6945b15d4445f58434d6db83266d4e3bca0db62bc0254d0c818c1b35434d4e5156585a5b878aa0c2c3d6d7dcf2f3f9fd0a12162d4250577b828b8d9196b1b6d1eef3f80b1617344c575c7f858ba3a9dddeed0a1d2d4761686a6f80828c91c0c2cdd2e3e5eeff000000001629384c01fd21050072a45a14d16ccf4aa75b51cc538cf293db93ca44f16db81ecf48a086d24e71fe0d7598116b4063583cd5b4c6e83db476a49e0aa534ea28a7e0721db087231c1dfa0661f42063617d6d69f34482e3dcc15f494a85a588b97d1e5666da1ce7c6dc41cfb2317050fe686afa1aca44fb260ac8ffd62d84baa07c7a1eaccdfe0576bea8abd114a910965e90136dac06b86dc97e6587cb69c1f597608f6a65cff8079398d09796bdcbb2e2863c09502674d866346f2afb477591fab3bebefcd05c567bdef19d81668154fae4bb3eaae6b038d32ae4ef36a5dcad71b5514d191d41ba0e23713828a0209f4ea9afa8c78863912684e6315f8d0c64ad220d9ecef70db4587c823ca175cddf390849f374573b4e428f4effad099c701ef4db784a37406813d8fc503854adde7058e716569e25f0f4cffa943a2d87be140fa50dbf36b6bbe294bd0b82debb04bbd1bdc7ac292eb614a9afd2b5f2b9055b37b63cbfe7dcfc1ee007c29b2bc81649481c3e32bf7afdbca938b228128793ac91f9683e95dedf3acc61faa6f99d9f0e5c17f504c400f9e05e466c5608336dddf53ed5495074b9831eee3a1070bf1edd3209d5aade090486e8986d54f22b912b8fb0b0ee35d357199beabe0488ffda0bb694027cfec949018f226fab422f3639aa1d852ff32204f3a19511df25a6d2c18ba2eb62d23c902b1910927662a82d3dad20a21f0bca56ea07ec3d649da231175c295366bdf20d0897d9ef8cba33258f8e1ca13f2f2d1d99084d24c5ca71adc6109d0d14deeb51c87808b5508e995043cf2324c73cce297e797bf854e8f330e1f66f47b2482633d3f785f14e523badacea2dcf33ab3fe3fa62cd5f31c7b647da0b4c7359777544acdf6520a42ae629cf40cfab47c37c3baf7392ed1cb91dc53f395394266c83d4c9c6e47ad38b7ae9e8ccc9eb8fe40e70c4f6d4ea5fb48df96978958879f5ee87695253b99515ac182e4f7679472e4c82a93d806246dbd8a219e25b85d7f6e91e1df4d476aa9bcddc575bc9fef426a4239668ea0066235624b44ada6a1dd89d67b5b563a48444659efbec5e2178518de3f06cb0fc75a868c7ce38b11d01e020e5c6ae72ed08353f5df9ae86ad9bda43a603bb2d81f3693d358f88b1bd97f416eed64a43e563e3e54a7389d8d111c61edbe2ef4b51fd2d6aef6614d981da0f34ff42e2017a3592e22233bce680ab48ccf29631696134763fc153300d4744f6d47d4e354c72da5ef0e0150314efd3dc819b1f1491332e8859261d75a40914b4da4894e2afb80ff088f4afd908beb32d1f7882bcccdc0956540d6dd92f5b4ebfbde135c34e2156ed9bee9ee92a0020d61d507606af7eb58da53b6ad6dd1dbc35d740741522188d6cfb0d0c032f5b23034915b59c87cfc61355965ddb225b5ceff1611db968565829058a53a943dda52c157da088932687744496274933caf8fb6269e3f5d66e33d0c457ea7a7446d7269c96062c9820a7e4db5d388757a2ced5d67f95063c721e85a37a56957874155e695323efe2d0a08616bc8e7cad2294630e2e1aa6204c1b3622c37f26d0b481c9cf218048d1be061bfe53512e81c961baf61e2ba5efe8f17284f5a0eddb3981e9926aa354f7eb0927a05e003d090cefd35b66f849c583dc9b743eb6ef36cf136899c112fafc4f5a43cce31942fb052fb3c94274b0ebc91eaede4eaaba11572269f6aee54ac2118b8a4f91a85f93672465fda1608b60950afb08c4b6c92d8dbac2838937ea8dd45f43ae5994a3d4004c3fdf04242e6a47725aef73480bc7bf3068c3c050a9a92b592880e3b65bd56ca6d6726e4a4d378b37ea3e36242621d168bd8a620768000000",
  "txid": "26548cfb7b49f9f97dc9c703aa490eed4aa4dbf84a27e87a1f7c157e67d594f1",
  "hash": "037b56ff390a73d785944c0117f8576c6754b0f1c0cdb2afd614db9fc635865a",
  "size": 5085,
  "vsize": 2278,
  "version": 1,
  "locktime": 104,
  "vin": [
    {
      "txid": "28983319bb8e57841220564db5f33d29ec78028ea1671c14c2601b19f0174ecd",
      "vout": 0,
      "scriptSig": {
        "asm": "",
        "hex": ""
      },
      "txinwitness": [
        "16a000e80417ab7a824d73c2a29531b45e1fcc62de40442ae30ea76807ef8f57a6e9f9fed61b5544c53d89ee6b75d77aaf7646b39d1092910845defc19d56486675aa0b83df694e17906f81756534e5aada31cead9d1846b52f1c34ee3b43f937cad5f1e30eed913496a58e30ff0a9faec9fdd107f1311babd7fb356602aca64d36758a7c2d84d40d2ed55f77bad76d36356b4a67282ff75a759c10fbfcd971d5e633e33e03a38315b9fdc9a0edacc3d3e513ad62cdea65c9379e11b8088e8d48f1d313c6c8a7a213056d8a199d1376e9a5bb4f47178d3e53cb5d547f3de7b7ea9ef87bdf228897da20154c9c9b81a218542282886e08d7ea7b9d02242d5f7bbd98b7d6a8234b8fe4ccf877e0834edc781a8969982e262ffd31f8beecc0248ddff2750bda97a04476b1b808815bfddcc177a44b341ec633d35099991c8d2d8ee47f45a0af383cc7cb563385a52c197e7fef70c4572acc9c15d6a9db1ce8f3038c5dfb0eb360e6a2eed49400dd5f24dc058a65169e2ca3e29c14e4355f14206dc382ea6ce2714063de9f9d75bf20fbde6a644ef190ccb382e1ec615947ba022843cd91b74c98bc80a6f0991d71ecda9e9777d378f320608a5cee0422d5b5313b1e8dee0296e2f737dc313dc96e16f976cf10fc3fe7046720d768e7c62b86138f33ef6459d9dcd4f545e24addd51b2ad9d1ab1e621c7a9785e3b740d139d14e831db59a21e533ed652b84d9a03d9f6b4aeb42411dfeece6dfab7b0b74b27fcdb2174fb06a61b9b6a45779d7dc4e00976e4a7d07a3f6af98e3359a63e3a61285a6f4166e6c392a07cf23274174d3fa72f25f9362f60b7a0ac69a6f1fd0c96210be67dc4f0665806edbccac16288044bcd5159b7b6fc37dea6c2b7ababc3d85d551e15c12f2ca98b74cedb3ddfda3e7b9c9588845302aaf0f46d9d97fb6a4168bbab60bfe9d73003d6bf520372147bc9162a2a8cdaabaaa618f1239c65ec193549700db8609a58a15bd701ea0672477011d92e831d99e1a53c94883ed5d2c28c83c156a3498ed5577112522781ba8e75ac3592c340629afeaafbc8ff2917c6f3d5bd8a94b341277027f0f1f67c7bce650059af53ff9cb23bfdac5faea614c6a82597bac76de2899eb8101d8d49bb7043762b35a3a72046bbd793457f049a9d74b66870e0b5883a9027473b4f71cf1b5b43629ded914794406fc4b0dc0de1317a721a43e54d11a8bb5ca54af824d3f395aac9bd9d471e5353c6cdb2f52afd2a180a8f5ba4a49dbb12593af14001b68aad5b3325bdbd59a3b885dd72f2f58c9bcee486b57dc5456becdff42fc6a1b3ed57246f4ed72a07d9a28ed8c254123f978612286673ab4b998129bac41cb6ab406f79bd47d5638d57b6c309f699d1eb9be796ce635345da425e3c51255ef97c07281c2e25880bbb1e2db904cd84d28e0dbe0265bc000d4568480c2ff8acd30ca25c3e0a5b6404aa77d7f2ffd5a59270ed3aaba6194a756063901a818a94c9277c8a63391968409dcf994189bacee0c1a57cac9d18833d1155da6673f1b468c438272dcdffd9679f729080bb47c99abc1094a01ce99e482e8db06e156ed15987f6b5cd230f4b2cbcbac4c0aaf2c9f92a2d321ef61faaf6e73779f3027134cf09c46cf545a33b276e161600b0bad58ce1241d405bae79f127bdd8120ef91a9669373b279ebadafda9d3e4875b45fb9f71a5714a2ee47559502da61c0b7110bc87ca5e3565e2d6054eeb417be68943ef15100bd67f9b39e0e7d1058eb70621a30bf4422b617067721457b913298803ef18f4f5af0b4fffd610a760121d210341a0d5d50989a2fe67c31129909301b00b58bc9d26d69c3dacfc1580fa87eb36b9f27ab559c0dd6da7e8a70415619c2ccd87edde658e444c52a8aa127b69fb8adbd9563ec424ebe4586a695ebd4a7fe3b61f2b06bf3b1c662add86ecfd8a6c034c68e80a401d2bd1a09906c900b09ae3bc2ff47b0d7b5585ed6fb53fc6d52421e04cd6d240d2c929176b25672cd3f494deadd30498c69a0d67fe53e5996da20c18e024d5f11f68318bc737df20b37178c0628bea73fa61ca1075c18a1f7702aad048c36f25fae6c8b264c37c25254c763dacf48a6dcf3fa76d2702201087519de6b7af7fc42c593544c3382057d38b103446e75a6da81df7e63a2d869bb7a2f97bfeed11214d7d84d0c715aee70839e42d51c613ce60e303ba38977a9a878369be574ef23844bd2d395cb2ebb524b6bca200a0c38e4be883c233b456a2f7b5c07a654c711df6059df628fb90d7365fd46551c67ff157b80cb1c48360edf43ab1d28e96caaabc7ada5177b53b3f3e9a0fe1ee17735857f021949307bee4d54957eb5d0f3115ecc4a16463c470d6b0cc269b351c4bd584ecacfb72528cc63b65c477aaa2c39a9c546e7e6965582f5e4928f0a27b6bd6033f907f8851962b989b492ccf035c173bb7a67b8fc73190a8ad5532dbc52331f6a63edd6f6c0492efd6eeaefb45e65bc52dad7ca1e40beb8711857b5112083f582d094b85691890d43618851c71ec1fc2d464b6b2743a1afec645add9b86acb7f08d3b5d55c22e14163cd959fc880ffac69c9ffc683040682ac19366ac585e122894a34cbcbe6201094e221c10166b0e52174ebb9ff81822f608a21b94b2cfadcd20ebd92d71b30f8a3feb250a27f362480d9c436fa03368198d50e655ecad87084b17f83476f592816eccc0b6c7ec6bfccdeca8be494b1ed66a72723ef525138c93d8d36463add07532024ce9e06af741e3e369639318aef93390e685015fe627d923e477519599d43bf657b365fcc5dd6e4848961c7aa7d23a8e172a15b8aa8ce7469014649761cd2cd6d6c94bbc77d815d15c57be80c6f3e95a2be40a23f11768fd4c3d06f3348a54f694fcf7655718d49c16c27ff9cd206426e31007eddd98efc2b891d4e4897d9540d9ade9a267d136f7188ffce12cf780412808aa5bc1385ba644de97b9144d6c7eddd3d5f5936c8dbf459770fcf93511bde53ccbae1fc5aab6db716ff66c21a5e135c56691b1abce9ffe70dd1611f8ecd13782abd09312a7e104b9245e4e8e0f907e7bc6c0507d3816bdafb2040b6b4f3a4e04cc339dcd755364d1ef02dc97e23d07cc090adbb78e45c6c8ef79c565ec69b9646737172a7625db044729627426faa84f4af1537db7a2bf09c956755c92816052f27c3bcba8eda40d880c07a7d2edb6037706b665e1d74bde75b59b53edda7bbb44746f5a5302041d0bc6945b15d4445f58434d6db83266d4e3bca0db62bc0254d0c818c1b35434d4e5156585a5b878aa0c2c3d6d7dcf2f3f9fd0a12162d4250577b828b8d9196b1b6d1eef3f80b1617344c575c7f858ba3a9dddeed0a1d2d4761686a6f80828c91c0c2cdd2e3e5eeff000000001629384c01",
        "0072a45a14d16ccf4aa75b51cc538cf293db93ca44f16db81ecf48a086d24e71fe0d7598116b4063583cd5b4c6e83db476a49e0aa534ea28a7e0721db087231c1dfa0661f42063617d6d69f34482e3dcc15f494a85a588b97d1e5666da1ce7c6dc41cfb2317050fe686afa1aca44fb260ac8ffd62d84baa07c7a1eaccdfe0576bea8abd114a910965e90136dac06b86dc97e6587cb69c1f597608f6a65cff8079398d09796bdcbb2e2863c09502674d866346f2afb477591fab3bebefcd05c567bdef19d81668154fae4bb3eaae6b038d32ae4ef36a5dcad71b5514d191d41ba0e23713828a0209f4ea9afa8c78863912684e6315f8d0c64ad220d9ecef70db4587c823ca175cddf390849f374573b4e428f4effad099c701ef4db784a37406813d8fc503854adde7058e716569e25f0f4cffa943a2d87be140fa50dbf36b6bbe294bd0b82debb04bbd1bdc7ac292eb614a9afd2b5f2b9055b37b63cbfe7dcfc1ee007c29b2bc81649481c3e32bf7afdbca938b228128793ac91f9683e95dedf3acc61faa6f99d9f0e5c17f504c400f9e05e466c5608336dddf53ed5495074b9831eee3a1070bf1edd3209d5aade090486e8986d54f22b912b8fb0b0ee35d357199beabe0488ffda0bb694027cfec949018f226fab422f3639aa1d852ff32204f3a19511df25a6d2c18ba2eb62d23c902b1910927662a82d3dad20a21f0bca56ea07ec3d649da231175c295366bdf20d0897d9ef8cba33258f8e1ca13f2f2d1d99084d24c5ca71adc6109d0d14deeb51c87808b5508e995043cf2324c73cce297e797bf854e8f330e1f66f47b2482633d3f785f14e523badacea2dcf33ab3fe3fa62cd5f31c7b647da0b4c7359777544acdf6520a42ae629cf40cfab47c37c3baf7392ed1cb91dc53f395394266c83d4c9c6e47ad38b7ae9e8ccc9eb8fe40e70c4f6d4ea5fb48df96978958879f5ee87695253b99515ac182e4f7679472e4c82a93d806246dbd8a219e25b85d7f6e91e1df4d476aa9bcddc575bc9fef426a4239668ea0066235624b44ada6a1dd89d67b5b563a48444659efbec5e2178518de3f06cb0fc75a868c7ce38b11d01e020e5c6ae72ed08353f5df9ae86ad9bda43a603bb2d81f3693d358f88b1bd97f416eed64a43e563e3e54a7389d8d111c61edbe2ef4b51fd2d6aef6614d981da0f34ff42e2017a3592e22233bce680ab48ccf29631696134763fc153300d4744f6d47d4e354c72da5ef0e0150314efd3dc819b1f1491332e8859261d75a40914b4da4894e2afb80ff088f4afd908beb32d1f7882bcccdc0956540d6dd92f5b4ebfbde135c34e2156ed9bee9ee92a0020d61d507606af7eb58da53b6ad6dd1dbc35d740741522188d6cfb0d0c032f5b23034915b59c87cfc61355965ddb225b5ceff1611db968565829058a53a943dda52c157da088932687744496274933caf8fb6269e3f5d66e33d0c457ea7a7446d7269c96062c9820a7e4db5d388757a2ced5d67f95063c721e85a37a56957874155e695323efe2d0a08616bc8e7cad2294630e2e1aa6204c1b3622c37f26d0b481c9cf218048d1be061bfe53512e81c961baf61e2ba5efe8f17284f5a0eddb3981e9926aa354f7eb0927a05e003d090cefd35b66f849c583dc9b743eb6ef36cf136899c112fafc4f5a43cce31942fb052fb3c94274b0ebc91eaede4eaaba11572269f6aee54ac2118b8a4f91a85f93672465fda1608b60950afb08c4b6c92d8dbac2838937ea8dd45f43ae5994a3d4004c3fdf04242e6a47725aef73480bc7bf3068c3c050a9a92b592880e3b65bd56ca6d6726e4a4d378b37ea3e36242621d168bd8a6207"
      ],
      "sequence": 4294967294
    }
  ],
  "vout": [
    {
      "value": 499993.8986,
      "n": 0,
      "scriptPubKey": {
        "asm": "1 db6cfe548981a034db8311bd8263e3b4e415a895f4cccf8a2d6139066ae483c2",
        "hex": "5120db6cfe548981a034db8311bd8263e3b4e415a895f4cccf8a2d6139066ae483c2",
        "reqSigs": 1,
        "type": "witness_v1_scripthash",
        "addresses": [
          "3QJmnh"
        ]
      }
    },
    {
      "value": 1.0,
      "n": 1,
      "scriptPubKey": {
        "asm": "OP_RETURN 3eba325098592786d47dc8b4c7b1ed4b9789e7b6c7c9d60743791fd2237413c2 a3e23aa288cd6db5050a8ee48fcdcd00e5b36ef52a938c17447deba79bee570b83c21a82a8ed4d95252aaec4afeded20c5934ed50ab3ac37645dcb87bbce772be3a27ae2c88d2df5454acea4cf8d8d40a5f32eb56ad3cc57043dabe7dbae174bc3825ac2e8ad0dd5656aee84efadad6085d30e954af3ec77241d8bc7fb8e376b2362ba22084ded35858a0e640f4d4d806533ee75aa130c97c4fd6b271b6ed78b03429a02286dcd15a5aa2e442f6d6da04513ce558a332cb7e4dd4b073b4ef7ab6322fa62480dad75c5ca4e244f0d0dc02573ae35ea534cd784bd2b675b2e97cb4302da42682d8d55e5ea6e046f2d2de005538e15ca736cf7a49d0b477b0eb7eba3e23aa288cd6db5050a8ee48fcdcd00e5b36ef52a938c17447deba79bee570b83c21a82a8ed4d95252aaec4afeded20c5934ed50ab3ac37645dcb87bbce772be3a27ae2c88d2df5454acea4cf8d8d40a5f32eb56ad3cc57043dabe7dbae174bc3825ac2e8ad0dd5656aee84efadad6085d30e954af3ec77241d8bc7fb8e376b2362ba22084ded35858a0e640f4d4d806533ee75aa130c97c4fd6b271b6ed78b03429a02286dcd15a5aa2e442f6d6da04513ce558a332cb7e4dd4b073b4ef7ab6322fa62480dad75c5ca4e244f0d0dc02573ae35ea534cd784bd2b675b2e97cb4302da42682d8d55e5ea6e046f2d2de005538e15ca736cf7a49d0b477b0eb7eba3e23aa288cd6db5050a8ee48fcdcd00e5b36ef52a938c17447deba79bee570b83c21a82a8ed4d95252aaec4afeded20c5934ed50ab3ac37645dcb87bbce772be3a27ae2c88d2df5454acea4cf8d8d40a5f32eb56ad3cc57043dabe7dbae174bc3825ac2e8ad0dd5656aee84efadad6085d30e954af3ec77241d8bc7fb8e376b2362ba22084ded35858a0e640f4d4d806533ee75aa130c97c4fd6b271b6ed78b03429a02286dcd15a5aa2e442f6d6da04513ce558a332cb7e4dd4b073b4ef7ab6322fa62480dad75c5ca4e244f0d0dc02573ae35ea534cd784bd2b675b2e97cb4302da42682d8d55e5ea6e046f2d2de005538e15ca736cf7a49d0b477b0eb7eba3e23aa288cd6db5050a8ee48fcdcd00e5b36ef52a938c17447deba79bee570b83c21a82a8ed4d95252aaec4afeded20c5934ed50ab3ac37645dcb87bbce772be3a27ae2c88d2df5454acea4cf8d8d40a5f32eb56ad3cc57043dabe7dbae174bc3825ac2e8ad0dd5656aee84efadad6085d30e954af3ec77241d8bc7fb8e376b2362ba22084ded35858a0e640f4d4d806533ee75aa130c97c4fd6b271b6ed78b03429a02286dcd15a5aa2e442f6d6da04513ce558a332cb7e4dd4b073b4ef7ab6322fa62480dad75c5ca4e244f0d0dc02573ae35ea534cd784bd2b675b2e97cb4302da42682d8d55e5ea6e046f2d2de005538e15ca736cf7a49d0b477b0eb7eba3e23aa288cd6db5050a8ee48fcdcd00e5b36ef52a938c17447deba79bee570b83c21a82a8ed4d95252aaec4afeded20c5934ed50ab3ac37645dcb87bbce772be3a27ae2c88d2df5454acea4cf8d8d40a5f32eb56ad3cc57043dabe7dbae174bc3825ac2e8ad0dd5656aee84efadad6085d30e954af3ec77241d8bc7fb8e376b2362ba22084ded35858a0e640f4d4d80b7551d950fd01967766cabb0a0b6ac8a4771a1ed307d5fa3cc52ff0bafb225a4",
        "hex": "6a203eba325098592786d47dc8b4c7b1ed4b9789e7b6c7c9d60743791fd2237413c24db004a3e23aa288cd6db5050a8ee48fcdcd00e5b36ef52a938c17447deba79bee570b83c21a82a8ed4d95252aaec4afeded20c5934ed50ab3ac37645dcb87bbce772be3a27ae2c88d2df5454acea4cf8d8d40a5f32eb56ad3cc57043dabe7dbae174bc3825ac2e8ad0dd5656aee84efadad6085d30e954af3ec77241d8bc7fb8e376b2362ba22084ded35858a0e640f4d4d806533ee75aa130c97c4fd6b271b6ed78b03429a02286dcd15a5aa2e442f6d6da04513ce558a332cb7e4dd4b073b4ef7ab6322fa62480dad75c5ca4e244f0d0dc02573ae35ea534cd784bd2b675b2e97cb4302da42682d8d55e5ea6e046f2d2de005538e15ca736cf7a49d0b477b0eb7eba3e23aa288cd6db5050a8ee48fcdcd00e5b36ef52a938c17447deba79bee570b83c21a82a8ed4d95252aaec4afeded20c5934ed50ab3ac37645dcb87bbce772be3a27ae2c88d2df5454acea4cf8d8d40a5f32eb56ad3cc57043dabe7dbae174bc3825ac2e8ad0dd5656aee84efadad6085d30e954af3ec77241d8bc7fb8e376b2362ba22084ded35858a0e640f4d4d806533ee75aa130c97c4fd6b271b6ed78b03429a02286dcd15a5aa2e442f6d6da04513ce558a332cb7e4dd4b073b4ef7ab6322fa62480dad75c5ca4e244f0d0dc02573ae35ea534cd784bd2b675b2e97cb4302da42682d8d55e5ea6e046f2d2de005538e15ca736cf7a49d0b477b0eb7eba3e23aa288cd6db5050a8ee48fcdcd00e5b36ef52a938c17447deba79bee570b83c21a82a8ed4d95252aaec4afeded20c5934ed50ab3ac37645dcb87bbce772be3a27ae2c88d2df5454acea4cf8d8d40a5f32eb56ad3cc57043dabe7dbae174bc3825ac2e8ad0dd5656aee84efadad6085d30e954af3ec77241d8bc7fb8e376b2362ba22084ded35858a0e640f4d4d806533ee75aa130c97c4fd6b271b6ed78b03429a02286dcd15a5aa2e442f6d6da04513ce558a332cb7e4dd4b073b4ef7ab6322fa62480dad75c5ca4e244f0d0dc02573ae35ea534cd784bd2b675b2e97cb4302da42682d8d55e5ea6e046f2d2de005538e15ca736cf7a49d0b477b0eb7eba3e23aa288cd6db5050a8ee48fcdcd00e5b36ef52a938c17447deba79bee570b83c21a82a8ed4d95252aaec4afeded20c5934ed50ab3ac37645dcb87bbce772be3a27ae2c88d2df5454acea4cf8d8d40a5f32eb56ad3cc57043dabe7dbae174bc3825ac2e8ad0dd5656aee84efadad6085d30e954af3ec77241d8bc7fb8e376b2362ba22084ded35858a0e640f4d4d806533ee75aa130c97c4fd6b271b6ed78b03429a02286dcd15a5aa2e442f6d6da04513ce558a332cb7e4dd4b073b4ef7ab6322fa62480dad75c5ca4e244f0d0dc02573ae35ea534cd784bd2b675b2e97cb4302da42682d8d55e5ea6e046f2d2de005538e15ca736cf7a49d0b477b0eb7eba3e23aa288cd6db5050a8ee48fcdcd00e5b36ef52a938c17447deba79bee570b83c21a82a8ed4d95252aaec4afeded20c5934ed50ab3ac37645dcb87bbce772be3a27ae2c88d2df5454acea4cf8d8d40a5f32eb56ad3cc57043dabe7dbae174bc3825ac2e8ad0dd5656aee84efadad6085d30e954af3ec77241d8bc7fb8e376b2362ba22084ded35858a0e640f4d4d80b7551d950fd01967766cabb0a0b6ac8a4771a1ed307d5fa3cc52ff0bafb225a4",
        "type": "nulldata"
      }
    }
  ],
  "blockhash": "32a2d379a33ec88ae1cb3a8a1a44f2d12b76aebf574ecf7ac16b289397ed6cd9",
  "confirmations": 1,
  "time": 1764176557,
  "blocktime": 1764176557
}