{
  "hex": "01000000000101f211f58cdc6e798866112f771d7b17a20a370830cbb3b31f74d27d2bd0becc260000000000feffffff024021813f792d000022512003a690ea00c7db006a583cfd753725a477adfe6cea6bd005f7584cb81eefa6c400e1f50500000000fdd5046a20b0d2cfb21e936551d26d130d29d03fcbc5f6cf713d922dfdaca79f8df103f7144db004b4f327ee9f69106f7e7c872e19cc8029847fb0c78738089ccb5ad509e02f6dad94d307cebf49304f5e5ca70e39eca009a45f90e7a71828bceb7af529c00f4d8df4b367aedf29502f3e3cc76e598cc069c43ff087c77848dc8b1a9549a06f2dedd493478eff09700f1e1ce74e79ace049e41fd0a7e75868fcab3ab569804f0dcd3473a76e1fe990effefc07ae994c00a904ff304707b8881c4bda558960afed2d1453874e3fc9b0cfdedc278eb96c208924df10672798a83c6bfa75a9408fcd0d7433e72e5fa9d0afbebc47eed90c40e944bf700747f8c85c0b9a15c920efad6d5413c70e7f89f08f9e9c67cef92c60c9649f502767d8e87c2bba35e900cf8d4db4f327ee9f69106f7e7c872e19cc8029847fb0c78738089ccb5ad509e02f6dad94d307cebf49304f5e5ca70e39eca009a45f90e7a71828bceb7af529c00f4d8df4b367aedf29502f3e3cc76e598cc069c43ff087c77848dc8b1a9549a06f2dedd493478eff09700f1e1ce74e79ace049e41fd0a7e75868fcab3ab569804f0dcd3473a76e1fe990effefc07ae994c00a904ff304707b8881c4bda558960afed2d1453874e3fc9b0cfdedc278eb96c208924df10672798a83c6bfa75a9408fcd0d7433e72e5fa9d0afbebc47eed90c40e944bf700747f8c85c0b9a15c920efad6d5413c70e7f89f08f9e9c67cef92c60c9649f502767d8e87c2bba35e900cf8d4db4f327ee9f69106f7e7c872e19cc8029847fb0c78738089ccb5ad509e02f6dad94d307cebf49304f5e5ca70e39eca009a45f90e7a71828bceb7af529c00f4d8df4b367aedf29502f3e3cc76e598cc069c43ff087c77848dc8b1a9549a06f2dedd493478eff09700f1e1ce74e79ace049e41fd0a7e75868fcab3ab569804f0dcd3473a76e1fe990effefc07ae994c00a904ff304707b8881c4bda558960afed2d1453874e3fc9b0cfdedc278eb96c208924df10672798a83c6bfa75a9408fcd0d7433e72e5fa9d0afbebc47eed90c40e944bf700747f8c85c0b9a15c920efad6d5413c70e7f89f08f9e9c67cef92c60c9649f502767d8e87c2bba35e900cf8d4db4f327ee9f69106f7e7c872e19cc8029847fb0c78738089ccb5ad509e02f6dad94d307cebf49304f5e5ca70e39eca009a45f90e7a71828bceb7af529c00f4d8df4b367aedf29502f3e3cc76e598cc069c43ff087c77848dc8b1a9549a06f2dedd493478eff09700f1e1ce74e79ace049e41fd0a7e75868fcab3ab569804f0dcd3473a76e1fe990effefc07ae994c00a904ff304707b8881c4bda558960afed2d1453874e3fc9b0cfdedc278eb96c208924df10672798a83c6bfa75a9408fcd0d7433e72e5fa9d0afbebc47eed90c40e944bf700747f8c85c0b9a15c920efad6d5413c70e7f89f08f9e9c67cef92c60c9649f502767d8e87c2bba35e900cf8d4db4f327ee9f69106f7e7c872e19cc8029847fb0c78738089ccb5ad509e02f6dad94d307cebf49304f5e5ca70e39eca009a45f90e7a71828bceb7af529c00f4d8df4b367aedf29502f3e3cc76e598cc069c43ff087c77848dc8b1a9549a06f2dedd493478eff09700f1e1ce74e79ace049e41fd0a7e75868fcab3ab569804f0dcd3473a76e1fe990effefc07ae994c00a9609e62e0c529146e97d9786525d9fdd6073ba17f422969ad553177856e29ce3c02fd75098629422f5aeef05e37b9be1e5f7c704d500221a7a2efcea07e673992d3add1541b54ba2522f866a5d93dff2238e50a6ba64463fc47b1bb84bdafb9a99e871e91101286a228b582cc398f195a496fb4406fb16ebf14ab1d0ab72e2521478f13a1d1c8a04e2b17fbaf282de01eee689d49465d282ab50278188be29b6d6ef072b87a52f7c64e5c69730b18780d1b090a6b643392147d6e79524d36a4480c7c52466c71631a9c874376e832953a12012fc664d3790792f099dd5f9fd857b11a6a0f89e0423182559a163b350911ca2658373b3fb9312b379e1a0b841a9f87b4cabbe875f0daf9c6af8e01ffccfc4c27b8c9fbc6fac132c4c26214c333669657e54ea2ab3e633e9f37600cdb80c3f3581cd043389af9c84f0c0734e10dc0cc62605d5d2348fef7bd85e01bfaf1a5fdd46d3a4fb43f9802b689d1171ecc55a97e9970a4e7f9bc2e7f82753faa818b79c9307013a320dec8c8f79bb8719b702e01ac78bcdf9e885e21312ae43b2cca585489d19d26a07fc579f241cba4dd685d0a6d3734075efd033c21870cff99093a377671bfcb7051a9ced4d0895806941889eb1226da5b2d60b9a156131d514007c5072636366527aae9499a2c21a944e1b4827c62c776da9974cbcfc0fbc253d851d49d25411615052d7f1d733c9d7a6dbc4cf2e4c319163ff24a7fa5d96ed098853ab28c2d0605c006c9c49bf8302198ab66cdce988fa2032e4782e46eac8935622d55c8eae4b984281836bfef86214849de139738b4f9660adc712f822d0fd8039d73039063cd18a3af556094a9471e415b2aeac1d597b86dc85f4566cdf9c3648cc244745b1b45c6ad0ae647e660500c1bf167780a9bec79c15a78d62226004ec390c349db6ab9b52be8dea0d421db054ca7d120ceaeb7addd51765836eaa71fa05d296f38a72dbf41c69fb40832f86af39ef7d88eed4d940952c8c68c4c62e39f3aec6c7a2bd307a129150cbda97851dc25fc5a4c68aefc5599e328c6305755a2fed8d467a195cd8b6759ea1af316c0818c8c030b3967b15ca6a2f175c76850be4d02f03fe229decbdb8c503738fc148b8602b8b3c9533680cf461db4dd26b215738d604835b7b043eb179cb6c171212650e929beeba3feef0cab06041f7e3d09c4c6079b97b92b272025810917de6b4b1bbeb1a85f442a1140df4e8cffc434dcccaeb1cdbfe814452efd330602b614ce08e9aba2e9dec63ca107d57ee37cb008aebb4dc6e08d53f459953f205a224219374f35a56b0ad659854de78721938ed8a2bdf4e924595ed77371dcf237fe21960816e3884b55c8b532f4b61c95677eb02dabb719b2862675030a25a53295af82d68fe9ce41bdf8c4f6395188657af1e55177ea96be92b3fb57d793299a8daee8ec56a844f05f4657a6fd93e3676d05c1b508a9e63ece4e54e1ce3656db1e0d525f17ee1d75be8476aa9d703badedda68d02aeb3d34efda9acb7d803bc49dc19c63501a8ae9c3b281dc39420fef6958265b2da1b47a848e09587f7f8eba4dc106bc39a3bf863bcc5d2d25f6bbd105f7e8f3e24572554bb6b259a3922f2bbc534a51df2d98dc8f4ef903f79577fd4bb592d3b25b77b640ad983a87aed198b48123c96b69955de0b7d23f905ea09554a8de8167551c8803fdc120a4e69e5507d7d6b16edc7ff30592cf07e308f70b3b37e1619998de557a00c3798118b077c9962faa46ede19ac8390f718dae66b0c9a32b834eb1f062887d2afe845ed0dd7478dba86a836d83646f8eed61e323b64e12fe4ef3c261de388deddabeea96a13a601b6f2a37344b26fae8eb3ee06a5da9b16083a113846c2c1d59b205d6497976e07b727d9ea43adf782a67d379794217591a9bc52c09e8c76164af2cfbb866ce82a357b478746775f8a91d06668e2f5f730792e3eabc2cdb20e710c89997010f4d108e572c6af4b65721606d440378f51c0f102edc8c4d3253fcd43e6eb585770d7fa53523a4043024d49418f4d22b2bdd4caffb25d503f86e701ef4e5ad860681bec854aea3dd71aaf26ea36c1af8a0379dcf9ba875f3db7a15ba50ab26961442423cddefbbbed69cd2f71b5eb43e50c58bc93718854d0ac08a3824592936a5f63112f3333ab6bfe2b1730afaee874aecd103d18efcae5155ae22cfc77fd3c6f479b72f0a7d8972ddb68704df40514eec6f7b15ebf75a95748a7d49e2ce40abb0c9d7050f220d36255142390734c95e30b83a83b09c4b007f7380830f3ef9ab0d2c5eed3d0da8ca25ffd3bf2c3cbcdd8eb46625834ecdf456341bbc0a3885b507aa0e82aeae48b3e272b2123eb7634c57ba7873d066e0a3f4fbc8dc8fa276908a5176a1cf176aa44f37197b47552c1ead26d1f62e418ecf4f4401f4ce36d8e81159983c443baafe0e6922670580818a1944a9f082ced0cd851742781802be127f53b0fd38a99a116b895b2e0e2432c0b85f858d831a95354b03f6e35d3097868858c67ccc346e00a0547405f69ee80adcf5417e65a5d00c5f44005ac5cd3df710143d8e9f083454a0c600ec61c2fc3e64f7c1ae99171d53a8954527e077d907595d9cb61a125dfc736265c73353faddef88efaa40777f5e80a49b30f0e5b3d44285c83cded7f7b04eed1482cd7515c84947383cb9ed61203c827e64085b161fa20a98eb66429bb5450f616e124ec6df8c192e22cdb9ad9ea76d6548e17e489459ae98a6ac17f08e7d4b399e8e1c56eb5b160446f9bf0ef74a8d68aa27c5dd1bbf12cd9400cd54f90e51815498f3935390329a5eaa26d3566fe412c10a340d96e35d91b4d01a68de82c16b7f4c277591c83e3faf3164c8cf128727ce0cf9abd3e0674d328bb461e2685eeed4f8f8905226579d52a0d4c377d6145625e820f09856fc50d60bc7329f0259c8f480c97db49e2071198ab63a4ef8f2a6e1ecdaf2f5aacb10c95666973334153eea540124a85231e4b3f30ac546be4adbe883069b8ed30f6885310521e4395e24d15f999b224a459d71d74c422ef99b80fdec94488ba156a450235f54a04d60dfcba8c83ea92f4aa85eaa2c09db6dee426d5201bb72400e123fbcb7fc4a116a76272be2ff5a9346b22bc04bef98b08090971733c0baa6cf15a9f333b70228e671efe975a3f8011a648d6fc0e5703cd1985454394c66ff640a28fabeac492b56c872aa2336f8b8e76aa84e6d0c67131da108a4d67511ade50f9500d02da2526ec5de263d11a3154e1f5f4c72fb68468546c374b3a7b1b2a66465603e6fa18bbeaacdc9e73843cb316ce99e75725cacd58e56d9c0bf65b8767a192c2e475462738c96a5b3bfc3cdd2d9dadcdff6f903060e1a1c222d3c4b5f696a8c909ba2b9bcc1dfe2e7f20409131d343d4f7b8185a3afb6bfdaeff10815429394a2b8caeff4fe0000000000000000152c3d4801fd210500af705da56aeae999375173f9f5ee773bb1a36e55321955aabdffc2233cc94a0cf6e997bc50433b2cb927c01dd752207504e26786826128a7830068ad9c34ec6be03a9574aa607b031778034add4f2ced9b1b8fbcb19ff197a99b59046566439a8588ec5ec3be960bac1f49a0d41bb8e062eff1cf3492333c6aae6630e89e7ea3044712314ba84de9ecfae7415100855981081241d5ba8f2e52227281a8001f3abaefcbe35d32bc76dffd354bd08eb241528f7981f4fe1bec1d6566273ba3a6d26412fcb068a7f009094ff9bd9e4ef3469d31117b34e7b23e1416435c7b1bff016f45d75c308aa381e92fb280cd7dc684aa7cfbcdb793eac098cc9f23ecf0c7c75936371b2816e07a7ca85ae86888aa83156d73c73119cdc493ecdce55c85d169013c1bfc92fd7259aa1fabd2b4756a3b7ad63487a450c1166395394922f11080273312484c6c08d65b6d86035a81823a505b8807db1c5081a6caec2f72139791f6072d1a2acd20dcbb8624713e629f718b829971404962c89165c2d0080eec2d8a100dffc23e4983a48f0a852b368cb614acaa0d30d0c42186e6c84848477b29638141eda42f25fe6db653a50e07a7d9e912064aacc30d0e963400fdff6baee4ba21d2a776897bd551864ac4c0224b1d659134556ac66707bc778c525dfcc6e0f27cb6479dd0083acd2ced6aa1a7ee4b0b778c72cd30a11ce90c5ff49f8af053f4c1e72374468c6219834fa96f8d18a6c56565532984f7e8f2962809bc08da73a514640e04e65f25b63855b684242793db9e8b2b50e24a500b2ff2b66db22d808f84782622b33dae8461d63a121ba16a0a34bf155e2d894c211b74a24c0a7241d45498c837529a58d4a9f95c105636598cd35a89ab3f59500f983ac3bb37c7b5037e0e3e6e2fbcfd7c34c5510a4d741a7f809dd2158fdc0c62c9e2c1b5c038dda0c8c04ed1c105efb319d308f014f264ebbe261414a09ca5330764acf841ec884cb2934282d0d892f64780ce429ced74560fb78c5e11d419794768e5a5e1385a1f80e53020805992c9560d0cb3398918f25cc3565a92b8c02ab75fcd8ffb86f250ac579b4dc2a4488729ee3f53faa27ed8ca057782cdc2e63e6dee04dd2849521a5d89d7f8fd8c649ee6dd3483220bd587d5dc0396f81e2d994aa10e317ccab8ca50c1c084e700ae560003ae50e5075ee8a84f8dd215d78191a4dc0eae2877b3de6ec2af36c3bb40820c543832fbc91a3bed9fafd2a1f8220c8652e1199b298aa21063e18958945848943708f71e72a167cab8f5c112e68393f5e39a5f0e515fdbacd3192d08d23329b08ef857f555a5ee9a67e2019abfbc92a940c58f91461ebd7698a9794c388c5cf0b0661a8623a2d3b8c411d1da77d511e35541e3663993f9aac035df41bd0dd32dcbbc44ff681f5d98e1ac82d443a87962192c045d5210d9159bce23161e16fcea2f98af0a3353d0ffc25712f53fa68f9855049b0a359ee026b982838d619a00b5b9121c48ad6d8226749fe7b051fc0cf974a990b3c9a8e01b3ab942340b85e5a464109f40a326f935b15b0d01d9d00851d436ca16e4b396be1bfc949655b19dad4225ddada05a61c3843324466f7a651960672f320a1f5236f448bcaa23e06635d9dcd6199b7ed6310cb50154d20f8cfa0e4686f97cf5d855a5ea2e715ac34128a94148c22b56c69d0b02c1f1bea1c5d2b863a841a1b26d90ba8c390da6ea41efaa790fb749aff9e319c3a2471224b945edcf731bfe8554d9bcfc81d1162003bb78e73b603f359704f826b99e13cfa47291ffe053f6a161d92f6bd7d87ac81ad44c4c4466ddbc99fe2e10f866af4c957ff5f3a15a82c370000000",
  "txid": "2c41c6d855fde8b3df7a024b5669b5888748b9a0b708ed70bf52dbba49c2b0a9",
  "hash": "9e0dd99f71c24e47806bb0b1c5aaae23ec1f2e6baa7353a40b558ffc5f4c4aed",
  "size": 5085,
  "vsize": 2278,
  "version": 1,
  "locktime": 112,
  "vin": [
    {
      "txid": "26ccbed02b7dd2741fb3b3cb3008370aa2177b1d772f116688796edc8cf511f2",
      "vout": 0,
      "scriptSig": {
        "asm": "",
        "hex": ""
      },
      "txinwitness": [
        "8629422f5aeef05e37b9be1e5f7c704d500221a7a2efcea07e673992d3add1541b54ba2522f866a5d93dff2238e50a6ba64463fc47b1bb84bdafb9a99e871e91101286a228b582cc398f195a496fb4406fb16ebf14ab1d0ab72e2521478f13a1d1c8a04e2b17fbaf282de01eee689d49465d282ab50278188be29b6d6ef072b87a52f7c64e5c69730b18780d1b090a6b643392147d6e79524d36a4480c7c52466c71631a9c874376e832953a12012fc664d3790792f099dd5f9fd857b11a6a0f89e0423182559a163b350911ca2658373b3fb9312b379e1a0b841a9f87b4cabbe875f0daf9c6af8e01ffccfc4c27b8c9fbc6fac132c4c26214c333669657e54ea2ab3e633e9f37600cdb80c3f3581cd043389af9c84f0c0734e10dc0cc62605d5d2348fef7bd85e01bfaf1a5fdd46d3a4fb43f9802b689d1171ecc55a97e9970a4e7f9bc2e7f82753faa818b79c9307013a320dec8c8f79bb8719b702e01ac78bcdf9e885e21312ae43b2cca585489d19d26a07fc579f241cba4dd685d0a6d3734075efd033c21870cff99093a377671bfcb7051a9ced4d0895806941889eb1226da5b2d60b9a156131d514007c5072636366527aae9499a2c21a944e1b4827c62c776da9974cbcfc0fbc253d851d49d25411615052d7f1d733c9d7a6dbc4cf2e4c319163ff24a7fa5d96ed098853ab28c2d0605c006c9c49bf8302198ab66cdce988fa2032e4782e46eac8935622d55c8eae4b984281836bfef86214849de139738b4f9660adc712f822d0fd8039d73039063cd18a3af556094a9471e415b2aeac1d597b86dc85f4566cdf9c3648cc244745b1b45c6ad0ae647e660500c1bf167780a9bec79c15a78d62226004ec390c349db6ab9b52be8dea0d421db054ca7d120ceaeb7addd51765836eaa71fa05d296f38a72dbf41c69fb40832f86af39ef7d88eed4d940952c8c68c4c62e39f3aec6c7a2bd307a129150cbda97851dc25fc5a4c68aefc5599e328c6305755a2fed8d467a195cd8b6759ea1af316c0818c8c030b3967b15ca6a2f175c76850be4d02f03fe229decbdb8c503738fc148b8602b8b3c9533680cf461db4dd26b215738d604835b7b043eb179cb6c171212650e929beeba3feef0cab06041f7e3d09c4c6079b97b92b272025810917de6b4b1bbeb1a85f442a1140df4e8cffc434dcccaeb1cdbfe814452efd330602b614ce08e9aba2e9dec63ca107d57ee37cb008aebb4dc6e08d53f459953f205a224219374f35a56b0ad659854de78721938ed8a2bdf4e924595ed77371dcf237fe21960816e3884b55c8b532f4b61c95677eb02dabb719b2862675030a25a53295af82d68fe9ce41bdf8c4f6395188657af1e55177ea96be92b3fb57d793299a8daee8ec56a844f05f4657a6fd93e3676d05c1b508a9e63ece4e54e1ce3656db1e0d525f17ee1d75be8476aa9d703badedda68d02aeb3d34efda9acb7d803bc49dc19c63501a8ae9c3b281dc39420fef6958265b2da1b47a848e09587f7f8eba4dc106bc39a3bf863bcc5d2d25f6bbd105f7e8f3e24572554bb6b259a3922f2bbc534a51df2d98dc8f4ef903f79577fd4bb592d3b25b77b640ad983a87aed198b48123c96b69955de0b7d23f905ea09554a8de8167551c8803fdc120a4e69e5507d7d6b16edc7ff30592cf07e308f70b3b37e1619998de557a00c3798118b077c9962faa46ede19ac8390f718dae66b0c9a32b834eb1f062887d2afe845ed0dd7478dba86a836d83646f8eed61e323b64e12fe4ef3c261de388deddabeea96a13a601b6f2a37344b26fae8eb3ee06a5da9b16083a113846c2c1d59b205d6497976e07b727d9ea43adf782a67d379794217591a9bc52c09e8c76164af2cfbb866ce82a357b478746775f8a91d06668e2f5f730792e3eabc2cdb20e710c89997010f4d108e572c6af4b65721606d440378f51c0f102edc8c4d3253fcd43e6eb585770d7fa53523a4043024d49418f4d22b2bdd4caffb25d503f86e701ef4e5ad860681bec854aea3dd71aaf26ea36c1af8a0379dcf9ba875f3db7a15ba50ab26961442423cddefbbbed69cd2f71b5eb43e50c58bc93718854d0ac08a3824592936a5f63112f3333ab6bfe2b1730afaee874aecd103d18efcae5155ae22cfc77fd3c6f479b72f0a7d8972ddb68704df40514eec6f7b15ebf75a95748a7d49e2ce40abb0c9d7050f220d36255142390734c95e30b83a83b09c4b007f7380830f3ef9ab0d2c5eed3d0da8ca25ffd3bf2c3cbcdd8eb46625834ecdf456341bbc0a3885b507aa0e82aeae48b3e272b2123eb7634c57ba7873d066e0a3f4fbc8dc8fa276908a5176a1cf176aa44f37197b47552c1ead26d1f62e418ecf4f4401f4ce36d8e81159983c443baafe0e6922670580818a1944a9f082ced0cd851742781802be127f53b0fd38a99a116b895b2e0e2432c0b85f858d831a95354b03f6e35d3097868858c67ccc346e00a0547405f69ee80adcf5417e65a5d00c5f44005ac5cd3df710143d8e9f083454a0c600ec61c2fc3e64f7c1ae99171d53a8954527e077d907595d9cb61a125dfc736265c73353faddef88efaa40777f5e80a49b30f0e5b3d44285c83cded7f7b04eed1482cd7515c84947383cb9ed61203c827e64085b161fa20a98eb66429bb5450f616e124ec6df8c192e22cdb9ad9ea76d6548e17e489459ae98a6ac17f08e7d4b399e8e1c56eb5b160446f9bf0ef74a8d68aa27c5dd1bbf12cd9400cd54f90e51815498f3935390329a5eaa26d3566fe412c10a340d96e35d91b4d01a68de82c16b7f4c277591c83e3faf3164c8cf128727ce0cf9abd3e0674d328bb461e2685eeed4f8f8905226579d52a0d4c377d6145625e820f09856fc50d60bc7329f0259c8f480c97db49e2071198ab63a4ef8f2a6e1ecdaf2f5aacb10c95666973334153eea540124a85231e4b3f30ac546be4adbe883069b8ed30f6885310521e4395e24d15f999b224a459d71d74c422ef99b80fdec94488ba156a450235f54a04d60dfcba8c83ea92f4aa85eaa2c09db6dee426d5201bb72400e123fbcb7fc4a116a76272be2ff5a9346b22bc04bef98b08090971733c0baa6cf15a9f333b70228e671efe975a3f8011a648d6fc0e5703cd1985454394c66ff640a28fabeac492b56c872aa2336f8b8e76aa84e6d0c67131da108a4d67511ade50f9500d02da2526ec5de263d11a3154e1f5f4c72fb68468546c374b3a7b1b2a66465603e6fa18bbeaacdc9e73843cb316ce99e75725cacd58e56d9c0bf65b8767a192c2e475462738c96a5b3bfc3cdd2d9dadcdff6f903060e1a1c222d3c4b5f696a8c909ba2b9bcc1dfe2e7f20409131d343d4f7b8185a3afb6bfdaeff10815429394a2b8caeff4fe0000000000000000152c3d4801",
        "00af705da56aeae999375173f9f5ee773bb1a36e55321955aabdffc2233cc94a0cf6e997bc50433b2cb927c01dd752207504e26786826128a7830068ad9c34ec6be03a9574aa607b031778034add4f2ced9b1b8fbcb19ff197a99b59046566439a8588ec5ec3be960bac1f49a0d41bb8e062eff1cf3492333c6aae6630e89e7ea3044712314ba84de9ecfae7415100855981081241d5ba8f2e52227281a8001f3abaefcbe35d32bc76dffd354bd08eb241528f7981f4fe1bec1d6566273ba3a6d26412fcb068a7f009094ff9bd9e4ef3469d31117b34e7b23e1416435c7b1bff016f45d75c308aa381e92fb280cd7dc684aa7cfbcdb793eac098cc9f23ecf0c7c75936371b2816e07a7ca85ae86888aa83156d73c73119cdc493ecdce55c85d169013c1bfc92fd7259aa1fabd2b4756a3b7ad63487a450c1166395394922f11080273312484c6c08d65b6d86035a81823a505b8807db1c5081a6caec2f72139791f6072d1a2acd20dcbb8624713e629f718b829971404962c89165c2d0080eec2d8a100dffc23e4983a48f0a852b368cb614acaa0d30d0c42186e6c84848477b29638141eda42f25fe6db653a50e07a7d9e912064aacc30d0e963400fdff6baee4ba21d2a776897bd551864ac4c0224b1d659134556ac66707bc778c525dfcc6e0f27cb6479dd0083acd2ced6aa1a7ee4b0b778c72cd30a11ce90c5ff49f8af053f4c1e72374468c6219834fa96f8d18a6c56565532984f7e8f2962809bc08da73a514640e04e65f25b63855b684242793db9e8b2b50e24a500b2ff2b66db22d808f84782622b33dae8461d63a121ba16a0a34bf155e2d894c211b74a24c0a7241d45498c837529a58d4a9f95c105636598cd35a89ab3f59500f983ac3bb37c7b5037e0e3e6e2fbcfd7c34c5510a4d741a7f809dd2158fdc0c62c9e2c1b5c038dda0c8c04ed1c105efb319d308f014f264ebbe261414a09ca5330764acf841ec884cb2934282d0d892f64780ce429ced74560fb78c5e11d419794768e5a5e1385a1f80e53020805992c9560d0cb3398918f25cc3565a92b8c02ab75fcd8ffb86f250ac579b4dc2a4488729ee3f53faa27ed8ca057782cdc2e63e6dee04dd2849521a5d89d7f8fd8c649ee6dd3483220bd587d5dc0396f81e2d994aa10e317ccab8ca50c1c084e700ae560003ae50e5075ee8a84f8dd215d78191a4dc0eae2877b3de6ec2af36c3bb40820c543832fbc91a3bed9fafd2a1f8220c8652e1199b298aa21063e18958945848943708f71e72a167cab8f5c112e68393f5e39a5f0e515fdbacd3192d08d23329b08ef857f555a5ee9a67e2019abfbc92a940c58f91461ebd7698a9794c388c5cf0b0661a8623a2d3b8c411d1da77d511e35541e3663993f9aac035df41bd0dd32dcbbc44ff681f5d98e1ac82d443a87962192c045d5210d9159bce23161e16fcea2f98af0a3353d0ffc25712f53fa68f9855049b0a359ee026b982838d619a00b5b9121c48ad6d8226749fe7b051fc0cf974a990b3c9a8e01b3ab942340b85e5a464109f40a326f935b15b0d01d9d00851d436ca16e4b396be1bfc949655b19dad4225ddada05a61c3843324466f7a651960672f320a1f5236f448bcaa23e06635d9dcd6199b7ed6310cb50154d20f8cfa0e4686f97cf5d855a5ea2e715ac34128a94148c22b56c69d0b02c1f1bea1c5d2b863a841a1b26d90ba8c390da6ea41efaa790fb749aff9e319c3a2471224b945edcf731bfe8554d9bcfc81d1162003bb78e73b603f359704f826b99e13cfa47291ffe053f6a161d92f6bd7d87ac81ad44c4c4466ddbc99fe2e10f866af4c957ff5f3a15a82c3"
      ],
      "sequence": 4294967294
    }
  ],
  "vout": [
    {
      "value": 499987.7972,
      "n": 0,
      "scriptPubKey": {
        "asm": "1 03a690ea00c7db006a583cfd753725a477adfe6cea6bd005f7584cb81eefa6c4",
        "hex": "512003a690ea00c7db006a583cfd753725a477adfe6cea6bd005f7584cb81eefa6c4",
        "reqSigs": 1,
        "type": "witness_v1_scripthash",
        "addresses": [
          "3QJmnh"
        ]
      }
    },
    {
      "value": 1.0,
      "n": 1,
      "scriptPubKey": {
        "asm": "OP_RETURN b0d2cfb21e936551d26d130d29d03fcbc5f6cf713d922dfdaca79f8df103f714 b4f327ee9f69106f7e7c872e19cc8029847fb0c78738089ccb5ad509e02f6dad94d307cebf49304f5e5ca70e39eca009a45f90e7a71828bceb7af529c00f4d8df4b367aedf29502f3e3cc76e598cc069c43ff087c77848dc8b1a9549a06f2dedd493478eff09700f1e1ce74e79ace049e41fd0a7e75868fcab3ab569804f0dcd3473a76e1fe990effefc07ae994c00a904ff304707b8881c4bda558960afed2d1453874e3fc9b0cfdedc278eb96c208924df10672798a83c6bfa75a9408fcd0d7433e72e5fa9d0afbebc47eed90c40e944bf700747f8c85c0b9a15c920efad6d5413c70e7f89f08f9e9c67cef92c60c9649f502767d8e87c2bba35e900cf8d4db4f327ee9f69106f7e7c872e19cc8029847fb0c78738089ccb5ad509e02f6dad94d307cebf49304f5e5ca70e39eca009a45f90e7a71828bceb7af529c00f4d8df4b367aedf29502f3e3cc76e598cc069c43ff087c77848dc8b1a9549a06f2dedd493478eff09700f1e1ce74e79ace049e41fd0a7e75868fcab3ab569804f0dcd3473a76e1fe990effefc07ae994c00a904ff304707b8881c4bda558960afed2d1453874e3fc9b0cfdedc278eb96c208924df10672798a83c6bfa75a9408fcd0d7433e72e5fa9d0afbebc47eed90c40e944bf700747f8c85c0b9a15c920efad6d5413c70e7f89f08f9e9c67cef92c60c9649f502767d8e87c2bba35e900cf8d4db4f327ee9f69106f7e7c872e19cc8029847fb0c78738089ccb5ad509e02f6dad94d307cebf49304f5e5ca70e39eca009a45f90e7a71828bceb7af529c00f4d8df4b367aedf29502f3e3cc76e598cc069c43ff087c77848dc8b1a9549a06f2dedd493478eff09700f1e1ce74e79ace049e41fd0a7e75868fcab3ab569804f0dcd3473a76e1fe990effefc07ae994c00a904ff304707b8881c4bda558960afed2d1453874e3fc9b0cfdedc278eb96c208924df10672798a83c6bfa75a9408fcd0d7433e72e5fa9d0afbebc47eed90c40e944bf700747f8c85c0b9a15c920efad6d5413c70e7f89f08f9e9c67cef92c60c9649f502767d8e87c2bba35e900cf8d4db4f327ee9f69106f7e7c872e19cc8029847fb0c78738089ccb5ad509e02f6dad94d307cebf49304f5e5ca70e39eca009a45f90e7a71828bceb7af529c00f4d8df4b367aedf29502f3e3cc76e598cc069c43ff087c77848dc8b1a9549a06f2dedd493478eff09700f1e1ce74e79ace049e41fd0a7e75868fcab3ab569804f0dcd3473a76e1fe990effefc07ae994c00a904ff304707b8881c4bda558960afed2d1453874e3fc9b0cfdedc278eb96c208924df10672798a83c6bfa75a9408fcd0d7433e72e5fa9d0afbebc47eed90c40e944bf700747f8c85c0b9a15c920efad6d5413c70e7f89f08f9e9c67cef92c60c9649f502767d8e87c2bba35e900cf8d4db4f327ee9f69106f7e7c872e19cc8029847fb0c78738089ccb5ad509e02f6dad94d307cebf49304f5e5ca70e39eca009a45f90e7a71828bceb7af529c00f4d8df4b367aedf29502f3e3cc76e598cc069c43ff087c77848dc8b1a9549a06f2dedd493478eff09700f1e1ce74e79ace049e41fd0a7e75868fcab3ab569804f0dcd3473a76e1fe990effefc07ae994c00a9609e62e0c529146e97d9786525d9fdd6073ba17f422969ad553177856e29ce3c",
        "hex": "6a20b0d2cfb21e936551d26d130d29d03fcbc5f6cf713d922dfdaca79f8df103f7144db004b4f327ee9f69106f7e7c872e19cc8029847fb0c78738089ccb5ad509e02f6dad94d307cebf49304f5e5ca70e39eca009a45f90e7a71828bceb7af529c00f4d8df4b367aedf29502f3e3cc76e598cc069c43ff087c77848dc8b1a9549a06f2dedd493478eff09700f1e1ce74e79ace049e41fd0a7e75868fcab3ab569804f0dcd3473a76e1fe990effefc07ae994c00a904ff304707b8881c4bda558960afed2d1453874e3fc9b0cfdedc278eb96c208924df10672798a83c6bfa75a9408fcd0d7433e72e5fa9d0afbebc47eed90c40e944bf700747f8c85c0b9a15c920efad6d5413c70e7f89f08f9e9c67cef92c60c9649f502767d8e87c2bba35e900cf8d4db4f327ee9f69106f7e7c872e19cc8029847fb0c78738089ccb5ad509e02f6dad94d307cebf49304f5e5ca70e39eca009a45f90e7a71828bceb7af529c00f4d8df4b367aedf29502f3e3cc76e598cc069c43ff087c77848dc8b1a9549a06f2dedd493478eff09700f1e1ce74e79ace049e41fd0a7e75868fcab3ab569804f0dcd3473a76e1fe990effefc07ae994c00a904ff304707b8881c4bda558960afed2d1453874e3fc9b0cfdedc278eb96c208924df10672798a83c6bfa75a9408fcd0d7433e72e5fa9d0afbebc47eed90c40e944bf700747f8c85c0b9a15c920efad6d5413c70e7f89f08f9e9c67cef92c60c9649f502767d8e87c2bba35e900cf8d4db4f327ee9f69106f7e7c872e19cc8029847fb0c78738089ccb5ad509e02f6dad94d307cebf49304f5e5ca70e39eca009a45f90e7a71828bceb7af529c00f4d8df4b367aedf29502f3e3cc76e598cc069c43ff087c77848dc8b1a9549a06f2dedd493478eff09700f1e1ce74e79ace049e41fd0a7e75868fcab3ab569804f0dcd3473a76e1fe990effefc07ae994c00a904ff304707b8881c4bda558960afed2d1453874e3fc9b0cfdedc278eb96c208924df10672798a83c6bfa75a9408fcd0d7433e72e5fa9d0afbebc47eed90c40e944bf700747f8c85c0b9a15c920efad6d5413c70e7f89f08f9e9c67cef92c60c9649f502767d8e87c2bba35e900cf8d4db4f327ee9f69106f7e7c872e19cc8029847fb0c78738089ccb5ad509e02f6dad94d307cebf49304f5e5ca70e39eca009a45f90e7a71828bceb7af529c00f4d8df4b367aedf29502f3e3cc76e598cc069c43ff087c77848dc8b1a9549a06f2dedd493478eff09700f1e1ce74e79ace049e41fd0a7e75868fcab3ab569804f0dcd3473a76e1fe990effefc07ae994c00a904ff304707b8881c4bda558960afed2d1453874e3fc9b0cfdedc278eb96c208924df10672798a83c6bfa75a9408fcd0d7433e72e5fa9d0afbebc47eed90c40e944bf700747f8c85c0b9a15c920efad6d5413c70e7f89f08f9e9c67cef92c60c9649f502767d8e87c2bba35e900cf8d4db4f327ee9f69106f7e7c872e19cc8029847fb0c78738089ccb5ad509e02f6dad94d307cebf49304f5e5ca70e39eca009a45f90e7a71828bceb7af529c00f4d8df4b367aedf29502f3e3cc76e598cc069c43ff087c77848dc8b1a9549a06f2dedd493478eff09700f1e1ce74e79ace049e41fd0a7e75868fcab3ab569804f0dcd3473a76e1fe990effefc07ae994c00a9609e62e0c529146e97d9786525d9fdd6073ba17f422969ad553177856e29ce3c",
        "type": "nulldata"
      }
    }
  ],
  "blockhash": "0588000bb82f4b14ca9e4626330a5c84a7bb9e1c31fd2ade5c3732d80cc4fd85",
  "confirmations": 1,
  "time": 1764178356,
  "blocktime": 1764178356
}