{
  "hex": "01000000000101b0d1e1a2c6d3da93f780315896381e929e063fc1d347734835cb88b009729a030100000000feffffff02b0cd76d8782d0000225120266be4becc02d6a58d3c6feec9cc95f10de3f1ea67093ee1e78d4ff07cf6130d00e1f50500000000fdd5046a20e5de097b823909952f3b6d8211f652d361ddc023cf413b320e4ec19f499626154db00431ad350f3d9a4611afec813ddbd0ce8e5ef82ba59c7f20d51f2808e9c18fac00118d152f1dba66318fcca11dfbf0eeae7ed80b85bc5f00f53f0828c9e1af8c2071ed754f7dda0651efacc17d9b908ece1eb86be5dc3f60955f6848a981cfec4051cd556f5dfa2671cf8ce15dbbb0aeee3e984bc5fc1f40b57f486889a1efcc60b12db58fbd1ac6912f6c01bd5b504e0ede78ab251cffa0559fa88869410f2c80910d95af9d3ae6b10f4c219d7b706e2efe588b053cdf8075bf88a849612f0ca0f16df5cffd5a86d16f2c41fd1b100e4e9e38eb655cbfe015dfe8c829014f6cc0d14dd5efdd7aa6f14f0c61dd3b302e6ebe18cb457c9fc035ffc8e809216f4ce031ad350f3d9a4611afec813ddbd0ce8e5ef82ba59c7f20d51f2808e9c18fac00118d152f1dba66318fcca11dfbf0eeae7ed80b85bc5f00f53f0828c9e1af8c2071ed754f7dda0651efacc17d9b908ece1eb86be5dc3f60955f6848a981cfec4051cd556f5dfa2671cf8ce15dbbb0aeee3e984bc5fc1f40b57f486889a1efcc60b12db58fbd1ac6912f6c01bd5b504e0ede78ab251cffa0559fa88869410f2c80910d95af9d3ae6b10f4c219d7b706e2efe588b053cdf8075bf88a849612f0ca0f16df5cffd5a86d16f2c41fd1b100e4e9e38eb655cbfe015dfe8c829014f6cc0d14dd5efdd7aa6f14f0c61dd3b302e6ebe18cb457c9fc035ffc8e809216f4ce031ad350f3d9a4611afec813ddbd0ce8e5ef82ba59c7f20d51f2808e9c18fac00118d152f1dba66318fcca11dfbf0eeae7ed80b85bc5f00f53f0828c9e1af8c2071ed754f7dda0651efacc17d9b908ece1eb86be5dc3f60955f6848a981cfec4051cd556f5dfa2671cf8ce15dbbb0aeee3e984bc5fc1f40b57f486889a1efcc60b12db58fbd1ac6912f6c01bd5b504e0ede78ab251cffa0559fa88869410f2c80910d95af9d3ae6b10f4c219d7b706e2efe588b053cdf8075bf88a849612f0ca0f16df5cffd5a86d16f2c41fd1b100e4e9e38eb655cbfe015dfe8c829014f6cc0d14dd5efdd7aa6f14f0c61dd3b302e6ebe18cb457c9fc035ffc8e809216f4ce031ad350f3d9a4611afec813ddbd0ce8e5ef82ba59c7f20d51f2808e9c18fac00118d152f1dba66318fcca11dfbf0eeae7ed80b85bc5f00f53f0828c9e1af8c2071ed754f7dda0651efacc17d9b908ece1eb86be5dc3f60955f6848a981cfec4051cd556f5dfa2671cf8ce15dbbb0aeee3e984bc5fc1f40b57f486889a1efcc60b12db58fbd1ac6912f6c01bd5b504e0ede78ab251cffa0559fa88869410f2c80910d95af9d3ae6b10f4c219d7b706e2efe588b053cdf8075bf88a849612f0ca0f16df5cffd5a86d16f2c41fd1b100e4e9e38eb655cbfe015dfe8c829014f6cc0d14dd5efdd7aa6f14f0c61dd3b302e6ebe18cb457c9fc035ffc8e809216f4ce031ad350f3d9a4611afec813ddbd0ce8e5ef82ba59c7f20d51f2808e9c18fac00118d152f1dba66318fcca11dfbf0eeae7ed80b85bc5f00f53f0828c9e1af8c2071ed754f7dda0651efacc17d9b908ece1eb86be5dc3f60955f6848a981cfec4051cd556f5dfa2671cf8ce15dbbb0aeee3e984bc5fc1f40b57f486889a1efcc60b12db58fbd1ac6912f6c01bd5b504e0e5a078b239137aecfc9ebfd473b4c7f79fc4e1f562e533a4b1208160c52b68c0b02fd7509051e6a1215a17f6ebbcbaf4be7eff08e2f70dcdfa48f1bcb26914dc57dc21f74116f30bd193537c67d2c29f39f7b75353fe75b7a0a654333742be9cf255dce85c4c72f568caebb07ac98857d328f2b433d18a1a2128150f634516c4aa52ed87b05ba5750ba0d1ab217f372d5dbe3c10d52057b0dbad9209c8d90b318ed2a9c4a98e005818d1fb834c931d532d6daeeb97cbb5971ca80e20e07012f40a4d986a66b29627d5ed5ffa07498249259706984df75a943d870f29c85758c06dba13ab9f817053f44f37fe574b3c27cf7e4aa18a03e834d16a7809b36a6780018eb9488faee7fa9f8050c1ef887c0760b9a57a5f5661e15c86ce7c330107afa9a8274886dfeaefd688d42b79930701ce81d255b9bcc1a52791b0aaea73979cb6326cb65c441cc21a2efd9158c8c16f6ad4e40d634f7aa7368e4c4f870d8b3608916a87eb4e08a88125c1304269eaf37b89ef85845c06f4179d28eb53926dc74b927260ce7752503273b15ce53312e272186b2094c62d8dd9e60960586b9184575a7719481b4012640b95133920a2c7e7651a9610df99e843191f0679e339e9e9452a8dcff9097de722c56b3a41a640008668ca1aaf3955bc9c72c5779a85cc50a5eee9e8b2db018826470adf1ffffc32fc0abd3991c6a3ea739a730112217dec865e73cdea1ec7a112a627dbfd78225929b4d41e640d0737a5396773d18a3b721b5364c99338c691709a50272f400cb290e56c99c126c3d1b7b710c5ec1fc5412f27d76de811fb98336057844d3fcb0a87947ca02258102cc90bc7cdd960bfc8dd8a3826501700b91800a3929b82a17b904c0199d5882b5b7ba5fc52cc98d429f52c196a3af35e053200d201d8a608b55a35cd7c895ff6786eb3dd23bbb3ebda649a6cf6f2e59d8b772b8116e13fcd2fa75d28e2f92edadc1871ac7566dc71f1edaf114f99fb94cc974e6382ce38cf62d12887a5d1342a89833c24a048856c57ce8ca72f82d752ac63542bc47f013d95dc8d68285953173a3a9cd9adf118a966729597ea0ca4459580428f63268666f43232b6a09698f821885fb54782338d3a344248275f0c6532d28719845d4292f495e5de1b286d01420ef2a2b6b3eaf9561b09db478774c88f32610ca43886759acae2feff7425203e6f9cf80bdb7c750046d12ed9ba01d11932616167c0d06fb8436023926b027f7cad6f9fe1db53293e4ca7e6440933753bb6717bfd7d5748de90e5bd4631857ce346f243d360886361c25546ea4a48e8996103832beaa2f5c01a9d63eaacb76a5bf0ef12f9dabd609c472213b762c9ce2c5f30ee098690481960ba0e09750024675bc27ce79c2719fa087c27fa8f2bcd34ccd116c74b4efd9bf6475886d721842bae22322256941e0f732a5a8c657f025c5eb0bbe68e12c18beb1115555745e2de9f3ecc1928b02bb5ca6d8997a2466a43962e571bdb014e070202ef3ab929cd14dfd196e5863f6de8e86f51edb803b3fd6a73a0b6cd54b68e0a3fa201bf66d7916b4392564e8763ea65ad0364ec310c30879b45616ebe90f8756b5f59b8b27bc5e94c86abf27972809cdc3cca99f9a64ba1c71aa4554ad85a26710e90a889a43c5917257d03e52ba73e3a61133c126db7a9b060204e6e9e5d6078976719c0038fd0dd2ade93aa8893f27bceb39020a23c2ad93e896f17c9199400bf5455076a0be3b5ab0b823ecf1a3db0443ed5ccf01894d05e9e0313c836674b2e58674602304c63da50afcdec6fb683fbe5dad3d256461c5c2defaddb07061e57c343795ddd1fd789dddea3ae67d9218bbd74762d8deb2a13587766bd6213ade794713e536e77bee5192e00feea2ca6e74d027df20e445f855ba367945c81c98701f707d5e44923e16dcff61e4be8d38943672ad3805a710f0ab83949addb7de9a24621c30099d319fa19117f2711c36df9441902b265bb07fbe1c5224fcc9e0a6b4abf74cf609556fe32a8e382674fa4ef8c6880fceea9b8c0fd81595008d97426afdb1c3189fc6a642c8c85a884e61112d4545f9383dba4a5ac66ae66814b2d84210111eb9c602d0db9c796648794412e212c3f7431a8e666d588d85dca5b505e4d123179f9e658ac3f2cd72cec000cc8ba2cf7b90560eac9baaa26db5feeb3c68b6b63cb4dab68bc89c26fc8e76db0ddf3113ddec3bca493beed1626fd5fa8a91a169cd3db9c7214f01f7d4d0b07524427f34b4c5722b42be2258bc3d1f1a5b80d8fbdc142711022a6d2dd48a5f2ea2f7fc09a9323857385c8a74e83ee4eee9f2baa8c66e71d0925c6b4d5ac79248a7c3e375df3a5c32294d61a5c2596efd617d4eda121aa9ec22757707fd4fe3ca3d675c09e9c693bc3c9145dd98293f6f284cd1680cd73d530648d38c31716fe01c26d32b6415b75407413ae2a2040c2df50d91648db30cef86a282de373b7459f84c735129d7813ca9b0c84b4815be5969a7dcc48b5d0333b6f8c9ff1d02debdda33eee6ffb20ce908a25a38b7c11b7d73666c969a741bd59441fbc0babf0470b66f0f37f182b952dbb7dd7a599e0703d375afa6e14d35737835f2d555bf6c40e51393c3bfe836158de5dc7e6812077f18d24bae5460e584967fc9eb4f20a6271fcfd205e67210f82a04d1296bf0fcc6c97d2e49445d0c4c7d6423e00f8c91668b048ed1b8398c9a121dd201e241d52d6f20e752dca602f094b3b79075057e22ecf514f56ed5ebfcf887731a21c8a1a4b989c45e37d9367d426af19e082d58d78aad4e8e20a0694636472889e6841a31155904cc37b29fa84ff63f548c04b2312c342ea5beb5a12437f3f756099667e01c00f7e9fd6ef071471465c5c6ce3b01d755c456ab72c6f3dc07eae26b24cd97b43bbe5a2b3a5a263e6f3c814864e39723567295011e9cfda6df851f49ae435b476774c9e8a527831efdb5a322a6337c09f09c12066c6f3994f44d726778f4cdecf7a0b6a04e8530af48d8ce033256fe7ff60633d06868380ea993c0052c652d662590478c92168875221e2b6e2d8c3d5855ac86ec6661feb757a6272c37ecbecde8651c8e72be4acce4fd999cc5eef1c60a8f583d09d6589f2c500c591c552c3e0e66db125a83361b5e2f5d11cce14d64fcbd1778a42a61c29baa0ca35c86d076b7e35e372593521c80e782f2f9f6497548cba4751f8ef69aa57a23412dffc4029cb04d35467a2172efdca8189eee87809cc467b9edf44fdacecccc4b36aeecd3e4243506c5c042726a24f9f1b3d17f16d2d80889992e828319b1ee6ee684072a1eaad7013d26d2f46966880c7d53a4670e1a3f63757d8e90989ca2a6bcf2081e1f2f333b474e505a5f667aa6b9c2c3cce4ff29303e4d5b5c7e8396dcdde3e7f4fafe19284a4d5070909d9ea4c1c5d7dee1f300000000000000000000000000000e22324201fd210500ebf05b613781b5076af1304d6d0b9713456afcbd6e04ade00153e66848de1029ea7e8009fe34e4ab68686a0c6d069beff9ec9340312a46d469961d08561d74fb1cd1c94a53e1a825ce37bd60fcce17f70605a757f5483f89ba9b1fa8dc5ab88d4c68495ec37baf760d948a96e10575537bd2f697406eb0cb667a399cda633c2789121a35b128d23257543b81d071a2cd621f675693cf591bb305621c8caa17d3a23da9b68a68138d19fa450f4ca47069ca311d32eb7e22f58d342e47db7943aed065047d30b9003cc7b710f1b9e1eaf22c2d121cd6986a013b2c72d70c5532fbd48f1dad1f1b8d7c99592b291099fbe33ee4c76057e291eac1f3113db426b9a58d816c51217f57590590a1168d5b98cb06c2a7e5a8118dbb2f3069e00790e1cc928d769ecbb8e01751db451a930009e27f1a922c02b513d845261edc619adb8efcd0f330faef8267fb264e28ab5e79960973ca505d8b67dfd19261da441a23c73cfe81771f49d3068529377bfedce2ce83e412bbf895cd4ad7f98563abed738ea30418e1b4a388daccd4a78d1caaeee3f38be8e483883935e2d4f4fcd66e5727649a7e6edec7757e42dbd6cb1e61433c00c2a55a1db47958b56b9c506f0cf953f89cedaef793432718b257bcf914260a93b9b4d57b474186fcf448f3312dac5d9841b1da008d96aa7662363e5f40c0107bf3ac53b3a44af62b35677b893599d37e906db9402303e6a42ea58e8c46897081b2506d2229950bf9ac91c930e4f7c9ed8edaa12e674324f838a91af095fa2bd7b8b1f75f5646b1412d88477055c2bc3ccb88d9a121cb87f3c6d3d023d6039eac97045be511a2f917cc20ef9e349701b6585e0b0929a58475cf4f1656e12bc6e6844a131da268e7adda315291ea03d915acefbb532d4725b64c30cd54f88fd7da272450ff997926abe59a5cabd2fb9293074989c45d174fe76c6e0f0dc7673b5232c1aebebee9ad11fb47df6a15b78e212f858a8ca26501b141989eee8cf09335b8113c70797711883e0c7fe5f00303350987b45474f6c88eacf4814cea954122c6a4d021a5b0130b47eb6ebe113d0c90bb855693659e161a4f5a41f5866c3f8d7e48135c75e3e99aca0beeba9cac99c0401603bda368f96cf3677d9696517aa5d8d51f744e787304496590f1eb2450d0a85312b8d849f8ab762cd2dce214f4ab2a020edf20557d9caac231dc81933e2c317a01bbe8552753b4524ec5dbb74db642951fc4a11cf08d4251a9fee5416389b20e980f2fca8d84e3b0aab24af547a6fccacb707dfcceb29276f0ef1f6275a79a5ef321ad45768e2c2f806bfe349a931c927854c62a4e70d27814bec00a4199a35bea1fb6b57884a428b8366c64ce3f6dd5f0b9a5d6dc2fd9f40a53c5a0ec4545638acce12eee9d7d9547d44065ac055f240968624645447e3acc5abdf3222db00a0956eac300a0d3937bad96446aa869ce840be49bb0bab44a6578effd8158ad4e03475172729a6ec70bee116c9d1e32a4593e10fa1dcf37fdddb795563eefba1f05dc4abbabf4be94eff4feae03152f9b0661d6c0c92693be31dfe08d515b132b19883c599f749cbe5855236ee2460385bd0dbc2f6540c9bb8a9c757b617f4bfa0f363c7101bc711cfde2ecb39c93011889f114adf25a0c439defbfff5221420a57f7b992f787596d307cfa3410b627f076ba14c31c3bd0ee629f72c43c219604dc0340a13f8127bb4c3fb64dd60beeed24859ecc684a9a2065d3c83b5a47b6b90dcbc36c6e38c4552439f69cb778a1695cdf5e00c6d08cb7ee1decf94b0dd03669c11900549f92affd1bdf62a7b8d143e0f4c36e6ec9879c07f7c76ba07f000000",
  "txid": "2bf4c8b75349a75e4264ddd5d43903ac98061ad6d8879e2653fc20e8014da8ac",
  "hash": "b8e0b22199de51404d2444782d254706737ebd60ee7e686aee334b63ed4e9001",
  "size": 5085,
  "vsize": 2278,
  "version": 1,
  "locktime": 127,
  "vin": [
    {
      "txid": "039a7209b088cb35487347d3c13f069e921e3896583180f793dad3c6a2e1d1b0",
      "vout": 1,
      "scriptSig": {
        "asm": "",
        "hex": ""
      },
      "txinwitness": [
        "051e6a1215a17f6ebbcbaf4be7eff08e2f70dcdfa48f1bcb26914dc57dc21f74116f30bd193537c67d2c29f39f7b75353fe75b7a0a654333742be9cf255dce85c4c72f568caebb07ac98857d328f2b433d18a1a2128150f634516c4aa52ed87b05ba5750ba0d1ab217f372d5dbe3c10d52057b0dbad9209c8d90b318ed2a9c4a98e005818d1fb834c931d532d6daeeb97cbb5971ca80e20e07012f40a4d986a66b29627d5ed5ffa07498249259706984df75a943d870f29c85758c06dba13ab9f817053f44f37fe574b3c27cf7e4aa18a03e834d16a7809b36a6780018eb9488faee7fa9f8050c1ef887c0760b9a57a5f5661e15c86ce7c330107afa9a8274886dfeaefd688d42b79930701ce81d255b9bcc1a52791b0aaea73979cb6326cb65c441cc21a2efd9158c8c16f6ad4e40d634f7aa7368e4c4f870d8b3608916a87eb4e08a88125c1304269eaf37b89ef85845c06f4179d28eb53926dc74b927260ce7752503273b15ce53312e272186b2094c62d8dd9e60960586b9184575a7719481b4012640b95133920a2c7e7651a9610df99e843191f0679e339e9e9452a8dcff9097de722c56b3a41a640008668ca1aaf3955bc9c72c5779a85cc50a5eee9e8b2db018826470adf1ffffc32fc0abd3991c6a3ea739a730112217dec865e73cdea1ec7a112a627dbfd78225929b4d41e640d0737a5396773d18a3b721b5364c99338c691709a50272f400cb290e56c99c126c3d1b7b710c5ec1fc5412f27d76de811fb98336057844d3fcb0a87947ca02258102cc90bc7cdd960bfc8dd8a3826501700b91800a3929b82a17b904c0199d5882b5b7ba5fc52cc98d429f52c196a3af35e053200d201d8a608b55a35cd7c895ff6786eb3dd23bbb3ebda649a6cf6f2e59d8b772b8116e13fcd2fa75d28e2f92edadc1871ac7566dc71f1edaf114f99fb94cc974e6382ce38cf62d12887a5d1342a89833c24a048856c57ce8ca72f82d752ac63542bc47f013d95dc8d68285953173a3a9cd9adf118a966729597ea0ca4459580428f63268666f43232b6a09698f821885fb54782338d3a344248275f0c6532d28719845d4292f495e5de1b286d01420ef2a2b6b3eaf9561b09db478774c88f32610ca43886759acae2feff7425203e6f9cf80bdb7c750046d12ed9ba01d11932616167c0d06fb8436023926b027f7cad6f9fe1db53293e4ca7e6440933753bb6717bfd7d5748de90e5bd4631857ce346f243d360886361c25546ea4a48e8996103832beaa2f5c01a9d63eaacb76a5bf0ef12f9dabd609c472213b762c9ce2c5f30ee098690481960ba0e09750024675bc27ce79c2719fa087c27fa8f2bcd34ccd116c74b4efd9bf6475886d721842bae22322256941e0f732a5a8c657f025c5eb0bbe68e12c18beb1115555745e2de9f3ecc1928b02bb5ca6d8997a2466a43962e571bdb014e070202ef3ab929cd14dfd196e5863f6de8e86f51edb803b3fd6a73a0b6cd54b68e0a3fa201bf66d7916b4392564e8763ea65ad0364ec310c30879b45616ebe90f8756b5f59b8b27bc5e94c86abf27972809cdc3cca99f9a64ba1c71aa4554ad85a26710e90a889a43c5917257d03e52ba73e3a61133c126db7a9b060204e6e9e5d6078976719c0038fd0dd2ade93aa8893f27bceb39020a23c2ad93e896f17c9199400bf5455076a0be3b5ab0b823ecf1a3db0443ed5ccf01894d05e9e0313c836674b2e58674602304c63da50afcdec6fb683fbe5dad3d256461c5c2defaddb07061e57c343795ddd1fd789dddea3ae67d9218bbd74762d8deb2a13587766bd6213ade794713e536e77bee5192e00feea2ca6e74d027df20e445f855ba367945c81c98701f707d5e44923e16dcff61e4be8d38943672ad3805a710f0ab83949addb7de9a24621c30099d319fa19117f2711c36df9441902b265bb07fbe1c5224fcc9e0a6b4abf74cf609556fe32a8e382674fa4ef8c6880fceea9b8c0fd81595008d97426afdb1c3189fc6a642c8c85a884e61112d4545f9383dba4a5ac66ae66814b2d84210111eb9c602d0db9c796648794412e212c3f7431a8e666d588d85dca5b505e4d123179f9e658ac3f2cd72cec000cc8ba2cf7b90560eac9baaa26db5feeb3c68b6b63cb4dab68bc89c26fc8e76db0ddf3113ddec3bca493beed1626fd5fa8a91a169cd3db9c7214f01f7d4d0b07524427f34b4c5722b42be2258bc3d1f1a5b80d8fbdc142711022a6d2dd48a5f2ea2f7fc09a9323857385c8a74e83ee4eee9f2baa8c66e71d0925c6b4d5ac79248a7c3e375df3a5c32294d61a5c2596efd617d4eda121aa9ec22757707fd4fe3ca3d675c09e9c693bc3c9145dd98293f6f284cd1680cd73d530648d38c31716fe01c26d32b6415b75407413ae2a2040c2df50d91648db30cef86a282de373b7459f84c735129d7813ca9b0c84b4815be5969a7dcc48b5d0333b6f8c9ff1d02debdda33eee6ffb20ce908a25a38b7c11b7d73666c969a741bd59441fbc0babf0470b66f0f37f182b952dbb7dd7a599e0703d375afa6e14d35737835f2d555bf6c40e51393c3bfe836158de5dc7e6812077f18d24bae5460e584967fc9eb4f20a6271fcfd205e67210f82a04d1296bf0fcc6c97d2e49445d0c4c7d6423e00f8c91668b048ed1b8398c9a121dd201e241d52d6f20e752dca602f094b3b79075057e22ecf514f56ed5ebfcf887731a21c8a1a4b989c45e37d9367d426af19e082d58d78aad4e8e20a0694636472889e6841a31155904cc37b29fa84ff63f548c04b2312c342ea5beb5a12437f3f756099667e01c00f7e9fd6ef071471465c5c6ce3b01d755c456ab72c6f3dc07eae26b24cd97b43bbe5a2b3a5a263e6f3c814864e39723567295011e9cfda6df851f49ae435b476774c9e8a527831efdb5a322a6337c09f09c12066c6f3994f44d726778f4cdecf7a0b6a04e8530af48d8ce033256fe7ff60633d06868380ea993c0052c652d662590478c92168875221e2b6e2d8c3d5855ac86ec6661feb757a6272c37ecbecde8651c8e72be4acce4fd999cc5eef1c60a8f583d09d6589f2c500c591c552c3e0e66db125a83361b5e2f5d11cce14d64fcbd1778a42a61c29baa0ca35c86d076b7e35e372593521c80e782f2f9f6497548cba4751f8ef69aa57a23412dffc4029cb04d35467a2172efdca8189eee87809cc467b9edf44fdacecccc4b36aeecd3e4243506c5c042726a24f9f1b3d17f16d2d80889992e828319b1ee6ee684072a1eaad7013d26d2f46966880c7d53a4670e1a3f63757d8e90989ca2a6bcf2081e1f2f333b474e505a5f667aa6b9c2c3cce4ff29303e4d5b5c7e8396dcdde3e7f4fafe19284a4d5070909d9ea4c1c5d7dee1f300000000000000000000000000000e22324201",
        "00ebf05b613781b5076af1304d6d0b9713456afcbd6e04ade00153e66848de1029ea7e8009fe34e4ab68686a0c6d069beff9ec9340312a46d469961d08561d74fb1cd1c94a53e1a825ce37bd60fcce17f70605a757f5483f89ba9b1fa8dc5ab88d4c68495ec37baf760d948a96e10575537bd2f697406eb0cb667a399cda633c2789121a35b128d23257543b81d071a2cd621f675693cf591bb305621c8caa17d3a23da9b68a68138d19fa450f4ca47069ca311d32eb7e22f58d342e47db7943aed065047d30b9003cc7b710f1b9e1eaf22c2d121cd6986a013b2c72d70c5532fbd48f1dad1f1b8d7c99592b291099fbe33ee4c76057e291eac1f3113db426b9a58d816c51217f57590590a1168d5b98cb06c2a7e5a8118dbb2f3069e00790e1cc928d769ecbb8e01751db451a930009e27f1a922c02b513d845261edc619adb8efcd0f330faef8267fb264e28ab5e79960973ca505d8b67dfd19261da441a23c73cfe81771f49d3068529377bfedce2ce83e412bbf895cd4ad7f98563abed738ea30418e1b4a388daccd4a78d1caaeee3f38be8e483883935e2d4f4fcd66e5727649a7e6edec7757e42dbd6cb1e61433c00c2a55a1db47958b56b9c506f0cf953f89cedaef793432718b257bcf914260a93b9b4d57b474186fcf448f3312dac5d9841b1da008d96aa7662363e5f40c0107bf3ac53b3a44af62b35677b893599d37e906db9402303e6a42ea58e8c46897081b2506d2229950bf9ac91c930e4f7c9ed8edaa12e674324f838a91af095fa2bd7b8b1f75f5646b1412d88477055c2bc3ccb88d9a121cb87f3c6d3d023d6039eac97045be511a2f917cc20ef9e349701b6585e0b0929a58475cf4f1656e12bc6e6844a131da268e7adda315291ea03d915acefbb532d4725b64c30cd54f88fd7da272450ff997926abe59a5cabd2fb9293074989c45d174fe76c6e0f0dc7673b5232c1aebebee9ad11fb47df6a15b78e212f858a8ca26501b141989eee8cf09335b8113c70797711883e0c7fe5f00303350987b45474f6c88eacf4814cea954122c6a4d021a5b0130b47eb6ebe113d0c90bb855693659e161a4f5a41f5866c3f8d7e48135c75e3e99aca0beeba9cac99c0401603bda368f96cf3677d9696517aa5d8d51f744e787304496590f1eb2450d0a85312b8d849f8ab762cd2dce214f4ab2a020edf20557d9caac231dc81933e2c317a01bbe8552753b4524ec5dbb74db642951fc4a11cf08d4251a9fee5416389b20e980f2fca8d84e3b0aab24af547a6fccacb707dfcceb29276f0ef1f6275a79a5ef321ad45768e2c2f806bfe349a931c927854c62a4e70d27814bec00a4199a35bea1fb6b57884a428b8366c64ce3f6dd5f0b9a5d6dc2fd9f40a53c5a0ec4545638acce12eee9d7d9547d44065ac055f240968624645447e3acc5abdf3222db00a0956eac300a0d3937bad96446aa869ce840be49bb0bab44a6578effd8158ad4e03475172729a6ec70bee116c9d1e32a4593e10fa1dcf37fdddb795563eefba1f05dc4abbabf4be94eff4feae03152f9b0661d6c0c92693be31dfe08d515b132b19883c599f749cbe5855236ee2460385bd0dbc2f6540c9bb8a9c757b617f4bfa0f363c7101bc711cfde2ecb39c93011889f114adf25a0c439defbfff5221420a57f7b992f787596d307cfa3410b627f076ba14c31c3bd0ee629f72c43c219604dc0340a13f8127bb4c3fb64dd60beeed24859ecc684a9a2065d3c83b5a47b6b90dcbc36c6e38c4552439f69cb778a1695cdf5e00c6d08cb7ee1decf94b0dd03669c11900549f92affd1bdf62a7b8d143e0f4c36e6ec9879c07f7c76ba0"
      ],
      "sequence": 4294967294
    }
  ],
  "vout": [
    {
      "value": 499970.5099,
      "n": 0,
      "scriptPubKey": {
        "asm": "1 266be4becc02d6a58d3c6feec9cc95f10de3f1ea67093ee1e78d4ff07cf6130d",
        "hex": "5120266be4becc02d6a58d3c6feec9cc95f10de3f1ea67093ee1e78d4ff07cf6130d",
        "reqSigs": 1,
        "type": "witness_v1_scripthash",
        "addresses": [
          "3QJmnh"
        ]
      }
    },
    {
      "value": 1.0,
      "n": 1,
      "scriptPubKey": {
        "asm": "OP_RETURN e5de097b823909952f3b6d8211f652d361ddc023cf413b320e4ec19f49962615 31ad350f3d9a4611afec813ddbd0ce8e5ef82ba59c7f20d51f2808e9c18fac00118d152f1dba66318fcca11dfbf0eeae7ed80b85bc5f00f53f0828c9e1af8c2071ed754f7dda0651efacc17d9b908ece1eb86be5dc3f60955f6848a981cfec4051cd556f5dfa2671cf8ce15dbbb0aeee3e984bc5fc1f40b57f486889a1efcc60b12db58fbd1ac6912f6c01bd5b504e0ede78ab251cffa0559fa88869410f2c80910d95af9d3ae6b10f4c219d7b706e2efe588b053cdf8075bf88a849612f0ca0f16df5cffd5a86d16f2c41fd1b100e4e9e38eb655cbfe015dfe8c829014f6cc0d14dd5efdd7aa6f14f0c61dd3b302e6ebe18cb457c9fc035ffc8e809216f4ce031ad350f3d9a4611afec813ddbd0ce8e5ef82ba59c7f20d51f2808e9c18fac00118d152f1dba66318fcca11dfbf0eeae7ed80b85bc5f00f53f0828c9e1af8c2071ed754f7dda0651efacc17d9b908ece1eb86be5dc3f60955f6848a981cfec4051cd556f5dfa2671cf8ce15dbbb0aeee3e984bc5fc1f40b57f486889a1efcc60b12db58fbd1ac6912f6c01bd5b504e0ede78ab251cffa0559fa88869410f2c80910d95af9d3ae6b10f4c219d7b706e2efe588b053cdf8075bf88a849612f0ca0f16df5cffd5a86d16f2c41fd1b100e4e9e38eb655cbfe015dfe8c829014f6cc0d14dd5efdd7aa6f14f0c61dd3b302e6ebe18cb457c9fc035ffc8e809216f4ce031ad350f3d9a4611afec813ddbd0ce8e5ef82ba59c7f20d51f2808e9c18fac00118d152f1dba66318fcca11dfbf0eeae7ed80b85bc5f00f53f0828c9e1af8c2071ed754f7dda0651efacc17d9b908ece1eb86be5dc3f60955f6848a981cfec4051cd556f5dfa2671cf8ce15dbbb0aeee3e984bc5fc1f40b57f486889a1efcc60b12db58fbd1ac6912f6c01bd5b504e0ede78ab251cffa0559fa88869410f2c80910d95af9d3ae6b10f4c219d7b706e2efe588b053cdf8075bf88a849612f0ca0f16df5cffd5a86d16f2c41fd1b100e4e9e38eb655cbfe015dfe8c829014f6cc0d14dd5efdd7aa6f14f0c61dd3b302e6ebe18cb457c9fc035ffc8e809216f4ce031ad350f3d9a4611afec813ddbd0ce8e5ef82ba59c7f20d51f2808e9c18fac00118d152f1dba66318fcca11dfbf0eeae7ed80b85bc5f00f53f0828c9e1af8c2071ed754f7dda0651efacc17d9b908ece1eb86be5dc3f60955f6848a981cfec4051cd556f5dfa2671cf8ce15dbbb0aeee3e984bc5fc1f40b57f486889a1efcc60b12db58fbd1ac6912f6c01bd5b504e0ede78ab251cffa0559fa88869410f2c80910d95af9d3ae6b10f4c219d7b706e2efe588b053cdf8075bf88a849612f0ca0f16df5cffd5a86d16f2c41fd1b100e4e9e38eb655cbfe015dfe8c829014f6cc0d14dd5efdd7aa6f14f0c61dd3b302e6ebe18cb457c9fc035ffc8e809216f4ce031ad350f3d9a4611afec813ddbd0ce8e5ef82ba59c7f20d51f2808e9c18fac00118d152f1dba66318fcca11dfbf0eeae7ed80b85bc5f00f53f0828c9e1af8c2071ed754f7dda0651efacc17d9b908ece1eb86be5dc3f60955f6848a981cfec4051cd556f5dfa2671cf8ce15dbbb0aeee3e984bc5fc1f40b57f486889a1efcc60b12db58fbd1ac6912f6c01bd5b504e0e5a078b239137aecfc9ebfd473b4c7f79fc4e1f562e533a4b1208160c52b68c0b",
        "hex": "6a20e5de097b823909952f3b6d8211f652d361ddc023cf413b320e4ec19f499626154db00431ad350f3d9a4611afec813ddbd0ce8e5ef82ba59c7f20d51f2808e9c18fac00118d152f1dba66318fcca11dfbf0eeae7ed80b85bc5f00f53f0828c9e1af8c2071ed754f7dda0651efacc17d9b908ece1eb86be5dc3f60955f6848a981cfec4051cd556f5dfa2671cf8ce15dbbb0aeee3e984bc5fc1f40b57f486889a1efcc60b12db58fbd1ac6912f6c01bd5b504e0ede78ab251cffa0559fa88869410f2c80910d95af9d3ae6b10f4c219d7b706e2efe588b053cdf8075bf88a849612f0ca0f16df5cffd5a86d16f2c41fd1b100e4e9e38eb655cbfe015dfe8c829014f6cc0d14dd5efdd7aa6f14f0c61dd3b302e6ebe18cb457c9fc035ffc8e809216f4ce031ad350f3d9a4611afec813ddbd0ce8e5ef82ba59c7f20d51f2808e9c18fac00118d152f1dba66318fcca11dfbf0eeae7ed80b85bc5f00f53f0828c9e1af8c2071ed754f7dda0651efacc17d9b908ece1eb86be5dc3f60955f6848a981cfec4051cd556f5dfa2671cf8ce15dbbb0aeee3e984bc5fc1f40b57f486889a1efcc60b12db58fbd1ac6912f6c01bd5b504e0ede78ab251cffa0559fa88869410f2c80910d95af9d3ae6b10f4c219d7b706e2efe588b053cdf8075bf88a849612f0ca0f16df5cffd5a86d16f2c41fd1b100e4e9e38eb655cbfe015dfe8c829014f6cc0d14dd5efdd7aa6f14f0c61dd3b302e6ebe18cb457c9fc035ffc8e809216f4ce031ad350f3d9a4611afec813ddbd0ce8e5ef82ba59c7f20d51f2808e9c18fac00118d152f1dba66318fcca11dfbf0eeae7ed80b85bc5f00f53f0828c9e1af8c2071ed754f7dda0651efacc17d9b908ece1eb86be5dc3f60955f6848a981cfec4051cd556f5dfa2671cf8ce15dbbb0aeee3e984bc5fc1f40b57f486889a1efcc60b12db58fbd1ac6912f6c01bd5b504e0ede78ab251cffa0559fa88869410f2c80910d95af9d3ae6b10f4c219d7b706e2efe588b053cdf8075bf88a849612f0ca0f16df5cffd5a86d16f2c41fd1b100e4e9e38eb655cbfe015dfe8c829014f6cc0d14dd5efdd7aa6f14f0c61dd3b302e6ebe18cb457c9fc035ffc8e809216f4ce031ad350f3d9a4611afec813ddbd0ce8e5ef82ba59c7f20d51f2808e9c18fac00118d152f1dba66318fcca11dfbf0eeae7ed80b85bc5f00f53f0828c9e1af8c2071ed754f7dda0651efacc17d9b908ece1eb86be5dc3f60955f6848a981cfec4051cd556f5dfa2671cf8ce15dbbb0aeee3e984bc5fc1f40b57f486889a1efcc60b12db58fbd1ac6912f6c01bd5b504e0ede78ab251cffa0559fa88869410f2c80910d95af9d3ae6b10f4c219d7b706e2efe588b053cdf8075bf88a849612f0ca0f16df5cffd5a86d16f2c41fd1b100e4e9e38eb655cbfe015dfe8c829014f6cc0d14dd5efdd7aa6f14f0c61dd3b302e6ebe18cb457c9fc035ffc8e809216f4ce031ad350f3d9a4611afec813ddbd0ce8e5ef82ba59c7f20d51f2808e9c18fac00118d152f1dba66318fcca11dfbf0eeae7ed80b85bc5f00f53f0828c9e1af8c2071ed754f7dda0651efacc17d9b908ece1eb86be5dc3f60955f6848a981cfec4051cd556f5dfa2671cf8ce15dbbb0aeee3e984bc5fc1f40b57f486889a1efcc60b12db58fbd1ac6912f6c01bd5b504e0e5a078b239137aecfc9ebfd473b4c7f79fc4e1f562e533a4b1208160c52b68c0b",
        "type": "nulldata"
      }
    }
  ],
  "blockhash": "f7496688ea8085f6c88d1199f2534797ba9d5c262af7501e5ddf271dd00b2202",
  "confirmations": 1,
  "time": 1764181480,
  "blocktime": 1764181480
}