{
  "hex": "010000000001017ca57f3914c82e1960310b1b65069256323a1e16aac83550a51b292e4ff138030100000000feffffff0200774227792d0000225120457872ed422c397621c80ed7660a73018894298d132fbb0ae8c3423acb37885300e1f50500000000fdd5046a209f0cf821043857c6887c7854144030b0ebca373622baba1a9c3e8fc34d25834c4db0046cb6dd7088de03f8ecd08544092a42b644230f38592315990a58abb405f684604c96fd50a8fe23d8ccf0a564290a629664032f18790335b92a788b9425d6a4402cf69d30c89e43b8ac90c504496a02f604634f78196355d94a18ebf445b6c4200cd6bd10e8be63988cb0e524694a22d624436f58394375f96a38cbd46596e400ec365df0085e83786c5005c489aac236c4a38fb8d9a395198ad82b34857604e0cc167dd0287ea3584c7025e4a98ae216e483af98f983b539aaf80b14a55624c0ac761db0481ec3382c104584c9ea827684e3cff899e3d559ca986b74c53644a08c563d90683ee3180c3065a4e9caa256a4c3efd8b9c3f579eab84b54e51664806cb6dd7088de03f8ecd08544092a42b644230f38592315990a58abb405f684604c96fd50a8fe23d8ccf0a564290a629664032f18790335b92a788b9425d6a4402cf69d30c89e43b8ac90c504496a02f604634f78196355d94a18ebf445b6c4200cd6bd10e8be63988cb0e524694a22d624436f58394375f96a38cbd46596e400ec365df0085e83786c5005c489aac236c4a38fb8d9a395198ad82b34857604e0cc167dd0287ea3584c7025e4a98ae216e483af98f983b539aaf80b14a55624c0ac761db0481ec3382c104584c9ea827684e3cff899e3d559ca986b74c53644a08c563d90683ee3180c3065a4e9caa256a4c3efd8b9c3f579eab84b54e51664806cb6dd7088de03f8ecd08544092a42b644230f38592315990a58abb405f684604c96fd50a8fe23d8ccf0a564290a629664032f18790335b92a788b9425d6a4402cf69d30c89e43b8ac90c504496a02f604634f78196355d94a18ebf445b6c4200cd6bd10e8be63988cb0e524694a22d624436f58394375f96a38cbd46596e400ec365df0085e83786c5005c489aac236c4a38fb8d9a395198ad82b34857604e0cc167dd0287ea3584c7025e4a98ae216e483af98f983b539aaf80b14a55624c0ac761db0481ec3382c104584c9ea827684e3cff899e3d559ca986b74c53644a08c563d90683ee3180c3065a4e9caa256a4c3efd8b9c3f579eab84b54e51664806cb6dd7088de03f8ecd08544092a42b644230f38592315990a58abb405f684604c96fd50a8fe23d8ccf0a564290a629664032f18790335b92a788b9425d6a4402cf69d30c89e43b8ac90c504496a02f604634f78196355d94a18ebf445b6c4200cd6bd10e8be63988cb0e524694a22d624436f58394375f96a38cbd46596e400ec365df0085e83786c5005c489aac236c4a38fb8d9a395198ad82b34857604e0cc167dd0287ea3584c7025e4a98ae216e483af98f983b539aaf80b14a55624c0ac761db0481ec3382c104584c9ea827684e3cff899e3d559ca986b74c53644a08c563d90683ee3180c3065a4e9caa256a4c3efd8b9c3f579eab84b54e51664806cb6dd7088de03f8ecd08544092a42b644230f38592315990a58abb405f684604c96fd50a8fe23d8ccf0a564290a629664032f18790335b92a788b9425d6a4402cf69d30c89e43b8ac90c504496a02f604634f78196355d94a18ebf445b6c4200cd6bd10e8be63988cb0e524694a22d624436f58394375f96a38cbd46596e400ec365df0085e83786c5005c489aac236b29dafe2330c4c1e39cd5820b2335bfcae83a7bbc1e17f165ef0f4a284d5a50102fd7509fe028ef291044ebdc9362dba8bafb978364e0d1737131938d88c0fa37b1a1bc3ff285b047a22553ef47eaaee4a9d068672edbc2352570c6f057cc5840725ae0e39d0c9e7a06288000291a40896b0cfd0eec9b115c72facce258a7c4a9e4c027122328431b653bd5d207c916f86fb3726456533f0271c6dccc194ac00f563bc2d2e271068a784ae1608dd31710ee82cdea890d87e0439b444d8b8ff5753c0b407abef548cb7a168f2ad25c48c77788305862cae9adc6cc9f37cf7ab7c0f0797c0675ce6fbbbce4fa35eef8a630ce001f53b31e4a4a4cefe36a2ce8371801cb25dd73b2d87476529aab44b970d5d059f51d07398a381221f679f6b593d56342b5ff2b16871fcb5055a08769ebefc7be2a66c38f87076646bfd7ce5f5f9fe486585a0dd7db0538c70844ce0de1de8d6b30505caed87ab49db18bda9b771626cd20a19a0e91e49ce5fd24738a1e0fe0e5c428fcafe14e2cb4c4891f39423f63f5cf9495f8b012f7fe88b0265a61c28e864817993e7243a1a1168f474ca2cf16f57ddade0065b36280144124a40ab473471402ae230281aae2b75cd2f4f0ae6e2f931dcc9d76b601fc11919e7206de61c43b93ceb301f0d68d33fe41f2ed8d42dcf64c389dd521aebd8d88c2e8c47a2e72c889fd65d9113a3453100fefdcee925c4c3a8563f6bb1f272b2cd77cee040f3967ef4d7de59617fb40eb80b0da21e2c383c4f1921821da7f1cc4bbb5a079d8309564b6a903faa8d92f524c61a68d8aa2685951cbae6231bbc0deab5ec24cfe70e65367cf86c14eed6836489ce50508512d6f42b044ece7271f3ce52e622517e3cbed803502666abc726daf402e8689b31d40fdd094530ea1e954a815ad9ccb5c5f421737ce4cc405fa8fe84426984630673fa1749fa024ef10597e37afa33f889cd00db30ac8ef0bce570a8e98b6b5ff70a7fd2a7d7ea28a735deb7481d8846bf3d27fae4114c626a3df33d288ca6db5e84a98df504a09993dad01171964f591d656e34d8a16d06eb301454b20397d7f646c961c728c7853f0cacf3df2ec5f666a4951b12f3e8390df7d1e89d891ad5be5445f4710fef53181fd1220473add0e2afc4e9e4d3c7a0e2511deb4d2a74ec0de1f404611d5170d59520e215292c14122f202a505e1591e7c1fe06b340f372a6988c2af5a2d631bdc77252217b6e4806c4ebc27efb1199cd27c2614117dfbaede72bec0dbfe70eae88af6514fb66022e1040e78b046f0e3281642e23c9de4d0bd00ffc6589be4a870e9314e63d9bdc0b19ea0b005154f79110842f1d0eaeac57a7a0041a5355e690b5e5eb4d910821c06342f63c18cb8e9cf768eac930069023ec5189f5def23aa89222640bcd541fff4f6aa350b55aec7b25a3941be6561ec9ffa015ac8af6806ab9abf412691ce2781826e1c2d865417359cedb42470fb9a3ca487b739d13e2907d34e7bae1e91fb245f4b26470de6d937dcfc6973ed1632dc9ba049b4e90db7b6f1713cb04c09fefdc52e0e34090987c08d69bb864d6ba87eb5ae27acd3ef643c4e223d6e5fbeaeeede316f1ccf8be0bad958dbbeb497a7f2d0f42481774493913817b19486d8bf8eb06ec93e85ee2c2abc21145f17132a3b5090c04cbc5e0e29d91962672940190e42631a8c2dbb443b27a91a42f08e05d55e391a13c89d0320853e058e81a24bb96a5b339a14e80d5b493237c05bea19ea9d69e8f01cb0a46b62119ea0b572efbf6bc28ad75dcd014695359ad7686facb40acec21e7c3131a3bdaa1b17d68d7b42312908650f591360a75e3e468ebd62ff418324a471215a7eb86c2024207d3fa293149e88e0830ab1e9382681a43b134f3e868ce66a403c7f17e79dfb0c3bfbf33ccd29915ac6873328aad6bb3688fa87926afae369de719cd1c0d9e121c0f60a7fab7c8905840a62a7dc1607e04b86035c77b2ca4ae0ffd7bc18588fc6b17b41cea6d8c469a2c932a2c37eeaf7ba1a2302d188cce83c7db58b08eadb498c6a582af8629141321b247f831e3ed476d97b253cf198f619973ae72fb03117d662ec7e4c0ba047d059d7e3ccdd21654531326a83f9532ce2e922b272b39575bd1d54ddd67171dee2dea7815aceebe67deea14c72f8c7d222d7348de6c544f11106fd4e37eae5b648857bca7321d237ba746f9f9932e4b8032e7753ee38b884371b0ee0cfcd0321cff375bfffc7a4c223339f494168bb4348a62e54181c816f71682e00eb4ddcf24d098bcaef37179b42aa8fe863da4348636d103280e6e81ba394a5fb2cfb795ba7329ed96bcfe30c726907ec60149b1e8fc4a78b1c6e5380c9ba8a4954ccb83b65f7cb7724af79f4138f9c2379978ab1c7bb857d2c8aff9e301c25c18222dba04e8e07f3fd2ace5f488f558430c6c99ef18017e72702913919e8e17a213a29f64aa9fab7d52dd1d7497a49897c30520e4ea578ab04a59716967af02818062a92f3c4aa7a3c404429bfffc27cc8442adba768a28545bb7e7ad5d04abd6033d7e9e74b40a204d488caf362b9334a52de8f967bd7bf7a8394c96182b2ad3d80d848f6ffdeee4679c8d1531f5dcc76c5831ff60ba67f4f69e87622cf9aa67fce224f2edef61de92362d76179bd07ba06fc13577664aa7e9ffea4e06a88172262e4ba30ef39c749ed98a09072af5d77f6a1cc0144dec8f39026d3147a9fda3b0a22668028ce813d12df1f55508533e3424345b1cfa9aff66a5d3bf0252374f47a91c6eab1a2e102e6c37d52f8c24eb3bfd8cf1f50914669122452d0231d7f3bc8cf43a259c6cc8c2dbf21e92c3dd49efccdac7961919a4bde6cadbf25255c29e27967691fdb9a42b47ddb289d6afda80fe7e19bb63443cc6b1c92095acab81baa9eea1c1c4e3b00fdf5c9852cf705a1cdea2d32cca186c6df631c2deff31bf43d0bb3ae42b2c0369783d3f922f2492a29eb89119570280383cb45c78b98c0f19fbc003844a88210beab9bb60b8bb6666312535816d8cf3994687f0d38161eb45322e45a9ce52ce3e74cdd6989613a2e2091717a6696889e0e445baab0f737076b8def49b714e4532e459fa58a545568d45c8135b0a18be50df7a9623d2f8cb3694ad60ad53e387857c0acc2d3776630f3b04aef25e51f444bb0ed5a5f30a514446b3d67dcb5be8b32463365958bed1432ebcfcf101b357ebc912d8d2e9fb56cab4a72f6aa28e87b55a7e95071477617d8b4d9ee2e8580b5045cf428018dbd3d2765a655de942625a483ed9ccccc66d6742587b95a5353d5ac80ba78e8910c3ba55db21468fe3f66647c9f023d3830005142f3840485661658f969aa8abbed2ebedf41427495e6b808695989eb6c6d4d6e2ee08141f232f33393a434c6771767785a6b2b6dbe0ec0607181a324349606b8296a3a5aec0d8000000000000001424394901fd210500d3b630c7b1f737df7650a417edf2baa6ad5689c396d740421c3bb6e7cf5c533f36c3abf8aee95c7a2bbf57e745127e6548e477360563a365d056e49bc27d1d05c4c6b7344e7235fea2e28823f23ba10527da43b66c0ebdf1278e704b0ef302bf52ff76964373f9d227a3c46f9b63c74765b475c01c88c666ffdff95ecbc39ee60783563a4a9f16cb7cb86aea86daeb4ef1c9d5c5311d041c37dccc72f4e21a40d3738c073b1eb9159d7c9ee4c6c259c77154722c3e8210ce6130820c40e3d1205abcc67703f3212da57b74867717074c2889dfcdde08bded967450d2e2b0b42da0fdb7c502c397760f0a5430692a30983bd4530640c2274d4f834c11dda2d75107b8de65ec71148625d2f0311fc4888ee64bdf176427397daa58df56674d463f4c6b703af08bbb0bdab92557869070a55691b7448ecbb5379083a870749e8f3b8308c7b91cb14cd49c643a1045ab9d7283daf18f2de05c033b7fc373e86c8602b3a1381acc961379a10c49683d52fd1ec7ff254314c15c589edf53adba0dd4bfb58a8027d4a687e8ff54a9b8ae5f473f87477826c0dac31c588e44d169dcb55f101760428493826028da0b36fbea03f14cc2ad8d2179c513cc9ad6e797888f071e6ee929f6c757dddbec340d242eb163ee4775c58b9052cc59d0183ca7a0ffed13504e135da21fdf209de8ee1141e353456d48d7281e4e01c3af6f65a5455846ad19cde12801726e2424b0e69a0eae9983357d5ba9c140f98c91baf111700492fc04108562ea81948c1d5a2e64794165c82431b4719e99689e99d0b6b5ddedb9da350c390f68a49f427e602e3963fc7ffb49ca6f07153d584ce5f41bedfeb580e2f69486f991de25833c3f22cf19af108e7fdd024f0e17be4c5d6f887726c97686cca71d7ffe9de059b80a57dc71a05a3d08d4ac0f9e75b5d296f23d57a5398d4b3f62642208e13fc60959cb632e0170317faadd37d578d053ec1e427bcd985bf5ec1efa14b4a00852c5abaf3475e975f544dbe5a63ae4fdfaa69f150f7cea15cbf61685530e835f02681e255189b8a8581086b59d715ab728c72ee811a936c72734fa607f1934ad9d6aeb27626c8e0fb2af44ed64b6356d8a2506331407536ad28c2ac8340a3cd1a87f3f4fdb06edada946545bdd2e3e2e4cfd9607555e5b233f0c003cb78295c5652ed107380c6d8cb3aac1728205e355470dd3f2f2269ecbea3eb752dc44dcee3fbffbd647b9e3b654c87add96865738f43fbdd18f157b9b00f40c94b0f8f042d43c0ed48054433f17316a24533adc738b5bd7685de84a5907941e5f852cbf89bfba2b47fa8a248637bccd49bbd8011e29ad1ce3a810b25eb7419ddea42ccbcac9f548eb0292e0e3680366d27084b454a6c0aba7cf855865a3421201de9575c724feee281e76ad88d1350d74bc446dfbd071c899a357df236684816a4c5103da8b8a9c76c650b16c970e467dfdea3329a8c8d9dc8a26015381fdc6180cf5b60524349060458355737012e1fb56201bef7e0c2c499ad9098bd6b3165f6b23bf74715cc3e9b41c608d2b053adc46ae8534887247f2f7450f6a6a01432e3fe397f3e1369ebb38bfe7fc75d250653a7e884681beafb5e7e549c56504f89212f888a325637cd7ae8d4f4d55665f9cdb529dd60864506c80cd19f219b2da470a98feda406f869f3e313d5ecfd9b03efec5a37ddf71992543c1632c83180965ffa6049245827e6865ddfb73475377345c4e2d728d49a39b5a1986da4be20c08774e805feff5f0e90573a719746014d06addd0373c16c2c62d910c355be2cd6d71724d96c6c65fec5dc3161ce6e3bd46620a1e27150b8f88053235ca73000000",
  "txid": "388b05ede862de482f27f6ad2027ccf239f227c9109f0239a62eebd338d4659f",
  "hash": "fcd1acf8e077bfb6d2d69b09f8c6f4bcfe5cfa27e377c536f20c3a20892e6e21",
  "size": 5085,
  "vsize": 2278,
  "version": 1,
  "locktime": 115,
  "vin": [
    {
      "txid": "0338f14f2e291ba55035c8aa161e3a32569206651b0b3160192ec814397fa57c",
      "vout": 1,
      "scriptSig": {
        "asm": "",
        "hex": ""
      },
      "txinwitness": [
        "fe028ef291044ebdc9362dba8bafb978364e0d1737131938d88c0fa37b1a1bc3ff285b047a22553ef47eaaee4a9d068672edbc2352570c6f057cc5840725ae0e39d0c9e7a06288000291a40896b0cfd0eec9b115c72facce258a7c4a9e4c027122328431b653bd5d207c916f86fb3726456533f0271c6dccc194ac00f563bc2d2e271068a784ae1608dd31710ee82cdea890d87e0439b444d8b8ff5753c0b407abef548cb7a168f2ad25c48c77788305862cae9adc6cc9f37cf7ab7c0f0797c0675ce6fbbbce4fa35eef8a630ce001f53b31e4a4a4cefe36a2ce8371801cb25dd73b2d87476529aab44b970d5d059f51d07398a381221f679f6b593d56342b5ff2b16871fcb5055a08769ebefc7be2a66c38f87076646bfd7ce5f5f9fe486585a0dd7db0538c70844ce0de1de8d6b30505caed87ab49db18bda9b771626cd20a19a0e91e49ce5fd24738a1e0fe0e5c428fcafe14e2cb4c4891f39423f63f5cf9495f8b012f7fe88b0265a61c28e864817993e7243a1a1168f474ca2cf16f57ddade0065b36280144124a40ab473471402ae230281aae2b75cd2f4f0ae6e2f931dcc9d76b601fc11919e7206de61c43b93ceb301f0d68d33fe41f2ed8d42dcf64c389dd521aebd8d88c2e8c47a2e72c889fd65d9113a3453100fefdcee925c4c3a8563f6bb1f272b2cd77cee040f3967ef4d7de59617fb40eb80b0da21e2c383c4f1921821da7f1cc4bbb5a079d8309564b6a903faa8d92f524c61a68d8aa2685951cbae6231bbc0deab5ec24cfe70e65367cf86c14eed6836489ce50508512d6f42b044ece7271f3ce52e622517e3cbed803502666abc726daf402e8689b31d40fdd094530ea1e954a815ad9ccb5c5f421737ce4cc405fa8fe84426984630673fa1749fa024ef10597e37afa33f889cd00db30ac8ef0bce570a8e98b6b5ff70a7fd2a7d7ea28a735deb7481d8846bf3d27fae4114c626a3df33d288ca6db5e84a98df504a09993dad01171964f591d656e34d8a16d06eb301454b20397d7f646c961c728c7853f0cacf3df2ec5f666a4951b12f3e8390df7d1e89d891ad5be5445f4710fef53181fd1220473add0e2afc4e9e4d3c7a0e2511deb4d2a74ec0de1f404611d5170d59520e215292c14122f202a505e1591e7c1fe06b340f372a6988c2af5a2d631bdc77252217b6e4806c4ebc27efb1199cd27c2614117dfbaede72bec0dbfe70eae88af6514fb66022e1040e78b046f0e3281642e23c9de4d0bd00ffc6589be4a870e9314e63d9bdc0b19ea0b005154f79110842f1d0eaeac57a7a0041a5355e690b5e5eb4d910821c06342f63c18cb8e9cf768eac930069023ec5189f5def23aa89222640bcd541fff4f6aa350b55aec7b25a3941be6561ec9ffa015ac8af6806ab9abf412691ce2781826e1c2d865417359cedb42470fb9a3ca487b739d13e2907d34e7bae1e91fb245f4b26470de6d937dcfc6973ed1632dc9ba049b4e90db7b6f1713cb04c09fefdc52e0e34090987c08d69bb864d6ba87eb5ae27acd3ef643c4e223d6e5fbeaeeede316f1ccf8be0bad958dbbeb497a7f2d0f42481774493913817b19486d8bf8eb06ec93e85ee2c2abc21145f17132a3b5090c04cbc5e0e29d91962672940190e42631a8c2dbb443b27a91a42f08e05d55e391a13c89d0320853e058e81a24bb96a5b339a14e80d5b493237c05bea19ea9d69e8f01cb0a46b62119ea0b572efbf6bc28ad75dcd014695359ad7686facb40acec21e7c3131a3bdaa1b17d68d7b42312908650f591360a75e3e468ebd62ff418324a471215a7eb86c2024207d3fa293149e88e0830ab1e9382681a43b134f3e868ce66a403c7f17e79dfb0c3bfbf33ccd29915ac6873328aad6bb3688fa87926afae369de719cd1c0d9e121c0f60a7fab7c8905840a62a7dc1607e04b86035c77b2ca4ae0ffd7bc18588fc6b17b41cea6d8c469a2c932a2c37eeaf7ba1a2302d188cce83c7db58b08eadb498c6a582af8629141321b247f831e3ed476d97b253cf198f619973ae72fb03117d662ec7e4c0ba047d059d7e3ccdd21654531326a83f9532ce2e922b272b39575bd1d54ddd67171dee2dea7815aceebe67deea14c72f8c7d222d7348de6c544f11106fd4e37eae5b648857bca7321d237ba746f9f9932e4b8032e7753ee38b884371b0ee0cfcd0321cff375bfffc7a4c223339f494168bb4348a62e54181c816f71682e00eb4ddcf24d098bcaef37179b42aa8fe863da4348636d103280e6e81ba394a5fb2cfb795ba7329ed96bcfe30c726907ec60149b1e8fc4a78b1c6e5380c9ba8a4954ccb83b65f7cb7724af79f4138f9c2379978ab1c7bb857d2c8aff9e301c25c18222dba04e8e07f3fd2ace5f488f558430c6c99ef18017e72702913919e8e17a213a29f64aa9fab7d52dd1d7497a49897c30520e4ea578ab04a59716967af02818062a92f3c4aa7a3c404429bfffc27cc8442adba768a28545bb7e7ad5d04abd6033d7e9e74b40a204d488caf362b9334a52de8f967bd7bf7a8394c96182b2ad3d80d848f6ffdeee4679c8d1531f5dcc76c5831ff60ba67f4f69e87622cf9aa67fce224f2edef61de92362d76179bd07ba06fc13577664aa7e9ffea4e06a88172262e4ba30ef39c749ed98a09072af5d77f6a1cc0144dec8f39026d3147a9fda3b0a22668028ce813d12df1f55508533e3424345b1cfa9aff66a5d3bf0252374f47a91c6eab1a2e102e6c37d52f8c24eb3bfd8cf1f50914669122452d0231d7f3bc8cf43a259c6cc8c2dbf21e92c3dd49efccdac7961919a4bde6cadbf25255c29e27967691fdb9a42b47ddb289d6afda80fe7e19bb63443cc6b1c92095acab81baa9eea1c1c4e3b00fdf5c9852cf705a1cdea2d32cca186c6df631c2deff31bf43d0bb3ae42b2c0369783d3f922f2492a29eb89119570280383cb45c78b98c0f19fbc003844a88210beab9bb60b8bb6666312535816d8cf3994687f0d38161eb45322e45a9ce52ce3e74cdd6989613a2e2091717a6696889e0e445baab0f737076b8def49b714e4532e459fa58a545568d45c8135b0a18be50df7a9623d2f8cb3694ad60ad53e387857c0acc2d3776630f3b04aef25e51f444bb0ed5a5f30a514446b3d67dcb5be8b32463365958bed1432ebcfcf101b357ebc912d8d2e9fb56cab4a72f6aa28e87b55a7e95071477617d8b4d9ee2e8580b5045cf428018dbd3d2765a655de942625a483ed9ccccc66d6742587b95a5353d5ac80ba78e8910c3ba55db21468fe3f66647c9f023d3830005142f3840485661658f969aa8abbed2ebedf41427495e6b808695989eb6c6d4d6e2ee08141f232f33393a434c6771767785a6b2b6dbe0ec0607181a324349606b8296a3a5aec0d8000000000000001424394901",
        "00d3b630c7b1f737df7650a417edf2baa6ad5689c396d740421c3bb6e7cf5c533f36c3abf8aee95c7a2bbf57e745127e6548e477360563a365d056e49bc27d1d05c4c6b7344e7235fea2e28823f23ba10527da43b66c0ebdf1278e704b0ef302bf52ff76964373f9d227a3c46f9b63c74765b475c01c88c666ffdff95ecbc39ee60783563a4a9f16cb7cb86aea86daeb4ef1c9d5c5311d041c37dccc72f4e21a40d3738c073b1eb9159d7c9ee4c6c259c77154722c3e8210ce6130820c40e3d1205abcc67703f3212da57b74867717074c2889dfcdde08bded967450d2e2b0b42da0fdb7c502c397760f0a5430692a30983bd4530640c2274d4f834c11dda2d75107b8de65ec71148625d2f0311fc4888ee64bdf176427397daa58df56674d463f4c6b703af08bbb0bdab92557869070a55691b7448ecbb5379083a870749e8f3b8308c7b91cb14cd49c643a1045ab9d7283daf18f2de05c033b7fc373e86c8602b3a1381acc961379a10c49683d52fd1ec7ff254314c15c589edf53adba0dd4bfb58a8027d4a687e8ff54a9b8ae5f473f87477826c0dac31c588e44d169dcb55f101760428493826028da0b36fbea03f14cc2ad8d2179c513cc9ad6e797888f071e6ee929f6c757dddbec340d242eb163ee4775c58b9052cc59d0183ca7a0ffed13504e135da21fdf209de8ee1141e353456d48d7281e4e01c3af6f65a5455846ad19cde12801726e2424b0e69a0eae9983357d5ba9c140f98c91baf111700492fc04108562ea81948c1d5a2e64794165c82431b4719e99689e99d0b6b5ddedb9da350c390f68a49f427e602e3963fc7ffb49ca6f07153d584ce5f41bedfeb580e2f69486f991de25833c3f22cf19af108e7fdd024f0e17be4c5d6f887726c97686cca71d7ffe9de059b80a57dc71a05a3d08d4ac0f9e75b5d296f23d57a5398d4b3f62642208e13fc60959cb632e0170317faadd37d578d053ec1e427bcd985bf5ec1efa14b4a00852c5abaf3475e975f544dbe5a63ae4fdfaa69f150f7cea15cbf61685530e835f02681e255189b8a8581086b59d715ab728c72ee811a936c72734fa607f1934ad9d6aeb27626c8e0fb2af44ed64b6356d8a2506331407536ad28c2ac8340a3cd1a87f3f4fdb06edada946545bdd2e3e2e4cfd9607555e5b233f0c003cb78295c5652ed107380c6d8cb3aac1728205e355470dd3f2f2269ecbea3eb752dc44dcee3fbffbd647b9e3b654c87add96865738f43fbdd18f157b9b00f40c94b0f8f042d43c0ed48054433f17316a24533adc738b5bd7685de84a5907941e5f852cbf89bfba2b47fa8a248637bccd49bbd8011e29ad1ce3a810b25eb7419ddea42ccbcac9f548eb0292e0e3680366d27084b454a6c0aba7cf855865a3421201de9575c724feee281e76ad88d1350d74bc446dfbd071c899a357df236684816a4c5103da8b8a9c76c650b16c970e467dfdea3329a8c8d9dc8a26015381fdc6180cf5b60524349060458355737012e1fb56201bef7e0c2c499ad9098bd6b3165f6b23bf74715cc3e9b41c608d2b053adc46ae8534887247f2f7450f6a6a01432e3fe397f3e1369ebb38bfe7fc75d250653a7e884681beafb5e7e549c56504f89212f888a325637cd7ae8d4f4d55665f9cdb529dd60864506c80cd19f219b2da470a98feda406f869f3e313d5ecfd9b03efec5a37ddf71992543c1632c83180965ffa6049245827e6865ddfb73475377345c4e2d728d49a39b5a1986da4be20c08774e805feff5f0e90573a719746014d06addd0373c16c2c62d910c355be2cd6d71724d96c6c65fec5dc3161ce6e3bd46620a1e27150b8f88053235ca"
      ],
      "sequence": 4294967294
    }
  ],
  "vout": [
    {
      "value": 499983.7296,
      "n": 0,
      "scriptPubKey": {
        "asm": "1 457872ed422c397621c80ed7660a73018894298d132fbb0ae8c3423acb378853",
        "hex": "5120457872ed422c397621c80ed7660a73018894298d132fbb0ae8c3423acb378853",
        "reqSigs": 1,
        "type": "witness_v1_scripthash",
        "addresses": [
          "3QJmnh"
        ]
      }
    },
    {
      "value": 1.0,
      "n": 1,
      "scriptPubKey": {
        "asm": "OP_RETURN 9f0cf821043857c6887c7854144030b0ebca373622baba1a9c3e8fc34d25834c 6cb6dd7088de03f8ecd08544092a42b644230f38592315990a58abb405f684604c96fd50a8fe23d8ccf0a564290a629664032f18790335b92a788b9425d6a4402cf69d30c89e43b8ac90c504496a02f604634f78196355d94a18ebf445b6c4200cd6bd10e8be63988cb0e524694a22d624436f58394375f96a38cbd46596e400ec365df0085e83786c5005c489aac236c4a38fb8d9a395198ad82b34857604e0cc167dd0287ea3584c7025e4a98ae216e483af98f983b539aaf80b14a55624c0ac761db0481ec3382c104584c9ea827684e3cff899e3d559ca986b74c53644a08c563d90683ee3180c3065a4e9caa256a4c3efd8b9c3f579eab84b54e51664806cb6dd7088de03f8ecd08544092a42b644230f38592315990a58abb405f684604c96fd50a8fe23d8ccf0a564290a629664032f18790335b92a788b9425d6a4402cf69d30c89e43b8ac90c504496a02f604634f78196355d94a18ebf445b6c4200cd6bd10e8be63988cb0e524694a22d624436f58394375f96a38cbd46596e400ec365df0085e83786c5005c489aac236c4a38fb8d9a395198ad82b34857604e0cc167dd0287ea3584c7025e4a98ae216e483af98f983b539aaf80b14a55624c0ac761db0481ec3382c104584c9ea827684e3cff899e3d559ca986b74c53644a08c563d90683ee3180c3065a4e9caa256a4c3efd8b9c3f579eab84b54e51664806cb6dd7088de03f8ecd08544092a42b644230f38592315990a58abb405f684604c96fd50a8fe23d8ccf0a564290a629664032f18790335b92a788b9425d6a4402cf69d30c89e43b8ac90c504496a02f604634f78196355d94a18ebf445b6c4200cd6bd10e8be63988cb0e524694a22d624436f58394375f96a38cbd46596e400ec365df0085e83786c5005c489aac236c4a38fb8d9a395198ad82b34857604e0cc167dd0287ea3584c7025e4a98ae216e483af98f983b539aaf80b14a55624c0ac761db0481ec3382c104584c9ea827684e3cff899e3d559ca986b74c53644a08c563d90683ee3180c3065a4e9caa256a4c3efd8b9c3f579eab84b54e51664806cb6dd7088de03f8ecd08544092a42b644230f38592315990a58abb405f684604c96fd50a8fe23d8ccf0a564290a629664032f18790335b92a788b9425d6a4402cf69d30c89e43b8ac90c504496a02f604634f78196355d94a18ebf445b6c4200cd6bd10e8be63988cb0e524694a22d624436f58394375f96a38cbd46596e400ec365df0085e83786c5005c489aac236c4a38fb8d9a395198ad82b34857604e0cc167dd0287ea3584c7025e4a98ae216e483af98f983b539aaf80b14a55624c0ac761db0481ec3382c104584c9ea827684e3cff899e3d559ca986b74c53644a08c563d90683ee3180c3065a4e9caa256a4c3efd8b9c3f579eab84b54e51664806cb6dd7088de03f8ecd08544092a42b644230f38592315990a58abb405f684604c96fd50a8fe23d8ccf0a564290a629664032f18790335b92a788b9425d6a4402cf69d30c89e43b8ac90c504496a02f604634f78196355d94a18ebf445b6c4200cd6bd10e8be63988cb0e524694a22d624436f58394375f96a38cbd46596e400ec365df0085e83786c5005c489aac236b29dafe2330c4c1e39cd5820b2335bfcae83a7bbc1e17f165ef0f4a284d5a501",
        "hex": "6a209f0cf821043857c6887c7854144030b0ebca373622baba1a9c3e8fc34d25834c4db0046cb6dd7088de03f8ecd08544092a42b644230f38592315990a58abb405f684604c96fd50a8fe23d8ccf0a564290a629664032f18790335b92a788b9425d6a4402cf69d30c89e43b8ac90c504496a02f604634f78196355d94a18ebf445b6c4200cd6bd10e8be63988cb0e524694a22d624436f58394375f96a38cbd46596e400ec365df0085e83786c5005c489aac236c4a38fb8d9a395198ad82b34857604e0cc167dd0287ea3584c7025e4a98ae216e483af98f983b539aaf80b14a55624c0ac761db0481ec3382c104584c9ea827684e3cff899e3d559ca986b74c53644a08c563d90683ee3180c3065a4e9caa256a4c3efd8b9c3f579eab84b54e51664806cb6dd7088de03f8ecd08544092a42b644230f38592315990a58abb405f684604c96fd50a8fe23d8ccf0a564290a629664032f18790335b92a788b9425d6a4402cf69d30c89e43b8ac90c504496a02f604634f78196355d94a18ebf445b6c4200cd6bd10e8be63988cb0e524694a22d624436f58394375f96a38cbd46596e400ec365df0085e83786c5005c489aac236c4a38fb8d9a395198ad82b34857604e0cc167dd0287ea3584c7025e4a98ae216e483af98f983b539aaf80b14a55624c0ac761db0481ec3382c104584c9ea827684e3cff899e3d559ca986b74c53644a08c563d90683ee3180c3065a4e9caa256a4c3efd8b9c3f579eab84b54e51664806cb6dd7088de03f8ecd08544092a42b644230f38592315990a58abb405f684604c96fd50a8fe23d8ccf0a564290a629664032f18790335b92a788b9425d6a4402cf69d30c89e43b8ac90c504496a02f604634f78196355d94a18ebf445b6c4200cd6bd10e8be63988cb0e524694a22d624436f58394375f96a38cbd46596e400ec365df0085e83786c5005c489aac236c4a38fb8d9a395198ad82b34857604e0cc167dd0287ea3584c7025e4a98ae216e483af98f983b539aaf80b14a55624c0ac761db0481ec3382c104584c9ea827684e3cff899e3d559ca986b74c53644a08c563d90683ee3180c3065a4e9caa256a4c3efd8b9c3f579eab84b54e51664806cb6dd7088de03f8ecd08544092a42b644230f38592315990a58abb405f684604c96fd50a8fe23d8ccf0a564290a629664032f18790335b92a788b9425d6a4402cf69d30c89e43b8ac90c504496a02f604634f78196355d94a18ebf445b6c4200cd6bd10e8be63988cb0e524694a22d624436f58394375f96a38cbd46596e400ec365df0085e83786c5005c489aac236c4a38fb8d9a395198ad82b34857604e0cc167dd0287ea3584c7025e4a98ae216e483af98f983b539aaf80b14a55624c0ac761db0481ec3382c104584c9ea827684e3cff899e3d559ca986b74c53644a08c563d90683ee3180c3065a4e9caa256a4c3efd8b9c3f579eab84b54e51664806cb6dd7088de03f8ecd08544092a42b644230f38592315990a58abb405f684604c96fd50a8fe23d8ccf0a564290a629664032f18790335b92a788b9425d6a4402cf69d30c89e43b8ac90c504496a02f604634f78196355d94a18ebf445b6c4200cd6bd10e8be63988cb0e524694a22d624436f58394375f96a38cbd46596e400ec365df0085e83786c5005c489aac236b29dafe2330c4c1e39cd5820b2335bfcae83a7bbc1e17f165ef0f4a284d5a501",
        "type": "nulldata"
      }
    }
  ],
  "blockhash": "b157fe5006ea74e3e2696296011f5383f171fa956e468cbbd84742f98a1af3af",
  "confirmations": 1,
  "time": 1764179051,
  "blocktime": 1764179051
}