{
  "hex": "010000000001012c79b40c910e6310bf0c69a9058f9e812c0069fef5295ee7913d2b82e57e53f60000000000feffffff0200e1f50500000000fdd5046a20fbe6a08425c854dd8bda57114749be11dcaac6c893ecf9cde6abfbdc0ecab3074db0043f9011203addfb1a12b4d2a44b605f3147ff6d441b8e31f461eb143358ea5d931fb031001afddb3a3294f2846b407f1167df4d643bae11d441cb341378ca7db37fd051607a9dbb5a52f492e40b201f7107bf2d045bce71b421ab547318aa1dd35ff071405abd9b7a72d4b2c42b003f51279f0d247bee5194018b7453388a3df3bf1091a0ba5d7b9a92345224cbe0dfb1c77fedc49b0eb174e16b94b3d86add139f30b1809a7d5bbab2147204ebc0ff91e75fcde4bb2e9154c14bb493f84afd33ff50d1e0fa1d3bdad27412648ba09ff1873fad84db4ef134a12bd4f3982a9d53df70f1c0da3d1bfaf2543244ab80bfd1a71f8da4fb6ed114810bf4d3b80abd733f9011203addfb1a12b4d2a44b605f3147ff6d441b8e31f461eb143358ea5d931fb031001afddb3a3294f2846b407f1167df4d643bae11d441cb341378ca7db37fd051607a9dbb5a52f492e40b201f7107bf2d045bce71b421ab547318aa1dd35ff071405abd9b7a72d4b2c42b003f51279f0d247bee5194018b7453388a3df3bf1091a0ba5d7b9a92345224cbe0dfb1c77fedc49b0eb174e16b94b3d86add139f30b1809a7d5bbab2147204ebc0ff91e75fcde4bb2e9154c14bb493f84afd33ff50d1e0fa1d3bdad27412648ba09ff1873fad84db4ef134a12bd4f3982a9d53df70f1c0da3d1bfaf2543244ab80bfd1a71f8da4fb6ed114810bf4d3b80abd733f9011203addfb1a12b4d2a44b605f3147ff6d441b8e31f461eb143358ea5d931fb031001afddb3a3294f2846b407f1167df4d643bae11d441cb341378ca7db37fd051607a9dbb5a52f492e40b201f7107bf2d045bce71b421ab547318aa1dd35ff071405abd9b7a72d4b2c42b003f51279f0d247bee5194018b7453388a3df3bf1091a0ba5d7b9a92345224cbe0dfb1c77fedc49b0eb174e16b94b3d86add139f30b1809a7d5bbab2147204ebc0ff91e75fcde4bb2e9154c14bb493f84afd33ff50d1e0fa1d3bdad27412648ba09ff1873fad84db4ef134a12bd4f3982a9d53df70f1c0da3d1bfaf2543244ab80bfd1a71f8da4fb6ed114810bf4d3b80abd733f9011203addfb1a12b4d2a44b605f3147ff6d441b8e31f461eb143358ea5d931fb031001afddb3a3294f2846b407f1167df4d643bae11d441cb341378ca7db37fd051607a9dbb5a52f492e40b201f7107bf2d045bce71b421ab547318aa1dd35ff071405abd9b7a72d4b2c42b003f51279f0d247bee5194018b7453388a3df3bf1091a0ba5d7b9a92345224cbe0dfb1c77fedc49b0eb174e16b94b3d86add139f30b1809a7d5bbab2147204ebc0ff91e75fcde4bb2e9154c14bb493f84afd33ff50d1e0fa1d3bdad27412648ba09ff1873fad84db4ef134a12bd4f3982a9d53df70f1c0da3d1bfaf2543244ab80bfd1a71f8da4fb6ed114810bf4d3b80abd733f9011203addfb1a12b4d2a44b605f3147ff6d441b8e31f461eb143358ea5d931fb031001afddb3a3294f2846b407f1167df4d643bae11d441cb341378ca7db37fd051607a9dbb5a52f492e40b201f7107bf2d045bce71b421ab547318aa1dd35ff071405abd9b7a72d4b2c42b003f51279f0d247bee5194018b7453388a3df3bf1091a0ba5d7b9a92345224cbe0dfb161e8af2bdfb8bbb175daae1d58cb96881f6be798653b54e8843b2b2c5a9e2afad02296e4782d0000225120ec03574fc463eca99ecf20cf561cfb3b14c48fc7f0bd898eaa1c90a157436d9a02fd7509b98a8d61b2a552dceb444fe2e2db68da2304e41d3a601a7960353fab6fe4c9fcffea9ee711827104bb6e33da1e51822c3111cb857cfb6e4d1abe37f0c3cddd93cd4b2769176b1f369a9848337ae40282c524bb89ea29ee0880cb50d4d5a1d47a81047f4289758ffac9b98665c61b1e95d65f6d916e81b10b3a9db3c40e371dfbfa9d69409a12bc37926592aace320437283fc963e9c1feb447a405e51952b72317d907bede6fcf7a377844835f606c833d70037ccdf3dde2fe526e5a04ef0e0e305fa6f58985a0ec359a6f04b31966c2132b31d48aea0e536527aa140f1afa9a71bd05916399c7538e6837b85b8a6e0ed0c1711b36702fcaf54e217a54c1144b5f22932d6d55cd032d9d7cd515c434c56469337de316644d2c343e14d7b7f7cbfe4bf2ce93ef976a0e21c6f3f62938cc71ac90f38541adb676406f9a4a97841629e320f65a304e7e2118746ab835fc6592098dee4b3cd952d64b1ad55cf68550f029ca5ae4daf67b232279cbd733dac8c90751a5c0df46c88ffe202e178d10ceaef66febe4806113c92e5fcc7079dffce0d057be2c5c7328de4205d691230ab4b63a641de2731c6a2ca6a2f8a175f4fe9dd60052716e3e292b55063856a3bad47f4e8a2bf6451434beb5dc9d72cf9dcdac41832e8ebaede6311db23a48f2cbc299ea8c25fa8db166e5bc75145279ed5cb62e8ec1c617f27efeef6f0a0ccd5390b1a7a0bc044d37b08385c7a3506a8b6088108ab9a256e1da0a9532cfaec5d2e364bc1eeca360ccf23f97a7028edec9a934291f55652526c1297e509decacc7950eba36bcb14c524cbf8e3a56397e8d40f97dc29904b59b4ec2f8111228e86bad99bf4f6844f1e5d6e5c0d93b4484464047aa40422530361f03f510da166681b1008380229dee6f91162f070682dd1119b59de073d2adbe04cef2a9ea53ca168fc9c3c1414ad360607b73151742d971c9185642510d9db95a56f0626f45763e9603563d6485faae50d2a93c8d09479fecc77f90058ae4357672df5e4ea228dd4a01f4b1056dc85fdc1fee513d97078e90804f5aed42e55825f56af7c82bbb64de95cf4fc0023ff5a6e6cdb0fc0aad328102a8acf45fda3e4127c362d2b155ff948ca8ef541d8ee7205680e5fedaa9d912bdfd8e8a7cda70957d2e32218bb84bfae2fae0826a989da91adbb293b926400392eb68465b45848eb5cbe2468f04ca832ee15597d62566cfac2e85ce9f86b59b555b45e5afb7b932990fde503895a0a5401d56c29dcbc350b1716e6da89b10ff8783fbe4731f43a5bd27a3b8bdfc352726ecd8ef6ac96609a366f4cd54a5bd0958793e145e5774d97974a0aaaf8b8e61eec2c389e3a379ffcf7bc8d5e22af9cc70e7f4c1840fb9ccc812a40f6bc65598e040fea3074464e0b937431055de2cd7c2b90a0e3ac9007f7bdd482222df552f332f0ec60fd3b011b5ca9c583435e99b604939199c66ac5fc8b43a4d3b3babf596769278cc6af9d097a6d06b9efd860495b71f161c0fb79935689c6fd1642264619a695b660c25e6e86b5d1588fb808728829a2cb1c7507181f888d04d8b5f95c1d50113b6e2933dbc5f65b299cc2979795dd95e513da64569c7e13143a83419b05b968e4dff102c59233e8ed48fd4853d2fb9d86ee1f79c90d2b9a4c38b74d6101636919e98b96c78260c0e20ea96e04396891cc712142984e49bbd253015d9efd1ef76059c24fc8e0e4245d6ee188f32156b9cea59f13602e703bc1620feebff3a486d2c2a4012d39b7bf57a9c7465ca2745ba7dd9e56d67808f2b7766a6d289362632f455e6296a7507948cacf492931862a0afb1bc2796400a605389f79503bfe1c6368fc6913afb5da40fe3d389e88a222a8a32f3267c3636ff255924921d5fc01d03bf54099bcebc9fa2192d723bb0d78e7dcb5eb4a5987e7b41f62389a6fe0b5d220609e4eb8c2c40c80b193099e30af05c31b9ac8c708fca4c0d0a0225b1e8ff1561c432502170ad85146f4fa5a5c257c129482e0df762e26cfd1d09d8e043641118c751b7fcff8d3d5b9458ee56b20ec8b6a124e3522308be52c48734ca01ae3e08d4f6cd619b4b010ec62f49d90a3d2181f52faa91817728ba9b9e2a64c64a7abd2f827eb6c533df67bfc0edcd2b8ee00a93b4b761a01994bc297c889bc1d4235245d408ebcbb2a30a27b75decbeab63d4c8777a2aa2042865fc8f612cec2cb636e6ea7dbf5289e02c282cf6b48e7382df75c678d0f26662bd28282ee82748fa8162521b38e9c803ac9989b2ee5cf86bcfad98e7ebb6a42c4956d04133a7514651ebf42f6bd521da6f53e0e12fcb99d4ab9720379aaa38a68a7a58605055cab996ad40e0442acb3f1564e3f131dd06001505ff30356821056c071cc2f4cf8434b0d0419158e84926b858db922971c1f497547a085436d9c4de17991a01f7db7d3762c6f7b5314caf2be1acd03a9adaad729486ef74313a8e34fdf6aa2076f15f4de7a05b928534c4a1c7e9347ddbba567e998f390f3a10c65ea9841e7f247b427b1222f11580278a89368bd4f7ae9b71162bba5cd4ee7481b508e679839d363afb9c9f9378a4c81ff0d780ae0a11845ddd1008da1af47c179acac6792edb2e031569e8a489aa4192e7bbc8ad9341a0dba1b65355df66bb66c6c673e2889a60a77f2668e9e8335d43f2eed60455d125acc0fb78eec3d8f17cd64529296fb8cd0025bebb8fa35ba5c35a138b7e223644c54f22cf4cb9c55df825e05e9673496efb2766d316f1a10c2840e381c3629140bb0c6414507e496a2488bff1910fe088a87b0835660c34cb58b46594b4161a8576f928c42a89cd733fb8274e0f85f537b4b1db46300a2c48619c2a2a0431d3276f43d06f5181ed5f681acac495934e0ff20f76b3a4c9501efd54ba1932910091a7c2999d9640ad850f43e006d3b17b4538b2400529440001b1986220fc3fb537b15653a1ea3d81f25e3ea948b7145e8d9aaffdb9c226d68c63e655d56137f3fd3a76c54654382f5da31b7bc8027a62c84ff442760fc0b7099a83d3b54886ce62bffd383673faf78f6299b6472fb83a163e9f93850f45a95f7d0d14235670a4a66df58021ed98ec63aab129a541c8f7cf7bfaff2653ac848f2340c070b5dca7ddb5e025e7a69cfbe651bb319794f917f92074efeb657dd65df470d077f0ab30b71cf2b41771957daf99001de54e186c1ab6b4f04a96318557827431e17d999b1e6073dd9279a38ef2e7ac50622b211e3de39d6cbf93ebaa853789658ffae0a48756111b2448cb1b22027b8f7612171e686f86acccdfe3f4fe021c202832353b3c648085adb0c1c5d0d9e0eef50c2c31384b4e515666676a9da0b1b5d70d11233d464b50626b86878d9b9da5abbac0cbcdd0e1f1f800000000000000000c20304801fd210500b299a12ad42edb8d31c3bd534eb29c47c42118cb717a30c503f7a2588c34a732228e8ef40476849ab934d1f6d57860399664f65f4960b94de470d276d29dbbf91fe1ad0eef8f8324b3a1e2395939d515f514d1c3cd1df4dcee6540539aa27f0e765c1bbba88ee6f5db3da498aa7a494f5fd4326c8888759fb3ce2eaa69da0d9de195a3c09eb0c5e92ce30a2fae040f631b44795feb58a81b3f5c95da31ab5a5edc412090f11b97c065b6b9ac204ad35a888d0bad925b6eca9768382dfc32b2e3e847d25e217b9f59d56e99fdafbdfc1baf940fa5b6ea2d9c039da4c2fefae28fa6fba26bbe35062251c74450ebb07a1776f1ed5d664e0530dcacadee24e80d8e0707ffe4fb98be87ec2b9e05f3fe425a0cd0bd0d89ea3266f27f4d7ad124bd015e40f9c41ecd031f381421591a9f3855c46e2685a545489474b70e046624d880ea31d2345923c44ce655b23750f0c9454b16027b86bf8104f0a6953c6ec7f4e8d343eb0fd55ba8107c4acd39e7beaea85a6d227648e502594f3809ca9fbe92d59a43f347ca05f44111f90b635a78ff24ecdc66c745377b116b6184ccfe2138d603b7a972d9ec429ec1694b8e3cd265a21b73c9337923e45527d4ea8670a7cbf22e1b5b9962f45b686d739314cd7b600db2bf1fefc02487f78700353dd0d36d48ffdc2d067e093fe87a43028652daf0884881eee2080fe0f5ec83fcab1a8c8c33b77cd434f6329463288b9ca879519c8a4a9e7e3d82721d72b45ee96aed6214be4831428978356f526b202117ff94b9e3ae90704ade86fe1269c297cfbc6a1f8fe96b83a9a912b6d9357eff33e9b15bddeb89fff06c94f112a9e8d61202b27d1768efb9c1944f7f16a34f2907b64414f231e6486e0159adc37cec1a968c1f7d516738e16c8d9008b556f10aa4a94cbd2742a86a2b97510c990b9ae709c2891db483efa113c1ea64c2d48d6ea5337442b431ac41bbea2858cf8b3059f40ffc7737a9f45f0d61362cc1cec64a31392877c01caebf4e38778e9849a2628ae9892b3d928449eb3d14448f341e28b16b72dfa84ea4e7c4b5e6eda3106ece4668d6478716c9056cb282757506bad3b7632e907302a30c19d2bc3127c488958e6147b9be69704004943e096794f6778092683d1f4d0b4dd4b555d9d22db05d4ba6cd934a1296cb822027616693a36feee07a5e38266ec86e3a3352e512ceb5afb110fd3ccc5a6120088716178b2ef6c3bc1618e311f3d6ac9576f1d0b16a28a8de47dbede5a72fbeb08ac44f31c3d3dd01f5477fcd510a1051e6253d1ee55d96b940b238b469353f2cbd5c9bed96c7c1e78778f656f07d69039e8bc23063f7fd774a1274c34b63d989a2613a10500571f6968bdd671c2b0563605fb4a46f68f1e23cc46cb1bbce69488743addf88ad274cf1f5308ff10097b59e613d453974a735d1b16bab1778f98c75aa41d743a32343ea90e8abbe19c16fb2b3f4d65ecf9705dfa41b8d9cbaf73f54f251c12340cf48ef5fe29b83bc9bccde953141d40cabfa2df88a8b69fdf1e83583794f727c20fdfa59aeb044ea309be11e9dbdba4596e20b7e4d981e61bd3ee7187c69d9fe8d673b76cd606c8042718402eeeadd8324ea3409d19d21b987a1953770831a76e949d8767439e9482d026869bf9d559c3b407762d4a0abc40bfb1b3e22aa9be97d0136223265d10f59a62a3b5a7b31fc5a8aa92ed155fa2c2361d2dada42fee3c9d5af03636e50b82b17f02eb2496ed782d2435e922dd3e0f9ac4c0b693d0da6119b52af7039bb601ea71809765e34606ced39c7271b100da49f83d7774f7423be78dcaa458087e749df113a37a2e907912f7f32aa7d000000",
  "txid": "394c0c214a2a65052afda5e244c20402eaa98d69303c3058e9559c68a1890751",
  "hash": "9a143f1c5102a7cbbc4cfd9d53c5080a88f1d6292c7d075aec6456b07e573f5f",
  "size": 5085,
  "vsize": 2278,
  "version": 1,
  "locktime": 125,
  "vin": [
    {
      "txid": "f6537ee5822b3d91e75e29f5fe69002c819e8f05a9690cbf10630e910cb4792c",
      "vout": 0,
      "scriptSig": {
        "asm": "",
        "hex": ""
      },
      "txinwitness": [
        "b98a8d61b2a552dceb444fe2e2db68da2304e41d3a601a7960353fab6fe4c9fcffea9ee711827104bb6e33da1e51822c3111cb857cfb6e4d1abe37f0c3cddd93cd4b2769176b1f369a9848337ae40282c524bb89ea29ee0880cb50d4d5a1d47a81047f4289758ffac9b98665c61b1e95d65f6d916e81b10b3a9db3c40e371dfbfa9d69409a12bc37926592aace320437283fc963e9c1feb447a405e51952b72317d907bede6fcf7a377844835f606c833d70037ccdf3dde2fe526e5a04ef0e0e305fa6f58985a0ec359a6f04b31966c2132b31d48aea0e536527aa140f1afa9a71bd05916399c7538e6837b85b8a6e0ed0c1711b36702fcaf54e217a54c1144b5f22932d6d55cd032d9d7cd515c434c56469337de316644d2c343e14d7b7f7cbfe4bf2ce93ef976a0e21c6f3f62938cc71ac90f38541adb676406f9a4a97841629e320f65a304e7e2118746ab835fc6592098dee4b3cd952d64b1ad55cf68550f029ca5ae4daf67b232279cbd733dac8c90751a5c0df46c88ffe202e178d10ceaef66febe4806113c92e5fcc7079dffce0d057be2c5c7328de4205d691230ab4b63a641de2731c6a2ca6a2f8a175f4fe9dd60052716e3e292b55063856a3bad47f4e8a2bf6451434beb5dc9d72cf9dcdac41832e8ebaede6311db23a48f2cbc299ea8c25fa8db166e5bc75145279ed5cb62e8ec1c617f27efeef6f0a0ccd5390b1a7a0bc044d37b08385c7a3506a8b6088108ab9a256e1da0a9532cfaec5d2e364bc1eeca360ccf23f97a7028edec9a934291f55652526c1297e509decacc7950eba36bcb14c524cbf8e3a56397e8d40f97dc29904b59b4ec2f8111228e86bad99bf4f6844f1e5d6e5c0d93b4484464047aa40422530361f03f510da166681b1008380229dee6f91162f070682dd1119b59de073d2adbe04cef2a9ea53ca168fc9c3c1414ad360607b73151742d971c9185642510d9db95a56f0626f45763e9603563d6485faae50d2a93c8d09479fecc77f90058ae4357672df5e4ea228dd4a01f4b1056dc85fdc1fee513d97078e90804f5aed42e55825f56af7c82bbb64de95cf4fc0023ff5a6e6cdb0fc0aad328102a8acf45fda3e4127c362d2b155ff948ca8ef541d8ee7205680e5fedaa9d912bdfd8e8a7cda70957d2e32218bb84bfae2fae0826a989da91adbb293b926400392eb68465b45848eb5cbe2468f04ca832ee15597d62566cfac2e85ce9f86b59b555b45e5afb7b932990fde503895a0a5401d56c29dcbc350b1716e6da89b10ff8783fbe4731f43a5bd27a3b8bdfc352726ecd8ef6ac96609a366f4cd54a5bd0958793e145e5774d97974a0aaaf8b8e61eec2c389e3a379ffcf7bc8d5e22af9cc70e7f4c1840fb9ccc812a40f6bc65598e040fea3074464e0b937431055de2cd7c2b90a0e3ac9007f7bdd482222df552f332f0ec60fd3b011b5ca9c583435e99b604939199c66ac5fc8b43a4d3b3babf596769278cc6af9d097a6d06b9efd860495b71f161c0fb79935689c6fd1642264619a695b660c25e6e86b5d1588fb808728829a2cb1c7507181f888d04d8b5f95c1d50113b6e2933dbc5f65b299cc2979795dd95e513da64569c7e13143a83419b05b968e4dff102c59233e8ed48fd4853d2fb9d86ee1f79c90d2b9a4c38b74d6101636919e98b96c78260c0e20ea96e04396891cc712142984e49bbd253015d9efd1ef76059c24fc8e0e4245d6ee188f32156b9cea59f13602e703bc1620feebff3a486d2c2a4012d39b7bf57a9c7465ca2745ba7dd9e56d67808f2b7766a6d289362632f455e6296a7507948cacf492931862a0afb1bc2796400a605389f79503bfe1c6368fc6913afb5da40fe3d389e88a222a8a32f3267c3636ff255924921d5fc01d03bf54099bcebc9fa2192d723bb0d78e7dcb5eb4a5987e7b41f62389a6fe0b5d220609e4eb8c2c40c80b193099e30af05c31b9ac8c708fca4c0d0a0225b1e8ff1561c432502170ad85146f4fa5a5c257c129482e0df762e26cfd1d09d8e043641118c751b7fcff8d3d5b9458ee56b20ec8b6a124e3522308be52c48734ca01ae3e08d4f6cd619b4b010ec62f49d90a3d2181f52faa91817728ba9b9e2a64c64a7abd2f827eb6c533df67bfc0edcd2b8ee00a93b4b761a01994bc297c889bc1d4235245d408ebcbb2a30a27b75decbeab63d4c8777a2aa2042865fc8f612cec2cb636e6ea7dbf5289e02c282cf6b48e7382df75c678d0f26662bd28282ee82748fa8162521b38e9c803ac9989b2ee5cf86bcfad98e7ebb6a42c4956d04133a7514651ebf42f6bd521da6f53e0e12fcb99d4ab9720379aaa38a68a7a58605055cab996ad40e0442acb3f1564e3f131dd06001505ff30356821056c071cc2f4cf8434b0d0419158e84926b858db922971c1f497547a085436d9c4de17991a01f7db7d3762c6f7b5314caf2be1acd03a9adaad729486ef74313a8e34fdf6aa2076f15f4de7a05b928534c4a1c7e9347ddbba567e998f390f3a10c65ea9841e7f247b427b1222f11580278a89368bd4f7ae9b71162bba5cd4ee7481b508e679839d363afb9c9f9378a4c81ff0d780ae0a11845ddd1008da1af47c179acac6792edb2e031569e8a489aa4192e7bbc8ad9341a0dba1b65355df66bb66c6c673e2889a60a77f2668e9e8335d43f2eed60455d125acc0fb78eec3d8f17cd64529296fb8cd0025bebb8fa35ba5c35a138b7e223644c54f22cf4cb9c55df825e05e9673496efb2766d316f1a10c2840e381c3629140bb0c6414507e496a2488bff1910fe088a87b0835660c34cb58b46594b4161a8576f928c42a89cd733fb8274e0f85f537b4b1db46300a2c48619c2a2a0431d3276f43d06f5181ed5f681acac495934e0ff20f76b3a4c9501efd54ba1932910091a7c2999d9640ad850f43e006d3b17b4538b2400529440001b1986220fc3fb537b15653a1ea3d81f25e3ea948b7145e8d9aaffdb9c226d68c63e655d56137f3fd3a76c54654382f5da31b7bc8027a62c84ff442760fc0b7099a83d3b54886ce62bffd383673faf78f6299b6472fb83a163e9f93850f45a95f7d0d14235670a4a66df58021ed98ec63aab129a541c8f7cf7bfaff2653ac848f2340c070b5dca7ddb5e025e7a69cfbe651bb319794f917f92074efeb657dd65df470d077f0ab30b71cf2b41771957daf99001de54e186c1ab6b4f04a96318557827431e17d999b1e6073dd9279a38ef2e7ac50622b211e3de39d6cbf93ebaa853789658ffae0a48756111b2448cb1b22027b8f7612171e686f86acccdfe3f4fe021c202832353b3c648085adb0c1c5d0d9e0eef50c2c31384b4e515666676a9da0b1b5d70d11233d464b50626b86878d9b9da5abbac0cbcdd0e1f1f800000000000000000c20304801",
        "00b299a12ad42edb8d31c3bd534eb29c47c42118cb717a30c503f7a2588c34a732228e8ef40476849ab934d1f6d57860399664f65f4960b94de470d276d29dbbf91fe1ad0eef8f8324b3a1e2395939d515f514d1c3cd1df4dcee6540539aa27f0e765c1bbba88ee6f5db3da498aa7a494f5fd4326c8888759fb3ce2eaa69da0d9de195a3c09eb0c5e92ce30a2fae040f631b44795feb58a81b3f5c95da31ab5a5edc412090f11b97c065b6b9ac204ad35a888d0bad925b6eca9768382dfc32b2e3e847d25e217b9f59d56e99fdafbdfc1baf940fa5b6ea2d9c039da4c2fefae28fa6fba26bbe35062251c74450ebb07a1776f1ed5d664e0530dcacadee24e80d8e0707ffe4fb98be87ec2b9e05f3fe425a0cd0bd0d89ea3266f27f4d7ad124bd015e40f9c41ecd031f381421591a9f3855c46e2685a545489474b70e046624d880ea31d2345923c44ce655b23750f0c9454b16027b86bf8104f0a6953c6ec7f4e8d343eb0fd55ba8107c4acd39e7beaea85a6d227648e502594f3809ca9fbe92d59a43f347ca05f44111f90b635a78ff24ecdc66c745377b116b6184ccfe2138d603b7a972d9ec429ec1694b8e3cd265a21b73c9337923e45527d4ea8670a7cbf22e1b5b9962f45b686d739314cd7b600db2bf1fefc02487f78700353dd0d36d48ffdc2d067e093fe87a43028652daf0884881eee2080fe0f5ec83fcab1a8c8c33b77cd434f6329463288b9ca879519c8a4a9e7e3d82721d72b45ee96aed6214be4831428978356f526b202117ff94b9e3ae90704ade86fe1269c297cfbc6a1f8fe96b83a9a912b6d9357eff33e9b15bddeb89fff06c94f112a9e8d61202b27d1768efb9c1944f7f16a34f2907b64414f231e6486e0159adc37cec1a968c1f7d516738e16c8d9008b556f10aa4a94cbd2742a86a2b97510c990b9ae709c2891db483efa113c1ea64c2d48d6ea5337442b431ac41bbea2858cf8b3059f40ffc7737a9f45f0d61362cc1cec64a31392877c01caebf4e38778e9849a2628ae9892b3d928449eb3d14448f341e28b16b72dfa84ea4e7c4b5e6eda3106ece4668d6478716c9056cb282757506bad3b7632e907302a30c19d2bc3127c488958e6147b9be69704004943e096794f6778092683d1f4d0b4dd4b555d9d22db05d4ba6cd934a1296cb822027616693a36feee07a5e38266ec86e3a3352e512ceb5afb110fd3ccc5a6120088716178b2ef6c3bc1618e311f3d6ac9576f1d0b16a28a8de47dbede5a72fbeb08ac44f31c3d3dd01f5477fcd510a1051e6253d1ee55d96b940b238b469353f2cbd5c9bed96c7c1e78778f656f07d69039e8bc23063f7fd774a1274c34b63d989a2613a10500571f6968bdd671c2b0563605fb4a46f68f1e23cc46cb1bbce69488743addf88ad274cf1f5308ff10097b59e613d453974a735d1b16bab1778f98c75aa41d743a32343ea90e8abbe19c16fb2b3f4d65ecf9705dfa41b8d9cbaf73f54f251c12340cf48ef5fe29b83bc9bccde953141d40cabfa2df88a8b69fdf1e83583794f727c20fdfa59aeb044ea309be11e9dbdba4596e20b7e4d981e61bd3ee7187c69d9fe8d673b76cd606c8042718402eeeadd8324ea3409d19d21b987a1953770831a76e949d8767439e9482d026869bf9d559c3b407762d4a0abc40bfb1b3e22aa9be97d0136223265d10f59a62a3b5a7b31fc5a8aa92ed155fa2c2361d2dada42fee3c9d5af03636e50b82b17f02eb2496ed782d2435e922dd3e0f9ac4c0b693d0da6119b52af7039bb601ea71809765e34606ced39c7271b100da49f83d7774f7423be78dcaa458087e749df113a37a2e907912f7f32aa"
      ],
      "sequence": 4294967294
    }
  ],
  "vout": [
    {
      "value": 1.0,
      "n": 0,
      "scriptPubKey": {
        "asm": "OP_RETURN fbe6a08425c854dd8bda57114749be11dcaac6c893ecf9cde6abfbdc0ecab307 3f9011203addfb1a12b4d2a44b605f3147ff6d441b8e31f461eb143358ea5d931fb031001afddb3a3294f2846b407f1167df4d643bae11d441cb341378ca7db37fd051607a9dbb5a52f492e40b201f7107bf2d045bce71b421ab547318aa1dd35ff071405abd9b7a72d4b2c42b003f51279f0d247bee5194018b7453388a3df3bf1091a0ba5d7b9a92345224cbe0dfb1c77fedc49b0eb174e16b94b3d86add139f30b1809a7d5bbab2147204ebc0ff91e75fcde4bb2e9154c14bb493f84afd33ff50d1e0fa1d3bdad27412648ba09ff1873fad84db4ef134a12bd4f3982a9d53df70f1c0da3d1bfaf2543244ab80bfd1a71f8da4fb6ed114810bf4d3b80abd733f9011203addfb1a12b4d2a44b605f3147ff6d441b8e31f461eb143358ea5d931fb031001afddb3a3294f2846b407f1167df4d643bae11d441cb341378ca7db37fd051607a9dbb5a52f492e40b201f7107bf2d045bce71b421ab547318aa1dd35ff071405abd9b7a72d4b2c42b003f51279f0d247bee5194018b7453388a3df3bf1091a0ba5d7b9a92345224cbe0dfb1c77fedc49b0eb174e16b94b3d86add139f30b1809a7d5bbab2147204ebc0ff91e75fcde4bb2e9154c14bb493f84afd33ff50d1e0fa1d3bdad27412648ba09ff1873fad84db4ef134a12bd4f3982a9d53df70f1c0da3d1bfaf2543244ab80bfd1a71f8da4fb6ed114810bf4d3b80abd733f9011203addfb1a12b4d2a44b605f3147ff6d441b8e31f461eb143358ea5d931fb031001afddb3a3294f2846b407f1167df4d643bae11d441cb341378ca7db37fd051607a9dbb5a52f492e40b201f7107bf2d045bce71b421ab547318aa1dd35ff071405abd9b7a72d4b2c42b003f51279f0d247bee5194018b7453388a3df3bf1091a0ba5d7b9a92345224cbe0dfb1c77fedc49b0eb174e16b94b3d86add139f30b1809a7d5bbab2147204ebc0ff91e75fcde4bb2e9154c14bb493f84afd33ff50d1e0fa1d3bdad27412648ba09ff1873fad84db4ef134a12bd4f3982a9d53df70f1c0da3d1bfaf2543244ab80bfd1a71f8da4fb6ed114810bf4d3b80abd733f9011203addfb1a12b4d2a44b605f3147ff6d441b8e31f461eb143358ea5d931fb031001afddb3a3294f2846b407f1167df4d643bae11d441cb341378ca7db37fd051607a9dbb5a52f492e40b201f7107bf2d045bce71b421ab547318aa1dd35ff071405abd9b7a72d4b2c42b003f51279f0d247bee5194018b7453388a3df3bf1091a0ba5d7b9a92345224cbe0dfb1c77fedc49b0eb174e16b94b3d86add139f30b1809a7d5bbab2147204ebc0ff91e75fcde4bb2e9154c14bb493f84afd33ff50d1e0fa1d3bdad27412648ba09ff1873fad84db4ef134a12bd4f3982a9d53df70f1c0da3d1bfaf2543244ab80bfd1a71f8da4fb6ed114810bf4d3b80abd733f9011203addfb1a12b4d2a44b605f3147ff6d441b8e31f461eb143358ea5d931fb031001afddb3a3294f2846b407f1167df4d643bae11d441cb341378ca7db37fd051607a9dbb5a52f492e40b201f7107bf2d045bce71b421ab547318aa1dd35ff071405abd9b7a72d4b2c42b003f51279f0d247bee5194018b7453388a3df3bf1091a0ba5d7b9a92345224cbe0dfb161e8af2bdfb8bbb175daae1d58cb96881f6be798653b54e8843b2b2c5a9e2afa",
        "hex": "6a20fbe6a08425c854dd8bda57114749be11dcaac6c893ecf9cde6abfbdc0ecab3074db0043f9011203addfb1a12b4d2a44b605f3147ff6d441b8e31f461eb143358ea5d931fb031001afddb3a3294f2846b407f1167df4d643bae11d441cb341378ca7db37fd051607a9dbb5a52f492e40b201f7107bf2d045bce71b421ab547318aa1dd35ff071405abd9b7a72d4b2c42b003f51279f0d247bee5194018b7453388a3df3bf1091a0ba5d7b9a92345224cbe0dfb1c77fedc49b0eb174e16b94b3d86add139f30b1809a7d5bbab2147204ebc0ff91e75fcde4bb2e9154c14bb493f84afd33ff50d1e0fa1d3bdad27412648ba09ff1873fad84db4ef134a12bd4f3982a9d53df70f1c0da3d1bfaf2543244ab80bfd1a71f8da4fb6ed114810bf4d3b80abd733f9011203addfb1a12b4d2a44b605f3147ff6d441b8e31f461eb143358ea5d931fb031001afddb3a3294f2846b407f1167df4d643bae11d441cb341378ca7db37fd051607a9dbb5a52f492e40b201f7107bf2d045bce71b421ab547318aa1dd35ff071405abd9b7a72d4b2c42b003f51279f0d247bee5194018b7453388a3df3bf1091a0ba5d7b9a92345224cbe0dfb1c77fedc49b0eb174e16b94b3d86add139f30b1809a7d5bbab2147204ebc0ff91e75fcde4bb2e9154c14bb493f84afd33ff50d1e0fa1d3bdad27412648ba09ff1873fad84db4ef134a12bd4f3982a9d53df70f1c0da3d1bfaf2543244ab80bfd1a71f8da4fb6ed114810bf4d3b80abd733f9011203addfb1a12b4d2a44b605f3147ff6d441b8e31f461eb143358ea5d931fb031001afddb3a3294f2846b407f1167df4d643bae11d441cb341378ca7db37fd051607a9dbb5a52f492e40b201f7107bf2d045bce71b421ab547318aa1dd35ff071405abd9b7a72d4b2c42b003f51279f0d247bee5194018b7453388a3df3bf1091a0ba5d7b9a92345224cbe0dfb1c77fedc49b0eb174e16b94b3d86add139f30b1809a7d5bbab2147204ebc0ff91e75fcde4bb2e9154c14bb493f84afd33ff50d1e0fa1d3bdad27412648ba09ff1873fad84db4ef134a12bd4f3982a9d53df70f1c0da3d1bfaf2543244ab80bfd1a71f8da4fb6ed114810bf4d3b80abd733f9011203addfb1a12b4d2a44b605f3147ff6d441b8e31f461eb143358ea5d931fb031001afddb3a3294f2846b407f1167df4d643bae11d441cb341378ca7db37fd051607a9dbb5a52f492e40b201f7107bf2d045bce71b421ab547318aa1dd35ff071405abd9b7a72d4b2c42b003f51279f0d247bee5194018b7453388a3df3bf1091a0ba5d7b9a92345224cbe0dfb1c77fedc49b0eb174e16b94b3d86add139f30b1809a7d5bbab2147204ebc0ff91e75fcde4bb2e9154c14bb493f84afd33ff50d1e0fa1d3bdad27412648ba09ff1873fad84db4ef134a12bd4f3982a9d53df70f1c0da3d1bfaf2543244ab80bfd1a71f8da4fb6ed114810bf4d3b80abd733f9011203addfb1a12b4d2a44b605f3147ff6d441b8e31f461eb143358ea5d931fb031001afddb3a3294f2846b407f1167df4d643bae11d441cb341378ca7db37fd051607a9dbb5a52f492e40b201f7107bf2d045bce71b421ab547318aa1dd35ff071405abd9b7a72d4b2c42b003f51279f0d247bee5194018b7453388a3df3bf1091a0ba5d7b9a92345224cbe0dfb161e8af2bdfb8bbb175daae1d58cb96881f6be798653b54e8843b2b2c5a9e2afa",
        "type": "nulldata"
      }
    },
    {
      "value": 499972.5437,
      "n": 1,
      "scriptPubKey": {
        "asm": "1 ec03574fc463eca99ecf20cf561cfb3b14c48fc7f0bd898eaa1c90a157436d9a",
        "hex": "5120ec03574fc463eca99ecf20cf561cfb3b14c48fc7f0bd898eaa1c90a157436d9a",
        "reqSigs": 1,
        "type": "witness_v1_scripthash",
        "addresses": [
          "3QJmnh"
        ]
      }
    }
  ],
  "blockhash": "e6a4adf54726245f4c34283d217923918cb1557d6baaa77edf2bc72597605551",
  "confirmations": 1,
  "time": 1764181118,
  "blocktime": 1764181118
}