{
  "hex": "01000000000101ffe28346c67241557f41fd4d1e21fb954a74c57af018d6389265b2bc9ae9c5f70000000000feffffff02f0ceba8f782d0000225120ecb12e9b87cbd102238ee7eed89addeec944292a1f4fed557b4170d18fafe72700e1f50500000000fdd5046a2086996b042d0b6fbb28a4b478cc6e2866532ad74e357b742ef5398ce6b56a1c774db0041d852925425da1194c21212cf81fc418b2a4156931fc2655e6e0e3b457ae8e4a3da50905627d81396c01010cd83fe4389284354911dc0675c6c0c394778eae6a5dc56965021de1590c61616cb85f8458f2e4552971bc6615a6a0a3f417eece0a7de54945223dc1792c41414c987fa478d2c47509519c4635868083d437ceee2a9d05a9a5c2dd2199cca1a1ac789f4498322495e9b17ca6d566606334d72e0ecabd258985e2fd01b9ec81818c58bf64b81204b5c9915c86f546404314f70e2eeadd45e9e5829d61d98ce1e1ec38df04d87264d5a9f13ce69526202374976e4e8afd65c9c5a2bd41f9acc1c1cc18ff24f85244f589d11cc6b506000354b74e6eaa1d852925425da1194c21212cf81fc418b2a4156931fc2655e6e0e3b457ae8e4a3da50905627d81396c01010cd83fe4389284354911dc0675c6c0c394778eae6a5dc56965021de1590c61616cb85f8458f2e4552971bc6615a6a0a3f417eece0a7de54945223dc1792c41414c987fa478d2c47509519c4635868083d437ceee2a9d05a9a5c2dd2199cca1a1ac789f4498322495e9b17ca6d566606334d72e0ecabd258985e2fd01b9ec81818c58bf64b81204b5c9915c86f546404314f70e2eeadd45e9e5829d61d98ce1e1ec38df04d87264d5a9f13ce69526202374976e4e8afd65c9c5a2bd41f9acc1c1cc18ff24f85244f589d11cc6b506000354b74e6eaa1d852925425da1194c21212cf81fc418b2a4156931fc2655e6e0e3b457ae8e4a3da50905627d81396c01010cd83fe4389284354911dc0675c6c0c394778eae6a5dc56965021de1590c61616cb85f8458f2e4552971bc6615a6a0a3f417eece0a7de54945223dc1792c41414c987fa478d2c47509519c4635868083d437ceee2a9d05a9a5c2dd2199cca1a1ac789f4498322495e9b17ca6d566606334d72e0ecabd258985e2fd01b9ec81818c58bf64b81204b5c9915c86f546404314f70e2eeadd45e9e5829d61d98ce1e1ec38df04d87264d5a9f13ce69526202374976e4e8afd65c9c5a2bd41f9acc1c1cc18ff24f85244f589d11cc6b506000354b74e6eaa1d852925425da1194c21212cf81fc418b2a4156931fc2655e6e0e3b457ae8e4a3da50905627d81396c01010cd83fe4389284354911dc0675c6c0c394778eae6a5dc56965021de1590c61616cb85f8458f2e4552971bc6615a6a0a3f417eece0a7de54945223dc1792c41414c987fa478d2c47509519c4635868083d437ceee2a9d05a9a5c2dd2199cca1a1ac789f4498322495e9b17ca6d566606334d72e0ecabd258985e2fd01b9ec81818c58bf64b81204b5c9915c86f546404314f70e2eeadd45e9e5829d61d98ce1e1ec38df04d87264d5a9f13ce69526202374976e4e8afd65c9c5a2bd41f9acc1c1cc18ff24f85244f589d11cc6b506000354b74e6eaa1d852925425da1194c21212cf81fc418b2a4156931fc2655e6e0e3b457ae8e4a3da50905627d81396c01010cd83fe4389284354911dc0675c6c0c394778eae6a5dc56965021de1590c61616cb85f8458f2e4552971bc6615a6a0a3f417eece0a7de54945223dc1792c41414c987fa478d2c47509519c4635868083d437ceee2a9d05a9a5c2dd2199cca1a1ac789f4498ebd844539e548fee1be45cefb5b6802ad5eb06ab9a552347e8b14da1ea67bd8f02fd7509523f2552f1811a9d9900e60271e16e2158f9786622cde5b6237037439a3dfe18501d7aa4aecf6e7af07cfaa754c2ff17f034878c3cefc3edab285284eabeb2a31d98d7e315fce28c76301090e8a37ed75fb3010c49cb96dd46ddba4fb71315716ddeb887b8ec9c8f6a149b4682ce6ec2e6243a98035564af2886588477212f8c700553b217e5d09317a48ab7d52a5b5b2a958f8569efcc443d0beaf9f7a509a6979d233f81b90c076696a72f3726497fc8d74a770f98a8a920a475085316cb1bcdb397ebd8f9e8297fd7441e67fe7ede63f80e746469fa35691075a94374b874bcc134ca01799c30b2450dd56440c5e60ffbe86ac3ab9d529700943ec0e5ff9fa3b89e6597743cf5479e4181065f6f49584458ea9d107c8d49fb6e9831d8262252704bc05e3ca0bd5877341e93aeaccedca2031916197f480e3ab5041620c9571e20060e69c5c68e948c55195e475d55c3a6ae30807c26a7e3948c6015731f4cc73220b189ba62f749ef7a5681694d47a9dc87b43de287a56a29d74f4fed7364c5a94543fc4b5e4ca455e333a98ac73a2cb538e16697e5a991abb58bede195cd5b8f7190e57c3951149af5454b7b36f665e173afcebdfaf03357ca672521f0e1ff883d4a275ecb236aa1345475693f9be3f1276d9bc00bb17e8128b467933abc99a69e70e5fc69219b0831e7d145bd4c6763e672d41bbbc3942caab4ff1e73b5f02c8e550750dd98de3e17e0e9525169da056b3103548303926560dbfb1e93baf879fb1d1ab61052592e5c9f9bd6944d58a42f5a5a52417e1e9bd70093edec94bc7cbb14753ba0798cce4d0fee92d72aa4e97ad83feacc15b57a70be3990c3e44cdc6156388825c431635d193ba6d7a8e9045fd5f3ee387f8e50d05f68aa45da91fbf69d8fce177dd31107fb2045244947e210f24260fc7f037edae66bee98ef7d8c73972b6a63320c2a6e174b7ec907e22b68702decb2ebc246cfaead19bdb9074e5ed0eab66af92875fa5e05ad0a9617ea226a456b329355c43f9b1bd14c1810f3e653e43291bd805c87c7215bd30bc7a14948a5c0edf326a135d611e61ca4fba7336fc414120a3f1d60cd6b10ffbb2f41bb6c9d7cc84d692faa628029363c6db0cff0f0c0d7cba6183c04f8b2176397bf690aef9e8bb88e0a0ed4389eb05f9fa5402342dadd661bc0c2e615f5d708781ef3896c35da0413d33411031110fb97bf3146ec6886863a549ee9a9d5c07ea015feb446b179e8de3989998902a0373c7bedde5cfc8a25e92cc264d74ed62a386b9f7b6bb203eb26daeaa56213602e190481134de15787655c815a9d7b0f12fc6a28a1867784d28ec5ef589bc8c8dec80d459d2d8073e1f067b142fcb7b5658c90678cd6754739b03a15342245339f4c26870347648bed868f2d02bf07eb6196683cf1ad4b2b432a47e42da4a2ca4ba900ae265ec4e4aef2c2a6f53d59ef080aeb3032986e73b6827ecf1170d5b495554992399466ca2c61bada79a54d3953478ce86c16e659f5b024606c8027d8eeaa3cfd140da7bd74f576ec5f320c15e87ea7bc92579301661bee80c26b5c1771002317306d354679a920f6c07e8e305d3eeb1b7eefc7ac8e9b347444eec00dab8806a775f5ecf35e7b01fbc69634d63f312473114b5e5e3ca37434c4cb61576ad53321efc1db1be03d3c903247e05f40e935d5b777de035586a69641d902361a60f8980aa11cbb1f7e8d0f17f20a0d813b7095e0b6d803f5d2d624ea25d0c5b25ef3dcd1bfc96accb2d518c2315e7b2268fd9f9f6c3cb0d3ac3db4c93f5717e03c46a06f4846fdd1d7ec2f5bbd4c6cfd912835340835608e95ddd5fec3a6ad7fe2f57cc0821f874273ed606e8ad91935760d3ae88d01bdec61b4e04839bee9631292c6335540adde959fe0f38e258ffc15fc7921b7237ab0adec9fd528854bc1a9c02e2b4a442dc962a55a7eea55fc852dead1437ea96b952496a1f21b329973bdd1efcdea0bd02bccd5027f4a9b96a5fe44d8aecf41c89dd163fe83d68c0e357f434119f52e9e0e6cd4d10f928afbae0514540fc7b0853147d5d011a611eae9870adae0d9eb236cc28ad34c978bcfb26be7bc60743f191ab4e0d419252900cea455c644c9b01fe8aa7764b6dd6b2fd71f2d90c2384c2de29cad1d58ed4d387a246ef4f6ddeed169eaf8969022816715897c989720d1b2e4bce5347343d0f0cc914417b7e3091fc9810e141e91e6d185b09985924708f9a32d616e761ecdfd7aeff80ee8829ebf351e679bc0d5a989e2fc5c286835f4ef18c8b8407bbb5cbdb5a18404fb1f00718f416cae192621f5694e14482eb2601ad1d2687c4ddc62b2022fb2cf2a8c5002406c6ed70dead7c62c17cc2d96ca1b7e1f55f78727ed9c6e5661df16c75c20f0175f0e0458c82b9b369079957f9dc29f400a702736cce7cf5464c8dd10cade5eeef5a47e2d2a0589cbae9223f7fb0518e5caba13867a61a0b4c603387040d88ee68c67d934150da293f95bd86b2f4e906c12ed79532996a53f45c858963868c4542bc7f8b0ba017bbdaba8abdf1dbb4f4dde27f7050ff0c590ab9c7632ca8d6ac6f92845e4b15615f39d8cbb5d904dcdc01d83d8396172552fae0c12d66d33ed81da2a7878830aceae7e59dbc755f847090c8dc65616ce86ae1cc100f3c98a98e18fa7639139a6eacb83be9bcc802ee1edbe1e62025ac4f8ca6d04ea339ecf749a1b297534c83fbe09262746f540303c5aa55413d8dc031007eb7142e5b0d3bd2c66dc0733bd5977b283819ebf9de2ee21003d06a44bf307a0d4ffb59ec86ac755e1a3552cf525ae578244326e05d55507347ef4dc63d1233b8638bf420513bf46daad237dcbe85e0c150d3705e008a717f54b2d432a5e309d40bf8d69270eb95f386d9903f009929ba0ce7214d5fe58050fcf61fb3da9a0d627f7f82615595c767a990cab216f14878321818c3158691c0a10c60c0ca146da4685d46ee10b96b5a017f1f56ab8309676bec4544d38ce784ff1e0525a6e2bef0dfa655a3e3d48ac31b2dc3724defd3bc2e4e713a7c996c7c6d41321d11b7ef2bacb7409a822d94840f073658da45e22b09fb6fcfb97056d747dbc64bd61b46a64e26d2e6864904e2644c0c5ecf421056761f4eda23dcbdbdf43fc2dbd3cfcfb4dd5c3ad700c971865bedb02aec71385e900c6499041b5723ca6ee08a0f3a40cc7d9ad111908e3c3d352ebed7289612d763f79070b68e3debf204ee4e423b5b5895d27a6f802436e4f3e6e02663b2e07d212068de124db58a749510528fd784f0320383d4f5f7072797a7d7fa3cddeeaee0316313d68698385a3adb1becbd2ff406c8ea7b2ccd4d9da1011122c334e585e6f9faab6cce7eaee00000000000000000000000000000000000000000000001120293901fd210500be51b181b02224a1ce17759f9b40c7b8552a314d020500220d3a4a90ccc81afb30644dbeaa28b32b406ddd86c387b9942bbf42a07c314fa8b0fca43d40ef07a9770a431ad4b5b1922dc560f68efc6c65d1e5a9dc0654d2099b313188f5f3af70e6ddefc024dfc4ac0eb53a1daf25926c8f7f223566351a0ced048a9389b63413e91d3c7a5f501d732ff2fa2736949103f2d79f162aac76b66bc22fe19e96f1bfcd50143206ecf89a3ddb8c28932055dfa61477b063e4da60c5b4cf7db82e5bff37486b117ddc711b180db91416e2b37794629c0337daf6694ca52a3ea8ba7e71769684cf30be35b715f3ef6330ec0fdc3a0fc19ee5276a53f9790d634d4f1cca75507340fe5d7ddcbc1bddbafcc8b36bfd4d72c5a25eda34722343bca7519be68506eed11bdbf32c68a9c5e7429d22da02fce4d37fe494f0193b44a279dcbf5f7f75421ae9a4cd7b2249f77a3080759ab6baf9cabd5181186ec2c1d0c15ca3507d605a59f74a7065b1d49d1cbebd164d100c312118657615a8f151084c17352b5481220a2bd091422cef779578ddde8f2a2dbdacc81e1d156db4b9263a74de81893332ac5fcc1d8e041b37a8af8bfa24b33f4a6c7964b76772a412779d7ea571dd918817eeb61ec30f8ffca39f45579e0f231225f7ba4d8596553098fcbc74d43b61150571f8462c98cca5813cf95d759af4a625048a495fe1decb9f6de219fa4fd18658a0b99c34d2b3b108eee5516d82591baf2a68ebfc1c61425628be0e5af2a7320d90a77bbddbea52a4331e668bfc4c52caaf922732a10df1933d680ad2a46a4f48fe56afe1a9f587a2d8e493fefd66851ded6f72f845d1adff0004b2adc80c94154a03de522908f38a105f509d97967979b16fda46a5526d5ebe3a598167cf8cc6d8c45ba79f4ec6968c5e81b0c52a8dd97cc8d4102ce63fd41efd351a0a419530be58d4782b5c2ec4c026a1aa6540663f788f901caf139d7c615347b3f6817b3c3c25c34cb7e75502c7690203fa426718399f2c7a89627c697a159c44e6661fe4db2fb263aaff7e2f8e300fa002e18ee8b2d637aff6aea1191ed0003420713efeb8efb2ef67b97d859fe25c1ff66a82ad08e5ef41f20dccc52cf680276b294ffd686644f4b1c0c130f4ac223ccba05c1d397a9242d4ccbaf4271e2dd7fffcda90b0cdf3cc04c1a83a08174f14316910f1a7409f480b40a3bd5c0f6cdb7f69ae6bd0edda2e2bcf092f61abaeacec8bc30c2da2888b9e67e34725593fb9467d9691a15a3eb3e168ead6307d3a8a14ac406c3874dd366de91b14c9e7271e534c420759a1a0d28e24c77623fea4baf91431af9e4fe6cd8f4bd5a38cb5f62e8b71222aed6ea9382ffbaa76b89f9e25eb9645213bb6c555b3d2eddfb41b831d4af2e4a6547efcd08754131e69fe1b139d3e0b7c62c9f09982b4dd87f29cd8849e6abb89a61ee6338efd0f1cc26502d613f7218f6132f1e7341dabd7c2a0a69b7a9c14f0dd6c0b5034eab472c47d85f2df8549229c304656e5fa63624e384563aff61194b54b7487a786ee52bc576dd8ecd8a7d6dd40a977eae36987a32a820dbed6ad8a624e77958f9d70773702653bed94a37abcd2e7839d4b14e0dddcefd9cf3ea4c767cdf62ec767c7d31daba87d496851eb064e236f17f6687287569be1cf4548273c9dfdb074b7180bcff0a25b543bb829707eeaa79fdd2ddec0c2951902992d95fe5248025371cb2a62d0fdf27acf090e62d635cf7b389ab03f8a38b55eda12b61214578b4e6eb64b1bcd7e3ddd49c12883f5fb4c5f21d1b439bea819be5fce8402a8f30d761c7b56b90293d91e04778444b860e09751fa241e16f65635000000",
  "txid": "3b82750719b3b10a6e13a3964b7890e21c022c8f63c25b284869bc579b628054",
  "hash": "4b54e12afd33107f31d9cbb59ad0fa6018adb6303392346f869b90ca3ed073d9",
  "size": 5085,
  "vsize": 2278,
  "version": 1,
  "locktime": 53,
  "vin": [
    {
      "txid": "f7c5e99abcb2659238d618f07ac5744a95fb211e4dfd417f554172c64683e2ff",
      "vout": 0,
      "scriptSig": {
        "asm": "",
        "hex": ""
      },
      "txinwitness": [
        "523f2552f1811a9d9900e60271e16e2158f9786622cde5b6237037439a3dfe18501d7aa4aecf6e7af07cfaa754c2ff17f034878c3cefc3edab285284eabeb2a31d98d7e315fce28c76301090e8a37ed75fb3010c49cb96dd46ddba4fb71315716ddeb887b8ec9c8f6a149b4682ce6ec2e6243a98035564af2886588477212f8c700553b217e5d09317a48ab7d52a5b5b2a958f8569efcc443d0beaf9f7a509a6979d233f81b90c076696a72f3726497fc8d74a770f98a8a920a475085316cb1bcdb397ebd8f9e8297fd7441e67fe7ede63f80e746469fa35691075a94374b874bcc134ca01799c30b2450dd56440c5e60ffbe86ac3ab9d529700943ec0e5ff9fa3b89e6597743cf5479e4181065f6f49584458ea9d107c8d49fb6e9831d8262252704bc05e3ca0bd5877341e93aeaccedca2031916197f480e3ab5041620c9571e20060e69c5c68e948c55195e475d55c3a6ae30807c26a7e3948c6015731f4cc73220b189ba62f749ef7a5681694d47a9dc87b43de287a56a29d74f4fed7364c5a94543fc4b5e4ca455e333a98ac73a2cb538e16697e5a991abb58bede195cd5b8f7190e57c3951149af5454b7b36f665e173afcebdfaf03357ca672521f0e1ff883d4a275ecb236aa1345475693f9be3f1276d9bc00bb17e8128b467933abc99a69e70e5fc69219b0831e7d145bd4c6763e672d41bbbc3942caab4ff1e73b5f02c8e550750dd98de3e17e0e9525169da056b3103548303926560dbfb1e93baf879fb1d1ab61052592e5c9f9bd6944d58a42f5a5a52417e1e9bd70093edec94bc7cbb14753ba0798cce4d0fee92d72aa4e97ad83feacc15b57a70be3990c3e44cdc6156388825c431635d193ba6d7a8e9045fd5f3ee387f8e50d05f68aa45da91fbf69d8fce177dd31107fb2045244947e210f24260fc7f037edae66bee98ef7d8c73972b6a63320c2a6e174b7ec907e22b68702decb2ebc246cfaead19bdb9074e5ed0eab66af92875fa5e05ad0a9617ea226a456b329355c43f9b1bd14c1810f3e653e43291bd805c87c7215bd30bc7a14948a5c0edf326a135d611e61ca4fba7336fc414120a3f1d60cd6b10ffbb2f41bb6c9d7cc84d692faa628029363c6db0cff0f0c0d7cba6183c04f8b2176397bf690aef9e8bb88e0a0ed4389eb05f9fa5402342dadd661bc0c2e615f5d708781ef3896c35da0413d33411031110fb97bf3146ec6886863a549ee9a9d5c07ea015feb446b179e8de3989998902a0373c7bedde5cfc8a25e92cc264d74ed62a386b9f7b6bb203eb26daeaa56213602e190481134de15787655c815a9d7b0f12fc6a28a1867784d28ec5ef589bc8c8dec80d459d2d8073e1f067b142fcb7b5658c90678cd6754739b03a15342245339f4c26870347648bed868f2d02bf07eb6196683cf1ad4b2b432a47e42da4a2ca4ba900ae265ec4e4aef2c2a6f53d59ef080aeb3032986e73b6827ecf1170d5b495554992399466ca2c61bada79a54d3953478ce86c16e659f5b024606c8027d8eeaa3cfd140da7bd74f576ec5f320c15e87ea7bc92579301661bee80c26b5c1771002317306d354679a920f6c07e8e305d3eeb1b7eefc7ac8e9b347444eec00dab8806a775f5ecf35e7b01fbc69634d63f312473114b5e5e3ca37434c4cb61576ad53321efc1db1be03d3c903247e05f40e935d5b777de035586a69641d902361a60f8980aa11cbb1f7e8d0f17f20a0d813b7095e0b6d803f5d2d624ea25d0c5b25ef3dcd1bfc96accb2d518c2315e7b2268fd9f9f6c3cb0d3ac3db4c93f5717e03c46a06f4846fdd1d7ec2f5bbd4c6cfd912835340835608e95ddd5fec3a6ad7fe2f57cc0821f874273ed606e8ad91935760d3ae88d01bdec61b4e04839bee9631292c6335540adde959fe0f38e258ffc15fc7921b7237ab0adec9fd528854bc1a9c02e2b4a442dc962a55a7eea55fc852dead1437ea96b952496a1f21b329973bdd1efcdea0bd02bccd5027f4a9b96a5fe44d8aecf41c89dd163fe83d68c0e357f434119f52e9e0e6cd4d10f928afbae0514540fc7b0853147d5d011a611eae9870adae0d9eb236cc28ad34c978bcfb26be7bc60743f191ab4e0d419252900cea455c644c9b01fe8aa7764b6dd6b2fd71f2d90c2384c2de29cad1d58ed4d387a246ef4f6ddeed169eaf8969022816715897c989720d1b2e4bce5347343d0f0cc914417b7e3091fc9810e141e91e6d185b09985924708f9a32d616e761ecdfd7aeff80ee8829ebf351e679bc0d5a989e2fc5c286835f4ef18c8b8407bbb5cbdb5a18404fb1f00718f416cae192621f5694e14482eb2601ad1d2687c4ddc62b2022fb2cf2a8c5002406c6ed70dead7c62c17cc2d96ca1b7e1f55f78727ed9c6e5661df16c75c20f0175f0e0458c82b9b369079957f9dc29f400a702736cce7cf5464c8dd10cade5eeef5a47e2d2a0589cbae9223f7fb0518e5caba13867a61a0b4c603387040d88ee68c67d934150da293f95bd86b2f4e906c12ed79532996a53f45c858963868c4542bc7f8b0ba017bbdaba8abdf1dbb4f4dde27f7050ff0c590ab9c7632ca8d6ac6f92845e4b15615f39d8cbb5d904dcdc01d83d8396172552fae0c12d66d33ed81da2a7878830aceae7e59dbc755f847090c8dc65616ce86ae1cc100f3c98a98e18fa7639139a6eacb83be9bcc802ee1edbe1e62025ac4f8ca6d04ea339ecf749a1b297534c83fbe09262746f540303c5aa55413d8dc031007eb7142e5b0d3bd2c66dc0733bd5977b283819ebf9de2ee21003d06a44bf307a0d4ffb59ec86ac755e1a3552cf525ae578244326e05d55507347ef4dc63d1233b8638bf420513bf46daad237dcbe85e0c150d3705e008a717f54b2d432a5e309d40bf8d69270eb95f386d9903f009929ba0ce7214d5fe58050fcf61fb3da9a0d627f7f82615595c767a990cab216f14878321818c3158691c0a10c60c0ca146da4685d46ee10b96b5a017f1f56ab8309676bec4544d38ce784ff1e0525a6e2bef0dfa655a3e3d48ac31b2dc3724defd3bc2e4e713a7c996c7c6d41321d11b7ef2bacb7409a822d94840f073658da45e22b09fb6fcfb97056d747dbc64bd61b46a64e26d2e6864904e2644c0c5ecf421056761f4eda23dcbdbdf43fc2dbd3cfcfb4dd5c3ad700c971865bedb02aec71385e900c6499041b5723ca6ee08a0f3a40cc7d9ad111908e3c3d352ebed7289612d763f79070b68e3debf204ee4e423b5b5895d27a6f802436e4f3e6e02663b2e07d212068de124db58a749510528fd784f0320383d4f5f7072797a7d7fa3cddeeaee0316313d68698385a3adb1becbd2ff406c8ea7b2ccd4d9da1011122c334e585e6f9faab6cce7eaee00000000000000000000000000000000000000000000001120293901",
        "00be51b181b02224a1ce17759f9b40c7b8552a314d020500220d3a4a90ccc81afb30644dbeaa28b32b406ddd86c387b9942bbf42a07c314fa8b0fca43d40ef07a9770a431ad4b5b1922dc560f68efc6c65d1e5a9dc0654d2099b313188f5f3af70e6ddefc024dfc4ac0eb53a1daf25926c8f7f223566351a0ced048a9389b63413e91d3c7a5f501d732ff2fa2736949103f2d79f162aac76b66bc22fe19e96f1bfcd50143206ecf89a3ddb8c28932055dfa61477b063e4da60c5b4cf7db82e5bff37486b117ddc711b180db91416e2b37794629c0337daf6694ca52a3ea8ba7e71769684cf30be35b715f3ef6330ec0fdc3a0fc19ee5276a53f9790d634d4f1cca75507340fe5d7ddcbc1bddbafcc8b36bfd4d72c5a25eda34722343bca7519be68506eed11bdbf32c68a9c5e7429d22da02fce4d37fe494f0193b44a279dcbf5f7f75421ae9a4cd7b2249f77a3080759ab6baf9cabd5181186ec2c1d0c15ca3507d605a59f74a7065b1d49d1cbebd164d100c312118657615a8f151084c17352b5481220a2bd091422cef779578ddde8f2a2dbdacc81e1d156db4b9263a74de81893332ac5fcc1d8e041b37a8af8bfa24b33f4a6c7964b76772a412779d7ea571dd918817eeb61ec30f8ffca39f45579e0f231225f7ba4d8596553098fcbc74d43b61150571f8462c98cca5813cf95d759af4a625048a495fe1decb9f6de219fa4fd18658a0b99c34d2b3b108eee5516d82591baf2a68ebfc1c61425628be0e5af2a7320d90a77bbddbea52a4331e668bfc4c52caaf922732a10df1933d680ad2a46a4f48fe56afe1a9f587a2d8e493fefd66851ded6f72f845d1adff0004b2adc80c94154a03de522908f38a105f509d97967979b16fda46a5526d5ebe3a598167cf8cc6d8c45ba79f4ec6968c5e81b0c52a8dd97cc8d4102ce63fd41efd351a0a419530be58d4782b5c2ec4c026a1aa6540663f788f901caf139d7c615347b3f6817b3c3c25c34cb7e75502c7690203fa426718399f2c7a89627c697a159c44e6661fe4db2fb263aaff7e2f8e300fa002e18ee8b2d637aff6aea1191ed0003420713efeb8efb2ef67b97d859fe25c1ff66a82ad08e5ef41f20dccc52cf680276b294ffd686644f4b1c0c130f4ac223ccba05c1d397a9242d4ccbaf4271e2dd7fffcda90b0cdf3cc04c1a83a08174f14316910f1a7409f480b40a3bd5c0f6cdb7f69ae6bd0edda2e2bcf092f61abaeacec8bc30c2da2888b9e67e34725593fb9467d9691a15a3eb3e168ead6307d3a8a14ac406c3874dd366de91b14c9e7271e534c420759a1a0d28e24c77623fea4baf91431af9e4fe6cd8f4bd5a38cb5f62e8b71222aed6ea9382ffbaa76b89f9e25eb9645213bb6c555b3d2eddfb41b831d4af2e4a6547efcd08754131e69fe1b139d3e0b7c62c9f09982b4dd87f29cd8849e6abb89a61ee6338efd0f1cc26502d613f7218f6132f1e7341dabd7c2a0a69b7a9c14f0dd6c0b5034eab472c47d85f2df8549229c304656e5fa63624e384563aff61194b54b7487a786ee52bc576dd8ecd8a7d6dd40a977eae36987a32a820dbed6ad8a624e77958f9d70773702653bed94a37abcd2e7839d4b14e0dddcefd9cf3ea4c767cdf62ec767c7d31daba87d496851eb064e236f17f6687287569be1cf4548273c9dfdb074b7180bcff0a25b543bb829707eeaa79fdd2ddec0c2951902992d95fe5248025371cb2a62d0fdf27acf090e62d635cf7b389ab03f8a38b55eda12b61214578b4e6eb64b1bcd7e3ddd49c12883f5fb4c5f21d1b439bea819be5fce8402a8f30d761c7b56b90293d91e04778444b860e09751fa241e16f656"
      ],
      "sequence": 4294967294
    }
  ],
  "vout": [
    {
      "value": 499958.3071,
      "n": 0,
      "scriptPubKey": {
        "asm": "1 ecb12e9b87cbd102238ee7eed89addeec944292a1f4fed557b4170d18fafe727",
        "hex": "5120ecb12e9b87cbd102238ee7eed89addeec944292a1f4fed557b4170d18fafe727",
        "reqSigs": 1,
        "type": "witness_v1_scripthash",
        "addresses": [
          "3QJmnh"
        ]
      }
    },
    {
      "value": 1.0,
      "n": 1,
      "scriptPubKey": {
        "asm": "OP_RETURN 86996b042d0b6fbb28a4b478cc6e2866532ad74e357b742ef5398ce6b56a1c77 1d852925425da1194c21212cf81fc418b2a4156931fc2655e6e0e3b457ae8e4a3da50905627d81396c01010cd83fe4389284354911dc0675c6c0c394778eae6a5dc56965021de1590c61616cb85f8458f2e4552971bc6615a6a0a3f417eece0a7de54945223dc1792c41414c987fa478d2c47509519c4635868083d437ceee2a9d05a9a5c2dd2199cca1a1ac789f4498322495e9b17ca6d566606334d72e0ecabd258985e2fd01b9ec81818c58bf64b81204b5c9915c86f546404314f70e2eeadd45e9e5829d61d98ce1e1ec38df04d87264d5a9f13ce69526202374976e4e8afd65c9c5a2bd41f9acc1c1cc18ff24f85244f589d11cc6b506000354b74e6eaa1d852925425da1194c21212cf81fc418b2a4156931fc2655e6e0e3b457ae8e4a3da50905627d81396c01010cd83fe4389284354911dc0675c6c0c394778eae6a5dc56965021de1590c61616cb85f8458f2e4552971bc6615a6a0a3f417eece0a7de54945223dc1792c41414c987fa478d2c47509519c4635868083d437ceee2a9d05a9a5c2dd2199cca1a1ac789f4498322495e9b17ca6d566606334d72e0ecabd258985e2fd01b9ec81818c58bf64b81204b5c9915c86f546404314f70e2eeadd45e9e5829d61d98ce1e1ec38df04d87264d5a9f13ce69526202374976e4e8afd65c9c5a2bd41f9acc1c1cc18ff24f85244f589d11cc6b506000354b74e6eaa1d852925425da1194c21212cf81fc418b2a4156931fc2655e6e0e3b457ae8e4a3da50905627d81396c01010cd83fe4389284354911dc0675c6c0c394778eae6a5dc56965021de1590c61616cb85f8458f2e4552971bc6615a6a0a3f417eece0a7de54945223dc1792c41414c987fa478d2c47509519c4635868083d437ceee2a9d05a9a5c2dd2199cca1a1ac789f4498322495e9b17ca6d566606334d72e0ecabd258985e2fd01b9ec81818c58bf64b81204b5c9915c86f546404314f70e2eeadd45e9e5829d61d98ce1e1ec38df04d87264d5a9f13ce69526202374976e4e8afd65c9c5a2bd41f9acc1c1cc18ff24f85244f589d11cc6b506000354b74e6eaa1d852925425da1194c21212cf81fc418b2a4156931fc2655e6e0e3b457ae8e4a3da50905627d81396c01010cd83fe4389284354911dc0675c6c0c394778eae6a5dc56965021de1590c61616cb85f8458f2e4552971bc6615a6a0a3f417eece0a7de54945223dc1792c41414c987fa478d2c47509519c4635868083d437ceee2a9d05a9a5c2dd2199cca1a1ac789f4498322495e9b17ca6d566606334d72e0ecabd258985e2fd01b9ec81818c58bf64b81204b5c9915c86f546404314f70e2eeadd45e9e5829d61d98ce1e1ec38df04d87264d5a9f13ce69526202374976e4e8afd65c9c5a2bd41f9acc1c1cc18ff24f85244f589d11cc6b506000354b74e6eaa1d852925425da1194c21212cf81fc418b2a4156931fc2655e6e0e3b457ae8e4a3da50905627d81396c01010cd83fe4389284354911dc0675c6c0c394778eae6a5dc56965021de1590c61616cb85f8458f2e4552971bc6615a6a0a3f417eece0a7de54945223dc1792c41414c987fa478d2c47509519c4635868083d437ceee2a9d05a9a5c2dd2199cca1a1ac789f4498ebd844539e548fee1be45cefb5b6802ad5eb06ab9a552347e8b14da1ea67bd8f",
        "hex": "6a2086996b042d0b6fbb28a4b478cc6e2866532ad74e357b742ef5398ce6b56a1c774db0041d852925425da1194c21212cf81fc418b2a4156931fc2655e6e0e3b457ae8e4a3da50905627d81396c01010cd83fe4389284354911dc0675c6c0c394778eae6a5dc56965021de1590c61616cb85f8458f2e4552971bc6615a6a0a3f417eece0a7de54945223dc1792c41414c987fa478d2c47509519c4635868083d437ceee2a9d05a9a5c2dd2199cca1a1ac789f4498322495e9b17ca6d566606334d72e0ecabd258985e2fd01b9ec81818c58bf64b81204b5c9915c86f546404314f70e2eeadd45e9e5829d61d98ce1e1ec38df04d87264d5a9f13ce69526202374976e4e8afd65c9c5a2bd41f9acc1c1cc18ff24f85244f589d11cc6b506000354b74e6eaa1d852925425da1194c21212cf81fc418b2a4156931fc2655e6e0e3b457ae8e4a3da50905627d81396c01010cd83fe4389284354911dc0675c6c0c394778eae6a5dc56965021de1590c61616cb85f8458f2e4552971bc6615a6a0a3f417eece0a7de54945223dc1792c41414c987fa478d2c47509519c4635868083d437ceee2a9d05a9a5c2dd2199cca1a1ac789f4498322495e9b17ca6d566606334d72e0ecabd258985e2fd01b9ec81818c58bf64b81204b5c9915c86f546404314f70e2eeadd45e9e5829d61d98ce1e1ec38df04d87264d5a9f13ce69526202374976e4e8afd65c9c5a2bd41f9acc1c1cc18ff24f85244f589d11cc6b506000354b74e6eaa1d852925425da1194c21212cf81fc418b2a4156931fc2655e6e0e3b457ae8e4a3da50905627d81396c01010cd83fe4389284354911dc0675c6c0c394778eae6a5dc56965021de1590c61616cb85f8458f2e4552971bc6615a6a0a3f417eece0a7de54945223dc1792c41414c987fa478d2c47509519c4635868083d437ceee2a9d05a9a5c2dd2199cca1a1ac789f4498322495e9b17ca6d566606334d72e0ecabd258985e2fd01b9ec81818c58bf64b81204b5c9915c86f546404314f70e2eeadd45e9e5829d61d98ce1e1ec38df04d87264d5a9f13ce69526202374976e4e8afd65c9c5a2bd41f9acc1c1cc18ff24f85244f589d11cc6b506000354b74e6eaa1d852925425da1194c21212cf81fc418b2a4156931fc2655e6e0e3b457ae8e4a3da50905627d81396c01010cd83fe4389284354911dc0675c6c0c394778eae6a5dc56965021de1590c61616cb85f8458f2e4552971bc6615a6a0a3f417eece0a7de54945223dc1792c41414c987fa478d2c47509519c4635868083d437ceee2a9d05a9a5c2dd2199cca1a1ac789f4498322495e9b17ca6d566606334d72e0ecabd258985e2fd01b9ec81818c58bf64b81204b5c9915c86f546404314f70e2eeadd45e9e5829d61d98ce1e1ec38df04d87264d5a9f13ce69526202374976e4e8afd65c9c5a2bd41f9acc1c1cc18ff24f85244f589d11cc6b506000354b74e6eaa1d852925425da1194c21212cf81fc418b2a4156931fc2655e6e0e3b457ae8e4a3da50905627d81396c01010cd83fe4389284354911dc0675c6c0c394778eae6a5dc56965021de1590c61616cb85f8458f2e4552971bc6615a6a0a3f417eece0a7de54945223dc1792c41414c987fa478d2c47509519c4635868083d437ceee2a9d05a9a5c2dd2199cca1a1ac789f4498ebd844539e548fee1be45cefb5b6802ad5eb06ab9a552347e8b14da1ea67bd8f",
        "type": "nulldata"
      }
    }
  ],
  "blockhash": "fe774b47c0e88c04e0fb50de4979690042b0828e482e852985a1cce393f947a2",
  "confirmations": 1,
  "time": 1764183806,
  "blocktime": 1764183806
}