{
  "hex": "0100000000010148d9d63f6f5dbca67ba2fc0cd6ba7cbcde46e8f9004c21fa2bbd616dced152b60000000000feffffff02407886de782d0000225120fb455f273a40eaf70ad475b2b777f5ef9138e2435a1922b0c022067fc3bbff0200e1f50500000000fdd5046a20ae275121d290b4397008cb4d705baef0d51a7c6aa23bca45a0ea24fa0a2872d24db0040253311f9da93b3d4d04308c741bdb6e50469f090c3e29533051a92499054d012273113fbd891b1d6d2410ac543bfb4e7066bf292c1e097310718904b9256d214213715fdde97b7d0d4470cc345b9b2e1006df494c7e69137011e964d9450d416233517ffdc95b5d2d6450ec147bbb0e3026ff696c5e49335031c944f9652d6182d3b19f1d29bbbdcd84b00cf49b5beed0c61f898cbea9d3b0d129a41985cd81a2f391bf3d099b9deda4902cd4bb7bcef0e63fa9ac9e89f390f1098439a5eda1c293f1df5d69fbfd8dc4f04cb4db1bae90865fc9ccfee993f09169e459c58dc1e2b3d1ff7d49dbddade4d06c94fb3b8eb0a67fe9ecdec9b3d0b149c479e5ade10253311f9da93b3d4d04308c741bdb6e50469f090c3e29533051a92499054d012273113fbd891b1d6d2410ac543bfb4e7066bf292c1e097310718904b9256d214213715fdde97b7d0d4470cc345b9b2e1006df494c7e69137011e964d9450d416233517ffdc95b5d2d6450ec147bbb0e3026ff696c5e49335031c944f9652d6182d3b19f1d29bbbdcd84b00cf49b5beed0c61f898cbea9d3b0d129a41985cd81a2f391bf3d099b9deda4902cd4bb7bcef0e63fa9ac9e89f390f1098439a5eda1c293f1df5d69fbfd8dc4f04cb4db1bae90865fc9ccfee993f09169e459c58dc1e2b3d1ff7d49dbddade4d06c94fb3b8eb0a67fe9ecdec9b3d0b149c479e5ade10253311f9da93b3d4d04308c741bdb6e50469f090c3e29533051a92499054d012273113fbd891b1d6d2410ac543bfb4e7066bf292c1e097310718904b9256d214213715fdde97b7d0d4470cc345b9b2e1006df494c7e69137011e964d9450d416233517ffdc95b5d2d6450ec147bbb0e3026ff696c5e49335031c944f9652d6182d3b19f1d29bbbdcd84b00cf49b5beed0c61f898cbea9d3b0d129a41985cd81a2f391bf3d099b9deda4902cd4bb7bcef0e63fa9ac9e89f390f1098439a5eda1c293f1df5d69fbfd8dc4f04cb4db1bae90865fc9ccfee993f09169e459c58dc1e2b3d1ff7d49dbddade4d06c94fb3b8eb0a67fe9ecdec9b3d0b149c479e5ade10253311f9da93b3d4d04308c741bdb6e50469f090c3e29533051a92499054d012273113fbd891b1d6d2410ac543bfb4e7066bf292c1e097310718904b9256d214213715fdde97b7d0d4470cc345b9b2e1006df494c7e69137011e964d9450d416233517ffdc95b5d2d6450ec147bbb0e3026ff696c5e49335031c944f9652d6182d3b19f1d29bbbdcd84b00cf49b5beed0c61f898cbea9d3b0d129a41985cd81a2f391bf3d099b9deda4902cd4bb7bcef0e63fa9ac9e89f390f1098439a5eda1c293f1df5d69fbfd8dc4f04cb4db1bae90865fc9ccfee993f09169e459c58dc1e2b3d1ff7d49dbddade4d06c94fb3b8eb0a67fe9ecdec9b3d0b149c479e5ade10253311f9da93b3d4d04308c741bdb6e50469f090c3e29533051a92499054d012273113fbd891b1d6d2410ac543bfb4e7066bf292c1e097310718904b9256d214213715fdde97b7d0d4470cc345b9b2e1006df494c7e69137011e964d9450d416233517ffdc95b5d2d6450ec147bbb0e3026ff696c5e49335031c944f9652d6182d3b19f1d29bbbdcd84b00cf49b5bee62761a9016311e49f87976abe61235259cca9560d2e6a34dd1056358c5e980d402fd75095ba92499e64742e3a1ad37a92a690a0806e7d3fbc1c094dd4c74b2f3b12614e759e5d194b0e26187f78e62685574de60240a38a73c93d061667ce511cff34d6b5dbd164704e4df239a7aff93d4dfb1f945e1bc9a3410bf0b1fb77a177db05ec48ac2c4294f826fb047d0486722135f63c7b069f597b39e3c49df8abfcc09021c45b48c6529bdc8a9382272fb87288b29b8c73098b3de640ee4cb4449b6f4ebc75a971a30a7714a7b8620cb8257944d0a074eecdb5394c461ad28057327edf26db0b4b766645fd790bb757d567a07dae8012258503b77ff03c47046b87baec32995a3fdf366c01d9277d4992b08a9cbca602b640b84a7173f4f54f5bf275d85e57d6cbb2e0dfe74e60dec4083c3b80be2ab913dac3dce19ff2a5700dd832810484e95787839bfd64cd0f4befed80e07889f55f2340abbfa477907bb89b0c4ee1fa5d0985221d9418b44a331a7247e06b499ba864e0abee08327e8f146f45cb22008776f24ca258861f684897782de110b92f3bf67393dd839ca50abc7e05eb3fb1272eca7c5512d42a6c3ef31571750592c90c925d7effb7790e0146acdf522a2f6f38cb4a01b2114e993e90a624255c080d16061603197aad9aaacd943c7c394456fbd859c297978dd8aa5de40a5a15807f41b245800d64ea3ff4e5a9eb582c27e85ebaa000517a9b7dd252f468bdf0508a8afa1575d3e6aae560836ff2c291abb9da5172df287dd7f47330b69f175a643f7348be776e364f8995edbfe7851afbd115268237f496550e80a1ba58f2ee4c5164aeb2d410bbd68b2817b47a93c7a4bc12d6b70e6e31cd9f954972e578e12f69ac319f7423861f1b647900551c95b44bb5b1dc8981d3dd4d993d3a829755d067d141322ca0108447c72312a5320fef2eb4e09cbb7d002da64711f61208c2f9708c999ab7e740a04bc235c28bb43329ef45a588ae303d41b2478723fb4aeecf463ccbc24a63d02905bd867752d2a5f4834a55e358fed2e1125f0bd3fdd68b35262a66f06e90ec64cebd78d3ea9e206e714a165cecce1fd09e8b7b1535d101d98dd7a16e03805ef159ebd8999d94e587a05f382582886eed84c142f7d735a8478d7c760cab1f4824b2db2f3bd0d4dba9a22e71605b7171ae27d02962e6c4db57aa881591b98eea2bf64778a0ff3df33bfa65048bd24e493009bcbe3fec19667153db59ed97e5f3e64b8fff290e72d27cf0ab6b20a2ed2e5400a5ec059e6cc5937c5db1795d455babd22c9a76ba308d7bb01fd02041da46cd83fad9de1843a904cfa30ecb13421643f37c816089d24b74ecc4010485165018d31b40c39fb5da2713637ce958a8200c446d92d3dc5fc99ade618b8061c65e7ab477a15260bf0bbc89ec7c96611fa2ba9df94e65e1f37ee7231abd748451f76659542154ebadd1cc32f35191011db53ad23b7dac2bc004fdaeefffbe984c14f398e10689884e672ed33735eee7297e0d86758bf5b3afb90a29a04057a045ed1bf0a783028145cb86ad39c208e7ff857d7b5d31877ad5fff59e4af9ca9505010ef6eb25fc36c92bbe88bc6ae79f39505fa6463ab62752a73c7e224dc463b44ae60efdc54adc575a8745f6aa5a1462a25c2aef628ed8dac10d81b8e4a560db377f5c42402914ec73204272479bed8f0833f950182dcfafc9be474a61a04f3ec6705f9d040b6fd68bba12676a82bb39c53759bb099720cf255bd07bc03826bc87fc7d572528c4b54c8d25b06ac7ddf504fa0dd78a7019a545a71c9ec5b761545ff266cc64736b1427d202217d1401eeb1f072a05bdb1028bfda1da6c774c3e6a229eab3a45904c1d68fd8a19ad82fdaaf4aa6da7b23ed5d34fd856cf2dbc0fd91441c9f084c9a716c58dafac1a3f1f9a8deb62bdb2c8425fa2d76ac1507c680f3453a5ff326ef069befc5e9104672ef04055db29a4f976c843eec8c98c6bd596f2e2f1320e90a43003a7b4d6aab6901dfd46d28caf353779cb8b5096b4accd8af5a5c2bb77e02693dac5f02a2448205c98059624a1fb9fe937f7231f0274f6c9786474da04893672c73ab3eea988d2f0edad16797e2f939c0283286b7aff3ad598407e33ec89a34124ad01ac682871f79414f8d804791cdf2f9de8d64dc69316681bad61a94821c5cd1f54beb6c5a2936ce924b06cc7a57e5675dd0062f16cca426f7d89f5b67ad668de315e108a536e2b4bb9505a710cc1ae1f27a4e411494bf009d90f8e3ea233cc676d39ef78af5c6273fd28e0dd5527c489afbeabd81cd78a5c499200f7ddb6c1af6fe81fc6441d0080a913d0d16fa52331f75fbe564efb54f8198c88219fbf2b1739a54db13491137951b9a71a941dd1bbaac2ca26eacb7f0d390e839f8095c72064196d475c2eccfcc1b2e4f9b634deda0274d01c422701052eecfeae97dd71f6ab2bf7f1638277871fedb1c118d6db6007da6786bb842454a0b60b0dfebe8323078c9581763b395a81fd7c51e62cc7a9fb8de8bd31dfc6af5be60402ba611b0adaed85bf8b4af408738d6336aa6840e9a0d7e2ed212d468229fea84bba2b9e482f81040c2d91b4849af786c5b59861b8949ae9a1cc81a980f12ea0be44c28c14705860d2b640abba40662d616218cbc20d901b0d61ac7c4661ff3162ce54d329f2f3fbcee6ebfc664430aec674637b7e3205e4e9ac0169ebf015647d5c93b0835f137be5029af2b29c6fd8c211bd5bcae023efce5cccc14bfb2c65dc5080c6d16e78867f8555557b08934ce0409152b4cae556142540ee1c8efeb128bac970a1cfe96b226ac4587d0be6dac37fdf05fdede09c7c4ccfab0e0333a16aae39bc3b211956d56c520598c3ff73403ff52cf8f857fea27eb75715d17ccb4d4ca364bc38f3430dab1d8e4de946deac7b901e494d709d4ed29e7a8e87b58ae123ac2cea80d84963a683dd220b2b7572bc58f2a113ec4f03ea83366bc1af95c89bae95ef3df11571577f9fad53b7d3a04b775a45ec3e62384a746a8b6a6f8a6ba054b1b16cd4dfe5c63ce1a05bee51a0c63dbb59272d56e19cbff255f8f9ec62894cb4ddbe527c96109e1338e4385a00c4295e26a4ff0adf043b4eb5ab6f3ace54bd32ac5de08bd8dd34f0bd09e7f59c34e3d4f24edae10dd7630175a7b0d545736741f2c81a38478f90e31400af4aaa5fbfe1a6dbb607d5743e58dce27608e7da4d1d0a53910f8305adaaa4a6ead618153250a84b27d190e296455c8228de123e306952639a74de70fd48813f94ce2a47ffb74251467cbd1e394e60f8a038a393c2096834a6b07609e18d2896f680889da93e090c0e365a778795b4bebfd6e2e7ebfe082230396597a2a8b4b9d2dfee00252a494f6775838489909bb3b9c2cbd4e9f1fa031037383e4d5f6a6c6f70738d92a8d8f0fa00000000000000000000000000101d314301fd2105009f5e1aaffe270a3341ae574c36e5d8e30d309ebc03ab41a609934233add153ad7ba53d85dd29ac839b38dba23ea5d66f551956632228a454c9c53093be4090cbcc9e9e990118cc07a5c128861363a493a45c71ae869997bd4244305927ae82c07a8e4f047dfd375cbb3e2926303ab8db746bc61b0ca5cfd08d420865969d44c953758feffc2bba1ce040e414ec4ac18197aea2e18c01ec4217ab066cc880bda0b78de4d4ee1a7fe51ba8d8713d9f96f0db7d41560a8b8575bcefae73188010598ff6c600d87ddafcdb3cc314549e664316b7a4749093319d91ad160435d1a68e4e1fd80899840cbe7a7327398ca7ca1185a0465da6bcde5515d30621058960bf67a6f22a989be8ef43379e544a132ed8da7fcc2897f137adcb2eb648fd09a19d820e17ad2ac3d2d38b5a04fd35e92eaace28295ca67fc99aae85891cdf05934687c171b431543052e5234175124f362cb444e0ac1352c8178c35d44550779da036607084b31d3f2da75f74d9b8d274349e362933d4285ba7f23fe062898c758c04125437f3c090e8028e504520cb10951541bd61f7a039dbc015bd6fffdb3032a931f5d7c153c0bee5cfdd35a45c2e8809992550333ff51bd66e002f408305ceacb9e73ddb3ca2ca649b3f6c52880866cd6dab7fc70e84164132bbec0be2c70a7c0d97208d41b15d785bd30024bce01fe321eaa314d04358104856ba3e009f6072a61a7e24ddaa02183c06f3064565d5d3f329f9e65f7a66a43927807ae9c225c393c3a5b3c61c391c72ec0e035dadb6ea53fd4234814ff0837baed36fc588ad47d732ea3125b5088d60182bc7ec6e5d6ec03fcd7fd7b8243d5f04016970cd79c496a170234f16e8e2df01299ff6204b4eda1004c8a6921e30f549f9145ec23518407d2a10070681344c70aad3626151a5317c42cf4af9c333e7b98afe6c938f765d970e404f3d795536c84564e7b69b47c3dd5ad61f7374e483ae39ad36b351c313088306cee838f4b29bbaa3690f72c6f09123b938daa3c108e824bcb1dfabbf65c77fe0f4dceef0d499ae2a28e5086a6f1ea7a1b6832cffa4aa452afcac20b020bbba10867b9e11122364c0aa9ef553541a5f5f6d6eb00fa6e75ede17a00b7c732c22a9d5b884d9200e9ad951dfb06cf199fc0ad891a9b30a0e36897555f2103e0fb1cf898ff12b729a7da628e361298f4a08a3e05ba43c23f15526c4c0cf38346338280e224723a21855c9d08a24444306577383a70b35e233bef2fba42f9c6d9d2c0dd5f025720e6f50d22ab1beedddc35c4c0bd4ecbec72418ce391bd7139f9a0890cfd3358f64b54a99422ac277373187e2f4f178a1066c5ccfa5cb443863b5148d2945c8e130aa7ea1911829cd7b4a920e15e0c685ba9367b58ad0c6c312d4b44e3309b7ea602a7a8a2d23b1505c64257a4fb362dc289c0dd24ba1f7de1acbc05e18551647ea1035f6f9b7e3f108ad2201b43a109777abffcb0bb8694b6d54bb9986d7e233b0764da82045b997905bf7bdf40d5cce8bfed6297da7e762fb79cf52bef6669bd1fb204d01106b8f9a99617234a40cc8d41bb221969df691c575f1695ef355601e2bf6a0d1bbfc047eed1aa77859cbe41b3174ba863fa8e604488c0aad0f817bfe407d06b6290c1ae5a24deeee22c7b817457509339a51a92fc88e10ab611e19c8b98d3aff33aa5e831507675058e3869808ddc15817c8c9f30ee024944d1b6686bb6cc3b2c40433d0c5637f3aa5f2f98d8dc75be2c3a8053b18b2b985531da2e4343f4568746dcca8783c67da667dcc123508adec9f08a1081f45621ccb60776a3243578baef325f3df4c657a75717afe4f3a9cea28764a000000",
  "txid": "3dba139a4613bdeff20717a855e3e361b1753b431c1fb00355b5eb7e5fdddb03",
  "hash": "f2563bb44de8a0a4fea41043a1050e8412fd83b583277752e76105f1fa16c408",
  "size": 5085,
  "vsize": 2278,
  "version": 1,
  "locktime": 74,
  "vin": [
    {
      "txid": "b652d1ce6d61bd2bfa214c00f9e846debc7cbad60cfca27ba6bc5d6f3fd6d948",
      "vout": 0,
      "scriptSig": {
        "asm": "",
        "hex": ""
      },
      "txinwitness": [
        "5ba92499e64742e3a1ad37a92a690a0806e7d3fbc1c094dd4c74b2f3b12614e759e5d194b0e26187f78e62685574de60240a38a73c93d061667ce511cff34d6b5dbd164704e4df239a7aff93d4dfb1f945e1bc9a3410bf0b1fb77a177db05ec48ac2c4294f826fb047d0486722135f63c7b069f597b39e3c49df8abfcc09021c45b48c6529bdc8a9382272fb87288b29b8c73098b3de640ee4cb4449b6f4ebc75a971a30a7714a7b8620cb8257944d0a074eecdb5394c461ad28057327edf26db0b4b766645fd790bb757d567a07dae8012258503b77ff03c47046b87baec32995a3fdf366c01d9277d4992b08a9cbca602b640b84a7173f4f54f5bf275d85e57d6cbb2e0dfe74e60dec4083c3b80be2ab913dac3dce19ff2a5700dd832810484e95787839bfd64cd0f4befed80e07889f55f2340abbfa477907bb89b0c4ee1fa5d0985221d9418b44a331a7247e06b499ba864e0abee08327e8f146f45cb22008776f24ca258861f684897782de110b92f3bf67393dd839ca50abc7e05eb3fb1272eca7c5512d42a6c3ef31571750592c90c925d7effb7790e0146acdf522a2f6f38cb4a01b2114e993e90a624255c080d16061603197aad9aaacd943c7c394456fbd859c297978dd8aa5de40a5a15807f41b245800d64ea3ff4e5a9eb582c27e85ebaa000517a9b7dd252f468bdf0508a8afa1575d3e6aae560836ff2c291abb9da5172df287dd7f47330b69f175a643f7348be776e364f8995edbfe7851afbd115268237f496550e80a1ba58f2ee4c5164aeb2d410bbd68b2817b47a93c7a4bc12d6b70e6e31cd9f954972e578e12f69ac319f7423861f1b647900551c95b44bb5b1dc8981d3dd4d993d3a829755d067d141322ca0108447c72312a5320fef2eb4e09cbb7d002da64711f61208c2f9708c999ab7e740a04bc235c28bb43329ef45a588ae303d41b2478723fb4aeecf463ccbc24a63d02905bd867752d2a5f4834a55e358fed2e1125f0bd3fdd68b35262a66f06e90ec64cebd78d3ea9e206e714a165cecce1fd09e8b7b1535d101d98dd7a16e03805ef159ebd8999d94e587a05f382582886eed84c142f7d735a8478d7c760cab1f4824b2db2f3bd0d4dba9a22e71605b7171ae27d02962e6c4db57aa881591b98eea2bf64778a0ff3df33bfa65048bd24e493009bcbe3fec19667153db59ed97e5f3e64b8fff290e72d27cf0ab6b20a2ed2e5400a5ec059e6cc5937c5db1795d455babd22c9a76ba308d7bb01fd02041da46cd83fad9de1843a904cfa30ecb13421643f37c816089d24b74ecc4010485165018d31b40c39fb5da2713637ce958a8200c446d92d3dc5fc99ade618b8061c65e7ab477a15260bf0bbc89ec7c96611fa2ba9df94e65e1f37ee7231abd748451f76659542154ebadd1cc32f35191011db53ad23b7dac2bc004fdaeefffbe984c14f398e10689884e672ed33735eee7297e0d86758bf5b3afb90a29a04057a045ed1bf0a783028145cb86ad39c208e7ff857d7b5d31877ad5fff59e4af9ca9505010ef6eb25fc36c92bbe88bc6ae79f39505fa6463ab62752a73c7e224dc463b44ae60efdc54adc575a8745f6aa5a1462a25c2aef628ed8dac10d81b8e4a560db377f5c42402914ec73204272479bed8f0833f950182dcfafc9be474a61a04f3ec6705f9d040b6fd68bba12676a82bb39c53759bb099720cf255bd07bc03826bc87fc7d572528c4b54c8d25b06ac7ddf504fa0dd78a7019a545a71c9ec5b761545ff266cc64736b1427d202217d1401eeb1f072a05bdb1028bfda1da6c774c3e6a229eab3a45904c1d68fd8a19ad82fdaaf4aa6da7b23ed5d34fd856cf2dbc0fd91441c9f084c9a716c58dafac1a3f1f9a8deb62bdb2c8425fa2d76ac1507c680f3453a5ff326ef069befc5e9104672ef04055db29a4f976c843eec8c98c6bd596f2e2f1320e90a43003a7b4d6aab6901dfd46d28caf353779cb8b5096b4accd8af5a5c2bb77e02693dac5f02a2448205c98059624a1fb9fe937f7231f0274f6c9786474da04893672c73ab3eea988d2f0edad16797e2f939c0283286b7aff3ad598407e33ec89a34124ad01ac682871f79414f8d804791cdf2f9de8d64dc69316681bad61a94821c5cd1f54beb6c5a2936ce924b06cc7a57e5675dd0062f16cca426f7d89f5b67ad668de315e108a536e2b4bb9505a710cc1ae1f27a4e411494bf009d90f8e3ea233cc676d39ef78af5c6273fd28e0dd5527c489afbeabd81cd78a5c499200f7ddb6c1af6fe81fc6441d0080a913d0d16fa52331f75fbe564efb54f8198c88219fbf2b1739a54db13491137951b9a71a941dd1bbaac2ca26eacb7f0d390e839f8095c72064196d475c2eccfcc1b2e4f9b634deda0274d01c422701052eecfeae97dd71f6ab2bf7f1638277871fedb1c118d6db6007da6786bb842454a0b60b0dfebe8323078c9581763b395a81fd7c51e62cc7a9fb8de8bd31dfc6af5be60402ba611b0adaed85bf8b4af408738d6336aa6840e9a0d7e2ed212d468229fea84bba2b9e482f81040c2d91b4849af786c5b59861b8949ae9a1cc81a980f12ea0be44c28c14705860d2b640abba40662d616218cbc20d901b0d61ac7c4661ff3162ce54d329f2f3fbcee6ebfc664430aec674637b7e3205e4e9ac0169ebf015647d5c93b0835f137be5029af2b29c6fd8c211bd5bcae023efce5cccc14bfb2c65dc5080c6d16e78867f8555557b08934ce0409152b4cae556142540ee1c8efeb128bac970a1cfe96b226ac4587d0be6dac37fdf05fdede09c7c4ccfab0e0333a16aae39bc3b211956d56c520598c3ff73403ff52cf8f857fea27eb75715d17ccb4d4ca364bc38f3430dab1d8e4de946deac7b901e494d709d4ed29e7a8e87b58ae123ac2cea80d84963a683dd220b2b7572bc58f2a113ec4f03ea83366bc1af95c89bae95ef3df11571577f9fad53b7d3a04b775a45ec3e62384a746a8b6a6f8a6ba054b1b16cd4dfe5c63ce1a05bee51a0c63dbb59272d56e19cbff255f8f9ec62894cb4ddbe527c96109e1338e4385a00c4295e26a4ff0adf043b4eb5ab6f3ace54bd32ac5de08bd8dd34f0bd09e7f59c34e3d4f24edae10dd7630175a7b0d545736741f2c81a38478f90e31400af4aaa5fbfe1a6dbb607d5743e58dce27608e7da4d1d0a53910f8305adaaa4a6ead618153250a84b27d190e296455c8228de123e306952639a74de70fd48813f94ce2a47ffb74251467cbd1e394e60f8a038a393c2096834a6b07609e18d2896f680889da93e090c0e365a778795b4bebfd6e2e7ebfe082230396597a2a8b4b9d2dfee00252a494f6775838489909bb3b9c2cbd4e9f1fa031037383e4d5f6a6c6f70738d92a8d8f0fa00000000000000000000000000101d314301",
        "009f5e1aaffe270a3341ae574c36e5d8e30d309ebc03ab41a609934233add153ad7ba53d85dd29ac839b38dba23ea5d66f551956632228a454c9c53093be4090cbcc9e9e990118cc07a5c128861363a493a45c71ae869997bd4244305927ae82c07a8e4f047dfd375cbb3e2926303ab8db746bc61b0ca5cfd08d420865969d44c953758feffc2bba1ce040e414ec4ac18197aea2e18c01ec4217ab066cc880bda0b78de4d4ee1a7fe51ba8d8713d9f96f0db7d41560a8b8575bcefae73188010598ff6c600d87ddafcdb3cc314549e664316b7a4749093319d91ad160435d1a68e4e1fd80899840cbe7a7327398ca7ca1185a0465da6bcde5515d30621058960bf67a6f22a989be8ef43379e544a132ed8da7fcc2897f137adcb2eb648fd09a19d820e17ad2ac3d2d38b5a04fd35e92eaace28295ca67fc99aae85891cdf05934687c171b431543052e5234175124f362cb444e0ac1352c8178c35d44550779da036607084b31d3f2da75f74d9b8d274349e362933d4285ba7f23fe062898c758c04125437f3c090e8028e504520cb10951541bd61f7a039dbc015bd6fffdb3032a931f5d7c153c0bee5cfdd35a45c2e8809992550333ff51bd66e002f408305ceacb9e73ddb3ca2ca649b3f6c52880866cd6dab7fc70e84164132bbec0be2c70a7c0d97208d41b15d785bd30024bce01fe321eaa314d04358104856ba3e009f6072a61a7e24ddaa02183c06f3064565d5d3f329f9e65f7a66a43927807ae9c225c393c3a5b3c61c391c72ec0e035dadb6ea53fd4234814ff0837baed36fc588ad47d732ea3125b5088d60182bc7ec6e5d6ec03fcd7fd7b8243d5f04016970cd79c496a170234f16e8e2df01299ff6204b4eda1004c8a6921e30f549f9145ec23518407d2a10070681344c70aad3626151a5317c42cf4af9c333e7b98afe6c938f765d970e404f3d795536c84564e7b69b47c3dd5ad61f7374e483ae39ad36b351c313088306cee838f4b29bbaa3690f72c6f09123b938daa3c108e824bcb1dfabbf65c77fe0f4dceef0d499ae2a28e5086a6f1ea7a1b6832cffa4aa452afcac20b020bbba10867b9e11122364c0aa9ef553541a5f5f6d6eb00fa6e75ede17a00b7c732c22a9d5b884d9200e9ad951dfb06cf199fc0ad891a9b30a0e36897555f2103e0fb1cf898ff12b729a7da628e361298f4a08a3e05ba43c23f15526c4c0cf38346338280e224723a21855c9d08a24444306577383a70b35e233bef2fba42f9c6d9d2c0dd5f025720e6f50d22ab1beedddc35c4c0bd4ecbec72418ce391bd7139f9a0890cfd3358f64b54a99422ac277373187e2f4f178a1066c5ccfa5cb443863b5148d2945c8e130aa7ea1911829cd7b4a920e15e0c685ba9367b58ad0c6c312d4b44e3309b7ea602a7a8a2d23b1505c64257a4fb362dc289c0dd24ba1f7de1acbc05e18551647ea1035f6f9b7e3f108ad2201b43a109777abffcb0bb8694b6d54bb9986d7e233b0764da82045b997905bf7bdf40d5cce8bfed6297da7e762fb79cf52bef6669bd1fb204d01106b8f9a99617234a40cc8d41bb221969df691c575f1695ef355601e2bf6a0d1bbfc047eed1aa77859cbe41b3174ba863fa8e604488c0aad0f817bfe407d06b6290c1ae5a24deeee22c7b817457509339a51a92fc88e10ab611e19c8b98d3aff33aa5e831507675058e3869808ddc15817c8c9f30ee024944d1b6686bb6cc3b2c40433d0c5637f3aa5f2f98d8dc75be2c3a8053b18b2b985531da2e4343f4568746dcca8783c67da667dcc123508adec9f08a1081f45621ccb60776a3243578baef325f3df4c657a75717afe4f3a9cea2876"
      ],
      "sequence": 4294967294
    }
  ],
  "vout": [
    {
      "value": 499971.5268,
      "n": 0,
      "scriptPubKey": {
        "asm": "1 fb455f273a40eaf70ad475b2b777f5ef9138e2435a1922b0c022067fc3bbff02",
        "hex": "5120fb455f273a40eaf70ad475b2b777f5ef9138e2435a1922b0c022067fc3bbff02",
        "reqSigs": 1,
        "type": "witness_v1_scripthash",
        "addresses": [
          "3QJmnh"
        ]
      }
    },
    {
      "value": 1.0,
      "n": 1,
      "scriptPubKey": {
        "asm": "OP_RETURN ae275121d290b4397008cb4d705baef0d51a7c6aa23bca45a0ea24fa0a2872d2 0253311f9da93b3d4d04308c741bdb6e50469f090c3e29533051a92499054d012273113fbd891b1d6d2410ac543bfb4e7066bf292c1e097310718904b9256d214213715fdde97b7d0d4470cc345b9b2e1006df494c7e69137011e964d9450d416233517ffdc95b5d2d6450ec147bbb0e3026ff696c5e49335031c944f9652d6182d3b19f1d29bbbdcd84b00cf49b5beed0c61f898cbea9d3b0d129a41985cd81a2f391bf3d099b9deda4902cd4bb7bcef0e63fa9ac9e89f390f1098439a5eda1c293f1df5d69fbfd8dc4f04cb4db1bae90865fc9ccfee993f09169e459c58dc1e2b3d1ff7d49dbddade4d06c94fb3b8eb0a67fe9ecdec9b3d0b149c479e5ade10253311f9da93b3d4d04308c741bdb6e50469f090c3e29533051a92499054d012273113fbd891b1d6d2410ac543bfb4e7066bf292c1e097310718904b9256d214213715fdde97b7d0d4470cc345b9b2e1006df494c7e69137011e964d9450d416233517ffdc95b5d2d6450ec147bbb0e3026ff696c5e49335031c944f9652d6182d3b19f1d29bbbdcd84b00cf49b5beed0c61f898cbea9d3b0d129a41985cd81a2f391bf3d099b9deda4902cd4bb7bcef0e63fa9ac9e89f390f1098439a5eda1c293f1df5d69fbfd8dc4f04cb4db1bae90865fc9ccfee993f09169e459c58dc1e2b3d1ff7d49dbddade4d06c94fb3b8eb0a67fe9ecdec9b3d0b149c479e5ade10253311f9da93b3d4d04308c741bdb6e50469f090c3e29533051a92499054d012273113fbd891b1d6d2410ac543bfb4e7066bf292c1e097310718904b9256d214213715fdde97b7d0d4470cc345b9b2e1006df494c7e69137011e964d9450d416233517ffdc95b5d2d6450ec147bbb0e3026ff696c5e49335031c944f9652d6182d3b19f1d29bbbdcd84b00cf49b5beed0c61f898cbea9d3b0d129a41985cd81a2f391bf3d099b9deda4902cd4bb7bcef0e63fa9ac9e89f390f1098439a5eda1c293f1df5d69fbfd8dc4f04cb4db1bae90865fc9ccfee993f09169e459c58dc1e2b3d1ff7d49dbddade4d06c94fb3b8eb0a67fe9ecdec9b3d0b149c479e5ade10253311f9da93b3d4d04308c741bdb6e50469f090c3e29533051a92499054d012273113fbd891b1d6d2410ac543bfb4e7066bf292c1e097310718904b9256d214213715fdde97b7d0d4470cc345b9b2e1006df494c7e69137011e964d9450d416233517ffdc95b5d2d6450ec147bbb0e3026ff696c5e49335031c944f9652d6182d3b19f1d29bbbdcd84b00cf49b5beed0c61f898cbea9d3b0d129a41985cd81a2f391bf3d099b9deda4902cd4bb7bcef0e63fa9ac9e89f390f1098439a5eda1c293f1df5d69fbfd8dc4f04cb4db1bae90865fc9ccfee993f09169e459c58dc1e2b3d1ff7d49dbddade4d06c94fb3b8eb0a67fe9ecdec9b3d0b149c479e5ade10253311f9da93b3d4d04308c741bdb6e50469f090c3e29533051a92499054d012273113fbd891b1d6d2410ac543bfb4e7066bf292c1e097310718904b9256d214213715fdde97b7d0d4470cc345b9b2e1006df494c7e69137011e964d9450d416233517ffdc95b5d2d6450ec147bbb0e3026ff696c5e49335031c944f9652d6182d3b19f1d29bbbdcd84b00cf49b5bee62761a9016311e49f87976abe61235259cca9560d2e6a34dd1056358c5e980d4",
        "hex": "6a20ae275121d290b4397008cb4d705baef0d51a7c6aa23bca45a0ea24fa0a2872d24db0040253311f9da93b3d4d04308c741bdb6e50469f090c3e29533051a92499054d012273113fbd891b1d6d2410ac543bfb4e7066bf292c1e097310718904b9256d214213715fdde97b7d0d4470cc345b9b2e1006df494c7e69137011e964d9450d416233517ffdc95b5d2d6450ec147bbb0e3026ff696c5e49335031c944f9652d6182d3b19f1d29bbbdcd84b00cf49b5beed0c61f898cbea9d3b0d129a41985cd81a2f391bf3d099b9deda4902cd4bb7bcef0e63fa9ac9e89f390f1098439a5eda1c293f1df5d69fbfd8dc4f04cb4db1bae90865fc9ccfee993f09169e459c58dc1e2b3d1ff7d49dbddade4d06c94fb3b8eb0a67fe9ecdec9b3d0b149c479e5ade10253311f9da93b3d4d04308c741bdb6e50469f090c3e29533051a92499054d012273113fbd891b1d6d2410ac543bfb4e7066bf292c1e097310718904b9256d214213715fdde97b7d0d4470cc345b9b2e1006df494c7e69137011e964d9450d416233517ffdc95b5d2d6450ec147bbb0e3026ff696c5e49335031c944f9652d6182d3b19f1d29bbbdcd84b00cf49b5beed0c61f898cbea9d3b0d129a41985cd81a2f391bf3d099b9deda4902cd4bb7bcef0e63fa9ac9e89f390f1098439a5eda1c293f1df5d69fbfd8dc4f04cb4db1bae90865fc9ccfee993f09169e459c58dc1e2b3d1ff7d49dbddade4d06c94fb3b8eb0a67fe9ecdec9b3d0b149c479e5ade10253311f9da93b3d4d04308c741bdb6e50469f090c3e29533051a92499054d012273113fbd891b1d6d2410ac543bfb4e7066bf292c1e097310718904b9256d214213715fdde97b7d0d4470cc345b9b2e1006df494c7e69137011e964d9450d416233517ffdc95b5d2d6450ec147bbb0e3026ff696c5e49335031c944f9652d6182d3b19f1d29bbbdcd84b00cf49b5beed0c61f898cbea9d3b0d129a41985cd81a2f391bf3d099b9deda4902cd4bb7bcef0e63fa9ac9e89f390f1098439a5eda1c293f1df5d69fbfd8dc4f04cb4db1bae90865fc9ccfee993f09169e459c58dc1e2b3d1ff7d49dbddade4d06c94fb3b8eb0a67fe9ecdec9b3d0b149c479e5ade10253311f9da93b3d4d04308c741bdb6e50469f090c3e29533051a92499054d012273113fbd891b1d6d2410ac543bfb4e7066bf292c1e097310718904b9256d214213715fdde97b7d0d4470cc345b9b2e1006df494c7e69137011e964d9450d416233517ffdc95b5d2d6450ec147bbb0e3026ff696c5e49335031c944f9652d6182d3b19f1d29bbbdcd84b00cf49b5beed0c61f898cbea9d3b0d129a41985cd81a2f391bf3d099b9deda4902cd4bb7bcef0e63fa9ac9e89f390f1098439a5eda1c293f1df5d69fbfd8dc4f04cb4db1bae90865fc9ccfee993f09169e459c58dc1e2b3d1ff7d49dbddade4d06c94fb3b8eb0a67fe9ecdec9b3d0b149c479e5ade10253311f9da93b3d4d04308c741bdb6e50469f090c3e29533051a92499054d012273113fbd891b1d6d2410ac543bfb4e7066bf292c1e097310718904b9256d214213715fdde97b7d0d4470cc345b9b2e1006df494c7e69137011e964d9450d416233517ffdc95b5d2d6450ec147bbb0e3026ff696c5e49335031c944f9652d6182d3b19f1d29bbbdcd84b00cf49b5bee62761a9016311e49f87976abe61235259cca9560d2e6a34dd1056358c5e980d4",
        "type": "nulldata"
      }
    }
  ],
  "blockhash": "a9a7ce638639648c5b111e15e0d4489535a11a846f6b50fba3b7e2925471654c",
  "confirmations": 1,
  "time": 1764182153,
  "blocktime": 1764182153
}