{
  "hex": "010000000001013c2623058f27051c07f6951fc5fb9699f8e4a3a85ca6eb7cb7d36eee9fde70260100000000feffffff0240cf8b7d782d0000225120f1a171188cf88baf5fca9ef88bcb4a0e23c4bb0b65a16c7f14ac006f62e511e600e1f50500000000fdd5046a2032bb55a637f4b360beae3c24ce01a68fa12d37a03987a57c2d54691b3dba3bbe4db00432f9b282e28db2d4ca1edebffa8e406be34673892d8e7d337e645289ec061cde12d992a2c2ad92f4ea3efe9fdaae604bc36653a90dae5d135e4472a9cc263cfe72b9f2c2a2cdf2948a5e9effbace002ba30633c96dce3d733e2412c9ac465c9e5299d2e282edd2b4aa7ebedf9aee200b832613e94dee1d531e0432e98c667cbeb2793202620d32544a9e5e3f7a0ec0eb63c6f309ad0efdb3fee4d2096c869c5e92591222422d12746abe7e1f5a2ee0cb43e6d3298d2edd93dec4f2294ca6bc7ef2397242224d72140ade1e7f3a4e80ab2386b349ed4ebdf3bea492492cc6dc1ed2195262026d52342afe3e5f1a6ea08b03a69369cd6e9dd39e84b2690ce6fc3e32f9b282e28db2d4ca1edebffa8e406be34673892d8e7d337e645289ec061cde12d992a2c2ad92f4ea3efe9fdaae604bc36653a90dae5d135e4472a9cc263cfe72b9f2c2a2cdf2948a5e9effbace002ba30633c96dce3d733e2412c9ac465c9e5299d2e282edd2b4aa7ebedf9aee200b832613e94dee1d531e0432e98c667cbeb2793202620d32544a9e5e3f7a0ec0eb63c6f309ad0efdb3fee4d2096c869c5e92591222422d12746abe7e1f5a2ee0cb43e6d3298d2edd93dec4f2294ca6bc7ef2397242224d72140ade1e7f3a4e80ab2386b349ed4ebdf3bea492492cc6dc1ed2195262026d52342afe3e5f1a6ea08b03a69369cd6e9dd39e84b2690ce6fc3e32f9b282e28db2d4ca1edebffa8e406be34673892d8e7d337e645289ec061cde12d992a2c2ad92f4ea3efe9fdaae604bc36653a90dae5d135e4472a9cc263cfe72b9f2c2a2cdf2948a5e9effbace002ba30633c96dce3d733e2412c9ac465c9e5299d2e282edd2b4aa7ebedf9aee200b832613e94dee1d531e0432e98c667cbeb2793202620d32544a9e5e3f7a0ec0eb63c6f309ad0efdb3fee4d2096c869c5e92591222422d12746abe7e1f5a2ee0cb43e6d3298d2edd93dec4f2294ca6bc7ef2397242224d72140ade1e7f3a4e80ab2386b349ed4ebdf3bea492492cc6dc1ed2195262026d52342afe3e5f1a6ea08b03a69369cd6e9dd39e84b2690ce6fc3e32f9b282e28db2d4ca1edebffa8e406be34673892d8e7d337e645289ec061cde12d992a2c2ad92f4ea3efe9fdaae604bc36653a90dae5d135e4472a9cc263cfe72b9f2c2a2cdf2948a5e9effbace002ba30633c96dce3d733e2412c9ac465c9e5299d2e282edd2b4aa7ebedf9aee200b832613e94dee1d531e0432e98c667cbeb2793202620d32544a9e5e3f7a0ec0eb63c6f309ad0efdb3fee4d2096c869c5e92591222422d12746abe7e1f5a2ee0cb43e6d3298d2edd93dec4f2294ca6bc7ef2397242224d72140ade1e7f3a4e80ab2386b349ed4ebdf3bea492492cc6dc1ed2195262026d52342afe3e5f1a6ea08b03a69369cd6e9dd39e84b2690ce6fc3e32f9b282e28db2d4ca1edebffa8e406be34673892d8e7d337e645289ec061cde12d992a2c2ad92f4ea3efe9fdaae604bc36653a90dae5d135e4472a9cc263cfe72b9f2c2a2cdf2948a5e9effbace002ba30633c96dce3d733e2412c9ac465c9e5299d2e282edd2b4aa7ebedf9aee200b832613e94dee1d531e0432e98c667cbeb2793202620d32544a9e5e3f7a0ec0ebd8fa543a9ef75e59a1dbd917f093266678936320ec0bc779564164aae78b7b2002fd7509208526057c8b4d006a68c55f23464ba4c940b05a72d3a352e9e469219b4bb7e6654e037140c560ce51b321dede5103b62d63ea8fb23b3abdcdece37c8b7929a4720c86993ec8b5aaa5e12bf1e10044a5e56e35966839d71a2fe9f6a2d4295a206559ab14b97cb8efa47de246ca9f712a7f55658c892f74ae090931c2a0b6e5bfc3625205676d4c1e8ce04d415fdf46012395d17fa9d59030d3b6c51fa92711380f73988609b75f92a559d734793888f2c994febe8211977366ebfe4148003f166b2f67c31d36732058099fc785cc8989602ff477d89d4bff15c8aaf47f8c6aeb9843754ce82a3f1220c445c604c72cff357083443c059f1468cd091dfad32cc07294404f789f9552b1eed6e20ef68ee0f2e52501fb12a3aef93b87c37b7a56be2e6ae0864f4b8448af66aa9606b6c817a00c074420ad1857b5a2442111dbfd6b8e953b012b892cd0468c2a7b3017a816ff022a6b9d37e33cead7b045c4cb1e2345a7cdc5b864829c3d3a4f37ffccb3ee353caee8ae1585675ae9c3b76cd58d9f59536b3f44c1868b4aaea6cbfc38f2915d6ee11a54e4bade1e6f213450277f9038a7dad62023d46456fc504e2ac98ad18cfee8f6ecaae1557406d77db9dc67f4627bf5a56dbd0cd125b17a0a9a85c210f215c00412b3aefe5e10161385040f276598cb9bfd81d4e2d5ab6068ce569ee1db524e0d231994768b9496e09d4dcfbd30eaca1456998fc7574e6907c68fb4748d3681f8b2c16a5d156213c77a9c3b8d0d3e84314eef9e47a9509507f41ca141586b989305c679c61f192cb395e1c3768edc42c704d6e19b9218629d07984e7439d2aac095f0b8dea463d364efd70476e4f5e64b97983f0415d9557490ea7ac66976b00050336d9af6a7c9faabc987e8a7008ac629ae9fbc2f1d014ecb8c041ca3965720ac3ac14069e2ba984dcf41def498093e4fd90dbb514f3978ec0ede2403c1c3f3e992746d4a456fa1fa131ad067ca19793a52b592aa0cb884ae85dfbbb58a17f74f73ef3b0a936176019aa9639e95774c9408a2b6d46ce37ff43df9f1fd865d9dfc2eff87507808ebb00d545e9e3593f380c57848a9200395483b231cb297bfa32207d4c68fe41eb87cd1a0e852298f9b8b29f036631258d472c29d7aba8a9e57cfc38f001999bf5742f7c60bb4435d07015b9f82acdeadd0dffaa5d1d2c50fd9559e01fd66ac2aee04b711879b5126779ade121a9db38c4df4260ad62ac35505b05b7cb6a5259fc159dfcec9e9d4aa5eb25f70a7ff734bd075980be370d27a34a9ebaeb7f6db4f2570ca0ef9199cc5525b1b0f771c74e81dbde423f932ec813de1e53166cb1fba07ad0bd222ceacdfd702ec2cf49ed3d3de4b40388282f65e9f0a625efd6e9bf3fbd416f57a921b7ba73557c1d824b8dc8208583a221597982e152716cb3944fa48576d4aca091d2c76a213448f98579d20aec1c0df892f15dacc41813b9111c76ee543c8f48c76bbdb4d8cf9d4b590791592017abcc92deb3c17417a2b0ed749c4bce6f50874915b99464723b14a871673ec832b8360611e1ab737fa8b1ef80db69f84e495fe009afbf0c62d070616ed9e8e08a2fbc77b4ea845ae6effd07415d62129b78bbbfc45d198750dacc8ab64ae2b40dbea3f4bd51fe6e2f29e14516a93a70c97d49cd18b990e4a7eeeef21b97e37308c54fdf3217654dd8293dbb2d6a1c2a2f37e9cb878748c61e23d893ec57684659934f1d915b2363ffaa24cd0c9562944328ba87a08d090063814b801c8aa52ea7f190d1cbb35932254a27b2ade47e7e30cc6101fc29dee037d73f8e46c03b1376dbf81d61ecf0ecf3ea00ee92f00022d0bcc8deeb7636a8762d6abe8dd71d75c0deadc6d71a7cd7d043f1271840bc4877b30586406ae0848021cd5e07e6580129afa4ac4b26324d07a4c272d898f70c10a8f7691a4bb1f9b0dcedbce479dee00158cc32c5e101bfbda34a6cb27d9652a8c215262e9d00d8c61f92ef7414982e1fd0a8197451d581a408ee36a4e81ca58299041b09893deb077c4be5c067123f8101c7207309e306ba08ce07c2008a44f86b19927b9380d13fb292e5caec24d70e0e3d547ac9465fa811e586d1996a7bf89c465d04c9c8a58454c2116516d55e4b47d6b6f1f03ca261c4e656b5eeccb5df899336e4cbf86a5f9d5c88b8fcf7c1487de23292c72ae8a13ccdea4a2fbd32dae46bbd1aac82217f13e7f158c746a1c2c5c245620d00542cc8f510ea57609cb9c98f7c95624ac8a5f1f35ea1d4cdee3192f405e590c607c9d8968959921387a6f611dc5775a5e758f35b1214e66b866776743487b80b3fa43073e068550b81f7f6c395f311b39deeb1d56b691c396adc73e8b74d394267ff870aa76942d0d9582c5bd40e71abb36b0e78b6ca6b8f678e5335887dc6bec84bb94c3f6a0a563923bfe468bf7cc212a57ed8c97ff3ec1c31959e2c29ce3121e7549f50c391038e70596944d3da0b69a1eb44f09d70a7d3f6ccbde05451f28d99619594f1c78f7da5d971edb9272c0a4446d8702a587335c4eebb0f5d60ea1d2ea31c5309053e95b578275f52a8786419c03215f2e856482bff58d1a1f4d592e27a546fd658668afa8e1634b062dbf515070365815cfdb736aa38a56b7b6ee91ae09d7ccdb3a13262bc524edbb02db06b70fe6ffebaab443d968b3caf5959bb2fa95f81939912e60ccb1e414ec78df8ce5e867d2ef24ce85b3ea11f5a1a741aaaf74f0d6e92bd2877520ff512d64351409f6a4190f68bb125cbde4e85244de568e4296971ad58bb76df55188c0d6981f6f7aaef023c6f7131fc18dd4ac275a0f86cfebe07f794bc903e79a6db2e1e55b7d432301dfdb679703dae0acec654120c697289e9415a03e923fe3a3692c08d03a7e1fc558230d4030f2d9ef6f3967d01841cc71e2e9d6bf24ad3ea4fca84cff3c7ac67ff0ef0b3cb986542a8da968a19306146b4652435ab0ec6c7ba1bfdb44cbe32703a12f72775b8a98752039d05ee63eb72ab12b3b33d8f8db7010d56931171d73f4f422e618f198a886ee2434df9088fa248b9d78dd2d633b914a2be2531e35dd3e9cdfe4664fcb3efe1cba7a81e1ec3c7191fc134e9a91a8625412b179df5c5538bfd08293db52853cd0d5e389fe48eccabe8d732534035c92e64c45a8753a0a0324bc921073471a37eb19925e77fc32d3e2626bd8b9d1490afb1ad23083d9f1a0533ac55039d92d2c091ba3aa99f5de3c5ddc0c1e63cc32d14fb7bdec1e98bdef7589a30f9d074cb461362d6c368dfacb0d97617e2abe073a3e56888e9dd7e3e6e9eff1f50d3141494f565968757a9ce024292c43646f7292a3b7c6c8d0d6d8e3e9ecf4fd1314647175778b999ca6aabec0cee0e9eef7000000000000000000000000000000000e1a2e4001fd210500c8d51418065adb94c5c8aff20ff74118e3839a7144b0fccd710bbf66335cab11bee628cd34e53b35f0bc1cd4b85af03ef9e97d57629f9e054934823f3b65446b69ce5c897039d464ca915b79c4a34cb2febc26761551c0a305f6f4e21103ac4c1b98dc27e406ec05c8918a80c9e3867c13148a18ae2bb78029654f6f67f69c6d26abd5fbb26362f5d029b26876efd057498bc13c68d1b18b1ac9bce7725607312f1e85a60a4cecd015ea17fe2f9e423892181b0750b7748676510dffc91f284e9680fb6e1587de554630992a4f17870762ef7f4a2b302a495b04adf13046c19d4871987e924ab8156d2abe90a6441b7a52d49a9eb0fdd3a2f355648748e4024bf211b9bfe1cc49a2f03c0ee5157f352b4cdfa36c47a27f07f3f90cad085befd75609fc9b129c9c53c3d24ac7f5704000de0b3d73db2903096d16936fff26645951283e95e3f687702ae9a01b1f30b1a8fab353f03de8450a48c4ccfa83ba2ead64a3b5a39aac7ef744aafd2b28417efc751907bbc00b342a86cae883455d8eb83bd7448e290392eab12b1727cdcd9897a46dcf74071c95255c70f126679a6355bdb7e51baaef13f7f3d1f7a37f44d6f8e9a9ae85dcbe45656eff1731f2e4b6c77e24e214e1f1de8dada52b8914f8dc58551e874fe6192785fc12fc151aaa3f30a21232d91b05aab777f2c1abccead299a1a49b1973355f8d0f79192fdc9172dfc0bac1a0822d03e4af16f152adb25b4cb378f901d4e924e8b834722747986a32dc6b77b0d39832398af660c5314a28bb68639a42a7418525634e1f0994225906ccf6bb3bd0d7bfe81b3b41b7e936db53cf37943182d1b29a6f5ed6e180a659ada28b01fc2e067dc54417c9fdf3ef19e3b8761e7138c3938131281dec198bccaaea8ebf03788547990daa8818df68dd2e761bad529a09b99f96b8598aae5a1cf18753c7a7f0a9b761d92b1cc2941c7e37e751c80faedb21de9ef76406f545ab06f2d22a72e079cbde5590bcadbc65c3cd71fa4e4ff45dbaffc2a9f9086e3493b17d8701dc0e8f8e6b4ed6659901dfd982a275ec61c342ce5cbdaa9bc28d09dc5ba7d51b1d7291e7d9ab59d8e63cf5e6ee334232f771ebd0612f5d3974078cfe478018f8b754f8dc2f98b2bb115316e045cd3fa320f4270e94b30f36f6c2fba81b3f104b5672a821c0c8f11e153489e4994781bc996193e0ce58ddc1216f780caa2e8f96700241e0c1c04817b308d3505a4a31d8588b6c38af4cce0dfd0069ee637070fbc2b2ae4b1a4b65f39852fdfd8eaedc3304f7ce7e852382fd88bb16af3d0671189036eb5b89c0d821b4171fe1d733b61c062496981d329b9b4f14b55ce0ef9db652c6111af89fc5ee122bb266c0426a708e57ddd488f563d7d0790fc14b4f2962698dda57a78ae16bd8af0166b90ff9d31c8657b476f1365ec6aa24d88e82afc3180de8bfe5f9227ed6f6f12a9d225462c8bf35b377568cd39c5ec4171ae4440e6c726dea5e5a7df2294ff1441cb7f953f319631016f1368bd3994ec4fccc80bcf1a8130ec85bf3d93679cf56882d4fc90bafa05213b020839f8483f65adcce1fefa2d277c54e49ec32225e37335f48f7d7f49f5d1eb612f75d8294f008c2415da45ee2c8546167d7534173100d994a55f48dc7a92c6f368cbf4f674a7b3c717a7769f25607979895cfc2f70b0462bfeb3213089c675d25d6c3ee4d746bd825bb90676ca115a9cfc9f5b224ce27fb4c042f8277ae78b97f53607ff87040a81aea21bd0ae59ae9462f30417de35ea1add5559e1b409f2d042329470dfb601591c7a6adcb4f3d417d543769c54d4ef9c04c2296cc6ff8052c37f1690aad968b000000",
  "txid": "3cc29db44dec380fc6d2716a1dbb78b4fc0151f35de122690363c829a3865596",
  "hash": "00e2fbfc684b7ea195de60cbdce7cb89973d57218f0ca5f74c53f9a8996477f3",
  "size": 5085,
  "vsize": 2278,
  "version": 1,
  "locktime": 139,
  "vin": [
    {
      "txid": "2670de9fee6ed3b77ceba65ca8a3e4f89996fbc51f95f6071c05278f0523263c",
      "vout": 1,
      "scriptSig": {
        "asm": "",
        "hex": ""
      },
      "txinwitness": [
        "208526057c8b4d006a68c55f23464ba4c940b05a72d3a352e9e469219b4bb7e6654e037140c560ce51b321dede5103b62d63ea8fb23b3abdcdece37c8b7929a4720c86993ec8b5aaa5e12bf1e10044a5e56e35966839d71a2fe9f6a2d4295a206559ab14b97cb8efa47de246ca9f712a7f55658c892f74ae090931c2a0b6e5bfc3625205676d4c1e8ce04d415fdf46012395d17fa9d59030d3b6c51fa92711380f73988609b75f92a559d734793888f2c994febe8211977366ebfe4148003f166b2f67c31d36732058099fc785cc8989602ff477d89d4bff15c8aaf47f8c6aeb9843754ce82a3f1220c445c604c72cff357083443c059f1468cd091dfad32cc07294404f789f9552b1eed6e20ef68ee0f2e52501fb12a3aef93b87c37b7a56be2e6ae0864f4b8448af66aa9606b6c817a00c074420ad1857b5a2442111dbfd6b8e953b012b892cd0468c2a7b3017a816ff022a6b9d37e33cead7b045c4cb1e2345a7cdc5b864829c3d3a4f37ffccb3ee353caee8ae1585675ae9c3b76cd58d9f59536b3f44c1868b4aaea6cbfc38f2915d6ee11a54e4bade1e6f213450277f9038a7dad62023d46456fc504e2ac98ad18cfee8f6ecaae1557406d77db9dc67f4627bf5a56dbd0cd125b17a0a9a85c210f215c00412b3aefe5e10161385040f276598cb9bfd81d4e2d5ab6068ce569ee1db524e0d231994768b9496e09d4dcfbd30eaca1456998fc7574e6907c68fb4748d3681f8b2c16a5d156213c77a9c3b8d0d3e84314eef9e47a9509507f41ca141586b989305c679c61f192cb395e1c3768edc42c704d6e19b9218629d07984e7439d2aac095f0b8dea463d364efd70476e4f5e64b97983f0415d9557490ea7ac66976b00050336d9af6a7c9faabc987e8a7008ac629ae9fbc2f1d014ecb8c041ca3965720ac3ac14069e2ba984dcf41def498093e4fd90dbb514f3978ec0ede2403c1c3f3e992746d4a456fa1fa131ad067ca19793a52b592aa0cb884ae85dfbbb58a17f74f73ef3b0a936176019aa9639e95774c9408a2b6d46ce37ff43df9f1fd865d9dfc2eff87507808ebb00d545e9e3593f380c57848a9200395483b231cb297bfa32207d4c68fe41eb87cd1a0e852298f9b8b29f036631258d472c29d7aba8a9e57cfc38f001999bf5742f7c60bb4435d07015b9f82acdeadd0dffaa5d1d2c50fd9559e01fd66ac2aee04b711879b5126779ade121a9db38c4df4260ad62ac35505b05b7cb6a5259fc159dfcec9e9d4aa5eb25f70a7ff734bd075980be370d27a34a9ebaeb7f6db4f2570ca0ef9199cc5525b1b0f771c74e81dbde423f932ec813de1e53166cb1fba07ad0bd222ceacdfd702ec2cf49ed3d3de4b40388282f65e9f0a625efd6e9bf3fbd416f57a921b7ba73557c1d824b8dc8208583a221597982e152716cb3944fa48576d4aca091d2c76a213448f98579d20aec1c0df892f15dacc41813b9111c76ee543c8f48c76bbdb4d8cf9d4b590791592017abcc92deb3c17417a2b0ed749c4bce6f50874915b99464723b14a871673ec832b8360611e1ab737fa8b1ef80db69f84e495fe009afbf0c62d070616ed9e8e08a2fbc77b4ea845ae6effd07415d62129b78bbbfc45d198750dacc8ab64ae2b40dbea3f4bd51fe6e2f29e14516a93a70c97d49cd18b990e4a7eeeef21b97e37308c54fdf3217654dd8293dbb2d6a1c2a2f37e9cb878748c61e23d893ec57684659934f1d915b2363ffaa24cd0c9562944328ba87a08d090063814b801c8aa52ea7f190d1cbb35932254a27b2ade47e7e30cc6101fc29dee037d73f8e46c03b1376dbf81d61ecf0ecf3ea00ee92f00022d0bcc8deeb7636a8762d6abe8dd71d75c0deadc6d71a7cd7d043f1271840bc4877b30586406ae0848021cd5e07e6580129afa4ac4b26324d07a4c272d898f70c10a8f7691a4bb1f9b0dcedbce479dee00158cc32c5e101bfbda34a6cb27d9652a8c215262e9d00d8c61f92ef7414982e1fd0a8197451d581a408ee36a4e81ca58299041b09893deb077c4be5c067123f8101c7207309e306ba08ce07c2008a44f86b19927b9380d13fb292e5caec24d70e0e3d547ac9465fa811e586d1996a7bf89c465d04c9c8a58454c2116516d55e4b47d6b6f1f03ca261c4e656b5eeccb5df899336e4cbf86a5f9d5c88b8fcf7c1487de23292c72ae8a13ccdea4a2fbd32dae46bbd1aac82217f13e7f158c746a1c2c5c245620d00542cc8f510ea57609cb9c98f7c95624ac8a5f1f35ea1d4cdee3192f405e590c607c9d8968959921387a6f611dc5775a5e758f35b1214e66b866776743487b80b3fa43073e068550b81f7f6c395f311b39deeb1d56b691c396adc73e8b74d394267ff870aa76942d0d9582c5bd40e71abb36b0e78b6ca6b8f678e5335887dc6bec84bb94c3f6a0a563923bfe468bf7cc212a57ed8c97ff3ec1c31959e2c29ce3121e7549f50c391038e70596944d3da0b69a1eb44f09d70a7d3f6ccbde05451f28d99619594f1c78f7da5d971edb9272c0a4446d8702a587335c4eebb0f5d60ea1d2ea31c5309053e95b578275f52a8786419c03215f2e856482bff58d1a1f4d592e27a546fd658668afa8e1634b062dbf515070365815cfdb736aa38a56b7b6ee91ae09d7ccdb3a13262bc524edbb02db06b70fe6ffebaab443d968b3caf5959bb2fa95f81939912e60ccb1e414ec78df8ce5e867d2ef24ce85b3ea11f5a1a741aaaf74f0d6e92bd2877520ff512d64351409f6a4190f68bb125cbde4e85244de568e4296971ad58bb76df55188c0d6981f6f7aaef023c6f7131fc18dd4ac275a0f86cfebe07f794bc903e79a6db2e1e55b7d432301dfdb679703dae0acec654120c697289e9415a03e923fe3a3692c08d03a7e1fc558230d4030f2d9ef6f3967d01841cc71e2e9d6bf24ad3ea4fca84cff3c7ac67ff0ef0b3cb986542a8da968a19306146b4652435ab0ec6c7ba1bfdb44cbe32703a12f72775b8a98752039d05ee63eb72ab12b3b33d8f8db7010d56931171d73f4f422e618f198a886ee2434df9088fa248b9d78dd2d633b914a2be2531e35dd3e9cdfe4664fcb3efe1cba7a81e1ec3c7191fc134e9a91a8625412b179df5c5538bfd08293db52853cd0d5e389fe48eccabe8d732534035c92e64c45a8753a0a0324bc921073471a37eb19925e77fc32d3e2626bd8b9d1490afb1ad23083d9f1a0533ac55039d92d2c091ba3aa99f5de3c5ddc0c1e63cc32d14fb7bdec1e98bdef7589a30f9d074cb461362d6c368dfacb0d97617e2abe073a3e56888e9dd7e3e6e9eff1f50d3141494f565968757a9ce024292c43646f7292a3b7c6c8d0d6d8e3e9ecf4fd1314647175778b999ca6aabec0cee0e9eef7000000000000000000000000000000000e1a2e4001",
        "00c8d51418065adb94c5c8aff20ff74118e3839a7144b0fccd710bbf66335cab11bee628cd34e53b35f0bc1cd4b85af03ef9e97d57629f9e054934823f3b65446b69ce5c897039d464ca915b79c4a34cb2febc26761551c0a305f6f4e21103ac4c1b98dc27e406ec05c8918a80c9e3867c13148a18ae2bb78029654f6f67f69c6d26abd5fbb26362f5d029b26876efd057498bc13c68d1b18b1ac9bce7725607312f1e85a60a4cecd015ea17fe2f9e423892181b0750b7748676510dffc91f284e9680fb6e1587de554630992a4f17870762ef7f4a2b302a495b04adf13046c19d4871987e924ab8156d2abe90a6441b7a52d49a9eb0fdd3a2f355648748e4024bf211b9bfe1cc49a2f03c0ee5157f352b4cdfa36c47a27f07f3f90cad085befd75609fc9b129c9c53c3d24ac7f5704000de0b3d73db2903096d16936fff26645951283e95e3f687702ae9a01b1f30b1a8fab353f03de8450a48c4ccfa83ba2ead64a3b5a39aac7ef744aafd2b28417efc751907bbc00b342a86cae883455d8eb83bd7448e290392eab12b1727cdcd9897a46dcf74071c95255c70f126679a6355bdb7e51baaef13f7f3d1f7a37f44d6f8e9a9ae85dcbe45656eff1731f2e4b6c77e24e214e1f1de8dada52b8914f8dc58551e874fe6192785fc12fc151aaa3f30a21232d91b05aab777f2c1abccead299a1a49b1973355f8d0f79192fdc9172dfc0bac1a0822d03e4af16f152adb25b4cb378f901d4e924e8b834722747986a32dc6b77b0d39832398af660c5314a28bb68639a42a7418525634e1f0994225906ccf6bb3bd0d7bfe81b3b41b7e936db53cf37943182d1b29a6f5ed6e180a659ada28b01fc2e067dc54417c9fdf3ef19e3b8761e7138c3938131281dec198bccaaea8ebf03788547990daa8818df68dd2e761bad529a09b99f96b8598aae5a1cf18753c7a7f0a9b761d92b1cc2941c7e37e751c80faedb21de9ef76406f545ab06f2d22a72e079cbde5590bcadbc65c3cd71fa4e4ff45dbaffc2a9f9086e3493b17d8701dc0e8f8e6b4ed6659901dfd982a275ec61c342ce5cbdaa9bc28d09dc5ba7d51b1d7291e7d9ab59d8e63cf5e6ee334232f771ebd0612f5d3974078cfe478018f8b754f8dc2f98b2bb115316e045cd3fa320f4270e94b30f36f6c2fba81b3f104b5672a821c0c8f11e153489e4994781bc996193e0ce58ddc1216f780caa2e8f96700241e0c1c04817b308d3505a4a31d8588b6c38af4cce0dfd0069ee637070fbc2b2ae4b1a4b65f39852fdfd8eaedc3304f7ce7e852382fd88bb16af3d0671189036eb5b89c0d821b4171fe1d733b61c062496981d329b9b4f14b55ce0ef9db652c6111af89fc5ee122bb266c0426a708e57ddd488f563d7d0790fc14b4f2962698dda57a78ae16bd8af0166b90ff9d31c8657b476f1365ec6aa24d88e82afc3180de8bfe5f9227ed6f6f12a9d225462c8bf35b377568cd39c5ec4171ae4440e6c726dea5e5a7df2294ff1441cb7f953f319631016f1368bd3994ec4fccc80bcf1a8130ec85bf3d93679cf56882d4fc90bafa05213b020839f8483f65adcce1fefa2d277c54e49ec32225e37335f48f7d7f49f5d1eb612f75d8294f008c2415da45ee2c8546167d7534173100d994a55f48dc7a92c6f368cbf4f674a7b3c717a7769f25607979895cfc2f70b0462bfeb3213089c675d25d6c3ee4d746bd825bb90676ca115a9cfc9f5b224ce27fb4c042f8277ae78b97f53607ff87040a81aea21bd0ae59ae9462f30417de35ea1add5559e1b409f2d042329470dfb601591c7a6adcb4f3d417d543769c54d4ef9c04c2296cc6ff8052c37f1690aad96"
      ],
      "sequence": 4294967294
    }
  ],
  "vout": [
    {
      "value": 499955.2564,
      "n": 0,
      "scriptPubKey": {
        "asm": "1 f1a171188cf88baf5fca9ef88bcb4a0e23c4bb0b65a16c7f14ac006f62e511e6",
        "hex": "5120f1a171188cf88baf5fca9ef88bcb4a0e23c4bb0b65a16c7f14ac006f62e511e6",
        "reqSigs": 1,
        "type": "witness_v1_scripthash",
        "addresses": [
          "3QJmnh"
        ]
      }
    },
    {
      "value": 1.0,
      "n": 1,
      "scriptPubKey": {
        "asm": "OP_RETURN 32bb55a637f4b360beae3c24ce01a68fa12d37a03987a57c2d54691b3dba3bbe 32f9b282e28db2d4ca1edebffa8e406be34673892d8e7d337e645289ec061cde12d992a2c2ad92f4ea3efe9fdaae604bc36653a90dae5d135e4472a9cc263cfe72b9f2c2a2cdf2948a5e9effbace002ba30633c96dce3d733e2412c9ac465c9e5299d2e282edd2b4aa7ebedf9aee200b832613e94dee1d531e0432e98c667cbeb2793202620d32544a9e5e3f7a0ec0eb63c6f309ad0efdb3fee4d2096c869c5e92591222422d12746abe7e1f5a2ee0cb43e6d3298d2edd93dec4f2294ca6bc7ef2397242224d72140ade1e7f3a4e80ab2386b349ed4ebdf3bea492492cc6dc1ed2195262026d52342afe3e5f1a6ea08b03a69369cd6e9dd39e84b2690ce6fc3e32f9b282e28db2d4ca1edebffa8e406be34673892d8e7d337e645289ec061cde12d992a2c2ad92f4ea3efe9fdaae604bc36653a90dae5d135e4472a9cc263cfe72b9f2c2a2cdf2948a5e9effbace002ba30633c96dce3d733e2412c9ac465c9e5299d2e282edd2b4aa7ebedf9aee200b832613e94dee1d531e0432e98c667cbeb2793202620d32544a9e5e3f7a0ec0eb63c6f309ad0efdb3fee4d2096c869c5e92591222422d12746abe7e1f5a2ee0cb43e6d3298d2edd93dec4f2294ca6bc7ef2397242224d72140ade1e7f3a4e80ab2386b349ed4ebdf3bea492492cc6dc1ed2195262026d52342afe3e5f1a6ea08b03a69369cd6e9dd39e84b2690ce6fc3e32f9b282e28db2d4ca1edebffa8e406be34673892d8e7d337e645289ec061cde12d992a2c2ad92f4ea3efe9fdaae604bc36653a90dae5d135e4472a9cc263cfe72b9f2c2a2cdf2948a5e9effbace002ba30633c96dce3d733e2412c9ac465c9e5299d2e282edd2b4aa7ebedf9aee200b832613e94dee1d531e0432e98c667cbeb2793202620d32544a9e5e3f7a0ec0eb63c6f309ad0efdb3fee4d2096c869c5e92591222422d12746abe7e1f5a2ee0cb43e6d3298d2edd93dec4f2294ca6bc7ef2397242224d72140ade1e7f3a4e80ab2386b349ed4ebdf3bea492492cc6dc1ed2195262026d52342afe3e5f1a6ea08b03a69369cd6e9dd39e84b2690ce6fc3e32f9b282e28db2d4ca1edebffa8e406be34673892d8e7d337e645289ec061cde12d992a2c2ad92f4ea3efe9fdaae604bc36653a90dae5d135e4472a9cc263cfe72b9f2c2a2cdf2948a5e9effbace002ba30633c96dce3d733e2412c9ac465c9e5299d2e282edd2b4aa7ebedf9aee200b832613e94dee1d531e0432e98c667cbeb2793202620d32544a9e5e3f7a0ec0eb63c6f309ad0efdb3fee4d2096c869c5e92591222422d12746abe7e1f5a2ee0cb43e6d3298d2edd93dec4f2294ca6bc7ef2397242224d72140ade1e7f3a4e80ab2386b349ed4ebdf3bea492492cc6dc1ed2195262026d52342afe3e5f1a6ea08b03a69369cd6e9dd39e84b2690ce6fc3e32f9b282e28db2d4ca1edebffa8e406be34673892d8e7d337e645289ec061cde12d992a2c2ad92f4ea3efe9fdaae604bc36653a90dae5d135e4472a9cc263cfe72b9f2c2a2cdf2948a5e9effbace002ba30633c96dce3d733e2412c9ac465c9e5299d2e282edd2b4aa7ebedf9aee200b832613e94dee1d531e0432e98c667cbeb2793202620d32544a9e5e3f7a0ec0ebd8fa543a9ef75e59a1dbd917f093266678936320ec0bc779564164aae78b7b20",
        "hex": "6a2032bb55a637f4b360beae3c24ce01a68fa12d37a03987a57c2d54691b3dba3bbe4db00432f9b282e28db2d4ca1edebffa8e406be34673892d8e7d337e645289ec061cde12d992a2c2ad92f4ea3efe9fdaae604bc36653a90dae5d135e4472a9cc263cfe72b9f2c2a2cdf2948a5e9effbace002ba30633c96dce3d733e2412c9ac465c9e5299d2e282edd2b4aa7ebedf9aee200b832613e94dee1d531e0432e98c667cbeb2793202620d32544a9e5e3f7a0ec0eb63c6f309ad0efdb3fee4d2096c869c5e92591222422d12746abe7e1f5a2ee0cb43e6d3298d2edd93dec4f2294ca6bc7ef2397242224d72140ade1e7f3a4e80ab2386b349ed4ebdf3bea492492cc6dc1ed2195262026d52342afe3e5f1a6ea08b03a69369cd6e9dd39e84b2690ce6fc3e32f9b282e28db2d4ca1edebffa8e406be34673892d8e7d337e645289ec061cde12d992a2c2ad92f4ea3efe9fdaae604bc36653a90dae5d135e4472a9cc263cfe72b9f2c2a2cdf2948a5e9effbace002ba30633c96dce3d733e2412c9ac465c9e5299d2e282edd2b4aa7ebedf9aee200b832613e94dee1d531e0432e98c667cbeb2793202620d32544a9e5e3f7a0ec0eb63c6f309ad0efdb3fee4d2096c869c5e92591222422d12746abe7e1f5a2ee0cb43e6d3298d2edd93dec4f2294ca6bc7ef2397242224d72140ade1e7f3a4e80ab2386b349ed4ebdf3bea492492cc6dc1ed2195262026d52342afe3e5f1a6ea08b03a69369cd6e9dd39e84b2690ce6fc3e32f9b282e28db2d4ca1edebffa8e406be34673892d8e7d337e645289ec061cde12d992a2c2ad92f4ea3efe9fdaae604bc36653a90dae5d135e4472a9cc263cfe72b9f2c2a2cdf2948a5e9effbace002ba30633c96dce3d733e2412c9ac465c9e5299d2e282edd2b4aa7ebedf9aee200b832613e94dee1d531e0432e98c667cbeb2793202620d32544a9e5e3f7a0ec0eb63c6f309ad0efdb3fee4d2096c869c5e92591222422d12746abe7e1f5a2ee0cb43e6d3298d2edd93dec4f2294ca6bc7ef2397242224d72140ade1e7f3a4e80ab2386b349ed4ebdf3bea492492cc6dc1ed2195262026d52342afe3e5f1a6ea08b03a69369cd6e9dd39e84b2690ce6fc3e32f9b282e28db2d4ca1edebffa8e406be34673892d8e7d337e645289ec061cde12d992a2c2ad92f4ea3efe9fdaae604bc36653a90dae5d135e4472a9cc263cfe72b9f2c2a2cdf2948a5e9effbace002ba30633c96dce3d733e2412c9ac465c9e5299d2e282edd2b4aa7ebedf9aee200b832613e94dee1d531e0432e98c667cbeb2793202620d32544a9e5e3f7a0ec0eb63c6f309ad0efdb3fee4d2096c869c5e92591222422d12746abe7e1f5a2ee0cb43e6d3298d2edd93dec4f2294ca6bc7ef2397242224d72140ade1e7f3a4e80ab2386b349ed4ebdf3bea492492cc6dc1ed2195262026d52342afe3e5f1a6ea08b03a69369cd6e9dd39e84b2690ce6fc3e32f9b282e28db2d4ca1edebffa8e406be34673892d8e7d337e645289ec061cde12d992a2c2ad92f4ea3efe9fdaae604bc36653a90dae5d135e4472a9cc263cfe72b9f2c2a2cdf2948a5e9effbace002ba30633c96dce3d733e2412c9ac465c9e5299d2e282edd2b4aa7ebedf9aee200b832613e94dee1d531e0432e98c667cbeb2793202620d32544a9e5e3f7a0ec0ebd8fa543a9ef75e59a1dbd917f093266678936320ec0bc779564164aae78b7b20",
        "type": "nulldata"
      }
    }
  ],
  "blockhash": "fe774b47c0e88c04e0fb50de4979690042b0828e482e852985a1cce393f947a2",
  "confirmations": 1,
  "time": 1764183806,
  "blocktime": 1764183806
}