{
  "hex": "0100000000010145dc9246b57797d4d664dca46bedbc67e9da447ea09879d3e5364419df7c77670000000000feffffff0280cbbf57792d0000225120e7bd25239026385523769b9731e87c292ef6ecaa67352941b1d0171b350b431400e1f50500000000fdd5046a204b4178f9673c7f3b0bd8c91284ac692e1aa5301c5010303bbfbb7a7dc65230a64db004b3e3753efb9391ac722f52cb29f068f072c7901521d0f79b71c50444a0f3fb5893c3551edbb3b18c520f72eb09d048d052e7b03501f0d7bb51e5246480d3db78f3a3357ebbd3d1ec326f128b69b028b03287d0556190b7db31854404e0b3bb18d383155e9bf3f1cc124f32ab4990089012a7f07541b097fb11a56424c0939b383363f5be7b13112cf2afd24ba970e870f2471095a150771bf14584c420737bd81343d59e5b33310cd28ff26b8950c850d26730b58170573bd165a4e400535bf87323b5fe3b53516cb2ef920be930a830b20750d5e110375bb105c48460333b98530395de1b73714c92cfb22bc9108810922770f5c130177b9125e4a440131bb8b3e3753efb9391ac722f52cb29f068f072c7901521d0f79b71c50444a0f3fb5893c3551edbb3b18c520f72eb09d048d052e7b03501f0d7bb51e5246480d3db78f3a3357ebbd3d1ec326f128b69b028b03287d0556190b7db31854404e0b3bb18d383155e9bf3f1cc124f32ab4990089012a7f07541b097fb11a56424c0939b383363f5be7b13112cf2afd24ba970e870f2471095a150771bf14584c420737bd81343d59e5b33310cd28ff26b8950c850d26730b58170573bd165a4e400535bf87323b5fe3b53516cb2ef920be930a830b20750d5e110375bb105c48460333b98530395de1b73714c92cfb22bc9108810922770f5c130177b9125e4a440131bb8b3e3753efb9391ac722f52cb29f068f072c7901521d0f79b71c50444a0f3fb5893c3551edbb3b18c520f72eb09d048d052e7b03501f0d7bb51e5246480d3db78f3a3357ebbd3d1ec326f128b69b028b03287d0556190b7db31854404e0b3bb18d383155e9bf3f1cc124f32ab4990089012a7f07541b097fb11a56424c0939b383363f5be7b13112cf2afd24ba970e870f2471095a150771bf14584c420737bd81343d59e5b33310cd28ff26b8950c850d26730b58170573bd165a4e400535bf87323b5fe3b53516cb2ef920be930a830b20750d5e110375bb105c48460333b98530395de1b73714c92cfb22bc9108810922770f5c130177b9125e4a440131bb8b3e3753efb9391ac722f52cb29f068f072c7901521d0f79b71c50444a0f3fb5893c3551edbb3b18c520f72eb09d048d052e7b03501f0d7bb51e5246480d3db78f3a3357ebbd3d1ec326f128b69b028b03287d0556190b7db31854404e0b3bb18d383155e9bf3f1cc124f32ab4990089012a7f07541b097fb11a56424c0939b383363f5be7b13112cf2afd24ba970e870f2471095a150771bf14584c420737bd81343d59e5b33310cd28ff26b8950c850d26730b58170573bd165a4e400535bf87323b5fe3b53516cb2ef920be930a830b20750d5e110375bb105c48460333b98530395de1b73714c92cfb22bc9108810922770f5c130177b9125e4a440131bb8b3e3753efb9391ac722f52cb29f068f072c7901521d0f79b71c50444a0f3fb5893c3551edbb3b18c520f72eb09d048d052e7b03501f0d7bb51e5246480d3db78f3a3357ebbd3d1ec326f128b69b028b03287d0556190b7db31854404e0b3bb18d383155e9bf3f1cc124f32ab4990089012a7f07541b097fb11a56424c0939b383363f5be7b13112cf2afd24ba970e870acfa1b7982f21374a6c5cf342024eda94c46bd664d19579f7a3eff205f3b1cbc02fd7509923bc3a85cf72cb97d247b80c592b962d196965d4a5582346e299b4155fe2177a39729c18f01fa105d26043f5081ad2b2bfb623f839e4d1d175455e08d8d23fa1fa0017dceac433e18e67cbbe4ecad0f940cce7dd62023d9537bad8449b8d42c10fa64e98a745007ea2fbc100455a0008d39dc61f17683aa8a477590f3170c9b86b75155cfb3af904c6db9f3b5b8f50239b5451796c298a44413e9f842eec65230977bee4dbcfba0715ff655aa621c1faf8fb1b922e4e80f01f57a086ebc24b49f5692b0949528b1b5fb513f4d707d0ff9067cb8955a37664f0116999acfca324042fb6e5b5b4bbf74737cbf7e8daa225034f6cd829b0262043d655372e2f3aaaa547511690fd92884dcc9365a0cf4f7698614476bb830347c71240c64762384b5069c70384a334cb3953387944edd5ad3b1cac843ffd2cbd54f2cd299736d64508f71a8bf945f4267923f22d1cb459bb5a434e48ad1cabdd4fac29e4292be8576bcc771932e1dda93b4a57344938e1e51f8b08105c5ecc9425d6f6a1b80a48b38148448f2048105a27962abd1bc24826883e598995f6ac1c39bbedf52be1ecca13ac2c1f92ebe4edfda3dc12dd3be157ba63302a237cb15e54b84a92408a9e57857a1ef4f1680d2d4161703b257e35306d5e894c7b5e5ac6188efa892298803f460e220fd547b3e5cde4a07d2f2dff8f445501d0682746c040b525f73226666d481f469b88397da04e605747bcb53111759f7ffcffae62acc0bbb502309b6e8d0c1d8b6ff95d426828dcc9f23a7404b39aaa0a9046c35c6d337df5bfeb29c0b2e0f0bb9bc16d6695c02803291e26bb0dd920e7bfa4070a30287cda18a974de2f94e2e5f2ffcb69c2a1c3e650a455c7480a2c5dec91c6caf80fd86859795a7b7c6f7a2d1a539276991b41eb642007bb00fa152a7ee4c1d3bedb6a067b06ebfc6000163b64b4ec5f556291435dbc86f253d4a76ff0d7b2ec6f224ccdba719e279910e8d578e8a3f6befd47cb4e2845a28a615d23c9f7f801bc304d7eb55f7feef2e83965812265f5e402d90934c415e98299f1d98528a7324e92706f9efafa131c9d8d8fc5b6d0bfbcfb261a4321f3d67abec27ff990ca36625d488cd3e5be9edc42f53f94c0eb09e154681676b4846b1465a1fbdcf3da233e5c7da6df61e7e51f0c53eadcb5ffd0fa8a734dbe5dc448d6c40c5950ec108f6a6d1143b1f66c51b6117b57ea113cf4ddf7ba61ba1a81e0c4d024e9f7c82840e89a78810102ac205cc266e4672936bfe208534308844505fd4068b03257b69f5e98c9cf4a19b042174c82223633648d1d62c519bbaf5e06a553fdd76da219cda8a1888bc2d784f9e07d2ff814012015172220eceafa699b58eadda44d766bbe0c9819cc857a82b393818cecd18a24cdf182eaea91a9e4c313c98f4ad8e01c4091106b6a87ea68673e769134ddfa20f60e90bf039b30bf6e86d03c0a30ef8d5a92c99927f1f83081ed49e9fff9e91b8bd5da6524313f404eaa8dfa3a4b2cfb897c3d93151f32b1285b85f6d6a36778f4df7e3cffe6edc723ed3b6f69e3a4ca5dbeca31e82c7be09fd64a62e965930d83d86bd7d54d93300443fb42aa45cbd0d7201aa6bbbe919df0771da060a3e34926da0ace7e089e0ff0feb101d13ccaa3966898d7271d5ac0546aafaba9a4fa9e2e185cddc325b78886c5f0c36bdef360c4df129332d6ba017f34c68a917a9d80420eb1e40acd9a997f1603e97e0ff3597c11f658e1ea44265a18153bab1caff2c0bcd26829b29d4226931d4ccd49384b631c96714edc1ae7d653a8749b12bce0e0ba44400f8f4b375bc3ea057cdba3ed52a833f855a23616eafa2fe9e0e0a5752dc118ba88b3da8864354ef057134aaac52584514def3a1b9cbe7a03291b2eb048538622c3a1c3be62405236a91c0041f56174d04b76242952d90877262d83cec66c9a6a7ba62061eeb466d8dd9dafd10015867d2735a25033d5638401590cd47a040f81bfa4a770dddbd78d492007cbd64ed1d3cc6c853126cce537a7f06084efee4d8f121c3098967db57031a8373c944bd266ad9118a106a9f82aa1a29ff7cc0b21102bd88187bbf8c129be984055230ab2a8b740f2598bb05f877afb618c59f30bcfced91d3ecb7516250d2e1eb4b0da07f6726852ce45dda575c317c2463cc7509a593bca1c5584bc0af16d125fb2f67502c25fae8230f154c39666583fd05e4f036835a169875299a70b990360eacb307672de0f3d17efa93ae1f189961fc20c766af0e3afd0c496848027e5079a0ff1e18ea86661f256e1cbc7b12837732abbd04da1b90fa681fee0e6579397b78ce7227111ba44cc8953270d012d58400441535dcb0c93084e4703ba4c8af282b45c404568a88bd483f9afa705e9fbcc1e2963cce17fe4043dca35a9f88098dc90a538ef4227c8dab1e55279930f269ab58ed5222ff8d8a64aef5d0385624db446fb986c2a6887b41b32ee28a3ea1519190a30ec52d65e7cc9e17c43cdd815053e2761463faac1d29a5e0dd3ae96a3792d8f0cfab376a8eadaa02b6b17a12cefffc989a8e6cfc7a9885936b9c1bc16325f3de2ee8f7e8191ef748287ce32537d84f78f41fdd66269425c73f5a9ae7de7c4b39f32b5e5c4caa7f0e4bb5c5f432988ed0d7c70cba221ee67455e22b016ec9344e255aea39428b5160ba0be6546a1d2cadd9d0bf691c5f547ab4819415d90218bce9e2b64948418f0f9d665c23691fbcf5d2d8d4dca64479f97c31310bcc7a59187cda762eb807a9c95c6f2d587c5d7e3d26d098b844afe348990e86ecee1639a0ccd4666bcb3938aaeee56d5dcd1cff13d95cc050f1f6332fd43a3db689130de7ac1e314dab43cd86742f9754a09883ecb35637242e926dc8583114d59afcfc84060aacafd2def91b03e8b8d210bf84fa100d2291c175e5ffcdea95b291466d056763f98adb1b41e8c76c55d78fdf55a655babaa80cf95c1ea60d9fad80fee23d00f495df37e58fc1b76bc22884aca9aedace56e4455497684328121fbb99891c9b3b542db39ce02b4735325d697e2d339ed668bd7f1728811dbea2c30805420158303efe8e78742b931bc4d3d1026ad6d39bc814cafff8436d09ee0b1bfe36ad955c259d39e277aba185d8da39480571f772122bbe7404b9019a53c9f5ac32a2c12e27d497e8d929537a9c5965cc36c1af789a3c99c7937336a2647dd539361baa697a7d8a7fa28be818cd080cfdeb81ae7a5346fe83f2ec484d7efcce67ff72fa8443358085e3f396079c5c4c2651d347f48b6aeee60a47677199acd1d8fd0720232c2d525f77989a9ea7adbdc2cfdbe4eb000e308792989fdc23323b3e505b5c6c9394a4acb7bbc0d1d4f30000000000000000000000000000000000000000000000000000091c243601fd2105001b1b17f39c6f27bf3e36a5cc8b5b5e5411bf91f2e7f2e74fbcdc875e3d84fda620625e0749242833d0696ca077220213f195a7e2eb0243621e55553fd817c7d79b2ac637c8eb464b9079eb154c25c449c0b939e96a76ae07609d0071c47337cb974a66a86076024600fb5255ad7a5933946b67b300bcb62f083c16ae82b82266a815219e04a8852c6c4b686624dda39ff2c8e2b24826ba78aa6a7e1396889365ba93738212b13d79ec6ff85ea8aa75bed83afb38d1d707636df398ff065a5d4cb9be37f747cae0aaf10eb3fb8fe6cef2bb2e42af8a3719c6ae259b27c225ecc227cf90789d756463f44508e06c57c6ce84f1efa043028d3439d2e5b05f2c3ab696eaf56706a7a9797e5ff4f5a016ff6bd9350363803cd7346710336779433b9c5f90ad0e7fd18a7254e0168a174d5cdc4924f4d67bf630659ed0c1f7ac93b9b8f876df8ad2fc4f22f19775291754dc7faa836fa8abf9d5aa74dfe7540fde7e2feb9a992aefd153c8fdb725d88a5406aa6b61d42827c902a7a8eddc8bdf3184f6006a2e1d17e815068966803b2562238a0f88f39710590e94c6a84b0a674e56c9e15cbdd99ef81a8018be1dd4028b9d6473d262d0c26020367f6ff644d3907593c7a166c99379fa5ab106db028a1fe2b0d782d38e6194edbdfbecac5290414506c8492aaef2558a05a6575ecdd8dfece887c35e1b793f5e420a01b8e09b6fbb38474dfc0accd8acc8dd88b9e33d04fbb0dbd7ee957efcac53437cf1dd5ad6484f9c4e19d2817d9c3d6e62f2fd9aa0d6c28a549d176de44b8d5e36ba906b0e2b0593c5053054c99648faf86dbbd9a21387a93cadcb98ac68dd99b751cc56e64bbf1d06f56c7b22854f01b77bbdb621f05b80108e8f8224d3aea6ef90bfef56c394cdc7bdfa55bcc1b90874b01cc378d153be5f9894a1514fc0371b0878039d2917bebc59c7c79a63801286f354d5c39851922ba1e8da5c42e920f8560399941f70991c3302cac3a4fd87f901b42836a66c1a09c138841e271ba8becfd57a263f40b9c4f2c3992e3b629465184f388b5986f8078b991170fcbae9c1dba932e3bee00c8d7c02d1c6e45da8a97d3d344212bd7fd03ab3286e1a8e5d632f45edc54510dc02c0cfa1eb105713cfcd7a292d69eac26c75b12e651ec25924a071b8fb08a35adb30743f189e771ee8eb6f633340415462491fd7dc37da2c3c2689dc72d8768159302bb13144749553b651e7cec8bfe0a9b4d199dd2a1321755c6e3887297318e987fb6d49b605ba1535f693323957a64602c541a8cfff72bf2d668f21eba230a50cdf2a40658e64b8de702586c71f98832a3567c161722a17d388d28a58bef25a66ef0ad4a9a11d4e741c297334f0c4133b2e5d6d6ea294c56f11db7d1793022d773cdb57798005b030d96caf5ccbff83ed46c08df5584a0ae859eb194042b28323de7662e3ae079b6b41afc1a396e5ec19223409e8e35036e03e8e747fd50687926e0919a524e8135acf5e46d834a98babe7fb5639058d2f742a8d4dbd9408e761aebd2636972c9e93a556fd2afea524f9c1361166e1025db77dce3a5bdc906be8649d829fe31bb3bd7cb3c06b0e2952259ec2468779b31d10c3927ca6a75810ed848dd93da3c93dcb9486c17f8f0c418de89d9062bebfcfafb374b6bd76ff48c3bb8c0797bf16d7f7273da0ad92059e8d6cbf9dc4d3b7bdd1b50a54a1ccabf1b8da3b208fb1025949e6cf4ae76727e6c9f79ebbb88c6e158ed46437ae8f7663aea3515581c4ac8f2189eb9d866b6223a839552ec4c2a785b3cfa5486e05af258994bf6a67a88034dcdda38d2bc9af1b7f0d235482793fdade64ff8a684e86000000",
  "txid": "3be1f1090daaaa359eba7d5f7806830267740a05e0500e08733a77630792df85",
  "hash": "bef46ba639a2a17081481d6986f14879dfbdcea6e01d2d7287e9f85aa30a4dc7",
  "size": 5085,
  "vsize": 2278,
  "version": 1,
  "locktime": 134,
  "vin": [
    {
      "txid": "67777cdf194436e5d37998a07e44dae967bced6ba4dc64d6d49777b54692dc45",
      "vout": 0,
      "scriptSig": {
        "asm": "",
        "hex": ""
      },
      "txinwitness": [
        "923bc3a85cf72cb97d247b80c592b962d196965d4a5582346e299b4155fe2177a39729c18f01fa105d26043f5081ad2b2bfb623f839e4d1d175455e08d8d23fa1fa0017dceac433e18e67cbbe4ecad0f940cce7dd62023d9537bad8449b8d42c10fa64e98a745007ea2fbc100455a0008d39dc61f17683aa8a477590f3170c9b86b75155cfb3af904c6db9f3b5b8f50239b5451796c298a44413e9f842eec65230977bee4dbcfba0715ff655aa621c1faf8fb1b922e4e80f01f57a086ebc24b49f5692b0949528b1b5fb513f4d707d0ff9067cb8955a37664f0116999acfca324042fb6e5b5b4bbf74737cbf7e8daa225034f6cd829b0262043d655372e2f3aaaa547511690fd92884dcc9365a0cf4f7698614476bb830347c71240c64762384b5069c70384a334cb3953387944edd5ad3b1cac843ffd2cbd54f2cd299736d64508f71a8bf945f4267923f22d1cb459bb5a434e48ad1cabdd4fac29e4292be8576bcc771932e1dda93b4a57344938e1e51f8b08105c5ecc9425d6f6a1b80a48b38148448f2048105a27962abd1bc24826883e598995f6ac1c39bbedf52be1ecca13ac2c1f92ebe4edfda3dc12dd3be157ba63302a237cb15e54b84a92408a9e57857a1ef4f1680d2d4161703b257e35306d5e894c7b5e5ac6188efa892298803f460e220fd547b3e5cde4a07d2f2dff8f445501d0682746c040b525f73226666d481f469b88397da04e605747bcb53111759f7ffcffae62acc0bbb502309b6e8d0c1d8b6ff95d426828dcc9f23a7404b39aaa0a9046c35c6d337df5bfeb29c0b2e0f0bb9bc16d6695c02803291e26bb0dd920e7bfa4070a30287cda18a974de2f94e2e5f2ffcb69c2a1c3e650a455c7480a2c5dec91c6caf80fd86859795a7b7c6f7a2d1a539276991b41eb642007bb00fa152a7ee4c1d3bedb6a067b06ebfc6000163b64b4ec5f556291435dbc86f253d4a76ff0d7b2ec6f224ccdba719e279910e8d578e8a3f6befd47cb4e2845a28a615d23c9f7f801bc304d7eb55f7feef2e83965812265f5e402d90934c415e98299f1d98528a7324e92706f9efafa131c9d8d8fc5b6d0bfbcfb261a4321f3d67abec27ff990ca36625d488cd3e5be9edc42f53f94c0eb09e154681676b4846b1465a1fbdcf3da233e5c7da6df61e7e51f0c53eadcb5ffd0fa8a734dbe5dc448d6c40c5950ec108f6a6d1143b1f66c51b6117b57ea113cf4ddf7ba61ba1a81e0c4d024e9f7c82840e89a78810102ac205cc266e4672936bfe208534308844505fd4068b03257b69f5e98c9cf4a19b042174c82223633648d1d62c519bbaf5e06a553fdd76da219cda8a1888bc2d784f9e07d2ff814012015172220eceafa699b58eadda44d766bbe0c9819cc857a82b393818cecd18a24cdf182eaea91a9e4c313c98f4ad8e01c4091106b6a87ea68673e769134ddfa20f60e90bf039b30bf6e86d03c0a30ef8d5a92c99927f1f83081ed49e9fff9e91b8bd5da6524313f404eaa8dfa3a4b2cfb897c3d93151f32b1285b85f6d6a36778f4df7e3cffe6edc723ed3b6f69e3a4ca5dbeca31e82c7be09fd64a62e965930d83d86bd7d54d93300443fb42aa45cbd0d7201aa6bbbe919df0771da060a3e34926da0ace7e089e0ff0feb101d13ccaa3966898d7271d5ac0546aafaba9a4fa9e2e185cddc325b78886c5f0c36bdef360c4df129332d6ba017f34c68a917a9d80420eb1e40acd9a997f1603e97e0ff3597c11f658e1ea44265a18153bab1caff2c0bcd26829b29d4226931d4ccd49384b631c96714edc1ae7d653a8749b12bce0e0ba44400f8f4b375bc3ea057cdba3ed52a833f855a23616eafa2fe9e0e0a5752dc118ba88b3da8864354ef057134aaac52584514def3a1b9cbe7a03291b2eb048538622c3a1c3be62405236a91c0041f56174d04b76242952d90877262d83cec66c9a6a7ba62061eeb466d8dd9dafd10015867d2735a25033d5638401590cd47a040f81bfa4a770dddbd78d492007cbd64ed1d3cc6c853126cce537a7f06084efee4d8f121c3098967db57031a8373c944bd266ad9118a106a9f82aa1a29ff7cc0b21102bd88187bbf8c129be984055230ab2a8b740f2598bb05f877afb618c59f30bcfced91d3ecb7516250d2e1eb4b0da07f6726852ce45dda575c317c2463cc7509a593bca1c5584bc0af16d125fb2f67502c25fae8230f154c39666583fd05e4f036835a169875299a70b990360eacb307672de0f3d17efa93ae1f189961fc20c766af0e3afd0c496848027e5079a0ff1e18ea86661f256e1cbc7b12837732abbd04da1b90fa681fee0e6579397b78ce7227111ba44cc8953270d012d58400441535dcb0c93084e4703ba4c8af282b45c404568a88bd483f9afa705e9fbcc1e2963cce17fe4043dca35a9f88098dc90a538ef4227c8dab1e55279930f269ab58ed5222ff8d8a64aef5d0385624db446fb986c2a6887b41b32ee28a3ea1519190a30ec52d65e7cc9e17c43cdd815053e2761463faac1d29a5e0dd3ae96a3792d8f0cfab376a8eadaa02b6b17a12cefffc989a8e6cfc7a9885936b9c1bc16325f3de2ee8f7e8191ef748287ce32537d84f78f41fdd66269425c73f5a9ae7de7c4b39f32b5e5c4caa7f0e4bb5c5f432988ed0d7c70cba221ee67455e22b016ec9344e255aea39428b5160ba0be6546a1d2cadd9d0bf691c5f547ab4819415d90218bce9e2b64948418f0f9d665c23691fbcf5d2d8d4dca64479f97c31310bcc7a59187cda762eb807a9c95c6f2d587c5d7e3d26d098b844afe348990e86ecee1639a0ccd4666bcb3938aaeee56d5dcd1cff13d95cc050f1f6332fd43a3db689130de7ac1e314dab43cd86742f9754a09883ecb35637242e926dc8583114d59afcfc84060aacafd2def91b03e8b8d210bf84fa100d2291c175e5ffcdea95b291466d056763f98adb1b41e8c76c55d78fdf55a655babaa80cf95c1ea60d9fad80fee23d00f495df37e58fc1b76bc22884aca9aedace56e4455497684328121fbb99891c9b3b542db39ce02b4735325d697e2d339ed668bd7f1728811dbea2c30805420158303efe8e78742b931bc4d3d1026ad6d39bc814cafff8436d09ee0b1bfe36ad955c259d39e277aba185d8da39480571f772122bbe7404b9019a53c9f5ac32a2c12e27d497e8d929537a9c5965cc36c1af789a3c99c7937336a2647dd539361baa697a7d8a7fa28be818cd080cfdeb81ae7a5346fe83f2ec484d7efcce67ff72fa8443358085e3f396079c5c4c2651d347f48b6aeee60a47677199acd1d8fd0720232c2d525f77989a9ea7adbdc2cfdbe4eb000e308792989fdc23323b3e505b5c6c9394a4acb7bbc0d1d4f30000000000000000000000000000000000000000000000000000091c243601",
        "001b1b17f39c6f27bf3e36a5cc8b5b5e5411bf91f2e7f2e74fbcdc875e3d84fda620625e0749242833d0696ca077220213f195a7e2eb0243621e55553fd817c7d79b2ac637c8eb464b9079eb154c25c449c0b939e96a76ae07609d0071c47337cb974a66a86076024600fb5255ad7a5933946b67b300bcb62f083c16ae82b82266a815219e04a8852c6c4b686624dda39ff2c8e2b24826ba78aa6a7e1396889365ba93738212b13d79ec6ff85ea8aa75bed83afb38d1d707636df398ff065a5d4cb9be37f747cae0aaf10eb3fb8fe6cef2bb2e42af8a3719c6ae259b27c225ecc227cf90789d756463f44508e06c57c6ce84f1efa043028d3439d2e5b05f2c3ab696eaf56706a7a9797e5ff4f5a016ff6bd9350363803cd7346710336779433b9c5f90ad0e7fd18a7254e0168a174d5cdc4924f4d67bf630659ed0c1f7ac93b9b8f876df8ad2fc4f22f19775291754dc7faa836fa8abf9d5aa74dfe7540fde7e2feb9a992aefd153c8fdb725d88a5406aa6b61d42827c902a7a8eddc8bdf3184f6006a2e1d17e815068966803b2562238a0f88f39710590e94c6a84b0a674e56c9e15cbdd99ef81a8018be1dd4028b9d6473d262d0c26020367f6ff644d3907593c7a166c99379fa5ab106db028a1fe2b0d782d38e6194edbdfbecac5290414506c8492aaef2558a05a6575ecdd8dfece887c35e1b793f5e420a01b8e09b6fbb38474dfc0accd8acc8dd88b9e33d04fbb0dbd7ee957efcac53437cf1dd5ad6484f9c4e19d2817d9c3d6e62f2fd9aa0d6c28a549d176de44b8d5e36ba906b0e2b0593c5053054c99648faf86dbbd9a21387a93cadcb98ac68dd99b751cc56e64bbf1d06f56c7b22854f01b77bbdb621f05b80108e8f8224d3aea6ef90bfef56c394cdc7bdfa55bcc1b90874b01cc378d153be5f9894a1514fc0371b0878039d2917bebc59c7c79a63801286f354d5c39851922ba1e8da5c42e920f8560399941f70991c3302cac3a4fd87f901b42836a66c1a09c138841e271ba8becfd57a263f40b9c4f2c3992e3b629465184f388b5986f8078b991170fcbae9c1dba932e3bee00c8d7c02d1c6e45da8a97d3d344212bd7fd03ab3286e1a8e5d632f45edc54510dc02c0cfa1eb105713cfcd7a292d69eac26c75b12e651ec25924a071b8fb08a35adb30743f189e771ee8eb6f633340415462491fd7dc37da2c3c2689dc72d8768159302bb13144749553b651e7cec8bfe0a9b4d199dd2a1321755c6e3887297318e987fb6d49b605ba1535f693323957a64602c541a8cfff72bf2d668f21eba230a50cdf2a40658e64b8de702586c71f98832a3567c161722a17d388d28a58bef25a66ef0ad4a9a11d4e741c297334f0c4133b2e5d6d6ea294c56f11db7d1793022d773cdb57798005b030d96caf5ccbff83ed46c08df5584a0ae859eb194042b28323de7662e3ae079b6b41afc1a396e5ec19223409e8e35036e03e8e747fd50687926e0919a524e8135acf5e46d834a98babe7fb5639058d2f742a8d4dbd9408e761aebd2636972c9e93a556fd2afea524f9c1361166e1025db77dce3a5bdc906be8649d829fe31bb3bd7cb3c06b0e2952259ec2468779b31d10c3927ca6a75810ed848dd93da3c93dcb9486c17f8f0c418de89d9062bebfcfafb374b6bd76ff48c3bb8c0797bf16d7f7273da0ad92059e8d6cbf9dc4d3b7bdd1b50a54a1ccabf1b8da3b208fb1025949e6cf4ae76727e6c9f79ebbb88c6e158ed46437ae8f7663aea3515581c4ac8f2189eb9d866b6223a839552ec4c2a785b3cfa5486e05af258994bf6a67a88034dcdda38d2bc9af1b7f0d235482793fdade64ff8a684e"
      ],
      "sequence": 4294967294
    }
  ],
  "vout": [
    {
      "value": 499991.8648,
      "n": 0,
      "scriptPubKey": {
        "asm": "1 e7bd25239026385523769b9731e87c292ef6ecaa67352941b1d0171b350b4314",
        "hex": "5120e7bd25239026385523769b9731e87c292ef6ecaa67352941b1d0171b350b4314",
        "reqSigs": 1,
        "type": "witness_v1_scripthash",
        "addresses": [
          "3QJmnh"
        ]
      }
    },
    {
      "value": 1.0,
      "n": 1,
      "scriptPubKey": {
        "asm": "OP_RETURN 4b4178f9673c7f3b0bd8c91284ac692e1aa5301c5010303bbfbb7a7dc65230a6 b3e3753efb9391ac722f52cb29f068f072c7901521d0f79b71c50444a0f3fb5893c3551edbb3b18c520f72eb09d048d052e7b03501f0d7bb51e5246480d3db78f3a3357ebbd3d1ec326f128b69b028b03287d0556190b7db31854404e0b3bb18d383155e9bf3f1cc124f32ab4990089012a7f07541b097fb11a56424c0939b383363f5be7b13112cf2afd24ba970e870f2471095a150771bf14584c420737bd81343d59e5b33310cd28ff26b8950c850d26730b58170573bd165a4e400535bf87323b5fe3b53516cb2ef920be930a830b20750d5e110375bb105c48460333b98530395de1b73714c92cfb22bc9108810922770f5c130177b9125e4a440131bb8b3e3753efb9391ac722f52cb29f068f072c7901521d0f79b71c50444a0f3fb5893c3551edbb3b18c520f72eb09d048d052e7b03501f0d7bb51e5246480d3db78f3a3357ebbd3d1ec326f128b69b028b03287d0556190b7db31854404e0b3bb18d383155e9bf3f1cc124f32ab4990089012a7f07541b097fb11a56424c0939b383363f5be7b13112cf2afd24ba970e870f2471095a150771bf14584c420737bd81343d59e5b33310cd28ff26b8950c850d26730b58170573bd165a4e400535bf87323b5fe3b53516cb2ef920be930a830b20750d5e110375bb105c48460333b98530395de1b73714c92cfb22bc9108810922770f5c130177b9125e4a440131bb8b3e3753efb9391ac722f52cb29f068f072c7901521d0f79b71c50444a0f3fb5893c3551edbb3b18c520f72eb09d048d052e7b03501f0d7bb51e5246480d3db78f3a3357ebbd3d1ec326f128b69b028b03287d0556190b7db31854404e0b3bb18d383155e9bf3f1cc124f32ab4990089012a7f07541b097fb11a56424c0939b383363f5be7b13112cf2afd24ba970e870f2471095a150771bf14584c420737bd81343d59e5b33310cd28ff26b8950c850d26730b58170573bd165a4e400535bf87323b5fe3b53516cb2ef920be930a830b20750d5e110375bb105c48460333b98530395de1b73714c92cfb22bc9108810922770f5c130177b9125e4a440131bb8b3e3753efb9391ac722f52cb29f068f072c7901521d0f79b71c50444a0f3fb5893c3551edbb3b18c520f72eb09d048d052e7b03501f0d7bb51e5246480d3db78f3a3357ebbd3d1ec326f128b69b028b03287d0556190b7db31854404e0b3bb18d383155e9bf3f1cc124f32ab4990089012a7f07541b097fb11a56424c0939b383363f5be7b13112cf2afd24ba970e870f2471095a150771bf14584c420737bd81343d59e5b33310cd28ff26b8950c850d26730b58170573bd165a4e400535bf87323b5fe3b53516cb2ef920be930a830b20750d5e110375bb105c48460333b98530395de1b73714c92cfb22bc9108810922770f5c130177b9125e4a440131bb8b3e3753efb9391ac722f52cb29f068f072c7901521d0f79b71c50444a0f3fb5893c3551edbb3b18c520f72eb09d048d052e7b03501f0d7bb51e5246480d3db78f3a3357ebbd3d1ec326f128b69b028b03287d0556190b7db31854404e0b3bb18d383155e9bf3f1cc124f32ab4990089012a7f07541b097fb11a56424c0939b383363f5be7b13112cf2afd24ba970e870acfa1b7982f21374a6c5cf342024eda94c46bd664d19579f7a3eff205f3b1cbc",
        "hex": "6a204b4178f9673c7f3b0bd8c91284ac692e1aa5301c5010303bbfbb7a7dc65230a64db004b3e3753efb9391ac722f52cb29f068f072c7901521d0f79b71c50444a0f3fb5893c3551edbb3b18c520f72eb09d048d052e7b03501f0d7bb51e5246480d3db78f3a3357ebbd3d1ec326f128b69b028b03287d0556190b7db31854404e0b3bb18d383155e9bf3f1cc124f32ab4990089012a7f07541b097fb11a56424c0939b383363f5be7b13112cf2afd24ba970e870f2471095a150771bf14584c420737bd81343d59e5b33310cd28ff26b8950c850d26730b58170573bd165a4e400535bf87323b5fe3b53516cb2ef920be930a830b20750d5e110375bb105c48460333b98530395de1b73714c92cfb22bc9108810922770f5c130177b9125e4a440131bb8b3e3753efb9391ac722f52cb29f068f072c7901521d0f79b71c50444a0f3fb5893c3551edbb3b18c520f72eb09d048d052e7b03501f0d7bb51e5246480d3db78f3a3357ebbd3d1ec326f128b69b028b03287d0556190b7db31854404e0b3bb18d383155e9bf3f1cc124f32ab4990089012a7f07541b097fb11a56424c0939b383363f5be7b13112cf2afd24ba970e870f2471095a150771bf14584c420737bd81343d59e5b33310cd28ff26b8950c850d26730b58170573bd165a4e400535bf87323b5fe3b53516cb2ef920be930a830b20750d5e110375bb105c48460333b98530395de1b73714c92cfb22bc9108810922770f5c130177b9125e4a440131bb8b3e3753efb9391ac722f52cb29f068f072c7901521d0f79b71c50444a0f3fb5893c3551edbb3b18c520f72eb09d048d052e7b03501f0d7bb51e5246480d3db78f3a3357ebbd3d1ec326f128b69b028b03287d0556190b7db31854404e0b3bb18d383155e9bf3f1cc124f32ab4990089012a7f07541b097fb11a56424c0939b383363f5be7b13112cf2afd24ba970e870f2471095a150771bf14584c420737bd81343d59e5b33310cd28ff26b8950c850d26730b58170573bd165a4e400535bf87323b5fe3b53516cb2ef920be930a830b20750d5e110375bb105c48460333b98530395de1b73714c92cfb22bc9108810922770f5c130177b9125e4a440131bb8b3e3753efb9391ac722f52cb29f068f072c7901521d0f79b71c50444a0f3fb5893c3551edbb3b18c520f72eb09d048d052e7b03501f0d7bb51e5246480d3db78f3a3357ebbd3d1ec326f128b69b028b03287d0556190b7db31854404e0b3bb18d383155e9bf3f1cc124f32ab4990089012a7f07541b097fb11a56424c0939b383363f5be7b13112cf2afd24ba970e870f2471095a150771bf14584c420737bd81343d59e5b33310cd28ff26b8950c850d26730b58170573bd165a4e400535bf87323b5fe3b53516cb2ef920be930a830b20750d5e110375bb105c48460333b98530395de1b73714c92cfb22bc9108810922770f5c130177b9125e4a440131bb8b3e3753efb9391ac722f52cb29f068f072c7901521d0f79b71c50444a0f3fb5893c3551edbb3b18c520f72eb09d048d052e7b03501f0d7bb51e5246480d3db78f3a3357ebbd3d1ec326f128b69b028b03287d0556190b7db31854404e0b3bb18d383155e9bf3f1cc124f32ab4990089012a7f07541b097fb11a56424c0939b383363f5be7b13112cf2afd24ba970e870acfa1b7982f21374a6c5cf342024eda94c46bd664d19579f7a3eff205f3b1cbc",
        "type": "nulldata"
      }
    }
  ],
  "blockhash": "74cd48d8c624c37e1fac27c00c19e94c48df61d3ca85b84b56360e4f6170fa6f",
  "confirmations": 1,
  "time": 1764182926,
  "blocktime": 1764182926
}