{
  "hex": "01000000000101d4fdd7e317926202b0115ec8dc97a821b9f115b2b9208646c44b18a9d80ef4810100000000feffffff028079ca95782d0000225120d3a8e6060e0f28cdb084416df589feeac22d7b421094ea0da06a9568cd58cae300e1f50500000000fdd5046a20c27ff913203ad4027e9dedc94265005348b21ff67a7cc824213fefadc2f43c574db00416475683794979e41eaa0acd2b8ef71a0c4bc345034e09fafff8b87e40964508366776a3596959c43e8a2aed0baed73a2c6be365236e29dadfd8985e60b66528560716c3390939a45eea4a8d6bceb75a4c0b8305430e49babfb8f83e00d60548762736e3192919847eca6aad4bee977a6c2ba325632e699a9f98d81e20f6256896c7d603f9c9f9649e2a8a4dab0e779a8ccb43c583ce897a7f7838fec016c588b6e7f623d9e9d944be0aaa6d8b2e57baaceb63e5a3eea95a5f5818dee036e5a8d6879643b989b924de6aca0deb4e37dacc8b0385c38ec93a3f3878be805685c8f6a7b66399a99904fe4aea2dcb6e17faecab23a5e3aee91a1f18589ea076a5e816475683794979e41eaa0acd2b8ef71a0c4bc345034e09fafff8b87e40964508366776a3596959c43e8a2aed0baed73a2c6be365236e29dadfd8985e60b66528560716c3390939a45eea4a8d6bceb75a4c0b8305430e49babfb8f83e00d60548762736e3192919847eca6aad4bee977a6c2ba325632e699a9f98d81e20f6256896c7d603f9c9f9649e2a8a4dab0e779a8ccb43c583ce897a7f7838fec016c588b6e7f623d9e9d944be0aaa6d8b2e57baaceb63e5a3eea95a5f5818dee036e5a8d6879643b989b924de6aca0deb4e37dacc8b0385c38ec93a3f3878be805685c8f6a7b66399a99904fe4aea2dcb6e17faecab23a5e3aee91a1f18589ea076a5e816475683794979e41eaa0acd2b8ef71a0c4bc345034e09fafff8b87e40964508366776a3596959c43e8a2aed0baed73a2c6be365236e29dadfd8985e60b66528560716c3390939a45eea4a8d6bceb75a4c0b8305430e49babfb8f83e00d60548762736e3192919847eca6aad4bee977a6c2ba325632e699a9f98d81e20f6256896c7d603f9c9f9649e2a8a4dab0e779a8ccb43c583ce897a7f7838fec016c588b6e7f623d9e9d944be0aaa6d8b2e57baaceb63e5a3eea95a5f5818dee036e5a8d6879643b989b924de6aca0deb4e37dacc8b0385c38ec93a3f3878be805685c8f6a7b66399a99904fe4aea2dcb6e17faecab23a5e3aee91a1f18589ea076a5e816475683794979e41eaa0acd2b8ef71a0c4bc345034e09fafff8b87e40964508366776a3596959c43e8a2aed0baed73a2c6be365236e29dadfd8985e60b66528560716c3390939a45eea4a8d6bceb75a4c0b8305430e49babfb8f83e00d60548762736e3192919847eca6aad4bee977a6c2ba325632e699a9f98d81e20f6256896c7d603f9c9f9649e2a8a4dab0e779a8ccb43c583ce897a7f7838fec016c588b6e7f623d9e9d944be0aaa6d8b2e57baaceb63e5a3eea95a5f5818dee036e5a8d6879643b989b924de6aca0deb4e37dacc8b0385c38ec93a3f3878be805685c8f6a7b66399a99904fe4aea2dcb6e17faecab23a5e3aee91a1f18589ea076a5e816475683794979e41eaa0acd2b8ef71a0c4bc345034e09fafff8b87e40964508366776a3596959c43e8a2aed0baed73a2c6be365236e29dadfd8985e60b66528560716c3390939a45eea4a8d6bceb75a4c0b8305430e49babfb8f83e00d60548762736e3192919847eca6aad4bee977a6c2ba325632e699a9f98d81e20f6256896c7d603f9c9f9649e2a8a4dab0e779a52a635274dffe11d75e698024647651a62d62325a9f65773b428741818b2288702fd7509dd676dace2d3a52f8ddc685990d5744e5222a24a27d72cc4d0e48523aec44975df21695830ca0725d0f0c15d18786c05ca3a0a1d751176e67b15e18b1c26a9dc003c4075aa387a31d1106a4ac2684ae0ac312cc11405922fb8e6e7fbf388d08f127023a198d58142bfb8c619aa6cce3ea6e83984b424bc1efef31e3ac9009873b954af0d7ff56c38d4065e1b41faacd7497f7601bae183dac98ae34a5a50a3769a1413266afe2a9452df0e78e53ce702e1c3ee49100051c0773cab20192ad7eae576622a1ed0849c05a221ed14f8a2eb0c2bc04daf0ea48ac55a23b1e6b0f9023ca3190bd5d58128a0bedb923239bdbf8fd22af2b6988a820d339204837cacffbab7c87ee13bba3f1edf58f06e69dae760d687d95d03e28c847d0e8fe21bc0d1eec3c0f78614552c94b5525f4ba70d725e92d50c9e831c771d6d26216b7312611dca6b6cba37c1c220f66888a0b9a6b81229c5d361cb277b6609f7806fcdc5c66aa1f4805ef7d32338c605aee824006f31d6f4f04f3f3798e8fa38b1692607bb618def65c799f4aee1225b544d82fb4c8fb7dfb25043baf730e1fc46e4bf4918bbb581a87254cf76de553bd0208c41f8c1ec2aed7878bee0603624a0810b8e061186a8c654857e461f617639ff4835bebba89dc697b79d8eaa59fdb559a7e5c328c0dbeec6e9a94539267c9f70b4574bfdb64b4a5a129c60f8d9a7c77868950d17887288c6011b448685817d925b6f91650464a3904f7f1a4b101586af6e73ad695bfbe6cbf7aace1198aa905bd2fd77f779a962830cb44dbb1d365a3b9b89b1879cf8f0254539990f3ce8321270ffd7f30f436fb842904aabc4d2000318dd7d47f414cc825ad6d03d93a6df78547cbb1e66e18d3d821eb2e8f23bbf81d7618d48d622e96c5b1b3d416a1393cc497cbb5c8e155d4c05d45cad55deb28e6c31b59c84a36dd8967df63e003ddf27dcdc7d39df710ad3a8ba1fd1a7dbcd84184a044391771b52f823b44781d8b558fd1e75122a15409adc8b93fbf19db59c265e1244355a5a40d1698d4c100196a437488108d07d1482bd110a126fac723fdc68512c7ec397c73d08e768f40191238fe437efaf1b9352c0c4f6eb4c7948d7be02fc46ad859b56a3305e66d6f1c8a21816b9eba92df2220b136b5e18c2efb3d85a5de91ffa984f6ed67c89bc3accd966b4ec8147b7047a828a68e852de988cdc7ade30d179298d5e6f9af48c987324513da2726aee4e99f4fcfd6de9bdae3158a82bd32a2d280ca38c643802becee2207f0d19e651ec517d3b0ebd94151360df627cb3b0e3b113743a28c2f0a79cb41757d8001b33a478c6b0409befbb32a5d41947ad518001da801c9ca7e191c54afab0bbf7416ad1c642f230e25dc7f74eeaa47b79fb89d64c36b336cabf60bae67faad44bb4e7f302859557a4e73f6a06f44421ee8d58eaf19b3c853f83f4686c63fd377ff85c7d5ce63cb82428d994a6238da03b8d6b3f50b2607cabd30782c117d71f75dccf6bec5cbb61a5d178cb5f6bc7456e96ea0efe4fb1e6912c35b893b34f32fd586d6da6de11dde1d0ca5007de1902c86318dfb00a2884f59aad0141d4d62c5b80248281ef141a86da26bb176e767cc239832f4c209379ff1c7cfec4039cb52145b3c750d245c11357e3cffd0c1ab05caeb87c666cae4ae05fccc2f0730c4141670351453174b07c67d50854ab42e481afd02fe408ff956e0fa6383a306016d13dd01f63513ecef9c17d475a0308af9e57cc038262168336f7194ffb7bbbf91a97428f6d429dd840c38ca0923e8c52c128b4da52d3c72b16e956f3eb08c8c34d116d091ab8245b7bffa37a6d5c8cf6045303153cfa1e65ee61cbe7583cb857476ad88562686a4d4acfe55ce14d2ade6081eda744a8335e382a9a995376a480e2b592a98b794d3bbb7b8ee04459f85b7d94917812797a81f4be8513b68334482e6d0307a6322a4b1c3b49ffbc73673d29b5e2204bcb723d204993fdca02c4d1ec10ae952f6f0805cdcda8543c582e348b9797d7670e6c2687ffd97eea0d9ed357ab36cf7cf4fbd7c305831dc9bc3fe404b657166c67ddeed473af531d97e4ce7e041792be63f8b1feadcfefd071e589bdb2fef71c825368d405dfaa8c23b8f50e9761894bc76cc4c02812e6cf33d7e55bb450ddb6d07aefab099f248e39580073c32045e72ae5b6151c2c2186d454c061320d3884e7bc6a9fb76ee84fb269493cff9e1b478bf5e6ea364ec6ec0c83ffd2f72fc705a7cbfedadc235c5b70488b717ef82c6a7e82bc1ed31c7bf0a654dca1dfdfda98b6831156abf538504f6760abfc8cf5728cd9eb54db0f95c6d53bfe573185f824530e5fbb6a6dc9db3b62f35c0f1f7e1b5372e5fd043f1e56226bf863ac04b135ce993b873115a236eb4db41b1e0ef78effb4d932fcc9b3db40192675507975f56835532213d385e0d57f2564f950e061e6e60788550ae9a5d8b4cb2d75adc3f0987f0e460ea00544e97c515889fc4ce6bb192f2bec61ed0e359a3242aebd5ee00b259ab065bc512dc5a67c0ea79c70a8b57178fb02f99198e1d82fa83fa308583f8f91459079291773f9dbf44fdfb47812a09be322dfbf92b28564336c4a6e5c85226d911421d6543c403bbaab6b871bb18badf19f447aede3f22283b0c69de795b3d4d381a32cb2926b05626be61f6e902b29ccaedd9105b73824fcf251e8baab45ea48f063b175012df6364180282f5a65601d487a48927c5b76a4f8842e21b2d8c74f90c82f92721da91cde1d6615f945d897eab50ce5d9695ecce2ce2c90cba2fb90886eb3b58073294864b73a9e3c000fd40edf9fb431558f723da9d1d3b17ee55d01d656d6d75c2e0dc59ed974abd425ddef8cd5bba355fc94e62537784dad8bf6cdddc9d2d1d7cc4860cc78b597083b9ddbd3b5c199b1e465cc04ca5bd5c4d6c287ce1d5c2c3347720b42fceffeff53dd81428667a40b36fca807921d99303832fcc0982297da4f6ad3e8b3ed3cc532fc1127279f5e22ce78635632caeff320ce42affbd8115af74103e4b4fe3d8f912ffbe8886efd41963edb3db4e24c87ecba06e38b818047b5f6741c534e44097c4f51467a1f593bd7ff0dfb194153d5c6036a849b98357827577e23a1851d4fbf8e6ed35e107f2259c28bbc3af00d690942863cdd23b07b4c6e1ae81e240fda1eb6fa2f8798853315d0dab51614cdc56264df90928da67e16fcebed700f80ca89c99679efa4a33347c76ebecb7d87ea1a36226cc73aa792ee93e41d313cca1d6b05883512d71722ea262c3f4654575c73adb0cbe6e9ecfcfd2634393a4f586a6c8f9496a5b1c2d6252a4c606f739198a0a9b6b8b9e0e3eef3f713224f575b626d778bb4b6bbc4ea0000000000000000000000000000000000101f313f01fd21050095f97c0e549dd74ce7faf79cf5cec4a7124e45dc62d2682aeeb9c2a0f1da85fd9a0e81e6f9420dba6029e486425fbf6998458be141893f0ec4a9d615f036360429e0c9e07ae1dd4c4986bfde0c3f6acc40dd4587c6fd159c0b1e030be599019f76cb9ad28c777fc4baa80c90d66028148c161c64a0f752a1b33d4ca4d2508e3af264c978b5fc25f32e598ad6e3022f079d073b16f0039e68a3b53beeff3be5aafd5741f8c29b27c21f717ece50576c536719623f3960e8e37e29e27d8759010dfee16321ddd2a3fb5438882b5a43f76d1901be1ade97575ad5526de649e87b3768459762373957b32c91a6ba36573acb5ebaf29ad720f44e30662da14da6b2f107508becbad4e134e106b0dde1d42c290250072649eb133b019171e2214c15bd72d9e23cdff0f9d6f586bad41b4e2ca06aa5d7be1c428cecd3a02ad2444f3fbd58c1fe536e1c25974e70a02192af445c10e8990188f08bba0b8a08b43f4adc70998b6eacb313fbc184a8a548d1282703f41a7b52cf39bdeabdb7b6d0f65a74eecf36bfb5205ff35049588d743bf5275c1fa9fe7e8af9cdee737b2e38e877660dfdd989aba2904d0e06715afdcfd91c0fb3df53c90ec5b5510b88afd1c52401c18acd8ef7d3f5cf8c6cf31575b4ccb6474941a80f6de610f278dbde413d2fdeff847cffd07f55ba195426535fe52a0594c93d2e40bbc19fd6127a558114ec81b3752d3edfd90d6422ab9bb65e63fbfe728c48de70ac6ee199661f6488230f4e200fcfba1ec37f3681a792cffcea4a4ffd4a4f9e5413cd822274e3c9ac21ddedea0c0da1c819eb948045550012151e1905581328c4b69d6b540e7327f8021de2de81a7eae5886881a455a9c4d820631f4212d1ddd849c703e4682429c1dfc0083d5d431540fdaf44fe8b503f14b440eda7d014212322791f34d22c7b9565cc3ee8fe72d80808299eb5333fa68c5490691d595fdbc1b3cd054e45269b6207944ce59a79847954907b9d1f92809808854554dc117128399544bd277f04ab7280131a97433b1aa5a2ec57cfe202a2df06c425c2cbec925b6ac810a8d43b8248f71d39bf8cbd70d64d3a4dec241ab70b448240c4e0638e111b8fc05b5fb9e7f5f8b35a1a810201fee4deb378dd76fafc0041dd00211a52131bb50c0aa3ca2b8d8a64693098fe8fc89dbbd48cae99d83501c0283a0f95b969bd599ad6af9b4897a17f60d30a1c5a9d141b3d5dcf4d72f0221514caf2a5d018bfbd75cceb91534bf1164327ae5fdb35b49f4a13101cb9dc56105694b5e5bc0fff7c1b9cc57ee05e9ee77d0bf4199b284bfe9fe9514969f91898f6c6f01f30e90b288af2aa12484cb331a270a8042d61ff05a496fcb6540acaefa09bd3b0fca8c4d280cf3c83ca474073122710c0cda07ee03175516292650ad369b6b695c4931e783c2ad7b6faf8e2f57915ec565426879ca8232278678c8b670136f8e1287c7226077ff6623139a8a27b33ad4959343e6ddeb726534267a91756a6387f6fed15f5587b6c7d77cdc795b8767999ef30c7a607851dc948bf53187d0667445555e658547bc79d2f0acff6fc6cb8ecdfda6f07ab69dfd48276193684da22ffb08881b54af3c1464207ec43de86da8a8017a9d718352653efb5c7e61fb3e85ca5a96daf4cd50a2fe99c9630beba21c9bceb578bf80e8f2ae68c3a9654334c9b66ad7d8cd7b2120d8778b0f1a2c0f1e9bf24d3b90a000e620ef1c06a91dec0472c8542e9dfcc111c4284407a6f33028b50d315231a8571ce24bea881031a23638a467b104b8dfb66f936cbf537d3dad051fb874c5ef6dfd7de70e4e34406284ea08bf2be73928a7e03d3fdcbf050000000",
  "txid": "3e5859adfd3d356828a6a7810ae0013050b87286ba70e97acbf6e145c92d8c5e",
  "hash": "e8fe85f05e2a8e5cb75116c1e31e5e4739e3dede7e977c6d860d366ef4932491",
  "size": 5085,
  "vsize": 2278,
  "version": 1,
  "locktime": 80,
  "vin": [
    {
      "txid": "81f40ed8a9184bc4468620b9b215f1b921a897dcc85e11b002629217e3d7fdd4",
      "vout": 1,
      "scriptSig": {
        "asm": "",
        "hex": ""
      },
      "txinwitness": [
        "dd676dace2d3a52f8ddc685990d5744e5222a24a27d72cc4d0e48523aec44975df21695830ca0725d0f0c15d18786c05ca3a0a1d751176e67b15e18b1c26a9dc003c4075aa387a31d1106a4ac2684ae0ac312cc11405922fb8e6e7fbf388d08f127023a198d58142bfb8c619aa6cce3ea6e83984b424bc1efef31e3ac9009873b954af0d7ff56c38d4065e1b41faacd7497f7601bae183dac98ae34a5a50a3769a1413266afe2a9452df0e78e53ce702e1c3ee49100051c0773cab20192ad7eae576622a1ed0849c05a221ed14f8a2eb0c2bc04daf0ea48ac55a23b1e6b0f9023ca3190bd5d58128a0bedb923239bdbf8fd22af2b6988a820d339204837cacffbab7c87ee13bba3f1edf58f06e69dae760d687d95d03e28c847d0e8fe21bc0d1eec3c0f78614552c94b5525f4ba70d725e92d50c9e831c771d6d26216b7312611dca6b6cba37c1c220f66888a0b9a6b81229c5d361cb277b6609f7806fcdc5c66aa1f4805ef7d32338c605aee824006f31d6f4f04f3f3798e8fa38b1692607bb618def65c799f4aee1225b544d82fb4c8fb7dfb25043baf730e1fc46e4bf4918bbb581a87254cf76de553bd0208c41f8c1ec2aed7878bee0603624a0810b8e061186a8c654857e461f617639ff4835bebba89dc697b79d8eaa59fdb559a7e5c328c0dbeec6e9a94539267c9f70b4574bfdb64b4a5a129c60f8d9a7c77868950d17887288c6011b448685817d925b6f91650464a3904f7f1a4b101586af6e73ad695bfbe6cbf7aace1198aa905bd2fd77f779a962830cb44dbb1d365a3b9b89b1879cf8f0254539990f3ce8321270ffd7f30f436fb842904aabc4d2000318dd7d47f414cc825ad6d03d93a6df78547cbb1e66e18d3d821eb2e8f23bbf81d7618d48d622e96c5b1b3d416a1393cc497cbb5c8e155d4c05d45cad55deb28e6c31b59c84a36dd8967df63e003ddf27dcdc7d39df710ad3a8ba1fd1a7dbcd84184a044391771b52f823b44781d8b558fd1e75122a15409adc8b93fbf19db59c265e1244355a5a40d1698d4c100196a437488108d07d1482bd110a126fac723fdc68512c7ec397c73d08e768f40191238fe437efaf1b9352c0c4f6eb4c7948d7be02fc46ad859b56a3305e66d6f1c8a21816b9eba92df2220b136b5e18c2efb3d85a5de91ffa984f6ed67c89bc3accd966b4ec8147b7047a828a68e852de988cdc7ade30d179298d5e6f9af48c987324513da2726aee4e99f4fcfd6de9bdae3158a82bd32a2d280ca38c643802becee2207f0d19e651ec517d3b0ebd94151360df627cb3b0e3b113743a28c2f0a79cb41757d8001b33a478c6b0409befbb32a5d41947ad518001da801c9ca7e191c54afab0bbf7416ad1c642f230e25dc7f74eeaa47b79fb89d64c36b336cabf60bae67faad44bb4e7f302859557a4e73f6a06f44421ee8d58eaf19b3c853f83f4686c63fd377ff85c7d5ce63cb82428d994a6238da03b8d6b3f50b2607cabd30782c117d71f75dccf6bec5cbb61a5d178cb5f6bc7456e96ea0efe4fb1e6912c35b893b34f32fd586d6da6de11dde1d0ca5007de1902c86318dfb00a2884f59aad0141d4d62c5b80248281ef141a86da26bb176e767cc239832f4c209379ff1c7cfec4039cb52145b3c750d245c11357e3cffd0c1ab05caeb87c666cae4ae05fccc2f0730c4141670351453174b07c67d50854ab42e481afd02fe408ff956e0fa6383a306016d13dd01f63513ecef9c17d475a0308af9e57cc038262168336f7194ffb7bbbf91a97428f6d429dd840c38ca0923e8c52c128b4da52d3c72b16e956f3eb08c8c34d116d091ab8245b7bffa37a6d5c8cf6045303153cfa1e65ee61cbe7583cb857476ad88562686a4d4acfe55ce14d2ade6081eda744a8335e382a9a995376a480e2b592a98b794d3bbb7b8ee04459f85b7d94917812797a81f4be8513b68334482e6d0307a6322a4b1c3b49ffbc73673d29b5e2204bcb723d204993fdca02c4d1ec10ae952f6f0805cdcda8543c582e348b9797d7670e6c2687ffd97eea0d9ed357ab36cf7cf4fbd7c305831dc9bc3fe404b657166c67ddeed473af531d97e4ce7e041792be63f8b1feadcfefd071e589bdb2fef71c825368d405dfaa8c23b8f50e9761894bc76cc4c02812e6cf33d7e55bb450ddb6d07aefab099f248e39580073c32045e72ae5b6151c2c2186d454c061320d3884e7bc6a9fb76ee84fb269493cff9e1b478bf5e6ea364ec6ec0c83ffd2f72fc705a7cbfedadc235c5b70488b717ef82c6a7e82bc1ed31c7bf0a654dca1dfdfda98b6831156abf538504f6760abfc8cf5728cd9eb54db0f95c6d53bfe573185f824530e5fbb6a6dc9db3b62f35c0f1f7e1b5372e5fd043f1e56226bf863ac04b135ce993b873115a236eb4db41b1e0ef78effb4d932fcc9b3db40192675507975f56835532213d385e0d57f2564f950e061e6e60788550ae9a5d8b4cb2d75adc3f0987f0e460ea00544e97c515889fc4ce6bb192f2bec61ed0e359a3242aebd5ee00b259ab065bc512dc5a67c0ea79c70a8b57178fb02f99198e1d82fa83fa308583f8f91459079291773f9dbf44fdfb47812a09be322dfbf92b28564336c4a6e5c85226d911421d6543c403bbaab6b871bb18badf19f447aede3f22283b0c69de795b3d4d381a32cb2926b05626be61f6e902b29ccaedd9105b73824fcf251e8baab45ea48f063b175012df6364180282f5a65601d487a48927c5b76a4f8842e21b2d8c74f90c82f92721da91cde1d6615f945d897eab50ce5d9695ecce2ce2c90cba2fb90886eb3b58073294864b73a9e3c000fd40edf9fb431558f723da9d1d3b17ee55d01d656d6d75c2e0dc59ed974abd425ddef8cd5bba355fc94e62537784dad8bf6cdddc9d2d1d7cc4860cc78b597083b9ddbd3b5c199b1e465cc04ca5bd5c4d6c287ce1d5c2c3347720b42fceffeff53dd81428667a40b36fca807921d99303832fcc0982297da4f6ad3e8b3ed3cc532fc1127279f5e22ce78635632caeff320ce42affbd8115af74103e4b4fe3d8f912ffbe8886efd41963edb3db4e24c87ecba06e38b818047b5f6741c534e44097c4f51467a1f593bd7ff0dfb194153d5c6036a849b98357827577e23a1851d4fbf8e6ed35e107f2259c28bbc3af00d690942863cdd23b07b4c6e1ae81e240fda1eb6fa2f8798853315d0dab51614cdc56264df90928da67e16fcebed700f80ca89c99679efa4a33347c76ebecb7d87ea1a36226cc73aa792ee93e41d313cca1d6b05883512d71722ea262c3f4654575c73adb0cbe6e9ecfcfd2634393a4f586a6c8f9496a5b1c2d6252a4c606f739198a0a9b6b8b9e0e3eef3f713224f575b626d778bb4b6bbc4ea0000000000000000000000000000000000101f313f01",
        "0095f97c0e549dd74ce7faf79cf5cec4a7124e45dc62d2682aeeb9c2a0f1da85fd9a0e81e6f9420dba6029e486425fbf6998458be141893f0ec4a9d615f036360429e0c9e07ae1dd4c4986bfde0c3f6acc40dd4587c6fd159c0b1e030be599019f76cb9ad28c777fc4baa80c90d66028148c161c64a0f752a1b33d4ca4d2508e3af264c978b5fc25f32e598ad6e3022f079d073b16f0039e68a3b53beeff3be5aafd5741f8c29b27c21f717ece50576c536719623f3960e8e37e29e27d8759010dfee16321ddd2a3fb5438882b5a43f76d1901be1ade97575ad5526de649e87b3768459762373957b32c91a6ba36573acb5ebaf29ad720f44e30662da14da6b2f107508becbad4e134e106b0dde1d42c290250072649eb133b019171e2214c15bd72d9e23cdff0f9d6f586bad41b4e2ca06aa5d7be1c428cecd3a02ad2444f3fbd58c1fe536e1c25974e70a02192af445c10e8990188f08bba0b8a08b43f4adc70998b6eacb313fbc184a8a548d1282703f41a7b52cf39bdeabdb7b6d0f65a74eecf36bfb5205ff35049588d743bf5275c1fa9fe7e8af9cdee737b2e38e877660dfdd989aba2904d0e06715afdcfd91c0fb3df53c90ec5b5510b88afd1c52401c18acd8ef7d3f5cf8c6cf31575b4ccb6474941a80f6de610f278dbde413d2fdeff847cffd07f55ba195426535fe52a0594c93d2e40bbc19fd6127a558114ec81b3752d3edfd90d6422ab9bb65e63fbfe728c48de70ac6ee199661f6488230f4e200fcfba1ec37f3681a792cffcea4a4ffd4a4f9e5413cd822274e3c9ac21ddedea0c0da1c819eb948045550012151e1905581328c4b69d6b540e7327f8021de2de81a7eae5886881a455a9c4d820631f4212d1ddd849c703e4682429c1dfc0083d5d431540fdaf44fe8b503f14b440eda7d014212322791f34d22c7b9565cc3ee8fe72d80808299eb5333fa68c5490691d595fdbc1b3cd054e45269b6207944ce59a79847954907b9d1f92809808854554dc117128399544bd277f04ab7280131a97433b1aa5a2ec57cfe202a2df06c425c2cbec925b6ac810a8d43b8248f71d39bf8cbd70d64d3a4dec241ab70b448240c4e0638e111b8fc05b5fb9e7f5f8b35a1a810201fee4deb378dd76fafc0041dd00211a52131bb50c0aa3ca2b8d8a64693098fe8fc89dbbd48cae99d83501c0283a0f95b969bd599ad6af9b4897a17f60d30a1c5a9d141b3d5dcf4d72f0221514caf2a5d018bfbd75cceb91534bf1164327ae5fdb35b49f4a13101cb9dc56105694b5e5bc0fff7c1b9cc57ee05e9ee77d0bf4199b284bfe9fe9514969f91898f6c6f01f30e90b288af2aa12484cb331a270a8042d61ff05a496fcb6540acaefa09bd3b0fca8c4d280cf3c83ca474073122710c0cda07ee03175516292650ad369b6b695c4931e783c2ad7b6faf8e2f57915ec565426879ca8232278678c8b670136f8e1287c7226077ff6623139a8a27b33ad4959343e6ddeb726534267a91756a6387f6fed15f5587b6c7d77cdc795b8767999ef30c7a607851dc948bf53187d0667445555e658547bc79d2f0acff6fc6cb8ecdfda6f07ab69dfd48276193684da22ffb08881b54af3c1464207ec43de86da8a8017a9d718352653efb5c7e61fb3e85ca5a96daf4cd50a2fe99c9630beba21c9bceb578bf80e8f2ae68c3a9654334c9b66ad7d8cd7b2120d8778b0f1a2c0f1e9bf24d3b90a000e620ef1c06a91dec0472c8542e9dfcc111c4284407a6f33028b50d315231a8571ce24bea881031a23638a467b104b8dfb66f936cbf537d3dad051fb874c5ef6dfd7de70e4e34406284ea08bf2be73928a7e03d3fdcbf0"
      ],
      "sequence": 4294967294
    }
  ],
  "vout": [
    {
      "value": 499959.324,
      "n": 0,
      "scriptPubKey": {
        "asm": "1 d3a8e6060e0f28cdb084416df589feeac22d7b421094ea0da06a9568cd58cae3",
        "hex": "5120d3a8e6060e0f28cdb084416df589feeac22d7b421094ea0da06a9568cd58cae3",
        "reqSigs": 1,
        "type": "witness_v1_scripthash",
        "addresses": [
          "3QJmnh"
        ]
      }
    },
    {
      "value": 1.0,
      "n": 1,
      "scriptPubKey": {
        "asm": "OP_RETURN c27ff913203ad4027e9dedc94265005348b21ff67a7cc824213fefadc2f43c57 16475683794979e41eaa0acd2b8ef71a0c4bc345034e09fafff8b87e40964508366776a3596959c43e8a2aed0baed73a2c6be365236e29dadfd8985e60b66528560716c3390939a45eea4a8d6bceb75a4c0b8305430e49babfb8f83e00d60548762736e3192919847eca6aad4bee977a6c2ba325632e699a9f98d81e20f6256896c7d603f9c9f9649e2a8a4dab0e779a8ccb43c583ce897a7f7838fec016c588b6e7f623d9e9d944be0aaa6d8b2e57baaceb63e5a3eea95a5f5818dee036e5a8d6879643b989b924de6aca0deb4e37dacc8b0385c38ec93a3f3878be805685c8f6a7b66399a99904fe4aea2dcb6e17faecab23a5e3aee91a1f18589ea076a5e816475683794979e41eaa0acd2b8ef71a0c4bc345034e09fafff8b87e40964508366776a3596959c43e8a2aed0baed73a2c6be365236e29dadfd8985e60b66528560716c3390939a45eea4a8d6bceb75a4c0b8305430e49babfb8f83e00d60548762736e3192919847eca6aad4bee977a6c2ba325632e699a9f98d81e20f6256896c7d603f9c9f9649e2a8a4dab0e779a8ccb43c583ce897a7f7838fec016c588b6e7f623d9e9d944be0aaa6d8b2e57baaceb63e5a3eea95a5f5818dee036e5a8d6879643b989b924de6aca0deb4e37dacc8b0385c38ec93a3f3878be805685c8f6a7b66399a99904fe4aea2dcb6e17faecab23a5e3aee91a1f18589ea076a5e816475683794979e41eaa0acd2b8ef71a0c4bc345034e09fafff8b87e40964508366776a3596959c43e8a2aed0baed73a2c6be365236e29dadfd8985e60b66528560716c3390939a45eea4a8d6bceb75a4c0b8305430e49babfb8f83e00d60548762736e3192919847eca6aad4bee977a6c2ba325632e699a9f98d81e20f6256896c7d603f9c9f9649e2a8a4dab0e779a8ccb43c583ce897a7f7838fec016c588b6e7f623d9e9d944be0aaa6d8b2e57baaceb63e5a3eea95a5f5818dee036e5a8d6879643b989b924de6aca0deb4e37dacc8b0385c38ec93a3f3878be805685c8f6a7b66399a99904fe4aea2dcb6e17faecab23a5e3aee91a1f18589ea076a5e816475683794979e41eaa0acd2b8ef71a0c4bc345034e09fafff8b87e40964508366776a3596959c43e8a2aed0baed73a2c6be365236e29dadfd8985e60b66528560716c3390939a45eea4a8d6bceb75a4c0b8305430e49babfb8f83e00d60548762736e3192919847eca6aad4bee977a6c2ba325632e699a9f98d81e20f6256896c7d603f9c9f9649e2a8a4dab0e779a8ccb43c583ce897a7f7838fec016c588b6e7f623d9e9d944be0aaa6d8b2e57baaceb63e5a3eea95a5f5818dee036e5a8d6879643b989b924de6aca0deb4e37dacc8b0385c38ec93a3f3878be805685c8f6a7b66399a99904fe4aea2dcb6e17faecab23a5e3aee91a1f18589ea076a5e816475683794979e41eaa0acd2b8ef71a0c4bc345034e09fafff8b87e40964508366776a3596959c43e8a2aed0baed73a2c6be365236e29dadfd8985e60b66528560716c3390939a45eea4a8d6bceb75a4c0b8305430e49babfb8f83e00d60548762736e3192919847eca6aad4bee977a6c2ba325632e699a9f98d81e20f6256896c7d603f9c9f9649e2a8a4dab0e779a52a635274dffe11d75e698024647651a62d62325a9f65773b428741818b22887",
        "hex": "6a20c27ff913203ad4027e9dedc94265005348b21ff67a7cc824213fefadc2f43c574db00416475683794979e41eaa0acd2b8ef71a0c4bc345034e09fafff8b87e40964508366776a3596959c43e8a2aed0baed73a2c6be365236e29dadfd8985e60b66528560716c3390939a45eea4a8d6bceb75a4c0b8305430e49babfb8f83e00d60548762736e3192919847eca6aad4bee977a6c2ba325632e699a9f98d81e20f6256896c7d603f9c9f9649e2a8a4dab0e779a8ccb43c583ce897a7f7838fec016c588b6e7f623d9e9d944be0aaa6d8b2e57baaceb63e5a3eea95a5f5818dee036e5a8d6879643b989b924de6aca0deb4e37dacc8b0385c38ec93a3f3878be805685c8f6a7b66399a99904fe4aea2dcb6e17faecab23a5e3aee91a1f18589ea076a5e816475683794979e41eaa0acd2b8ef71a0c4bc345034e09fafff8b87e40964508366776a3596959c43e8a2aed0baed73a2c6be365236e29dadfd8985e60b66528560716c3390939a45eea4a8d6bceb75a4c0b8305430e49babfb8f83e00d60548762736e3192919847eca6aad4bee977a6c2ba325632e699a9f98d81e20f6256896c7d603f9c9f9649e2a8a4dab0e779a8ccb43c583ce897a7f7838fec016c588b6e7f623d9e9d944be0aaa6d8b2e57baaceb63e5a3eea95a5f5818dee036e5a8d6879643b989b924de6aca0deb4e37dacc8b0385c38ec93a3f3878be805685c8f6a7b66399a99904fe4aea2dcb6e17faecab23a5e3aee91a1f18589ea076a5e816475683794979e41eaa0acd2b8ef71a0c4bc345034e09fafff8b87e40964508366776a3596959c43e8a2aed0baed73a2c6be365236e29dadfd8985e60b66528560716c3390939a45eea4a8d6bceb75a4c0b8305430e49babfb8f83e00d60548762736e3192919847eca6aad4bee977a6c2ba325632e699a9f98d81e20f6256896c7d603f9c9f9649e2a8a4dab0e779a8ccb43c583ce897a7f7838fec016c588b6e7f623d9e9d944be0aaa6d8b2e57baaceb63e5a3eea95a5f5818dee036e5a8d6879643b989b924de6aca0deb4e37dacc8b0385c38ec93a3f3878be805685c8f6a7b66399a99904fe4aea2dcb6e17faecab23a5e3aee91a1f18589ea076a5e816475683794979e41eaa0acd2b8ef71a0c4bc345034e09fafff8b87e40964508366776a3596959c43e8a2aed0baed73a2c6be365236e29dadfd8985e60b66528560716c3390939a45eea4a8d6bceb75a4c0b8305430e49babfb8f83e00d60548762736e3192919847eca6aad4bee977a6c2ba325632e699a9f98d81e20f6256896c7d603f9c9f9649e2a8a4dab0e779a8ccb43c583ce897a7f7838fec016c588b6e7f623d9e9d944be0aaa6d8b2e57baaceb63e5a3eea95a5f5818dee036e5a8d6879643b989b924de6aca0deb4e37dacc8b0385c38ec93a3f3878be805685c8f6a7b66399a99904fe4aea2dcb6e17faecab23a5e3aee91a1f18589ea076a5e816475683794979e41eaa0acd2b8ef71a0c4bc345034e09fafff8b87e40964508366776a3596959c43e8a2aed0baed73a2c6be365236e29dadfd8985e60b66528560716c3390939a45eea4a8d6bceb75a4c0b8305430e49babfb8f83e00d60548762736e3192919847eca6aad4bee977a6c2ba325632e699a9f98d81e20f6256896c7d603f9c9f9649e2a8a4dab0e779a52a635274dffe11d75e698024647651a62d62325a9f65773b428741818b22887",
        "type": "nulldata"
      }
    }
  ],
  "blockhash": "394f302ff1829b8db869c98f7b64fb5f27cc2b50e933cff1e5bbeae34fa68a80",
  "confirmations": 1,
  "time": 1764183654,
  "blocktime": 1764183654
}