{
  "hex": "0100000000010196296a580c4aeb3f7d7dbd5f791cc00295e5c0aef63669eb66232771c07f0a130100000000feffffff0200e1f50500000000fdd5046a203f891c7d1ed74e466a63ef762e064f6ca4e42199af81e36634fcfd08681f13fd4db004b9ab4927cdff25366c5160b719d08b51d26825a78d2ba1b500822b61c1528f3c998b6907eddf05164c71409739f0ab71f2480587ad0b819520a20b41e172af1cf9eb09678dbf65762c1120f75990cb11922865e7cd6be1f540c26b218112cf7cd9cb2947ad9f45560c3100d779b0eb31b20845c7ed4bc1d560e24b01a132ef5c392bc9a74d7fa5b6ecd1e03799500bd152e8a5270dab21358002abe141d20fbc190be9876d5f8596ccf1c017b9702bf172c885072d8b0115a0228bc161f22f9c796b89e70d3fe5f6ac91a077d9104b9112a8e5674deb6175c042eba101924ffc594ba9c72d1fc5d68cb18057f9306bb13288c5476dcb4155e062cb8121b26fdcb9ab4927cdff25366c5160b719d08b51d26825a78d2ba1b500822b61c1528f3c998b6907eddf05164c71409739f0ab71f2480587ad0b819520a20b41e172af1cf9eb09678dbf65762c1120f75990cb11922865e7cd6be1f540c26b218112cf7cd9cb2947ad9f45560c3100d779b0eb31b20845c7ed4bc1d560e24b01a132ef5c392bc9a74d7fa5b6ecd1e03799500bd152e8a5270dab21358002abe141d20fbc190be9876d5f8596ccf1c017b9702bf172c885072d8b0115a0228bc161f22f9c796b89e70d3fe5f6ac91a077d9104b9112a8e5674deb6175c042eba101924ffc594ba9c72d1fc5d68cb18057f9306bb13288c5476dcb4155e062cb8121b26fdcb9ab4927cdff25366c5160b719d08b51d26825a78d2ba1b500822b61c1528f3c998b6907eddf05164c71409739f0ab71f2480587ad0b819520a20b41e172af1cf9eb09678dbf65762c1120f75990cb11922865e7cd6be1f540c26b218112cf7cd9cb2947ad9f45560c3100d779b0eb31b20845c7ed4bc1d560e24b01a132ef5c392bc9a74d7fa5b6ecd1e03799500bd152e8a5270dab21358002abe141d20fbc190be9876d5f8596ccf1c017b9702bf172c885072d8b0115a0228bc161f22f9c796b89e70d3fe5f6ac91a077d9104b9112a8e5674deb6175c042eba101924ffc594ba9c72d1fc5d68cb18057f9306bb13288c5476dcb4155e062cb8121b26fdcb9ab4927cdff25366c5160b719d08b51d26825a78d2ba1b500822b61c1528f3c998b6907eddf05164c71409739f0ab71f2480587ad0b819520a20b41e172af1cf9eb09678dbf65762c1120f75990cb11922865e7cd6be1f540c26b218112cf7cd9cb2947ad9f45560c3100d779b0eb31b20845c7ed4bc1d560e24b01a132ef5c392bc9a74d7fa5b6ecd1e03799500bd152e8a5270dab21358002abe141d20fbc190be9876d5f8596ccf1c017b9702bf172c885072d8b0115a0228bc161f22f9c796b89e70d3fe5f6ac91a077d9104b9112a8e5674deb6175c042eba101924ffc594ba9c72d1fc5d68cb18057f9306bb13288c5476dcb4155e062cb8121b26fdcb9ab4927cdff25366c5160b719d08b51d26825a78d2ba1b500822b61c1528f3c998b6907eddf05164c71409739f0ab71f2480587ad0b819520a20b41e172af1cf9eb09678dbf65762c1120f75990cb11922865e7cd6be1f540c26b218112cf7cd9cb2947ad9f45560c3100d779b0eb31b20845c7ed4bc1d560e24b01a132ef5c392bc9a74d7fa5b6ecd1e03799500bd14b0a64d8074c881f1022d5e9d4cc2582751393672d76a584ffa6bdbfd3ffdc0c1076cf5d792d0000225120b032d11cf72ad274501359306f2b38d9ce69778eaa914dee710aaeafed265eef02fd75090da0c05f9fbda2e6d252fdedfa3915b6125538d129b349282e9cf79be9acfc4e45c07f180ad3abae0bb373be64f70cc5362bf3e3cdb477a7e9558c8adf75cc86128ab97d13891bea38031b27bec5fcaf558a3fa07497235fc07ca8272f2e2a9545341320be233a70c190d2646aed51be674c9c31a050735665ba9cb088437802ce208b98aea81c646ca703961613b6b9466ecb460222b6c78ac7e9f3b83033f57023a6ad3c8a924b9ac818156fe2c8313ec227eff6cf539709704f3ce1814917aa3650da189e18daa49a69d3d298aa6a586d9758fc10ae846b03f709c0217d6372163ea7d91ce57778981535c3a3168d069362cd32bf6a71c19ab1728e4e6687c2e77743afef0d75d2b6e8b6f099d49d070fcfb91280c4fdb5d4d82818cf68085cb27173ddf8c89635875a63a5b688376a8f720e8e3a8ac87cc0a9328055e3cedd5686aedd4e70650e7abc44d680051612e99b3fb953d0a822d755f3dfd8ac62dc12ffb08801cca91200691f42ed48a21dc4e3de1beec32e1a02f224c45f526137a3fb8dd892d21cee73eca78031781ecb0ba01cbcda8a47db3628878cbc674f0539ec9f96c5bdb3d47d2415ede229cc6c6daa23df952e82f7a1aa30fb1f85481ffeb11df47c432aff0d1b126c1a1439d0900ec824504caaaf90124fea1fcd16e7e43b2ea308c37407115d71e78530bd0d9b2a96cd5baa5e993c7db49f21ea2bd76a5e529ebb19dd6195eef5c71eb991867c22238c94592a84ceaa51983e4891d6368290e46f9929c3d60c898e1656f2f1583ba45a428de6253b79459f5e8e9582d6c4c3289b6a6bcc1770156a540ca7f6f3e159fbf825f6c875acc910d96bf14889a329b1cb604e4e576b71d18198c19a6608125339dcfd0107a79592991fbfaa07612a6e6fe5559b7ee1ca01537f34702a1008aca914fe05c085d93eb90dd1215079ccb290b6154c411820ebdba165b9be1c0bc5bc6de92d46e1db9e1c121e78588015065e5552cd9c416cb77b8951c62c34166e2d8e151d8e303f504f40e4caf937874e88c9b0b9b9cff4ba31c1257b554f63456c1483fd41f416be65cf3327c663fd97f1a8280a9b43da41bf91c34f9c02409cf4eaac5aa04f81ff01c2c5d2eb305f2bd8057806f2ff8f6fe6ea79213314360b5903a3c0852642229814705da482125a415245c250551b85d7a8cc04b12984acd0f69afbb1fb62712887884583238abf9db6ef054271961e94405cdc0fc2629723cd4d71e8ba578c8b3834dce073c751811d49782e1c9d6ebae17ae6d67d067402d24e688a938d1824ed6b7cd21901d4e20d03df60a81194077c450af7d99319f04d01f1698c82cb6e62aa9306cf475d21108ac09414a183f82788985f828f989b616fd5b2bf12373796a321e448c35375fdaea1d2b3d2af874c19fb281f72549bd32677a60a09f21df9516b94f972d6eb5c918a49cf81440571e81f055afab85813b65b0466d729ae88745c9292fbe99d4e0589defe31f5fb96b43149d2a98eea1d33bb8a7b0e32a2cf73821570126a4742c51fccde20ecef6c22cb3decd4197833821a758180c299097e44c509b02663673720960874aa6c4c699709f4bee655fa5b6909c7cb2b6776a7fef268c70d2125776296cf29665e16c2e95d05daa44fa965f697e7c24421b3ead62f4a091636c2b121fd5c9766c719477a0fc85d764a691f3f448dcd9aa76e593a9eb21433c8c19f5360bee3f4e6ac6be84a7dfdf76ced8862beedb22ade6c54763a96708458fcbf120f25010749afab339af97b49d91b1d887bef531284c485bf83fb6c7efc442f61581f3f7ac30e275115aef5b080f2279dd1ad0c4b34dda2296e5046a61ea3f598bb05d24c1799ac25f47b3fe8a99798313f417b161c75693dca74e2c6f5dedcfcc514c35eb2b86b8ff8a76c162156b58ea92b95d9692d7db13799af2b8b7e1e60bd8aefac29b0b9fc657ea8e1aea3ac45ac24d8781713df578c3b6759146b1b63874b9c951579529350ed06c20d28777e6225b6d5902eea42dd5b0020e7098365f82a7e8ae6c7b72b75d0dbc9949e7a30bfaf669d3c8ec37ad5f4d16ad2e2042f2f2bc06ca2e0fe8ff2c32b57b94ff79372a4cf20912a9195564c90988acd02e41c9904bdf0e91ab4b66d04f0a6c2d4b2e2b0e5d8d94a11c79b442d83d3b8e300f0f75335974cbca0f4bd3879db168c799e9742c070ad7f6e40fabe7c22801e99eb3afd732929688de7ab5f2d3c41dc81e0bc7e14f6c022864533983cc837e1260c6d5b6fa3cd52ca666d31475a049324ac6500d3c74bced9a8f1c120a648438fd04a2fc8af73a456539c07264ef1b69b6c963f768131196682d3e19af56fca5c551184260528a860bd1f629237d9206691038e17424024ba47c31d68a35b719583d686a38b9bf76ddc914ab6ef8a601b8f207f26ce2fa9385d380ae81994c7635c880d95e5f35b7883654e8bc1f904208b175100530b7a2ebfc74c14a136f4e87bd862b435acc777aeda9f56520059c289987a4835a094e82bdf8ae4541ef45bbe47ebb19a06d45fbce56cb9bb71bec38db37a273fe561252f97177e7d1da77c82dcc9de021653d65454e1e2b3d53990543901b4232382643879adfb6fcb7147390308bb5d2eac2c226244497de74f601b0b0489616080326fa761828bdc111962e599474bc6e7d68c25274dd0ba4b1170d04b1828480be1659247208673727ac57ea5548e89028d604252665527ea900f704a5123aa0817b3fc67b931036e46a050d7f0f4542be5f8c754277c0298a0240e454e43a5bb368969a8ad21bced0888e2fa9be1ed52a64a8e9deea5ee0508d9634a11c1c3827c7b4badacbcb20cdab3b48283bcd065c9a3f1e893aaccee14ae54020cad64125b47736d42b0424f4c2b10d809c51aae79a9d8ee576e91f0bfc994ab436670cad056be8f50f428e939e3f7d936d9b337fcf8c1219b2685549b471f3c62e407e5191922c8f4cbb6b9a5c0632c4f705ea9697122277073dc8c44ddbca80a8691a8158121e0ae24e6a228b85e7bf2bfc75ba9519193bb0052deb92ec5bfa4d90a9619153c10ac34d2e767b264b22449b3dd080708b13b2a70c0d0b1cb7853ed363e9d99d7deee410cd636219e98d06b181fd7ad824e91af9508d2289d94f0afd234c52f00f62080e2be9f8d0bb6e003513a03ef6459f7cb03be9a3e14aeefcd20707250b5a6db3987a8c4b974faa6974ce4154f63c1a862b89a3e88cb53edb6c6636b58b117d2b9ed891a31e55a56bc35f1c2ed6bf4e7ac2c488c02b3b5fab48fda060a536578798a929394c4d2dff30c11152d444d5a636881cedb001325434a6d787e9ea0c03e454f50606268858bb4b5bebfd3e2f10000000000000000000000000000000000000000000000000000000e1a253501fd210500dfce7e990e9a823104d44c53848d58212f49cd9ad83ec4b13a2502755518f8e16506a84e07410222a7dad3d888c5cc15c61921036eb3a25f5e5bbf87824d46c799da6664dcd1438c1b8950a0a018250f8316895e944f6672155272cab6832fefc4dc3cf5587393063b4198da1418f0a464c90d6f97b45950529c9586b5251712bd04b9ab9b9fdb4e6d9c8bd535e52906d77ee062b16f18406e5b9e2ef5cec109b839735155c137a3b34bae1457f1ea37e25f10ba99f3bbc4574b86cb0e1d16cc8f66e4b53fd3046443f79d246c7db584e121e93bcacc0fcffc6ddd917575cac108f0c22423069a92bf0290fec289b2dda899a2c5d7181d4d18133b36cd3eca4b29f5be07140ecb86b61565d479fb1e9b41b4927e306453b5c2f7d72e5d21c79e1e3c46eecb60a6db3f5ae631cb33fab30b5e6c5775db631e5875e09d663f3c8ddffc2ee597b9aa0bdbb3abba18cd74d52ba491074e44a97f0b933d50f484f36dc7c1b4093dead1c07a1f0980d90c9e553452eff00c84f7b44485855b856e884fdab6e82865210ed4f05c21ef06d40cd4d32ae1b62a60a5007af3c9997aaf6779e66c504d92b76004e9816f39d39bf6b85a0c27afdf610f0e76ebfe9a236cab5e5e9341006af322356139c7f8ea706df8a9990e64f90d8b1836065685989b3d6ed3554e8b991692a77a605842986a7a59d35127a7942b4b44e7247007e4904fa55c130133e85d44c0aa1a1e12c18ed87cc410a76f6535043b77391864928cc3e68d9833bb84098467def1e52d31dc15a140cde4bda7232d442c1980cecb5fcc9cc2798038589a27c2d774769e71039881be0ad10eb86f36c5c2ddd36597e06fae62ea6143e78f66a8292ae242175afab4b766456eb0fa2af3971ce8909ccce58aa7d51618e372236e3a224f52b471229557af8a754fca278fb8a510bcd26e6c5d94a93362afeaa99c1ff12a4e93384108651556a47c051f3556861e333f74182d6518dc58c102a7b7598a2ceaf8bd3cad02e1ab332ff6f22d7d23cc6ba6517a41545150589dbc8175a78d3cc8b09f69944e3e01761e9eb0343c4d6d76506de3007e78db54f13449fa24d508d6be2bad665a41f4fcdcade64c091175baef9e452cbe1488237edca530d01eb10017551406682ce18acd48e7992b26dc280177f7637227376722e81fb668213a0c4003e700038adb48990bad8d2f35079a75f06dc3228a672f090f8614620287d8d9d3e037dbd44b3490490a73af8976a77bca9f6d2d8ef3a0704492dd42599edb64daa73ab28a65beca31757a95775b5b675747abacd67f4eb4575fab3a5fad4dfadfd527ff7c499ed7cee5e8030bdbc31703f6bf8c1be05d7c4bc3cbe5840f6a1aa5970578007b3703d651ff0c2fb938d0e33819d2c07cb72ddbee21f7ce88ce8de726637b799f08c8258c11119dbadd424c57c0de555c6f7f91038aae95e6c9627691e7ed3c093d48d889c360e048182b5f6ba9d16ca807d4c92be812cfeccb3ee0df7054f860d20b2f57f84b1eb5da94745ed2acba75bee4d8a186de4e6adb062107ca0b55f3ac6d09e042110f4a5ef738a9cea269e71be98330cade4d442b02c16310f0ea07d6a5a7810ea0ebd6ffe488437b962076e7e8f9ff56b5de4e05d37b00a5d892cb15513f579de763e5d18cb13ef6a033e81db2fbaa7ebe17b3001202b4ad7642990138ee22f1de51b4038ac5ea0d85c638b4a24ea02f2495dfcc7bf288fc2504ff102c9bc5cf32c4d1bcbf46492233b6be426a81e7f485326011d1dbb6567bdca8bf8cf022d888db04a89fba4db1c458ed79ad1ed434903eef68667645d2b43f2336cbc9c02343ca684523e154fc69000000",
  "txid": "36d423fe4a72d1cb424d6a25258ca7bf1471b49262c8a9999c38b049775c9cd0",
  "hash": "dc0c2e7df146c1af43832baffc264d80792f744c1e9db5873b79e003fd7ec069",
  "size": 5085,
  "vsize": 2278,
  "version": 1,
  "locktime": 105,
  "vin": [
    {
      "txid": "130a7fc071272366eb6936f6aec0e59502c01c795fbd7d7d3feb4a0c586a2996",
      "vout": 1,
      "scriptSig": {
        "asm": "",
        "hex": ""
      },
      "txinwitness": [
        "0da0c05f9fbda2e6d252fdedfa3915b6125538d129b349282e9cf79be9acfc4e45c07f180ad3abae0bb373be64f70cc5362bf3e3cdb477a7e9558c8adf75cc86128ab97d13891bea38031b27bec5fcaf558a3fa07497235fc07ca8272f2e2a9545341320be233a70c190d2646aed51be674c9c31a050735665ba9cb088437802ce208b98aea81c646ca703961613b6b9466ecb460222b6c78ac7e9f3b83033f57023a6ad3c8a924b9ac818156fe2c8313ec227eff6cf539709704f3ce1814917aa3650da189e18daa49a69d3d298aa6a586d9758fc10ae846b03f709c0217d6372163ea7d91ce57778981535c3a3168d069362cd32bf6a71c19ab1728e4e6687c2e77743afef0d75d2b6e8b6f099d49d070fcfb91280c4fdb5d4d82818cf68085cb27173ddf8c89635875a63a5b688376a8f720e8e3a8ac87cc0a9328055e3cedd5686aedd4e70650e7abc44d680051612e99b3fb953d0a822d755f3dfd8ac62dc12ffb08801cca91200691f42ed48a21dc4e3de1beec32e1a02f224c45f526137a3fb8dd892d21cee73eca78031781ecb0ba01cbcda8a47db3628878cbc674f0539ec9f96c5bdb3d47d2415ede229cc6c6daa23df952e82f7a1aa30fb1f85481ffeb11df47c432aff0d1b126c1a1439d0900ec824504caaaf90124fea1fcd16e7e43b2ea308c37407115d71e78530bd0d9b2a96cd5baa5e993c7db49f21ea2bd76a5e529ebb19dd6195eef5c71eb991867c22238c94592a84ceaa51983e4891d6368290e46f9929c3d60c898e1656f2f1583ba45a428de6253b79459f5e8e9582d6c4c3289b6a6bcc1770156a540ca7f6f3e159fbf825f6c875acc910d96bf14889a329b1cb604e4e576b71d18198c19a6608125339dcfd0107a79592991fbfaa07612a6e6fe5559b7ee1ca01537f34702a1008aca914fe05c085d93eb90dd1215079ccb290b6154c411820ebdba165b9be1c0bc5bc6de92d46e1db9e1c121e78588015065e5552cd9c416cb77b8951c62c34166e2d8e151d8e303f504f40e4caf937874e88c9b0b9b9cff4ba31c1257b554f63456c1483fd41f416be65cf3327c663fd97f1a8280a9b43da41bf91c34f9c02409cf4eaac5aa04f81ff01c2c5d2eb305f2bd8057806f2ff8f6fe6ea79213314360b5903a3c0852642229814705da482125a415245c250551b85d7a8cc04b12984acd0f69afbb1fb62712887884583238abf9db6ef054271961e94405cdc0fc2629723cd4d71e8ba578c8b3834dce073c751811d49782e1c9d6ebae17ae6d67d067402d24e688a938d1824ed6b7cd21901d4e20d03df60a81194077c450af7d99319f04d01f1698c82cb6e62aa9306cf475d21108ac09414a183f82788985f828f989b616fd5b2bf12373796a321e448c35375fdaea1d2b3d2af874c19fb281f72549bd32677a60a09f21df9516b94f972d6eb5c918a49cf81440571e81f055afab85813b65b0466d729ae88745c9292fbe99d4e0589defe31f5fb96b43149d2a98eea1d33bb8a7b0e32a2cf73821570126a4742c51fccde20ecef6c22cb3decd4197833821a758180c299097e44c509b02663673720960874aa6c4c699709f4bee655fa5b6909c7cb2b6776a7fef268c70d2125776296cf29665e16c2e95d05daa44fa965f697e7c24421b3ead62f4a091636c2b121fd5c9766c719477a0fc85d764a691f3f448dcd9aa76e593a9eb21433c8c19f5360bee3f4e6ac6be84a7dfdf76ced8862beedb22ade6c54763a96708458fcbf120f25010749afab339af97b49d91b1d887bef531284c485bf83fb6c7efc442f61581f3f7ac30e275115aef5b080f2279dd1ad0c4b34dda2296e5046a61ea3f598bb05d24c1799ac25f47b3fe8a99798313f417b161c75693dca74e2c6f5dedcfcc514c35eb2b86b8ff8a76c162156b58ea92b95d9692d7db13799af2b8b7e1e60bd8aefac29b0b9fc657ea8e1aea3ac45ac24d8781713df578c3b6759146b1b63874b9c951579529350ed06c20d28777e6225b6d5902eea42dd5b0020e7098365f82a7e8ae6c7b72b75d0dbc9949e7a30bfaf669d3c8ec37ad5f4d16ad2e2042f2f2bc06ca2e0fe8ff2c32b57b94ff79372a4cf20912a9195564c90988acd02e41c9904bdf0e91ab4b66d04f0a6c2d4b2e2b0e5d8d94a11c79b442d83d3b8e300f0f75335974cbca0f4bd3879db168c799e9742c070ad7f6e40fabe7c22801e99eb3afd732929688de7ab5f2d3c41dc81e0bc7e14f6c022864533983cc837e1260c6d5b6fa3cd52ca666d31475a049324ac6500d3c74bced9a8f1c120a648438fd04a2fc8af73a456539c07264ef1b69b6c963f768131196682d3e19af56fca5c551184260528a860bd1f629237d9206691038e17424024ba47c31d68a35b719583d686a38b9bf76ddc914ab6ef8a601b8f207f26ce2fa9385d380ae81994c7635c880d95e5f35b7883654e8bc1f904208b175100530b7a2ebfc74c14a136f4e87bd862b435acc777aeda9f56520059c289987a4835a094e82bdf8ae4541ef45bbe47ebb19a06d45fbce56cb9bb71bec38db37a273fe561252f97177e7d1da77c82dcc9de021653d65454e1e2b3d53990543901b4232382643879adfb6fcb7147390308bb5d2eac2c226244497de74f601b0b0489616080326fa761828bdc111962e599474bc6e7d68c25274dd0ba4b1170d04b1828480be1659247208673727ac57ea5548e89028d604252665527ea900f704a5123aa0817b3fc67b931036e46a050d7f0f4542be5f8c754277c0298a0240e454e43a5bb368969a8ad21bced0888e2fa9be1ed52a64a8e9deea5ee0508d9634a11c1c3827c7b4badacbcb20cdab3b48283bcd065c9a3f1e893aaccee14ae54020cad64125b47736d42b0424f4c2b10d809c51aae79a9d8ee576e91f0bfc994ab436670cad056be8f50f428e939e3f7d936d9b337fcf8c1219b2685549b471f3c62e407e5191922c8f4cbb6b9a5c0632c4f705ea9697122277073dc8c44ddbca80a8691a8158121e0ae24e6a228b85e7bf2bfc75ba9519193bb0052deb92ec5bfa4d90a9619153c10ac34d2e767b264b22449b3dd080708b13b2a70c0d0b1cb7853ed363e9d99d7deee410cd636219e98d06b181fd7ad824e91af9508d2289d94f0afd234c52f00f62080e2be9f8d0bb6e003513a03ef6459f7cb03be9a3e14aeefcd20707250b5a6db3987a8c4b974faa6974ce4154f63c1a862b89a3e88cb53edb6c6636b58b117d2b9ed891a31e55a56bc35f1c2ed6bf4e7ac2c488c02b3b5fab48fda060a536578798a929394c4d2dff30c11152d444d5a636881cedb001325434a6d787e9ea0c03e454f50606268858bb4b5bebfd3e2f10000000000000000000000000000000000000000000000000000000e1a253501",
        "00dfce7e990e9a823104d44c53848d58212f49cd9ad83ec4b13a2502755518f8e16506a84e07410222a7dad3d888c5cc15c61921036eb3a25f5e5bbf87824d46c799da6664dcd1438c1b8950a0a018250f8316895e944f6672155272cab6832fefc4dc3cf5587393063b4198da1418f0a464c90d6f97b45950529c9586b5251712bd04b9ab9b9fdb4e6d9c8bd535e52906d77ee062b16f18406e5b9e2ef5cec109b839735155c137a3b34bae1457f1ea37e25f10ba99f3bbc4574b86cb0e1d16cc8f66e4b53fd3046443f79d246c7db584e121e93bcacc0fcffc6ddd917575cac108f0c22423069a92bf0290fec289b2dda899a2c5d7181d4d18133b36cd3eca4b29f5be07140ecb86b61565d479fb1e9b41b4927e306453b5c2f7d72e5d21c79e1e3c46eecb60a6db3f5ae631cb33fab30b5e6c5775db631e5875e09d663f3c8ddffc2ee597b9aa0bdbb3abba18cd74d52ba491074e44a97f0b933d50f484f36dc7c1b4093dead1c07a1f0980d90c9e553452eff00c84f7b44485855b856e884fdab6e82865210ed4f05c21ef06d40cd4d32ae1b62a60a5007af3c9997aaf6779e66c504d92b76004e9816f39d39bf6b85a0c27afdf610f0e76ebfe9a236cab5e5e9341006af322356139c7f8ea706df8a9990e64f90d8b1836065685989b3d6ed3554e8b991692a77a605842986a7a59d35127a7942b4b44e7247007e4904fa55c130133e85d44c0aa1a1e12c18ed87cc410a76f6535043b77391864928cc3e68d9833bb84098467def1e52d31dc15a140cde4bda7232d442c1980cecb5fcc9cc2798038589a27c2d774769e71039881be0ad10eb86f36c5c2ddd36597e06fae62ea6143e78f66a8292ae242175afab4b766456eb0fa2af3971ce8909ccce58aa7d51618e372236e3a224f52b471229557af8a754fca278fb8a510bcd26e6c5d94a93362afeaa99c1ff12a4e93384108651556a47c051f3556861e333f74182d6518dc58c102a7b7598a2ceaf8bd3cad02e1ab332ff6f22d7d23cc6ba6517a41545150589dbc8175a78d3cc8b09f69944e3e01761e9eb0343c4d6d76506de3007e78db54f13449fa24d508d6be2bad665a41f4fcdcade64c091175baef9e452cbe1488237edca530d01eb10017551406682ce18acd48e7992b26dc280177f7637227376722e81fb668213a0c4003e700038adb48990bad8d2f35079a75f06dc3228a672f090f8614620287d8d9d3e037dbd44b3490490a73af8976a77bca9f6d2d8ef3a0704492dd42599edb64daa73ab28a65beca31757a95775b5b675747abacd67f4eb4575fab3a5fad4dfadfd527ff7c499ed7cee5e8030bdbc31703f6bf8c1be05d7c4bc3cbe5840f6a1aa5970578007b3703d651ff0c2fb938d0e33819d2c07cb72ddbee21f7ce88ce8de726637b799f08c8258c11119dbadd424c57c0de555c6f7f91038aae95e6c9627691e7ed3c093d48d889c360e048182b5f6ba9d16ca807d4c92be812cfeccb3ee0df7054f860d20b2f57f84b1eb5da94745ed2acba75bee4d8a186de4e6adb062107ca0b55f3ac6d09e042110f4a5ef738a9cea269e71be98330cade4d442b02c16310f0ea07d6a5a7810ea0ebd6ffe488437b962076e7e8f9ff56b5de4e05d37b00a5d892cb15513f579de763e5d18cb13ef6a033e81db2fbaa7ebe17b3001202b4ad7642990138ee22f1de51b4038ac5ea0d85c638b4a24ea02f2495dfcc7bf288fc2504ff102c9bc5cf32c4d1bcbf46492233b6be426a81e7f485326011d1dbb6567bdca8bf8cf022d888db04a89fba4db1c458ed79ad1ed434903eef68667645d2b43f2336cbc9c02343ca684523e154fc"
      ],
      "sequence": 4294967294
    }
  ],
  "vout": [
    {
      "value": 1.0,
      "n": 0,
      "scriptPubKey": {
        "asm": "OP_RETURN 3f891c7d1ed74e466a63ef762e064f6ca4e42199af81e36634fcfd08681f13fd b9ab4927cdff25366c5160b719d08b51d26825a78d2ba1b500822b61c1528f3c998b6907eddf05164c71409739f0ab71f2480587ad0b819520a20b41e172af1cf9eb09678dbf65762c1120f75990cb11922865e7cd6be1f540c26b218112cf7cd9cb2947ad9f45560c3100d779b0eb31b20845c7ed4bc1d560e24b01a132ef5c392bc9a74d7fa5b6ecd1e03799500bd152e8a5270dab21358002abe141d20fbc190be9876d5f8596ccf1c017b9702bf172c885072d8b0115a0228bc161f22f9c796b89e70d3fe5f6ac91a077d9104b9112a8e5674deb6175c042eba101924ffc594ba9c72d1fc5d68cb18057f9306bb13288c5476dcb4155e062cb8121b26fdcb9ab4927cdff25366c5160b719d08b51d26825a78d2ba1b500822b61c1528f3c998b6907eddf05164c71409739f0ab71f2480587ad0b819520a20b41e172af1cf9eb09678dbf65762c1120f75990cb11922865e7cd6be1f540c26b218112cf7cd9cb2947ad9f45560c3100d779b0eb31b20845c7ed4bc1d560e24b01a132ef5c392bc9a74d7fa5b6ecd1e03799500bd152e8a5270dab21358002abe141d20fbc190be9876d5f8596ccf1c017b9702bf172c885072d8b0115a0228bc161f22f9c796b89e70d3fe5f6ac91a077d9104b9112a8e5674deb6175c042eba101924ffc594ba9c72d1fc5d68cb18057f9306bb13288c5476dcb4155e062cb8121b26fdcb9ab4927cdff25366c5160b719d08b51d26825a78d2ba1b500822b61c1528f3c998b6907eddf05164c71409739f0ab71f2480587ad0b819520a20b41e172af1cf9eb09678dbf65762c1120f75990cb11922865e7cd6be1f540c26b218112cf7cd9cb2947ad9f45560c3100d779b0eb31b20845c7ed4bc1d560e24b01a132ef5c392bc9a74d7fa5b6ecd1e03799500bd152e8a5270dab21358002abe141d20fbc190be9876d5f8596ccf1c017b9702bf172c885072d8b0115a0228bc161f22f9c796b89e70d3fe5f6ac91a077d9104b9112a8e5674deb6175c042eba101924ffc594ba9c72d1fc5d68cb18057f9306bb13288c5476dcb4155e062cb8121b26fdcb9ab4927cdff25366c5160b719d08b51d26825a78d2ba1b500822b61c1528f3c998b6907eddf05164c71409739f0ab71f2480587ad0b819520a20b41e172af1cf9eb09678dbf65762c1120f75990cb11922865e7cd6be1f540c26b218112cf7cd9cb2947ad9f45560c3100d779b0eb31b20845c7ed4bc1d560e24b01a132ef5c392bc9a74d7fa5b6ecd1e03799500bd152e8a5270dab21358002abe141d20fbc190be9876d5f8596ccf1c017b9702bf172c885072d8b0115a0228bc161f22f9c796b89e70d3fe5f6ac91a077d9104b9112a8e5674deb6175c042eba101924ffc594ba9c72d1fc5d68cb18057f9306bb13288c5476dcb4155e062cb8121b26fdcb9ab4927cdff25366c5160b719d08b51d26825a78d2ba1b500822b61c1528f3c998b6907eddf05164c71409739f0ab71f2480587ad0b819520a20b41e172af1cf9eb09678dbf65762c1120f75990cb11922865e7cd6be1f540c26b218112cf7cd9cb2947ad9f45560c3100d779b0eb31b20845c7ed4bc1d560e24b01a132ef5c392bc9a74d7fa5b6ecd1e03799500bd14b0a64d8074c881f1022d5e9d4cc2582751393672d76a584ffa6bdbfd3ffdc0c",
        "hex": "6a203f891c7d1ed74e466a63ef762e064f6ca4e42199af81e36634fcfd08681f13fd4db004b9ab4927cdff25366c5160b719d08b51d26825a78d2ba1b500822b61c1528f3c998b6907eddf05164c71409739f0ab71f2480587ad0b819520a20b41e172af1cf9eb09678dbf65762c1120f75990cb11922865e7cd6be1f540c26b218112cf7cd9cb2947ad9f45560c3100d779b0eb31b20845c7ed4bc1d560e24b01a132ef5c392bc9a74d7fa5b6ecd1e03799500bd152e8a5270dab21358002abe141d20fbc190be9876d5f8596ccf1c017b9702bf172c885072d8b0115a0228bc161f22f9c796b89e70d3fe5f6ac91a077d9104b9112a8e5674deb6175c042eba101924ffc594ba9c72d1fc5d68cb18057f9306bb13288c5476dcb4155e062cb8121b26fdcb9ab4927cdff25366c5160b719d08b51d26825a78d2ba1b500822b61c1528f3c998b6907eddf05164c71409739f0ab71f2480587ad0b819520a20b41e172af1cf9eb09678dbf65762c1120f75990cb11922865e7cd6be1f540c26b218112cf7cd9cb2947ad9f45560c3100d779b0eb31b20845c7ed4bc1d560e24b01a132ef5c392bc9a74d7fa5b6ecd1e03799500bd152e8a5270dab21358002abe141d20fbc190be9876d5f8596ccf1c017b9702bf172c885072d8b0115a0228bc161f22f9c796b89e70d3fe5f6ac91a077d9104b9112a8e5674deb6175c042eba101924ffc594ba9c72d1fc5d68cb18057f9306bb13288c5476dcb4155e062cb8121b26fdcb9ab4927cdff25366c5160b719d08b51d26825a78d2ba1b500822b61c1528f3c998b6907eddf05164c71409739f0ab71f2480587ad0b819520a20b41e172af1cf9eb09678dbf65762c1120f75990cb11922865e7cd6be1f540c26b218112cf7cd9cb2947ad9f45560c3100d779b0eb31b20845c7ed4bc1d560e24b01a132ef5c392bc9a74d7fa5b6ecd1e03799500bd152e8a5270dab21358002abe141d20fbc190be9876d5f8596ccf1c017b9702bf172c885072d8b0115a0228bc161f22f9c796b89e70d3fe5f6ac91a077d9104b9112a8e5674deb6175c042eba101924ffc594ba9c72d1fc5d68cb18057f9306bb13288c5476dcb4155e062cb8121b26fdcb9ab4927cdff25366c5160b719d08b51d26825a78d2ba1b500822b61c1528f3c998b6907eddf05164c71409739f0ab71f2480587ad0b819520a20b41e172af1cf9eb09678dbf65762c1120f75990cb11922865e7cd6be1f540c26b218112cf7cd9cb2947ad9f45560c3100d779b0eb31b20845c7ed4bc1d560e24b01a132ef5c392bc9a74d7fa5b6ecd1e03799500bd152e8a5270dab21358002abe141d20fbc190be9876d5f8596ccf1c017b9702bf172c885072d8b0115a0228bc161f22f9c796b89e70d3fe5f6ac91a077d9104b9112a8e5674deb6175c042eba101924ffc594ba9c72d1fc5d68cb18057f9306bb13288c5476dcb4155e062cb8121b26fdcb9ab4927cdff25366c5160b719d08b51d26825a78d2ba1b500822b61c1528f3c998b6907eddf05164c71409739f0ab71f2480587ad0b819520a20b41e172af1cf9eb09678dbf65762c1120f75990cb11922865e7cd6be1f540c26b218112cf7cd9cb2947ad9f45560c3100d779b0eb31b20845c7ed4bc1d560e24b01a132ef5c392bc9a74d7fa5b6ecd1e03799500bd14b0a64d8074c881f1022d5e9d4cc2582751393672d76a584ffa6bdbfd3ffdc0c",
        "type": "nulldata"
      }
    },
    {
      "value": 499992.8817,
      "n": 1,
      "scriptPubKey": {
        "asm": "1 b032d11cf72ad274501359306f2b38d9ce69778eaa914dee710aaeafed265eef",
        "hex": "5120b032d11cf72ad274501359306f2b38d9ce69778eaa914dee710aaeafed265eef",
        "reqSigs": 1,
        "type": "witness_v1_scripthash",
        "addresses": [
          "3QJmnh"
        ]
      }
    }
  ],
  "blockhash": "86d3aa2e412fd1c0ad7fd5d7d84b7ddcf41a8bf652344eaa49dd1e6444ae5dce",
  "confirmations": 1,
  "time": 1764176858,
  "blocktime": 1764176858
}