{
  "hex": "010000000001018c048ede716ae98cc90385f7af3067a4b07249de71237ec94027eff59bb696b30000000000feffffff0200e1f50500000000fdd5046a20a5fd6d1671ac46815a78c41c7b5faeb52deab806aae0a53b2ef59adfdec0b5624db004601cdba393ed6c7d23a502edaefa135118cecefaecfa84ba9197e3f951675297403cfb83b3cd4c5d038522cd8eda337138eeeedaccdaa49ab1b7c3d9714772b7205c9be3d3ad2c3d63e542adeeba5311588e8ebaacbac4fad1d7a3b9112712d7007cbbc3f38d0c1d43c5628dce9a733178aeae9a8c9ae4daf1f78399310732f7e09c5b23136decfda325826d2e7a93d1984e4e7a6c7a043a11176379d1e7d217c0bc7b03334dccdd8305a24d0e5ab3f1b86e6e5a4c5a241a31374359f1c7f237a0dc1b63532dacbde365c22d6e3ad391d80e0e3a2c3a447a5157233991a7925780fc3b43730d8c9dc345e20d4e1af3b1f82e2e1a0c1a645a71770319b187b277601cdba393ed6c7d23a502edaefa135118cecefaecfa84ba9197e3f951675297403cfb83b3cd4c5d038522cd8eda337138eeeedaccdaa49ab1b7c3d9714772b7205c9be3d3ad2c3d63e542adeeba5311588e8ebaacbac4fad1d7a3b9112712d7007cbbc3f38d0c1d43c5628dce9a733178aeae9a8c9ae4daf1f78399310732f7e09c5b23136decfda325826d2e7a93d1984e4e7a6c7a043a11176379d1e7d217c0bc7b03334dccdd8305a24d0e5ab3f1b86e6e5a4c5a241a31374359f1c7f237a0dc1b63532dacbde365c22d6e3ad391d80e0e3a2c3a447a5157233991a7925780fc3b43730d8c9dc345e20d4e1af3b1f82e2e1a0c1a645a71770319b187b277601cdba393ed6c7d23a502edaefa135118cecefaecfa84ba9197e3f951675297403cfb83b3cd4c5d038522cd8eda337138eeeedaccdaa49ab1b7c3d9714772b7205c9be3d3ad2c3d63e542adeeba5311588e8ebaacbac4fad1d7a3b9112712d7007cbbc3f38d0c1d43c5628dce9a733178aeae9a8c9ae4daf1f78399310732f7e09c5b23136decfda325826d2e7a93d1984e4e7a6c7a043a11176379d1e7d217c0bc7b03334dccdd8305a24d0e5ab3f1b86e6e5a4c5a241a31374359f1c7f237a0dc1b63532dacbde365c22d6e3ad391d80e0e3a2c3a447a5157233991a7925780fc3b43730d8c9dc345e20d4e1af3b1f82e2e1a0c1a645a71770319b187b277601cdba393ed6c7d23a502edaefa135118cecefaecfa84ba9197e3f951675297403cfb83b3cd4c5d038522cd8eda337138eeeedaccdaa49ab1b7c3d9714772b7205c9be3d3ad2c3d63e542adeeba5311588e8ebaacbac4fad1d7a3b9112712d7007cbbc3f38d0c1d43c5628dce9a733178aeae9a8c9ae4daf1f78399310732f7e09c5b23136decfda325826d2e7a93d1984e4e7a6c7a043a11176379d1e7d217c0bc7b03334dccdd8305a24d0e5ab3f1b86e6e5a4c5a241a31374359f1c7f237a0dc1b63532dacbde365c22d6e3ad391d80e0e3a2c3a447a5157233991a7925780fc3b43730d8c9dc345e20d4e1af3b1f82e2e1a0c1a645a71770319b187b277601cdba393ed6c7d23a502edaefa135118cecefaecfa84ba9197e3f951675297403cfb83b3cd4c5d038522cd8eda337138eeeedaccdaa49ab1b7c3d9714772b7205c9be3d3ad2c3d63e542adeeba5311588e8ebaacbac4fad1d7a3b9112712d7007cbbc3f38d0c1d43c5628dce9a733178aeae9a8c9ae4daf1f78399310732f7e09c5b23136decfda325826d2e7a93d18a0810ee161ce9119b67ca2ac065c4cc2bcc7397719afe0bc392c4cf738843ef00774227792d00002251205eaff80d5dd414abfff824efb7b3792610b7790579cfffde0263008258e2361c02fd7509ecd7bcc199cf9dc250f9a3edecdcfdc7dd5d4cbbcec0d41c257e003d0cf182cd043d9995c2023dfb174f9b56bcafa5686e74ace3df6bf444135e7d99f20b28f1877becba269089b96d18ead8958ef8830d21c068ed121ce87eb2f13d89a2f6557e3875c4e54840e7644b3806ebc21262ae311293e76993fe07aa45230fdfbfd3be9033c61ebb635fa137ab79369f4fb12a3781aef6499fce832cb7eb885732b073308c171ebfa3f640c66b28df43f956e4c10d09f82d1c5af2c4a25a65c66102a08f9994e4a268797137feafd7cb7fa0fa62785bf4b706a5763f97bc8ce9e0ef26fa94ac377495df2d20f8c4fd298b7544c7578f31823a50df7d8773429d5aaf8806e32d180bf4b9a96892c6e693aefc169aaa59e2e7e028da3f22faa2977ba87ab2b42c359b017fd084ed8237d209e50233bc32cb83a762729004d06934c91c14f9d9e4c4a385195e3127f4cb91b9bd7754f3009e19eaf36b7efadae5733b6c60cc96e4576aa622c3856cfb07c922d8fc456baa868b8791a7181a022f9d5c69c5dc4ae073f4dd9f25980c6d661cf6ff958fd888256c6594de30b329e05fe8fea23c933c751ae0b5a50d717cf98950d7f19c77de17da063a876058aa08d098b1cd9411c2de0eef6e62fac7b87260260e53abb254ff375480418873caa5af7c6e3a2b6c094208770750c0ed2fe3d322d564335215d45974313bd93626dd98858388f51d695b17c6acaca596a50dcb052b04166f6e8f079d8f816ec71114ecbd84012b2e870fce590f4355834baa45965910e0e3b0937214a7562430bf2c60f2c45e75299d3b4a8101095ab8cab073d5837aae2351f9c74a7cfaa4cbc1c3a9da75aef4be71af8d9122c9c2f4dbbb90680fba1aa8a86fc7ef30ec2b77412151e58250355d9d6c51fb5d8a4964ef0224227aea70f0378a4b1c291928ec301245e4e2248c534fbadfe3143581f041849425d2a49f5703bafb2d4b73b44e93dc587c8376a0fc188975387e6350b622b26508137eaf45b5a119c4deb476f235239fe1c042cc08d7dde0af3a8c982366cb1cc4d000f83cb342159952f7c44c0fad4dd8a0804d650a2d3c68f29ff9aba1dae909d146c865cf92fc47febfa069c84ce193d7c6df95c13f642007705f52ee0c2af7628fc432199bb787d380c48601f84275209f50170d02d08426d9a1182bbcd319a8513ae1025b7dc77fccfea4f1540eb842700c9984777b7805a16d43de2be4247ecab22d8d072edecc941cc93668fac51e067eb11e8a5c680d8f1a75f6b27c75ac838e585f4f9a5c1a8e4e98da9e00f0ae8c34c45e390473f9f2af769d362d5d8e66a7b0bf5d094c2b4b6a761e2e387ab2730a487af26ac6fe76cb4538db0acedabc640684c1d938e6e2dabfeb89b5bbd701be9131769e9c34dc801ace42544040d05aae7c32d6d80842a7cac67fc3c9186af9e9af68c76c1fff3e02adb111191433d12c437bb419cfaa379738929cb1d694853218b767b0f3c0e79af544504badad23bfd333e17c53a338b6227fc5102c15d826a8d30bfc1539c31a1160f85299460dbb1897560c38adb8900d5f136f56ab47d96f4636cfbe7702eabd3f90527f7bc0cceb6294e9f16b3a7ec745e0cae940124895df1b1aa43aafd949607caae3313c554a4b8651c762b66aa8fd413291648c1ba70b1a1e0f72ff3c24c21f24a3436f45a37f0dbee9d7666468cf9e5d6ea5aba781739ccb77635b75bbdd507ff44f90aa122086ae909e30a9b296aaddcf8d8c5efee76f1f51e6f354913be2d6f1709edd1aec6ec24cef2ebaaae2eaecdb490247228a0113d04661f81124e9b39540339c4c92452af5678f8d547939f214e0373a251c3fdd51056d7086caaa522fc0511c7da03d4afdcf8f50351de8b524aa3ecf9c0aff3080b82bb59a4db38753ab140db8cb5949f8785c2416972ec644721c661a66112ab80915e3c70f6c797b4bea9f6ccf077fe87e9ad16e41e9528897f9418ea728f5175484acb3ee211abcf9fcb8e5c3f6531de78149aa4e1b4b71b31343a1d233d9c57ae58fff6b178f7554a7e2579b1718eebffc9e404cb389e416abbf1de720a60ce42171a375b8971ca7b49c9cb3fb856549b716bd8f5e074fd7aa7beb34d25209a96321a56c3f40a62adc9c0fc8e603941a09276d3a68aa994a5020a19e90e19f2a70962940dd500bd1ce1ec9bc08e13f0d7feecaca91c320208333debeea0fde4932fa01104de5f8a1710be843b429364b183cc97d785905e01555c33928e02fdf36fb9c41cb120c0d224f01d7f5e6201e4d12e4fb633e48dd3aea5a1154ac5b4976078982ff100e684da042a6d43c4f1f08a7b9ad4270894d0483ef719aac4063e48996336f986c39401ada59bdd50403f76a48cbbd1e86462a8f4efcb3c929b0a0a7816c7e4fcf8f92fef26b019824f3812b2835d9d38f58e32e7c2c79fc7c81fd6cd002eccbdfaa50180db59caf49b7380a7dbf855fa241d714644a41ae72c4206f49beae507a297eef1c5c1ff36c5c5695e366e7c2a6d2e8b39947b1425e9340d48d3b69ad9eaf1ed171ce80d471f94240f0745a62d5572031bd1c34f6c844e624c8a9ffd6bdda7bb35fe5d83bce0e18b5e7e3eb92518916dceb7579f74ac20c5ad0976714c256f96a5ee7bbd6f168f584f710cc15f064756b506cd47f5958bef1d89f267c00410fbabdadf12ee42df5de41ad99bc336ae0296fa42e579b0fc34d8ceaebd508488e8cb492d6d60c48b0994d5692571f938364ddab1d78b74b9c166607fd960ae35e7e9143c0372eb5d713abcb41d95279d18708f5e1076388a812533d0abff2de829176b9e5e93fd6028360c6f189ad74bd2cbfc2233209dff44ca859b29f06b81019be8fd713044cc0b26897270ea0975c76f1bd51a31e58f281102a639ff6724ad70b8d4fb1c81b4904d0921629e5d1805b70ae6f05bba6ced16fe033480733266cfddaee08f2286ce289286196daebea8d2af159e299a398a903c2df404206bed8c0949a76dd15a01ced5fd7790b5ce8a813a4e01360717cf0f914d8a220bfb7c0aaa87050e02e60f9fca75c6e50d4d5da17fdb4fb5dfc07bf5365da4f7a98ad7be422e8a094df943e3e6c53e7413a650bedbb5ba5029f06baddf790f7c3100c2afd9ecd90709ecc012c798144f53c44d15d1ba0001dbfd8b994fe89c90137265cbc1050e90e6dd5e87a69506459cb74a8b43722ccab40a329ad23fab5542b14bf24de5ddf3f89e9b9e6a3f2cc35a25b5fff571092d5f6e3936c83cb20f925a204159bbcbc5aa946b2816a83ed8f263748575c787d9ae20d14264c5d676e848b90d9ebef1b1f24324c6e7d828999a8a9bcc6c7d0dddef5fd0b111f2227676b93a9bcbfc9e4e700000000000000000000000000000000000000000000000009162a3801fd210500f857c8d13fb602759533e79284362a7fdbd615f08cdfa9298f3ac8d5a51bbdc9f8479aca8595876afb82e5086a9f471952b19d4bc7a9dae11a8dac667d2bcefb4ade46eb308633486c3162ba868a1091e5096b03853aa15fe1d224ea9ab7ca7143d9dc2a101c77a4d43e079ff963ea865dbc729fa4009cef20ee8559fc2e0de7412d174c0f28c037789d5adf7e2ee334e179559b7316a1f609e5b71456a73f9feb0d18fff74a580de42a827d0d912a556e3ec36b6de49a5118fb43efba5e344a4517d5424d2e4961a36e0b823a914a10d6687500bebde47ace1faf337073f622530b2a19622a2d5740c1fa6166bb7a13b8d23e93484498d3cd9331cbcc50862a2c04d3de1271ae76b3928ffbf095f7045644d73dfa52eec20f105443d5a53772fcdf5c09606ca7ac788570a22b5065d243d8f55ae7df715b74aa91897095e7bd4c4e0411b2de5b41659f7db1ee077aa1cf8ab764dc8b0599fad11e8fd58495352d85c5ac665b8741aee956ed6f4ba4859217f89f4d12af66fbcab19b6ce55345bf95841c3121782bb3fa0cbd02a87a4b9ffaa6d9f69a99da7a7f46cb728b32828dfe59836829a08f62dbcc31c4d8d95b089e4eac90aa5be3aa01173957cd289ffd510334ebdb236895288c6029b6063ff27e21395d70e0129fb24209dc7a04028b0a2f5aaa5f62399a838a20db899c33d859b97f537820e728683141520f4d9c4b3f22193db7d262786ce79740af52110c1f06a3153828d2cf5412d6c1dd4be4156845a7eec230a6488d8aae1d12838753181eb0a2f7c49b205e2dbfc5b167745a5e9517c10bd9724e12dac358b422c0846a3ac1d3719c9db27eb691469a6e2cd25d0c8f9fd06a8e97705d7ffcb460ac238f712de2143d883ebd1a2e47f65d81b39f9b701b1aa006c202bdabbdeaacd7b2d494b13d983aae7667f36c3102229b552791904f8c717aac7e6b0845676449386deba9b6603615890e7b2795050a28ae3fe92d4b95bfb3d002342c387e13e4cd16deb77b28a7b6767cc881a58472e0c28ba15965504576ac95845361f56e137cfe320d0206c33fecc62025beb9d48949acbc7f6e218548e5f86bfaf40b7499a4180ddf91d146dec1317b07abecd4480a987968c25205cd4b576ea532051b1652dfe58c12d20c97eec9da6c0ec6960557cd53987a1f46cb99fe80238d8a44a9f4e55e02ab0954a2d20effc0a9ddf9859d9b88220d605604ddc6b08c21773413e571047b14bb74f7dbc76da1bbed444832cb0307db2cead0ecaa051222b757135626c8df85f1fef2de2d22d4a3766d13c2393b6734d3aec55ce46db75d1b6a3d0793c80c50a587fdf08a826a4c4f424956f8227ef97b0c449801a67a431da3771440639beefa0bdf80be30e2f973903133d096508ade44b8b41887b0483d5caf5a1893677a21ebba523c76cb99989c48081364958ddf39be9c74528de9b831937391725a733902be4dadd5c41e3f0e56db59e3f2b91a0fba872a356fdb12639db253d52d35189c2de13b399409934c955470e13ab4c2665c1351df8f0bb9cc58de454eaddedf9d31259bb48118becc8c47e40bb880a7ea56e5239644db67838c24a0e3b3d9c0b2ac459ea5bfa59192e0da9638f559751b0251e346937ba5922823aa30dabc35075934bfde395905f39312413566f2a9d41c4c48a3476c39b429f282bde10c6a90d352a67e2e33c6bf6b60b1d2fc7f27005f32df87c2ef6deda3398a01be6931840531472046332a8d90fac279bc4cd122fc24295c85cecb292d9392e1acdc841608f596caaa5f8c5fee5f200cea4308af73d3c813510bea717e8c82a640a6d2b5e7f5c9b2e692d1d4b375000000",
  "txid": "3317f7b7e6aac6e7d860cb1cee7e3045cb2e854f026dafe836a8f0294c425177",
  "hash": "ab81ddaa0c95acf04ffb3277f0a1d2beb84439054c29f71681de4e148197c82b",
  "size": 5085,
  "vsize": 2278,
  "version": 1,
  "locktime": 117,
  "vin": [
    {
      "txid": "b396b69bf5ef2740c97e2371de4972b0a46730aff78503c98ce96a71de8e048c",
      "vout": 0,
      "scriptSig": {
        "asm": "",
        "hex": ""
      },
      "txinwitness": [
        "ecd7bcc199cf9dc250f9a3edecdcfdc7dd5d4cbbcec0d41c257e003d0cf182cd043d9995c2023dfb174f9b56bcafa5686e74ace3df6bf444135e7d99f20b28f1877becba269089b96d18ead8958ef8830d21c068ed121ce87eb2f13d89a2f6557e3875c4e54840e7644b3806ebc21262ae311293e76993fe07aa45230fdfbfd3be9033c61ebb635fa137ab79369f4fb12a3781aef6499fce832cb7eb885732b073308c171ebfa3f640c66b28df43f956e4c10d09f82d1c5af2c4a25a65c66102a08f9994e4a268797137feafd7cb7fa0fa62785bf4b706a5763f97bc8ce9e0ef26fa94ac377495df2d20f8c4fd298b7544c7578f31823a50df7d8773429d5aaf8806e32d180bf4b9a96892c6e693aefc169aaa59e2e7e028da3f22faa2977ba87ab2b42c359b017fd084ed8237d209e50233bc32cb83a762729004d06934c91c14f9d9e4c4a385195e3127f4cb91b9bd7754f3009e19eaf36b7efadae5733b6c60cc96e4576aa622c3856cfb07c922d8fc456baa868b8791a7181a022f9d5c69c5dc4ae073f4dd9f25980c6d661cf6ff958fd888256c6594de30b329e05fe8fea23c933c751ae0b5a50d717cf98950d7f19c77de17da063a876058aa08d098b1cd9411c2de0eef6e62fac7b87260260e53abb254ff375480418873caa5af7c6e3a2b6c094208770750c0ed2fe3d322d564335215d45974313bd93626dd98858388f51d695b17c6acaca596a50dcb052b04166f6e8f079d8f816ec71114ecbd84012b2e870fce590f4355834baa45965910e0e3b0937214a7562430bf2c60f2c45e75299d3b4a8101095ab8cab073d5837aae2351f9c74a7cfaa4cbc1c3a9da75aef4be71af8d9122c9c2f4dbbb90680fba1aa8a86fc7ef30ec2b77412151e58250355d9d6c51fb5d8a4964ef0224227aea70f0378a4b1c291928ec301245e4e2248c534fbadfe3143581f041849425d2a49f5703bafb2d4b73b44e93dc587c8376a0fc188975387e6350b622b26508137eaf45b5a119c4deb476f235239fe1c042cc08d7dde0af3a8c982366cb1cc4d000f83cb342159952f7c44c0fad4dd8a0804d650a2d3c68f29ff9aba1dae909d146c865cf92fc47febfa069c84ce193d7c6df95c13f642007705f52ee0c2af7628fc432199bb787d380c48601f84275209f50170d02d08426d9a1182bbcd319a8513ae1025b7dc77fccfea4f1540eb842700c9984777b7805a16d43de2be4247ecab22d8d072edecc941cc93668fac51e067eb11e8a5c680d8f1a75f6b27c75ac838e585f4f9a5c1a8e4e98da9e00f0ae8c34c45e390473f9f2af769d362d5d8e66a7b0bf5d094c2b4b6a761e2e387ab2730a487af26ac6fe76cb4538db0acedabc640684c1d938e6e2dabfeb89b5bbd701be9131769e9c34dc801ace42544040d05aae7c32d6d80842a7cac67fc3c9186af9e9af68c76c1fff3e02adb111191433d12c437bb419cfaa379738929cb1d694853218b767b0f3c0e79af544504badad23bfd333e17c53a338b6227fc5102c15d826a8d30bfc1539c31a1160f85299460dbb1897560c38adb8900d5f136f56ab47d96f4636cfbe7702eabd3f90527f7bc0cceb6294e9f16b3a7ec745e0cae940124895df1b1aa43aafd949607caae3313c554a4b8651c762b66aa8fd413291648c1ba70b1a1e0f72ff3c24c21f24a3436f45a37f0dbee9d7666468cf9e5d6ea5aba781739ccb77635b75bbdd507ff44f90aa122086ae909e30a9b296aaddcf8d8c5efee76f1f51e6f354913be2d6f1709edd1aec6ec24cef2ebaaae2eaecdb490247228a0113d04661f81124e9b39540339c4c92452af5678f8d547939f214e0373a251c3fdd51056d7086caaa522fc0511c7da03d4afdcf8f50351de8b524aa3ecf9c0aff3080b82bb59a4db38753ab140db8cb5949f8785c2416972ec644721c661a66112ab80915e3c70f6c797b4bea9f6ccf077fe87e9ad16e41e9528897f9418ea728f5175484acb3ee211abcf9fcb8e5c3f6531de78149aa4e1b4b71b31343a1d233d9c57ae58fff6b178f7554a7e2579b1718eebffc9e404cb389e416abbf1de720a60ce42171a375b8971ca7b49c9cb3fb856549b716bd8f5e074fd7aa7beb34d25209a96321a56c3f40a62adc9c0fc8e603941a09276d3a68aa994a5020a19e90e19f2a70962940dd500bd1ce1ec9bc08e13f0d7feecaca91c320208333debeea0fde4932fa01104de5f8a1710be843b429364b183cc97d785905e01555c33928e02fdf36fb9c41cb120c0d224f01d7f5e6201e4d12e4fb633e48dd3aea5a1154ac5b4976078982ff100e684da042a6d43c4f1f08a7b9ad4270894d0483ef719aac4063e48996336f986c39401ada59bdd50403f76a48cbbd1e86462a8f4efcb3c929b0a0a7816c7e4fcf8f92fef26b019824f3812b2835d9d38f58e32e7c2c79fc7c81fd6cd002eccbdfaa50180db59caf49b7380a7dbf855fa241d714644a41ae72c4206f49beae507a297eef1c5c1ff36c5c5695e366e7c2a6d2e8b39947b1425e9340d48d3b69ad9eaf1ed171ce80d471f94240f0745a62d5572031bd1c34f6c844e624c8a9ffd6bdda7bb35fe5d83bce0e18b5e7e3eb92518916dceb7579f74ac20c5ad0976714c256f96a5ee7bbd6f168f584f710cc15f064756b506cd47f5958bef1d89f267c00410fbabdadf12ee42df5de41ad99bc336ae0296fa42e579b0fc34d8ceaebd508488e8cb492d6d60c48b0994d5692571f938364ddab1d78b74b9c166607fd960ae35e7e9143c0372eb5d713abcb41d95279d18708f5e1076388a812533d0abff2de829176b9e5e93fd6028360c6f189ad74bd2cbfc2233209dff44ca859b29f06b81019be8fd713044cc0b26897270ea0975c76f1bd51a31e58f281102a639ff6724ad70b8d4fb1c81b4904d0921629e5d1805b70ae6f05bba6ced16fe033480733266cfddaee08f2286ce289286196daebea8d2af159e299a398a903c2df404206bed8c0949a76dd15a01ced5fd7790b5ce8a813a4e01360717cf0f914d8a220bfb7c0aaa87050e02e60f9fca75c6e50d4d5da17fdb4fb5dfc07bf5365da4f7a98ad7be422e8a094df943e3e6c53e7413a650bedbb5ba5029f06baddf790f7c3100c2afd9ecd90709ecc012c798144f53c44d15d1ba0001dbfd8b994fe89c90137265cbc1050e90e6dd5e87a69506459cb74a8b43722ccab40a329ad23fab5542b14bf24de5ddf3f89e9b9e6a3f2cc35a25b5fff571092d5f6e3936c83cb20f925a204159bbcbc5aa946b2816a83ed8f263748575c787d9ae20d14264c5d676e848b90d9ebef1b1f24324c6e7d828999a8a9bcc6c7d0dddef5fd0b111f2227676b93a9bcbfc9e4e700000000000000000000000000000000000000000000000009162a3801",
        "00f857c8d13fb602759533e79284362a7fdbd615f08cdfa9298f3ac8d5a51bbdc9f8479aca8595876afb82e5086a9f471952b19d4bc7a9dae11a8dac667d2bcefb4ade46eb308633486c3162ba868a1091e5096b03853aa15fe1d224ea9ab7ca7143d9dc2a101c77a4d43e079ff963ea865dbc729fa4009cef20ee8559fc2e0de7412d174c0f28c037789d5adf7e2ee334e179559b7316a1f609e5b71456a73f9feb0d18fff74a580de42a827d0d912a556e3ec36b6de49a5118fb43efba5e344a4517d5424d2e4961a36e0b823a914a10d6687500bebde47ace1faf337073f622530b2a19622a2d5740c1fa6166bb7a13b8d23e93484498d3cd9331cbcc50862a2c04d3de1271ae76b3928ffbf095f7045644d73dfa52eec20f105443d5a53772fcdf5c09606ca7ac788570a22b5065d243d8f55ae7df715b74aa91897095e7bd4c4e0411b2de5b41659f7db1ee077aa1cf8ab764dc8b0599fad11e8fd58495352d85c5ac665b8741aee956ed6f4ba4859217f89f4d12af66fbcab19b6ce55345bf95841c3121782bb3fa0cbd02a87a4b9ffaa6d9f69a99da7a7f46cb728b32828dfe59836829a08f62dbcc31c4d8d95b089e4eac90aa5be3aa01173957cd289ffd510334ebdb236895288c6029b6063ff27e21395d70e0129fb24209dc7a04028b0a2f5aaa5f62399a838a20db899c33d859b97f537820e728683141520f4d9c4b3f22193db7d262786ce79740af52110c1f06a3153828d2cf5412d6c1dd4be4156845a7eec230a6488d8aae1d12838753181eb0a2f7c49b205e2dbfc5b167745a5e9517c10bd9724e12dac358b422c0846a3ac1d3719c9db27eb691469a6e2cd25d0c8f9fd06a8e97705d7ffcb460ac238f712de2143d883ebd1a2e47f65d81b39f9b701b1aa006c202bdabbdeaacd7b2d494b13d983aae7667f36c3102229b552791904f8c717aac7e6b0845676449386deba9b6603615890e7b2795050a28ae3fe92d4b95bfb3d002342c387e13e4cd16deb77b28a7b6767cc881a58472e0c28ba15965504576ac95845361f56e137cfe320d0206c33fecc62025beb9d48949acbc7f6e218548e5f86bfaf40b7499a4180ddf91d146dec1317b07abecd4480a987968c25205cd4b576ea532051b1652dfe58c12d20c97eec9da6c0ec6960557cd53987a1f46cb99fe80238d8a44a9f4e55e02ab0954a2d20effc0a9ddf9859d9b88220d605604ddc6b08c21773413e571047b14bb74f7dbc76da1bbed444832cb0307db2cead0ecaa051222b757135626c8df85f1fef2de2d22d4a3766d13c2393b6734d3aec55ce46db75d1b6a3d0793c80c50a587fdf08a826a4c4f424956f8227ef97b0c449801a67a431da3771440639beefa0bdf80be30e2f973903133d096508ade44b8b41887b0483d5caf5a1893677a21ebba523c76cb99989c48081364958ddf39be9c74528de9b831937391725a733902be4dadd5c41e3f0e56db59e3f2b91a0fba872a356fdb12639db253d52d35189c2de13b399409934c955470e13ab4c2665c1351df8f0bb9cc58de454eaddedf9d31259bb48118becc8c47e40bb880a7ea56e5239644db67838c24a0e3b3d9c0b2ac459ea5bfa59192e0da9638f559751b0251e346937ba5922823aa30dabc35075934bfde395905f39312413566f2a9d41c4c48a3476c39b429f282bde10c6a90d352a67e2e33c6bf6b60b1d2fc7f27005f32df87c2ef6deda3398a01be6931840531472046332a8d90fac279bc4cd122fc24295c85cecb292d9392e1acdc841608f596caaa5f8c5fee5f200cea4308af73d3c813510bea717e8c82a640a6d2b5e7f5c9b2e692d1d4b3"
      ],
      "sequence": 4294967294
    }
  ],
  "vout": [
    {
      "value": 1.0,
      "n": 0,
      "scriptPubKey": {
        "asm": "OP_RETURN a5fd6d1671ac46815a78c41c7b5faeb52deab806aae0a53b2ef59adfdec0b562 601cdba393ed6c7d23a502edaefa135118cecefaecfa84ba9197e3f951675297403cfb83b3cd4c5d038522cd8eda337138eeeedaccdaa49ab1b7c3d9714772b7205c9be3d3ad2c3d63e542adeeba5311588e8ebaacbac4fad1d7a3b9112712d7007cbbc3f38d0c1d43c5628dce9a733178aeae9a8c9ae4daf1f78399310732f7e09c5b23136decfda325826d2e7a93d1984e4e7a6c7a043a11176379d1e7d217c0bc7b03334dccdd8305a24d0e5ab3f1b86e6e5a4c5a241a31374359f1c7f237a0dc1b63532dacbde365c22d6e3ad391d80e0e3a2c3a447a5157233991a7925780fc3b43730d8c9dc345e20d4e1af3b1f82e2e1a0c1a645a71770319b187b277601cdba393ed6c7d23a502edaefa135118cecefaecfa84ba9197e3f951675297403cfb83b3cd4c5d038522cd8eda337138eeeedaccdaa49ab1b7c3d9714772b7205c9be3d3ad2c3d63e542adeeba5311588e8ebaacbac4fad1d7a3b9112712d7007cbbc3f38d0c1d43c5628dce9a733178aeae9a8c9ae4daf1f78399310732f7e09c5b23136decfda325826d2e7a93d1984e4e7a6c7a043a11176379d1e7d217c0bc7b03334dccdd8305a24d0e5ab3f1b86e6e5a4c5a241a31374359f1c7f237a0dc1b63532dacbde365c22d6e3ad391d80e0e3a2c3a447a5157233991a7925780fc3b43730d8c9dc345e20d4e1af3b1f82e2e1a0c1a645a71770319b187b277601cdba393ed6c7d23a502edaefa135118cecefaecfa84ba9197e3f951675297403cfb83b3cd4c5d038522cd8eda337138eeeedaccdaa49ab1b7c3d9714772b7205c9be3d3ad2c3d63e542adeeba5311588e8ebaacbac4fad1d7a3b9112712d7007cbbc3f38d0c1d43c5628dce9a733178aeae9a8c9ae4daf1f78399310732f7e09c5b23136decfda325826d2e7a93d1984e4e7a6c7a043a11176379d1e7d217c0bc7b03334dccdd8305a24d0e5ab3f1b86e6e5a4c5a241a31374359f1c7f237a0dc1b63532dacbde365c22d6e3ad391d80e0e3a2c3a447a5157233991a7925780fc3b43730d8c9dc345e20d4e1af3b1f82e2e1a0c1a645a71770319b187b277601cdba393ed6c7d23a502edaefa135118cecefaecfa84ba9197e3f951675297403cfb83b3cd4c5d038522cd8eda337138eeeedaccdaa49ab1b7c3d9714772b7205c9be3d3ad2c3d63e542adeeba5311588e8ebaacbac4fad1d7a3b9112712d7007cbbc3f38d0c1d43c5628dce9a733178aeae9a8c9ae4daf1f78399310732f7e09c5b23136decfda325826d2e7a93d1984e4e7a6c7a043a11176379d1e7d217c0bc7b03334dccdd8305a24d0e5ab3f1b86e6e5a4c5a241a31374359f1c7f237a0dc1b63532dacbde365c22d6e3ad391d80e0e3a2c3a447a5157233991a7925780fc3b43730d8c9dc345e20d4e1af3b1f82e2e1a0c1a645a71770319b187b277601cdba393ed6c7d23a502edaefa135118cecefaecfa84ba9197e3f951675297403cfb83b3cd4c5d038522cd8eda337138eeeedaccdaa49ab1b7c3d9714772b7205c9be3d3ad2c3d63e542adeeba5311588e8ebaacbac4fad1d7a3b9112712d7007cbbc3f38d0c1d43c5628dce9a733178aeae9a8c9ae4daf1f78399310732f7e09c5b23136decfda325826d2e7a93d18a0810ee161ce9119b67ca2ac065c4cc2bcc7397719afe0bc392c4cf738843ef",
        "hex": "6a20a5fd6d1671ac46815a78c41c7b5faeb52deab806aae0a53b2ef59adfdec0b5624db004601cdba393ed6c7d23a502edaefa135118cecefaecfa84ba9197e3f951675297403cfb83b3cd4c5d038522cd8eda337138eeeedaccdaa49ab1b7c3d9714772b7205c9be3d3ad2c3d63e542adeeba5311588e8ebaacbac4fad1d7a3b9112712d7007cbbc3f38d0c1d43c5628dce9a733178aeae9a8c9ae4daf1f78399310732f7e09c5b23136decfda325826d2e7a93d1984e4e7a6c7a043a11176379d1e7d217c0bc7b03334dccdd8305a24d0e5ab3f1b86e6e5a4c5a241a31374359f1c7f237a0dc1b63532dacbde365c22d6e3ad391d80e0e3a2c3a447a5157233991a7925780fc3b43730d8c9dc345e20d4e1af3b1f82e2e1a0c1a645a71770319b187b277601cdba393ed6c7d23a502edaefa135118cecefaecfa84ba9197e3f951675297403cfb83b3cd4c5d038522cd8eda337138eeeedaccdaa49ab1b7c3d9714772b7205c9be3d3ad2c3d63e542adeeba5311588e8ebaacbac4fad1d7a3b9112712d7007cbbc3f38d0c1d43c5628dce9a733178aeae9a8c9ae4daf1f78399310732f7e09c5b23136decfda325826d2e7a93d1984e4e7a6c7a043a11176379d1e7d217c0bc7b03334dccdd8305a24d0e5ab3f1b86e6e5a4c5a241a31374359f1c7f237a0dc1b63532dacbde365c22d6e3ad391d80e0e3a2c3a447a5157233991a7925780fc3b43730d8c9dc345e20d4e1af3b1f82e2e1a0c1a645a71770319b187b277601cdba393ed6c7d23a502edaefa135118cecefaecfa84ba9197e3f951675297403cfb83b3cd4c5d038522cd8eda337138eeeedaccdaa49ab1b7c3d9714772b7205c9be3d3ad2c3d63e542adeeba5311588e8ebaacbac4fad1d7a3b9112712d7007cbbc3f38d0c1d43c5628dce9a733178aeae9a8c9ae4daf1f78399310732f7e09c5b23136decfda325826d2e7a93d1984e4e7a6c7a043a11176379d1e7d217c0bc7b03334dccdd8305a24d0e5ab3f1b86e6e5a4c5a241a31374359f1c7f237a0dc1b63532dacbde365c22d6e3ad391d80e0e3a2c3a447a5157233991a7925780fc3b43730d8c9dc345e20d4e1af3b1f82e2e1a0c1a645a71770319b187b277601cdba393ed6c7d23a502edaefa135118cecefaecfa84ba9197e3f951675297403cfb83b3cd4c5d038522cd8eda337138eeeedaccdaa49ab1b7c3d9714772b7205c9be3d3ad2c3d63e542adeeba5311588e8ebaacbac4fad1d7a3b9112712d7007cbbc3f38d0c1d43c5628dce9a733178aeae9a8c9ae4daf1f78399310732f7e09c5b23136decfda325826d2e7a93d1984e4e7a6c7a043a11176379d1e7d217c0bc7b03334dccdd8305a24d0e5ab3f1b86e6e5a4c5a241a31374359f1c7f237a0dc1b63532dacbde365c22d6e3ad391d80e0e3a2c3a447a5157233991a7925780fc3b43730d8c9dc345e20d4e1af3b1f82e2e1a0c1a645a71770319b187b277601cdba393ed6c7d23a502edaefa135118cecefaecfa84ba9197e3f951675297403cfb83b3cd4c5d038522cd8eda337138eeeedaccdaa49ab1b7c3d9714772b7205c9be3d3ad2c3d63e542adeeba5311588e8ebaacbac4fad1d7a3b9112712d7007cbbc3f38d0c1d43c5628dce9a733178aeae9a8c9ae4daf1f78399310732f7e09c5b23136decfda325826d2e7a93d18a0810ee161ce9119b67ca2ac065c4cc2bcc7397719afe0bc392c4cf738843ef",
        "type": "nulldata"
      }
    },
    {
      "value": 499983.7296,
      "n": 1,
      "scriptPubKey": {
        "asm": "1 5eaff80d5dd414abfff824efb7b3792610b7790579cfffde0263008258e2361c",
        "hex": "51205eaff80d5dd414abfff824efb7b3792610b7790579cfffde0263008258e2361c",
        "reqSigs": 1,
        "type": "witness_v1_scripthash",
        "addresses": [
          "3QJmnh"
        ]
      }
    }
  ],
  "blockhash": "443ef5589806c3570db60b1178f56898637f167918ce0f0236a27ac7d0512dc1",
  "confirmations": 1,
  "time": 1764179461,
  "blocktime": 1764179461
}