{
  "hex": "01000000000101e7501f8587cc51e3d499a8a8d59039048415423b4bd8ca276912b167a09771230100000000feffffff02f077b5f0782d0000225120f2aec19e3866e17d663b7d85010ed398e88695b27a884b86df937189679e5b8600e1f50500000000fdd5046a2027b08709a7f1cd3b9bea9414dad63953777cf1a5645d6d7228494b2ef401166c4db004d50e9143fe56feb7e15f4a9b665ab9c817c594a8435ae325fdd4b5ca636742aaf52eb163de76de97c17f6abb467a99e837e5b488637ac305ddf495ea4347628a954ed103be16bef7a11f0adb261af9885785d4e8031aa365bd94f58a232702eab56ef1239e369ed7813f2afb063ad9a877a5f4c8233a83459db4d5aa030722ca558e11c37ed67e3761dfca1be6da394897451428c3da63a57d54354ae3e7c22a75ae31e35ef65e1741ffea3bc6fa1968b7653408e3fa43855d74156ac3c7e20a15ce51833e963e77219f8a5ba69a7908d7055468839a23e53d14750aa3a7826a35ee71a31eb61e5701bfaa7b86ba5928f7257448a3ba03c51d34552a8387a24ad50e9143fe56feb7e15f4a9b665ab9c817c594a8435ae325fdd4b5ca636742aaf52eb163de76de97c17f6abb467a99e837e5b488637ac305ddf495ea4347628a954ed103be16bef7a11f0adb261af9885785d4e8031aa365bd94f58a232702eab56ef1239e369ed7813f2afb063ad9a877a5f4c8233a83459db4d5aa030722ca558e11c37ed67e3761dfca1be6da394897451428c3da63a57d54354ae3e7c22a75ae31e35ef65e1741ffea3bc6fa1968b7653408e3fa43855d74156ac3c7e20a15ce51833e963e77219f8a5ba69a7908d7055468839a23e53d14750aa3a7826a35ee71a31eb61e5701bfaa7b86ba5928f7257448a3ba03c51d34552a8387a24ad50e9143fe56feb7e15f4a9b665ab9c817c594a8435ae325fdd4b5ca636742aaf52eb163de76de97c17f6abb467a99e837e5b488637ac305ddf495ea4347628a954ed103be16bef7a11f0adb261af9885785d4e8031aa365bd94f58a232702eab56ef1239e369ed7813f2afb063ad9a877a5f4c8233a83459db4d5aa030722ca558e11c37ed67e3761dfca1be6da394897451428c3da63a57d54354ae3e7c22a75ae31e35ef65e1741ffea3bc6fa1968b7653408e3fa43855d74156ac3c7e20a15ce51833e963e77219f8a5ba69a7908d7055468839a23e53d14750aa3a7826a35ee71a31eb61e5701bfaa7b86ba5928f7257448a3ba03c51d34552a8387a24ad50e9143fe56feb7e15f4a9b665ab9c817c594a8435ae325fdd4b5ca636742aaf52eb163de76de97c17f6abb467a99e837e5b488637ac305ddf495ea4347628a954ed103be16bef7a11f0adb261af9885785d4e8031aa365bd94f58a232702eab56ef1239e369ed7813f2afb063ad9a877a5f4c8233a83459db4d5aa030722ca558e11c37ed67e3761dfca1be6da394897451428c3da63a57d54354ae3e7c22a75ae31e35ef65e1741ffea3bc6fa1968b7653408e3fa43855d74156ac3c7e20a15ce51833e963e77219f8a5ba69a7908d7055468839a23e53d14750aa3a7826a35ee71a31eb61e5701bfaa7b86ba5928f7257448a3ba03c51d34552a8387a24ad50e9143fe56feb7e15f4a9b665ab9c817c594a8435ae325fdd4b5ca636742aaf52eb163de76de97c17f6abb467a99e837e5b488637ac305ddf495ea4347628a954ed103be16bef7a11f0adb261af9885785d4e8031aa365bd94f58a232702eab56ef1239e369ed7813f2afb063ad9a877a5f4c8233a83459db4d5aa030722ca558e11c37ed67e3761dfca1be6da394872775426b3e2497ec9423460690ed067caede7412d86f8fa34bf20d8b44e896a02fd7509727a78d42e554bcc2a8eb3bc4914a3c067710ebc1beb3321e740c3bf474f0bdf43903dd1a2b5f031ac3c89bdca2e3462a740605efef79e8f2e80f86cc40b7ad5ea3964efee4224d67442200ce411cb7835fb42470f6e47f11170b88047f5ad42a1f4fcd3c1e4e5107c6e917eac0c0daa320fa35d2694604b5590f271d73591a1f8f85400120b5cff353cad42d0103f9384a0560bb4a3a2a31a6a3eeef92b8387603a624a766e85198fe5d5ca9f9ae9391dd8c1bf6664751270db801f5302e00119992b73fb07f48116dbc6b96c7c2f4fda2a3859c111d8af36f894b5582194a434b7fe44bbbf8d1a7339ddf0ff48e132e71f2fbfd0cc95658e72a00de945816b74b7c10b187589577a7ef6615451139c3737377d25ddb4d3fe9aadb500e6729db94db4aeed7ef9788820d54d9f0fab78b50a2cb783966e18d99bf6659cd83f26267ab814df345d6a78acbe61f36ac12669fb499f1bf200fe54d13258d3ac21d2190cb4810f061aa6040807f74a89276cb731e65e66527d8004aa1365ea62dd6f25deef6bc5748cde5257cf9c598f20e86453fe9dc7c5ab2c4522f21d79ed1c5d1f9aad28886969395efecaadbf4884825d0dd0a26f471dd23f1b886ab7b08ecc4db19ca952f3b7ebada2960e949c0bbcb9ac651c460908e072000b68e3dcd0b6020831020fc3ddd68d84060dd8258147719ad768cbe2518944fc6751ccbd7823ccc092fc6f5080d0f744877c0a2f133c0af1e993089e0b9dd5e4fdd593ed052be3e2249306007099c944dec994f0e66c3083fed4320bf4c35dbbb9e76948027c45b13958df9f0b513369483b5696783945c3ed812526d2a27df5a7c018e9ee34cc3eea7dcc7582f1ea260385df181ebbfeb68ffa0677de73f72329833c746affc0c26ea012b6d24f2fb84c26e860d17bd8db036ac0335a0b11d56851f4d279d64758432cef12bd642e0ab7eb474a85342cf4a1fbd3e794f950d12876908751ce703aa775e813a98768696c6ad92171cc258314e528cf0cef9245a6ca4472af3b571265a790108432a7ad5143d3fb1f50d2d53500b7d96644fb952d70cce1b4597ec1d04b3058c53b2b1b4913e04182e7444d923efede5e60b8b9d50f502a63936cbb1f3cd8cfa3a749003b94d1a47425ef961906bce3b640a37d73ea9f4fe4d6fe91c2fe1bcb7a5d7fbfefb496dcb9be830a93f3ebfcb5f2acd1eb02b1c9b810c717703f9dd21443df98e1aac0cd1ffa9eb92131057a10c87e20b37a296d892cd56063ba7b65fdb04160313df8c337f92c3c1f45e25813929410cfc4533259c80e91e2caea614816556f7723f2fd136d9df022e3536f7b55af575726f32c938bec9d52d19dadda7bc637cebc0baea42f4dcd7fcda0c4ce46916ee510735af7a5358f441c7bf9c6712ae69a033677d9d5a5058c072a8988702a1b4ebc66277b446129b3e7b6b343b89cb958b9ac704348a3bc9d9251567bbe519259214a4a058de3f964342a86bab9363f1c3f1f5fee0a4e945162a85a9d77925aa57387445f62c4f7fdf50242a50b4fda12440456a37d5984049651ff618144273e8df7f43d99083fe39a5fb9c772d42373ea77e560ae406707d1a3fef7f29543cfa709bb7491114e3a2cc3536e87e85e3aa64303ee8063664a15e8ae55346eb22b1a544b3c83e9848550624d3376b677ec9c188a18b5441545b6942d627451a1093f50aece7dbaf86af5eb55e0d67612c573b0c6b93bdf58fd87b150df48216d6641db23c0118f7210f9a2f29b7c7e4a27eefc95fbad263974f8c39d86c643fc787cb95c510d118d4b84ba14b2ab1d5c676bc62d0bd4f3d797d494bbc985198808ae2c44e56fadef07fc5186be2b330e36c0580305151628d9b43293a90f1b51ceb4ea46117c29d735f50f3a1d4e9fa3e69a0262d2b7f955f881408ac9ca8f5597c776b6613091b91e559a4afcb2cd5e71138a4b6ccf48578f582f6a5db60a2553fb116a44632d3d5708d2ea03f3953b91943147db2dd067dc491b891a306a6a8f45e360f75cbe623f9c65085201879c76f791349daba4534623b81f88134ec7082500457867486a932ea03698a825ca9ff44643bd155abd8c0df0219c01dd06af809979283bcf5b0793f8197111ffecd000ffd9bfc597b7717d50b2daec0747d1fa2bc845388f7940a44bc8abe4471802d2ce31ef6a701ea009215f953f5992d1b6d194f5ac7af1029a6d04bce7c587d73e783c0455f53a3468807b18703410124f9eec58352153308ccb48c2a9e9e4461ff83101a90dd2541901e750a2221d61d9049b493ff285e5feed6163fd13f7d3167ad9403551c47c6870da83c839d8c682ceab6cc9de7b6ad02cf27aed47ed3fd7633946bc17d8443821257371f7edef8ffe837b7e804dd6eb8ed88ead05083f1a227298289cece8af42802ff4a8019fd884f35f01f41356632336755c3b3f12d08a2de92acd80627e8a7990190605755c336aa43209e1b0d1840dbfd0f08221b791a4da20dcbd643cf3f6d845caa3303d0a7f32f017cc72ecf577daf16deaa3d0c6b8aedd4c12c7a1c2e3168c9e7212cb61f5c0b58365681f1f6f22384ee2cc1c8db6ea80ba411fcbdca974a4ccfcdda8c761ca62d98d13ef05aae0ff2e7d0ed0b1f76259c757998f70de4cdd46cf8215fe8c38f353486fa97e81558e2e4d3acf25e430b5db078bf612ef1aa44e415584cd4e16a418f2a8abb6a5308cfb5f0175a5bd740775e1672ff2c779811f0cde3c1f13b34662112bcf54cea04f29c569a8a3863623603706cf45760d69cc4810404ae494acbdcedbfcfa6cb675c18f45630ea771a40e346892ae86b618cc51d33783145b4cf696c6dede1c73437566d1cacab55f29977e7613104138e95791ad939be79bcfc5cfb06c32ec12e682d0be6afff8ec3199b9d03d0fc2e6528b351a03c9ac5e484cab5a901551ddcafeb39472c7c1ac1436416d0f84f74f3c4c9d548cc36e46b62f7485181f2870de0967c72d035ddefc10fc5969a45353308b003b38f1000d64798b1712afd8d2b9ce1b14170302b1b04b72d1faf05585e8d0315ab096f4afff3495ce47eada60f0b6764d1482f97752a60555e975027ecda1e3eaa3c04f051e82616283a65c53934bf6a70fac1875724a8bb87a0cf8e438c2621511158c7e4eebdd938a05acf3b8cbba63d5ec85bf6fdaba66507c661a799b977f59eb42c1e2043e594f53f83943fb3ad5036aaa9921c2e19232238281bce80069084541afa8996073f1ec4299e9e25ebc73e315d2f6142b1209220b0893e18bdd2145ff37ea062226314d76787eaab5b8bec2cbd1d6e5e9ebec364e5253b0b9c3c4c8f1f6fc0c25475ba4aaacbfc1c9cbd1d7e3ec01090d282b3148505f67869398aeafbdea0000000000000000000000000000000014202f4001fd210500552b048f9c1bbcd0502825f63c63c594f439e405a17091c3792c4f02e73f84b8b6d8fa78387bb4e551c696fecee2aeadf33644b82cc993fde313ba624352032d22efd4cfe5e2b33981da69b499d170e94ae172e0c37dd0d5dfe15ed91537f1e91342d96a53ea9470d0b0040ca9224c6f09b9013efb199900048a850714d755b38b815a467652c63bde97b9626d48757b6ad34490856f497f93a91e8ec11fcca5178430d9913c64ac7d3dded6a33e0492622e4651f7715238eb501ef74c90c7dcc127647f59d5f5d8bbcc77a2614a95a0f2579859e7420b28571e625352c9f51f9d29fc0d1e5e476f0fe0116f6350b188791c8ca8451f5305b92bba398636f11e0c899ed50cc6ce00036ae0343c9e13945d07cbb5ecdd69ead526ee531e9ab1a4483c9e87482a14417345aa7c7f66cfa79817a6b685bc95c01f11b0b05bf143acede6e76a6591056481f2c54712a11c41d2615610f7e858a73a03013ad92726506860d26208512cc0ed6579a59f298ce5b548a2b81f18cee8a8c81b1ae940f6aaaee12407bd7d43e77f6efaa03f37a4be362e3bd24c2a1f17bff0e5e45fffd3e4cf145e3c30481c598e35017ba7c99e91948eb423afa014c9551dd4cee85bcc9827d365cc1521af48a1df3b2e5a97e18139b3de509a02f4f7c219b57270f7299d2b5cf45a470e2c1e78d77433e66f5788bdc428ee364ad97308d1a48dc0d63ea47d44f326a8124059e8f5bbf166ad00369350c1fbe32ae86b09e801caa1365795ea731b9d9b265ce2197a77e158215527e2ac4af4b5315784d3724908868ab80a71a3b2cc0e8df13610aa60eb7e3e875b75ee7ad1bd291ea28f1c364fc18a6b4a8d8c4b63a2b43d1b4a1456f6df222a53d4c93437e095c01ecc664f599d4253ea1079c3a1f3f4a53a0735f4a265e2210d7e5addc514ee4fe14ffea67d782e401cffd439c5995bf0babc53beab2da52e7a4a10e54d28ea261fcca3aba474547035259287e1e75bd77e7ce3fd9dc528d1d02242ccecb99a58215f054123fd55f02bfa387b8f2dca0522b31ec945325e3338b1d5cdc77f8535cfdf5a11f704e71ae869c5c45dbd963799ea2115ee3a78fed87fc416153124e9dba86c34da654e71a2945d104e18c98dfe9f70a1616a9664ef7505044b7bf854c1b61a35fcd7eb4f178c1f7c5d87deda6e62860d90680874d7e0da715a17f83cbd030ae696e81028d1005ea24cb2d046dd163bcad417c5087905df0629da2435a3326319576d7c927440d5205ae5276964300ab85b5fe3f42fdfe7e0a26208a8881b1471645e7ff612124dca895ab4009fc87b0e6bcabf49a28ab6e99123caf26bd4d221f012839252c503eb7dc69313feb48cfe9374e094221da3c900b44db1da10271ca83e5231788b74809117dda7a55ec396de415243082d7a3c3a265c0f2907f1c78f91e90835f31b2372262e0f34c5394ff31ccb2a50398aef9d7dba24671c07329e8be64820f9aa6ff59ece36871adb9d98559c452873cde2b8bde8474c79acc8940bc51ea17126c0e8b02d890a634c592385b7656c9e5e693d2d6913e18f8a9a52f65e83689dddbdd1ed0290a81acf104496beb84402618d76109bc7255f338e8e38be8087c4ca932fcc496fdbac34e819da128cb02ef63adc36b3aca6b3709fb1b8ebe824320dc4afeb07ee11c1b72e989c2f5f8a35baea4a8d9ef32489f8e44e0550b01433e1ef2defab7ce92bc98ac22aba68649a36b33a1d6c3346cc4707e672c49a5868c21ec3ae6814c8e67f7764da77d0d1f5696af1896b7ef69d546e83a0175d5731a1c7ffa98502ba6008f359f675737c0308d62f71b440707e679354ad59805a3b000000",
  "txid": "3c2acde459e48f4753f4731456528a5750e50e9df2becd24b1c6e1cc48f7996f",
  "hash": "a87702bce9677eba44cd4518effb88a4e34f8efbe5d05abb912481f8e9c615ad",
  "size": 5085,
  "vsize": 2278,
  "version": 1,
  "locktime": 59,
  "vin": [
    {
      "txid": "237197a067b1126927cad84b3b421584043990d5a8a899d4e351cc87851f50e7",
      "vout": 1,
      "scriptSig": {
        "asm": "",
        "hex": ""
      },
      "txinwitness": [
        "727a78d42e554bcc2a8eb3bc4914a3c067710ebc1beb3321e740c3bf474f0bdf43903dd1a2b5f031ac3c89bdca2e3462a740605efef79e8f2e80f86cc40b7ad5ea3964efee4224d67442200ce411cb7835fb42470f6e47f11170b88047f5ad42a1f4fcd3c1e4e5107c6e917eac0c0daa320fa35d2694604b5590f271d73591a1f8f85400120b5cff353cad42d0103f9384a0560bb4a3a2a31a6a3eeef92b8387603a624a766e85198fe5d5ca9f9ae9391dd8c1bf6664751270db801f5302e00119992b73fb07f48116dbc6b96c7c2f4fda2a3859c111d8af36f894b5582194a434b7fe44bbbf8d1a7339ddf0ff48e132e71f2fbfd0cc95658e72a00de945816b74b7c10b187589577a7ef6615451139c3737377d25ddb4d3fe9aadb500e6729db94db4aeed7ef9788820d54d9f0fab78b50a2cb783966e18d99bf6659cd83f26267ab814df345d6a78acbe61f36ac12669fb499f1bf200fe54d13258d3ac21d2190cb4810f061aa6040807f74a89276cb731e65e66527d8004aa1365ea62dd6f25deef6bc5748cde5257cf9c598f20e86453fe9dc7c5ab2c4522f21d79ed1c5d1f9aad28886969395efecaadbf4884825d0dd0a26f471dd23f1b886ab7b08ecc4db19ca952f3b7ebada2960e949c0bbcb9ac651c460908e072000b68e3dcd0b6020831020fc3ddd68d84060dd8258147719ad768cbe2518944fc6751ccbd7823ccc092fc6f5080d0f744877c0a2f133c0af1e993089e0b9dd5e4fdd593ed052be3e2249306007099c944dec994f0e66c3083fed4320bf4c35dbbb9e76948027c45b13958df9f0b513369483b5696783945c3ed812526d2a27df5a7c018e9ee34cc3eea7dcc7582f1ea260385df181ebbfeb68ffa0677de73f72329833c746affc0c26ea012b6d24f2fb84c26e860d17bd8db036ac0335a0b11d56851f4d279d64758432cef12bd642e0ab7eb474a85342cf4a1fbd3e794f950d12876908751ce703aa775e813a98768696c6ad92171cc258314e528cf0cef9245a6ca4472af3b571265a790108432a7ad5143d3fb1f50d2d53500b7d96644fb952d70cce1b4597ec1d04b3058c53b2b1b4913e04182e7444d923efede5e60b8b9d50f502a63936cbb1f3cd8cfa3a749003b94d1a47425ef961906bce3b640a37d73ea9f4fe4d6fe91c2fe1bcb7a5d7fbfefb496dcb9be830a93f3ebfcb5f2acd1eb02b1c9b810c717703f9dd21443df98e1aac0cd1ffa9eb92131057a10c87e20b37a296d892cd56063ba7b65fdb04160313df8c337f92c3c1f45e25813929410cfc4533259c80e91e2caea614816556f7723f2fd136d9df022e3536f7b55af575726f32c938bec9d52d19dadda7bc637cebc0baea42f4dcd7fcda0c4ce46916ee510735af7a5358f441c7bf9c6712ae69a033677d9d5a5058c072a8988702a1b4ebc66277b446129b3e7b6b343b89cb958b9ac704348a3bc9d9251567bbe519259214a4a058de3f964342a86bab9363f1c3f1f5fee0a4e945162a85a9d77925aa57387445f62c4f7fdf50242a50b4fda12440456a37d5984049651ff618144273e8df7f43d99083fe39a5fb9c772d42373ea77e560ae406707d1a3fef7f29543cfa709bb7491114e3a2cc3536e87e85e3aa64303ee8063664a15e8ae55346eb22b1a544b3c83e9848550624d3376b677ec9c188a18b5441545b6942d627451a1093f50aece7dbaf86af5eb55e0d67612c573b0c6b93bdf58fd87b150df48216d6641db23c0118f7210f9a2f29b7c7e4a27eefc95fbad263974f8c39d86c643fc787cb95c510d118d4b84ba14b2ab1d5c676bc62d0bd4f3d797d494bbc985198808ae2c44e56fadef07fc5186be2b330e36c0580305151628d9b43293a90f1b51ceb4ea46117c29d735f50f3a1d4e9fa3e69a0262d2b7f955f881408ac9ca8f5597c776b6613091b91e559a4afcb2cd5e71138a4b6ccf48578f582f6a5db60a2553fb116a44632d3d5708d2ea03f3953b91943147db2dd067dc491b891a306a6a8f45e360f75cbe623f9c65085201879c76f791349daba4534623b81f88134ec7082500457867486a932ea03698a825ca9ff44643bd155abd8c0df0219c01dd06af809979283bcf5b0793f8197111ffecd000ffd9bfc597b7717d50b2daec0747d1fa2bc845388f7940a44bc8abe4471802d2ce31ef6a701ea009215f953f5992d1b6d194f5ac7af1029a6d04bce7c587d73e783c0455f53a3468807b18703410124f9eec58352153308ccb48c2a9e9e4461ff83101a90dd2541901e750a2221d61d9049b493ff285e5feed6163fd13f7d3167ad9403551c47c6870da83c839d8c682ceab6cc9de7b6ad02cf27aed47ed3fd7633946bc17d8443821257371f7edef8ffe837b7e804dd6eb8ed88ead05083f1a227298289cece8af42802ff4a8019fd884f35f01f41356632336755c3b3f12d08a2de92acd80627e8a7990190605755c336aa43209e1b0d1840dbfd0f08221b791a4da20dcbd643cf3f6d845caa3303d0a7f32f017cc72ecf577daf16deaa3d0c6b8aedd4c12c7a1c2e3168c9e7212cb61f5c0b58365681f1f6f22384ee2cc1c8db6ea80ba411fcbdca974a4ccfcdda8c761ca62d98d13ef05aae0ff2e7d0ed0b1f76259c757998f70de4cdd46cf8215fe8c38f353486fa97e81558e2e4d3acf25e430b5db078bf612ef1aa44e415584cd4e16a418f2a8abb6a5308cfb5f0175a5bd740775e1672ff2c779811f0cde3c1f13b34662112bcf54cea04f29c569a8a3863623603706cf45760d69cc4810404ae494acbdcedbfcfa6cb675c18f45630ea771a40e346892ae86b618cc51d33783145b4cf696c6dede1c73437566d1cacab55f29977e7613104138e95791ad939be79bcfc5cfb06c32ec12e682d0be6afff8ec3199b9d03d0fc2e6528b351a03c9ac5e484cab5a901551ddcafeb39472c7c1ac1436416d0f84f74f3c4c9d548cc36e46b62f7485181f2870de0967c72d035ddefc10fc5969a45353308b003b38f1000d64798b1712afd8d2b9ce1b14170302b1b04b72d1faf05585e8d0315ab096f4afff3495ce47eada60f0b6764d1482f97752a60555e975027ecda1e3eaa3c04f051e82616283a65c53934bf6a70fac1875724a8bb87a0cf8e438c2621511158c7e4eebdd938a05acf3b8cbba63d5ec85bf6fdaba66507c661a799b977f59eb42c1e2043e594f53f83943fb3ad5036aaa9921c2e19232238281bce80069084541afa8996073f1ec4299e9e25ebc73e315d2f6142b1209220b0893e18bdd2145ff37ea062226314d76787eaab5b8bec2cbd1d6e5e9ebec364e5253b0b9c3c4c8f1f6fc0c25475ba4aaacbfc1c9cbd1d7e3ec01090d282b3148505f67869398aeafbdea0000000000000000000000000000000014202f4001",
        "00552b048f9c1bbcd0502825f63c63c594f439e405a17091c3792c4f02e73f84b8b6d8fa78387bb4e551c696fecee2aeadf33644b82cc993fde313ba624352032d22efd4cfe5e2b33981da69b499d170e94ae172e0c37dd0d5dfe15ed91537f1e91342d96a53ea9470d0b0040ca9224c6f09b9013efb199900048a850714d755b38b815a467652c63bde97b9626d48757b6ad34490856f497f93a91e8ec11fcca5178430d9913c64ac7d3dded6a33e0492622e4651f7715238eb501ef74c90c7dcc127647f59d5f5d8bbcc77a2614a95a0f2579859e7420b28571e625352c9f51f9d29fc0d1e5e476f0fe0116f6350b188791c8ca8451f5305b92bba398636f11e0c899ed50cc6ce00036ae0343c9e13945d07cbb5ecdd69ead526ee531e9ab1a4483c9e87482a14417345aa7c7f66cfa79817a6b685bc95c01f11b0b05bf143acede6e76a6591056481f2c54712a11c41d2615610f7e858a73a03013ad92726506860d26208512cc0ed6579a59f298ce5b548a2b81f18cee8a8c81b1ae940f6aaaee12407bd7d43e77f6efaa03f37a4be362e3bd24c2a1f17bff0e5e45fffd3e4cf145e3c30481c598e35017ba7c99e91948eb423afa014c9551dd4cee85bcc9827d365cc1521af48a1df3b2e5a97e18139b3de509a02f4f7c219b57270f7299d2b5cf45a470e2c1e78d77433e66f5788bdc428ee364ad97308d1a48dc0d63ea47d44f326a8124059e8f5bbf166ad00369350c1fbe32ae86b09e801caa1365795ea731b9d9b265ce2197a77e158215527e2ac4af4b5315784d3724908868ab80a71a3b2cc0e8df13610aa60eb7e3e875b75ee7ad1bd291ea28f1c364fc18a6b4a8d8c4b63a2b43d1b4a1456f6df222a53d4c93437e095c01ecc664f599d4253ea1079c3a1f3f4a53a0735f4a265e2210d7e5addc514ee4fe14ffea67d782e401cffd439c5995bf0babc53beab2da52e7a4a10e54d28ea261fcca3aba474547035259287e1e75bd77e7ce3fd9dc528d1d02242ccecb99a58215f054123fd55f02bfa387b8f2dca0522b31ec945325e3338b1d5cdc77f8535cfdf5a11f704e71ae869c5c45dbd963799ea2115ee3a78fed87fc416153124e9dba86c34da654e71a2945d104e18c98dfe9f70a1616a9664ef7505044b7bf854c1b61a35fcd7eb4f178c1f7c5d87deda6e62860d90680874d7e0da715a17f83cbd030ae696e81028d1005ea24cb2d046dd163bcad417c5087905df0629da2435a3326319576d7c927440d5205ae5276964300ab85b5fe3f42fdfe7e0a26208a8881b1471645e7ff612124dca895ab4009fc87b0e6bcabf49a28ab6e99123caf26bd4d221f012839252c503eb7dc69313feb48cfe9374e094221da3c900b44db1da10271ca83e5231788b74809117dda7a55ec396de415243082d7a3c3a265c0f2907f1c78f91e90835f31b2372262e0f34c5394ff31ccb2a50398aef9d7dba24671c07329e8be64820f9aa6ff59ece36871adb9d98559c452873cde2b8bde8474c79acc8940bc51ea17126c0e8b02d890a634c592385b7656c9e5e693d2d6913e18f8a9a52f65e83689dddbdd1ed0290a81acf104496beb84402618d76109bc7255f338e8e38be8087c4ca932fcc496fdbac34e819da128cb02ef63adc36b3aca6b3709fb1b8ebe824320dc4afeb07ee11c1b72e989c2f5f8a35baea4a8d9ef32489f8e44e0550b01433e1ef2defab7ce92bc98ac22aba68649a36b33a1d6c3346cc4707e672c49a5868c21ec3ae6814c8e67f7764da77d0d1f5696af1896b7ef69d546e83a0175d5731a1c7ffa98502ba6008f359f675737c0308d62f71b440707e679354ad59805a"
      ],
      "sequence": 4294967294
    }
  ],
  "vout": [
    {
      "value": 499974.5775,
      "n": 0,
      "scriptPubKey": {
        "asm": "1 f2aec19e3866e17d663b7d85010ed398e88695b27a884b86df937189679e5b86",
        "hex": "5120f2aec19e3866e17d663b7d85010ed398e88695b27a884b86df937189679e5b86",
        "reqSigs": 1,
        "type": "witness_v1_scripthash",
        "addresses": [
          "3QJmnh"
        ]
      }
    },
    {
      "value": 1.0,
      "n": 1,
      "scriptPubKey": {
        "asm": "OP_RETURN 27b08709a7f1cd3b9bea9414dad63953777cf1a5645d6d7228494b2ef401166c d50e9143fe56feb7e15f4a9b665ab9c817c594a8435ae325fdd4b5ca636742aaf52eb163de76de97c17f6abb467a99e837e5b488637ac305ddf495ea4347628a954ed103be16bef7a11f0adb261af9885785d4e8031aa365bd94f58a232702eab56ef1239e369ed7813f2afb063ad9a877a5f4c8233a83459db4d5aa030722ca558e11c37ed67e3761dfca1be6da394897451428c3da63a57d54354ae3e7c22a75ae31e35ef65e1741ffea3bc6fa1968b7653408e3fa43855d74156ac3c7e20a15ce51833e963e77219f8a5ba69a7908d7055468839a23e53d14750aa3a7826a35ee71a31eb61e5701bfaa7b86ba5928f7257448a3ba03c51d34552a8387a24ad50e9143fe56feb7e15f4a9b665ab9c817c594a8435ae325fdd4b5ca636742aaf52eb163de76de97c17f6abb467a99e837e5b488637ac305ddf495ea4347628a954ed103be16bef7a11f0adb261af9885785d4e8031aa365bd94f58a232702eab56ef1239e369ed7813f2afb063ad9a877a5f4c8233a83459db4d5aa030722ca558e11c37ed67e3761dfca1be6da394897451428c3da63a57d54354ae3e7c22a75ae31e35ef65e1741ffea3bc6fa1968b7653408e3fa43855d74156ac3c7e20a15ce51833e963e77219f8a5ba69a7908d7055468839a23e53d14750aa3a7826a35ee71a31eb61e5701bfaa7b86ba5928f7257448a3ba03c51d34552a8387a24ad50e9143fe56feb7e15f4a9b665ab9c817c594a8435ae325fdd4b5ca636742aaf52eb163de76de97c17f6abb467a99e837e5b488637ac305ddf495ea4347628a954ed103be16bef7a11f0adb261af9885785d4e8031aa365bd94f58a232702eab56ef1239e369ed7813f2afb063ad9a877a5f4c8233a83459db4d5aa030722ca558e11c37ed67e3761dfca1be6da394897451428c3da63a57d54354ae3e7c22a75ae31e35ef65e1741ffea3bc6fa1968b7653408e3fa43855d74156ac3c7e20a15ce51833e963e77219f8a5ba69a7908d7055468839a23e53d14750aa3a7826a35ee71a31eb61e5701bfaa7b86ba5928f7257448a3ba03c51d34552a8387a24ad50e9143fe56feb7e15f4a9b665ab9c817c594a8435ae325fdd4b5ca636742aaf52eb163de76de97c17f6abb467a99e837e5b488637ac305ddf495ea4347628a954ed103be16bef7a11f0adb261af9885785d4e8031aa365bd94f58a232702eab56ef1239e369ed7813f2afb063ad9a877a5f4c8233a83459db4d5aa030722ca558e11c37ed67e3761dfca1be6da394897451428c3da63a57d54354ae3e7c22a75ae31e35ef65e1741ffea3bc6fa1968b7653408e3fa43855d74156ac3c7e20a15ce51833e963e77219f8a5ba69a7908d7055468839a23e53d14750aa3a7826a35ee71a31eb61e5701bfaa7b86ba5928f7257448a3ba03c51d34552a8387a24ad50e9143fe56feb7e15f4a9b665ab9c817c594a8435ae325fdd4b5ca636742aaf52eb163de76de97c17f6abb467a99e837e5b488637ac305ddf495ea4347628a954ed103be16bef7a11f0adb261af9885785d4e8031aa365bd94f58a232702eab56ef1239e369ed7813f2afb063ad9a877a5f4c8233a83459db4d5aa030722ca558e11c37ed67e3761dfca1be6da394872775426b3e2497ec9423460690ed067caede7412d86f8fa34bf20d8b44e896a",
        "hex": "6a2027b08709a7f1cd3b9bea9414dad63953777cf1a5645d6d7228494b2ef401166c4db004d50e9143fe56feb7e15f4a9b665ab9c817c594a8435ae325fdd4b5ca636742aaf52eb163de76de97c17f6abb467a99e837e5b488637ac305ddf495ea4347628a954ed103be16bef7a11f0adb261af9885785d4e8031aa365bd94f58a232702eab56ef1239e369ed7813f2afb063ad9a877a5f4c8233a83459db4d5aa030722ca558e11c37ed67e3761dfca1be6da394897451428c3da63a57d54354ae3e7c22a75ae31e35ef65e1741ffea3bc6fa1968b7653408e3fa43855d74156ac3c7e20a15ce51833e963e77219f8a5ba69a7908d7055468839a23e53d14750aa3a7826a35ee71a31eb61e5701bfaa7b86ba5928f7257448a3ba03c51d34552a8387a24ad50e9143fe56feb7e15f4a9b665ab9c817c594a8435ae325fdd4b5ca636742aaf52eb163de76de97c17f6abb467a99e837e5b488637ac305ddf495ea4347628a954ed103be16bef7a11f0adb261af9885785d4e8031aa365bd94f58a232702eab56ef1239e369ed7813f2afb063ad9a877a5f4c8233a83459db4d5aa030722ca558e11c37ed67e3761dfca1be6da394897451428c3da63a57d54354ae3e7c22a75ae31e35ef65e1741ffea3bc6fa1968b7653408e3fa43855d74156ac3c7e20a15ce51833e963e77219f8a5ba69a7908d7055468839a23e53d14750aa3a7826a35ee71a31eb61e5701bfaa7b86ba5928f7257448a3ba03c51d34552a8387a24ad50e9143fe56feb7e15f4a9b665ab9c817c594a8435ae325fdd4b5ca636742aaf52eb163de76de97c17f6abb467a99e837e5b488637ac305ddf495ea4347628a954ed103be16bef7a11f0adb261af9885785d4e8031aa365bd94f58a232702eab56ef1239e369ed7813f2afb063ad9a877a5f4c8233a83459db4d5aa030722ca558e11c37ed67e3761dfca1be6da394897451428c3da63a57d54354ae3e7c22a75ae31e35ef65e1741ffea3bc6fa1968b7653408e3fa43855d74156ac3c7e20a15ce51833e963e77219f8a5ba69a7908d7055468839a23e53d14750aa3a7826a35ee71a31eb61e5701bfaa7b86ba5928f7257448a3ba03c51d34552a8387a24ad50e9143fe56feb7e15f4a9b665ab9c817c594a8435ae325fdd4b5ca636742aaf52eb163de76de97c17f6abb467a99e837e5b488637ac305ddf495ea4347628a954ed103be16bef7a11f0adb261af9885785d4e8031aa365bd94f58a232702eab56ef1239e369ed7813f2afb063ad9a877a5f4c8233a83459db4d5aa030722ca558e11c37ed67e3761dfca1be6da394897451428c3da63a57d54354ae3e7c22a75ae31e35ef65e1741ffea3bc6fa1968b7653408e3fa43855d74156ac3c7e20a15ce51833e963e77219f8a5ba69a7908d7055468839a23e53d14750aa3a7826a35ee71a31eb61e5701bfaa7b86ba5928f7257448a3ba03c51d34552a8387a24ad50e9143fe56feb7e15f4a9b665ab9c817c594a8435ae325fdd4b5ca636742aaf52eb163de76de97c17f6abb467a99e837e5b488637ac305ddf495ea4347628a954ed103be16bef7a11f0adb261af9885785d4e8031aa365bd94f58a232702eab56ef1239e369ed7813f2afb063ad9a877a5f4c8233a83459db4d5aa030722ca558e11c37ed67e3761dfca1be6da394872775426b3e2497ec9423460690ed067caede7412d86f8fa34bf20d8b44e896a",
        "type": "nulldata"
      }
    }
  ],
  "blockhash": "0125d69e6984563ac74cb1b0b8601a67b424e71230e7918fa710584dbb11162a",
  "confirmations": 1,
  "time": 1764180090,
  "blocktime": 1764180090
}