{
  "hex": "010000000001015d6dfa7ec576de529a46e1b8c86ac1fa566f2eaa337ccadbb55d6ea6cdb72ec20100000000feffffff02f077b5f0782d00002251200f97b912540f43b0354d41f04482dbc4e2ed81a7fa18f7db36f662831752025700e1f50500000000fdd5046a20b93f5f099c89b34e2f9684e7e0591615cd137d201ce5faeee30fda8e010456d24db004ac22f684ab26c3cfa4ed34e67fd30399884aa75da7977d5a35273f93d522a41f8c02d6a48b06e3ef84cd14c65ff323b9a86a877d87b75d7a15071fb3f502843fec62b6c4eb66838fe4ad74a63f9343d9c80ae71de7d73d1a75677fd39562e45fcc4296e4cb46a3afc48d54861fb363f9e82ac73dc7f71d3a55475ff3b542c47f2ca276042ba6434f246db466ff53831908ca27dd2717fddab5a7bf1355a2249f0c8256240b86636f044d9446df73a33928ea07fd0737ddfa95879f33758204bf6ce236446be6030f642df426bf13c359488a679d6757bd9af5e7ff5315e264df4cc216644bc6232f440dd4069f33e37968aa47bd47779dbad5c7df7335c244ffac22f684ab26c3cfa4ed34e67fd30399884aa75da7977d5a35273f93d522a41f8c02d6a48b06e3ef84cd14c65ff323b9a86a877d87b75d7a15071fb3f502843fec62b6c4eb66838fe4ad74a63f9343d9c80ae71de7d73d1a75677fd39562e45fcc4296e4cb46a3afc48d54861fb363f9e82ac73dc7f71d3a55475ff3b542c47f2ca276042ba6434f246db466ff53831908ca27dd2717fddab5a7bf1355a2249f0c8256240b86636f044d9446df73a33928ea07fd0737ddfa95879f33758204bf6ce236446be6030f642df426bf13c359488a679d6757bd9af5e7ff5315e264df4cc216644bc6232f440dd4069f33e37968aa47bd47779dbad5c7df7335c244ffac22f684ab26c3cfa4ed34e67fd30399884aa75da7977d5a35273f93d522a41f8c02d6a48b06e3ef84cd14c65ff323b9a86a877d87b75d7a15071fb3f502843fec62b6c4eb66838fe4ad74a63f9343d9c80ae71de7d73d1a75677fd39562e45fcc4296e4cb46a3afc48d54861fb363f9e82ac73dc7f71d3a55475ff3b542c47f2ca276042ba6434f246db466ff53831908ca27dd2717fddab5a7bf1355a2249f0c8256240b86636f044d9446df73a33928ea07fd0737ddfa95879f33758204bf6ce236446be6030f642df426bf13c359488a679d6757bd9af5e7ff5315e264df4cc216644bc6232f440dd4069f33e37968aa47bd47779dbad5c7df7335c244ffac22f684ab26c3cfa4ed34e67fd30399884aa75da7977d5a35273f93d522a41f8c02d6a48b06e3ef84cd14c65ff323b9a86a877d87b75d7a15071fb3f502843fec62b6c4eb66838fe4ad74a63f9343d9c80ae71de7d73d1a75677fd39562e45fcc4296e4cb46a3afc48d54861fb363f9e82ac73dc7f71d3a55475ff3b542c47f2ca276042ba6434f246db466ff53831908ca27dd2717fddab5a7bf1355a2249f0c8256240b86636f044d9446df73a33928ea07fd0737ddfa95879f33758204bf6ce236446be6030f642df426bf13c359488a679d6757bd9af5e7ff5315e264df4cc216644bc6232f440dd4069f33e37968aa47bd47779dbad5c7df7335c244ffac22f684ab26c3cfa4ed34e67fd30399884aa75da7977d5a35273f93d522a41f8c02d6a48b06e3ef84cd14c65ff323b9a86a877d87b75d7a15071fb3f502843fec62b6c4eb66838fe4ad74a63f9343d9c80ae71de7d73d1a75677fd39562e45fcc4296e4cb46a3afc48d54861fb363f9e82ac73dc7f71d3a55475ff3b542c47f2ca276042ba6434f246db466ff538319d509672a7dd1c63298671ccb3cbf2ae61c842c423c3d6d31bd4da23dbb5aeae302fd750987c1531d38bff2489e77bccd67da5128f354fe21f7f82da81b332bb49c842eb418b078c80f8ed69a286acd40743a069c7fc1bb4b4d00921977deb776d73931613c877e67715731b2c4e030c55427709f4ed8d4791796b01ffab8f6890dd81d061a2469ac0302276a269e37b78ac9cfc2d806263046b74c484926df31e5a553c1cb182cb1f9dc8230ebf4d1979bd76cb71268e102e57104a5b6ff98da408995b6758e8f6b06ef3ab9c66fd3762177adb80733ce4078ad1967ea2ff5925c5b6c2061013e11eabad9e1a37e7bcdb476cc703d0bfb59868b414d44f7a912b1ceb4541ac14522eb661d9f95e8714544302e05b1f43cd7c97a9438c0c8be0156b58826dfc5dfbaee9908e8624da58490a58c933d223c62b93c2a48bd955c22044fa0efd53920299c336d20ffcce5efa54b7a8c0b570fe0238967e0f82674fd00ed2fb76004039c3863629aaa1ab567eb22dcce15a91e18ee4d8571e930c7e8c122bb2e839f8e96cd6a4a5d70b4ce5c8ed1fb00c372aabf0e62d820be006d54d794675cff5bfe5fa93c134fee30c98d4d6fe8dd022947302e1d4dd6041e8b0bc0aaab7a0f6f48022b190a1aa435a94622adb4ea256ebd6490c266dca4c25014e24516e9d6f6f4c72cd7d523cf17d081ab31d7ca05fe1fc555debe91504acd88c4dcf978b00d434dda1f45c6623e29b60adec821de428ef894ee51eba44acdb7e520ccddf56e7e430182a2ff983193584d6c7a82a96c42d13d7186321f6b767a358c6ed91b1b0738642b69a88cf6da2d04c42d69e6e5ca4258637e45c93e7f74fde40b00ef46c64ea68ece08a04123a629c96665fec69254540aa9744266b22e1e073fea158a9dd89ee4fba7ecd5b3ee0cd8958824265595793ebb6015c8481fde4adcaef427c15ea97f1d20a37f552f689a6ce269713ae44115e1a108db55699c766a2093317ff4f4360e1e31651096b54d80ce3cafdcde2da6ff8a43853b86ef6cc6564a498210479ef37fbb301b9f3a8ae1fdc96faed762898afd1443b44f7078a0cc2a5b68625263e2270b12ab7cbda5843153886b5ae559cbcf41a91576e1c6a10e8c237d332ed431a7765c83d002d43997caf70c569939bfbafb488e5e93d2d7de02fa66f3cc5ee8f16d9e021ea58638164c760c9837f8d3e7087f1e91d44f843928034d5e75fe7ba8008730cd38950333d919e668678e424f9aa265ca9a9e1c664d0138dd90d3e7bc83395a88828dd755d29b9707d36e82b7d3d843df9c5cc0dd9b8d9a3b128b931b062a5c6d16b4d00fc73140381065b4b2f7c40f408b923acf630e0011d14a1c111f3dc751b1cb1a051988ede6d3f04774ebaa7e1306fc4cedc6211c96e6305cdcd20026c4b74972d95a6843a5964c99c3c36b4888f1cbfbc8df06fd618cd8be2864be3c44fce4601fe6398c8d0a3ff06d5d5904f391060ccc1b4cf3344b543fc005e8cdb3e44f942196d887d124592c9073cb32fc5d5bf57edaf4eac4240f648fbc5136d8a5993a79102b80ad37fcb36c54d054d498cd417115e2825d0af2109942e47aa05a6401d02b253fc05952b3de7643c4899051587e0f460b3f2d5aa506009a4c43455dddb27557a60a12d7687dfbe3ee193904c00f00c4f633d95eb3fc09e2e9f5d6671964c9789fc8d7ecf1b524f45c72b441afe98028524aae589fa93a83b5b55448f24097256627b70c66ffa7888c74a1fda3aa412984ef92acd2dc7181342f0a8494e8120d199757ee90a07274a7f7b89fc9b4c4e5036cb0a6469cd249a6a80c0c5e07f69db6c26e25c3788600d418d7e42068f0f25f47280f307c3bcfdfcf1313e0e406010df17096c302f8381f1f98b357285f24df77591073f315e4d2a9c8b4730d4a1f57abce9b965a08983612b79339361b4bde15cc5cf486977ab20d9e3666529d80ea16d305095d9b33fbac41e0f1193733a07b380d56cc056aa8062a45562ed6daaf52d582e8d3ff22fa62eb8f19b40085869057597c6dc5c089ad3a5cfa8c1a1be91d73453eb33bc34c1e896112763977fe1dc9ce0ab92d47550ee54d8edf6cdc9c0834b5459cd2794b08d8262345eaf6222e1fd8df61f4f228c2e1bf21950746d72354faed71db7e774f0e6a718f760630ce3b19b5b5ed025a2e024ec862aaa617daf663230ab6bce66ac6c093cd39494323ba59a8375d575d72970eb7b2f0fc08be10a8ca7bddc6b58311960e3d25dcf9b39cd08abde60f58f8a651491b2e678490281ccd94e96e10caad566ecb63182ad35fe575934a87816d3c627a7b904f97aeeff9be6f7c4e412c2b23783750dcb5cf673c4fc2a8d1ffb0174d18cc2074cd6b64d7258f0dce3f54e91db894deba2b001b099ab7d70ac802393177cbff79c5c1252ad7d0faa82f1c2231e104c83d9b0b67eb464f84989066168e08baaee24d12a888f954f34ab93df6a7de977e72b53c11532d7921c2e36a32e144118628b9ede5021e44c3695c5adf1d1e5b4aae64b1ea98c75825d45582c8c4432670fe980805b1e0efd5aef24e997d5a012dc020e3eb6a5d2dd16485c140f69302aa863c88380ec92e731a9e0716b776102666c0ed82ec27d0f59d6bae45ed4a46a1e695493c93fd0a8de459c92627c3010bcde2c52a2771d2ca9b10fa798a288adb8686973d9b6862b7b70e88f19d39270815ea197848f2dc7a44d9474fde7ab0bbcf5dec0907166a36ac7de6845c8d42c19e5d90078793063e52ba611fa924a6eb3519c5120115370cc99fa90df45c7d96156daad8ad8dc7756656f4e6395e5f7f0caad824c607d85d398135c3ae3ddf62561a7fcbe87d86d3bca45c18559c5cef145e766d1080c1c21aedbc3d01228f8509f3a05d416c863147d43afad8846e2e016eac2c15ee2c6688c81fd26bd3c257b41abdd028cf8914d6bfa9becfa32be6bab6fa827e14044a33c6de3810855d5ed168cf7edbdd7f9f69bd7a066117a54ea11f2514d1824e2f8ffa9f8c3fd679efbbbafa4f4c920d343d2353bdef45e771ac09fa557cc4906165c97b036760c933bd2947beb2c9f9e547af3c26cab61bd86c76bb7095f692b02dfdf95357fe17711197d2a119752db2d3d03eefdb816da5d9b26f1b946ceeaa4ac81e939aa7a20a31cd12f0faed974c4a19a128c588f2ee0d1531cde8499332b5e93dff3a2d313c15e215f309e4498e4b8c45b7c105868a03cf3556800c0f43cd16da8765bf838619f112000bbeb0c5cde3e147f9b45614f5868e266bc79596e772bb0ff6f2ceee0d372fd80ec056f73ef9fd5d486035c5c989b08b91a0409604e473000bc361080b0e151e26416474757685b1c6ddf5021b202a484b4f65888f9fa8b1c6ccd6d9e3ea0002224b545e819cb2c2c5cee4f3f5fbff3a3b3f51647a95b5bcc3c9ccef0000000000000000000000000000001023344101fd210500e9c437292506bcb5ab178e09144d8af561307d55462ac80adec149fdb28281ddcecf888b1031b7f980c6b2746040d92956fe6d919c61f346f8107f45e02b539005ccf79364499f8d90a1aba20e0423f4480a4f61f05b8047c189bab63c25a51212f04c9e6f67a742939d93f51eec107c6c49c8610451af89e9e3c5a614fabd9a1c881c8aaadb799927d8e36ca7a289c00ac7830d632aa135bbfe5bb0c0fa745f610f4910a57d3b988728cee7028adee8a280fd9de9d042b6ff6ccdb6273f637d453e18bc6fbe54ec3dc04720a1c74ee4b7579563ea5e56fc654e9eb12cca85c04a87eef55711776c920775daf0399ab83dbe21a76255f4a7923e4dd716c34c3e57a28bcddf6be8fe52104ac9416b0e8caed1a86c023887b627f6ea17dc7bdea113771cb7d2659dc3d6615b741ce9cc38ac3418eefed64b0a98489a11f5d7f9e1fac8499cf1e2155c066f40acc5293081d1e735d9f127cff549ff4129cdabd09047d79f526b18df6ada20ee080fe7f0f8828fff5792ccbf84ed08286cac891646d2176dfdf9b43f8da2a63df6a3cf936663f2deb370993477925ddc14a5116432557cd729d914928fb9cd1636bda0eb71dceb9da761592a48ecda8fe3446b641b09010d35f1e2b1f5c316941e0421d4ac2724433f81ea173644d491e7e36b2b67a96393c081556cd08a1ab54c2371da3be49f875f0318f2436a916b4fd17c43cd3662a9ceb5d067611e6436d58d36176451c5433e86c21613da6e984e1243dccd651002cdb3312744b3171b7b51ed88bf67ba6aae7c9092bfff83f40e717c9c9f0ba0f6a410723bf3bdfe23aca05a1a2bff15394f70f31051f8a7ef789dac5aee3ebdb6f1ab1ee2e5f8df1989f91e004630da1bf946ac0a9377794fe3e719b754cc5359b1c3267fac660f64ebec8328e059e240ab08868f8625e80add8f16a51e8cf36f21defbb0fa26fa18826f2fbbc9f073536367b24fccacea12cc00772e3bb4beac6bc80f629242bdc82f050bf1f7a18429038aa1712abec22c7426916a3cb8ec797e9bae9994a19454f36bc29c83131cfba415faeed4549edea1f523940e65dfe88fadccf137b3906cbd46859ff7a51c7f1ff968afd6600177233036454d44d5167d12e8047671021911ef527b74da2d14c0e1675c077d402a1d8aacd5fcdb7f68db8ffe6b0b025c1372af11857ed88a7d616af428db14586102c9fd829bc2ac4f7dec23328540e56b8d0b3fac9a760a2eff9925fd159f5eb59d09efa9d02bee5634aabd1af0c01ab675482e8c6fd1c48dc18731bfb2b209dae43d7667b7e49edeac2d933062c53186a3913053ddf49840014c1971c76a72679d0d559c172f97bd09ad841ec85110f673ae7edffbfab9490f183ed440e5eba73e8da0aabbdf70ef33bea83d4fb60be247775cf53f339ff67b7e22e6abd7493542cd07a6b0daa4be727e3e16529cbdae351f9dfcee45ecc5b5817462e06f632534206e4c5ad343e90e6254beb66f94c4eb6755068dd57806abc83950397ab300512f917a59c5b85adafc3458acecf3432a8f8acfea3d66daac0a98d15c7f9d07226a3aca0e6f0ecf89240feae5eb27f7e7e22ef8e5d85f724f14979d6d4c5560816828cb79d4a40d1d4a508bc831d9cc1259a1fba203f14e9606d4dbae988ee4a1a2c40624ee66b51b1ae2d8ef2ff0d86c98c7cbe2b63fe2031cf1b10d97d98615882fef849abbd95729765b1517f8c3c0ad2a65b0245a606721370a6dab218b772d05dd563184fb1d48768b31ac5f28ca2d82f79bd3a6ea9c548f9b4a2037987d4dbabb59810b9f270f26a3b6080d9a6ce69ba6b6485af8ab09d12c78417edb5ada5bc74d7b000000",
  "txid": "3236bad4b8f8aa69865155d0b2f1e41a3252d02580a338bccef7624a1e4375f2",
  "hash": "ee6f399f1f9627e1d3ba6bb47902b0de2680f7457dae0f2380d42d1d333ba736",
  "size": 5085,
  "vsize": 2278,
  "version": 1,
  "locktime": 123,
  "vin": [
    {
      "txid": "c22eb7cda66e5db5dbca7c33aa2e6f56fac16ac8b8e1469a52de76c57efa6d5d",
      "vout": 1,
      "scriptSig": {
        "asm": "",
        "hex": ""
      },
      "txinwitness": [
        "87c1531d38bff2489e77bccd67da5128f354fe21f7f82da81b332bb49c842eb418b078c80f8ed69a286acd40743a069c7fc1bb4b4d00921977deb776d73931613c877e67715731b2c4e030c55427709f4ed8d4791796b01ffab8f6890dd81d061a2469ac0302276a269e37b78ac9cfc2d806263046b74c484926df31e5a553c1cb182cb1f9dc8230ebf4d1979bd76cb71268e102e57104a5b6ff98da408995b6758e8f6b06ef3ab9c66fd3762177adb80733ce4078ad1967ea2ff5925c5b6c2061013e11eabad9e1a37e7bcdb476cc703d0bfb59868b414d44f7a912b1ceb4541ac14522eb661d9f95e8714544302e05b1f43cd7c97a9438c0c8be0156b58826dfc5dfbaee9908e8624da58490a58c933d223c62b93c2a48bd955c22044fa0efd53920299c336d20ffcce5efa54b7a8c0b570fe0238967e0f82674fd00ed2fb76004039c3863629aaa1ab567eb22dcce15a91e18ee4d8571e930c7e8c122bb2e839f8e96cd6a4a5d70b4ce5c8ed1fb00c372aabf0e62d820be006d54d794675cff5bfe5fa93c134fee30c98d4d6fe8dd022947302e1d4dd6041e8b0bc0aaab7a0f6f48022b190a1aa435a94622adb4ea256ebd6490c266dca4c25014e24516e9d6f6f4c72cd7d523cf17d081ab31d7ca05fe1fc555debe91504acd88c4dcf978b00d434dda1f45c6623e29b60adec821de428ef894ee51eba44acdb7e520ccddf56e7e430182a2ff983193584d6c7a82a96c42d13d7186321f6b767a358c6ed91b1b0738642b69a88cf6da2d04c42d69e6e5ca4258637e45c93e7f74fde40b00ef46c64ea68ece08a04123a629c96665fec69254540aa9744266b22e1e073fea158a9dd89ee4fba7ecd5b3ee0cd8958824265595793ebb6015c8481fde4adcaef427c15ea97f1d20a37f552f689a6ce269713ae44115e1a108db55699c766a2093317ff4f4360e1e31651096b54d80ce3cafdcde2da6ff8a43853b86ef6cc6564a498210479ef37fbb301b9f3a8ae1fdc96faed762898afd1443b44f7078a0cc2a5b68625263e2270b12ab7cbda5843153886b5ae559cbcf41a91576e1c6a10e8c237d332ed431a7765c83d002d43997caf70c569939bfbafb488e5e93d2d7de02fa66f3cc5ee8f16d9e021ea58638164c760c9837f8d3e7087f1e91d44f843928034d5e75fe7ba8008730cd38950333d919e668678e424f9aa265ca9a9e1c664d0138dd90d3e7bc83395a88828dd755d29b9707d36e82b7d3d843df9c5cc0dd9b8d9a3b128b931b062a5c6d16b4d00fc73140381065b4b2f7c40f408b923acf630e0011d14a1c111f3dc751b1cb1a051988ede6d3f04774ebaa7e1306fc4cedc6211c96e6305cdcd20026c4b74972d95a6843a5964c99c3c36b4888f1cbfbc8df06fd618cd8be2864be3c44fce4601fe6398c8d0a3ff06d5d5904f391060ccc1b4cf3344b543fc005e8cdb3e44f942196d887d124592c9073cb32fc5d5bf57edaf4eac4240f648fbc5136d8a5993a79102b80ad37fcb36c54d054d498cd417115e2825d0af2109942e47aa05a6401d02b253fc05952b3de7643c4899051587e0f460b3f2d5aa506009a4c43455dddb27557a60a12d7687dfbe3ee193904c00f00c4f633d95eb3fc09e2e9f5d6671964c9789fc8d7ecf1b524f45c72b441afe98028524aae589fa93a83b5b55448f24097256627b70c66ffa7888c74a1fda3aa412984ef92acd2dc7181342f0a8494e8120d199757ee90a07274a7f7b89fc9b4c4e5036cb0a6469cd249a6a80c0c5e07f69db6c26e25c3788600d418d7e42068f0f25f47280f307c3bcfdfcf1313e0e406010df17096c302f8381f1f98b357285f24df77591073f315e4d2a9c8b4730d4a1f57abce9b965a08983612b79339361b4bde15cc5cf486977ab20d9e3666529d80ea16d305095d9b33fbac41e0f1193733a07b380d56cc056aa8062a45562ed6daaf52d582e8d3ff22fa62eb8f19b40085869057597c6dc5c089ad3a5cfa8c1a1be91d73453eb33bc34c1e896112763977fe1dc9ce0ab92d47550ee54d8edf6cdc9c0834b5459cd2794b08d8262345eaf6222e1fd8df61f4f228c2e1bf21950746d72354faed71db7e774f0e6a718f760630ce3b19b5b5ed025a2e024ec862aaa617daf663230ab6bce66ac6c093cd39494323ba59a8375d575d72970eb7b2f0fc08be10a8ca7bddc6b58311960e3d25dcf9b39cd08abde60f58f8a651491b2e678490281ccd94e96e10caad566ecb63182ad35fe575934a87816d3c627a7b904f97aeeff9be6f7c4e412c2b23783750dcb5cf673c4fc2a8d1ffb0174d18cc2074cd6b64d7258f0dce3f54e91db894deba2b001b099ab7d70ac802393177cbff79c5c1252ad7d0faa82f1c2231e104c83d9b0b67eb464f84989066168e08baaee24d12a888f954f34ab93df6a7de977e72b53c11532d7921c2e36a32e144118628b9ede5021e44c3695c5adf1d1e5b4aae64b1ea98c75825d45582c8c4432670fe980805b1e0efd5aef24e997d5a012dc020e3eb6a5d2dd16485c140f69302aa863c88380ec92e731a9e0716b776102666c0ed82ec27d0f59d6bae45ed4a46a1e695493c93fd0a8de459c92627c3010bcde2c52a2771d2ca9b10fa798a288adb8686973d9b6862b7b70e88f19d39270815ea197848f2dc7a44d9474fde7ab0bbcf5dec0907166a36ac7de6845c8d42c19e5d90078793063e52ba611fa924a6eb3519c5120115370cc99fa90df45c7d96156daad8ad8dc7756656f4e6395e5f7f0caad824c607d85d398135c3ae3ddf62561a7fcbe87d86d3bca45c18559c5cef145e766d1080c1c21aedbc3d01228f8509f3a05d416c863147d43afad8846e2e016eac2c15ee2c6688c81fd26bd3c257b41abdd028cf8914d6bfa9becfa32be6bab6fa827e14044a33c6de3810855d5ed168cf7edbdd7f9f69bd7a066117a54ea11f2514d1824e2f8ffa9f8c3fd679efbbbafa4f4c920d343d2353bdef45e771ac09fa557cc4906165c97b036760c933bd2947beb2c9f9e547af3c26cab61bd86c76bb7095f692b02dfdf95357fe17711197d2a119752db2d3d03eefdb816da5d9b26f1b946ceeaa4ac81e939aa7a20a31cd12f0faed974c4a19a128c588f2ee0d1531cde8499332b5e93dff3a2d313c15e215f309e4498e4b8c45b7c105868a03cf3556800c0f43cd16da8765bf838619f112000bbeb0c5cde3e147f9b45614f5868e266bc79596e772bb0ff6f2ceee0d372fd80ec056f73ef9fd5d486035c5c989b08b91a0409604e473000bc361080b0e151e26416474757685b1c6ddf5021b202a484b4f65888f9fa8b1c6ccd6d9e3ea0002224b545e819cb2c2c5cee4f3f5fbff3a3b3f51647a95b5bcc3c9ccef0000000000000000000000000000001023344101",
        "00e9c437292506bcb5ab178e09144d8af561307d55462ac80adec149fdb28281ddcecf888b1031b7f980c6b2746040d92956fe6d919c61f346f8107f45e02b539005ccf79364499f8d90a1aba20e0423f4480a4f61f05b8047c189bab63c25a51212f04c9e6f67a742939d93f51eec107c6c49c8610451af89e9e3c5a614fabd9a1c881c8aaadb799927d8e36ca7a289c00ac7830d632aa135bbfe5bb0c0fa745f610f4910a57d3b988728cee7028adee8a280fd9de9d042b6ff6ccdb6273f637d453e18bc6fbe54ec3dc04720a1c74ee4b7579563ea5e56fc654e9eb12cca85c04a87eef55711776c920775daf0399ab83dbe21a76255f4a7923e4dd716c34c3e57a28bcddf6be8fe52104ac9416b0e8caed1a86c023887b627f6ea17dc7bdea113771cb7d2659dc3d6615b741ce9cc38ac3418eefed64b0a98489a11f5d7f9e1fac8499cf1e2155c066f40acc5293081d1e735d9f127cff549ff4129cdabd09047d79f526b18df6ada20ee080fe7f0f8828fff5792ccbf84ed08286cac891646d2176dfdf9b43f8da2a63df6a3cf936663f2deb370993477925ddc14a5116432557cd729d914928fb9cd1636bda0eb71dceb9da761592a48ecda8fe3446b641b09010d35f1e2b1f5c316941e0421d4ac2724433f81ea173644d491e7e36b2b67a96393c081556cd08a1ab54c2371da3be49f875f0318f2436a916b4fd17c43cd3662a9ceb5d067611e6436d58d36176451c5433e86c21613da6e984e1243dccd651002cdb3312744b3171b7b51ed88bf67ba6aae7c9092bfff83f40e717c9c9f0ba0f6a410723bf3bdfe23aca05a1a2bff15394f70f31051f8a7ef789dac5aee3ebdb6f1ab1ee2e5f8df1989f91e004630da1bf946ac0a9377794fe3e719b754cc5359b1c3267fac660f64ebec8328e059e240ab08868f8625e80add8f16a51e8cf36f21defbb0fa26fa18826f2fbbc9f073536367b24fccacea12cc00772e3bb4beac6bc80f629242bdc82f050bf1f7a18429038aa1712abec22c7426916a3cb8ec797e9bae9994a19454f36bc29c83131cfba415faeed4549edea1f523940e65dfe88fadccf137b3906cbd46859ff7a51c7f1ff968afd6600177233036454d44d5167d12e8047671021911ef527b74da2d14c0e1675c077d402a1d8aacd5fcdb7f68db8ffe6b0b025c1372af11857ed88a7d616af428db14586102c9fd829bc2ac4f7dec23328540e56b8d0b3fac9a760a2eff9925fd159f5eb59d09efa9d02bee5634aabd1af0c01ab675482e8c6fd1c48dc18731bfb2b209dae43d7667b7e49edeac2d933062c53186a3913053ddf49840014c1971c76a72679d0d559c172f97bd09ad841ec85110f673ae7edffbfab9490f183ed440e5eba73e8da0aabbdf70ef33bea83d4fb60be247775cf53f339ff67b7e22e6abd7493542cd07a6b0daa4be727e3e16529cbdae351f9dfcee45ecc5b5817462e06f632534206e4c5ad343e90e6254beb66f94c4eb6755068dd57806abc83950397ab300512f917a59c5b85adafc3458acecf3432a8f8acfea3d66daac0a98d15c7f9d07226a3aca0e6f0ecf89240feae5eb27f7e7e22ef8e5d85f724f14979d6d4c5560816828cb79d4a40d1d4a508bc831d9cc1259a1fba203f14e9606d4dbae988ee4a1a2c40624ee66b51b1ae2d8ef2ff0d86c98c7cbe2b63fe2031cf1b10d97d98615882fef849abbd95729765b1517f8c3c0ad2a65b0245a606721370a6dab218b772d05dd563184fb1d48768b31ac5f28ca2d82f79bd3a6ea9c548f9b4a2037987d4dbabb59810b9f270f26a3b6080d9a6ce69ba6b6485af8ab09d12c78417edb5ada5bc74d"
      ],
      "sequence": 4294967294
    }
  ],
  "vout": [
    {
      "value": 499974.5775,
      "n": 0,
      "scriptPubKey": {
        "asm": "1 0f97b912540f43b0354d41f04482dbc4e2ed81a7fa18f7db36f6628317520257",
        "hex": "51200f97b912540f43b0354d41f04482dbc4e2ed81a7fa18f7db36f6628317520257",
        "reqSigs": 1,
        "type": "witness_v1_scripthash",
        "addresses": [
          "3QJmnh"
        ]
      }
    },
    {
      "value": 1.0,
      "n": 1,
      "scriptPubKey": {
        "asm": "OP_RETURN b93f5f099c89b34e2f9684e7e0591615cd137d201ce5faeee30fda8e010456d2 ac22f684ab26c3cfa4ed34e67fd30399884aa75da7977d5a35273f93d522a41f8c02d6a48b06e3ef84cd14c65ff323b9a86a877d87b75d7a15071fb3f502843fec62b6c4eb66838fe4ad74a63f9343d9c80ae71de7d73d1a75677fd39562e45fcc4296e4cb46a3afc48d54861fb363f9e82ac73dc7f71d3a55475ff3b542c47f2ca276042ba6434f246db466ff53831908ca27dd2717fddab5a7bf1355a2249f0c8256240b86636f044d9446df73a33928ea07fd0737ddfa95879f33758204bf6ce236446be6030f642df426bf13c359488a679d6757bd9af5e7ff5315e264df4cc216644bc6232f440dd4069f33e37968aa47bd47779dbad5c7df7335c244ffac22f684ab26c3cfa4ed34e67fd30399884aa75da7977d5a35273f93d522a41f8c02d6a48b06e3ef84cd14c65ff323b9a86a877d87b75d7a15071fb3f502843fec62b6c4eb66838fe4ad74a63f9343d9c80ae71de7d73d1a75677fd39562e45fcc4296e4cb46a3afc48d54861fb363f9e82ac73dc7f71d3a55475ff3b542c47f2ca276042ba6434f246db466ff53831908ca27dd2717fddab5a7bf1355a2249f0c8256240b86636f044d9446df73a33928ea07fd0737ddfa95879f33758204bf6ce236446be6030f642df426bf13c359488a679d6757bd9af5e7ff5315e264df4cc216644bc6232f440dd4069f33e37968aa47bd47779dbad5c7df7335c244ffac22f684ab26c3cfa4ed34e67fd30399884aa75da7977d5a35273f93d522a41f8c02d6a48b06e3ef84cd14c65ff323b9a86a877d87b75d7a15071fb3f502843fec62b6c4eb66838fe4ad74a63f9343d9c80ae71de7d73d1a75677fd39562e45fcc4296e4cb46a3afc48d54861fb363f9e82ac73dc7f71d3a55475ff3b542c47f2ca276042ba6434f246db466ff53831908ca27dd2717fddab5a7bf1355a2249f0c8256240b86636f044d9446df73a33928ea07fd0737ddfa95879f33758204bf6ce236446be6030f642df426bf13c359488a679d6757bd9af5e7ff5315e264df4cc216644bc6232f440dd4069f33e37968aa47bd47779dbad5c7df7335c244ffac22f684ab26c3cfa4ed34e67fd30399884aa75da7977d5a35273f93d522a41f8c02d6a48b06e3ef84cd14c65ff323b9a86a877d87b75d7a15071fb3f502843fec62b6c4eb66838fe4ad74a63f9343d9c80ae71de7d73d1a75677fd39562e45fcc4296e4cb46a3afc48d54861fb363f9e82ac73dc7f71d3a55475ff3b542c47f2ca276042ba6434f246db466ff53831908ca27dd2717fddab5a7bf1355a2249f0c8256240b86636f044d9446df73a33928ea07fd0737ddfa95879f33758204bf6ce236446be6030f642df426bf13c359488a679d6757bd9af5e7ff5315e264df4cc216644bc6232f440dd4069f33e37968aa47bd47779dbad5c7df7335c244ffac22f684ab26c3cfa4ed34e67fd30399884aa75da7977d5a35273f93d522a41f8c02d6a48b06e3ef84cd14c65ff323b9a86a877d87b75d7a15071fb3f502843fec62b6c4eb66838fe4ad74a63f9343d9c80ae71de7d73d1a75677fd39562e45fcc4296e4cb46a3afc48d54861fb363f9e82ac73dc7f71d3a55475ff3b542c47f2ca276042ba6434f246db466ff538319d509672a7dd1c63298671ccb3cbf2ae61c842c423c3d6d31bd4da23dbb5aeae3",
        "hex": "6a20b93f5f099c89b34e2f9684e7e0591615cd137d201ce5faeee30fda8e010456d24db004ac22f684ab26c3cfa4ed34e67fd30399884aa75da7977d5a35273f93d522a41f8c02d6a48b06e3ef84cd14c65ff323b9a86a877d87b75d7a15071fb3f502843fec62b6c4eb66838fe4ad74a63f9343d9c80ae71de7d73d1a75677fd39562e45fcc4296e4cb46a3afc48d54861fb363f9e82ac73dc7f71d3a55475ff3b542c47f2ca276042ba6434f246db466ff53831908ca27dd2717fddab5a7bf1355a2249f0c8256240b86636f044d9446df73a33928ea07fd0737ddfa95879f33758204bf6ce236446be6030f642df426bf13c359488a679d6757bd9af5e7ff5315e264df4cc216644bc6232f440dd4069f33e37968aa47bd47779dbad5c7df7335c244ffac22f684ab26c3cfa4ed34e67fd30399884aa75da7977d5a35273f93d522a41f8c02d6a48b06e3ef84cd14c65ff323b9a86a877d87b75d7a15071fb3f502843fec62b6c4eb66838fe4ad74a63f9343d9c80ae71de7d73d1a75677fd39562e45fcc4296e4cb46a3afc48d54861fb363f9e82ac73dc7f71d3a55475ff3b542c47f2ca276042ba6434f246db466ff53831908ca27dd2717fddab5a7bf1355a2249f0c8256240b86636f044d9446df73a33928ea07fd0737ddfa95879f33758204bf6ce236446be6030f642df426bf13c359488a679d6757bd9af5e7ff5315e264df4cc216644bc6232f440dd4069f33e37968aa47bd47779dbad5c7df7335c244ffac22f684ab26c3cfa4ed34e67fd30399884aa75da7977d5a35273f93d522a41f8c02d6a48b06e3ef84cd14c65ff323b9a86a877d87b75d7a15071fb3f502843fec62b6c4eb66838fe4ad74a63f9343d9c80ae71de7d73d1a75677fd39562e45fcc4296e4cb46a3afc48d54861fb363f9e82ac73dc7f71d3a55475ff3b542c47f2ca276042ba6434f246db466ff53831908ca27dd2717fddab5a7bf1355a2249f0c8256240b86636f044d9446df73a33928ea07fd0737ddfa95879f33758204bf6ce236446be6030f642df426bf13c359488a679d6757bd9af5e7ff5315e264df4cc216644bc6232f440dd4069f33e37968aa47bd47779dbad5c7df7335c244ffac22f684ab26c3cfa4ed34e67fd30399884aa75da7977d5a35273f93d522a41f8c02d6a48b06e3ef84cd14c65ff323b9a86a877d87b75d7a15071fb3f502843fec62b6c4eb66838fe4ad74a63f9343d9c80ae71de7d73d1a75677fd39562e45fcc4296e4cb46a3afc48d54861fb363f9e82ac73dc7f71d3a55475ff3b542c47f2ca276042ba6434f246db466ff53831908ca27dd2717fddab5a7bf1355a2249f0c8256240b86636f044d9446df73a33928ea07fd0737ddfa95879f33758204bf6ce236446be6030f642df426bf13c359488a679d6757bd9af5e7ff5315e264df4cc216644bc6232f440dd4069f33e37968aa47bd47779dbad5c7df7335c244ffac22f684ab26c3cfa4ed34e67fd30399884aa75da7977d5a35273f93d522a41f8c02d6a48b06e3ef84cd14c65ff323b9a86a877d87b75d7a15071fb3f502843fec62b6c4eb66838fe4ad74a63f9343d9c80ae71de7d73d1a75677fd39562e45fcc4296e4cb46a3afc48d54861fb363f9e82ac73dc7f71d3a55475ff3b542c47f2ca276042ba6434f246db466ff538319d509672a7dd1c63298671ccb3cbf2ae61c842c423c3d6d31bd4da23dbb5aeae3",
        "type": "nulldata"
      }
    }
  ],
  "blockhash": "3f7b66b34673dd56727b9b27d02dfa4f8333ff75e8b72ddccb546061f2a7d063",
  "confirmations": 1,
  "time": 1764180681,
  "blocktime": 1764180681
}