{
  "hex": "01000000000101cf618e9c99857dc869d0b7fb3f0f93f3a09791765b69b81fff8760e2938449a90100000000feffffff0200e1f50500000000fdd5046a20f69de46916f1278706fa52edbab793be1ce169e9f8ae9312d761402a9b48b21a4db004e1cd7fea7b662b3b61406d834112105c9ff431e8a6c62e8f649ef2febfd4bb29c1ed5fca5b460b1b41604da36132307cbfd411c886e60eaf44bed2de9ff49b09a18d3faa3b266b7b21002dc30152501cdfb471a8e6866ecf24deb2beff94fb6981ad1f8a1b064b5b01200de32172703cff945188c6a64eef04fe929edfb4db49614dff6afbe6abbbe1c0ed03c19290dc1f74b1682646ae0fe41e727e3f543ba9416ddf4adbc68b9bc1e0cd23e1b2b0fc3f54914806668e2fc43e525e1f741b89210dbf2abba6ebfba180ad4381d2d09c5f34f1286606ee4fa45e323e7f147be9012d9f0a9b86cbdb81a08d63a1f2f0bc7f14d1084626ce6f847e121e5f345bc9e1cd7fea7b662b3b61406d834112105c9ff431e8a6c62e8f649ef2febfd4bb29c1ed5fca5b460b1b41604da36132307cbfd411c886e60eaf44bed2de9ff49b09a18d3faa3b266b7b21002dc30152501cdfb471a8e6866ecf24deb2beff94fb6981ad1f8a1b064b5b01200de32172703cff945188c6a64eef04fe929edfb4db49614dff6afbe6abbbe1c0ed03c19290dc1f74b1682646ae0fe41e727e3f543ba9416ddf4adbc68b9bc1e0cd23e1b2b0fc3f54914806668e2fc43e525e1f741b89210dbf2abba6ebfba180ad4381d2d09c5f34f1286606ee4fa45e323e7f147be9012d9f0a9b86cbdb81a08d63a1f2f0bc7f14d1084626ce6f847e121e5f345bc9e1cd7fea7b662b3b61406d834112105c9ff431e8a6c62e8f649ef2febfd4bb29c1ed5fca5b460b1b41604da36132307cbfd411c886e60eaf44bed2de9ff49b09a18d3faa3b266b7b21002dc30152501cdfb471a8e6866ecf24deb2beff94fb6981ad1f8a1b064b5b01200de32172703cff945188c6a64eef04fe929edfb4db49614dff6afbe6abbbe1c0ed03c19290dc1f74b1682646ae0fe41e727e3f543ba9416ddf4adbc68b9bc1e0cd23e1b2b0fc3f54914806668e2fc43e525e1f741b89210dbf2abba6ebfba180ad4381d2d09c5f34f1286606ee4fa45e323e7f147be9012d9f0a9b86cbdb81a08d63a1f2f0bc7f14d1084626ce6f847e121e5f345bc9e1cd7fea7b662b3b61406d834112105c9ff431e8a6c62e8f649ef2febfd4bb29c1ed5fca5b460b1b41604da36132307cbfd411c886e60eaf44bed2de9ff49b09a18d3faa3b266b7b21002dc30152501cdfb471a8e6866ecf24deb2beff94fb6981ad1f8a1b064b5b01200de32172703cff945188c6a64eef04fe929edfb4db49614dff6afbe6abbbe1c0ed03c19290dc1f74b1682646ae0fe41e727e3f543ba9416ddf4adbc68b9bc1e0cd23e1b2b0fc3f54914806668e2fc43e525e1f741b89210dbf2abba6ebfba180ad4381d2d09c5f34f1286606ee4fa45e323e7f147be9012d9f0a9b86cbdb81a08d63a1f2f0bc7f14d1084626ce6f847e121e5f345bc9e1cd7fea7b662b3b61406d834112105c9ff431e8a6c62e8f649ef2febfd4bb29c1ed5fca5b460b1b41604da36132307cbfd411c886e60eaf44bed2de9ff49b09a18d3faa3b266b7b21002dc30152501cdfb471a8e6866ecf24deb2beff94fb6981ad1f8a1b064b5b01200de32172703cff945188c6a64eef04fe929edfb4db49614dff6afbe6abbbe1c0ed03c19290dcade61de0b4e2f8c8a84279f00eb41c83cfa9d777e33ee4181795580841384c846076a04b792d00002251201af4d98ba603f380be14b98c6c8f28cb6acb8eb6980fff212ae80f642d5056ee02fd750903af8398bf7c1db76099583e7a620043108c6f40e5399d30fc7ac4e7897ff842d1f5c0a18a15a15ae3f2bbea25270eab832fbb9dc1b7a347383bc6f96054f7b4ec15abfe9309673a3e84298bac2cb67c5c1cec348ad61e9e8d1e123edc390ad9e0398ac0ffc7918db6bd8ae15d7c3d951e68b8c2304c02f78418a61b42520db258c0907ea97f11c3c1f7f043104ed422a132a5031d178fba619f3efaedf7c463860d2d0c2f63a25740d237a34319bc1544869b96e7203e05148be73319fdeb8148482c30f37d796b123b01087a3be4291689524a008e4d699c356624a7e9263743e11d5bd3fe36c0ef91aeade57d312480090ef186ba375a8eb35720c64fc77975895984a6d5503a79c64a9d2b7b226b92bb334719ba91e8bff179e75551ad4970b930f7401e5b67f59c33eec045b1ccd5376b2d7285a0b51c9b507382227f82e59d4cd9f04ced55991517b6b7b2a0458dd0e88b3a46ba3a06815b897971f39dcbf9214e72300185ef1a0ca0c06de6ea75481950484ce75c0e934d0b7a6f26f0761b677ed0651651f72a6cb27e6e30632d262cb31576a0904e34e8c9c6f48b21fead669dcb610858485d1fb449cd96987035081ae9332c7622b116319360f77b8a8c09723097e2867ea04e54fc1c8957a65950edcc89bfd52079f46da8347568f1dee5de2598f748f7f498a2cde915423ffbe81e3aec2ee1b5bf2383367f09288c8c653b385afb1f5ec831ec51ca887eaccec2d7a038c1f128b680b36644d63ddf09a8e4fc6fddd5a895b121705344246b2a5c06829f05da433ac83a8ade51ab614abfb627dc7306d2abcaca001715b04f878ecffc23a82aea59017dd79c20f0bb473d7ec7c9c8426d32be6f9efbe496b98324abc3a0c80631def570caccf168cb2ab9d344d9a4e8a10fb3affecb5ef82776218de797b6deccb3adf47830e858635631e1eb89dcc1c0bd5eac4316535e4cd0f9222deeb3d9523df878ba92270699b2d512e933e7dd680f9153c1d88701744bb4ad857a2e1d4e2caeded79ac080eb98aecc3d36c71771ef9e1b6f3e84d5eb991b4feddb540514ef650b74f664431481e3f6cca99dd2a5161db5859659621488752436911ff2eb4de2cc4a5cccc498d38da8b04039dc3f04282b18fef34922548f46e721c93ba200a73abf0666b2dbfc70302343c0f541c4e4dff26aea7222af28e9020b78c13bd6edc5adba9ab41d1de953d8c43ca9f825c8e8404c06124ca9e3665fa6c6144ba01220e7323197c914cc3b20ed471c88f7258d7587aab8569f2822bbc23350f0212fbb9f7351bcc154b7ff53035442692a3fbb533f5579b0f52865c83a7ed3a451e928bb9444a14f70b8ce98efe04beff5e890e145772ae47e2b530fb31fceb447883fde2e0658bb10bba08afe036050a1cd0dd2c48edec65b0a47ad3dad341021ead8ab07f22096bd53dac98fabaa8687988f5ee9d4199790682591c6a356d91f8f4aae193918dda07cae790cee305837d65ff402a4edeba92cb4315bca2e2475ee753a284d7282b39f48b6eefab1e219c90b1ffecf9d4a2e2b3289c71f42eb4736e754af50270cb4cf844eaaf4a510d200dec2ff0be989a529a3674717614148a7aaf3292f0a352af97c453c0076c46c7ebee95ab83e937f2bbf55a8dbc77d7a432ecf6af53074fed3a00d485a3e968300dd3e1e6dd794282709fc25dc1d74f6e6eefe8071cb38f996b24edf4091b8c1bb9ce02d68d3adca0c70095c167c7410a704e3b1af8328f40bebbcff9b650825f7097991abcb6381198540cf33a4465b54d8e3bedbe868273b720c207d43dfb4fe7a933afe55bae4c4e2d7b537ca29ca5c36fe59cebd22dcb6c72d813c9b8e5444ab67c70f19342e370debcbeb7def046ebce0316359f42f58d4c71da84faab9823b9d9987e3a71bb35d2f762f38b4ada12fc7cc65da238b38044fbdfe8f185608e1b1b1b6acb8af08ffc237f813365dd67e4b545aa76c05ed802fe2c080ceaca06080c8aecd32f1b4e6040386576df1b2623d08fafd11bfb284c1f981cee0061f4e5d5868e7d714062ae99b3ef363fdf091578578ef190f53dbe83f20fc3bffcfac8ff32ce63751c8bb797f9ff23d7a9b9f893228a71b7f36c12f61f85047970eee2292ea5c2149379f17952555405c7b905ecc3493c395e4bf3cbaf2b2efd2b62fdc319e98dbf2220f60130a5062be9b8f29d7a0c9aec4120abda5a3d02751a8bc4867686bfa7181618da631ad9437cb724811fe61d7181094c2fea2aa975de37407c9aeb644c8f9ff0e4aa8360216526a05f5ca14d5e2179419bbdc37f40134fc3260fc34f6aee680ec4bb94ea0aa41b62d8c46adad7ef98ac6ef3976620800ba681f16269c39b1e660f9c9c5266757651f02351e29c3e744bd0e409f0a508aa516dfa6e77b0de3d68cafc8c30ddf529f2fa8e8fa422a18fa79c1b5a22ca451be389281141d1ea0ca3a8294e59f16061425a2168c86306cf69a6481fffafc93c4984ff3147a833cabd823377c2622b03f91ecad4c44cd387eb3768d9d18d326f6ba172da7cfb6e7ab016802441d37422bc0b0172b2f77bbe71cce46806e5a1e35d32a9ef6ef74429a2ee25e3a903045386e0c8338da9f075598af22834f57dd646be199dc9f80e0593a8f58ec4f91b89d64c58fa4edbbf6414203102dd902316d0dca9b95726155feec95e1b24fe21922b4a1aa9f82462f04943ad5d2bf625446693b3036d71f322a6ac7ccddf608876b7a3214cc66a56e6fbadb9df0f948b5a12238c0fcdea4b44a2d51c3e98bd1f06da6f3461ca9def4c6de4755e304eb1c94ccf58b2cecc8c87bb46401aad3d7e457c3b8f806bd42f2da4ea19a96a39e6574fd3c5d15b41d543379fcdc7f95d138e8e0626763ee5c509042e7675f7e6771369dbe43444a6bd46f27bc7917d3e5dee4531dca439714f4927c716b3b30b6bd16ccf56b6ad94ed2cd05ce652cbde7feef0c76f94a42a256e54a5afa3a071f8123966d437523b7a9fa1a7cb3019e85d3c5a7a9b7567326c46c171bee14eb151e82b7967787aba21c30bba9bccd27bd0d8d2c3162a95c876f0042ec4049f14321e669c0d87f65f002efbf7e9b243cd4c2ab13cb9bb1dff78a525b6c86941aed56e9b9dae41a7d640ae79af5b01bbbf4bfa15a60dd1f51f417b2745f6821f822b93cc1a3816853e981fb1ea60ea5b3e91971dbce7712a4d4e400481e7066720937401ea3da7d722f8599145c89937931eb361deb4973ce00015d4d4fc646b9437631a104de3da8714a4f7687d18caa798a6690daed6a0a171f346d8fa0aab6c5ced4dce9fd23425180888991a5bcc9d3d8e3fa05131e29485a6a71848db1ee08292b445a6f85a0a8f1f5f60000000000000000000000000000000000000000000000000000000f1d293501fd2105007fb0f8be9f887250455900fcd66f9496c6a17701010b3deaf40a18855abf4af4d6d8c79998c60fc9f8b2a06489b50d58c39ece941a45d287d163d20ca54d455600e97fff9a2a06da466f3307ee85f62dc159502fcf4e350c61e065962141c861ef8537c9e9a60282ea49b6c603c5bfe27ccf7a7ff0fe5377d4fa56c31bc32e0c43ceb2cb409be642b75cf7b3dd2396f378b0c9e8883ae9d0e3f3f78c0c71354defec2d674e50ae5879728fcc4d188524f76bcac0bdd0519f6e63f0bb0318a6292fd65cf58c3365ffdb2813d0fe74f687b652367d216e114835706e4f3483bc9aa90cd89f4d1d8659eab9840455bf7390014ee96c00f8143e4e8faced1b82ba193ea39ea3a8f25c8d090b978190bcd8b1a40cd5dddaaa823e2fad5edc05a23b75d97a1d902309bd80de559ae24e56969067b889256723bc6e4013ad0ff5f5c7736008bac589dc7942596f221fea53d7265ca5c298dbe8c2d93d8819f29a0a8585a49ac443f2eead738ac64b8321ef060300472810e4dd305321b43c99c9c6799594a87dbaff03e5185c024d191ed3507f0154effcf7a886ea9ffaa3f6d0618c83a9db926e5ee8488f7ffbb67d437ecb74c802203d6cc00b40e08f59ef4928272f85c28de061274a81edba140767edbffe5a867de386198a5f7f3e7e20f38f9457dd9ec6ca71f2114bf06e759458a7861fc82d06c65160fd858ef47c640361bcfd568ebebd6ad1d0b76768ad3d939636fd70ba96e70f3a832090b3c702bf031b0d423dd867e5be440eb8495db6b797c8a4f0d7c9c5564fbb7fe92d8774795b9e2ae5004ffcbe57ec15cc3724a18d53b5b57b63a8130083429ef05d6c3ff1208566490b641631d9520b98363bf44fce75c496c598cade9f9af300bd366f6e8b72d217db10bf156fe9461bdb290602a1e61765b5b4bd084d57183b896d571e9249a3a1c7c68b2dfbd4fc4da443e2d3bb2e0245dac9e49ca5543a7204806ef7c767122b46730832283aa7b6a0f7c14407d9a06fb135f34c74316f368b889c70892ef3e011c8f38e59716fd0cc342bd2d329fb2d5df28dce2111a92966297859f5ae548598335a4d3342aa385680ef450a2792a305e8b7b2f3fc1ff37a0ac0640e5d1c17c0648c30837e3fca5bd59cc678dff873706fbbcce0dd3677e20e0749f91e0c70ff44a58b643018460380da78c2e74d044c6bda78d8a0783c008f50a95bec83bef92aaaa3234e4a5b6a8e4a338a34266054503eb009b57079102a19f8a3e4811b31f42e3eb54293b6a532b7fda795d2580899b566d4a8f63a246e958a5fd5fe5e2d1f7df7fb25fa1b312a0e4e1907943d544daa5dfd22eb1c1cd9f789f673e7c25530336f192378673c42fe9088059bbad4b042b685509a84e988c56d97161ee322bedd769760e06c741062bbfc5188d34c363f470f58f338b9ea95bd7f86965f03418a4254fc8127e53f2388e6b3e879412ee6e7ae909df0fa13bec53eeab57c81586402fe65cd364b2e83917d9e4840e0bc62d1fbb91fc48b3b7b07dd82c70519fa2310aaf1cef9f676336e58e368c8891023720a3a384512f4582ccd64d0fd314565eb41d0c5ef805e0532699a9c8e4983683731d772646c0189a1907e06c1ddf1aecef1af121d2a824d142ff28a14d8f95ae7c75f5af2ed4d7cbfe8a2eb27d9d2af47315e97c17e2240f5d21f81563cad4ac57d970c45c49710a9904ba7aa27cda5b0d5be8aeaadf36a6ac430784fc53c63d9dba3cbe8d002db7bb4e723f11a2fed3e1c75fc9d215333971ce7f56f67056ab437cc9c4cd45b99fa08ebee2759ed544f6d00c8035eedcf6f4e2b9545e5511d8db1b4c6ad38f047c6205d0f70000000",
  "txid": "3fc22a52aeafa69e35d566036bc5b27fd532705035926e548b0ac5192d96ca58",
  "hash": "2055f4ab379f8476d327f10b0f41ec7a12d2367e0388d2ca9d4f217e8a7cd804",
  "size": 5085,
  "vsize": 2278,
  "version": 1,
  "locktime": 112,
  "vin": [
    {
      "txid": "a9498493e26087ff1fb8695b769197a0f3930f3ffbb7d069c87d85999c8e61cf",
      "vout": 1,
      "scriptSig": {
        "asm": "",
        "hex": ""
      },
      "txinwitness": [
        "03af8398bf7c1db76099583e7a620043108c6f40e5399d30fc7ac4e7897ff842d1f5c0a18a15a15ae3f2bbea25270eab832fbb9dc1b7a347383bc6f96054f7b4ec15abfe9309673a3e84298bac2cb67c5c1cec348ad61e9e8d1e123edc390ad9e0398ac0ffc7918db6bd8ae15d7c3d951e68b8c2304c02f78418a61b42520db258c0907ea97f11c3c1f7f043104ed422a132a5031d178fba619f3efaedf7c463860d2d0c2f63a25740d237a34319bc1544869b96e7203e05148be73319fdeb8148482c30f37d796b123b01087a3be4291689524a008e4d699c356624a7e9263743e11d5bd3fe36c0ef91aeade57d312480090ef186ba375a8eb35720c64fc77975895984a6d5503a79c64a9d2b7b226b92bb334719ba91e8bff179e75551ad4970b930f7401e5b67f59c33eec045b1ccd5376b2d7285a0b51c9b507382227f82e59d4cd9f04ced55991517b6b7b2a0458dd0e88b3a46ba3a06815b897971f39dcbf9214e72300185ef1a0ca0c06de6ea75481950484ce75c0e934d0b7a6f26f0761b677ed0651651f72a6cb27e6e30632d262cb31576a0904e34e8c9c6f48b21fead669dcb610858485d1fb449cd96987035081ae9332c7622b116319360f77b8a8c09723097e2867ea04e54fc1c8957a65950edcc89bfd52079f46da8347568f1dee5de2598f748f7f498a2cde915423ffbe81e3aec2ee1b5bf2383367f09288c8c653b385afb1f5ec831ec51ca887eaccec2d7a038c1f128b680b36644d63ddf09a8e4fc6fddd5a895b121705344246b2a5c06829f05da433ac83a8ade51ab614abfb627dc7306d2abcaca001715b04f878ecffc23a82aea59017dd79c20f0bb473d7ec7c9c8426d32be6f9efbe496b98324abc3a0c80631def570caccf168cb2ab9d344d9a4e8a10fb3affecb5ef82776218de797b6deccb3adf47830e858635631e1eb89dcc1c0bd5eac4316535e4cd0f9222deeb3d9523df878ba92270699b2d512e933e7dd680f9153c1d88701744bb4ad857a2e1d4e2caeded79ac080eb98aecc3d36c71771ef9e1b6f3e84d5eb991b4feddb540514ef650b74f664431481e3f6cca99dd2a5161db5859659621488752436911ff2eb4de2cc4a5cccc498d38da8b04039dc3f04282b18fef34922548f46e721c93ba200a73abf0666b2dbfc70302343c0f541c4e4dff26aea7222af28e9020b78c13bd6edc5adba9ab41d1de953d8c43ca9f825c8e8404c06124ca9e3665fa6c6144ba01220e7323197c914cc3b20ed471c88f7258d7587aab8569f2822bbc23350f0212fbb9f7351bcc154b7ff53035442692a3fbb533f5579b0f52865c83a7ed3a451e928bb9444a14f70b8ce98efe04beff5e890e145772ae47e2b530fb31fceb447883fde2e0658bb10bba08afe036050a1cd0dd2c48edec65b0a47ad3dad341021ead8ab07f22096bd53dac98fabaa8687988f5ee9d4199790682591c6a356d91f8f4aae193918dda07cae790cee305837d65ff402a4edeba92cb4315bca2e2475ee753a284d7282b39f48b6eefab1e219c90b1ffecf9d4a2e2b3289c71f42eb4736e754af50270cb4cf844eaaf4a510d200dec2ff0be989a529a3674717614148a7aaf3292f0a352af97c453c0076c46c7ebee95ab83e937f2bbf55a8dbc77d7a432ecf6af53074fed3a00d485a3e968300dd3e1e6dd794282709fc25dc1d74f6e6eefe8071cb38f996b24edf4091b8c1bb9ce02d68d3adca0c70095c167c7410a704e3b1af8328f40bebbcff9b650825f7097991abcb6381198540cf33a4465b54d8e3bedbe868273b720c207d43dfb4fe7a933afe55bae4c4e2d7b537ca29ca5c36fe59cebd22dcb6c72d813c9b8e5444ab67c70f19342e370debcbeb7def046ebce0316359f42f58d4c71da84faab9823b9d9987e3a71bb35d2f762f38b4ada12fc7cc65da238b38044fbdfe8f185608e1b1b1b6acb8af08ffc237f813365dd67e4b545aa76c05ed802fe2c080ceaca06080c8aecd32f1b4e6040386576df1b2623d08fafd11bfb284c1f981cee0061f4e5d5868e7d714062ae99b3ef363fdf091578578ef190f53dbe83f20fc3bffcfac8ff32ce63751c8bb797f9ff23d7a9b9f893228a71b7f36c12f61f85047970eee2292ea5c2149379f17952555405c7b905ecc3493c395e4bf3cbaf2b2efd2b62fdc319e98dbf2220f60130a5062be9b8f29d7a0c9aec4120abda5a3d02751a8bc4867686bfa7181618da631ad9437cb724811fe61d7181094c2fea2aa975de37407c9aeb644c8f9ff0e4aa8360216526a05f5ca14d5e2179419bbdc37f40134fc3260fc34f6aee680ec4bb94ea0aa41b62d8c46adad7ef98ac6ef3976620800ba681f16269c39b1e660f9c9c5266757651f02351e29c3e744bd0e409f0a508aa516dfa6e77b0de3d68cafc8c30ddf529f2fa8e8fa422a18fa79c1b5a22ca451be389281141d1ea0ca3a8294e59f16061425a2168c86306cf69a6481fffafc93c4984ff3147a833cabd823377c2622b03f91ecad4c44cd387eb3768d9d18d326f6ba172da7cfb6e7ab016802441d37422bc0b0172b2f77bbe71cce46806e5a1e35d32a9ef6ef74429a2ee25e3a903045386e0c8338da9f075598af22834f57dd646be199dc9f80e0593a8f58ec4f91b89d64c58fa4edbbf6414203102dd902316d0dca9b95726155feec95e1b24fe21922b4a1aa9f82462f04943ad5d2bf625446693b3036d71f322a6ac7ccddf608876b7a3214cc66a56e6fbadb9df0f948b5a12238c0fcdea4b44a2d51c3e98bd1f06da6f3461ca9def4c6de4755e304eb1c94ccf58b2cecc8c87bb46401aad3d7e457c3b8f806bd42f2da4ea19a96a39e6574fd3c5d15b41d543379fcdc7f95d138e8e0626763ee5c509042e7675f7e6771369dbe43444a6bd46f27bc7917d3e5dee4531dca439714f4927c716b3b30b6bd16ccf56b6ad94ed2cd05ce652cbde7feef0c76f94a42a256e54a5afa3a071f8123966d437523b7a9fa1a7cb3019e85d3c5a7a9b7567326c46c171bee14eb151e82b7967787aba21c30bba9bccd27bd0d8d2c3162a95c876f0042ec4049f14321e669c0d87f65f002efbf7e9b243cd4c2ab13cb9bb1dff78a525b6c86941aed56e9b9dae41a7d640ae79af5b01bbbf4bfa15a60dd1f51f417b2745f6821f822b93cc1a3816853e981fb1ea60ea5b3e91971dbce7712a4d4e400481e7066720937401ea3da7d722f8599145c89937931eb361deb4973ce00015d4d4fc646b9437631a104de3da8714a4f7687d18caa798a6690daed6a0a171f346d8fa0aab6c5ced4dce9fd23425180888991a5bcc9d3d8e3fa05131e29485a6a71848db1ee08292b445a6f85a0a8f1f5f60000000000000000000000000000000000000000000000000000000f1d293501",
        "007fb0f8be9f887250455900fcd66f9496c6a17701010b3deaf40a18855abf4af4d6d8c79998c60fc9f8b2a06489b50d58c39ece941a45d287d163d20ca54d455600e97fff9a2a06da466f3307ee85f62dc159502fcf4e350c61e065962141c861ef8537c9e9a60282ea49b6c603c5bfe27ccf7a7ff0fe5377d4fa56c31bc32e0c43ceb2cb409be642b75cf7b3dd2396f378b0c9e8883ae9d0e3f3f78c0c71354defec2d674e50ae5879728fcc4d188524f76bcac0bdd0519f6e63f0bb0318a6292fd65cf58c3365ffdb2813d0fe74f687b652367d216e114835706e4f3483bc9aa90cd89f4d1d8659eab9840455bf7390014ee96c00f8143e4e8faced1b82ba193ea39ea3a8f25c8d090b978190bcd8b1a40cd5dddaaa823e2fad5edc05a23b75d97a1d902309bd80de559ae24e56969067b889256723bc6e4013ad0ff5f5c7736008bac589dc7942596f221fea53d7265ca5c298dbe8c2d93d8819f29a0a8585a49ac443f2eead738ac64b8321ef060300472810e4dd305321b43c99c9c6799594a87dbaff03e5185c024d191ed3507f0154effcf7a886ea9ffaa3f6d0618c83a9db926e5ee8488f7ffbb67d437ecb74c802203d6cc00b40e08f59ef4928272f85c28de061274a81edba140767edbffe5a867de386198a5f7f3e7e20f38f9457dd9ec6ca71f2114bf06e759458a7861fc82d06c65160fd858ef47c640361bcfd568ebebd6ad1d0b76768ad3d939636fd70ba96e70f3a832090b3c702bf031b0d423dd867e5be440eb8495db6b797c8a4f0d7c9c5564fbb7fe92d8774795b9e2ae5004ffcbe57ec15cc3724a18d53b5b57b63a8130083429ef05d6c3ff1208566490b641631d9520b98363bf44fce75c496c598cade9f9af300bd366f6e8b72d217db10bf156fe9461bdb290602a1e61765b5b4bd084d57183b896d571e9249a3a1c7c68b2dfbd4fc4da443e2d3bb2e0245dac9e49ca5543a7204806ef7c767122b46730832283aa7b6a0f7c14407d9a06fb135f34c74316f368b889c70892ef3e011c8f38e59716fd0cc342bd2d329fb2d5df28dce2111a92966297859f5ae548598335a4d3342aa385680ef450a2792a305e8b7b2f3fc1ff37a0ac0640e5d1c17c0648c30837e3fca5bd59cc678dff873706fbbcce0dd3677e20e0749f91e0c70ff44a58b643018460380da78c2e74d044c6bda78d8a0783c008f50a95bec83bef92aaaa3234e4a5b6a8e4a338a34266054503eb009b57079102a19f8a3e4811b31f42e3eb54293b6a532b7fda795d2580899b566d4a8f63a246e958a5fd5fe5e2d1f7df7fb25fa1b312a0e4e1907943d544daa5dfd22eb1c1cd9f789f673e7c25530336f192378673c42fe9088059bbad4b042b685509a84e988c56d97161ee322bedd769760e06c741062bbfc5188d34c363f470f58f338b9ea95bd7f86965f03418a4254fc8127e53f2388e6b3e879412ee6e7ae909df0fa13bec53eeab57c81586402fe65cd364b2e83917d9e4840e0bc62d1fbb91fc48b3b7b07dd82c70519fa2310aaf1cef9f676336e58e368c8891023720a3a384512f4582ccd64d0fd314565eb41d0c5ef805e0532699a9c8e4983683731d772646c0189a1907e06c1ddf1aecef1af121d2a824d142ff28a14d8f95ae7c75f5af2ed4d7cbfe8a2eb27d9d2af47315e97c17e2240f5d21f81563cad4ac57d970c45c49710a9904ba7aa27cda5b0d5be8aeaadf36a6ac430784fc53c63d9dba3cbe8d002db7bb4e723f11a2fed3e1c75fc9d215333971ce7f56f67056ab437cc9c4cd45b99fa08ebee2759ed544f6d00c8035eedcf6f4e2b9545e5511d8db1b4c6ad38f047c6205d0f"
      ],
      "sequence": 4294967294
    }
  ],
  "vout": [
    {
      "value": 1.0,
      "n": 0,
      "scriptPubKey": {
        "asm": "OP_RETURN f69de46916f1278706fa52edbab793be1ce169e9f8ae9312d761402a9b48b21a e1cd7fea7b662b3b61406d834112105c9ff431e8a6c62e8f649ef2febfd4bb29c1ed5fca5b460b1b41604da36132307cbfd411c886e60eaf44bed2de9ff49b09a18d3faa3b266b7b21002dc30152501cdfb471a8e6866ecf24deb2beff94fb6981ad1f8a1b064b5b01200de32172703cff945188c6a64eef04fe929edfb4db49614dff6afbe6abbbe1c0ed03c19290dc1f74b1682646ae0fe41e727e3f543ba9416ddf4adbc68b9bc1e0cd23e1b2b0fc3f54914806668e2fc43e525e1f741b89210dbf2abba6ebfba180ad4381d2d09c5f34f1286606ee4fa45e323e7f147be9012d9f0a9b86cbdb81a08d63a1f2f0bc7f14d1084626ce6f847e121e5f345bc9e1cd7fea7b662b3b61406d834112105c9ff431e8a6c62e8f649ef2febfd4bb29c1ed5fca5b460b1b41604da36132307cbfd411c886e60eaf44bed2de9ff49b09a18d3faa3b266b7b21002dc30152501cdfb471a8e6866ecf24deb2beff94fb6981ad1f8a1b064b5b01200de32172703cff945188c6a64eef04fe929edfb4db49614dff6afbe6abbbe1c0ed03c19290dc1f74b1682646ae0fe41e727e3f543ba9416ddf4adbc68b9bc1e0cd23e1b2b0fc3f54914806668e2fc43e525e1f741b89210dbf2abba6ebfba180ad4381d2d09c5f34f1286606ee4fa45e323e7f147be9012d9f0a9b86cbdb81a08d63a1f2f0bc7f14d1084626ce6f847e121e5f345bc9e1cd7fea7b662b3b61406d834112105c9ff431e8a6c62e8f649ef2febfd4bb29c1ed5fca5b460b1b41604da36132307cbfd411c886e60eaf44bed2de9ff49b09a18d3faa3b266b7b21002dc30152501cdfb471a8e6866ecf24deb2beff94fb6981ad1f8a1b064b5b01200de32172703cff945188c6a64eef04fe929edfb4db49614dff6afbe6abbbe1c0ed03c19290dc1f74b1682646ae0fe41e727e3f543ba9416ddf4adbc68b9bc1e0cd23e1b2b0fc3f54914806668e2fc43e525e1f741b89210dbf2abba6ebfba180ad4381d2d09c5f34f1286606ee4fa45e323e7f147be9012d9f0a9b86cbdb81a08d63a1f2f0bc7f14d1084626ce6f847e121e5f345bc9e1cd7fea7b662b3b61406d834112105c9ff431e8a6c62e8f649ef2febfd4bb29c1ed5fca5b460b1b41604da36132307cbfd411c886e60eaf44bed2de9ff49b09a18d3faa3b266b7b21002dc30152501cdfb471a8e6866ecf24deb2beff94fb6981ad1f8a1b064b5b01200de32172703cff945188c6a64eef04fe929edfb4db49614dff6afbe6abbbe1c0ed03c19290dc1f74b1682646ae0fe41e727e3f543ba9416ddf4adbc68b9bc1e0cd23e1b2b0fc3f54914806668e2fc43e525e1f741b89210dbf2abba6ebfba180ad4381d2d09c5f34f1286606ee4fa45e323e7f147be9012d9f0a9b86cbdb81a08d63a1f2f0bc7f14d1084626ce6f847e121e5f345bc9e1cd7fea7b662b3b61406d834112105c9ff431e8a6c62e8f649ef2febfd4bb29c1ed5fca5b460b1b41604da36132307cbfd411c886e60eaf44bed2de9ff49b09a18d3faa3b266b7b21002dc30152501cdfb471a8e6866ecf24deb2beff94fb6981ad1f8a1b064b5b01200de32172703cff945188c6a64eef04fe929edfb4db49614dff6afbe6abbbe1c0ed03c19290dcade61de0b4e2f8c8a84279f00eb41c83cfa9d777e33ee4181795580841384c84",
        "hex": "6a20f69de46916f1278706fa52edbab793be1ce169e9f8ae9312d761402a9b48b21a4db004e1cd7fea7b662b3b61406d834112105c9ff431e8a6c62e8f649ef2febfd4bb29c1ed5fca5b460b1b41604da36132307cbfd411c886e60eaf44bed2de9ff49b09a18d3faa3b266b7b21002dc30152501cdfb471a8e6866ecf24deb2beff94fb6981ad1f8a1b064b5b01200de32172703cff945188c6a64eef04fe929edfb4db49614dff6afbe6abbbe1c0ed03c19290dc1f74b1682646ae0fe41e727e3f543ba9416ddf4adbc68b9bc1e0cd23e1b2b0fc3f54914806668e2fc43e525e1f741b89210dbf2abba6ebfba180ad4381d2d09c5f34f1286606ee4fa45e323e7f147be9012d9f0a9b86cbdb81a08d63a1f2f0bc7f14d1084626ce6f847e121e5f345bc9e1cd7fea7b662b3b61406d834112105c9ff431e8a6c62e8f649ef2febfd4bb29c1ed5fca5b460b1b41604da36132307cbfd411c886e60eaf44bed2de9ff49b09a18d3faa3b266b7b21002dc30152501cdfb471a8e6866ecf24deb2beff94fb6981ad1f8a1b064b5b01200de32172703cff945188c6a64eef04fe929edfb4db49614dff6afbe6abbbe1c0ed03c19290dc1f74b1682646ae0fe41e727e3f543ba9416ddf4adbc68b9bc1e0cd23e1b2b0fc3f54914806668e2fc43e525e1f741b89210dbf2abba6ebfba180ad4381d2d09c5f34f1286606ee4fa45e323e7f147be9012d9f0a9b86cbdb81a08d63a1f2f0bc7f14d1084626ce6f847e121e5f345bc9e1cd7fea7b662b3b61406d834112105c9ff431e8a6c62e8f649ef2febfd4bb29c1ed5fca5b460b1b41604da36132307cbfd411c886e60eaf44bed2de9ff49b09a18d3faa3b266b7b21002dc30152501cdfb471a8e6866ecf24deb2beff94fb6981ad1f8a1b064b5b01200de32172703cff945188c6a64eef04fe929edfb4db49614dff6afbe6abbbe1c0ed03c19290dc1f74b1682646ae0fe41e727e3f543ba9416ddf4adbc68b9bc1e0cd23e1b2b0fc3f54914806668e2fc43e525e1f741b89210dbf2abba6ebfba180ad4381d2d09c5f34f1286606ee4fa45e323e7f147be9012d9f0a9b86cbdb81a08d63a1f2f0bc7f14d1084626ce6f847e121e5f345bc9e1cd7fea7b662b3b61406d834112105c9ff431e8a6c62e8f649ef2febfd4bb29c1ed5fca5b460b1b41604da36132307cbfd411c886e60eaf44bed2de9ff49b09a18d3faa3b266b7b21002dc30152501cdfb471a8e6866ecf24deb2beff94fb6981ad1f8a1b064b5b01200de32172703cff945188c6a64eef04fe929edfb4db49614dff6afbe6abbbe1c0ed03c19290dc1f74b1682646ae0fe41e727e3f543ba9416ddf4adbc68b9bc1e0cd23e1b2b0fc3f54914806668e2fc43e525e1f741b89210dbf2abba6ebfba180ad4381d2d09c5f34f1286606ee4fa45e323e7f147be9012d9f0a9b86cbdb81a08d63a1f2f0bc7f14d1084626ce6f847e121e5f345bc9e1cd7fea7b662b3b61406d834112105c9ff431e8a6c62e8f649ef2febfd4bb29c1ed5fca5b460b1b41604da36132307cbfd411c886e60eaf44bed2de9ff49b09a18d3faa3b266b7b21002dc30152501cdfb471a8e6866ecf24deb2beff94fb6981ad1f8a1b064b5b01200de32172703cff945188c6a64eef04fe929edfb4db49614dff6afbe6abbbe1c0ed03c19290dcade61de0b4e2f8c8a84279f00eb41c83cfa9d777e33ee4181795580841384c84",
        "type": "nulldata"
      }
    },
    {
      "value": 499989.831,
      "n": 1,
      "scriptPubKey": {
        "asm": "1 1af4d98ba603f380be14b98c6c8f28cb6acb8eb6980fff212ae80f642d5056ee",
        "hex": "51201af4d98ba603f380be14b98c6c8f28cb6acb8eb6980fff212ae80f642d5056ee",
        "reqSigs": 1,
        "type": "witness_v1_scripthash",
        "addresses": [
          "3QJmnh"
        ]
      }
    }
  ],
  "blockhash": "0588000bb82f4b14ca9e4626330a5c84a7bb9e1c31fd2ade5c3732d80cc4fd85",
  "confirmations": 1,
  "time": 1764178356,
  "blocktime": 1764178356
}