{
  "hex": "0100000000010191a292b34c3ac667cdbe17cc0838b84b407564eb37e2ddb816231259260fa25f0000000000feffffff02f0ceba8f782d0000225120cc6bab2367c098d6f75c6ce20bbc4725b32777bc251f5c057c764be996197e4400e1f50500000000fdd5046a202192fd6fae20df44941cf19f39502ed6ed5d194cfa1d03e16529d5563601cb814db0047df8a3be5109fba58ebf956b938c61a9d8ba657982adf1cdedad4f9d04a6d33f5dd8839e7129db85ae9fb54bb3ac4189f89a4559a28dd1edcd8d6fbd2486f31f3db8e3fe1149bbe5ceffd52bd3cc21e998fa2539c2edb18daded0fdd44e6937f1d98c3de31699bc5eedff50bf3ec01c9b8da0519e2cd91ad8dcd2ffd64c6b35ffd78233ed1897b250e3f15eb130ce129583ae5f9022d714d6d2dcf1d842653bfdd58031ef1a95b052e1f35cb332cc109781ac5d9220d516d4d0def3da406739fbd38637e91c93b654e7f55ab534ca169187aa5b9426d310d2d6d8f5dc46613ff9d18435eb1e91b456e5f758b736c8149385a8599624d112d0d4daf7de44633df7df8a3be5109fba58ebf956b938c61a9d8ba657982adf1cdedad4f9d04a6d33f5dd8839e7129db85ae9fb54bb3ac4189f89a4559a28dd1edcd8d6fbd2486f31f3db8e3fe1149bbe5ceffd52bd3cc21e998fa2539c2edb18daded0fdd44e6937f1d98c3de31699bc5eedff50bf3ec01c9b8da0519e2cd91ad8dcd2ffd64c6b35ffd78233ed1897b250e3f15eb130ce129583ae5f9022d714d6d2dcf1d842653bfdd58031ef1a95b052e1f35cb332cc109781ac5d9220d516d4d0def3da406739fbd38637e91c93b654e7f55ab534ca169187aa5b9426d310d2d6d8f5dc46613ff9d18435eb1e91b456e5f758b736c8149385a8599624d112d0d4daf7de44633df7df8a3be5109fba58ebf956b938c61a9d8ba657982adf1cdedad4f9d04a6d33f5dd8839e7129db85ae9fb54bb3ac4189f89a4559a28dd1edcd8d6fbd2486f31f3db8e3fe1149bbe5ceffd52bd3cc21e998fa2539c2edb18daded0fdd44e6937f1d98c3de31699bc5eedff50bf3ec01c9b8da0519e2cd91ad8dcd2ffd64c6b35ffd78233ed1897b250e3f15eb130ce129583ae5f9022d714d6d2dcf1d842653bfdd58031ef1a95b052e1f35cb332cc109781ac5d9220d516d4d0def3da406739fbd38637e91c93b654e7f55ab534ca169187aa5b9426d310d2d6d8f5dc46613ff9d18435eb1e91b456e5f758b736c8149385a8599624d112d0d4daf7de44633df7df8a3be5109fba58ebf956b938c61a9d8ba657982adf1cdedad4f9d04a6d33f5dd8839e7129db85ae9fb54bb3ac4189f89a4559a28dd1edcd8d6fbd2486f31f3db8e3fe1149bbe5ceffd52bd3cc21e998fa2539c2edb18daded0fdd44e6937f1d98c3de31699bc5eedff50bf3ec01c9b8da0519e2cd91ad8dcd2ffd64c6b35ffd78233ed1897b250e3f15eb130ce129583ae5f9022d714d6d2dcf1d842653bfdd58031ef1a95b052e1f35cb332cc109781ac5d9220d516d4d0def3da406739fbd38637e91c93b654e7f55ab534ca169187aa5b9426d310d2d6d8f5dc46613ff9d18435eb1e91b456e5f758b736c8149385a8599624d112d0d4daf7de44633df7df8a3be5109fba58ebf956b938c61a9d8ba657982adf1cdedad4f9d04a6d33f5dd8839e7129db85ae9fb54bb3ac4189f89a4559a28dd1edcd8d6fbd2486f31f3db8e3fe1149bbe5ceffd52bd3cc21e998fa2539c2edb18daded0fdd44e6937f1d98c3de31699bc5eedff50bf3ec01c9b8da0519e2cd91ad8dcd2ffd64c6b35ffd78233ed1897b250e3f15eb130ce129beb993caa5a89fb49094cd40679ccdc6d0d4ececbc02fb4b54104996aa7f845c02fd7509c6dfaa03fb75e8d3726cb1fdf9a634f94a55c0220312a5aaa02a82e9f8510d3f0a2ea20fb9119529c0e8f0756f82072ba70422a7195f3ac2932702fb2f6ff22f150a9a32526c59de764014b2d41a34729f11d2e8c4e1c7bf84270d40ea279a843acf1bbfaa865b2e4e207e3502005c8440cf63c5a32c54c42af805100c58b10d40b7d3d98129a16df1025550603f393e2e1dc7222ab1ab76595e3d88c2027e23f9c43f720dc85a213264ab8fc491017898889342ed6e90ca87c4663744e691721968eda1965050bb8f1651dca8847fdae44684cdd34f0db4576a110d4b14e1641cbd2c5362a7b092a7d6da76593e7c6cd5075119fd32e022b4799915110a64c10e369dbbadb77efe6d7a78ffe0084567c16d1c4c77a3f0758fcaac0623fd9396e98ad301934e4d1c73dde4dccf45e83f09165485600d49be5f3eb0fb2e78820108a6a5fe382ef0bb2d31bb5aad330019efa11904fc382c2b8f5a82f703c99af3e5db4e969ccc956bc1b852df318b35e55f0028b4f4d6be769cc8c299fd3fbf109ce584df176b9023b1634441f3c5cfdbef0fabe1048fb41f490980637b491398e2eb18c87f93e50a809b49a3264e40f88a829faa261968d733db6dc13f7daafdfdb28667061208760ab006fa25b547feb0498734509a690b33e395d53ae098ac99202d62675de902183c3d68247d1d3df860e688cb5ed1556efa6e74ff9b6585642038fab2e124120c47f69590018c4b606a4723a95fe23f34c2c666cc0fb4253c5d6d4457f217fb70e290189c100ad7bfb992beee33a82098587dcc9ee9624db409ef4b98cf079e11acb209503faaa0610700688153cdccf8900dde2687ee178a46df8a3ee05054f9eaf15ea7d7900b467fdcf6599705cfec15a94380ba09fbe7563dcf8712b9d1145c37efe3594d64ce2260decafbd401ae9d19500f25d8bdb74051946b2a9f99ca241be20e673228b3c5b35df997f16d9e34d407aa469465fb02c1364854fb2cbb2b6e6181f881acdc4115c179c84c0853afdc24a2b6fa1273d2a711e1b4771ba2e23b213c8af5128943147e2923e4772b41f2522e84ecd99fecbbe5e3d2463a5bf795ffd91eb74d3152f835e7baab1751cab54a66f6ca536d1b6dbdbaa9243e13f52ed9f1a5fa877079a28fc9ae9002854bb9d1a76cb63f3e428360bd9c051f53d61983d3b5d3a98a389d30cd480c6c6eb951abbb56471a5514495dd4d3dca3d2d67347153277b76655b0f309b9f2c5e6d56cf21ccb79cb5afdc704013e2c598bd38bb87c477c08d31aa25dc783aa6210892b96edb52119dbfd520702ac43601d99dba3904fa913336c8d7423e59cb6029af77f66e9a9039cf4000b4a55414db7f001480d2ab5fdda3f48d6f226ac82619bcd5f071ebda98bac41f7cea981b6c4318d1913c2fbd52a960953bae8cf821b21b1388fe5fd4101796e215e74629da82eaff663ba18b7c404c15750360af743ef58a0d07395c8d953fa7bff606f3f76becca7a8fd707a18ee78e9a80ba41dfa3243980718fbc1e23caaf7caf163546894e2b25666f81dcd5431aed095b19f2b6930abeda3e5d25172b6e3c7168378347a7feca0e7aca169de27367b3e5205ab345ce2f3eaf47a4c451e8f42934818587a9314f279e5b8bfb8950f013bdb87f966ab36bf1b53c9f760ad00ba32c8d47a0c572254f04f9408b2bff15e5e92a4e9f19da5d2059e3eb78d1f86923c85dcb8083288723b8b1b731b3bd466bd929470f82e0b5ba097501f92780b363bce29bbd5340aa6524857c5365288795946cc66842d5b9490a07b2455649ca361a579f3c4affd3e5dd082d2597eda36b5fed3219e538d119663ad8edca88d913bcfdf3cbe31af9e4cc775cce1a05af5803ad2b120163ded81a89ab5e78a31a63e6e93d6b109f0d78bfac5f6acf6bfee116225b559ed2015f0835962cc6f794af5abc0ed145f45cec443d78160c033d5ad49be3f21fd7493497cfe54b8d5d3b0eb023e7aec37e76d8ab08a8e4c9df699d37e136d242afcdb1e2fbeaee1d265c8658616728edea3d85e1e4a7c69bf55212b812942b7bfaa0f78d5e964a5fa75198a90ec660e9a0bcf1a1f50793e0a68bd1ca2f9b6a2d64d00916f9cf6803786199ac511934f8bda11c83013d2527780f942d7b27deb1979194965c2fba605804b8cd701d8abeeecaeddd53b19be9b09015769bfff06e620aa1d437a8c7f76ffc7f21bf1ea6c145dada42994ecbf40d2298b09115abdc02329bce741e9b7b6cf453daba036ed9716f6a45e9a4b59cbc412109203d805eac59c953bdb1aac3d9b7ce2af231aee1f4a95e69c09bec1d9e9159c8a03f107a4d6db53df0557eee92b208706112a71ae151f7142656eb778a73dcf15259d4748e9d6326e7241fdba7ed7306ac29f1c074158893321c52729c1a35375ed71a0ea6229ee15afbc008f1fb9c82153e4e4cb4f68b3fe025f8ba75148e2f8eeb6354425bde6dc30c81257904cbb3d6c0f9e20aa5f24884421a638b1b2cc8427a44b0d0279a28a9650e687abcacffcb883c4e874ed6e9306ed45fc38855466ea3de3e6704e328b5c52a525bcdd10034f87d8d9f49a7c222e07c0778bcdb4c24d2b85771461c82f00c389168ffd607494d27be2584b048e0f592b023043f264d47bfe83eca0298ff5594daf5987fb339da0204be06697bbc08dda461712af1ab8bb3ed4409bf22eb5d938a83912f2aba32f143bd462963216ed180282b980b2d8e5286f18325928eadc82b40d4ddd25e40b63192f4c9498b88e36f01ad4751cdfd4f1d245043f2bf2d9c3e268b796ff6d796cf322b43775530dc44a884a27b4b837952aea36c60de5046ba088a70ec45ba7229b1e86d5515b72d480c11f7224b88f80041db0feef7b178033ad7f89f308a48c38f78fe77630466da56e981859bd0c3ba1d01d0b37072abe860ac4eee417afbedc6a6f31b24adeeb0c720d4e737f95cfe96c696c443204a4261a1bd8eea50b7f449c2fafdf7a9559ebf5e5b52873e3160466ae26f05d52a6bd0b1a8acd38d9216aa3df3064bf2a13db735b24bcf6e4c9227f733d205039ff65f5df8c5689e056332b50081c07e19af17985bce8878bde44e04b64332b9cc0cf4b6f602d56c06effa73cbf41c1185db6a101ed8097c8ea167e8dbb71eddaf32847d5eff6fe44105244f23ae0550a88379eba814f9c269d3dac007fe843129dbca2feb1136313127b8a2ad15426b37d847d5268ff6134f1d545da8f769fe025e6b691b5051560d96266bf0a928522f3fea94f1cdaa016dc59775932e12100090a53566c6d728992c4ccd1fa1d1f35464a6271728fb5c3c4d8dcdff115272c4392b7e5fc02111423273a3b405d767e808283bdc800000000000000000000000000000000000000000000000000000e1e263601fd210500531d5ae8d939dd2ade3e24b1109d69e8b8e5d6b2454fb3335e51b0e765eb2bb1c4ac3d9376e229c6543a99504a096a25a786d4f421410a83c89378f4349cbf6560808efe36c3c0528f5b4a55df80f9b2b65226d6fa179baca8ee1f7605007b3bb96a0fdd101749e05deee1146d4c7206330b358095df67e507b48da78960403fc77b4e43a683bd00114babaff6b37f81e08deaf843ac1f72c4487efc1fbb57311087bb9a78a09554bcae9abce54bd09a8d7cbc93e9715c6c8cfe93f6f069f6a3c83ad2a5e8507009d6c1b910df324489ea6981136579d8baa8dc765b3f05c7b0fe7842500b3b9a517e58819cc47267041da9ac850f89486486772d6d521145f13a6ddfcfe42e23ecb54d1b97fa2a6efc7800263b354003d63931e3ce95fb04ad66f9c46cc270b6b8e1ac135b8b9f4ca8e2934b34b4fac4267b8247b703af68ad12bf12a779ddad37d0bdb5bf9ecb6d64950e93aeb45ee52b6e5d93fdfbe5a001427ad231b50f2b720953a0688a5af57814caabae2ae09d9da260659cb6def7f4c3cafc6fcdc373ddd2aa873e324b5eeaf87ba140d6ca93fce23b6d36ed8b4ae298d1945688ebf51110bb1ca7ed1e15ce8bb2c193b8a26773a3e9bb4bbdc617d2b24d36999b112415369f52ae594190996a6ba2726b59d50e6519ed52dbf24da572346ffbda5d514107cbd0619ea5d5ffdf878c9d8669850e3c269ee734c820b458dfdc71c49c366a3379678e4137be891316fee5da18d1abace3854d523ece40e29a2b634b18a55088da1a8463469461b04f89dd52bc97383087e3b2e91d3892b9b9bd8b08b1621c62d4f8e1f09932dc0cca9da2857086b7aafa0c93b2de301d5c8be7429bc83e33d32cc568890d99bb9acd88944b7125a7de2b585f1390b331ca9dd953b85cf290c8819ae6708e3d7822ee66b52b81f8386533b941b23becd2b27976eee063399cb3d05e9c15f41cb7d6f792bab2bc61a3392acf5a9ff01b0aced8a1debc15ac84796836bc0213b7766f73808aa97f92caaadf8f88418a4e99cf0f6d5475338e41602f5ec8f3274dabf4e3bcf465f944238d749cee145ac6519347393a39dc832f4701d0f05429ad07bfde5506ed19a01a2504381f6de9f405da6a35d6ec494ee43dcd13288d65fd26d341f1c6c6d6ad9b5d3f85158a232023b0ba172166411938ae3e98fa7b9105b9e94cfe51281aec67c5a4e985798686c586380f89974a382e3c86d7434d33f77aab0409826d889a3df358bda1f8a903290b7b56793a3e953a9fb00cdb9d1c266a540dad0336b3a0db1ff5fad9d591cabc692dbb58f2730ca5a773b5b683cd385ef8ab29a816d260666bea37080ccd43be30d3eef3518b53847ca1a8cebd16ded4dd4bae3051eb6430e6ddb23020071dafc571123798479ae9b7be729c537ab027319812d306f9b8f6c91ee781e0d89fcd4bd1eed836ff654e43e04119386cf80255b6b3703954dd20aa67904022b1d7f654172c9b1e8984d9021678e6468e01d22cd8e97cd652d03f78e02e2b09411b0c463dfe1c72bdbced615691937514f192dd23f8c6cb74e78c3f2f9840eb2e49b72dfaee44e2d8e9adabf2d5de8d1c5cfa8a96171a7b0d871a8812f3615a85cb6838b61e5ab0b8d48302a205a247f3523b713d969979b9cb9fc304c6621bdf76bc367c3113a3b35592cd67ce44dc83d6cdd63a1741858b83ecbb09305cacace0936a0e92d0a414f7d99ffffa276e0ab481f2e30ae575c7395087708d4fface7a6ea0d4f8eba5623eb457ea582334a753a456cd2758d9773e7ac509e1d16452ba300f5f9d065329f94ba23fa9773bb06db9da6e9fe2a5a528830196496a5fdc58768a000000",
  "txid": "34c39b55bf80fab44ed30df8f21998377fffdf0b0c3ed48fc186b61ffcf7bf0e",
  "hash": "a5b6daa1b758560762f55bac5ca405ebb1b9cd84760140ffdb2d346b1e6e1937",
  "size": 5085,
  "vsize": 2278,
  "version": 1,
  "locktime": 138,
  "vin": [
    {
      "txid": "5fa20f2659122316b8dde237eb6475404bb83808cc17becd67c63a4cb392a291",
      "vout": 0,
      "scriptSig": {
        "asm": "",
        "hex": ""
      },
      "txinwitness": [
        "c6dfaa03fb75e8d3726cb1fdf9a634f94a55c0220312a5aaa02a82e9f8510d3f0a2ea20fb9119529c0e8f0756f82072ba70422a7195f3ac2932702fb2f6ff22f150a9a32526c59de764014b2d41a34729f11d2e8c4e1c7bf84270d40ea279a843acf1bbfaa865b2e4e207e3502005c8440cf63c5a32c54c42af805100c58b10d40b7d3d98129a16df1025550603f393e2e1dc7222ab1ab76595e3d88c2027e23f9c43f720dc85a213264ab8fc491017898889342ed6e90ca87c4663744e691721968eda1965050bb8f1651dca8847fdae44684cdd34f0db4576a110d4b14e1641cbd2c5362a7b092a7d6da76593e7c6cd5075119fd32e022b4799915110a64c10e369dbbadb77efe6d7a78ffe0084567c16d1c4c77a3f0758fcaac0623fd9396e98ad301934e4d1c73dde4dccf45e83f09165485600d49be5f3eb0fb2e78820108a6a5fe382ef0bb2d31bb5aad330019efa11904fc382c2b8f5a82f703c99af3e5db4e969ccc956bc1b852df318b35e55f0028b4f4d6be769cc8c299fd3fbf109ce584df176b9023b1634441f3c5cfdbef0fabe1048fb41f490980637b491398e2eb18c87f93e50a809b49a3264e40f88a829faa261968d733db6dc13f7daafdfdb28667061208760ab006fa25b547feb0498734509a690b33e395d53ae098ac99202d62675de902183c3d68247d1d3df860e688cb5ed1556efa6e74ff9b6585642038fab2e124120c47f69590018c4b606a4723a95fe23f34c2c666cc0fb4253c5d6d4457f217fb70e290189c100ad7bfb992beee33a82098587dcc9ee9624db409ef4b98cf079e11acb209503faaa0610700688153cdccf8900dde2687ee178a46df8a3ee05054f9eaf15ea7d7900b467fdcf6599705cfec15a94380ba09fbe7563dcf8712b9d1145c37efe3594d64ce2260decafbd401ae9d19500f25d8bdb74051946b2a9f99ca241be20e673228b3c5b35df997f16d9e34d407aa469465fb02c1364854fb2cbb2b6e6181f881acdc4115c179c84c0853afdc24a2b6fa1273d2a711e1b4771ba2e23b213c8af5128943147e2923e4772b41f2522e84ecd99fecbbe5e3d2463a5bf795ffd91eb74d3152f835e7baab1751cab54a66f6ca536d1b6dbdbaa9243e13f52ed9f1a5fa877079a28fc9ae9002854bb9d1a76cb63f3e428360bd9c051f53d61983d3b5d3a98a389d30cd480c6c6eb951abbb56471a5514495dd4d3dca3d2d67347153277b76655b0f309b9f2c5e6d56cf21ccb79cb5afdc704013e2c598bd38bb87c477c08d31aa25dc783aa6210892b96edb52119dbfd520702ac43601d99dba3904fa913336c8d7423e59cb6029af77f66e9a9039cf4000b4a55414db7f001480d2ab5fdda3f48d6f226ac82619bcd5f071ebda98bac41f7cea981b6c4318d1913c2fbd52a960953bae8cf821b21b1388fe5fd4101796e215e74629da82eaff663ba18b7c404c15750360af743ef58a0d07395c8d953fa7bff606f3f76becca7a8fd707a18ee78e9a80ba41dfa3243980718fbc1e23caaf7caf163546894e2b25666f81dcd5431aed095b19f2b6930abeda3e5d25172b6e3c7168378347a7feca0e7aca169de27367b3e5205ab345ce2f3eaf47a4c451e8f42934818587a9314f279e5b8bfb8950f013bdb87f966ab36bf1b53c9f760ad00ba32c8d47a0c572254f04f9408b2bff15e5e92a4e9f19da5d2059e3eb78d1f86923c85dcb8083288723b8b1b731b3bd466bd929470f82e0b5ba097501f92780b363bce29bbd5340aa6524857c5365288795946cc66842d5b9490a07b2455649ca361a579f3c4affd3e5dd082d2597eda36b5fed3219e538d119663ad8edca88d913bcfdf3cbe31af9e4cc775cce1a05af5803ad2b120163ded81a89ab5e78a31a63e6e93d6b109f0d78bfac5f6acf6bfee116225b559ed2015f0835962cc6f794af5abc0ed145f45cec443d78160c033d5ad49be3f21fd7493497cfe54b8d5d3b0eb023e7aec37e76d8ab08a8e4c9df699d37e136d242afcdb1e2fbeaee1d265c8658616728edea3d85e1e4a7c69bf55212b812942b7bfaa0f78d5e964a5fa75198a90ec660e9a0bcf1a1f50793e0a68bd1ca2f9b6a2d64d00916f9cf6803786199ac511934f8bda11c83013d2527780f942d7b27deb1979194965c2fba605804b8cd701d8abeeecaeddd53b19be9b09015769bfff06e620aa1d437a8c7f76ffc7f21bf1ea6c145dada42994ecbf40d2298b09115abdc02329bce741e9b7b6cf453daba036ed9716f6a45e9a4b59cbc412109203d805eac59c953bdb1aac3d9b7ce2af231aee1f4a95e69c09bec1d9e9159c8a03f107a4d6db53df0557eee92b208706112a71ae151f7142656eb778a73dcf15259d4748e9d6326e7241fdba7ed7306ac29f1c074158893321c52729c1a35375ed71a0ea6229ee15afbc008f1fb9c82153e4e4cb4f68b3fe025f8ba75148e2f8eeb6354425bde6dc30c81257904cbb3d6c0f9e20aa5f24884421a638b1b2cc8427a44b0d0279a28a9650e687abcacffcb883c4e874ed6e9306ed45fc38855466ea3de3e6704e328b5c52a525bcdd10034f87d8d9f49a7c222e07c0778bcdb4c24d2b85771461c82f00c389168ffd607494d27be2584b048e0f592b023043f264d47bfe83eca0298ff5594daf5987fb339da0204be06697bbc08dda461712af1ab8bb3ed4409bf22eb5d938a83912f2aba32f143bd462963216ed180282b980b2d8e5286f18325928eadc82b40d4ddd25e40b63192f4c9498b88e36f01ad4751cdfd4f1d245043f2bf2d9c3e268b796ff6d796cf322b43775530dc44a884a27b4b837952aea36c60de5046ba088a70ec45ba7229b1e86d5515b72d480c11f7224b88f80041db0feef7b178033ad7f89f308a48c38f78fe77630466da56e981859bd0c3ba1d01d0b37072abe860ac4eee417afbedc6a6f31b24adeeb0c720d4e737f95cfe96c696c443204a4261a1bd8eea50b7f449c2fafdf7a9559ebf5e5b52873e3160466ae26f05d52a6bd0b1a8acd38d9216aa3df3064bf2a13db735b24bcf6e4c9227f733d205039ff65f5df8c5689e056332b50081c07e19af17985bce8878bde44e04b64332b9cc0cf4b6f602d56c06effa73cbf41c1185db6a101ed8097c8ea167e8dbb71eddaf32847d5eff6fe44105244f23ae0550a88379eba814f9c269d3dac007fe843129dbca2feb1136313127b8a2ad15426b37d847d5268ff6134f1d545da8f769fe025e6b691b5051560d96266bf0a928522f3fea94f1cdaa016dc59775932e12100090a53566c6d728992c4ccd1fa1d1f35464a6271728fb5c3c4d8dcdff115272c4392b7e5fc02111423273a3b405d767e808283bdc800000000000000000000000000000000000000000000000000000e1e263601",
        "00531d5ae8d939dd2ade3e24b1109d69e8b8e5d6b2454fb3335e51b0e765eb2bb1c4ac3d9376e229c6543a99504a096a25a786d4f421410a83c89378f4349cbf6560808efe36c3c0528f5b4a55df80f9b2b65226d6fa179baca8ee1f7605007b3bb96a0fdd101749e05deee1146d4c7206330b358095df67e507b48da78960403fc77b4e43a683bd00114babaff6b37f81e08deaf843ac1f72c4487efc1fbb57311087bb9a78a09554bcae9abce54bd09a8d7cbc93e9715c6c8cfe93f6f069f6a3c83ad2a5e8507009d6c1b910df324489ea6981136579d8baa8dc765b3f05c7b0fe7842500b3b9a517e58819cc47267041da9ac850f89486486772d6d521145f13a6ddfcfe42e23ecb54d1b97fa2a6efc7800263b354003d63931e3ce95fb04ad66f9c46cc270b6b8e1ac135b8b9f4ca8e2934b34b4fac4267b8247b703af68ad12bf12a779ddad37d0bdb5bf9ecb6d64950e93aeb45ee52b6e5d93fdfbe5a001427ad231b50f2b720953a0688a5af57814caabae2ae09d9da260659cb6def7f4c3cafc6fcdc373ddd2aa873e324b5eeaf87ba140d6ca93fce23b6d36ed8b4ae298d1945688ebf51110bb1ca7ed1e15ce8bb2c193b8a26773a3e9bb4bbdc617d2b24d36999b112415369f52ae594190996a6ba2726b59d50e6519ed52dbf24da572346ffbda5d514107cbd0619ea5d5ffdf878c9d8669850e3c269ee734c820b458dfdc71c49c366a3379678e4137be891316fee5da18d1abace3854d523ece40e29a2b634b18a55088da1a8463469461b04f89dd52bc97383087e3b2e91d3892b9b9bd8b08b1621c62d4f8e1f09932dc0cca9da2857086b7aafa0c93b2de301d5c8be7429bc83e33d32cc568890d99bb9acd88944b7125a7de2b585f1390b331ca9dd953b85cf290c8819ae6708e3d7822ee66b52b81f8386533b941b23becd2b27976eee063399cb3d05e9c15f41cb7d6f792bab2bc61a3392acf5a9ff01b0aced8a1debc15ac84796836bc0213b7766f73808aa97f92caaadf8f88418a4e99cf0f6d5475338e41602f5ec8f3274dabf4e3bcf465f944238d749cee145ac6519347393a39dc832f4701d0f05429ad07bfde5506ed19a01a2504381f6de9f405da6a35d6ec494ee43dcd13288d65fd26d341f1c6c6d6ad9b5d3f85158a232023b0ba172166411938ae3e98fa7b9105b9e94cfe51281aec67c5a4e985798686c586380f89974a382e3c86d7434d33f77aab0409826d889a3df358bda1f8a903290b7b56793a3e953a9fb00cdb9d1c266a540dad0336b3a0db1ff5fad9d591cabc692dbb58f2730ca5a773b5b683cd385ef8ab29a816d260666bea37080ccd43be30d3eef3518b53847ca1a8cebd16ded4dd4bae3051eb6430e6ddb23020071dafc571123798479ae9b7be729c537ab027319812d306f9b8f6c91ee781e0d89fcd4bd1eed836ff654e43e04119386cf80255b6b3703954dd20aa67904022b1d7f654172c9b1e8984d9021678e6468e01d22cd8e97cd652d03f78e02e2b09411b0c463dfe1c72bdbced615691937514f192dd23f8c6cb74e78c3f2f9840eb2e49b72dfaee44e2d8e9adabf2d5de8d1c5cfa8a96171a7b0d871a8812f3615a85cb6838b61e5ab0b8d48302a205a247f3523b713d969979b9cb9fc304c6621bdf76bc367c3113a3b35592cd67ce44dc83d6cdd63a1741858b83ecbb09305cacace0936a0e92d0a414f7d99ffffa276e0ab481f2e30ae575c7395087708d4fface7a6ea0d4f8eba5623eb457ea582334a753a456cd2758d9773e7ac509e1d16452ba300f5f9d065329f94ba23fa9773bb06db9da6e9fe2a5a528830196496a5fdc5876"
      ],
      "sequence": 4294967294
    }
  ],
  "vout": [
    {
      "value": 499958.3071,
      "n": 0,
      "scriptPubKey": {
        "asm": "1 cc6bab2367c098d6f75c6ce20bbc4725b32777bc251f5c057c764be996197e44",
        "hex": "5120cc6bab2367c098d6f75c6ce20bbc4725b32777bc251f5c057c764be996197e44",
        "reqSigs": 1,
        "type": "witness_v1_scripthash",
        "addresses": [
          "3QJmnh"
        ]
      }
    },
    {
      "value": 1.0,
      "n": 1,
      "scriptPubKey": {
        "asm": "OP_RETURN 2192fd6fae20df44941cf19f39502ed6ed5d194cfa1d03e16529d5563601cb81 7df8a3be5109fba58ebf956b938c61a9d8ba657982adf1cdedad4f9d04a6d33f5dd8839e7129db85ae9fb54bb3ac4189f89a4559a28dd1edcd8d6fbd2486f31f3db8e3fe1149bbe5ceffd52bd3cc21e998fa2539c2edb18daded0fdd44e6937f1d98c3de31699bc5eedff50bf3ec01c9b8da0519e2cd91ad8dcd2ffd64c6b35ffd78233ed1897b250e3f15eb130ce129583ae5f9022d714d6d2dcf1d842653bfdd58031ef1a95b052e1f35cb332cc109781ac5d9220d516d4d0def3da406739fbd38637e91c93b654e7f55ab534ca169187aa5b9426d310d2d6d8f5dc46613ff9d18435eb1e91b456e5f758b736c8149385a8599624d112d0d4daf7de44633df7df8a3be5109fba58ebf956b938c61a9d8ba657982adf1cdedad4f9d04a6d33f5dd8839e7129db85ae9fb54bb3ac4189f89a4559a28dd1edcd8d6fbd2486f31f3db8e3fe1149bbe5ceffd52bd3cc21e998fa2539c2edb18daded0fdd44e6937f1d98c3de31699bc5eedff50bf3ec01c9b8da0519e2cd91ad8dcd2ffd64c6b35ffd78233ed1897b250e3f15eb130ce129583ae5f9022d714d6d2dcf1d842653bfdd58031ef1a95b052e1f35cb332cc109781ac5d9220d516d4d0def3da406739fbd38637e91c93b654e7f55ab534ca169187aa5b9426d310d2d6d8f5dc46613ff9d18435eb1e91b456e5f758b736c8149385a8599624d112d0d4daf7de44633df7df8a3be5109fba58ebf956b938c61a9d8ba657982adf1cdedad4f9d04a6d33f5dd8839e7129db85ae9fb54bb3ac4189f89a4559a28dd1edcd8d6fbd2486f31f3db8e3fe1149bbe5ceffd52bd3cc21e998fa2539c2edb18daded0fdd44e6937f1d98c3de31699bc5eedff50bf3ec01c9b8da0519e2cd91ad8dcd2ffd64c6b35ffd78233ed1897b250e3f15eb130ce129583ae5f9022d714d6d2dcf1d842653bfdd58031ef1a95b052e1f35cb332cc109781ac5d9220d516d4d0def3da406739fbd38637e91c93b654e7f55ab534ca169187aa5b9426d310d2d6d8f5dc46613ff9d18435eb1e91b456e5f758b736c8149385a8599624d112d0d4daf7de44633df7df8a3be5109fba58ebf956b938c61a9d8ba657982adf1cdedad4f9d04a6d33f5dd8839e7129db85ae9fb54bb3ac4189f89a4559a28dd1edcd8d6fbd2486f31f3db8e3fe1149bbe5ceffd52bd3cc21e998fa2539c2edb18daded0fdd44e6937f1d98c3de31699bc5eedff50bf3ec01c9b8da0519e2cd91ad8dcd2ffd64c6b35ffd78233ed1897b250e3f15eb130ce129583ae5f9022d714d6d2dcf1d842653bfdd58031ef1a95b052e1f35cb332cc109781ac5d9220d516d4d0def3da406739fbd38637e91c93b654e7f55ab534ca169187aa5b9426d310d2d6d8f5dc46613ff9d18435eb1e91b456e5f758b736c8149385a8599624d112d0d4daf7de44633df7df8a3be5109fba58ebf956b938c61a9d8ba657982adf1cdedad4f9d04a6d33f5dd8839e7129db85ae9fb54bb3ac4189f89a4559a28dd1edcd8d6fbd2486f31f3db8e3fe1149bbe5ceffd52bd3cc21e998fa2539c2edb18daded0fdd44e6937f1d98c3de31699bc5eedff50bf3ec01c9b8da0519e2cd91ad8dcd2ffd64c6b35ffd78233ed1897b250e3f15eb130ce129beb993caa5a89fb49094cd40679ccdc6d0d4ececbc02fb4b54104996aa7f845c",
        "hex": "6a202192fd6fae20df44941cf19f39502ed6ed5d194cfa1d03e16529d5563601cb814db0047df8a3be5109fba58ebf956b938c61a9d8ba657982adf1cdedad4f9d04a6d33f5dd8839e7129db85ae9fb54bb3ac4189f89a4559a28dd1edcd8d6fbd2486f31f3db8e3fe1149bbe5ceffd52bd3cc21e998fa2539c2edb18daded0fdd44e6937f1d98c3de31699bc5eedff50bf3ec01c9b8da0519e2cd91ad8dcd2ffd64c6b35ffd78233ed1897b250e3f15eb130ce129583ae5f9022d714d6d2dcf1d842653bfdd58031ef1a95b052e1f35cb332cc109781ac5d9220d516d4d0def3da406739fbd38637e91c93b654e7f55ab534ca169187aa5b9426d310d2d6d8f5dc46613ff9d18435eb1e91b456e5f758b736c8149385a8599624d112d0d4daf7de44633df7df8a3be5109fba58ebf956b938c61a9d8ba657982adf1cdedad4f9d04a6d33f5dd8839e7129db85ae9fb54bb3ac4189f89a4559a28dd1edcd8d6fbd2486f31f3db8e3fe1149bbe5ceffd52bd3cc21e998fa2539c2edb18daded0fdd44e6937f1d98c3de31699bc5eedff50bf3ec01c9b8da0519e2cd91ad8dcd2ffd64c6b35ffd78233ed1897b250e3f15eb130ce129583ae5f9022d714d6d2dcf1d842653bfdd58031ef1a95b052e1f35cb332cc109781ac5d9220d516d4d0def3da406739fbd38637e91c93b654e7f55ab534ca169187aa5b9426d310d2d6d8f5dc46613ff9d18435eb1e91b456e5f758b736c8149385a8599624d112d0d4daf7de44633df7df8a3be5109fba58ebf956b938c61a9d8ba657982adf1cdedad4f9d04a6d33f5dd8839e7129db85ae9fb54bb3ac4189f89a4559a28dd1edcd8d6fbd2486f31f3db8e3fe1149bbe5ceffd52bd3cc21e998fa2539c2edb18daded0fdd44e6937f1d98c3de31699bc5eedff50bf3ec01c9b8da0519e2cd91ad8dcd2ffd64c6b35ffd78233ed1897b250e3f15eb130ce129583ae5f9022d714d6d2dcf1d842653bfdd58031ef1a95b052e1f35cb332cc109781ac5d9220d516d4d0def3da406739fbd38637e91c93b654e7f55ab534ca169187aa5b9426d310d2d6d8f5dc46613ff9d18435eb1e91b456e5f758b736c8149385a8599624d112d0d4daf7de44633df7df8a3be5109fba58ebf956b938c61a9d8ba657982adf1cdedad4f9d04a6d33f5dd8839e7129db85ae9fb54bb3ac4189f89a4559a28dd1edcd8d6fbd2486f31f3db8e3fe1149bbe5ceffd52bd3cc21e998fa2539c2edb18daded0fdd44e6937f1d98c3de31699bc5eedff50bf3ec01c9b8da0519e2cd91ad8dcd2ffd64c6b35ffd78233ed1897b250e3f15eb130ce129583ae5f9022d714d6d2dcf1d842653bfdd58031ef1a95b052e1f35cb332cc109781ac5d9220d516d4d0def3da406739fbd38637e91c93b654e7f55ab534ca169187aa5b9426d310d2d6d8f5dc46613ff9d18435eb1e91b456e5f758b736c8149385a8599624d112d0d4daf7de44633df7df8a3be5109fba58ebf956b938c61a9d8ba657982adf1cdedad4f9d04a6d33f5dd8839e7129db85ae9fb54bb3ac4189f89a4559a28dd1edcd8d6fbd2486f31f3db8e3fe1149bbe5ceffd52bd3cc21e998fa2539c2edb18daded0fdd44e6937f1d98c3de31699bc5eedff50bf3ec01c9b8da0519e2cd91ad8dcd2ffd64c6b35ffd78233ed1897b250e3f15eb130ce129beb993caa5a89fb49094cd40679ccdc6d0d4ececbc02fb4b54104996aa7f845c",
        "type": "nulldata"
      }
    }
  ],
  "blockhash": "394f302ff1829b8db869c98f7b64fb5f27cc2b50e933cff1e5bbeae34fa68a80",
  "confirmations": 1,
  "time": 1764183654,
  "blocktime": 1764183654
}