{
  "hex": "0100000000010174b780afd607f0625e4536e8b146843afbd94011793f445766dea67fb11899e30000000000feffffff02d02296e4782d0000225120b882dd88065122f09cbd76b9dd8b36d232f4daec94f8b7a38ed7389a75ac47cc00e1f50500000000fdd5046a20fc0e4dd74b08db70845312d158298af524306a6ba148c449cd2f4268d51e052e4db0042614a88227020beb37ca1a9538d5df4797962bacb1853a6ff58b09d2d0202941063488a207222bcb17ea3ab518f5ff67b7b60b8c91a51a4fd5ab29f2f00009616654e8c267424bab778a5ad578959f07d7d66becf1c57a2fb5cb4992906069014674c8e247626b8b57aa7af558b5bf27f7f64bccd1e55a0f95eb69b2b0404921a6942802a7828b6bb74a9a15b8555fc71716ab2c3105baef750b895250a0a9c186b4082287a2ab4b976aba3598757fe737368b0c11259acf552ba972708089e1e6d46842e7c2cb2bf70ada55f8151f875756eb6c7145faaf354bc91210e0e981c6f44862c7e2eb0bd72afa75d8353fa77776cb4c5165da8f156be93230c0c9a12614a88227020beb37ca1a9538d5df4797962bacb1853a6ff58b09d2d0202941063488a207222bcb17ea3ab518f5ff67b7b60b8c91a51a4fd5ab29f2f00009616654e8c267424bab778a5ad578959f07d7d66becf1c57a2fb5cb4992906069014674c8e247626b8b57aa7af558b5bf27f7f64bccd1e55a0f95eb69b2b0404921a6942802a7828b6bb74a9a15b8555fc71716ab2c3105baef750b895250a0a9c186b4082287a2ab4b976aba3598757fe737368b0c11259acf552ba972708089e1e6d46842e7c2cb2bf70ada55f8151f875756eb6c7145faaf354bc91210e0e981c6f44862c7e2eb0bd72afa75d8353fa77776cb4c5165da8f156be93230c0c9a12614a88227020beb37ca1a9538d5df4797962bacb1853a6ff58b09d2d0202941063488a207222bcb17ea3ab518f5ff67b7b60b8c91a51a4fd5ab29f2f00009616654e8c267424bab778a5ad578959f07d7d66becf1c57a2fb5cb4992906069014674c8e247626b8b57aa7af558b5bf27f7f64bccd1e55a0f95eb69b2b0404921a6942802a7828b6bb74a9a15b8555fc71716ab2c3105baef750b895250a0a9c186b4082287a2ab4b976aba3598757fe737368b0c11259acf552ba972708089e1e6d46842e7c2cb2bf70ada55f8151f875756eb6c7145faaf354bc91210e0e981c6f44862c7e2eb0bd72afa75d8353fa77776cb4c5165da8f156be93230c0c9a12614a88227020beb37ca1a9538d5df4797962bacb1853a6ff58b09d2d0202941063488a207222bcb17ea3ab518f5ff67b7b60b8c91a51a4fd5ab29f2f00009616654e8c267424bab778a5ad578959f07d7d66becf1c57a2fb5cb4992906069014674c8e247626b8b57aa7af558b5bf27f7f64bccd1e55a0f95eb69b2b0404921a6942802a7828b6bb74a9a15b8555fc71716ab2c3105baef750b895250a0a9c186b4082287a2ab4b976aba3598757fe737368b0c11259acf552ba972708089e1e6d46842e7c2cb2bf70ada55f8151f875756eb6c7145faaf354bc91210e0e981c6f44862c7e2eb0bd72afa75d8353fa77776cb4c5165da8f156be93230c0c9a12614a88227020beb37ca1a9538d5df4797962bacb1853a6ff58b09d2d0202941063488a207222bcb17ea3ab518f5ff67b7b60b8c91a51a4fd5ab29f2f00009616654e8c267424bab778a5ad578959f07d7d66becf1c57a2fb5cb4992906069014674c8e247626b8b57aa7af558b5bf27f7f64bccd1e55a0f95eb69b2b0404921a6942802a7828b6bb74a9a15b8555fc7c770a743ee5552a4040d537b7d60df96dbc5dc5a9483a5f9fac40bdb5a84a0b802fd7509f7822dcec36694a1d02ea85267abcb1c48176687088bb6712f8ddb09a57c3434bee1c987fb7f44ed3130ac1a7d07323708307b1324b889f3edd5ac50098527a0cf9421c3e51da1250fd5fc7d2f66000c72760a376fe488a48e9b21614dcc3e42cc36f4597da44912201d2463cafc53274b3c315cad1a3a9fda4c4eb0bee19204c28b401fa0d96f03c1ee5ed343aadde3ca1c6d5cc6aa2e79e6bf454a569c85fdc254743815a9783211598206bb64080e016afb94f26e131af8b1859e3f81e74ded75dfa9bdbaead7577ba24b92c4c0aa17ffdafdae4b76eb56d8c9debdd6e9cdf5bd2a082b24340b31fb3a93c513de403a0a85a5745da9bbb6e05b77a94584deb4db62a876647f5bca01c512e2666f6246b6b9cb3cd2523bf2a6298ccd27a8336070116c7b358a483c776d3e95104c2bdb5c0f1e7c97538d7141ff36a34023793042350a59d10f1dec22a3bc166b6603e64148bd9f09e003ac40dbdc4810e22c491dfdd2fc9324fafd60858db4453f79e80328e9ee5dfab461af3b9d2f41a0faf6c1751469324e09cf7f74cb71aa5351c1f9cfc2a62e744807db96329f3c5193d21886651976e5a7140d27a496f3456f503bc92af19cec7c747382eacd7697e15fe9f0f68dd9852f0985613bfa456d9983c049dc943155ab0b2daaeafb734b9b2f33f2691558df4fe86c160daea3ff8abc42c79935d368ab1f61a090d89413c3456d08a152f298e789b01c0bad259f4773da800d8e0af0e335f7d9d1144aee37644830a6ad6bc5b04698ce7564a255b433ced068f447bd74e4ca4776fc6ea0a3f5806f62949b07bb87e36e54cc52d3af883a188aa76ba987f91f4a626e346c6c0f8340c16dbd1cf2746efb0f6b58de190fa8b6f9fc72ef245ce813865629f77f141d6e85cf9e5a7d6eaf77fa5dd8f771f870a5ac66c9fb5ea8aab2fb7bdb1f96e9bbfd23b2a0d44bdefdc30c896455475f2de0df8b89a26f02a13e181ea376ed9f8ac7bfa58ee433e077385bf6d9790eb6387f7567de349919c03857629ec5153a977db99a45614c8b535ccb8aef4cad6b9d06424e13ccb534cb691e8f10d6e78919b32fb34bbe80bd2a5e4515baab885fcc7024b13d6c860360082acfb882710a0051276f6b9343199c5329a5ccf361faede73c0b242da77286ad275c029a6e68f170c067205387b2e2ca0ee7013a53028695c5085eae6a8a377dcdd8a5b121238f6584d66e77f04a12c518f29802cec7b3f2389328d7cddd9458568c5ac0b3062d5758f5b1363f5bddebe7a4fd0218fe0d13c246846eb1fbe2f0cb6e81ed397d71702129461c63556caae24b2d23679b786b4adea34210c8e69acad5ec5108e85d7c7fe8ae2e5e9a373bb2d61ba13379cb338b183931caee76d98018cb3d64303b39cfcdf4f18cf4508a6ebdc0cd284f6f6e80faf0190697b97c1f19da95ddc9636cb5d81c9b9c34eb13ca2496f3550dfb61cc5e28e0d04d9c23cf37cf8f1e716a14f073cbe50e835fb418e76b44d13f490b41bb1071385846c2df131e04b90d74c2eae96499ac46c1a539c93aa88dfc4a3cc2405d127c1bd23e17749136bad14c3cb5321830a14aa8906016b7245ab9de049920c6c1f48478a062c87fddcb2552a912194b43a03717c249164231238a3e6738b28460c154d2964a68cbe68444e3c2f70cae3654b6b83e446e14f91a17f303c5a1bf31fed5752664331b168d4d9d9018d205420c2d5eb91bc20232888ad18371f7bc5d59f3531499d4d1f8d73aca41537032dbf52ea53837403bd550efdcf39b9011059879d26473b2203f422f87e050be1a35cca18d80c22fa70fa23b2617fe129f44996d50c779d943958f02a32d91a92f747e49ee2dbcdcf001f9debe544897f226c71080c5e268ca7b91bf2c9a9a56b226184d912a724c8683ea14d9bf9da88e642ae2ae3efa7a949bcb46ae013d44156ce8a5cea0779e4b1183947dc2bd62d42f79368ce796cc4e492ca85af9e223058a8088f79633a42336f0d53908da502610c8c337c08a7da1dd59715a4db213f827e8356cd36fe36f32cb0cedfa9019264a3b16199f5cd18739f2fac1c2cd21653fb7eec17ca07bb71e48284076ce26eec7100de458cc57962f1c7d28d27b93793ca4a330f2a7ed56f472dd4f82da05046368ef834996652e880c61271d7b34cffb91f9e196700970409f448a9252fa9b7ab230befa647833111ca81028b72b20990c105e48aa159ee27cd09c243cac6bf93df0734241ee23c589dcd439ba6513f6f3d5f28db7e78219d62f9c6acb43e0356fed6496e68783e477e4bab8d9c00cf42ce7f9d8f3bca80b0b0b64ed75146fc62a1d91b2d7873bcb8f1dc2d909775d16e059d98bc96c070dcde18cf53b2afee609bf2060b0f11c55ba099c1d757854378e64f0f6e3797b6c9bdeb9913fbfe14c1b7e9b0246ef431834aab7d4e00673c42c145b699fcf590307e026ff05c6d9a40802dd6ce967f014eb515f5ce6e8d6439ae3628a61a8964c025ae9e0062ea53c2d5fccc6d9343fb9ef843b3fcce34176a4cb2c59ddef7bfb50dec70628845bf3f45239b8a4b110e5640b9383503cce99642fd5b3984c3800b2e4fb2686b4bdc8b58851b6806b6408f9cfbaff797c2eadd23c98baa4df11edeb50dad1fe28dc69faae191420285751f4cbe3473e4f4be52cf2143f5868c82d5d0975c0f9cba81a3e02551bb350d9a29bf9232a5acbd02b01bc4fca101a37253d5d755c9c6a7cb3506224c1eadb760bb6159ff6ff896f9f72001b793addc0155142f22cc7919964252024e1c17c68a5f12d06ef05296b652b801ba13a11d1b68fec2fdac5d9048318269f610c3c610ab1ed09c78066dd17ab4c710b918a380671c76829b6429876d80d7d924de33577e9ca41cf858258146a7450019a3526782c8936e029b064995d9b21676798a64550a6f09c36331ea163bde4d19b69fe4ba64d6bbf050c549783948a9eed01584d29ba00a136c33ddc63f974f81e581effc559d9615a30ce79af74cc7aaa226a2018978f856b9eaf9a28c3fdf6df7f43c325ddc79512202f1505b175343b69c07037b4fa63b1ecb6d5f94d4635407d0b8cf8f3a735f454a1af2446147554844adfc7c9a9bb4e62c9a95ee4ad083f4fdc91eef91ca89e6768a6b59e70635fde86b89699d1662a27c21ca51ea2622b9deb66ed5c9fa781edb6eec62f69dd68f7eed750eb4409567466707df597ac7f78c90a1e8fa1a34c66a8b48a024c0ff50f5ad4a8a840ea9683f9e099175084f9baa00cd0dea422781fb1b7fd1d81041b4a50804a063f445376829db7b9c0c8f4f5161e484b5a5f707a7d7f858ba6b0b4c4f6193c4749729194ced8dee7ef0a12141b1d2933565a60b3bec5e7e8eaf9fa00000000000000000000000000000000000000000d1e2a3c01fd210500500e25a0266979abc4cc55e752bdaf3990861880da985afa3a0f008d8b4eeedc4be71f342770bbaa94ee5c3eae9ac49f7141d53c3438ee0d90b4cf1fa8172fbc1011d2dcab047b4301aea4a7cdd14d06cc96d9c7d71396722fc16d18f5d7918ea424357d70af27b5f1000b4dc3a4b02b3c8f322c7966c075cff9448f07ab2973c2ed5eceb2ec02c04dfb5229d8b77c6f5a138733318f7b359f090501192438c87990d30f622c93b6cfb16f3700990a7b541ea9cfb1ec8372de3fe1e0e87e5801bd16433c746da614e9b762dccf374e2455e099c8928b96f63839f499fbaa9666c6e0da104f43403d6eb5d1519342888ad97c345f8aeb92aa7ab7fce4f89b4fb13d4dcd3d6ef8f5be5c5dcc1aa80b7b3302dba1b9b026467973e4f61d262adc76ee508b41119c1e01d70ee9bfd263567b8649894469aa92f35d7b75cacf3fa6321af09fc83829e148db0a796c227efc1d3d748a6a5b32df844f1bb1635693c96d86cbc399a367406c555dd9ba73e89795aca870170b97a40f029d2a2d9d2791dad0472334f651c4874fa537bc34fac9db79fc80371d42f8b4a0acf685f1a73127f4a0b2e594fc45576310f5f1888a2261762ba56c31301f35a1557e6eee1d51671249d1d7dd0585b97af99ac1c10e0c3461931fc6ff1b4142686a46951be96d7a50472f6de3c7d8e5976e287ce6172753d7e6848af922023cc82f33d5121d01dd6d3916daaff63418b956a4ea167c5fd382731dcf117e29d09bc523fa784f3a37509f66ebbe1a42c120e7be91b6f5cfa3b58bcf7ce99e8de4cd544538fca7869e367e5a3936b83ab8d6ce34fe67c821284c0ab1103c45b276c52c9c56c84a87f39dc72f179c3a94922d84f6ad7f1696c4a4f309cb751fd7c58133b9d952de1420e13fb589398665bda3b2cf5075ffd91290ddaebb63ffc7f849101281f43ad4325d3d4703eca83a5b92e1352621be3de01fb1302a095eb949ccb7948302944767e11e0d09978cce556d7b792d602f40d59bd0984b7ae56d116d1e3efffbacd0070e679c8328e0bcc8903a99418129507a2f7183061ea45d599b50e18526b8c73f16c2f12157186754c3a666b5779e5c5865e07f86267c19a377599227b3b88194dd3b264de45aebfd8f85492f749961583e7ac84cc797d7878b1d09e313651c075a472676f96092acaafa88696c02bf0d019f72ff31825b7192d6178af206eba19e5559ce493daaf43f967a66901a97a4c6652439cbd9ba33c56999f9c395af83adc5f6f1d56668369903c3cc536bef221b0edec29a401e8d42cf722c080d4b3a1afc4ea650410e0565b1dbc3ed0415cd14f5bf72ebd9ed642113c121731ec32bd7a1830f278519b1c3edba2ac5b7cfb667793337a1bf0db619ca84a9fecdd6e8ab7f9027ee8e71084f320cc573a14c92eb1597d6ef15c5a2de3738ae326f3a83dc260b44c817c2ad598037b3e04a950c30163f8f28e8ef255c691147cc5929e8d8675bf47bab7829dd4bd01e904e719085da6c1a03c7dea8579a7a4790304a14b754de2e14a2287ebf2402fc8388f63ba9fda25c5e6f7c6b4cb891402d37f50d1d87f77322d6e6c93c466b6a6868c98121c4e9c51eb9aa1caae9e4f6326235efa0382f4d1e76f3f5a22e048d500d5095a680baeaeb8a1559ccfd22eb541616fb38aa09d3cb5596c1db8ba777c3e5d30d80e45b3f7d830fa3f22d467677a7334211830949b34017e156231cd3e2a89d4facd703ab2eae0c8fe19fa1ec0664d02b0f5f0f32a474853873b5e63be80aacd074858ce7d48aa82bf72f4fbb9752f9bb0678db8e4fbea63eeb0e0ecc32c1c8fd1c29f590e23de6186c20b521a95013067c000000",
  "txid": "3d6848204be1b5981c5ac0898478a9763c42257b9b41f13278c0b7be0873971e",
  "hash": "fb7f9baf0d10cab8ceb87a70ac72d45306a8173ba8022d9f06068fc1fa0d16d9",
  "size": 5085,
  "vsize": 2278,
  "version": 1,
  "locktime": 124,
  "vin": [
    {
      "txid": "e39918b17fa6de6657443f791140d9fb3a8446b1e836455e62f007d6af80b774",
      "vout": 0,
      "scriptSig": {
        "asm": "",
        "hex": ""
      },
      "txinwitness": [
        "f7822dcec36694a1d02ea85267abcb1c48176687088bb6712f8ddb09a57c3434bee1c987fb7f44ed3130ac1a7d07323708307b1324b889f3edd5ac50098527a0cf9421c3e51da1250fd5fc7d2f66000c72760a376fe488a48e9b21614dcc3e42cc36f4597da44912201d2463cafc53274b3c315cad1a3a9fda4c4eb0bee19204c28b401fa0d96f03c1ee5ed343aadde3ca1c6d5cc6aa2e79e6bf454a569c85fdc254743815a9783211598206bb64080e016afb94f26e131af8b1859e3f81e74ded75dfa9bdbaead7577ba24b92c4c0aa17ffdafdae4b76eb56d8c9debdd6e9cdf5bd2a082b24340b31fb3a93c513de403a0a85a5745da9bbb6e05b77a94584deb4db62a876647f5bca01c512e2666f6246b6b9cb3cd2523bf2a6298ccd27a8336070116c7b358a483c776d3e95104c2bdb5c0f1e7c97538d7141ff36a34023793042350a59d10f1dec22a3bc166b6603e64148bd9f09e003ac40dbdc4810e22c491dfdd2fc9324fafd60858db4453f79e80328e9ee5dfab461af3b9d2f41a0faf6c1751469324e09cf7f74cb71aa5351c1f9cfc2a62e744807db96329f3c5193d21886651976e5a7140d27a496f3456f503bc92af19cec7c747382eacd7697e15fe9f0f68dd9852f0985613bfa456d9983c049dc943155ab0b2daaeafb734b9b2f33f2691558df4fe86c160daea3ff8abc42c79935d368ab1f61a090d89413c3456d08a152f298e789b01c0bad259f4773da800d8e0af0e335f7d9d1144aee37644830a6ad6bc5b04698ce7564a255b433ced068f447bd74e4ca4776fc6ea0a3f5806f62949b07bb87e36e54cc52d3af883a188aa76ba987f91f4a626e346c6c0f8340c16dbd1cf2746efb0f6b58de190fa8b6f9fc72ef245ce813865629f77f141d6e85cf9e5a7d6eaf77fa5dd8f771f870a5ac66c9fb5ea8aab2fb7bdb1f96e9bbfd23b2a0d44bdefdc30c896455475f2de0df8b89a26f02a13e181ea376ed9f8ac7bfa58ee433e077385bf6d9790eb6387f7567de349919c03857629ec5153a977db99a45614c8b535ccb8aef4cad6b9d06424e13ccb534cb691e8f10d6e78919b32fb34bbe80bd2a5e4515baab885fcc7024b13d6c860360082acfb882710a0051276f6b9343199c5329a5ccf361faede73c0b242da77286ad275c029a6e68f170c067205387b2e2ca0ee7013a53028695c5085eae6a8a377dcdd8a5b121238f6584d66e77f04a12c518f29802cec7b3f2389328d7cddd9458568c5ac0b3062d5758f5b1363f5bddebe7a4fd0218fe0d13c246846eb1fbe2f0cb6e81ed397d71702129461c63556caae24b2d23679b786b4adea34210c8e69acad5ec5108e85d7c7fe8ae2e5e9a373bb2d61ba13379cb338b183931caee76d98018cb3d64303b39cfcdf4f18cf4508a6ebdc0cd284f6f6e80faf0190697b97c1f19da95ddc9636cb5d81c9b9c34eb13ca2496f3550dfb61cc5e28e0d04d9c23cf37cf8f1e716a14f073cbe50e835fb418e76b44d13f490b41bb1071385846c2df131e04b90d74c2eae96499ac46c1a539c93aa88dfc4a3cc2405d127c1bd23e17749136bad14c3cb5321830a14aa8906016b7245ab9de049920c6c1f48478a062c87fddcb2552a912194b43a03717c249164231238a3e6738b28460c154d2964a68cbe68444e3c2f70cae3654b6b83e446e14f91a17f303c5a1bf31fed5752664331b168d4d9d9018d205420c2d5eb91bc20232888ad18371f7bc5d59f3531499d4d1f8d73aca41537032dbf52ea53837403bd550efdcf39b9011059879d26473b2203f422f87e050be1a35cca18d80c22fa70fa23b2617fe129f44996d50c779d943958f02a32d91a92f747e49ee2dbcdcf001f9debe544897f226c71080c5e268ca7b91bf2c9a9a56b226184d912a724c8683ea14d9bf9da88e642ae2ae3efa7a949bcb46ae013d44156ce8a5cea0779e4b1183947dc2bd62d42f79368ce796cc4e492ca85af9e223058a8088f79633a42336f0d53908da502610c8c337c08a7da1dd59715a4db213f827e8356cd36fe36f32cb0cedfa9019264a3b16199f5cd18739f2fac1c2cd21653fb7eec17ca07bb71e48284076ce26eec7100de458cc57962f1c7d28d27b93793ca4a330f2a7ed56f472dd4f82da05046368ef834996652e880c61271d7b34cffb91f9e196700970409f448a9252fa9b7ab230befa647833111ca81028b72b20990c105e48aa159ee27cd09c243cac6bf93df0734241ee23c589dcd439ba6513f6f3d5f28db7e78219d62f9c6acb43e0356fed6496e68783e477e4bab8d9c00cf42ce7f9d8f3bca80b0b0b64ed75146fc62a1d91b2d7873bcb8f1dc2d909775d16e059d98bc96c070dcde18cf53b2afee609bf2060b0f11c55ba099c1d757854378e64f0f6e3797b6c9bdeb9913fbfe14c1b7e9b0246ef431834aab7d4e00673c42c145b699fcf590307e026ff05c6d9a40802dd6ce967f014eb515f5ce6e8d6439ae3628a61a8964c025ae9e0062ea53c2d5fccc6d9343fb9ef843b3fcce34176a4cb2c59ddef7bfb50dec70628845bf3f45239b8a4b110e5640b9383503cce99642fd5b3984c3800b2e4fb2686b4bdc8b58851b6806b6408f9cfbaff797c2eadd23c98baa4df11edeb50dad1fe28dc69faae191420285751f4cbe3473e4f4be52cf2143f5868c82d5d0975c0f9cba81a3e02551bb350d9a29bf9232a5acbd02b01bc4fca101a37253d5d755c9c6a7cb3506224c1eadb760bb6159ff6ff896f9f72001b793addc0155142f22cc7919964252024e1c17c68a5f12d06ef05296b652b801ba13a11d1b68fec2fdac5d9048318269f610c3c610ab1ed09c78066dd17ab4c710b918a380671c76829b6429876d80d7d924de33577e9ca41cf858258146a7450019a3526782c8936e029b064995d9b21676798a64550a6f09c36331ea163bde4d19b69fe4ba64d6bbf050c549783948a9eed01584d29ba00a136c33ddc63f974f81e581effc559d9615a30ce79af74cc7aaa226a2018978f856b9eaf9a28c3fdf6df7f43c325ddc79512202f1505b175343b69c07037b4fa63b1ecb6d5f94d4635407d0b8cf8f3a735f454a1af2446147554844adfc7c9a9bb4e62c9a95ee4ad083f4fdc91eef91ca89e6768a6b59e70635fde86b89699d1662a27c21ca51ea2622b9deb66ed5c9fa781edb6eec62f69dd68f7eed750eb4409567466707df597ac7f78c90a1e8fa1a34c66a8b48a024c0ff50f5ad4a8a840ea9683f9e099175084f9baa00cd0dea422781fb1b7fd1d81041b4a50804a063f445376829db7b9c0c8f4f5161e484b5a5f707a7d7f858ba6b0b4c4f6193c4749729194ced8dee7ef0a12141b1d2933565a60b3bec5e7e8eaf9fa00000000000000000000000000000000000000000d1e2a3c01",
        "00500e25a0266979abc4cc55e752bdaf3990861880da985afa3a0f008d8b4eeedc4be71f342770bbaa94ee5c3eae9ac49f7141d53c3438ee0d90b4cf1fa8172fbc1011d2dcab047b4301aea4a7cdd14d06cc96d9c7d71396722fc16d18f5d7918ea424357d70af27b5f1000b4dc3a4b02b3c8f322c7966c075cff9448f07ab2973c2ed5eceb2ec02c04dfb5229d8b77c6f5a138733318f7b359f090501192438c87990d30f622c93b6cfb16f3700990a7b541ea9cfb1ec8372de3fe1e0e87e5801bd16433c746da614e9b762dccf374e2455e099c8928b96f63839f499fbaa9666c6e0da104f43403d6eb5d1519342888ad97c345f8aeb92aa7ab7fce4f89b4fb13d4dcd3d6ef8f5be5c5dcc1aa80b7b3302dba1b9b026467973e4f61d262adc76ee508b41119c1e01d70ee9bfd263567b8649894469aa92f35d7b75cacf3fa6321af09fc83829e148db0a796c227efc1d3d748a6a5b32df844f1bb1635693c96d86cbc399a367406c555dd9ba73e89795aca870170b97a40f029d2a2d9d2791dad0472334f651c4874fa537bc34fac9db79fc80371d42f8b4a0acf685f1a73127f4a0b2e594fc45576310f5f1888a2261762ba56c31301f35a1557e6eee1d51671249d1d7dd0585b97af99ac1c10e0c3461931fc6ff1b4142686a46951be96d7a50472f6de3c7d8e5976e287ce6172753d7e6848af922023cc82f33d5121d01dd6d3916daaff63418b956a4ea167c5fd382731dcf117e29d09bc523fa784f3a37509f66ebbe1a42c120e7be91b6f5cfa3b58bcf7ce99e8de4cd544538fca7869e367e5a3936b83ab8d6ce34fe67c821284c0ab1103c45b276c52c9c56c84a87f39dc72f179c3a94922d84f6ad7f1696c4a4f309cb751fd7c58133b9d952de1420e13fb589398665bda3b2cf5075ffd91290ddaebb63ffc7f849101281f43ad4325d3d4703eca83a5b92e1352621be3de01fb1302a095eb949ccb7948302944767e11e0d09978cce556d7b792d602f40d59bd0984b7ae56d116d1e3efffbacd0070e679c8328e0bcc8903a99418129507a2f7183061ea45d599b50e18526b8c73f16c2f12157186754c3a666b5779e5c5865e07f86267c19a377599227b3b88194dd3b264de45aebfd8f85492f749961583e7ac84cc797d7878b1d09e313651c075a472676f96092acaafa88696c02bf0d019f72ff31825b7192d6178af206eba19e5559ce493daaf43f967a66901a97a4c6652439cbd9ba33c56999f9c395af83adc5f6f1d56668369903c3cc536bef221b0edec29a401e8d42cf722c080d4b3a1afc4ea650410e0565b1dbc3ed0415cd14f5bf72ebd9ed642113c121731ec32bd7a1830f278519b1c3edba2ac5b7cfb667793337a1bf0db619ca84a9fecdd6e8ab7f9027ee8e71084f320cc573a14c92eb1597d6ef15c5a2de3738ae326f3a83dc260b44c817c2ad598037b3e04a950c30163f8f28e8ef255c691147cc5929e8d8675bf47bab7829dd4bd01e904e719085da6c1a03c7dea8579a7a4790304a14b754de2e14a2287ebf2402fc8388f63ba9fda25c5e6f7c6b4cb891402d37f50d1d87f77322d6e6c93c466b6a6868c98121c4e9c51eb9aa1caae9e4f6326235efa0382f4d1e76f3f5a22e048d500d5095a680baeaeb8a1559ccfd22eb541616fb38aa09d3cb5596c1db8ba777c3e5d30d80e45b3f7d830fa3f22d467677a7334211830949b34017e156231cd3e2a89d4facd703ab2eae0c8fe19fa1ec0664d02b0f5f0f32a474853873b5e63be80aacd074858ce7d48aa82bf72f4fbb9752f9bb0678db8e4fbea63eeb0e0ecc32c1c8fd1c29f590e23de6186c20b521a9501306"
      ],
      "sequence": 4294967294
    }
  ],
  "vout": [
    {
      "value": 499972.5437,
      "n": 0,
      "scriptPubKey": {
        "asm": "1 b882dd88065122f09cbd76b9dd8b36d232f4daec94f8b7a38ed7389a75ac47cc",
        "hex": "5120b882dd88065122f09cbd76b9dd8b36d232f4daec94f8b7a38ed7389a75ac47cc",
        "reqSigs": 1,
        "type": "witness_v1_scripthash",
        "addresses": [
          "3QJmnh"
        ]
      }
    },
    {
      "value": 1.0,
      "n": 1,
      "scriptPubKey": {
        "asm": "OP_RETURN fc0e4dd74b08db70845312d158298af524306a6ba148c449cd2f4268d51e052e 2614a88227020beb37ca1a9538d5df4797962bacb1853a6ff58b09d2d0202941063488a207222bcb17ea3ab518f5ff67b7b60b8c91a51a4fd5ab29f2f00009616654e8c267424bab778a5ad578959f07d7d66becf1c57a2fb5cb4992906069014674c8e247626b8b57aa7af558b5bf27f7f64bccd1e55a0f95eb69b2b0404921a6942802a7828b6bb74a9a15b8555fc71716ab2c3105baef750b895250a0a9c186b4082287a2ab4b976aba3598757fe737368b0c11259acf552ba972708089e1e6d46842e7c2cb2bf70ada55f8151f875756eb6c7145faaf354bc91210e0e981c6f44862c7e2eb0bd72afa75d8353fa77776cb4c5165da8f156be93230c0c9a12614a88227020beb37ca1a9538d5df4797962bacb1853a6ff58b09d2d0202941063488a207222bcb17ea3ab518f5ff67b7b60b8c91a51a4fd5ab29f2f00009616654e8c267424bab778a5ad578959f07d7d66becf1c57a2fb5cb4992906069014674c8e247626b8b57aa7af558b5bf27f7f64bccd1e55a0f95eb69b2b0404921a6942802a7828b6bb74a9a15b8555fc71716ab2c3105baef750b895250a0a9c186b4082287a2ab4b976aba3598757fe737368b0c11259acf552ba972708089e1e6d46842e7c2cb2bf70ada55f8151f875756eb6c7145faaf354bc91210e0e981c6f44862c7e2eb0bd72afa75d8353fa77776cb4c5165da8f156be93230c0c9a12614a88227020beb37ca1a9538d5df4797962bacb1853a6ff58b09d2d0202941063488a207222bcb17ea3ab518f5ff67b7b60b8c91a51a4fd5ab29f2f00009616654e8c267424bab778a5ad578959f07d7d66becf1c57a2fb5cb4992906069014674c8e247626b8b57aa7af558b5bf27f7f64bccd1e55a0f95eb69b2b0404921a6942802a7828b6bb74a9a15b8555fc71716ab2c3105baef750b895250a0a9c186b4082287a2ab4b976aba3598757fe737368b0c11259acf552ba972708089e1e6d46842e7c2cb2bf70ada55f8151f875756eb6c7145faaf354bc91210e0e981c6f44862c7e2eb0bd72afa75d8353fa77776cb4c5165da8f156be93230c0c9a12614a88227020beb37ca1a9538d5df4797962bacb1853a6ff58b09d2d0202941063488a207222bcb17ea3ab518f5ff67b7b60b8c91a51a4fd5ab29f2f00009616654e8c267424bab778a5ad578959f07d7d66becf1c57a2fb5cb4992906069014674c8e247626b8b57aa7af558b5bf27f7f64bccd1e55a0f95eb69b2b0404921a6942802a7828b6bb74a9a15b8555fc71716ab2c3105baef750b895250a0a9c186b4082287a2ab4b976aba3598757fe737368b0c11259acf552ba972708089e1e6d46842e7c2cb2bf70ada55f8151f875756eb6c7145faaf354bc91210e0e981c6f44862c7e2eb0bd72afa75d8353fa77776cb4c5165da8f156be93230c0c9a12614a88227020beb37ca1a9538d5df4797962bacb1853a6ff58b09d2d0202941063488a207222bcb17ea3ab518f5ff67b7b60b8c91a51a4fd5ab29f2f00009616654e8c267424bab778a5ad578959f07d7d66becf1c57a2fb5cb4992906069014674c8e247626b8b57aa7af558b5bf27f7f64bccd1e55a0f95eb69b2b0404921a6942802a7828b6bb74a9a15b8555fc7c770a743ee5552a4040d537b7d60df96dbc5dc5a9483a5f9fac40bdb5a84a0b8",
        "hex": "6a20fc0e4dd74b08db70845312d158298af524306a6ba148c449cd2f4268d51e052e4db0042614a88227020beb37ca1a9538d5df4797962bacb1853a6ff58b09d2d0202941063488a207222bcb17ea3ab518f5ff67b7b60b8c91a51a4fd5ab29f2f00009616654e8c267424bab778a5ad578959f07d7d66becf1c57a2fb5cb4992906069014674c8e247626b8b57aa7af558b5bf27f7f64bccd1e55a0f95eb69b2b0404921a6942802a7828b6bb74a9a15b8555fc71716ab2c3105baef750b895250a0a9c186b4082287a2ab4b976aba3598757fe737368b0c11259acf552ba972708089e1e6d46842e7c2cb2bf70ada55f8151f875756eb6c7145faaf354bc91210e0e981c6f44862c7e2eb0bd72afa75d8353fa77776cb4c5165da8f156be93230c0c9a12614a88227020beb37ca1a9538d5df4797962bacb1853a6ff58b09d2d0202941063488a207222bcb17ea3ab518f5ff67b7b60b8c91a51a4fd5ab29f2f00009616654e8c267424bab778a5ad578959f07d7d66becf1c57a2fb5cb4992906069014674c8e247626b8b57aa7af558b5bf27f7f64bccd1e55a0f95eb69b2b0404921a6942802a7828b6bb74a9a15b8555fc71716ab2c3105baef750b895250a0a9c186b4082287a2ab4b976aba3598757fe737368b0c11259acf552ba972708089e1e6d46842e7c2cb2bf70ada55f8151f875756eb6c7145faaf354bc91210e0e981c6f44862c7e2eb0bd72afa75d8353fa77776cb4c5165da8f156be93230c0c9a12614a88227020beb37ca1a9538d5df4797962bacb1853a6ff58b09d2d0202941063488a207222bcb17ea3ab518f5ff67b7b60b8c91a51a4fd5ab29f2f00009616654e8c267424bab778a5ad578959f07d7d66becf1c57a2fb5cb4992906069014674c8e247626b8b57aa7af558b5bf27f7f64bccd1e55a0f95eb69b2b0404921a6942802a7828b6bb74a9a15b8555fc71716ab2c3105baef750b895250a0a9c186b4082287a2ab4b976aba3598757fe737368b0c11259acf552ba972708089e1e6d46842e7c2cb2bf70ada55f8151f875756eb6c7145faaf354bc91210e0e981c6f44862c7e2eb0bd72afa75d8353fa77776cb4c5165da8f156be93230c0c9a12614a88227020beb37ca1a9538d5df4797962bacb1853a6ff58b09d2d0202941063488a207222bcb17ea3ab518f5ff67b7b60b8c91a51a4fd5ab29f2f00009616654e8c267424bab778a5ad578959f07d7d66becf1c57a2fb5cb4992906069014674c8e247626b8b57aa7af558b5bf27f7f64bccd1e55a0f95eb69b2b0404921a6942802a7828b6bb74a9a15b8555fc71716ab2c3105baef750b895250a0a9c186b4082287a2ab4b976aba3598757fe737368b0c11259acf552ba972708089e1e6d46842e7c2cb2bf70ada55f8151f875756eb6c7145faaf354bc91210e0e981c6f44862c7e2eb0bd72afa75d8353fa77776cb4c5165da8f156be93230c0c9a12614a88227020beb37ca1a9538d5df4797962bacb1853a6ff58b09d2d0202941063488a207222bcb17ea3ab518f5ff67b7b60b8c91a51a4fd5ab29f2f00009616654e8c267424bab778a5ad578959f07d7d66becf1c57a2fb5cb4992906069014674c8e247626b8b57aa7af558b5bf27f7f64bccd1e55a0f95eb69b2b0404921a6942802a7828b6bb74a9a15b8555fc7c770a743ee5552a4040d537b7d60df96dbc5dc5a9483a5f9fac40bdb5a84a0b8",
        "type": "nulldata"
      }
    }
  ],
  "blockhash": "fe93069f37b49cfb15542a42b300d4e9dc573fdbbe6c5d081907ef62d551896a",
  "confirmations": 1,
  "time": 1764180962,
  "blocktime": 1764180962
}