{
  "hex": "01000000000101f194d5677e157c1f7ae8274af8dba44aed0e49aa03c7c97df9f9497bfb8c54260000000000feffffff021076cf5d792d00002251208767d8785e7e549b53cdf32a76c6d02b25e3de754874040d694bafe98b11fb2600e1f50500000000fdd5046a2036ce79b9e2e33757a9898fc7a5bcb348372afacee9539d861a7b2da8ae80c96b4db004e597db1224fe435d9d06d5a9a852bd65c53ee1177a63facf518fb3859428bc1ec5b7fb3204de637dbd26f58988729d45e51ec1375a43daef71af93a5b4089c3ea5d79b5264be031ddd4695e9e812fd25857ea1573a23ba8f11cff3c5d468fc5e85f7bb72449e233dfd66b5c9c832dd05a55e81771a039aaf31efd3e5f448dc7e65175b92a47ec3dd1d86552928d23de545be6197fae37a4fd10f330514a83c9e45377bb2845ee3fd3da6750908f21dc5659e41b7dac35a6ff12f132534881cbe25571bd2e43e839d5dc6156968927da505fe21d7baa33a0f914f734554e87cde05773bf2c41ea3bd7de6354948b25d8525de01f79a831a2fb16f536574c85cfee597db1224fe435d9d06d5a9a852bd65c53ee1177a63facf518fb3859428bc1ec5b7fb3204de637dbd26f58988729d45e51ec1375a43daef71af93a5b4089c3ea5d79b5264be031ddd4695e9e812fd25857ea1573a23ba8f11cff3c5d468fc5e85f7bb72449e233dfd66b5c9c832dd05a55e81771a039aaf31efd3e5f448dc7e65175b92a47ec3dd1d86552928d23de545be6197fae37a4fd10f330514a83c9e45377bb2845ee3fd3da6750908f21dc5659e41b7dac35a6ff12f132534881cbe25571bd2e43e839d5dc6156968927da505fe21d7baa33a0f914f734554e87cde05773bf2c41ea3bd7de6354948b25d8525de01f79a831a2fb16f536574c85cfee597db1224fe435d9d06d5a9a852bd65c53ee1177a63facf518fb3859428bc1ec5b7fb3204de637dbd26f58988729d45e51ec1375a43daef71af93a5b4089c3ea5d79b5264be031ddd4695e9e812fd25857ea1573a23ba8f11cff3c5d468fc5e85f7bb72449e233dfd66b5c9c832dd05a55e81771a039aaf31efd3e5f448dc7e65175b92a47ec3dd1d86552928d23de545be6197fae37a4fd10f330514a83c9e45377bb2845ee3fd3da6750908f21dc5659e41b7dac35a6ff12f132534881cbe25571bd2e43e839d5dc6156968927da505fe21d7baa33a0f914f734554e87cde05773bf2c41ea3bd7de6354948b25d8525de01f79a831a2fb16f536574c85cfee597db1224fe435d9d06d5a9a852bd65c53ee1177a63facf518fb3859428bc1ec5b7fb3204de637dbd26f58988729d45e51ec1375a43daef71af93a5b4089c3ea5d79b5264be031ddd4695e9e812fd25857ea1573a23ba8f11cff3c5d468fc5e85f7bb72449e233dfd66b5c9c832dd05a55e81771a039aaf31efd3e5f448dc7e65175b92a47ec3dd1d86552928d23de545be6197fae37a4fd10f330514a83c9e45377bb2845ee3fd3da6750908f21dc5659e41b7dac35a6ff12f132534881cbe25571bd2e43e839d5dc6156968927da505fe21d7baa33a0f914f734554e87cde05773bf2c41ea3bd7de6354948b25d8525de01f79a831a2fb16f536574c85cfee597db1224fe435d9d06d5a9a852bd65c53ee1177a63facf518fb3859428bc1ec5b7fb3204de637dbd26f58988729d45e51ec1375a43daef71af93a5b4089c3ea5d79b5264be031ddd4695e9e812fd25857ea1573a23ba8f11cff3c5d468fc5e85f7bb72449e233dfd66b5c9c832dd05a55e81771a039aaf31efd3e5f448dc7e65175b92a47ec3dd1d86552928d23de55e8a3e75a1bd487edd58060be54c008d0df9e411770f894352d7c2de812c941702fd7509343472c7de7edfbc0579ef52936d1693299740ee270fca3e5c8ac48fc502a44b4d933afc7b287e25af358cbf4a2ac76e270449ebb7cb52b592faddcc8ee5466e5a751a54843bea0b26ad9f3e474cea882f817160877bad3bda1a850d9a1e9b30411901fff083f8eef00f5357711f43cf2776a68dee15785af546d351b48e84e25a754e5bbc1434cece6f53e71a75c729899ff2e0374be12d178798ed582e1fa881a1ec58c94a796818b21ca7aa07f057fa773af86891a7d8afb149f67dcd13aa30e0a74f30320ccf00eff3978ec045bd7d2d7e87374f3f6eab4bda69e96c632edc588550228576ca5db3ca3de3a6ee80b7e3d8fd076baf101efc81950c7333b4c998c3a19377247f8f45d5395b391f2c79021ede21283807a0f626ef1b4c478185c5468e6a308ed0280ed1e85811d7af5df682ce54e58da4dd2e2233dfbd8476cbb1f99debbd7167f5110f695ae69fcad2b6b97641fa1101870fa2bdfec45b37043cf742b51f544249b8808544df1bbf15dc496d213e4166f14274f97f140838dbf4d5a8d21e416e1d3a9c221850fe220fd41858ca1887a3f04aeb6b99dede795f65df0512c92b2f4ffad14ffd184fab7489af6bb6de031d4ae905ed8b647fc2103d3196dba4509131d59071e48802e9c2b5a8d953897d41a19ee2dc4ad553119895b78cef05e6610244aee19cd4f4c65f698f3eb9a4a72545d0b488e15e0f96882055e497d0573c2846394b982d3615f6f5e8d25c14c723468d8744bd39ac45bba16900138c2e65b45e4eeef55e6f99575465bd756c7a83159b79cd4e3429f883e6c8145927de0d11c08135aa55c10889d3f5910e11e9ea3df293607ff6dbfbc2e01f32c60e6e96eb042afc99c39f16925c14bb111be34056968a3b4a2323600394f3004782debe975530858c0d49bc3c1dfba91c5ff0cf3aa89b9cdab53f1a182ec06f59d88393ef1346340ae7e2569ea701829e3d52134d960b6a00e305de1f087b7d85f7a40d4235eb20ef9bf23e5ec37203869c27dcd56c2b641586a2f760207b3db8fec1be497915c2ea2605ed5e5a4a8a8c74676caa68841bd4bff862b84c207b6b594f92b9dfa9f4c228207ec283964901c7fe33715141bf46c4109596aa252c752c9cc704e66bff3d1dcc585d4ace6aaaa9557d4b5e12df13793cbe783139a96750f890dc25f00477de9aa87c4203e334d6f9be08dd1b69b4ac60ac62e93d9a90dc22b22c2a5a9eb3b1ee9aa817351dbcfb18c80d6c3150e19c0524160916b8579cf410c5652d01161289fbc710e3d796dc40eaf28b649bd3203e548fcf0cd4c02965e4969230bc77f760a708931432721f2685d04c082d763bcc05047b9590a3b78b4df9d927e6f7453f64f76c41853f81a6246fcde8ce3486e3c913ce59382154abe3ec6b1a11f25a1cc831f62d01447ab8d86d1ac3c82892652911b4c5c362386b5cadaf611400f6d33cf73afa5aebd0f3ba3af2606db9690372cc2c75aa9675865128f88f68112d33665701213ea9137c53aedd3f341e1e3370f3fafa4d1023dcfa5bf4fc5c74a2c056caaaa791a5788434f986575ec74fbd003442654956003ed475ec8a8c300019e59c8b2376a9418f0f3adfdbd05993fb831f62424f95ab365cd0a66acc5db73968e5aa952cf1825111e91ffc879a10e3343e0fd8bac95e945ffb697e918afdaa109f7ca1fb54839b56a43ba0b1f1ce5144575c50c609313cde4f727a21474cf71ef27bc772db75a39e8db6a580500434306f23066af685621a57eaee0f2518ca5de2105b32b86827b5097a0f6d8a713bf1e28bfa0a7d0bfa6b03cd01942aa83842a650cfda82381b2cdfa592cff0a75689c91bbdf107efb8903f682de35755d4085c923a1d0ffb4ef302eef83036a45d6ec808da8e4c5dcd022cf993972fddba55ebaced9a4fb10695b5fd9276a0993c490b793d4b69065e2add31cd24597ef724ec9a219d0634dc05582d54bfc53fda6896f23cb68f383426a0f5a898c7c65f803aa49aaaf54246030bb100f4c8c60224052f3367210b0ba34803f86c3c7f83c4b511d46a8adbb1a0e589f3995f13a7e79ede3524d5299b5925afb333628170d5105309ed32f3fe73384c609bdd559d0f3f0598b564c4bbefb74eecbccfb8382bff87c6a8f260087adf5fa337b7bff1d1a53f9e27647daff6ac0d423b41e7626aa2e12f3aae336edb50a6c894e50931e97de602c78fc06e8111255131c360f7e366abb8007f49f0b235c9c83c83a41927260ceb61d716fb5592f43793bf5c298f6737db8eadd40559e7ddddad490a25e4577f114dd17a1a969cf118fe232ecf7a32703077c36b99995843e76917c19c3a649595526588cd719edfb845ca71ac98c23045e5da4b9522669e03cbe5350a407365bdc03dcf954cda8b781da5a09a939bac3b029ddc6d5c84ce8448fd85718ad8efea732fd4eab533ab8694f61c142e0005f4213d1432330d5de3f9908e1e636d45b66ea55c0e2d3cdc60742ab6f74650b4987854ae5f8766a10e492e8a51302155bfaa68265288b2082f1a9cc9cac95dd28f57144c5a2462333e78b0bcf9481d5effc55c4f68396af8272c80010c260ac614cfe2f7234ee5b904993486a06f6a9e888e22548dd354fd0dcf2b4c799172e1a7b08d317825fc835a14eb80160a61806dabee0b1ed48b87591379a187859881b386f7529883a90bbc8f1dda69d38bf23eec7b2eee9c8dd028712190992b3edba1d4ab4337ee68f01fcbd4ae410552e2cb2eed631a609c93324bf92f92d952faa74a5e601d572047f78af01c8ce4f0c4adb79299b22c5ae669037f9dbf213147b9b25b1aaeadd0b61044c1115344c9697ab5b310035d5bb760b4361b8024b9043f953ac4e671d819418590b8da02e9c6ac2a7166d22020a479dabd088aedc3b7ef953280317b5bf61b23812d44770d947b4ba90b98426870fa3a613387bf602a6204d3c0bc7fe994f225ead85f6bc76268e6d4ab91e6606cc62d3d0497f0f8b7e9f93b56692cccaa3f71e419737e5d7d0d73c965f7eab45c409eb53757c82c1ea89cce8636b6c689f28296ae3a1f897b587c89a6d8261b96e59652f82303a874cebdb044a87c42ccf3714db77b0086f99b4af0f3c0f2ecd7e63ed5bd4b424c9435c9c3a997032e7704ddd350593918e3b8a5125d9362471af99214faef5e7be78ed0e67f2b2e090a350acf231b051c1a0282cf6fc761419254c70986b5c3438a61e88e2e8d86989e5241b7aa2775c37fd4905d75e4386e865aa9f4b544f46e6e42a8344489eb3faaefcf9cc69756103e3f40424469898e93c9d3f5f807282d515d6c737984b8b9c2c3eb0005081f3542526065718ea3aeb3b6c2dae7edee31506474797c8b9dacaec2c5cdcfdae6fe0000000000000000000000000000000e1c304101fd210500e4cf5e0c4c0814a1c1adfef60e9f1cbc66b5269ba49da9bd3f6b2137e5e8540c3f9e882a2374beaab1fce0d21e7e41b7ece09204b96077f789a9dd60b2cc7598fb31049d7740129c592a8de1af340b83bb787c53365871b9bfb262f09c8d6a6596f0ae8101325efeeca54f25c78bf238be262ca8bafb1df2d3755cea09aa62431d94a631edddf452acd611450c7a7e43bf20794993453f1fbc13a20ad1304f0565c0680433c417c0001840c216ccb41b1b7881e3a626942e11373f537f02533331d73a741b62b4450c68233f2f221ef46b32326e7624b70fedb627d35249da9e9740193a9f072934ef3ee6086bdee431ac96217a8464c6859a3fec3912c197ab0338ac0faf1f0fe3aa4f41d5d4d2a112ea5d1568585f47997ef473eb2d9991a1365e8973debdafb1183964141122e35d6fb16f80256a137b80395885e62022de74eb3b7b3a75e290e89e97eb65cbf22a740cac93eb95571969f0868426dd36764ccd58ed64ab09035ddc29294384688ab8e99ccf66de4be49bac50923e7bcaf23650916a98f6c0c633975a8cc65eb3344c0f9e9958273e37d8d49c9b0ec529f4354326f7169b87d517f40f7239a538126b4f58db18057d56f8ecf55e5c9f3d6b0a2d5d531df1e51dc331824b0f5a8f7f22f9a565bd7a491abe67c559ff940a77d508e4d2e625fca12ca825753610152fe632a8823c4801b0251c7e957583a8668475044e009d7901b01f95558d5c8e34a4125f89b45800536da9eff24cb9a83527c95c351ebe78b17e5cfe849e5b4b915628f19afb0c4706a536adff59931c6796da61b99d7a5c68e30fa99027d436dc32ba3fa688b4895119ed5565d85f8736d0c011463fe124f1611999178d060a28fbc263eb1599d7e1fea1fe0002dc06ddd2dfb06996013d01d0da4882e24a47b81ba58e01b0b21c9c19eddeff4a72bfb9f521f9437747e4b2fb0c8d615fa214c36bd0fbed4ad9e30cbb649b71bbe60eab74eb574e3afa9a15c7a017ab04eb63999c520cee9b7a0b1dad6df389adde8f96c419bf5c161b548e485e2f6d51b476f9b9d23ab8e06e85949f685935c18f03e60e33c9f039c584e967b199675946e4c8a6176d1738a509a511d1578234c938ceb7cf69e6cb9adb512f441efd8825c13ac02fdf17af398c545373788d1bdff24fac647fe281dda3a5d0ccb1b67a87d7e8253d9f862891e294bd5b44070ad2ba430df7d8ff4437293570243cf0865704f07aee51b7ba28f8584e7f529ec0a0eccdbe8e01eb7d3692550b7c078deac6cb2fa7927a52abf1a55158d8b410a8f8302c0284c601638ed476b633a98dba98287dabb9d7512fb0a1206d451c9caaf37fbde934442a31bfb74fcdef1bfaed83d57008116634a9cbf5ad87a099a083b06238f9735ca96ceae136edd83f0ca0b229d4031183edaa728220e20718b68d84f900042cc26c4b939aba72df79ba2d15220c9b7b73b012b0995fefa67804f11a9a2576cb56ac03698d19e172c6742e141ec9d8fd01d1f21ee896248913bdcbae84cd46c150ca8ea5299b8dd7dfda0dfcec499f9a0dc6f1ea1d3c5a3a1ed8862faf8216c674cae63572bcb7382bceea9189aa22064471ce0b940c7d148b7bce3bac3222c73cdb90e290a80990fd0558033c8289d5a3fc7c089c8de9157cb611dc154523ebd5f56c016242107a23d89e843aeac9d54aeaa549d2a569e49732dbe2d17e15276cc5b1b5f05a8f3f6030f8bc53b7ed885f4167638c70fb7a5411850fe68e2193d34367dab3bdcb7f7d2e90956261d78f8974597cef5f2805fbe16755d71524f66801802caa71f2918366575f87f661410cc49053aea4874f098f132c971569000000",
  "txid": "37a593e3086ece93ef8b3117f74e57b5dddeb240e465ead64c134d4500f925f1",
  "hash": "5586b7a16d0d29e22841af9593b30a5c3883a478f4270f9ac25f891bbe264d12",
  "size": 5085,
  "vsize": 2278,
  "version": 1,
  "locktime": 105,
  "vin": [
    {
      "txid": "26548cfb7b49f9f97dc9c703aa490eed4aa4dbf84a27e87a1f7c157e67d594f1",
      "vout": 0,
      "scriptSig": {
        "asm": "",
        "hex": ""
      },
      "txinwitness": [
        "343472c7de7edfbc0579ef52936d1693299740ee270fca3e5c8ac48fc502a44b4d933afc7b287e25af358cbf4a2ac76e270449ebb7cb52b592faddcc8ee5466e5a751a54843bea0b26ad9f3e474cea882f817160877bad3bda1a850d9a1e9b30411901fff083f8eef00f5357711f43cf2776a68dee15785af546d351b48e84e25a754e5bbc1434cece6f53e71a75c729899ff2e0374be12d178798ed582e1fa881a1ec58c94a796818b21ca7aa07f057fa773af86891a7d8afb149f67dcd13aa30e0a74f30320ccf00eff3978ec045bd7d2d7e87374f3f6eab4bda69e96c632edc588550228576ca5db3ca3de3a6ee80b7e3d8fd076baf101efc81950c7333b4c998c3a19377247f8f45d5395b391f2c79021ede21283807a0f626ef1b4c478185c5468e6a308ed0280ed1e85811d7af5df682ce54e58da4dd2e2233dfbd8476cbb1f99debbd7167f5110f695ae69fcad2b6b97641fa1101870fa2bdfec45b37043cf742b51f544249b8808544df1bbf15dc496d213e4166f14274f97f140838dbf4d5a8d21e416e1d3a9c221850fe220fd41858ca1887a3f04aeb6b99dede795f65df0512c92b2f4ffad14ffd184fab7489af6bb6de031d4ae905ed8b647fc2103d3196dba4509131d59071e48802e9c2b5a8d953897d41a19ee2dc4ad553119895b78cef05e6610244aee19cd4f4c65f698f3eb9a4a72545d0b488e15e0f96882055e497d0573c2846394b982d3615f6f5e8d25c14c723468d8744bd39ac45bba16900138c2e65b45e4eeef55e6f99575465bd756c7a83159b79cd4e3429f883e6c8145927de0d11c08135aa55c10889d3f5910e11e9ea3df293607ff6dbfbc2e01f32c60e6e96eb042afc99c39f16925c14bb111be34056968a3b4a2323600394f3004782debe975530858c0d49bc3c1dfba91c5ff0cf3aa89b9cdab53f1a182ec06f59d88393ef1346340ae7e2569ea701829e3d52134d960b6a00e305de1f087b7d85f7a40d4235eb20ef9bf23e5ec37203869c27dcd56c2b641586a2f760207b3db8fec1be497915c2ea2605ed5e5a4a8a8c74676caa68841bd4bff862b84c207b6b594f92b9dfa9f4c228207ec283964901c7fe33715141bf46c4109596aa252c752c9cc704e66bff3d1dcc585d4ace6aaaa9557d4b5e12df13793cbe783139a96750f890dc25f00477de9aa87c4203e334d6f9be08dd1b69b4ac60ac62e93d9a90dc22b22c2a5a9eb3b1ee9aa817351dbcfb18c80d6c3150e19c0524160916b8579cf410c5652d01161289fbc710e3d796dc40eaf28b649bd3203e548fcf0cd4c02965e4969230bc77f760a708931432721f2685d04c082d763bcc05047b9590a3b78b4df9d927e6f7453f64f76c41853f81a6246fcde8ce3486e3c913ce59382154abe3ec6b1a11f25a1cc831f62d01447ab8d86d1ac3c82892652911b4c5c362386b5cadaf611400f6d33cf73afa5aebd0f3ba3af2606db9690372cc2c75aa9675865128f88f68112d33665701213ea9137c53aedd3f341e1e3370f3fafa4d1023dcfa5bf4fc5c74a2c056caaaa791a5788434f986575ec74fbd003442654956003ed475ec8a8c300019e59c8b2376a9418f0f3adfdbd05993fb831f62424f95ab365cd0a66acc5db73968e5aa952cf1825111e91ffc879a10e3343e0fd8bac95e945ffb697e918afdaa109f7ca1fb54839b56a43ba0b1f1ce5144575c50c609313cde4f727a21474cf71ef27bc772db75a39e8db6a580500434306f23066af685621a57eaee0f2518ca5de2105b32b86827b5097a0f6d8a713bf1e28bfa0a7d0bfa6b03cd01942aa83842a650cfda82381b2cdfa592cff0a75689c91bbdf107efb8903f682de35755d4085c923a1d0ffb4ef302eef83036a45d6ec808da8e4c5dcd022cf993972fddba55ebaced9a4fb10695b5fd9276a0993c490b793d4b69065e2add31cd24597ef724ec9a219d0634dc05582d54bfc53fda6896f23cb68f383426a0f5a898c7c65f803aa49aaaf54246030bb100f4c8c60224052f3367210b0ba34803f86c3c7f83c4b511d46a8adbb1a0e589f3995f13a7e79ede3524d5299b5925afb333628170d5105309ed32f3fe73384c609bdd559d0f3f0598b564c4bbefb74eecbccfb8382bff87c6a8f260087adf5fa337b7bff1d1a53f9e27647daff6ac0d423b41e7626aa2e12f3aae336edb50a6c894e50931e97de602c78fc06e8111255131c360f7e366abb8007f49f0b235c9c83c83a41927260ceb61d716fb5592f43793bf5c298f6737db8eadd40559e7ddddad490a25e4577f114dd17a1a969cf118fe232ecf7a32703077c36b99995843e76917c19c3a649595526588cd719edfb845ca71ac98c23045e5da4b9522669e03cbe5350a407365bdc03dcf954cda8b781da5a09a939bac3b029ddc6d5c84ce8448fd85718ad8efea732fd4eab533ab8694f61c142e0005f4213d1432330d5de3f9908e1e636d45b66ea55c0e2d3cdc60742ab6f74650b4987854ae5f8766a10e492e8a51302155bfaa68265288b2082f1a9cc9cac95dd28f57144c5a2462333e78b0bcf9481d5effc55c4f68396af8272c80010c260ac614cfe2f7234ee5b904993486a06f6a9e888e22548dd354fd0dcf2b4c799172e1a7b08d317825fc835a14eb80160a61806dabee0b1ed48b87591379a187859881b386f7529883a90bbc8f1dda69d38bf23eec7b2eee9c8dd028712190992b3edba1d4ab4337ee68f01fcbd4ae410552e2cb2eed631a609c93324bf92f92d952faa74a5e601d572047f78af01c8ce4f0c4adb79299b22c5ae669037f9dbf213147b9b25b1aaeadd0b61044c1115344c9697ab5b310035d5bb760b4361b8024b9043f953ac4e671d819418590b8da02e9c6ac2a7166d22020a479dabd088aedc3b7ef953280317b5bf61b23812d44770d947b4ba90b98426870fa3a613387bf602a6204d3c0bc7fe994f225ead85f6bc76268e6d4ab91e6606cc62d3d0497f0f8b7e9f93b56692cccaa3f71e419737e5d7d0d73c965f7eab45c409eb53757c82c1ea89cce8636b6c689f28296ae3a1f897b587c89a6d8261b96e59652f82303a874cebdb044a87c42ccf3714db77b0086f99b4af0f3c0f2ecd7e63ed5bd4b424c9435c9c3a997032e7704ddd350593918e3b8a5125d9362471af99214faef5e7be78ed0e67f2b2e090a350acf231b051c1a0282cf6fc761419254c70986b5c3438a61e88e2e8d86989e5241b7aa2775c37fd4905d75e4386e865aa9f4b544f46e6e42a8344489eb3faaefcf9cc69756103e3f40424469898e93c9d3f5f807282d515d6c737984b8b9c2c3eb0005081f3542526065718ea3aeb3b6c2dae7edee31506474797c8b9dacaec2c5cdcfdae6fe0000000000000000000000000000000e1c304101",
        "00e4cf5e0c4c0814a1c1adfef60e9f1cbc66b5269ba49da9bd3f6b2137e5e8540c3f9e882a2374beaab1fce0d21e7e41b7ece09204b96077f789a9dd60b2cc7598fb31049d7740129c592a8de1af340b83bb787c53365871b9bfb262f09c8d6a6596f0ae8101325efeeca54f25c78bf238be262ca8bafb1df2d3755cea09aa62431d94a631edddf452acd611450c7a7e43bf20794993453f1fbc13a20ad1304f0565c0680433c417c0001840c216ccb41b1b7881e3a626942e11373f537f02533331d73a741b62b4450c68233f2f221ef46b32326e7624b70fedb627d35249da9e9740193a9f072934ef3ee6086bdee431ac96217a8464c6859a3fec3912c197ab0338ac0faf1f0fe3aa4f41d5d4d2a112ea5d1568585f47997ef473eb2d9991a1365e8973debdafb1183964141122e35d6fb16f80256a137b80395885e62022de74eb3b7b3a75e290e89e97eb65cbf22a740cac93eb95571969f0868426dd36764ccd58ed64ab09035ddc29294384688ab8e99ccf66de4be49bac50923e7bcaf23650916a98f6c0c633975a8cc65eb3344c0f9e9958273e37d8d49c9b0ec529f4354326f7169b87d517f40f7239a538126b4f58db18057d56f8ecf55e5c9f3d6b0a2d5d531df1e51dc331824b0f5a8f7f22f9a565bd7a491abe67c559ff940a77d508e4d2e625fca12ca825753610152fe632a8823c4801b0251c7e957583a8668475044e009d7901b01f95558d5c8e34a4125f89b45800536da9eff24cb9a83527c95c351ebe78b17e5cfe849e5b4b915628f19afb0c4706a536adff59931c6796da61b99d7a5c68e30fa99027d436dc32ba3fa688b4895119ed5565d85f8736d0c011463fe124f1611999178d060a28fbc263eb1599d7e1fea1fe0002dc06ddd2dfb06996013d01d0da4882e24a47b81ba58e01b0b21c9c19eddeff4a72bfb9f521f9437747e4b2fb0c8d615fa214c36bd0fbed4ad9e30cbb649b71bbe60eab74eb574e3afa9a15c7a017ab04eb63999c520cee9b7a0b1dad6df389adde8f96c419bf5c161b548e485e2f6d51b476f9b9d23ab8e06e85949f685935c18f03e60e33c9f039c584e967b199675946e4c8a6176d1738a509a511d1578234c938ceb7cf69e6cb9adb512f441efd8825c13ac02fdf17af398c545373788d1bdff24fac647fe281dda3a5d0ccb1b67a87d7e8253d9f862891e294bd5b44070ad2ba430df7d8ff4437293570243cf0865704f07aee51b7ba28f8584e7f529ec0a0eccdbe8e01eb7d3692550b7c078deac6cb2fa7927a52abf1a55158d8b410a8f8302c0284c601638ed476b633a98dba98287dabb9d7512fb0a1206d451c9caaf37fbde934442a31bfb74fcdef1bfaed83d57008116634a9cbf5ad87a099a083b06238f9735ca96ceae136edd83f0ca0b229d4031183edaa728220e20718b68d84f900042cc26c4b939aba72df79ba2d15220c9b7b73b012b0995fefa67804f11a9a2576cb56ac03698d19e172c6742e141ec9d8fd01d1f21ee896248913bdcbae84cd46c150ca8ea5299b8dd7dfda0dfcec499f9a0dc6f1ea1d3c5a3a1ed8862faf8216c674cae63572bcb7382bceea9189aa22064471ce0b940c7d148b7bce3bac3222c73cdb90e290a80990fd0558033c8289d5a3fc7c089c8de9157cb611dc154523ebd5f56c016242107a23d89e843aeac9d54aeaa549d2a569e49732dbe2d17e15276cc5b1b5f05a8f3f6030f8bc53b7ed885f4167638c70fb7a5411850fe68e2193d34367dab3bdcb7f7d2e90956261d78f8974597cef5f2805fbe16755d71524f66801802caa71f2918366575f87f661410cc49053aea4874f098f132c9715"
      ],
      "sequence": 4294967294
    }
  ],
  "vout": [
    {
      "value": 499992.8817,
      "n": 0,
      "scriptPubKey": {
        "asm": "1 8767d8785e7e549b53cdf32a76c6d02b25e3de754874040d694bafe98b11fb26",
        "hex": "51208767d8785e7e549b53cdf32a76c6d02b25e3de754874040d694bafe98b11fb26",
        "reqSigs": 1,
        "type": "witness_v1_scripthash",
        "addresses": [
          "3QJmnh"
        ]
      }
    },
    {
      "value": 1.0,
      "n": 1,
      "scriptPubKey": {
        "asm": "OP_RETURN 36ce79b9e2e33757a9898fc7a5bcb348372afacee9539d861a7b2da8ae80c96b e597db1224fe435d9d06d5a9a852bd65c53ee1177a63facf518fb3859428bc1ec5b7fb3204de637dbd26f58988729d45e51ec1375a43daef71af93a5b4089c3ea5d79b5264be031ddd4695e9e812fd25857ea1573a23ba8f11cff3c5d468fc5e85f7bb72449e233dfd66b5c9c832dd05a55e81771a039aaf31efd3e5f448dc7e65175b92a47ec3dd1d86552928d23de545be6197fae37a4fd10f330514a83c9e45377bb2845ee3fd3da6750908f21dc5659e41b7dac35a6ff12f132534881cbe25571bd2e43e839d5dc6156968927da505fe21d7baa33a0f914f734554e87cde05773bf2c41ea3bd7de6354948b25d8525de01f79a831a2fb16f536574c85cfee597db1224fe435d9d06d5a9a852bd65c53ee1177a63facf518fb3859428bc1ec5b7fb3204de637dbd26f58988729d45e51ec1375a43daef71af93a5b4089c3ea5d79b5264be031ddd4695e9e812fd25857ea1573a23ba8f11cff3c5d468fc5e85f7bb72449e233dfd66b5c9c832dd05a55e81771a039aaf31efd3e5f448dc7e65175b92a47ec3dd1d86552928d23de545be6197fae37a4fd10f330514a83c9e45377bb2845ee3fd3da6750908f21dc5659e41b7dac35a6ff12f132534881cbe25571bd2e43e839d5dc6156968927da505fe21d7baa33a0f914f734554e87cde05773bf2c41ea3bd7de6354948b25d8525de01f79a831a2fb16f536574c85cfee597db1224fe435d9d06d5a9a852bd65c53ee1177a63facf518fb3859428bc1ec5b7fb3204de637dbd26f58988729d45e51ec1375a43daef71af93a5b4089c3ea5d79b5264be031ddd4695e9e812fd25857ea1573a23ba8f11cff3c5d468fc5e85f7bb72449e233dfd66b5c9c832dd05a55e81771a039aaf31efd3e5f448dc7e65175b92a47ec3dd1d86552928d23de545be6197fae37a4fd10f330514a83c9e45377bb2845ee3fd3da6750908f21dc5659e41b7dac35a6ff12f132534881cbe25571bd2e43e839d5dc6156968927da505fe21d7baa33a0f914f734554e87cde05773bf2c41ea3bd7de6354948b25d8525de01f79a831a2fb16f536574c85cfee597db1224fe435d9d06d5a9a852bd65c53ee1177a63facf518fb3859428bc1ec5b7fb3204de637dbd26f58988729d45e51ec1375a43daef71af93a5b4089c3ea5d79b5264be031ddd4695e9e812fd25857ea1573a23ba8f11cff3c5d468fc5e85f7bb72449e233dfd66b5c9c832dd05a55e81771a039aaf31efd3e5f448dc7e65175b92a47ec3dd1d86552928d23de545be6197fae37a4fd10f330514a83c9e45377bb2845ee3fd3da6750908f21dc5659e41b7dac35a6ff12f132534881cbe25571bd2e43e839d5dc6156968927da505fe21d7baa33a0f914f734554e87cde05773bf2c41ea3bd7de6354948b25d8525de01f79a831a2fb16f536574c85cfee597db1224fe435d9d06d5a9a852bd65c53ee1177a63facf518fb3859428bc1ec5b7fb3204de637dbd26f58988729d45e51ec1375a43daef71af93a5b4089c3ea5d79b5264be031ddd4695e9e812fd25857ea1573a23ba8f11cff3c5d468fc5e85f7bb72449e233dfd66b5c9c832dd05a55e81771a039aaf31efd3e5f448dc7e65175b92a47ec3dd1d86552928d23de55e8a3e75a1bd487edd58060be54c008d0df9e411770f894352d7c2de812c9417",
        "hex": "6a2036ce79b9e2e33757a9898fc7a5bcb348372afacee9539d861a7b2da8ae80c96b4db004e597db1224fe435d9d06d5a9a852bd65c53ee1177a63facf518fb3859428bc1ec5b7fb3204de637dbd26f58988729d45e51ec1375a43daef71af93a5b4089c3ea5d79b5264be031ddd4695e9e812fd25857ea1573a23ba8f11cff3c5d468fc5e85f7bb72449e233dfd66b5c9c832dd05a55e81771a039aaf31efd3e5f448dc7e65175b92a47ec3dd1d86552928d23de545be6197fae37a4fd10f330514a83c9e45377bb2845ee3fd3da6750908f21dc5659e41b7dac35a6ff12f132534881cbe25571bd2e43e839d5dc6156968927da505fe21d7baa33a0f914f734554e87cde05773bf2c41ea3bd7de6354948b25d8525de01f79a831a2fb16f536574c85cfee597db1224fe435d9d06d5a9a852bd65c53ee1177a63facf518fb3859428bc1ec5b7fb3204de637dbd26f58988729d45e51ec1375a43daef71af93a5b4089c3ea5d79b5264be031ddd4695e9e812fd25857ea1573a23ba8f11cff3c5d468fc5e85f7bb72449e233dfd66b5c9c832dd05a55e81771a039aaf31efd3e5f448dc7e65175b92a47ec3dd1d86552928d23de545be6197fae37a4fd10f330514a83c9e45377bb2845ee3fd3da6750908f21dc5659e41b7dac35a6ff12f132534881cbe25571bd2e43e839d5dc6156968927da505fe21d7baa33a0f914f734554e87cde05773bf2c41ea3bd7de6354948b25d8525de01f79a831a2fb16f536574c85cfee597db1224fe435d9d06d5a9a852bd65c53ee1177a63facf518fb3859428bc1ec5b7fb3204de637dbd26f58988729d45e51ec1375a43daef71af93a5b4089c3ea5d79b5264be031ddd4695e9e812fd25857ea1573a23ba8f11cff3c5d468fc5e85f7bb72449e233dfd66b5c9c832dd05a55e81771a039aaf31efd3e5f448dc7e65175b92a47ec3dd1d86552928d23de545be6197fae37a4fd10f330514a83c9e45377bb2845ee3fd3da6750908f21dc5659e41b7dac35a6ff12f132534881cbe25571bd2e43e839d5dc6156968927da505fe21d7baa33a0f914f734554e87cde05773bf2c41ea3bd7de6354948b25d8525de01f79a831a2fb16f536574c85cfee597db1224fe435d9d06d5a9a852bd65c53ee1177a63facf518fb3859428bc1ec5b7fb3204de637dbd26f58988729d45e51ec1375a43daef71af93a5b4089c3ea5d79b5264be031ddd4695e9e812fd25857ea1573a23ba8f11cff3c5d468fc5e85f7bb72449e233dfd66b5c9c832dd05a55e81771a039aaf31efd3e5f448dc7e65175b92a47ec3dd1d86552928d23de545be6197fae37a4fd10f330514a83c9e45377bb2845ee3fd3da6750908f21dc5659e41b7dac35a6ff12f132534881cbe25571bd2e43e839d5dc6156968927da505fe21d7baa33a0f914f734554e87cde05773bf2c41ea3bd7de6354948b25d8525de01f79a831a2fb16f536574c85cfee597db1224fe435d9d06d5a9a852bd65c53ee1177a63facf518fb3859428bc1ec5b7fb3204de637dbd26f58988729d45e51ec1375a43daef71af93a5b4089c3ea5d79b5264be031ddd4695e9e812fd25857ea1573a23ba8f11cff3c5d468fc5e85f7bb72449e233dfd66b5c9c832dd05a55e81771a039aaf31efd3e5f448dc7e65175b92a47ec3dd1d86552928d23de55e8a3e75a1bd487edd58060be54c008d0df9e411770f894352d7c2de812c9417",
        "type": "nulldata"
      }
    }
  ],
  "blockhash": "86d3aa2e412fd1c0ad7fd5d7d84b7ddcf41a8bf652344eaa49dd1e6444ae5dce",
  "confirmations": 1,
  "time": 1764176858,
  "blocktime": 1764176858
}