{
  "hex": "010000000001014be62a8e6352517e276ba5fd5ebed5a62729735d4778ca80f12e22aa984877250100000000feffffff0250ce18b4782d00002251204271278e081a072771b372aee1e9be8f921b7de54168cc04247087b81ce588df00e1f50500000000fdd5046a20bdcaafdaddc88d9b128bc79b9381bd97dd5e35dba553376d99ac281dc412f1234db004ac1beaee149e63efea144f7edae0b3da15de56bd4c92370affca8352cc3550068c3bcace34be43cfca346f5efac093fa35fe769d6cb2172adfeaa372ec157026ec5baaae54de23afaa540f3e9aa0f39a559e16fd0cd2774abf8ac3128c751046cc7b8a8e74fe038f8a742f1eba80d3ba75be36dd2cf2576a9faae332ac5530662c9b6a6e941ee36f6a94cffe5a60335a955ed63dcc12b78a7f4a03d24cb5d0860cbb4a4eb43ec34f4ab4efde7a40137ab57ef61dec3297aa5f6a23f26c95f0a66cdb2a2ed45ea32f2ad48fbe1a20731ad51e967d8c52f7ca3f0a43920cf590c64cfb0a0ef47e830f0af4af9e3a00533af53eb65dac72d7ea1f2a63b22cd5b0e6ac1beaee149e63efea144f7edae0b3da15de56bd4c92370affca8352cc3550068c3bcace34be43cfca346f5efac093fa35fe769d6cb2172adfeaa372ec157026ec5baaae54de23afaa540f3e9aa0f39a559e16fd0cd2774abf8ac3128c751046cc7b8a8e74fe038f8a742f1eba80d3ba75be36dd2cf2576a9faae332ac5530662c9b6a6e941ee36f6a94cffe5a60335a955ed63dcc12b78a7f4a03d24cb5d0860cbb4a4eb43ec34f4ab4efde7a40137ab57ef61dec3297aa5f6a23f26c95f0a66cdb2a2ed45ea32f2ad48fbe1a20731ad51e967d8c52f7ca3f0a43920cf590c64cfb0a0ef47e830f0af4af9e3a00533af53eb65dac72d7ea1f2a63b22cd5b0e6ac1beaee149e63efea144f7edae0b3da15de56bd4c92370affca8352cc3550068c3bcace34be43cfca346f5efac093fa35fe769d6cb2172adfeaa372ec157026ec5baaae54de23afaa540f3e9aa0f39a559e16fd0cd2774abf8ac3128c751046cc7b8a8e74fe038f8a742f1eba80d3ba75be36dd2cf2576a9faae332ac5530662c9b6a6e941ee36f6a94cffe5a60335a955ed63dcc12b78a7f4a03d24cb5d0860cbb4a4eb43ec34f4ab4efde7a40137ab57ef61dec3297aa5f6a23f26c95f0a66cdb2a2ed45ea32f2ad48fbe1a20731ad51e967d8c52f7ca3f0a43920cf590c64cfb0a0ef47e830f0af4af9e3a00533af53eb65dac72d7ea1f2a63b22cd5b0e6ac1beaee149e63efea144f7edae0b3da15de56bd4c92370affca8352cc3550068c3bcace34be43cfca346f5efac093fa35fe769d6cb2172adfeaa372ec157026ec5baaae54de23afaa540f3e9aa0f39a559e16fd0cd2774abf8ac3128c751046cc7b8a8e74fe038f8a742f1eba80d3ba75be36dd2cf2576a9faae332ac5530662c9b6a6e941ee36f6a94cffe5a60335a955ed63dcc12b78a7f4a03d24cb5d0860cbb4a4eb43ec34f4ab4efde7a40137ab57ef61dec3297aa5f6a23f26c95f0a66cdb2a2ed45ea32f2ad48fbe1a20731ad51e967d8c52f7ca3f0a43920cf590c64cfb0a0ef47e830f0af4af9e3a00533af53eb65dac72d7ea1f2a63b22cd5b0e6ac1beaee149e63efea144f7edae0b3da15de56bd4c92370affca8352cc3550068c3bcace34be43cfca346f5efac093fa35fe769d6cb2172adfeaa372ec157026ec5baaae54de23afaa540f3e9aa0f39a559e16fd0cd2774abf8ac3128c751046cc7b8a8e74fe038f8a742f1eba80d3ba75be36dd2cf2576a9faae332ac5530662c9b6a6e941ee36f6a94cffe5a60335a08acb5ecbb2637f97085d2df0c5515b54554be443d3470758a7b52d953ee052702fd7509cff72bd87dbcd59ca2a72245ac60ac8223c9237c3e8df57e63a7a34b5d8c5e2891a5c844d7e0cf45c38a9c2fc414fabd291009ba1c52b04c21c09e86c9719b054156a94c263f9ed0c3db7f980c0e9926f98cb1a5692d6b4c426577950783adeea1fabae03e4dcff826c029716a9c169fac15d13d150eb409f94e19d371b6168b66b9068eb7d7c5b3d54040adcd0c364095e21f7b8afb92b2df282f183f34258d9b2c491ac2511791c06305b6be7715a355d602a234d3b721f752efc28736dff15af385be253f1bc3473161cf187ab5522a3c29946e5f8e3e7cffab4b868617daaa0a24885ac9536868c44c57a6757584f4654746108e55e53f9d765f8f9d8495828297dc97cdf274f98ed4bdfc118b7bb952ddbc9874a755e49fe5296576b4eb5f1c7c6afbb5f944f8da3ccfa43ad2f7cb47f3a680520eec8778f5c5fc99a4a314076d2021502926e4edcfc8d6fb03118d473928887e5436e5c503d272e1fea08351c91c034f79893b5c33dad4cf68ac9a9e2399244b96ea14cc2965a8f03e1839f4922ba3025122517324632aefc97de36c42d18deb60b8ad1ec8d580f62f937cb77531cf4a292cc20a2a1a6aae569c80f264d0a3fbf6dbb209635b9d36dcb1dd3a23be9b9d0d2cd944aa7e17b304e3fc1f637f0900241ab089cacd5dc276872125e29a47aca271a8ad2dea8a111671e2adaae1e9bc7df7eb8cadad1c9c1cd9e3242435934ed96bf5857386880b33b171688140b6d19af208faf579ec30ac77bc361ea7d1f815c23c8abc65ef3428eefee53f32f7ea72a36541636b8d0c0cc63b0048e01019fca6e27d67c98cc80c9bb1df226551c0812e8de5bb25fbf567beca37591c83a2d48815ad62f5b7dd0407f6d74c8f9e2bfb0903bf5df5b7a2fbaa80d9c655fce75cab8f124c0de4b4f9c617fc210622c96e41a456dd2031d8d641b896a004184a645059298ba40efb673d26309a020c06c95de4c39fe68280367eb149d010ff2142fee101968dd861e5ba6c1eee68ef8d0352f4cf3625cba35c9a807bc434c32b6989e69f2008a129ae089a92e9daaed5f591e269942e9ae8057a1e23232a84b3d389b6331b654d7397028b55e4e711711500491fdf1ff80a136167522bcf05892816678d9eeb9d16db44b2ea06382cd1b19d19f1c4115ac30c93ee66a30f71f74bfd72fdd2ec49405927693bf82c4da07a166c09aea5da8fae69b02b80d4ea846913c914b193de6412ed37bcd4454958e835b930608eda993e836279175ce53d921c8d6ba225a6ca30b984d8df42be20dec767411c8e1ab74759b1dd061592cfa88cfb984d671f97b3909c960b32c2736a5112f9d4ebf36d8e635f3645c75106931fafd1541c050a03b6c0adff01ea68c5c1ca56df63bcf041c6357df583e89b521865a1b1943990fc251653f5f4a91ef3356587c76364fae16dc1a577e7bc6db1d2d1b2904ca9b58ffecce591b57daa206973953bd8a6ca2bc830c2162dc2b6b1698cb5c5c1e40d1fbcd94b755de675ba96bf0a39991307f728c2e039976b98b88db932dd5b365622362f36af341ebe7ff232f6027c69c63a6b36e221b915d8672299a83d0c1294bf5529481b061cd03518f0491425e242a8b0eef93f13d2f067956eecd5f32fabedcc7aa333498aa881bcff95538ba23d56c18314b901b18a222e7159e276715483c7fd7f25decc7cd06256c46009c932cfc5fdb29ea0e576ea53251478fab9219de38eb13d17e873ab18774280d227358b15689835ce44b9da4cb542fe1099fdba2b8c9162168e10cca61b1464ec826f726d793b8420e430a5d1b28e875433505bb4ae6e917d391d25e41a78c62a51440e4ca3bc6441866ddc7ebdd7961182385b94902b56e6c7de1a2814b37cd2f07cf9c4acb97c086ff4e4ee77c2d4612ac58bca5b3e332443596822fd23710304f413bd746ddd9b170a6ca1faf018c025a1e7531f042b51a25f572f3e511fe50e6e4f5e343b222bc95c48575d85a166d6dc1b525064cb3e766833de7bbc2df21519ae50a1a74acb4c23ab2320fdff45f23c6a887bb270a0949f39c2e7bade28b29dde336230b438743ec7acdfa43530aa7abd21dc8610641d22e7cf0bfdfcf94daac7f5b1ee52684f1b30a87168fa0dbadad61e64a27cbd880b55574de2e5cb4085355efae8add26cc6b7237eb138b4789231125c3e0de6b1bdfce74f03d45ccdefe9a48de7349c2c4d27d5cf73a305672b0bdc343da4cb879487f83ab7c7551e7a421f69df52429a94a20921eec59669a415df93a990cb0a2cd5ca8fb8a06581e45ad8003fc565445ef1ff0f94a1a5d82c18e0db6b50fc4c151d0a349b27eefd01ea4af372a08260ed4a514586fb258a7ce394defc806ae3cb64eb09667a81de1d5c8c782b314ac345b482690aa13574ee9df42ffbee676d7ab6e10fb9950a893de7dc9920cd07cd2456e76c93416344c974be9d705f9ed010503707734dedd081723413ea3c794623d7273772a9715b944e7998a28ad589cb7007790ddbdf283bc914691bd4e772a5f61c5b1f82c0899ddbfb13e7300e2c359b9ec44ec89d7c8e92862dadc2e7d53f6552da9581dd4c1e40ad9843f5e86adb2e9d93d374f0c6b28f95689e67aa900520d67ee0bdf08a0dc5410751280db594a9089560faba4e3525f2db58275b87495ef78b1d7db08cdc499b19b99003fcfb0078a1962ce27794d366150867ffa7d048cf9d281648dd962ed428c48e59208260eca29c541dea1654ff9aeb1971d3b126d88524810d07b26759f93cd418dbd5ac761fce4f0c1a1f12e52fd04cf2ccdd4b420b758388a0a36833ed9e89fc53b682ecb72b6c33d970acb30bb74b6b1910f83a3f4ce93fb4146e7288ed89ce6c1c4594ce196f349c917c17ad8a57679372499c59c6e4f24f47e0d834641a0dd1b5cd9eb9c2d6cd042c7890f566e89c5b8e203cf183bede7a5949c3cd35c14fd2a79a5154eaa1c8796c794b8e14bcf121300282bbea49a29af0d4f1efaa8bc6c2de8185769e835e30816219c8aeca17cfeeb025e2a274aed5b588d75ad97fda783bf2cc2a760ca6a7f7616d7d1c0d2186e4c0fa98e2cb989b8647251ef7ee30b4aab3b2c6a580cd68d438aae6c699fa9695d682b1835ab0670d222a9d02985498aa5357127de82310fe357b3e60fb5f1bb2ca1023035d789cd2dca5bd58a6f1b3854f4433392fd12473f78d07da04784d38557dd3878730c2f3c865d1c50dd36c4789e8b8406e6acc1e853a272994cac3b000342baf57260dd1fbf685ae8c8b1fb7647ec861c28910fa44240a1f20254448515c6370828c8e9899c5d2d5343a5782868abcd0d5f802192333383b5c6f8a8b93aaafbac1defb1115194d78848a8d9babb1d5e3f8000000000000000000000000000000000000000000121c2d3b01fd2105004e5fa2b1ed1cd057bbf8bff3401acc08ac5b1159edb2a40dd0143006106c7cf80711b388c8ac2e4652a6fcd09d8566c99b72295b96d7eb154522fd31318a7cd380ad582dc22887bb90b5c38b0dae6f36bfeddbdc73e757d348ab4bcfefed0c7efb5560249d85e628db131929a9e94ce5f22b1d0eaa10bf0cd8eceb77827aecdef93dec74daf8deb119c37d97a45b46130b3a0f6d46ee1bd43c9111e89bcb690971813a322313ea473ab101cb34ca9fd1bea9fea14fc701079353cabbe64a0792569757df9aeec08867b51c92c2d0ff9e3ed5456b1486f3097fc46465af0abc9046c1a6d5f4dc0abcf54ed82198ce371f87e62436e9ecc9cf1cd2f794372248f2497ce0f4701785380ed835c7e96a15e96e23db8ca3a52e25c8599d14bcaca5a42099e4359f9122990cb3efa472f5c9433189d0a335f7324ec80770fd0195169a0c79975d79827de5b552107fe07f6bc7586fe2d8e43506f6bca143233cbdd882850fd7837fbb9c021d11825222a3f90965b5237848c12f44f612cae8c6c4f4971a114d1688e45a568cf607a7fea237b3d1be5559efed9c40cc6f32c2770d4fda8c8ecc1d28a5bc1d29dac6d9aaeeb63f94942dc86e2f3b60a0e7596ba8b09fac3b3374c067bb36ec86ce2b023fa46b3082b9065aa497485a1d5df762632ff9a3f859cccd40013102e67f56aeb15db7214d9d2535751f2238c8d9ded57d002f55efefc69bd19b56b1f5e728039f5cb8882b945881008ffaef4daf2c2e4bcee4a9e891336f9f386e7905d941459d9ab0cbeedb1e8918e296ac6a7e89d5a8eb302630c4d0939c2e3b9e427865db0dbf18cbe32f06c8dd7e12bedab827d49aa54eaad33779b3660b0fff6f1f56fa48cd4777ba92738de358afc7eb999b584023225a962f2f79df370c08fb17d657e2c0e3a7727bc5dcbcb3c9e1a4e695fedb401c83423dcb8af2f8fa8a0dae2e4f4c820f041d84645ff2c80cc974bff07b66977a7f03b42168e591f5b6200285c97368b019871a90b0d771eef9956877ae6a3899114a905f9c2acd737cea691723cabca95c3e5535cc333a16f252e03484f8802e756813ff62a7023ce4b86844c2e0f5a7b182fcaa346e1879c2f86508e95a74cd85614a6f7a94050b16bfc72ac8066a9dd0fbb118a91bd097ba643033df159ac8644cc2ec2264388a19c278fa9060055e2b5f6e2f829fd643526bd8dd6fb319810a5af088b19c82c9fee6993b37f9d144ccc2dbfb97b77875402c23a51b8b9225e0227b0ead3148ab7da54009c7a17087b94970885a6164d3556a08cccbea0b2b38d2a2451dc52d9340f6c2e384f10d1b6e9d004590977f1ef1b718d637753f2202b756171c888dcb85cdaeb417c85061cebb3a7736a1fa65b36ec1eccbde07719b313f4fb3f2d6c817d27d26d4bca23cfdf6f1b81721b5843dcda682f7d77b71849ef7f225a1465bf8605f8c8e345c2f0421695fd11371ed7b8267ed94df913f78c4cf9c8315877f122d86350e09fd72d7bc74d55e3bd986d250d0accc9ffe1404bb60cdf89d202843069df3f60bbc954aa1b8fa2d6ab0701af6eb7ac418094cc29bd7aea4a3d85beddd9a179bfe7e25d25cf9ac069d3a51795fc3b7dcc3f63111972126e921a7b6c911805b53652a71447811706f2f593bb85ab6342673d0d822a4912b7375e0c396a6b7a94571e7f53c5b3230d7b9f495652df0ef6e656bc7f443762e84443d78c4517a03fbfaf7dc4eaf80d9ff3c105845cdc47eec43b4ad8a3f533dc956b2097c2256f58d9cffc0603e6b486c767f0677a906d106b90b6df8993def91ae4a2de7f305f13d6e7941c24644a708036948efa92f8778cedfbec885000000",
  "txid": "3eedfb425a90f1c70ccb0c8bf17c054f6d2ccafdd2798a10bb7c3ea24e88abdd",
  "hash": "fcf6ca41b7b0d204185ecf58c0481520590681d4d4604cebe2b9b59ceb5d4f8a",
  "size": 5085,
  "vsize": 2278,
  "version": 1,
  "locktime": 133,
  "vin": [
    {
      "txid": "25774898aa222ef180ca78475d732927a6d5be5efda56b277e5152638e2ae64b",
      "vout": 1,
      "scriptSig": {
        "asm": "",
        "hex": ""
      },
      "txinwitness": [
        "cff72bd87dbcd59ca2a72245ac60ac8223c9237c3e8df57e63a7a34b5d8c5e2891a5c844d7e0cf45c38a9c2fc414fabd291009ba1c52b04c21c09e86c9719b054156a94c263f9ed0c3db7f980c0e9926f98cb1a5692d6b4c426577950783adeea1fabae03e4dcff826c029716a9c169fac15d13d150eb409f94e19d371b6168b66b9068eb7d7c5b3d54040adcd0c364095e21f7b8afb92b2df282f183f34258d9b2c491ac2511791c06305b6be7715a355d602a234d3b721f752efc28736dff15af385be253f1bc3473161cf187ab5522a3c29946e5f8e3e7cffab4b868617daaa0a24885ac9536868c44c57a6757584f4654746108e55e53f9d765f8f9d8495828297dc97cdf274f98ed4bdfc118b7bb952ddbc9874a755e49fe5296576b4eb5f1c7c6afbb5f944f8da3ccfa43ad2f7cb47f3a680520eec8778f5c5fc99a4a314076d2021502926e4edcfc8d6fb03118d473928887e5436e5c503d272e1fea08351c91c034f79893b5c33dad4cf68ac9a9e2399244b96ea14cc2965a8f03e1839f4922ba3025122517324632aefc97de36c42d18deb60b8ad1ec8d580f62f937cb77531cf4a292cc20a2a1a6aae569c80f264d0a3fbf6dbb209635b9d36dcb1dd3a23be9b9d0d2cd944aa7e17b304e3fc1f637f0900241ab089cacd5dc276872125e29a47aca271a8ad2dea8a111671e2adaae1e9bc7df7eb8cadad1c9c1cd9e3242435934ed96bf5857386880b33b171688140b6d19af208faf579ec30ac77bc361ea7d1f815c23c8abc65ef3428eefee53f32f7ea72a36541636b8d0c0cc63b0048e01019fca6e27d67c98cc80c9bb1df226551c0812e8de5bb25fbf567beca37591c83a2d48815ad62f5b7dd0407f6d74c8f9e2bfb0903bf5df5b7a2fbaa80d9c655fce75cab8f124c0de4b4f9c617fc210622c96e41a456dd2031d8d641b896a004184a645059298ba40efb673d26309a020c06c95de4c39fe68280367eb149d010ff2142fee101968dd861e5ba6c1eee68ef8d0352f4cf3625cba35c9a807bc434c32b6989e69f2008a129ae089a92e9daaed5f591e269942e9ae8057a1e23232a84b3d389b6331b654d7397028b55e4e711711500491fdf1ff80a136167522bcf05892816678d9eeb9d16db44b2ea06382cd1b19d19f1c4115ac30c93ee66a30f71f74bfd72fdd2ec49405927693bf82c4da07a166c09aea5da8fae69b02b80d4ea846913c914b193de6412ed37bcd4454958e835b930608eda993e836279175ce53d921c8d6ba225a6ca30b984d8df42be20dec767411c8e1ab74759b1dd061592cfa88cfb984d671f97b3909c960b32c2736a5112f9d4ebf36d8e635f3645c75106931fafd1541c050a03b6c0adff01ea68c5c1ca56df63bcf041c6357df583e89b521865a1b1943990fc251653f5f4a91ef3356587c76364fae16dc1a577e7bc6db1d2d1b2904ca9b58ffecce591b57daa206973953bd8a6ca2bc830c2162dc2b6b1698cb5c5c1e40d1fbcd94b755de675ba96bf0a39991307f728c2e039976b98b88db932dd5b365622362f36af341ebe7ff232f6027c69c63a6b36e221b915d8672299a83d0c1294bf5529481b061cd03518f0491425e242a8b0eef93f13d2f067956eecd5f32fabedcc7aa333498aa881bcff95538ba23d56c18314b901b18a222e7159e276715483c7fd7f25decc7cd06256c46009c932cfc5fdb29ea0e576ea53251478fab9219de38eb13d17e873ab18774280d227358b15689835ce44b9da4cb542fe1099fdba2b8c9162168e10cca61b1464ec826f726d793b8420e430a5d1b28e875433505bb4ae6e917d391d25e41a78c62a51440e4ca3bc6441866ddc7ebdd7961182385b94902b56e6c7de1a2814b37cd2f07cf9c4acb97c086ff4e4ee77c2d4612ac58bca5b3e332443596822fd23710304f413bd746ddd9b170a6ca1faf018c025a1e7531f042b51a25f572f3e511fe50e6e4f5e343b222bc95c48575d85a166d6dc1b525064cb3e766833de7bbc2df21519ae50a1a74acb4c23ab2320fdff45f23c6a887bb270a0949f39c2e7bade28b29dde336230b438743ec7acdfa43530aa7abd21dc8610641d22e7cf0bfdfcf94daac7f5b1ee52684f1b30a87168fa0dbadad61e64a27cbd880b55574de2e5cb4085355efae8add26cc6b7237eb138b4789231125c3e0de6b1bdfce74f03d45ccdefe9a48de7349c2c4d27d5cf73a305672b0bdc343da4cb879487f83ab7c7551e7a421f69df52429a94a20921eec59669a415df93a990cb0a2cd5ca8fb8a06581e45ad8003fc565445ef1ff0f94a1a5d82c18e0db6b50fc4c151d0a349b27eefd01ea4af372a08260ed4a514586fb258a7ce394defc806ae3cb64eb09667a81de1d5c8c782b314ac345b482690aa13574ee9df42ffbee676d7ab6e10fb9950a893de7dc9920cd07cd2456e76c93416344c974be9d705f9ed010503707734dedd081723413ea3c794623d7273772a9715b944e7998a28ad589cb7007790ddbdf283bc914691bd4e772a5f61c5b1f82c0899ddbfb13e7300e2c359b9ec44ec89d7c8e92862dadc2e7d53f6552da9581dd4c1e40ad9843f5e86adb2e9d93d374f0c6b28f95689e67aa900520d67ee0bdf08a0dc5410751280db594a9089560faba4e3525f2db58275b87495ef78b1d7db08cdc499b19b99003fcfb0078a1962ce27794d366150867ffa7d048cf9d281648dd962ed428c48e59208260eca29c541dea1654ff9aeb1971d3b126d88524810d07b26759f93cd418dbd5ac761fce4f0c1a1f12e52fd04cf2ccdd4b420b758388a0a36833ed9e89fc53b682ecb72b6c33d970acb30bb74b6b1910f83a3f4ce93fb4146e7288ed89ce6c1c4594ce196f349c917c17ad8a57679372499c59c6e4f24f47e0d834641a0dd1b5cd9eb9c2d6cd042c7890f566e89c5b8e203cf183bede7a5949c3cd35c14fd2a79a5154eaa1c8796c794b8e14bcf121300282bbea49a29af0d4f1efaa8bc6c2de8185769e835e30816219c8aeca17cfeeb025e2a274aed5b588d75ad97fda783bf2cc2a760ca6a7f7616d7d1c0d2186e4c0fa98e2cb989b8647251ef7ee30b4aab3b2c6a580cd68d438aae6c699fa9695d682b1835ab0670d222a9d02985498aa5357127de82310fe357b3e60fb5f1bb2ca1023035d789cd2dca5bd58a6f1b3854f4433392fd12473f78d07da04784d38557dd3878730c2f3c865d1c50dd36c4789e8b8406e6acc1e853a272994cac3b000342baf57260dd1fbf685ae8c8b1fb7647ec861c28910fa44240a1f20254448515c6370828c8e9899c5d2d5343a5782868abcd0d5f802192333383b5c6f8a8b93aaafbac1defb1115194d78848a8d9babb1d5e3f8000000000000000000000000000000000000000000121c2d3b01",
        "004e5fa2b1ed1cd057bbf8bff3401acc08ac5b1159edb2a40dd0143006106c7cf80711b388c8ac2e4652a6fcd09d8566c99b72295b96d7eb154522fd31318a7cd380ad582dc22887bb90b5c38b0dae6f36bfeddbdc73e757d348ab4bcfefed0c7efb5560249d85e628db131929a9e94ce5f22b1d0eaa10bf0cd8eceb77827aecdef93dec74daf8deb119c37d97a45b46130b3a0f6d46ee1bd43c9111e89bcb690971813a322313ea473ab101cb34ca9fd1bea9fea14fc701079353cabbe64a0792569757df9aeec08867b51c92c2d0ff9e3ed5456b1486f3097fc46465af0abc9046c1a6d5f4dc0abcf54ed82198ce371f87e62436e9ecc9cf1cd2f794372248f2497ce0f4701785380ed835c7e96a15e96e23db8ca3a52e25c8599d14bcaca5a42099e4359f9122990cb3efa472f5c9433189d0a335f7324ec80770fd0195169a0c79975d79827de5b552107fe07f6bc7586fe2d8e43506f6bca143233cbdd882850fd7837fbb9c021d11825222a3f90965b5237848c12f44f612cae8c6c4f4971a114d1688e45a568cf607a7fea237b3d1be5559efed9c40cc6f32c2770d4fda8c8ecc1d28a5bc1d29dac6d9aaeeb63f94942dc86e2f3b60a0e7596ba8b09fac3b3374c067bb36ec86ce2b023fa46b3082b9065aa497485a1d5df762632ff9a3f859cccd40013102e67f56aeb15db7214d9d2535751f2238c8d9ded57d002f55efefc69bd19b56b1f5e728039f5cb8882b945881008ffaef4daf2c2e4bcee4a9e891336f9f386e7905d941459d9ab0cbeedb1e8918e296ac6a7e89d5a8eb302630c4d0939c2e3b9e427865db0dbf18cbe32f06c8dd7e12bedab827d49aa54eaad33779b3660b0fff6f1f56fa48cd4777ba92738de358afc7eb999b584023225a962f2f79df370c08fb17d657e2c0e3a7727bc5dcbcb3c9e1a4e695fedb401c83423dcb8af2f8fa8a0dae2e4f4c820f041d84645ff2c80cc974bff07b66977a7f03b42168e591f5b6200285c97368b019871a90b0d771eef9956877ae6a3899114a905f9c2acd737cea691723cabca95c3e5535cc333a16f252e03484f8802e756813ff62a7023ce4b86844c2e0f5a7b182fcaa346e1879c2f86508e95a74cd85614a6f7a94050b16bfc72ac8066a9dd0fbb118a91bd097ba643033df159ac8644cc2ec2264388a19c278fa9060055e2b5f6e2f829fd643526bd8dd6fb319810a5af088b19c82c9fee6993b37f9d144ccc2dbfb97b77875402c23a51b8b9225e0227b0ead3148ab7da54009c7a17087b94970885a6164d3556a08cccbea0b2b38d2a2451dc52d9340f6c2e384f10d1b6e9d004590977f1ef1b718d637753f2202b756171c888dcb85cdaeb417c85061cebb3a7736a1fa65b36ec1eccbde07719b313f4fb3f2d6c817d27d26d4bca23cfdf6f1b81721b5843dcda682f7d77b71849ef7f225a1465bf8605f8c8e345c2f0421695fd11371ed7b8267ed94df913f78c4cf9c8315877f122d86350e09fd72d7bc74d55e3bd986d250d0accc9ffe1404bb60cdf89d202843069df3f60bbc954aa1b8fa2d6ab0701af6eb7ac418094cc29bd7aea4a3d85beddd9a179bfe7e25d25cf9ac069d3a51795fc3b7dcc3f63111972126e921a7b6c911805b53652a71447811706f2f593bb85ab6342673d0d822a4912b7375e0c396a6b7a94571e7f53c5b3230d7b9f495652df0ef6e656bc7f443762e84443d78c4517a03fbfaf7dc4eaf80d9ff3c105845cdc47eec43b4ad8a3f533dc956b2097c2256f58d9cffc0603e6b486c767f0677a906d106b90b6df8993def91ae4a2de7f305f13d6e7941c24644a708036948efa92f8778cedfbec8"
      ],
      "sequence": 4294967294
    }
  ],
  "vout": [
    {
      "value": 499964.4085,
      "n": 0,
      "scriptPubKey": {
        "asm": "1 4271278e081a072771b372aee1e9be8f921b7de54168cc04247087b81ce588df",
        "hex": "51204271278e081a072771b372aee1e9be8f921b7de54168cc04247087b81ce588df",
        "reqSigs": 1,
        "type": "witness_v1_scripthash",
        "addresses": [
          "3QJmnh"
        ]
      }
    },
    {
      "value": 1.0,
      "n": 1,
      "scriptPubKey": {
        "asm": "OP_RETURN bdcaafdaddc88d9b128bc79b9381bd97dd5e35dba553376d99ac281dc412f123 ac1beaee149e63efea144f7edae0b3da15de56bd4c92370affca8352cc3550068c3bcace34be43cfca346f5efac093fa35fe769d6cb2172adfeaa372ec157026ec5baaae54de23afaa540f3e9aa0f39a559e16fd0cd2774abf8ac3128c751046cc7b8a8e74fe038f8a742f1eba80d3ba75be36dd2cf2576a9faae332ac5530662c9b6a6e941ee36f6a94cffe5a60335a955ed63dcc12b78a7f4a03d24cb5d0860cbb4a4eb43ec34f4ab4efde7a40137ab57ef61dec3297aa5f6a23f26c95f0a66cdb2a2ed45ea32f2ad48fbe1a20731ad51e967d8c52f7ca3f0a43920cf590c64cfb0a0ef47e830f0af4af9e3a00533af53eb65dac72d7ea1f2a63b22cd5b0e6ac1beaee149e63efea144f7edae0b3da15de56bd4c92370affca8352cc3550068c3bcace34be43cfca346f5efac093fa35fe769d6cb2172adfeaa372ec157026ec5baaae54de23afaa540f3e9aa0f39a559e16fd0cd2774abf8ac3128c751046cc7b8a8e74fe038f8a742f1eba80d3ba75be36dd2cf2576a9faae332ac5530662c9b6a6e941ee36f6a94cffe5a60335a955ed63dcc12b78a7f4a03d24cb5d0860cbb4a4eb43ec34f4ab4efde7a40137ab57ef61dec3297aa5f6a23f26c95f0a66cdb2a2ed45ea32f2ad48fbe1a20731ad51e967d8c52f7ca3f0a43920cf590c64cfb0a0ef47e830f0af4af9e3a00533af53eb65dac72d7ea1f2a63b22cd5b0e6ac1beaee149e63efea144f7edae0b3da15de56bd4c92370affca8352cc3550068c3bcace34be43cfca346f5efac093fa35fe769d6cb2172adfeaa372ec157026ec5baaae54de23afaa540f3e9aa0f39a559e16fd0cd2774abf8ac3128c751046cc7b8a8e74fe038f8a742f1eba80d3ba75be36dd2cf2576a9faae332ac5530662c9b6a6e941ee36f6a94cffe5a60335a955ed63dcc12b78a7f4a03d24cb5d0860cbb4a4eb43ec34f4ab4efde7a40137ab57ef61dec3297aa5f6a23f26c95f0a66cdb2a2ed45ea32f2ad48fbe1a20731ad51e967d8c52f7ca3f0a43920cf590c64cfb0a0ef47e830f0af4af9e3a00533af53eb65dac72d7ea1f2a63b22cd5b0e6ac1beaee149e63efea144f7edae0b3da15de56bd4c92370affca8352cc3550068c3bcace34be43cfca346f5efac093fa35fe769d6cb2172adfeaa372ec157026ec5baaae54de23afaa540f3e9aa0f39a559e16fd0cd2774abf8ac3128c751046cc7b8a8e74fe038f8a742f1eba80d3ba75be36dd2cf2576a9faae332ac5530662c9b6a6e941ee36f6a94cffe5a60335a955ed63dcc12b78a7f4a03d24cb5d0860cbb4a4eb43ec34f4ab4efde7a40137ab57ef61dec3297aa5f6a23f26c95f0a66cdb2a2ed45ea32f2ad48fbe1a20731ad51e967d8c52f7ca3f0a43920cf590c64cfb0a0ef47e830f0af4af9e3a00533af53eb65dac72d7ea1f2a63b22cd5b0e6ac1beaee149e63efea144f7edae0b3da15de56bd4c92370affca8352cc3550068c3bcace34be43cfca346f5efac093fa35fe769d6cb2172adfeaa372ec157026ec5baaae54de23afaa540f3e9aa0f39a559e16fd0cd2774abf8ac3128c751046cc7b8a8e74fe038f8a742f1eba80d3ba75be36dd2cf2576a9faae332ac5530662c9b6a6e941ee36f6a94cffe5a60335a08acb5ecbb2637f97085d2df0c5515b54554be443d3470758a7b52d953ee0527",
        "hex": "6a20bdcaafdaddc88d9b128bc79b9381bd97dd5e35dba553376d99ac281dc412f1234db004ac1beaee149e63efea144f7edae0b3da15de56bd4c92370affca8352cc3550068c3bcace34be43cfca346f5efac093fa35fe769d6cb2172adfeaa372ec157026ec5baaae54de23afaa540f3e9aa0f39a559e16fd0cd2774abf8ac3128c751046cc7b8a8e74fe038f8a742f1eba80d3ba75be36dd2cf2576a9faae332ac5530662c9b6a6e941ee36f6a94cffe5a60335a955ed63dcc12b78a7f4a03d24cb5d0860cbb4a4eb43ec34f4ab4efde7a40137ab57ef61dec3297aa5f6a23f26c95f0a66cdb2a2ed45ea32f2ad48fbe1a20731ad51e967d8c52f7ca3f0a43920cf590c64cfb0a0ef47e830f0af4af9e3a00533af53eb65dac72d7ea1f2a63b22cd5b0e6ac1beaee149e63efea144f7edae0b3da15de56bd4c92370affca8352cc3550068c3bcace34be43cfca346f5efac093fa35fe769d6cb2172adfeaa372ec157026ec5baaae54de23afaa540f3e9aa0f39a559e16fd0cd2774abf8ac3128c751046cc7b8a8e74fe038f8a742f1eba80d3ba75be36dd2cf2576a9faae332ac5530662c9b6a6e941ee36f6a94cffe5a60335a955ed63dcc12b78a7f4a03d24cb5d0860cbb4a4eb43ec34f4ab4efde7a40137ab57ef61dec3297aa5f6a23f26c95f0a66cdb2a2ed45ea32f2ad48fbe1a20731ad51e967d8c52f7ca3f0a43920cf590c64cfb0a0ef47e830f0af4af9e3a00533af53eb65dac72d7ea1f2a63b22cd5b0e6ac1beaee149e63efea144f7edae0b3da15de56bd4c92370affca8352cc3550068c3bcace34be43cfca346f5efac093fa35fe769d6cb2172adfeaa372ec157026ec5baaae54de23afaa540f3e9aa0f39a559e16fd0cd2774abf8ac3128c751046cc7b8a8e74fe038f8a742f1eba80d3ba75be36dd2cf2576a9faae332ac5530662c9b6a6e941ee36f6a94cffe5a60335a955ed63dcc12b78a7f4a03d24cb5d0860cbb4a4eb43ec34f4ab4efde7a40137ab57ef61dec3297aa5f6a23f26c95f0a66cdb2a2ed45ea32f2ad48fbe1a20731ad51e967d8c52f7ca3f0a43920cf590c64cfb0a0ef47e830f0af4af9e3a00533af53eb65dac72d7ea1f2a63b22cd5b0e6ac1beaee149e63efea144f7edae0b3da15de56bd4c92370affca8352cc3550068c3bcace34be43cfca346f5efac093fa35fe769d6cb2172adfeaa372ec157026ec5baaae54de23afaa540f3e9aa0f39a559e16fd0cd2774abf8ac3128c751046cc7b8a8e74fe038f8a742f1eba80d3ba75be36dd2cf2576a9faae332ac5530662c9b6a6e941ee36f6a94cffe5a60335a955ed63dcc12b78a7f4a03d24cb5d0860cbb4a4eb43ec34f4ab4efde7a40137ab57ef61dec3297aa5f6a23f26c95f0a66cdb2a2ed45ea32f2ad48fbe1a20731ad51e967d8c52f7ca3f0a43920cf590c64cfb0a0ef47e830f0af4af9e3a00533af53eb65dac72d7ea1f2a63b22cd5b0e6ac1beaee149e63efea144f7edae0b3da15de56bd4c92370affca8352cc3550068c3bcace34be43cfca346f5efac093fa35fe769d6cb2172adfeaa372ec157026ec5baaae54de23afaa540f3e9aa0f39a559e16fd0cd2774abf8ac3128c751046cc7b8a8e74fe038f8a742f1eba80d3ba75be36dd2cf2576a9faae332ac5530662c9b6a6e941ee36f6a94cffe5a60335a08acb5ecbb2637f97085d2df0c5515b54554be443d3470758a7b52d953ee0527",
        "type": "nulldata"
      }
    }
  ],
  "blockhash": "e83fb8d8eae63b54f6b1b3d1fbcbee555d4e910f42cfd1b5d97cc48d92172bc4",
  "confirmations": 1,
  "time": 1764182633,
  "blocktime": 1764182633
}