{
  "hex": "01000000000101c03425d64876d9b92a9616e6df2a6f7f0bb7eacc9dc34778a45cc6090806482f0000000000feffffff0200e1f50500000000fdd5046a20a73b78f45f9e5ffc0aefdd463e9eff719f80d2f4c7f0577cca53c213c7148c9e4db004216891b0b5d04ba2f8fa0ab4944f60bfebe96ed91cbdf469f1fa826a90a3e0cf0148b19095f06b82d8da2a94b46f409fcbc94ef93c9dd449d1daa24ab083c0ef6128d1f0f5900be2b8ba4af4d40f20ffaba92e995cfdb429b1bac22ad0e3a08f4108f1d0d5b02bc2989a6ad4f42f00df8b890eb97cdd9409919ae20af0c380afa1e811303550cb22787a8a3414cfe03f6b69ee599c3d74e9717a02ea1023604f81c831101570eb02585aaa1434efc01f4b49ce79bc1d54c9515a22ca3003406fe1a8517075108b62383aca74548fa07f2b29ae19dc7d34a9313a42aa5063200fc18871505530ab42181aea5474af805f0b098e39fc5d1489111a628a7043002f216891b0b5d04ba2f8fa0ab4944f60bfebe96ed91cbdf469f1fa826a90a3e0cf0148b19095f06b82d8da2a94b46f409fcbc94ef93c9dd449d1daa24ab083c0ef6128d1f0f5900be2b8ba4af4d40f20ffaba92e995cfdb429b1bac22ad0e3a08f4108f1d0d5b02bc2989a6ad4f42f00df8b890eb97cdd9409919ae20af0c380afa1e811303550cb22787a8a3414cfe03f6b69ee599c3d74e9717a02ea1023604f81c831101570eb02585aaa1434efc01f4b49ce79bc1d54c9515a22ca3003406fe1a8517075108b62383aca74548fa07f2b29ae19dc7d34a9313a42aa5063200fc18871505530ab42181aea5474af805f0b098e39fc5d1489111a628a7043002f216891b0b5d04ba2f8fa0ab4944f60bfebe96ed91cbdf469f1fa826a90a3e0cf0148b19095f06b82d8da2a94b46f409fcbc94ef93c9dd449d1daa24ab083c0ef6128d1f0f5900be2b8ba4af4d40f20ffaba92e995cfdb429b1bac22ad0e3a08f4108f1d0d5b02bc2989a6ad4f42f00df8b890eb97cdd9409919ae20af0c380afa1e811303550cb22787a8a3414cfe03f6b69ee599c3d74e9717a02ea1023604f81c831101570eb02585aaa1434efc01f4b49ce79bc1d54c9515a22ca3003406fe1a8517075108b62383aca74548fa07f2b29ae19dc7d34a9313a42aa5063200fc18871505530ab42181aea5474af805f0b098e39fc5d1489111a628a7043002f216891b0b5d04ba2f8fa0ab4944f60bfebe96ed91cbdf469f1fa826a90a3e0cf0148b19095f06b82d8da2a94b46f409fcbc94ef93c9dd449d1daa24ab083c0ef6128d1f0f5900be2b8ba4af4d40f20ffaba92e995cfdb429b1bac22ad0e3a08f4108f1d0d5b02bc2989a6ad4f42f00df8b890eb97cdd9409919ae20af0c380afa1e811303550cb22787a8a3414cfe03f6b69ee599c3d74e9717a02ea1023604f81c831101570eb02585aaa1434efc01f4b49ce79bc1d54c9515a22ca3003406fe1a8517075108b62383aca74548fa07f2b29ae19dc7d34a9313a42aa5063200fc18871505530ab42181aea5474af805f0b098e39fc5d1489111a628a7043002f216891b0b5d04ba2f8fa0ab4944f60bfebe96ed91cbdf469f1fa826a90a3e0cf0148b19095f06b82d8da2a94b46f409fcbc94ef93c9dd449d1daa24ab083c0ef6128d1f0f5900be2b8ba4af4d40f20ffaba92e995cfdb429b1bac22ad0e3a08f4108f1d0d5b02bc2989a6ad4f42f00df8b890eb97cdd9409919ae20af0c380afa1e811303550cb22787a8a3414cfe03fe548f43393ba4cd941f599081bf5916f1e92615b18de665c720f6ac6b7ff624a4021813f792d00002251209579ce876ac06435d2ba9eec50859219f5573fbd5b7cab9c17f7f7715fb70b1102fd75092162eb729c1730d54e391df227f2ce602f13ec65e54d6a3c70c7c0103eb52ae786de642c820e5efaee69c08f54da1758177b47b0022b3502edcbde378a180da8c023d2997f6dd619dac267caa66dffaee70081ded00fecd64ce4de4b44997f3d7e274bcc651b63418e2edb35a76ca059300d1c1ed3f9c8276d58503a8fcc16c46d1b32aa2e09c9c47ffa1b6ebd9f89f5e2e5732d5b760aa69daa346d181c6b4965fa1a4217bfe39f6d47a63d7733cfe080f08307f4982f832e25b8e7fd023856b2d2dce0bf852c78f71d97d9c64c14551b040f6e505e7268c4bfa211f5dd00c90e5440d3bbbeffc207d97e171b1b1e22bb44a0902b6d9a09990a3846f1ebabd326ec6266dc2c717a6adb27edd9c3c4308315f5d43ead74b42a763b037623c1167606a56799256895f0ecd4caf4a20828e0ff228f663860f8a091e95b40a1e34f7bc53f342987ae10625de011080af884d3d2d46973bf4087f101179e54d31db9d2903df659c5902a33f3a71847c6a5a36fd715643eb3cc05c054baedd57d5337ce444aef8ed6303d61a67e7a36052bec431890cd7362181aa01e956a1499548be9dfff64875addd691d05cb886733a57f4f5f946cef0cd02563a5660b6033d9a6839297b66e96c0a445a43224c02aaaa5d646dee99cf4dacc60869e0fd2a014e93ca37744668a24acb68a289aecba6a70269d3f6dcc21051ceabd6d2c0db660b9589ea3d4e9e08adf311c412bb58b32ae55730608df57917c83898052847dc0065126750085c5bb032cf86cf329901324f4fd2318f72a2693f4c9b25e4f4def89f1528e3cdb4c5aa8bf9c2e6163c4e1e9f6870160d3314dab8953d17fb12e1079a7fb8100045265d586c2531e7e487a6fb17043eac36d1faa205d59d6f6fcf8bc02f1ddefdeffc89d98660b1055220e9e068ff8a9eeaa370807c3549b25ff54084416bc5c39dbd7bf2423b6355a1b9173b31a36dabb21d54af2909c176b50e69dbdcaae5ba54fe6458ffa363a4f36ffd8c0cd37fdc11fe37962b0fe82d9abd56cd619c1de9e42afcd81cd813ad92e5559cec6de5e70cbb78e482af8693184b68414f5ca796ce1efeec82346aea6d39b0f8fcb7354f5b4ef7128d9c032e9542ed882bc5c6dfaa7dca00dbea62210ec1e416881104ce8313b108b7d5125e74995ed1e02164e8a4127da857a93b3dc5e5a63011f5e9b97c7dc3e433a71a07a820428417467f25faf1d02844c5472e83af2297f9956d56e458cc893962843736de690bf7c647b26d0f5d5d6ba06abbaa151e1d0ed2861f7ac81ca06bad8e2188ba0fbac828973651f64f3ccd451cd12d02d7dfe142fc576520f8287e580b4544f1749ce7ed323910939f1556c47c3aea58d735558c11ba53ff2499298239281647d79cc1db3776b62a8ef134ca9a4bf84aecb67541f3de689e1515fbf1d6b762c77efdbda24a580c336f0b0184ff549af2f1ac2a20ee8e2ee081b76bccba8fce82720b72d4fc5ddc102e93cf378dd6d55fe8c51f9774c930915005759bc70077271dcd3052b57a2ea5ade36941e82db2bc0a1d19cc49e9edff5065983d14cc2ac155e9a92cb55a0060b67846ee4bd9684a9b4d5ef3a0879f202c32d495731a4b6a4d80cdd674d3115a9f840f63797344892c84ac70efd1156be28dee08c57d06034a6e89b7b24cab6dc7433b1d090979b02504ae9516ac530ef6c64efc78abeffb3e0c9b7dc46292d1eb1bbff83a0f75547e522048219037f672ee4b9611ee840af5bf415c51d09fb6b943bba215cce3429aca5e56c9a3a2c889ad98cb179a1bd34ab4c427371b987d617a52c5e0feb65f12ce9c358a14b453a5296e7b23d23ccb100e8d35b9ec4e303bf4dae4b6ea36c5b4a0e62406e20373ceb578a28c33e7329a4392b31671749380de184949e7545267f155d14355acd9b95fd68edca9781cdc36f283af6e6b3a6044ae29c64e32ef958f905f5e760ea701c5497093b3733509d81784959c249d74dbef39a077da74a8cd1774be58f992a05b4653b41316c6aa8c30fe8b200ee5ce84d8a80fc5a4f2339d03f974f9f7c68e13f5348d230fe67823af6512a1b7b5603eb906d5ec5269007aee2ae5aca8a964e658f4aeca9d666c36b101bdea44a73bfdfb12171b5071091b6586d4090e709028399e3c6a3616494282a5b2460658f9d780847d515bb7d0c65dd6bd14e97df5dd676967d3b56d342fb140f4095ada44cfd764eedbf8fc9675c05c2049ff898d587c1efb29571586c7d467afdf832adbf7f1470c8ec4134dc5559a04ac53874e4b122dec503d85465c6750075f0d7cb79abf091bbcba099e7e2cda4d31f17b424b4b421d6da2c47745c1a250b160d0ad87ada7dc34d55daa1ecdfa938af8f643ae07da462bf6fdb1e1874d49ad3ba3a13eba74e9312e3a5a4d5a50922af39e89eb6ddfa63355051eb80de24e80048db9ceeefc8c6ccce7cbf0edfd4ccbf76d83eb2e5d6081efc1b0f6463cbcb142847e5d9d52096bac8f808fdc0d1e23ecd8a6a002f2c2f29e53f3587d75ea7459fde082559241b2da83489a335980cd231503697919f55339e7f7bee4a75cb0b9979a0b49c14a1111c8103f2bb9b68c3dc87076baf9afcb7186c46e85179761a4e0745c9aa4e0ed4dc38503090965502dc4063ad5408a0d017f328156ecba278e728c051764f2f7be43eac758c4343c5f04785f8b0885a378fd75ee78851bd93bd3fa1995a6b32f4dc97d7688731464b209557579f88071badbf3f7acb2f9aff128f508984e7b18b0b4693d7c57b11330a442ca58a3187affc155075c918603010c1013c56cad5bc95b41a1027a00c12bdf357825c7e36d69f2b3da8392d813ba3d7fe5633b529a3af63e482c31044e04cc0fd786d7c6f27c381d1583f741da4fcb238daea1fa5aaf95c6c3dc3ac97b98e9d12e7897fcf17f382014e88b98a5e5c0b70c453e0e7285f1a85a975fd237648eb750635ea10dc6c7c27f3a8aa346dd2869c06e9a3a8f229bbf68d02a3829bc1fa70cdc68fe0d5899db560cd19e83fda6b1a6382036b2a869a6bb47f8ec7e0b89ed6c065da7c4c56d5305cecb9e4cd77d34140ed6036cd241c1b1036bc1a349caa567f065c3b38d92ee8dea307fb196b879617cf70ac139494da5c0d615e113fef56fd68243447bc4ace641af8933ec70197bcdc4b46644f443f947e28a148a318478571ca5d3db06681a04dee624d54ebda57b70835bd844e80d13f9e957969a637a7bd7c8a45cd03902cf0ded47292844c9c937f2b634d041be5b02c09cab33bf74db1665a24594680a373d426466878a9a9d9eb6b8dbfb0b1a4b7a7f86a5c7fb010a0d16191e2021393d58638da4c1dffb172c2e737b9eb8b9ba0000000000000000000000000000000000000000000000000000000000000f18293201fd210500d4c46441a5b12dfacdc1410153a6bac6acdedadf4a9128e9e08952a0202d9d000052d7f159a0a6616807391dbb900063b64cc21d219c426c9acf1ed9375508f6f1c0edb3ee6a0723f53c3c110cd3337318a94643a541aab8d49b664ba9318579183b4aa5f1561debc6a7079fec342e7f0b0017b440f43db8eff19286b3c9a4b496f8b049d7130f4f58ee1f0ab2505a5882f32b5464edea3e0c8a6f4e4ce566a290a030c17612c6f52939dbe1a7650cda7f6b6034d8e4aff92039c51f561169b2b0b5fff9e6fa794586224b4bbb20172b88d4f885185fbffb2541913aa08c5e8ebe2291a0b07eb5e7855010e96b6638574ae86f876e4a826ac9353d161f61f39819f539bc3478c040e13bb3501df6c956c4afae24f9a1cfc117352827da5889d9c973b723da47fc78f47035ae4e71b96588d6375043eafc38ca58f7b469f0a9dc357b95f6651e3a127476b14179b50971bdec818195b1f2883cbbca7fd39c8b7fc03aedd81b5aaae2ea7df73dbfb94b779e4c301b81ad3445c0acaf7ebf85061c63fd7ad9b5ea93ad5e21a0d455532ec82824ffb4c5fb7a86a85b1ad781864497c6d1e4cc7fd15b8ef40ebeed5a63803df40f0c780ba6e3fce6caf9eb51a9edcf5818dbe7c34e7722db81c96c5224a85b51dae08b5a9c417f248f499149d6c723d08ca5975a4afe7d79ae5ac30777556bbdee9bd1a8a65a14572b3d15b87867b7daa72e03fb4edf95a850845c625e4309982f62e7bd07ba68c4d24ef043c7d93f902695443fecd05e8cfb85e5f69108e3a5bd908c58c8fdd6d2ca74dc508a1758aa16c1f35a39df26855c400916d2d6a79c6a6398a202369db3b154019765505b1baf96c325a18667310e68c1063036280a45814ca95ca28948e1cb0c0fccb45affe9709b628a36d07b6ecaba628c2909b35d5e10adef2b5a987a1efc7ef8b74089f333c34137017e97b1b09fa513c9b8c8504ade7224151b36bbefbe448aea42ae4b8f86bb0a4f2c838deed6b64308b1edbadef9be981ea5e1298e084dce8f9f197c9a34e427e5e66f5e4242864d87246e4141004fbdab8abfee2269189768e88f3a306c59c16fc477e330140d829af2ba0fd7a5ef3b7f0641ecab6253a9cc619f04bbe1be92184681e9bd2ccb93df9473f50147bfe437482bcdf41e9419847fe833962c2ab9ed1d20d0a5f6065e3b55ac2d3beee3a0d35624cee01312b9e22a5bd98c7926978d76e6d03889d2fb2b6257c106cdd6bb2e1268dfa0d12d42b2b679e0ce4381a9831ad598b309c282c9c636f6068b79a7495d3227ba8f5fffbf75c1237b71ac9b70ff827c699abe459abfdac801d334d14e54719e27c28f9fd4bc9cbaf6ee7af1df0a0eb163ee20c389697fe22af5a65f6ac91cf81198d4819adf628903dd3374e5a5207b7d6beccab968b8187bffecb47943e9e5ade68372e4da6a95b18e8d533c085225b5f70f68ef75c514ef67620abf61f3a167f945480d62820e5b6e8d98a0e5ef12a1f147bfb70ca85b82b16a5d2ac98e8de0c07f51efaf4197a571977663e8c8dfc668bf38f2eeed5969653c79bb3db377f3ea627ec742ec52f7c0a152f14c1fba2cc5df298c45d2f98d63d20369e673ab81db4f8760150838d52efe2e012cec89e43a60f80751aa7eaa097d1d217b1bb8b1423a47ca3c90493eab508ca4488c441fa5d4892af53aa0e488033e9300c8ce153f11e961963ef95c7627ae72ed8c89c1805b1aadae73f5afeacb7c3b100e3cd5c29c2a7556da35e943c02fafdb32b2ff21ca886577e63b884a75788865d6c2ca8f8fbcc5ecdc59373a19bdd0a357d65893c781b8118ca9454897c6c9c4ca6186efc688ebd473000000",
  "txid": "3e32c99b5f5b7f52b2461276a8c04d8467b50abf7185c18a38bf198055c52e47",
  "hash": "fe5ca26b368641d7ddc794a2461a2830a3ef05ca436d3df13d16a254b7d3cdeb",
  "size": 5085,
  "vsize": 2278,
  "version": 1,
  "locktime": 115,
  "vin": [
    {
      "txid": "2f48060809c65ca47847c39dcceab70b7f6f2adfe616962ab9d97648d62534c0",
      "vout": 0,
      "scriptSig": {
        "asm": "",
        "hex": ""
      },
      "txinwitness": [
        "2162eb729c1730d54e391df227f2ce602f13ec65e54d6a3c70c7c0103eb52ae786de642c820e5efaee69c08f54da1758177b47b0022b3502edcbde378a180da8c023d2997f6dd619dac267caa66dffaee70081ded00fecd64ce4de4b44997f3d7e274bcc651b63418e2edb35a76ca059300d1c1ed3f9c8276d58503a8fcc16c46d1b32aa2e09c9c47ffa1b6ebd9f89f5e2e5732d5b760aa69daa346d181c6b4965fa1a4217bfe39f6d47a63d7733cfe080f08307f4982f832e25b8e7fd023856b2d2dce0bf852c78f71d97d9c64c14551b040f6e505e7268c4bfa211f5dd00c90e5440d3bbbeffc207d97e171b1b1e22bb44a0902b6d9a09990a3846f1ebabd326ec6266dc2c717a6adb27edd9c3c4308315f5d43ead74b42a763b037623c1167606a56799256895f0ecd4caf4a20828e0ff228f663860f8a091e95b40a1e34f7bc53f342987ae10625de011080af884d3d2d46973bf4087f101179e54d31db9d2903df659c5902a33f3a71847c6a5a36fd715643eb3cc05c054baedd57d5337ce444aef8ed6303d61a67e7a36052bec431890cd7362181aa01e956a1499548be9dfff64875addd691d05cb886733a57f4f5f946cef0cd02563a5660b6033d9a6839297b66e96c0a445a43224c02aaaa5d646dee99cf4dacc60869e0fd2a014e93ca37744668a24acb68a289aecba6a70269d3f6dcc21051ceabd6d2c0db660b9589ea3d4e9e08adf311c412bb58b32ae55730608df57917c83898052847dc0065126750085c5bb032cf86cf329901324f4fd2318f72a2693f4c9b25e4f4def89f1528e3cdb4c5aa8bf9c2e6163c4e1e9f6870160d3314dab8953d17fb12e1079a7fb8100045265d586c2531e7e487a6fb17043eac36d1faa205d59d6f6fcf8bc02f1ddefdeffc89d98660b1055220e9e068ff8a9eeaa370807c3549b25ff54084416bc5c39dbd7bf2423b6355a1b9173b31a36dabb21d54af2909c176b50e69dbdcaae5ba54fe6458ffa363a4f36ffd8c0cd37fdc11fe37962b0fe82d9abd56cd619c1de9e42afcd81cd813ad92e5559cec6de5e70cbb78e482af8693184b68414f5ca796ce1efeec82346aea6d39b0f8fcb7354f5b4ef7128d9c032e9542ed882bc5c6dfaa7dca00dbea62210ec1e416881104ce8313b108b7d5125e74995ed1e02164e8a4127da857a93b3dc5e5a63011f5e9b97c7dc3e433a71a07a820428417467f25faf1d02844c5472e83af2297f9956d56e458cc893962843736de690bf7c647b26d0f5d5d6ba06abbaa151e1d0ed2861f7ac81ca06bad8e2188ba0fbac828973651f64f3ccd451cd12d02d7dfe142fc576520f8287e580b4544f1749ce7ed323910939f1556c47c3aea58d735558c11ba53ff2499298239281647d79cc1db3776b62a8ef134ca9a4bf84aecb67541f3de689e1515fbf1d6b762c77efdbda24a580c336f0b0184ff549af2f1ac2a20ee8e2ee081b76bccba8fce82720b72d4fc5ddc102e93cf378dd6d55fe8c51f9774c930915005759bc70077271dcd3052b57a2ea5ade36941e82db2bc0a1d19cc49e9edff5065983d14cc2ac155e9a92cb55a0060b67846ee4bd9684a9b4d5ef3a0879f202c32d495731a4b6a4d80cdd674d3115a9f840f63797344892c84ac70efd1156be28dee08c57d06034a6e89b7b24cab6dc7433b1d090979b02504ae9516ac530ef6c64efc78abeffb3e0c9b7dc46292d1eb1bbff83a0f75547e522048219037f672ee4b9611ee840af5bf415c51d09fb6b943bba215cce3429aca5e56c9a3a2c889ad98cb179a1bd34ab4c427371b987d617a52c5e0feb65f12ce9c358a14b453a5296e7b23d23ccb100e8d35b9ec4e303bf4dae4b6ea36c5b4a0e62406e20373ceb578a28c33e7329a4392b31671749380de184949e7545267f155d14355acd9b95fd68edca9781cdc36f283af6e6b3a6044ae29c64e32ef958f905f5e760ea701c5497093b3733509d81784959c249d74dbef39a077da74a8cd1774be58f992a05b4653b41316c6aa8c30fe8b200ee5ce84d8a80fc5a4f2339d03f974f9f7c68e13f5348d230fe67823af6512a1b7b5603eb906d5ec5269007aee2ae5aca8a964e658f4aeca9d666c36b101bdea44a73bfdfb12171b5071091b6586d4090e709028399e3c6a3616494282a5b2460658f9d780847d515bb7d0c65dd6bd14e97df5dd676967d3b56d342fb140f4095ada44cfd764eedbf8fc9675c05c2049ff898d587c1efb29571586c7d467afdf832adbf7f1470c8ec4134dc5559a04ac53874e4b122dec503d85465c6750075f0d7cb79abf091bbcba099e7e2cda4d31f17b424b4b421d6da2c47745c1a250b160d0ad87ada7dc34d55daa1ecdfa938af8f643ae07da462bf6fdb1e1874d49ad3ba3a13eba74e9312e3a5a4d5a50922af39e89eb6ddfa63355051eb80de24e80048db9ceeefc8c6ccce7cbf0edfd4ccbf76d83eb2e5d6081efc1b0f6463cbcb142847e5d9d52096bac8f808fdc0d1e23ecd8a6a002f2c2f29e53f3587d75ea7459fde082559241b2da83489a335980cd231503697919f55339e7f7bee4a75cb0b9979a0b49c14a1111c8103f2bb9b68c3dc87076baf9afcb7186c46e85179761a4e0745c9aa4e0ed4dc38503090965502dc4063ad5408a0d017f328156ecba278e728c051764f2f7be43eac758c4343c5f04785f8b0885a378fd75ee78851bd93bd3fa1995a6b32f4dc97d7688731464b209557579f88071badbf3f7acb2f9aff128f508984e7b18b0b4693d7c57b11330a442ca58a3187affc155075c918603010c1013c56cad5bc95b41a1027a00c12bdf357825c7e36d69f2b3da8392d813ba3d7fe5633b529a3af63e482c31044e04cc0fd786d7c6f27c381d1583f741da4fcb238daea1fa5aaf95c6c3dc3ac97b98e9d12e7897fcf17f382014e88b98a5e5c0b70c453e0e7285f1a85a975fd237648eb750635ea10dc6c7c27f3a8aa346dd2869c06e9a3a8f229bbf68d02a3829bc1fa70cdc68fe0d5899db560cd19e83fda6b1a6382036b2a869a6bb47f8ec7e0b89ed6c065da7c4c56d5305cecb9e4cd77d34140ed6036cd241c1b1036bc1a349caa567f065c3b38d92ee8dea307fb196b879617cf70ac139494da5c0d615e113fef56fd68243447bc4ace641af8933ec70197bcdc4b46644f443f947e28a148a318478571ca5d3db06681a04dee624d54ebda57b70835bd844e80d13f9e957969a637a7bd7c8a45cd03902cf0ded47292844c9c937f2b634d041be5b02c09cab33bf74db1665a24594680a373d426466878a9a9d9eb6b8dbfb0b1a4b7a7f86a5c7fb010a0d16191e2021393d58638da4c1dffb172c2e737b9eb8b9ba0000000000000000000000000000000000000000000000000000000000000f18293201",
        "00d4c46441a5b12dfacdc1410153a6bac6acdedadf4a9128e9e08952a0202d9d000052d7f159a0a6616807391dbb900063b64cc21d219c426c9acf1ed9375508f6f1c0edb3ee6a0723f53c3c110cd3337318a94643a541aab8d49b664ba9318579183b4aa5f1561debc6a7079fec342e7f0b0017b440f43db8eff19286b3c9a4b496f8b049d7130f4f58ee1f0ab2505a5882f32b5464edea3e0c8a6f4e4ce566a290a030c17612c6f52939dbe1a7650cda7f6b6034d8e4aff92039c51f561169b2b0b5fff9e6fa794586224b4bbb20172b88d4f885185fbffb2541913aa08c5e8ebe2291a0b07eb5e7855010e96b6638574ae86f876e4a826ac9353d161f61f39819f539bc3478c040e13bb3501df6c956c4afae24f9a1cfc117352827da5889d9c973b723da47fc78f47035ae4e71b96588d6375043eafc38ca58f7b469f0a9dc357b95f6651e3a127476b14179b50971bdec818195b1f2883cbbca7fd39c8b7fc03aedd81b5aaae2ea7df73dbfb94b779e4c301b81ad3445c0acaf7ebf85061c63fd7ad9b5ea93ad5e21a0d455532ec82824ffb4c5fb7a86a85b1ad781864497c6d1e4cc7fd15b8ef40ebeed5a63803df40f0c780ba6e3fce6caf9eb51a9edcf5818dbe7c34e7722db81c96c5224a85b51dae08b5a9c417f248f499149d6c723d08ca5975a4afe7d79ae5ac30777556bbdee9bd1a8a65a14572b3d15b87867b7daa72e03fb4edf95a850845c625e4309982f62e7bd07ba68c4d24ef043c7d93f902695443fecd05e8cfb85e5f69108e3a5bd908c58c8fdd6d2ca74dc508a1758aa16c1f35a39df26855c400916d2d6a79c6a6398a202369db3b154019765505b1baf96c325a18667310e68c1063036280a45814ca95ca28948e1cb0c0fccb45affe9709b628a36d07b6ecaba628c2909b35d5e10adef2b5a987a1efc7ef8b74089f333c34137017e97b1b09fa513c9b8c8504ade7224151b36bbefbe448aea42ae4b8f86bb0a4f2c838deed6b64308b1edbadef9be981ea5e1298e084dce8f9f197c9a34e427e5e66f5e4242864d87246e4141004fbdab8abfee2269189768e88f3a306c59c16fc477e330140d829af2ba0fd7a5ef3b7f0641ecab6253a9cc619f04bbe1be92184681e9bd2ccb93df9473f50147bfe437482bcdf41e9419847fe833962c2ab9ed1d20d0a5f6065e3b55ac2d3beee3a0d35624cee01312b9e22a5bd98c7926978d76e6d03889d2fb2b6257c106cdd6bb2e1268dfa0d12d42b2b679e0ce4381a9831ad598b309c282c9c636f6068b79a7495d3227ba8f5fffbf75c1237b71ac9b70ff827c699abe459abfdac801d334d14e54719e27c28f9fd4bc9cbaf6ee7af1df0a0eb163ee20c389697fe22af5a65f6ac91cf81198d4819adf628903dd3374e5a5207b7d6beccab968b8187bffecb47943e9e5ade68372e4da6a95b18e8d533c085225b5f70f68ef75c514ef67620abf61f3a167f945480d62820e5b6e8d98a0e5ef12a1f147bfb70ca85b82b16a5d2ac98e8de0c07f51efaf4197a571977663e8c8dfc668bf38f2eeed5969653c79bb3db377f3ea627ec742ec52f7c0a152f14c1fba2cc5df298c45d2f98d63d20369e673ab81db4f8760150838d52efe2e012cec89e43a60f80751aa7eaa097d1d217b1bb8b1423a47ca3c90493eab508ca4488c441fa5d4892af53aa0e488033e9300c8ce153f11e961963ef95c7627ae72ed8c89c1805b1aadae73f5afeacb7c3b100e3cd5c29c2a7556da35e943c02fafdb32b2ff21ca886577e63b884a75788865d6c2ca8f8fbcc5ecdc59373a19bdd0a357d65893c781b8118ca9454897c6c9c4ca6186efc688ebd4"
      ],
      "sequence": 4294967294
    }
  ],
  "vout": [
    {
      "value": 1.0,
      "n": 0,
      "scriptPubKey": {
        "asm": "OP_RETURN a73b78f45f9e5ffc0aefdd463e9eff719f80d2f4c7f0577cca53c213c7148c9e 216891b0b5d04ba2f8fa0ab4944f60bfebe96ed91cbdf469f1fa826a90a3e0cf0148b19095f06b82d8da2a94b46f409fcbc94ef93c9dd449d1daa24ab083c0ef6128d1f0f5900be2b8ba4af4d40f20ffaba92e995cfdb429b1bac22ad0e3a08f4108f1d0d5b02bc2989a6ad4f42f00df8b890eb97cdd9409919ae20af0c380afa1e811303550cb22787a8a3414cfe03f6b69ee599c3d74e9717a02ea1023604f81c831101570eb02585aaa1434efc01f4b49ce79bc1d54c9515a22ca3003406fe1a8517075108b62383aca74548fa07f2b29ae19dc7d34a9313a42aa5063200fc18871505530ab42181aea5474af805f0b098e39fc5d1489111a628a7043002f216891b0b5d04ba2f8fa0ab4944f60bfebe96ed91cbdf469f1fa826a90a3e0cf0148b19095f06b82d8da2a94b46f409fcbc94ef93c9dd449d1daa24ab083c0ef6128d1f0f5900be2b8ba4af4d40f20ffaba92e995cfdb429b1bac22ad0e3a08f4108f1d0d5b02bc2989a6ad4f42f00df8b890eb97cdd9409919ae20af0c380afa1e811303550cb22787a8a3414cfe03f6b69ee599c3d74e9717a02ea1023604f81c831101570eb02585aaa1434efc01f4b49ce79bc1d54c9515a22ca3003406fe1a8517075108b62383aca74548fa07f2b29ae19dc7d34a9313a42aa5063200fc18871505530ab42181aea5474af805f0b098e39fc5d1489111a628a7043002f216891b0b5d04ba2f8fa0ab4944f60bfebe96ed91cbdf469f1fa826a90a3e0cf0148b19095f06b82d8da2a94b46f409fcbc94ef93c9dd449d1daa24ab083c0ef6128d1f0f5900be2b8ba4af4d40f20ffaba92e995cfdb429b1bac22ad0e3a08f4108f1d0d5b02bc2989a6ad4f42f00df8b890eb97cdd9409919ae20af0c380afa1e811303550cb22787a8a3414cfe03f6b69ee599c3d74e9717a02ea1023604f81c831101570eb02585aaa1434efc01f4b49ce79bc1d54c9515a22ca3003406fe1a8517075108b62383aca74548fa07f2b29ae19dc7d34a9313a42aa5063200fc18871505530ab42181aea5474af805f0b098e39fc5d1489111a628a7043002f216891b0b5d04ba2f8fa0ab4944f60bfebe96ed91cbdf469f1fa826a90a3e0cf0148b19095f06b82d8da2a94b46f409fcbc94ef93c9dd449d1daa24ab083c0ef6128d1f0f5900be2b8ba4af4d40f20ffaba92e995cfdb429b1bac22ad0e3a08f4108f1d0d5b02bc2989a6ad4f42f00df8b890eb97cdd9409919ae20af0c380afa1e811303550cb22787a8a3414cfe03f6b69ee599c3d74e9717a02ea1023604f81c831101570eb02585aaa1434efc01f4b49ce79bc1d54c9515a22ca3003406fe1a8517075108b62383aca74548fa07f2b29ae19dc7d34a9313a42aa5063200fc18871505530ab42181aea5474af805f0b098e39fc5d1489111a628a7043002f216891b0b5d04ba2f8fa0ab4944f60bfebe96ed91cbdf469f1fa826a90a3e0cf0148b19095f06b82d8da2a94b46f409fcbc94ef93c9dd449d1daa24ab083c0ef6128d1f0f5900be2b8ba4af4d40f20ffaba92e995cfdb429b1bac22ad0e3a08f4108f1d0d5b02bc2989a6ad4f42f00df8b890eb97cdd9409919ae20af0c380afa1e811303550cb22787a8a3414cfe03fe548f43393ba4cd941f599081bf5916f1e92615b18de665c720f6ac6b7ff624a",
        "hex": "6a20a73b78f45f9e5ffc0aefdd463e9eff719f80d2f4c7f0577cca53c213c7148c9e4db004216891b0b5d04ba2f8fa0ab4944f60bfebe96ed91cbdf469f1fa826a90a3e0cf0148b19095f06b82d8da2a94b46f409fcbc94ef93c9dd449d1daa24ab083c0ef6128d1f0f5900be2b8ba4af4d40f20ffaba92e995cfdb429b1bac22ad0e3a08f4108f1d0d5b02bc2989a6ad4f42f00df8b890eb97cdd9409919ae20af0c380afa1e811303550cb22787a8a3414cfe03f6b69ee599c3d74e9717a02ea1023604f81c831101570eb02585aaa1434efc01f4b49ce79bc1d54c9515a22ca3003406fe1a8517075108b62383aca74548fa07f2b29ae19dc7d34a9313a42aa5063200fc18871505530ab42181aea5474af805f0b098e39fc5d1489111a628a7043002f216891b0b5d04ba2f8fa0ab4944f60bfebe96ed91cbdf469f1fa826a90a3e0cf0148b19095f06b82d8da2a94b46f409fcbc94ef93c9dd449d1daa24ab083c0ef6128d1f0f5900be2b8ba4af4d40f20ffaba92e995cfdb429b1bac22ad0e3a08f4108f1d0d5b02bc2989a6ad4f42f00df8b890eb97cdd9409919ae20af0c380afa1e811303550cb22787a8a3414cfe03f6b69ee599c3d74e9717a02ea1023604f81c831101570eb02585aaa1434efc01f4b49ce79bc1d54c9515a22ca3003406fe1a8517075108b62383aca74548fa07f2b29ae19dc7d34a9313a42aa5063200fc18871505530ab42181aea5474af805f0b098e39fc5d1489111a628a7043002f216891b0b5d04ba2f8fa0ab4944f60bfebe96ed91cbdf469f1fa826a90a3e0cf0148b19095f06b82d8da2a94b46f409fcbc94ef93c9dd449d1daa24ab083c0ef6128d1f0f5900be2b8ba4af4d40f20ffaba92e995cfdb429b1bac22ad0e3a08f4108f1d0d5b02bc2989a6ad4f42f00df8b890eb97cdd9409919ae20af0c380afa1e811303550cb22787a8a3414cfe03f6b69ee599c3d74e9717a02ea1023604f81c831101570eb02585aaa1434efc01f4b49ce79bc1d54c9515a22ca3003406fe1a8517075108b62383aca74548fa07f2b29ae19dc7d34a9313a42aa5063200fc18871505530ab42181aea5474af805f0b098e39fc5d1489111a628a7043002f216891b0b5d04ba2f8fa0ab4944f60bfebe96ed91cbdf469f1fa826a90a3e0cf0148b19095f06b82d8da2a94b46f409fcbc94ef93c9dd449d1daa24ab083c0ef6128d1f0f5900be2b8ba4af4d40f20ffaba92e995cfdb429b1bac22ad0e3a08f4108f1d0d5b02bc2989a6ad4f42f00df8b890eb97cdd9409919ae20af0c380afa1e811303550cb22787a8a3414cfe03f6b69ee599c3d74e9717a02ea1023604f81c831101570eb02585aaa1434efc01f4b49ce79bc1d54c9515a22ca3003406fe1a8517075108b62383aca74548fa07f2b29ae19dc7d34a9313a42aa5063200fc18871505530ab42181aea5474af805f0b098e39fc5d1489111a628a7043002f216891b0b5d04ba2f8fa0ab4944f60bfebe96ed91cbdf469f1fa826a90a3e0cf0148b19095f06b82d8da2a94b46f409fcbc94ef93c9dd449d1daa24ab083c0ef6128d1f0f5900be2b8ba4af4d40f20ffaba92e995cfdb429b1bac22ad0e3a08f4108f1d0d5b02bc2989a6ad4f42f00df8b890eb97cdd9409919ae20af0c380afa1e811303550cb22787a8a3414cfe03fe548f43393ba4cd941f599081bf5916f1e92615b18de665c720f6ac6b7ff624a",
        "type": "nulldata"
      }
    },
    {
      "value": 499987.7972,
      "n": 1,
      "scriptPubKey": {
        "asm": "1 9579ce876ac06435d2ba9eec50859219f5573fbd5b7cab9c17f7f7715fb70b11",
        "hex": "51209579ce876ac06435d2ba9eec50859219f5573fbd5b7cab9c17f7f7715fb70b11",
        "reqSigs": 1,
        "type": "witness_v1_scripthash",
        "addresses": [
          "3QJmnh"
        ]
      }
    }
  ],
  "blockhash": "b157fe5006ea74e3e2696296011f5383f171fa956e468cbbd84742f98a1af3af",
  "confirmations": 1,
  "time": 1764179051,
  "blocktime": 1764179051
}