{
  "hex": "01000000000101260615c48f60b6ae009967600bc7ee4499bced29835c62d20f482a6ae2c64bd90000000000feffffff02907857cc782d000022512080afe50ec07265535d171b0490926e03da41a4f79bfb64bed173cdfc404c87ab00e1f50500000000fdd5046a209d043515881c1f6e59869d31c0763197c460030663839b820ca5bd978ec93bda4db00497b979127410f587b8838a3d35f9dd1926a186a4f8cd82e95d9b1c8787fb4df3b79959325430d5a798a3aa1d15d9fd390681a684d8eda2c97dbb3ca7a7db6dd3d7f939523450b5c7f8c3ca7d75b99d5966e1c6e4b88dc2a91ddb5cc7c7bb0db3f7d91972147095e7d8e3ea5d5599bd7946c1e6c498ade2893dfb7ce7e79b2d931739f992f490750738030abdb5795d99a6210624784d0269dd1b9c07077bcd733719d9b2d4b0552718232a9d95597db986012604586d2249fd3bbc27275bed535779b9d2b4d0354778434afdf5391dd9e6614664380d42299d5bdc47473b8d33775999f294f0156758636addd5193df9c6416644182d6209bd7bfc67671bad1397b979127410f587b8838a3d35f9dd1926a186a4f8cd82e95d9b1c8787fb4df3b79959325430d5a798a3aa1d15d9fd390681a684d8eda2c97dbb3ca7a7db6dd3d7f939523450b5c7f8c3ca7d75b99d5966e1c6e4b88dc2a91ddb5cc7c7bb0db3f7d91972147095e7d8e3ea5d5599bd7946c1e6c498ade2893dfb7ce7e79b2d931739f992f490750738030abdb5795d99a6210624784d0269dd1b9c07077bcd733719d9b2d4b0552718232a9d95597db986012604586d2249fd3bbc27275bed535779b9d2b4d0354778434afdf5391dd9e6614664380d42299d5bdc47473b8d33775999f294f0156758636addd5193df9c6416644182d6209bd7bfc67671bad1397b979127410f587b8838a3d35f9dd1926a186a4f8cd82e95d9b1c8787fb4df3b79959325430d5a798a3aa1d15d9fd390681a684d8eda2c97dbb3ca7a7db6dd3d7f939523450b5c7f8c3ca7d75b99d5966e1c6e4b88dc2a91ddb5cc7c7bb0db3f7d91972147095e7d8e3ea5d5599bd7946c1e6c498ade2893dfb7ce7e79b2d931739f992f490750738030abdb5795d99a6210624784d0269dd1b9c07077bcd733719d9b2d4b0552718232a9d95597db986012604586d2249fd3bbc27275bed535779b9d2b4d0354778434afdf5391dd9e6614664380d42299d5bdc47473b8d33775999f294f0156758636addd5193df9c6416644182d6209bd7bfc67671bad1397b979127410f587b8838a3d35f9dd1926a186a4f8cd82e95d9b1c8787fb4df3b79959325430d5a798a3aa1d15d9fd390681a684d8eda2c97dbb3ca7a7db6dd3d7f939523450b5c7f8c3ca7d75b99d5966e1c6e4b88dc2a91ddb5cc7c7bb0db3f7d91972147095e7d8e3ea5d5599bd7946c1e6c498ade2893dfb7ce7e79b2d931739f992f490750738030abdb5795d99a6210624784d0269dd1b9c07077bcd733719d9b2d4b0552718232a9d95597db986012604586d2249fd3bbc27275bed535779b9d2b4d0354778434afdf5391dd9e6614664380d42299d5bdc47473b8d33775999f294f0156758636addd5193df9c6416644182d6209bd7bfc67671bad1397b979127410f587b8838a3d35f9dd1926a186a4f8cd82e95d9b1c8787fb4df3b79959325430d5a798a3aa1d15d9fd390681a684d8eda2c97dbb3ca7a7db6dd3d7f939523450b5c7f8c3ca7d75b99d5966e1c6e4b88dc2a91ddb5cc7c7bb0db3f7d91972147095e7d8e3ea5d5599bd7946c1e6c498ade2893dfb7ce7e79b2d931739f992f490750738030abdb5795d99713c86a6f8c5c20e40e9584a1f39ad1a6580c489272a34434ccdd9eb94654c3302fd750932dafb05fd8a8366d224c1f00930c121e9b61d57895025dfbb0419e8f5a6f3ba5e2ec5a25d95774682452e372617647f4b9717ebc7486758a854f5afcbd49c399324f574267d1e906c71dbc354827995ecaf85b03b885df19e5410203546faaca770ca7741775c34be749b41807a4eaaf2ecbe925c9a50f4669863479e48f0e4f954267f6a0bd6792ce07282357e0b813709b8c347a337f013a4f6098ef2e34cc26dcd433e2674384124407cc8120d383dc5dba2f9ce6dd35ea48200912c97c66cfb175f498ce423477317edeaf7a81fc314d2d0fb95e0d40fd4fa6009c5738d05aa200e2bc0cb4c89f2ed14bd73b00f140eed44daa9881c57d2ea0b02a4d04b2abea3cca0a8cbf0f0226955f50b29515feee066ed0669489bf5695b3cb8870002d50daad4cb4a92e00355a68001b28d497a4a102d1ae4a2a7888853f10596cd3c75e9c9c2a539cf8be175c438f25ea698e3b968efb1f3ee7beeb2b8e9d1a3c423a98f00382bb78d35f82d407876ceb73c67db929c19752db604f131d0b1e23dd31146fcd5928abcf2a7c642c6f781e62519e0064c9366cf22673352a0658c504a5c7dc888cb100dbf9b1f42f988e7c7e2cfee2a58f2a2e8163142557e6365e8526a12156f61c078516cb49cc0f23b2e0a974aa84667870555b65930e320af94e116508daf8b9974fc1a463aa84a60f02af985dc07313eb5af92ed9802007fb8cd01bee3d848049cee399de43701370b80d2dbaf67dead98ea7799ef4cb529463ea0a4eea34cd0eae9a42dfa887f4a2a46dd61a66b5ff558b7c7c4be5226522a9a648865c34693e55670c5a1a0175c9bd41a9f0ddf0fb85617fdf03feb8cbc2d40e0446e80273f8134913467cbd1e5e7fa7d8b6d43c230bbc6fba55e92f46bdf7d7add03d3a7e3505a341c9039a0f020ee5370b21e5ed9232661b2cad190a3fcf62f89b3f1babbc3f4d8817deb297534d360704d53b565127622a676eed884badf8793c64ab557fce71e0e9a4ebbfa24810e3566d9eef24d83f7e2e3744c92a0d2bf4ec071d23760d2a82db3ad74222f456c3dec2e167c1c5f187ca7dadba8f8be3e53a2aa61c9185a1a88c98b8f2a0366744991493904ad4400be260c9eae584674888e6370115bd21a60b43925d7b67e78bffa27592f8f3fe527ce8df4f5fa339fa75f515cb917ef84697d30e9c8c2bd7948473ad4ee155a567d461497aca2e936dc35df4c37115109e53886fc89b7ea38d7555ddbf33f74779ba66c016168ca652479b02655a7002ea23bb6350d33c8e74d6dd010c3cbc1fce427eea7d524c99f780516921191c374dcd3024c63bddea6b65721800a3e87f2d295ddf0f55f50a7066bf71208e5c1eccaa55a65ab050638884a906684c20931a418318722cbcf111d7496a96014d93b5b79767e3298ba54e437abce514edc8f7d68822ca201069e813c81770cdce694dde7bd239db221deae21bb607f6bac6ba075d3b8e667ec2ca60c02310c99d876a022941753e7fb8aac97ec0d12473a053c181dff1bbf37034bd5a3b6b380b73cf33629ea4ec3d7a4f8a4eac8bdd1582d51064591b2b0190a3ddd5b21b704cddca0b95a74faa13d1733532b6fe88246456ef37b1a90ac7b4aa69a16e37e6a1ae68296d251123edd6eea58454b746d525444d2610f24b9345af65171f07dfba398d12cc570537afdd8ec8a4ae02478b1c3d3f331ff0aa346c7fac4c4c5193948a42b5fc5b88c995226f203c1de225014d6bf09e2fc5d1071ee227897ad92a58cc76b22884563882e62c2d4aab36bb5de40e707372a42ef0277ed14c919038588a4c322cf6d4e0c29d1dde4989215bd8ef2a2f0376ed71f15c2e7e597f8cc29d92fbe8bc6ae9736adf3c61ef5edc3f3891c7f04cefc52586cec4bf684d6009ff51bbe161fbcd7dd49b9cea6e16b18196b611ea3ee0f001a354814e1815b5a12e987a4e5971f854efe78052b23ee2309dba0bffcb7ab0c2ddd51e0cafde714c407c7af247f27b32f81aec70b5cab9842fdadc66b0a4a6dc65bcf6c7c24630a7caef5bd49f42154e53130ecb512b179914f7d14869b9c6b364c072431175c2212d6c3257f6b564160dad58ca89dfa422e7741a38b4d32e2c065c385db997c7983b9c43911c8768f0004df7fcbe6ddcef493afffb0f9c21868ae1aca516d68014a23af324c3d4410b14979bcd7bc02caa33043c8260589295b903e4a52c2487e3ab39531763f12cc8fdc4b121924a99fb3c41a5bf6bfcd1dbf9c316b0a87f5e5707dae0f7045ae78838fe1b5d522dd56e5e754be54af192abab3003b11e6a17fb04cd340b8fcc664159a53e193e4aa8dde572f82d5fc25676246af84174d61b3b918a9a89d9e24bbf617cd17f2c0432a084db18d4c30192befaefe4ea07a800ec4687ddd9d6c738cdb750f15282a7d37b563a544e1a8f5eb8dce95fa4c46de559979b7989a515fddfef39f9c0b6eef84f71e8c6e758c45dc954b8a5c34c05d01eda98a38c5c52fe77cbbdf8c51e956e0eb9902b391ac2e4b5b74b403480706b550de19b39f3083c7c3c2e8491e3503c8dd8a25fe284a0e525df42c1522a3cd76c66806a6b1b757abfbe0a39311606ee5c7284d3f584a8202a7d5b06dec2a5fe8c9e3f132dddba3cf4171e4021f1b33c33a014102bd1b9ee081a89d901b07f93be639bda0fdc3eecdc5a4538e205c2627c0c87a4f430771110b7513d955dbbc58d2df04513d2f8831eb56708521c1ad8374621e5d31df3d92decc6800c24aa8e87c28b2f2baf72e03c903175549290800f39d06c08cae633a0d69f7ce7b23a068210eacd343a893f8ad1e05d820deb369cf686ce25f6ef034ba8d014e94a724b21feb9c62230bed672decd01a54c09221d93d18fb664d74cdf7ba61b30d17ac3a4f41c79ca00d7f87ab288303c105802ee6a6d2fc75899147b1370174cfad2314523940e476797bab9574757fae4ed0073c90e51f33cfcbac0a4c439dffcba624b3d4d3d65499879e4971e507bc0944bada002469d6edfd873cae30541b57b23de43458b261b30941c6fc1b8c57e923ff3d128f2f94ef79cd139694c1080819e9d2bc36c8f2e8a77e6c4efd91a4dd248cb4b37f7cbce97f179dfce6b4a7c44863048cd16099117fa242fc0b6bb633bb71022622e2720e504ad83de4a1def72f450f538d231a3919cea8f6845b848905eedea95664f9df68b70d467cffc7f98c46c91a32b1369871655e958a82e057816eaaff6a42343bb6e1aad094fa5009369167fb7adde99922d74e3ced819d8b61fcaaca38be27e0316b7a0d0f292b2f498e9bb4ced5f4fd0713191a1d393d44466c768287a3b2b5b6beced1d8e3f1051d393c4b5b668082a4b0b6b9d7e0eb0206323b415f93b0dfe00000000000000000000000000000000000000d24343e01fd21050010ca236bee4a16d32486a805af278640ef997a6d564c9fe82fc3545ddcb12b7ffa1b522642d4660dff5946e050c12203c3eb5dc820bc4920a8b7477a510daaa559aa970925f61320fb3b8f6ba689bac654add188f7a0787419b709a882f8ea1b948fa897a2950da4220855c0b069893ff7a81cfb71a2ffe684b901eb02a7a6845b7de2683e12997620a08b43611aa343d75890e8a104c5104d9b4132449d53a21ba7ad65a0e36db03a173c121728ef7d415f4b26c10c06004d74e8c76d17cf77ba4651dad6dbe47fc1d39ade80052a586873d2dca7bdcb43ad2891125eb58f7412632865ae42b40b5fccba8027afa257eaa2130d78d3d2b763aea20a9fa766820a0d7f428dd5c536622d9c0b6590ca2c8ccd0cb3c20abd59cc84539891d1132aec436054301fd3fff843e8d0be38d3f2216cf3ad2152bf5e713a9009a53e4651c59d09404ab15f7450be88268243d3a4021ad04cb61afc106b9d1091e32f9ad124d01d7ba7f9077babb6ff05c87069a6581baaefd34b91e2775f6c30d49f28100e8da0e7b14970709f14199e54c3889bf4b72550046524752fb0cd9e435bc5e5259568d7e16edca943ecd09faf9a7eceeb62f7e68091a81f0d77ce685bef6791c7b4e726ed93d152bd81657a8087f9aa84a7e938b308b90e628a39ff01d0c629527946f03f739f8ca7daa7e8f762596247535aab71d137b5725a775acac73ec06e6e4fac630196b232b6e0b0138bdeb383de0d885cb618b89464b5cbc5f884a83f699d398baf9b40ac4ff08ded3b01c27172de5864e4fd2c668e79a7a945d528934d1579bf5f9ceaace13ae354aa0e6c4ae137e0a5325641280fad75a209f97d2f777fdeaf5c4349ff9ad7f66ccc46be3c3c0ec5b578078de3555d9fd96eed724f44dca7c6ceee553c861554a64d6b5e48b9e6578d66e14287ec933fb450c5c9c980d3c5c416c6a78634157d2094538377050583496edaf4a5892ea1230dfc764681052d1490910d3073b015d185280d91da2cf4f269557764ca72f60877068b6c5edccc3c35fe1a7dfe505e789b8bd479d614ef33c31dc7820a34562929d40e1a1310e97f5ff2953a2b2251ba8c8e10bf29b896f716e4f5957a8acc0daef39fb34751af48cfbb6f3681d181c4b450ee4145c542faa537048aa7a3c649f46f28ca5ad3d15116a4c4c830d1b3cf1c838eef587d9ac355e81a47230d5e8caf34ebe6ffc1fabf7fb45c6507392e4cf532286e9a3e2ae89962ed60fc943b536866f5d9810b0d8cbf649fb6e6e6fa57a59ee5b15afff37f85a4e8f486830ac453e073c2a84da1c6918bf097d40630fa405e7c094babdd701884e42e953ee3679eab54e4637c8a44223b926a44bbb209aa4bcbc83d2fb4f3db91fd202e50dec2af51f8db4448e82be66905d50d3018f659e38b4b97565836f5c734e6399c92ab428e8490dc14a1261a34929896fa637c2f39912764d6382e897c735f1a296785e3c4d9994765ec47c969a4aa20033ac6724faa4e0f4b49d75486ed81a7566b46f0aa33cd96874d53e8f99dc1d8485b79d7967fcfb42fec027dc73689184758cf52ed252a27b388b9ce535b5bff9d23496ad677b00990a8b0976a074d131bc82628a525df8fb7467702c3c584fa7a8e85046778de0ba8cf61d4bb9a554c5a7e077cf560ae851ed7fb1c09587c45e309e3201a0042c70268282d0eb0eec0c58e419339ed853c088a0e29388abc2f1c0594b5dda8b52367fdef1f7a62ef106599096966051f1c9b96b240e7267833f51298187bab2fc5284322e07cba8d9d2e6acfe0c2c71dfda3988c59dac217c13d5ec86d7ab44e496e0cf7473d3937fba73d680c102f81000000",
  "txid": "399632e62fb60978485fdda7ec6b8a29674501305aed59cfaec6716dd62183b0",
  "hash": "addd57d8e7682203f4859983b206d9ee7b2e13e305b8323c618be57921464922",
  "size": 5085,
  "vsize": 2278,
  "version": 1,
  "locktime": 129,
  "vin": [
    {
      "txid": "d94bc6e26a2a480fd2625c8329edbc9944eec70b60679900aeb6608fc4150626",
      "vout": 0,
      "scriptSig": {
        "asm": "",
        "hex": ""
      },
      "txinwitness": [
        "32dafb05fd8a8366d224c1f00930c121e9b61d57895025dfbb0419e8f5a6f3ba5e2ec5a25d95774682452e372617647f4b9717ebc7486758a854f5afcbd49c399324f574267d1e906c71dbc354827995ecaf85b03b885df19e5410203546faaca770ca7741775c34be749b41807a4eaaf2ecbe925c9a50f4669863479e48f0e4f954267f6a0bd6792ce07282357e0b813709b8c347a337f013a4f6098ef2e34cc26dcd433e2674384124407cc8120d383dc5dba2f9ce6dd35ea48200912c97c66cfb175f498ce423477317edeaf7a81fc314d2d0fb95e0d40fd4fa6009c5738d05aa200e2bc0cb4c89f2ed14bd73b00f140eed44daa9881c57d2ea0b02a4d04b2abea3cca0a8cbf0f0226955f50b29515feee066ed0669489bf5695b3cb8870002d50daad4cb4a92e00355a68001b28d497a4a102d1ae4a2a7888853f10596cd3c75e9c9c2a539cf8be175c438f25ea698e3b968efb1f3ee7beeb2b8e9d1a3c423a98f00382bb78d35f82d407876ceb73c67db929c19752db604f131d0b1e23dd31146fcd5928abcf2a7c642c6f781e62519e0064c9366cf22673352a0658c504a5c7dc888cb100dbf9b1f42f988e7c7e2cfee2a58f2a2e8163142557e6365e8526a12156f61c078516cb49cc0f23b2e0a974aa84667870555b65930e320af94e116508daf8b9974fc1a463aa84a60f02af985dc07313eb5af92ed9802007fb8cd01bee3d848049cee399de43701370b80d2dbaf67dead98ea7799ef4cb529463ea0a4eea34cd0eae9a42dfa887f4a2a46dd61a66b5ff558b7c7c4be5226522a9a648865c34693e55670c5a1a0175c9bd41a9f0ddf0fb85617fdf03feb8cbc2d40e0446e80273f8134913467cbd1e5e7fa7d8b6d43c230bbc6fba55e92f46bdf7d7add03d3a7e3505a341c9039a0f020ee5370b21e5ed9232661b2cad190a3fcf62f89b3f1babbc3f4d8817deb297534d360704d53b565127622a676eed884badf8793c64ab557fce71e0e9a4ebbfa24810e3566d9eef24d83f7e2e3744c92a0d2bf4ec071d23760d2a82db3ad74222f456c3dec2e167c1c5f187ca7dadba8f8be3e53a2aa61c9185a1a88c98b8f2a0366744991493904ad4400be260c9eae584674888e6370115bd21a60b43925d7b67e78bffa27592f8f3fe527ce8df4f5fa339fa75f515cb917ef84697d30e9c8c2bd7948473ad4ee155a567d461497aca2e936dc35df4c37115109e53886fc89b7ea38d7555ddbf33f74779ba66c016168ca652479b02655a7002ea23bb6350d33c8e74d6dd010c3cbc1fce427eea7d524c99f780516921191c374dcd3024c63bddea6b65721800a3e87f2d295ddf0f55f50a7066bf71208e5c1eccaa55a65ab050638884a906684c20931a418318722cbcf111d7496a96014d93b5b79767e3298ba54e437abce514edc8f7d68822ca201069e813c81770cdce694dde7bd239db221deae21bb607f6bac6ba075d3b8e667ec2ca60c02310c99d876a022941753e7fb8aac97ec0d12473a053c181dff1bbf37034bd5a3b6b380b73cf33629ea4ec3d7a4f8a4eac8bdd1582d51064591b2b0190a3ddd5b21b704cddca0b95a74faa13d1733532b6fe88246456ef37b1a90ac7b4aa69a16e37e6a1ae68296d251123edd6eea58454b746d525444d2610f24b9345af65171f07dfba398d12cc570537afdd8ec8a4ae02478b1c3d3f331ff0aa346c7fac4c4c5193948a42b5fc5b88c995226f203c1de225014d6bf09e2fc5d1071ee227897ad92a58cc76b22884563882e62c2d4aab36bb5de40e707372a42ef0277ed14c919038588a4c322cf6d4e0c29d1dde4989215bd8ef2a2f0376ed71f15c2e7e597f8cc29d92fbe8bc6ae9736adf3c61ef5edc3f3891c7f04cefc52586cec4bf684d6009ff51bbe161fbcd7dd49b9cea6e16b18196b611ea3ee0f001a354814e1815b5a12e987a4e5971f854efe78052b23ee2309dba0bffcb7ab0c2ddd51e0cafde714c407c7af247f27b32f81aec70b5cab9842fdadc66b0a4a6dc65bcf6c7c24630a7caef5bd49f42154e53130ecb512b179914f7d14869b9c6b364c072431175c2212d6c3257f6b564160dad58ca89dfa422e7741a38b4d32e2c065c385db997c7983b9c43911c8768f0004df7fcbe6ddcef493afffb0f9c21868ae1aca516d68014a23af324c3d4410b14979bcd7bc02caa33043c8260589295b903e4a52c2487e3ab39531763f12cc8fdc4b121924a99fb3c41a5bf6bfcd1dbf9c316b0a87f5e5707dae0f7045ae78838fe1b5d522dd56e5e754be54af192abab3003b11e6a17fb04cd340b8fcc664159a53e193e4aa8dde572f82d5fc25676246af84174d61b3b918a9a89d9e24bbf617cd17f2c0432a084db18d4c30192befaefe4ea07a800ec4687ddd9d6c738cdb750f15282a7d37b563a544e1a8f5eb8dce95fa4c46de559979b7989a515fddfef39f9c0b6eef84f71e8c6e758c45dc954b8a5c34c05d01eda98a38c5c52fe77cbbdf8c51e956e0eb9902b391ac2e4b5b74b403480706b550de19b39f3083c7c3c2e8491e3503c8dd8a25fe284a0e525df42c1522a3cd76c66806a6b1b757abfbe0a39311606ee5c7284d3f584a8202a7d5b06dec2a5fe8c9e3f132dddba3cf4171e4021f1b33c33a014102bd1b9ee081a89d901b07f93be639bda0fdc3eecdc5a4538e205c2627c0c87a4f430771110b7513d955dbbc58d2df04513d2f8831eb56708521c1ad8374621e5d31df3d92decc6800c24aa8e87c28b2f2baf72e03c903175549290800f39d06c08cae633a0d69f7ce7b23a068210eacd343a893f8ad1e05d820deb369cf686ce25f6ef034ba8d014e94a724b21feb9c62230bed672decd01a54c09221d93d18fb664d74cdf7ba61b30d17ac3a4f41c79ca00d7f87ab288303c105802ee6a6d2fc75899147b1370174cfad2314523940e476797bab9574757fae4ed0073c90e51f33cfcbac0a4c439dffcba624b3d4d3d65499879e4971e507bc0944bada002469d6edfd873cae30541b57b23de43458b261b30941c6fc1b8c57e923ff3d128f2f94ef79cd139694c1080819e9d2bc36c8f2e8a77e6c4efd91a4dd248cb4b37f7cbce97f179dfce6b4a7c44863048cd16099117fa242fc0b6bb633bb71022622e2720e504ad83de4a1def72f450f538d231a3919cea8f6845b848905eedea95664f9df68b70d467cffc7f98c46c91a32b1369871655e958a82e057816eaaff6a42343bb6e1aad094fa5009369167fb7adde99922d74e3ced819d8b61fcaaca38be27e0316b7a0d0f292b2f498e9bb4ced5f4fd0713191a1d393d44466c768287a3b2b5b6beced1d8e3f1051d393c4b5b668082a4b0b6b9d7e0eb0206323b415f93b0dfe00000000000000000000000000000000000000d24343e01",
        "0010ca236bee4a16d32486a805af278640ef997a6d564c9fe82fc3545ddcb12b7ffa1b522642d4660dff5946e050c12203c3eb5dc820bc4920a8b7477a510daaa559aa970925f61320fb3b8f6ba689bac654add188f7a0787419b709a882f8ea1b948fa897a2950da4220855c0b069893ff7a81cfb71a2ffe684b901eb02a7a6845b7de2683e12997620a08b43611aa343d75890e8a104c5104d9b4132449d53a21ba7ad65a0e36db03a173c121728ef7d415f4b26c10c06004d74e8c76d17cf77ba4651dad6dbe47fc1d39ade80052a586873d2dca7bdcb43ad2891125eb58f7412632865ae42b40b5fccba8027afa257eaa2130d78d3d2b763aea20a9fa766820a0d7f428dd5c536622d9c0b6590ca2c8ccd0cb3c20abd59cc84539891d1132aec436054301fd3fff843e8d0be38d3f2216cf3ad2152bf5e713a9009a53e4651c59d09404ab15f7450be88268243d3a4021ad04cb61afc106b9d1091e32f9ad124d01d7ba7f9077babb6ff05c87069a6581baaefd34b91e2775f6c30d49f28100e8da0e7b14970709f14199e54c3889bf4b72550046524752fb0cd9e435bc5e5259568d7e16edca943ecd09faf9a7eceeb62f7e68091a81f0d77ce685bef6791c7b4e726ed93d152bd81657a8087f9aa84a7e938b308b90e628a39ff01d0c629527946f03f739f8ca7daa7e8f762596247535aab71d137b5725a775acac73ec06e6e4fac630196b232b6e0b0138bdeb383de0d885cb618b89464b5cbc5f884a83f699d398baf9b40ac4ff08ded3b01c27172de5864e4fd2c668e79a7a945d528934d1579bf5f9ceaace13ae354aa0e6c4ae137e0a5325641280fad75a209f97d2f777fdeaf5c4349ff9ad7f66ccc46be3c3c0ec5b578078de3555d9fd96eed724f44dca7c6ceee553c861554a64d6b5e48b9e6578d66e14287ec933fb450c5c9c980d3c5c416c6a78634157d2094538377050583496edaf4a5892ea1230dfc764681052d1490910d3073b015d185280d91da2cf4f269557764ca72f60877068b6c5edccc3c35fe1a7dfe505e789b8bd479d614ef33c31dc7820a34562929d40e1a1310e97f5ff2953a2b2251ba8c8e10bf29b896f716e4f5957a8acc0daef39fb34751af48cfbb6f3681d181c4b450ee4145c542faa537048aa7a3c649f46f28ca5ad3d15116a4c4c830d1b3cf1c838eef587d9ac355e81a47230d5e8caf34ebe6ffc1fabf7fb45c6507392e4cf532286e9a3e2ae89962ed60fc943b536866f5d9810b0d8cbf649fb6e6e6fa57a59ee5b15afff37f85a4e8f486830ac453e073c2a84da1c6918bf097d40630fa405e7c094babdd701884e42e953ee3679eab54e4637c8a44223b926a44bbb209aa4bcbc83d2fb4f3db91fd202e50dec2af51f8db4448e82be66905d50d3018f659e38b4b97565836f5c734e6399c92ab428e8490dc14a1261a34929896fa637c2f39912764d6382e897c735f1a296785e3c4d9994765ec47c969a4aa20033ac6724faa4e0f4b49d75486ed81a7566b46f0aa33cd96874d53e8f99dc1d8485b79d7967fcfb42fec027dc73689184758cf52ed252a27b388b9ce535b5bff9d23496ad677b00990a8b0976a074d131bc82628a525df8fb7467702c3c584fa7a8e85046778de0ba8cf61d4bb9a554c5a7e077cf560ae851ed7fb1c09587c45e309e3201a0042c70268282d0eb0eec0c58e419339ed853c088a0e29388abc2f1c0594b5dda8b52367fdef1f7a62ef106599096966051f1c9b96b240e7267833f51298187bab2fc5284322e07cba8d9d2e6acfe0c2c71dfda3988c59dac217c13d5ec86d7ab44e496e0cf7473d3937fba73d680c102f"
      ],
      "sequence": 4294967294
    }
  ],
  "vout": [
    {
      "value": 499968.4761,
      "n": 0,
      "scriptPubKey": {
        "asm": "1 80afe50ec07265535d171b0490926e03da41a4f79bfb64bed173cdfc404c87ab",
        "hex": "512080afe50ec07265535d171b0490926e03da41a4f79bfb64bed173cdfc404c87ab",
        "reqSigs": 1,
        "type": "witness_v1_scripthash",
        "addresses": [
          "3QJmnh"
        ]
      }
    },
    {
      "value": 1.0,
      "n": 1,
      "scriptPubKey": {
        "asm": "OP_RETURN 9d043515881c1f6e59869d31c0763197c460030663839b820ca5bd978ec93bda 97b979127410f587b8838a3d35f9dd1926a186a4f8cd82e95d9b1c8787fb4df3b79959325430d5a798a3aa1d15d9fd390681a684d8eda2c97dbb3ca7a7db6dd3d7f939523450b5c7f8c3ca7d75b99d5966e1c6e4b88dc2a91ddb5cc7c7bb0db3f7d91972147095e7d8e3ea5d5599bd7946c1e6c498ade2893dfb7ce7e79b2d931739f992f490750738030abdb5795d99a6210624784d0269dd1b9c07077bcd733719d9b2d4b0552718232a9d95597db986012604586d2249fd3bbc27275bed535779b9d2b4d0354778434afdf5391dd9e6614664380d42299d5bdc47473b8d33775999f294f0156758636addd5193df9c6416644182d6209bd7bfc67671bad1397b979127410f587b8838a3d35f9dd1926a186a4f8cd82e95d9b1c8787fb4df3b79959325430d5a798a3aa1d15d9fd390681a684d8eda2c97dbb3ca7a7db6dd3d7f939523450b5c7f8c3ca7d75b99d5966e1c6e4b88dc2a91ddb5cc7c7bb0db3f7d91972147095e7d8e3ea5d5599bd7946c1e6c498ade2893dfb7ce7e79b2d931739f992f490750738030abdb5795d99a6210624784d0269dd1b9c07077bcd733719d9b2d4b0552718232a9d95597db986012604586d2249fd3bbc27275bed535779b9d2b4d0354778434afdf5391dd9e6614664380d42299d5bdc47473b8d33775999f294f0156758636addd5193df9c6416644182d6209bd7bfc67671bad1397b979127410f587b8838a3d35f9dd1926a186a4f8cd82e95d9b1c8787fb4df3b79959325430d5a798a3aa1d15d9fd390681a684d8eda2c97dbb3ca7a7db6dd3d7f939523450b5c7f8c3ca7d75b99d5966e1c6e4b88dc2a91ddb5cc7c7bb0db3f7d91972147095e7d8e3ea5d5599bd7946c1e6c498ade2893dfb7ce7e79b2d931739f992f490750738030abdb5795d99a6210624784d0269dd1b9c07077bcd733719d9b2d4b0552718232a9d95597db986012604586d2249fd3bbc27275bed535779b9d2b4d0354778434afdf5391dd9e6614664380d42299d5bdc47473b8d33775999f294f0156758636addd5193df9c6416644182d6209bd7bfc67671bad1397b979127410f587b8838a3d35f9dd1926a186a4f8cd82e95d9b1c8787fb4df3b79959325430d5a798a3aa1d15d9fd390681a684d8eda2c97dbb3ca7a7db6dd3d7f939523450b5c7f8c3ca7d75b99d5966e1c6e4b88dc2a91ddb5cc7c7bb0db3f7d91972147095e7d8e3ea5d5599bd7946c1e6c498ade2893dfb7ce7e79b2d931739f992f490750738030abdb5795d99a6210624784d0269dd1b9c07077bcd733719d9b2d4b0552718232a9d95597db986012604586d2249fd3bbc27275bed535779b9d2b4d0354778434afdf5391dd9e6614664380d42299d5bdc47473b8d33775999f294f0156758636addd5193df9c6416644182d6209bd7bfc67671bad1397b979127410f587b8838a3d35f9dd1926a186a4f8cd82e95d9b1c8787fb4df3b79959325430d5a798a3aa1d15d9fd390681a684d8eda2c97dbb3ca7a7db6dd3d7f939523450b5c7f8c3ca7d75b99d5966e1c6e4b88dc2a91ddb5cc7c7bb0db3f7d91972147095e7d8e3ea5d5599bd7946c1e6c498ade2893dfb7ce7e79b2d931739f992f490750738030abdb5795d99713c86a6f8c5c20e40e9584a1f39ad1a6580c489272a34434ccdd9eb94654c33",
        "hex": "6a209d043515881c1f6e59869d31c0763197c460030663839b820ca5bd978ec93bda4db00497b979127410f587b8838a3d35f9dd1926a186a4f8cd82e95d9b1c8787fb4df3b79959325430d5a798a3aa1d15d9fd390681a684d8eda2c97dbb3ca7a7db6dd3d7f939523450b5c7f8c3ca7d75b99d5966e1c6e4b88dc2a91ddb5cc7c7bb0db3f7d91972147095e7d8e3ea5d5599bd7946c1e6c498ade2893dfb7ce7e79b2d931739f992f490750738030abdb5795d99a6210624784d0269dd1b9c07077bcd733719d9b2d4b0552718232a9d95597db986012604586d2249fd3bbc27275bed535779b9d2b4d0354778434afdf5391dd9e6614664380d42299d5bdc47473b8d33775999f294f0156758636addd5193df9c6416644182d6209bd7bfc67671bad1397b979127410f587b8838a3d35f9dd1926a186a4f8cd82e95d9b1c8787fb4df3b79959325430d5a798a3aa1d15d9fd390681a684d8eda2c97dbb3ca7a7db6dd3d7f939523450b5c7f8c3ca7d75b99d5966e1c6e4b88dc2a91ddb5cc7c7bb0db3f7d91972147095e7d8e3ea5d5599bd7946c1e6c498ade2893dfb7ce7e79b2d931739f992f490750738030abdb5795d99a6210624784d0269dd1b9c07077bcd733719d9b2d4b0552718232a9d95597db986012604586d2249fd3bbc27275bed535779b9d2b4d0354778434afdf5391dd9e6614664380d42299d5bdc47473b8d33775999f294f0156758636addd5193df9c6416644182d6209bd7bfc67671bad1397b979127410f587b8838a3d35f9dd1926a186a4f8cd82e95d9b1c8787fb4df3b79959325430d5a798a3aa1d15d9fd390681a684d8eda2c97dbb3ca7a7db6dd3d7f939523450b5c7f8c3ca7d75b99d5966e1c6e4b88dc2a91ddb5cc7c7bb0db3f7d91972147095e7d8e3ea5d5599bd7946c1e6c498ade2893dfb7ce7e79b2d931739f992f490750738030abdb5795d99a6210624784d0269dd1b9c07077bcd733719d9b2d4b0552718232a9d95597db986012604586d2249fd3bbc27275bed535779b9d2b4d0354778434afdf5391dd9e6614664380d42299d5bdc47473b8d33775999f294f0156758636addd5193df9c6416644182d6209bd7bfc67671bad1397b979127410f587b8838a3d35f9dd1926a186a4f8cd82e95d9b1c8787fb4df3b79959325430d5a798a3aa1d15d9fd390681a684d8eda2c97dbb3ca7a7db6dd3d7f939523450b5c7f8c3ca7d75b99d5966e1c6e4b88dc2a91ddb5cc7c7bb0db3f7d91972147095e7d8e3ea5d5599bd7946c1e6c498ade2893dfb7ce7e79b2d931739f992f490750738030abdb5795d99a6210624784d0269dd1b9c07077bcd733719d9b2d4b0552718232a9d95597db986012604586d2249fd3bbc27275bed535779b9d2b4d0354778434afdf5391dd9e6614664380d42299d5bdc47473b8d33775999f294f0156758636addd5193df9c6416644182d6209bd7bfc67671bad1397b979127410f587b8838a3d35f9dd1926a186a4f8cd82e95d9b1c8787fb4df3b79959325430d5a798a3aa1d15d9fd390681a684d8eda2c97dbb3ca7a7db6dd3d7f939523450b5c7f8c3ca7d75b99d5966e1c6e4b88dc2a91ddb5cc7c7bb0db3f7d91972147095e7d8e3ea5d5599bd7946c1e6c498ade2893dfb7ce7e79b2d931739f992f490750738030abdb5795d99713c86a6f8c5c20e40e9584a1f39ad1a6580c489272a34434ccdd9eb94654c33",
        "type": "nulldata"
      }
    }
  ],
  "blockhash": "e950f66e7d48487e03ac7a1b4e7864aa28758accf0e3d98358cdf64a352531e0",
  "confirmations": 1,
  "time": 1764181937,
  "blocktime": 1764181937
}