{
  "hex": "0100000000010193600c3b5f67ef18fdd3815aa2b240c59a8217687578f5e7d4b6d2a78128580c0000000000feffffff028079ca95782d00002251209ab687f8e27ac1423b7cd60dcc842727c858e726935effcb473eb26fad0c15a200e1f50500000000fdd5046a20b5dee7e71cbb012ba00346933db5ddeac3d2905610f6a7fd288ccf655592959d4db004eecb9122ed7bb6625ffb0e7ed07ca67c285a74b64dfa4e1e6157af03d5e8ebe0ceebb102cd5b96427fdb2e5ef05c865c087a54966dda6e3e41778f23f5c8cbc0ae8bd162ad3bf6221fbb4e3e903ce63c681a34f60dba0e5e2117ef4395a8aba08eabf1428d1bd6023f9b6e1eb01cc61c483a14d62d9a2e7e0137cf63b5888b806e4b11a26dfb36e2df7b8efe50fc26fca8daf436cd7ace9ee1d72f8355686b604e6b31824ddb16c2ff5baede70dc06dc88fad416ed5aeebec1f70fa375484b402e0b51e22dbb76a29f3bcebe10bc66bce89ab4768d3a8edea1976fc315282b200e2b71c20d9b5682bf1bee9e309c469cc8ba9456ad1aaefe81b74fe335080b00eecb9122ed7bb6625ffb0e7ed07ca67c285a74b64dfa4e1e6157af03d5e8ebe0ceebb102cd5b96427fdb2e5ef05c865c087a54966dda6e3e41778f23f5c8cbc0ae8bd162ad3bf6221fbb4e3e903ce63c681a34f60dba0e5e2117ef4395a8aba08eabf1428d1bd6023f9b6e1eb01cc61c483a14d62d9a2e7e0137cf63b5888b806e4b11a26dfb36e2df7b8efe50fc26fca8daf436cd7ace9ee1d72f8355686b604e6b31824ddb16c2ff5baede70dc06dc88fad416ed5aeebec1f70fa375484b402e0b51e22dbb76a29f3bcebe10bc66bce89ab4768d3a8edea1976fc315282b200e2b71c20d9b5682bf1bee9e309c469cc8ba9456ad1aaefe81b74fe335080b00eecb9122ed7bb6625ffb0e7ed07ca67c285a74b64dfa4e1e6157af03d5e8ebe0ceebb102cd5b96427fdb2e5ef05c865c087a54966dda6e3e41778f23f5c8cbc0ae8bd162ad3bf6221fbb4e3e903ce63c681a34f60dba0e5e2117ef4395a8aba08eabf1428d1bd6023f9b6e1eb01cc61c483a14d62d9a2e7e0137cf63b5888b806e4b11a26dfb36e2df7b8efe50fc26fca8daf436cd7ace9ee1d72f8355686b604e6b31824ddb16c2ff5baede70dc06dc88fad416ed5aeebec1f70fa375484b402e0b51e22dbb76a29f3bcebe10bc66bce89ab4768d3a8edea1976fc315282b200e2b71c20d9b5682bf1bee9e309c469cc8ba9456ad1aaefe81b74fe335080b00eecb9122ed7bb6625ffb0e7ed07ca67c285a74b64dfa4e1e6157af03d5e8ebe0ceebb102cd5b96427fdb2e5ef05c865c087a54966dda6e3e41778f23f5c8cbc0ae8bd162ad3bf6221fbb4e3e903ce63c681a34f60dba0e5e2117ef4395a8aba08eabf1428d1bd6023f9b6e1eb01cc61c483a14d62d9a2e7e0137cf63b5888b806e4b11a26dfb36e2df7b8efe50fc26fca8daf436cd7ace9ee1d72f8355686b604e6b31824ddb16c2ff5baede70dc06dc88fad416ed5aeebec1f70fa375484b402e0b51e22dbb76a29f3bcebe10bc66bce89ab4768d3a8edea1976fc315282b200e2b71c20d9b5682bf1bee9e309c469cc8ba9456ad1aaefe81b74fe335080b00eecb9122ed7bb6625ffb0e7ed07ca67c285a74b64dfa4e1e6157af03d5e8ebe0ceebb102cd5b96427fdb2e5ef05c865c087a54966dda6e3e41778f23f5c8cbc0ae8bd162ad3bf6221fbb4e3e903ce63c681a34f60dba0e5e2117ef4395a8aba08eabf1428d1bd6023f9b6e1eb01cc61c483a14d62d9a2e7e0137cf63b5888b806e4b11a26dfb36e2df7b8efe50fc26fc5f713de34e4d6b274321b5f04fa7d2f901364a2efd458dfae39a956b070a94e802fd75090b5f06cf5bb4ecb593e173dc688128deebf5f0b3dbfc256a755a9418c6079531f8e23ae35e72ff25a375c6699b57600798ee1f867ced354d662bee5f5e58fc57045b6b9cca1662e0eea41d57c4a0049ee652d9ef6d6340a2924d814e7b761f9131609fa80d6d653309890da7ad89a393567093c02ec0a0e439df78dee900531044a8427e1e8a49c149c79f6f5d0969e86d5385e1ea443c28811087d62d02d20ef18a600ff3386706e5f9e9fa4b0780773a4931707352f76a0add78259e49b3ffeeab4fb33e30144d20bb4a477094b3581b26a7dbabe58c7e18c592f3f7c357420f33034f410f36af6b70e146c30e0d88abc270d7318818ba576c2fc03addd9c2fc0bda17e35e8bb3ebd1666e569787c352bfb2b3762693eac869d425aba7c55ac5965131480c6232f9d40665fa60c25c9e7d4e6bdde0a598b3bb02328bad8cde79e049419ba6a3d4256bb8eb374f41d8a4ae26a81253a1b72b6db2e0767345b2bd758be5f680219db4d19f41cff654faa152917ef388f4f80c0872a165919366bbe8f1754f30621cfbb5b40575f62f36ed1fac1ebca6a9bdc1cfd4d0c87163785275be5fa5ee0e2e2a1efc77015bcfbc57873f80683b3ae574a59be9f083a354f0801410de91dedefb40155e39b1b4faef74c5e30ecd67ed4b83d1abefceb52a54483d9cfb276011997818d355e9a264d3bf7a9c29521d2ede103cae9bdbfa38e86cd2c06f8ed112282edd1077b5fcd275c255ad551c5878e95d15cf378dc9d00fdb104fef6a0e41e04df5e2764cc90cc7d161ecdcd4752f1f30fe6fb37886f03a881657667fadc464501668abbbe2aaef6ef38b8c42070c022e3a802426928fd127353dbc41d5c9f19bede9519b19c6ed5a267a27170695bf95da818b8beff8a8c4e3678338cbe59c5ce79596a98476f2f4c68f28f27e3870837832474693be0d1f22117caad69d2c75448de8d364d2537383e231ad53dffbb4baf2be6ba9bad944457d3a1f76cb37a3e85d7966641aa4c645d4efe55beabfe54b8b97e2fe55929dce254198813518504b81ef490c5f103c5cef199808af77316b4ce44f3c3a24c493e0be21bb4e0c7af63044b6453c197587d622a9e9436fdf64efee3f22245f0baa97895a10ba07a144ec090c95fd953b171d096a9bced62ef4336683319fdc75964b2c2bba178052712d0671005a5e2f132bd26735a2f79974d48422ee650eddedc5ad1d77e6da8fc910b6d0e54de765e15638741b1ecbf2e95ff14679dd29e9178aee6b63c5c39afb78a8a2e647a6aca57662baa1fe68ae6f07ef7c9b20569668a67e769c0411607d7660b2f2253332248acc1ebcaefe479070a465b7a5506aa90f4c9d258c04ea93f4d55a52f3eb54dc5b8b2644fa2337a7857fd79ed68a641d5b1463bd0b9ec507704885cd242d04a8720079e3c1c3d171202f97a266a9774d46601a26f0d0b1f1465d8f52a8e85d8595375496f62afd3d2ba6239e786f98829de954021bfb5ea23f9a3fffea5e52f02297a954524b8ca0bae87642ec2f3a57673974d9259d759b0c82b9e496659e05a21c952c260edd2dc730df214ce6cafd91449bdf55ef0d591765c02df0f152da63f9589a7885d049db3999d66f1a9becbf5ff6558b8393419b41b2e2f67d3f0d7eb3b850f4d5881b317a131f5c16b4319edf506de54b98998ff9a48087150b3e13f84b774cb74d180e14110dce222813c8a46cdc2be9051bd455595439fc766a4b6b4b6cc5cb5aed1b942152ee9a384b7c55e679d42e10eb822a1ef34a7718085642f57fd7165839d84930f603348d25caf60a6b5a02c6a6304745af7622b4f298fbb31bebe1df8aa079cbc6e075837835989ade76eb7578fc723f6d4aea404498f57add0d6ea01bca966ce544bd7cf942cc33cd8e947db0ec5a1b6ed64fc92ed20b757be27002109292e5e49745dd862894d1294e637ab5bdf2ba88547d155f4542cc04330c183a802dfae30579a8aebe7dd13f007d53a1510cb32b6277f6fc241fdce062b94dc9bcf280d15f54cd3f0c955cdf367958149e15e64ad0126fc41175cb9e4b70b62bc6c0f441cbae8f0dcea213b73e026712ca3aaa94d637e5cfadbb63f2e5f8f4343881772b87231de02924808ca201c5e687a3b319c60545bd6e752e4c8f01ddbcb71de3f3718dc21dab021de345159f2004c2ba15459ece272b78d202c2864d66b62772d5c8acdd35494e55618db135d1afd1f44115686c88517d554f5060f6cb03af6f28666f23242daaa97304a7753e5a5262d5e7e62946c8a2ab434c6c14361a019b6b1051fb885d205b127992858d93edf3a103d97ab91a5d60ec8533c2eed532c78cef7f5e060fadbafd5c95e40dbbd282441797d22b99230848da91d905300af25dc1f893967d7ae379cf4370e0307162b6e2513fb4b212d819429b4880091e04241aa30878cc76283613ef168a210a6ebdb4e5342c5957ddd9a583ac80911ace78873c773d4743e0f54ae4c0cefa2f006dd3f5de1630b89d3760a5c96032642410a2ea761905bcac8b4dccfe34432db287acc0f864b8db79173129bc736edc222c6fe0ab899eb9ca6f761a89fd39e3ddb6bca240c241102a67ee3789a3b800778d8f06704494092dfc27287a4218cc9af302e09e1244942538724a6275750a2ca70ceb3ba726e4a01cd18bbb5878031467a83040f8df81f29601cbf2950f9ea07fdc327ab1e2ee111eedda27cd6723f252b71dc0f61d5138073f2159bca2f595d82de7e4bf336c95774b17cebd351093e789574726924960b59e9140e0a8dd5c3c9d795ad1d59e2cfe5a6fbf8a210cd5dfeb108f5253c91d481f878969e72a508bfe9eb10358d01a6274a13775ed41a9b8989602687b785947633a0cd070a162f91d582523a5ebfa87ccf9e5c78fc25327a4479ed2b5c1c8bf7272263f8cb89edf9df5ccfa7403e89481efa68cf463dfb6c492369fa8d1ac9d5f7746ebfcee8519dca4c452f94895b4d69296b4b7fc94ee16ff9987374b93bf54cd53360d1bf65733765b6e6b566710abfe66a6f7eb731619c809a6cf42df34d0a81d9f77134cf560c2b6c5d0b554e85baf65258b0d6e887a156768e9a873bc6f754000e323b236ee274fce409d6a3e163b9c1afa0e1e33f99cb74f65f023695458a201edf9843ad5b105be0d0ba8221ab9f3ffba565805f09f439bdeea36ecebf2491ea96948a2693039636ce46957f3498e09a94da3a952fe0a29ca30e4c197d290cac5ea5fddc492a4cf15591cf7dfb63bb5a2bd14e57c487490c8c495721f21a378bea7dde0893c3d4a61626772849db5b6ccd9f20c10162445798999a6e116263a3f455962638ea0c5d4d8e1e7e9f4f91e45575867696b73758289b1b4c3f200000000000000000000000000000000000000000000000e182a3901fd210500bac6da8be85242d52b6e40011fec93365c1f9d8251d40334a24642ad9d02c72575d7d6ad7f05410a7362565ac4ba9e1e5aa410b64a1f704bd3cd932b80f3fed11ff6bf40345c297690894e5cde847d990a3bb24aa5a00254729453c4fbcd51042ba6b4c56a6250ca3fb51d54cb10e6e3dc94c4af55fb40d739bc7a001685df88f9f382b2397b7c4dd69236095405a5947a102cc36c137be7613558a84928979516a4e47a72438b07b468d2e19c0f884d32061db3a44b573e58d9d383db39ead3f2ed2259bc4537efc6a57534222186bba8a393ac550d7bdcdb1054535414b5406e9931d3e7f8facb991addf21f9de140663d53692f2675f6307aa572178cbd1750ec817c61a5490a06209dfc413bb9b0347ebd9169f5ab6364acb8d89ba21050e5314fd3882c49e6b47bee9589ad64e9d7af4f819ec06bbfe4b172916fc199d2ab9b6a71ada0adafa0d811075a62b6be6d723cafe6b5bfc6b2aa46abfaf2825db66d9d5096d0f64682d4d75ce69d78f3ca4803f837f230480d43471354591d72e72a081461b4bc3c739b4ce2114698c9348750f0cec67af4cdf75829ffd8b6a0077ed1f0adb827b8fad1188550621e290aae8320964e93d7ecd1165daa6471053cd2472b9021808a6416ee60091df4bcc1a552eff6b7f805f79b1cfb8f07aaf7211d969072b97aa0b05fedb2991c48c6ffc4ddd2b4859b3eb1083fa2a0ef0b6da500581e176fa65559b08c52e793a17c8efe2cd1a7d7f0e299be397b180dcc2405535648d1dd197766d71d984825ca697a7102398c75952ca8e338315cc2f242fa0e1e57c81a106a94c2a8202aee307d0184a329bf288f1223cbee03710056f84e7ebbf1ddeabce606cb19fd8380befd3a40f0e1dad279544359bc88b4f641754cdc4d16f66b8450af15343279bf1dd4cb7a9837eb850c462c93a4b270fa694af4f5cb8db996b6b65c9018e7c9b955877212d0956fb72ebcef13cdb49fc966cf7f528d7538d6e6da813ffa0724d661ea5f007fde360c45a710a9c807a0604eb834cd7c9f65903a85b03b56a517563d092f5f9fb472679856931d4ffd648a25cbeb28b427066a5e2305bdff093cb7f99cae1c41f3cf42d916be2c4d9254329080c5f888dce3337aeb3107125c0e89da3bacaa0736e1ca9ad67981725cdb324ba1e7a8347e4e706a8e5b49ba1c8193afc9de446b5f890852866eb743e20980d0fb6d8f63f1b0987b995a7659f71f51fa5b4107b70dcca89a9bfb6b80904f57190d997f98643424e6e076965d05993f257e0a2c9ebf4f3452e223551dfef1aaff183f75c63f8f2e7061ad40913c489b8544adb231cbdd04136a27d85ccde21a6e83506876fa922a5c4286777edcb2edf64464a134ab6b8cf58713e1451616b33e4d6a1fde554764606eaaefec996a120243b5cf7ff9fc4815fd7ccc73e84583eb434596fff7b410ce25478446451365424655501cbdca89c0a9d20034641053a4a9a02187395aef9043bc13ec34f7881fbdbf7e467e8174e9cdb37ec2db20c4cecf23978fbb0ee16457621273110b0d1099f397a4ff6b9d81ba905e569cea8377ea7272de445913d0983356baef3aecd5e2d5e79cf49b6a5e5089ef57fd43b42dd81c8b3e23263e3688546ca450f881450b89365649d70f16b1746ae810121222f3419cfedfaa86fe3685cbdd9d9eb5ead7888146471202a018e82801b502578bdfc200a177e54f6e109aa47b8cf8d67e968f7d83ad184beeefd67646f974f820c10bb047aba1cd36fa90defe7599ec6531d53830005fb41683d9943f7a21fbda0e3ef3ad48926e8c029d79bccf369a53f27cb213f28bcfe1cd60857289fdc2c5908a000000",
  "txid": "39f91ea188110a1725ce989b120408a8f90a557c33888867571a12d4f47c3e72",
  "hash": "f3f0073e4901b8c2662359365cd8d0f0f8f8f89696a4bf55286789728084aee1",
  "size": 5085,
  "vsize": 2278,
  "version": 1,
  "locktime": 138,
  "vin": [
    {
      "txid": "0c582881a7d2b6d4e7f578756817829ac540b2a25a81d3fd18ef675f3b0c6093",
      "vout": 0,
      "scriptSig": {
        "asm": "",
        "hex": ""
      },
      "txinwitness": [
        "0b5f06cf5bb4ecb593e173dc688128deebf5f0b3dbfc256a755a9418c6079531f8e23ae35e72ff25a375c6699b57600798ee1f867ced354d662bee5f5e58fc57045b6b9cca1662e0eea41d57c4a0049ee652d9ef6d6340a2924d814e7b761f9131609fa80d6d653309890da7ad89a393567093c02ec0a0e439df78dee900531044a8427e1e8a49c149c79f6f5d0969e86d5385e1ea443c28811087d62d02d20ef18a600ff3386706e5f9e9fa4b0780773a4931707352f76a0add78259e49b3ffeeab4fb33e30144d20bb4a477094b3581b26a7dbabe58c7e18c592f3f7c357420f33034f410f36af6b70e146c30e0d88abc270d7318818ba576c2fc03addd9c2fc0bda17e35e8bb3ebd1666e569787c352bfb2b3762693eac869d425aba7c55ac5965131480c6232f9d40665fa60c25c9e7d4e6bdde0a598b3bb02328bad8cde79e049419ba6a3d4256bb8eb374f41d8a4ae26a81253a1b72b6db2e0767345b2bd758be5f680219db4d19f41cff654faa152917ef388f4f80c0872a165919366bbe8f1754f30621cfbb5b40575f62f36ed1fac1ebca6a9bdc1cfd4d0c87163785275be5fa5ee0e2e2a1efc77015bcfbc57873f80683b3ae574a59be9f083a354f0801410de91dedefb40155e39b1b4faef74c5e30ecd67ed4b83d1abefceb52a54483d9cfb276011997818d355e9a264d3bf7a9c29521d2ede103cae9bdbfa38e86cd2c06f8ed112282edd1077b5fcd275c255ad551c5878e95d15cf378dc9d00fdb104fef6a0e41e04df5e2764cc90cc7d161ecdcd4752f1f30fe6fb37886f03a881657667fadc464501668abbbe2aaef6ef38b8c42070c022e3a802426928fd127353dbc41d5c9f19bede9519b19c6ed5a267a27170695bf95da818b8beff8a8c4e3678338cbe59c5ce79596a98476f2f4c68f28f27e3870837832474693be0d1f22117caad69d2c75448de8d364d2537383e231ad53dffbb4baf2be6ba9bad944457d3a1f76cb37a3e85d7966641aa4c645d4efe55beabfe54b8b97e2fe55929dce254198813518504b81ef490c5f103c5cef199808af77316b4ce44f3c3a24c493e0be21bb4e0c7af63044b6453c197587d622a9e9436fdf64efee3f22245f0baa97895a10ba07a144ec090c95fd953b171d096a9bced62ef4336683319fdc75964b2c2bba178052712d0671005a5e2f132bd26735a2f79974d48422ee650eddedc5ad1d77e6da8fc910b6d0e54de765e15638741b1ecbf2e95ff14679dd29e9178aee6b63c5c39afb78a8a2e647a6aca57662baa1fe68ae6f07ef7c9b20569668a67e769c0411607d7660b2f2253332248acc1ebcaefe479070a465b7a5506aa90f4c9d258c04ea93f4d55a52f3eb54dc5b8b2644fa2337a7857fd79ed68a641d5b1463bd0b9ec507704885cd242d04a8720079e3c1c3d171202f97a266a9774d46601a26f0d0b1f1465d8f52a8e85d8595375496f62afd3d2ba6239e786f98829de954021bfb5ea23f9a3fffea5e52f02297a954524b8ca0bae87642ec2f3a57673974d9259d759b0c82b9e496659e05a21c952c260edd2dc730df214ce6cafd91449bdf55ef0d591765c02df0f152da63f9589a7885d049db3999d66f1a9becbf5ff6558b8393419b41b2e2f67d3f0d7eb3b850f4d5881b317a131f5c16b4319edf506de54b98998ff9a48087150b3e13f84b774cb74d180e14110dce222813c8a46cdc2be9051bd455595439fc766a4b6b4b6cc5cb5aed1b942152ee9a384b7c55e679d42e10eb822a1ef34a7718085642f57fd7165839d84930f603348d25caf60a6b5a02c6a6304745af7622b4f298fbb31bebe1df8aa079cbc6e075837835989ade76eb7578fc723f6d4aea404498f57add0d6ea01bca966ce544bd7cf942cc33cd8e947db0ec5a1b6ed64fc92ed20b757be27002109292e5e49745dd862894d1294e637ab5bdf2ba88547d155f4542cc04330c183a802dfae30579a8aebe7dd13f007d53a1510cb32b6277f6fc241fdce062b94dc9bcf280d15f54cd3f0c955cdf367958149e15e64ad0126fc41175cb9e4b70b62bc6c0f441cbae8f0dcea213b73e026712ca3aaa94d637e5cfadbb63f2e5f8f4343881772b87231de02924808ca201c5e687a3b319c60545bd6e752e4c8f01ddbcb71de3f3718dc21dab021de345159f2004c2ba15459ece272b78d202c2864d66b62772d5c8acdd35494e55618db135d1afd1f44115686c88517d554f5060f6cb03af6f28666f23242daaa97304a7753e5a5262d5e7e62946c8a2ab434c6c14361a019b6b1051fb885d205b127992858d93edf3a103d97ab91a5d60ec8533c2eed532c78cef7f5e060fadbafd5c95e40dbbd282441797d22b99230848da91d905300af25dc1f893967d7ae379cf4370e0307162b6e2513fb4b212d819429b4880091e04241aa30878cc76283613ef168a210a6ebdb4e5342c5957ddd9a583ac80911ace78873c773d4743e0f54ae4c0cefa2f006dd3f5de1630b89d3760a5c96032642410a2ea761905bcac8b4dccfe34432db287acc0f864b8db79173129bc736edc222c6fe0ab899eb9ca6f761a89fd39e3ddb6bca240c241102a67ee3789a3b800778d8f06704494092dfc27287a4218cc9af302e09e1244942538724a6275750a2ca70ceb3ba726e4a01cd18bbb5878031467a83040f8df81f29601cbf2950f9ea07fdc327ab1e2ee111eedda27cd6723f252b71dc0f61d5138073f2159bca2f595d82de7e4bf336c95774b17cebd351093e789574726924960b59e9140e0a8dd5c3c9d795ad1d59e2cfe5a6fbf8a210cd5dfeb108f5253c91d481f878969e72a508bfe9eb10358d01a6274a13775ed41a9b8989602687b785947633a0cd070a162f91d582523a5ebfa87ccf9e5c78fc25327a4479ed2b5c1c8bf7272263f8cb89edf9df5ccfa7403e89481efa68cf463dfb6c492369fa8d1ac9d5f7746ebfcee8519dca4c452f94895b4d69296b4b7fc94ee16ff9987374b93bf54cd53360d1bf65733765b6e6b566710abfe66a6f7eb731619c809a6cf42df34d0a81d9f77134cf560c2b6c5d0b554e85baf65258b0d6e887a156768e9a873bc6f754000e323b236ee274fce409d6a3e163b9c1afa0e1e33f99cb74f65f023695458a201edf9843ad5b105be0d0ba8221ab9f3ffba565805f09f439bdeea36ecebf2491ea96948a2693039636ce46957f3498e09a94da3a952fe0a29ca30e4c197d290cac5ea5fddc492a4cf15591cf7dfb63bb5a2bd14e57c487490c8c495721f21a378bea7dde0893c3d4a61626772849db5b6ccd9f20c10162445798999a6e116263a3f455962638ea0c5d4d8e1e7e9f4f91e45575867696b73758289b1b4c3f200000000000000000000000000000000000000000000000e182a3901",
        "00bac6da8be85242d52b6e40011fec93365c1f9d8251d40334a24642ad9d02c72575d7d6ad7f05410a7362565ac4ba9e1e5aa410b64a1f704bd3cd932b80f3fed11ff6bf40345c297690894e5cde847d990a3bb24aa5a00254729453c4fbcd51042ba6b4c56a6250ca3fb51d54cb10e6e3dc94c4af55fb40d739bc7a001685df88f9f382b2397b7c4dd69236095405a5947a102cc36c137be7613558a84928979516a4e47a72438b07b468d2e19c0f884d32061db3a44b573e58d9d383db39ead3f2ed2259bc4537efc6a57534222186bba8a393ac550d7bdcdb1054535414b5406e9931d3e7f8facb991addf21f9de140663d53692f2675f6307aa572178cbd1750ec817c61a5490a06209dfc413bb9b0347ebd9169f5ab6364acb8d89ba21050e5314fd3882c49e6b47bee9589ad64e9d7af4f819ec06bbfe4b172916fc199d2ab9b6a71ada0adafa0d811075a62b6be6d723cafe6b5bfc6b2aa46abfaf2825db66d9d5096d0f64682d4d75ce69d78f3ca4803f837f230480d43471354591d72e72a081461b4bc3c739b4ce2114698c9348750f0cec67af4cdf75829ffd8b6a0077ed1f0adb827b8fad1188550621e290aae8320964e93d7ecd1165daa6471053cd2472b9021808a6416ee60091df4bcc1a552eff6b7f805f79b1cfb8f07aaf7211d969072b97aa0b05fedb2991c48c6ffc4ddd2b4859b3eb1083fa2a0ef0b6da500581e176fa65559b08c52e793a17c8efe2cd1a7d7f0e299be397b180dcc2405535648d1dd197766d71d984825ca697a7102398c75952ca8e338315cc2f242fa0e1e57c81a106a94c2a8202aee307d0184a329bf288f1223cbee03710056f84e7ebbf1ddeabce606cb19fd8380befd3a40f0e1dad279544359bc88b4f641754cdc4d16f66b8450af15343279bf1dd4cb7a9837eb850c462c93a4b270fa694af4f5cb8db996b6b65c9018e7c9b955877212d0956fb72ebcef13cdb49fc966cf7f528d7538d6e6da813ffa0724d661ea5f007fde360c45a710a9c807a0604eb834cd7c9f65903a85b03b56a517563d092f5f9fb472679856931d4ffd648a25cbeb28b427066a5e2305bdff093cb7f99cae1c41f3cf42d916be2c4d9254329080c5f888dce3337aeb3107125c0e89da3bacaa0736e1ca9ad67981725cdb324ba1e7a8347e4e706a8e5b49ba1c8193afc9de446b5f890852866eb743e20980d0fb6d8f63f1b0987b995a7659f71f51fa5b4107b70dcca89a9bfb6b80904f57190d997f98643424e6e076965d05993f257e0a2c9ebf4f3452e223551dfef1aaff183f75c63f8f2e7061ad40913c489b8544adb231cbdd04136a27d85ccde21a6e83506876fa922a5c4286777edcb2edf64464a134ab6b8cf58713e1451616b33e4d6a1fde554764606eaaefec996a120243b5cf7ff9fc4815fd7ccc73e84583eb434596fff7b410ce25478446451365424655501cbdca89c0a9d20034641053a4a9a02187395aef9043bc13ec34f7881fbdbf7e467e8174e9cdb37ec2db20c4cecf23978fbb0ee16457621273110b0d1099f397a4ff6b9d81ba905e569cea8377ea7272de445913d0983356baef3aecd5e2d5e79cf49b6a5e5089ef57fd43b42dd81c8b3e23263e3688546ca450f881450b89365649d70f16b1746ae810121222f3419cfedfaa86fe3685cbdd9d9eb5ead7888146471202a018e82801b502578bdfc200a177e54f6e109aa47b8cf8d67e968f7d83ad184beeefd67646f974f820c10bb047aba1cd36fa90defe7599ec6531d53830005fb41683d9943f7a21fbda0e3ef3ad48926e8c029d79bccf369a53f27cb213f28bcfe1cd60857289fdc2c590"
      ],
      "sequence": 4294967294
    }
  ],
  "vout": [
    {
      "value": 499959.324,
      "n": 0,
      "scriptPubKey": {
        "asm": "1 9ab687f8e27ac1423b7cd60dcc842727c858e726935effcb473eb26fad0c15a2",
        "hex": "51209ab687f8e27ac1423b7cd60dcc842727c858e726935effcb473eb26fad0c15a2",
        "reqSigs": 1,
        "type": "witness_v1_scripthash",
        "addresses": [
          "3QJmnh"
        ]
      }
    },
    {
      "value": 1.0,
      "n": 1,
      "scriptPubKey": {
        "asm": "OP_RETURN b5dee7e71cbb012ba00346933db5ddeac3d2905610f6a7fd288ccf655592959d eecb9122ed7bb6625ffb0e7ed07ca67c285a74b64dfa4e1e6157af03d5e8ebe0ceebb102cd5b96427fdb2e5ef05c865c087a54966dda6e3e41778f23f5c8cbc0ae8bd162ad3bf6221fbb4e3e903ce63c681a34f60dba0e5e2117ef4395a8aba08eabf1428d1bd6023f9b6e1eb01cc61c483a14d62d9a2e7e0137cf63b5888b806e4b11a26dfb36e2df7b8efe50fc26fca8daf436cd7ace9ee1d72f8355686b604e6b31824ddb16c2ff5baede70dc06dc88fad416ed5aeebec1f70fa375484b402e0b51e22dbb76a29f3bcebe10bc66bce89ab4768d3a8edea1976fc315282b200e2b71c20d9b5682bf1bee9e309c469cc8ba9456ad1aaefe81b74fe335080b00eecb9122ed7bb6625ffb0e7ed07ca67c285a74b64dfa4e1e6157af03d5e8ebe0ceebb102cd5b96427fdb2e5ef05c865c087a54966dda6e3e41778f23f5c8cbc0ae8bd162ad3bf6221fbb4e3e903ce63c681a34f60dba0e5e2117ef4395a8aba08eabf1428d1bd6023f9b6e1eb01cc61c483a14d62d9a2e7e0137cf63b5888b806e4b11a26dfb36e2df7b8efe50fc26fca8daf436cd7ace9ee1d72f8355686b604e6b31824ddb16c2ff5baede70dc06dc88fad416ed5aeebec1f70fa375484b402e0b51e22dbb76a29f3bcebe10bc66bce89ab4768d3a8edea1976fc315282b200e2b71c20d9b5682bf1bee9e309c469cc8ba9456ad1aaefe81b74fe335080b00eecb9122ed7bb6625ffb0e7ed07ca67c285a74b64dfa4e1e6157af03d5e8ebe0ceebb102cd5b96427fdb2e5ef05c865c087a54966dda6e3e41778f23f5c8cbc0ae8bd162ad3bf6221fbb4e3e903ce63c681a34f60dba0e5e2117ef4395a8aba08eabf1428d1bd6023f9b6e1eb01cc61c483a14d62d9a2e7e0137cf63b5888b806e4b11a26dfb36e2df7b8efe50fc26fca8daf436cd7ace9ee1d72f8355686b604e6b31824ddb16c2ff5baede70dc06dc88fad416ed5aeebec1f70fa375484b402e0b51e22dbb76a29f3bcebe10bc66bce89ab4768d3a8edea1976fc315282b200e2b71c20d9b5682bf1bee9e309c469cc8ba9456ad1aaefe81b74fe335080b00eecb9122ed7bb6625ffb0e7ed07ca67c285a74b64dfa4e1e6157af03d5e8ebe0ceebb102cd5b96427fdb2e5ef05c865c087a54966dda6e3e41778f23f5c8cbc0ae8bd162ad3bf6221fbb4e3e903ce63c681a34f60dba0e5e2117ef4395a8aba08eabf1428d1bd6023f9b6e1eb01cc61c483a14d62d9a2e7e0137cf63b5888b806e4b11a26dfb36e2df7b8efe50fc26fca8daf436cd7ace9ee1d72f8355686b604e6b31824ddb16c2ff5baede70dc06dc88fad416ed5aeebec1f70fa375484b402e0b51e22dbb76a29f3bcebe10bc66bce89ab4768d3a8edea1976fc315282b200e2b71c20d9b5682bf1bee9e309c469cc8ba9456ad1aaefe81b74fe335080b00eecb9122ed7bb6625ffb0e7ed07ca67c285a74b64dfa4e1e6157af03d5e8ebe0ceebb102cd5b96427fdb2e5ef05c865c087a54966dda6e3e41778f23f5c8cbc0ae8bd162ad3bf6221fbb4e3e903ce63c681a34f60dba0e5e2117ef4395a8aba08eabf1428d1bd6023f9b6e1eb01cc61c483a14d62d9a2e7e0137cf63b5888b806e4b11a26dfb36e2df7b8efe50fc26fc5f713de34e4d6b274321b5f04fa7d2f901364a2efd458dfae39a956b070a94e8",
        "hex": "6a20b5dee7e71cbb012ba00346933db5ddeac3d2905610f6a7fd288ccf655592959d4db004eecb9122ed7bb6625ffb0e7ed07ca67c285a74b64dfa4e1e6157af03d5e8ebe0ceebb102cd5b96427fdb2e5ef05c865c087a54966dda6e3e41778f23f5c8cbc0ae8bd162ad3bf6221fbb4e3e903ce63c681a34f60dba0e5e2117ef4395a8aba08eabf1428d1bd6023f9b6e1eb01cc61c483a14d62d9a2e7e0137cf63b5888b806e4b11a26dfb36e2df7b8efe50fc26fca8daf436cd7ace9ee1d72f8355686b604e6b31824ddb16c2ff5baede70dc06dc88fad416ed5aeebec1f70fa375484b402e0b51e22dbb76a29f3bcebe10bc66bce89ab4768d3a8edea1976fc315282b200e2b71c20d9b5682bf1bee9e309c469cc8ba9456ad1aaefe81b74fe335080b00eecb9122ed7bb6625ffb0e7ed07ca67c285a74b64dfa4e1e6157af03d5e8ebe0ceebb102cd5b96427fdb2e5ef05c865c087a54966dda6e3e41778f23f5c8cbc0ae8bd162ad3bf6221fbb4e3e903ce63c681a34f60dba0e5e2117ef4395a8aba08eabf1428d1bd6023f9b6e1eb01cc61c483a14d62d9a2e7e0137cf63b5888b806e4b11a26dfb36e2df7b8efe50fc26fca8daf436cd7ace9ee1d72f8355686b604e6b31824ddb16c2ff5baede70dc06dc88fad416ed5aeebec1f70fa375484b402e0b51e22dbb76a29f3bcebe10bc66bce89ab4768d3a8edea1976fc315282b200e2b71c20d9b5682bf1bee9e309c469cc8ba9456ad1aaefe81b74fe335080b00eecb9122ed7bb6625ffb0e7ed07ca67c285a74b64dfa4e1e6157af03d5e8ebe0ceebb102cd5b96427fdb2e5ef05c865c087a54966dda6e3e41778f23f5c8cbc0ae8bd162ad3bf6221fbb4e3e903ce63c681a34f60dba0e5e2117ef4395a8aba08eabf1428d1bd6023f9b6e1eb01cc61c483a14d62d9a2e7e0137cf63b5888b806e4b11a26dfb36e2df7b8efe50fc26fca8daf436cd7ace9ee1d72f8355686b604e6b31824ddb16c2ff5baede70dc06dc88fad416ed5aeebec1f70fa375484b402e0b51e22dbb76a29f3bcebe10bc66bce89ab4768d3a8edea1976fc315282b200e2b71c20d9b5682bf1bee9e309c469cc8ba9456ad1aaefe81b74fe335080b00eecb9122ed7bb6625ffb0e7ed07ca67c285a74b64dfa4e1e6157af03d5e8ebe0ceebb102cd5b96427fdb2e5ef05c865c087a54966dda6e3e41778f23f5c8cbc0ae8bd162ad3bf6221fbb4e3e903ce63c681a34f60dba0e5e2117ef4395a8aba08eabf1428d1bd6023f9b6e1eb01cc61c483a14d62d9a2e7e0137cf63b5888b806e4b11a26dfb36e2df7b8efe50fc26fca8daf436cd7ace9ee1d72f8355686b604e6b31824ddb16c2ff5baede70dc06dc88fad416ed5aeebec1f70fa375484b402e0b51e22dbb76a29f3bcebe10bc66bce89ab4768d3a8edea1976fc315282b200e2b71c20d9b5682bf1bee9e309c469cc8ba9456ad1aaefe81b74fe335080b00eecb9122ed7bb6625ffb0e7ed07ca67c285a74b64dfa4e1e6157af03d5e8ebe0ceebb102cd5b96427fdb2e5ef05c865c087a54966dda6e3e41778f23f5c8cbc0ae8bd162ad3bf6221fbb4e3e903ce63c681a34f60dba0e5e2117ef4395a8aba08eabf1428d1bd6023f9b6e1eb01cc61c483a14d62d9a2e7e0137cf63b5888b806e4b11a26dfb36e2df7b8efe50fc26fc5f713de34e4d6b274321b5f04fa7d2f901364a2efd458dfae39a956b070a94e8",
        "type": "nulldata"
      }
    }
  ],
  "blockhash": "394f302ff1829b8db869c98f7b64fb5f27cc2b50e933cff1e5bbeae34fa68a80",
  "confirmations": 1,
  "time": 1764183654,
  "blocktime": 1764183654
}