{
  "hex": "010000000001017cdf5cfe81319cda466d678d743aec0ecd18bb09d4f6126af02f57f9b77ab74e0000000000feffffff02b0767139792d0000225120c0b7dc7ebfdda54112f0af19b143e34b0cfef13ae24ef6779e474b1e1d6121a700e1f50500000000fdd5046a20e70ec1d1c63b95109c74bf4fdeaa29d70feaf08cf29b06adf64ec35cbc47830f4db0041a5d7d25cb151497ce03d2b5fce0e3ead1d61d637dc0113ae305b89ca01956463a7d5d05eb3534b7ee23f295dcc0c3caf1f63d435de0311ac32598bc803976665a1d3d658b5554d78e4392f5bca0a3aa91965d233d80517aa345f8dce05916067a3d1d45ab7574f7ae63b2d59c80838ab1b67d031da0715a8365d8fcc07936269addfda54b9594174e8352357c60636a51569de3fd4091ba6385381c2099d6c6bafddd856bb5b4376ea372155c40434a7176bdc3dd60b19a43a5183c00b9f6e6da9dbde50bd5d4570ec312753c20232a1116dda3bd00d1fa23c5785c60d99686fabd9dc52bf5f4772ee332551c00030a3136fd839d20f1da03e5587c40f9b6a61a5d7d25cb151497ce03d2b5fce0e3ead1d61d637dc0113ae305b89ca01956463a7d5d05eb3534b7ee23f295dcc0c3caf1f63d435de0311ac32598bc803976665a1d3d658b5554d78e4392f5bca0a3aa91965d233d80517aa345f8dce05916067a3d1d45ab7574f7ae63b2d59c80838ab1b67d031da0715a8365d8fcc07936269addfda54b9594174e8352357c60636a51569de3fd4091ba6385381c2099d6c6bafddd856bb5b4376ea372155c40434a7176bdc3dd60b19a43a5183c00b9f6e6da9dbde50bd5d4570ec312753c20232a1116dda3bd00d1fa23c5785c60d99686fabd9dc52bf5f4772ee332551c00030a3136fd839d20f1da03e5587c40f9b6a61a5d7d25cb151497ce03d2b5fce0e3ead1d61d637dc0113ae305b89ca01956463a7d5d05eb3534b7ee23f295dcc0c3caf1f63d435de0311ac32598bc803976665a1d3d658b5554d78e4392f5bca0a3aa91965d233d80517aa345f8dce05916067a3d1d45ab7574f7ae63b2d59c80838ab1b67d031da0715a8365d8fcc07936269addfda54b9594174e8352357c60636a51569de3fd4091ba6385381c2099d6c6bafddd856bb5b4376ea372155c40434a7176bdc3dd60b19a43a5183c00b9f6e6da9dbde50bd5d4570ec312753c20232a1116dda3bd00d1fa23c5785c60d99686fabd9dc52bf5f4772ee332551c00030a3136fd839d20f1da03e5587c40f9b6a61a5d7d25cb151497ce03d2b5fce0e3ead1d61d637dc0113ae305b89ca01956463a7d5d05eb3534b7ee23f295dcc0c3caf1f63d435de0311ac32598bc803976665a1d3d658b5554d78e4392f5bca0a3aa91965d233d80517aa345f8dce05916067a3d1d45ab7574f7ae63b2d59c80838ab1b67d031da0715a8365d8fcc07936269addfda54b9594174e8352357c60636a51569de3fd4091ba6385381c2099d6c6bafddd856bb5b4376ea372155c40434a7176bdc3dd60b19a43a5183c00b9f6e6da9dbde50bd5d4570ec312753c20232a1116dda3bd00d1fa23c5785c60d99686fabd9dc52bf5f4772ee332551c00030a3136fd839d20f1da03e5587c40f9b6a61a5d7d25cb151497ce03d2b5fce0e3ead1d61d637dc0113ae305b89ca01956463a7d5d05eb3534b7ee23f295dcc0c3caf1f63d435de0311ac32598bc803976665a1d3d658b5554d78e4392f5bca0a3aa91965d233d80517aa345f8dce05916067a3d1d45ab7574f7ae63b2d59c80838ab1b67d031da0715a8365d8fcc07936269addfda54b9594174e8352357c60636a8dda88d1850c2ecec9321478c55612e8de5ad98e8f68ad109e28e98cd17bd4f602fd7509ff6c59c3db0061f00d8fd2117423ad83d2050a5718f7b99e40fbedb4acfd2727d0335243e28266c115e367e534e6abf2cbecb9426ece87f7b74393ea5cebebbb0f8e8d23f0689b1f59abddd5616c89d121d00c2922ad1680b90fd3811b0052a66475023a03b27569e4870ce7108f4873b7ef8357dd2033779598a29e8450390fea4d20ba0f91f6eb22f68341009d31e566413cbe5957b1e8ec7c6e4612ac4e011130f9d730bf86035e20857b662dffb53aefd4ae0d8dd0a175f21b589fcfa9f6ac97a95dafb7455d884c4e28b2b94e54d4ba91c32880e4f1e0fe6b018aa53842809f5c91b33e657c9e8f84f1f5584f2c3a99fef651e47d5ce4496d2e232635af9091c883c9251d499fad2c1ee7c328bf06b9929f342ca784b20bf39546fe0d5f782427b47db902e8d1fb879d1b50259bf4d0a2f08fad32997fa1a805ebee244e34b9cb0fae62f3466f33fa77bc99060673199b3d6242fa0f2584e71613050334152dc8633895bc27bc5b624838dd655f097bece9b781097792b748ba95124c3beb6c194f7a2a91333cf75d7017066193f7ab2502effea30e07dbcaf806a36f0091730e62cc493c210c255f0df5f3d091babfebddb941b7771a5c2ee10c8e4e3688dbe44196681d50d0cda024bac76208d4b71579cab92fda336260d6bd01686908694c62c0bb2d33bceba66bfa59657f48e6bb3f0a8ffb7c91b591933db6a2045f285e665f9947163928d5b2c10730d6c58f1e63472a5feb4a4fee80543b1d93320cf1902e5f86316b0827c86f41b90f7f1f74170ae62668cc7a3d6a9fc8d3ad0b534f12c4311da426ec4ebe4305367af3f666f6ef1352ae32cf1c6d7183a17541dd0346bd65e366cd43b60f2a26a83785b9e58821844e2c5714924c0a6c9e63bc9b784790a9eb0e59b7b484313845d6c82aa9ebcaea0d93a76b94d8a0710d566094e0e5c797cba90313c3c60fbd301053497453243fba4d3605d9def0e4dfee33cb687c39c177801e69169d7553a2a0856d7f6cdadf8e7d8f12d4e8221cecc23c1e2cc68138ac5e8600b7fa73f076ffe38e5d92280be3741fa35c1edd23829834de01d60a4e8b543b39a984f7a017c0bcb88d7ceffd19ea180916adb71e8a5a141141d5ab4a720a6d58d30b950c823c49e86b015b568b6640162b4bf1e34aa93390f7d7df318d0383026375dd31c07a7e2723cb1c3ef6b7e5a61b3d9cb70b835ffcb74f749e7b4e6f3ab1f10b2aa0d49657939c88a9d4b465b7357a93b8850de94f3e071bbc1f558e319717673e041f4709d4b88350db679f49f85bb1b9011b73e9a7832e28edff40eb6fb4b9535256573d293d786a3b4f5ab0f9071d1f08e9f2d64ac87e1700e1483f6549be3bbac190ccd4adfe78076a40400a1b3297454847e99bb1e24752272c286d9159415044914f49eefe61a273c81c0beaca0f89501b07e70284a6dc01c1840a8c10f98fce6c03a500d2361d4a956557f11faf81b956655a7de83243d26af4d12638381b5827cb806a3e3c422595944bdd2548d4583693208c917c9677ee2bcd377b782600696f178370fcbf482610594f9888326ca2c1e0bc7c3ed343652331832db423dc6a4c69bb838c1a30bf4fc400c702bcba8fffb11d062a58c0a50f60a5620337c8af11c4a5a90ac24f57e7a39808feec5f64131a6baa8055beac411515fd22727af13221b2614294d89d59a8cebf46a9a23c7aed87916587861ddb45e5619440e16a9137c3ea1d32ec0b6473209333febb7567651e2fe61120eea6624b1908e4d059e19c61f908aa51bb043528fb6572b31aa18aba4056e326beb76fd6aa4f67e1f080b088fe47dc514b7839d687e6fcc51acf161d8285343e54032cad1b87935df2aa5333cd41f106e2790da726d06a29551da5bf7c83fef1c3a9d8c9ea27c0d635bc7ed58b57f4eeccead8783930ab13acdbf14683d92ef1465b90789c73d19d8707f4230712d99a5802696367095f9a55d735e11d3e2c32440567a79c36307b22d801f8481e55df517926a8455dcb7eaecfbb53868e68ea73fac3ef94f08516fb7ff32c39968cd3e995d9f16f67bb5e8b34d8eab67e173628d678e428d5ce7da6fce6434a2db70cc843c22697af4702a26720420262593c711da8c9a0247cc746e5d7cc804f646a661b849741672b7e2111cfb1b2d87a483e30e2cd543afa8714648dc06b40e3ad67a687a37dfbfd80198a08b4938fab13354d4c76351d3e8e9ee091dc0b4a4a9b4b21d1f28cb26dcc4fe3b19dcf9df6163da69202b20a164e38ec7b86dcaa1f6e151e2338f37e59eb6cfadac0d70e5c5251d8497dcf3fb4875979fd09d7a02f8dffa2ed76a2ebea64db20c6e4d25385f187d4e1d99d56c53c27ce72d2a9b0513cb78e331e78f1c98dff18abf691b7ea2877691acc3c0b14ff4d1386f18ddbd13b77c45d1851892b837243791d81c90456744a0be5906a2f7e44720213c4891fba6625e9c7949b8d011ebd44094d81b91357d331810bc617c989c516c05b20142a43491e1f4ebf67c17dda311e82e101918f24ce1b5ad3637252cfb0ec7e0043da69f036ca37f4053d120deba21ab9d5738e18125895b33e78869178b0deb96f4e0eae7b5cb0aee2c5fe0b90408cfe04408233da1f3d8e79d02c1b466fd57adef8301362b15f6579fb390e31be3d687de90f59f9d960bf0cdc6251de63d1ff38a4cac9245dfefb704700712321e3644148f8f28a161208960614eea8c914d59a2ee1800a4992f7b3d7cef853ff33bf4922da14174f7a4eb4ae2ee0c6767d9fc6d36814fa48a7803c35ceb11b12eb4448b9d04bbe2eac838b5fb36c235e8e1e1b490bb014fb613e0882a0af33b4fdc345f01b6356fb9143fa4f42d6c0794fd57cc8316bf35484b323498ebd2887cca06adc40d457492b3c261a2db51f1eb94b9d59f7edeb5ae3f01c7d11d5988c62ce8672acf4802d433e29e18b8a08580c87645a559e5255ee421388a5ed44d672b4c9b0eee4b826589a78c13485a5b50dc2d9637aea754226953cda034174799bef9ca1bcd2e0bb58caac60524200c7bc7e6fca85c02d3c55ebd01843a40ed6f93cfea843a1d0cad07eca310afefd5b53e9c6f4854ff960de8140449bc2adc1348093b51140aa4da2f5f1d97f7e266345be1b4043409f251e97e6096c1397b6dfb6948d815fb20156d02766e5b61c33d71a070fb4272e2cf4b55bdc2feb2601952545b46e1bb9757ff4bb2224caa4c7355e1784a371ad988ebf3de54b10e279a137571002140e0905d41695907aebc68f50ae5b1d478d333862a5593c49586b7177aeb6e1e4ebecf6fcff0619272a2f3e4370819eabc5e4041933495b6b6e989ad1dfe0eaedf1f8fa0e255b6d6f7ba1aab2b6c30000000000000000000000000000000000000000000000000f1c2d3801fd2105004dcb924d60ba47e6c21655ae20420637b9d4e88820eec81a599983ea7bd9bd4dff2b73c696b5893093edaf09a5ad2268b23ffbdca1312695dd34d2c1c584c2a6847d59b6dc1c3d89894ca5ff844e53a09ba35b0a1681965c5738ba204a6ccc52686251e9e4ca10c58d1e91f9a86cf4cba6b44691a6677609aa7324fdc697b29b645b3d9e0f80e3dd6b9bfb32e8d5ff789cbee1cf36d6338e57607489ab9c46323b5a8f402446912facba19b43b92aab85ac4f22e3f6b719ce214d6aa9c8cb727414b73266b36ac80c62a9c5461ce9c24743eb61b4e0a0b0e8b5013a820481d6af406b2f917e9a3e3b1a37b43c6e85528260c807a1e63a645fb8125d27cdd29f2a5d1eeb836a594e1115ae2e318ee34b4ad76956acaff3f889e4f71bb2d5fe98009caa5bb191f1fc59162435187198070de7178615a44e8c54f5dbde3c04590fe377e801ccc255355df997e7e84e6ad42bc59cf45ed085a3f801f191c60401a61682d4cda90a3c4538908328b10f9d68d781046b3cfb7c4ec2b1e50a3395096b4996f2b9562148c0a579ce6982c9e65c0d9a119d831671fede341b47e8f54a773a14d30185c8513b9b260180905d402bfec540958d2d167332d64581261139c759f86914f41d1204d9fc845d33529e5332f3025439f92065bee54b0e8411198c29506a35808c59bf219f3ec854b23406463253e33814f8a078af0ba55c08d70b4f61c332dd5a3ee9dd79c6a2a9388e6e7d3762ce9e4f49eae05b7b708b07cccd29329709834892e65317d87bfc67c780472e45b1c6a693c0f1592392a64c8e32d08df804e2de140f05fd0ba6501d5e9953ab76eebe88d73733949e87740cb5088e87deb06fcaeac59febd62691253d3a94dc2f73a51c9b595685672e06ae352970598a658f3d11ec00b062b0e026f1420ba0792cd1016c68e866cda707425cd592422909af10d9109b5bf7fdb16b03f817c85f0181b4a5377b0876ca865d63b76924baebfe8cf9ade8ee252466dfc0646b925604a995ba6c9fb1b56c546834d7372ceeba17554ecb62296d66dbdecb3dcdb9ca3328eb015684e0046b8ca7994d40fec0111ce09519b78aefbc4fe7fbbb2ec7f237fd72c0ae677226aa13e6aa5f21ac80c58cb9ef9f84add2c6ba4e21a3bd049d7396b9a2b77b847f60629bd136dd06f86a63d22479d42544bde8b507a23ac7590b515e95f946e2e0b64d10214fc10ca1426b2b44ed79034f37efa0742bcd6fa0b51b064abfdc6dd4e2125575f7cc4a4c0ed041b19b55fbd6f4cb6730014ec6b78911bd4966bb43948bf46ec268093a752d76cc084171c7bbaf9f79df4c849eba2f7f773ae3d8bff05dd8e85b8b1874de421626ee778e088755b00cb97cb98be1fafd4c5032516546bb22ddf67c05a7554e16c4a996f987cb00470e459d89785f70f6f48dda398dd6f8c6b286ba38e6cfd658a599f8293a5e4b92cfa432507526f7c70700e2de30f183e46e40ab0599a20b5501e3d18770729ca34e81464a200d59ca340ebbbd1222a73a3a2b49f88cb483267b619b27d2c4e2ca03f725ea9e3db0dc0f7298f0a11b4ae89f38bcdaac64d00b5e63f760c7e66b5901b0ebf5a0f76bbba1308333232ebb20aebb380e51a2b9042154a755c200e5db76643aed3fdc27b8d6ee0454bd40b9bd810b4fc1307ad54a179ce2021d14b55b1eb9e93965f87b541cbd269b729d0ce256f1df608b87b6b4d4967ad86ae425224268e6b70497a9c5de9c93cb1fd2cb668f2683d28e94bbe0004cf94f524763f5b260fd58a020882c49dc0089252873f2890fc7c6746a65f78e016d6a28e09918dabc9afb19c42d4a2b2c51e89a10aa3012b1e416f000000",
  "txid": "3851ed932a30fa57990b056784da35855f7ff083af6cab56068ad28791236942",
  "hash": "bb7c24bbc0e5fb79c5c56c73f1011a0589a7d89294269d177fd9126140ce215c",
  "size": 5085,
  "vsize": 2278,
  "version": 1,
  "locktime": 111,
  "vin": [
    {
      "txid": "4eb77ab7f9572ff06a12f6d409bb18cd0eec3a748d676d46da9c3181fe5cdf7c",
      "vout": 0,
      "scriptSig": {
        "asm": "",
        "hex": ""
      },
      "txinwitness": [
        "ff6c59c3db0061f00d8fd2117423ad83d2050a5718f7b99e40fbedb4acfd2727d0335243e28266c115e367e534e6abf2cbecb9426ece87f7b74393ea5cebebbb0f8e8d23f0689b1f59abddd5616c89d121d00c2922ad1680b90fd3811b0052a66475023a03b27569e4870ce7108f4873b7ef8357dd2033779598a29e8450390fea4d20ba0f91f6eb22f68341009d31e566413cbe5957b1e8ec7c6e4612ac4e011130f9d730bf86035e20857b662dffb53aefd4ae0d8dd0a175f21b589fcfa9f6ac97a95dafb7455d884c4e28b2b94e54d4ba91c32880e4f1e0fe6b018aa53842809f5c91b33e657c9e8f84f1f5584f2c3a99fef651e47d5ce4496d2e232635af9091c883c9251d499fad2c1ee7c328bf06b9929f342ca784b20bf39546fe0d5f782427b47db902e8d1fb879d1b50259bf4d0a2f08fad32997fa1a805ebee244e34b9cb0fae62f3466f33fa77bc99060673199b3d6242fa0f2584e71613050334152dc8633895bc27bc5b624838dd655f097bece9b781097792b748ba95124c3beb6c194f7a2a91333cf75d7017066193f7ab2502effea30e07dbcaf806a36f0091730e62cc493c210c255f0df5f3d091babfebddb941b7771a5c2ee10c8e4e3688dbe44196681d50d0cda024bac76208d4b71579cab92fda336260d6bd01686908694c62c0bb2d33bceba66bfa59657f48e6bb3f0a8ffb7c91b591933db6a2045f285e665f9947163928d5b2c10730d6c58f1e63472a5feb4a4fee80543b1d93320cf1902e5f86316b0827c86f41b90f7f1f74170ae62668cc7a3d6a9fc8d3ad0b534f12c4311da426ec4ebe4305367af3f666f6ef1352ae32cf1c6d7183a17541dd0346bd65e366cd43b60f2a26a83785b9e58821844e2c5714924c0a6c9e63bc9b784790a9eb0e59b7b484313845d6c82aa9ebcaea0d93a76b94d8a0710d566094e0e5c797cba90313c3c60fbd301053497453243fba4d3605d9def0e4dfee33cb687c39c177801e69169d7553a2a0856d7f6cdadf8e7d8f12d4e8221cecc23c1e2cc68138ac5e8600b7fa73f076ffe38e5d92280be3741fa35c1edd23829834de01d60a4e8b543b39a984f7a017c0bcb88d7ceffd19ea180916adb71e8a5a141141d5ab4a720a6d58d30b950c823c49e86b015b568b6640162b4bf1e34aa93390f7d7df318d0383026375dd31c07a7e2723cb1c3ef6b7e5a61b3d9cb70b835ffcb74f749e7b4e6f3ab1f10b2aa0d49657939c88a9d4b465b7357a93b8850de94f3e071bbc1f558e319717673e041f4709d4b88350db679f49f85bb1b9011b73e9a7832e28edff40eb6fb4b9535256573d293d786a3b4f5ab0f9071d1f08e9f2d64ac87e1700e1483f6549be3bbac190ccd4adfe78076a40400a1b3297454847e99bb1e24752272c286d9159415044914f49eefe61a273c81c0beaca0f89501b07e70284a6dc01c1840a8c10f98fce6c03a500d2361d4a956557f11faf81b956655a7de83243d26af4d12638381b5827cb806a3e3c422595944bdd2548d4583693208c917c9677ee2bcd377b782600696f178370fcbf482610594f9888326ca2c1e0bc7c3ed343652331832db423dc6a4c69bb838c1a30bf4fc400c702bcba8fffb11d062a58c0a50f60a5620337c8af11c4a5a90ac24f57e7a39808feec5f64131a6baa8055beac411515fd22727af13221b2614294d89d59a8cebf46a9a23c7aed87916587861ddb45e5619440e16a9137c3ea1d32ec0b6473209333febb7567651e2fe61120eea6624b1908e4d059e19c61f908aa51bb043528fb6572b31aa18aba4056e326beb76fd6aa4f67e1f080b088fe47dc514b7839d687e6fcc51acf161d8285343e54032cad1b87935df2aa5333cd41f106e2790da726d06a29551da5bf7c83fef1c3a9d8c9ea27c0d635bc7ed58b57f4eeccead8783930ab13acdbf14683d92ef1465b90789c73d19d8707f4230712d99a5802696367095f9a55d735e11d3e2c32440567a79c36307b22d801f8481e55df517926a8455dcb7eaecfbb53868e68ea73fac3ef94f08516fb7ff32c39968cd3e995d9f16f67bb5e8b34d8eab67e173628d678e428d5ce7da6fce6434a2db70cc843c22697af4702a26720420262593c711da8c9a0247cc746e5d7cc804f646a661b849741672b7e2111cfb1b2d87a483e30e2cd543afa8714648dc06b40e3ad67a687a37dfbfd80198a08b4938fab13354d4c76351d3e8e9ee091dc0b4a4a9b4b21d1f28cb26dcc4fe3b19dcf9df6163da69202b20a164e38ec7b86dcaa1f6e151e2338f37e59eb6cfadac0d70e5c5251d8497dcf3fb4875979fd09d7a02f8dffa2ed76a2ebea64db20c6e4d25385f187d4e1d99d56c53c27ce72d2a9b0513cb78e331e78f1c98dff18abf691b7ea2877691acc3c0b14ff4d1386f18ddbd13b77c45d1851892b837243791d81c90456744a0be5906a2f7e44720213c4891fba6625e9c7949b8d011ebd44094d81b91357d331810bc617c989c516c05b20142a43491e1f4ebf67c17dda311e82e101918f24ce1b5ad3637252cfb0ec7e0043da69f036ca37f4053d120deba21ab9d5738e18125895b33e78869178b0deb96f4e0eae7b5cb0aee2c5fe0b90408cfe04408233da1f3d8e79d02c1b466fd57adef8301362b15f6579fb390e31be3d687de90f59f9d960bf0cdc6251de63d1ff38a4cac9245dfefb704700712321e3644148f8f28a161208960614eea8c914d59a2ee1800a4992f7b3d7cef853ff33bf4922da14174f7a4eb4ae2ee0c6767d9fc6d36814fa48a7803c35ceb11b12eb4448b9d04bbe2eac838b5fb36c235e8e1e1b490bb014fb613e0882a0af33b4fdc345f01b6356fb9143fa4f42d6c0794fd57cc8316bf35484b323498ebd2887cca06adc40d457492b3c261a2db51f1eb94b9d59f7edeb5ae3f01c7d11d5988c62ce8672acf4802d433e29e18b8a08580c87645a559e5255ee421388a5ed44d672b4c9b0eee4b826589a78c13485a5b50dc2d9637aea754226953cda034174799bef9ca1bcd2e0bb58caac60524200c7bc7e6fca85c02d3c55ebd01843a40ed6f93cfea843a1d0cad07eca310afefd5b53e9c6f4854ff960de8140449bc2adc1348093b51140aa4da2f5f1d97f7e266345be1b4043409f251e97e6096c1397b6dfb6948d815fb20156d02766e5b61c33d71a070fb4272e2cf4b55bdc2feb2601952545b46e1bb9757ff4bb2224caa4c7355e1784a371ad988ebf3de54b10e279a137571002140e0905d41695907aebc68f50ae5b1d478d333862a5593c49586b7177aeb6e1e4ebecf6fcff0619272a2f3e4370819eabc5e4041933495b6b6e989ad1dfe0eaedf1f8fa0e255b6d6f7ba1aab2b6c30000000000000000000000000000000000000000000000000f1c2d3801",
        "004dcb924d60ba47e6c21655ae20420637b9d4e88820eec81a599983ea7bd9bd4dff2b73c696b5893093edaf09a5ad2268b23ffbdca1312695dd34d2c1c584c2a6847d59b6dc1c3d89894ca5ff844e53a09ba35b0a1681965c5738ba204a6ccc52686251e9e4ca10c58d1e91f9a86cf4cba6b44691a6677609aa7324fdc697b29b645b3d9e0f80e3dd6b9bfb32e8d5ff789cbee1cf36d6338e57607489ab9c46323b5a8f402446912facba19b43b92aab85ac4f22e3f6b719ce214d6aa9c8cb727414b73266b36ac80c62a9c5461ce9c24743eb61b4e0a0b0e8b5013a820481d6af406b2f917e9a3e3b1a37b43c6e85528260c807a1e63a645fb8125d27cdd29f2a5d1eeb836a594e1115ae2e318ee34b4ad76956acaff3f889e4f71bb2d5fe98009caa5bb191f1fc59162435187198070de7178615a44e8c54f5dbde3c04590fe377e801ccc255355df997e7e84e6ad42bc59cf45ed085a3f801f191c60401a61682d4cda90a3c4538908328b10f9d68d781046b3cfb7c4ec2b1e50a3395096b4996f2b9562148c0a579ce6982c9e65c0d9a119d831671fede341b47e8f54a773a14d30185c8513b9b260180905d402bfec540958d2d167332d64581261139c759f86914f41d1204d9fc845d33529e5332f3025439f92065bee54b0e8411198c29506a35808c59bf219f3ec854b23406463253e33814f8a078af0ba55c08d70b4f61c332dd5a3ee9dd79c6a2a9388e6e7d3762ce9e4f49eae05b7b708b07cccd29329709834892e65317d87bfc67c780472e45b1c6a693c0f1592392a64c8e32d08df804e2de140f05fd0ba6501d5e9953ab76eebe88d73733949e87740cb5088e87deb06fcaeac59febd62691253d3a94dc2f73a51c9b595685672e06ae352970598a658f3d11ec00b062b0e026f1420ba0792cd1016c68e866cda707425cd592422909af10d9109b5bf7fdb16b03f817c85f0181b4a5377b0876ca865d63b76924baebfe8cf9ade8ee252466dfc0646b925604a995ba6c9fb1b56c546834d7372ceeba17554ecb62296d66dbdecb3dcdb9ca3328eb015684e0046b8ca7994d40fec0111ce09519b78aefbc4fe7fbbb2ec7f237fd72c0ae677226aa13e6aa5f21ac80c58cb9ef9f84add2c6ba4e21a3bd049d7396b9a2b77b847f60629bd136dd06f86a63d22479d42544bde8b507a23ac7590b515e95f946e2e0b64d10214fc10ca1426b2b44ed79034f37efa0742bcd6fa0b51b064abfdc6dd4e2125575f7cc4a4c0ed041b19b55fbd6f4cb6730014ec6b78911bd4966bb43948bf46ec268093a752d76cc084171c7bbaf9f79df4c849eba2f7f773ae3d8bff05dd8e85b8b1874de421626ee778e088755b00cb97cb98be1fafd4c5032516546bb22ddf67c05a7554e16c4a996f987cb00470e459d89785f70f6f48dda398dd6f8c6b286ba38e6cfd658a599f8293a5e4b92cfa432507526f7c70700e2de30f183e46e40ab0599a20b5501e3d18770729ca34e81464a200d59ca340ebbbd1222a73a3a2b49f88cb483267b619b27d2c4e2ca03f725ea9e3db0dc0f7298f0a11b4ae89f38bcdaac64d00b5e63f760c7e66b5901b0ebf5a0f76bbba1308333232ebb20aebb380e51a2b9042154a755c200e5db76643aed3fdc27b8d6ee0454bd40b9bd810b4fc1307ad54a179ce2021d14b55b1eb9e93965f87b541cbd269b729d0ce256f1df608b87b6b4d4967ad86ae425224268e6b70497a9c5de9c93cb1fd2cb668f2683d28e94bbe0004cf94f524763f5b260fd58a020882c49dc0089252873f2890fc7c6746a65f78e016d6a28e09918dabc9afb19c42d4a2b2c51e89a10aa3012b1e41"
      ],
      "sequence": 4294967294
    }
  ],
  "vout": [
    {
      "value": 499986.7803,
      "n": 0,
      "scriptPubKey": {
        "asm": "1 c0b7dc7ebfdda54112f0af19b143e34b0cfef13ae24ef6779e474b1e1d6121a7",
        "hex": "5120c0b7dc7ebfdda54112f0af19b143e34b0cfef13ae24ef6779e474b1e1d6121a7",
        "reqSigs": 1,
        "type": "witness_v1_scripthash",
        "addresses": [
          "3QJmnh"
        ]
      }
    },
    {
      "value": 1.0,
      "n": 1,
      "scriptPubKey": {
        "asm": "OP_RETURN e70ec1d1c63b95109c74bf4fdeaa29d70feaf08cf29b06adf64ec35cbc47830f 1a5d7d25cb151497ce03d2b5fce0e3ead1d61d637dc0113ae305b89ca01956463a7d5d05eb3534b7ee23f295dcc0c3caf1f63d435de0311ac32598bc803976665a1d3d658b5554d78e4392f5bca0a3aa91965d233d80517aa345f8dce05916067a3d1d45ab7574f7ae63b2d59c80838ab1b67d031da0715a8365d8fcc07936269addfda54b9594174e8352357c60636a51569de3fd4091ba6385381c2099d6c6bafddd856bb5b4376ea372155c40434a7176bdc3dd60b19a43a5183c00b9f6e6da9dbde50bd5d4570ec312753c20232a1116dda3bd00d1fa23c5785c60d99686fabd9dc52bf5f4772ee332551c00030a3136fd839d20f1da03e5587c40f9b6a61a5d7d25cb151497ce03d2b5fce0e3ead1d61d637dc0113ae305b89ca01956463a7d5d05eb3534b7ee23f295dcc0c3caf1f63d435de0311ac32598bc803976665a1d3d658b5554d78e4392f5bca0a3aa91965d233d80517aa345f8dce05916067a3d1d45ab7574f7ae63b2d59c80838ab1b67d031da0715a8365d8fcc07936269addfda54b9594174e8352357c60636a51569de3fd4091ba6385381c2099d6c6bafddd856bb5b4376ea372155c40434a7176bdc3dd60b19a43a5183c00b9f6e6da9dbde50bd5d4570ec312753c20232a1116dda3bd00d1fa23c5785c60d99686fabd9dc52bf5f4772ee332551c00030a3136fd839d20f1da03e5587c40f9b6a61a5d7d25cb151497ce03d2b5fce0e3ead1d61d637dc0113ae305b89ca01956463a7d5d05eb3534b7ee23f295dcc0c3caf1f63d435de0311ac32598bc803976665a1d3d658b5554d78e4392f5bca0a3aa91965d233d80517aa345f8dce05916067a3d1d45ab7574f7ae63b2d59c80838ab1b67d031da0715a8365d8fcc07936269addfda54b9594174e8352357c60636a51569de3fd4091ba6385381c2099d6c6bafddd856bb5b4376ea372155c40434a7176bdc3dd60b19a43a5183c00b9f6e6da9dbde50bd5d4570ec312753c20232a1116dda3bd00d1fa23c5785c60d99686fabd9dc52bf5f4772ee332551c00030a3136fd839d20f1da03e5587c40f9b6a61a5d7d25cb151497ce03d2b5fce0e3ead1d61d637dc0113ae305b89ca01956463a7d5d05eb3534b7ee23f295dcc0c3caf1f63d435de0311ac32598bc803976665a1d3d658b5554d78e4392f5bca0a3aa91965d233d80517aa345f8dce05916067a3d1d45ab7574f7ae63b2d59c80838ab1b67d031da0715a8365d8fcc07936269addfda54b9594174e8352357c60636a51569de3fd4091ba6385381c2099d6c6bafddd856bb5b4376ea372155c40434a7176bdc3dd60b19a43a5183c00b9f6e6da9dbde50bd5d4570ec312753c20232a1116dda3bd00d1fa23c5785c60d99686fabd9dc52bf5f4772ee332551c00030a3136fd839d20f1da03e5587c40f9b6a61a5d7d25cb151497ce03d2b5fce0e3ead1d61d637dc0113ae305b89ca01956463a7d5d05eb3534b7ee23f295dcc0c3caf1f63d435de0311ac32598bc803976665a1d3d658b5554d78e4392f5bca0a3aa91965d233d80517aa345f8dce05916067a3d1d45ab7574f7ae63b2d59c80838ab1b67d031da0715a8365d8fcc07936269addfda54b9594174e8352357c60636a8dda88d1850c2ecec9321478c55612e8de5ad98e8f68ad109e28e98cd17bd4f6",
        "hex": "6a20e70ec1d1c63b95109c74bf4fdeaa29d70feaf08cf29b06adf64ec35cbc47830f4db0041a5d7d25cb151497ce03d2b5fce0e3ead1d61d637dc0113ae305b89ca01956463a7d5d05eb3534b7ee23f295dcc0c3caf1f63d435de0311ac32598bc803976665a1d3d658b5554d78e4392f5bca0a3aa91965d233d80517aa345f8dce05916067a3d1d45ab7574f7ae63b2d59c80838ab1b67d031da0715a8365d8fcc07936269addfda54b9594174e8352357c60636a51569de3fd4091ba6385381c2099d6c6bafddd856bb5b4376ea372155c40434a7176bdc3dd60b19a43a5183c00b9f6e6da9dbde50bd5d4570ec312753c20232a1116dda3bd00d1fa23c5785c60d99686fabd9dc52bf5f4772ee332551c00030a3136fd839d20f1da03e5587c40f9b6a61a5d7d25cb151497ce03d2b5fce0e3ead1d61d637dc0113ae305b89ca01956463a7d5d05eb3534b7ee23f295dcc0c3caf1f63d435de0311ac32598bc803976665a1d3d658b5554d78e4392f5bca0a3aa91965d233d80517aa345f8dce05916067a3d1d45ab7574f7ae63b2d59c80838ab1b67d031da0715a8365d8fcc07936269addfda54b9594174e8352357c60636a51569de3fd4091ba6385381c2099d6c6bafddd856bb5b4376ea372155c40434a7176bdc3dd60b19a43a5183c00b9f6e6da9dbde50bd5d4570ec312753c20232a1116dda3bd00d1fa23c5785c60d99686fabd9dc52bf5f4772ee332551c00030a3136fd839d20f1da03e5587c40f9b6a61a5d7d25cb151497ce03d2b5fce0e3ead1d61d637dc0113ae305b89ca01956463a7d5d05eb3534b7ee23f295dcc0c3caf1f63d435de0311ac32598bc803976665a1d3d658b5554d78e4392f5bca0a3aa91965d233d80517aa345f8dce05916067a3d1d45ab7574f7ae63b2d59c80838ab1b67d031da0715a8365d8fcc07936269addfda54b9594174e8352357c60636a51569de3fd4091ba6385381c2099d6c6bafddd856bb5b4376ea372155c40434a7176bdc3dd60b19a43a5183c00b9f6e6da9dbde50bd5d4570ec312753c20232a1116dda3bd00d1fa23c5785c60d99686fabd9dc52bf5f4772ee332551c00030a3136fd839d20f1da03e5587c40f9b6a61a5d7d25cb151497ce03d2b5fce0e3ead1d61d637dc0113ae305b89ca01956463a7d5d05eb3534b7ee23f295dcc0c3caf1f63d435de0311ac32598bc803976665a1d3d658b5554d78e4392f5bca0a3aa91965d233d80517aa345f8dce05916067a3d1d45ab7574f7ae63b2d59c80838ab1b67d031da0715a8365d8fcc07936269addfda54b9594174e8352357c60636a51569de3fd4091ba6385381c2099d6c6bafddd856bb5b4376ea372155c40434a7176bdc3dd60b19a43a5183c00b9f6e6da9dbde50bd5d4570ec312753c20232a1116dda3bd00d1fa23c5785c60d99686fabd9dc52bf5f4772ee332551c00030a3136fd839d20f1da03e5587c40f9b6a61a5d7d25cb151497ce03d2b5fce0e3ead1d61d637dc0113ae305b89ca01956463a7d5d05eb3534b7ee23f295dcc0c3caf1f63d435de0311ac32598bc803976665a1d3d658b5554d78e4392f5bca0a3aa91965d233d80517aa345f8dce05916067a3d1d45ab7574f7ae63b2d59c80838ab1b67d031da0715a8365d8fcc07936269addfda54b9594174e8352357c60636a8dda88d1850c2ecec9321478c55612e8de5ad98e8f68ad109e28e98cd17bd4f6",
        "type": "nulldata"
      }
    }
  ],
  "blockhash": "a1887b0a0b2991e806ccea2240d48d15dc99191e60c31f7623b06398d7a984df",
  "confirmations": 1,
  "time": 1764178092,
  "blocktime": 1764178092
}