{
  "hex": "01000000000101f76b436d97fdc983a6645ffa2fb11e20cac075f0a0959cad2480b813deeb6fe00100000000feffffff0200e1f50500000000fdd5046a2032a11285b507fa1ed777cf6b9b1904805a56902b68238366537e4e63b24666d34db0046914ca1617877b3d6ef6f118e056116db0c298039e80fcafa16e0dac57924b494934ea3637a75b1d4ed6d138c076314d90e2b823bea0dc8f814e2d8c77b26b6929548a5657c73b7d2eb6b158a016512df082d843dec0bcefe12e4dec17d20b090974aa7677e71b5d0e9691788036710dd0a2f863fee09ccfc10e6dcc37f22b29e9944a969707fbbdee76719860d691ed304218831e007c2f21ee8d2cd712cbc9c9b46ab6b727db9dce5651b840f6b1cd106238a33e205c0f01cead0cf732ebe9a9d40ad6d747bbfdae3631d82096d1ad700258c35e403c6f61aecd6c97528b8989f42af6f7679bdd8e1611f800b6f18d502278e37e601c4f418eed4cb772aba96914ca1617877b3d6ef6f118e056116db0c298039e80fcafa16e0dac57924b494934ea3637a75b1d4ed6d138c076314d90e2b823bea0dc8f814e2d8c77b26b6929548a5657c73b7d2eb6b158a016512df082d843dec0bcefe12e4dec17d20b090974aa7677e71b5d0e9691788036710dd0a2f863fee09ccfc10e6dcc37f22b29e9944a969707fbbdee76719860d691ed304218831e007c2f21ee8d2cd712cbc9c9b46ab6b727db9dce5651b840f6b1cd106238a33e205c0f01cead0cf732ebe9a9d40ad6d747bbfdae3631d82096d1ad700258c35e403c6f61aecd6c97528b8989f42af6f7679bdd8e1611f800b6f18d502278e37e601c4f418eed4cb772aba96914ca1617877b3d6ef6f118e056116db0c298039e80fcafa16e0dac57924b494934ea3637a75b1d4ed6d138c076314d90e2b823bea0dc8f814e2d8c77b26b6929548a5657c73b7d2eb6b158a016512df082d843dec0bcefe12e4dec17d20b090974aa7677e71b5d0e9691788036710dd0a2f863fee09ccfc10e6dcc37f22b29e9944a969707fbbdee76719860d691ed304218831e007c2f21ee8d2cd712cbc9c9b46ab6b727db9dce5651b840f6b1cd106238a33e205c0f01cead0cf732ebe9a9d40ad6d747bbfdae3631d82096d1ad700258c35e403c6f61aecd6c97528b8989f42af6f7679bdd8e1611f800b6f18d502278e37e601c4f418eed4cb772aba96914ca1617877b3d6ef6f118e056116db0c298039e80fcafa16e0dac57924b494934ea3637a75b1d4ed6d138c076314d90e2b823bea0dc8f814e2d8c77b26b6929548a5657c73b7d2eb6b158a016512df082d843dec0bcefe12e4dec17d20b090974aa7677e71b5d0e9691788036710dd0a2f863fee09ccfc10e6dcc37f22b29e9944a969707fbbdee76719860d691ed304218831e007c2f21ee8d2cd712cbc9c9b46ab6b727db9dce5651b840f6b1cd106238a33e205c0f01cead0cf732ebe9a9d40ad6d747bbfdae3631d82096d1ad700258c35e403c6f61aecd6c97528b8989f42af6f7679bdd8e1611f800b6f18d502278e37e601c4f418eed4cb772aba96914ca1617877b3d6ef6f118e056116db0c298039e80fcafa16e0dac57924b494934ea3637a75b1d4ed6d138c076314d90e2b823bea0dc8f814e2d8c77b26b6929548a5657c73b7d2eb6b158a016512df082d843dec0bcefe12e4dec17d20b090974aa7677e71b5d0e9691788036710dd0a2f863fee09ccfc10e6dcc37f22b29e9944a969707fbbdee76719860d691ed3e2d744a0b3a313031f177f281401dc3c24b7f0e98ada0af108bc4a859c8e94d80cbbf57792d0000225120cd364125223a77d1d5f185c39c214fd9ed49cb38e762ba06ba2cb8b1eb3c7b5002fd750941bed0f3f2e5fb5afd1d3d6ea666a1ebad5435cfb18eb843eaabee246bf411e1d04f615e584e56c86496b739bf044d98b75c0916dd2da28a7e5266cfc8562223bff37937a3db61fbb8921b344b9107f0c1f037f620c0616b40166b30476e7e727dbf588d955bd68508d556f2fb6d7d1ba3763db07722c9d1a1a9dd76778145f7794902411733ac7d86f056d3815231534881fea6303b5bd51ea274211c6e3c5840062d4e265f36e0b0f3f88c7fb03760074ce3f0d6fc32a4bd370e5a48528377bff16b7fade0344dfc831fbaa292fa869f883ceb36a5f140653f22c83c7f8cfc0269f3c60cf705ffd52e0a8c0a8d9458c5af3c77c53a64de5f6f72fe76bb74ff892c0c10c680680a69d82343296409792432f1a8e789e7d80f0840dc71d397173e6e81a9ed10c8fcdce146e7ecc264fe9a2e709193f75e901697009fc116aebb709b1b539f5af5da41b07328b2acadaba57dc0effde78d47bd092aa482b5c6d6ac2605cb5c4c9af3d9fcdf367cd40dfacb189983e9b8e39ae280a7a14df8bcd83a6f3de30e0997eb8a1dd41368ee32322f036235d4acc9edf5c185aecc723c6462584e3da4dcf7024925c865efb2f49c4481befbed1808a6ee284ad94d18792bf9f50755dcdb803509923f465c2704f195e87304093fba9799ddd95421ae39116fc6aeb3c52ae74e5895db69a2e4061a3ce08cd04f5965a7af9399854e6509821d922eccdbd83b580b19e7cd8e704c904c972b3b5bbe576b7e4475a1872da018fc1135965a7a2542c4631ebb7f84968a32112e230973768a34b1b057ce257a0c62eff39c1a0545c5e9e0b61f3ce2b51751dea3032f1280ac5ed930d82a37eced570295b85be85e187fdd8498e59ba66718c9be760b0567157ec96d2c2c87a91f0bce5b2af56e89b374795e1a80e5a95eb24034df4ae961915d3f2f2c844a05be10efc86f4ab672043324881399dca8827e1e5917cbf054e62e0df4c6f173098393c56148474f48a145f2234956d2f334eecf2ca4891be1d0f00409bcc8975828f08d321d5f310f1589f04976e0830aaeae5f91cf789c9118c95e75ee3b82c7a3f81be8694a0bd8b4fdc21953574b54474f2e6a3f2aa8fba7b9e364da821063acbbb6c3e8531d3f8b0461c8a02bc29ad3224b086988b57d803ed2a16ce9853a276ce5ab8dc5a6ddb404f2b5477197f6184038fd1d95206bb356e1a22b0b68ff7b66493ce19d8677bff5fe31de60576b6568ff5044acb33c89899b1e79c10e94c9f021a2e0113a97e8bc4842cb986918a35baef9620b009b330dc3ca9847dc6f0be15ca5a483316fe6335c2443e35f7ebad31c1fb8b0e75ce2b99f3d322774367df38324313fae7d1abf00d4a8f68bc65ea425d958293adbbbfbc5480d69d50bdf9b214b94b8eb3d20199c71d8269e7fe224d79a7c6b618a0fd5436b0e64a229708466cf8c3a5c09ad942141409d8e84123c941e5b8d7c7aefa8e177f1cad0d9e37be0d59a8187bff4825cdb904c73615351a4ace2b0aa7e1eea94ee719900b054f4dc61ec38bede1da83bbf19e84d623558b362f482d9bd3958892ab45083ac2da201bde57e4e081acbbcb5cfcee9d37a9678a5dc87bb0bb99ac080e564dc97f91ee5127aaf544c5d55f45cfb807525d291d93175b4f82d58fd604bab5a95e1bbe7eb89e391834a7512f811553127ea1ab998d64f79318c0f4491e0ce878d7dd33be9616f002566b75349d84328c9ce98920a30a08cb87a2e33e2a4434d07f3018b813b19dadc0d43889e7e56d11a26e3288eb03e313ef52bab1262d31ab0320b1803db1609696b7dd1922e093483eb864928f1845588d1d7829bdd779e12ca1d2dc5b860086899be1b4ded5b1b49ff310dac3cbd1d0cff22ce4d7a5db7af24b428c955d82558e62fac8e84e05e12105207eb230a49586defa7d4b71806d936342018b50bd68792dddbc1a4ea6cf96d4927e0a8fd30df19acba4ca9a0866cd07c3881cf1b43da007fc90b4824c56bbe7391e95d21d304b8f8d0dc007afc5ddcfe344d8951ac539a839f2393bf369cacafed9d468d0e1de2fd8ba2d13022d654d62963b580e5be0b1bf96718c53b03673bfe2d1ff26b0b1337ad3f49afcad9c32a33b3875f04554ec1e90698a0fe34a4952605ec90f36f0d911d2ee7f07f2012e0dceeca38da9fb926a875713efbba202e964193015248496c2601299cf82b895479896b38f0c75f7876e355c9506a46f1346a472286113c6e5c3b0662ba6387d26e56186710a8580a0026dcbf04defdc8af134a3b8cb98a51974857df21d2084b12b33bb6d60860bb8b788209dd9fcb48e4800eaa3dcad9f91e419a12f7884d6a6533a74277737815b5996e85edd31ad9af1b8e2182371a15a8774f550cc4a5e4992603b864d6fdb4524940888e4812f0061098bf87c570b2259f879c54d4df72d6cf4c64e62f12be452dc6eb2016d3ff3a09bcb0e9a1ebdca21521ea07f740c19ddfe7b40af5dd8c53d4aff3cf2ff040e6149f1ebd8fe9be5dd8f3062a79e0c2a5f98c5b55017df7f40b28f5a0a308d27f2d5458562691ea97038ec9f7e89cc50ee69a09143971b315483096d9829fcff5a4222f6804237b383f2ae7c78f6ab840696a581cd2d41cccf1688b4801dd1fea808f652f8722e620199300565d36902c39e86320d6ea8d4b79c1a7740ae9d0c95752eca6a660895e03c84cdc83a5b2893a0f20b95164110660edfe39687d1d47d6bc4274d095335596ce93e51fc09cd22a29b7e63d77441c3300f7bcc818afdaf76564475d88b9d8484efdaa0b84ec33e77e3005b2c50c5fe7b622e159bdf504fad75539db8aac06fac241ce170bf41124fb4dfe55d0248124498b91aca0e4a7a6eccde9f265b8c540dcbae05f17d53db57b512ca4ddd7e7c14b1ed65c0482e0931e6d909db603b300887af9463e955ee2a7d29c81af9f8342efa8c50d8bf0e29184f9b555afdf9743db0b17f44a97ee301ef2684f29d286e6378c01d9b0413fb1bc2bf73adfd48a1a0d5de131d289d31e8a39c4b60376c6a8bc09b099b92dddf982663872fe12fc6fb6547795b6297ad8006dc2639401713bb5260b8b98868fd684adf450afdd3eecea29a2110754f895963fbc3ad21c07e0149cfe94b67cfa2968a1e14b6cd2f607761627ae22f83d865e664cb7fa2ba2230c80fab75a7b7cadf379588248454f66c1e6f23143ca86fb5499d0419c8c8072a2c1edf63138d0d38cf13edb69aac619fbd3da63dd4a1c1a5cb4c6608275e2b0659aa1a89e2e56d1eddc88a7979653814c8dd297cbbe18222d2f36383c54719196c9d8ee050b13232a465a6a81a7afb2bfc9d1222a395b676a6e7a7c94b9c3d3d5e1ee2337414b547f898e909ea2a5a7b1b5cfdff500000000000000000000000000000000000e1d2d3f01fd2105002eb0988f62ef5b02473f932fe6afa9ca90fb9c9083c5c18e73e29a4535726676ed7f1e6687c0cc951e9ae32e81cdd76e2bdc5f490af57c2b506cc7d57638eba69d49a1f36f604f08281dd4c34027d3b6f40f6a2d801e77f077da9a5f69e6f2c0e1b6c4597210a72e8f079050ec77511eff00b3cf1908c3adc72d66336ea15448568d8dcee5029f08fb71fb9f402d2839cfe0f1516e960c06fe422c05a56564f7c83231a98aa25eb22b8b9a352effc2f347f70e91388d818e2b0a273b05f5319d5fe15ae1eb5f0d2a00504e80b60eafd1fa57a0cbd769ed3bf3b0974d95b6205d50f6176eb79e6b3fe7a4b26730d00e5ea1cc75b4b3d5b8463e78395d1ff3fde09ecdecb9b0e4a49cbd4dab70166ab8a888c0d73a36c3f5c52eec614348533d5932d9119e4a2b0309b548580b27be7780322f09dad44acce3f4e80f7b03fb5c69aef73bd98cd70f1674a4247bbd9399c0e62039346b329e0e8b1b00bb6259d8fa0fcbb1bd4d688d6671c01da1228d43b92703b3726ba831e6dcf61eb956d9a8ddddc25f4729ec6bb4d319f2427f9792429bb254561d6f8ede797ffe06ff9d46fb5321b09131f7b413fd641da02adb5ffd9e5dd89941095fa750a9b8a1cb76c6e949f6b5a6c519cb789e2ac94fec061c53b6f09cdeddbdf2f2d33f978f99fbfc80eabcee3a79c9f36cd05c85838e47378c8afa19fae6fb7427ef10df4a39e5c1c5c7b5624b81b996cb8ded7a5aebd4cc3425395ccd60ca71d95a3b5130c4ab5f805a57796b73a159d66e797e04f23cd2bf5737559e32953cb60402f086aa6a210ef7a091e9bb3355b3adff3f352edd2d0e429c183d1d0275a9a5f88e00952558984e80d509b40e1f6042ffd86a0fa5c5fbbe3585392b66df8a84efbd19aebb4dbd46643b515f48846a49466958e92e3ca5f45ca0efdf18c9687019566e944282d58e5463886f3525b76f526fbaa97ffca3454dd9137afca7788f24df532aeefd15be47360feff64b87861ecfaf9c56f51177fa349cafa9bc692b8be8ef6b1d36b58748f3d03ad5e4c8bec41324045346717e7f30202cf78ac6ae8d7ab5fe9f2b736f24f32aeb1c5e70393a38c3ec015d87354ea72303236197b097e1e4637f00dec618847464c764a4d0590adb11e3cbf0e1509b9f301a78f64789deb952e8c62561f05cb7c571fa97f32aa8fc37b3259ff66b362b03753e03fc7f8bc177245b05e695339f4fe2250c9b1308380be6483e44d1c61823d1c4415c1762e686cb15685489fec56bcc0d955016193d06bcdd834f82f5cef71aaf3b22ac2415ede44aa722951d56bca043413899fbf261586a6d4a75ad8f9a7f24e0b09306433512802e83a43b6b912711401f7b0ed62e43ad100084923cd7040ea1bffbdb5888e15c83a6fd04d9b25d620cd7298ba3cce30955fa946fe76c3c879e625769a9b7cd823fb5457e396d01624476a9d8a8fb0fe651332435d8783d682f95fc822bcfeaa7d2743a824833f9cbe5135d802ee8dbcdeabd902ca46e964247171803f45b7bcf2465b8a38d42e197ae96ebe56daca8dd0a1dea04c5b60d0f0b6910c8689b3ef4cbbc3467f995b0a609827169f61ddbb43bc605b15e31efaae11f45d96c1073ae4beda6bc62e61178443e8e285218c9e29ab52ae916f30850c6234be408e024acb9b5d952f680a05832fde4fb763863290e1b8f3e257851f596f3b0137c9c0ed66f1abf43fab77d59e914101407f519fdb55ce42021046b5dad9ff5309a7fb8968e46f364acc0cafae2b3289616bb77b504e67e423291a52e8af0605a5099a17db4a044f5b774dc2b3f888d778b386ea42c345eea8adddc4d8a7ee7f221bc8440b46e000000",
  "txid": "3b8886e9e91c571f964cf1b95d3f9f45c5f8e6a002a4b3f02708f68ce5a8a374",
  "hash": "92f94652424e6ae3af48aabc7398403c1df7f55ecf0e82c9f0b47b43d81937ce",
  "size": 5085,
  "vsize": 2278,
  "version": 1,
  "locktime": 110,
  "vin": [
    {
      "txid": "e06febde13b88024ad9c95a0f075c0ca201eb12ffa5f64a683c9fd976d436bf7",
      "vout": 1,
      "scriptSig": {
        "asm": "",
        "hex": ""
      },
      "txinwitness": [
        "41bed0f3f2e5fb5afd1d3d6ea666a1ebad5435cfb18eb843eaabee246bf411e1d04f615e584e56c86496b739bf044d98b75c0916dd2da28a7e5266cfc8562223bff37937a3db61fbb8921b344b9107f0c1f037f620c0616b40166b30476e7e727dbf588d955bd68508d556f2fb6d7d1ba3763db07722c9d1a1a9dd76778145f7794902411733ac7d86f056d3815231534881fea6303b5bd51ea274211c6e3c5840062d4e265f36e0b0f3f88c7fb03760074ce3f0d6fc32a4bd370e5a48528377bff16b7fade0344dfc831fbaa292fa869f883ceb36a5f140653f22c83c7f8cfc0269f3c60cf705ffd52e0a8c0a8d9458c5af3c77c53a64de5f6f72fe76bb74ff892c0c10c680680a69d82343296409792432f1a8e789e7d80f0840dc71d397173e6e81a9ed10c8fcdce146e7ecc264fe9a2e709193f75e901697009fc116aebb709b1b539f5af5da41b07328b2acadaba57dc0effde78d47bd092aa482b5c6d6ac2605cb5c4c9af3d9fcdf367cd40dfacb189983e9b8e39ae280a7a14df8bcd83a6f3de30e0997eb8a1dd41368ee32322f036235d4acc9edf5c185aecc723c6462584e3da4dcf7024925c865efb2f49c4481befbed1808a6ee284ad94d18792bf9f50755dcdb803509923f465c2704f195e87304093fba9799ddd95421ae39116fc6aeb3c52ae74e5895db69a2e4061a3ce08cd04f5965a7af9399854e6509821d922eccdbd83b580b19e7cd8e704c904c972b3b5bbe576b7e4475a1872da018fc1135965a7a2542c4631ebb7f84968a32112e230973768a34b1b057ce257a0c62eff39c1a0545c5e9e0b61f3ce2b51751dea3032f1280ac5ed930d82a37eced570295b85be85e187fdd8498e59ba66718c9be760b0567157ec96d2c2c87a91f0bce5b2af56e89b374795e1a80e5a95eb24034df4ae961915d3f2f2c844a05be10efc86f4ab672043324881399dca8827e1e5917cbf054e62e0df4c6f173098393c56148474f48a145f2234956d2f334eecf2ca4891be1d0f00409bcc8975828f08d321d5f310f1589f04976e0830aaeae5f91cf789c9118c95e75ee3b82c7a3f81be8694a0bd8b4fdc21953574b54474f2e6a3f2aa8fba7b9e364da821063acbbb6c3e8531d3f8b0461c8a02bc29ad3224b086988b57d803ed2a16ce9853a276ce5ab8dc5a6ddb404f2b5477197f6184038fd1d95206bb356e1a22b0b68ff7b66493ce19d8677bff5fe31de60576b6568ff5044acb33c89899b1e79c10e94c9f021a2e0113a97e8bc4842cb986918a35baef9620b009b330dc3ca9847dc6f0be15ca5a483316fe6335c2443e35f7ebad31c1fb8b0e75ce2b99f3d322774367df38324313fae7d1abf00d4a8f68bc65ea425d958293adbbbfbc5480d69d50bdf9b214b94b8eb3d20199c71d8269e7fe224d79a7c6b618a0fd5436b0e64a229708466cf8c3a5c09ad942141409d8e84123c941e5b8d7c7aefa8e177f1cad0d9e37be0d59a8187bff4825cdb904c73615351a4ace2b0aa7e1eea94ee719900b054f4dc61ec38bede1da83bbf19e84d623558b362f482d9bd3958892ab45083ac2da201bde57e4e081acbbcb5cfcee9d37a9678a5dc87bb0bb99ac080e564dc97f91ee5127aaf544c5d55f45cfb807525d291d93175b4f82d58fd604bab5a95e1bbe7eb89e391834a7512f811553127ea1ab998d64f79318c0f4491e0ce878d7dd33be9616f002566b75349d84328c9ce98920a30a08cb87a2e33e2a4434d07f3018b813b19dadc0d43889e7e56d11a26e3288eb03e313ef52bab1262d31ab0320b1803db1609696b7dd1922e093483eb864928f1845588d1d7829bdd779e12ca1d2dc5b860086899be1b4ded5b1b49ff310dac3cbd1d0cff22ce4d7a5db7af24b428c955d82558e62fac8e84e05e12105207eb230a49586defa7d4b71806d936342018b50bd68792dddbc1a4ea6cf96d4927e0a8fd30df19acba4ca9a0866cd07c3881cf1b43da007fc90b4824c56bbe7391e95d21d304b8f8d0dc007afc5ddcfe344d8951ac539a839f2393bf369cacafed9d468d0e1de2fd8ba2d13022d654d62963b580e5be0b1bf96718c53b03673bfe2d1ff26b0b1337ad3f49afcad9c32a33b3875f04554ec1e90698a0fe34a4952605ec90f36f0d911d2ee7f07f2012e0dceeca38da9fb926a875713efbba202e964193015248496c2601299cf82b895479896b38f0c75f7876e355c9506a46f1346a472286113c6e5c3b0662ba6387d26e56186710a8580a0026dcbf04defdc8af134a3b8cb98a51974857df21d2084b12b33bb6d60860bb8b788209dd9fcb48e4800eaa3dcad9f91e419a12f7884d6a6533a74277737815b5996e85edd31ad9af1b8e2182371a15a8774f550cc4a5e4992603b864d6fdb4524940888e4812f0061098bf87c570b2259f879c54d4df72d6cf4c64e62f12be452dc6eb2016d3ff3a09bcb0e9a1ebdca21521ea07f740c19ddfe7b40af5dd8c53d4aff3cf2ff040e6149f1ebd8fe9be5dd8f3062a79e0c2a5f98c5b55017df7f40b28f5a0a308d27f2d5458562691ea97038ec9f7e89cc50ee69a09143971b315483096d9829fcff5a4222f6804237b383f2ae7c78f6ab840696a581cd2d41cccf1688b4801dd1fea808f652f8722e620199300565d36902c39e86320d6ea8d4b79c1a7740ae9d0c95752eca6a660895e03c84cdc83a5b2893a0f20b95164110660edfe39687d1d47d6bc4274d095335596ce93e51fc09cd22a29b7e63d77441c3300f7bcc818afdaf76564475d88b9d8484efdaa0b84ec33e77e3005b2c50c5fe7b622e159bdf504fad75539db8aac06fac241ce170bf41124fb4dfe55d0248124498b91aca0e4a7a6eccde9f265b8c540dcbae05f17d53db57b512ca4ddd7e7c14b1ed65c0482e0931e6d909db603b300887af9463e955ee2a7d29c81af9f8342efa8c50d8bf0e29184f9b555afdf9743db0b17f44a97ee301ef2684f29d286e6378c01d9b0413fb1bc2bf73adfd48a1a0d5de131d289d31e8a39c4b60376c6a8bc09b099b92dddf982663872fe12fc6fb6547795b6297ad8006dc2639401713bb5260b8b98868fd684adf450afdd3eecea29a2110754f895963fbc3ad21c07e0149cfe94b67cfa2968a1e14b6cd2f607761627ae22f83d865e664cb7fa2ba2230c80fab75a7b7cadf379588248454f66c1e6f23143ca86fb5499d0419c8c8072a2c1edf63138d0d38cf13edb69aac619fbd3da63dd4a1c1a5cb4c6608275e2b0659aa1a89e2e56d1eddc88a7979653814c8dd297cbbe18222d2f36383c54719196c9d8ee050b13232a465a6a81a7afb2bfc9d1222a395b676a6e7a7c94b9c3d3d5e1ee2337414b547f898e909ea2a5a7b1b5cfdff500000000000000000000000000000000000e1d2d3f01",
        "002eb0988f62ef5b02473f932fe6afa9ca90fb9c9083c5c18e73e29a4535726676ed7f1e6687c0cc951e9ae32e81cdd76e2bdc5f490af57c2b506cc7d57638eba69d49a1f36f604f08281dd4c34027d3b6f40f6a2d801e77f077da9a5f69e6f2c0e1b6c4597210a72e8f079050ec77511eff00b3cf1908c3adc72d66336ea15448568d8dcee5029f08fb71fb9f402d2839cfe0f1516e960c06fe422c05a56564f7c83231a98aa25eb22b8b9a352effc2f347f70e91388d818e2b0a273b05f5319d5fe15ae1eb5f0d2a00504e80b60eafd1fa57a0cbd769ed3bf3b0974d95b6205d50f6176eb79e6b3fe7a4b26730d00e5ea1cc75b4b3d5b8463e78395d1ff3fde09ecdecb9b0e4a49cbd4dab70166ab8a888c0d73a36c3f5c52eec614348533d5932d9119e4a2b0309b548580b27be7780322f09dad44acce3f4e80f7b03fb5c69aef73bd98cd70f1674a4247bbd9399c0e62039346b329e0e8b1b00bb6259d8fa0fcbb1bd4d688d6671c01da1228d43b92703b3726ba831e6dcf61eb956d9a8ddddc25f4729ec6bb4d319f2427f9792429bb254561d6f8ede797ffe06ff9d46fb5321b09131f7b413fd641da02adb5ffd9e5dd89941095fa750a9b8a1cb76c6e949f6b5a6c519cb789e2ac94fec061c53b6f09cdeddbdf2f2d33f978f99fbfc80eabcee3a79c9f36cd05c85838e47378c8afa19fae6fb7427ef10df4a39e5c1c5c7b5624b81b996cb8ded7a5aebd4cc3425395ccd60ca71d95a3b5130c4ab5f805a57796b73a159d66e797e04f23cd2bf5737559e32953cb60402f086aa6a210ef7a091e9bb3355b3adff3f352edd2d0e429c183d1d0275a9a5f88e00952558984e80d509b40e1f6042ffd86a0fa5c5fbbe3585392b66df8a84efbd19aebb4dbd46643b515f48846a49466958e92e3ca5f45ca0efdf18c9687019566e944282d58e5463886f3525b76f526fbaa97ffca3454dd9137afca7788f24df532aeefd15be47360feff64b87861ecfaf9c56f51177fa349cafa9bc692b8be8ef6b1d36b58748f3d03ad5e4c8bec41324045346717e7f30202cf78ac6ae8d7ab5fe9f2b736f24f32aeb1c5e70393a38c3ec015d87354ea72303236197b097e1e4637f00dec618847464c764a4d0590adb11e3cbf0e1509b9f301a78f64789deb952e8c62561f05cb7c571fa97f32aa8fc37b3259ff66b362b03753e03fc7f8bc177245b05e695339f4fe2250c9b1308380be6483e44d1c61823d1c4415c1762e686cb15685489fec56bcc0d955016193d06bcdd834f82f5cef71aaf3b22ac2415ede44aa722951d56bca043413899fbf261586a6d4a75ad8f9a7f24e0b09306433512802e83a43b6b912711401f7b0ed62e43ad100084923cd7040ea1bffbdb5888e15c83a6fd04d9b25d620cd7298ba3cce30955fa946fe76c3c879e625769a9b7cd823fb5457e396d01624476a9d8a8fb0fe651332435d8783d682f95fc822bcfeaa7d2743a824833f9cbe5135d802ee8dbcdeabd902ca46e964247171803f45b7bcf2465b8a38d42e197ae96ebe56daca8dd0a1dea04c5b60d0f0b6910c8689b3ef4cbbc3467f995b0a609827169f61ddbb43bc605b15e31efaae11f45d96c1073ae4beda6bc62e61178443e8e285218c9e29ab52ae916f30850c6234be408e024acb9b5d952f680a05832fde4fb763863290e1b8f3e257851f596f3b0137c9c0ed66f1abf43fab77d59e914101407f519fdb55ce42021046b5dad9ff5309a7fb8968e46f364acc0cafae2b3289616bb77b504e67e423291a52e8af0605a5099a17db4a044f5b774dc2b3f888d778b386ea42c345eea8adddc4d8a7ee7f221bc8440b4"
      ],
      "sequence": 4294967294
    }
  ],
  "vout": [
    {
      "value": 1.0,
      "n": 0,
      "scriptPubKey": {
        "asm": "OP_RETURN 32a11285b507fa1ed777cf6b9b1904805a56902b68238366537e4e63b24666d3 6914ca1617877b3d6ef6f118e056116db0c298039e80fcafa16e0dac57924b494934ea3637a75b1d4ed6d138c076314d90e2b823bea0dc8f814e2d8c77b26b6929548a5657c73b7d2eb6b158a016512df082d843dec0bcefe12e4dec17d20b090974aa7677e71b5d0e9691788036710dd0a2f863fee09ccfc10e6dcc37f22b29e9944a969707fbbdee76719860d691ed304218831e007c2f21ee8d2cd712cbc9c9b46ab6b727db9dce5651b840f6b1cd106238a33e205c0f01cead0cf732ebe9a9d40ad6d747bbfdae3631d82096d1ad700258c35e403c6f61aecd6c97528b8989f42af6f7679bdd8e1611f800b6f18d502278e37e601c4f418eed4cb772aba96914ca1617877b3d6ef6f118e056116db0c298039e80fcafa16e0dac57924b494934ea3637a75b1d4ed6d138c076314d90e2b823bea0dc8f814e2d8c77b26b6929548a5657c73b7d2eb6b158a016512df082d843dec0bcefe12e4dec17d20b090974aa7677e71b5d0e9691788036710dd0a2f863fee09ccfc10e6dcc37f22b29e9944a969707fbbdee76719860d691ed304218831e007c2f21ee8d2cd712cbc9c9b46ab6b727db9dce5651b840f6b1cd106238a33e205c0f01cead0cf732ebe9a9d40ad6d747bbfdae3631d82096d1ad700258c35e403c6f61aecd6c97528b8989f42af6f7679bdd8e1611f800b6f18d502278e37e601c4f418eed4cb772aba96914ca1617877b3d6ef6f118e056116db0c298039e80fcafa16e0dac57924b494934ea3637a75b1d4ed6d138c076314d90e2b823bea0dc8f814e2d8c77b26b6929548a5657c73b7d2eb6b158a016512df082d843dec0bcefe12e4dec17d20b090974aa7677e71b5d0e9691788036710dd0a2f863fee09ccfc10e6dcc37f22b29e9944a969707fbbdee76719860d691ed304218831e007c2f21ee8d2cd712cbc9c9b46ab6b727db9dce5651b840f6b1cd106238a33e205c0f01cead0cf732ebe9a9d40ad6d747bbfdae3631d82096d1ad700258c35e403c6f61aecd6c97528b8989f42af6f7679bdd8e1611f800b6f18d502278e37e601c4f418eed4cb772aba96914ca1617877b3d6ef6f118e056116db0c298039e80fcafa16e0dac57924b494934ea3637a75b1d4ed6d138c076314d90e2b823bea0dc8f814e2d8c77b26b6929548a5657c73b7d2eb6b158a016512df082d843dec0bcefe12e4dec17d20b090974aa7677e71b5d0e9691788036710dd0a2f863fee09ccfc10e6dcc37f22b29e9944a969707fbbdee76719860d691ed304218831e007c2f21ee8d2cd712cbc9c9b46ab6b727db9dce5651b840f6b1cd106238a33e205c0f01cead0cf732ebe9a9d40ad6d747bbfdae3631d82096d1ad700258c35e403c6f61aecd6c97528b8989f42af6f7679bdd8e1611f800b6f18d502278e37e601c4f418eed4cb772aba96914ca1617877b3d6ef6f118e056116db0c298039e80fcafa16e0dac57924b494934ea3637a75b1d4ed6d138c076314d90e2b823bea0dc8f814e2d8c77b26b6929548a5657c73b7d2eb6b158a016512df082d843dec0bcefe12e4dec17d20b090974aa7677e71b5d0e9691788036710dd0a2f863fee09ccfc10e6dcc37f22b29e9944a969707fbbdee76719860d691ed3e2d744a0b3a313031f177f281401dc3c24b7f0e98ada0af108bc4a859c8e94d",
        "hex": "6a2032a11285b507fa1ed777cf6b9b1904805a56902b68238366537e4e63b24666d34db0046914ca1617877b3d6ef6f118e056116db0c298039e80fcafa16e0dac57924b494934ea3637a75b1d4ed6d138c076314d90e2b823bea0dc8f814e2d8c77b26b6929548a5657c73b7d2eb6b158a016512df082d843dec0bcefe12e4dec17d20b090974aa7677e71b5d0e9691788036710dd0a2f863fee09ccfc10e6dcc37f22b29e9944a969707fbbdee76719860d691ed304218831e007c2f21ee8d2cd712cbc9c9b46ab6b727db9dce5651b840f6b1cd106238a33e205c0f01cead0cf732ebe9a9d40ad6d747bbfdae3631d82096d1ad700258c35e403c6f61aecd6c97528b8989f42af6f7679bdd8e1611f800b6f18d502278e37e601c4f418eed4cb772aba96914ca1617877b3d6ef6f118e056116db0c298039e80fcafa16e0dac57924b494934ea3637a75b1d4ed6d138c076314d90e2b823bea0dc8f814e2d8c77b26b6929548a5657c73b7d2eb6b158a016512df082d843dec0bcefe12e4dec17d20b090974aa7677e71b5d0e9691788036710dd0a2f863fee09ccfc10e6dcc37f22b29e9944a969707fbbdee76719860d691ed304218831e007c2f21ee8d2cd712cbc9c9b46ab6b727db9dce5651b840f6b1cd106238a33e205c0f01cead0cf732ebe9a9d40ad6d747bbfdae3631d82096d1ad700258c35e403c6f61aecd6c97528b8989f42af6f7679bdd8e1611f800b6f18d502278e37e601c4f418eed4cb772aba96914ca1617877b3d6ef6f118e056116db0c298039e80fcafa16e0dac57924b494934ea3637a75b1d4ed6d138c076314d90e2b823bea0dc8f814e2d8c77b26b6929548a5657c73b7d2eb6b158a016512df082d843dec0bcefe12e4dec17d20b090974aa7677e71b5d0e9691788036710dd0a2f863fee09ccfc10e6dcc37f22b29e9944a969707fbbdee76719860d691ed304218831e007c2f21ee8d2cd712cbc9c9b46ab6b727db9dce5651b840f6b1cd106238a33e205c0f01cead0cf732ebe9a9d40ad6d747bbfdae3631d82096d1ad700258c35e403c6f61aecd6c97528b8989f42af6f7679bdd8e1611f800b6f18d502278e37e601c4f418eed4cb772aba96914ca1617877b3d6ef6f118e056116db0c298039e80fcafa16e0dac57924b494934ea3637a75b1d4ed6d138c076314d90e2b823bea0dc8f814e2d8c77b26b6929548a5657c73b7d2eb6b158a016512df082d843dec0bcefe12e4dec17d20b090974aa7677e71b5d0e9691788036710dd0a2f863fee09ccfc10e6dcc37f22b29e9944a969707fbbdee76719860d691ed304218831e007c2f21ee8d2cd712cbc9c9b46ab6b727db9dce5651b840f6b1cd106238a33e205c0f01cead0cf732ebe9a9d40ad6d747bbfdae3631d82096d1ad700258c35e403c6f61aecd6c97528b8989f42af6f7679bdd8e1611f800b6f18d502278e37e601c4f418eed4cb772aba96914ca1617877b3d6ef6f118e056116db0c298039e80fcafa16e0dac57924b494934ea3637a75b1d4ed6d138c076314d90e2b823bea0dc8f814e2d8c77b26b6929548a5657c73b7d2eb6b158a016512df082d843dec0bcefe12e4dec17d20b090974aa7677e71b5d0e9691788036710dd0a2f863fee09ccfc10e6dcc37f22b29e9944a969707fbbdee76719860d691ed3e2d744a0b3a313031f177f281401dc3c24b7f0e98ada0af108bc4a859c8e94d",
        "type": "nulldata"
      }
    },
    {
      "value": 499991.8648,
      "n": 1,
      "scriptPubKey": {
        "asm": "1 cd364125223a77d1d5f185c39c214fd9ed49cb38e762ba06ba2cb8b1eb3c7b50",
        "hex": "5120cd364125223a77d1d5f185c39c214fd9ed49cb38e762ba06ba2cb8b1eb3c7b50",
        "reqSigs": 1,
        "type": "witness_v1_scripthash",
        "addresses": [
          "3QJmnh"
        ]
      }
    }
  ],
  "blockhash": "2622e54cefe9d3081f6ac04e4c67f268d7c1e3313b2268ffede4439aafe1acd1",
  "confirmations": 1,
  "time": 1764177922,
  "blocktime": 1764177922
}