{
  "hex": "01000000000101bc961066f111714f871363898df01e99ba564bf2091022f768d78177fa72152f0100000000feffffff0200e1f50500000000fdd5046a201728b7fda3064306bc668c31bb4dcfa2f8f150f0424d4c98e6084016e93660474db004e6be21ea2ed5e71b3b9f7a7a88eb12e8f68d9a9c5e2c61f29fdf149a6fdf5292c69e01ca0ef5c73b1bbf5a5aa8cb32c8d6adbabc7e0c41d2bfff34ba4fff72b2a6fe61aa6e95a75b7bdf3a3ac8ab52a8b6cddadc1e6c21b2df9f54da2f9f12d286de418a4eb5877b5bff1a1ae88b728896edfafc3e4c0192ffbf74fa0fbf32f2663ea16aae55679bbb1ffafa086b9268760d1a1cdeace1721f5f941aef5fd212461e814a8e7547bb9b3fdada284bb248562d3a3cfe8cc1523f7fb43acf7ff232267ee12aee1527dbfb5fbaba482bd228364d5a5c9eeca1325f1fd45aaf1f9252065ec10ace3507fbdb7f9a9a680bf208166d7a7cbecc81127f3ff47a8f3fb272e6be21ea2ed5e71b3b9f7a7a88eb12e8f68d9a9c5e2c61f29fdf149a6fdf5292c69e01ca0ef5c73b1bbf5a5aa8cb32c8d6adbabc7e0c41d2bfff34ba4fff72b2a6fe61aa6e95a75b7bdf3a3ac8ab52a8b6cddadc1e6c21b2df9f54da2f9f12d286de418a4eb5877b5bff1a1ae88b728896edfafc3e4c0192ffbf74fa0fbf32f2663ea16aae55679bbb1ffafa086b9268760d1a1cdeace1721f5f941aef5fd212461e814a8e7547bb9b3fdada284bb248562d3a3cfe8cc1523f7fb43acf7ff232267ee12aee1527dbfb5fbaba482bd228364d5a5c9eeca1325f1fd45aaf1f9252065ec10ace3507fbdb7f9a9a680bf208166d7a7cbecc81127f3ff47a8f3fb272e6be21ea2ed5e71b3b9f7a7a88eb12e8f68d9a9c5e2c61f29fdf149a6fdf5292c69e01ca0ef5c73b1bbf5a5aa8cb32c8d6adbabc7e0c41d2bfff34ba4fff72b2a6fe61aa6e95a75b7bdf3a3ac8ab52a8b6cddadc1e6c21b2df9f54da2f9f12d286de418a4eb5877b5bff1a1ae88b728896edfafc3e4c0192ffbf74fa0fbf32f2663ea16aae55679bbb1ffafa086b9268760d1a1cdeace1721f5f941aef5fd212461e814a8e7547bb9b3fdada284bb248562d3a3cfe8cc1523f7fb43acf7ff232267ee12aee1527dbfb5fbaba482bd228364d5a5c9eeca1325f1fd45aaf1f9252065ec10ace3507fbdb7f9a9a680bf208166d7a7cbecc81127f3ff47a8f3fb272e6be21ea2ed5e71b3b9f7a7a88eb12e8f68d9a9c5e2c61f29fdf149a6fdf5292c69e01ca0ef5c73b1bbf5a5aa8cb32c8d6adbabc7e0c41d2bfff34ba4fff72b2a6fe61aa6e95a75b7bdf3a3ac8ab52a8b6cddadc1e6c21b2df9f54da2f9f12d286de418a4eb5877b5bff1a1ae88b728896edfafc3e4c0192ffbf74fa0fbf32f2663ea16aae55679bbb1ffafa086b9268760d1a1cdeace1721f5f941aef5fd212461e814a8e7547bb9b3fdada284bb248562d3a3cfe8cc1523f7fb43acf7ff232267ee12aee1527dbfb5fbaba482bd228364d5a5c9eeca1325f1fd45aaf1f9252065ec10ace3507fbdb7f9a9a680bf208166d7a7cbecc81127f3ff47a8f3fb272e6be21ea2ed5e71b3b9f7a7a88eb12e8f68d9a9c5e2c61f29fdf149a6fdf5292c69e01ca0ef5c73b1bbf5a5aa8cb32c8d6adbabc7e0c41d2bfff34ba4fff72b2a6fe61aa6e95a75b7bdf3a3ac8ab52a8b6cddadc1e6c21b2df9f54da2f9f12d286de418a4eb5877b5bff1a1ae88b728896edfafc3e4c0192ffbf74fa0fbf32f2663ea16aae55679bbb1ffafa086b9268a43e963e503add6e31472778feeb1c65cd4424045dcf0696bd9dfb51616db350702338c0782d00002251202b2b39b340a262c745d2a1f191df02604731178a36bceec6f09ff262257e230602fd750988f73a63942c5de7e39a8308da7b7315f9e90aa7acad80c7b39d7bc942900256f2fc1fa351b709b3c5c39a3e881f18523f24248858143cf489062f3c6f69b18343ad5bc79f752ab300fc1f3dc3a6cc0024de27672ef94301b03f136b662a540a7619f13a5497482d19f7eb901c4d990b819f9079a4e4261a8361c24805bff2a4cb760176eb80be371a4c974ba8418615ef424b5f54f7ceb538fbff8b361a6298d3b28c855239f5b88de472c1b6f92c21f00f86d58df292771e431eea05a1cfe35cba003ce0086f6aab7ddd4e5fc962538e78902c386620425d5de5fc0100ba2ccc6430068581e2d7230ac1f8cba79f16f0db8747882f03fa5d41967fb8be1c1b4092367320191b85d52ce938b94e4f69328c55554b9051ecd55ee3527181aa524faaadbcff066208d4e8689e49b2ceb75f26e56da8d9065462a7b2729205db7b7548a43802f7f270ecc05d70e6802610013be42ce7045e2ce91d51bdef7dc53850a4c71baf3bebd7f05e9776395d2f6c72d5838fe3952cd087a5d5b0e25ca3c8987461344fed536deb107c66fd2b2e35978648541c1b20240a016e2725a4dea52fd5f47f7d5318422a887513e0580e8eb8587c475af49305c9682e61e0ef40dabd8fdb37aabf89ae6ba71b1dac3dd558e91f2bfee9a140f8c451dcf7c00dde32028e65c7ecde981036b2a04479f82cdeed663c365220d13e29632ce5f404e90910e8f7bacd5ba05ff34ee301b225315823ab5f085a48f1232a5418712704d79b2075b9a9186cf02d930250164ab3bb9c60a038048cd7b18b8296530ef4b37e243aaee28991ace7468e89cc7455598d06001b6a9759e00747fde7835c41bdd62ba9d836147a925492fa3c4bf6adf0ddd7d7b13181baae158f3448e69181728f82fb6c54c4b768df1c6a96232eb09e34d496ea5d58cdac1b03838f6d674d5a7f2ad225caa6a13d128107fd8d826f66dd4c59fcac79e8a7d33c0dd8023f9b04bcd838ee007617cc8f07972c7f372659c8588a5e729efce9d680af9799c2990e5fb4498672730eeaea198d02be00c5bb6aaf58653dd4c757edb57145ac401c866795ae8e694df5964d105fcfc7757f335ca87bd53db2c6839c6ef340bf496b4f8148804052017f65c4932f73f354910a296b99ae7474bf1f6c6c13aef80c9c2c574ce1496ae386a16140593a40557453f98820cf82fcd1ce5cb2acb57eafcbc89f477f515cf17df8d4083db5ce92369a94ff6cbc90eee52750f4aef00db0e28db4fd5c78bf8bf7f2d04f3c74efd667c2d88fddf37cc0e3ed3dc340473f416ad6253c95e77289b2fac1d0cbd7fad8518a1b15800da9f2fffccd912eecbe39cfbaf9b78d71be7eb37ef68d22b90901ca56d064cec6010297d59df9882aea278f1adaf8e749321f52472325466f71f6faf5e2a832b9e897d37d351d1ac173bcf5053b9f0e487a3eea864027ff7d255a9819b17b631c18731a1542319f735388d09450f7f14b676b2d86d152f06af1f08b28e9a69a9426e67fd11cd08768c8ffeb80763618198987bade870581049f7c33f53f8e6d9e90f241dd1b2236a7a20c54d5856b8c77529cfccebbe9a2d8005a43ef7dfdd711e2b2bbdea0e32dcd0f97947aa149bada9e2329441d180ebd88f73176dd062b254cdd3ac0a9082fe3b36a8653ae36bc18e314905d4a55c6f6f42997a1a6c2ffbc24228f6da60dfb11a69f30248cdf59bc98114120bc426d1d7cc7170798fc9be5864f7a9546584313879b7f9ea2d0316cef95e9d9dae02ef814136009f3dd0867507fc2a3bec93a6d4412942dd29e3335841070c8626fbb7f0749e1373af5e0a70a5ed0e47319504c771d041d0195fbf48a95a33f2406be5b04901b45fe94ea015bdfec01437cceb4c817ee683c33b6cb5902979cb24bada6f7a1c9016d0951fb4084686fc655ca5f5f41309e3f486fcdda38b95ab429beca649fe548e0704995106b4cac2be05ede0571ca0093e91863dfe36017a1261871e4bdd385cb8076dc16fb0c4c76d4e2151735d17298498f2aa98037bb31004b3c3650b4b81b900361e29708b39b6f796bd30e6ae0bd660fc18f2b208964d6dd4659bed44991fba4ead644dec1e8b356372865d1fe06bee70ce14b70c56b321ded6be20f85b8586d6d0ddfb42e20366e1591062c36836b378c5c08679e9d976cca5b31e68403b1fe597420937ed0ac5e900f2c593b66f7d8c6fc3265fba7aa6770965e9f6a257e38c9dbf59550bf5a34ddc3d1eaf60d205a609d7d883036d45c9581468ca09850246a0f0b2f6ce56557b2b9488f67c1a9fe0db07972be68dc575e52e894376ed8c44c0b8fde846a551612651af0693370e5d0d6cc14a10a72f8e1ac104bac1b91f655e6afd25a6312c53169ad0b6deade6eefc8597a28f0f65dd007de10dc62c7bfebeb225a17ba6134a0e94d3b76097864bcc6079b1668d8add684bb2b1efa90d4511e9ea0183222b0161e795d322c55cc3aecef2d72d18b72d8375f02a813fad928b57f6efc235003645ddeade72a83cb392d62d227b5d7ed162d1884e18883d46e942280e1997ccf6d143bf32af9c7e84452ff9f031f266573454e6f9cd31f745825b0e228ff4f43817777f9b1796c4d474d9155f385d1dcb8fb6490437ddfd0c5b324f2804da0ca64cf6c3cd64124a99d21293dc53cf9105a5d44249e1d7f11f187351d51d141375165e3b852794c380cb64db4041d351a33eaa00353ec5557fb16d5ccbf335692c7b4f5fc0ef45827137213a32d83a23c72790a3b3732bb662461767792388c7674a5a4329f2bfd7ba2c82f8d969e38d142f34a683912089192dbe3590d8d7730b4ca6564951a619fd317c9ad3e1e9d03e0ac67e7c42b67e0efd8e2ab54401a34a6f100be30a030f197595a8ca3a191680eb5ae30abfcb03d3ceb5d3531ed751f1ed12bc98632b09e69766fa575ed9461decc2fb9af7a20b256302052682ae8583388f2ac02d7ba38300611ffcf15ebe128d665fc106b733367772e3a459eaf79e7186a0df4e89f35433799ba533f56a9265e29eb6f64fa0e074a691ef4047f99bfa2bc7b4b948c5a78df0765f910a62b42646bd23ffade20b6055d48adf664915ae1d203ec98fdb312b9d75b53e831ddd5d0576537eddd0a4c8a6ee0ba953a5b578b9200c6cf2b6631b59c158e9a7409002be655d4c69ab59b1ec23336b871fdd0a57fb359c6c3a5bdba8b4ef01d6a1d65a4fc1dd119c1a0649d4f62198c75bc66d7d4a961fa2ef4d48f84cab8ddee66db3f1e04bb7a00bd027a906903a73c32d0151e5e32cee7131c56657173757fafb6d7071e4a666b7b8b99aaadaec4c8eff6171c555763788e99a4abbbd4d5d8e0e7edfe03223547515257699eaaedf3f400000000000000000000000000000000000000000000000b1a2c3901fd2105009512f492455bc1524b8623c0723fd9d7678e2e2112ea93ab7ea2d27123e714ce3c09668e2cc3f90f1321c73f28cba5db2e4bc5c1bc3c85e9f0b5bc005dbce46703349da2ace4c8023abb13713c7537be7b1a55dfce3f88b726bc197dcdfd76171254716aa391316ba082d9cbe6568eae44ce7224e55d8f9c79b206bab40a4e4c19dd9563d9d28757e60dc826481a072534f9759659a44d7361e6801682579293aa3cee3e06209334f895bd466b0041f7e40e4d9e7f43a74338c3c2c2aa7e8272453bea1faafe077637752ee75cabf430848b17c90883cafa104567cb0693a0ee438455477138cf16a2cd68a443a9a8d21a7d41a09ddd6a8fc7f9de0c8785f1a1a119a654a48442e7399859bb216905427955e7e8a1c829a49b19e2d7f00cb7af8344f5d1782d5d224e7f4b7735b2db5f2c08a49c413115858c988602464e4699fc6a2b4abd76f7ec70ef3e88ad65523756b0e558ff5be6c86220ecefacf9284cc9984ce080a03244ce6cf65fcece17e6ad0755c53cfb52c65843f5d01feec83ea6cbe0076b2a86590175e01b8f6ef9ccea959eb5b79d3589d5c951b969d09e51929f813c55a8e45415b572de0b6cd06c7a784cd1cccbaed5f4b3d9085667bf7c4995a1f9575bc5079a1a85394cbf3f5096289448c43015cfa7617bfeb3347c5ca115fe997aadb9a64ab97afd6593e4d8e3716373af7fed36ae684bf7aec4b5f6750099ee72d4d0e9a3cb066e7443e2665ea9056a020d1975fde6d65abefa7aa910236573a40a493a92942f5c9eefd136b6c3d60bc64f0dba8f0cad15812a4c854ad51ab32db3d5120702a5f0e98785f85e9e36ba2b7a21c79f8a89d5017b0d77212b0906716c83b3087ac58e9158fb178079e52cf53bde1da07aff7aee600c91129c5caddbef3e8ed0905ff62595b573d32b52877295776fa6b835abfb2265c0c68b8d02756db62f3a91aef562bd53f8d3d3f9a3ab5d5056798a948c2acd8816675fcb244498367fcee576caeba4df2187406228c446687d93d72d41a5e489df360b0c808cd21b43c169864387662dc39d2501603ae0d4d21312943bc168aa3ae9afbfc0b7c63d5719ab0fb4fa7471dbf8675a7dcc9e0875ae33f0614942e77fead7e514d5f88cade83dfee2f766ffb7d82075b0eddc37bd002bf4cf91ca30538425ed8b61ce304e80e5237e473a5fae02c9035dd4136affea3ba85e82e70828afcac8b8ada39ef4aa80252df9d3f9c709a7d1461e5727d5396fc3d7f5b7ce6874381357693ddd1ed2beeeb2215fcc359dffaa7c9cf9737f7f65cb852fa17aa81a07eba91405ef64aa7f8dae5eccf1f6dd50f5ed63807a13d605a6c41a54d64100a7d60f5ca0940bb09bc116a54ceb167e7f3559375262dbd14f20b045c5e5040b190d07633418279d9ca6027bff91ee6345054b26e2874a12f146fdd9f6716930710003fd48df5cce74695177f35d5818310d3916751b5cd7d3504905be04ed27cbda999e2d0ce98c5f12e61c0b079a884ef440a3820be4c30d5898375a8bb693423fad50004e8479c7c8c772e3ffabeb5bf1454ae78c5d16a53fa04b9798440652e21fca889a70e1046cf87599e8711baec76999b07b442a78f0116216bc5c80dee228701fe515ed07b17fd39bbee62791f8a6c833804f76436c39dd38f485bc9a1c2a5b0dee58598baa66c2fe662c66fd45206f87d056703019aeea0b3c2f178efacc8715394d17d3fed2d0cbd252c7bb3b59e91f9961ced6c62993fe9f6fa8045a1a09436aa0d112138c514a714f9eba42adb14bd91a4b808b2b32d797f44b0cce85c3a2af6fa9453d59d29dc8d7014a5960ea816aefb41e9cf9a895b3a283000000",
  "txid": "376d4f3ac1e1b2146c9ba3dde905012b6f39ef7f99b89c765c5e0e5d03b085c9",
  "hash": "7fe12549ede21787ff9737e21abd19ba77b6a21b3ea0cb461bfd19dc429316a2",
  "size": 5085,
  "vsize": 2278,
  "version": 1,
  "locktime": 131,
  "vin": [
    {
      "txid": "2f1572fa7781d768f7221009f24b56ba991ef08d896313874f7111f1661096bc",
      "vout": 1,
      "scriptSig": {
        "asm": "",
        "hex": ""
      },
      "txinwitness": [
        "88f73a63942c5de7e39a8308da7b7315f9e90aa7acad80c7b39d7bc942900256f2fc1fa351b709b3c5c39a3e881f18523f24248858143cf489062f3c6f69b18343ad5bc79f752ab300fc1f3dc3a6cc0024de27672ef94301b03f136b662a540a7619f13a5497482d19f7eb901c4d990b819f9079a4e4261a8361c24805bff2a4cb760176eb80be371a4c974ba8418615ef424b5f54f7ceb538fbff8b361a6298d3b28c855239f5b88de472c1b6f92c21f00f86d58df292771e431eea05a1cfe35cba003ce0086f6aab7ddd4e5fc962538e78902c386620425d5de5fc0100ba2ccc6430068581e2d7230ac1f8cba79f16f0db8747882f03fa5d41967fb8be1c1b4092367320191b85d52ce938b94e4f69328c55554b9051ecd55ee3527181aa524faaadbcff066208d4e8689e49b2ceb75f26e56da8d9065462a7b2729205db7b7548a43802f7f270ecc05d70e6802610013be42ce7045e2ce91d51bdef7dc53850a4c71baf3bebd7f05e9776395d2f6c72d5838fe3952cd087a5d5b0e25ca3c8987461344fed536deb107c66fd2b2e35978648541c1b20240a016e2725a4dea52fd5f47f7d5318422a887513e0580e8eb8587c475af49305c9682e61e0ef40dabd8fdb37aabf89ae6ba71b1dac3dd558e91f2bfee9a140f8c451dcf7c00dde32028e65c7ecde981036b2a04479f82cdeed663c365220d13e29632ce5f404e90910e8f7bacd5ba05ff34ee301b225315823ab5f085a48f1232a5418712704d79b2075b9a9186cf02d930250164ab3bb9c60a038048cd7b18b8296530ef4b37e243aaee28991ace7468e89cc7455598d06001b6a9759e00747fde7835c41bdd62ba9d836147a925492fa3c4bf6adf0ddd7d7b13181baae158f3448e69181728f82fb6c54c4b768df1c6a96232eb09e34d496ea5d58cdac1b03838f6d674d5a7f2ad225caa6a13d128107fd8d826f66dd4c59fcac79e8a7d33c0dd8023f9b04bcd838ee007617cc8f07972c7f372659c8588a5e729efce9d680af9799c2990e5fb4498672730eeaea198d02be00c5bb6aaf58653dd4c757edb57145ac401c866795ae8e694df5964d105fcfc7757f335ca87bd53db2c6839c6ef340bf496b4f8148804052017f65c4932f73f354910a296b99ae7474bf1f6c6c13aef80c9c2c574ce1496ae386a16140593a40557453f98820cf82fcd1ce5cb2acb57eafcbc89f477f515cf17df8d4083db5ce92369a94ff6cbc90eee52750f4aef00db0e28db4fd5c78bf8bf7f2d04f3c74efd667c2d88fddf37cc0e3ed3dc340473f416ad6253c95e77289b2fac1d0cbd7fad8518a1b15800da9f2fffccd912eecbe39cfbaf9b78d71be7eb37ef68d22b90901ca56d064cec6010297d59df9882aea278f1adaf8e749321f52472325466f71f6faf5e2a832b9e897d37d351d1ac173bcf5053b9f0e487a3eea864027ff7d255a9819b17b631c18731a1542319f735388d09450f7f14b676b2d86d152f06af1f08b28e9a69a9426e67fd11cd08768c8ffeb80763618198987bade870581049f7c33f53f8e6d9e90f241dd1b2236a7a20c54d5856b8c77529cfccebbe9a2d8005a43ef7dfdd711e2b2bbdea0e32dcd0f97947aa149bada9e2329441d180ebd88f73176dd062b254cdd3ac0a9082fe3b36a8653ae36bc18e314905d4a55c6f6f42997a1a6c2ffbc24228f6da60dfb11a69f30248cdf59bc98114120bc426d1d7cc7170798fc9be5864f7a9546584313879b7f9ea2d0316cef95e9d9dae02ef814136009f3dd0867507fc2a3bec93a6d4412942dd29e3335841070c8626fbb7f0749e1373af5e0a70a5ed0e47319504c771d041d0195fbf48a95a33f2406be5b04901b45fe94ea015bdfec01437cceb4c817ee683c33b6cb5902979cb24bada6f7a1c9016d0951fb4084686fc655ca5f5f41309e3f486fcdda38b95ab429beca649fe548e0704995106b4cac2be05ede0571ca0093e91863dfe36017a1261871e4bdd385cb8076dc16fb0c4c76d4e2151735d17298498f2aa98037bb31004b3c3650b4b81b900361e29708b39b6f796bd30e6ae0bd660fc18f2b208964d6dd4659bed44991fba4ead644dec1e8b356372865d1fe06bee70ce14b70c56b321ded6be20f85b8586d6d0ddfb42e20366e1591062c36836b378c5c08679e9d976cca5b31e68403b1fe597420937ed0ac5e900f2c593b66f7d8c6fc3265fba7aa6770965e9f6a257e38c9dbf59550bf5a34ddc3d1eaf60d205a609d7d883036d45c9581468ca09850246a0f0b2f6ce56557b2b9488f67c1a9fe0db07972be68dc575e52e894376ed8c44c0b8fde846a551612651af0693370e5d0d6cc14a10a72f8e1ac104bac1b91f655e6afd25a6312c53169ad0b6deade6eefc8597a28f0f65dd007de10dc62c7bfebeb225a17ba6134a0e94d3b76097864bcc6079b1668d8add684bb2b1efa90d4511e9ea0183222b0161e795d322c55cc3aecef2d72d18b72d8375f02a813fad928b57f6efc235003645ddeade72a83cb392d62d227b5d7ed162d1884e18883d46e942280e1997ccf6d143bf32af9c7e84452ff9f031f266573454e6f9cd31f745825b0e228ff4f43817777f9b1796c4d474d9155f385d1dcb8fb6490437ddfd0c5b324f2804da0ca64cf6c3cd64124a99d21293dc53cf9105a5d44249e1d7f11f187351d51d141375165e3b852794c380cb64db4041d351a33eaa00353ec5557fb16d5ccbf335692c7b4f5fc0ef45827137213a32d83a23c72790a3b3732bb662461767792388c7674a5a4329f2bfd7ba2c82f8d969e38d142f34a683912089192dbe3590d8d7730b4ca6564951a619fd317c9ad3e1e9d03e0ac67e7c42b67e0efd8e2ab54401a34a6f100be30a030f197595a8ca3a191680eb5ae30abfcb03d3ceb5d3531ed751f1ed12bc98632b09e69766fa575ed9461decc2fb9af7a20b256302052682ae8583388f2ac02d7ba38300611ffcf15ebe128d665fc106b733367772e3a459eaf79e7186a0df4e89f35433799ba533f56a9265e29eb6f64fa0e074a691ef4047f99bfa2bc7b4b948c5a78df0765f910a62b42646bd23ffade20b6055d48adf664915ae1d203ec98fdb312b9d75b53e831ddd5d0576537eddd0a4c8a6ee0ba953a5b578b9200c6cf2b6631b59c158e9a7409002be655d4c69ab59b1ec23336b871fdd0a57fb359c6c3a5bdba8b4ef01d6a1d65a4fc1dd119c1a0649d4f62198c75bc66d7d4a961fa2ef4d48f84cab8ddee66db3f1e04bb7a00bd027a906903a73c32d0151e5e32cee7131c56657173757fafb6d7071e4a666b7b8b99aaadaec4c8eff6171c555763788e99a4abbbd4d5d8e0e7edfe03223547515257699eaaedf3f400000000000000000000000000000000000000000000000b1a2c3901",
        "009512f492455bc1524b8623c0723fd9d7678e2e2112ea93ab7ea2d27123e714ce3c09668e2cc3f90f1321c73f28cba5db2e4bc5c1bc3c85e9f0b5bc005dbce46703349da2ace4c8023abb13713c7537be7b1a55dfce3f88b726bc197dcdfd76171254716aa391316ba082d9cbe6568eae44ce7224e55d8f9c79b206bab40a4e4c19dd9563d9d28757e60dc826481a072534f9759659a44d7361e6801682579293aa3cee3e06209334f895bd466b0041f7e40e4d9e7f43a74338c3c2c2aa7e8272453bea1faafe077637752ee75cabf430848b17c90883cafa104567cb0693a0ee438455477138cf16a2cd68a443a9a8d21a7d41a09ddd6a8fc7f9de0c8785f1a1a119a654a48442e7399859bb216905427955e7e8a1c829a49b19e2d7f00cb7af8344f5d1782d5d224e7f4b7735b2db5f2c08a49c413115858c988602464e4699fc6a2b4abd76f7ec70ef3e88ad65523756b0e558ff5be6c86220ecefacf9284cc9984ce080a03244ce6cf65fcece17e6ad0755c53cfb52c65843f5d01feec83ea6cbe0076b2a86590175e01b8f6ef9ccea959eb5b79d3589d5c951b969d09e51929f813c55a8e45415b572de0b6cd06c7a784cd1cccbaed5f4b3d9085667bf7c4995a1f9575bc5079a1a85394cbf3f5096289448c43015cfa7617bfeb3347c5ca115fe997aadb9a64ab97afd6593e4d8e3716373af7fed36ae684bf7aec4b5f6750099ee72d4d0e9a3cb066e7443e2665ea9056a020d1975fde6d65abefa7aa910236573a40a493a92942f5c9eefd136b6c3d60bc64f0dba8f0cad15812a4c854ad51ab32db3d5120702a5f0e98785f85e9e36ba2b7a21c79f8a89d5017b0d77212b0906716c83b3087ac58e9158fb178079e52cf53bde1da07aff7aee600c91129c5caddbef3e8ed0905ff62595b573d32b52877295776fa6b835abfb2265c0c68b8d02756db62f3a91aef562bd53f8d3d3f9a3ab5d5056798a948c2acd8816675fcb244498367fcee576caeba4df2187406228c446687d93d72d41a5e489df360b0c808cd21b43c169864387662dc39d2501603ae0d4d21312943bc168aa3ae9afbfc0b7c63d5719ab0fb4fa7471dbf8675a7dcc9e0875ae33f0614942e77fead7e514d5f88cade83dfee2f766ffb7d82075b0eddc37bd002bf4cf91ca30538425ed8b61ce304e80e5237e473a5fae02c9035dd4136affea3ba85e82e70828afcac8b8ada39ef4aa80252df9d3f9c709a7d1461e5727d5396fc3d7f5b7ce6874381357693ddd1ed2beeeb2215fcc359dffaa7c9cf9737f7f65cb852fa17aa81a07eba91405ef64aa7f8dae5eccf1f6dd50f5ed63807a13d605a6c41a54d64100a7d60f5ca0940bb09bc116a54ceb167e7f3559375262dbd14f20b045c5e5040b190d07633418279d9ca6027bff91ee6345054b26e2874a12f146fdd9f6716930710003fd48df5cce74695177f35d5818310d3916751b5cd7d3504905be04ed27cbda999e2d0ce98c5f12e61c0b079a884ef440a3820be4c30d5898375a8bb693423fad50004e8479c7c8c772e3ffabeb5bf1454ae78c5d16a53fa04b9798440652e21fca889a70e1046cf87599e8711baec76999b07b442a78f0116216bc5c80dee228701fe515ed07b17fd39bbee62791f8a6c833804f76436c39dd38f485bc9a1c2a5b0dee58598baa66c2fe662c66fd45206f87d056703019aeea0b3c2f178efacc8715394d17d3fed2d0cbd252c7bb3b59e91f9961ced6c62993fe9f6fa8045a1a09436aa0d112138c514a714f9eba42adb14bd91a4b808b2b32d797f44b0cce85c3a2af6fa9453d59d29dc8d7014a5960ea816aefb41e9cf9a895b3a2"
      ],
      "sequence": 4294967294
    }
  ],
  "vout": [
    {
      "value": 1.0,
      "n": 0,
      "scriptPubKey": {
        "asm": "OP_RETURN 1728b7fda3064306bc668c31bb4dcfa2f8f150f0424d4c98e6084016e9366047 e6be21ea2ed5e71b3b9f7a7a88eb12e8f68d9a9c5e2c61f29fdf149a6fdf5292c69e01ca0ef5c73b1bbf5a5aa8cb32c8d6adbabc7e0c41d2bfff34ba4fff72b2a6fe61aa6e95a75b7bdf3a3ac8ab52a8b6cddadc1e6c21b2df9f54da2f9f12d286de418a4eb5877b5bff1a1ae88b728896edfafc3e4c0192ffbf74fa0fbf32f2663ea16aae55679bbb1ffafa086b9268760d1a1cdeace1721f5f941aef5fd212461e814a8e7547bb9b3fdada284bb248562d3a3cfe8cc1523f7fb43acf7ff232267ee12aee1527dbfb5fbaba482bd228364d5a5c9eeca1325f1fd45aaf1f9252065ec10ace3507fbdb7f9a9a680bf208166d7a7cbecc81127f3ff47a8f3fb272e6be21ea2ed5e71b3b9f7a7a88eb12e8f68d9a9c5e2c61f29fdf149a6fdf5292c69e01ca0ef5c73b1bbf5a5aa8cb32c8d6adbabc7e0c41d2bfff34ba4fff72b2a6fe61aa6e95a75b7bdf3a3ac8ab52a8b6cddadc1e6c21b2df9f54da2f9f12d286de418a4eb5877b5bff1a1ae88b728896edfafc3e4c0192ffbf74fa0fbf32f2663ea16aae55679bbb1ffafa086b9268760d1a1cdeace1721f5f941aef5fd212461e814a8e7547bb9b3fdada284bb248562d3a3cfe8cc1523f7fb43acf7ff232267ee12aee1527dbfb5fbaba482bd228364d5a5c9eeca1325f1fd45aaf1f9252065ec10ace3507fbdb7f9a9a680bf208166d7a7cbecc81127f3ff47a8f3fb272e6be21ea2ed5e71b3b9f7a7a88eb12e8f68d9a9c5e2c61f29fdf149a6fdf5292c69e01ca0ef5c73b1bbf5a5aa8cb32c8d6adbabc7e0c41d2bfff34ba4fff72b2a6fe61aa6e95a75b7bdf3a3ac8ab52a8b6cddadc1e6c21b2df9f54da2f9f12d286de418a4eb5877b5bff1a1ae88b728896edfafc3e4c0192ffbf74fa0fbf32f2663ea16aae55679bbb1ffafa086b9268760d1a1cdeace1721f5f941aef5fd212461e814a8e7547bb9b3fdada284bb248562d3a3cfe8cc1523f7fb43acf7ff232267ee12aee1527dbfb5fbaba482bd228364d5a5c9eeca1325f1fd45aaf1f9252065ec10ace3507fbdb7f9a9a680bf208166d7a7cbecc81127f3ff47a8f3fb272e6be21ea2ed5e71b3b9f7a7a88eb12e8f68d9a9c5e2c61f29fdf149a6fdf5292c69e01ca0ef5c73b1bbf5a5aa8cb32c8d6adbabc7e0c41d2bfff34ba4fff72b2a6fe61aa6e95a75b7bdf3a3ac8ab52a8b6cddadc1e6c21b2df9f54da2f9f12d286de418a4eb5877b5bff1a1ae88b728896edfafc3e4c0192ffbf74fa0fbf32f2663ea16aae55679bbb1ffafa086b9268760d1a1cdeace1721f5f941aef5fd212461e814a8e7547bb9b3fdada284bb248562d3a3cfe8cc1523f7fb43acf7ff232267ee12aee1527dbfb5fbaba482bd228364d5a5c9eeca1325f1fd45aaf1f9252065ec10ace3507fbdb7f9a9a680bf208166d7a7cbecc81127f3ff47a8f3fb272e6be21ea2ed5e71b3b9f7a7a88eb12e8f68d9a9c5e2c61f29fdf149a6fdf5292c69e01ca0ef5c73b1bbf5a5aa8cb32c8d6adbabc7e0c41d2bfff34ba4fff72b2a6fe61aa6e95a75b7bdf3a3ac8ab52a8b6cddadc1e6c21b2df9f54da2f9f12d286de418a4eb5877b5bff1a1ae88b728896edfafc3e4c0192ffbf74fa0fbf32f2663ea16aae55679bbb1ffafa086b9268a43e963e503add6e31472778feeb1c65cd4424045dcf0696bd9dfb51616db350",
        "hex": "6a201728b7fda3064306bc668c31bb4dcfa2f8f150f0424d4c98e6084016e93660474db004e6be21ea2ed5e71b3b9f7a7a88eb12e8f68d9a9c5e2c61f29fdf149a6fdf5292c69e01ca0ef5c73b1bbf5a5aa8cb32c8d6adbabc7e0c41d2bfff34ba4fff72b2a6fe61aa6e95a75b7bdf3a3ac8ab52a8b6cddadc1e6c21b2df9f54da2f9f12d286de418a4eb5877b5bff1a1ae88b728896edfafc3e4c0192ffbf74fa0fbf32f2663ea16aae55679bbb1ffafa086b9268760d1a1cdeace1721f5f941aef5fd212461e814a8e7547bb9b3fdada284bb248562d3a3cfe8cc1523f7fb43acf7ff232267ee12aee1527dbfb5fbaba482bd228364d5a5c9eeca1325f1fd45aaf1f9252065ec10ace3507fbdb7f9a9a680bf208166d7a7cbecc81127f3ff47a8f3fb272e6be21ea2ed5e71b3b9f7a7a88eb12e8f68d9a9c5e2c61f29fdf149a6fdf5292c69e01ca0ef5c73b1bbf5a5aa8cb32c8d6adbabc7e0c41d2bfff34ba4fff72b2a6fe61aa6e95a75b7bdf3a3ac8ab52a8b6cddadc1e6c21b2df9f54da2f9f12d286de418a4eb5877b5bff1a1ae88b728896edfafc3e4c0192ffbf74fa0fbf32f2663ea16aae55679bbb1ffafa086b9268760d1a1cdeace1721f5f941aef5fd212461e814a8e7547bb9b3fdada284bb248562d3a3cfe8cc1523f7fb43acf7ff232267ee12aee1527dbfb5fbaba482bd228364d5a5c9eeca1325f1fd45aaf1f9252065ec10ace3507fbdb7f9a9a680bf208166d7a7cbecc81127f3ff47a8f3fb272e6be21ea2ed5e71b3b9f7a7a88eb12e8f68d9a9c5e2c61f29fdf149a6fdf5292c69e01ca0ef5c73b1bbf5a5aa8cb32c8d6adbabc7e0c41d2bfff34ba4fff72b2a6fe61aa6e95a75b7bdf3a3ac8ab52a8b6cddadc1e6c21b2df9f54da2f9f12d286de418a4eb5877b5bff1a1ae88b728896edfafc3e4c0192ffbf74fa0fbf32f2663ea16aae55679bbb1ffafa086b9268760d1a1cdeace1721f5f941aef5fd212461e814a8e7547bb9b3fdada284bb248562d3a3cfe8cc1523f7fb43acf7ff232267ee12aee1527dbfb5fbaba482bd228364d5a5c9eeca1325f1fd45aaf1f9252065ec10ace3507fbdb7f9a9a680bf208166d7a7cbecc81127f3ff47a8f3fb272e6be21ea2ed5e71b3b9f7a7a88eb12e8f68d9a9c5e2c61f29fdf149a6fdf5292c69e01ca0ef5c73b1bbf5a5aa8cb32c8d6adbabc7e0c41d2bfff34ba4fff72b2a6fe61aa6e95a75b7bdf3a3ac8ab52a8b6cddadc1e6c21b2df9f54da2f9f12d286de418a4eb5877b5bff1a1ae88b728896edfafc3e4c0192ffbf74fa0fbf32f2663ea16aae55679bbb1ffafa086b9268760d1a1cdeace1721f5f941aef5fd212461e814a8e7547bb9b3fdada284bb248562d3a3cfe8cc1523f7fb43acf7ff232267ee12aee1527dbfb5fbaba482bd228364d5a5c9eeca1325f1fd45aaf1f9252065ec10ace3507fbdb7f9a9a680bf208166d7a7cbecc81127f3ff47a8f3fb272e6be21ea2ed5e71b3b9f7a7a88eb12e8f68d9a9c5e2c61f29fdf149a6fdf5292c69e01ca0ef5c73b1bbf5a5aa8cb32c8d6adbabc7e0c41d2bfff34ba4fff72b2a6fe61aa6e95a75b7bdf3a3ac8ab52a8b6cddadc1e6c21b2df9f54da2f9f12d286de418a4eb5877b5bff1a1ae88b728896edfafc3e4c0192ffbf74fa0fbf32f2663ea16aae55679bbb1ffafa086b9268a43e963e503add6e31472778feeb1c65cd4424045dcf0696bd9dfb51616db350",
        "type": "nulldata"
      }
    },
    {
      "value": 499966.4423,
      "n": 1,
      "scriptPubKey": {
        "asm": "1 2b2b39b340a262c745d2a1f191df02604731178a36bceec6f09ff262257e2306",
        "hex": "51202b2b39b340a262c745d2a1f191df02604731178a36bceec6f09ff262257e2306",
        "reqSigs": 1,
        "type": "witness_v1_scripthash",
        "addresses": [
          "3QJmnh"
        ]
      }
    }
  ],
  "blockhash": "3357cb4dc001b5acbac31fcce3a77df76b11eaba9a4d126a2528d529fe11213e",
  "confirmations": 1,
  "time": 1764182290,
  "blocktime": 1764182290
}