{
  "hex": "01000000000101fcd203ab286c3e1052ca3bb71f6bee571306f4010224585e276dd40c1e6057d00100000000feffffff02b0cd76d8782d00002251203a46cd635201efd9b0e8c60edfb34b345ddd6f105b579ba6af5ea24f1a081a1700e1f50500000000fdd5046a20fc04d926d8936a79fa602a58c4c25ed07995c89e6c28b878ac75961933f467a44db004ddbf5ed76f6402f14c2e5c6a8fe40275770a1039b85900047d91dee80f695960fd9f7ef74f4422d16c0e7c4aafc42255572a3019987920245db1fec82f4979409dff1e972f2442b10c6e1c2acfa44235374a5079f81940443dd19ea84f291920bddf3eb70f0462912c4e3c0aef846215176a7059d83960641df1be886f0939005d3fde57efe48271ccaedcea0f6482f5f78a90b938d98084fd115e688fe9d9e07d1ffe77cfc4a251ec8efcca2f44a2d5d7aab09918f9a0a4dd317e48afc9f9c01d7f9e17afa4c2318cee9caa4f24c2b5b7cad0f97899c0c4bd511e28cfa999a03d5fbe378f84e211accebc8a6f04e29597eaf0d958b9e0e49d713e08ef89b980ddbf5ed76f6402f14c2e5c6a8fe40275770a1039b85900047d91dee80f695960fd9f7ef74f4422d16c0e7c4aafc42255572a3019987920245db1fec82f4979409dff1e972f2442b10c6e1c2acfa44235374a5079f81940443dd19ea84f291920bddf3eb70f0462912c4e3c0aef846215176a7059d83960641df1be886f0939005d3fde57efe48271ccaedcea0f6482f5f78a90b938d98084fd115e688fe9d9e07d1ffe77cfc4a251ec8efcca2f44a2d5d7aab09918f9a0a4dd317e48afc9f9c01d7f9e17afa4c2318cee9caa4f24c2b5b7cad0f97899c0c4bd511e28cfa999a03d5fbe378f84e211accebc8a6f04e29597eaf0d958b9e0e49d713e08ef89b980ddbf5ed76f6402f14c2e5c6a8fe40275770a1039b85900047d91dee80f695960fd9f7ef74f4422d16c0e7c4aafc42255572a3019987920245db1fec82f4979409dff1e972f2442b10c6e1c2acfa44235374a5079f81940443dd19ea84f291920bddf3eb70f0462912c4e3c0aef846215176a7059d83960641df1be886f0939005d3fde57efe48271ccaedcea0f6482f5f78a90b938d98084fd115e688fe9d9e07d1ffe77cfc4a251ec8efcca2f44a2d5d7aab09918f9a0a4dd317e48afc9f9c01d7f9e17afa4c2318cee9caa4f24c2b5b7cad0f97899c0c4bd511e28cfa999a03d5fbe378f84e211accebc8a6f04e29597eaf0d958b9e0e49d713e08ef89b980ddbf5ed76f6402f14c2e5c6a8fe40275770a1039b85900047d91dee80f695960fd9f7ef74f4422d16c0e7c4aafc42255572a3019987920245db1fec82f4979409dff1e972f2442b10c6e1c2acfa44235374a5079f81940443dd19ea84f291920bddf3eb70f0462912c4e3c0aef846215176a7059d83960641df1be886f0939005d3fde57efe48271ccaedcea0f6482f5f78a90b938d98084fd115e688fe9d9e07d1ffe77cfc4a251ec8efcca2f44a2d5d7aab09918f9a0a4dd317e48afc9f9c01d7f9e17afa4c2318cee9caa4f24c2b5b7cad0f97899c0c4bd511e28cfa999a03d5fbe378f84e211accebc8a6f04e29597eaf0d958b9e0e49d713e08ef89b980ddbf5ed76f6402f14c2e5c6a8fe40275770a1039b85900047d91dee80f695960fd9f7ef74f4422d16c0e7c4aafc42255572a3019987920245db1fec82f4979409dff1e972f2442b10c6e1c2acfa44235374a5079f81940443dd19ea84f291920bddf3eb70f0462912c4e3c0aef846215176a7059d83960641df1be886f0939005d3fde57efe48271ccaedcea0f6482f5a78229471f3ee71857de44df351015340299f6af231b6b323b228bea47c3f9ff02fd7509a2036c2cae1560c491f1b71997d83c5c89ffa22d1594b5392e83c93213d6479b3e7dca360457b9d55cddbc81da5b175eb5d39248989baea3a963a1283efb093e3887b7b9a94302c4961a009b612fe5a29dc772be680150fc92ad1b0b923e51245959a6f4852b69b00131293190d9e7814b2317ad2deda14c4b20d399fb30fe553eda02cf0195fe069120babbe47cdebc9976199cbde7ec19b8e5539c04e2cab21f6fcf4c10547acefe2a45c50909aca6c2e221bf89899880a331c0f7c9bc9c0e4a8a9ba7be83434419bb1b7cf70b316fef5ac199361438e3d16e653109fab27246979516cbf217f49ae6801c68ee3c18e429c7e76b176249d8e708a8568182859e23bd1e1d709ee00494b535aa982daace60cda0c27cee15e1b8466439c63e94939e1c3c98801a0fb49444f97e286b8bf95940aad04958ee9b17d5d00634dc0629936df67d6b12a05d4239f73162e682af474f13388d15e41f74f31141f7532e2dd6bc35b2c79ddabb7195fe508bbf7aed101762ca27eb6982fad7bb7d3405943189ae70a8f8c1885587b0101c3e2c78bd63633e65dbb8031deff91cd3c0862d8a2d03c0f58a535fe04c46488679bba68d7f0d1c9fbba97b80b5c84ce9a4ac45b7714e3436425dfe195c6ca1eb7f64c6557d512fb1e54718a12ca83d7cfcaa6e8b878c4f7979c0bf2b80275bc09c33b7ada3d28b8d722cde0e19df1b6eb0ef819c7a8e016af5cd4c395cc27b73e1ff04467e730d77925c6bda106c8ba8c198f5fa65131c233930b50548c0a1c707a03ed5de3b1adb298ffe565b2f04136d5215459d5e759d3e44b9391d668c5b420bf284f0c183fad5e53c5f7fa4bf15c880dd55c6496cc3186e35172a4e09ded1183d4ea323895c58dd64ff8e79b8cb1cbb332cde84a6cff64600e3ef0d240b6b12b5c9779642e2a247900992c130c3349db28ab476ffca5c1748096274a1aa4a8618dcd467a16e60cfa0e1fd70d56bf4465c0ac9d7f88815a49b7d31714ef8e7d3946eff7855d0a9a38099d566d79c3778dc0063b137bdfcb0778026a2dec7213a248b718a7cf9986ab72d0b0a21e64916f8c7f97f7db07668f37f10e11180d922529ad5daa777312ec1988e20d3a9cc0d7cba52d19ced178e2da231e87293ea534de73104cedd3f4547c351517983e9d2873fa44cf18b8123ea81850f2afa5afedf7b59780f4a8b1618ec867aefebe1074a759f549f79edd09cb45c128f0bdbd73428a957637e8bb9ea9ba21410255aa45ea74fd13b6156b9830a0ecc7124ac56642862317d8bef323e8771dcf95501ccae5ed83d8cb547d983517e98202a5f08691bf23545ca734429221ca52f24f0ad56169d59205ea1b8594585a5b6a7835c4aa0dad74a08562c19229c3e4f320af91e5cc8a4947e03fefddc0b9526861aae90d2de4694c7b78c6b189a2cb0bde0e6b798b9186d50c75d1f47685e5ab441e40813d50aaea73c3e98c8174e0800cca1a62fa61b43faed17028abdd449df25b5060e998fcbf414e1706edd085fe21f14bc7d91d7ddac33e7e4ac867567effd3b3107b102a467d1c7d8732b9354462913329d40bd8d2d6ff797db6d370d7f51499c95b35ed9348250d9e8de7d394906a19d526db665be81454ae45986872909c3abdd092557558a1f78b5b1756b398bcc90ad11862220d8146c0829d38baef6c4a3facf9c3c3209ae210b917dab332535e8dc6d00283ef5feab09d4fdbf222ae8c4a3d2b2541461443bff12387e029e3eb35ee492ab2459d9f75aef345d9828de89216eee30147245e857d01e382d2ec9f945f7b73b5df2fad4ce30fdd1222e8233ccf97eed9c5aa51194f5c5bae603f9ea3041d025055c0a840e18538aa4fe885937de6fa51d29b1a4784815daa1f28fb055497fffc7fafe62c1a3b908d20b4fe48529b328447fa5efb8711a322dcae6993c3aaa5044e652b978c9c91b9452cfce50d25cd4f622461cf9ad0f8aa6c3f3d5f97bda75f5e1fa5effd26c72e95c67a9751535011e2dff00d574348f1933c92f8000f4180b90dff69be4c1844cf20d0ca0b8e2cce7a0ea6d15fa152e2fcda797aaecc45169e497b2adf9f2b3dafc6b777d71bfb5f9587e3c8362cf02c95b08da6b8f05729a87041abbb3a13f5a4884275692fe8e06af5036f446ec34253657bebc670360c0dc37f8718645967f3ba4a04105350e71b726ea0ba098a03339c0ff6eb3421bdc7117f101b7ecd18bca499c91735a64b8d5ad2f80a65f979f344c7c5f096ab8ce1592c1e3f09a886d90c3a2102f7236a2dc4e394004bb13fa1d3c0eb63d531678b833cfdd097b057bbad02fea84dbc47108e5210ad58ee0f3a74cc2c640e89006c38340240fde8a7f4abcb11abb6742ca3a7778c3f98e6debce13e4fb92cad9aa439e0fa972d000df9eab91df5ebc2db527259e191a1e092f1218531cb02bb6c387f321c74d547279c531d30c6ffff2b41dbfa2694fe685abef96dd47ccc654c884d17a3c26b697757e279b3fcc5dcc1c9ca4e0c8370df29db6a15cf6ff6ba7e2d82dbe296e18aa94af837afa7efed483f03cb58e818a389edc47b682a0aee95ac1bb1deb74f6238eb5125b562b3b282b0cb897432bd5a01e43871de3e41b9413774551a3d356b882135c17c4762d4a1299b352f4422eb4d72fd30d386e31fa9380f4cb50abb8d674a7b74e970cf951c7eb9b59e3c4d033579737bafc8a1ba040381efa0ee17db75998e95bd2649d763a3f032610165749f38c419b934774c42e0b75278d80c9625ed03e2e038f4f1d9a2b3ddbf2c4a788b89d33afa033ee5f11b0d2c8bd795a35215176db672399a551c6fdfc1aa02c1a9b73eddd529977c043d4170ded05ec17fc8386be846feefd879be95c7a09bcde2b78f31355ec8db2d462f89c23c2fe7c6b916ea50acc677d19ec0f43cbfe469817f6ebe23e43cb20b40d916acb18d4c0a0f8e697982820ec0e1d7a84daa270ef696cc2e08bc998ce497a2e1541bc1a19e2365049cbbd73541d01a4d96d62377e051d84b93a0b8e73364218ea50e458cbcc9d25b00269b65b0d39ce8d7c4171ac5e8a24410145e44ae9e19b8f149fe2765425d803696b43baa460909c329adaa221bce1e9756750d66cdad409feb4adfc718e0cba7ecd1a6109c1b2a2f9d19d6c5681380074706bef80c09a72dd93b1141ea5d046f313ca200ab392df1bc00e999f40f719a433f2239a62257e6c420d3adbc73b868b76dca0b927ea3809471768ef4b11b8f521669803b30e6cc8257094b15b1d3a9521fe93cae44d2dbad49d9e82c890a9091724334f5f696e7383adbdd6e41420232e33393a42546b71818385a5b5c8cccdcfde040a214e565c5d6e83a0c6e1e2151b1c1f3d536a707790929eb0b3c3ccced9f0f6f900000000000000000000000e23304501fd210500de6fd61a309067b9c9c358659b2247b3f571c440a52af839d81e93389f49271bd62bd883a47c60025789d6c915d659011ca21ed7590e924c227de30ee331bc568aa7d961e6e9b174af47e3d11cacebd163e88e0be84d6aaaff6400df1967cc7cbf76d1bf602b5acd99874bc70f7f58a92b870bc6e66f67afade6db39829032e3b7ab427bd6feab21f87863fbcebb62f374367aeaa635525f309ef8707e92ae4f6a8910746c3d7e963c3a30fb7f2f352a09f523bb6b1aeea40b77aa8acef4462576faba4bff6b44689f42a79f618dae02364f1b2e52ef8aa5604f278eff7f5fb954bd7959d850adbe7aa072735827562ea8b487fe6be6d8431c6bda2e96d06080381b7ab77208fbf580b09bb10232c0a477ffa6a50bab58f50a5dacfd0d7451c3adec29bad58803ee514f3e242fffd3d606824e8a373b7587d18c22c281320cb7ff29ef9d9e2d87bd7e7b25a7f7aa1555a72e2ffe0709c9d7efe2faf912524d47e606624af284dcd69e4b6f525f56a97bff1eb79f5ad9bf5e1f5facfaebdaf15b2cf75b5d690c2a62130798cbc69518014e6793dca7bd5b7993f13359c9809aea5fe3980bc9e96c2e8b144187971d63b23088fd1062ef42e4f29a80250451725a55246ea76e5272e87dfce2634840a734762c0db9d109b43272d03cf849b7a1f813fe7ac17e112f256a63db35197764cf222f08c66811de4713e27adf3a178339c5955957bc9fb2117e7623b5472cf7c1b2266a80405fce8c4bf3c5fcf0ee16f51014a63f9c1cbbb92f5069d3923afa050398cf015364c918d907af74a751f4967c2874642a5874e97fde18dd424f2efa79e99ea67033932d7616be1c32418e4922809e73f1c63d07c9bed74cc05134da00ec7e0029bda5866a31cd51fda74601c0a06fa1774db2cc7bab63c57b918bc7fbc196e5d1f54fe0f3238c4f28f4772c72f7e98abda2b74a4c6b34f461e5dc8c6421834b56c2313f0414c9ba1db90bc57fc7a46b0709bc63b3a54869a4e36aeb466432d1bc0cd188b6f242208e0f1eda1bde145555a77ad4b8a13876eb8d183884f8199c93f5bd3452d30a9c8b2f4fbef5bca15778ead2741db68e9556b2552478d940bafa71f4545a3dcb4e477b99decbbdd60917320623c962ef95bafc10ee77c013ff03bd2bf4072d8055213b5a9100cd5c9279a4581c04ad93f3d2f3a87c6af54588bf94b4b3b9888b44ff1110ad02d4c710ae2089be6991fdd2761d8ae7046842d84831b8e0a605049a2e036efb984f0108829123485576fe81de7d1de07230b9084728ca3e11397a2a8ec38ffc2f7e05bf5f52e1d63963539c28c8438f1b7451567b0b2b212ace8e7061d02b8357291a299d17bd4e62aaf19d149ee0a14bad04928182a069f58746a45400775fe9bcb9363ca3eeb1bcf0c54b0862e7bd5cfb582c7455d73f8c64492640a9c6012a28cab53cad4cee233c78c21fe3010abd401dc564d2e8d5006ed00cda2f665c9ec3d5278a056109c06660fa7c66e701e7e78efebd6b5aa7b64b13cd2b942fecf18f372e02eb099b513f5b549c7513d8cd3b2920d0d761b411f4129ec94e20aa8afcb6d17bbee825330e83e54b0f17b948f88a6b432ec75eee09735f2da7e75bc43701341c87078bbe47d77ff033d4fd124f2f9f752bdf1bb742e979050d797d8b1f1fc6a6d41cf1c64b2ab7065d3e6a8b7e48131a6da644d5a3eb736b6bda09b0a9a1b27ff79476df3605fb1aea635b57d230e2dbe8d5af0bb677a80d2f9961901dfc886aa8ad6434a7e34cd33b935c05b9a2172debfd438f6db98a7f48c2f0fd4243a2d4d6ae34ff372ae2c94bb783f9d209e01b88e4568f8d23086310d1747f000000",
  "txid": "35a211210063814a8d3763eaa6e878db31f65a4a33264fc76d5cc20a0bf0a1e4",
  "hash": "95d7be9b2ef142145df5525a272cff99aff7cbb24c6f75c0231b8411cefba4d0",
  "size": 5085,
  "vsize": 2278,
  "version": 1,
  "locktime": 127,
  "vin": [
    {
      "txid": "d057601e0cd46d275e58240201f4061357ee6b1fb73bca52103e6c28ab03d2fc",
      "vout": 1,
      "scriptSig": {
        "asm": "",
        "hex": ""
      },
      "txinwitness": [
        "a2036c2cae1560c491f1b71997d83c5c89ffa22d1594b5392e83c93213d6479b3e7dca360457b9d55cddbc81da5b175eb5d39248989baea3a963a1283efb093e3887b7b9a94302c4961a009b612fe5a29dc772be680150fc92ad1b0b923e51245959a6f4852b69b00131293190d9e7814b2317ad2deda14c4b20d399fb30fe553eda02cf0195fe069120babbe47cdebc9976199cbde7ec19b8e5539c04e2cab21f6fcf4c10547acefe2a45c50909aca6c2e221bf89899880a331c0f7c9bc9c0e4a8a9ba7be83434419bb1b7cf70b316fef5ac199361438e3d16e653109fab27246979516cbf217f49ae6801c68ee3c18e429c7e76b176249d8e708a8568182859e23bd1e1d709ee00494b535aa982daace60cda0c27cee15e1b8466439c63e94939e1c3c98801a0fb49444f97e286b8bf95940aad04958ee9b17d5d00634dc0629936df67d6b12a05d4239f73162e682af474f13388d15e41f74f31141f7532e2dd6bc35b2c79ddabb7195fe508bbf7aed101762ca27eb6982fad7bb7d3405943189ae70a8f8c1885587b0101c3e2c78bd63633e65dbb8031deff91cd3c0862d8a2d03c0f58a535fe04c46488679bba68d7f0d1c9fbba97b80b5c84ce9a4ac45b7714e3436425dfe195c6ca1eb7f64c6557d512fb1e54718a12ca83d7cfcaa6e8b878c4f7979c0bf2b80275bc09c33b7ada3d28b8d722cde0e19df1b6eb0ef819c7a8e016af5cd4c395cc27b73e1ff04467e730d77925c6bda106c8ba8c198f5fa65131c233930b50548c0a1c707a03ed5de3b1adb298ffe565b2f04136d5215459d5e759d3e44b9391d668c5b420bf284f0c183fad5e53c5f7fa4bf15c880dd55c6496cc3186e35172a4e09ded1183d4ea323895c58dd64ff8e79b8cb1cbb332cde84a6cff64600e3ef0d240b6b12b5c9779642e2a247900992c130c3349db28ab476ffca5c1748096274a1aa4a8618dcd467a16e60cfa0e1fd70d56bf4465c0ac9d7f88815a49b7d31714ef8e7d3946eff7855d0a9a38099d566d79c3778dc0063b137bdfcb0778026a2dec7213a248b718a7cf9986ab72d0b0a21e64916f8c7f97f7db07668f37f10e11180d922529ad5daa777312ec1988e20d3a9cc0d7cba52d19ced178e2da231e87293ea534de73104cedd3f4547c351517983e9d2873fa44cf18b8123ea81850f2afa5afedf7b59780f4a8b1618ec867aefebe1074a759f549f79edd09cb45c128f0bdbd73428a957637e8bb9ea9ba21410255aa45ea74fd13b6156b9830a0ecc7124ac56642862317d8bef323e8771dcf95501ccae5ed83d8cb547d983517e98202a5f08691bf23545ca734429221ca52f24f0ad56169d59205ea1b8594585a5b6a7835c4aa0dad74a08562c19229c3e4f320af91e5cc8a4947e03fefddc0b9526861aae90d2de4694c7b78c6b189a2cb0bde0e6b798b9186d50c75d1f47685e5ab441e40813d50aaea73c3e98c8174e0800cca1a62fa61b43faed17028abdd449df25b5060e998fcbf414e1706edd085fe21f14bc7d91d7ddac33e7e4ac867567effd3b3107b102a467d1c7d8732b9354462913329d40bd8d2d6ff797db6d370d7f51499c95b35ed9348250d9e8de7d394906a19d526db665be81454ae45986872909c3abdd092557558a1f78b5b1756b398bcc90ad11862220d8146c0829d38baef6c4a3facf9c3c3209ae210b917dab332535e8dc6d00283ef5feab09d4fdbf222ae8c4a3d2b2541461443bff12387e029e3eb35ee492ab2459d9f75aef345d9828de89216eee30147245e857d01e382d2ec9f945f7b73b5df2fad4ce30fdd1222e8233ccf97eed9c5aa51194f5c5bae603f9ea3041d025055c0a840e18538aa4fe885937de6fa51d29b1a4784815daa1f28fb055497fffc7fafe62c1a3b908d20b4fe48529b328447fa5efb8711a322dcae6993c3aaa5044e652b978c9c91b9452cfce50d25cd4f622461cf9ad0f8aa6c3f3d5f97bda75f5e1fa5effd26c72e95c67a9751535011e2dff00d574348f1933c92f8000f4180b90dff69be4c1844cf20d0ca0b8e2cce7a0ea6d15fa152e2fcda797aaecc45169e497b2adf9f2b3dafc6b777d71bfb5f9587e3c8362cf02c95b08da6b8f05729a87041abbb3a13f5a4884275692fe8e06af5036f446ec34253657bebc670360c0dc37f8718645967f3ba4a04105350e71b726ea0ba098a03339c0ff6eb3421bdc7117f101b7ecd18bca499c91735a64b8d5ad2f80a65f979f344c7c5f096ab8ce1592c1e3f09a886d90c3a2102f7236a2dc4e394004bb13fa1d3c0eb63d531678b833cfdd097b057bbad02fea84dbc47108e5210ad58ee0f3a74cc2c640e89006c38340240fde8a7f4abcb11abb6742ca3a7778c3f98e6debce13e4fb92cad9aa439e0fa972d000df9eab91df5ebc2db527259e191a1e092f1218531cb02bb6c387f321c74d547279c531d30c6ffff2b41dbfa2694fe685abef96dd47ccc654c884d17a3c26b697757e279b3fcc5dcc1c9ca4e0c8370df29db6a15cf6ff6ba7e2d82dbe296e18aa94af837afa7efed483f03cb58e818a389edc47b682a0aee95ac1bb1deb74f6238eb5125b562b3b282b0cb897432bd5a01e43871de3e41b9413774551a3d356b882135c17c4762d4a1299b352f4422eb4d72fd30d386e31fa9380f4cb50abb8d674a7b74e970cf951c7eb9b59e3c4d033579737bafc8a1ba040381efa0ee17db75998e95bd2649d763a3f032610165749f38c419b934774c42e0b75278d80c9625ed03e2e038f4f1d9a2b3ddbf2c4a788b89d33afa033ee5f11b0d2c8bd795a35215176db672399a551c6fdfc1aa02c1a9b73eddd529977c043d4170ded05ec17fc8386be846feefd879be95c7a09bcde2b78f31355ec8db2d462f89c23c2fe7c6b916ea50acc677d19ec0f43cbfe469817f6ebe23e43cb20b40d916acb18d4c0a0f8e697982820ec0e1d7a84daa270ef696cc2e08bc998ce497a2e1541bc1a19e2365049cbbd73541d01a4d96d62377e051d84b93a0b8e73364218ea50e458cbcc9d25b00269b65b0d39ce8d7c4171ac5e8a24410145e44ae9e19b8f149fe2765425d803696b43baa460909c329adaa221bce1e9756750d66cdad409feb4adfc718e0cba7ecd1a6109c1b2a2f9d19d6c5681380074706bef80c09a72dd93b1141ea5d046f313ca200ab392df1bc00e999f40f719a433f2239a62257e6c420d3adbc73b868b76dca0b927ea3809471768ef4b11b8f521669803b30e6cc8257094b15b1d3a9521fe93cae44d2dbad49d9e82c890a9091724334f5f696e7383adbdd6e41420232e33393a42546b71818385a5b5c8cccdcfde040a214e565c5d6e83a0c6e1e2151b1c1f3d536a707790929eb0b3c3ccced9f0f6f900000000000000000000000e23304501",
        "00de6fd61a309067b9c9c358659b2247b3f571c440a52af839d81e93389f49271bd62bd883a47c60025789d6c915d659011ca21ed7590e924c227de30ee331bc568aa7d961e6e9b174af47e3d11cacebd163e88e0be84d6aaaff6400df1967cc7cbf76d1bf602b5acd99874bc70f7f58a92b870bc6e66f67afade6db39829032e3b7ab427bd6feab21f87863fbcebb62f374367aeaa635525f309ef8707e92ae4f6a8910746c3d7e963c3a30fb7f2f352a09f523bb6b1aeea40b77aa8acef4462576faba4bff6b44689f42a79f618dae02364f1b2e52ef8aa5604f278eff7f5fb954bd7959d850adbe7aa072735827562ea8b487fe6be6d8431c6bda2e96d06080381b7ab77208fbf580b09bb10232c0a477ffa6a50bab58f50a5dacfd0d7451c3adec29bad58803ee514f3e242fffd3d606824e8a373b7587d18c22c281320cb7ff29ef9d9e2d87bd7e7b25a7f7aa1555a72e2ffe0709c9d7efe2faf912524d47e606624af284dcd69e4b6f525f56a97bff1eb79f5ad9bf5e1f5facfaebdaf15b2cf75b5d690c2a62130798cbc69518014e6793dca7bd5b7993f13359c9809aea5fe3980bc9e96c2e8b144187971d63b23088fd1062ef42e4f29a80250451725a55246ea76e5272e87dfce2634840a734762c0db9d109b43272d03cf849b7a1f813fe7ac17e112f256a63db35197764cf222f08c66811de4713e27adf3a178339c5955957bc9fb2117e7623b5472cf7c1b2266a80405fce8c4bf3c5fcf0ee16f51014a63f9c1cbbb92f5069d3923afa050398cf015364c918d907af74a751f4967c2874642a5874e97fde18dd424f2efa79e99ea67033932d7616be1c32418e4922809e73f1c63d07c9bed74cc05134da00ec7e0029bda5866a31cd51fda74601c0a06fa1774db2cc7bab63c57b918bc7fbc196e5d1f54fe0f3238c4f28f4772c72f7e98abda2b74a4c6b34f461e5dc8c6421834b56c2313f0414c9ba1db90bc57fc7a46b0709bc63b3a54869a4e36aeb466432d1bc0cd188b6f242208e0f1eda1bde145555a77ad4b8a13876eb8d183884f8199c93f5bd3452d30a9c8b2f4fbef5bca15778ead2741db68e9556b2552478d940bafa71f4545a3dcb4e477b99decbbdd60917320623c962ef95bafc10ee77c013ff03bd2bf4072d8055213b5a9100cd5c9279a4581c04ad93f3d2f3a87c6af54588bf94b4b3b9888b44ff1110ad02d4c710ae2089be6991fdd2761d8ae7046842d84831b8e0a605049a2e036efb984f0108829123485576fe81de7d1de07230b9084728ca3e11397a2a8ec38ffc2f7e05bf5f52e1d63963539c28c8438f1b7451567b0b2b212ace8e7061d02b8357291a299d17bd4e62aaf19d149ee0a14bad04928182a069f58746a45400775fe9bcb9363ca3eeb1bcf0c54b0862e7bd5cfb582c7455d73f8c64492640a9c6012a28cab53cad4cee233c78c21fe3010abd401dc564d2e8d5006ed00cda2f665c9ec3d5278a056109c06660fa7c66e701e7e78efebd6b5aa7b64b13cd2b942fecf18f372e02eb099b513f5b549c7513d8cd3b2920d0d761b411f4129ec94e20aa8afcb6d17bbee825330e83e54b0f17b948f88a6b432ec75eee09735f2da7e75bc43701341c87078bbe47d77ff033d4fd124f2f9f752bdf1bb742e979050d797d8b1f1fc6a6d41cf1c64b2ab7065d3e6a8b7e48131a6da644d5a3eb736b6bda09b0a9a1b27ff79476df3605fb1aea635b57d230e2dbe8d5af0bb677a80d2f9961901dfc886aa8ad6434a7e34cd33b935c05b9a2172debfd438f6db98a7f48c2f0fd4243a2d4d6ae34ff372ae2c94bb783f9d209e01b88e4568f8d23086310d174"
      ],
      "sequence": 4294967294
    }
  ],
  "vout": [
    {
      "value": 499970.5099,
      "n": 0,
      "scriptPubKey": {
        "asm": "1 3a46cd635201efd9b0e8c60edfb34b345ddd6f105b579ba6af5ea24f1a081a17",
        "hex": "51203a46cd635201efd9b0e8c60edfb34b345ddd6f105b579ba6af5ea24f1a081a17",
        "reqSigs": 1,
        "type": "witness_v1_scripthash",
        "addresses": [
          "3QJmnh"
        ]
      }
    },
    {
      "value": 1.0,
      "n": 1,
      "scriptPubKey": {
        "asm": "OP_RETURN fc04d926d8936a79fa602a58c4c25ed07995c89e6c28b878ac75961933f467a4 ddbf5ed76f6402f14c2e5c6a8fe40275770a1039b85900047d91dee80f695960fd9f7ef74f4422d16c0e7c4aafc42255572a3019987920245db1fec82f4979409dff1e972f2442b10c6e1c2acfa44235374a5079f81940443dd19ea84f291920bddf3eb70f0462912c4e3c0aef846215176a7059d83960641df1be886f0939005d3fde57efe48271ccaedcea0f6482f5f78a90b938d98084fd115e688fe9d9e07d1ffe77cfc4a251ec8efcca2f44a2d5d7aab09918f9a0a4dd317e48afc9f9c01d7f9e17afa4c2318cee9caa4f24c2b5b7cad0f97899c0c4bd511e28cfa999a03d5fbe378f84e211accebc8a6f04e29597eaf0d958b9e0e49d713e08ef89b980ddbf5ed76f6402f14c2e5c6a8fe40275770a1039b85900047d91dee80f695960fd9f7ef74f4422d16c0e7c4aafc42255572a3019987920245db1fec82f4979409dff1e972f2442b10c6e1c2acfa44235374a5079f81940443dd19ea84f291920bddf3eb70f0462912c4e3c0aef846215176a7059d83960641df1be886f0939005d3fde57efe48271ccaedcea0f6482f5f78a90b938d98084fd115e688fe9d9e07d1ffe77cfc4a251ec8efcca2f44a2d5d7aab09918f9a0a4dd317e48afc9f9c01d7f9e17afa4c2318cee9caa4f24c2b5b7cad0f97899c0c4bd511e28cfa999a03d5fbe378f84e211accebc8a6f04e29597eaf0d958b9e0e49d713e08ef89b980ddbf5ed76f6402f14c2e5c6a8fe40275770a1039b85900047d91dee80f695960fd9f7ef74f4422d16c0e7c4aafc42255572a3019987920245db1fec82f4979409dff1e972f2442b10c6e1c2acfa44235374a5079f81940443dd19ea84f291920bddf3eb70f0462912c4e3c0aef846215176a7059d83960641df1be886f0939005d3fde57efe48271ccaedcea0f6482f5f78a90b938d98084fd115e688fe9d9e07d1ffe77cfc4a251ec8efcca2f44a2d5d7aab09918f9a0a4dd317e48afc9f9c01d7f9e17afa4c2318cee9caa4f24c2b5b7cad0f97899c0c4bd511e28cfa999a03d5fbe378f84e211accebc8a6f04e29597eaf0d958b9e0e49d713e08ef89b980ddbf5ed76f6402f14c2e5c6a8fe40275770a1039b85900047d91dee80f695960fd9f7ef74f4422d16c0e7c4aafc42255572a3019987920245db1fec82f4979409dff1e972f2442b10c6e1c2acfa44235374a5079f81940443dd19ea84f291920bddf3eb70f0462912c4e3c0aef846215176a7059d83960641df1be886f0939005d3fde57efe48271ccaedcea0f6482f5f78a90b938d98084fd115e688fe9d9e07d1ffe77cfc4a251ec8efcca2f44a2d5d7aab09918f9a0a4dd317e48afc9f9c01d7f9e17afa4c2318cee9caa4f24c2b5b7cad0f97899c0c4bd511e28cfa999a03d5fbe378f84e211accebc8a6f04e29597eaf0d958b9e0e49d713e08ef89b980ddbf5ed76f6402f14c2e5c6a8fe40275770a1039b85900047d91dee80f695960fd9f7ef74f4422d16c0e7c4aafc42255572a3019987920245db1fec82f4979409dff1e972f2442b10c6e1c2acfa44235374a5079f81940443dd19ea84f291920bddf3eb70f0462912c4e3c0aef846215176a7059d83960641df1be886f0939005d3fde57efe48271ccaedcea0f6482f5a78229471f3ee71857de44df351015340299f6af231b6b323b228bea47c3f9ff",
        "hex": "6a20fc04d926d8936a79fa602a58c4c25ed07995c89e6c28b878ac75961933f467a44db004ddbf5ed76f6402f14c2e5c6a8fe40275770a1039b85900047d91dee80f695960fd9f7ef74f4422d16c0e7c4aafc42255572a3019987920245db1fec82f4979409dff1e972f2442b10c6e1c2acfa44235374a5079f81940443dd19ea84f291920bddf3eb70f0462912c4e3c0aef846215176a7059d83960641df1be886f0939005d3fde57efe48271ccaedcea0f6482f5f78a90b938d98084fd115e688fe9d9e07d1ffe77cfc4a251ec8efcca2f44a2d5d7aab09918f9a0a4dd317e48afc9f9c01d7f9e17afa4c2318cee9caa4f24c2b5b7cad0f97899c0c4bd511e28cfa999a03d5fbe378f84e211accebc8a6f04e29597eaf0d958b9e0e49d713e08ef89b980ddbf5ed76f6402f14c2e5c6a8fe40275770a1039b85900047d91dee80f695960fd9f7ef74f4422d16c0e7c4aafc42255572a3019987920245db1fec82f4979409dff1e972f2442b10c6e1c2acfa44235374a5079f81940443dd19ea84f291920bddf3eb70f0462912c4e3c0aef846215176a7059d83960641df1be886f0939005d3fde57efe48271ccaedcea0f6482f5f78a90b938d98084fd115e688fe9d9e07d1ffe77cfc4a251ec8efcca2f44a2d5d7aab09918f9a0a4dd317e48afc9f9c01d7f9e17afa4c2318cee9caa4f24c2b5b7cad0f97899c0c4bd511e28cfa999a03d5fbe378f84e211accebc8a6f04e29597eaf0d958b9e0e49d713e08ef89b980ddbf5ed76f6402f14c2e5c6a8fe40275770a1039b85900047d91dee80f695960fd9f7ef74f4422d16c0e7c4aafc42255572a3019987920245db1fec82f4979409dff1e972f2442b10c6e1c2acfa44235374a5079f81940443dd19ea84f291920bddf3eb70f0462912c4e3c0aef846215176a7059d83960641df1be886f0939005d3fde57efe48271ccaedcea0f6482f5f78a90b938d98084fd115e688fe9d9e07d1ffe77cfc4a251ec8efcca2f44a2d5d7aab09918f9a0a4dd317e48afc9f9c01d7f9e17afa4c2318cee9caa4f24c2b5b7cad0f97899c0c4bd511e28cfa999a03d5fbe378f84e211accebc8a6f04e29597eaf0d958b9e0e49d713e08ef89b980ddbf5ed76f6402f14c2e5c6a8fe40275770a1039b85900047d91dee80f695960fd9f7ef74f4422d16c0e7c4aafc42255572a3019987920245db1fec82f4979409dff1e972f2442b10c6e1c2acfa44235374a5079f81940443dd19ea84f291920bddf3eb70f0462912c4e3c0aef846215176a7059d83960641df1be886f0939005d3fde57efe48271ccaedcea0f6482f5f78a90b938d98084fd115e688fe9d9e07d1ffe77cfc4a251ec8efcca2f44a2d5d7aab09918f9a0a4dd317e48afc9f9c01d7f9e17afa4c2318cee9caa4f24c2b5b7cad0f97899c0c4bd511e28cfa999a03d5fbe378f84e211accebc8a6f04e29597eaf0d958b9e0e49d713e08ef89b980ddbf5ed76f6402f14c2e5c6a8fe40275770a1039b85900047d91dee80f695960fd9f7ef74f4422d16c0e7c4aafc42255572a3019987920245db1fec82f4979409dff1e972f2442b10c6e1c2acfa44235374a5079f81940443dd19ea84f291920bddf3eb70f0462912c4e3c0aef846215176a7059d83960641df1be886f0939005d3fde57efe48271ccaedcea0f6482f5a78229471f3ee71857de44df351015340299f6af231b6b323b228bea47c3f9ff",
        "type": "nulldata"
      }
    }
  ],
  "blockhash": "f7496688ea8085f6c88d1199f2534797ba9d5c262af7501e5ddf271dd00b2202",
  "confirmations": 1,
  "time": 1764181480,
  "blocktime": 1764181480
}