{
  "hex": "010000000001016cc9845c60603c87b4fa2732c74123e0a8972a580602a1b5296a387897d9248a0100000000feffffff0200e1f50500000000fdd5046a205428b4b3a1d3c29fb6132bfcd6f80a7d34c37989a140a1f930c24c999d6da6354db0048db3b0708e8f7516962eeea78013f5354c328f119f6d8fee742fea7fa9485093ad939050aeaf5536b60ece87a033d5156c12af31bf4dafce540fca5f896870b3cdf3f030cecf3556d66eaee7c053b5750c72cf51df2dcfae346faa3fe90810d3edd3d010eeef1576f64e8ec7e07395552c52ef71ff0def8e144f8a1fc92830f30d3330f00e0ff59616ae6e27009375b5ccb20f911fed0f6ef4af6aff29c8d0132d1310d02e2fd5b6368e4e0720b35595ec922fb13fcd2f4ed48f4adf09e8f0334d7370b04e4fb5d656ee2e6740d335f58cf24fd15fad4f2eb4ef2abf698890536d5350906e6f95f676ce0e4760f315d5acd26ff17f8d6f0e94cf0a9f49a8b0738db3b0708e8f7516962eeea78013f5354c328f119f6d8fee742fea7fa9485093ad939050aeaf5536b60ece87a033d5156c12af31bf4dafce540fca5f896870b3cdf3f030cecf3556d66eaee7c053b5750c72cf51df2dcfae346faa3fe90810d3edd3d010eeef1576f64e8ec7e07395552c52ef71ff0def8e144f8a1fc92830f30d3330f00e0ff59616ae6e27009375b5ccb20f911fed0f6ef4af6aff29c8d0132d1310d02e2fd5b6368e4e0720b35595ec922fb13fcd2f4ed48f4adf09e8f0334d7370b04e4fb5d656ee2e6740d335f58cf24fd15fad4f2eb4ef2abf698890536d5350906e6f95f676ce0e4760f315d5acd26ff17f8d6f0e94cf0a9f49a8b0738db3b0708e8f7516962eeea78013f5354c328f119f6d8fee742fea7fa9485093ad939050aeaf5536b60ece87a033d5156c12af31bf4dafce540fca5f896870b3cdf3f030cecf3556d66eaee7c053b5750c72cf51df2dcfae346faa3fe90810d3edd3d010eeef1576f64e8ec7e07395552c52ef71ff0def8e144f8a1fc92830f30d3330f00e0ff59616ae6e27009375b5ccb20f911fed0f6ef4af6aff29c8d0132d1310d02e2fd5b6368e4e0720b35595ec922fb13fcd2f4ed48f4adf09e8f0334d7370b04e4fb5d656ee2e6740d335f58cf24fd15fad4f2eb4ef2abf698890536d5350906e6f95f676ce0e4760f315d5acd26ff17f8d6f0e94cf0a9f49a8b0738db3b0708e8f7516962eeea78013f5354c328f119f6d8fee742fea7fa9485093ad939050aeaf5536b60ece87a033d5156c12af31bf4dafce540fca5f896870b3cdf3f030cecf3556d66eaee7c053b5750c72cf51df2dcfae346faa3fe90810d3edd3d010eeef1576f64e8ec7e07395552c52ef71ff0def8e144f8a1fc92830f30d3330f00e0ff59616ae6e27009375b5ccb20f911fed0f6ef4af6aff29c8d0132d1310d02e2fd5b6368e4e0720b35595ec922fb13fcd2f4ed48f4adf09e8f0334d7370b04e4fb5d656ee2e6740d335f58cf24fd15fad4f2eb4ef2abf698890536d5350906e6f95f676ce0e4760f315d5acd26ff17f8d6f0e94cf0a9f49a8b0738db3b0708e8f7516962eeea78013f5354c328f119f6d8fee742fea7fa9485093ad939050aeaf5536b60ece87a033d5156c12af31bf4dafce540fca5f896870b3cdf3f030cecf3556d66eaee7c053b5750c72cf51df2dcfae346faa3fe90810d3edd3d010eeef1576f64e8ec7e07395552c52ef71ff0def8e144f8a1fc92830f30d3330f00e0ff59616ae6e27009375b5d8a3a3607415b450139aed99585a44bfd2350af7b9cc95b20562646b8a8c514950ce18b4782d00002251207bc503cce50114dadcb64105a1f5cd5588594b0ea38394b6df173859a56dc6b602fd7509854c02c62073a69b43679bf5f0d93a375a5781a944790747ad85ffe69f25277b5fb52edac68312cfa3113bee82503887586beef1897d856ad6e05d79cbac127199f5913a540f46d96a54643996b26710c14275c1de4a1a0a7e9a3dd3ee19a4195630281338b9a72f93edcaf0018b9837959d5beed7334bf911e81b82bd6c8359aac991c5faf4b634c8478de4cd3d690adb86420f6db0c0dac87fd5e8752090e323af1d2319ec56bdca01f23109d4c8d0250a54a8399d2e10b88a4a32f00b2ff084f26617e211e358e97198d44348af582c68d01d3c1e074fce99e4994167d3d8183e8b496d27bba8afdfb0ecfdf43963a929b2edca7c07a6228ae7a8e2334551adcefeba830392a70b5855caef80939de11201770c04e6331f7e3156939e88d8d14f6778c8f3f78000f31842de708c636ba2d05884f30c32bd4350396a8c6dbb42bbb0d7beb0daf00ca703f70afd194794b2efa6e6c0f03387d4b4cef5423d9d177e7b4921167120a509de6392788d85ce343cc30baaaa5674d1767dc0385e61dc9a96d38612e0a8dda501f60d3ea74ee09a81132588150bec47e87872edd42e40499eeb98aa522d428dac9cac089be984f658646f3a4ffea38e61eb1271c236cb4b99d7804ea3a51ef2151d146742b4e55143d0902426f4040671e4e4c26117cc9a795f6598d61e3eb8d54eecb62c7f6894de4d242413353b2575ead0bdd947761bc1dd01eeeb61a59eb05bec1bb739cb30d0c825ad8abe9813efea24d76c4ffc7d66961ec60dc68d7ab2665db928344d72af4870ecda561a3cdb84900a69601d31477fde3d428dc192305655ef74f1650828a5c25ead7c9c7a0f7f019b66c7e7d98e314f0fcb546e69812d2d9ad953f0e635bd78b1dc85950f2656581ef65616593d136543735773904793182721ed59f3b3e39a48662b4e3d0cc64a77713871da53591e42963e9c65f38e96f17323396c6ac266cfd17406b6e8561cec3280e4c736a8fbd5bff4c2aba8ede7f51f13e4ad714b64d5487e1a053beb28594f4d28db3d147ba012ddfdf089f02ac15fb25673ccee56517c1d0f148c9b0d5f25c484a165cd852c184139f8af6b1ba845cb42fcfa59294991b8230ee63397a80e99418e132a9f4dd577d8f79823a89dcd12e9d0af3c56d4b318b73f978614e03e2df8fa2a860f54e32f03e5a5ff63bd1737f043c8716c7a6e6bd04ba647b7dce2c567a489d44d337cac43d2733419f74307adbfbb1b308a33d1c13d24c724f0c0789e5bc26c770e27f8ad209b5f5a01d83b2f120acfb2172197f0b5d607fd949a27c1d888fba8ab8bb1f1109ec9f50ded9476a40307297b9f23a8d41e315c62ead7012227e04df822cf6bd8411d8cfc9099ebf5a96ad6a40db85a1c877644d87e8e6a6d99e48954be847ae414c40210286afcfab8c220a19a99053b4999374123b26cbdffecaf49d47cc2773858acfc3a19f1df07d190f46b8d4828980f8d5dbdb7f53b9feff0a1acb358dcaacf3cc1e3ca24a9328cd480f680f2fa4a5502a0cc141a5333a132b39e5cc2e6b37523fb80d89be15e9cb8d254f6a39c0bdbad28553dc4c82d86d8e71e6fdbf4a286ca0827dc446ec0aa41286a2cea7012e9fe4d7c5d4b9f1b2c55af21acf1e7a395b7e64b71f888ced8faf9c78d854671f80ac06356d8dd1ea6f91b00ffe6ff9155116fae687c7bd28c81ddc1a2ea65458b94d5411249ddf7f1417bc69856209141f8765b772e9e4abd6226ea97f4e2b30d87ee3ea71d85f39a0103c1bf6b05b7a20b6e9efa293e171ad8e063b2b2ea8acb25ab91869061bb3e2e5e9ad41a4ab4d2e15fd404a510be31b865c1413c64eb2277ef2a26e050ef8678269114240d4f55a72cc1f1c4a5344c7e724e7165ee323ff031397c8b3d426a4c2f80a1bc609e68cd11b0d39ad31b044afb3fbeb37be1f2160d2ec9a9010ae8dd9918f2f09e60a8d3dc343dfc23ce5ade4fc20f2935158ad46532b7a6c30e6b48aaa183f9ec03e6c247c54e3744fe0242437ebc00dcbcaf80111ff60a914b46c33d4bce5693e97cf2f5d9081822a11a4d683c44aca318a8b88d243bd967413fa8941887598bc42e6869abce7b3564297d31b7d4e3096d035b735a8a0282b967f58c6856d8474a8e3d3b9196e1a4ac19c853aa9c034c4b8c6bb11041573180e872ac315ea44d01358d808a0e78771261ad94978084578ad7dca481fc245a5d5e053575c696320c05b0315f4a9d94eb1580f303c41630d8e94add8c3da1a2c6f1da725491830508e6054a3a5ac13e0d1bd54bd7736ac08edd7f94a6eee620b00872c40323fa8e97b06c5b959500adea44323919c6a9a4cbc0db16535d23dd74364d79d41283ef33376dcf603b320f8e51ebc8caa395428db4d79d15a271e7711d4040814bb344b052b5189d3e6988e63287a3383a497cd60ee9e1d19471857fcc4ca0f21c519a05abb98a587507245fb472af72fe24ef7e9670fd6ead7a9d07c1500cfc0d6001fde60cd5a95d29665cd3dcc6be7b0eada17916cdb9db5624c23868d45164afa7b985fcc586d75ffca8ab4af0ad8c8cafa4dc974b804ef82f316096e930b02666f0ab6311e37f13c8b25586189c1d0f29507d43a811308006e44e0f08baa06c46a7a26b0a7452eb4dad2d53c1208aee81d943cf51d18c82ef37caf1d5a78775a496df02e6cca5aa0b86ba5c42ada5d7b88eb34e4c8a69400353c84de000df8db6bd63c5f7d6a356d918e4f0cd13f637339e6c8c1758105a8c73a85ac2c304a5960a3318f218d49a6335bc4508c531edd8765a1505ee297a44668fc8fc1194351e7337bd1540b82f3061a15f3279214c260a3088287afb2bae2a39ff89df382d2443d74d63eb9a20400709d24d7d65956daa28aeb768a1330f5b84ae34c6ebdeaa957bc786a5e1af8c415549960259483404cb822916b0b5eec9297c11788bebac5933c4e10a89aeec54c66f57a9b7c720f72fd5ee75931c6f9e3e56e9df79d1b612100c26006041c3fdc58568965ed0f5be9d5f0e473144cf28173268c31522f3bb4df25ed88ab7eb134f59b551de8ad7385850002c2c311c7cbf22c377260a9499e298a73ce368972e0bb9eed59a1bc2e10486fd9c9e094e2b9c5c7d559a636f6f40acde0686f2cbf14660b3507afb552013d199a3017b3c173aac43a318ddfddaf1601cbfa18d1072083c1a37151a684927409728a42b7fbe82631bf30efe52dc3a103bbf1c6bd98ad5b5fd98c63db91011be9d25af738627fae76a79deca9857618c3163efca942d10d998bb4febc9f57f46ac126d000709242b3540545d6366919496a4a9c3e2eefb0736383d7b8198acadd2deeeff141d3f4a4e71a0b8bec6dbe4ed1c3e5c5f617e85878e93a6acb7cfe1ecf8000000000000000000000000000000000014212e3f01fd21050059eca86f989b70d263529af41a7b03c6e3bf8eb9e79688d68d4b34bc23777f838315f2082a07c258de4895ffa35eb67dc4c861db6ffa6797ec21ecd966343680c576c9afb33e1b99d41ded06c0a615e0be0d6d3c31b0ff5b069c64d1f0496340bfe7b049a06dd8415e8832689d05796485a4fe9dbe63fc2e5513bf310e892762583907569ad4632235eabe22561fb2b3b35fd5c953f9f377977d817e579e836d374f7cfaf49a276b620f3f0944b4ded161104c324b4de7006c2e801e4517afde0bdef0c706af7bd238684ec62f9aeba9ec9e0f109d24d43acab4f4e58c4afb9a97353d4f434b7fff658347b99b5db9dc280e1c012181502cc5cfc62d4f64bceee454dfbe145b85ee48bec1d028391e30f88cf64de175077fb1107c8763d994f74727a78ea95357fdb469419cfd9ce8f6136cc75f63278fcbe338eb7b6ee7bac9c3664b2f9ba60fcc7b44f77b512a6554cc6360c41e1c7825cff03f78f2dd542e85300983f95b23ab10aab662207d60846fd3087abc72e90a9ccea4a2c5d532d73ec70ae729388251688feb2510061e2d6f47466be80a5568777aa442ce5dafe50bc87e9f1cff480ec7dbfd0793db220874b6455a8877e52afe5501e8aafb326458e0ee5574e8b04a2ef7e758045ca2fc16a9aff5019f224d6cafc1b19ebc373f292ca7c6d50568436256bb4aed76bfc98cba3f45873f411cbfab2ed909f3a875a88fff54a610ebbd170a762f3987c7fa2063148ae0ea6af2c9da536c49551ccdfcbf083a04762ab32c8cb81392db3789adb5618cb9b3e4b8929895577d5e3272b26d29245611e7c551f2680a22c0d5f573334ad31eea21e1d67fc852dec98cc88471f5e96a203db25a0359bdf2638a9bb0500ebf9f011a09c662ebddc55df1701f06d20dc88a73993c00adeffffc0b344661f2b0cff9ab5bd7213dcbabf9a7c76db71ee9eabea5e70d6adc8383c31c0e91fb8dc3b56ebc99f4df5efa67077653ef01a1901b39fbf98cc7f390204220e1f44d1abbfb526bff3ae5a9bc9c9f94df8ebf7b9420456849688e04d8bc73c3acd673fafb473afcb35fb1771e8da3443cff2a56fbf59dda934ae390b4961d89296629afa343c4b95ea460e0ddc97a1cb6b532f1a77329e281d28dd70f03ccbe6e983494d015ffb7c5e0f37744abaf1b99ca478626a093a91087ca54f0bb40e36a61238664baefc27f038d1ea78bfe0daca4de9bc773de1904cd7e0b6ca5f70962669d51e3ddfb9d4e8caf9da7291593753a142fa6e3b18352efc2067550afc2bce7724911202637f93db72305986a34157ed92d3644c5fe2622f29aea705e5404b140e3d1c491a80bf80a8d11c8c9500bfafb6670200de2797d34df805f5305704fe2ac1457c6893e139e03e9588211748841032c473833a5100221df632bda64f19b2926b0ebe888c13dab69d4a9341506c14013a425604f5dfa33bbaeea7a0031531bd9d083a0c8d21f57e9125be501c1bb8d5dd1131c7c16d884a26f4db932edfc4cabae6df952ebed2b1b4e45f53337de2e847a9e81a5f0553c14b0030af078f8ff4e076bd162ac4ff262acf0022d1bee84a810437878429accb844a0c134bdec7b11601c83b1dbb8d170777ad07f8151f544fc00074ed47cde00a961d9fb9711b6017d7925664867a349ea498522581c5a97a7c71cdbc155229c1af9e87ad6b357a00b27ce79d8e913dd14bb6a906e9de3186c42c8a16abfe2ba71cf56e0e683da6069ce5a5f64998fe489f0359795398c03da2fb280106647e385e3ecef45b964f984079fdfc9a66793ce2d289d1fb969823048cda19d530e206b35c8220cd0f97c402d27d058ebf36a3a6a022085000000",
  "txid": "3c364f8c9b503402bc62777010ffca8a5be7e7b8a575c3863046e1bb6f39e65c",
  "hash": "89b7e3c85f46faccbc4c74d3928718681dc361b019d8ddb0e981852a13471d1c",
  "size": 5085,
  "vsize": 2278,
  "version": 1,
  "locktime": 133,
  "vin": [
    {
      "txid": "8a24d99778386a29b5a10206582a97a8e02341c73227fab4873c60605c84c96c",
      "vout": 1,
      "scriptSig": {
        "asm": "",
        "hex": ""
      },
      "txinwitness": [
        "854c02c62073a69b43679bf5f0d93a375a5781a944790747ad85ffe69f25277b5fb52edac68312cfa3113bee82503887586beef1897d856ad6e05d79cbac127199f5913a540f46d96a54643996b26710c14275c1de4a1a0a7e9a3dd3ee19a4195630281338b9a72f93edcaf0018b9837959d5beed7334bf911e81b82bd6c8359aac991c5faf4b634c8478de4cd3d690adb86420f6db0c0dac87fd5e8752090e323af1d2319ec56bdca01f23109d4c8d0250a54a8399d2e10b88a4a32f00b2ff084f26617e211e358e97198d44348af582c68d01d3c1e074fce99e4994167d3d8183e8b496d27bba8afdfb0ecfdf43963a929b2edca7c07a6228ae7a8e2334551adcefeba830392a70b5855caef80939de11201770c04e6331f7e3156939e88d8d14f6778c8f3f78000f31842de708c636ba2d05884f30c32bd4350396a8c6dbb42bbb0d7beb0daf00ca703f70afd194794b2efa6e6c0f03387d4b4cef5423d9d177e7b4921167120a509de6392788d85ce343cc30baaaa5674d1767dc0385e61dc9a96d38612e0a8dda501f60d3ea74ee09a81132588150bec47e87872edd42e40499eeb98aa522d428dac9cac089be984f658646f3a4ffea38e61eb1271c236cb4b99d7804ea3a51ef2151d146742b4e55143d0902426f4040671e4e4c26117cc9a795f6598d61e3eb8d54eecb62c7f6894de4d242413353b2575ead0bdd947761bc1dd01eeeb61a59eb05bec1bb739cb30d0c825ad8abe9813efea24d76c4ffc7d66961ec60dc68d7ab2665db928344d72af4870ecda561a3cdb84900a69601d31477fde3d428dc192305655ef74f1650828a5c25ead7c9c7a0f7f019b66c7e7d98e314f0fcb546e69812d2d9ad953f0e635bd78b1dc85950f2656581ef65616593d136543735773904793182721ed59f3b3e39a48662b4e3d0cc64a77713871da53591e42963e9c65f38e96f17323396c6ac266cfd17406b6e8561cec3280e4c736a8fbd5bff4c2aba8ede7f51f13e4ad714b64d5487e1a053beb28594f4d28db3d147ba012ddfdf089f02ac15fb25673ccee56517c1d0f148c9b0d5f25c484a165cd852c184139f8af6b1ba845cb42fcfa59294991b8230ee63397a80e99418e132a9f4dd577d8f79823a89dcd12e9d0af3c56d4b318b73f978614e03e2df8fa2a860f54e32f03e5a5ff63bd1737f043c8716c7a6e6bd04ba647b7dce2c567a489d44d337cac43d2733419f74307adbfbb1b308a33d1c13d24c724f0c0789e5bc26c770e27f8ad209b5f5a01d83b2f120acfb2172197f0b5d607fd949a27c1d888fba8ab8bb1f1109ec9f50ded9476a40307297b9f23a8d41e315c62ead7012227e04df822cf6bd8411d8cfc9099ebf5a96ad6a40db85a1c877644d87e8e6a6d99e48954be847ae414c40210286afcfab8c220a19a99053b4999374123b26cbdffecaf49d47cc2773858acfc3a19f1df07d190f46b8d4828980f8d5dbdb7f53b9feff0a1acb358dcaacf3cc1e3ca24a9328cd480f680f2fa4a5502a0cc141a5333a132b39e5cc2e6b37523fb80d89be15e9cb8d254f6a39c0bdbad28553dc4c82d86d8e71e6fdbf4a286ca0827dc446ec0aa41286a2cea7012e9fe4d7c5d4b9f1b2c55af21acf1e7a395b7e64b71f888ced8faf9c78d854671f80ac06356d8dd1ea6f91b00ffe6ff9155116fae687c7bd28c81ddc1a2ea65458b94d5411249ddf7f1417bc69856209141f8765b772e9e4abd6226ea97f4e2b30d87ee3ea71d85f39a0103c1bf6b05b7a20b6e9efa293e171ad8e063b2b2ea8acb25ab91869061bb3e2e5e9ad41a4ab4d2e15fd404a510be31b865c1413c64eb2277ef2a26e050ef8678269114240d4f55a72cc1f1c4a5344c7e724e7165ee323ff031397c8b3d426a4c2f80a1bc609e68cd11b0d39ad31b044afb3fbeb37be1f2160d2ec9a9010ae8dd9918f2f09e60a8d3dc343dfc23ce5ade4fc20f2935158ad46532b7a6c30e6b48aaa183f9ec03e6c247c54e3744fe0242437ebc00dcbcaf80111ff60a914b46c33d4bce5693e97cf2f5d9081822a11a4d683c44aca318a8b88d243bd967413fa8941887598bc42e6869abce7b3564297d31b7d4e3096d035b735a8a0282b967f58c6856d8474a8e3d3b9196e1a4ac19c853aa9c034c4b8c6bb11041573180e872ac315ea44d01358d808a0e78771261ad94978084578ad7dca481fc245a5d5e053575c696320c05b0315f4a9d94eb1580f303c41630d8e94add8c3da1a2c6f1da725491830508e6054a3a5ac13e0d1bd54bd7736ac08edd7f94a6eee620b00872c40323fa8e97b06c5b959500adea44323919c6a9a4cbc0db16535d23dd74364d79d41283ef33376dcf603b320f8e51ebc8caa395428db4d79d15a271e7711d4040814bb344b052b5189d3e6988e63287a3383a497cd60ee9e1d19471857fcc4ca0f21c519a05abb98a587507245fb472af72fe24ef7e9670fd6ead7a9d07c1500cfc0d6001fde60cd5a95d29665cd3dcc6be7b0eada17916cdb9db5624c23868d45164afa7b985fcc586d75ffca8ab4af0ad8c8cafa4dc974b804ef82f316096e930b02666f0ab6311e37f13c8b25586189c1d0f29507d43a811308006e44e0f08baa06c46a7a26b0a7452eb4dad2d53c1208aee81d943cf51d18c82ef37caf1d5a78775a496df02e6cca5aa0b86ba5c42ada5d7b88eb34e4c8a69400353c84de000df8db6bd63c5f7d6a356d918e4f0cd13f637339e6c8c1758105a8c73a85ac2c304a5960a3318f218d49a6335bc4508c531edd8765a1505ee297a44668fc8fc1194351e7337bd1540b82f3061a15f3279214c260a3088287afb2bae2a39ff89df382d2443d74d63eb9a20400709d24d7d65956daa28aeb768a1330f5b84ae34c6ebdeaa957bc786a5e1af8c415549960259483404cb822916b0b5eec9297c11788bebac5933c4e10a89aeec54c66f57a9b7c720f72fd5ee75931c6f9e3e56e9df79d1b612100c26006041c3fdc58568965ed0f5be9d5f0e473144cf28173268c31522f3bb4df25ed88ab7eb134f59b551de8ad7385850002c2c311c7cbf22c377260a9499e298a73ce368972e0bb9eed59a1bc2e10486fd9c9e094e2b9c5c7d559a636f6f40acde0686f2cbf14660b3507afb552013d199a3017b3c173aac43a318ddfddaf1601cbfa18d1072083c1a37151a684927409728a42b7fbe82631bf30efe52dc3a103bbf1c6bd98ad5b5fd98c63db91011be9d25af738627fae76a79deca9857618c3163efca942d10d998bb4febc9f57f46ac126d000709242b3540545d6366919496a4a9c3e2eefb0736383d7b8198acadd2deeeff141d3f4a4e71a0b8bec6dbe4ed1c3e5c5f617e85878e93a6acb7cfe1ecf8000000000000000000000000000000000014212e3f01",
        "0059eca86f989b70d263529af41a7b03c6e3bf8eb9e79688d68d4b34bc23777f838315f2082a07c258de4895ffa35eb67dc4c861db6ffa6797ec21ecd966343680c576c9afb33e1b99d41ded06c0a615e0be0d6d3c31b0ff5b069c64d1f0496340bfe7b049a06dd8415e8832689d05796485a4fe9dbe63fc2e5513bf310e892762583907569ad4632235eabe22561fb2b3b35fd5c953f9f377977d817e579e836d374f7cfaf49a276b620f3f0944b4ded161104c324b4de7006c2e801e4517afde0bdef0c706af7bd238684ec62f9aeba9ec9e0f109d24d43acab4f4e58c4afb9a97353d4f434b7fff658347b99b5db9dc280e1c012181502cc5cfc62d4f64bceee454dfbe145b85ee48bec1d028391e30f88cf64de175077fb1107c8763d994f74727a78ea95357fdb469419cfd9ce8f6136cc75f63278fcbe338eb7b6ee7bac9c3664b2f9ba60fcc7b44f77b512a6554cc6360c41e1c7825cff03f78f2dd542e85300983f95b23ab10aab662207d60846fd3087abc72e90a9ccea4a2c5d532d73ec70ae729388251688feb2510061e2d6f47466be80a5568777aa442ce5dafe50bc87e9f1cff480ec7dbfd0793db220874b6455a8877e52afe5501e8aafb326458e0ee5574e8b04a2ef7e758045ca2fc16a9aff5019f224d6cafc1b19ebc373f292ca7c6d50568436256bb4aed76bfc98cba3f45873f411cbfab2ed909f3a875a88fff54a610ebbd170a762f3987c7fa2063148ae0ea6af2c9da536c49551ccdfcbf083a04762ab32c8cb81392db3789adb5618cb9b3e4b8929895577d5e3272b26d29245611e7c551f2680a22c0d5f573334ad31eea21e1d67fc852dec98cc88471f5e96a203db25a0359bdf2638a9bb0500ebf9f011a09c662ebddc55df1701f06d20dc88a73993c00adeffffc0b344661f2b0cff9ab5bd7213dcbabf9a7c76db71ee9eabea5e70d6adc8383c31c0e91fb8dc3b56ebc99f4df5efa67077653ef01a1901b39fbf98cc7f390204220e1f44d1abbfb526bff3ae5a9bc9c9f94df8ebf7b9420456849688e04d8bc73c3acd673fafb473afcb35fb1771e8da3443cff2a56fbf59dda934ae390b4961d89296629afa343c4b95ea460e0ddc97a1cb6b532f1a77329e281d28dd70f03ccbe6e983494d015ffb7c5e0f37744abaf1b99ca478626a093a91087ca54f0bb40e36a61238664baefc27f038d1ea78bfe0daca4de9bc773de1904cd7e0b6ca5f70962669d51e3ddfb9d4e8caf9da7291593753a142fa6e3b18352efc2067550afc2bce7724911202637f93db72305986a34157ed92d3644c5fe2622f29aea705e5404b140e3d1c491a80bf80a8d11c8c9500bfafb6670200de2797d34df805f5305704fe2ac1457c6893e139e03e9588211748841032c473833a5100221df632bda64f19b2926b0ebe888c13dab69d4a9341506c14013a425604f5dfa33bbaeea7a0031531bd9d083a0c8d21f57e9125be501c1bb8d5dd1131c7c16d884a26f4db932edfc4cabae6df952ebed2b1b4e45f53337de2e847a9e81a5f0553c14b0030af078f8ff4e076bd162ac4ff262acf0022d1bee84a810437878429accb844a0c134bdec7b11601c83b1dbb8d170777ad07f8151f544fc00074ed47cde00a961d9fb9711b6017d7925664867a349ea498522581c5a97a7c71cdbc155229c1af9e87ad6b357a00b27ce79d8e913dd14bb6a906e9de3186c42c8a16abfe2ba71cf56e0e683da6069ce5a5f64998fe489f0359795398c03da2fb280106647e385e3ecef45b964f984079fdfc9a66793ce2d289d1fb969823048cda19d530e206b35c8220cd0f97c402d27d058ebf36a3a6a0220"
      ],
      "sequence": 4294967294
    }
  ],
  "vout": [
    {
      "value": 1.0,
      "n": 0,
      "scriptPubKey": {
        "asm": "OP_RETURN 5428b4b3a1d3c29fb6132bfcd6f80a7d34c37989a140a1f930c24c999d6da635 8db3b0708e8f7516962eeea78013f5354c328f119f6d8fee742fea7fa9485093ad939050aeaf5536b60ece87a033d5156c12af31bf4dafce540fca5f896870b3cdf3f030cecf3556d66eaee7c053b5750c72cf51df2dcfae346faa3fe90810d3edd3d010eeef1576f64e8ec7e07395552c52ef71ff0def8e144f8a1fc92830f30d3330f00e0ff59616ae6e27009375b5ccb20f911fed0f6ef4af6aff29c8d0132d1310d02e2fd5b6368e4e0720b35595ec922fb13fcd2f4ed48f4adf09e8f0334d7370b04e4fb5d656ee2e6740d335f58cf24fd15fad4f2eb4ef2abf698890536d5350906e6f95f676ce0e4760f315d5acd26ff17f8d6f0e94cf0a9f49a8b0738db3b0708e8f7516962eeea78013f5354c328f119f6d8fee742fea7fa9485093ad939050aeaf5536b60ece87a033d5156c12af31bf4dafce540fca5f896870b3cdf3f030cecf3556d66eaee7c053b5750c72cf51df2dcfae346faa3fe90810d3edd3d010eeef1576f64e8ec7e07395552c52ef71ff0def8e144f8a1fc92830f30d3330f00e0ff59616ae6e27009375b5ccb20f911fed0f6ef4af6aff29c8d0132d1310d02e2fd5b6368e4e0720b35595ec922fb13fcd2f4ed48f4adf09e8f0334d7370b04e4fb5d656ee2e6740d335f58cf24fd15fad4f2eb4ef2abf698890536d5350906e6f95f676ce0e4760f315d5acd26ff17f8d6f0e94cf0a9f49a8b0738db3b0708e8f7516962eeea78013f5354c328f119f6d8fee742fea7fa9485093ad939050aeaf5536b60ece87a033d5156c12af31bf4dafce540fca5f896870b3cdf3f030cecf3556d66eaee7c053b5750c72cf51df2dcfae346faa3fe90810d3edd3d010eeef1576f64e8ec7e07395552c52ef71ff0def8e144f8a1fc92830f30d3330f00e0ff59616ae6e27009375b5ccb20f911fed0f6ef4af6aff29c8d0132d1310d02e2fd5b6368e4e0720b35595ec922fb13fcd2f4ed48f4adf09e8f0334d7370b04e4fb5d656ee2e6740d335f58cf24fd15fad4f2eb4ef2abf698890536d5350906e6f95f676ce0e4760f315d5acd26ff17f8d6f0e94cf0a9f49a8b0738db3b0708e8f7516962eeea78013f5354c328f119f6d8fee742fea7fa9485093ad939050aeaf5536b60ece87a033d5156c12af31bf4dafce540fca5f896870b3cdf3f030cecf3556d66eaee7c053b5750c72cf51df2dcfae346faa3fe90810d3edd3d010eeef1576f64e8ec7e07395552c52ef71ff0def8e144f8a1fc92830f30d3330f00e0ff59616ae6e27009375b5ccb20f911fed0f6ef4af6aff29c8d0132d1310d02e2fd5b6368e4e0720b35595ec922fb13fcd2f4ed48f4adf09e8f0334d7370b04e4fb5d656ee2e6740d335f58cf24fd15fad4f2eb4ef2abf698890536d5350906e6f95f676ce0e4760f315d5acd26ff17f8d6f0e94cf0a9f49a8b0738db3b0708e8f7516962eeea78013f5354c328f119f6d8fee742fea7fa9485093ad939050aeaf5536b60ece87a033d5156c12af31bf4dafce540fca5f896870b3cdf3f030cecf3556d66eaee7c053b5750c72cf51df2dcfae346faa3fe90810d3edd3d010eeef1576f64e8ec7e07395552c52ef71ff0def8e144f8a1fc92830f30d3330f00e0ff59616ae6e27009375b5d8a3a3607415b450139aed99585a44bfd2350af7b9cc95b20562646b8a8c5149",
        "hex": "6a205428b4b3a1d3c29fb6132bfcd6f80a7d34c37989a140a1f930c24c999d6da6354db0048db3b0708e8f7516962eeea78013f5354c328f119f6d8fee742fea7fa9485093ad939050aeaf5536b60ece87a033d5156c12af31bf4dafce540fca5f896870b3cdf3f030cecf3556d66eaee7c053b5750c72cf51df2dcfae346faa3fe90810d3edd3d010eeef1576f64e8ec7e07395552c52ef71ff0def8e144f8a1fc92830f30d3330f00e0ff59616ae6e27009375b5ccb20f911fed0f6ef4af6aff29c8d0132d1310d02e2fd5b6368e4e0720b35595ec922fb13fcd2f4ed48f4adf09e8f0334d7370b04e4fb5d656ee2e6740d335f58cf24fd15fad4f2eb4ef2abf698890536d5350906e6f95f676ce0e4760f315d5acd26ff17f8d6f0e94cf0a9f49a8b0738db3b0708e8f7516962eeea78013f5354c328f119f6d8fee742fea7fa9485093ad939050aeaf5536b60ece87a033d5156c12af31bf4dafce540fca5f896870b3cdf3f030cecf3556d66eaee7c053b5750c72cf51df2dcfae346faa3fe90810d3edd3d010eeef1576f64e8ec7e07395552c52ef71ff0def8e144f8a1fc92830f30d3330f00e0ff59616ae6e27009375b5ccb20f911fed0f6ef4af6aff29c8d0132d1310d02e2fd5b6368e4e0720b35595ec922fb13fcd2f4ed48f4adf09e8f0334d7370b04e4fb5d656ee2e6740d335f58cf24fd15fad4f2eb4ef2abf698890536d5350906e6f95f676ce0e4760f315d5acd26ff17f8d6f0e94cf0a9f49a8b0738db3b0708e8f7516962eeea78013f5354c328f119f6d8fee742fea7fa9485093ad939050aeaf5536b60ece87a033d5156c12af31bf4dafce540fca5f896870b3cdf3f030cecf3556d66eaee7c053b5750c72cf51df2dcfae346faa3fe90810d3edd3d010eeef1576f64e8ec7e07395552c52ef71ff0def8e144f8a1fc92830f30d3330f00e0ff59616ae6e27009375b5ccb20f911fed0f6ef4af6aff29c8d0132d1310d02e2fd5b6368e4e0720b35595ec922fb13fcd2f4ed48f4adf09e8f0334d7370b04e4fb5d656ee2e6740d335f58cf24fd15fad4f2eb4ef2abf698890536d5350906e6f95f676ce0e4760f315d5acd26ff17f8d6f0e94cf0a9f49a8b0738db3b0708e8f7516962eeea78013f5354c328f119f6d8fee742fea7fa9485093ad939050aeaf5536b60ece87a033d5156c12af31bf4dafce540fca5f896870b3cdf3f030cecf3556d66eaee7c053b5750c72cf51df2dcfae346faa3fe90810d3edd3d010eeef1576f64e8ec7e07395552c52ef71ff0def8e144f8a1fc92830f30d3330f00e0ff59616ae6e27009375b5ccb20f911fed0f6ef4af6aff29c8d0132d1310d02e2fd5b6368e4e0720b35595ec922fb13fcd2f4ed48f4adf09e8f0334d7370b04e4fb5d656ee2e6740d335f58cf24fd15fad4f2eb4ef2abf698890536d5350906e6f95f676ce0e4760f315d5acd26ff17f8d6f0e94cf0a9f49a8b0738db3b0708e8f7516962eeea78013f5354c328f119f6d8fee742fea7fa9485093ad939050aeaf5536b60ece87a033d5156c12af31bf4dafce540fca5f896870b3cdf3f030cecf3556d66eaee7c053b5750c72cf51df2dcfae346faa3fe90810d3edd3d010eeef1576f64e8ec7e07395552c52ef71ff0def8e144f8a1fc92830f30d3330f00e0ff59616ae6e27009375b5d8a3a3607415b450139aed99585a44bfd2350af7b9cc95b20562646b8a8c5149",
        "type": "nulldata"
      }
    },
    {
      "value": 499964.4085,
      "n": 1,
      "scriptPubKey": {
        "asm": "1 7bc503cce50114dadcb64105a1f5cd5588594b0ea38394b6df173859a56dc6b6",
        "hex": "51207bc503cce50114dadcb64105a1f5cd5588594b0ea38394b6df173859a56dc6b6",
        "reqSigs": 1,
        "type": "witness_v1_scripthash",
        "addresses": [
          "3QJmnh"
        ]
      }
    }
  ],
  "blockhash": "e83fb8d8eae63b54f6b1b3d1fbcbee555d4e910f42cfd1b5d97cc48d92172bc4",
  "confirmations": 1,
  "time": 1764182633,
  "blocktime": 1764182633
}