{
  "hex": "01000000000101955bfaf06f51d15f119623c7270774b857dd14c7abbdb5b64b9917811acdb3930100000000feffffff0210cdd4fc782d0000225120f5c261c06d42ff968faa1aafb9b25eabe57a02da0f177311b1b245ccf6774d2d00e1f50500000000fdd5046a205e2a2f00ee421c184bdc170faf96de76716c0fbe440df35e6a985f1b401939ca4db004d4896c9ca6bb2c44d5786730da822970cbe23c73e9b63149f7b24ce0a51b027df4a94cbc869b0c64f5584710faa20950ebc21c53c9961169d7926cc0853b225d94c92cdce6fb6c04953827709ac269308ba27c33a9f67109b7f20ca0e55b423db4e90cfcc6db4c24b5180750bae24910ab825c1389d6512997d22c80c57b621d5409ec1c263bacc455f8e7b05a02a9f04b62bcf36936b1c97732cc60259b82fd7429cc3c061b8ce475d8c7907a2289d06b429cd3491691e95712ec4005bba2dd1449ac5c667bec8415b8a7f01a42e9b00b22fcb32976f18937728c2065dbc2bd34698c7c465bcca4359887d03a62c9902b02dc930956d1a91752ac0045fbe29dd4896c9ca6bb2c44d5786730da822970cbe23c73e9b63149f7b24ce0a51b027df4a94cbc869b0c64f5584710faa20950ebc21c53c9961169d7926cc0853b225d94c92cdce6fb6c04953827709ac269308ba27c33a9f67109b7f20ca0e55b423db4e90cfcc6db4c24b5180750bae24910ab825c1389d6512997d22c80c57b621d5409ec1c263bacc455f8e7b05a02a9f04b62bcf36936b1c97732cc60259b82fd7429cc3c061b8ce475d8c7907a2289d06b429cd3491691e95712ec4005bba2dd1449ac5c667bec8415b8a7f01a42e9b00b22fcb32976f18937728c2065dbc2bd34698c7c465bcca4359887d03a62c9902b02dc930956d1a91752ac0045fbe29dd4896c9ca6bb2c44d5786730da822970cbe23c73e9b63149f7b24ce0a51b027df4a94cbc869b0c64f5584710faa20950ebc21c53c9961169d7926cc0853b225d94c92cdce6fb6c04953827709ac269308ba27c33a9f67109b7f20ca0e55b423db4e90cfcc6db4c24b5180750bae24910ab825c1389d6512997d22c80c57b621d5409ec1c263bacc455f8e7b05a02a9f04b62bcf36936b1c97732cc60259b82fd7429cc3c061b8ce475d8c7907a2289d06b429cd3491691e95712ec4005bba2dd1449ac5c667bec8415b8a7f01a42e9b00b22fcb32976f18937728c2065dbc2bd34698c7c465bcca4359887d03a62c9902b02dc930956d1a91752ac0045fbe29dd4896c9ca6bb2c44d5786730da822970cbe23c73e9b63149f7b24ce0a51b027df4a94cbc869b0c64f5584710faa20950ebc21c53c9961169d7926cc0853b225d94c92cdce6fb6c04953827709ac269308ba27c33a9f67109b7f20ca0e55b423db4e90cfcc6db4c24b5180750bae24910ab825c1389d6512997d22c80c57b621d5409ec1c263bacc455f8e7b05a02a9f04b62bcf36936b1c97732cc60259b82fd7429cc3c061b8ce475d8c7907a2289d06b429cd3491691e95712ec4005bba2dd1449ac5c667bec8415b8a7f01a42e9b00b22fcb32976f18937728c2065dbc2bd34698c7c465bcca4359887d03a62c9902b02dc930956d1a91752ac0045fbe29dd4896c9ca6bb2c44d5786730da822970cbe23c73e9b63149f7b24ce0a51b027df4a94cbc869b0c64f5584710faa20950ebc21c53c9961169d7926cc0853b225d94c92cdce6fb6c04953827709ac269308ba27c33a9f67109b7f20ca0e55b423db4e90cfcc6db4c24b5180750bae24910ab825c1389d6512997d22c80c57b621d5409ec1c263bacc455f8e7b05a02a9f01c77d32f000dd6e2709e396c9f570892b50d7d5bc572faa94e25e9fd5408be9102fd75090a6182727b2bb5a7b9975bc1f070b5120a9ca86ecf8da5bd5fdd5b08d5db500fa480ef78d0c5f7345899a2974d47acf85a9a79d7767d801a406b20cb0a6f5fb21997935da0a08b9cfd65054a87aa33d0a7cfc330ec880f1996edd6ce1f74fd19a3ff338bd58b85b2dd979f307fea26ca252501ad4e3cc46e4b539728e005be163925f232f07d3107131b703ba17cca662539109d845ca65074082bd6cebd147b3dc8e5d4f4a464675000db07cd37188588ff80e51a49d5fc08dc59cb3f24efce38c7a0753afaef0c71dfaf516ecf85146a887ac71dae7b88f946767899d6f1ad266ce8f02764003ff4f3cf2d0161606ff204b6e7b2e85bbdadcff38a3dc3850b258ff19138b48da58fb27432fa02a043eafb40a10538c2e9483a3747050187dfba5196436da1d1daa1160bc3428601a8826fad1a4a0db7f0c863e88aaed0a886445b30d83d0b1f3c8f2ea603ba849e52c3c0da2156731e07e4f1a43607d0bbe3d3eb06f7a60c266432215344ca7cd56f63bc8a471726cf0414d0afe87784581afcd370aab8b879dda61edddb594be958e11c212eeffffbf4919fc5c46f921b88d187fca6e17da5f65bd0745a0a7a6e40c28990b86cbf5c771cb9de5301c78a4fd1ee5fc50ef885d2187156a836c7300216eff15864097a59d012bcff4e3ed9fd5272998a72841b647c010b407ba45fafcd2935c5700e6936421cd8ed617ad9ed18c7ddccfe91ddd9ece58e13f14a18d73c47fb51a630b49d02fb1b27ff74a32a5d0d7d0c3f42235b1dbe47710195be929fb56d2eed5961d397ff9f4d379895e3acc528f645ea29bcc4348bde91a5b3331e9cab37c25bd2843efc753247d35d5fc76b73d4aae06f756d6a624fcb0471478b95ddf98f7fa0dfa11bdd36616eaf07bac096805ec9a209d2789f127cc26b21dc36cc192361eda6301e7cf3d4cf942c93ca0f6ab5331aa2efd422efd2ebe051d89914132a8292629659417db9a279f4fe4008a3658453ee9d378246d851ff0493d98b818e323cc977143bbca9cf96395adedb6e36b398772858e0d8be1ea42ab7d4bb5b6aac16e089a1f96e5dabbb48d28cc0b9dec1eaa3798c9126b71f1769abb5af21c2901e93ae3d8779035928a658e94320681dcc4ae045e071d645055938a3cde83df3764cfda332ac1c07b0934d72565c8287dfe9f56e1913d33ac778e31875b8e7f79ff25fcc6f85c6aeb80f2239362a0ee03be5029e51f8108d163c6c716d821e42fc7414518027a24f1880f8ef5cf159ce9afcd9f99ddefb119f9df78ddb42ac4243a51c44a5ff247688f7c3f247da528a059febe0ebff9c6ab4f0cfee2aafa1b3360ec9158d4e500f15a064d9cb5e69624eb0984e926eacdf094ed657acbe9d468aa90aad3ce1e1941b496aca9736f34bbdac9feacb6ed06d23018343aaba8fe70d06ea1d4c058a417ee42235441cbdd6a32e76668c6e30d55d7d5c2b59cf0c1aef73ef1feef5309cd9b5ebbab738650ded40d48b45dfff242d2cb7359c134fa1551217d5e171596a025b1d818ce179450c343ab52a51c1211ce08e37e0c2ab90825f51ec46a35cf176f43b2e222773e6f09ea0b02a89018233768ea38aa2fd0f0938a245ed283e88e30f50a7aa2e8fb50bd37008457e34d2038889c8354132d4f4c7cad850ad6e085a036004e4a324f49d7ea2b2b2b0ee524eb136647ef1a64b7631d9fbf81eb252e12676577dbca2fd49776ac54d408925758b58f1aa2c9fc525e99f1644fb6dde8190f325ffc7d5e89ad7c9d583dfcd23bf544a4b1e68f08f80494e21e05d123505f114f0f4da93272c5a7cad0426245e85f55bb04ada576316c766f2e8adea1f976d5f245580994b50c1243ae8c357c2690c64489babe444f4d2419a8ebbfa443bd9d68ec43e36fccbcb72167c30da589f3ff4b9a08e6112c01c80d0d11f08d08a0cf3a402840efdfaff4482a52ec6472ee08284c00db0e25667d8639a9d451e0405785093fd8616eb9e26a957fe4d1f35ade28e98ce75d3660791e6481f6c0a45bec7717f021a66adf476c6c4e240b93c1800d17c61547a4f4459ef95c305cb5c0809b5735470cb0fc5eeeb4583eb8c12df714ce431622e61313e6af6a323f7b72a8be225e48ecb4ca963a87ced7dc174ec7496fdc963aaf9fb6b3ea5ddaaad8f23d5b8991e8675fdf62c37a325850b731d68291e458382cf990c42c1ca910231e3204ffb303a344d24bd7f9a894098e3ea59b75a1907780a966ea7d49e6df505f7bb8ca00d1c8df9d4b5372bc3bfbd5af60bb066e90ce3dce34dd4e1f50f7d3475940a2eea8911f24d77f2f11e2759dc554577056e4973e080ced54a31f9e62fc04633f578bc37f30163a5c933572c8c51ee1d1413d37aa868e123bfb46a7d8d972a69b43828656d00618964f2c986555e59ed3cda405794d7c07839fa9e99f3ad05b862b91fa15d90f24b8bef2e996acd1ff0451dd18b9854bd9b3d3eaf5edae966f26bac9b7129dbb02259f88f2309c8737641db566b2db91176e8872e7638312612fe1a6606d5205623432da7e09397563850cd6971a0d1c01a643b5aeb85a5474eccfa43c704404d1604e7cd0bdfa54a0b732e2b0c8482b4399c85b1d8ad607704e20e7b0516fec671b7a3f65cc988e4335697d28eeb336cebc1cd7ca00a696fb9cbaebee1c30e8b8c1ba03b7aad12897b9726ca39887ac8cc5e1a5b4a062af4c6d7f8288b8b317f29cb0320a1d748ecc530c026c6d3025a385bce6dcfada7a72c9c1cf265d58045f540a007f9577ee97e2e40c9efce19037fd5b76ff83c1833b6acf4f38cdc5e589f0189de13973cc99572ca420fdf91213f5974f2e136ff6ddb27c52f1dce71b3c45663033b9a83057e90a9182828d9f50a0c4b358f0896a6b52f3ed055b71bd746dff6421fd737c131e7ced924da47389cb0131c0306674524e7db1bf8a3315c8431c610adf840a02fd656b909e98477453ae06548cecc6df5c47430febb99bc0aba1e87a047a7891ce30882a0280371878052f1659acb784ec0ed5bb4345796774dfe9d137d4774c0fd57cc92da97372f3b1144a503e1ce1f8c08ffcdeeef18437dd99a04d24c8943337b291141776d48f62199dc977863e6524d0693b8d5e71be286f2e9156f70594a1a886621ec74348d85a4586471805994760745157c7fe4ee639d1fe5c17fa0bcde3790a48afab81d9727911ef592b417caf88be25fabcda818d3b281bdd2023b07991eaf135d40ce662b912b303e42d9181c937c66878158dec420c4b3b6bfd5562cf787a2582353231c71ff951228303f505c8f939ba7daf0f2f413293f5a5b6d74888b8c979eafbbceddfc040f171e6da3b3d5e3e9f6020a21233e45909da5b9d9e0e1e5e8e9ecf900000000000000000000000000000000000000000e1f2a3c01fd2105004777e6c41dcfa641f8ba3cf79a948e221d8f0d0acff584b341fb584792ad840ee35ff9ac4020a753304d17cca410ed486ecf68a086c3f82cd330a7f46d57530e50d39bce322aed986b553c51d1ed7ee04f5d121287e8527095f76a118797d8d9b9b31f5b4f2ccc544ac019cce83901d823430b96d1241f4625f746e82f1099f8851eed9934a28ab4b4702d48783109bc931c08d66e02e2ce1378b4886f07b540a1df87f567b87c8dd17fa3ab23b39726108459c10d89fcc87c465cadff690a942b131cdf1171bcce4416ef9779646d896d92a247e0f5301c0792c2170638b8c972b7ec1506af6801e19960baa4a491c7b064ffe2c2f30398ec04efeeb740c0d960c5a32d6fac7c7815614592629c73fff3c634b971d306b35680d8c88cc557fc92205f673674ebbacfed6176bdf1260cda6b4833a8529a323098f1be6042ea80bb921af78bdac944579dad09e56b8d72f23c6a7304c45d824dc4060ed3fcb55e05a37054b737ea7832b6561d65a02c24274fd791cc3c2b9887e3109cef5252ddf04676a581eee239e7fdc56f63c33d29f97727ed70d1ec114d459bf273b808bc79480e5eed01c8a67b20a7511c0d9cb6f889b993b2042d0ebf5b56c75d4e21c1ec8b5cc8605d63c394d2a1a772b948306431ba9d4d63b6e3a583510d2bc717429d9ffb8f87f44a4eba1ae228a3c0f954d451223287de4426fa58bf396bfea33f1dacea277afa20d021e810022c2204fc144b40f4bccc4b3742af3094915f68518777eb0994c1f6f602e630a26edd37d03f8b97ab360af25e18c1acd1bf492d008cb2c3f292d9e007285de3f29e6c66495da1189ea0ad2fe74b4cb8d436da202f78184ab721f71bfeb6eb427775bcaef0fd76c8fce77d8972f34ed6d09205d98975e039676a1b6253e36e29840fd4a4c89b4a9ef640ca03e89423aca8d1256c8430d8bbac78913a6f63ab528dd74a3018c2fac575fae0daaa6f24d904532798fa72d785074f4350c060981c2b0e35b776d5793a46387a3d595f46234dd03e78bd64298c8349dea3c4e8b27e4a35fc5f89f489255d544c53d6df249404bfc9e858aa4e3e1ac29b21ac2dc4ed5275e366cf6c2993dc21736da40e144a12dd0f6133d1656ac50acd0740e687166bc8e0d086cb86eec819039a4cdfccd6cc037e5001863b6a8584371216b650c9e04d34112911ee3fcadf55d1d5a206f7e246b4e441543c4949e0781af78322a5cd864f31209d01e8eafad6927bd53fbb77fa3482bc48359d61963ef53b9a1da23206dbbe6d82bd9cde5f072a017635e37399b54742a04b50bb30cc6e3d42f631f72424c2db196116501f58149f9b22febe75c88afa5c59418e8b589fa842108598e6e6b63cba7784fbbf6cf91e43f111fce55c76609168e727330e2aef63bc7c531c53f891c6ac22403005a3176ee6b75948f148575419e85f70c44242efeb3feb120b9952d7acdf8fcfd016e78a2ed590ae55e26116590a245da99169c218edf41decfc8a904bcfbd029a5f075d695e15be2aefc8776409baea28c015ec15e3001a52c8ee02919214081fb91b336de23a10c5a0c4f4f72563275387db9c1d0538b46b2cb5cd1be064ffec2eaac43247f386ac7d1e04a4e66515ee56df0c8452dfee4938bf7eecf3f979dda1260f9ef6225e300a2300ca2cadc38cc8dfc194aa0610531b33c314878b7dfad30eb07f13b667f63260fffadff109198d524c3941e52135078cb80707069978033dd31705c2c441c893376e0fb6c23f6ece8bd27312acb13f0a8ba9fc303b096f7ac07ae7a22451aa7ced4d25f9cc1e75306b6a00825144a80fd5d3d2c488a1213abc4b055663225a477b000000",
  "txid": "3c1307b5936af058d08fa0cb4c4b3f49a32227c549ca672c6e4067abdfee40b0",
  "hash": "0ade3ef03083994a3c7e808110eb01134953b456b53587c6822ccec6563efa26",
  "size": 5085,
  "vsize": 2278,
  "version": 1,
  "locktime": 123,
  "vin": [
    {
      "txid": "93b3cd1a8117994bb6b5bdabc714dd57b8740727c72396115fd1516ff0fa5b95",
      "vout": 1,
      "scriptSig": {
        "asm": "",
        "hex": ""
      },
      "txinwitness": [
        "0a6182727b2bb5a7b9975bc1f070b5120a9ca86ecf8da5bd5fdd5b08d5db500fa480ef78d0c5f7345899a2974d47acf85a9a79d7767d801a406b20cb0a6f5fb21997935da0a08b9cfd65054a87aa33d0a7cfc330ec880f1996edd6ce1f74fd19a3ff338bd58b85b2dd979f307fea26ca252501ad4e3cc46e4b539728e005be163925f232f07d3107131b703ba17cca662539109d845ca65074082bd6cebd147b3dc8e5d4f4a464675000db07cd37188588ff80e51a49d5fc08dc59cb3f24efce38c7a0753afaef0c71dfaf516ecf85146a887ac71dae7b88f946767899d6f1ad266ce8f02764003ff4f3cf2d0161606ff204b6e7b2e85bbdadcff38a3dc3850b258ff19138b48da58fb27432fa02a043eafb40a10538c2e9483a3747050187dfba5196436da1d1daa1160bc3428601a8826fad1a4a0db7f0c863e88aaed0a886445b30d83d0b1f3c8f2ea603ba849e52c3c0da2156731e07e4f1a43607d0bbe3d3eb06f7a60c266432215344ca7cd56f63bc8a471726cf0414d0afe87784581afcd370aab8b879dda61edddb594be958e11c212eeffffbf4919fc5c46f921b88d187fca6e17da5f65bd0745a0a7a6e40c28990b86cbf5c771cb9de5301c78a4fd1ee5fc50ef885d2187156a836c7300216eff15864097a59d012bcff4e3ed9fd5272998a72841b647c010b407ba45fafcd2935c5700e6936421cd8ed617ad9ed18c7ddccfe91ddd9ece58e13f14a18d73c47fb51a630b49d02fb1b27ff74a32a5d0d7d0c3f42235b1dbe47710195be929fb56d2eed5961d397ff9f4d379895e3acc528f645ea29bcc4348bde91a5b3331e9cab37c25bd2843efc753247d35d5fc76b73d4aae06f756d6a624fcb0471478b95ddf98f7fa0dfa11bdd36616eaf07bac096805ec9a209d2789f127cc26b21dc36cc192361eda6301e7cf3d4cf942c93ca0f6ab5331aa2efd422efd2ebe051d89914132a8292629659417db9a279f4fe4008a3658453ee9d378246d851ff0493d98b818e323cc977143bbca9cf96395adedb6e36b398772858e0d8be1ea42ab7d4bb5b6aac16e089a1f96e5dabbb48d28cc0b9dec1eaa3798c9126b71f1769abb5af21c2901e93ae3d8779035928a658e94320681dcc4ae045e071d645055938a3cde83df3764cfda332ac1c07b0934d72565c8287dfe9f56e1913d33ac778e31875b8e7f79ff25fcc6f85c6aeb80f2239362a0ee03be5029e51f8108d163c6c716d821e42fc7414518027a24f1880f8ef5cf159ce9afcd9f99ddefb119f9df78ddb42ac4243a51c44a5ff247688f7c3f247da528a059febe0ebff9c6ab4f0cfee2aafa1b3360ec9158d4e500f15a064d9cb5e69624eb0984e926eacdf094ed657acbe9d468aa90aad3ce1e1941b496aca9736f34bbdac9feacb6ed06d23018343aaba8fe70d06ea1d4c058a417ee42235441cbdd6a32e76668c6e30d55d7d5c2b59cf0c1aef73ef1feef5309cd9b5ebbab738650ded40d48b45dfff242d2cb7359c134fa1551217d5e171596a025b1d818ce179450c343ab52a51c1211ce08e37e0c2ab90825f51ec46a35cf176f43b2e222773e6f09ea0b02a89018233768ea38aa2fd0f0938a245ed283e88e30f50a7aa2e8fb50bd37008457e34d2038889c8354132d4f4c7cad850ad6e085a036004e4a324f49d7ea2b2b2b0ee524eb136647ef1a64b7631d9fbf81eb252e12676577dbca2fd49776ac54d408925758b58f1aa2c9fc525e99f1644fb6dde8190f325ffc7d5e89ad7c9d583dfcd23bf544a4b1e68f08f80494e21e05d123505f114f0f4da93272c5a7cad0426245e85f55bb04ada576316c766f2e8adea1f976d5f245580994b50c1243ae8c357c2690c64489babe444f4d2419a8ebbfa443bd9d68ec43e36fccbcb72167c30da589f3ff4b9a08e6112c01c80d0d11f08d08a0cf3a402840efdfaff4482a52ec6472ee08284c00db0e25667d8639a9d451e0405785093fd8616eb9e26a957fe4d1f35ade28e98ce75d3660791e6481f6c0a45bec7717f021a66adf476c6c4e240b93c1800d17c61547a4f4459ef95c305cb5c0809b5735470cb0fc5eeeb4583eb8c12df714ce431622e61313e6af6a323f7b72a8be225e48ecb4ca963a87ced7dc174ec7496fdc963aaf9fb6b3ea5ddaaad8f23d5b8991e8675fdf62c37a325850b731d68291e458382cf990c42c1ca910231e3204ffb303a344d24bd7f9a894098e3ea59b75a1907780a966ea7d49e6df505f7bb8ca00d1c8df9d4b5372bc3bfbd5af60bb066e90ce3dce34dd4e1f50f7d3475940a2eea8911f24d77f2f11e2759dc554577056e4973e080ced54a31f9e62fc04633f578bc37f30163a5c933572c8c51ee1d1413d37aa868e123bfb46a7d8d972a69b43828656d00618964f2c986555e59ed3cda405794d7c07839fa9e99f3ad05b862b91fa15d90f24b8bef2e996acd1ff0451dd18b9854bd9b3d3eaf5edae966f26bac9b7129dbb02259f88f2309c8737641db566b2db91176e8872e7638312612fe1a6606d5205623432da7e09397563850cd6971a0d1c01a643b5aeb85a5474eccfa43c704404d1604e7cd0bdfa54a0b732e2b0c8482b4399c85b1d8ad607704e20e7b0516fec671b7a3f65cc988e4335697d28eeb336cebc1cd7ca00a696fb9cbaebee1c30e8b8c1ba03b7aad12897b9726ca39887ac8cc5e1a5b4a062af4c6d7f8288b8b317f29cb0320a1d748ecc530c026c6d3025a385bce6dcfada7a72c9c1cf265d58045f540a007f9577ee97e2e40c9efce19037fd5b76ff83c1833b6acf4f38cdc5e589f0189de13973cc99572ca420fdf91213f5974f2e136ff6ddb27c52f1dce71b3c45663033b9a83057e90a9182828d9f50a0c4b358f0896a6b52f3ed055b71bd746dff6421fd737c131e7ced924da47389cb0131c0306674524e7db1bf8a3315c8431c610adf840a02fd656b909e98477453ae06548cecc6df5c47430febb99bc0aba1e87a047a7891ce30882a0280371878052f1659acb784ec0ed5bb4345796774dfe9d137d4774c0fd57cc92da97372f3b1144a503e1ce1f8c08ffcdeeef18437dd99a04d24c8943337b291141776d48f62199dc977863e6524d0693b8d5e71be286f2e9156f70594a1a886621ec74348d85a4586471805994760745157c7fe4ee639d1fe5c17fa0bcde3790a48afab81d9727911ef592b417caf88be25fabcda818d3b281bdd2023b07991eaf135d40ce662b912b303e42d9181c937c66878158dec420c4b3b6bfd5562cf787a2582353231c71ff951228303f505c8f939ba7daf0f2f413293f5a5b6d74888b8c979eafbbceddfc040f171e6da3b3d5e3e9f6020a21233e45909da5b9d9e0e1e5e8e9ecf900000000000000000000000000000000000000000e1f2a3c01",
        "004777e6c41dcfa641f8ba3cf79a948e221d8f0d0acff584b341fb584792ad840ee35ff9ac4020a753304d17cca410ed486ecf68a086c3f82cd330a7f46d57530e50d39bce322aed986b553c51d1ed7ee04f5d121287e8527095f76a118797d8d9b9b31f5b4f2ccc544ac019cce83901d823430b96d1241f4625f746e82f1099f8851eed9934a28ab4b4702d48783109bc931c08d66e02e2ce1378b4886f07b540a1df87f567b87c8dd17fa3ab23b39726108459c10d89fcc87c465cadff690a942b131cdf1171bcce4416ef9779646d896d92a247e0f5301c0792c2170638b8c972b7ec1506af6801e19960baa4a491c7b064ffe2c2f30398ec04efeeb740c0d960c5a32d6fac7c7815614592629c73fff3c634b971d306b35680d8c88cc557fc92205f673674ebbacfed6176bdf1260cda6b4833a8529a323098f1be6042ea80bb921af78bdac944579dad09e56b8d72f23c6a7304c45d824dc4060ed3fcb55e05a37054b737ea7832b6561d65a02c24274fd791cc3c2b9887e3109cef5252ddf04676a581eee239e7fdc56f63c33d29f97727ed70d1ec114d459bf273b808bc79480e5eed01c8a67b20a7511c0d9cb6f889b993b2042d0ebf5b56c75d4e21c1ec8b5cc8605d63c394d2a1a772b948306431ba9d4d63b6e3a583510d2bc717429d9ffb8f87f44a4eba1ae228a3c0f954d451223287de4426fa58bf396bfea33f1dacea277afa20d021e810022c2204fc144b40f4bccc4b3742af3094915f68518777eb0994c1f6f602e630a26edd37d03f8b97ab360af25e18c1acd1bf492d008cb2c3f292d9e007285de3f29e6c66495da1189ea0ad2fe74b4cb8d436da202f78184ab721f71bfeb6eb427775bcaef0fd76c8fce77d8972f34ed6d09205d98975e039676a1b6253e36e29840fd4a4c89b4a9ef640ca03e89423aca8d1256c8430d8bbac78913a6f63ab528dd74a3018c2fac575fae0daaa6f24d904532798fa72d785074f4350c060981c2b0e35b776d5793a46387a3d595f46234dd03e78bd64298c8349dea3c4e8b27e4a35fc5f89f489255d544c53d6df249404bfc9e858aa4e3e1ac29b21ac2dc4ed5275e366cf6c2993dc21736da40e144a12dd0f6133d1656ac50acd0740e687166bc8e0d086cb86eec819039a4cdfccd6cc037e5001863b6a8584371216b650c9e04d34112911ee3fcadf55d1d5a206f7e246b4e441543c4949e0781af78322a5cd864f31209d01e8eafad6927bd53fbb77fa3482bc48359d61963ef53b9a1da23206dbbe6d82bd9cde5f072a017635e37399b54742a04b50bb30cc6e3d42f631f72424c2db196116501f58149f9b22febe75c88afa5c59418e8b589fa842108598e6e6b63cba7784fbbf6cf91e43f111fce55c76609168e727330e2aef63bc7c531c53f891c6ac22403005a3176ee6b75948f148575419e85f70c44242efeb3feb120b9952d7acdf8fcfd016e78a2ed590ae55e26116590a245da99169c218edf41decfc8a904bcfbd029a5f075d695e15be2aefc8776409baea28c015ec15e3001a52c8ee02919214081fb91b336de23a10c5a0c4f4f72563275387db9c1d0538b46b2cb5cd1be064ffec2eaac43247f386ac7d1e04a4e66515ee56df0c8452dfee4938bf7eecf3f979dda1260f9ef6225e300a2300ca2cadc38cc8dfc194aa0610531b33c314878b7dfad30eb07f13b667f63260fffadff109198d524c3941e52135078cb80707069978033dd31705c2c441c893376e0fb6c23f6ece8bd27312acb13f0a8ba9fc303b096f7ac07ae7a22451aa7ced4d25f9cc1e75306b6a00825144a80fd5d3d2c488a1213abc4b055663225a47"
      ],
      "sequence": 4294967294
    }
  ],
  "vout": [
    {
      "value": 499976.6113,
      "n": 0,
      "scriptPubKey": {
        "asm": "1 f5c261c06d42ff968faa1aafb9b25eabe57a02da0f177311b1b245ccf6774d2d",
        "hex": "5120f5c261c06d42ff968faa1aafb9b25eabe57a02da0f177311b1b245ccf6774d2d",
        "reqSigs": 1,
        "type": "witness_v1_scripthash",
        "addresses": [
          "3QJmnh"
        ]
      }
    },
    {
      "value": 1.0,
      "n": 1,
      "scriptPubKey": {
        "asm": "OP_RETURN 5e2a2f00ee421c184bdc170faf96de76716c0fbe440df35e6a985f1b401939ca d4896c9ca6bb2c44d5786730da822970cbe23c73e9b63149f7b24ce0a51b027df4a94cbc869b0c64f5584710faa20950ebc21c53c9961169d7926cc0853b225d94c92cdce6fb6c04953827709ac269308ba27c33a9f67109b7f20ca0e55b423db4e90cfcc6db4c24b5180750bae24910ab825c1389d6512997d22c80c57b621d5409ec1c263bacc455f8e7b05a02a9f04b62bcf36936b1c97732cc60259b82fd7429cc3c061b8ce475d8c7907a2289d06b429cd3491691e95712ec4005bba2dd1449ac5c667bec8415b8a7f01a42e9b00b22fcb32976f18937728c2065dbc2bd34698c7c465bcca4359887d03a62c9902b02dc930956d1a91752ac0045fbe29dd4896c9ca6bb2c44d5786730da822970cbe23c73e9b63149f7b24ce0a51b027df4a94cbc869b0c64f5584710faa20950ebc21c53c9961169d7926cc0853b225d94c92cdce6fb6c04953827709ac269308ba27c33a9f67109b7f20ca0e55b423db4e90cfcc6db4c24b5180750bae24910ab825c1389d6512997d22c80c57b621d5409ec1c263bacc455f8e7b05a02a9f04b62bcf36936b1c97732cc60259b82fd7429cc3c061b8ce475d8c7907a2289d06b429cd3491691e95712ec4005bba2dd1449ac5c667bec8415b8a7f01a42e9b00b22fcb32976f18937728c2065dbc2bd34698c7c465bcca4359887d03a62c9902b02dc930956d1a91752ac0045fbe29dd4896c9ca6bb2c44d5786730da822970cbe23c73e9b63149f7b24ce0a51b027df4a94cbc869b0c64f5584710faa20950ebc21c53c9961169d7926cc0853b225d94c92cdce6fb6c04953827709ac269308ba27c33a9f67109b7f20ca0e55b423db4e90cfcc6db4c24b5180750bae24910ab825c1389d6512997d22c80c57b621d5409ec1c263bacc455f8e7b05a02a9f04b62bcf36936b1c97732cc60259b82fd7429cc3c061b8ce475d8c7907a2289d06b429cd3491691e95712ec4005bba2dd1449ac5c667bec8415b8a7f01a42e9b00b22fcb32976f18937728c2065dbc2bd34698c7c465bcca4359887d03a62c9902b02dc930956d1a91752ac0045fbe29dd4896c9ca6bb2c44d5786730da822970cbe23c73e9b63149f7b24ce0a51b027df4a94cbc869b0c64f5584710faa20950ebc21c53c9961169d7926cc0853b225d94c92cdce6fb6c04953827709ac269308ba27c33a9f67109b7f20ca0e55b423db4e90cfcc6db4c24b5180750bae24910ab825c1389d6512997d22c80c57b621d5409ec1c263bacc455f8e7b05a02a9f04b62bcf36936b1c97732cc60259b82fd7429cc3c061b8ce475d8c7907a2289d06b429cd3491691e95712ec4005bba2dd1449ac5c667bec8415b8a7f01a42e9b00b22fcb32976f18937728c2065dbc2bd34698c7c465bcca4359887d03a62c9902b02dc930956d1a91752ac0045fbe29dd4896c9ca6bb2c44d5786730da822970cbe23c73e9b63149f7b24ce0a51b027df4a94cbc869b0c64f5584710faa20950ebc21c53c9961169d7926cc0853b225d94c92cdce6fb6c04953827709ac269308ba27c33a9f67109b7f20ca0e55b423db4e90cfcc6db4c24b5180750bae24910ab825c1389d6512997d22c80c57b621d5409ec1c263bacc455f8e7b05a02a9f01c77d32f000dd6e2709e396c9f570892b50d7d5bc572faa94e25e9fd5408be91",
        "hex": "6a205e2a2f00ee421c184bdc170faf96de76716c0fbe440df35e6a985f1b401939ca4db004d4896c9ca6bb2c44d5786730da822970cbe23c73e9b63149f7b24ce0a51b027df4a94cbc869b0c64f5584710faa20950ebc21c53c9961169d7926cc0853b225d94c92cdce6fb6c04953827709ac269308ba27c33a9f67109b7f20ca0e55b423db4e90cfcc6db4c24b5180750bae24910ab825c1389d6512997d22c80c57b621d5409ec1c263bacc455f8e7b05a02a9f04b62bcf36936b1c97732cc60259b82fd7429cc3c061b8ce475d8c7907a2289d06b429cd3491691e95712ec4005bba2dd1449ac5c667bec8415b8a7f01a42e9b00b22fcb32976f18937728c2065dbc2bd34698c7c465bcca4359887d03a62c9902b02dc930956d1a91752ac0045fbe29dd4896c9ca6bb2c44d5786730da822970cbe23c73e9b63149f7b24ce0a51b027df4a94cbc869b0c64f5584710faa20950ebc21c53c9961169d7926cc0853b225d94c92cdce6fb6c04953827709ac269308ba27c33a9f67109b7f20ca0e55b423db4e90cfcc6db4c24b5180750bae24910ab825c1389d6512997d22c80c57b621d5409ec1c263bacc455f8e7b05a02a9f04b62bcf36936b1c97732cc60259b82fd7429cc3c061b8ce475d8c7907a2289d06b429cd3491691e95712ec4005bba2dd1449ac5c667bec8415b8a7f01a42e9b00b22fcb32976f18937728c2065dbc2bd34698c7c465bcca4359887d03a62c9902b02dc930956d1a91752ac0045fbe29dd4896c9ca6bb2c44d5786730da822970cbe23c73e9b63149f7b24ce0a51b027df4a94cbc869b0c64f5584710faa20950ebc21c53c9961169d7926cc0853b225d94c92cdce6fb6c04953827709ac269308ba27c33a9f67109b7f20ca0e55b423db4e90cfcc6db4c24b5180750bae24910ab825c1389d6512997d22c80c57b621d5409ec1c263bacc455f8e7b05a02a9f04b62bcf36936b1c97732cc60259b82fd7429cc3c061b8ce475d8c7907a2289d06b429cd3491691e95712ec4005bba2dd1449ac5c667bec8415b8a7f01a42e9b00b22fcb32976f18937728c2065dbc2bd34698c7c465bcca4359887d03a62c9902b02dc930956d1a91752ac0045fbe29dd4896c9ca6bb2c44d5786730da822970cbe23c73e9b63149f7b24ce0a51b027df4a94cbc869b0c64f5584710faa20950ebc21c53c9961169d7926cc0853b225d94c92cdce6fb6c04953827709ac269308ba27c33a9f67109b7f20ca0e55b423db4e90cfcc6db4c24b5180750bae24910ab825c1389d6512997d22c80c57b621d5409ec1c263bacc455f8e7b05a02a9f04b62bcf36936b1c97732cc60259b82fd7429cc3c061b8ce475d8c7907a2289d06b429cd3491691e95712ec4005bba2dd1449ac5c667bec8415b8a7f01a42e9b00b22fcb32976f18937728c2065dbc2bd34698c7c465bcca4359887d03a62c9902b02dc930956d1a91752ac0045fbe29dd4896c9ca6bb2c44d5786730da822970cbe23c73e9b63149f7b24ce0a51b027df4a94cbc869b0c64f5584710faa20950ebc21c53c9961169d7926cc0853b225d94c92cdce6fb6c04953827709ac269308ba27c33a9f67109b7f20ca0e55b423db4e90cfcc6db4c24b5180750bae24910ab825c1389d6512997d22c80c57b621d5409ec1c263bacc455f8e7b05a02a9f01c77d32f000dd6e2709e396c9f570892b50d7d5bc572faa94e25e9fd5408be91",
        "type": "nulldata"
      }
    }
  ],
  "blockhash": "3f7b66b34673dd56727b9b27d02dfa4f8333ff75e8b72ddccb546061f2a7d063",
  "confirmations": 1,
  "time": 1764180681,
  "blocktime": 1764180681
}