{
  "hex": "010000000001013e6d64a78ea2f95764f210d13e051df3f84f7335579ef5eba282f68d6e0a4a930000000000feffffff0200e1f50500000000fdd5046a202963f63f3a3dbbc99ed1f7246e49f2235c215c33fe0064d07e88f03404ecabc34db004a1cebc6d1cf673d4dd0a0cfcc8438d2d59043a778dc24d7d535b8ff0b1a0a19881ee9c4d3cd653f4fd2a2cdce863ad0d79241a57ade26d5d737bafd0918081b8e18efc2d5cb633949d4a4cbc8803cd6d19447a37cd820d3d131bcfb0f1e0e1d8c1aedc0d7c9613b4bd6a6c9ca823ed4d39645a17eda22d1d333bef90d1c0c1f8214e3ced9c76f3545d8a8c7c48c30dadd984baf70d42cdfdd3db0f7031202118016e1ccdbc56d3747daaac5c68e32d8df9a49ad72d62edddf3fb2f5011000138610e7caddc36b3141dcacc3c08834ded99c4fab74d028dbd939b4f3071606158412e5c8dfc1693343deaec1c28a36dcdb9e4da976d22ad9db3bb6f1051404178a1cebc6d1cf673d4dd0a0cfcc8438d2d59043a778dc24d7d535b8ff0b1a0a19881ee9c4d3cd653f4fd2a2cdce863ad0d79241a57ade26d5d737bafd0918081b8e18efc2d5cb633949d4a4cbc8803cd6d19447a37cd820d3d131bcfb0f1e0e1d8c1aedc0d7c9613b4bd6a6c9ca823ed4d39645a17eda22d1d333bef90d1c0c1f8214e3ced9c76f3545d8a8c7c48c30dadd984baf70d42cdfdd3db0f7031202118016e1ccdbc56d3747daaac5c68e32d8df9a49ad72d62edddf3fb2f5011000138610e7caddc36b3141dcacc3c08834ded99c4fab74d028dbd939b4f3071606158412e5c8dfc1693343deaec1c28a36dcdb9e4da976d22ad9db3bb6f1051404178a1cebc6d1cf673d4dd0a0cfcc8438d2d59043a778dc24d7d535b8ff0b1a0a19881ee9c4d3cd653f4fd2a2cdce863ad0d79241a57ade26d5d737bafd0918081b8e18efc2d5cb633949d4a4cbc8803cd6d19447a37cd820d3d131bcfb0f1e0e1d8c1aedc0d7c9613b4bd6a6c9ca823ed4d39645a17eda22d1d333bef90d1c0c1f8214e3ced9c76f3545d8a8c7c48c30dadd984baf70d42cdfdd3db0f7031202118016e1ccdbc56d3747daaac5c68e32d8df9a49ad72d62edddf3fb2f5011000138610e7caddc36b3141dcacc3c08834ded99c4fab74d028dbd939b4f3071606158412e5c8dfc1693343deaec1c28a36dcdb9e4da976d22ad9db3bb6f1051404178a1cebc6d1cf673d4dd0a0cfcc8438d2d59043a778dc24d7d535b8ff0b1a0a19881ee9c4d3cd653f4fd2a2cdce863ad0d79241a57ade26d5d737bafd0918081b8e18efc2d5cb633949d4a4cbc8803cd6d19447a37cd820d3d131bcfb0f1e0e1d8c1aedc0d7c9613b4bd6a6c9ca823ed4d39645a17eda22d1d333bef90d1c0c1f8214e3ced9c76f3545d8a8c7c48c30dadd984baf70d42cdfdd3db0f7031202118016e1ccdbc56d3747daaac5c68e32d8df9a49ad72d62edddf3fb2f5011000138610e7caddc36b3141dcacc3c08834ded99c4fab74d028dbd939b4f3071606158412e5c8dfc1693343deaec1c28a36dcdb9e4da976d22ad9db3bb6f1051404178a1cebc6d1cf673d4dd0a0cfcc8438d2d59043a778dc24d7d535b8ff0b1a0a19881ee9c4d3cd653f4fd2a2cdce863ad0d79241a57ade26d5d737bafd0918081b8e18efc2d5cb633949d4a4cbc8803cd6d19447a37cd820d3d131bcfb0f1e0e1d8c1aedc0d7c9613b4bd6a6c9ca823ed4d39645a17eda22d1d333bef90d1c0c1f8214e3ced9c76f3545d8a8c7c48c30dadede7827b58308e0101ff75977466d36c3e85cff654e7157b478e7d6a45ce5b4fc075fe6f792d0000225120c3873eb2425ecb941057650afe73ad1cd8dadae0d59cefe6c4516e141496635102fd7509f1443d86bb219636d3d8ba6977f7188899f3e7cea49f7325ac8ae5c57bfa3a47fe15d49e3b3bf9f93630b0f00177c2bea30624986a01eaf6373e49c0ce9e4dd51b15358d6cbb101cbb5b89566c9a5d1164d77c660b429fd81ccbd0b61d3cdbcba8395edfa61f8bec10200ea8b533c8a9f3b691b8207187951aff98277949d75949d70476428010e9a06eb20537589ee59d044f7f751cabfaa4c17aa700ead7f057a77dad57f0ce020dff2fbb59ce018263ebeab4e1b826afe348b7c4dbabfa0dd26636c1aeaf84dee95688a62a31e388accbf0f327dc200b4fe8bf7e77361fbca302ae03a7e31665ce78d35172d4219dd1966db15fe2ddebccb305351146542c0d6c1b79304cbe8bbd0507908f369f044286bf026eeb0fc0bbd053a221fef61597ad0dfbbc91568c27afa398131a56b7a398621331fa288d8eef34c17f9ab133d313f218ebc829e1141edfa830e5cc5a444be94982b4357cf230fbef00c69c07f63e421010c68b4be5171b2cb1723f65d3c8235f437b0021fa52dc1a3eade32e2c58e89ffecef0d2e0125be80cc080546262661d7700621b40ffc5176637665738941d5f93cf3c92646cb9c8cb86f8aedee2b972c4644d1ddd61dea72b83caeeb5784265710e380dacfacc94649a5f5326c6750fda116efebf3dba9c1a27730f10daed86aed68d3f19fbc3b127cbdbaf04d23b88a84339b57a48ed753a52725c2095296572af4d3f38ec48b54e3b806b58b2062bbf4493cbd4ee85f8dafb5efca66b8bfde7ff2c92fed99aef78f1cd60ffa9f565f3f4127dda10c851abe4a34ab00b4a4a96f322b757241daa23a0bfb14e924bd431fefeb5ca1bd9221d33293a25e53b228afacd2fe4260c3cc562c086aef58b3fdf7434b420940912eb599881512c3df0e477cbb71c7ed2971ba39a157129b78901efce6859d6cd4f1a7f8555ee1c379057f76100873ebfb72079d8da872e5fa625eebb6ed57ed5ef56eb4f22c516c48a1bce22604d2e7a8320c083a7ae0738a76268cae99437c6c1424dbba8fb9fc8cbf5f7326b50c2a46bf7086c9c3e5f9d8295b106d9da67a1955f07759143e4d2047b8f6ee47b4040a1701eb3c3dd60c1d7bbbb521a9ec3edd8d1634ca7dc00b23fc0749500ad18911ed6498670ab956de6b14b0ce7af74af5a7e875d50df98439f57fa6c6eaf0b2d3690a1ee4eef26ffa36409237f2faa6fe8957c64fe483edc9c1b5335d9b114683c24bd220167a71b0d6bbc78c5905b4676cb8e25ee1d7633c75d86a010c99c4bb87c69526923604c0345e6ca57a98f6e339a2b5d9b096ad0632b10e0ab28a5a8519ad10e88a7b4f6cb7a5de478d8c35dbb9981212445fe5d5b4753a6eed671ea8cceb3448e6fda8ef2c216438b3138ec4593bab4063272b9906d5c0e8c2180b3a1bdd0c003454ae002af343ae39e17240750f9ad5b89e8bb4943f9738e519844eb575b79a5257557d5ca5dc98d654e1c9559b0521bcfd81b5b06efc8c8e9c0049d5fd92f8b6dec0781e216202c3be6c8cfafe40006eabdd211244ace07e33e035ebe8d216c3e11197123816237ad442b10e5f8da69ee8230fddef2d0cb21eceb42f2dfe0750ff51fe531463c70991ca49fc080a62da0f92cb1a27c74cd63ff2671a3c43da8de4f96a63b57620785e8a4177cab1fbe9189f0cbee73dd558ed6c69f80d3fb660bb027f6bf35b0672a3668bc71d5ab0b334f4abc1d40a8381cc2f727a4dcc3fbd8bb9bbc86081fa162b9b6f96ab933b946b3e8964820a5d4b955d4b683ec183d7c21dbe39335889c8b9c919070bf58861368ec939449133e4b059c117a0e14bb068ee8fccb59dc301e9d2b113faca30cdda942cdc1e479244e55840d792033193191b935b86bcc484687081c3cc61c9cb68e9635bb62546729ec692e97c4568272efcba274520da19b0e7cb908a033ad382cc16973abfc4ecb103ade8de0d4ba25d30b6e0490224d3ad4b672c15eb7263cdd52606a2b9c0ba6c9329580f361220e0ccfb5de57573ca75bc9509ab0f7b979f2a4a9cf8295529c59c4a0b9b87857eb0ed821e97efc82126c6436ca7df9bbb59b2486d94c3a9f94dcf07d29e5004df9a6a2ffac393c1a91ede6f6600beef6a1b182525054175e6e612324540b5077b91080a1e5d4689c076fb029642bc20d224018d659f2b92b3e086a0417bd6478149e3e588b710ee2a438389bf26a686717aaba07fcd8559c5e95b0da7cb38294aa0dadeacc82853dde89f94d8d2118eefeac84d318249e130724c787484b26fb0c6bdb5b4943f887e4d05136e58961500d01c5a64aedc171e9c39cc900dd88a0c1a3058d904b2a6df00a145a699fbd1fb342baab080603bbce5cacf2801fb039bf5d3f6759cd0439d1eb84fe29bf427e8a9f5694bc4be755bfd3ef099880282f8d0c1c0b032941dd36db7daa18878c2493197b4cd98b6d25f583985c06597caff6a574918204a9e0e3457b590c9901e0b2e4eb1c9c8525060ad07ed7196d87bd75441c6c5356f09533eb34c1c6b5cde69483d3b630daa779a65bd00205e468d77ef2b30445df484292bfb22841602b8237975550a449ef2064bc1b618f1adc2a52af23c2d9bbc2ea255d9cc6c2c2750b467f951f40f73384f8cfe48b5e0f672edb27a00042c2025ec73b4b6e27f6b6ea2ed870495d9b712d40ef80409308ecf84f04ba57d06678fb7909f42284fb0485c894e953a67741ef21b45750e93cca67e83543b8a58f2b9487cc7e9ece67ab38d08c31db2d91b6909106838c905534ee5f98576a8635b4574a40a59f5e384252b39fd66fd8c7c0bd7353053b1f7479c47a986901d0cd0a2dcf0d91b1055ece2880232b2d211aa8592812a677e9756fe7004df3d57817a2a9e33a3bb577e655e3a090dfa1d6eea0a0b7aa10b1ae3c3e504f63c33c6f037c32162da75724622e040ef2cd7bb4568a414be5c22692d5ba60512695650ec18fb2f41582d826dfb1016dfb068572a73380044bb9f776cfb38c05c27cb31725b2b34f21b3d428906b28a9ef51e988bd997dafd8042a66ae8915b831dbd88d47291a1fe52b3acc7aa2cbd57431a8aa7f86fb89eb7147cf1f48c6befb0a28d0a9698ca4dc56e9dfbac96e6f8ee09e96b97f2d3da42fd29eed66135be761b8cb60a84b754d8c289a63065b5f081bb5e448a6dff7ae6b6cec5759b89dcf4bd422fc4c2bc5a6adfb705b7e903b93207d6bb9c7d5964ca75a991a9d4f51fd5919efcd9d5864b6968997a024a0d63365e35bc4ee959d09b0af469414c91cfe4f099d0f51fdabfba6bc99682d79162c334c6062788f97a4ff000d2f495261696e6f7f888cb0d3d6e1f90e1e334a51587b7f9cc4d4e3fafe021b25294d545a63647a98a2adb2c8d6dcf500000000000000000000000000000000000000000b1c2a3c01fd2105005aeb3ee38bd36fa7fa9ceaeba319ec21bdad54870336178ffb57be03dd8a4accd40d0086634e2750854c087dfa4d0d7d9ecff0cb10897e84e6badc669d0cc1f16a0920c62b5ab6c26e5f1e5a7a0c7ffdca9d398b0978aadf5f05f9993fddf00baee071eb7fbb5a7dd5bc2f9589469e1329b09a51d9f530f102871d699feaf5071b01f682b1ade3ca5b8ae5ede45c3d0ddfa55df18271e19a948b857eba479d9c1fb8d14e45bf331236098950ceb84990c00b9e37e3fed9825f7f8fe7e05daff779a691e144f35f69252c5a84ef3c52e7e0d72b2e888a9fcc863be3d9a5473fe5e5fce903dedd791bf977518df8a18abb7e61814fd564501a8191f884885733a0079d090c5a6b8b59a8d249b532c0daeb9a7fb7562fcbf0af36bb97215ac854e285deadd110e98948e07e3c083eab01a7e73629ad2e5177d92cee7c6ecd923659b84cd1dda856c9bc985c7768036838abb378d538b0d4430a42bea2e475f3ed13901ee2750d7a2854fa49f9b9efc13aed58264d0efc93dce6a7703958f41dcc8b7dcd6ae4e0b828ce589371acca90f51bdba3bf68f45595508629137216e56bcdc0fbf5bab31f0bccb86e3d2b8a4a6fa93e71c2cabc2728a0d29cfc625542817fa378773a02656487a55c0eedcf5a2a20eef3736557330cb08ecefd2f72db0f13f091b663e65c20273d523f3fecb656ad2702676f24f88cdf234ea20149d1eddef4ef0548949d3136f63f12a5df2f129373ffc8737aac87c6dece3273d284a22f8e7f5a3e85e180e892802b1d9f949a5324da41d11cb8410a010c34f25592ce591511af7d38bd9502644aefaae36fb454ffc049694d6bd57c8bd739cd5f3c12e04c948eb6346fd677f033225a6cfc9f57576c2e9fd688e4a62825fcaf690807dffa31aada1e6cc1abc945516bbab0d3e860fa80d2dee0665cd5dedf67d6a94af218d503fe09be92519b43852384ce01c3d349000c33404a0050ffcde16974bec5da11fe88c3652734254e879a87b626135c0eab2f5c0037c6cb2b1185c251626d3e48fb30d1752f03147bd32271d0ffd9f28de197dc0a9019d19f61cda8cade3b3f3b49de4a4c7e36237abb369376a9e4a91dab3357c25761b7bd0f55f9b54bf1f6ae516e0868fe45666e828ceab1b82ca1216af96f052c4166df11cffdf30a9de777929b647e74e5a225592e4bd57f93c9a58e186f7a38a164cb0b2a7e9f38c2256510fdd0b9d6b6031bcd9b5a606ca1988e83eff1a81615b33af6d5b70b1f844f26218af921c95081efd82ff5d0c445d44245400746a82d6ac885eb8d52c81f705d4d020c59ed5c7297baae84397eb4f6e75fe498cd25b97e9f137c7349da4ad68729b613396729013fe3bf84d2e876abe646678150ea55c90035cb43fbeb4849d02e6d401caaa86499a323d6e27a6c35249197a40eb05a1bd69bb0d01c5d5d42f376139cadf93ceadc204cc3aa814fe990c323bf4c6d58244d360ffa7e63494b28fc2585daab47aca5abfd7a0562572a5d3ef363fa4c6981fedaec2a20a9b2f279fd83a86ca82b4789fe8c6650d27e8f10da8b8ef75850c03121b616cd4aa1b608358c27065008fdd8a66d5dcd99d7d18add8284687c8fadb38ec1b950af3e67be2f912b4106d13c4aefcd600bb89f9086fa41e0bc7cba71333a54fa3418e0841b555532dacfe1b89ec8224f3fce666e18b0499c02a4fc88f8cbe48a06603d2496fe592ea9246d4362a40b658fc58c59cc1d6363736d6b006cd68ed368254fc55fbcdb7476a7c194089fd86cf4f4c46395a182030b8655c82e3b37e66440c48b669e7d0dd4177403b4b1f69cd9c96251839d29c5a23169684254e2bf372e4d67000000",
  "txid": "43eca074299cde8963483834997f60d4f9a105cb5485d614bec658c54c8b9399",
  "hash": "90e0fd8dd30516fdea9893d0016bd36194af7947e6ba43e9ed4d41f02ebabfed",
  "size": 5085,
  "vsize": 2278,
  "version": 1,
  "locktime": 103,
  "vin": [
    {
      "txid": "934a0a6e8df682a2ebf59e5735734ff8f31d053ed110f26457f9a28ea7646d3e",
      "vout": 0,
      "scriptSig": {
        "asm": "",
        "hex": ""
      },
      "txinwitness": [
        "f1443d86bb219636d3d8ba6977f7188899f3e7cea49f7325ac8ae5c57bfa3a47fe15d49e3b3bf9f93630b0f00177c2bea30624986a01eaf6373e49c0ce9e4dd51b15358d6cbb101cbb5b89566c9a5d1164d77c660b429fd81ccbd0b61d3cdbcba8395edfa61f8bec10200ea8b533c8a9f3b691b8207187951aff98277949d75949d70476428010e9a06eb20537589ee59d044f7f751cabfaa4c17aa700ead7f057a77dad57f0ce020dff2fbb59ce018263ebeab4e1b826afe348b7c4dbabfa0dd26636c1aeaf84dee95688a62a31e388accbf0f327dc200b4fe8bf7e77361fbca302ae03a7e31665ce78d35172d4219dd1966db15fe2ddebccb305351146542c0d6c1b79304cbe8bbd0507908f369f044286bf026eeb0fc0bbd053a221fef61597ad0dfbbc91568c27afa398131a56b7a398621331fa288d8eef34c17f9ab133d313f218ebc829e1141edfa830e5cc5a444be94982b4357cf230fbef00c69c07f63e421010c68b4be5171b2cb1723f65d3c8235f437b0021fa52dc1a3eade32e2c58e89ffecef0d2e0125be80cc080546262661d7700621b40ffc5176637665738941d5f93cf3c92646cb9c8cb86f8aedee2b972c4644d1ddd61dea72b83caeeb5784265710e380dacfacc94649a5f5326c6750fda116efebf3dba9c1a27730f10daed86aed68d3f19fbc3b127cbdbaf04d23b88a84339b57a48ed753a52725c2095296572af4d3f38ec48b54e3b806b58b2062bbf4493cbd4ee85f8dafb5efca66b8bfde7ff2c92fed99aef78f1cd60ffa9f565f3f4127dda10c851abe4a34ab00b4a4a96f322b757241daa23a0bfb14e924bd431fefeb5ca1bd9221d33293a25e53b228afacd2fe4260c3cc562c086aef58b3fdf7434b420940912eb599881512c3df0e477cbb71c7ed2971ba39a157129b78901efce6859d6cd4f1a7f8555ee1c379057f76100873ebfb72079d8da872e5fa625eebb6ed57ed5ef56eb4f22c516c48a1bce22604d2e7a8320c083a7ae0738a76268cae99437c6c1424dbba8fb9fc8cbf5f7326b50c2a46bf7086c9c3e5f9d8295b106d9da67a1955f07759143e4d2047b8f6ee47b4040a1701eb3c3dd60c1d7bbbb521a9ec3edd8d1634ca7dc00b23fc0749500ad18911ed6498670ab956de6b14b0ce7af74af5a7e875d50df98439f57fa6c6eaf0b2d3690a1ee4eef26ffa36409237f2faa6fe8957c64fe483edc9c1b5335d9b114683c24bd220167a71b0d6bbc78c5905b4676cb8e25ee1d7633c75d86a010c99c4bb87c69526923604c0345e6ca57a98f6e339a2b5d9b096ad0632b10e0ab28a5a8519ad10e88a7b4f6cb7a5de478d8c35dbb9981212445fe5d5b4753a6eed671ea8cceb3448e6fda8ef2c216438b3138ec4593bab4063272b9906d5c0e8c2180b3a1bdd0c003454ae002af343ae39e17240750f9ad5b89e8bb4943f9738e519844eb575b79a5257557d5ca5dc98d654e1c9559b0521bcfd81b5b06efc8c8e9c0049d5fd92f8b6dec0781e216202c3be6c8cfafe40006eabdd211244ace07e33e035ebe8d216c3e11197123816237ad442b10e5f8da69ee8230fddef2d0cb21eceb42f2dfe0750ff51fe531463c70991ca49fc080a62da0f92cb1a27c74cd63ff2671a3c43da8de4f96a63b57620785e8a4177cab1fbe9189f0cbee73dd558ed6c69f80d3fb660bb027f6bf35b0672a3668bc71d5ab0b334f4abc1d40a8381cc2f727a4dcc3fbd8bb9bbc86081fa162b9b6f96ab933b946b3e8964820a5d4b955d4b683ec183d7c21dbe39335889c8b9c919070bf58861368ec939449133e4b059c117a0e14bb068ee8fccb59dc301e9d2b113faca30cdda942cdc1e479244e55840d792033193191b935b86bcc484687081c3cc61c9cb68e9635bb62546729ec692e97c4568272efcba274520da19b0e7cb908a033ad382cc16973abfc4ecb103ade8de0d4ba25d30b6e0490224d3ad4b672c15eb7263cdd52606a2b9c0ba6c9329580f361220e0ccfb5de57573ca75bc9509ab0f7b979f2a4a9cf8295529c59c4a0b9b87857eb0ed821e97efc82126c6436ca7df9bbb59b2486d94c3a9f94dcf07d29e5004df9a6a2ffac393c1a91ede6f6600beef6a1b182525054175e6e612324540b5077b91080a1e5d4689c076fb029642bc20d224018d659f2b92b3e086a0417bd6478149e3e588b710ee2a438389bf26a686717aaba07fcd8559c5e95b0da7cb38294aa0dadeacc82853dde89f94d8d2118eefeac84d318249e130724c787484b26fb0c6bdb5b4943f887e4d05136e58961500d01c5a64aedc171e9c39cc900dd88a0c1a3058d904b2a6df00a145a699fbd1fb342baab080603bbce5cacf2801fb039bf5d3f6759cd0439d1eb84fe29bf427e8a9f5694bc4be755bfd3ef099880282f8d0c1c0b032941dd36db7daa18878c2493197b4cd98b6d25f583985c06597caff6a574918204a9e0e3457b590c9901e0b2e4eb1c9c8525060ad07ed7196d87bd75441c6c5356f09533eb34c1c6b5cde69483d3b630daa779a65bd00205e468d77ef2b30445df484292bfb22841602b8237975550a449ef2064bc1b618f1adc2a52af23c2d9bbc2ea255d9cc6c2c2750b467f951f40f73384f8cfe48b5e0f672edb27a00042c2025ec73b4b6e27f6b6ea2ed870495d9b712d40ef80409308ecf84f04ba57d06678fb7909f42284fb0485c894e953a67741ef21b45750e93cca67e83543b8a58f2b9487cc7e9ece67ab38d08c31db2d91b6909106838c905534ee5f98576a8635b4574a40a59f5e384252b39fd66fd8c7c0bd7353053b1f7479c47a986901d0cd0a2dcf0d91b1055ece2880232b2d211aa8592812a677e9756fe7004df3d57817a2a9e33a3bb577e655e3a090dfa1d6eea0a0b7aa10b1ae3c3e504f63c33c6f037c32162da75724622e040ef2cd7bb4568a414be5c22692d5ba60512695650ec18fb2f41582d826dfb1016dfb068572a73380044bb9f776cfb38c05c27cb31725b2b34f21b3d428906b28a9ef51e988bd997dafd8042a66ae8915b831dbd88d47291a1fe52b3acc7aa2cbd57431a8aa7f86fb89eb7147cf1f48c6befb0a28d0a9698ca4dc56e9dfbac96e6f8ee09e96b97f2d3da42fd29eed66135be761b8cb60a84b754d8c289a63065b5f081bb5e448a6dff7ae6b6cec5759b89dcf4bd422fc4c2bc5a6adfb705b7e903b93207d6bb9c7d5964ca75a991a9d4f51fd5919efcd9d5864b6968997a024a0d63365e35bc4ee959d09b0af469414c91cfe4f099d0f51fdabfba6bc99682d79162c334c6062788f97a4ff000d2f495261696e6f7f888cb0d3d6e1f90e1e334a51587b7f9cc4d4e3fafe021b25294d545a63647a98a2adb2c8d6dcf500000000000000000000000000000000000000000b1c2a3c01",
        "005aeb3ee38bd36fa7fa9ceaeba319ec21bdad54870336178ffb57be03dd8a4accd40d0086634e2750854c087dfa4d0d7d9ecff0cb10897e84e6badc669d0cc1f16a0920c62b5ab6c26e5f1e5a7a0c7ffdca9d398b0978aadf5f05f9993fddf00baee071eb7fbb5a7dd5bc2f9589469e1329b09a51d9f530f102871d699feaf5071b01f682b1ade3ca5b8ae5ede45c3d0ddfa55df18271e19a948b857eba479d9c1fb8d14e45bf331236098950ceb84990c00b9e37e3fed9825f7f8fe7e05daff779a691e144f35f69252c5a84ef3c52e7e0d72b2e888a9fcc863be3d9a5473fe5e5fce903dedd791bf977518df8a18abb7e61814fd564501a8191f884885733a0079d090c5a6b8b59a8d249b532c0daeb9a7fb7562fcbf0af36bb97215ac854e285deadd110e98948e07e3c083eab01a7e73629ad2e5177d92cee7c6ecd923659b84cd1dda856c9bc985c7768036838abb378d538b0d4430a42bea2e475f3ed13901ee2750d7a2854fa49f9b9efc13aed58264d0efc93dce6a7703958f41dcc8b7dcd6ae4e0b828ce589371acca90f51bdba3bf68f45595508629137216e56bcdc0fbf5bab31f0bccb86e3d2b8a4a6fa93e71c2cabc2728a0d29cfc625542817fa378773a02656487a55c0eedcf5a2a20eef3736557330cb08ecefd2f72db0f13f091b663e65c20273d523f3fecb656ad2702676f24f88cdf234ea20149d1eddef4ef0548949d3136f63f12a5df2f129373ffc8737aac87c6dece3273d284a22f8e7f5a3e85e180e892802b1d9f949a5324da41d11cb8410a010c34f25592ce591511af7d38bd9502644aefaae36fb454ffc049694d6bd57c8bd739cd5f3c12e04c948eb6346fd677f033225a6cfc9f57576c2e9fd688e4a62825fcaf690807dffa31aada1e6cc1abc945516bbab0d3e860fa80d2dee0665cd5dedf67d6a94af218d503fe09be92519b43852384ce01c3d349000c33404a0050ffcde16974bec5da11fe88c3652734254e879a87b626135c0eab2f5c0037c6cb2b1185c251626d3e48fb30d1752f03147bd32271d0ffd9f28de197dc0a9019d19f61cda8cade3b3f3b49de4a4c7e36237abb369376a9e4a91dab3357c25761b7bd0f55f9b54bf1f6ae516e0868fe45666e828ceab1b82ca1216af96f052c4166df11cffdf30a9de777929b647e74e5a225592e4bd57f93c9a58e186f7a38a164cb0b2a7e9f38c2256510fdd0b9d6b6031bcd9b5a606ca1988e83eff1a81615b33af6d5b70b1f844f26218af921c95081efd82ff5d0c445d44245400746a82d6ac885eb8d52c81f705d4d020c59ed5c7297baae84397eb4f6e75fe498cd25b97e9f137c7349da4ad68729b613396729013fe3bf84d2e876abe646678150ea55c90035cb43fbeb4849d02e6d401caaa86499a323d6e27a6c35249197a40eb05a1bd69bb0d01c5d5d42f376139cadf93ceadc204cc3aa814fe990c323bf4c6d58244d360ffa7e63494b28fc2585daab47aca5abfd7a0562572a5d3ef363fa4c6981fedaec2a20a9b2f279fd83a86ca82b4789fe8c6650d27e8f10da8b8ef75850c03121b616cd4aa1b608358c27065008fdd8a66d5dcd99d7d18add8284687c8fadb38ec1b950af3e67be2f912b4106d13c4aefcd600bb89f9086fa41e0bc7cba71333a54fa3418e0841b555532dacfe1b89ec8224f3fce666e18b0499c02a4fc88f8cbe48a06603d2496fe592ea9246d4362a40b658fc58c59cc1d6363736d6b006cd68ed368254fc55fbcdb7476a7c194089fd86cf4f4c46395a182030b8655c82e3b37e66440c48b669e7d0dd4177403b4b1f69cd9c96251839d29c5a23169684254e2bf372e4d"
      ],
      "sequence": 4294967294
    }
  ],
  "vout": [
    {
      "value": 1.0,
      "n": 0,
      "scriptPubKey": {
        "asm": "OP_RETURN 2963f63f3a3dbbc99ed1f7246e49f2235c215c33fe0064d07e88f03404ecabc3 a1cebc6d1cf673d4dd0a0cfcc8438d2d59043a778dc24d7d535b8ff0b1a0a19881ee9c4d3cd653f4fd2a2cdce863ad0d79241a57ade26d5d737bafd0918081b8e18efc2d5cb633949d4a4cbc8803cd6d19447a37cd820d3d131bcfb0f1e0e1d8c1aedc0d7c9613b4bd6a6c9ca823ed4d39645a17eda22d1d333bef90d1c0c1f8214e3ced9c76f3545d8a8c7c48c30dadd984baf70d42cdfdd3db0f7031202118016e1ccdbc56d3747daaac5c68e32d8df9a49ad72d62edddf3fb2f5011000138610e7caddc36b3141dcacc3c08834ded99c4fab74d028dbd939b4f3071606158412e5c8dfc1693343deaec1c28a36dcdb9e4da976d22ad9db3bb6f1051404178a1cebc6d1cf673d4dd0a0cfcc8438d2d59043a778dc24d7d535b8ff0b1a0a19881ee9c4d3cd653f4fd2a2cdce863ad0d79241a57ade26d5d737bafd0918081b8e18efc2d5cb633949d4a4cbc8803cd6d19447a37cd820d3d131bcfb0f1e0e1d8c1aedc0d7c9613b4bd6a6c9ca823ed4d39645a17eda22d1d333bef90d1c0c1f8214e3ced9c76f3545d8a8c7c48c30dadd984baf70d42cdfdd3db0f7031202118016e1ccdbc56d3747daaac5c68e32d8df9a49ad72d62edddf3fb2f5011000138610e7caddc36b3141dcacc3c08834ded99c4fab74d028dbd939b4f3071606158412e5c8dfc1693343deaec1c28a36dcdb9e4da976d22ad9db3bb6f1051404178a1cebc6d1cf673d4dd0a0cfcc8438d2d59043a778dc24d7d535b8ff0b1a0a19881ee9c4d3cd653f4fd2a2cdce863ad0d79241a57ade26d5d737bafd0918081b8e18efc2d5cb633949d4a4cbc8803cd6d19447a37cd820d3d131bcfb0f1e0e1d8c1aedc0d7c9613b4bd6a6c9ca823ed4d39645a17eda22d1d333bef90d1c0c1f8214e3ced9c76f3545d8a8c7c48c30dadd984baf70d42cdfdd3db0f7031202118016e1ccdbc56d3747daaac5c68e32d8df9a49ad72d62edddf3fb2f5011000138610e7caddc36b3141dcacc3c08834ded99c4fab74d028dbd939b4f3071606158412e5c8dfc1693343deaec1c28a36dcdb9e4da976d22ad9db3bb6f1051404178a1cebc6d1cf673d4dd0a0cfcc8438d2d59043a778dc24d7d535b8ff0b1a0a19881ee9c4d3cd653f4fd2a2cdce863ad0d79241a57ade26d5d737bafd0918081b8e18efc2d5cb633949d4a4cbc8803cd6d19447a37cd820d3d131bcfb0f1e0e1d8c1aedc0d7c9613b4bd6a6c9ca823ed4d39645a17eda22d1d333bef90d1c0c1f8214e3ced9c76f3545d8a8c7c48c30dadd984baf70d42cdfdd3db0f7031202118016e1ccdbc56d3747daaac5c68e32d8df9a49ad72d62edddf3fb2f5011000138610e7caddc36b3141dcacc3c08834ded99c4fab74d028dbd939b4f3071606158412e5c8dfc1693343deaec1c28a36dcdb9e4da976d22ad9db3bb6f1051404178a1cebc6d1cf673d4dd0a0cfcc8438d2d59043a778dc24d7d535b8ff0b1a0a19881ee9c4d3cd653f4fd2a2cdce863ad0d79241a57ade26d5d737bafd0918081b8e18efc2d5cb633949d4a4cbc8803cd6d19447a37cd820d3d131bcfb0f1e0e1d8c1aedc0d7c9613b4bd6a6c9ca823ed4d39645a17eda22d1d333bef90d1c0c1f8214e3ced9c76f3545d8a8c7c48c30dadede7827b58308e0101ff75977466d36c3e85cff654e7157b478e7d6a45ce5b4f",
        "hex": "6a202963f63f3a3dbbc99ed1f7246e49f2235c215c33fe0064d07e88f03404ecabc34db004a1cebc6d1cf673d4dd0a0cfcc8438d2d59043a778dc24d7d535b8ff0b1a0a19881ee9c4d3cd653f4fd2a2cdce863ad0d79241a57ade26d5d737bafd0918081b8e18efc2d5cb633949d4a4cbc8803cd6d19447a37cd820d3d131bcfb0f1e0e1d8c1aedc0d7c9613b4bd6a6c9ca823ed4d39645a17eda22d1d333bef90d1c0c1f8214e3ced9c76f3545d8a8c7c48c30dadd984baf70d42cdfdd3db0f7031202118016e1ccdbc56d3747daaac5c68e32d8df9a49ad72d62edddf3fb2f5011000138610e7caddc36b3141dcacc3c08834ded99c4fab74d028dbd939b4f3071606158412e5c8dfc1693343deaec1c28a36dcdb9e4da976d22ad9db3bb6f1051404178a1cebc6d1cf673d4dd0a0cfcc8438d2d59043a778dc24d7d535b8ff0b1a0a19881ee9c4d3cd653f4fd2a2cdce863ad0d79241a57ade26d5d737bafd0918081b8e18efc2d5cb633949d4a4cbc8803cd6d19447a37cd820d3d131bcfb0f1e0e1d8c1aedc0d7c9613b4bd6a6c9ca823ed4d39645a17eda22d1d333bef90d1c0c1f8214e3ced9c76f3545d8a8c7c48c30dadd984baf70d42cdfdd3db0f7031202118016e1ccdbc56d3747daaac5c68e32d8df9a49ad72d62edddf3fb2f5011000138610e7caddc36b3141dcacc3c08834ded99c4fab74d028dbd939b4f3071606158412e5c8dfc1693343deaec1c28a36dcdb9e4da976d22ad9db3bb6f1051404178a1cebc6d1cf673d4dd0a0cfcc8438d2d59043a778dc24d7d535b8ff0b1a0a19881ee9c4d3cd653f4fd2a2cdce863ad0d79241a57ade26d5d737bafd0918081b8e18efc2d5cb633949d4a4cbc8803cd6d19447a37cd820d3d131bcfb0f1e0e1d8c1aedc0d7c9613b4bd6a6c9ca823ed4d39645a17eda22d1d333bef90d1c0c1f8214e3ced9c76f3545d8a8c7c48c30dadd984baf70d42cdfdd3db0f7031202118016e1ccdbc56d3747daaac5c68e32d8df9a49ad72d62edddf3fb2f5011000138610e7caddc36b3141dcacc3c08834ded99c4fab74d028dbd939b4f3071606158412e5c8dfc1693343deaec1c28a36dcdb9e4da976d22ad9db3bb6f1051404178a1cebc6d1cf673d4dd0a0cfcc8438d2d59043a778dc24d7d535b8ff0b1a0a19881ee9c4d3cd653f4fd2a2cdce863ad0d79241a57ade26d5d737bafd0918081b8e18efc2d5cb633949d4a4cbc8803cd6d19447a37cd820d3d131bcfb0f1e0e1d8c1aedc0d7c9613b4bd6a6c9ca823ed4d39645a17eda22d1d333bef90d1c0c1f8214e3ced9c76f3545d8a8c7c48c30dadd984baf70d42cdfdd3db0f7031202118016e1ccdbc56d3747daaac5c68e32d8df9a49ad72d62edddf3fb2f5011000138610e7caddc36b3141dcacc3c08834ded99c4fab74d028dbd939b4f3071606158412e5c8dfc1693343deaec1c28a36dcdb9e4da976d22ad9db3bb6f1051404178a1cebc6d1cf673d4dd0a0cfcc8438d2d59043a778dc24d7d535b8ff0b1a0a19881ee9c4d3cd653f4fd2a2cdce863ad0d79241a57ade26d5d737bafd0918081b8e18efc2d5cb633949d4a4cbc8803cd6d19447a37cd820d3d131bcfb0f1e0e1d8c1aedc0d7c9613b4bd6a6c9ca823ed4d39645a17eda22d1d333bef90d1c0c1f8214e3ced9c76f3545d8a8c7c48c30dadede7827b58308e0101ff75977466d36c3e85cff654e7157b478e7d6a45ce5b4f",
        "type": "nulldata"
      }
    },
    {
      "value": 499995.9324,
      "n": 1,
      "scriptPubKey": {
        "asm": "1 c3873eb2425ecb941057650afe73ad1cd8dadae0d59cefe6c4516e1414966351",
        "hex": "5120c3873eb2425ecb941057650afe73ad1cd8dadae0d59cefe6c4516e1414966351",
        "reqSigs": 1,
        "type": "witness_v1_scripthash",
        "addresses": [
          "3QJmnh"
        ]
      }
    }
  ],
  "blockhash": "15af9b025c636b87e0a10c18a1a8de0e5f3c2069ad563b293161176d75df89a4",
  "confirmations": 1,
  "time": 1764174659,
  "blocktime": 1764174659
}