{
  "hex": "01000000000101510789a1689c55e958303c30698da9ea0204c244e2a5fd2a05652a4a210c4c390100000000feffffff0200e1f50500000000fdd5046a20364340d8074ac55e348de44ef2f7c43761048034a8736639f8914ab87b07fdde4db0042cfe63212d532beff57dc2c9bf545a245f645158712db51f520f2c7c65ea7c640cde43010d730bcfd55de2e99f747a047f447178510d953f722f0c5c45ca5c446cbe23616d136bafb53d8289ff141a641f241118316df55f124f6c3c25aa3c244c9e03414d334b8f951da2a9df343a443f043138114dd57f326f4c1c058a1c04ac7ee3a1add3ab6f75fd42493fd4daa4dfe4d1d8f1ad359fd28facfce56afce48c5ec3818df38b4f55dd62691ff4fa84ffc4f1f8d18d15bff2af8cdcc54adcc4ec3ea3e1ed93eb2f35bd02097f949ae49fa49198b1ed75df92cfecbca52abca4cc1e83c1cdb3cb0f159d22295fb4bac4bf84b1b891cd55ffb2efcc9c850a9c842cfe63212d532beff57dc2c9bf545a245f645158712db51f520f2c7c65ea7c640cde43010d730bcfd55de2e99f747a047f447178510d953f722f0c5c45ca5c446cbe23616d136bafb53d8289ff141a641f241118316df55f124f6c3c25aa3c244c9e03414d334b8f951da2a9df343a443f043138114dd57f326f4c1c058a1c04ac7ee3a1add3ab6f75fd42493fd4daa4dfe4d1d8f1ad359fd28facfce56afce48c5ec3818df38b4f55dd62691ff4fa84ffc4f1f8d18d15bff2af8cdcc54adcc4ec3ea3e1ed93eb2f35bd02097f949ae49fa49198b1ed75df92cfecbca52abca4cc1e83c1cdb3cb0f159d22295fb4bac4bf84b1b891cd55ffb2efcc9c850a9c842cfe63212d532beff57dc2c9bf545a245f645158712db51f520f2c7c65ea7c640cde43010d730bcfd55de2e99f747a047f447178510d953f722f0c5c45ca5c446cbe23616d136bafb53d8289ff141a641f241118316df55f124f6c3c25aa3c244c9e03414d334b8f951da2a9df343a443f043138114dd57f326f4c1c058a1c04ac7ee3a1add3ab6f75fd42493fd4daa4dfe4d1d8f1ad359fd28facfce56afce48c5ec3818df38b4f55dd62691ff4fa84ffc4f1f8d18d15bff2af8cdcc54adcc4ec3ea3e1ed93eb2f35bd02097f949ae49fa49198b1ed75df92cfecbca52abca4cc1e83c1cdb3cb0f159d22295fb4bac4bf84b1b891cd55ffb2efcc9c850a9c842cfe63212d532beff57dc2c9bf545a245f645158712db51f520f2c7c65ea7c640cde43010d730bcfd55de2e99f747a047f447178510d953f722f0c5c45ca5c446cbe23616d136bafb53d8289ff141a641f241118316df55f124f6c3c25aa3c244c9e03414d334b8f951da2a9df343a443f043138114dd57f326f4c1c058a1c04ac7ee3a1add3ab6f75fd42493fd4daa4dfe4d1d8f1ad359fd28facfce56afce48c5ec3818df38b4f55dd62691ff4fa84ffc4f1f8d18d15bff2af8cdcc54adcc4ec3ea3e1ed93eb2f35bd02097f949ae49fa49198b1ed75df92cfecbca52abca4cc1e83c1cdb3cb0f159d22295fb4bac4bf84b1b891cd55ffb2efcc9c850a9c842cfe63212d532beff57dc2c9bf545a245f645158712db51f520f2c7c65ea7c640cde43010d730bcfd55de2e99f747a047f447178510d953f722f0c5c45ca5c446cbe23616d136bafb53d8289ff141a641f241118316df55f124f6c3c25aa3c244c9e03414d334b8f951da2a9df343a443f043138114dd57f326f4c1c058a1c04ac7ee3a1add3ab6f75fd42493fd4daa44c58689838aad940148e58e7c71d1f0130e3e43bfb4d86dd6b167599a49ce807407886de782d0000225120f0caf90aaf8ce79378d9cfbbca76b2a891d209bd213fb274a40d1267e17a1bcb02fd7509b7c538271343df8e765c800f17044ebce793864b40657bf9da13a4421c5fdea3ecd9cf35a418fa0a311f2d18376f7e52014fd07745a27481d0d46652411f984d7319fe6f3588797634c37047daad0467c2b77dfd5421f9f37b2bf1456aa16d72f45805a1a72538f7375984b20dbcd06bfdf4e89c41480e5fb7dea6b72d5a0dc34942e8fef21f652da194ff3d8db340e72cbaa6db4983ed6748e29db54c0b92e47d3220c51f11938122793cfccf7d77c2364edc565c4f75abc2b970404c475fd1418f419f0f91dadd8f1e755d32a4e43a89f618b00491f936aae7a2a33e9b57ef312931d883e7a8e40d2766ee192c3c164f5321547de6a983cb89664427b8a25bef837fb9267c79528f0c48bfb89d5e0a554541ef4e3178c46699acfc1630a1bc4f57b569389ab51b7761884cd3f09386df232e85f264b745be6a95b0a00c2876fefa88349b5b0cb919fcfb4c83cfdebc95c9b0140430616dec73ad62c997cc1c84ac961d383489d8ecfed85287dba01f72356a2c47c222f0172dda762ead8fc60259889c034789584e0d1b0a7f47a44389d857b6f06186458ba51854f63a58e341a2f3f35d1ee61cb1e214818fa59ca2ab85a9637c8d3e8bce1d6213a2381dc95b3e779bdc7f7bec6f1621c757b7fc4448187e6c4ac32dcf5fcc592b0ac6e96d8281aa364c6969fa3647ad8d26ca72f3548cd7215101edc07ac504dc70b7f105c48fe813f4ec01bc58475cd4f9d0e9bc1c1718472639b6d45a84652ac03357c30372d9845f6bab890da8a3dd39d4bc1806aba21c32a5ee7ef8c69c541418c79043376c382cf4733c2570081817ad543cc38fb188dd056aa7c8a8fe89a511330dda39a182c8fd3552a98a67dfc0968e7b801f03e3b8a219743ad2470403ee164128d5d7e3e2d5e765173ba37b6f7620620736187950eb61efe93251f4e3c64761d08eb3b75d0200334465c7177184d0a8cbb365f2bdba1928abd2548ee806421c02a6e7ad4b8bb9b53416854f93749355aa79695a78ccfd30cfd68c82acd0f19b258d41d9492875574940a1bc4f9c7aa0297f4b7d28e31c89ca00167d40eace00ba6b1c76cf4857178288aa383f95ce10ad4eeb9aa1bd30d63437ccf1b413029fd46dc86c1ec0593b9415334bd275fd4ed2d1eeb7ec9d330e0052dd067b6ec0038158be4fa8d66ec10a819695df4d35b64256ee07c776d6994a2608fa675b31c3b4f948f0bd405a12a43d0538bdfbd2134f5a630bc373fd1e4abf1962aa42f4578bf271ef79f2c34265298064237d5f6881bb837e076ff3b3a689a2da28e0ec4accaa91814600cd5085608167115e92d0c4e0542d713ad5c8180b2173832d513abe99ac488749c8075ddf9f2f19b6128068e124c9e2f3a097bae98bc6b9724565a37aba11dc7720cc65999f5f4bd44b16e6bdb3d3e0daec2da2e7b637a530a7376799fa57830cea0354c20d249a6d949a15cee074efbaa2f6b52105568bcc3f46384e64366cc5358520af0cb0f6fdaaaa57c157aa78e201f7a7b21aa182d3c231ec1048c5ad1a48e320b994b266e81efdbccb323dafa62dbeab216b251caf489d7de5eefb7beac243a96975a8b6df4da877627d516b10460d60c4dd3e1c6b6f1d64bfe30d33ca9fd8c09daeec49c9fbed958a5ba54ea0dfb2fddc965440c28466fc3399bc0a0dda17b7ef1e8bbb4e3f65617ef803b5f6d0c0ebc06db03ea6377e98e861f49a334193b2a6e39575daedd8dee6e6f9110902b22358307075ee96a1f5ab2ec0bba2adcb88d91e64149981716d32f4b49bd2c7ee009f749089a5dcc01a5591e344670b33ba1439c5d533607e1267c3c9b04fc3dd5db9426e78869d13c87e0332b68e08f9b8cbf73dd835619a250ba1aa6a63539615688dde8c98a40aefb6a14413a3c5be6f21156ed3dd4260abab99570165eecb6d7d966a9629c20613a07da7ae81dddbcb7524de2c581f1f3aee8f73f657916508f4648df52b7c88298f64d8b7d9edefa79648138cb9b7eafbb72ff9b71fb5068c37d1991fddc2df6eb4c25370724e5db090139a55d6dec7cd327a18cc6a52311a64da591ccc162aaf7d5e542debcf7a9aa111c30f6e69b1bb8a583e8f2d5dac488878ce5416c2878b009b625c70bb46f78b8578e0d21eac2b282f6ccf71298dcefdb2eab07ef6e3e1e3b2752760910fc50839e60b2890dfb75b0db0ca9ca8b9a6396759f83be8837156b1d33c94be5d92a89c44ee983f7bd59f8090e54466a8e6fa44a47102321d87e24d2d498375ccce87620c3408c1a43613840df384adce5a19908bd118342d53dce02df00a2aefa8eff513dafabfef1673fe9d05225988c29a599aefd5511b9ac9a07a834bba7b29f4b697bc4a7d22fb8a42e624385ff079369020b65b85aae29e0d5d4ecb80ee15b5130afdad382587539b0496d7916d11156f180c99720759611ede94f6d973d6bdda14f61b09adf513675f0cf51dd3f06285948f0526511f089622cf1daff82405415fc575588fb3035edd8d48c9c4ff4f15282f48711ed8bba69c71f94dd7caa88d40001d90388439a5d89bd7c27cd0ec3e15fd93e89115a072b8424237c2604d39d99e2f5c88479e81b52638e10528e9d19fb138e77e296711133f1cdcebf88297d0f753293d240ae09b1f5741d69b14ec4f7255ef67eb468c15fc73ad41ccc3bef594a6389b71aca1f2e490634cf226e7de9b0fcc520b94182a7f939ed4be1a3c778c606d2b870e4f473254884a9c1b4abd064ecfa560a6163c8dc72c7c992a84c81f4ac66a19710354ccffea37f397923498cf6d9e6593816b78e6edfd286cefd18e2802e0272dfdc10697a2b2b4d7c518b066a8c6a3a892ca4a170cb3c9242b4a6f3573ab69c4ce657ca2c6f746d5c8a0113a7f4f7617bb8f6093caae6f43a8be0ba80a645c59cadcdc172cffa1539d8b9744c1fcd7b7be132b7a96e7c87ad4cb0e30c2dd6a11d9d862abdfad2011517d301f5aa4fdac0ce7bf9c8bd80dbea81573ededfa635c22b131945681a235ff89341a389dcf9a1c5f6c19bd2aaa880c9d8a312a3a13deee28874049dccd7d8e00a0eda94c4a2398f7e9173ebab8d9133469b4daa474084d7b8b2483752f679c6cf62f357097e868327ab423bbb87b31cdb1fc2043a3185572d13765137492b697b04238cd107a37651318c914fccd833e180cac72df7dfcbdaa7e952982744b650d7fb6e7581ae9983d28393c454d1d010a5699256cafaadd2e47d854057f3d618f493727d2ae7838a36f4536a380fb8b2a845ba57260a555865cc2522d5c64571ce0150b050a1114292a2e33454f56595e7c91999dc5d4d70e0f161a23272d41505657626686a5b2c0d2d8e7f705090d132146637b7e83a1bebffe0b0d10345a5c727387979a9ea9acb6b9c2c6cad8def80000001429374d01fd2105003fa7d988a0fdca8cefb9c3eeba155c289040998396ed6dd47a96f78afeca192da770cae4c5f66c5c4d9c65e49c3850ab2ca8fe41a927bcbe8a3dfc329b9e48a3973525b186c0c9ad072949db9a9e3544191ff99e3029482a64ceba6f7630a7688208e244d437ef03490a72b86d34f310d97344728febdd2eaf0c1d5fd3b1b50b79b6e23420d8025b16954519b5aef7aef937c86491410887efd24b6d7c58d4e192132b83b8a4f4bc0b1bfd8d11b3ac8e2fd1a3c5dc1c806761a0cbde19a9a27341614dbe7a80e96bd47d2c4b2c85068b161031aa6e111fc4355d373f33120c9672fcc9669cddbb2cd7475f6d2a5fc5a4c16d4812aea90965578492c0925271acce97b629ceea4e78921557945ad384b9f8ce5b957aa22258b9b924d33b046e37f9fc766ac9f2c70263445861a2f6520673efe4fb1277bc7262355c962664c774b17e0b7b4a3f0d09b935c9eb3e7cfe77ce28c38f8f926433764766f0d043b1acb88948df3a8cc5b3eca98ba0e703364049c25050d6b7ca06c82a6ead9acec6a1f83f4bde3fb5fbf458649149349aca161c13b51163628a965a3fa9415135909d2c62bb34aabcd33b59496b6253e73334640ef962e672adca8f8bf23595bcce2bf41f0eade69e0e0cd2de2e365b6a8bba7cb0afc258fc0a3b226c9c766fccfb10b30b08c23858ce8bd5c33caa51823b6b973b585a68386f7139a12da225b8f0e1ce83cae87bc1d97e04bab71b8d3fa80b4130397029d86d8704a97a7e13c2db293cfc2a323b72a7ac20e05d8893ae27d84c0640b5d1afd4e0ae97857e196e535785ad9bacb1db8146593d634c4326f8a5c01c984ea83c686b37a9207eb2468359c54e558a6cffe5de78e480a29c39549b483fbbd3cf9ea830ef5658f391b8a1fcfdfe7f91f890b3cfddaba4ed2e028229b72edbaa730ff35f7491f2e4e01ff92a4387fc6ee1895654f790e2d7730bacbd1ae0fbec3a182d22da7f979b5add09fb318b8589da143559eb7bc0399cf1b200c0a9a1290ccbaa968c4314f89409da9725fee5b83e7fb77f871243c8c9418eeb263427e56ace83d9e9eb7b08d73e07087192ed1caac9b7d2c17a2c2fa4d476b1e866a0ea274a284a133c3849a38a0f4f8013561771b21bc1c3173c9f9f42a3204f542726477935e900f0c73accde2f682bfb74dfa7068ea4fe5202a4e1283bd23a01cfd91d06ca1c8f604048b5fdf56e051dc015384e50bed39f363cab9a7d6d185eaf2cc6adb5b916928bf3b027e1cf3b6190daaaa40dca5ad4870a30f4f748a355dfc395409e0cbd29cb6ae9785f79576e0b0c3db4516f8692d57c193fea2d01242bfe4c1d2ed00235054df76212e912ef15de1835637f6e3fe21c6752fcabe2fc4ae4bc9970ad91d916440591d08a693cca4979742899a98483fe5e89df2c764c51d3a8ac121b296cb4ced8897dce370eeb4dac3ffd4de8025ddf20789057860341e211f7f3954b63f0c168a318d7beece8a1a48310302f98d8496e498894da8e5b64f959b63e68b6e3d05fa3b763763e9c0594e902e7b91f4f67bc1f144eb165a4b00cde702358e5d0a9833f729eda9508f6854e7ce86a02129a7b609a410e5fa44e6a252d00025d814baec3b5685c34ee16a50a990449de306a410a76e89c53eee5d47fba83c94d30bfcbb393c9da37627c474ff913df67b4764650bbaa58447799cc6b41f69b232af1295d1f73ab7997dd44555d330ad568baacba29f69411d8b62fd8f54b989239eefbc65ab2fa1c31e8c613f0c38d1e680e7b95150a16da7b48af3a2c05b1bbcd4a368a4ac5b3c272b34070ef0e0d0bcddeb3832c2166fe095d04cd2841ba2fb71010c55c3d7e000000",
  "txid": "41dfc2205ab0d5f83ae4ed326578f5c9a77101eb93832614ede2adda8266dd7d",
  "hash": "4a5854ab1b423ca917f9a04caf845a0fb39c01627270dcc066da511a534855ac",
  "size": 5085,
  "vsize": 2278,
  "version": 1,
  "locktime": 126,
  "vin": [
    {
      "txid": "394c0c214a2a65052afda5e244c20402eaa98d69303c3058e9559c68a1890751",
      "vout": 1,
      "scriptSig": {
        "asm": "",
        "hex": ""
      },
      "txinwitness": [
        "b7c538271343df8e765c800f17044ebce793864b40657bf9da13a4421c5fdea3ecd9cf35a418fa0a311f2d18376f7e52014fd07745a27481d0d46652411f984d7319fe6f3588797634c37047daad0467c2b77dfd5421f9f37b2bf1456aa16d72f45805a1a72538f7375984b20dbcd06bfdf4e89c41480e5fb7dea6b72d5a0dc34942e8fef21f652da194ff3d8db340e72cbaa6db4983ed6748e29db54c0b92e47d3220c51f11938122793cfccf7d77c2364edc565c4f75abc2b970404c475fd1418f419f0f91dadd8f1e755d32a4e43a89f618b00491f936aae7a2a33e9b57ef312931d883e7a8e40d2766ee192c3c164f5321547de6a983cb89664427b8a25bef837fb9267c79528f0c48bfb89d5e0a554541ef4e3178c46699acfc1630a1bc4f57b569389ab51b7761884cd3f09386df232e85f264b745be6a95b0a00c2876fefa88349b5b0cb919fcfb4c83cfdebc95c9b0140430616dec73ad62c997cc1c84ac961d383489d8ecfed85287dba01f72356a2c47c222f0172dda762ead8fc60259889c034789584e0d1b0a7f47a44389d857b6f06186458ba51854f63a58e341a2f3f35d1ee61cb1e214818fa59ca2ab85a9637c8d3e8bce1d6213a2381dc95b3e779bdc7f7bec6f1621c757b7fc4448187e6c4ac32dcf5fcc592b0ac6e96d8281aa364c6969fa3647ad8d26ca72f3548cd7215101edc07ac504dc70b7f105c48fe813f4ec01bc58475cd4f9d0e9bc1c1718472639b6d45a84652ac03357c30372d9845f6bab890da8a3dd39d4bc1806aba21c32a5ee7ef8c69c541418c79043376c382cf4733c2570081817ad543cc38fb188dd056aa7c8a8fe89a511330dda39a182c8fd3552a98a67dfc0968e7b801f03e3b8a219743ad2470403ee164128d5d7e3e2d5e765173ba37b6f7620620736187950eb61efe93251f4e3c64761d08eb3b75d0200334465c7177184d0a8cbb365f2bdba1928abd2548ee806421c02a6e7ad4b8bb9b53416854f93749355aa79695a78ccfd30cfd68c82acd0f19b258d41d9492875574940a1bc4f9c7aa0297f4b7d28e31c89ca00167d40eace00ba6b1c76cf4857178288aa383f95ce10ad4eeb9aa1bd30d63437ccf1b413029fd46dc86c1ec0593b9415334bd275fd4ed2d1eeb7ec9d330e0052dd067b6ec0038158be4fa8d66ec10a819695df4d35b64256ee07c776d6994a2608fa675b31c3b4f948f0bd405a12a43d0538bdfbd2134f5a630bc373fd1e4abf1962aa42f4578bf271ef79f2c34265298064237d5f6881bb837e076ff3b3a689a2da28e0ec4accaa91814600cd5085608167115e92d0c4e0542d713ad5c8180b2173832d513abe99ac488749c8075ddf9f2f19b6128068e124c9e2f3a097bae98bc6b9724565a37aba11dc7720cc65999f5f4bd44b16e6bdb3d3e0daec2da2e7b637a530a7376799fa57830cea0354c20d249a6d949a15cee074efbaa2f6b52105568bcc3f46384e64366cc5358520af0cb0f6fdaaaa57c157aa78e201f7a7b21aa182d3c231ec1048c5ad1a48e320b994b266e81efdbccb323dafa62dbeab216b251caf489d7de5eefb7beac243a96975a8b6df4da877627d516b10460d60c4dd3e1c6b6f1d64bfe30d33ca9fd8c09daeec49c9fbed958a5ba54ea0dfb2fddc965440c28466fc3399bc0a0dda17b7ef1e8bbb4e3f65617ef803b5f6d0c0ebc06db03ea6377e98e861f49a334193b2a6e39575daedd8dee6e6f9110902b22358307075ee96a1f5ab2ec0bba2adcb88d91e64149981716d32f4b49bd2c7ee009f749089a5dcc01a5591e344670b33ba1439c5d533607e1267c3c9b04fc3dd5db9426e78869d13c87e0332b68e08f9b8cbf73dd835619a250ba1aa6a63539615688dde8c98a40aefb6a14413a3c5be6f21156ed3dd4260abab99570165eecb6d7d966a9629c20613a07da7ae81dddbcb7524de2c581f1f3aee8f73f657916508f4648df52b7c88298f64d8b7d9edefa79648138cb9b7eafbb72ff9b71fb5068c37d1991fddc2df6eb4c25370724e5db090139a55d6dec7cd327a18cc6a52311a64da591ccc162aaf7d5e542debcf7a9aa111c30f6e69b1bb8a583e8f2d5dac488878ce5416c2878b009b625c70bb46f78b8578e0d21eac2b282f6ccf71298dcefdb2eab07ef6e3e1e3b2752760910fc50839e60b2890dfb75b0db0ca9ca8b9a6396759f83be8837156b1d33c94be5d92a89c44ee983f7bd59f8090e54466a8e6fa44a47102321d87e24d2d498375ccce87620c3408c1a43613840df384adce5a19908bd118342d53dce02df00a2aefa8eff513dafabfef1673fe9d05225988c29a599aefd5511b9ac9a07a834bba7b29f4b697bc4a7d22fb8a42e624385ff079369020b65b85aae29e0d5d4ecb80ee15b5130afdad382587539b0496d7916d11156f180c99720759611ede94f6d973d6bdda14f61b09adf513675f0cf51dd3f06285948f0526511f089622cf1daff82405415fc575588fb3035edd8d48c9c4ff4f15282f48711ed8bba69c71f94dd7caa88d40001d90388439a5d89bd7c27cd0ec3e15fd93e89115a072b8424237c2604d39d99e2f5c88479e81b52638e10528e9d19fb138e77e296711133f1cdcebf88297d0f753293d240ae09b1f5741d69b14ec4f7255ef67eb468c15fc73ad41ccc3bef594a6389b71aca1f2e490634cf226e7de9b0fcc520b94182a7f939ed4be1a3c778c606d2b870e4f473254884a9c1b4abd064ecfa560a6163c8dc72c7c992a84c81f4ac66a19710354ccffea37f397923498cf6d9e6593816b78e6edfd286cefd18e2802e0272dfdc10697a2b2b4d7c518b066a8c6a3a892ca4a170cb3c9242b4a6f3573ab69c4ce657ca2c6f746d5c8a0113a7f4f7617bb8f6093caae6f43a8be0ba80a645c59cadcdc172cffa1539d8b9744c1fcd7b7be132b7a96e7c87ad4cb0e30c2dd6a11d9d862abdfad2011517d301f5aa4fdac0ce7bf9c8bd80dbea81573ededfa635c22b131945681a235ff89341a389dcf9a1c5f6c19bd2aaa880c9d8a312a3a13deee28874049dccd7d8e00a0eda94c4a2398f7e9173ebab8d9133469b4daa474084d7b8b2483752f679c6cf62f357097e868327ab423bbb87b31cdb1fc2043a3185572d13765137492b697b04238cd107a37651318c914fccd833e180cac72df7dfcbdaa7e952982744b650d7fb6e7581ae9983d28393c454d1d010a5699256cafaadd2e47d854057f3d618f493727d2ae7838a36f4536a380fb8b2a845ba57260a555865cc2522d5c64571ce0150b050a1114292a2e33454f56595e7c91999dc5d4d70e0f161a23272d41505657626686a5b2c0d2d8e7f705090d132146637b7e83a1bebffe0b0d10345a5c727387979a9ea9acb6b9c2c6cad8def80000001429374d01",
        "003fa7d988a0fdca8cefb9c3eeba155c289040998396ed6dd47a96f78afeca192da770cae4c5f66c5c4d9c65e49c3850ab2ca8fe41a927bcbe8a3dfc329b9e48a3973525b186c0c9ad072949db9a9e3544191ff99e3029482a64ceba6f7630a7688208e244d437ef03490a72b86d34f310d97344728febdd2eaf0c1d5fd3b1b50b79b6e23420d8025b16954519b5aef7aef937c86491410887efd24b6d7c58d4e192132b83b8a4f4bc0b1bfd8d11b3ac8e2fd1a3c5dc1c806761a0cbde19a9a27341614dbe7a80e96bd47d2c4b2c85068b161031aa6e111fc4355d373f33120c9672fcc9669cddbb2cd7475f6d2a5fc5a4c16d4812aea90965578492c0925271acce97b629ceea4e78921557945ad384b9f8ce5b957aa22258b9b924d33b046e37f9fc766ac9f2c70263445861a2f6520673efe4fb1277bc7262355c962664c774b17e0b7b4a3f0d09b935c9eb3e7cfe77ce28c38f8f926433764766f0d043b1acb88948df3a8cc5b3eca98ba0e703364049c25050d6b7ca06c82a6ead9acec6a1f83f4bde3fb5fbf458649149349aca161c13b51163628a965a3fa9415135909d2c62bb34aabcd33b59496b6253e73334640ef962e672adca8f8bf23595bcce2bf41f0eade69e0e0cd2de2e365b6a8bba7cb0afc258fc0a3b226c9c766fccfb10b30b08c23858ce8bd5c33caa51823b6b973b585a68386f7139a12da225b8f0e1ce83cae87bc1d97e04bab71b8d3fa80b4130397029d86d8704a97a7e13c2db293cfc2a323b72a7ac20e05d8893ae27d84c0640b5d1afd4e0ae97857e196e535785ad9bacb1db8146593d634c4326f8a5c01c984ea83c686b37a9207eb2468359c54e558a6cffe5de78e480a29c39549b483fbbd3cf9ea830ef5658f391b8a1fcfdfe7f91f890b3cfddaba4ed2e028229b72edbaa730ff35f7491f2e4e01ff92a4387fc6ee1895654f790e2d7730bacbd1ae0fbec3a182d22da7f979b5add09fb318b8589da143559eb7bc0399cf1b200c0a9a1290ccbaa968c4314f89409da9725fee5b83e7fb77f871243c8c9418eeb263427e56ace83d9e9eb7b08d73e07087192ed1caac9b7d2c17a2c2fa4d476b1e866a0ea274a284a133c3849a38a0f4f8013561771b21bc1c3173c9f9f42a3204f542726477935e900f0c73accde2f682bfb74dfa7068ea4fe5202a4e1283bd23a01cfd91d06ca1c8f604048b5fdf56e051dc015384e50bed39f363cab9a7d6d185eaf2cc6adb5b916928bf3b027e1cf3b6190daaaa40dca5ad4870a30f4f748a355dfc395409e0cbd29cb6ae9785f79576e0b0c3db4516f8692d57c193fea2d01242bfe4c1d2ed00235054df76212e912ef15de1835637f6e3fe21c6752fcabe2fc4ae4bc9970ad91d916440591d08a693cca4979742899a98483fe5e89df2c764c51d3a8ac121b296cb4ced8897dce370eeb4dac3ffd4de8025ddf20789057860341e211f7f3954b63f0c168a318d7beece8a1a48310302f98d8496e498894da8e5b64f959b63e68b6e3d05fa3b763763e9c0594e902e7b91f4f67bc1f144eb165a4b00cde702358e5d0a9833f729eda9508f6854e7ce86a02129a7b609a410e5fa44e6a252d00025d814baec3b5685c34ee16a50a990449de306a410a76e89c53eee5d47fba83c94d30bfcbb393c9da37627c474ff913df67b4764650bbaa58447799cc6b41f69b232af1295d1f73ab7997dd44555d330ad568baacba29f69411d8b62fd8f54b989239eefbc65ab2fa1c31e8c613f0c38d1e680e7b95150a16da7b48af3a2c05b1bbcd4a368a4ac5b3c272b34070ef0e0d0bcddeb3832c2166fe095d04cd2841ba2fb71010c55c3d"
      ],
      "sequence": 4294967294
    }
  ],
  "vout": [
    {
      "value": 1.0,
      "n": 0,
      "scriptPubKey": {
        "asm": "OP_RETURN 364340d8074ac55e348de44ef2f7c43761048034a8736639f8914ab87b07fdde 2cfe63212d532beff57dc2c9bf545a245f645158712db51f520f2c7c65ea7c640cde43010d730bcfd55de2e99f747a047f447178510d953f722f0c5c45ca5c446cbe23616d136bafb53d8289ff141a641f241118316df55f124f6c3c25aa3c244c9e03414d334b8f951da2a9df343a443f043138114dd57f326f4c1c058a1c04ac7ee3a1add3ab6f75fd42493fd4daa4dfe4d1d8f1ad359fd28facfce56afce48c5ec3818df38b4f55dd62691ff4fa84ffc4f1f8d18d15bff2af8cdcc54adcc4ec3ea3e1ed93eb2f35bd02097f949ae49fa49198b1ed75df92cfecbca52abca4cc1e83c1cdb3cb0f159d22295fb4bac4bf84b1b891cd55ffb2efcc9c850a9c842cfe63212d532beff57dc2c9bf545a245f645158712db51f520f2c7c65ea7c640cde43010d730bcfd55de2e99f747a047f447178510d953f722f0c5c45ca5c446cbe23616d136bafb53d8289ff141a641f241118316df55f124f6c3c25aa3c244c9e03414d334b8f951da2a9df343a443f043138114dd57f326f4c1c058a1c04ac7ee3a1add3ab6f75fd42493fd4daa4dfe4d1d8f1ad359fd28facfce56afce48c5ec3818df38b4f55dd62691ff4fa84ffc4f1f8d18d15bff2af8cdcc54adcc4ec3ea3e1ed93eb2f35bd02097f949ae49fa49198b1ed75df92cfecbca52abca4cc1e83c1cdb3cb0f159d22295fb4bac4bf84b1b891cd55ffb2efcc9c850a9c842cfe63212d532beff57dc2c9bf545a245f645158712db51f520f2c7c65ea7c640cde43010d730bcfd55de2e99f747a047f447178510d953f722f0c5c45ca5c446cbe23616d136bafb53d8289ff141a641f241118316df55f124f6c3c25aa3c244c9e03414d334b8f951da2a9df343a443f043138114dd57f326f4c1c058a1c04ac7ee3a1add3ab6f75fd42493fd4daa4dfe4d1d8f1ad359fd28facfce56afce48c5ec3818df38b4f55dd62691ff4fa84ffc4f1f8d18d15bff2af8cdcc54adcc4ec3ea3e1ed93eb2f35bd02097f949ae49fa49198b1ed75df92cfecbca52abca4cc1e83c1cdb3cb0f159d22295fb4bac4bf84b1b891cd55ffb2efcc9c850a9c842cfe63212d532beff57dc2c9bf545a245f645158712db51f520f2c7c65ea7c640cde43010d730bcfd55de2e99f747a047f447178510d953f722f0c5c45ca5c446cbe23616d136bafb53d8289ff141a641f241118316df55f124f6c3c25aa3c244c9e03414d334b8f951da2a9df343a443f043138114dd57f326f4c1c058a1c04ac7ee3a1add3ab6f75fd42493fd4daa4dfe4d1d8f1ad359fd28facfce56afce48c5ec3818df38b4f55dd62691ff4fa84ffc4f1f8d18d15bff2af8cdcc54adcc4ec3ea3e1ed93eb2f35bd02097f949ae49fa49198b1ed75df92cfecbca52abca4cc1e83c1cdb3cb0f159d22295fb4bac4bf84b1b891cd55ffb2efcc9c850a9c842cfe63212d532beff57dc2c9bf545a245f645158712db51f520f2c7c65ea7c640cde43010d730bcfd55de2e99f747a047f447178510d953f722f0c5c45ca5c446cbe23616d136bafb53d8289ff141a641f241118316df55f124f6c3c25aa3c244c9e03414d334b8f951da2a9df343a443f043138114dd57f326f4c1c058a1c04ac7ee3a1add3ab6f75fd42493fd4daa44c58689838aad940148e58e7c71d1f0130e3e43bfb4d86dd6b167599a49ce807",
        "hex": "6a20364340d8074ac55e348de44ef2f7c43761048034a8736639f8914ab87b07fdde4db0042cfe63212d532beff57dc2c9bf545a245f645158712db51f520f2c7c65ea7c640cde43010d730bcfd55de2e99f747a047f447178510d953f722f0c5c45ca5c446cbe23616d136bafb53d8289ff141a641f241118316df55f124f6c3c25aa3c244c9e03414d334b8f951da2a9df343a443f043138114dd57f326f4c1c058a1c04ac7ee3a1add3ab6f75fd42493fd4daa4dfe4d1d8f1ad359fd28facfce56afce48c5ec3818df38b4f55dd62691ff4fa84ffc4f1f8d18d15bff2af8cdcc54adcc4ec3ea3e1ed93eb2f35bd02097f949ae49fa49198b1ed75df92cfecbca52abca4cc1e83c1cdb3cb0f159d22295fb4bac4bf84b1b891cd55ffb2efcc9c850a9c842cfe63212d532beff57dc2c9bf545a245f645158712db51f520f2c7c65ea7c640cde43010d730bcfd55de2e99f747a047f447178510d953f722f0c5c45ca5c446cbe23616d136bafb53d8289ff141a641f241118316df55f124f6c3c25aa3c244c9e03414d334b8f951da2a9df343a443f043138114dd57f326f4c1c058a1c04ac7ee3a1add3ab6f75fd42493fd4daa4dfe4d1d8f1ad359fd28facfce56afce48c5ec3818df38b4f55dd62691ff4fa84ffc4f1f8d18d15bff2af8cdcc54adcc4ec3ea3e1ed93eb2f35bd02097f949ae49fa49198b1ed75df92cfecbca52abca4cc1e83c1cdb3cb0f159d22295fb4bac4bf84b1b891cd55ffb2efcc9c850a9c842cfe63212d532beff57dc2c9bf545a245f645158712db51f520f2c7c65ea7c640cde43010d730bcfd55de2e99f747a047f447178510d953f722f0c5c45ca5c446cbe23616d136bafb53d8289ff141a641f241118316df55f124f6c3c25aa3c244c9e03414d334b8f951da2a9df343a443f043138114dd57f326f4c1c058a1c04ac7ee3a1add3ab6f75fd42493fd4daa4dfe4d1d8f1ad359fd28facfce56afce48c5ec3818df38b4f55dd62691ff4fa84ffc4f1f8d18d15bff2af8cdcc54adcc4ec3ea3e1ed93eb2f35bd02097f949ae49fa49198b1ed75df92cfecbca52abca4cc1e83c1cdb3cb0f159d22295fb4bac4bf84b1b891cd55ffb2efcc9c850a9c842cfe63212d532beff57dc2c9bf545a245f645158712db51f520f2c7c65ea7c640cde43010d730bcfd55de2e99f747a047f447178510d953f722f0c5c45ca5c446cbe23616d136bafb53d8289ff141a641f241118316df55f124f6c3c25aa3c244c9e03414d334b8f951da2a9df343a443f043138114dd57f326f4c1c058a1c04ac7ee3a1add3ab6f75fd42493fd4daa4dfe4d1d8f1ad359fd28facfce56afce48c5ec3818df38b4f55dd62691ff4fa84ffc4f1f8d18d15bff2af8cdcc54adcc4ec3ea3e1ed93eb2f35bd02097f949ae49fa49198b1ed75df92cfecbca52abca4cc1e83c1cdb3cb0f159d22295fb4bac4bf84b1b891cd55ffb2efcc9c850a9c842cfe63212d532beff57dc2c9bf545a245f645158712db51f520f2c7c65ea7c640cde43010d730bcfd55de2e99f747a047f447178510d953f722f0c5c45ca5c446cbe23616d136bafb53d8289ff141a641f241118316df55f124f6c3c25aa3c244c9e03414d334b8f951da2a9df343a443f043138114dd57f326f4c1c058a1c04ac7ee3a1add3ab6f75fd42493fd4daa44c58689838aad940148e58e7c71d1f0130e3e43bfb4d86dd6b167599a49ce807",
        "type": "nulldata"
      }
    },
    {
      "value": 499971.5268,
      "n": 1,
      "scriptPubKey": {
        "asm": "1 f0caf90aaf8ce79378d9cfbbca76b2a891d209bd213fb274a40d1267e17a1bcb",
        "hex": "5120f0caf90aaf8ce79378d9cfbbca76b2a891d209bd213fb274a40d1267e17a1bcb",
        "reqSigs": 1,
        "type": "witness_v1_scripthash",
        "addresses": [
          "3QJmnh"
        ]
      }
    }
  ],
  "blockhash": "6d9c0c317b6a18c94c8dfa8ecf7920e3db1b4df4697afebc42d3fd28269e39fd",
  "confirmations": 1,
  "time": 1764181315,
  "blocktime": 1764181315
}