{
  "hex": "01000000000101e799ecc290199beed24a711edde15f511f97f74b21e6b0a672055c1935d249e30000000000feffffff0200e1f50500000000fdd5046a202550c8125e9a3f41edccbe97f7f4a9ba1790ef25a17ee39719a7f80c2a21b5914db0042bc7a2003836065d4b21dffe895a1722af94cefe06100e57088f43eb3c4035350be782201816267d6b01ffdea97a37028fb4eede26302e7728af63cb1c6015156b87e2407876461d0b619fbec91a5762efd48ebe46504e1748cf03ab7c0075754ba7c2605856663d2b41bf9ee93a7742cff4ae9e66706e3768ef238b5c205555ab472280b8b686ddcba15f7e09da97a22f144e7e86908ed7880fc36bbcc0b5b58b6702a09896a6fdeb817f5e29fab7820f346e5ea6b0aef7a82fe34b9ce09595eb0762c0f8f6c69d8be11f3e499ad7e26f540e3ec6d0ce97c84f832bfc80f5f5cb2742e0d8d6e6bdabc13f1e69baf7c24f742e1ee6f0eeb7e86fa30bdca0d5d52bc7a2003836065d4b21dffe895a1722af94cefe06100e57088f43eb3c4035350be782201816267d6b01ffdea97a37028fb4eede26302e7728af63cb1c6015156b87e2407876461d0b619fbec91a5762efd48ebe46504e1748cf03ab7c0075754ba7c2605856663d2b41bf9ee93a7742cff4ae9e66706e3768ef238b5c205555ab472280b8b686ddcba15f7e09da97a22f144e7e86908ed7880fc36bbcc0b5b58b6702a09896a6fdeb817f5e29fab7820f346e5ea6b0aef7a82fe34b9ce09595eb0762c0f8f6c69d8be11f3e499ad7e26f540e3ec6d0ce97c84f832bfc80f5f5cb2742e0d8d6e6bdabc13f1e69baf7c24f742e1ee6f0eeb7e86fa30bdca0d5d52bc7a2003836065d4b21dffe895a1722af94cefe06100e57088f43eb3c4035350be782201816267d6b01ffdea97a37028fb4eede26302e7728af63cb1c6015156b87e2407876461d0b619fbec91a5762efd48ebe46504e1748cf03ab7c0075754ba7c2605856663d2b41bf9ee93a7742cff4ae9e66706e3768ef238b5c205555ab472280b8b686ddcba15f7e09da97a22f144e7e86908ed7880fc36bbcc0b5b58b6702a09896a6fdeb817f5e29fab7820f346e5ea6b0aef7a82fe34b9ce09595eb0762c0f8f6c69d8be11f3e499ad7e26f540e3ec6d0ce97c84f832bfc80f5f5cb2742e0d8d6e6bdabc13f1e69baf7c24f742e1ee6f0eeb7e86fa30bdca0d5d52bc7a2003836065d4b21dffe895a1722af94cefe06100e57088f43eb3c4035350be782201816267d6b01ffdea97a37028fb4eede26302e7728af63cb1c6015156b87e2407876461d0b619fbec91a5762efd48ebe46504e1748cf03ab7c0075754ba7c2605856663d2b41bf9ee93a7742cff4ae9e66706e3768ef238b5c205555ab472280b8b686ddcba15f7e09da97a22f144e7e86908ed7880fc36bbcc0b5b58b6702a09896a6fdeb817f5e29fab7820f346e5ea6b0aef7a82fe34b9ce09595eb0762c0f8f6c69d8be11f3e499ad7e26f540e3ec6d0ce97c84f832bfc80f5f5cb2742e0d8d6e6bdabc13f1e69baf7c24f742e1ee6f0eeb7e86fa30bdca0d5d52bc7a2003836065d4b21dffe895a1722af94cefe06100e57088f43eb3c4035350be782201816267d6b01ffdea97a37028fb4eede26302e7728af63cb1c6015156b87e2407876461d0b619fbec91a5762efd48ebe46504e1748cf03ab7c0075754ba7c2605856663d2b41bf9ee93a7742cff4ae9e66706e3768ef238b5c205555ab472280b8b686ddcba15f7e09da97a288d9f4f59ac5a48430acc4835bfdc2be18ea284874f474730ecbf8c46880658ed0cb9045792d0000225120dd0a7cb2733d91605fa8801645962b850289ce18a2872abce6febab14e3df5bf02fd75091fde029682e2a1bd404ddaa34bf60f16ea928bcfb8c86fd00d3aaba18acfc341f5b321d8269b0fc62da87fd0b3b25071d849d50c844d8ccd8b1b28b49f29f2854b7b8756fe6e8d46d4b476ab8bbef9cd31a82eeb557f8291f9fcbfd01f55a4072d53e3588a039473d7addc0016c5eca7889e0582f9a2993be749834da4cf3178c6f39225ee96af8557ff119df4640a4e36287432aa832c6ca15a16c9b810272904daa34322c80b02c8c4b0fd6733c21b1bbed22a0a07ae68897969f8b568f124650c0283f807b7e9243e8cf5760ab87112700d7ef2aa27dd08884e1f673102365622675c93c89444a8bab7d66e3e078c148f7f71b85b67b96f0f284a8d0936ea744378742c68d4cde83a65f36dac8d3de32eae00de595f1641d1ba04de22822466da77e92d63ddda7fbf14b151f3eb519eac38d72ff70e05c743c5bc8506a22d814d5b7705aaab0ee125f2c9a4efeaec64717b7c26280eeb99b1bca8e2450b5e8f35c81403212cffc307402ad19603d89091b79428e370cdd14719bbbf9c53737017aad15aa92cbb7b41389de5254e201a1b8383451dda18874b5b83905eabd7033452581928660d5f25829ccd224b916f6b61e7b24ec55f7376e5e074153f80ec2816effc56043f5b1b742def03da48296cf3a9149d3974b3f3c42e2b1aae166a609558e4cf697f611a51f194061e75b292b0d915f29bda6b64bf36aef864452b2f4741945c22c59d20856effa6dc69b6ab45b39593c35fc5406ae0d9b78fea52b9a4040e08467a05f50e1fb882a39bfef61dc041c8ae34710c4d143ed0b367c167fbdaa820e2a0f374387b473ab9fefcf692b34d5fc0dabc3daadbbf7174789711f02f4dee38fc58d58f1d138077f1b23b7d09450b6fc7f106f6ccaaf357df94465487ddbd609444e600eb7bf45be792cb609b460ab2b28979f7acdc5ac0bfb8c4d88838021533bbdaa56ab5365f17708c5ea37927e0e343787679d6cf5252d9976c6119ceae2ae87862b83ae09dca62c49a9093d8508f0942aebdf567c32e0bcdecf6f6c105c7c97113172f4e733597951e25b0616c4ad0dba3985c1de0aee1b91ebc4235346479221bfbd1a70885b110d8c7f6f4dda2c2a3ffe7d87f56954a829690fb87e664e645c5a1aa8a3a15b356b3d1595db522c8513b3ec185d914d5d70ba4d4702c2837fbe7f046c8384fa22e46540dc6e43721ae5f74a29ef921570baa773b970ce149bdc7022c4e8f3089cfa7c7b424e4318f22f41bf329b9efe83023613b7284340c42a6660efb829a16d92c00f9730fe4b338f1627370eed12102f4a780a6568d5250d672c6b88e372ac27be0bfbf927c1430bbbc10dea4561c0ccefeb7a41534592d893acf345c8bed3c8877b476e31c46171065c23ae71ce0c0ff0bbd8f7aae23151142e739bdd53dcbc796b41c6b024141c2c2b2db5a78e4bb3c30ade27e235e0e43b163db463917ee354fb020338c3700b03f319ffb14f3cde7388b50550ee72fce523648b27946f8dfffdc606609130b492f48f4c62dff514a2c7dd3df9989828e64a539a6f00f5c32aea7919099dd929634bb3a8fdffc8cac96043d551cf73190fa34a43cb16e9e216cc4325fe4a21467fd0bfb017e58a45009590924046532d9422a34d5ae7c315dbe724618423412bc3b191ec254f863bbd1f6bbe32a53543c09661b510f9c4f86d7cab715a9b2e9557a7569139445f5571845d099bb79850a33da65b6779dddebb30f1653af9b9a52ef1ead02e98176c1047bb0ce099b2c76494e10306e5389ae85e9dfc5e9ac3328a79eb5bb8902145145f3f4b5c6f0b55b5ddcb3e016149c0fe992b4d4dad67075aef89c5d4a52fb4f1fa4e7fe85d36f7899b71cbe4117a9d46b82cdd15a0a14a6121b14b5f90c901f1931d5d5447575501a71c9a37796f5215c22f2b5961f4d4638317983e308b80a5b5fc01c0509f8ca02f4474eadcd9c990155021d9fa6a47c9bfc43eda7bd598797e261bf710b53ee395ea0b6f56edc58d1d9c787446305fc88389ce9718b207db5dfad6a1ca0e8e6d635209b6afbdc43368b77dd93c997347c367ce00faf0da6d99cc338395047de7dda6b5b9a7a00a10af09136129174e070292db53df33f18fc61cbad13aac5fdf2c278156a1eeee78b15cf4280e6d7786388c52a36ed931c5e286c971be525312d75d937065d7c5ad29b5a141bce93b6278ccd1f42efc8c9bb590dd512a9bf52705578e044312fb11650551d876f6ee88100406500b9046752c7eede292a56a17a0e6eb7921367e19f75ca2638336a32b4569dd8f39b41f70969cd9a05a827e480a05cb02791583981775f4d2751d4e20dd9a3b1461c3bddfb9fe1a7f372cf2a23627f595b22ee0f4fafd3f8a9cc15e23c5fdd4adaa9a1a42f59a9302f970d24bdeb11e627376b7f299671c21f37ce9b1f2e7831631a11cc22cdbf29b1792b71eebc543b1081bf4f110f552615424f38c120a1796fe5d0f6d9c1d63837c8df1cca54f75b7845bd00596a7f2dda61e41c74d6622327bb89fc33239596a40310f4bd597404ff7dfb2cdb61868d5f71488be44ce9bd2424e4ad2ccc295b9cd38eced6bf283fad2d2f9bc23e92d900468d1f458eb0e856b4a4c6992adf962d03b647513a544e8852b3d83083c853dd6b83cba987214df761c8080dfcbd0e9a0634e26d5415c94fa3983a5fbe76dd0e58717b3d5dccbdb725db1cd8f0ff75b532c29b190a8fcb1a43f0e7e91e7be36569cb1cbe69ddc867b1f22fd0ec7ec35d93204bd6ba653ca2330ca6a3298a910e97d2eff4db2b35b593d257d7f57db49ae37438a7df282c706ba5097be985423e6f63143048db1c5dd730e0ea2092a2496b3f4403a4a77d869b776f1681698be80ff5dde35b93b9648185b1e27182f6b0294b327332e30c4b09cc9cdd1cd88e0e1747a8fc3ef4bc46bf6ffb510df3b66c12ac55c70389d5a05b69d3d43bd4274f64f32c0a05300854db5e40fb866c96ab329d0247c6d332512e8cd3495d8a42728c852925112650bd90b6907ee0792b9d0ab3d82bdaf8b2315546747f122bbe8cbd09666f327c86c0ccecf2118c5488916f700713d52e6fc83970e7b3ffa3c7869039f29996d10f6a19414ff9136f805dca5e0e2f11266fb1ca884ebf97cee4124d752ae290ec821962cdf958bb50a7343c6bcb390970a38c0c8180d0423b855884740341d57194e639c8712e1029e3e934dcacbe4c9b11186d82ce51cb32e68da02bb3da31533fd3904811962189c60c4483d65d1ee0f18f2e163db45b662448fcd367ab629d84c60003060c15212d2e4650578a91b7b9bcc5ec02060b262c49576c828393a3cfd4f302102b4e50575e686cabb7dbe5f3fe031a5ba0a1cad8e4faff000000000000000000000000000000000000000000001221303a01fd210500ad2ed2fd83892df809103d8221f3e9ff5b1192f10f26dc9c5a97076069e2ff25309cbf81157b68bd05561556ad0c85f3adf8379b80595c3785988f91ece7269cd06acb30311be8f957d6d5c3130ba2bff182d17d01368282acc0b143af3675303cbfd5a3653e9048c4797a4a20506b9954283ac6a215515584fe0a28176df68cb5e9d356565904ab126aa649545206402e22f9b931d05f2676fc5182c807a535f27116d7785624d0f077e031a88a77bf1c1b3caf754e4b5ee1e038e8aeb79d24f9395c3a05167c2315cb797d8d7d32a58b3de3d26125c2289dd9335a3906eed3b4a21fb45835f8c5455bf38b15de04e29be902a449a3b1889a89254a70b4498e35c48165021a7825465a30f3485beec36492666986f8408c4822008eaf372ac28a9104acf13de1aa77e54e00b98e283b12cc503cdd862049ca61d68707d25156ab3edb3c4506a06647467d2578dab1b4ce92bc160264baa852c2685b64bd96d60d1a32b2fed61b5fb04f4df28449a67c567a6a9463a140d97e3962342f58b3aafb57786073caaa85dccd636cbe557cb92eb37eb4a1715f898d44a161757cc2a64b602b705fb57c28938d1b3d5212f67f77ac8dbf5c643cbdb8663c21a502b85aa1d037fd13ffb2e86b38c02e79a40a968a25f4789c75be7c8773f50990496b8f676d4bdfa8cbdf1a5d2e6199822636ec7a8c07680328439bbd8c75d3ee1dd980f35b74d64f90a4559f9471f0e602567ba8733c9729062ac95c982874b59429d7e3af753816de141076d67da25465b9901d765aecae27a0f8a4991cd55b9113846cce4898babc27b4138a57bc973093f9547852356f4038b64f43958cf0acba6c8ca1fba65008edae97332cae712e22911a863e6b6e85445fd652e7768db6c1ee4fe9814f480474de0b08d427e0829f2d2eed60a8b601e9e7b3fd88dc7bad9e35f7ae6e5fe873484b5b581d6b889857aa882ac59abfb0be2014466b0d4e497018b94d2a17df1af4c9fe6f3a7a3c0455490f41c54b15c20128d4c1798682f70a9888ae4c82cdcae99c94c1a360feaac6121d89bf5b5b254541161868a98fde2d8eae9333560fe1ead1f2fe1f5316e29c21bcc437f33cb794e585a06a30a5a0863a4a8ff6c4f066b42bc460687d124f3df1db910b012c64696d7aae7f58c2560c03d0b41e08bba0388d6a4d42efd1a743fa702a1e488d75fdf74cf0b9bc2bd67ea42472a057911e0f686b966d40a46284403964c767707704b3f1da34a22a7b1bd90220b030e8a90336ee263d7b7333b6657bbd768662d7f28c6c4f4a56c0a2371193a4b5496f075ff45e5d0c926240bae8ce5bfe057fc7d59f96c63be586940e967626b759e9c53b9cf69422964990cb03cc357b5165544c2eeb1b8fe5aa63b985903e633633dadf7c3b71d43ecc42c2dc09824d72e290b8a6ab1a3f091a2d462043c03989ddf727396f1ef84a3096c877a877cf59aae3f0b69e6fff0b7f29c950bac664da3028c4ba45d8eaf649dbddbfe5ea3a28d9b6ba97e890cb0dd4173026d24e950c15944303520dce8964e57b7d1551d43ebbf6e5110d37922230cfd70fb27ed643eefb2c0107fff1ab0479f66072e7e1bb487a8badefc80a416f6cef5541438e8eaff4c16cfd16777ebda40793b9c583ab438bc4c5c3778e514c20e31e2dd991930a2347d7599175af177781ce68dde2c82b3d58aa9a5bc23492fcd35f1ea262026b80962c4d2fa79bad49801cfb7a93093d9755de22052ab35423011d2712a38ef7ea1dbb53d18ab4336c7a1162993d77818dbad871f0150d3e82b88d3b6aebfd82bcfde9b128ed6dd434e58445ac11f26271f949e2d710d1cd2bf20e77000000",
  "txid": "4f01f2e7019e9106f7dd35935816e45e6dba0634ec8d9ef739e6dc0844da0cca",
  "hash": "331071b84e7daeb11ab266e59f8432e29759d4826715a2e20a7169e79ad68814",
  "size": 5085,
  "vsize": 2278,
  "version": 1,
  "locktime": 119,
  "vin": [
    {
      "txid": "e349d235195c0572a6b0e6214bf7971f515fe1dd1e714ad2ee9b1990c2ec99e7",
      "vout": 0,
      "scriptSig": {
        "asm": "",
        "hex": ""
      },
      "txinwitness": [
        "1fde029682e2a1bd404ddaa34bf60f16ea928bcfb8c86fd00d3aaba18acfc341f5b321d8269b0fc62da87fd0b3b25071d849d50c844d8ccd8b1b28b49f29f2854b7b8756fe6e8d46d4b476ab8bbef9cd31a82eeb557f8291f9fcbfd01f55a4072d53e3588a039473d7addc0016c5eca7889e0582f9a2993be749834da4cf3178c6f39225ee96af8557ff119df4640a4e36287432aa832c6ca15a16c9b810272904daa34322c80b02c8c4b0fd6733c21b1bbed22a0a07ae68897969f8b568f124650c0283f807b7e9243e8cf5760ab87112700d7ef2aa27dd08884e1f673102365622675c93c89444a8bab7d66e3e078c148f7f71b85b67b96f0f284a8d0936ea744378742c68d4cde83a65f36dac8d3de32eae00de595f1641d1ba04de22822466da77e92d63ddda7fbf14b151f3eb519eac38d72ff70e05c743c5bc8506a22d814d5b7705aaab0ee125f2c9a4efeaec64717b7c26280eeb99b1bca8e2450b5e8f35c81403212cffc307402ad19603d89091b79428e370cdd14719bbbf9c53737017aad15aa92cbb7b41389de5254e201a1b8383451dda18874b5b83905eabd7033452581928660d5f25829ccd224b916f6b61e7b24ec55f7376e5e074153f80ec2816effc56043f5b1b742def03da48296cf3a9149d3974b3f3c42e2b1aae166a609558e4cf697f611a51f194061e75b292b0d915f29bda6b64bf36aef864452b2f4741945c22c59d20856effa6dc69b6ab45b39593c35fc5406ae0d9b78fea52b9a4040e08467a05f50e1fb882a39bfef61dc041c8ae34710c4d143ed0b367c167fbdaa820e2a0f374387b473ab9fefcf692b34d5fc0dabc3daadbbf7174789711f02f4dee38fc58d58f1d138077f1b23b7d09450b6fc7f106f6ccaaf357df94465487ddbd609444e600eb7bf45be792cb609b460ab2b28979f7acdc5ac0bfb8c4d88838021533bbdaa56ab5365f17708c5ea37927e0e343787679d6cf5252d9976c6119ceae2ae87862b83ae09dca62c49a9093d8508f0942aebdf567c32e0bcdecf6f6c105c7c97113172f4e733597951e25b0616c4ad0dba3985c1de0aee1b91ebc4235346479221bfbd1a70885b110d8c7f6f4dda2c2a3ffe7d87f56954a829690fb87e664e645c5a1aa8a3a15b356b3d1595db522c8513b3ec185d914d5d70ba4d4702c2837fbe7f046c8384fa22e46540dc6e43721ae5f74a29ef921570baa773b970ce149bdc7022c4e8f3089cfa7c7b424e4318f22f41bf329b9efe83023613b7284340c42a6660efb829a16d92c00f9730fe4b338f1627370eed12102f4a780a6568d5250d672c6b88e372ac27be0bfbf927c1430bbbc10dea4561c0ccefeb7a41534592d893acf345c8bed3c8877b476e31c46171065c23ae71ce0c0ff0bbd8f7aae23151142e739bdd53dcbc796b41c6b024141c2c2b2db5a78e4bb3c30ade27e235e0e43b163db463917ee354fb020338c3700b03f319ffb14f3cde7388b50550ee72fce523648b27946f8dfffdc606609130b492f48f4c62dff514a2c7dd3df9989828e64a539a6f00f5c32aea7919099dd929634bb3a8fdffc8cac96043d551cf73190fa34a43cb16e9e216cc4325fe4a21467fd0bfb017e58a45009590924046532d9422a34d5ae7c315dbe724618423412bc3b191ec254f863bbd1f6bbe32a53543c09661b510f9c4f86d7cab715a9b2e9557a7569139445f5571845d099bb79850a33da65b6779dddebb30f1653af9b9a52ef1ead02e98176c1047bb0ce099b2c76494e10306e5389ae85e9dfc5e9ac3328a79eb5bb8902145145f3f4b5c6f0b55b5ddcb3e016149c0fe992b4d4dad67075aef89c5d4a52fb4f1fa4e7fe85d36f7899b71cbe4117a9d46b82cdd15a0a14a6121b14b5f90c901f1931d5d5447575501a71c9a37796f5215c22f2b5961f4d4638317983e308b80a5b5fc01c0509f8ca02f4474eadcd9c990155021d9fa6a47c9bfc43eda7bd598797e261bf710b53ee395ea0b6f56edc58d1d9c787446305fc88389ce9718b207db5dfad6a1ca0e8e6d635209b6afbdc43368b77dd93c997347c367ce00faf0da6d99cc338395047de7dda6b5b9a7a00a10af09136129174e070292db53df33f18fc61cbad13aac5fdf2c278156a1eeee78b15cf4280e6d7786388c52a36ed931c5e286c971be525312d75d937065d7c5ad29b5a141bce93b6278ccd1f42efc8c9bb590dd512a9bf52705578e044312fb11650551d876f6ee88100406500b9046752c7eede292a56a17a0e6eb7921367e19f75ca2638336a32b4569dd8f39b41f70969cd9a05a827e480a05cb02791583981775f4d2751d4e20dd9a3b1461c3bddfb9fe1a7f372cf2a23627f595b22ee0f4fafd3f8a9cc15e23c5fdd4adaa9a1a42f59a9302f970d24bdeb11e627376b7f299671c21f37ce9b1f2e7831631a11cc22cdbf29b1792b71eebc543b1081bf4f110f552615424f38c120a1796fe5d0f6d9c1d63837c8df1cca54f75b7845bd00596a7f2dda61e41c74d6622327bb89fc33239596a40310f4bd597404ff7dfb2cdb61868d5f71488be44ce9bd2424e4ad2ccc295b9cd38eced6bf283fad2d2f9bc23e92d900468d1f458eb0e856b4a4c6992adf962d03b647513a544e8852b3d83083c853dd6b83cba987214df761c8080dfcbd0e9a0634e26d5415c94fa3983a5fbe76dd0e58717b3d5dccbdb725db1cd8f0ff75b532c29b190a8fcb1a43f0e7e91e7be36569cb1cbe69ddc867b1f22fd0ec7ec35d93204bd6ba653ca2330ca6a3298a910e97d2eff4db2b35b593d257d7f57db49ae37438a7df282c706ba5097be985423e6f63143048db1c5dd730e0ea2092a2496b3f4403a4a77d869b776f1681698be80ff5dde35b93b9648185b1e27182f6b0294b327332e30c4b09cc9cdd1cd88e0e1747a8fc3ef4bc46bf6ffb510df3b66c12ac55c70389d5a05b69d3d43bd4274f64f32c0a05300854db5e40fb866c96ab329d0247c6d332512e8cd3495d8a42728c852925112650bd90b6907ee0792b9d0ab3d82bdaf8b2315546747f122bbe8cbd09666f327c86c0ccecf2118c5488916f700713d52e6fc83970e7b3ffa3c7869039f29996d10f6a19414ff9136f805dca5e0e2f11266fb1ca884ebf97cee4124d752ae290ec821962cdf958bb50a7343c6bcb390970a38c0c8180d0423b855884740341d57194e639c8712e1029e3e934dcacbe4c9b11186d82ce51cb32e68da02bb3da31533fd3904811962189c60c4483d65d1ee0f18f2e163db45b662448fcd367ab629d84c60003060c15212d2e4650578a91b7b9bcc5ec02060b262c49576c828393a3cfd4f302102b4e50575e686cabb7dbe5f3fe031a5ba0a1cad8e4faff000000000000000000000000000000000000000000001221303a01",
        "00ad2ed2fd83892df809103d8221f3e9ff5b1192f10f26dc9c5a97076069e2ff25309cbf81157b68bd05561556ad0c85f3adf8379b80595c3785988f91ece7269cd06acb30311be8f957d6d5c3130ba2bff182d17d01368282acc0b143af3675303cbfd5a3653e9048c4797a4a20506b9954283ac6a215515584fe0a28176df68cb5e9d356565904ab126aa649545206402e22f9b931d05f2676fc5182c807a535f27116d7785624d0f077e031a88a77bf1c1b3caf754e4b5ee1e038e8aeb79d24f9395c3a05167c2315cb797d8d7d32a58b3de3d26125c2289dd9335a3906eed3b4a21fb45835f8c5455bf38b15de04e29be902a449a3b1889a89254a70b4498e35c48165021a7825465a30f3485beec36492666986f8408c4822008eaf372ac28a9104acf13de1aa77e54e00b98e283b12cc503cdd862049ca61d68707d25156ab3edb3c4506a06647467d2578dab1b4ce92bc160264baa852c2685b64bd96d60d1a32b2fed61b5fb04f4df28449a67c567a6a9463a140d97e3962342f58b3aafb57786073caaa85dccd636cbe557cb92eb37eb4a1715f898d44a161757cc2a64b602b705fb57c28938d1b3d5212f67f77ac8dbf5c643cbdb8663c21a502b85aa1d037fd13ffb2e86b38c02e79a40a968a25f4789c75be7c8773f50990496b8f676d4bdfa8cbdf1a5d2e6199822636ec7a8c07680328439bbd8c75d3ee1dd980f35b74d64f90a4559f9471f0e602567ba8733c9729062ac95c982874b59429d7e3af753816de141076d67da25465b9901d765aecae27a0f8a4991cd55b9113846cce4898babc27b4138a57bc973093f9547852356f4038b64f43958cf0acba6c8ca1fba65008edae97332cae712e22911a863e6b6e85445fd652e7768db6c1ee4fe9814f480474de0b08d427e0829f2d2eed60a8b601e9e7b3fd88dc7bad9e35f7ae6e5fe873484b5b581d6b889857aa882ac59abfb0be2014466b0d4e497018b94d2a17df1af4c9fe6f3a7a3c0455490f41c54b15c20128d4c1798682f70a9888ae4c82cdcae99c94c1a360feaac6121d89bf5b5b254541161868a98fde2d8eae9333560fe1ead1f2fe1f5316e29c21bcc437f33cb794e585a06a30a5a0863a4a8ff6c4f066b42bc460687d124f3df1db910b012c64696d7aae7f58c2560c03d0b41e08bba0388d6a4d42efd1a743fa702a1e488d75fdf74cf0b9bc2bd67ea42472a057911e0f686b966d40a46284403964c767707704b3f1da34a22a7b1bd90220b030e8a90336ee263d7b7333b6657bbd768662d7f28c6c4f4a56c0a2371193a4b5496f075ff45e5d0c926240bae8ce5bfe057fc7d59f96c63be586940e967626b759e9c53b9cf69422964990cb03cc357b5165544c2eeb1b8fe5aa63b985903e633633dadf7c3b71d43ecc42c2dc09824d72e290b8a6ab1a3f091a2d462043c03989ddf727396f1ef84a3096c877a877cf59aae3f0b69e6fff0b7f29c950bac664da3028c4ba45d8eaf649dbddbfe5ea3a28d9b6ba97e890cb0dd4173026d24e950c15944303520dce8964e57b7d1551d43ebbf6e5110d37922230cfd70fb27ed643eefb2c0107fff1ab0479f66072e7e1bb487a8badefc80a416f6cef5541438e8eaff4c16cfd16777ebda40793b9c583ab438bc4c5c3778e514c20e31e2dd991930a2347d7599175af177781ce68dde2c82b3d58aa9a5bc23492fcd35f1ea262026b80962c4d2fa79bad49801cfb7a93093d9755de22052ab35423011d2712a38ef7ea1dbb53d18ab4336c7a1162993d77818dbad871f0150d3e82b88d3b6aebfd82bcfde9b128ed6dd434e58445ac11f26271f949e2d710d1cd2bf20e"
      ],
      "sequence": 4294967294
    }
  ],
  "vout": [
    {
      "value": 1.0,
      "n": 0,
      "scriptPubKey": {
        "asm": "OP_RETURN 2550c8125e9a3f41edccbe97f7f4a9ba1790ef25a17ee39719a7f80c2a21b591 2bc7a2003836065d4b21dffe895a1722af94cefe06100e57088f43eb3c4035350be782201816267d6b01ffdea97a37028fb4eede26302e7728af63cb1c6015156b87e2407876461d0b619fbec91a5762efd48ebe46504e1748cf03ab7c0075754ba7c2605856663d2b41bf9ee93a7742cff4ae9e66706e3768ef238b5c205555ab472280b8b686ddcba15f7e09da97a22f144e7e86908ed7880fc36bbcc0b5b58b6702a09896a6fdeb817f5e29fab7820f346e5ea6b0aef7a82fe34b9ce09595eb0762c0f8f6c69d8be11f3e499ad7e26f540e3ec6d0ce97c84f832bfc80f5f5cb2742e0d8d6e6bdabc13f1e69baf7c24f742e1ee6f0eeb7e86fa30bdca0d5d52bc7a2003836065d4b21dffe895a1722af94cefe06100e57088f43eb3c4035350be782201816267d6b01ffdea97a37028fb4eede26302e7728af63cb1c6015156b87e2407876461d0b619fbec91a5762efd48ebe46504e1748cf03ab7c0075754ba7c2605856663d2b41bf9ee93a7742cff4ae9e66706e3768ef238b5c205555ab472280b8b686ddcba15f7e09da97a22f144e7e86908ed7880fc36bbcc0b5b58b6702a09896a6fdeb817f5e29fab7820f346e5ea6b0aef7a82fe34b9ce09595eb0762c0f8f6c69d8be11f3e499ad7e26f540e3ec6d0ce97c84f832bfc80f5f5cb2742e0d8d6e6bdabc13f1e69baf7c24f742e1ee6f0eeb7e86fa30bdca0d5d52bc7a2003836065d4b21dffe895a1722af94cefe06100e57088f43eb3c4035350be782201816267d6b01ffdea97a37028fb4eede26302e7728af63cb1c6015156b87e2407876461d0b619fbec91a5762efd48ebe46504e1748cf03ab7c0075754ba7c2605856663d2b41bf9ee93a7742cff4ae9e66706e3768ef238b5c205555ab472280b8b686ddcba15f7e09da97a22f144e7e86908ed7880fc36bbcc0b5b58b6702a09896a6fdeb817f5e29fab7820f346e5ea6b0aef7a82fe34b9ce09595eb0762c0f8f6c69d8be11f3e499ad7e26f540e3ec6d0ce97c84f832bfc80f5f5cb2742e0d8d6e6bdabc13f1e69baf7c24f742e1ee6f0eeb7e86fa30bdca0d5d52bc7a2003836065d4b21dffe895a1722af94cefe06100e57088f43eb3c4035350be782201816267d6b01ffdea97a37028fb4eede26302e7728af63cb1c6015156b87e2407876461d0b619fbec91a5762efd48ebe46504e1748cf03ab7c0075754ba7c2605856663d2b41bf9ee93a7742cff4ae9e66706e3768ef238b5c205555ab472280b8b686ddcba15f7e09da97a22f144e7e86908ed7880fc36bbcc0b5b58b6702a09896a6fdeb817f5e29fab7820f346e5ea6b0aef7a82fe34b9ce09595eb0762c0f8f6c69d8be11f3e499ad7e26f540e3ec6d0ce97c84f832bfc80f5f5cb2742e0d8d6e6bdabc13f1e69baf7c24f742e1ee6f0eeb7e86fa30bdca0d5d52bc7a2003836065d4b21dffe895a1722af94cefe06100e57088f43eb3c4035350be782201816267d6b01ffdea97a37028fb4eede26302e7728af63cb1c6015156b87e2407876461d0b619fbec91a5762efd48ebe46504e1748cf03ab7c0075754ba7c2605856663d2b41bf9ee93a7742cff4ae9e66706e3768ef238b5c205555ab472280b8b686ddcba15f7e09da97a288d9f4f59ac5a48430acc4835bfdc2be18ea284874f474730ecbf8c46880658e",
        "hex": "6a202550c8125e9a3f41edccbe97f7f4a9ba1790ef25a17ee39719a7f80c2a21b5914db0042bc7a2003836065d4b21dffe895a1722af94cefe06100e57088f43eb3c4035350be782201816267d6b01ffdea97a37028fb4eede26302e7728af63cb1c6015156b87e2407876461d0b619fbec91a5762efd48ebe46504e1748cf03ab7c0075754ba7c2605856663d2b41bf9ee93a7742cff4ae9e66706e3768ef238b5c205555ab472280b8b686ddcba15f7e09da97a22f144e7e86908ed7880fc36bbcc0b5b58b6702a09896a6fdeb817f5e29fab7820f346e5ea6b0aef7a82fe34b9ce09595eb0762c0f8f6c69d8be11f3e499ad7e26f540e3ec6d0ce97c84f832bfc80f5f5cb2742e0d8d6e6bdabc13f1e69baf7c24f742e1ee6f0eeb7e86fa30bdca0d5d52bc7a2003836065d4b21dffe895a1722af94cefe06100e57088f43eb3c4035350be782201816267d6b01ffdea97a37028fb4eede26302e7728af63cb1c6015156b87e2407876461d0b619fbec91a5762efd48ebe46504e1748cf03ab7c0075754ba7c2605856663d2b41bf9ee93a7742cff4ae9e66706e3768ef238b5c205555ab472280b8b686ddcba15f7e09da97a22f144e7e86908ed7880fc36bbcc0b5b58b6702a09896a6fdeb817f5e29fab7820f346e5ea6b0aef7a82fe34b9ce09595eb0762c0f8f6c69d8be11f3e499ad7e26f540e3ec6d0ce97c84f832bfc80f5f5cb2742e0d8d6e6bdabc13f1e69baf7c24f742e1ee6f0eeb7e86fa30bdca0d5d52bc7a2003836065d4b21dffe895a1722af94cefe06100e57088f43eb3c4035350be782201816267d6b01ffdea97a37028fb4eede26302e7728af63cb1c6015156b87e2407876461d0b619fbec91a5762efd48ebe46504e1748cf03ab7c0075754ba7c2605856663d2b41bf9ee93a7742cff4ae9e66706e3768ef238b5c205555ab472280b8b686ddcba15f7e09da97a22f144e7e86908ed7880fc36bbcc0b5b58b6702a09896a6fdeb817f5e29fab7820f346e5ea6b0aef7a82fe34b9ce09595eb0762c0f8f6c69d8be11f3e499ad7e26f540e3ec6d0ce97c84f832bfc80f5f5cb2742e0d8d6e6bdabc13f1e69baf7c24f742e1ee6f0eeb7e86fa30bdca0d5d52bc7a2003836065d4b21dffe895a1722af94cefe06100e57088f43eb3c4035350be782201816267d6b01ffdea97a37028fb4eede26302e7728af63cb1c6015156b87e2407876461d0b619fbec91a5762efd48ebe46504e1748cf03ab7c0075754ba7c2605856663d2b41bf9ee93a7742cff4ae9e66706e3768ef238b5c205555ab472280b8b686ddcba15f7e09da97a22f144e7e86908ed7880fc36bbcc0b5b58b6702a09896a6fdeb817f5e29fab7820f346e5ea6b0aef7a82fe34b9ce09595eb0762c0f8f6c69d8be11f3e499ad7e26f540e3ec6d0ce97c84f832bfc80f5f5cb2742e0d8d6e6bdabc13f1e69baf7c24f742e1ee6f0eeb7e86fa30bdca0d5d52bc7a2003836065d4b21dffe895a1722af94cefe06100e57088f43eb3c4035350be782201816267d6b01ffdea97a37028fb4eede26302e7728af63cb1c6015156b87e2407876461d0b619fbec91a5762efd48ebe46504e1748cf03ab7c0075754ba7c2605856663d2b41bf9ee93a7742cff4ae9e66706e3768ef238b5c205555ab472280b8b686ddcba15f7e09da97a288d9f4f59ac5a48430acc4835bfdc2be18ea284874f474730ecbf8c46880658e",
        "type": "nulldata"
      }
    },
    {
      "value": 499988.8141,
      "n": 1,
      "scriptPubKey": {
        "asm": "1 dd0a7cb2733d91605fa8801645962b850289ce18a2872abce6febab14e3df5bf",
        "hex": "5120dd0a7cb2733d91605fa8801645962b850289ce18a2872abce6febab14e3df5bf",
        "reqSigs": 1,
        "type": "witness_v1_scripthash",
        "addresses": [
          "3QJmnh"
        ]
      }
    }
  ],
  "blockhash": "2c44072194b49e49486c87ae6b37abdd6c2c23e2c7b477f70371a1b5276080d1",
  "confirmations": 1,
  "time": 1764179865,
  "blocktime": 1764179865
}