{
  "hex": "01000000000101d1ef68df45839ebcf817f5584ccf08ffb0afe3931205cc00bdf68f730b71c4510000000000feffffff0250771315792d00002251203f9dd9738f9362c966fbc4b50a830f5225e20ace446ab6b78d09a04a62c0ac0a00e1f50500000000fdd5046a2035f9fa00b9784a426945ef1f332ebd76e409aebf9b3443e146fd8326f3e17ebf4db00496f0012a11cbcaca3c178c90a668692f23e5cae2da872b607e07c13273d91863b6d0210a31ebeaea1c37acb08648490f03c5eac2faa70b405e27e11253f93843d6b0416a518b8a8a7c57ccd0e628296f63a58aa29ac76b203e47817233995823f690614a71abaaaa5c77ecf0c608094f4385aa82bae74b001e67a15213b97803167081aa914b4a4abc970c1026e8e9afa3654a625a07abe0fe8741b2f35998e33650a18ab16b6a6a9cb72c3006c8c98f83456a427a278bc0dea76192d379b8c35630c1ead10b0a0afcd74c5066a8a9efe3250a221a47eba0bec701f2b319d8a37610e1caf12b2a2adcf76c70468889cfc3052a023a67cb809ee721d29339f88396f0012a11cbcaca3c178c90a668692f23e5cae2da872b607e07c13273d91863b6d0210a31ebeaea1c37acb08648490f03c5eac2faa70b405e27e11253f93843d6b0416a518b8a8a7c57ccd0e628296f63a58aa29ac76b203e47817233995823f690614a71abaaaa5c77ecf0c608094f4385aa82bae74b001e67a15213b97803167081aa914b4a4abc970c1026e8e9afa3654a625a07abe0fe8741b2f35998e33650a18ab16b6a6a9cb72c3006c8c98f83456a427a278bc0dea76192d379b8c35630c1ead10b0a0afcd74c5066a8a9efe3250a221a47eba0bec701f2b319d8a37610e1caf12b2a2adcf76c70468889cfc3052a023a67cb809ee721d29339f88396f0012a11cbcaca3c178c90a668692f23e5cae2da872b607e07c13273d91863b6d0210a31ebeaea1c37acb08648490f03c5eac2faa70b405e27e11253f93843d6b0416a518b8a8a7c57ccd0e628296f63a58aa29ac76b203e47817233995823f690614a71abaaaa5c77ecf0c608094f4385aa82bae74b001e67a15213b97803167081aa914b4a4abc970c1026e8e9afa3654a625a07abe0fe8741b2f35998e33650a18ab16b6a6a9cb72c3006c8c98f83456a427a278bc0dea76192d379b8c35630c1ead10b0a0afcd74c5066a8a9efe3250a221a47eba0bec701f2b319d8a37610e1caf12b2a2adcf76c70468889cfc3052a023a67cb809ee721d29339f88396f0012a11cbcaca3c178c90a668692f23e5cae2da872b607e07c13273d91863b6d0210a31ebeaea1c37acb08648490f03c5eac2faa70b405e27e11253f93843d6b0416a518b8a8a7c57ccd0e628296f63a58aa29ac76b203e47817233995823f690614a71abaaaa5c77ecf0c608094f4385aa82bae74b001e67a15213b97803167081aa914b4a4abc970c1026e8e9afa3654a625a07abe0fe8741b2f35998e33650a18ab16b6a6a9cb72c3006c8c98f83456a427a278bc0dea76192d379b8c35630c1ead10b0a0afcd74c5066a8a9efe3250a221a47eba0bec701f2b319d8a37610e1caf12b2a2adcf76c70468889cfc3052a023a67cb809ee721d29339f88396f0012a11cbcaca3c178c90a668692f23e5cae2da872b607e07c13273d91863b6d0210a31ebeaea1c37acb08648490f03c5eac2faa70b405e27e11253f93843d6b0416a518b8a8a7c57ccd0e628296f63a58aa29ac76b203e47817233995823f690614a71abaaaa5c77ecf0c608094f4385aa82bae74b001e67a15213b97803167081aa914b4a4abc970c1026e8e9afa9125756b9d3d3560933eac232da5e02703fce48b3a2249b772b3db836730b5402fd75091cd28e1d0586fcf37b3387c18804f44820a1074b1e1bcfa325e06eb59c11e3983925ccd4faa7e40641e95d846bd94df39a76b98cc22d2f725fcf04747fb76518ff9a3ef791aa8a18ed38d0cf63b257c02b33e3b112f59b1b3ebead897b84fa62aa7998edf2668f620f1bdcb8fa8ee4c5c282e53c084dd14f61390a280f21285897499768318e888ddb3d231d793cf53acfd635de00007ad03bf2f04de83c0f34273084d941361270906fceffb1482995b0143f2f115940a780c2353c71ce2cec019058569d589c896e4b42e4dfebab0d80c9f13493b14349a50c138b048a64ce39d834a4be355fbbe725d58adb67e94d740ad5f7f2ff7749ded5a013a644533fd0e0acff576f2f62ef0f5e2450e472884ebf8ab072a1878d3fe9d38706121b2d4e6c4c60827adf5d4915b0a6e106da9d1bae021b7a2e7dc5c5170ebf48b64b434e2dd4d41e5cb1fc60182e178259c3604fb0cea8389cb8df2704c6935281d2b7cb7b8224245c2d07f60a542085a94fc73b9d7e5770413d1967a0bb004c3e9c62509646d6f3157af6f2b1632d4d8ffe1b41067168f42cce9b3158f35c13925dcc395a0f309aa320fc32b76be2cd06c13bc8a0015b7df9932c96798c7f4bdacfad57ebf427aec3012386ade4ab947f7b4addfc1198b976faac7f6a4861aa856aff0037717a87646d8429619b4dad77a4de7b10fa72b4b96395af4f2e8b8301c402b125cc08f48250cffb2a38c6468b6066e805dd79d962b203d81cfb144ee02d994e075a555ef1a6ae0366c243f56c7c4faae69c9b6b5b6612ec3952fce6d091cee676b1bd54f8555d39bcad125e535fcb6e00bb2ae373e26813d9344de69e63ef0712095a91daa7f16b88cf6a721cc220e58fb569b89b1b193e61e00d915c3581984b96c8df2cd5bf7403fb4dac61d609776e2891628e0ac122ff975eab4e94f92a3a82511c37acdcfd13334cb417fca155c48c2a38f5656b1b8155584abfebf6ca6996392a36027be9dd324b060a4b2873c9e18bd97ef17e0cf845cf4b739baafd05c43a003deab011bda696ef5964913ac02d15aac69c696f10ac0d12c952437b099344ae60acdb18504a277df7567c3a0df239c5244f7b65174cecd45e6ff7fc24003d88266f29bf2ad78810f649c52188957b471f87aabc1c32f219cbca9c35e3dfcab37ebe5cd19b01c85b5e98594fb3139cf13e0b37356f44b5409447e9bbf110baa6d77ba2c5f74b53bd8312a92cdb7a1edc7542aafd5ae637521be8a960e9b03a953282a3382dd6f300296c6513342c585813a338e9d8611f8fa964b0888f80d3c858c87e23e3c3b36c8717b4300a366696d39f9b73dbbcb5b0f0bde5649238fa5e9828bd0d12835423d70fa3f8012605cbbd5eb68a38fb8944aa1ec00e04efe05ace8726d34f78a64c711e9f7a2dfdcc6d1e22688c10d731a4a128c2f4c6d9856056ee077f7fbcfac9572d25a6534ae41230dc15294a23f0f254d7673cb53859fe07d751fc5648bf0bc300f51ab3174a5274122a787cd068baacc590c1d1feebfc375dd7690d9db19e89c42dc9ba6f3c44913a01908338a593419b166872719a26c8f1ab3fff3df8258e70316434327b92ab60c7f7220ffb5a2959241b13e495848927aa6c27f8a899cb921510cd689bfeb960be3febe754df8ae94b724f3c869f7b6375cfe23a4934bce271f6acc66206c5c1ff84b537f15101a17981ba2b9b52add46a3a5f1423c4d82a35ff09a5769d36bbfbf982101440b9c4891722e1acd2222c28debdefba329cffb2c97ebd690f4018267a1cb41a2c01cd595431c2595df847896e3360bdf8a2714998768dd980bb8c8aadfcc902f41a9e647f2e043b7ce9a7a455445840909ca0bb30d4e2bd1555220a04f937080d14ac7e1e1778fa00b59ec3fedaca1cbfa723210f0adae3eb46c798ed0a32a12ccfa7a9634c260d3f27d063b585b4dfc39a2ea0477d6922e2702773faec346687438d7f46cab91f298481b66549e4893bbca59298eee329304470f515a6dba095abf734a3f7394a3400322970726d879580dcf19a171620af4ec47bc9cc3528e10043190b9e709d285bb3ece21dee613aef8ce9faba72c7589204118f6df4e24a72bd3cc833e00ab8d3ea3847f36d74c416a8556a0153f4ddc59b187cb817e1cf39ee0fd293ca7f6fa7576329613426b173a752147a33dc445ea07c0fb61da4812707adfc56090b85c3b20fa05f91a83d55904959abb303d532a48f334395a7c425713f0b942dccb405139eae36b8d51ae12da488a4595bab180e23144ffa780595e082f0bdfb3db6cc6a427c861d963f46581ca393a2e6f19b67c111cf5020d38a3d3c0047b99c7ca20f759ec3a78f9b3e252bddabc2c9ae1f9ef29627c78b786e893a95b5d2a8944faa9d5307c7365c0b127ac76d9e968ecec4977891945b3f1fe0517070af03772f0668b299f7586f6778dd6289f4d72e779e116e480137063292d60cb2aed0647384e3ba776e4d9344b1bc277d854c82d597acd859e0e4fd4ec6182eaf69a4e3d48aa448582568a4196080b1244fdbe67357447983a7e7b8c407e77cd1fe093bbfbb4be326267bb6039cad143d78536367784078db5278efcbd006f7c509740973dc2404f707aaceac2b75b16405287fa0d76287597450e1d13862ba3df4a4691980d10ea48278f13d363950aaf1f48efccb81b42268e27c2995cb6d2f24b74b55b5d7140df2048dd87df26ff37623f1d667f463359ac33575edefde2e0ad3d65512a81f6a0f530b9087a713c85293494a58771158ef36b15bd058c7df4b21967582668adde49406539877e450732a491a14d2d9ba3bcda83268cbf5c685a1dec09bfbcfafaf744618578c71169e1d5e5146dd2e48b94d16135f52b3eb09b856f409a2e76ffa4b1f4505051256eb86851bb3f113237a979cd6f91acf2affbb74b6ec081c338a967a7f64b31acc69fade6ec00f8f3bd8e9034b41bf56be3c6a6a4d8492d737cd94be73dc95fb93bfa96a06a2b631e5eb34c0b7411742e1175eabe6c5a51033f5dd357335bb33486b8349ff3e697cc70196d384c6dd6a51b5f9a4e00d189df8d9b4edbd287a9fea2aeb0924c7575957d47e70750129ccd3b35e911fb0eab60b28e09c6c7897288a18992799267c4b5f0a26f52c86d3b90de19a6d8ce10f1dcd0523fbc5dbf4dd5eb2c432f209eb99531c925c8b33570326cb732f067e8d48baab19269a876e5f0d61af84afb80324e5705e609cdce3c76ad7cd657a4d072339b38c38217fa93ee3c5413a3279e9045b04c78b9bcde6124f5288b3cbdde8ea0c1a1c41465b5d5e666d7893969dcbd8e0eaedeff01b1e1f4966747f8c969ecdd2fb01041c272a43484a6272747d8485969ac2c3c5cad5f0000000000000000000000000000000091e2b4101fd210500743df41bb51bfa323b78da1b5258e1411fb81f275075c3dff7813c37b3e835f4d0c0f279cd3d10a5e387b506215621b4f352e0d0eb7c3710acc4b149fd20421d40c46979c25faa2eee2f21c1e94a9f4d68d75c538308d68baffc8fa4fd7ac8b6b40c517870249786915321821dbfa0051799bcf00d091c0f7117decf122e4eda9014279e258d5756243417dd843098b8f09b53a57a70f3ac31d9c8e9603a4243cec8ec02d7e305a4804f34f46ce65ab030173d592e5cd0e5c45839d82d2b2cf91cf03bdaa99fc8ccac3b6ab234087a3f0b4bca91fdae0977fb5afa5bf20b5e7c9c15e55cde6170364c9bb352b12d0477fb01f311321ba85001747d470c99f4d574a33b6251bd6d6211a0b468dbe77fb2174423dec6fb7b9df1d9ebae3332d20be786f0edf6dbe5daa7a8c571a4679ec3db455cf7cec2a667cf237949968985131aed420ccbab245177320d8337eaac55176a658bf4ae2e495d8185251daceb482cd97812a937fd6a50b4859ddead9231701835fff4cd933e75a4ca289e25dfd648af94b2ce3bcce5102fb80ef27ad1f63aa730c962843b382bb48ef427079cb2c20e5c2e0283ec58b494a6b04013479e056398845f4b898ac7ba9779c39d407f65c17b0d8eb0f65feac7394d8e14d57c0e7976da4fac5f8de53b19dd01b2477c44b4e26ed93120aedbf825a2f74ef021d51629e6366a71aac3cd42240fc3ef456495c72b75dabb1ef20163170baa0791708e965c08df2d5722d15b3effe69e74a0ccb032917f2e758c3ec3d92d9e80151714167036288f4efcc6fd969312055635bb4f5f9900c082a7fb026200e5dabc97b99d9732d0c2ab4154378f70cde6a0751efc817205d1e1b7164ccc33ea5709fbeb7c24e61886c65ff40d744515f6e7cdfc62e997d319085f87e389895913b54a0dab65662c58a6a9b390ede6525f41bf17856a07899a24552729f4df53d97766328d3b1e7d974b95ccc420bb7a852bbb0d7ab9db14fe38c94b3edafe742a75cd2546c80f6b67ee194ac3302beb063086f601946f1efd45d052acf66f5c332fcb39c76b0b16436eb1804bc74ee8c8ecb09c823f3e4364cfef392ecaf9f4b280fd6edae1f8638859f28930ba62cc83437979ace5b1f8aee114f63ba3f1c8ea360d83897e23241c5ee432fd2735b43a694a212aece912d4427980d22f4c50d33d925531a32b89c376597cf974737114db7fff2db8cc8a3f2cd6b2af4853855c53bf7e0abfd259777b812e473b6ebe58bfebd9ba814c6122e88c1d125f09c2d941defb7e7db8bce642513d5ac975e577c5ad35602b552021f4506bf8942a6c1b3206c83f96bace09d5ae0ef1e4407336ac12243a855b29fcd74ca127705e343d3a577a061ba21fa79abf92a25585790376b0601793f532d805a7fa8793e2260af46e9260df8f6e0fc3e45f6819b92516359452922df1e51c18e63491849ba0d173a2af5e780d59ddab59d7a3325a0c5a818388c8bcd941e8515dbb02e86934cb5211a45e741e94f2e5ec9ca69101930cbf2736bb482d535999463d9c497beb0750392f3bf40fbdfd9e2dd59fe56c544ffcfdf6a62d2c52a670c7fe754f83a8a549418a84cc95c1860e8d74a818e21c3b6796469b3e458b1b11f7a46f1c6782a62aefabccf89297a5c68937a7584f1d91b46bec2c7b5641f2fb88914e157f3f9fb30a250210463fe52d77cf7ac83d7fc453a58f4650b02042ab795dfd6a1a7a69fa532332881fe5da6f654f33468b06cf52f23ce1a5d275dd04137491350add9580b08d1cebe6fcdbde41d046fa11c9902bda8e68d45da8d2678e1f959c1ac58b22d77502e977822ea960c78bdd08b536e31b000000",
  "txid": "47318722c97e5aae263221fd8a07a845ac1c0f7a2357595a42c469736ddd25d0",
  "hash": "a8d7f15a8740534c4f1a6d8b553376a0aed4e3e70b97b8fe220a9615d40e9c38",
  "size": 5085,
  "vsize": 2278,
  "version": 1,
  "locktime": 27,
  "vin": [
    {
      "txid": "51c4710b738ff6bd00cc051293e3afb0ff08cf4c58f517f8bc9e8345df68efd1",
      "vout": 0,
      "scriptSig": {
        "asm": "",
        "hex": ""
      },
      "txinwitness": [
        "1cd28e1d0586fcf37b3387c18804f44820a1074b1e1bcfa325e06eb59c11e3983925ccd4faa7e40641e95d846bd94df39a76b98cc22d2f725fcf04747fb76518ff9a3ef791aa8a18ed38d0cf63b257c02b33e3b112f59b1b3ebead897b84fa62aa7998edf2668f620f1bdcb8fa8ee4c5c282e53c084dd14f61390a280f21285897499768318e888ddb3d231d793cf53acfd635de00007ad03bf2f04de83c0f34273084d941361270906fceffb1482995b0143f2f115940a780c2353c71ce2cec019058569d589c896e4b42e4dfebab0d80c9f13493b14349a50c138b048a64ce39d834a4be355fbbe725d58adb67e94d740ad5f7f2ff7749ded5a013a644533fd0e0acff576f2f62ef0f5e2450e472884ebf8ab072a1878d3fe9d38706121b2d4e6c4c60827adf5d4915b0a6e106da9d1bae021b7a2e7dc5c5170ebf48b64b434e2dd4d41e5cb1fc60182e178259c3604fb0cea8389cb8df2704c6935281d2b7cb7b8224245c2d07f60a542085a94fc73b9d7e5770413d1967a0bb004c3e9c62509646d6f3157af6f2b1632d4d8ffe1b41067168f42cce9b3158f35c13925dcc395a0f309aa320fc32b76be2cd06c13bc8a0015b7df9932c96798c7f4bdacfad57ebf427aec3012386ade4ab947f7b4addfc1198b976faac7f6a4861aa856aff0037717a87646d8429619b4dad77a4de7b10fa72b4b96395af4f2e8b8301c402b125cc08f48250cffb2a38c6468b6066e805dd79d962b203d81cfb144ee02d994e075a555ef1a6ae0366c243f56c7c4faae69c9b6b5b6612ec3952fce6d091cee676b1bd54f8555d39bcad125e535fcb6e00bb2ae373e26813d9344de69e63ef0712095a91daa7f16b88cf6a721cc220e58fb569b89b1b193e61e00d915c3581984b96c8df2cd5bf7403fb4dac61d609776e2891628e0ac122ff975eab4e94f92a3a82511c37acdcfd13334cb417fca155c48c2a38f5656b1b8155584abfebf6ca6996392a36027be9dd324b060a4b2873c9e18bd97ef17e0cf845cf4b739baafd05c43a003deab011bda696ef5964913ac02d15aac69c696f10ac0d12c952437b099344ae60acdb18504a277df7567c3a0df239c5244f7b65174cecd45e6ff7fc24003d88266f29bf2ad78810f649c52188957b471f87aabc1c32f219cbca9c35e3dfcab37ebe5cd19b01c85b5e98594fb3139cf13e0b37356f44b5409447e9bbf110baa6d77ba2c5f74b53bd8312a92cdb7a1edc7542aafd5ae637521be8a960e9b03a953282a3382dd6f300296c6513342c585813a338e9d8611f8fa964b0888f80d3c858c87e23e3c3b36c8717b4300a366696d39f9b73dbbcb5b0f0bde5649238fa5e9828bd0d12835423d70fa3f8012605cbbd5eb68a38fb8944aa1ec00e04efe05ace8726d34f78a64c711e9f7a2dfdcc6d1e22688c10d731a4a128c2f4c6d9856056ee077f7fbcfac9572d25a6534ae41230dc15294a23f0f254d7673cb53859fe07d751fc5648bf0bc300f51ab3174a5274122a787cd068baacc590c1d1feebfc375dd7690d9db19e89c42dc9ba6f3c44913a01908338a593419b166872719a26c8f1ab3fff3df8258e70316434327b92ab60c7f7220ffb5a2959241b13e495848927aa6c27f8a899cb921510cd689bfeb960be3febe754df8ae94b724f3c869f7b6375cfe23a4934bce271f6acc66206c5c1ff84b537f15101a17981ba2b9b52add46a3a5f1423c4d82a35ff09a5769d36bbfbf982101440b9c4891722e1acd2222c28debdefba329cffb2c97ebd690f4018267a1cb41a2c01cd595431c2595df847896e3360bdf8a2714998768dd980bb8c8aadfcc902f41a9e647f2e043b7ce9a7a455445840909ca0bb30d4e2bd1555220a04f937080d14ac7e1e1778fa00b59ec3fedaca1cbfa723210f0adae3eb46c798ed0a32a12ccfa7a9634c260d3f27d063b585b4dfc39a2ea0477d6922e2702773faec346687438d7f46cab91f298481b66549e4893bbca59298eee329304470f515a6dba095abf734a3f7394a3400322970726d879580dcf19a171620af4ec47bc9cc3528e10043190b9e709d285bb3ece21dee613aef8ce9faba72c7589204118f6df4e24a72bd3cc833e00ab8d3ea3847f36d74c416a8556a0153f4ddc59b187cb817e1cf39ee0fd293ca7f6fa7576329613426b173a752147a33dc445ea07c0fb61da4812707adfc56090b85c3b20fa05f91a83d55904959abb303d532a48f334395a7c425713f0b942dccb405139eae36b8d51ae12da488a4595bab180e23144ffa780595e082f0bdfb3db6cc6a427c861d963f46581ca393a2e6f19b67c111cf5020d38a3d3c0047b99c7ca20f759ec3a78f9b3e252bddabc2c9ae1f9ef29627c78b786e893a95b5d2a8944faa9d5307c7365c0b127ac76d9e968ecec4977891945b3f1fe0517070af03772f0668b299f7586f6778dd6289f4d72e779e116e480137063292d60cb2aed0647384e3ba776e4d9344b1bc277d854c82d597acd859e0e4fd4ec6182eaf69a4e3d48aa448582568a4196080b1244fdbe67357447983a7e7b8c407e77cd1fe093bbfbb4be326267bb6039cad143d78536367784078db5278efcbd006f7c509740973dc2404f707aaceac2b75b16405287fa0d76287597450e1d13862ba3df4a4691980d10ea48278f13d363950aaf1f48efccb81b42268e27c2995cb6d2f24b74b55b5d7140df2048dd87df26ff37623f1d667f463359ac33575edefde2e0ad3d65512a81f6a0f530b9087a713c85293494a58771158ef36b15bd058c7df4b21967582668adde49406539877e450732a491a14d2d9ba3bcda83268cbf5c685a1dec09bfbcfafaf744618578c71169e1d5e5146dd2e48b94d16135f52b3eb09b856f409a2e76ffa4b1f4505051256eb86851bb3f113237a979cd6f91acf2affbb74b6ec081c338a967a7f64b31acc69fade6ec00f8f3bd8e9034b41bf56be3c6a6a4d8492d737cd94be73dc95fb93bfa96a06a2b631e5eb34c0b7411742e1175eabe6c5a51033f5dd357335bb33486b8349ff3e697cc70196d384c6dd6a51b5f9a4e00d189df8d9b4edbd287a9fea2aeb0924c7575957d47e70750129ccd3b35e911fb0eab60b28e09c6c7897288a18992799267c4b5f0a26f52c86d3b90de19a6d8ce10f1dcd0523fbc5dbf4dd5eb2c432f209eb99531c925c8b33570326cb732f067e8d48baab19269a876e5f0d61af84afb80324e5705e609cdce3c76ad7cd657a4d072339b38c38217fa93ee3c5413a3279e9045b04c78b9bcde6124f5288b3cbdde8ea0c1a1c41465b5d5e666d7893969dcbd8e0eaedeff01b1e1f4966747f8c969ecdd2fb01041c272a43484a6272747d8485969ac2c3c5cad5f0000000000000000000000000000000091e2b4101",
        "00743df41bb51bfa323b78da1b5258e1411fb81f275075c3dff7813c37b3e835f4d0c0f279cd3d10a5e387b506215621b4f352e0d0eb7c3710acc4b149fd20421d40c46979c25faa2eee2f21c1e94a9f4d68d75c538308d68baffc8fa4fd7ac8b6b40c517870249786915321821dbfa0051799bcf00d091c0f7117decf122e4eda9014279e258d5756243417dd843098b8f09b53a57a70f3ac31d9c8e9603a4243cec8ec02d7e305a4804f34f46ce65ab030173d592e5cd0e5c45839d82d2b2cf91cf03bdaa99fc8ccac3b6ab234087a3f0b4bca91fdae0977fb5afa5bf20b5e7c9c15e55cde6170364c9bb352b12d0477fb01f311321ba85001747d470c99f4d574a33b6251bd6d6211a0b468dbe77fb2174423dec6fb7b9df1d9ebae3332d20be786f0edf6dbe5daa7a8c571a4679ec3db455cf7cec2a667cf237949968985131aed420ccbab245177320d8337eaac55176a658bf4ae2e495d8185251daceb482cd97812a937fd6a50b4859ddead9231701835fff4cd933e75a4ca289e25dfd648af94b2ce3bcce5102fb80ef27ad1f63aa730c962843b382bb48ef427079cb2c20e5c2e0283ec58b494a6b04013479e056398845f4b898ac7ba9779c39d407f65c17b0d8eb0f65feac7394d8e14d57c0e7976da4fac5f8de53b19dd01b2477c44b4e26ed93120aedbf825a2f74ef021d51629e6366a71aac3cd42240fc3ef456495c72b75dabb1ef20163170baa0791708e965c08df2d5722d15b3effe69e74a0ccb032917f2e758c3ec3d92d9e80151714167036288f4efcc6fd969312055635bb4f5f9900c082a7fb026200e5dabc97b99d9732d0c2ab4154378f70cde6a0751efc817205d1e1b7164ccc33ea5709fbeb7c24e61886c65ff40d744515f6e7cdfc62e997d319085f87e389895913b54a0dab65662c58a6a9b390ede6525f41bf17856a07899a24552729f4df53d97766328d3b1e7d974b95ccc420bb7a852bbb0d7ab9db14fe38c94b3edafe742a75cd2546c80f6b67ee194ac3302beb063086f601946f1efd45d052acf66f5c332fcb39c76b0b16436eb1804bc74ee8c8ecb09c823f3e4364cfef392ecaf9f4b280fd6edae1f8638859f28930ba62cc83437979ace5b1f8aee114f63ba3f1c8ea360d83897e23241c5ee432fd2735b43a694a212aece912d4427980d22f4c50d33d925531a32b89c376597cf974737114db7fff2db8cc8a3f2cd6b2af4853855c53bf7e0abfd259777b812e473b6ebe58bfebd9ba814c6122e88c1d125f09c2d941defb7e7db8bce642513d5ac975e577c5ad35602b552021f4506bf8942a6c1b3206c83f96bace09d5ae0ef1e4407336ac12243a855b29fcd74ca127705e343d3a577a061ba21fa79abf92a25585790376b0601793f532d805a7fa8793e2260af46e9260df8f6e0fc3e45f6819b92516359452922df1e51c18e63491849ba0d173a2af5e780d59ddab59d7a3325a0c5a818388c8bcd941e8515dbb02e86934cb5211a45e741e94f2e5ec9ca69101930cbf2736bb482d535999463d9c497beb0750392f3bf40fbdfd9e2dd59fe56c544ffcfdf6a62d2c52a670c7fe754f83a8a549418a84cc95c1860e8d74a818e21c3b6796469b3e458b1b11f7a46f1c6782a62aefabccf89297a5c68937a7584f1d91b46bec2c7b5641f2fb88914e157f3f9fb30a250210463fe52d77cf7ac83d7fc453a58f4650b02042ab795dfd6a1a7a69fa532332881fe5da6f654f33468b06cf52f23ce1a5d275dd04137491350add9580b08d1cebe6fcdbde41d046fa11c9902bda8e68d45da8d2678e1f959c1ac58b22d77502e977822ea960c78bdd08b536e3"
      ],
      "sequence": 4294967294
    }
  ],
  "vout": [
    {
      "value": 499980.6789,
      "n": 0,
      "scriptPubKey": {
        "asm": "1 3f9dd9738f9362c966fbc4b50a830f5225e20ace446ab6b78d09a04a62c0ac0a",
        "hex": "51203f9dd9738f9362c966fbc4b50a830f5225e20ace446ab6b78d09a04a62c0ac0a",
        "reqSigs": 1,
        "type": "witness_v1_scripthash",
        "addresses": [
          "3QJmnh"
        ]
      }
    },
    {
      "value": 1.0,
      "n": 1,
      "scriptPubKey": {
        "asm": "OP_RETURN 35f9fa00b9784a426945ef1f332ebd76e409aebf9b3443e146fd8326f3e17ebf 96f0012a11cbcaca3c178c90a668692f23e5cae2da872b607e07c13273d91863b6d0210a31ebeaea1c37acb08648490f03c5eac2faa70b405e27e11253f93843d6b0416a518b8a8a7c57ccd0e628296f63a58aa29ac76b203e47817233995823f690614a71abaaaa5c77ecf0c608094f4385aa82bae74b001e67a15213b97803167081aa914b4a4abc970c1026e8e9afa3654a625a07abe0fe8741b2f35998e33650a18ab16b6a6a9cb72c3006c8c98f83456a427a278bc0dea76192d379b8c35630c1ead10b0a0afcd74c5066a8a9efe3250a221a47eba0bec701f2b319d8a37610e1caf12b2a2adcf76c70468889cfc3052a023a67cb809ee721d29339f88396f0012a11cbcaca3c178c90a668692f23e5cae2da872b607e07c13273d91863b6d0210a31ebeaea1c37acb08648490f03c5eac2faa70b405e27e11253f93843d6b0416a518b8a8a7c57ccd0e628296f63a58aa29ac76b203e47817233995823f690614a71abaaaa5c77ecf0c608094f4385aa82bae74b001e67a15213b97803167081aa914b4a4abc970c1026e8e9afa3654a625a07abe0fe8741b2f35998e33650a18ab16b6a6a9cb72c3006c8c98f83456a427a278bc0dea76192d379b8c35630c1ead10b0a0afcd74c5066a8a9efe3250a221a47eba0bec701f2b319d8a37610e1caf12b2a2adcf76c70468889cfc3052a023a67cb809ee721d29339f88396f0012a11cbcaca3c178c90a668692f23e5cae2da872b607e07c13273d91863b6d0210a31ebeaea1c37acb08648490f03c5eac2faa70b405e27e11253f93843d6b0416a518b8a8a7c57ccd0e628296f63a58aa29ac76b203e47817233995823f690614a71abaaaa5c77ecf0c608094f4385aa82bae74b001e67a15213b97803167081aa914b4a4abc970c1026e8e9afa3654a625a07abe0fe8741b2f35998e33650a18ab16b6a6a9cb72c3006c8c98f83456a427a278bc0dea76192d379b8c35630c1ead10b0a0afcd74c5066a8a9efe3250a221a47eba0bec701f2b319d8a37610e1caf12b2a2adcf76c70468889cfc3052a023a67cb809ee721d29339f88396f0012a11cbcaca3c178c90a668692f23e5cae2da872b607e07c13273d91863b6d0210a31ebeaea1c37acb08648490f03c5eac2faa70b405e27e11253f93843d6b0416a518b8a8a7c57ccd0e628296f63a58aa29ac76b203e47817233995823f690614a71abaaaa5c77ecf0c608094f4385aa82bae74b001e67a15213b97803167081aa914b4a4abc970c1026e8e9afa3654a625a07abe0fe8741b2f35998e33650a18ab16b6a6a9cb72c3006c8c98f83456a427a278bc0dea76192d379b8c35630c1ead10b0a0afcd74c5066a8a9efe3250a221a47eba0bec701f2b319d8a37610e1caf12b2a2adcf76c70468889cfc3052a023a67cb809ee721d29339f88396f0012a11cbcaca3c178c90a668692f23e5cae2da872b607e07c13273d91863b6d0210a31ebeaea1c37acb08648490f03c5eac2faa70b405e27e11253f93843d6b0416a518b8a8a7c57ccd0e628296f63a58aa29ac76b203e47817233995823f690614a71abaaaa5c77ecf0c608094f4385aa82bae74b001e67a15213b97803167081aa914b4a4abc970c1026e8e9afa9125756b9d3d3560933eac232da5e02703fce48b3a2249b772b3db836730b54",
        "hex": "6a2035f9fa00b9784a426945ef1f332ebd76e409aebf9b3443e146fd8326f3e17ebf4db00496f0012a11cbcaca3c178c90a668692f23e5cae2da872b607e07c13273d91863b6d0210a31ebeaea1c37acb08648490f03c5eac2faa70b405e27e11253f93843d6b0416a518b8a8a7c57ccd0e628296f63a58aa29ac76b203e47817233995823f690614a71abaaaa5c77ecf0c608094f4385aa82bae74b001e67a15213b97803167081aa914b4a4abc970c1026e8e9afa3654a625a07abe0fe8741b2f35998e33650a18ab16b6a6a9cb72c3006c8c98f83456a427a278bc0dea76192d379b8c35630c1ead10b0a0afcd74c5066a8a9efe3250a221a47eba0bec701f2b319d8a37610e1caf12b2a2adcf76c70468889cfc3052a023a67cb809ee721d29339f88396f0012a11cbcaca3c178c90a668692f23e5cae2da872b607e07c13273d91863b6d0210a31ebeaea1c37acb08648490f03c5eac2faa70b405e27e11253f93843d6b0416a518b8a8a7c57ccd0e628296f63a58aa29ac76b203e47817233995823f690614a71abaaaa5c77ecf0c608094f4385aa82bae74b001e67a15213b97803167081aa914b4a4abc970c1026e8e9afa3654a625a07abe0fe8741b2f35998e33650a18ab16b6a6a9cb72c3006c8c98f83456a427a278bc0dea76192d379b8c35630c1ead10b0a0afcd74c5066a8a9efe3250a221a47eba0bec701f2b319d8a37610e1caf12b2a2adcf76c70468889cfc3052a023a67cb809ee721d29339f88396f0012a11cbcaca3c178c90a668692f23e5cae2da872b607e07c13273d91863b6d0210a31ebeaea1c37acb08648490f03c5eac2faa70b405e27e11253f93843d6b0416a518b8a8a7c57ccd0e628296f63a58aa29ac76b203e47817233995823f690614a71abaaaa5c77ecf0c608094f4385aa82bae74b001e67a15213b97803167081aa914b4a4abc970c1026e8e9afa3654a625a07abe0fe8741b2f35998e33650a18ab16b6a6a9cb72c3006c8c98f83456a427a278bc0dea76192d379b8c35630c1ead10b0a0afcd74c5066a8a9efe3250a221a47eba0bec701f2b319d8a37610e1caf12b2a2adcf76c70468889cfc3052a023a67cb809ee721d29339f88396f0012a11cbcaca3c178c90a668692f23e5cae2da872b607e07c13273d91863b6d0210a31ebeaea1c37acb08648490f03c5eac2faa70b405e27e11253f93843d6b0416a518b8a8a7c57ccd0e628296f63a58aa29ac76b203e47817233995823f690614a71abaaaa5c77ecf0c608094f4385aa82bae74b001e67a15213b97803167081aa914b4a4abc970c1026e8e9afa3654a625a07abe0fe8741b2f35998e33650a18ab16b6a6a9cb72c3006c8c98f83456a427a278bc0dea76192d379b8c35630c1ead10b0a0afcd74c5066a8a9efe3250a221a47eba0bec701f2b319d8a37610e1caf12b2a2adcf76c70468889cfc3052a023a67cb809ee721d29339f88396f0012a11cbcaca3c178c90a668692f23e5cae2da872b607e07c13273d91863b6d0210a31ebeaea1c37acb08648490f03c5eac2faa70b405e27e11253f93843d6b0416a518b8a8a7c57ccd0e628296f63a58aa29ac76b203e47817233995823f690614a71abaaaa5c77ecf0c608094f4385aa82bae74b001e67a15213b97803167081aa914b4a4abc970c1026e8e9afa9125756b9d3d3560933eac232da5e02703fce48b3a2249b772b3db836730b54",
        "type": "nulldata"
      }
    }
  ],
  "blockhash": "2c44072194b49e49486c87ae6b37abdd6c2c23e2c7b477f70371a1b5276080d1",
  "confirmations": 1,
  "time": 1764179865,
  "blocktime": 1764179865
}