{
  "hex": "01000000000101f9241cf310bae6d256d12387149d4f6c8d51e5eff1f12469556c96b1b48a31180000000000feffffff0200e1f50500000000fdd5046a20d7d00ae0443590e815f130be1e917a55f73b2ec5230b5e66e6a6021df48be7ce4db00496e986c1c471870577221727ed75b6f0d11c6da03620ec3908b2c0be9a20f083b6c9a6e1e451a72557023707cd5596d0f13c4d801600cc192892e09eba00d0a3d6a9c6818431c74537625767ad35f6b0915c2de07660ac7948f280feda60b0c3f689e6a1a411e765174277478d15d690b17c0dc056408c5968d2a0defa4090e31669064144f10785f7a297a76df53670519ced20b6a06cb98832403e1aa070033649266164d127a5d782b7874dd5165071bccd0096804c99a812601e3a8050235629460104b147c5b7e2d7e72db5763011dcad60f6e02cf9c872007e5ae0304376096621249167e597c2f7c70d95561031fc8d40d6c00cd9e852205e7ac0106396e986c1c471870577221727ed75b6f0d11c6da03620ec3908b2c0be9a20f083b6c9a6e1e451a72557023707cd5596d0f13c4d801600cc192892e09eba00d0a3d6a9c6818431c74537625767ad35f6b0915c2de07660ac7948f280feda60b0c3f689e6a1a411e765174277478d15d690b17c0dc056408c5968d2a0defa4090e31669064144f10785f7a297a76df53670519ced20b6a06cb98832403e1aa070033649266164d127a5d782b7874dd5165071bccd0096804c99a812601e3a8050235629460104b147c5b7e2d7e72db5763011dcad60f6e02cf9c872007e5ae0304376096621249167e597c2f7c70d95561031fc8d40d6c00cd9e852205e7ac0106396e986c1c471870577221727ed75b6f0d11c6da03620ec3908b2c0be9a20f083b6c9a6e1e451a72557023707cd5596d0f13c4d801600cc192892e09eba00d0a3d6a9c6818431c74537625767ad35f6b0915c2de07660ac7948f280feda60b0c3f689e6a1a411e765174277478d15d690b17c0dc056408c5968d2a0defa4090e31669064144f10785f7a297a76df53670519ced20b6a06cb98832403e1aa070033649266164d127a5d782b7874dd5165071bccd0096804c99a812601e3a8050235629460104b147c5b7e2d7e72db5763011dcad60f6e02cf9c872007e5ae0304376096621249167e597c2f7c70d95561031fc8d40d6c00cd9e852205e7ac0106396e986c1c471870577221727ed75b6f0d11c6da03620ec3908b2c0be9a20f083b6c9a6e1e451a72557023707cd5596d0f13c4d801600cc192892e09eba00d0a3d6a9c6818431c74537625767ad35f6b0915c2de07660ac7948f280feda60b0c3f689e6a1a411e765174277478d15d690b17c0dc056408c5968d2a0defa4090e31669064144f10785f7a297a76df53670519ced20b6a06cb98832403e1aa070033649266164d127a5d782b7874dd5165071bccd0096804c99a812601e3a8050235629460104b147c5b7e2d7e72db5763011dcad60f6e02cf9c872007e5ae0304376096621249167e597c2f7c70d95561031fc8d40d6c00cd9e852205e7ac0106396e986c1c471870577221727ed75b6f0d11c6da03620ec3908b2c0be9a20f083b6c9a6e1e451a72557023707cd5596d0f13c4d801600cc192892e09eba00d0a3d6a9c6818431c74537625767ad35f6b0915c2de07660ac7948f280feda60b0c3f689e6a1a411e765174277478d15d690b17c0dc056408c5968d2a0defa4090e31669064144f10785f7a297a76df53670264d0d630e0f580ae93ca7eff23b321a274927a4792a537b95e5175352dcc2f600ce47c6782d0000225120ad09a54ada895b6b2453ed9daf4cffd02b5c83ea6151a5f7ccf800f3284b0d8002fd7509fef200438901f4919bdb312f2c6dfbabc1c3d4708fc51e853a7c090b1db46b796886e09b2fb6cb7d09a2dcfe1d07d07d7b5533a5ca55c39e1efebfa22f474b5ec31b7be36f70096dd5569195f822d5e06726e03fbe02095fb70c3f90c1e957ed83376835a98a9ac5ba4bfc23002f4261a1bcf1ef7b02ea106093bab29d6ef6d3db3323da744c8198adcb46821b313dcda9acc488ba977c5c84dff9f848e23996d2dc66db587b15b713e84c852061d88e3c0a7f50bee52b34a3d8b7a78fe83aad7e49a644a0c17bc3b9a27763ee3248a665597a7ebd2416ee6a182332e2768c508703ad3002ff0ad37ef5e3a14aeee944c451b3cfb271cbc4785791bef68ce197dca990f03238a60fc7760cd6467d80b3024636b948e632dc85d4ce05433424bdd82493cfddb4322cd4f24984df0f098b6cd6bbb7a94148aa123e5d5c9e78f134679a71a59ea15d4f34022cf5ec042efc91225f43c202c76c5bdfc7f05961321b9d1dbd668be570684bd2e7b2f2e334da0f33b9f729a89909c3bd3d2ca8567dcc95f183bf76e45c090e42336f7d5554bb98f827be987e93a72d16aa305c684ac6dbdf9269f152ddeee089424387d4c5ea61840216278503de059ecd7e5b2aa9f183ac984246a168bcbc73889a5085eeb16b8c4738c2285c36dc9a1989ba65b4a9893c75a64024f24a578439ab38075074c60868603d3229d6f8f8bbd6604025e0425798629102c57a78d602d118d14df634cdf7a6f898d5ac160e72216aa69890ec0afb7a2ca57f197e741f61853ec1ddabaf4a0cdfdef270b18f400c4e7522c9ad6de615a93194a86c2090271a0cf55c311b072a693cc2fca4f9d71f0475ba31674b28e1be290c3a5220664dead2c086704decad13a87b2b61f5f65c25fa46ab5bf0e20e2082aab06cf7bc410532965a5513115ecb9b1447754ecbdfb86d3972c02a8e9e79517973df12046c5034b969f7ffb55afad589a09dc0b9b7a5639ed13c3f169c7d339c0b4327f6229e578e77f7de20e048499c08690b20f3e4b5b2ab24da1be4bba7ef67f79f8b0ce4e638a071cddfe4369abc73ed57a70dc9e9bdc75da3c79db13da351d0bbc881ac32588417826660b5b6325efe7eb526040bf7ab3211fa893290957f611f837e6d09f2a69409a18f3dd2c65c9074a42200027463694ebe1a129b7267fa853407a9d89e1e5d2f5d242538bc688630ac70933ac691f3a8f575feb93d7b5f04527eaf47de446b681952aaed007a1fa62360e2e3b5f0baaceeed674b4c50f5432b4b6a1c40366cae468fb903fb8e2c4159f8a4061755b5723529cee549343820b47dc801fce21663caed1899c59428c2b7859f51aec6673739e4d15bb85f62ab08aede913c7de3f1866a1283e1c58e3fdb8a16d6798d132ab5724fa83050a024a8b27b5c510c4e66111cf9aa93b7ea6dc975b41cd19320b1a1439f3d831e8cf841ea29682a8566fc529658490f58c9516b7589ac80ecd4c8dc77aa36a11519d0f7df4f22d2e78c0f915f63250f04de7cb2f78462b2001c354cfd6310cd0e3cf6ba12da5e7f8c48531767a84eb3ab27aa610ee4b3d19315b27850185b1b905b0b21163ce09d776d27abed123109e7803101a6b3377c37c97fa1aa7bf97b577ca057a61895b3d6b3957d8f50acd4db0149ce0518ecb430d60cba6a3631030de36fa4145e7e6a3864208e56fa91eefedebda58e58c70354182afaec3925fe1949a8a0481abdc413ccc854a180a1385ab685d0a4e25d3ff757a959a4b4b4877155aa11938f19eff63408959385e9e9ca66a1b8f8ac577d666eca3e6cc54429bc2add56f204af966f38480b032c854525be128a00c3f5a857069ab119b29069df1e1dbc548454497a4355bba2aab33bfd55ca988a6d56c931548acc635267ed71fa4cf0d36e110735356eb7c9267cf2f002d3add22af8777519aaed7479733ac9b18b75b083aad7c64a834676db772eeb143a21eebf73c5488107c94379c1edc5dd5a8f6c690e5ea6510e514ff044aa4d8b5cfa36ff14c228f66d5d4294e50d5da369aed299fcdf2331e0abed35f777b79cb39c4bf2e004de9e47738b9c54ba8e89b9186bc64927d67d0c0bdfcdeaf132662eb4fe08eb29c024e79e2b33c85c345632bc312d3480dfb2d13336e84963720f3fadebe1aa587491d6ccf34f965dfb9c898e5edfa4ac6b97d70974a5f0c7015569e72d3dbbc0e69a344b98d9217ec66237271968db149ea7bf43559c862c47d6eceffb3f7787f52584635a2c3204fd9e1c66819e2251cdb9ec8ccf44f6cc08458efec2b01032ccff59ede384a5499048b026b8ea3930adb1da25c12ed3b8db13c1561f00736ea441054647fb27104c8ba79ec79161114db603c1a409d6352bf6241b8dedd4dfd9e99a47a914e8e48d66b44538d9337126d403a13c5599ddca08457893e88edf63700607b177805fd5f78832ad0185d4be25c71978461505e4b3634b8f2a98072490b162b4927c89e16ba82955fa3bbe6c7f6cc61719afb73eb38646ca9ed7ea5f9310b7a9b8bbad1c1f6416202b1ff291ead915cf95e426ee09ea0a9c05a285a876d79a2b62bed56da15cfa15a3f6c21390e81ebce7565ab7c78f9bcc76fbe3d8c6472859e4b2bc4378f4c2e02d15d45d6ac6c364efef3782b5cf0df115482265667668a15cc35df30ee997b12f226b6d9315a586a365213446a99248639a9b44606875596ce0e17aac931e55e644cb338a2a7fa9e565d2c1b18f5db1adc4f8cfcc67c79395585fd0a8ed2b209283c4f6c92acd6107aea0ec8048184d6c3710651b04167dd7cc2db3eb00d37c65fb1fa0fd45a888c6f967ed9f3f6d1cd45a152243dbad94881ee2ac3ae5979a7661054c7d3cd3012e3c38350cadd164d1f36c408e5ef0fc55d5abf02365f48687135d0ccb13b5fd9c3685b2a0849f79e83e0dd71ddee5fd1c2185058027c8c86745c8126e25f13e517c1b8902162bfec993e7a38206daa3e618b178c92fb4bb8e32a7be01b1badc8b39c202b313ae82aef800b23c5ea62d04fb4296edd2627ff01b405e7821e2ea6f0212f1db6d38f53301c1304b274d7c554a40d6413224352af45eeff3a5bef3df7173086759d165185e7e1d4bc5ec0c17e51a518737a63e07d6f4ae817acf97cdca9e2fb918381d5a9e75acdce96c080db71182e609b9d9d15eb9f3ce2f1e0acf156cccfd51c42dac285eac682edb93b3b22f5096cc910d8e6409b1831035340263f40bf796799b947beaa37da11b2da08ddc75639df919fce0da8f1c6c099dfbe348d505901f7cdc84770104101b3043464b5c5e7687a8ddf8fd041a1e508f929aa3acd2d6e6040a0d3b415a9eacbbd0e7161c246163739899a4abb4b7b9fa000000000000000000000000000000000000000000000000000000000f1b263401fd2105005820330b1e348162ed9d86bbf4f086bf5076a92007300504311751757a5b4355ed05eff66e8e492a7626ab1d8206b8f242dc9933fd6cdba73c7a6c555faf602e83b724cd9bf8e7ea2b96dc63b078c859c6880a8ebd10d2645893f537c0da674d5696887234939ad7835a5df586f5443eb02cf0897e026b812a09ba0029ba516e98e2372b4ab1c31822258eb82db1ebb62266d03474332fa611c3e232d829000f43fc47185c678e696ecd3c28d7c1ed083dff3a0861aa9c5e777be6e8b88dc7f4bc08c594b681d2af0822a4445ea1e86a1c409549b78630c18b37c564c08451d09505c9399dff879f9a86ccdd05a7171568288d17c2fc2a298eba341366ed2f0d32a041cbc1b5cbe0a3682ddac48182b8dfd00b56f4fd3f52ae710200ab2eeb70748ce5eafc20d030eba4afb883ab3f7db2a5cac357b91f4d8cf5da801a9d922c84ad12558f9bdb044853dd587b10adbd0b66b6e1cb73ebbb86a5e161a056cca9a829add00b3f2820a24987001c60c8d409e5aadcfe55f3f60d16c3158ceea3fb8a532771b19a7c795ec92f72da3686171b5b1a3c0c1cbfe0d6444cef52237e7246ffad75efee67c3104c4ec49c205482af8086d23453a5b043cacef5b550b44470bc9525a5d03819b3046d84058e93845b290248cb23c1c7e5d12ad9cc028fc01363ab1d154d3fa8b1da96adac72a14c25b5f72b1860d41e5e845bc964828c09418194d4fbfa248edfac91e5546cb527637e571ec13139f2bc2fcb3a89d2503e35c209fc208cf65738b6f5a55e480ac4c2c0004d518fb1cf94387ba82355a71319a2a8595e6391caca17b1ae74223ba7fa6978b438e8ff9bf68656e85e6ccc37f1bb07fa044d34ab88f0853f157deb3115bf74399228650dd8e97aac32719289bb2ef612adf9023183299133680ea1772c4323f2af7d8c5dcafc059f7d99555b93f5d4fe59f8735e1e30f5d3b122fe6af7ba92f1ef800f932df04f448d2f8c622fe1183cd59aad76ef6cf5ff3afcf5a64178df1079e58fe34a4b35b409498e798d7bb9c7c91810f21e7ef6505ab5d32b587a56e5853ac040590a59e5e5ce094af0fac690a78899016dacfe8084a841408139a1251f273dc12c3e62e77d3f088db6bb571f04577c72c185aef3636150035aff3ee5139bf5e00b8e604cc0c65912097f1e8826ff2bfa4f7f2774a9bb970df20499f5586fad3c15a067ba7f4782eefb1a3842a85321733d8aae47e3b7d23d329291900f65a7b87dfa80ad493edd144457bdee9bbe0804b180052d9cddd1c85f971f04b4e0693bb14a2ab0fd435829c51b1491535803bbd1c30c6783781e7cf877c83be73d8aa664672eec47d7941a61f80f293a4d75e7908c4e554b02ac8eb8a59205f112bb78d8cfdfd0b4cd5afa9bfbf152fd3cf223619d5edb3caf01a64f82d18bfb04238bfcb99d55cb067db435df33c88b7bf765af8b5ea058cc400f0f69de48f64f6bd74185dde650f06cf83c7678169f1072f95616b3abbecaf54276f1c0f766eddc2ae1d86f8565366d057fbef47c6d18bcddded95d05af19875aa43ae4d5cce95165ec0813e88c4e3559a5178eae4a2df0056b235d240f2232f6a2332f7b8dac797fd3ce1954fd02c61156e883ac1104db96065f313c71bb574ca7df8992c8c56a74fcc9d74fee80bcdb831b0771d7a202e04d24cf82a88568b00623887f91c461a6a526687ddbb14065a52bbcc360877b9634e567a6ebb7eee9233e34759703e4ab715088a5d392fe3b18b15a146ac7b63b94357e45785cc3f0d4d7cbf8eb7ecd5a49fcb88fb08d86ab7991267975ba8ba1564c575605dbe7630dc64519d5f2c547453865874b51f6368a000000",
  "txid": "46ba4417b27a757beea7bb57d8877be4c74f919514842e03ac92f2bda5e36e20",
  "hash": "ce179057ae86bb4d19dd88ce272aa75c7b6869af45ab1b1c9b5301c674bc7674",
  "size": 5085,
  "vsize": 2278,
  "version": 1,
  "locktime": 138,
  "vin": [
    {
      "txid": "18318ab4b1966c556924f1f1efe5518d6c4f9d148723d156d2e6ba10f31c24f9",
      "vout": 0,
      "scriptSig": {
        "asm": "",
        "hex": ""
      },
      "txinwitness": [
        "fef200438901f4919bdb312f2c6dfbabc1c3d4708fc51e853a7c090b1db46b796886e09b2fb6cb7d09a2dcfe1d07d07d7b5533a5ca55c39e1efebfa22f474b5ec31b7be36f70096dd5569195f822d5e06726e03fbe02095fb70c3f90c1e957ed83376835a98a9ac5ba4bfc23002f4261a1bcf1ef7b02ea106093bab29d6ef6d3db3323da744c8198adcb46821b313dcda9acc488ba977c5c84dff9f848e23996d2dc66db587b15b713e84c852061d88e3c0a7f50bee52b34a3d8b7a78fe83aad7e49a644a0c17bc3b9a27763ee3248a665597a7ebd2416ee6a182332e2768c508703ad3002ff0ad37ef5e3a14aeee944c451b3cfb271cbc4785791bef68ce197dca990f03238a60fc7760cd6467d80b3024636b948e632dc85d4ce05433424bdd82493cfddb4322cd4f24984df0f098b6cd6bbb7a94148aa123e5d5c9e78f134679a71a59ea15d4f34022cf5ec042efc91225f43c202c76c5bdfc7f05961321b9d1dbd668be570684bd2e7b2f2e334da0f33b9f729a89909c3bd3d2ca8567dcc95f183bf76e45c090e42336f7d5554bb98f827be987e93a72d16aa305c684ac6dbdf9269f152ddeee089424387d4c5ea61840216278503de059ecd7e5b2aa9f183ac984246a168bcbc73889a5085eeb16b8c4738c2285c36dc9a1989ba65b4a9893c75a64024f24a578439ab38075074c60868603d3229d6f8f8bbd6604025e0425798629102c57a78d602d118d14df634cdf7a6f898d5ac160e72216aa69890ec0afb7a2ca57f197e741f61853ec1ddabaf4a0cdfdef270b18f400c4e7522c9ad6de615a93194a86c2090271a0cf55c311b072a693cc2fca4f9d71f0475ba31674b28e1be290c3a5220664dead2c086704decad13a87b2b61f5f65c25fa46ab5bf0e20e2082aab06cf7bc410532965a5513115ecb9b1447754ecbdfb86d3972c02a8e9e79517973df12046c5034b969f7ffb55afad589a09dc0b9b7a5639ed13c3f169c7d339c0b4327f6229e578e77f7de20e048499c08690b20f3e4b5b2ab24da1be4bba7ef67f79f8b0ce4e638a071cddfe4369abc73ed57a70dc9e9bdc75da3c79db13da351d0bbc881ac32588417826660b5b6325efe7eb526040bf7ab3211fa893290957f611f837e6d09f2a69409a18f3dd2c65c9074a42200027463694ebe1a129b7267fa853407a9d89e1e5d2f5d242538bc688630ac70933ac691f3a8f575feb93d7b5f04527eaf47de446b681952aaed007a1fa62360e2e3b5f0baaceeed674b4c50f5432b4b6a1c40366cae468fb903fb8e2c4159f8a4061755b5723529cee549343820b47dc801fce21663caed1899c59428c2b7859f51aec6673739e4d15bb85f62ab08aede913c7de3f1866a1283e1c58e3fdb8a16d6798d132ab5724fa83050a024a8b27b5c510c4e66111cf9aa93b7ea6dc975b41cd19320b1a1439f3d831e8cf841ea29682a8566fc529658490f58c9516b7589ac80ecd4c8dc77aa36a11519d0f7df4f22d2e78c0f915f63250f04de7cb2f78462b2001c354cfd6310cd0e3cf6ba12da5e7f8c48531767a84eb3ab27aa610ee4b3d19315b27850185b1b905b0b21163ce09d776d27abed123109e7803101a6b3377c37c97fa1aa7bf97b577ca057a61895b3d6b3957d8f50acd4db0149ce0518ecb430d60cba6a3631030de36fa4145e7e6a3864208e56fa91eefedebda58e58c70354182afaec3925fe1949a8a0481abdc413ccc854a180a1385ab685d0a4e25d3ff757a959a4b4b4877155aa11938f19eff63408959385e9e9ca66a1b8f8ac577d666eca3e6cc54429bc2add56f204af966f38480b032c854525be128a00c3f5a857069ab119b29069df1e1dbc548454497a4355bba2aab33bfd55ca988a6d56c931548acc635267ed71fa4cf0d36e110735356eb7c9267cf2f002d3add22af8777519aaed7479733ac9b18b75b083aad7c64a834676db772eeb143a21eebf73c5488107c94379c1edc5dd5a8f6c690e5ea6510e514ff044aa4d8b5cfa36ff14c228f66d5d4294e50d5da369aed299fcdf2331e0abed35f777b79cb39c4bf2e004de9e47738b9c54ba8e89b9186bc64927d67d0c0bdfcdeaf132662eb4fe08eb29c024e79e2b33c85c345632bc312d3480dfb2d13336e84963720f3fadebe1aa587491d6ccf34f965dfb9c898e5edfa4ac6b97d70974a5f0c7015569e72d3dbbc0e69a344b98d9217ec66237271968db149ea7bf43559c862c47d6eceffb3f7787f52584635a2c3204fd9e1c66819e2251cdb9ec8ccf44f6cc08458efec2b01032ccff59ede384a5499048b026b8ea3930adb1da25c12ed3b8db13c1561f00736ea441054647fb27104c8ba79ec79161114db603c1a409d6352bf6241b8dedd4dfd9e99a47a914e8e48d66b44538d9337126d403a13c5599ddca08457893e88edf63700607b177805fd5f78832ad0185d4be25c71978461505e4b3634b8f2a98072490b162b4927c89e16ba82955fa3bbe6c7f6cc61719afb73eb38646ca9ed7ea5f9310b7a9b8bbad1c1f6416202b1ff291ead915cf95e426ee09ea0a9c05a285a876d79a2b62bed56da15cfa15a3f6c21390e81ebce7565ab7c78f9bcc76fbe3d8c6472859e4b2bc4378f4c2e02d15d45d6ac6c364efef3782b5cf0df115482265667668a15cc35df30ee997b12f226b6d9315a586a365213446a99248639a9b44606875596ce0e17aac931e55e644cb338a2a7fa9e565d2c1b18f5db1adc4f8cfcc67c79395585fd0a8ed2b209283c4f6c92acd6107aea0ec8048184d6c3710651b04167dd7cc2db3eb00d37c65fb1fa0fd45a888c6f967ed9f3f6d1cd45a152243dbad94881ee2ac3ae5979a7661054c7d3cd3012e3c38350cadd164d1f36c408e5ef0fc55d5abf02365f48687135d0ccb13b5fd9c3685b2a0849f79e83e0dd71ddee5fd1c2185058027c8c86745c8126e25f13e517c1b8902162bfec993e7a38206daa3e618b178c92fb4bb8e32a7be01b1badc8b39c202b313ae82aef800b23c5ea62d04fb4296edd2627ff01b405e7821e2ea6f0212f1db6d38f53301c1304b274d7c554a40d6413224352af45eeff3a5bef3df7173086759d165185e7e1d4bc5ec0c17e51a518737a63e07d6f4ae817acf97cdca9e2fb918381d5a9e75acdce96c080db71182e609b9d9d15eb9f3ce2f1e0acf156cccfd51c42dac285eac682edb93b3b22f5096cc910d8e6409b1831035340263f40bf796799b947beaa37da11b2da08ddc75639df919fce0da8f1c6c099dfbe348d505901f7cdc84770104101b3043464b5c5e7687a8ddf8fd041a1e508f929aa3acd2d6e6040a0d3b415a9eacbbd0e7161c246163739899a4abb4b7b9fa000000000000000000000000000000000000000000000000000000000f1b263401",
        "005820330b1e348162ed9d86bbf4f086bf5076a92007300504311751757a5b4355ed05eff66e8e492a7626ab1d8206b8f242dc9933fd6cdba73c7a6c555faf602e83b724cd9bf8e7ea2b96dc63b078c859c6880a8ebd10d2645893f537c0da674d5696887234939ad7835a5df586f5443eb02cf0897e026b812a09ba0029ba516e98e2372b4ab1c31822258eb82db1ebb62266d03474332fa611c3e232d829000f43fc47185c678e696ecd3c28d7c1ed083dff3a0861aa9c5e777be6e8b88dc7f4bc08c594b681d2af0822a4445ea1e86a1c409549b78630c18b37c564c08451d09505c9399dff879f9a86ccdd05a7171568288d17c2fc2a298eba341366ed2f0d32a041cbc1b5cbe0a3682ddac48182b8dfd00b56f4fd3f52ae710200ab2eeb70748ce5eafc20d030eba4afb883ab3f7db2a5cac357b91f4d8cf5da801a9d922c84ad12558f9bdb044853dd587b10adbd0b66b6e1cb73ebbb86a5e161a056cca9a829add00b3f2820a24987001c60c8d409e5aadcfe55f3f60d16c3158ceea3fb8a532771b19a7c795ec92f72da3686171b5b1a3c0c1cbfe0d6444cef52237e7246ffad75efee67c3104c4ec49c205482af8086d23453a5b043cacef5b550b44470bc9525a5d03819b3046d84058e93845b290248cb23c1c7e5d12ad9cc028fc01363ab1d154d3fa8b1da96adac72a14c25b5f72b1860d41e5e845bc964828c09418194d4fbfa248edfac91e5546cb527637e571ec13139f2bc2fcb3a89d2503e35c209fc208cf65738b6f5a55e480ac4c2c0004d518fb1cf94387ba82355a71319a2a8595e6391caca17b1ae74223ba7fa6978b438e8ff9bf68656e85e6ccc37f1bb07fa044d34ab88f0853f157deb3115bf74399228650dd8e97aac32719289bb2ef612adf9023183299133680ea1772c4323f2af7d8c5dcafc059f7d99555b93f5d4fe59f8735e1e30f5d3b122fe6af7ba92f1ef800f932df04f448d2f8c622fe1183cd59aad76ef6cf5ff3afcf5a64178df1079e58fe34a4b35b409498e798d7bb9c7c91810f21e7ef6505ab5d32b587a56e5853ac040590a59e5e5ce094af0fac690a78899016dacfe8084a841408139a1251f273dc12c3e62e77d3f088db6bb571f04577c72c185aef3636150035aff3ee5139bf5e00b8e604cc0c65912097f1e8826ff2bfa4f7f2774a9bb970df20499f5586fad3c15a067ba7f4782eefb1a3842a85321733d8aae47e3b7d23d329291900f65a7b87dfa80ad493edd144457bdee9bbe0804b180052d9cddd1c85f971f04b4e0693bb14a2ab0fd435829c51b1491535803bbd1c30c6783781e7cf877c83be73d8aa664672eec47d7941a61f80f293a4d75e7908c4e554b02ac8eb8a59205f112bb78d8cfdfd0b4cd5afa9bfbf152fd3cf223619d5edb3caf01a64f82d18bfb04238bfcb99d55cb067db435df33c88b7bf765af8b5ea058cc400f0f69de48f64f6bd74185dde650f06cf83c7678169f1072f95616b3abbecaf54276f1c0f766eddc2ae1d86f8565366d057fbef47c6d18bcddded95d05af19875aa43ae4d5cce95165ec0813e88c4e3559a5178eae4a2df0056b235d240f2232f6a2332f7b8dac797fd3ce1954fd02c61156e883ac1104db96065f313c71bb574ca7df8992c8c56a74fcc9d74fee80bcdb831b0771d7a202e04d24cf82a88568b00623887f91c461a6a526687ddbb14065a52bbcc360877b9634e567a6ebb7eee9233e34759703e4ab715088a5d392fe3b18b15a146ac7b63b94357e45785cc3f0d4d7cbf8eb7ecd5a49fcb88fb08d86ab7991267975ba8ba1564c575605dbe7630dc64519d5f2c547453865874b51f636"
      ],
      "sequence": 4294967294
    }
  ],
  "vout": [
    {
      "value": 1.0,
      "n": 0,
      "scriptPubKey": {
        "asm": "OP_RETURN d7d00ae0443590e815f130be1e917a55f73b2ec5230b5e66e6a6021df48be7ce 96e986c1c471870577221727ed75b6f0d11c6da03620ec3908b2c0be9a20f083b6c9a6e1e451a72557023707cd5596d0f13c4d801600cc192892e09eba00d0a3d6a9c6818431c74537625767ad35f6b0915c2de07660ac7948f280feda60b0c3f689e6a1a411e765174277478d15d690b17c0dc056408c5968d2a0defa4090e31669064144f10785f7a297a76df53670519ced20b6a06cb98832403e1aa070033649266164d127a5d782b7874dd5165071bccd0096804c99a812601e3a8050235629460104b147c5b7e2d7e72db5763011dcad60f6e02cf9c872007e5ae0304376096621249167e597c2f7c70d95561031fc8d40d6c00cd9e852205e7ac0106396e986c1c471870577221727ed75b6f0d11c6da03620ec3908b2c0be9a20f083b6c9a6e1e451a72557023707cd5596d0f13c4d801600cc192892e09eba00d0a3d6a9c6818431c74537625767ad35f6b0915c2de07660ac7948f280feda60b0c3f689e6a1a411e765174277478d15d690b17c0dc056408c5968d2a0defa4090e31669064144f10785f7a297a76df53670519ced20b6a06cb98832403e1aa070033649266164d127a5d782b7874dd5165071bccd0096804c99a812601e3a8050235629460104b147c5b7e2d7e72db5763011dcad60f6e02cf9c872007e5ae0304376096621249167e597c2f7c70d95561031fc8d40d6c00cd9e852205e7ac0106396e986c1c471870577221727ed75b6f0d11c6da03620ec3908b2c0be9a20f083b6c9a6e1e451a72557023707cd5596d0f13c4d801600cc192892e09eba00d0a3d6a9c6818431c74537625767ad35f6b0915c2de07660ac7948f280feda60b0c3f689e6a1a411e765174277478d15d690b17c0dc056408c5968d2a0defa4090e31669064144f10785f7a297a76df53670519ced20b6a06cb98832403e1aa070033649266164d127a5d782b7874dd5165071bccd0096804c99a812601e3a8050235629460104b147c5b7e2d7e72db5763011dcad60f6e02cf9c872007e5ae0304376096621249167e597c2f7c70d95561031fc8d40d6c00cd9e852205e7ac0106396e986c1c471870577221727ed75b6f0d11c6da03620ec3908b2c0be9a20f083b6c9a6e1e451a72557023707cd5596d0f13c4d801600cc192892e09eba00d0a3d6a9c6818431c74537625767ad35f6b0915c2de07660ac7948f280feda60b0c3f689e6a1a411e765174277478d15d690b17c0dc056408c5968d2a0defa4090e31669064144f10785f7a297a76df53670519ced20b6a06cb98832403e1aa070033649266164d127a5d782b7874dd5165071bccd0096804c99a812601e3a8050235629460104b147c5b7e2d7e72db5763011dcad60f6e02cf9c872007e5ae0304376096621249167e597c2f7c70d95561031fc8d40d6c00cd9e852205e7ac0106396e986c1c471870577221727ed75b6f0d11c6da03620ec3908b2c0be9a20f083b6c9a6e1e451a72557023707cd5596d0f13c4d801600cc192892e09eba00d0a3d6a9c6818431c74537625767ad35f6b0915c2de07660ac7948f280feda60b0c3f689e6a1a411e765174277478d15d690b17c0dc056408c5968d2a0defa4090e31669064144f10785f7a297a76df53670264d0d630e0f580ae93ca7eff23b321a274927a4792a537b95e5175352dcc2f6",
        "hex": "6a20d7d00ae0443590e815f130be1e917a55f73b2ec5230b5e66e6a6021df48be7ce4db00496e986c1c471870577221727ed75b6f0d11c6da03620ec3908b2c0be9a20f083b6c9a6e1e451a72557023707cd5596d0f13c4d801600cc192892e09eba00d0a3d6a9c6818431c74537625767ad35f6b0915c2de07660ac7948f280feda60b0c3f689e6a1a411e765174277478d15d690b17c0dc056408c5968d2a0defa4090e31669064144f10785f7a297a76df53670519ced20b6a06cb98832403e1aa070033649266164d127a5d782b7874dd5165071bccd0096804c99a812601e3a8050235629460104b147c5b7e2d7e72db5763011dcad60f6e02cf9c872007e5ae0304376096621249167e597c2f7c70d95561031fc8d40d6c00cd9e852205e7ac0106396e986c1c471870577221727ed75b6f0d11c6da03620ec3908b2c0be9a20f083b6c9a6e1e451a72557023707cd5596d0f13c4d801600cc192892e09eba00d0a3d6a9c6818431c74537625767ad35f6b0915c2de07660ac7948f280feda60b0c3f689e6a1a411e765174277478d15d690b17c0dc056408c5968d2a0defa4090e31669064144f10785f7a297a76df53670519ced20b6a06cb98832403e1aa070033649266164d127a5d782b7874dd5165071bccd0096804c99a812601e3a8050235629460104b147c5b7e2d7e72db5763011dcad60f6e02cf9c872007e5ae0304376096621249167e597c2f7c70d95561031fc8d40d6c00cd9e852205e7ac0106396e986c1c471870577221727ed75b6f0d11c6da03620ec3908b2c0be9a20f083b6c9a6e1e451a72557023707cd5596d0f13c4d801600cc192892e09eba00d0a3d6a9c6818431c74537625767ad35f6b0915c2de07660ac7948f280feda60b0c3f689e6a1a411e765174277478d15d690b17c0dc056408c5968d2a0defa4090e31669064144f10785f7a297a76df53670519ced20b6a06cb98832403e1aa070033649266164d127a5d782b7874dd5165071bccd0096804c99a812601e3a8050235629460104b147c5b7e2d7e72db5763011dcad60f6e02cf9c872007e5ae0304376096621249167e597c2f7c70d95561031fc8d40d6c00cd9e852205e7ac0106396e986c1c471870577221727ed75b6f0d11c6da03620ec3908b2c0be9a20f083b6c9a6e1e451a72557023707cd5596d0f13c4d801600cc192892e09eba00d0a3d6a9c6818431c74537625767ad35f6b0915c2de07660ac7948f280feda60b0c3f689e6a1a411e765174277478d15d690b17c0dc056408c5968d2a0defa4090e31669064144f10785f7a297a76df53670519ced20b6a06cb98832403e1aa070033649266164d127a5d782b7874dd5165071bccd0096804c99a812601e3a8050235629460104b147c5b7e2d7e72db5763011dcad60f6e02cf9c872007e5ae0304376096621249167e597c2f7c70d95561031fc8d40d6c00cd9e852205e7ac0106396e986c1c471870577221727ed75b6f0d11c6da03620ec3908b2c0be9a20f083b6c9a6e1e451a72557023707cd5596d0f13c4d801600cc192892e09eba00d0a3d6a9c6818431c74537625767ad35f6b0915c2de07660ac7948f280feda60b0c3f689e6a1a411e765174277478d15d690b17c0dc056408c5968d2a0defa4090e31669064144f10785f7a297a76df53670264d0d630e0f580ae93ca7eff23b321a274927a4792a537b95e5175352dcc2f6",
        "type": "nulldata"
      }
    },
    {
      "value": 499967.4592,
      "n": 1,
      "scriptPubKey": {
        "asm": "1 ad09a54ada895b6b2453ed9daf4cffd02b5c83ea6151a5f7ccf800f3284b0d80",
        "hex": "5120ad09a54ada895b6b2453ed9daf4cffd02b5c83ea6151a5f7ccf800f3284b0d80",
        "reqSigs": 1,
        "type": "witness_v1_scripthash",
        "addresses": [
          "3QJmnh"
        ]
      }
    }
  ],
  "blockhash": "394f302ff1829b8db869c98f7b64fb5f27cc2b50e933cff1e5bbeae34fa68a80",
  "confirmations": 1,
  "time": 1764183654,
  "blocktime": 1764183654
}