{
  "hex": "010000000001013a96b73a2690233cbcba58ce4f247743d31dfe4c9bc8a136cb68cd3c1cecc5970000000000feffffff0260cda5ea782d0000225120fc3831f86e9251e84d1baef9b06e1770f6b351516138fd25351ba0d1d5d18e8f00e1f50500000000fdd5046a200d8987d976f66bb73f341449edc2b31006bb5653756a52606a8996b3e4910aef4db004b864829f81f0e4e118c2be53f5fe607599d483c9032935074934e169d26922e39844a2bfa1d0c4c138e29e73d5de4055b9f4a3e9230915276914c149f24902c3f824c2dfc1b0a4a15882fe13b5be2035d994c389436975470974a129922962a3d804e2ffe190848178a2de33959e0015f9b4e3a96349556729548109b209428338e4021f0170646198423ed3757ee0f51954034983a9b587c9b461e952e9a26318c4223f21504441b8621ef3555ec0d539742369a38995a7e99441c972c9824378a4425f41302421d8027e93353ea0b559144309c3e9f5c789f421a912a9e2235884627f61100401f8225eb3151e809579346329e3c9d5e7a9d401893289c203b864829f81f0e4e118c2be53f5fe607599d483c9032935074934e169d26922e39844a2bfa1d0c4c138e29e73d5de4055b9f4a3e9230915276914c149f24902c3f824c2dfc1b0a4a15882fe13b5be2035d994c389436975470974a129922962a3d804e2ffe190848178a2de33959e0015f9b4e3a96349556729548109b209428338e4021f0170646198423ed3757ee0f51954034983a9b587c9b461e952e9a26318c4223f21504441b8621ef3555ec0d539742369a38995a7e99441c972c9824378a4425f41302421d8027e93353ea0b559144309c3e9f5c789f421a912a9e2235884627f61100401f8225eb3151e809579346329e3c9d5e7a9d401893289c203b864829f81f0e4e118c2be53f5fe607599d483c9032935074934e169d26922e39844a2bfa1d0c4c138e29e73d5de4055b9f4a3e9230915276914c149f24902c3f824c2dfc1b0a4a15882fe13b5be2035d994c389436975470974a129922962a3d804e2ffe190848178a2de33959e0015f9b4e3a96349556729548109b209428338e4021f0170646198423ed3757ee0f51954034983a9b587c9b461e952e9a26318c4223f21504441b8621ef3555ec0d539742369a38995a7e99441c972c9824378a4425f41302421d8027e93353ea0b559144309c3e9f5c789f421a912a9e2235884627f61100401f8225eb3151e809579346329e3c9d5e7a9d401893289c203b864829f81f0e4e118c2be53f5fe607599d483c9032935074934e169d26922e39844a2bfa1d0c4c138e29e73d5de4055b9f4a3e9230915276914c149f24902c3f824c2dfc1b0a4a15882fe13b5be2035d994c389436975470974a129922962a3d804e2ffe190848178a2de33959e0015f9b4e3a96349556729548109b209428338e4021f0170646198423ed3757ee0f51954034983a9b587c9b461e952e9a26318c4223f21504441b8621ef3555ec0d539742369a38995a7e99441c972c9824378a4425f41302421d8027e93353ea0b559144309c3e9f5c789f421a912a9e2235884627f61100401f8225eb3151e809579346329e3c9d5e7a9d401893289c203b864829f81f0e4e118c2be53f5fe607599d483c9032935074934e169d26922e39844a2bfa1d0c4c138e29e73d5de4055b9f4a3e9230915276914c149f24902c3f824c2dfc1b0a4a15882fe13b5be2035d994c389436975470974a129922962a3d804e2ffe190848178a2de33959e0015f9b4e3a96349556729548109b209428338e4021f0170646198423ed3757ee0f5fc85a097e9ced9dddffe83126bf16f5b8a975073c42d13db6fac00573387a7b802fd75098b71b0f4e000dc0233be1dc92e02936c966379b436af7ab15cf6bdb993bff4d44d2eb2777bfcb113ca0a4cf53d1cdee070068aac309a0684054242ecde3d7b4bd9d10cf91534472e67dcccc0ed678599dc37ad62f662531dca220edaf4dd1b3980767bd4fc56d2823cc4a04ebd585cbc10cc9cd2ec978a4f6122c767fc81baab8a11cdfc435c26be06435b7d5b634b09dfb2c792fb4e8bf765718b6e659d655ff35ed1c97abfc17da83eb7c29446cc66e7b91d9f476a264b6c51eb03f8d787a08524e465ee5c6b724071d7694c1ba864ddf798576d85d4c31261aacca1cc7b9ed00052e8a3eaa6395c57295a911399dbf38c36d244be8d696a006465ef8b3d3c63e439ee759d698ea232fb1ef12ce178ffcef206c38719ccf5acdf071b028522a1055e1ceeff78e63be2793ae5278b15734158b6f0553320d99f8ab8738d75196180eee8055674f4bd9360e9e94e6564f8d35546053789e52542eae1d9387c9f4e722b6bc53461e5d335c70fdc994beca6b139922d4fc65b54fce9f72f3d1a9d3d100149783a7c5e6cd5c3079cab538e17e14218fe5bb077a22853ac664c7bc3fad721480a2662c61713287ee9561052829fc13f01391761772a15572afa88d93dfa219e0a4a0ce439727382103bcd106b5e176e70ee1321aa46442f4a815e96bbad419e64f977c401adfb4f2170a112d7dd2e30cf58d8ed1821fe69c2cb8d5c6e3fabd76949cdf38ce8891de958b4a6b464e53558cdc4b9ff2854819b50d66208ca99afd10452b278f26560a89e7db97d39f3d82a3ad4f59b59dd5ff65447935df130ebea54dcd4f5adadb5001a9da04678a78c3bf13b629567d4625667aa3b9075507ecf3b4a2cf505965b5466772edab9be561d9026e0500827439532ed75c916933b8e18d9792f933c67ae4a26b3bbde6de1242bb8de319d6a31d94526c5985b86385ff38f19d84ee80e560f73f109ee7bb2b1f4b0d58d5461d2325a7d53698048a09e3755843026eb034821d079baaac99e2bcd4e647978221d00117e1329067ea1394b4bf62d8e39d4f35e9ddc461d93cfd8a5c37ccac2d73e2300eb24eede4030233f36ef393fe0640290853e269eda3ef028c023b2868ef1155a4bc9ba7e80f183d506a70e46b52ffc03330e4b97b5bf1359d0e345bcfd35611026369b7d5f15a46296eb833634458eef61888a542346fcaca3f9d4988da77492b95dfcf9838c898dc0aad0d9b7e6982f5cb1fda2ac6885a5030c3525105823ab83163d21ed2558d503cc3dffa6559c35ad880217595629279a7327595d00f0e9947e61d890bd8db937605d25a24a396e0d3ee90b29470e428683478e1f08e3a3d3b0832b93bb2b2aebe41587941060eac364024a6f456a447aef82a37a2bba62f903f937eb252d78004755a8b902afe8c9f556ef698f27743f1eca69abc17aac200d11d4e4dfc2c07d9e5d28b5b23c9ce7ac85634e028420ec1068bd80390ef40a4346f654cd6c32dc86b4c1ba67f05600d41c0f087b78b47f25288db140afa7b235580d2fa759f6589c289281f7e527b1b27bd3a22edfdc2811f13ffc9cfe5d402a3ba5205129d7328a928a4233438f309355df61699913c9c04ae754b43d92e6c3585ffe074e7eff2df86935142ae3efb6935a532c6368038dd0fefb6bc1b77c085ecad0d1a09fcd831d4ca40b1aa86285958bdf01bdf1bcef776ee4522cc43c64b20a015b188a547b872fbc06cf80665e1d15383ce4de7953fa68272afd7299d299f1a7d1aba63c4db10079d7d7bf29723c95285e60779b9cdde2b2b3e91ef040b14c71847a6e6d3b40ce70ae9df2bca7c8af2e3d6174a83ed8354cbbe47ba4486067a471481fe13afe848fc8a4b1ead80a3609fee788aa8add8da8170baaff41a86d3730640bdc04e9268e189d2e59dbda172e02a37176364c5410c88d262900be3ab686a66c9328a9c7b3578206fb8fdb7c64e46573bbbc1ab3059ab672533c0dc4e44387ffef6832d0531023c7f6aaec86de0f865159c8c30a2ce8d449c1faeb3236ac9ca4288576599112b2674c88a9a5a0f97ab5c4a81a4f91f9a510f06aae7590801c5e0af043ad492073aeaa59e6aee21e30a1914ae791118d384eb7df7a3c6049ddff3cfb89b028f5f43101c76e7b6361f56de86e253fbd79d96e88bfabd4e1759b2f9bd84e45a2673e7d24e462e25047e1f2b828c16fbfd9e374d7d42f91f0a56ff74823c94fa7521ed5d428a1faa81a1cb51b67619c16243c8ffa1aaec0881d72510753cc2257343bfbde2c70d949f091038e0adefbd1b5461e9223ada97d87e06cf461cd079591b5a60a5d04b12b6557550c8724122386764ba2a2fbd2143327405b4bc6679f8388bc93b89f896b5a04f96634751d4cced9f9092c46a8f74df6c964a10849517ab536ac3a2c3b88aacfcf7351b9f86a6517b74ef65582de8f7bfe873378891485ba9687e81152c0ec15cc1d70d48b735957b0a28dfbe9c76eab9c4ba069221a84cc7f6a364c5f154300b6a86be6edb9e0bee0c007845622be92730c68595f66e44e9888c90e0ff4ed96b11c1e22775db1d716949befe5e25c096f59142b81e7b94ee0539df6c6f9ad913df27093ad48b472593bc62138caf7385957128da49eddb7dc8bbde4ad99d580896acf0aa464abda190298395aec3acd9634b9c4868c3e628d4d6b7921e1fdc4b0b15102a940b3bf025e2e1edd2962ed39b84e5a6a07eeb0ffe5032bace2dcc851e45a3290af20110626729180777fb46d798183ae5cee3aa0be9ac8313f2848f11f41f95dc1cf563a031bf343ce8dd80571a746baea6f123085873be22c7e9dc131e92b215dbdc490e37ca9e87af27975c6e978db2d2631b3e178dd7d7874c9d85fcb608ab6b211b52ea39558fa8462addfc401f2b8370c7662db51ef3509aaa87873023138befea64834f9a6a629a9cb90159198875b631a426a9ec80cdafea07eb6972d7bd9fa3195ac1b4141bf6b200e53dc56488bb15c70d9d8276f266b8d0dddbccc57c715e349379dd0fa2008aafb06e1bd2fb26a1a7af53f1dc3759f30e5598bc137c81b32a3c4b672717c460acf4d85f2f15d1c81070b3f229da269d4f66219f8a3a6030ec6855c294d29e0be7f11a35ddceba859ccb761d1fdc73e870dab523632d33364b0643b931dcc12aa92fe291b3d476cdd707583295f6e0a362c39f351b3e6d130a4ee70da7d8a152c430e5bbe926045c9adbb2622fc4c3c87c101e77806243af9a61be4dd5efe4356176ae655ab6e5a68c9ad1f7fe657fc6e8e69af2b57f9f7d45ae6083e4f555f606b6d6f7f878c999bcdd3e7fe0c1823272e32363c58a9bcd4deeef00d18293e3f406f709ba2e1e2002a40474e9db0c4cdf00000000000000000000000000000000000000000000000000012212d3701fd2105005990e586fccb872b364e1da17e0bc3c582b4995f2cef9dfdaa308a4db9886b795b505415f31723a046cb71387d4fe6f7714d1f5206a3e99385e7eae9db0e47771022416fed5509dbf749bf733d9f1a423774896157f162cc9c9370f838b3fcfda37d13df390b59ca308a5be3f447ad763adeabdf88ee0c36937229bf1a5e0f39b8995dc828b19bb0a0360c3d3d210398df6920ac7c2dda29421d92452aeb5edda10868f9362ee1bda0276bb13e48ca710224130d3051227177d77dcd11d91c8408efd3caed16c11091c79a42c90244a001d72441ef98e6e8b24ece11a96e02f7d611b7ec09415f87d6021d461fc29018acb82d799074c2c4339158fc83b9ae09ae4fd0b62bfba3ddb3a75817f804d51b80ba61e87a6df36c38f5ac7d3afec71a5c48d3e5cf919dfbcc4911698377411d7e2dbfb5770aea5f3b47f8f866e7a62e71b1efb27928b92922a9108228f46e94368277cf35bff888a2eb8fc5e48d3e92d75791bb818de8e19b2bb8784eb40d9a40fda702545e15f933097629fc4c373e733e199d00f6788658dd3af9372ccd2ac178769fe9aa134de1ff1973dba2c6adc8b116fed58c029db47df76c3b4eb07134270d4cee19f40e4d9f4c207ddf6c8b739d241e6b9949a43c9706b1979d8f96800ffe800b388f82a0a3c1c43603b6939db68ec4d0e8a55bd6b13269330cd3a0d879db7d27200cc8d59edeb0ace64548715b42a89cfb62f242098a48d7066403b5e38ed5515a9ba33ed1113b4d791a822159cf8d50ebec1e7266f22d6e698c987b365f5e51ceb915296d3f8ac9160682a8aae64ecfc329bbe579ea4dad404871a4d3bac449a873072e3b235a735be3fcb861ebea8667b232dba2b083091e42e214ff29ae7e835976b53ce1e795a2a5a411618ff10f2443368b463d7add5becda891340df09661c221fb1b34567966b835795d9e9c47a9c52baca9e91541624ee5e5120dfcfc8e45cd7c9361bb8de7bf28e195acbc7db6d1e34e71fde50799674b9f8676baa27e8296d2bc611fa610aacef7020c79d0bd1921d2520cc785a37cb183b8b1978351075a1728ce51ac6cc05dcb21b36cbaa3e24f4ddd399ef78e472635c6e93539927217a8001510da6fde01531ae1910c14e42f13e90f27c0bddbc21b089472eba0882e475ee958ebdcb366427f483151cbb1702deefd49d7cd2e77afb1805e4751989d6b31ec765d15fc56287f7eda09ea2b9ff83ee0f64cd9f4706b8c0ed65c2e38c7ce3abe9c093c9d168a077d33606926398c9338eeb0be8d4f5b88940fd9b6559a4cc28fa82cb6b5476641b9dc226e14f139e9d746e548507c8d7fc43a35243a6cf01e3dad05ea66ba9cbd0306e41aa618d7b2e4117d4eb7748248614f60e5ba3c75ffc0f7667ceb4b2784300eefbdfadf8387c7f1eef4f6ebbcc988dd98c7055bf160ca84a21338df85dbcdeb51fcd10614b8b2f0cfce26c7dfc0a07e21b628a4d82f45030f08fe864f74dfb5d91852a2b342ac3afd895e3f62d2736ad6b81625b53e7e2c45774948ff2e38d8b6173e10672e24b1695eece9341afd3de726c3f552401a1fa23b440bf605fa40aeb6515e9dadeae6cf94d864ac13e11c23b7fefc95381c4f711a348b16f565ac30ab452c4bb7d4c8b6f5c8c93de8d028b3a3f3807cdbe611479648bee8327c5890f20159037ee3c50f20198f8f97abec2b01752f9e308b83ca51da097c8fd323d84306a0b6ce17bea68d64ca21c0af82310b71afc67824cf9af1115de07c9e3adb5d64e58ff44d4714dc2bc7f6a3d3cb1e7f32bde23b74d3c61a96edb5ef8ed78274dc4d0ee8634c34269f0a1dd58eb6dfc78655015e9f8b4ee852d7c000000",
  "txid": "4de63fdfe402486fc747c9b0a78e06162070b7809bb132cc3de9da1380bbc126",
  "hash": "f789db75897b4080e72f7d887743758ccb3f1ac49fcfca7adc2bbaa0fe54d4ce",
  "size": 5085,
  "vsize": 2278,
  "version": 1,
  "locktime": 124,
  "vin": [
    {
      "txid": "97c5ec1c3ccd68cb36a1c89b4cfe1dd34377244fce58babc3c2390263ab7963a",
      "vout": 0,
      "scriptSig": {
        "asm": "",
        "hex": ""
      },
      "txinwitness": [
        "8b71b0f4e000dc0233be1dc92e02936c966379b436af7ab15cf6bdb993bff4d44d2eb2777bfcb113ca0a4cf53d1cdee070068aac309a0684054242ecde3d7b4bd9d10cf91534472e67dcccc0ed678599dc37ad62f662531dca220edaf4dd1b3980767bd4fc56d2823cc4a04ebd585cbc10cc9cd2ec978a4f6122c767fc81baab8a11cdfc435c26be06435b7d5b634b09dfb2c792fb4e8bf765718b6e659d655ff35ed1c97abfc17da83eb7c29446cc66e7b91d9f476a264b6c51eb03f8d787a08524e465ee5c6b724071d7694c1ba864ddf798576d85d4c31261aacca1cc7b9ed00052e8a3eaa6395c57295a911399dbf38c36d244be8d696a006465ef8b3d3c63e439ee759d698ea232fb1ef12ce178ffcef206c38719ccf5acdf071b028522a1055e1ceeff78e63be2793ae5278b15734158b6f0553320d99f8ab8738d75196180eee8055674f4bd9360e9e94e6564f8d35546053789e52542eae1d9387c9f4e722b6bc53461e5d335c70fdc994beca6b139922d4fc65b54fce9f72f3d1a9d3d100149783a7c5e6cd5c3079cab538e17e14218fe5bb077a22853ac664c7bc3fad721480a2662c61713287ee9561052829fc13f01391761772a15572afa88d93dfa219e0a4a0ce439727382103bcd106b5e176e70ee1321aa46442f4a815e96bbad419e64f977c401adfb4f2170a112d7dd2e30cf58d8ed1821fe69c2cb8d5c6e3fabd76949cdf38ce8891de958b4a6b464e53558cdc4b9ff2854819b50d66208ca99afd10452b278f26560a89e7db97d39f3d82a3ad4f59b59dd5ff65447935df130ebea54dcd4f5adadb5001a9da04678a78c3bf13b629567d4625667aa3b9075507ecf3b4a2cf505965b5466772edab9be561d9026e0500827439532ed75c916933b8e18d9792f933c67ae4a26b3bbde6de1242bb8de319d6a31d94526c5985b86385ff38f19d84ee80e560f73f109ee7bb2b1f4b0d58d5461d2325a7d53698048a09e3755843026eb034821d079baaac99e2bcd4e647978221d00117e1329067ea1394b4bf62d8e39d4f35e9ddc461d93cfd8a5c37ccac2d73e2300eb24eede4030233f36ef393fe0640290853e269eda3ef028c023b2868ef1155a4bc9ba7e80f183d506a70e46b52ffc03330e4b97b5bf1359d0e345bcfd35611026369b7d5f15a46296eb833634458eef61888a542346fcaca3f9d4988da77492b95dfcf9838c898dc0aad0d9b7e6982f5cb1fda2ac6885a5030c3525105823ab83163d21ed2558d503cc3dffa6559c35ad880217595629279a7327595d00f0e9947e61d890bd8db937605d25a24a396e0d3ee90b29470e428683478e1f08e3a3d3b0832b93bb2b2aebe41587941060eac364024a6f456a447aef82a37a2bba62f903f937eb252d78004755a8b902afe8c9f556ef698f27743f1eca69abc17aac200d11d4e4dfc2c07d9e5d28b5b23c9ce7ac85634e028420ec1068bd80390ef40a4346f654cd6c32dc86b4c1ba67f05600d41c0f087b78b47f25288db140afa7b235580d2fa759f6589c289281f7e527b1b27bd3a22edfdc2811f13ffc9cfe5d402a3ba5205129d7328a928a4233438f309355df61699913c9c04ae754b43d92e6c3585ffe074e7eff2df86935142ae3efb6935a532c6368038dd0fefb6bc1b77c085ecad0d1a09fcd831d4ca40b1aa86285958bdf01bdf1bcef776ee4522cc43c64b20a015b188a547b872fbc06cf80665e1d15383ce4de7953fa68272afd7299d299f1a7d1aba63c4db10079d7d7bf29723c95285e60779b9cdde2b2b3e91ef040b14c71847a6e6d3b40ce70ae9df2bca7c8af2e3d6174a83ed8354cbbe47ba4486067a471481fe13afe848fc8a4b1ead80a3609fee788aa8add8da8170baaff41a86d3730640bdc04e9268e189d2e59dbda172e02a37176364c5410c88d262900be3ab686a66c9328a9c7b3578206fb8fdb7c64e46573bbbc1ab3059ab672533c0dc4e44387ffef6832d0531023c7f6aaec86de0f865159c8c30a2ce8d449c1faeb3236ac9ca4288576599112b2674c88a9a5a0f97ab5c4a81a4f91f9a510f06aae7590801c5e0af043ad492073aeaa59e6aee21e30a1914ae791118d384eb7df7a3c6049ddff3cfb89b028f5f43101c76e7b6361f56de86e253fbd79d96e88bfabd4e1759b2f9bd84e45a2673e7d24e462e25047e1f2b828c16fbfd9e374d7d42f91f0a56ff74823c94fa7521ed5d428a1faa81a1cb51b67619c16243c8ffa1aaec0881d72510753cc2257343bfbde2c70d949f091038e0adefbd1b5461e9223ada97d87e06cf461cd079591b5a60a5d04b12b6557550c8724122386764ba2a2fbd2143327405b4bc6679f8388bc93b89f896b5a04f96634751d4cced9f9092c46a8f74df6c964a10849517ab536ac3a2c3b88aacfcf7351b9f86a6517b74ef65582de8f7bfe873378891485ba9687e81152c0ec15cc1d70d48b735957b0a28dfbe9c76eab9c4ba069221a84cc7f6a364c5f154300b6a86be6edb9e0bee0c007845622be92730c68595f66e44e9888c90e0ff4ed96b11c1e22775db1d716949befe5e25c096f59142b81e7b94ee0539df6c6f9ad913df27093ad48b472593bc62138caf7385957128da49eddb7dc8bbde4ad99d580896acf0aa464abda190298395aec3acd9634b9c4868c3e628d4d6b7921e1fdc4b0b15102a940b3bf025e2e1edd2962ed39b84e5a6a07eeb0ffe5032bace2dcc851e45a3290af20110626729180777fb46d798183ae5cee3aa0be9ac8313f2848f11f41f95dc1cf563a031bf343ce8dd80571a746baea6f123085873be22c7e9dc131e92b215dbdc490e37ca9e87af27975c6e978db2d2631b3e178dd7d7874c9d85fcb608ab6b211b52ea39558fa8462addfc401f2b8370c7662db51ef3509aaa87873023138befea64834f9a6a629a9cb90159198875b631a426a9ec80cdafea07eb6972d7bd9fa3195ac1b4141bf6b200e53dc56488bb15c70d9d8276f266b8d0dddbccc57c715e349379dd0fa2008aafb06e1bd2fb26a1a7af53f1dc3759f30e5598bc137c81b32a3c4b672717c460acf4d85f2f15d1c81070b3f229da269d4f66219f8a3a6030ec6855c294d29e0be7f11a35ddceba859ccb761d1fdc73e870dab523632d33364b0643b931dcc12aa92fe291b3d476cdd707583295f6e0a362c39f351b3e6d130a4ee70da7d8a152c430e5bbe926045c9adbb2622fc4c3c87c101e77806243af9a61be4dd5efe4356176ae655ab6e5a68c9ad1f7fe657fc6e8e69af2b57f9f7d45ae6083e4f555f606b6d6f7f878c999bcdd3e7fe0c1823272e32363c58a9bcd4deeef00d18293e3f406f709ba2e1e2002a40474e9db0c4cdf00000000000000000000000000000000000000000000000000012212d3701",
        "005990e586fccb872b364e1da17e0bc3c582b4995f2cef9dfdaa308a4db9886b795b505415f31723a046cb71387d4fe6f7714d1f5206a3e99385e7eae9db0e47771022416fed5509dbf749bf733d9f1a423774896157f162cc9c9370f838b3fcfda37d13df390b59ca308a5be3f447ad763adeabdf88ee0c36937229bf1a5e0f39b8995dc828b19bb0a0360c3d3d210398df6920ac7c2dda29421d92452aeb5edda10868f9362ee1bda0276bb13e48ca710224130d3051227177d77dcd11d91c8408efd3caed16c11091c79a42c90244a001d72441ef98e6e8b24ece11a96e02f7d611b7ec09415f87d6021d461fc29018acb82d799074c2c4339158fc83b9ae09ae4fd0b62bfba3ddb3a75817f804d51b80ba61e87a6df36c38f5ac7d3afec71a5c48d3e5cf919dfbcc4911698377411d7e2dbfb5770aea5f3b47f8f866e7a62e71b1efb27928b92922a9108228f46e94368277cf35bff888a2eb8fc5e48d3e92d75791bb818de8e19b2bb8784eb40d9a40fda702545e15f933097629fc4c373e733e199d00f6788658dd3af9372ccd2ac178769fe9aa134de1ff1973dba2c6adc8b116fed58c029db47df76c3b4eb07134270d4cee19f40e4d9f4c207ddf6c8b739d241e6b9949a43c9706b1979d8f96800ffe800b388f82a0a3c1c43603b6939db68ec4d0e8a55bd6b13269330cd3a0d879db7d27200cc8d59edeb0ace64548715b42a89cfb62f242098a48d7066403b5e38ed5515a9ba33ed1113b4d791a822159cf8d50ebec1e7266f22d6e698c987b365f5e51ceb915296d3f8ac9160682a8aae64ecfc329bbe579ea4dad404871a4d3bac449a873072e3b235a735be3fcb861ebea8667b232dba2b083091e42e214ff29ae7e835976b53ce1e795a2a5a411618ff10f2443368b463d7add5becda891340df09661c221fb1b34567966b835795d9e9c47a9c52baca9e91541624ee5e5120dfcfc8e45cd7c9361bb8de7bf28e195acbc7db6d1e34e71fde50799674b9f8676baa27e8296d2bc611fa610aacef7020c79d0bd1921d2520cc785a37cb183b8b1978351075a1728ce51ac6cc05dcb21b36cbaa3e24f4ddd399ef78e472635c6e93539927217a8001510da6fde01531ae1910c14e42f13e90f27c0bddbc21b089472eba0882e475ee958ebdcb366427f483151cbb1702deefd49d7cd2e77afb1805e4751989d6b31ec765d15fc56287f7eda09ea2b9ff83ee0f64cd9f4706b8c0ed65c2e38c7ce3abe9c093c9d168a077d33606926398c9338eeb0be8d4f5b88940fd9b6559a4cc28fa82cb6b5476641b9dc226e14f139e9d746e548507c8d7fc43a35243a6cf01e3dad05ea66ba9cbd0306e41aa618d7b2e4117d4eb7748248614f60e5ba3c75ffc0f7667ceb4b2784300eefbdfadf8387c7f1eef4f6ebbcc988dd98c7055bf160ca84a21338df85dbcdeb51fcd10614b8b2f0cfce26c7dfc0a07e21b628a4d82f45030f08fe864f74dfb5d91852a2b342ac3afd895e3f62d2736ad6b81625b53e7e2c45774948ff2e38d8b6173e10672e24b1695eece9341afd3de726c3f552401a1fa23b440bf605fa40aeb6515e9dadeae6cf94d864ac13e11c23b7fefc95381c4f711a348b16f565ac30ab452c4bb7d4c8b6f5c8c93de8d028b3a3f3807cdbe611479648bee8327c5890f20159037ee3c50f20198f8f97abec2b01752f9e308b83ca51da097c8fd323d84306a0b6ce17bea68d64ca21c0af82310b71afc67824cf9af1115de07c9e3adb5d64e58ff44d4714dc2bc7f6a3d3cb1e7f32bde23b74d3c61a96edb5ef8ed78274dc4d0ee8634c34269f0a1dd58eb6dfc78655015e9f8b4ee852d"
      ],
      "sequence": 4294967294
    }
  ],
  "vout": [
    {
      "value": 499973.5606,
      "n": 0,
      "scriptPubKey": {
        "asm": "1 fc3831f86e9251e84d1baef9b06e1770f6b351516138fd25351ba0d1d5d18e8f",
        "hex": "5120fc3831f86e9251e84d1baef9b06e1770f6b351516138fd25351ba0d1d5d18e8f",
        "reqSigs": 1,
        "type": "witness_v1_scripthash",
        "addresses": [
          "3QJmnh"
        ]
      }
    },
    {
      "value": 1.0,
      "n": 1,
      "scriptPubKey": {
        "asm": "OP_RETURN 0d8987d976f66bb73f341449edc2b31006bb5653756a52606a8996b3e4910aef b864829f81f0e4e118c2be53f5fe607599d483c9032935074934e169d26922e39844a2bfa1d0c4c138e29e73d5de4055b9f4a3e9230915276914c149f24902c3f824c2dfc1b0a4a15882fe13b5be2035d994c389436975470974a129922962a3d804e2ffe190848178a2de33959e0015f9b4e3a96349556729548109b209428338e4021f0170646198423ed3757ee0f51954034983a9b587c9b461e952e9a26318c4223f21504441b8621ef3555ec0d539742369a38995a7e99441c972c9824378a4425f41302421d8027e93353ea0b559144309c3e9f5c789f421a912a9e2235884627f61100401f8225eb3151e809579346329e3c9d5e7a9d401893289c203b864829f81f0e4e118c2be53f5fe607599d483c9032935074934e169d26922e39844a2bfa1d0c4c138e29e73d5de4055b9f4a3e9230915276914c149f24902c3f824c2dfc1b0a4a15882fe13b5be2035d994c389436975470974a129922962a3d804e2ffe190848178a2de33959e0015f9b4e3a96349556729548109b209428338e4021f0170646198423ed3757ee0f51954034983a9b587c9b461e952e9a26318c4223f21504441b8621ef3555ec0d539742369a38995a7e99441c972c9824378a4425f41302421d8027e93353ea0b559144309c3e9f5c789f421a912a9e2235884627f61100401f8225eb3151e809579346329e3c9d5e7a9d401893289c203b864829f81f0e4e118c2be53f5fe607599d483c9032935074934e169d26922e39844a2bfa1d0c4c138e29e73d5de4055b9f4a3e9230915276914c149f24902c3f824c2dfc1b0a4a15882fe13b5be2035d994c389436975470974a129922962a3d804e2ffe190848178a2de33959e0015f9b4e3a96349556729548109b209428338e4021f0170646198423ed3757ee0f51954034983a9b587c9b461e952e9a26318c4223f21504441b8621ef3555ec0d539742369a38995a7e99441c972c9824378a4425f41302421d8027e93353ea0b559144309c3e9f5c789f421a912a9e2235884627f61100401f8225eb3151e809579346329e3c9d5e7a9d401893289c203b864829f81f0e4e118c2be53f5fe607599d483c9032935074934e169d26922e39844a2bfa1d0c4c138e29e73d5de4055b9f4a3e9230915276914c149f24902c3f824c2dfc1b0a4a15882fe13b5be2035d994c389436975470974a129922962a3d804e2ffe190848178a2de33959e0015f9b4e3a96349556729548109b209428338e4021f0170646198423ed3757ee0f51954034983a9b587c9b461e952e9a26318c4223f21504441b8621ef3555ec0d539742369a38995a7e99441c972c9824378a4425f41302421d8027e93353ea0b559144309c3e9f5c789f421a912a9e2235884627f61100401f8225eb3151e809579346329e3c9d5e7a9d401893289c203b864829f81f0e4e118c2be53f5fe607599d483c9032935074934e169d26922e39844a2bfa1d0c4c138e29e73d5de4055b9f4a3e9230915276914c149f24902c3f824c2dfc1b0a4a15882fe13b5be2035d994c389436975470974a129922962a3d804e2ffe190848178a2de33959e0015f9b4e3a96349556729548109b209428338e4021f0170646198423ed3757ee0f5fc85a097e9ced9dddffe83126bf16f5b8a975073c42d13db6fac00573387a7b8",
        "hex": "6a200d8987d976f66bb73f341449edc2b31006bb5653756a52606a8996b3e4910aef4db004b864829f81f0e4e118c2be53f5fe607599d483c9032935074934e169d26922e39844a2bfa1d0c4c138e29e73d5de4055b9f4a3e9230915276914c149f24902c3f824c2dfc1b0a4a15882fe13b5be2035d994c389436975470974a129922962a3d804e2ffe190848178a2de33959e0015f9b4e3a96349556729548109b209428338e4021f0170646198423ed3757ee0f51954034983a9b587c9b461e952e9a26318c4223f21504441b8621ef3555ec0d539742369a38995a7e99441c972c9824378a4425f41302421d8027e93353ea0b559144309c3e9f5c789f421a912a9e2235884627f61100401f8225eb3151e809579346329e3c9d5e7a9d401893289c203b864829f81f0e4e118c2be53f5fe607599d483c9032935074934e169d26922e39844a2bfa1d0c4c138e29e73d5de4055b9f4a3e9230915276914c149f24902c3f824c2dfc1b0a4a15882fe13b5be2035d994c389436975470974a129922962a3d804e2ffe190848178a2de33959e0015f9b4e3a96349556729548109b209428338e4021f0170646198423ed3757ee0f51954034983a9b587c9b461e952e9a26318c4223f21504441b8621ef3555ec0d539742369a38995a7e99441c972c9824378a4425f41302421d8027e93353ea0b559144309c3e9f5c789f421a912a9e2235884627f61100401f8225eb3151e809579346329e3c9d5e7a9d401893289c203b864829f81f0e4e118c2be53f5fe607599d483c9032935074934e169d26922e39844a2bfa1d0c4c138e29e73d5de4055b9f4a3e9230915276914c149f24902c3f824c2dfc1b0a4a15882fe13b5be2035d994c389436975470974a129922962a3d804e2ffe190848178a2de33959e0015f9b4e3a96349556729548109b209428338e4021f0170646198423ed3757ee0f51954034983a9b587c9b461e952e9a26318c4223f21504441b8621ef3555ec0d539742369a38995a7e99441c972c9824378a4425f41302421d8027e93353ea0b559144309c3e9f5c789f421a912a9e2235884627f61100401f8225eb3151e809579346329e3c9d5e7a9d401893289c203b864829f81f0e4e118c2be53f5fe607599d483c9032935074934e169d26922e39844a2bfa1d0c4c138e29e73d5de4055b9f4a3e9230915276914c149f24902c3f824c2dfc1b0a4a15882fe13b5be2035d994c389436975470974a129922962a3d804e2ffe190848178a2de33959e0015f9b4e3a96349556729548109b209428338e4021f0170646198423ed3757ee0f51954034983a9b587c9b461e952e9a26318c4223f21504441b8621ef3555ec0d539742369a38995a7e99441c972c9824378a4425f41302421d8027e93353ea0b559144309c3e9f5c789f421a912a9e2235884627f61100401f8225eb3151e809579346329e3c9d5e7a9d401893289c203b864829f81f0e4e118c2be53f5fe607599d483c9032935074934e169d26922e39844a2bfa1d0c4c138e29e73d5de4055b9f4a3e9230915276914c149f24902c3f824c2dfc1b0a4a15882fe13b5be2035d994c389436975470974a129922962a3d804e2ffe190848178a2de33959e0015f9b4e3a96349556729548109b209428338e4021f0170646198423ed3757ee0f5fc85a097e9ced9dddffe83126bf16f5b8a975073c42d13db6fac00573387a7b8",
        "type": "nulldata"
      }
    }
  ],
  "blockhash": "fe93069f37b49cfb15542a42b300d4e9dc573fdbbe6c5d081907ef62d551896a",
  "confirmations": 1,
  "time": 1764180962,
  "blocktime": 1764180962
}