{
  "hex": "010000000001013445756bb6fa8a6e46c52c0ad4673c64269bf2cfe4460fa9fdb845a3cf5851d50000000000feffffff0200e1f50500000000fdd5046a20a18504b252b6d58e48aa0e88bc2757e3dce8485016884ddcde6f00bb3d3e80f14db004bb1135167f4300ff02b711a1d5446bbe532684483671a026d39ea277bd5ffa309b3115365f6320df22973181f5644b9e7306a46816518006f3be82579d7fda10fb5175563f0340bf42f751e195042bfe1366c4087631e06693dee237fd1fba70db7155761f23609f62d771c1b5240bde3346e4285611c046b3fec217dd3f9a503b91b596ffc3807f8237912155c4eb3ed3a604c8b6f120a6531e22f73ddf7ab01bb195b6dfe3a05fa217b10175e4cb1ef38624e896d10086733e02d71dff5a907bd1f5d6bf83c03fc277d1611584ab7e93e64488f6b160e6135e62b77d9f3af05bf1d5f69fa3e01fe257f14135a48b5eb3c664a8d69140c6337e42975dbf1ad0bb1135167f4300ff02b711a1d5446bbe532684483671a026d39ea277bd5ffa309b3115365f6320df22973181f5644b9e7306a46816518006f3be82579d7fda10fb5175563f0340bf42f751e195042bfe1366c4087631e06693dee237fd1fba70db7155761f23609f62d771c1b5240bde3346e4285611c046b3fec217dd3f9a503b91b596ffc3807f8237912155c4eb3ed3a604c8b6f120a6531e22f73ddf7ab01bb195b6dfe3a05fa217b10175e4cb1ef38624e896d10086733e02d71dff5a907bd1f5d6bf83c03fc277d1611584ab7e93e64488f6b160e6135e62b77d9f3af05bf1d5f69fa3e01fe257f14135a48b5eb3c664a8d69140c6337e42975dbf1ad0bb1135167f4300ff02b711a1d5446bbe532684483671a026d39ea277bd5ffa309b3115365f6320df22973181f5644b9e7306a46816518006f3be82579d7fda10fb5175563f0340bf42f751e195042bfe1366c4087631e06693dee237fd1fba70db7155761f23609f62d771c1b5240bde3346e4285611c046b3fec217dd3f9a503b91b596ffc3807f8237912155c4eb3ed3a604c8b6f120a6531e22f73ddf7ab01bb195b6dfe3a05fa217b10175e4cb1ef38624e896d10086733e02d71dff5a907bd1f5d6bf83c03fc277d1611584ab7e93e64488f6b160e6135e62b77d9f3af05bf1d5f69fa3e01fe257f14135a48b5eb3c664a8d69140c6337e42975dbf1ad0bb1135167f4300ff02b711a1d5446bbe532684483671a026d39ea277bd5ffa309b3115365f6320df22973181f5644b9e7306a46816518006f3be82579d7fda10fb5175563f0340bf42f751e195042bfe1366c4087631e06693dee237fd1fba70db7155761f23609f62d771c1b5240bde3346e4285611c046b3fec217dd3f9a503b91b596ffc3807f8237912155c4eb3ed3a604c8b6f120a6531e22f73ddf7ab01bb195b6dfe3a05fa217b10175e4cb1ef38624e896d10086733e02d71dff5a907bd1f5d6bf83c03fc277d1611584ab7e93e64488f6b160e6135e62b77d9f3af05bf1d5f69fa3e01fe257f14135a48b5eb3c664a8d69140c6337e42975dbf1ad0bb1135167f4300ff02b711a1d5446bbe532684483671a026d39ea277bd5ffa309b3115365f6320df22973181f5644b9e7306a46816518006f3be82579d7fda10fb5175563f0340bf42f751e195042bfe1366c4087631e06693dee237fd1fba70db7155761f23609f62d771c1b5240bde3346e4285611c046b3fec217dd3f9a503b91b596ffc3807f8237912155c4eb3eee338be30d9c9719721c4e2b9e6086be7fb13eaf2c3210c15363051351c37fbea077e402792d00002251206af6d5341dca88f1163d3fb5086a6b296f203fb7146055adc5dcea5ccd37b10102fd7509740842c92c5bf43e95ad50a5cfebc50a18c1bff5ce7bb9140f02289ed466b16ca51fcb68eceefe4ac7c1c6e09baaabd39b9b5ab998366f71d502115a058e5c64d24b48071b44fb7f2dae9de397a1aa3dff7c8b571ae1b919e6d63c3cb18cca183452f759e80f5973ea0087fb3aae2b83cea71db8f56cb08a8e89f178e4948bf21726a5bf7f9ab08d81769337eb6e473a8cfb61bc013350ceb77cacb8f7a8643c9733499eb5834470161ff94e1a496f6e30c4bd7e6693e57f65c915a9295831fe50695e9619151dd842b4c5dd0d1b2931321d82b3571584bbe34e1095c500dde462c595f8677d7443752d3f7a422645db420aa018c9374cf14dc8d63d2f0b8507feb0fe88356c1115830d74a48a5c3fbcbe21298a0f0904847e780c4dd56d8f7289222b990722c49ba7a3cfd78d8018282664f30dbd3a656af494ff1697cdbbae91f6e3a4c20ee0140d444ca0084389c78ecad1e9aecf4d20fea604e3941db3dfd5845cc4b5c8f5b59c2269c2cda129f55805d23e27260ebf4db7c13dfe1efe0ea00c8848dc2434878f8e6e822cb6a481115f492ae3124b7ebebf25ead0eada13c90d76f79abf767eb797df2e4f13b64ea02e4682ce8581e3023ee234246bd265cc42b29e98e63c58b5807964a553a524b0afbda5f24c0b5495b2a93fb1835cd9255ab83b5efbe934691da7f806a748e642865237e868702270bb863f2e6f7dd7c0dc1fea33537989e3642f51194e7fe7cf0dc2f574261d0063be677e9223c24d5fa71de12cefaab47fd9f19ae2a5e655a7d14f0f8c817ad87be2288f1b4c21f2a6f68a196367921ac6c9513f8e3c86a19092c4479b240b5ed2ba907cfadcdc23ca32185393aeafbd325664f611c39ca381869b478016b87b718bb30783874e086a4e14281c035c386dff9110775a3634ec636ae68e5090d948efd32f7f45016357f65b93747b1fb01897b9472079b02e55f9cf2eca26e93dedcbb63d31806b2c809ac1b5548dce724cd621a834c6538c9835cdd47a220d8a54c6f01c2c63d5cc9345962268d9993bbbc9d3ce130ebf46bda9b5ce30202f6ea87fbe574babccbbe22311406ebeef5217b8aaba81a8ab245a24025abb45faf8ffbd191f78f530459a6c1b468063a47437d736262958ccd82bb27fb8ecd7e938efe18a19e1d2609d875d7d9fb3ecf7e7397f612b45007342df8bc7896e509573ed0d05e18da27fdbf1df0c3a0a6ef5007cedbef1e9e5e4e0d151daad3dde2f0bcc9f7129dd1912518adf0d9ebe166a6fbf62567838217825d1414996a44226721534f2396950da86f6015e64e5130cfc0b2e50696cfdbaf3324ad521979f8f702e3d6270871f91e4d7ea1a2d0c5b7a3f5c6282bbd96d07624ad27e52eb589bf2992143ac1aa6ba7fe99d34bcb19dc10b8f785380f76baedc08bc0b9bc557aebd6f4e7730cf59d5cb16d3c72219b16f042c6cd1b1cb1b80a15ef44b249c0ab4b6718f2d91c5a14ce8ea969507c8ed531b0699f6e0ede855b5b4a8668174b5c842ecefebd5fdfd808c87cb1087004aac2bfa68af01b5147b5717e5754b62233b01704b00ad1c275d9dea5466958eb0a1427569ad83a60b1c3a1b28e113867de31f1cf67154d38e27abb40bbf9545a97449c746bddb04b4274a42d549ce79779e6dcc8a4d0490423ab3831abfcb6cd5089598b651234ce0b57ca0149650caadb0f90d9824d4d7d611d359220a183996d155232722e5d3bfd5a1118177cd2c9d1dbd5e970e551d92a8bad0ee284c646f2794704d744b156687cc01f5f615b235a319e37038108bbaff69de5578ea71820c00ea499349262427bd68c61bb8806dbaf5a22a9b2dae9d3eeee2586c13fb1c15e4062108fb95f1a358cccd36578f20eee07031c87658d8106005d6bc0135006e81dfc60cf78973ec496d9fd80509b0ef27a666d18055db54ef304ea4bb434589ac688e6c8467eed34c1e864b09e9b977b0ada51a98d26cb3b3a12db4cdb52053e4f53cace0b51d570d9b5686193cbd515879e2ed0dac2fb4df8e00e2f869697dd6d4b38c058030d794cae9fd41b389280ab7b55f68eb2bab5c2e386168cfe75dcc9ff194935ea0c114fea97cc5151ad3d8778781cbef56af00f68c7ec4e2ce1e5f26f7a7635bc35aebc9abfbd601ca01b295be5b792482ff84788ca3e39545a3d71e95692fb54ee45a0c629c415112ae4594de51f16d1efb59fb65e9071f79ed08c27165a429a4bf86e3c56bb8df9b6b12d5d36faf49feef36b6135f5232f33960b838c51d4bd954ca59700d8e9ba4dd494a77ca1006852680710cd3db9fa1eb78104663cb75cfafbbca108a24b80ef2d140e72dd14c305190f90f133d37ac64cb3ee9f4952a97b6d6e615da2cdb8b3c627213c9209ff9ffda246a7342a376a7dcc58ed72d52e6ce2802e53ea029a0b716421badf82c24510846b4f9acf6ef3d3abcc1c165044df17f409602872dc81193fc996c2499a113e80efe0a3a953b41b430cc55305cda53dd1da0fb349f61c3075811c88456bf49352ba296e3d631c0ee2d65a55f20b80631ac6e8ea34f9df92aeed5ddbdbe435674e4baa431e44e9ed2b0f736fc29c99ae28ad97490f397d336a41e502b4ce79a2e64120fcc88bc0bb297be380b061fbe4ecae273c886e8be602a7d0b91f0236db2a05f12ffd37a82a4adbeb6107e970c5007cf396aeb4138b19fa75cba938dd7834c92babd27c71187c0e430753ef9a97a362b322788e4c23dca54566f4ba63d61a70e0fd337339e7be8205928f4248f01fd259823c7f97c83ff441d47b8b52c94728bdcd0f6546a9222aa0aa6d7989f3627dc0c91d375c6eb83158cd952500eb7da5385c8a6d8ccff2626a7dc8b0196d4d0e2da204a91838e7c83e1c1ecf8441686c8c641502f67185f19bcce19d84e89de21bbc8cd7a0d9a1a4b0132493174b9a466e5c18d5f50f33edfd0200ab69d0d6f7ec74aa8c2c9ffbe51cfe1332c38920d3bf10e1d44ef06ec34f1cfec7c38c3294f8347468f6690e9d6b0c2c4e6b09ed8dd7fe68f36cc1141bc44ea0560133cea7ed18ff68911ce09f1b4c2825d337210b187b05d55f34a80e15dd7ad83db88c4fd104084f07b5481ca72a49764f5b23923c6b192a9734421ce891d3a7f91dfba48a501208921ea23dc8fb327c7c455820ae35015b47ebbaacee53d1ee39701b581b15ca792d8cf0e04947e713164dfb829a78b20701757863aa01583c0297d7caa5cf45a45d946f5b350092ce2846585559d46c425b38161f4237176a5a52e90a50bdfa055f9721c08ce8b479ee9be1a1d21383f484c525968a0a2bbd4e5f1f90b272a2c475b5d69a3a5adc7eef1132f595e727588afbddff4f5f9003a3e969da0aab3cad1d3d9f20000000000000000000000000000000000000000000000111f2c3901fd2105005e4bd0a188c91ed227dfb8dcc7cd63e4e05ca325602c254330b64f62ba26eaaf9f2d6427ae176ff213c1df6bac1c614775c5f38daecc6f334d6e6518d194b7406a94b7374e1ea2b16f1697e66159956e6003856139c63e56bd857a5893eb5a7807fd4bc6bff9107586b593e54710f7cd5ef9e8b04cddd4c5ca497d374588593c7bd9f565405d714aa7289969b485ef916604d46b8c340b51a51be890eb8ff7da7c38d6e65eb1fa2c874c29cdfc6626069d8e5c6d35c3a85254aee5f492f1e8b93f99296315046eb8d6fa8c998a92c64e9c23639d6d12db5793d2f217b7d50faec7640b6c7e56d5bbb9b8a7cc3860744943be78e6f5971e0d8dc4619ef44d42f47baee7008796c5acad07b3b51bb4bbb29ace3b60d3c75c682fd4d68434a85cf7a00cb98904af459851864eec71cd4c7063622f6aeccb36c0831d85f6dff9be857afc4789b5941581291185dd9eeea93161e11b8f629f4339efef22452578f6d984ca54a5137950433391771071142d74e244e2820b8f9c0ad029e6e5b00f948184cd7cefa679583abbd8a324a27fc43d27850655b97d8369fa242c36cdcb5b0b02631fe4211ced09678a62fd225bf2ef70f5d79e46c02f75f5c58549d535be0ec5895e52a2f81fa51ed3a9fe19f8ce24ad75746ab47e7a7e1a4b73a4a558e0fcf4c451e775b5f27bfe4629c1371ce9a0b28c79da67f3184a9b7112d7596252b9600567e5d629ef0f06d1b2d2cf84f3676f23dd78f83f60d0024247d212ca12771ecf1a752e799a883f62009a10e99d7f52fb4f4defb22ba9f4bc7ff2d7fdd039c730deade2c42153c12157fec14b4fc6971c773b67c11ce5f1b6d405e0f6ac9915df726e40e67e9127f695b0af05c83f6bdcd6fd6d2c8a94edb04cd850310c5ed505939912003d865e0e51d5b9fc83032f9b594580005e19470d10b6bf402d60c75075dfb5ea14657f2367278c8b7e4722a34fcf094ce99e08b7d304561c5ec1a74b7e5a83c2896bce7855946b2e83704e836d561f74de81391f5b273b88a0c393c5384068931337e816e7bf5e7e8008aceb018bb8c7acde504c357967ff3254ea822eb11e9290008ab68ef0c1c47d3fb6cba443c24dce093d8004cfd0adbd05a6f0d9bea0a0e1572ba540e5d04e37c004fdfa9f62463251d4bb65b45c532d12fb7162a12e7317b043391b4d4db202d5a699ffb0235b10e135abbcb050355e9579c1cd8070f95edb88777f1a7d9f851b039f9c0883ced68ccf9313a47d7ec35f454bd9adc587fb167d1498f95d53c0ae8ec2a8d7cb6f54bf6fc300b9d60eec12807761c8d063f8e59f02ad4c189d450b120008255b54d3d619e6d1f350998bebaa63821d6ae84cbd498ff93d985b408d383d7e0acb08a88df9dfdec964e0269c0f578ab4c50c33fa4d37a3a549f500ccc1138e100c892c87e320af0583c36518b08ba5bda1dc26caecda98d15390158db990e809d2f0da3f65d5fa0a959d22f8a5180a0e5fba22b4acf0bcb3df11c13cae3f9e8178372e40de9f6e07a7e7dcc021eff5f76205b0d97f9e5961844320f3c0d14c147967e696d827b089b6fd2086def77ef9d3582de296e3ee0bb39fdde7efa85d69ffdd7473f2944df38986be770d4dcc24bd2eb17ce588f2e12966ef47b9017ffc8a041a7ba2c41e5bc0c7487788db299a32aadcc5d94a3a050a9292388708aee762965960555aafc984df70c910d417a110e4d5c23c505d37eaae0cac2a401ed695995b0016be5c61745487c11745571b6b4e7de4de5c6bbeba5983f7929a509998a725e7dcd5c2cb14b0eef14fb62bea1395ad7af39ded573606abe7a23406da089353051f28cd761a8ae1f386000000",
  "txid": "452cd039cdf748c4ff45bb9233d97d5b60f8dc699b9f5c26d13df0cd89540d22",
  "hash": "0187ac0f1bb4c79290baf68a6152487f9c344f3f7b2e99defd9aa6916dc94076",
  "size": 5085,
  "vsize": 2278,
  "version": 1,
  "locktime": 134,
  "vin": [
    {
      "txid": "d55158cfa345b8fda90f46e4cff29b26643c67d40a2cc5466e8afab66b754534",
      "vout": 0,
      "scriptSig": {
        "asm": "",
        "hex": ""
      },
      "txinwitness": [
        "740842c92c5bf43e95ad50a5cfebc50a18c1bff5ce7bb9140f02289ed466b16ca51fcb68eceefe4ac7c1c6e09baaabd39b9b5ab998366f71d502115a058e5c64d24b48071b44fb7f2dae9de397a1aa3dff7c8b571ae1b919e6d63c3cb18cca183452f759e80f5973ea0087fb3aae2b83cea71db8f56cb08a8e89f178e4948bf21726a5bf7f9ab08d81769337eb6e473a8cfb61bc013350ceb77cacb8f7a8643c9733499eb5834470161ff94e1a496f6e30c4bd7e6693e57f65c915a9295831fe50695e9619151dd842b4c5dd0d1b2931321d82b3571584bbe34e1095c500dde462c595f8677d7443752d3f7a422645db420aa018c9374cf14dc8d63d2f0b8507feb0fe88356c1115830d74a48a5c3fbcbe21298a0f0904847e780c4dd56d8f7289222b990722c49ba7a3cfd78d8018282664f30dbd3a656af494ff1697cdbbae91f6e3a4c20ee0140d444ca0084389c78ecad1e9aecf4d20fea604e3941db3dfd5845cc4b5c8f5b59c2269c2cda129f55805d23e27260ebf4db7c13dfe1efe0ea00c8848dc2434878f8e6e822cb6a481115f492ae3124b7ebebf25ead0eada13c90d76f79abf767eb797df2e4f13b64ea02e4682ce8581e3023ee234246bd265cc42b29e98e63c58b5807964a553a524b0afbda5f24c0b5495b2a93fb1835cd9255ab83b5efbe934691da7f806a748e642865237e868702270bb863f2e6f7dd7c0dc1fea33537989e3642f51194e7fe7cf0dc2f574261d0063be677e9223c24d5fa71de12cefaab47fd9f19ae2a5e655a7d14f0f8c817ad87be2288f1b4c21f2a6f68a196367921ac6c9513f8e3c86a19092c4479b240b5ed2ba907cfadcdc23ca32185393aeafbd325664f611c39ca381869b478016b87b718bb30783874e086a4e14281c035c386dff9110775a3634ec636ae68e5090d948efd32f7f45016357f65b93747b1fb01897b9472079b02e55f9cf2eca26e93dedcbb63d31806b2c809ac1b5548dce724cd621a834c6538c9835cdd47a220d8a54c6f01c2c63d5cc9345962268d9993bbbc9d3ce130ebf46bda9b5ce30202f6ea87fbe574babccbbe22311406ebeef5217b8aaba81a8ab245a24025abb45faf8ffbd191f78f530459a6c1b468063a47437d736262958ccd82bb27fb8ecd7e938efe18a19e1d2609d875d7d9fb3ecf7e7397f612b45007342df8bc7896e509573ed0d05e18da27fdbf1df0c3a0a6ef5007cedbef1e9e5e4e0d151daad3dde2f0bcc9f7129dd1912518adf0d9ebe166a6fbf62567838217825d1414996a44226721534f2396950da86f6015e64e5130cfc0b2e50696cfdbaf3324ad521979f8f702e3d6270871f91e4d7ea1a2d0c5b7a3f5c6282bbd96d07624ad27e52eb589bf2992143ac1aa6ba7fe99d34bcb19dc10b8f785380f76baedc08bc0b9bc557aebd6f4e7730cf59d5cb16d3c72219b16f042c6cd1b1cb1b80a15ef44b249c0ab4b6718f2d91c5a14ce8ea969507c8ed531b0699f6e0ede855b5b4a8668174b5c842ecefebd5fdfd808c87cb1087004aac2bfa68af01b5147b5717e5754b62233b01704b00ad1c275d9dea5466958eb0a1427569ad83a60b1c3a1b28e113867de31f1cf67154d38e27abb40bbf9545a97449c746bddb04b4274a42d549ce79779e6dcc8a4d0490423ab3831abfcb6cd5089598b651234ce0b57ca0149650caadb0f90d9824d4d7d611d359220a183996d155232722e5d3bfd5a1118177cd2c9d1dbd5e970e551d92a8bad0ee284c646f2794704d744b156687cc01f5f615b235a319e37038108bbaff69de5578ea71820c00ea499349262427bd68c61bb8806dbaf5a22a9b2dae9d3eeee2586c13fb1c15e4062108fb95f1a358cccd36578f20eee07031c87658d8106005d6bc0135006e81dfc60cf78973ec496d9fd80509b0ef27a666d18055db54ef304ea4bb434589ac688e6c8467eed34c1e864b09e9b977b0ada51a98d26cb3b3a12db4cdb52053e4f53cace0b51d570d9b5686193cbd515879e2ed0dac2fb4df8e00e2f869697dd6d4b38c058030d794cae9fd41b389280ab7b55f68eb2bab5c2e386168cfe75dcc9ff194935ea0c114fea97cc5151ad3d8778781cbef56af00f68c7ec4e2ce1e5f26f7a7635bc35aebc9abfbd601ca01b295be5b792482ff84788ca3e39545a3d71e95692fb54ee45a0c629c415112ae4594de51f16d1efb59fb65e9071f79ed08c27165a429a4bf86e3c56bb8df9b6b12d5d36faf49feef36b6135f5232f33960b838c51d4bd954ca59700d8e9ba4dd494a77ca1006852680710cd3db9fa1eb78104663cb75cfafbbca108a24b80ef2d140e72dd14c305190f90f133d37ac64cb3ee9f4952a97b6d6e615da2cdb8b3c627213c9209ff9ffda246a7342a376a7dcc58ed72d52e6ce2802e53ea029a0b716421badf82c24510846b4f9acf6ef3d3abcc1c165044df17f409602872dc81193fc996c2499a113e80efe0a3a953b41b430cc55305cda53dd1da0fb349f61c3075811c88456bf49352ba296e3d631c0ee2d65a55f20b80631ac6e8ea34f9df92aeed5ddbdbe435674e4baa431e44e9ed2b0f736fc29c99ae28ad97490f397d336a41e502b4ce79a2e64120fcc88bc0bb297be380b061fbe4ecae273c886e8be602a7d0b91f0236db2a05f12ffd37a82a4adbeb6107e970c5007cf396aeb4138b19fa75cba938dd7834c92babd27c71187c0e430753ef9a97a362b322788e4c23dca54566f4ba63d61a70e0fd337339e7be8205928f4248f01fd259823c7f97c83ff441d47b8b52c94728bdcd0f6546a9222aa0aa6d7989f3627dc0c91d375c6eb83158cd952500eb7da5385c8a6d8ccff2626a7dc8b0196d4d0e2da204a91838e7c83e1c1ecf8441686c8c641502f67185f19bcce19d84e89de21bbc8cd7a0d9a1a4b0132493174b9a466e5c18d5f50f33edfd0200ab69d0d6f7ec74aa8c2c9ffbe51cfe1332c38920d3bf10e1d44ef06ec34f1cfec7c38c3294f8347468f6690e9d6b0c2c4e6b09ed8dd7fe68f36cc1141bc44ea0560133cea7ed18ff68911ce09f1b4c2825d337210b187b05d55f34a80e15dd7ad83db88c4fd104084f07b5481ca72a49764f5b23923c6b192a9734421ce891d3a7f91dfba48a501208921ea23dc8fb327c7c455820ae35015b47ebbaacee53d1ee39701b581b15ca792d8cf0e04947e713164dfb829a78b20701757863aa01583c0297d7caa5cf45a45d946f5b350092ce2846585559d46c425b38161f4237176a5a52e90a50bdfa055f9721c08ce8b479ee9be1a1d21383f484c525968a0a2bbd4e5f1f90b272a2c475b5d69a3a5adc7eef1132f595e727588afbddff4f5f9003a3e969da0aab3cad1d3d9f20000000000000000000000000000000000000000000000111f2c3901",
        "005e4bd0a188c91ed227dfb8dcc7cd63e4e05ca325602c254330b64f62ba26eaaf9f2d6427ae176ff213c1df6bac1c614775c5f38daecc6f334d6e6518d194b7406a94b7374e1ea2b16f1697e66159956e6003856139c63e56bd857a5893eb5a7807fd4bc6bff9107586b593e54710f7cd5ef9e8b04cddd4c5ca497d374588593c7bd9f565405d714aa7289969b485ef916604d46b8c340b51a51be890eb8ff7da7c38d6e65eb1fa2c874c29cdfc6626069d8e5c6d35c3a85254aee5f492f1e8b93f99296315046eb8d6fa8c998a92c64e9c23639d6d12db5793d2f217b7d50faec7640b6c7e56d5bbb9b8a7cc3860744943be78e6f5971e0d8dc4619ef44d42f47baee7008796c5acad07b3b51bb4bbb29ace3b60d3c75c682fd4d68434a85cf7a00cb98904af459851864eec71cd4c7063622f6aeccb36c0831d85f6dff9be857afc4789b5941581291185dd9eeea93161e11b8f629f4339efef22452578f6d984ca54a5137950433391771071142d74e244e2820b8f9c0ad029e6e5b00f948184cd7cefa679583abbd8a324a27fc43d27850655b97d8369fa242c36cdcb5b0b02631fe4211ced09678a62fd225bf2ef70f5d79e46c02f75f5c58549d535be0ec5895e52a2f81fa51ed3a9fe19f8ce24ad75746ab47e7a7e1a4b73a4a558e0fcf4c451e775b5f27bfe4629c1371ce9a0b28c79da67f3184a9b7112d7596252b9600567e5d629ef0f06d1b2d2cf84f3676f23dd78f83f60d0024247d212ca12771ecf1a752e799a883f62009a10e99d7f52fb4f4defb22ba9f4bc7ff2d7fdd039c730deade2c42153c12157fec14b4fc6971c773b67c11ce5f1b6d405e0f6ac9915df726e40e67e9127f695b0af05c83f6bdcd6fd6d2c8a94edb04cd850310c5ed505939912003d865e0e51d5b9fc83032f9b594580005e19470d10b6bf402d60c75075dfb5ea14657f2367278c8b7e4722a34fcf094ce99e08b7d304561c5ec1a74b7e5a83c2896bce7855946b2e83704e836d561f74de81391f5b273b88a0c393c5384068931337e816e7bf5e7e8008aceb018bb8c7acde504c357967ff3254ea822eb11e9290008ab68ef0c1c47d3fb6cba443c24dce093d8004cfd0adbd05a6f0d9bea0a0e1572ba540e5d04e37c004fdfa9f62463251d4bb65b45c532d12fb7162a12e7317b043391b4d4db202d5a699ffb0235b10e135abbcb050355e9579c1cd8070f95edb88777f1a7d9f851b039f9c0883ced68ccf9313a47d7ec35f454bd9adc587fb167d1498f95d53c0ae8ec2a8d7cb6f54bf6fc300b9d60eec12807761c8d063f8e59f02ad4c189d450b120008255b54d3d619e6d1f350998bebaa63821d6ae84cbd498ff93d985b408d383d7e0acb08a88df9dfdec964e0269c0f578ab4c50c33fa4d37a3a549f500ccc1138e100c892c87e320af0583c36518b08ba5bda1dc26caecda98d15390158db990e809d2f0da3f65d5fa0a959d22f8a5180a0e5fba22b4acf0bcb3df11c13cae3f9e8178372e40de9f6e07a7e7dcc021eff5f76205b0d97f9e5961844320f3c0d14c147967e696d827b089b6fd2086def77ef9d3582de296e3ee0bb39fdde7efa85d69ffdd7473f2944df38986be770d4dcc24bd2eb17ce588f2e12966ef47b9017ffc8a041a7ba2c41e5bc0c7487788db299a32aadcc5d94a3a050a9292388708aee762965960555aafc984df70c910d417a110e4d5c23c505d37eaae0cac2a401ed695995b0016be5c61745487c11745571b6b4e7de4de5c6bbeba5983f7929a509998a725e7dcd5c2cb14b0eef14fb62bea1395ad7af39ded573606abe7a23406da089353051f28cd761a8ae1f3"
      ],
      "sequence": 4294967294
    }
  ],
  "vout": [
    {
      "value": 1.0,
      "n": 0,
      "scriptPubKey": {
        "asm": "OP_RETURN a18504b252b6d58e48aa0e88bc2757e3dce8485016884ddcde6f00bb3d3e80f1 bb1135167f4300ff02b711a1d5446bbe532684483671a026d39ea277bd5ffa309b3115365f6320df22973181f5644b9e7306a46816518006f3be82579d7fda10fb5175563f0340bf42f751e195042bfe1366c4087631e06693dee237fd1fba70db7155761f23609f62d771c1b5240bde3346e4285611c046b3fec217dd3f9a503b91b596ffc3807f8237912155c4eb3ed3a604c8b6f120a6531e22f73ddf7ab01bb195b6dfe3a05fa217b10175e4cb1ef38624e896d10086733e02d71dff5a907bd1f5d6bf83c03fc277d1611584ab7e93e64488f6b160e6135e62b77d9f3af05bf1d5f69fa3e01fe257f14135a48b5eb3c664a8d69140c6337e42975dbf1ad0bb1135167f4300ff02b711a1d5446bbe532684483671a026d39ea277bd5ffa309b3115365f6320df22973181f5644b9e7306a46816518006f3be82579d7fda10fb5175563f0340bf42f751e195042bfe1366c4087631e06693dee237fd1fba70db7155761f23609f62d771c1b5240bde3346e4285611c046b3fec217dd3f9a503b91b596ffc3807f8237912155c4eb3ed3a604c8b6f120a6531e22f73ddf7ab01bb195b6dfe3a05fa217b10175e4cb1ef38624e896d10086733e02d71dff5a907bd1f5d6bf83c03fc277d1611584ab7e93e64488f6b160e6135e62b77d9f3af05bf1d5f69fa3e01fe257f14135a48b5eb3c664a8d69140c6337e42975dbf1ad0bb1135167f4300ff02b711a1d5446bbe532684483671a026d39ea277bd5ffa309b3115365f6320df22973181f5644b9e7306a46816518006f3be82579d7fda10fb5175563f0340bf42f751e195042bfe1366c4087631e06693dee237fd1fba70db7155761f23609f62d771c1b5240bde3346e4285611c046b3fec217dd3f9a503b91b596ffc3807f8237912155c4eb3ed3a604c8b6f120a6531e22f73ddf7ab01bb195b6dfe3a05fa217b10175e4cb1ef38624e896d10086733e02d71dff5a907bd1f5d6bf83c03fc277d1611584ab7e93e64488f6b160e6135e62b77d9f3af05bf1d5f69fa3e01fe257f14135a48b5eb3c664a8d69140c6337e42975dbf1ad0bb1135167f4300ff02b711a1d5446bbe532684483671a026d39ea277bd5ffa309b3115365f6320df22973181f5644b9e7306a46816518006f3be82579d7fda10fb5175563f0340bf42f751e195042bfe1366c4087631e06693dee237fd1fba70db7155761f23609f62d771c1b5240bde3346e4285611c046b3fec217dd3f9a503b91b596ffc3807f8237912155c4eb3ed3a604c8b6f120a6531e22f73ddf7ab01bb195b6dfe3a05fa217b10175e4cb1ef38624e896d10086733e02d71dff5a907bd1f5d6bf83c03fc277d1611584ab7e93e64488f6b160e6135e62b77d9f3af05bf1d5f69fa3e01fe257f14135a48b5eb3c664a8d69140c6337e42975dbf1ad0bb1135167f4300ff02b711a1d5446bbe532684483671a026d39ea277bd5ffa309b3115365f6320df22973181f5644b9e7306a46816518006f3be82579d7fda10fb5175563f0340bf42f751e195042bfe1366c4087631e06693dee237fd1fba70db7155761f23609f62d771c1b5240bde3346e4285611c046b3fec217dd3f9a503b91b596ffc3807f8237912155c4eb3eee338be30d9c9719721c4e2b9e6086be7fb13eaf2c3210c15363051351c37fbe",
        "hex": "6a20a18504b252b6d58e48aa0e88bc2757e3dce8485016884ddcde6f00bb3d3e80f14db004bb1135167f4300ff02b711a1d5446bbe532684483671a026d39ea277bd5ffa309b3115365f6320df22973181f5644b9e7306a46816518006f3be82579d7fda10fb5175563f0340bf42f751e195042bfe1366c4087631e06693dee237fd1fba70db7155761f23609f62d771c1b5240bde3346e4285611c046b3fec217dd3f9a503b91b596ffc3807f8237912155c4eb3ed3a604c8b6f120a6531e22f73ddf7ab01bb195b6dfe3a05fa217b10175e4cb1ef38624e896d10086733e02d71dff5a907bd1f5d6bf83c03fc277d1611584ab7e93e64488f6b160e6135e62b77d9f3af05bf1d5f69fa3e01fe257f14135a48b5eb3c664a8d69140c6337e42975dbf1ad0bb1135167f4300ff02b711a1d5446bbe532684483671a026d39ea277bd5ffa309b3115365f6320df22973181f5644b9e7306a46816518006f3be82579d7fda10fb5175563f0340bf42f751e195042bfe1366c4087631e06693dee237fd1fba70db7155761f23609f62d771c1b5240bde3346e4285611c046b3fec217dd3f9a503b91b596ffc3807f8237912155c4eb3ed3a604c8b6f120a6531e22f73ddf7ab01bb195b6dfe3a05fa217b10175e4cb1ef38624e896d10086733e02d71dff5a907bd1f5d6bf83c03fc277d1611584ab7e93e64488f6b160e6135e62b77d9f3af05bf1d5f69fa3e01fe257f14135a48b5eb3c664a8d69140c6337e42975dbf1ad0bb1135167f4300ff02b711a1d5446bbe532684483671a026d39ea277bd5ffa309b3115365f6320df22973181f5644b9e7306a46816518006f3be82579d7fda10fb5175563f0340bf42f751e195042bfe1366c4087631e06693dee237fd1fba70db7155761f23609f62d771c1b5240bde3346e4285611c046b3fec217dd3f9a503b91b596ffc3807f8237912155c4eb3ed3a604c8b6f120a6531e22f73ddf7ab01bb195b6dfe3a05fa217b10175e4cb1ef38624e896d10086733e02d71dff5a907bd1f5d6bf83c03fc277d1611584ab7e93e64488f6b160e6135e62b77d9f3af05bf1d5f69fa3e01fe257f14135a48b5eb3c664a8d69140c6337e42975dbf1ad0bb1135167f4300ff02b711a1d5446bbe532684483671a026d39ea277bd5ffa309b3115365f6320df22973181f5644b9e7306a46816518006f3be82579d7fda10fb5175563f0340bf42f751e195042bfe1366c4087631e06693dee237fd1fba70db7155761f23609f62d771c1b5240bde3346e4285611c046b3fec217dd3f9a503b91b596ffc3807f8237912155c4eb3ed3a604c8b6f120a6531e22f73ddf7ab01bb195b6dfe3a05fa217b10175e4cb1ef38624e896d10086733e02d71dff5a907bd1f5d6bf83c03fc277d1611584ab7e93e64488f6b160e6135e62b77d9f3af05bf1d5f69fa3e01fe257f14135a48b5eb3c664a8d69140c6337e42975dbf1ad0bb1135167f4300ff02b711a1d5446bbe532684483671a026d39ea277bd5ffa309b3115365f6320df22973181f5644b9e7306a46816518006f3be82579d7fda10fb5175563f0340bf42f751e195042bfe1366c4087631e06693dee237fd1fba70db7155761f23609f62d771c1b5240bde3346e4285611c046b3fec217dd3f9a503b91b596ffc3807f8237912155c4eb3eee338be30d9c9719721c4e2b9e6086be7fb13eaf2c3210c15363051351c37fbe",
        "type": "nulldata"
      }
    },
    {
      "value": 499977.6282,
      "n": 1,
      "scriptPubKey": {
        "asm": "1 6af6d5341dca88f1163d3fb5086a6b296f203fb7146055adc5dcea5ccd37b101",
        "hex": "51206af6d5341dca88f1163d3fb5086a6b296f203fb7146055adc5dcea5ccd37b101",
        "reqSigs": 1,
        "type": "witness_v1_scripthash",
        "addresses": [
          "3QJmnh"
        ]
      }
    }
  ],
  "blockhash": "74cd48d8c624c37e1fac27c00c19e94c48df61d3ca85b84b56360e4f6170fa6f",
  "confirmations": 1,
  "time": 1764182926,
  "blocktime": 1764182926
}