{
  "hex": "010000000001019bc27d3af5d001ee711cb41c3dbae6e6bed52d9436704f11009d277539c1a2190000000000feffffff029021522d792d00002251200ad7dad6377344748d6bf5835f221b0f5616857452fd182c52e1a56a205e235c00e1f50500000000fdd5046a2025ba59ddb55edeb37bc746acf5a4ea8e53f8c3bba51e6d3f68b39eba72a942ea4db004709aa58d1267568a76ea8f1591c102f8ce4e78e83c4b5452e2780fc49e59958450ba85ad324776aa56caaf35b1e122d8ee6e58c81c6b7472c2582fe4be79b5a430dae5cd522716ca36aacf55d18142b88e0e38a87c0b1412a2384f84de19d5c410fac5ed720736ea168aef75f1a16298ae2e18885c2b343282186fa4fe39f5e4f01a250d92e7d60af66a0f95114182784ecef868bccbd4d262f88f441ed91504d03a052db2c7f62ad64a2fb53161a2586eeed8489cebf4f242d8af643ef93524b05a654dd2a7964ab62a4fd55101c2380e8eb828fc8b949222b8cf045e995544907a456df287b66a960a6ff57121e2182eae9808dcabb4b20298ef247eb97564709aa58d1267568a76ea8f1591c102f8ce4e78e83c4b5452e2780fc49e59958450ba85ad324776aa56caaf35b1e122d8ee6e58c81c6b7472c2582fe4be79b5a430dae5cd522716ca36aacf55d18142b88e0e38a87c0b1412a2384f84de19d5c410fac5ed720736ea168aef75f1a16298ae2e18885c2b343282186fa4fe39f5e4f01a250d92e7d60af66a0f95114182784ecef868bccbd4d262f88f441ed91504d03a052db2c7f62ad64a2fb53161a2586eeed8489cebf4f242d8af643ef93524b05a654dd2a7964ab62a4fd55101c2380e8eb828fc8b949222b8cf045e995544907a456df287b66a960a6ff57121e2182eae9808dcabb4b20298ef247eb97564709aa58d1267568a76ea8f1591c102f8ce4e78e83c4b5452e2780fc49e59958450ba85ad324776aa56caaf35b1e122d8ee6e58c81c6b7472c2582fe4be79b5a430dae5cd522716ca36aacf55d18142b88e0e38a87c0b1412a2384f84de19d5c410fac5ed720736ea168aef75f1a16298ae2e18885c2b343282186fa4fe39f5e4f01a250d92e7d60af66a0f95114182784ecef868bccbd4d262f88f441ed91504d03a052db2c7f62ad64a2fb53161a2586eeed8489cebf4f242d8af643ef93524b05a654dd2a7964ab62a4fd55101c2380e8eb828fc8b949222b8cf045e995544907a456df287b66a960a6ff57121e2182eae9808dcabb4b20298ef247eb97564709aa58d1267568a76ea8f1591c102f8ce4e78e83c4b5452e2780fc49e59958450ba85ad324776aa56caaf35b1e122d8ee6e58c81c6b7472c2582fe4be79b5a430dae5cd522716ca36aacf55d18142b88e0e38a87c0b1412a2384f84de19d5c410fac5ed720736ea168aef75f1a16298ae2e18885c2b343282186fa4fe39f5e4f01a250d92e7d60af66a0f95114182784ecef868bccbd4d262f88f441ed91504d03a052db2c7f62ad64a2fb53161a2586eeed8489cebf4f242d8af643ef93524b05a654dd2a7964ab62a4fd55101c2380e8eb828fc8b949222b8cf045e995544907a456df287b66a960a6ff57121e2182eae9808dcabb4b20298ef247eb97564709aa58d1267568a76ea8f1591c102f8ce4e78e83c4b5452e2780fc49e59958450ba85ad324776aa56caaf35b1e122d8ee6e58c81c6b7472c2582fe4be79b5a430dae5cd522716ca36aacf55d18142b88e0e38a87c0b1412a2384f84de19d5c410fac5ed720736ea168aef75f1a16298ae2e18885c2b343282186fa4fe39f5e4f01a250d92e7d60af66a0f95114182783204c3467c92d0596e3d8a5842dcb6e59ef8eb4b56e53eb55e4865a3dc08c4d102fd7509ccfdeec7d8d0455edb0d371a0530360e0ace22cb5c97b7df95d827ecfea14a9ab3b7a652f94256dde11e2c6d1aca6d2607eb1b6bd62240c22991f595ba5a179fc52fac4ba9e00104538663887cb3bd2fc20e010b7c3e031cdb3b0bb056312b694ab192930f77c1799a7b5c504d0edb58d5222ca8c47779d849ef1c5b35b67dfb9f1230b83832e54a84b25dd26680e954d54c5a6fd94e2def6da16c16fc16ab9b6ad255b0a8e9fac77c54296c8dbda69fd06cb37488e9e6a4610e0f08b1def5108e3e61b95fc828badeaeb038b7bef264d5f8bfbe7f308f5622756873d69527ff266f4898097011209024411e5ee09052d7641a624cfffbaa74e9ed5cfdf9865358c22650516aa594ff9397067ccd03924e1d3cc8099d210ed0d50e8d4d497c8024cf48fb74706c83408c4c8359faf159b94c744fec04c66f54a060c44d0c1dac27ddf38901ed4ba1cf9a3e007b700c60fe5bffdc6ddc488d8b7b6a7502f91676824c2c3727ae343658ecbe95c44749be01d497e7851c671d7ac1ca30a9b183b37691c92f7c32d7ef4e987efa4568e1f551c59339865f36a9bd0103faaf4747634ea66d311054bcb864ac51963304ef6eb2bad619dd5b64736e39170ad2b1b93e3da10fe894a7447c40aff328ff89536f249f4b259f624e1982ddec335c16833de0ecf5f246518c44e17333de2b9a7d1f007793a236e6b0820297b16fbf57f583ff40a733096d337a658448715b054bb04a9c7516ab3df6038fc0bdf55b311566a15652cca41dbc5f16ccec32fa8e495b8efdd5b9abc2edcbe49bf981a1f6c4a1eb727b9e53c9c548401c374e87dc94a4c4db920e1972e64bd68bf1bb719f7f619fdae1956dcd1d172432dd4efa646e005af404e772cd8e5ef714fe55bd09b61705037ef20267964c0f63dd3ecbf42a65b095eb2e490ed581f87f3682fa71a529ad0c21b0c12ca26d9489acaaf495e93ba0e113de75ede3bf2ab266cad1b15b0c883ce01ef641138f4b81e6ad84eaa19f5355764b8e9de856d7b11d38fd5720918aab4e5a7fa41d37e2401506b664d26280bfd9f4b5a5f3f6de18f82a7d5aa5db315944731c61d779ca951b5026599314b43ffdccf1c7ad643c4c5a189ab5ce0fb639ca2ab46d4b1174a7e4e09963d9a12e0f44e11982c187c20936e5e33850f9df8c24e0f91f1620a5fb9f19f1b0468d8d3b1a9bd461a79d19a4cdb15e365da31fd405f85ff85316cf78841f5860d248bc1086030513257acabc36c8f5ec46b966cffb870ccf9a03c00bd5a1cf8c34c0717c5c0434bcbc47faed95dc9dd8c3de3dce84803f0321ca56b0d3399f517964382bd326e18428f9183170dced9deb2c411bd0a931b837dcba8ce0c041585a3c6fc2540043d10903e652781e8036620c2c14c0fa1990193cc884d06cdf3962dd35f40f256c43eb5832d21ae5976b18c9d0f1daaccda67b048210516a2b567ead47560eb927bcb488537c46f4d5894d4d1885fba5810aa19fd580456b41a22d83dea6c78bc5754a3598443e83288a32b2e5f928b435afce225e9eaad62df7cb9f20cb47c30a0b887785dda54672019e7750bac3f8c6f2bd62595acc511d24cd42ac90b360046cca85ed690da833e795a9e696fd1319c7c6b5bd4a4ea9848ddbd33266ab993706a183df0cf88aca6cf9a2f180ef26b8c77c64cfa77f30de758ddedb6af0d2daacb370b0e297f88acbe4b2dd6f463e02f6b9d40ca2de95e87a7559df85e755fa0f789f0247f06e4029ce5d96a9a3eb365a04ca61c89872f721ad85e69c4c1ddb99ab3ad98bd9aab0ac401a431b6852661d17a9924a517fce000c1e31f2659c75909c039d691b428a27e8b9e9483e65d57ec28e26d51b47fec0a873f2fe1210dd46dd6d08cd315c95a69f47276e70898c8a88a96c2171d88a17d2ad01b987c1eda4e30ce3764e280965004d64b3becc77534814dc228fbe7f62dd4481db8769894348f6ded90dba76abc5b32f0369bb8a2664141f69c6d324b497ab40944d9682eb4eb03903cd1a29325945c199c43d8c9274a84d4b5737ce3b29589a122b8c53fed5c70dc7ba83d1902b70c251ea90f99e94b7815610ff5031a3c948cff891262b59927e5b2fdb5595c060a530e514632329836c36c58b1d7c3f036247cfe127e838ce726c81d8b791b0d11e73955f6a2259f54446a9dd93bd7a6c4f609cd277c27864dddca71d764e6850704aca36793e85127f5ab9c9282fa300a2b56478cb7a8f288b7ae7ae493241138b7aa56a41da45b9e89218234f954a1fc65a7c9847b88a2a4c64a962c63fa07c41de83da404cd820a250af8b41057574a2d5096282089d17d6ac6d551120b082ba3fc88bc02bd450a5695747405f773fd1d98e46efa8a75cabfc8602ba2a80e67b41f92b6e699f77a50cc14649926649ec78fc628f1df8830be4edf752e1fa15d8058fcb728aa6ab2785ebf5a624531154df0756845447346b83b910b02d5acbbb73220f713879945b82c85f703276082f9f618f3e06e6a69eef0760037471676fba06f4427d297b7c5cf40dd4acc88b1c795190593952cdc30ed3bde5e76b4c3fa02e338c99c0cd3f2d57ff02466515ce9c995161d1d4a422f82f40feab895ff223e964d50b3884df5a239155ea9d16bfdc4254a5615c74adeabbc3896efef8880598a8ce8629ec9d6e3823fa13e81d5051ffc4d4dcdf9e1dbe9f5ede9f049889bf8c2af3e60b5aa659b3ca3f05ca6e018790a7526df5149ef6ba875910edb559a78c1dc4d6c9fbaa9e72e092f3e5234bde1bc47b8a87b5d0bbad65ffdfd82c0e654338c946b069d6653112695a1ac0718d03d0c74e53d4e24ec5064f69ee659e7fd8d840d1c8543d393ee2c1c557404d1bb987948d69d50d2ed1ec6e42b6a5c019b8a68812b2930f69cd9a233c60cec1ac5c22189c3a250084b568aa5e8a6dadac10cb7daf03c52fffdc3fe0103c7a4e3ed36d14553d647ecd84a985c8fd6e5bf3b81932c26603f619cc3a633a9eb9b73d58cb9f2e829bcaf6916ef7f5ec2b0491f2af1330b9cd26edc8db6a622093a5a4982d947c038837c7fb533be49e6097679dd1a449bbfe89eb2dd0dc9c743cf9b14fa9eb95b7a31d72d045242821af3cef2a67a8246c9714dafeaf66d24168f094f72a855713d8bf5df08037bedccf9ed25a65cd4ac24c8bd4e7c768278d14c36b8718a35f7ff45ee8d5f2d53cf0442a9758277f02f024ea73d5172c5890a82a0155970818f01660f55a341bf09d3e541d5d1eaed0da873ef61d980fad33e8d0b322b5d680869d3d4b20f3a8cefe150e172125697b7d969fbbc8daddf11215303f585e7c98a9f6f7fb192636718898b0b4c1c70e1e36464a5171767fa6b3b7c6e0eff2f50000000000000000000000000000000000000000000000000000000e1a243501fd2105006ba72c83e2375ed137d8b2148a08158abc0d33b650760f56a4ccb42f6901190def09095dd656b5c73dfd21e952536d12d6a3592378b8be9b166481945286ad8c84da77741f4edb156f0295c7176207881e1bdb9c812da7defa82661d80860a1abb145f36255146aa0939650b57523aece434347452c5be5d8897fc7224e2b472e20e81f27e23641605dec1b357d0b173a7214277b15ec434beb7c4342b78dfbc3c41e75d6cf3edddef89a13805e8f85cb01d343a4d29015325f8341690e02675edd9da829b776ac43c2e8fd9c6d740b248583b764a5000fefdd2b83b9103a797ec7090207eb7a10be5204f55ecdc7cfa6b8e85e9c9658f75ca96d1d1378b1e47e22ef5abc22169c0a62ef340bf4af744e960281859d92908e3fa8589cb22af44c864a02a569a9c1d1f0087fe8df55a43089077a94dc7d7e18119dd108d106a7fbc15ec01b349513d69b968081be2f8c9ef257fc34462694e1281923b283c3a81a2d3301a15196d606a0dfd001441f435216d0f96d1fb17a2710cbae0b06f26a33b01c8ea1f8b4d21f533b0ff8e3c2b01499b4f5f32ab7b883e4dbf9864d82e8328bd7c41d2cba6c25b2e5dfce0d53bc0d464483f4d1226b0406b4676e17397f9f1882cfd523729cb13a969cd173fc9730523e92ccc8289eae8ad59a506da39b0180444716aac95aed1801483f481b3baf44d2e51af100bda55d4726c13fd9ed24f2b460a9536794b01a065ed90fa490eeb43f44e6649094d3619ed238675beda496f1ee6a1cf91bb72893a9503b905b3ff380a7f2d4d00d4764af425e63756cb1207a4a2e2f1015ef6b446c3c3288fcb876ea2b07249e5db10f0a3f136a57b14d8b0b51084da4ae7d8a569906858ddba7f36e472183d048be52dc52047cb1dc5a8ccdc6ecaa2d88dcc81cdf093eec60597a4622ef64bc816f6a3b295db8d598e36d36b2680d9ab68e21dc8261c5d313c11ddb5b39c520ef39b3b2a0f9282939ae12f56dd54b05b43a57adba36a52d7a97639bf56d046768725c0ee61d9a100d447601bb9244bd22dc1b22593424798e9035cf80ede645ded32621238ab332434702b87183ae730df4deead8ae1af6e2223758dc41369242bb6db221d0751bcbdbe9fa0b49e32da61d0058657c20d7a73f564b54d29afef5cf096a772fa3b5634f07922ab191ed465b6586d2704ac1796a03eb75479f9f0ee866438670bc4e2d85bb0db7c3f2fc4e81ad8a99d3a62bd8f25e97cedcf7d45eb4e91a0c09fb7a91a7ba81250e4fc56cecda6a64b0399a9931abe5be2821374f5a4a77e62c3e63d17aecf2c639588b47e837dd536c6672657a22c8feec5742169b130d71b8478adb6953f4f8f28b9785022c441420ef881829c7d07a8bb616ed083c221eeec1c64622ab8208bbb768c3ab732e37ef4e0ada71b4683044ecedc0a2736e6de16c9c5b83bd904a91b6b526452072f0cfb05b916a7e3861c6e0e8a4e2da63a268c6ecb900c4b6d2721f150031a3beba3a85050885a30181118b6ab02e2980302c2e5ba64cbd2f416bfa7d4cb39bac02fe5a592466a9c079f3f0f1b5b9e4ae949bf229360002e682381947c06bbf0dc345334f8c486fc567dd9a8442e15a5edf7ab658606f1542f9ac9a743e1a329fe84982c706304e05cd78c817b1ef14d8590de080f273a7cddae9fe990ffdf54af9bceaec435c98fdb3305f933a344c5b707c3d31dcd4c42c4ee200289849ce4217d90a401a2ed264f1563bd58f26dabdecdcdcea88a142545c7efca1951369b494d17ce200ada220b78d02c2d2cdf4f209ebdfdde10be3e66ae81e2fad58a526f69d8463839d9802c23b83161bd29654faa2e4d86ba7c000000",
  "txid": "40d1ce168d3ff1e53581633b5989f34443247278e7e1996d99a9d1c91844539d",
  "hash": "2351a7185de9e9f965d56b4a644c084c7dbce5d3dbd9a69ba59ff175fb552d34",
  "size": 5085,
  "vsize": 2278,
  "version": 1,
  "locktime": 124,
  "vin": [
    {
      "txid": "19a2c13975279d00114f7036942dd5bee6e6ba3d1cb41c71ee01d0f53a7dc29b",
      "vout": 0,
      "scriptSig": {
        "asm": "",
        "hex": ""
      },
      "txinwitness": [
        "ccfdeec7d8d0455edb0d371a0530360e0ace22cb5c97b7df95d827ecfea14a9ab3b7a652f94256dde11e2c6d1aca6d2607eb1b6bd62240c22991f595ba5a179fc52fac4ba9e00104538663887cb3bd2fc20e010b7c3e031cdb3b0bb056312b694ab192930f77c1799a7b5c504d0edb58d5222ca8c47779d849ef1c5b35b67dfb9f1230b83832e54a84b25dd26680e954d54c5a6fd94e2def6da16c16fc16ab9b6ad255b0a8e9fac77c54296c8dbda69fd06cb37488e9e6a4610e0f08b1def5108e3e61b95fc828badeaeb038b7bef264d5f8bfbe7f308f5622756873d69527ff266f4898097011209024411e5ee09052d7641a624cfffbaa74e9ed5cfdf9865358c22650516aa594ff9397067ccd03924e1d3cc8099d210ed0d50e8d4d497c8024cf48fb74706c83408c4c8359faf159b94c744fec04c66f54a060c44d0c1dac27ddf38901ed4ba1cf9a3e007b700c60fe5bffdc6ddc488d8b7b6a7502f91676824c2c3727ae343658ecbe95c44749be01d497e7851c671d7ac1ca30a9b183b37691c92f7c32d7ef4e987efa4568e1f551c59339865f36a9bd0103faaf4747634ea66d311054bcb864ac51963304ef6eb2bad619dd5b64736e39170ad2b1b93e3da10fe894a7447c40aff328ff89536f249f4b259f624e1982ddec335c16833de0ecf5f246518c44e17333de2b9a7d1f007793a236e6b0820297b16fbf57f583ff40a733096d337a658448715b054bb04a9c7516ab3df6038fc0bdf55b311566a15652cca41dbc5f16ccec32fa8e495b8efdd5b9abc2edcbe49bf981a1f6c4a1eb727b9e53c9c548401c374e87dc94a4c4db920e1972e64bd68bf1bb719f7f619fdae1956dcd1d172432dd4efa646e005af404e772cd8e5ef714fe55bd09b61705037ef20267964c0f63dd3ecbf42a65b095eb2e490ed581f87f3682fa71a529ad0c21b0c12ca26d9489acaaf495e93ba0e113de75ede3bf2ab266cad1b15b0c883ce01ef641138f4b81e6ad84eaa19f5355764b8e9de856d7b11d38fd5720918aab4e5a7fa41d37e2401506b664d26280bfd9f4b5a5f3f6de18f82a7d5aa5db315944731c61d779ca951b5026599314b43ffdccf1c7ad643c4c5a189ab5ce0fb639ca2ab46d4b1174a7e4e09963d9a12e0f44e11982c187c20936e5e33850f9df8c24e0f91f1620a5fb9f19f1b0468d8d3b1a9bd461a79d19a4cdb15e365da31fd405f85ff85316cf78841f5860d248bc1086030513257acabc36c8f5ec46b966cffb870ccf9a03c00bd5a1cf8c34c0717c5c0434bcbc47faed95dc9dd8c3de3dce84803f0321ca56b0d3399f517964382bd326e18428f9183170dced9deb2c411bd0a931b837dcba8ce0c041585a3c6fc2540043d10903e652781e8036620c2c14c0fa1990193cc884d06cdf3962dd35f40f256c43eb5832d21ae5976b18c9d0f1daaccda67b048210516a2b567ead47560eb927bcb488537c46f4d5894d4d1885fba5810aa19fd580456b41a22d83dea6c78bc5754a3598443e83288a32b2e5f928b435afce225e9eaad62df7cb9f20cb47c30a0b887785dda54672019e7750bac3f8c6f2bd62595acc511d24cd42ac90b360046cca85ed690da833e795a9e696fd1319c7c6b5bd4a4ea9848ddbd33266ab993706a183df0cf88aca6cf9a2f180ef26b8c77c64cfa77f30de758ddedb6af0d2daacb370b0e297f88acbe4b2dd6f463e02f6b9d40ca2de95e87a7559df85e755fa0f789f0247f06e4029ce5d96a9a3eb365a04ca61c89872f721ad85e69c4c1ddb99ab3ad98bd9aab0ac401a431b6852661d17a9924a517fce000c1e31f2659c75909c039d691b428a27e8b9e9483e65d57ec28e26d51b47fec0a873f2fe1210dd46dd6d08cd315c95a69f47276e70898c8a88a96c2171d88a17d2ad01b987c1eda4e30ce3764e280965004d64b3becc77534814dc228fbe7f62dd4481db8769894348f6ded90dba76abc5b32f0369bb8a2664141f69c6d324b497ab40944d9682eb4eb03903cd1a29325945c199c43d8c9274a84d4b5737ce3b29589a122b8c53fed5c70dc7ba83d1902b70c251ea90f99e94b7815610ff5031a3c948cff891262b59927e5b2fdb5595c060a530e514632329836c36c58b1d7c3f036247cfe127e838ce726c81d8b791b0d11e73955f6a2259f54446a9dd93bd7a6c4f609cd277c27864dddca71d764e6850704aca36793e85127f5ab9c9282fa300a2b56478cb7a8f288b7ae7ae493241138b7aa56a41da45b9e89218234f954a1fc65a7c9847b88a2a4c64a962c63fa07c41de83da404cd820a250af8b41057574a2d5096282089d17d6ac6d551120b082ba3fc88bc02bd450a5695747405f773fd1d98e46efa8a75cabfc8602ba2a80e67b41f92b6e699f77a50cc14649926649ec78fc628f1df8830be4edf752e1fa15d8058fcb728aa6ab2785ebf5a624531154df0756845447346b83b910b02d5acbbb73220f713879945b82c85f703276082f9f618f3e06e6a69eef0760037471676fba06f4427d297b7c5cf40dd4acc88b1c795190593952cdc30ed3bde5e76b4c3fa02e338c99c0cd3f2d57ff02466515ce9c995161d1d4a422f82f40feab895ff223e964d50b3884df5a239155ea9d16bfdc4254a5615c74adeabbc3896efef8880598a8ce8629ec9d6e3823fa13e81d5051ffc4d4dcdf9e1dbe9f5ede9f049889bf8c2af3e60b5aa659b3ca3f05ca6e018790a7526df5149ef6ba875910edb559a78c1dc4d6c9fbaa9e72e092f3e5234bde1bc47b8a87b5d0bbad65ffdfd82c0e654338c946b069d6653112695a1ac0718d03d0c74e53d4e24ec5064f69ee659e7fd8d840d1c8543d393ee2c1c557404d1bb987948d69d50d2ed1ec6e42b6a5c019b8a68812b2930f69cd9a233c60cec1ac5c22189c3a250084b568aa5e8a6dadac10cb7daf03c52fffdc3fe0103c7a4e3ed36d14553d647ecd84a985c8fd6e5bf3b81932c26603f619cc3a633a9eb9b73d58cb9f2e829bcaf6916ef7f5ec2b0491f2af1330b9cd26edc8db6a622093a5a4982d947c038837c7fb533be49e6097679dd1a449bbfe89eb2dd0dc9c743cf9b14fa9eb95b7a31d72d045242821af3cef2a67a8246c9714dafeaf66d24168f094f72a855713d8bf5df08037bedccf9ed25a65cd4ac24c8bd4e7c768278d14c36b8718a35f7ff45ee8d5f2d53cf0442a9758277f02f024ea73d5172c5890a82a0155970818f01660f55a341bf09d3e541d5d1eaed0da873ef61d980fad33e8d0b322b5d680869d3d4b20f3a8cefe150e172125697b7d969fbbc8daddf11215303f585e7c98a9f6f7fb192636718898b0b4c1c70e1e36464a5171767fa6b3b7c6e0eff2f50000000000000000000000000000000000000000000000000000000e1a243501",
        "006ba72c83e2375ed137d8b2148a08158abc0d33b650760f56a4ccb42f6901190def09095dd656b5c73dfd21e952536d12d6a3592378b8be9b166481945286ad8c84da77741f4edb156f0295c7176207881e1bdb9c812da7defa82661d80860a1abb145f36255146aa0939650b57523aece434347452c5be5d8897fc7224e2b472e20e81f27e23641605dec1b357d0b173a7214277b15ec434beb7c4342b78dfbc3c41e75d6cf3edddef89a13805e8f85cb01d343a4d29015325f8341690e02675edd9da829b776ac43c2e8fd9c6d740b248583b764a5000fefdd2b83b9103a797ec7090207eb7a10be5204f55ecdc7cfa6b8e85e9c9658f75ca96d1d1378b1e47e22ef5abc22169c0a62ef340bf4af744e960281859d92908e3fa8589cb22af44c864a02a569a9c1d1f0087fe8df55a43089077a94dc7d7e18119dd108d106a7fbc15ec01b349513d69b968081be2f8c9ef257fc34462694e1281923b283c3a81a2d3301a15196d606a0dfd001441f435216d0f96d1fb17a2710cbae0b06f26a33b01c8ea1f8b4d21f533b0ff8e3c2b01499b4f5f32ab7b883e4dbf9864d82e8328bd7c41d2cba6c25b2e5dfce0d53bc0d464483f4d1226b0406b4676e17397f9f1882cfd523729cb13a969cd173fc9730523e92ccc8289eae8ad59a506da39b0180444716aac95aed1801483f481b3baf44d2e51af100bda55d4726c13fd9ed24f2b460a9536794b01a065ed90fa490eeb43f44e6649094d3619ed238675beda496f1ee6a1cf91bb72893a9503b905b3ff380a7f2d4d00d4764af425e63756cb1207a4a2e2f1015ef6b446c3c3288fcb876ea2b07249e5db10f0a3f136a57b14d8b0b51084da4ae7d8a569906858ddba7f36e472183d048be52dc52047cb1dc5a8ccdc6ecaa2d88dcc81cdf093eec60597a4622ef64bc816f6a3b295db8d598e36d36b2680d9ab68e21dc8261c5d313c11ddb5b39c520ef39b3b2a0f9282939ae12f56dd54b05b43a57adba36a52d7a97639bf56d046768725c0ee61d9a100d447601bb9244bd22dc1b22593424798e9035cf80ede645ded32621238ab332434702b87183ae730df4deead8ae1af6e2223758dc41369242bb6db221d0751bcbdbe9fa0b49e32da61d0058657c20d7a73f564b54d29afef5cf096a772fa3b5634f07922ab191ed465b6586d2704ac1796a03eb75479f9f0ee866438670bc4e2d85bb0db7c3f2fc4e81ad8a99d3a62bd8f25e97cedcf7d45eb4e91a0c09fb7a91a7ba81250e4fc56cecda6a64b0399a9931abe5be2821374f5a4a77e62c3e63d17aecf2c639588b47e837dd536c6672657a22c8feec5742169b130d71b8478adb6953f4f8f28b9785022c441420ef881829c7d07a8bb616ed083c221eeec1c64622ab8208bbb768c3ab732e37ef4e0ada71b4683044ecedc0a2736e6de16c9c5b83bd904a91b6b526452072f0cfb05b916a7e3861c6e0e8a4e2da63a268c6ecb900c4b6d2721f150031a3beba3a85050885a30181118b6ab02e2980302c2e5ba64cbd2f416bfa7d4cb39bac02fe5a592466a9c079f3f0f1b5b9e4ae949bf229360002e682381947c06bbf0dc345334f8c486fc567dd9a8442e15a5edf7ab658606f1542f9ac9a743e1a329fe84982c706304e05cd78c817b1ef14d8590de080f273a7cddae9fe990ffdf54af9bceaec435c98fdb3305f933a344c5b707c3d31dcd4c42c4ee200289849ce4217d90a401a2ed264f1563bd58f26dabdecdcdcea88a142545c7efca1951369b494d17ce200ada220b78d02c2d2cdf4f209ebdfdde10be3e66ae81e2fad58a526f69d8463839d9802c23b83161bd29654faa2e4d86ba"
      ],
      "sequence": 4294967294
    }
  ],
  "vout": [
    {
      "value": 499984.7465,
      "n": 0,
      "scriptPubKey": {
        "asm": "1 0ad7dad6377344748d6bf5835f221b0f5616857452fd182c52e1a56a205e235c",
        "hex": "51200ad7dad6377344748d6bf5835f221b0f5616857452fd182c52e1a56a205e235c",
        "reqSigs": 1,
        "type": "witness_v1_scripthash",
        "addresses": [
          "3QJmnh"
        ]
      }
    },
    {
      "value": 1.0,
      "n": 1,
      "scriptPubKey": {
        "asm": "OP_RETURN 25ba59ddb55edeb37bc746acf5a4ea8e53f8c3bba51e6d3f68b39eba72a942ea 709aa58d1267568a76ea8f1591c102f8ce4e78e83c4b5452e2780fc49e59958450ba85ad324776aa56caaf35b1e122d8ee6e58c81c6b7472c2582fe4be79b5a430dae5cd522716ca36aacf55d18142b88e0e38a87c0b1412a2384f84de19d5c410fac5ed720736ea168aef75f1a16298ae2e18885c2b343282186fa4fe39f5e4f01a250d92e7d60af66a0f95114182784ecef868bccbd4d262f88f441ed91504d03a052db2c7f62ad64a2fb53161a2586eeed8489cebf4f242d8af643ef93524b05a654dd2a7964ab62a4fd55101c2380e8eb828fc8b949222b8cf045e995544907a456df287b66a960a6ff57121e2182eae9808dcabb4b20298ef247eb97564709aa58d1267568a76ea8f1591c102f8ce4e78e83c4b5452e2780fc49e59958450ba85ad324776aa56caaf35b1e122d8ee6e58c81c6b7472c2582fe4be79b5a430dae5cd522716ca36aacf55d18142b88e0e38a87c0b1412a2384f84de19d5c410fac5ed720736ea168aef75f1a16298ae2e18885c2b343282186fa4fe39f5e4f01a250d92e7d60af66a0f95114182784ecef868bccbd4d262f88f441ed91504d03a052db2c7f62ad64a2fb53161a2586eeed8489cebf4f242d8af643ef93524b05a654dd2a7964ab62a4fd55101c2380e8eb828fc8b949222b8cf045e995544907a456df287b66a960a6ff57121e2182eae9808dcabb4b20298ef247eb97564709aa58d1267568a76ea8f1591c102f8ce4e78e83c4b5452e2780fc49e59958450ba85ad324776aa56caaf35b1e122d8ee6e58c81c6b7472c2582fe4be79b5a430dae5cd522716ca36aacf55d18142b88e0e38a87c0b1412a2384f84de19d5c410fac5ed720736ea168aef75f1a16298ae2e18885c2b343282186fa4fe39f5e4f01a250d92e7d60af66a0f95114182784ecef868bccbd4d262f88f441ed91504d03a052db2c7f62ad64a2fb53161a2586eeed8489cebf4f242d8af643ef93524b05a654dd2a7964ab62a4fd55101c2380e8eb828fc8b949222b8cf045e995544907a456df287b66a960a6ff57121e2182eae9808dcabb4b20298ef247eb97564709aa58d1267568a76ea8f1591c102f8ce4e78e83c4b5452e2780fc49e59958450ba85ad324776aa56caaf35b1e122d8ee6e58c81c6b7472c2582fe4be79b5a430dae5cd522716ca36aacf55d18142b88e0e38a87c0b1412a2384f84de19d5c410fac5ed720736ea168aef75f1a16298ae2e18885c2b343282186fa4fe39f5e4f01a250d92e7d60af66a0f95114182784ecef868bccbd4d262f88f441ed91504d03a052db2c7f62ad64a2fb53161a2586eeed8489cebf4f242d8af643ef93524b05a654dd2a7964ab62a4fd55101c2380e8eb828fc8b949222b8cf045e995544907a456df287b66a960a6ff57121e2182eae9808dcabb4b20298ef247eb97564709aa58d1267568a76ea8f1591c102f8ce4e78e83c4b5452e2780fc49e59958450ba85ad324776aa56caaf35b1e122d8ee6e58c81c6b7472c2582fe4be79b5a430dae5cd522716ca36aacf55d18142b88e0e38a87c0b1412a2384f84de19d5c410fac5ed720736ea168aef75f1a16298ae2e18885c2b343282186fa4fe39f5e4f01a250d92e7d60af66a0f95114182783204c3467c92d0596e3d8a5842dcb6e59ef8eb4b56e53eb55e4865a3dc08c4d1",
        "hex": "6a2025ba59ddb55edeb37bc746acf5a4ea8e53f8c3bba51e6d3f68b39eba72a942ea4db004709aa58d1267568a76ea8f1591c102f8ce4e78e83c4b5452e2780fc49e59958450ba85ad324776aa56caaf35b1e122d8ee6e58c81c6b7472c2582fe4be79b5a430dae5cd522716ca36aacf55d18142b88e0e38a87c0b1412a2384f84de19d5c410fac5ed720736ea168aef75f1a16298ae2e18885c2b343282186fa4fe39f5e4f01a250d92e7d60af66a0f95114182784ecef868bccbd4d262f88f441ed91504d03a052db2c7f62ad64a2fb53161a2586eeed8489cebf4f242d8af643ef93524b05a654dd2a7964ab62a4fd55101c2380e8eb828fc8b949222b8cf045e995544907a456df287b66a960a6ff57121e2182eae9808dcabb4b20298ef247eb97564709aa58d1267568a76ea8f1591c102f8ce4e78e83c4b5452e2780fc49e59958450ba85ad324776aa56caaf35b1e122d8ee6e58c81c6b7472c2582fe4be79b5a430dae5cd522716ca36aacf55d18142b88e0e38a87c0b1412a2384f84de19d5c410fac5ed720736ea168aef75f1a16298ae2e18885c2b343282186fa4fe39f5e4f01a250d92e7d60af66a0f95114182784ecef868bccbd4d262f88f441ed91504d03a052db2c7f62ad64a2fb53161a2586eeed8489cebf4f242d8af643ef93524b05a654dd2a7964ab62a4fd55101c2380e8eb828fc8b949222b8cf045e995544907a456df287b66a960a6ff57121e2182eae9808dcabb4b20298ef247eb97564709aa58d1267568a76ea8f1591c102f8ce4e78e83c4b5452e2780fc49e59958450ba85ad324776aa56caaf35b1e122d8ee6e58c81c6b7472c2582fe4be79b5a430dae5cd522716ca36aacf55d18142b88e0e38a87c0b1412a2384f84de19d5c410fac5ed720736ea168aef75f1a16298ae2e18885c2b343282186fa4fe39f5e4f01a250d92e7d60af66a0f95114182784ecef868bccbd4d262f88f441ed91504d03a052db2c7f62ad64a2fb53161a2586eeed8489cebf4f242d8af643ef93524b05a654dd2a7964ab62a4fd55101c2380e8eb828fc8b949222b8cf045e995544907a456df287b66a960a6ff57121e2182eae9808dcabb4b20298ef247eb97564709aa58d1267568a76ea8f1591c102f8ce4e78e83c4b5452e2780fc49e59958450ba85ad324776aa56caaf35b1e122d8ee6e58c81c6b7472c2582fe4be79b5a430dae5cd522716ca36aacf55d18142b88e0e38a87c0b1412a2384f84de19d5c410fac5ed720736ea168aef75f1a16298ae2e18885c2b343282186fa4fe39f5e4f01a250d92e7d60af66a0f95114182784ecef868bccbd4d262f88f441ed91504d03a052db2c7f62ad64a2fb53161a2586eeed8489cebf4f242d8af643ef93524b05a654dd2a7964ab62a4fd55101c2380e8eb828fc8b949222b8cf045e995544907a456df287b66a960a6ff57121e2182eae9808dcabb4b20298ef247eb97564709aa58d1267568a76ea8f1591c102f8ce4e78e83c4b5452e2780fc49e59958450ba85ad324776aa56caaf35b1e122d8ee6e58c81c6b7472c2582fe4be79b5a430dae5cd522716ca36aacf55d18142b88e0e38a87c0b1412a2384f84de19d5c410fac5ed720736ea168aef75f1a16298ae2e18885c2b343282186fa4fe39f5e4f01a250d92e7d60af66a0f95114182783204c3467c92d0596e3d8a5842dcb6e59ef8eb4b56e53eb55e4865a3dc08c4d1",
        "type": "nulldata"
      }
    }
  ],
  "blockhash": "fe93069f37b49cfb15542a42b300d4e9dc573fdbbe6c5d081907ef62d551896a",
  "confirmations": 1,
  "time": 1764180962,
  "blocktime": 1764180962
}