{
  "hex": "01000000000101e8196cfe9faac8d6bfbfec831fac703541d8a02a28dc31f266783acb9a58436d0000000000feffffff02b0767139792d00002251206524913e22fa31fb18968cabcf0ed3e45b029ccb83b6407fae8a80a7441c36b000e1f50500000000fdd5046a200540a4e663edc3737276a153c95c86f109ea3fa206b0c6ac832d9f16186028054db004e7c110128cdb48d2a72c2d35752c8c41996ee7918de3d53da42beaadc7a6d8d1c7e13032acfb68f2870c0d15550cac61b94ec7b1adc3f51d840bca8de786f8f1a7815052cc9b0892e76c6d75356ccc01d92ea7d1cda3957de46baaed87e6989187a17072ecbb28b2c74c4d55154cec21f90e87f1ed83b55dc44b8acda7c6b8b1674190920c5bc85227acadb5f5ac0cc119ee67110d6355bd24ab6a2d472658514761b0b22c7be872078c8d95d58c2ce139ce47312d43759d048b4a0d670678712701d0d24c1b881267ecedf5b5ec4c8159ae27514d2315fd64eb2a6d076618110721f0f26c3ba83247cccdd595cc6ca1798e07716d0335dd44cb0a4d27463831e7c110128cdb48d2a72c2d35752c8c41996ee7918de3d53da42beaadc7a6d8d1c7e13032acfb68f2870c0d15550cac61b94ec7b1adc3f51d840bca8de786f8f1a7815052cc9b0892e76c6d75356ccc01d92ea7d1cda3957de46baaed87e6989187a17072ecbb28b2c74c4d55154cec21f90e87f1ed83b55dc44b8acda7c6b8b1674190920c5bc85227acadb5f5ac0cc119ee67110d6355bd24ab6a2d472658514761b0b22c7be872078c8d95d58c2ce139ce47312d43759d048b4a0d670678712701d0d24c1b881267ecedf5b5ec4c8159ae27514d2315fd64eb2a6d076618110721f0f26c3ba83247cccdd595cc6ca1798e07716d0335dd44cb0a4d27463831e7c110128cdb48d2a72c2d35752c8c41996ee7918de3d53da42beaadc7a6d8d1c7e13032acfb68f2870c0d15550cac61b94ec7b1adc3f51d840bca8de786f8f1a7815052cc9b0892e76c6d75356ccc01d92ea7d1cda3957de46baaed87e6989187a17072ecbb28b2c74c4d55154cec21f90e87f1ed83b55dc44b8acda7c6b8b1674190920c5bc85227acadb5f5ac0cc119ee67110d6355bd24ab6a2d472658514761b0b22c7be872078c8d95d58c2ce139ce47312d43759d048b4a0d670678712701d0d24c1b881267ecedf5b5ec4c8159ae27514d2315fd64eb2a6d076618110721f0f26c3ba83247cccdd595cc6ca1798e07716d0335dd44cb0a4d27463831e7c110128cdb48d2a72c2d35752c8c41996ee7918de3d53da42beaadc7a6d8d1c7e13032acfb68f2870c0d15550cac61b94ec7b1adc3f51d840bca8de786f8f1a7815052cc9b0892e76c6d75356ccc01d92ea7d1cda3957de46baaed87e6989187a17072ecbb28b2c74c4d55154cec21f90e87f1ed83b55dc44b8acda7c6b8b1674190920c5bc85227acadb5f5ac0cc119ee67110d6355bd24ab6a2d472658514761b0b22c7be872078c8d95d58c2ce139ce47312d43759d048b4a0d670678712701d0d24c1b881267ecedf5b5ec4c8159ae27514d2315fd64eb2a6d076618110721f0f26c3ba83247cccdd595cc6ca1798e07716d0335dd44cb0a4d27463831e7c110128cdb48d2a72c2d35752c8c41996ee7918de3d53da42beaadc7a6d8d1c7e13032acfb68f2870c0d15550cac61b94ec7b1adc3f51d840bca8de786f8f1a7815052cc9b0892e76c6d75356ccc01d92ea7d1cda3957de46baaed87e6989187a17072ecbb28b2c74c4d55154cec21f90e87f1ed83b55dc44b8acda7c6b8b1674190920c5bc85227acadb5f5ac0cc14edd8ee6d38ed7d006bc60e016b83933a57b9aedfaca2752d7fd1f57df154dc202fd7509c595c2a645ec0016d32c42a6d35a5d8264f3fa072e952e79b7fe5757e7c4da8c4edc629a6c958ad389d382c176fdec5b3a1edfa8587afd5c4281735b70e23a98d15263660ccb1bf0baa95d8227ebe270ac03dd6727d405f829a5281734fabb41a454b64a67eaf7aa3ce3dce207f37368b51ec9af290da6319d3f8e71d4994bf802c1b7384775ab50990ced30b325b96d7ba90dab7df02bb2e84529061dc46b003bb3b4582fa8e856440b5486c453b4c10a20be1555cd5f4f820edbfed4342bd43370e64dafe83789346dcee13854f2097fd4403793b1d9c0e8e4e77d56b6802d267a59e82390cf40b8ce147770158ab01d61e171e635f0c758645a481cf56cf91f568be3acfffc12f3cca03bb3891f98374bee8ce7715826bb6666a7b88e88cb61a16c7a3a3593661edc10ba28551ec3ac8a41f797db6e341587bb2c7468b946ed8891027deeddba8914ffcc7350a24b9a709b67471c069afd1ef69c216fa6d3aed1a3418b0408e509942f559933cfffd13cc17499308850ced5f744aab766fb98969923077bc6afaf0f1a2fc1376d938a5c00548fe871f4e0cd444436a45a5e9c263dd24e772b36bb79aa72fe30d6edb064d3f497c5175f8e8eb12bd62bd60d0779fcad036f895c91fd233c7730e6ebafe05628520e83a23593721e8f444ded609700003fd8f36e90216579cfa22c64b64d7f8513e2d65f60b1b432adab94baa1b2f51d8edcc767503dc5e2422c76af8a5da24d3cd09c00778b907f53220520b3af63fc01c8208cd459dcc4403005f71214a91482dd7f120395411afd04986a79754a1695e526ff1241e79006c1406fb3f674e8019bdb728a343031ddacfa923c138a35de704c511623c07148ba67d3a09fd5601d77925e9d1162c06472e44127b206ce8ad8a5a0abbb9423714bfad16e37fc7b1b77c68ca152ca17046dee6d137db297cdcafd799d362e4dbbcfb9feea6b9309f3b3f1b97880e66894be39a6f5242d6f1bd758ff5fb1e6b68075492055f73a67206257c206f264e2a8e54cff739c7d9cc2c41c7dee935ec154d02175f03206484a2aa999b3c57e2a24ffac83250e96ec50bc5cdb976b1a8cde125c1d2e86746b721d4a5954f7566174c6f94273dfe61500710560bbb3e62d15fa133631f6fb2dd8dcd2df4c3d75bef540f6df204525efd80e99fb4189852f92e4bd988dc20166eb8c7d3b41714fa96f323efa7842bccdb4a99349e671eff4ecf34e5731a4e17d349d2d8ea8ff7363867b5e3f7cc2a38c7ad06162016060b825a27daa4376a8a3cf04d2498d1a580691edaddaafc11791bd1d3ed4ed306c2a52a5c9a768a45b9e24d37ed5238a0e86d99d8a375b72d77feb49fe6afd0cfa793216f3fe2fdfa9fe30f261c4d423654142d6d111eeb92ea3f6e187a32b668a2db98a9d19e97b2734fe14de735b436f136c3e08362a0a6d2e881c15e14de241c0652228c38018c57b63d9d610fd9bb22dcc82f65e56dc547006901146f6b368ea886f36a78497e650a540bb442d87b1f407ea7345c07ff0c538731328ee9eb5ee4f406096d0022c235fe1fd07f47eaf4d27f4aa7f8733ac6de4d81309436a61a6e2d01700f48eb6e52e2fd2147a213fc4f8929f239015fed1e33acd6d082d2471b66bbf9635d47fc5892164f564db68d4889ae70835e14b75a0877f1bc25b7fb6f23daa57b1fd1e694bf2674004a122e60c29b98dea88ab236444879394ab769fee7034a277a7c53f283330fee513b9fd6bbf2b2200ed9f20513568d07d264f34c09b3c394e47bdb7d0ede9e6b4a527ee63cb65b6ea5c0cbba02ffd42bb3475a311af2173a2b1206bd323fc6e795711317df8d124b44f37707c050b560ff0f39e6de35b0445942569aab16a78e6267244ce4cd4e64b47fd6f481104238158e73a5847fec354d1f487d9182bab7229088f3c87ca54defae4f62b8adbf0daa7c0b40e8a6bd758de4e7a1661c99f75009ecc679ac785da0edb9c67619d3bf86572994f2d53ca54f3304d79491d975ae247b63e5e6bfb2f6246f2563168356a0a529d2252589f67330b2f7d855431028ac004706d89e23dd9db694f16c87ac86cc8aa10a8304aee06de89dedf312078d8c8fc0803b43afaff23a87b1a3b3b8c5141c89be5c17579e2af3b2f393b87fb731440d25bde75ef5f707d63e9a70f4488cf51ac276bfb906628e3a3cdafc704fb8995d5388081b90bd949e9835ed35e1a602d024466aab94a89b09b1c1b43d8ec0acd574c2459908cd971e83f265294b957d42de89c04e9281c24c5739ac56aa1d1724e51c63b04552690be542a840b8195887d91f9140030c87481a12f5b1ab5e1a342b7a8a3739702177d513c8762bfb9ce2284273dc15859d91d852a7e42f4297a157d7a0028fc1432fc25aa34728712cf6bdeec57343edec58762adca798a8094ab3a70275f32f074aa4c302cdb9a6adbfae322fbcb831806181df69c5137a9286028243fe3a1a9dcd86ec55a8d6eb18c5335d44d38cc95c3fdd12cfce01240dacd5fe68bc025263ff17791e3930f9e8c9b022ffd019bca5a3189102264aa16b57eefc99d020d5d77bc436e355aa634f55ef0806434cf3231efe36b3becc7762e9f1f042f7779c1ef5b9b319f62b9023e433e3b1f66aa31dce33e38113795cc9a8ffd771a3e256179aae169b825f0cb8f62f951980bcd2514199e5a96b1a0a58bd17761643cd969fef087871b716813f2dab86f21b11a234404728fbf45d1b2d9782532a14d7d6a1b784684b12aeb22799ab49544a495c7e622a18001b548b3e663bd91c6eb6107cf59f4fc762b3d4b779a38baa164d728fe0b13590ec1d55b83a39daa649e674b66aeac36c4383f07dbb00268af4d8e182dd959a0c4494ded58e366104978a5971c2e250ad34181e842c37447a85a530d054fa19b8d31135d3f5f9b13b3bd1007967bac1d51f481db33ae79b8179bbd35f1bcd19edbd6270fdf46b4a64bef75c0e244c2c86ddb44cc5aade8618b79728e2804fb09d134f198d05c0795ce648655a4b5f023f0149866fc2828dd8ef12cbef7a242b761fffbe1bd22b33bbfcd15a43488f70274e4a447adb528f2792b523ff39329adc3b0df020251eb927df705bb4c2eca6fd5ba4435b5b8e196a4fee9f5a94457f6767133d70cd765e63fe7b1aa663d00d8837fd3cd9dba3ad6d98b573fddc375b79e37b8ca5cfe96443afea6b7b7a3f76a709b2020777efa309bcdbecf29b828a8272be4fb09667bc4bee255b706871beeac4d0da24066e0e030386cb877270ac8e67283526ab6717a22222d3a525b69757afe17474e516d6e7085a5b7c0d6ebf0f403081a1c23292f31344b5d6e7a8995a4b1b6cbd3d9eb0e282b305f757b7e8a9bb4b7c5e4000000000000000000000000000000000000000009182e3c01fd210500bc6ffd9cbd22e1f600a83c29fd6060555abd4a6eef8d6d560dfefd8b7312394ea85ba42028ef418519f2873fc3d0931240cbe885c52ef861b4ac4620c51606748f0fb14800288d9d681e0dc97af66e3d3ef84c915d469a87a832724f6e4489cc2ad6baf50a6d4063cd4870e575ba16185e7b5cd340144f641cf774c9f26cab96dda41dcd4bce02468c294e94acb309fdf280e4aa7cf02252527ae74b067ee99aee235df8cdab5151e13b70d5bccc0beb302738b1eea5d7e0221def441f157c5a4c419340c53d3748d106f7bfe2dd5068d0d82911cf17fc1bb90819cc4a5fdfa77b985a6cec6e3a6030edc43df3dcf980c9f06aa2487ca0c90a05119756670908bd3f528ae1132c2c5baee27df09576cab283b827041aeca27010fd9a9aea02d68cda754332ad62214394f6bfc67365799d94684111f7184d70a4bc9542b80c0d22e5b5a9773a22ca80b3c83b47cc84638fa05fb6e7368d78363221413fcbd9cd8df8edb1d0a12eda6f958d0330c92cd283402c32e32608bce3679e8bee4b23219d98a97203df3ef070962b2949d58fcd9ed753b05cfa63de32037141dc23643fb7d812a2ced8ccdefdcf9c2bcf98133296ee7b7a28543a9e23509a48ed6c8b08a1cec0f31fae8b13e7ebab9c39a668574adb4b4e52abe476677e28c47a531d45fbb85a92376bb41ca41a8053189bbc230111de7f9c8b2bfc01a502f4b837e5868fadaad923f308124500088cbc26ed6d5629aa6d7dcdc85735eba394b3da44152dee3f8725844d4b29e31cf051018c8106540a861f4922a4eb748b6c8725fa44a81f6a74dec3c9c810cc42b9c07a6269c271ae8425f3b6667c5192df5cbcf6cb577d4e86d4bf16760adc249e1c704dbb4af3aee66ae3b30cb509c7a8833900a686b136415476727d42479657f32819aa8733afc051929f223cd08d2f49a5c587c698ad1440900baca522c2622a862c6862e3faccc1f0fadcbc6fb91681b72757677d8aa787cbaf609aeb307b0743af39f80606e42e6e337f42cecb689bee207b711445aa9d866a996548de5f2a1d04979780e511b843c8ab134c64cedef1af942ca4c0f928397c1f06f8cfb8686bc4ef9fdd36204f95eeb37f9c153f0ae2018357a6386809a7868f58955c533396f7463a6058b52d1de7f441cfdae3b9bac18ca83bb0d519bc7703e298830997bea60beb8510a09da9f27bacd7fc257704bd1316b961e4b2d0865a923d525658664e3c2b6181d66f2bcf2dc67b46f998705dc32b43eca6cbf7a3f971daf2b51768d800f661e23e238b2158137e1b6c60e98d7f011f7c0fc2b756d77a0f55cb0e434dfd34a00d8114296210ae47f47d35c2ae66669114397e9d3cbb08cb38bc392f52c32729935a70cab5e7b14a3a4e20f7e3f4b1903d9bda69dbd9c8c949f752ffce0fdedac3672de1fe1e1bc1c73dc124b7a1f51b757f2f31a1e7acde910296ba10dba8acd48c005ca9e20a7e7060e3c96f7d5deca1be9b57562eed21253c961057692b1fb5b8fa9021e92e91cb355bda718f6f7642cd2f43906e8c0cdc92ee5f3da456a7c32398506add9a6d34acae0a4049763ed1aed90aa945ea308e1a637994f44c0c67c1770585a5783d5b57c7bb2d31d1671756562c5750f2f98e13650239fbf4124bd0acd0b33f22b4da70fa103dbda1f70226fed094904836a500dc5fcc8042ba3b6d50bd8a3f2d4183ca6992fa17363f443328c96d380d54d26764e2be869397b2a4550c8f6820ee9cace029687dfc1d0cfa0e0bd28e1a77315d353bef3514da62396c022e778c708978e095ba2deb16400fbcc8b5d39d43013d060f8a57d693f11136a6a715cba4dfe0ff60674e6f000000",
  "txid": "40aab4f15baf5425126f7989599f9c0130a37b31dfb2d6fe20ecef2f488c5086",
  "hash": "1954f34eba33263bad104e9d134fb790a0eb6905e3ff708231089a496947c0f5",
  "size": 5085,
  "vsize": 2278,
  "version": 1,
  "locktime": 111,
  "vin": [
    {
      "txid": "6d43589acb3a7866f231dc282aa0d8413570ac1f83ecbfbfd6c8aa9ffe6c19e8",
      "vout": 0,
      "scriptSig": {
        "asm": "",
        "hex": ""
      },
      "txinwitness": [
        "c595c2a645ec0016d32c42a6d35a5d8264f3fa072e952e79b7fe5757e7c4da8c4edc629a6c958ad389d382c176fdec5b3a1edfa8587afd5c4281735b70e23a98d15263660ccb1bf0baa95d8227ebe270ac03dd6727d405f829a5281734fabb41a454b64a67eaf7aa3ce3dce207f37368b51ec9af290da6319d3f8e71d4994bf802c1b7384775ab50990ced30b325b96d7ba90dab7df02bb2e84529061dc46b003bb3b4582fa8e856440b5486c453b4c10a20be1555cd5f4f820edbfed4342bd43370e64dafe83789346dcee13854f2097fd4403793b1d9c0e8e4e77d56b6802d267a59e82390cf40b8ce147770158ab01d61e171e635f0c758645a481cf56cf91f568be3acfffc12f3cca03bb3891f98374bee8ce7715826bb6666a7b88e88cb61a16c7a3a3593661edc10ba28551ec3ac8a41f797db6e341587bb2c7468b946ed8891027deeddba8914ffcc7350a24b9a709b67471c069afd1ef69c216fa6d3aed1a3418b0408e509942f559933cfffd13cc17499308850ced5f744aab766fb98969923077bc6afaf0f1a2fc1376d938a5c00548fe871f4e0cd444436a45a5e9c263dd24e772b36bb79aa72fe30d6edb064d3f497c5175f8e8eb12bd62bd60d0779fcad036f895c91fd233c7730e6ebafe05628520e83a23593721e8f444ded609700003fd8f36e90216579cfa22c64b64d7f8513e2d65f60b1b432adab94baa1b2f51d8edcc767503dc5e2422c76af8a5da24d3cd09c00778b907f53220520b3af63fc01c8208cd459dcc4403005f71214a91482dd7f120395411afd04986a79754a1695e526ff1241e79006c1406fb3f674e8019bdb728a343031ddacfa923c138a35de704c511623c07148ba67d3a09fd5601d77925e9d1162c06472e44127b206ce8ad8a5a0abbb9423714bfad16e37fc7b1b77c68ca152ca17046dee6d137db297cdcafd799d362e4dbbcfb9feea6b9309f3b3f1b97880e66894be39a6f5242d6f1bd758ff5fb1e6b68075492055f73a67206257c206f264e2a8e54cff739c7d9cc2c41c7dee935ec154d02175f03206484a2aa999b3c57e2a24ffac83250e96ec50bc5cdb976b1a8cde125c1d2e86746b721d4a5954f7566174c6f94273dfe61500710560bbb3e62d15fa133631f6fb2dd8dcd2df4c3d75bef540f6df204525efd80e99fb4189852f92e4bd988dc20166eb8c7d3b41714fa96f323efa7842bccdb4a99349e671eff4ecf34e5731a4e17d349d2d8ea8ff7363867b5e3f7cc2a38c7ad06162016060b825a27daa4376a8a3cf04d2498d1a580691edaddaafc11791bd1d3ed4ed306c2a52a5c9a768a45b9e24d37ed5238a0e86d99d8a375b72d77feb49fe6afd0cfa793216f3fe2fdfa9fe30f261c4d423654142d6d111eeb92ea3f6e187a32b668a2db98a9d19e97b2734fe14de735b436f136c3e08362a0a6d2e881c15e14de241c0652228c38018c57b63d9d610fd9bb22dcc82f65e56dc547006901146f6b368ea886f36a78497e650a540bb442d87b1f407ea7345c07ff0c538731328ee9eb5ee4f406096d0022c235fe1fd07f47eaf4d27f4aa7f8733ac6de4d81309436a61a6e2d01700f48eb6e52e2fd2147a213fc4f8929f239015fed1e33acd6d082d2471b66bbf9635d47fc5892164f564db68d4889ae70835e14b75a0877f1bc25b7fb6f23daa57b1fd1e694bf2674004a122e60c29b98dea88ab236444879394ab769fee7034a277a7c53f283330fee513b9fd6bbf2b2200ed9f20513568d07d264f34c09b3c394e47bdb7d0ede9e6b4a527ee63cb65b6ea5c0cbba02ffd42bb3475a311af2173a2b1206bd323fc6e795711317df8d124b44f37707c050b560ff0f39e6de35b0445942569aab16a78e6267244ce4cd4e64b47fd6f481104238158e73a5847fec354d1f487d9182bab7229088f3c87ca54defae4f62b8adbf0daa7c0b40e8a6bd758de4e7a1661c99f75009ecc679ac785da0edb9c67619d3bf86572994f2d53ca54f3304d79491d975ae247b63e5e6bfb2f6246f2563168356a0a529d2252589f67330b2f7d855431028ac004706d89e23dd9db694f16c87ac86cc8aa10a8304aee06de89dedf312078d8c8fc0803b43afaff23a87b1a3b3b8c5141c89be5c17579e2af3b2f393b87fb731440d25bde75ef5f707d63e9a70f4488cf51ac276bfb906628e3a3cdafc704fb8995d5388081b90bd949e9835ed35e1a602d024466aab94a89b09b1c1b43d8ec0acd574c2459908cd971e83f265294b957d42de89c04e9281c24c5739ac56aa1d1724e51c63b04552690be542a840b8195887d91f9140030c87481a12f5b1ab5e1a342b7a8a3739702177d513c8762bfb9ce2284273dc15859d91d852a7e42f4297a157d7a0028fc1432fc25aa34728712cf6bdeec57343edec58762adca798a8094ab3a70275f32f074aa4c302cdb9a6adbfae322fbcb831806181df69c5137a9286028243fe3a1a9dcd86ec55a8d6eb18c5335d44d38cc95c3fdd12cfce01240dacd5fe68bc025263ff17791e3930f9e8c9b022ffd019bca5a3189102264aa16b57eefc99d020d5d77bc436e355aa634f55ef0806434cf3231efe36b3becc7762e9f1f042f7779c1ef5b9b319f62b9023e433e3b1f66aa31dce33e38113795cc9a8ffd771a3e256179aae169b825f0cb8f62f951980bcd2514199e5a96b1a0a58bd17761643cd969fef087871b716813f2dab86f21b11a234404728fbf45d1b2d9782532a14d7d6a1b784684b12aeb22799ab49544a495c7e622a18001b548b3e663bd91c6eb6107cf59f4fc762b3d4b779a38baa164d728fe0b13590ec1d55b83a39daa649e674b66aeac36c4383f07dbb00268af4d8e182dd959a0c4494ded58e366104978a5971c2e250ad34181e842c37447a85a530d054fa19b8d31135d3f5f9b13b3bd1007967bac1d51f481db33ae79b8179bbd35f1bcd19edbd6270fdf46b4a64bef75c0e244c2c86ddb44cc5aade8618b79728e2804fb09d134f198d05c0795ce648655a4b5f023f0149866fc2828dd8ef12cbef7a242b761fffbe1bd22b33bbfcd15a43488f70274e4a447adb528f2792b523ff39329adc3b0df020251eb927df705bb4c2eca6fd5ba4435b5b8e196a4fee9f5a94457f6767133d70cd765e63fe7b1aa663d00d8837fd3cd9dba3ad6d98b573fddc375b79e37b8ca5cfe96443afea6b7b7a3f76a709b2020777efa309bcdbecf29b828a8272be4fb09667bc4bee255b706871beeac4d0da24066e0e030386cb877270ac8e67283526ab6717a22222d3a525b69757afe17474e516d6e7085a5b7c0d6ebf0f403081a1c23292f31344b5d6e7a8995a4b1b6cbd3d9eb0e282b305f757b7e8a9bb4b7c5e4000000000000000000000000000000000000000009182e3c01",
        "00bc6ffd9cbd22e1f600a83c29fd6060555abd4a6eef8d6d560dfefd8b7312394ea85ba42028ef418519f2873fc3d0931240cbe885c52ef861b4ac4620c51606748f0fb14800288d9d681e0dc97af66e3d3ef84c915d469a87a832724f6e4489cc2ad6baf50a6d4063cd4870e575ba16185e7b5cd340144f641cf774c9f26cab96dda41dcd4bce02468c294e94acb309fdf280e4aa7cf02252527ae74b067ee99aee235df8cdab5151e13b70d5bccc0beb302738b1eea5d7e0221def441f157c5a4c419340c53d3748d106f7bfe2dd5068d0d82911cf17fc1bb90819cc4a5fdfa77b985a6cec6e3a6030edc43df3dcf980c9f06aa2487ca0c90a05119756670908bd3f528ae1132c2c5baee27df09576cab283b827041aeca27010fd9a9aea02d68cda754332ad62214394f6bfc67365799d94684111f7184d70a4bc9542b80c0d22e5b5a9773a22ca80b3c83b47cc84638fa05fb6e7368d78363221413fcbd9cd8df8edb1d0a12eda6f958d0330c92cd283402c32e32608bce3679e8bee4b23219d98a97203df3ef070962b2949d58fcd9ed753b05cfa63de32037141dc23643fb7d812a2ced8ccdefdcf9c2bcf98133296ee7b7a28543a9e23509a48ed6c8b08a1cec0f31fae8b13e7ebab9c39a668574adb4b4e52abe476677e28c47a531d45fbb85a92376bb41ca41a8053189bbc230111de7f9c8b2bfc01a502f4b837e5868fadaad923f308124500088cbc26ed6d5629aa6d7dcdc85735eba394b3da44152dee3f8725844d4b29e31cf051018c8106540a861f4922a4eb748b6c8725fa44a81f6a74dec3c9c810cc42b9c07a6269c271ae8425f3b6667c5192df5cbcf6cb577d4e86d4bf16760adc249e1c704dbb4af3aee66ae3b30cb509c7a8833900a686b136415476727d42479657f32819aa8733afc051929f223cd08d2f49a5c587c698ad1440900baca522c2622a862c6862e3faccc1f0fadcbc6fb91681b72757677d8aa787cbaf609aeb307b0743af39f80606e42e6e337f42cecb689bee207b711445aa9d866a996548de5f2a1d04979780e511b843c8ab134c64cedef1af942ca4c0f928397c1f06f8cfb8686bc4ef9fdd36204f95eeb37f9c153f0ae2018357a6386809a7868f58955c533396f7463a6058b52d1de7f441cfdae3b9bac18ca83bb0d519bc7703e298830997bea60beb8510a09da9f27bacd7fc257704bd1316b961e4b2d0865a923d525658664e3c2b6181d66f2bcf2dc67b46f998705dc32b43eca6cbf7a3f971daf2b51768d800f661e23e238b2158137e1b6c60e98d7f011f7c0fc2b756d77a0f55cb0e434dfd34a00d8114296210ae47f47d35c2ae66669114397e9d3cbb08cb38bc392f52c32729935a70cab5e7b14a3a4e20f7e3f4b1903d9bda69dbd9c8c949f752ffce0fdedac3672de1fe1e1bc1c73dc124b7a1f51b757f2f31a1e7acde910296ba10dba8acd48c005ca9e20a7e7060e3c96f7d5deca1be9b57562eed21253c961057692b1fb5b8fa9021e92e91cb355bda718f6f7642cd2f43906e8c0cdc92ee5f3da456a7c32398506add9a6d34acae0a4049763ed1aed90aa945ea308e1a637994f44c0c67c1770585a5783d5b57c7bb2d31d1671756562c5750f2f98e13650239fbf4124bd0acd0b33f22b4da70fa103dbda1f70226fed094904836a500dc5fcc8042ba3b6d50bd8a3f2d4183ca6992fa17363f443328c96d380d54d26764e2be869397b2a4550c8f6820ee9cace029687dfc1d0cfa0e0bd28e1a77315d353bef3514da62396c022e778c708978e095ba2deb16400fbcc8b5d39d43013d060f8a57d693f11136a6a715cba4dfe0ff60674e"
      ],
      "sequence": 4294967294
    }
  ],
  "vout": [
    {
      "value": 499986.7803,
      "n": 0,
      "scriptPubKey": {
        "asm": "1 6524913e22fa31fb18968cabcf0ed3e45b029ccb83b6407fae8a80a7441c36b0",
        "hex": "51206524913e22fa31fb18968cabcf0ed3e45b029ccb83b6407fae8a80a7441c36b0",
        "reqSigs": 1,
        "type": "witness_v1_scripthash",
        "addresses": [
          "3QJmnh"
        ]
      }
    },
    {
      "value": 1.0,
      "n": 1,
      "scriptPubKey": {
        "asm": "OP_RETURN 0540a4e663edc3737276a153c95c86f109ea3fa206b0c6ac832d9f1618602805 e7c110128cdb48d2a72c2d35752c8c41996ee7918de3d53da42beaadc7a6d8d1c7e13032acfb68f2870c0d15550cac61b94ec7b1adc3f51d840bca8de786f8f1a7815052cc9b0892e76c6d75356ccc01d92ea7d1cda3957de46baaed87e6989187a17072ecbb28b2c74c4d55154cec21f90e87f1ed83b55dc44b8acda7c6b8b1674190920c5bc85227acadb5f5ac0cc119ee67110d6355bd24ab6a2d472658514761b0b22c7be872078c8d95d58c2ce139ce47312d43759d048b4a0d670678712701d0d24c1b881267ecedf5b5ec4c8159ae27514d2315fd64eb2a6d076618110721f0f26c3ba83247cccdd595cc6ca1798e07716d0335dd44cb0a4d27463831e7c110128cdb48d2a72c2d35752c8c41996ee7918de3d53da42beaadc7a6d8d1c7e13032acfb68f2870c0d15550cac61b94ec7b1adc3f51d840bca8de786f8f1a7815052cc9b0892e76c6d75356ccc01d92ea7d1cda3957de46baaed87e6989187a17072ecbb28b2c74c4d55154cec21f90e87f1ed83b55dc44b8acda7c6b8b1674190920c5bc85227acadb5f5ac0cc119ee67110d6355bd24ab6a2d472658514761b0b22c7be872078c8d95d58c2ce139ce47312d43759d048b4a0d670678712701d0d24c1b881267ecedf5b5ec4c8159ae27514d2315fd64eb2a6d076618110721f0f26c3ba83247cccdd595cc6ca1798e07716d0335dd44cb0a4d27463831e7c110128cdb48d2a72c2d35752c8c41996ee7918de3d53da42beaadc7a6d8d1c7e13032acfb68f2870c0d15550cac61b94ec7b1adc3f51d840bca8de786f8f1a7815052cc9b0892e76c6d75356ccc01d92ea7d1cda3957de46baaed87e6989187a17072ecbb28b2c74c4d55154cec21f90e87f1ed83b55dc44b8acda7c6b8b1674190920c5bc85227acadb5f5ac0cc119ee67110d6355bd24ab6a2d472658514761b0b22c7be872078c8d95d58c2ce139ce47312d43759d048b4a0d670678712701d0d24c1b881267ecedf5b5ec4c8159ae27514d2315fd64eb2a6d076618110721f0f26c3ba83247cccdd595cc6ca1798e07716d0335dd44cb0a4d27463831e7c110128cdb48d2a72c2d35752c8c41996ee7918de3d53da42beaadc7a6d8d1c7e13032acfb68f2870c0d15550cac61b94ec7b1adc3f51d840bca8de786f8f1a7815052cc9b0892e76c6d75356ccc01d92ea7d1cda3957de46baaed87e6989187a17072ecbb28b2c74c4d55154cec21f90e87f1ed83b55dc44b8acda7c6b8b1674190920c5bc85227acadb5f5ac0cc119ee67110d6355bd24ab6a2d472658514761b0b22c7be872078c8d95d58c2ce139ce47312d43759d048b4a0d670678712701d0d24c1b881267ecedf5b5ec4c8159ae27514d2315fd64eb2a6d076618110721f0f26c3ba83247cccdd595cc6ca1798e07716d0335dd44cb0a4d27463831e7c110128cdb48d2a72c2d35752c8c41996ee7918de3d53da42beaadc7a6d8d1c7e13032acfb68f2870c0d15550cac61b94ec7b1adc3f51d840bca8de786f8f1a7815052cc9b0892e76c6d75356ccc01d92ea7d1cda3957de46baaed87e6989187a17072ecbb28b2c74c4d55154cec21f90e87f1ed83b55dc44b8acda7c6b8b1674190920c5bc85227acadb5f5ac0cc14edd8ee6d38ed7d006bc60e016b83933a57b9aedfaca2752d7fd1f57df154dc2",
        "hex": "6a200540a4e663edc3737276a153c95c86f109ea3fa206b0c6ac832d9f16186028054db004e7c110128cdb48d2a72c2d35752c8c41996ee7918de3d53da42beaadc7a6d8d1c7e13032acfb68f2870c0d15550cac61b94ec7b1adc3f51d840bca8de786f8f1a7815052cc9b0892e76c6d75356ccc01d92ea7d1cda3957de46baaed87e6989187a17072ecbb28b2c74c4d55154cec21f90e87f1ed83b55dc44b8acda7c6b8b1674190920c5bc85227acadb5f5ac0cc119ee67110d6355bd24ab6a2d472658514761b0b22c7be872078c8d95d58c2ce139ce47312d43759d048b4a0d670678712701d0d24c1b881267ecedf5b5ec4c8159ae27514d2315fd64eb2a6d076618110721f0f26c3ba83247cccdd595cc6ca1798e07716d0335dd44cb0a4d27463831e7c110128cdb48d2a72c2d35752c8c41996ee7918de3d53da42beaadc7a6d8d1c7e13032acfb68f2870c0d15550cac61b94ec7b1adc3f51d840bca8de786f8f1a7815052cc9b0892e76c6d75356ccc01d92ea7d1cda3957de46baaed87e6989187a17072ecbb28b2c74c4d55154cec21f90e87f1ed83b55dc44b8acda7c6b8b1674190920c5bc85227acadb5f5ac0cc119ee67110d6355bd24ab6a2d472658514761b0b22c7be872078c8d95d58c2ce139ce47312d43759d048b4a0d670678712701d0d24c1b881267ecedf5b5ec4c8159ae27514d2315fd64eb2a6d076618110721f0f26c3ba83247cccdd595cc6ca1798e07716d0335dd44cb0a4d27463831e7c110128cdb48d2a72c2d35752c8c41996ee7918de3d53da42beaadc7a6d8d1c7e13032acfb68f2870c0d15550cac61b94ec7b1adc3f51d840bca8de786f8f1a7815052cc9b0892e76c6d75356ccc01d92ea7d1cda3957de46baaed87e6989187a17072ecbb28b2c74c4d55154cec21f90e87f1ed83b55dc44b8acda7c6b8b1674190920c5bc85227acadb5f5ac0cc119ee67110d6355bd24ab6a2d472658514761b0b22c7be872078c8d95d58c2ce139ce47312d43759d048b4a0d670678712701d0d24c1b881267ecedf5b5ec4c8159ae27514d2315fd64eb2a6d076618110721f0f26c3ba83247cccdd595cc6ca1798e07716d0335dd44cb0a4d27463831e7c110128cdb48d2a72c2d35752c8c41996ee7918de3d53da42beaadc7a6d8d1c7e13032acfb68f2870c0d15550cac61b94ec7b1adc3f51d840bca8de786f8f1a7815052cc9b0892e76c6d75356ccc01d92ea7d1cda3957de46baaed87e6989187a17072ecbb28b2c74c4d55154cec21f90e87f1ed83b55dc44b8acda7c6b8b1674190920c5bc85227acadb5f5ac0cc119ee67110d6355bd24ab6a2d472658514761b0b22c7be872078c8d95d58c2ce139ce47312d43759d048b4a0d670678712701d0d24c1b881267ecedf5b5ec4c8159ae27514d2315fd64eb2a6d076618110721f0f26c3ba83247cccdd595cc6ca1798e07716d0335dd44cb0a4d27463831e7c110128cdb48d2a72c2d35752c8c41996ee7918de3d53da42beaadc7a6d8d1c7e13032acfb68f2870c0d15550cac61b94ec7b1adc3f51d840bca8de786f8f1a7815052cc9b0892e76c6d75356ccc01d92ea7d1cda3957de46baaed87e6989187a17072ecbb28b2c74c4d55154cec21f90e87f1ed83b55dc44b8acda7c6b8b1674190920c5bc85227acadb5f5ac0cc14edd8ee6d38ed7d006bc60e016b83933a57b9aedfaca2752d7fd1f57df154dc2",
        "type": "nulldata"
      }
    }
  ],
  "blockhash": "a1887b0a0b2991e806ccea2240d48d15dc99191e60c31f7623b06398d7a984df",
  "confirmations": 1,
  "time": 1764178092,
  "blocktime": 1764178092
}