{
  "hex": "0100000000010105b0a96c05e8775ee59d7254999ef567017b0f33c2d52aa0a9d539911543d29b0000000000feffffff0200e1f50500000000fdd5046a208843cf07fd809d3b324ce4e6be4e4f84e24eeacb9b8ed7c7b7104cac86417a384db0043419f8eec2f9c69cc3e3e57863fc94a4b1108c2302595cc1ce455ab4f54544ac1439d8cee2d9e6bce3c3c55843dcb4849130ac0322797ce1ee657a94d565648c7459b8ae82b986dc83a3a53823bcd4e4f150cc6342191c818e051af4b50504ec5479988ea299a6fca3838518039cf4c4d170ec4362393ca1ae253ad4952524ccb499786e4279461c436365f8e37c142431900ca382d9dc414ec5da3475c5c42c94b9584e6259663c634345d8c35c340411b02c83a2f9fc616ee5fa1455e5e40cf4d9382e0239065c032325b8a33c546471d04ce3c2999c010e859a743585846cd4f9180e2219267c23030598831c744451f06cc3e2b9bc212ea5ba5415a5a44c3419f8eec2f9c69cc3e3e57863fc94a4b1108c2302595cc1ce455ab4f54544ac1439d8cee2d9e6bce3c3c55843dcb4849130ac0322797ce1ee657a94d565648c7459b8ae82b986dc83a3a53823bcd4e4f150cc6342191c818e051af4b50504ec5479988ea299a6fca3838518039cf4c4d170ec4362393ca1ae253ad4952524ccb499786e4279461c436365f8e37c142431900ca382d9dc414ec5da3475c5c42c94b9584e6259663c634345d8c35c340411b02c83a2f9fc616ee5fa1455e5e40cf4d9382e0239065c032325b8a33c546471d04ce3c2999c010e859a743585846cd4f9180e2219267c23030598831c744451f06cc3e2b9bc212ea5ba5415a5a44c3419f8eec2f9c69cc3e3e57863fc94a4b1108c2302595cc1ce455ab4f54544ac1439d8cee2d9e6bce3c3c55843dcb4849130ac0322797ce1ee657a94d565648c7459b8ae82b986dc83a3a53823bcd4e4f150cc6342191c818e051af4b50504ec5479988ea299a6fca3838518039cf4c4d170ec4362393ca1ae253ad4952524ccb499786e4279461c436365f8e37c142431900ca382d9dc414ec5da3475c5c42c94b9584e6259663c634345d8c35c340411b02c83a2f9fc616ee5fa1455e5e40cf4d9382e0239065c032325b8a33c546471d04ce3c2999c010e859a743585846cd4f9180e2219267c23030598831c744451f06cc3e2b9bc212ea5ba5415a5a44c3419f8eec2f9c69cc3e3e57863fc94a4b1108c2302595cc1ce455ab4f54544ac1439d8cee2d9e6bce3c3c55843dcb4849130ac0322797ce1ee657a94d565648c7459b8ae82b986dc83a3a53823bcd4e4f150cc6342191c818e051af4b50504ec5479988ea299a6fca3838518039cf4c4d170ec4362393ca1ae253ad4952524ccb499786e4279461c436365f8e37c142431900ca382d9dc414ec5da3475c5c42c94b9584e6259663c634345d8c35c340411b02c83a2f9fc616ee5fa1455e5e40cf4d9382e0239065c032325b8a33c546471d04ce3c2999c010e859a743585846cd4f9180e2219267c23030598831c744451f06cc3e2b9bc212ea5ba5415a5a44c3419f8eec2f9c69cc3e3e57863fc94a4b1108c2302595cc1ce455ab4f54544ac1439d8cee2d9e6bce3c3c55843dcb4849130ac0322797ce1ee657a94d565648c7459b8ae82b986dc83a3a53823bcd4e4f150cc6342191c818e051af4b50504ec5479988ea299a6fca3838518039cf4c4d170ec4362393ca1ae253ad4952524ccb499786e4279461c436365f8e37c1424c886cdf987fe5eb46b77d1496388cdb8add027722e9c0e73300500bf84c15c1ac0cc030f792d00002251204b01697ea489b2172f9724d06616d166ce4f0e9bb0c79e7b6a88025ccad4405502fd750941979978e49df840912fc13376045cd83f1179927245b0d030fa8db1c499b84916573b85b6920faaf12dbbb88c6cacdb783ad6841c522f1dc1f425ec29666489e28782603a13949e90b786b5af960fac428bb5e0905690fbfb23df0438bf79bbf98b28f64e2681634a820b3d5eddef069c0515f63273ad1cf392ac54840708d2e6e98c2b494b4233a16bb37d2346d8a2981cd179020cd17bb9f2452864c207df039ccd28f87d68f0043d66e403912c5dd517662e6715530476c3c4dca86b4470ac6f087b46ca01819a1cc67a093d476388a3cced4c3de99f6e5c5c56cf1409753d995664b212c5394f3e1bb5f953b1f08513c8c850f6e1bc21d5b69c00801cb5084376a0b580c877be6aacea584ca182d4fe0028fca0246cddc08aa5375f4a1065aad47683973369d67a90d8fc89b0293f928f89304e09473547cc6fa29a41ad9f98c670d3f8f22559c0b71a2dd87fd97ca63411f814eb754d0f4b1b001a5449e0970324f44dd679f17f09d1eeedbde43085b5bb7c594c0ced5e8d9161eb15328675214e001ae9200ef165be1a62b03091fe9d6d8e1db2408cc10cc7d8f49ef0995a5be89c19a83e5062cdaf2d86891c32961e431ce62307e40790172a7483e6303c77a82832ee0f518e880b09a01e6d802cf5e2a69ad73a162f496c334c717970c9f01aba53c75dadf5bbd37a8740ebb83e679ad3ceb4284df24a46bfdca690c19cd46e54ff02c2dc2f0bf0632f784e2b1296b306717540c2c5401965ce3f5e1ff92837178af3565547dacf4eaaa8ed2943dfae5b0891f131904010db7345ac35b586bdf50a7c78b28c71014edef30b0229475253a5ab72c4a01d1c379cf1ca1f06086c80a73f899188c146abab1c19dc2143658707935afbc0f48a7a998eb9c64c47c00a9af1a97f43135f3d7b494312ace7bf98eedec88088e384c649e818bf4ffba1885f2668eb86d1a08a426606863c942b9ca7f36e6417f2db3173500817b505b8c664fe025ea7699bdd50a67694b6f43caaa6a322e0471f886fbc6ebf1b966594e2e1187423bd44071af36e3ec879f165e85483c36cbab980386e014fe3b3a3b76e03a0b5c0c51e14cd5d344fe25e9baec53e59a5edb51945ab3f81485bd4d63ee3b9b6986e4acc0a913e482a19896eea70dc07e9b988328861031d92c8517c9f9635f223974b36ce4407ad3cce386de6926df0df3cd2f1bacd33cf8e69f3c359314e886309d8e69955290fd5b323c5bdd8d8384053234b8700e669b65ed9d047fed50fc860ec74cec883603a5f9eec7f2320aa8a95a824645f952dca704261d53dd95c7388879cd1bc76ea656cd318272f1b0f4275a6e7cce6045bc764453171fe1b1576291fc992278acfb570400f56310533fe347f94ad2ccdeff63dc3611ab232e54ce413a8ae6367c65b0e1422653053fd44f5303d9657ce009e6c50d4db03a9712cd575657e30169a4f05ffa268b00741b47a41a3cc1b44d21fe2767b731e9427efb37c68cf3732d0378201c8eb6cbdfcb4c0c7fb6b050473215ce62bda018c9e4271df6cbd03871c447f41ff001700f1e553ab8cfe2d5be8e282939161e8dc1317413ea0cac174549245de0dc6ff62ebd37285084cb6a2acdd6e92db924f347e6d3ce47fcb56a0910ea8720357dc5339e8a7beffdc28b8b861414c60df56db1c87761aada126d93e091350d65760af9424e4434bf0cb1276cd0246f198e15e5bafec7ac261f861ef8ad25a20c05f8a38e5b2d6d24f28b2b0858d4fa7f0ce614762355721450bfcc693827b28290c7178c738b84ea802cc91b40ab6e10b38dae98adc733f069126710af19c33e5afa1642184b0d5f04e9adf08c85bfd973fd927db781d75be76e40feda93e5ba84f070e4d2c6f36ebfdcbc42147d11ebdf3f81ecd98eb8ca1bc70cf7f92f4090cd41ccfc90755b89a04db847c3cafa5f538bc5204632c532085c127fec6d27d7fcce20b5f7feca863e140f3c0c8a5eabfe9bf4d277048af090fac33fe2bd5ae69432b98d81d1484fdba1450b714cc06731fe03567d770b724c72d9f4ce27647ba80b30f3fe1b11bf16d356be6b6db0428581dcf362ced063c5d3015535877228a2cd9e2cf0a608587724a201df62aad78f7213dd8e913058e5912cf1c6e6830eb67f088bb4ac220ecd8ba60262e475b46611411ba2b5851d68df7286abdd8e0e815e342dbfda3cb024359826c5a270a008825c88a91b0d2659cd062af155c2a492b32c78b7d50d5803f120e8af80debe3a28894245a976497a604ff92056f8a868fd00405b4b7e176f82336010a9cdd07262d23008e866bafdff71bc2fdf2ebc76faf0503041a26fb916c51fc22816b1744b88dae1484e55de72d901dcadde7e9eb9d075db980554bdc3245aab1b45d9f7c171bc3a3f156aafc6e73598a378915dde3d5a775dce187de7caeac4a2c6b0781fa83eb0f22c6ad3a5e4a1326e7a585e8fd8a2112d1592d0bee581395ba99c61927338c6bf3eaf6407a0ffac16c6f3d786605df440856c5a48931a2c009ba596ccfc9afe89f1067b535317376df00cae2e70cf9fe6085d02b00e21ee63ac62ecd822d190a33e5d70ac2bce42eb91ac5ce5b6b21e67deae414a02883ce393dc2f6d8d9fe5768b339d58b2a9f7530faa23622362b93b5508888e8a7e2b1262a5966a342aa85c570af8bdb69be9d0c7093980919a157cf7f923bf524315c22c0d56c23202a04969b0f10c75d9bd93beb95c3c59f21208c6f5552a0f860339b0e864a67f0edbfa2446e7ae9ff8b33155c3167fd973bf33a5cca33be5b7da35085776be36812601078b051f47ed9e1fc4e489d46220a6c65fd424a384853476c57adc283240d2e83ace3e9a2b5c7aa46f9b7092bdd75f524663d089e78acce0a527872be872126fe61f3aaa44aad576ff1dccb15e11d7a6f90c6243fb7f847e133ca1a9e1dfb7f6a593f1bb06e90dd095cba76ee6a9862bd4bf8f9dcc12f9350c95c964ca6586786c47aaed363e769b8d6bd295dad57489e84e9a7483ad9e8171c948293322a5839d9e9cb82f693755daca38238bce2df410918b7395d0482904f51f4be249b4da25e9631eb9e305f6066797e22cc4662072880969309d95d9053392cee9714a7f71f4eb183f1eaba7c34a5e8d0dbe0d542131312ecc33e14d63536ab805829a3872e77b45adfcb962b564d5310bfbef50c8fc6dce5ec8d57f86ced778e9cbcf03944f037b3eb170acefd3984fa89b09d30f6adbfc744def338a2801e5cfae4109f7c87091539ae742d54d3689d5bf58f3ad90da58772a301080910313637516b767a7ca0a2a8aaacaeb7cbd0e9f62c32333f40525a5b60637b9da4b6e7fb061d2a3a607394989bb4b5d8ebec05163849577378aeb7c4c5d6dff5000000000000000000000000001727354301fd21050004dd1731a98b11ac0d8fa99e8ca788f685faa88152cbae09821288aa50f5f354581fccf9c02f49a5819b37f259e88addb9c76319e06729095f39120b3d69386941f95ce1d99e6eb90a07d716cb307d833d2c228f2657905e291788bd08e2a22877fe91f38d96c6d88339bbfe7ea6354763cf7448daf1592483807603642d59148ebfbabfbebe18a280cc36b0a104c58f84a2257f710a1a061dadf2bbce66769f8ae371623443ae3c979dd6424206e38446a6284ee7e1ad9da99f9fbb91883782dba09821a9ededc0859a839581962cef3a9da5e5eae7a9195279c0965ffe8154899258d44048343048a2205e2b38418e54e88e40bf2581392806f9ba3c96609c3e4e7c36ff1c0d01d275e541a30d18e39276be1b7e6df3a048cf6553105b11a0a56e5bacf381d3d27781452d04257026574d2a5321562e47c5af91bc75c96f9d2b7b289c1312ec4327e5c82974e44a8a84872d47393b51cc2ce80130fc080e65d78c4e619c9f86a92ad7db7045b40b98227e21102bf8159d4478b53bda36053f09df79320ee7a689efcbf47c74c99a9397377010bd4f7aff240ed2481a27219c7fe8bdbc8a44cb83c4d8a57d82d12f3453d041754aeed4a3e2e95b7fbf24049ed59e51c79d09db92fff828ace50ca2207387442bf48558762f3c087c8597c9e1c318d6f847db16dc5fa685010a2f83d390717997bd3e26c634c4a73615b877d84e43725391958301db9021053cbe5f69864ea82f64eb8c6713d023b20becf09fb3af07e4d07baba8425cbddf973464cdd37a7030de6af0ecad06ba6b4a411c63350c6aae2851b25eb49c4789035fd5cb513aae2804cd6856258e404f119cf571aac6b9e719e3f6c4c2e8f20888be2005e15ff8c3ae6d2cc5991283c7c103912d67ce204b799d41d55a714989184f85131651d83d19f53b1a1a7bbbc659113e64f0ce818059c98b9773fc57ca44e8cdf368fe922eddfb7764f8c35984da578f57ace1b45f7e7c651585cce9dfe33958755e243dc50acab73556830babe1e2b1fd8d962cf5261910ffc13d5d6f3bcfb6fe724e755ca4407000811cef11bead669816f07fbee041f8afa57525ca44e68329e745a4739d9cb803812d39d7a0201b1d305ccdee5711f9f380dd0969f514066cd4de2827e9ea8ba8523ab075f389e4facfb378eb55c84ee526d7a88cfb2323bd0b6d7c40bc9f36a469bc653e690da7fada4c0071e9024615a3e51f0a5fd86b790170c72fb955426ecbb070d7f30af1a902e4fa1f212183fb8c3e25c4cd25acdc1aacba9cb397f92b8fde8b6b7b6b91cb0c42ce18e1c4c11196c590430e1587f55380432edd5b16a543e7b378a62922cd9e23376dc3568bef9698ea45a88023bd451f2ff99c40cfdf48bd862575fd0507ed8027b67b5ad1b7575baaf3fbe422f493bc5fc706b1331415848a3137afd8fa87736c99fc793cd689bd46a4aae0e28c0bb7585d4aac39a104e5088c59b57c2f8780a7e611f2e8036e485b4309ebd9fbedf198b9b2fcf93f5eaa54f9cc8036077f2555eb5a01ef9c161406d8799800bf2b8536b7ebd9b24d2c8ac0dbac9efe87fb17898707c7de049da2859f513d56b0dbe25646a1a761c76aa7541bf4b58a722c2917c7c5387461b176896f9526475d6f04c770c307edb03accc6419cdc3b49ff9f6c7e43ec3d4a4665cd6c10f16907c104f6007612aebff55fe0752edc6c2134e670d31ba2aa6c6a8d7194cf654ecd071e5280d296a5d6ee7544371df4a59719a96aa137edefcfc0b8d8ad1c5f97f5d3c06b6b5607eae332d2dd965b8e13842f638c51ca3a5e15301b57418ddca97aa81a33495c104a016d4174a6a5fff1e733000000",
  "txid": "417e1565d28fa4820e6ffca1df15a2d2765771098634901d8b6562536c02196a",
  "hash": "ee8583e7781b49ab65a23744ed9c42f6ea9560c5f4b8e5b28cb8be630bbfaf43",
  "size": 5085,
  "vsize": 2278,
  "version": 1,
  "locktime": 51,
  "vin": [
    {
      "txid": "9bd243159139d5a9a02ad5c2330f7b0167f59e9954729de55e77e8056ca9b005",
      "vout": 0,
      "scriptSig": {
        "asm": "",
        "hex": ""
      },
      "txinwitness": [
        "41979978e49df840912fc13376045cd83f1179927245b0d030fa8db1c499b84916573b85b6920faaf12dbbb88c6cacdb783ad6841c522f1dc1f425ec29666489e28782603a13949e90b786b5af960fac428bb5e0905690fbfb23df0438bf79bbf98b28f64e2681634a820b3d5eddef069c0515f63273ad1cf392ac54840708d2e6e98c2b494b4233a16bb37d2346d8a2981cd179020cd17bb9f2452864c207df039ccd28f87d68f0043d66e403912c5dd517662e6715530476c3c4dca86b4470ac6f087b46ca01819a1cc67a093d476388a3cced4c3de99f6e5c5c56cf1409753d995664b212c5394f3e1bb5f953b1f08513c8c850f6e1bc21d5b69c00801cb5084376a0b580c877be6aacea584ca182d4fe0028fca0246cddc08aa5375f4a1065aad47683973369d67a90d8fc89b0293f928f89304e09473547cc6fa29a41ad9f98c670d3f8f22559c0b71a2dd87fd97ca63411f814eb754d0f4b1b001a5449e0970324f44dd679f17f09d1eeedbde43085b5bb7c594c0ced5e8d9161eb15328675214e001ae9200ef165be1a62b03091fe9d6d8e1db2408cc10cc7d8f49ef0995a5be89c19a83e5062cdaf2d86891c32961e431ce62307e40790172a7483e6303c77a82832ee0f518e880b09a01e6d802cf5e2a69ad73a162f496c334c717970c9f01aba53c75dadf5bbd37a8740ebb83e679ad3ceb4284df24a46bfdca690c19cd46e54ff02c2dc2f0bf0632f784e2b1296b306717540c2c5401965ce3f5e1ff92837178af3565547dacf4eaaa8ed2943dfae5b0891f131904010db7345ac35b586bdf50a7c78b28c71014edef30b0229475253a5ab72c4a01d1c379cf1ca1f06086c80a73f899188c146abab1c19dc2143658707935afbc0f48a7a998eb9c64c47c00a9af1a97f43135f3d7b494312ace7bf98eedec88088e384c649e818bf4ffba1885f2668eb86d1a08a426606863c942b9ca7f36e6417f2db3173500817b505b8c664fe025ea7699bdd50a67694b6f43caaa6a322e0471f886fbc6ebf1b966594e2e1187423bd44071af36e3ec879f165e85483c36cbab980386e014fe3b3a3b76e03a0b5c0c51e14cd5d344fe25e9baec53e59a5edb51945ab3f81485bd4d63ee3b9b6986e4acc0a913e482a19896eea70dc07e9b988328861031d92c8517c9f9635f223974b36ce4407ad3cce386de6926df0df3cd2f1bacd33cf8e69f3c359314e886309d8e69955290fd5b323c5bdd8d8384053234b8700e669b65ed9d047fed50fc860ec74cec883603a5f9eec7f2320aa8a95a824645f952dca704261d53dd95c7388879cd1bc76ea656cd318272f1b0f4275a6e7cce6045bc764453171fe1b1576291fc992278acfb570400f56310533fe347f94ad2ccdeff63dc3611ab232e54ce413a8ae6367c65b0e1422653053fd44f5303d9657ce009e6c50d4db03a9712cd575657e30169a4f05ffa268b00741b47a41a3cc1b44d21fe2767b731e9427efb37c68cf3732d0378201c8eb6cbdfcb4c0c7fb6b050473215ce62bda018c9e4271df6cbd03871c447f41ff001700f1e553ab8cfe2d5be8e282939161e8dc1317413ea0cac174549245de0dc6ff62ebd37285084cb6a2acdd6e92db924f347e6d3ce47fcb56a0910ea8720357dc5339e8a7beffdc28b8b861414c60df56db1c87761aada126d93e091350d65760af9424e4434bf0cb1276cd0246f198e15e5bafec7ac261f861ef8ad25a20c05f8a38e5b2d6d24f28b2b0858d4fa7f0ce614762355721450bfcc693827b28290c7178c738b84ea802cc91b40ab6e10b38dae98adc733f069126710af19c33e5afa1642184b0d5f04e9adf08c85bfd973fd927db781d75be76e40feda93e5ba84f070e4d2c6f36ebfdcbc42147d11ebdf3f81ecd98eb8ca1bc70cf7f92f4090cd41ccfc90755b89a04db847c3cafa5f538bc5204632c532085c127fec6d27d7fcce20b5f7feca863e140f3c0c8a5eabfe9bf4d277048af090fac33fe2bd5ae69432b98d81d1484fdba1450b714cc06731fe03567d770b724c72d9f4ce27647ba80b30f3fe1b11bf16d356be6b6db0428581dcf362ced063c5d3015535877228a2cd9e2cf0a608587724a201df62aad78f7213dd8e913058e5912cf1c6e6830eb67f088bb4ac220ecd8ba60262e475b46611411ba2b5851d68df7286abdd8e0e815e342dbfda3cb024359826c5a270a008825c88a91b0d2659cd062af155c2a492b32c78b7d50d5803f120e8af80debe3a28894245a976497a604ff92056f8a868fd00405b4b7e176f82336010a9cdd07262d23008e866bafdff71bc2fdf2ebc76faf0503041a26fb916c51fc22816b1744b88dae1484e55de72d901dcadde7e9eb9d075db980554bdc3245aab1b45d9f7c171bc3a3f156aafc6e73598a378915dde3d5a775dce187de7caeac4a2c6b0781fa83eb0f22c6ad3a5e4a1326e7a585e8fd8a2112d1592d0bee581395ba99c61927338c6bf3eaf6407a0ffac16c6f3d786605df440856c5a48931a2c009ba596ccfc9afe89f1067b535317376df00cae2e70cf9fe6085d02b00e21ee63ac62ecd822d190a33e5d70ac2bce42eb91ac5ce5b6b21e67deae414a02883ce393dc2f6d8d9fe5768b339d58b2a9f7530faa23622362b93b5508888e8a7e2b1262a5966a342aa85c570af8bdb69be9d0c7093980919a157cf7f923bf524315c22c0d56c23202a04969b0f10c75d9bd93beb95c3c59f21208c6f5552a0f860339b0e864a67f0edbfa2446e7ae9ff8b33155c3167fd973bf33a5cca33be5b7da35085776be36812601078b051f47ed9e1fc4e489d46220a6c65fd424a384853476c57adc283240d2e83ace3e9a2b5c7aa46f9b7092bdd75f524663d089e78acce0a527872be872126fe61f3aaa44aad576ff1dccb15e11d7a6f90c6243fb7f847e133ca1a9e1dfb7f6a593f1bb06e90dd095cba76ee6a9862bd4bf8f9dcc12f9350c95c964ca6586786c47aaed363e769b8d6bd295dad57489e84e9a7483ad9e8171c948293322a5839d9e9cb82f693755daca38238bce2df410918b7395d0482904f51f4be249b4da25e9631eb9e305f6066797e22cc4662072880969309d95d9053392cee9714a7f71f4eb183f1eaba7c34a5e8d0dbe0d542131312ecc33e14d63536ab805829a3872e77b45adfcb962b564d5310bfbef50c8fc6dce5ec8d57f86ced778e9cbcf03944f037b3eb170acefd3984fa89b09d30f6adbfc744def338a2801e5cfae4109f7c87091539ae742d54d3689d5bf58f3ad90da58772a301080910313637516b767a7ca0a2a8aaacaeb7cbd0e9f62c32333f40525a5b60637b9da4b6e7fb061d2a3a607394989bb4b5d8ebec05163849577378aeb7c4c5d6dff5000000000000000000000000001727354301",
        "0004dd1731a98b11ac0d8fa99e8ca788f685faa88152cbae09821288aa50f5f354581fccf9c02f49a5819b37f259e88addb9c76319e06729095f39120b3d69386941f95ce1d99e6eb90a07d716cb307d833d2c228f2657905e291788bd08e2a22877fe91f38d96c6d88339bbfe7ea6354763cf7448daf1592483807603642d59148ebfbabfbebe18a280cc36b0a104c58f84a2257f710a1a061dadf2bbce66769f8ae371623443ae3c979dd6424206e38446a6284ee7e1ad9da99f9fbb91883782dba09821a9ededc0859a839581962cef3a9da5e5eae7a9195279c0965ffe8154899258d44048343048a2205e2b38418e54e88e40bf2581392806f9ba3c96609c3e4e7c36ff1c0d01d275e541a30d18e39276be1b7e6df3a048cf6553105b11a0a56e5bacf381d3d27781452d04257026574d2a5321562e47c5af91bc75c96f9d2b7b289c1312ec4327e5c82974e44a8a84872d47393b51cc2ce80130fc080e65d78c4e619c9f86a92ad7db7045b40b98227e21102bf8159d4478b53bda36053f09df79320ee7a689efcbf47c74c99a9397377010bd4f7aff240ed2481a27219c7fe8bdbc8a44cb83c4d8a57d82d12f3453d041754aeed4a3e2e95b7fbf24049ed59e51c79d09db92fff828ace50ca2207387442bf48558762f3c087c8597c9e1c318d6f847db16dc5fa685010a2f83d390717997bd3e26c634c4a73615b877d84e43725391958301db9021053cbe5f69864ea82f64eb8c6713d023b20becf09fb3af07e4d07baba8425cbddf973464cdd37a7030de6af0ecad06ba6b4a411c63350c6aae2851b25eb49c4789035fd5cb513aae2804cd6856258e404f119cf571aac6b9e719e3f6c4c2e8f20888be2005e15ff8c3ae6d2cc5991283c7c103912d67ce204b799d41d55a714989184f85131651d83d19f53b1a1a7bbbc659113e64f0ce818059c98b9773fc57ca44e8cdf368fe922eddfb7764f8c35984da578f57ace1b45f7e7c651585cce9dfe33958755e243dc50acab73556830babe1e2b1fd8d962cf5261910ffc13d5d6f3bcfb6fe724e755ca4407000811cef11bead669816f07fbee041f8afa57525ca44e68329e745a4739d9cb803812d39d7a0201b1d305ccdee5711f9f380dd0969f514066cd4de2827e9ea8ba8523ab075f389e4facfb378eb55c84ee526d7a88cfb2323bd0b6d7c40bc9f36a469bc653e690da7fada4c0071e9024615a3e51f0a5fd86b790170c72fb955426ecbb070d7f30af1a902e4fa1f212183fb8c3e25c4cd25acdc1aacba9cb397f92b8fde8b6b7b6b91cb0c42ce18e1c4c11196c590430e1587f55380432edd5b16a543e7b378a62922cd9e23376dc3568bef9698ea45a88023bd451f2ff99c40cfdf48bd862575fd0507ed8027b67b5ad1b7575baaf3fbe422f493bc5fc706b1331415848a3137afd8fa87736c99fc793cd689bd46a4aae0e28c0bb7585d4aac39a104e5088c59b57c2f8780a7e611f2e8036e485b4309ebd9fbedf198b9b2fcf93f5eaa54f9cc8036077f2555eb5a01ef9c161406d8799800bf2b8536b7ebd9b24d2c8ac0dbac9efe87fb17898707c7de049da2859f513d56b0dbe25646a1a761c76aa7541bf4b58a722c2917c7c5387461b176896f9526475d6f04c770c307edb03accc6419cdc3b49ff9f6c7e43ec3d4a4665cd6c10f16907c104f6007612aebff55fe0752edc6c2134e670d31ba2aa6c6a8d7194cf654ecd071e5280d296a5d6ee7544371df4a59719a96aa137edefcfc0b8d8ad1c5f97f5d3c06b6b5607eae332d2dd965b8e13842f638c51ca3a5e15301b57418ddca97aa81a33495c104a016d4174a6a5fff1e7"
      ],
      "sequence": 4294967294
    }
  ],
  "vout": [
    {
      "value": 1.0,
      "n": 0,
      "scriptPubKey": {
        "asm": "OP_RETURN 8843cf07fd809d3b324ce4e6be4e4f84e24eeacb9b8ed7c7b7104cac86417a38 3419f8eec2f9c69cc3e3e57863fc94a4b1108c2302595cc1ce455ab4f54544ac1439d8cee2d9e6bce3c3c55843dcb4849130ac0322797ce1ee657a94d565648c7459b8ae82b986dc83a3a53823bcd4e4f150cc6342191c818e051af4b50504ec5479988ea299a6fca3838518039cf4c4d170ec4362393ca1ae253ad4952524ccb499786e4279461c436365f8e37c142431900ca382d9dc414ec5da3475c5c42c94b9584e6259663c634345d8c35c340411b02c83a2f9fc616ee5fa1455e5e40cf4d9382e0239065c032325b8a33c546471d04ce3c2999c010e859a743585846cd4f9180e2219267c23030598831c744451f06cc3e2b9bc212ea5ba5415a5a44c3419f8eec2f9c69cc3e3e57863fc94a4b1108c2302595cc1ce455ab4f54544ac1439d8cee2d9e6bce3c3c55843dcb4849130ac0322797ce1ee657a94d565648c7459b8ae82b986dc83a3a53823bcd4e4f150cc6342191c818e051af4b50504ec5479988ea299a6fca3838518039cf4c4d170ec4362393ca1ae253ad4952524ccb499786e4279461c436365f8e37c142431900ca382d9dc414ec5da3475c5c42c94b9584e6259663c634345d8c35c340411b02c83a2f9fc616ee5fa1455e5e40cf4d9382e0239065c032325b8a33c546471d04ce3c2999c010e859a743585846cd4f9180e2219267c23030598831c744451f06cc3e2b9bc212ea5ba5415a5a44c3419f8eec2f9c69cc3e3e57863fc94a4b1108c2302595cc1ce455ab4f54544ac1439d8cee2d9e6bce3c3c55843dcb4849130ac0322797ce1ee657a94d565648c7459b8ae82b986dc83a3a53823bcd4e4f150cc6342191c818e051af4b50504ec5479988ea299a6fca3838518039cf4c4d170ec4362393ca1ae253ad4952524ccb499786e4279461c436365f8e37c142431900ca382d9dc414ec5da3475c5c42c94b9584e6259663c634345d8c35c340411b02c83a2f9fc616ee5fa1455e5e40cf4d9382e0239065c032325b8a33c546471d04ce3c2999c010e859a743585846cd4f9180e2219267c23030598831c744451f06cc3e2b9bc212ea5ba5415a5a44c3419f8eec2f9c69cc3e3e57863fc94a4b1108c2302595cc1ce455ab4f54544ac1439d8cee2d9e6bce3c3c55843dcb4849130ac0322797ce1ee657a94d565648c7459b8ae82b986dc83a3a53823bcd4e4f150cc6342191c818e051af4b50504ec5479988ea299a6fca3838518039cf4c4d170ec4362393ca1ae253ad4952524ccb499786e4279461c436365f8e37c142431900ca382d9dc414ec5da3475c5c42c94b9584e6259663c634345d8c35c340411b02c83a2f9fc616ee5fa1455e5e40cf4d9382e0239065c032325b8a33c546471d04ce3c2999c010e859a743585846cd4f9180e2219267c23030598831c744451f06cc3e2b9bc212ea5ba5415a5a44c3419f8eec2f9c69cc3e3e57863fc94a4b1108c2302595cc1ce455ab4f54544ac1439d8cee2d9e6bce3c3c55843dcb4849130ac0322797ce1ee657a94d565648c7459b8ae82b986dc83a3a53823bcd4e4f150cc6342191c818e051af4b50504ec5479988ea299a6fca3838518039cf4c4d170ec4362393ca1ae253ad4952524ccb499786e4279461c436365f8e37c1424c886cdf987fe5eb46b77d1496388cdb8add027722e9c0e73300500bf84c15c1a",
        "hex": "6a208843cf07fd809d3b324ce4e6be4e4f84e24eeacb9b8ed7c7b7104cac86417a384db0043419f8eec2f9c69cc3e3e57863fc94a4b1108c2302595cc1ce455ab4f54544ac1439d8cee2d9e6bce3c3c55843dcb4849130ac0322797ce1ee657a94d565648c7459b8ae82b986dc83a3a53823bcd4e4f150cc6342191c818e051af4b50504ec5479988ea299a6fca3838518039cf4c4d170ec4362393ca1ae253ad4952524ccb499786e4279461c436365f8e37c142431900ca382d9dc414ec5da3475c5c42c94b9584e6259663c634345d8c35c340411b02c83a2f9fc616ee5fa1455e5e40cf4d9382e0239065c032325b8a33c546471d04ce3c2999c010e859a743585846cd4f9180e2219267c23030598831c744451f06cc3e2b9bc212ea5ba5415a5a44c3419f8eec2f9c69cc3e3e57863fc94a4b1108c2302595cc1ce455ab4f54544ac1439d8cee2d9e6bce3c3c55843dcb4849130ac0322797ce1ee657a94d565648c7459b8ae82b986dc83a3a53823bcd4e4f150cc6342191c818e051af4b50504ec5479988ea299a6fca3838518039cf4c4d170ec4362393ca1ae253ad4952524ccb499786e4279461c436365f8e37c142431900ca382d9dc414ec5da3475c5c42c94b9584e6259663c634345d8c35c340411b02c83a2f9fc616ee5fa1455e5e40cf4d9382e0239065c032325b8a33c546471d04ce3c2999c010e859a743585846cd4f9180e2219267c23030598831c744451f06cc3e2b9bc212ea5ba5415a5a44c3419f8eec2f9c69cc3e3e57863fc94a4b1108c2302595cc1ce455ab4f54544ac1439d8cee2d9e6bce3c3c55843dcb4849130ac0322797ce1ee657a94d565648c7459b8ae82b986dc83a3a53823bcd4e4f150cc6342191c818e051af4b50504ec5479988ea299a6fca3838518039cf4c4d170ec4362393ca1ae253ad4952524ccb499786e4279461c436365f8e37c142431900ca382d9dc414ec5da3475c5c42c94b9584e6259663c634345d8c35c340411b02c83a2f9fc616ee5fa1455e5e40cf4d9382e0239065c032325b8a33c546471d04ce3c2999c010e859a743585846cd4f9180e2219267c23030598831c744451f06cc3e2b9bc212ea5ba5415a5a44c3419f8eec2f9c69cc3e3e57863fc94a4b1108c2302595cc1ce455ab4f54544ac1439d8cee2d9e6bce3c3c55843dcb4849130ac0322797ce1ee657a94d565648c7459b8ae82b986dc83a3a53823bcd4e4f150cc6342191c818e051af4b50504ec5479988ea299a6fca3838518039cf4c4d170ec4362393ca1ae253ad4952524ccb499786e4279461c436365f8e37c142431900ca382d9dc414ec5da3475c5c42c94b9584e6259663c634345d8c35c340411b02c83a2f9fc616ee5fa1455e5e40cf4d9382e0239065c032325b8a33c546471d04ce3c2999c010e859a743585846cd4f9180e2219267c23030598831c744451f06cc3e2b9bc212ea5ba5415a5a44c3419f8eec2f9c69cc3e3e57863fc94a4b1108c2302595cc1ce455ab4f54544ac1439d8cee2d9e6bce3c3c55843dcb4849130ac0322797ce1ee657a94d565648c7459b8ae82b986dc83a3a53823bcd4e4f150cc6342191c818e051af4b50504ec5479988ea299a6fca3838518039cf4c4d170ec4362393ca1ae253ad4952524ccb499786e4279461c436365f8e37c1424c886cdf987fe5eb46b77d1496388cdb8add027722e9c0e73300500bf84c15c1a",
        "type": "nulldata"
      }
    },
    {
      "value": 499979.662,
      "n": 1,
      "scriptPubKey": {
        "asm": "1 4b01697ea489b2172f9724d06616d166ce4f0e9bb0c79e7b6a88025ccad44055",
        "hex": "51204b01697ea489b2172f9724d06616d166ce4f0e9bb0c79e7b6a88025ccad44055",
        "reqSigs": 1,
        "type": "witness_v1_scripthash",
        "addresses": [
          "3QJmnh"
        ]
      }
    }
  ],
  "blockhash": "c592ff09702ccc153ea7e0356b0e5a10b37ebf9436b5bd4870b29e5d1c636d36",
  "confirmations": 1,
  "time": 1764179615,
  "blocktime": 1764179615
}