{
  "hex": "0100000000010116e363e5cbe5fb3a08f80a19492834a21f8a5c1065966f5c417dd620967151f40100000000feffffff02a0cee9a1782d000022512021f0fb259e5a07d3f6f5e31d14a86637b90b95fbf47abeecd1a74fb75b64ed5500e1f50500000000fdd5046a20dff4d2c8cf21fb9619157076bfa050e63c951c62f9a12cffe31d70e9b64c39734db00465e081428324952dea288e36f80a0efba6712c0574b905f5783d6219a6fe066645c0a162a304b50dca08ae16d82a2edb86510c25549925d5581d423986de264625a0c102c364d56daa68ce76b84a4ebbe6316c4534f945b5387d2259e6be46260580e122e344f54d8a48ee56986a6e9bc6114c6514d96595185d0279c69e6606e56001c203a415ad6aa80eb6788a8e7b26f1ac85f4398575f8bde299267e86e6c54021e22384358d4a882e9658aaae5b06d18ca5d419a555d89dc2b9065ea6c6a520418243e455ed2ae84ef638cace3b66b1ecc5b479c535b8fda2d9663ec6a6850061a263c475cd0ac86ed618eaee1b4691cce59459e51598dd82f9461ee68665e081428324952dea288e36f80a0efba6712c0574b905f5783d6219a6fe066645c0a162a304b50dca08ae16d82a2edb86510c25549925d5581d423986de264625a0c102c364d56daa68ce76b84a4ebbe6316c4534f945b5387d2259e6be46260580e122e344f54d8a48ee56986a6e9bc6114c6514d96595185d0279c69e6606e56001c203a415ad6aa80eb6788a8e7b26f1ac85f4398575f8bde299267e86e6c54021e22384358d4a882e9658aaae5b06d18ca5d419a555d89dc2b9065ea6c6a520418243e455ed2ae84ef638cace3b66b1ecc5b479c535b8fda2d9663ec6a6850061a263c475cd0ac86ed618eaee1b4691cce59459e51598dd82f9461ee68665e081428324952dea288e36f80a0efba6712c0574b905f5783d6219a6fe066645c0a162a304b50dca08ae16d82a2edb86510c25549925d5581d423986de264625a0c102c364d56daa68ce76b84a4ebbe6316c4534f945b5387d2259e6be46260580e122e344f54d8a48ee56986a6e9bc6114c6514d96595185d0279c69e6606e56001c203a415ad6aa80eb6788a8e7b26f1ac85f4398575f8bde299267e86e6c54021e22384358d4a882e9658aaae5b06d18ca5d419a555d89dc2b9065ea6c6a520418243e455ed2ae84ef638cace3b66b1ecc5b479c535b8fda2d9663ec6a6850061a263c475cd0ac86ed618eaee1b4691cce59459e51598dd82f9461ee68665e081428324952dea288e36f80a0efba6712c0574b905f5783d6219a6fe066645c0a162a304b50dca08ae16d82a2edb86510c25549925d5581d423986de264625a0c102c364d56daa68ce76b84a4ebbe6316c4534f945b5387d2259e6be46260580e122e344f54d8a48ee56986a6e9bc6114c6514d96595185d0279c69e6606e56001c203a415ad6aa80eb6788a8e7b26f1ac85f4398575f8bde299267e86e6c54021e22384358d4a882e9658aaae5b06d18ca5d419a555d89dc2b9065ea6c6a520418243e455ed2ae84ef638cace3b66b1ecc5b479c535b8fda2d9663ec6a6850061a263c475cd0ac86ed618eaee1b4691cce59459e51598dd82f9461ee68665e081428324952dea288e36f80a0efba6712c0574b905f5783d6219a6fe066645c0a162a304b50dca08ae16d82a2edb86510c25549925d5581d423986de264625a0c102c364d56daa68ce76b84a4ebbe6316c4534f945b5387d2259e6be46260580e122e344f54d8a48ee56986a6e9bc6114c6514d96595185d0279c69e6606e56001c203a415ad6aa80eb6788a8e7b0ed3f3414abcad973e45b85a369df410131de1d843b1e4f6d506da7b09f3488c02fd750911b923750a9403f5a77c37a9fb409e50d6d39a378318d066f7385a86ff471000914d1c423b7c234659fe1e3c36a1c7bb352da4217fd742c3254c6d1fc91ad478b0352a4e2b8b85ef264a1c287414833ec4a05876316c9046d1ee17ef0ab166d812a5c0d9b28309d5a96c469e5afc09b4b35e35c7d94fc1a226b00433061840cd24cb7cda4a843e2e789b49e623ffa7b9fcce7e9909d989860f698efbeeead44004653b7dd0a01d475197580bcc2c10b536bc23525bcc804723a749bd46eb180e6195062b8defb819d70f153681ecb77bd1790f91be0bfd5a99083797f27e7ecbd311fe48234e1c34a0a6e05e48dae4751fe6862e36106d7f6fbb133e7fe8dd39ae2f102eb07cc1dc391b281d2bd9809ca45d3c82f72fff49acf360cd86af2a1ce9a2efb71fef8b17eead8cf7186bb85a6c993c64e7f0564d31f12f552d6578bc4bdf261635c92922116ada1c4705277469090e66b6bc224f62e647758c1b67f3fcd78d134c8eea1cc1b3202dc8cf99b4a93fbeebce45d062046f3061ceda58600c58fccfe1145b4fd364b193e00b71ba5aa523287c485e49e1aee8bb08e1ce74112e095ad5cadafb0d87e1509a29edd19b3806a686f02d3009d9fcf17eb9b3fd461b8718b59d0bf6eb2b82b95e69f23204ec1c18ed7504fb8ebb7c88c03feef2e5d2b01f1c7bd9709c484f89abc0874706d078f6dbec4629cebfcd45dfee1bb476c1a00af6d0d5738908821717b77b196b219603b945386613bd6191f037fe2a2482a7dfb9131a32bbc0c6e7d0bd55cfdeef0066caeccc3fa4fd251bb3c0d885594b05ba960a7def4c47b85daba6392378f7473df537c2adb7c3ce96fc512e1ed74447ab7d272b695fe3ac59fd4deb8f122aac998f66cf6745911670713935b5934f5620282223dbe9aaa2d34b939b037e815c44b1616acc0ada6db5d1b9dd32f3cf064c4b68281489758b6f1fe273ab991d804135413378c30b84b561d0478d9213377e28b9c0768e8cb6149fca78d1de2affe1c6327f765b27505ce9586c009374ad895c5fde8391630ca36f0e166d858f8db6da8852b000285bf17e77b6f185586d1ad3b557ce6ec8c791abcb1462218062776ebf8e5d4d4eb7b0654c9d1b630bdd0e4deccfccccdfdbf46bd703d5f36adbf4417144bf128d95a910393748a4effa9668c2846761c97da5c44948a59db2474adecd9fe8a124abad7757e751ef5b34c715e992ea8acfd4969f68490758bbcb0b20ebb7b323eb368ce05af39e4fd99692597c5a3554d3eb307ee16eeba57177b9ba6a445b4bf131a01298fd8f2c6fb1062339c123b000b4a4dfe608faf128c917fc5a665ef7be576ab05bd102d2d30a8c8b39e164cc8d973bff8e970cd0e350a43f1f2bfd322a82b9eb4f84b50a0b9a59116d9a03b7de43ea408a03eec9e402d2a6e714dc467e5fb309c161796a83658450a24c9e1d7ee84b43c06199783a017ad2c0d7555028cd1906a02658ee89761f64498a1ebdfa81ba8b9cfdd611d2a7262dba1bfc647f847f1267eacab96fc3d2ca9f07d6451755dacf02c0a1199f4e2bb30c54989623db0899024f318686bed486b6d62e5d0670df3713dceeefe68a860ea0ebf67c0d154832456b51425c53a0a41a8f4d6e1c5555f077eec2c3b27e085b73d0599d53ec5d188fea758b17d02c7837caab8ddf0c358fc390dd1ae948ce7fd90e32cf7063d8412f3a007a13f9918b5683daa2d2df3c86feb840afccb1faa32da5a60e79c68fdc9efd06911dd1caf7f50595b828c951ac558eacd9dee5c09af5960f38653c4db6dbbf04c469b0668e3ae6c7f4397c43934a78edd83675cc45bbf1efff805f863ead24125271ae4d407e4a70dc3acd2e9aac64598e8dfb525ad75e4184a0e35f885ac2c3da450343a2718a999cb291b785480a20b97cc09923d172958a2b9a257584db0d01fe79f6b53c1231f27b259b1fea13a54253b9d02a9efeb80b8ec3ec6478c83270df3edee1799738bb216e3ce62b7eda8d40caca075d791d490088d560536314fcd868a0380d280599c31e0da7c67a551f0b94e331485d2080cd528df3d0231e69f71baa7ddfcf8e77c996e34ce2ca5dd1e2abd44addfcabab903e8c56c8f3bc489632942ee90e4f831e3aaf405d20248162b49ec9b787bacc63aee5450fa814fc736aeb2a2054fb13c4883be84fabb328708a0760f719abc529398922b48848047792d4fcba28a2e11e642779e82bb335a2ffe20cf68254b81e076a04f5aee2baa544a8261abda7b0b030314f01e3bc0f528d51f37d3572cf2e66f0fc3af83d405705705aa51d59409902a497cf11b12272faaca556a152ba3c6a5e4db1259edc9eafdab4c472da0844affac985a77e5349124a8dd4fb5edcdb5ccda340e19536c9185faa77816c073719b6a0611a6e6a979ad1e795b95b90486954f5a9296e63514cd810862eaad3a19b87cad85c20570941fe9904635d5ab4720c327c9e156048abad0cb14bb65ada57a2ed5791599216e6035d728f9d63720b895c4ad1cd89418402262ae36541c7f9334570a005284a6fc4477ca3b52381d5fdbc29688bfceb01fd285eb2449324240b2db84f633115eee364793fdb79d117e8c1414bdab40c2f7ddcc52d17d0352f29e21c3d38d5fa73f3e808e892540d5ccb23936f324cf6b3b8bbfa638607f72c146bd5bd4925296940f95b65f1c1921cea9a2fe0ccae2633248ff829e10add625085b10339e2f37c2d66194b33cfadb3c178f6d149602701682def3eaa503bdba9b9105f14b15f01683cb4f9ebc17a04ff5e91c882af76d87df0aa6a02013105ba2d4b4ceb0a114f6caf84bf58c4d3270e7e57bc0b1b799544b151b8332b41b70393eeaff5584dd54f8fe527f845436960570b8e3c260c7a612b808e62fc18c1aa9f46ffd178360f331160f7034ead1dfeb5606796108d4cb3dc8efa6c7da3d3fa2ca329dd6d76aeb06e74da98e91b7fa3b7666766106a4cc6a1d6bbc62a125fadd03d6a3e692860e8a542d6cb1b7e5a52c98550973a642aa5aa27749cf51a0ee8c0a8ac0806016f3a8d01c6e737b96bbe4a77b1c536783ae114ab9e7dee97dd0ebcdfc43a64abc8ef43d3cb3a3f8bc994e70da2f67b0629bab394ac6c42c1ac6d437cece493904d92dfed080b4a577157cb7f14ef26566f70e553735dbe0280cc55db445dbe9e86ac3c73e2fdab51967db5a6cfb63035461749065f68e728cc3e34bac75cb561b29852282abd4a9077f535ca42d625e873b850c3763e2ab5688ccc060c508cf5f9c25d4d2e74e4c38685c91702ed1012182c2e4e586f708d9798b4c5ccf7fa102238424755565f6e7682869eaab2d1d5d7e6f417204248535e6f8ba8c3d1f9010f214043677d8aa7b7c0c2cee3e8000000000000000000000000000000001125314001fd210500259aea2b4420954ab4f17608647976f29fd460f3c71bef2a47fd859117b2ae3361424517766282cd9b2ccbbb490b8041714a05703eb3dc088bc68200cfac7580f0ab565d378a168f57bd4be22a0f5cd6a4f60340ac87837e2364b33df261bf8eb111ebb1e32cca654e3eef60a3c4f30bceba567122a16ff5164b8c5b450fb38bc9b21c7d3d458326ca73be0289797ec4c127061940f811c59741c6e9df3f54a2ce211b67e010aa4173da860c40515fedec911c8c7bf1b81575ba1633562954f11caea965a9519e4e687d3794b1dab626dd78b340544d5a32922aa77734e314451b99a4fa2fd320c81734673a5b75d748175f5917b65200de4747044abbd62dbf8f8cedf63dfe78269b9097e268038ece10db62522e668a4e2358d878ff05d81f7960297c57ed3b1e8f42bbc107efd96cb96e360611d35fa48d2785c80f882cfb5fa35a93403d2d1978a938b43c47d0f64c6858d87981540da770430c6930d957bcffe33e3bfc5b578ec93b82933be197bedf024f63c8dc8aa226944a89d2678d321c4b146ea3b71a551fa4689e408c9c014cc3c039d8cdfa0fae90b40f5b3168818a1e6c65550e48265df4544b96dd6d7f33e783d8eab65acc5c2def0f8db44ceebb83a0f66658fbd228b02466afb4d434d3c270583d0338d362ec6401574f3a24dfea2370686f639d4a146f1811b20390c61c011202b6fa8506e1512e20659504979b8083e07ba396a1e024a0266bf740da180bee9a9211b3916855fd41b492dd8f06f3a6508169b6041e88881ff30a2fcd41950825af69120c8481748359aa3add3dcfc7268de0a3ddcfaa35c33f97fcd6b8945b56895aea13875b674ae7735782a177166b00517821d02cc9cd00a73cffe1e849375d7159918fe8884c015e70c1fbd5f61ced37de66681f5c197c726c0603110367036a123fa584f10ed05b7618209aa8e1f987ea583df8805bf75dec6426130b96b91bee8bab0b708807cb805291cd3a5c8d8e9ecac625ee661927715ed5d9f2b4a90f97e5b22f1f31b9333a60f9044e3fa9fb8754a9fe0c530262d0550c5b8af8860971efb9992e656ccf782cc0926a69fa343fe5e2e97008754817ae4cce56c52901abef2c0c89f6caebc00caa4575570aebfcae25de93bfab25fb19bc6ba879bb90e07dd8880eceab6bb6ef37d9cca5fc9950d14a4e64009a5395c5ca1f6d09a32cd831a1679f0650dc113792e72cd8db9be684428a8626d9f694f22325f6a292acc6a9ecea69e4640b07e923fc2cf394b5d986a6458a015a91ebf820e54efa1fd15d9ce4d3e51c10aac9fc2e9f77fd5b26504b429aa2a08a9a4908480c20ecc62c836402010c66b928fac8adf3452101a459dee6918152998dbe762012542e9165a8c19d00722525dc51394ac61d46765e31b05c5eca13cd6382ea8e133694b329795f951af89c31da73de818b787606cd32801d37eeb20466785940364713fc8965166fb8f5a14b7d04a835c2e0264c506081f25a055523a016aaf9ca74082ae8be07201a879bd301bc59cd4466c29e8acbdddd40d1df1bd035bf3df0915afa331c3d81e668b8fa878c912e729b36dd11d63d3667c626a1fb06f30c75fbf09d594a2b25342fc988cf49ffccd47cf1b1609d1d45bf675aeb8d63c2b258a1208bdf173eaf799abe5cdd4d720e8ab93e5f7e34bcac6a641bd19b9be336646de2a30c028a1157b66a7ea2ad0e0e6e9d79cd4c29f9088ac8a9f30b37eb2a3a4a4d19cda611755abe70a4a39c5db4c7cad3af7e00f3ffdcdec032faae69dbccfa5ee41ec5e25a195af719590a5476378ca0266886b882b877ff9a103551f55da25d4f8555c87b00755f6bdd88000000",
  "txid": "4a7d42aa20db4bbca79576259bb3a3faaeb021bbcee8c7203d340794ef423be6",
  "hash": "099357a4716ba812cee622376ea2389d748db60604bab096daf2637488a90523",
  "size": 5085,
  "vsize": 2278,
  "version": 1,
  "locktime": 136,
  "vin": [
    {
      "txid": "f451719620d67d415c6f9665105c8a1fa2342849190af8083afbe5cbe563e316",
      "vout": 1,
      "scriptSig": {
        "asm": "",
        "hex": ""
      },
      "txinwitness": [
        "11b923750a9403f5a77c37a9fb409e50d6d39a378318d066f7385a86ff471000914d1c423b7c234659fe1e3c36a1c7bb352da4217fd742c3254c6d1fc91ad478b0352a4e2b8b85ef264a1c287414833ec4a05876316c9046d1ee17ef0ab166d812a5c0d9b28309d5a96c469e5afc09b4b35e35c7d94fc1a226b00433061840cd24cb7cda4a843e2e789b49e623ffa7b9fcce7e9909d989860f698efbeeead44004653b7dd0a01d475197580bcc2c10b536bc23525bcc804723a749bd46eb180e6195062b8defb819d70f153681ecb77bd1790f91be0bfd5a99083797f27e7ecbd311fe48234e1c34a0a6e05e48dae4751fe6862e36106d7f6fbb133e7fe8dd39ae2f102eb07cc1dc391b281d2bd9809ca45d3c82f72fff49acf360cd86af2a1ce9a2efb71fef8b17eead8cf7186bb85a6c993c64e7f0564d31f12f552d6578bc4bdf261635c92922116ada1c4705277469090e66b6bc224f62e647758c1b67f3fcd78d134c8eea1cc1b3202dc8cf99b4a93fbeebce45d062046f3061ceda58600c58fccfe1145b4fd364b193e00b71ba5aa523287c485e49e1aee8bb08e1ce74112e095ad5cadafb0d87e1509a29edd19b3806a686f02d3009d9fcf17eb9b3fd461b8718b59d0bf6eb2b82b95e69f23204ec1c18ed7504fb8ebb7c88c03feef2e5d2b01f1c7bd9709c484f89abc0874706d078f6dbec4629cebfcd45dfee1bb476c1a00af6d0d5738908821717b77b196b219603b945386613bd6191f037fe2a2482a7dfb9131a32bbc0c6e7d0bd55cfdeef0066caeccc3fa4fd251bb3c0d885594b05ba960a7def4c47b85daba6392378f7473df537c2adb7c3ce96fc512e1ed74447ab7d272b695fe3ac59fd4deb8f122aac998f66cf6745911670713935b5934f5620282223dbe9aaa2d34b939b037e815c44b1616acc0ada6db5d1b9dd32f3cf064c4b68281489758b6f1fe273ab991d804135413378c30b84b561d0478d9213377e28b9c0768e8cb6149fca78d1de2affe1c6327f765b27505ce9586c009374ad895c5fde8391630ca36f0e166d858f8db6da8852b000285bf17e77b6f185586d1ad3b557ce6ec8c791abcb1462218062776ebf8e5d4d4eb7b0654c9d1b630bdd0e4deccfccccdfdbf46bd703d5f36adbf4417144bf128d95a910393748a4effa9668c2846761c97da5c44948a59db2474adecd9fe8a124abad7757e751ef5b34c715e992ea8acfd4969f68490758bbcb0b20ebb7b323eb368ce05af39e4fd99692597c5a3554d3eb307ee16eeba57177b9ba6a445b4bf131a01298fd8f2c6fb1062339c123b000b4a4dfe608faf128c917fc5a665ef7be576ab05bd102d2d30a8c8b39e164cc8d973bff8e970cd0e350a43f1f2bfd322a82b9eb4f84b50a0b9a59116d9a03b7de43ea408a03eec9e402d2a6e714dc467e5fb309c161796a83658450a24c9e1d7ee84b43c06199783a017ad2c0d7555028cd1906a02658ee89761f64498a1ebdfa81ba8b9cfdd611d2a7262dba1bfc647f847f1267eacab96fc3d2ca9f07d6451755dacf02c0a1199f4e2bb30c54989623db0899024f318686bed486b6d62e5d0670df3713dceeefe68a860ea0ebf67c0d154832456b51425c53a0a41a8f4d6e1c5555f077eec2c3b27e085b73d0599d53ec5d188fea758b17d02c7837caab8ddf0c358fc390dd1ae948ce7fd90e32cf7063d8412f3a007a13f9918b5683daa2d2df3c86feb840afccb1faa32da5a60e79c68fdc9efd06911dd1caf7f50595b828c951ac558eacd9dee5c09af5960f38653c4db6dbbf04c469b0668e3ae6c7f4397c43934a78edd83675cc45bbf1efff805f863ead24125271ae4d407e4a70dc3acd2e9aac64598e8dfb525ad75e4184a0e35f885ac2c3da450343a2718a999cb291b785480a20b97cc09923d172958a2b9a257584db0d01fe79f6b53c1231f27b259b1fea13a54253b9d02a9efeb80b8ec3ec6478c83270df3edee1799738bb216e3ce62b7eda8d40caca075d791d490088d560536314fcd868a0380d280599c31e0da7c67a551f0b94e331485d2080cd528df3d0231e69f71baa7ddfcf8e77c996e34ce2ca5dd1e2abd44addfcabab903e8c56c8f3bc489632942ee90e4f831e3aaf405d20248162b49ec9b787bacc63aee5450fa814fc736aeb2a2054fb13c4883be84fabb328708a0760f719abc529398922b48848047792d4fcba28a2e11e642779e82bb335a2ffe20cf68254b81e076a04f5aee2baa544a8261abda7b0b030314f01e3bc0f528d51f37d3572cf2e66f0fc3af83d405705705aa51d59409902a497cf11b12272faaca556a152ba3c6a5e4db1259edc9eafdab4c472da0844affac985a77e5349124a8dd4fb5edcdb5ccda340e19536c9185faa77816c073719b6a0611a6e6a979ad1e795b95b90486954f5a9296e63514cd810862eaad3a19b87cad85c20570941fe9904635d5ab4720c327c9e156048abad0cb14bb65ada57a2ed5791599216e6035d728f9d63720b895c4ad1cd89418402262ae36541c7f9334570a005284a6fc4477ca3b52381d5fdbc29688bfceb01fd285eb2449324240b2db84f633115eee364793fdb79d117e8c1414bdab40c2f7ddcc52d17d0352f29e21c3d38d5fa73f3e808e892540d5ccb23936f324cf6b3b8bbfa638607f72c146bd5bd4925296940f95b65f1c1921cea9a2fe0ccae2633248ff829e10add625085b10339e2f37c2d66194b33cfadb3c178f6d149602701682def3eaa503bdba9b9105f14b15f01683cb4f9ebc17a04ff5e91c882af76d87df0aa6a02013105ba2d4b4ceb0a114f6caf84bf58c4d3270e7e57bc0b1b799544b151b8332b41b70393eeaff5584dd54f8fe527f845436960570b8e3c260c7a612b808e62fc18c1aa9f46ffd178360f331160f7034ead1dfeb5606796108d4cb3dc8efa6c7da3d3fa2ca329dd6d76aeb06e74da98e91b7fa3b7666766106a4cc6a1d6bbc62a125fadd03d6a3e692860e8a542d6cb1b7e5a52c98550973a642aa5aa27749cf51a0ee8c0a8ac0806016f3a8d01c6e737b96bbe4a77b1c536783ae114ab9e7dee97dd0ebcdfc43a64abc8ef43d3cb3a3f8bc994e70da2f67b0629bab394ac6c42c1ac6d437cece493904d92dfed080b4a577157cb7f14ef26566f70e553735dbe0280cc55db445dbe9e86ac3c73e2fdab51967db5a6cfb63035461749065f68e728cc3e34bac75cb561b29852282abd4a9077f535ca42d625e873b850c3763e2ab5688ccc060c508cf5f9c25d4d2e74e4c38685c91702ed1012182c2e4e586f708d9798b4c5ccf7fa102238424755565f6e7682869eaab2d1d5d7e6f417204248535e6f8ba8c3d1f9010f214043677d8aa7b7c0c2cee3e8000000000000000000000000000000001125314001",
        "00259aea2b4420954ab4f17608647976f29fd460f3c71bef2a47fd859117b2ae3361424517766282cd9b2ccbbb490b8041714a05703eb3dc088bc68200cfac7580f0ab565d378a168f57bd4be22a0f5cd6a4f60340ac87837e2364b33df261bf8eb111ebb1e32cca654e3eef60a3c4f30bceba567122a16ff5164b8c5b450fb38bc9b21c7d3d458326ca73be0289797ec4c127061940f811c59741c6e9df3f54a2ce211b67e010aa4173da860c40515fedec911c8c7bf1b81575ba1633562954f11caea965a9519e4e687d3794b1dab626dd78b340544d5a32922aa77734e314451b99a4fa2fd320c81734673a5b75d748175f5917b65200de4747044abbd62dbf8f8cedf63dfe78269b9097e268038ece10db62522e668a4e2358d878ff05d81f7960297c57ed3b1e8f42bbc107efd96cb96e360611d35fa48d2785c80f882cfb5fa35a93403d2d1978a938b43c47d0f64c6858d87981540da770430c6930d957bcffe33e3bfc5b578ec93b82933be197bedf024f63c8dc8aa226944a89d2678d321c4b146ea3b71a551fa4689e408c9c014cc3c039d8cdfa0fae90b40f5b3168818a1e6c65550e48265df4544b96dd6d7f33e783d8eab65acc5c2def0f8db44ceebb83a0f66658fbd228b02466afb4d434d3c270583d0338d362ec6401574f3a24dfea2370686f639d4a146f1811b20390c61c011202b6fa8506e1512e20659504979b8083e07ba396a1e024a0266bf740da180bee9a9211b3916855fd41b492dd8f06f3a6508169b6041e88881ff30a2fcd41950825af69120c8481748359aa3add3dcfc7268de0a3ddcfaa35c33f97fcd6b8945b56895aea13875b674ae7735782a177166b00517821d02cc9cd00a73cffe1e849375d7159918fe8884c015e70c1fbd5f61ced37de66681f5c197c726c0603110367036a123fa584f10ed05b7618209aa8e1f987ea583df8805bf75dec6426130b96b91bee8bab0b708807cb805291cd3a5c8d8e9ecac625ee661927715ed5d9f2b4a90f97e5b22f1f31b9333a60f9044e3fa9fb8754a9fe0c530262d0550c5b8af8860971efb9992e656ccf782cc0926a69fa343fe5e2e97008754817ae4cce56c52901abef2c0c89f6caebc00caa4575570aebfcae25de93bfab25fb19bc6ba879bb90e07dd8880eceab6bb6ef37d9cca5fc9950d14a4e64009a5395c5ca1f6d09a32cd831a1679f0650dc113792e72cd8db9be684428a8626d9f694f22325f6a292acc6a9ecea69e4640b07e923fc2cf394b5d986a6458a015a91ebf820e54efa1fd15d9ce4d3e51c10aac9fc2e9f77fd5b26504b429aa2a08a9a4908480c20ecc62c836402010c66b928fac8adf3452101a459dee6918152998dbe762012542e9165a8c19d00722525dc51394ac61d46765e31b05c5eca13cd6382ea8e133694b329795f951af89c31da73de818b787606cd32801d37eeb20466785940364713fc8965166fb8f5a14b7d04a835c2e0264c506081f25a055523a016aaf9ca74082ae8be07201a879bd301bc59cd4466c29e8acbdddd40d1df1bd035bf3df0915afa331c3d81e668b8fa878c912e729b36dd11d63d3667c626a1fb06f30c75fbf09d594a2b25342fc988cf49ffccd47cf1b1609d1d45bf675aeb8d63c2b258a1208bdf173eaf799abe5cdd4d720e8ab93e5f7e34bcac6a641bd19b9be336646de2a30c028a1157b66a7ea2ad0e0e6e9d79cd4c29f9088ac8a9f30b37eb2a3a4a4d19cda611755abe70a4a39c5db4c7cad3af7e00f3ffdcdec032faae69dbccfa5ee41ec5e25a195af719590a5476378ca0266886b882b877ff9a103551f55da25d4f8555c87b00755f6bdd"
      ],
      "sequence": 4294967294
    }
  ],
  "vout": [
    {
      "value": 499961.3578,
      "n": 0,
      "scriptPubKey": {
        "asm": "1 21f0fb259e5a07d3f6f5e31d14a86637b90b95fbf47abeecd1a74fb75b64ed55",
        "hex": "512021f0fb259e5a07d3f6f5e31d14a86637b90b95fbf47abeecd1a74fb75b64ed55",
        "reqSigs": 1,
        "type": "witness_v1_scripthash",
        "addresses": [
          "3QJmnh"
        ]
      }
    },
    {
      "value": 1.0,
      "n": 1,
      "scriptPubKey": {
        "asm": "OP_RETURN dff4d2c8cf21fb9619157076bfa050e63c951c62f9a12cffe31d70e9b64c3973 65e081428324952dea288e36f80a0efba6712c0574b905f5783d6219a6fe066645c0a162a304b50dca08ae16d82a2edb86510c25549925d5581d423986de264625a0c102c364d56daa68ce76b84a4ebbe6316c4534f945b5387d2259e6be46260580e122e344f54d8a48ee56986a6e9bc6114c6514d96595185d0279c69e6606e56001c203a415ad6aa80eb6788a8e7b26f1ac85f4398575f8bde299267e86e6c54021e22384358d4a882e9658aaae5b06d18ca5d419a555d89dc2b9065ea6c6a520418243e455ed2ae84ef638cace3b66b1ecc5b479c535b8fda2d9663ec6a6850061a263c475cd0ac86ed618eaee1b4691cce59459e51598dd82f9461ee68665e081428324952dea288e36f80a0efba6712c0574b905f5783d6219a6fe066645c0a162a304b50dca08ae16d82a2edb86510c25549925d5581d423986de264625a0c102c364d56daa68ce76b84a4ebbe6316c4534f945b5387d2259e6be46260580e122e344f54d8a48ee56986a6e9bc6114c6514d96595185d0279c69e6606e56001c203a415ad6aa80eb6788a8e7b26f1ac85f4398575f8bde299267e86e6c54021e22384358d4a882e9658aaae5b06d18ca5d419a555d89dc2b9065ea6c6a520418243e455ed2ae84ef638cace3b66b1ecc5b479c535b8fda2d9663ec6a6850061a263c475cd0ac86ed618eaee1b4691cce59459e51598dd82f9461ee68665e081428324952dea288e36f80a0efba6712c0574b905f5783d6219a6fe066645c0a162a304b50dca08ae16d82a2edb86510c25549925d5581d423986de264625a0c102c364d56daa68ce76b84a4ebbe6316c4534f945b5387d2259e6be46260580e122e344f54d8a48ee56986a6e9bc6114c6514d96595185d0279c69e6606e56001c203a415ad6aa80eb6788a8e7b26f1ac85f4398575f8bde299267e86e6c54021e22384358d4a882e9658aaae5b06d18ca5d419a555d89dc2b9065ea6c6a520418243e455ed2ae84ef638cace3b66b1ecc5b479c535b8fda2d9663ec6a6850061a263c475cd0ac86ed618eaee1b4691cce59459e51598dd82f9461ee68665e081428324952dea288e36f80a0efba6712c0574b905f5783d6219a6fe066645c0a162a304b50dca08ae16d82a2edb86510c25549925d5581d423986de264625a0c102c364d56daa68ce76b84a4ebbe6316c4534f945b5387d2259e6be46260580e122e344f54d8a48ee56986a6e9bc6114c6514d96595185d0279c69e6606e56001c203a415ad6aa80eb6788a8e7b26f1ac85f4398575f8bde299267e86e6c54021e22384358d4a882e9658aaae5b06d18ca5d419a555d89dc2b9065ea6c6a520418243e455ed2ae84ef638cace3b66b1ecc5b479c535b8fda2d9663ec6a6850061a263c475cd0ac86ed618eaee1b4691cce59459e51598dd82f9461ee68665e081428324952dea288e36f80a0efba6712c0574b905f5783d6219a6fe066645c0a162a304b50dca08ae16d82a2edb86510c25549925d5581d423986de264625a0c102c364d56daa68ce76b84a4ebbe6316c4534f945b5387d2259e6be46260580e122e344f54d8a48ee56986a6e9bc6114c6514d96595185d0279c69e6606e56001c203a415ad6aa80eb6788a8e7b0ed3f3414abcad973e45b85a369df410131de1d843b1e4f6d506da7b09f3488c",
        "hex": "6a20dff4d2c8cf21fb9619157076bfa050e63c951c62f9a12cffe31d70e9b64c39734db00465e081428324952dea288e36f80a0efba6712c0574b905f5783d6219a6fe066645c0a162a304b50dca08ae16d82a2edb86510c25549925d5581d423986de264625a0c102c364d56daa68ce76b84a4ebbe6316c4534f945b5387d2259e6be46260580e122e344f54d8a48ee56986a6e9bc6114c6514d96595185d0279c69e6606e56001c203a415ad6aa80eb6788a8e7b26f1ac85f4398575f8bde299267e86e6c54021e22384358d4a882e9658aaae5b06d18ca5d419a555d89dc2b9065ea6c6a520418243e455ed2ae84ef638cace3b66b1ecc5b479c535b8fda2d9663ec6a6850061a263c475cd0ac86ed618eaee1b4691cce59459e51598dd82f9461ee68665e081428324952dea288e36f80a0efba6712c0574b905f5783d6219a6fe066645c0a162a304b50dca08ae16d82a2edb86510c25549925d5581d423986de264625a0c102c364d56daa68ce76b84a4ebbe6316c4534f945b5387d2259e6be46260580e122e344f54d8a48ee56986a6e9bc6114c6514d96595185d0279c69e6606e56001c203a415ad6aa80eb6788a8e7b26f1ac85f4398575f8bde299267e86e6c54021e22384358d4a882e9658aaae5b06d18ca5d419a555d89dc2b9065ea6c6a520418243e455ed2ae84ef638cace3b66b1ecc5b479c535b8fda2d9663ec6a6850061a263c475cd0ac86ed618eaee1b4691cce59459e51598dd82f9461ee68665e081428324952dea288e36f80a0efba6712c0574b905f5783d6219a6fe066645c0a162a304b50dca08ae16d82a2edb86510c25549925d5581d423986de264625a0c102c364d56daa68ce76b84a4ebbe6316c4534f945b5387d2259e6be46260580e122e344f54d8a48ee56986a6e9bc6114c6514d96595185d0279c69e6606e56001c203a415ad6aa80eb6788a8e7b26f1ac85f4398575f8bde299267e86e6c54021e22384358d4a882e9658aaae5b06d18ca5d419a555d89dc2b9065ea6c6a520418243e455ed2ae84ef638cace3b66b1ecc5b479c535b8fda2d9663ec6a6850061a263c475cd0ac86ed618eaee1b4691cce59459e51598dd82f9461ee68665e081428324952dea288e36f80a0efba6712c0574b905f5783d6219a6fe066645c0a162a304b50dca08ae16d82a2edb86510c25549925d5581d423986de264625a0c102c364d56daa68ce76b84a4ebbe6316c4534f945b5387d2259e6be46260580e122e344f54d8a48ee56986a6e9bc6114c6514d96595185d0279c69e6606e56001c203a415ad6aa80eb6788a8e7b26f1ac85f4398575f8bde299267e86e6c54021e22384358d4a882e9658aaae5b06d18ca5d419a555d89dc2b9065ea6c6a520418243e455ed2ae84ef638cace3b66b1ecc5b479c535b8fda2d9663ec6a6850061a263c475cd0ac86ed618eaee1b4691cce59459e51598dd82f9461ee68665e081428324952dea288e36f80a0efba6712c0574b905f5783d6219a6fe066645c0a162a304b50dca08ae16d82a2edb86510c25549925d5581d423986de264625a0c102c364d56daa68ce76b84a4ebbe6316c4534f945b5387d2259e6be46260580e122e344f54d8a48ee56986a6e9bc6114c6514d96595185d0279c69e6606e56001c203a415ad6aa80eb6788a8e7b0ed3f3414abcad973e45b85a369df410131de1d843b1e4f6d506da7b09f3488c",
        "type": "nulldata"
      }
    }
  ],
  "blockhash": "c0ea0e6b16ad20f35d4757cbcff39c3d199dbd7e252fa8e6bc9f3f36ee858c22",
  "confirmations": 1,
  "time": 1764183276,
  "blocktime": 1764183276
}