{
  "hex": "0100000000010131c9d398f56bc488eaa95e6112672edbc73d0c75815381752ca16b5c3877347c0000000000feffffff0200e1f50500000000fdd5046a20c128ef0e36405fe60b4c1377609c2260e69ed6bfe8f20360f323fae58956ab174db004a0da9e7b3169743088ce129e6dce52ca5f7855c90d9823dc54f7eb38ba288bc580fabe5b11495410a8ee32be4dee72ea7f5875e92db803fc74d7cb189a08abe5e09ade3b71293470c88e52de2d8e128a1f3815894dd8639c14b7ab78fa68cb85c0bafe1b51091450e8ae72fe0dae32aa3f1835a96df843bc34978b58da48eba5205a1efbb1e9f4b0084e921eed4ed24adff8d5498d18a35cd4776bb83aa80b45007a3edb91c9d490286eb23ecd6ef26affd8f569ad38837cf4574b981a882b65601a5ebbf1a9b4f0480ed25ead0e920a9fb89509cd58e31c94372bf87ae84b05403a7e9bd18994d0682ef27e8d2eb22abf98b529ed78c33cb4170bd85ac86b25a0da9e7b3169743088ce129e6dce52ca5f7855c90d9823dc54f7eb38ba288bc580fabe5b11495410a8ee32be4dee72ea7f5875e92db803fc74d7cb189a08abe5e09ade3b71293470c88e52de2d8e128a1f3815894dd8639c14b7ab78fa68cb85c0bafe1b51091450e8ae72fe0dae32aa3f1835a96df843bc34978b58da48eba5205a1efbb1e9f4b0084e921eed4ed24adff8d5498d18a35cd4776bb83aa80b45007a3edb91c9d490286eb23ecd6ef26affd8f569ad38837cf4574b981a882b65601a5ebbf1a9b4f0480ed25ead0e920a9fb89509cd58e31c94372bf87ae84b05403a7e9bd18994d0682ef27e8d2eb22abf98b529ed78c33cb4170bd85ac86b25a0da9e7b3169743088ce129e6dce52ca5f7855c90d9823dc54f7eb38ba288bc580fabe5b11495410a8ee32be4dee72ea7f5875e92db803fc74d7cb189a08abe5e09ade3b71293470c88e52de2d8e128a1f3815894dd8639c14b7ab78fa68cb85c0bafe1b51091450e8ae72fe0dae32aa3f1835a96df843bc34978b58da48eba5205a1efbb1e9f4b0084e921eed4ed24adff8d5498d18a35cd4776bb83aa80b45007a3edb91c9d490286eb23ecd6ef26affd8f569ad38837cf4574b981a882b65601a5ebbf1a9b4f0480ed25ead0e920a9fb89509cd58e31c94372bf87ae84b05403a7e9bd18994d0682ef27e8d2eb22abf98b529ed78c33cb4170bd85ac86b25a0da9e7b3169743088ce129e6dce52ca5f7855c90d9823dc54f7eb38ba288bc580fabe5b11495410a8ee32be4dee72ea7f5875e92db803fc74d7cb189a08abe5e09ade3b71293470c88e52de2d8e128a1f3815894dd8639c14b7ab78fa68cb85c0bafe1b51091450e8ae72fe0dae32aa3f1835a96df843bc34978b58da48eba5205a1efbb1e9f4b0084e921eed4ed24adff8d5498d18a35cd4776bb83aa80b45007a3edb91c9d490286eb23ecd6ef26affd8f569ad38837cf4574b981a882b65601a5ebbf1a9b4f0480ed25ead0e920a9fb89509cd58e31c94372bf87ae84b05403a7e9bd18994d0682ef27e8d2eb22abf98b529ed78c33cb4170bd85ac86b25a0da9e7b3169743088ce129e6dce52ca5f7855c90d9823dc54f7eb38ba288bc580fabe5b11495410a8ee32be4dee72ea7f5875e92db803fc74d7cb189a08abe5e09ade3b71293470c88e52de2d8e128a1f3815894dd8639c14b7ab78fa68cb85c0bafe1b51091450e8ae72fe0dae32aa3f1835a96df843bc34978b58da48eba5205a1efbb1e9f4b0084e921eed4ed24a80f00036e650a63fbe8b5300827d9d27122e6750199685ef5c225459029a2f3a20cc6133792d000022512091d695c037fc1f95f0498bc0964f5cd139965ac6366a57425cbcf4eae52fa16002fd75095097304432d77fa9e7a0d10f0789847cd7efb5984dfe4bf9c3c8f5cca3fbcd4e1fc2e5cb5ce054752d6535b9390c430bb079716cba90272d8cda750fad45c069fae2cfe5e9afe244f2c58e69ac06033630e5828be668d4df2df90ebce5d699857afd0ce2cd4d8d4c7c96ba38c22dd42dc7d5f79e2fdfc02ce56e7a51131b9556d8a4205ce9c117f1c8fb844cceac5c1e2d4b81cd1a2d20789e200fc37a8c3c24ef85c430b242ff3c0180f264a74e87ef22ccef35cb0493b588f8732ccab6f3e689eaf2621d3c6be70193e39379ba583cc24a931238db051b6c7abbe122ba9269024df6e1de0ff7db58c4c00d607695a9723c59d1e76803db2e7b699bb6dc88c82b4082454a14e4386eaedab926bec5f7afa22ad8122c7d676e2d46fd1051f1dd561549385e537d92430d6ad6daec2b5d92303cc45f6f1d17d97e3327426b228183cf6516e6eb3abf78d48a2fcca3aaba01f532719fc45576691c6f36a8842d615ced254f8279874d56fc12b4c5d61bbbf3d241a73a95b6d18b455a6b4c538a91c23e517efbd1eea775d49ec7cd989e5e0fba29bf9fc20aa764ca25c56f804d8936b3fe2ecf64338b20035cc34b50a58ef2f213fe37495c6ed8a019091de9c860e913b63f14372294741f0baa5657598a74e73406f03597abb377cb99e5d3838cb6ded2aba9a77b69635212b31552f459665ae70c2e921b5f8709970435f1b2eea6706d7ada2afe3408788e49aaf5985d90d4dfb864b6b140f41bfd2287f4cfedc6f775bed5fc31683d0136835179ef315eec60aa4156a19e02de44b3bb91ee9a796b12633a47a2f5e2897c7d3aa54910707cb7d1ee30f4c6181edbcf102b69256128faf65ee76d44b46940a9f61c8db1fb1378d4e2f8f6816c42dd9950555f05e0d0afafeb00e832ef87426a7633d3ffd62d1ba6333975a6b5bf2d18f8efd33b738dc42d06d4e288f9536f2324229d784f34e71bad325f639c61be810ac86891a15ac19faef50de3dd3a82e28a7cb987678c816d7de4b170ba2f143da8a74dd3344848c187d0325c0f1456a572d27a62f3bcb3f40723a99152a839242b1c29df86003ab64214a74e161f42c1edb1fd195998f5edb92b34d4869281694fbe8bf7230e59eec5d8d4994b8e3ce3a5269a786c12d9eb1aa5b4f652848224e3fa097fe65f7fa9f63112d9c6d2ae94390978a69f2a0abff20523947abcea4c66bfbe111b66af73028365b0190e7eb8cbd667cb181a4f41ea89e32a3ec2cca5900a4067634efd8e5513b96626fe29cd9d95515d8c45a7298cb49d1223e2ae9ff0733ce47daba6c55bd897d0d1d8f128e5b3eb54a9e4f9f134e5f1fe2471c497a9768e2dc0ac5ebed869d53b709b0bfc317a97bdd83272f342c903767e49135826b079c93e1b16e81813ef9849e4bfde2219d407aefc598f239acaced78b48adc0e57306a0cf3de3195f3214a9d178b2b723f0572044075df050fe1400ebab18ac595c3bf81044631a3cb8107e917b95da06585b9d18471fc251d645b257001c5ffc57dfae4a6e17864247e338038e3184f906d33f9add4d8ddc1d6a6c050cb8104ae03c6dde75deeb539d8487943dff7dcd303ef6989735390247108f05578418168106d85d38aaedfba114ea894ca64f23ee50b753fdcdb77113f4b68df3ecd8866ecee391989bc33763b9002244ce381c7df82d6e433ecea872b2784ea00a73d23663b228e84f79b3c0e0ae4ca99ffc0012d616ecad137f7ff5183ec4ed0cc41cf8cdfdef5c12be6cd6e864cb6e4edfa6d6f7376c2fcccdb29041d30c0f0550ad8bfd23196e0be0982330f94dd706039810555f3ff77a32e9e1ae606d44a791c3b5716a688c8c73bb699337aefef8928b3971ce732bd20a515455ef8727baab1217a2a55b88642a9490e5f437bb6d800dd172ab92c3a693ef5ee6ce672f19ff4537d4e4f533a61dc3574c0157ad1a9ee87485ae0ef3f511bd7cc80155e16cc424b38f2d3bf8795ebf189d7860bfd0f15d0da36caef234536d03b1c52bda6be5bd88588eccd9c52667165e92af8ef368af0dcde47bdc56f4ef47404e0cfe1d7f0aec2b17238488b3addc621ab7d05a488ae0be068e53399e27605e53673e7032710567c1b083f17fefd22fecd8236fd567298feee3ff9a93a90748890536fcd49984d6a9d9add38e4484f7aec098d3283a9d6befb0d8eab74ea6e5632b333ea23f3e8c9c6925d81b8c14a8d7cd3ff56742f712949a702df73abd0786c0034cb5e1840782c5dd2c8e73ec1585f56668c5e91297cb9ff7f5ba9c80e3e0c0f3fad7446b7aa1dffdd66d4ad267c4a1bc75809eee41dd7ab8c2cfd97a43a11bc790fcfe310e689f44d12955c1aae40c0d2c06099af1f5c18962343063f44631e561edcd9b7fa792e96dcffb65cbefa3d242753529b42a74cdb107b0360ba1649f5a9aaf28c17e7857e0294717421c31b0b08177601422e6899ec35cbfe60d111bdfe3d185b807240889d0741e5fd2f9155b9c6c5bbc66bac91ea70e36f503824c1417af54caa7487dca59d4835014fba67757df46ebcc69524c9a74d6290f14821ab99d233070fd5579230b9c54c83d2eb3f8390b5c671aeebd427fa9b095043b5f57575aac3d6b1cbb2609f7548f57ed66e9db70a51cace76bd457733bbe2714455a405525dbc768f240a6bf9ecb2f60b7e0acbf3dcf8861815a8c20a636182a3118281a042eb2143c8d6beba24f732deaa2940a909db9438f775055f6ffd99318138b7403572dcd3b850e3b24b9a06d329dc8543cb40f7987bb5f932c108fe6f3249fa5f2cba6638b4e9ae15112cfefb3a5006a1000cd26c347ea9c687da5140440299ccbcb927a5a0fe8766ff751ada8671a964d84660c35be3c48ce28c5bfba6e8489c9249f6f3031c087b633e83b0e8aceb1a0ba73df3a257a96073c96433817e53d3b2682f862fcfd0daff63ac5ca6f1153da750f6f8d4aa6ba0e53154168ff221c06d05ae5c7e1a0a0affa19be1b7154dd9320f2131cf70d24e259862c34960ba1b062cbe5afc6bb3500fcf6a84588d69d7923028673840b9c5598c29fec35478e20eeafaf43307db5a42e76b8879513c2aa14ccc75ef9d0ac2917c1cb73556e8ab570f6a0f784fbc7926cfb1ad5930b3a02dea3975480cc8d7d2310555e7304b36e2eb3be4d476d49b2bc668b673231c40df41d2c647fa129dcee2f59915e2d31a4fe1aae7d1e265ead5af16da2999a42aa0444a0a3568f85ab335d87596f355284ec4df3a16c0e56365510602ab7fb68fc1470036fda5c06f79549c9096b2cd67f050f3843505455797e8c9294a8abb4c8cdecef0a111b3c3e585c6067a0aeb2b3bfc4caf5030c0d132c3e3f52587a8291989fa6a8bbbdf0f8fcfe051113424e5e62757bb9bfc9cddaeaf4fb000000000013243a4b01fd210500d21528255231109b6a166c610fd2e2fe2ee1f57164f2e71a882f6e5872a1f12ead80c28b926ac271abc910853a7b463e4c9e96bb44f627fd4e6b470e4148100935617a081863a1a139ce4d556295c9428b411fc2c3b2429c2bed67761b58e06bffda8f214456561836c42c6a71c3c909e74d2553ad1b0f4b5cd9ed8bcaf26fc97a1c49aef7fe1a5a012bab506c2ff1e5d4aaf4844193690ae84b4db0619bec224a8378ea500b8ed44ca0ab4a69b2ff634c7e5818213ccf0fff25d30d546d8d13e1215285f5e1f55e52f1be62458324a039a9f5ee3a5aaabefb2114d606bd24b55c46cb769fdd2985eceaf892d1a09b05285859e70af90d87f12e593333ee41582ffeb63f10a88cafd256a19fefd6f00c549362cc0a3fb9371f9fc925eb06a7fb548cac512e4c4e866aae59d7d9ba2c3cb28f75f7fbe5cee649d31c53b9cd7db6f8d72060e6706a0d4b69b131dd7af7ad9f66e7c70178a5d5219e38c904ec4258cef61d56bac494c2be754449f5993fbd1be59eda1081358b8c338afce2862547b0f463adcdb86d99cca767e124085d3c6836bd6eb3b71856c80969e08d8f22fb8e7092aea2b8cd83b7604dde1820927abe445b6737ee08ce20db698080cc0dbd174c4f23ca8338829815ce139540c0900e64a147cbdb4d01dbcdfd094ae991765112f70fd07eb34d02774a3001b5aca564665b853f27b2e5bab0e9fce91a845effb949d51553b28d2f012b4d813ef3bd8fb6e471a9ee4598bd7dc2430642bc4b33942d50c33845be0d227d6ca89c94528172d7e22eacb510800c813537d126fc65fdf74964cbe07ce6dfddd399750c52bef24b86cdfa68492dc011cdf2e43d9ce3d4472065c4c693fa42c8e2b7a6e960eb9f6453811403b35be24bf485c7388ec2940d6b284c9e64bfc58d6975c68723c8deff50c198d480aa32b2f07cd2313cf2dfebc1a08c1fb8a5a7ec325298021a24ff279ca5be3f01380260232f35aac9f0902bcb1686115e6df94fa0319885956d60cac4f5796910036e0916add66af2f7831defdca90b16816801d64b0ba39e942be38d1c5872ec57989c18090ab76141137eabe63de99eed78ce9167f52b38f3f332dc646d473451aa3f59fbe1c6f400542322b322b5a27ac59941bd9fb237619a05bd3576d409ddc331c3a34545ab935764fffa8a64da54e530c9ac00195cb15afdf6275a8e876881c45fc1921c4bb9486c7b5eb6e5fd38d89810fb2e864c7bbc56ad6fe08d8553f2f7d7500e7e744ce7a76a43ef558629398febef66dc3c6d14fda6125443075ff3b52e02a523c10639c6a76debc306c9dcab44f799e5a96f2cfea664b423a483ef2a3671504b8171c9da7024e9b5c6d52e80ce5e8e5dc5347937525cfccf7c69da358fdfe01169991dc235c510bfe56363d17b6dca44490ee7149af13d3f75ed358e3a2bc368d4671e7dd011da1a923363a5b8ac70262b11ce1eaa5be5cab3af516c3eded98b8d03542d6ad69046ce09d6fd52fcbdc8f0a8644b53854e646bbdbf7b3f1fce5b8e5cbbf1f1d0a6af21dfc90b6dcef6d5b2025eef9a8ac9129ced48ba45be6c31c43ff70a2b8783e800279491f282518676280055cfea84aa7e2fa79a37f0b5f130e0cae1639ec1b89cd23ab6d91ad334ebc169dfd89303dc41337472c351444dbd4ad713941a59487623b7a38a8ec3858633169461fa96f545ad15c0dc459a80a4ba447b94d2530634ed26ff3cc4a0270fcd95bea80a2fd00dc9452b9fd06d411e76150b22f75f08053bc2f14fe1775323f11e52a6951d89ab40ea6f72d04eaf37727820744081b934b0207a5f311200c84470f2b2b6a77a6eaa2483c7afbeae9570000000",
  "txid": "4ef64dfd671ce6752140dad42374648d4294394f3e98779eb2d3a8034955760b",
  "hash": "0347715886c600d59e3ad4bbad5ff1d99e33ef796859df2d94f13617a56622fc",
  "size": 5085,
  "vsize": 2278,
  "version": 1,
  "locktime": 112,
  "vin": [
    {
      "txid": "7c3477385c6ba12c75815381750c3dc7db2e6712615ea9ea88c46bf598d3c931",
      "vout": 0,
      "scriptSig": {
        "asm": "",
        "hex": ""
      },
      "txinwitness": [
        "5097304432d77fa9e7a0d10f0789847cd7efb5984dfe4bf9c3c8f5cca3fbcd4e1fc2e5cb5ce054752d6535b9390c430bb079716cba90272d8cda750fad45c069fae2cfe5e9afe244f2c58e69ac06033630e5828be668d4df2df90ebce5d699857afd0ce2cd4d8d4c7c96ba38c22dd42dc7d5f79e2fdfc02ce56e7a51131b9556d8a4205ce9c117f1c8fb844cceac5c1e2d4b81cd1a2d20789e200fc37a8c3c24ef85c430b242ff3c0180f264a74e87ef22ccef35cb0493b588f8732ccab6f3e689eaf2621d3c6be70193e39379ba583cc24a931238db051b6c7abbe122ba9269024df6e1de0ff7db58c4c00d607695a9723c59d1e76803db2e7b699bb6dc88c82b4082454a14e4386eaedab926bec5f7afa22ad8122c7d676e2d46fd1051f1dd561549385e537d92430d6ad6daec2b5d92303cc45f6f1d17d97e3327426b228183cf6516e6eb3abf78d48a2fcca3aaba01f532719fc45576691c6f36a8842d615ced254f8279874d56fc12b4c5d61bbbf3d241a73a95b6d18b455a6b4c538a91c23e517efbd1eea775d49ec7cd989e5e0fba29bf9fc20aa764ca25c56f804d8936b3fe2ecf64338b20035cc34b50a58ef2f213fe37495c6ed8a019091de9c860e913b63f14372294741f0baa5657598a74e73406f03597abb377cb99e5d3838cb6ded2aba9a77b69635212b31552f459665ae70c2e921b5f8709970435f1b2eea6706d7ada2afe3408788e49aaf5985d90d4dfb864b6b140f41bfd2287f4cfedc6f775bed5fc31683d0136835179ef315eec60aa4156a19e02de44b3bb91ee9a796b12633a47a2f5e2897c7d3aa54910707cb7d1ee30f4c6181edbcf102b69256128faf65ee76d44b46940a9f61c8db1fb1378d4e2f8f6816c42dd9950555f05e0d0afafeb00e832ef87426a7633d3ffd62d1ba6333975a6b5bf2d18f8efd33b738dc42d06d4e288f9536f2324229d784f34e71bad325f639c61be810ac86891a15ac19faef50de3dd3a82e28a7cb987678c816d7de4b170ba2f143da8a74dd3344848c187d0325c0f1456a572d27a62f3bcb3f40723a99152a839242b1c29df86003ab64214a74e161f42c1edb1fd195998f5edb92b34d4869281694fbe8bf7230e59eec5d8d4994b8e3ce3a5269a786c12d9eb1aa5b4f652848224e3fa097fe65f7fa9f63112d9c6d2ae94390978a69f2a0abff20523947abcea4c66bfbe111b66af73028365b0190e7eb8cbd667cb181a4f41ea89e32a3ec2cca5900a4067634efd8e5513b96626fe29cd9d95515d8c45a7298cb49d1223e2ae9ff0733ce47daba6c55bd897d0d1d8f128e5b3eb54a9e4f9f134e5f1fe2471c497a9768e2dc0ac5ebed869d53b709b0bfc317a97bdd83272f342c903767e49135826b079c93e1b16e81813ef9849e4bfde2219d407aefc598f239acaced78b48adc0e57306a0cf3de3195f3214a9d178b2b723f0572044075df050fe1400ebab18ac595c3bf81044631a3cb8107e917b95da06585b9d18471fc251d645b257001c5ffc57dfae4a6e17864247e338038e3184f906d33f9add4d8ddc1d6a6c050cb8104ae03c6dde75deeb539d8487943dff7dcd303ef6989735390247108f05578418168106d85d38aaedfba114ea894ca64f23ee50b753fdcdb77113f4b68df3ecd8866ecee391989bc33763b9002244ce381c7df82d6e433ecea872b2784ea00a73d23663b228e84f79b3c0e0ae4ca99ffc0012d616ecad137f7ff5183ec4ed0cc41cf8cdfdef5c12be6cd6e864cb6e4edfa6d6f7376c2fcccdb29041d30c0f0550ad8bfd23196e0be0982330f94dd706039810555f3ff77a32e9e1ae606d44a791c3b5716a688c8c73bb699337aefef8928b3971ce732bd20a515455ef8727baab1217a2a55b88642a9490e5f437bb6d800dd172ab92c3a693ef5ee6ce672f19ff4537d4e4f533a61dc3574c0157ad1a9ee87485ae0ef3f511bd7cc80155e16cc424b38f2d3bf8795ebf189d7860bfd0f15d0da36caef234536d03b1c52bda6be5bd88588eccd9c52667165e92af8ef368af0dcde47bdc56f4ef47404e0cfe1d7f0aec2b17238488b3addc621ab7d05a488ae0be068e53399e27605e53673e7032710567c1b083f17fefd22fecd8236fd567298feee3ff9a93a90748890536fcd49984d6a9d9add38e4484f7aec098d3283a9d6befb0d8eab74ea6e5632b333ea23f3e8c9c6925d81b8c14a8d7cd3ff56742f712949a702df73abd0786c0034cb5e1840782c5dd2c8e73ec1585f56668c5e91297cb9ff7f5ba9c80e3e0c0f3fad7446b7aa1dffdd66d4ad267c4a1bc75809eee41dd7ab8c2cfd97a43a11bc790fcfe310e689f44d12955c1aae40c0d2c06099af1f5c18962343063f44631e561edcd9b7fa792e96dcffb65cbefa3d242753529b42a74cdb107b0360ba1649f5a9aaf28c17e7857e0294717421c31b0b08177601422e6899ec35cbfe60d111bdfe3d185b807240889d0741e5fd2f9155b9c6c5bbc66bac91ea70e36f503824c1417af54caa7487dca59d4835014fba67757df46ebcc69524c9a74d6290f14821ab99d233070fd5579230b9c54c83d2eb3f8390b5c671aeebd427fa9b095043b5f57575aac3d6b1cbb2609f7548f57ed66e9db70a51cace76bd457733bbe2714455a405525dbc768f240a6bf9ecb2f60b7e0acbf3dcf8861815a8c20a636182a3118281a042eb2143c8d6beba24f732deaa2940a909db9438f775055f6ffd99318138b7403572dcd3b850e3b24b9a06d329dc8543cb40f7987bb5f932c108fe6f3249fa5f2cba6638b4e9ae15112cfefb3a5006a1000cd26c347ea9c687da5140440299ccbcb927a5a0fe8766ff751ada8671a964d84660c35be3c48ce28c5bfba6e8489c9249f6f3031c087b633e83b0e8aceb1a0ba73df3a257a96073c96433817e53d3b2682f862fcfd0daff63ac5ca6f1153da750f6f8d4aa6ba0e53154168ff221c06d05ae5c7e1a0a0affa19be1b7154dd9320f2131cf70d24e259862c34960ba1b062cbe5afc6bb3500fcf6a84588d69d7923028673840b9c5598c29fec35478e20eeafaf43307db5a42e76b8879513c2aa14ccc75ef9d0ac2917c1cb73556e8ab570f6a0f784fbc7926cfb1ad5930b3a02dea3975480cc8d7d2310555e7304b36e2eb3be4d476d49b2bc668b673231c40df41d2c647fa129dcee2f59915e2d31a4fe1aae7d1e265ead5af16da2999a42aa0444a0a3568f85ab335d87596f355284ec4df3a16c0e56365510602ab7fb68fc1470036fda5c06f79549c9096b2cd67f050f3843505455797e8c9294a8abb4c8cdecef0a111b3c3e585c6067a0aeb2b3bfc4caf5030c0d132c3e3f52587a8291989fa6a8bbbdf0f8fcfe051113424e5e62757bb9bfc9cddaeaf4fb000000000013243a4b01",
        "00d21528255231109b6a166c610fd2e2fe2ee1f57164f2e71a882f6e5872a1f12ead80c28b926ac271abc910853a7b463e4c9e96bb44f627fd4e6b470e4148100935617a081863a1a139ce4d556295c9428b411fc2c3b2429c2bed67761b58e06bffda8f214456561836c42c6a71c3c909e74d2553ad1b0f4b5cd9ed8bcaf26fc97a1c49aef7fe1a5a012bab506c2ff1e5d4aaf4844193690ae84b4db0619bec224a8378ea500b8ed44ca0ab4a69b2ff634c7e5818213ccf0fff25d30d546d8d13e1215285f5e1f55e52f1be62458324a039a9f5ee3a5aaabefb2114d606bd24b55c46cb769fdd2985eceaf892d1a09b05285859e70af90d87f12e593333ee41582ffeb63f10a88cafd256a19fefd6f00c549362cc0a3fb9371f9fc925eb06a7fb548cac512e4c4e866aae59d7d9ba2c3cb28f75f7fbe5cee649d31c53b9cd7db6f8d72060e6706a0d4b69b131dd7af7ad9f66e7c70178a5d5219e38c904ec4258cef61d56bac494c2be754449f5993fbd1be59eda1081358b8c338afce2862547b0f463adcdb86d99cca767e124085d3c6836bd6eb3b71856c80969e08d8f22fb8e7092aea2b8cd83b7604dde1820927abe445b6737ee08ce20db698080cc0dbd174c4f23ca8338829815ce139540c0900e64a147cbdb4d01dbcdfd094ae991765112f70fd07eb34d02774a3001b5aca564665b853f27b2e5bab0e9fce91a845effb949d51553b28d2f012b4d813ef3bd8fb6e471a9ee4598bd7dc2430642bc4b33942d50c33845be0d227d6ca89c94528172d7e22eacb510800c813537d126fc65fdf74964cbe07ce6dfddd399750c52bef24b86cdfa68492dc011cdf2e43d9ce3d4472065c4c693fa42c8e2b7a6e960eb9f6453811403b35be24bf485c7388ec2940d6b284c9e64bfc58d6975c68723c8deff50c198d480aa32b2f07cd2313cf2dfebc1a08c1fb8a5a7ec325298021a24ff279ca5be3f01380260232f35aac9f0902bcb1686115e6df94fa0319885956d60cac4f5796910036e0916add66af2f7831defdca90b16816801d64b0ba39e942be38d1c5872ec57989c18090ab76141137eabe63de99eed78ce9167f52b38f3f332dc646d473451aa3f59fbe1c6f400542322b322b5a27ac59941bd9fb237619a05bd3576d409ddc331c3a34545ab935764fffa8a64da54e530c9ac00195cb15afdf6275a8e876881c45fc1921c4bb9486c7b5eb6e5fd38d89810fb2e864c7bbc56ad6fe08d8553f2f7d7500e7e744ce7a76a43ef558629398febef66dc3c6d14fda6125443075ff3b52e02a523c10639c6a76debc306c9dcab44f799e5a96f2cfea664b423a483ef2a3671504b8171c9da7024e9b5c6d52e80ce5e8e5dc5347937525cfccf7c69da358fdfe01169991dc235c510bfe56363d17b6dca44490ee7149af13d3f75ed358e3a2bc368d4671e7dd011da1a923363a5b8ac70262b11ce1eaa5be5cab3af516c3eded98b8d03542d6ad69046ce09d6fd52fcbdc8f0a8644b53854e646bbdbf7b3f1fce5b8e5cbbf1f1d0a6af21dfc90b6dcef6d5b2025eef9a8ac9129ced48ba45be6c31c43ff70a2b8783e800279491f282518676280055cfea84aa7e2fa79a37f0b5f130e0cae1639ec1b89cd23ab6d91ad334ebc169dfd89303dc41337472c351444dbd4ad713941a59487623b7a38a8ec3858633169461fa96f545ad15c0dc459a80a4ba447b94d2530634ed26ff3cc4a0270fcd95bea80a2fd00dc9452b9fd06d411e76150b22f75f08053bc2f14fe1775323f11e52a6951d89ab40ea6f72d04eaf37727820744081b934b0207a5f311200c84470f2b2b6a77a6eaa2483c7afbeae95"
      ],
      "sequence": 4294967294
    }
  ],
  "vout": [
    {
      "value": 1.0,
      "n": 0,
      "scriptPubKey": {
        "asm": "OP_RETURN c128ef0e36405fe60b4c1377609c2260e69ed6bfe8f20360f323fae58956ab17 a0da9e7b3169743088ce129e6dce52ca5f7855c90d9823dc54f7eb38ba288bc580fabe5b11495410a8ee32be4dee72ea7f5875e92db803fc74d7cb189a08abe5e09ade3b71293470c88e52de2d8e128a1f3815894dd8639c14b7ab78fa68cb85c0bafe1b51091450e8ae72fe0dae32aa3f1835a96df843bc34978b58da48eba5205a1efbb1e9f4b0084e921eed4ed24adff8d5498d18a35cd4776bb83aa80b45007a3edb91c9d490286eb23ecd6ef26affd8f569ad38837cf4574b981a882b65601a5ebbf1a9b4f0480ed25ead0e920a9fb89509cd58e31c94372bf87ae84b05403a7e9bd18994d0682ef27e8d2eb22abf98b529ed78c33cb4170bd85ac86b25a0da9e7b3169743088ce129e6dce52ca5f7855c90d9823dc54f7eb38ba288bc580fabe5b11495410a8ee32be4dee72ea7f5875e92db803fc74d7cb189a08abe5e09ade3b71293470c88e52de2d8e128a1f3815894dd8639c14b7ab78fa68cb85c0bafe1b51091450e8ae72fe0dae32aa3f1835a96df843bc34978b58da48eba5205a1efbb1e9f4b0084e921eed4ed24adff8d5498d18a35cd4776bb83aa80b45007a3edb91c9d490286eb23ecd6ef26affd8f569ad38837cf4574b981a882b65601a5ebbf1a9b4f0480ed25ead0e920a9fb89509cd58e31c94372bf87ae84b05403a7e9bd18994d0682ef27e8d2eb22abf98b529ed78c33cb4170bd85ac86b25a0da9e7b3169743088ce129e6dce52ca5f7855c90d9823dc54f7eb38ba288bc580fabe5b11495410a8ee32be4dee72ea7f5875e92db803fc74d7cb189a08abe5e09ade3b71293470c88e52de2d8e128a1f3815894dd8639c14b7ab78fa68cb85c0bafe1b51091450e8ae72fe0dae32aa3f1835a96df843bc34978b58da48eba5205a1efbb1e9f4b0084e921eed4ed24adff8d5498d18a35cd4776bb83aa80b45007a3edb91c9d490286eb23ecd6ef26affd8f569ad38837cf4574b981a882b65601a5ebbf1a9b4f0480ed25ead0e920a9fb89509cd58e31c94372bf87ae84b05403a7e9bd18994d0682ef27e8d2eb22abf98b529ed78c33cb4170bd85ac86b25a0da9e7b3169743088ce129e6dce52ca5f7855c90d9823dc54f7eb38ba288bc580fabe5b11495410a8ee32be4dee72ea7f5875e92db803fc74d7cb189a08abe5e09ade3b71293470c88e52de2d8e128a1f3815894dd8639c14b7ab78fa68cb85c0bafe1b51091450e8ae72fe0dae32aa3f1835a96df843bc34978b58da48eba5205a1efbb1e9f4b0084e921eed4ed24adff8d5498d18a35cd4776bb83aa80b45007a3edb91c9d490286eb23ecd6ef26affd8f569ad38837cf4574b981a882b65601a5ebbf1a9b4f0480ed25ead0e920a9fb89509cd58e31c94372bf87ae84b05403a7e9bd18994d0682ef27e8d2eb22abf98b529ed78c33cb4170bd85ac86b25a0da9e7b3169743088ce129e6dce52ca5f7855c90d9823dc54f7eb38ba288bc580fabe5b11495410a8ee32be4dee72ea7f5875e92db803fc74d7cb189a08abe5e09ade3b71293470c88e52de2d8e128a1f3815894dd8639c14b7ab78fa68cb85c0bafe1b51091450e8ae72fe0dae32aa3f1835a96df843bc34978b58da48eba5205a1efbb1e9f4b0084e921eed4ed24a80f00036e650a63fbe8b5300827d9d27122e6750199685ef5c225459029a2f3a",
        "hex": "6a20c128ef0e36405fe60b4c1377609c2260e69ed6bfe8f20360f323fae58956ab174db004a0da9e7b3169743088ce129e6dce52ca5f7855c90d9823dc54f7eb38ba288bc580fabe5b11495410a8ee32be4dee72ea7f5875e92db803fc74d7cb189a08abe5e09ade3b71293470c88e52de2d8e128a1f3815894dd8639c14b7ab78fa68cb85c0bafe1b51091450e8ae72fe0dae32aa3f1835a96df843bc34978b58da48eba5205a1efbb1e9f4b0084e921eed4ed24adff8d5498d18a35cd4776bb83aa80b45007a3edb91c9d490286eb23ecd6ef26affd8f569ad38837cf4574b981a882b65601a5ebbf1a9b4f0480ed25ead0e920a9fb89509cd58e31c94372bf87ae84b05403a7e9bd18994d0682ef27e8d2eb22abf98b529ed78c33cb4170bd85ac86b25a0da9e7b3169743088ce129e6dce52ca5f7855c90d9823dc54f7eb38ba288bc580fabe5b11495410a8ee32be4dee72ea7f5875e92db803fc74d7cb189a08abe5e09ade3b71293470c88e52de2d8e128a1f3815894dd8639c14b7ab78fa68cb85c0bafe1b51091450e8ae72fe0dae32aa3f1835a96df843bc34978b58da48eba5205a1efbb1e9f4b0084e921eed4ed24adff8d5498d18a35cd4776bb83aa80b45007a3edb91c9d490286eb23ecd6ef26affd8f569ad38837cf4574b981a882b65601a5ebbf1a9b4f0480ed25ead0e920a9fb89509cd58e31c94372bf87ae84b05403a7e9bd18994d0682ef27e8d2eb22abf98b529ed78c33cb4170bd85ac86b25a0da9e7b3169743088ce129e6dce52ca5f7855c90d9823dc54f7eb38ba288bc580fabe5b11495410a8ee32be4dee72ea7f5875e92db803fc74d7cb189a08abe5e09ade3b71293470c88e52de2d8e128a1f3815894dd8639c14b7ab78fa68cb85c0bafe1b51091450e8ae72fe0dae32aa3f1835a96df843bc34978b58da48eba5205a1efbb1e9f4b0084e921eed4ed24adff8d5498d18a35cd4776bb83aa80b45007a3edb91c9d490286eb23ecd6ef26affd8f569ad38837cf4574b981a882b65601a5ebbf1a9b4f0480ed25ead0e920a9fb89509cd58e31c94372bf87ae84b05403a7e9bd18994d0682ef27e8d2eb22abf98b529ed78c33cb4170bd85ac86b25a0da9e7b3169743088ce129e6dce52ca5f7855c90d9823dc54f7eb38ba288bc580fabe5b11495410a8ee32be4dee72ea7f5875e92db803fc74d7cb189a08abe5e09ade3b71293470c88e52de2d8e128a1f3815894dd8639c14b7ab78fa68cb85c0bafe1b51091450e8ae72fe0dae32aa3f1835a96df843bc34978b58da48eba5205a1efbb1e9f4b0084e921eed4ed24adff8d5498d18a35cd4776bb83aa80b45007a3edb91c9d490286eb23ecd6ef26affd8f569ad38837cf4574b981a882b65601a5ebbf1a9b4f0480ed25ead0e920a9fb89509cd58e31c94372bf87ae84b05403a7e9bd18994d0682ef27e8d2eb22abf98b529ed78c33cb4170bd85ac86b25a0da9e7b3169743088ce129e6dce52ca5f7855c90d9823dc54f7eb38ba288bc580fabe5b11495410a8ee32be4dee72ea7f5875e92db803fc74d7cb189a08abe5e09ade3b71293470c88e52de2d8e128a1f3815894dd8639c14b7ab78fa68cb85c0bafe1b51091450e8ae72fe0dae32aa3f1835a96df843bc34978b58da48eba5205a1efbb1e9f4b0084e921eed4ed24a80f00036e650a63fbe8b5300827d9d27122e6750199685ef5c225459029a2f3a",
        "type": "nulldata"
      }
    },
    {
      "value": 499985.7634,
      "n": 1,
      "scriptPubKey": {
        "asm": "1 91d695c037fc1f95f0498bc0964f5cd139965ac6366a57425cbcf4eae52fa160",
        "hex": "512091d695c037fc1f95f0498bc0964f5cd139965ac6366a57425cbcf4eae52fa160",
        "reqSigs": 1,
        "type": "witness_v1_scripthash",
        "addresses": [
          "3QJmnh"
        ]
      }
    }
  ],
  "blockhash": "0588000bb82f4b14ca9e4626330a5c84a7bb9e1c31fd2ade5c3732d80cc4fd85",
  "confirmations": 1,
  "time": 1764178356,
  "blocktime": 1764178356
}