{
  "hex": "010000000001018a764ce40ec8219f4b4c73c5fa34434a17bfe124478f047edb050804dc998ecc0100000000feffffff024021813f792d00002251200c4ac5984a6e80616180859d6b6ae7b575d1b5512be4c87b04541ad9dd67e05200e1f50500000000fdd5046a209ab25179371ed8241170ae50235bccca1550fad48fd8e573048a246650f23c594db00447810f66fbfcffbbef5c9e46aa4b54da5457d66abb2b7c5a21a7e0adf3e93fb067a12f46dbdcdf9bcf7cbe668a6b74fa7477f64a9b0b5c7a0187c08dd3c91f9007c14f26bbbcbffbaf1cde06ea0b149a1417962afb6b3c1a61e7a0edb3a97ff027e16f069b9c9fdb8f3cfe26ca2b34ba3437b60adb4b1c3a41c780cd93895fd0c7018fe67b7c7f3b6fdc1ec62acbd45ad4d756ea3babfcdaa127602d7369bf30e721afc65b5c5f1b4ffc3ee60aebf47af4f776ca1b8bdcfa8107400d53499f108741cfa63b3c3f7b2f9c5e866a8b941a949716aa7bebbc9ae167206d3329ff70a761ef861b1c1f5b0fbc7ea64aabb43ab4b7368a5bcb9cbac147004d1309df5047810f66fbfcffbbef5c9e46aa4b54da5457d66abb2b7c5a21a7e0adf3e93fb067a12f46dbdcdf9bcf7cbe668a6b74fa7477f64a9b0b5c7a0187c08dd3c91f9007c14f26bbbcbffbaf1cde06ea0b149a1417962afb6b3c1a61e7a0edb3a97ff027e16f069b9c9fdb8f3cfe26ca2b34ba3437b60adb4b1c3a41c780cd93895fd0c7018fe67b7c7f3b6fdc1ec62acbd45ad4d756ea3babfcdaa127602d7369bf30e721afc65b5c5f1b4ffc3ee60aebf47af4f776ca1b8bdcfa8107400d53499f108741cfa63b3c3f7b2f9c5e866a8b941a949716aa7bebbc9ae167206d3329ff70a761ef861b1c1f5b0fbc7ea64aabb43ab4b7368a5bcb9cbac147004d1309df5047810f66fbfcffbbef5c9e46aa4b54da5457d66abb2b7c5a21a7e0adf3e93fb067a12f46dbdcdf9bcf7cbe668a6b74fa7477f64a9b0b5c7a0187c08dd3c91f9007c14f26bbbcbffbaf1cde06ea0b149a1417962afb6b3c1a61e7a0edb3a97ff027e16f069b9c9fdb8f3cfe26ca2b34ba3437b60adb4b1c3a41c780cd93895fd0c7018fe67b7c7f3b6fdc1ec62acbd45ad4d756ea3babfcdaa127602d7369bf30e721afc65b5c5f1b4ffc3ee60aebf47af4f776ca1b8bdcfa8107400d53499f108741cfa63b3c3f7b2f9c5e866a8b941a949716aa7bebbc9ae167206d3329ff70a761ef861b1c1f5b0fbc7ea64aabb43ab4b7368a5bcb9cbac147004d1309df5047810f66fbfcffbbef5c9e46aa4b54da5457d66abb2b7c5a21a7e0adf3e93fb067a12f46dbdcdf9bcf7cbe668a6b74fa7477f64a9b0b5c7a0187c08dd3c91f9007c14f26bbbcbffbaf1cde06ea0b149a1417962afb6b3c1a61e7a0edb3a97ff027e16f069b9c9fdb8f3cfe26ca2b34ba3437b60adb4b1c3a41c780cd93895fd0c7018fe67b7c7f3b6fdc1ec62acbd45ad4d756ea3babfcdaa127602d7369bf30e721afc65b5c5f1b4ffc3ee60aebf47af4f776ca1b8bdcfa8107400d53499f108741cfa63b3c3f7b2f9c5e866a8b941a949716aa7bebbc9ae167206d3329ff70a761ef861b1c1f5b0fbc7ea64aabb43ab4b7368a5bcb9cbac147004d1309df5047810f66fbfcffbbef5c9e46aa4b54da5457d66abb2b7c5a21a7e0adf3e93fb067a12f46dbdcdf9bcf7cbe668a6b74fa7477f64a9b0b5c7a0187c08dd3c91f9007c14f26bbbcbffbaf1cde06ea0b149a1417962afb6b3c1a61e7a0edb3a97ff027e16f069b9c9fdb8f3cfe26ca2b34ba3437b60adb4b1c3a41c780cd93895fd0c7018fe67b7c7f3b6fdc1ec62acbd45aa5ed016403e18733718a676033aeba3a4c7db5501e1a14f491c0faf91e67121a02fd75090af1ac6c03a6bcdcd4cb3d353101efaa0f9f707fd652e5879eb2c5f4d96976225428dce0db9c8eb529f62bd54f4ed8f6d4ab32d5102eef921189858e789a4c478e17be567408609fc8f40f434fd7fdb50e1b2bd02cefca9b273ddfef35b0a94171330f1ea7ff44a7913b4618cc48bb7742949dfc9ed99cbb516c85821b0a673bea43d76be498f53051f0ef7a9d94e2c4ce1e4b75e021298a0fe765c2cf7c43d65f1a2c0333a9c2be89325a840bb1225edddca0f227ef2ef46c79feab1b95f29746716f90c3604932951ba52982410b883efca3328512244962690c881fc4b40d0169f37f9cfc39b541566179c3d4e40384fa35fe274a8888cf358af9bd095701ccc06dcea6c2e30fbcdb0c1b26c22789555f93acdfee80f78853e2dd27cde8e668c5e48c3d10b10efea448154ba16c24224376eb50ef7c08988da4aee7b0ee77a01e6aacc37139105f9ec2f0694fc66492a67d95017534d7857d1d29d7fb98334129370c34ace317e38f25136eb20252ce6f122e68a70412af17f84d7077b5ca58a9ef22b5850ecdbf4674877def9a79ae4ef0673cb5b373a8c2e51908d4a6dead19643123be34d4ef6aff644a3cfe7824d42580d4e9752052299fa46b9dce9f401f2f5e08ededf882e4344b8273edd2e85c1f189176074057ee093dc9ef9eb3911a68654efb34649545f69293cb0a77f978ab9d2ad84d1eb79a801138ea7fe928dace3bbf0194c3b31c94e95667748aa7ad282c34c334b4d5e0bd152367de1612bd4628e61d6f37e4615a7bb724a4c4dadb2c23aa4330be2c68d98a53e6dfd67735fc28284bd0ed1d264baa6a61379090d3bfcfef5338f0b4286136e5bd2ee8cbd6b17235b488de945e35a9d46b8be48a3cf9f05c92749adcb0db9a07a8c74fad42b8c38b6a9eaa208277e91bd959c8b155ff90c313c1ca1aee7fd987cbaa08f84aaecc8e70d9207f9ed1a42b69ecbe1844492ce76e19a1f1d5419ed5c7b07403e6d04ed33ae1c5b767a8d85883cf6f790c68e1efc7120b8799d091d4a9c1e0ed173e6c74485b7fb292ec44a65422b11740d0f0d2cc05bf0f3bb70f4dd3af66eab9cf39d69a7031680c612dd4981968c6930e39a99ef5a286d419dfcb1f20635ac79e0c96ef4afd9aaea4753abeee2c14e07aab65f10e5b231c7a6ab3d14685fa3f08ad6ce9ded27e54632b9320b88f4da3c24f53272daaea67ae214095755a0a36250bf909132fcbe3dbe8bfab746c6df093a6accc995b7ffce1fe9e23a2734d93cd345ab94861fbe5e361e72a8cd95d66edbdb1a3b0a18fc0eb8ff0503962e1da54ef1aef3259e0a596ce6826f495ef3df23a405ca469dbd0502c02c0579ea068664799451fb66b83f81f7c63745421d7d60f3aac6b387b39d3c43e5f0bdbfcb7ad0e1ddd3a71f03eb6fd1ef191734be7f5d5a74d97cbc26fe141bc4abb17b7651d96919979a866e59fa8d22b61755023deca9e7129def6d899a2dea8a59f09616d8e7e2d46cb7413ee9fa184b217af6ad7547502e8b91ae63596a77bc51a1fc6aede178e8e29c8bffe0a3a9d367ed8f2b514a427a5e641ba14c7e20da4fd8a9e5d3c21c8e58c259003808269e4919532f382b7335d7b09a1ddb232c6050c206a71bf6d32636777066bbf45dd7ba251aef64a23c251292a919bb4742261d04229ac0b7ed03a40929482e61f84b9c3e7024638dfdd0f35f03f762c62b02f4170504fbd8a6e7d587172a2bfc2827a53fdd6acb72ef77939468ae77db88935728bce233299698a1548bc52aff3e8c7c56d79511e2fd6576c68c08f4f58714e29525d7ad16b963bca548af0e659ca1af585bdec5b4c17e277e38530d2a3dc754fa7fde7e6942489007ec2cd9cd833a7b7d08f3045ab647627b32d3ade72923224a3ee25c02f81e525f4d12518d67ad64023844ff3b8a76729514099fbe95ca83e1fe36a1ce5f6351780b1ed08da12497404feac3351655903c4c7d8ea19acd3b89bda4c83a44361f487d0eb23d47535a6afc8c2f3cbbd4b62d0f7cf3c3e2ea6983ddf8376ade8f8d85ee3f0e829a5cd74d7822e7a10df809d3e28dc1bd33072eff38886daced03a5110d0e9e3f0af0fc01f378897ce82d8ad54ddffd3a3dce07087c31bbafdda62d2ca0d149ead620abb975bfb72ee9d76bc04a7b2495b852addf17986349cfd56a6435d656e85c982b7935a75bbbfd8954946a5b44bc88b66bc8af86a366df018e958008c9a37198352f9cbe0913bc5b6ebe135dcd505c3e7b3c59dbf0adfd59feb89b1946a44a5e8059c7d9810b691dde379223fdeddb816f38c3230b7b97d8d4880f05c1afb1e69e76220aab37d68cbf2a794e7b248f0852e6729eb689faf4fbffd62c6ba51e34a8dcead77ac4911340beb3f68ff4cd35183d98b784b08bfd4062b2b16751da1926f3c0a02f0ce1c71a480f5da014e3eb4b00a0533b80998bbbfa0479a9e0570bea5e146a26cfc245434073bfcfce0899476a8f76af9aea9c7c5e6c002c832fdd54497de4eaa9ed6a36563496b6f9fef45379257f10c5356a3c86bdb70807eedfeb0d5754119c224e9a2aff4eaf64d29ac2637ddd51c937042b6758c3c36ddf3a21a263ee8c13aab3171b043526fed957bcb5d2e99a16610276644bb7feae43e89d724ba0dc86b5364d364a60ba6d0e2cc3db4e99f16a01c2991c46c4f4b083fe47c23e1709650c102bfc28e91bae89e2ab399c1ec3e10c0d49c980fc64de4b6ce3690f0772a2cf8307ce98491631259f5ab55b2f58c0d0f2e63d85e2f6afee5c335f14ee33a68b36516179a373ff6f0cc47a10b5c9cadbf1be238986b1e91000554c7f86eaa0a23c21f9e8ce41d021415b3c87984d57c1066c183d56f9ca110b731527b78c16197baea27ab1bc18f3ffdc8ad2da8248c56d28a73148498e2ad499ceb90168b8ff2bd750d8c5d1bdb24f207e3159ca1005d5b4f24e0adefae4360cfa8673b5842cc2cc47ab1d6afdd5e206b144446ae658bb5f65eb2fb32f380c2c11a3ee46637abd070cfe5a917246f633aa640b40f9c7813ec7325d319291750b9420ebafb911ba14b5b144bfb74ace211ab004c6d7efc210228e6ac62fa589bfd0de59ea5441dc086955852ef48c2e074621d5764dfc2e4445c5ced18f3f11a05f959467cd80df126d927b24bd88ed24af651b4eb6f8e3dc3e9ec5fbd024e0b8987564e4329f44836e02211ad6492c4cd5372f78ee3b47cd096da210b01400b771a257d1aef816b27e112f0d1e7bee8881ef3090d7f0742cff348894f5bb9561f8c6cd236b85dda65441cefdf05b9f74c0f1075788da6a7aacd0c2d36484b64677e878ca4b4ccd0d4dfe622262b33377a9ba0d4ddf2fc004346545e6c8a979ba5abc4cfe6f0f20000000000000000000000000000000000000000000000000000091a263601fd2105002731f1d9e33b59649ecb0dd97fb24275ca6fa0c79a9c73f8fcc9e20d9d10d1133ef1c878d2b7bdf2fbb56ea87debc36473312d20844a1673cfc76059499da304e6428f2cea8b63abbb19cc4b1a4c3d8783cfc440d338e19cd9b8e12e1e16a9237b64f7a7bd5a94accdfbb0b6ac9d920e159ebfd19be98842f44598e5eb40936b79cc1d743389a26a995479ff0094601337092c9dd62d8d858c805f669cc3c0d892df992e11d7d8ccd95671a22938a2060d810894a072bc16a933523552ab57ec274ed8da270d7756c3cabfacaa4080466b3e7f45f35beae0fec8be898d8ad04a9a6a2a6944e885e98fa619d9bf91e0f2746a223bbaa4b5ca095782949761d146cdc58b4e0812dbc8b8c4507c84145a817c31e0a2b54baa5bab15ae974c7521a61fc1e01ac7d152528575fc3aff4028d1c1dc2680a6ea09fb525a77032b7de576d3ff47c52bfe8b5c876136aea8625d35b85de5ca0f982968c2b0cb95c5ce5130ace57652a631a5e5b461f5fbd39d734c356d230488344c371bc17567a3978733c3ec75f541df2b5cb694656d20b272e9a4a6eb250ce284d7e3387f7587edce040cfccc2039aed7cd21d30ba280228ef775eb9a2a51b9475369960015cf65f3edccb447cb08ef1461a7bd7ea5b675cd0922f4b3a361031e254c911875d1f248331a63f059495127ec1508175d22190bc7d26245f6de28fa1d7dea175e0976f2170241df7773d723c3d93c43b87d29659e45546af9ea090cb5d3d5d422718896e8615fdeda10a99753fe5d29a54147725cb13aa9abf6c6d6a82adad118eb8c39fe82be3c7bfe308e73cd1c182bc3901d0f35a065a9bdc6289e903d9c8a99daf736722e0bd2db765f814d3be456853ef3e2e495813183e8de7e4bacfb3badabc00b45304db33e33d55e5c3501ad65c750470c7be2018d7d301ae5aba863ebd8da4816eca9011062c2b49135125ce2279175ee2a460551641a2a72ec85d87c17f90105ac9fe7552383cf97b4c22a10b63e2238197d4122386d6c52269e80dce42d12aa363dbc85234c8d2548356504ceac33323ec39886b3539b846b89f130f3304caf7f65fe27e707d2a5e7d03963375d475beb3ec3a4615b335c63d94095aed4bb6d5a11e2cc25637085fdaacb42427533132f1f7044066a509839bc0c500d94beefd7dafcedfc96bfc5dc30afcee9e961038b968862f65130a6fb76f194b9888506d1fc774497152f617bb6027f0ae534b52916349d8c9a644147ecede5d27bbac4412b77c050d7bce37d2fa4293faeda0aabc134bfccffe22d797bd97d5325d45f9a9488cf0858487a2eb47f51cbd63be32dc83f720602446631f6bf6d0d5ed11566138a01adefcf00b1aaa9677241a01085011f490d8783b0a221a246bfc316be56bd8c4746247608f77f8f5b3a0ae45628c74679d47afcb652f29ec302a277268595c4ae55fd00529a35f22e468e26778157c83c928cfb4005b243a9bc7c04bf3984e8318227e4f86b62a6b82ab5f52e46cf4fc2c6b48e02236dfd8038b9f51e25acd846cf7ceec32d18d2f56af310415edfb0ca35cdebdb79658c1edffe0b34ca3f43a43b319feffcd14f27689c4b94f8fc26c5a1aa5b1c338f824d9e01869a7fdd4954747c7d646124ef43c8ed447f5bf064d436a1d8d0ff6090423d466ad3b571e292133ce901ed8d3149a4f9e855cf6a777edbcef1fe45dac0d26eafe5f04ad308118122f415da8a8bfb2f33ec31a4afa735d7df4bb62b5f6d5c68f570c8e46513c5927ac14e1981601920c0af4f835867790e765f4d28a3a25b5a71b110ac8cdd7b13d8ca8f7c7f07ba90ed6c899c756caaf2f80ae48f04cd1285c6c36e000000",
  "txid": "4eb77ab7f9572ff06a12f6d409bb18cd0eec3a748d676d46da9c3181fe5cdf7c",
  "hash": "cf5749886f509dac53ab15d0f63ba161f6747e90f21f6995c42adf236f9fe426",
  "size": 5085,
  "vsize": 2278,
  "version": 1,
  "locktime": 110,
  "vin": [
    {
      "txid": "cc8e99dc040805db7e048f4724e1bf174a4334fac5734c4b9f21c80ee44c768a",
      "vout": 1,
      "scriptSig": {
        "asm": "",
        "hex": ""
      },
      "txinwitness": [
        "0af1ac6c03a6bcdcd4cb3d353101efaa0f9f707fd652e5879eb2c5f4d96976225428dce0db9c8eb529f62bd54f4ed8f6d4ab32d5102eef921189858e789a4c478e17be567408609fc8f40f434fd7fdb50e1b2bd02cefca9b273ddfef35b0a94171330f1ea7ff44a7913b4618cc48bb7742949dfc9ed99cbb516c85821b0a673bea43d76be498f53051f0ef7a9d94e2c4ce1e4b75e021298a0fe765c2cf7c43d65f1a2c0333a9c2be89325a840bb1225edddca0f227ef2ef46c79feab1b95f29746716f90c3604932951ba52982410b883efca3328512244962690c881fc4b40d0169f37f9cfc39b541566179c3d4e40384fa35fe274a8888cf358af9bd095701ccc06dcea6c2e30fbcdb0c1b26c22789555f93acdfee80f78853e2dd27cde8e668c5e48c3d10b10efea448154ba16c24224376eb50ef7c08988da4aee7b0ee77a01e6aacc37139105f9ec2f0694fc66492a67d95017534d7857d1d29d7fb98334129370c34ace317e38f25136eb20252ce6f122e68a70412af17f84d7077b5ca58a9ef22b5850ecdbf4674877def9a79ae4ef0673cb5b373a8c2e51908d4a6dead19643123be34d4ef6aff644a3cfe7824d42580d4e9752052299fa46b9dce9f401f2f5e08ededf882e4344b8273edd2e85c1f189176074057ee093dc9ef9eb3911a68654efb34649545f69293cb0a77f978ab9d2ad84d1eb79a801138ea7fe928dace3bbf0194c3b31c94e95667748aa7ad282c34c334b4d5e0bd152367de1612bd4628e61d6f37e4615a7bb724a4c4dadb2c23aa4330be2c68d98a53e6dfd67735fc28284bd0ed1d264baa6a61379090d3bfcfef5338f0b4286136e5bd2ee8cbd6b17235b488de945e35a9d46b8be48a3cf9f05c92749adcb0db9a07a8c74fad42b8c38b6a9eaa208277e91bd959c8b155ff90c313c1ca1aee7fd987cbaa08f84aaecc8e70d9207f9ed1a42b69ecbe1844492ce76e19a1f1d5419ed5c7b07403e6d04ed33ae1c5b767a8d85883cf6f790c68e1efc7120b8799d091d4a9c1e0ed173e6c74485b7fb292ec44a65422b11740d0f0d2cc05bf0f3bb70f4dd3af66eab9cf39d69a7031680c612dd4981968c6930e39a99ef5a286d419dfcb1f20635ac79e0c96ef4afd9aaea4753abeee2c14e07aab65f10e5b231c7a6ab3d14685fa3f08ad6ce9ded27e54632b9320b88f4da3c24f53272daaea67ae214095755a0a36250bf909132fcbe3dbe8bfab746c6df093a6accc995b7ffce1fe9e23a2734d93cd345ab94861fbe5e361e72a8cd95d66edbdb1a3b0a18fc0eb8ff0503962e1da54ef1aef3259e0a596ce6826f495ef3df23a405ca469dbd0502c02c0579ea068664799451fb66b83f81f7c63745421d7d60f3aac6b387b39d3c43e5f0bdbfcb7ad0e1ddd3a71f03eb6fd1ef191734be7f5d5a74d97cbc26fe141bc4abb17b7651d96919979a866e59fa8d22b61755023deca9e7129def6d899a2dea8a59f09616d8e7e2d46cb7413ee9fa184b217af6ad7547502e8b91ae63596a77bc51a1fc6aede178e8e29c8bffe0a3a9d367ed8f2b514a427a5e641ba14c7e20da4fd8a9e5d3c21c8e58c259003808269e4919532f382b7335d7b09a1ddb232c6050c206a71bf6d32636777066bbf45dd7ba251aef64a23c251292a919bb4742261d04229ac0b7ed03a40929482e61f84b9c3e7024638dfdd0f35f03f762c62b02f4170504fbd8a6e7d587172a2bfc2827a53fdd6acb72ef77939468ae77db88935728bce233299698a1548bc52aff3e8c7c56d79511e2fd6576c68c08f4f58714e29525d7ad16b963bca548af0e659ca1af585bdec5b4c17e277e38530d2a3dc754fa7fde7e6942489007ec2cd9cd833a7b7d08f3045ab647627b32d3ade72923224a3ee25c02f81e525f4d12518d67ad64023844ff3b8a76729514099fbe95ca83e1fe36a1ce5f6351780b1ed08da12497404feac3351655903c4c7d8ea19acd3b89bda4c83a44361f487d0eb23d47535a6afc8c2f3cbbd4b62d0f7cf3c3e2ea6983ddf8376ade8f8d85ee3f0e829a5cd74d7822e7a10df809d3e28dc1bd33072eff38886daced03a5110d0e9e3f0af0fc01f378897ce82d8ad54ddffd3a3dce07087c31bbafdda62d2ca0d149ead620abb975bfb72ee9d76bc04a7b2495b852addf17986349cfd56a6435d656e85c982b7935a75bbbfd8954946a5b44bc88b66bc8af86a366df018e958008c9a37198352f9cbe0913bc5b6ebe135dcd505c3e7b3c59dbf0adfd59feb89b1946a44a5e8059c7d9810b691dde379223fdeddb816f38c3230b7b97d8d4880f05c1afb1e69e76220aab37d68cbf2a794e7b248f0852e6729eb689faf4fbffd62c6ba51e34a8dcead77ac4911340beb3f68ff4cd35183d98b784b08bfd4062b2b16751da1926f3c0a02f0ce1c71a480f5da014e3eb4b00a0533b80998bbbfa0479a9e0570bea5e146a26cfc245434073bfcfce0899476a8f76af9aea9c7c5e6c002c832fdd54497de4eaa9ed6a36563496b6f9fef45379257f10c5356a3c86bdb70807eedfeb0d5754119c224e9a2aff4eaf64d29ac2637ddd51c937042b6758c3c36ddf3a21a263ee8c13aab3171b043526fed957bcb5d2e99a16610276644bb7feae43e89d724ba0dc86b5364d364a60ba6d0e2cc3db4e99f16a01c2991c46c4f4b083fe47c23e1709650c102bfc28e91bae89e2ab399c1ec3e10c0d49c980fc64de4b6ce3690f0772a2cf8307ce98491631259f5ab55b2f58c0d0f2e63d85e2f6afee5c335f14ee33a68b36516179a373ff6f0cc47a10b5c9cadbf1be238986b1e91000554c7f86eaa0a23c21f9e8ce41d021415b3c87984d57c1066c183d56f9ca110b731527b78c16197baea27ab1bc18f3ffdc8ad2da8248c56d28a73148498e2ad499ceb90168b8ff2bd750d8c5d1bdb24f207e3159ca1005d5b4f24e0adefae4360cfa8673b5842cc2cc47ab1d6afdd5e206b144446ae658bb5f65eb2fb32f380c2c11a3ee46637abd070cfe5a917246f633aa640b40f9c7813ec7325d319291750b9420ebafb911ba14b5b144bfb74ace211ab004c6d7efc210228e6ac62fa589bfd0de59ea5441dc086955852ef48c2e074621d5764dfc2e4445c5ced18f3f11a05f959467cd80df126d927b24bd88ed24af651b4eb6f8e3dc3e9ec5fbd024e0b8987564e4329f44836e02211ad6492c4cd5372f78ee3b47cd096da210b01400b771a257d1aef816b27e112f0d1e7bee8881ef3090d7f0742cff348894f5bb9561f8c6cd236b85dda65441cefdf05b9f74c0f1075788da6a7aacd0c2d36484b64677e878ca4b4ccd0d4dfe622262b33377a9ba0d4ddf2fc004346545e6c8a979ba5abc4cfe6f0f20000000000000000000000000000000000000000000000000000091a263601",
        "002731f1d9e33b59649ecb0dd97fb24275ca6fa0c79a9c73f8fcc9e20d9d10d1133ef1c878d2b7bdf2fbb56ea87debc36473312d20844a1673cfc76059499da304e6428f2cea8b63abbb19cc4b1a4c3d8783cfc440d338e19cd9b8e12e1e16a9237b64f7a7bd5a94accdfbb0b6ac9d920e159ebfd19be98842f44598e5eb40936b79cc1d743389a26a995479ff0094601337092c9dd62d8d858c805f669cc3c0d892df992e11d7d8ccd95671a22938a2060d810894a072bc16a933523552ab57ec274ed8da270d7756c3cabfacaa4080466b3e7f45f35beae0fec8be898d8ad04a9a6a2a6944e885e98fa619d9bf91e0f2746a223bbaa4b5ca095782949761d146cdc58b4e0812dbc8b8c4507c84145a817c31e0a2b54baa5bab15ae974c7521a61fc1e01ac7d152528575fc3aff4028d1c1dc2680a6ea09fb525a77032b7de576d3ff47c52bfe8b5c876136aea8625d35b85de5ca0f982968c2b0cb95c5ce5130ace57652a631a5e5b461f5fbd39d734c356d230488344c371bc17567a3978733c3ec75f541df2b5cb694656d20b272e9a4a6eb250ce284d7e3387f7587edce040cfccc2039aed7cd21d30ba280228ef775eb9a2a51b9475369960015cf65f3edccb447cb08ef1461a7bd7ea5b675cd0922f4b3a361031e254c911875d1f248331a63f059495127ec1508175d22190bc7d26245f6de28fa1d7dea175e0976f2170241df7773d723c3d93c43b87d29659e45546af9ea090cb5d3d5d422718896e8615fdeda10a99753fe5d29a54147725cb13aa9abf6c6d6a82adad118eb8c39fe82be3c7bfe308e73cd1c182bc3901d0f35a065a9bdc6289e903d9c8a99daf736722e0bd2db765f814d3be456853ef3e2e495813183e8de7e4bacfb3badabc00b45304db33e33d55e5c3501ad65c750470c7be2018d7d301ae5aba863ebd8da4816eca9011062c2b49135125ce2279175ee2a460551641a2a72ec85d87c17f90105ac9fe7552383cf97b4c22a10b63e2238197d4122386d6c52269e80dce42d12aa363dbc85234c8d2548356504ceac33323ec39886b3539b846b89f130f3304caf7f65fe27e707d2a5e7d03963375d475beb3ec3a4615b335c63d94095aed4bb6d5a11e2cc25637085fdaacb42427533132f1f7044066a509839bc0c500d94beefd7dafcedfc96bfc5dc30afcee9e961038b968862f65130a6fb76f194b9888506d1fc774497152f617bb6027f0ae534b52916349d8c9a644147ecede5d27bbac4412b77c050d7bce37d2fa4293faeda0aabc134bfccffe22d797bd97d5325d45f9a9488cf0858487a2eb47f51cbd63be32dc83f720602446631f6bf6d0d5ed11566138a01adefcf00b1aaa9677241a01085011f490d8783b0a221a246bfc316be56bd8c4746247608f77f8f5b3a0ae45628c74679d47afcb652f29ec302a277268595c4ae55fd00529a35f22e468e26778157c83c928cfb4005b243a9bc7c04bf3984e8318227e4f86b62a6b82ab5f52e46cf4fc2c6b48e02236dfd8038b9f51e25acd846cf7ceec32d18d2f56af310415edfb0ca35cdebdb79658c1edffe0b34ca3f43a43b319feffcd14f27689c4b94f8fc26c5a1aa5b1c338f824d9e01869a7fdd4954747c7d646124ef43c8ed447f5bf064d436a1d8d0ff6090423d466ad3b571e292133ce901ed8d3149a4f9e855cf6a777edbcef1fe45dac0d26eafe5f04ad308118122f415da8a8bfb2f33ec31a4afa735d7df4bb62b5f6d5c68f570c8e46513c5927ac14e1981601920c0af4f835867790e765f4d28a3a25b5a71b110ac8cdd7b13d8ca8f7c7f07ba90ed6c899c756caaf2f80ae48f04cd1285c6c3"
      ],
      "sequence": 4294967294
    }
  ],
  "vout": [
    {
      "value": 499987.7972,
      "n": 0,
      "scriptPubKey": {
        "asm": "1 0c4ac5984a6e80616180859d6b6ae7b575d1b5512be4c87b04541ad9dd67e052",
        "hex": "51200c4ac5984a6e80616180859d6b6ae7b575d1b5512be4c87b04541ad9dd67e052",
        "reqSigs": 1,
        "type": "witness_v1_scripthash",
        "addresses": [
          "3QJmnh"
        ]
      }
    },
    {
      "value": 1.0,
      "n": 1,
      "scriptPubKey": {
        "asm": "OP_RETURN 9ab25179371ed8241170ae50235bccca1550fad48fd8e573048a246650f23c59 47810f66fbfcffbbef5c9e46aa4b54da5457d66abb2b7c5a21a7e0adf3e93fb067a12f46dbdcdf9bcf7cbe668a6b74fa7477f64a9b0b5c7a0187c08dd3c91f9007c14f26bbbcbffbaf1cde06ea0b149a1417962afb6b3c1a61e7a0edb3a97ff027e16f069b9c9fdb8f3cfe26ca2b34ba3437b60adb4b1c3a41c780cd93895fd0c7018fe67b7c7f3b6fdc1ec62acbd45ad4d756ea3babfcdaa127602d7369bf30e721afc65b5c5f1b4ffc3ee60aebf47af4f776ca1b8bdcfa8107400d53499f108741cfa63b3c3f7b2f9c5e866a8b941a949716aa7bebbc9ae167206d3329ff70a761ef861b1c1f5b0fbc7ea64aabb43ab4b7368a5bcb9cbac147004d1309df5047810f66fbfcffbbef5c9e46aa4b54da5457d66abb2b7c5a21a7e0adf3e93fb067a12f46dbdcdf9bcf7cbe668a6b74fa7477f64a9b0b5c7a0187c08dd3c91f9007c14f26bbbcbffbaf1cde06ea0b149a1417962afb6b3c1a61e7a0edb3a97ff027e16f069b9c9fdb8f3cfe26ca2b34ba3437b60adb4b1c3a41c780cd93895fd0c7018fe67b7c7f3b6fdc1ec62acbd45ad4d756ea3babfcdaa127602d7369bf30e721afc65b5c5f1b4ffc3ee60aebf47af4f776ca1b8bdcfa8107400d53499f108741cfa63b3c3f7b2f9c5e866a8b941a949716aa7bebbc9ae167206d3329ff70a761ef861b1c1f5b0fbc7ea64aabb43ab4b7368a5bcb9cbac147004d1309df5047810f66fbfcffbbef5c9e46aa4b54da5457d66abb2b7c5a21a7e0adf3e93fb067a12f46dbdcdf9bcf7cbe668a6b74fa7477f64a9b0b5c7a0187c08dd3c91f9007c14f26bbbcbffbaf1cde06ea0b149a1417962afb6b3c1a61e7a0edb3a97ff027e16f069b9c9fdb8f3cfe26ca2b34ba3437b60adb4b1c3a41c780cd93895fd0c7018fe67b7c7f3b6fdc1ec62acbd45ad4d756ea3babfcdaa127602d7369bf30e721afc65b5c5f1b4ffc3ee60aebf47af4f776ca1b8bdcfa8107400d53499f108741cfa63b3c3f7b2f9c5e866a8b941a949716aa7bebbc9ae167206d3329ff70a761ef861b1c1f5b0fbc7ea64aabb43ab4b7368a5bcb9cbac147004d1309df5047810f66fbfcffbbef5c9e46aa4b54da5457d66abb2b7c5a21a7e0adf3e93fb067a12f46dbdcdf9bcf7cbe668a6b74fa7477f64a9b0b5c7a0187c08dd3c91f9007c14f26bbbcbffbaf1cde06ea0b149a1417962afb6b3c1a61e7a0edb3a97ff027e16f069b9c9fdb8f3cfe26ca2b34ba3437b60adb4b1c3a41c780cd93895fd0c7018fe67b7c7f3b6fdc1ec62acbd45ad4d756ea3babfcdaa127602d7369bf30e721afc65b5c5f1b4ffc3ee60aebf47af4f776ca1b8bdcfa8107400d53499f108741cfa63b3c3f7b2f9c5e866a8b941a949716aa7bebbc9ae167206d3329ff70a761ef861b1c1f5b0fbc7ea64aabb43ab4b7368a5bcb9cbac147004d1309df5047810f66fbfcffbbef5c9e46aa4b54da5457d66abb2b7c5a21a7e0adf3e93fb067a12f46dbdcdf9bcf7cbe668a6b74fa7477f64a9b0b5c7a0187c08dd3c91f9007c14f26bbbcbffbaf1cde06ea0b149a1417962afb6b3c1a61e7a0edb3a97ff027e16f069b9c9fdb8f3cfe26ca2b34ba3437b60adb4b1c3a41c780cd93895fd0c7018fe67b7c7f3b6fdc1ec62acbd45aa5ed016403e18733718a676033aeba3a4c7db5501e1a14f491c0faf91e67121a",
        "hex": "6a209ab25179371ed8241170ae50235bccca1550fad48fd8e573048a246650f23c594db00447810f66fbfcffbbef5c9e46aa4b54da5457d66abb2b7c5a21a7e0adf3e93fb067a12f46dbdcdf9bcf7cbe668a6b74fa7477f64a9b0b5c7a0187c08dd3c91f9007c14f26bbbcbffbaf1cde06ea0b149a1417962afb6b3c1a61e7a0edb3a97ff027e16f069b9c9fdb8f3cfe26ca2b34ba3437b60adb4b1c3a41c780cd93895fd0c7018fe67b7c7f3b6fdc1ec62acbd45ad4d756ea3babfcdaa127602d7369bf30e721afc65b5c5f1b4ffc3ee60aebf47af4f776ca1b8bdcfa8107400d53499f108741cfa63b3c3f7b2f9c5e866a8b941a949716aa7bebbc9ae167206d3329ff70a761ef861b1c1f5b0fbc7ea64aabb43ab4b7368a5bcb9cbac147004d1309df5047810f66fbfcffbbef5c9e46aa4b54da5457d66abb2b7c5a21a7e0adf3e93fb067a12f46dbdcdf9bcf7cbe668a6b74fa7477f64a9b0b5c7a0187c08dd3c91f9007c14f26bbbcbffbaf1cde06ea0b149a1417962afb6b3c1a61e7a0edb3a97ff027e16f069b9c9fdb8f3cfe26ca2b34ba3437b60adb4b1c3a41c780cd93895fd0c7018fe67b7c7f3b6fdc1ec62acbd45ad4d756ea3babfcdaa127602d7369bf30e721afc65b5c5f1b4ffc3ee60aebf47af4f776ca1b8bdcfa8107400d53499f108741cfa63b3c3f7b2f9c5e866a8b941a949716aa7bebbc9ae167206d3329ff70a761ef861b1c1f5b0fbc7ea64aabb43ab4b7368a5bcb9cbac147004d1309df5047810f66fbfcffbbef5c9e46aa4b54da5457d66abb2b7c5a21a7e0adf3e93fb067a12f46dbdcdf9bcf7cbe668a6b74fa7477f64a9b0b5c7a0187c08dd3c91f9007c14f26bbbcbffbaf1cde06ea0b149a1417962afb6b3c1a61e7a0edb3a97ff027e16f069b9c9fdb8f3cfe26ca2b34ba3437b60adb4b1c3a41c780cd93895fd0c7018fe67b7c7f3b6fdc1ec62acbd45ad4d756ea3babfcdaa127602d7369bf30e721afc65b5c5f1b4ffc3ee60aebf47af4f776ca1b8bdcfa8107400d53499f108741cfa63b3c3f7b2f9c5e866a8b941a949716aa7bebbc9ae167206d3329ff70a761ef861b1c1f5b0fbc7ea64aabb43ab4b7368a5bcb9cbac147004d1309df5047810f66fbfcffbbef5c9e46aa4b54da5457d66abb2b7c5a21a7e0adf3e93fb067a12f46dbdcdf9bcf7cbe668a6b74fa7477f64a9b0b5c7a0187c08dd3c91f9007c14f26bbbcbffbaf1cde06ea0b149a1417962afb6b3c1a61e7a0edb3a97ff027e16f069b9c9fdb8f3cfe26ca2b34ba3437b60adb4b1c3a41c780cd93895fd0c7018fe67b7c7f3b6fdc1ec62acbd45ad4d756ea3babfcdaa127602d7369bf30e721afc65b5c5f1b4ffc3ee60aebf47af4f776ca1b8bdcfa8107400d53499f108741cfa63b3c3f7b2f9c5e866a8b941a949716aa7bebbc9ae167206d3329ff70a761ef861b1c1f5b0fbc7ea64aabb43ab4b7368a5bcb9cbac147004d1309df5047810f66fbfcffbbef5c9e46aa4b54da5457d66abb2b7c5a21a7e0adf3e93fb067a12f46dbdcdf9bcf7cbe668a6b74fa7477f64a9b0b5c7a0187c08dd3c91f9007c14f26bbbcbffbaf1cde06ea0b149a1417962afb6b3c1a61e7a0edb3a97ff027e16f069b9c9fdb8f3cfe26ca2b34ba3437b60adb4b1c3a41c780cd93895fd0c7018fe67b7c7f3b6fdc1ec62acbd45aa5ed016403e18733718a676033aeba3a4c7db5501e1a14f491c0faf91e67121a",
        "type": "nulldata"
      }
    }
  ],
  "blockhash": "2622e54cefe9d3081f6ac04e4c67f268d7c1e3313b2268ffede4439aafe1acd1",
  "confirmations": 1,
  "time": 1764177922,
  "blocktime": 1764177922
}