{
  "hex": "010000000001012ac7b949722efdec165df6b6a0a95439f2d53b8b765b09a7552c8ac58b70415c0100000000feffffff023022f408792d0000225120a01f875297e2c2529a6f4001b41e934764c1fff1432443dabfd6317f6f0be27d00e1f50500000000fdd5046a2093874f4ad88c8852aeac6875b587a2ddcf8b9f32a15f023c7be6664a790210864db004fb1b72cf2f0545005b3667a02e30bbe7f9e20a6538abd0be5374ee77a74c1186db3b52ef0f2565207b1647800e109bc7d9c22a45188bf09e7354ce57876c31a6bb5b328f6f4505401b7627e06e70fba7b9a24a2578eb90fe1334ae37e70c51c69b7b12af4f6525603b5607c04e50db8799826a0558cbb0de33148e17c72c71e67b9bf24faf85c580dbb6e720aeb03b6779628ae5b82b503ed3f46ef727cc91065bbbd26f8fa5e5a0fb96c7008e901b475942aac5980b701ef3d44ed707ecb1263bdbb20fefc585c09bf6a760eef07b273922caa5f86b107e93b42eb7678cd1461bfb922fcfe5a5e0bbd68740ced05b071902ea85d84b305eb3940e9747acf166fb1b72cf2f0545005b3667a02e30bbe7f9e20a6538abd0be5374ee77a74c1186db3b52ef0f2565207b1647800e109bc7d9c22a45188bf09e7354ce57876c31a6bb5b328f6f4505401b7627e06e70fba7b9a24a2578eb90fe1334ae37e70c51c69b7b12af4f6525603b5607c04e50db8799826a0558cbb0de33148e17c72c71e67b9bf24faf85c580dbb6e720aeb03b6779628ae5b82b503ed3f46ef727cc91065bbbd26f8fa5e5a0fb96c7008e901b475942aac5980b701ef3d44ed707ecb1263bdbb20fefc585c09bf6a760eef07b273922caa5f86b107e93b42eb7678cd1461bfb922fcfe5a5e0bbd68740ced05b071902ea85d84b305eb3940e9747acf166fb1b72cf2f0545005b3667a02e30bbe7f9e20a6538abd0be5374ee77a74c1186db3b52ef0f2565207b1647800e109bc7d9c22a45188bf09e7354ce57876c31a6bb5b328f6f4505401b7627e06e70fba7b9a24a2578eb90fe1334ae37e70c51c69b7b12af4f6525603b5607c04e50db8799826a0558cbb0de33148e17c72c71e67b9bf24faf85c580dbb6e720aeb03b6779628ae5b82b503ed3f46ef727cc91065bbbd26f8fa5e5a0fb96c7008e901b475942aac5980b701ef3d44ed707ecb1263bdbb20fefc585c09bf6a760eef07b273922caa5f86b107e93b42eb7678cd1461bfb922fcfe5a5e0bbd68740ced05b071902ea85d84b305eb3940e9747acf166fb1b72cf2f0545005b3667a02e30bbe7f9e20a6538abd0be5374ee77a74c1186db3b52ef0f2565207b1647800e109bc7d9c22a45188bf09e7354ce57876c31a6bb5b328f6f4505401b7627e06e70fba7b9a24a2578eb90fe1334ae37e70c51c69b7b12af4f6525603b5607c04e50db8799826a0558cbb0de33148e17c72c71e67b9bf24faf85c580dbb6e720aeb03b6779628ae5b82b503ed3f46ef727cc91065bbbd26f8fa5e5a0fb96c7008e901b475942aac5980b701ef3d44ed707ecb1263bdbb20fefc585c09bf6a760eef07b273922caa5f86b107e93b42eb7678cd1461bfb922fcfe5a5e0bbd68740ced05b071902ea85d84b305eb3940e9747acf166fb1b72cf2f0545005b3667a02e30bbe7f9e20a6538abd0be5374ee77a74c1186db3b52ef0f2565207b1647800e109bc7d9c22a45188bf09e7354ce57876c31a6bb5b328f6f4505401b7627e06e70fba7b9a24a2578eb90fe1334ae37e70c51c69b7b12af4f6525603b5607c04e50db8799826a0558cbb0de33148e17c72c71e67b9bf24faf85c580dbb6e720aeb03b678a44129105f1521882361cee05d8b1e040050072db10c3b72d5734e936bd907802fd75092cdd6d639f56c95776c4cf1f5125efcfab02677b1ae7ff724e0c7884a8b17d9ff62f703d0979a24ee73e51eec84c30b60e531a00267a4c4d82271855db5200b69fcfb8c8898b52b960fc96e5cfb0971f1249b642d0163c8772c6493a5a38695bb270153178132dd2e694e44b4e80091b76c68a925faa6156f6496d77db95faecf238116f9b46618a064538e9c27666b055da9dfce42bb90a72a3258c11f84d3bbfe8592ef329f305b1f3666479be15ada26e7b4dcf025fd1e603723c078e4c81f28e4da86dcef50ac8aef8f84b37c5292a3005020d630b7b243f6940559e1f8a4becac7541df9dbb44dc870357f223b53ecf1f71ff7ef2348762d9787b7f3c370df44863105c3a4b7587aa702c18c82aaabb557d64a3ebb55d64cccc9adde6ff91db6f357ec47640f059b4e93ba50357f2330e789b4856052d29d32a78d65cd9efbaa5f22259d9e48a36c4d6486f91bba249d980af053a6733cf48e33c8faa2ffb55b21c3d78cb1a5d386235393a8086c9428d9b9c3144c5927c4f2e5b37d5caeddbbba08113b0e898c8687dab0ea572f48d2c6648aa7e8ae9980435271056e93de38e8b26293a07562546460267cfbe95805f5af3818fcda08c25923a7970ac034cc1e1db0bea0a5cc83c7425b81a2618ebc90b402b9d7e41875a65d71a90685fcbdf8854448c0de2c3a9c26a98ec28dd3bed3eaf0593dd474a5e70c3cbcfd93cf201dc8b4008251581333e7776972fd5b4951b90b7a712e7c1c80d8337fd951009a0f5267a0bc01821aa5eb6c35bc86f1c91fbf63bf2152bbdbd279dd7251de29c465a22feb55c6e9143219ce21f2b795ae2157fd86df8fd41d6df9509cee799d45767a61ec02db56970377316d93ccb47a35f2f779467f20c1acaaf54a813deb82e12cbda14c2fa7f0408265d4220635c0fd590de81ce258e87311567a5ebd0a8328ef8585d8e3266d8e994f13a10180fd84536da77b39cdc6391f94824a9006744249a82601796c03234c54a38b38a7c04b7fd61ca277c8ceef576576c797b1157b0b19da601d9faee3a7af52a582c0a2966813d22480c7415980fee0e567038a3cb2ba17483be6285692ef8574fa10a71f91f4ffa4b6699b446f706e8510492b027fb5b79bb16058d365c8e3f2d6bc4111d464ae9f5b6cd791a16b03feb3f0f5435d2ad92287f17cca844b7cab2ab4f006d1f4ba2dca46d9a81e1ef5daf7e64adbd34e76204e7cc3d062a3c568c838c6ee9a78bad219e9b2efbda4bfccc35e5e0901fb76191e0937282dc0a4db563535ad4267f748fe98ac64bca5cb9678038fc761d931e8cc14ed7f84898842e54ca4b37d514507201b20a2bc7990fb0bfc665d5c46b666e096cf41b30142eb0fb5976f6577021b246cc8ece2e14083a546e540cc5c5525444e8ae56ed51157e4a7851bb451380d058aa103460d9ff7176e5a70f6cdca1fdafb84e1e91ffba807474318e09c573ad602dd94ba3c4f47474f32bda4f35d999af667a06bede95f1b6ff01f025b81720780ddaa12c1e320e086e14c2be03ecb28f2805f881955f65aa5c2332024a4bf496b93ff05c5f46b488460ed42eadfeae966a0573783f17070b601c11c1d1308c13f56a939a7fd841746d2b832624f157a5d33cd552df01c19cdcf2d8e78fcb400c20d1671fcae3b64703cf350c885eb22e64656dc9e66293cb69803a0a3d5f11dcbac7f6b1e12b0f2515d00987d0ed8896fccdbaf644d36bb3a7f69bf9963d4c497169745d598d09b0eda3371cb893993d6eb2a0c35504122034de33d3e37a79ffe83018ea0b576c7c1723af5f42cbb19c72d4e2de086723871409875ad3dca5371b4443a9b871ca3c3879aa29209ca94d609a1095230964b6198c9b430f4cd6b8af3436b2d7a4d9fe437f42cf4b8a07fe6f553cec7801fa89a6208848191214d69263dd06ae9d5ae9692696ad197dc28e24723ed21ad4217f813b60234aa20ccba23d191170abb6bc8cb7f821a3ccec3675dd8d54e2e68c7d99b47dfd6d18c73147d8656df011b20153b944498a34a2fce3e4e3d00f29fb437ef614e71ad6afd3597a821f2ff77c03d0526df21ffba622a1e3f3b4c591f8eea3af76c3905d99d4878b08bee4ee7263b71c7c1eb6b3e2f4f14bbaf2163b75a7926405b8ab3b34c6e3c4d0e949f9071e30d898f9c2ebb332525a52c4d79c9d7f37936ffab2f179522112f3d553a184d621846d103a74684b2352afeb89a602be6e39e49f259e2337cd6b13cd9cff82150f446dcaeae6659a605c45b998b340bdc02a7aecd4afbbed494197fb5bb71a2b3ae12f6c7d2b9a75e806f07c372871a93bf80e52ba3b52beeac93993cbde52b5872d71a760cea4abe96142b9c3f71d115c1d1469f8789d48f468b019b39832ad6cc7765aaa995acdb8e3e4bda40bbbe207620530544ceb5885b56477523a4df2847131d41371f4b3415f6e88abcf122ddd5efc683c7d28505f162c9eaaa6e12d39a085319621bc3b916325973dbb8732b249a7aad166addde6201743524574e98a62352808484287073532968330b061c27a5035a1adb4ff7f24d2144a53df5361d0b1618e48ce2b2595d46da6a94b783d5faf9cf68ad0ca9b3b87fdbc8d7b1c27f20ec10482f477e779883ade8f626739e5485fa6cab10486fcce9e5479818787a6c286b247a8884d6e8d564ee76adec5a84716a2f487d23d7210a1e77b79d56a25e63d74d3aef1b8f1ef107624c4fd3a363f3b77101d1ed5f4befae17e1d4da1a8f48c766e0c50fa91252eb57e47fdb428e780b209421a20c7482d4113d56d67b633eb606bf0f8ab98b6cd8a333162fbfda7ae395588157f95c26f5e4336d55420354a9e3b8103a0b5f51c1b329654ec6785b370779f64758d1273a9321a6d2ba4ddd262f0304ece3a03ba381003c0e4c02fa9c17dee5ba7143ec28264039b39975fbaa0e11ed32d1fb67f5b9157210e5bc128b80bb2012bb0ca7c201b07b9068ca4d04a6a2c2249db2dde9117434b7a249cf87105cb1b6f45cf6446097ff3878d246a66a01247961deb46cef31fe255c005d7612c879a9530fae981cbe02fc9686d34a9ebd1f02cd8ea73e4e7298b5578e60474adb4e91fd57acb340371353a8cfb830307e39346dfe74c887298bf7011538beb2714479c0d953bff03e9554725325ba6991632aa680fdb79f41ed5bc0c61ea4698ce1c82a537b7b32c8039245b90499ef29590a1494d04b317dcf8dec84d8ef90aee6fac4941d89b9175b04a2bc2b43157859be14e90f9b7c88ee84def82175807b9480a10c40551520b081c23284d558a92b2d0d9eef7101e37404c92949eb8d5dbf012141a2021383b48696ba9e921232425304c7c88959eb1c4c5cccfdbe4e5000000000000000000000000000000000000000000000000000d19253701fd210500c81fe4c2a7bc35ce1a23b592b8bde2a047bcfc55e2b3f9041da78b8496c659c2e41697bcb72732dd3a51ffa6686ec66d078d7a0d7e7c1b3ea9420419afda594d0fd5b4d36808ca6dc47de108f2652f49de4f98b4190806dbb73497dde9860db43310927ac91811dfe7a50fdb99523fedccb7debba8aa7685caa50c39b5b168fdae5ff7935efef563716401f76eb7f51980a52e945bedc245a32b9d5a467f94fac2113096f266ae473dfc060c250848947b750a45a369b70adf248e87da722fb8f9aadaaecbc14a25d0c12c2fdcae73373c85153a29500c17c64780ec03f4bbf1f4fa436a389bbe05517e27befd7fc2edbe76e139d451672ca694c0000fb100d5d1b6f3fd3d61790e67d3d11ead0ffad44ca99b08fe54cbf992bc594dbcb19d6dfcbe30e3d2bfc058ff04c94071066ed3631cf4fffec4642496658492bea026ee5946be94238d971ad9fced03c07aac60363b5c27e13949d464add8b6b3f39c3e68adba60ad74298f16dd0f7793064e90b76ec85c0d7db7ad00f4765fcbc4a711d2bc0c9e5d423456800c24f1ed397186ee38104fd3a8b717d1aea27ac0b643493a6f2e25fc87a0d32597c0369648c545780a2ce53e3e8da1c3ab58ebb3fb257c6fe2dfbbc5eb55a3cdf50359740ca61360559c21d017732d103a27ed2b97cf03e47e22db20bfa7937cd33dac7454b423dc847e141d30da7dbd224ff0b3c1d36757b9dfdc9d58f2a57c59c2d65bd6e03ce76de8091878755b785b48eef90e5484f5c18e8c1bacf51cade0d11c8d1435477517db81110ed1289b038f22b4c30a20055470afd0964d4e579c9992e09785fc4a486c1f81003c3175a27ff5e46a602262362d5c5f62e2d2248b268a9591f1b2032f0f7a0cc446b245e4d5048a700bfcc1378c29b33b4f1acf5ac8c08f363a780c1164b6e409a553c0ec1a4513caf05134252f269cdaa78583f9bf98745b5a02025e5a29df88a2e52ab33568dc0588ee8f62bba645e88b9ebf534a4f6dd395178a4e043fc1117eb4b0d13eee3f24cd0c09bc5182cc89bf82176f7749ebbfc40740823aafd5a35b1949f5ba4f112791bd09e5f9b9139617a1ed2fc842be342da24d3f48da117960e882af7e4b7c2b5a88a3766b5efb0159fe5894a693d3e4c9616eb97fcd7bf76eb29bce7533ea5ce766cf53abd55e6d5288555021ad9566167b2e41640ef8845dbfcec4251c5eb117eb7c3529100ea4bb5dd6e4af5025b25bc6f6f299bafab94b706243fbd1d19a8ebd03ab16b2c7a51099a86e0b9268aa3df2b0de7513d90ce08c6f16dff19fd8e97ee00ca39bf934fa01639085808920390e67e14473b3a0ed0a46efca78236a5556caa593206354bcca6c41f924f8db5bd0e2af5be7a9acb44d7dc1afd9bd9df1e7622df4d3dffe43271731f9a36a1cdf376dc721a219e3305d7453c3a54b8ce75a1e99b86ca33bd0a70238e36b67e9d16820a5796b03d2cd57450705617e043410c80ce14eecd73e22b3b82fc34e340f2eccb3e0e53deb552b88609b81438184c3f9ac59d473f902fc250a43c3186cbd463b89d13b7493dc04cccd47769d83f96d4f7f9bab89b080cc31818efe1a402225e8023907a8f78055190f1fc174892228659b14de5e65de4fc767ce33c4d749128bc2d34cf8dfca3778fecaaa430081c8dcb859234d402d90fe67f81c7121e5cd4a03d2750d2978df4ac5c978cd0a4a2032227c72e31187fe9f184aba6a06537483433e2adb42fd16dd34d1c54cc076e711fb8f94690f4e03c057ad2fc541d0bb8366aad67e8af67efdbf9c09c9c818704a4d5bd932988a4a0507d640410bec5bdca3764e2d7bf9923ef8384304b69e2577000000",
  "txid": "47891cc3e1f64410d7aed9a43084c0c5d89fe3bf67f72bb137ae8afbd53fe37a",
  "hash": "a9b7d9f0d208ff8fcc8a7501582e3b8ca4d0f4910abf6c1b4435878553512460",
  "size": 5085,
  "vsize": 2278,
  "version": 1,
  "locktime": 119,
  "vin": [
    {
      "txid": "5c41708bc58a2c55a7095b768b3bd5f23954a9a0b6f65d16ecfd2e7249b9c72a",
      "vout": 1,
      "scriptSig": {
        "asm": "",
        "hex": ""
      },
      "txinwitness": [
        "2cdd6d639f56c95776c4cf1f5125efcfab02677b1ae7ff724e0c7884a8b17d9ff62f703d0979a24ee73e51eec84c30b60e531a00267a4c4d82271855db5200b69fcfb8c8898b52b960fc96e5cfb0971f1249b642d0163c8772c6493a5a38695bb270153178132dd2e694e44b4e80091b76c68a925faa6156f6496d77db95faecf238116f9b46618a064538e9c27666b055da9dfce42bb90a72a3258c11f84d3bbfe8592ef329f305b1f3666479be15ada26e7b4dcf025fd1e603723c078e4c81f28e4da86dcef50ac8aef8f84b37c5292a3005020d630b7b243f6940559e1f8a4becac7541df9dbb44dc870357f223b53ecf1f71ff7ef2348762d9787b7f3c370df44863105c3a4b7587aa702c18c82aaabb557d64a3ebb55d64cccc9adde6ff91db6f357ec47640f059b4e93ba50357f2330e789b4856052d29d32a78d65cd9efbaa5f22259d9e48a36c4d6486f91bba249d980af053a6733cf48e33c8faa2ffb55b21c3d78cb1a5d386235393a8086c9428d9b9c3144c5927c4f2e5b37d5caeddbbba08113b0e898c8687dab0ea572f48d2c6648aa7e8ae9980435271056e93de38e8b26293a07562546460267cfbe95805f5af3818fcda08c25923a7970ac034cc1e1db0bea0a5cc83c7425b81a2618ebc90b402b9d7e41875a65d71a90685fcbdf8854448c0de2c3a9c26a98ec28dd3bed3eaf0593dd474a5e70c3cbcfd93cf201dc8b4008251581333e7776972fd5b4951b90b7a712e7c1c80d8337fd951009a0f5267a0bc01821aa5eb6c35bc86f1c91fbf63bf2152bbdbd279dd7251de29c465a22feb55c6e9143219ce21f2b795ae2157fd86df8fd41d6df9509cee799d45767a61ec02db56970377316d93ccb47a35f2f779467f20c1acaaf54a813deb82e12cbda14c2fa7f0408265d4220635c0fd590de81ce258e87311567a5ebd0a8328ef8585d8e3266d8e994f13a10180fd84536da77b39cdc6391f94824a9006744249a82601796c03234c54a38b38a7c04b7fd61ca277c8ceef576576c797b1157b0b19da601d9faee3a7af52a582c0a2966813d22480c7415980fee0e567038a3cb2ba17483be6285692ef8574fa10a71f91f4ffa4b6699b446f706e8510492b027fb5b79bb16058d365c8e3f2d6bc4111d464ae9f5b6cd791a16b03feb3f0f5435d2ad92287f17cca844b7cab2ab4f006d1f4ba2dca46d9a81e1ef5daf7e64adbd34e76204e7cc3d062a3c568c838c6ee9a78bad219e9b2efbda4bfccc35e5e0901fb76191e0937282dc0a4db563535ad4267f748fe98ac64bca5cb9678038fc761d931e8cc14ed7f84898842e54ca4b37d514507201b20a2bc7990fb0bfc665d5c46b666e096cf41b30142eb0fb5976f6577021b246cc8ece2e14083a546e540cc5c5525444e8ae56ed51157e4a7851bb451380d058aa103460d9ff7176e5a70f6cdca1fdafb84e1e91ffba807474318e09c573ad602dd94ba3c4f47474f32bda4f35d999af667a06bede95f1b6ff01f025b81720780ddaa12c1e320e086e14c2be03ecb28f2805f881955f65aa5c2332024a4bf496b93ff05c5f46b488460ed42eadfeae966a0573783f17070b601c11c1d1308c13f56a939a7fd841746d2b832624f157a5d33cd552df01c19cdcf2d8e78fcb400c20d1671fcae3b64703cf350c885eb22e64656dc9e66293cb69803a0a3d5f11dcbac7f6b1e12b0f2515d00987d0ed8896fccdbaf644d36bb3a7f69bf9963d4c497169745d598d09b0eda3371cb893993d6eb2a0c35504122034de33d3e37a79ffe83018ea0b576c7c1723af5f42cbb19c72d4e2de086723871409875ad3dca5371b4443a9b871ca3c3879aa29209ca94d609a1095230964b6198c9b430f4cd6b8af3436b2d7a4d9fe437f42cf4b8a07fe6f553cec7801fa89a6208848191214d69263dd06ae9d5ae9692696ad197dc28e24723ed21ad4217f813b60234aa20ccba23d191170abb6bc8cb7f821a3ccec3675dd8d54e2e68c7d99b47dfd6d18c73147d8656df011b20153b944498a34a2fce3e4e3d00f29fb437ef614e71ad6afd3597a821f2ff77c03d0526df21ffba622a1e3f3b4c591f8eea3af76c3905d99d4878b08bee4ee7263b71c7c1eb6b3e2f4f14bbaf2163b75a7926405b8ab3b34c6e3c4d0e949f9071e30d898f9c2ebb332525a52c4d79c9d7f37936ffab2f179522112f3d553a184d621846d103a74684b2352afeb89a602be6e39e49f259e2337cd6b13cd9cff82150f446dcaeae6659a605c45b998b340bdc02a7aecd4afbbed494197fb5bb71a2b3ae12f6c7d2b9a75e806f07c372871a93bf80e52ba3b52beeac93993cbde52b5872d71a760cea4abe96142b9c3f71d115c1d1469f8789d48f468b019b39832ad6cc7765aaa995acdb8e3e4bda40bbbe207620530544ceb5885b56477523a4df2847131d41371f4b3415f6e88abcf122ddd5efc683c7d28505f162c9eaaa6e12d39a085319621bc3b916325973dbb8732b249a7aad166addde6201743524574e98a62352808484287073532968330b061c27a5035a1adb4ff7f24d2144a53df5361d0b1618e48ce2b2595d46da6a94b783d5faf9cf68ad0ca9b3b87fdbc8d7b1c27f20ec10482f477e779883ade8f626739e5485fa6cab10486fcce9e5479818787a6c286b247a8884d6e8d564ee76adec5a84716a2f487d23d7210a1e77b79d56a25e63d74d3aef1b8f1ef107624c4fd3a363f3b77101d1ed5f4befae17e1d4da1a8f48c766e0c50fa91252eb57e47fdb428e780b209421a20c7482d4113d56d67b633eb606bf0f8ab98b6cd8a333162fbfda7ae395588157f95c26f5e4336d55420354a9e3b8103a0b5f51c1b329654ec6785b370779f64758d1273a9321a6d2ba4ddd262f0304ece3a03ba381003c0e4c02fa9c17dee5ba7143ec28264039b39975fbaa0e11ed32d1fb67f5b9157210e5bc128b80bb2012bb0ca7c201b07b9068ca4d04a6a2c2249db2dde9117434b7a249cf87105cb1b6f45cf6446097ff3878d246a66a01247961deb46cef31fe255c005d7612c879a9530fae981cbe02fc9686d34a9ebd1f02cd8ea73e4e7298b5578e60474adb4e91fd57acb340371353a8cfb830307e39346dfe74c887298bf7011538beb2714479c0d953bff03e9554725325ba6991632aa680fdb79f41ed5bc0c61ea4698ce1c82a537b7b32c8039245b90499ef29590a1494d04b317dcf8dec84d8ef90aee6fac4941d89b9175b04a2bc2b43157859be14e90f9b7c88ee84def82175807b9480a10c40551520b081c23284d558a92b2d0d9eef7101e37404c92949eb8d5dbf012141a2021383b48696ba9e921232425304c7c88959eb1c4c5cccfdbe4e5000000000000000000000000000000000000000000000000000d19253701",
        "00c81fe4c2a7bc35ce1a23b592b8bde2a047bcfc55e2b3f9041da78b8496c659c2e41697bcb72732dd3a51ffa6686ec66d078d7a0d7e7c1b3ea9420419afda594d0fd5b4d36808ca6dc47de108f2652f49de4f98b4190806dbb73497dde9860db43310927ac91811dfe7a50fdb99523fedccb7debba8aa7685caa50c39b5b168fdae5ff7935efef563716401f76eb7f51980a52e945bedc245a32b9d5a467f94fac2113096f266ae473dfc060c250848947b750a45a369b70adf248e87da722fb8f9aadaaecbc14a25d0c12c2fdcae73373c85153a29500c17c64780ec03f4bbf1f4fa436a389bbe05517e27befd7fc2edbe76e139d451672ca694c0000fb100d5d1b6f3fd3d61790e67d3d11ead0ffad44ca99b08fe54cbf992bc594dbcb19d6dfcbe30e3d2bfc058ff04c94071066ed3631cf4fffec4642496658492bea026ee5946be94238d971ad9fced03c07aac60363b5c27e13949d464add8b6b3f39c3e68adba60ad74298f16dd0f7793064e90b76ec85c0d7db7ad00f4765fcbc4a711d2bc0c9e5d423456800c24f1ed397186ee38104fd3a8b717d1aea27ac0b643493a6f2e25fc87a0d32597c0369648c545780a2ce53e3e8da1c3ab58ebb3fb257c6fe2dfbbc5eb55a3cdf50359740ca61360559c21d017732d103a27ed2b97cf03e47e22db20bfa7937cd33dac7454b423dc847e141d30da7dbd224ff0b3c1d36757b9dfdc9d58f2a57c59c2d65bd6e03ce76de8091878755b785b48eef90e5484f5c18e8c1bacf51cade0d11c8d1435477517db81110ed1289b038f22b4c30a20055470afd0964d4e579c9992e09785fc4a486c1f81003c3175a27ff5e46a602262362d5c5f62e2d2248b268a9591f1b2032f0f7a0cc446b245e4d5048a700bfcc1378c29b33b4f1acf5ac8c08f363a780c1164b6e409a553c0ec1a4513caf05134252f269cdaa78583f9bf98745b5a02025e5a29df88a2e52ab33568dc0588ee8f62bba645e88b9ebf534a4f6dd395178a4e043fc1117eb4b0d13eee3f24cd0c09bc5182cc89bf82176f7749ebbfc40740823aafd5a35b1949f5ba4f112791bd09e5f9b9139617a1ed2fc842be342da24d3f48da117960e882af7e4b7c2b5a88a3766b5efb0159fe5894a693d3e4c9616eb97fcd7bf76eb29bce7533ea5ce766cf53abd55e6d5288555021ad9566167b2e41640ef8845dbfcec4251c5eb117eb7c3529100ea4bb5dd6e4af5025b25bc6f6f299bafab94b706243fbd1d19a8ebd03ab16b2c7a51099a86e0b9268aa3df2b0de7513d90ce08c6f16dff19fd8e97ee00ca39bf934fa01639085808920390e67e14473b3a0ed0a46efca78236a5556caa593206354bcca6c41f924f8db5bd0e2af5be7a9acb44d7dc1afd9bd9df1e7622df4d3dffe43271731f9a36a1cdf376dc721a219e3305d7453c3a54b8ce75a1e99b86ca33bd0a70238e36b67e9d16820a5796b03d2cd57450705617e043410c80ce14eecd73e22b3b82fc34e340f2eccb3e0e53deb552b88609b81438184c3f9ac59d473f902fc250a43c3186cbd463b89d13b7493dc04cccd47769d83f96d4f7f9bab89b080cc31818efe1a402225e8023907a8f78055190f1fc174892228659b14de5e65de4fc767ce33c4d749128bc2d34cf8dfca3778fecaaa430081c8dcb859234d402d90fe67f81c7121e5cd4a03d2750d2978df4ac5c978cd0a4a2032227c72e31187fe9f184aba6a06537483433e2adb42fd16dd34d1c54cc076e711fb8f94690f4e03c057ad2fc541d0bb8366aad67e8af67efdbf9c09c9c818704a4d5bd932988a4a0507d640410bec5bdca3764e2d7bf9923ef8384304b69e25"
      ],
      "sequence": 4294967294
    }
  ],
  "vout": [
    {
      "value": 499978.6451,
      "n": 0,
      "scriptPubKey": {
        "asm": "1 a01f875297e2c2529a6f4001b41e934764c1fff1432443dabfd6317f6f0be27d",
        "hex": "5120a01f875297e2c2529a6f4001b41e934764c1fff1432443dabfd6317f6f0be27d",
        "reqSigs": 1,
        "type": "witness_v1_scripthash",
        "addresses": [
          "3QJmnh"
        ]
      }
    },
    {
      "value": 1.0,
      "n": 1,
      "scriptPubKey": {
        "asm": "OP_RETURN 93874f4ad88c8852aeac6875b587a2ddcf8b9f32a15f023c7be6664a79021086 fb1b72cf2f0545005b3667a02e30bbe7f9e20a6538abd0be5374ee77a74c1186db3b52ef0f2565207b1647800e109bc7d9c22a45188bf09e7354ce57876c31a6bb5b328f6f4505401b7627e06e70fba7b9a24a2578eb90fe1334ae37e70c51c69b7b12af4f6525603b5607c04e50db8799826a0558cbb0de33148e17c72c71e67b9bf24faf85c580dbb6e720aeb03b6779628ae5b82b503ed3f46ef727cc91065bbbd26f8fa5e5a0fb96c7008e901b475942aac5980b701ef3d44ed707ecb1263bdbb20fefc585c09bf6a760eef07b273922caa5f86b107e93b42eb7678cd1461bfb922fcfe5a5e0bbd68740ced05b071902ea85d84b305eb3940e9747acf166fb1b72cf2f0545005b3667a02e30bbe7f9e20a6538abd0be5374ee77a74c1186db3b52ef0f2565207b1647800e109bc7d9c22a45188bf09e7354ce57876c31a6bb5b328f6f4505401b7627e06e70fba7b9a24a2578eb90fe1334ae37e70c51c69b7b12af4f6525603b5607c04e50db8799826a0558cbb0de33148e17c72c71e67b9bf24faf85c580dbb6e720aeb03b6779628ae5b82b503ed3f46ef727cc91065bbbd26f8fa5e5a0fb96c7008e901b475942aac5980b701ef3d44ed707ecb1263bdbb20fefc585c09bf6a760eef07b273922caa5f86b107e93b42eb7678cd1461bfb922fcfe5a5e0bbd68740ced05b071902ea85d84b305eb3940e9747acf166fb1b72cf2f0545005b3667a02e30bbe7f9e20a6538abd0be5374ee77a74c1186db3b52ef0f2565207b1647800e109bc7d9c22a45188bf09e7354ce57876c31a6bb5b328f6f4505401b7627e06e70fba7b9a24a2578eb90fe1334ae37e70c51c69b7b12af4f6525603b5607c04e50db8799826a0558cbb0de33148e17c72c71e67b9bf24faf85c580dbb6e720aeb03b6779628ae5b82b503ed3f46ef727cc91065bbbd26f8fa5e5a0fb96c7008e901b475942aac5980b701ef3d44ed707ecb1263bdbb20fefc585c09bf6a760eef07b273922caa5f86b107e93b42eb7678cd1461bfb922fcfe5a5e0bbd68740ced05b071902ea85d84b305eb3940e9747acf166fb1b72cf2f0545005b3667a02e30bbe7f9e20a6538abd0be5374ee77a74c1186db3b52ef0f2565207b1647800e109bc7d9c22a45188bf09e7354ce57876c31a6bb5b328f6f4505401b7627e06e70fba7b9a24a2578eb90fe1334ae37e70c51c69b7b12af4f6525603b5607c04e50db8799826a0558cbb0de33148e17c72c71e67b9bf24faf85c580dbb6e720aeb03b6779628ae5b82b503ed3f46ef727cc91065bbbd26f8fa5e5a0fb96c7008e901b475942aac5980b701ef3d44ed707ecb1263bdbb20fefc585c09bf6a760eef07b273922caa5f86b107e93b42eb7678cd1461bfb922fcfe5a5e0bbd68740ced05b071902ea85d84b305eb3940e9747acf166fb1b72cf2f0545005b3667a02e30bbe7f9e20a6538abd0be5374ee77a74c1186db3b52ef0f2565207b1647800e109bc7d9c22a45188bf09e7354ce57876c31a6bb5b328f6f4505401b7627e06e70fba7b9a24a2578eb90fe1334ae37e70c51c69b7b12af4f6525603b5607c04e50db8799826a0558cbb0de33148e17c72c71e67b9bf24faf85c580dbb6e720aeb03b678a44129105f1521882361cee05d8b1e040050072db10c3b72d5734e936bd9078",
        "hex": "6a2093874f4ad88c8852aeac6875b587a2ddcf8b9f32a15f023c7be6664a790210864db004fb1b72cf2f0545005b3667a02e30bbe7f9e20a6538abd0be5374ee77a74c1186db3b52ef0f2565207b1647800e109bc7d9c22a45188bf09e7354ce57876c31a6bb5b328f6f4505401b7627e06e70fba7b9a24a2578eb90fe1334ae37e70c51c69b7b12af4f6525603b5607c04e50db8799826a0558cbb0de33148e17c72c71e67b9bf24faf85c580dbb6e720aeb03b6779628ae5b82b503ed3f46ef727cc91065bbbd26f8fa5e5a0fb96c7008e901b475942aac5980b701ef3d44ed707ecb1263bdbb20fefc585c09bf6a760eef07b273922caa5f86b107e93b42eb7678cd1461bfb922fcfe5a5e0bbd68740ced05b071902ea85d84b305eb3940e9747acf166fb1b72cf2f0545005b3667a02e30bbe7f9e20a6538abd0be5374ee77a74c1186db3b52ef0f2565207b1647800e109bc7d9c22a45188bf09e7354ce57876c31a6bb5b328f6f4505401b7627e06e70fba7b9a24a2578eb90fe1334ae37e70c51c69b7b12af4f6525603b5607c04e50db8799826a0558cbb0de33148e17c72c71e67b9bf24faf85c580dbb6e720aeb03b6779628ae5b82b503ed3f46ef727cc91065bbbd26f8fa5e5a0fb96c7008e901b475942aac5980b701ef3d44ed707ecb1263bdbb20fefc585c09bf6a760eef07b273922caa5f86b107e93b42eb7678cd1461bfb922fcfe5a5e0bbd68740ced05b071902ea85d84b305eb3940e9747acf166fb1b72cf2f0545005b3667a02e30bbe7f9e20a6538abd0be5374ee77a74c1186db3b52ef0f2565207b1647800e109bc7d9c22a45188bf09e7354ce57876c31a6bb5b328f6f4505401b7627e06e70fba7b9a24a2578eb90fe1334ae37e70c51c69b7b12af4f6525603b5607c04e50db8799826a0558cbb0de33148e17c72c71e67b9bf24faf85c580dbb6e720aeb03b6779628ae5b82b503ed3f46ef727cc91065bbbd26f8fa5e5a0fb96c7008e901b475942aac5980b701ef3d44ed707ecb1263bdbb20fefc585c09bf6a760eef07b273922caa5f86b107e93b42eb7678cd1461bfb922fcfe5a5e0bbd68740ced05b071902ea85d84b305eb3940e9747acf166fb1b72cf2f0545005b3667a02e30bbe7f9e20a6538abd0be5374ee77a74c1186db3b52ef0f2565207b1647800e109bc7d9c22a45188bf09e7354ce57876c31a6bb5b328f6f4505401b7627e06e70fba7b9a24a2578eb90fe1334ae37e70c51c69b7b12af4f6525603b5607c04e50db8799826a0558cbb0de33148e17c72c71e67b9bf24faf85c580dbb6e720aeb03b6779628ae5b82b503ed3f46ef727cc91065bbbd26f8fa5e5a0fb96c7008e901b475942aac5980b701ef3d44ed707ecb1263bdbb20fefc585c09bf6a760eef07b273922caa5f86b107e93b42eb7678cd1461bfb922fcfe5a5e0bbd68740ced05b071902ea85d84b305eb3940e9747acf166fb1b72cf2f0545005b3667a02e30bbe7f9e20a6538abd0be5374ee77a74c1186db3b52ef0f2565207b1647800e109bc7d9c22a45188bf09e7354ce57876c31a6bb5b328f6f4505401b7627e06e70fba7b9a24a2578eb90fe1334ae37e70c51c69b7b12af4f6525603b5607c04e50db8799826a0558cbb0de33148e17c72c71e67b9bf24faf85c580dbb6e720aeb03b678a44129105f1521882361cee05d8b1e040050072db10c3b72d5734e936bd9078",
        "type": "nulldata"
      }
    }
  ],
  "blockhash": "2c44072194b49e49486c87ae6b37abdd6c2c23e2c7b477f70371a1b5276080d1",
  "confirmations": 1,
  "time": 1764179865,
  "blocktime": 1764179865
}