{
  "hex": "01000000000101ca0cda4408dce639f79e8dec3406ba6d5ee416589335ddf706919e01e7f2014f0100000000feffffff024021813f792d00002251201c5b29972272a2dd4e47b2efd4bf34a0fba10350abdbac0a4a1fcef8d7e5000b00e1f50500000000fdd5046a204655af635dfe445338dd9e83552b48f73fd60257769a18e39ef6b82ef9e6d0204db004e8b250942b4ce2e8e0c42dddc8af89bea33e00e10da59c7ba0a058dcff7c0920c89270b40b6cc2c8c0e40dfde88fa99e831e20c12d85bc5b808078fcdf5c2900a8f210d46b0ca2a8a0846d9d88efc9fee37e40a14de5dc3be0e0189cbf3c496088d230f44b2c828880a44dbda8cfe9dec35e60816dc5fc1bc0c038bc9f1c69406832d014abcc62686044ad5d482f093e23be80618d251cfb2020d85c7ffc89a04812f0348bec424840648d7d680f291e039ea041ad053cdb0000f87c5fdca98028729054eb8c22282004ed1d086f497e63fec021cd655cbb6060981c3fbcc9e00852b074cbac02080024cd3d284f695e43dee001ed457c9b4040b83c1f9ce9c0e8b250942b4ce2e8e0c42dddc8af89bea33e00e10da59c7ba0a058dcff7c0920c89270b40b6cc2c8c0e40dfde88fa99e831e20c12d85bc5b808078fcdf5c2900a8f210d46b0ca2a8a0846d9d88efc9fee37e40a14de5dc3be0e0189cbf3c496088d230f44b2c828880a44dbda8cfe9dec35e60816dc5fc1bc0c038bc9f1c69406832d014abcc62686044ad5d482f093e23be80618d251cfb2020d85c7ffc89a04812f0348bec424840648d7d680f291e039ea041ad053cdb0000f87c5fdca98028729054eb8c22282004ed1d086f497e63fec021cd655cbb6060981c3fbcc9e00852b074cbac02080024cd3d284f695e43dee001ed457c9b4040b83c1f9ce9c0e8b250942b4ce2e8e0c42dddc8af89bea33e00e10da59c7ba0a058dcff7c0920c89270b40b6cc2c8c0e40dfde88fa99e831e20c12d85bc5b808078fcdf5c2900a8f210d46b0ca2a8a0846d9d88efc9fee37e40a14de5dc3be0e0189cbf3c496088d230f44b2c828880a44dbda8cfe9dec35e60816dc5fc1bc0c038bc9f1c69406832d014abcc62686044ad5d482f093e23be80618d251cfb2020d85c7ffc89a04812f0348bec424840648d7d680f291e039ea041ad053cdb0000f87c5fdca98028729054eb8c22282004ed1d086f497e63fec021cd655cbb6060981c3fbcc9e00852b074cbac02080024cd3d284f695e43dee001ed457c9b4040b83c1f9ce9c0e8b250942b4ce2e8e0c42dddc8af89bea33e00e10da59c7ba0a058dcff7c0920c89270b40b6cc2c8c0e40dfde88fa99e831e20c12d85bc5b808078fcdf5c2900a8f210d46b0ca2a8a0846d9d88efc9fee37e40a14de5dc3be0e0189cbf3c496088d230f44b2c828880a44dbda8cfe9dec35e60816dc5fc1bc0c038bc9f1c69406832d014abcc62686044ad5d482f093e23be80618d251cfb2020d85c7ffc89a04812f0348bec424840648d7d680f291e039ea041ad053cdb0000f87c5fdca98028729054eb8c22282004ed1d086f497e63fec021cd655cbb6060981c3fbcc9e00852b074cbac02080024cd3d284f695e43dee001ed457c9b4040b83c1f9ce9c0e8b250942b4ce2e8e0c42dddc8af89bea33e00e10da59c7ba0a058dcff7c0920c89270b40b6cc2c8c0e40dfde88fa99e831e20c12d85bc5b808078fcdf5c2900a8f210d46b0ca2a8a0846d9d88efc9fee37e40a14de5dc3be0e0189cbf3c496088d230f44b2c828880a44dbda8cfe9dec35e60816dc5fc1bc0c038bc9f1c69406832d014abcc62686044ad5d482f093ea37f28cfb40cabb2db805001a9e3bfe2e64abfb6cc17c1fe975785ec8b78d6a902fd7509d6495b13d9cf8dbb77523c74c7d9f1d06ee0a7be6327dd3d0993b0365f711b1f066d1eb115f50f0984cae0808e9c11e5109182ffbc641ec701f4fa368126febae967d008afecee330eb7b1a75ddad5f6bcd8e6b443f4a55f8e3b1de6a81f98cfbf609b87b064cee9ac87e42541aff1463ca65e6b7e73e4b6fbb3840e9f98162fba0865a964379e6b0a5cb25520329bea44a2d85ca5f5cbb15bc4c07350503d4336753e4ef532eca17f9a76eb65df8e9a99b8ae3c0ea696f61c949e8dafbab5255145dbae50a8dbfe2e4f114592c2850b27ea092908e4f4126d48181becff08bf5e47764544d6d91aeb52157cd3ea294c50e3bf0f88026bf8d813b837302b0204ff88aa36db66e51f3cbd427c074661ae5f06acd3765a3569a374e9b249718eb1f1c56c34a4f5056320d1f69d3f7f369030cb8e5c99b8c2f69e30dd59bbd4024e9352f87ce8bbebd4b07f8b69efd388ae77f4316387e489ac5e2fe211531c82f682abc9d5fe859ea61feb3b812f593a6bf551c9fbcec223b0f4e52b35a06ff41eb55e76a42befb0ccccd52b76e0b5a21ac735af16b66a5773e91b279c110fbc9a383f52aa776c2363698837420ab1d2f65dfb74c193d3213bf832230ad2428eca68eb9e614d3a0fb55a81dbcaec2232d0152a87e7739b0f3b96fb69b6ac9bd93a4a04deab89f8a0d2268d473a876c9db1330d7012679e1107d191c9b68ce138f786176a7b5bf7281a5660a6b1aa3946034b5b58d8273f39a6484f230a9c11fbf086b1f5ce1670f590b6f5b815a2a239d739a4f83ca4600d16d73a1977b55fe35715654f7e6edb8b8c9cf997e4361650d46882a9bb10df366cadb0c00e5d9caacabe7c0f9c33f3537b9ff6883fe42197ab42e21ba3eebe69fa2a6935a384d6b99fdeeac9aef2197570545fed89514792d42ab28f6d352d9d7e5654fd8f7a35832e30bf79f93bb08fb7ccbef205cd75d956ec46dfc62e9a52d5658347496c9f10be698f27af561b599abd85ca4b9c0d104b2c5a8879764024da641fb014f4af6ef145ebe3ddb4c8048f81125aba95e31ac938f33f8b8d11a74c27feb1e5761f813747a66cf200b8154c5add4c60d527b66d74219b7bea4d44530167468acb24d82a139eeaa598b6c5eab3c790d953073faccedf8b622e305c8fa5564d7324ef6a6e5616538ea0b2559445895a535c79e41f73fbe4426ccb2a3108b8d0d8a4442e1608f52536cb3d3378c3f165561b1bc46c782065db26b0eceed39a85b59c204e963efc40a87c3dddf01c8686eb13d42a762058611c63eca27e8265f0617bcccd4b844f817a9331916cec624c3011b775aefbb536d91a613e7c1dc585804a83a67a6dffae5ecb3b0d077455835a4219d76d26556b531b3c3c181f15d5de723c9888ac50eabcfbd2cebbfbde947b34c5102407eb6f2f06f7d5ee25fc42634c3120784a586e698dd8fb75865914e2d3b2c773886aa6899545094242173622da41446121eeae425b15c1345e50de09da5c4b814afff14ccaac81ac8e992610067ebde885ee9dcd3ecfdad4be3a05a5cba89c0ddf2d62b79bde73308a82ac262cd300cb63c4c30d110535a526a9e35e9caec4dc08903a711be1030a5b5cda9a48c3c6cd2cc7478375a2a3ee2088024acf3601f992bb326081bcb9c346ada8923e9db3c5b4328b2b9fbf52eb2126da3424fc0307f73eaaa09a7ff47c478f773eb0a6694a1b361a4fe661d81c074187e367ce79a7e0ce52d3c60d32760b7ca3092aedcbb16ba7bdec2a0c089824a93fb1458f6390bc0e1895bf4125a9dbf4bb9e204ac90954718086cef69cc5772c313e5929c19b7a6fcc10f9218a42b184644d85dd8169ceab09ee3dc1feb3cdd42ad6dcc815a3c44c3b1497b745acf0af78623922ccbe3f2bc81bc223f2bb663c0904cd713a4f9ca9b97b5115b98f7c7a02649ac13c0c68f2102f0d78e31230d5a8369f6762ab85058cd13a4a3b6f03d34427f0c55c8b88fc937fe1c2a155ff666cd4d6d7d465a3ac809ab10000cf827e0517d2a2b709d10c30608ba8e451bcf76c178a412101f1c5ca5252f5d1f786c56d67a7e27404d3619ebf12f58072e8ba2074057a8139ed1fd31247a4d3a70d54effa66e751659f4ca3816ffb211e1d15382b5d1a24b5ae65aed97a2104ae0531893b5c70b83b919ab43b00f54997aa1a29e5d7a4529b111e62c46c3b4a17bf15e297de899c3f5c2bff353ed0ff99ed69b806a01eb9b0c3a1d98c8e9bfa23a1dd46d76d87fe7fc6c5965bc414f614aab7fa2d7a5345ef85447ffc97975df90c59ab81a304479700393ba09b06ec0a6296dfc8aad4e06c35f79549d3854f4429c205f145a9fd3aad0123b3905daafd9584facb77612a46925b69b2ebba9708c6ca039aa6f6c64cefe70b762e6622394fa7a1dbf3a5cf99c2676d23647c62c343fa826b100bc34b793b7f67e86da2fa0dbe6cf3bb9b38de197565c29bb23bd1ae97aee0d1b90ccb6f0f2e02e7f322962d5502721ee812e6f016ca5e8bdc32eed06a47fb2d61d2f2cf38efb811be8f6529b0efecfb9f8ce6f107d44d400afe05a39df3053715f4da1af4afc0815db399a12ad0f788067385c8917990c0c34ec829cf4e38ee3f34ff2d6a1735eb6b3e8b306fb1ccd22db25ea918d9cb477245b4538184eaf3896f1167ac1665fbb3051cba6e8e91fa7b7a14f6f6ae11074834b913bf4ac4ec131e22079b59435df138b7933a9ddc6c2c12f4687d51e060926ceb7e5638257fb5464ba7612d062763343f024c0357a404c51e9fc257cb84805986c055df86ad340c8da9e462bd0cdc544c95da9064dc257551a79d809c9614ba2225073411d6c62c843a4623ff0a57a07a2e8582cdf9bd812b5e83752638f1bdd7a18dcc1119ccb763574d1c6b5f1a43949feabe7b1e800047644c4c014310e77a6c8e4a5091e75dec6bc6e43928588b72aa4c8b78b9f5e4362b6dc576f6430a2e9e035a1f3bff668b71120e180552821f4bc12ffca45a97748a7f8ec061f6e093cb10ed90c879b62b3c05ea1199e6e779b0653ce4bda66638560e2b6e0614ae7972aa3dbeebd03cd73b75877f1addeacfc5fab476f11a4188f3a7d96dcefdaad5e0835297d06042f7bae4b1b58f21ec6555b02dae421172a43e853970eac32e5a81bbe8d8f71d4c967513443d95ed246e9764531adf0440a331efeae1c91e840f63c1fe17d2f953338ed77e441c352d5ce94f01e3c4f84e6d330b7892ac6e53c10eb8c51eb72fe390481d6129d58bf5cc8c50789f6f1034cc1e5babf7b55a42465adfab8ce454225a1f2e435c60697b999ab1bbcbd5e3eef9fc14223b3f494f535557667ca1a3abadb0b6c6dadcfe0b2022364e80cae4fa0f102f617f8187a3a8a9b7c0d2e4eff2f6ff00000000000000000000000000000011262f4101fd21050004b577cee8dbab7165459073a445910449402e386c3b47b2f63b9edded17754db15ba0802ae7a521842434b8089a0f9eb7c454267762db72369a700839734be02a9453b01feae45a31f2a855a9e384eac112609957264f292a435ab76079fae94fb3bc20b1203c71b96a2ff02b7d00fd9ee18de3712e629ad7894156e422a478fb09f6e438747f742b69a915cfb9f38695c5569b2dc2a2f6c0e3d7efbd0a6786332dc4cfde1962e066bcdb01280bb2347ecd6e8457a48fad8c96895e991beac4eebc84ebafd936cacdaf9e449331442ab8f1efdb6764e28f705c4b1895fec21e614c2363edeff38b625b5449ed5de833e0b20ddb4d35fe04b095adae0c15d8fb2e553fd078434c0e0219a22162f4792996a41801f0779ea66039aa29c29bc69998ee8457bb58753084bb71c5df048184be62794668ae662293f7430f8d952dff1b936a288a38aadfcf38d62284b1587af457cc19698bf59e83691f6869a53d1752a74895dae145d1939f861083c65cbf48cd1ab537ed65b6fa71d0628aa7d182192bf6c8e419d259d431f7831ce22a7ce433dd7a8a952065c153a36476d9295d8f2d6eaaa881b78c9b8a9a485c15c3b01b6f8b19f9174bbbf3a1290c6c5aa33ab791e911150328c7f320fd1c6506031550d73c863329a988c7c4cf4a705d6f315f83b545165e7d444bed0c4f35c010b9df5b727f13910e7d6de29eb74606eff05ea5975b7208f27717415652e3d2dd931c08104ce0c2e1be3f802db2b65199843645e63f66ff2f07b10cbce64879edfa2bd4c88e4c3cd9dcd15797b90a2c7a1f2e1133c88f39eb0b1c84502fb32037934151a95097bebbb413029392f70ef23268381425fc54e0305b987cf10c22fa29e1126fb76579e3e6314b51487572d943f70e16cf60b541f64f5c1e6d8fe87c4af813efa5a122a0662ab06f8de70c5bcae64535dbb220a72259cdefeacc7370fc29a4114b942d8e2afaab0f6905bb1706936aa29d97293b43972f355bb1ff750288d6665020ee3875d60b34dc00bbb4082a9602a43638b3ea2d3263a446f35922fe4141fff94b780f6db0183542241684b243ea3ff42fcc1dfd83f69d2747fa45f05746877b2affe4b0f5f8244565b56bca7b3dce52ca0a75fc34f7320c50ed36c7487ed90aa90f557fd7826fc8be6ad05e276207bd243c5ea1f7ec8f73271e3a2b4bb853f8ade25e8cbe2262c34eff382cdc59f93c71581cfb247a28148ea021bd4fbbfa74853bb4168089d452c14930e8ffc28434a25e9450824945d4bb5f22a5433e0a8cedf7a1c33458f64dafee5bff29fd61d3affcee0dccc1150a2a62e25a6cf4f6604175ab709a36f58832308cedbd28278827fce62c058062fee6393162562c79b43e62bda9a887e8557c5aeed3bbff3c67f11aac4875eaa1e6f880414d8bf6f47318fdae657f3213d6dd1205709ed24ee114ed7e530238ed7b836269d77b1ebe9c12b805dd469c92706985d950bb39ea4d9c79c62a8809d18a4743cbeb4ae9aa626e63c1f66b99c4652fbf94f926eb65ba9dfbe2a15d0260a5f1042c61d2bd5e2d057e2ef3202c98d2bb4da21fa3600a3b7b2a3f9dadbb464fe059a4aecd1b5d8d5564f69ed7487f59e3d7b809715d2f9ec8489d9f5653f6eb9143c83e3644ca87aca17e9db92f42c1042d4004ad722529545f09153d8948ff3031af5aa929f460fe5f6e7ed704ddbf622caccd8f3540d294446cdfb483f48327ed53b2bb39c19bea1916955d127c99c9df7aefa5faf31cbdf5ca7641f29c32f4f14f786345dbf8064218d610e4853cfea4c4944b59d6f3bf3278d69605b5c8be4e992852dd349dc5042c55d4d57d871a9bb97c000000",
  "txid": "4dd5e631d872eaf2efc068678b97c2d1104b02b54048adcdbde9e1090c4255f1",
  "hash": "75fbfa9ee4009516f7532af9f614a1ebe28f4c8c2e5d2ba2e506ac802574f601",
  "size": 5085,
  "vsize": 2278,
  "version": 1,
  "locktime": 124,
  "vin": [
    {
      "txid": "4f01f2e7019e9106f7dd35935816e45e6dba0634ec8d9ef739e6dc0844da0cca",
      "vout": 1,
      "scriptSig": {
        "asm": "",
        "hex": ""
      },
      "txinwitness": [
        "d6495b13d9cf8dbb77523c74c7d9f1d06ee0a7be6327dd3d0993b0365f711b1f066d1eb115f50f0984cae0808e9c11e5109182ffbc641ec701f4fa368126febae967d008afecee330eb7b1a75ddad5f6bcd8e6b443f4a55f8e3b1de6a81f98cfbf609b87b064cee9ac87e42541aff1463ca65e6b7e73e4b6fbb3840e9f98162fba0865a964379e6b0a5cb25520329bea44a2d85ca5f5cbb15bc4c07350503d4336753e4ef532eca17f9a76eb65df8e9a99b8ae3c0ea696f61c949e8dafbab5255145dbae50a8dbfe2e4f114592c2850b27ea092908e4f4126d48181becff08bf5e47764544d6d91aeb52157cd3ea294c50e3bf0f88026bf8d813b837302b0204ff88aa36db66e51f3cbd427c074661ae5f06acd3765a3569a374e9b249718eb1f1c56c34a4f5056320d1f69d3f7f369030cb8e5c99b8c2f69e30dd59bbd4024e9352f87ce8bbebd4b07f8b69efd388ae77f4316387e489ac5e2fe211531c82f682abc9d5fe859ea61feb3b812f593a6bf551c9fbcec223b0f4e52b35a06ff41eb55e76a42befb0ccccd52b76e0b5a21ac735af16b66a5773e91b279c110fbc9a383f52aa776c2363698837420ab1d2f65dfb74c193d3213bf832230ad2428eca68eb9e614d3a0fb55a81dbcaec2232d0152a87e7739b0f3b96fb69b6ac9bd93a4a04deab89f8a0d2268d473a876c9db1330d7012679e1107d191c9b68ce138f786176a7b5bf7281a5660a6b1aa3946034b5b58d8273f39a6484f230a9c11fbf086b1f5ce1670f590b6f5b815a2a239d739a4f83ca4600d16d73a1977b55fe35715654f7e6edb8b8c9cf997e4361650d46882a9bb10df366cadb0c00e5d9caacabe7c0f9c33f3537b9ff6883fe42197ab42e21ba3eebe69fa2a6935a384d6b99fdeeac9aef2197570545fed89514792d42ab28f6d352d9d7e5654fd8f7a35832e30bf79f93bb08fb7ccbef205cd75d956ec46dfc62e9a52d5658347496c9f10be698f27af561b599abd85ca4b9c0d104b2c5a8879764024da641fb014f4af6ef145ebe3ddb4c8048f81125aba95e31ac938f33f8b8d11a74c27feb1e5761f813747a66cf200b8154c5add4c60d527b66d74219b7bea4d44530167468acb24d82a139eeaa598b6c5eab3c790d953073faccedf8b622e305c8fa5564d7324ef6a6e5616538ea0b2559445895a535c79e41f73fbe4426ccb2a3108b8d0d8a4442e1608f52536cb3d3378c3f165561b1bc46c782065db26b0eceed39a85b59c204e963efc40a87c3dddf01c8686eb13d42a762058611c63eca27e8265f0617bcccd4b844f817a9331916cec624c3011b775aefbb536d91a613e7c1dc585804a83a67a6dffae5ecb3b0d077455835a4219d76d26556b531b3c3c181f15d5de723c9888ac50eabcfbd2cebbfbde947b34c5102407eb6f2f06f7d5ee25fc42634c3120784a586e698dd8fb75865914e2d3b2c773886aa6899545094242173622da41446121eeae425b15c1345e50de09da5c4b814afff14ccaac81ac8e992610067ebde885ee9dcd3ecfdad4be3a05a5cba89c0ddf2d62b79bde73308a82ac262cd300cb63c4c30d110535a526a9e35e9caec4dc08903a711be1030a5b5cda9a48c3c6cd2cc7478375a2a3ee2088024acf3601f992bb326081bcb9c346ada8923e9db3c5b4328b2b9fbf52eb2126da3424fc0307f73eaaa09a7ff47c478f773eb0a6694a1b361a4fe661d81c074187e367ce79a7e0ce52d3c60d32760b7ca3092aedcbb16ba7bdec2a0c089824a93fb1458f6390bc0e1895bf4125a9dbf4bb9e204ac90954718086cef69cc5772c313e5929c19b7a6fcc10f9218a42b184644d85dd8169ceab09ee3dc1feb3cdd42ad6dcc815a3c44c3b1497b745acf0af78623922ccbe3f2bc81bc223f2bb663c0904cd713a4f9ca9b97b5115b98f7c7a02649ac13c0c68f2102f0d78e31230d5a8369f6762ab85058cd13a4a3b6f03d34427f0c55c8b88fc937fe1c2a155ff666cd4d6d7d465a3ac809ab10000cf827e0517d2a2b709d10c30608ba8e451bcf76c178a412101f1c5ca5252f5d1f786c56d67a7e27404d3619ebf12f58072e8ba2074057a8139ed1fd31247a4d3a70d54effa66e751659f4ca3816ffb211e1d15382b5d1a24b5ae65aed97a2104ae0531893b5c70b83b919ab43b00f54997aa1a29e5d7a4529b111e62c46c3b4a17bf15e297de899c3f5c2bff353ed0ff99ed69b806a01eb9b0c3a1d98c8e9bfa23a1dd46d76d87fe7fc6c5965bc414f614aab7fa2d7a5345ef85447ffc97975df90c59ab81a304479700393ba09b06ec0a6296dfc8aad4e06c35f79549d3854f4429c205f145a9fd3aad0123b3905daafd9584facb77612a46925b69b2ebba9708c6ca039aa6f6c64cefe70b762e6622394fa7a1dbf3a5cf99c2676d23647c62c343fa826b100bc34b793b7f67e86da2fa0dbe6cf3bb9b38de197565c29bb23bd1ae97aee0d1b90ccb6f0f2e02e7f322962d5502721ee812e6f016ca5e8bdc32eed06a47fb2d61d2f2cf38efb811be8f6529b0efecfb9f8ce6f107d44d400afe05a39df3053715f4da1af4afc0815db399a12ad0f788067385c8917990c0c34ec829cf4e38ee3f34ff2d6a1735eb6b3e8b306fb1ccd22db25ea918d9cb477245b4538184eaf3896f1167ac1665fbb3051cba6e8e91fa7b7a14f6f6ae11074834b913bf4ac4ec131e22079b59435df138b7933a9ddc6c2c12f4687d51e060926ceb7e5638257fb5464ba7612d062763343f024c0357a404c51e9fc257cb84805986c055df86ad340c8da9e462bd0cdc544c95da9064dc257551a79d809c9614ba2225073411d6c62c843a4623ff0a57a07a2e8582cdf9bd812b5e83752638f1bdd7a18dcc1119ccb763574d1c6b5f1a43949feabe7b1e800047644c4c014310e77a6c8e4a5091e75dec6bc6e43928588b72aa4c8b78b9f5e4362b6dc576f6430a2e9e035a1f3bff668b71120e180552821f4bc12ffca45a97748a7f8ec061f6e093cb10ed90c879b62b3c05ea1199e6e779b0653ce4bda66638560e2b6e0614ae7972aa3dbeebd03cd73b75877f1addeacfc5fab476f11a4188f3a7d96dcefdaad5e0835297d06042f7bae4b1b58f21ec6555b02dae421172a43e853970eac32e5a81bbe8d8f71d4c967513443d95ed246e9764531adf0440a331efeae1c91e840f63c1fe17d2f953338ed77e441c352d5ce94f01e3c4f84e6d330b7892ac6e53c10eb8c51eb72fe390481d6129d58bf5cc8c50789f6f1034cc1e5babf7b55a42465adfab8ce454225a1f2e435c60697b999ab1bbcbd5e3eef9fc14223b3f494f535557667ca1a3abadb0b6c6dadcfe0b2022364e80cae4fa0f102f617f8187a3a8a9b7c0d2e4eff2f6ff00000000000000000000000000000011262f4101",
        "0004b577cee8dbab7165459073a445910449402e386c3b47b2f63b9edded17754db15ba0802ae7a521842434b8089a0f9eb7c454267762db72369a700839734be02a9453b01feae45a31f2a855a9e384eac112609957264f292a435ab76079fae94fb3bc20b1203c71b96a2ff02b7d00fd9ee18de3712e629ad7894156e422a478fb09f6e438747f742b69a915cfb9f38695c5569b2dc2a2f6c0e3d7efbd0a6786332dc4cfde1962e066bcdb01280bb2347ecd6e8457a48fad8c96895e991beac4eebc84ebafd936cacdaf9e449331442ab8f1efdb6764e28f705c4b1895fec21e614c2363edeff38b625b5449ed5de833e0b20ddb4d35fe04b095adae0c15d8fb2e553fd078434c0e0219a22162f4792996a41801f0779ea66039aa29c29bc69998ee8457bb58753084bb71c5df048184be62794668ae662293f7430f8d952dff1b936a288a38aadfcf38d62284b1587af457cc19698bf59e83691f6869a53d1752a74895dae145d1939f861083c65cbf48cd1ab537ed65b6fa71d0628aa7d182192bf6c8e419d259d431f7831ce22a7ce433dd7a8a952065c153a36476d9295d8f2d6eaaa881b78c9b8a9a485c15c3b01b6f8b19f9174bbbf3a1290c6c5aa33ab791e911150328c7f320fd1c6506031550d73c863329a988c7c4cf4a705d6f315f83b545165e7d444bed0c4f35c010b9df5b727f13910e7d6de29eb74606eff05ea5975b7208f27717415652e3d2dd931c08104ce0c2e1be3f802db2b65199843645e63f66ff2f07b10cbce64879edfa2bd4c88e4c3cd9dcd15797b90a2c7a1f2e1133c88f39eb0b1c84502fb32037934151a95097bebbb413029392f70ef23268381425fc54e0305b987cf10c22fa29e1126fb76579e3e6314b51487572d943f70e16cf60b541f64f5c1e6d8fe87c4af813efa5a122a0662ab06f8de70c5bcae64535dbb220a72259cdefeacc7370fc29a4114b942d8e2afaab0f6905bb1706936aa29d97293b43972f355bb1ff750288d6665020ee3875d60b34dc00bbb4082a9602a43638b3ea2d3263a446f35922fe4141fff94b780f6db0183542241684b243ea3ff42fcc1dfd83f69d2747fa45f05746877b2affe4b0f5f8244565b56bca7b3dce52ca0a75fc34f7320c50ed36c7487ed90aa90f557fd7826fc8be6ad05e276207bd243c5ea1f7ec8f73271e3a2b4bb853f8ade25e8cbe2262c34eff382cdc59f93c71581cfb247a28148ea021bd4fbbfa74853bb4168089d452c14930e8ffc28434a25e9450824945d4bb5f22a5433e0a8cedf7a1c33458f64dafee5bff29fd61d3affcee0dccc1150a2a62e25a6cf4f6604175ab709a36f58832308cedbd28278827fce62c058062fee6393162562c79b43e62bda9a887e8557c5aeed3bbff3c67f11aac4875eaa1e6f880414d8bf6f47318fdae657f3213d6dd1205709ed24ee114ed7e530238ed7b836269d77b1ebe9c12b805dd469c92706985d950bb39ea4d9c79c62a8809d18a4743cbeb4ae9aa626e63c1f66b99c4652fbf94f926eb65ba9dfbe2a15d0260a5f1042c61d2bd5e2d057e2ef3202c98d2bb4da21fa3600a3b7b2a3f9dadbb464fe059a4aecd1b5d8d5564f69ed7487f59e3d7b809715d2f9ec8489d9f5653f6eb9143c83e3644ca87aca17e9db92f42c1042d4004ad722529545f09153d8948ff3031af5aa929f460fe5f6e7ed704ddbf622caccd8f3540d294446cdfb483f48327ed53b2bb39c19bea1916955d127c99c9df7aefa5faf31cbdf5ca7641f29c32f4f14f786345dbf8064218d610e4853cfea4c4944b59d6f3bf3278d69605b5c8be4e992852dd349dc5042c55d4d57d871a9bb9"
      ],
      "sequence": 4294967294
    }
  ],
  "vout": [
    {
      "value": 499987.7972,
      "n": 0,
      "scriptPubKey": {
        "asm": "1 1c5b29972272a2dd4e47b2efd4bf34a0fba10350abdbac0a4a1fcef8d7e5000b",
        "hex": "51201c5b29972272a2dd4e47b2efd4bf34a0fba10350abdbac0a4a1fcef8d7e5000b",
        "reqSigs": 1,
        "type": "witness_v1_scripthash",
        "addresses": [
          "3QJmnh"
        ]
      }
    },
    {
      "value": 1.0,
      "n": 1,
      "scriptPubKey": {
        "asm": "OP_RETURN 4655af635dfe445338dd9e83552b48f73fd60257769a18e39ef6b82ef9e6d020 e8b250942b4ce2e8e0c42dddc8af89bea33e00e10da59c7ba0a058dcff7c0920c89270b40b6cc2c8c0e40dfde88fa99e831e20c12d85bc5b808078fcdf5c2900a8f210d46b0ca2a8a0846d9d88efc9fee37e40a14de5dc3be0e0189cbf3c496088d230f44b2c828880a44dbda8cfe9dec35e60816dc5fc1bc0c038bc9f1c69406832d014abcc62686044ad5d482f093e23be80618d251cfb2020d85c7ffc89a04812f0348bec424840648d7d680f291e039ea041ad053cdb0000f87c5fdca98028729054eb8c22282004ed1d086f497e63fec021cd655cbb6060981c3fbcc9e00852b074cbac02080024cd3d284f695e43dee001ed457c9b4040b83c1f9ce9c0e8b250942b4ce2e8e0c42dddc8af89bea33e00e10da59c7ba0a058dcff7c0920c89270b40b6cc2c8c0e40dfde88fa99e831e20c12d85bc5b808078fcdf5c2900a8f210d46b0ca2a8a0846d9d88efc9fee37e40a14de5dc3be0e0189cbf3c496088d230f44b2c828880a44dbda8cfe9dec35e60816dc5fc1bc0c038bc9f1c69406832d014abcc62686044ad5d482f093e23be80618d251cfb2020d85c7ffc89a04812f0348bec424840648d7d680f291e039ea041ad053cdb0000f87c5fdca98028729054eb8c22282004ed1d086f497e63fec021cd655cbb6060981c3fbcc9e00852b074cbac02080024cd3d284f695e43dee001ed457c9b4040b83c1f9ce9c0e8b250942b4ce2e8e0c42dddc8af89bea33e00e10da59c7ba0a058dcff7c0920c89270b40b6cc2c8c0e40dfde88fa99e831e20c12d85bc5b808078fcdf5c2900a8f210d46b0ca2a8a0846d9d88efc9fee37e40a14de5dc3be0e0189cbf3c496088d230f44b2c828880a44dbda8cfe9dec35e60816dc5fc1bc0c038bc9f1c69406832d014abcc62686044ad5d482f093e23be80618d251cfb2020d85c7ffc89a04812f0348bec424840648d7d680f291e039ea041ad053cdb0000f87c5fdca98028729054eb8c22282004ed1d086f497e63fec021cd655cbb6060981c3fbcc9e00852b074cbac02080024cd3d284f695e43dee001ed457c9b4040b83c1f9ce9c0e8b250942b4ce2e8e0c42dddc8af89bea33e00e10da59c7ba0a058dcff7c0920c89270b40b6cc2c8c0e40dfde88fa99e831e20c12d85bc5b808078fcdf5c2900a8f210d46b0ca2a8a0846d9d88efc9fee37e40a14de5dc3be0e0189cbf3c496088d230f44b2c828880a44dbda8cfe9dec35e60816dc5fc1bc0c038bc9f1c69406832d014abcc62686044ad5d482f093e23be80618d251cfb2020d85c7ffc89a04812f0348bec424840648d7d680f291e039ea041ad053cdb0000f87c5fdca98028729054eb8c22282004ed1d086f497e63fec021cd655cbb6060981c3fbcc9e00852b074cbac02080024cd3d284f695e43dee001ed457c9b4040b83c1f9ce9c0e8b250942b4ce2e8e0c42dddc8af89bea33e00e10da59c7ba0a058dcff7c0920c89270b40b6cc2c8c0e40dfde88fa99e831e20c12d85bc5b808078fcdf5c2900a8f210d46b0ca2a8a0846d9d88efc9fee37e40a14de5dc3be0e0189cbf3c496088d230f44b2c828880a44dbda8cfe9dec35e60816dc5fc1bc0c038bc9f1c69406832d014abcc62686044ad5d482f093ea37f28cfb40cabb2db805001a9e3bfe2e64abfb6cc17c1fe975785ec8b78d6a9",
        "hex": "6a204655af635dfe445338dd9e83552b48f73fd60257769a18e39ef6b82ef9e6d0204db004e8b250942b4ce2e8e0c42dddc8af89bea33e00e10da59c7ba0a058dcff7c0920c89270b40b6cc2c8c0e40dfde88fa99e831e20c12d85bc5b808078fcdf5c2900a8f210d46b0ca2a8a0846d9d88efc9fee37e40a14de5dc3be0e0189cbf3c496088d230f44b2c828880a44dbda8cfe9dec35e60816dc5fc1bc0c038bc9f1c69406832d014abcc62686044ad5d482f093e23be80618d251cfb2020d85c7ffc89a04812f0348bec424840648d7d680f291e039ea041ad053cdb0000f87c5fdca98028729054eb8c22282004ed1d086f497e63fec021cd655cbb6060981c3fbcc9e00852b074cbac02080024cd3d284f695e43dee001ed457c9b4040b83c1f9ce9c0e8b250942b4ce2e8e0c42dddc8af89bea33e00e10da59c7ba0a058dcff7c0920c89270b40b6cc2c8c0e40dfde88fa99e831e20c12d85bc5b808078fcdf5c2900a8f210d46b0ca2a8a0846d9d88efc9fee37e40a14de5dc3be0e0189cbf3c496088d230f44b2c828880a44dbda8cfe9dec35e60816dc5fc1bc0c038bc9f1c69406832d014abcc62686044ad5d482f093e23be80618d251cfb2020d85c7ffc89a04812f0348bec424840648d7d680f291e039ea041ad053cdb0000f87c5fdca98028729054eb8c22282004ed1d086f497e63fec021cd655cbb6060981c3fbcc9e00852b074cbac02080024cd3d284f695e43dee001ed457c9b4040b83c1f9ce9c0e8b250942b4ce2e8e0c42dddc8af89bea33e00e10da59c7ba0a058dcff7c0920c89270b40b6cc2c8c0e40dfde88fa99e831e20c12d85bc5b808078fcdf5c2900a8f210d46b0ca2a8a0846d9d88efc9fee37e40a14de5dc3be0e0189cbf3c496088d230f44b2c828880a44dbda8cfe9dec35e60816dc5fc1bc0c038bc9f1c69406832d014abcc62686044ad5d482f093e23be80618d251cfb2020d85c7ffc89a04812f0348bec424840648d7d680f291e039ea041ad053cdb0000f87c5fdca98028729054eb8c22282004ed1d086f497e63fec021cd655cbb6060981c3fbcc9e00852b074cbac02080024cd3d284f695e43dee001ed457c9b4040b83c1f9ce9c0e8b250942b4ce2e8e0c42dddc8af89bea33e00e10da59c7ba0a058dcff7c0920c89270b40b6cc2c8c0e40dfde88fa99e831e20c12d85bc5b808078fcdf5c2900a8f210d46b0ca2a8a0846d9d88efc9fee37e40a14de5dc3be0e0189cbf3c496088d230f44b2c828880a44dbda8cfe9dec35e60816dc5fc1bc0c038bc9f1c69406832d014abcc62686044ad5d482f093e23be80618d251cfb2020d85c7ffc89a04812f0348bec424840648d7d680f291e039ea041ad053cdb0000f87c5fdca98028729054eb8c22282004ed1d086f497e63fec021cd655cbb6060981c3fbcc9e00852b074cbac02080024cd3d284f695e43dee001ed457c9b4040b83c1f9ce9c0e8b250942b4ce2e8e0c42dddc8af89bea33e00e10da59c7ba0a058dcff7c0920c89270b40b6cc2c8c0e40dfde88fa99e831e20c12d85bc5b808078fcdf5c2900a8f210d46b0ca2a8a0846d9d88efc9fee37e40a14de5dc3be0e0189cbf3c496088d230f44b2c828880a44dbda8cfe9dec35e60816dc5fc1bc0c038bc9f1c69406832d014abcc62686044ad5d482f093ea37f28cfb40cabb2db805001a9e3bfe2e64abfb6cc17c1fe975785ec8b78d6a9",
        "type": "nulldata"
      }
    }
  ],
  "blockhash": "fe93069f37b49cfb15542a42b300d4e9dc573fdbbe6c5d081907ef62d551896a",
  "confirmations": 1,
  "time": 1764180962,
  "blocktime": 1764180962
}