{
  "hex": "01000000000101352a741cd18ae5c097a15b48caf00a4e25648014932f8bdb695fe66b3ef7fb220100000000feffffff029021522d792d0000225120d8c7a93967c4fdb7dd594a74f4c423a666bc0137ea5cd846721c4bfb4a103ce100e1f50500000000fdd5046a20ffb864fb10c86dd62e293b27e6d30db0baf5ada8cfac1b1d2ac3dd4c6232d0014db004ce0cf446a0ab22f0cec423aea4c06342a665967968649ceade2edf152fc400efee2cd466808b02d0eee4038e84e043628645b6594844bccafe0eff350fe420cf8e4cb406e0eb62b08e8463eee4802302e625d6392824dcaa9e6e9f556f8440afae6c9426c0cb4290aea443cec4a00322c605f6190804fc8abe4ebf754fa4608f4e8c74c6202ba2704e44a32e2440e3c226e516f9e8e41c6a5eae5f95af44806f6eac54e6000b82506e64830e0460c3e206c536d9c8c43c4a7e8e7fb58f64a04f0ecc3486606be2300e04e36e6400a38266a556b9a8a45c2a1eee1fd5ef04c02f2eec14a6404bc2102e24c34e442083a24685769988847c0a3ece3ff5cf24e00fce0cf446a0ab22f0cec423aea4c06342a665967968649ceade2edf152fc400efee2cd466808b02d0eee4038e84e043628645b6594844bccafe0eff350fe420cf8e4cb406e0eb62b08e8463eee4802302e625d6392824dcaa9e6e9f556f8440afae6c9426c0cb4290aea443cec4a00322c605f6190804fc8abe4ebf754fa4608f4e8c74c6202ba2704e44a32e2440e3c226e516f9e8e41c6a5eae5f95af44806f6eac54e6000b82506e64830e0460c3e206c536d9c8c43c4a7e8e7fb58f64a04f0ecc3486606be2300e04e36e6400a38266a556b9a8a45c2a1eee1fd5ef04c02f2eec14a6404bc2102e24c34e442083a24685769988847c0a3ece3ff5cf24e00fce0cf446a0ab22f0cec423aea4c06342a665967968649ceade2edf152fc400efee2cd466808b02d0eee4038e84e043628645b6594844bccafe0eff350fe420cf8e4cb406e0eb62b08e8463eee4802302e625d6392824dcaa9e6e9f556f8440afae6c9426c0cb4290aea443cec4a00322c605f6190804fc8abe4ebf754fa4608f4e8c74c6202ba2704e44a32e2440e3c226e516f9e8e41c6a5eae5f95af44806f6eac54e6000b82506e64830e0460c3e206c536d9c8c43c4a7e8e7fb58f64a04f0ecc3486606be2300e04e36e6400a38266a556b9a8a45c2a1eee1fd5ef04c02f2eec14a6404bc2102e24c34e442083a24685769988847c0a3ece3ff5cf24e00fce0cf446a0ab22f0cec423aea4c06342a665967968649ceade2edf152fc400efee2cd466808b02d0eee4038e84e043628645b6594844bccafe0eff350fe420cf8e4cb406e0eb62b08e8463eee4802302e625d6392824dcaa9e6e9f556f8440afae6c9426c0cb4290aea443cec4a00322c605f6190804fc8abe4ebf754fa4608f4e8c74c6202ba2704e44a32e2440e3c226e516f9e8e41c6a5eae5f95af44806f6eac54e6000b82506e64830e0460c3e206c536d9c8c43c4a7e8e7fb58f64a04f0ecc3486606be2300e04e36e6400a38266a556b9a8a45c2a1eee1fd5ef04c02f2eec14a6404bc2102e24c34e442083a24685769988847c0a3ece3ff5cf24e00fce0cf446a0ab22f0cec423aea4c06342a665967968649ceade2edf152fc400efee2cd466808b02d0eee4038e84e043628645b6594844bccafe0eff350fe420cf8e4cb406e0eb62b08e8463eee4802302e625d6392824dcaa9e6e9f556f8440afae6c9426c0cb4290aea443cec4a00322c605f6190804fc8abe4ebf754fa4608f4e8c74c6202ba2704e44a32e2440e3c2e3a03b9fcef3e12eb44c72e2cf5953a59c508625f92d09a51cddd0e1def5c59202fd750915c07bb38e19b47f74798398c954127d80f381f87768715d5e2dfbc418d99fa9ad9b8a9d4483295f84d57d14d550d24556afa97d281882007467b4e59c4a66f2bb8c35d916f01912d9f4e7fa6cb53c398b4272526921ae263907a5908d4d58c3daa4caba9c61717001094a403fe1231a04f0bd2aba3c98d010bdda1083d52a5874e8fa346b10e6cca63972c9d3e16e1d4470a02a0ccbf196ff1ebf1fdcbcba0aeadc76014233515c0aee81e8b38c14da4d606b87847dc642211dabc26cbf2bdce77ce418a8081509a5a4a47aa38a01629e7b0d35eb27dd33278db6b299ab8bc5646dc94524dc933d5106eee287ed85bd1729efab433d6a9f01ebcb946a39147d239d1c01b025fcd5bf8562d39f023c4f04ae73738799cf7a949dd2135a50a20db126462b78c4ea9e4b62d272397775a6efc3defe1084cde2e137d2387e87f02c3a0cc8e294e34c56066a951610ef061c55d8ca66f7ebacab777c2830789b4598d374380bf3572615574571191f35120e59eee61a72d85afada22a2b48a5a46cc682ff6de6b38cb9e7bfc35249cc0dd5834f90fa881dae74f0b8fd00366bd71dadc62afcfbc1f1bc3964b92ae129ce89e3803975df08276af11f069589d3165ded8737fb33a4b1c7f702320ff1d549ccb633195ed4857cf067ca443909da2da33e8e226f69f4ebd28dd6b14c2da912ef8782ad3553092b70820d658613c564ace51da389a29aed5ca8d95e82f91600d6c2fc3281a77ac1e88ef04c81bd7c317f109f2e9b5ec68d17939e50696bdeb56c9db55f1ea1deb80c5be8c8f62b890cb6de47fb40ca6de4cd9e550bfa16c6cd1d359d8d899832411ad1fa3c9729e8f966309a1977adf7e37a64bddecbbf54934a6cc188bea88d4278079e27169e3f6203690409eb84de885a2f799506dfced03c4bd56635ce397922332260f90e43bb4ed140469f7f9f12e7a9e495725b6adf3fd4faa67f35357fe0ad644594c348f1a07d718221819fb2e0cdac1aa8aaed1c42f0a75c50058ce26a7891da326e63da034088b80d8c6d56ccf3dd2454e67366e435d7207dac0b4c50ed827428798d1dffd54294f40b7e7aca6a26035c510b3df63b472148e3cd681d27eb15cad7dc733268900b4b7b2110aae85a5e0c99899b64cc565b0b3ffaef766e187d1ed456114e88370793dff128e266d5eef5248ba98928f15dcd2efd52eb35a147f08df282b8c9ed049dfa884af5b8e75790f1a779d6103d1ecf9ad06978e34260d5142940b5c5959715308cbfa11795186669aec6f9b9de207f51e14ea22c9ed617ff25278fb2072345010a696810e1135878e9ba2997326cab0a21c564a67c2d1ccb9107712fb091d18efc271ef18b33fcbe4a9adb9ed5a0f02a382eb746141cb03fab172518672b2fd45ba788cf8a319ace6d76991ccfa7ca527b2f761cee3fde31e85b53a5c759b301c659ff29f24706c823727de87efac16f888d4f40d77a30413c6553796c6c5a525384f894c730fcd1add778afbf208d478cc8efd4eb5f9b46a37ffe999253932047418feccfb4d453799a35f46786e395cefcf078edbf2dc72ed778bf0d00ba6a844a884191d645cfcf68fd0e39ebf1af775fea16224813692c27565564bdd7320d3e0b954cb6a75960982e9629e9c06c09e2952e7c8c6b9abfa16ce9169ee589724e28c9bc6d4d39c5a970080931f9e58b897d5d343a5c891270d5c54befb6182dc3608ef4efe992d8c986458deaf154b659bfe866c70d9b0b2ac2c635dcc0a97550637d453a76aa3b54396180ba6fa8248bd38599825d51fd412bc54555f90ad34d4ea9799dfb54d6692660d2bf080cc785ddc1a87e51061b203ea3a9513dfa59e5c41af575637e5771b6e8e5a36748c2d326e1b678dffd4eaf760d8c73e69ce2083113fb1236c9fc675a64232e3c055569631218f70731112ea96a5c513885dbfe8cce89271ddf5b8de78dd8d7ca5662738e9378fbf1f3f7689e1fea33a21d2ba02cef98a07c9d227e289f566efd5baeae49728e8a7c5f65121ece55fdd1addfe2ff6f41ca0138ed503434fda221fa48d8c16e52d344c6234d733940835b59213c4ec4c0bc7999875a743587d3d4bd4dfdc450a8b4adfe8bf7a8df7ca1cdfcaa24d11c75c72e55f00dabc410730028839d2c7d68af639a770d4175c25acea4439b5867e2896ce46d328bd61d4bfe4779a406bdf0dbd6fbfac7748c98ecd8270749eab14006ae2ee0828b1c5e1f2ada5c699d48efa1b000c7d06df76adee3dd913f03f08b10bfd6d1d3330232a126298e85b68070f449929a50a9aff4dd6c790d874f475bb7df37478f6bd357a133af7001cf346bda5963f3f66eddb379bc548a2db22b956a74a6989202afe9f007143b7899c184df4d5b7d3c7b98fa984f091d1780081ab75a46716f964d6c323637b493f9d6f94abdb20c66cf69f473a64eacdd71f3f27073fcd0a3aba00c273eb753c11e030d0bb4525edac414dd43b5270bee0205e8aaea90cb69a6c4eb13a321a961385e8dce3d6b6e24a082b95be8d77d1f2a4209283d3f3a3512f3608dfd4ff1c6dfc56ef4073cd7ecf19c4e5b4a469937409f0c0fc3789ad9cd8f2a30cc5dfb32194bb9efedb6e0e29534a348769b268fcf0b3b98e93aee5fc16e2d20cc37816d0875fb92e2edcdb1dbde43f126df37a117b3cd3922e706b25176d8c6d599b88150c95fb89f988e37fa67b44918db4c9b51eb8b6b3da9cc9c41e859f75a12816cbc870492779c56cf13523e4c6c7a52c153fa66563b57d41270c06cc64ade2f8194d6d02eb926521c6f47245d26bb47f83f390e213dde39b09c882fb5013afc02f96f95e8278f2c66565ebd79694cf34028637fa6c9fe9fe8d9de0e1dafc13d0a303eb8340fa826e8336a0e01aa8777de6cd70b3077bad9d274fe62100497607740554dd2dcdc7bf2a9fd3399f945665fec965a3561d60b0e1b1fecf5fb9992789fc1f51dd7ae00334094397df0ce9edee59cf7e306d3d8b7e312b9e79dc1e8b3dd1551f434f25b98188050e64d0f83d978d2edcdf0b681e9f760d8ce4c1e8686a51df0c0a8126e7373ed34852d47c01264334296f0ef10a0b653bc2f099575ac22f6f016003315c447afd6a39d1296e98bb26c3f407c4a037c0ac6fd8354996a91ece2c06a6423167c2660e9744d7b34dfbb99bd53cf1028586afd008f50f47d297bfefa52e4eb77dc97c70d7e3c9f8fccb1a3e8982c625e68ae9839719969223130a456eb6108f8aea1057b0ce460e79f0c2851362720fc71cfc3160596d18398b92b778fcbc44e7c70205060710141b313a4f6287999aa1a5f1f3f9000e2a3866a2c4cbd3dae7f1141a1d2b2d3f7076838899c3cad0f3f61d3a78798c8d94ccee000000000000000000000000000000000000000000000000131f2f3801fd210500d57d03dd650ad187623ca1753c59cdaf0a40b378ed743cb2ad9d78afcf45984b720bec9ed3f27f6d20785d48c7e7b207c954e4fb8da2be4c8ae8c51bd1c0fb5b7f1eef00a9075609c8ba814494f6c4b7acde3b6eab6b2ba5621cca22b065ad9b5a4ddf1996988bea28f5239a012b459f70d218e542ca4807bf7aa792e4bff7f08a392ea1a90f1cecc8f6bd0e8727c5f5746518f8855918106eaa9b8dee587d6edf6c0c13256eb5f02f64f29e591eea43004e12866f0b69dabd50d8b4a330a8f43a2c07d1a55886a70245c0cc3637f03197cfb21813cde80f44a1629e5bd7d2e1c464f8a7aa2105e62184e9451680a2f2edd7983412bdc323ed3e1c73a0a825a72f4b79470fda0c8365fa69f9469f795bc077835183671fa909dcfbde78fcf6361e0984da1ee908efed02db98587ca7d7a79c39e825789184d76048c293b97c0b4d9f2f3c99daa77a445abf9eb8ac92c36c254f5a25adc9d0459479b0031129ffc74e6a0980eca1cd179d96f4e2e38260c64270f50c07a9da3aff5c1ba5c40a701dd0e9562ff39176a2bebf5de0b7746dcbd727c18219dabf593e48d3603349716434eb79ff6bbce80b15170b0e76e8b36cd8e7b9b18bed9451057c1a449add6685d5e30954507405540330ff08b86fda97b043ac2d0fe10ae32939586935c4d98d2705389ef454c59f476580ed32e6fcf3723c0abf6e452fee9c617550a900b53c076be6bcb5cfad04a17fef11041c592e797c40e1378698df6627c48f08c5c5198b07b87d5098ad8f8f819bdb8d956c6aef279603356545b13a49f2e9700ac5696b5e4b233d49083fc23cf84351582a2188398b4e9e74b42d9199ebbd3de777671595c4897717e93f7dc68974c5d6ad1d6ef7ab7a994451700fdfc9ee73e48b9763bd9bae189da20eda428230c55f7608b2281f7be9ac9b943455264831fc23dc693c087fc7e12538a7e1b845f7a919cbee01e462b1c8f16ae892736d8336e614d7c9d5c3a58a3629f8f7208868cd3f0ed5b63fa971f31a6bf729329cfb1c6ca3066b6df457829a8c8ad65ca4af7812f87bcee181b92fa657ec438ef75518be3c135af5494a3ae8f1b80aba7ab3d070c82b22f70992e4793c7b779212729c50bd05acba71f6325e8de770fc35589e234c927b4d54c81635987b8391a124426fb8e800afc449cda07831a5b05cf3d5675fe7e0984a56be0635949dc5fedbdac8e0bac38ae00374e789acf836d7954b32c20cf0b601c3d8fd1a4fd84f4bb49417583d2d1f34c325eaa69f74bb67d27537538e59c4ccfe7c3a4f390a7dce1d7ed3e13f8d7e5878753984a6c37cd3da64074a767f7b1d7278c617f693f43745912721aeef2a49a890691393a60310e4460e0564d7f75a81d5ac1c8446a3c7f06fb23143f3230d2eca4e887603417c0332dc990b8e16bdf8f16446f60ee4e2623330dd204eb55632bc27a4db0aa25e8456d29e78a1857b6c1d6fe02692197d7c951685ec0aa576a0534ae035ee5b1568e2faa5e11bd43ff56f96eefbdc36ffdbec756a1f4847f0a133463de7d483d83db369cb0df54aa0028fdc7799ff991abc6e8ff9682eaf45e8b8082480e1f2c11bdae847d3dc97d282f8dbe49d056f13c4314d3f9ded040434e65580ad1b9d7a432441cb67a245afa7f8876cd0c11876dd400ba3ab7f3d2be0ddd63be27191ee5791c108f83bc8ed933e4e65c95c5647e67b619791d6be7daf5c6fcfdebc1c575532fb26ddc19da184dc0bc65b5efc7113697a5b0245e193d1446960043ee4370e2d0c5c744ee14d330603d24d49ba5d03bbea7439c07b38cde08ca1eb0d00dce15c381063e2e5a39636a92cf4bef497817d6870000000",
  "txid": "413cb0bf7beda70a8ffc649d26079d3ba1d80c8ab86a308daa210878f452fcbb",
  "hash": "370a874b4609dc588165dd79d4f2e4c083980305b6449b51595f0ecb27e750c0",
  "size": 5085,
  "vsize": 2278,
  "version": 1,
  "locktime": 112,
  "vin": [
    {
      "txid": "22fbf73e6be65f69db8b2f93148064254e0af0ca485ba197c0e58ad11c742a35",
      "vout": 1,
      "scriptSig": {
        "asm": "",
        "hex": ""
      },
      "txinwitness": [
        "15c07bb38e19b47f74798398c954127d80f381f87768715d5e2dfbc418d99fa9ad9b8a9d4483295f84d57d14d550d24556afa97d281882007467b4e59c4a66f2bb8c35d916f01912d9f4e7fa6cb53c398b4272526921ae263907a5908d4d58c3daa4caba9c61717001094a403fe1231a04f0bd2aba3c98d010bdda1083d52a5874e8fa346b10e6cca63972c9d3e16e1d4470a02a0ccbf196ff1ebf1fdcbcba0aeadc76014233515c0aee81e8b38c14da4d606b87847dc642211dabc26cbf2bdce77ce418a8081509a5a4a47aa38a01629e7b0d35eb27dd33278db6b299ab8bc5646dc94524dc933d5106eee287ed85bd1729efab433d6a9f01ebcb946a39147d239d1c01b025fcd5bf8562d39f023c4f04ae73738799cf7a949dd2135a50a20db126462b78c4ea9e4b62d272397775a6efc3defe1084cde2e137d2387e87f02c3a0cc8e294e34c56066a951610ef061c55d8ca66f7ebacab777c2830789b4598d374380bf3572615574571191f35120e59eee61a72d85afada22a2b48a5a46cc682ff6de6b38cb9e7bfc35249cc0dd5834f90fa881dae74f0b8fd00366bd71dadc62afcfbc1f1bc3964b92ae129ce89e3803975df08276af11f069589d3165ded8737fb33a4b1c7f702320ff1d549ccb633195ed4857cf067ca443909da2da33e8e226f69f4ebd28dd6b14c2da912ef8782ad3553092b70820d658613c564ace51da389a29aed5ca8d95e82f91600d6c2fc3281a77ac1e88ef04c81bd7c317f109f2e9b5ec68d17939e50696bdeb56c9db55f1ea1deb80c5be8c8f62b890cb6de47fb40ca6de4cd9e550bfa16c6cd1d359d8d899832411ad1fa3c9729e8f966309a1977adf7e37a64bddecbbf54934a6cc188bea88d4278079e27169e3f6203690409eb84de885a2f799506dfced03c4bd56635ce397922332260f90e43bb4ed140469f7f9f12e7a9e495725b6adf3fd4faa67f35357fe0ad644594c348f1a07d718221819fb2e0cdac1aa8aaed1c42f0a75c50058ce26a7891da326e63da034088b80d8c6d56ccf3dd2454e67366e435d7207dac0b4c50ed827428798d1dffd54294f40b7e7aca6a26035c510b3df63b472148e3cd681d27eb15cad7dc733268900b4b7b2110aae85a5e0c99899b64cc565b0b3ffaef766e187d1ed456114e88370793dff128e266d5eef5248ba98928f15dcd2efd52eb35a147f08df282b8c9ed049dfa884af5b8e75790f1a779d6103d1ecf9ad06978e34260d5142940b5c5959715308cbfa11795186669aec6f9b9de207f51e14ea22c9ed617ff25278fb2072345010a696810e1135878e9ba2997326cab0a21c564a67c2d1ccb9107712fb091d18efc271ef18b33fcbe4a9adb9ed5a0f02a382eb746141cb03fab172518672b2fd45ba788cf8a319ace6d76991ccfa7ca527b2f761cee3fde31e85b53a5c759b301c659ff29f24706c823727de87efac16f888d4f40d77a30413c6553796c6c5a525384f894c730fcd1add778afbf208d478cc8efd4eb5f9b46a37ffe999253932047418feccfb4d453799a35f46786e395cefcf078edbf2dc72ed778bf0d00ba6a844a884191d645cfcf68fd0e39ebf1af775fea16224813692c27565564bdd7320d3e0b954cb6a75960982e9629e9c06c09e2952e7c8c6b9abfa16ce9169ee589724e28c9bc6d4d39c5a970080931f9e58b897d5d343a5c891270d5c54befb6182dc3608ef4efe992d8c986458deaf154b659bfe866c70d9b0b2ac2c635dcc0a97550637d453a76aa3b54396180ba6fa8248bd38599825d51fd412bc54555f90ad34d4ea9799dfb54d6692660d2bf080cc785ddc1a87e51061b203ea3a9513dfa59e5c41af575637e5771b6e8e5a36748c2d326e1b678dffd4eaf760d8c73e69ce2083113fb1236c9fc675a64232e3c055569631218f70731112ea96a5c513885dbfe8cce89271ddf5b8de78dd8d7ca5662738e9378fbf1f3f7689e1fea33a21d2ba02cef98a07c9d227e289f566efd5baeae49728e8a7c5f65121ece55fdd1addfe2ff6f41ca0138ed503434fda221fa48d8c16e52d344c6234d733940835b59213c4ec4c0bc7999875a743587d3d4bd4dfdc450a8b4adfe8bf7a8df7ca1cdfcaa24d11c75c72e55f00dabc410730028839d2c7d68af639a770d4175c25acea4439b5867e2896ce46d328bd61d4bfe4779a406bdf0dbd6fbfac7748c98ecd8270749eab14006ae2ee0828b1c5e1f2ada5c699d48efa1b000c7d06df76adee3dd913f03f08b10bfd6d1d3330232a126298e85b68070f449929a50a9aff4dd6c790d874f475bb7df37478f6bd357a133af7001cf346bda5963f3f66eddb379bc548a2db22b956a74a6989202afe9f007143b7899c184df4d5b7d3c7b98fa984f091d1780081ab75a46716f964d6c323637b493f9d6f94abdb20c66cf69f473a64eacdd71f3f27073fcd0a3aba00c273eb753c11e030d0bb4525edac414dd43b5270bee0205e8aaea90cb69a6c4eb13a321a961385e8dce3d6b6e24a082b95be8d77d1f2a4209283d3f3a3512f3608dfd4ff1c6dfc56ef4073cd7ecf19c4e5b4a469937409f0c0fc3789ad9cd8f2a30cc5dfb32194bb9efedb6e0e29534a348769b268fcf0b3b98e93aee5fc16e2d20cc37816d0875fb92e2edcdb1dbde43f126df37a117b3cd3922e706b25176d8c6d599b88150c95fb89f988e37fa67b44918db4c9b51eb8b6b3da9cc9c41e859f75a12816cbc870492779c56cf13523e4c6c7a52c153fa66563b57d41270c06cc64ade2f8194d6d02eb926521c6f47245d26bb47f83f390e213dde39b09c882fb5013afc02f96f95e8278f2c66565ebd79694cf34028637fa6c9fe9fe8d9de0e1dafc13d0a303eb8340fa826e8336a0e01aa8777de6cd70b3077bad9d274fe62100497607740554dd2dcdc7bf2a9fd3399f945665fec965a3561d60b0e1b1fecf5fb9992789fc1f51dd7ae00334094397df0ce9edee59cf7e306d3d8b7e312b9e79dc1e8b3dd1551f434f25b98188050e64d0f83d978d2edcdf0b681e9f760d8ce4c1e8686a51df0c0a8126e7373ed34852d47c01264334296f0ef10a0b653bc2f099575ac22f6f016003315c447afd6a39d1296e98bb26c3f407c4a037c0ac6fd8354996a91ece2c06a6423167c2660e9744d7b34dfbb99bd53cf1028586afd008f50f47d297bfefa52e4eb77dc97c70d7e3c9f8fccb1a3e8982c625e68ae9839719969223130a456eb6108f8aea1057b0ce460e79f0c2851362720fc71cfc3160596d18398b92b778fcbc44e7c70205060710141b313a4f6287999aa1a5f1f3f9000e2a3866a2c4cbd3dae7f1141a1d2b2d3f7076838899c3cad0f3f61d3a78798c8d94ccee000000000000000000000000000000000000000000000000131f2f3801",
        "00d57d03dd650ad187623ca1753c59cdaf0a40b378ed743cb2ad9d78afcf45984b720bec9ed3f27f6d20785d48c7e7b207c954e4fb8da2be4c8ae8c51bd1c0fb5b7f1eef00a9075609c8ba814494f6c4b7acde3b6eab6b2ba5621cca22b065ad9b5a4ddf1996988bea28f5239a012b459f70d218e542ca4807bf7aa792e4bff7f08a392ea1a90f1cecc8f6bd0e8727c5f5746518f8855918106eaa9b8dee587d6edf6c0c13256eb5f02f64f29e591eea43004e12866f0b69dabd50d8b4a330a8f43a2c07d1a55886a70245c0cc3637f03197cfb21813cde80f44a1629e5bd7d2e1c464f8a7aa2105e62184e9451680a2f2edd7983412bdc323ed3e1c73a0a825a72f4b79470fda0c8365fa69f9469f795bc077835183671fa909dcfbde78fcf6361e0984da1ee908efed02db98587ca7d7a79c39e825789184d76048c293b97c0b4d9f2f3c99daa77a445abf9eb8ac92c36c254f5a25adc9d0459479b0031129ffc74e6a0980eca1cd179d96f4e2e38260c64270f50c07a9da3aff5c1ba5c40a701dd0e9562ff39176a2bebf5de0b7746dcbd727c18219dabf593e48d3603349716434eb79ff6bbce80b15170b0e76e8b36cd8e7b9b18bed9451057c1a449add6685d5e30954507405540330ff08b86fda97b043ac2d0fe10ae32939586935c4d98d2705389ef454c59f476580ed32e6fcf3723c0abf6e452fee9c617550a900b53c076be6bcb5cfad04a17fef11041c592e797c40e1378698df6627c48f08c5c5198b07b87d5098ad8f8f819bdb8d956c6aef279603356545b13a49f2e9700ac5696b5e4b233d49083fc23cf84351582a2188398b4e9e74b42d9199ebbd3de777671595c4897717e93f7dc68974c5d6ad1d6ef7ab7a994451700fdfc9ee73e48b9763bd9bae189da20eda428230c55f7608b2281f7be9ac9b943455264831fc23dc693c087fc7e12538a7e1b845f7a919cbee01e462b1c8f16ae892736d8336e614d7c9d5c3a58a3629f8f7208868cd3f0ed5b63fa971f31a6bf729329cfb1c6ca3066b6df457829a8c8ad65ca4af7812f87bcee181b92fa657ec438ef75518be3c135af5494a3ae8f1b80aba7ab3d070c82b22f70992e4793c7b779212729c50bd05acba71f6325e8de770fc35589e234c927b4d54c81635987b8391a124426fb8e800afc449cda07831a5b05cf3d5675fe7e0984a56be0635949dc5fedbdac8e0bac38ae00374e789acf836d7954b32c20cf0b601c3d8fd1a4fd84f4bb49417583d2d1f34c325eaa69f74bb67d27537538e59c4ccfe7c3a4f390a7dce1d7ed3e13f8d7e5878753984a6c37cd3da64074a767f7b1d7278c617f693f43745912721aeef2a49a890691393a60310e4460e0564d7f75a81d5ac1c8446a3c7f06fb23143f3230d2eca4e887603417c0332dc990b8e16bdf8f16446f60ee4e2623330dd204eb55632bc27a4db0aa25e8456d29e78a1857b6c1d6fe02692197d7c951685ec0aa576a0534ae035ee5b1568e2faa5e11bd43ff56f96eefbdc36ffdbec756a1f4847f0a133463de7d483d83db369cb0df54aa0028fdc7799ff991abc6e8ff9682eaf45e8b8082480e1f2c11bdae847d3dc97d282f8dbe49d056f13c4314d3f9ded040434e65580ad1b9d7a432441cb67a245afa7f8876cd0c11876dd400ba3ab7f3d2be0ddd63be27191ee5791c108f83bc8ed933e4e65c95c5647e67b619791d6be7daf5c6fcfdebc1c575532fb26ddc19da184dc0bc65b5efc7113697a5b0245e193d1446960043ee4370e2d0c5c744ee14d330603d24d49ba5d03bbea7439c07b38cde08ca1eb0d00dce15c381063e2e5a39636a92cf4bef497817d68"
      ],
      "sequence": 4294967294
    }
  ],
  "vout": [
    {
      "value": 499984.7465,
      "n": 0,
      "scriptPubKey": {
        "asm": "1 d8c7a93967c4fdb7dd594a74f4c423a666bc0137ea5cd846721c4bfb4a103ce1",
        "hex": "5120d8c7a93967c4fdb7dd594a74f4c423a666bc0137ea5cd846721c4bfb4a103ce1",
        "reqSigs": 1,
        "type": "witness_v1_scripthash",
        "addresses": [
          "3QJmnh"
        ]
      }
    },
    {
      "value": 1.0,
      "n": 1,
      "scriptPubKey": {
        "asm": "OP_RETURN ffb864fb10c86dd62e293b27e6d30db0baf5ada8cfac1b1d2ac3dd4c6232d001 ce0cf446a0ab22f0cec423aea4c06342a665967968649ceade2edf152fc400efee2cd466808b02d0eee4038e84e043628645b6594844bccafe0eff350fe420cf8e4cb406e0eb62b08e8463eee4802302e625d6392824dcaa9e6e9f556f8440afae6c9426c0cb4290aea443cec4a00322c605f6190804fc8abe4ebf754fa4608f4e8c74c6202ba2704e44a32e2440e3c226e516f9e8e41c6a5eae5f95af44806f6eac54e6000b82506e64830e0460c3e206c536d9c8c43c4a7e8e7fb58f64a04f0ecc3486606be2300e04e36e6400a38266a556b9a8a45c2a1eee1fd5ef04c02f2eec14a6404bc2102e24c34e442083a24685769988847c0a3ece3ff5cf24e00fce0cf446a0ab22f0cec423aea4c06342a665967968649ceade2edf152fc400efee2cd466808b02d0eee4038e84e043628645b6594844bccafe0eff350fe420cf8e4cb406e0eb62b08e8463eee4802302e625d6392824dcaa9e6e9f556f8440afae6c9426c0cb4290aea443cec4a00322c605f6190804fc8abe4ebf754fa4608f4e8c74c6202ba2704e44a32e2440e3c226e516f9e8e41c6a5eae5f95af44806f6eac54e6000b82506e64830e0460c3e206c536d9c8c43c4a7e8e7fb58f64a04f0ecc3486606be2300e04e36e6400a38266a556b9a8a45c2a1eee1fd5ef04c02f2eec14a6404bc2102e24c34e442083a24685769988847c0a3ece3ff5cf24e00fce0cf446a0ab22f0cec423aea4c06342a665967968649ceade2edf152fc400efee2cd466808b02d0eee4038e84e043628645b6594844bccafe0eff350fe420cf8e4cb406e0eb62b08e8463eee4802302e625d6392824dcaa9e6e9f556f8440afae6c9426c0cb4290aea443cec4a00322c605f6190804fc8abe4ebf754fa4608f4e8c74c6202ba2704e44a32e2440e3c226e516f9e8e41c6a5eae5f95af44806f6eac54e6000b82506e64830e0460c3e206c536d9c8c43c4a7e8e7fb58f64a04f0ecc3486606be2300e04e36e6400a38266a556b9a8a45c2a1eee1fd5ef04c02f2eec14a6404bc2102e24c34e442083a24685769988847c0a3ece3ff5cf24e00fce0cf446a0ab22f0cec423aea4c06342a665967968649ceade2edf152fc400efee2cd466808b02d0eee4038e84e043628645b6594844bccafe0eff350fe420cf8e4cb406e0eb62b08e8463eee4802302e625d6392824dcaa9e6e9f556f8440afae6c9426c0cb4290aea443cec4a00322c605f6190804fc8abe4ebf754fa4608f4e8c74c6202ba2704e44a32e2440e3c226e516f9e8e41c6a5eae5f95af44806f6eac54e6000b82506e64830e0460c3e206c536d9c8c43c4a7e8e7fb58f64a04f0ecc3486606be2300e04e36e6400a38266a556b9a8a45c2a1eee1fd5ef04c02f2eec14a6404bc2102e24c34e442083a24685769988847c0a3ece3ff5cf24e00fce0cf446a0ab22f0cec423aea4c06342a665967968649ceade2edf152fc400efee2cd466808b02d0eee4038e84e043628645b6594844bccafe0eff350fe420cf8e4cb406e0eb62b08e8463eee4802302e625d6392824dcaa9e6e9f556f8440afae6c9426c0cb4290aea443cec4a00322c605f6190804fc8abe4ebf754fa4608f4e8c74c6202ba2704e44a32e2440e3c2e3a03b9fcef3e12eb44c72e2cf5953a59c508625f92d09a51cddd0e1def5c592",
        "hex": "6a20ffb864fb10c86dd62e293b27e6d30db0baf5ada8cfac1b1d2ac3dd4c6232d0014db004ce0cf446a0ab22f0cec423aea4c06342a665967968649ceade2edf152fc400efee2cd466808b02d0eee4038e84e043628645b6594844bccafe0eff350fe420cf8e4cb406e0eb62b08e8463eee4802302e625d6392824dcaa9e6e9f556f8440afae6c9426c0cb4290aea443cec4a00322c605f6190804fc8abe4ebf754fa4608f4e8c74c6202ba2704e44a32e2440e3c226e516f9e8e41c6a5eae5f95af44806f6eac54e6000b82506e64830e0460c3e206c536d9c8c43c4a7e8e7fb58f64a04f0ecc3486606be2300e04e36e6400a38266a556b9a8a45c2a1eee1fd5ef04c02f2eec14a6404bc2102e24c34e442083a24685769988847c0a3ece3ff5cf24e00fce0cf446a0ab22f0cec423aea4c06342a665967968649ceade2edf152fc400efee2cd466808b02d0eee4038e84e043628645b6594844bccafe0eff350fe420cf8e4cb406e0eb62b08e8463eee4802302e625d6392824dcaa9e6e9f556f8440afae6c9426c0cb4290aea443cec4a00322c605f6190804fc8abe4ebf754fa4608f4e8c74c6202ba2704e44a32e2440e3c226e516f9e8e41c6a5eae5f95af44806f6eac54e6000b82506e64830e0460c3e206c536d9c8c43c4a7e8e7fb58f64a04f0ecc3486606be2300e04e36e6400a38266a556b9a8a45c2a1eee1fd5ef04c02f2eec14a6404bc2102e24c34e442083a24685769988847c0a3ece3ff5cf24e00fce0cf446a0ab22f0cec423aea4c06342a665967968649ceade2edf152fc400efee2cd466808b02d0eee4038e84e043628645b6594844bccafe0eff350fe420cf8e4cb406e0eb62b08e8463eee4802302e625d6392824dcaa9e6e9f556f8440afae6c9426c0cb4290aea443cec4a00322c605f6190804fc8abe4ebf754fa4608f4e8c74c6202ba2704e44a32e2440e3c226e516f9e8e41c6a5eae5f95af44806f6eac54e6000b82506e64830e0460c3e206c536d9c8c43c4a7e8e7fb58f64a04f0ecc3486606be2300e04e36e6400a38266a556b9a8a45c2a1eee1fd5ef04c02f2eec14a6404bc2102e24c34e442083a24685769988847c0a3ece3ff5cf24e00fce0cf446a0ab22f0cec423aea4c06342a665967968649ceade2edf152fc400efee2cd466808b02d0eee4038e84e043628645b6594844bccafe0eff350fe420cf8e4cb406e0eb62b08e8463eee4802302e625d6392824dcaa9e6e9f556f8440afae6c9426c0cb4290aea443cec4a00322c605f6190804fc8abe4ebf754fa4608f4e8c74c6202ba2704e44a32e2440e3c226e516f9e8e41c6a5eae5f95af44806f6eac54e6000b82506e64830e0460c3e206c536d9c8c43c4a7e8e7fb58f64a04f0ecc3486606be2300e04e36e6400a38266a556b9a8a45c2a1eee1fd5ef04c02f2eec14a6404bc2102e24c34e442083a24685769988847c0a3ece3ff5cf24e00fce0cf446a0ab22f0cec423aea4c06342a665967968649ceade2edf152fc400efee2cd466808b02d0eee4038e84e043628645b6594844bccafe0eff350fe420cf8e4cb406e0eb62b08e8463eee4802302e625d6392824dcaa9e6e9f556f8440afae6c9426c0cb4290aea443cec4a00322c605f6190804fc8abe4ebf754fa4608f4e8c74c6202ba2704e44a32e2440e3c2e3a03b9fcef3e12eb44c72e2cf5953a59c508625f92d09a51cddd0e1def5c592",
        "type": "nulldata"
      }
    }
  ],
  "blockhash": "0588000bb82f4b14ca9e4626330a5c84a7bb9e1c31fd2ade5c3732d80cc4fd85",
  "confirmations": 1,
  "time": 1764178356,
  "blocktime": 1764178356
}