{
  "hex": "01000000000101f62deb2cc2bb419872e926f356f0a56e412a5fdfca48a4cbbc5c3efddfdf58b20000000000feffffff02a020df63792d00002251204bea88547fc4f6b55eec9753ca4350c98ef96130e1615dc7549353c40dc1589300e1f50500000000fdd5046a203b8cea043eadb9158188943a2753edd3c91cc1aa484a89cbbb6edd2dcc05a2ea4db004ba500a585dda36fe50c86c8a372d9c586068067bb6af731f4c5074ece11eb6779a702a787dfa16de70e84caa170dbc784048265b968f533f6c7054ccc13e9657fa104a181d9a76be10882cca776ddc182028463bf6ef335f0c1034aca15ef637da306a383dba569e30a80cea574dfc380008661bd6cf137f2c30148c817ed6173ad08ad8dd5ab67ed048ec0ab7ad1cd8e0e886fb362ff39fccd0f46c619e36f71af0aaf8fd7a965ef068cc2a978d3cf8c0c8a6db160fd3bfecf0d44c41be16d77a90ca989d1af63e9008ac4af7ed5c98a0a8c6bb766fb3df8c90b42c21de76b75ab0eab8bd3ad61eb0288c6ad7cd7cb88088e69b564f93ffacb0940c01fe5697ba500a585dda36fe50c86c8a372d9c586068067bb6af731f4c5074ece11eb6779a702a787dfa16de70e84caa170dbc784048265b968f533f6c7054ccc13e9657fa104a181d9a76be10882cca776ddc182028463bf6ef335f0c1034aca15ef637da306a383dba569e30a80cea574dfc380008661bd6cf137f2c30148c817ed6173ad08ad8dd5ab67ed048ec0ab7ad1cd8e0e886fb362ff39fccd0f46c619e36f71af0aaf8fd7a965ef068cc2a978d3cf8c0c8a6db160fd3bfecf0d44c41be16d77a90ca989d1af63e9008ac4af7ed5c98a0a8c6bb766fb3df8c90b42c21de76b75ab0eab8bd3ad61eb0288c6ad7cd7cb88088e69b564f93ffacb0940c01fe5697ba500a585dda36fe50c86c8a372d9c586068067bb6af731f4c5074ece11eb6779a702a787dfa16de70e84caa170dbc784048265b968f533f6c7054ccc13e9657fa104a181d9a76be10882cca776ddc182028463bf6ef335f0c1034aca15ef637da306a383dba569e30a80cea574dfc380008661bd6cf137f2c30148c817ed6173ad08ad8dd5ab67ed048ec0ab7ad1cd8e0e886fb362ff39fccd0f46c619e36f71af0aaf8fd7a965ef068cc2a978d3cf8c0c8a6db160fd3bfecf0d44c41be16d77a90ca989d1af63e9008ac4af7ed5c98a0a8c6bb766fb3df8c90b42c21de76b75ab0eab8bd3ad61eb0288c6ad7cd7cb88088e69b564f93ffacb0940c01fe5697ba500a585dda36fe50c86c8a372d9c586068067bb6af731f4c5074ece11eb6779a702a787dfa16de70e84caa170dbc784048265b968f533f6c7054ccc13e9657fa104a181d9a76be10882cca776ddc182028463bf6ef335f0c1034aca15ef637da306a383dba569e30a80cea574dfc380008661bd6cf137f2c30148c817ed6173ad08ad8dd5ab67ed048ec0ab7ad1cd8e0e886fb362ff39fccd0f46c619e36f71af0aaf8fd7a965ef068cc2a978d3cf8c0c8a6db160fd3bfecf0d44c41be16d77a90ca989d1af63e9008ac4af7ed5c98a0a8c6bb766fb3df8c90b42c21de76b75ab0eab8bd3ad61eb0288c6ad7cd7cb88088e69b564f93ffacb0940c01fe5697ba500a585dda36fe50c86c8a372d9c586068067bb6af731f4c5074ece11eb6779a702a787dfa16de70e84caa170dbc784048265b968f533f6c7054ccc13e9657fa104a181d9a76be10882cca776ddc182028463bf6ef335f0c1034aca15ef637da306a383dba569e30a80cea574dfc380008661bd6cf137f2c30148c817ed6173ad08ad8dd5ab67ed048ec0ab7ad1cd87d291d95c09d5093d7c8b6bf0426e4ab01077ea5d6fdf6a2bb75e9c6ac15ac9c02fd7509d88b611ec722cc3b0aee8cc8138b9ad65ae15b52c88e33af00e7846383e042db01047e70da914662a506989d79d25eea2a4d8367b51a1e0c7a5f8cda2c9bcbf005310aa6e258c0ba51f501cffb3b98ae76c877a00b1db00c6f76043f6b3305882afd4895a69080f42aebff5eedc4b4e00b754192164c24dccd06933d6181a43100c4458e4e48318eb30a5c0f7a14f9021e80e969121d97bcacfc3714729e6c217d3e958fdd5c01f90be042424cf70906189da838068f637ae5b64e5ae2831c06dced2eeb20949adad321f2e9917e0a77c363c21fb23c4ec92153c7ce2faa74367aae031545a49446933e35988e8e68da859106312fa2cffa4ca74ad43eefddd83ee01a6cdf8bd3304a3de4f633e052f0b5c23619bba506ec51b8ee259f80c67561feb47b0ee382c9c38cba6442b57a2f497973d3cd8ac124a6d522fac5cd9efa395797bad59dc8782cc401767471b1482fd22e0f2a1b108864b588b4ee3734f7571f5e061fa3546ddfc3df43fa5641006e488e2a04d27f5af295a2c7dde789e1c863766d9f21cf6a995c8f778d3de0e5b8e8f9ac10541db1230752893009efaf995e06d469c03aedfa961a29b97d3ded002bb3bc61b8653d0cd85f62b9d5653275a3136859fada4208d9803f460c13f7fc1c38076ac42744b92f509d53f38a69a2a56c844ce1573a7460d1217c9ad7e3d74de22581dffbb8792fcc3b6bff4f1a728c7523a3a42ad0b2ec6a840c31588d5ef79f83c2c4d93b9a35cd16dd42ea88638395cc55717e7b848a73bda03322925a010cc324554319e510e5926abf804e50981eff2183051d8732e7ecb120f9663c7343723518ad7dcaf4835ac4b3d50b64dad2db87402d85542e413cdcf9471ce3a829bbf5e719137995a687f81ef61cdc5c5a16faed8d05d2fb0fe1a7b6486bb8c37ceb204c6348bba8c4ad871c87e97ce635cbf0706a04665d2b40f2e32e8da0c987bd501add603e70a604fb7d9372d191b761f99b3c794b99bc4d79d67b495611e6e9c705541219721f1eb496995d32a9ac93a480ada3c192f815507db32622358c3dae448a18a51076aa7aabfc2da94122fb3dd8d6dfb0325fc3a9fcab965bdf7e1ce960680489b22a1a0916cbb1c32419f710fc1c4fceb680bc790eeda262f45978ecb37525ad007e39fbc5c9f844433ffe0d4ee24d3fa00b368a972c04cd94acbb8960e6925ec5af5a36e0fac2868a80c55c5880bd9330cd533c4bef0cb9510e9e2bc17cfe4a85743b4d3713a6a04e6e860a0162f53aa4d060e7a5756fb34ae8882b8b3355ede3d8d7e35bfb888839fd472d7f9ea1900b3aec49538b04bd6c1f61d288dca70101a172ec449373c0ca14ab84a1a5c71d870da977d64a2355613adf1e1284efff7a52c361928dd9ccaa6682d01972826867d3590bf7d596b5e544fb0bfd72b17ad7b8a39a50349a829ab43d335a6ec60ef1d74a66769203befacd023c5651e4a2bb55cc143392a737c67848b13ab7307fabc5a2efbe67b9a6c6c4ce1ab277b0857ed70fc889190ae8050ffa12474c7268063c1f7a0483dc63d8be07c3213a5953bf20cf604357235df400cc1372ab89f4075d2f276701988719538a4e998b6b966ee0b1dc9144a6798adfa16cf3e1e3c5c54c008defd7c1b6a7d520b96110e264cac7914a4d5ac891a0b7ef39611b7e310d9a96c5ffa7783acb7c1d6d5a84a67c7cd512a1de02f5dfb96598ad3dbf6331a310f77b29191779ba6f9131bcc5be87610f47f317fa3c3af84d6fc594fe83d5ad4e793836a519a747fa800e2d06cee6565601aa57c50be8a2821135cc160970076756a3d6a5434abca62fad0c7cbda4c3f97cb43c4a438e81a5fc5ee3ab37b22956cb81be7db9ab1506d8ea2b065cd2a3eca9d6c707cb33a4348770e8df7fd8d332806e3d7469a171675acbf27004a4d56858451cb030a9f9673e4ccaf8350644f24b9cd387df93a9c06b35227e4e4b45420bd88c753aed7a446b5f2c927ab30acf579601dee9ff4320d88afb0f04bb749098e399618172e56abd0a8f415e6631b8c55707df36fe386a5bbfc25d5eb1c536db7ce7d8efc7b2abc034a2848741cfc070a254da726fa49be07fbed9fc4bba4a3abec46ad557b4c7592d165afff0e674983a7076af39f329c39db2a5e07551107da4f0fbb50d497d65fb8dd045ffd7e53bfb26a46f13e51429555c3daecca37debc2271feb8baca1ebd481365b80b3cba914bf9e73130ae73bae8db235297772c5dacc86f2c410dea9135db0c552c251f101751bcde2c9984330c81631a17e23c64d6492e570cf0dcd0c2768b801975f17551093e7305bc17b6e9e5edbf4a2176603d0c1ca0d8ffd6116663621294e33b35cd79dca32ae41d5c1d58973f3dfcd77e2ec6f533ab7d377d2787a42b58bd9484bb7593117d1bbeace488521c7dc6e43f85d330111afbe5faf474154867ee52c352556c6c8cf93dff6387892212a75a714f0aff88ebce8dbca0bc582a6f15cb394cc6c72a9423c3e79d1ef4e1f7afe346e69c3908b06f64af4cbb36d8cb3747a8101b5c480666e74e97f5623af5c5743e58354b1fc278df7c39f3e75235c4f8d196e9ad6aecb262434fd163660e991cf457daa21f5b874b07811d46ddcc1330789ea7abb37de083875c4ba62436e70e1c58fedf46e7da5e7c9ea45f37dbf500e49319f9ae9290e0bdc756d65aa475cab8e31158cc3338c242d1a5abae43e844cc68b6416f281dc231867f3a434e470db35f14cf5a6d83b9a44334960f40291a87274d5e0191b4d4557488c6dc2c7b38cea0710f2bd4cc34239216807a77a0b33f9124c7fb739726a1855a85a95b32ffb197c5188a09bf3d4b23f08c561d44e9d622b939d9963d53d62e767fd9c145a8b5c1bc83e1a42a99093e6159023a7e6405ab97d16b266984b1c29106a85723ab328ec89a074ef9275c1d30f480504e2081eec6ddd8e154c3310ef4919c06c7f957a0890050885a971367a17dd8e26f760019bdbe86ecd66f1d224f25383f6a6ee209ec00f0e2b62a07b2cfaef8aa58c1b3e5093ca8c32a6ba5944882faf03c94692a11975ae2753930ec9ac4eb559d23e5b30933bad80c0df24fbdfc415294df10daeb25f3cd78acf99167ebb6a817a68b2a89107d4a0112754a1816f9a75aedba8fab2660200d5676155893eeac06dc17d310b3623ca4a4f70dc6608b8e2e3a877599f06675ef538e05b3b5ac2ba168baeaa31eb6c40b09dcfa14180376107f5159f0330e5ba83f7ca9f3afc065b2d9ff1cdd47c1464dadfbf06947a8243a51762a397f0050f2b3a3c45464e52575a6771898c9aadb6c1ed141f282f323f4b4e6466737aa8b5d5ddea0e151b323739457c7e8e90a6aeafc6e4070f16435b6c748ca0b8b9bac5c6d0e0f9000000000000000000001425354601fd210500d6ec5f2389f6db6ec8709ee74fbe318bc409549cd4b4091a42adeda6aabf0dd90d1ccba89c5f332c2b8f209de5d506cf166745ac5aadf52a09f485d2c821ef44518e22f52a7f3f0d5346ea261687afaba6ee88c9ef8460234ae4df3822a2c7a0567c62b005f21dc0104c52d13918fe892424c5ffc6b7b716a3f2130eef09ae692f1385cceee347472365a3b22555f16c9dc229455c0f1ad553a314725638d19f5204d92fd2ba7eb431d21cb1fdb450a6db3aefebbd38d7608a8801abdee64c8f01e43b700b37ee03ef8460444f2a5d8f77d25f704b0ba43e5d30e89d050d478c8f832c6c52941bcae980d53bc9c25210fee75750f5edbef08e2b6326756bb1b626695288ad439b7247c217331d0e1bd134a680b4f1f0a40cf5b7ffa81f5838d45bcb6b385d6725814897b5e1ff6b3152d1e16e4d204c16dc32c4540c71b4b020d925b1968444e0299ef66bb14c0f27699031b1bb17eea8d2b80a839bcc99eeba91ffbeaedfc2493d84c25326839117f491d6bd94813f9ee45a64bd4c02e7652fe71f6bb2f248f52abd324e32f394d775033f049a05fb84baa4bd56ef73788a2c44629414e3407acfc15030a07becd1e49253b41869198391f4d35bfee472f9daeac7c45e6db663d0ddd9cf836404d75365c26823b1c6220f2a8f3bd5ac9b544750965b2bc61376117608283da27d792b654a6209984b23d7c70caeec64e5cbc86041b26bc2942c00920f1b964db719f23ebd616ccf5dc3999b644c0e72d4e416332c7a18e6ff82eca0f329caa1e01e340a5fc6b10a812c5a4f90bf5e12dfc164d9b4ff393bba820384b004154e7691a481a03c7bdcc238543d8048f4a7225809ed8fb8aecb228121124245af8e3ae10034e8a3fe76ba290f30d1ee99dd4fa4e428c031550b2b9ac4046959c28844c949941c4dd2a2679d858ce126e410459620c30dc770b9046f122fdd7244d0a5eb76cbcb3b8f3e3f0374975e93191e7c51884c400ac834abf92d76518d1ce21dc5b2e4b1d1609e6ea481397880547072e5f0ed227ee6b6bc7623c62fdc30b5d9300b0cd0c0ea7eb5e48d7679411f029e63d4cc0df2e7f75674fd613b7392de1a480cf47da3ff1125b08baed9e89876ae33f7050e4612af45ef53dfcc665663bd06067e7f3287ef82c17736e04a1dbf4363642e0ef6c537a5d56f4dfda288673e88fa72d617f48cef004f92555570b18743c36b0323404e0f70f1cb9e4790ad5c17d2e3cbac8a7efc43ab7379e7ee28fad8774ab1c72451e82d7744cc0c0b055cb51d4c3047e909ad56f593a9ab793e93aba9973e77dfdad5c8a11ce45fca26db26f4171f8108b2b0830a60f1d62be48827f7ace516baa3636d25a899426a05de5350aa343c154bc30dc9be927a41a09df2fe54e72f65cefb3e6b6d9cd4018784e5b5b307de26aabbb14fd1735f7cafa3aba633f8df4329daf55a257414463062259d7dc17912870bfc8136cb218c7322c13950cb7505847d00628bb0921198d1c7c6914f851e8f419e4c7d9c9fa2eb5a561da22b61c4de9df908b8637f8bda57b2514ae3f4120c4f85d661084efc5e9fe779e4a2d2a675ac99bc54e7d6f93a05eff5846100b78712d65606e92b63ee0771ddba319617ac3b72e07c795be32948ba1864b708a17b76092f9937b5742c161ece296b38ac3240ed32c1fb38f1c0f8d5748dd66d53a1d700e6e370d70b49739f5614f94febd2620b24dbaf04a9fe2a524950f97272b91a8e51768d924b1c054203c15e342a2c2e4bf505cfcc276850d7fdacf1e831dd564578b7d81301c1cfe532fc269dcbbcc19840a95812393f6d390b10e8b4e8e24d9e829b90fff918a5b10f68000000",
  "txid": "4c62fce855a147e47f4e7cfe026daeecde5ef37da90826a38906592ad059ed72",
  "hash": "de7d4997a604918cb336af4137411144120af09f02d0c808f82c403256e11528",
  "size": 5085,
  "vsize": 2278,
  "version": 1,
  "locktime": 104,
  "vin": [
    {
      "txid": "b258dfdffd3e5cbccba448cadf5f2a416ea5f056f326e9729841bbc22ceb2df6",
      "vout": 0,
      "scriptSig": {
        "asm": "",
        "hex": ""
      },
      "txinwitness": [
        "d88b611ec722cc3b0aee8cc8138b9ad65ae15b52c88e33af00e7846383e042db01047e70da914662a506989d79d25eea2a4d8367b51a1e0c7a5f8cda2c9bcbf005310aa6e258c0ba51f501cffb3b98ae76c877a00b1db00c6f76043f6b3305882afd4895a69080f42aebff5eedc4b4e00b754192164c24dccd06933d6181a43100c4458e4e48318eb30a5c0f7a14f9021e80e969121d97bcacfc3714729e6c217d3e958fdd5c01f90be042424cf70906189da838068f637ae5b64e5ae2831c06dced2eeb20949adad321f2e9917e0a77c363c21fb23c4ec92153c7ce2faa74367aae031545a49446933e35988e8e68da859106312fa2cffa4ca74ad43eefddd83ee01a6cdf8bd3304a3de4f633e052f0b5c23619bba506ec51b8ee259f80c67561feb47b0ee382c9c38cba6442b57a2f497973d3cd8ac124a6d522fac5cd9efa395797bad59dc8782cc401767471b1482fd22e0f2a1b108864b588b4ee3734f7571f5e061fa3546ddfc3df43fa5641006e488e2a04d27f5af295a2c7dde789e1c863766d9f21cf6a995c8f778d3de0e5b8e8f9ac10541db1230752893009efaf995e06d469c03aedfa961a29b97d3ded002bb3bc61b8653d0cd85f62b9d5653275a3136859fada4208d9803f460c13f7fc1c38076ac42744b92f509d53f38a69a2a56c844ce1573a7460d1217c9ad7e3d74de22581dffbb8792fcc3b6bff4f1a728c7523a3a42ad0b2ec6a840c31588d5ef79f83c2c4d93b9a35cd16dd42ea88638395cc55717e7b848a73bda03322925a010cc324554319e510e5926abf804e50981eff2183051d8732e7ecb120f9663c7343723518ad7dcaf4835ac4b3d50b64dad2db87402d85542e413cdcf9471ce3a829bbf5e719137995a687f81ef61cdc5c5a16faed8d05d2fb0fe1a7b6486bb8c37ceb204c6348bba8c4ad871c87e97ce635cbf0706a04665d2b40f2e32e8da0c987bd501add603e70a604fb7d9372d191b761f99b3c794b99bc4d79d67b495611e6e9c705541219721f1eb496995d32a9ac93a480ada3c192f815507db32622358c3dae448a18a51076aa7aabfc2da94122fb3dd8d6dfb0325fc3a9fcab965bdf7e1ce960680489b22a1a0916cbb1c32419f710fc1c4fceb680bc790eeda262f45978ecb37525ad007e39fbc5c9f844433ffe0d4ee24d3fa00b368a972c04cd94acbb8960e6925ec5af5a36e0fac2868a80c55c5880bd9330cd533c4bef0cb9510e9e2bc17cfe4a85743b4d3713a6a04e6e860a0162f53aa4d060e7a5756fb34ae8882b8b3355ede3d8d7e35bfb888839fd472d7f9ea1900b3aec49538b04bd6c1f61d288dca70101a172ec449373c0ca14ab84a1a5c71d870da977d64a2355613adf1e1284efff7a52c361928dd9ccaa6682d01972826867d3590bf7d596b5e544fb0bfd72b17ad7b8a39a50349a829ab43d335a6ec60ef1d74a66769203befacd023c5651e4a2bb55cc143392a737c67848b13ab7307fabc5a2efbe67b9a6c6c4ce1ab277b0857ed70fc889190ae8050ffa12474c7268063c1f7a0483dc63d8be07c3213a5953bf20cf604357235df400cc1372ab89f4075d2f276701988719538a4e998b6b966ee0b1dc9144a6798adfa16cf3e1e3c5c54c008defd7c1b6a7d520b96110e264cac7914a4d5ac891a0b7ef39611b7e310d9a96c5ffa7783acb7c1d6d5a84a67c7cd512a1de02f5dfb96598ad3dbf6331a310f77b29191779ba6f9131bcc5be87610f47f317fa3c3af84d6fc594fe83d5ad4e793836a519a747fa800e2d06cee6565601aa57c50be8a2821135cc160970076756a3d6a5434abca62fad0c7cbda4c3f97cb43c4a438e81a5fc5ee3ab37b22956cb81be7db9ab1506d8ea2b065cd2a3eca9d6c707cb33a4348770e8df7fd8d332806e3d7469a171675acbf27004a4d56858451cb030a9f9673e4ccaf8350644f24b9cd387df93a9c06b35227e4e4b45420bd88c753aed7a446b5f2c927ab30acf579601dee9ff4320d88afb0f04bb749098e399618172e56abd0a8f415e6631b8c55707df36fe386a5bbfc25d5eb1c536db7ce7d8efc7b2abc034a2848741cfc070a254da726fa49be07fbed9fc4bba4a3abec46ad557b4c7592d165afff0e674983a7076af39f329c39db2a5e07551107da4f0fbb50d497d65fb8dd045ffd7e53bfb26a46f13e51429555c3daecca37debc2271feb8baca1ebd481365b80b3cba914bf9e73130ae73bae8db235297772c5dacc86f2c410dea9135db0c552c251f101751bcde2c9984330c81631a17e23c64d6492e570cf0dcd0c2768b801975f17551093e7305bc17b6e9e5edbf4a2176603d0c1ca0d8ffd6116663621294e33b35cd79dca32ae41d5c1d58973f3dfcd77e2ec6f533ab7d377d2787a42b58bd9484bb7593117d1bbeace488521c7dc6e43f85d330111afbe5faf474154867ee52c352556c6c8cf93dff6387892212a75a714f0aff88ebce8dbca0bc582a6f15cb394cc6c72a9423c3e79d1ef4e1f7afe346e69c3908b06f64af4cbb36d8cb3747a8101b5c480666e74e97f5623af5c5743e58354b1fc278df7c39f3e75235c4f8d196e9ad6aecb262434fd163660e991cf457daa21f5b874b07811d46ddcc1330789ea7abb37de083875c4ba62436e70e1c58fedf46e7da5e7c9ea45f37dbf500e49319f9ae9290e0bdc756d65aa475cab8e31158cc3338c242d1a5abae43e844cc68b6416f281dc231867f3a434e470db35f14cf5a6d83b9a44334960f40291a87274d5e0191b4d4557488c6dc2c7b38cea0710f2bd4cc34239216807a77a0b33f9124c7fb739726a1855a85a95b32ffb197c5188a09bf3d4b23f08c561d44e9d622b939d9963d53d62e767fd9c145a8b5c1bc83e1a42a99093e6159023a7e6405ab97d16b266984b1c29106a85723ab328ec89a074ef9275c1d30f480504e2081eec6ddd8e154c3310ef4919c06c7f957a0890050885a971367a17dd8e26f760019bdbe86ecd66f1d224f25383f6a6ee209ec00f0e2b62a07b2cfaef8aa58c1b3e5093ca8c32a6ba5944882faf03c94692a11975ae2753930ec9ac4eb559d23e5b30933bad80c0df24fbdfc415294df10daeb25f3cd78acf99167ebb6a817a68b2a89107d4a0112754a1816f9a75aedba8fab2660200d5676155893eeac06dc17d310b3623ca4a4f70dc6608b8e2e3a877599f06675ef538e05b3b5ac2ba168baeaa31eb6c40b09dcfa14180376107f5159f0330e5ba83f7ca9f3afc065b2d9ff1cdd47c1464dadfbf06947a8243a51762a397f0050f2b3a3c45464e52575a6771898c9aadb6c1ed141f282f323f4b4e6466737aa8b5d5ddea0e151b323739457c7e8e90a6aeafc6e4070f16435b6c748ca0b8b9bac5c6d0e0f9000000000000000000001425354601",
        "00d6ec5f2389f6db6ec8709ee74fbe318bc409549cd4b4091a42adeda6aabf0dd90d1ccba89c5f332c2b8f209de5d506cf166745ac5aadf52a09f485d2c821ef44518e22f52a7f3f0d5346ea261687afaba6ee88c9ef8460234ae4df3822a2c7a0567c62b005f21dc0104c52d13918fe892424c5ffc6b7b716a3f2130eef09ae692f1385cceee347472365a3b22555f16c9dc229455c0f1ad553a314725638d19f5204d92fd2ba7eb431d21cb1fdb450a6db3aefebbd38d7608a8801abdee64c8f01e43b700b37ee03ef8460444f2a5d8f77d25f704b0ba43e5d30e89d050d478c8f832c6c52941bcae980d53bc9c25210fee75750f5edbef08e2b6326756bb1b626695288ad439b7247c217331d0e1bd134a680b4f1f0a40cf5b7ffa81f5838d45bcb6b385d6725814897b5e1ff6b3152d1e16e4d204c16dc32c4540c71b4b020d925b1968444e0299ef66bb14c0f27699031b1bb17eea8d2b80a839bcc99eeba91ffbeaedfc2493d84c25326839117f491d6bd94813f9ee45a64bd4c02e7652fe71f6bb2f248f52abd324e32f394d775033f049a05fb84baa4bd56ef73788a2c44629414e3407acfc15030a07becd1e49253b41869198391f4d35bfee472f9daeac7c45e6db663d0ddd9cf836404d75365c26823b1c6220f2a8f3bd5ac9b544750965b2bc61376117608283da27d792b654a6209984b23d7c70caeec64e5cbc86041b26bc2942c00920f1b964db719f23ebd616ccf5dc3999b644c0e72d4e416332c7a18e6ff82eca0f329caa1e01e340a5fc6b10a812c5a4f90bf5e12dfc164d9b4ff393bba820384b004154e7691a481a03c7bdcc238543d8048f4a7225809ed8fb8aecb228121124245af8e3ae10034e8a3fe76ba290f30d1ee99dd4fa4e428c031550b2b9ac4046959c28844c949941c4dd2a2679d858ce126e410459620c30dc770b9046f122fdd7244d0a5eb76cbcb3b8f3e3f0374975e93191e7c51884c400ac834abf92d76518d1ce21dc5b2e4b1d1609e6ea481397880547072e5f0ed227ee6b6bc7623c62fdc30b5d9300b0cd0c0ea7eb5e48d7679411f029e63d4cc0df2e7f75674fd613b7392de1a480cf47da3ff1125b08baed9e89876ae33f7050e4612af45ef53dfcc665663bd06067e7f3287ef82c17736e04a1dbf4363642e0ef6c537a5d56f4dfda288673e88fa72d617f48cef004f92555570b18743c36b0323404e0f70f1cb9e4790ad5c17d2e3cbac8a7efc43ab7379e7ee28fad8774ab1c72451e82d7744cc0c0b055cb51d4c3047e909ad56f593a9ab793e93aba9973e77dfdad5c8a11ce45fca26db26f4171f8108b2b0830a60f1d62be48827f7ace516baa3636d25a899426a05de5350aa343c154bc30dc9be927a41a09df2fe54e72f65cefb3e6b6d9cd4018784e5b5b307de26aabbb14fd1735f7cafa3aba633f8df4329daf55a257414463062259d7dc17912870bfc8136cb218c7322c13950cb7505847d00628bb0921198d1c7c6914f851e8f419e4c7d9c9fa2eb5a561da22b61c4de9df908b8637f8bda57b2514ae3f4120c4f85d661084efc5e9fe779e4a2d2a675ac99bc54e7d6f93a05eff5846100b78712d65606e92b63ee0771ddba319617ac3b72e07c795be32948ba1864b708a17b76092f9937b5742c161ece296b38ac3240ed32c1fb38f1c0f8d5748dd66d53a1d700e6e370d70b49739f5614f94febd2620b24dbaf04a9fe2a524950f97272b91a8e51768d924b1c054203c15e342a2c2e4bf505cfcc276850d7fdacf1e831dd564578b7d81301c1cfe532fc269dcbbcc19840a95812393f6d390b10e8b4e8e24d9e829b90fff918a5b10f"
      ],
      "sequence": 4294967294
    }
  ],
  "vout": [
    {
      "value": 499993.8986,
      "n": 0,
      "scriptPubKey": {
        "asm": "1 4bea88547fc4f6b55eec9753ca4350c98ef96130e1615dc7549353c40dc15893",
        "hex": "51204bea88547fc4f6b55eec9753ca4350c98ef96130e1615dc7549353c40dc15893",
        "reqSigs": 1,
        "type": "witness_v1_scripthash",
        "addresses": [
          "3QJmnh"
        ]
      }
    },
    {
      "value": 1.0,
      "n": 1,
      "scriptPubKey": {
        "asm": "OP_RETURN 3b8cea043eadb9158188943a2753edd3c91cc1aa484a89cbbb6edd2dcc05a2ea ba500a585dda36fe50c86c8a372d9c586068067bb6af731f4c5074ece11eb6779a702a787dfa16de70e84caa170dbc784048265b968f533f6c7054ccc13e9657fa104a181d9a76be10882cca776ddc182028463bf6ef335f0c1034aca15ef637da306a383dba569e30a80cea574dfc380008661bd6cf137f2c30148c817ed6173ad08ad8dd5ab67ed048ec0ab7ad1cd8e0e886fb362ff39fccd0f46c619e36f71af0aaf8fd7a965ef068cc2a978d3cf8c0c8a6db160fd3bfecf0d44c41be16d77a90ca989d1af63e9008ac4af7ed5c98a0a8c6bb766fb3df8c90b42c21de76b75ab0eab8bd3ad61eb0288c6ad7cd7cb88088e69b564f93ffacb0940c01fe5697ba500a585dda36fe50c86c8a372d9c586068067bb6af731f4c5074ece11eb6779a702a787dfa16de70e84caa170dbc784048265b968f533f6c7054ccc13e9657fa104a181d9a76be10882cca776ddc182028463bf6ef335f0c1034aca15ef637da306a383dba569e30a80cea574dfc380008661bd6cf137f2c30148c817ed6173ad08ad8dd5ab67ed048ec0ab7ad1cd8e0e886fb362ff39fccd0f46c619e36f71af0aaf8fd7a965ef068cc2a978d3cf8c0c8a6db160fd3bfecf0d44c41be16d77a90ca989d1af63e9008ac4af7ed5c98a0a8c6bb766fb3df8c90b42c21de76b75ab0eab8bd3ad61eb0288c6ad7cd7cb88088e69b564f93ffacb0940c01fe5697ba500a585dda36fe50c86c8a372d9c586068067bb6af731f4c5074ece11eb6779a702a787dfa16de70e84caa170dbc784048265b968f533f6c7054ccc13e9657fa104a181d9a76be10882cca776ddc182028463bf6ef335f0c1034aca15ef637da306a383dba569e30a80cea574dfc380008661bd6cf137f2c30148c817ed6173ad08ad8dd5ab67ed048ec0ab7ad1cd8e0e886fb362ff39fccd0f46c619e36f71af0aaf8fd7a965ef068cc2a978d3cf8c0c8a6db160fd3bfecf0d44c41be16d77a90ca989d1af63e9008ac4af7ed5c98a0a8c6bb766fb3df8c90b42c21de76b75ab0eab8bd3ad61eb0288c6ad7cd7cb88088e69b564f93ffacb0940c01fe5697ba500a585dda36fe50c86c8a372d9c586068067bb6af731f4c5074ece11eb6779a702a787dfa16de70e84caa170dbc784048265b968f533f6c7054ccc13e9657fa104a181d9a76be10882cca776ddc182028463bf6ef335f0c1034aca15ef637da306a383dba569e30a80cea574dfc380008661bd6cf137f2c30148c817ed6173ad08ad8dd5ab67ed048ec0ab7ad1cd8e0e886fb362ff39fccd0f46c619e36f71af0aaf8fd7a965ef068cc2a978d3cf8c0c8a6db160fd3bfecf0d44c41be16d77a90ca989d1af63e9008ac4af7ed5c98a0a8c6bb766fb3df8c90b42c21de76b75ab0eab8bd3ad61eb0288c6ad7cd7cb88088e69b564f93ffacb0940c01fe5697ba500a585dda36fe50c86c8a372d9c586068067bb6af731f4c5074ece11eb6779a702a787dfa16de70e84caa170dbc784048265b968f533f6c7054ccc13e9657fa104a181d9a76be10882cca776ddc182028463bf6ef335f0c1034aca15ef637da306a383dba569e30a80cea574dfc380008661bd6cf137f2c30148c817ed6173ad08ad8dd5ab67ed048ec0ab7ad1cd87d291d95c09d5093d7c8b6bf0426e4ab01077ea5d6fdf6a2bb75e9c6ac15ac9c",
        "hex": "6a203b8cea043eadb9158188943a2753edd3c91cc1aa484a89cbbb6edd2dcc05a2ea4db004ba500a585dda36fe50c86c8a372d9c586068067bb6af731f4c5074ece11eb6779a702a787dfa16de70e84caa170dbc784048265b968f533f6c7054ccc13e9657fa104a181d9a76be10882cca776ddc182028463bf6ef335f0c1034aca15ef637da306a383dba569e30a80cea574dfc380008661bd6cf137f2c30148c817ed6173ad08ad8dd5ab67ed048ec0ab7ad1cd8e0e886fb362ff39fccd0f46c619e36f71af0aaf8fd7a965ef068cc2a978d3cf8c0c8a6db160fd3bfecf0d44c41be16d77a90ca989d1af63e9008ac4af7ed5c98a0a8c6bb766fb3df8c90b42c21de76b75ab0eab8bd3ad61eb0288c6ad7cd7cb88088e69b564f93ffacb0940c01fe5697ba500a585dda36fe50c86c8a372d9c586068067bb6af731f4c5074ece11eb6779a702a787dfa16de70e84caa170dbc784048265b968f533f6c7054ccc13e9657fa104a181d9a76be10882cca776ddc182028463bf6ef335f0c1034aca15ef637da306a383dba569e30a80cea574dfc380008661bd6cf137f2c30148c817ed6173ad08ad8dd5ab67ed048ec0ab7ad1cd8e0e886fb362ff39fccd0f46c619e36f71af0aaf8fd7a965ef068cc2a978d3cf8c0c8a6db160fd3bfecf0d44c41be16d77a90ca989d1af63e9008ac4af7ed5c98a0a8c6bb766fb3df8c90b42c21de76b75ab0eab8bd3ad61eb0288c6ad7cd7cb88088e69b564f93ffacb0940c01fe5697ba500a585dda36fe50c86c8a372d9c586068067bb6af731f4c5074ece11eb6779a702a787dfa16de70e84caa170dbc784048265b968f533f6c7054ccc13e9657fa104a181d9a76be10882cca776ddc182028463bf6ef335f0c1034aca15ef637da306a383dba569e30a80cea574dfc380008661bd6cf137f2c30148c817ed6173ad08ad8dd5ab67ed048ec0ab7ad1cd8e0e886fb362ff39fccd0f46c619e36f71af0aaf8fd7a965ef068cc2a978d3cf8c0c8a6db160fd3bfecf0d44c41be16d77a90ca989d1af63e9008ac4af7ed5c98a0a8c6bb766fb3df8c90b42c21de76b75ab0eab8bd3ad61eb0288c6ad7cd7cb88088e69b564f93ffacb0940c01fe5697ba500a585dda36fe50c86c8a372d9c586068067bb6af731f4c5074ece11eb6779a702a787dfa16de70e84caa170dbc784048265b968f533f6c7054ccc13e9657fa104a181d9a76be10882cca776ddc182028463bf6ef335f0c1034aca15ef637da306a383dba569e30a80cea574dfc380008661bd6cf137f2c30148c817ed6173ad08ad8dd5ab67ed048ec0ab7ad1cd8e0e886fb362ff39fccd0f46c619e36f71af0aaf8fd7a965ef068cc2a978d3cf8c0c8a6db160fd3bfecf0d44c41be16d77a90ca989d1af63e9008ac4af7ed5c98a0a8c6bb766fb3df8c90b42c21de76b75ab0eab8bd3ad61eb0288c6ad7cd7cb88088e69b564f93ffacb0940c01fe5697ba500a585dda36fe50c86c8a372d9c586068067bb6af731f4c5074ece11eb6779a702a787dfa16de70e84caa170dbc784048265b968f533f6c7054ccc13e9657fa104a181d9a76be10882cca776ddc182028463bf6ef335f0c1034aca15ef637da306a383dba569e30a80cea574dfc380008661bd6cf137f2c30148c817ed6173ad08ad8dd5ab67ed048ec0ab7ad1cd87d291d95c09d5093d7c8b6bf0426e4ab01077ea5d6fdf6a2bb75e9c6ac15ac9c",
        "type": "nulldata"
      }
    }
  ],
  "blockhash": "32a2d379a33ec88ae1cb3a8a1a44f2d12b76aebf574ecf7ac16b289397ed6cd9",
  "confirmations": 1,
  "time": 1764176557,
  "blocktime": 1764176557
}