{
  "hex": "0100000000010102111e4810d52e59a2715230f463efafc6020c979e654d9020dbec90b80eddd10000000000feffffff02d02296e4782d0000225120705d0ddc4fd4669259cb7dc2561ae6c2642f0b57f38dd4ffed41dbc9421f230b00e1f50500000000fdd5046a2046a72d26ce3acb84680aa9036c1968cad1dd0a787c3d66ca2b1e99f6417b6f2a4db004ec21a5fe281ef6fb97404cfc01a9d49b6e8d37efe6df3c55cb2f4b843b8f63bccc0185de083ed6dbb7606cdc2189f4bb4ead17cfc6ff1c75eb0f6ba41baf439cac61e5be685eb6bbd7000cbc41e994db2ecd77afa69f7c158b6f0bc47bcf23fc8c41c59e487e969bf7202c9c61c9b4fb0eed578f86bf5c35ab4f2be45bef03dc6ca1257ea89e767b17c0cc7c8129541bee0db76f665fbcd54bafcb04bb0fe33c4c81055e88be565b37e0ec5ca109743bce2d974f467f9cf56b8feb249b2fc31c2ce1653ee8de363b57808c3cc169145bae4df72f261ffc950bef8b44fb4fa37c0cc1451ec8fe161b77a0ac1ce149347b8e6dd70f063fdcb52bcfab64db6f835cec21a5fe281ef6fb97404cfc01a9d49b6e8d37efe6df3c55cb2f4b843b8f63bccc0185de083ed6dbb7606cdc2189f4bb4ead17cfc6ff1c75eb0f6ba41baf439cac61e5be685eb6bbd7000cbc41e994db2ecd77afa69f7c158b6f0bc47bcf23fc8c41c59e487e969bf7202c9c61c9b4fb0eed578f86bf5c35ab4f2be45bef03dc6ca1257ea89e767b17c0cc7c8129541bee0db76f665fbcd54bafcb04bb0fe33c4c81055e88be565b37e0ec5ca109743bce2d974f467f9cf56b8feb249b2fc31c2ce1653ee8de363b57808c3cc169145bae4df72f261ffc950bef8b44fb4fa37c0cc1451ec8fe161b77a0ac1ce149347b8e6dd70f063fdcb52bcfab64db6f835cec21a5fe281ef6fb97404cfc01a9d49b6e8d37efe6df3c55cb2f4b843b8f63bccc0185de083ed6dbb7606cdc2189f4bb4ead17cfc6ff1c75eb0f6ba41baf439cac61e5be685eb6bbd7000cbc41e994db2ecd77afa69f7c158b6f0bc47bcf23fc8c41c59e487e969bf7202c9c61c9b4fb0eed578f86bf5c35ab4f2be45bef03dc6ca1257ea89e767b17c0cc7c8129541bee0db76f665fbcd54bafcb04bb0fe33c4c81055e88be565b37e0ec5ca109743bce2d974f467f9cf56b8feb249b2fc31c2ce1653ee8de363b57808c3cc169145bae4df72f261ffc950bef8b44fb4fa37c0cc1451ec8fe161b77a0ac1ce149347b8e6dd70f063fdcb52bcfab64db6f835cec21a5fe281ef6fb97404cfc01a9d49b6e8d37efe6df3c55cb2f4b843b8f63bccc0185de083ed6dbb7606cdc2189f4bb4ead17cfc6ff1c75eb0f6ba41baf439cac61e5be685eb6bbd7000cbc41e994db2ecd77afa69f7c158b6f0bc47bcf23fc8c41c59e487e969bf7202c9c61c9b4fb0eed578f86bf5c35ab4f2be45bef03dc6ca1257ea89e767b17c0cc7c8129541bee0db76f665fbcd54bafcb04bb0fe33c4c81055e88be565b37e0ec5ca109743bce2d974f467f9cf56b8feb249b2fc31c2ce1653ee8de363b57808c3cc169145bae4df72f261ffc950bef8b44fb4fa37c0cc1451ec8fe161b77a0ac1ce149347b8e6dd70f063fdcb52bcfab64db6f835cec21a5fe281ef6fb97404cfc01a9d49b6e8d37efe6df3c55cb2f4b843b8f63bccc0185de083ed6dbb7606cdc2189f4bb4ead17cfc6ff1c75eb0f6ba41baf439cac61e5be685eb6bbd7000cbc41e994db2ecd77afa69f7c158b6f0bc47bcf23fc8c41c59e487e969bf7202c9c61c9b4fb0eed578f86bf5c35ab4f2be45bef03dc6ca1257ea89e767b17c0cc7c8129541b6846162272200dd2586cad6c076f50a4a2dfd3b6a83a7de5a30c0382c5f7e1dc02fd750992a351aab17f66bb813ee17da4ef8fb2feac5162e54d25523a1e482ca81f90ef334c7f42715977189ea6a7f1542c903f646cb95bf8e1bfa511c947ea800d0dae8596354a4cfe554adae8d5a06d27790c06f4a6849e5b86e3a529becd9cc2ea19e448f35b50675c2a91049194129d8ed1798ae73e26f330839b8356b2eea51eff6312e496ac6e62ef36d36fa2de736857e8f5df0d58e82f32f85211aec2fc2e5a0ddefc96cd501a2c8a2302e62af31268bf76a6314e9fb82d530f0aebc66eb6d70ef900d644ef41e3e9ab8cd5c1e0155729e8eb7b1464bc2af1159c019e1ee7fb5ac2497adf78045a2dc053cfb5ed91868111592fce48eb56818028feb6b028406243f6a0f39eef97580ec69662d3840327be3e60165c0b9ff583926ac52d7997db51a017ece4c517b95b7e1f5ee98636cbe8828a37f3e6f3844999338015d20930adb799a504a2a71e32d584f5f489b7022c88558a7a1383652d009ba4a122fb9c90152431de540ef5753f55866cfca061fc21e845712e37dc2fcdddbd5f5f07562a3a7e9712ae2eab5b2225620bcb0d43b976de3610b6ea3e7c4afcde74cfa746d5986e3c55b22cce9c430a5dd6b21f2580d32f550dcc703f32ec693b5b18282f4e4576e36d97c847f77f86eec23cffdc902df46ebd3ce07565e192fc596ea8bb236fcb6132db57c69455bd0cdbf6e5e914bb6954810016b603c76459649ff088e48eb5ee3d6a012cd84f8a6037a5795325c869ba34e04ef1663703d76a47bae18537d33e764ee766646a7bf4d704037db2a6ca995412b90db5887dfb0d0e3132887ad389861e7addef25b2ee9870a6ab423a85c186457040f194ecf9b7e307d51f131dd26f44c416280706a6b83127cdfc2c33abf8b273141456857b9af0997fda5bb0bb09194b0cbc15808e8832d3c911358f9b026d2e90357639ec3124a43129b17fede4c48bbae720da2c4d29a9d37926f5279aa2489c50fb50e85071b29ceac5fc1999c03f2cf2c0c9622de1f888572acca6c376a88bf88abe396b22a03d56d771c4c9dfa11a10e08459dc1f2afc4d8023c31307d72e646d0d82d8265502846c3b1b46545d9a88a558ce61cb4d94329a4c4f888509f66df81bd7fcd208b823224777e5493de012f5f24c712821068ff562ed9790c30b251b8ba24b2af9ea16e35d14a0d3929900f51f2e814d90ea46cdb4ac4f2090b462251c94d76fde0a778938231c07cc3fd6f3da9a55fe5882e2f2c69c7aa6402182633ae2152f0c9146a18967c40a6cf5d770ae7754da94d9b802accee51faa5d11dc90080fa584a8f0a8001883a2e0953181ebb75d3e32d7247f3e0c9c3bb8df3aff97ba92f8a0e20ed479cde71c3bd151532669a66668b72af9bc7eb85e3c99be887664e7551fabb1a10d2dfda78ecbc78e23b5e90d5a1cb98481e706489068cd8f22810baa3f0f879fd77e6c462e51b0eeabb835d22fddb7eab22029e8aa882792f7594c81a06e4f0bedaa25e0d4e61e7a5009e4813a1274882d1720088f3eefb855f29b710e8692153a7e9e5dccb4cf3144d0260deb28ac85ff19ec64d781633f04b042ecc6fccd126ce229f852d9ecb40d142a919360b5022ed05915220c74a2fd28221af009b84968c6ec76b64a4b956f1a24e391b4b3f64fa8d51c4151a9bf90482576d776fabc42b7079776fc3abbb79200321176c2bb15a73abbbe11a2200bda56f633cb81c246aa340d845d0013e2039089af55d035c53743cb65ec90091cb69146ea7b2935ebdf5192fe85a1ddde7d1d01edfbd5b58fb03d5339008898a21b00fbc8eb8844b5d99c5761009c225503226fd4fc0255187fdcbb4457ce8c14602717df0b9b5bc3beca722723ad925ed0abc2a4f5b24a6d29d113c6582ee361fadc4f494f3cf8ca31142260cb6223cef7b532579ffe1a03d863056a85d3a3e47bf81308b246ac3b1c9e0e7069eafe909dd51b57a8d3ecc2f657cb912a219477d6edb961544ccde5ef5fb1e468955ca24ca8d40f094b2a8713d72ed82e5c6af9ee63a5de3c148dc12a6eba8cdafd487125eeb3353dee3c2077c065a304d3021d382b962adbebe0b17a561dc56dee3d8cde5edadc5603ecd0103ea6939a56e5781622c253ec5d40ddff772484bbad02bccaf09c0459d1a8b1c0a3719aad338b8371d2e261e56c68154e0afde999708bd432d08a97902391fdb6714b45a77227690437dbd719a87da22da52499d7276a17651e88145835c1f5d11a20aa7b88f777320f6c76ac7226a0396db0469ad4ef34ffe83b82343d7fd4f159a23cb5eca0537e89d0490dd5c74882d0f7748f7910e58c3745690a324e1fcbd5d428d23afc737ef1de20f649193910313469942d6db4a9278e07f670a36d4f01f09825921ea7ef93858ae0f49bcb7b9ea5c09bd91734169f17b1ae2b11b1a265841a39330919e56179552dc96d8c30b9f074879bb7d5f49ed53ad7317fd121fd42e9f16abce5e477e92657a8a4396af5a61ba64fcdc04d2cb76ffeb7f507ea29b09e41e5834c6aaf5210e91c88ac10d105f79296bc0c2c3536cb6b6063753b1890cd8417434d378e6ee7aa1acdc168be4a4bb50ebc0523d3921c309ef34f763acec82f9d9d7473377757c5a4a7f8928e9c7a4086ec1f58565a558b28eda1725d8aaa95df654e0d847d66f7969f0f25690068c51510841d77765f4d6cc1e95bec77ef978a71ea0b2dc12d2aef5ab148ad0c0f2edad2e99d9b58de40063c57947eee235d5e4e726590ee7442231074c60b652dc37fea5f11138bde8e5e194fde5cfdd359c93c9ef026d1eba8438622b6288e253cbcdc9260ee6cea613e54875d663aab34c04d7b00b8dd2314d1942ecf0b102a908a30c968584bd97021bf44177d3b7a9e2498ad207830b73dd080e693ebe9266acda021ba977efde943c08f871e984688bb9df665257bc6775d13d9d2fb5f6356d3e2dd96b41308ac22ef8b97999fc982975fd25264929af735747fe42e05334a0ecfdea48ad8a10b51f8d30206cb0d399caed133dcd35086208f6318a4a9355a566c7af9563df967e177a076e857be7555deed0c83a17b55715405f228a9808d6a9592c6a8203bcb3c7830917979823375eb92bbffc61611fe465ad8e7237b2001711832a202d1b6d16d22614b8584dd131b68d03c023ed8ee820ed554e00b91985d8f4b821c8a3f284f69af820fededee0e2d483a68b7d2c9cc2ba80a634dc9f52a221a5faa268aa1a06b1ef625fe276b59cae9a7c03ea0e0062601a582697071b0b6f44e4c21b721e9406ecacc1033bab82f3e4c9e650102162028363d959ca4bcc4cce7f8081015335477788e9ea9b8bdbec1ccced4d5dfe0e6ecf9001618374d7174848c9fb3d2fc070a202f4456728b93aebac5c6e1e4eff30000000000000000000000000f26334401fd210500936aa43bf77d4184db5d7d59708c33dcdb1f23217ba3f9a9721a9f0018b9cb43da46b0e9701f3a7049b095aa01adb00f252a12b461f335702dbb7ff5b50eff3960dea2bb07f023cf18ca58de17da0dc5f79c247d1178a1eb42a6b333db1bccc05d1d2d20af1f0d5bee119dec2a55d031bd223233c952abafa5e2353a834015ae7e138f6a161d43702a173b7f5ac1211c861de72a4035d4b5321fc6befbb10886c246cfca7ddabd59061b0367f5b4367b565e72de16c3934a88709bec12ae32f776dd3e063727d83208e211bc016ec329b232e503210823a27c3cd31e385029a3896204ffdf15d8d910f3cf02af7ae09773e6e6805b1055f44771a322a235a03416682eb46b04223e9de1b8f6ab84c9a46f3dbe04c2ceaa823f483122f65aa56e8c56e3f2c73632aa1073d701cd683e40277e4db7a22e4c9c642306e267d97552a4070d0c553c18011bc5a849170454399db96627bb523fa92ce9512e48467b3953d92f826dcd61ba0940fc42cd55bce1dcce6a78a708a6f4381ca3708759d40a3a6eb9c8f06ad51c20a75fdcb28dc35423e339cd2585315d5d57f8eca108bd7ce3c22ea0a216d546ff70fb455c5f352333299bc5a098783d7a4873921d4de927e75bec7ae6e8753305b6d05c497508bb16c1eed441fcc5985657d9d5f274e2ddc26553d31a36d3a367131568e7478c10c7dadddc69ef261704db5e0712883dca0a7d5357db4fb7f05d5211fcb089da8200bcad8d086c7872114541830d4443ade97705f5e234fba023af15986c0adc6e86c4cae832b056161bae9a432941e93183e571edbcebdfbde361d8732d53ba1477433b378a0193b9396208f3e60360a459da8427ca7b87d2f2b41f7e1ea6a1d7de22ccd90783acba861cac406d0b0fb0073b33dcc1eb5d57bf45fa47ada788fb99235f80a8a35baacf4015b4c82ebf6371045e9303884bf7eab4b6cc212a41d0113a101bca3043590de5d460174bb593c8fee6d163b9e9a253b970fd49963afd47ed0429d2780e69c5a109a322ecdd2ba993416778fe7bff3603d37ac5860c7e915d381b89cec889d869a53d4f5734c40308c2e9e7695487a3010424de4734b8d9dc1355af4dff6d36b49db488402c57d1171a7f99407da2759eba4d1e1c19b6e50c51411da56a8a1df353e02c295bd7243b073346ae6a4beef500054d2324525e542f69701209e3c0c5581aaa74a0a984e14b0fc6ce21225523819aab2d1bf1ed39bb75127719be5feefdc3149b800c884a7cea516bb7ebc8a6b3536f68dceff5485e6ede7865efbcca2728be9a78ad469c4b5eddef68620ea8cc704044261f4b213f5611b1033ee69625389bf72301d71a877b601e2ceabead1a5e2a916a5e1d3dc4912517c321962df8ef1760a83a421194057f8144953f971a7c72a7e8bd6928f3ffc7af2d136c704362e8e7a50726410cc571afb1112f48f6a12a086098b84f77b5e85a774dbf3a219664e34da80e3444d262a67d92b50a9d3358dbeaa1c3fe8964ab0d79633238c7ad73e66cb9fe98a6c64eb34fd0233b29b3f8522ab71f3d41aaa9a901e79d9512a1d6391124b851393e451a2ed95828d1e462db4e4c353fd23f21a62e65c66c758bf46158e77218e12dfbd071d5f364a9d319d7752e2bd0e7adc4d44cab383a13e9e8e1b8fd788eec17ba324ce93b4d6f6b983a6c20ab752ed5d0dd25ade802aba3a3e79f21d1c06a8c1dcd4c2e740cc16f767f502baaa93d4f3123c3e1ceb95f5da933d390ba85cf8cd852c5aee35c9460f7849d46356524fbeda7f87059a26fadfab4fd24b3a6991847641bae5996fbd9bd1fb6ef77801e1c1905c4b4bf3f5a83dd38a4f55a000000",
  "txid": "4563803276583bf31ca0bfbf377cb84ebe02cc27d783dc4a8640e977b74d8871",
  "hash": "5f65e17dd3997c2c84f6b8a280a89ed796f30711ed71541fe745e0ce10085438",
  "size": 5085,
  "vsize": 2278,
  "version": 1,
  "locktime": 90,
  "vin": [
    {
      "txid": "d1dd0eb890ecdb20904d659e970c02c6afef63f4305271a2592ed510481e1102",
      "vout": 0,
      "scriptSig": {
        "asm": "",
        "hex": ""
      },
      "txinwitness": [
        "92a351aab17f66bb813ee17da4ef8fb2feac5162e54d25523a1e482ca81f90ef334c7f42715977189ea6a7f1542c903f646cb95bf8e1bfa511c947ea800d0dae8596354a4cfe554adae8d5a06d27790c06f4a6849e5b86e3a529becd9cc2ea19e448f35b50675c2a91049194129d8ed1798ae73e26f330839b8356b2eea51eff6312e496ac6e62ef36d36fa2de736857e8f5df0d58e82f32f85211aec2fc2e5a0ddefc96cd501a2c8a2302e62af31268bf76a6314e9fb82d530f0aebc66eb6d70ef900d644ef41e3e9ab8cd5c1e0155729e8eb7b1464bc2af1159c019e1ee7fb5ac2497adf78045a2dc053cfb5ed91868111592fce48eb56818028feb6b028406243f6a0f39eef97580ec69662d3840327be3e60165c0b9ff583926ac52d7997db51a017ece4c517b95b7e1f5ee98636cbe8828a37f3e6f3844999338015d20930adb799a504a2a71e32d584f5f489b7022c88558a7a1383652d009ba4a122fb9c90152431de540ef5753f55866cfca061fc21e845712e37dc2fcdddbd5f5f07562a3a7e9712ae2eab5b2225620bcb0d43b976de3610b6ea3e7c4afcde74cfa746d5986e3c55b22cce9c430a5dd6b21f2580d32f550dcc703f32ec693b5b18282f4e4576e36d97c847f77f86eec23cffdc902df46ebd3ce07565e192fc596ea8bb236fcb6132db57c69455bd0cdbf6e5e914bb6954810016b603c76459649ff088e48eb5ee3d6a012cd84f8a6037a5795325c869ba34e04ef1663703d76a47bae18537d33e764ee766646a7bf4d704037db2a6ca995412b90db5887dfb0d0e3132887ad389861e7addef25b2ee9870a6ab423a85c186457040f194ecf9b7e307d51f131dd26f44c416280706a6b83127cdfc2c33abf8b273141456857b9af0997fda5bb0bb09194b0cbc15808e8832d3c911358f9b026d2e90357639ec3124a43129b17fede4c48bbae720da2c4d29a9d37926f5279aa2489c50fb50e85071b29ceac5fc1999c03f2cf2c0c9622de1f888572acca6c376a88bf88abe396b22a03d56d771c4c9dfa11a10e08459dc1f2afc4d8023c31307d72e646d0d82d8265502846c3b1b46545d9a88a558ce61cb4d94329a4c4f888509f66df81bd7fcd208b823224777e5493de012f5f24c712821068ff562ed9790c30b251b8ba24b2af9ea16e35d14a0d3929900f51f2e814d90ea46cdb4ac4f2090b462251c94d76fde0a778938231c07cc3fd6f3da9a55fe5882e2f2c69c7aa6402182633ae2152f0c9146a18967c40a6cf5d770ae7754da94d9b802accee51faa5d11dc90080fa584a8f0a8001883a2e0953181ebb75d3e32d7247f3e0c9c3bb8df3aff97ba92f8a0e20ed479cde71c3bd151532669a66668b72af9bc7eb85e3c99be887664e7551fabb1a10d2dfda78ecbc78e23b5e90d5a1cb98481e706489068cd8f22810baa3f0f879fd77e6c462e51b0eeabb835d22fddb7eab22029e8aa882792f7594c81a06e4f0bedaa25e0d4e61e7a5009e4813a1274882d1720088f3eefb855f29b710e8692153a7e9e5dccb4cf3144d0260deb28ac85ff19ec64d781633f04b042ecc6fccd126ce229f852d9ecb40d142a919360b5022ed05915220c74a2fd28221af009b84968c6ec76b64a4b956f1a24e391b4b3f64fa8d51c4151a9bf90482576d776fabc42b7079776fc3abbb79200321176c2bb15a73abbbe11a2200bda56f633cb81c246aa340d845d0013e2039089af55d035c53743cb65ec90091cb69146ea7b2935ebdf5192fe85a1ddde7d1d01edfbd5b58fb03d5339008898a21b00fbc8eb8844b5d99c5761009c225503226fd4fc0255187fdcbb4457ce8c14602717df0b9b5bc3beca722723ad925ed0abc2a4f5b24a6d29d113c6582ee361fadc4f494f3cf8ca31142260cb6223cef7b532579ffe1a03d863056a85d3a3e47bf81308b246ac3b1c9e0e7069eafe909dd51b57a8d3ecc2f657cb912a219477d6edb961544ccde5ef5fb1e468955ca24ca8d40f094b2a8713d72ed82e5c6af9ee63a5de3c148dc12a6eba8cdafd487125eeb3353dee3c2077c065a304d3021d382b962adbebe0b17a561dc56dee3d8cde5edadc5603ecd0103ea6939a56e5781622c253ec5d40ddff772484bbad02bccaf09c0459d1a8b1c0a3719aad338b8371d2e261e56c68154e0afde999708bd432d08a97902391fdb6714b45a77227690437dbd719a87da22da52499d7276a17651e88145835c1f5d11a20aa7b88f777320f6c76ac7226a0396db0469ad4ef34ffe83b82343d7fd4f159a23cb5eca0537e89d0490dd5c74882d0f7748f7910e58c3745690a324e1fcbd5d428d23afc737ef1de20f649193910313469942d6db4a9278e07f670a36d4f01f09825921ea7ef93858ae0f49bcb7b9ea5c09bd91734169f17b1ae2b11b1a265841a39330919e56179552dc96d8c30b9f074879bb7d5f49ed53ad7317fd121fd42e9f16abce5e477e92657a8a4396af5a61ba64fcdc04d2cb76ffeb7f507ea29b09e41e5834c6aaf5210e91c88ac10d105f79296bc0c2c3536cb6b6063753b1890cd8417434d378e6ee7aa1acdc168be4a4bb50ebc0523d3921c309ef34f763acec82f9d9d7473377757c5a4a7f8928e9c7a4086ec1f58565a558b28eda1725d8aaa95df654e0d847d66f7969f0f25690068c51510841d77765f4d6cc1e95bec77ef978a71ea0b2dc12d2aef5ab148ad0c0f2edad2e99d9b58de40063c57947eee235d5e4e726590ee7442231074c60b652dc37fea5f11138bde8e5e194fde5cfdd359c93c9ef026d1eba8438622b6288e253cbcdc9260ee6cea613e54875d663aab34c04d7b00b8dd2314d1942ecf0b102a908a30c968584bd97021bf44177d3b7a9e2498ad207830b73dd080e693ebe9266acda021ba977efde943c08f871e984688bb9df665257bc6775d13d9d2fb5f6356d3e2dd96b41308ac22ef8b97999fc982975fd25264929af735747fe42e05334a0ecfdea48ad8a10b51f8d30206cb0d399caed133dcd35086208f6318a4a9355a566c7af9563df967e177a076e857be7555deed0c83a17b55715405f228a9808d6a9592c6a8203bcb3c7830917979823375eb92bbffc61611fe465ad8e7237b2001711832a202d1b6d16d22614b8584dd131b68d03c023ed8ee820ed554e00b91985d8f4b821c8a3f284f69af820fededee0e2d483a68b7d2c9cc2ba80a634dc9f52a221a5faa268aa1a06b1ef625fe276b59cae9a7c03ea0e0062601a582697071b0b6f44e4c21b721e9406ecacc1033bab82f3e4c9e650102162028363d959ca4bcc4cce7f8081015335477788e9ea9b8bdbec1ccced4d5dfe0e6ecf9001618374d7174848c9fb3d2fc070a202f4456728b93aebac5c6e1e4eff30000000000000000000000000f26334401",
        "00936aa43bf77d4184db5d7d59708c33dcdb1f23217ba3f9a9721a9f0018b9cb43da46b0e9701f3a7049b095aa01adb00f252a12b461f335702dbb7ff5b50eff3960dea2bb07f023cf18ca58de17da0dc5f79c247d1178a1eb42a6b333db1bccc05d1d2d20af1f0d5bee119dec2a55d031bd223233c952abafa5e2353a834015ae7e138f6a161d43702a173b7f5ac1211c861de72a4035d4b5321fc6befbb10886c246cfca7ddabd59061b0367f5b4367b565e72de16c3934a88709bec12ae32f776dd3e063727d83208e211bc016ec329b232e503210823a27c3cd31e385029a3896204ffdf15d8d910f3cf02af7ae09773e6e6805b1055f44771a322a235a03416682eb46b04223e9de1b8f6ab84c9a46f3dbe04c2ceaa823f483122f65aa56e8c56e3f2c73632aa1073d701cd683e40277e4db7a22e4c9c642306e267d97552a4070d0c553c18011bc5a849170454399db96627bb523fa92ce9512e48467b3953d92f826dcd61ba0940fc42cd55bce1dcce6a78a708a6f4381ca3708759d40a3a6eb9c8f06ad51c20a75fdcb28dc35423e339cd2585315d5d57f8eca108bd7ce3c22ea0a216d546ff70fb455c5f352333299bc5a098783d7a4873921d4de927e75bec7ae6e8753305b6d05c497508bb16c1eed441fcc5985657d9d5f274e2ddc26553d31a36d3a367131568e7478c10c7dadddc69ef261704db5e0712883dca0a7d5357db4fb7f05d5211fcb089da8200bcad8d086c7872114541830d4443ade97705f5e234fba023af15986c0adc6e86c4cae832b056161bae9a432941e93183e571edbcebdfbde361d8732d53ba1477433b378a0193b9396208f3e60360a459da8427ca7b87d2f2b41f7e1ea6a1d7de22ccd90783acba861cac406d0b0fb0073b33dcc1eb5d57bf45fa47ada788fb99235f80a8a35baacf4015b4c82ebf6371045e9303884bf7eab4b6cc212a41d0113a101bca3043590de5d460174bb593c8fee6d163b9e9a253b970fd49963afd47ed0429d2780e69c5a109a322ecdd2ba993416778fe7bff3603d37ac5860c7e915d381b89cec889d869a53d4f5734c40308c2e9e7695487a3010424de4734b8d9dc1355af4dff6d36b49db488402c57d1171a7f99407da2759eba4d1e1c19b6e50c51411da56a8a1df353e02c295bd7243b073346ae6a4beef500054d2324525e542f69701209e3c0c5581aaa74a0a984e14b0fc6ce21225523819aab2d1bf1ed39bb75127719be5feefdc3149b800c884a7cea516bb7ebc8a6b3536f68dceff5485e6ede7865efbcca2728be9a78ad469c4b5eddef68620ea8cc704044261f4b213f5611b1033ee69625389bf72301d71a877b601e2ceabead1a5e2a916a5e1d3dc4912517c321962df8ef1760a83a421194057f8144953f971a7c72a7e8bd6928f3ffc7af2d136c704362e8e7a50726410cc571afb1112f48f6a12a086098b84f77b5e85a774dbf3a219664e34da80e3444d262a67d92b50a9d3358dbeaa1c3fe8964ab0d79633238c7ad73e66cb9fe98a6c64eb34fd0233b29b3f8522ab71f3d41aaa9a901e79d9512a1d6391124b851393e451a2ed95828d1e462db4e4c353fd23f21a62e65c66c758bf46158e77218e12dfbd071d5f364a9d319d7752e2bd0e7adc4d44cab383a13e9e8e1b8fd788eec17ba324ce93b4d6f6b983a6c20ab752ed5d0dd25ade802aba3a3e79f21d1c06a8c1dcd4c2e740cc16f767f502baaa93d4f3123c3e1ceb95f5da933d390ba85cf8cd852c5aee35c9460f7849d46356524fbeda7f87059a26fadfab4fd24b3a6991847641bae5996fbd9bd1fb6ef77801e1c1905c4b4bf3f5a83dd38a4f5"
      ],
      "sequence": 4294967294
    }
  ],
  "vout": [
    {
      "value": 499972.5437,
      "n": 0,
      "scriptPubKey": {
        "asm": "1 705d0ddc4fd4669259cb7dc2561ae6c2642f0b57f38dd4ffed41dbc9421f230b",
        "hex": "5120705d0ddc4fd4669259cb7dc2561ae6c2642f0b57f38dd4ffed41dbc9421f230b",
        "reqSigs": 1,
        "type": "witness_v1_scripthash",
        "addresses": [
          "3QJmnh"
        ]
      }
    },
    {
      "value": 1.0,
      "n": 1,
      "scriptPubKey": {
        "asm": "OP_RETURN 46a72d26ce3acb84680aa9036c1968cad1dd0a787c3d66ca2b1e99f6417b6f2a ec21a5fe281ef6fb97404cfc01a9d49b6e8d37efe6df3c55cb2f4b843b8f63bccc0185de083ed6dbb7606cdc2189f4bb4ead17cfc6ff1c75eb0f6ba41baf439cac61e5be685eb6bbd7000cbc41e994db2ecd77afa69f7c158b6f0bc47bcf23fc8c41c59e487e969bf7202c9c61c9b4fb0eed578f86bf5c35ab4f2be45bef03dc6ca1257ea89e767b17c0cc7c8129541bee0db76f665fbcd54bafcb04bb0fe33c4c81055e88be565b37e0ec5ca109743bce2d974f467f9cf56b8feb249b2fc31c2ce1653ee8de363b57808c3cc169145bae4df72f261ffc950bef8b44fb4fa37c0cc1451ec8fe161b77a0ac1ce149347b8e6dd70f063fdcb52bcfab64db6f835cec21a5fe281ef6fb97404cfc01a9d49b6e8d37efe6df3c55cb2f4b843b8f63bccc0185de083ed6dbb7606cdc2189f4bb4ead17cfc6ff1c75eb0f6ba41baf439cac61e5be685eb6bbd7000cbc41e994db2ecd77afa69f7c158b6f0bc47bcf23fc8c41c59e487e969bf7202c9c61c9b4fb0eed578f86bf5c35ab4f2be45bef03dc6ca1257ea89e767b17c0cc7c8129541bee0db76f665fbcd54bafcb04bb0fe33c4c81055e88be565b37e0ec5ca109743bce2d974f467f9cf56b8feb249b2fc31c2ce1653ee8de363b57808c3cc169145bae4df72f261ffc950bef8b44fb4fa37c0cc1451ec8fe161b77a0ac1ce149347b8e6dd70f063fdcb52bcfab64db6f835cec21a5fe281ef6fb97404cfc01a9d49b6e8d37efe6df3c55cb2f4b843b8f63bccc0185de083ed6dbb7606cdc2189f4bb4ead17cfc6ff1c75eb0f6ba41baf439cac61e5be685eb6bbd7000cbc41e994db2ecd77afa69f7c158b6f0bc47bcf23fc8c41c59e487e969bf7202c9c61c9b4fb0eed578f86bf5c35ab4f2be45bef03dc6ca1257ea89e767b17c0cc7c8129541bee0db76f665fbcd54bafcb04bb0fe33c4c81055e88be565b37e0ec5ca109743bce2d974f467f9cf56b8feb249b2fc31c2ce1653ee8de363b57808c3cc169145bae4df72f261ffc950bef8b44fb4fa37c0cc1451ec8fe161b77a0ac1ce149347b8e6dd70f063fdcb52bcfab64db6f835cec21a5fe281ef6fb97404cfc01a9d49b6e8d37efe6df3c55cb2f4b843b8f63bccc0185de083ed6dbb7606cdc2189f4bb4ead17cfc6ff1c75eb0f6ba41baf439cac61e5be685eb6bbd7000cbc41e994db2ecd77afa69f7c158b6f0bc47bcf23fc8c41c59e487e969bf7202c9c61c9b4fb0eed578f86bf5c35ab4f2be45bef03dc6ca1257ea89e767b17c0cc7c8129541bee0db76f665fbcd54bafcb04bb0fe33c4c81055e88be565b37e0ec5ca109743bce2d974f467f9cf56b8feb249b2fc31c2ce1653ee8de363b57808c3cc169145bae4df72f261ffc950bef8b44fb4fa37c0cc1451ec8fe161b77a0ac1ce149347b8e6dd70f063fdcb52bcfab64db6f835cec21a5fe281ef6fb97404cfc01a9d49b6e8d37efe6df3c55cb2f4b843b8f63bccc0185de083ed6dbb7606cdc2189f4bb4ead17cfc6ff1c75eb0f6ba41baf439cac61e5be685eb6bbd7000cbc41e994db2ecd77afa69f7c158b6f0bc47bcf23fc8c41c59e487e969bf7202c9c61c9b4fb0eed578f86bf5c35ab4f2be45bef03dc6ca1257ea89e767b17c0cc7c8129541b6846162272200dd2586cad6c076f50a4a2dfd3b6a83a7de5a30c0382c5f7e1dc",
        "hex": "6a2046a72d26ce3acb84680aa9036c1968cad1dd0a787c3d66ca2b1e99f6417b6f2a4db004ec21a5fe281ef6fb97404cfc01a9d49b6e8d37efe6df3c55cb2f4b843b8f63bccc0185de083ed6dbb7606cdc2189f4bb4ead17cfc6ff1c75eb0f6ba41baf439cac61e5be685eb6bbd7000cbc41e994db2ecd77afa69f7c158b6f0bc47bcf23fc8c41c59e487e969bf7202c9c61c9b4fb0eed578f86bf5c35ab4f2be45bef03dc6ca1257ea89e767b17c0cc7c8129541bee0db76f665fbcd54bafcb04bb0fe33c4c81055e88be565b37e0ec5ca109743bce2d974f467f9cf56b8feb249b2fc31c2ce1653ee8de363b57808c3cc169145bae4df72f261ffc950bef8b44fb4fa37c0cc1451ec8fe161b77a0ac1ce149347b8e6dd70f063fdcb52bcfab64db6f835cec21a5fe281ef6fb97404cfc01a9d49b6e8d37efe6df3c55cb2f4b843b8f63bccc0185de083ed6dbb7606cdc2189f4bb4ead17cfc6ff1c75eb0f6ba41baf439cac61e5be685eb6bbd7000cbc41e994db2ecd77afa69f7c158b6f0bc47bcf23fc8c41c59e487e969bf7202c9c61c9b4fb0eed578f86bf5c35ab4f2be45bef03dc6ca1257ea89e767b17c0cc7c8129541bee0db76f665fbcd54bafcb04bb0fe33c4c81055e88be565b37e0ec5ca109743bce2d974f467f9cf56b8feb249b2fc31c2ce1653ee8de363b57808c3cc169145bae4df72f261ffc950bef8b44fb4fa37c0cc1451ec8fe161b77a0ac1ce149347b8e6dd70f063fdcb52bcfab64db6f835cec21a5fe281ef6fb97404cfc01a9d49b6e8d37efe6df3c55cb2f4b843b8f63bccc0185de083ed6dbb7606cdc2189f4bb4ead17cfc6ff1c75eb0f6ba41baf439cac61e5be685eb6bbd7000cbc41e994db2ecd77afa69f7c158b6f0bc47bcf23fc8c41c59e487e969bf7202c9c61c9b4fb0eed578f86bf5c35ab4f2be45bef03dc6ca1257ea89e767b17c0cc7c8129541bee0db76f665fbcd54bafcb04bb0fe33c4c81055e88be565b37e0ec5ca109743bce2d974f467f9cf56b8feb249b2fc31c2ce1653ee8de363b57808c3cc169145bae4df72f261ffc950bef8b44fb4fa37c0cc1451ec8fe161b77a0ac1ce149347b8e6dd70f063fdcb52bcfab64db6f835cec21a5fe281ef6fb97404cfc01a9d49b6e8d37efe6df3c55cb2f4b843b8f63bccc0185de083ed6dbb7606cdc2189f4bb4ead17cfc6ff1c75eb0f6ba41baf439cac61e5be685eb6bbd7000cbc41e994db2ecd77afa69f7c158b6f0bc47bcf23fc8c41c59e487e969bf7202c9c61c9b4fb0eed578f86bf5c35ab4f2be45bef03dc6ca1257ea89e767b17c0cc7c8129541bee0db76f665fbcd54bafcb04bb0fe33c4c81055e88be565b37e0ec5ca109743bce2d974f467f9cf56b8feb249b2fc31c2ce1653ee8de363b57808c3cc169145bae4df72f261ffc950bef8b44fb4fa37c0cc1451ec8fe161b77a0ac1ce149347b8e6dd70f063fdcb52bcfab64db6f835cec21a5fe281ef6fb97404cfc01a9d49b6e8d37efe6df3c55cb2f4b843b8f63bccc0185de083ed6dbb7606cdc2189f4bb4ead17cfc6ff1c75eb0f6ba41baf439cac61e5be685eb6bbd7000cbc41e994db2ecd77afa69f7c158b6f0bc47bcf23fc8c41c59e487e969bf7202c9c61c9b4fb0eed578f86bf5c35ab4f2be45bef03dc6ca1257ea89e767b17c0cc7c8129541b6846162272200dd2586cad6c076f50a4a2dfd3b6a83a7de5a30c0382c5f7e1dc",
        "type": "nulldata"
      }
    }
  ],
  "blockhash": "ccdcfedcff6ade259e7f17160cbcd6ff75249aea4f0a85a59e1a4fb3f710df5f",
  "confirmations": 1,
  "time": 1764180435,
  "blocktime": 1764180435
}