{
  "hex": "01000000000101f6c17d7ac788649e219a0fa3bd5dc2f803471c1117d3d44f4d593a8a478fe43a0100000000feffffff0200e1f50500000000fdd5046a20ee39e307fd474449d931d119d2efcea56ad11d4115553d43b4e12374015df7484db0049ba4fdc8eab7c6ce1bea97394aa62b4f284c20752bb2eedcae657342500f1873bb84dde8ca97e6ee3bcab7196a860b6f086c00550b92cefc8e455362702f3853dbe4bd88aaf7868e5baad7790ae66b0f680c60356bf2ae9cee253302104f5833fbc49da88ad7a6ae7b8af7592ac64b2f482c40154bd28ebcce051322306f78131b247d486a37464e9b6a17b9ca26abcfa8cca0f5ab326e5c2ee5f3c2d08f98f33b045d684a17666ebb4a3799ea068bef88ec80d58b124e7c0ec5d3e2f0afb8d35b643d082a77060edb2a57f98a66eb8fe88ce0b5eb722e1c6ea5b38290cfd8b37b441d280a57262efb0a77d9aa46cbafc8acc095cb520e3c4e8593a2b0eff8939ba4fdc8eab7c6ce1bea97394aa62b4f284c20752bb2eedcae657342500f1873bb84dde8ca97e6ee3bcab7196a860b6f086c00550b92cefc8e455362702f3853dbe4bd88aaf7868e5baad7790ae66b0f680c60356bf2ae9cee253302104f5833fbc49da88ad7a6ae7b8af7592ac64b2f482c40154bd28ebcce051322306f78131b247d486a37464e9b6a17b9ca26abcfa8cca0f5ab326e5c2ee5f3c2d08f98f33b045d684a17666ebb4a3799ea068bef88ec80d58b124e7c0ec5d3e2f0afb8d35b643d082a77060edb2a57f98a66eb8fe88ce0b5eb722e1c6ea5b38290cfd8b37b441d280a57262efb0a77d9aa46cbafc8acc095cb520e3c4e8593a2b0eff8939ba4fdc8eab7c6ce1bea97394aa62b4f284c20752bb2eedcae657342500f1873bb84dde8ca97e6ee3bcab7196a860b6f086c00550b92cefc8e455362702f3853dbe4bd88aaf7868e5baad7790ae66b0f680c60356bf2ae9cee253302104f5833fbc49da88ad7a6ae7b8af7592ac64b2f482c40154bd28ebcce051322306f78131b247d486a37464e9b6a17b9ca26abcfa8cca0f5ab326e5c2ee5f3c2d08f98f33b045d684a17666ebb4a3799ea068bef88ec80d58b124e7c0ec5d3e2f0afb8d35b643d082a77060edb2a57f98a66eb8fe88ce0b5eb722e1c6ea5b38290cfd8b37b441d280a57262efb0a77d9aa46cbafc8acc095cb520e3c4e8593a2b0eff8939ba4fdc8eab7c6ce1bea97394aa62b4f284c20752bb2eedcae657342500f1873bb84dde8ca97e6ee3bcab7196a860b6f086c00550b92cefc8e455362702f3853dbe4bd88aaf7868e5baad7790ae66b0f680c60356bf2ae9cee253302104f5833fbc49da88ad7a6ae7b8af7592ac64b2f482c40154bd28ebcce051322306f78131b247d486a37464e9b6a17b9ca26abcfa8cca0f5ab326e5c2ee5f3c2d08f98f33b045d684a17666ebb4a3799ea068bef88ec80d58b124e7c0ec5d3e2f0afb8d35b643d082a77060edb2a57f98a66eb8fe88ce0b5eb722e1c6ea5b38290cfd8b37b441d280a57262efb0a77d9aa46cbafc8acc095cb520e3c4e8593a2b0eff8939ba4fdc8eab7c6ce1bea97394aa62b4f284c20752bb2eedcae657342500f1873bb84dde8ca97e6ee3bcab7196a860b6f086c00550b92cefc8e455362702f3853dbe4bd88aaf7868e5baad7790ae66b0f680c60356bf2ae9cee253302104f5833fbc49da88ad7a6ae7b8af7592ac64b2f482c40154bd28ebcce051322306f78131b247d486a37464e9b6a17b9ca26abcf022aa4338336d04d54dfdf8f75f533ed6b561e6650c05855a0145d0749971da9a020df63792d0000225120c5737ba9b58adcf0ea7f321cec367840c78f2f1777a94d72fec8d9a58c01eec502fd7509b35a8336f39b236419fa33bfbc9fe7dc9c0c4e35a9f3467b85f09daceee1265accca2357f62f94eeba98f264cdfc0f3f708d8dc85fb4e04dcf0cb231653fd84805ec608991b868b10c0ac4c151b55ee272f6f8d80df7d878be8a4ef2053c94afd515daed5a56979139c78019127dd9614220f1e4ac1b87d429a74e4ce77e630cbd263c140c483dbbe496564b614eb254065269c382f7f1161a0e2b51eefbdd6e8921c40fd42e952c34132d4e1b480dbd88a33b7e0ddcfd7a1bb6104174d1f9cc7c751bfefa47aadbb2f40f4422a1267a54fcdd23e8513e79903a5d6b79b6df79fa4159133d6fffb631e54166f9876819e6c5c0f58d53b47632a29b4874e5e3bd2cec87d4c18f2331eec67640e3f4f3a3d45ffedffa7f1c563ff952a6883beeb3391c2a9aa253de48889e3765d202ae897e9ad9d154b17036d58984bc4c598f36d7dbfec4ce57f6b9607b0e33287597b1c3a69e4137dc309b483bc303d142d532b4f70519a9ed236b50383b74cfed58a0626fc768b41af944c918915dd664add4acede8aeab3f3ebbbe20f29cc7dd075d198f9d045941ad19a3011526eb0878e486977f51c51fd7890695d3c790ea4f4b52d41e849f8469890ff98499a46c9780a6a4b1c0ad23dbf20c0cc7fd23367fbc4fa7a33d35018f506d94c9b707d203505d025c9ca5de39e141188132cd6925dab33aff5c13b5fdb2516e44836e34fcb2cd764c71cff2f12f5e4f99583757f3571592139db94e6c9154430f5f11b342430e1452a95ce7daef96c9518268b001c4ddaab06d7232f38bf319b967c342bed49c206c54d34aab8b3dbde10aac8afb00f89538c1af4e564c139839762f63c906be16b48ae162ad6e0c77c4e1d26febe1af9de61f3b799128b743040a385c4cdf4f263f56dfe1cfbe612bec3928861d0535d45145881a453dd1fa80a19b9c7543937258440cb11f7585bf1cf7c49ce91984d7b77a6058c2fc8d7c63d4204c89ac76fdfcec71e7194e8537b6f4c339bc10d7607b04f5a4ff0d51182a73e4be7e7640f6b2b2040cd6ea169f2a307201d637eb8d248787e8f08c6bb79b45f0a12f9cf94fdb07de8262fe8fe40f6c7cbff3f4a78b0dd113f011f5b66175981f2babaa35dc2c6b08cc975269c8acabba7531bbeede760bf99896f3841e6d82d074e869b9b1087a09f41b1b6f334185903185650013e70e2ea4153d69975f14cbd5c269981f87cdb4930be732ea67840147b262695caa34f29bbdcf9d3df78fc7a7bf8a714e424f8fbd7b59effcfd0979dee9a4240f3a00d71d7d84bb33d7905e3ec34745e65754034cd312c008ba8d2be5a3ee6bd2fb35d7d0830843afe922d97e96ea82e8e3884271ec602056aad78c12218746937b2e9f09ac6ddcf82010f9b559337c8009cb1589ca5966de6a901400f9fd6843d3690274233db0a0384d7dfc5d97c793212fddeca4c634fa6258d4fed38352197f5e2a86ac03606e127100bca4074ff7c84471908423a48c902422e234a51b6a112ac14417302accc63fc455354d24f3a480e59469b8b92cfc85ca5aa75b1c67072726fad72a2e48bac49e4b60de22fb709e297f67a1439bbc28f301b62a70ecf6468b90742ecf56b5e59991a687226a472a35836dfa5cb3b2a81bcd672803e7cf1cd4ca8eebc8d51ec1f48c7226b46b4b2334019d86ab1cf30166f8922574b566885a9eb6404ba419104e401d5911dff306f13eff0bde7aa5bf0b698d790f0a5b75b361cb4c4e286ac0043a6e9b985a02f7055fc0e6b258d5d45eea46daf1d0ba1000ae7e876ace5ab32b74fbf5d9c9339e026bd2b1cd2ef037c9a94899f446f22223e5daad8f1b5a22ac9b623346bd3781695d9790f39d7ce205c4768b59e6f8eb4fdd9df8b683f58e31126279278619ac3e74adca0ba733f6cbdb88307d3adac6bdfe47a8eff7d3c0be1eb198c5c83cbfe169d00c58037c7cb45d2e092fe1a37b991f0fe571bc0dc4c5986e5424a2e5bf9e4808b3a254b2c4e7cf939ade53ee48a424781adfdd385e86711f2e73ff9aecce0dd251cf993b1f33f897a2ba2da2180ab238e96c765741d8d971821ce0768877936f64c397a6d31f7db088c049e2f3fc6e86eab914cfe1687579d94d87cde634cde5cf60b84b10dc4069d8fbf761017f7a1ac2e303d8ba86d7271450e92bedd2535c2853077ce2628775d4b0db5fbe2a86a5ea7e9190b792396744919c002953c0fcebc2b89ac0033cdfb91b6e555413fa3ca9fee69038cc165dd2fb0667f50f49faaab26e81ab0fa74aed19dadfb5df407fd66aad1f6f8fcd4343da1a8e03ade0e5f798a9b975749c41b6ea57ef1dcb0ffc53524642aaea96e4dedd863c20065df777b8f1e54e9c7c1d2dc6f8f8535c36d5f8025d18021823ec7e20ac7ac359557444c069475495233ab371ec7a106c737d0ebf7deb2a87978ad2f627e3295d3757371c994f7fc790b5177195cf50a921575c9ec8828325a88ba1fb25e5fdcd5c0a1c75f80a0c7ade2e1f5711c23c4138affa9eecf5d7e2b21eb48a56b74242828cd33f9844bf74474712f3292ce96bc08aee7272f5db7589d86d2c3da2f95eab5c8d66daa21cd23872ab1670284f89becefe183caac8e93bbe01302ea4dd0384ecf6b118b8c05a0663c9331e3d62b3a9e27b3834df59669ae6805213452c12c657fb9a01fa081714227140d285f27509d0aa3d8dcd398688a47922f8ecba77d5676605bd54d76257a91ebff9d0c14d579c010b6ddbe5eb743180c97f87f4d6627d7ee54a52f026c743b7c4e96f257ac4732d1b257413aa151095f3bb85630aa7fe1c5de1d9f7cd6129cf791dcc51a4e32891aac713e4737490bf60b1683510bdcb4d80c38b557001b7b79ae9bd5e68b537827c07925078737bfbc29454a695aa47e257d2f1b246581310b5650e45f65ca3b1bc99c26ad96e3c312bed09af5d26d8ef7f5b28d605da1e3bf6759dd2f6c0a586b9e9cdd270f81bca90b51e6a08e63efd7dc7a6593c5d667a90bcd9bea304b67b1d0b0a7b709fa5d0ab4786a048113b69f1f479794357333d005ef10dd6e6acef30dedd074c36fabfc813e7a3f0c37f4a95eb09f6f40f5e354ef6c4a4b884e25355cdbd2cbc96bd16eb83c5dbb21aa2d29123ae222e49cf99244c818aaf52b94771b577a2a19a440a867ee25b4668167b2557be498edf71b639ea5c84c7fd0630507d99f74d0b549aa5702a5c03f48888f3b954471b5f04c029993662dc42ae3d924fac041f30dd4bf64704b5f31860035d1a1ef5216efc54306abdaa29291640b19740134b8682dd040d0f1c3a4c595f6698a0b3c3dfe4eff3f4f8031f2681adb6b9e9ee04060e16181c2230484f50656674e1f00b0f193b434faab4e5ebf1fd000000000000000000000000000000000000000000000000131c2c3801fd210500c3740bca337712539d2e67d05a31256160718ecf552f2a1f57fa4b119edfddd016978f3d5aeb502015529058a934c5af8f97c0e35f89c5a2a6c5c6013ba6f5246e9e5567c8b3377a569c7c800de1ee640ea1fd71b23980d79c090801070578abd4ededdea1a8cd0f5016dc7965cfa7a69651015b0b6fd5b2c81dc4b73ff933fbbcd030eab70690e7fb962e0156ff8bae532fe670e9ca98383536e981c023b456525ae5c26fdf826a8ec5e2ae79658d231eb11c4df2ebf20cd4cd6989de96cb5ed16272c7b8c6b34d80b294dee6d91ceeb8b9cbed4c734afbc454302d09798957cd78e2045d21e78ea3ea510a1298c33bbbceb70c2a95495e7231917ac1b63bbba9094eb9f84a922049a2c528db6f15491472c18fd43213e91b82d4e1f491748494f60144e1d8cd7f2d5417ba9688f9c865be125f3626f55c3be3abf079c513aec3cf95f5bdea37e40921477528e83d3f8896f6622cf81084dcefb620ceb378893e68299386f03882428308b4d2585b621d5bad566b6eabfe7e0142045d46ece7a192696c0ac363939f7f32dfafa90afa139b37534224117e81635e9fa421be0318c373e8ac40059681c27d280161a389f6f67d106de3cecde8ea8a3bdd70f22769a3840b229d97d304a81f4ecb8b820f49a142c20ed56a97ceb1d0638dee4b0fb5189bbfeb114c411f1e3084c35a12ff0c243c261e83127947ea769029784165a605b96b42df57afb4b1f1afc2e77ccb4577defb283d8cd49d601b0dc065d1937f893a53ebffaa180bcb63042b14250ec14b5cf0782534fbeb0126ce9fb43724e016cb1c1691f8534682cebfaa9cee697c0e833a9d81248791bc34d7199389462b9e537f4a54347f39fa302f3996c8044c030a125c3ec0eba78d529b56a4a94b48fc47594c823f6104d8a5bb97a2862fb22a437881ac4b2fa36a1bb0deb245a284a4441b567000d41cb51d28a7580ab3c5bae4f9b7038885d0e253ccf9e6a4cd50b495216741b3a1e4e49e7f0bc90aadfeba8983b798443cfd1f66befeb96192151223b087c29285b8618d3a2e3bef3869c3fbf9dafddbbe0a3825362921bcc583f7cb92609fb213940e0f96eeec2671b975f67176ddb1a9a63fddc93815787b2e7d8c35c9ced8070259e834c32cf9ee4ef23c2a2fbdbcdba3e0875d3656f9672a17515264e2822229c0285b8ecf1c3e2e7cd4b1779a90c03d591d6f9695465b0b73372deef1c511075e4f73abca693c8004a9819b0a03d707281440025f89039fc042bafaa47a1478fc4cf80235addfdaee6ef15daac91fa8ae38662b17f271e80851ed018d46a8df77e33264bd0eb67d6ebfa2b8ef6d8c53624386e10870a9c4d3074d5d8ccc4fc08b09381768799e964cbba64fe96c72b43f103ce675893cde5d5d6b8f0bd29855937470a40a32b8db73349ad534e4748beb297dd3991d2347b06adba32d139858f35f30ef1781b73f117aadbe5a61539bbd102fa25ac4511839a6dd5473ef9c99c8c16c606d81e0cad3567ea7f3f0bef7147fd52179996889d009ed90b3bd5399c833290d19269dd9d6a300992ee1d6cb11e5e6fb390838dbe08a2c310478a279f416f8bf4614d275ca0f8cf02a412453f55a9be5e73fcdedd97d47c00b31391f39f60700a502436e7065e7896292ae840146e9a89be141f0bccb1a91483a2072c3a45a99be255c8c8cb281b7b27222c2ea581386599a346927b94904ed9faec0353dd5b5fa08ae0dabb587169ac77d69d4da74de20c3d339bffc1a9b90adaff8f40695a1a9a1366f54b5677e773f1b2368b19e5ee82532f13d8fd524512e3ee370a407fee0135058e4004d7e16fde0e3f6fba0b71fd47368000000",
  "txid": "586ada477495d536fa1b26e88faf4ff92a3282b690f2ce3c6cc1b119ed788265",
  "hash": "32f940f5cd4a96adbf08ba6d0dfa5d763db15b43be57a8149de98bfccca4e60a",
  "size": 5085,
  "vsize": 2278,
  "version": 1,
  "locktime": 104,
  "vin": [
    {
      "txid": "3ae48f478a3a594d4fd4d317111c4703f8c25dbda30f9a219e6488c77a7dc1f6",
      "vout": 1,
      "scriptSig": {
        "asm": "",
        "hex": ""
      },
      "txinwitness": [
        "b35a8336f39b236419fa33bfbc9fe7dc9c0c4e35a9f3467b85f09daceee1265accca2357f62f94eeba98f264cdfc0f3f708d8dc85fb4e04dcf0cb231653fd84805ec608991b868b10c0ac4c151b55ee272f6f8d80df7d878be8a4ef2053c94afd515daed5a56979139c78019127dd9614220f1e4ac1b87d429a74e4ce77e630cbd263c140c483dbbe496564b614eb254065269c382f7f1161a0e2b51eefbdd6e8921c40fd42e952c34132d4e1b480dbd88a33b7e0ddcfd7a1bb6104174d1f9cc7c751bfefa47aadbb2f40f4422a1267a54fcdd23e8513e79903a5d6b79b6df79fa4159133d6fffb631e54166f9876819e6c5c0f58d53b47632a29b4874e5e3bd2cec87d4c18f2331eec67640e3f4f3a3d45ffedffa7f1c563ff952a6883beeb3391c2a9aa253de48889e3765d202ae897e9ad9d154b17036d58984bc4c598f36d7dbfec4ce57f6b9607b0e33287597b1c3a69e4137dc309b483bc303d142d532b4f70519a9ed236b50383b74cfed58a0626fc768b41af944c918915dd664add4acede8aeab3f3ebbbe20f29cc7dd075d198f9d045941ad19a3011526eb0878e486977f51c51fd7890695d3c790ea4f4b52d41e849f8469890ff98499a46c9780a6a4b1c0ad23dbf20c0cc7fd23367fbc4fa7a33d35018f506d94c9b707d203505d025c9ca5de39e141188132cd6925dab33aff5c13b5fdb2516e44836e34fcb2cd764c71cff2f12f5e4f99583757f3571592139db94e6c9154430f5f11b342430e1452a95ce7daef96c9518268b001c4ddaab06d7232f38bf319b967c342bed49c206c54d34aab8b3dbde10aac8afb00f89538c1af4e564c139839762f63c906be16b48ae162ad6e0c77c4e1d26febe1af9de61f3b799128b743040a385c4cdf4f263f56dfe1cfbe612bec3928861d0535d45145881a453dd1fa80a19b9c7543937258440cb11f7585bf1cf7c49ce91984d7b77a6058c2fc8d7c63d4204c89ac76fdfcec71e7194e8537b6f4c339bc10d7607b04f5a4ff0d51182a73e4be7e7640f6b2b2040cd6ea169f2a307201d637eb8d248787e8f08c6bb79b45f0a12f9cf94fdb07de8262fe8fe40f6c7cbff3f4a78b0dd113f011f5b66175981f2babaa35dc2c6b08cc975269c8acabba7531bbeede760bf99896f3841e6d82d074e869b9b1087a09f41b1b6f334185903185650013e70e2ea4153d69975f14cbd5c269981f87cdb4930be732ea67840147b262695caa34f29bbdcf9d3df78fc7a7bf8a714e424f8fbd7b59effcfd0979dee9a4240f3a00d71d7d84bb33d7905e3ec34745e65754034cd312c008ba8d2be5a3ee6bd2fb35d7d0830843afe922d97e96ea82e8e3884271ec602056aad78c12218746937b2e9f09ac6ddcf82010f9b559337c8009cb1589ca5966de6a901400f9fd6843d3690274233db0a0384d7dfc5d97c793212fddeca4c634fa6258d4fed38352197f5e2a86ac03606e127100bca4074ff7c84471908423a48c902422e234a51b6a112ac14417302accc63fc455354d24f3a480e59469b8b92cfc85ca5aa75b1c67072726fad72a2e48bac49e4b60de22fb709e297f67a1439bbc28f301b62a70ecf6468b90742ecf56b5e59991a687226a472a35836dfa5cb3b2a81bcd672803e7cf1cd4ca8eebc8d51ec1f48c7226b46b4b2334019d86ab1cf30166f8922574b566885a9eb6404ba419104e401d5911dff306f13eff0bde7aa5bf0b698d790f0a5b75b361cb4c4e286ac0043a6e9b985a02f7055fc0e6b258d5d45eea46daf1d0ba1000ae7e876ace5ab32b74fbf5d9c9339e026bd2b1cd2ef037c9a94899f446f22223e5daad8f1b5a22ac9b623346bd3781695d9790f39d7ce205c4768b59e6f8eb4fdd9df8b683f58e31126279278619ac3e74adca0ba733f6cbdb88307d3adac6bdfe47a8eff7d3c0be1eb198c5c83cbfe169d00c58037c7cb45d2e092fe1a37b991f0fe571bc0dc4c5986e5424a2e5bf9e4808b3a254b2c4e7cf939ade53ee48a424781adfdd385e86711f2e73ff9aecce0dd251cf993b1f33f897a2ba2da2180ab238e96c765741d8d971821ce0768877936f64c397a6d31f7db088c049e2f3fc6e86eab914cfe1687579d94d87cde634cde5cf60b84b10dc4069d8fbf761017f7a1ac2e303d8ba86d7271450e92bedd2535c2853077ce2628775d4b0db5fbe2a86a5ea7e9190b792396744919c002953c0fcebc2b89ac0033cdfb91b6e555413fa3ca9fee69038cc165dd2fb0667f50f49faaab26e81ab0fa74aed19dadfb5df407fd66aad1f6f8fcd4343da1a8e03ade0e5f798a9b975749c41b6ea57ef1dcb0ffc53524642aaea96e4dedd863c20065df777b8f1e54e9c7c1d2dc6f8f8535c36d5f8025d18021823ec7e20ac7ac359557444c069475495233ab371ec7a106c737d0ebf7deb2a87978ad2f627e3295d3757371c994f7fc790b5177195cf50a921575c9ec8828325a88ba1fb25e5fdcd5c0a1c75f80a0c7ade2e1f5711c23c4138affa9eecf5d7e2b21eb48a56b74242828cd33f9844bf74474712f3292ce96bc08aee7272f5db7589d86d2c3da2f95eab5c8d66daa21cd23872ab1670284f89becefe183caac8e93bbe01302ea4dd0384ecf6b118b8c05a0663c9331e3d62b3a9e27b3834df59669ae6805213452c12c657fb9a01fa081714227140d285f27509d0aa3d8dcd398688a47922f8ecba77d5676605bd54d76257a91ebff9d0c14d579c010b6ddbe5eb743180c97f87f4d6627d7ee54a52f026c743b7c4e96f257ac4732d1b257413aa151095f3bb85630aa7fe1c5de1d9f7cd6129cf791dcc51a4e32891aac713e4737490bf60b1683510bdcb4d80c38b557001b7b79ae9bd5e68b537827c07925078737bfbc29454a695aa47e257d2f1b246581310b5650e45f65ca3b1bc99c26ad96e3c312bed09af5d26d8ef7f5b28d605da1e3bf6759dd2f6c0a586b9e9cdd270f81bca90b51e6a08e63efd7dc7a6593c5d667a90bcd9bea304b67b1d0b0a7b709fa5d0ab4786a048113b69f1f479794357333d005ef10dd6e6acef30dedd074c36fabfc813e7a3f0c37f4a95eb09f6f40f5e354ef6c4a4b884e25355cdbd2cbc96bd16eb83c5dbb21aa2d29123ae222e49cf99244c818aaf52b94771b577a2a19a440a867ee25b4668167b2557be498edf71b639ea5c84c7fd0630507d99f74d0b549aa5702a5c03f48888f3b954471b5f04c029993662dc42ae3d924fac041f30dd4bf64704b5f31860035d1a1ef5216efc54306abdaa29291640b19740134b8682dd040d0f1c3a4c595f6698a0b3c3dfe4eff3f4f8031f2681adb6b9e9ee04060e16181c2230484f50656674e1f00b0f193b434faab4e5ebf1fd000000000000000000000000000000000000000000000000131c2c3801",
        "00c3740bca337712539d2e67d05a31256160718ecf552f2a1f57fa4b119edfddd016978f3d5aeb502015529058a934c5af8f97c0e35f89c5a2a6c5c6013ba6f5246e9e5567c8b3377a569c7c800de1ee640ea1fd71b23980d79c090801070578abd4ededdea1a8cd0f5016dc7965cfa7a69651015b0b6fd5b2c81dc4b73ff933fbbcd030eab70690e7fb962e0156ff8bae532fe670e9ca98383536e981c023b456525ae5c26fdf826a8ec5e2ae79658d231eb11c4df2ebf20cd4cd6989de96cb5ed16272c7b8c6b34d80b294dee6d91ceeb8b9cbed4c734afbc454302d09798957cd78e2045d21e78ea3ea510a1298c33bbbceb70c2a95495e7231917ac1b63bbba9094eb9f84a922049a2c528db6f15491472c18fd43213e91b82d4e1f491748494f60144e1d8cd7f2d5417ba9688f9c865be125f3626f55c3be3abf079c513aec3cf95f5bdea37e40921477528e83d3f8896f6622cf81084dcefb620ceb378893e68299386f03882428308b4d2585b621d5bad566b6eabfe7e0142045d46ece7a192696c0ac363939f7f32dfafa90afa139b37534224117e81635e9fa421be0318c373e8ac40059681c27d280161a389f6f67d106de3cecde8ea8a3bdd70f22769a3840b229d97d304a81f4ecb8b820f49a142c20ed56a97ceb1d0638dee4b0fb5189bbfeb114c411f1e3084c35a12ff0c243c261e83127947ea769029784165a605b96b42df57afb4b1f1afc2e77ccb4577defb283d8cd49d601b0dc065d1937f893a53ebffaa180bcb63042b14250ec14b5cf0782534fbeb0126ce9fb43724e016cb1c1691f8534682cebfaa9cee697c0e833a9d81248791bc34d7199389462b9e537f4a54347f39fa302f3996c8044c030a125c3ec0eba78d529b56a4a94b48fc47594c823f6104d8a5bb97a2862fb22a437881ac4b2fa36a1bb0deb245a284a4441b567000d41cb51d28a7580ab3c5bae4f9b7038885d0e253ccf9e6a4cd50b495216741b3a1e4e49e7f0bc90aadfeba8983b798443cfd1f66befeb96192151223b087c29285b8618d3a2e3bef3869c3fbf9dafddbbe0a3825362921bcc583f7cb92609fb213940e0f96eeec2671b975f67176ddb1a9a63fddc93815787b2e7d8c35c9ced8070259e834c32cf9ee4ef23c2a2fbdbcdba3e0875d3656f9672a17515264e2822229c0285b8ecf1c3e2e7cd4b1779a90c03d591d6f9695465b0b73372deef1c511075e4f73abca693c8004a9819b0a03d707281440025f89039fc042bafaa47a1478fc4cf80235addfdaee6ef15daac91fa8ae38662b17f271e80851ed018d46a8df77e33264bd0eb67d6ebfa2b8ef6d8c53624386e10870a9c4d3074d5d8ccc4fc08b09381768799e964cbba64fe96c72b43f103ce675893cde5d5d6b8f0bd29855937470a40a32b8db73349ad534e4748beb297dd3991d2347b06adba32d139858f35f30ef1781b73f117aadbe5a61539bbd102fa25ac4511839a6dd5473ef9c99c8c16c606d81e0cad3567ea7f3f0bef7147fd52179996889d009ed90b3bd5399c833290d19269dd9d6a300992ee1d6cb11e5e6fb390838dbe08a2c310478a279f416f8bf4614d275ca0f8cf02a412453f55a9be5e73fcdedd97d47c00b31391f39f60700a502436e7065e7896292ae840146e9a89be141f0bccb1a91483a2072c3a45a99be255c8c8cb281b7b27222c2ea581386599a346927b94904ed9faec0353dd5b5fa08ae0dabb587169ac77d69d4da74de20c3d339bffc1a9b90adaff8f40695a1a9a1366f54b5677e773f1b2368b19e5ee82532f13d8fd524512e3ee370a407fee0135058e4004d7e16fde0e3f6fba0b71fd473"
      ],
      "sequence": 4294967294
    }
  ],
  "vout": [
    {
      "value": 1.0,
      "n": 0,
      "scriptPubKey": {
        "asm": "OP_RETURN ee39e307fd474449d931d119d2efcea56ad11d4115553d43b4e12374015df748 9ba4fdc8eab7c6ce1bea97394aa62b4f284c20752bb2eedcae657342500f1873bb84dde8ca97e6ee3bcab7196a860b6f086c00550b92cefc8e455362702f3853dbe4bd88aaf7868e5baad7790ae66b0f680c60356bf2ae9cee253302104f5833fbc49da88ad7a6ae7b8af7592ac64b2f482c40154bd28ebcce051322306f78131b247d486a37464e9b6a17b9ca26abcfa8cca0f5ab326e5c2ee5f3c2d08f98f33b045d684a17666ebb4a3799ea068bef88ec80d58b124e7c0ec5d3e2f0afb8d35b643d082a77060edb2a57f98a66eb8fe88ce0b5eb722e1c6ea5b38290cfd8b37b441d280a57262efb0a77d9aa46cbafc8acc095cb520e3c4e8593a2b0eff8939ba4fdc8eab7c6ce1bea97394aa62b4f284c20752bb2eedcae657342500f1873bb84dde8ca97e6ee3bcab7196a860b6f086c00550b92cefc8e455362702f3853dbe4bd88aaf7868e5baad7790ae66b0f680c60356bf2ae9cee253302104f5833fbc49da88ad7a6ae7b8af7592ac64b2f482c40154bd28ebcce051322306f78131b247d486a37464e9b6a17b9ca26abcfa8cca0f5ab326e5c2ee5f3c2d08f98f33b045d684a17666ebb4a3799ea068bef88ec80d58b124e7c0ec5d3e2f0afb8d35b643d082a77060edb2a57f98a66eb8fe88ce0b5eb722e1c6ea5b38290cfd8b37b441d280a57262efb0a77d9aa46cbafc8acc095cb520e3c4e8593a2b0eff8939ba4fdc8eab7c6ce1bea97394aa62b4f284c20752bb2eedcae657342500f1873bb84dde8ca97e6ee3bcab7196a860b6f086c00550b92cefc8e455362702f3853dbe4bd88aaf7868e5baad7790ae66b0f680c60356bf2ae9cee253302104f5833fbc49da88ad7a6ae7b8af7592ac64b2f482c40154bd28ebcce051322306f78131b247d486a37464e9b6a17b9ca26abcfa8cca0f5ab326e5c2ee5f3c2d08f98f33b045d684a17666ebb4a3799ea068bef88ec80d58b124e7c0ec5d3e2f0afb8d35b643d082a77060edb2a57f98a66eb8fe88ce0b5eb722e1c6ea5b38290cfd8b37b441d280a57262efb0a77d9aa46cbafc8acc095cb520e3c4e8593a2b0eff8939ba4fdc8eab7c6ce1bea97394aa62b4f284c20752bb2eedcae657342500f1873bb84dde8ca97e6ee3bcab7196a860b6f086c00550b92cefc8e455362702f3853dbe4bd88aaf7868e5baad7790ae66b0f680c60356bf2ae9cee253302104f5833fbc49da88ad7a6ae7b8af7592ac64b2f482c40154bd28ebcce051322306f78131b247d486a37464e9b6a17b9ca26abcfa8cca0f5ab326e5c2ee5f3c2d08f98f33b045d684a17666ebb4a3799ea068bef88ec80d58b124e7c0ec5d3e2f0afb8d35b643d082a77060edb2a57f98a66eb8fe88ce0b5eb722e1c6ea5b38290cfd8b37b441d280a57262efb0a77d9aa46cbafc8acc095cb520e3c4e8593a2b0eff8939ba4fdc8eab7c6ce1bea97394aa62b4f284c20752bb2eedcae657342500f1873bb84dde8ca97e6ee3bcab7196a860b6f086c00550b92cefc8e455362702f3853dbe4bd88aaf7868e5baad7790ae66b0f680c60356bf2ae9cee253302104f5833fbc49da88ad7a6ae7b8af7592ac64b2f482c40154bd28ebcce051322306f78131b247d486a37464e9b6a17b9ca26abcf022aa4338336d04d54dfdf8f75f533ed6b561e6650c05855a0145d0749971da9",
        "hex": "6a20ee39e307fd474449d931d119d2efcea56ad11d4115553d43b4e12374015df7484db0049ba4fdc8eab7c6ce1bea97394aa62b4f284c20752bb2eedcae657342500f1873bb84dde8ca97e6ee3bcab7196a860b6f086c00550b92cefc8e455362702f3853dbe4bd88aaf7868e5baad7790ae66b0f680c60356bf2ae9cee253302104f5833fbc49da88ad7a6ae7b8af7592ac64b2f482c40154bd28ebcce051322306f78131b247d486a37464e9b6a17b9ca26abcfa8cca0f5ab326e5c2ee5f3c2d08f98f33b045d684a17666ebb4a3799ea068bef88ec80d58b124e7c0ec5d3e2f0afb8d35b643d082a77060edb2a57f98a66eb8fe88ce0b5eb722e1c6ea5b38290cfd8b37b441d280a57262efb0a77d9aa46cbafc8acc095cb520e3c4e8593a2b0eff8939ba4fdc8eab7c6ce1bea97394aa62b4f284c20752bb2eedcae657342500f1873bb84dde8ca97e6ee3bcab7196a860b6f086c00550b92cefc8e455362702f3853dbe4bd88aaf7868e5baad7790ae66b0f680c60356bf2ae9cee253302104f5833fbc49da88ad7a6ae7b8af7592ac64b2f482c40154bd28ebcce051322306f78131b247d486a37464e9b6a17b9ca26abcfa8cca0f5ab326e5c2ee5f3c2d08f98f33b045d684a17666ebb4a3799ea068bef88ec80d58b124e7c0ec5d3e2f0afb8d35b643d082a77060edb2a57f98a66eb8fe88ce0b5eb722e1c6ea5b38290cfd8b37b441d280a57262efb0a77d9aa46cbafc8acc095cb520e3c4e8593a2b0eff8939ba4fdc8eab7c6ce1bea97394aa62b4f284c20752bb2eedcae657342500f1873bb84dde8ca97e6ee3bcab7196a860b6f086c00550b92cefc8e455362702f3853dbe4bd88aaf7868e5baad7790ae66b0f680c60356bf2ae9cee253302104f5833fbc49da88ad7a6ae7b8af7592ac64b2f482c40154bd28ebcce051322306f78131b247d486a37464e9b6a17b9ca26abcfa8cca0f5ab326e5c2ee5f3c2d08f98f33b045d684a17666ebb4a3799ea068bef88ec80d58b124e7c0ec5d3e2f0afb8d35b643d082a77060edb2a57f98a66eb8fe88ce0b5eb722e1c6ea5b38290cfd8b37b441d280a57262efb0a77d9aa46cbafc8acc095cb520e3c4e8593a2b0eff8939ba4fdc8eab7c6ce1bea97394aa62b4f284c20752bb2eedcae657342500f1873bb84dde8ca97e6ee3bcab7196a860b6f086c00550b92cefc8e455362702f3853dbe4bd88aaf7868e5baad7790ae66b0f680c60356bf2ae9cee253302104f5833fbc49da88ad7a6ae7b8af7592ac64b2f482c40154bd28ebcce051322306f78131b247d486a37464e9b6a17b9ca26abcfa8cca0f5ab326e5c2ee5f3c2d08f98f33b045d684a17666ebb4a3799ea068bef88ec80d58b124e7c0ec5d3e2f0afb8d35b643d082a77060edb2a57f98a66eb8fe88ce0b5eb722e1c6ea5b38290cfd8b37b441d280a57262efb0a77d9aa46cbafc8acc095cb520e3c4e8593a2b0eff8939ba4fdc8eab7c6ce1bea97394aa62b4f284c20752bb2eedcae657342500f1873bb84dde8ca97e6ee3bcab7196a860b6f086c00550b92cefc8e455362702f3853dbe4bd88aaf7868e5baad7790ae66b0f680c60356bf2ae9cee253302104f5833fbc49da88ad7a6ae7b8af7592ac64b2f482c40154bd28ebcce051322306f78131b247d486a37464e9b6a17b9ca26abcf022aa4338336d04d54dfdf8f75f533ed6b561e6650c05855a0145d0749971da9",
        "type": "nulldata"
      }
    },
    {
      "value": 499993.8986,
      "n": 1,
      "scriptPubKey": {
        "asm": "1 c5737ba9b58adcf0ea7f321cec367840c78f2f1777a94d72fec8d9a58c01eec5",
        "hex": "5120c5737ba9b58adcf0ea7f321cec367840c78f2f1777a94d72fec8d9a58c01eec5",
        "reqSigs": 1,
        "type": "witness_v1_scripthash",
        "addresses": [
          "3QJmnh"
        ]
      }
    }
  ],
  "blockhash": "32a2d379a33ec88ae1cb3a8a1a44f2d12b76aebf574ecf7ac16b289397ed6cd9",
  "confirmations": 1,
  "time": 1764176557,
  "blocktime": 1764176557
}