{
  "hex": "010000000001017c29a9832a9be7e108aef1b31e8287f486a149230852cba4148fedcd88ad92650000000000feffffff02d02296e4782d00002251204b36fc8d418c50cc43e4f143410b0819cf9ae66cc99bcd56463c77f229f58e2800e1f50500000000fdd5046a2092fe8a498b20dc8d4b9bf365737698130d649cb57f6cf465aafecc3154ddae8e4db004cee2d6e1fabd6aebeabf700585702cfd0c7c382847baf1ad5c144f03045c939ceec2f6c1da9d4acbca9f5025a5500cdd2c5c1808679ad18d7c346f23247cb3bc8ea296a1bafd2aabaaff3045c5306cbd4c3c786807fab1ed1c540f43441cd3dcae82b6819add0a8b8adf1065e5104c9d6c1c584827da91cd3c742f63643cf3fc4e6256617a3dea6b6a3ff08505f0ac7d8cfcb8a8c73a712ddc94cf8384dc131c6e4276415a1dca4b4a1fd0a525d08c5dacdc9888e71a510dfcb4efa3a4fc333c0e2216213a7daa2b2a7fb0c545b0ec3dccbcf8e8877a316d9cd48fc3c49c535c2e0236011a5d8a0b0a5f90e56590cc1dec9cd8c8a75a114dbcf4afe3e4bc737ccee2d6e1fabd6aebeabf700585702cfd0c7c382847baf1ad5c144f03045c939ceec2f6c1da9d4acbca9f5025a5500cdd2c5c1808679ad18d7c346f23247cb3bc8ea296a1bafd2aabaaff3045c5306cbd4c3c786807fab1ed1c540f43441cd3dcae82b6819add0a8b8adf1065e5104c9d6c1c584827da91cd3c742f63643cf3fc4e6256617a3dea6b6a3ff08505f0ac7d8cfcb8a8c73a712ddc94cf8384dc131c6e4276415a1dca4b4a1fd0a525d08c5dacdc9888e71a510dfcb4efa3a4fc333c0e2216213a7daa2b2a7fb0c545b0ec3dccbcf8e8877a316d9cd48fc3c49c535c2e0236011a5d8a0b0a5f90e56590cc1dec9cd8c8a75a114dbcf4afe3e4bc737ccee2d6e1fabd6aebeabf700585702cfd0c7c382847baf1ad5c144f03045c939ceec2f6c1da9d4acbca9f5025a5500cdd2c5c1808679ad18d7c346f23247cb3bc8ea296a1bafd2aabaaff3045c5306cbd4c3c786807fab1ed1c540f43441cd3dcae82b6819add0a8b8adf1065e5104c9d6c1c584827da91cd3c742f63643cf3fc4e6256617a3dea6b6a3ff08505f0ac7d8cfcb8a8c73a712ddc94cf8384dc131c6e4276415a1dca4b4a1fd0a525d08c5dacdc9888e71a510dfcb4efa3a4fc333c0e2216213a7daa2b2a7fb0c545b0ec3dccbcf8e8877a316d9cd48fc3c49c535c2e0236011a5d8a0b0a5f90e56590cc1dec9cd8c8a75a114dbcf4afe3e4bc737ccee2d6e1fabd6aebeabf700585702cfd0c7c382847baf1ad5c144f03045c939ceec2f6c1da9d4acbca9f5025a5500cdd2c5c1808679ad18d7c346f23247cb3bc8ea296a1bafd2aabaaff3045c5306cbd4c3c786807fab1ed1c540f43441cd3dcae82b6819add0a8b8adf1065e5104c9d6c1c584827da91cd3c742f63643cf3fc4e6256617a3dea6b6a3ff08505f0ac7d8cfcb8a8c73a712ddc94cf8384dc131c6e4276415a1dca4b4a1fd0a525d08c5dacdc9888e71a510dfcb4efa3a4fc333c0e2216213a7daa2b2a7fb0c545b0ec3dccbcf8e8877a316d9cd48fc3c49c535c2e0236011a5d8a0b0a5f90e56590cc1dec9cd8c8a75a114dbcf4afe3e4bc737ccee2d6e1fabd6aebeabf700585702cfd0c7c382847baf1ad5c144f03045c939ceec2f6c1da9d4acbca9f5025a5500cdd2c5c1808679ad18d7c346f23247cb3bc8ea296a1bafd2aabaaff3045c5306cbd4c3c786807fab1ed1c540f43441cd3dcae82b6819add0a8b8adf1065e5104c9d6c1c584827da91cd3c742f63643cf3fc4e6256617a3dea6b6a3ff08505f0ac7d6d93763e249a2ee9a37c2b4e59c52abdabc4319fc3e6cd05a3f18435511af6c502fd7509ab32f45d46b16a36f799db962860f8dff3e97052770a71ee9fb8db753d2d5647b22ce0b7f956324eeecde0d0854fb06341eefc055f8ec3f8552f805927c6df738e1a603651856d3ac047eef4c1a6f8d5d719712b2e630a55dfd94bb8ecaab64d694cde4c2c90506fb645c9946095fa3995e1d5cdda379cdfe1885569d14a5860a377c2ed98661e2a48f3dac646e4b1a39a3311fcd3261cefa930822f8c69675e550cb8757825a1d863e33dc4a7bbb64ebbbb92f99b00a1414d2d8a800653d89d8b5be07d27f463cde17ea64c3fdd314f27e037ebdf46a6f7023363b0bdf089e76f690bc7a1061c3169c92bc2f233c69107640138dd8629c65fe2971ca3e1361c4520049c2ce85a81e416c3e9d3339a8ca4bf050ab2773826cb55df4e9e3164326411f269f0073667aa81e45c2021df7b208c82d5836635c48c1b7133a81369c02cef3c1f724aa1990069baae2a24049a02cab3798a1fd980b285527704f1e17d56cb88e013e18b8a2257e4bfd6430c83c7f053daf4513efe4269cf9fb97f68df712d8369c0ab6a8be8dffac2ce12c8f6da31e0ce8cd058dc35a9bc2e34b75617b12a49aa25fae25c97e5464c70c538573c1719babd61494be5b6c0341bb95e7d8bfc821a7fd00136ea5445e72958555176d8019f7fde13744628b1c8bd916002df55aa417c61943431ea885d9e71dbc5c0035ca8039df8926dc7490147bf1e250f6681f2b1053a7bc19fbe71899866a6c1b8f19d38a5d07032e4bd1a7d7b752d03baff4d44938e7495d03333b66c4b4f43ba024bac929ec1d8d9e9b4370cf98a9280b398ff57bcbafbcaab01b293a557ef1a5ba7fe831595339a4c859749c22f90cf10e47c87e39d7cb0e1661eabf4eff767d3ddf36d08af3b2a4b35875c48d13e28f68edf7be43275bb5098d228d13a2172db0958b4fdf99c0ae1323e24e3b4ea5cbbfa482733dc146b6f4ea8950976fefb10b2342440061358f68ceb883cf95bf5cc7c79a09ece0d04f6f94742e7874cacd7e6da42e45d043973803b4efc93af355fea2fe2ed1eb7c6ecd412d432e2f548134a29b932beeaa887bea5c8b38ed9892a4bd804c07707c47cc7c801a9392e1fc1fd69e87711995e68a802050b8f3e0a8d19a46fb5690e9a03c6e5bd94aad54a7d7553372f02d7aae48e02c9f5ae976137af478e7d2f55da6b2e79caa7cd9b21009a677dbb8710c33e14b4d4839e3254823b5251010515b35deec7d02baee8d3a048019b756ef31f2a37c4094a9b3387f466430f5562f0f475c866acccdf886e755c122e2f377f26375193932ee5534d44c496a2d41b2619d9c6ca519ad11fabe73bdd68dc2a1716f0109d3db9e2d4d057b9e2ddce921018a5e05a2dfc080bbb23b6b780834845e89d5eb9f897157138b70dca670921eaffed7f58a4e0def0ff23c21244b7e55c7eda2acbd410ce73aacdf8c941bdb26c6ec83f6b81d4f9fce6e7e7f3c10b0e6c9d76e56bfd21789459bab1a0edb5e786b143d7914349cf77fc7e0d30478efea416506ace373188f7684575942f7235d58c59c51803a141bcb79010c68fe37b54fba018839413112344aabd7ea0a07e3532006deafcca056e61f2055b358d08502fa6a1b8bfaf8828ff52b25da22db27846189775343869059ef4141042a2de00edfe4092361dac017525fb174d9dc0de9da037c4c5691bb85b3ad4547a399a61bc3af346a19c10f322fa8ac6af5b231137fdf1ce42e49ee6a52ffd6022bf1cafa4bbcaae598361380bbe8cda9efb7eac03789c875fc07e8c5d13b87ddefefa833bcc991648bf115a945f4810976a16a6d8dec7c6ae948a7b0ef1a2d20e7c2dfd4edf95f62b5d49a9537725613a35e4537de2b4624952f913e6051a3307d6618d7c5495dfca461eab9e3474913e8332124db5a76fc7a14f2e07a1b1aa01ee5785d39009cc2510d915b0e4b24a0419ba4d711b577282dcf75cd3801bc4116e899d1f91be7a2d38f415df4e122f497e7700707c46300f88555bf8063c5c22cd65031b5d566f2516439dd433d1a6d8f027983bb2da63fd71aa27bdd19f3fa5e3fe18456ab72d6e11102f30fe175108ce5ed69357ecc2c32da2bd180ac47afdb2885f6d7b3cd35baedda9613954379943abd0ee8619b3092c794ce57389a7bfbf3de3f9f671b6de304551a96c87cd3c94714e5220b3a896f9e9d6bdd3e9408a6edd28ac75fa2106ff813d9df1fc24c465457155637f266553f7ffd455ed743c0374e353b5ffd88a9f9ab1e3366abbe06beac7e0d59ded58da3a60489842b30829021334c283f971fa9aae4acc736a7ea950bd2995d36b6a1caa1916f2cc167019376894dcce04eff72bcab66b1f2116c83dd54ba0cd5a1fa217548c1626297ffb9cff990fb5103236d63e03fd900b6ee2d8554d7e3ea7838b09fa1e16fc04bb6887d2435124f65cd062918e59a24e5e82259615c4b6de691bdda5f0a1186e23837da0d66745fa0ac00f2cf452b8647383e94914cc1d82908239bf13579765676f8dc796a8b5f2c756901307cc11fb7e0b935fd650845c3873feb9579f46890b066c7eb6f30b7123236f5dbce053af304a94878d7b1d13e07aaf4fe8da355718857937f0e696ed5d4869f7aed4cae19795ef1643b4e383f1f70c9b03bb88197a836f6d70e292c9cdcf3d51bf789f3989a373544dfe7be3e639e04566d82cffced62a72166ea2827b50f742bc0f4f6c176a294f0b17bde44b0f5784c5c3acafe3548a2963df8082de8af607a8785107074bbe0182e3eb3dc9dc90fca16c7cd27670983f964bd69145996bd0b732cbe4789ed16b19289dd59677e28ade6a22c14e0b6475ee2f4d4ecff25fe8dc5c6123bdc35bcef6ea6bd4fcc03880a5a47de721024320fb7334075b6695c7e9b5d279f17bd98c77456ea7dfa0e47d83a6f449d0fee58822d5ffb13cc5808d6f8297e69d9a87dec2fda6ce3f38ec0d4544c0fb4a618d6488d37c824043761760e12f8db8d3e74ba9dba52d5d17463518c65d54a23e56991c96f1058a496efcba726fb3a4ed63d2f03de63a2c6967823e1486e5087fec8b86b0d9ce695be868e5c3b361dbfd3a204ae62128526584dd7dc606bdf84d588bab7c3afa50a3e3ff2e1cb6f962746ec4bace24a0e8128c1017116946815867c306146e3ea7ca9bb45d4ad7ff50a73ccc182ac2169d27a823ab39fe7e8ec03d94f7f454f3035cdf28ab5e70fa0fa379c5342da983b1127f7b36a356ce6593285659f59d735b56b010d0d745d6e1757f79f8a8eeb8e545a6e9773402adf8ae6be3f417829fe6662d101122282f353c4a5c6e83a7b0c8d213323a3b587a8184bdcfd7dbdde2e4ec010415234f606b7077888af0f41e44637587929aa2b3d3d4d8e4f0000000000000000000000000000000000000000000000f1f2c3a01fd210500e7d84549fa7990e185dd7f4d56746aab3f57ff2bfd1e937122152255af8cbe2aa8497d67c8548992cfc4be236e32233eb22b6ee2de657aaf11e6cd9e9bcd32620e4eab83562cc0357d81ca6291c9941562667d65f5085773f05d03f397401bab2d3d9f3bff88c8987e1c6a376bbbbf53ec17140a7fb40e9b6073fb02adf225adba4e10defee1785e15356c21ddc1f7f74a8c00b546d0c11893e76ea1dc635912560746328f00a746f1ac41214a0d394cf475d3915ba2c79f95bd1a142aef8cc84ba6fbbfad62a48f6ff6db9522ae1a80d3dc3d1785e6056d8219c9eec04e2b5040ffc69932aceb56078ba0f619a24a9b5455aafcefb23fef6d254d1aad2d49e12f0d48e1cab931acb0b55dafe902d5c9801f5267d36d6ed24dae6c1c96aaf156fd9891c33733aebb6a2a95b7fa3f7622f6df0477ee6d1b7e1f5df4eaa5d96d7a4182d45f40cf99b57c2ce75876579bc6b0cffaf09eb23e8ec48cbf6e244456cb2c5d901477c7baeb45e5065349fb55f2dd2ac1c2bb730240565f8fe3a21f0f8e269a7384daa1f626aab27cab5a24fc06a5423ebc2d885e7f6a007803f018ad303931cc2573411ba2cb1338051a48243bb690af564abe26603ba981e4c887618ee9aaa1fa00d7792cf4a911b6fc4dbad6f2c01c71e6dfa5cd96e68e768f0a106a10426e562514d37f0582bd61db036e9715601d78b383a30945e3dde365928bebd86b4e0a962d442cb764835c326ced595693dd739661dd7d31024138a3c6e45f574a625e2ca5467ecfa402829c9c98b59265f03de27c162c5a27d124a48014cdd9b9321cb00481606d9177cb6f41e3105c7d03bf7102c5e83fce1ecd7822aa0bf349ec7e16ab0ddcc1c2c7f596324b7a3a16a5eef84c9908de3e90025de9c628eee48f61c540f9b1555a13cc123306f6a94c7dc139d5119a1314bcda373d28279e5484a25a946320ab2982f8a67d9ea81cd360ca6d20b72ebdf9acc81baa0cbdeaad4257916c0fe2963cf58cd98d456ddc39bbe2b94f246671bfccf01b7ba90b26553e849d54edf875fdec898c328fc6b292a88eb2085fa44b95d31c470cc94148b2436719fb84a72ba01731214bb301f5fe60de14107d64182d517a1c27719684b3fa66d665a293df918496c51f91f827677598eff4f3ed377ec2269cfede8d26d8fa5fc09d27b001649bb06ace9ac467404184c414fc6e87d8faf4b5534b368c274c3e81131f5c255780aae1abc0ddd69e5ec23cdf7208999e5235701021de98ebb93a6781ab51bf66f0c4c3c6ab2459ea27e78ad81c52b6a8ea4f5b54a70f5d29153bf112979b8956257442c27fd71e6bbfdb3cfde7c5c9fdf0a4c8493c8b02818156c17e3f3cc8ca6e113d08e6ef05a80389328b0ae197456840484f54b5ac9b64f1748e21974670076bb784c4171ef3e8770cc3518073204293d1853affa264526bba009e77e0e0650d4aa3737394f2a7cfe9386ecf3bac6be1d716b7aeea312dcc6bbfbb007b722699a970eecc157fa6b0e5abbaeeba358eefbb6e59f0f1fb092a9d5368e80ef21aa812d869d1810d626a52a4b807cc22dc70c205f71920f1d12acf501fbd8c99026749b3af431d28b8470807d87b2a731c6235c2d2782f2ee7ebc8649751ce3044e3fe485ae300069fc7e3217937b3d9a971c874727bb1a2b65a9684bdb9707227e4bc93c8566fd36eb71ecf8308a773ca45148f1d6346bb38cc1cfbfd689fc5a0df7be558ffb9f028ba403c764030b6f515a6d0fc54b3bd055172b151fcc7a08dfdbebf3dbb47d929815e68b230fe0376f9e9262c1329968869c13b0a0f2e48ce91c84e48eb02f1c12cf09ca2d8a0eb42368c2527917d000000",
  "txid": "57b255a9172e5c06536d67f978836b6610657b85bca8f872bbdae2d5df0d1d63",
  "hash": "dbc6e0797ce46eb5736aff7bc5562d755e1fe515669918f7dc17d15df5ad81b6",
  "size": 5085,
  "vsize": 2278,
  "version": 1,
  "locktime": 125,
  "vin": [
    {
      "txid": "6592ad88cded8f14a4cb52082349a186f487821eb3f1ae08e1e79b2a83a9297c",
      "vout": 0,
      "scriptSig": {
        "asm": "",
        "hex": ""
      },
      "txinwitness": [
        "ab32f45d46b16a36f799db962860f8dff3e97052770a71ee9fb8db753d2d5647b22ce0b7f956324eeecde0d0854fb06341eefc055f8ec3f8552f805927c6df738e1a603651856d3ac047eef4c1a6f8d5d719712b2e630a55dfd94bb8ecaab64d694cde4c2c90506fb645c9946095fa3995e1d5cdda379cdfe1885569d14a5860a377c2ed98661e2a48f3dac646e4b1a39a3311fcd3261cefa930822f8c69675e550cb8757825a1d863e33dc4a7bbb64ebbbb92f99b00a1414d2d8a800653d89d8b5be07d27f463cde17ea64c3fdd314f27e037ebdf46a6f7023363b0bdf089e76f690bc7a1061c3169c92bc2f233c69107640138dd8629c65fe2971ca3e1361c4520049c2ce85a81e416c3e9d3339a8ca4bf050ab2773826cb55df4e9e3164326411f269f0073667aa81e45c2021df7b208c82d5836635c48c1b7133a81369c02cef3c1f724aa1990069baae2a24049a02cab3798a1fd980b285527704f1e17d56cb88e013e18b8a2257e4bfd6430c83c7f053daf4513efe4269cf9fb97f68df712d8369c0ab6a8be8dffac2ce12c8f6da31e0ce8cd058dc35a9bc2e34b75617b12a49aa25fae25c97e5464c70c538573c1719babd61494be5b6c0341bb95e7d8bfc821a7fd00136ea5445e72958555176d8019f7fde13744628b1c8bd916002df55aa417c61943431ea885d9e71dbc5c0035ca8039df8926dc7490147bf1e250f6681f2b1053a7bc19fbe71899866a6c1b8f19d38a5d07032e4bd1a7d7b752d03baff4d44938e7495d03333b66c4b4f43ba024bac929ec1d8d9e9b4370cf98a9280b398ff57bcbafbcaab01b293a557ef1a5ba7fe831595339a4c859749c22f90cf10e47c87e39d7cb0e1661eabf4eff767d3ddf36d08af3b2a4b35875c48d13e28f68edf7be43275bb5098d228d13a2172db0958b4fdf99c0ae1323e24e3b4ea5cbbfa482733dc146b6f4ea8950976fefb10b2342440061358f68ceb883cf95bf5cc7c79a09ece0d04f6f94742e7874cacd7e6da42e45d043973803b4efc93af355fea2fe2ed1eb7c6ecd412d432e2f548134a29b932beeaa887bea5c8b38ed9892a4bd804c07707c47cc7c801a9392e1fc1fd69e87711995e68a802050b8f3e0a8d19a46fb5690e9a03c6e5bd94aad54a7d7553372f02d7aae48e02c9f5ae976137af478e7d2f55da6b2e79caa7cd9b21009a677dbb8710c33e14b4d4839e3254823b5251010515b35deec7d02baee8d3a048019b756ef31f2a37c4094a9b3387f466430f5562f0f475c866acccdf886e755c122e2f377f26375193932ee5534d44c496a2d41b2619d9c6ca519ad11fabe73bdd68dc2a1716f0109d3db9e2d4d057b9e2ddce921018a5e05a2dfc080bbb23b6b780834845e89d5eb9f897157138b70dca670921eaffed7f58a4e0def0ff23c21244b7e55c7eda2acbd410ce73aacdf8c941bdb26c6ec83f6b81d4f9fce6e7e7f3c10b0e6c9d76e56bfd21789459bab1a0edb5e786b143d7914349cf77fc7e0d30478efea416506ace373188f7684575942f7235d58c59c51803a141bcb79010c68fe37b54fba018839413112344aabd7ea0a07e3532006deafcca056e61f2055b358d08502fa6a1b8bfaf8828ff52b25da22db27846189775343869059ef4141042a2de00edfe4092361dac017525fb174d9dc0de9da037c4c5691bb85b3ad4547a399a61bc3af346a19c10f322fa8ac6af5b231137fdf1ce42e49ee6a52ffd6022bf1cafa4bbcaae598361380bbe8cda9efb7eac03789c875fc07e8c5d13b87ddefefa833bcc991648bf115a945f4810976a16a6d8dec7c6ae948a7b0ef1a2d20e7c2dfd4edf95f62b5d49a9537725613a35e4537de2b4624952f913e6051a3307d6618d7c5495dfca461eab9e3474913e8332124db5a76fc7a14f2e07a1b1aa01ee5785d39009cc2510d915b0e4b24a0419ba4d711b577282dcf75cd3801bc4116e899d1f91be7a2d38f415df4e122f497e7700707c46300f88555bf8063c5c22cd65031b5d566f2516439dd433d1a6d8f027983bb2da63fd71aa27bdd19f3fa5e3fe18456ab72d6e11102f30fe175108ce5ed69357ecc2c32da2bd180ac47afdb2885f6d7b3cd35baedda9613954379943abd0ee8619b3092c794ce57389a7bfbf3de3f9f671b6de304551a96c87cd3c94714e5220b3a896f9e9d6bdd3e9408a6edd28ac75fa2106ff813d9df1fc24c465457155637f266553f7ffd455ed743c0374e353b5ffd88a9f9ab1e3366abbe06beac7e0d59ded58da3a60489842b30829021334c283f971fa9aae4acc736a7ea950bd2995d36b6a1caa1916f2cc167019376894dcce04eff72bcab66b1f2116c83dd54ba0cd5a1fa217548c1626297ffb9cff990fb5103236d63e03fd900b6ee2d8554d7e3ea7838b09fa1e16fc04bb6887d2435124f65cd062918e59a24e5e82259615c4b6de691bdda5f0a1186e23837da0d66745fa0ac00f2cf452b8647383e94914cc1d82908239bf13579765676f8dc796a8b5f2c756901307cc11fb7e0b935fd650845c3873feb9579f46890b066c7eb6f30b7123236f5dbce053af304a94878d7b1d13e07aaf4fe8da355718857937f0e696ed5d4869f7aed4cae19795ef1643b4e383f1f70c9b03bb88197a836f6d70e292c9cdcf3d51bf789f3989a373544dfe7be3e639e04566d82cffced62a72166ea2827b50f742bc0f4f6c176a294f0b17bde44b0f5784c5c3acafe3548a2963df8082de8af607a8785107074bbe0182e3eb3dc9dc90fca16c7cd27670983f964bd69145996bd0b732cbe4789ed16b19289dd59677e28ade6a22c14e0b6475ee2f4d4ecff25fe8dc5c6123bdc35bcef6ea6bd4fcc03880a5a47de721024320fb7334075b6695c7e9b5d279f17bd98c77456ea7dfa0e47d83a6f449d0fee58822d5ffb13cc5808d6f8297e69d9a87dec2fda6ce3f38ec0d4544c0fb4a618d6488d37c824043761760e12f8db8d3e74ba9dba52d5d17463518c65d54a23e56991c96f1058a496efcba726fb3a4ed63d2f03de63a2c6967823e1486e5087fec8b86b0d9ce695be868e5c3b361dbfd3a204ae62128526584dd7dc606bdf84d588bab7c3afa50a3e3ff2e1cb6f962746ec4bace24a0e8128c1017116946815867c306146e3ea7ca9bb45d4ad7ff50a73ccc182ac2169d27a823ab39fe7e8ec03d94f7f454f3035cdf28ab5e70fa0fa379c5342da983b1127f7b36a356ce6593285659f59d735b56b010d0d745d6e1757f79f8a8eeb8e545a6e9773402adf8ae6be3f417829fe6662d101122282f353c4a5c6e83a7b0c8d213323a3b587a8184bdcfd7dbdde2e4ec010415234f606b7077888af0f41e44637587929aa2b3d3d4d8e4f0000000000000000000000000000000000000000000000f1f2c3a01",
        "00e7d84549fa7990e185dd7f4d56746aab3f57ff2bfd1e937122152255af8cbe2aa8497d67c8548992cfc4be236e32233eb22b6ee2de657aaf11e6cd9e9bcd32620e4eab83562cc0357d81ca6291c9941562667d65f5085773f05d03f397401bab2d3d9f3bff88c8987e1c6a376bbbbf53ec17140a7fb40e9b6073fb02adf225adba4e10defee1785e15356c21ddc1f7f74a8c00b546d0c11893e76ea1dc635912560746328f00a746f1ac41214a0d394cf475d3915ba2c79f95bd1a142aef8cc84ba6fbbfad62a48f6ff6db9522ae1a80d3dc3d1785e6056d8219c9eec04e2b5040ffc69932aceb56078ba0f619a24a9b5455aafcefb23fef6d254d1aad2d49e12f0d48e1cab931acb0b55dafe902d5c9801f5267d36d6ed24dae6c1c96aaf156fd9891c33733aebb6a2a95b7fa3f7622f6df0477ee6d1b7e1f5df4eaa5d96d7a4182d45f40cf99b57c2ce75876579bc6b0cffaf09eb23e8ec48cbf6e244456cb2c5d901477c7baeb45e5065349fb55f2dd2ac1c2bb730240565f8fe3a21f0f8e269a7384daa1f626aab27cab5a24fc06a5423ebc2d885e7f6a007803f018ad303931cc2573411ba2cb1338051a48243bb690af564abe26603ba981e4c887618ee9aaa1fa00d7792cf4a911b6fc4dbad6f2c01c71e6dfa5cd96e68e768f0a106a10426e562514d37f0582bd61db036e9715601d78b383a30945e3dde365928bebd86b4e0a962d442cb764835c326ced595693dd739661dd7d31024138a3c6e45f574a625e2ca5467ecfa402829c9c98b59265f03de27c162c5a27d124a48014cdd9b9321cb00481606d9177cb6f41e3105c7d03bf7102c5e83fce1ecd7822aa0bf349ec7e16ab0ddcc1c2c7f596324b7a3a16a5eef84c9908de3e90025de9c628eee48f61c540f9b1555a13cc123306f6a94c7dc139d5119a1314bcda373d28279e5484a25a946320ab2982f8a67d9ea81cd360ca6d20b72ebdf9acc81baa0cbdeaad4257916c0fe2963cf58cd98d456ddc39bbe2b94f246671bfccf01b7ba90b26553e849d54edf875fdec898c328fc6b292a88eb2085fa44b95d31c470cc94148b2436719fb84a72ba01731214bb301f5fe60de14107d64182d517a1c27719684b3fa66d665a293df918496c51f91f827677598eff4f3ed377ec2269cfede8d26d8fa5fc09d27b001649bb06ace9ac467404184c414fc6e87d8faf4b5534b368c274c3e81131f5c255780aae1abc0ddd69e5ec23cdf7208999e5235701021de98ebb93a6781ab51bf66f0c4c3c6ab2459ea27e78ad81c52b6a8ea4f5b54a70f5d29153bf112979b8956257442c27fd71e6bbfdb3cfde7c5c9fdf0a4c8493c8b02818156c17e3f3cc8ca6e113d08e6ef05a80389328b0ae197456840484f54b5ac9b64f1748e21974670076bb784c4171ef3e8770cc3518073204293d1853affa264526bba009e77e0e0650d4aa3737394f2a7cfe9386ecf3bac6be1d716b7aeea312dcc6bbfbb007b722699a970eecc157fa6b0e5abbaeeba358eefbb6e59f0f1fb092a9d5368e80ef21aa812d869d1810d626a52a4b807cc22dc70c205f71920f1d12acf501fbd8c99026749b3af431d28b8470807d87b2a731c6235c2d2782f2ee7ebc8649751ce3044e3fe485ae300069fc7e3217937b3d9a971c874727bb1a2b65a9684bdb9707227e4bc93c8566fd36eb71ecf8308a773ca45148f1d6346bb38cc1cfbfd689fc5a0df7be558ffb9f028ba403c764030b6f515a6d0fc54b3bd055172b151fcc7a08dfdbebf3dbb47d929815e68b230fe0376f9e9262c1329968869c13b0a0f2e48ce91c84e48eb02f1c12cf09ca2d8a0eb42368c252791"
      ],
      "sequence": 4294967294
    }
  ],
  "vout": [
    {
      "value": 499972.5437,
      "n": 0,
      "scriptPubKey": {
        "asm": "1 4b36fc8d418c50cc43e4f143410b0819cf9ae66cc99bcd56463c77f229f58e28",
        "hex": "51204b36fc8d418c50cc43e4f143410b0819cf9ae66cc99bcd56463c77f229f58e28",
        "reqSigs": 1,
        "type": "witness_v1_scripthash",
        "addresses": [
          "3QJmnh"
        ]
      }
    },
    {
      "value": 1.0,
      "n": 1,
      "scriptPubKey": {
        "asm": "OP_RETURN 92fe8a498b20dc8d4b9bf365737698130d649cb57f6cf465aafecc3154ddae8e cee2d6e1fabd6aebeabf700585702cfd0c7c382847baf1ad5c144f03045c939ceec2f6c1da9d4acbca9f5025a5500cdd2c5c1808679ad18d7c346f23247cb3bc8ea296a1bafd2aabaaff3045c5306cbd4c3c786807fab1ed1c540f43441cd3dcae82b6819add0a8b8adf1065e5104c9d6c1c584827da91cd3c742f63643cf3fc4e6256617a3dea6b6a3ff08505f0ac7d8cfcb8a8c73a712ddc94cf8384dc131c6e4276415a1dca4b4a1fd0a525d08c5dacdc9888e71a510dfcb4efa3a4fc333c0e2216213a7daa2b2a7fb0c545b0ec3dccbcf8e8877a316d9cd48fc3c49c535c2e0236011a5d8a0b0a5f90e56590cc1dec9cd8c8a75a114dbcf4afe3e4bc737ccee2d6e1fabd6aebeabf700585702cfd0c7c382847baf1ad5c144f03045c939ceec2f6c1da9d4acbca9f5025a5500cdd2c5c1808679ad18d7c346f23247cb3bc8ea296a1bafd2aabaaff3045c5306cbd4c3c786807fab1ed1c540f43441cd3dcae82b6819add0a8b8adf1065e5104c9d6c1c584827da91cd3c742f63643cf3fc4e6256617a3dea6b6a3ff08505f0ac7d8cfcb8a8c73a712ddc94cf8384dc131c6e4276415a1dca4b4a1fd0a525d08c5dacdc9888e71a510dfcb4efa3a4fc333c0e2216213a7daa2b2a7fb0c545b0ec3dccbcf8e8877a316d9cd48fc3c49c535c2e0236011a5d8a0b0a5f90e56590cc1dec9cd8c8a75a114dbcf4afe3e4bc737ccee2d6e1fabd6aebeabf700585702cfd0c7c382847baf1ad5c144f03045c939ceec2f6c1da9d4acbca9f5025a5500cdd2c5c1808679ad18d7c346f23247cb3bc8ea296a1bafd2aabaaff3045c5306cbd4c3c786807fab1ed1c540f43441cd3dcae82b6819add0a8b8adf1065e5104c9d6c1c584827da91cd3c742f63643cf3fc4e6256617a3dea6b6a3ff08505f0ac7d8cfcb8a8c73a712ddc94cf8384dc131c6e4276415a1dca4b4a1fd0a525d08c5dacdc9888e71a510dfcb4efa3a4fc333c0e2216213a7daa2b2a7fb0c545b0ec3dccbcf8e8877a316d9cd48fc3c49c535c2e0236011a5d8a0b0a5f90e56590cc1dec9cd8c8a75a114dbcf4afe3e4bc737ccee2d6e1fabd6aebeabf700585702cfd0c7c382847baf1ad5c144f03045c939ceec2f6c1da9d4acbca9f5025a5500cdd2c5c1808679ad18d7c346f23247cb3bc8ea296a1bafd2aabaaff3045c5306cbd4c3c786807fab1ed1c540f43441cd3dcae82b6819add0a8b8adf1065e5104c9d6c1c584827da91cd3c742f63643cf3fc4e6256617a3dea6b6a3ff08505f0ac7d8cfcb8a8c73a712ddc94cf8384dc131c6e4276415a1dca4b4a1fd0a525d08c5dacdc9888e71a510dfcb4efa3a4fc333c0e2216213a7daa2b2a7fb0c545b0ec3dccbcf8e8877a316d9cd48fc3c49c535c2e0236011a5d8a0b0a5f90e56590cc1dec9cd8c8a75a114dbcf4afe3e4bc737ccee2d6e1fabd6aebeabf700585702cfd0c7c382847baf1ad5c144f03045c939ceec2f6c1da9d4acbca9f5025a5500cdd2c5c1808679ad18d7c346f23247cb3bc8ea296a1bafd2aabaaff3045c5306cbd4c3c786807fab1ed1c540f43441cd3dcae82b6819add0a8b8adf1065e5104c9d6c1c584827da91cd3c742f63643cf3fc4e6256617a3dea6b6a3ff08505f0ac7d6d93763e249a2ee9a37c2b4e59c52abdabc4319fc3e6cd05a3f18435511af6c5",
        "hex": "6a2092fe8a498b20dc8d4b9bf365737698130d649cb57f6cf465aafecc3154ddae8e4db004cee2d6e1fabd6aebeabf700585702cfd0c7c382847baf1ad5c144f03045c939ceec2f6c1da9d4acbca9f5025a5500cdd2c5c1808679ad18d7c346f23247cb3bc8ea296a1bafd2aabaaff3045c5306cbd4c3c786807fab1ed1c540f43441cd3dcae82b6819add0a8b8adf1065e5104c9d6c1c584827da91cd3c742f63643cf3fc4e6256617a3dea6b6a3ff08505f0ac7d8cfcb8a8c73a712ddc94cf8384dc131c6e4276415a1dca4b4a1fd0a525d08c5dacdc9888e71a510dfcb4efa3a4fc333c0e2216213a7daa2b2a7fb0c545b0ec3dccbcf8e8877a316d9cd48fc3c49c535c2e0236011a5d8a0b0a5f90e56590cc1dec9cd8c8a75a114dbcf4afe3e4bc737ccee2d6e1fabd6aebeabf700585702cfd0c7c382847baf1ad5c144f03045c939ceec2f6c1da9d4acbca9f5025a5500cdd2c5c1808679ad18d7c346f23247cb3bc8ea296a1bafd2aabaaff3045c5306cbd4c3c786807fab1ed1c540f43441cd3dcae82b6819add0a8b8adf1065e5104c9d6c1c584827da91cd3c742f63643cf3fc4e6256617a3dea6b6a3ff08505f0ac7d8cfcb8a8c73a712ddc94cf8384dc131c6e4276415a1dca4b4a1fd0a525d08c5dacdc9888e71a510dfcb4efa3a4fc333c0e2216213a7daa2b2a7fb0c545b0ec3dccbcf8e8877a316d9cd48fc3c49c535c2e0236011a5d8a0b0a5f90e56590cc1dec9cd8c8a75a114dbcf4afe3e4bc737ccee2d6e1fabd6aebeabf700585702cfd0c7c382847baf1ad5c144f03045c939ceec2f6c1da9d4acbca9f5025a5500cdd2c5c1808679ad18d7c346f23247cb3bc8ea296a1bafd2aabaaff3045c5306cbd4c3c786807fab1ed1c540f43441cd3dcae82b6819add0a8b8adf1065e5104c9d6c1c584827da91cd3c742f63643cf3fc4e6256617a3dea6b6a3ff08505f0ac7d8cfcb8a8c73a712ddc94cf8384dc131c6e4276415a1dca4b4a1fd0a525d08c5dacdc9888e71a510dfcb4efa3a4fc333c0e2216213a7daa2b2a7fb0c545b0ec3dccbcf8e8877a316d9cd48fc3c49c535c2e0236011a5d8a0b0a5f90e56590cc1dec9cd8c8a75a114dbcf4afe3e4bc737ccee2d6e1fabd6aebeabf700585702cfd0c7c382847baf1ad5c144f03045c939ceec2f6c1da9d4acbca9f5025a5500cdd2c5c1808679ad18d7c346f23247cb3bc8ea296a1bafd2aabaaff3045c5306cbd4c3c786807fab1ed1c540f43441cd3dcae82b6819add0a8b8adf1065e5104c9d6c1c584827da91cd3c742f63643cf3fc4e6256617a3dea6b6a3ff08505f0ac7d8cfcb8a8c73a712ddc94cf8384dc131c6e4276415a1dca4b4a1fd0a525d08c5dacdc9888e71a510dfcb4efa3a4fc333c0e2216213a7daa2b2a7fb0c545b0ec3dccbcf8e8877a316d9cd48fc3c49c535c2e0236011a5d8a0b0a5f90e56590cc1dec9cd8c8a75a114dbcf4afe3e4bc737ccee2d6e1fabd6aebeabf700585702cfd0c7c382847baf1ad5c144f03045c939ceec2f6c1da9d4acbca9f5025a5500cdd2c5c1808679ad18d7c346f23247cb3bc8ea296a1bafd2aabaaff3045c5306cbd4c3c786807fab1ed1c540f43441cd3dcae82b6819add0a8b8adf1065e5104c9d6c1c584827da91cd3c742f63643cf3fc4e6256617a3dea6b6a3ff08505f0ac7d6d93763e249a2ee9a37c2b4e59c52abdabc4319fc3e6cd05a3f18435511af6c5",
        "type": "nulldata"
      }
    }
  ],
  "blockhash": "e6a4adf54726245f4c34283d217923918cb1557d6baaa77edf2bc72597605551",
  "confirmations": 1,
  "time": 1764181118,
  "blocktime": 1764181118
}