{
  "hex": "010000000001017ca1773f133e4592377d8eb16256b1643d67c621ae8b673dfe55fddfb60771aa0000000000feffffff0200774227792d000022512093f2b2e75844df2793351adabb56bcbf8368e0d261b4637af783794abc6637e500e1f50500000000fdd5046a20a25457de26be8f2b56a0662873ab856bec01d9de1b219c3bb4d2fb28389214034db004bae6f5cbddf5070a73a305ec6ee94360b0818fec7a61ab94985baf12fe99c9df9ac6d5ebfdd5272a538325cc4ec9634090a1afcc5a418bb4b87b8f32deb9e9fffaa6b58b9db5474a33e345ac2ea90320f0c1cfac3a21ebd4d81bef52bed9899fda8695abbd95676a13c3658c0e892300d0e1ef8c1a01cbf4f83bcf729ef9a9bf3a66754b5d75878af323856cee69c3e030010f6cfae12b1418db2f927e19495f1a46556b7d55a7aad303a54cce49e3c010212f4cdac10b3438fb0fb25e39697f7a26350b1d35c7cab363c52cae2983a070414f2cbaa16b54589b6fd23e59091f5a06152b3d15e7ea9343e50c8e09a38050616f0c9a814b7478bb4ff21e79293fbae6f5cbddf5070a73a305ec6ee94360b0818fec7a61ab94985baf12fe99c9df9ac6d5ebfdd5272a538325cc4ec9634090a1afcc5a418bb4b87b8f32deb9e9fffaa6b58b9db5474a33e345ac2ea90320f0c1cfac3a21ebd4d81bef52bed9899fda8695abbd95676a13c3658c0e892300d0e1ef8c1a01cbf4f83bcf729ef9a9bf3a66754b5d75878af323856cee69c3e030010f6cfae12b1418db2f927e19495f1a46556b7d55a7aad303a54cce49e3c010212f4cdac10b3438fb0fb25e39697f7a26350b1d35c7cab363c52cae2983a070414f2cbaa16b54589b6fd23e59091f5a06152b3d15e7ea9343e50c8e09a38050616f0c9a814b7478bb4ff21e79293fbae6f5cbddf5070a73a305ec6ee94360b0818fec7a61ab94985baf12fe99c9df9ac6d5ebfdd5272a538325cc4ec9634090a1afcc5a418bb4b87b8f32deb9e9fffaa6b58b9db5474a33e345ac2ea90320f0c1cfac3a21ebd4d81bef52bed9899fda8695abbd95676a13c3658c0e892300d0e1ef8c1a01cbf4f83bcf729ef9a9bf3a66754b5d75878af323856cee69c3e030010f6cfae12b1418db2f927e19495f1a46556b7d55a7aad303a54cce49e3c010212f4cdac10b3438fb0fb25e39697f7a26350b1d35c7cab363c52cae2983a070414f2cbaa16b54589b6fd23e59091f5a06152b3d15e7ea9343e50c8e09a38050616f0c9a814b7478bb4ff21e79293fbae6f5cbddf5070a73a305ec6ee94360b0818fec7a61ab94985baf12fe99c9df9ac6d5ebfdd5272a538325cc4ec9634090a1afcc5a418bb4b87b8f32deb9e9fffaa6b58b9db5474a33e345ac2ea90320f0c1cfac3a21ebd4d81bef52bed9899fda8695abbd95676a13c3658c0e892300d0e1ef8c1a01cbf4f83bcf729ef9a9bf3a66754b5d75878af323856cee69c3e030010f6cfae12b1418db2f927e19495f1a46556b7d55a7aad303a54cce49e3c010212f4cdac10b3438fb0fb25e39697f7a26350b1d35c7cab363c52cae2983a070414f2cbaa16b54589b6fd23e59091f5a06152b3d15e7ea9343e50c8e09a38050616f0c9a814b7478bb4ff21e79293fbae6f5cbddf5070a73a305ec6ee94360b0818fec7a61ab94985baf12fe99c9df9ac6d5ebfdd5272a538325cc4ec9634090a1afcc5a418bb4b87b8f32deb9e9fffaa6b58b9db5474a33e345ac2ea90320f0c1cfac3a21ebd4d81bef52bed9899fda8695abbd95676a13c3658c0e892300d0e1ef8c1a01cbf4f83bcf729ef9a9bf3a66754b5d75878af323856cee69c3e044fb4e6e00c376f168707daa7c71f9b3a78747b0127f8078a31ae3f27b28491e02fd7509e1bf26c6d4ed6d2a9d00676e39766b545f50aaa1ae470b7db454e73e637defacf7a1f4b9202aff6c73aeac1d1037c4d48b386d9d67ddb41bd3ee59ad83c570514ce70a363189861be3ed8272631ae7849137cb09fbb73980cb9875790ce132cd18b056e4553e647c442b65f011dfe76a432baa50ca150e09773efc89b0e522e75329c4834488e82c4aa9127bda36d7395a75bc25f2031ca641541b23acffb314fd48c228313db6713d9f410fc7310bae4273d8ae1164e8a7abe65e2d1d0e9aadc8a20635c4dd2a16cad10b918a4d20477fda0d69892cb6858ac94cf803e8432f032f8eda6ed607e8a3d3a281cce6d0ddaf27b406ae4e4619192c220ca2c1e9bd7abfbbc3c03bb63ad5e9c8f90fb7a777c7af9402d60659b2b97810910a90a9f1599fa88a0f8e9bb06d2875472c83ae5361812adaeb45536644ec31abee4f4bf5f5cd630c33067aa9d13a67cf7e4a8d6657b1ef454ba7a8421cf5ca6b091e5d40a176ec99070e2b102ba48a10ba03f5bb0ebcdfca5c9e29e36f48812a0b362dc84038da64a631429ef5c4a806033a73d6638cff49ba16740800ee452a8cd956f43c5c732e2642a8e00e9e881bd04a5e95d0a14ff2415c205a31a9a32e8e28a4ce03f721bef28981b20cd00aa4433a2d5f24606d4dd92a17ca757cbe476717539239190237753db4dbdfe99561c3279e2053a215273b2dfa7eddd63b4ef501286752a080e03de6dba78284a34062330c3b2e1f32ed8efcf2ca22e9106e08b87319e6a85cb1de437b6c8f554c56c01dd09bb05c9d72859fb63ef27ee91f671358df5304aba9a5b4eae7b44ae7b6db98e70779420b3b57a4ce9dd0e6d6eb1ca5192bf7eecab97d1357ba67a3d6ee149f828d54b2faed6d6ba4221f2c29126d8571c416fffc9aeea987129871180e4037d92b47f25729e2fa7769ebbbeb245f45b492fd42388f9074f2d8cea9bc160c030f90f61dbc1bdd56eea59bd42aac569649d391db71afcc3b6b31b3d926ae8ae3002a3051fa0f84aa1f4b16693322de56fd72e8f1b6cdaee9cff2f67915cb2169141410d4111cd36f15f0ee5afb824455f0546a052da9ca78c3ee90e2836dff2d44550351c8784cc488b4693c99198e95f89915e60244136a8f6dfb6a9e8e7b12f3cf093a6f977e25ec54116ec616a14015e9e55a989d254e7f2cabf22942788a27b00cb3295ac1072fb11b5fbe0c208c19f8c53e35e176458d62726be751cba9f43336a4005774cd979da6ed598870b09daa82a143e964ce9aaaf2805cffeb9e2d564984d12354c9191720b0591b66656d2c3b530461738a20e65c89e43af42666a0bbfd50501f70b73a28ef8ce52247ca5706aa49ae8abcce0dece7ca20a63e1506c8979fe66b5bb783d2a4d6f50bfdc24e0abeb6465c7953f3f26a8c1034c61f04c7e06254881081dbf540fee8c0c097196d16ae0be0d6f7b8963f2551d8cc9b1c24601825928004e09ffea54c62695ad85ac88c5c0fbece747f215c93ee15ff886a4f49fd663c56d823f42b01224b0dce474a818a9faba89c2882f8b7dbfeb7a7fc754fbf891b226af54ceb7d6ea2512afbe7601dc3c41048c81f0b45cabcc6e2d1cf75260c4c8f7965443a80b844cb6a6f77352b7a20560ed9a991e893fd278a8712623e9aeb1a274a9c2449b03373a19cbc8b4619a75e36130ada4880e7e798d7f5f7fe00f618aef518bd73c1bb2ab2cea0c4232176a5f1aef2d1414d637a73f3b08bbe4aed76f79de732b33a51bdaae4e4f4a072fc07d454769cd73b88eed349c4da33bc6dd8fb0f6385ccdeebb81770fdcb32c001cb76aec70cb55f1c6ec02b098cdb9ed3ec396acb46c87103d62e39bde923b1130f5d933a3a60e4400ec55b096774412a1d92e8392d14a657484e845ec87e11f6bd0167c9f131b8bc43e6940937087a86a452825eadd81914e7eac7cb35be96f6fa6489447b7d2498d2bb8b861435e49ed360718df19ecc5cb422fe285cff9e241a45edc7840955d0878a10a51749d59257e6f6cc7d7e3affe148b79c28b406279fb259e416dba8d3e5bdd7fd77df61d536c585b545b05bce9eb8a61af328f3dc7d2498837d381c126ba4c1dee4f3350601fc300b36145476bd8b8198a49d9d6c9644142f79e2e374fb21854c8c49d9f706ad411376dd3bfa58cd5ae173453f411eb2aeef0cc0ad40ac8c409858da11fd8cf5c7bb158ee39797ae93e9ca98898afa8819b04c39588b02a96dd42ee5fbb8c20196a92117ba2e7d0f7e5c2ad4c25dad660968defb4ed065ee9747b42f39417668fa9cce53b7732408cd976df7a90f5270a988508dac01c1f4462399646d9fad8b0a7d830b0d66b22cef6f04e3e2f136600615f36ac7a2a5a98558c49dd3a4c1b8c47c715f5ee905534231efbd1b08b2403d75b3854f83e539e952b509c6a7d46c0f1a350b9c5d8e478029264a1dfe31f1c95fe324b222bee5ce837edaa0e6ce086d65fd030575c0ff947d59f55d048d38338f96d84e9664e85771deb6a81386a20b82ff9076dd7b4963f4e4ae8c3c58a09d43f55e1bccea0dbfb352b5774a9cff1a901d6605f7b609a5b219708ada3508d1cb12ce28a5505499e7821045ba3874c46c3ee31c04bd8e503fe8dbc1bb17bd82867db72299b9b57414452e9dc0e4a0e473a9ac461e0c469392eb77982aedb0cf529a713daf63f830ba436982f4d17c5d78266434634f97f6f61718cca2b3d0cc20533a5cd3e987c3a3c37146bc4d83f26ac435262edc69e4c35e88c4a74f6ec9e9469f25e4d82a01050eca4c12be56acc4b920ab1e002a70155d92e7e4ed2d7c23bc62666de0abed3f1a3efac720cc4657642fe44d9cae93f7482d65e59ec21507852d0676993dc8805324a531714fccf2ec1ec7855c47350766ff49c0c48e29704ef828090f311391c08b6288e96a54f4b77fd992cf4521bc6cc58b01e4995ba18a2ca49fa83568428be5065ce9873a154b33c0bf9ee66a4b8a96f665305587dc2b9e8a25b58bb39e440f68a92e167a2eee2f0368a4e57052a9e23341fb684a04891a0bb6f8741945029e9da8b1573f6ea5a781cf815359f23d9ff620ccc5a1118c86bae8a135325b0d0ec0d15d32398960933cf97617769b8ab7a3df829810deae1aab1910f7f99b9e67e1b8e3e642c45c12cd2587590c613d6d153804239d19a714434b9a2b145d6dea8d505d9d0ae4aba3e59817db61ea1ea8e8f2b135ec228d53d2416c2874e0205d63d334d8bf6461bba68ddf4f12a34af092fcc4335b98f1c46c8cd7945d604e1e540521a5950b79a6c3fb23b0021324424b627dabaeb4bfc1d6e00021304e53699698a2afd6d8e8e90308172c4f5e606780888a8f9c9ea9bccdd1dee3f2002930353c575861646e7b8095adb7bdc9ccdde5f0000000000000000000000e1c314601fd210500104df505ffc0e24a6eb027c094c77811786afcb7749df784098bdeb104373fac7e41806d30df15b36e628b44a9f742f3aeea4cb8771f08d28efec5c3851a5ea6b9020e02de0cc791f3e6f78a72f8fb412cd7dbfa368078c1b0eaf3ad015bc1e8d893b1c1cc714e65eb9bb5514b228c54bcf429f78fac43345970fd1e6e1b6662d1ed8b20390abca6d574782363e67f2eb5d9e4ae7bfb7a599dcc09681c8697958e6f7050461e46dbc589b1f16220507b08ac730381b9106799b23c6f5a868d4a8a98cb66109de9886296410cc74233414f11cb02189c88b8801227e53243e7378e19d5144b55b18df80cecb3cd32e6812d3320588ea6e63edb6c6014db2c32438b56f293c9b6e933443a9c020bb1f331894a237f6d605295a9de1eab6591693155ae7e3b1f01275888bed8e9da8580715617bdb50b7ba3672c68ef77d488adff5897565f29630e4d624c0449262fec5a1378d72ca0064c246653197646795b1626349dd63304265bfac7f4f2c4968421deef6fc100c2a61bee15027141aa037f4480ff3fe4f0f300a21250ddef6cb23b4f82188ee90835f5f4759fb5a52baa4b71d96e86db58eee97d3af53657cc1eedfdad1365211e2beaa220ad7774dd5eb59e10ede7f25937212207cd26c96e3fbc52a120a924f8df6664bef9ae645c0450445f2856e6e1118d88eb7efef9837849329d2d873dcb1f29eca3d1a03ea7a807a1d519b294df7124b515f4b81a0633bcd7887c4fde85a52fb6aec2816d796ff41b60203006f842eba654a61e3a7f65cfe3e4fa879d83109a9973d52508167cbdd46e1da91c40e2f7cab5d5e063a6096dd20cd194e004b65c0942ba76b3063f1424457a6ddf403b1c8d7260f196f0f1431dcc012aa41ce12c61046f128d3789314cdd5a98bdc46a51ac4554bba37eb6f9ff507062f2753723774431865b0c6e9c4e2b24b0ed3d0f926fed8f6b3f0ff27ce8a7b11b7983a3be331e6ba3ac884798ff1967dce8dad4c322871d4412a95c80a195044ae9a0ae205ccdc09bdd8ef74535de8353fd50a32f9666fe8a6fa05cdfe5e75b06b201f77fb415cffaddb46115d814980bee395edf898f4bd3aaf12aaad50bcea992ba832e2df7b76c177b9aa88fd6ab4a0a91871ed0f1a268d39e2efa4ae595c63ffbb2b850f31445a366b0059cc657c0124dbff8c691372b5510c3c04a1a81f9fdb9c631b21cdc5c6464384d4a13d8bb418bf50b0b98be14817766e63a3f7c6c792c45899743e0597aaefc5d258fe6e798d1f916b9f4917a87bd722d5bab17a5440f05e46f5e643d45a8155d0b47d0f85693f705eb661d0fd1ae9d16e22e7878ad49491f34573c1d2715d4d53d456dea76084fec90b55067ad026dc98bd18ffc120753bb6294a804d465d090e4241a2787c004941e7a56fa17d4e859fa54b86a5812256fdd78b1ee13478d9da066a4de8872790e915d02c2258077212fb4cf2277f21d727b639e7b35a8f56da14cc7495697a92aa997e7c69c143cfc8330ffff7e5ea63fd6e905ae95fe856bea67c4cfc3267523868b826e53cb1e471a1478f5cc05b507f556dc45d3f4d8a1e3ada16c05a1928e876a358e3cd8057158685934800364cec16d67b928305d92ad4e45d4656ba97c7f8553fa21f642f823ef0714d3faa4501d6c388c9c534fe96337ee38b3a9557d88d5ad7d3c8aa49688fa934c983159011d74da6bc1964dfa9f27eeaba61ec0f95991d12ed42b13619ff85bec49267f17f6aeb86d6a8b231bfbfd7ba1e799804396c10f3b1114022a7856ec27c0a14216d0451d13a0f5c0104736d7908880e60257a6bd88a2c58a4dde51cb90170fdd15788fa8376dd1595581000000",
  "txid": "55b2ca73aec8e7abd7d2c7a92183d0e282487156fa66b275a7fd899215873bac",
  "hash": "ba67eb5f7878654463be95c7993e4ee3d43979e336d5dfd4b32f4a10d748571d",
  "size": 5085,
  "vsize": 2278,
  "version": 1,
  "locktime": 129,
  "vin": [
    {
      "txid": "aa7107b6dffd55fe3d678bae21c6673d64b15662b18e7d3792453e133f77a17c",
      "vout": 0,
      "scriptSig": {
        "asm": "",
        "hex": ""
      },
      "txinwitness": [
        "e1bf26c6d4ed6d2a9d00676e39766b545f50aaa1ae470b7db454e73e637defacf7a1f4b9202aff6c73aeac1d1037c4d48b386d9d67ddb41bd3ee59ad83c570514ce70a363189861be3ed8272631ae7849137cb09fbb73980cb9875790ce132cd18b056e4553e647c442b65f011dfe76a432baa50ca150e09773efc89b0e522e75329c4834488e82c4aa9127bda36d7395a75bc25f2031ca641541b23acffb314fd48c228313db6713d9f410fc7310bae4273d8ae1164e8a7abe65e2d1d0e9aadc8a20635c4dd2a16cad10b918a4d20477fda0d69892cb6858ac94cf803e8432f032f8eda6ed607e8a3d3a281cce6d0ddaf27b406ae4e4619192c220ca2c1e9bd7abfbbc3c03bb63ad5e9c8f90fb7a777c7af9402d60659b2b97810910a90a9f1599fa88a0f8e9bb06d2875472c83ae5361812adaeb45536644ec31abee4f4bf5f5cd630c33067aa9d13a67cf7e4a8d6657b1ef454ba7a8421cf5ca6b091e5d40a176ec99070e2b102ba48a10ba03f5bb0ebcdfca5c9e29e36f48812a0b362dc84038da64a631429ef5c4a806033a73d6638cff49ba16740800ee452a8cd956f43c5c732e2642a8e00e9e881bd04a5e95d0a14ff2415c205a31a9a32e8e28a4ce03f721bef28981b20cd00aa4433a2d5f24606d4dd92a17ca757cbe476717539239190237753db4dbdfe99561c3279e2053a215273b2dfa7eddd63b4ef501286752a080e03de6dba78284a34062330c3b2e1f32ed8efcf2ca22e9106e08b87319e6a85cb1de437b6c8f554c56c01dd09bb05c9d72859fb63ef27ee91f671358df5304aba9a5b4eae7b44ae7b6db98e70779420b3b57a4ce9dd0e6d6eb1ca5192bf7eecab97d1357ba67a3d6ee149f828d54b2faed6d6ba4221f2c29126d8571c416fffc9aeea987129871180e4037d92b47f25729e2fa7769ebbbeb245f45b492fd42388f9074f2d8cea9bc160c030f90f61dbc1bdd56eea59bd42aac569649d391db71afcc3b6b31b3d926ae8ae3002a3051fa0f84aa1f4b16693322de56fd72e8f1b6cdaee9cff2f67915cb2169141410d4111cd36f15f0ee5afb824455f0546a052da9ca78c3ee90e2836dff2d44550351c8784cc488b4693c99198e95f89915e60244136a8f6dfb6a9e8e7b12f3cf093a6f977e25ec54116ec616a14015e9e55a989d254e7f2cabf22942788a27b00cb3295ac1072fb11b5fbe0c208c19f8c53e35e176458d62726be751cba9f43336a4005774cd979da6ed598870b09daa82a143e964ce9aaaf2805cffeb9e2d564984d12354c9191720b0591b66656d2c3b530461738a20e65c89e43af42666a0bbfd50501f70b73a28ef8ce52247ca5706aa49ae8abcce0dece7ca20a63e1506c8979fe66b5bb783d2a4d6f50bfdc24e0abeb6465c7953f3f26a8c1034c61f04c7e06254881081dbf540fee8c0c097196d16ae0be0d6f7b8963f2551d8cc9b1c24601825928004e09ffea54c62695ad85ac88c5c0fbece747f215c93ee15ff886a4f49fd663c56d823f42b01224b0dce474a818a9faba89c2882f8b7dbfeb7a7fc754fbf891b226af54ceb7d6ea2512afbe7601dc3c41048c81f0b45cabcc6e2d1cf75260c4c8f7965443a80b844cb6a6f77352b7a20560ed9a991e893fd278a8712623e9aeb1a274a9c2449b03373a19cbc8b4619a75e36130ada4880e7e798d7f5f7fe00f618aef518bd73c1bb2ab2cea0c4232176a5f1aef2d1414d637a73f3b08bbe4aed76f79de732b33a51bdaae4e4f4a072fc07d454769cd73b88eed349c4da33bc6dd8fb0f6385ccdeebb81770fdcb32c001cb76aec70cb55f1c6ec02b098cdb9ed3ec396acb46c87103d62e39bde923b1130f5d933a3a60e4400ec55b096774412a1d92e8392d14a657484e845ec87e11f6bd0167c9f131b8bc43e6940937087a86a452825eadd81914e7eac7cb35be96f6fa6489447b7d2498d2bb8b861435e49ed360718df19ecc5cb422fe285cff9e241a45edc7840955d0878a10a51749d59257e6f6cc7d7e3affe148b79c28b406279fb259e416dba8d3e5bdd7fd77df61d536c585b545b05bce9eb8a61af328f3dc7d2498837d381c126ba4c1dee4f3350601fc300b36145476bd8b8198a49d9d6c9644142f79e2e374fb21854c8c49d9f706ad411376dd3bfa58cd5ae173453f411eb2aeef0cc0ad40ac8c409858da11fd8cf5c7bb158ee39797ae93e9ca98898afa8819b04c39588b02a96dd42ee5fbb8c20196a92117ba2e7d0f7e5c2ad4c25dad660968defb4ed065ee9747b42f39417668fa9cce53b7732408cd976df7a90f5270a988508dac01c1f4462399646d9fad8b0a7d830b0d66b22cef6f04e3e2f136600615f36ac7a2a5a98558c49dd3a4c1b8c47c715f5ee905534231efbd1b08b2403d75b3854f83e539e952b509c6a7d46c0f1a350b9c5d8e478029264a1dfe31f1c95fe324b222bee5ce837edaa0e6ce086d65fd030575c0ff947d59f55d048d38338f96d84e9664e85771deb6a81386a20b82ff9076dd7b4963f4e4ae8c3c58a09d43f55e1bccea0dbfb352b5774a9cff1a901d6605f7b609a5b219708ada3508d1cb12ce28a5505499e7821045ba3874c46c3ee31c04bd8e503fe8dbc1bb17bd82867db72299b9b57414452e9dc0e4a0e473a9ac461e0c469392eb77982aedb0cf529a713daf63f830ba436982f4d17c5d78266434634f97f6f61718cca2b3d0cc20533a5cd3e987c3a3c37146bc4d83f26ac435262edc69e4c35e88c4a74f6ec9e9469f25e4d82a01050eca4c12be56acc4b920ab1e002a70155d92e7e4ed2d7c23bc62666de0abed3f1a3efac720cc4657642fe44d9cae93f7482d65e59ec21507852d0676993dc8805324a531714fccf2ec1ec7855c47350766ff49c0c48e29704ef828090f311391c08b6288e96a54f4b77fd992cf4521bc6cc58b01e4995ba18a2ca49fa83568428be5065ce9873a154b33c0bf9ee66a4b8a96f665305587dc2b9e8a25b58bb39e440f68a92e167a2eee2f0368a4e57052a9e23341fb684a04891a0bb6f8741945029e9da8b1573f6ea5a781cf815359f23d9ff620ccc5a1118c86bae8a135325b0d0ec0d15d32398960933cf97617769b8ab7a3df829810deae1aab1910f7f99b9e67e1b8e3e642c45c12cd2587590c613d6d153804239d19a714434b9a2b145d6dea8d505d9d0ae4aba3e59817db61ea1ea8e8f2b135ec228d53d2416c2874e0205d63d334d8bf6461bba68ddf4f12a34af092fcc4335b98f1c46c8cd7945d604e1e540521a5950b79a6c3fb23b0021324424b627dabaeb4bfc1d6e00021304e53699698a2afd6d8e8e90308172c4f5e606780888a8f9c9ea9bccdd1dee3f2002930353c575861646e7b8095adb7bdc9ccdde5f0000000000000000000000e1c314601",
        "00104df505ffc0e24a6eb027c094c77811786afcb7749df784098bdeb104373fac7e41806d30df15b36e628b44a9f742f3aeea4cb8771f08d28efec5c3851a5ea6b9020e02de0cc791f3e6f78a72f8fb412cd7dbfa368078c1b0eaf3ad015bc1e8d893b1c1cc714e65eb9bb5514b228c54bcf429f78fac43345970fd1e6e1b6662d1ed8b20390abca6d574782363e67f2eb5d9e4ae7bfb7a599dcc09681c8697958e6f7050461e46dbc589b1f16220507b08ac730381b9106799b23c6f5a868d4a8a98cb66109de9886296410cc74233414f11cb02189c88b8801227e53243e7378e19d5144b55b18df80cecb3cd32e6812d3320588ea6e63edb6c6014db2c32438b56f293c9b6e933443a9c020bb1f331894a237f6d605295a9de1eab6591693155ae7e3b1f01275888bed8e9da8580715617bdb50b7ba3672c68ef77d488adff5897565f29630e4d624c0449262fec5a1378d72ca0064c246653197646795b1626349dd63304265bfac7f4f2c4968421deef6fc100c2a61bee15027141aa037f4480ff3fe4f0f300a21250ddef6cb23b4f82188ee90835f5f4759fb5a52baa4b71d96e86db58eee97d3af53657cc1eedfdad1365211e2beaa220ad7774dd5eb59e10ede7f25937212207cd26c96e3fbc52a120a924f8df6664bef9ae645c0450445f2856e6e1118d88eb7efef9837849329d2d873dcb1f29eca3d1a03ea7a807a1d519b294df7124b515f4b81a0633bcd7887c4fde85a52fb6aec2816d796ff41b60203006f842eba654a61e3a7f65cfe3e4fa879d83109a9973d52508167cbdd46e1da91c40e2f7cab5d5e063a6096dd20cd194e004b65c0942ba76b3063f1424457a6ddf403b1c8d7260f196f0f1431dcc012aa41ce12c61046f128d3789314cdd5a98bdc46a51ac4554bba37eb6f9ff507062f2753723774431865b0c6e9c4e2b24b0ed3d0f926fed8f6b3f0ff27ce8a7b11b7983a3be331e6ba3ac884798ff1967dce8dad4c322871d4412a95c80a195044ae9a0ae205ccdc09bdd8ef74535de8353fd50a32f9666fe8a6fa05cdfe5e75b06b201f77fb415cffaddb46115d814980bee395edf898f4bd3aaf12aaad50bcea992ba832e2df7b76c177b9aa88fd6ab4a0a91871ed0f1a268d39e2efa4ae595c63ffbb2b850f31445a366b0059cc657c0124dbff8c691372b5510c3c04a1a81f9fdb9c631b21cdc5c6464384d4a13d8bb418bf50b0b98be14817766e63a3f7c6c792c45899743e0597aaefc5d258fe6e798d1f916b9f4917a87bd722d5bab17a5440f05e46f5e643d45a8155d0b47d0f85693f705eb661d0fd1ae9d16e22e7878ad49491f34573c1d2715d4d53d456dea76084fec90b55067ad026dc98bd18ffc120753bb6294a804d465d090e4241a2787c004941e7a56fa17d4e859fa54b86a5812256fdd78b1ee13478d9da066a4de8872790e915d02c2258077212fb4cf2277f21d727b639e7b35a8f56da14cc7495697a92aa997e7c69c143cfc8330ffff7e5ea63fd6e905ae95fe856bea67c4cfc3267523868b826e53cb1e471a1478f5cc05b507f556dc45d3f4d8a1e3ada16c05a1928e876a358e3cd8057158685934800364cec16d67b928305d92ad4e45d4656ba97c7f8553fa21f642f823ef0714d3faa4501d6c388c9c534fe96337ee38b3a9557d88d5ad7d3c8aa49688fa934c983159011d74da6bc1964dfa9f27eeaba61ec0f95991d12ed42b13619ff85bec49267f17f6aeb86d6a8b231bfbfd7ba1e799804396c10f3b1114022a7856ec27c0a14216d0451d13a0f5c0104736d7908880e60257a6bd88a2c58a4dde51cb90170fdd15788fa8376dd15955"
      ],
      "sequence": 4294967294
    }
  ],
  "vout": [
    {
      "value": 499983.7296,
      "n": 0,
      "scriptPubKey": {
        "asm": "1 93f2b2e75844df2793351adabb56bcbf8368e0d261b4637af783794abc6637e5",
        "hex": "512093f2b2e75844df2793351adabb56bcbf8368e0d261b4637af783794abc6637e5",
        "reqSigs": 1,
        "type": "witness_v1_scripthash",
        "addresses": [
          "3QJmnh"
        ]
      }
    },
    {
      "value": 1.0,
      "n": 1,
      "scriptPubKey": {
        "asm": "OP_RETURN a25457de26be8f2b56a0662873ab856bec01d9de1b219c3bb4d2fb2838921403 bae6f5cbddf5070a73a305ec6ee94360b0818fec7a61ab94985baf12fe99c9df9ac6d5ebfdd5272a538325cc4ec9634090a1afcc5a418bb4b87b8f32deb9e9fffaa6b58b9db5474a33e345ac2ea90320f0c1cfac3a21ebd4d81bef52bed9899fda8695abbd95676a13c3658c0e892300d0e1ef8c1a01cbf4f83bcf729ef9a9bf3a66754b5d75878af323856cee69c3e030010f6cfae12b1418db2f927e19495f1a46556b7d55a7aad303a54cce49e3c010212f4cdac10b3438fb0fb25e39697f7a26350b1d35c7cab363c52cae2983a070414f2cbaa16b54589b6fd23e59091f5a06152b3d15e7ea9343e50c8e09a38050616f0c9a814b7478bb4ff21e79293fbae6f5cbddf5070a73a305ec6ee94360b0818fec7a61ab94985baf12fe99c9df9ac6d5ebfdd5272a538325cc4ec9634090a1afcc5a418bb4b87b8f32deb9e9fffaa6b58b9db5474a33e345ac2ea90320f0c1cfac3a21ebd4d81bef52bed9899fda8695abbd95676a13c3658c0e892300d0e1ef8c1a01cbf4f83bcf729ef9a9bf3a66754b5d75878af323856cee69c3e030010f6cfae12b1418db2f927e19495f1a46556b7d55a7aad303a54cce49e3c010212f4cdac10b3438fb0fb25e39697f7a26350b1d35c7cab363c52cae2983a070414f2cbaa16b54589b6fd23e59091f5a06152b3d15e7ea9343e50c8e09a38050616f0c9a814b7478bb4ff21e79293fbae6f5cbddf5070a73a305ec6ee94360b0818fec7a61ab94985baf12fe99c9df9ac6d5ebfdd5272a538325cc4ec9634090a1afcc5a418bb4b87b8f32deb9e9fffaa6b58b9db5474a33e345ac2ea90320f0c1cfac3a21ebd4d81bef52bed9899fda8695abbd95676a13c3658c0e892300d0e1ef8c1a01cbf4f83bcf729ef9a9bf3a66754b5d75878af323856cee69c3e030010f6cfae12b1418db2f927e19495f1a46556b7d55a7aad303a54cce49e3c010212f4cdac10b3438fb0fb25e39697f7a26350b1d35c7cab363c52cae2983a070414f2cbaa16b54589b6fd23e59091f5a06152b3d15e7ea9343e50c8e09a38050616f0c9a814b7478bb4ff21e79293fbae6f5cbddf5070a73a305ec6ee94360b0818fec7a61ab94985baf12fe99c9df9ac6d5ebfdd5272a538325cc4ec9634090a1afcc5a418bb4b87b8f32deb9e9fffaa6b58b9db5474a33e345ac2ea90320f0c1cfac3a21ebd4d81bef52bed9899fda8695abbd95676a13c3658c0e892300d0e1ef8c1a01cbf4f83bcf729ef9a9bf3a66754b5d75878af323856cee69c3e030010f6cfae12b1418db2f927e19495f1a46556b7d55a7aad303a54cce49e3c010212f4cdac10b3438fb0fb25e39697f7a26350b1d35c7cab363c52cae2983a070414f2cbaa16b54589b6fd23e59091f5a06152b3d15e7ea9343e50c8e09a38050616f0c9a814b7478bb4ff21e79293fbae6f5cbddf5070a73a305ec6ee94360b0818fec7a61ab94985baf12fe99c9df9ac6d5ebfdd5272a538325cc4ec9634090a1afcc5a418bb4b87b8f32deb9e9fffaa6b58b9db5474a33e345ac2ea90320f0c1cfac3a21ebd4d81bef52bed9899fda8695abbd95676a13c3658c0e892300d0e1ef8c1a01cbf4f83bcf729ef9a9bf3a66754b5d75878af323856cee69c3e044fb4e6e00c376f168707daa7c71f9b3a78747b0127f8078a31ae3f27b28491e",
        "hex": "6a20a25457de26be8f2b56a0662873ab856bec01d9de1b219c3bb4d2fb28389214034db004bae6f5cbddf5070a73a305ec6ee94360b0818fec7a61ab94985baf12fe99c9df9ac6d5ebfdd5272a538325cc4ec9634090a1afcc5a418bb4b87b8f32deb9e9fffaa6b58b9db5474a33e345ac2ea90320f0c1cfac3a21ebd4d81bef52bed9899fda8695abbd95676a13c3658c0e892300d0e1ef8c1a01cbf4f83bcf729ef9a9bf3a66754b5d75878af323856cee69c3e030010f6cfae12b1418db2f927e19495f1a46556b7d55a7aad303a54cce49e3c010212f4cdac10b3438fb0fb25e39697f7a26350b1d35c7cab363c52cae2983a070414f2cbaa16b54589b6fd23e59091f5a06152b3d15e7ea9343e50c8e09a38050616f0c9a814b7478bb4ff21e79293fbae6f5cbddf5070a73a305ec6ee94360b0818fec7a61ab94985baf12fe99c9df9ac6d5ebfdd5272a538325cc4ec9634090a1afcc5a418bb4b87b8f32deb9e9fffaa6b58b9db5474a33e345ac2ea90320f0c1cfac3a21ebd4d81bef52bed9899fda8695abbd95676a13c3658c0e892300d0e1ef8c1a01cbf4f83bcf729ef9a9bf3a66754b5d75878af323856cee69c3e030010f6cfae12b1418db2f927e19495f1a46556b7d55a7aad303a54cce49e3c010212f4cdac10b3438fb0fb25e39697f7a26350b1d35c7cab363c52cae2983a070414f2cbaa16b54589b6fd23e59091f5a06152b3d15e7ea9343e50c8e09a38050616f0c9a814b7478bb4ff21e79293fbae6f5cbddf5070a73a305ec6ee94360b0818fec7a61ab94985baf12fe99c9df9ac6d5ebfdd5272a538325cc4ec9634090a1afcc5a418bb4b87b8f32deb9e9fffaa6b58b9db5474a33e345ac2ea90320f0c1cfac3a21ebd4d81bef52bed9899fda8695abbd95676a13c3658c0e892300d0e1ef8c1a01cbf4f83bcf729ef9a9bf3a66754b5d75878af323856cee69c3e030010f6cfae12b1418db2f927e19495f1a46556b7d55a7aad303a54cce49e3c010212f4cdac10b3438fb0fb25e39697f7a26350b1d35c7cab363c52cae2983a070414f2cbaa16b54589b6fd23e59091f5a06152b3d15e7ea9343e50c8e09a38050616f0c9a814b7478bb4ff21e79293fbae6f5cbddf5070a73a305ec6ee94360b0818fec7a61ab94985baf12fe99c9df9ac6d5ebfdd5272a538325cc4ec9634090a1afcc5a418bb4b87b8f32deb9e9fffaa6b58b9db5474a33e345ac2ea90320f0c1cfac3a21ebd4d81bef52bed9899fda8695abbd95676a13c3658c0e892300d0e1ef8c1a01cbf4f83bcf729ef9a9bf3a66754b5d75878af323856cee69c3e030010f6cfae12b1418db2f927e19495f1a46556b7d55a7aad303a54cce49e3c010212f4cdac10b3438fb0fb25e39697f7a26350b1d35c7cab363c52cae2983a070414f2cbaa16b54589b6fd23e59091f5a06152b3d15e7ea9343e50c8e09a38050616f0c9a814b7478bb4ff21e79293fbae6f5cbddf5070a73a305ec6ee94360b0818fec7a61ab94985baf12fe99c9df9ac6d5ebfdd5272a538325cc4ec9634090a1afcc5a418bb4b87b8f32deb9e9fffaa6b58b9db5474a33e345ac2ea90320f0c1cfac3a21ebd4d81bef52bed9899fda8695abbd95676a13c3658c0e892300d0e1ef8c1a01cbf4f83bcf729ef9a9bf3a66754b5d75878af323856cee69c3e044fb4e6e00c376f168707daa7c71f9b3a78747b0127f8078a31ae3f27b28491e",
        "type": "nulldata"
      }
    }
  ],
  "blockhash": "e950f66e7d48487e03ac7a1b4e7864aa28758accf0e3d98358cdf64a352531e0",
  "confirmations": 1,
  "time": 1764181937,
  "blocktime": 1764181937
}