{
  "hex": "010000000001010b76554903a8d3b29e77983e4f3994428d647423d4da402175e61c67fd4df64e0100000000feffffff0200e1f50500000000fdd5046a2040eb372931e53cac7f53c049e09fa00e2168e15da92f8d51df0b7bc468d47dc14db00451795cf8f6596a32e0ade3bde382b56400517a6ac947a89f7bd326ee5632a24871597cd8d6794a12c08dc39dc3a2954420715a4ae96788bf5bf306ce7612826811391cb8b6192a72a0eda3fda3c2f52440113a2a8907e8df3b9366ae1672e20831193c9896390a5280cd83dd83e2d50460311a0aa927c8ff1bb3468e3652c228d1f9dc7876d9eab2602d633d630235e480d1faea49c7281ffb53a66ed6b222c8f1d9fc5856f9ca92400d431d432215c4a0f1daca69e7083fdb73864ef69202e891b99c383699aaf2206d237d234275a4c091baaa0987685fbb13e62e96f26288b199bc1816b98ad2004d035d03625584e0b19a8a29a7487f9b33c60eb6d242a851795cf8f6596a32e0ade3bde382b56400517a6ac947a89f7bd326ee5632a24871597cd8d6794a12c08dc39dc3a2954420715a4ae96788bf5bf306ce7612826811391cb8b6192a72a0eda3fda3c2f52440113a2a8907e8df3b9366ae1672e20831193c9896390a5280cd83dd83e2d50460311a0aa927c8ff1bb3468e3652c228d1f9dc7876d9eab2602d633d630235e480d1faea49c7281ffb53a66ed6b222c8f1d9fc5856f9ca92400d431d432215c4a0f1daca69e7083fdb73864ef69202e891b99c383699aaf2206d237d234275a4c091baaa0987685fbb13e62e96f26288b199bc1816b98ad2004d035d03625584e0b19a8a29a7487f9b33c60eb6d242a851795cf8f6596a32e0ade3bde382b56400517a6ac947a89f7bd326ee5632a24871597cd8d6794a12c08dc39dc3a2954420715a4ae96788bf5bf306ce7612826811391cb8b6192a72a0eda3fda3c2f52440113a2a8907e8df3b9366ae1672e20831193c9896390a5280cd83dd83e2d50460311a0aa927c8ff1bb3468e3652c228d1f9dc7876d9eab2602d633d630235e480d1faea49c7281ffb53a66ed6b222c8f1d9fc5856f9ca92400d431d432215c4a0f1daca69e7083fdb73864ef69202e891b99c383699aaf2206d237d234275a4c091baaa0987685fbb13e62e96f26288b199bc1816b98ad2004d035d03625584e0b19a8a29a7487f9b33c60eb6d242a851795cf8f6596a32e0ade3bde382b56400517a6ac947a89f7bd326ee5632a24871597cd8d6794a12c08dc39dc3a2954420715a4ae96788bf5bf306ce7612826811391cb8b6192a72a0eda3fda3c2f52440113a2a8907e8df3b9366ae1672e20831193c9896390a5280cd83dd83e2d50460311a0aa927c8ff1bb3468e3652c228d1f9dc7876d9eab2602d633d630235e480d1faea49c7281ffb53a66ed6b222c8f1d9fc5856f9ca92400d431d432215c4a0f1daca69e7083fdb73864ef69202e891b99c383699aaf2206d237d234275a4c091baaa0987685fbb13e62e96f26288b199bc1816b98ad2004d035d03625584e0b19a8a29a7487f9b33c60eb6d242a851795cf8f6596a32e0ade3bde382b56400517a6ac947a89f7bd326ee5632a24871597cd8d6794a12c08dc39dc3a2954420715a4ae96788bf5bf306ce7612826811391cb8b6192a72a0eda3fda3c2f52440113a2a8907e8df3b9366ae1672e20831193c9896390a5280cd83dd83e2d50460311a0aa927c8ff1bb3468e3652c228d1f9dc7876d9eab2602d633d630235e414750e157a80f2a838c097056a0bb62143b304f0d997cfb46857845874c1bbc79021522d792d00002251204686d2dd1ee8dd1827a9e181728a3728018e38b181035cd6a7952adb565b191902fd750939a391a65da1b2520b25270eaf101786f18699e04124ab48896a84b68b32237b6fd6efe51b584b4313e972ab8d958f74133c4640ad9b85d1f4d2c46bea1dae7d7805ccd413917cfd81581edf43780bbfe83584657d79eb95d4aa36bdb520a1634dea4c8b6454fa6671b3ca586cd746cfe5c74cf63985dfb8b381e39f5a388772d7a8f6809c01a88d2e9028df0893f33d29503c99a233b48892bc1f7a209b5baa22baf1288dbe0851c7bf5b4c00db15b41b5ecc4e5a647bd989fdfe14bac968c0bd9b8b8d0dcefca944cd313638147a522a4ffe5b95127fb54f8abbb50022b2e720d5a85f7fa65412b68c3faf3df83fcd682109802134fc010653949387a09879a1358d7ed66b0859402baea506c09f3c3ecf1b269a5b120b76b70c940a094b14945f567b67f9eab5fb796a91812a178266f64d9d98bbaa47272880c081c19c59fecfe3c798f6dc935affad8f1e5afcc0a5717ab9c18097eac34cfdf6392f0f5ff57f9691714575650796c76c695bed869ecc2dc8960a75213b449b58708546264e067ada03535b236beec1fc9a1b18213c2e479f085c528377416a072dcc119e8b5633401278882b4b2618da997a2661a3658b89fa690cde2b93b5e4799320e1fdb5e6d17c5a0937e0cbace28fef0df1362f3731ceef0a8d7d232d86b609042eb8d01abdb065ef4b54f5806b39ea9a78c22db067d7d4a8533a84c855db7a16a67ed0fffea6b3411df66641508a63b9b437618be31848366b8699947685b749a0a56bd13ba22741e45e54f8aec319e40afbb3612c9320ac1309f2aa95216654a54b2040c74df2ededec5559430af72f1ce34e441d53d91736714079058504d3de03469ed3e366adf00a5722c8c7d525298187840073ad2213d6e48b3cc7e1c49d417680d76016d5b354885e62110dc350781ab811dc88c652cafd3c8d665277e5d983a45b9678c3208f5e261c2ecd5e22ce5c98d726f3ce1bf307f544ce9f39d4cf5a180db698cbf554848ff00e451eea73fccf610ef5b8978abb507571cb13178f7b20669df1aba1af3d8e1d0c89988a30061a70b21b001cd2d0a77e378c7e18efbbd9461ca5bf9672e4ba86923122de39fce050f4a54cac03062d09383b2afe160779dc6c67dfec371f91ccfbf4090051af78ee8136f3c69c17be1f78089538760b595ef34d6ca0230ae326a331d2a8770985c95712ceb7b13323ff6764600b5a0c54c44855a15f2e0549480b1792d410b8f435727709b6a7b05fa9248d94128892d626da556387150facd8e2a3dd6277f0cb0deec365dcf1ccec5b7b8788b0a68b6327cb83e2221e118f420fa9257ba673fe677611f9597955aace6f2210dfb7ff39453a769581982bb2c31af8bae74a3d73450ce82b77b62b148f1b5c871d0d88b48a93fb4b57a7fa0347a7ead2237a361c49a852f81a33401aff39ea0e2ad530ed4dcdfee0915a7e0a55ad80c51d341243ed29c78d4a85b3868b9378f3dc700efa56f6bb1766be8b10e77191945e720d1787daf49e221cd71e97ee7e4b9e055e001891fab2ac07c4ae2f219e9cf6dd8fa1309e2b971162b81a5f1fb059b667689250bc05c4615f9febd3f7d7aa2a72fcece155d907f29f89789d99dac065c44d422e1d950ad3cddf0986dd812ea1cb3f2a6e3069bc8c4aea2aed4afb157f3697f2d95a5f540f3a67b25a37994cae39b8f3c38501c1c3f864df509d35f0ef9a2a3b12077ecf105edbe2c4c698f9441a61a9d10316890afd47c01250a336e84145e4ae6ef9db2f88254396a0ccc69af6c4095836ad8f309ff2f73f372c35da4547684531d8d89ce19adb7e5c31515ff63c8cd9c8e5d5555db26282e540273f65883b59b09153f4ee5e948148b648d7282f469a1395b095ceaf77b98c4c420659b9d6da8d6e51e7690bf28cafab7c120cd119cfd6cec62e6a433f952b3c223e79aef730b31f713889eed751d50ecb4f20c42dc07727869170ced96abc67b614e902121de1d4f6928f4045bb71dbb4e44fe1ad81978d9ed099602e1f910b7302cfa85e257dfcbdecb6f5893d22a45bf5105f3ed6c1b0555b1792512a10c787b63bc34300236717bc71973ce28e6ee64d9b5cb95b161098a687cee8b3e4e4c58538ac98a51cdff4cdf39546dbf481946e1ebfd653cf41ab4a93b0e758cc989b88889eaafec3be00dd04dcb6fb7c67367a82b2d1714bcac9943213ced6ac74460da7f3148427a58264f36dba6a18cfc8baf4dcf70ec679b6b81616b22b7e0931e8d7e775841768d5106fb9c1c75cbe7137a005d34e43e8ddffe02a213d130ebe5d2de9d988a7c2828a1c8e396a892edd37094cf19dafadc43f30ede6fc072ef927066e1b925affe1fbe0adf86abea5b202fa61d2d345cf730b81b0dd83b85619572cde58a2caf38909fd67febd04fb51d9d1baed715cc03fc38c9b9ce80028053441cee6b74bf635bcc1816e820e9bceb29efa0f0a3f1dd94f0bfacf5a906675d7d076ff6dc1956e7ebad6dbd167c1681d5bfebd873d843424728cf882f42edbef36bcf1c01bf7533c2e86cd42ca7a04671a216c87f8cee1d70dbc6639c16b446872eb50cc893eae54d3e41a077b42baf1cd573faa6df173d3d89f7fab3eae1dcb914f9d7d8e342f9935122a722dcca7e7a3ab43860c6b33df5efc504427072b1c2915e472a23cb5508502a98a960f753d749d867b068ede6bd2af6d801ef9b5286cdc05405f228bcf04dabe9116ecbd43c0216d855fa1db13e262b034c63a2551ff39410cfa967762c7d714217fdc8ef80cf384a18887a4c4ba07ed929ce1b5eb41e6ba303d477b3151fc274340620389ebf7e29d92b8a3a4248490f46751d324a8e05a48decb4b419cc4b6adcb9d9d6873a360e6b6600bb177f910f1f0007304b17270cfcbbf7a40d640735d3ec529fdceacbf99a6da4f4daf6c51901db0c6f1735055525b5c2e73ee400ec8ab51773510167492f9959085fa9572dd9f75968991a7a22f2084171ca359b8832d2af55b199a844d647b52d09a80fe8722588a3b85e9692515eed7bfaf21fc8ad7efc875f6a1be689969c05caad7bed27cca00120ee1696030a9624458ef23491ce019d05730583ba1664059fd6dc3b54b4b4c22188e2135c983f460b205227dc27a1f2eb00cf2f3566381ac29233957db15baf17299ea4972c228092edc0f06ba9e7c5879a0f4f9e26278c44011266311594c71a648fd857d3ec652e17ddbf5198143878bde4b9a59b1ba90493d49d633426d6e03d04bdc51e593610e24a4c47c86d2837b39d7e8f3b0272b895af1627871581e5672767b89dae9f202082b3d565c98a3bfc2cbdde6ebeff304050a172021292f3a3b495f798c9699a1b6beecf036393f404666686987a2aab9bcc4e5eaeef5fbfc00000000000000000000000000000008182d4101fd2105008449f8a8c1a17b1ae55dbf5c7137f5d6d7c3ba8f84dd7f234d318cf7c1c040aec101c9c79aed4bf107f95b82248cb53112a3cbdc2f350a3ef9fcf59f68a68dabb0012be84d737121c3e90fee49b17325ceeed50dad9bf19c81933646f6f1d1f4792d6a03f4784aff49e130e7afe91d679b2474df2db7c470646d969fb78ff5c6a4fcc26f529dd32bc8b8d7a1d3409123b496c21107de5be311db219dac3bb1c997914755ac9f0bcce0faa92de8688f7c30d29c9e48607c6c698138c6bef3d35dc8ab4cddae723a013e77ea64c3b8b11e3e17e3303c5e0056da90f66e4746883a6151163e31d03d191ff5a9de4a8605afd5da590c222a08f6644b7ce6dac3a20ab32d4adc955817037c2be8d198e214102b056f4926e4fbb07452d900d972759f937b5adee106db4b36f59a8e246add88f70d196aa853b448c1e72fc38051f8993077f3d7038a210aa441d5fd00ad32465fd484edd1b9293a021cb9b56fc517d3fd811ee93f65e11153d3b1adc2c8190455849d3b0570503e4f7115a5d199cb249a1956960bdb66038a1990ab046cc32ca5e5cf6da140aaecf8773d2508d863142ea2587f470db932336ebb29cde174562ff392547ec49a2fee718d9315d6930e6d2b509686852053f6f7bfd6aab2e436f2b16a3518a6c6bda84605ce0a57dc8774c249b40699d423b82eacd358773c5291e01b7c9a9aa742dcb6e8c7f4764b01ec43e7194df7b19c7d652aef9c3f05079d8bb6299e79ffb193467ab25416c83d82de97420450aac0bc1df0be5f64227c73ecb7f7147b72de4caca9e29212fbaa3972fe25b7898f1041546f79574646ae4cc3b912481fb4297805280aebc3a1acad2df51fcaa23d24f8b305f1e22848a122be65ec00756e66e3864887d36cfc9a9a632b68bb2c25bc628be7f2c0043eddfd9a969fe90de2db3bdb0abf71c2aff41f1103567895dc0d60387206f023487c9494ba18193beaa9e485783c02d1921d652726f6e2c0ff6f086cfe469d0dc2a59236256ef62e41c2a9c486eb08341126d29d697358f7d58f198c8e39b59d83454e5fdac3bd3fab20e1bb9e11f6f981e4d765c3115274170e7aef907153861bb75d0ca2bca1f875bb17543d38c9025842c0f3bbad1b8c901fbceb30c69c0434315a89a03ad7048ae4472623c36d1dedfc4cf643f3cc4e3e28abd12dda58f3df3147d00c1cf57a91e857dff4865e1a49959d8a846f3081f6afeeae5585c82720e6a6cba6c2218612d1c9d74cc28c1c5af5045de3e93c914dd42fc79646be579cc985acf3ec98dd7587708bda390412135b7a8c5d362a71e3ed98a16a72185a278602cd383d51ec770a52db9d4037946685dcd5d7b1fb183d66780c2421ea070c5f2f4a3f4e8e6f3730ce26cf27d5a4afdf148b5f5600ca711a15a8d83536b23fe24a8940192f25dbaefe1df5a5c2a025db0d036da9d2ff258dfe64e01f78ef664e5a6c20b33b17188fab26c15cb2c6b709f2658cece698575ef751eca9605c7b6fc9d46a6183906a1ce52655f4241a326b8c02f46a7acc3aab37b385a84c982b3162c8b24b800648cd27d776be18602a9483463dda5cb78c287caaa664f15b7a12d77767239cc5d2ca63c032a29a021c01e5df8ea2d78f952a57e5649548fc81ccaba58221d1629fb7f05335bbd64fd0713640a56c06d635c0addab239ffd4ca2fc47151a292c48aadeecd24aeb545d86b75687013a47370a6f2ea2009bc757c4924bf20b8552048198d069b9292d5d71fb5e28e975073b83045f3079aabd3fb9e74529319551ac692fbc692444894cb269440962e567f1f24d65fdfb35de5748f06dac5897b9d2727d4f018519580253f71000000",
  "txid": "561dc14552ff35f57cf6523d44a73401d248803757c8547987c572a9d6aa27b9",
  "hash": "c86625b3ff579bbf89a48f74fea46d66fa3ea13cd047f8908cbf886a1339cf55",
  "size": 5085,
  "vsize": 2278,
  "version": 1,
  "locktime": 113,
  "vin": [
    {
      "txid": "4ef64dfd671ce6752140dad42374648d4294394f3e98779eb2d3a8034955760b",
      "vout": 1,
      "scriptSig": {
        "asm": "",
        "hex": ""
      },
      "txinwitness": [
        "39a391a65da1b2520b25270eaf101786f18699e04124ab48896a84b68b32237b6fd6efe51b584b4313e972ab8d958f74133c4640ad9b85d1f4d2c46bea1dae7d7805ccd413917cfd81581edf43780bbfe83584657d79eb95d4aa36bdb520a1634dea4c8b6454fa6671b3ca586cd746cfe5c74cf63985dfb8b381e39f5a388772d7a8f6809c01a88d2e9028df0893f33d29503c99a233b48892bc1f7a209b5baa22baf1288dbe0851c7bf5b4c00db15b41b5ecc4e5a647bd989fdfe14bac968c0bd9b8b8d0dcefca944cd313638147a522a4ffe5b95127fb54f8abbb50022b2e720d5a85f7fa65412b68c3faf3df83fcd682109802134fc010653949387a09879a1358d7ed66b0859402baea506c09f3c3ecf1b269a5b120b76b70c940a094b14945f567b67f9eab5fb796a91812a178266f64d9d98bbaa47272880c081c19c59fecfe3c798f6dc935affad8f1e5afcc0a5717ab9c18097eac34cfdf6392f0f5ff57f9691714575650796c76c695bed869ecc2dc8960a75213b449b58708546264e067ada03535b236beec1fc9a1b18213c2e479f085c528377416a072dcc119e8b5633401278882b4b2618da997a2661a3658b89fa690cde2b93b5e4799320e1fdb5e6d17c5a0937e0cbace28fef0df1362f3731ceef0a8d7d232d86b609042eb8d01abdb065ef4b54f5806b39ea9a78c22db067d7d4a8533a84c855db7a16a67ed0fffea6b3411df66641508a63b9b437618be31848366b8699947685b749a0a56bd13ba22741e45e54f8aec319e40afbb3612c9320ac1309f2aa95216654a54b2040c74df2ededec5559430af72f1ce34e441d53d91736714079058504d3de03469ed3e366adf00a5722c8c7d525298187840073ad2213d6e48b3cc7e1c49d417680d76016d5b354885e62110dc350781ab811dc88c652cafd3c8d665277e5d983a45b9678c3208f5e261c2ecd5e22ce5c98d726f3ce1bf307f544ce9f39d4cf5a180db698cbf554848ff00e451eea73fccf610ef5b8978abb507571cb13178f7b20669df1aba1af3d8e1d0c89988a30061a70b21b001cd2d0a77e378c7e18efbbd9461ca5bf9672e4ba86923122de39fce050f4a54cac03062d09383b2afe160779dc6c67dfec371f91ccfbf4090051af78ee8136f3c69c17be1f78089538760b595ef34d6ca0230ae326a331d2a8770985c95712ceb7b13323ff6764600b5a0c54c44855a15f2e0549480b1792d410b8f435727709b6a7b05fa9248d94128892d626da556387150facd8e2a3dd6277f0cb0deec365dcf1ccec5b7b8788b0a68b6327cb83e2221e118f420fa9257ba673fe677611f9597955aace6f2210dfb7ff39453a769581982bb2c31af8bae74a3d73450ce82b77b62b148f1b5c871d0d88b48a93fb4b57a7fa0347a7ead2237a361c49a852f81a33401aff39ea0e2ad530ed4dcdfee0915a7e0a55ad80c51d341243ed29c78d4a85b3868b9378f3dc700efa56f6bb1766be8b10e77191945e720d1787daf49e221cd71e97ee7e4b9e055e001891fab2ac07c4ae2f219e9cf6dd8fa1309e2b971162b81a5f1fb059b667689250bc05c4615f9febd3f7d7aa2a72fcece155d907f29f89789d99dac065c44d422e1d950ad3cddf0986dd812ea1cb3f2a6e3069bc8c4aea2aed4afb157f3697f2d95a5f540f3a67b25a37994cae39b8f3c38501c1c3f864df509d35f0ef9a2a3b12077ecf105edbe2c4c698f9441a61a9d10316890afd47c01250a336e84145e4ae6ef9db2f88254396a0ccc69af6c4095836ad8f309ff2f73f372c35da4547684531d8d89ce19adb7e5c31515ff63c8cd9c8e5d5555db26282e540273f65883b59b09153f4ee5e948148b648d7282f469a1395b095ceaf77b98c4c420659b9d6da8d6e51e7690bf28cafab7c120cd119cfd6cec62e6a433f952b3c223e79aef730b31f713889eed751d50ecb4f20c42dc07727869170ced96abc67b614e902121de1d4f6928f4045bb71dbb4e44fe1ad81978d9ed099602e1f910b7302cfa85e257dfcbdecb6f5893d22a45bf5105f3ed6c1b0555b1792512a10c787b63bc34300236717bc71973ce28e6ee64d9b5cb95b161098a687cee8b3e4e4c58538ac98a51cdff4cdf39546dbf481946e1ebfd653cf41ab4a93b0e758cc989b88889eaafec3be00dd04dcb6fb7c67367a82b2d1714bcac9943213ced6ac74460da7f3148427a58264f36dba6a18cfc8baf4dcf70ec679b6b81616b22b7e0931e8d7e775841768d5106fb9c1c75cbe7137a005d34e43e8ddffe02a213d130ebe5d2de9d988a7c2828a1c8e396a892edd37094cf19dafadc43f30ede6fc072ef927066e1b925affe1fbe0adf86abea5b202fa61d2d345cf730b81b0dd83b85619572cde58a2caf38909fd67febd04fb51d9d1baed715cc03fc38c9b9ce80028053441cee6b74bf635bcc1816e820e9bceb29efa0f0a3f1dd94f0bfacf5a906675d7d076ff6dc1956e7ebad6dbd167c1681d5bfebd873d843424728cf882f42edbef36bcf1c01bf7533c2e86cd42ca7a04671a216c87f8cee1d70dbc6639c16b446872eb50cc893eae54d3e41a077b42baf1cd573faa6df173d3d89f7fab3eae1dcb914f9d7d8e342f9935122a722dcca7e7a3ab43860c6b33df5efc504427072b1c2915e472a23cb5508502a98a960f753d749d867b068ede6bd2af6d801ef9b5286cdc05405f228bcf04dabe9116ecbd43c0216d855fa1db13e262b034c63a2551ff39410cfa967762c7d714217fdc8ef80cf384a18887a4c4ba07ed929ce1b5eb41e6ba303d477b3151fc274340620389ebf7e29d92b8a3a4248490f46751d324a8e05a48decb4b419cc4b6adcb9d9d6873a360e6b6600bb177f910f1f0007304b17270cfcbbf7a40d640735d3ec529fdceacbf99a6da4f4daf6c51901db0c6f1735055525b5c2e73ee400ec8ab51773510167492f9959085fa9572dd9f75968991a7a22f2084171ca359b8832d2af55b199a844d647b52d09a80fe8722588a3b85e9692515eed7bfaf21fc8ad7efc875f6a1be689969c05caad7bed27cca00120ee1696030a9624458ef23491ce019d05730583ba1664059fd6dc3b54b4b4c22188e2135c983f460b205227dc27a1f2eb00cf2f3566381ac29233957db15baf17299ea4972c228092edc0f06ba9e7c5879a0f4f9e26278c44011266311594c71a648fd857d3ec652e17ddbf5198143878bde4b9a59b1ba90493d49d633426d6e03d04bdc51e593610e24a4c47c86d2837b39d7e8f3b0272b895af1627871581e5672767b89dae9f202082b3d565c98a3bfc2cbdde6ebeff304050a172021292f3a3b495f798c9699a1b6beecf036393f404666686987a2aab9bcc4e5eaeef5fbfc00000000000000000000000000000008182d4101",
        "008449f8a8c1a17b1ae55dbf5c7137f5d6d7c3ba8f84dd7f234d318cf7c1c040aec101c9c79aed4bf107f95b82248cb53112a3cbdc2f350a3ef9fcf59f68a68dabb0012be84d737121c3e90fee49b17325ceeed50dad9bf19c81933646f6f1d1f4792d6a03f4784aff49e130e7afe91d679b2474df2db7c470646d969fb78ff5c6a4fcc26f529dd32bc8b8d7a1d3409123b496c21107de5be311db219dac3bb1c997914755ac9f0bcce0faa92de8688f7c30d29c9e48607c6c698138c6bef3d35dc8ab4cddae723a013e77ea64c3b8b11e3e17e3303c5e0056da90f66e4746883a6151163e31d03d191ff5a9de4a8605afd5da590c222a08f6644b7ce6dac3a20ab32d4adc955817037c2be8d198e214102b056f4926e4fbb07452d900d972759f937b5adee106db4b36f59a8e246add88f70d196aa853b448c1e72fc38051f8993077f3d7038a210aa441d5fd00ad32465fd484edd1b9293a021cb9b56fc517d3fd811ee93f65e11153d3b1adc2c8190455849d3b0570503e4f7115a5d199cb249a1956960bdb66038a1990ab046cc32ca5e5cf6da140aaecf8773d2508d863142ea2587f470db932336ebb29cde174562ff392547ec49a2fee718d9315d6930e6d2b509686852053f6f7bfd6aab2e436f2b16a3518a6c6bda84605ce0a57dc8774c249b40699d423b82eacd358773c5291e01b7c9a9aa742dcb6e8c7f4764b01ec43e7194df7b19c7d652aef9c3f05079d8bb6299e79ffb193467ab25416c83d82de97420450aac0bc1df0be5f64227c73ecb7f7147b72de4caca9e29212fbaa3972fe25b7898f1041546f79574646ae4cc3b912481fb4297805280aebc3a1acad2df51fcaa23d24f8b305f1e22848a122be65ec00756e66e3864887d36cfc9a9a632b68bb2c25bc628be7f2c0043eddfd9a969fe90de2db3bdb0abf71c2aff41f1103567895dc0d60387206f023487c9494ba18193beaa9e485783c02d1921d652726f6e2c0ff6f086cfe469d0dc2a59236256ef62e41c2a9c486eb08341126d29d697358f7d58f198c8e39b59d83454e5fdac3bd3fab20e1bb9e11f6f981e4d765c3115274170e7aef907153861bb75d0ca2bca1f875bb17543d38c9025842c0f3bbad1b8c901fbceb30c69c0434315a89a03ad7048ae4472623c36d1dedfc4cf643f3cc4e3e28abd12dda58f3df3147d00c1cf57a91e857dff4865e1a49959d8a846f3081f6afeeae5585c82720e6a6cba6c2218612d1c9d74cc28c1c5af5045de3e93c914dd42fc79646be579cc985acf3ec98dd7587708bda390412135b7a8c5d362a71e3ed98a16a72185a278602cd383d51ec770a52db9d4037946685dcd5d7b1fb183d66780c2421ea070c5f2f4a3f4e8e6f3730ce26cf27d5a4afdf148b5f5600ca711a15a8d83536b23fe24a8940192f25dbaefe1df5a5c2a025db0d036da9d2ff258dfe64e01f78ef664e5a6c20b33b17188fab26c15cb2c6b709f2658cece698575ef751eca9605c7b6fc9d46a6183906a1ce52655f4241a326b8c02f46a7acc3aab37b385a84c982b3162c8b24b800648cd27d776be18602a9483463dda5cb78c287caaa664f15b7a12d77767239cc5d2ca63c032a29a021c01e5df8ea2d78f952a57e5649548fc81ccaba58221d1629fb7f05335bbd64fd0713640a56c06d635c0addab239ffd4ca2fc47151a292c48aadeecd24aeb545d86b75687013a47370a6f2ea2009bc757c4924bf20b8552048198d069b9292d5d71fb5e28e975073b83045f3079aabd3fb9e74529319551ac692fbc692444894cb269440962e567f1f24d65fdfb35de5748f06dac5897b9d2727d4f018519580253f"
      ],
      "sequence": 4294967294
    }
  ],
  "vout": [
    {
      "value": 1.0,
      "n": 0,
      "scriptPubKey": {
        "asm": "OP_RETURN 40eb372931e53cac7f53c049e09fa00e2168e15da92f8d51df0b7bc468d47dc1 51795cf8f6596a32e0ade3bde382b56400517a6ac947a89f7bd326ee5632a24871597cd8d6794a12c08dc39dc3a2954420715a4ae96788bf5bf306ce7612826811391cb8b6192a72a0eda3fda3c2f52440113a2a8907e8df3b9366ae1672e20831193c9896390a5280cd83dd83e2d50460311a0aa927c8ff1bb3468e3652c228d1f9dc7876d9eab2602d633d630235e480d1faea49c7281ffb53a66ed6b222c8f1d9fc5856f9ca92400d431d432215c4a0f1daca69e7083fdb73864ef69202e891b99c383699aaf2206d237d234275a4c091baaa0987685fbb13e62e96f26288b199bc1816b98ad2004d035d03625584e0b19a8a29a7487f9b33c60eb6d242a851795cf8f6596a32e0ade3bde382b56400517a6ac947a89f7bd326ee5632a24871597cd8d6794a12c08dc39dc3a2954420715a4ae96788bf5bf306ce7612826811391cb8b6192a72a0eda3fda3c2f52440113a2a8907e8df3b9366ae1672e20831193c9896390a5280cd83dd83e2d50460311a0aa927c8ff1bb3468e3652c228d1f9dc7876d9eab2602d633d630235e480d1faea49c7281ffb53a66ed6b222c8f1d9fc5856f9ca92400d431d432215c4a0f1daca69e7083fdb73864ef69202e891b99c383699aaf2206d237d234275a4c091baaa0987685fbb13e62e96f26288b199bc1816b98ad2004d035d03625584e0b19a8a29a7487f9b33c60eb6d242a851795cf8f6596a32e0ade3bde382b56400517a6ac947a89f7bd326ee5632a24871597cd8d6794a12c08dc39dc3a2954420715a4ae96788bf5bf306ce7612826811391cb8b6192a72a0eda3fda3c2f52440113a2a8907e8df3b9366ae1672e20831193c9896390a5280cd83dd83e2d50460311a0aa927c8ff1bb3468e3652c228d1f9dc7876d9eab2602d633d630235e480d1faea49c7281ffb53a66ed6b222c8f1d9fc5856f9ca92400d431d432215c4a0f1daca69e7083fdb73864ef69202e891b99c383699aaf2206d237d234275a4c091baaa0987685fbb13e62e96f26288b199bc1816b98ad2004d035d03625584e0b19a8a29a7487f9b33c60eb6d242a851795cf8f6596a32e0ade3bde382b56400517a6ac947a89f7bd326ee5632a24871597cd8d6794a12c08dc39dc3a2954420715a4ae96788bf5bf306ce7612826811391cb8b6192a72a0eda3fda3c2f52440113a2a8907e8df3b9366ae1672e20831193c9896390a5280cd83dd83e2d50460311a0aa927c8ff1bb3468e3652c228d1f9dc7876d9eab2602d633d630235e480d1faea49c7281ffb53a66ed6b222c8f1d9fc5856f9ca92400d431d432215c4a0f1daca69e7083fdb73864ef69202e891b99c383699aaf2206d237d234275a4c091baaa0987685fbb13e62e96f26288b199bc1816b98ad2004d035d03625584e0b19a8a29a7487f9b33c60eb6d242a851795cf8f6596a32e0ade3bde382b56400517a6ac947a89f7bd326ee5632a24871597cd8d6794a12c08dc39dc3a2954420715a4ae96788bf5bf306ce7612826811391cb8b6192a72a0eda3fda3c2f52440113a2a8907e8df3b9366ae1672e20831193c9896390a5280cd83dd83e2d50460311a0aa927c8ff1bb3468e3652c228d1f9dc7876d9eab2602d633d630235e414750e157a80f2a838c097056a0bb62143b304f0d997cfb46857845874c1bbc7",
        "hex": "6a2040eb372931e53cac7f53c049e09fa00e2168e15da92f8d51df0b7bc468d47dc14db00451795cf8f6596a32e0ade3bde382b56400517a6ac947a89f7bd326ee5632a24871597cd8d6794a12c08dc39dc3a2954420715a4ae96788bf5bf306ce7612826811391cb8b6192a72a0eda3fda3c2f52440113a2a8907e8df3b9366ae1672e20831193c9896390a5280cd83dd83e2d50460311a0aa927c8ff1bb3468e3652c228d1f9dc7876d9eab2602d633d630235e480d1faea49c7281ffb53a66ed6b222c8f1d9fc5856f9ca92400d431d432215c4a0f1daca69e7083fdb73864ef69202e891b99c383699aaf2206d237d234275a4c091baaa0987685fbb13e62e96f26288b199bc1816b98ad2004d035d03625584e0b19a8a29a7487f9b33c60eb6d242a851795cf8f6596a32e0ade3bde382b56400517a6ac947a89f7bd326ee5632a24871597cd8d6794a12c08dc39dc3a2954420715a4ae96788bf5bf306ce7612826811391cb8b6192a72a0eda3fda3c2f52440113a2a8907e8df3b9366ae1672e20831193c9896390a5280cd83dd83e2d50460311a0aa927c8ff1bb3468e3652c228d1f9dc7876d9eab2602d633d630235e480d1faea49c7281ffb53a66ed6b222c8f1d9fc5856f9ca92400d431d432215c4a0f1daca69e7083fdb73864ef69202e891b99c383699aaf2206d237d234275a4c091baaa0987685fbb13e62e96f26288b199bc1816b98ad2004d035d03625584e0b19a8a29a7487f9b33c60eb6d242a851795cf8f6596a32e0ade3bde382b56400517a6ac947a89f7bd326ee5632a24871597cd8d6794a12c08dc39dc3a2954420715a4ae96788bf5bf306ce7612826811391cb8b6192a72a0eda3fda3c2f52440113a2a8907e8df3b9366ae1672e20831193c9896390a5280cd83dd83e2d50460311a0aa927c8ff1bb3468e3652c228d1f9dc7876d9eab2602d633d630235e480d1faea49c7281ffb53a66ed6b222c8f1d9fc5856f9ca92400d431d432215c4a0f1daca69e7083fdb73864ef69202e891b99c383699aaf2206d237d234275a4c091baaa0987685fbb13e62e96f26288b199bc1816b98ad2004d035d03625584e0b19a8a29a7487f9b33c60eb6d242a851795cf8f6596a32e0ade3bde382b56400517a6ac947a89f7bd326ee5632a24871597cd8d6794a12c08dc39dc3a2954420715a4ae96788bf5bf306ce7612826811391cb8b6192a72a0eda3fda3c2f52440113a2a8907e8df3b9366ae1672e20831193c9896390a5280cd83dd83e2d50460311a0aa927c8ff1bb3468e3652c228d1f9dc7876d9eab2602d633d630235e480d1faea49c7281ffb53a66ed6b222c8f1d9fc5856f9ca92400d431d432215c4a0f1daca69e7083fdb73864ef69202e891b99c383699aaf2206d237d234275a4c091baaa0987685fbb13e62e96f26288b199bc1816b98ad2004d035d03625584e0b19a8a29a7487f9b33c60eb6d242a851795cf8f6596a32e0ade3bde382b56400517a6ac947a89f7bd326ee5632a24871597cd8d6794a12c08dc39dc3a2954420715a4ae96788bf5bf306ce7612826811391cb8b6192a72a0eda3fda3c2f52440113a2a8907e8df3b9366ae1672e20831193c9896390a5280cd83dd83e2d50460311a0aa927c8ff1bb3468e3652c228d1f9dc7876d9eab2602d633d630235e414750e157a80f2a838c097056a0bb62143b304f0d997cfb46857845874c1bbc7",
        "type": "nulldata"
      }
    },
    {
      "value": 499984.7465,
      "n": 1,
      "scriptPubKey": {
        "asm": "1 4686d2dd1ee8dd1827a9e181728a3728018e38b181035cd6a7952adb565b1919",
        "hex": "51204686d2dd1ee8dd1827a9e181728a3728018e38b181035cd6a7952adb565b1919",
        "reqSigs": 1,
        "type": "witness_v1_scripthash",
        "addresses": [
          "3QJmnh"
        ]
      }
    }
  ],
  "blockhash": "d7a7b9a6fa9b7eeca4ed3b292cd4c21f070551bfab2aaeca0619c41458c07723",
  "confirmations": 1,
  "time": 1764178593,
  "blocktime": 1764178593
}