{
  "hex": "010000000001011ebfbe5651ad5b4b05f91720eb087e42d0f5c28e6521f07f3a0a7465ef7a9cb90000000000feffffff02e021231b792d00002251207213578d44a24f54462b562ba5ff0350026cdb87546c36079f24dd4e5e838a5100e1f50500000000fdd5046a20272b35e001fc39973ebab28f34e6ea7cc5e874363e17c390d1eea7a7435ab43a4db004472fa21639f25c6e1e90277c00bbe8604887f51ee0ddd125fee4d1ae73caebf3670f823619d27c4e3eb0075c209bc84068a7d53ec0fdf105dec4f18e53eacbd3076fe25679b21c2e5ed0673c40fba82008c7b55ea09d9165bea491ee338aabb3274fc27659923c0e7ef0471c60db880028e7957e80bdb1459e84b1ce13aa8b93c7af2296b972dcee9e10a7fc803b68e0c807759e605d51a57e64512ef34a6b73e78f02b69952fccebe3087dca01b48c0e82755be407d71855e44710ed36a4b5387ef62d6f9329caede50e7bcc07b28a0884735de201d11e53e24116eb30a2b33a7cf42f6d912bc8efe70c79ce05b0880a86715fe003d31c51e04314e932a0b13472fa21639f25c6e1e90277c00bbe8604887f51ee0ddd125fee4d1ae73caebf3670f823619d27c4e3eb0075c209bc84068a7d53ec0fdf105dec4f18e53eacbd3076fe25679b21c2e5ed0673c40fba82008c7b55ea09d9165bea491ee338aabb3274fc27659923c0e7ef0471c60db880028e7957e80bdb1459e84b1ce13aa8b93c7af2296b972dcee9e10a7fc803b68e0c807759e605d51a57e64512ef34a6b73e78f02b69952fccebe3087dca01b48c0e82755be407d71855e44710ed36a4b5387ef62d6f9329caede50e7bcc07b28a0884735de201d11e53e24116eb30a2b33a7cf42f6d912bc8efe70c79ce05b0880a86715fe003d31c51e04314e932a0b13472fa21639f25c6e1e90277c00bbe8604887f51ee0ddd125fee4d1ae73caebf3670f823619d27c4e3eb0075c209bc84068a7d53ec0fdf105dec4f18e53eacbd3076fe25679b21c2e5ed0673c40fba82008c7b55ea09d9165bea491ee338aabb3274fc27659923c0e7ef0471c60db880028e7957e80bdb1459e84b1ce13aa8b93c7af2296b972dcee9e10a7fc803b68e0c807759e605d51a57e64512ef34a6b73e78f02b69952fccebe3087dca01b48c0e82755be407d71855e44710ed36a4b5387ef62d6f9329caede50e7bcc07b28a0884735de201d11e53e24116eb30a2b33a7cf42f6d912bc8efe70c79ce05b0880a86715fe003d31c51e04314e932a0b13472fa21639f25c6e1e90277c00bbe8604887f51ee0ddd125fee4d1ae73caebf3670f823619d27c4e3eb0075c209bc84068a7d53ec0fdf105dec4f18e53eacbd3076fe25679b21c2e5ed0673c40fba82008c7b55ea09d9165bea491ee338aabb3274fc27659923c0e7ef0471c60db880028e7957e80bdb1459e84b1ce13aa8b93c7af2296b972dcee9e10a7fc803b68e0c807759e605d51a57e64512ef34a6b73e78f02b69952fccebe3087dca01b48c0e82755be407d71855e44710ed36a4b5387ef62d6f9329caede50e7bcc07b28a0884735de201d11e53e24116eb30a2b33a7cf42f6d912bc8efe70c79ce05b0880a86715fe003d31c51e04314e932a0b13472fa21639f25c6e1e90277c00bbe8604887f51ee0ddd125fee4d1ae73caebf3670f823619d27c4e3eb0075c209bc84068a7d53ec0fdf105dec4f18e53eacbd3076fe25679b21c2e5ed0673c40fba82008c7b55ea09d9165bea491ee338aabb3274fc27659923c0e7ef0471c60db880028e7957e80bdb1459e84b1ce13aa8b93c7af2296b972dcee9e10a7fc803b68e04c0e1bd036e58635b11a897984d4dbf2a8fb885363f27ca4b82e8de52935fadd02fd750993d0f26c6cc394c00da1ce059c6fbf439054f41f0e90c9936543599aafee5cf79f824f54b90a7bbb58e654932cda847ee33add0efd1ac9e58032b7e9d5fd620b0b9ec915023c5c068446e0e7287109c764dd71397f4c9528d9c38d0abaa56692705144321db5aff696179469e0e3812109658ab6c9fbc50e65ab67d2d6baf79c6df157d64e1b6cce083e46542de35703fcb2380f026c07802e5885533a2963c46dfa0cf101aa99834b9fe27e872514c9fa85cb2eaef4931819d8af1ee4dedae9f93741f3f8dce3d0c91b41b4868dfda869f049471c3af85048ec00532e95a3944d434461afb12089b1acef1082a3775101d0a0e9c28f508bfd5e41114507a3fec992cf3dbc2e9825a660c066c667dc8c5eeef8035c9561706063ed890450409f7c5b584f433b2022f86036f9665baa21604a238c1730b4f2126da5ceddac1b1fecb9646d709b4fdc8afe9b1d0948c8fd26f1d8166325d99965cdc79f3c153f639617ec549a0663404bb3f5ed4e41bb170d18102ff202e552f611562da4c0a5eb7cbc500142d80e6f0b11f2fe7271713ee6f6fdc8696a69bf2bed9c95d352abdd6f01993cb9aca6c0113e2c8cdddaa6ff0ad1a11a3b260ec8fe92802d5b01b0d9c80b1d509b1dfabe44910c5f123e570585a46a35daa47a6dbf3269ac4e77b752ea73d408862c6403beccdb63061c69597b328ef9c52cfe5e71d6d7b0b309b0ce143d8cf67d218f59369c1147971cda061f5fc9b2da5dab3da000d46e7b6f037cd7498fe088a7721b780309ffcaea2e538164b84f962759344d82f92d5850833cd39f573e2ab4e38aeebfb847a4864e29e8d37454775940b0cd7784320fb245afa9290da3aaffab9a76dd077b43354080bfff2ebabe5c055bfd4c9f5bb126c9217684e227c1b97d0447f7529bf2da9e3834471d76aaf8a6e073e1461d18ae546c8684dca7f0904f9f90a9ba1158189cbdc1ed9ac853eae57fdc1b34691a1aa0c6f0b2314f0060133c34d38c679bb681b6a36291bf8239178e5193b6400afbb440d00daba19817d35c06e0cb33b97c4e8c009d060e3f04f854725d19ac01fb57769aa972437db45fc71559823e3196c104b49643cb9ca049f68740da86214b0ffefe5458e4130d87f4a273a95bcb7f8f742cc54a7afcbd6a89b5e4f9dea15d5bd350eaadbfaeab47a56592c4b9b088bb67d4a0f45b5fc73aa872012662f3e8e80925e185205269a856053775611250186b3f1e8d96f19cb5377522c4ad587b3c62767ff4afb8568d013ec917f3925e7e6a4197bd7cd8296a34940d3497cc483dde44ca36932a9ebc64e6a8f3dc9f48c3bd353d55fdb23ff3510968af493d23bc1ab982a9ae1d48e50024b6c11cc7b2a3a12fef58f25a4c1604188c4d37e2178e287e36a69a98f0a92834fc0355eca797c49dbf71c9394d2ef266492fbf97dab465ff6377199c34a2976873de1e6611ef42593f151e58387f09c6b72dd21d6f514805f7d8060cd45c5bb9d3525ff83a312fa319c5c3a58ddbcf958ee7141ab4c76321776bd69ce3d63694e0a3abbbd5a31fdaeb681b0fba9847dc74d02f04dca2ef6e6051926c8efa8b3aeec5d67f864d4493f3a2383ff6a269b9378a0bd4207fb4295a1e167e3b177a02872d6ba499c472316199224180873dbcf7f881dbaa391e96f00a5a1fc400b6c448a497d3516897c64baf8ca65a63963991b367f4805338e58c49d5b19f6b2fa74b29db735c8ad8839a4fe952bf5c643fe460e4b9c56bc18ef359874c5773e2515f23e525207e36513f82ce78c40ba0f2ef725fc962144c0ea41cbb4e011e3e99eb30834fca8ee3860922a3e51790cdcb041e546f36532e935381fd0c3202e39e2bc320086fdf4044129b31f8168a31a3d88833f865de29800ced1dda12e4e2647471e48f862b78ecdeb0956630475fd1b8d8afc98fa93787d005b6340b1060fc487e02eebf4545f403198c5a3fd93d7e867bc02732da16bcd4a3fdde8deb76a72839acf38661054972b2d9274f43c325155b74e55b163f6371cc21b6e731ade34ebcd27cdc79c421a4827124c8dfdd22f5966f8a733b1ffc3bdbf718781d833f3b71e7669792acb86e1394c997c1e2c54a21df37b70add22d91cca0a232c5cd63f37b7c01fd3bae9b39b89f33a598007cdbf41f3d41cc22385ace80ae0c37670110987ea4b4dec404a6a949549e3dd4d0a4eca69814b445914509f53cd389b06b2951e8186a0821927fd407b922f5ef0490e1e177e20b42ccbfe7033aa6f5da8d850194d9d2233040539b422eaea30968132eaa350b4e562ec769834da180b353b232f6b55d8993cc3e5677b2681a669443c2d562ec70a3b7caaca0f44771db70c2724ae954b2d8437194f2e331ab53c8c3d6f167f038ee2c0596342f3e166a392abda64ad1232ae285ba5d4422068b569aac3586556d45d2041b49661e308d6e4b7b9333c59c037b0748a40b3fe12a8c7e532a89b0a41d5f85299c6d387550de53a75530091f8c63040389da49186b3ac4ba33fd8aabe14336997ffcbf139bd6afcd4f5ca888cfc646329525d6647ca114d07d6b14ae5d380dde03f3fdac3f8427cb9eedf993f89e4a4a52338a38a435268610153065c692dce270b5e64cde8eab9f95fea55dc5a78693ee0a2e05791a041cc60f34fd71daa00c510eb1526b5a73dd069d71cce15ef5becbb4c3be33948b1cdfba85d22c4b98791413cdfed3392e4ec6840c4d885da34f4a56d635cf735442519d88a5857bd81e51cec7b913e638ee9a4e25c1d30e0e227d70e0226e55664274bcd3de3fd7086dcde0a2975c3c10a3b93a0c72bd6f3834fd1171c2f9eba8f3e31c1b9b869db1af061381e461da1fe2d462d4534b98b1abfac6ec22e665576aa32e4bbb27f5b829768e4764860af18a43a2ce892e9f2df6e1bae500d98eb27cd5a4e2745d304f23a124ff1064a61ba20aa269ea6f10e6b4a5221266a5edf7ee5ad9601319e8e0e60af9c61b03a55d9282619913143b5d70c4d1751826b4ed227598aa595f8bfe40aec8e435c848a7c8fdc826921ca90d1dc123f607736ae9b6a27d4308780c53d40aed183f01e64ffc59f52b178722dff70712ee3bf155fdf2388ac4c2a0b87df5fc4533f02a1192606e6740159a6fcd82a0c05017de9b59c1855a5f10b9b7bc3fd99d2942757a7bf59626c13b93011b04f39343a022cf09d71235f5c984c5a243bfb6c6b99925f35c098bfbdcee57186d4dd6d08cc57d959ef95c90e4e94ba688197a7b410b3494260838a0a143c2a22710e5cb127cbd521b284d4b41004232c394c5f6276798d8e98f2fd013d618e9aa7a9b2c9cdd9e2e5f400385c68707678a6d4e3e6e71112151e305a5b6264676d788687afb7b8bdccdae1000000000000000000000000000000000000000e1c283d01fd210500bb169e3857107998ec8868404693273e996b54b319e463b3e158c1800bc75dbe865463f4abf7e9f888e00515ff19c03e8c79d0ba9127bbcc0fbc36a6193a27b31c66e50067c15479eb9ce4ff577f2518b0153e02abf51a3cbe616c0c759118c47b5a27dc68ee5bc109d35418fea0dade080391ef2bd2d15af9176311447ed6c5a02b8ac1082e9d0515711739bc33c8cc72c3c66b6d52da71d08a6f0dbd1b2a62aa61d7949cec49822a0af157880f6690519688f721283430c050e8714b76d12cb76d6316e1a0abc0a4dfa3fb7d2ef0b690fe5eff4e9bd874f29aa885f4f5265eba6ea547a9d3d176ed764c4258b3fe58e01a7af72a5adc9aaa062d5eaec81045005ef4ce01429c4d85f94ec09cf96be7f15c3546aeb10c840d304474133f328891ca40a324c0be1a626f289dbc636b3c43373cf14a285b1956d05a26830b0f7f427c897ceb30d4ee78750e62ba10abfc8ae243b795b38caf54d7195f2a69e6bbc6e8dcf5c5df8181ee332578a2f8ee707998fd4c7c6956190d992d7915b215239c10f5be61b67d9c29364ade17e11a79f3861892b3fd0517cbb6a0baf74da0975d49bf37f5e976d453109d3440db29b6c36e7d0eb97be290afa9cb4e9c19b0326543208cd0f73062b13f1d25106083edc5bfe3fca47398c3a8075bfd3ca7371a124c752ece469f3785f2b9549c0f802bf91650f355023a0cbe2e76927e95427cdf6f03966d6d91fc8d165684e7428986a68d90af4b264dd3dff541ecc6af67b053b598a6ea59cba2a79c046ff33575ebf47cf5b0d9eb777c032d3a8c4e871554dc934029620ad9fe29c87672556f6bab8328e6b74b91db8bb36f8579f9f2371b78b77180fbd9fb757b2aa35227c7f236ccfe99aa24e6b691229e689428d7b8a747e4f7e477f48e45d8029a949f2c32b10a2bb32ac0a0653b6f1290727291cfad3bf54b9195b280783d9a3f47ba3ca470e530f606ee45b88da132ef2eacdc84b946101414beeb98142afea16f21e4028f1cdcd6ac8f99171cd4ea6a189fba0941fc1beda91699132a01e4868ff20ac93179705971585215a15c0d14bb0fcaf190e1cb11b868fa703888e5039637c76be18b0ba26b43735dfba3ce23d25306d6ce53ce01332d99320eceeea4899cc148d8e9a44bbe2cb9a39037c9aa5fc1d162493006f2919f64cebbd802017b9d9b9c68a4b55c3977801751d5a21c01afd1452a00ea563ebe1793ead3b7f779bac03d54c2c4e54e1c3efcc6569477665e12f0ca01f30de9c71dc2ead046016282fe919fb7aba63d5c03c296f72c1a02482ca373231490299edca9e75184498a045d70d06446c24016c271d2f41203fc0f258a8be5e68456b77176f21a270bdd93256fa86d41bc3dd4e21ac4354d6b817f23d3e5733fd4c4f521c0aacd36d6affe72f521d5ad0324806bdb77918bd7c02892ce4a66934eb1bbc3dd2707c02c7164a671cc45b9d7177500c36596da3a09c6467be28204b8184db50941e91fd5509bbe6b93b7d11684b9bc75035435ea95e414b33d661c1dba085d9e13bf2ad5d79ef34cda5f0dd0e7d5c1cc18ee4fdaf1796b23fb4c1d24a7251d7130fa7569c341e20f61e0121864ec6a4cf66f1336a193cb85934d41a54bc129f3fe74e98e45eda8e3bd6eee12cf591dd1cb672f339a4c905f06fee0010c99c29cb7a0df12f6c639f920dec118388b843051c8632da32be491db669209b523e381112af6b3859060982d42b2ae7200957c341ac000cbf193dd55a80e85c6c98bb3f175a51373c7a691f6015a031bab47eb1a3d84626cf74b1cb3e7c102196a0bb92a027ebeec7817a2b1de7fd10ee973e866267f71cf5d85a65d75000000",
  "txid": "51c4710b738ff6bd00cc051293e3afb0ff08cf4c58f517f8bc9e8345df68efd1",
  "hash": "6abf78238e26206ced8aa62604adcff9605336ea810ec872b5c62a701c6b96e9",
  "size": 5085,
  "vsize": 2278,
  "version": 1,
  "locktime": 117,
  "vin": [
    {
      "txid": "b99c7aef65740a3a7ff021658ec2f5d0427e08eb2017f9054b5bad5156bebf1e",
      "vout": 0,
      "scriptSig": {
        "asm": "",
        "hex": ""
      },
      "txinwitness": [
        "93d0f26c6cc394c00da1ce059c6fbf439054f41f0e90c9936543599aafee5cf79f824f54b90a7bbb58e654932cda847ee33add0efd1ac9e58032b7e9d5fd620b0b9ec915023c5c068446e0e7287109c764dd71397f4c9528d9c38d0abaa56692705144321db5aff696179469e0e3812109658ab6c9fbc50e65ab67d2d6baf79c6df157d64e1b6cce083e46542de35703fcb2380f026c07802e5885533a2963c46dfa0cf101aa99834b9fe27e872514c9fa85cb2eaef4931819d8af1ee4dedae9f93741f3f8dce3d0c91b41b4868dfda869f049471c3af85048ec00532e95a3944d434461afb12089b1acef1082a3775101d0a0e9c28f508bfd5e41114507a3fec992cf3dbc2e9825a660c066c667dc8c5eeef8035c9561706063ed890450409f7c5b584f433b2022f86036f9665baa21604a238c1730b4f2126da5ceddac1b1fecb9646d709b4fdc8afe9b1d0948c8fd26f1d8166325d99965cdc79f3c153f639617ec549a0663404bb3f5ed4e41bb170d18102ff202e552f611562da4c0a5eb7cbc500142d80e6f0b11f2fe7271713ee6f6fdc8696a69bf2bed9c95d352abdd6f01993cb9aca6c0113e2c8cdddaa6ff0ad1a11a3b260ec8fe92802d5b01b0d9c80b1d509b1dfabe44910c5f123e570585a46a35daa47a6dbf3269ac4e77b752ea73d408862c6403beccdb63061c69597b328ef9c52cfe5e71d6d7b0b309b0ce143d8cf67d218f59369c1147971cda061f5fc9b2da5dab3da000d46e7b6f037cd7498fe088a7721b780309ffcaea2e538164b84f962759344d82f92d5850833cd39f573e2ab4e38aeebfb847a4864e29e8d37454775940b0cd7784320fb245afa9290da3aaffab9a76dd077b43354080bfff2ebabe5c055bfd4c9f5bb126c9217684e227c1b97d0447f7529bf2da9e3834471d76aaf8a6e073e1461d18ae546c8684dca7f0904f9f90a9ba1158189cbdc1ed9ac853eae57fdc1b34691a1aa0c6f0b2314f0060133c34d38c679bb681b6a36291bf8239178e5193b6400afbb440d00daba19817d35c06e0cb33b97c4e8c009d060e3f04f854725d19ac01fb57769aa972437db45fc71559823e3196c104b49643cb9ca049f68740da86214b0ffefe5458e4130d87f4a273a95bcb7f8f742cc54a7afcbd6a89b5e4f9dea15d5bd350eaadbfaeab47a56592c4b9b088bb67d4a0f45b5fc73aa872012662f3e8e80925e185205269a856053775611250186b3f1e8d96f19cb5377522c4ad587b3c62767ff4afb8568d013ec917f3925e7e6a4197bd7cd8296a34940d3497cc483dde44ca36932a9ebc64e6a8f3dc9f48c3bd353d55fdb23ff3510968af493d23bc1ab982a9ae1d48e50024b6c11cc7b2a3a12fef58f25a4c1604188c4d37e2178e287e36a69a98f0a92834fc0355eca797c49dbf71c9394d2ef266492fbf97dab465ff6377199c34a2976873de1e6611ef42593f151e58387f09c6b72dd21d6f514805f7d8060cd45c5bb9d3525ff83a312fa319c5c3a58ddbcf958ee7141ab4c76321776bd69ce3d63694e0a3abbbd5a31fdaeb681b0fba9847dc74d02f04dca2ef6e6051926c8efa8b3aeec5d67f864d4493f3a2383ff6a269b9378a0bd4207fb4295a1e167e3b177a02872d6ba499c472316199224180873dbcf7f881dbaa391e96f00a5a1fc400b6c448a497d3516897c64baf8ca65a63963991b367f4805338e58c49d5b19f6b2fa74b29db735c8ad8839a4fe952bf5c643fe460e4b9c56bc18ef359874c5773e2515f23e525207e36513f82ce78c40ba0f2ef725fc962144c0ea41cbb4e011e3e99eb30834fca8ee3860922a3e51790cdcb041e546f36532e935381fd0c3202e39e2bc320086fdf4044129b31f8168a31a3d88833f865de29800ced1dda12e4e2647471e48f862b78ecdeb0956630475fd1b8d8afc98fa93787d005b6340b1060fc487e02eebf4545f403198c5a3fd93d7e867bc02732da16bcd4a3fdde8deb76a72839acf38661054972b2d9274f43c325155b74e55b163f6371cc21b6e731ade34ebcd27cdc79c421a4827124c8dfdd22f5966f8a733b1ffc3bdbf718781d833f3b71e7669792acb86e1394c997c1e2c54a21df37b70add22d91cca0a232c5cd63f37b7c01fd3bae9b39b89f33a598007cdbf41f3d41cc22385ace80ae0c37670110987ea4b4dec404a6a949549e3dd4d0a4eca69814b445914509f53cd389b06b2951e8186a0821927fd407b922f5ef0490e1e177e20b42ccbfe7033aa6f5da8d850194d9d2233040539b422eaea30968132eaa350b4e562ec769834da180b353b232f6b55d8993cc3e5677b2681a669443c2d562ec70a3b7caaca0f44771db70c2724ae954b2d8437194f2e331ab53c8c3d6f167f038ee2c0596342f3e166a392abda64ad1232ae285ba5d4422068b569aac3586556d45d2041b49661e308d6e4b7b9333c59c037b0748a40b3fe12a8c7e532a89b0a41d5f85299c6d387550de53a75530091f8c63040389da49186b3ac4ba33fd8aabe14336997ffcbf139bd6afcd4f5ca888cfc646329525d6647ca114d07d6b14ae5d380dde03f3fdac3f8427cb9eedf993f89e4a4a52338a38a435268610153065c692dce270b5e64cde8eab9f95fea55dc5a78693ee0a2e05791a041cc60f34fd71daa00c510eb1526b5a73dd069d71cce15ef5becbb4c3be33948b1cdfba85d22c4b98791413cdfed3392e4ec6840c4d885da34f4a56d635cf735442519d88a5857bd81e51cec7b913e638ee9a4e25c1d30e0e227d70e0226e55664274bcd3de3fd7086dcde0a2975c3c10a3b93a0c72bd6f3834fd1171c2f9eba8f3e31c1b9b869db1af061381e461da1fe2d462d4534b98b1abfac6ec22e665576aa32e4bbb27f5b829768e4764860af18a43a2ce892e9f2df6e1bae500d98eb27cd5a4e2745d304f23a124ff1064a61ba20aa269ea6f10e6b4a5221266a5edf7ee5ad9601319e8e0e60af9c61b03a55d9282619913143b5d70c4d1751826b4ed227598aa595f8bfe40aec8e435c848a7c8fdc826921ca90d1dc123f607736ae9b6a27d4308780c53d40aed183f01e64ffc59f52b178722dff70712ee3bf155fdf2388ac4c2a0b87df5fc4533f02a1192606e6740159a6fcd82a0c05017de9b59c1855a5f10b9b7bc3fd99d2942757a7bf59626c13b93011b04f39343a022cf09d71235f5c984c5a243bfb6c6b99925f35c098bfbdcee57186d4dd6d08cc57d959ef95c90e4e94ba688197a7b410b3494260838a0a143c2a22710e5cb127cbd521b284d4b41004232c394c5f6276798d8e98f2fd013d618e9aa7a9b2c9cdd9e2e5f400385c68707678a6d4e3e6e71112151e305a5b6264676d788687afb7b8bdccdae1000000000000000000000000000000000000000e1c283d01",
        "00bb169e3857107998ec8868404693273e996b54b319e463b3e158c1800bc75dbe865463f4abf7e9f888e00515ff19c03e8c79d0ba9127bbcc0fbc36a6193a27b31c66e50067c15479eb9ce4ff577f2518b0153e02abf51a3cbe616c0c759118c47b5a27dc68ee5bc109d35418fea0dade080391ef2bd2d15af9176311447ed6c5a02b8ac1082e9d0515711739bc33c8cc72c3c66b6d52da71d08a6f0dbd1b2a62aa61d7949cec49822a0af157880f6690519688f721283430c050e8714b76d12cb76d6316e1a0abc0a4dfa3fb7d2ef0b690fe5eff4e9bd874f29aa885f4f5265eba6ea547a9d3d176ed764c4258b3fe58e01a7af72a5adc9aaa062d5eaec81045005ef4ce01429c4d85f94ec09cf96be7f15c3546aeb10c840d304474133f328891ca40a324c0be1a626f289dbc636b3c43373cf14a285b1956d05a26830b0f7f427c897ceb30d4ee78750e62ba10abfc8ae243b795b38caf54d7195f2a69e6bbc6e8dcf5c5df8181ee332578a2f8ee707998fd4c7c6956190d992d7915b215239c10f5be61b67d9c29364ade17e11a79f3861892b3fd0517cbb6a0baf74da0975d49bf37f5e976d453109d3440db29b6c36e7d0eb97be290afa9cb4e9c19b0326543208cd0f73062b13f1d25106083edc5bfe3fca47398c3a8075bfd3ca7371a124c752ece469f3785f2b9549c0f802bf91650f355023a0cbe2e76927e95427cdf6f03966d6d91fc8d165684e7428986a68d90af4b264dd3dff541ecc6af67b053b598a6ea59cba2a79c046ff33575ebf47cf5b0d9eb777c032d3a8c4e871554dc934029620ad9fe29c87672556f6bab8328e6b74b91db8bb36f8579f9f2371b78b77180fbd9fb757b2aa35227c7f236ccfe99aa24e6b691229e689428d7b8a747e4f7e477f48e45d8029a949f2c32b10a2bb32ac0a0653b6f1290727291cfad3bf54b9195b280783d9a3f47ba3ca470e530f606ee45b88da132ef2eacdc84b946101414beeb98142afea16f21e4028f1cdcd6ac8f99171cd4ea6a189fba0941fc1beda91699132a01e4868ff20ac93179705971585215a15c0d14bb0fcaf190e1cb11b868fa703888e5039637c76be18b0ba26b43735dfba3ce23d25306d6ce53ce01332d99320eceeea4899cc148d8e9a44bbe2cb9a39037c9aa5fc1d162493006f2919f64cebbd802017b9d9b9c68a4b55c3977801751d5a21c01afd1452a00ea563ebe1793ead3b7f779bac03d54c2c4e54e1c3efcc6569477665e12f0ca01f30de9c71dc2ead046016282fe919fb7aba63d5c03c296f72c1a02482ca373231490299edca9e75184498a045d70d06446c24016c271d2f41203fc0f258a8be5e68456b77176f21a270bdd93256fa86d41bc3dd4e21ac4354d6b817f23d3e5733fd4c4f521c0aacd36d6affe72f521d5ad0324806bdb77918bd7c02892ce4a66934eb1bbc3dd2707c02c7164a671cc45b9d7177500c36596da3a09c6467be28204b8184db50941e91fd5509bbe6b93b7d11684b9bc75035435ea95e414b33d661c1dba085d9e13bf2ad5d79ef34cda5f0dd0e7d5c1cc18ee4fdaf1796b23fb4c1d24a7251d7130fa7569c341e20f61e0121864ec6a4cf66f1336a193cb85934d41a54bc129f3fe74e98e45eda8e3bd6eee12cf591dd1cb672f339a4c905f06fee0010c99c29cb7a0df12f6c639f920dec118388b843051c8632da32be491db669209b523e381112af6b3859060982d42b2ae7200957c341ac000cbf193dd55a80e85c6c98bb3f175a51373c7a691f6015a031bab47eb1a3d84626cf74b1cb3e7c102196a0bb92a027ebeec7817a2b1de7fd10ee973e866267f71cf5d85a65d"
      ],
      "sequence": 4294967294
    }
  ],
  "vout": [
    {
      "value": 499981.6958,
      "n": 0,
      "scriptPubKey": {
        "asm": "1 7213578d44a24f54462b562ba5ff0350026cdb87546c36079f24dd4e5e838a51",
        "hex": "51207213578d44a24f54462b562ba5ff0350026cdb87546c36079f24dd4e5e838a51",
        "reqSigs": 1,
        "type": "witness_v1_scripthash",
        "addresses": [
          "3QJmnh"
        ]
      }
    },
    {
      "value": 1.0,
      "n": 1,
      "scriptPubKey": {
        "asm": "OP_RETURN 272b35e001fc39973ebab28f34e6ea7cc5e874363e17c390d1eea7a7435ab43a 472fa21639f25c6e1e90277c00bbe8604887f51ee0ddd125fee4d1ae73caebf3670f823619d27c4e3eb0075c209bc84068a7d53ec0fdf105dec4f18e53eacbd3076fe25679b21c2e5ed0673c40fba82008c7b55ea09d9165bea491ee338aabb3274fc27659923c0e7ef0471c60db880028e7957e80bdb1459e84b1ce13aa8b93c7af2296b972dcee9e10a7fc803b68e0c807759e605d51a57e64512ef34a6b73e78f02b69952fccebe3087dca01b48c0e82755be407d71855e44710ed36a4b5387ef62d6f9329caede50e7bcc07b28a0884735de201d11e53e24116eb30a2b33a7cf42f6d912bc8efe70c79ce05b0880a86715fe003d31c51e04314e932a0b13472fa21639f25c6e1e90277c00bbe8604887f51ee0ddd125fee4d1ae73caebf3670f823619d27c4e3eb0075c209bc84068a7d53ec0fdf105dec4f18e53eacbd3076fe25679b21c2e5ed0673c40fba82008c7b55ea09d9165bea491ee338aabb3274fc27659923c0e7ef0471c60db880028e7957e80bdb1459e84b1ce13aa8b93c7af2296b972dcee9e10a7fc803b68e0c807759e605d51a57e64512ef34a6b73e78f02b69952fccebe3087dca01b48c0e82755be407d71855e44710ed36a4b5387ef62d6f9329caede50e7bcc07b28a0884735de201d11e53e24116eb30a2b33a7cf42f6d912bc8efe70c79ce05b0880a86715fe003d31c51e04314e932a0b13472fa21639f25c6e1e90277c00bbe8604887f51ee0ddd125fee4d1ae73caebf3670f823619d27c4e3eb0075c209bc84068a7d53ec0fdf105dec4f18e53eacbd3076fe25679b21c2e5ed0673c40fba82008c7b55ea09d9165bea491ee338aabb3274fc27659923c0e7ef0471c60db880028e7957e80bdb1459e84b1ce13aa8b93c7af2296b972dcee9e10a7fc803b68e0c807759e605d51a57e64512ef34a6b73e78f02b69952fccebe3087dca01b48c0e82755be407d71855e44710ed36a4b5387ef62d6f9329caede50e7bcc07b28a0884735de201d11e53e24116eb30a2b33a7cf42f6d912bc8efe70c79ce05b0880a86715fe003d31c51e04314e932a0b13472fa21639f25c6e1e90277c00bbe8604887f51ee0ddd125fee4d1ae73caebf3670f823619d27c4e3eb0075c209bc84068a7d53ec0fdf105dec4f18e53eacbd3076fe25679b21c2e5ed0673c40fba82008c7b55ea09d9165bea491ee338aabb3274fc27659923c0e7ef0471c60db880028e7957e80bdb1459e84b1ce13aa8b93c7af2296b972dcee9e10a7fc803b68e0c807759e605d51a57e64512ef34a6b73e78f02b69952fccebe3087dca01b48c0e82755be407d71855e44710ed36a4b5387ef62d6f9329caede50e7bcc07b28a0884735de201d11e53e24116eb30a2b33a7cf42f6d912bc8efe70c79ce05b0880a86715fe003d31c51e04314e932a0b13472fa21639f25c6e1e90277c00bbe8604887f51ee0ddd125fee4d1ae73caebf3670f823619d27c4e3eb0075c209bc84068a7d53ec0fdf105dec4f18e53eacbd3076fe25679b21c2e5ed0673c40fba82008c7b55ea09d9165bea491ee338aabb3274fc27659923c0e7ef0471c60db880028e7957e80bdb1459e84b1ce13aa8b93c7af2296b972dcee9e10a7fc803b68e04c0e1bd036e58635b11a897984d4dbf2a8fb885363f27ca4b82e8de52935fadd",
        "hex": "6a20272b35e001fc39973ebab28f34e6ea7cc5e874363e17c390d1eea7a7435ab43a4db004472fa21639f25c6e1e90277c00bbe8604887f51ee0ddd125fee4d1ae73caebf3670f823619d27c4e3eb0075c209bc84068a7d53ec0fdf105dec4f18e53eacbd3076fe25679b21c2e5ed0673c40fba82008c7b55ea09d9165bea491ee338aabb3274fc27659923c0e7ef0471c60db880028e7957e80bdb1459e84b1ce13aa8b93c7af2296b972dcee9e10a7fc803b68e0c807759e605d51a57e64512ef34a6b73e78f02b69952fccebe3087dca01b48c0e82755be407d71855e44710ed36a4b5387ef62d6f9329caede50e7bcc07b28a0884735de201d11e53e24116eb30a2b33a7cf42f6d912bc8efe70c79ce05b0880a86715fe003d31c51e04314e932a0b13472fa21639f25c6e1e90277c00bbe8604887f51ee0ddd125fee4d1ae73caebf3670f823619d27c4e3eb0075c209bc84068a7d53ec0fdf105dec4f18e53eacbd3076fe25679b21c2e5ed0673c40fba82008c7b55ea09d9165bea491ee338aabb3274fc27659923c0e7ef0471c60db880028e7957e80bdb1459e84b1ce13aa8b93c7af2296b972dcee9e10a7fc803b68e0c807759e605d51a57e64512ef34a6b73e78f02b69952fccebe3087dca01b48c0e82755be407d71855e44710ed36a4b5387ef62d6f9329caede50e7bcc07b28a0884735de201d11e53e24116eb30a2b33a7cf42f6d912bc8efe70c79ce05b0880a86715fe003d31c51e04314e932a0b13472fa21639f25c6e1e90277c00bbe8604887f51ee0ddd125fee4d1ae73caebf3670f823619d27c4e3eb0075c209bc84068a7d53ec0fdf105dec4f18e53eacbd3076fe25679b21c2e5ed0673c40fba82008c7b55ea09d9165bea491ee338aabb3274fc27659923c0e7ef0471c60db880028e7957e80bdb1459e84b1ce13aa8b93c7af2296b972dcee9e10a7fc803b68e0c807759e605d51a57e64512ef34a6b73e78f02b69952fccebe3087dca01b48c0e82755be407d71855e44710ed36a4b5387ef62d6f9329caede50e7bcc07b28a0884735de201d11e53e24116eb30a2b33a7cf42f6d912bc8efe70c79ce05b0880a86715fe003d31c51e04314e932a0b13472fa21639f25c6e1e90277c00bbe8604887f51ee0ddd125fee4d1ae73caebf3670f823619d27c4e3eb0075c209bc84068a7d53ec0fdf105dec4f18e53eacbd3076fe25679b21c2e5ed0673c40fba82008c7b55ea09d9165bea491ee338aabb3274fc27659923c0e7ef0471c60db880028e7957e80bdb1459e84b1ce13aa8b93c7af2296b972dcee9e10a7fc803b68e0c807759e605d51a57e64512ef34a6b73e78f02b69952fccebe3087dca01b48c0e82755be407d71855e44710ed36a4b5387ef62d6f9329caede50e7bcc07b28a0884735de201d11e53e24116eb30a2b33a7cf42f6d912bc8efe70c79ce05b0880a86715fe003d31c51e04314e932a0b13472fa21639f25c6e1e90277c00bbe8604887f51ee0ddd125fee4d1ae73caebf3670f823619d27c4e3eb0075c209bc84068a7d53ec0fdf105dec4f18e53eacbd3076fe25679b21c2e5ed0673c40fba82008c7b55ea09d9165bea491ee338aabb3274fc27659923c0e7ef0471c60db880028e7957e80bdb1459e84b1ce13aa8b93c7af2296b972dcee9e10a7fc803b68e04c0e1bd036e58635b11a897984d4dbf2a8fb885363f27ca4b82e8de52935fadd",
        "type": "nulldata"
      }
    }
  ],
  "blockhash": "443ef5589806c3570db60b1178f56898637f167918ce0f0236a27ac7d0512dc1",
  "confirmations": 1,
  "time": 1764179461,
  "blocktime": 1764179461
}