{
  "hex": "01000000000101189af8f5ccc3615489e4819d5edd8d8b1ee896b37683fecb3ae53b53694f09960100000000feffffff0200e1f50500000000fdd5046a20fafd2a341ea1774836cb399393948166fece0ff74a2777b8eeaf78284a56f4ce4db004be344d6c16c6ef0238e8f7323ad048a012a15886931824813352bd042d6e66899e146d4c36e6cf2218c8d7121af06880328178a6b33804a113729d240d4e46a9fe740d2c5686af4278a8b7727a9008e052e118c6d35864c17312fd446d2e26c9de542d0c76a68f62588897525ab028c072c138e6f37844e15332dd644d0e06e93eb4cdec96466f82b86877b2ba50c8209221d8061398a401b3d23d84adeee6091e94edccb6664fa2984857929a70e800b201f82633b8842193f21da48dcec6297ef48dacd6062fc2f82837f2fa108860d261984653d8e441f3927dc4edaea6495ed4ad8cf6260fe2d80817d2da30a840f241b86673f8c461d3b25de4cd8e8669be344d6c16c6ef0238e8f7323ad048a012a15886931824813352bd042d6e66899e146d4c36e6cf2218c8d7121af06880328178a6b33804a113729d240d4e46a9fe740d2c5686af4278a8b7727a9008e052e118c6d35864c17312fd446d2e26c9de542d0c76a68f62588897525ab028c072c138e6f37844e15332dd644d0e06e93eb4cdec96466f82b86877b2ba50c8209221d8061398a401b3d23d84adeee6091e94edccb6664fa2984857929a70e800b201f82633b8842193f21da48dcec6297ef48dacd6062fc2f82837f2fa108860d261984653d8e441f3927dc4edaea6495ed4ad8cf6260fe2d80817d2da30a840f241b86673f8c461d3b25de4cd8e8669be344d6c16c6ef0238e8f7323ad048a012a15886931824813352bd042d6e66899e146d4c36e6cf2218c8d7121af06880328178a6b33804a113729d240d4e46a9fe740d2c5686af4278a8b7727a9008e052e118c6d35864c17312fd446d2e26c9de542d0c76a68f62588897525ab028c072c138e6f37844e15332dd644d0e06e93eb4cdec96466f82b86877b2ba50c8209221d8061398a401b3d23d84adeee6091e94edccb6664fa2984857929a70e800b201f82633b8842193f21da48dcec6297ef48dacd6062fc2f82837f2fa108860d261984653d8e441f3927dc4edaea6495ed4ad8cf6260fe2d80817d2da30a840f241b86673f8c461d3b25de4cd8e8669be344d6c16c6ef0238e8f7323ad048a012a15886931824813352bd042d6e66899e146d4c36e6cf2218c8d7121af06880328178a6b33804a113729d240d4e46a9fe740d2c5686af4278a8b7727a9008e052e118c6d35864c17312fd446d2e26c9de542d0c76a68f62588897525ab028c072c138e6f37844e15332dd644d0e06e93eb4cdec96466f82b86877b2ba50c8209221d8061398a401b3d23d84adeee6091e94edccb6664fa2984857929a70e800b201f82633b8842193f21da48dcec6297ef48dacd6062fc2f82837f2fa108860d261984653d8e441f3927dc4edaea6495ed4ad8cf6260fe2d80817d2da30a840f241b86673f8c461d3b25de4cd8e8669be344d6c16c6ef0238e8f7323ad048a012a15886931824813352bd042d6e66899e146d4c36e6cf2218c8d7121af06880328178a6b33804a113729d240d4e46a9fe740d2c5686af4278a8b7727a9008e052e118c6d35864c17312fd446d2e26c9de542d0c76a68f62588897525ab028c072c138e6f37844e15332dd644d0e06e93eb4cdec96466f82b86877b2ba50c820065ac90b1208d22610a6105746a8106609c7e0ff6b6b8fa41c6d96c7c65e97d4c0cc030f792d000022512098183cbfd5ce23421ea3dc1503341f11486205ef1fb712e2dc8e515d9aef0d7d02fd7509b3af569c79b72d86a9c278db801e99eae79b59eaa88a8e914f3d8fa708ef2046321adfa4292a6170c1cb3f94fadb3efb6ebb65152818c25a5e6fe26ad8f5cd2dcfe1b740a6c75a2b0d0be0d05ef9fac95694401100d0396506996749c27f6306849ad0d78c8a8ae1ccceafd1f5d0b8858c77aa28edd32fde65f9c071165210e71d7be2319a28486e48509de500ce0c4bbeb4001965a98273d290760d10bbe58766ad342551c63bdf880fbe6dc41d79160d40c67a4ffd8b62fc9c5ad7c931d45e136b65265f598e30ae684b2393ba1ef08c559422f6898170c832ee18ffd9be10aeab24c2d45a1ae47737532669b2dff7120a4c6118fb8efcb216c23b3a9cd6ab52dc8c56d1f1b993166a898cdd0a5b668faceb91a2d834bec7a455292b75cc54983b7a85f7d533b481188f5a0020d87222f7266cd1c2a0294dfaeae826f9a1019a474402a72be84e12a092c0520bf4755f90ae21744db7e80bb48b2d7d404605f3e003311fa0b14007c923d757d174bc147b3034600d1deb201e8260943f04bb21b4154f0df69803d7f241a898224e30d163562037bae98c7d47c25c601a2d16baeee68201066867cf9aa8cf3fa034b906b73c008c76f7ca99730bc3221c9033b86617293524b6f321254f74b7be2df4cf8e3ff456239cea985fa370748adf34f0c15321f22b194dd2f2ac4e7d914f2a5d785c2ea48ebddecda259238903473cc88894001d1a52591aaa3a6ed4dfb9eda3de3bd0d664840f5b7bfc02204cd362baeb68c6048a2d34a6bdb4d54aaaa4cf307e045bf9a9845194ccd9bc8bd6bb4b5b01055fff73e04d047c4f5e67317a4984635f0024af3913e2bc313660e1a2ca9e6c61c898f8589565d7a7ef7a0e48cdf1879bd3dfb9dde40cd874cff222d95bd31b1a6009ba94207e4e6f22b6d5afcd41f56e9be72f648d49d51c6b9970c01b6376530c739858c6afc599ef6c3fd9499232f75764c5b2913d849b62eff774ce3a2ac041da26860e65bfc4188f6f8eb9fea34e5a25d10afacd6b8330795f44a43db28e689d26325fe7c6cda0caff4fdcc4bfe3c0ff6258180ca691ef670bd0654671096bd7daa036516755e441ddca0d9ec80dda704057e84b1df0d5cff503c66040869187272f05ae411d0344b72a427b2cca98fa2741405aec7094c090ab442175b2139a57f8405e578d17196def1697c8cc4d49fb1297d4918cb62ade3d4bd4f36e3084d4b0b31535926ef284e530dfb8a4f548871324c52d81373ee16a0b2fa54223940f6e34800174d6a90b51d3419eff232e9e7f195cf1818d58a64a92e30cc6615206c76defaa03fed75c1d2d089ac1057525bce319cdf617a36061e95adb4713af23ad3a450aa8b9dbcbb033073a3642d3f413b6cff284f5d69cb648fc360efd0061c0f82bb81149ebc7fb8d8202cbd4ba7f9df359c5a0da2984237bd12e4e04bb2f2fd02dfc0537e15c843b72c2bb19e2f30c51f6ff79a6e4c1ec104a5d082fa73e288c142b3eb604697d986cfd35b38999d6989e6469953cb5c7bbc90236e633c55b954d0cccfc76080593281329c615decfd705e6fa2ac72583f918b20faba69c0069741383d7bafe0feeb745a0197c671813f9d40708b451282ed8ccf5738c4694f9dd84d55a6c1c8ac0b2a9bde5ecc8eca2cd9043efff9ef471349340d3b9186c9f748e20a04e1c462b962e5b6135a82df6db6c7ace43d29242b2af1633792b4335e34a602a64e565a1a738fdfbef8860c6d203c99136044187994812897a75d1ea0a7c0030bd8045cfb8705d4f69f20233dc31b5dc6d599151e258fdb015b440606b69f800cb5c564baed42a2f6452aaa38163a04b7f53319991f0fed7498ed95741396908c8db717b412d7f3bd6d375f822193a27ca59336135193e877b4e3937d0a496ec5eff603c5702cd908c6f4a6d0e51bb8360f5009af2fa20d1f2001c298a0ec538082df0a0a19b7f267cd15ae5b7a34cf4fbff37d8d3077dc4330e173c16c24a16e120361360609f6d7a0dfe5a2d3d340ae2916afb4f899595a56c5c5aabdb506bad11d2c1b21d3a4c66152b488359e8ac5f5651d3e1c73bca952cadd786f833fe50255dd362e57ed1ec8992f81d5771d78e3288981e1e469a6bf4f5395a5266c9a9570f39bd760fe4a79a10e88c267d3d3c415ae21cbae63eb9a5eb644bda0610fbccd47a7f65f1c770b61b8fb420b30052d5624f37819602c5d16486e1adce135e2d350bb2c79a1170104d9f30afea4daf2fcac1e4e23b393620d31680062a05f420bf20713cb8862dca3fb4a61026ebe8951d3dee8a23d081d9dc28e4fc3b5e503cb661fe52ffbc779cc5679fb3b558485d6b0c99912b15f8beac44d844a774a9d4bffd78a70948241d815ed6d96c303819f1df8259728179f97e39fe4d5acdd6073838caad2586e0547ee3c026f8ba3e92774777c307de872454122a624574419dbfee07b7dcfbc7e5f64e90436076544203d5fc172201e9395320fc91728635239a9f094df1c4bb4c59a7fe404345a30c57819615669edf6319b85fc9af5f7a1fa3a80d037628a8214c71dee7b25e490116fe290883da6fb858d3a1bdf7ee74816b29a01fb234da5f00d88aaca25e43f47dd1fe14a702367608e67861abdaad8e240be70d1477475193c6592f96fc306ed8d2772182bcc92b9658bd05cc56a3e28380c1476aabfa551058c1fb4317509c2aac714c1a22ed5c10c9f980fe70a31a44019c3e4a1e414ace30772ddf291451203d031136c118e84586341d76851f4270a7fc0c7875393fca51854d46e0cf15718dabd27f3f84fba5fd5f00b9b9c68c47f0adda9309aedb6459ed59e48c3b9e7082ab8523d0f69bd032d13c1f14b6b5912166dca986c30115465aaa164899ebdc46278e9865470fcc24f7233ebb8faddba6005f9d6fbe43340d05b2822fe98e6158ebb4f84155c53256a0b5788ee770aa35981351e6403ff30c2cac674dd20f2aff63c8bf4b915f07bbdf8e62e43320f759f82474293d3778be6f2ef5380352d40c91f48ac28e364b2c6e01c6364fa14fba17568065afbc0dac22a184548b0b09ae645e12e29f27af592a9e101dd96b962a539af322828a9d32f723fc33b1c59dce0cca42b76f76b726b432ef1396b039ef958f2103d5d806b34a3b23ce0d2167de2039beb8d201115f98746af85780b390505a5891aaa522c6830be96d20e08ba17a59b2eeb2547ca2c32d0031042ff13c6bdde5f083915bff3cbad043e01c57c49a3086244338fdc273ee3eb242db01b73654d1a000d6868670995fc1b42f50143b4451556368818b8ca4aac4c8c9ce25293233383e5a6b6c71739ec8d9dbe5fc1416181c2728484c5f64a4aac9d9f1f7fd0817232836454650545d636e767a86a4abb6bcc0c7ee0000000000000000000f20314701fd2105008253eab95810fb39e0a1d6489776ce619c275db9ff924b0ddf0848eb3bf3c57afd68e667be25fc4d915dbc50b7063cccdfe46ffea1c7e4324a49439ef2fe9f66e3910a9e86e443b4e5377c3f340a4bf19358fe5bf3181768135b5908ec2a8c4cf3dd7b8630c5ec57cbe3c240da235d60a60f0c2b093d013238c34ca3f9429225b2de1842a968cc89d439d1d68f02a5149f8a750665e638c2369194facd5257ef8d582ceaa9ca2f19a031a49746456017f0c05b03db806f79e287303c3559c93900bdc9554c09bb99e80d661d9c09240e3c44c00def4aa10fb26e85dc9fe8d3ca2044f104ad60e70c82bce7c59e55c0f35d8c24e9abd1d7b19b5734bbfbdfbf40921834dcd9a676c67e038f9fef16398467be7a07a85294fd2d292664a1689b361ea1ac2a631b262fd31eb2e47d6bded44e0f9e8612b14fb1c11e280481da2b8ab702f16cf20f2b2e71c7362ffae86e411d2a326e7c538c4c41e221179b8337b80b51993b9ff8af9e92bc68197a497270df60cfba76dda2a7e37e61f102551f0338be825296f273d1bb2d65a0d87c2dd472ba8dd4ec14540064c38f5a8f36ebe7bf59909edbd6ae07d6787b56bf690f288e381075ee61da421f6c61d7fafbb80ac4b3df5656e966d748e6073d24467be2ab7d21691ddcb55b78d87af03b21a7023f36a8bc302831214a75154b89953157f5df630d6bd01c89f94ed088ed1c041b09e1124844dbe9b511580af3cabb4cf295fc30f7aed642008d24631e798e003da8d1638a842fa212c1fa8dbb429a3e07e6f2f71b73e8b4408122d204e935f2d6f6bb84d78695189025422c96c39b78abc7efac6328c3e0da2052bd4e67c07fd6703a77dfb04bb2c106ab2b0107fe439498dbecabfe7b9e7d62dae7d1c1fae9355bad064dd34d9c9a059b7ca3739e63f8e4cb99622b72978bbc7e40b122e1b284b0ca5f6f0b790ef89ac25030743d20f6f0b6758f7dbda49ea7f030e05a9f066bd3c31b1d7c05643fd6d8f0cf2341d5c48350e1f4474dccb3ca558541bac06a5f0005a7f8e26bc6a7daefd64e665cf368dae6f6a74a593bea1c7dbf73ee18e12bcb8a440a3486f3f77b42ae07657b0d821c7814c0ebbdaf08a1f93315ab8b72e5080eb4230241d43b3609f488190f9783898b396394538d0822ea06f5957edaf99160b28ff7d5e29f5b2e666e48250ed2eabe805ca6b9f6bb8bf15a0d22109fbcdf9f2aab4fc128b539c1b77a5bdaefec170fd926a73f5bde0a75e65f7fbf5d4e97e86345698dae65ca719f3d4068c2ae8ff6265ef9fe0a5817b4f48635a351d415dbc29cd59a4773c16c8d3ea4c20c9df44eb0cf8b2fc7199c7266b668dd913cad65ff8d63e210104ab4a1694c8ff59edcdaebc5ba0f4875a7f94002696314be931bf42039cae38d84b916e75938186d0f613610b85da0fa8b99cf06a3588a4cb2f89d13f05b8e0e0179280e16a017cf52734d0bb8685942ffadfcaf14a91b6ac99d66afb4d41f3214be89f4e31c8865a955b438ee642fecc5985344a4925082b9c4ab871882e76a3bd24a98d81b689acf2e2f8c081e0263c1ca242949b2886335bf9479adc4e5151614bef7ea8f27e76bc952dcf255e43933c10728a55455e91a21ef0c7971310eb5c26c98dfd9b2628b4e7aef22f096897a210ba9e9a8a9ec763b0b0609e29e14396fc690fd2aab3255072d4629f1437634fab89a60d021fbce8fd3c057fa8c3f5ba69a68b5663c92f3c5501f1a2b101a064a361d2b3d7595d0d32ec1b28926d6b7f4d8702703330fce9174a2584ec795136f756f2557ebacba2bd8bd6d398cd1eee393f215d3ea518414a8481d7055094463616a68836c4176000000",
  "txid": "5c41708bc58a2c55a7095b768b3bd5f23954a9a0b6f65d16ecfd2e7249b9c72a",
  "hash": "fbb916b7033593db05c34fbb1a08825dc4f581d506788d0dad88b34e6c945ab7",
  "size": 5085,
  "vsize": 2278,
  "version": 1,
  "locktime": 118,
  "vin": [
    {
      "txid": "96094f69533be53acbfe8376b396e81e8b8ddd5e9d81e4895461c3ccf5f89a18",
      "vout": 1,
      "scriptSig": {
        "asm": "",
        "hex": ""
      },
      "txinwitness": [
        "b3af569c79b72d86a9c278db801e99eae79b59eaa88a8e914f3d8fa708ef2046321adfa4292a6170c1cb3f94fadb3efb6ebb65152818c25a5e6fe26ad8f5cd2dcfe1b740a6c75a2b0d0be0d05ef9fac95694401100d0396506996749c27f6306849ad0d78c8a8ae1ccceafd1f5d0b8858c77aa28edd32fde65f9c071165210e71d7be2319a28486e48509de500ce0c4bbeb4001965a98273d290760d10bbe58766ad342551c63bdf880fbe6dc41d79160d40c67a4ffd8b62fc9c5ad7c931d45e136b65265f598e30ae684b2393ba1ef08c559422f6898170c832ee18ffd9be10aeab24c2d45a1ae47737532669b2dff7120a4c6118fb8efcb216c23b3a9cd6ab52dc8c56d1f1b993166a898cdd0a5b668faceb91a2d834bec7a455292b75cc54983b7a85f7d533b481188f5a0020d87222f7266cd1c2a0294dfaeae826f9a1019a474402a72be84e12a092c0520bf4755f90ae21744db7e80bb48b2d7d404605f3e003311fa0b14007c923d757d174bc147b3034600d1deb201e8260943f04bb21b4154f0df69803d7f241a898224e30d163562037bae98c7d47c25c601a2d16baeee68201066867cf9aa8cf3fa034b906b73c008c76f7ca99730bc3221c9033b86617293524b6f321254f74b7be2df4cf8e3ff456239cea985fa370748adf34f0c15321f22b194dd2f2ac4e7d914f2a5d785c2ea48ebddecda259238903473cc88894001d1a52591aaa3a6ed4dfb9eda3de3bd0d664840f5b7bfc02204cd362baeb68c6048a2d34a6bdb4d54aaaa4cf307e045bf9a9845194ccd9bc8bd6bb4b5b01055fff73e04d047c4f5e67317a4984635f0024af3913e2bc313660e1a2ca9e6c61c898f8589565d7a7ef7a0e48cdf1879bd3dfb9dde40cd874cff222d95bd31b1a6009ba94207e4e6f22b6d5afcd41f56e9be72f648d49d51c6b9970c01b6376530c739858c6afc599ef6c3fd9499232f75764c5b2913d849b62eff774ce3a2ac041da26860e65bfc4188f6f8eb9fea34e5a25d10afacd6b8330795f44a43db28e689d26325fe7c6cda0caff4fdcc4bfe3c0ff6258180ca691ef670bd0654671096bd7daa036516755e441ddca0d9ec80dda704057e84b1df0d5cff503c66040869187272f05ae411d0344b72a427b2cca98fa2741405aec7094c090ab442175b2139a57f8405e578d17196def1697c8cc4d49fb1297d4918cb62ade3d4bd4f36e3084d4b0b31535926ef284e530dfb8a4f548871324c52d81373ee16a0b2fa54223940f6e34800174d6a90b51d3419eff232e9e7f195cf1818d58a64a92e30cc6615206c76defaa03fed75c1d2d089ac1057525bce319cdf617a36061e95adb4713af23ad3a450aa8b9dbcbb033073a3642d3f413b6cff284f5d69cb648fc360efd0061c0f82bb81149ebc7fb8d8202cbd4ba7f9df359c5a0da2984237bd12e4e04bb2f2fd02dfc0537e15c843b72c2bb19e2f30c51f6ff79a6e4c1ec104a5d082fa73e288c142b3eb604697d986cfd35b38999d6989e6469953cb5c7bbc90236e633c55b954d0cccfc76080593281329c615decfd705e6fa2ac72583f918b20faba69c0069741383d7bafe0feeb745a0197c671813f9d40708b451282ed8ccf5738c4694f9dd84d55a6c1c8ac0b2a9bde5ecc8eca2cd9043efff9ef471349340d3b9186c9f748e20a04e1c462b962e5b6135a82df6db6c7ace43d29242b2af1633792b4335e34a602a64e565a1a738fdfbef8860c6d203c99136044187994812897a75d1ea0a7c0030bd8045cfb8705d4f69f20233dc31b5dc6d599151e258fdb015b440606b69f800cb5c564baed42a2f6452aaa38163a04b7f53319991f0fed7498ed95741396908c8db717b412d7f3bd6d375f822193a27ca59336135193e877b4e3937d0a496ec5eff603c5702cd908c6f4a6d0e51bb8360f5009af2fa20d1f2001c298a0ec538082df0a0a19b7f267cd15ae5b7a34cf4fbff37d8d3077dc4330e173c16c24a16e120361360609f6d7a0dfe5a2d3d340ae2916afb4f899595a56c5c5aabdb506bad11d2c1b21d3a4c66152b488359e8ac5f5651d3e1c73bca952cadd786f833fe50255dd362e57ed1ec8992f81d5771d78e3288981e1e469a6bf4f5395a5266c9a9570f39bd760fe4a79a10e88c267d3d3c415ae21cbae63eb9a5eb644bda0610fbccd47a7f65f1c770b61b8fb420b30052d5624f37819602c5d16486e1adce135e2d350bb2c79a1170104d9f30afea4daf2fcac1e4e23b393620d31680062a05f420bf20713cb8862dca3fb4a61026ebe8951d3dee8a23d081d9dc28e4fc3b5e503cb661fe52ffbc779cc5679fb3b558485d6b0c99912b15f8beac44d844a774a9d4bffd78a70948241d815ed6d96c303819f1df8259728179f97e39fe4d5acdd6073838caad2586e0547ee3c026f8ba3e92774777c307de872454122a624574419dbfee07b7dcfbc7e5f64e90436076544203d5fc172201e9395320fc91728635239a9f094df1c4bb4c59a7fe404345a30c57819615669edf6319b85fc9af5f7a1fa3a80d037628a8214c71dee7b25e490116fe290883da6fb858d3a1bdf7ee74816b29a01fb234da5f00d88aaca25e43f47dd1fe14a702367608e67861abdaad8e240be70d1477475193c6592f96fc306ed8d2772182bcc92b9658bd05cc56a3e28380c1476aabfa551058c1fb4317509c2aac714c1a22ed5c10c9f980fe70a31a44019c3e4a1e414ace30772ddf291451203d031136c118e84586341d76851f4270a7fc0c7875393fca51854d46e0cf15718dabd27f3f84fba5fd5f00b9b9c68c47f0adda9309aedb6459ed59e48c3b9e7082ab8523d0f69bd032d13c1f14b6b5912166dca986c30115465aaa164899ebdc46278e9865470fcc24f7233ebb8faddba6005f9d6fbe43340d05b2822fe98e6158ebb4f84155c53256a0b5788ee770aa35981351e6403ff30c2cac674dd20f2aff63c8bf4b915f07bbdf8e62e43320f759f82474293d3778be6f2ef5380352d40c91f48ac28e364b2c6e01c6364fa14fba17568065afbc0dac22a184548b0b09ae645e12e29f27af592a9e101dd96b962a539af322828a9d32f723fc33b1c59dce0cca42b76f76b726b432ef1396b039ef958f2103d5d806b34a3b23ce0d2167de2039beb8d201115f98746af85780b390505a5891aaa522c6830be96d20e08ba17a59b2eeb2547ca2c32d0031042ff13c6bdde5f083915bff3cbad043e01c57c49a3086244338fdc273ee3eb242db01b73654d1a000d6868670995fc1b42f50143b4451556368818b8ca4aac4c8c9ce25293233383e5a6b6c71739ec8d9dbe5fc1416181c2728484c5f64a4aac9d9f1f7fd0817232836454650545d636e767a86a4abb6bcc0c7ee0000000000000000000f20314701",
        "008253eab95810fb39e0a1d6489776ce619c275db9ff924b0ddf0848eb3bf3c57afd68e667be25fc4d915dbc50b7063cccdfe46ffea1c7e4324a49439ef2fe9f66e3910a9e86e443b4e5377c3f340a4bf19358fe5bf3181768135b5908ec2a8c4cf3dd7b8630c5ec57cbe3c240da235d60a60f0c2b093d013238c34ca3f9429225b2de1842a968cc89d439d1d68f02a5149f8a750665e638c2369194facd5257ef8d582ceaa9ca2f19a031a49746456017f0c05b03db806f79e287303c3559c93900bdc9554c09bb99e80d661d9c09240e3c44c00def4aa10fb26e85dc9fe8d3ca2044f104ad60e70c82bce7c59e55c0f35d8c24e9abd1d7b19b5734bbfbdfbf40921834dcd9a676c67e038f9fef16398467be7a07a85294fd2d292664a1689b361ea1ac2a631b262fd31eb2e47d6bded44e0f9e8612b14fb1c11e280481da2b8ab702f16cf20f2b2e71c7362ffae86e411d2a326e7c538c4c41e221179b8337b80b51993b9ff8af9e92bc68197a497270df60cfba76dda2a7e37e61f102551f0338be825296f273d1bb2d65a0d87c2dd472ba8dd4ec14540064c38f5a8f36ebe7bf59909edbd6ae07d6787b56bf690f288e381075ee61da421f6c61d7fafbb80ac4b3df5656e966d748e6073d24467be2ab7d21691ddcb55b78d87af03b21a7023f36a8bc302831214a75154b89953157f5df630d6bd01c89f94ed088ed1c041b09e1124844dbe9b511580af3cabb4cf295fc30f7aed642008d24631e798e003da8d1638a842fa212c1fa8dbb429a3e07e6f2f71b73e8b4408122d204e935f2d6f6bb84d78695189025422c96c39b78abc7efac6328c3e0da2052bd4e67c07fd6703a77dfb04bb2c106ab2b0107fe439498dbecabfe7b9e7d62dae7d1c1fae9355bad064dd34d9c9a059b7ca3739e63f8e4cb99622b72978bbc7e40b122e1b284b0ca5f6f0b790ef89ac25030743d20f6f0b6758f7dbda49ea7f030e05a9f066bd3c31b1d7c05643fd6d8f0cf2341d5c48350e1f4474dccb3ca558541bac06a5f0005a7f8e26bc6a7daefd64e665cf368dae6f6a74a593bea1c7dbf73ee18e12bcb8a440a3486f3f77b42ae07657b0d821c7814c0ebbdaf08a1f93315ab8b72e5080eb4230241d43b3609f488190f9783898b396394538d0822ea06f5957edaf99160b28ff7d5e29f5b2e666e48250ed2eabe805ca6b9f6bb8bf15a0d22109fbcdf9f2aab4fc128b539c1b77a5bdaefec170fd926a73f5bde0a75e65f7fbf5d4e97e86345698dae65ca719f3d4068c2ae8ff6265ef9fe0a5817b4f48635a351d415dbc29cd59a4773c16c8d3ea4c20c9df44eb0cf8b2fc7199c7266b668dd913cad65ff8d63e210104ab4a1694c8ff59edcdaebc5ba0f4875a7f94002696314be931bf42039cae38d84b916e75938186d0f613610b85da0fa8b99cf06a3588a4cb2f89d13f05b8e0e0179280e16a017cf52734d0bb8685942ffadfcaf14a91b6ac99d66afb4d41f3214be89f4e31c8865a955b438ee642fecc5985344a4925082b9c4ab871882e76a3bd24a98d81b689acf2e2f8c081e0263c1ca242949b2886335bf9479adc4e5151614bef7ea8f27e76bc952dcf255e43933c10728a55455e91a21ef0c7971310eb5c26c98dfd9b2628b4e7aef22f096897a210ba9e9a8a9ec763b0b0609e29e14396fc690fd2aab3255072d4629f1437634fab89a60d021fbce8fd3c057fa8c3f5ba69a68b5663c92f3c5501f1a2b101a064a361d2b3d7595d0d32ec1b28926d6b7f4d8702703330fce9174a2584ec795136f756f2557ebacba2bd8bd6d398cd1eee393f215d3ea518414a8481d7055094463616a68836c41"
      ],
      "sequence": 4294967294
    }
  ],
  "vout": [
    {
      "value": 1.0,
      "n": 0,
      "scriptPubKey": {
        "asm": "OP_RETURN fafd2a341ea1774836cb399393948166fece0ff74a2777b8eeaf78284a56f4ce be344d6c16c6ef0238e8f7323ad048a012a15886931824813352bd042d6e66899e146d4c36e6cf2218c8d7121af06880328178a6b33804a113729d240d4e46a9fe740d2c5686af4278a8b7727a9008e052e118c6d35864c17312fd446d2e26c9de542d0c76a68f62588897525ab028c072c138e6f37844e15332dd644d0e06e93eb4cdec96466f82b86877b2ba50c8209221d8061398a401b3d23d84adeee6091e94edccb6664fa2984857929a70e800b201f82633b8842193f21da48dcec6297ef48dacd6062fc2f82837f2fa108860d261984653d8e441f3927dc4edaea6495ed4ad8cf6260fe2d80817d2da30a840f241b86673f8c461d3b25de4cd8e8669be344d6c16c6ef0238e8f7323ad048a012a15886931824813352bd042d6e66899e146d4c36e6cf2218c8d7121af06880328178a6b33804a113729d240d4e46a9fe740d2c5686af4278a8b7727a9008e052e118c6d35864c17312fd446d2e26c9de542d0c76a68f62588897525ab028c072c138e6f37844e15332dd644d0e06e93eb4cdec96466f82b86877b2ba50c8209221d8061398a401b3d23d84adeee6091e94edccb6664fa2984857929a70e800b201f82633b8842193f21da48dcec6297ef48dacd6062fc2f82837f2fa108860d261984653d8e441f3927dc4edaea6495ed4ad8cf6260fe2d80817d2da30a840f241b86673f8c461d3b25de4cd8e8669be344d6c16c6ef0238e8f7323ad048a012a15886931824813352bd042d6e66899e146d4c36e6cf2218c8d7121af06880328178a6b33804a113729d240d4e46a9fe740d2c5686af4278a8b7727a9008e052e118c6d35864c17312fd446d2e26c9de542d0c76a68f62588897525ab028c072c138e6f37844e15332dd644d0e06e93eb4cdec96466f82b86877b2ba50c8209221d8061398a401b3d23d84adeee6091e94edccb6664fa2984857929a70e800b201f82633b8842193f21da48dcec6297ef48dacd6062fc2f82837f2fa108860d261984653d8e441f3927dc4edaea6495ed4ad8cf6260fe2d80817d2da30a840f241b86673f8c461d3b25de4cd8e8669be344d6c16c6ef0238e8f7323ad048a012a15886931824813352bd042d6e66899e146d4c36e6cf2218c8d7121af06880328178a6b33804a113729d240d4e46a9fe740d2c5686af4278a8b7727a9008e052e118c6d35864c17312fd446d2e26c9de542d0c76a68f62588897525ab028c072c138e6f37844e15332dd644d0e06e93eb4cdec96466f82b86877b2ba50c8209221d8061398a401b3d23d84adeee6091e94edccb6664fa2984857929a70e800b201f82633b8842193f21da48dcec6297ef48dacd6062fc2f82837f2fa108860d261984653d8e441f3927dc4edaea6495ed4ad8cf6260fe2d80817d2da30a840f241b86673f8c461d3b25de4cd8e8669be344d6c16c6ef0238e8f7323ad048a012a15886931824813352bd042d6e66899e146d4c36e6cf2218c8d7121af06880328178a6b33804a113729d240d4e46a9fe740d2c5686af4278a8b7727a9008e052e118c6d35864c17312fd446d2e26c9de542d0c76a68f62588897525ab028c072c138e6f37844e15332dd644d0e06e93eb4cdec96466f82b86877b2ba50c820065ac90b1208d22610a6105746a8106609c7e0ff6b6b8fa41c6d96c7c65e97d4",
        "hex": "6a20fafd2a341ea1774836cb399393948166fece0ff74a2777b8eeaf78284a56f4ce4db004be344d6c16c6ef0238e8f7323ad048a012a15886931824813352bd042d6e66899e146d4c36e6cf2218c8d7121af06880328178a6b33804a113729d240d4e46a9fe740d2c5686af4278a8b7727a9008e052e118c6d35864c17312fd446d2e26c9de542d0c76a68f62588897525ab028c072c138e6f37844e15332dd644d0e06e93eb4cdec96466f82b86877b2ba50c8209221d8061398a401b3d23d84adeee6091e94edccb6664fa2984857929a70e800b201f82633b8842193f21da48dcec6297ef48dacd6062fc2f82837f2fa108860d261984653d8e441f3927dc4edaea6495ed4ad8cf6260fe2d80817d2da30a840f241b86673f8c461d3b25de4cd8e8669be344d6c16c6ef0238e8f7323ad048a012a15886931824813352bd042d6e66899e146d4c36e6cf2218c8d7121af06880328178a6b33804a113729d240d4e46a9fe740d2c5686af4278a8b7727a9008e052e118c6d35864c17312fd446d2e26c9de542d0c76a68f62588897525ab028c072c138e6f37844e15332dd644d0e06e93eb4cdec96466f82b86877b2ba50c8209221d8061398a401b3d23d84adeee6091e94edccb6664fa2984857929a70e800b201f82633b8842193f21da48dcec6297ef48dacd6062fc2f82837f2fa108860d261984653d8e441f3927dc4edaea6495ed4ad8cf6260fe2d80817d2da30a840f241b86673f8c461d3b25de4cd8e8669be344d6c16c6ef0238e8f7323ad048a012a15886931824813352bd042d6e66899e146d4c36e6cf2218c8d7121af06880328178a6b33804a113729d240d4e46a9fe740d2c5686af4278a8b7727a9008e052e118c6d35864c17312fd446d2e26c9de542d0c76a68f62588897525ab028c072c138e6f37844e15332dd644d0e06e93eb4cdec96466f82b86877b2ba50c8209221d8061398a401b3d23d84adeee6091e94edccb6664fa2984857929a70e800b201f82633b8842193f21da48dcec6297ef48dacd6062fc2f82837f2fa108860d261984653d8e441f3927dc4edaea6495ed4ad8cf6260fe2d80817d2da30a840f241b86673f8c461d3b25de4cd8e8669be344d6c16c6ef0238e8f7323ad048a012a15886931824813352bd042d6e66899e146d4c36e6cf2218c8d7121af06880328178a6b33804a113729d240d4e46a9fe740d2c5686af4278a8b7727a9008e052e118c6d35864c17312fd446d2e26c9de542d0c76a68f62588897525ab028c072c138e6f37844e15332dd644d0e06e93eb4cdec96466f82b86877b2ba50c8209221d8061398a401b3d23d84adeee6091e94edccb6664fa2984857929a70e800b201f82633b8842193f21da48dcec6297ef48dacd6062fc2f82837f2fa108860d261984653d8e441f3927dc4edaea6495ed4ad8cf6260fe2d80817d2da30a840f241b86673f8c461d3b25de4cd8e8669be344d6c16c6ef0238e8f7323ad048a012a15886931824813352bd042d6e66899e146d4c36e6cf2218c8d7121af06880328178a6b33804a113729d240d4e46a9fe740d2c5686af4278a8b7727a9008e052e118c6d35864c17312fd446d2e26c9de542d0c76a68f62588897525ab028c072c138e6f37844e15332dd644d0e06e93eb4cdec96466f82b86877b2ba50c820065ac90b1208d22610a6105746a8106609c7e0ff6b6b8fa41c6d96c7c65e97d4",
        "type": "nulldata"
      }
    },
    {
      "value": 499979.662,
      "n": 1,
      "scriptPubKey": {
        "asm": "1 98183cbfd5ce23421ea3dc1503341f11486205ef1fb712e2dc8e515d9aef0d7d",
        "hex": "512098183cbfd5ce23421ea3dc1503341f11486205ef1fb712e2dc8e515d9aef0d7d",
        "reqSigs": 1,
        "type": "witness_v1_scripthash",
        "addresses": [
          "3QJmnh"
        ]
      }
    }
  ],
  "blockhash": "c592ff09702ccc153ea7e0356b0e5a10b37ebf9436b5bd4870b29e5d1c636d36",
  "confirmations": 1,
  "time": 1764179615,
  "blocktime": 1764179615
}