{
  "hex": "010000000001016546bd7a5c914ed57ac20f4f9cd9b0ad9b594b90b46a6475f366bfcf7e19fda30100000000feffffff0200e1f50500000000fdd5046a207b939e934effc8eae2497deb1fc422c6e73165f9ce60ae86805ce2b6428429844db00422db48feeda26b8341756966559bb9b9243775d0862798f5e45bea3be6683da602fb68decd824ba36155494675bb9999041755f0a607b8d5c47bca1bc6481d86629b08beade22bc30135292615dbf9f964773590c667d8b5a41baa7ba6287de642bb289e8dc20be32115090635fbd9d9445715b0e647f895843b8a5b86085dc6a25bc87e6d22eb03c1f5e9e6d51b3939a4b7f55006a7187564db6abb66e8bd26827be85e4d02cb23e1d5c9c6f53b19198497d5702687385544fb4a9b46c89d06e21b883e2d62ab4381b5a9a6955b7979e4f7b51046e75835249b2afb26a8fd66c23ba81e0d428b63a1958986b57b5959c4d7953066c7781504bb0adb0688dd4622db48feeda26b8341756966559bb9b9243775d0862798f5e45bea3be6683da602fb68decd824ba36155494675bb9999041755f0a607b8d5c47bca1bc6481d86629b08beade22bc30135292615dbf9f964773590c667d8b5a41baa7ba6287de642bb289e8dc20be32115090635fbd9d9445715b0e647f895843b8a5b86085dc6a25bc87e6d22eb03c1f5e9e6d51b3939a4b7f55006a7187564db6abb66e8bd26827be85e4d02cb23e1d5c9c6f53b19198497d5702687385544fb4a9b46c89d06e21b883e2d62ab4381b5a9a6955b7979e4f7b51046e75835249b2afb26a8fd66c23ba81e0d428b63a1958986b57b5959c4d7953066c7781504bb0adb0688dd4622db48feeda26b8341756966559bb9b9243775d0862798f5e45bea3be6683da602fb68decd824ba36155494675bb9999041755f0a607b8d5c47bca1bc6481d86629b08beade22bc30135292615dbf9f964773590c667d8b5a41baa7ba6287de642bb289e8dc20be32115090635fbd9d9445715b0e647f895843b8a5b86085dc6a25bc87e6d22eb03c1f5e9e6d51b3939a4b7f55006a7187564db6abb66e8bd26827be85e4d02cb23e1d5c9c6f53b19198497d5702687385544fb4a9b46c89d06e21b883e2d62ab4381b5a9a6955b7979e4f7b51046e75835249b2afb26a8fd66c23ba81e0d428b63a1958986b57b5959c4d7953066c7781504bb0adb0688dd4622db48feeda26b8341756966559bb9b9243775d0862798f5e45bea3be6683da602fb68decd824ba36155494675bb9999041755f0a607b8d5c47bca1bc6481d86629b08beade22bc30135292615dbf9f964773590c667d8b5a41baa7ba6287de642bb289e8dc20be32115090635fbd9d9445715b0e647f895843b8a5b86085dc6a25bc87e6d22eb03c1f5e9e6d51b3939a4b7f55006a7187564db6abb66e8bd26827be85e4d02cb23e1d5c9c6f53b19198497d5702687385544fb4a9b46c89d06e21b883e2d62ab4381b5a9a6955b7979e4f7b51046e75835249b2afb26a8fd66c23ba81e0d428b63a1958986b57b5959c4d7953066c7781504bb0adb0688dd4622db48feeda26b8341756966559bb9b9243775d0862798f5e45bea3be6683da602fb68decd824ba36155494675bb9999041755f0a607b8d5c47bca1bc6481d86629b08beade22bc30135292615dbf9f964773590c667d8b5a41baa7ba6287de642bb289e8dc20be32115090635fbd9d9445715b0e647f895843b8a5b86085dc6a25bc87e6d22eb03c1f5e9e6d51b393990d526b9bc4da4e2ecd8e198efd033b9ba1911aa6013f602d4bf707398f5f354c02309ae782d0000225120c28f215be592528eb62d067c344978f8c868f72e839e30ba351801c27e065e4902fd7509d0565311af83c8d1b5281ed95f074adcf1bb8ae5b575fde3507b68ad86e059748a87dde8af36591e6bb543363e1647810a6a0b9129acd369d3d676487ff7c071084eed762c043acb79a0e6c106bf834fb23ea1dc97f1032ec0e994e97027c6ebd6d54c718041a2d566290deeefc406682c7470c7c812de3501e67200956f080ca3d4a302cedf334d830f9d921eeb32895e40c7499e789671188924a3c8749494eeafb8df3c9fc70d1df26d585b6f3c9fa083ade78d61e8fb075c220446d3a88c43bbb52dbdadec5095b80c11c730f720cc212cdbcc02dcd5eb136eb7a8ce389ae608d08f8761cf6a51e264f3168e55366adfb3857111f8cb2359ec305990bb86bb11ec3d1bf766f070c582f927a6bd017b7fabd4a16f14f66a6f0a9d4d9c89ba1add5f2720fe65b9d4e58d8fafbcab506cffb79fafdb4efb7e397bbf3d2d3d48de30890c22760f79989d0a930321d7cf9e9a3afd08a859447a255089e23e0ca9f63e788459b24d897cf22c094653c95b2c13168746e02592752dcbaaf2fc1fa95eb68c10eee5a340582cdfea87a7a634963d31b104ad776f04973e2b9ffe47fc2675bdcaf855cb784720df60cbab0bbcabd5bd5974dab2bd9a3450d0da88928fdc27ba66c8686801c7cb39da9fc68fd2635b85c0706c8c1d2fb4b9e0ba7730316acd4c51751c647d9fb12976cd32b141657ce02e6c5ecb766325a63104de882258e5739b36f6e68ced58ae476bc1f4f985ba1592c894718887d8c2fd5529ab737154f7859c49ce2ed634f0566c069f1066192c7e8e4001b8974cebdf132b723796fbb7d239013d0a7bb2b3c97bfa510fe6cb177484d0a98500efce6584acb52fd6d51fe042da41bc19d25ad412068d71555cee3fe9724a9f9b228c81697b34e79bdf23a80b9e4656a777d0e5446662ab520471a949b9acef84aae67ef0084016979606c8e90d5dd262047d114adc28859ddb4c8962dade3ab6d01ac80fe12c7af0c9ede1ea4bb7fe462ee79fbd31f4adb955559bd14329919176384fc05eb632daa8fe7ed9498227d85be63dd97040fc0c331a9fe9ef0524348d879b9acfd8abe130e7ee6c4c95b45b77b30ee2cd1c2e8779be77c53ea483fa4505b88129e39727d41ed26dba42394056989024c40b466a3a3ddf71180c5f5ed68cef51e84a4e42d3b7253e88c3db8124890c04d0c4e296588f453027cc0c3c38c75cefd225668a5601c5647d544bf32afa5249787146a710ad9f5eec5fbd259545fd62abc5ef0310cfce387f7d0fd46f1ebe1253278006f4afac54bdab78526339cf3650dafb21220aa1bfc00819df9a3dbb7d7951e7c9a217b0d09e1793e33c84f4a03fabfca70278d32d5b883641e1e2ce3815ac14a89bd35b97f8621c2bad688da1af6adebea36d7ae4ec565139ea5bc50f89e8632ea3e816e73cc4b78c32a7f3ac8abd977035b08001a634b743f56ac021cd7cd0f7c13a1b904082cd48d603d78675a2fc95969d1553cefa28c0ba1310eb2e783ed262da2d091f2dd48173cd596e5811ee5696c559a60b7a8483ca2f669f3e9922195c64373ff772b513bcb7765379ed3fefbcd254e77b60328f2397de3314208bef559c0d7561b1139d9dc05b5f77e02a9ebf358874dea05c5de5ebb5aa8a188a3f416e670c3d2947d7f85a944adbd5ae2e9b05384930acfca70260a4bd2f09ac2fb6ea36a7fe710ef4f8216e7206258b0bfd4772aa5c6f1558425cea437bd9b2079c56664fcfa8919df089aedc37733588d1cdd91057c738623cbce919d788eca0df4e9a4f3e1b70fe91c0f834ce33b97deb2d947880dc885a457a5cf9c79bd428cdec6ed5a2ae3c0a93aa7fe76b0adb365ee6faed27cda3d222e0278fad0b1863e4d9a39a3879b241c46f552d6ac2fa8ef785b58c1fb5490ae23a6a0c933042bb4684a3374f37618b88b4e87eced3d49a4fe438585c140335f36fd1a7daf1d5d5cc53ebe68987378b36a99c49d2edd9293b23aa6e0ab39baff543217f829446e8e04d06b2f94e9bdb46ad234c3ae3b131c1f985a6bb1493f33e88f217c5b1ee40f91015a8591c01860fd5bb8fe2b0e040f98401c5572a1f8aefa1e2f1f3e41a2580751bb2fef14e5e93c584a597a0e2eddcdf5aa37a4b1df4fd9760b5eb82c7bd854536d7858dd5f7980928c5c3c5c07e61f150b993cc9f89247cd26611a98b4ad7535812bc20acb997f091e29ae5d076ddf49071251ff3aa11a004209b3e8fecf42d2ba5c49d9f60c37b93f84f3b42cea3b9cb01d2fade6761ee9c8e971ecbd66965597d7f173e85413442618ef4f60d73726be7e5264c2c10a12cce48d052fa9ccf17bdd8921568b01b870c8ca73ea87d43024c945a831d1b60b355a6fb1ef4893a9de77a894f1e684f39c0708332dff67cbd7d0105cfa391472d2995a17f3474ce19d6031261f6da9e5bf5350e7ea54baa4b310ade205d3a6305e7b19368eeb212cd3be961b5db9892bc1e1bd149c6ec4f40039c22a075a314d1abbe30818863d07ee5aa481fb5e307935ea98c961d57000f05929f55673faf196f6989ccc2bf89ddca90f869a3832d4a21533eb4a7a91b00940e02d957d32958f168dd3e4968dd983cc990a6007c90d58c0a4abd3e99bff0be713cb023ec405174e625ee1a766a6bc2886d6dfc6c6d1b524017ef0d74b937a55baa648d1be25900e44baa13541508b20774a9465a707ca796daefbfed630f980ac87868017be2cc1e88e5b885fb68aa324d7ecdfc47c755383e40fa4b5cd6f271109513e9a458c3cfec10294ba7784a6c7a097eb6dd035cc30dfb68d806ec4e105585a33897caf50d380e94dc160505050f6154c444a8fd4b5cb4b104a540856e63e73d17366d09392d584b2e92604f2b2e3ecdb38d2318466239a8f3752d8234fa1f0f23a540f7ea59aaf5d1f59f029ca180664ae1a17468b598dd321de664a3fc89eb7769bd70cd55f80ce6eb25c05dbf76c6dd9e7c86e57a6fe85007c853bb4b1c9394d2e8c2846325c800bf0700873e55ec7b3bb99bbc0d3a0656bfd29024aca77a980f4750c4c298bcb9372e2d65be63cfa04a3509a8414273796e29438d34b6c80530e0a25572ea5a92b7ce6202a677cf53e210b8cfa6df5e9c6e2e71cc1b74a40e7908e5182de1e4cabf0b741889ae2b05acb73daf656d8685520c71682a2596fa7fad429b469f334cf3cd56d0ddfb24fa9058fe0bc6055176ff14dd7312f4e24c4bd8b9019c8a1e33880e25260f4b2055e4403322c423a49a3affaa9e6cdea5d55e564b5068e5ee530ddb0bdb995fa1fe987c9593899715597b8b90e7f5f7f8020f101a22727c7d8c9ca2b2c3c4d8e3f4fc10131a1c1d373c3f486b6c7da3aebbe6fd3072787a8891a7b4c6c8e3f2f40000000000000000000000000000000000000000000000091b2c3901fd21050050a7a82e359811b6191abad28d7165ad40efe8cb192bbeb1bb9b14800dd1dff1055a148ff08276f25eacf7571506026d8875472bf7a2fa2073d058bd2d50e0b534a5d850d50ef94b982352133bcb6508166215069deee4bd98fb7443dccbe33233b42ddc31848b62c913a5ba19a940278a9068d1f2e10f3da690f1f7f4061019cfecb8363dc7556c70fc1da5db0ff9a1b72e0a623f51bc684c55a21419a41123fdad6fc8fdf86e0802a41bf1be92d8bbd93b7e7ccab04ad6c565045c6273766f9631d9970941108be8cda3c0db579ed24447efa6daa0b353e882b8460b4c5e395feae42e8c9e543b6655870b8a827ce1db873fe53a598969d85e3614789edb27645ac231afd58f7939e96cfe9a5df43c9bc57e28f0528abce1c778da11b98465d250b42cfa6ff838c34f51d5e9f8332c0cec7f231d9e06931466d4699e085b6c0c75cbcc4b32fcbc74c04e7b3a764f9bcd4872ea73a952cef1d02c651e2c9594418f59ae39c37f641964944941112278624daacfc878341deada4cb0cd838847c24111bd7095fe4b7f7db74d28a6132f760c0839e1c6a421d1796d62cf0e93ca63c156431d52d71fce00a065deac430881099b11a73789636bafe8c9caa065760101dd1329d92e90cb40946dc06503bdaa4485fd8588b6f3b5d9996894f19696ae90e2409077c544ee4221230d93e08ceb97b923be24c651fd42d090f5489e82966e3dfd993ae597010d028136ae67285191bf1bcc5a4a78a2e62f91528f865aaadf75feff3d7614f7e6b48b0a67c18ca4df2583fb205243bb1e042379aa56292c3036a9b1a3fa579866db94d89b5f3b2fd4747d4fbe4642a39ce98332a7e47fd80528e52083655d8263f146bd6c2fe776f84d63aaf8a79a6097ac537aaca388c82ef81a8499cafcdcd1cddb2e370f93b37a8778774a78b693d3dc49f79143f0ffa7285aac873eb0df2dd5675d2cb611bd27aca0abe7605813543d8de0e05ae59ae1bdf684aa25098f8216da070a152cc798ce9bbbf61823d9dcf657ee99f43a08d55ef97d82813d4b1d28fca9770750b7f449e6a79927ec6b73186f6a7b290c73e4dda6c1fdbae22e30e63f2dcd33e66f7e8334fc9ee491f671da337984468dba1bbaec9d186696c914949e48f064532446c34291eb45c601726d07afb3c16f1711875769f51612e0c7580573b2c2a4ae0fd3470f116e2f9c49c54038b91c594f11acc1530bf43893d3fd4ad9d7c2c5e5bdee94a093818ca2aaa7fbadc38de631a10540e2cf3a38ff30e0799108a070519b10698261d05abfd56e86cec51afba0fedf01fbc8e41b177eeeb2cfdbbcd755bb16b3c674670b79e46d64810fa64e1235cbd84a43656a6c37d3bbcb3dedd7f24e59ae1b2a18e4e0424941b3904ac5ff73e90917ac9dbdcb7e520600fc01878fb13b5084392d36d4643b542368b65e163a77241e56b0cd44ac63772436122af26c3265d612697803843c6b5324c89522f7f61531d83887ef5139d60dad832ebe926a77e061539e0ee8a1418c84a825ec23466488e88765e53627b5ad22a6ccbdaaad04ccfc9b028143cf5aded7b787c43f158af67fc67ef90ba3ed74d84f9d311fd4e7a82a313e016c7cba447882e23ddd4ed1fdc13b9eda475e20c0c0dd836a6cd41efef1f342206d77540814d783f51f415997897a6038d3d528d6ddc328173823d222c524b768d0a5610bf1a7c0dcfc28398383a3a6b2acb29cfb2e4795d8c3f8a73fd1ed3bbf04b74c9860edb74cd5f0c19a13ca67e33999e33267dd2561d6efa154591da967c6e2f5a92c5d396b67a1940f860b5218b5105a84428f5fb9a5abee0266816ebebafbd79d27f34686000000",
  "txid": "556413a55a7ac6f734571b74051695e267cd9c3df3639bea6b70f49a90c7042b",
  "hash": "aa41863663a9042c5acccc5742766803fee65734464a60945e4b773bc650e4de",
  "size": 5085,
  "vsize": 2278,
  "version": 1,
  "locktime": 134,
  "vin": [
    {
      "txid": "a3fd197ecfbf66f375646ab4904b599badb0d99c4f0fc27ad54e915c7abd4665",
      "vout": 1,
      "scriptSig": {
        "asm": "",
        "hex": ""
      },
      "txinwitness": [
        "d0565311af83c8d1b5281ed95f074adcf1bb8ae5b575fde3507b68ad86e059748a87dde8af36591e6bb543363e1647810a6a0b9129acd369d3d676487ff7c071084eed762c043acb79a0e6c106bf834fb23ea1dc97f1032ec0e994e97027c6ebd6d54c718041a2d566290deeefc406682c7470c7c812de3501e67200956f080ca3d4a302cedf334d830f9d921eeb32895e40c7499e789671188924a3c8749494eeafb8df3c9fc70d1df26d585b6f3c9fa083ade78d61e8fb075c220446d3a88c43bbb52dbdadec5095b80c11c730f720cc212cdbcc02dcd5eb136eb7a8ce389ae608d08f8761cf6a51e264f3168e55366adfb3857111f8cb2359ec305990bb86bb11ec3d1bf766f070c582f927a6bd017b7fabd4a16f14f66a6f0a9d4d9c89ba1add5f2720fe65b9d4e58d8fafbcab506cffb79fafdb4efb7e397bbf3d2d3d48de30890c22760f79989d0a930321d7cf9e9a3afd08a859447a255089e23e0ca9f63e788459b24d897cf22c094653c95b2c13168746e02592752dcbaaf2fc1fa95eb68c10eee5a340582cdfea87a7a634963d31b104ad776f04973e2b9ffe47fc2675bdcaf855cb784720df60cbab0bbcabd5bd5974dab2bd9a3450d0da88928fdc27ba66c8686801c7cb39da9fc68fd2635b85c0706c8c1d2fb4b9e0ba7730316acd4c51751c647d9fb12976cd32b141657ce02e6c5ecb766325a63104de882258e5739b36f6e68ced58ae476bc1f4f985ba1592c894718887d8c2fd5529ab737154f7859c49ce2ed634f0566c069f1066192c7e8e4001b8974cebdf132b723796fbb7d239013d0a7bb2b3c97bfa510fe6cb177484d0a98500efce6584acb52fd6d51fe042da41bc19d25ad412068d71555cee3fe9724a9f9b228c81697b34e79bdf23a80b9e4656a777d0e5446662ab520471a949b9acef84aae67ef0084016979606c8e90d5dd262047d114adc28859ddb4c8962dade3ab6d01ac80fe12c7af0c9ede1ea4bb7fe462ee79fbd31f4adb955559bd14329919176384fc05eb632daa8fe7ed9498227d85be63dd97040fc0c331a9fe9ef0524348d879b9acfd8abe130e7ee6c4c95b45b77b30ee2cd1c2e8779be77c53ea483fa4505b88129e39727d41ed26dba42394056989024c40b466a3a3ddf71180c5f5ed68cef51e84a4e42d3b7253e88c3db8124890c04d0c4e296588f453027cc0c3c38c75cefd225668a5601c5647d544bf32afa5249787146a710ad9f5eec5fbd259545fd62abc5ef0310cfce387f7d0fd46f1ebe1253278006f4afac54bdab78526339cf3650dafb21220aa1bfc00819df9a3dbb7d7951e7c9a217b0d09e1793e33c84f4a03fabfca70278d32d5b883641e1e2ce3815ac14a89bd35b97f8621c2bad688da1af6adebea36d7ae4ec565139ea5bc50f89e8632ea3e816e73cc4b78c32a7f3ac8abd977035b08001a634b743f56ac021cd7cd0f7c13a1b904082cd48d603d78675a2fc95969d1553cefa28c0ba1310eb2e783ed262da2d091f2dd48173cd596e5811ee5696c559a60b7a8483ca2f669f3e9922195c64373ff772b513bcb7765379ed3fefbcd254e77b60328f2397de3314208bef559c0d7561b1139d9dc05b5f77e02a9ebf358874dea05c5de5ebb5aa8a188a3f416e670c3d2947d7f85a944adbd5ae2e9b05384930acfca70260a4bd2f09ac2fb6ea36a7fe710ef4f8216e7206258b0bfd4772aa5c6f1558425cea437bd9b2079c56664fcfa8919df089aedc37733588d1cdd91057c738623cbce919d788eca0df4e9a4f3e1b70fe91c0f834ce33b97deb2d947880dc885a457a5cf9c79bd428cdec6ed5a2ae3c0a93aa7fe76b0adb365ee6faed27cda3d222e0278fad0b1863e4d9a39a3879b241c46f552d6ac2fa8ef785b58c1fb5490ae23a6a0c933042bb4684a3374f37618b88b4e87eced3d49a4fe438585c140335f36fd1a7daf1d5d5cc53ebe68987378b36a99c49d2edd9293b23aa6e0ab39baff543217f829446e8e04d06b2f94e9bdb46ad234c3ae3b131c1f985a6bb1493f33e88f217c5b1ee40f91015a8591c01860fd5bb8fe2b0e040f98401c5572a1f8aefa1e2f1f3e41a2580751bb2fef14e5e93c584a597a0e2eddcdf5aa37a4b1df4fd9760b5eb82c7bd854536d7858dd5f7980928c5c3c5c07e61f150b993cc9f89247cd26611a98b4ad7535812bc20acb997f091e29ae5d076ddf49071251ff3aa11a004209b3e8fecf42d2ba5c49d9f60c37b93f84f3b42cea3b9cb01d2fade6761ee9c8e971ecbd66965597d7f173e85413442618ef4f60d73726be7e5264c2c10a12cce48d052fa9ccf17bdd8921568b01b870c8ca73ea87d43024c945a831d1b60b355a6fb1ef4893a9de77a894f1e684f39c0708332dff67cbd7d0105cfa391472d2995a17f3474ce19d6031261f6da9e5bf5350e7ea54baa4b310ade205d3a6305e7b19368eeb212cd3be961b5db9892bc1e1bd149c6ec4f40039c22a075a314d1abbe30818863d07ee5aa481fb5e307935ea98c961d57000f05929f55673faf196f6989ccc2bf89ddca90f869a3832d4a21533eb4a7a91b00940e02d957d32958f168dd3e4968dd983cc990a6007c90d58c0a4abd3e99bff0be713cb023ec405174e625ee1a766a6bc2886d6dfc6c6d1b524017ef0d74b937a55baa648d1be25900e44baa13541508b20774a9465a707ca796daefbfed630f980ac87868017be2cc1e88e5b885fb68aa324d7ecdfc47c755383e40fa4b5cd6f271109513e9a458c3cfec10294ba7784a6c7a097eb6dd035cc30dfb68d806ec4e105585a33897caf50d380e94dc160505050f6154c444a8fd4b5cb4b104a540856e63e73d17366d09392d584b2e92604f2b2e3ecdb38d2318466239a8f3752d8234fa1f0f23a540f7ea59aaf5d1f59f029ca180664ae1a17468b598dd321de664a3fc89eb7769bd70cd55f80ce6eb25c05dbf76c6dd9e7c86e57a6fe85007c853bb4b1c9394d2e8c2846325c800bf0700873e55ec7b3bb99bbc0d3a0656bfd29024aca77a980f4750c4c298bcb9372e2d65be63cfa04a3509a8414273796e29438d34b6c80530e0a25572ea5a92b7ce6202a677cf53e210b8cfa6df5e9c6e2e71cc1b74a40e7908e5182de1e4cabf0b741889ae2b05acb73daf656d8685520c71682a2596fa7fad429b469f334cf3cd56d0ddfb24fa9058fe0bc6055176ff14dd7312f4e24c4bd8b9019c8a1e33880e25260f4b2055e4403322c423a49a3affaa9e6cdea5d55e564b5068e5ee530ddb0bdb995fa1fe987c9593899715597b8b90e7f5f7f8020f101a22727c7d8c9ca2b2c3c4d8e3f4fc10131a1c1d373c3f486b6c7da3aebbe6fd3072787a8891a7b4c6c8e3f2f40000000000000000000000000000000000000000000000091b2c3901",
        "0050a7a82e359811b6191abad28d7165ad40efe8cb192bbeb1bb9b14800dd1dff1055a148ff08276f25eacf7571506026d8875472bf7a2fa2073d058bd2d50e0b534a5d850d50ef94b982352133bcb6508166215069deee4bd98fb7443dccbe33233b42ddc31848b62c913a5ba19a940278a9068d1f2e10f3da690f1f7f4061019cfecb8363dc7556c70fc1da5db0ff9a1b72e0a623f51bc684c55a21419a41123fdad6fc8fdf86e0802a41bf1be92d8bbd93b7e7ccab04ad6c565045c6273766f9631d9970941108be8cda3c0db579ed24447efa6daa0b353e882b8460b4c5e395feae42e8c9e543b6655870b8a827ce1db873fe53a598969d85e3614789edb27645ac231afd58f7939e96cfe9a5df43c9bc57e28f0528abce1c778da11b98465d250b42cfa6ff838c34f51d5e9f8332c0cec7f231d9e06931466d4699e085b6c0c75cbcc4b32fcbc74c04e7b3a764f9bcd4872ea73a952cef1d02c651e2c9594418f59ae39c37f641964944941112278624daacfc878341deada4cb0cd838847c24111bd7095fe4b7f7db74d28a6132f760c0839e1c6a421d1796d62cf0e93ca63c156431d52d71fce00a065deac430881099b11a73789636bafe8c9caa065760101dd1329d92e90cb40946dc06503bdaa4485fd8588b6f3b5d9996894f19696ae90e2409077c544ee4221230d93e08ceb97b923be24c651fd42d090f5489e82966e3dfd993ae597010d028136ae67285191bf1bcc5a4a78a2e62f91528f865aaadf75feff3d7614f7e6b48b0a67c18ca4df2583fb205243bb1e042379aa56292c3036a9b1a3fa579866db94d89b5f3b2fd4747d4fbe4642a39ce98332a7e47fd80528e52083655d8263f146bd6c2fe776f84d63aaf8a79a6097ac537aaca388c82ef81a8499cafcdcd1cddb2e370f93b37a8778774a78b693d3dc49f79143f0ffa7285aac873eb0df2dd5675d2cb611bd27aca0abe7605813543d8de0e05ae59ae1bdf684aa25098f8216da070a152cc798ce9bbbf61823d9dcf657ee99f43a08d55ef97d82813d4b1d28fca9770750b7f449e6a79927ec6b73186f6a7b290c73e4dda6c1fdbae22e30e63f2dcd33e66f7e8334fc9ee491f671da337984468dba1bbaec9d186696c914949e48f064532446c34291eb45c601726d07afb3c16f1711875769f51612e0c7580573b2c2a4ae0fd3470f116e2f9c49c54038b91c594f11acc1530bf43893d3fd4ad9d7c2c5e5bdee94a093818ca2aaa7fbadc38de631a10540e2cf3a38ff30e0799108a070519b10698261d05abfd56e86cec51afba0fedf01fbc8e41b177eeeb2cfdbbcd755bb16b3c674670b79e46d64810fa64e1235cbd84a43656a6c37d3bbcb3dedd7f24e59ae1b2a18e4e0424941b3904ac5ff73e90917ac9dbdcb7e520600fc01878fb13b5084392d36d4643b542368b65e163a77241e56b0cd44ac63772436122af26c3265d612697803843c6b5324c89522f7f61531d83887ef5139d60dad832ebe926a77e061539e0ee8a1418c84a825ec23466488e88765e53627b5ad22a6ccbdaaad04ccfc9b028143cf5aded7b787c43f158af67fc67ef90ba3ed74d84f9d311fd4e7a82a313e016c7cba447882e23ddd4ed1fdc13b9eda475e20c0c0dd836a6cd41efef1f342206d77540814d783f51f415997897a6038d3d528d6ddc328173823d222c524b768d0a5610bf1a7c0dcfc28398383a3a6b2acb29cfb2e4795d8c3f8a73fd1ed3bbf04b74c9860edb74cd5f0c19a13ca67e33999e33267dd2561d6efa154591da967c6e2f5a92c5d396b67a1940f860b5218b5105a84428f5fb9a5abee0266816ebebafbd79d27f346"
      ],
      "sequence": 4294967294
    }
  ],
  "vout": [
    {
      "value": 1.0,
      "n": 0,
      "scriptPubKey": {
        "asm": "OP_RETURN 7b939e934effc8eae2497deb1fc422c6e73165f9ce60ae86805ce2b642842984 22db48feeda26b8341756966559bb9b9243775d0862798f5e45bea3be6683da602fb68decd824ba36155494675bb9999041755f0a607b8d5c47bca1bc6481d86629b08beade22bc30135292615dbf9f964773590c667d8b5a41baa7ba6287de642bb289e8dc20be32115090635fbd9d9445715b0e647f895843b8a5b86085dc6a25bc87e6d22eb03c1f5e9e6d51b3939a4b7f55006a7187564db6abb66e8bd26827be85e4d02cb23e1d5c9c6f53b19198497d5702687385544fb4a9b46c89d06e21b883e2d62ab4381b5a9a6955b7979e4f7b51046e75835249b2afb26a8fd66c23ba81e0d428b63a1958986b57b5959c4d7953066c7781504bb0adb0688dd4622db48feeda26b8341756966559bb9b9243775d0862798f5e45bea3be6683da602fb68decd824ba36155494675bb9999041755f0a607b8d5c47bca1bc6481d86629b08beade22bc30135292615dbf9f964773590c667d8b5a41baa7ba6287de642bb289e8dc20be32115090635fbd9d9445715b0e647f895843b8a5b86085dc6a25bc87e6d22eb03c1f5e9e6d51b3939a4b7f55006a7187564db6abb66e8bd26827be85e4d02cb23e1d5c9c6f53b19198497d5702687385544fb4a9b46c89d06e21b883e2d62ab4381b5a9a6955b7979e4f7b51046e75835249b2afb26a8fd66c23ba81e0d428b63a1958986b57b5959c4d7953066c7781504bb0adb0688dd4622db48feeda26b8341756966559bb9b9243775d0862798f5e45bea3be6683da602fb68decd824ba36155494675bb9999041755f0a607b8d5c47bca1bc6481d86629b08beade22bc30135292615dbf9f964773590c667d8b5a41baa7ba6287de642bb289e8dc20be32115090635fbd9d9445715b0e647f895843b8a5b86085dc6a25bc87e6d22eb03c1f5e9e6d51b3939a4b7f55006a7187564db6abb66e8bd26827be85e4d02cb23e1d5c9c6f53b19198497d5702687385544fb4a9b46c89d06e21b883e2d62ab4381b5a9a6955b7979e4f7b51046e75835249b2afb26a8fd66c23ba81e0d428b63a1958986b57b5959c4d7953066c7781504bb0adb0688dd4622db48feeda26b8341756966559bb9b9243775d0862798f5e45bea3be6683da602fb68decd824ba36155494675bb9999041755f0a607b8d5c47bca1bc6481d86629b08beade22bc30135292615dbf9f964773590c667d8b5a41baa7ba6287de642bb289e8dc20be32115090635fbd9d9445715b0e647f895843b8a5b86085dc6a25bc87e6d22eb03c1f5e9e6d51b3939a4b7f55006a7187564db6abb66e8bd26827be85e4d02cb23e1d5c9c6f53b19198497d5702687385544fb4a9b46c89d06e21b883e2d62ab4381b5a9a6955b7979e4f7b51046e75835249b2afb26a8fd66c23ba81e0d428b63a1958986b57b5959c4d7953066c7781504bb0adb0688dd4622db48feeda26b8341756966559bb9b9243775d0862798f5e45bea3be6683da602fb68decd824ba36155494675bb9999041755f0a607b8d5c47bca1bc6481d86629b08beade22bc30135292615dbf9f964773590c667d8b5a41baa7ba6287de642bb289e8dc20be32115090635fbd9d9445715b0e647f895843b8a5b86085dc6a25bc87e6d22eb03c1f5e9e6d51b393990d526b9bc4da4e2ecd8e198efd033b9ba1911aa6013f602d4bf707398f5f354",
        "hex": "6a207b939e934effc8eae2497deb1fc422c6e73165f9ce60ae86805ce2b6428429844db00422db48feeda26b8341756966559bb9b9243775d0862798f5e45bea3be6683da602fb68decd824ba36155494675bb9999041755f0a607b8d5c47bca1bc6481d86629b08beade22bc30135292615dbf9f964773590c667d8b5a41baa7ba6287de642bb289e8dc20be32115090635fbd9d9445715b0e647f895843b8a5b86085dc6a25bc87e6d22eb03c1f5e9e6d51b3939a4b7f55006a7187564db6abb66e8bd26827be85e4d02cb23e1d5c9c6f53b19198497d5702687385544fb4a9b46c89d06e21b883e2d62ab4381b5a9a6955b7979e4f7b51046e75835249b2afb26a8fd66c23ba81e0d428b63a1958986b57b5959c4d7953066c7781504bb0adb0688dd4622db48feeda26b8341756966559bb9b9243775d0862798f5e45bea3be6683da602fb68decd824ba36155494675bb9999041755f0a607b8d5c47bca1bc6481d86629b08beade22bc30135292615dbf9f964773590c667d8b5a41baa7ba6287de642bb289e8dc20be32115090635fbd9d9445715b0e647f895843b8a5b86085dc6a25bc87e6d22eb03c1f5e9e6d51b3939a4b7f55006a7187564db6abb66e8bd26827be85e4d02cb23e1d5c9c6f53b19198497d5702687385544fb4a9b46c89d06e21b883e2d62ab4381b5a9a6955b7979e4f7b51046e75835249b2afb26a8fd66c23ba81e0d428b63a1958986b57b5959c4d7953066c7781504bb0adb0688dd4622db48feeda26b8341756966559bb9b9243775d0862798f5e45bea3be6683da602fb68decd824ba36155494675bb9999041755f0a607b8d5c47bca1bc6481d86629b08beade22bc30135292615dbf9f964773590c667d8b5a41baa7ba6287de642bb289e8dc20be32115090635fbd9d9445715b0e647f895843b8a5b86085dc6a25bc87e6d22eb03c1f5e9e6d51b3939a4b7f55006a7187564db6abb66e8bd26827be85e4d02cb23e1d5c9c6f53b19198497d5702687385544fb4a9b46c89d06e21b883e2d62ab4381b5a9a6955b7979e4f7b51046e75835249b2afb26a8fd66c23ba81e0d428b63a1958986b57b5959c4d7953066c7781504bb0adb0688dd4622db48feeda26b8341756966559bb9b9243775d0862798f5e45bea3be6683da602fb68decd824ba36155494675bb9999041755f0a607b8d5c47bca1bc6481d86629b08beade22bc30135292615dbf9f964773590c667d8b5a41baa7ba6287de642bb289e8dc20be32115090635fbd9d9445715b0e647f895843b8a5b86085dc6a25bc87e6d22eb03c1f5e9e6d51b3939a4b7f55006a7187564db6abb66e8bd26827be85e4d02cb23e1d5c9c6f53b19198497d5702687385544fb4a9b46c89d06e21b883e2d62ab4381b5a9a6955b7979e4f7b51046e75835249b2afb26a8fd66c23ba81e0d428b63a1958986b57b5959c4d7953066c7781504bb0adb0688dd4622db48feeda26b8341756966559bb9b9243775d0862798f5e45bea3be6683da602fb68decd824ba36155494675bb9999041755f0a607b8d5c47bca1bc6481d86629b08beade22bc30135292615dbf9f964773590c667d8b5a41baa7ba6287de642bb289e8dc20be32115090635fbd9d9445715b0e647f895843b8a5b86085dc6a25bc87e6d22eb03c1f5e9e6d51b393990d526b9bc4da4e2ecd8e198efd033b9ba1911aa6013f602d4bf707398f5f354",
        "type": "nulldata"
      }
    },
    {
      "value": 499963.3916,
      "n": 1,
      "scriptPubKey": {
        "asm": "1 c28f215be592528eb62d067c344978f8c868f72e839e30ba351801c27e065e49",
        "hex": "5120c28f215be592528eb62d067c344978f8c868f72e839e30ba351801c27e065e49",
        "reqSigs": 1,
        "type": "witness_v1_scripthash",
        "addresses": [
          "3QJmnh"
        ]
      }
    }
  ],
  "blockhash": "74cd48d8c624c37e1fac27c00c19e94c48df61d3ca85b84b56360e4f6170fa6f",
  "confirmations": 1,
  "time": 1764182926,
  "blocktime": 1764182926
}