{
  "hex": "0100000000010161808a4d91e0181fc2c84c37e98f7e710d03f59673812aca88895a3e233b54930100000000feffffff0200e1f50500000000fdd5046a20cea85dbe2aa450ca084045ab7b4cabe6cc8f04ed814a69d9551652381303226d4db0042a3fccf5fb32b6b110f6cac4c2dfc3d94a18552d945e9c068b68a94cf473927b0a1fecd5db12969130d6eae4e2ffe3f96a38750db47ebc26ab48896cd453b25b6a7f8cb5bb72f6f150b68a84829f83990a58156dd41edc46cb28e90cb433d23b4a5fac959b52d6d17096aaa4a2bfa3b92a78354df43efc66eb08c92c9413f21baabf4c757bb2363190764a44425f4359ca98d5ad14de1c860be829cc74f312fb8a9f6c555b921611b0566a64627f6379eab8f58d34fe3ca62bc809ec54d332dbeaff0c353bf27671d0360a04021f03198ad895ed549e5cc64ba8698c34b352bbcadf2c151bd25651f0162a24223f2339aaf8b5cd74be7ce66b8849ac1493729b2a3fccf5fb32b6b110f6cac4c2dfc3d94a18552d945e9c068b68a94cf473927b0a1fecd5db12969130d6eae4e2ffe3f96a38750db47ebc26ab48896cd453b25b6a7f8cb5bb72f6f150b68a84829f83990a58156dd41edc46cb28e90cb433d23b4a5fac959b52d6d17096aaa4a2bfa3b92a78354df43efc66eb08c92c9413f21baabf4c757bb2363190764a44425f4359ca98d5ad14de1c860be829cc74f312fb8a9f6c555b921611b0566a64627f6379eab8f58d34fe3ca62bc809ec54d332dbeaff0c353bf27671d0360a04021f03198ad895ed549e5cc64ba8698c34b352bbcadf2c151bd25651f0162a24223f2339aaf8b5cd74be7ce66b8849ac1493729b2a3fccf5fb32b6b110f6cac4c2dfc3d94a18552d945e9c068b68a94cf473927b0a1fecd5db12969130d6eae4e2ffe3f96a38750db47ebc26ab48896cd453b25b6a7f8cb5bb72f6f150b68a84829f83990a58156dd41edc46cb28e90cb433d23b4a5fac959b52d6d17096aaa4a2bfa3b92a78354df43efc66eb08c92c9413f21baabf4c757bb2363190764a44425f4359ca98d5ad14de1c860be829cc74f312fb8a9f6c555b921611b0566a64627f6379eab8f58d34fe3ca62bc809ec54d332dbeaff0c353bf27671d0360a04021f03198ad895ed549e5cc64ba8698c34b352bbcadf2c151bd25651f0162a24223f2339aaf8b5cd74be7ce66b8849ac1493729b2a3fccf5fb32b6b110f6cac4c2dfc3d94a18552d945e9c068b68a94cf473927b0a1fecd5db12969130d6eae4e2ffe3f96a38750db47ebc26ab48896cd453b25b6a7f8cb5bb72f6f150b68a84829f83990a58156dd41edc46cb28e90cb433d23b4a5fac959b52d6d17096aaa4a2bfa3b92a78354df43efc66eb08c92c9413f21baabf4c757bb2363190764a44425f4359ca98d5ad14de1c860be829cc74f312fb8a9f6c555b921611b0566a64627f6379eab8f58d34fe3ca62bc809ec54d332dbeaff0c353bf27671d0360a04021f03198ad895ed549e5cc64ba8698c34b352bbcadf2c151bd25651f0162a24223f2339aaf8b5cd74be7ce66b8849ac1493729b2a3fccf5fb32b6b110f6cac4c2dfc3d94a18552d945e9c068b68a94cf473927b0a1fecd5db12969130d6eae4e2ffe3f96a38750db47ebc26ab48896cd453b25b6a7f8cb5bb72f6f150b68a84829f83990a58156dd41edc46cb28e90cb433d23b4a5fac959b52d6d17096aaa4a2bfa3b92a78354df43efc66eb08c92c9413f21baabf4c757bb2363190764a44425f43593984e6a5552d50248cec56692afc26986c1771efb1c1a6d996fa95dfa802a92cf077b5f0782d0000225120539f0b990ca65809f14693e2e5e6f4d390a96ddf4c190595d60998010c6c23f902fd75098447a598405b57344d3aa53e6dcb5b9db2600954d5368b563d0768b9cb54a50375f94e9a8eb203b4de1901ea100d6ac4c8d47596476fc8f4eecdf474e826a5784eb8f2769b69feb43e5c3dbcb0e582467620c6c1934f5f15993a674751c50bf43c6bacd4509eedc4502cb25a92adb6b5c9138dfdc1e86eb07167b5cdb23d0ec49682803879b513e1a56cd0fc68cc85b86dc1c3c3fc8ccf29b08ff186d0c15123f9e0f0daf035daa3040e7e91cf2fd5ad7222d7195726d01f23b8ca598263f549700d54482bb82f5ad5b7952432e8449d7e1d2d15826520b18b94534886e849b3171c0607d4ea6abd131ae4a3e6fef647ab78fbc719232979c032c5ee2715b6677d696cdca2f92207cdbb3a9b52358b284e252c4f2a06421972fddc9280428dcc11211448fba004c7153cabf3307043f8b9df51c2035e47b7f2ee5a02c6ca64053929bdd4dd898ffa9b95d51171e48f943b727ea5db88d9968a64320336cdd4a43268af1074124a6229c9dc36e4eb0ae75ea360ac13cc210d93914ad71bc3fe18da1ec940da10ceca0f6ed40d98af8b2418d449b43a9afaafd19fcaf0ec4523bf01fe21a4d02c349b97adf4533e65772f35c307819f6413dfef9e7c5b6a0f4cb8c21d89235bf81efc518e10ed23e0c67b969391a0787114f853ce6bac2884f7263ad82bf97c0eaf70050145eee38a888d1db1af16923ed430160379f1fd25d474333ea753668a5f526c9d52fe03460143cd5cf1ebfd022bee8ae9f58a89621c52f3a44ece8008502659c54da0cfecedbe831761b41019ac34f9d31089246fb7d9c9441a558fd8403669ff7bbd6cda4a6fdb2e8464b137337b47fb937b9b665c852d11eeeba8a16d656066d775d0308f6003562f14f686741850070e3b7cad6b1414e3333d02301c82bcac1105ea6c3218672a6e3cf3758fcdfbed68cb6db8303428b0ca2cd2b04a675b504845e1c184d3dd7607a7e13d77778f62b86f485954a159123138c380a1d12e69bb7288c076c182c6bda579432f4c193dfcfc947641c68823de3ac7d9f7ee10939c3d7ce0919e7dc92c2e7214d685967bab56b67fa9055461b17fd2b751e1a6e002205533f6838b30a542e2bf8df18e67f00adfa10fc7ce1bc34413cab352b85db986e5db95532eef1f02c28649cb4b6dd330e09bf937cfe49ed37a822dfce0a95b2ab3af2ba2a616ddadd8be7806d9200437d291a07bef7d941c068bd11ef0c4d0fbb8bff919a0a1b0bb34c045b2e290aafaa9894fd187c3b1ed3d9a1c71e0efd7a7ffd762a17f9810c64513b43edce2152b05972cdb6c3ceaf66887115fe7cd62bdd7aadaa8d38e79795ddd144c1065aadb2652b13113bf9fc1900c19fb1d488b929c2ddf1014f8f69f8f4a2570d3880dbb35c66ea13b59d18507a60fd9c34da242a96d61da3a0198ccb38e860948d9e331fe2d745201e0aa2dbe12faef2154cb1ac1aeca36547958dd8471ee62344438f5516bab726210082131cd84312ab455953a593c73ca1a7df9ce9bbb49f50b97f9443cc467b0044d5025f7bfcefa31368756792d05cb29f1522b963d61349c828b2cdc70755b54ec4992653876d7277be271eb915bcb3cd85d7ae6c5f26eec739c7f0c77ba64f1d6236a0e6df57380622461598fb8c4e10fe04f339dc5633579a9a69147473eae9b042ec8eb055bd6b24f7ee0b0aecd7ee021e66f4beba766989d402f017793a518a3f6aa00d96f4898b690b11491cf26f1818e44951f28c0315b71e8e9c304f54d13ed827332edf644476f6e0ce66db94b6f0d16d7b4c0d4ae39b5223f00dbc6b6657ddf23ef3d3d7ece03d01289660ff6469eaabef012d76bb4bada00c619e13d4e6d1c198d3d88969e9a7fc1b6fe915fe96daf05a7f564db94d02e6fa8e6e3b81da5db6e02eeb63e968c040ec13a76ac2400dce360c6455bea0a855a7cd708ea64cc6ec9d878a754c999a8d120984ebb76967797a668c4f407088cb7a47378b8dcfceda7c1e7e1f337e2c349745d6700277a4f7a95d29feec6af1bc9e29ebb9ed9136ae0b79d6772c395a1578c80bf01f746f2be65c13188ec14e32f7b1dd6e964b97cb60ce17beaa5832802e301c87b4420cfbacf3b572235c6be76c555390609a6ee3fa9db8082040e57cba009666d34f84f6a35670e691e7760a96f1395ececada0f0fb264898915a6e532143a585fb282bb3a1d2fccd9b902c02634ef62fbb1a121de15588954a464e632710d2dc47ad7201f53ef37e178c3660c54eae54c0342844ce4c5f32de92012ff678889c428c385611c2891bde59596bcc4f33019446d8ff7e5869d5a9c07133a00bb339c37691eb2a6621d13d846a1812cbe726942308c97ab6fb0ef459daf6d39750f408b6ca9600d1b40f15eea3fd9bf219ad8297971ce5dc55874ad53cbcd640b8268839291b5b6656ee8f5e45a9ee7e8323aa157574d52354d9b1c89682d4ca468b2bcc8238b630d021e1fc549475d50e60b704ab20cc5c64c87d908b704baa77ff312bc469699d21cefdb3e096c03d4e2bd2d51463acb81412f94c2e6cd4f8d5cdb938e5a0eb1fee903e02823574b92144de2543826c4f20cb08b7d39860a79352de9c599fadb7b663884a8abc0943dd173352adf992fcfa2f356b2e8f85260b00bcbf290347e3a5f86f2219f2de540bcf4e38a58d718b4faf05ac8a6664bf34cb5579fa4585346467a29a50af4eb58aec8554af534b4e5c070f3883d7dc40095bcd5c25eb536989b9c15003f330dcd92885de21e5a3aff919dd18b46705c4d8293274287a61f0a70f1688de961884bd12db35fd594beac637f1dafe8e25fcb0e8a550528b0ab3769e6f1f66421b262f6cff37f863760c0160865a5e7f8f57bd4dfe463524634737c77180e172b61ffa0eb2d59b94865a8d658c118e27cc5c59791aaa51dfa5e9ce0895e7cb8aeb4147c4fd4d7d23cef71f8bfae421dba3e1a2b3fd37373b103d87cd2286250541c34a13236be375d3a447f69bcc70240ff362c43e33bb5f9ad4bfe87e8907d75a6fbadc35b798ef33e142d04ece9dc845cd619da110bab195fbc59a0626925394e9fe0e5b4f5179de6fb8587c700604b6220c9eb45088d3f6bc56e6b34fb27be468945084b86eec01066f8c14e87e4cc6045a074e5b201c0df066eb8212faacea409e7ddb5488498e7e63a906e2ad2452311b68775efcdd084face291b73a0be970dfa6936a397b0d7d3d521c4edf384811e586023a779acedee17aac79210285738bb96b961d4e90301ef7750208f046402f00750344b42908b9a688e790f8e201394b617879899a9ca0bec5cde0fd0a111526323e4951699da2c9dadce912162044517381879394ccfd16262c4b5660647a7bb4b7d2d5dbeb00000000000000000000000000000000000000000000000f1e2a3901fd2105009cbbeaefe2110efcff43ac50ccada47fd7f5b0bc98f1d0d4c4a7bd80847a1203fe5b16d53007fee73b23832f776d2aee3c6d5bd8a2c32e4960c9eab8ee383505ff087621fbd4beea4bca3f7d5a67417a678aa71c40a640ef0ff29c5e72af4dc1bf3c7707a36c26b2bd71f4738b2ad063e3e4ad1d33fa8163489e4a9c7018cfe15027fc4c5333ff912491273b5e752b6bbb4e5823f790369f0483316cec4ab609e84019e8afc266b291fcb3ba0509606ab4a26236fc610b9dd182d57a480aeed568d256f8e58eab63fdcb56b35183176ee9318a31a527b0e35687643d8a5e9a3a9c879ee79b333d2de82405545220d788e32b5198a1339c1b00f712fb4ea9d1e77cfa85d3c234d04adea9fc220d818db294be61246211206586c6c76f9ea023279b06adf0cb78a77c4adcd0771dcb5164126b8bbe18f23c83401c81846a2516350b24a45e7d098a4d6fc0122a5b75cbd455ae17577bb4dac2466b93efdaac744488f528c23d757c4ccde928a14319c94034579534ae3859f8f45476f46ca08cacacd2132a819dbf6d3b09c3bf29d51ac3bacbb50733f2cec9e7aa95f5dfcc79fa2e870fcb49730dd3e7422458530b7e38477aea7b7bd69e5094ae9151452d697548b2cfd5579569285a6d8089c4279da12b8d9b481fd6b77f6e2bf1e814fe92115cca8a2b249e9bc02db8d52a032e112abda2d033505a420676d8c3bd79c907f2e714d11d5e58381414c18f5f301462e20082c356204d6bb489cef840d4042e7b197ed5417ce04b49e314228fcdd78e645562f54289e4bded7eaf5bea8641e6c6c0a530fffa09db9f8c090408a40a7e25fc4ccb7714253c6f35df505a292ac130b3a421d6b97cfc0943cbfa4ca8ee6f65a6d683cdf288373f6db0e8f15fd64ed4c3e2cd13217a98c38615be7fd0584ba9fd82e8ffca8ff295b5e01fadf43d714552e4a4a3086424adc6cbdcfae7f7988c1705ce99467d0f06ae06edd68be0b2691929c9d7854b4c3de653c8afee1ae5ae0abbac8c1d03ba81d881698181bacfaddffab7bad3224794e5bfc9d2d80d8385286cf6da2510f15dfb3f2de6a0158ed1e536441b22c40f285f9a3151c71c4968d2bc810b2425c7486c5b7fe783f2a2b7283e8523bff8e4ba19c7dbd6de0923126ac2352ae3b4ebf508b98d5c6dc8e066edd3f82b29f31d029e4433c49c0392b7b865651df3cb41062af601061fe351ca4b194cd9df3f4ed180115b16e9b0ce7d866d568fef77ec203ffa2fc183fd3ee6e64c50744c3767fb61d3327b908dca848df789433c4b5d90d2fc3d0c617bb227602f4107689fe7d3c2b5b4ee40865aa816eb551d98ef2695f1e2b4f239ba04bfc029132ef7bf517e32999cf1f8f78faaa68a198e7df8682bde3133630860d8aaec3d2d8663164f3eeab923a452222e086b356c7de6678723f2cfbe762e1e5d4b681db07037e476ae16e514b943e0948b7a3ca0f9c1ec99b81604ad6ca8e8418e1cb15627578db20520ff15a927427148d1d4c7879f69470b86b51ab6f9cce8b0efda7c86a1cf5075189e94e7f0a3d899a11620003a86eb02134b70d6d16234bf5f4d7b94c2425d3a27dc1314b134fe95b9cfe58ddffc53ba7b94d891bb36d1bfd07e01f7700381f32fb5619d1ce07cf0d356f4b87f2836b2411baaa5f2946feb7266ad4efa1f952edbbf022b5a4ac2ff1727dbc8c43cd44b579691b472b0360a739e23753097f8bd74093684893fb7e1d375eb750f44ce3c0f4716e8e4f9acbce839ccc5a416275380630233109bc00fe237a297ffcce4943ae842494b2ae33dfaef8af25198894088a198c17d433b1aa7af6c3d48d095bb56c7c942cbda559a7b000000",
  "txid": "57d6853b3bd551a61be883d08dc7ddec36cb640bd48438ce441ac8dd75ab3fd8",
  "hash": "0ca4d15fe78f2bea76a22e93ad52859121b8910ea835b456936875a590321bd3",
  "size": 5085,
  "vsize": 2278,
  "version": 1,
  "locktime": 123,
  "vin": [
    {
      "txid": "93543b233e5a8988ca2a817396f5030d717e8fe9374cc8c21f18e0914d8a8061",
      "vout": 1,
      "scriptSig": {
        "asm": "",
        "hex": ""
      },
      "txinwitness": [
        "8447a598405b57344d3aa53e6dcb5b9db2600954d5368b563d0768b9cb54a50375f94e9a8eb203b4de1901ea100d6ac4c8d47596476fc8f4eecdf474e826a5784eb8f2769b69feb43e5c3dbcb0e582467620c6c1934f5f15993a674751c50bf43c6bacd4509eedc4502cb25a92adb6b5c9138dfdc1e86eb07167b5cdb23d0ec49682803879b513e1a56cd0fc68cc85b86dc1c3c3fc8ccf29b08ff186d0c15123f9e0f0daf035daa3040e7e91cf2fd5ad7222d7195726d01f23b8ca598263f549700d54482bb82f5ad5b7952432e8449d7e1d2d15826520b18b94534886e849b3171c0607d4ea6abd131ae4a3e6fef647ab78fbc719232979c032c5ee2715b6677d696cdca2f92207cdbb3a9b52358b284e252c4f2a06421972fddc9280428dcc11211448fba004c7153cabf3307043f8b9df51c2035e47b7f2ee5a02c6ca64053929bdd4dd898ffa9b95d51171e48f943b727ea5db88d9968a64320336cdd4a43268af1074124a6229c9dc36e4eb0ae75ea360ac13cc210d93914ad71bc3fe18da1ec940da10ceca0f6ed40d98af8b2418d449b43a9afaafd19fcaf0ec4523bf01fe21a4d02c349b97adf4533e65772f35c307819f6413dfef9e7c5b6a0f4cb8c21d89235bf81efc518e10ed23e0c67b969391a0787114f853ce6bac2884f7263ad82bf97c0eaf70050145eee38a888d1db1af16923ed430160379f1fd25d474333ea753668a5f526c9d52fe03460143cd5cf1ebfd022bee8ae9f58a89621c52f3a44ece8008502659c54da0cfecedbe831761b41019ac34f9d31089246fb7d9c9441a558fd8403669ff7bbd6cda4a6fdb2e8464b137337b47fb937b9b665c852d11eeeba8a16d656066d775d0308f6003562f14f686741850070e3b7cad6b1414e3333d02301c82bcac1105ea6c3218672a6e3cf3758fcdfbed68cb6db8303428b0ca2cd2b04a675b504845e1c184d3dd7607a7e13d77778f62b86f485954a159123138c380a1d12e69bb7288c076c182c6bda579432f4c193dfcfc947641c68823de3ac7d9f7ee10939c3d7ce0919e7dc92c2e7214d685967bab56b67fa9055461b17fd2b751e1a6e002205533f6838b30a542e2bf8df18e67f00adfa10fc7ce1bc34413cab352b85db986e5db95532eef1f02c28649cb4b6dd330e09bf937cfe49ed37a822dfce0a95b2ab3af2ba2a616ddadd8be7806d9200437d291a07bef7d941c068bd11ef0c4d0fbb8bff919a0a1b0bb34c045b2e290aafaa9894fd187c3b1ed3d9a1c71e0efd7a7ffd762a17f9810c64513b43edce2152b05972cdb6c3ceaf66887115fe7cd62bdd7aadaa8d38e79795ddd144c1065aadb2652b13113bf9fc1900c19fb1d488b929c2ddf1014f8f69f8f4a2570d3880dbb35c66ea13b59d18507a60fd9c34da242a96d61da3a0198ccb38e860948d9e331fe2d745201e0aa2dbe12faef2154cb1ac1aeca36547958dd8471ee62344438f5516bab726210082131cd84312ab455953a593c73ca1a7df9ce9bbb49f50b97f9443cc467b0044d5025f7bfcefa31368756792d05cb29f1522b963d61349c828b2cdc70755b54ec4992653876d7277be271eb915bcb3cd85d7ae6c5f26eec739c7f0c77ba64f1d6236a0e6df57380622461598fb8c4e10fe04f339dc5633579a9a69147473eae9b042ec8eb055bd6b24f7ee0b0aecd7ee021e66f4beba766989d402f017793a518a3f6aa00d96f4898b690b11491cf26f1818e44951f28c0315b71e8e9c304f54d13ed827332edf644476f6e0ce66db94b6f0d16d7b4c0d4ae39b5223f00dbc6b6657ddf23ef3d3d7ece03d01289660ff6469eaabef012d76bb4bada00c619e13d4e6d1c198d3d88969e9a7fc1b6fe915fe96daf05a7f564db94d02e6fa8e6e3b81da5db6e02eeb63e968c040ec13a76ac2400dce360c6455bea0a855a7cd708ea64cc6ec9d878a754c999a8d120984ebb76967797a668c4f407088cb7a47378b8dcfceda7c1e7e1f337e2c349745d6700277a4f7a95d29feec6af1bc9e29ebb9ed9136ae0b79d6772c395a1578c80bf01f746f2be65c13188ec14e32f7b1dd6e964b97cb60ce17beaa5832802e301c87b4420cfbacf3b572235c6be76c555390609a6ee3fa9db8082040e57cba009666d34f84f6a35670e691e7760a96f1395ececada0f0fb264898915a6e532143a585fb282bb3a1d2fccd9b902c02634ef62fbb1a121de15588954a464e632710d2dc47ad7201f53ef37e178c3660c54eae54c0342844ce4c5f32de92012ff678889c428c385611c2891bde59596bcc4f33019446d8ff7e5869d5a9c07133a00bb339c37691eb2a6621d13d846a1812cbe726942308c97ab6fb0ef459daf6d39750f408b6ca9600d1b40f15eea3fd9bf219ad8297971ce5dc55874ad53cbcd640b8268839291b5b6656ee8f5e45a9ee7e8323aa157574d52354d9b1c89682d4ca468b2bcc8238b630d021e1fc549475d50e60b704ab20cc5c64c87d908b704baa77ff312bc469699d21cefdb3e096c03d4e2bd2d51463acb81412f94c2e6cd4f8d5cdb938e5a0eb1fee903e02823574b92144de2543826c4f20cb08b7d39860a79352de9c599fadb7b663884a8abc0943dd173352adf992fcfa2f356b2e8f85260b00bcbf290347e3a5f86f2219f2de540bcf4e38a58d718b4faf05ac8a6664bf34cb5579fa4585346467a29a50af4eb58aec8554af534b4e5c070f3883d7dc40095bcd5c25eb536989b9c15003f330dcd92885de21e5a3aff919dd18b46705c4d8293274287a61f0a70f1688de961884bd12db35fd594beac637f1dafe8e25fcb0e8a550528b0ab3769e6f1f66421b262f6cff37f863760c0160865a5e7f8f57bd4dfe463524634737c77180e172b61ffa0eb2d59b94865a8d658c118e27cc5c59791aaa51dfa5e9ce0895e7cb8aeb4147c4fd4d7d23cef71f8bfae421dba3e1a2b3fd37373b103d87cd2286250541c34a13236be375d3a447f69bcc70240ff362c43e33bb5f9ad4bfe87e8907d75a6fbadc35b798ef33e142d04ece9dc845cd619da110bab195fbc59a0626925394e9fe0e5b4f5179de6fb8587c700604b6220c9eb45088d3f6bc56e6b34fb27be468945084b86eec01066f8c14e87e4cc6045a074e5b201c0df066eb8212faacea409e7ddb5488498e7e63a906e2ad2452311b68775efcdd084face291b73a0be970dfa6936a397b0d7d3d521c4edf384811e586023a779acedee17aac79210285738bb96b961d4e90301ef7750208f046402f00750344b42908b9a688e790f8e201394b617879899a9ca0bec5cde0fd0a111526323e4951699da2c9dadce912162044517381879394ccfd16262c4b5660647a7bb4b7d2d5dbeb00000000000000000000000000000000000000000000000f1e2a3901",
        "009cbbeaefe2110efcff43ac50ccada47fd7f5b0bc98f1d0d4c4a7bd80847a1203fe5b16d53007fee73b23832f776d2aee3c6d5bd8a2c32e4960c9eab8ee383505ff087621fbd4beea4bca3f7d5a67417a678aa71c40a640ef0ff29c5e72af4dc1bf3c7707a36c26b2bd71f4738b2ad063e3e4ad1d33fa8163489e4a9c7018cfe15027fc4c5333ff912491273b5e752b6bbb4e5823f790369f0483316cec4ab609e84019e8afc266b291fcb3ba0509606ab4a26236fc610b9dd182d57a480aeed568d256f8e58eab63fdcb56b35183176ee9318a31a527b0e35687643d8a5e9a3a9c879ee79b333d2de82405545220d788e32b5198a1339c1b00f712fb4ea9d1e77cfa85d3c234d04adea9fc220d818db294be61246211206586c6c76f9ea023279b06adf0cb78a77c4adcd0771dcb5164126b8bbe18f23c83401c81846a2516350b24a45e7d098a4d6fc0122a5b75cbd455ae17577bb4dac2466b93efdaac744488f528c23d757c4ccde928a14319c94034579534ae3859f8f45476f46ca08cacacd2132a819dbf6d3b09c3bf29d51ac3bacbb50733f2cec9e7aa95f5dfcc79fa2e870fcb49730dd3e7422458530b7e38477aea7b7bd69e5094ae9151452d697548b2cfd5579569285a6d8089c4279da12b8d9b481fd6b77f6e2bf1e814fe92115cca8a2b249e9bc02db8d52a032e112abda2d033505a420676d8c3bd79c907f2e714d11d5e58381414c18f5f301462e20082c356204d6bb489cef840d4042e7b197ed5417ce04b49e314228fcdd78e645562f54289e4bded7eaf5bea8641e6c6c0a530fffa09db9f8c090408a40a7e25fc4ccb7714253c6f35df505a292ac130b3a421d6b97cfc0943cbfa4ca8ee6f65a6d683cdf288373f6db0e8f15fd64ed4c3e2cd13217a98c38615be7fd0584ba9fd82e8ffca8ff295b5e01fadf43d714552e4a4a3086424adc6cbdcfae7f7988c1705ce99467d0f06ae06edd68be0b2691929c9d7854b4c3de653c8afee1ae5ae0abbac8c1d03ba81d881698181bacfaddffab7bad3224794e5bfc9d2d80d8385286cf6da2510f15dfb3f2de6a0158ed1e536441b22c40f285f9a3151c71c4968d2bc810b2425c7486c5b7fe783f2a2b7283e8523bff8e4ba19c7dbd6de0923126ac2352ae3b4ebf508b98d5c6dc8e066edd3f82b29f31d029e4433c49c0392b7b865651df3cb41062af601061fe351ca4b194cd9df3f4ed180115b16e9b0ce7d866d568fef77ec203ffa2fc183fd3ee6e64c50744c3767fb61d3327b908dca848df789433c4b5d90d2fc3d0c617bb227602f4107689fe7d3c2b5b4ee40865aa816eb551d98ef2695f1e2b4f239ba04bfc029132ef7bf517e32999cf1f8f78faaa68a198e7df8682bde3133630860d8aaec3d2d8663164f3eeab923a452222e086b356c7de6678723f2cfbe762e1e5d4b681db07037e476ae16e514b943e0948b7a3ca0f9c1ec99b81604ad6ca8e8418e1cb15627578db20520ff15a927427148d1d4c7879f69470b86b51ab6f9cce8b0efda7c86a1cf5075189e94e7f0a3d899a11620003a86eb02134b70d6d16234bf5f4d7b94c2425d3a27dc1314b134fe95b9cfe58ddffc53ba7b94d891bb36d1bfd07e01f7700381f32fb5619d1ce07cf0d356f4b87f2836b2411baaa5f2946feb7266ad4efa1f952edbbf022b5a4ac2ff1727dbc8c43cd44b579691b472b0360a739e23753097f8bd74093684893fb7e1d375eb750f44ce3c0f4716e8e4f9acbce839ccc5a416275380630233109bc00fe237a297ffcce4943ae842494b2ae33dfaef8af25198894088a198c17d433b1aa7af6c3d48d095bb56c7c942cbda559a"
      ],
      "sequence": 4294967294
    }
  ],
  "vout": [
    {
      "value": 1.0,
      "n": 0,
      "scriptPubKey": {
        "asm": "OP_RETURN cea85dbe2aa450ca084045ab7b4cabe6cc8f04ed814a69d9551652381303226d 2a3fccf5fb32b6b110f6cac4c2dfc3d94a18552d945e9c068b68a94cf473927b0a1fecd5db12969130d6eae4e2ffe3f96a38750db47ebc26ab48896cd453b25b6a7f8cb5bb72f6f150b68a84829f83990a58156dd41edc46cb28e90cb433d23b4a5fac959b52d6d17096aaa4a2bfa3b92a78354df43efc66eb08c92c9413f21baabf4c757bb2363190764a44425f4359ca98d5ad14de1c860be829cc74f312fb8a9f6c555b921611b0566a64627f6379eab8f58d34fe3ca62bc809ec54d332dbeaff0c353bf27671d0360a04021f03198ad895ed549e5cc64ba8698c34b352bbcadf2c151bd25651f0162a24223f2339aaf8b5cd74be7ce66b8849ac1493729b2a3fccf5fb32b6b110f6cac4c2dfc3d94a18552d945e9c068b68a94cf473927b0a1fecd5db12969130d6eae4e2ffe3f96a38750db47ebc26ab48896cd453b25b6a7f8cb5bb72f6f150b68a84829f83990a58156dd41edc46cb28e90cb433d23b4a5fac959b52d6d17096aaa4a2bfa3b92a78354df43efc66eb08c92c9413f21baabf4c757bb2363190764a44425f4359ca98d5ad14de1c860be829cc74f312fb8a9f6c555b921611b0566a64627f6379eab8f58d34fe3ca62bc809ec54d332dbeaff0c353bf27671d0360a04021f03198ad895ed549e5cc64ba8698c34b352bbcadf2c151bd25651f0162a24223f2339aaf8b5cd74be7ce66b8849ac1493729b2a3fccf5fb32b6b110f6cac4c2dfc3d94a18552d945e9c068b68a94cf473927b0a1fecd5db12969130d6eae4e2ffe3f96a38750db47ebc26ab48896cd453b25b6a7f8cb5bb72f6f150b68a84829f83990a58156dd41edc46cb28e90cb433d23b4a5fac959b52d6d17096aaa4a2bfa3b92a78354df43efc66eb08c92c9413f21baabf4c757bb2363190764a44425f4359ca98d5ad14de1c860be829cc74f312fb8a9f6c555b921611b0566a64627f6379eab8f58d34fe3ca62bc809ec54d332dbeaff0c353bf27671d0360a04021f03198ad895ed549e5cc64ba8698c34b352bbcadf2c151bd25651f0162a24223f2339aaf8b5cd74be7ce66b8849ac1493729b2a3fccf5fb32b6b110f6cac4c2dfc3d94a18552d945e9c068b68a94cf473927b0a1fecd5db12969130d6eae4e2ffe3f96a38750db47ebc26ab48896cd453b25b6a7f8cb5bb72f6f150b68a84829f83990a58156dd41edc46cb28e90cb433d23b4a5fac959b52d6d17096aaa4a2bfa3b92a78354df43efc66eb08c92c9413f21baabf4c757bb2363190764a44425f4359ca98d5ad14de1c860be829cc74f312fb8a9f6c555b921611b0566a64627f6379eab8f58d34fe3ca62bc809ec54d332dbeaff0c353bf27671d0360a04021f03198ad895ed549e5cc64ba8698c34b352bbcadf2c151bd25651f0162a24223f2339aaf8b5cd74be7ce66b8849ac1493729b2a3fccf5fb32b6b110f6cac4c2dfc3d94a18552d945e9c068b68a94cf473927b0a1fecd5db12969130d6eae4e2ffe3f96a38750db47ebc26ab48896cd453b25b6a7f8cb5bb72f6f150b68a84829f83990a58156dd41edc46cb28e90cb433d23b4a5fac959b52d6d17096aaa4a2bfa3b92a78354df43efc66eb08c92c9413f21baabf4c757bb2363190764a44425f43593984e6a5552d50248cec56692afc26986c1771efb1c1a6d996fa95dfa802a92c",
        "hex": "6a20cea85dbe2aa450ca084045ab7b4cabe6cc8f04ed814a69d9551652381303226d4db0042a3fccf5fb32b6b110f6cac4c2dfc3d94a18552d945e9c068b68a94cf473927b0a1fecd5db12969130d6eae4e2ffe3f96a38750db47ebc26ab48896cd453b25b6a7f8cb5bb72f6f150b68a84829f83990a58156dd41edc46cb28e90cb433d23b4a5fac959b52d6d17096aaa4a2bfa3b92a78354df43efc66eb08c92c9413f21baabf4c757bb2363190764a44425f4359ca98d5ad14de1c860be829cc74f312fb8a9f6c555b921611b0566a64627f6379eab8f58d34fe3ca62bc809ec54d332dbeaff0c353bf27671d0360a04021f03198ad895ed549e5cc64ba8698c34b352bbcadf2c151bd25651f0162a24223f2339aaf8b5cd74be7ce66b8849ac1493729b2a3fccf5fb32b6b110f6cac4c2dfc3d94a18552d945e9c068b68a94cf473927b0a1fecd5db12969130d6eae4e2ffe3f96a38750db47ebc26ab48896cd453b25b6a7f8cb5bb72f6f150b68a84829f83990a58156dd41edc46cb28e90cb433d23b4a5fac959b52d6d17096aaa4a2bfa3b92a78354df43efc66eb08c92c9413f21baabf4c757bb2363190764a44425f4359ca98d5ad14de1c860be829cc74f312fb8a9f6c555b921611b0566a64627f6379eab8f58d34fe3ca62bc809ec54d332dbeaff0c353bf27671d0360a04021f03198ad895ed549e5cc64ba8698c34b352bbcadf2c151bd25651f0162a24223f2339aaf8b5cd74be7ce66b8849ac1493729b2a3fccf5fb32b6b110f6cac4c2dfc3d94a18552d945e9c068b68a94cf473927b0a1fecd5db12969130d6eae4e2ffe3f96a38750db47ebc26ab48896cd453b25b6a7f8cb5bb72f6f150b68a84829f83990a58156dd41edc46cb28e90cb433d23b4a5fac959b52d6d17096aaa4a2bfa3b92a78354df43efc66eb08c92c9413f21baabf4c757bb2363190764a44425f4359ca98d5ad14de1c860be829cc74f312fb8a9f6c555b921611b0566a64627f6379eab8f58d34fe3ca62bc809ec54d332dbeaff0c353bf27671d0360a04021f03198ad895ed549e5cc64ba8698c34b352bbcadf2c151bd25651f0162a24223f2339aaf8b5cd74be7ce66b8849ac1493729b2a3fccf5fb32b6b110f6cac4c2dfc3d94a18552d945e9c068b68a94cf473927b0a1fecd5db12969130d6eae4e2ffe3f96a38750db47ebc26ab48896cd453b25b6a7f8cb5bb72f6f150b68a84829f83990a58156dd41edc46cb28e90cb433d23b4a5fac959b52d6d17096aaa4a2bfa3b92a78354df43efc66eb08c92c9413f21baabf4c757bb2363190764a44425f4359ca98d5ad14de1c860be829cc74f312fb8a9f6c555b921611b0566a64627f6379eab8f58d34fe3ca62bc809ec54d332dbeaff0c353bf27671d0360a04021f03198ad895ed549e5cc64ba8698c34b352bbcadf2c151bd25651f0162a24223f2339aaf8b5cd74be7ce66b8849ac1493729b2a3fccf5fb32b6b110f6cac4c2dfc3d94a18552d945e9c068b68a94cf473927b0a1fecd5db12969130d6eae4e2ffe3f96a38750db47ebc26ab48896cd453b25b6a7f8cb5bb72f6f150b68a84829f83990a58156dd41edc46cb28e90cb433d23b4a5fac959b52d6d17096aaa4a2bfa3b92a78354df43efc66eb08c92c9413f21baabf4c757bb2363190764a44425f43593984e6a5552d50248cec56692afc26986c1771efb1c1a6d996fa95dfa802a92c",
        "type": "nulldata"
      }
    },
    {
      "value": 499974.5775,
      "n": 1,
      "scriptPubKey": {
        "asm": "1 539f0b990ca65809f14693e2e5e6f4d390a96ddf4c190595d60998010c6c23f9",
        "hex": "5120539f0b990ca65809f14693e2e5e6f4d390a96ddf4c190595d60998010c6c23f9",
        "reqSigs": 1,
        "type": "witness_v1_scripthash",
        "addresses": [
          "3QJmnh"
        ]
      }
    }
  ],
  "blockhash": "3f7b66b34673dd56727b9b27d02dfa4f8333ff75e8b72ddccb546061f2a7d063",
  "confirmations": 1,
  "time": 1764180681,
  "blocktime": 1764180681
}