{
  "hex": "010000000001016bfda37c97bcf73c82a714c4ae73cecf0dbc1afddcc0af33e365efc42e4db6ef0000000000feffffff0200e1f50500000000fdd5046a20f9e58919c7048e53d31310aea6c6186cf2800959d021fa7d1a62aa05c5223bef4db004d2ca83afa2622461e077e2f10f59f00327a1e961dae6d9fe0617485103896121f2eaa38f82420441c057c2d12f79d0230781c941fac6f9de2637687123a94101928ac3efe2226421a037a2b14f19b04367e1a9219aa699be4657081143c92161b2aae3cfc2024401801782916f39906347c18901ba86b99e6677283163e90141524a032f22e2a4e160f762718fd97083a72169e15a66597e8697c8d18309e1a1726a230f02c284c140d74251aff950a3870149c17a46795ea6b7e8f1a329c181120a436f62a2e4a120b72231cf9930c3e76129a11a26193ec6d78891c349a1e1322a634f4282c48100970211efb910e3c74109813a06391ee6f7a8b1e36981c1d2ca83afa2622461e077e2f10f59f00327a1e961dae6d9fe0617485103896121f2eaa38f82420441c057c2d12f79d0230781c941fac6f9de2637687123a94101928ac3efe2226421a037a2b14f19b04367e1a9219aa699be4657081143c92161b2aae3cfc2024401801782916f39906347c18901ba86b99e6677283163e90141524a032f22e2a4e160f762718fd97083a72169e15a66597e8697c8d18309e1a1726a230f02c284c140d74251aff950a3870149c17a46795ea6b7e8f1a329c181120a436f62a2e4a120b72231cf9930c3e76129a11a26193ec6d78891c349a1e1322a634f4282c48100970211efb910e3c74109813a06391ee6f7a8b1e36981c1d2ca83afa2622461e077e2f10f59f00327a1e961dae6d9fe0617485103896121f2eaa38f82420441c057c2d12f79d0230781c941fac6f9de2637687123a94101928ac3efe2226421a037a2b14f19b04367e1a9219aa699be4657081143c92161b2aae3cfc2024401801782916f39906347c18901ba86b99e6677283163e90141524a032f22e2a4e160f762718fd97083a72169e15a66597e8697c8d18309e1a1726a230f02c284c140d74251aff950a3870149c17a46795ea6b7e8f1a329c181120a436f62a2e4a120b72231cf9930c3e76129a11a26193ec6d78891c349a1e1322a634f4282c48100970211efb910e3c74109813a06391ee6f7a8b1e36981c1d2ca83afa2622461e077e2f10f59f00327a1e961dae6d9fe0617485103896121f2eaa38f82420441c057c2d12f79d0230781c941fac6f9de2637687123a94101928ac3efe2226421a037a2b14f19b04367e1a9219aa699be4657081143c92161b2aae3cfc2024401801782916f39906347c18901ba86b99e6677283163e90141524a032f22e2a4e160f762718fd97083a72169e15a66597e8697c8d18309e1a1726a230f02c284c140d74251aff950a3870149c17a46795ea6b7e8f1a329c181120a436f62a2e4a120b72231cf9930c3e76129a11a26193ec6d78891c349a1e1322a634f4282c48100970211efb910e3c74109813a06391ee6f7a8b1e36981c1d2ca83afa2622461e077e2f10f59f00327a1e961dae6d9fe0617485103896121f2eaa38f82420441c057c2d12f79d0230781c941fac6f9de2637687123a94101928ac3efe2226421a037a2b14f19b04367e1a9219aa699be4657081143c92161b2aae3cfc2024401801782916f39906347c18901ba86b99e6677283163e90141524a032f22e2a4e160f762718fd97083ccecb021f22661ec49cbf800177abdf7383ad90320243c391d0045717d263061d02296e4782d00002251202f91410b791b79c25b0ecc97ce2b21b0f0aaf65c4a3879b71f2237c82a36ed6102fd7509d02c1bcdc3c534f3d0374a700467989c04fbfdd19f164ab67997b4e3ce830531ec2d74da613ee2258ae83ed984c6fca70dbf3a2d01c5e423be3f104ef4525ff263191043004480a77b03cc4a522f63e137d73d2758fad01799554da59840e8bda0b94b99731e2e08b41a31ba30cfba887305604c64424b0ab2635ad4ad59c64107a1bc66592b1eb737505e38e89c00a8a0af8dcbac5a12a8606ca4301bc9d9a6b0ea8ec91bd1d23b93e8be0e855dfa0ddb20d1f28774e13bba99777fde1cadf169350770340f94e25aa1d5c6dc0f114122ddece8e007041c2806fedd8ba011dde4dc863c16ba8dc1b494077f8a5887a3eb64383b30d0ec0eb5dbf6c4e69aa61c43da828c030af747859375e20553087f12fb738447505429492156e69d58b25ed7bb86fa9ed29da874334628951c4015cffe3ccbc9bdb9a55b4d64ea017b34b5707a29bf85b5879b97cbea6ce78e25c4d648c551f14074bd00b920c72ac303ba859d2b09311e891483574e2f99e6a8425f5b49c5b6348dfd26a2d4d2c39afce9c068ebd592e8f3b3d276a430e58e736a74d7906db3fdf20ac5dad6a3528d0b75160683559b625c5c5a597b214c3cc917bd1736684520266b4e06a167fac9a202205815ee078806eb991f186108bf50e09ac051375f47a01f4780b09c20f6e628a9c9726286edc939fe311627db58fe6a741ad6f9d7c36cfd21dda17ff90ffbbcf1698d9619ca4302c1a5efc65ebe24602e68e08f2aa3c45d4c947ec55a74ce5c3154e50f5edd3e4442fbf3bc391354106ac41bc194ff4f92b8f85c92678d71eb40d7cce8e4f809d6f17714c400ed1982e4c9319e88c7ad96e81e2b8284173bdf84354686c5bc74da42047174984165dc6a652c24286ba65a589de825884aacc1d32f1c6b9b04b7aa7a7be190f2bce4cd40a618555857dbfe9043a0e2240a81b4f78e3743a32f0a74767b3080ea59778cfcb71f1ff1b7ab2e278f8f1e829e15bfda3f34d521d7be0fd492d6ac5b72ad9533ab9d4771174545cc70f38561df55e0074666b474f843990b451077b0b9e2fac2a670aff583fa0737a73ebd392721b6f07164f37f1ce712b8f9a7fdbdda482bda7d3f024a11bab5802bb3d50eb5d5daf053122a655de0b71fb3ffe6e987055b5caafda3f75dab0b2f6ccbb7461b05aef2cf6bcd4dffb5085edabeefc83a18692736405a5d0562154be67adacbdf4fdfbfed5e906b047509ed2a3261c04f33a9d802079410aca45725c4b86afa55193940795e6faeae35775ff7816b2236b7169d932f5f9ba7500fc7f27cc41dc958731813f0f900eb67995a82ef1b0cf43a234083fc3b1c7c89f3ce5151091666cb4022d4893df64c76572d1524a3dee4f80832833713081f68c4a1de0977977209c070b923f832c7f37f9b9de16176fe1e1af3cba02b0f1194a98503c015610a60c9e053dcae9d8a7d553a168f830e721658be08435549b34749ccb9d59509315eb018093758da551ff48be6e2caed04b546658420c0c129d120d29a465ceb29b3327f8b4dd10e0417c31d226088331a47926a4d540d24d41bcb1ed20d3dc9af617eebb19310b41178ac1935d5d09b1888a6942a2cab30fa7769fd9d99ed87f8587e05a62f5d81689613669ca702e184a3703b6139b99a29847f975900882b8a1d7ff804761db0cc874bca4feaa01a3647dcd5b0d01ac85c81c1702d340c613c8502e06a640ec4bda53581e63d4e9a2f6790d7d62edbdf15bc5f9f3a87e0fcc61104dc15801405bf6a87dacbbc9c9e86ff5397b1cbc86d9deaeb0a4e59c2f248378e93434c182d572e3043a6248dae2dd855bd04f8716bbf397d0c8430d9f92ee9767eb9e49486a277c2370998806223e5d1da6c07d16f82165b7e341f786a013b60261e867e0d44e80eee4e0455c44e540183b552bda9f634c456dd9ec17cd58f4ef097842a1b8235df06acd05c1ae525a4369d04f0dca04e5671b0eb2f36ec7e031053da9efef406bf41c2846fc5618aaab4b930e3b435ae98f8f18b8d5d7e7e33887b67fd2d930ea30214cdf2a78c320cf3f59190fa8ca04d3630e2324cecef7942c1cc872d99e6562333ce99837a43e37940efcb6f72c0f7626b737c5236b5bb381d231498c09ddd0b2f71f3a015122423e6cd84dd34e41152f139c3ea45bb70f865889f9d91727c1e0ef8bbf4c9924005d8f8d49e7a92c5c4fe540a2613ba25be87c1ed24649dade11f54aab8a865296ef73278351f1548f7d0071a24f77196f7310ccb2bdb4da2bf254d6cb8a94b5670244076008789152fab92a1455665354d106bcf9846fd1e5eae952daddbc70f6dd69b6f8a6413e7d6c8c02a283ee9f152cc7f6c64495e0ed3f109acaac9c171346c600ae5b7cc1bfb75462d197053048bbb97490a178b945a0e26e3af106d9d473d22c59708404f2eb02076aac0122920e94f750d175dc38d79510124d7e641176e97279336e6e3b0d2966d33f8ba7af357bce6c5565d394ab86add61c2ceab7335eb235cf3a01e91432c17f687d0d14a9237bd7c8478d8ee7517130ab6ad892eedc3f176ee0cd629f5f3d479f300733f5297c46b424b9e030718b1e256a8c15c740538ca2f0aee959a633d1ddf6783587ebba60b74ecc6dac23806cae6fd53dbf045ee311013987df40b8e01d3ab4c09da19e8c26f09f80f5a817dab23149d28903db09e385430c230cf4585be9c54553ae6a88bdcac743b25ac1dfc80dd23ab6dd9ea8b3f2f478fbc7372cc4763718cec6a1596e4be06ed46ea2656308418297533109308611170c225a1c4ea1e62760a240ba7573352e40fc765796664a4e0945f0e4b1840e4bf5bb0151a0a62e78173688b19f8d5967b9bd267057bc3a82b0c3d7ef274265916a696baeb74ccb5c05a1df1a0a560df97e89fb46664eb721f0f15323fa24a3557e2d24b7029fa5dbce505123a70f5b70593e83f585ed728b9f9e87e56d756e4ffddbea38e4aaf9eb3d338811b3e09680784c257d46f58abed11e3ab0d364bd5bcd9d4817c51defff1d01387998ceee971bb2a1622b387426a71f3e59295646b8f27abc82490a3c8bab3ad149883792cbc07d5cfe6f1b819962c3663bdd493263fb67f4430e8d2c9c8a2bb7b65934afc9e9cbeb94553fea6f84369aa6aac85b2b5d72d1c9cd01cc75bf33642d3443610ca2022ea46678eb3fa17647b15917c9ac87e50ebe7785b0d6c6b4325f3b28fc9a447269f58a7c64a1ae22da5bc54298b6618e1676c63280f77ebdfa7618b2bead7ca0376d705191c0ab8b107b2b79a567785cd80e5f6856d071e3d596879869697bfcc0e1947565f61666b6d9fb9d8dadddee5e8eaedf1fc09383d4057708dabcceef2fa050c1c34375c5d616376808da8b2bebfc2cff4fd000000000000000000000000000000000b202c4001fd21050084b0737a8d3a950a70f104ab0d2808bba4b85b0a0eb0b52a31277c149748398d9e44310a8c49e04f0e8271cd8231362a2fc65debb9cc5085676fd2a0b698d632cdd4eefa56d69bd83732c8dcd51eec54d6008d6131e5446aad24ada27951e9828c8cad73ea2c37a8b10e01e8ba932af02a393cb9f3c6982fff7c4caa660888325c601bc0a3a52bd377273274ebf45d79759740a51d57fbcf6685713401a2dbdce765276124285fb6bdc602f0a5768f8e6e7f38ab7c6ea53da1bd6e4ff63e94d4c85bc73ab0bb483a9e1a4e280d5d5fbef71425b2a8809b8a80f93ea3014b89d197914341cb4e55c0c85bde82b24dfb811c9e80c9cda6c1dda83d993d18c853df65183269e85f16cdba1b3e881a1d53ee8f0a94688fe91e69191ecb5bed378b80451a8d82503938e09bb6c64a83a7c44831bb008dde803acfbf5cee6ed3dd23dd6ca36ba11f0c61a19322652b30a73845298682d7d607338cc52d61d81a27826ceda3744df83ed4ca03883a11b57990f65b62a2aae2e7ed77b914f29de94087536e6c632750195bc44f11b1e4da849f1a61e4bcf9ff7903f4ec97de19c73c8549cae2237feb0c6246f1e258cae5ffee5d51ae55a4194845cbaaf536daabaee4a1b160e7d4c9a41aecc17ea0d61e5a296be5dc17eab4a732ada8cf3572f3ce670cd5f7bb756041084cd12e630aba143a90bcce080360f3b64d3a1eda7076173132353f7b367f2a043c4b1286114ae27e43bbded436937450fc0bb940fd1934b6f301969bc5fbc330d1e98a2b86d6e5d549c2aa172c61999bf644eb4ce038af77b9c29260d4fe4dd1ba5df31c019bc5cb8de93ba58a9a4c551d33fe94acbe3971bd87f51232f38fa770899ff36b65a98eb45c7ef9bf3d88e4cb3e5b3f0d36d5ca142f43e068d6019713c063f9c7fd3ae699434d9846d9aca26a9b914e0079010897af8fb8a66f6e25c6fae29c8b7f2153a61be7da994ab1d2811fdace17f936c5fbb30d650be66a3fdbab7ebf29003e7358d4f32a6472f9a6a2c7a7a2844ca358882a945d3f1a504ef62a4168b04bbcf94093d74f964ea5a658e923fae2a026efe643f508392c2cdcb0214060fcfc80b6bed7141bec844f4b5a1931d937a2bd0fb6c2e191f144e38b7183a2f0876670577d25481fe27d58e3bf65a2bb3e39c440b68b6189057e7545ac3fe5c7853743a8b2a03ffef3867f7359c02234bdf800597eae47517c405a38e5358c21ad250352aac28d517132ddf2cb1093d50bf454951cc6226e633b12fade3811af81f54706d1bca0590b33b5fa0cbd2005053f8ae17be3e9af34437fade89a0e65fa4e1d80fce9486c82edab64f087fc6f240f7f712342ac44f1ac0d9882c5112e2f77808a3f16407588690bdab196c8701761f553d71d804798f4d2247186bff8f387ce1e1c8395292f0b4787f7460632456e5ccd92e82e6bb12d97ed295cec36ee257ea99a6276cbd288569bd506b95da9f83d8198051cc494e26403bb688f08f0ee59760f75974cd30ad1b2bb48bb4da6f38e155f7da59a298a2873d3c1eb210baf57a084e348e0bda295afa987205f8368819851fda0646947a9eb352e32d20125cdfa1c31414ff2a2f1ffac2226b8d429bb83e005364fdd3a072e87a4906ff932883f25ca907b54373a1c71cd8c94bd8e7b6a0054bd345e29442074027950ed7054beebd5b7f133ab180adc75b06d8be59a6268cac7503645cd74887ae2dce79f6d2d2bfe78357a1c69e003f240031ce44370df1e3dbaae161dec60a91abcdca348987b3e4f322a801906b5f4db78a23b18e82b884d89b2839b75a4c2e3cb71b59f0421671cae18dfc21f2367e4761b078af2177d000000",
  "txid": "50f02ea5f1aaedcfad03bf7bfebd8c2f9191ec825d153b3a568583eeaf383af4",
  "hash": "4439a1fb6849659e833f7aa3f40d44b81a7a4b11b6bc20fef6c84ca321c7096b",
  "size": 5085,
  "vsize": 2278,
  "version": 1,
  "locktime": 125,
  "vin": [
    {
      "txid": "efb64d2ec4ef65e333afc0dcfd1abc0dcfce73aec414a7823cf7bc977ca3fd6b",
      "vout": 0,
      "scriptSig": {
        "asm": "",
        "hex": ""
      },
      "txinwitness": [
        "d02c1bcdc3c534f3d0374a700467989c04fbfdd19f164ab67997b4e3ce830531ec2d74da613ee2258ae83ed984c6fca70dbf3a2d01c5e423be3f104ef4525ff263191043004480a77b03cc4a522f63e137d73d2758fad01799554da59840e8bda0b94b99731e2e08b41a31ba30cfba887305604c64424b0ab2635ad4ad59c64107a1bc66592b1eb737505e38e89c00a8a0af8dcbac5a12a8606ca4301bc9d9a6b0ea8ec91bd1d23b93e8be0e855dfa0ddb20d1f28774e13bba99777fde1cadf169350770340f94e25aa1d5c6dc0f114122ddece8e007041c2806fedd8ba011dde4dc863c16ba8dc1b494077f8a5887a3eb64383b30d0ec0eb5dbf6c4e69aa61c43da828c030af747859375e20553087f12fb738447505429492156e69d58b25ed7bb86fa9ed29da874334628951c4015cffe3ccbc9bdb9a55b4d64ea017b34b5707a29bf85b5879b97cbea6ce78e25c4d648c551f14074bd00b920c72ac303ba859d2b09311e891483574e2f99e6a8425f5b49c5b6348dfd26a2d4d2c39afce9c068ebd592e8f3b3d276a430e58e736a74d7906db3fdf20ac5dad6a3528d0b75160683559b625c5c5a597b214c3cc917bd1736684520266b4e06a167fac9a202205815ee078806eb991f186108bf50e09ac051375f47a01f4780b09c20f6e628a9c9726286edc939fe311627db58fe6a741ad6f9d7c36cfd21dda17ff90ffbbcf1698d9619ca4302c1a5efc65ebe24602e68e08f2aa3c45d4c947ec55a74ce5c3154e50f5edd3e4442fbf3bc391354106ac41bc194ff4f92b8f85c92678d71eb40d7cce8e4f809d6f17714c400ed1982e4c9319e88c7ad96e81e2b8284173bdf84354686c5bc74da42047174984165dc6a652c24286ba65a589de825884aacc1d32f1c6b9b04b7aa7a7be190f2bce4cd40a618555857dbfe9043a0e2240a81b4f78e3743a32f0a74767b3080ea59778cfcb71f1ff1b7ab2e278f8f1e829e15bfda3f34d521d7be0fd492d6ac5b72ad9533ab9d4771174545cc70f38561df55e0074666b474f843990b451077b0b9e2fac2a670aff583fa0737a73ebd392721b6f07164f37f1ce712b8f9a7fdbdda482bda7d3f024a11bab5802bb3d50eb5d5daf053122a655de0b71fb3ffe6e987055b5caafda3f75dab0b2f6ccbb7461b05aef2cf6bcd4dffb5085edabeefc83a18692736405a5d0562154be67adacbdf4fdfbfed5e906b047509ed2a3261c04f33a9d802079410aca45725c4b86afa55193940795e6faeae35775ff7816b2236b7169d932f5f9ba7500fc7f27cc41dc958731813f0f900eb67995a82ef1b0cf43a234083fc3b1c7c89f3ce5151091666cb4022d4893df64c76572d1524a3dee4f80832833713081f68c4a1de0977977209c070b923f832c7f37f9b9de16176fe1e1af3cba02b0f1194a98503c015610a60c9e053dcae9d8a7d553a168f830e721658be08435549b34749ccb9d59509315eb018093758da551ff48be6e2caed04b546658420c0c129d120d29a465ceb29b3327f8b4dd10e0417c31d226088331a47926a4d540d24d41bcb1ed20d3dc9af617eebb19310b41178ac1935d5d09b1888a6942a2cab30fa7769fd9d99ed87f8587e05a62f5d81689613669ca702e184a3703b6139b99a29847f975900882b8a1d7ff804761db0cc874bca4feaa01a3647dcd5b0d01ac85c81c1702d340c613c8502e06a640ec4bda53581e63d4e9a2f6790d7d62edbdf15bc5f9f3a87e0fcc61104dc15801405bf6a87dacbbc9c9e86ff5397b1cbc86d9deaeb0a4e59c2f248378e93434c182d572e3043a6248dae2dd855bd04f8716bbf397d0c8430d9f92ee9767eb9e49486a277c2370998806223e5d1da6c07d16f82165b7e341f786a013b60261e867e0d44e80eee4e0455c44e540183b552bda9f634c456dd9ec17cd58f4ef097842a1b8235df06acd05c1ae525a4369d04f0dca04e5671b0eb2f36ec7e031053da9efef406bf41c2846fc5618aaab4b930e3b435ae98f8f18b8d5d7e7e33887b67fd2d930ea30214cdf2a78c320cf3f59190fa8ca04d3630e2324cecef7942c1cc872d99e6562333ce99837a43e37940efcb6f72c0f7626b737c5236b5bb381d231498c09ddd0b2f71f3a015122423e6cd84dd34e41152f139c3ea45bb70f865889f9d91727c1e0ef8bbf4c9924005d8f8d49e7a92c5c4fe540a2613ba25be87c1ed24649dade11f54aab8a865296ef73278351f1548f7d0071a24f77196f7310ccb2bdb4da2bf254d6cb8a94b5670244076008789152fab92a1455665354d106bcf9846fd1e5eae952daddbc70f6dd69b6f8a6413e7d6c8c02a283ee9f152cc7f6c64495e0ed3f109acaac9c171346c600ae5b7cc1bfb75462d197053048bbb97490a178b945a0e26e3af106d9d473d22c59708404f2eb02076aac0122920e94f750d175dc38d79510124d7e641176e97279336e6e3b0d2966d33f8ba7af357bce6c5565d394ab86add61c2ceab7335eb235cf3a01e91432c17f687d0d14a9237bd7c8478d8ee7517130ab6ad892eedc3f176ee0cd629f5f3d479f300733f5297c46b424b9e030718b1e256a8c15c740538ca2f0aee959a633d1ddf6783587ebba60b74ecc6dac23806cae6fd53dbf045ee311013987df40b8e01d3ab4c09da19e8c26f09f80f5a817dab23149d28903db09e385430c230cf4585be9c54553ae6a88bdcac743b25ac1dfc80dd23ab6dd9ea8b3f2f478fbc7372cc4763718cec6a1596e4be06ed46ea2656308418297533109308611170c225a1c4ea1e62760a240ba7573352e40fc765796664a4e0945f0e4b1840e4bf5bb0151a0a62e78173688b19f8d5967b9bd267057bc3a82b0c3d7ef274265916a696baeb74ccb5c05a1df1a0a560df97e89fb46664eb721f0f15323fa24a3557e2d24b7029fa5dbce505123a70f5b70593e83f585ed728b9f9e87e56d756e4ffddbea38e4aaf9eb3d338811b3e09680784c257d46f58abed11e3ab0d364bd5bcd9d4817c51defff1d01387998ceee971bb2a1622b387426a71f3e59295646b8f27abc82490a3c8bab3ad149883792cbc07d5cfe6f1b819962c3663bdd493263fb67f4430e8d2c9c8a2bb7b65934afc9e9cbeb94553fea6f84369aa6aac85b2b5d72d1c9cd01cc75bf33642d3443610ca2022ea46678eb3fa17647b15917c9ac87e50ebe7785b0d6c6b4325f3b28fc9a447269f58a7c64a1ae22da5bc54298b6618e1676c63280f77ebdfa7618b2bead7ca0376d705191c0ab8b107b2b79a567785cd80e5f6856d071e3d596879869697bfcc0e1947565f61666b6d9fb9d8dadddee5e8eaedf1fc09383d4057708dabcceef2fa050c1c34375c5d616376808da8b2bebfc2cff4fd000000000000000000000000000000000b202c4001",
        "0084b0737a8d3a950a70f104ab0d2808bba4b85b0a0eb0b52a31277c149748398d9e44310a8c49e04f0e8271cd8231362a2fc65debb9cc5085676fd2a0b698d632cdd4eefa56d69bd83732c8dcd51eec54d6008d6131e5446aad24ada27951e9828c8cad73ea2c37a8b10e01e8ba932af02a393cb9f3c6982fff7c4caa660888325c601bc0a3a52bd377273274ebf45d79759740a51d57fbcf6685713401a2dbdce765276124285fb6bdc602f0a5768f8e6e7f38ab7c6ea53da1bd6e4ff63e94d4c85bc73ab0bb483a9e1a4e280d5d5fbef71425b2a8809b8a80f93ea3014b89d197914341cb4e55c0c85bde82b24dfb811c9e80c9cda6c1dda83d993d18c853df65183269e85f16cdba1b3e881a1d53ee8f0a94688fe91e69191ecb5bed378b80451a8d82503938e09bb6c64a83a7c44831bb008dde803acfbf5cee6ed3dd23dd6ca36ba11f0c61a19322652b30a73845298682d7d607338cc52d61d81a27826ceda3744df83ed4ca03883a11b57990f65b62a2aae2e7ed77b914f29de94087536e6c632750195bc44f11b1e4da849f1a61e4bcf9ff7903f4ec97de19c73c8549cae2237feb0c6246f1e258cae5ffee5d51ae55a4194845cbaaf536daabaee4a1b160e7d4c9a41aecc17ea0d61e5a296be5dc17eab4a732ada8cf3572f3ce670cd5f7bb756041084cd12e630aba143a90bcce080360f3b64d3a1eda7076173132353f7b367f2a043c4b1286114ae27e43bbded436937450fc0bb940fd1934b6f301969bc5fbc330d1e98a2b86d6e5d549c2aa172c61999bf644eb4ce038af77b9c29260d4fe4dd1ba5df31c019bc5cb8de93ba58a9a4c551d33fe94acbe3971bd87f51232f38fa770899ff36b65a98eb45c7ef9bf3d88e4cb3e5b3f0d36d5ca142f43e068d6019713c063f9c7fd3ae699434d9846d9aca26a9b914e0079010897af8fb8a66f6e25c6fae29c8b7f2153a61be7da994ab1d2811fdace17f936c5fbb30d650be66a3fdbab7ebf29003e7358d4f32a6472f9a6a2c7a7a2844ca358882a945d3f1a504ef62a4168b04bbcf94093d74f964ea5a658e923fae2a026efe643f508392c2cdcb0214060fcfc80b6bed7141bec844f4b5a1931d937a2bd0fb6c2e191f144e38b7183a2f0876670577d25481fe27d58e3bf65a2bb3e39c440b68b6189057e7545ac3fe5c7853743a8b2a03ffef3867f7359c02234bdf800597eae47517c405a38e5358c21ad250352aac28d517132ddf2cb1093d50bf454951cc6226e633b12fade3811af81f54706d1bca0590b33b5fa0cbd2005053f8ae17be3e9af34437fade89a0e65fa4e1d80fce9486c82edab64f087fc6f240f7f712342ac44f1ac0d9882c5112e2f77808a3f16407588690bdab196c8701761f553d71d804798f4d2247186bff8f387ce1e1c8395292f0b4787f7460632456e5ccd92e82e6bb12d97ed295cec36ee257ea99a6276cbd288569bd506b95da9f83d8198051cc494e26403bb688f08f0ee59760f75974cd30ad1b2bb48bb4da6f38e155f7da59a298a2873d3c1eb210baf57a084e348e0bda295afa987205f8368819851fda0646947a9eb352e32d20125cdfa1c31414ff2a2f1ffac2226b8d429bb83e005364fdd3a072e87a4906ff932883f25ca907b54373a1c71cd8c94bd8e7b6a0054bd345e29442074027950ed7054beebd5b7f133ab180adc75b06d8be59a6268cac7503645cd74887ae2dce79f6d2d2bfe78357a1c69e003f240031ce44370df1e3dbaae161dec60a91abcdca348987b3e4f322a801906b5f4db78a23b18e82b884d89b2839b75a4c2e3cb71b59f0421671cae18dfc21f2367e4761b078af217"
      ],
      "sequence": 4294967294
    }
  ],
  "vout": [
    {
      "value": 1.0,
      "n": 0,
      "scriptPubKey": {
        "asm": "OP_RETURN f9e58919c7048e53d31310aea6c6186cf2800959d021fa7d1a62aa05c5223bef d2ca83afa2622461e077e2f10f59f00327a1e961dae6d9fe0617485103896121f2eaa38f82420441c057c2d12f79d0230781c941fac6f9de2637687123a94101928ac3efe2226421a037a2b14f19b04367e1a9219aa699be4657081143c92161b2aae3cfc2024401801782916f39906347c18901ba86b99e6677283163e90141524a032f22e2a4e160f762718fd97083a72169e15a66597e8697c8d18309e1a1726a230f02c284c140d74251aff950a3870149c17a46795ea6b7e8f1a329c181120a436f62a2e4a120b72231cf9930c3e76129a11a26193ec6d78891c349a1e1322a634f4282c48100970211efb910e3c74109813a06391ee6f7a8b1e36981c1d2ca83afa2622461e077e2f10f59f00327a1e961dae6d9fe0617485103896121f2eaa38f82420441c057c2d12f79d0230781c941fac6f9de2637687123a94101928ac3efe2226421a037a2b14f19b04367e1a9219aa699be4657081143c92161b2aae3cfc2024401801782916f39906347c18901ba86b99e6677283163e90141524a032f22e2a4e160f762718fd97083a72169e15a66597e8697c8d18309e1a1726a230f02c284c140d74251aff950a3870149c17a46795ea6b7e8f1a329c181120a436f62a2e4a120b72231cf9930c3e76129a11a26193ec6d78891c349a1e1322a634f4282c48100970211efb910e3c74109813a06391ee6f7a8b1e36981c1d2ca83afa2622461e077e2f10f59f00327a1e961dae6d9fe0617485103896121f2eaa38f82420441c057c2d12f79d0230781c941fac6f9de2637687123a94101928ac3efe2226421a037a2b14f19b04367e1a9219aa699be4657081143c92161b2aae3cfc2024401801782916f39906347c18901ba86b99e6677283163e90141524a032f22e2a4e160f762718fd97083a72169e15a66597e8697c8d18309e1a1726a230f02c284c140d74251aff950a3870149c17a46795ea6b7e8f1a329c181120a436f62a2e4a120b72231cf9930c3e76129a11a26193ec6d78891c349a1e1322a634f4282c48100970211efb910e3c74109813a06391ee6f7a8b1e36981c1d2ca83afa2622461e077e2f10f59f00327a1e961dae6d9fe0617485103896121f2eaa38f82420441c057c2d12f79d0230781c941fac6f9de2637687123a94101928ac3efe2226421a037a2b14f19b04367e1a9219aa699be4657081143c92161b2aae3cfc2024401801782916f39906347c18901ba86b99e6677283163e90141524a032f22e2a4e160f762718fd97083a72169e15a66597e8697c8d18309e1a1726a230f02c284c140d74251aff950a3870149c17a46795ea6b7e8f1a329c181120a436f62a2e4a120b72231cf9930c3e76129a11a26193ec6d78891c349a1e1322a634f4282c48100970211efb910e3c74109813a06391ee6f7a8b1e36981c1d2ca83afa2622461e077e2f10f59f00327a1e961dae6d9fe0617485103896121f2eaa38f82420441c057c2d12f79d0230781c941fac6f9de2637687123a94101928ac3efe2226421a037a2b14f19b04367e1a9219aa699be4657081143c92161b2aae3cfc2024401801782916f39906347c18901ba86b99e6677283163e90141524a032f22e2a4e160f762718fd97083ccecb021f22661ec49cbf800177abdf7383ad90320243c391d0045717d263061",
        "hex": "6a20f9e58919c7048e53d31310aea6c6186cf2800959d021fa7d1a62aa05c5223bef4db004d2ca83afa2622461e077e2f10f59f00327a1e961dae6d9fe0617485103896121f2eaa38f82420441c057c2d12f79d0230781c941fac6f9de2637687123a94101928ac3efe2226421a037a2b14f19b04367e1a9219aa699be4657081143c92161b2aae3cfc2024401801782916f39906347c18901ba86b99e6677283163e90141524a032f22e2a4e160f762718fd97083a72169e15a66597e8697c8d18309e1a1726a230f02c284c140d74251aff950a3870149c17a46795ea6b7e8f1a329c181120a436f62a2e4a120b72231cf9930c3e76129a11a26193ec6d78891c349a1e1322a634f4282c48100970211efb910e3c74109813a06391ee6f7a8b1e36981c1d2ca83afa2622461e077e2f10f59f00327a1e961dae6d9fe0617485103896121f2eaa38f82420441c057c2d12f79d0230781c941fac6f9de2637687123a94101928ac3efe2226421a037a2b14f19b04367e1a9219aa699be4657081143c92161b2aae3cfc2024401801782916f39906347c18901ba86b99e6677283163e90141524a032f22e2a4e160f762718fd97083a72169e15a66597e8697c8d18309e1a1726a230f02c284c140d74251aff950a3870149c17a46795ea6b7e8f1a329c181120a436f62a2e4a120b72231cf9930c3e76129a11a26193ec6d78891c349a1e1322a634f4282c48100970211efb910e3c74109813a06391ee6f7a8b1e36981c1d2ca83afa2622461e077e2f10f59f00327a1e961dae6d9fe0617485103896121f2eaa38f82420441c057c2d12f79d0230781c941fac6f9de2637687123a94101928ac3efe2226421a037a2b14f19b04367e1a9219aa699be4657081143c92161b2aae3cfc2024401801782916f39906347c18901ba86b99e6677283163e90141524a032f22e2a4e160f762718fd97083a72169e15a66597e8697c8d18309e1a1726a230f02c284c140d74251aff950a3870149c17a46795ea6b7e8f1a329c181120a436f62a2e4a120b72231cf9930c3e76129a11a26193ec6d78891c349a1e1322a634f4282c48100970211efb910e3c74109813a06391ee6f7a8b1e36981c1d2ca83afa2622461e077e2f10f59f00327a1e961dae6d9fe0617485103896121f2eaa38f82420441c057c2d12f79d0230781c941fac6f9de2637687123a94101928ac3efe2226421a037a2b14f19b04367e1a9219aa699be4657081143c92161b2aae3cfc2024401801782916f39906347c18901ba86b99e6677283163e90141524a032f22e2a4e160f762718fd97083a72169e15a66597e8697c8d18309e1a1726a230f02c284c140d74251aff950a3870149c17a46795ea6b7e8f1a329c181120a436f62a2e4a120b72231cf9930c3e76129a11a26193ec6d78891c349a1e1322a634f4282c48100970211efb910e3c74109813a06391ee6f7a8b1e36981c1d2ca83afa2622461e077e2f10f59f00327a1e961dae6d9fe0617485103896121f2eaa38f82420441c057c2d12f79d0230781c941fac6f9de2637687123a94101928ac3efe2226421a037a2b14f19b04367e1a9219aa699be4657081143c92161b2aae3cfc2024401801782916f39906347c18901ba86b99e6677283163e90141524a032f22e2a4e160f762718fd97083ccecb021f22661ec49cbf800177abdf7383ad90320243c391d0045717d263061",
        "type": "nulldata"
      }
    },
    {
      "value": 499972.5437,
      "n": 1,
      "scriptPubKey": {
        "asm": "1 2f91410b791b79c25b0ecc97ce2b21b0f0aaf65c4a3879b71f2237c82a36ed61",
        "hex": "51202f91410b791b79c25b0ecc97ce2b21b0f0aaf65c4a3879b71f2237c82a36ed61",
        "reqSigs": 1,
        "type": "witness_v1_scripthash",
        "addresses": [
          "3QJmnh"
        ]
      }
    }
  ],
  "blockhash": "e6a4adf54726245f4c34283d217923918cb1557d6baaa77edf2bc72597605551",
  "confirmations": 1,
  "time": 1764181118,
  "blocktime": 1764181118
}