{
  "hex": "010000000001015524b81bea5f5034eae8beea49452ce6f764b121aaa900f5877966365329d46f0000000000feffffff0250771315792d0000225120df5b88558abf8ef5fd4d49c6e1fad668eab7ca49fc07e0a0ac134c7225d2d79f00e1f50500000000fdd5046a20c0055d591288b308260e6fcf28ca9d844eab9dcd9840840c19bf98a63cfe08e54db004218f417bced2bb6e24ccc1d783b79ba67d4497ba4540b6089009770141d1695501af615beef29b4e04ece1f7a397bb865d64b79a65609628b029572161f1497561cf013b8e92fb2e648c8197c3f7dbe63d04d7fa0500f648d04937410191291541ef211baeb2db0e44aca1b7e3d7fbc61d24f7da2520d668f069176121b10935a10fc1fb4e523beea44c415703371b26fdc4173ac5c036881089f781c151e9d5812fe1db6e721bce846c617723173b06dde4371ae5e016a830a9d7a1e171c9f5e14f81bb0e127baee40c011743775b66bd84577a858076c850c9b7c18111a995c16fa19b2e325b8ec42c213763577b469da4775aa5a056e870e997e1a13189b5218f417bced2bb6e24ccc1d783b79ba67d4497ba4540b6089009770141d1695501af615beef29b4e04ece1f7a397bb865d64b79a65609628b029572161f1497561cf013b8e92fb2e648c8197c3f7dbe63d04d7fa0500f648d04937410191291541ef211baeb2db0e44aca1b7e3d7fbc61d24f7da2520d668f069176121b10935a10fc1fb4e523beea44c415703371b26fdc4173ac5c036881089f781c151e9d5812fe1db6e721bce846c617723173b06dde4371ae5e016a830a9d7a1e171c9f5e14f81bb0e127baee40c011743775b66bd84577a858076c850c9b7c18111a995c16fa19b2e325b8ec42c213763577b469da4775aa5a056e870e997e1a13189b5218f417bced2bb6e24ccc1d783b79ba67d4497ba4540b6089009770141d1695501af615beef29b4e04ece1f7a397bb865d64b79a65609628b029572161f1497561cf013b8e92fb2e648c8197c3f7dbe63d04d7fa0500f648d04937410191291541ef211baeb2db0e44aca1b7e3d7fbc61d24f7da2520d668f069176121b10935a10fc1fb4e523beea44c415703371b26fdc4173ac5c036881089f781c151e9d5812fe1db6e721bce846c617723173b06dde4371ae5e016a830a9d7a1e171c9f5e14f81bb0e127baee40c011743775b66bd84577a858076c850c9b7c18111a995c16fa19b2e325b8ec42c213763577b469da4775aa5a056e870e997e1a13189b5218f417bced2bb6e24ccc1d783b79ba67d4497ba4540b6089009770141d1695501af615beef29b4e04ece1f7a397bb865d64b79a65609628b029572161f1497561cf013b8e92fb2e648c8197c3f7dbe63d04d7fa0500f648d04937410191291541ef211baeb2db0e44aca1b7e3d7fbc61d24f7da2520d668f069176121b10935a10fc1fb4e523beea44c415703371b26fdc4173ac5c036881089f781c151e9d5812fe1db6e721bce846c617723173b06dde4371ae5e016a830a9d7a1e171c9f5e14f81bb0e127baee40c011743775b66bd84577a858076c850c9b7c18111a995c16fa19b2e325b8ec42c213763577b469da4775aa5a056e870e997e1a13189b5218f417bced2bb6e24ccc1d783b79ba67d4497ba4540b6089009770141d1695501af615beef29b4e04ece1f7a397bb865d64b79a65609628b029572161f1497561cf013b8e92fb2e648c8197c3f7dbe63d04d7fa0500f648d04937410191291541ef211baeb2db0e44aca1b7e3d7fbc61d24f7da2520d668f069176121b10935a10fc1fb4e523beea44c415703371b2611e9f0720246adeaeecb1cfbd68b94605563045b43cb22d613081b6df786175502fd75096bd8f75f8727a6aa696cf3f3ebab41b3f2d93599e7aa9ea88fca541fc33bd527a29ec07135fabf85d914ddfaacdbf55084f424f45dddd73fae15a33d5e7efd1ec66283f1496bf08f9eea51e250639e3483c924f3c5eb86a875119a3e21c118bbc40f05c76fd3088c2282cbcc93b6843a90118dd93cb9caf53d2decca0aae9c6df95f93fdfdaa7f57ee17c3de74b5af236590c28bf6da5d203b8690f1c45cfa9b06a1b7dba1647458eb83346c91d940a4d0a177388469aac52e4816d5063a14b4db9dbe994f331c22f381a83a6dc5fe96c255ed7e396c0d4a779b0721b6d744988fdbafec9c95a0ff4d676e28dadd3fc8893e6ce1a62ef1fe96e11c4b0ad9a7c01534e00f0c7de5a9e7cc8c5eededb7bdd48f520c8c99e5adab71133f1820a84a4098ac22fcaf8b53e5ec1ece641035012d7f158048654d39546a00b9a9747f93b32390c4d5552f5c486b5b8a6bd429de037044b91d73ae1edec32766bf100d6e6b9cecb749e54107e25a5325b9c1a0139e09fa29ee5cdf9d784098eda4fdb892263aba3966960ee593b4eb9833856d3c245229bf56dfc000e07da7c5d3f58083833e9c3cf495face59df2d996599f0ece318fde202b160240699823506b2c2db124cc6d3d3902310c663ba60e8efd481bd903084a18ab212bf0e151b065a599f347a742e2a9aa8c358a2153be404f2390594c6d9e257d79bc982fa9e4a87e3df108c38a0f05b9798cdf5935feb73d48d278450e11512258367ead81453e65d363e4ff5bcfdf7f66c5e73ceb6cb5ce22a51d523955060b184787437596ae75486b1cda9f81da5dd11054b6c421c333ff895db7f932983cb01a4663bd9ceb2ea880d497b3c6f3cf9c6ec39c33249a1af44d8c2ece5abe9bca202363806ef88f2bd3f1922bb5d3cc93365108ee662335f8164a7b994f8cfc11c3977f648b9bad86950af27487dbd2988defb9d3278a25d0f07c8640440eb884bf40aad1a633d85c3adcaa9dbcf5962d5b975914f6049513036c36bad3858534ee3dffb08c62de6e3c845b37e707e522813c24d4e211ffd70b4c3867cd7d02fc2b28cabd7926c26dca016c110786e536f02572281a76b57596ae26b8f9ffa5f1063a51ddee51332381308ac10b527c0942f0ca4f6cf44f52354002f73898cbd66a49270a9243b49708fc6aca81c0d51b3683339158755082ff343aa1ea0287dc9ee011b0cac50f32dfa259f0e1cfc0051573659f3fddc4bfd74a8d896089f284a377aeb2d6cac3b9fb08a0fe351c0b7dbf7a80a325162a52ed1a453c1f88abec4a9b941a2dacdb37833cc39d836f48c54258a507689fffc1fad1d4d4415c168a9672164b26989d3c03d7951f2fe7db929ee1d7f15303556c16dbe8e508faf51e2a94cffba9bfbed45d3fd76dfd9427f5964df24e49d8b1b25f9104ee44c3499c5d0b66a64a7bfd9838062ffd9dca1eaeae69879664adb5e7fbdac994de781c674a480ce793ffc0ea56f343b18a137433ac4d1d307b369a29c8dbe7028c507b89039c57734f601cb2fb813e254ec80a633e743f89b0512adf875430161d8bd61626bd43dec1d24e3365a94e0725f4317a50d2d6f55c9b0f30c89f2dfd1ba6ee78ead3ed7abed276fe87adbb66233a5b9ca12d746b26b64c038161d8df130150858c15ab14ff2d95e492ae76fe0aa78c4c97a9939fc78dbb0bce4384c90be04ac077a3ad621e5cfa22ae8aa13aab73fba47e317d08a300c7504e98b6ccd9cc5fae7942de677a008c9d348943072a8a80f5c2e437a9a0ce21037b61742dd5be63e161daa9c11cdb0ad81c7d1e398a73a00c367599139408f453d72c944aeed44d2d41680f11ee0b182befe4e264def3ad62fe02dc7b735a66f8a51070ad7a72e81bdd9498883045255076d6a3dc0dcc45ca024702c291221d41eeaee84bb63dec93910bd661f48b649c56f245331f0ec0d4fdf6a1e00d6995280a2c32859db85843a2dc13333e23744b73716c89d74854c1e2e398924f2de6985b0b6f2335808eecb868dc3001acca5d6ffd0f9b1c2fe7985aa4be8c80e464eba8e25d6c7fb3844655cc7c124f05f5f0fa81fabcb078e44c4b96c6f22a7e182688d898868c90d887acb36f816d9f3a15590a23e8941429a00c801b7735f8e8cbe301a778c379d1fa479e7e2b3fad20b9eb6813464ea4644aadd1c7740f95388469eb1090a4ca6776a0ba08990e8f96385d0c4f4d3d5481ceb31b67c8ef3221b28e8a2fb854e437b1cf4ae67c8ed65a1a5c0d67081b406b6488960c7e5fca20770258a07911bbdd74c4f1d0e1eb2d23b82cab8dc0435404cca224260f02971d7ffeca4365f1deac41292681b36452ad74b40faf8d79369d87fa5cca5d8730104b9b90f9635b3170b8d4425834a13d97d115ec877d4182848e943307fa73c9624565592896dd6874ad3d933a6833ea08a1773ea9d837b6fbc67cf82ced13839ead50f9bf8e5f2cc802a34fb27750caa1367a70d750fb4dcaadb264f95c00c8a045541873c33f4d98015798e4c8b0f8e5c5927ae7a47b31317f0288ff1d99cab4509721f470cd16a84000a532f58c98137afedbd1596a6409fe8a1b352cc7b8ab81a8282cd35793139169fe35434ea52b48a874ef9499904ca6fc074f1609e0a9fc1b6293a35b09760812fee9d88172e1df34432c300cebb74b9835e7585ddd3a75b05fd504ce270d604ddb0e77bc98ef5a6e637ab0c218541d1f57ccc6293a5a5c8f9c5fe385f54951709403e7fa652e193c448a35a9674bf7d30cd26920f698336e5aabeefc705a982439287122e4073451b60fdba0bf993b4bcc21c7c139f90d4bb7dc06f635e7ea36fd93694107ec7344dcafb2ff19490e0c267e08ff6b1bdbf76bf1bf4cc971be1b6ee149ef5862a94588a465fdfc7809991a474e917dc1f84dd4540ba300538c9aa38b10241cc4a305385626820e43c4ffef799d60a0dd796239503d40ea0fce08f3f54aaae12785b718d99f0e1c4351dac8f4d1407a128815cef0dd73d51e27077ecef302f5e265b30298f5ccbb32bb18169d43a290f82a431e2002a210e4e42f245ad36482fe67735e757ca3d33584c4e6cd21d19b097c4b6079f70cd394d3899d45405222179f664705f7ebd2107aedce2f085deac5c3021e391739fe111df9a9f778107eece0526d349148f1c389ae075b8a744167722af7ff4105664aeacd5bd69cf30efd668d0d8ee2a141ceecb8c57584c46737f5dd8038cfca7fe937bf0012bfbbfe3fdcb488df9ebee59e619e837b2d94802ca8946f1e3c82b715a5813eb07517c159c98090e1015191d3353595b65667c8fadc6c8e4effd0d16292d3064696f77808f969bacb2b8bcc3d8daf6131b21254f5658646566797d949ab3b4cbd5dae3f32f364a5f646872748bbbc4d8e0e50000000014293e4c01fd210500c56dc87c3489434381ef72874de949359d5848fc066763b4502b14a926d51ef79fd0e48a5ea2542d424f0916b718dfa4a798b6b55c9ffea43bcffd3724cce39b9b0d73984c59535fa5619dfa9408568b6fa77371826f140eeed07f13b6f23a30abc355a58445cc3b6f9be05e8c5e859734bd1ca15a525453ca3ddd34bb5f87c270d06cab0db841665a256a633fbfb5e2012fdcecaa6851e299b631dde97b55a43f19129583a38a411979bec873ad3a7d749dfb8fc75e02ffb06b46f28361ad4db1ea7d82eb45809a7f606f8aac3d993c91ff6c72d30a9b700b65aeef56a9f6fce121baedbb7def365e337bdf608ae7275a5b3d4212052b1b9130b4f727eef16da9f264b677306f51e32e07bfdb222bd474522c76c48e9696d21e91ae807fba5f59a73bd15415e6c2a8268ef8e642ad90a4f4eae29286463261c19f3bff3f81cd2555746defd4b81e7c4e9518cb9e346aaa9a7802cf015512e9b611cbbe0ac5ca8f454680be54b73d2d24ff5b272f53d5420b1e286445cdbf5bd8488ce46aa9e8265b88d1c333bcb4df0fdc9627b26799bba751e192da4e0f1fa64ecb37ebe130cda3eca006c0ecbbc1f783f8786fc9a6da353f08fa522ce632b02254262a216a6436fad88132d08f07efcd083d51ff19d802a307fccb0df0d25d1382f58497d6940841ae82fc9922d68493a29367789f99b73a7d5c9f900582d6a8ee7bfe876c2e3070b0e819c2d30901669c3627ab4ca6206c07a37f70bf865cbebba22c0f809791584914cef5feb8af1d9034a9917dc4711dadd7be176a5445490ac61b3db4620fe4d359d51512f6ae0d79ee20c1ea234ec653eeca9a628b3e8968069199b5da4d3217f19576d446ffc11e2821bd07acbaec066ac7a4501e77e0a0f6fc058251e8089a3a4df45c440e9766e38143f4921ee2259d0079d4a42bd3206462a5f63d442ce1e086f1f2920ca1bbff5dace3dc0047b2c3eeb19da0c8065732d39cd7673409a6aee4f3dc315e2e8b9c4ac86b9136b3f2865fe873d6c3456a4d0a5902272ab4c747d030e2b2b20c132297ba1c0fc6b494aef86b24999d69d52d2bfe1ee46baf60342fe7b05dd35126170519ee33be16c2c44dadbdb7805d038c269ceed0f758933e7495195680b67077e4e911d98c988b02456b973f8e04cf701c987156e4a0d8d597c4fd59c5e731909db483f1d0ede47d906bda5cdf16b36696271ff19cef8093675e194e9d164556e4acdfd9b2bdd267eb3dca482f9578a7e267cce5adde2e0ce9158e219e87dbbbc64d3736be3ed54784f7e3e87b45a061f8d21e4193e1c3f779e5033bd54da5a16e97ae0a08b3fdc8f15f3ce79540fdabd75e0cf8b33493c80ab5f3710369c3c4591695cf0ba6c39ea7f23defb82122b933f67c465d3340f5a3de8878a3178d1e381b6e292282b9978b6796a897fff5be0d0e95c8ea89e94e39576c66d9835a94aaffa349d7a1d10534df8ee1d5d328bd8e194fd1e4f33fb1bcdf2b0163fbf9274c5f619291034838159bf5445400ae14affe38321bf21a83f4baaa8f1faea62457831134c4cfe43790075c6443dc866d53ee3f495877343d33e05fd964541538d5404e1f6c74b510d66807e9304d36be916badd51f7434f40afe3bbbbe19bf525fdbd5a5fb2496e40bf0dc68ea6bc794f18ca7415b170e4c906697935208fff5fb2507513871d07a9a8f7b38aea7df1824ac4326fa92fdfba52ef2ce156805b4cc21ad899a99b81d8e831f255333881b816c834ada50bbb8b993e5cbe5dc633f28a6c5618e2c7f5d9f231c8eceb222f525e8490cbdc9d3719f93233e539ff75a5608e6fd31abf2f5ebea9e9f73400acc3b439775000000",
  "txid": "541b050b90f4987426219dc6f8ab506b4dcc22ac85261065d102a877a9fcbc47",
  "hash": "552cb92a34da135166d966028c6df222178c60dcc3292fd638052dde740baab4",
  "size": 5085,
  "vsize": 2278,
  "version": 1,
  "locktime": 117,
  "vin": [
    {
      "txid": "6fd4295336667987f500a9aa21b164f7e62c4549eabee8ea34505fea1bb82455",
      "vout": 0,
      "scriptSig": {
        "asm": "",
        "hex": ""
      },
      "txinwitness": [
        "6bd8f75f8727a6aa696cf3f3ebab41b3f2d93599e7aa9ea88fca541fc33bd527a29ec07135fabf85d914ddfaacdbf55084f424f45dddd73fae15a33d5e7efd1ec66283f1496bf08f9eea51e250639e3483c924f3c5eb86a875119a3e21c118bbc40f05c76fd3088c2282cbcc93b6843a90118dd93cb9caf53d2decca0aae9c6df95f93fdfdaa7f57ee17c3de74b5af236590c28bf6da5d203b8690f1c45cfa9b06a1b7dba1647458eb83346c91d940a4d0a177388469aac52e4816d5063a14b4db9dbe994f331c22f381a83a6dc5fe96c255ed7e396c0d4a779b0721b6d744988fdbafec9c95a0ff4d676e28dadd3fc8893e6ce1a62ef1fe96e11c4b0ad9a7c01534e00f0c7de5a9e7cc8c5eededb7bdd48f520c8c99e5adab71133f1820a84a4098ac22fcaf8b53e5ec1ece641035012d7f158048654d39546a00b9a9747f93b32390c4d5552f5c486b5b8a6bd429de037044b91d73ae1edec32766bf100d6e6b9cecb749e54107e25a5325b9c1a0139e09fa29ee5cdf9d784098eda4fdb892263aba3966960ee593b4eb9833856d3c245229bf56dfc000e07da7c5d3f58083833e9c3cf495face59df2d996599f0ece318fde202b160240699823506b2c2db124cc6d3d3902310c663ba60e8efd481bd903084a18ab212bf0e151b065a599f347a742e2a9aa8c358a2153be404f2390594c6d9e257d79bc982fa9e4a87e3df108c38a0f05b9798cdf5935feb73d48d278450e11512258367ead81453e65d363e4ff5bcfdf7f66c5e73ceb6cb5ce22a51d523955060b184787437596ae75486b1cda9f81da5dd11054b6c421c333ff895db7f932983cb01a4663bd9ceb2ea880d497b3c6f3cf9c6ec39c33249a1af44d8c2ece5abe9bca202363806ef88f2bd3f1922bb5d3cc93365108ee662335f8164a7b994f8cfc11c3977f648b9bad86950af27487dbd2988defb9d3278a25d0f07c8640440eb884bf40aad1a633d85c3adcaa9dbcf5962d5b975914f6049513036c36bad3858534ee3dffb08c62de6e3c845b37e707e522813c24d4e211ffd70b4c3867cd7d02fc2b28cabd7926c26dca016c110786e536f02572281a76b57596ae26b8f9ffa5f1063a51ddee51332381308ac10b527c0942f0ca4f6cf44f52354002f73898cbd66a49270a9243b49708fc6aca81c0d51b3683339158755082ff343aa1ea0287dc9ee011b0cac50f32dfa259f0e1cfc0051573659f3fddc4bfd74a8d896089f284a377aeb2d6cac3b9fb08a0fe351c0b7dbf7a80a325162a52ed1a453c1f88abec4a9b941a2dacdb37833cc39d836f48c54258a507689fffc1fad1d4d4415c168a9672164b26989d3c03d7951f2fe7db929ee1d7f15303556c16dbe8e508faf51e2a94cffba9bfbed45d3fd76dfd9427f5964df24e49d8b1b25f9104ee44c3499c5d0b66a64a7bfd9838062ffd9dca1eaeae69879664adb5e7fbdac994de781c674a480ce793ffc0ea56f343b18a137433ac4d1d307b369a29c8dbe7028c507b89039c57734f601cb2fb813e254ec80a633e743f89b0512adf875430161d8bd61626bd43dec1d24e3365a94e0725f4317a50d2d6f55c9b0f30c89f2dfd1ba6ee78ead3ed7abed276fe87adbb66233a5b9ca12d746b26b64c038161d8df130150858c15ab14ff2d95e492ae76fe0aa78c4c97a9939fc78dbb0bce4384c90be04ac077a3ad621e5cfa22ae8aa13aab73fba47e317d08a300c7504e98b6ccd9cc5fae7942de677a008c9d348943072a8a80f5c2e437a9a0ce21037b61742dd5be63e161daa9c11cdb0ad81c7d1e398a73a00c367599139408f453d72c944aeed44d2d41680f11ee0b182befe4e264def3ad62fe02dc7b735a66f8a51070ad7a72e81bdd9498883045255076d6a3dc0dcc45ca024702c291221d41eeaee84bb63dec93910bd661f48b649c56f245331f0ec0d4fdf6a1e00d6995280a2c32859db85843a2dc13333e23744b73716c89d74854c1e2e398924f2de6985b0b6f2335808eecb868dc3001acca5d6ffd0f9b1c2fe7985aa4be8c80e464eba8e25d6c7fb3844655cc7c124f05f5f0fa81fabcb078e44c4b96c6f22a7e182688d898868c90d887acb36f816d9f3a15590a23e8941429a00c801b7735f8e8cbe301a778c379d1fa479e7e2b3fad20b9eb6813464ea4644aadd1c7740f95388469eb1090a4ca6776a0ba08990e8f96385d0c4f4d3d5481ceb31b67c8ef3221b28e8a2fb854e437b1cf4ae67c8ed65a1a5c0d67081b406b6488960c7e5fca20770258a07911bbdd74c4f1d0e1eb2d23b82cab8dc0435404cca224260f02971d7ffeca4365f1deac41292681b36452ad74b40faf8d79369d87fa5cca5d8730104b9b90f9635b3170b8d4425834a13d97d115ec877d4182848e943307fa73c9624565592896dd6874ad3d933a6833ea08a1773ea9d837b6fbc67cf82ced13839ead50f9bf8e5f2cc802a34fb27750caa1367a70d750fb4dcaadb264f95c00c8a045541873c33f4d98015798e4c8b0f8e5c5927ae7a47b31317f0288ff1d99cab4509721f470cd16a84000a532f58c98137afedbd1596a6409fe8a1b352cc7b8ab81a8282cd35793139169fe35434ea52b48a874ef9499904ca6fc074f1609e0a9fc1b6293a35b09760812fee9d88172e1df34432c300cebb74b9835e7585ddd3a75b05fd504ce270d604ddb0e77bc98ef5a6e637ab0c218541d1f57ccc6293a5a5c8f9c5fe385f54951709403e7fa652e193c448a35a9674bf7d30cd26920f698336e5aabeefc705a982439287122e4073451b60fdba0bf993b4bcc21c7c139f90d4bb7dc06f635e7ea36fd93694107ec7344dcafb2ff19490e0c267e08ff6b1bdbf76bf1bf4cc971be1b6ee149ef5862a94588a465fdfc7809991a474e917dc1f84dd4540ba300538c9aa38b10241cc4a305385626820e43c4ffef799d60a0dd796239503d40ea0fce08f3f54aaae12785b718d99f0e1c4351dac8f4d1407a128815cef0dd73d51e27077ecef302f5e265b30298f5ccbb32bb18169d43a290f82a431e2002a210e4e42f245ad36482fe67735e757ca3d33584c4e6cd21d19b097c4b6079f70cd394d3899d45405222179f664705f7ebd2107aedce2f085deac5c3021e391739fe111df9a9f778107eece0526d349148f1c389ae075b8a744167722af7ff4105664aeacd5bd69cf30efd668d0d8ee2a141ceecb8c57584c46737f5dd8038cfca7fe937bf0012bfbbfe3fdcb488df9ebee59e619e837b2d94802ca8946f1e3c82b715a5813eb07517c159c98090e1015191d3353595b65667c8fadc6c8e4effd0d16292d3064696f77808f969bacb2b8bcc3d8daf6131b21254f5658646566797d949ab3b4cbd5dae3f32f364a5f646872748bbbc4d8e0e50000000014293e4c01",
        "00c56dc87c3489434381ef72874de949359d5848fc066763b4502b14a926d51ef79fd0e48a5ea2542d424f0916b718dfa4a798b6b55c9ffea43bcffd3724cce39b9b0d73984c59535fa5619dfa9408568b6fa77371826f140eeed07f13b6f23a30abc355a58445cc3b6f9be05e8c5e859734bd1ca15a525453ca3ddd34bb5f87c270d06cab0db841665a256a633fbfb5e2012fdcecaa6851e299b631dde97b55a43f19129583a38a411979bec873ad3a7d749dfb8fc75e02ffb06b46f28361ad4db1ea7d82eb45809a7f606f8aac3d993c91ff6c72d30a9b700b65aeef56a9f6fce121baedbb7def365e337bdf608ae7275a5b3d4212052b1b9130b4f727eef16da9f264b677306f51e32e07bfdb222bd474522c76c48e9696d21e91ae807fba5f59a73bd15415e6c2a8268ef8e642ad90a4f4eae29286463261c19f3bff3f81cd2555746defd4b81e7c4e9518cb9e346aaa9a7802cf015512e9b611cbbe0ac5ca8f454680be54b73d2d24ff5b272f53d5420b1e286445cdbf5bd8488ce46aa9e8265b88d1c333bcb4df0fdc9627b26799bba751e192da4e0f1fa64ecb37ebe130cda3eca006c0ecbbc1f783f8786fc9a6da353f08fa522ce632b02254262a216a6436fad88132d08f07efcd083d51ff19d802a307fccb0df0d25d1382f58497d6940841ae82fc9922d68493a29367789f99b73a7d5c9f900582d6a8ee7bfe876c2e3070b0e819c2d30901669c3627ab4ca6206c07a37f70bf865cbebba22c0f809791584914cef5feb8af1d9034a9917dc4711dadd7be176a5445490ac61b3db4620fe4d359d51512f6ae0d79ee20c1ea234ec653eeca9a628b3e8968069199b5da4d3217f19576d446ffc11e2821bd07acbaec066ac7a4501e77e0a0f6fc058251e8089a3a4df45c440e9766e38143f4921ee2259d0079d4a42bd3206462a5f63d442ce1e086f1f2920ca1bbff5dace3dc0047b2c3eeb19da0c8065732d39cd7673409a6aee4f3dc315e2e8b9c4ac86b9136b3f2865fe873d6c3456a4d0a5902272ab4c747d030e2b2b20c132297ba1c0fc6b494aef86b24999d69d52d2bfe1ee46baf60342fe7b05dd35126170519ee33be16c2c44dadbdb7805d038c269ceed0f758933e7495195680b67077e4e911d98c988b02456b973f8e04cf701c987156e4a0d8d597c4fd59c5e731909db483f1d0ede47d906bda5cdf16b36696271ff19cef8093675e194e9d164556e4acdfd9b2bdd267eb3dca482f9578a7e267cce5adde2e0ce9158e219e87dbbbc64d3736be3ed54784f7e3e87b45a061f8d21e4193e1c3f779e5033bd54da5a16e97ae0a08b3fdc8f15f3ce79540fdabd75e0cf8b33493c80ab5f3710369c3c4591695cf0ba6c39ea7f23defb82122b933f67c465d3340f5a3de8878a3178d1e381b6e292282b9978b6796a897fff5be0d0e95c8ea89e94e39576c66d9835a94aaffa349d7a1d10534df8ee1d5d328bd8e194fd1e4f33fb1bcdf2b0163fbf9274c5f619291034838159bf5445400ae14affe38321bf21a83f4baaa8f1faea62457831134c4cfe43790075c6443dc866d53ee3f495877343d33e05fd964541538d5404e1f6c74b510d66807e9304d36be916badd51f7434f40afe3bbbbe19bf525fdbd5a5fb2496e40bf0dc68ea6bc794f18ca7415b170e4c906697935208fff5fb2507513871d07a9a8f7b38aea7df1824ac4326fa92fdfba52ef2ce156805b4cc21ad899a99b81d8e831f255333881b816c834ada50bbb8b993e5cbe5dc633f28a6c5618e2c7f5d9f231c8eceb222f525e8490cbdc9d3719f93233e539ff75a5608e6fd31abf2f5ebea9e9f73400acc3b4397"
      ],
      "sequence": 4294967294
    }
  ],
  "vout": [
    {
      "value": 499980.6789,
      "n": 0,
      "scriptPubKey": {
        "asm": "1 df5b88558abf8ef5fd4d49c6e1fad668eab7ca49fc07e0a0ac134c7225d2d79f",
        "hex": "5120df5b88558abf8ef5fd4d49c6e1fad668eab7ca49fc07e0a0ac134c7225d2d79f",
        "reqSigs": 1,
        "type": "witness_v1_scripthash",
        "addresses": [
          "3QJmnh"
        ]
      }
    },
    {
      "value": 1.0,
      "n": 1,
      "scriptPubKey": {
        "asm": "OP_RETURN c0055d591288b308260e6fcf28ca9d844eab9dcd9840840c19bf98a63cfe08e5 218f417bced2bb6e24ccc1d783b79ba67d4497ba4540b6089009770141d1695501af615beef29b4e04ece1f7a397bb865d64b79a65609628b029572161f1497561cf013b8e92fb2e648c8197c3f7dbe63d04d7fa0500f648d04937410191291541ef211baeb2db0e44aca1b7e3d7fbc61d24f7da2520d668f069176121b10935a10fc1fb4e523beea44c415703371b26fdc4173ac5c036881089f781c151e9d5812fe1db6e721bce846c617723173b06dde4371ae5e016a830a9d7a1e171c9f5e14f81bb0e127baee40c011743775b66bd84577a858076c850c9b7c18111a995c16fa19b2e325b8ec42c213763577b469da4775aa5a056e870e997e1a13189b5218f417bced2bb6e24ccc1d783b79ba67d4497ba4540b6089009770141d1695501af615beef29b4e04ece1f7a397bb865d64b79a65609628b029572161f1497561cf013b8e92fb2e648c8197c3f7dbe63d04d7fa0500f648d04937410191291541ef211baeb2db0e44aca1b7e3d7fbc61d24f7da2520d668f069176121b10935a10fc1fb4e523beea44c415703371b26fdc4173ac5c036881089f781c151e9d5812fe1db6e721bce846c617723173b06dde4371ae5e016a830a9d7a1e171c9f5e14f81bb0e127baee40c011743775b66bd84577a858076c850c9b7c18111a995c16fa19b2e325b8ec42c213763577b469da4775aa5a056e870e997e1a13189b5218f417bced2bb6e24ccc1d783b79ba67d4497ba4540b6089009770141d1695501af615beef29b4e04ece1f7a397bb865d64b79a65609628b029572161f1497561cf013b8e92fb2e648c8197c3f7dbe63d04d7fa0500f648d04937410191291541ef211baeb2db0e44aca1b7e3d7fbc61d24f7da2520d668f069176121b10935a10fc1fb4e523beea44c415703371b26fdc4173ac5c036881089f781c151e9d5812fe1db6e721bce846c617723173b06dde4371ae5e016a830a9d7a1e171c9f5e14f81bb0e127baee40c011743775b66bd84577a858076c850c9b7c18111a995c16fa19b2e325b8ec42c213763577b469da4775aa5a056e870e997e1a13189b5218f417bced2bb6e24ccc1d783b79ba67d4497ba4540b6089009770141d1695501af615beef29b4e04ece1f7a397bb865d64b79a65609628b029572161f1497561cf013b8e92fb2e648c8197c3f7dbe63d04d7fa0500f648d04937410191291541ef211baeb2db0e44aca1b7e3d7fbc61d24f7da2520d668f069176121b10935a10fc1fb4e523beea44c415703371b26fdc4173ac5c036881089f781c151e9d5812fe1db6e721bce846c617723173b06dde4371ae5e016a830a9d7a1e171c9f5e14f81bb0e127baee40c011743775b66bd84577a858076c850c9b7c18111a995c16fa19b2e325b8ec42c213763577b469da4775aa5a056e870e997e1a13189b5218f417bced2bb6e24ccc1d783b79ba67d4497ba4540b6089009770141d1695501af615beef29b4e04ece1f7a397bb865d64b79a65609628b029572161f1497561cf013b8e92fb2e648c8197c3f7dbe63d04d7fa0500f648d04937410191291541ef211baeb2db0e44aca1b7e3d7fbc61d24f7da2520d668f069176121b10935a10fc1fb4e523beea44c415703371b2611e9f0720246adeaeecb1cfbd68b94605563045b43cb22d613081b6df7861755",
        "hex": "6a20c0055d591288b308260e6fcf28ca9d844eab9dcd9840840c19bf98a63cfe08e54db004218f417bced2bb6e24ccc1d783b79ba67d4497ba4540b6089009770141d1695501af615beef29b4e04ece1f7a397bb865d64b79a65609628b029572161f1497561cf013b8e92fb2e648c8197c3f7dbe63d04d7fa0500f648d04937410191291541ef211baeb2db0e44aca1b7e3d7fbc61d24f7da2520d668f069176121b10935a10fc1fb4e523beea44c415703371b26fdc4173ac5c036881089f781c151e9d5812fe1db6e721bce846c617723173b06dde4371ae5e016a830a9d7a1e171c9f5e14f81bb0e127baee40c011743775b66bd84577a858076c850c9b7c18111a995c16fa19b2e325b8ec42c213763577b469da4775aa5a056e870e997e1a13189b5218f417bced2bb6e24ccc1d783b79ba67d4497ba4540b6089009770141d1695501af615beef29b4e04ece1f7a397bb865d64b79a65609628b029572161f1497561cf013b8e92fb2e648c8197c3f7dbe63d04d7fa0500f648d04937410191291541ef211baeb2db0e44aca1b7e3d7fbc61d24f7da2520d668f069176121b10935a10fc1fb4e523beea44c415703371b26fdc4173ac5c036881089f781c151e9d5812fe1db6e721bce846c617723173b06dde4371ae5e016a830a9d7a1e171c9f5e14f81bb0e127baee40c011743775b66bd84577a858076c850c9b7c18111a995c16fa19b2e325b8ec42c213763577b469da4775aa5a056e870e997e1a13189b5218f417bced2bb6e24ccc1d783b79ba67d4497ba4540b6089009770141d1695501af615beef29b4e04ece1f7a397bb865d64b79a65609628b029572161f1497561cf013b8e92fb2e648c8197c3f7dbe63d04d7fa0500f648d04937410191291541ef211baeb2db0e44aca1b7e3d7fbc61d24f7da2520d668f069176121b10935a10fc1fb4e523beea44c415703371b26fdc4173ac5c036881089f781c151e9d5812fe1db6e721bce846c617723173b06dde4371ae5e016a830a9d7a1e171c9f5e14f81bb0e127baee40c011743775b66bd84577a858076c850c9b7c18111a995c16fa19b2e325b8ec42c213763577b469da4775aa5a056e870e997e1a13189b5218f417bced2bb6e24ccc1d783b79ba67d4497ba4540b6089009770141d1695501af615beef29b4e04ece1f7a397bb865d64b79a65609628b029572161f1497561cf013b8e92fb2e648c8197c3f7dbe63d04d7fa0500f648d04937410191291541ef211baeb2db0e44aca1b7e3d7fbc61d24f7da2520d668f069176121b10935a10fc1fb4e523beea44c415703371b26fdc4173ac5c036881089f781c151e9d5812fe1db6e721bce846c617723173b06dde4371ae5e016a830a9d7a1e171c9f5e14f81bb0e127baee40c011743775b66bd84577a858076c850c9b7c18111a995c16fa19b2e325b8ec42c213763577b469da4775aa5a056e870e997e1a13189b5218f417bced2bb6e24ccc1d783b79ba67d4497ba4540b6089009770141d1695501af615beef29b4e04ece1f7a397bb865d64b79a65609628b029572161f1497561cf013b8e92fb2e648c8197c3f7dbe63d04d7fa0500f648d04937410191291541ef211baeb2db0e44aca1b7e3d7fbc61d24f7da2520d668f069176121b10935a10fc1fb4e523beea44c415703371b2611e9f0720246adeaeecb1cfbd68b94605563045b43cb22d613081b6df7861755",
        "type": "nulldata"
      }
    }
  ],
  "blockhash": "443ef5589806c3570db60b1178f56898637f167918ce0f0236a27ac7d0512dc1",
  "confirmations": 1,
  "time": 1764179461,
  "blocktime": 1764179461
}