{
  "hex": "01000000000101564a0fd0808390ac6ee3f79d63ab1d215a9888a5c0ada4fbeb0bf6230b54c2ef0100000000feffffff0200e1f50500000000fdd5046a20085242a0522838329c7d7083dac15a2e0c6d85052fe32d68fb96faa3ac2419024db00465576849982bc67645511c064450fa413f953c4429b998ae7d868e075bca604e45774869b80be65665713c266470da611fb51c640999b88e5da6ae277bea406e25172809d86b863605115c460410ba017fd57c0469f9d8ee3dc6ce471b8a200e05370829f84ba61625317c6624309a215ff55c2449d9f8ce1de6ee673baa002ee5d7e8c918ab46f6c5d19c86c4d07ac1bf15bcc4a939182efd060e87db4ae0cec5f7c8e9388b66d6e5f1bca6e4f05ae19f359ce48919380edd262ea7fb6ac0eea597a88958eb06b68591dcc684903a81ff55fc84e979586ebd464ec79b0aa08e85b788a978cb2696a5b1fce6a4b01aa1df75dca4c959784e9d666ee7bb2a80ae65576849982bc67645511c064450fa413f953c4429b998ae7d868e075bca604e45774869b80be65665713c266470da611fb51c640999b88e5da6ae277bea406e25172809d86b863605115c460410ba017fd57c0469f9d8ee3dc6ce471b8a200e05370829f84ba61625317c6624309a215ff55c2449d9f8ce1de6ee673baa002ee5d7e8c918ab46f6c5d19c86c4d07ac1bf15bcc4a939182efd060e87db4ae0cec5f7c8e9388b66d6e5f1bca6e4f05ae19f359ce48919380edd262ea7fb6ac0eea597a88958eb06b68591dcc684903a81ff55fc84e979586ebd464ec79b0aa08e85b788a978cb2696a5b1fce6a4b01aa1df75dca4c959784e9d666ee7bb2a80ae65576849982bc67645511c064450fa413f953c4429b998ae7d868e075bca604e45774869b80be65665713c266470da611fb51c640999b88e5da6ae277bea406e25172809d86b863605115c460410ba017fd57c0469f9d8ee3dc6ce471b8a200e05370829f84ba61625317c6624309a215ff55c2449d9f8ce1de6ee673baa002ee5d7e8c918ab46f6c5d19c86c4d07ac1bf15bcc4a939182efd060e87db4ae0cec5f7c8e9388b66d6e5f1bca6e4f05ae19f359ce48919380edd262ea7fb6ac0eea597a88958eb06b68591dcc684903a81ff55fc84e979586ebd464ec79b0aa08e85b788a978cb2696a5b1fce6a4b01aa1df75dca4c959784e9d666ee7bb2a80ae65576849982bc67645511c064450fa413f953c4429b998ae7d868e075bca604e45774869b80be65665713c266470da611fb51c640999b88e5da6ae277bea406e25172809d86b863605115c460410ba017fd57c0469f9d8ee3dc6ce471b8a200e05370829f84ba61625317c6624309a215ff55c2449d9f8ce1de6ee673baa002ee5d7e8c918ab46f6c5d19c86c4d07ac1bf15bcc4a939182efd060e87db4ae0cec5f7c8e9388b66d6e5f1bca6e4f05ae19f359ce48919380edd262ea7fb6ac0eea597a88958eb06b68591dcc684903a81ff55fc84e979586ebd464ec79b0aa08e85b788a978cb2696a5b1fce6a4b01aa1df75dca4c959784e9d666ee7bb2a80ae65576849982bc67645511c064450fa413f953c4429b998ae7d868e075bca604e45774869b80be65665713c266470da611fb51c640999b88e5da6ae277bea406e25172809d86b863605115c460410ba017fd57c0469f9d8ee3dc6ce471b8a200e05370829f84ba61625317c6624309a215ff55c2449d9f8ce1de6ee673baa002ee5d7e8c918ab46f6c5d19c86c4d07ac116a2cd315a6a061b5219a3a933f077ce0f67769c05a1c354d7958931a0a84cd7b0767139792d00002251207a5f17c1d5cd49f4976db62fe19d031126b4bd27645099066eaf943ed6d8746702fd750932a314d57c9162713270f08e11de537b3119cc9200883d13ba9f812122c15d28fabcf358741d921ed7f6ae70f40652b9d6621667a16bc61a3a31b865163b0a7d3929de4280c76545eecd3577a4c8274ae23e7b55c3c6c45b7cd42b5a4c44dcaf2f862c75b76c82580befb405039294ae1e632b3793abbb80f263d13d17f7954c9dd28b78cfafa94a0301d91b83eaf6831b691c462ba978ecf32de1d4efcfd4eafa0a54a3018ebddecab6bc01c518257aa0070a5f3844186459e15d9f8fc0095bf9a5b28661f22cd9601cd0aa35069e0ab9b8a170a933ec7a392c50c629d3f95f410a44ab7632d5ebd7efc444d52d5ffddb43feace21d0b06407994f5d144ca51650b74addaebcf16d4b45eeafd7a5f7216161fd429175bfec8703102ca97b177a0d528309694781fbd98b265ffa44072b001dc92811276807e65c0516fb550cbe198f6d4d16ccd8ef928ed2a72df7442a2257334361c29db6593d6a138610dbe45192e503f9d34f870a7211c83acbdb0302a48636d86c453d59b67153fb86586ae47fc99be083e083f0f2f58476d19d2b234c4a710e2441b2db9a515e94e32e5d9bc1c584f6ece72b1b4e9848235867f5ebed5e29f1954675a7c5cc7f128778c1b4e694957b59a20914c3112a3be3cd39676ca918697cf2acba9ff9e025dd06da52804641a6cd9d85a6a1daf8772f43dcb980582027b14a099b8399f9ea51f99eaacdf83026ec12fb32c30521c2db5192513d6e8f3231356482dac21ffd3a42f9146761f35b080456401dfdaef583fcd5f241aa82297f7d85f4822e5177cd5d05b782a0f8b258d11550559e9cb71973478459f188b91aaf7eb203cf7b737db0d17ce014ff2759ee1b879e710f95dccda8da66ec41a0c56b2d693724396db10d255f2d9e70804a358f3697e593cd55d8296f33040a9539cdd8dfcc7c142915467e017c21cd356e21cc35236d7c1b9ead44314040e4d43f350829e952ce859e6af1ae1bc49c6266384dc59b113072c99e45c4629aef80ecddceec052413c201cd162538a33979646f3603a9ee9c680dd00620c5ded196ee5afda74d2c32b7084c6da1013fff1ee351323060b4225319ed1604eb1b26478c9a133525f1545e086b2ebf3ab4bcb7df5f86fede55833f6c51e2de4e8be24309879b5ee55b2bca03742c627594cf396464f32b9f0aea902e77746fdab70f4a0dd2a1333f8df8fc6a7998dd33baeb83221c0f6337ca9df19001f7c7ee4f20946d0c57e22b0761bc5316e99cc2188df5ffd9eb2cc95cf4dd90bfc6b6112a2dee0eae187f937c046c43c5e1a320c90bed92b8d3a97dd67f5c5081dd7c225660f90c58f1e59930cd0a961b7ab83764eed3501f21e70e0203e32521c747a3de8e4795af4fe82198a7f7a284aa0bd5261f08dbad4be32a7b9e4276facbdcbc78900d9584d0b78734f2c22df8a46a280e4d42a7877dbe4f9f31349ce72f9a07a37b8d540b1c622ab7e5e84cf131093e2d8897b14a18cadbf86c3ea048d55b620edae95f444fe76bc2d20011e8754520c3014d6718c2a7a0119917ade41ed421dad9db12434c7d1c1298b34d1a20cad35770f894dd5717c7a8dc53ac2d43fb398474d8175e6916d24c1e52d1a318fa3e49533f27c3728e6c334a317976701c6d6253abe6afcd4e427dea55080d055051f4471c32e075b091c618aad15331863f8eb1ad226fdb49ab6a84a3c1c11772e5cbb40b563f58b48cbe84a6ef600e0a4305bb9e27c289c7217a3d79a57fc38ad8e051220b319a7e8be0fd9607ffc83d9b2f237b17025793d1c24145b6a6ba109cb1c26603a91faada936f2794a876e19b93f182d1ef44fc3df78d3d56f03b3a746f1b0b34c3d845c877757e3da2cad48f7471de3fc7b92272b552787190f357c5f3838e88493579bcad07ca1d85aabf1454b1cb87a73f4cd3173ff1bd6660b9544b3819ae7bd40020f71f1ff1aed9e153bbbe599671c80fc13e731f3082dc61a8bbcffbd160ec48eef3c8ab96dd5270034f66f3dc9011548610499bd1b262da8b53357681ed8d69e88f79ca527e03e8f762e95d3b0af19bf2df4d128e82d1dda5cbdaf7f2676471b907f140c01f4e12fff51509f7882bec55a0009da9769a7ce1647ecaa270666cd8eb1081c70f1068c6f1258d1ca1900c6f3676d8776d211855cec64002b3a6f6868c9c9c7198572b3a6de85c78d6b1a21dc66b0c47e339a0565fc7b63bbafdaa2b765bafded5b39831a63d96b6d181661374c159de30355e540754e3abd5b08de30310c1a4b5e529e8876e91128d5785c6526ad0590bc1c370ccef7d64da758717beef382cc2c4485ff8def524ef09ecb3ae0db369c9eb0327572e43e574fd946215557425730fb00d659450fcca332ade473eef9685ff526a208d3b6d7f2ed81add904c04b1e88abcc70b1acacd8ae25891e334bd4c20ded75b57caef16b5c84b05cdf1c8db5c4870570a61ae39c5daba8145863333ac149b8ee67d00946e5a4ee3d641e9dd041381ef0e5448d6964b7b0f2519b9c115e944bdca276f4c30bec20380fea680712d9343a9eabd043f43d1c55d48c8dee4e41cb9884e8a2698878c63c7372b8f0914eee0fb2f0fc9e2b2407af4ded717d9de70249c9bb982d7a125db9d8ea509ee1942fad449b99fb5be666a26a512f6153f1c62eac157ff995adcd62a87bffae80a858b5c71c3dbfe8a048eb7191e85331b217adbbaa0edbaa3581efebbf99a2aae6344e23e13ed66ef8f92b2f895f2a39aa565a968fc9d4cc9e0b0a977a9157d08b7646c8a9bfedc54a653b2da3b205744b7bf5b630907b1bf482565308554fcf56f58ab08ceff3049a6c4867d2a373ed993a542e19b9f9e502b0e393aaaff0cd39413f14102a1bc13b161bcce0e18c998c7465bfa6edbcaca57e67fd8f8bb82a9d4beaa7c6fc60da7f3cd3b93a220086bfeee6e026659d3fea179ad4e94b3c781df2c76f06f75b3999cc4580eb247f818c53f06386103041b8114193d15bbad953de144b09c14b824889f6a44dc53462522f56032d2781f340e1401acfcbe5de50d17a3027648cc6941bda8bfd8d8ab0c706b32c81ce5d38e302febd7a179c1a75db0f4cce058717447b07833df1d24fca2d23cac82bd0119d547dd942d9d41864d38bf16a2bd96925ff263c29bec9ecb0c4b424292143ca0306c23486ac5977f4d7a6fc14269e6896e6ff417e74ca55259a81893d0aa74eeb1e0bc99d304fd360f40c3a90690fa27bc57c1efbb0be4a6894f94d2533eb7d59d19b02d842e7a7ec7f6d1ea3327a7de02ce26f32f03d0b2428595e6c7077838486daeffd090d1235464a619199a2bbbeccd3ecf0030b30393b3d405c6e949da1b2e4fe1732435c646873768aa3c0dce0000000000000000000000000000000000000000000000e1e2d3a01fd210500862f957bbc22c0cc9ff3f41fa2e188bef41a009429cef26e82ca72437ef3700a09a4c129a8827f6aafc5cb71bf4f454a166bd78fc44d62ee820ff36ffe6da536e89ac02a18db6f9620e7312fce8ca279cb198fd1972a492596f04a7beff7920a43cc8f980f17ce5b5b128b839cd45b9c44c4c7f1b546f581d4f4bd8eceeebb645db133206f1b7ca7afec376cf0628c4ebad10a489d7c7d57ce01667985e48b1ee32a2469b94e7a48ce61b687dca5228c00fd9ac81ab912161b663990043aeeca7e63a3c09213abb586629cf03fcca7f2b97105843e66c1d4a921b9394381edd9194fd413ea0534a92963b1afcff00d6303615046957ec2ad25b0c4325a221345da5353b465596c428578d901b1b7e64007ade5d0f04231e616e67b75a8bb311366a88253596ada55fe7d5d50f06aa1864cb9c4beed4ba09291eb539c14378150ba42da05ba90dd9aabdde31d39551f27bd47626bb875faea9191f2c092be6a0c18d4b95809ace5a49d1f7737a81721bf7b71ed273a851bcd49f65d6ba063e74ac166c91e7ecaafa23ed9432258ce0fb2885a0d67f68b047ee4967c1c8a320e76cf58963087fdbfda55dc661c17d2b3d8792eadacd5c2447c579a3128dfe2b28d02070ebe6dfee15e65712c74c7c39b3e3758cd602b8bdfc8afaf68b46d744c1e6e9f3d6e0abdc5c212bf6d7dd42284ad3b16fd3388db5efa0e1b56425729ba9a8e44dc2cb20dce8dcfbdf976c4eb804fdfecf0a3c10a5a3b6c18ceb1817ff95f97dc83d09b29572df241c50a4769da8203085675af0bf28470982f82f1e5765c1d6652e7305c7907da3fa2d02060c09cc3d887e7112be12937d52888d8c66202251b716e9e4bc3a92b748239aaf6f017e008757af1c3f3a1574b68593930ffc4dd5c042910bd2b7e034b98e82b8d2ef034d02fc300d485d1a72266c4da7c6a93e5766731ffb936d2b7fb56cd356afd0eaf74ba5a201e758b3da99628f25d78c85a39959d1739bd122c5bf75052302a541d177f95ee6dc9ef0d77a6b79f8449bc2a612e7b3463971cba7622d93a338ac0a338218586754e6c03a4083336c63a4e09d60b64534c52d8de5df6118de5d368c78ab2cad87d4d71e470d109d8dd5055a7eaca181e4a9561cc23810109919468d38a17b90ce4faf090f08fe071426819a9fa5bcda6e3223a5ef8457ffd074042550f11dd9969d3aa000686a3c6a633d0acd080bff52ad101338d8aee6e42b3a388daed8e112ada52b1292ea6cb0f76d576bd0a724149d82911b20f0f80e0e99528c06f109a213f08cbdd80477bb14bb6bf51e90f382182065e5633886be3b3344edc183964a3d1a9c4b804237fcb02449116f6243953e2999b2e6dec4f7b9b86643c77fd7ab1f0c20b18d9603db124ec9c0a297de95175dc493a0df88e7e2c7670c2876dd99ac8967378c249b96b66166b992770c96d185d6b43c3e7cdbf1f2b534bb1b071138067847a512b413cc6b689a56f39a67c3d59e53ba48b973cde0fcb73e467e9305ec3404573f35356601d76557ed03f52baa11ddfd98a2f6b3f26cd4839a3b282bbf3fe7c51dd326256e82a16f61d4f6ecfea1d62b33c168dd2e4aed9b72e9a2acf0e259831d802d9395363ab9793e7b1bab762547a065e428d75a88677bbe0e0f618e9e7ddc2a36128f9e4c83e369531201173747ad819c1e9bf0a9aa564833b4f0ee2f886040715b39a05aef73db99c015ca77097daa6271d2ad8b74d8818c80d09b9444b3463861630305573a2b3d24051086f4025dd416363cc70b74b7f2ee921e2cab40529baef2a715ef48ab3c80c471b872769e8afd1754dee095fdba2113a67818903cc16671170000000",
  "txid": "59c4cc469c7a5c7f31a6fb74ca88fffe4750f5322df4557854d425cf7b395a07",
  "hash": "01ffb27428de2af2f4362fc834b4b5eb82bd3bd3d3db2a815021eb12843203fe",
  "size": 5085,
  "vsize": 2278,
  "version": 1,
  "locktime": 112,
  "vin": [
    {
      "txid": "efc2540b23f60bebfba4adc0a588985a211dab639df7e36eac908380d00f4a56",
      "vout": 1,
      "scriptSig": {
        "asm": "",
        "hex": ""
      },
      "txinwitness": [
        "32a314d57c9162713270f08e11de537b3119cc9200883d13ba9f812122c15d28fabcf358741d921ed7f6ae70f40652b9d6621667a16bc61a3a31b865163b0a7d3929de4280c76545eecd3577a4c8274ae23e7b55c3c6c45b7cd42b5a4c44dcaf2f862c75b76c82580befb405039294ae1e632b3793abbb80f263d13d17f7954c9dd28b78cfafa94a0301d91b83eaf6831b691c462ba978ecf32de1d4efcfd4eafa0a54a3018ebddecab6bc01c518257aa0070a5f3844186459e15d9f8fc0095bf9a5b28661f22cd9601cd0aa35069e0ab9b8a170a933ec7a392c50c629d3f95f410a44ab7632d5ebd7efc444d52d5ffddb43feace21d0b06407994f5d144ca51650b74addaebcf16d4b45eeafd7a5f7216161fd429175bfec8703102ca97b177a0d528309694781fbd98b265ffa44072b001dc92811276807e65c0516fb550cbe198f6d4d16ccd8ef928ed2a72df7442a2257334361c29db6593d6a138610dbe45192e503f9d34f870a7211c83acbdb0302a48636d86c453d59b67153fb86586ae47fc99be083e083f0f2f58476d19d2b234c4a710e2441b2db9a515e94e32e5d9bc1c584f6ece72b1b4e9848235867f5ebed5e29f1954675a7c5cc7f128778c1b4e694957b59a20914c3112a3be3cd39676ca918697cf2acba9ff9e025dd06da52804641a6cd9d85a6a1daf8772f43dcb980582027b14a099b8399f9ea51f99eaacdf83026ec12fb32c30521c2db5192513d6e8f3231356482dac21ffd3a42f9146761f35b080456401dfdaef583fcd5f241aa82297f7d85f4822e5177cd5d05b782a0f8b258d11550559e9cb71973478459f188b91aaf7eb203cf7b737db0d17ce014ff2759ee1b879e710f95dccda8da66ec41a0c56b2d693724396db10d255f2d9e70804a358f3697e593cd55d8296f33040a9539cdd8dfcc7c142915467e017c21cd356e21cc35236d7c1b9ead44314040e4d43f350829e952ce859e6af1ae1bc49c6266384dc59b113072c99e45c4629aef80ecddceec052413c201cd162538a33979646f3603a9ee9c680dd00620c5ded196ee5afda74d2c32b7084c6da1013fff1ee351323060b4225319ed1604eb1b26478c9a133525f1545e086b2ebf3ab4bcb7df5f86fede55833f6c51e2de4e8be24309879b5ee55b2bca03742c627594cf396464f32b9f0aea902e77746fdab70f4a0dd2a1333f8df8fc6a7998dd33baeb83221c0f6337ca9df19001f7c7ee4f20946d0c57e22b0761bc5316e99cc2188df5ffd9eb2cc95cf4dd90bfc6b6112a2dee0eae187f937c046c43c5e1a320c90bed92b8d3a97dd67f5c5081dd7c225660f90c58f1e59930cd0a961b7ab83764eed3501f21e70e0203e32521c747a3de8e4795af4fe82198a7f7a284aa0bd5261f08dbad4be32a7b9e4276facbdcbc78900d9584d0b78734f2c22df8a46a280e4d42a7877dbe4f9f31349ce72f9a07a37b8d540b1c622ab7e5e84cf131093e2d8897b14a18cadbf86c3ea048d55b620edae95f444fe76bc2d20011e8754520c3014d6718c2a7a0119917ade41ed421dad9db12434c7d1c1298b34d1a20cad35770f894dd5717c7a8dc53ac2d43fb398474d8175e6916d24c1e52d1a318fa3e49533f27c3728e6c334a317976701c6d6253abe6afcd4e427dea55080d055051f4471c32e075b091c618aad15331863f8eb1ad226fdb49ab6a84a3c1c11772e5cbb40b563f58b48cbe84a6ef600e0a4305bb9e27c289c7217a3d79a57fc38ad8e051220b319a7e8be0fd9607ffc83d9b2f237b17025793d1c24145b6a6ba109cb1c26603a91faada936f2794a876e19b93f182d1ef44fc3df78d3d56f03b3a746f1b0b34c3d845c877757e3da2cad48f7471de3fc7b92272b552787190f357c5f3838e88493579bcad07ca1d85aabf1454b1cb87a73f4cd3173ff1bd6660b9544b3819ae7bd40020f71f1ff1aed9e153bbbe599671c80fc13e731f3082dc61a8bbcffbd160ec48eef3c8ab96dd5270034f66f3dc9011548610499bd1b262da8b53357681ed8d69e88f79ca527e03e8f762e95d3b0af19bf2df4d128e82d1dda5cbdaf7f2676471b907f140c01f4e12fff51509f7882bec55a0009da9769a7ce1647ecaa270666cd8eb1081c70f1068c6f1258d1ca1900c6f3676d8776d211855cec64002b3a6f6868c9c9c7198572b3a6de85c78d6b1a21dc66b0c47e339a0565fc7b63bbafdaa2b765bafded5b39831a63d96b6d181661374c159de30355e540754e3abd5b08de30310c1a4b5e529e8876e91128d5785c6526ad0590bc1c370ccef7d64da758717beef382cc2c4485ff8def524ef09ecb3ae0db369c9eb0327572e43e574fd946215557425730fb00d659450fcca332ade473eef9685ff526a208d3b6d7f2ed81add904c04b1e88abcc70b1acacd8ae25891e334bd4c20ded75b57caef16b5c84b05cdf1c8db5c4870570a61ae39c5daba8145863333ac149b8ee67d00946e5a4ee3d641e9dd041381ef0e5448d6964b7b0f2519b9c115e944bdca276f4c30bec20380fea680712d9343a9eabd043f43d1c55d48c8dee4e41cb9884e8a2698878c63c7372b8f0914eee0fb2f0fc9e2b2407af4ded717d9de70249c9bb982d7a125db9d8ea509ee1942fad449b99fb5be666a26a512f6153f1c62eac157ff995adcd62a87bffae80a858b5c71c3dbfe8a048eb7191e85331b217adbbaa0edbaa3581efebbf99a2aae6344e23e13ed66ef8f92b2f895f2a39aa565a968fc9d4cc9e0b0a977a9157d08b7646c8a9bfedc54a653b2da3b205744b7bf5b630907b1bf482565308554fcf56f58ab08ceff3049a6c4867d2a373ed993a542e19b9f9e502b0e393aaaff0cd39413f14102a1bc13b161bcce0e18c998c7465bfa6edbcaca57e67fd8f8bb82a9d4beaa7c6fc60da7f3cd3b93a220086bfeee6e026659d3fea179ad4e94b3c781df2c76f06f75b3999cc4580eb247f818c53f06386103041b8114193d15bbad953de144b09c14b824889f6a44dc53462522f56032d2781f340e1401acfcbe5de50d17a3027648cc6941bda8bfd8d8ab0c706b32c81ce5d38e302febd7a179c1a75db0f4cce058717447b07833df1d24fca2d23cac82bd0119d547dd942d9d41864d38bf16a2bd96925ff263c29bec9ecb0c4b424292143ca0306c23486ac5977f4d7a6fc14269e6896e6ff417e74ca55259a81893d0aa74eeb1e0bc99d304fd360f40c3a90690fa27bc57c1efbb0be4a6894f94d2533eb7d59d19b02d842e7a7ec7f6d1ea3327a7de02ce26f32f03d0b2428595e6c7077838486daeffd090d1235464a619199a2bbbeccd3ecf0030b30393b3d405c6e949da1b2e4fe1732435c646873768aa3c0dce0000000000000000000000000000000000000000000000e1e2d3a01",
        "00862f957bbc22c0cc9ff3f41fa2e188bef41a009429cef26e82ca72437ef3700a09a4c129a8827f6aafc5cb71bf4f454a166bd78fc44d62ee820ff36ffe6da536e89ac02a18db6f9620e7312fce8ca279cb198fd1972a492596f04a7beff7920a43cc8f980f17ce5b5b128b839cd45b9c44c4c7f1b546f581d4f4bd8eceeebb645db133206f1b7ca7afec376cf0628c4ebad10a489d7c7d57ce01667985e48b1ee32a2469b94e7a48ce61b687dca5228c00fd9ac81ab912161b663990043aeeca7e63a3c09213abb586629cf03fcca7f2b97105843e66c1d4a921b9394381edd9194fd413ea0534a92963b1afcff00d6303615046957ec2ad25b0c4325a221345da5353b465596c428578d901b1b7e64007ade5d0f04231e616e67b75a8bb311366a88253596ada55fe7d5d50f06aa1864cb9c4beed4ba09291eb539c14378150ba42da05ba90dd9aabdde31d39551f27bd47626bb875faea9191f2c092be6a0c18d4b95809ace5a49d1f7737a81721bf7b71ed273a851bcd49f65d6ba063e74ac166c91e7ecaafa23ed9432258ce0fb2885a0d67f68b047ee4967c1c8a320e76cf58963087fdbfda55dc661c17d2b3d8792eadacd5c2447c579a3128dfe2b28d02070ebe6dfee15e65712c74c7c39b3e3758cd602b8bdfc8afaf68b46d744c1e6e9f3d6e0abdc5c212bf6d7dd42284ad3b16fd3388db5efa0e1b56425729ba9a8e44dc2cb20dce8dcfbdf976c4eb804fdfecf0a3c10a5a3b6c18ceb1817ff95f97dc83d09b29572df241c50a4769da8203085675af0bf28470982f82f1e5765c1d6652e7305c7907da3fa2d02060c09cc3d887e7112be12937d52888d8c66202251b716e9e4bc3a92b748239aaf6f017e008757af1c3f3a1574b68593930ffc4dd5c042910bd2b7e034b98e82b8d2ef034d02fc300d485d1a72266c4da7c6a93e5766731ffb936d2b7fb56cd356afd0eaf74ba5a201e758b3da99628f25d78c85a39959d1739bd122c5bf75052302a541d177f95ee6dc9ef0d77a6b79f8449bc2a612e7b3463971cba7622d93a338ac0a338218586754e6c03a4083336c63a4e09d60b64534c52d8de5df6118de5d368c78ab2cad87d4d71e470d109d8dd5055a7eaca181e4a9561cc23810109919468d38a17b90ce4faf090f08fe071426819a9fa5bcda6e3223a5ef8457ffd074042550f11dd9969d3aa000686a3c6a633d0acd080bff52ad101338d8aee6e42b3a388daed8e112ada52b1292ea6cb0f76d576bd0a724149d82911b20f0f80e0e99528c06f109a213f08cbdd80477bb14bb6bf51e90f382182065e5633886be3b3344edc183964a3d1a9c4b804237fcb02449116f6243953e2999b2e6dec4f7b9b86643c77fd7ab1f0c20b18d9603db124ec9c0a297de95175dc493a0df88e7e2c7670c2876dd99ac8967378c249b96b66166b992770c96d185d6b43c3e7cdbf1f2b534bb1b071138067847a512b413cc6b689a56f39a67c3d59e53ba48b973cde0fcb73e467e9305ec3404573f35356601d76557ed03f52baa11ddfd98a2f6b3f26cd4839a3b282bbf3fe7c51dd326256e82a16f61d4f6ecfea1d62b33c168dd2e4aed9b72e9a2acf0e259831d802d9395363ab9793e7b1bab762547a065e428d75a88677bbe0e0f618e9e7ddc2a36128f9e4c83e369531201173747ad819c1e9bf0a9aa564833b4f0ee2f886040715b39a05aef73db99c015ca77097daa6271d2ad8b74d8818c80d09b9444b3463861630305573a2b3d24051086f4025dd416363cc70b74b7f2ee921e2cab40529baef2a715ef48ab3c80c471b872769e8afd1754dee095fdba2113a67818903cc166711"
      ],
      "sequence": 4294967294
    }
  ],
  "vout": [
    {
      "value": 1.0,
      "n": 0,
      "scriptPubKey": {
        "asm": "OP_RETURN 085242a0522838329c7d7083dac15a2e0c6d85052fe32d68fb96faa3ac241902 65576849982bc67645511c064450fa413f953c4429b998ae7d868e075bca604e45774869b80be65665713c266470da611fb51c640999b88e5da6ae277bea406e25172809d86b863605115c460410ba017fd57c0469f9d8ee3dc6ce471b8a200e05370829f84ba61625317c6624309a215ff55c2449d9f8ce1de6ee673baa002ee5d7e8c918ab46f6c5d19c86c4d07ac1bf15bcc4a939182efd060e87db4ae0cec5f7c8e9388b66d6e5f1bca6e4f05ae19f359ce48919380edd262ea7fb6ac0eea597a88958eb06b68591dcc684903a81ff55fc84e979586ebd464ec79b0aa08e85b788a978cb2696a5b1fce6a4b01aa1df75dca4c959784e9d666ee7bb2a80ae65576849982bc67645511c064450fa413f953c4429b998ae7d868e075bca604e45774869b80be65665713c266470da611fb51c640999b88e5da6ae277bea406e25172809d86b863605115c460410ba017fd57c0469f9d8ee3dc6ce471b8a200e05370829f84ba61625317c6624309a215ff55c2449d9f8ce1de6ee673baa002ee5d7e8c918ab46f6c5d19c86c4d07ac1bf15bcc4a939182efd060e87db4ae0cec5f7c8e9388b66d6e5f1bca6e4f05ae19f359ce48919380edd262ea7fb6ac0eea597a88958eb06b68591dcc684903a81ff55fc84e979586ebd464ec79b0aa08e85b788a978cb2696a5b1fce6a4b01aa1df75dca4c959784e9d666ee7bb2a80ae65576849982bc67645511c064450fa413f953c4429b998ae7d868e075bca604e45774869b80be65665713c266470da611fb51c640999b88e5da6ae277bea406e25172809d86b863605115c460410ba017fd57c0469f9d8ee3dc6ce471b8a200e05370829f84ba61625317c6624309a215ff55c2449d9f8ce1de6ee673baa002ee5d7e8c918ab46f6c5d19c86c4d07ac1bf15bcc4a939182efd060e87db4ae0cec5f7c8e9388b66d6e5f1bca6e4f05ae19f359ce48919380edd262ea7fb6ac0eea597a88958eb06b68591dcc684903a81ff55fc84e979586ebd464ec79b0aa08e85b788a978cb2696a5b1fce6a4b01aa1df75dca4c959784e9d666ee7bb2a80ae65576849982bc67645511c064450fa413f953c4429b998ae7d868e075bca604e45774869b80be65665713c266470da611fb51c640999b88e5da6ae277bea406e25172809d86b863605115c460410ba017fd57c0469f9d8ee3dc6ce471b8a200e05370829f84ba61625317c6624309a215ff55c2449d9f8ce1de6ee673baa002ee5d7e8c918ab46f6c5d19c86c4d07ac1bf15bcc4a939182efd060e87db4ae0cec5f7c8e9388b66d6e5f1bca6e4f05ae19f359ce48919380edd262ea7fb6ac0eea597a88958eb06b68591dcc684903a81ff55fc84e979586ebd464ec79b0aa08e85b788a978cb2696a5b1fce6a4b01aa1df75dca4c959784e9d666ee7bb2a80ae65576849982bc67645511c064450fa413f953c4429b998ae7d868e075bca604e45774869b80be65665713c266470da611fb51c640999b88e5da6ae277bea406e25172809d86b863605115c460410ba017fd57c0469f9d8ee3dc6ce471b8a200e05370829f84ba61625317c6624309a215ff55c2449d9f8ce1de6ee673baa002ee5d7e8c918ab46f6c5d19c86c4d07ac116a2cd315a6a061b5219a3a933f077ce0f67769c05a1c354d7958931a0a84cd7",
        "hex": "6a20085242a0522838329c7d7083dac15a2e0c6d85052fe32d68fb96faa3ac2419024db00465576849982bc67645511c064450fa413f953c4429b998ae7d868e075bca604e45774869b80be65665713c266470da611fb51c640999b88e5da6ae277bea406e25172809d86b863605115c460410ba017fd57c0469f9d8ee3dc6ce471b8a200e05370829f84ba61625317c6624309a215ff55c2449d9f8ce1de6ee673baa002ee5d7e8c918ab46f6c5d19c86c4d07ac1bf15bcc4a939182efd060e87db4ae0cec5f7c8e9388b66d6e5f1bca6e4f05ae19f359ce48919380edd262ea7fb6ac0eea597a88958eb06b68591dcc684903a81ff55fc84e979586ebd464ec79b0aa08e85b788a978cb2696a5b1fce6a4b01aa1df75dca4c959784e9d666ee7bb2a80ae65576849982bc67645511c064450fa413f953c4429b998ae7d868e075bca604e45774869b80be65665713c266470da611fb51c640999b88e5da6ae277bea406e25172809d86b863605115c460410ba017fd57c0469f9d8ee3dc6ce471b8a200e05370829f84ba61625317c6624309a215ff55c2449d9f8ce1de6ee673baa002ee5d7e8c918ab46f6c5d19c86c4d07ac1bf15bcc4a939182efd060e87db4ae0cec5f7c8e9388b66d6e5f1bca6e4f05ae19f359ce48919380edd262ea7fb6ac0eea597a88958eb06b68591dcc684903a81ff55fc84e979586ebd464ec79b0aa08e85b788a978cb2696a5b1fce6a4b01aa1df75dca4c959784e9d666ee7bb2a80ae65576849982bc67645511c064450fa413f953c4429b998ae7d868e075bca604e45774869b80be65665713c266470da611fb51c640999b88e5da6ae277bea406e25172809d86b863605115c460410ba017fd57c0469f9d8ee3dc6ce471b8a200e05370829f84ba61625317c6624309a215ff55c2449d9f8ce1de6ee673baa002ee5d7e8c918ab46f6c5d19c86c4d07ac1bf15bcc4a939182efd060e87db4ae0cec5f7c8e9388b66d6e5f1bca6e4f05ae19f359ce48919380edd262ea7fb6ac0eea597a88958eb06b68591dcc684903a81ff55fc84e979586ebd464ec79b0aa08e85b788a978cb2696a5b1fce6a4b01aa1df75dca4c959784e9d666ee7bb2a80ae65576849982bc67645511c064450fa413f953c4429b998ae7d868e075bca604e45774869b80be65665713c266470da611fb51c640999b88e5da6ae277bea406e25172809d86b863605115c460410ba017fd57c0469f9d8ee3dc6ce471b8a200e05370829f84ba61625317c6624309a215ff55c2449d9f8ce1de6ee673baa002ee5d7e8c918ab46f6c5d19c86c4d07ac1bf15bcc4a939182efd060e87db4ae0cec5f7c8e9388b66d6e5f1bca6e4f05ae19f359ce48919380edd262ea7fb6ac0eea597a88958eb06b68591dcc684903a81ff55fc84e979586ebd464ec79b0aa08e85b788a978cb2696a5b1fce6a4b01aa1df75dca4c959784e9d666ee7bb2a80ae65576849982bc67645511c064450fa413f953c4429b998ae7d868e075bca604e45774869b80be65665713c266470da611fb51c640999b88e5da6ae277bea406e25172809d86b863605115c460410ba017fd57c0469f9d8ee3dc6ce471b8a200e05370829f84ba61625317c6624309a215ff55c2449d9f8ce1de6ee673baa002ee5d7e8c918ab46f6c5d19c86c4d07ac116a2cd315a6a061b5219a3a933f077ce0f67769c05a1c354d7958931a0a84cd7",
        "type": "nulldata"
      }
    },
    {
      "value": 499986.7803,
      "n": 1,
      "scriptPubKey": {
        "asm": "1 7a5f17c1d5cd49f4976db62fe19d031126b4bd27645099066eaf943ed6d87467",
        "hex": "51207a5f17c1d5cd49f4976db62fe19d031126b4bd27645099066eaf943ed6d87467",
        "reqSigs": 1,
        "type": "witness_v1_scripthash",
        "addresses": [
          "3QJmnh"
        ]
      }
    }
  ],
  "blockhash": "0588000bb82f4b14ca9e4626330a5c84a7bb9e1c31fd2ade5c3732d80cc4fd85",
  "confirmations": 1,
  "time": 1764178356,
  "blocktime": 1764178356
}