{
  "hex": "01000000000101efc040c5a3e75145f86fb359f9f0a8f0f2a764320ed08618e68678219245fba60000000000feffffff0200e1f50500000000fdd5046a20dcab2976bd732112fc1c7da0fe7c104e045edcfd561541d5e34c8f6ca97706a84db0044259db5e676b80d99d503a625941f894631f75ce6460edb0ad151ac8cf2f8d9a6279fb7e474ba0f9bd701a427961d8b4433f55ee4440cd908d353ae8ef0fadba02199b1e272bc099dd107a221901b8d4235f358e2420adf0ed555a888f6fcdda2239bb3e070be0b9fd305a02392198f4037f15ae04008dd0cd757aa8af4fedfac2d95bdee7eb00591dd0bae2d9c17814e39ff54ee4e06d302d959a484faf0d1ae2f97bfec7cb20793df09ac2f9e15834c3bfd56ec4c04d100db5ba686f8f2d3a82991b9ea7ab40195d90faa299813854a3dfb50ea4a02d706dd5da080fef4d5aa2b93bbe878b60397db0da82b9a1187483ff952e84800d504df5fa282fcf6d7a4259db5e676b80d99d503a625941f894631f75ce6460edb0ad151ac8cf2f8d9a6279fb7e474ba0f9bd701a427961d8b4433f55ee4440cd908d353ae8ef0fadba02199b1e272bc099dd107a221901b8d4235f358e2420adf0ed555a888f6fcdda2239bb3e070be0b9fd305a02392198f4037f15ae04008dd0cd757aa8af4fedfac2d95bdee7eb00591dd0bae2d9c17814e39ff54ee4e06d302d959a484faf0d1ae2f97bfec7cb20793df09ac2f9e15834c3bfd56ec4c04d100db5ba686f8f2d3a82991b9ea7ab40195d90faa299813854a3dfb50ea4a02d706dd5da080fef4d5aa2b93bbe878b60397db0da82b9a1187483ff952e84800d504df5fa282fcf6d7a4259db5e676b80d99d503a625941f894631f75ce6460edb0ad151ac8cf2f8d9a6279fb7e474ba0f9bd701a427961d8b4433f55ee4440cd908d353ae8ef0fadba02199b1e272bc099dd107a221901b8d4235f358e2420adf0ed555a888f6fcdda2239bb3e070be0b9fd305a02392198f4037f15ae04008dd0cd757aa8af4fedfac2d95bdee7eb00591dd0bae2d9c17814e39ff54ee4e06d302d959a484faf0d1ae2f97bfec7cb20793df09ac2f9e15834c3bfd56ec4c04d100db5ba686f8f2d3a82991b9ea7ab40195d90faa299813854a3dfb50ea4a02d706dd5da080fef4d5aa2b93bbe878b60397db0da82b9a1187483ff952e84800d504df5fa282fcf6d7a4259db5e676b80d99d503a625941f894631f75ce6460edb0ad151ac8cf2f8d9a6279fb7e474ba0f9bd701a427961d8b4433f55ee4440cd908d353ae8ef0fadba02199b1e272bc099dd107a221901b8d4235f358e2420adf0ed555a888f6fcdda2239bb3e070be0b9fd305a02392198f4037f15ae04008dd0cd757aa8af4fedfac2d95bdee7eb00591dd0bae2d9c17814e39ff54ee4e06d302d959a484faf0d1ae2f97bfec7cb20793df09ac2f9e15834c3bfd56ec4c04d100db5ba686f8f2d3a82991b9ea7ab40195d90faa299813854a3dfb50ea4a02d706dd5da080fef4d5aa2b93bbe878b60397db0da82b9a1187483ff952e84800d504df5fa282fcf6d7a4259db5e676b80d99d503a625941f894631f75ce6460edb0ad151ac8cf2f8d9a6279fb7e474ba0f9bd701a427961d8b4433f55ee4440cd908d353ae8ef0fadba02199b1e272bc099dd107a221901b8d4235f358e2420adf0ed555a888f6fcdda2239bb3e070be0b9fd305a02392198f4037f15ae04008dd0cd757aa8af4fedfac2d95bdee7eb00591dd0bae2d9c178148be255d024e870904e042fbb087c10ba3056036ab79bdd48f0508bde3f397cb1407886de782d000022512066afae2213bd93a5fd2b50f6a1eb65f751bdaadb5dc00fe90160e2712568866e02fd7509c841ca750cb25e55b7d72c428efdc0b162a4be464d8650ecd558ae9f59a9e0ae6aa2631bd35f34a70d5f9b78d391dc0f2f90a8059b7e5ae299971912d4090594b18b65e7694d13c69555518c3822ec9e4587b30c958f7ccb0f7341ad86e2decd1cb400b301e7dff59337b23babe3cc59e6fa50f334b39f75e2566a260b002dfb114451181d3202eb70c0bf9973389106014e87ff88797324c465ec96d34e6f0ca40baf2e5885565c6989e5f54b31d8f75637209ebbdb6d922bfa3c491e3443d077e365c0d2bf5385e2d1831efd640baca04e8eafab3673639da46c2738ffb0685aefd1d7cdac9f175773a8b515fa2f44cd5e465a5d495c6f2d5722d130bdb8143b8645c2f2c1ffee5eb515a5cfe5d2aacd1f2cad5723803ba6c4291240b721d3de2d18cec7b865e7b52a99a5c89edf3d1dd7d46b60d48e9c1ef8e5d105fe6fd95474faf367408d90e523eded34f69d63f0cd53f30b9de623cb3c935da2b2af5493cac59208ade1c5576867c686350e54655946899f04fd2e7944e3811640ccc7eaac00f3fbaa7812cb04287310a00d5aa4a4cc08bd149d21d54efca61df898af94bffbe53c7dde26dc4213ad0d18c4f2cb4f8d85ddfe6b13bde5946f6d21b696b95ed921169bf4c5d23cf215a171299ff3782fec148e57a8a80b63fcd51cf1117331b5cb77931554306351c142b7dd69c6e3bb7824c1c293593c2ad7866e4ff875278a5b47b17096055eb711a104e41e4b0fd9aa6c565e2a9f81e9a77f23be6e45fa3434bd794a0e46899322705f523363ad1c68ff1b438dddddfcdce11d26361e3b8fbd83762b27795e6bde65b8b8580d9e8d386e1be783962864f51bf36004193c15902ee015c6501b3e588d7dcbf10a97e521449d785c9e9022f4e3a71d4b14b7544826690a82982daacc17dfcad6b2c3b2960c5f33097c2e922d3d272f8d1973d4552294f951632552c172eee77eabb0260de260b421ccfb9a9510c1965fff9d53dffeac680f9b91581e64dd1a6db65a9aa02a7fb6781d4cf3e4fb283ea516efee72568b78803ab330d5380ce5ccee9372020a8450aa52abcbef390dcc5262054b50c742cad433ad4d6c1145bedd18d6e9fe39a943dbabe92e462d6f358ffc7fd154091a5af201628cd0fff4ea7f02de5e81c88ae6d2896b98b8d0dadcd36958e32c6497067e4444842657ded62272a68b1b460ef0fd7fe38bc1f8e4a344d62505811c52377a4fdc79f5a7f6fea80598d9196b3184bd6b6fd7687ed2c3e757db8227f43ccd8d7531eec0e80a8140be4d6b6741ea70bbf1f094a7634ebfcb136b19fc1563c79f8e82fea2c521a1e8b2c1f3f5a8f449b9ae8ea7b85c3e5b415eae337c4e7f36690f14165f9df0e4f125436c7773e06b76925dfa0b3b580de0292fa9dc3c0cc78ca854e92d48a12408e6396b3e785fce2da7311a74aabcffce2a6c8c958e71d37051aa37a598daafd49b56a54b0cba3a2c12d60bd5bcbbf14a4d5cc0ff9dd01e25bea4afca1ac898a7bbb06d2c117a2d643d1b61599b5b8f4beeacf71aee4896372236926117745fd41ff2ac96872dedc5da346bf1b02836d77cc74a14600358ee3cdfb2eaa271132e68d864855319242eb0b67d70def72490eb4f4f7d25d840ec7bc848e26b5570a6e727c16e7934052f697b7e8b754ad30b54f35621e2f9d112ca9f56acff3174393059b0b0945cc3b48cde0edf1f8be6fa084b66e79a468948d8e69fc209b5df9ad615b5a5b83597b9325036043d83fef389d36f7fa12a8de3ac6ca6029f083eccb5c077fb4640b7f41ecc0b9b99cb4f3b7c11e0fb9405ad1b4d05ffb726645b2778573f8fe5c8b7e4760950c255c3220594a20900cf0993a75e812573a17bbc79bca7622b9a648e997fc04a9451e63cc1db45cce76f62adba3c4a6da69e88335cdbf558184f8b79645826cf153f9c6cba9aac0a9e289f61088d5b96e061634950137b671e6b5c883ed35e85cc3ab2764e21a185927fdfc30fe7610710a70490fa3c39f6dccd525ab03c3c13a2d417b0eebe0223d70cf655f17d2bf717024bae8c9196a41320d0678a8bb410488f5eda7463a4a7450663b5ee853611bd21ca8eba96121a833e9766a13e4a79957101bf778b9e14600d7c99bc1332cad3bd555264e10cd70693dacb709c366b227ace1686a9a690184c6acbd1ab9851d690ada2886ca46cceaebd63d316c574dac718075308c742ea839d3700711c319753f0b495bdf9edfb717c5ecec7617f14b9e01ca36be49955f84dbae5d710b95df36985cdb374864e3fa9a1a4f6fbe6ef1ff59c2385ae86eff28ab092401b31a479268ab0d54b3bc1adbbab36155d1f994bed68c53f5504d6233ed51b49b805e90a507780e75b42fa0208fd8c8a58b5d9929e2e4cdb996cb0d1f7bdd65291a70eaa6bcdacd4ddfcb44c748715d90d4fa609028178004f9b78c99c8c47a8580428849154a0eaeeda45a845b15650e35724be310b97d611dd073bf2e5dced80dd876cc4d2ab6d0b69c1c4fe5f58f38409235d99af2420a1aed8637219ecec65e4c510d88310201fde71cd24ce17bc89e3b43abd3b6fe4c0d97a31363da6e6aab5a4dbce6449b8aa810126809964f7a4cc5014fd66ea5425479ef184517599b5d5ade34c914eb2aa9aaf62b87c52595db34d939c0ea6bbcd0c68b74b5ec18c0fd7fc61a7b4e4afc18abc0c4770f8e7948537ff0a6d63d13115b17ca57653d1cb46fe3b91030b826c522a3ff2c0591927332d9c09c2ce826bf03f2919728707fcd2e789e65e3959d3aee6b0a7257b3b1497931a21936620955da89d81d155f30b1cbc9b079862588de0880bd218a4202e0903c7e5976de01fcd48af5e6ed6162cce787714e16835a3d1c33f28dc874b34cff59f6bd8f324a51424f12369b34f9b50f82de5d33d70483c7328705b73f62e08e2c5f7b5c59801b8e16e260c6d5a133fe53be2b38fc95c4365cc4d0fd38f31078eccf043d7f573a0bfd64674e8e1e1131ff952165b8e300fd66bdca35b8f8247ada2a96c1fc241c9a117f771161761515dfa9b775d468537727feaf91006d3b18aa2439d8bb583cac89f87f4d08d380da5902948b02965ca92e4fbb914d8dadffc77685891dce71ef53214c29e57da3c0543f4bf88c9ce88575a7fb1b035ab5c64fbd7a67072df1f82f99c6b76bc10dae2eaa9c1c1dbe8dba517262c0ba24082c0f0a4fb3d4922c655a3ec0da0fcd9c321cff219ac76b4168f00783038cf746922803e4fad6f9c5f4dfa0d78cf36504721f4596c0c781b9502bf5a82ec61fd89bd1672519f061216394149547d878895bcd9de18242c38414b506e8b93b5d3f0f6fd0b172b3040424c5e62637480818799bed3d6e4edeefc090f191a323c4359636f81849299a3a7e3e700000000000000000000000e1d334501fd210500cb8822759f70af08b66638b2ed37ccb21badd04e7f2dea9711cd990284cb7cf6808fb29a24eb042acfbfab58e8c2f676d3a297588906162ea8642f6b4bbef211fbaf77b51160c136bf35620141652b5cd072b144215131671ee5bb1f202bda8be7accd1bd8093706db1fc51825a69671a891d151bb761fa257880c11907e76c4822d38586eff9a8adbb4590c501ad7b8421a5500a689d45e2a45cb52a2c53dc8fcbf7ba82b4880fc37ef7781c47baa154b64177d461d69985791acc220c34bf824565a414ccf7902a2a14f3dea5fc7e2de199241672398ff36c070c3b1e9ad4daa0a681f6fcd8b476fa80b69be291f4de2e4bb3109a2a550816d2fb027bf69718168cd9559a3f8077c3bf448593292aab7d83dcebf92cfdd1d7a548dc55436f77fe58ba76f6855d5134245ecf48bd1100792aa7021d79ec08666a74be7d154bc8af24438867780629bd32c5744ce5a90a4ac792f12f177ef5f8b8333cf9eb98496d0f2da63a7aae9ce2f25de29cfc492a5465113b6b586e3fa852d704fbce51e6732914a4a8aaa64046f4fc8dc828c4731f37bb496af615e95ef64ceeb77650d021bde6af43747537feef77670bf5b554501a913cadaff728c0fe64b30922baf3f05046ab0243d122f533a70ed610b0cbee986106fbfdd9bd2a57bc3e20da40dbbf4aeb4a80232fbefd8211982ee6b1357b4618ef85a6022c64ec28912ac20da951bf37d77f365797381322b840aa1071871f854982357981fa64021e56579c1954a0324cda21e7115b99b2f817756389eee276dbcc15103bf0b8bd571e43b238963df1fd58ee7a33507e50074367bed8f8331fb7f75f043e8a8bedb9b4ff76a94d14181a8dc510f45a88ee179ab68f47701861f8cd2070e3dff71db8ae5e3fd543016d15adb9b255c37eda7a6ab9c06ff47411fe54226975af4230ce30e6e46134a70caed3f830061cb23e98f3cf50df044a1bb56553639cdb3e0e9e72020535584c848b0ca05bbdeb3e540e690c521cd1c3f3383575d1b185042225bebb455b1848c7c7967429bcb84534dcae2ef1bad4d396c0da190c24a7a5e1513ffa14888a7cbda50f0668c86be7bbe395b3cd7e14200d3e85611aaca41cd4f4be5da88b339b3e3bdc3c2aa07c83ca960fca75130412adedf769e9d6d673734f3c8af4d0e497938c669f80c92024ea26aa4c8ef27dc02c30c0b225035db93d478a736645ff7a1c5360243a8933fe80be20670d7be80a9f48b355741f7f7cf42b179b3af337c387aadf7aa2ed52e23b4064505384a4f48c2060cc238c1650893f7f9fdb4b5443439b7fa6bf8e16fc9617e3a998d61b73b93544f88b627c508cefcf0fdde2da118519b2293dbefdd91864a5f3eec9eef2b7c7dfaf4ad50bdd6ad88488898472428e0be7b537f79772e89dfae872c61b7b215d67025c9184243633c10704a06108a5fa962e350a1050850fba7fd1196aef26fb95f6c12a850492e06485fe1f6a11f897bd389204ac0582ad66b57a72bcfec20893bdb26d7b42b5b37674dde3663cfab7f3f7f35d56883df34e946622c54bdaec216e1bc9f1a1c35572bbf38204980c7406bdb42db61c85089a483e9937895779f5795238071f6107401fb55e82c7b077b987afd01484911d1473d06148a29cfe08906dbbc94a04c9398123d01a9dd42a2ca8b0354201a18f336b24c96a8438b464e2a7024316cdb0d7c36815f544d483e8f50c387e7284fb8a0e1d99f6f03463f888336496222e22efc03a3aa3588f5468c4a604cd784975dc2a56ce901df3fafb6ad5e953c51748a0a97ede294704cb04e47ce7a723a97d83815ae232306b6640330954d094b94f43584f17e000000",
  "txid": "5b43b7ab3a24833cf41f6b35e4aa352ca9d041b59891590cd2a249207ec0091a",
  "hash": "7311fee94556b27fe9a986c042190e2b9663b3b3622087ee95ce053a994ba2d4",
  "size": 5085,
  "vsize": 2278,
  "version": 1,
  "locktime": 126,
  "vin": [
    {
      "txid": "a6fb4592217886e61886d00e3264a7f2f0a8f0f959b36ff84551e7a3c540c0ef",
      "vout": 0,
      "scriptSig": {
        "asm": "",
        "hex": ""
      },
      "txinwitness": [
        "c841ca750cb25e55b7d72c428efdc0b162a4be464d8650ecd558ae9f59a9e0ae6aa2631bd35f34a70d5f9b78d391dc0f2f90a8059b7e5ae299971912d4090594b18b65e7694d13c69555518c3822ec9e4587b30c958f7ccb0f7341ad86e2decd1cb400b301e7dff59337b23babe3cc59e6fa50f334b39f75e2566a260b002dfb114451181d3202eb70c0bf9973389106014e87ff88797324c465ec96d34e6f0ca40baf2e5885565c6989e5f54b31d8f75637209ebbdb6d922bfa3c491e3443d077e365c0d2bf5385e2d1831efd640baca04e8eafab3673639da46c2738ffb0685aefd1d7cdac9f175773a8b515fa2f44cd5e465a5d495c6f2d5722d130bdb8143b8645c2f2c1ffee5eb515a5cfe5d2aacd1f2cad5723803ba6c4291240b721d3de2d18cec7b865e7b52a99a5c89edf3d1dd7d46b60d48e9c1ef8e5d105fe6fd95474faf367408d90e523eded34f69d63f0cd53f30b9de623cb3c935da2b2af5493cac59208ade1c5576867c686350e54655946899f04fd2e7944e3811640ccc7eaac00f3fbaa7812cb04287310a00d5aa4a4cc08bd149d21d54efca61df898af94bffbe53c7dde26dc4213ad0d18c4f2cb4f8d85ddfe6b13bde5946f6d21b696b95ed921169bf4c5d23cf215a171299ff3782fec148e57a8a80b63fcd51cf1117331b5cb77931554306351c142b7dd69c6e3bb7824c1c293593c2ad7866e4ff875278a5b47b17096055eb711a104e41e4b0fd9aa6c565e2a9f81e9a77f23be6e45fa3434bd794a0e46899322705f523363ad1c68ff1b438dddddfcdce11d26361e3b8fbd83762b27795e6bde65b8b8580d9e8d386e1be783962864f51bf36004193c15902ee015c6501b3e588d7dcbf10a97e521449d785c9e9022f4e3a71d4b14b7544826690a82982daacc17dfcad6b2c3b2960c5f33097c2e922d3d272f8d1973d4552294f951632552c172eee77eabb0260de260b421ccfb9a9510c1965fff9d53dffeac680f9b91581e64dd1a6db65a9aa02a7fb6781d4cf3e4fb283ea516efee72568b78803ab330d5380ce5ccee9372020a8450aa52abcbef390dcc5262054b50c742cad433ad4d6c1145bedd18d6e9fe39a943dbabe92e462d6f358ffc7fd154091a5af201628cd0fff4ea7f02de5e81c88ae6d2896b98b8d0dadcd36958e32c6497067e4444842657ded62272a68b1b460ef0fd7fe38bc1f8e4a344d62505811c52377a4fdc79f5a7f6fea80598d9196b3184bd6b6fd7687ed2c3e757db8227f43ccd8d7531eec0e80a8140be4d6b6741ea70bbf1f094a7634ebfcb136b19fc1563c79f8e82fea2c521a1e8b2c1f3f5a8f449b9ae8ea7b85c3e5b415eae337c4e7f36690f14165f9df0e4f125436c7773e06b76925dfa0b3b580de0292fa9dc3c0cc78ca854e92d48a12408e6396b3e785fce2da7311a74aabcffce2a6c8c958e71d37051aa37a598daafd49b56a54b0cba3a2c12d60bd5bcbbf14a4d5cc0ff9dd01e25bea4afca1ac898a7bbb06d2c117a2d643d1b61599b5b8f4beeacf71aee4896372236926117745fd41ff2ac96872dedc5da346bf1b02836d77cc74a14600358ee3cdfb2eaa271132e68d864855319242eb0b67d70def72490eb4f4f7d25d840ec7bc848e26b5570a6e727c16e7934052f697b7e8b754ad30b54f35621e2f9d112ca9f56acff3174393059b0b0945cc3b48cde0edf1f8be6fa084b66e79a468948d8e69fc209b5df9ad615b5a5b83597b9325036043d83fef389d36f7fa12a8de3ac6ca6029f083eccb5c077fb4640b7f41ecc0b9b99cb4f3b7c11e0fb9405ad1b4d05ffb726645b2778573f8fe5c8b7e4760950c255c3220594a20900cf0993a75e812573a17bbc79bca7622b9a648e997fc04a9451e63cc1db45cce76f62adba3c4a6da69e88335cdbf558184f8b79645826cf153f9c6cba9aac0a9e289f61088d5b96e061634950137b671e6b5c883ed35e85cc3ab2764e21a185927fdfc30fe7610710a70490fa3c39f6dccd525ab03c3c13a2d417b0eebe0223d70cf655f17d2bf717024bae8c9196a41320d0678a8bb410488f5eda7463a4a7450663b5ee853611bd21ca8eba96121a833e9766a13e4a79957101bf778b9e14600d7c99bc1332cad3bd555264e10cd70693dacb709c366b227ace1686a9a690184c6acbd1ab9851d690ada2886ca46cceaebd63d316c574dac718075308c742ea839d3700711c319753f0b495bdf9edfb717c5ecec7617f14b9e01ca36be49955f84dbae5d710b95df36985cdb374864e3fa9a1a4f6fbe6ef1ff59c2385ae86eff28ab092401b31a479268ab0d54b3bc1adbbab36155d1f994bed68c53f5504d6233ed51b49b805e90a507780e75b42fa0208fd8c8a58b5d9929e2e4cdb996cb0d1f7bdd65291a70eaa6bcdacd4ddfcb44c748715d90d4fa609028178004f9b78c99c8c47a8580428849154a0eaeeda45a845b15650e35724be310b97d611dd073bf2e5dced80dd876cc4d2ab6d0b69c1c4fe5f58f38409235d99af2420a1aed8637219ecec65e4c510d88310201fde71cd24ce17bc89e3b43abd3b6fe4c0d97a31363da6e6aab5a4dbce6449b8aa810126809964f7a4cc5014fd66ea5425479ef184517599b5d5ade34c914eb2aa9aaf62b87c52595db34d939c0ea6bbcd0c68b74b5ec18c0fd7fc61a7b4e4afc18abc0c4770f8e7948537ff0a6d63d13115b17ca57653d1cb46fe3b91030b826c522a3ff2c0591927332d9c09c2ce826bf03f2919728707fcd2e789e65e3959d3aee6b0a7257b3b1497931a21936620955da89d81d155f30b1cbc9b079862588de0880bd218a4202e0903c7e5976de01fcd48af5e6ed6162cce787714e16835a3d1c33f28dc874b34cff59f6bd8f324a51424f12369b34f9b50f82de5d33d70483c7328705b73f62e08e2c5f7b5c59801b8e16e260c6d5a133fe53be2b38fc95c4365cc4d0fd38f31078eccf043d7f573a0bfd64674e8e1e1131ff952165b8e300fd66bdca35b8f8247ada2a96c1fc241c9a117f771161761515dfa9b775d468537727feaf91006d3b18aa2439d8bb583cac89f87f4d08d380da5902948b02965ca92e4fbb914d8dadffc77685891dce71ef53214c29e57da3c0543f4bf88c9ce88575a7fb1b035ab5c64fbd7a67072df1f82f99c6b76bc10dae2eaa9c1c1dbe8dba517262c0ba24082c0f0a4fb3d4922c655a3ec0da0fcd9c321cff219ac76b4168f00783038cf746922803e4fad6f9c5f4dfa0d78cf36504721f4596c0c781b9502bf5a82ec61fd89bd1672519f061216394149547d878895bcd9de18242c38414b506e8b93b5d3f0f6fd0b172b3040424c5e62637480818799bed3d6e4edeefc090f191a323c4359636f81849299a3a7e3e700000000000000000000000e1d334501",
        "00cb8822759f70af08b66638b2ed37ccb21badd04e7f2dea9711cd990284cb7cf6808fb29a24eb042acfbfab58e8c2f676d3a297588906162ea8642f6b4bbef211fbaf77b51160c136bf35620141652b5cd072b144215131671ee5bb1f202bda8be7accd1bd8093706db1fc51825a69671a891d151bb761fa257880c11907e76c4822d38586eff9a8adbb4590c501ad7b8421a5500a689d45e2a45cb52a2c53dc8fcbf7ba82b4880fc37ef7781c47baa154b64177d461d69985791acc220c34bf824565a414ccf7902a2a14f3dea5fc7e2de199241672398ff36c070c3b1e9ad4daa0a681f6fcd8b476fa80b69be291f4de2e4bb3109a2a550816d2fb027bf69718168cd9559a3f8077c3bf448593292aab7d83dcebf92cfdd1d7a548dc55436f77fe58ba76f6855d5134245ecf48bd1100792aa7021d79ec08666a74be7d154bc8af24438867780629bd32c5744ce5a90a4ac792f12f177ef5f8b8333cf9eb98496d0f2da63a7aae9ce2f25de29cfc492a5465113b6b586e3fa852d704fbce51e6732914a4a8aaa64046f4fc8dc828c4731f37bb496af615e95ef64ceeb77650d021bde6af43747537feef77670bf5b554501a913cadaff728c0fe64b30922baf3f05046ab0243d122f533a70ed610b0cbee986106fbfdd9bd2a57bc3e20da40dbbf4aeb4a80232fbefd8211982ee6b1357b4618ef85a6022c64ec28912ac20da951bf37d77f365797381322b840aa1071871f854982357981fa64021e56579c1954a0324cda21e7115b99b2f817756389eee276dbcc15103bf0b8bd571e43b238963df1fd58ee7a33507e50074367bed8f8331fb7f75f043e8a8bedb9b4ff76a94d14181a8dc510f45a88ee179ab68f47701861f8cd2070e3dff71db8ae5e3fd543016d15adb9b255c37eda7a6ab9c06ff47411fe54226975af4230ce30e6e46134a70caed3f830061cb23e98f3cf50df044a1bb56553639cdb3e0e9e72020535584c848b0ca05bbdeb3e540e690c521cd1c3f3383575d1b185042225bebb455b1848c7c7967429bcb84534dcae2ef1bad4d396c0da190c24a7a5e1513ffa14888a7cbda50f0668c86be7bbe395b3cd7e14200d3e85611aaca41cd4f4be5da88b339b3e3bdc3c2aa07c83ca960fca75130412adedf769e9d6d673734f3c8af4d0e497938c669f80c92024ea26aa4c8ef27dc02c30c0b225035db93d478a736645ff7a1c5360243a8933fe80be20670d7be80a9f48b355741f7f7cf42b179b3af337c387aadf7aa2ed52e23b4064505384a4f48c2060cc238c1650893f7f9fdb4b5443439b7fa6bf8e16fc9617e3a998d61b73b93544f88b627c508cefcf0fdde2da118519b2293dbefdd91864a5f3eec9eef2b7c7dfaf4ad50bdd6ad88488898472428e0be7b537f79772e89dfae872c61b7b215d67025c9184243633c10704a06108a5fa962e350a1050850fba7fd1196aef26fb95f6c12a850492e06485fe1f6a11f897bd389204ac0582ad66b57a72bcfec20893bdb26d7b42b5b37674dde3663cfab7f3f7f35d56883df34e946622c54bdaec216e1bc9f1a1c35572bbf38204980c7406bdb42db61c85089a483e9937895779f5795238071f6107401fb55e82c7b077b987afd01484911d1473d06148a29cfe08906dbbc94a04c9398123d01a9dd42a2ca8b0354201a18f336b24c96a8438b464e2a7024316cdb0d7c36815f544d483e8f50c387e7284fb8a0e1d99f6f03463f888336496222e22efc03a3aa3588f5468c4a604cd784975dc2a56ce901df3fafb6ad5e953c51748a0a97ede294704cb04e47ce7a723a97d83815ae232306b6640330954d094b94f43584f1"
      ],
      "sequence": 4294967294
    }
  ],
  "vout": [
    {
      "value": 1.0,
      "n": 0,
      "scriptPubKey": {
        "asm": "OP_RETURN dcab2976bd732112fc1c7da0fe7c104e045edcfd561541d5e34c8f6ca97706a8 4259db5e676b80d99d503a625941f894631f75ce6460edb0ad151ac8cf2f8d9a6279fb7e474ba0f9bd701a427961d8b4433f55ee4440cd908d353ae8ef0fadba02199b1e272bc099dd107a221901b8d4235f358e2420adf0ed555a888f6fcdda2239bb3e070be0b9fd305a02392198f4037f15ae04008dd0cd757aa8af4fedfac2d95bdee7eb00591dd0bae2d9c17814e39ff54ee4e06d302d959a484faf0d1ae2f97bfec7cb20793df09ac2f9e15834c3bfd56ec4c04d100db5ba686f8f2d3a82991b9ea7ab40195d90faa299813854a3dfb50ea4a02d706dd5da080fef4d5aa2b93bbe878b60397db0da82b9a1187483ff952e84800d504df5fa282fcf6d7a4259db5e676b80d99d503a625941f894631f75ce6460edb0ad151ac8cf2f8d9a6279fb7e474ba0f9bd701a427961d8b4433f55ee4440cd908d353ae8ef0fadba02199b1e272bc099dd107a221901b8d4235f358e2420adf0ed555a888f6fcdda2239bb3e070be0b9fd305a02392198f4037f15ae04008dd0cd757aa8af4fedfac2d95bdee7eb00591dd0bae2d9c17814e39ff54ee4e06d302d959a484faf0d1ae2f97bfec7cb20793df09ac2f9e15834c3bfd56ec4c04d100db5ba686f8f2d3a82991b9ea7ab40195d90faa299813854a3dfb50ea4a02d706dd5da080fef4d5aa2b93bbe878b60397db0da82b9a1187483ff952e84800d504df5fa282fcf6d7a4259db5e676b80d99d503a625941f894631f75ce6460edb0ad151ac8cf2f8d9a6279fb7e474ba0f9bd701a427961d8b4433f55ee4440cd908d353ae8ef0fadba02199b1e272bc099dd107a221901b8d4235f358e2420adf0ed555a888f6fcdda2239bb3e070be0b9fd305a02392198f4037f15ae04008dd0cd757aa8af4fedfac2d95bdee7eb00591dd0bae2d9c17814e39ff54ee4e06d302d959a484faf0d1ae2f97bfec7cb20793df09ac2f9e15834c3bfd56ec4c04d100db5ba686f8f2d3a82991b9ea7ab40195d90faa299813854a3dfb50ea4a02d706dd5da080fef4d5aa2b93bbe878b60397db0da82b9a1187483ff952e84800d504df5fa282fcf6d7a4259db5e676b80d99d503a625941f894631f75ce6460edb0ad151ac8cf2f8d9a6279fb7e474ba0f9bd701a427961d8b4433f55ee4440cd908d353ae8ef0fadba02199b1e272bc099dd107a221901b8d4235f358e2420adf0ed555a888f6fcdda2239bb3e070be0b9fd305a02392198f4037f15ae04008dd0cd757aa8af4fedfac2d95bdee7eb00591dd0bae2d9c17814e39ff54ee4e06d302d959a484faf0d1ae2f97bfec7cb20793df09ac2f9e15834c3bfd56ec4c04d100db5ba686f8f2d3a82991b9ea7ab40195d90faa299813854a3dfb50ea4a02d706dd5da080fef4d5aa2b93bbe878b60397db0da82b9a1187483ff952e84800d504df5fa282fcf6d7a4259db5e676b80d99d503a625941f894631f75ce6460edb0ad151ac8cf2f8d9a6279fb7e474ba0f9bd701a427961d8b4433f55ee4440cd908d353ae8ef0fadba02199b1e272bc099dd107a221901b8d4235f358e2420adf0ed555a888f6fcdda2239bb3e070be0b9fd305a02392198f4037f15ae04008dd0cd757aa8af4fedfac2d95bdee7eb00591dd0bae2d9c178148be255d024e870904e042fbb087c10ba3056036ab79bdd48f0508bde3f397cb1",
        "hex": "6a20dcab2976bd732112fc1c7da0fe7c104e045edcfd561541d5e34c8f6ca97706a84db0044259db5e676b80d99d503a625941f894631f75ce6460edb0ad151ac8cf2f8d9a6279fb7e474ba0f9bd701a427961d8b4433f55ee4440cd908d353ae8ef0fadba02199b1e272bc099dd107a221901b8d4235f358e2420adf0ed555a888f6fcdda2239bb3e070be0b9fd305a02392198f4037f15ae04008dd0cd757aa8af4fedfac2d95bdee7eb00591dd0bae2d9c17814e39ff54ee4e06d302d959a484faf0d1ae2f97bfec7cb20793df09ac2f9e15834c3bfd56ec4c04d100db5ba686f8f2d3a82991b9ea7ab40195d90faa299813854a3dfb50ea4a02d706dd5da080fef4d5aa2b93bbe878b60397db0da82b9a1187483ff952e84800d504df5fa282fcf6d7a4259db5e676b80d99d503a625941f894631f75ce6460edb0ad151ac8cf2f8d9a6279fb7e474ba0f9bd701a427961d8b4433f55ee4440cd908d353ae8ef0fadba02199b1e272bc099dd107a221901b8d4235f358e2420adf0ed555a888f6fcdda2239bb3e070be0b9fd305a02392198f4037f15ae04008dd0cd757aa8af4fedfac2d95bdee7eb00591dd0bae2d9c17814e39ff54ee4e06d302d959a484faf0d1ae2f97bfec7cb20793df09ac2f9e15834c3bfd56ec4c04d100db5ba686f8f2d3a82991b9ea7ab40195d90faa299813854a3dfb50ea4a02d706dd5da080fef4d5aa2b93bbe878b60397db0da82b9a1187483ff952e84800d504df5fa282fcf6d7a4259db5e676b80d99d503a625941f894631f75ce6460edb0ad151ac8cf2f8d9a6279fb7e474ba0f9bd701a427961d8b4433f55ee4440cd908d353ae8ef0fadba02199b1e272bc099dd107a221901b8d4235f358e2420adf0ed555a888f6fcdda2239bb3e070be0b9fd305a02392198f4037f15ae04008dd0cd757aa8af4fedfac2d95bdee7eb00591dd0bae2d9c17814e39ff54ee4e06d302d959a484faf0d1ae2f97bfec7cb20793df09ac2f9e15834c3bfd56ec4c04d100db5ba686f8f2d3a82991b9ea7ab40195d90faa299813854a3dfb50ea4a02d706dd5da080fef4d5aa2b93bbe878b60397db0da82b9a1187483ff952e84800d504df5fa282fcf6d7a4259db5e676b80d99d503a625941f894631f75ce6460edb0ad151ac8cf2f8d9a6279fb7e474ba0f9bd701a427961d8b4433f55ee4440cd908d353ae8ef0fadba02199b1e272bc099dd107a221901b8d4235f358e2420adf0ed555a888f6fcdda2239bb3e070be0b9fd305a02392198f4037f15ae04008dd0cd757aa8af4fedfac2d95bdee7eb00591dd0bae2d9c17814e39ff54ee4e06d302d959a484faf0d1ae2f97bfec7cb20793df09ac2f9e15834c3bfd56ec4c04d100db5ba686f8f2d3a82991b9ea7ab40195d90faa299813854a3dfb50ea4a02d706dd5da080fef4d5aa2b93bbe878b60397db0da82b9a1187483ff952e84800d504df5fa282fcf6d7a4259db5e676b80d99d503a625941f894631f75ce6460edb0ad151ac8cf2f8d9a6279fb7e474ba0f9bd701a427961d8b4433f55ee4440cd908d353ae8ef0fadba02199b1e272bc099dd107a221901b8d4235f358e2420adf0ed555a888f6fcdda2239bb3e070be0b9fd305a02392198f4037f15ae04008dd0cd757aa8af4fedfac2d95bdee7eb00591dd0bae2d9c178148be255d024e870904e042fbb087c10ba3056036ab79bdd48f0508bde3f397cb1",
        "type": "nulldata"
      }
    },
    {
      "value": 499971.5268,
      "n": 1,
      "scriptPubKey": {
        "asm": "1 66afae2213bd93a5fd2b50f6a1eb65f751bdaadb5dc00fe90160e2712568866e",
        "hex": "512066afae2213bd93a5fd2b50f6a1eb65f751bdaadb5dc00fe90160e2712568866e",
        "reqSigs": 1,
        "type": "witness_v1_scripthash",
        "addresses": [
          "3QJmnh"
        ]
      }
    }
  ],
  "blockhash": "6d9c0c317b6a18c94c8dfa8ecf7920e3db1b4df4697afebc42d3fd28269e39fd",
  "confirmations": 1,
  "time": 1764181315,
  "blocktime": 1764181315
}