{
  "hex": "01000000000101038a6baf1b17034638e470e9a11ba1b82e010693bbf02f7f64524812ae153e600000000000feffffff0270cc3221792d0000225120739f4bcc28fe600d603f7a13eaaa9e2a5136367fbea6113e044eb9a8c262d53700e1f50500000000fdd5046a20741afeb4d241a8cd2674e2fb8160818c6693890b69ee66d32f038628ea1bbabd4db00443fe5f0e85e4b501d2ce79f4040b99463dca0526ca71918658beaea1e3d6e4b363de7f2ea5c49521f2ee59d4242bb9661dea2506ea51b1a6789e8e81c3f6c49303be1f4ec5a4f541928e39b4444bd9067d8a45668a31d1c618feeee1a396a4f3239e3f6ee584d561b2ae1994646bf9265daa6546aa11f1e638decec183b684d3c37edf8e05643581524ef974848b19c6bd4a85a64af11106d83e2e2163566433e35effae254415a1726ed954a4ab39e69d6aa5866ad13126f81e0e0143764413833e9fce452475c1120eb934c4cb5986fd0ac5e60ab15146987e6e6123162473a31ebfee650455e1322e9914e4eb79a6dd2ae5c62a917166b85e4e410336045343fe5f0e85e4b501d2ce79f4040b99463dca0526ca71918658beaea1e3d6e4b363de7f2ea5c49521f2ee59d4242bb9661dea2506ea51b1a6789e8e81c3f6c49303be1f4ec5a4f541928e39b4444bd9067d8a45668a31d1c618feeee1a396a4f3239e3f6ee584d561b2ae1994646bf9265daa6546aa11f1e638decec183b684d3c37edf8e05643581524ef974848b19c6bd4a85a64af11106d83e2e2163566433e35effae254415a1726ed954a4ab39e69d6aa5866ad13126f81e0e0143764413833e9fce452475c1120eb934c4cb5986fd0ac5e60ab15146987e6e6123162473a31ebfee650455e1322e9914e4eb79a6dd2ae5c62a917166b85e4e410336045343fe5f0e85e4b501d2ce79f4040b99463dca0526ca71918658beaea1e3d6e4b363de7f2ea5c49521f2ee59d4242bb9661dea2506ea51b1a6789e8e81c3f6c49303be1f4ec5a4f541928e39b4444bd9067d8a45668a31d1c618feeee1a396a4f3239e3f6ee584d561b2ae1994646bf9265daa6546aa11f1e638decec183b684d3c37edf8e05643581524ef974848b19c6bd4a85a64af11106d83e2e2163566433e35effae254415a1726ed954a4ab39e69d6aa5866ad13126f81e0e0143764413833e9fce452475c1120eb934c4cb5986fd0ac5e60ab15146987e6e6123162473a31ebfee650455e1322e9914e4eb79a6dd2ae5c62a917166b85e4e410336045343fe5f0e85e4b501d2ce79f4040b99463dca0526ca71918658beaea1e3d6e4b363de7f2ea5c49521f2ee59d4242bb9661dea2506ea51b1a6789e8e81c3f6c49303be1f4ec5a4f541928e39b4444bd9067d8a45668a31d1c618feeee1a396a4f3239e3f6ee584d561b2ae1994646bf9265daa6546aa11f1e638decec183b684d3c37edf8e05643581524ef974848b19c6bd4a85a64af11106d83e2e2163566433e35effae254415a1726ed954a4ab39e69d6aa5866ad13126f81e0e0143764413833e9fce452475c1120eb934c4cb5986fd0ac5e60ab15146987e6e6123162473a31ebfee650455e1322e9914e4eb79a6dd2ae5c62a917166b85e4e410336045343fe5f0e85e4b501d2ce79f4040b99463dca0526ca71918658beaea1e3d6e4b363de7f2ea5c49521f2ee59d4242bb9661dea2506ea51b1a6789e8e81c3f6c49303be1f4ec5a4f541928e39b4444bd9067d8a45668a31d1c618feeee1a396a4f3239e3f6ee584d561b2ae1994646bf9265daa6546aa11f1e638decec183b684d3c37edf8e05643581524ef974848b19c6192a84059bb2fa095cc4c3be35a4e6f2c5342c09a8c1f2bec86f05449950b7b202fd75095f5e5eb5b250f231830f93fe8b659a1717e676e21e737e46699cd6193c1fbb95195fd5f5939be0a5c115c2d3720bbe02c4c26aa5dec865c87cdbc48130a70bfaaaab5d6d50f4701e3f9945ff363054b7a81b27a136c045793b796376dcebd96b36bf401ccb116e93542d1e3052c5fc46fbf94c54989f4a596a13c56b706c102c51020f7031bb0dfde96aa164994a876c0bd318264a6d4157781dcdf43c2d695397e3521a6e625db8dfb171db36e8670ceefb2c7180a9d9e3e82257dc0a7e196f659d061c3d6eff9b3cfefaae9685f42433efd0f9fcb7c982e33931a38c4e560ae57a438681adab50ae303af1a784596f88559b05565eba074481c45a900a86f3be5164dc07a146cbed901c4653f926adc27a1ae1279dbbef902a5e6c788c4ebf2a48561894f3532de1df450f2ae34b9af2b694a4265d40e4e70d02174037039dc4cf7ffa44052274cfbbc7aed576ea379c9a66b44095db16137d1d73e01c0ab78d8205cdfa151f5de72bb3c257c4fcab9d50a21f12d32230e79ce8994a6a738545f7826281d7070acf340d062517fcc57ff67b8465880c42afc6c32885acbda7713bd0d8852d7a7433d01db3f1a0960b23c9e208aa2c95313db4286cfef00d848a432aac08841bb87d9df78d13a8ec831bca2517622f878c53da4d97f0a97b4c8640f8e95930672a93a9ba163523e783238fee12d22030d1986b3a1e027ff064281c409738abdd7020ba7fce21438dd31700ea9c230af2ed5d25bec70a162f5c2bf9a5f6566c5fd8644fe846307ecda8ffbb653c139d4dad9ce8e599dd7fc6e7d698b6cb161d9226dbd2a2bd7e0eed9c77c823cc41b60e4eb2a5a3bde4236f72fbed7a814f20e837f74b434bfcf0e084ed4649d99a0228fcd5eb50ae07a37218e3ad96e105489309acb9ee5b1fba20fa3e001da7cdeaca7b90d46228ff37f91300076e68656a2f6e85bc836f06eb1872e66ad31fd15e680be523301ba0d32c199214833c015ea90a7aee852a0a79ea4a32fcb304d2bffbc8c790bb48886f761833fc6722178d0096c8f4ba7f686ad99343513824999326fdde293cc4371d24221322178450507b77525a0cad4769020aa7ad4b5374b99b152313a96fba1eac7382ae9b4e1d9aab430322037452ec13a8ed7d28d848b8116121a8ee4196333e5d3b24944b1bdefa1fae0687bfe0a635ccdffd6aa29154088efb0bf930586371e3be4ad4408d51fe6d92b2468f43a429c363449d2b8b9cf3c9eece2b2758688273fc6a13fe1260f896f1eca648de6f44918cd131d873072585ce4c3ea2062e37acadcb9401e786fc4cee285ff68a4aa99bc3a41da93525edc7d191f3cc749f8903f9ff6fd08e0f0b98dc2181927e2d0bd1220d0f10e52e579b29f81632e87126b045b5491dd3a206ed10e894bf4f81df878746704ded32fc1e7026a38bdb48c0b73171b05ddf6ef44d477848cb0a0d721b0bae92f7d0f77818d03da04ccced0b38a8437c77a50da036011dde58cf7263403ba2152597fdcbf73737a331d8f80568a4009da55cc8cbd40564250a3f0906efe64a9165a61a3a512d112319b8e0177d203e28684654f02d53183d35d4cc83cdb5bd35ff53548f90f564728b835e2f07bd0a54574332579ffa82c5fa40c5130e6634b90a3b78adb67ca93ed577eed280514b6d84bc878e75f289a7b63a345e433ead0b4db2091e87435c151fa9af89f95f68cc4a7ad5337da80b53db53a7f9cdf79548ec7e6dc1bc4e7c4442fabd714af7442211331dcfb0fbd097bdc1cd090e05ee74ffaa013e223d92dae7fcb9ba4a2e843aba3a51f891913a57262dc84b17ed34aab5ff40303e996b5afdd7fabf6a35644847471cf030923c84af8b00d89b18103f9263afafac8e391c35ae3e19fee1f9eafa3edaabdc5c8434d4e68062be7b2d211a9310781c422be6740e7cfa5f521dd7d3e242e89e079db8ee38b23ae743aad7d1a75f8cd249ad5b2c105c1189df2940a3031abf950ca47b526654def5d049d16159b386bbacc18f750251db3359d3db109d807f7dd5bc3b0d2eb22873a8f1c01af99270899865753cc5547baefc3b1e935ea07b0bb579418a122e659e6f4c4fe72f40e2c2c227f5e3a4f16c5ab9953d024e9948e6b015cbdc5a6e7927778b98f52a241d3ffa8a8aac3738fbc381d22e5b3e591ff6cdf63e1c6745d4e5493a6b7400ab913631a2ac6f321f45e8f9fbacfb9595a9cf3919fa7742fa68738eafcd3e96686800d773a08c87b407f5e329fc5e8fa3b967e903a84043a7fd2e0064a13ea58ee722eb3cb35700b173ae2935bd7f94925b6dd90c3b6a8a8ebd2c06a0c1778abced8ddc51fdcc377c527d23dae1714397fef1714906f44f167e116b3285fe5c51df451c9ffab0053fb0c80a259eb48784aea8651b57c5c24a93949df60287bea900555efcbeb3e64e5c23000fb8b84d3307ef0fd391ea565d8ea0f0e39584fbee6571e06a470e14636956061742861aec36bd93dbab5a2df863f0e89a65c6f9fd5c45b40ec4239ed604d971277616bd590f9500ec4503903ccdc27488769d932bdff763869e7c081525b755af349400dddcd71c11067914f794f667f3305472fbb6974b47fea6824b9b50a5ac52d75435cea45305ae2ed97046cf33495e9205206593c12321074767bc3b6123e2251e51c8d34dce09a55bf750b38a35fe8089a60e6e0dbcd59e800e432e7f4bd37908e587f672499c3ee7ff2adf4b7f19cdb30e90681dad19ab5218a7e9dcc09798c655332ab1343e82c0d491a3cfec6ee71df63648206ee35b25087a13614b964eec2782a4f71d309d087eab6c6e42ab4c5af2985468d6911a734a5bf36402858e5ee358a40d6b8d966727422de57347edeb61b0a3ae5ba5ad6e74a7205d2ca4164394d91c680f66df00c41354141e5ce4f651e0c0d21ef51a082906f814e7e040157f5c14ca45ee155400587d734d13ad1778d9b81b18526a5dffefbefce7cba779cbf3adc2d1c05c9d0bf464c6bb5ed5dc6f5710e9ce4a44b2d68a9a91bb463e0f3b3dd647ba756fbc750b6d636eeff9093dd57481a94f2fb288c57b0b92476c1af340f03cad2559b3256e7e9bb5292501dbb46c9d50681025d2dfde09cfc2f611b7dc082dd552993481bc753396c0c8a8e0cf22b849625b9533df08bc4c81f19f05064826902a9b603b5823e9aaf7634aa52e37ca0e22c751f9aba38feebc5e486cecad4f36ff98a0f26e7dd715ef6485e8f100881a467fc4c31ded700b0659fdbc4dca06a98a5ccad1f19db18ff90d1ed3a8530b9b25575befea481541475e606573768c8da2aeb9c3d8e2e4f601152328363751535f6270869ad9ebf00a1b2a46515b6071898b93adafbccccfe2f80e2c2f4a51777d8d8e94a4a5c3cdeffbfe00000000000000000000001222344501fd2105007a410b28c9acf33e0b3753c1d837f73c5124a28d9485f251bff61d29d76f764612a7409ca24cf9fbffd258090343fa0aa6ab39ccd078fae68d0c6c9add6a93a2f71945d9cd564561813d57b9d276c680169014c0f8b47351899e02fea3e90dc3b1d2e7bb95f2cd9280dc18ea24df56032afa5465c2a9a12ae23743bfe55299ae65990feb47b05ecd1342e0dd72021688a7b736518e95fc5cc6af0b260af31177edd0c7e81dabddd8dca2bb4ef293b3d67ebd72ad98b88ce3dab768ecbd4367eea96eb46e9d69533939a73cdb05eb68c173481855695e4fc4b9ad263c2818ca871164e5c7b06cd5c249025e8de4dc9565e23a8b337d88117698b2dd4ca01ad49f7aa543c473e834512bf1a89d0fa26444532e23d7332a5079e6a3063197ad61b3e6e368d95a5a7a6e80b7dcf56938c80e64b12c42c559aaf695b2adaeb9ae1e569ac037869ebbcc82c1604d54a5fb7ea51b95c7e32a4e43b9126d9ba2fb3e1ee92298d73693c3327731957cdbbccc7c84a764b5010137614cccd5adea9c659412fd204020d67f2b7ee3deaa957b1199aa6a523ba1fa74a0e289eb625b88ec443398d4290d20e2e1daba213b80be92649ba3b60dd2385b4030bccff0b0ad1bbde786f52aeafc856666cd17375601d497ee570ebb58fbde21b9def3ac320df905ecf468173ed58e342bcae552812972a6d88aea59ff00c3845fa78298c92476dfc3f3d51dccd565a43d30a37a502c8a2898ce8c995d35914a5d08100b2336cf9c0992bcfe54ca395aa766b750d86ccac7c9cbc64e5da729ff789615245785a7404ea19fd1cd76415524057857b877b781ee84350c1aafe721180630bb9b69e4ad58a0d768826a101442a67cfa79d9c409cce8b42e24b0f0bbcdcd5766bee56cba7364b83049f0b7d52a3be826110ab754d46d4b27e0d7558653ef677fab2b2f4c15d93724705ae36bf2d28a7be7111debdc02c21759d9f4a3ef49dd7e16ef31af8d2ed24db847ae0bad694f468a41d0c30cc209329ab9d9e0a29f7af9f9350a30c5541bbe5f2a2eecef9ebb7f34ae2ff479021c8e861aa384c8dc493c000387160fcf288862f563a4cd594f51c135ee7af42991b08ef96f795ceae976467e09dee6075ca7a72082e8316195b1655702bf1ff4d77f6fa69edb497989e8f13f215bbba0f4e44dc9f5e6c10b1a11ef25b46111b3c28a391817a2b6e56f39d52c3db70265aa0915ca4b06b1a2a99eb47525953a2f628867428710200cddd81a6d7d37ef42dd87e5855408c4c171fe93c69730b6cf69a909b6a1a1b32a9ab3e989db74739accc5d3fb1aeaca767ab464be08bb17ecd91cfab9ed9ffb4892ddf8ccf96e6a49702bbaa8ff4ae3849bc0eeaff6351c7f7cf6e956dc7a7e3c3c7963794cb9e9fd3c54ee7cb54ab987f8aca4f7dbcb3fd81068d0393086a3f79b459df649df8e4abf36a40e10ec88db25dcfc116c162eb997cf23b3e35937520d8b8660e19534fd2ee5be028a6952bb317e96309338a872465384fed542516877fd269ab20a6cbd11cff3fa0a4fd6122e4c0d463d27f7b28fc3fedaf9359c943d3019a57a5f6a7d63b1beeb0ceb7b71ae4fc3049ba87b3630e2f6574b6319cbe0a28097f53ed3ab883a7eee8e2b8148af5fb84c61149d89b5dee0aadae35477959288a8039269400af96c3ef99ee809e516f90ae7f3422ad85a1b2b6e275d94c19031ea522ff7d6fdc3e514d1eeda93544bd22f80aa98fb4f2d3f5ac2ee03cc233e3fb72cf2b62a2d30dc8417d46ccb058057916f67778cb4b75a7f13b8b395c6a71deff8194ea9579b67594b959cd3afd8355fe2137e304ee66552071682a1681fe4d0b8462e73000000",
  "txid": "5a1ee767837bf73591f6c47a317c97596fad7556b204ac901c842e63e32f0f89",
  "hash": "d3dae7aaf6aa725eb28021394667c245f41fdcd5f600ec52fa8ad7ab9fc6ca99",
  "size": 5085,
  "vsize": 2278,
  "version": 1,
  "locktime": 115,
  "vin": [
    {
      "txid": "603e15ae124852647f2ff0bb9306012eb8a11ba1e970e4384603171baf6b8a03",
      "vout": 0,
      "scriptSig": {
        "asm": "",
        "hex": ""
      },
      "txinwitness": [
        "5f5e5eb5b250f231830f93fe8b659a1717e676e21e737e46699cd6193c1fbb95195fd5f5939be0a5c115c2d3720bbe02c4c26aa5dec865c87cdbc48130a70bfaaaab5d6d50f4701e3f9945ff363054b7a81b27a136c045793b796376dcebd96b36bf401ccb116e93542d1e3052c5fc46fbf94c54989f4a596a13c56b706c102c51020f7031bb0dfde96aa164994a876c0bd318264a6d4157781dcdf43c2d695397e3521a6e625db8dfb171db36e8670ceefb2c7180a9d9e3e82257dc0a7e196f659d061c3d6eff9b3cfefaae9685f42433efd0f9fcb7c982e33931a38c4e560ae57a438681adab50ae303af1a784596f88559b05565eba074481c45a900a86f3be5164dc07a146cbed901c4653f926adc27a1ae1279dbbef902a5e6c788c4ebf2a48561894f3532de1df450f2ae34b9af2b694a4265d40e4e70d02174037039dc4cf7ffa44052274cfbbc7aed576ea379c9a66b44095db16137d1d73e01c0ab78d8205cdfa151f5de72bb3c257c4fcab9d50a21f12d32230e79ce8994a6a738545f7826281d7070acf340d062517fcc57ff67b8465880c42afc6c32885acbda7713bd0d8852d7a7433d01db3f1a0960b23c9e208aa2c95313db4286cfef00d848a432aac08841bb87d9df78d13a8ec831bca2517622f878c53da4d97f0a97b4c8640f8e95930672a93a9ba163523e783238fee12d22030d1986b3a1e027ff064281c409738abdd7020ba7fce21438dd31700ea9c230af2ed5d25bec70a162f5c2bf9a5f6566c5fd8644fe846307ecda8ffbb653c139d4dad9ce8e599dd7fc6e7d698b6cb161d9226dbd2a2bd7e0eed9c77c823cc41b60e4eb2a5a3bde4236f72fbed7a814f20e837f74b434bfcf0e084ed4649d99a0228fcd5eb50ae07a37218e3ad96e105489309acb9ee5b1fba20fa3e001da7cdeaca7b90d46228ff37f91300076e68656a2f6e85bc836f06eb1872e66ad31fd15e680be523301ba0d32c199214833c015ea90a7aee852a0a79ea4a32fcb304d2bffbc8c790bb48886f761833fc6722178d0096c8f4ba7f686ad99343513824999326fdde293cc4371d24221322178450507b77525a0cad4769020aa7ad4b5374b99b152313a96fba1eac7382ae9b4e1d9aab430322037452ec13a8ed7d28d848b8116121a8ee4196333e5d3b24944b1bdefa1fae0687bfe0a635ccdffd6aa29154088efb0bf930586371e3be4ad4408d51fe6d92b2468f43a429c363449d2b8b9cf3c9eece2b2758688273fc6a13fe1260f896f1eca648de6f44918cd131d873072585ce4c3ea2062e37acadcb9401e786fc4cee285ff68a4aa99bc3a41da93525edc7d191f3cc749f8903f9ff6fd08e0f0b98dc2181927e2d0bd1220d0f10e52e579b29f81632e87126b045b5491dd3a206ed10e894bf4f81df878746704ded32fc1e7026a38bdb48c0b73171b05ddf6ef44d477848cb0a0d721b0bae92f7d0f77818d03da04ccced0b38a8437c77a50da036011dde58cf7263403ba2152597fdcbf73737a331d8f80568a4009da55cc8cbd40564250a3f0906efe64a9165a61a3a512d112319b8e0177d203e28684654f02d53183d35d4cc83cdb5bd35ff53548f90f564728b835e2f07bd0a54574332579ffa82c5fa40c5130e6634b90a3b78adb67ca93ed577eed280514b6d84bc878e75f289a7b63a345e433ead0b4db2091e87435c151fa9af89f95f68cc4a7ad5337da80b53db53a7f9cdf79548ec7e6dc1bc4e7c4442fabd714af7442211331dcfb0fbd097bdc1cd090e05ee74ffaa013e223d92dae7fcb9ba4a2e843aba3a51f891913a57262dc84b17ed34aab5ff40303e996b5afdd7fabf6a35644847471cf030923c84af8b00d89b18103f9263afafac8e391c35ae3e19fee1f9eafa3edaabdc5c8434d4e68062be7b2d211a9310781c422be6740e7cfa5f521dd7d3e242e89e079db8ee38b23ae743aad7d1a75f8cd249ad5b2c105c1189df2940a3031abf950ca47b526654def5d049d16159b386bbacc18f750251db3359d3db109d807f7dd5bc3b0d2eb22873a8f1c01af99270899865753cc5547baefc3b1e935ea07b0bb579418a122e659e6f4c4fe72f40e2c2c227f5e3a4f16c5ab9953d024e9948e6b015cbdc5a6e7927778b98f52a241d3ffa8a8aac3738fbc381d22e5b3e591ff6cdf63e1c6745d4e5493a6b7400ab913631a2ac6f321f45e8f9fbacfb9595a9cf3919fa7742fa68738eafcd3e96686800d773a08c87b407f5e329fc5e8fa3b967e903a84043a7fd2e0064a13ea58ee722eb3cb35700b173ae2935bd7f94925b6dd90c3b6a8a8ebd2c06a0c1778abced8ddc51fdcc377c527d23dae1714397fef1714906f44f167e116b3285fe5c51df451c9ffab0053fb0c80a259eb48784aea8651b57c5c24a93949df60287bea900555efcbeb3e64e5c23000fb8b84d3307ef0fd391ea565d8ea0f0e39584fbee6571e06a470e14636956061742861aec36bd93dbab5a2df863f0e89a65c6f9fd5c45b40ec4239ed604d971277616bd590f9500ec4503903ccdc27488769d932bdff763869e7c081525b755af349400dddcd71c11067914f794f667f3305472fbb6974b47fea6824b9b50a5ac52d75435cea45305ae2ed97046cf33495e9205206593c12321074767bc3b6123e2251e51c8d34dce09a55bf750b38a35fe8089a60e6e0dbcd59e800e432e7f4bd37908e587f672499c3ee7ff2adf4b7f19cdb30e90681dad19ab5218a7e9dcc09798c655332ab1343e82c0d491a3cfec6ee71df63648206ee35b25087a13614b964eec2782a4f71d309d087eab6c6e42ab4c5af2985468d6911a734a5bf36402858e5ee358a40d6b8d966727422de57347edeb61b0a3ae5ba5ad6e74a7205d2ca4164394d91c680f66df00c41354141e5ce4f651e0c0d21ef51a082906f814e7e040157f5c14ca45ee155400587d734d13ad1778d9b81b18526a5dffefbefce7cba779cbf3adc2d1c05c9d0bf464c6bb5ed5dc6f5710e9ce4a44b2d68a9a91bb463e0f3b3dd647ba756fbc750b6d636eeff9093dd57481a94f2fb288c57b0b92476c1af340f03cad2559b3256e7e9bb5292501dbb46c9d50681025d2dfde09cfc2f611b7dc082dd552993481bc753396c0c8a8e0cf22b849625b9533df08bc4c81f19f05064826902a9b603b5823e9aaf7634aa52e37ca0e22c751f9aba38feebc5e486cecad4f36ff98a0f26e7dd715ef6485e8f100881a467fc4c31ded700b0659fdbc4dca06a98a5ccad1f19db18ff90d1ed3a8530b9b25575befea481541475e606573768c8da2aeb9c3d8e2e4f601152328363751535f6270869ad9ebf00a1b2a46515b6071898b93adafbccccfe2f80e2c2f4a51777d8d8e94a4a5c3cdeffbfe00000000000000000000001222344501",
        "007a410b28c9acf33e0b3753c1d837f73c5124a28d9485f251bff61d29d76f764612a7409ca24cf9fbffd258090343fa0aa6ab39ccd078fae68d0c6c9add6a93a2f71945d9cd564561813d57b9d276c680169014c0f8b47351899e02fea3e90dc3b1d2e7bb95f2cd9280dc18ea24df56032afa5465c2a9a12ae23743bfe55299ae65990feb47b05ecd1342e0dd72021688a7b736518e95fc5cc6af0b260af31177edd0c7e81dabddd8dca2bb4ef293b3d67ebd72ad98b88ce3dab768ecbd4367eea96eb46e9d69533939a73cdb05eb68c173481855695e4fc4b9ad263c2818ca871164e5c7b06cd5c249025e8de4dc9565e23a8b337d88117698b2dd4ca01ad49f7aa543c473e834512bf1a89d0fa26444532e23d7332a5079e6a3063197ad61b3e6e368d95a5a7a6e80b7dcf56938c80e64b12c42c559aaf695b2adaeb9ae1e569ac037869ebbcc82c1604d54a5fb7ea51b95c7e32a4e43b9126d9ba2fb3e1ee92298d73693c3327731957cdbbccc7c84a764b5010137614cccd5adea9c659412fd204020d67f2b7ee3deaa957b1199aa6a523ba1fa74a0e289eb625b88ec443398d4290d20e2e1daba213b80be92649ba3b60dd2385b4030bccff0b0ad1bbde786f52aeafc856666cd17375601d497ee570ebb58fbde21b9def3ac320df905ecf468173ed58e342bcae552812972a6d88aea59ff00c3845fa78298c92476dfc3f3d51dccd565a43d30a37a502c8a2898ce8c995d35914a5d08100b2336cf9c0992bcfe54ca395aa766b750d86ccac7c9cbc64e5da729ff789615245785a7404ea19fd1cd76415524057857b877b781ee84350c1aafe721180630bb9b69e4ad58a0d768826a101442a67cfa79d9c409cce8b42e24b0f0bbcdcd5766bee56cba7364b83049f0b7d52a3be826110ab754d46d4b27e0d7558653ef677fab2b2f4c15d93724705ae36bf2d28a7be7111debdc02c21759d9f4a3ef49dd7e16ef31af8d2ed24db847ae0bad694f468a41d0c30cc209329ab9d9e0a29f7af9f9350a30c5541bbe5f2a2eecef9ebb7f34ae2ff479021c8e861aa384c8dc493c000387160fcf288862f563a4cd594f51c135ee7af42991b08ef96f795ceae976467e09dee6075ca7a72082e8316195b1655702bf1ff4d77f6fa69edb497989e8f13f215bbba0f4e44dc9f5e6c10b1a11ef25b46111b3c28a391817a2b6e56f39d52c3db70265aa0915ca4b06b1a2a99eb47525953a2f628867428710200cddd81a6d7d37ef42dd87e5855408c4c171fe93c69730b6cf69a909b6a1a1b32a9ab3e989db74739accc5d3fb1aeaca767ab464be08bb17ecd91cfab9ed9ffb4892ddf8ccf96e6a49702bbaa8ff4ae3849bc0eeaff6351c7f7cf6e956dc7a7e3c3c7963794cb9e9fd3c54ee7cb54ab987f8aca4f7dbcb3fd81068d0393086a3f79b459df649df8e4abf36a40e10ec88db25dcfc116c162eb997cf23b3e35937520d8b8660e19534fd2ee5be028a6952bb317e96309338a872465384fed542516877fd269ab20a6cbd11cff3fa0a4fd6122e4c0d463d27f7b28fc3fedaf9359c943d3019a57a5f6a7d63b1beeb0ceb7b71ae4fc3049ba87b3630e2f6574b6319cbe0a28097f53ed3ab883a7eee8e2b8148af5fb84c61149d89b5dee0aadae35477959288a8039269400af96c3ef99ee809e516f90ae7f3422ad85a1b2b6e275d94c19031ea522ff7d6fdc3e514d1eeda93544bd22f80aa98fb4f2d3f5ac2ee03cc233e3fb72cf2b62a2d30dc8417d46ccb058057916f67778cb4b75a7f13b8b395c6a71deff8194ea9579b67594b959cd3afd8355fe2137e304ee66552071682a1681fe4d0b8462e"
      ],
      "sequence": 4294967294
    }
  ],
  "vout": [
    {
      "value": 499982.7127,
      "n": 0,
      "scriptPubKey": {
        "asm": "1 739f4bcc28fe600d603f7a13eaaa9e2a5136367fbea6113e044eb9a8c262d537",
        "hex": "5120739f4bcc28fe600d603f7a13eaaa9e2a5136367fbea6113e044eb9a8c262d537",
        "reqSigs": 1,
        "type": "witness_v1_scripthash",
        "addresses": [
          "3QJmnh"
        ]
      }
    },
    {
      "value": 1.0,
      "n": 1,
      "scriptPubKey": {
        "asm": "OP_RETURN 741afeb4d241a8cd2674e2fb8160818c6693890b69ee66d32f038628ea1bbabd 43fe5f0e85e4b501d2ce79f4040b99463dca0526ca71918658beaea1e3d6e4b363de7f2ea5c49521f2ee59d4242bb9661dea2506ea51b1a6789e8e81c3f6c49303be1f4ec5a4f541928e39b4444bd9067d8a45668a31d1c618feeee1a396a4f3239e3f6ee584d561b2ae1994646bf9265daa6546aa11f1e638decec183b684d3c37edf8e05643581524ef974848b19c6bd4a85a64af11106d83e2e2163566433e35effae254415a1726ed954a4ab39e69d6aa5866ad13126f81e0e0143764413833e9fce452475c1120eb934c4cb5986fd0ac5e60ab15146987e6e6123162473a31ebfee650455e1322e9914e4eb79a6dd2ae5c62a917166b85e4e410336045343fe5f0e85e4b501d2ce79f4040b99463dca0526ca71918658beaea1e3d6e4b363de7f2ea5c49521f2ee59d4242bb9661dea2506ea51b1a6789e8e81c3f6c49303be1f4ec5a4f541928e39b4444bd9067d8a45668a31d1c618feeee1a396a4f3239e3f6ee584d561b2ae1994646bf9265daa6546aa11f1e638decec183b684d3c37edf8e05643581524ef974848b19c6bd4a85a64af11106d83e2e2163566433e35effae254415a1726ed954a4ab39e69d6aa5866ad13126f81e0e0143764413833e9fce452475c1120eb934c4cb5986fd0ac5e60ab15146987e6e6123162473a31ebfee650455e1322e9914e4eb79a6dd2ae5c62a917166b85e4e410336045343fe5f0e85e4b501d2ce79f4040b99463dca0526ca71918658beaea1e3d6e4b363de7f2ea5c49521f2ee59d4242bb9661dea2506ea51b1a6789e8e81c3f6c49303be1f4ec5a4f541928e39b4444bd9067d8a45668a31d1c618feeee1a396a4f3239e3f6ee584d561b2ae1994646bf9265daa6546aa11f1e638decec183b684d3c37edf8e05643581524ef974848b19c6bd4a85a64af11106d83e2e2163566433e35effae254415a1726ed954a4ab39e69d6aa5866ad13126f81e0e0143764413833e9fce452475c1120eb934c4cb5986fd0ac5e60ab15146987e6e6123162473a31ebfee650455e1322e9914e4eb79a6dd2ae5c62a917166b85e4e410336045343fe5f0e85e4b501d2ce79f4040b99463dca0526ca71918658beaea1e3d6e4b363de7f2ea5c49521f2ee59d4242bb9661dea2506ea51b1a6789e8e81c3f6c49303be1f4ec5a4f541928e39b4444bd9067d8a45668a31d1c618feeee1a396a4f3239e3f6ee584d561b2ae1994646bf9265daa6546aa11f1e638decec183b684d3c37edf8e05643581524ef974848b19c6bd4a85a64af11106d83e2e2163566433e35effae254415a1726ed954a4ab39e69d6aa5866ad13126f81e0e0143764413833e9fce452475c1120eb934c4cb5986fd0ac5e60ab15146987e6e6123162473a31ebfee650455e1322e9914e4eb79a6dd2ae5c62a917166b85e4e410336045343fe5f0e85e4b501d2ce79f4040b99463dca0526ca71918658beaea1e3d6e4b363de7f2ea5c49521f2ee59d4242bb9661dea2506ea51b1a6789e8e81c3f6c49303be1f4ec5a4f541928e39b4444bd9067d8a45668a31d1c618feeee1a396a4f3239e3f6ee584d561b2ae1994646bf9265daa6546aa11f1e638decec183b684d3c37edf8e05643581524ef974848b19c6192a84059bb2fa095cc4c3be35a4e6f2c5342c09a8c1f2bec86f05449950b7b2",
        "hex": "6a20741afeb4d241a8cd2674e2fb8160818c6693890b69ee66d32f038628ea1bbabd4db00443fe5f0e85e4b501d2ce79f4040b99463dca0526ca71918658beaea1e3d6e4b363de7f2ea5c49521f2ee59d4242bb9661dea2506ea51b1a6789e8e81c3f6c49303be1f4ec5a4f541928e39b4444bd9067d8a45668a31d1c618feeee1a396a4f3239e3f6ee584d561b2ae1994646bf9265daa6546aa11f1e638decec183b684d3c37edf8e05643581524ef974848b19c6bd4a85a64af11106d83e2e2163566433e35effae254415a1726ed954a4ab39e69d6aa5866ad13126f81e0e0143764413833e9fce452475c1120eb934c4cb5986fd0ac5e60ab15146987e6e6123162473a31ebfee650455e1322e9914e4eb79a6dd2ae5c62a917166b85e4e410336045343fe5f0e85e4b501d2ce79f4040b99463dca0526ca71918658beaea1e3d6e4b363de7f2ea5c49521f2ee59d4242bb9661dea2506ea51b1a6789e8e81c3f6c49303be1f4ec5a4f541928e39b4444bd9067d8a45668a31d1c618feeee1a396a4f3239e3f6ee584d561b2ae1994646bf9265daa6546aa11f1e638decec183b684d3c37edf8e05643581524ef974848b19c6bd4a85a64af11106d83e2e2163566433e35effae254415a1726ed954a4ab39e69d6aa5866ad13126f81e0e0143764413833e9fce452475c1120eb934c4cb5986fd0ac5e60ab15146987e6e6123162473a31ebfee650455e1322e9914e4eb79a6dd2ae5c62a917166b85e4e410336045343fe5f0e85e4b501d2ce79f4040b99463dca0526ca71918658beaea1e3d6e4b363de7f2ea5c49521f2ee59d4242bb9661dea2506ea51b1a6789e8e81c3f6c49303be1f4ec5a4f541928e39b4444bd9067d8a45668a31d1c618feeee1a396a4f3239e3f6ee584d561b2ae1994646bf9265daa6546aa11f1e638decec183b684d3c37edf8e05643581524ef974848b19c6bd4a85a64af11106d83e2e2163566433e35effae254415a1726ed954a4ab39e69d6aa5866ad13126f81e0e0143764413833e9fce452475c1120eb934c4cb5986fd0ac5e60ab15146987e6e6123162473a31ebfee650455e1322e9914e4eb79a6dd2ae5c62a917166b85e4e410336045343fe5f0e85e4b501d2ce79f4040b99463dca0526ca71918658beaea1e3d6e4b363de7f2ea5c49521f2ee59d4242bb9661dea2506ea51b1a6789e8e81c3f6c49303be1f4ec5a4f541928e39b4444bd9067d8a45668a31d1c618feeee1a396a4f3239e3f6ee584d561b2ae1994646bf9265daa6546aa11f1e638decec183b684d3c37edf8e05643581524ef974848b19c6bd4a85a64af11106d83e2e2163566433e35effae254415a1726ed954a4ab39e69d6aa5866ad13126f81e0e0143764413833e9fce452475c1120eb934c4cb5986fd0ac5e60ab15146987e6e6123162473a31ebfee650455e1322e9914e4eb79a6dd2ae5c62a917166b85e4e410336045343fe5f0e85e4b501d2ce79f4040b99463dca0526ca71918658beaea1e3d6e4b363de7f2ea5c49521f2ee59d4242bb9661dea2506ea51b1a6789e8e81c3f6c49303be1f4ec5a4f541928e39b4444bd9067d8a45668a31d1c618feeee1a396a4f3239e3f6ee584d561b2ae1994646bf9265daa6546aa11f1e638decec183b684d3c37edf8e05643581524ef974848b19c6192a84059bb2fa095cc4c3be35a4e6f2c5342c09a8c1f2bec86f05449950b7b2",
        "type": "nulldata"
      }
    }
  ],
  "blockhash": "b157fe5006ea74e3e2696296011f5383f171fa956e468cbbd84742f98a1af3af",
  "confirmations": 1,
  "time": 1764179051,
  "blocktime": 1764179051
}