{
  "hex": "01000000000101c76d2d171360d55789bc5ea3dde0bac118d8d5312fb182a45ad2fe177b9f41420000000000feffffff0200e1f50500000000fdd5046a2051849c9864826f831b99c2ec662d8c9336ec2466411cac2a942cc92c48ef65a14db00440db88585bb90b42a20b6aeb582a89658a8ad6060e28d3f609efc5e69edc20c160fba8787b992b62822b4acb780aa945aaaaf6262e08f3d629cfe5c6befc00e1009bc8181bf94b02e24b2aab186ac925caca96464e6893b649af85a6de9c608120bbe8383bd96b22c26b0a8b384ae905eaeab6666e48b396698fa586febc40a1c05b08d8db398bc2228bea6bd8aa09e50a0a56868ea85376896f45661e5ca041e07b28f8fb19abe202abca4bf88a29c52a2a76a6ae887356a94f65463e7c8061801b48989b79cb8262cbaa2b98ea49a54a4a16c6cee81336c92f05265e1ce001a03b68b8bb59eba242eb8a0bb8ca69856a6a36e6eec83316e90f25067e3cc02140db88585bb90b42a20b6aeb582a89658a8ad6060e28d3f609efc5e69edc20c160fba8787b992b62822b4acb780aa945aaaaf6262e08f3d629cfe5c6befc00e1009bc8181bf94b02e24b2aab186ac925caca96464e6893b649af85a6de9c608120bbe8383bd96b22c26b0a8b384ae905eaeab6666e48b396698fa586febc40a1c05b08d8db398bc2228bea6bd8aa09e50a0a56868ea85376896f45661e5ca041e07b28f8fb19abe202abca4bf88a29c52a2a76a6ae887356a94f65463e7c8061801b48989b79cb8262cbaa2b98ea49a54a4a16c6cee81336c92f05265e1ce001a03b68b8bb59eba242eb8a0bb8ca69856a6a36e6eec83316e90f25067e3cc02140db88585bb90b42a20b6aeb582a89658a8ad6060e28d3f609efc5e69edc20c160fba8787b992b62822b4acb780aa945aaaaf6262e08f3d629cfe5c6befc00e1009bc8181bf94b02e24b2aab186ac925caca96464e6893b649af85a6de9c608120bbe8383bd96b22c26b0a8b384ae905eaeab6666e48b396698fa586febc40a1c05b08d8db398bc2228bea6bd8aa09e50a0a56868ea85376896f45661e5ca041e07b28f8fb19abe202abca4bf88a29c52a2a76a6ae887356a94f65463e7c8061801b48989b79cb8262cbaa2b98ea49a54a4a16c6cee81336c92f05265e1ce001a03b68b8bb59eba242eb8a0bb8ca69856a6a36e6eec83316e90f25067e3cc02140db88585bb90b42a20b6aeb582a89658a8ad6060e28d3f609efc5e69edc20c160fba8787b992b62822b4acb780aa945aaaaf6262e08f3d629cfe5c6befc00e1009bc8181bf94b02e24b2aab186ac925caca96464e6893b649af85a6de9c608120bbe8383bd96b22c26b0a8b384ae905eaeab6666e48b396698fa586febc40a1c05b08d8db398bc2228bea6bd8aa09e50a0a56868ea85376896f45661e5ca041e07b28f8fb19abe202abca4bf88a29c52a2a76a6ae887356a94f65463e7c8061801b48989b79cb8262cbaa2b98ea49a54a4a16c6cee81336c92f05265e1ce001a03b68b8bb59eba242eb8a0bb8ca69856a6a36e6eec83316e90f25067e3cc02140db88585bb90b42a20b6aeb582a89658a8ad6060e28d3f609efc5e69edc20c160fba8787b992b62822b4acb780aa945aaaaf6262e08f3d629cfe5c6befc00e1009bc8181bf94b02e24b2aab186ac925caca96464e6893b649af85a6de9c608120bbe8383bd96b22c26b0a8b384ae905eaeab6666e48b396698fa586febc40a1c05b08d8db398bc2228bea6bd8aa09e5b3d5e915f5cbf43ff8fb1136befb579cabee81000beda4fb5bbb3d46906d1d9410cdd4fc782d00002251204905e21b8a5430b4499c76afa8ecc0920b79cafdaca11331e1925fbc51bdece302fd75099b87fc10b761843d453f0f716430020ac016456e885ec0b78126483d1876b3025f77f52362561ffcf2fe8c6a55ff6ab874693ababffe031da045735da08464c9ef98bf78e96d46d059b4ada1c5e291cf847132bb3fd7d779c5bf0890b7f54e6456ce4612a4b627d4b31748b515e70b2806c8e7fc0ebf9a74c37820a316b27fae134cc62c292e55868c450017f2c7dcc9f50f3b0df9e0d9bc1e1c68dbba45e877d8b8f38aec827a2376395f3f464aead3a174eb1f06d8d7da368bc378d0711cf75e124bc3235d28cf4824aa7b98329b6d1f443a635fb6b39c34f261485842c9df3d40635974df43bce46c6520260dba81508f022b381af820f122cf278f865501463d61a75e5aa2a6addc0481a3beda4dbfefa87c048fefc2c551ba7c4a25a54d3e9779145cb297b85205dd8df1289b2517a67ea80b224163d236ec53d114cf6bdc50df5d38675a168aaa9634bade641acce1fd4ccd61577e599e9a044a62452c21756867291ff02ea367834269f27882c13574155a981fba3907821915edd947025e8ad57d8721e0de5765b96cfaa33d4233753e9655125974a71fe2b4d98a516f3b9eb1beec418ca7388822ad358ed8d46105f67978ae4cfb6ed27a267f0d7bc2e2b8b8a3449c3f151b9d18bac9fd1ab09a3499669c99ea201ba06468ca6b2a105710b860e2e9803b2be85e5abe26154de9f24775826895436fee178e545453576a7b2bca1e0b935cc68850ac3f47d4c15944323d924ca744a217d61a9a46ce354a9ca71d147e07fae608405f36ce5fe6d038e5a2f4a388d9561c994f0d173b921f2711ceec8a3e83455de442c03e1a9d3e6aac399742779cebd3c73504abbcd3da5e99432b44b367327a003257612632b7195c82982502ae947785ba54558400519a9e00f86ab294acff18b3045f73b032da9ab3f69baef72cb607b423cbc8c485fda9d4fee72aa85523f3346edf28183f31c1c97af2fe791e96fbf5b25a626542ae99b40b7ec6b5c2158fcaa2f6650bdeeb7a7a8f7443ca46c03bd29065055b81fb6d8d882f82c27111b2cb774b6661349433a5e063cd70d7bd1a3b3ff80c67f1e690c2b39a2a16bd7615fc374751605fea9c71c4dec8bc7fe6c129b2a9781aedfe0727fe6c1789435c173ea25446bee7cb6ab99e60aca9a1e625040d68ecd1b1722e1453b131a828f025543c6bf61bbdcfb9f682b25c1b191ffde7ad14571aa648a2edf5ec1f88adc923bb51c478a4ef1c4dbd1999c23c781fa2894d5d897ba83c4b483288af7ddefba4e996c32f036fdd2f81fe27e21f08843542f6fe841d30ecaae914d39eb43eb009cff590b2ddace0a32c9cbd5a8edcd5d81b3b48ebdec0a1bdda5106418eb59c50825f3ac16ac5554b0f70369978cbcb72e6f7cc7b7c1de53090e4ead6c2d8e9b7de7494a1f0fe32e519de4f01e00374e251818ff1c1ca2549e7b1f18abf83e67f162a153495f0a8fcbaaef2190de1d6488deae9bc7fed9155ab0526f59fdfe6b6e4eb298e7def49572d470710e8917ba8d62d0139adad31a257bab8bcdbde583ae1186d47c1a7a5cfbdca3e8432f2ab6f06906eac61ecea449a4a2a86df202bb787071cfd9e9f6d7721248ce1d628ce7a6775b6162b78730c26f069dbd0664222d97fd073a12ac06ba772049d648ec1235f29bbef3d0c3d33e3e9298f2070aaf3cdbe10f8dd9361217b0dc1eaaf4fe6e732576eb15764892fb12e7c409f47bc78015da3b9665fd6878463a5148d520fa53c3d020c2f5c358d7174ec90a837d54c719fd04c6e6b25a2c5f04cf9d0bb3efb506c4471def32b5602d432aeee66c179249350b2a27eb1da1ea6864c20cfdc2193a3789e181a4be75913fbb57be2ff74cbcadf8659421f4ac4a720b9b95b077799e247193531ac7099aba344883502d36e796a150235d14f4e19b9e5b142974b0216e721f9a1f00d9d279fc3a5d96eff0694e4f573b3769611ecb6c16610e202c49dabbfd4a8dc12ce1e35b6d1b6e20464828af2a106eba8a80a7fc75303fb94ee596413e9c30f8b55886d75534b1b1917857ce1cf823901e3b2d888c22dfc4e8ee1fac34f612736597ce6682177c4e525ab772bbde207a56bf4e47d7bdbafc4bd8ccd3de1cdd6afe5c470ff455979fbd8700822c3fb46ad9aee16a2807201fdafe0f326b151c55fe199a344cee6cc0ce8d99dacfc7cdd09d50a5dfb055d8a3a4cc9401320b52be0f580a9efd4cd9894253219ce5a97b1edfca7e6e8dc1d45a711c8dd9eadee979bbc72eb6b38692c1ffbb0c409c9a2df11400e9574cad1c8714fd3d22590de11505c8f11d1d937587d255e12f1b895eb4bb7539b42cce7170cd3b7cf9bd59dd031b2bbed05310736c76baee7699c1c921457dec5f4b0eb7bae36763888d95314b527c73273924a0bd206dc908f40d9acfa0c8e2c42013c869925c3e2b046bede52aa9796062efbbd574184318c608157b29f5d296a85aff872f7c80e43e7bca75551696b8283af957c8217ef4fc1a0c3227c73d93f2d3e24f14358c3c088c7ae1b6ab2c92be83a8e9651499f407a413411e4ac18573458274109f317f82fdcc33ab1d59104758720b00bc3078ed068c3e1cc062c8ba2e55105a3e8f3ae88372fdcedf6b84008afe1a2d67b091378c1029bd250e14e8aa7d777c64014c9543112dc1bec77faeb3ed1009fdf3acfd9d682e99ee9f700920b7b9d891607b1c96334a016abfbc27ed1ffa33589ed12c5bcc8e899dbb079343d8fca37b301b71099ad6a4476fafd05b8658b7cd64a86916c453eacccf0fcc3a6556141a5efad315a6f1e719fec9ac2dd5fc1cb3388c04a293ee9c325b2e61aa997595b56dcf0e119c28ff53dff0f0ef7d919073f4d895ef7896f9f42be9054c5d225bbebfae9dbfdccb97d2713382dcbc56aa68596ce3dfe3a239e4e758112ed0a4a32f7c9bda0c7671f1a0ff762535169eeab56a6751446969ccc477841ae1faef093d06f59306d4c8b299b350dc02d4f0713bae6a9b9368499ddad577b1b937f37b671acda2b15a841451758d42603513f228a871932e795c3c18079a8561774f8cf70f6c33c21b6df3955685d80d14087756a67563fdf3a568317aeb44549b2ae25f047e3e9064daa112e78ffc463cc65059c2c622ea545daab6b06d5208859d6b7f5722c78bf75f094e90e3972277e1c37768c9ffa23db315a317c4eb4dfa275e126335c024565a23338a3998b8441df62835ee4d0076db37b86c299a89049d38378966bcbb7062f0e297d3b3f884601fa82cd5bf855b6049d779cc8b45d4d2fe10b38870611243642a2b3b4b7b9c7d2edf90313181b2c2e373c587eaab9bcc3cbd3d6defb0d0e203e4247495d6699a4b3b9bbc5cedcdfecf0fa0215264a585f6ca5aeb5b9e6ecf40000000000000000000000000e21364401fd210500cdc4ab58b94372b1eca4a48100ed1d08da79e4d3685d407c2f86b10dc4fa7dc0eba34bbf55b756efbefbd474eea99c1e04047b741fd6b0bcc0b505d73e7623e8988d1d458c5c58d96aa60cb8939d2e2fb0138b74cc40ccc9f41f3b4a7365a8f4b968f8c2c353c5e66ff4c12eaee41ab5a3c99fc49c9438fa3d896298c1173e0972fcf2eda903ddc0a1f6119daac0497bae2b7ab62fa29df97a6a588fb268009302c79d10c8941fc51e4ca9a8620b6f7ad72125aecd3fae20f51ed923812397c59971f465b67c11c11eea15ad7632da853be06f89f91ff551bd76e76ab9ca77c13286d0c66095e04243c76193d426cf403f9d46a844ff944d71ad5275720fa115fe497d71fe951ec221012deb73225a1cb5f7afd319e34c567423967887b9b3365ff89674a109f093ad693d4891978d5fb40b27bc8c4bca8b036dd4bf6c0e0ff5840d6f0ccd936be9403afa7a586e1564b1eb694dbe6aeb61c7aed8c95d983057e5c405ae48d1e21e4bd60e8686995c0b03c5ef948bb060098066defc282e35f0ca248e3090f1094d578765e252d7d2be05b2220ff92f7f29111c52cedf16bc2d07f94825ede64ce4ab1c4a904d1bc55ce8b7b11e4ec4effdadda30f8fc134eb7a3813dad06eca5adfa6c27942ed03e3f00ea8cf8b42e65ad8ae0206b432cc3fbdb69966265657886ce783633a62523393377682a77c09d0f6c77ddc119976293d371d1e9470db39b8ad19dd4c437a49fd311322d86816ed9362a32baf3375d2cad4fbe4e81009413c2ab338cc0541919dcb82a765f88b4dddea486dfc0b2fbfa5cc4d0aa92dbcb221579a6476530eb9676cd5b287faddf937addbef9abde00bf4bc16e30c2293b2881d728ec0746e77c3cba391984b6d56f27b4d3ed3689c9b4ef52be1d7a4b5cad9e9872a0e17cf3ab2a418cbbb7b9198ca52b7600f9f5dbcf74628b8886f1597ce97ae03bcc3f3a928017e87ed61a6ec498aa59326108e033d8355ecd89f96f04e57334c7bb5b0988eafc30153d30d2110633fd895d6a7c7b03a6a470e8919dd109fb5f7f5da3d760993d5a3d5afd618df2003247ab5070b2d46a54e1fcb1d07f8cfaa5dee138933fb65d0a47dd29667c30f4de7e0a3814a535f492b969c6640ebf86aebda547ad736156837ce2d5e9730f9014c973f80ec7560c8eb6d0f721f483d7a00e1853292a8c044857066ce974b5a8d9a94b44f6d910faca946e575e256384184c64c43ae67734b13df4332ba344333163476ef9ae124f486d08ffd44a4dc56680f827b5db18731338fc127bb0b052e1c26a3573b0eb2ce234dd2b949308929b1361bf28f43fb6b50f73d26aac2897a85c9f7b860a91820da936eeddde2a4df9968b59a9666f8ea19d33ab0332d827239c9fa44da655713e452d4bcab0564cc85cbc44a4c5ce46602218b62c972091fb26fc90b535e97c8f3ae223a972fbcf86f48b55c9154de067250c6fe52ac9c8a1de9bd1d1530c641d01ef0a51d25b164d3be81ba53458b9994a08569df48fddb582b3b7f9d73bae059622bd6ec139ff2dfc8022fc04c4a0838faf443c61086c3f4d2154e8101f5d9cbc7c2384d6a7bd4f367b6a0c823fe7feacd18a3debe515e1384528ac175b1b831c0ca9e6d471864572e2bad6cfa133df680683e3efdbe1537e76149951b13a5392fd17b17be6ba1f18b2ced0f9b799a40a0c0af31c706ac46ac0a1172739c39e80ce04cdc898dff04c2b2f08f4c36d70fef594e8d511a85a510572a128c2eb8617fbcebe24528d210174627f7a1d36ebc8907df6e91a784301498f50218e347d2dfc2cade029ca6db0f109b1e56b1c5663df941509f488c0dc091cb02479000000",
  "txid": "51903dc2cea90aca8414e9b2183ebfa3b392a28ebb07590a03c14b5ef43ad14b",
  "hash": "38e827bc6cfbb1d4e9b08e6aa36faef8b6e4f4df0e14e1f77e5670b02f8af2e2",
  "size": 5085,
  "vsize": 2278,
  "version": 1,
  "locktime": 121,
  "vin": [
    {
      "txid": "42419f7b17fed25aa482b12f31d5d818c1bae0dda35ebc8957d56013172d6dc7",
      "vout": 0,
      "scriptSig": {
        "asm": "",
        "hex": ""
      },
      "txinwitness": [
        "9b87fc10b761843d453f0f716430020ac016456e885ec0b78126483d1876b3025f77f52362561ffcf2fe8c6a55ff6ab874693ababffe031da045735da08464c9ef98bf78e96d46d059b4ada1c5e291cf847132bb3fd7d779c5bf0890b7f54e6456ce4612a4b627d4b31748b515e70b2806c8e7fc0ebf9a74c37820a316b27fae134cc62c292e55868c450017f2c7dcc9f50f3b0df9e0d9bc1e1c68dbba45e877d8b8f38aec827a2376395f3f464aead3a174eb1f06d8d7da368bc378d0711cf75e124bc3235d28cf4824aa7b98329b6d1f443a635fb6b39c34f261485842c9df3d40635974df43bce46c6520260dba81508f022b381af820f122cf278f865501463d61a75e5aa2a6addc0481a3beda4dbfefa87c048fefc2c551ba7c4a25a54d3e9779145cb297b85205dd8df1289b2517a67ea80b224163d236ec53d114cf6bdc50df5d38675a168aaa9634bade641acce1fd4ccd61577e599e9a044a62452c21756867291ff02ea367834269f27882c13574155a981fba3907821915edd947025e8ad57d8721e0de5765b96cfaa33d4233753e9655125974a71fe2b4d98a516f3b9eb1beec418ca7388822ad358ed8d46105f67978ae4cfb6ed27a267f0d7bc2e2b8b8a3449c3f151b9d18bac9fd1ab09a3499669c99ea201ba06468ca6b2a105710b860e2e9803b2be85e5abe26154de9f24775826895436fee178e545453576a7b2bca1e0b935cc68850ac3f47d4c15944323d924ca744a217d61a9a46ce354a9ca71d147e07fae608405f36ce5fe6d038e5a2f4a388d9561c994f0d173b921f2711ceec8a3e83455de442c03e1a9d3e6aac399742779cebd3c73504abbcd3da5e99432b44b367327a003257612632b7195c82982502ae947785ba54558400519a9e00f86ab294acff18b3045f73b032da9ab3f69baef72cb607b423cbc8c485fda9d4fee72aa85523f3346edf28183f31c1c97af2fe791e96fbf5b25a626542ae99b40b7ec6b5c2158fcaa2f6650bdeeb7a7a8f7443ca46c03bd29065055b81fb6d8d882f82c27111b2cb774b6661349433a5e063cd70d7bd1a3b3ff80c67f1e690c2b39a2a16bd7615fc374751605fea9c71c4dec8bc7fe6c129b2a9781aedfe0727fe6c1789435c173ea25446bee7cb6ab99e60aca9a1e625040d68ecd1b1722e1453b131a828f025543c6bf61bbdcfb9f682b25c1b191ffde7ad14571aa648a2edf5ec1f88adc923bb51c478a4ef1c4dbd1999c23c781fa2894d5d897ba83c4b483288af7ddefba4e996c32f036fdd2f81fe27e21f08843542f6fe841d30ecaae914d39eb43eb009cff590b2ddace0a32c9cbd5a8edcd5d81b3b48ebdec0a1bdda5106418eb59c50825f3ac16ac5554b0f70369978cbcb72e6f7cc7b7c1de53090e4ead6c2d8e9b7de7494a1f0fe32e519de4f01e00374e251818ff1c1ca2549e7b1f18abf83e67f162a153495f0a8fcbaaef2190de1d6488deae9bc7fed9155ab0526f59fdfe6b6e4eb298e7def49572d470710e8917ba8d62d0139adad31a257bab8bcdbde583ae1186d47c1a7a5cfbdca3e8432f2ab6f06906eac61ecea449a4a2a86df202bb787071cfd9e9f6d7721248ce1d628ce7a6775b6162b78730c26f069dbd0664222d97fd073a12ac06ba772049d648ec1235f29bbef3d0c3d33e3e9298f2070aaf3cdbe10f8dd9361217b0dc1eaaf4fe6e732576eb15764892fb12e7c409f47bc78015da3b9665fd6878463a5148d520fa53c3d020c2f5c358d7174ec90a837d54c719fd04c6e6b25a2c5f04cf9d0bb3efb506c4471def32b5602d432aeee66c179249350b2a27eb1da1ea6864c20cfdc2193a3789e181a4be75913fbb57be2ff74cbcadf8659421f4ac4a720b9b95b077799e247193531ac7099aba344883502d36e796a150235d14f4e19b9e5b142974b0216e721f9a1f00d9d279fc3a5d96eff0694e4f573b3769611ecb6c16610e202c49dabbfd4a8dc12ce1e35b6d1b6e20464828af2a106eba8a80a7fc75303fb94ee596413e9c30f8b55886d75534b1b1917857ce1cf823901e3b2d888c22dfc4e8ee1fac34f612736597ce6682177c4e525ab772bbde207a56bf4e47d7bdbafc4bd8ccd3de1cdd6afe5c470ff455979fbd8700822c3fb46ad9aee16a2807201fdafe0f326b151c55fe199a344cee6cc0ce8d99dacfc7cdd09d50a5dfb055d8a3a4cc9401320b52be0f580a9efd4cd9894253219ce5a97b1edfca7e6e8dc1d45a711c8dd9eadee979bbc72eb6b38692c1ffbb0c409c9a2df11400e9574cad1c8714fd3d22590de11505c8f11d1d937587d255e12f1b895eb4bb7539b42cce7170cd3b7cf9bd59dd031b2bbed05310736c76baee7699c1c921457dec5f4b0eb7bae36763888d95314b527c73273924a0bd206dc908f40d9acfa0c8e2c42013c869925c3e2b046bede52aa9796062efbbd574184318c608157b29f5d296a85aff872f7c80e43e7bca75551696b8283af957c8217ef4fc1a0c3227c73d93f2d3e24f14358c3c088c7ae1b6ab2c92be83a8e9651499f407a413411e4ac18573458274109f317f82fdcc33ab1d59104758720b00bc3078ed068c3e1cc062c8ba2e55105a3e8f3ae88372fdcedf6b84008afe1a2d67b091378c1029bd250e14e8aa7d777c64014c9543112dc1bec77faeb3ed1009fdf3acfd9d682e99ee9f700920b7b9d891607b1c96334a016abfbc27ed1ffa33589ed12c5bcc8e899dbb079343d8fca37b301b71099ad6a4476fafd05b8658b7cd64a86916c453eacccf0fcc3a6556141a5efad315a6f1e719fec9ac2dd5fc1cb3388c04a293ee9c325b2e61aa997595b56dcf0e119c28ff53dff0f0ef7d919073f4d895ef7896f9f42be9054c5d225bbebfae9dbfdccb97d2713382dcbc56aa68596ce3dfe3a239e4e758112ed0a4a32f7c9bda0c7671f1a0ff762535169eeab56a6751446969ccc477841ae1faef093d06f59306d4c8b299b350dc02d4f0713bae6a9b9368499ddad577b1b937f37b671acda2b15a841451758d42603513f228a871932e795c3c18079a8561774f8cf70f6c33c21b6df3955685d80d14087756a67563fdf3a568317aeb44549b2ae25f047e3e9064daa112e78ffc463cc65059c2c622ea545daab6b06d5208859d6b7f5722c78bf75f094e90e3972277e1c37768c9ffa23db315a317c4eb4dfa275e126335c024565a23338a3998b8441df62835ee4d0076db37b86c299a89049d38378966bcbb7062f0e297d3b3f884601fa82cd5bf855b6049d779cc8b45d4d2fe10b38870611243642a2b3b4b7b9c7d2edf90313181b2c2e373c587eaab9bcc3cbd3d6defb0d0e203e4247495d6699a4b3b9bbc5cedcdfecf0fa0215264a585f6ca5aeb5b9e6ecf40000000000000000000000000e21364401",
        "00cdc4ab58b94372b1eca4a48100ed1d08da79e4d3685d407c2f86b10dc4fa7dc0eba34bbf55b756efbefbd474eea99c1e04047b741fd6b0bcc0b505d73e7623e8988d1d458c5c58d96aa60cb8939d2e2fb0138b74cc40ccc9f41f3b4a7365a8f4b968f8c2c353c5e66ff4c12eaee41ab5a3c99fc49c9438fa3d896298c1173e0972fcf2eda903ddc0a1f6119daac0497bae2b7ab62fa29df97a6a588fb268009302c79d10c8941fc51e4ca9a8620b6f7ad72125aecd3fae20f51ed923812397c59971f465b67c11c11eea15ad7632da853be06f89f91ff551bd76e76ab9ca77c13286d0c66095e04243c76193d426cf403f9d46a844ff944d71ad5275720fa115fe497d71fe951ec221012deb73225a1cb5f7afd319e34c567423967887b9b3365ff89674a109f093ad693d4891978d5fb40b27bc8c4bca8b036dd4bf6c0e0ff5840d6f0ccd936be9403afa7a586e1564b1eb694dbe6aeb61c7aed8c95d983057e5c405ae48d1e21e4bd60e8686995c0b03c5ef948bb060098066defc282e35f0ca248e3090f1094d578765e252d7d2be05b2220ff92f7f29111c52cedf16bc2d07f94825ede64ce4ab1c4a904d1bc55ce8b7b11e4ec4effdadda30f8fc134eb7a3813dad06eca5adfa6c27942ed03e3f00ea8cf8b42e65ad8ae0206b432cc3fbdb69966265657886ce783633a62523393377682a77c09d0f6c77ddc119976293d371d1e9470db39b8ad19dd4c437a49fd311322d86816ed9362a32baf3375d2cad4fbe4e81009413c2ab338cc0541919dcb82a765f88b4dddea486dfc0b2fbfa5cc4d0aa92dbcb221579a6476530eb9676cd5b287faddf937addbef9abde00bf4bc16e30c2293b2881d728ec0746e77c3cba391984b6d56f27b4d3ed3689c9b4ef52be1d7a4b5cad9e9872a0e17cf3ab2a418cbbb7b9198ca52b7600f9f5dbcf74628b8886f1597ce97ae03bcc3f3a928017e87ed61a6ec498aa59326108e033d8355ecd89f96f04e57334c7bb5b0988eafc30153d30d2110633fd895d6a7c7b03a6a470e8919dd109fb5f7f5da3d760993d5a3d5afd618df2003247ab5070b2d46a54e1fcb1d07f8cfaa5dee138933fb65d0a47dd29667c30f4de7e0a3814a535f492b969c6640ebf86aebda547ad736156837ce2d5e9730f9014c973f80ec7560c8eb6d0f721f483d7a00e1853292a8c044857066ce974b5a8d9a94b44f6d910faca946e575e256384184c64c43ae67734b13df4332ba344333163476ef9ae124f486d08ffd44a4dc56680f827b5db18731338fc127bb0b052e1c26a3573b0eb2ce234dd2b949308929b1361bf28f43fb6b50f73d26aac2897a85c9f7b860a91820da936eeddde2a4df9968b59a9666f8ea19d33ab0332d827239c9fa44da655713e452d4bcab0564cc85cbc44a4c5ce46602218b62c972091fb26fc90b535e97c8f3ae223a972fbcf86f48b55c9154de067250c6fe52ac9c8a1de9bd1d1530c641d01ef0a51d25b164d3be81ba53458b9994a08569df48fddb582b3b7f9d73bae059622bd6ec139ff2dfc8022fc04c4a0838faf443c61086c3f4d2154e8101f5d9cbc7c2384d6a7bd4f367b6a0c823fe7feacd18a3debe515e1384528ac175b1b831c0ca9e6d471864572e2bad6cfa133df680683e3efdbe1537e76149951b13a5392fd17b17be6ba1f18b2ced0f9b799a40a0c0af31c706ac46ac0a1172739c39e80ce04cdc898dff04c2b2f08f4c36d70fef594e8d511a85a510572a128c2eb8617fbcebe24528d210174627f7a1d36ebc8907df6e91a784301498f50218e347d2dfc2cade029ca6db0f109b1e56b1c5663df941509f488c0dc091cb024"
      ],
      "sequence": 4294967294
    }
  ],
  "vout": [
    {
      "value": 1.0,
      "n": 0,
      "scriptPubKey": {
        "asm": "OP_RETURN 51849c9864826f831b99c2ec662d8c9336ec2466411cac2a942cc92c48ef65a1 40db88585bb90b42a20b6aeb582a89658a8ad6060e28d3f609efc5e69edc20c160fba8787b992b62822b4acb780aa945aaaaf6262e08f3d629cfe5c6befc00e1009bc8181bf94b02e24b2aab186ac925caca96464e6893b649af85a6de9c608120bbe8383bd96b22c26b0a8b384ae905eaeab6666e48b396698fa586febc40a1c05b08d8db398bc2228bea6bd8aa09e50a0a56868ea85376896f45661e5ca041e07b28f8fb19abe202abca4bf88a29c52a2a76a6ae887356a94f65463e7c8061801b48989b79cb8262cbaa2b98ea49a54a4a16c6cee81336c92f05265e1ce001a03b68b8bb59eba242eb8a0bb8ca69856a6a36e6eec83316e90f25067e3cc02140db88585bb90b42a20b6aeb582a89658a8ad6060e28d3f609efc5e69edc20c160fba8787b992b62822b4acb780aa945aaaaf6262e08f3d629cfe5c6befc00e1009bc8181bf94b02e24b2aab186ac925caca96464e6893b649af85a6de9c608120bbe8383bd96b22c26b0a8b384ae905eaeab6666e48b396698fa586febc40a1c05b08d8db398bc2228bea6bd8aa09e50a0a56868ea85376896f45661e5ca041e07b28f8fb19abe202abca4bf88a29c52a2a76a6ae887356a94f65463e7c8061801b48989b79cb8262cbaa2b98ea49a54a4a16c6cee81336c92f05265e1ce001a03b68b8bb59eba242eb8a0bb8ca69856a6a36e6eec83316e90f25067e3cc02140db88585bb90b42a20b6aeb582a89658a8ad6060e28d3f609efc5e69edc20c160fba8787b992b62822b4acb780aa945aaaaf6262e08f3d629cfe5c6befc00e1009bc8181bf94b02e24b2aab186ac925caca96464e6893b649af85a6de9c608120bbe8383bd96b22c26b0a8b384ae905eaeab6666e48b396698fa586febc40a1c05b08d8db398bc2228bea6bd8aa09e50a0a56868ea85376896f45661e5ca041e07b28f8fb19abe202abca4bf88a29c52a2a76a6ae887356a94f65463e7c8061801b48989b79cb8262cbaa2b98ea49a54a4a16c6cee81336c92f05265e1ce001a03b68b8bb59eba242eb8a0bb8ca69856a6a36e6eec83316e90f25067e3cc02140db88585bb90b42a20b6aeb582a89658a8ad6060e28d3f609efc5e69edc20c160fba8787b992b62822b4acb780aa945aaaaf6262e08f3d629cfe5c6befc00e1009bc8181bf94b02e24b2aab186ac925caca96464e6893b649af85a6de9c608120bbe8383bd96b22c26b0a8b384ae905eaeab6666e48b396698fa586febc40a1c05b08d8db398bc2228bea6bd8aa09e50a0a56868ea85376896f45661e5ca041e07b28f8fb19abe202abca4bf88a29c52a2a76a6ae887356a94f65463e7c8061801b48989b79cb8262cbaa2b98ea49a54a4a16c6cee81336c92f05265e1ce001a03b68b8bb59eba242eb8a0bb8ca69856a6a36e6eec83316e90f25067e3cc02140db88585bb90b42a20b6aeb582a89658a8ad6060e28d3f609efc5e69edc20c160fba8787b992b62822b4acb780aa945aaaaf6262e08f3d629cfe5c6befc00e1009bc8181bf94b02e24b2aab186ac925caca96464e6893b649af85a6de9c608120bbe8383bd96b22c26b0a8b384ae905eaeab6666e48b396698fa586febc40a1c05b08d8db398bc2228bea6bd8aa09e5b3d5e915f5cbf43ff8fb1136befb579cabee81000beda4fb5bbb3d46906d1d94",
        "hex": "6a2051849c9864826f831b99c2ec662d8c9336ec2466411cac2a942cc92c48ef65a14db00440db88585bb90b42a20b6aeb582a89658a8ad6060e28d3f609efc5e69edc20c160fba8787b992b62822b4acb780aa945aaaaf6262e08f3d629cfe5c6befc00e1009bc8181bf94b02e24b2aab186ac925caca96464e6893b649af85a6de9c608120bbe8383bd96b22c26b0a8b384ae905eaeab6666e48b396698fa586febc40a1c05b08d8db398bc2228bea6bd8aa09e50a0a56868ea85376896f45661e5ca041e07b28f8fb19abe202abca4bf88a29c52a2a76a6ae887356a94f65463e7c8061801b48989b79cb8262cbaa2b98ea49a54a4a16c6cee81336c92f05265e1ce001a03b68b8bb59eba242eb8a0bb8ca69856a6a36e6eec83316e90f25067e3cc02140db88585bb90b42a20b6aeb582a89658a8ad6060e28d3f609efc5e69edc20c160fba8787b992b62822b4acb780aa945aaaaf6262e08f3d629cfe5c6befc00e1009bc8181bf94b02e24b2aab186ac925caca96464e6893b649af85a6de9c608120bbe8383bd96b22c26b0a8b384ae905eaeab6666e48b396698fa586febc40a1c05b08d8db398bc2228bea6bd8aa09e50a0a56868ea85376896f45661e5ca041e07b28f8fb19abe202abca4bf88a29c52a2a76a6ae887356a94f65463e7c8061801b48989b79cb8262cbaa2b98ea49a54a4a16c6cee81336c92f05265e1ce001a03b68b8bb59eba242eb8a0bb8ca69856a6a36e6eec83316e90f25067e3cc02140db88585bb90b42a20b6aeb582a89658a8ad6060e28d3f609efc5e69edc20c160fba8787b992b62822b4acb780aa945aaaaf6262e08f3d629cfe5c6befc00e1009bc8181bf94b02e24b2aab186ac925caca96464e6893b649af85a6de9c608120bbe8383bd96b22c26b0a8b384ae905eaeab6666e48b396698fa586febc40a1c05b08d8db398bc2228bea6bd8aa09e50a0a56868ea85376896f45661e5ca041e07b28f8fb19abe202abca4bf88a29c52a2a76a6ae887356a94f65463e7c8061801b48989b79cb8262cbaa2b98ea49a54a4a16c6cee81336c92f05265e1ce001a03b68b8bb59eba242eb8a0bb8ca69856a6a36e6eec83316e90f25067e3cc02140db88585bb90b42a20b6aeb582a89658a8ad6060e28d3f609efc5e69edc20c160fba8787b992b62822b4acb780aa945aaaaf6262e08f3d629cfe5c6befc00e1009bc8181bf94b02e24b2aab186ac925caca96464e6893b649af85a6de9c608120bbe8383bd96b22c26b0a8b384ae905eaeab6666e48b396698fa586febc40a1c05b08d8db398bc2228bea6bd8aa09e50a0a56868ea85376896f45661e5ca041e07b28f8fb19abe202abca4bf88a29c52a2a76a6ae887356a94f65463e7c8061801b48989b79cb8262cbaa2b98ea49a54a4a16c6cee81336c92f05265e1ce001a03b68b8bb59eba242eb8a0bb8ca69856a6a36e6eec83316e90f25067e3cc02140db88585bb90b42a20b6aeb582a89658a8ad6060e28d3f609efc5e69edc20c160fba8787b992b62822b4acb780aa945aaaaf6262e08f3d629cfe5c6befc00e1009bc8181bf94b02e24b2aab186ac925caca96464e6893b649af85a6de9c608120bbe8383bd96b22c26b0a8b384ae905eaeab6666e48b396698fa586febc40a1c05b08d8db398bc2228bea6bd8aa09e5b3d5e915f5cbf43ff8fb1136befb579cabee81000beda4fb5bbb3d46906d1d94",
        "type": "nulldata"
      }
    },
    {
      "value": 499976.6113,
      "n": 1,
      "scriptPubKey": {
        "asm": "1 4905e21b8a5430b4499c76afa8ecc0920b79cafdaca11331e1925fbc51bdece3",
        "hex": "51204905e21b8a5430b4499c76afa8ecc0920b79cafdaca11331e1925fbc51bdece3",
        "reqSigs": 1,
        "type": "witness_v1_scripthash",
        "addresses": [
          "3QJmnh"
        ]
      }
    }
  ],
  "blockhash": "b00c1afcc726d07acf9b884f47bf06130e4cba196c4900690ef7405d42c36beb",
  "confirmations": 1,
  "time": 1764180257,
  "blocktime": 1764180257
}