{
  "hex": "01000000000101f9b9661578cfdadfa08dd0935a00be212d94313dd98264e47c04f42c336c68820000000000feffffff026076a04b792d000022512030b62dddef12e3b12b10745c18f56f631518c7c9a863eb8039c297b033029ecb00e1f50500000000fdd5046a205a319556ed9f0744566ee9bd4af3894785dd43de65ca95987994f88ed8b7102c4db004e38b8f06170a12f677f6c6790033f584f24414961bf305b020e0acd55e5d3122c3abaf26372a32d657d6e6592013d5a4d26434b63bd3259000c08cf57e7d1102a3cbcf46574a52b637b686394073b5c4b20454d65bb345f060a0ec951e1d716283ebef66776a72961796a619605395e4922474f67b9365d04080ccb53e3d5142630b0f86978a9276f77646f980b3750472c494169b738530a0602c55deddb1a2432b2fa6b7aab256d75666d9a093552452e4b436bb53a51080400c75fefd9182234b4fc6d7cad236b73606b9c0f335443284d456db33c570e0206c159e9df1e2036b6fe6f7eaf21697162699e0d3156412a4f476fb13e550c0004c35bebdd1c2e38b8f06170a12f677f6c6790033f584f24414961bf305b020e0acd55e5d3122c3abaf26372a32d657d6e6592013d5a4d26434b63bd3259000c08cf57e7d1102a3cbcf46574a52b637b686394073b5c4b20454d65bb345f060a0ec951e1d716283ebef66776a72961796a619605395e4922474f67b9365d04080ccb53e3d5142630b0f86978a9276f77646f980b3750472c494169b738530a0602c55deddb1a2432b2fa6b7aab256d75666d9a093552452e4b436bb53a51080400c75fefd9182234b4fc6d7cad236b73606b9c0f335443284d456db33c570e0206c159e9df1e2036b6fe6f7eaf21697162699e0d3156412a4f476fb13e550c0004c35bebdd1c2e38b8f06170a12f677f6c6790033f584f24414961bf305b020e0acd55e5d3122c3abaf26372a32d657d6e6592013d5a4d26434b63bd3259000c08cf57e7d1102a3cbcf46574a52b637b686394073b5c4b20454d65bb345f060a0ec951e1d716283ebef66776a72961796a619605395e4922474f67b9365d04080ccb53e3d5142630b0f86978a9276f77646f980b3750472c494169b738530a0602c55deddb1a2432b2fa6b7aab256d75666d9a093552452e4b436bb53a51080400c75fefd9182234b4fc6d7cad236b73606b9c0f335443284d456db33c570e0206c159e9df1e2036b6fe6f7eaf21697162699e0d3156412a4f476fb13e550c0004c35bebdd1c2e38b8f06170a12f677f6c6790033f584f24414961bf305b020e0acd55e5d3122c3abaf26372a32d657d6e6592013d5a4d26434b63bd3259000c08cf57e7d1102a3cbcf46574a52b637b686394073b5c4b20454d65bb345f060a0ec951e1d716283ebef66776a72961796a619605395e4922474f67b9365d04080ccb53e3d5142630b0f86978a9276f77646f980b3750472c494169b738530a0602c55deddb1a2432b2fa6b7aab256d75666d9a093552452e4b436bb53a51080400c75fefd9182234b4fc6d7cad236b73606b9c0f335443284d456db33c570e0206c159e9df1e2036b6fe6f7eaf21697162699e0d3156412a4f476fb13e550c0004c35bebdd1c2e38b8f06170a12f677f6c6790033f584f24414961bf305b020e0acd55e5d3122c3abaf26372a32d657d6e6592013d5a4d26434b63bd3259000c08cf57e7d1102a3cbcf46574a52b637b686394073b5c4b20454d65bb345f060a0ec951e1d716283ebef66776a72961796a619605395e4922474f67b9365d04080ccb53e3d5142630b0f86978a9276f77646f980b37504f7e9c880169e0b0fdd35b2e11b5c0edd60addfe70ccd2ecf5197c58a082221ae02fd75093ca98d75f55149ee7d855def1fd60d984dbd48071356e0dddac1016e21e1e90d504da1e0cb68049f4bc1169825f38677f56e30230344bc7fc572bb5e1dbb031bbf4aa43f66d0d53bd4e29e2ca2a5d24306815c1f7bc6a476cd266f124ebbc53a1fdf5bfafbece0978012934e55919ced8b41b9d6c32847194b74557fffba951b2ae03bc2f0ef4db91212ed6ba933d1756d687864069c8389261175c6e38203e07419c8af6689969e52a9bfde0edd4b760bb93d36d90ec525c699c4ddc0d225ce320907fa83fdb659becdf7699d73087f452aec33aafb84db1c5dc82d96499f63e097026116fcc04e52b5e0e9791ce8ed9ebb327ce0d690190aea42c528b40f9899d935c2f9f3d2d3b1bdc84804e0a73db8841c20b2c90c914bef071c3bca0244b9d89a9aaa09d04ee1d7aadc9d6abbda0068a5c2bfa4bf4c5aeff6e136947e69e910fdf8d99f947341fa98a0e69c7e069931f5a80aea27a0fca1746a928bca19d58e104d9d661fbffb35b1769ae3557a111b4cef9b6aba2c3f387c6ee1f109d60454629137f20b072a8e9de3f825b3ab2d5bc47de187b5f4a0578a8e6b4edc6972728890d5c281347527c6e797daa8ba692fcc0b35f683c3fb7792641b0a05ddb53cc64d02cabf9db5b7ecf571873d3f87de8c20dda82115516c7471b90f2434068e38447032c27a3e4da3038e90399eef3d1f023c2e4a188e4085d8a4294861ae1b5bd55b8f23c5325d9da8d52a35ff1b46801d6196ac54302123b56c9308518d04aba5bdb8b4a2b729adba3cd187f1d06fe00256cdbfca93de4be04081372e7a8e0848ec0dbdc065c151b17ecdea3c38f45094f0dc628ba634002d5cc1fd0884573cc923918cc08cabc90323db7a62da7958edc37879151cd81d3a25b69f524147d4cd6acaa084a7f31299699e45a706afc708852f915eef90510270613f6aa464ff939e0734595092982ea56bfaad8a29650157457946b6e52e7bad1e3cb697454b8f9a4997c40fed6de644632772cd20f170d62d1f5617398b190b803fc25df69da12d5fc65bbece9ecf9d5926605c9efbf2b77429cafc8d6db4c817a4e751d8579ab6fac8433c638e076f68222ea001dfafbafc59105ab7a8a934e5695ca328159fd87df037fb5526e024b83d169572ce86af2e16b03cd03196802274996b0e2c8628e1a31816b98ac076cf2f14a9dd56ea3b87d1e20deaffc5ceb3f9f4da64088f783db0082e47c4998a074005f98f82f40fd01f298c9f787ba940062f6997bf7b1eedf01de8958814b4d54d62471c01cfb9955462ac4d9850fa501bee4dc8ca817ccfd2d3b2ca3e1d648d6f906c75936a0ddee9613b52f6194d11a239bb8cc604bffc60d99327f6277432ee8f510d54866dab892ecd07f39be3e53dc555a6cac4cb26657ee8fe74932b6d9174f41ca0350f02bf5473285ebb0b75b5f95d58f3ab9f83117f0260b5567fd0f56233b09bebffff27f8772e9619268e5257f11850369d76975587e5fd02e8c109118288d72f883a6bfb44a84349e47f09bdfff2ccb2990ec0c1810f4dcc5cc35f75e20298bf89b99da6f9f03db1dd63f21b3feb956ea7b3f22cdc9c4bd86a4c86870b9af827b64b8528b9a8759317950bbc29c679c7b424ba94e0744d0194d1140ebec4e031e89b13f5a750bc2b58ad642cc7c25e674e482e675dcda01589ca22fc7720751c3ea53522a2a4278a84ecd04f0ccecd9949d7086ea6e6142003feb56b4fd8eabfb083480f7eeaab8b8c5b421d5259568ddf5adb20bce4ce74d94d00ddb6b259817701d31776c281069a1e2c20a48887bd8a3c1fc458a78c27a049e9e8cf2bb4bcf018bfe85d7887f01be70b4f7390f1f023a0854c483db79ef83c097eee67d1b1f0aecaa9199187775c6540a1f6d964d99690e8c591fe486d785320138a212ffb3fc23548fe56f0590444c9daacc9c2ba1507dbc954c25951c671ff96f00d6f4e2c429f4138e357b51eb610304c1072080905c72ce3e42718e148693fe82938239f879345dde34a5b5ecd08babba8c95a758861c900fc773dc7766f93a31080a215a62fe54c18da41349d8184d01a5da43708f9d50810f0032aa8329c6f0aa12da1e3247a340f0e37a57712d13061c13dae44832b89c62a2fdf5aeee378197dd4d35ac97022f332dfc028b6793900e2abc529cd4303a4e420621b825fa84348ac134c8b80fc69b92a1fb6dea6db57594d7fb0ce19c96dc40f2279bbf660b2b90d9bd9dc25bd9a42af435012c99c6906169890c4252815fb0b7405338d433695ef969a562cbd3d5eb9e89a58beeaf48ed83fedf7e4595257dbff3e85c2b72725e0877e4a4dbb9d4c46ab543b8afbf482c3b15c1eedaeb484813b1bc4d9ee60783e3c9f0dec155e7dd83136179ede740eae72d8bc9b5abaaac853056310d08530b27b26ee79c24b856183f6c65d84423bb3789d99a495bcdf24d9886171cecf83c267d18fd61281cb1d4e36cc07de4de4590f9dda99f4011fc5ee04bd63b4c785060995d8a614a7349f08e6f2f264845b0c7fa11474794db2eed9151ae6f064390195616628f558c7fdf387b5d080b9ef8a591901a4dbc2790b9f789baf3dac2b518120f63e45f102a6009e39320466d8b17b8b5e5325ffc339c3450ca410302849d39221281a847ac3a2d8bdc1fcb9e2ec775d193e40c8f81f7ee3d231aa0d197fe12d9ad00238284e218b227ff1aa9346a65a256cab367c03cb594b110ac10a50510a90e0eda460ec7ff876f6cadd441fe3808df7be260ebd9bed28288f9388d7b14912f732a62618197444a26e640ee0348396a0db09bc831227cabd409c37e6bb3315cfe0a9c7894d0115a3a0d86d5b22437fc650e0c4bfcb7e03993d9fdba26bef072015c372c4ff45c9cf44ed9292efca54c78f26a388e455f21fb04288e5ab50eb7d46787db950f78090dfc053d5ca97542e85e5e5f27148b4066d9e1aeb72ac4b173012918e5e13ef29314ab00bf2db7229db2328863c0c991c43e6ff10723767bf49b834f58203a8255f06c2ae6d87ff4cbdb7107ed8cf61249dc1b4e295b5e7efeab016d15315d3d42b8774c314608188af7efdc02de8246ad3aa771fc38871e53cd531ef4d55c5b37a019bc93c401ae119af916c04ecf412ae409fad5f197c8c0caaf271b01106a3c14da662eff0193ff686498299448a94f0d21cfac122f6ec5df620bc02ffb4f06f387392de94c9710bfd53acd39ad47880890a5d87e98065a9e16bcba727c780cfde8f3349a910f45393ac19d307939402ab9fe9b3f9af481380384d1e141853011f5c5f6a6f7c8493c4cbd7dae5ef081921353e3f4861848e9395a3a4a5c5cdcfd2e0f3f6f909303a478b9fa1a2b9baed101a1c253641545f6d7879818fa3afb2bfd5d7dbe5ea0000000000000000000f26314701fd2105006f3e37b130854c4a5ca0e9f9aee7111c1bddc395edb35564c6aae1b08d21b65d6fd8e9166996017abe08967d0b705c3e1eddaa7f04a084600c7b251c90ad9514a0d3c3ea37f08505f160bde8ec58fc4ffc4a40a0d1c9e68638e2445832e3e9b490ee469381b821a5bae0d313e8191c6e44c41464e205695757ebc4cece76e05be40f91461acbab961d865a045c49e58e5b3463e6c6d94a1c81616366175bb9cd3dcb2085792350fb991d389ecb861a96f8a7426162026110f7c50b4f182062a71493ac572229dd28f89e40c6ce000f9940d64452a71d97c2c20c1aa4e5b4862af941b5a851a7073f9549d7b4ea5ee444eed4a7b53d6d7464e254af827ba657c5d46f4dfb2ce9a4b51d535b3bc2753289935f74a61c2f5814a40cae7feed4e16c4fa1ba60a4851b411d8ecdacd5cb21b33d696688882c12d1ab8fc3ad3059c51a3715180c8531f40d4f87314090d0d7f11639381b5e44230913e90d299d9f909aacacf2c49dc149d5701cfc4e5e8d48879e35cc8d03a67bc08ee243dcfbe5e66364c42a4a48ee8748e0ed8be838e682e7d07ca7a811742d19d02cbf30ff113a7cd70bde33dd7675b6548d599acbd21911983849b2d2fedb167a8902f26580b82e0483cf9bf4a304ad9dde2abbf350d359c73b7393923862608bfb48371a2c801da3385acfa64a7621b39db240a43b1afa1a7d3c5c60b548bd13f61e0670b4fbd3022598711ef9d06d51172ecd88634c3203ae54c848ebcd9cdabd16c88be12593f1473eb7b20dbc82815eccdd83836750e8c377b7ff70f835f71dd9ebff0cbeaffd1eec63416566d40c83f2414fb1fe33cf2cf212ad2fafe7c31698de6a3d56322f9887549aabb67b740c9482fef97e1f20675ca9a16b4fa9c67f8a7836dcc0eb72073380702f59bb994b3b29672588cca9161dc80cc51620a72817d7375230e9314676b4cc08d2a028099f7f52a985ff6e747a2700341b6b764c405066100f01ddb0aa9fe6ab78e0917ff31da7a3e3c23ca7878205f61d48a5fe0691bce6a77cdff2e9dc59f8a1074d38f96f34c9965e686d0e35c8f21e3d3632a0a0d49a9e9a0d9ba6e566157c618780cdd43df227039239e9ca6666dea14de6f5cc29a9db7fc73621cb6b948e68d15de0e8d0848cbacbbc57b872b52daeaaed6048fec7fadff712c21305e8013b3661bddc73c428e30b895553423c671f6aabd45291bc8adb06ac8d2f09c74ede29191a3f29a991e977be08612156401671b8fe2d9c57d7a1eb8126b1029186b4831b3a52e2ff4b5c960edf492537ecf47be224f429ebdf25fd198028f0096136f8796adce754f2dcb3fcb00febcebc6f37b4e394b219406e4ecebb7c5f07080e8a9bce99acce2e75ebdb757ec1a7a3f4a95ccde842ec4f07ceed278fa6090d378f7fac005469e8dce751a1bce77519cdba56e0b9e23382fb233b6c70380bec2d97401a02160923ad51ae06dcf9589a2ee5bbad4cc82717e31eac9fd9a1e301aecf82b0fde5145ee13bbb1716b329fd3cda1144c4fef5d78dc5dbe9469a603a6c90807606fb33b028c1e88044f7f474bba9bc9eeeb93dddd94c633ad223fc5725927b499db023b3326993ca025ce99319c77dbf560fa7cae4e72d988c66eabc10b997b342dcc6990c1020c890d0d7221b8654186b9377bc4477822e4bd0892d6c277382f470c46586db800409ba8201c4b4db7ae29072582380bb48d4280671652321f056a3aa0955207bf8b3809677fd7313c51a824036541ab3ee9738aeddf646abf60f2ddfce328e42dd4d2951a95afd11f8bdf733a13fe4a2a5b361946a21c8b8ead73cacfdead5d27fe90cedeb4cb29566f4cbef78b866000000",
  "txid": "53eaff7a7da4ffe74e9aea5c0b3a6bd02b6c5d541867b4b37fe39ebcb252b496",
  "hash": "9081502759a944847736d21fa356177d2673888b7a6473211ff7cfa8ee0f7403",
  "size": 5085,
  "vsize": 2278,
  "version": 1,
  "locktime": 102,
  "vin": [
    {
      "txid": "82686c332cf4047ce46482d93d31942d21be005a93d08da0dfdacf781566b9f9",
      "vout": 0,
      "scriptSig": {
        "asm": "",
        "hex": ""
      },
      "txinwitness": [
        "3ca98d75f55149ee7d855def1fd60d984dbd48071356e0dddac1016e21e1e90d504da1e0cb68049f4bc1169825f38677f56e30230344bc7fc572bb5e1dbb031bbf4aa43f66d0d53bd4e29e2ca2a5d24306815c1f7bc6a476cd266f124ebbc53a1fdf5bfafbece0978012934e55919ced8b41b9d6c32847194b74557fffba951b2ae03bc2f0ef4db91212ed6ba933d1756d687864069c8389261175c6e38203e07419c8af6689969e52a9bfde0edd4b760bb93d36d90ec525c699c4ddc0d225ce320907fa83fdb659becdf7699d73087f452aec33aafb84db1c5dc82d96499f63e097026116fcc04e52b5e0e9791ce8ed9ebb327ce0d690190aea42c528b40f9899d935c2f9f3d2d3b1bdc84804e0a73db8841c20b2c90c914bef071c3bca0244b9d89a9aaa09d04ee1d7aadc9d6abbda0068a5c2bfa4bf4c5aeff6e136947e69e910fdf8d99f947341fa98a0e69c7e069931f5a80aea27a0fca1746a928bca19d58e104d9d661fbffb35b1769ae3557a111b4cef9b6aba2c3f387c6ee1f109d60454629137f20b072a8e9de3f825b3ab2d5bc47de187b5f4a0578a8e6b4edc6972728890d5c281347527c6e797daa8ba692fcc0b35f683c3fb7792641b0a05ddb53cc64d02cabf9db5b7ecf571873d3f87de8c20dda82115516c7471b90f2434068e38447032c27a3e4da3038e90399eef3d1f023c2e4a188e4085d8a4294861ae1b5bd55b8f23c5325d9da8d52a35ff1b46801d6196ac54302123b56c9308518d04aba5bdb8b4a2b729adba3cd187f1d06fe00256cdbfca93de4be04081372e7a8e0848ec0dbdc065c151b17ecdea3c38f45094f0dc628ba634002d5cc1fd0884573cc923918cc08cabc90323db7a62da7958edc37879151cd81d3a25b69f524147d4cd6acaa084a7f31299699e45a706afc708852f915eef90510270613f6aa464ff939e0734595092982ea56bfaad8a29650157457946b6e52e7bad1e3cb697454b8f9a4997c40fed6de644632772cd20f170d62d1f5617398b190b803fc25df69da12d5fc65bbece9ecf9d5926605c9efbf2b77429cafc8d6db4c817a4e751d8579ab6fac8433c638e076f68222ea001dfafbafc59105ab7a8a934e5695ca328159fd87df037fb5526e024b83d169572ce86af2e16b03cd03196802274996b0e2c8628e1a31816b98ac076cf2f14a9dd56ea3b87d1e20deaffc5ceb3f9f4da64088f783db0082e47c4998a074005f98f82f40fd01f298c9f787ba940062f6997bf7b1eedf01de8958814b4d54d62471c01cfb9955462ac4d9850fa501bee4dc8ca817ccfd2d3b2ca3e1d648d6f906c75936a0ddee9613b52f6194d11a239bb8cc604bffc60d99327f6277432ee8f510d54866dab892ecd07f39be3e53dc555a6cac4cb26657ee8fe74932b6d9174f41ca0350f02bf5473285ebb0b75b5f95d58f3ab9f83117f0260b5567fd0f56233b09bebffff27f8772e9619268e5257f11850369d76975587e5fd02e8c109118288d72f883a6bfb44a84349e47f09bdfff2ccb2990ec0c1810f4dcc5cc35f75e20298bf89b99da6f9f03db1dd63f21b3feb956ea7b3f22cdc9c4bd86a4c86870b9af827b64b8528b9a8759317950bbc29c679c7b424ba94e0744d0194d1140ebec4e031e89b13f5a750bc2b58ad642cc7c25e674e482e675dcda01589ca22fc7720751c3ea53522a2a4278a84ecd04f0ccecd9949d7086ea6e6142003feb56b4fd8eabfb083480f7eeaab8b8c5b421d5259568ddf5adb20bce4ce74d94d00ddb6b259817701d31776c281069a1e2c20a48887bd8a3c1fc458a78c27a049e9e8cf2bb4bcf018bfe85d7887f01be70b4f7390f1f023a0854c483db79ef83c097eee67d1b1f0aecaa9199187775c6540a1f6d964d99690e8c591fe486d785320138a212ffb3fc23548fe56f0590444c9daacc9c2ba1507dbc954c25951c671ff96f00d6f4e2c429f4138e357b51eb610304c1072080905c72ce3e42718e148693fe82938239f879345dde34a5b5ecd08babba8c95a758861c900fc773dc7766f93a31080a215a62fe54c18da41349d8184d01a5da43708f9d50810f0032aa8329c6f0aa12da1e3247a340f0e37a57712d13061c13dae44832b89c62a2fdf5aeee378197dd4d35ac97022f332dfc028b6793900e2abc529cd4303a4e420621b825fa84348ac134c8b80fc69b92a1fb6dea6db57594d7fb0ce19c96dc40f2279bbf660b2b90d9bd9dc25bd9a42af435012c99c6906169890c4252815fb0b7405338d433695ef969a562cbd3d5eb9e89a58beeaf48ed83fedf7e4595257dbff3e85c2b72725e0877e4a4dbb9d4c46ab543b8afbf482c3b15c1eedaeb484813b1bc4d9ee60783e3c9f0dec155e7dd83136179ede740eae72d8bc9b5abaaac853056310d08530b27b26ee79c24b856183f6c65d84423bb3789d99a495bcdf24d9886171cecf83c267d18fd61281cb1d4e36cc07de4de4590f9dda99f4011fc5ee04bd63b4c785060995d8a614a7349f08e6f2f264845b0c7fa11474794db2eed9151ae6f064390195616628f558c7fdf387b5d080b9ef8a591901a4dbc2790b9f789baf3dac2b518120f63e45f102a6009e39320466d8b17b8b5e5325ffc339c3450ca410302849d39221281a847ac3a2d8bdc1fcb9e2ec775d193e40c8f81f7ee3d231aa0d197fe12d9ad00238284e218b227ff1aa9346a65a256cab367c03cb594b110ac10a50510a90e0eda460ec7ff876f6cadd441fe3808df7be260ebd9bed28288f9388d7b14912f732a62618197444a26e640ee0348396a0db09bc831227cabd409c37e6bb3315cfe0a9c7894d0115a3a0d86d5b22437fc650e0c4bfcb7e03993d9fdba26bef072015c372c4ff45c9cf44ed9292efca54c78f26a388e455f21fb04288e5ab50eb7d46787db950f78090dfc053d5ca97542e85e5e5f27148b4066d9e1aeb72ac4b173012918e5e13ef29314ab00bf2db7229db2328863c0c991c43e6ff10723767bf49b834f58203a8255f06c2ae6d87ff4cbdb7107ed8cf61249dc1b4e295b5e7efeab016d15315d3d42b8774c314608188af7efdc02de8246ad3aa771fc38871e53cd531ef4d55c5b37a019bc93c401ae119af916c04ecf412ae409fad5f197c8c0caaf271b01106a3c14da662eff0193ff686498299448a94f0d21cfac122f6ec5df620bc02ffb4f06f387392de94c9710bfd53acd39ad47880890a5d87e98065a9e16bcba727c780cfde8f3349a910f45393ac19d307939402ab9fe9b3f9af481380384d1e141853011f5c5f6a6f7c8493c4cbd7dae5ef081921353e3f4861848e9395a3a4a5c5cdcfd2e0f3f6f909303a478b9fa1a2b9baed101a1c253641545f6d7879818fa3afb2bfd5d7dbe5ea0000000000000000000f26314701",
        "006f3e37b130854c4a5ca0e9f9aee7111c1bddc395edb35564c6aae1b08d21b65d6fd8e9166996017abe08967d0b705c3e1eddaa7f04a084600c7b251c90ad9514a0d3c3ea37f08505f160bde8ec58fc4ffc4a40a0d1c9e68638e2445832e3e9b490ee469381b821a5bae0d313e8191c6e44c41464e205695757ebc4cece76e05be40f91461acbab961d865a045c49e58e5b3463e6c6d94a1c81616366175bb9cd3dcb2085792350fb991d389ecb861a96f8a7426162026110f7c50b4f182062a71493ac572229dd28f89e40c6ce000f9940d64452a71d97c2c20c1aa4e5b4862af941b5a851a7073f9549d7b4ea5ee444eed4a7b53d6d7464e254af827ba657c5d46f4dfb2ce9a4b51d535b3bc2753289935f74a61c2f5814a40cae7feed4e16c4fa1ba60a4851b411d8ecdacd5cb21b33d696688882c12d1ab8fc3ad3059c51a3715180c8531f40d4f87314090d0d7f11639381b5e44230913e90d299d9f909aacacf2c49dc149d5701cfc4e5e8d48879e35cc8d03a67bc08ee243dcfbe5e66364c42a4a48ee8748e0ed8be838e682e7d07ca7a811742d19d02cbf30ff113a7cd70bde33dd7675b6548d599acbd21911983849b2d2fedb167a8902f26580b82e0483cf9bf4a304ad9dde2abbf350d359c73b7393923862608bfb48371a2c801da3385acfa64a7621b39db240a43b1afa1a7d3c5c60b548bd13f61e0670b4fbd3022598711ef9d06d51172ecd88634c3203ae54c848ebcd9cdabd16c88be12593f1473eb7b20dbc82815eccdd83836750e8c377b7ff70f835f71dd9ebff0cbeaffd1eec63416566d40c83f2414fb1fe33cf2cf212ad2fafe7c31698de6a3d56322f9887549aabb67b740c9482fef97e1f20675ca9a16b4fa9c67f8a7836dcc0eb72073380702f59bb994b3b29672588cca9161dc80cc51620a72817d7375230e9314676b4cc08d2a028099f7f52a985ff6e747a2700341b6b764c405066100f01ddb0aa9fe6ab78e0917ff31da7a3e3c23ca7878205f61d48a5fe0691bce6a77cdff2e9dc59f8a1074d38f96f34c9965e686d0e35c8f21e3d3632a0a0d49a9e9a0d9ba6e566157c618780cdd43df227039239e9ca6666dea14de6f5cc29a9db7fc73621cb6b948e68d15de0e8d0848cbacbbc57b872b52daeaaed6048fec7fadff712c21305e8013b3661bddc73c428e30b895553423c671f6aabd45291bc8adb06ac8d2f09c74ede29191a3f29a991e977be08612156401671b8fe2d9c57d7a1eb8126b1029186b4831b3a52e2ff4b5c960edf492537ecf47be224f429ebdf25fd198028f0096136f8796adce754f2dcb3fcb00febcebc6f37b4e394b219406e4ecebb7c5f07080e8a9bce99acce2e75ebdb757ec1a7a3f4a95ccde842ec4f07ceed278fa6090d378f7fac005469e8dce751a1bce77519cdba56e0b9e23382fb233b6c70380bec2d97401a02160923ad51ae06dcf9589a2ee5bbad4cc82717e31eac9fd9a1e301aecf82b0fde5145ee13bbb1716b329fd3cda1144c4fef5d78dc5dbe9469a603a6c90807606fb33b028c1e88044f7f474bba9bc9eeeb93dddd94c633ad223fc5725927b499db023b3326993ca025ce99319c77dbf560fa7cae4e72d988c66eabc10b997b342dcc6990c1020c890d0d7221b8654186b9377bc4477822e4bd0892d6c277382f470c46586db800409ba8201c4b4db7ae29072582380bb48d4280671652321f056a3aa0955207bf8b3809677fd7313c51a824036541ab3ee9738aeddf646abf60f2ddfce328e42dd4d2951a95afd11f8bdf733a13fe4a2a5b361946a21c8b8ead73cacfdead5d27fe90cedeb4cb29566f4cbef78b8"
      ],
      "sequence": 4294967294
    }
  ],
  "vout": [
    {
      "value": 499989.831,
      "n": 0,
      "scriptPubKey": {
        "asm": "1 30b62dddef12e3b12b10745c18f56f631518c7c9a863eb8039c297b033029ecb",
        "hex": "512030b62dddef12e3b12b10745c18f56f631518c7c9a863eb8039c297b033029ecb",
        "reqSigs": 1,
        "type": "witness_v1_scripthash",
        "addresses": [
          "3QJmnh"
        ]
      }
    },
    {
      "value": 1.0,
      "n": 1,
      "scriptPubKey": {
        "asm": "OP_RETURN 5a319556ed9f0744566ee9bd4af3894785dd43de65ca95987994f88ed8b7102c e38b8f06170a12f677f6c6790033f584f24414961bf305b020e0acd55e5d3122c3abaf26372a32d657d6e6592013d5a4d26434b63bd3259000c08cf57e7d1102a3cbcf46574a52b637b686394073b5c4b20454d65bb345f060a0ec951e1d716283ebef66776a72961796a619605395e4922474f67b9365d04080ccb53e3d5142630b0f86978a9276f77646f980b3750472c494169b738530a0602c55deddb1a2432b2fa6b7aab256d75666d9a093552452e4b436bb53a51080400c75fefd9182234b4fc6d7cad236b73606b9c0f335443284d456db33c570e0206c159e9df1e2036b6fe6f7eaf21697162699e0d3156412a4f476fb13e550c0004c35bebdd1c2e38b8f06170a12f677f6c6790033f584f24414961bf305b020e0acd55e5d3122c3abaf26372a32d657d6e6592013d5a4d26434b63bd3259000c08cf57e7d1102a3cbcf46574a52b637b686394073b5c4b20454d65bb345f060a0ec951e1d716283ebef66776a72961796a619605395e4922474f67b9365d04080ccb53e3d5142630b0f86978a9276f77646f980b3750472c494169b738530a0602c55deddb1a2432b2fa6b7aab256d75666d9a093552452e4b436bb53a51080400c75fefd9182234b4fc6d7cad236b73606b9c0f335443284d456db33c570e0206c159e9df1e2036b6fe6f7eaf21697162699e0d3156412a4f476fb13e550c0004c35bebdd1c2e38b8f06170a12f677f6c6790033f584f24414961bf305b020e0acd55e5d3122c3abaf26372a32d657d6e6592013d5a4d26434b63bd3259000c08cf57e7d1102a3cbcf46574a52b637b686394073b5c4b20454d65bb345f060a0ec951e1d716283ebef66776a72961796a619605395e4922474f67b9365d04080ccb53e3d5142630b0f86978a9276f77646f980b3750472c494169b738530a0602c55deddb1a2432b2fa6b7aab256d75666d9a093552452e4b436bb53a51080400c75fefd9182234b4fc6d7cad236b73606b9c0f335443284d456db33c570e0206c159e9df1e2036b6fe6f7eaf21697162699e0d3156412a4f476fb13e550c0004c35bebdd1c2e38b8f06170a12f677f6c6790033f584f24414961bf305b020e0acd55e5d3122c3abaf26372a32d657d6e6592013d5a4d26434b63bd3259000c08cf57e7d1102a3cbcf46574a52b637b686394073b5c4b20454d65bb345f060a0ec951e1d716283ebef66776a72961796a619605395e4922474f67b9365d04080ccb53e3d5142630b0f86978a9276f77646f980b3750472c494169b738530a0602c55deddb1a2432b2fa6b7aab256d75666d9a093552452e4b436bb53a51080400c75fefd9182234b4fc6d7cad236b73606b9c0f335443284d456db33c570e0206c159e9df1e2036b6fe6f7eaf21697162699e0d3156412a4f476fb13e550c0004c35bebdd1c2e38b8f06170a12f677f6c6790033f584f24414961bf305b020e0acd55e5d3122c3abaf26372a32d657d6e6592013d5a4d26434b63bd3259000c08cf57e7d1102a3cbcf46574a52b637b686394073b5c4b20454d65bb345f060a0ec951e1d716283ebef66776a72961796a619605395e4922474f67b9365d04080ccb53e3d5142630b0f86978a9276f77646f980b37504f7e9c880169e0b0fdd35b2e11b5c0edd60addfe70ccd2ecf5197c58a082221ae",
        "hex": "6a205a319556ed9f0744566ee9bd4af3894785dd43de65ca95987994f88ed8b7102c4db004e38b8f06170a12f677f6c6790033f584f24414961bf305b020e0acd55e5d3122c3abaf26372a32d657d6e6592013d5a4d26434b63bd3259000c08cf57e7d1102a3cbcf46574a52b637b686394073b5c4b20454d65bb345f060a0ec951e1d716283ebef66776a72961796a619605395e4922474f67b9365d04080ccb53e3d5142630b0f86978a9276f77646f980b3750472c494169b738530a0602c55deddb1a2432b2fa6b7aab256d75666d9a093552452e4b436bb53a51080400c75fefd9182234b4fc6d7cad236b73606b9c0f335443284d456db33c570e0206c159e9df1e2036b6fe6f7eaf21697162699e0d3156412a4f476fb13e550c0004c35bebdd1c2e38b8f06170a12f677f6c6790033f584f24414961bf305b020e0acd55e5d3122c3abaf26372a32d657d6e6592013d5a4d26434b63bd3259000c08cf57e7d1102a3cbcf46574a52b637b686394073b5c4b20454d65bb345f060a0ec951e1d716283ebef66776a72961796a619605395e4922474f67b9365d04080ccb53e3d5142630b0f86978a9276f77646f980b3750472c494169b738530a0602c55deddb1a2432b2fa6b7aab256d75666d9a093552452e4b436bb53a51080400c75fefd9182234b4fc6d7cad236b73606b9c0f335443284d456db33c570e0206c159e9df1e2036b6fe6f7eaf21697162699e0d3156412a4f476fb13e550c0004c35bebdd1c2e38b8f06170a12f677f6c6790033f584f24414961bf305b020e0acd55e5d3122c3abaf26372a32d657d6e6592013d5a4d26434b63bd3259000c08cf57e7d1102a3cbcf46574a52b637b686394073b5c4b20454d65bb345f060a0ec951e1d716283ebef66776a72961796a619605395e4922474f67b9365d04080ccb53e3d5142630b0f86978a9276f77646f980b3750472c494169b738530a0602c55deddb1a2432b2fa6b7aab256d75666d9a093552452e4b436bb53a51080400c75fefd9182234b4fc6d7cad236b73606b9c0f335443284d456db33c570e0206c159e9df1e2036b6fe6f7eaf21697162699e0d3156412a4f476fb13e550c0004c35bebdd1c2e38b8f06170a12f677f6c6790033f584f24414961bf305b020e0acd55e5d3122c3abaf26372a32d657d6e6592013d5a4d26434b63bd3259000c08cf57e7d1102a3cbcf46574a52b637b686394073b5c4b20454d65bb345f060a0ec951e1d716283ebef66776a72961796a619605395e4922474f67b9365d04080ccb53e3d5142630b0f86978a9276f77646f980b3750472c494169b738530a0602c55deddb1a2432b2fa6b7aab256d75666d9a093552452e4b436bb53a51080400c75fefd9182234b4fc6d7cad236b73606b9c0f335443284d456db33c570e0206c159e9df1e2036b6fe6f7eaf21697162699e0d3156412a4f476fb13e550c0004c35bebdd1c2e38b8f06170a12f677f6c6790033f584f24414961bf305b020e0acd55e5d3122c3abaf26372a32d657d6e6592013d5a4d26434b63bd3259000c08cf57e7d1102a3cbcf46574a52b637b686394073b5c4b20454d65bb345f060a0ec951e1d716283ebef66776a72961796a619605395e4922474f67b9365d04080ccb53e3d5142630b0f86978a9276f77646f980b37504f7e9c880169e0b0fdd35b2e11b5c0edd60addfe70ccd2ecf5197c58a082221ae",
        "type": "nulldata"
      }
    }
  ],
  "blockhash": "0588000bb82f4b14ca9e4626330a5c84a7bb9e1c31fd2ade5c3732d80cc4fd85",
  "confirmations": 1,
  "time": 1764178356,
  "blocktime": 1764178356
}