{
  "hex": "01000000000101b04da591bcd8f1e51caa1f842b4a2256918409a8fe6e89d84b23da91aff80f780000000000feffffff02a0cee9a1782d00002251206d8c932b40d5f149749201748904ac74b6a9033e6a01cc6581e723b5580654e000e1f50500000000fdd5046a20306731846b37bacb8063ee7c065aff4dc32d9c211926d272d07731d40c575b854db00447107ad07a9cb9d93bec690f6570bf4710e3881d367e72293bcfe5689939650d67305af05abc99f91bcc492f45509f6730c3a83d165e52091befc548b919452d07503a903adcf9997bac294f2530ff0750a3c85d763e32697b8fa528d979254d27701ab01afcd9b95b8c096f0510df277083e87d561e12495baf8508f959056dc790fa50fa1c3959bb6ce98fe5f03fc79063089db6fef2a9bb4f65e819b9e58de7b0da70da3c19799b4cc9afc5d01fe7b04328bd96ded2899b6f45c83999c5ad87d0ba10ba5c7919fb2ca9cfa5b07f87d02348ddf6beb2e9fb0f25a859f9a5cda7f09a309a7c5939db0c89ef85905fa7f00368fdd69e92c9db2f058879d985ed47107ad07a9cb9d93bec690f6570bf4710e3881d367e72293bcfe5689939650d67305af05abc99f91bcc492f45509f6730c3a83d165e52091befc548b919452d07503a903adcf9997bac294f2530ff0750a3c85d763e32697b8fa528d979254d27701ab01afcd9b95b8c096f0510df277083e87d561e12495baf8508f959056dc790fa50fa1c3959bb6ce98fe5f03fc79063089db6fef2a9bb4f65e819b9e58de7b0da70da3c19799b4cc9afc5d01fe7b04328bd96ded2899b6f45c83999c5ad87d0ba10ba5c7919fb2ca9cfa5b07f87d02348ddf6beb2e9fb0f25a859f9a5cda7f09a309a7c5939db0c89ef85905fa7f00368fdd69e92c9db2f058879d985ed47107ad07a9cb9d93bec690f6570bf4710e3881d367e72293bcfe5689939650d67305af05abc99f91bcc492f45509f6730c3a83d165e52091befc548b919452d07503a903adcf9997bac294f2530ff0750a3c85d763e32697b8fa528d979254d27701ab01afcd9b95b8c096f0510df277083e87d561e12495baf8508f959056dc790fa50fa1c3959bb6ce98fe5f03fc79063089db6fef2a9bb4f65e819b9e58de7b0da70da3c19799b4cc9afc5d01fe7b04328bd96ded2899b6f45c83999c5ad87d0ba10ba5c7919fb2ca9cfa5b07f87d02348ddf6beb2e9fb0f25a859f9a5cda7f09a309a7c5939db0c89ef85905fa7f00368fdd69e92c9db2f058879d985ed47107ad07a9cb9d93bec690f6570bf4710e3881d367e72293bcfe5689939650d67305af05abc99f91bcc492f45509f6730c3a83d165e52091befc548b919452d07503a903adcf9997bac294f2530ff0750a3c85d763e32697b8fa528d979254d27701ab01afcd9b95b8c096f0510df277083e87d561e12495baf8508f959056dc790fa50fa1c3959bb6ce98fe5f03fc79063089db6fef2a9bb4f65e819b9e58de7b0da70da3c19799b4cc9afc5d01fe7b04328bd96ded2899b6f45c83999c5ad87d0ba10ba5c7919fb2ca9cfa5b07f87d02348ddf6beb2e9fb0f25a859f9a5cda7f09a309a7c5939db0c89ef85905fa7f00368fdd69e92c9db2f058879d985ed47107ad07a9cb9d93bec690f6570bf4710e3881d367e72293bcfe5689939650d67305af05abc99f91bcc492f45509f6730c3a83d165e52091befc548b919452d07503a903adcf9997bac294f2530ff0750a3c85d763e32697b8fa528d979254d27701ab01afcd9b95b8c096f0510df277083e87d561e12495baf8508f959056dc790fa50fa1c3959bb6ce98fe5f03fc72f14c67b29be7e58af0d9617bf377a882c4afa10bf741291ba612e369533817002fd75096bac37d2d19810a2654bc4a7405da9dc1e54837ada444aa1cf47e55bcc2216d6d2224cf880b3fb93d4ee34e7d83e9d21f5782a770d05b8fa382d0ffea5441200cfc96d3247e718ac7df9f4613c795c3a2ea620d8ca5b294ee0d45f921936a0dc5c6195d003f522e63e032a2270538c7286f3db1f8c3158108d8f7a7e47901768255d931ddb0c22e3a44f0ae301e89942c37f31fd49045f27e0d5cdaec419af73a17258fc1b3c2ac04b174c888abfab6fa22c771a5ed4180dc2c940e97d9fd2fe38f47aecd9f91db03c70e822819db8f5a68cd4e65641b24193908dbe9c40e7060c13dce4c9c58efbe932696e78345ded56895d1f9d4a61be25c8f73e3545eb4e8698e860a853556e49d6ecca0fa27134689ca7fa348d599d69b81bdb203ff22e79cffd9881b07a578cd45b2fdf91dff12cad1800a5fba9e9f32478ac779416605a380fdf15304681e7282136c44befb167034c072244ddbeefd9573486c6a5be8bfe05589f321e496c02632e5605230a962e14336faf689c5b754e1cb034d5a4e149a0f3b60bbd040a1a4c72fc1216edb246ae8234856655523021b65fc6ba5b226cf9facb05fdb2b8b0c0ea16ead9f7227a63310b6d1f1415961c0667ccd0eb3b5a5a2141bbea0452e48fcb9de146a5331d79bddd4d44eb3260482f6054d7b3b73eaa788c2d59b378321ec794124b6906dee3faf6d29b346e93201656b4a646a216eaf970cb71ebd173887b6861413d6f8c74753cb4ee5e0185e30f7afe585f2465de8e2e8666cb60312a6f8b712c65b8434556dfab1915a2a7c7ee09200a3cfa9a613ba2e1e90952b08a0b5133ea1cc0fec766e7964caecbff2f9e28727f6b364851b0400fef604e6029dbab4b482c46003c0f62a02b0706be3c49bb6f5ec475f97708e1e76295381e79b44bb1d314c703f2f96fc9141259aef3db56503940716a6b95167021ac96cd31490a1b47524b23f1a99917fb5ec4e7216576ac5bc1a77d328c036a9a42f8c20f94e11ff2c9d6a81b7288840a803ee08a0f0693563f57b689bf862a8c1541a08d5a346bfac234e37b395e1fa12391088a4f1ba563e724f1c93efeaa8df1dd8450a9a9ab0c4641d0d8365e3ff73aa1478a78a4697039bc73beb55b9a1b8a3040f81a70a0410c331871c9ac5bc3fccc30851be3512732e45734aca7b5102be40dc232b92db8b86944a20b689c18536e63344d27168d222965661dab59365d4c3cb150fb8550c6a6dbc67c02aa65e58c0a54b25e50883b62836b313fc8c45ab616dc72e6bf58cc62c9e7d119dd1247be0e758dc0f1374c24b1fa28622739b6bb0f5bc871277a86499ac70b6a69d45a0a9f9967fbf91d760f94ab4de2f446d422c3c00b2d577019ac477918ff3ce8d0c66d91725f81842ce8254f2f71384caf073b3c9311abc2f5e55bd1185201126f4a65e667800c7ba7fb8620b9a9e4091613b9b1a23a8193945f6734dcb642baf42d8fa3e90a3d58d48ddda596163d337b1518e00a675d66a76c1f1c1be4ae1b8032e60ca010b64f00b5ffd4999976361910e06c3b87094a1db2db5c49fca03e044e680e09105969e47130cb0a68cc2a57406187a2c3c87977c6c78c3a83bbed8ea71ed2476a98f7ffa0d231224a806ee33161f5e053a7b8d7da7ac4c9f47d74877355afe4c49f11abebcee3ff4df9b93b6efdd58d421d00eece80b64bc318c9f65bfa180283941a06960b82d4642d50628a275d46f9cbcd78caec0435c9b0cb1f6d7c7f27c32a73479203ca2b7a6eb98aabb74935a094b013d50cb3e9739247c25b270341c754698b817432ae34c4c3414093548c5b047ec99cfb63f56b64c2668dcac5341857706d5f5194105884a32828066bf424fbfef72fe939333e323a621e9d4ee9e21638f1a4135404f8513edb6f682f3d51cdec7c1c17b877d10858947446f75388a118dcca8ec61ad51c1db29ca2c73626f0ab926cca1e45669bf27968a65a3eeaf5ea58158cd6f4dc55653a9281dcb259dedf475a8b8a0e4f6f74767610b399b6a4066962f9d217bba69da43a9094343867b75dda7d5a1627ddcf5af625412e290460d1495d1983cc70e3d224350499aba0a86c1fd64dba34392320682fcd46fd7da432d796d64eeabe743b9743819653ecab2686bcceacb7965c1237efedd1239f28231773b7ac99d1af241175b9eab8652cf203b99bf0ad82deb3b0a0bfbd75e77d93f011b51314c23f6bf3481e5cca09665333da54bcf1ca035c80f78bbbfc7b0803f92f4e9376c7d127423fc8a7f66637e7050e0fd8a460d89ed9bedccbd7abdaa94d335b73ce9d6e5b15cb30be775914908e2d6aaad694f8ac709c3764c09200ff665745b28682b7f6c0986df2d247d922431ad4f5d7f1b5419db26592df327aa0a8d5646d7b6e06f7efc7dae97ab1fed6d172fe14198b9800dd54a9311af3ae634c527bc612ecd737b95028e01a62e9f99dfbe47e17002db0c89f74bbd9f73ce3d77a0aa5a90c5ceae22239e35a4a3cbd7549d8f41b86b6bc5751a5af67ccfe358ed77589a97e1cfeabaea7b29f0b38f1df1bb3b9e22707facbaaca99c61968dd3427c133621459a89a31b098717d2b011d7dd7436f0fd8439820598cccbdb943f528807ce5b655aec9144b593291abe561a9e2ebbc0f48cff02f5d3f1192aaa622974c3f71326db0ebe3b27d38b636a59e99c4459b0717e5dc5612f7a0476073f8b76616c27cfe500a6c8715221c9439b0d9fb963f826ce4dbe64744824ff722fc9de89115054d06363c4f0afd126f3c05460bb0209dc506334dc3bdd69c997574da986a84cbd0b08b259284db8524403efdbec72cbaeddc0bdbcf95038836e490891fcc9d220b16a06917a9602913e47ae97882cae062150dd9ae2c3668726a97b2085069f22ad0d6a710dc2b922b5511b44bcfb950677b32886aa212faab9835ddfa2afd2f13d6cdbc097a8cfa116da4c7032dc263e23b43bab6b4a01fa513a5c257b35467ade3a5d9bff3c6e4acc666df80e4630c963ee93de2617e94ba1fd4d6a009439d0fe102347c079d113ac3fdbb04dfb9432eb8f151839fa079f2b7e1977d0310c2ab4893ea55ef781062b959ca44e4f1598ed5c3c3426b68467584adde84b330539df662801e3cbe585911ad4a41f04a5c9f8e97ed0ae64f8c384d31f1fe42afe069e78cf33473ad8b337de57f5c4f1e9f98f29220df0fb17d8efc10b427c84e0cc13e02cf9411ea8d43331389a3a4fc3c4d15d24bfa9f72ae15f815c92ae4ee9c6a28fb295955de3ef7e23d24f5b7911f01bb4292cc9ddc11e50a071222848ad7e3edfc0016222628484c71a5b1dee2ea012e374e52676a6b6e727c868d92969dbddcfc191c414d575b8182b8bac1ebf100000000000000000000000000000000000000000000000000000916293601fd210500b9d4a1c613484cec5aac61cff428bf7727fc2916d3ae4454b450069a879905341030c4133784baa4665ba42d9fa2b8a861df49d1d2f8362b9742c8f3bc7d35911a43bc6bc9d04abdb06a9c5bcad37573919f2829f107a3fcd4cc74ee18a87c5ba0b80920875a9fe7eb671e8233fe854559520ffe2bf6db6525b5eadc3c7fbbc6cc154bc2b54cc2302b7e14e73d26ad383e1623680220176f8a6eb42c467a691533eb1cf0771e1dce40c0dd5793c7ff48f129d4f28f7f53760fc5d8f22227d3b626142602ab07ff8bba74006970ace011dba5a5c4cebbc819b92b43504ab2a7e00fa0201848738c486a47feb7d05d8db4915772e3810861419fc18626bb68b353754e36c2df19b42e382f3508498d40b199ba02cf4656291912cdc38c38e841b8a26a5b839a0e403de455b9a80c582a084cb000a9c8accfab58725b70a6fc4b3bd66ea2a01ba63a57a07f28e2161bd6237efc72281916dd456343f7f4ec7a3613d1c0fda094dedec4f5e3e076942c7b7d71602b7585375e10127b933f12256b6e8f578fee0b7042c63765af76e6e44ff8af4154a531814fc224c7296faee2ecdd36e443880439518a09f880892ae76e9322463403646b576e95e7ebb82ec65ec5e17c51b3f1961667e39e0e4523773a24ee9d8637f7512315cfa3a6b9014932b7e747c35fb570081673fa9deca89094dd7e0333f626c93580e5bc7fba08b632e8d44dd49ddde6aade25eb9e4e1bbc37ec3234f3186e28580c293f10b5c5087d5d0ba71b6f6df47a889e3060713aeb5e0491d03b3527c14a9f91f30f2430c7c66ddf52dba5daf00bd3583a3f097909e826279386ff845ca030617799aa03181c8bf8183db18021b816c8f8b2d4045bf2a253117b42be3009dc629251710637436c201ac7101e21c907e68f7d1951a8563b70618e35515937e81cb46395f35d516d7888b6497628dcd239d12ad64278711290af7818058906b58d1530a146d2c9ec1fd66d6304bed2143126d5a8a0c02c8ecba33023f69dad87235d64926acdfa5ae6f2a9a592a52bc75c6acc44fede4fec242139d92132d41fbfc07fa0c08234e2c1bf9c56f9faaa9a2feae42bc059184b380a8091d81ac7b70e582e7c81aa90ce12edf227a24b5d1a62fe6a6f01fb543b5b1ff19ac431cd8022eec41cf4699d8f74264921470ac6d3fba290e3fa9afaec9e674128782856b1378c15418d70bbfaf7e594658c55bb4157b5008525547ac34ccb4ddcef7dca082e1688f93d687abe694355989d9a4a44ed34843b08d1c1a080e3b51351d4425180eb0e786b9faf687d37fffd529a8d0297277ecfeb5de9fee154c72c2f437681419844832becc8c54a7fc3b2f14cd6ae7fdd7eb6c94b72dd86fbe5bf2d599e28b116df222204f90f4e508a485c0810cebfbcada045b78ab917fa61eaf17ff12b8668650459cfcab52765f09c6a5f8713be3fa696c5c4a08aec47f1736df0b7d8633e075dd7dbabf39c7f52f91deb3d19937141f0a2859d1c69fad3c6c1ea42dfa1fdab78827a676d41664efd55191da9459e60349f1a9e4d25996bbe0453c35f492ce3de9b89f39de5d72fdb0a45f8a4c59a94cb17eafad58156efcd9ab88b4facbf4056af00f341118c8c28b24bfbc5e374ba5997aef8a4ed70758d605b1d71728e4660ecf184ed44e165d822256d96c5482aea33728935e70ef1fce80607090c467731cf60dfcbd733742d1890df900ace8e24830686e4006f5d5099f0bed7f909628122deb5ccabca8b43ea7ec5cc6ed2f6883009e82ea857db884ca6249c30391a6f0397aaa56b16a440625a2f7556af6d1640cb942d44f9eccdf5c197b5cf925c3a47667e5b8a000000",
  "txid": "53ff15980293a5ba07b7d49d3a278acddc9866486ea6e0e11c88157e9f96642e",
  "hash": "02bddc6889534dc314d8264397e4e383ea9d38ca675d797fb9b9c56b8d2162a1",
  "size": 5085,
  "vsize": 2278,
  "version": 1,
  "locktime": 138,
  "vin": [
    {
      "txid": "780ff8af91da234bd8896efea809849156224a2b841faa1ce5f1d8bc91a54db0",
      "vout": 0,
      "scriptSig": {
        "asm": "",
        "hex": ""
      },
      "txinwitness": [
        "6bac37d2d19810a2654bc4a7405da9dc1e54837ada444aa1cf47e55bcc2216d6d2224cf880b3fb93d4ee34e7d83e9d21f5782a770d05b8fa382d0ffea5441200cfc96d3247e718ac7df9f4613c795c3a2ea620d8ca5b294ee0d45f921936a0dc5c6195d003f522e63e032a2270538c7286f3db1f8c3158108d8f7a7e47901768255d931ddb0c22e3a44f0ae301e89942c37f31fd49045f27e0d5cdaec419af73a17258fc1b3c2ac04b174c888abfab6fa22c771a5ed4180dc2c940e97d9fd2fe38f47aecd9f91db03c70e822819db8f5a68cd4e65641b24193908dbe9c40e7060c13dce4c9c58efbe932696e78345ded56895d1f9d4a61be25c8f73e3545eb4e8698e860a853556e49d6ecca0fa27134689ca7fa348d599d69b81bdb203ff22e79cffd9881b07a578cd45b2fdf91dff12cad1800a5fba9e9f32478ac779416605a380fdf15304681e7282136c44befb167034c072244ddbeefd9573486c6a5be8bfe05589f321e496c02632e5605230a962e14336faf689c5b754e1cb034d5a4e149a0f3b60bbd040a1a4c72fc1216edb246ae8234856655523021b65fc6ba5b226cf9facb05fdb2b8b0c0ea16ead9f7227a63310b6d1f1415961c0667ccd0eb3b5a5a2141bbea0452e48fcb9de146a5331d79bddd4d44eb3260482f6054d7b3b73eaa788c2d59b378321ec794124b6906dee3faf6d29b346e93201656b4a646a216eaf970cb71ebd173887b6861413d6f8c74753cb4ee5e0185e30f7afe585f2465de8e2e8666cb60312a6f8b712c65b8434556dfab1915a2a7c7ee09200a3cfa9a613ba2e1e90952b08a0b5133ea1cc0fec766e7964caecbff2f9e28727f6b364851b0400fef604e6029dbab4b482c46003c0f62a02b0706be3c49bb6f5ec475f97708e1e76295381e79b44bb1d314c703f2f96fc9141259aef3db56503940716a6b95167021ac96cd31490a1b47524b23f1a99917fb5ec4e7216576ac5bc1a77d328c036a9a42f8c20f94e11ff2c9d6a81b7288840a803ee08a0f0693563f57b689bf862a8c1541a08d5a346bfac234e37b395e1fa12391088a4f1ba563e724f1c93efeaa8df1dd8450a9a9ab0c4641d0d8365e3ff73aa1478a78a4697039bc73beb55b9a1b8a3040f81a70a0410c331871c9ac5bc3fccc30851be3512732e45734aca7b5102be40dc232b92db8b86944a20b689c18536e63344d27168d222965661dab59365d4c3cb150fb8550c6a6dbc67c02aa65e58c0a54b25e50883b62836b313fc8c45ab616dc72e6bf58cc62c9e7d119dd1247be0e758dc0f1374c24b1fa28622739b6bb0f5bc871277a86499ac70b6a69d45a0a9f9967fbf91d760f94ab4de2f446d422c3c00b2d577019ac477918ff3ce8d0c66d91725f81842ce8254f2f71384caf073b3c9311abc2f5e55bd1185201126f4a65e667800c7ba7fb8620b9a9e4091613b9b1a23a8193945f6734dcb642baf42d8fa3e90a3d58d48ddda596163d337b1518e00a675d66a76c1f1c1be4ae1b8032e60ca010b64f00b5ffd4999976361910e06c3b87094a1db2db5c49fca03e044e680e09105969e47130cb0a68cc2a57406187a2c3c87977c6c78c3a83bbed8ea71ed2476a98f7ffa0d231224a806ee33161f5e053a7b8d7da7ac4c9f47d74877355afe4c49f11abebcee3ff4df9b93b6efdd58d421d00eece80b64bc318c9f65bfa180283941a06960b82d4642d50628a275d46f9cbcd78caec0435c9b0cb1f6d7c7f27c32a73479203ca2b7a6eb98aabb74935a094b013d50cb3e9739247c25b270341c754698b817432ae34c4c3414093548c5b047ec99cfb63f56b64c2668dcac5341857706d5f5194105884a32828066bf424fbfef72fe939333e323a621e9d4ee9e21638f1a4135404f8513edb6f682f3d51cdec7c1c17b877d10858947446f75388a118dcca8ec61ad51c1db29ca2c73626f0ab926cca1e45669bf27968a65a3eeaf5ea58158cd6f4dc55653a9281dcb259dedf475a8b8a0e4f6f74767610b399b6a4066962f9d217bba69da43a9094343867b75dda7d5a1627ddcf5af625412e290460d1495d1983cc70e3d224350499aba0a86c1fd64dba34392320682fcd46fd7da432d796d64eeabe743b9743819653ecab2686bcceacb7965c1237efedd1239f28231773b7ac99d1af241175b9eab8652cf203b99bf0ad82deb3b0a0bfbd75e77d93f011b51314c23f6bf3481e5cca09665333da54bcf1ca035c80f78bbbfc7b0803f92f4e9376c7d127423fc8a7f66637e7050e0fd8a460d89ed9bedccbd7abdaa94d335b73ce9d6e5b15cb30be775914908e2d6aaad694f8ac709c3764c09200ff665745b28682b7f6c0986df2d247d922431ad4f5d7f1b5419db26592df327aa0a8d5646d7b6e06f7efc7dae97ab1fed6d172fe14198b9800dd54a9311af3ae634c527bc612ecd737b95028e01a62e9f99dfbe47e17002db0c89f74bbd9f73ce3d77a0aa5a90c5ceae22239e35a4a3cbd7549d8f41b86b6bc5751a5af67ccfe358ed77589a97e1cfeabaea7b29f0b38f1df1bb3b9e22707facbaaca99c61968dd3427c133621459a89a31b098717d2b011d7dd7436f0fd8439820598cccbdb943f528807ce5b655aec9144b593291abe561a9e2ebbc0f48cff02f5d3f1192aaa622974c3f71326db0ebe3b27d38b636a59e99c4459b0717e5dc5612f7a0476073f8b76616c27cfe500a6c8715221c9439b0d9fb963f826ce4dbe64744824ff722fc9de89115054d06363c4f0afd126f3c05460bb0209dc506334dc3bdd69c997574da986a84cbd0b08b259284db8524403efdbec72cbaeddc0bdbcf95038836e490891fcc9d220b16a06917a9602913e47ae97882cae062150dd9ae2c3668726a97b2085069f22ad0d6a710dc2b922b5511b44bcfb950677b32886aa212faab9835ddfa2afd2f13d6cdbc097a8cfa116da4c7032dc263e23b43bab6b4a01fa513a5c257b35467ade3a5d9bff3c6e4acc666df80e4630c963ee93de2617e94ba1fd4d6a009439d0fe102347c079d113ac3fdbb04dfb9432eb8f151839fa079f2b7e1977d0310c2ab4893ea55ef781062b959ca44e4f1598ed5c3c3426b68467584adde84b330539df662801e3cbe585911ad4a41f04a5c9f8e97ed0ae64f8c384d31f1fe42afe069e78cf33473ad8b337de57f5c4f1e9f98f29220df0fb17d8efc10b427c84e0cc13e02cf9411ea8d43331389a3a4fc3c4d15d24bfa9f72ae15f815c92ae4ee9c6a28fb295955de3ef7e23d24f5b7911f01bb4292cc9ddc11e50a071222848ad7e3edfc0016222628484c71a5b1dee2ea012e374e52676a6b6e727c868d92969dbddcfc191c414d575b8182b8bac1ebf100000000000000000000000000000000000000000000000000000916293601",
        "00b9d4a1c613484cec5aac61cff428bf7727fc2916d3ae4454b450069a879905341030c4133784baa4665ba42d9fa2b8a861df49d1d2f8362b9742c8f3bc7d35911a43bc6bc9d04abdb06a9c5bcad37573919f2829f107a3fcd4cc74ee18a87c5ba0b80920875a9fe7eb671e8233fe854559520ffe2bf6db6525b5eadc3c7fbbc6cc154bc2b54cc2302b7e14e73d26ad383e1623680220176f8a6eb42c467a691533eb1cf0771e1dce40c0dd5793c7ff48f129d4f28f7f53760fc5d8f22227d3b626142602ab07ff8bba74006970ace011dba5a5c4cebbc819b92b43504ab2a7e00fa0201848738c486a47feb7d05d8db4915772e3810861419fc18626bb68b353754e36c2df19b42e382f3508498d40b199ba02cf4656291912cdc38c38e841b8a26a5b839a0e403de455b9a80c582a084cb000a9c8accfab58725b70a6fc4b3bd66ea2a01ba63a57a07f28e2161bd6237efc72281916dd456343f7f4ec7a3613d1c0fda094dedec4f5e3e076942c7b7d71602b7585375e10127b933f12256b6e8f578fee0b7042c63765af76e6e44ff8af4154a531814fc224c7296faee2ecdd36e443880439518a09f880892ae76e9322463403646b576e95e7ebb82ec65ec5e17c51b3f1961667e39e0e4523773a24ee9d8637f7512315cfa3a6b9014932b7e747c35fb570081673fa9deca89094dd7e0333f626c93580e5bc7fba08b632e8d44dd49ddde6aade25eb9e4e1bbc37ec3234f3186e28580c293f10b5c5087d5d0ba71b6f6df47a889e3060713aeb5e0491d03b3527c14a9f91f30f2430c7c66ddf52dba5daf00bd3583a3f097909e826279386ff845ca030617799aa03181c8bf8183db18021b816c8f8b2d4045bf2a253117b42be3009dc629251710637436c201ac7101e21c907e68f7d1951a8563b70618e35515937e81cb46395f35d516d7888b6497628dcd239d12ad64278711290af7818058906b58d1530a146d2c9ec1fd66d6304bed2143126d5a8a0c02c8ecba33023f69dad87235d64926acdfa5ae6f2a9a592a52bc75c6acc44fede4fec242139d92132d41fbfc07fa0c08234e2c1bf9c56f9faaa9a2feae42bc059184b380a8091d81ac7b70e582e7c81aa90ce12edf227a24b5d1a62fe6a6f01fb543b5b1ff19ac431cd8022eec41cf4699d8f74264921470ac6d3fba290e3fa9afaec9e674128782856b1378c15418d70bbfaf7e594658c55bb4157b5008525547ac34ccb4ddcef7dca082e1688f93d687abe694355989d9a4a44ed34843b08d1c1a080e3b51351d4425180eb0e786b9faf687d37fffd529a8d0297277ecfeb5de9fee154c72c2f437681419844832becc8c54a7fc3b2f14cd6ae7fdd7eb6c94b72dd86fbe5bf2d599e28b116df222204f90f4e508a485c0810cebfbcada045b78ab917fa61eaf17ff12b8668650459cfcab52765f09c6a5f8713be3fa696c5c4a08aec47f1736df0b7d8633e075dd7dbabf39c7f52f91deb3d19937141f0a2859d1c69fad3c6c1ea42dfa1fdab78827a676d41664efd55191da9459e60349f1a9e4d25996bbe0453c35f492ce3de9b89f39de5d72fdb0a45f8a4c59a94cb17eafad58156efcd9ab88b4facbf4056af00f341118c8c28b24bfbc5e374ba5997aef8a4ed70758d605b1d71728e4660ecf184ed44e165d822256d96c5482aea33728935e70ef1fce80607090c467731cf60dfcbd733742d1890df900ace8e24830686e4006f5d5099f0bed7f909628122deb5ccabca8b43ea7ec5cc6ed2f6883009e82ea857db884ca6249c30391a6f0397aaa56b16a440625a2f7556af6d1640cb942d44f9eccdf5c197b5cf925c3a47667e5b"
      ],
      "sequence": 4294967294
    }
  ],
  "vout": [
    {
      "value": 499961.3578,
      "n": 0,
      "scriptPubKey": {
        "asm": "1 6d8c932b40d5f149749201748904ac74b6a9033e6a01cc6581e723b5580654e0",
        "hex": "51206d8c932b40d5f149749201748904ac74b6a9033e6a01cc6581e723b5580654e0",
        "reqSigs": 1,
        "type": "witness_v1_scripthash",
        "addresses": [
          "3QJmnh"
        ]
      }
    },
    {
      "value": 1.0,
      "n": 1,
      "scriptPubKey": {
        "asm": "OP_RETURN 306731846b37bacb8063ee7c065aff4dc32d9c211926d272d07731d40c575b85 47107ad07a9cb9d93bec690f6570bf4710e3881d367e72293bcfe5689939650d67305af05abc99f91bcc492f45509f6730c3a83d165e52091befc548b919452d07503a903adcf9997bac294f2530ff0750a3c85d763e32697b8fa528d979254d27701ab01afcd9b95b8c096f0510df277083e87d561e12495baf8508f959056dc790fa50fa1c3959bb6ce98fe5f03fc79063089db6fef2a9bb4f65e819b9e58de7b0da70da3c19799b4cc9afc5d01fe7b04328bd96ded2899b6f45c83999c5ad87d0ba10ba5c7919fb2ca9cfa5b07f87d02348ddf6beb2e9fb0f25a859f9a5cda7f09a309a7c5939db0c89ef85905fa7f00368fdd69e92c9db2f058879d985ed47107ad07a9cb9d93bec690f6570bf4710e3881d367e72293bcfe5689939650d67305af05abc99f91bcc492f45509f6730c3a83d165e52091befc548b919452d07503a903adcf9997bac294f2530ff0750a3c85d763e32697b8fa528d979254d27701ab01afcd9b95b8c096f0510df277083e87d561e12495baf8508f959056dc790fa50fa1c3959bb6ce98fe5f03fc79063089db6fef2a9bb4f65e819b9e58de7b0da70da3c19799b4cc9afc5d01fe7b04328bd96ded2899b6f45c83999c5ad87d0ba10ba5c7919fb2ca9cfa5b07f87d02348ddf6beb2e9fb0f25a859f9a5cda7f09a309a7c5939db0c89ef85905fa7f00368fdd69e92c9db2f058879d985ed47107ad07a9cb9d93bec690f6570bf4710e3881d367e72293bcfe5689939650d67305af05abc99f91bcc492f45509f6730c3a83d165e52091befc548b919452d07503a903adcf9997bac294f2530ff0750a3c85d763e32697b8fa528d979254d27701ab01afcd9b95b8c096f0510df277083e87d561e12495baf8508f959056dc790fa50fa1c3959bb6ce98fe5f03fc79063089db6fef2a9bb4f65e819b9e58de7b0da70da3c19799b4cc9afc5d01fe7b04328bd96ded2899b6f45c83999c5ad87d0ba10ba5c7919fb2ca9cfa5b07f87d02348ddf6beb2e9fb0f25a859f9a5cda7f09a309a7c5939db0c89ef85905fa7f00368fdd69e92c9db2f058879d985ed47107ad07a9cb9d93bec690f6570bf4710e3881d367e72293bcfe5689939650d67305af05abc99f91bcc492f45509f6730c3a83d165e52091befc548b919452d07503a903adcf9997bac294f2530ff0750a3c85d763e32697b8fa528d979254d27701ab01afcd9b95b8c096f0510df277083e87d561e12495baf8508f959056dc790fa50fa1c3959bb6ce98fe5f03fc79063089db6fef2a9bb4f65e819b9e58de7b0da70da3c19799b4cc9afc5d01fe7b04328bd96ded2899b6f45c83999c5ad87d0ba10ba5c7919fb2ca9cfa5b07f87d02348ddf6beb2e9fb0f25a859f9a5cda7f09a309a7c5939db0c89ef85905fa7f00368fdd69e92c9db2f058879d985ed47107ad07a9cb9d93bec690f6570bf4710e3881d367e72293bcfe5689939650d67305af05abc99f91bcc492f45509f6730c3a83d165e52091befc548b919452d07503a903adcf9997bac294f2530ff0750a3c85d763e32697b8fa528d979254d27701ab01afcd9b95b8c096f0510df277083e87d561e12495baf8508f959056dc790fa50fa1c3959bb6ce98fe5f03fc72f14c67b29be7e58af0d9617bf377a882c4afa10bf741291ba612e3695338170",
        "hex": "6a20306731846b37bacb8063ee7c065aff4dc32d9c211926d272d07731d40c575b854db00447107ad07a9cb9d93bec690f6570bf4710e3881d367e72293bcfe5689939650d67305af05abc99f91bcc492f45509f6730c3a83d165e52091befc548b919452d07503a903adcf9997bac294f2530ff0750a3c85d763e32697b8fa528d979254d27701ab01afcd9b95b8c096f0510df277083e87d561e12495baf8508f959056dc790fa50fa1c3959bb6ce98fe5f03fc79063089db6fef2a9bb4f65e819b9e58de7b0da70da3c19799b4cc9afc5d01fe7b04328bd96ded2899b6f45c83999c5ad87d0ba10ba5c7919fb2ca9cfa5b07f87d02348ddf6beb2e9fb0f25a859f9a5cda7f09a309a7c5939db0c89ef85905fa7f00368fdd69e92c9db2f058879d985ed47107ad07a9cb9d93bec690f6570bf4710e3881d367e72293bcfe5689939650d67305af05abc99f91bcc492f45509f6730c3a83d165e52091befc548b919452d07503a903adcf9997bac294f2530ff0750a3c85d763e32697b8fa528d979254d27701ab01afcd9b95b8c096f0510df277083e87d561e12495baf8508f959056dc790fa50fa1c3959bb6ce98fe5f03fc79063089db6fef2a9bb4f65e819b9e58de7b0da70da3c19799b4cc9afc5d01fe7b04328bd96ded2899b6f45c83999c5ad87d0ba10ba5c7919fb2ca9cfa5b07f87d02348ddf6beb2e9fb0f25a859f9a5cda7f09a309a7c5939db0c89ef85905fa7f00368fdd69e92c9db2f058879d985ed47107ad07a9cb9d93bec690f6570bf4710e3881d367e72293bcfe5689939650d67305af05abc99f91bcc492f45509f6730c3a83d165e52091befc548b919452d07503a903adcf9997bac294f2530ff0750a3c85d763e32697b8fa528d979254d27701ab01afcd9b95b8c096f0510df277083e87d561e12495baf8508f959056dc790fa50fa1c3959bb6ce98fe5f03fc79063089db6fef2a9bb4f65e819b9e58de7b0da70da3c19799b4cc9afc5d01fe7b04328bd96ded2899b6f45c83999c5ad87d0ba10ba5c7919fb2ca9cfa5b07f87d02348ddf6beb2e9fb0f25a859f9a5cda7f09a309a7c5939db0c89ef85905fa7f00368fdd69e92c9db2f058879d985ed47107ad07a9cb9d93bec690f6570bf4710e3881d367e72293bcfe5689939650d67305af05abc99f91bcc492f45509f6730c3a83d165e52091befc548b919452d07503a903adcf9997bac294f2530ff0750a3c85d763e32697b8fa528d979254d27701ab01afcd9b95b8c096f0510df277083e87d561e12495baf8508f959056dc790fa50fa1c3959bb6ce98fe5f03fc79063089db6fef2a9bb4f65e819b9e58de7b0da70da3c19799b4cc9afc5d01fe7b04328bd96ded2899b6f45c83999c5ad87d0ba10ba5c7919fb2ca9cfa5b07f87d02348ddf6beb2e9fb0f25a859f9a5cda7f09a309a7c5939db0c89ef85905fa7f00368fdd69e92c9db2f058879d985ed47107ad07a9cb9d93bec690f6570bf4710e3881d367e72293bcfe5689939650d67305af05abc99f91bcc492f45509f6730c3a83d165e52091befc548b919452d07503a903adcf9997bac294f2530ff0750a3c85d763e32697b8fa528d979254d27701ab01afcd9b95b8c096f0510df277083e87d561e12495baf8508f959056dc790fa50fa1c3959bb6ce98fe5f03fc72f14c67b29be7e58af0d9617bf377a882c4afa10bf741291ba612e3695338170",
        "type": "nulldata"
      }
    }
  ],
  "blockhash": "394f302ff1829b8db869c98f7b64fb5f27cc2b50e933cff1e5bbeae34fa68a80",
  "confirmations": 1,
  "time": 1764183654,
  "blocktime": 1764183654
}