{
  "hex": "01000000000101df629bfbc1e9f09d24ffe18ffd8edac84e2c1101aeb8442ea498ad401a5ca9400100000000feffffff0250771315792d0000225120d559193f3d0f5d720f680a433c128597469eec8dfe102e5a74567fa907484bf700e1f50500000000fdd5046a20d0282e35fc436ae4eba32b077816eb12869f4589e60f2883f758f9d04c79d6704db004a974f3bca0efa055cd1ffb66bf7a27bd6cb65093030c567d38fc1624d31aa42d8954d39c80cf8075ed3fdb469f5a079d4c9670b3232c765d18dc3604f33a840de934b3fce0afe0158d5fbb26ff3a67fd2cf610d3434c163d78bc5664935ae46dc91493dcc08fc035ad7f9b06df1a47dd0cd630f3636c361d589c7644b37ac44d29f4733c206f20d54d9f7be63ffaa73dec36d013838cd6fdb87c96a4539a24ad09d4531c004f00f56dbf5bc61fda871dcc16f033a3acf6dd985cb68473ba048d69b4337c602f60950ddf3ba67fbae77dac769053c3cc96bdf83cd6e413da64ed4994135c400f40b52dff1b865f9ac75d8c56b073e3ecb69dd81cf6c433fa44cda974f3bca0efa055cd1ffb66bf7a27bd6cb65093030c567d38fc1624d31aa42d8954d39c80cf8075ed3fdb469f5a079d4c9670b3232c765d18dc3604f33a840de934b3fce0afe0158d5fbb26ff3a67fd2cf610d3434c163d78bc5664935ae46dc91493dcc08fc035ad7f9b06df1a47dd0cd630f3636c361d589c7644b37ac44d29f4733c206f20d54d9f7be63ffaa73dec36d013838cd6fdb87c96a4539a24ad09d4531c004f00f56dbf5bc61fda871dcc16f033a3acf6dd985cb68473ba048d69b4337c602f60950ddf3ba67fbae77dac769053c3cc96bdf83cd6e413da64ed4994135c400f40b52dff1b865f9ac75d8c56b073e3ecb69dd81cf6c433fa44cda974f3bca0efa055cd1ffb66bf7a27bd6cb65093030c567d38fc1624d31aa42d8954d39c80cf8075ed3fdb469f5a079d4c9670b3232c765d18dc3604f33a840de934b3fce0afe0158d5fbb26ff3a67fd2cf610d3434c163d78bc5664935ae46dc91493dcc08fc035ad7f9b06df1a47dd0cd630f3636c361d589c7644b37ac44d29f4733c206f20d54d9f7be63ffaa73dec36d013838cd6fdb87c96a4539a24ad09d4531c004f00f56dbf5bc61fda871dcc16f033a3acf6dd985cb68473ba048d69b4337c602f60950ddf3ba67fbae77dac769053c3cc96bdf83cd6e413da64ed4994135c400f40b52dff1b865f9ac75d8c56b073e3ecb69dd81cf6c433fa44cda974f3bca0efa055cd1ffb66bf7a27bd6cb65093030c567d38fc1624d31aa42d8954d39c80cf8075ed3fdb469f5a079d4c9670b3232c765d18dc3604f33a840de934b3fce0afe0158d5fbb26ff3a67fd2cf610d3434c163d78bc5664935ae46dc91493dcc08fc035ad7f9b06df1a47dd0cd630f3636c361d589c7644b37ac44d29f4733c206f20d54d9f7be63ffaa73dec36d013838cd6fdb87c96a4539a24ad09d4531c004f00f56dbf5bc61fda871dcc16f033a3acf6dd985cb68473ba048d69b4337c602f60950ddf3ba67fbae77dac769053c3cc96bdf83cd6e413da64ed4994135c400f40b52dff1b865f9ac75d8c56b073e3ecb69dd81cf6c433fa44cda974f3bca0efa055cd1ffb66bf7a27bd6cb65093030c567d38fc1624d31aa42d8954d39c80cf8075ed3fdb469f5a079d4c9670b3232c765d18dc3604f33a840de934b3fce0afe0158d5fbb26ff3a67fd2cf610d3434c163d78bc5664935ae46dc91493dcc08fc035ad7f9b06df1a47dd0cd630f3636c361d589c7644b37ac44d29f4733c206f20d54d9f7be63ffaa73d1852408313d8d2c8201e8556c35e6ecff4fce73178191c7f698354d8a2eef22002fd7509e048a311e0eb3fd89da3b23409a8b1c1935d676320d131a59b3547c63c190c131e5151aab9e6bf0d39a2ade92df79491df2180acc75bbe5f27363d4f5db77e43d662522f25a29221f1eb51d90f1be97d753fb835637f291692a124b9244b9bb2701ba09828f07c812db1642d18334ca9ecb490a1508fd798fc32dedde3bc40ec15bc66ff1f68736e5c37a9a2966b9b75515a605111493057b96da9ebec7f6f8df1ba6f38ab448704586ffdc2b60fb60477f3ac38d55aa8a4bb74b41356e458c0ef6625eda22683eb632ebe2e106db33b5a2a8d65212144c6d7f0ac2f13e83da8e9ae26ad7ba2070e6be501cfb503fc9b36bea5ede43290e559d2cf4b5b25414c4ccd6cb21b369ec0fc3cfefdb5e61ee610eb37fccfe192251bf15368e738b4fde3466e43f308aa7fb79ae22d1ae0d604ec5da3ac16e8bccb59c078b58bc4942f68cdc3ad0d8215d4c4d5c2652692e070eb111cdc6c78ee195444ab7301875cb3a881dcc0e3d5e3eb72af08a8a378614d56890fb44aec6b92d7e6880b7150ccb33373bb9e284e8ac8fff592b90e5714aea6ce92a53b2f8776f4fa9dfb50e49d14ef68bc8e9e6cee55dd633d7efa7f1cfa43f448069953ee760d26af47e8da6b5eb6ff23876a4e571e51b12360fe088123b8d21df4a7fc4d432ca7b65e6b97f57db5fbdb8d1b9fcee01b456b7fd3a4aeae7f785ac18208b3830c5e357c416fcfc865be1062de3b44c6fecb7e7c3d4cf0f8d83cc46897ec7ddc710e76b34512f29c2ea1d45d73f4fc93fcefb8a2be327385b1158f8baa29272308374ba1edbf4e81f2b2cf1c8decdd3665f6b398dd1ca82009e614ec6b46701ff741de3d120a494bfc4f2b57837b98c5ca50621295da9ef4dc10c8c6d578de1f91f022a56a524a45a9bc6362387655379f3d83294c28c48978a761b4c23e47ed14f0ff5e55cfd6e3beed176e03cbf50625230bea33abb4d68ccf4853f554b115a2b7967004e2d73ecea6131bca8b686add4e939c644bec260fbb6a672822356ab8f830daa80f2591b0dd5b7a2ceffb27a4ed3d3b031d4072144b70cbc94f2a79b066e6f2ff98e21fe30f2f22c00bc5392f43ec73e0d117933708455e05d7ff6bcb3051b37707856027122e35818113328ee0cca8c87f971d975c406a293dc03a5c8d721319641a9d018c1cd23d48b2758b8aada51c2453a2d95dbd9718e595b48211314870cdff1e79e6c5397fb33dfdf216f765d128d9ae9e929abbce298a4e4e50e43d0f6370a06c9a07b273d52c190d372ee1f96e44dac41af368b52edaec6b2ea9ad1e07b02cd4918cae15f1d5bc3d8b93e72a5aa50b025298b483dbe356d046cdc561131a68340d96eb404ec583dc8532ed0fff1dbcc4a34a01d2d7701185adb85dd04dfee32ac16c0a8c4d1f3fd2301cbaa2db61bcc7c38d9f2d18623ee1a818c8cbfaa295611ce844ab80e911dbf812965a2c8321f3c0efd4861f647e8cdcde5e1eca42ec4d7886965bc7deb2538f240ed13e7df6b8867638b558eec6947002eb55c4c87d52457e8d36e40b11128c2cb4eca09c235de3f79a92c40a03fa7c41ece227a4fe270f15466a4c78529c28162dd15b59ebfaf732d54eee13e38e3f20b456caf483dc6b871b78d8378d54582128f47d518b18420c7be4f6b1abd20030d003e08610956f1e1866f0a5641068a34a4203fb27bdcda283e9c3dcddf04ad2e86029b867c5f1b6929d95992938b44dfb7c4d72303156c9fd93183873908587964cdbfa1d169361abed2805b98f22e01912b11cdc675dccf63241e0bc998ecda425382e8b5dc6b12a27912578ead705420f7e813e8074d1dc2eb9926ce3d1b69eef1a09f2df1e699714ee65b5f421cfc29c9642ebc6faa89908cfaf9a0e5d2ec299415440aae7faed14f9dd3a607c1ad5e29e9d83d6359e8186c66571b2fe04d51f65f9a64d61dc3d8e1a495be816ec6fc6f3ef388d508a52b93d727b3eb0f910d55424f72559535328a5b2c0251d0a32ff0067cac13b667fd0d8645deb2b93c79a3ada314d27f9db85d4ee41ad888382d7fb90dc1c6fc68cfb6d0686f9680b523912306f4bd300be05d61fb7e866561adef911ed88005edae4209627aea3a3bf79dcedb092deecb5d2a48da459f6c076e5d9e78b4fa6619852a673acb1ce5b0e8a79c9195966b724d1829ad8586f440646c2ce5c56e33ceb457b706d6f039a326168dc4465832a5df7a02f8c1999f7d8fbe3da950245cfc905db03bf11b9e86deaba758a43d267108d85d72176e177a13db2c4e000cfb9b01f3e1acb23a29448729d5e87cbe07d35495ba5bcd520300cdca80df659010be21d20c7b15be20e61a6e9330e44147f070103aad7f90f01f4760ce6f650717d810f14059523f3f9a70caf6aeb7336db87e3df544e235da842f69e0932bd7ec3953d38f8c47b8997e8648e98d75e170d189c2ff6117d2befe4286a7fde4db5bf649c434be09ca0384e77cea4c06eb2ead93e9b078b59b5f6bab14acb4b700de9816a1610fe56c84a63ccdce14bda44125daddc796ce6ee0dc246c4b8569b72ec96c5817cb9ad7aefb7e91eca9c134baf164d03802b8f6c017c9fc1c91b0aeb13adbf239952c7e55db70f4c0830e9b1048c71f566e74993cf3210faaaa0d34a9db8324de7e9c274587ebe97b884e5086f77e73fd1f795a82d05a61fc1fb3b4be8152111853de18aa24d33c0a50db1870d46418ffd3d430601d9262916face74109fc3c744d3cbb7c58e2981cbb0dd06d40dfe3b2038fcec2850554b2914effb946f7af927f68aa0eb5813bfc8aac40e883c7ed45ace2cad092e3b42827ee3ecebea9757e22d5c60376e9275b58b0bccee2cdf5b476195fd66f55458a438c169cdb5f9771963b69f739b51d056f1c6b5ab6e0d1e19a1a98bdd8ba5fa4f5b7c9861bb8c202e066c867e23c2ae4e5ab7ad2fdc0d9f26f1b4e62751081debfcb1e2d06b00ebaddc288b7f0565be6868b6c54b6fca7a826af8bb979197c865622c5e7afb605f5a6739e154fd4f5c38362a0ff3966810f5b03ff6cd601d9c1a81ef6d3ed66043f4143500f473e748116ae8dd00e3baec25a2fa20391423d7ec4571495a460a5914b89a8610f3a5ed2ae710375d8b1e36ba7ed8159ea3ade0efaaa0cbc5470bd26ea2c6a8fa566a255dcecc283276b3dd7993b0733ba1105b0238ae107824095e60a687f31b38121ee7c6e4c94eacd16b7e6eba5fc8eabe52226d169e88f6c8bd224d5015e0dff9edd5f38134681f3efb0470f574ee1769b28858542584cf65df195eae4207a4dc0f71012b3b5d8183bac2cad21d253b52677071767991a6b3c4cddde50306090d1628495c6c8387b2b5babcc1cbd2f2f7fc0c33363e494f656768798ba3a8c9cedbf0000000000000000000000000000000000009192e3f01fd210500f201186fe2395842425a6105a14e50fd925b00bf71130d9d6d10f1f64c04b1c128c6dbfa7802fea06ea84712881558b13a20f9a0b69d99048941a7c4427d1d395c45308389fff4e3d0a435e29a0f889af19a44f2ff880fc4ef330cca9db141b83b17b61ce326000b447f9e78cc914f8969c2a1e20338d6042362c2f262251ed63ca944eca9e8dd34e9b678f6f33fe63803245029a0fe998cc2ddb6c1804aa6e329317d5665be35f4586fef19eddb73ccc362e8de280e349875e0ff62f19248ef5434c2b95738ab46ed86f9b85ef7444618dda0ffd80fb6be9e46fcb77ad2e7b3308d8d46bc12e9888d03e52b91d466f25082b89db3cf08229edaa83eedd74dfc097c1e534290fab133e2cb236a57de596186f0cd5ac2d2b135a6f39a4cf1672f2386f6a4a7c4571703a881b72c684a2a72b7ac1c5c12f448168aa4d0c5c07f41a4140848e2b596473199a7e60baf672b1ff97fcb047afe2d1398810dc2df687bc8a4ebcef9b39552e222508d25fd1c0b498a5e865d06f6166a68033c614133fec47c15a6654a94c6a4056288eb31cf6ed35e17871ae7a9f845855d689ce644672f90b3e98e7cdb216806bfd237d5cd6a114a0050c3dbd096990749c5ac4b8e7430eb92e98e9e1cdec94c5c98611fe1b34fd259c6d1c53110b852748471c7b3c671388e8485b84898a215ff8bd3cfa317b37f6b2a992588236712dfb7df081e6cdddc2994ea582ae55fb324cfa171e9e874f2b35e1612aad64b3006a8c62d804fd5f4839799d79e385863a4a6918b95e75f72b7606e7dbf9954406946126077db9adb91eee5b2ab3043bdd880221c43abd2f611765e7407c2e39245c452b9e0a69672ed546577ee2bd924ba653e8ce018413fe0979f2dd42013a5fe8c42d4fc0b5cd67c78ae39b80b31cea0ba973b59fc79cbb38ab582c7fe480bb84494801da17cdb74c3a0d3a25d047ef0aa8fcf56e344d1a1df2d5c085119e9793fae4f4c403c3b03bec3fc9e7c1f2d2da31f2661696d6a30ed62d030c667c67657f718d8f3d1c2365209cb02da511f745995ce7c2ab149a34eb36b311865cbdba0ec656bd9bf737739d31dee788b9d37812b41475837ca74afc3ba5907928d143f794b39021e260c1eb1b29ce7b7b1e1bac4e9078635aeb8607b5257f956654dfa0737d7ca5c441a318b136c86f0cc816803016494977832db6262e685645d0b9f3cd37fc726478d050e50d708df966128d202bd294f946cecf277c417d55c51d09fbfd4615a26241bd5782c2e0899bb432209863c9d29fc211b581a45f9d56ffc53a16b63b6e04f23cfa9d6bcc3e7b15e2352d29ec04a1fdf07ed269d80b81ebc874561d59bfb75b3f86d9bb0014b09559055da22e3412c0527d3e9db75abbee3efb2e8e9d70d242888ec2e447090589ef41ed1117b8b6f9e3f5ae403f044757aed0b30d98918101103198f76bcc131e1e279cf5df1cc822f95039fc719b60cc1b7587d123bb84b5e9777ecf95dedf20bcd51beed6bf3daf1e8deb73aa16eb57792d81ac91b799233696285ee9d9cadeab4c67f26988b915a784fe309227a9bc37fcfb68422c01d69219ec05b9a775f798c14f23d0d7d1e2f4cee2c45dfe72e6f7f3235fa803e1a9b0e8a4d479f4bb9c84d1f45b1c6f87f1c618f0e2e5cf3440070505378a991b19cfa6cfb6648ad1f4d40911b635076359c22731d332a7fd816825bf4717b63a784e7f6b3253013c33b698d2f673822c89402fcc47ad9647fa7da0ca3adc6045a5ecece8154abbc764073ac818c3f831a10bcda13aaf7381e9d29de73f3968e443ba3052b857823b7f8c0e542f745dab6fffcfdeab459f1330f1d79f76975000000",
  "txid": "5238cded87b2b44f4471252f17fb0760b14febdaa9e056190fcc8fa019162321",
  "hash": "19a99f02d231116448f31076f8278c7098806c356a6dd38fe7e9260b2f4bfc96",
  "size": 5085,
  "vsize": 2278,
  "version": 1,
  "locktime": 117,
  "vin": [
    {
      "txid": "40a95c1a40ad98a42e44b8ae01112c4ec8da8efd8fe1ff249df0e9c1fb9b62df",
      "vout": 1,
      "scriptSig": {
        "asm": "",
        "hex": ""
      },
      "txinwitness": [
        "e048a311e0eb3fd89da3b23409a8b1c1935d676320d131a59b3547c63c190c131e5151aab9e6bf0d39a2ade92df79491df2180acc75bbe5f27363d4f5db77e43d662522f25a29221f1eb51d90f1be97d753fb835637f291692a124b9244b9bb2701ba09828f07c812db1642d18334ca9ecb490a1508fd798fc32dedde3bc40ec15bc66ff1f68736e5c37a9a2966b9b75515a605111493057b96da9ebec7f6f8df1ba6f38ab448704586ffdc2b60fb60477f3ac38d55aa8a4bb74b41356e458c0ef6625eda22683eb632ebe2e106db33b5a2a8d65212144c6d7f0ac2f13e83da8e9ae26ad7ba2070e6be501cfb503fc9b36bea5ede43290e559d2cf4b5b25414c4ccd6cb21b369ec0fc3cfefdb5e61ee610eb37fccfe192251bf15368e738b4fde3466e43f308aa7fb79ae22d1ae0d604ec5da3ac16e8bccb59c078b58bc4942f68cdc3ad0d8215d4c4d5c2652692e070eb111cdc6c78ee195444ab7301875cb3a881dcc0e3d5e3eb72af08a8a378614d56890fb44aec6b92d7e6880b7150ccb33373bb9e284e8ac8fff592b90e5714aea6ce92a53b2f8776f4fa9dfb50e49d14ef68bc8e9e6cee55dd633d7efa7f1cfa43f448069953ee760d26af47e8da6b5eb6ff23876a4e571e51b12360fe088123b8d21df4a7fc4d432ca7b65e6b97f57db5fbdb8d1b9fcee01b456b7fd3a4aeae7f785ac18208b3830c5e357c416fcfc865be1062de3b44c6fecb7e7c3d4cf0f8d83cc46897ec7ddc710e76b34512f29c2ea1d45d73f4fc93fcefb8a2be327385b1158f8baa29272308374ba1edbf4e81f2b2cf1c8decdd3665f6b398dd1ca82009e614ec6b46701ff741de3d120a494bfc4f2b57837b98c5ca50621295da9ef4dc10c8c6d578de1f91f022a56a524a45a9bc6362387655379f3d83294c28c48978a761b4c23e47ed14f0ff5e55cfd6e3beed176e03cbf50625230bea33abb4d68ccf4853f554b115a2b7967004e2d73ecea6131bca8b686add4e939c644bec260fbb6a672822356ab8f830daa80f2591b0dd5b7a2ceffb27a4ed3d3b031d4072144b70cbc94f2a79b066e6f2ff98e21fe30f2f22c00bc5392f43ec73e0d117933708455e05d7ff6bcb3051b37707856027122e35818113328ee0cca8c87f971d975c406a293dc03a5c8d721319641a9d018c1cd23d48b2758b8aada51c2453a2d95dbd9718e595b48211314870cdff1e79e6c5397fb33dfdf216f765d128d9ae9e929abbce298a4e4e50e43d0f6370a06c9a07b273d52c190d372ee1f96e44dac41af368b52edaec6b2ea9ad1e07b02cd4918cae15f1d5bc3d8b93e72a5aa50b025298b483dbe356d046cdc561131a68340d96eb404ec583dc8532ed0fff1dbcc4a34a01d2d7701185adb85dd04dfee32ac16c0a8c4d1f3fd2301cbaa2db61bcc7c38d9f2d18623ee1a818c8cbfaa295611ce844ab80e911dbf812965a2c8321f3c0efd4861f647e8cdcde5e1eca42ec4d7886965bc7deb2538f240ed13e7df6b8867638b558eec6947002eb55c4c87d52457e8d36e40b11128c2cb4eca09c235de3f79a92c40a03fa7c41ece227a4fe270f15466a4c78529c28162dd15b59ebfaf732d54eee13e38e3f20b456caf483dc6b871b78d8378d54582128f47d518b18420c7be4f6b1abd20030d003e08610956f1e1866f0a5641068a34a4203fb27bdcda283e9c3dcddf04ad2e86029b867c5f1b6929d95992938b44dfb7c4d72303156c9fd93183873908587964cdbfa1d169361abed2805b98f22e01912b11cdc675dccf63241e0bc998ecda425382e8b5dc6b12a27912578ead705420f7e813e8074d1dc2eb9926ce3d1b69eef1a09f2df1e699714ee65b5f421cfc29c9642ebc6faa89908cfaf9a0e5d2ec299415440aae7faed14f9dd3a607c1ad5e29e9d83d6359e8186c66571b2fe04d51f65f9a64d61dc3d8e1a495be816ec6fc6f3ef388d508a52b93d727b3eb0f910d55424f72559535328a5b2c0251d0a32ff0067cac13b667fd0d8645deb2b93c79a3ada314d27f9db85d4ee41ad888382d7fb90dc1c6fc68cfb6d0686f9680b523912306f4bd300be05d61fb7e866561adef911ed88005edae4209627aea3a3bf79dcedb092deecb5d2a48da459f6c076e5d9e78b4fa6619852a673acb1ce5b0e8a79c9195966b724d1829ad8586f440646c2ce5c56e33ceb457b706d6f039a326168dc4465832a5df7a02f8c1999f7d8fbe3da950245cfc905db03bf11b9e86deaba758a43d267108d85d72176e177a13db2c4e000cfb9b01f3e1acb23a29448729d5e87cbe07d35495ba5bcd520300cdca80df659010be21d20c7b15be20e61a6e9330e44147f070103aad7f90f01f4760ce6f650717d810f14059523f3f9a70caf6aeb7336db87e3df544e235da842f69e0932bd7ec3953d38f8c47b8997e8648e98d75e170d189c2ff6117d2befe4286a7fde4db5bf649c434be09ca0384e77cea4c06eb2ead93e9b078b59b5f6bab14acb4b700de9816a1610fe56c84a63ccdce14bda44125daddc796ce6ee0dc246c4b8569b72ec96c5817cb9ad7aefb7e91eca9c134baf164d03802b8f6c017c9fc1c91b0aeb13adbf239952c7e55db70f4c0830e9b1048c71f566e74993cf3210faaaa0d34a9db8324de7e9c274587ebe97b884e5086f77e73fd1f795a82d05a61fc1fb3b4be8152111853de18aa24d33c0a50db1870d46418ffd3d430601d9262916face74109fc3c744d3cbb7c58e2981cbb0dd06d40dfe3b2038fcec2850554b2914effb946f7af927f68aa0eb5813bfc8aac40e883c7ed45ace2cad092e3b42827ee3ecebea9757e22d5c60376e9275b58b0bccee2cdf5b476195fd66f55458a438c169cdb5f9771963b69f739b51d056f1c6b5ab6e0d1e19a1a98bdd8ba5fa4f5b7c9861bb8c202e066c867e23c2ae4e5ab7ad2fdc0d9f26f1b4e62751081debfcb1e2d06b00ebaddc288b7f0565be6868b6c54b6fca7a826af8bb979197c865622c5e7afb605f5a6739e154fd4f5c38362a0ff3966810f5b03ff6cd601d9c1a81ef6d3ed66043f4143500f473e748116ae8dd00e3baec25a2fa20391423d7ec4571495a460a5914b89a8610f3a5ed2ae710375d8b1e36ba7ed8159ea3ade0efaaa0cbc5470bd26ea2c6a8fa566a255dcecc283276b3dd7993b0733ba1105b0238ae107824095e60a687f31b38121ee7c6e4c94eacd16b7e6eba5fc8eabe52226d169e88f6c8bd224d5015e0dff9edd5f38134681f3efb0470f574ee1769b28858542584cf65df195eae4207a4dc0f71012b3b5d8183bac2cad21d253b52677071767991a6b3c4cddde50306090d1628495c6c8387b2b5babcc1cbd2f2f7fc0c33363e494f656768798ba3a8c9cedbf0000000000000000000000000000000000009192e3f01",
        "00f201186fe2395842425a6105a14e50fd925b00bf71130d9d6d10f1f64c04b1c128c6dbfa7802fea06ea84712881558b13a20f9a0b69d99048941a7c4427d1d395c45308389fff4e3d0a435e29a0f889af19a44f2ff880fc4ef330cca9db141b83b17b61ce326000b447f9e78cc914f8969c2a1e20338d6042362c2f262251ed63ca944eca9e8dd34e9b678f6f33fe63803245029a0fe998cc2ddb6c1804aa6e329317d5665be35f4586fef19eddb73ccc362e8de280e349875e0ff62f19248ef5434c2b95738ab46ed86f9b85ef7444618dda0ffd80fb6be9e46fcb77ad2e7b3308d8d46bc12e9888d03e52b91d466f25082b89db3cf08229edaa83eedd74dfc097c1e534290fab133e2cb236a57de596186f0cd5ac2d2b135a6f39a4cf1672f2386f6a4a7c4571703a881b72c684a2a72b7ac1c5c12f448168aa4d0c5c07f41a4140848e2b596473199a7e60baf672b1ff97fcb047afe2d1398810dc2df687bc8a4ebcef9b39552e222508d25fd1c0b498a5e865d06f6166a68033c614133fec47c15a6654a94c6a4056288eb31cf6ed35e17871ae7a9f845855d689ce644672f90b3e98e7cdb216806bfd237d5cd6a114a0050c3dbd096990749c5ac4b8e7430eb92e98e9e1cdec94c5c98611fe1b34fd259c6d1c53110b852748471c7b3c671388e8485b84898a215ff8bd3cfa317b37f6b2a992588236712dfb7df081e6cdddc2994ea582ae55fb324cfa171e9e874f2b35e1612aad64b3006a8c62d804fd5f4839799d79e385863a4a6918b95e75f72b7606e7dbf9954406946126077db9adb91eee5b2ab3043bdd880221c43abd2f611765e7407c2e39245c452b9e0a69672ed546577ee2bd924ba653e8ce018413fe0979f2dd42013a5fe8c42d4fc0b5cd67c78ae39b80b31cea0ba973b59fc79cbb38ab582c7fe480bb84494801da17cdb74c3a0d3a25d047ef0aa8fcf56e344d1a1df2d5c085119e9793fae4f4c403c3b03bec3fc9e7c1f2d2da31f2661696d6a30ed62d030c667c67657f718d8f3d1c2365209cb02da511f745995ce7c2ab149a34eb36b311865cbdba0ec656bd9bf737739d31dee788b9d37812b41475837ca74afc3ba5907928d143f794b39021e260c1eb1b29ce7b7b1e1bac4e9078635aeb8607b5257f956654dfa0737d7ca5c441a318b136c86f0cc816803016494977832db6262e685645d0b9f3cd37fc726478d050e50d708df966128d202bd294f946cecf277c417d55c51d09fbfd4615a26241bd5782c2e0899bb432209863c9d29fc211b581a45f9d56ffc53a16b63b6e04f23cfa9d6bcc3e7b15e2352d29ec04a1fdf07ed269d80b81ebc874561d59bfb75b3f86d9bb0014b09559055da22e3412c0527d3e9db75abbee3efb2e8e9d70d242888ec2e447090589ef41ed1117b8b6f9e3f5ae403f044757aed0b30d98918101103198f76bcc131e1e279cf5df1cc822f95039fc719b60cc1b7587d123bb84b5e9777ecf95dedf20bcd51beed6bf3daf1e8deb73aa16eb57792d81ac91b799233696285ee9d9cadeab4c67f26988b915a784fe309227a9bc37fcfb68422c01d69219ec05b9a775f798c14f23d0d7d1e2f4cee2c45dfe72e6f7f3235fa803e1a9b0e8a4d479f4bb9c84d1f45b1c6f87f1c618f0e2e5cf3440070505378a991b19cfa6cfb6648ad1f4d40911b635076359c22731d332a7fd816825bf4717b63a784e7f6b3253013c33b698d2f673822c89402fcc47ad9647fa7da0ca3adc6045a5ecece8154abbc764073ac818c3f831a10bcda13aaf7381e9d29de73f3968e443ba3052b857823b7f8c0e542f745dab6fffcfdeab459f1330f1d79f769"
      ],
      "sequence": 4294967294
    }
  ],
  "vout": [
    {
      "value": 499980.6789,
      "n": 0,
      "scriptPubKey": {
        "asm": "1 d559193f3d0f5d720f680a433c128597469eec8dfe102e5a74567fa907484bf7",
        "hex": "5120d559193f3d0f5d720f680a433c128597469eec8dfe102e5a74567fa907484bf7",
        "reqSigs": 1,
        "type": "witness_v1_scripthash",
        "addresses": [
          "3QJmnh"
        ]
      }
    },
    {
      "value": 1.0,
      "n": 1,
      "scriptPubKey": {
        "asm": "OP_RETURN d0282e35fc436ae4eba32b077816eb12869f4589e60f2883f758f9d04c79d670 a974f3bca0efa055cd1ffb66bf7a27bd6cb65093030c567d38fc1624d31aa42d8954d39c80cf8075ed3fdb469f5a079d4c9670b3232c765d18dc3604f33a840de934b3fce0afe0158d5fbb26ff3a67fd2cf610d3434c163d78bc5664935ae46dc91493dcc08fc035ad7f9b06df1a47dd0cd630f3636c361d589c7644b37ac44d29f4733c206f20d54d9f7be63ffaa73dec36d013838cd6fdb87c96a4539a24ad09d4531c004f00f56dbf5bc61fda871dcc16f033a3acf6dd985cb68473ba048d69b4337c602f60950ddf3ba67fbae77dac769053c3cc96bdf83cd6e413da64ed4994135c400f40b52dff1b865f9ac75d8c56b073e3ecb69dd81cf6c433fa44cda974f3bca0efa055cd1ffb66bf7a27bd6cb65093030c567d38fc1624d31aa42d8954d39c80cf8075ed3fdb469f5a079d4c9670b3232c765d18dc3604f33a840de934b3fce0afe0158d5fbb26ff3a67fd2cf610d3434c163d78bc5664935ae46dc91493dcc08fc035ad7f9b06df1a47dd0cd630f3636c361d589c7644b37ac44d29f4733c206f20d54d9f7be63ffaa73dec36d013838cd6fdb87c96a4539a24ad09d4531c004f00f56dbf5bc61fda871dcc16f033a3acf6dd985cb68473ba048d69b4337c602f60950ddf3ba67fbae77dac769053c3cc96bdf83cd6e413da64ed4994135c400f40b52dff1b865f9ac75d8c56b073e3ecb69dd81cf6c433fa44cda974f3bca0efa055cd1ffb66bf7a27bd6cb65093030c567d38fc1624d31aa42d8954d39c80cf8075ed3fdb469f5a079d4c9670b3232c765d18dc3604f33a840de934b3fce0afe0158d5fbb26ff3a67fd2cf610d3434c163d78bc5664935ae46dc91493dcc08fc035ad7f9b06df1a47dd0cd630f3636c361d589c7644b37ac44d29f4733c206f20d54d9f7be63ffaa73dec36d013838cd6fdb87c96a4539a24ad09d4531c004f00f56dbf5bc61fda871dcc16f033a3acf6dd985cb68473ba048d69b4337c602f60950ddf3ba67fbae77dac769053c3cc96bdf83cd6e413da64ed4994135c400f40b52dff1b865f9ac75d8c56b073e3ecb69dd81cf6c433fa44cda974f3bca0efa055cd1ffb66bf7a27bd6cb65093030c567d38fc1624d31aa42d8954d39c80cf8075ed3fdb469f5a079d4c9670b3232c765d18dc3604f33a840de934b3fce0afe0158d5fbb26ff3a67fd2cf610d3434c163d78bc5664935ae46dc91493dcc08fc035ad7f9b06df1a47dd0cd630f3636c361d589c7644b37ac44d29f4733c206f20d54d9f7be63ffaa73dec36d013838cd6fdb87c96a4539a24ad09d4531c004f00f56dbf5bc61fda871dcc16f033a3acf6dd985cb68473ba048d69b4337c602f60950ddf3ba67fbae77dac769053c3cc96bdf83cd6e413da64ed4994135c400f40b52dff1b865f9ac75d8c56b073e3ecb69dd81cf6c433fa44cda974f3bca0efa055cd1ffb66bf7a27bd6cb65093030c567d38fc1624d31aa42d8954d39c80cf8075ed3fdb469f5a079d4c9670b3232c765d18dc3604f33a840de934b3fce0afe0158d5fbb26ff3a67fd2cf610d3434c163d78bc5664935ae46dc91493dcc08fc035ad7f9b06df1a47dd0cd630f3636c361d589c7644b37ac44d29f4733c206f20d54d9f7be63ffaa73d1852408313d8d2c8201e8556c35e6ecff4fce73178191c7f698354d8a2eef220",
        "hex": "6a20d0282e35fc436ae4eba32b077816eb12869f4589e60f2883f758f9d04c79d6704db004a974f3bca0efa055cd1ffb66bf7a27bd6cb65093030c567d38fc1624d31aa42d8954d39c80cf8075ed3fdb469f5a079d4c9670b3232c765d18dc3604f33a840de934b3fce0afe0158d5fbb26ff3a67fd2cf610d3434c163d78bc5664935ae46dc91493dcc08fc035ad7f9b06df1a47dd0cd630f3636c361d589c7644b37ac44d29f4733c206f20d54d9f7be63ffaa73dec36d013838cd6fdb87c96a4539a24ad09d4531c004f00f56dbf5bc61fda871dcc16f033a3acf6dd985cb68473ba048d69b4337c602f60950ddf3ba67fbae77dac769053c3cc96bdf83cd6e413da64ed4994135c400f40b52dff1b865f9ac75d8c56b073e3ecb69dd81cf6c433fa44cda974f3bca0efa055cd1ffb66bf7a27bd6cb65093030c567d38fc1624d31aa42d8954d39c80cf8075ed3fdb469f5a079d4c9670b3232c765d18dc3604f33a840de934b3fce0afe0158d5fbb26ff3a67fd2cf610d3434c163d78bc5664935ae46dc91493dcc08fc035ad7f9b06df1a47dd0cd630f3636c361d589c7644b37ac44d29f4733c206f20d54d9f7be63ffaa73dec36d013838cd6fdb87c96a4539a24ad09d4531c004f00f56dbf5bc61fda871dcc16f033a3acf6dd985cb68473ba048d69b4337c602f60950ddf3ba67fbae77dac769053c3cc96bdf83cd6e413da64ed4994135c400f40b52dff1b865f9ac75d8c56b073e3ecb69dd81cf6c433fa44cda974f3bca0efa055cd1ffb66bf7a27bd6cb65093030c567d38fc1624d31aa42d8954d39c80cf8075ed3fdb469f5a079d4c9670b3232c765d18dc3604f33a840de934b3fce0afe0158d5fbb26ff3a67fd2cf610d3434c163d78bc5664935ae46dc91493dcc08fc035ad7f9b06df1a47dd0cd630f3636c361d589c7644b37ac44d29f4733c206f20d54d9f7be63ffaa73dec36d013838cd6fdb87c96a4539a24ad09d4531c004f00f56dbf5bc61fda871dcc16f033a3acf6dd985cb68473ba048d69b4337c602f60950ddf3ba67fbae77dac769053c3cc96bdf83cd6e413da64ed4994135c400f40b52dff1b865f9ac75d8c56b073e3ecb69dd81cf6c433fa44cda974f3bca0efa055cd1ffb66bf7a27bd6cb65093030c567d38fc1624d31aa42d8954d39c80cf8075ed3fdb469f5a079d4c9670b3232c765d18dc3604f33a840de934b3fce0afe0158d5fbb26ff3a67fd2cf610d3434c163d78bc5664935ae46dc91493dcc08fc035ad7f9b06df1a47dd0cd630f3636c361d589c7644b37ac44d29f4733c206f20d54d9f7be63ffaa73dec36d013838cd6fdb87c96a4539a24ad09d4531c004f00f56dbf5bc61fda871dcc16f033a3acf6dd985cb68473ba048d69b4337c602f60950ddf3ba67fbae77dac769053c3cc96bdf83cd6e413da64ed4994135c400f40b52dff1b865f9ac75d8c56b073e3ecb69dd81cf6c433fa44cda974f3bca0efa055cd1ffb66bf7a27bd6cb65093030c567d38fc1624d31aa42d8954d39c80cf8075ed3fdb469f5a079d4c9670b3232c765d18dc3604f33a840de934b3fce0afe0158d5fbb26ff3a67fd2cf610d3434c163d78bc5664935ae46dc91493dcc08fc035ad7f9b06df1a47dd0cd630f3636c361d589c7644b37ac44d29f4733c206f20d54d9f7be63ffaa73d1852408313d8d2c8201e8556c35e6ecff4fce73178191c7f698354d8a2eef220",
        "type": "nulldata"
      }
    }
  ],
  "blockhash": "443ef5589806c3570db60b1178f56898637f167918ce0f0236a27ac7d0512dc1",
  "confirmations": 1,
  "time": 1764179461,
  "blocktime": 1764179461
}