{
  "hex": "010000000001016a19026c5362658b1d90348609715776d2a215dfa1fc6f0e82a48fd265157e410100000000feffffff023022f408792d0000225120da9bcfd50ab70da2d067011b553000529348f24bcc4109b11a709a1d6ac8c8bb00e1f50500000000fdd5046a20ca035005fd72024ab1ed589625c1f49303e8250461fb19b356ad60ff304e860c4db004b306150246459b05e074bc0ac66837f4684afab2b3cc012084d1fcbdfb321273932635226665bb25c0549c2ae64817d4486ada9293ec2100a4f1dc9ddb123253f34655420605db45a034fc4a862877b4280abaf2f38c4160c491bcfdbb725233d36675622625fb658014dc6aa6085794082a9ad2d3ac6140e4b19cdd9b52721333869582c6c51b8560f43c8a46e8b774e8ca7a32334c81a004517c3d7bb292f313a6b5a2e6e53ba540d41caa66c89754c8ea5a12136ca18024715c1d5b92b2d373c6d5c286855bc520b47cca06a8f734a88a3a72730cc1e044113c7d3bf2d2b353e6f5e2a6a57be500945cea2688d71488aa1a52532ce1c064311c5d1bd2f293b306150246459b05e074bc0ac66837f4684afab2b3cc012084d1fcbdfb321273932635226665bb25c0549c2ae64817d4486ada9293ec2100a4f1dc9ddb123253f34655420605db45a034fc4a862877b4280abaf2f38c4160c491bcfdbb725233d36675622625fb658014dc6aa6085794082a9ad2d3ac6140e4b19cdd9b52721333869582c6c51b8560f43c8a46e8b774e8ca7a32334c81a004517c3d7bb292f313a6b5a2e6e53ba540d41caa66c89754c8ea5a12136ca18024715c1d5b92b2d373c6d5c286855bc520b47cca06a8f734a88a3a72730cc1e044113c7d3bf2d2b353e6f5e2a6a57be500945cea2688d71488aa1a52532ce1c064311c5d1bd2f293b306150246459b05e074bc0ac66837f4684afab2b3cc012084d1fcbdfb321273932635226665bb25c0549c2ae64817d4486ada9293ec2100a4f1dc9ddb123253f34655420605db45a034fc4a862877b4280abaf2f38c4160c491bcfdbb725233d36675622625fb658014dc6aa6085794082a9ad2d3ac6140e4b19cdd9b52721333869582c6c51b8560f43c8a46e8b774e8ca7a32334c81a004517c3d7bb292f313a6b5a2e6e53ba540d41caa66c89754c8ea5a12136ca18024715c1d5b92b2d373c6d5c286855bc520b47cca06a8f734a88a3a72730cc1e044113c7d3bf2d2b353e6f5e2a6a57be500945cea2688d71488aa1a52532ce1c064311c5d1bd2f293b306150246459b05e074bc0ac66837f4684afab2b3cc012084d1fcbdfb321273932635226665bb25c0549c2ae64817d4486ada9293ec2100a4f1dc9ddb123253f34655420605db45a034fc4a862877b4280abaf2f38c4160c491bcfdbb725233d36675622625fb658014dc6aa6085794082a9ad2d3ac6140e4b19cdd9b52721333869582c6c51b8560f43c8a46e8b774e8ca7a32334c81a004517c3d7bb292f313a6b5a2e6e53ba540d41caa66c89754c8ea5a12136ca18024715c1d5b92b2d373c6d5c286855bc520b47cca06a8f734a88a3a72730cc1e044113c7d3bf2d2b353e6f5e2a6a57be500945cea2688d71488aa1a52532ce1c064311c5d1bd2f293b306150246459b05e074bc0ac66837f4684afab2b3cc012084d1fcbdfb321273932635226665bb25c0549c2ae64817d4486ada9293ec2100a4f1dc9ddb123253f34655420605db45a034fc4a862877b4280abaf2f38c4160c491bcfdbb725233d36675622625fb658014dc6aa6085794082a9ad2d3ac6140e4b19cdd9b52721333869582c6c51b8560f43c8a46e8b774eec3a56c7e924311bae826ed0a1d0303b4be7065929fcba50966c589f0766c8902fd7509d08bac875859d6b22e489d4357c863a6405f717e1f51069284f6a854880479b8c43e8df5799a995397538bff0657e3d29923b495a4eeeef148c2bd9c27a961a19e10a654c1903be77b740294559414036a2a0484427be711233222f7dd4af4f9ccc07fddb89f952961d7a09bedaff9be1ddbf0d4062971dbd7a3c665b48ce6424e008ffefbb0bf6cf557d612cafe827c6abca5b2489deb1a2ab69517be9000e0cdf841d0e804e20ae5e9b5cc0f6fa55b7da30e107069161507079a69010192f384eeb00087fb1588a73c75b62b5eef64776739ab1fbe45506ece9a26d2d843bbbbf74d0c4599f8e3cc7a949a927fa41aa52a63a51f2ad5356d5f3ca9700072c47d3a0954de2b4c1bed337b277121cee4f1579975d9d23bf54c87c127c4ceb8ba87e18c3c9acd222160123c7e5a343430019fa9d17ab2cba0b672b24aec06d8b5b670d1e899d5329d5789d09434d991bb51f8f7c233af5657dd1361951b1dc88d7932c5eba8bcbd432ef12f7e58d7d2165d3ed2c3cc569f46d60861d4977d1c0beeda867b2c1f63c42d1120443a08be3f994e3323b81daf2d45332572efdbad71c3aa34aa538f93c52256d8c15fa161b1fc857457f6b48819b152bdfc4729bb7a6e52e12478722e374ef4d5a01568897bef41bc9d8828ae99e665c5ae8c3327b8935bbf04c9511cc0e1c97bdc6fe4f3763ed225d079b1537f8f51a266ea127b86010c725ba69108f006ed2cb738fb0d311b4853b971b8aa09a71447aacc4cd1a24d96816878d11eae81ced63f5bf29390be0750fc4901a8abcc90e5a1d5bbc3f32343b7b4b9ea2e31c1e7c186c2f17ebdac46f91c68a027c212ba098f72fa62858f715b65d01a457556ff8100463004268b00756b780056027153b8be6a8b64606d39099c95c5423700943a002a449419ed5220cb495a7ca817852f0fbef253b81fb3d33ebb912963ca2790b604173504ae05b69ae178e7d56e6e3959ed8dc52e0320a636edd1c69318bfe75afe165764fde8da184a7195e2e4406b3bc31b2f690a17ddaa5d9f0a7940ded8b3b4b78244807a98fced4e3f2c409c6dc0e550edd79a0af1546e8d7dc0aa12e287e31bae49e1e1e12217a0adc28a43c02e760b6434693e94ba7e78d5f05d5183ffa87b5af0e91566270b9dc815bae206f4f5fa6dd4b085687c06e29b19f72ed1c2e3d3fb57e5477d385d146fd7ee17c5e6dd5a5fd85bd765274e542f5c3c75c00626b4f69a2e39e9b1551e288d4415bd06cd2568bb38f6e8ad7a187910e28a45c0e8ce0c50e014d2a9c5d1568fbf6c2233c837e2e21fa89253f973e87eec7d9bff7f8526b632dae108d6167458d0c4e362437648895a4a9453cec6923cc1ef02de5f5e1c7a4a97e811ddbb586ce9c521e54b732eaded22089ceddf2499b51e2dacd117f7aa298494bcf62d28ab9d96a5a8c936ebe7dc8781b004dc53cd4a92064df4043bce4b3a9f3335cabc6bb544a880fc926c1705cbe5a337dd0af436bb438f6b27d37bf6413cf8f3c81e89f8657e586d67292e88cbc21bd9852725616ba5b4ad393ebba1e279493c14958f8e8563789df6f9aa7a1b623b354a8f569da65fb6a4e955d6e7649d3d3df907bc8525b14c0cd3eedbdd1153f5dc6a58840a6cf3aa1a72b55cc8b5db6252caf06172a2f6bbb7b900d1780671a3926a76cd728fb43f1e6aac009e7fd18e6881e1ce73cc5f4a3b8e7370a4afcfed41936be4cb7093289ee0a282b16ea33800cac11b3bf6e034643268736d7d477873236d002df6bfb6e84a48826ddb47d3684bf3017e9af3165da47bbb11b33bc13bdbd327de2eeb25c3d276948e9b1f15a5ba64adb9a2bb3a1549c3a253bcecab2200445bc7b1074d82d03339ce1b3b4ddf6c8ea24e55d962d0726344db10e26922d37e6c55b2d0105f39431cbbbf98e760fd32d3f32b5bfc1612bc3fc1531e3ae5415b2fe674cebc28a8365ad4634126f788be243f8583060b6f065c18de80ee792f6a330048639aa26c88f605201451e74b2d039c502a9f3461255c942bd5cadf624230f877fb5f0f761d167c2f898f9b44f6bd44a0d45a4aa28d1facb4c5a3d33021a24e65088fc9dea98ad501558d8f7afa3b8075acb939766ae3d4bc02d488fc7a09c12810515f22765183e217a2120cdf5b835bd15ee352cf3831e55e1ef3195ec9ee895b617064c41f0d41a2c4b2cb81cdcb58f82f7325d9d47222e96a3e34fd9befdfeaf12c406f3604ea34b36f459bb51e636853be934e621705694d8050553de74ffeedabf38b63bb7aee63551e15d16ba4a4fa3c6baac058d52412fd0f3be22e055b7fd6fbe7bb23b0e53ea0639f79eb6de56964e94fa700dbdf0fc6988fdc055a4590bd6739604ba647b02926d62107546bf124e1cfc8a1b9b46fb43ee2cd66e502863fbf495294618d29b63590dbdeff111df8b9004824f86bdb168af763a1d9d6894bf8c5c25e8f58fa7d6ab8138f7e6943cf01df6e20b843fedf70d79767164b082958a19e3dcc9f80907f9a9275a603eccdae7125070b838523d6b0a1b57b26b78376ccc37a8b12afe28e5000f308f6b16bffa97ebb4f930059df5fe9e33955ff07fbe3291c21dfebb65b5815482b9a668b137751bc0009e65837f82ac7047d9780c4511fb2d8f83a3b51b14a473cafe4c1509ee6de89f238efdf959c0c21c436324dce94a5ab05e775c20101cf8e28c05483f45a5bdf1521ce1d6f1cb1a5bd020e655237cf91dfe07546903dfdf78cf22ca45bd8d9b94fbfd7db6a5b70ea14b2b4db1c40926a2e94644c25835a86711a1c523a11a454c31ae16ffb5ad05787d1fbf039356984b067ad259b7aa48f37a66428494d23845e2e0d663489c6e5dfddea0cf967fa31cfdc5298b087b7d6b8154455415cef5f22aa9c4e34223e2be90f2e7bab35b2a610546834382fbed87a4902b339c57a5485f25077dbf75691d1ce6669c5efc6a5b8a834bfaaecbc2e8c613c120c40741b021a095a1feaa246d43684bb5b46ce0bddb42398b8ea1fdf3aaa5f6efafad4fe65176836bf12967e855b87bc59d102cd1259236f1ed95ec34d118f163d9909836e5215e9524861003d719738802cbd4a295a6050e3604179b555e04b3c97532a75e57520bf305710410b59f4f73881d643d8a51f5af8574da3339d021e0ac0aeb93a7b33790dfd5db2b7609c5d9b562590ab8ec118af0784ef24e9b36dee0b6655d25b3939af2e86433d17b87620f6a2d17ac44ab889a9fad289296d5346c43cfe54dd83fe5081c0b04b329d523ad6f7bdafccb9fc9ed1265294f5f21e9803375760787a858fa4a6baf8fd0e2e3a476498c6e7edfa020e1e20224683b4d8db04242d334aa6e1000000000000000000000000000000000000000000000000000000000000000000000000000000000d17212801fd210500707f77d6ea653a3e60f8fa49872b2ef3e5e17733b6b8b3143b9f28e0dfd5fed9e3685dd8c97697a350904a04eb377392f0741096a3a7dd47f3d588fc22e66c39386f150b2609cf1bc0a57f8646672d567e555730384737a1b5be185443fd9ad7254119b7455c3677a5287df7d041b8befd56182022c3f752021abf7e48fcbf1cd3333dcd81da2f42eabeb6a743b7f8f1d0b5c2a916c8840f3d8e2ff3008eb517463b20880f275c882097be39d3c4a3e48d90f98a14f566eff200e6e4488af61526975736ef664c22b9d4611f4fdecc1f99090c754034bb01c39e63de4348b6f912ee2893d2aa2d01584813295ecb0acd74f51c146122eaace6ef227d7d9a3846b2ae6b330f7fdb352975d4af94bd831bb41010fb77fb66fba9437fdf1f179b90fc946a5d575082ad1fb241da99533a30f1a4fc9cc7d46ca8cc4fa8d83543e87e7bd809ca3ffa77ea63fe501218cbf763ce2fe3bd503c4adf6fdbbcf7efc2c1884cc47d78028a5391ca31a6485214747b733f8542ff10ff62c5425333f674f1720fd278620a9a5e15b87e520693514fe2b0e85a15618dd7817a956ae0c91e109a7f9eb6a6241821792d506a1ff219a8231b3ceba5f9f0ef15a8159bb2125c40cf622aef6e60e7dffef55e416ea31fa9f448dd3b6add9f629e486de95daa5edaae719f1f558c67ea84e0507b928e265c58c88ad9dd62fb300ec49957e8c2b5f6ed69b7bc2aa3cbfb49902bb03bb5f8d0ca9c303ec165087591cee19c708a6df8d00960c93269fa3ab4cd577f77df783de847c9d03b4a0abab5694a32f0a4903b7e934bd826eef1189747cea1f833bfec65bfcdcb356608faa8463d15508dd06c3490a2fb65774a8688e91b2713482495b1e825433d394f1a3050a485be1957f34afa8075b8e60e4ae3bc088cfd9109eb60949c34b74152b6fd40d02e09062bf514d930e2bc992d7100852a34d3f7896d5f6b1301cae92ed04182ab9ca5c4daa09a1d0d33e4c740db4a01aa6f384c342701d0b56296790f2b8c87f956b61fdaf7ae76ae6fb82cdbd3bdc4dd64e7d4b8a64b95246715a15d9e8a29ca73368559f4e19beda839fc0fd6d97b49a81bb02f125702a99e83410ac66d895a2c2f5a37c8526c00342e829e5742ef9435492f86b1fee9bd834c5192988dc1290d067c17a4f3b4bd313ebd4ac2c157d8fc7613d147f0eb06573a920e1421fc77ef4036e15f6b2cbf6495d5b25e6150e74b9f8844b0fa0cd01372d96c2095b32f16257a6942199716d7646b17bbdc8a50771d4122224c1f16b2b176544bfd98e2b4195502cd122583d0f8856ab0b815227260b38c43349f0a361f14edc867f17f719cb54d5e278e2eb94c69fa4424f61d8d82e78783474eeccf8f59c0ebb6f6298028081cc051af10146e4fc25bb53bafd8b4298879a736a5036625b4bdcff1aaecf7ba50ca485b16a12fd0de000e289d60b65a54362f8b1f42beabd99fa9efe359343d8b0f2835ee78c31c342bf90697659431150f87a5afff5c013fae980cf4e1c5312a64b0c827045ddec84787a2ecd3ad8d11682f8f225a2922ff232d531994ad6f756a5006cb8cfe5c547ea82ebca9ed443292944c204c4fa52ebb2ddeefbe0be0b095ff4317d929742c972f40115ddd350795cd3bd73be4f95a2a6562cf194bfe558ae57f354f7fea862d184b1e7d91bcf7cae3a9162285c452dd7278adf58d94c824bf6421b938ac9087ef4e01b5f33029615042aa473d1a118c339bcdd5c75fd2f3019a8c5aa863646ce1cd7aeefe5f8d55b27cca5f77112f898f6fe8cef4658fb1f927798609632efcc18bf0970f613dbc408617e6cff362b1f79f29620e89a1051477000000",
  "txid": "532b099643b7a2656880bd96b53e8f21a74cff0164bb01b50f28cf001133d593",
  "hash": "5e0194ddbbba453c2326f39a6381eb4d7b3f9be03d6c11ca7f87911a79e3e871",
  "size": 5085,
  "vsize": 2278,
  "version": 1,
  "locktime": 119,
  "vin": [
    {
      "txid": "417e1565d28fa4820e6ffca1df15a2d2765771098634901d8b6562536c02196a",
      "vout": 1,
      "scriptSig": {
        "asm": "",
        "hex": ""
      },
      "txinwitness": [
        "d08bac875859d6b22e489d4357c863a6405f717e1f51069284f6a854880479b8c43e8df5799a995397538bff0657e3d29923b495a4eeeef148c2bd9c27a961a19e10a654c1903be77b740294559414036a2a0484427be711233222f7dd4af4f9ccc07fddb89f952961d7a09bedaff9be1ddbf0d4062971dbd7a3c665b48ce6424e008ffefbb0bf6cf557d612cafe827c6abca5b2489deb1a2ab69517be9000e0cdf841d0e804e20ae5e9b5cc0f6fa55b7da30e107069161507079a69010192f384eeb00087fb1588a73c75b62b5eef64776739ab1fbe45506ece9a26d2d843bbbbf74d0c4599f8e3cc7a949a927fa41aa52a63a51f2ad5356d5f3ca9700072c47d3a0954de2b4c1bed337b277121cee4f1579975d9d23bf54c87c127c4ceb8ba87e18c3c9acd222160123c7e5a343430019fa9d17ab2cba0b672b24aec06d8b5b670d1e899d5329d5789d09434d991bb51f8f7c233af5657dd1361951b1dc88d7932c5eba8bcbd432ef12f7e58d7d2165d3ed2c3cc569f46d60861d4977d1c0beeda867b2c1f63c42d1120443a08be3f994e3323b81daf2d45332572efdbad71c3aa34aa538f93c52256d8c15fa161b1fc857457f6b48819b152bdfc4729bb7a6e52e12478722e374ef4d5a01568897bef41bc9d8828ae99e665c5ae8c3327b8935bbf04c9511cc0e1c97bdc6fe4f3763ed225d079b1537f8f51a266ea127b86010c725ba69108f006ed2cb738fb0d311b4853b971b8aa09a71447aacc4cd1a24d96816878d11eae81ced63f5bf29390be0750fc4901a8abcc90e5a1d5bbc3f32343b7b4b9ea2e31c1e7c186c2f17ebdac46f91c68a027c212ba098f72fa62858f715b65d01a457556ff8100463004268b00756b780056027153b8be6a8b64606d39099c95c5423700943a002a449419ed5220cb495a7ca817852f0fbef253b81fb3d33ebb912963ca2790b604173504ae05b69ae178e7d56e6e3959ed8dc52e0320a636edd1c69318bfe75afe165764fde8da184a7195e2e4406b3bc31b2f690a17ddaa5d9f0a7940ded8b3b4b78244807a98fced4e3f2c409c6dc0e550edd79a0af1546e8d7dc0aa12e287e31bae49e1e1e12217a0adc28a43c02e760b6434693e94ba7e78d5f05d5183ffa87b5af0e91566270b9dc815bae206f4f5fa6dd4b085687c06e29b19f72ed1c2e3d3fb57e5477d385d146fd7ee17c5e6dd5a5fd85bd765274e542f5c3c75c00626b4f69a2e39e9b1551e288d4415bd06cd2568bb38f6e8ad7a187910e28a45c0e8ce0c50e014d2a9c5d1568fbf6c2233c837e2e21fa89253f973e87eec7d9bff7f8526b632dae108d6167458d0c4e362437648895a4a9453cec6923cc1ef02de5f5e1c7a4a97e811ddbb586ce9c521e54b732eaded22089ceddf2499b51e2dacd117f7aa298494bcf62d28ab9d96a5a8c936ebe7dc8781b004dc53cd4a92064df4043bce4b3a9f3335cabc6bb544a880fc926c1705cbe5a337dd0af436bb438f6b27d37bf6413cf8f3c81e89f8657e586d67292e88cbc21bd9852725616ba5b4ad393ebba1e279493c14958f8e8563789df6f9aa7a1b623b354a8f569da65fb6a4e955d6e7649d3d3df907bc8525b14c0cd3eedbdd1153f5dc6a58840a6cf3aa1a72b55cc8b5db6252caf06172a2f6bbb7b900d1780671a3926a76cd728fb43f1e6aac009e7fd18e6881e1ce73cc5f4a3b8e7370a4afcfed41936be4cb7093289ee0a282b16ea33800cac11b3bf6e034643268736d7d477873236d002df6bfb6e84a48826ddb47d3684bf3017e9af3165da47bbb11b33bc13bdbd327de2eeb25c3d276948e9b1f15a5ba64adb9a2bb3a1549c3a253bcecab2200445bc7b1074d82d03339ce1b3b4ddf6c8ea24e55d962d0726344db10e26922d37e6c55b2d0105f39431cbbbf98e760fd32d3f32b5bfc1612bc3fc1531e3ae5415b2fe674cebc28a8365ad4634126f788be243f8583060b6f065c18de80ee792f6a330048639aa26c88f605201451e74b2d039c502a9f3461255c942bd5cadf624230f877fb5f0f761d167c2f898f9b44f6bd44a0d45a4aa28d1facb4c5a3d33021a24e65088fc9dea98ad501558d8f7afa3b8075acb939766ae3d4bc02d488fc7a09c12810515f22765183e217a2120cdf5b835bd15ee352cf3831e55e1ef3195ec9ee895b617064c41f0d41a2c4b2cb81cdcb58f82f7325d9d47222e96a3e34fd9befdfeaf12c406f3604ea34b36f459bb51e636853be934e621705694d8050553de74ffeedabf38b63bb7aee63551e15d16ba4a4fa3c6baac058d52412fd0f3be22e055b7fd6fbe7bb23b0e53ea0639f79eb6de56964e94fa700dbdf0fc6988fdc055a4590bd6739604ba647b02926d62107546bf124e1cfc8a1b9b46fb43ee2cd66e502863fbf495294618d29b63590dbdeff111df8b9004824f86bdb168af763a1d9d6894bf8c5c25e8f58fa7d6ab8138f7e6943cf01df6e20b843fedf70d79767164b082958a19e3dcc9f80907f9a9275a603eccdae7125070b838523d6b0a1b57b26b78376ccc37a8b12afe28e5000f308f6b16bffa97ebb4f930059df5fe9e33955ff07fbe3291c21dfebb65b5815482b9a668b137751bc0009e65837f82ac7047d9780c4511fb2d8f83a3b51b14a473cafe4c1509ee6de89f238efdf959c0c21c436324dce94a5ab05e775c20101cf8e28c05483f45a5bdf1521ce1d6f1cb1a5bd020e655237cf91dfe07546903dfdf78cf22ca45bd8d9b94fbfd7db6a5b70ea14b2b4db1c40926a2e94644c25835a86711a1c523a11a454c31ae16ffb5ad05787d1fbf039356984b067ad259b7aa48f37a66428494d23845e2e0d663489c6e5dfddea0cf967fa31cfdc5298b087b7d6b8154455415cef5f22aa9c4e34223e2be90f2e7bab35b2a610546834382fbed87a4902b339c57a5485f25077dbf75691d1ce6669c5efc6a5b8a834bfaaecbc2e8c613c120c40741b021a095a1feaa246d43684bb5b46ce0bddb42398b8ea1fdf3aaa5f6efafad4fe65176836bf12967e855b87bc59d102cd1259236f1ed95ec34d118f163d9909836e5215e9524861003d719738802cbd4a295a6050e3604179b555e04b3c97532a75e57520bf305710410b59f4f73881d643d8a51f5af8574da3339d021e0ac0aeb93a7b33790dfd5db2b7609c5d9b562590ab8ec118af0784ef24e9b36dee0b6655d25b3939af2e86433d17b87620f6a2d17ac44ab889a9fad289296d5346c43cfe54dd83fe5081c0b04b329d523ad6f7bdafccb9fc9ed1265294f5f21e9803375760787a858fa4a6baf8fd0e2e3a476498c6e7edfa020e1e20224683b4d8db04242d334aa6e1000000000000000000000000000000000000000000000000000000000000000000000000000000000d17212801",
        "00707f77d6ea653a3e60f8fa49872b2ef3e5e17733b6b8b3143b9f28e0dfd5fed9e3685dd8c97697a350904a04eb377392f0741096a3a7dd47f3d588fc22e66c39386f150b2609cf1bc0a57f8646672d567e555730384737a1b5be185443fd9ad7254119b7455c3677a5287df7d041b8befd56182022c3f752021abf7e48fcbf1cd3333dcd81da2f42eabeb6a743b7f8f1d0b5c2a916c8840f3d8e2ff3008eb517463b20880f275c882097be39d3c4a3e48d90f98a14f566eff200e6e4488af61526975736ef664c22b9d4611f4fdecc1f99090c754034bb01c39e63de4348b6f912ee2893d2aa2d01584813295ecb0acd74f51c146122eaace6ef227d7d9a3846b2ae6b330f7fdb352975d4af94bd831bb41010fb77fb66fba9437fdf1f179b90fc946a5d575082ad1fb241da99533a30f1a4fc9cc7d46ca8cc4fa8d83543e87e7bd809ca3ffa77ea63fe501218cbf763ce2fe3bd503c4adf6fdbbcf7efc2c1884cc47d78028a5391ca31a6485214747b733f8542ff10ff62c5425333f674f1720fd278620a9a5e15b87e520693514fe2b0e85a15618dd7817a956ae0c91e109a7f9eb6a6241821792d506a1ff219a8231b3ceba5f9f0ef15a8159bb2125c40cf622aef6e60e7dffef55e416ea31fa9f448dd3b6add9f629e486de95daa5edaae719f1f558c67ea84e0507b928e265c58c88ad9dd62fb300ec49957e8c2b5f6ed69b7bc2aa3cbfb49902bb03bb5f8d0ca9c303ec165087591cee19c708a6df8d00960c93269fa3ab4cd577f77df783de847c9d03b4a0abab5694a32f0a4903b7e934bd826eef1189747cea1f833bfec65bfcdcb356608faa8463d15508dd06c3490a2fb65774a8688e91b2713482495b1e825433d394f1a3050a485be1957f34afa8075b8e60e4ae3bc088cfd9109eb60949c34b74152b6fd40d02e09062bf514d930e2bc992d7100852a34d3f7896d5f6b1301cae92ed04182ab9ca5c4daa09a1d0d33e4c740db4a01aa6f384c342701d0b56296790f2b8c87f956b61fdaf7ae76ae6fb82cdbd3bdc4dd64e7d4b8a64b95246715a15d9e8a29ca73368559f4e19beda839fc0fd6d97b49a81bb02f125702a99e83410ac66d895a2c2f5a37c8526c00342e829e5742ef9435492f86b1fee9bd834c5192988dc1290d067c17a4f3b4bd313ebd4ac2c157d8fc7613d147f0eb06573a920e1421fc77ef4036e15f6b2cbf6495d5b25e6150e74b9f8844b0fa0cd01372d96c2095b32f16257a6942199716d7646b17bbdc8a50771d4122224c1f16b2b176544bfd98e2b4195502cd122583d0f8856ab0b815227260b38c43349f0a361f14edc867f17f719cb54d5e278e2eb94c69fa4424f61d8d82e78783474eeccf8f59c0ebb6f6298028081cc051af10146e4fc25bb53bafd8b4298879a736a5036625b4bdcff1aaecf7ba50ca485b16a12fd0de000e289d60b65a54362f8b1f42beabd99fa9efe359343d8b0f2835ee78c31c342bf90697659431150f87a5afff5c013fae980cf4e1c5312a64b0c827045ddec84787a2ecd3ad8d11682f8f225a2922ff232d531994ad6f756a5006cb8cfe5c547ea82ebca9ed443292944c204c4fa52ebb2ddeefbe0be0b095ff4317d929742c972f40115ddd350795cd3bd73be4f95a2a6562cf194bfe558ae57f354f7fea862d184b1e7d91bcf7cae3a9162285c452dd7278adf58d94c824bf6421b938ac9087ef4e01b5f33029615042aa473d1a118c339bcdd5c75fd2f3019a8c5aa863646ce1cd7aeefe5f8d55b27cca5f77112f898f6fe8cef4658fb1f927798609632efcc18bf0970f613dbc408617e6cff362b1f79f29620e89a10514"
      ],
      "sequence": 4294967294
    }
  ],
  "vout": [
    {
      "value": 499978.6451,
      "n": 0,
      "scriptPubKey": {
        "asm": "1 da9bcfd50ab70da2d067011b553000529348f24bcc4109b11a709a1d6ac8c8bb",
        "hex": "5120da9bcfd50ab70da2d067011b553000529348f24bcc4109b11a709a1d6ac8c8bb",
        "reqSigs": 1,
        "type": "witness_v1_scripthash",
        "addresses": [
          "3QJmnh"
        ]
      }
    },
    {
      "value": 1.0,
      "n": 1,
      "scriptPubKey": {
        "asm": "OP_RETURN ca035005fd72024ab1ed589625c1f49303e8250461fb19b356ad60ff304e860c b306150246459b05e074bc0ac66837f4684afab2b3cc012084d1fcbdfb321273932635226665bb25c0549c2ae64817d4486ada9293ec2100a4f1dc9ddb123253f34655420605db45a034fc4a862877b4280abaf2f38c4160c491bcfdbb725233d36675622625fb658014dc6aa6085794082a9ad2d3ac6140e4b19cdd9b52721333869582c6c51b8560f43c8a46e8b774e8ca7a32334c81a004517c3d7bb292f313a6b5a2e6e53ba540d41caa66c89754c8ea5a12136ca18024715c1d5b92b2d373c6d5c286855bc520b47cca06a8f734a88a3a72730cc1e044113c7d3bf2d2b353e6f5e2a6a57be500945cea2688d71488aa1a52532ce1c064311c5d1bd2f293b306150246459b05e074bc0ac66837f4684afab2b3cc012084d1fcbdfb321273932635226665bb25c0549c2ae64817d4486ada9293ec2100a4f1dc9ddb123253f34655420605db45a034fc4a862877b4280abaf2f38c4160c491bcfdbb725233d36675622625fb658014dc6aa6085794082a9ad2d3ac6140e4b19cdd9b52721333869582c6c51b8560f43c8a46e8b774e8ca7a32334c81a004517c3d7bb292f313a6b5a2e6e53ba540d41caa66c89754c8ea5a12136ca18024715c1d5b92b2d373c6d5c286855bc520b47cca06a8f734a88a3a72730cc1e044113c7d3bf2d2b353e6f5e2a6a57be500945cea2688d71488aa1a52532ce1c064311c5d1bd2f293b306150246459b05e074bc0ac66837f4684afab2b3cc012084d1fcbdfb321273932635226665bb25c0549c2ae64817d4486ada9293ec2100a4f1dc9ddb123253f34655420605db45a034fc4a862877b4280abaf2f38c4160c491bcfdbb725233d36675622625fb658014dc6aa6085794082a9ad2d3ac6140e4b19cdd9b52721333869582c6c51b8560f43c8a46e8b774e8ca7a32334c81a004517c3d7bb292f313a6b5a2e6e53ba540d41caa66c89754c8ea5a12136ca18024715c1d5b92b2d373c6d5c286855bc520b47cca06a8f734a88a3a72730cc1e044113c7d3bf2d2b353e6f5e2a6a57be500945cea2688d71488aa1a52532ce1c064311c5d1bd2f293b306150246459b05e074bc0ac66837f4684afab2b3cc012084d1fcbdfb321273932635226665bb25c0549c2ae64817d4486ada9293ec2100a4f1dc9ddb123253f34655420605db45a034fc4a862877b4280abaf2f38c4160c491bcfdbb725233d36675622625fb658014dc6aa6085794082a9ad2d3ac6140e4b19cdd9b52721333869582c6c51b8560f43c8a46e8b774e8ca7a32334c81a004517c3d7bb292f313a6b5a2e6e53ba540d41caa66c89754c8ea5a12136ca18024715c1d5b92b2d373c6d5c286855bc520b47cca06a8f734a88a3a72730cc1e044113c7d3bf2d2b353e6f5e2a6a57be500945cea2688d71488aa1a52532ce1c064311c5d1bd2f293b306150246459b05e074bc0ac66837f4684afab2b3cc012084d1fcbdfb321273932635226665bb25c0549c2ae64817d4486ada9293ec2100a4f1dc9ddb123253f34655420605db45a034fc4a862877b4280abaf2f38c4160c491bcfdbb725233d36675622625fb658014dc6aa6085794082a9ad2d3ac6140e4b19cdd9b52721333869582c6c51b8560f43c8a46e8b774eec3a56c7e924311bae826ed0a1d0303b4be7065929fcba50966c589f0766c89",
        "hex": "6a20ca035005fd72024ab1ed589625c1f49303e8250461fb19b356ad60ff304e860c4db004b306150246459b05e074bc0ac66837f4684afab2b3cc012084d1fcbdfb321273932635226665bb25c0549c2ae64817d4486ada9293ec2100a4f1dc9ddb123253f34655420605db45a034fc4a862877b4280abaf2f38c4160c491bcfdbb725233d36675622625fb658014dc6aa6085794082a9ad2d3ac6140e4b19cdd9b52721333869582c6c51b8560f43c8a46e8b774e8ca7a32334c81a004517c3d7bb292f313a6b5a2e6e53ba540d41caa66c89754c8ea5a12136ca18024715c1d5b92b2d373c6d5c286855bc520b47cca06a8f734a88a3a72730cc1e044113c7d3bf2d2b353e6f5e2a6a57be500945cea2688d71488aa1a52532ce1c064311c5d1bd2f293b306150246459b05e074bc0ac66837f4684afab2b3cc012084d1fcbdfb321273932635226665bb25c0549c2ae64817d4486ada9293ec2100a4f1dc9ddb123253f34655420605db45a034fc4a862877b4280abaf2f38c4160c491bcfdbb725233d36675622625fb658014dc6aa6085794082a9ad2d3ac6140e4b19cdd9b52721333869582c6c51b8560f43c8a46e8b774e8ca7a32334c81a004517c3d7bb292f313a6b5a2e6e53ba540d41caa66c89754c8ea5a12136ca18024715c1d5b92b2d373c6d5c286855bc520b47cca06a8f734a88a3a72730cc1e044113c7d3bf2d2b353e6f5e2a6a57be500945cea2688d71488aa1a52532ce1c064311c5d1bd2f293b306150246459b05e074bc0ac66837f4684afab2b3cc012084d1fcbdfb321273932635226665bb25c0549c2ae64817d4486ada9293ec2100a4f1dc9ddb123253f34655420605db45a034fc4a862877b4280abaf2f38c4160c491bcfdbb725233d36675622625fb658014dc6aa6085794082a9ad2d3ac6140e4b19cdd9b52721333869582c6c51b8560f43c8a46e8b774e8ca7a32334c81a004517c3d7bb292f313a6b5a2e6e53ba540d41caa66c89754c8ea5a12136ca18024715c1d5b92b2d373c6d5c286855bc520b47cca06a8f734a88a3a72730cc1e044113c7d3bf2d2b353e6f5e2a6a57be500945cea2688d71488aa1a52532ce1c064311c5d1bd2f293b306150246459b05e074bc0ac66837f4684afab2b3cc012084d1fcbdfb321273932635226665bb25c0549c2ae64817d4486ada9293ec2100a4f1dc9ddb123253f34655420605db45a034fc4a862877b4280abaf2f38c4160c491bcfdbb725233d36675622625fb658014dc6aa6085794082a9ad2d3ac6140e4b19cdd9b52721333869582c6c51b8560f43c8a46e8b774e8ca7a32334c81a004517c3d7bb292f313a6b5a2e6e53ba540d41caa66c89754c8ea5a12136ca18024715c1d5b92b2d373c6d5c286855bc520b47cca06a8f734a88a3a72730cc1e044113c7d3bf2d2b353e6f5e2a6a57be500945cea2688d71488aa1a52532ce1c064311c5d1bd2f293b306150246459b05e074bc0ac66837f4684afab2b3cc012084d1fcbdfb321273932635226665bb25c0549c2ae64817d4486ada9293ec2100a4f1dc9ddb123253f34655420605db45a034fc4a862877b4280abaf2f38c4160c491bcfdbb725233d36675622625fb658014dc6aa6085794082a9ad2d3ac6140e4b19cdd9b52721333869582c6c51b8560f43c8a46e8b774eec3a56c7e924311bae826ed0a1d0303b4be7065929fcba50966c589f0766c89",
        "type": "nulldata"
      }
    }
  ],
  "blockhash": "2c44072194b49e49486c87ae6b37abdd6c2c23e2c7b477f70371a1b5276080d1",
  "confirmations": 1,
  "time": 1764179865,
  "blocktime": 1764179865
}