{
  "hex": "01000000000101092804f1fa81a416d4eda06a5b8427a5d8bdc25889b0046b99dbfcf78bd661550000000000feffffff02a077e402792d0000225120ed29bbe8e18dd3cbaa33efeb1293ffd4d6eab2d04063ab42262b9a93c7ff49f500e1f50500000000fdd5046a20b467b64b459c2aecdcb7950cb1532733f18a1f0a7c9336e5254cff07439486554db004ab3265f2f839e20a1d5559c415c7b1f79027b3a92a0c1d89643dec7b674c432f8b1245d2d819c22a3d7579e435e791d7b00793890a2c3da9441dcc5b476c630feb7225b2b879a24a5d1519845587f1b7d067f3e96a4c5dc9247dac3b270c036fcb5205929859826a7d3539a475a7d197f047d3c94a6c7de9045d8c1b072c234f2bb2e57278b9628a9dd5d9449547317710a73329aa8c9d09e4bd6cfbe7ccc3af0b92c552589942aabdf5f964b5671157308713098aacbd29c49d4cdbc7ece38f6bf2a53238f922cadd959904d507713750e77369eaccdd49a4fd2cbba78c83ef4bd2851218d902eafdb5b924f527511770c75349caecfd6984dd0c9b87aca3cfab3265f2f839e20a1d5559c415c7b1f79027b3a92a0c1d89643dec7b674c432f8b1245d2d819c22a3d7579e435e791d7b00793890a2c3da9441dcc5b476c630feb7225b2b879a24a5d1519845587f1b7d067f3e96a4c5dc9247dac3b270c036fcb5205929859826a7d3539a475a7d197f047d3c94a6c7de9045d8c1b072c234f2bb2e57278b9628a9dd5d9449547317710a73329aa8c9d09e4bd6cfbe7ccc3af0b92c552589942aabdf5f964b5671157308713098aacbd29c49d4cdbc7ece38f6bf2a53238f922cadd959904d507713750e77369eaccdd49a4fd2cbba78c83ef4bd2851218d902eafdb5b924f527511770c75349caecfd6984dd0c9b87aca3cfab3265f2f839e20a1d5559c415c7b1f79027b3a92a0c1d89643dec7b674c432f8b1245d2d819c22a3d7579e435e791d7b00793890a2c3da9441dcc5b476c630feb7225b2b879a24a5d1519845587f1b7d067f3e96a4c5dc9247dac3b270c036fcb5205929859826a7d3539a475a7d197f047d3c94a6c7de9045d8c1b072c234f2bb2e57278b9628a9dd5d9449547317710a73329aa8c9d09e4bd6cfbe7ccc3af0b92c552589942aabdf5f964b5671157308713098aacbd29c49d4cdbc7ece38f6bf2a53238f922cadd959904d507713750e77369eaccdd49a4fd2cbba78c83ef4bd2851218d902eafdb5b924f527511770c75349caecfd6984dd0c9b87aca3cfab3265f2f839e20a1d5559c415c7b1f79027b3a92a0c1d89643dec7b674c432f8b1245d2d819c22a3d7579e435e791d7b00793890a2c3da9441dcc5b476c630feb7225b2b879a24a5d1519845587f1b7d067f3e96a4c5dc9247dac3b270c036fcb5205929859826a7d3539a475a7d197f047d3c94a6c7de9045d8c1b072c234f2bb2e57278b9628a9dd5d9449547317710a73329aa8c9d09e4bd6cfbe7ccc3af0b92c552589942aabdf5f964b5671157308713098aacbd29c49d4cdbc7ece38f6bf2a53238f922cadd959904d507713750e77369eaccdd49a4fd2cbba78c83ef4bd2851218d902eafdb5b924f527511770c75349caecfd6984dd0c9b87aca3cfab3265f2f839e20a1d5559c415c7b1f79027b3a92a0c1d89643dec7b674c432f8b1245d2d819c22a3d7579e435e791d7b00793890a2c3da9441dcc5b476c630feb7225b2b879a24a5d1519845587f1b7d067f3e96a4c5dc9247dac3b270c036fcb5205929859826a7d3539a475a7d197f047d3c94a6c7de9045d8c1b072c234f2bb2e57278b9628a9dd5d944954731771a8e4fce2513f190f9501b0fa7fb21ac71119e4fb66ef5953b93c0b6e2d175f602fd7509958f96dc020521c31d9fe4be8696af16d9923eb0d6b7a326a7a0d32dee8c3ace12eb90443b13ea5b868082f44924d9d415cc456e807226947ae52ad0bb2c1d8ba860d3bfcce9744ab71deb834106b3c98e4155693c2621e901cf44384e8db99ca4b47dc7c4869dfe5edfc0942e5330bbd4ec013de47f7849f58b72f270fcc10351c1cf030764b561106f3d120b7a684cb95c47391040bf5da2d3e58bb07f111b61c500188384812df072a8daa83e933b45554978b8ff537193d94333cb1bdbff6cb70019ed319f9eddfca132f171c031da1ed982ddeb0946c9aff4bc40a2945133e4ffd0d8f19cc7904a3d3e928e8e14b117243c84e3641a82dc4a98cf50234bc102bbe5c50a97fafa10f7427566fa806f51fd02a47854a011c38b340d5c981c2acef2e9e3f0d36c0b69d1d2c0c1e2a34d5cdbec540ee97d198799192be047f253f8aa0bf4f4adddfdd5d195ddca4f13e8722ed24c8d4d7dea18aa33e969934c689b372a067afd1ef03c5bd006fe4054cb9078e6cead3b1e717b8264b98896594a390312de56f07682d7cfcdda61bba27ab9cdfc11f61a4f5868c4ee58bee29c9e3d214015f0795e1e5e2fe3a9884459b3bf9620d35990dab9e2a877e577303af92bed0728dfaed9c87c815b0d8422d234257c14ed5cd4a36f0779221c585c0f3accdc5cb712033a3dc276be7777e5c646c6df327760e597500769adc2b7479b1473f797aae4ee913603552576ab6a05dce772da606437bb5a2ec41ca03cd0ac4b2a6604529101cf08b2f91d6286415b42394cc55a4577f76f6fb8a5decb350a35abf0630e54a5da9c2bb23dad0ef4aa065be5aab6d8419df30bc363185b83a40b9e24629d7937ffa06e549cb790b2796a2b7a54e3c7027229364de10c4e55d2105dfb3d3c19e33bb7a46d2c804cd4ad4a8d1ef9a9e0084cfdcffd3b99dfd6302e21cbdc32cb876ad9c18a049b555c7f4a0137eb92277e94e7c1395608fbdc07b88a32f9470fd46968b0374fbc5d946176ae23d24a46372d39eb751dba6ddf68cc2c8f8776ec46b416ee5f2e6e7263c1277cb178ec41a7790ea8cbbb69b6010e1644ec53b80d0f744f8bdaef6c9e8f3c7f8e3fd44139e3d03088aa444c03057db08417e248a15d951644f38bd4d49470969f6650325722c5a2c2803e3f38967116c5f55eb7232cfd94d4fdbc08dce2b07c83143de7b2eee0f71456ee7686beea1b1fba533fa5a27e79142e1ab41a769aa36d2f4217c828013da1bdd2a7c4e34c0097cb67c88222acf78a5ebf50e55827d3ee26edc9cc553abb3785ea7e67670988fe157425390dfadf7d7fe80a600773f623e1204425686681d3aade8f39a9a91bafd0b661f7813edd13f6d068caa8de8e4a0bc661e5a70d5b897aac1a980eb1029e0bb7dc64efc9e8b08d209fe0ffae08bb2fd554669d1fa2b25765b8c4de5f7f139658afc093e972086e0e71ef5d8d73befcd8a8b55de3ef34f311761b849b42a8160ed7669f25250c9cc8bfcb4eae898c1e77c95746182d2987b8ce402a2113e10cf5a7474dfa35ac63690053e1245c5d73e5c328aeb70ca3486b7e5e99d5e8702fb29bff2261610c317615857ac8fd4f72993def0d1233c8675f8ed550602dfc82e22141ab00e4b7e02b607f4e9d1b4e1d7402759f0d6683329bd0c535f485000bb7a03142db1f638508dd3fac9a4b4cbef5058efc8f6441e8447f55399ba058e04ae9c4816a69b890b4f83cca6aa5171e1e30b4c05fb1a51ae86c4a2d3ebdbdbe5ede65608e91fb58e4f0123112461a5b88f25fb430f11bb1e355aca6ed2eabadcb7514bc8af460524cc711d92e10735fd0eea40ff489285b77261a8574967eac5b71b1d6be876bcede0c180371aa295cf97997bfe52906f0f3c53baacf40e3a23a1d415c45e42ccf881329e6654a6379ca163a08c213abea5a91982b89ed3349764a379e695b863ee01d85a6ace5e13f3dab128b9a609a7a45db8dfa10f6d0d9811e9b57b50c0203aed862a0eba07019f30bfcbaf168115941b788dab3ce136e073ebc526d90f91cda833df7188824bb2c8c964b0d61bd91dbdad4ed11365b3916b5890b6cb7bb35a87dcc68a047d82bcb72902be4a96e88ce13a0a6a13fe8cd9be9927acdc373c163eb8266a5b9f242d5a7d47095c4135e964371985963feba0b9dac4f4ea0eb33261d2d20c9bc77fa227e322704008fd85d0d74f18fbcb9ec0d4a5d5e8903a2bf8020561ea3fb0b75b33d991b5b035613c210064c5f6ea0d61a39e9f8f3274d580a89bcaa699b0eb904d64c5f9868de9544f55917cfc7aba1618b3422835637fdc04e44dd3027cb1ba695074d9de45ab13acb2965633cde9f264f3e4876da0ba3e6a5102ddc3480770078356fe73a24646237b51058b64dfdbf2927ba39d15d051b055931c188cf57a9ec1d0e9b8cc912bb1f7dd246f3ed230dffac124d8fe5d802915d26e3518f84a62091f29e61a904734868780afb943942cf48aad4854647cc355e91f0d434061d8ab5643b37a173d7d73af9b5222df40670ae63d6961bba69d8bb41afa350c3d4124332cbf023c793a4af928aab269e214b40c70f03407072133fbd66ac4ee3dfd8f5ff7e8f1fbf9da9eddc5fc26e2bc02248e77e185f2c19ee199e8148785787819aa225e678ff12615305f35f24d3d55983a4d50fb9ce0117f082d48339c6293cbd01ccfef5c532764f8ea4c530d274b154553f3c5eb3b893ecb912f3f959fae9cca2244c0adc7f5a0249d852bcfb94339be717ce52a357f3e6253726d6075cae7880c1c9c1c7f510ba1bd86693773933abb21d0925f5b3e4a2400f5a8c57b841ca5cb1ea3d83713c3b10ef2449cc9aeb97eebe09271fec4197c1f3d51944a908d966f7301dfe75de32cbbeecceb7a76d39ad010d756cc5915bb29acd852626fb38ef535d8cc80e64773c2d8f16632e01ad06ddb67e13919008026b091b22ca9da419ddafeafb7301386e8e84c54932bfc6f9571a7a2c407aeb7c282449c0266f4fa27a93751fb8790401eb6826202b43a3852703eb550980d869cf627ddca6c67f81a21a004349df1cd2bd173ee9f81a0b2951640c0aa88adce195a3d974e39c38d8218493e9d1e9436281a236cd80dc5b7945f54b48392eb82c475b7f971805506d3ba6becc33a11f5f8f51445e0df3513840791016b628c09ab61dbb653f2108252203e05fa50d55a80ec3af64be76db20c63b51ad29da7e4ed3b83f1ea356c880d9beb6c02709b1d1a41a43b4c31b4bacf9dbeef4e594ffa4b952d89d19bbc47b40b1f1224a369ffb450f2d3e494f566a73777c8284898d9198a3bbc5c8cae6edf410142f353c3e404f508c99a4a8b6bbbee8ebecf1040d38494a61636f7b8898bf0204070c252a334a585cb0b4bcbfd6000000000000000000182c384701fd210500f1e9b5133d697b76fa73d1519162fa95b019d94e59806d0a2029f6292a18af77e18edd19c48df22e8f7a68476f297061ac06317e76637b78af8ba3725877f6997664ff8e04341c82623f8c64bb2bd445609531738a8206d4ff2e1e5036e33930c4b196a382f92470b63dc228948c03af79f2defd101bcce69889dc53825249b5129c653d31055d49a66c48cc1dfcd13ed97534a9b0632f3e3ee3c96cfc9f2e4a4241de56350085ca49fe21a006e241e9155d778a63fb55856cb8654be7a8d283b04d98ecc107fcc8eadc679967f5cab2a2d1f3681b39944efdfeaba1199dd5506a38c7d2a304adc90eb8e0c8e45baf3e1f8c6bf6dbaeed4dff9e1694c739da86ef133f75f23d8ac1abf518659d72ff2b6986a72f8ed8fd0d53d3e559c3b1cef1fb889929e96b6c5fb600a632e951507bc86edd00b50697001138134d55f0ad7dff69f1c4645598f4704a16713cf9b1b2af711b8594b8c296495bdde866e101c5386649e0d0e28c0f91a0a1cfb4c322c046a854841b9f00c26214ae5f8b6ccefbe2fe49db671be67042bdf09aa5422cbd833a0e72cc59882c1f618ba4103ccb5be00225e02da6a6a22e398c23e49b92c44746a2364f4a11fadcb7614bd31f2408f7880de686fb77fb6f49375d00e75ccd23b4a91374535bbaac9bda50efc4b93954edee5a809a322e46e7a9cf18a57245beb04464fdcb18dacca7ed947a1e0061de8be874adde4e43e39c22a58cc8f904746e9455fb24cae13992d31cae4b084de3074e0be030d62a43db78ac28c25b84966a07e0896ae097cfeb7b52a8e3cb0a6c4e2a9dc09df298bcfdcf9d05e739d655a83c0e202b554b30a798c617c29be60af180506b1d14f013900ef62c3441a47f0a3543a52d4bfd7fd15aaa5f096ab355b98fa38583496094f8d5a23ddc867ceb55cd747baae1fcb82c4949f68fb16190cdabf2058c48a4035eca6f84988e42221156399816135ca3d4f83575b10aae07bdd1afe0c3019e9c631b4ad29545c4ca5784f9723a512e097b2667371f49e7f656278f4437e5b60464a0a20eca85d84b0685acac8a0c0aa74a9e4857c0f2ac33300aef99a533671ea00289a545e7e1d8607c0c4063638aaa1509b56b6039370a3ddfceceb6e70a04759b1169ba8d14ad98acb19fab3ab5750819a205decb39a002b9b0701470468c66b1f7e36e0c450b8474b82277ba7c1e7b4996e367642df8ea35d7fdcb8fc7248a835c8fe9b6fa0236b561e4be51e6364345b20f26113f066ce0f23eae9d0fe8083507068ad11f4f4d2f0c943f861bfec4111581b59bdba4615cdfd7def1e8733bdeda51eb6d261874508d7fce20baee12061a4bcb5164069a295df910cf5100c9daf8b94242b8fa4ea5df301d2cb1e665e55e3394197f1689e3283b7671477adfc20cbf10c97b7f996202ffe687d10b106898004e237ab7c100616e4c2247ca01e65f1a43e76b751cbf869c90f950115fb358ebf733204885b9209595854230ef8a91c236e074d6b0c33b7149cc6f4437b9d995a854f6a93e80649fef350a5397ba64407892d5ccdee456c2e2d06e8030bcf6ae3ab8852f68155df020b44f3eb1d4b734c1450b591a2c5cc1d70dcc43e206db8067416bb2a1246c249cca20016a171338f64eb9a9989ce9950b6e82f5aa51396ebb3434b4c5b9edf2bb605ca2b6c234914a45d70e32161a42477a9879964fcb94df77f3a93b06550851b9afde5cbc2ddb9bf0514f2fc95b2c257b9784d6500e4ad48418f479691c8e7c744699493e961f4e7aa739e4fbbf28fe793827190d365dd4c174a9ae50bbdfacd6f60d70e1ae5c93d090364a00ca4968d7ffb10a300dd62ba38e25000000",
  "txid": "6e771df38a0f96ae7bcaa80eec22676b1876ca12184cf9f2a2f486f8e04f53e0",
  "hash": "8f2d0171ec2608f6013722e24b1b12ce44be3d193f9f7a4f4bdf2fbf2733d170",
  "size": 5085,
  "vsize": 2278,
  "version": 1,
  "locktime": 37,
  "vin": [
    {
      "txid": "5561d68bf7fcdb996b04b08958c2bdd8a527845b6aa0edd416a481faf1042809",
      "vout": 0,
      "scriptSig": {
        "asm": "",
        "hex": ""
      },
      "txinwitness": [
        "958f96dc020521c31d9fe4be8696af16d9923eb0d6b7a326a7a0d32dee8c3ace12eb90443b13ea5b868082f44924d9d415cc456e807226947ae52ad0bb2c1d8ba860d3bfcce9744ab71deb834106b3c98e4155693c2621e901cf44384e8db99ca4b47dc7c4869dfe5edfc0942e5330bbd4ec013de47f7849f58b72f270fcc10351c1cf030764b561106f3d120b7a684cb95c47391040bf5da2d3e58bb07f111b61c500188384812df072a8daa83e933b45554978b8ff537193d94333cb1bdbff6cb70019ed319f9eddfca132f171c031da1ed982ddeb0946c9aff4bc40a2945133e4ffd0d8f19cc7904a3d3e928e8e14b117243c84e3641a82dc4a98cf50234bc102bbe5c50a97fafa10f7427566fa806f51fd02a47854a011c38b340d5c981c2acef2e9e3f0d36c0b69d1d2c0c1e2a34d5cdbec540ee97d198799192be047f253f8aa0bf4f4adddfdd5d195ddca4f13e8722ed24c8d4d7dea18aa33e969934c689b372a067afd1ef03c5bd006fe4054cb9078e6cead3b1e717b8264b98896594a390312de56f07682d7cfcdda61bba27ab9cdfc11f61a4f5868c4ee58bee29c9e3d214015f0795e1e5e2fe3a9884459b3bf9620d35990dab9e2a877e577303af92bed0728dfaed9c87c815b0d8422d234257c14ed5cd4a36f0779221c585c0f3accdc5cb712033a3dc276be7777e5c646c6df327760e597500769adc2b7479b1473f797aae4ee913603552576ab6a05dce772da606437bb5a2ec41ca03cd0ac4b2a6604529101cf08b2f91d6286415b42394cc55a4577f76f6fb8a5decb350a35abf0630e54a5da9c2bb23dad0ef4aa065be5aab6d8419df30bc363185b83a40b9e24629d7937ffa06e549cb790b2796a2b7a54e3c7027229364de10c4e55d2105dfb3d3c19e33bb7a46d2c804cd4ad4a8d1ef9a9e0084cfdcffd3b99dfd6302e21cbdc32cb876ad9c18a049b555c7f4a0137eb92277e94e7c1395608fbdc07b88a32f9470fd46968b0374fbc5d946176ae23d24a46372d39eb751dba6ddf68cc2c8f8776ec46b416ee5f2e6e7263c1277cb178ec41a7790ea8cbbb69b6010e1644ec53b80d0f744f8bdaef6c9e8f3c7f8e3fd44139e3d03088aa444c03057db08417e248a15d951644f38bd4d49470969f6650325722c5a2c2803e3f38967116c5f55eb7232cfd94d4fdbc08dce2b07c83143de7b2eee0f71456ee7686beea1b1fba533fa5a27e79142e1ab41a769aa36d2f4217c828013da1bdd2a7c4e34c0097cb67c88222acf78a5ebf50e55827d3ee26edc9cc553abb3785ea7e67670988fe157425390dfadf7d7fe80a600773f623e1204425686681d3aade8f39a9a91bafd0b661f7813edd13f6d068caa8de8e4a0bc661e5a70d5b897aac1a980eb1029e0bb7dc64efc9e8b08d209fe0ffae08bb2fd554669d1fa2b25765b8c4de5f7f139658afc093e972086e0e71ef5d8d73befcd8a8b55de3ef34f311761b849b42a8160ed7669f25250c9cc8bfcb4eae898c1e77c95746182d2987b8ce402a2113e10cf5a7474dfa35ac63690053e1245c5d73e5c328aeb70ca3486b7e5e99d5e8702fb29bff2261610c317615857ac8fd4f72993def0d1233c8675f8ed550602dfc82e22141ab00e4b7e02b607f4e9d1b4e1d7402759f0d6683329bd0c535f485000bb7a03142db1f638508dd3fac9a4b4cbef5058efc8f6441e8447f55399ba058e04ae9c4816a69b890b4f83cca6aa5171e1e30b4c05fb1a51ae86c4a2d3ebdbdbe5ede65608e91fb58e4f0123112461a5b88f25fb430f11bb1e355aca6ed2eabadcb7514bc8af460524cc711d92e10735fd0eea40ff489285b77261a8574967eac5b71b1d6be876bcede0c180371aa295cf97997bfe52906f0f3c53baacf40e3a23a1d415c45e42ccf881329e6654a6379ca163a08c213abea5a91982b89ed3349764a379e695b863ee01d85a6ace5e13f3dab128b9a609a7a45db8dfa10f6d0d9811e9b57b50c0203aed862a0eba07019f30bfcbaf168115941b788dab3ce136e073ebc526d90f91cda833df7188824bb2c8c964b0d61bd91dbdad4ed11365b3916b5890b6cb7bb35a87dcc68a047d82bcb72902be4a96e88ce13a0a6a13fe8cd9be9927acdc373c163eb8266a5b9f242d5a7d47095c4135e964371985963feba0b9dac4f4ea0eb33261d2d20c9bc77fa227e322704008fd85d0d74f18fbcb9ec0d4a5d5e8903a2bf8020561ea3fb0b75b33d991b5b035613c210064c5f6ea0d61a39e9f8f3274d580a89bcaa699b0eb904d64c5f9868de9544f55917cfc7aba1618b3422835637fdc04e44dd3027cb1ba695074d9de45ab13acb2965633cde9f264f3e4876da0ba3e6a5102ddc3480770078356fe73a24646237b51058b64dfdbf2927ba39d15d051b055931c188cf57a9ec1d0e9b8cc912bb1f7dd246f3ed230dffac124d8fe5d802915d26e3518f84a62091f29e61a904734868780afb943942cf48aad4854647cc355e91f0d434061d8ab5643b37a173d7d73af9b5222df40670ae63d6961bba69d8bb41afa350c3d4124332cbf023c793a4af928aab269e214b40c70f03407072133fbd66ac4ee3dfd8f5ff7e8f1fbf9da9eddc5fc26e2bc02248e77e185f2c19ee199e8148785787819aa225e678ff12615305f35f24d3d55983a4d50fb9ce0117f082d48339c6293cbd01ccfef5c532764f8ea4c530d274b154553f3c5eb3b893ecb912f3f959fae9cca2244c0adc7f5a0249d852bcfb94339be717ce52a357f3e6253726d6075cae7880c1c9c1c7f510ba1bd86693773933abb21d0925f5b3e4a2400f5a8c57b841ca5cb1ea3d83713c3b10ef2449cc9aeb97eebe09271fec4197c1f3d51944a908d966f7301dfe75de32cbbeecceb7a76d39ad010d756cc5915bb29acd852626fb38ef535d8cc80e64773c2d8f16632e01ad06ddb67e13919008026b091b22ca9da419ddafeafb7301386e8e84c54932bfc6f9571a7a2c407aeb7c282449c0266f4fa27a93751fb8790401eb6826202b43a3852703eb550980d869cf627ddca6c67f81a21a004349df1cd2bd173ee9f81a0b2951640c0aa88adce195a3d974e39c38d8218493e9d1e9436281a236cd80dc5b7945f54b48392eb82c475b7f971805506d3ba6becc33a11f5f8f51445e0df3513840791016b628c09ab61dbb653f2108252203e05fa50d55a80ec3af64be76db20c63b51ad29da7e4ed3b83f1ea356c880d9beb6c02709b1d1a41a43b4c31b4bacf9dbeef4e594ffa4b952d89d19bbc47b40b1f1224a369ffb450f2d3e494f566a73777c8284898d9198a3bbc5c8cae6edf410142f353c3e404f508c99a4a8b6bbbee8ebecf1040d38494a61636f7b8898bf0204070c252a334a585cb0b4bcbfd6000000000000000000182c384701",
        "00f1e9b5133d697b76fa73d1519162fa95b019d94e59806d0a2029f6292a18af77e18edd19c48df22e8f7a68476f297061ac06317e76637b78af8ba3725877f6997664ff8e04341c82623f8c64bb2bd445609531738a8206d4ff2e1e5036e33930c4b196a382f92470b63dc228948c03af79f2defd101bcce69889dc53825249b5129c653d31055d49a66c48cc1dfcd13ed97534a9b0632f3e3ee3c96cfc9f2e4a4241de56350085ca49fe21a006e241e9155d778a63fb55856cb8654be7a8d283b04d98ecc107fcc8eadc679967f5cab2a2d1f3681b39944efdfeaba1199dd5506a38c7d2a304adc90eb8e0c8e45baf3e1f8c6bf6dbaeed4dff9e1694c739da86ef133f75f23d8ac1abf518659d72ff2b6986a72f8ed8fd0d53d3e559c3b1cef1fb889929e96b6c5fb600a632e951507bc86edd00b50697001138134d55f0ad7dff69f1c4645598f4704a16713cf9b1b2af711b8594b8c296495bdde866e101c5386649e0d0e28c0f91a0a1cfb4c322c046a854841b9f00c26214ae5f8b6ccefbe2fe49db671be67042bdf09aa5422cbd833a0e72cc59882c1f618ba4103ccb5be00225e02da6a6a22e398c23e49b92c44746a2364f4a11fadcb7614bd31f2408f7880de686fb77fb6f49375d00e75ccd23b4a91374535bbaac9bda50efc4b93954edee5a809a322e46e7a9cf18a57245beb04464fdcb18dacca7ed947a1e0061de8be874adde4e43e39c22a58cc8f904746e9455fb24cae13992d31cae4b084de3074e0be030d62a43db78ac28c25b84966a07e0896ae097cfeb7b52a8e3cb0a6c4e2a9dc09df298bcfdcf9d05e739d655a83c0e202b554b30a798c617c29be60af180506b1d14f013900ef62c3441a47f0a3543a52d4bfd7fd15aaa5f096ab355b98fa38583496094f8d5a23ddc867ceb55cd747baae1fcb82c4949f68fb16190cdabf2058c48a4035eca6f84988e42221156399816135ca3d4f83575b10aae07bdd1afe0c3019e9c631b4ad29545c4ca5784f9723a512e097b2667371f49e7f656278f4437e5b60464a0a20eca85d84b0685acac8a0c0aa74a9e4857c0f2ac33300aef99a533671ea00289a545e7e1d8607c0c4063638aaa1509b56b6039370a3ddfceceb6e70a04759b1169ba8d14ad98acb19fab3ab5750819a205decb39a002b9b0701470468c66b1f7e36e0c450b8474b82277ba7c1e7b4996e367642df8ea35d7fdcb8fc7248a835c8fe9b6fa0236b561e4be51e6364345b20f26113f066ce0f23eae9d0fe8083507068ad11f4f4d2f0c943f861bfec4111581b59bdba4615cdfd7def1e8733bdeda51eb6d261874508d7fce20baee12061a4bcb5164069a295df910cf5100c9daf8b94242b8fa4ea5df301d2cb1e665e55e3394197f1689e3283b7671477adfc20cbf10c97b7f996202ffe687d10b106898004e237ab7c100616e4c2247ca01e65f1a43e76b751cbf869c90f950115fb358ebf733204885b9209595854230ef8a91c236e074d6b0c33b7149cc6f4437b9d995a854f6a93e80649fef350a5397ba64407892d5ccdee456c2e2d06e8030bcf6ae3ab8852f68155df020b44f3eb1d4b734c1450b591a2c5cc1d70dcc43e206db8067416bb2a1246c249cca20016a171338f64eb9a9989ce9950b6e82f5aa51396ebb3434b4c5b9edf2bb605ca2b6c234914a45d70e32161a42477a9879964fcb94df77f3a93b06550851b9afde5cbc2ddb9bf0514f2fc95b2c257b9784d6500e4ad48418f479691c8e7c744699493e961f4e7aa739e4fbbf28fe793827190d365dd4c174a9ae50bbdfacd6f60d70e1ae5c93d090364a00ca4968d7ffb10a300dd62ba38e"
      ],
      "sequence": 4294967294
    }
  ],
  "vout": [
    {
      "value": 499977.6282,
      "n": 0,
      "scriptPubKey": {
        "asm": "1 ed29bbe8e18dd3cbaa33efeb1293ffd4d6eab2d04063ab42262b9a93c7ff49f5",
        "hex": "5120ed29bbe8e18dd3cbaa33efeb1293ffd4d6eab2d04063ab42262b9a93c7ff49f5",
        "reqSigs": 1,
        "type": "witness_v1_scripthash",
        "addresses": [
          "3QJmnh"
        ]
      }
    },
    {
      "value": 1.0,
      "n": 1,
      "scriptPubKey": {
        "asm": "OP_RETURN b467b64b459c2aecdcb7950cb1532733f18a1f0a7c9336e5254cff0743948655 ab3265f2f839e20a1d5559c415c7b1f79027b3a92a0c1d89643dec7b674c432f8b1245d2d819c22a3d7579e435e791d7b00793890a2c3da9441dcc5b476c630feb7225b2b879a24a5d1519845587f1b7d067f3e96a4c5dc9247dac3b270c036fcb5205929859826a7d3539a475a7d197f047d3c94a6c7de9045d8c1b072c234f2bb2e57278b9628a9dd5d9449547317710a73329aa8c9d09e4bd6cfbe7ccc3af0b92c552589942aabdf5f964b5671157308713098aacbd29c49d4cdbc7ece38f6bf2a53238f922cadd959904d507713750e77369eaccdd49a4fd2cbba78c83ef4bd2851218d902eafdb5b924f527511770c75349caecfd6984dd0c9b87aca3cfab3265f2f839e20a1d5559c415c7b1f79027b3a92a0c1d89643dec7b674c432f8b1245d2d819c22a3d7579e435e791d7b00793890a2c3da9441dcc5b476c630feb7225b2b879a24a5d1519845587f1b7d067f3e96a4c5dc9247dac3b270c036fcb5205929859826a7d3539a475a7d197f047d3c94a6c7de9045d8c1b072c234f2bb2e57278b9628a9dd5d9449547317710a73329aa8c9d09e4bd6cfbe7ccc3af0b92c552589942aabdf5f964b5671157308713098aacbd29c49d4cdbc7ece38f6bf2a53238f922cadd959904d507713750e77369eaccdd49a4fd2cbba78c83ef4bd2851218d902eafdb5b924f527511770c75349caecfd6984dd0c9b87aca3cfab3265f2f839e20a1d5559c415c7b1f79027b3a92a0c1d89643dec7b674c432f8b1245d2d819c22a3d7579e435e791d7b00793890a2c3da9441dcc5b476c630feb7225b2b879a24a5d1519845587f1b7d067f3e96a4c5dc9247dac3b270c036fcb5205929859826a7d3539a475a7d197f047d3c94a6c7de9045d8c1b072c234f2bb2e57278b9628a9dd5d9449547317710a73329aa8c9d09e4bd6cfbe7ccc3af0b92c552589942aabdf5f964b5671157308713098aacbd29c49d4cdbc7ece38f6bf2a53238f922cadd959904d507713750e77369eaccdd49a4fd2cbba78c83ef4bd2851218d902eafdb5b924f527511770c75349caecfd6984dd0c9b87aca3cfab3265f2f839e20a1d5559c415c7b1f79027b3a92a0c1d89643dec7b674c432f8b1245d2d819c22a3d7579e435e791d7b00793890a2c3da9441dcc5b476c630feb7225b2b879a24a5d1519845587f1b7d067f3e96a4c5dc9247dac3b270c036fcb5205929859826a7d3539a475a7d197f047d3c94a6c7de9045d8c1b072c234f2bb2e57278b9628a9dd5d9449547317710a73329aa8c9d09e4bd6cfbe7ccc3af0b92c552589942aabdf5f964b5671157308713098aacbd29c49d4cdbc7ece38f6bf2a53238f922cadd959904d507713750e77369eaccdd49a4fd2cbba78c83ef4bd2851218d902eafdb5b924f527511770c75349caecfd6984dd0c9b87aca3cfab3265f2f839e20a1d5559c415c7b1f79027b3a92a0c1d89643dec7b674c432f8b1245d2d819c22a3d7579e435e791d7b00793890a2c3da9441dcc5b476c630feb7225b2b879a24a5d1519845587f1b7d067f3e96a4c5dc9247dac3b270c036fcb5205929859826a7d3539a475a7d197f047d3c94a6c7de9045d8c1b072c234f2bb2e57278b9628a9dd5d944954731771a8e4fce2513f190f9501b0fa7fb21ac71119e4fb66ef5953b93c0b6e2d175f6",
        "hex": "6a20b467b64b459c2aecdcb7950cb1532733f18a1f0a7c9336e5254cff07439486554db004ab3265f2f839e20a1d5559c415c7b1f79027b3a92a0c1d89643dec7b674c432f8b1245d2d819c22a3d7579e435e791d7b00793890a2c3da9441dcc5b476c630feb7225b2b879a24a5d1519845587f1b7d067f3e96a4c5dc9247dac3b270c036fcb5205929859826a7d3539a475a7d197f047d3c94a6c7de9045d8c1b072c234f2bb2e57278b9628a9dd5d9449547317710a73329aa8c9d09e4bd6cfbe7ccc3af0b92c552589942aabdf5f964b5671157308713098aacbd29c49d4cdbc7ece38f6bf2a53238f922cadd959904d507713750e77369eaccdd49a4fd2cbba78c83ef4bd2851218d902eafdb5b924f527511770c75349caecfd6984dd0c9b87aca3cfab3265f2f839e20a1d5559c415c7b1f79027b3a92a0c1d89643dec7b674c432f8b1245d2d819c22a3d7579e435e791d7b00793890a2c3da9441dcc5b476c630feb7225b2b879a24a5d1519845587f1b7d067f3e96a4c5dc9247dac3b270c036fcb5205929859826a7d3539a475a7d197f047d3c94a6c7de9045d8c1b072c234f2bb2e57278b9628a9dd5d9449547317710a73329aa8c9d09e4bd6cfbe7ccc3af0b92c552589942aabdf5f964b5671157308713098aacbd29c49d4cdbc7ece38f6bf2a53238f922cadd959904d507713750e77369eaccdd49a4fd2cbba78c83ef4bd2851218d902eafdb5b924f527511770c75349caecfd6984dd0c9b87aca3cfab3265f2f839e20a1d5559c415c7b1f79027b3a92a0c1d89643dec7b674c432f8b1245d2d819c22a3d7579e435e791d7b00793890a2c3da9441dcc5b476c630feb7225b2b879a24a5d1519845587f1b7d067f3e96a4c5dc9247dac3b270c036fcb5205929859826a7d3539a475a7d197f047d3c94a6c7de9045d8c1b072c234f2bb2e57278b9628a9dd5d9449547317710a73329aa8c9d09e4bd6cfbe7ccc3af0b92c552589942aabdf5f964b5671157308713098aacbd29c49d4cdbc7ece38f6bf2a53238f922cadd959904d507713750e77369eaccdd49a4fd2cbba78c83ef4bd2851218d902eafdb5b924f527511770c75349caecfd6984dd0c9b87aca3cfab3265f2f839e20a1d5559c415c7b1f79027b3a92a0c1d89643dec7b674c432f8b1245d2d819c22a3d7579e435e791d7b00793890a2c3da9441dcc5b476c630feb7225b2b879a24a5d1519845587f1b7d067f3e96a4c5dc9247dac3b270c036fcb5205929859826a7d3539a475a7d197f047d3c94a6c7de9045d8c1b072c234f2bb2e57278b9628a9dd5d9449547317710a73329aa8c9d09e4bd6cfbe7ccc3af0b92c552589942aabdf5f964b5671157308713098aacbd29c49d4cdbc7ece38f6bf2a53238f922cadd959904d507713750e77369eaccdd49a4fd2cbba78c83ef4bd2851218d902eafdb5b924f527511770c75349caecfd6984dd0c9b87aca3cfab3265f2f839e20a1d5559c415c7b1f79027b3a92a0c1d89643dec7b674c432f8b1245d2d819c22a3d7579e435e791d7b00793890a2c3da9441dcc5b476c630feb7225b2b879a24a5d1519845587f1b7d067f3e96a4c5dc9247dac3b270c036fcb5205929859826a7d3539a475a7d197f047d3c94a6c7de9045d8c1b072c234f2bb2e57278b9628a9dd5d944954731771a8e4fce2513f190f9501b0fa7fb21ac71119e4fb66ef5953b93c0b6e2d175f6",
        "type": "nulldata"
      }
    }
  ],
  "blockhash": "0125d69e6984563ac74cb1b0b8601a67b424e71230e7918fa710584dbb11162a",
  "confirmations": 1,
  "time": 1764180090,
  "blocktime": 1764180090
}