{
  "hex": "010000000001018dae11a210167ece418fcdfd054aac5a0d94f94cf29d28881456a8eec7fe7c8c0000000000feffffff02e021231b792d0000225120f73870f9f5d9d7350a5e9c477f3c74a16c44e54f8fa6d3006cd030d753dfd9d700e1f50500000000fdd5046a20e6b12a81448ad38effec1c36590580346efea84da796769f7d513e85ff0bf1244db0045c4042f827b72778c3771274647ae4de3f66f74ef59c34710704d71824df18af7c6062d807970758e3573254445ac4fe1f46d76ed5bc14512724f73804ff388f1c0002b867f7673883375234243aa49e7f26b70eb5dc743147449758649f58ef3c20229847d74718a3177214041a84be5f06972e95fc54116764b77844bf78cfdcc0c278a737a7f843f792f4e4fa645ebfe677ce751cb4f187845798a45f982ffce0e258871787d863d7b2d4c4da447e9fc657ee553c94d1a7a477b8847fb80f9c808238e777e7b803b7d2b4a4ba241effa6378e355cf4b1c7c417d8e41fd86fbca0a218c757c7982397f294849a043edf8617ae157cd491e7e437f8c43ff84f5c4042f827b72778c3771274647ae4de3f66f74ef59c34710704d71824df18af7c6062d807970758e3573254445ac4fe1f46d76ed5bc14512724f73804ff388f1c0002b867f7673883375234243aa49e7f26b70eb5dc743147449758649f58ef3c20229847d74718a3177214041a84be5f06972e95fc54116764b77844bf78cfdcc0c278a737a7f843f792f4e4fa645ebfe677ce751cb4f187845798a45f982ffce0e258871787d863d7b2d4c4da447e9fc657ee553c94d1a7a477b8847fb80f9c808238e777e7b803b7d2b4a4ba241effa6378e355cf4b1c7c417d8e41fd86fbca0a218c757c7982397f294849a043edf8617ae157cd491e7e437f8c43ff84f5c4042f827b72778c3771274647ae4de3f66f74ef59c34710704d71824df18af7c6062d807970758e3573254445ac4fe1f46d76ed5bc14512724f73804ff388f1c0002b867f7673883375234243aa49e7f26b70eb5dc743147449758649f58ef3c20229847d74718a3177214041a84be5f06972e95fc54116764b77844bf78cfdcc0c278a737a7f843f792f4e4fa645ebfe677ce751cb4f187845798a45f982ffce0e258871787d863d7b2d4c4da447e9fc657ee553c94d1a7a477b8847fb80f9c808238e777e7b803b7d2b4a4ba241effa6378e355cf4b1c7c417d8e41fd86fbca0a218c757c7982397f294849a043edf8617ae157cd491e7e437f8c43ff84f5c4042f827b72778c3771274647ae4de3f66f74ef59c34710704d71824df18af7c6062d807970758e3573254445ac4fe1f46d76ed5bc14512724f73804ff388f1c0002b867f7673883375234243aa49e7f26b70eb5dc743147449758649f58ef3c20229847d74718a3177214041a84be5f06972e95fc54116764b77844bf78cfdcc0c278a737a7f843f792f4e4fa645ebfe677ce751cb4f187845798a45f982ffce0e258871787d863d7b2d4c4da447e9fc657ee553c94d1a7a477b8847fb80f9c808238e777e7b803b7d2b4a4ba241effa6378e355cf4b1c7c417d8e41fd86fbca0a218c757c7982397f294849a043edf8617ae157cd491e7e437f8c43ff84f5c4042f827b72778c3771274647ae4de3f66f74ef59c34710704d71824df18af7c6062d807970758e3573254445ac4fe1f46d76ed5bc14512724f73804ff388f1c0002b867f7673883375234243aa49e7f26b70eb5dc743147449758649f58ef3c20229847d74718a3177214041a84be5f06972e95fc54116764b77844bf78cfdcc0c278a737a7f843f792f4e4fa645ebfeff99555be3ceb63f66d43af49b8726db32a95cf17c486d0db19eb35467f4602fd750914be3cc7c0f0beec173c6ed2bce0243874850d0e0d7b5bc728e0e4df611a43046acb4e1e321af9640958ed752919ca424fb55298614c8d3bd521189815c60c53a9b2b4588fa70ab62a129c9578ecd90c6cc0b374444cbf424f21415db5d35734b25da2ad7abf3ecf52969018eff9da587a8bd339e5b45cbba5930b44c63a0c619ef35c6ba455a497da9c0b2bcfad89a14359cacdb732cbc7ca798ad234fde3cba4fd2b9e4c8dcea95ad473f97179e600391dfffcaa5b9d70f9e3aa5dfab7a316e5345288c1bfa1627d6d4edcbdeac9397bc1ae117dad32b89b3b957ce9605ad95ab305049eb7adf46e6b86d423abf3e95c68cf04131d2978e12a133a8898120338743fbac073637ee0a28f63d1959813d37bd3c7cefe7f8901655f609c3872d75a82fc9bd4c74e9dfb13d51d7df305bac8064c90dd3b5f9ca851c4f385f92a124a0a9919cc08e9e2c2d1f310113ec9499e529698347f5a85a84d98181939009431ce4f8b30264ee35b8b0bb7ed46451d0d52e5233de228e2bbb146abd5f98cb5d884dac908752535dffc88e93cb5bb6a70c3cd8e9561c25bcb338df5cd66899589366b6c8bab018cc85923cf3fc8ed509b11c44c675da56dbee76fc3087fcbb7eac248343db310ef58a568525ac57df97c4033fb278694ee58265207f4e8bde88d73a2ef401460717ebfaa6bbb26416e0a533fd88116a5ff2da74b8530fd782f16c69a472a08e275e0feda544bbbabe0c282214eb034e91bd9dc03ea7165ff76c72ba17d9a4db37c5a75066af91396e6ded0014d9b09803195c0424f088f8c80e7dcc3c32b3b1e24ad6f71d6ede096dda4c8fc3f66db73e4fbf38d29a8414b31f89a88aae27bd90df8eb904dde390092914c745860ea41dbc5bad6d6018c16c86ccc7303970be615357ae66d52c8dfbfb0c0b37416f77f9fc1a3220472a11079dd9aa5de932e68ec93f1af287f0a065928deaf8628726aa96d04850bcbd197a9292b1d205f7d407bc10235931055a39d3171cdbd9936050939f0dd19b9a8f47c7953266384c1c486f4f0b81ac67af2056124e24a4139e6474b6b15ccbe25018ace509e61275383b80eea621d9eb0fbfb1400e28e83c6e5af7e89141c8971fbc5138cfb1bb2288b1be16e899a259deb63605e58846d9d320c5cc821b29322965add001e429310afae1dca827b595b5c9c1a3ff74f58b7d0b41b9cadd0f4b94c97c691433566187fdbeed15910ad7db883084cc516266d1a0d117db5e7ecea02c1eb954a02cd7aaf539896d00c16c1385bd906216f096707dd4925b64d75ba73342c5c14a1d596dd0aa98a7fc1f6615a9b1b79d24c306a33623dae45b35396ff2191fd9dcf266bfb17e500ee6f03d94d1ae2091e5835cfa79281ef652963239ea366899e9e698cbb1d8975ddf5f67fd34733729773f204a2be63e9ffa1cb8c2d1b874e1124f72a382d7318e8dcadc13de231af352631f0d461d77027c1d692d39c6a3061cb918a841b39188ef9e77bfd63b5df98606a5f26a1a225ebe7ba37c41adda2370070a17fb0404e359318ec46f41c4773c202dfaf48e4f329a72f5d3685671b35993bac26a14e445ca599fa9deef9b3a8dba245498c9bdf704ab8a5df88feda153437b0878f28de278c0ec396fb060feeb396d7395db8038c3982d3364b30771d6e9efe0a1b028a4773c25349c30a91168602dad56e579ee4b37275b8ccd5f63368259958f0c3ab3bf870121fcb48cc773f9a40296e779c9acae5db3d01d4a2c53da24f477be9c62076b09120d9425f996cb1f623f313901fcf6a7d3d10490d7b49cc487f9f90602b036850f3c6594fbe991fda711f506c53048c116c13b76a540037d7de713aef3e276bd6e03ebc5615163a065ef8c7a9efb518127229f23333ca295555f75e1b240af645f99cae82a8bc60691ad49c1b959e2372d88c33d7a39eecf05023e2c93e2f0be4e819c9c375a6f367617a92d209a6af5c1c3501152232210b17420988c6c0b0c0c612d7deb4778f098ddb0866aece3db365579aca4997c0419290a1bb316744c4f7ac2c888663c97f955e84b2103c25a9a09485cd3fc44e98c02af992d3557e3bdc36db96b9155f980da81390eb16fdc7ed611ae3ae4050a086adcd8308dbefd0638501be4253fb7670620291471bfa906ce386d66b9f79efdf80336dbb4df152c3bea5aab0695e243557cc685b26642e7e453813e40f4663a89aef2ed8854d2a09fe4e0679d55afe0cf07c7b2141f578afb6b0dee59ad07e5a306873ec0fdb9c2b98c5df1abcae11e7cd5d44f51f238a4b38319242911b5ad7c7325b4d5d0745661ba8ae28809d2c8976ed3d7d8ccac9b226cd91b28a3c7aa741d7174c3b9837102071113581e0142f46a6c2dad2844a73c423887340a430eae7892863edb0996763659e95a697d666250780210d9cfa5fde43d655c2ab957175930d09003f3949e08505c805ce7e95af698d41b60544363613398772b22596dc0b3547a2bb81e386b4c652b95fa54dd8629d55a762bbc1165d87ba3069fc205405c1ea97e09c5c1f6850d362338af7745bf1a79ab3aebe8acb71f49c80147101db6b284fb13cc736c6507e9b3da8593d9809c56e8ba6fb42220d4a77b95600dbc08e157cae05b3111e068ffffb8b022d272136a344201fb803de00130494f0200b01396c2952cceb74eccec374f2202ac4a4403c8c998df8ccfbcc31f1d7c581e14c633448aeb0ca0da2ba93493eb33353b8d74fdcdb895e4d4906c144ada1ee6e99ae4c2dc82e2358b92fcb5a133108e1ef98a2e9f5abd802eb5122e483bfe2e8a814c5a37cedfab0041e57812fd830f60c572b8f3cfef2eb258b9e00f6b882dd5ba3ef2946ec5fc2c5fc8d6a8fac886642ff2394aede4bec0f98bb7e2ce9f9be7ee6bc5aefb820838c86f896c4f4d82787afcc8a7950c96314198902082110e24e63eee7d332f942d0a2c0ac29354e251f6d86c48c3c49ae8f8457f3c7f4e787726eb1e3e8fc5d78a4b551bfc39f9b378c90c989d642f9470b895b3bc80e7e73eafca4305cf92db57aae2aa7d0572973974cd9921204c0d1d4440d3173dccbbad2d7d92b6a5e2c90540ac40ca4072d601c38782b7818ca1d7ed8fefbeab1f2518bb425cabf79d3efd714297709408f75bd55d7299fbb7f11cfac40f2b595d0f944ab69451c08104153657920e9c9723d65ab516646d07f5779c5f1369f7656d28f71c0f7b16c7a51e0f643d0b07df945949bad30da6a6237afc87dbb051c4bb2456c87aa909bf2d953920a7a193375840c08ce69eb8a490b1b334a566f737e879dbfc0d4f600212e393f5a5c88a2b9dcf70814151e252c373f4e67acb1cfd2d4dded252a3b3d434662646d9ba8b1b2bbedfe0000000000000000000000000000000000000000000e1a2b3b01fd21050032fa59b38225fb52751a76b3173339aafb88c56b8d85da93a8e6f06b58873649e9106b9d42bd8b21f1efc2eb82f213503d628407d2057c3e76bdc144891e70f3cb1860f61316171a0e0961fdc01715762de9e3fda33d567ad0deaf4887d37c39a416405a68f1465ad8f10b9e3554c92cea275223bfb2b96cd0fc1f6d3d688892c3eeeb7451bd395e651fd1b07fb166d0efc66f683ca5f7d7f386f7b368fa02425589057007822cada45d13aeb40267ebe4639b26b31491b8d24902c77b5beb971ffae06e7978aa7bd44a3b9528118b579243d9f05eee8d08160e5cd9e203564414913863e200020677b52a1a87a7e7f939488b345b09252c3a3f76ef0915c516f70c9097fc1926f6fe9724f9734f30270e667207cd406f4a7acbad91aece07b5ed175a238043add111e982c1b014d8af7d164219737156709b241880c97ec0cce76e6fc4d0c14f119ae693c3e9e9884f7d1a0b9e3c28709bbc7be02256ff7f31d28a588c87b46f9d681e28ffb8e6ea850f22de99ac0ebf83ebab1879803877e47f2e4956457937f2cc71f4c0b83d374be79e5433842a6441c40d09f7b2536c81c479ea70f0414e567e5c2d8a24e991ec35f005e536584ab7c1d78bb2367f763b944f302e7188ac23b8abfe4b51705f8ffc942cacec124ba99665597140ab86d48e9f7b0e24b9500b5e04105e083e1b0b736bd0312e6812135787da28732ae83b10a00e57a5f40246cbd574aed8fe8b3ba67eb599c00ba8cfb4eb76677137162f36c8857e8e43825dfa9ee3066996f8128c7594856bbe49f3ad6f71b026512c596bd6f1247272758534c83574172dcc8cf6377f603f1f6d26e6aa0091f11bf27efc90f6c1c73ed8e1f5edebf7fda981fcb79831dc1e274e5385d3c03381b0bc77cb797c151b2b94f8a2e70cede64a65f2853859ed01e2881a9fc1f073b96e71a6882d8e59d7814ee29966b6d36834d6bd4e4b4479b30ac64d047465e8eaa6a72864b113952ba059c4fb6d93d0b315dad0d91f0a19c010e425a38850253112de74e756453739d2cef8cfaac9286c838e7505baed53bb30fd389a61e67de84a253ccdfe1f4a469e2bbd94848ccaa81c1f90ddac32e4d7f74e147766c8bba0fe7d464ddb06daa687461475c8938bcd4759a20613be901cb799f7e3df08eb051253bb1924740bffb3bc10ef056d91151ab28cee289fe7206a76f36d75221ef23ab7b814c12a40d9d586e92305d177316f8bcb2a7d8166bd5a806ea44e7b122385949b1abd255aa00c76b156b596f0362d494d39c4726ae0349c07ed14b928049a50e61504c740f8faf9dc85668604334adac18875551506b4d88c2444de7dde05d53564c66a5f9aca84afe0129c917b6d22149161ce971942055dfbcbcd65381f737d399adc2ae244fa31ec936a554e38ac75c58da3f1c5ef005db2e19dac9213aa94d182465b307a9edc5a0d1bd84af56b0aef10c3050a20d4f54550d3fdd4c8b3eb2cd0fc7ef9a545da9accfba99e6a738663d55715b31efb6f224276bab958a9fa55c70585e7de1b367736300cf901c176b0c645505103abc29a5532fa22ba22d9482a9d76ccd83058d18c1974388060483ce3f9ac4e6269d96c3e49076544d215faae1e4c1e69bb3ca3db61b1f72c53b7aeca12e72d1d8b0e25a8c23357139c9b990d029ec43d52b2634f9abb4dc27d34c73c771aa4ec08c23a601cc4ed40d838259016d180c9dbb35b5dc5f21db8b04201327d9b1c28f4b880a2b36a66ad3179fd07e12cadbb904fb0ea2a94253da3d696e2b4f0fdc267435a9e4d0c316c457c55076d3d12d9bdfc0478c93ef46a1a38dd3e5cf04b1a73f0b839725a951d4ca97e000000",
  "txid": "66d8f50d6210e6dc7b77a4de490861398efc8a2c014a41dce957a0ede12f8fe5",
  "hash": "60233ef1784d8ca63f57655202647900ce7e8077a5743970ab8702d56b4a76bd",
  "size": 5085,
  "vsize": 2278,
  "version": 1,
  "locktime": 126,
  "vin": [
    {
      "txid": "8c7cfec7eea8561488289df24cf9940d5aac4a05fdcd8f41ce7e1610a211ae8d",
      "vout": 0,
      "scriptSig": {
        "asm": "",
        "hex": ""
      },
      "txinwitness": [
        "14be3cc7c0f0beec173c6ed2bce0243874850d0e0d7b5bc728e0e4df611a43046acb4e1e321af9640958ed752919ca424fb55298614c8d3bd521189815c60c53a9b2b4588fa70ab62a129c9578ecd90c6cc0b374444cbf424f21415db5d35734b25da2ad7abf3ecf52969018eff9da587a8bd339e5b45cbba5930b44c63a0c619ef35c6ba455a497da9c0b2bcfad89a14359cacdb732cbc7ca798ad234fde3cba4fd2b9e4c8dcea95ad473f97179e600391dfffcaa5b9d70f9e3aa5dfab7a316e5345288c1bfa1627d6d4edcbdeac9397bc1ae117dad32b89b3b957ce9605ad95ab305049eb7adf46e6b86d423abf3e95c68cf04131d2978e12a133a8898120338743fbac073637ee0a28f63d1959813d37bd3c7cefe7f8901655f609c3872d75a82fc9bd4c74e9dfb13d51d7df305bac8064c90dd3b5f9ca851c4f385f92a124a0a9919cc08e9e2c2d1f310113ec9499e529698347f5a85a84d98181939009431ce4f8b30264ee35b8b0bb7ed46451d0d52e5233de228e2bbb146abd5f98cb5d884dac908752535dffc88e93cb5bb6a70c3cd8e9561c25bcb338df5cd66899589366b6c8bab018cc85923cf3fc8ed509b11c44c675da56dbee76fc3087fcbb7eac248343db310ef58a568525ac57df97c4033fb278694ee58265207f4e8bde88d73a2ef401460717ebfaa6bbb26416e0a533fd88116a5ff2da74b8530fd782f16c69a472a08e275e0feda544bbbabe0c282214eb034e91bd9dc03ea7165ff76c72ba17d9a4db37c5a75066af91396e6ded0014d9b09803195c0424f088f8c80e7dcc3c32b3b1e24ad6f71d6ede096dda4c8fc3f66db73e4fbf38d29a8414b31f89a88aae27bd90df8eb904dde390092914c745860ea41dbc5bad6d6018c16c86ccc7303970be615357ae66d52c8dfbfb0c0b37416f77f9fc1a3220472a11079dd9aa5de932e68ec93f1af287f0a065928deaf8628726aa96d04850bcbd197a9292b1d205f7d407bc10235931055a39d3171cdbd9936050939f0dd19b9a8f47c7953266384c1c486f4f0b81ac67af2056124e24a4139e6474b6b15ccbe25018ace509e61275383b80eea621d9eb0fbfb1400e28e83c6e5af7e89141c8971fbc5138cfb1bb2288b1be16e899a259deb63605e58846d9d320c5cc821b29322965add001e429310afae1dca827b595b5c9c1a3ff74f58b7d0b41b9cadd0f4b94c97c691433566187fdbeed15910ad7db883084cc516266d1a0d117db5e7ecea02c1eb954a02cd7aaf539896d00c16c1385bd906216f096707dd4925b64d75ba73342c5c14a1d596dd0aa98a7fc1f6615a9b1b79d24c306a33623dae45b35396ff2191fd9dcf266bfb17e500ee6f03d94d1ae2091e5835cfa79281ef652963239ea366899e9e698cbb1d8975ddf5f67fd34733729773f204a2be63e9ffa1cb8c2d1b874e1124f72a382d7318e8dcadc13de231af352631f0d461d77027c1d692d39c6a3061cb918a841b39188ef9e77bfd63b5df98606a5f26a1a225ebe7ba37c41adda2370070a17fb0404e359318ec46f41c4773c202dfaf48e4f329a72f5d3685671b35993bac26a14e445ca599fa9deef9b3a8dba245498c9bdf704ab8a5df88feda153437b0878f28de278c0ec396fb060feeb396d7395db8038c3982d3364b30771d6e9efe0a1b028a4773c25349c30a91168602dad56e579ee4b37275b8ccd5f63368259958f0c3ab3bf870121fcb48cc773f9a40296e779c9acae5db3d01d4a2c53da24f477be9c62076b09120d9425f996cb1f623f313901fcf6a7d3d10490d7b49cc487f9f90602b036850f3c6594fbe991fda711f506c53048c116c13b76a540037d7de713aef3e276bd6e03ebc5615163a065ef8c7a9efb518127229f23333ca295555f75e1b240af645f99cae82a8bc60691ad49c1b959e2372d88c33d7a39eecf05023e2c93e2f0be4e819c9c375a6f367617a92d209a6af5c1c3501152232210b17420988c6c0b0c0c612d7deb4778f098ddb0866aece3db365579aca4997c0419290a1bb316744c4f7ac2c888663c97f955e84b2103c25a9a09485cd3fc44e98c02af992d3557e3bdc36db96b9155f980da81390eb16fdc7ed611ae3ae4050a086adcd8308dbefd0638501be4253fb7670620291471bfa906ce386d66b9f79efdf80336dbb4df152c3bea5aab0695e243557cc685b26642e7e453813e40f4663a89aef2ed8854d2a09fe4e0679d55afe0cf07c7b2141f578afb6b0dee59ad07e5a306873ec0fdb9c2b98c5df1abcae11e7cd5d44f51f238a4b38319242911b5ad7c7325b4d5d0745661ba8ae28809d2c8976ed3d7d8ccac9b226cd91b28a3c7aa741d7174c3b9837102071113581e0142f46a6c2dad2844a73c423887340a430eae7892863edb0996763659e95a697d666250780210d9cfa5fde43d655c2ab957175930d09003f3949e08505c805ce7e95af698d41b60544363613398772b22596dc0b3547a2bb81e386b4c652b95fa54dd8629d55a762bbc1165d87ba3069fc205405c1ea97e09c5c1f6850d362338af7745bf1a79ab3aebe8acb71f49c80147101db6b284fb13cc736c6507e9b3da8593d9809c56e8ba6fb42220d4a77b95600dbc08e157cae05b3111e068ffffb8b022d272136a344201fb803de00130494f0200b01396c2952cceb74eccec374f2202ac4a4403c8c998df8ccfbcc31f1d7c581e14c633448aeb0ca0da2ba93493eb33353b8d74fdcdb895e4d4906c144ada1ee6e99ae4c2dc82e2358b92fcb5a133108e1ef98a2e9f5abd802eb5122e483bfe2e8a814c5a37cedfab0041e57812fd830f60c572b8f3cfef2eb258b9e00f6b882dd5ba3ef2946ec5fc2c5fc8d6a8fac886642ff2394aede4bec0f98bb7e2ce9f9be7ee6bc5aefb820838c86f896c4f4d82787afcc8a7950c96314198902082110e24e63eee7d332f942d0a2c0ac29354e251f6d86c48c3c49ae8f8457f3c7f4e787726eb1e3e8fc5d78a4b551bfc39f9b378c90c989d642f9470b895b3bc80e7e73eafca4305cf92db57aae2aa7d0572973974cd9921204c0d1d4440d3173dccbbad2d7d92b6a5e2c90540ac40ca4072d601c38782b7818ca1d7ed8fefbeab1f2518bb425cabf79d3efd714297709408f75bd55d7299fbb7f11cfac40f2b595d0f944ab69451c08104153657920e9c9723d65ab516646d07f5779c5f1369f7656d28f71c0f7b16c7a51e0f643d0b07df945949bad30da6a6237afc87dbb051c4bb2456c87aa909bf2d953920a7a193375840c08ce69eb8a490b1b334a566f737e879dbfc0d4f600212e393f5a5c88a2b9dcf70814151e252c373f4e67acb1cfd2d4dded252a3b3d434662646d9ba8b1b2bbedfe0000000000000000000000000000000000000000000e1a2b3b01",
        "0032fa59b38225fb52751a76b3173339aafb88c56b8d85da93a8e6f06b58873649e9106b9d42bd8b21f1efc2eb82f213503d628407d2057c3e76bdc144891e70f3cb1860f61316171a0e0961fdc01715762de9e3fda33d567ad0deaf4887d37c39a416405a68f1465ad8f10b9e3554c92cea275223bfb2b96cd0fc1f6d3d688892c3eeeb7451bd395e651fd1b07fb166d0efc66f683ca5f7d7f386f7b368fa02425589057007822cada45d13aeb40267ebe4639b26b31491b8d24902c77b5beb971ffae06e7978aa7bd44a3b9528118b579243d9f05eee8d08160e5cd9e203564414913863e200020677b52a1a87a7e7f939488b345b09252c3a3f76ef0915c516f70c9097fc1926f6fe9724f9734f30270e667207cd406f4a7acbad91aece07b5ed175a238043add111e982c1b014d8af7d164219737156709b241880c97ec0cce76e6fc4d0c14f119ae693c3e9e9884f7d1a0b9e3c28709bbc7be02256ff7f31d28a588c87b46f9d681e28ffb8e6ea850f22de99ac0ebf83ebab1879803877e47f2e4956457937f2cc71f4c0b83d374be79e5433842a6441c40d09f7b2536c81c479ea70f0414e567e5c2d8a24e991ec35f005e536584ab7c1d78bb2367f763b944f302e7188ac23b8abfe4b51705f8ffc942cacec124ba99665597140ab86d48e9f7b0e24b9500b5e04105e083e1b0b736bd0312e6812135787da28732ae83b10a00e57a5f40246cbd574aed8fe8b3ba67eb599c00ba8cfb4eb76677137162f36c8857e8e43825dfa9ee3066996f8128c7594856bbe49f3ad6f71b026512c596bd6f1247272758534c83574172dcc8cf6377f603f1f6d26e6aa0091f11bf27efc90f6c1c73ed8e1f5edebf7fda981fcb79831dc1e274e5385d3c03381b0bc77cb797c151b2b94f8a2e70cede64a65f2853859ed01e2881a9fc1f073b96e71a6882d8e59d7814ee29966b6d36834d6bd4e4b4479b30ac64d047465e8eaa6a72864b113952ba059c4fb6d93d0b315dad0d91f0a19c010e425a38850253112de74e756453739d2cef8cfaac9286c838e7505baed53bb30fd389a61e67de84a253ccdfe1f4a469e2bbd94848ccaa81c1f90ddac32e4d7f74e147766c8bba0fe7d464ddb06daa687461475c8938bcd4759a20613be901cb799f7e3df08eb051253bb1924740bffb3bc10ef056d91151ab28cee289fe7206a76f36d75221ef23ab7b814c12a40d9d586e92305d177316f8bcb2a7d8166bd5a806ea44e7b122385949b1abd255aa00c76b156b596f0362d494d39c4726ae0349c07ed14b928049a50e61504c740f8faf9dc85668604334adac18875551506b4d88c2444de7dde05d53564c66a5f9aca84afe0129c917b6d22149161ce971942055dfbcbcd65381f737d399adc2ae244fa31ec936a554e38ac75c58da3f1c5ef005db2e19dac9213aa94d182465b307a9edc5a0d1bd84af56b0aef10c3050a20d4f54550d3fdd4c8b3eb2cd0fc7ef9a545da9accfba99e6a738663d55715b31efb6f224276bab958a9fa55c70585e7de1b367736300cf901c176b0c645505103abc29a5532fa22ba22d9482a9d76ccd83058d18c1974388060483ce3f9ac4e6269d96c3e49076544d215faae1e4c1e69bb3ca3db61b1f72c53b7aeca12e72d1d8b0e25a8c23357139c9b990d029ec43d52b2634f9abb4dc27d34c73c771aa4ec08c23a601cc4ed40d838259016d180c9dbb35b5dc5f21db8b04201327d9b1c28f4b880a2b36a66ad3179fd07e12cadbb904fb0ea2a94253da3d696e2b4f0fdc267435a9e4d0c316c457c55076d3d12d9bdfc0478c93ef46a1a38dd3e5cf04b1a73f0b839725a951d4ca9"
      ],
      "sequence": 4294967294
    }
  ],
  "vout": [
    {
      "value": 499981.6958,
      "n": 0,
      "scriptPubKey": {
        "asm": "1 f73870f9f5d9d7350a5e9c477f3c74a16c44e54f8fa6d3006cd030d753dfd9d7",
        "hex": "5120f73870f9f5d9d7350a5e9c477f3c74a16c44e54f8fa6d3006cd030d753dfd9d7",
        "reqSigs": 1,
        "type": "witness_v1_scripthash",
        "addresses": [
          "3QJmnh"
        ]
      }
    },
    {
      "value": 1.0,
      "n": 1,
      "scriptPubKey": {
        "asm": "OP_RETURN e6b12a81448ad38effec1c36590580346efea84da796769f7d513e85ff0bf124 5c4042f827b72778c3771274647ae4de3f66f74ef59c34710704d71824df18af7c6062d807970758e3573254445ac4fe1f46d76ed5bc14512724f73804ff388f1c0002b867f7673883375234243aa49e7f26b70eb5dc743147449758649f58ef3c20229847d74718a3177214041a84be5f06972e95fc54116764b77844bf78cfdcc0c278a737a7f843f792f4e4fa645ebfe677ce751cb4f187845798a45f982ffce0e258871787d863d7b2d4c4da447e9fc657ee553c94d1a7a477b8847fb80f9c808238e777e7b803b7d2b4a4ba241effa6378e355cf4b1c7c417d8e41fd86fbca0a218c757c7982397f294849a043edf8617ae157cd491e7e437f8c43ff84f5c4042f827b72778c3771274647ae4de3f66f74ef59c34710704d71824df18af7c6062d807970758e3573254445ac4fe1f46d76ed5bc14512724f73804ff388f1c0002b867f7673883375234243aa49e7f26b70eb5dc743147449758649f58ef3c20229847d74718a3177214041a84be5f06972e95fc54116764b77844bf78cfdcc0c278a737a7f843f792f4e4fa645ebfe677ce751cb4f187845798a45f982ffce0e258871787d863d7b2d4c4da447e9fc657ee553c94d1a7a477b8847fb80f9c808238e777e7b803b7d2b4a4ba241effa6378e355cf4b1c7c417d8e41fd86fbca0a218c757c7982397f294849a043edf8617ae157cd491e7e437f8c43ff84f5c4042f827b72778c3771274647ae4de3f66f74ef59c34710704d71824df18af7c6062d807970758e3573254445ac4fe1f46d76ed5bc14512724f73804ff388f1c0002b867f7673883375234243aa49e7f26b70eb5dc743147449758649f58ef3c20229847d74718a3177214041a84be5f06972e95fc54116764b77844bf78cfdcc0c278a737a7f843f792f4e4fa645ebfe677ce751cb4f187845798a45f982ffce0e258871787d863d7b2d4c4da447e9fc657ee553c94d1a7a477b8847fb80f9c808238e777e7b803b7d2b4a4ba241effa6378e355cf4b1c7c417d8e41fd86fbca0a218c757c7982397f294849a043edf8617ae157cd491e7e437f8c43ff84f5c4042f827b72778c3771274647ae4de3f66f74ef59c34710704d71824df18af7c6062d807970758e3573254445ac4fe1f46d76ed5bc14512724f73804ff388f1c0002b867f7673883375234243aa49e7f26b70eb5dc743147449758649f58ef3c20229847d74718a3177214041a84be5f06972e95fc54116764b77844bf78cfdcc0c278a737a7f843f792f4e4fa645ebfe677ce751cb4f187845798a45f982ffce0e258871787d863d7b2d4c4da447e9fc657ee553c94d1a7a477b8847fb80f9c808238e777e7b803b7d2b4a4ba241effa6378e355cf4b1c7c417d8e41fd86fbca0a218c757c7982397f294849a043edf8617ae157cd491e7e437f8c43ff84f5c4042f827b72778c3771274647ae4de3f66f74ef59c34710704d71824df18af7c6062d807970758e3573254445ac4fe1f46d76ed5bc14512724f73804ff388f1c0002b867f7673883375234243aa49e7f26b70eb5dc743147449758649f58ef3c20229847d74718a3177214041a84be5f06972e95fc54116764b77844bf78cfdcc0c278a737a7f843f792f4e4fa645ebfeff99555be3ceb63f66d43af49b8726db32a95cf17c486d0db19eb35467f46",
        "hex": "6a20e6b12a81448ad38effec1c36590580346efea84da796769f7d513e85ff0bf1244db0045c4042f827b72778c3771274647ae4de3f66f74ef59c34710704d71824df18af7c6062d807970758e3573254445ac4fe1f46d76ed5bc14512724f73804ff388f1c0002b867f7673883375234243aa49e7f26b70eb5dc743147449758649f58ef3c20229847d74718a3177214041a84be5f06972e95fc54116764b77844bf78cfdcc0c278a737a7f843f792f4e4fa645ebfe677ce751cb4f187845798a45f982ffce0e258871787d863d7b2d4c4da447e9fc657ee553c94d1a7a477b8847fb80f9c808238e777e7b803b7d2b4a4ba241effa6378e355cf4b1c7c417d8e41fd86fbca0a218c757c7982397f294849a043edf8617ae157cd491e7e437f8c43ff84f5c4042f827b72778c3771274647ae4de3f66f74ef59c34710704d71824df18af7c6062d807970758e3573254445ac4fe1f46d76ed5bc14512724f73804ff388f1c0002b867f7673883375234243aa49e7f26b70eb5dc743147449758649f58ef3c20229847d74718a3177214041a84be5f06972e95fc54116764b77844bf78cfdcc0c278a737a7f843f792f4e4fa645ebfe677ce751cb4f187845798a45f982ffce0e258871787d863d7b2d4c4da447e9fc657ee553c94d1a7a477b8847fb80f9c808238e777e7b803b7d2b4a4ba241effa6378e355cf4b1c7c417d8e41fd86fbca0a218c757c7982397f294849a043edf8617ae157cd491e7e437f8c43ff84f5c4042f827b72778c3771274647ae4de3f66f74ef59c34710704d71824df18af7c6062d807970758e3573254445ac4fe1f46d76ed5bc14512724f73804ff388f1c0002b867f7673883375234243aa49e7f26b70eb5dc743147449758649f58ef3c20229847d74718a3177214041a84be5f06972e95fc54116764b77844bf78cfdcc0c278a737a7f843f792f4e4fa645ebfe677ce751cb4f187845798a45f982ffce0e258871787d863d7b2d4c4da447e9fc657ee553c94d1a7a477b8847fb80f9c808238e777e7b803b7d2b4a4ba241effa6378e355cf4b1c7c417d8e41fd86fbca0a218c757c7982397f294849a043edf8617ae157cd491e7e437f8c43ff84f5c4042f827b72778c3771274647ae4de3f66f74ef59c34710704d71824df18af7c6062d807970758e3573254445ac4fe1f46d76ed5bc14512724f73804ff388f1c0002b867f7673883375234243aa49e7f26b70eb5dc743147449758649f58ef3c20229847d74718a3177214041a84be5f06972e95fc54116764b77844bf78cfdcc0c278a737a7f843f792f4e4fa645ebfe677ce751cb4f187845798a45f982ffce0e258871787d863d7b2d4c4da447e9fc657ee553c94d1a7a477b8847fb80f9c808238e777e7b803b7d2b4a4ba241effa6378e355cf4b1c7c417d8e41fd86fbca0a218c757c7982397f294849a043edf8617ae157cd491e7e437f8c43ff84f5c4042f827b72778c3771274647ae4de3f66f74ef59c34710704d71824df18af7c6062d807970758e3573254445ac4fe1f46d76ed5bc14512724f73804ff388f1c0002b867f7673883375234243aa49e7f26b70eb5dc743147449758649f58ef3c20229847d74718a3177214041a84be5f06972e95fc54116764b77844bf78cfdcc0c278a737a7f843f792f4e4fa645ebfeff99555be3ceb63f66d43af49b8726db32a95cf17c486d0db19eb35467f46",
        "type": "nulldata"
      }
    }
  ],
  "blockhash": "6d9c0c317b6a18c94c8dfa8ecf7920e3db1b4df4697afebc42d3fd28269e39fd",
  "confirmations": 1,
  "time": 1764181315,
  "blocktime": 1764181315
}