{
  "hex": "01000000000101f2dbbe90d946f3ad74a5fb48d8f507f5820bf9460ffc6867f63de5107c4a82a60100000000feffffff0200e1f50500000000fdd5046a2000f5e0f99558da2e5f77b70ae350bbbc878dae45a6db3845561005be3ef519e74db00440862ac6d28e5d09ad29466e73ed255e7e0a34c4a4e6358366d5453a76f04a6360a60ae6f2ae7d298d09664e53cd057e5e2a14e484c615a346f5651a56d06a4300c66a8692ce1d49ed69062e33ad651e3e4a7484e4a675c32695057a36b00a2320e64aa6b2ee3d69cd49260e138d453e1e6a54a4c48655e306b5255a16902a03c006aa46520edd892da9c6eef36da5defe8ab4442466b503e655c5baf670cae3e0268a66722efda90d89e6ced34d85fedeaa946404469523c675e59ad650eac38046ea06124e9dc96de986aeb32de59ebecaf4046426f543a61585fab6308aa3a066ca26326ebde94dc9a68e930dc5be9eead4244406d5638635a5da9610aa8340862ac6d28e5d09ad29466e73ed255e7e0a34c4a4e6358366d5453a76f04a6360a60ae6f2ae7d298d09664e53cd057e5e2a14e484c615a346f5651a56d06a4300c66a8692ce1d49ed69062e33ad651e3e4a7484e4a675c32695057a36b00a2320e64aa6b2ee3d69cd49260e138d453e1e6a54a4c48655e306b5255a16902a03c006aa46520edd892da9c6eef36da5defe8ab4442466b503e655c5baf670cae3e0268a66722efda90d89e6ced34d85fedeaa946404469523c675e59ad650eac38046ea06124e9dc96de986aeb32de59ebecaf4046426f543a61585fab6308aa3a066ca26326ebde94dc9a68e930dc5be9eead4244406d5638635a5da9610aa8340862ac6d28e5d09ad29466e73ed255e7e0a34c4a4e6358366d5453a76f04a6360a60ae6f2ae7d298d09664e53cd057e5e2a14e484c615a346f5651a56d06a4300c66a8692ce1d49ed69062e33ad651e3e4a7484e4a675c32695057a36b00a2320e64aa6b2ee3d69cd49260e138d453e1e6a54a4c48655e306b5255a16902a03c006aa46520edd892da9c6eef36da5defe8ab4442466b503e655c5baf670cae3e0268a66722efda90d89e6ced34d85fedeaa946404469523c675e59ad650eac38046ea06124e9dc96de986aeb32de59ebecaf4046426f543a61585fab6308aa3a066ca26326ebde94dc9a68e930dc5be9eead4244406d5638635a5da9610aa8340862ac6d28e5d09ad29466e73ed255e7e0a34c4a4e6358366d5453a76f04a6360a60ae6f2ae7d298d09664e53cd057e5e2a14e484c615a346f5651a56d06a4300c66a8692ce1d49ed69062e33ad651e3e4a7484e4a675c32695057a36b00a2320e64aa6b2ee3d69cd49260e138d453e1e6a54a4c48655e306b5255a16902a03c006aa46520edd892da9c6eef36da5defe8ab4442466b503e655c5baf670cae3e0268a66722efda90d89e6ced34d85fedeaa946404469523c675e59ad650eac38046ea06124e9dc96de986aeb32de59ebecaf4046426f543a61585fab6308aa3a066ca26326ebde94dc9a68e930dc5be9eead4244406d5638635a5da9610aa8340862ac6d28e5d09ad29466e73ed255e7e0a34c4a4e6358366d5453a76f04a6360a60ae6f2ae7d298d09664e53cd057e5e2a14e484c615a346f5651a56d06a4300c66a8692ce1d49ed69062e33ad651e3e4a7484e4a675c32695057a36b00a2320e64aa6b2ee3d69cd49260e138d453e1e6a54a4c48655e306b5255a16902a03c006aa46520edd892da9c6eef36da5de6410dbc4ca4f6bb763b8da870418b1e747be1e2029c278482592631e0bfdab6dc075fe6f792d0000225120357a97cdb7015af729d28aef6ab4abfade4ed44e3409a90d391bebb1d5da291102fd7509c6527d9a48a511f0eeaf500b2621c5c6efcf034294d2bf51cb8ed5f0bb3570586646d5d62466f29f175e7fe57283904de94e79c6cd2f4319a96e365b6dd255f271d0565f5a9c2882813023ab267a6847b8c06d37138846743403f33d04c288619fbf08201e4a3b4e4c321b0f242d39e44d68fd4386187eaad4c96807ed0cba3bd132cfa9945d80564e415f6d139b01400878d4f799d0c270ca1999d792d5b31946519cd9fd578cd35ce8dbbae22946071aca2297d329c0c493a6655dc2bd0ba0b625145e23e551277de8ca18cadc9f16b0443b2f982bb6f261ad897b738731ae065c28f7b2d6dddf425d5966b70bf81e60e3efb1da98086d93f42e49b3dcd46503fefd234567f8b7b9a8646f2f8a27a91dc595500626f0add59bdd81e2bec11a269127192b62f57d8a175a9d9e41e6611092049c93354abfe60e945b355d0059c4d93376ca9def56f2531b6a83ae4d34c49e4bca8b8e5b7041853712bb48c1dec2e5173b12795c6969bbb06ee705fd883fb388e981583f1790998fb508265933666f3a18c6121b535d1b0ee9f95752668009bfaf0936f422f68e714b8fc2fd173cb107b377bb2987849dec935e23fe6fca515db230f491a5a00d5da8dc30611c7de309a17f1290c101250f43b20d436587b363fcc05e53b08441240eb33227b3c90209a4f19d2ae1aa7b2af8a1c00d4a7e28adeedf653cbcf534adf16ada4d3d8e0965f0f703b6189360d8c3ef09eb3193f912ba23c27f10bb05335da5ad0679548127ace28bb9627d35a65f74773ecae2fd66c029c9c326cfb7e3dced5f9f0fd7fd62ed609c7258cf0c4be0ffb2c6c25c4400304f03cf639155ed7cd39a7523844880145ae39a1d2e64f38a02882f9d0abb7f1c22a7dbe75dc290fd365ddfd231d5ce3222184f362900ab9a3db30ec2f859c9ab4f10b5ebaf3a88ca073d2bd4ddd4dd71178967c2d55ea44ff04faca02a9a151d0658a8380b9c19003270e5765a691927b0c316826f45a31bc553c409fea7ec4cf25230ba7e8ef7fb45a0bd5d6372413087dcf1d9f00bc1a1d9a9faabd7cf074f4ad1d522a0d990c14f8b64cfad165682a6a136b172cc326372b0065c8f8199074d9cd68f9932f874a0d38870e20f72caebfb27346c3753e2b8ddcefe5aa81d4666bc346ffb5497aa47eaadd2c7f9e7d5584260b8ae11d64fc728be6046064c65aa9099d3540c1e4cd3789b16d5e6c501695f58c7000fcb228b3354cc03a38662f12a55a2a9dc663954df9722087e2dc1190af8b14d542d8dbdb6120dec7f78427f7f67bc86050558a69a3f327f4ed6eacd98f4b831d8b60aab7c5ae01b25cb1ee09f5a8343844f46e62f4b2afb3ad8ae76ea0b21bdddcaefa3a237e8074c29d3d9133c9f1475b0ecb4d47e04b86aefc111d0ecbbc952428c30943a133a70359b05dd91ed61c1461eee8a4fba4de7a6e198f9af1fff457b3cd19827c70708922d790212d42c96be605296df87c454b1f9a9c964a35bcbf8ff0b026492c1d2d131b6c4833e3f0fe8f9e21a6bc4fc41c942e2e5e065bf21dc9b315fa881698d22f45debf1f5a69d4c3455653ee5c6ff2eb528563a6f1969d04428eab2f4f44efb40844ca092db048ed5af8f2b32294d8e2aaa81437d3eb43400f0d9f2ba6d18c4967f149526973900e5db8a0cc90d3cf8b1b1291fc624b54704f754426354f254a298b3943048e7f753be3110d3dba8b1b23179e7efda7708342749785839c65867b970549cb7d60f455f7f36d8faa9e355c59a3e3f02a7527c6a78b383f28d152f8879ccd22985e0a534937a8e7b5e105474261407b376901670c8865fda76bdccdcaac8e111126c811f354af7ca09ba522e71ae642bc5c0b92d35ba5776f88ff7f420d9663d04ac9261a061bf8bb54899fd5000121a8c27dd3e233c2bed2c0ccc752034c281db611f0e31cced8b4f3b33121b995eb5a3c410eeb058dfb0dfcf5a9a50600394eaef3e718cd9aca16907765c14523c1d3484e33cf655ec9eca8044f1fa9807aed16141225cb8d9c76ca68ae8d31b7c9aed494b8f46d2b97ffcee862add946173d8d3be679cbc71362d87cffb54d62bc77ba2324edf543cdffd35cbc9bc550a9625c828a793e34603775961d1ac69821552231a310f17726cff8cd36af3cf8644c77d102f2815792950e591d0a8526524d350ef27dbff4b5b8fb729b6eb21f2718b9726327a05fbc780752d89e41ec86bd83891bfac0460bb10831b15e4cf1188d915fae416ce2df7dd8d70a356ac05a85b15acd711058307cea6f5066d3e9ef34cce6f2ce1755b97fb0ff241c7f022adfa98f5d0a3100166eba2b8f72589984adb73448be27e21b0f26eaeb4bacf866dd0d35a9e675e829e3605f861c36dd3e6eb828a6da639c5d0e33ae2617662fa678e8b86c62e809c141eb05325fea3bd48f7c5ff13c102e73006c6683ec2de19c5b439e3cdc818a79361bc7f9a4e19035f4ce56bde7a2a3557daf6ba2e1bd5f1a5c11bf8df3d9e298d5636410f6651f51ee08faec17b7cc88d4c90efce59084b998f8ef8bb05384a086bcb09eafa4562d3d33ba1b8aab1f8cc53fae044988687a85c60e3d310f566b70854d1d128118f611afb3ef34df0a2aa90618622e502525171e659f4a7bc9d90e04a73bb6dd34a188abecaaddd694414a7d81d0122fc1c97b3236558e4015e58cb73a978f80e0ed8c7723a871bc5bfa52eb4ce89e02da9ede1cc625fd2e4e55158d837cb954489d6bc857e70703a408546f8194d58f69e8e4f7b178498ae9bb3d75a8bd6a87b1ceb3bd22876ac698e2fcab9ff25c6e3455df0d31ecf984403674f38f3021430e270ec3f9e8d371ed04da49108543c480a5f46c87fe97dbe3d19bcb6adf859a4125c58dcdc107d1753d2cd88cbee729dea9fc3914310f98dd4e5b6aea7034aad9363c32754780b8ede8ed20c8b0e0aa3d2b4d310400f45e7a1cb1abd4d2f89a474567a30f376926bcd16b2c9de502555c19f22b78a7ea2da9d3700aa0a2aaebd8d677690e330da03de380b8b6f4aa3811c6fb949f65d774c0353a5c6c44ec5098f9bf275733715ed23fa4437176dd8cc0f891c6159a5cde3d66c37d9bbf5183f84065f26bb274ebc185e401206c0080ee3d5db52c7996773e0dd9abdc3d6fe236937a04cd80ee4559bb86bdce2e965395361f85e29b295b090ea74d53aa52472fbc48582eeefa8a0659f97da155e51ac17f1c017542d48ea9bb07e34b500cf9c4b807230355cd46c33fa0a0e1481dd51e0e45c3b7aa9162de284bd87afbf5be4e80c25c446c3346692242e677e819ab5bbcddce5fd2022272c3a3e465758668a9babacc6d1d9dfe4eb0a272b2e4c595a616e70717f83939eb5bac2d3eeef111419282a436f7079818c98cdedf40000000000000000000000000c20354401fd210500415b5863e2b94916d4ecc50f344e0ca62c4dbef0aabd148338f152b6109dbd98be8405f01d63c3c72e7dc45bdb94544af3cc9db301ad978e4dc9540d575eb108dd3d14eb54a2cd3b9ae037f7997aa7ccb641479bf4d9408461ab6354e8422f9fab7775f359a432fb2e0d2867da11227d0c9eaaf3625a1a6f778c871368af177a8943dd82315bf31c7effe8699fee9394ce7f30f8f6b869b9490045caee4dc62f83eeea4b0f445516b8036bce0c51e2e847b91a113c59ab5ecc3f53fe7e8c029a68e8c229a71968d0070d46844b2f6c94a4ca84b0bd9dbdf12b60d02eb5a0fdae6f44e488c294ef079c2975477c6cc1959119f6037738b131231c445297b1c9e5fb3e557b730e116a663405882c55f5321e46ded41a5519204ba4b360c704f740cedaf7e3f75367686d7d65c0f085a9938d68d5a01eaa6a34936fa4b1e84f617543a3cf702a9e12929488606a317c229121b9a62a75deb232b822f87e53149488fe840d9632c003d71e22f757d041df4c372a17697c94451f84d202e464e9103c2a98018188db18d5042653f02bebc05d5ebfa4960095125189f0eef7245ccdffccd60ca6c3fd2df9b9bfc90af057807e3b7d8cda2c89307bc18cf332cbd7af3b3c5e8ab605dee822febfc7fd5d8d242173c288fe621ff5b26775b484739e878697e4b4465ae357e5060ae1a4c8634618544c5aeaedcb80893247a17e8bb36213995f9abb0452b66b173ad97a84e8e83b0427a43ec31fff7336ed029cca15787f9751de4c0e098c7310041302c6d093cbdfbcaf39e6e4d33e2017fb3284397488f8438589e2c3451dba423f1095de916744c4d7fad4ad58e192101daca002bf22f012b1139384d7ca2b8b4837a59bc5978c3b2c84e3de2ae7e3d3ebdd76a726b4b728a4694e623dfa2830edfc6ab54aabb2613919819545c81dde51542509f0cc87ad7e86c592d14c142b6a30060908d0b48c22af913f76661893587f51a40559d6acdad90a208e15a2a3e5e775cef5ec99d542b4a2ff5aa0ab365ec3d10d50651fe21013dbf1136dd48a977552baf82675d734407b884bf528b3f7485444839fd4bd951ecaa1ef754257b39701b719cef211a0c3bd0d069a7bcc8647e036655ad6fa88f5b70c3876e49bc81ff9dfeaee2b94515e213711c2bbdd895516f55cfed81a04cc5b9555af4d8b8cba01a7a825ec004bbead31b89a133d35fd3a80bd4d3b6f309ccc7e0207cfef2c788efcd79325b1ad248e59294de2b41108ae3c471050f7c29b7c5d08953488d7845c627984afb3fccc5db95a2dd1e27ccd450cc7875b322062f41124d0b676768ea37517d6432799360a6483d9ba5e47a9ae2c3e3d2261ea6568a35896c66f92cade55f0f52ebbd801197b2de53a3007b5641e3d49d0f20a5a02c4b8885acc9338d1b3fa9743c8520e7c2f1f38f68b9eda426c78caf52d3573ca176578922bc9e23f6c695274d783d226c51d94eb08ffd41660c5cdb7a15dff185fb1a8d356fae81bb2e1a721351776b2b56730cf2d7114121d05883224d46140585471a264506324b3cf815c11b352664234ffe2002d7f9373c35bb5796e000c708a4a3b1c7447886cb7a30bee8c3076b5e1f2ab973beaa7881d994c197a573fe2cbb64e79dfd511f77cd01f0de2f940d75bd0c22e072658b46fd83782993947852a823a0280309549a1ffdec6a35e50e42f9bd4d536f5bb57cab1469af0d8bcc927277198d076d361fdf9f25ca1216084ee3933a80bd855d6b323976b47c04691d82aebecf6aa0d9a94668fa0a779e7e6644b358d30b038651b1e386d443b5eafc6ed917ae1a2a03fc037cc90649528bc7d702fe6d37b06992dde23000000",
  "txid": "6f016f2b57207ee53ad3765b5f4707fca93a034f1870207713ecc4850912f31f",
  "hash": "58b4fa3a39fc62bc3ec78b30e39f0e5ebb2522960d5a0e1b0313f39700bf575d",
  "size": 5085,
  "vsize": 2278,
  "version": 1,
  "locktime": 35,
  "vin": [
    {
      "txid": "a6824a7c10e53df66768fc0f46f90b82f507f5d848fba574adf346d990bedbf2",
      "vout": 1,
      "scriptSig": {
        "asm": "",
        "hex": ""
      },
      "txinwitness": [
        "c6527d9a48a511f0eeaf500b2621c5c6efcf034294d2bf51cb8ed5f0bb3570586646d5d62466f29f175e7fe57283904de94e79c6cd2f4319a96e365b6dd255f271d0565f5a9c2882813023ab267a6847b8c06d37138846743403f33d04c288619fbf08201e4a3b4e4c321b0f242d39e44d68fd4386187eaad4c96807ed0cba3bd132cfa9945d80564e415f6d139b01400878d4f799d0c270ca1999d792d5b31946519cd9fd578cd35ce8dbbae22946071aca2297d329c0c493a6655dc2bd0ba0b625145e23e551277de8ca18cadc9f16b0443b2f982bb6f261ad897b738731ae065c28f7b2d6dddf425d5966b70bf81e60e3efb1da98086d93f42e49b3dcd46503fefd234567f8b7b9a8646f2f8a27a91dc595500626f0add59bdd81e2bec11a269127192b62f57d8a175a9d9e41e6611092049c93354abfe60e945b355d0059c4d93376ca9def56f2531b6a83ae4d34c49e4bca8b8e5b7041853712bb48c1dec2e5173b12795c6969bbb06ee705fd883fb388e981583f1790998fb508265933666f3a18c6121b535d1b0ee9f95752668009bfaf0936f422f68e714b8fc2fd173cb107b377bb2987849dec935e23fe6fca515db230f491a5a00d5da8dc30611c7de309a17f1290c101250f43b20d436587b363fcc05e53b08441240eb33227b3c90209a4f19d2ae1aa7b2af8a1c00d4a7e28adeedf653cbcf534adf16ada4d3d8e0965f0f703b6189360d8c3ef09eb3193f912ba23c27f10bb05335da5ad0679548127ace28bb9627d35a65f74773ecae2fd66c029c9c326cfb7e3dced5f9f0fd7fd62ed609c7258cf0c4be0ffb2c6c25c4400304f03cf639155ed7cd39a7523844880145ae39a1d2e64f38a02882f9d0abb7f1c22a7dbe75dc290fd365ddfd231d5ce3222184f362900ab9a3db30ec2f859c9ab4f10b5ebaf3a88ca073d2bd4ddd4dd71178967c2d55ea44ff04faca02a9a151d0658a8380b9c19003270e5765a691927b0c316826f45a31bc553c409fea7ec4cf25230ba7e8ef7fb45a0bd5d6372413087dcf1d9f00bc1a1d9a9faabd7cf074f4ad1d522a0d990c14f8b64cfad165682a6a136b172cc326372b0065c8f8199074d9cd68f9932f874a0d38870e20f72caebfb27346c3753e2b8ddcefe5aa81d4666bc346ffb5497aa47eaadd2c7f9e7d5584260b8ae11d64fc728be6046064c65aa9099d3540c1e4cd3789b16d5e6c501695f58c7000fcb228b3354cc03a38662f12a55a2a9dc663954df9722087e2dc1190af8b14d542d8dbdb6120dec7f78427f7f67bc86050558a69a3f327f4ed6eacd98f4b831d8b60aab7c5ae01b25cb1ee09f5a8343844f46e62f4b2afb3ad8ae76ea0b21bdddcaefa3a237e8074c29d3d9133c9f1475b0ecb4d47e04b86aefc111d0ecbbc952428c30943a133a70359b05dd91ed61c1461eee8a4fba4de7a6e198f9af1fff457b3cd19827c70708922d790212d42c96be605296df87c454b1f9a9c964a35bcbf8ff0b026492c1d2d131b6c4833e3f0fe8f9e21a6bc4fc41c942e2e5e065bf21dc9b315fa881698d22f45debf1f5a69d4c3455653ee5c6ff2eb528563a6f1969d04428eab2f4f44efb40844ca092db048ed5af8f2b32294d8e2aaa81437d3eb43400f0d9f2ba6d18c4967f149526973900e5db8a0cc90d3cf8b1b1291fc624b54704f754426354f254a298b3943048e7f753be3110d3dba8b1b23179e7efda7708342749785839c65867b970549cb7d60f455f7f36d8faa9e355c59a3e3f02a7527c6a78b383f28d152f8879ccd22985e0a534937a8e7b5e105474261407b376901670c8865fda76bdccdcaac8e111126c811f354af7ca09ba522e71ae642bc5c0b92d35ba5776f88ff7f420d9663d04ac9261a061bf8bb54899fd5000121a8c27dd3e233c2bed2c0ccc752034c281db611f0e31cced8b4f3b33121b995eb5a3c410eeb058dfb0dfcf5a9a50600394eaef3e718cd9aca16907765c14523c1d3484e33cf655ec9eca8044f1fa9807aed16141225cb8d9c76ca68ae8d31b7c9aed494b8f46d2b97ffcee862add946173d8d3be679cbc71362d87cffb54d62bc77ba2324edf543cdffd35cbc9bc550a9625c828a793e34603775961d1ac69821552231a310f17726cff8cd36af3cf8644c77d102f2815792950e591d0a8526524d350ef27dbff4b5b8fb729b6eb21f2718b9726327a05fbc780752d89e41ec86bd83891bfac0460bb10831b15e4cf1188d915fae416ce2df7dd8d70a356ac05a85b15acd711058307cea6f5066d3e9ef34cce6f2ce1755b97fb0ff241c7f022adfa98f5d0a3100166eba2b8f72589984adb73448be27e21b0f26eaeb4bacf866dd0d35a9e675e829e3605f861c36dd3e6eb828a6da639c5d0e33ae2617662fa678e8b86c62e809c141eb05325fea3bd48f7c5ff13c102e73006c6683ec2de19c5b439e3cdc818a79361bc7f9a4e19035f4ce56bde7a2a3557daf6ba2e1bd5f1a5c11bf8df3d9e298d5636410f6651f51ee08faec17b7cc88d4c90efce59084b998f8ef8bb05384a086bcb09eafa4562d3d33ba1b8aab1f8cc53fae044988687a85c60e3d310f566b70854d1d128118f611afb3ef34df0a2aa90618622e502525171e659f4a7bc9d90e04a73bb6dd34a188abecaaddd694414a7d81d0122fc1c97b3236558e4015e58cb73a978f80e0ed8c7723a871bc5bfa52eb4ce89e02da9ede1cc625fd2e4e55158d837cb954489d6bc857e70703a408546f8194d58f69e8e4f7b178498ae9bb3d75a8bd6a87b1ceb3bd22876ac698e2fcab9ff25c6e3455df0d31ecf984403674f38f3021430e270ec3f9e8d371ed04da49108543c480a5f46c87fe97dbe3d19bcb6adf859a4125c58dcdc107d1753d2cd88cbee729dea9fc3914310f98dd4e5b6aea7034aad9363c32754780b8ede8ed20c8b0e0aa3d2b4d310400f45e7a1cb1abd4d2f89a474567a30f376926bcd16b2c9de502555c19f22b78a7ea2da9d3700aa0a2aaebd8d677690e330da03de380b8b6f4aa3811c6fb949f65d774c0353a5c6c44ec5098f9bf275733715ed23fa4437176dd8cc0f891c6159a5cde3d66c37d9bbf5183f84065f26bb274ebc185e401206c0080ee3d5db52c7996773e0dd9abdc3d6fe236937a04cd80ee4559bb86bdce2e965395361f85e29b295b090ea74d53aa52472fbc48582eeefa8a0659f97da155e51ac17f1c017542d48ea9bb07e34b500cf9c4b807230355cd46c33fa0a0e1481dd51e0e45c3b7aa9162de284bd87afbf5be4e80c25c446c3346692242e677e819ab5bbcddce5fd2022272c3a3e465758668a9babacc6d1d9dfe4eb0a272b2e4c595a616e70717f83939eb5bac2d3eeef111419282a436f7079818c98cdedf40000000000000000000000000c20354401",
        "00415b5863e2b94916d4ecc50f344e0ca62c4dbef0aabd148338f152b6109dbd98be8405f01d63c3c72e7dc45bdb94544af3cc9db301ad978e4dc9540d575eb108dd3d14eb54a2cd3b9ae037f7997aa7ccb641479bf4d9408461ab6354e8422f9fab7775f359a432fb2e0d2867da11227d0c9eaaf3625a1a6f778c871368af177a8943dd82315bf31c7effe8699fee9394ce7f30f8f6b869b9490045caee4dc62f83eeea4b0f445516b8036bce0c51e2e847b91a113c59ab5ecc3f53fe7e8c029a68e8c229a71968d0070d46844b2f6c94a4ca84b0bd9dbdf12b60d02eb5a0fdae6f44e488c294ef079c2975477c6cc1959119f6037738b131231c445297b1c9e5fb3e557b730e116a663405882c55f5321e46ded41a5519204ba4b360c704f740cedaf7e3f75367686d7d65c0f085a9938d68d5a01eaa6a34936fa4b1e84f617543a3cf702a9e12929488606a317c229121b9a62a75deb232b822f87e53149488fe840d9632c003d71e22f757d041df4c372a17697c94451f84d202e464e9103c2a98018188db18d5042653f02bebc05d5ebfa4960095125189f0eef7245ccdffccd60ca6c3fd2df9b9bfc90af057807e3b7d8cda2c89307bc18cf332cbd7af3b3c5e8ab605dee822febfc7fd5d8d242173c288fe621ff5b26775b484739e878697e4b4465ae357e5060ae1a4c8634618544c5aeaedcb80893247a17e8bb36213995f9abb0452b66b173ad97a84e8e83b0427a43ec31fff7336ed029cca15787f9751de4c0e098c7310041302c6d093cbdfbcaf39e6e4d33e2017fb3284397488f8438589e2c3451dba423f1095de916744c4d7fad4ad58e192101daca002bf22f012b1139384d7ca2b8b4837a59bc5978c3b2c84e3de2ae7e3d3ebdd76a726b4b728a4694e623dfa2830edfc6ab54aabb2613919819545c81dde51542509f0cc87ad7e86c592d14c142b6a30060908d0b48c22af913f76661893587f51a40559d6acdad90a208e15a2a3e5e775cef5ec99d542b4a2ff5aa0ab365ec3d10d50651fe21013dbf1136dd48a977552baf82675d734407b884bf528b3f7485444839fd4bd951ecaa1ef754257b39701b719cef211a0c3bd0d069a7bcc8647e036655ad6fa88f5b70c3876e49bc81ff9dfeaee2b94515e213711c2bbdd895516f55cfed81a04cc5b9555af4d8b8cba01a7a825ec004bbead31b89a133d35fd3a80bd4d3b6f309ccc7e0207cfef2c788efcd79325b1ad248e59294de2b41108ae3c471050f7c29b7c5d08953488d7845c627984afb3fccc5db95a2dd1e27ccd450cc7875b322062f41124d0b676768ea37517d6432799360a6483d9ba5e47a9ae2c3e3d2261ea6568a35896c66f92cade55f0f52ebbd801197b2de53a3007b5641e3d49d0f20a5a02c4b8885acc9338d1b3fa9743c8520e7c2f1f38f68b9eda426c78caf52d3573ca176578922bc9e23f6c695274d783d226c51d94eb08ffd41660c5cdb7a15dff185fb1a8d356fae81bb2e1a721351776b2b56730cf2d7114121d05883224d46140585471a264506324b3cf815c11b352664234ffe2002d7f9373c35bb5796e000c708a4a3b1c7447886cb7a30bee8c3076b5e1f2ab973beaa7881d994c197a573fe2cbb64e79dfd511f77cd01f0de2f940d75bd0c22e072658b46fd83782993947852a823a0280309549a1ffdec6a35e50e42f9bd4d536f5bb57cab1469af0d8bcc927277198d076d361fdf9f25ca1216084ee3933a80bd855d6b323976b47c04691d82aebecf6aa0d9a94668fa0a779e7e6644b358d30b038651b1e386d443b5eafc6ed917ae1a2a03fc037cc90649528bc7d702fe6d37b06992dde"
      ],
      "sequence": 4294967294
    }
  ],
  "vout": [
    {
      "value": 1.0,
      "n": 0,
      "scriptPubKey": {
        "asm": "OP_RETURN 00f5e0f99558da2e5f77b70ae350bbbc878dae45a6db3845561005be3ef519e7 40862ac6d28e5d09ad29466e73ed255e7e0a34c4a4e6358366d5453a76f04a6360a60ae6f2ae7d298d09664e53cd057e5e2a14e484c615a346f5651a56d06a4300c66a8692ce1d49ed69062e33ad651e3e4a7484e4a675c32695057a36b00a2320e64aa6b2ee3d69cd49260e138d453e1e6a54a4c48655e306b5255a16902a03c006aa46520edd892da9c6eef36da5defe8ab4442466b503e655c5baf670cae3e0268a66722efda90d89e6ced34d85fedeaa946404469523c675e59ad650eac38046ea06124e9dc96de986aeb32de59ebecaf4046426f543a61585fab6308aa3a066ca26326ebde94dc9a68e930dc5be9eead4244406d5638635a5da9610aa8340862ac6d28e5d09ad29466e73ed255e7e0a34c4a4e6358366d5453a76f04a6360a60ae6f2ae7d298d09664e53cd057e5e2a14e484c615a346f5651a56d06a4300c66a8692ce1d49ed69062e33ad651e3e4a7484e4a675c32695057a36b00a2320e64aa6b2ee3d69cd49260e138d453e1e6a54a4c48655e306b5255a16902a03c006aa46520edd892da9c6eef36da5defe8ab4442466b503e655c5baf670cae3e0268a66722efda90d89e6ced34d85fedeaa946404469523c675e59ad650eac38046ea06124e9dc96de986aeb32de59ebecaf4046426f543a61585fab6308aa3a066ca26326ebde94dc9a68e930dc5be9eead4244406d5638635a5da9610aa8340862ac6d28e5d09ad29466e73ed255e7e0a34c4a4e6358366d5453a76f04a6360a60ae6f2ae7d298d09664e53cd057e5e2a14e484c615a346f5651a56d06a4300c66a8692ce1d49ed69062e33ad651e3e4a7484e4a675c32695057a36b00a2320e64aa6b2ee3d69cd49260e138d453e1e6a54a4c48655e306b5255a16902a03c006aa46520edd892da9c6eef36da5defe8ab4442466b503e655c5baf670cae3e0268a66722efda90d89e6ced34d85fedeaa946404469523c675e59ad650eac38046ea06124e9dc96de986aeb32de59ebecaf4046426f543a61585fab6308aa3a066ca26326ebde94dc9a68e930dc5be9eead4244406d5638635a5da9610aa8340862ac6d28e5d09ad29466e73ed255e7e0a34c4a4e6358366d5453a76f04a6360a60ae6f2ae7d298d09664e53cd057e5e2a14e484c615a346f5651a56d06a4300c66a8692ce1d49ed69062e33ad651e3e4a7484e4a675c32695057a36b00a2320e64aa6b2ee3d69cd49260e138d453e1e6a54a4c48655e306b5255a16902a03c006aa46520edd892da9c6eef36da5defe8ab4442466b503e655c5baf670cae3e0268a66722efda90d89e6ced34d85fedeaa946404469523c675e59ad650eac38046ea06124e9dc96de986aeb32de59ebecaf4046426f543a61585fab6308aa3a066ca26326ebde94dc9a68e930dc5be9eead4244406d5638635a5da9610aa8340862ac6d28e5d09ad29466e73ed255e7e0a34c4a4e6358366d5453a76f04a6360a60ae6f2ae7d298d09664e53cd057e5e2a14e484c615a346f5651a56d06a4300c66a8692ce1d49ed69062e33ad651e3e4a7484e4a675c32695057a36b00a2320e64aa6b2ee3d69cd49260e138d453e1e6a54a4c48655e306b5255a16902a03c006aa46520edd892da9c6eef36da5de6410dbc4ca4f6bb763b8da870418b1e747be1e2029c278482592631e0bfdab6d",
        "hex": "6a2000f5e0f99558da2e5f77b70ae350bbbc878dae45a6db3845561005be3ef519e74db00440862ac6d28e5d09ad29466e73ed255e7e0a34c4a4e6358366d5453a76f04a6360a60ae6f2ae7d298d09664e53cd057e5e2a14e484c615a346f5651a56d06a4300c66a8692ce1d49ed69062e33ad651e3e4a7484e4a675c32695057a36b00a2320e64aa6b2ee3d69cd49260e138d453e1e6a54a4c48655e306b5255a16902a03c006aa46520edd892da9c6eef36da5defe8ab4442466b503e655c5baf670cae3e0268a66722efda90d89e6ced34d85fedeaa946404469523c675e59ad650eac38046ea06124e9dc96de986aeb32de59ebecaf4046426f543a61585fab6308aa3a066ca26326ebde94dc9a68e930dc5be9eead4244406d5638635a5da9610aa8340862ac6d28e5d09ad29466e73ed255e7e0a34c4a4e6358366d5453a76f04a6360a60ae6f2ae7d298d09664e53cd057e5e2a14e484c615a346f5651a56d06a4300c66a8692ce1d49ed69062e33ad651e3e4a7484e4a675c32695057a36b00a2320e64aa6b2ee3d69cd49260e138d453e1e6a54a4c48655e306b5255a16902a03c006aa46520edd892da9c6eef36da5defe8ab4442466b503e655c5baf670cae3e0268a66722efda90d89e6ced34d85fedeaa946404469523c675e59ad650eac38046ea06124e9dc96de986aeb32de59ebecaf4046426f543a61585fab6308aa3a066ca26326ebde94dc9a68e930dc5be9eead4244406d5638635a5da9610aa8340862ac6d28e5d09ad29466e73ed255e7e0a34c4a4e6358366d5453a76f04a6360a60ae6f2ae7d298d09664e53cd057e5e2a14e484c615a346f5651a56d06a4300c66a8692ce1d49ed69062e33ad651e3e4a7484e4a675c32695057a36b00a2320e64aa6b2ee3d69cd49260e138d453e1e6a54a4c48655e306b5255a16902a03c006aa46520edd892da9c6eef36da5defe8ab4442466b503e655c5baf670cae3e0268a66722efda90d89e6ced34d85fedeaa946404469523c675e59ad650eac38046ea06124e9dc96de986aeb32de59ebecaf4046426f543a61585fab6308aa3a066ca26326ebde94dc9a68e930dc5be9eead4244406d5638635a5da9610aa8340862ac6d28e5d09ad29466e73ed255e7e0a34c4a4e6358366d5453a76f04a6360a60ae6f2ae7d298d09664e53cd057e5e2a14e484c615a346f5651a56d06a4300c66a8692ce1d49ed69062e33ad651e3e4a7484e4a675c32695057a36b00a2320e64aa6b2ee3d69cd49260e138d453e1e6a54a4c48655e306b5255a16902a03c006aa46520edd892da9c6eef36da5defe8ab4442466b503e655c5baf670cae3e0268a66722efda90d89e6ced34d85fedeaa946404469523c675e59ad650eac38046ea06124e9dc96de986aeb32de59ebecaf4046426f543a61585fab6308aa3a066ca26326ebde94dc9a68e930dc5be9eead4244406d5638635a5da9610aa8340862ac6d28e5d09ad29466e73ed255e7e0a34c4a4e6358366d5453a76f04a6360a60ae6f2ae7d298d09664e53cd057e5e2a14e484c615a346f5651a56d06a4300c66a8692ce1d49ed69062e33ad651e3e4a7484e4a675c32695057a36b00a2320e64aa6b2ee3d69cd49260e138d453e1e6a54a4c48655e306b5255a16902a03c006aa46520edd892da9c6eef36da5de6410dbc4ca4f6bb763b8da870418b1e747be1e2029c278482592631e0bfdab6d",
        "type": "nulldata"
      }
    },
    {
      "value": 499995.9324,
      "n": 1,
      "scriptPubKey": {
        "asm": "1 357a97cdb7015af729d28aef6ab4abfade4ed44e3409a90d391bebb1d5da2911",
        "hex": "5120357a97cdb7015af729d28aef6ab4abfade4ed44e3409a90d391bebb1d5da2911",
        "reqSigs": 1,
        "type": "witness_v1_scripthash",
        "addresses": [
          "3QJmnh"
        ]
      }
    }
  ],
  "blockhash": "15af9b025c636b87e0a10c18a1a8de0e5f3c2069ad563b293161176d75df89a4",
  "confirmations": 1,
  "time": 1764174659,
  "blocktime": 1764174659
}