{
  "hex": "01000000000101ac3b87159289fda775b266fa56714882e2d08321a9c7d2d7abe7c8ae73cab2550000000000feffffff0270cc3221792d000022512037d93382947e3319296f4bb366ad7f03e69e7a4765970c144b34e1be0e2414aa00e1f50500000000fdd5046a201e8ecf3abc3a7cadfcd8b78dbb7f0074f4d23dd883d7a92841cb8ec3a3b1761a4db004ce89900dee5a9382b40460f23905a46f9d6c4e00b85487e8a7904495680c0c90eea9b02dce7ab3a2942440d21925844fbd4c6e209874a7c887b064b5482c2cb08ec9d04dae1ad3c2f44420b27945e42fdd2c0e40f814c7a8e7d004d5284c4cd0aee9f06d8e3af3e2d46400925965c40ffd0c2e60d834e788c7f024f5086c6cf04e09108d6eda13023484e072b98524ef1decce8038d407682710c415e88c8c106e2930ad4efa332214a4c05299a504cf3dcceea018f427480730e435c8acac300e4950cd2e9a534274c4a032f9c564af5dac8ec07894472867508455a8cccc502e6970ed0eba736254e48012d9e5448f7d8caee058b467084770a47588ecec70ce89900dee5a9382b40460f23905a46f9d6c4e00b85487e8a7904495680c0c90eea9b02dce7ab3a2942440d21925844fbd4c6e209874a7c887b064b5482c2cb08ec9d04dae1ad3c2f44420b27945e42fdd2c0e40f814c7a8e7d004d5284c4cd0aee9f06d8e3af3e2d46400925965c40ffd0c2e60d834e788c7f024f5086c6cf04e09108d6eda13023484e072b98524ef1decce8038d407682710c415e88c8c106e2930ad4efa332214a4c05299a504cf3dcceea018f427480730e435c8acac300e4950cd2e9a534274c4a032f9c564af5dac8ec07894472867508455a8cccc502e6970ed0eba736254e48012d9e5448f7d8caee058b467084770a47588ecec70ce89900dee5a9382b40460f23905a46f9d6c4e00b85487e8a7904495680c0c90eea9b02dce7ab3a2942440d21925844fbd4c6e209874a7c887b064b5482c2cb08ec9d04dae1ad3c2f44420b27945e42fdd2c0e40f814c7a8e7d004d5284c4cd0aee9f06d8e3af3e2d46400925965c40ffd0c2e60d834e788c7f024f5086c6cf04e09108d6eda13023484e072b98524ef1decce8038d407682710c415e88c8c106e2930ad4efa332214a4c05299a504cf3dcceea018f427480730e435c8acac300e4950cd2e9a534274c4a032f9c564af5dac8ec07894472867508455a8cccc502e6970ed0eba736254e48012d9e5448f7d8caee058b467084770a47588ecec70ce89900dee5a9382b40460f23905a46f9d6c4e00b85487e8a7904495680c0c90eea9b02dce7ab3a2942440d21925844fbd4c6e209874a7c887b064b5482c2cb08ec9d04dae1ad3c2f44420b27945e42fdd2c0e40f814c7a8e7d004d5284c4cd0aee9f06d8e3af3e2d46400925965c40ffd0c2e60d834e788c7f024f5086c6cf04e09108d6eda13023484e072b98524ef1decce8038d407682710c415e88c8c106e2930ad4efa332214a4c05299a504cf3dcceea018f427480730e435c8acac300e4950cd2e9a534274c4a032f9c564af5dac8ec07894472867508455a8cccc502e6970ed0eba736254e48012d9e5448f7d8caee058b467084770a47588ecec70ce89900dee5a9382b40460f23905a46f9d6c4e00b85487e8a7904495680c0c90eea9b02dce7ab3a2942440d21925844fbd4c6e209874a7c887b064b5482c2cb08ec9d04dae1ad3c2f44420b27945e42fdd2c0e40f814c7a8e7d004d5284c4cd0aee9f06d8e3af3e2d46400925965c40ffd0c2e60d834e788c7f024f5086c6cf04e09108d6eda13023484e072b98524ef88613b45e417d4cfdc1e08d76568a06b0998c0481562695975cc2d61cbb60a5902fd7509788e11f05afb1caa48ae0f4cd466956196e282707bbf02ca36352a6fb2508c8cee4172062e9a185de8a28f1249b680ac7d6cd79fbb72a7d9d95948174ef9b07da9c3047364bd1f73355a4b43494d01adcb1129a7abbffc4341f35cf1971650a03b8595426b5d053d99d2a1a5b271fa0881a919b2d4ed841e1c2f29fd3f4456de6492a6d4bd5ce3ee0d72a538f4e1e9e162b6f10d50a5dcf91701a6f054a15420c5a3494d4c61cb25b77649f9c3b248d4479d343f53190baee41e55443b4f0b99ba32fba940d785c697be3e905b8a2b012c9e466b262bd7f3b5cc1e945eabe582208a33b3e32c8a950055a39cbb341988e9626c3d456b4860614e4f6fd86b74c080a5d19360bc811129b8bc0af4de703790ccef5af77f05fad54a1146c9116c5e10a9691f58bbefac6d832582c25839ddb549bf41eaa58e85fdffc9bdb207775b694b1939f93364a0ab758d4fa95a6183be62ff0fd281b56afe66e6759562b80358b0319bdd999419cfb2b300385fb199286d5dea9d1070d34a5e19294334a2bbc7c57ba6ac506d36b24e531af62ada904084edc1c306443ff681eaec704c7b60777e87eca5748aba04902224aed0a4c8ffbd5fa9444d076392653fea9dbbf46f287329b18c40d3315966b79451713b6200209166614dbf64b1a5bde00acffa7da39efc56d79ca315166918a128b1b6cbe5bd4f7cf5bd558f67648651db8aa698cd16e054464a5c9a261ca59a1fa0041fb5e4e75b94ebb141db31e584b8c98a56483f400a2b647c5e086ec29719840f7c50714b1b44a0a3c24007540d207d7e848557cd5e392657e4c54d836fe915604c02e7ed477ad95cc3e3c68f1d93c03e1c0fce292347c2b54089a30fb71541d3da66f95a47922d4c70db3b2180ba1206b896e8d98ee5fae70ce384640ff45e5bfbf9d3e3da00ea1301f5d3b8445220e37aadb33566624323d52fc5df56847b8e2029e7ee7fd3793f63a032e944f6cf52b4035451b8b70dcd9c4878c9923ee448940a0a4e938b14ad93fd70f3e7b5f005ded594650c4434f4b70e1e2e1396f604da655a6a04319c5c422fafd7f31b58dacd9b6e9a3f559424b8e00d266e6881a9895b07361b631fb2583cef6cd5a0359b324f5c3aae7415842860548ab00e3cdb980f0c41b809704fc7169241366ed1f087d7d57cbb88927e5a3e99ded727462084e008bbf25a200bf3696adc19afd37b19dcad09ba7586c24dfec583d089020fa3195719348cd013817a87f1093de697f31bf849c6656439ea7afc4a28ec64e822ab56ff6ac9748eda7fe59e90a90b27dfbad14650560df53171a3103bbb9cbad5d2097d6fb3a9b1bf13a06bb822fc824082d9bc418be466f846a0e212630425790c71ff4bd5c8e4de872526b96f580b4f4b3fe67acda5fe80afd997f50582ce15326d75d188a2d20c7d585bd74f12b39ba9818f234b8250bcaf09d05d0cf248f33741bd35198be40ad57403092570d8286de65fb1798b59809c57559e1f1d1defde38a715c50e97e1da7438db92f2a2818a796b3a94d3f405bea1db6b5fbe338c145e07f8e03b99526d5cb80ae0d74d85ca2ade8e84be3439348aac4779b00dffb4c63c52c8c17cbc2e497ef5e3fa3095dfd576c453ecdf70cfcf86a676788651588a30c81bd7ebf1b863782ab6084896a0368f2561b7fb0a701c942ac28f0d5070bff813803295040f3dd921934e380e11c6eeae6ee1730427c387f819d32eead223c79fdaae298dc87f77988fe5fe05cda77a628eb96f72fdbd4fb3531d654b87fd8792db5578f2afb2689140d94abe7ced81efa80b5d933f073455a73a027998bd6b811143ada4efc845c46bac5f04f76386f9c91d5ffdc4a89bd6c71858b39b5612dbc22f6a9c0d4bedce2b7e70b51eac9b5a5cb09b2525787b49eb3859055c06a9a7d9fc9f66cac2ad4367f9e7301ce482f42543d3ef30c46348623ce4cc3e6d8cf1742763cac66b0dd84824740cf09d404b3d9ee50867147df7ab46990858c79a914d0ec1f300b14aaaa06bc47f246026e4c286934475941a87567773c6f783041b8bc9dd0e8192b7015e46ad97a1717d58112df8343c8092825299095fce94fdb04873fda2336baae0c69a865d535b5923b7424725ae7038cb72814e3fd78e6ad043cab5b7582fc458165fca0b13b2f4515b269278c96102fcc101e1ac923e76c8be24870202705e910098232aa1368661612ca17d52bc26e8d73ca0ce2fed07e0cad5dec3d363aba9ac5b040da96287327657b7759d2affae31a8919186ab201adbec5f6ba1cd0d568561b0e07fad9babee406c66be0d1b8f129a6655273406a6e1f8b37b3a542d75e3f1d7b2157464fb90c27b4c4db0250f79362d0c3208269e1883da43da98100612b9e4a91b02b8a3e312fce15c56217018e44417f99bbed66452b4cf9d6ebe49856dd6c95c52d556ddd70354940f57919aa453401689476c1530cbbfdcdccf394821fb81f63777350911e7fad260fef8c88db7f5a5095d44445bd54df04d51462478af6de4286b3ce16d373c10165713d3747a3533d3fed8ea2ee49a98013313144f37e742b57dcddb7557f369bc6e54cd6c4375d66cb571f1f621e684046b56082aa4e11727c02dd1f4d7f452116cd3780c677d626832e8dd2d5894515149898db323d0a9662f8ba23f5e1b3bfa251a7d302f17da1bff93dd6d5ec366a18385572a2a95b8c83d066c5d1a074584bd925c0049ce35d3cabff7515cc1ce62abd8dda31685b4ac449cb1cd4af929315a0652b09afe474eafe5c876a8866053a6570516db4c8f0ae42a7d3aa2aab6899d236b4e134ae8978883d71809531a017d25bc467a3079f60000e74faf3b946a40fe3ff9abf66b73b92caa28bba9f7691d3df2dfd99d71f43af23e3931adcb119fdef00a7bf6ab42e6b850966ea2e1854e79a5e4fcf3552f1beafa990bb28043daf0013c96fdae55b8c5c81a7d4b1bec07488cdf511c3b634f26fd87021cdd604de068f60b18bdfa5596c9d1ae17533c5766c5edfe2bf751b28a3b270ce321156e08f20e89ba766e22fd8550710da533e1f44d9c727d9783690ec4bb52a691db6253e53a4eb8cb29476fd87ff2fae31e3f4509582be43ac834e656379f71d7a15280648a81aba2cd4abc2927c12e1d34f64b144d9d314f2a27e005364956027f817a7ab117938d318b51899eac56fc96ff3061148e6d3d444c9185ea450aedc29e85ddf888fa2215fb5dfa880321d270f1c4de5ac4a37ba7269fb8907025c2badabf26da3d0dca5700a9606879c013ed00d8b8bf68e125292e3a595b9dadc6f0fe0f182f3d5c5f69757d879596a7a9aeb7ccd2d3e5eb1517283136426377989fa8bac7f4f803080b22232c3035484e52547b99bed8dcddedeef6f7f8fbfcfd000000000000000b202f4901fd2105008b3891862d6d13e5f845e9565743c114e893eda39b5cf954ad4d46dd7775c825e3356144d4ad55936be66be01ad808c6c5ab15548bc0164bb89273b471bbb604bbc3c775f1c2a918adb7514c060d419e624007166785c918214306b595b6090875c35ebb2035c5e7e4b49afd59cdc354ec993d1c6ffc7c040fe43ec1ffa178c6ca12d9cbb26e5307196da1313f1df997eaea017ab7a967df15a299f6b6e5206e6e120ab491902bfbdd77f6792204f2511921b52ff325dbbc296ae42f229623f292edd5aa828fe73f2fedd4a217fdcc2c1fad299ec38b9a547143eb75087af64f888351870f1049bf5eebc0cc77f99152fa0fd78a2fc48b069e66f53a1c2ac12f111d41356696364aee98d014255b2876ac5fe03d0686333e88cdfe5a8ae72c897a53813a4f40564d90b5a5d7844883d9b02d8a9e0178371eb29ecd8e66a1a55fed3ab29279675e05d8f14cda85248617fab0ba97b45f96cce217ff9a9ee38aaba07a18306ba1cc3a68aa267d2790402370c767ccac18227cf1f328d700b335a560e2ff2c2e6db99844735c67f7e35e5d1ceee46ac36a6533d40046cb04631b532bd70bb8497fe9d3c9730e316ed59a345537f047e34c5e7f63e0b286601bcfc3278023b2129ae2a9947ca3dc328237c5a5d39ab9f0c16c8dbae149fe4306bf9306711094ac028197846e617cc33845c35bb8fd89611a97f3a745072b4bf1f2ec88e5327883bf041162befabe05c2db247e4d80bfd7c315de7f50de2759c7907b28962b2d9cb8c7845b2d84c2acb47f71bfbf6b83ebc2d018b04b799442e4efd7c56394f43725df8b6d2c7c62c142514a4e2ac034d6525ba26cbe16cea62ff486110d99d1c545c65938b64aca89ec1b9942e9cc75f4e55fe3d3f61967f329608a2c331f4baec7e5cc1905216a365a1d2d418095b2f68d236ef1e385d9c786ae2d746f8563589f5987f3d6a86854c42e6acb98c9069ecba9e21163131e64e2264eebcdbc5a2fc7c53673490143b7890caceeadbb4c3bc8f0b129a098fe4dcaa7da463fa9839b25f9c63a86be275d89e4a3357055558a3bdeda4cd71dea70f42a4b18ba6272d4f8984f419653cb88b2fddc39f508caa0c19b4960ca0c5cf7515f801de5faf0c18cf09e420909e1d9608d7751a73027b55ff9d1be68f587885e64ee047378e236953aa2ce145fb22168b7da0a0830a72a236435496ed3ab60307d09cc7d45d1e767cbc6fb6f58c75dbe6dbb2eea41f775d2d3946cc386d18b1f71de40c332a408ddf1dfe5b520f41b4d0e7893e0ab3633778bff9dacf4b3b3be620165a10df8261a66e85f3f6b6d0c76c36bac8e2e8e924046b23163af9bd7027ec8890a9e8a56ba1dd89f3b50257d2b3aef04b028914eb44b30bbad0b8a2874878ede3cb0a4c4b28b8e727da7585639e875eb6725e963dbce73060f8b684cb89d7e524787bfc576451ef0055b508ec60c1f76c5608a4f8935f6f68dba2089ccc4f0d85c192c3510024dd661bbf026eff273701447cc000611545564f1cbb93c6d18aec6dac05896fe93b1a0f95985e06149820becefd28d9aac3dbcb2b6003614e4d53941f24ce78c583fd1bf3bdc4b8ee88455a97004fb066dd4e33740ee496b98feeed8b05547e13665748d78234018a92d1505a1d48b0ae3e4040087609f5a35b5acc8884b86a387ecfc1f160d9be5d188dfdfd122cbef65cafd38163c524bd03b1161803a5395184076f65d5e620206048fe289a2dd616e7fddf0b8685e9e680b84ea05e4e70f969fc1bcf719a5b31e41c6975563b1191879610cd7112af530c3896b9255a14f507d43f8bccea7edf4d6dd6019515c4242f57130d1267bbe2986000000",
  "txid": "6604f37d48852facf61bd1d8327177e11aced704776dc5eef5bf2c6dcf89591b",
  "hash": "1ce9b739d765cc960dfeb76190fe8f18c27d61303d46a45ad8d039485d9bdafa",
  "size": 5085,
  "vsize": 2278,
  "version": 1,
  "locktime": 134,
  "vin": [
    {
      "txid": "55b2ca73aec8e7abd7d2c7a92183d0e282487156fa66b275a7fd899215873bac",
      "vout": 0,
      "scriptSig": {
        "asm": "",
        "hex": ""
      },
      "txinwitness": [
        "788e11f05afb1caa48ae0f4cd466956196e282707bbf02ca36352a6fb2508c8cee4172062e9a185de8a28f1249b680ac7d6cd79fbb72a7d9d95948174ef9b07da9c3047364bd1f73355a4b43494d01adcb1129a7abbffc4341f35cf1971650a03b8595426b5d053d99d2a1a5b271fa0881a919b2d4ed841e1c2f29fd3f4456de6492a6d4bd5ce3ee0d72a538f4e1e9e162b6f10d50a5dcf91701a6f054a15420c5a3494d4c61cb25b77649f9c3b248d4479d343f53190baee41e55443b4f0b99ba32fba940d785c697be3e905b8a2b012c9e466b262bd7f3b5cc1e945eabe582208a33b3e32c8a950055a39cbb341988e9626c3d456b4860614e4f6fd86b74c080a5d19360bc811129b8bc0af4de703790ccef5af77f05fad54a1146c9116c5e10a9691f58bbefac6d832582c25839ddb549bf41eaa58e85fdffc9bdb207775b694b1939f93364a0ab758d4fa95a6183be62ff0fd281b56afe66e6759562b80358b0319bdd999419cfb2b300385fb199286d5dea9d1070d34a5e19294334a2bbc7c57ba6ac506d36b24e531af62ada904084edc1c306443ff681eaec704c7b60777e87eca5748aba04902224aed0a4c8ffbd5fa9444d076392653fea9dbbf46f287329b18c40d3315966b79451713b6200209166614dbf64b1a5bde00acffa7da39efc56d79ca315166918a128b1b6cbe5bd4f7cf5bd558f67648651db8aa698cd16e054464a5c9a261ca59a1fa0041fb5e4e75b94ebb141db31e584b8c98a56483f400a2b647c5e086ec29719840f7c50714b1b44a0a3c24007540d207d7e848557cd5e392657e4c54d836fe915604c02e7ed477ad95cc3e3c68f1d93c03e1c0fce292347c2b54089a30fb71541d3da66f95a47922d4c70db3b2180ba1206b896e8d98ee5fae70ce384640ff45e5bfbf9d3e3da00ea1301f5d3b8445220e37aadb33566624323d52fc5df56847b8e2029e7ee7fd3793f63a032e944f6cf52b4035451b8b70dcd9c4878c9923ee448940a0a4e938b14ad93fd70f3e7b5f005ded594650c4434f4b70e1e2e1396f604da655a6a04319c5c422fafd7f31b58dacd9b6e9a3f559424b8e00d266e6881a9895b07361b631fb2583cef6cd5a0359b324f5c3aae7415842860548ab00e3cdb980f0c41b809704fc7169241366ed1f087d7d57cbb88927e5a3e99ded727462084e008bbf25a200bf3696adc19afd37b19dcad09ba7586c24dfec583d089020fa3195719348cd013817a87f1093de697f31bf849c6656439ea7afc4a28ec64e822ab56ff6ac9748eda7fe59e90a90b27dfbad14650560df53171a3103bbb9cbad5d2097d6fb3a9b1bf13a06bb822fc824082d9bc418be466f846a0e212630425790c71ff4bd5c8e4de872526b96f580b4f4b3fe67acda5fe80afd997f50582ce15326d75d188a2d20c7d585bd74f12b39ba9818f234b8250bcaf09d05d0cf248f33741bd35198be40ad57403092570d8286de65fb1798b59809c57559e1f1d1defde38a715c50e97e1da7438db92f2a2818a796b3a94d3f405bea1db6b5fbe338c145e07f8e03b99526d5cb80ae0d74d85ca2ade8e84be3439348aac4779b00dffb4c63c52c8c17cbc2e497ef5e3fa3095dfd576c453ecdf70cfcf86a676788651588a30c81bd7ebf1b863782ab6084896a0368f2561b7fb0a701c942ac28f0d5070bff813803295040f3dd921934e380e11c6eeae6ee1730427c387f819d32eead223c79fdaae298dc87f77988fe5fe05cda77a628eb96f72fdbd4fb3531d654b87fd8792db5578f2afb2689140d94abe7ced81efa80b5d933f073455a73a027998bd6b811143ada4efc845c46bac5f04f76386f9c91d5ffdc4a89bd6c71858b39b5612dbc22f6a9c0d4bedce2b7e70b51eac9b5a5cb09b2525787b49eb3859055c06a9a7d9fc9f66cac2ad4367f9e7301ce482f42543d3ef30c46348623ce4cc3e6d8cf1742763cac66b0dd84824740cf09d404b3d9ee50867147df7ab46990858c79a914d0ec1f300b14aaaa06bc47f246026e4c286934475941a87567773c6f783041b8bc9dd0e8192b7015e46ad97a1717d58112df8343c8092825299095fce94fdb04873fda2336baae0c69a865d535b5923b7424725ae7038cb72814e3fd78e6ad043cab5b7582fc458165fca0b13b2f4515b269278c96102fcc101e1ac923e76c8be24870202705e910098232aa1368661612ca17d52bc26e8d73ca0ce2fed07e0cad5dec3d363aba9ac5b040da96287327657b7759d2affae31a8919186ab201adbec5f6ba1cd0d568561b0e07fad9babee406c66be0d1b8f129a6655273406a6e1f8b37b3a542d75e3f1d7b2157464fb90c27b4c4db0250f79362d0c3208269e1883da43da98100612b9e4a91b02b8a3e312fce15c56217018e44417f99bbed66452b4cf9d6ebe49856dd6c95c52d556ddd70354940f57919aa453401689476c1530cbbfdcdccf394821fb81f63777350911e7fad260fef8c88db7f5a5095d44445bd54df04d51462478af6de4286b3ce16d373c10165713d3747a3533d3fed8ea2ee49a98013313144f37e742b57dcddb7557f369bc6e54cd6c4375d66cb571f1f621e684046b56082aa4e11727c02dd1f4d7f452116cd3780c677d626832e8dd2d5894515149898db323d0a9662f8ba23f5e1b3bfa251a7d302f17da1bff93dd6d5ec366a18385572a2a95b8c83d066c5d1a074584bd925c0049ce35d3cabff7515cc1ce62abd8dda31685b4ac449cb1cd4af929315a0652b09afe474eafe5c876a8866053a6570516db4c8f0ae42a7d3aa2aab6899d236b4e134ae8978883d71809531a017d25bc467a3079f60000e74faf3b946a40fe3ff9abf66b73b92caa28bba9f7691d3df2dfd99d71f43af23e3931adcb119fdef00a7bf6ab42e6b850966ea2e1854e79a5e4fcf3552f1beafa990bb28043daf0013c96fdae55b8c5c81a7d4b1bec07488cdf511c3b634f26fd87021cdd604de068f60b18bdfa5596c9d1ae17533c5766c5edfe2bf751b28a3b270ce321156e08f20e89ba766e22fd8550710da533e1f44d9c727d9783690ec4bb52a691db6253e53a4eb8cb29476fd87ff2fae31e3f4509582be43ac834e656379f71d7a15280648a81aba2cd4abc2927c12e1d34f64b144d9d314f2a27e005364956027f817a7ab117938d318b51899eac56fc96ff3061148e6d3d444c9185ea450aedc29e85ddf888fa2215fb5dfa880321d270f1c4de5ac4a37ba7269fb8907025c2badabf26da3d0dca5700a9606879c013ed00d8b8bf68e125292e3a595b9dadc6f0fe0f182f3d5c5f69757d879596a7a9aeb7ccd2d3e5eb1517283136426377989fa8bac7f4f803080b22232c3035484e52547b99bed8dcddedeef6f7f8fbfcfd000000000000000b202f4901",
        "008b3891862d6d13e5f845e9565743c114e893eda39b5cf954ad4d46dd7775c825e3356144d4ad55936be66be01ad808c6c5ab15548bc0164bb89273b471bbb604bbc3c775f1c2a918adb7514c060d419e624007166785c918214306b595b6090875c35ebb2035c5e7e4b49afd59cdc354ec993d1c6ffc7c040fe43ec1ffa178c6ca12d9cbb26e5307196da1313f1df997eaea017ab7a967df15a299f6b6e5206e6e120ab491902bfbdd77f6792204f2511921b52ff325dbbc296ae42f229623f292edd5aa828fe73f2fedd4a217fdcc2c1fad299ec38b9a547143eb75087af64f888351870f1049bf5eebc0cc77f99152fa0fd78a2fc48b069e66f53a1c2ac12f111d41356696364aee98d014255b2876ac5fe03d0686333e88cdfe5a8ae72c897a53813a4f40564d90b5a5d7844883d9b02d8a9e0178371eb29ecd8e66a1a55fed3ab29279675e05d8f14cda85248617fab0ba97b45f96cce217ff9a9ee38aaba07a18306ba1cc3a68aa267d2790402370c767ccac18227cf1f328d700b335a560e2ff2c2e6db99844735c67f7e35e5d1ceee46ac36a6533d40046cb04631b532bd70bb8497fe9d3c9730e316ed59a345537f047e34c5e7f63e0b286601bcfc3278023b2129ae2a9947ca3dc328237c5a5d39ab9f0c16c8dbae149fe4306bf9306711094ac028197846e617cc33845c35bb8fd89611a97f3a745072b4bf1f2ec88e5327883bf041162befabe05c2db247e4d80bfd7c315de7f50de2759c7907b28962b2d9cb8c7845b2d84c2acb47f71bfbf6b83ebc2d018b04b799442e4efd7c56394f43725df8b6d2c7c62c142514a4e2ac034d6525ba26cbe16cea62ff486110d99d1c545c65938b64aca89ec1b9942e9cc75f4e55fe3d3f61967f329608a2c331f4baec7e5cc1905216a365a1d2d418095b2f68d236ef1e385d9c786ae2d746f8563589f5987f3d6a86854c42e6acb98c9069ecba9e21163131e64e2264eebcdbc5a2fc7c53673490143b7890caceeadbb4c3bc8f0b129a098fe4dcaa7da463fa9839b25f9c63a86be275d89e4a3357055558a3bdeda4cd71dea70f42a4b18ba6272d4f8984f419653cb88b2fddc39f508caa0c19b4960ca0c5cf7515f801de5faf0c18cf09e420909e1d9608d7751a73027b55ff9d1be68f587885e64ee047378e236953aa2ce145fb22168b7da0a0830a72a236435496ed3ab60307d09cc7d45d1e767cbc6fb6f58c75dbe6dbb2eea41f775d2d3946cc386d18b1f71de40c332a408ddf1dfe5b520f41b4d0e7893e0ab3633778bff9dacf4b3b3be620165a10df8261a66e85f3f6b6d0c76c36bac8e2e8e924046b23163af9bd7027ec8890a9e8a56ba1dd89f3b50257d2b3aef04b028914eb44b30bbad0b8a2874878ede3cb0a4c4b28b8e727da7585639e875eb6725e963dbce73060f8b684cb89d7e524787bfc576451ef0055b508ec60c1f76c5608a4f8935f6f68dba2089ccc4f0d85c192c3510024dd661bbf026eff273701447cc000611545564f1cbb93c6d18aec6dac05896fe93b1a0f95985e06149820becefd28d9aac3dbcb2b6003614e4d53941f24ce78c583fd1bf3bdc4b8ee88455a97004fb066dd4e33740ee496b98feeed8b05547e13665748d78234018a92d1505a1d48b0ae3e4040087609f5a35b5acc8884b86a387ecfc1f160d9be5d188dfdfd122cbef65cafd38163c524bd03b1161803a5395184076f65d5e620206048fe289a2dd616e7fddf0b8685e9e680b84ea05e4e70f969fc1bcf719a5b31e41c6975563b1191879610cd7112af530c3896b9255a14f507d43f8bccea7edf4d6dd6019515c4242f57130d1267bbe29"
      ],
      "sequence": 4294967294
    }
  ],
  "vout": [
    {
      "value": 499982.7127,
      "n": 0,
      "scriptPubKey": {
        "asm": "1 37d93382947e3319296f4bb366ad7f03e69e7a4765970c144b34e1be0e2414aa",
        "hex": "512037d93382947e3319296f4bb366ad7f03e69e7a4765970c144b34e1be0e2414aa",
        "reqSigs": 1,
        "type": "witness_v1_scripthash",
        "addresses": [
          "3QJmnh"
        ]
      }
    },
    {
      "value": 1.0,
      "n": 1,
      "scriptPubKey": {
        "asm": "OP_RETURN 1e8ecf3abc3a7cadfcd8b78dbb7f0074f4d23dd883d7a92841cb8ec3a3b1761a ce89900dee5a9382b40460f23905a46f9d6c4e00b85487e8a7904495680c0c90eea9b02dce7ab3a2942440d21925844fbd4c6e209874a7c887b064b5482c2cb08ec9d04dae1ad3c2f44420b27945e42fdd2c0e40f814c7a8e7d004d5284c4cd0aee9f06d8e3af3e2d46400925965c40ffd0c2e60d834e788c7f024f5086c6cf04e09108d6eda13023484e072b98524ef1decce8038d407682710c415e88c8c106e2930ad4efa332214a4c05299a504cf3dcceea018f427480730e435c8acac300e4950cd2e9a534274c4a032f9c564af5dac8ec07894472867508455a8cccc502e6970ed0eba736254e48012d9e5448f7d8caee058b467084770a47588ecec70ce89900dee5a9382b40460f23905a46f9d6c4e00b85487e8a7904495680c0c90eea9b02dce7ab3a2942440d21925844fbd4c6e209874a7c887b064b5482c2cb08ec9d04dae1ad3c2f44420b27945e42fdd2c0e40f814c7a8e7d004d5284c4cd0aee9f06d8e3af3e2d46400925965c40ffd0c2e60d834e788c7f024f5086c6cf04e09108d6eda13023484e072b98524ef1decce8038d407682710c415e88c8c106e2930ad4efa332214a4c05299a504cf3dcceea018f427480730e435c8acac300e4950cd2e9a534274c4a032f9c564af5dac8ec07894472867508455a8cccc502e6970ed0eba736254e48012d9e5448f7d8caee058b467084770a47588ecec70ce89900dee5a9382b40460f23905a46f9d6c4e00b85487e8a7904495680c0c90eea9b02dce7ab3a2942440d21925844fbd4c6e209874a7c887b064b5482c2cb08ec9d04dae1ad3c2f44420b27945e42fdd2c0e40f814c7a8e7d004d5284c4cd0aee9f06d8e3af3e2d46400925965c40ffd0c2e60d834e788c7f024f5086c6cf04e09108d6eda13023484e072b98524ef1decce8038d407682710c415e88c8c106e2930ad4efa332214a4c05299a504cf3dcceea018f427480730e435c8acac300e4950cd2e9a534274c4a032f9c564af5dac8ec07894472867508455a8cccc502e6970ed0eba736254e48012d9e5448f7d8caee058b467084770a47588ecec70ce89900dee5a9382b40460f23905a46f9d6c4e00b85487e8a7904495680c0c90eea9b02dce7ab3a2942440d21925844fbd4c6e209874a7c887b064b5482c2cb08ec9d04dae1ad3c2f44420b27945e42fdd2c0e40f814c7a8e7d004d5284c4cd0aee9f06d8e3af3e2d46400925965c40ffd0c2e60d834e788c7f024f5086c6cf04e09108d6eda13023484e072b98524ef1decce8038d407682710c415e88c8c106e2930ad4efa332214a4c05299a504cf3dcceea018f427480730e435c8acac300e4950cd2e9a534274c4a032f9c564af5dac8ec07894472867508455a8cccc502e6970ed0eba736254e48012d9e5448f7d8caee058b467084770a47588ecec70ce89900dee5a9382b40460f23905a46f9d6c4e00b85487e8a7904495680c0c90eea9b02dce7ab3a2942440d21925844fbd4c6e209874a7c887b064b5482c2cb08ec9d04dae1ad3c2f44420b27945e42fdd2c0e40f814c7a8e7d004d5284c4cd0aee9f06d8e3af3e2d46400925965c40ffd0c2e60d834e788c7f024f5086c6cf04e09108d6eda13023484e072b98524ef88613b45e417d4cfdc1e08d76568a06b0998c0481562695975cc2d61cbb60a59",
        "hex": "6a201e8ecf3abc3a7cadfcd8b78dbb7f0074f4d23dd883d7a92841cb8ec3a3b1761a4db004ce89900dee5a9382b40460f23905a46f9d6c4e00b85487e8a7904495680c0c90eea9b02dce7ab3a2942440d21925844fbd4c6e209874a7c887b064b5482c2cb08ec9d04dae1ad3c2f44420b27945e42fdd2c0e40f814c7a8e7d004d5284c4cd0aee9f06d8e3af3e2d46400925965c40ffd0c2e60d834e788c7f024f5086c6cf04e09108d6eda13023484e072b98524ef1decce8038d407682710c415e88c8c106e2930ad4efa332214a4c05299a504cf3dcceea018f427480730e435c8acac300e4950cd2e9a534274c4a032f9c564af5dac8ec07894472867508455a8cccc502e6970ed0eba736254e48012d9e5448f7d8caee058b467084770a47588ecec70ce89900dee5a9382b40460f23905a46f9d6c4e00b85487e8a7904495680c0c90eea9b02dce7ab3a2942440d21925844fbd4c6e209874a7c887b064b5482c2cb08ec9d04dae1ad3c2f44420b27945e42fdd2c0e40f814c7a8e7d004d5284c4cd0aee9f06d8e3af3e2d46400925965c40ffd0c2e60d834e788c7f024f5086c6cf04e09108d6eda13023484e072b98524ef1decce8038d407682710c415e88c8c106e2930ad4efa332214a4c05299a504cf3dcceea018f427480730e435c8acac300e4950cd2e9a534274c4a032f9c564af5dac8ec07894472867508455a8cccc502e6970ed0eba736254e48012d9e5448f7d8caee058b467084770a47588ecec70ce89900dee5a9382b40460f23905a46f9d6c4e00b85487e8a7904495680c0c90eea9b02dce7ab3a2942440d21925844fbd4c6e209874a7c887b064b5482c2cb08ec9d04dae1ad3c2f44420b27945e42fdd2c0e40f814c7a8e7d004d5284c4cd0aee9f06d8e3af3e2d46400925965c40ffd0c2e60d834e788c7f024f5086c6cf04e09108d6eda13023484e072b98524ef1decce8038d407682710c415e88c8c106e2930ad4efa332214a4c05299a504cf3dcceea018f427480730e435c8acac300e4950cd2e9a534274c4a032f9c564af5dac8ec07894472867508455a8cccc502e6970ed0eba736254e48012d9e5448f7d8caee058b467084770a47588ecec70ce89900dee5a9382b40460f23905a46f9d6c4e00b85487e8a7904495680c0c90eea9b02dce7ab3a2942440d21925844fbd4c6e209874a7c887b064b5482c2cb08ec9d04dae1ad3c2f44420b27945e42fdd2c0e40f814c7a8e7d004d5284c4cd0aee9f06d8e3af3e2d46400925965c40ffd0c2e60d834e788c7f024f5086c6cf04e09108d6eda13023484e072b98524ef1decce8038d407682710c415e88c8c106e2930ad4efa332214a4c05299a504cf3dcceea018f427480730e435c8acac300e4950cd2e9a534274c4a032f9c564af5dac8ec07894472867508455a8cccc502e6970ed0eba736254e48012d9e5448f7d8caee058b467084770a47588ecec70ce89900dee5a9382b40460f23905a46f9d6c4e00b85487e8a7904495680c0c90eea9b02dce7ab3a2942440d21925844fbd4c6e209874a7c887b064b5482c2cb08ec9d04dae1ad3c2f44420b27945e42fdd2c0e40f814c7a8e7d004d5284c4cd0aee9f06d8e3af3e2d46400925965c40ffd0c2e60d834e788c7f024f5086c6cf04e09108d6eda13023484e072b98524ef88613b45e417d4cfdc1e08d76568a06b0998c0481562695975cc2d61cbb60a59",
        "type": "nulldata"
      }
    }
  ],
  "blockhash": "74cd48d8c624c37e1fac27c00c19e94c48df61d3ca85b84b56360e4f6170fa6f",
  "confirmations": 1,
  "time": 1764182926,
  "blocktime": 1764182926
}