{
  "hex": "0100000000010164ee640365ce90d75061534b6d81b51e3462fceded3d072ad3dc2dbb8e1590130100000000feffffff02f077b5f0782d0000225120d2dbad5f48c8377fe56e53d910a36b0700131a7d1128e739a22dd91fc69e28a100e1f50500000000fdd5046a2060a645461a015fd73cea3571b56d63293192521b6acc2a0c17e56f35806fade24db004a637c35a888194f060f0243afdddeba667cbd5639a591928ccffca69776da7308617e37aa8a1b4d040d0041addfdcb8647ebf543ba793908ecdfea49574d8710e677831ac8c1d4b020b0647abd9dabe6278b9523da1959688cbf8a29372de770c657a33ae8e1f4900090445a9dbd8bc607abb503fa397948ac9faa09170dc75026b743da08011470e070a4ba7d5d6b26e74b55e31ad999a84c7f4ae9f7ed27b0069763fa28213450c050849a5d7d4b06c76b75c33af9b9886c5f6ac9d7cd079066f7039a48415430a030e4fa3d1d2b66a70b15a35a99d9e80c3f0aa9b7ad67f046d723ba686174108010c4da1d3d0b46872b35837ab9f9c82c1f2a89978d47d0a637c35a888194f060f0243afdddeba667cbd5639a591928ccffca69776da7308617e37aa8a1b4d040d0041addfdcb8647ebf543ba793908ecdfea49574d8710e677831ac8c1d4b020b0647abd9dabe6278b9523da1959688cbf8a29372de770c657a33ae8e1f4900090445a9dbd8bc607abb503fa397948ac9faa09170dc75026b743da08011470e070a4ba7d5d6b26e74b55e31ad999a84c7f4ae9f7ed27b0069763fa28213450c050849a5d7d4b06c76b75c33af9b9886c5f6ac9d7cd079066f7039a48415430a030e4fa3d1d2b66a70b15a35a99d9e80c3f0aa9b7ad67f046d723ba686174108010c4da1d3d0b46872b35837ab9f9c82c1f2a89978d47d0a637c35a888194f060f0243afdddeba667cbd5639a591928ccffca69776da7308617e37aa8a1b4d040d0041addfdcb8647ebf543ba793908ecdfea49574d8710e677831ac8c1d4b020b0647abd9dabe6278b9523da1959688cbf8a29372de770c657a33ae8e1f4900090445a9dbd8bc607abb503fa397948ac9faa09170dc75026b743da08011470e070a4ba7d5d6b26e74b55e31ad999a84c7f4ae9f7ed27b0069763fa28213450c050849a5d7d4b06c76b75c33af9b9886c5f6ac9d7cd079066f7039a48415430a030e4fa3d1d2b66a70b15a35a99d9e80c3f0aa9b7ad67f046d723ba686174108010c4da1d3d0b46872b35837ab9f9c82c1f2a89978d47d0a637c35a888194f060f0243afdddeba667cbd5639a591928ccffca69776da7308617e37aa8a1b4d040d0041addfdcb8647ebf543ba793908ecdfea49574d8710e677831ac8c1d4b020b0647abd9dabe6278b9523da1959688cbf8a29372de770c657a33ae8e1f4900090445a9dbd8bc607abb503fa397948ac9faa09170dc75026b743da08011470e070a4ba7d5d6b26e74b55e31ad999a84c7f4ae9f7ed27b0069763fa28213450c050849a5d7d4b06c76b75c33af9b9886c5f6ac9d7cd079066f7039a48415430a030e4fa3d1d2b66a70b15a35a99d9e80c3f0aa9b7ad67f046d723ba686174108010c4da1d3d0b46872b35837ab9f9c82c1f2a89978d47d0a637c35a888194f060f0243afdddeba667cbd5639a591928ccffca69776da7308617e37aa8a1b4d040d0041addfdcb8647ebf543ba793908ecdfea49574d8710e677831ac8c1d4b020b0647abd9dabe6278b9523da1959688cbf8a29372de770c657a33ae8e1f4900090445a9dbd8bc607abb503fa397948ac9faa09170dc75026b743da08011470e070a4ba7d5d6b26a2a0ef4594eab80857f925d3bddac7de15e9fd40705967b7baf936d069d42e9b02fd7509eafece4be7bbf4d618f1be6cb0b7b8114ecc20b4212cb1114b166740cd8d0b32447c6fb2fe505dd45a50869ce285c3b24857a3b51be6c5411d36202434ad33d7bb22e56f607a4bc21e45d713011f062460a4198f01aacc1a480dfe14fef58706159d10ffd5215b61709d9a8ce4b1c2a776f85d2a3f6e34e40be8882d4b450374a9e4ce6ae57d79731dc15b252b89dcea45784a6ca384d1e63121212e6d60ce0dd653ffc2d9576df530c36cdddf8f6fdd1e51fc0264a457632bd4f8f2f15f18d8cb2b7e766e46479225eb9a480b2b4144b3ea2c8c00498b6012d74bac0faabf5a140c29f67efadd143a6e88becd5493d2d795f302d65e77d125ee3d76f67035d4f5366370a5353358f5a61ca221a89d973641be8f69a21bb32721e0ee1134f146ea1983f847fd012303fe25addade8a3f5c5c7ee2d59c80f7d02e003e6057f929e472ef10f41a30c240f02a1dcd0b8907288d20a7ee5a8ed8f1e2208016ccad0b84d9142ad69d3f67c59808e49fad6bed91654191e472b2f2bc00df3bceeb4bf199116a517c6871f84ffd0e0fe63232248a32bee63108b1af39e0e73e70c4742546efaded98e88a8953a146a65c330723ea5788603224809e7fdf2354d402b2281620e90b7e584026aa45e08e2d7c8343f0c82ff48c72734114043123797a089cb461a57288da1838b9686ef1e4f12f411ec3a83ac955aa3bc62b623c26f3eb2093f6a833fc01e14731800c8d1b8a107fdda8eb8d3cb18d71d3d778f9f6d3e101f49123557a11cfa4117e81f110c30301db0b51af427c11350884cec596edb3d18a9723bc4947945b26173d81740b0cdb9b813871a4697d8130cd0617d28d9c35196f0ba5031f32bd68e1da958b4951fa26521cc309c56963ebd36a49f9a905b1758e75339f56fb709e0d50fcdf993958adae47fd1ced7ec60148b173cc56bcd5b21bb44d137199db0084f0e4dd49d8367f1035a8ffd35dcdd1bc8634ae85e0c8c0675aeab31feb0e543180838a279be388889f62415a1e30ec9d3903620539b3a510eb8dfe15ebda6ed64fa1c4123e69a0b3071b5f5be5ddd594bff7b60da70d868d222f091ae59031fcdc415cef007347880798795e4ebe2d94269ffbbbed5a69975abdda379c3cb48a7d140872b4e936747b6c5c51c2e648ac1d0ac09adafbc986fb5aaf2ccbc1c0ffda9774d7de19f57ccfcdf0599b8b5777490bef99aa8899c358f56d0d3b50a39fdfe08afbf18628ae1443b50081bc117353089673a5857da14eb2e79c6c279a388f0c60080f40412f4192225dc782e5a442cce6df224257bd96f44707482d5558d71530492b1bb9ed5b2b89db07829c2e3f15346ea224b2ad9807ffbe0ca3eec46e9cdc313dceafc01e2b9d76cb4080bd7d31432d2fb5337965dcbd681a0b5d7821f9d6d551fdc9b72fafd11a7160aad35b38f2ad691465a6cc591efd1c9abd8b8e99146464de40552ba7d56d2284c397c75d8a2f3a12578785ef978f69f6605be2b9de6097d609c55211f55b90600b3fb0afd59d5645b473bbbb897ae53b4a9ebe9a6ed33eb12ea61e64a14b7540652cbca64ec85706803c47a63778a23818440cda30c850d2a7a94ff05424c9251c7d006742f5c3d4440c4aaf88b5db2c9aa70301937c4a16bd7e77b53b8ea3b6cd6a691263009eee278294a0dbffa79ef76021b2369d5ab89ab91d32fba5aeee14416fc9181a9a1ebe06a60d6f14de726e711a56ebcef29dea80e2a32a49a1deb5e3d8941df8949c5e52f786d09edfe11955ae5c9df184781e4f382277fadf67b41787d5af682aef064a68f37b8ede6a3d1df324eb5391a1b48aebdc316c659056d0ee81b97af367055636fd646e033e23fb1beaff00e08699c53292b01b591b062d976a30c38a2871f97541fb80869c04a38fad5ed0708025c49500d326780f71793b00813ec1921c2cc92bf9b7cec5c00c7840e229053b227de7fbafd28d003f9a0a180451fd298c6a779448b251eca4352f25acc227d7c2f84d4bebc3844f36c70fb9dd0e5000dda57437059cd92b341325e8e285f583cd85599cf970648b8e1696889fcc9ad4cde2cdeffc11cb720bc05541e98b5d21139e6b6e501ecb66d5a08074edc45aa3fa730a9f67d48467c1c0d5d1b5d2d7867ce40c04ba2086ab895b82844ac00434890ba099be905fba9a6b2ee3dafa3fbdcf2951f422b19a1d9412c1a456b5df814006c05ffa73f51a71d2b8ba947d6e2e3a8522115af11ee745e5129e65fa5949346654d010a31ca9927daeb3801ad08fc1b8a8ffe69e3e8aaa73fc52eb7c20ce5fefdd13f2e9e381122c4d5eb8db95762a9dcce8cce583ffaa8d4087ee44d1534727b3a1a5d795fdec7c618130547b57ec0a0835446a3ab74fd99fc5b6b6b0f472e38b0aad0c1127f9a5d82365af569992d72dd4019dc701ff5f5b512a809f4b70a3eb1f35a517018f213209eefe808c140f8e02bd7c93b36230abdeffa0461ba53424f8fb326a8fdd5ed34babddfc86f97558cf42af54543ae09a2a167cebe7d64b33b0bc119df7fa4ff67d005b9f6d4b7750b2c32a569adce6496e9c19bcc616ad5573b9c1bb21a5e485000ad2295b63528f539f2db62b9b94314f85c2c3caca0341b104e5d8478f1ee37ab6d211ad3d69957b2b610558de09a7409e50eb64b248275cfeca1155d32e7d1702d7a829e03c27f1a48c4cac9ec315bd51061cebe504a88b6fe4b88fd67a1cb81242c7df76708c95255281d3d96f163e39a4d709a37133fdf72a226bb4aaa7f341a1b4acf91c6c0f190991427b09258d8cf7c3a13bcb750c7e356d14284be6c4a545ade5c0895fd254139c0525d3ccbe2d0ebe593f89f8747125061434e616e811f6ee86474e876703c1489c2e379e8336dcd98c8f41895fb16a7f12de5c1f2b2e41c70d938ac24775c9107bbea24a7c02627d4eeb92967d65810918fa7e0673cf4908ad7111159a861ec15cb3eb7a053e14ed613d79839f8b11d29e9f2b42f0b43a3e972b2db6e54b3f8efbc82f9156b270a88ae3cbad7a92825e5e9284ad1bc9e40e965a4ef063e58fb5fe61e14eb8faf5e1e4c467909c4a2c873705f6ce78d85e795fd6523a210b9d5996b1df982aa0fa6f4ec82fb85bbe7c9f37013c53c5440c14630cfda97549d0e74c78df52fd6b48b980ac7515ea392a0deb14ea8543ff2a755a041a4ffb3cd9cfcfb621ebe4f2a2ebae70932a429ada7dd550179fa57d3bf3cf1b67b3631fd5ed6be443e088d424d5ca70d8e734d62a8fc8858e32f074a40cc9ec372a25eba5bdda72f1c2dc73d0845522283246596c8286a2abb7cbced3dffcfe104f6d71a4a8aaabb2e51011162645495c5e666f7f8590c6cada0a222b35474f55595a838a97e4f40000000000000000000000000000000000000000000000111b2b3901fd2105004b9258e0f3a1d5f7334b056d2d12cea153793edd9be38ff8919bc85d492516b16d478538cb290a840bd23bdc71b8733dc0d257bc68655dcdb4fdb577d1e5fe1863be57cf8b5d6176d5e04a515b85859df7479fc9bfdc32473418b7693c2bcc07a13061d75f417b9a481792abe293ad8df793e75d9b7fc6323b1eaf715db91c1f30e4206b47deca8534b4d9ddf764c9597aa3a23fb1bf0e2be70e41728e343b182e88f832a4d5b6fe1ebbb77fbc55eab2a656384b8691ee95175d652f1df336bd82d2f607d1870ec2e8e42205489f5e330e023518930ad591cb8b8b664cbbdadc818fb923c7d78fe8d9ff3e913df44b6a1b4522cac587d58c190521120cd4ac4ff235ba4582c8aef984da5533121e7223f5692f7eaf41aa3a88cc2c512a9494177b88905e78d68818cd81071f1bd7eaa48817b17fdd63b6f28c583b9ab2794a5e00fc412155ce0f3603c6c1c9476256d5697828f215c6fca247a6339fbcbb776ea7497fb6e74840af8854b6dd04611617ea496f292c9c1a2c5ae26b74be944f1c4edf3a1781c9ec37ac85bc62c716616481cda4955a1d407e7e423dac5a7a0d179b84f05fcbccda040132f9e0c6af999326abe06aba3109b6e56883bff1a0e3bd094ef031f7508c39406a958ae5411a12e038eac8fdf63e089df4c708140929301e0fcebd2d076a5a942c8fbe0c642e67bde23f637212c06e260c41e3042f285f806bf766db9ba0f56911656fcc3d8bafb8c777c40fca6190f04d844570a21febda37fb62ff486f95f0782fa616d9ed74ba91f6a2813c0954f908ee27e182ccf33e1f98fda1844e04f2eb6026f96a256df81fd036e6f9c22c2a03600c362c97fc9d88f09609e3f6ab6cbb9d4c303cd6627d152ccc44f6a56492b6ce3328f2b6b410964578ffd459618ca9edf69832964d6abf182b7e720cc5e29707b0b8fd9664efb72c46e4c012d1f011d6b3f196da74a7fb0e6f746f1b4b1c3dffda5d67a798733c553c53e00e88672b3c9eb07a54d6f72438acaa3c2c345dbe6fcbb6b10f71b4a777135dd889241d3506c05c4b6f907abacb619a656dbe5e57c706dd35d8b8fcb05ee57450ad7a2591eb5388b29723148940cde841b6b0ea571e0329941dbf3e91261be939f7d1a7fa5c4187414f3382d69247428545f1ac92fb075a76cd81e940d8588b3ede7b5caccb7d67a02e97405226bf8c055f69c6d7a475a70bcfe3e9b9e9cf8e13bbbb57701a4797b93a01f19a57297e1f13683954769512438c228aef56491699a20a1f78c663ce95c672ffdf124b5f77f86cba08e4dbb76cf23237bc85e29fbfd31665a89c42384a9e1302b54134141d41f5afa643c0350a5cc7ef0cc6b7a7389ffdcbb105a4f505209ca5d00542be0faeab651f86e9d01236ebf2aeacf7f0b7e6e2aaae4cdaa210da289f3c0de8bb0f29758f7b76daa78c2dfd7324e754740ae469a2f77db0d6712e25aa5f8b43eba7d95d0fd7dc8b8c2526cb716ef98070a704a84624a508b1deb255e151581ac76a76d34aa99d07574340cca92e8884469a8af53eec8bfb9a0d9a328a72f4f8bddef329a5623bdbc0f018f73b705083a162d5155869a6f9ce9c3173299122054aeb153139040b8ff8c8461bf2ad0aa85eadd4c3d41e562bf3ecb1096023e5a2032bb8348c85ecc0d82a73c304660da225d572a940529371c756edf24c2f9de1d325db17b6b541acf51f3dfd97e7be970fdaeb946943b5c4c067b6c55fd48efc661b0ec8788009a9b513f3d0c69365c1a5adc8c3718c2e70c93c15e817bcc927286ceaa2418ddde294c9232bd72fcbfe31a7fff1e06c3501a8119546bd7528e21ed10231779a5fb3dc482e837a000000",
  "txid": "6f46dfd6ba59ec981a1517bc5789843832fa5f5a0e5e5ec90bf36de95078caf6",
  "hash": "eda7e83e1f1649df4910f1d5237ea636788996a1b4d4cc398bd04a65d207593c",
  "size": 5085,
  "vsize": 2278,
  "version": 1,
  "locktime": 122,
  "vin": [
    {
      "txid": "1390158ebb2ddcd32a073dededfc62341eb5816d4b536150d790ce650364ee64",
      "vout": 1,
      "scriptSig": {
        "asm": "",
        "hex": ""
      },
      "txinwitness": [
        "eafece4be7bbf4d618f1be6cb0b7b8114ecc20b4212cb1114b166740cd8d0b32447c6fb2fe505dd45a50869ce285c3b24857a3b51be6c5411d36202434ad33d7bb22e56f607a4bc21e45d713011f062460a4198f01aacc1a480dfe14fef58706159d10ffd5215b61709d9a8ce4b1c2a776f85d2a3f6e34e40be8882d4b450374a9e4ce6ae57d79731dc15b252b89dcea45784a6ca384d1e63121212e6d60ce0dd653ffc2d9576df530c36cdddf8f6fdd1e51fc0264a457632bd4f8f2f15f18d8cb2b7e766e46479225eb9a480b2b4144b3ea2c8c00498b6012d74bac0faabf5a140c29f67efadd143a6e88becd5493d2d795f302d65e77d125ee3d76f67035d4f5366370a5353358f5a61ca221a89d973641be8f69a21bb32721e0ee1134f146ea1983f847fd012303fe25addade8a3f5c5c7ee2d59c80f7d02e003e6057f929e472ef10f41a30c240f02a1dcd0b8907288d20a7ee5a8ed8f1e2208016ccad0b84d9142ad69d3f67c59808e49fad6bed91654191e472b2f2bc00df3bceeb4bf199116a517c6871f84ffd0e0fe63232248a32bee63108b1af39e0e73e70c4742546efaded98e88a8953a146a65c330723ea5788603224809e7fdf2354d402b2281620e90b7e584026aa45e08e2d7c8343f0c82ff48c72734114043123797a089cb461a57288da1838b9686ef1e4f12f411ec3a83ac955aa3bc62b623c26f3eb2093f6a833fc01e14731800c8d1b8a107fdda8eb8d3cb18d71d3d778f9f6d3e101f49123557a11cfa4117e81f110c30301db0b51af427c11350884cec596edb3d18a9723bc4947945b26173d81740b0cdb9b813871a4697d8130cd0617d28d9c35196f0ba5031f32bd68e1da958b4951fa26521cc309c56963ebd36a49f9a905b1758e75339f56fb709e0d50fcdf993958adae47fd1ced7ec60148b173cc56bcd5b21bb44d137199db0084f0e4dd49d8367f1035a8ffd35dcdd1bc8634ae85e0c8c0675aeab31feb0e543180838a279be388889f62415a1e30ec9d3903620539b3a510eb8dfe15ebda6ed64fa1c4123e69a0b3071b5f5be5ddd594bff7b60da70d868d222f091ae59031fcdc415cef007347880798795e4ebe2d94269ffbbbed5a69975abdda379c3cb48a7d140872b4e936747b6c5c51c2e648ac1d0ac09adafbc986fb5aaf2ccbc1c0ffda9774d7de19f57ccfcdf0599b8b5777490bef99aa8899c358f56d0d3b50a39fdfe08afbf18628ae1443b50081bc117353089673a5857da14eb2e79c6c279a388f0c60080f40412f4192225dc782e5a442cce6df224257bd96f44707482d5558d71530492b1bb9ed5b2b89db07829c2e3f15346ea224b2ad9807ffbe0ca3eec46e9cdc313dceafc01e2b9d76cb4080bd7d31432d2fb5337965dcbd681a0b5d7821f9d6d551fdc9b72fafd11a7160aad35b38f2ad691465a6cc591efd1c9abd8b8e99146464de40552ba7d56d2284c397c75d8a2f3a12578785ef978f69f6605be2b9de6097d609c55211f55b90600b3fb0afd59d5645b473bbbb897ae53b4a9ebe9a6ed33eb12ea61e64a14b7540652cbca64ec85706803c47a63778a23818440cda30c850d2a7a94ff05424c9251c7d006742f5c3d4440c4aaf88b5db2c9aa70301937c4a16bd7e77b53b8ea3b6cd6a691263009eee278294a0dbffa79ef76021b2369d5ab89ab91d32fba5aeee14416fc9181a9a1ebe06a60d6f14de726e711a56ebcef29dea80e2a32a49a1deb5e3d8941df8949c5e52f786d09edfe11955ae5c9df184781e4f382277fadf67b41787d5af682aef064a68f37b8ede6a3d1df324eb5391a1b48aebdc316c659056d0ee81b97af367055636fd646e033e23fb1beaff00e08699c53292b01b591b062d976a30c38a2871f97541fb80869c04a38fad5ed0708025c49500d326780f71793b00813ec1921c2cc92bf9b7cec5c00c7840e229053b227de7fbafd28d003f9a0a180451fd298c6a779448b251eca4352f25acc227d7c2f84d4bebc3844f36c70fb9dd0e5000dda57437059cd92b341325e8e285f583cd85599cf970648b8e1696889fcc9ad4cde2cdeffc11cb720bc05541e98b5d21139e6b6e501ecb66d5a08074edc45aa3fa730a9f67d48467c1c0d5d1b5d2d7867ce40c04ba2086ab895b82844ac00434890ba099be905fba9a6b2ee3dafa3fbdcf2951f422b19a1d9412c1a456b5df814006c05ffa73f51a71d2b8ba947d6e2e3a8522115af11ee745e5129e65fa5949346654d010a31ca9927daeb3801ad08fc1b8a8ffe69e3e8aaa73fc52eb7c20ce5fefdd13f2e9e381122c4d5eb8db95762a9dcce8cce583ffaa8d4087ee44d1534727b3a1a5d795fdec7c618130547b57ec0a0835446a3ab74fd99fc5b6b6b0f472e38b0aad0c1127f9a5d82365af569992d72dd4019dc701ff5f5b512a809f4b70a3eb1f35a517018f213209eefe808c140f8e02bd7c93b36230abdeffa0461ba53424f8fb326a8fdd5ed34babddfc86f97558cf42af54543ae09a2a167cebe7d64b33b0bc119df7fa4ff67d005b9f6d4b7750b2c32a569adce6496e9c19bcc616ad5573b9c1bb21a5e485000ad2295b63528f539f2db62b9b94314f85c2c3caca0341b104e5d8478f1ee37ab6d211ad3d69957b2b610558de09a7409e50eb64b248275cfeca1155d32e7d1702d7a829e03c27f1a48c4cac9ec315bd51061cebe504a88b6fe4b88fd67a1cb81242c7df76708c95255281d3d96f163e39a4d709a37133fdf72a226bb4aaa7f341a1b4acf91c6c0f190991427b09258d8cf7c3a13bcb750c7e356d14284be6c4a545ade5c0895fd254139c0525d3ccbe2d0ebe593f89f8747125061434e616e811f6ee86474e876703c1489c2e379e8336dcd98c8f41895fb16a7f12de5c1f2b2e41c70d938ac24775c9107bbea24a7c02627d4eeb92967d65810918fa7e0673cf4908ad7111159a861ec15cb3eb7a053e14ed613d79839f8b11d29e9f2b42f0b43a3e972b2db6e54b3f8efbc82f9156b270a88ae3cbad7a92825e5e9284ad1bc9e40e965a4ef063e58fb5fe61e14eb8faf5e1e4c467909c4a2c873705f6ce78d85e795fd6523a210b9d5996b1df982aa0fa6f4ec82fb85bbe7c9f37013c53c5440c14630cfda97549d0e74c78df52fd6b48b980ac7515ea392a0deb14ea8543ff2a755a041a4ffb3cd9cfcfb621ebe4f2a2ebae70932a429ada7dd550179fa57d3bf3cf1b67b3631fd5ed6be443e088d424d5ca70d8e734d62a8fc8858e32f074a40cc9ec372a25eba5bdda72f1c2dc73d0845522283246596c8286a2abb7cbced3dffcfe104f6d71a4a8aaabb2e51011162645495c5e666f7f8590c6cada0a222b35474f55595a838a97e4f40000000000000000000000000000000000000000000000111b2b3901",
        "004b9258e0f3a1d5f7334b056d2d12cea153793edd9be38ff8919bc85d492516b16d478538cb290a840bd23bdc71b8733dc0d257bc68655dcdb4fdb577d1e5fe1863be57cf8b5d6176d5e04a515b85859df7479fc9bfdc32473418b7693c2bcc07a13061d75f417b9a481792abe293ad8df793e75d9b7fc6323b1eaf715db91c1f30e4206b47deca8534b4d9ddf764c9597aa3a23fb1bf0e2be70e41728e343b182e88f832a4d5b6fe1ebbb77fbc55eab2a656384b8691ee95175d652f1df336bd82d2f607d1870ec2e8e42205489f5e330e023518930ad591cb8b8b664cbbdadc818fb923c7d78fe8d9ff3e913df44b6a1b4522cac587d58c190521120cd4ac4ff235ba4582c8aef984da5533121e7223f5692f7eaf41aa3a88cc2c512a9494177b88905e78d68818cd81071f1bd7eaa48817b17fdd63b6f28c583b9ab2794a5e00fc412155ce0f3603c6c1c9476256d5697828f215c6fca247a6339fbcbb776ea7497fb6e74840af8854b6dd04611617ea496f292c9c1a2c5ae26b74be944f1c4edf3a1781c9ec37ac85bc62c716616481cda4955a1d407e7e423dac5a7a0d179b84f05fcbccda040132f9e0c6af999326abe06aba3109b6e56883bff1a0e3bd094ef031f7508c39406a958ae5411a12e038eac8fdf63e089df4c708140929301e0fcebd2d076a5a942c8fbe0c642e67bde23f637212c06e260c41e3042f285f806bf766db9ba0f56911656fcc3d8bafb8c777c40fca6190f04d844570a21febda37fb62ff486f95f0782fa616d9ed74ba91f6a2813c0954f908ee27e182ccf33e1f98fda1844e04f2eb6026f96a256df81fd036e6f9c22c2a03600c362c97fc9d88f09609e3f6ab6cbb9d4c303cd6627d152ccc44f6a56492b6ce3328f2b6b410964578ffd459618ca9edf69832964d6abf182b7e720cc5e29707b0b8fd9664efb72c46e4c012d1f011d6b3f196da74a7fb0e6f746f1b4b1c3dffda5d67a798733c553c53e00e88672b3c9eb07a54d6f72438acaa3c2c345dbe6fcbb6b10f71b4a777135dd889241d3506c05c4b6f907abacb619a656dbe5e57c706dd35d8b8fcb05ee57450ad7a2591eb5388b29723148940cde841b6b0ea571e0329941dbf3e91261be939f7d1a7fa5c4187414f3382d69247428545f1ac92fb075a76cd81e940d8588b3ede7b5caccb7d67a02e97405226bf8c055f69c6d7a475a70bcfe3e9b9e9cf8e13bbbb57701a4797b93a01f19a57297e1f13683954769512438c228aef56491699a20a1f78c663ce95c672ffdf124b5f77f86cba08e4dbb76cf23237bc85e29fbfd31665a89c42384a9e1302b54134141d41f5afa643c0350a5cc7ef0cc6b7a7389ffdcbb105a4f505209ca5d00542be0faeab651f86e9d01236ebf2aeacf7f0b7e6e2aaae4cdaa210da289f3c0de8bb0f29758f7b76daa78c2dfd7324e754740ae469a2f77db0d6712e25aa5f8b43eba7d95d0fd7dc8b8c2526cb716ef98070a704a84624a508b1deb255e151581ac76a76d34aa99d07574340cca92e8884469a8af53eec8bfb9a0d9a328a72f4f8bddef329a5623bdbc0f018f73b705083a162d5155869a6f9ce9c3173299122054aeb153139040b8ff8c8461bf2ad0aa85eadd4c3d41e562bf3ecb1096023e5a2032bb8348c85ecc0d82a73c304660da225d572a940529371c756edf24c2f9de1d325db17b6b541acf51f3dfd97e7be970fdaeb946943b5c4c067b6c55fd48efc661b0ec8788009a9b513f3d0c69365c1a5adc8c3718c2e70c93c15e817bcc927286ceaa2418ddde294c9232bd72fcbfe31a7fff1e06c3501a8119546bd7528e21ed10231779a5fb3dc482e83"
      ],
      "sequence": 4294967294
    }
  ],
  "vout": [
    {
      "value": 499974.5775,
      "n": 0,
      "scriptPubKey": {
        "asm": "1 d2dbad5f48c8377fe56e53d910a36b0700131a7d1128e739a22dd91fc69e28a1",
        "hex": "5120d2dbad5f48c8377fe56e53d910a36b0700131a7d1128e739a22dd91fc69e28a1",
        "reqSigs": 1,
        "type": "witness_v1_scripthash",
        "addresses": [
          "3QJmnh"
        ]
      }
    },
    {
      "value": 1.0,
      "n": 1,
      "scriptPubKey": {
        "asm": "OP_RETURN 60a645461a015fd73cea3571b56d63293192521b6acc2a0c17e56f35806fade2 a637c35a888194f060f0243afdddeba667cbd5639a591928ccffca69776da7308617e37aa8a1b4d040d0041addfdcb8647ebf543ba793908ecdfea49574d8710e677831ac8c1d4b020b0647abd9dabe6278b9523da1959688cbf8a29372de770c657a33ae8e1f4900090445a9dbd8bc607abb503fa397948ac9faa09170dc75026b743da08011470e070a4ba7d5d6b26e74b55e31ad999a84c7f4ae9f7ed27b0069763fa28213450c050849a5d7d4b06c76b75c33af9b9886c5f6ac9d7cd079066f7039a48415430a030e4fa3d1d2b66a70b15a35a99d9e80c3f0aa9b7ad67f046d723ba686174108010c4da1d3d0b46872b35837ab9f9c82c1f2a89978d47d0a637c35a888194f060f0243afdddeba667cbd5639a591928ccffca69776da7308617e37aa8a1b4d040d0041addfdcb8647ebf543ba793908ecdfea49574d8710e677831ac8c1d4b020b0647abd9dabe6278b9523da1959688cbf8a29372de770c657a33ae8e1f4900090445a9dbd8bc607abb503fa397948ac9faa09170dc75026b743da08011470e070a4ba7d5d6b26e74b55e31ad999a84c7f4ae9f7ed27b0069763fa28213450c050849a5d7d4b06c76b75c33af9b9886c5f6ac9d7cd079066f7039a48415430a030e4fa3d1d2b66a70b15a35a99d9e80c3f0aa9b7ad67f046d723ba686174108010c4da1d3d0b46872b35837ab9f9c82c1f2a89978d47d0a637c35a888194f060f0243afdddeba667cbd5639a591928ccffca69776da7308617e37aa8a1b4d040d0041addfdcb8647ebf543ba793908ecdfea49574d8710e677831ac8c1d4b020b0647abd9dabe6278b9523da1959688cbf8a29372de770c657a33ae8e1f4900090445a9dbd8bc607abb503fa397948ac9faa09170dc75026b743da08011470e070a4ba7d5d6b26e74b55e31ad999a84c7f4ae9f7ed27b0069763fa28213450c050849a5d7d4b06c76b75c33af9b9886c5f6ac9d7cd079066f7039a48415430a030e4fa3d1d2b66a70b15a35a99d9e80c3f0aa9b7ad67f046d723ba686174108010c4da1d3d0b46872b35837ab9f9c82c1f2a89978d47d0a637c35a888194f060f0243afdddeba667cbd5639a591928ccffca69776da7308617e37aa8a1b4d040d0041addfdcb8647ebf543ba793908ecdfea49574d8710e677831ac8c1d4b020b0647abd9dabe6278b9523da1959688cbf8a29372de770c657a33ae8e1f4900090445a9dbd8bc607abb503fa397948ac9faa09170dc75026b743da08011470e070a4ba7d5d6b26e74b55e31ad999a84c7f4ae9f7ed27b0069763fa28213450c050849a5d7d4b06c76b75c33af9b9886c5f6ac9d7cd079066f7039a48415430a030e4fa3d1d2b66a70b15a35a99d9e80c3f0aa9b7ad67f046d723ba686174108010c4da1d3d0b46872b35837ab9f9c82c1f2a89978d47d0a637c35a888194f060f0243afdddeba667cbd5639a591928ccffca69776da7308617e37aa8a1b4d040d0041addfdcb8647ebf543ba793908ecdfea49574d8710e677831ac8c1d4b020b0647abd9dabe6278b9523da1959688cbf8a29372de770c657a33ae8e1f4900090445a9dbd8bc607abb503fa397948ac9faa09170dc75026b743da08011470e070a4ba7d5d6b26a2a0ef4594eab80857f925d3bddac7de15e9fd40705967b7baf936d069d42e9b",
        "hex": "6a2060a645461a015fd73cea3571b56d63293192521b6acc2a0c17e56f35806fade24db004a637c35a888194f060f0243afdddeba667cbd5639a591928ccffca69776da7308617e37aa8a1b4d040d0041addfdcb8647ebf543ba793908ecdfea49574d8710e677831ac8c1d4b020b0647abd9dabe6278b9523da1959688cbf8a29372de770c657a33ae8e1f4900090445a9dbd8bc607abb503fa397948ac9faa09170dc75026b743da08011470e070a4ba7d5d6b26e74b55e31ad999a84c7f4ae9f7ed27b0069763fa28213450c050849a5d7d4b06c76b75c33af9b9886c5f6ac9d7cd079066f7039a48415430a030e4fa3d1d2b66a70b15a35a99d9e80c3f0aa9b7ad67f046d723ba686174108010c4da1d3d0b46872b35837ab9f9c82c1f2a89978d47d0a637c35a888194f060f0243afdddeba667cbd5639a591928ccffca69776da7308617e37aa8a1b4d040d0041addfdcb8647ebf543ba793908ecdfea49574d8710e677831ac8c1d4b020b0647abd9dabe6278b9523da1959688cbf8a29372de770c657a33ae8e1f4900090445a9dbd8bc607abb503fa397948ac9faa09170dc75026b743da08011470e070a4ba7d5d6b26e74b55e31ad999a84c7f4ae9f7ed27b0069763fa28213450c050849a5d7d4b06c76b75c33af9b9886c5f6ac9d7cd079066f7039a48415430a030e4fa3d1d2b66a70b15a35a99d9e80c3f0aa9b7ad67f046d723ba686174108010c4da1d3d0b46872b35837ab9f9c82c1f2a89978d47d0a637c35a888194f060f0243afdddeba667cbd5639a591928ccffca69776da7308617e37aa8a1b4d040d0041addfdcb8647ebf543ba793908ecdfea49574d8710e677831ac8c1d4b020b0647abd9dabe6278b9523da1959688cbf8a29372de770c657a33ae8e1f4900090445a9dbd8bc607abb503fa397948ac9faa09170dc75026b743da08011470e070a4ba7d5d6b26e74b55e31ad999a84c7f4ae9f7ed27b0069763fa28213450c050849a5d7d4b06c76b75c33af9b9886c5f6ac9d7cd079066f7039a48415430a030e4fa3d1d2b66a70b15a35a99d9e80c3f0aa9b7ad67f046d723ba686174108010c4da1d3d0b46872b35837ab9f9c82c1f2a89978d47d0a637c35a888194f060f0243afdddeba667cbd5639a591928ccffca69776da7308617e37aa8a1b4d040d0041addfdcb8647ebf543ba793908ecdfea49574d8710e677831ac8c1d4b020b0647abd9dabe6278b9523da1959688cbf8a29372de770c657a33ae8e1f4900090445a9dbd8bc607abb503fa397948ac9faa09170dc75026b743da08011470e070a4ba7d5d6b26e74b55e31ad999a84c7f4ae9f7ed27b0069763fa28213450c050849a5d7d4b06c76b75c33af9b9886c5f6ac9d7cd079066f7039a48415430a030e4fa3d1d2b66a70b15a35a99d9e80c3f0aa9b7ad67f046d723ba686174108010c4da1d3d0b46872b35837ab9f9c82c1f2a89978d47d0a637c35a888194f060f0243afdddeba667cbd5639a591928ccffca69776da7308617e37aa8a1b4d040d0041addfdcb8647ebf543ba793908ecdfea49574d8710e677831ac8c1d4b020b0647abd9dabe6278b9523da1959688cbf8a29372de770c657a33ae8e1f4900090445a9dbd8bc607abb503fa397948ac9faa09170dc75026b743da08011470e070a4ba7d5d6b26a2a0ef4594eab80857f925d3bddac7de15e9fd40705967b7baf936d069d42e9b",
        "type": "nulldata"
      }
    }
  ],
  "blockhash": "ccdcfedcff6ade259e7f17160cbcd6ff75249aea4f0a85a59e1a4fb3f710df5f",
  "confirmations": 1,
  "time": 1764180435,
  "blocktime": 1764180435
}