{
  "hex": "01000000000101ddc50fc0ff4f3040109535e2e11a9ff30cd042deabce6466c10f6656752bba8d0100000000feffffff0200e1f50500000000fdd5046a2005d64c7ec66f2be99ceea5a14758a972c5a155587c9cb961d78182139f340dbb4db004ffe4fac7f280d82a13c257eeb6e2fee1e175afb687fad4f7fee34428d6a60ddcdfc4dae7d2a0f80a33e277ce96c2dec1c1558f96a7daf4d7dec36408f6862dfcbfa4ba87b2c0986a538217aef6a2bea1a135eff6c7ba94b7bea3046896e64d9c9f849aa792e0b84a73a2378ed6829e818115cfd6e79ab4979e832448b6c66dbc7f647a47720058aa9342d76e36627e6161f52f36077a54777e63c4a856268d5c5f445a675220788ab362f74e16425e4141d50f16275a74575e43e4887606ad7c3f243a07324018ead302972e76223e2121b56f76473a14373e2384e81666cd1c1f041a27126038caf322b70e56021e0101954f56671a34171e03a4c83646ed3cffe4fac7f280d82a13c257eeb6e2fee1e175afb687fad4f7fee34428d6a60ddcdfc4dae7d2a0f80a33e277ce96c2dec1c1558f96a7daf4d7dec36408f6862dfcbfa4ba87b2c0986a538217aef6a2bea1a135eff6c7ba94b7bea3046896e64d9c9f849aa792e0b84a73a2378ed6829e818115cfd6e79ab4979e832448b6c66dbc7f647a47720058aa9342d76e36627e6161f52f36077a54777e63c4a856268d5c5f445a675220788ab362f74e16425e4141d50f16275a74575e43e4887606ad7c3f243a07324018ead302972e76223e2121b56f76473a14373e2384e81666cd1c1f041a27126038caf322b70e56021e0101954f56671a34171e03a4c83646ed3cffe4fac7f280d82a13c257eeb6e2fee1e175afb687fad4f7fee34428d6a60ddcdfc4dae7d2a0f80a33e277ce96c2dec1c1558f96a7daf4d7dec36408f6862dfcbfa4ba87b2c0986a538217aef6a2bea1a135eff6c7ba94b7bea3046896e64d9c9f849aa792e0b84a73a2378ed6829e818115cfd6e79ab4979e832448b6c66dbc7f647a47720058aa9342d76e36627e6161f52f36077a54777e63c4a856268d5c5f445a675220788ab362f74e16425e4141d50f16275a74575e43e4887606ad7c3f243a07324018ead302972e76223e2121b56f76473a14373e2384e81666cd1c1f041a27126038caf322b70e56021e0101954f56671a34171e03a4c83646ed3cffe4fac7f280d82a13c257eeb6e2fee1e175afb687fad4f7fee34428d6a60ddcdfc4dae7d2a0f80a33e277ce96c2dec1c1558f96a7daf4d7dec36408f6862dfcbfa4ba87b2c0986a538217aef6a2bea1a135eff6c7ba94b7bea3046896e64d9c9f849aa792e0b84a73a2378ed6829e818115cfd6e79ab4979e832448b6c66dbc7f647a47720058aa9342d76e36627e6161f52f36077a54777e63c4a856268d5c5f445a675220788ab362f74e16425e4141d50f16275a74575e43e4887606ad7c3f243a07324018ead302972e76223e2121b56f76473a14373e2384e81666cd1c1f041a27126038caf322b70e56021e0101954f56671a34171e03a4c83646ed3cffe4fac7f280d82a13c257eeb6e2fee1e175afb687fad4f7fee34428d6a60ddcdfc4dae7d2a0f80a33e277ce96c2dec1c1558f96a7daf4d7dec36408f6862dfcbfa4ba87b2c0986a538217aef6a2bea1a135eff6c7ba94b7bea3046896e64d9c9f849aa792e0b84a73a2378ed6829e818115cfd6e79ab4979e832448b6c66dbc7f647a47720058aa9342d76e36627e615ce04f9682390847fcfa26b583e6492adb58ea3ab24f6765425197f1f976a981d0cb9045792d000022512023a1eaae001da76cf71d354f048b2c55fa38f836b755eaacb4977896164d1aa202fd75094cf2eea157e08c97cb712b6bd43ac40167154d821516e5e852fc23d7be509fd158d60dfef84fa7bf21b7fb79629ef85ba73bca8c6e5659a5f149e735f199125f9555b0f7a2bffadc2ae8e5efac02da78b20bb477d04a841b2c0659b78293b2165462aa671272c2fc3eead77a376307f50d73aff846a6969cbffd28e0877d6b018ce0766fff5fb88f501c11b760d3adb8e0747c8d2756f4d74c2f4577f18166023d2c2261ad5f12668e498760933100e01190120a2d2b297ad69151f88b17cfc713668c93b13f8db4d2c7831df8a829b0e84d7299ed448fb120c710aa41bd0b9acb417677c5ff01fef348b8d9ce56a9a580958511c7638c9d4199259b749d70af2a1fdfbd6118145d8f21e5a3a856f123d504497be13292c74d7ddb8b46802c2fd106ef16eb06ac4a8af3a7fd77890d61b08dc291e27a0c65ba17e13e48c2549dc2e4500e22e82df338b3492a265861cab5de5b779aa034fc47f78d4057f4a4c003b5edb7aa88a869b662ad8f15d393f8d3dd2b0016b457dcea97eb48c24d592ba6e9c494ee4f7581fd539b4b42e442ad5ccbb85cdd33cd77ca59973f30fb210c34e7839a2d4c45af74db0dd209b99e05b0e80986593d5986c889b535b161c532d868389ae2c01fcd65f29bb5b6ac0cbdd7b196cabb8d586da5431ba73b067d271f347a1873eb1befcf0770dcac7af3e9057b4d0dc81224f1051de6b56f4fd46015ff0ab3f67944183d2d6f76e6615572352ee36f658ddf4e992c81e2410156463b46d1a61fb6ffb36a6f8e570fe89ab091184eb036b5ac736344ca631f80dc03475047752188572057f8455a52fb5a2a9b6ae86a4cccd4d9ba62e5a7324163c850432f105852c2dd41de549f3a112a3cf0197044ba0b31b591ab7277945f5fcfd456a14e8a8aaa6e829356e24ba213e5328f87c0a1fc07a46a262bfedc2da8516698b98b3d95b1b0218a7ddbd20e0cb95408d14db6dbb6ab0a0bec8ec9fc38eb82cb037876632eda5580edb0e7825a668308cd2c268b41e66f98bdd65139cad1a092b09c1ee6bc70efecbd704596a236111b7ba26320a539c253e307cafd3a584d1b1fbd0a5fb76b77d4417fe4193e9cd54dac48754a8816c04b4b908f67e94cbeb98e5d3f8238d4f472c64d76de739a76d0584af787a455cbc695bda3c49fc2fa346075923055a97e70137f16ce2229974af1545def7f8155521a8120fdb5d65dcb8677750714f9e701708e8032310c4758e456a37f5a11554cd352b43da2f2339bfd35c5ecc76909688d5ed890c0c8981cd193285030e0247c1f7c3acb92f1216aaadd9e607a6ffa3a5932ba55772221973dce9444923c6477bbcc7850c68dc495bd3df5b45cae3371dfe5e2f18a7316d18c47413cfd12209c48098749dae0adc0143483d9f560bed1d48ff114cdf87a2db0774ee74a5f1ae841489bfc9439f242f7b944e993d74336753432a31afe8defc410df4b060179f3b211c98297972f14a9e5bd7d55e2e7580c4efc1d9523a10229c1c2f4495f7af4f83c1233b8f8a5c8b1f66b0a5fc38286086ca44731c97f161f9de47c73da68d089ab2a589453a00ff162843fabe70969ac820885379dc350bd0f44968f1ffb9593b58e7ff6cbeb38adb377f8e5e450ca4128be70b07482f278125c9ccf9caf17cd3b7f3f8745c3de366bc03998fc98ef95df98c95998adef783e88edeef64eec0a32c56dbdf9004c5b3d6d7eda8af0a2f1116485975292887e4a39d7cfc4d6f7f58abeff690e1fb8ce504d3b08ad7f3446ad60aa69fd250cd7934855ae437884b9cadd71cfea2d64c7fd1733fc24e625525635e07401d26fe98aa5b557f34837fe622bbf6318234e8755e4d7c1c59ccbb41ef880353e8c59c7f21c3c53e13e7c790c1996c487bd18037cf4b6137659ba762959b5c2f951b29c5cff160118410a0b2b8f7ed6a6635b05cfbe36601c6ba563ffebc66d6a1813526a21fa2cbbd828e0fec863685f3309427ac7087ad52d21938f6754246c334d2fce1dc4516b0ce1b489bfba994d72760d2f4c013bc21264eee1cc602b78ee0334ce5a6ebd9ec5790a664e537e2e1131a7f716d8ee122d7ed72b13b5a3f5ddb49b960effab7629ac207c9b9f31b6aacccb1ff8809cc46ea65f68e06779cecd4971ae9ad4c833f8ca06c8a100c1c6bd600ee13f019056b6713ed56606b0a51c89a8632e9fdca28b1e64c6b79fb93334f8589fc705039cf064863852e11b83fa7c5bc96e5aaacb8b8c6ed6e3567b620317850e67a6684417a23d4cd33b6c8ad765ddec6283324e77a6c58a36e60a7ac4ce19c4ce31009bc2550ffa2445e967d547411fdd185c84a51a8a3c3027505ac09fadfadcf65a9e34e1dce6a08a389d26baa408642de68c1688807c3486ad7fe68b01e0dc4e07e93a98e9763b7279d745e62e62ee2ddc16186dc76bf04936cd14a46b55af17cbba157f1108d5baaedb82615d932ce6040302cfa779e9a94b5f7309d2924b33758e80ad2f581d113e685c7f7772bf8748f50b5a9cebc53944d4054cb5e5bb8ede0800365a26b5c0c57645e5be2d961dab5fc5efd8c05cdc5a00cd41f2b840b17f3a271fdf5865063a05d4fb76a0d040f06dfba85063d6e569f6f9133131c7c9fb6219e6834bffb089e2fe46d155b5debe58ee29a6c18a6441c71cc8996fa4ca60934ab6ffa3c00b486d03cc508c6459629ecf5172868c1eeb82caa8adfde1b973fa7adc96808b8eabe232b890e0fc0b7277ede5edf8770795786872938892190727ce6a19e3a1fad49b9fc17b39a3588161a86e190429b891d15217303192d78b0b48a6a95cd100e6e9c76d32b64a391051475e8607f345ac786486602cd4962f2e20523d2a323aba6ae3a331cc4d5d84a46ec9338d02d3d1c0336a75369b38ca97fe6f30b08f2ac61bae8ee26249f536c3fa84a82394dc36ab3ae917a4508ff57c6deb057bc6db680d3c773285aa629ba16133ca79fff3653a33ba8b0e5c1cb9cb737aa10844426b35977f5fc8d58d11aa5e64371041e961ba6c881bd1097f4f1ecc274b4c2a3533304db4128d16acbf70eb959880a2c0a4a5be0c099fe00310a7148f95b0c1f28ad0eb2c6b86c4cd61ed085075471e7e10afc3bd6e7de594d45092bcb9dc92fecd1a65a995a8df98112e3c60f7cb6f7009503e8caa6c63de07a4f3d91f9d3c34b4a0d59425beca833ffb522d672e5d7b208b82c639ebd4ec399adcf14e2dfbdfa34465a8ff147e898e9ea2488deb385a108e25df4db9e8ed2b498171fe1308d851ec9f47bcadf185db46c11357fb3e24ed4d10111725272b3a575b6d7781c1cad1e0e5f4f906082b2e47515e6c838b8d95979ebe0a272e307174777d9ba2a5b0e4080b0f15203033506f738c8e9aa0b2b4bfc7d8eb0000000000000000000000000013222f4301fd21050046fac55e83c49f6cda9865d7ec9763f96284ed7fa9227035cc40f66f5494daec70d3b140fec4fb663d99c94d19b2e719cc8de8939802037311568a1bc31eac94e2e9e51784db4f7381a6363f6b15bbdd199154052624733b34aaf70456f16a75cd56c2d8d89ead7c2f9238330726f38728d9705b82661dbff23de39a3dc07770e8d557ce450a93844b244aa760d5e674be2db231bc220f236f50507f6a70a1e6d36722f86e44d18ce834581a64bc916358955a0a02d610d75b007321e2f186357dc031f8834326a2404b26d1c234e27b86ab69a512c69094118ed85c254f6be1062b39bd2548a2b5f87988942f9402d0b41112573e6ebfefe05bb9bcfa825cdb77a3e355323debb4fbb7b9b2a7ae24b2cb77c84e41f82fa198e8e16a5f29e46ddeff243436dfcea42dce9057c4f62d89c9fb7f53563ed0b24a5e0b31b83b3c27904490707204ae376cb37216390d0611818664ebd37da91d8140d0cdd08b2435e19dc28893702ab3dc5ff6c08fbed3b779267763176089bb7f22bd3c7328020ccd36964623723263432d094f67d3af820c3859fc2bcda353979414eca267728abcf35702553856f0ff2432517a2f3765f086eb825225706e8aeb6617b04ec361af84750b23c688d40c473bc550938d5cda6ce609b44517535c373bbcb7582070bda1a3af79b069262f2cd463f528094ccb0629ec2cc11f70767f2d928af2361b81fd15ec14b63d86cff5e100f49d9084682bcbf8008d551ed72c295f206b155fd210395b82bd5af325ef8320e16671cf36dc8ab748b6d1e4248081233113cd32aad1c1d20c24173144ffa9b587d84ba8e09fef88853c5818fc8e129d0af57364f6ded0234efccbe576dd4e2799e2c8e0d02e6abb5825ac3c4e7db7bb82d316100ba63483e9fdf7acd1b4518b9c618f4b7dc986f263bf7f1324a5373378b5cbb370ba917cce3d379d5107e2dc8eab356be79bfbbd85007f6ff78b0d587b4bf6eb50eef106df927ef5da3e28d5d1cb960b980f244d955a2557d7a9c97351e74b74c81b416af7e792ff2b1e0be7248a4eb302e5b232ed2053da1b43ad1b35fd0d646213e9c38f78daab8ac7dff7e31dad373f078dc2a8cb8641d91f48359e7084360b6c7f7c512a48180c2a67224bf04d960de1cf40f08828d06ae63fe8e692a3fc61a11996061410653146c84140e49ebc7c1731cedb9dd132a685f418e92ddc8603af0bad23cc5229b5533f0bf705b1d4bfe4fb54f7f7e2105a29ebe9cafa7157951e50dc9f2cba79fdd66656ff53e1e28d50587fa93c8a1b9925133f0bc1b0ba44080e7164eaffa476e564a92937aeff19c5823f639560f4ce1f9168806502d88e361dfb490e67f3f5de3a0477e9cda49e1f9e9654c6cadab492be71c47b334c7e252ee1fcfd9822a1feb3846231ac2eef9817ff1a70633fe73540cafb726c2deb7bbf6f74796f5344ea059382fceaa24c3ed3878141242dbd6960339970714d987e0720911b273836c4632d134079b205bdb19ad7a77eb9afa0b504a641285caf99dee3f061184e2fca9797db408329452071da7c79f0f854e99b264370de59715c616948a48aafdf213568e6abce7a79bb9e6426fd5543d77dfe3e983a890488fe93b2e76b93571d0e5753f1db4a97a8ebeff0ff04c71655c185e5ee83633d7ab0a717e7d0be966bbe02cff7db2a286e6cdb4e124647c665194f03474340a8e649c354e0c85d90bc689fc198ea11fcc105991a2f71b2b3e9bb4a424d4b0d550196031bab6ea17a28bbb1735718d65bc886d5ac1b3140d2f65a311b53740dc4d54695746dc3c7fbfa4ec280e97325d01bc97024a57382450d785d8874607f046d000000",
  "txid": "6d2b3e3f9c5370f66554d19e5b0772f6109b39cdaecbc511b6bbcfdd99bfa52c",
  "hash": "40c089e2b92ac617231ae7035a5f540f37bed5159e7aefb77f2eafc702b37710",
  "size": 5085,
  "vsize": 2278,
  "version": 1,
  "locktime": 109,
  "vin": [
    {
      "txid": "8dba2b7556660fc16664ceabde42d00cf39f1ae1e235951040304fffc00fc5dd",
      "vout": 1,
      "scriptSig": {
        "asm": "",
        "hex": ""
      },
      "txinwitness": [
        "4cf2eea157e08c97cb712b6bd43ac40167154d821516e5e852fc23d7be509fd158d60dfef84fa7bf21b7fb79629ef85ba73bca8c6e5659a5f149e735f199125f9555b0f7a2bffadc2ae8e5efac02da78b20bb477d04a841b2c0659b78293b2165462aa671272c2fc3eead77a376307f50d73aff846a6969cbffd28e0877d6b018ce0766fff5fb88f501c11b760d3adb8e0747c8d2756f4d74c2f4577f18166023d2c2261ad5f12668e498760933100e01190120a2d2b297ad69151f88b17cfc713668c93b13f8db4d2c7831df8a829b0e84d7299ed448fb120c710aa41bd0b9acb417677c5ff01fef348b8d9ce56a9a580958511c7638c9d4199259b749d70af2a1fdfbd6118145d8f21e5a3a856f123d504497be13292c74d7ddb8b46802c2fd106ef16eb06ac4a8af3a7fd77890d61b08dc291e27a0c65ba17e13e48c2549dc2e4500e22e82df338b3492a265861cab5de5b779aa034fc47f78d4057f4a4c003b5edb7aa88a869b662ad8f15d393f8d3dd2b0016b457dcea97eb48c24d592ba6e9c494ee4f7581fd539b4b42e442ad5ccbb85cdd33cd77ca59973f30fb210c34e7839a2d4c45af74db0dd209b99e05b0e80986593d5986c889b535b161c532d868389ae2c01fcd65f29bb5b6ac0cbdd7b196cabb8d586da5431ba73b067d271f347a1873eb1befcf0770dcac7af3e9057b4d0dc81224f1051de6b56f4fd46015ff0ab3f67944183d2d6f76e6615572352ee36f658ddf4e992c81e2410156463b46d1a61fb6ffb36a6f8e570fe89ab091184eb036b5ac736344ca631f80dc03475047752188572057f8455a52fb5a2a9b6ae86a4cccd4d9ba62e5a7324163c850432f105852c2dd41de549f3a112a3cf0197044ba0b31b591ab7277945f5fcfd456a14e8a8aaa6e829356e24ba213e5328f87c0a1fc07a46a262bfedc2da8516698b98b3d95b1b0218a7ddbd20e0cb95408d14db6dbb6ab0a0bec8ec9fc38eb82cb037876632eda5580edb0e7825a668308cd2c268b41e66f98bdd65139cad1a092b09c1ee6bc70efecbd704596a236111b7ba26320a539c253e307cafd3a584d1b1fbd0a5fb76b77d4417fe4193e9cd54dac48754a8816c04b4b908f67e94cbeb98e5d3f8238d4f472c64d76de739a76d0584af787a455cbc695bda3c49fc2fa346075923055a97e70137f16ce2229974af1545def7f8155521a8120fdb5d65dcb8677750714f9e701708e8032310c4758e456a37f5a11554cd352b43da2f2339bfd35c5ecc76909688d5ed890c0c8981cd193285030e0247c1f7c3acb92f1216aaadd9e607a6ffa3a5932ba55772221973dce9444923c6477bbcc7850c68dc495bd3df5b45cae3371dfe5e2f18a7316d18c47413cfd12209c48098749dae0adc0143483d9f560bed1d48ff114cdf87a2db0774ee74a5f1ae841489bfc9439f242f7b944e993d74336753432a31afe8defc410df4b060179f3b211c98297972f14a9e5bd7d55e2e7580c4efc1d9523a10229c1c2f4495f7af4f83c1233b8f8a5c8b1f66b0a5fc38286086ca44731c97f161f9de47c73da68d089ab2a589453a00ff162843fabe70969ac820885379dc350bd0f44968f1ffb9593b58e7ff6cbeb38adb377f8e5e450ca4128be70b07482f278125c9ccf9caf17cd3b7f3f8745c3de366bc03998fc98ef95df98c95998adef783e88edeef64eec0a32c56dbdf9004c5b3d6d7eda8af0a2f1116485975292887e4a39d7cfc4d6f7f58abeff690e1fb8ce504d3b08ad7f3446ad60aa69fd250cd7934855ae437884b9cadd71cfea2d64c7fd1733fc24e625525635e07401d26fe98aa5b557f34837fe622bbf6318234e8755e4d7c1c59ccbb41ef880353e8c59c7f21c3c53e13e7c790c1996c487bd18037cf4b6137659ba762959b5c2f951b29c5cff160118410a0b2b8f7ed6a6635b05cfbe36601c6ba563ffebc66d6a1813526a21fa2cbbd828e0fec863685f3309427ac7087ad52d21938f6754246c334d2fce1dc4516b0ce1b489bfba994d72760d2f4c013bc21264eee1cc602b78ee0334ce5a6ebd9ec5790a664e537e2e1131a7f716d8ee122d7ed72b13b5a3f5ddb49b960effab7629ac207c9b9f31b6aacccb1ff8809cc46ea65f68e06779cecd4971ae9ad4c833f8ca06c8a100c1c6bd600ee13f019056b6713ed56606b0a51c89a8632e9fdca28b1e64c6b79fb93334f8589fc705039cf064863852e11b83fa7c5bc96e5aaacb8b8c6ed6e3567b620317850e67a6684417a23d4cd33b6c8ad765ddec6283324e77a6c58a36e60a7ac4ce19c4ce31009bc2550ffa2445e967d547411fdd185c84a51a8a3c3027505ac09fadfadcf65a9e34e1dce6a08a389d26baa408642de68c1688807c3486ad7fe68b01e0dc4e07e93a98e9763b7279d745e62e62ee2ddc16186dc76bf04936cd14a46b55af17cbba157f1108d5baaedb82615d932ce6040302cfa779e9a94b5f7309d2924b33758e80ad2f581d113e685c7f7772bf8748f50b5a9cebc53944d4054cb5e5bb8ede0800365a26b5c0c57645e5be2d961dab5fc5efd8c05cdc5a00cd41f2b840b17f3a271fdf5865063a05d4fb76a0d040f06dfba85063d6e569f6f9133131c7c9fb6219e6834bffb089e2fe46d155b5debe58ee29a6c18a6441c71cc8996fa4ca60934ab6ffa3c00b486d03cc508c6459629ecf5172868c1eeb82caa8adfde1b973fa7adc96808b8eabe232b890e0fc0b7277ede5edf8770795786872938892190727ce6a19e3a1fad49b9fc17b39a3588161a86e190429b891d15217303192d78b0b48a6a95cd100e6e9c76d32b64a391051475e8607f345ac786486602cd4962f2e20523d2a323aba6ae3a331cc4d5d84a46ec9338d02d3d1c0336a75369b38ca97fe6f30b08f2ac61bae8ee26249f536c3fa84a82394dc36ab3ae917a4508ff57c6deb057bc6db680d3c773285aa629ba16133ca79fff3653a33ba8b0e5c1cb9cb737aa10844426b35977f5fc8d58d11aa5e64371041e961ba6c881bd1097f4f1ecc274b4c2a3533304db4128d16acbf70eb959880a2c0a4a5be0c099fe00310a7148f95b0c1f28ad0eb2c6b86c4cd61ed085075471e7e10afc3bd6e7de594d45092bcb9dc92fecd1a65a995a8df98112e3c60f7cb6f7009503e8caa6c63de07a4f3d91f9d3c34b4a0d59425beca833ffb522d672e5d7b208b82c639ebd4ec399adcf14e2dfbdfa34465a8ff147e898e9ea2488deb385a108e25df4db9e8ed2b498171fe1308d851ec9f47bcadf185db46c11357fb3e24ed4d10111725272b3a575b6d7781c1cad1e0e5f4f906082b2e47515e6c838b8d95979ebe0a272e307174777d9ba2a5b0e4080b0f15203033506f738c8e9aa0b2b4bfc7d8eb0000000000000000000000000013222f4301",
        "0046fac55e83c49f6cda9865d7ec9763f96284ed7fa9227035cc40f66f5494daec70d3b140fec4fb663d99c94d19b2e719cc8de8939802037311568a1bc31eac94e2e9e51784db4f7381a6363f6b15bbdd199154052624733b34aaf70456f16a75cd56c2d8d89ead7c2f9238330726f38728d9705b82661dbff23de39a3dc07770e8d557ce450a93844b244aa760d5e674be2db231bc220f236f50507f6a70a1e6d36722f86e44d18ce834581a64bc916358955a0a02d610d75b007321e2f186357dc031f8834326a2404b26d1c234e27b86ab69a512c69094118ed85c254f6be1062b39bd2548a2b5f87988942f9402d0b41112573e6ebfefe05bb9bcfa825cdb77a3e355323debb4fbb7b9b2a7ae24b2cb77c84e41f82fa198e8e16a5f29e46ddeff243436dfcea42dce9057c4f62d89c9fb7f53563ed0b24a5e0b31b83b3c27904490707204ae376cb37216390d0611818664ebd37da91d8140d0cdd08b2435e19dc28893702ab3dc5ff6c08fbed3b779267763176089bb7f22bd3c7328020ccd36964623723263432d094f67d3af820c3859fc2bcda353979414eca267728abcf35702553856f0ff2432517a2f3765f086eb825225706e8aeb6617b04ec361af84750b23c688d40c473bc550938d5cda6ce609b44517535c373bbcb7582070bda1a3af79b069262f2cd463f528094ccb0629ec2cc11f70767f2d928af2361b81fd15ec14b63d86cff5e100f49d9084682bcbf8008d551ed72c295f206b155fd210395b82bd5af325ef8320e16671cf36dc8ab748b6d1e4248081233113cd32aad1c1d20c24173144ffa9b587d84ba8e09fef88853c5818fc8e129d0af57364f6ded0234efccbe576dd4e2799e2c8e0d02e6abb5825ac3c4e7db7bb82d316100ba63483e9fdf7acd1b4518b9c618f4b7dc986f263bf7f1324a5373378b5cbb370ba917cce3d379d5107e2dc8eab356be79bfbbd85007f6ff78b0d587b4bf6eb50eef106df927ef5da3e28d5d1cb960b980f244d955a2557d7a9c97351e74b74c81b416af7e792ff2b1e0be7248a4eb302e5b232ed2053da1b43ad1b35fd0d646213e9c38f78daab8ac7dff7e31dad373f078dc2a8cb8641d91f48359e7084360b6c7f7c512a48180c2a67224bf04d960de1cf40f08828d06ae63fe8e692a3fc61a11996061410653146c84140e49ebc7c1731cedb9dd132a685f418e92ddc8603af0bad23cc5229b5533f0bf705b1d4bfe4fb54f7f7e2105a29ebe9cafa7157951e50dc9f2cba79fdd66656ff53e1e28d50587fa93c8a1b9925133f0bc1b0ba44080e7164eaffa476e564a92937aeff19c5823f639560f4ce1f9168806502d88e361dfb490e67f3f5de3a0477e9cda49e1f9e9654c6cadab492be71c47b334c7e252ee1fcfd9822a1feb3846231ac2eef9817ff1a70633fe73540cafb726c2deb7bbf6f74796f5344ea059382fceaa24c3ed3878141242dbd6960339970714d987e0720911b273836c4632d134079b205bdb19ad7a77eb9afa0b504a641285caf99dee3f061184e2fca9797db408329452071da7c79f0f854e99b264370de59715c616948a48aafdf213568e6abce7a79bb9e6426fd5543d77dfe3e983a890488fe93b2e76b93571d0e5753f1db4a97a8ebeff0ff04c71655c185e5ee83633d7ab0a717e7d0be966bbe02cff7db2a286e6cdb4e124647c665194f03474340a8e649c354e0c85d90bc689fc198ea11fcc105991a2f71b2b3e9bb4a424d4b0d550196031bab6ea17a28bbb1735718d65bc886d5ac1b3140d2f65a311b53740dc4d54695746dc3c7fbfa4ec280e97325d01bc97024a57382450d785d8874607f04"
      ],
      "sequence": 4294967294
    }
  ],
  "vout": [
    {
      "value": 1.0,
      "n": 0,
      "scriptPubKey": {
        "asm": "OP_RETURN 05d64c7ec66f2be99ceea5a14758a972c5a155587c9cb961d78182139f340dbb ffe4fac7f280d82a13c257eeb6e2fee1e175afb687fad4f7fee34428d6a60ddcdfc4dae7d2a0f80a33e277ce96c2dec1c1558f96a7daf4d7dec36408f6862dfcbfa4ba87b2c0986a538217aef6a2bea1a135eff6c7ba94b7bea3046896e64d9c9f849aa792e0b84a73a2378ed6829e818115cfd6e79ab4979e832448b6c66dbc7f647a47720058aa9342d76e36627e6161f52f36077a54777e63c4a856268d5c5f445a675220788ab362f74e16425e4141d50f16275a74575e43e4887606ad7c3f243a07324018ead302972e76223e2121b56f76473a14373e2384e81666cd1c1f041a27126038caf322b70e56021e0101954f56671a34171e03a4c83646ed3cffe4fac7f280d82a13c257eeb6e2fee1e175afb687fad4f7fee34428d6a60ddcdfc4dae7d2a0f80a33e277ce96c2dec1c1558f96a7daf4d7dec36408f6862dfcbfa4ba87b2c0986a538217aef6a2bea1a135eff6c7ba94b7bea3046896e64d9c9f849aa792e0b84a73a2378ed6829e818115cfd6e79ab4979e832448b6c66dbc7f647a47720058aa9342d76e36627e6161f52f36077a54777e63c4a856268d5c5f445a675220788ab362f74e16425e4141d50f16275a74575e43e4887606ad7c3f243a07324018ead302972e76223e2121b56f76473a14373e2384e81666cd1c1f041a27126038caf322b70e56021e0101954f56671a34171e03a4c83646ed3cffe4fac7f280d82a13c257eeb6e2fee1e175afb687fad4f7fee34428d6a60ddcdfc4dae7d2a0f80a33e277ce96c2dec1c1558f96a7daf4d7dec36408f6862dfcbfa4ba87b2c0986a538217aef6a2bea1a135eff6c7ba94b7bea3046896e64d9c9f849aa792e0b84a73a2378ed6829e818115cfd6e79ab4979e832448b6c66dbc7f647a47720058aa9342d76e36627e6161f52f36077a54777e63c4a856268d5c5f445a675220788ab362f74e16425e4141d50f16275a74575e43e4887606ad7c3f243a07324018ead302972e76223e2121b56f76473a14373e2384e81666cd1c1f041a27126038caf322b70e56021e0101954f56671a34171e03a4c83646ed3cffe4fac7f280d82a13c257eeb6e2fee1e175afb687fad4f7fee34428d6a60ddcdfc4dae7d2a0f80a33e277ce96c2dec1c1558f96a7daf4d7dec36408f6862dfcbfa4ba87b2c0986a538217aef6a2bea1a135eff6c7ba94b7bea3046896e64d9c9f849aa792e0b84a73a2378ed6829e818115cfd6e79ab4979e832448b6c66dbc7f647a47720058aa9342d76e36627e6161f52f36077a54777e63c4a856268d5c5f445a675220788ab362f74e16425e4141d50f16275a74575e43e4887606ad7c3f243a07324018ead302972e76223e2121b56f76473a14373e2384e81666cd1c1f041a27126038caf322b70e56021e0101954f56671a34171e03a4c83646ed3cffe4fac7f280d82a13c257eeb6e2fee1e175afb687fad4f7fee34428d6a60ddcdfc4dae7d2a0f80a33e277ce96c2dec1c1558f96a7daf4d7dec36408f6862dfcbfa4ba87b2c0986a538217aef6a2bea1a135eff6c7ba94b7bea3046896e64d9c9f849aa792e0b84a73a2378ed6829e818115cfd6e79ab4979e832448b6c66dbc7f647a47720058aa9342d76e36627e615ce04f9682390847fcfa26b583e6492adb58ea3ab24f6765425197f1f976a981",
        "hex": "6a2005d64c7ec66f2be99ceea5a14758a972c5a155587c9cb961d78182139f340dbb4db004ffe4fac7f280d82a13c257eeb6e2fee1e175afb687fad4f7fee34428d6a60ddcdfc4dae7d2a0f80a33e277ce96c2dec1c1558f96a7daf4d7dec36408f6862dfcbfa4ba87b2c0986a538217aef6a2bea1a135eff6c7ba94b7bea3046896e64d9c9f849aa792e0b84a73a2378ed6829e818115cfd6e79ab4979e832448b6c66dbc7f647a47720058aa9342d76e36627e6161f52f36077a54777e63c4a856268d5c5f445a675220788ab362f74e16425e4141d50f16275a74575e43e4887606ad7c3f243a07324018ead302972e76223e2121b56f76473a14373e2384e81666cd1c1f041a27126038caf322b70e56021e0101954f56671a34171e03a4c83646ed3cffe4fac7f280d82a13c257eeb6e2fee1e175afb687fad4f7fee34428d6a60ddcdfc4dae7d2a0f80a33e277ce96c2dec1c1558f96a7daf4d7dec36408f6862dfcbfa4ba87b2c0986a538217aef6a2bea1a135eff6c7ba94b7bea3046896e64d9c9f849aa792e0b84a73a2378ed6829e818115cfd6e79ab4979e832448b6c66dbc7f647a47720058aa9342d76e36627e6161f52f36077a54777e63c4a856268d5c5f445a675220788ab362f74e16425e4141d50f16275a74575e43e4887606ad7c3f243a07324018ead302972e76223e2121b56f76473a14373e2384e81666cd1c1f041a27126038caf322b70e56021e0101954f56671a34171e03a4c83646ed3cffe4fac7f280d82a13c257eeb6e2fee1e175afb687fad4f7fee34428d6a60ddcdfc4dae7d2a0f80a33e277ce96c2dec1c1558f96a7daf4d7dec36408f6862dfcbfa4ba87b2c0986a538217aef6a2bea1a135eff6c7ba94b7bea3046896e64d9c9f849aa792e0b84a73a2378ed6829e818115cfd6e79ab4979e832448b6c66dbc7f647a47720058aa9342d76e36627e6161f52f36077a54777e63c4a856268d5c5f445a675220788ab362f74e16425e4141d50f16275a74575e43e4887606ad7c3f243a07324018ead302972e76223e2121b56f76473a14373e2384e81666cd1c1f041a27126038caf322b70e56021e0101954f56671a34171e03a4c83646ed3cffe4fac7f280d82a13c257eeb6e2fee1e175afb687fad4f7fee34428d6a60ddcdfc4dae7d2a0f80a33e277ce96c2dec1c1558f96a7daf4d7dec36408f6862dfcbfa4ba87b2c0986a538217aef6a2bea1a135eff6c7ba94b7bea3046896e64d9c9f849aa792e0b84a73a2378ed6829e818115cfd6e79ab4979e832448b6c66dbc7f647a47720058aa9342d76e36627e6161f52f36077a54777e63c4a856268d5c5f445a675220788ab362f74e16425e4141d50f16275a74575e43e4887606ad7c3f243a07324018ead302972e76223e2121b56f76473a14373e2384e81666cd1c1f041a27126038caf322b70e56021e0101954f56671a34171e03a4c83646ed3cffe4fac7f280d82a13c257eeb6e2fee1e175afb687fad4f7fee34428d6a60ddcdfc4dae7d2a0f80a33e277ce96c2dec1c1558f96a7daf4d7dec36408f6862dfcbfa4ba87b2c0986a538217aef6a2bea1a135eff6c7ba94b7bea3046896e64d9c9f849aa792e0b84a73a2378ed6829e818115cfd6e79ab4979e832448b6c66dbc7f647a47720058aa9342d76e36627e615ce04f9682390847fcfa26b583e6492adb58ea3ab24f6765425197f1f976a981",
        "type": "nulldata"
      }
    },
    {
      "value": 499988.8141,
      "n": 1,
      "scriptPubKey": {
        "asm": "1 23a1eaae001da76cf71d354f048b2c55fa38f836b755eaacb4977896164d1aa2",
        "hex": "512023a1eaae001da76cf71d354f048b2c55fa38f836b755eaacb4977896164d1aa2",
        "reqSigs": 1,
        "type": "witness_v1_scripthash",
        "addresses": [
          "3QJmnh"
        ]
      }
    }
  ],
  "blockhash": "9418e69333e129952491dcd6dc324ee50ca4a2e07f0678970cb85d951484494a",
  "confirmations": 1,
  "time": 1764177673,
  "blocktime": 1764177673
}