{
  "hex": "01000000000101e43e34efee43b33e26dd5a3ce33e5e3f1e1630e93797e8cdd0087bc4ff659f020100000000feffffff0200e1f50500000000fdd5046a2065e3c7e774fb64161a4b7f3a61d863930d1741a65ae94b20f5825a79b09851b94db0043816b9f8d07755937a25809c46367ef0b7a2dd580020e1a9a9ebf8c5e5714117183699d8f05775b35a05a0bc66165ed09782fd782000c18989cbd8e5c55161377856f9b8903715d33a65c0dc06763eb0f7e29d184060a1e9e9abb885a53101575876d998b01735f31a45e0fc26561e90d7c2bd38604081c9c98b98a585112177b896397850f7d513faa5001cc6b6fe7037225dd880a06129296b784565f1c19798b6195870d7f533da85203ce696de5017027df8a0804109094b586545d1e1b7f8d6793810b79553bae5405c86f6be3077621d98c0e02169692b380525b181d7d8f659183097b5739ac5607ca6d69e1057423db8e0c00149490b18250591a1f73816b9f8d07755937a25809c46367ef0b7a2dd580020e1a9a9ebf8c5e5714117183699d8f05775b35a05a0bc66165ed09782fd782000c18989cbd8e5c55161377856f9b8903715d33a65c0dc06763eb0f7e29d184060a1e9e9abb885a53101575876d998b01735f31a45e0fc26561e90d7c2bd38604081c9c98b98a585112177b896397850f7d513faa5001cc6b6fe7037225dd880a06129296b784565f1c19798b6195870d7f533da85203ce696de5017027df8a0804109094b586545d1e1b7f8d6793810b79553bae5405c86f6be3077621d98c0e02169692b380525b181d7d8f659183097b5739ac5607ca6d69e1057423db8e0c00149490b18250591a1f73816b9f8d07755937a25809c46367ef0b7a2dd580020e1a9a9ebf8c5e5714117183699d8f05775b35a05a0bc66165ed09782fd782000c18989cbd8e5c55161377856f9b8903715d33a65c0dc06763eb0f7e29d184060a1e9e9abb885a53101575876d998b01735f31a45e0fc26561e90d7c2bd38604081c9c98b98a585112177b896397850f7d513faa5001cc6b6fe7037225dd880a06129296b784565f1c19798b6195870d7f533da85203ce696de5017027df8a0804109094b586545d1e1b7f8d6793810b79553bae5405c86f6be3077621d98c0e02169692b380525b181d7d8f659183097b5739ac5607ca6d69e1057423db8e0c00149490b18250591a1f73816b9f8d07755937a25809c46367ef0b7a2dd580020e1a9a9ebf8c5e5714117183699d8f05775b35a05a0bc66165ed09782fd782000c18989cbd8e5c55161377856f9b8903715d33a65c0dc06763eb0f7e29d184060a1e9e9abb885a53101575876d998b01735f31a45e0fc26561e90d7c2bd38604081c9c98b98a585112177b896397850f7d513faa5001cc6b6fe7037225dd880a06129296b784565f1c19798b6195870d7f533da85203ce696de5017027df8a0804109094b586545d1e1b7f8d6793810b79553bae5405c86f6be3077621d98c0e02169692b380525b181d7d8f659183097b5739ac5607ca6d69e1057423db8e0c00149490b18250591a1f73816b9f8d07755937a25809c46367ef0b7a2dd580020e1a9a9ebf8c5e5714117183699d8f05775b35a05a0bc66165ed09782fd782000c18989cbd8e5c55161377856f9b8903715d33a65c0dc06763eb0f7e29d184060a1e9e9abb885a53101575876d998b01735f31a45e0fc26561e90d7c2bd38604081c9c98b98a585112177b896397850f7d513faa5001cc6b6fe70fec0671485524f6ab081cd6f93c030700cbafc96bf88f385eb195d51068b9c0e8022c5f6782d0000225120375e08bf42cba653a7101b4e94f256931d628f69c0087cda8d87310d7602827b02fd75096a56ce9e37223c6eb97f67d3e27b64ae285b8892684323f352d3a7189d0cf09b13c7f0fa69097fdc8d10e707c46a097dbe4ee051186c69eef643e862b880e8cded7ee03e8d9eed1443d3958bdbafb97c298b93f851825110d8343383db8b80186be1fe3455972dbdda02ba34f238628c23c4c53449f9d9753ed36215080ab130bb42a856124adb750ff2e67539b005a69266b432e170f58625f019fee4b283ec4163412a436dd23623f3313bb968bf8cd488b1684e59f12208d3d8d28b33bbfc85eca556da3c4cec9d886c6d26ba0c973ab63d7a2ffbc1d6e2162f9a747a283604fea3d4e2db717ea0180a7a9e55941d48599870ffdc06e10211899509eb946eafcb62fba5fda8601967595bc943a8ab56caf396b35d82719228500390575f44f627a3fa330d33bfdc26ff9aa873fec08d9cde8760c0b5903d36dd9edc441fdf0c6cd2badc602168218762b8ee206dbb01574b9ce772c7414267161087e4062eab6520b98f86285412256660ec31de7c3169d95aa14b4561db972777421c14a22dd6db03dcab063b134754522efffb96b56164705f4946fa465c84c343f716b89f76ff52c269591b10031782c524c2cecd434e2d13ff938e170df63c6cec72d2b52f2be9b6b9931425fa4f30c41ca552b0a9539272fd829141f6509a427f65c144bd5bdc8c9e2f684ddeddcb9a19f2d4b9ec4e2513b5814f092f84dfe18fdb9fef7cdebc06427d0e777f868980f7ef6a775639fa8e8273e17cc6638d152c9a6df32b8d93aaf7a19067ab7b4d420ab973b3508046f191fc00cd5a0715e58a5a077332e0edc0a057f697936512b3ee6eb97ac2508f0619255f6c02370a9c163256054a902052211199d8717bf0a1c717e81f894488c3df22920052554236da7e53f023bbf3deccad72d119ba81d52c902f1ea1c820f9620024b1e6239facf88c40f45fe155e4c3c25923126c1b3d168e4d71a79bb78869e1f09af9c7a12558059a6eb43e42bb1e6d47008ffe1d7e3d30742f8c3c5c4486545e4e52174ee1977f4a723cf1170729a6fc93045700fdecfcece65cf3e04a2d576e18788b8a4426a55ac6f708632932e14d5cf468ac25318c495002797af70978f58a1c571f620148e056dfcb3f22029c0098e6e948a62d35fb69145bdfa7f200d8f5cabe2d51a524c434fea6763a26080140b36936acf63acc355a58a49d3bfb7e6d9327eb8c3304ffed4471bf5e10ad66cd2cccec8ea484ef365556f6d8a680d14147df3132893b44978496bf667d9e428a0e36f8f3e8eacf128a83398a244603e7b4ad5caeb82d350be412afe431c7017cbbf84dda002191241e00867761ab3afb64e2c4e7f59b0e6891e6651c517d5271ba821ea75178e13ffa73c35c29ab55e8ea43399e1f698f3c97916533b7226d18e9b4ebc923f526c41d1228209a2814a52dc958332fd851e78e044f941425af9fd2d72e9ba4360f45746df2834d72fb957d52e4cd8560d7a120d6e5f98978a036c2196df9dd208c491f3018daca045145bb2281bba7c8bfc52b6458ae19e6be114add408b7ed4765045406e7b11a6e47f625457fa88ead6f6bbb17b3dbaacf5400540814c50771e38a9b6e7009cc68dcb09befb1920505057d73b626a1f93a49b106e9803bcdfb0b4358d3e8d92becb296acf21ebafbda698826e759748eae7044311f38844f78cb5cb30fb24a7ec56d3b8fff470f5bc9adb99e086d5fcf4e1b6cb28d4220542abc07dcfc25db9112ceb4ba1ae17fb968a3515e43399221f979da578781d931b2a4ac1fa2778bb26aaf282629df30270ea0991a00453ba5ba3ef9f2499f758a19eb2a5004c56ff66f9b6aa2ae67fdc7c3efa7d040ac8cf79e2e8a52a175ad2ac6f61074c0b7bf162eeb629c48bff34f583003b838d0cb53f479189aff9f5662a0e872cc338a625e4ba45a13903cf171cd9b6ecb3a78bf5dc65aa7eb7fb9f5f93af2faa916d3e6dd25a6b1b68b772e69b070ed0cd92684c5df9fb7592594ef2438b024b2378e1f7ec2e454b7728944d3fde08b8ced8faf61e32561d98aea27adf37b10b37a475543afcd9da9c3289f200a3dcc8e4516570359987b89a620823264fb5a8c06c974a2ef422ba654ac1de795814c7af37341f0cb845056356cc8f4626da15eaf7688e0a07bf75930978310dcb7a8719e45fe87ea6d3e50b4ab6c90de7c1400916902017b48fe54faad9ca48fefdaffd3564a9358e9c2733af70f6ea0e661c3e08612c96169133d853430123954f01bb90e30c5cad38b0fa5a64cf52514de2e8ef159c9e51abd8e674c19a09482026777717ee3aab70b09439130a214e19b93ec05596203686226e4f718fe1deab01835aa5a68f5cfddc4ed810324cc6428a01fcb8165d053f4fe3c0405a76485dde96972c4a05454e0637e80bb617829b4efe26fce676e21bf6ac53165410e5460c46fcd56a879a0eb205ab946ce6ab58372285e60420d6db131059ae7d683525319736eb1c009b1753320366b82febb2fd878a56d9e93c13e357393795b886d6c6e2d8ce619b8a1a71e1dc918ec91ef5fafebada8351c7b7085a5ad8b53d6a7c96da1cf72ccfabbfec27829633c474f1334e110b21afaf86377467fa42b63fe61fd601711e8954bd62441554d039b0507108966a553144187993ade647132d1c2534627d7ba2e06c92bf9642e1a6ce622365425929a0903763a825ad760a34b06cb02741291761d5412ad02677ec7d632c1bc4e6347957e65a9f26a6b752534aa61125b53abe7da0d50ddcd7b83ce52e4ad8a846a849c52367c5a784ad8c2d07656985d4eb72e1ae6d6de1bf98297763dd88c3986067de1c51283268b7f1cc01de2395e73c62edd87f4853160c7271bf0efbe1389e05cca90011343b060332097bf74b03827a08686002fc78f041998ab9d7a42e47c2b0c5aa0d1d136ea33f77621171bf11607d4b0f22ff5ced10366142edba806fc4161320db8e8788debee8a5fce03d1b692c6da14c6a64947e34d5f6ab53060b543d4c4d2602b66ffcedb29fc5499077a12870677d00d372b09434e045f9702c7222b8a2317d55eb83f5302f3495117ded52d8d027e4db92319aab0c89b534a7543e08241bca1de7ade1cba48e584e87997c446c98dd54e68e7825540e9f7556f6fb96842e18897a83b8647f9e61fa6fcec9d7a8a5570d4336faea4a64c296850d90f3dad37c6a4b475fbb00098e3a5b52627b35897734a4753b57b7ef5efc83298b9fc4697e7bdfbf9c47fa1caac61ba42c2707970dae4e8e8deae9f076d6f574bd6ebef38f8ef91dc5030a3d445475767b9497abc2c8ccf3feff0a0c1a2c336d898f94b3b4b9bdcbdbe7ebecf1fd172a3c4b6a6b797a898faeb5c3ced6dff203454c556481b8cdd4d6e4edf8fe0000000000000000000000001125364401fd210500e0cde289826f35d19a53591468420137b2a8d1c25b614e22dd8db1ebdd29b982fa0a8aa7e1694eb3059fde09ca7ab8f1a7bb5e256ee9a9e054a2f34a229bab544537638ff504ff126033fd5326ba5c555644aefed154ca1238bcfde27bd85605837f159c4da1ca75090abe5171d2c407d3b985568f0a84f3f0adda9c05c17f86081a9e8c617947eabcbecae8502cacac3bdd6936741e5fa36e8c540ed16be1e46e7367b8cceb9ac3f36989fea69ff5a8eb227e02dde0967b7571cec2a54ccdeb6db3cd7260ae911159d26c4630bdf297fecb125fd01c51f227bcf4b5457761946b5bb113c5049f1afcf82f161f89ad7b19131c13236adbcc9e117f400fea4c1d731abfb9f7384428f663b81be1487390c31bf39d3d3ee21f20f644b7c8b9d4a5c50e1d999f46431ce799cee1252dbe62685aa6c5da0f5448ee812845b9c48e5efe1c01da39d1bb7642cb3988587fc2378bf9c07f0b80d59304dcb0eee017efe7c8b6e235719c8da5912eaf5e87d94af2cfedda1d22e46a506222df4436742830535dd7b8342a271742201abef95b399f3fff4a3c9573ca10b32ed5cfeec7808cad5924beb796220eb9a7fe560f2d4a04f6145bc3f91d6d96741929913c16496ff0629540b1f869b4df5fa9869fac926943e9353157ed9f4a6f01e26fbe16fc46e5c18a4d270bb48ea459abcc6a86bca206167682abc7f602ac639e5422932bc78152506497dc7b6055d0e4f8661fb3379fd6e71847c71534cd5412e959fc8185c70dde77ce08c0d2214f05e9f851183b0eb6f4e0a350e29ff62ec9bedf556c4817c5456c3936e11dd9dcfaa69d312c8445e685f10ca39c6d1fafca75d553fa485075bdfebdf6123aa329386fe7cfe9599d56b2dffaac6ee00d185870a64df2521262fbcab07423e75b29bcae9b473afd93097adf73ee6537458943c4f0c1200f07756e41002efd0a8dd446010afa629ffbfaad9cc7f8253704ebb284ee805d09b9851e156bb149b0c6aca802d886ed0366f1f478521f95f913b47aeec3b095e9d5d452e298cd7da21510c790e5376e222214c91c459ea53c81ddddc10154f3c9b1794e33c433001db49c9d76227740c6812a1c7ab6597e213f2273170d4d1e6446e676541dddb308e410ef8a0da3755fa73f5bb9c53d625676b929ef5393fa39bc10ebaac02d2a12791d7a242147d645f3ddf54bbadf91a1630b0c8bc41d9b2cd3dcdb63a491127a42efe97449ce9add949087493c4f9fe0e6b157d9a23a2ed2090a3a4adc277456ef80f25cbf1a0f86df46bfc5dfca599bda6b8402625f63c4801928f2ac05163d0cc72ce1e3674c0f1069e30319f02d233f8871b9e2fd66518cae87211027145d5a024980d685d8f9d55394a90f4d5845d063766672d6b817ddad6179c7d3b386a47173e9e6bec9875760a509226fc3495d526c3e1e95f8ec02ad8e223d578d39cd2d7b57552253a398efe5adf60fd882357acf2a0d3c18b113123c934fc6d721f90affd96e306bb52fbd863e2abdba9311b938615fd7bb5bafd1efca7734bc4451a17d457d7da166bbeda41ca0bd3e92cda44ddb06f87ceb24f2233b556c0d2e384d75375e987766ba29fac8d71a3166918defaaf2ed2027755d0b34867eaa6a4e58305d6ad726edb5f4062dfa75a133c6c6143553b04e03f6ae673dce38c970698e46d834e1c2bf75e62803d908a4b8997cf961ce878c1ea1e14de920ebd4959f40bb98ae952e2fde7443c5d03757d43b341a28e0a4f8b5ef0c0918b72a93317850fe1cb711db4970de099e48aaa6260ccb3ce3f969f02195140cf44b57d8b51fab7200ea85cc74b103a9bcdc5850620c0580ec4d286d7f7a000000",
  "txid": "6163b6ce10c941d310748199b8c008fc31c3e5b243e9ac1838d1264096ec7367",
  "hash": "5cf85ce2aca568d0ed99c12b5fed06c313bdf8814c38f376d56eacde1c512e86",
  "size": 5085,
  "vsize": 2278,
  "version": 1,
  "locktime": 122,
  "vin": [
    {
      "txid": "029f65ffc47b08d0cde89737e930161e3f5e3ee33c5add263eb343eeef343ee4",
      "vout": 1,
      "scriptSig": {
        "asm": "",
        "hex": ""
      },
      "txinwitness": [
        "6a56ce9e37223c6eb97f67d3e27b64ae285b8892684323f352d3a7189d0cf09b13c7f0fa69097fdc8d10e707c46a097dbe4ee051186c69eef643e862b880e8cded7ee03e8d9eed1443d3958bdbafb97c298b93f851825110d8343383db8b80186be1fe3455972dbdda02ba34f238628c23c4c53449f9d9753ed36215080ab130bb42a856124adb750ff2e67539b005a69266b432e170f58625f019fee4b283ec4163412a436dd23623f3313bb968bf8cd488b1684e59f12208d3d8d28b33bbfc85eca556da3c4cec9d886c6d26ba0c973ab63d7a2ffbc1d6e2162f9a747a283604fea3d4e2db717ea0180a7a9e55941d48599870ffdc06e10211899509eb946eafcb62fba5fda8601967595bc943a8ab56caf396b35d82719228500390575f44f627a3fa330d33bfdc26ff9aa873fec08d9cde8760c0b5903d36dd9edc441fdf0c6cd2badc602168218762b8ee206dbb01574b9ce772c7414267161087e4062eab6520b98f86285412256660ec31de7c3169d95aa14b4561db972777421c14a22dd6db03dcab063b134754522efffb96b56164705f4946fa465c84c343f716b89f76ff52c269591b10031782c524c2cecd434e2d13ff938e170df63c6cec72d2b52f2be9b6b9931425fa4f30c41ca552b0a9539272fd829141f6509a427f65c144bd5bdc8c9e2f684ddeddcb9a19f2d4b9ec4e2513b5814f092f84dfe18fdb9fef7cdebc06427d0e777f868980f7ef6a775639fa8e8273e17cc6638d152c9a6df32b8d93aaf7a19067ab7b4d420ab973b3508046f191fc00cd5a0715e58a5a077332e0edc0a057f697936512b3ee6eb97ac2508f0619255f6c02370a9c163256054a902052211199d8717bf0a1c717e81f894488c3df22920052554236da7e53f023bbf3deccad72d119ba81d52c902f1ea1c820f9620024b1e6239facf88c40f45fe155e4c3c25923126c1b3d168e4d71a79bb78869e1f09af9c7a12558059a6eb43e42bb1e6d47008ffe1d7e3d30742f8c3c5c4486545e4e52174ee1977f4a723cf1170729a6fc93045700fdecfcece65cf3e04a2d576e18788b8a4426a55ac6f708632932e14d5cf468ac25318c495002797af70978f58a1c571f620148e056dfcb3f22029c0098e6e948a62d35fb69145bdfa7f200d8f5cabe2d51a524c434fea6763a26080140b36936acf63acc355a58a49d3bfb7e6d9327eb8c3304ffed4471bf5e10ad66cd2cccec8ea484ef365556f6d8a680d14147df3132893b44978496bf667d9e428a0e36f8f3e8eacf128a83398a244603e7b4ad5caeb82d350be412afe431c7017cbbf84dda002191241e00867761ab3afb64e2c4e7f59b0e6891e6651c517d5271ba821ea75178e13ffa73c35c29ab55e8ea43399e1f698f3c97916533b7226d18e9b4ebc923f526c41d1228209a2814a52dc958332fd851e78e044f941425af9fd2d72e9ba4360f45746df2834d72fb957d52e4cd8560d7a120d6e5f98978a036c2196df9dd208c491f3018daca045145bb2281bba7c8bfc52b6458ae19e6be114add408b7ed4765045406e7b11a6e47f625457fa88ead6f6bbb17b3dbaacf5400540814c50771e38a9b6e7009cc68dcb09befb1920505057d73b626a1f93a49b106e9803bcdfb0b4358d3e8d92becb296acf21ebafbda698826e759748eae7044311f38844f78cb5cb30fb24a7ec56d3b8fff470f5bc9adb99e086d5fcf4e1b6cb28d4220542abc07dcfc25db9112ceb4ba1ae17fb968a3515e43399221f979da578781d931b2a4ac1fa2778bb26aaf282629df30270ea0991a00453ba5ba3ef9f2499f758a19eb2a5004c56ff66f9b6aa2ae67fdc7c3efa7d040ac8cf79e2e8a52a175ad2ac6f61074c0b7bf162eeb629c48bff34f583003b838d0cb53f479189aff9f5662a0e872cc338a625e4ba45a13903cf171cd9b6ecb3a78bf5dc65aa7eb7fb9f5f93af2faa916d3e6dd25a6b1b68b772e69b070ed0cd92684c5df9fb7592594ef2438b024b2378e1f7ec2e454b7728944d3fde08b8ced8faf61e32561d98aea27adf37b10b37a475543afcd9da9c3289f200a3dcc8e4516570359987b89a620823264fb5a8c06c974a2ef422ba654ac1de795814c7af37341f0cb845056356cc8f4626da15eaf7688e0a07bf75930978310dcb7a8719e45fe87ea6d3e50b4ab6c90de7c1400916902017b48fe54faad9ca48fefdaffd3564a9358e9c2733af70f6ea0e661c3e08612c96169133d853430123954f01bb90e30c5cad38b0fa5a64cf52514de2e8ef159c9e51abd8e674c19a09482026777717ee3aab70b09439130a214e19b93ec05596203686226e4f718fe1deab01835aa5a68f5cfddc4ed810324cc6428a01fcb8165d053f4fe3c0405a76485dde96972c4a05454e0637e80bb617829b4efe26fce676e21bf6ac53165410e5460c46fcd56a879a0eb205ab946ce6ab58372285e60420d6db131059ae7d683525319736eb1c009b1753320366b82febb2fd878a56d9e93c13e357393795b886d6c6e2d8ce619b8a1a71e1dc918ec91ef5fafebada8351c7b7085a5ad8b53d6a7c96da1cf72ccfabbfec27829633c474f1334e110b21afaf86377467fa42b63fe61fd601711e8954bd62441554d039b0507108966a553144187993ade647132d1c2534627d7ba2e06c92bf9642e1a6ce622365425929a0903763a825ad760a34b06cb02741291761d5412ad02677ec7d632c1bc4e6347957e65a9f26a6b752534aa61125b53abe7da0d50ddcd7b83ce52e4ad8a846a849c52367c5a784ad8c2d07656985d4eb72e1ae6d6de1bf98297763dd88c3986067de1c51283268b7f1cc01de2395e73c62edd87f4853160c7271bf0efbe1389e05cca90011343b060332097bf74b03827a08686002fc78f041998ab9d7a42e47c2b0c5aa0d1d136ea33f77621171bf11607d4b0f22ff5ced10366142edba806fc4161320db8e8788debee8a5fce03d1b692c6da14c6a64947e34d5f6ab53060b543d4c4d2602b66ffcedb29fc5499077a12870677d00d372b09434e045f9702c7222b8a2317d55eb83f5302f3495117ded52d8d027e4db92319aab0c89b534a7543e08241bca1de7ade1cba48e584e87997c446c98dd54e68e7825540e9f7556f6fb96842e18897a83b8647f9e61fa6fcec9d7a8a5570d4336faea4a64c296850d90f3dad37c6a4b475fbb00098e3a5b52627b35897734a4753b57b7ef5efc83298b9fc4697e7bdfbf9c47fa1caac61ba42c2707970dae4e8e8deae9f076d6f574bd6ebef38f8ef91dc5030a3d445475767b9497abc2c8ccf3feff0a0c1a2c336d898f94b3b4b9bdcbdbe7ebecf1fd172a3c4b6a6b797a898faeb5c3ced6dff203454c556481b8cdd4d6e4edf8fe0000000000000000000000001125364401",
        "00e0cde289826f35d19a53591468420137b2a8d1c25b614e22dd8db1ebdd29b982fa0a8aa7e1694eb3059fde09ca7ab8f1a7bb5e256ee9a9e054a2f34a229bab544537638ff504ff126033fd5326ba5c555644aefed154ca1238bcfde27bd85605837f159c4da1ca75090abe5171d2c407d3b985568f0a84f3f0adda9c05c17f86081a9e8c617947eabcbecae8502cacac3bdd6936741e5fa36e8c540ed16be1e46e7367b8cceb9ac3f36989fea69ff5a8eb227e02dde0967b7571cec2a54ccdeb6db3cd7260ae911159d26c4630bdf297fecb125fd01c51f227bcf4b5457761946b5bb113c5049f1afcf82f161f89ad7b19131c13236adbcc9e117f400fea4c1d731abfb9f7384428f663b81be1487390c31bf39d3d3ee21f20f644b7c8b9d4a5c50e1d999f46431ce799cee1252dbe62685aa6c5da0f5448ee812845b9c48e5efe1c01da39d1bb7642cb3988587fc2378bf9c07f0b80d59304dcb0eee017efe7c8b6e235719c8da5912eaf5e87d94af2cfedda1d22e46a506222df4436742830535dd7b8342a271742201abef95b399f3fff4a3c9573ca10b32ed5cfeec7808cad5924beb796220eb9a7fe560f2d4a04f6145bc3f91d6d96741929913c16496ff0629540b1f869b4df5fa9869fac926943e9353157ed9f4a6f01e26fbe16fc46e5c18a4d270bb48ea459abcc6a86bca206167682abc7f602ac639e5422932bc78152506497dc7b6055d0e4f8661fb3379fd6e71847c71534cd5412e959fc8185c70dde77ce08c0d2214f05e9f851183b0eb6f4e0a350e29ff62ec9bedf556c4817c5456c3936e11dd9dcfaa69d312c8445e685f10ca39c6d1fafca75d553fa485075bdfebdf6123aa329386fe7cfe9599d56b2dffaac6ee00d185870a64df2521262fbcab07423e75b29bcae9b473afd93097adf73ee6537458943c4f0c1200f07756e41002efd0a8dd446010afa629ffbfaad9cc7f8253704ebb284ee805d09b9851e156bb149b0c6aca802d886ed0366f1f478521f95f913b47aeec3b095e9d5d452e298cd7da21510c790e5376e222214c91c459ea53c81ddddc10154f3c9b1794e33c433001db49c9d76227740c6812a1c7ab6597e213f2273170d4d1e6446e676541dddb308e410ef8a0da3755fa73f5bb9c53d625676b929ef5393fa39bc10ebaac02d2a12791d7a242147d645f3ddf54bbadf91a1630b0c8bc41d9b2cd3dcdb63a491127a42efe97449ce9add949087493c4f9fe0e6b157d9a23a2ed2090a3a4adc277456ef80f25cbf1a0f86df46bfc5dfca599bda6b8402625f63c4801928f2ac05163d0cc72ce1e3674c0f1069e30319f02d233f8871b9e2fd66518cae87211027145d5a024980d685d8f9d55394a90f4d5845d063766672d6b817ddad6179c7d3b386a47173e9e6bec9875760a509226fc3495d526c3e1e95f8ec02ad8e223d578d39cd2d7b57552253a398efe5adf60fd882357acf2a0d3c18b113123c934fc6d721f90affd96e306bb52fbd863e2abdba9311b938615fd7bb5bafd1efca7734bc4451a17d457d7da166bbeda41ca0bd3e92cda44ddb06f87ceb24f2233b556c0d2e384d75375e987766ba29fac8d71a3166918defaaf2ed2027755d0b34867eaa6a4e58305d6ad726edb5f4062dfa75a133c6c6143553b04e03f6ae673dce38c970698e46d834e1c2bf75e62803d908a4b8997cf961ce878c1ea1e14de920ebd4959f40bb98ae952e2fde7443c5d03757d43b341a28e0a4f8b5ef0c0918b72a93317850fe1cb711db4970de099e48aaa6260ccb3ce3f969f02195140cf44b57d8b51fab7200ea85cc74b103a9bcdc5850620c0580ec4d286d7f"
      ],
      "sequence": 4294967294
    }
  ],
  "vout": [
    {
      "value": 1.0,
      "n": 0,
      "scriptPubKey": {
        "asm": "OP_RETURN 65e3c7e774fb64161a4b7f3a61d863930d1741a65ae94b20f5825a79b09851b9 3816b9f8d07755937a25809c46367ef0b7a2dd580020e1a9a9ebf8c5e5714117183699d8f05775b35a05a0bc66165ed09782fd782000c18989cbd8e5c55161377856f9b8903715d33a65c0dc06763eb0f7e29d184060a1e9e9abb885a53101575876d998b01735f31a45e0fc26561e90d7c2bd38604081c9c98b98a585112177b896397850f7d513faa5001cc6b6fe7037225dd880a06129296b784565f1c19798b6195870d7f533da85203ce696de5017027df8a0804109094b586545d1e1b7f8d6793810b79553bae5405c86f6be3077621d98c0e02169692b380525b181d7d8f659183097b5739ac5607ca6d69e1057423db8e0c00149490b18250591a1f73816b9f8d07755937a25809c46367ef0b7a2dd580020e1a9a9ebf8c5e5714117183699d8f05775b35a05a0bc66165ed09782fd782000c18989cbd8e5c55161377856f9b8903715d33a65c0dc06763eb0f7e29d184060a1e9e9abb885a53101575876d998b01735f31a45e0fc26561e90d7c2bd38604081c9c98b98a585112177b896397850f7d513faa5001cc6b6fe7037225dd880a06129296b784565f1c19798b6195870d7f533da85203ce696de5017027df8a0804109094b586545d1e1b7f8d6793810b79553bae5405c86f6be3077621d98c0e02169692b380525b181d7d8f659183097b5739ac5607ca6d69e1057423db8e0c00149490b18250591a1f73816b9f8d07755937a25809c46367ef0b7a2dd580020e1a9a9ebf8c5e5714117183699d8f05775b35a05a0bc66165ed09782fd782000c18989cbd8e5c55161377856f9b8903715d33a65c0dc06763eb0f7e29d184060a1e9e9abb885a53101575876d998b01735f31a45e0fc26561e90d7c2bd38604081c9c98b98a585112177b896397850f7d513faa5001cc6b6fe7037225dd880a06129296b784565f1c19798b6195870d7f533da85203ce696de5017027df8a0804109094b586545d1e1b7f8d6793810b79553bae5405c86f6be3077621d98c0e02169692b380525b181d7d8f659183097b5739ac5607ca6d69e1057423db8e0c00149490b18250591a1f73816b9f8d07755937a25809c46367ef0b7a2dd580020e1a9a9ebf8c5e5714117183699d8f05775b35a05a0bc66165ed09782fd782000c18989cbd8e5c55161377856f9b8903715d33a65c0dc06763eb0f7e29d184060a1e9e9abb885a53101575876d998b01735f31a45e0fc26561e90d7c2bd38604081c9c98b98a585112177b896397850f7d513faa5001cc6b6fe7037225dd880a06129296b784565f1c19798b6195870d7f533da85203ce696de5017027df8a0804109094b586545d1e1b7f8d6793810b79553bae5405c86f6be3077621d98c0e02169692b380525b181d7d8f659183097b5739ac5607ca6d69e1057423db8e0c00149490b18250591a1f73816b9f8d07755937a25809c46367ef0b7a2dd580020e1a9a9ebf8c5e5714117183699d8f05775b35a05a0bc66165ed09782fd782000c18989cbd8e5c55161377856f9b8903715d33a65c0dc06763eb0f7e29d184060a1e9e9abb885a53101575876d998b01735f31a45e0fc26561e90d7c2bd38604081c9c98b98a585112177b896397850f7d513faa5001cc6b6fe70fec0671485524f6ab081cd6f93c030700cbafc96bf88f385eb195d51068b9c0e",
        "hex": "6a2065e3c7e774fb64161a4b7f3a61d863930d1741a65ae94b20f5825a79b09851b94db0043816b9f8d07755937a25809c46367ef0b7a2dd580020e1a9a9ebf8c5e5714117183699d8f05775b35a05a0bc66165ed09782fd782000c18989cbd8e5c55161377856f9b8903715d33a65c0dc06763eb0f7e29d184060a1e9e9abb885a53101575876d998b01735f31a45e0fc26561e90d7c2bd38604081c9c98b98a585112177b896397850f7d513faa5001cc6b6fe7037225dd880a06129296b784565f1c19798b6195870d7f533da85203ce696de5017027df8a0804109094b586545d1e1b7f8d6793810b79553bae5405c86f6be3077621d98c0e02169692b380525b181d7d8f659183097b5739ac5607ca6d69e1057423db8e0c00149490b18250591a1f73816b9f8d07755937a25809c46367ef0b7a2dd580020e1a9a9ebf8c5e5714117183699d8f05775b35a05a0bc66165ed09782fd782000c18989cbd8e5c55161377856f9b8903715d33a65c0dc06763eb0f7e29d184060a1e9e9abb885a53101575876d998b01735f31a45e0fc26561e90d7c2bd38604081c9c98b98a585112177b896397850f7d513faa5001cc6b6fe7037225dd880a06129296b784565f1c19798b6195870d7f533da85203ce696de5017027df8a0804109094b586545d1e1b7f8d6793810b79553bae5405c86f6be3077621d98c0e02169692b380525b181d7d8f659183097b5739ac5607ca6d69e1057423db8e0c00149490b18250591a1f73816b9f8d07755937a25809c46367ef0b7a2dd580020e1a9a9ebf8c5e5714117183699d8f05775b35a05a0bc66165ed09782fd782000c18989cbd8e5c55161377856f9b8903715d33a65c0dc06763eb0f7e29d184060a1e9e9abb885a53101575876d998b01735f31a45e0fc26561e90d7c2bd38604081c9c98b98a585112177b896397850f7d513faa5001cc6b6fe7037225dd880a06129296b784565f1c19798b6195870d7f533da85203ce696de5017027df8a0804109094b586545d1e1b7f8d6793810b79553bae5405c86f6be3077621d98c0e02169692b380525b181d7d8f659183097b5739ac5607ca6d69e1057423db8e0c00149490b18250591a1f73816b9f8d07755937a25809c46367ef0b7a2dd580020e1a9a9ebf8c5e5714117183699d8f05775b35a05a0bc66165ed09782fd782000c18989cbd8e5c55161377856f9b8903715d33a65c0dc06763eb0f7e29d184060a1e9e9abb885a53101575876d998b01735f31a45e0fc26561e90d7c2bd38604081c9c98b98a585112177b896397850f7d513faa5001cc6b6fe7037225dd880a06129296b784565f1c19798b6195870d7f533da85203ce696de5017027df8a0804109094b586545d1e1b7f8d6793810b79553bae5405c86f6be3077621d98c0e02169692b380525b181d7d8f659183097b5739ac5607ca6d69e1057423db8e0c00149490b18250591a1f73816b9f8d07755937a25809c46367ef0b7a2dd580020e1a9a9ebf8c5e5714117183699d8f05775b35a05a0bc66165ed09782fd782000c18989cbd8e5c55161377856f9b8903715d33a65c0dc06763eb0f7e29d184060a1e9e9abb885a53101575876d998b01735f31a45e0fc26561e90d7c2bd38604081c9c98b98a585112177b896397850f7d513faa5001cc6b6fe70fec0671485524f6ab081cd6f93c030700cbafc96bf88f385eb195d51068b9c0e",
        "type": "nulldata"
      }
    },
    {
      "value": 499975.5944,
      "n": 1,
      "scriptPubKey": {
        "asm": "1 375e08bf42cba653a7101b4e94f256931d628f69c0087cda8d87310d7602827b",
        "hex": "5120375e08bf42cba653a7101b4e94f256931d628f69c0087cda8d87310d7602827b",
        "reqSigs": 1,
        "type": "witness_v1_scripthash",
        "addresses": [
          "3QJmnh"
        ]
      }
    }
  ],
  "blockhash": "ccdcfedcff6ade259e7f17160cbcd6ff75249aea4f0a85a59e1a4fb3f710df5f",
  "confirmations": 1,
  "time": 1764180435,
  "blocktime": 1764180435
}