{
  "hex": "01000000000101c775982bf4dfa19b3e2883a1e31c034a5151f90d8bd31a3aba89acfb535fef8d0100000000feffffff024021813f792d000022512050cb73546224443f147c1c0755ae2fd7f025d8d35456e41419b62d61af5e9e5f00e1f50500000000fdd5046a20bdd9b8189c24deed5aa0f7ebe94894343f19415968972590b89e336a0a054abb4db004305d2ee9b0fd35459c345df43e4583a8ad7072b3546ac3c1a619fc493c5479a1107d0ec990dd1565bc147dd41e65a3888d505293744ae3e18639dc691c745981701d6ea9f0bd7505dc741db47e05c3e8ed3032f3142a8381e659bc097c1439e1503d4e89d09d5525fc543d945e25e3c8cd1012d3340aa3a1c6799c295c3419c1b0ddae69307db5c51cb4dd74bec503282df0f233d4ea434126997cc9bcd4f92190fd8e49105d95e53c94fd549ee523080dd0d213f4ca636106b95ce99cf4d901f09dee29703df5855cf49d34fe8543686db0b27394aa030166d93c89fc94b961d0bdce09501dd5a57cd4bd14dea563484d909253b48a232146f91ca9dcb49941305d2ee9b0fd35459c345df43e4583a8ad7072b3546ac3c1a619fc493c5479a1107d0ec990dd1565bc147dd41e65a3888d505293744ae3e18639dc691c745981701d6ea9f0bd7505dc741db47e05c3e8ed3032f3142a8381e659bc097c1439e1503d4e89d09d5525fc543d945e25e3c8cd1012d3340aa3a1c6799c295c3419c1b0ddae69307db5c51cb4dd74bec503282df0f233d4ea434126997cc9bcd4f92190fd8e49105d95e53c94fd549ee523080dd0d213f4ca636106b95ce99cf4d901f09dee29703df5855cf49d34fe8543686db0b27394aa030166d93c89fc94b961d0bdce09501dd5a57cd4bd14dea563484d909253b48a232146f91ca9dcb49941305d2ee9b0fd35459c345df43e4583a8ad7072b3546ac3c1a619fc493c5479a1107d0ec990dd1565bc147dd41e65a3888d505293744ae3e18639dc691c745981701d6ea9f0bd7505dc741db47e05c3e8ed3032f3142a8381e659bc097c1439e1503d4e89d09d5525fc543d945e25e3c8cd1012d3340aa3a1c6799c295c3419c1b0ddae69307db5c51cb4dd74bec503282df0f233d4ea434126997cc9bcd4f92190fd8e49105d95e53c94fd549ee523080dd0d213f4ca636106b95ce99cf4d901f09dee29703df5855cf49d34fe8543686db0b27394aa030166d93c89fc94b961d0bdce09501dd5a57cd4bd14dea563484d909253b48a232146f91ca9dcb49941305d2ee9b0fd35459c345df43e4583a8ad7072b3546ac3c1a619fc493c5479a1107d0ec990dd1565bc147dd41e65a3888d505293744ae3e18639dc691c745981701d6ea9f0bd7505dc741db47e05c3e8ed3032f3142a8381e659bc097c1439e1503d4e89d09d5525fc543d945e25e3c8cd1012d3340aa3a1c6799c295c3419c1b0ddae69307db5c51cb4dd74bec503282df0f233d4ea434126997cc9bcd4f92190fd8e49105d95e53c94fd549ee523080dd0d213f4ca636106b95ce99cf4d901f09dee29703df5855cf49d34fe8543686db0b27394aa030166d93c89fc94b961d0bdce09501dd5a57cd4bd14dea563484d909253b48a232146f91ca9dcb49941305d2ee9b0fd35459c345df43e4583a8ad7072b3546ac3c1a619fc493c5479a1107d0ec990dd1565bc147dd41e65a3888d505293744ae3e18639dc691c745981701d6ea9f0bd7505dc741db47e05c3e8ed3032f3142a8381e659bc097c1439e1503d4e89d09d5525fc543d945e25e3c8cd1012d3340aa3a1c6799c295c3419c1b0ddae69307db5c51cb4dd74bec503281fc69ccd8a54b49b2056c3bdd0273a99f3a048e230b32439498872e24fdb424602fd750964936e91ed06fe7ef76c2ac27525129bae31e4f8ea16464e382ebadb663fe94373cbb3771a18e3c63edad89d51f12f3bb12e3999e292d9ee6065d7a5b11b33c97600ce8e5133a6bc86eca1ade3c50a54973c9b17d802953608e387a19f8ad2eb51adbad2d547850758e6f3433748c5ec521c8a55898bceba416424662beb84f432d669d883ab2423a9a200b8e4bcc928ec338c25f5a7dcb254a7c053ef39ee842416414aa2c12ac470c1ce519c76e34306367fe40906a80650d1c28927e14536e6b5cbb6a22219b7ba5dad543f1b89581e248aa9ff7dfa823cee8a7997b85bbb25570229d1fad8a255929447a966264c1c33d7a8a0f66051c1e94e4fa2b2758a0518bc132e6870f51a80318f5b8256e8f9c966d398850f9073c531b5cadadc096aeff3b1fac196fc8c30500bf325af898505b9044a9fd2d8177348abcd2d0b3efd3a4e8fd9607a1c1e39553cd4e4e682bee36ba55768b0271342bcb2798c74aef39b5a11ac1a7fed6abe17c3f28245d319172a6f5f7997f36894c7d724b9be0f52e21abc4043ddaa3cbe06a1c37981733a73e6717844195f11420296de6c571eb60104bb87761445cd03c60ded75a41434d5f9ed33da111c932fda43af2a4135440457ce46d36881a0531d517375aa3960dc041c060f4bc0117d892ec97b422c08ce0a74b8879c3f541db4c28cff48af66e4f0b7a7c8cc421ccf61ae9399852f6daa293436be2280995941d30507d3b4f6a855ad9fe9b555392d6b389b9614e44d0c887b118258ccb0a14f4681cd917f5973946b8d94a2750560091f282f9e0a036a3306a9955ca603bbb3233ef2e4c874617359795cbe51c3773450f0d4daf18ca7d5dacebfd7c1a7b1f5cd1f3848096e0ecf1b47a5d321f7b4fe89997f721c220864081c25c7bb8745ee6041def8912e5016d7a0140bc8b5ffeb19dbc9628bc420681d009ba40312543c9df07890f9965cca7ebd461e9070d4bbee7ae5e512cc362536be9ffb558749295c2d777f68e06a4167ede883c8b8d19cc6fd0cc7c02f9179a28b1019381e64ca0f1a34e75abcc7706631a0d47dfc18ff51417107a1074f2a3cf438713464d6c4e93315298b134c40598f441deff3ed9da94ba656e437060973f2e8a115dcec68ca96c1cb22d52ccbd335853525448b0f0cea993f54343a83646ba6d343962a8b229ff65720ff63d4e84d4c35ee0ad856ef4800b5e5d947d68cb2191d735e52e4ad76e843cc3c49d31d5c7ba5520278463fceac10b5d11fd7962fbdae90240680566b0a3260ef1cea6d2368dd4f0d937e454b759c9134fc8c77e3ca2403f28c16a584727f2efdbde4f4ce52d28ba16e6558a164228bb29914c21333fb1bdea6244efc7eddf33a2a43bf29428e0803e66ed0baf7234bb1df5072889228ccfbb8c7d6914e41fa988cd515472c9671d4521913b246e36c74f11dfabf19199d20b5edd9a2eee0cb6459d0a36454a0c85311e3d9f17d5f482f4c6226c73524fd243555372a7186f920d7844852b07e384858173ba5b1c67da716ed26c85c926f58bde489330846cd78d25dce77071edcc3acdbe5036202a6db99573ad228a1d848f48b62e1552c4ed25b3dbb42d1eadcf69ff7434e3a4d64234ce9f45d5a4acbf0167643d1971ee723130d6aee43ff10be58ba4d7d39bedff887a5e1d64c2b9b4c547fc92069d41a71722d520d7ec0a4979b68c12ac4b1849348ee9e74ad55837305240315f867bcc3a09ce7c6427ec23a46f9a8bda88c886271e33b7c0307d93e737d1ee651e10a7f72e34c5970df225894f35bfff213a1cf3d5d36d5b6efb82abac2806203943d5e0a78317e2434b35d1b3669e50e4ff9064d656a0c31c7a2441d02dbc7690be43236295ac7ebcf67701df8a7d29784e15db36efe47d86496b99ceb32adaaa7d12f5b2d07c85b88606ada2b41a14865ebb1786e04ad23190880076b81f5fed0e33896d8ea2b24153eda5bf8d24fd8f960a5513600115b49d9ab7026ccb344a436f16d8d1793f139a372173c80db2aab991c96c4f45c923e6711533f4a15e473628b54cca10e0d6adae139f110daa5a45f3e4bf72f742e84aea52664cb5ed05d77dee72d31a21e22254b0c9ebc96e4d17448de51538a21603b8f955e825d405cb4acb403278ecb3bf7c9ffb78f28d5c7e280260725a2f0ea63ffe8c1dc356db9790ec99b46cf50a1278859a111d28231b4ede23d33976f38a4815bdfa84f302f42ac06086ba1a6a5555827475af511fdfdb3cacfb8729afbcc7385e3bf61ac18573bd27fde3445ae9bfeeda9f41e8f20744a083aa513308ecc589c4b0e9374e14d464b3950885cb3e8fcd1400b8289b2ddf113fae2f27da21d49ebefd7b8a9fad5f0406b848edb34e48cf5d5611bf4779db61fb03eb7b2b2d42ddcef18b409f77f63e8f62f1bc6d3403a3fcd44bd8227c775a6158902ba73ea1035555ccca37fc6cb595e62a8de01e88c0b157a85d298a395699b718b899fb447ce3b16e5103bed2fe5f7a132c3127a2b993f30fa0dd777cda130e8c4a1b9e827ddad84600ebb82ec9d8ba7a214bc31d3e058d192522d20f60ceffddcb15fea819019ba76d26a1ae654ce628db5cc832d997f21516e488752ab6da95ef61929acac1431f74463abd002c501891fca0849dc22fc77b91f0be8d09dac9c19aeef82750a8524cf97c74a0e85af9128c0c1099d0f9520287949da12f8a31ef9cf4b6514d0d00b373e52fa718802b53a4849604d0a4c98aff610c8a7d97cf4b0779ffcc777357a18f7b6d1d2d65a70c4029769b06141f6424aa5f968eaa52d68dbadc4d4357c6496625abf0273079453a8c4f6609e5967d3ec68ca17ffa8fa92a300bdac1199b37267c35106a91c2b38234137b5985c7e3c750be4f20cf942b11f24ea5acbde88e8de572b631e81127cab16f5d4cf729180e183a33b66089bf18968e47589e11b3a7082c177b3f3f768b8b653e26af0c5b772d19769b1874aadf65a08592cadd642d425e327e0c0e6f43a25dca6880177d94836608a59fe7087d24b950f6e395c1d94310e817188fb63bb3aa1f606187b7e0460cf32dd4d3983f1dc2e0426f90ffb26cf06b981e8b61362b9fc67240969f3f3d0fe68e0bbac8571c891fb300827266d1802d37165d717c1f08f305d62d08b2b4aa9d14da0609538fecdbf039073b8912401053cf5766b1f46481c44e918ec8a789e615b52750a7565aa960427c6c0ba38968ab34b1c644e4f54ff65be79c25851f0765539d5e1aaab8d5b548be6eb89142ebda7b10b16e3538e7b397565bafbdf14373e56687c84b6c9cdde1621263d3e50555e687e7faeb5cdedfa10202f32475456648795979dabccd0eff8fd121e2a2e393b50678599b9d2dbe90000000000000000000000000000000000000000000b1b2d3b01fd210500d00527be9f841fa8e251d9600cbfaa7b8cfddfa4f570de6ea2024b75071cac87b7cbe028e6ec230c942c5604e51e1b4241360c966dd3a92f80af256f47274738dccb00c6e07f74b91e40f40ee742d640ca08358a812a97e11a0babc92b575954786e08360c038ce1285e5da6b61d4397347f2fa6faea10e3772ca52b2a48bf8a7ea1c7667a4f748e2598d870a3cecd7a6f93e7fd36f4e9d921e272f6c1c30f3566734cd771c25c52f16523299d7f0354e949ba46c43b01525bf5a0a4ce346a92bb1846f58b5e36c3b9d150b054f1161862a11a8a6829f9aacc8a17f6b827d68aeaf8ef5a57710d6d967ccafef962e044370e1a719cc6df8a72802380b68d5584618fc4fa4ac59b47374be1a2f81e129bae42830199ffbdd4dc64532ac83ce47f5e3c07b79d5a5a5e0dacfa5d758e7caf70189e57b52cda238dc091ac35b9b1e12e7135fbe897bef86e0f9df9e8fcd87c6fd882f3b3f4b5fc19ecabff8cc82f08fb467956f7f89ccb780b17ccaa1cca4779bb650a28b6e487fa5a9d78437e86424e84a4e4d0ad6bc7384a8797083dc9da3f7d198cb29c586a32c76e1094e13730656230009950d7731fa3b912072605be4e9087014c473721b5bd0cf4aa87d121f6833f338ddf0d1ec31107157cb0fc2892252d74722e8a10bf1c433b053642552b4aebf6ac0d28c4a377366df680ee8a1ac87949758ed4f581b64a64a8c83a511f11da7356d74c6fc0caf5bf5c8d4cb91e39343635328f802773f0b31a794d7798a838af7aacfcdef718c5c9a803489271d80d05603c6f1c484caa8ecf0e86b6b9b2e48ec14d201542bb58a48b892796c28d490f5429ded7b9bc254c0782a4b2abfc95d5130e883b2278dba64dee1c5d0007573bed69ad12e7f03f38ad0cdb49cfd15f09192dcff555877f17656412c7e5af45484d761b419c670ad6fb75d4afe200dbc3843852d3ff0208e965ece96650fe60da29c74e5260b412bdef78cd6f069d81ac6a5c3bc72526dd70b2caefcfc0c7f6fb5d0a8d26743c8d54056fe21a281e10a85d8173766f88a1ee820739daee2b270ba0044fee0ca21810b56b75ec7ddff13359d89578f10e924d5016f39a98543f68bcf93f20adaca1d38e6e8442567b197a58725e9c35dbabec6c0cf5ec0a8e58be3ff459e57f5a50c9def4d328bc415cd30fdc123ffe66f5a36a59aea8435490958374167c38f3aa5d411ea74e59ed779ff2feabacf1957e19fc14eb5189b4727464ebe5f508d0e1fe71bf07e3d8a9ecd8354885cacddcd2b9a8dd14ee39bf29ea3e272c7335f3aee699b8aece0023e1b20a7528beabbaf41880a11283747248365e129ff24992084bf89de2e06ae1b50305e7208a30cc7a17ea294bbabded5d7734dad7de02298246ba67a1f42ed8195f758b05403c302102587a63e3081456f2df7652c1bc3dcc83ce685ec9a16c67a681ea6834e22840df8b299b148805c4902bf2a0cd13615bacc7bcf719ba2621a6dd28f3a8d3d34d6aeeeb836186f8ff879a794b37de428f677b1675bb660c68eee05c80e684cddfa17aea7b5079d5dce4bbf164a7655fdb05dc66812614fc1434f833efe7849544c243f1941bea5caf7b0e608a4156194640ef5411f9fe5e6692d719b71a90a44c21d035b73c7dc1c41f2857ff201a085ad4fe02c3e0b9f522f1fb0259f9ad6bc6e5cfea922a4685930a84611f266d89e576e04f5cc91d3ef002c3b5ca8cbbef71c477234af633920c94325888a1fb5f3f4881cb680a51d7d2fbbd007d06ec995c3cc2ac80023970919ed558a432174bb7c8e510c950f1d69e53d42d3e2f4ea428e09daa7448c97b9835f92f83ed49b967fd610abc6c6e000000",
  "txid": "6d43589acb3a7866f231dc282aa0d8413570ac1f83ecbfbfd6c8aa9ffe6c19e8",
  "hash": "8b9132dec25cb15a4fd21dcd5aae7bf430a83dec96d2123c393ca428082b61c1",
  "size": 5085,
  "vsize": 2278,
  "version": 1,
  "locktime": 110,
  "vin": [
    {
      "txid": "8def5f53fbac89ba3a1ad38b0df951514a031ce3a183283e9ba1dff42b9875c7",
      "vout": 1,
      "scriptSig": {
        "asm": "",
        "hex": ""
      },
      "txinwitness": [
        "64936e91ed06fe7ef76c2ac27525129bae31e4f8ea16464e382ebadb663fe94373cbb3771a18e3c63edad89d51f12f3bb12e3999e292d9ee6065d7a5b11b33c97600ce8e5133a6bc86eca1ade3c50a54973c9b17d802953608e387a19f8ad2eb51adbad2d547850758e6f3433748c5ec521c8a55898bceba416424662beb84f432d669d883ab2423a9a200b8e4bcc928ec338c25f5a7dcb254a7c053ef39ee842416414aa2c12ac470c1ce519c76e34306367fe40906a80650d1c28927e14536e6b5cbb6a22219b7ba5dad543f1b89581e248aa9ff7dfa823cee8a7997b85bbb25570229d1fad8a255929447a966264c1c33d7a8a0f66051c1e94e4fa2b2758a0518bc132e6870f51a80318f5b8256e8f9c966d398850f9073c531b5cadadc096aeff3b1fac196fc8c30500bf325af898505b9044a9fd2d8177348abcd2d0b3efd3a4e8fd9607a1c1e39553cd4e4e682bee36ba55768b0271342bcb2798c74aef39b5a11ac1a7fed6abe17c3f28245d319172a6f5f7997f36894c7d724b9be0f52e21abc4043ddaa3cbe06a1c37981733a73e6717844195f11420296de6c571eb60104bb87761445cd03c60ded75a41434d5f9ed33da111c932fda43af2a4135440457ce46d36881a0531d517375aa3960dc041c060f4bc0117d892ec97b422c08ce0a74b8879c3f541db4c28cff48af66e4f0b7a7c8cc421ccf61ae9399852f6daa293436be2280995941d30507d3b4f6a855ad9fe9b555392d6b389b9614e44d0c887b118258ccb0a14f4681cd917f5973946b8d94a2750560091f282f9e0a036a3306a9955ca603bbb3233ef2e4c874617359795cbe51c3773450f0d4daf18ca7d5dacebfd7c1a7b1f5cd1f3848096e0ecf1b47a5d321f7b4fe89997f721c220864081c25c7bb8745ee6041def8912e5016d7a0140bc8b5ffeb19dbc9628bc420681d009ba40312543c9df07890f9965cca7ebd461e9070d4bbee7ae5e512cc362536be9ffb558749295c2d777f68e06a4167ede883c8b8d19cc6fd0cc7c02f9179a28b1019381e64ca0f1a34e75abcc7706631a0d47dfc18ff51417107a1074f2a3cf438713464d6c4e93315298b134c40598f441deff3ed9da94ba656e437060973f2e8a115dcec68ca96c1cb22d52ccbd335853525448b0f0cea993f54343a83646ba6d343962a8b229ff65720ff63d4e84d4c35ee0ad856ef4800b5e5d947d68cb2191d735e52e4ad76e843cc3c49d31d5c7ba5520278463fceac10b5d11fd7962fbdae90240680566b0a3260ef1cea6d2368dd4f0d937e454b759c9134fc8c77e3ca2403f28c16a584727f2efdbde4f4ce52d28ba16e6558a164228bb29914c21333fb1bdea6244efc7eddf33a2a43bf29428e0803e66ed0baf7234bb1df5072889228ccfbb8c7d6914e41fa988cd515472c9671d4521913b246e36c74f11dfabf19199d20b5edd9a2eee0cb6459d0a36454a0c85311e3d9f17d5f482f4c6226c73524fd243555372a7186f920d7844852b07e384858173ba5b1c67da716ed26c85c926f58bde489330846cd78d25dce77071edcc3acdbe5036202a6db99573ad228a1d848f48b62e1552c4ed25b3dbb42d1eadcf69ff7434e3a4d64234ce9f45d5a4acbf0167643d1971ee723130d6aee43ff10be58ba4d7d39bedff887a5e1d64c2b9b4c547fc92069d41a71722d520d7ec0a4979b68c12ac4b1849348ee9e74ad55837305240315f867bcc3a09ce7c6427ec23a46f9a8bda88c886271e33b7c0307d93e737d1ee651e10a7f72e34c5970df225894f35bfff213a1cf3d5d36d5b6efb82abac2806203943d5e0a78317e2434b35d1b3669e50e4ff9064d656a0c31c7a2441d02dbc7690be43236295ac7ebcf67701df8a7d29784e15db36efe47d86496b99ceb32adaaa7d12f5b2d07c85b88606ada2b41a14865ebb1786e04ad23190880076b81f5fed0e33896d8ea2b24153eda5bf8d24fd8f960a5513600115b49d9ab7026ccb344a436f16d8d1793f139a372173c80db2aab991c96c4f45c923e6711533f4a15e473628b54cca10e0d6adae139f110daa5a45f3e4bf72f742e84aea52664cb5ed05d77dee72d31a21e22254b0c9ebc96e4d17448de51538a21603b8f955e825d405cb4acb403278ecb3bf7c9ffb78f28d5c7e280260725a2f0ea63ffe8c1dc356db9790ec99b46cf50a1278859a111d28231b4ede23d33976f38a4815bdfa84f302f42ac06086ba1a6a5555827475af511fdfdb3cacfb8729afbcc7385e3bf61ac18573bd27fde3445ae9bfeeda9f41e8f20744a083aa513308ecc589c4b0e9374e14d464b3950885cb3e8fcd1400b8289b2ddf113fae2f27da21d49ebefd7b8a9fad5f0406b848edb34e48cf5d5611bf4779db61fb03eb7b2b2d42ddcef18b409f77f63e8f62f1bc6d3403a3fcd44bd8227c775a6158902ba73ea1035555ccca37fc6cb595e62a8de01e88c0b157a85d298a395699b718b899fb447ce3b16e5103bed2fe5f7a132c3127a2b993f30fa0dd777cda130e8c4a1b9e827ddad84600ebb82ec9d8ba7a214bc31d3e058d192522d20f60ceffddcb15fea819019ba76d26a1ae654ce628db5cc832d997f21516e488752ab6da95ef61929acac1431f74463abd002c501891fca0849dc22fc77b91f0be8d09dac9c19aeef82750a8524cf97c74a0e85af9128c0c1099d0f9520287949da12f8a31ef9cf4b6514d0d00b373e52fa718802b53a4849604d0a4c98aff610c8a7d97cf4b0779ffcc777357a18f7b6d1d2d65a70c4029769b06141f6424aa5f968eaa52d68dbadc4d4357c6496625abf0273079453a8c4f6609e5967d3ec68ca17ffa8fa92a300bdac1199b37267c35106a91c2b38234137b5985c7e3c750be4f20cf942b11f24ea5acbde88e8de572b631e81127cab16f5d4cf729180e183a33b66089bf18968e47589e11b3a7082c177b3f3f768b8b653e26af0c5b772d19769b1874aadf65a08592cadd642d425e327e0c0e6f43a25dca6880177d94836608a59fe7087d24b950f6e395c1d94310e817188fb63bb3aa1f606187b7e0460cf32dd4d3983f1dc2e0426f90ffb26cf06b981e8b61362b9fc67240969f3f3d0fe68e0bbac8571c891fb300827266d1802d37165d717c1f08f305d62d08b2b4aa9d14da0609538fecdbf039073b8912401053cf5766b1f46481c44e918ec8a789e615b52750a7565aa960427c6c0ba38968ab34b1c644e4f54ff65be79c25851f0765539d5e1aaab8d5b548be6eb89142ebda7b10b16e3538e7b397565bafbdf14373e56687c84b6c9cdde1621263d3e50555e687e7faeb5cdedfa10202f32475456648795979dabccd0eff8fd121e2a2e393b50678599b9d2dbe90000000000000000000000000000000000000000000b1b2d3b01",
        "00d00527be9f841fa8e251d9600cbfaa7b8cfddfa4f570de6ea2024b75071cac87b7cbe028e6ec230c942c5604e51e1b4241360c966dd3a92f80af256f47274738dccb00c6e07f74b91e40f40ee742d640ca08358a812a97e11a0babc92b575954786e08360c038ce1285e5da6b61d4397347f2fa6faea10e3772ca52b2a48bf8a7ea1c7667a4f748e2598d870a3cecd7a6f93e7fd36f4e9d921e272f6c1c30f3566734cd771c25c52f16523299d7f0354e949ba46c43b01525bf5a0a4ce346a92bb1846f58b5e36c3b9d150b054f1161862a11a8a6829f9aacc8a17f6b827d68aeaf8ef5a57710d6d967ccafef962e044370e1a719cc6df8a72802380b68d5584618fc4fa4ac59b47374be1a2f81e129bae42830199ffbdd4dc64532ac83ce47f5e3c07b79d5a5a5e0dacfa5d758e7caf70189e57b52cda238dc091ac35b9b1e12e7135fbe897bef86e0f9df9e8fcd87c6fd882f3b3f4b5fc19ecabff8cc82f08fb467956f7f89ccb780b17ccaa1cca4779bb650a28b6e487fa5a9d78437e86424e84a4e4d0ad6bc7384a8797083dc9da3f7d198cb29c586a32c76e1094e13730656230009950d7731fa3b912072605be4e9087014c473721b5bd0cf4aa87d121f6833f338ddf0d1ec31107157cb0fc2892252d74722e8a10bf1c433b053642552b4aebf6ac0d28c4a377366df680ee8a1ac87949758ed4f581b64a64a8c83a511f11da7356d74c6fc0caf5bf5c8d4cb91e39343635328f802773f0b31a794d7798a838af7aacfcdef718c5c9a803489271d80d05603c6f1c484caa8ecf0e86b6b9b2e48ec14d201542bb58a48b892796c28d490f5429ded7b9bc254c0782a4b2abfc95d5130e883b2278dba64dee1c5d0007573bed69ad12e7f03f38ad0cdb49cfd15f09192dcff555877f17656412c7e5af45484d761b419c670ad6fb75d4afe200dbc3843852d3ff0208e965ece96650fe60da29c74e5260b412bdef78cd6f069d81ac6a5c3bc72526dd70b2caefcfc0c7f6fb5d0a8d26743c8d54056fe21a281e10a85d8173766f88a1ee820739daee2b270ba0044fee0ca21810b56b75ec7ddff13359d89578f10e924d5016f39a98543f68bcf93f20adaca1d38e6e8442567b197a58725e9c35dbabec6c0cf5ec0a8e58be3ff459e57f5a50c9def4d328bc415cd30fdc123ffe66f5a36a59aea8435490958374167c38f3aa5d411ea74e59ed779ff2feabacf1957e19fc14eb5189b4727464ebe5f508d0e1fe71bf07e3d8a9ecd8354885cacddcd2b9a8dd14ee39bf29ea3e272c7335f3aee699b8aece0023e1b20a7528beabbaf41880a11283747248365e129ff24992084bf89de2e06ae1b50305e7208a30cc7a17ea294bbabded5d7734dad7de02298246ba67a1f42ed8195f758b05403c302102587a63e3081456f2df7652c1bc3dcc83ce685ec9a16c67a681ea6834e22840df8b299b148805c4902bf2a0cd13615bacc7bcf719ba2621a6dd28f3a8d3d34d6aeeeb836186f8ff879a794b37de428f677b1675bb660c68eee05c80e684cddfa17aea7b5079d5dce4bbf164a7655fdb05dc66812614fc1434f833efe7849544c243f1941bea5caf7b0e608a4156194640ef5411f9fe5e6692d719b71a90a44c21d035b73c7dc1c41f2857ff201a085ad4fe02c3e0b9f522f1fb0259f9ad6bc6e5cfea922a4685930a84611f266d89e576e04f5cc91d3ef002c3b5ca8cbbef71c477234af633920c94325888a1fb5f3f4881cb680a51d7d2fbbd007d06ec995c3cc2ac80023970919ed558a432174bb7c8e510c950f1d69e53d42d3e2f4ea428e09daa7448c97b9835f92f83ed49b967fd610abc6c"
      ],
      "sequence": 4294967294
    }
  ],
  "vout": [
    {
      "value": 499987.7972,
      "n": 0,
      "scriptPubKey": {
        "asm": "1 50cb73546224443f147c1c0755ae2fd7f025d8d35456e41419b62d61af5e9e5f",
        "hex": "512050cb73546224443f147c1c0755ae2fd7f025d8d35456e41419b62d61af5e9e5f",
        "reqSigs": 1,
        "type": "witness_v1_scripthash",
        "addresses": [
          "3QJmnh"
        ]
      }
    },
    {
      "value": 1.0,
      "n": 1,
      "scriptPubKey": {
        "asm": "OP_RETURN bdd9b8189c24deed5aa0f7ebe94894343f19415968972590b89e336a0a054abb 305d2ee9b0fd35459c345df43e4583a8ad7072b3546ac3c1a619fc493c5479a1107d0ec990dd1565bc147dd41e65a3888d505293744ae3e18639dc691c745981701d6ea9f0bd7505dc741db47e05c3e8ed3032f3142a8381e659bc097c1439e1503d4e89d09d5525fc543d945e25e3c8cd1012d3340aa3a1c6799c295c3419c1b0ddae69307db5c51cb4dd74bec503282df0f233d4ea434126997cc9bcd4f92190fd8e49105d95e53c94fd549ee523080dd0d213f4ca636106b95ce99cf4d901f09dee29703df5855cf49d34fe8543686db0b27394aa030166d93c89fc94b961d0bdce09501dd5a57cd4bd14dea563484d909253b48a232146f91ca9dcb49941305d2ee9b0fd35459c345df43e4583a8ad7072b3546ac3c1a619fc493c5479a1107d0ec990dd1565bc147dd41e65a3888d505293744ae3e18639dc691c745981701d6ea9f0bd7505dc741db47e05c3e8ed3032f3142a8381e659bc097c1439e1503d4e89d09d5525fc543d945e25e3c8cd1012d3340aa3a1c6799c295c3419c1b0ddae69307db5c51cb4dd74bec503282df0f233d4ea434126997cc9bcd4f92190fd8e49105d95e53c94fd549ee523080dd0d213f4ca636106b95ce99cf4d901f09dee29703df5855cf49d34fe8543686db0b27394aa030166d93c89fc94b961d0bdce09501dd5a57cd4bd14dea563484d909253b48a232146f91ca9dcb49941305d2ee9b0fd35459c345df43e4583a8ad7072b3546ac3c1a619fc493c5479a1107d0ec990dd1565bc147dd41e65a3888d505293744ae3e18639dc691c745981701d6ea9f0bd7505dc741db47e05c3e8ed3032f3142a8381e659bc097c1439e1503d4e89d09d5525fc543d945e25e3c8cd1012d3340aa3a1c6799c295c3419c1b0ddae69307db5c51cb4dd74bec503282df0f233d4ea434126997cc9bcd4f92190fd8e49105d95e53c94fd549ee523080dd0d213f4ca636106b95ce99cf4d901f09dee29703df5855cf49d34fe8543686db0b27394aa030166d93c89fc94b961d0bdce09501dd5a57cd4bd14dea563484d909253b48a232146f91ca9dcb49941305d2ee9b0fd35459c345df43e4583a8ad7072b3546ac3c1a619fc493c5479a1107d0ec990dd1565bc147dd41e65a3888d505293744ae3e18639dc691c745981701d6ea9f0bd7505dc741db47e05c3e8ed3032f3142a8381e659bc097c1439e1503d4e89d09d5525fc543d945e25e3c8cd1012d3340aa3a1c6799c295c3419c1b0ddae69307db5c51cb4dd74bec503282df0f233d4ea434126997cc9bcd4f92190fd8e49105d95e53c94fd549ee523080dd0d213f4ca636106b95ce99cf4d901f09dee29703df5855cf49d34fe8543686db0b27394aa030166d93c89fc94b961d0bdce09501dd5a57cd4bd14dea563484d909253b48a232146f91ca9dcb49941305d2ee9b0fd35459c345df43e4583a8ad7072b3546ac3c1a619fc493c5479a1107d0ec990dd1565bc147dd41e65a3888d505293744ae3e18639dc691c745981701d6ea9f0bd7505dc741db47e05c3e8ed3032f3142a8381e659bc097c1439e1503d4e89d09d5525fc543d945e25e3c8cd1012d3340aa3a1c6799c295c3419c1b0ddae69307db5c51cb4dd74bec503281fc69ccd8a54b49b2056c3bdd0273a99f3a048e230b32439498872e24fdb4246",
        "hex": "6a20bdd9b8189c24deed5aa0f7ebe94894343f19415968972590b89e336a0a054abb4db004305d2ee9b0fd35459c345df43e4583a8ad7072b3546ac3c1a619fc493c5479a1107d0ec990dd1565bc147dd41e65a3888d505293744ae3e18639dc691c745981701d6ea9f0bd7505dc741db47e05c3e8ed3032f3142a8381e659bc097c1439e1503d4e89d09d5525fc543d945e25e3c8cd1012d3340aa3a1c6799c295c3419c1b0ddae69307db5c51cb4dd74bec503282df0f233d4ea434126997cc9bcd4f92190fd8e49105d95e53c94fd549ee523080dd0d213f4ca636106b95ce99cf4d901f09dee29703df5855cf49d34fe8543686db0b27394aa030166d93c89fc94b961d0bdce09501dd5a57cd4bd14dea563484d909253b48a232146f91ca9dcb49941305d2ee9b0fd35459c345df43e4583a8ad7072b3546ac3c1a619fc493c5479a1107d0ec990dd1565bc147dd41e65a3888d505293744ae3e18639dc691c745981701d6ea9f0bd7505dc741db47e05c3e8ed3032f3142a8381e659bc097c1439e1503d4e89d09d5525fc543d945e25e3c8cd1012d3340aa3a1c6799c295c3419c1b0ddae69307db5c51cb4dd74bec503282df0f233d4ea434126997cc9bcd4f92190fd8e49105d95e53c94fd549ee523080dd0d213f4ca636106b95ce99cf4d901f09dee29703df5855cf49d34fe8543686db0b27394aa030166d93c89fc94b961d0bdce09501dd5a57cd4bd14dea563484d909253b48a232146f91ca9dcb49941305d2ee9b0fd35459c345df43e4583a8ad7072b3546ac3c1a619fc493c5479a1107d0ec990dd1565bc147dd41e65a3888d505293744ae3e18639dc691c745981701d6ea9f0bd7505dc741db47e05c3e8ed3032f3142a8381e659bc097c1439e1503d4e89d09d5525fc543d945e25e3c8cd1012d3340aa3a1c6799c295c3419c1b0ddae69307db5c51cb4dd74bec503282df0f233d4ea434126997cc9bcd4f92190fd8e49105d95e53c94fd549ee523080dd0d213f4ca636106b95ce99cf4d901f09dee29703df5855cf49d34fe8543686db0b27394aa030166d93c89fc94b961d0bdce09501dd5a57cd4bd14dea563484d909253b48a232146f91ca9dcb49941305d2ee9b0fd35459c345df43e4583a8ad7072b3546ac3c1a619fc493c5479a1107d0ec990dd1565bc147dd41e65a3888d505293744ae3e18639dc691c745981701d6ea9f0bd7505dc741db47e05c3e8ed3032f3142a8381e659bc097c1439e1503d4e89d09d5525fc543d945e25e3c8cd1012d3340aa3a1c6799c295c3419c1b0ddae69307db5c51cb4dd74bec503282df0f233d4ea434126997cc9bcd4f92190fd8e49105d95e53c94fd549ee523080dd0d213f4ca636106b95ce99cf4d901f09dee29703df5855cf49d34fe8543686db0b27394aa030166d93c89fc94b961d0bdce09501dd5a57cd4bd14dea563484d909253b48a232146f91ca9dcb49941305d2ee9b0fd35459c345df43e4583a8ad7072b3546ac3c1a619fc493c5479a1107d0ec990dd1565bc147dd41e65a3888d505293744ae3e18639dc691c745981701d6ea9f0bd7505dc741db47e05c3e8ed3032f3142a8381e659bc097c1439e1503d4e89d09d5525fc543d945e25e3c8cd1012d3340aa3a1c6799c295c3419c1b0ddae69307db5c51cb4dd74bec503281fc69ccd8a54b49b2056c3bdd0273a99f3a048e230b32439498872e24fdb4246",
        "type": "nulldata"
      }
    }
  ],
  "blockhash": "2622e54cefe9d3081f6ac04e4c67f268d7c1e3313b2268ffede4439aafe1acd1",
  "confirmations": 1,
  "time": 1764177922,
  "blocktime": 1764177922
}