{
  "hex": "01000000000101d54f2e3132893b5380f00a5c0097175eaf84f6d298835ec146b22147209004870000000000feffffff02f077b5f0782d000022512031aad61a51e54c3b7931556570d842d701fbdae7a0b6190af97f49188e5c411800e1f50500000000fdd5046a2050f350734258d91fd9de6dc5c423fc9088f71b1157503949f3b3da9daf932dc74db0049823f9aa9e7fbc6978306dab54cf1479d77a5917be04ce5b06fb107e99b6f53ab803d98abe5f9c4958104d8b74ef3459f75a79379e24ee7b26db305eb996d51ad863b9eade3ffc2938702deb148f5439973a1957fe448e1b46bb503ed9f6b57af84399cafe1fdc0918500dcb34af7419b71a3977de64ae3b669b701ef9d6955a18a3792a1eff3ce9f8b0ed2bd44f94f957fad9973e844edb867b90fe193675ba3883590a3edf1cc9d890cd0bf46fb4d977daf9b71ea46efba65bb0de3916559a58e3396a5ebf7ca9b8f0ad6b940fd4b917ba99d77ec40e9bc63bd0be597635fa78c3194a7e9f5c8998d08d4bb42ff499379ab9f75ee42ebbe61bf09e795615da9823f9aa9e7fbc6978306dab54cf1479d77a5917be04ce5b06fb107e99b6f53ab803d98abe5f9c4958104d8b74ef3459f75a79379e24ee7b26db305eb996d51ad863b9eade3ffc2938702deb148f5439973a1957fe448e1b46bb503ed9f6b57af84399cafe1fdc0918500dcb34af7419b71a3977de64ae3b669b701ef9d6955a18a3792a1eff3ce9f8b0ed2bd44f94f957fad9973e844edb867b90fe193675ba3883590a3edf1cc9d890cd0bf46fb4d977daf9b71ea46efba65bb0de3916559a58e3396a5ebf7ca9b8f0ad6b940fd4b917ba99d77ec40e9bc63bd0be597635fa78c3194a7e9f5c8998d08d4bb42ff499379ab9f75ee42ebbe61bf09e795615da9823f9aa9e7fbc6978306dab54cf1479d77a5917be04ce5b06fb107e99b6f53ab803d98abe5f9c4958104d8b74ef3459f75a79379e24ee7b26db305eb996d51ad863b9eade3ffc2938702deb148f5439973a1957fe448e1b46bb503ed9f6b57af84399cafe1fdc0918500dcb34af7419b71a3977de64ae3b669b701ef9d6955a18a3792a1eff3ce9f8b0ed2bd44f94f957fad9973e844edb867b90fe193675ba3883590a3edf1cc9d890cd0bf46fb4d977daf9b71ea46efba65bb0de3916559a58e3396a5ebf7ca9b8f0ad6b940fd4b917ba99d77ec40e9bc63bd0be597635fa78c3194a7e9f5c8998d08d4bb42ff499379ab9f75ee42ebbe61bf09e795615da9823f9aa9e7fbc6978306dab54cf1479d77a5917be04ce5b06fb107e99b6f53ab803d98abe5f9c4958104d8b74ef3459f75a79379e24ee7b26db305eb996d51ad863b9eade3ffc2938702deb148f5439973a1957fe448e1b46bb503ed9f6b57af84399cafe1fdc0918500dcb34af7419b71a3977de64ae3b669b701ef9d6955a18a3792a1eff3ce9f8b0ed2bd44f94f957fad9973e844edb867b90fe193675ba3883590a3edf1cc9d890cd0bf46fb4d977daf9b71ea46efba65bb0de3916559a58e3396a5ebf7ca9b8f0ad6b940fd4b917ba99d77ec40e9bc63bd0be597635fa78c3194a7e9f5c8998d08d4bb42ff499379ab9f75ee42ebbe61bf09e795615da9823f9aa9e7fbc6978306dab54cf1479d77a5917be04ce5b06fb107e99b6f53ab803d98abe5f9c4958104d8b74ef3459f75a79379e24ee7b26db305eb996d51ad863b9eade3ffc2938702deb148f5439973a1957fe448e1b46bb503ed9f6b57af84399cafe1fdc0918500dcb34af7419b71a3977de64ae3b669b701ef9d6955a18a3792a1eff3ce9f8b0ed2bd44f94f974b4ff657b70dc3df86b18a0b3a0c0bb09af45c861f585e897a9522e4659507502fd75090ba8c3abefdaf03328ba5ca5076b93258ecd3bc7199808b05c677113cd4d38802eb11c574eb7dc256e6070e193685862dd97b2281ac911f28dc37dd4c46ea207a4f6657ba2ef708c768520f8e53e004dd5be081d0cc499c2f9085cb3dc985c6b76112a2a854930bce0de6799a35e914ba39c58c79794439f8aa518187a9ea1dc05a52bc4c8878903f0c489ddd91bc0e0fc137179a33cd20d24465ba6169bb80e0de6fdc4e002b3065876adba5377c1f07e2299f578f51d85016980fe213fea4e5af96e0d8042c50ac14f0a203cd8dc0d9f21d4ffee8a9f0ce91c8abe6e8c25bc16864b7777a4bc32bd75b55e165b201d4fcba485e9d8ce28b09860e569ca9b4e4d3f79ef004e94c5ab3f0409a41693b0da4873fae4c4f40b91b51ce224e3fdf48f382ec0b683973e563d6d98c5e8d8af6423cc086ce01e2cd97c43da8f1ab1e4aa527df14beb705d27ef976f3cd9a58d6e26e2b2dc7d5c89611ff6ceadec2fd734258ed0dc21c1a8696e5e3511e4aaad02cc06e2d50ac69b41b00a76e1e88cb1a2da3774f5c813ec9c6061933fa8337d9f4b4652726676a323651491dfe82fe99ac8ae60e4a9558754748ebb824adcb8eb2a21e3e2f8ede4057b7ae6cdf27ecd56b4e2ee9362c453012435e62f4a6a3d97d86a8b4f4f551d95510b342a881b349dc59049a72284025cf1a50018d410ce14e73f0552598ebaa41ca8103cb793b74121695ec5ce6ee3ee6634bd96b10ffd248bdf1172c4feb5e44b9b03d294ea6cb383582e341e4139bd2d89f2577faa2864d91c2d95516464b86864bae210594b7daa7d043667135a40444aa9dd4f518def8651608ad3e93fc2214fcc122d638cb538572c833c20937f77269b37d5aeac96b2ad0a4e85177111710b1d56f402280f34c092f9549bf53f7a49c542850fc999c2b34f464ab04e58051618aa89840e05679c75a2525a32057da0ca7c194a698565334cc804a134d63c49cdd732e261558e174339e5bbbdb125a185d3480eee369474150f7cbd6d87457ee07b42b9cf557d94562d3325f23c7ebc6821227e3bb6811f6967b1e253cba7dcbcbd41d296633864658a4309468f72727952dd97f8082995138dbc6678dade300270f542be6b353cc867491224eed3dcb364951fe8eda396456aa7859276c24b18477f17490754de10f40ffa7fa7c72fe5ff12c03e1659c9d83a8f4a1055c578a4a4cf9c7821896e0011172973347fe54d3cfaf85e166fdeee767494ba5790da201eae8e7af2387bb0e9a1fc2f73e6325a1a1e93f282ce975f2f100befd87aa0f923ee07ed6e7db36d7b6b3da7ba1266af0fab5c25f1144bd2a55f60794eb817c24b391238765cc8409ff36c611e8f5f317a79ecc2f4af435e903a84b5f27d63d279080ded226adab4f7eb19b6f85285eca74aa58eac0b5eda0deda4ffeb639149489bcdbf060f18d9f9f980ea9067f5f537b06e1611052b40611088919de85482c44a0beeeec40c9033fca975db99cd56df0a1ece6224c6f791554de2a9ab2083a389fd83381b4aa23303826b00678043da876ae0fd2c2f90e98968c457c088655c34896497cb69d86d403f657bf5ba0d54b870fc9884c4ced37c4fe7c0ec62e225a776b94cced2213653c7b88924cf2fedeed9cabeb9b8cd812e2304bdf75732a71974450688d14a29142fbe9601e3464117ebd18d5824616ca6ff79774c218e452ffa2bcbbe85d39617f3d7196877a24ddfaa9839a4786ea10f985a4fdb09851beef711fc989fb65182ad486bc8e6186aeba05acf6b9dc6a78c091a855000e42fae09c6f78cfd4b6f234d803ef99371317162306e4476291a010285099bac5b64fa990c242237f9f0ce589477bebc9481eb35d9ae1c47f9c509a32f2102d78dfec5917e48bd1e520af27184d87d68a46af2fb0622bf448813ecbf4486a5fb3b9019a8a4f1cfdf3fe70979759bc552e93ef7468af9c3a374d1bf63c813d545c5f930133a1cb33ef14486f3d6afb166fb6592f6de88d9150938ded79a940cac718b8ef84c51fcb9609c6447c23c9be7903fd4f144c6149d0cd479032cc84692949fff0ff4569a6b12a441ed20baba205b2109101415c48c7721acb888ca78208c7e84992d5cde420a1ef703ffca816675131f10e9e2a20f0a9e2f38e7def0845ae9e2396de3b33b0f6cc0602e251275e84cdaa92bb38622885101564387f9709a3c307b15801f77c72bb034d09eb23637f5fd12f58d0c6735780a06d614eefb4789a77b6d16ad9cc22695e35f869fb58c1f4addf96ee35321cc90b03fd97f4926e49233f0baed99aed0e02bc5ed1b40bea284f2f36d80cb9810173697690fbf0b4c6979d1f1fe595061304e0db2136da96898432f3750d21f31d09aa728742fbd25a12ee0d9f5f21b6cba40e953a526710a88b2fd958210fcf5ddc484da51c96757f91210cc6e1e42d371ebb2a3b49f3766b7f1858c496e27b993a66da0b94f08596b4700ba1f52d5ab90adb0c1c3d806b3e9b53979446595b01e31c8497629787d41130e549d2f7193b20e989fe5ae3adcf4483ad771139f4531d58464c144b0c2fcd4dcee8d1a7ccd060326186d27bd5c7b2dc1616b2bfbfa0fbc3915a36b9da26662dc5cca44c588473f639ccb0219986e9b9af3982d31e0ce0c22f49e54ea1b20e0526288daa3f0b77e8ae8eae7d9b66214abfda73adeb775c68ecb065d8e94cead72fbb40f2ccbc582bf5d05f74ffe6b569a2f1f0d4a5a1dc85aa020337a28a20586cba59350c9c95e45b4915ae937bbbc2e93899ffe3617c7c39c24c7be6161918e7236a9e8f898af64e5cfbcfe484c24150ef08b70b73ca48751d0d6815bf941a03b7dffb1db58e202813a682e2a21de63d97c14c4a94957dfb78ada1fc19b9a7b645ae9e6705e816e8df4bfc5596cf66d004aef9fba5865e60e82b352e32d548019e6f7e8520850cc0c49d9ecdcc0715013f9e7f28324735e608fd062449188c61e049ea1493579734201d2fa0c6ea09182285ceae1364e6d573c12cac806469e81fa4019d4bb0b38289f00621d4bed4f243b625586f9282b017ebaaf408149895db1d3f4a2036d11900dc34eac1d92dde9bd9b9a0d0fe0b9f3f79503848f052d33d982796dbfcf55e9bc6bc0a09305415d77a4bf05eaad704a22a57c7c17de3c8679950caa20907318a42e47b1eddcd015ca3cb234aa1af0b5edd4ce9d04f159562293325b61a548650f7c7c35b8aee28048fcd7acf3372b5777dd094bf8ae1596f9680bafbd8c73cceb22288995b7fd3e1fe3ba43c1f8b5c6463e15e06e19a7030a183139586272757c858f95a7b3c4d0d1ebf9293f5b5c6b9eaab1c8d2d9e0fe00091e5c6e798a8f98a8b5cbe10b0e2225292e354694989eb3bfc1d3d700000000000000000000000000000000000014212e3e01fd210500644c3d873b58a59ac1edcf1338fbed5b5bc4e1b6456b58923fa1d12bb0202b0ffc86c0768de1f16048f9131b84615e28fd876c940de8ca67322a528d46089d371288ab776a78de5fdd0452c6881d77a3fed485c330198b872b35c60693ee8b770ee957e974bb02028ee7170c8793a8c30c8196deaefb94f9b9a0b50f5374bd63384103f031512084782a0acfeac9b38e00553944da32608cc70850bb415fee9cb78c3cde3ce76712fca8605d95e73780ab904a14ba339e57d0b33ee7b9ef242dcae2d7a77d2622764ff417d2ec4c990e1066f1c15724f8cad88d4c97e34728c8d6f567d3c0b7197868cc27e3f766399aa15ff21e4247a043715471158522fa0579ee804cb5e39b785c7b5c1f954ce6e4a3541410efdec5e845086c3ff33e0d49941c271812b5d66aea734e2e7c4e99c608eac65d52e2e999bc3aeb5d020c18055f7d8ddeb4d1f0f72192f380aa09f80424570d653db8fe42bb029b953b14718d5c20b55edc3f0dabfd941ec985e29b0850a28d09c61c249d610bc7a21d862c0efb82bc8ea27447057c6c3b4d94a379060dcada4daa57c6925c76e87f49ca7938503aa12b8d9269eca70329de120a0db9607385840d80a3aa204af66de16d839b851f885921ec91ed3634cd813d1c6b98052835fbbc0b7c67e68de41b51020fb11acbd532a016f0825129a97165030414b219a72d13083280c488bc43a7c931eb42be4428b436e8664855baa6c68e88a65836cc67723bde2c1d8683c25749f16f7e9f7a11ff27f0431abf5006ffe88dcd632a2090e259d2da8d45fefad37728f1defdb333fd124c16143df4272e49fb713c4ad34fe793f76338f57a08554e141647e2279e719b524c3a37f92d6e84b982a6afc31e287ff5876e176ef9a0c5d2c451715bff96ba537acc8a86e885caeadad2922aa2773417e0a1cdd343f3b74011e5c1a6c0b4ffa4e85ca9929e605c70e9df3d444fe3910087295ba72308d25fa724798698647fdbea2bd4f74d213f75dde73ed0894bc4f8062fa116385e6b27ed5d3a55f5e269c4627708e25ed2144d438247da7ebcd4bb3025929ca393a82342470d021c719ea8ba98d93a0a183bb11e3917231162eb45f6d9e4d00015b4cc290f818ed807fee8a4eb49f7185cdf43abbb0544d2bdba14cabf9b82af91d2e1afa7ab004c036ef5d64afc445bd70a494f4c26625af072c1b64a3639ab61d2c0f64d98a00d943b1bd344edfca54057a5631f232235101c587b9d0f0f07397d55ffe522d6d1405e36b70c53ab25a2ea8c0ccdb6c8b40bf52ce69b08d2a9d58643dc04da3c92291dd7bdf63eecab10a27cef71f703df7c39791c6a13adcd2dadb80da5de57397885ed3cfba54de4cbe6be445413b9a151ffcabef9d657b5a05d2060c20a90d0ac5bc9ebe1687fd9c3f776a5eeff8ad9c57ac3e970f7fef5561998de74790ed4f28e504586eb97df5807160a96edfc66cf48ed2126b3b4114e6c3603826bcf51c697e29d904859249f2aaf7ce2788b731f9ab25f0c856277ce9a21f5500b80f0fe7565b13e9d6902570aab91d97295dc2e5a71b4e430c4a281c9f41af9b0cb534195ab7b81e6a6033e8bd0449e5c2dabed3e1100e7d2799246c51252ec74bcf869f56bfce0b347cbf9a7b2e4da1b30f1ccb4885d81bf623d9203046a332306a971a53912e992ac24501e2b637307611a19d49fce35add64f7eee13ac13b6bb831a15f837aa492ac735347fc1c4f4c8b0b0ef95ad73f799d62abcfa4c3d3ff98e043678da52d5b45cef0fc26e8f12a5b2f55614e5736d98d51de8da32fc2f1cdb31cfb373bd4a1913b0007d78310f4fcfbb57f97e3f504a4a263ec2e27b000000",
  "txid": "6c20bb06aa68e18f5f695fa768b29a60742f404aa6633bae62e0a27669e2ed3b",
  "hash": "6d87b9eba834755645bd32cfa95cc3ba6f5fdbb08bf8072197c1c0568e23c4ec",
  "size": 5085,
  "vsize": 2278,
  "version": 1,
  "locktime": 123,
  "vin": [
    {
      "txid": "870490204721b246c15e8398d2f684af5e1797005c0af080533b8932312e4fd5",
      "vout": 0,
      "scriptSig": {
        "asm": "",
        "hex": ""
      },
      "txinwitness": [
        "0ba8c3abefdaf03328ba5ca5076b93258ecd3bc7199808b05c677113cd4d38802eb11c574eb7dc256e6070e193685862dd97b2281ac911f28dc37dd4c46ea207a4f6657ba2ef708c768520f8e53e004dd5be081d0cc499c2f9085cb3dc985c6b76112a2a854930bce0de6799a35e914ba39c58c79794439f8aa518187a9ea1dc05a52bc4c8878903f0c489ddd91bc0e0fc137179a33cd20d24465ba6169bb80e0de6fdc4e002b3065876adba5377c1f07e2299f578f51d85016980fe213fea4e5af96e0d8042c50ac14f0a203cd8dc0d9f21d4ffee8a9f0ce91c8abe6e8c25bc16864b7777a4bc32bd75b55e165b201d4fcba485e9d8ce28b09860e569ca9b4e4d3f79ef004e94c5ab3f0409a41693b0da4873fae4c4f40b91b51ce224e3fdf48f382ec0b683973e563d6d98c5e8d8af6423cc086ce01e2cd97c43da8f1ab1e4aa527df14beb705d27ef976f3cd9a58d6e26e2b2dc7d5c89611ff6ceadec2fd734258ed0dc21c1a8696e5e3511e4aaad02cc06e2d50ac69b41b00a76e1e88cb1a2da3774f5c813ec9c6061933fa8337d9f4b4652726676a323651491dfe82fe99ac8ae60e4a9558754748ebb824adcb8eb2a21e3e2f8ede4057b7ae6cdf27ecd56b4e2ee9362c453012435e62f4a6a3d97d86a8b4f4f551d95510b342a881b349dc59049a72284025cf1a50018d410ce14e73f0552598ebaa41ca8103cb793b74121695ec5ce6ee3ee6634bd96b10ffd248bdf1172c4feb5e44b9b03d294ea6cb383582e341e4139bd2d89f2577faa2864d91c2d95516464b86864bae210594b7daa7d043667135a40444aa9dd4f518def8651608ad3e93fc2214fcc122d638cb538572c833c20937f77269b37d5aeac96b2ad0a4e85177111710b1d56f402280f34c092f9549bf53f7a49c542850fc999c2b34f464ab04e58051618aa89840e05679c75a2525a32057da0ca7c194a698565334cc804a134d63c49cdd732e261558e174339e5bbbdb125a185d3480eee369474150f7cbd6d87457ee07b42b9cf557d94562d3325f23c7ebc6821227e3bb6811f6967b1e253cba7dcbcbd41d296633864658a4309468f72727952dd97f8082995138dbc6678dade300270f542be6b353cc867491224eed3dcb364951fe8eda396456aa7859276c24b18477f17490754de10f40ffa7fa7c72fe5ff12c03e1659c9d83a8f4a1055c578a4a4cf9c7821896e0011172973347fe54d3cfaf85e166fdeee767494ba5790da201eae8e7af2387bb0e9a1fc2f73e6325a1a1e93f282ce975f2f100befd87aa0f923ee07ed6e7db36d7b6b3da7ba1266af0fab5c25f1144bd2a55f60794eb817c24b391238765cc8409ff36c611e8f5f317a79ecc2f4af435e903a84b5f27d63d279080ded226adab4f7eb19b6f85285eca74aa58eac0b5eda0deda4ffeb639149489bcdbf060f18d9f9f980ea9067f5f537b06e1611052b40611088919de85482c44a0beeeec40c9033fca975db99cd56df0a1ece6224c6f791554de2a9ab2083a389fd83381b4aa23303826b00678043da876ae0fd2c2f90e98968c457c088655c34896497cb69d86d403f657bf5ba0d54b870fc9884c4ced37c4fe7c0ec62e225a776b94cced2213653c7b88924cf2fedeed9cabeb9b8cd812e2304bdf75732a71974450688d14a29142fbe9601e3464117ebd18d5824616ca6ff79774c218e452ffa2bcbbe85d39617f3d7196877a24ddfaa9839a4786ea10f985a4fdb09851beef711fc989fb65182ad486bc8e6186aeba05acf6b9dc6a78c091a855000e42fae09c6f78cfd4b6f234d803ef99371317162306e4476291a010285099bac5b64fa990c242237f9f0ce589477bebc9481eb35d9ae1c47f9c509a32f2102d78dfec5917e48bd1e520af27184d87d68a46af2fb0622bf448813ecbf4486a5fb3b9019a8a4f1cfdf3fe70979759bc552e93ef7468af9c3a374d1bf63c813d545c5f930133a1cb33ef14486f3d6afb166fb6592f6de88d9150938ded79a940cac718b8ef84c51fcb9609c6447c23c9be7903fd4f144c6149d0cd479032cc84692949fff0ff4569a6b12a441ed20baba205b2109101415c48c7721acb888ca78208c7e84992d5cde420a1ef703ffca816675131f10e9e2a20f0a9e2f38e7def0845ae9e2396de3b33b0f6cc0602e251275e84cdaa92bb38622885101564387f9709a3c307b15801f77c72bb034d09eb23637f5fd12f58d0c6735780a06d614eefb4789a77b6d16ad9cc22695e35f869fb58c1f4addf96ee35321cc90b03fd97f4926e49233f0baed99aed0e02bc5ed1b40bea284f2f36d80cb9810173697690fbf0b4c6979d1f1fe595061304e0db2136da96898432f3750d21f31d09aa728742fbd25a12ee0d9f5f21b6cba40e953a526710a88b2fd958210fcf5ddc484da51c96757f91210cc6e1e42d371ebb2a3b49f3766b7f1858c496e27b993a66da0b94f08596b4700ba1f52d5ab90adb0c1c3d806b3e9b53979446595b01e31c8497629787d41130e549d2f7193b20e989fe5ae3adcf4483ad771139f4531d58464c144b0c2fcd4dcee8d1a7ccd060326186d27bd5c7b2dc1616b2bfbfa0fbc3915a36b9da26662dc5cca44c588473f639ccb0219986e9b9af3982d31e0ce0c22f49e54ea1b20e0526288daa3f0b77e8ae8eae7d9b66214abfda73adeb775c68ecb065d8e94cead72fbb40f2ccbc582bf5d05f74ffe6b569a2f1f0d4a5a1dc85aa020337a28a20586cba59350c9c95e45b4915ae937bbbc2e93899ffe3617c7c39c24c7be6161918e7236a9e8f898af64e5cfbcfe484c24150ef08b70b73ca48751d0d6815bf941a03b7dffb1db58e202813a682e2a21de63d97c14c4a94957dfb78ada1fc19b9a7b645ae9e6705e816e8df4bfc5596cf66d004aef9fba5865e60e82b352e32d548019e6f7e8520850cc0c49d9ecdcc0715013f9e7f28324735e608fd062449188c61e049ea1493579734201d2fa0c6ea09182285ceae1364e6d573c12cac806469e81fa4019d4bb0b38289f00621d4bed4f243b625586f9282b017ebaaf408149895db1d3f4a2036d11900dc34eac1d92dde9bd9b9a0d0fe0b9f3f79503848f052d33d982796dbfcf55e9bc6bc0a09305415d77a4bf05eaad704a22a57c7c17de3c8679950caa20907318a42e47b1eddcd015ca3cb234aa1af0b5edd4ce9d04f159562293325b61a548650f7c7c35b8aee28048fcd7acf3372b5777dd094bf8ae1596f9680bafbd8c73cceb22288995b7fd3e1fe3ba43c1f8b5c6463e15e06e19a7030a183139586272757c858f95a7b3c4d0d1ebf9293f5b5c6b9eaab1c8d2d9e0fe00091e5c6e798a8f98a8b5cbe10b0e2225292e354694989eb3bfc1d3d700000000000000000000000000000000000014212e3e01",
        "00644c3d873b58a59ac1edcf1338fbed5b5bc4e1b6456b58923fa1d12bb0202b0ffc86c0768de1f16048f9131b84615e28fd876c940de8ca67322a528d46089d371288ab776a78de5fdd0452c6881d77a3fed485c330198b872b35c60693ee8b770ee957e974bb02028ee7170c8793a8c30c8196deaefb94f9b9a0b50f5374bd63384103f031512084782a0acfeac9b38e00553944da32608cc70850bb415fee9cb78c3cde3ce76712fca8605d95e73780ab904a14ba339e57d0b33ee7b9ef242dcae2d7a77d2622764ff417d2ec4c990e1066f1c15724f8cad88d4c97e34728c8d6f567d3c0b7197868cc27e3f766399aa15ff21e4247a043715471158522fa0579ee804cb5e39b785c7b5c1f954ce6e4a3541410efdec5e845086c3ff33e0d49941c271812b5d66aea734e2e7c4e99c608eac65d52e2e999bc3aeb5d020c18055f7d8ddeb4d1f0f72192f380aa09f80424570d653db8fe42bb029b953b14718d5c20b55edc3f0dabfd941ec985e29b0850a28d09c61c249d610bc7a21d862c0efb82bc8ea27447057c6c3b4d94a379060dcada4daa57c6925c76e87f49ca7938503aa12b8d9269eca70329de120a0db9607385840d80a3aa204af66de16d839b851f885921ec91ed3634cd813d1c6b98052835fbbc0b7c67e68de41b51020fb11acbd532a016f0825129a97165030414b219a72d13083280c488bc43a7c931eb42be4428b436e8664855baa6c68e88a65836cc67723bde2c1d8683c25749f16f7e9f7a11ff27f0431abf5006ffe88dcd632a2090e259d2da8d45fefad37728f1defdb333fd124c16143df4272e49fb713c4ad34fe793f76338f57a08554e141647e2279e719b524c3a37f92d6e84b982a6afc31e287ff5876e176ef9a0c5d2c451715bff96ba537acc8a86e885caeadad2922aa2773417e0a1cdd343f3b74011e5c1a6c0b4ffa4e85ca9929e605c70e9df3d444fe3910087295ba72308d25fa724798698647fdbea2bd4f74d213f75dde73ed0894bc4f8062fa116385e6b27ed5d3a55f5e269c4627708e25ed2144d438247da7ebcd4bb3025929ca393a82342470d021c719ea8ba98d93a0a183bb11e3917231162eb45f6d9e4d00015b4cc290f818ed807fee8a4eb49f7185cdf43abbb0544d2bdba14cabf9b82af91d2e1afa7ab004c036ef5d64afc445bd70a494f4c26625af072c1b64a3639ab61d2c0f64d98a00d943b1bd344edfca54057a5631f232235101c587b9d0f0f07397d55ffe522d6d1405e36b70c53ab25a2ea8c0ccdb6c8b40bf52ce69b08d2a9d58643dc04da3c92291dd7bdf63eecab10a27cef71f703df7c39791c6a13adcd2dadb80da5de57397885ed3cfba54de4cbe6be445413b9a151ffcabef9d657b5a05d2060c20a90d0ac5bc9ebe1687fd9c3f776a5eeff8ad9c57ac3e970f7fef5561998de74790ed4f28e504586eb97df5807160a96edfc66cf48ed2126b3b4114e6c3603826bcf51c697e29d904859249f2aaf7ce2788b731f9ab25f0c856277ce9a21f5500b80f0fe7565b13e9d6902570aab91d97295dc2e5a71b4e430c4a281c9f41af9b0cb534195ab7b81e6a6033e8bd0449e5c2dabed3e1100e7d2799246c51252ec74bcf869f56bfce0b347cbf9a7b2e4da1b30f1ccb4885d81bf623d9203046a332306a971a53912e992ac24501e2b637307611a19d49fce35add64f7eee13ac13b6bb831a15f837aa492ac735347fc1c4f4c8b0b0ef95ad73f799d62abcfa4c3d3ff98e043678da52d5b45cef0fc26e8f12a5b2f55614e5736d98d51de8da32fc2f1cdb31cfb373bd4a1913b0007d78310f4fcfbb57f97e3f504a4a263ec2e2"
      ],
      "sequence": 4294967294
    }
  ],
  "vout": [
    {
      "value": 499974.5775,
      "n": 0,
      "scriptPubKey": {
        "asm": "1 31aad61a51e54c3b7931556570d842d701fbdae7a0b6190af97f49188e5c4118",
        "hex": "512031aad61a51e54c3b7931556570d842d701fbdae7a0b6190af97f49188e5c4118",
        "reqSigs": 1,
        "type": "witness_v1_scripthash",
        "addresses": [
          "3QJmnh"
        ]
      }
    },
    {
      "value": 1.0,
      "n": 1,
      "scriptPubKey": {
        "asm": "OP_RETURN 50f350734258d91fd9de6dc5c423fc9088f71b1157503949f3b3da9daf932dc7 9823f9aa9e7fbc6978306dab54cf1479d77a5917be04ce5b06fb107e99b6f53ab803d98abe5f9c4958104d8b74ef3459f75a79379e24ee7b26db305eb996d51ad863b9eade3ffc2938702deb148f5439973a1957fe448e1b46bb503ed9f6b57af84399cafe1fdc0918500dcb34af7419b71a3977de64ae3b669b701ef9d6955a18a3792a1eff3ce9f8b0ed2bd44f94f957fad9973e844edb867b90fe193675ba3883590a3edf1cc9d890cd0bf46fb4d977daf9b71ea46efba65bb0de3916559a58e3396a5ebf7ca9b8f0ad6b940fd4b917ba99d77ec40e9bc63bd0be597635fa78c3194a7e9f5c8998d08d4bb42ff499379ab9f75ee42ebbe61bf09e795615da9823f9aa9e7fbc6978306dab54cf1479d77a5917be04ce5b06fb107e99b6f53ab803d98abe5f9c4958104d8b74ef3459f75a79379e24ee7b26db305eb996d51ad863b9eade3ffc2938702deb148f5439973a1957fe448e1b46bb503ed9f6b57af84399cafe1fdc0918500dcb34af7419b71a3977de64ae3b669b701ef9d6955a18a3792a1eff3ce9f8b0ed2bd44f94f957fad9973e844edb867b90fe193675ba3883590a3edf1cc9d890cd0bf46fb4d977daf9b71ea46efba65bb0de3916559a58e3396a5ebf7ca9b8f0ad6b940fd4b917ba99d77ec40e9bc63bd0be597635fa78c3194a7e9f5c8998d08d4bb42ff499379ab9f75ee42ebbe61bf09e795615da9823f9aa9e7fbc6978306dab54cf1479d77a5917be04ce5b06fb107e99b6f53ab803d98abe5f9c4958104d8b74ef3459f75a79379e24ee7b26db305eb996d51ad863b9eade3ffc2938702deb148f5439973a1957fe448e1b46bb503ed9f6b57af84399cafe1fdc0918500dcb34af7419b71a3977de64ae3b669b701ef9d6955a18a3792a1eff3ce9f8b0ed2bd44f94f957fad9973e844edb867b90fe193675ba3883590a3edf1cc9d890cd0bf46fb4d977daf9b71ea46efba65bb0de3916559a58e3396a5ebf7ca9b8f0ad6b940fd4b917ba99d77ec40e9bc63bd0be597635fa78c3194a7e9f5c8998d08d4bb42ff499379ab9f75ee42ebbe61bf09e795615da9823f9aa9e7fbc6978306dab54cf1479d77a5917be04ce5b06fb107e99b6f53ab803d98abe5f9c4958104d8b74ef3459f75a79379e24ee7b26db305eb996d51ad863b9eade3ffc2938702deb148f5439973a1957fe448e1b46bb503ed9f6b57af84399cafe1fdc0918500dcb34af7419b71a3977de64ae3b669b701ef9d6955a18a3792a1eff3ce9f8b0ed2bd44f94f957fad9973e844edb867b90fe193675ba3883590a3edf1cc9d890cd0bf46fb4d977daf9b71ea46efba65bb0de3916559a58e3396a5ebf7ca9b8f0ad6b940fd4b917ba99d77ec40e9bc63bd0be597635fa78c3194a7e9f5c8998d08d4bb42ff499379ab9f75ee42ebbe61bf09e795615da9823f9aa9e7fbc6978306dab54cf1479d77a5917be04ce5b06fb107e99b6f53ab803d98abe5f9c4958104d8b74ef3459f75a79379e24ee7b26db305eb996d51ad863b9eade3ffc2938702deb148f5439973a1957fe448e1b46bb503ed9f6b57af84399cafe1fdc0918500dcb34af7419b71a3977de64ae3b669b701ef9d6955a18a3792a1eff3ce9f8b0ed2bd44f94f974b4ff657b70dc3df86b18a0b3a0c0bb09af45c861f585e897a9522e46595075",
        "hex": "6a2050f350734258d91fd9de6dc5c423fc9088f71b1157503949f3b3da9daf932dc74db0049823f9aa9e7fbc6978306dab54cf1479d77a5917be04ce5b06fb107e99b6f53ab803d98abe5f9c4958104d8b74ef3459f75a79379e24ee7b26db305eb996d51ad863b9eade3ffc2938702deb148f5439973a1957fe448e1b46bb503ed9f6b57af84399cafe1fdc0918500dcb34af7419b71a3977de64ae3b669b701ef9d6955a18a3792a1eff3ce9f8b0ed2bd44f94f957fad9973e844edb867b90fe193675ba3883590a3edf1cc9d890cd0bf46fb4d977daf9b71ea46efba65bb0de3916559a58e3396a5ebf7ca9b8f0ad6b940fd4b917ba99d77ec40e9bc63bd0be597635fa78c3194a7e9f5c8998d08d4bb42ff499379ab9f75ee42ebbe61bf09e795615da9823f9aa9e7fbc6978306dab54cf1479d77a5917be04ce5b06fb107e99b6f53ab803d98abe5f9c4958104d8b74ef3459f75a79379e24ee7b26db305eb996d51ad863b9eade3ffc2938702deb148f5439973a1957fe448e1b46bb503ed9f6b57af84399cafe1fdc0918500dcb34af7419b71a3977de64ae3b669b701ef9d6955a18a3792a1eff3ce9f8b0ed2bd44f94f957fad9973e844edb867b90fe193675ba3883590a3edf1cc9d890cd0bf46fb4d977daf9b71ea46efba65bb0de3916559a58e3396a5ebf7ca9b8f0ad6b940fd4b917ba99d77ec40e9bc63bd0be597635fa78c3194a7e9f5c8998d08d4bb42ff499379ab9f75ee42ebbe61bf09e795615da9823f9aa9e7fbc6978306dab54cf1479d77a5917be04ce5b06fb107e99b6f53ab803d98abe5f9c4958104d8b74ef3459f75a79379e24ee7b26db305eb996d51ad863b9eade3ffc2938702deb148f5439973a1957fe448e1b46bb503ed9f6b57af84399cafe1fdc0918500dcb34af7419b71a3977de64ae3b669b701ef9d6955a18a3792a1eff3ce9f8b0ed2bd44f94f957fad9973e844edb867b90fe193675ba3883590a3edf1cc9d890cd0bf46fb4d977daf9b71ea46efba65bb0de3916559a58e3396a5ebf7ca9b8f0ad6b940fd4b917ba99d77ec40e9bc63bd0be597635fa78c3194a7e9f5c8998d08d4bb42ff499379ab9f75ee42ebbe61bf09e795615da9823f9aa9e7fbc6978306dab54cf1479d77a5917be04ce5b06fb107e99b6f53ab803d98abe5f9c4958104d8b74ef3459f75a79379e24ee7b26db305eb996d51ad863b9eade3ffc2938702deb148f5439973a1957fe448e1b46bb503ed9f6b57af84399cafe1fdc0918500dcb34af7419b71a3977de64ae3b669b701ef9d6955a18a3792a1eff3ce9f8b0ed2bd44f94f957fad9973e844edb867b90fe193675ba3883590a3edf1cc9d890cd0bf46fb4d977daf9b71ea46efba65bb0de3916559a58e3396a5ebf7ca9b8f0ad6b940fd4b917ba99d77ec40e9bc63bd0be597635fa78c3194a7e9f5c8998d08d4bb42ff499379ab9f75ee42ebbe61bf09e795615da9823f9aa9e7fbc6978306dab54cf1479d77a5917be04ce5b06fb107e99b6f53ab803d98abe5f9c4958104d8b74ef3459f75a79379e24ee7b26db305eb996d51ad863b9eade3ffc2938702deb148f5439973a1957fe448e1b46bb503ed9f6b57af84399cafe1fdc0918500dcb34af7419b71a3977de64ae3b669b701ef9d6955a18a3792a1eff3ce9f8b0ed2bd44f94f974b4ff657b70dc3df86b18a0b3a0c0bb09af45c861f585e897a9522e46595075",
        "type": "nulldata"
      }
    }
  ],
  "blockhash": "3f7b66b34673dd56727b9b27d02dfa4f8333ff75e8b72ddccb546061f2a7d063",
  "confirmations": 1,
  "time": 1764180681,
  "blocktime": 1764180681
}