{
  "hex": "0100000000010161cf77d0cf06340bc2b99a4f21547c7c48ae30527f9782e60c5484db974475310100000000feffffff02a0cee9a1782d000022512048d8d2e80aed665675ccb5fc88172ef49e2436af3a38285b654e5a913a8ebb9000e1f50500000000fdd5046a20cef95110312b35f74b24758863c8c1cbc2b80af23bc2a594f70b68cea072c0284db004289fba3bd20c3b9ad496eb9c544ca87756ded366ec83ca44dda88ebcd89fa8b208bf9a1bf22c1bbaf4b6cbbc746c885776fef346cca3ea64fd88ae9cf8bf889268dffa7b924c7bda94d6abdc140ce837169e9326acc38a049de8cefc98dfe8f248ffda5bb26c5bfab4f68bfc342cc81736beb3068ce3aa24bdc8eedcb8ffc8d2a81f3abb528cbb1a54166b1cd4cc28f7d65e53e66c034ac45d280e3c581f2832883f1a9b72ac9b3a74364b3cf4ec08d7f67e73c64c236ae47d082e1c783f0812e85f7afb12ccfb5a14562b5c948c68b7961e13a62c430a841d684e7c185f6872c87f5adb32ecdb7a34760b7cb4ac4897b63e33860c632aa43d486e5c387f4852289fba3bd20c3b9ad496eb9c544ca87756ded366ec83ca44dda88ebcd89fa8b208bf9a1bf22c1bbaf4b6cbbc746c885776fef346cca3ea64fd88ae9cf8bf889268dffa7b924c7bda94d6abdc140ce837169e9326acc38a049de8cefc98dfe8f248ffda5bb26c5bfab4f68bfc342cc81736beb3068ce3aa24bdc8eedcb8ffc8d2a81f3abb528cbb1a54166b1cd4cc28f7d65e53e66c034ac45d280e3c581f2832883f1a9b72ac9b3a74364b3cf4ec08d7f67e73c64c236ae47d082e1c783f0812e85f7afb12ccfb5a14562b5c948c68b7961e13a62c430a841d684e7c185f6872c87f5adb32ecdb7a34760b7cb4ac4897b63e33860c632aa43d486e5c387f4852289fba3bd20c3b9ad496eb9c544ca87756ded366ec83ca44dda88ebcd89fa8b208bf9a1bf22c1bbaf4b6cbbc746c885776fef346cca3ea64fd88ae9cf8bf889268dffa7b924c7bda94d6abdc140ce837169e9326acc38a049de8cefc98dfe8f248ffda5bb26c5bfab4f68bfc342cc81736beb3068ce3aa24bdc8eedcb8ffc8d2a81f3abb528cbb1a54166b1cd4cc28f7d65e53e66c034ac45d280e3c581f2832883f1a9b72ac9b3a74364b3cf4ec08d7f67e73c64c236ae47d082e1c783f0812e85f7afb12ccfb5a14562b5c948c68b7961e13a62c430a841d684e7c185f6872c87f5adb32ecdb7a34760b7cb4ac4897b63e33860c632aa43d486e5c387f4852289fba3bd20c3b9ad496eb9c544ca87756ded366ec83ca44dda88ebcd89fa8b208bf9a1bf22c1bbaf4b6cbbc746c885776fef346cca3ea64fd88ae9cf8bf889268dffa7b924c7bda94d6abdc140ce837169e9326acc38a049de8cefc98dfe8f248ffda5bb26c5bfab4f68bfc342cc81736beb3068ce3aa24bdc8eedcb8ffc8d2a81f3abb528cbb1a54166b1cd4cc28f7d65e53e66c034ac45d280e3c581f2832883f1a9b72ac9b3a74364b3cf4ec08d7f67e73c64c236ae47d082e1c783f0812e85f7afb12ccfb5a14562b5c948c68b7961e13a62c430a841d684e7c185f6872c87f5adb32ecdb7a34760b7cb4ac4897b63e33860c632aa43d486e5c387f4852289fba3bd20c3b9ad496eb9c544ca87756ded366ec83ca44dda88ebcd89fa8b208bf9a1bf22c1bbaf4b6cbbc746c885776fef346cca3ea64fd88ae9cf8bf889268dffa7b924c7bda94d6abdc140ce837169e9326acc38a049de8cefc98dfe8f248ffda5bb26c5bfab4f68bfc342cc81736beb3068ce3aa24bdc8eedcb8ffc8d2a81f3abb528cbb1a54166b1cd4cc28f785afb1f9f5da47dbeca615852624701e5d7a7888c821785d3b693960ad90dc0802fd7509a03f26284462a04cea4e1360649f2240258ba6871972846591fe8bbd65cba37d6a08055df467bd293986fd34cbb2e41b4a6ee0df420196b0b202100798ba539720c74a7e1aff0d66bf3fc078343867e0515eab486518ed7fb8418ae184a321f84d16fdf814375326522473ed430c41c3c2e622b34529a43eb66bd9735bf8450d84badc3afd04cff9d259112ff0fe783c78c64e728b6c22f5beb95c125e3c890f15167a770c4da7bb434b0584d3106e47165c2925b5d98d352c52740a23f0d6d559d3fe8c1fa05ebf802533b87450b058272ff5eff9489a66f86c20123710c08086e87be947cfcb7103ee50ca01a67b7b74b27723116c601abb71cd6886f4259275775a440ccf4f004cf3c450298c32d8d313fe44179f3a95ad570068168e0f04c5996b0e120dda699561ffe575ec91552d71076114b4a56e12d9724c8389c8e1f7659e8e740e52a6323062a6eb7bb2ec787c7febd438fa1144edaada4677dc0e6b6279998c79fb1bde6d9993f8353b5be01acf404bff58c7350b60dfc1328372c5d9f0448667a696a23b9da9faea8a7e752f76d61394e1e0150fdaa7c5f356c5710778d036f0ec070a773ac7b63486649df9b29f919dc057d40c8e4a9c725c59d8bccf40d72219cd330e12c1c70125de0f8226e39f646d9d1e06721d4cdabce8b91b7bb6138bdd04ce8ebb6e9d6088a3bcbbd8926686ffd72f07f05a083fb67ae529774dd0e625490b4b1fa5096507ab3cbacbd623ae1c26b25b3c1837620b5b3c8702305a25c042bbcce9a38e5c00435e9aea7e0c5f04c26e71a20ba4902b81a1abe00e3cecf2e209b7713b5fdbd3cbdb85f326ba12b186649d3ee1c2bdfb66bbe4d18bf52e2e9e427a07ca9d6e6fa9a0a3bfc8234e90fbb09314af3e1518641bcf16a046b6269d5b43a9cdcbe862c88fda4340b9a7f47f071236365544f227df08f996787650df4be3c5a68ff1dab87e3d8f95cf658dbe31eac5d192695857103d1c588500fc89b7ca0a9929f6b3cc6b8f9eb949dd91c369e5d278f4fc55d29337e03ee003ae81477f364670bc7c2809efccc0eb3296f642235eac722b60e4112c48e4387df0780c52a9fcfd55d312ab1e0251fd836933f2f0137a2f7406fb605b27fbb1c2a73f0e93a0c80d4d888723ec18f03e5ed316bed9dabbbdbaec6314e2349da692943caade8cc3c42f61c6665366d0c6db1d531caf37fe15566d2687deb493f4318b3cf9cd345810b3de94348986d20c93f956abd3bbf69d81788becc0f5f8ce41e44e342053394ff5909347847b726db7d7cb2fa235a7930133d468da8d78650126274bb73afd144f797088f1e904a883db52687377ba681c6a5db8ee753c5359b783947b87de59897d252eec4f444bb93d86dbf5477766e71df9aad6ba38eedda6ffe757d4251c04f6ea6019bc0bb075ea1eb9d562f3b321969905321f9aa9f67656d7fe10b0168df6b77203314160efa80f6d680928d648be6e94a5a17bb32059e7a1a5c1a239c0bb80362aaf5274b97467dfa0fa127743e98e17fd8bac2a584ef9af003d6dc46e94fa8d8a80fb909ea63ab75f947c7acd2da16508d022310eab156e8d243212fd7563dfb0ad2503cbaa8cfdac237b8708335608f2cf226c98cf89a0d4554a63c7a2f3a1c73a43509f65fbe3d9f9b5b7e189717de658e1e355fa24caa2ae30bc7024b5a6f391373288876807d27a7885eaf8f207fec38f5a656348d23dbb8f149708f81d397624915d4b432ea133de6019d902c342e6ee473ba78e50f5763dc0b9ef35eca34a047cf26d5d7c810c0e12cb37b1049ea24fdb7976f5cf228776581c308bc64790fda7923b6fc8637481529a797edda379ff4150dfa320efa973027580216bca8431e70a93c863e88274b57315bef68dbf3b7983e5500c2b62370a52dfe6aa53ca978380d7e2ea51f5e9477bf4b2e6ad65ab8a85c3eb1ca70c04212b6be126e525f33fe03b26d0eadf79900e27773a50b246395516fc6493af12c74227ccd052e9aa56f4d24766a8205f81eecd84d7405a48faefe21d8aefca10dc021185ffe7e1ca26c6e8b3b7dd7ec0fb27468e8bde2b44e93c13c9641fe97260ff7caada3023ff8d270705904516eb11379010208f08b013dbdd34704accff850962e92c16edee585d94e7212ce92e4c9213beb15577d77ad98f05083163be9108b46618243de0517153d458a2ba48f5485c921bbbbb2a335029b6201d2f12f27f264afb8256850f4d8e74aa01fb8f23bbe5df776fcdae830e1d1e16c71636c2ed1e3acbe617e3701425ca185c4540d0e765383cfd34a0a8b498c423395015b7d998aae052ce9e302e3ca3d807658aab59308ea667ace6cfc07a4b8ab0c879b5cfae4609005cf5825bcd508246e3ba5a9c5499994e181a7c1af73f152887969a582ff5d11dcdb28d3cb0c421dc1931d5af323c48400b0a36b42fc9dde2530be75d0afeafbea65e42b2e9d3104052fd122b20e0a45b053b3478bcda1a174d24f6eb525a10fed318070cfcc1c7ff350aa2f42d7c3a1ce7513bf39c3404ebfd58fba97ac05959c28ad76cb7b51fb3858015f8e45e0cc7cb356ca6af196cbcf0707cd5676e277029c193f197b9895d0f32432d366c7d41cc4bd9afa60038f5363825c1f5d900aa47eaf29451166f762df9f94fdeba8a39b87d1cc98f985aaaec2ad2a23245dd5d1b4f3984938c13e4b539efe50d337b1ca74f1e70f617f6c574d74342f07fc45986fb90364314e7a9e5488a0b9404ac42d28de5e03bfeefb7370b7fd9d3bffbc9430300fa268708a93f01d1ba5bdeae18651ff4c14ed1f0e93f1cf5ddd063e8de017e502c9459ddb704a7abfa087e9cd28904ba5ce8ca73a5c85b282b3e8f41b92a9036f856b41587a8c36c0aa2af87114b07e1dde305542f695dd1a27c2637207f9ac600a20fcdd0c7af1500bc606b6f43612c1c72bd2790fa7ef3972444a7294c305290cd595c45474063fb3fc21458ed3de30ba3b6a7e7f513ae0d7c84e4d0808b79ddcc2e2ceb1f87f26f20211bb66ce0e2e9538702a09f58ebbffef711a85fe0635df23c3f5b3e8cf8f31bfefdb64e976c5f641d3578539d0e43aaa8280acc7f3f0484b1b76cc0fc32e11e3faaf4da4f44523da1c4c559905b16d747077719ec49945c8b838e96341296d7eedaddc6c33d53dbd7c95b20cb9f9e012a62c15ab2b7e3896dba968158688d2e4e09c7328a30e58f392c0252d7ef5e62dfde3c39a16ebba6834f323f588a6d6747f4bf4498575ea3a8c649f54bcc271b3d2e409d02e9407679c668dfc9951bd228152747698a989db2d9f4ff080e2f424a6a7788a0b6b9d2e1e7ecf8fc111a2a2b3a7584888a999bc7cbd0dfe5f1f7f8fb0b202a383e404a5b787b9aaaabb2bdc1c8c9ced6f0f5000000000000000000000b1c304601fd210500c479236acdd0448409b551221b8026dd139f8fb12b5f5a8604573a61486cee0cc9cd7746cab44698c3d92df2f0f4f6b3de7920ebc0dde7a3aa54afce759abea2558ee8d73a9e2291299e3ca6363743423f0069676d6a6b0bbec58779b5b6783570a8bdd9b3587ef8830166d4cd2810c9a1ab052827adefde3be597bf03b85159764e172187af366fb5161d99d463d417f93dade6178c009a86f86805d2e057dcdc566d64077e9459e66cc9f2e0cc82f1511e722c45203dd6fc496d50c4264a372e688eea39533d3ba8fb8c8c6abd5aa12c8b5a86ede6399d265860b4b95d8fb5d4e22895ffda856d403909dcb78a3cd8464593870a30783ef1bfd03cf80b430125529075f6b39e7258d59d6b9c7c3fde14eccb1b3611d81884aa107169aab6aee337383437ad0c0e0b1bb3f27e2188cbe5dad751c75b117dbe8ddd07d4d5cbd6f56d96e177ddfbef57c966846344e6315ea88999a580c587047eeda01302d25b16e0fc8d409fbab18fb60d6c586c9a5264d362d46f556f97201d14cfc259fed3989886df7c24a5e36d84267448714135080e171572264054d07215acaa71396c3bd5b39fd572815d1ec94abf9eca791f27d31cd7aacacaccf83d7c7da1893588c519e9a7ea9bce89a6e5b40a53dc13effcd4ab972c8bcdb3a21094861ea28244a9c8f0b9ad534da48e4ec6a8f4e7ead9b075e41d606731490c3d9c33e48d0c89da1a4d5960e52161d291e5222421a3fdc530ebaaed9623a01d25c589afa254228ca5c2bf86b5506e95d938b9b2e85ca96b5c63e1903227ae69220d2088904367f957391f9a01d2ca3aa55c0673ffe9a23e3c0a6203e978108b38231abaf54615e7b07cb8482eacbeffca718acff1b5c65fc084c722fabd040fdd0d1eb770e2ffbb0f591e80cb0ab3c818ae7babe04e64ed7c89635516d72bc8f29c35b75c04228b9a5c597c4615f89b65e9eee8eb3fd40ce222d200a345230045e6b91bb0ffb1483e2db361510cb9b5cc4e7dba0dcfbe7faea18ad3138aeb0ee2f7117d16495e458770131050b87469da5b85ec48f11514cd2def1c15d003a48a4a481f3e615194e1c8a518a65164e5d7668cfd82fcd5f8157a5e679e089e5a721f33b21a285f907cd4710e75f0f57b27dffa70e2322345d67299514589c70cefb180b23098001342ec8b0609df04b7ede1fcc68d4b7941cec0810b82962f7050328fb9fddf4307a250dc2c1cef0abd2a1dcda8a5b272e31793c31044a21389d6d48cd25ca8faf2c02f1060ea51b2f7c65ce052c1b36d414db46068427d0816029bd32156a4ca3cd802fd1c6afaa8a85bf34eff9dd5742a72975a5a132229eb1145b8cf81dcfa01c598d34f6b9670a2f32a4fe53cec421d1ddae96d358b89e63bd5c022f1e145339bd0ee0f5fb7ea35cb0ca61efa2c98b9d9580f083e267b90568db13a7ba521fb40d6f4e174bf513301bf4fb029e493d87f89ca7bb1a737f529ea116315b3754a4fa73b8b5398ad931bf1538e6b4324c443579ef6c967f6dc44bb6e12223b16b4cb5dc72c9e4ca5f059c626e2828818dbadc764c3ab07562352acc97a92d14aacef455b033f0c431aee107effdbf4bb533245368c1a078b8b1f6195746102a470fa29f9271594f0066571a09f09d70982f8db6e767a1dbf3881d8fa17c29346d11ac98842a5523b09cde3716135dc0fe62720436f147658752513dbc29c4af09e92b752ec59c681c2f36a2a41d4120e8d5b2d73b1d58cfbb0de5cf4d1ae53a3f61d8a7db04d048adb7f88dc2c808d357348e1aea4ae73bdd455884a88bdd13464b271f0b9ef2bc300a7963f6c905102a5af767f6c1f3ee8b32ea1554e4f22a888000000",
  "txid": "6079e7925bd9cccd7c93c2056e1fdb5f99e7119ec5e7151d3ee4dd7ac19e0cb5",
  "hash": "5fac418ee7bdbdb80c7d07f1dd5a5c873c8d9a6f01a4396f397f71823ee2d0d0",
  "size": 5085,
  "vsize": 2278,
  "version": 1,
  "locktime": 136,
  "vin": [
    {
      "txid": "31754497db84540ce682977f5230ae487c7c54214f9ab9c20b3406cfd077cf61",
      "vout": 1,
      "scriptSig": {
        "asm": "",
        "hex": ""
      },
      "txinwitness": [
        "a03f26284462a04cea4e1360649f2240258ba6871972846591fe8bbd65cba37d6a08055df467bd293986fd34cbb2e41b4a6ee0df420196b0b202100798ba539720c74a7e1aff0d66bf3fc078343867e0515eab486518ed7fb8418ae184a321f84d16fdf814375326522473ed430c41c3c2e622b34529a43eb66bd9735bf8450d84badc3afd04cff9d259112ff0fe783c78c64e728b6c22f5beb95c125e3c890f15167a770c4da7bb434b0584d3106e47165c2925b5d98d352c52740a23f0d6d559d3fe8c1fa05ebf802533b87450b058272ff5eff9489a66f86c20123710c08086e87be947cfcb7103ee50ca01a67b7b74b27723116c601abb71cd6886f4259275775a440ccf4f004cf3c450298c32d8d313fe44179f3a95ad570068168e0f04c5996b0e120dda699561ffe575ec91552d71076114b4a56e12d9724c8389c8e1f7659e8e740e52a6323062a6eb7bb2ec787c7febd438fa1144edaada4677dc0e6b6279998c79fb1bde6d9993f8353b5be01acf404bff58c7350b60dfc1328372c5d9f0448667a696a23b9da9faea8a7e752f76d61394e1e0150fdaa7c5f356c5710778d036f0ec070a773ac7b63486649df9b29f919dc057d40c8e4a9c725c59d8bccf40d72219cd330e12c1c70125de0f8226e39f646d9d1e06721d4cdabce8b91b7bb6138bdd04ce8ebb6e9d6088a3bcbbd8926686ffd72f07f05a083fb67ae529774dd0e625490b4b1fa5096507ab3cbacbd623ae1c26b25b3c1837620b5b3c8702305a25c042bbcce9a38e5c00435e9aea7e0c5f04c26e71a20ba4902b81a1abe00e3cecf2e209b7713b5fdbd3cbdb85f326ba12b186649d3ee1c2bdfb66bbe4d18bf52e2e9e427a07ca9d6e6fa9a0a3bfc8234e90fbb09314af3e1518641bcf16a046b6269d5b43a9cdcbe862c88fda4340b9a7f47f071236365544f227df08f996787650df4be3c5a68ff1dab87e3d8f95cf658dbe31eac5d192695857103d1c588500fc89b7ca0a9929f6b3cc6b8f9eb949dd91c369e5d278f4fc55d29337e03ee003ae81477f364670bc7c2809efccc0eb3296f642235eac722b60e4112c48e4387df0780c52a9fcfd55d312ab1e0251fd836933f2f0137a2f7406fb605b27fbb1c2a73f0e93a0c80d4d888723ec18f03e5ed316bed9dabbbdbaec6314e2349da692943caade8cc3c42f61c6665366d0c6db1d531caf37fe15566d2687deb493f4318b3cf9cd345810b3de94348986d20c93f956abd3bbf69d81788becc0f5f8ce41e44e342053394ff5909347847b726db7d7cb2fa235a7930133d468da8d78650126274bb73afd144f797088f1e904a883db52687377ba681c6a5db8ee753c5359b783947b87de59897d252eec4f444bb93d86dbf5477766e71df9aad6ba38eedda6ffe757d4251c04f6ea6019bc0bb075ea1eb9d562f3b321969905321f9aa9f67656d7fe10b0168df6b77203314160efa80f6d680928d648be6e94a5a17bb32059e7a1a5c1a239c0bb80362aaf5274b97467dfa0fa127743e98e17fd8bac2a584ef9af003d6dc46e94fa8d8a80fb909ea63ab75f947c7acd2da16508d022310eab156e8d243212fd7563dfb0ad2503cbaa8cfdac237b8708335608f2cf226c98cf89a0d4554a63c7a2f3a1c73a43509f65fbe3d9f9b5b7e189717de658e1e355fa24caa2ae30bc7024b5a6f391373288876807d27a7885eaf8f207fec38f5a656348d23dbb8f149708f81d397624915d4b432ea133de6019d902c342e6ee473ba78e50f5763dc0b9ef35eca34a047cf26d5d7c810c0e12cb37b1049ea24fdb7976f5cf228776581c308bc64790fda7923b6fc8637481529a797edda379ff4150dfa320efa973027580216bca8431e70a93c863e88274b57315bef68dbf3b7983e5500c2b62370a52dfe6aa53ca978380d7e2ea51f5e9477bf4b2e6ad65ab8a85c3eb1ca70c04212b6be126e525f33fe03b26d0eadf79900e27773a50b246395516fc6493af12c74227ccd052e9aa56f4d24766a8205f81eecd84d7405a48faefe21d8aefca10dc021185ffe7e1ca26c6e8b3b7dd7ec0fb27468e8bde2b44e93c13c9641fe97260ff7caada3023ff8d270705904516eb11379010208f08b013dbdd34704accff850962e92c16edee585d94e7212ce92e4c9213beb15577d77ad98f05083163be9108b46618243de0517153d458a2ba48f5485c921bbbbb2a335029b6201d2f12f27f264afb8256850f4d8e74aa01fb8f23bbe5df776fcdae830e1d1e16c71636c2ed1e3acbe617e3701425ca185c4540d0e765383cfd34a0a8b498c423395015b7d998aae052ce9e302e3ca3d807658aab59308ea667ace6cfc07a4b8ab0c879b5cfae4609005cf5825bcd508246e3ba5a9c5499994e181a7c1af73f152887969a582ff5d11dcdb28d3cb0c421dc1931d5af323c48400b0a36b42fc9dde2530be75d0afeafbea65e42b2e9d3104052fd122b20e0a45b053b3478bcda1a174d24f6eb525a10fed318070cfcc1c7ff350aa2f42d7c3a1ce7513bf39c3404ebfd58fba97ac05959c28ad76cb7b51fb3858015f8e45e0cc7cb356ca6af196cbcf0707cd5676e277029c193f197b9895d0f32432d366c7d41cc4bd9afa60038f5363825c1f5d900aa47eaf29451166f762df9f94fdeba8a39b87d1cc98f985aaaec2ad2a23245dd5d1b4f3984938c13e4b539efe50d337b1ca74f1e70f617f6c574d74342f07fc45986fb90364314e7a9e5488a0b9404ac42d28de5e03bfeefb7370b7fd9d3bffbc9430300fa268708a93f01d1ba5bdeae18651ff4c14ed1f0e93f1cf5ddd063e8de017e502c9459ddb704a7abfa087e9cd28904ba5ce8ca73a5c85b282b3e8f41b92a9036f856b41587a8c36c0aa2af87114b07e1dde305542f695dd1a27c2637207f9ac600a20fcdd0c7af1500bc606b6f43612c1c72bd2790fa7ef3972444a7294c305290cd595c45474063fb3fc21458ed3de30ba3b6a7e7f513ae0d7c84e4d0808b79ddcc2e2ceb1f87f26f20211bb66ce0e2e9538702a09f58ebbffef711a85fe0635df23c3f5b3e8cf8f31bfefdb64e976c5f641d3578539d0e43aaa8280acc7f3f0484b1b76cc0fc32e11e3faaf4da4f44523da1c4c559905b16d747077719ec49945c8b838e96341296d7eedaddc6c33d53dbd7c95b20cb9f9e012a62c15ab2b7e3896dba968158688d2e4e09c7328a30e58f392c0252d7ef5e62dfde3c39a16ebba6834f323f588a6d6747f4bf4498575ea3a8c649f54bcc271b3d2e409d02e9407679c668dfc9951bd228152747698a989db2d9f4ff080e2f424a6a7788a0b6b9d2e1e7ecf8fc111a2a2b3a7584888a999bc7cbd0dfe5f1f7f8fb0b202a383e404a5b787b9aaaabb2bdc1c8c9ced6f0f5000000000000000000000b1c304601",
        "00c479236acdd0448409b551221b8026dd139f8fb12b5f5a8604573a61486cee0cc9cd7746cab44698c3d92df2f0f4f6b3de7920ebc0dde7a3aa54afce759abea2558ee8d73a9e2291299e3ca6363743423f0069676d6a6b0bbec58779b5b6783570a8bdd9b3587ef8830166d4cd2810c9a1ab052827adefde3be597bf03b85159764e172187af366fb5161d99d463d417f93dade6178c009a86f86805d2e057dcdc566d64077e9459e66cc9f2e0cc82f1511e722c45203dd6fc496d50c4264a372e688eea39533d3ba8fb8c8c6abd5aa12c8b5a86ede6399d265860b4b95d8fb5d4e22895ffda856d403909dcb78a3cd8464593870a30783ef1bfd03cf80b430125529075f6b39e7258d59d6b9c7c3fde14eccb1b3611d81884aa107169aab6aee337383437ad0c0e0b1bb3f27e2188cbe5dad751c75b117dbe8ddd07d4d5cbd6f56d96e177ddfbef57c966846344e6315ea88999a580c587047eeda01302d25b16e0fc8d409fbab18fb60d6c586c9a5264d362d46f556f97201d14cfc259fed3989886df7c24a5e36d84267448714135080e171572264054d07215acaa71396c3bd5b39fd572815d1ec94abf9eca791f27d31cd7aacacaccf83d7c7da1893588c519e9a7ea9bce89a6e5b40a53dc13effcd4ab972c8bcdb3a21094861ea28244a9c8f0b9ad534da48e4ec6a8f4e7ead9b075e41d606731490c3d9c33e48d0c89da1a4d5960e52161d291e5222421a3fdc530ebaaed9623a01d25c589afa254228ca5c2bf86b5506e95d938b9b2e85ca96b5c63e1903227ae69220d2088904367f957391f9a01d2ca3aa55c0673ffe9a23e3c0a6203e978108b38231abaf54615e7b07cb8482eacbeffca718acff1b5c65fc084c722fabd040fdd0d1eb770e2ffbb0f591e80cb0ab3c818ae7babe04e64ed7c89635516d72bc8f29c35b75c04228b9a5c597c4615f89b65e9eee8eb3fd40ce222d200a345230045e6b91bb0ffb1483e2db361510cb9b5cc4e7dba0dcfbe7faea18ad3138aeb0ee2f7117d16495e458770131050b87469da5b85ec48f11514cd2def1c15d003a48a4a481f3e615194e1c8a518a65164e5d7668cfd82fcd5f8157a5e679e089e5a721f33b21a285f907cd4710e75f0f57b27dffa70e2322345d67299514589c70cefb180b23098001342ec8b0609df04b7ede1fcc68d4b7941cec0810b82962f7050328fb9fddf4307a250dc2c1cef0abd2a1dcda8a5b272e31793c31044a21389d6d48cd25ca8faf2c02f1060ea51b2f7c65ce052c1b36d414db46068427d0816029bd32156a4ca3cd802fd1c6afaa8a85bf34eff9dd5742a72975a5a132229eb1145b8cf81dcfa01c598d34f6b9670a2f32a4fe53cec421d1ddae96d358b89e63bd5c022f1e145339bd0ee0f5fb7ea35cb0ca61efa2c98b9d9580f083e267b90568db13a7ba521fb40d6f4e174bf513301bf4fb029e493d87f89ca7bb1a737f529ea116315b3754a4fa73b8b5398ad931bf1538e6b4324c443579ef6c967f6dc44bb6e12223b16b4cb5dc72c9e4ca5f059c626e2828818dbadc764c3ab07562352acc97a92d14aacef455b033f0c431aee107effdbf4bb533245368c1a078b8b1f6195746102a470fa29f9271594f0066571a09f09d70982f8db6e767a1dbf3881d8fa17c29346d11ac98842a5523b09cde3716135dc0fe62720436f147658752513dbc29c4af09e92b752ec59c681c2f36a2a41d4120e8d5b2d73b1d58cfbb0de5cf4d1ae53a3f61d8a7db04d048adb7f88dc2c808d357348e1aea4ae73bdd455884a88bdd13464b271f0b9ef2bc300a7963f6c905102a5af767f6c1f3ee8b32ea1554e4f22a8"
      ],
      "sequence": 4294967294
    }
  ],
  "vout": [
    {
      "value": 499961.3578,
      "n": 0,
      "scriptPubKey": {
        "asm": "1 48d8d2e80aed665675ccb5fc88172ef49e2436af3a38285b654e5a913a8ebb90",
        "hex": "512048d8d2e80aed665675ccb5fc88172ef49e2436af3a38285b654e5a913a8ebb90",
        "reqSigs": 1,
        "type": "witness_v1_scripthash",
        "addresses": [
          "3QJmnh"
        ]
      }
    },
    {
      "value": 1.0,
      "n": 1,
      "scriptPubKey": {
        "asm": "OP_RETURN cef95110312b35f74b24758863c8c1cbc2b80af23bc2a594f70b68cea072c028 289fba3bd20c3b9ad496eb9c544ca87756ded366ec83ca44dda88ebcd89fa8b208bf9a1bf22c1bbaf4b6cbbc746c885776fef346cca3ea64fd88ae9cf8bf889268dffa7b924c7bda94d6abdc140ce837169e9326acc38a049de8cefc98dfe8f248ffda5bb26c5bfab4f68bfc342cc81736beb3068ce3aa24bdc8eedcb8ffc8d2a81f3abb528cbb1a54166b1cd4cc28f7d65e53e66c034ac45d280e3c581f2832883f1a9b72ac9b3a74364b3cf4ec08d7f67e73c64c236ae47d082e1c783f0812e85f7afb12ccfb5a14562b5c948c68b7961e13a62c430a841d684e7c185f6872c87f5adb32ecdb7a34760b7cb4ac4897b63e33860c632aa43d486e5c387f4852289fba3bd20c3b9ad496eb9c544ca87756ded366ec83ca44dda88ebcd89fa8b208bf9a1bf22c1bbaf4b6cbbc746c885776fef346cca3ea64fd88ae9cf8bf889268dffa7b924c7bda94d6abdc140ce837169e9326acc38a049de8cefc98dfe8f248ffda5bb26c5bfab4f68bfc342cc81736beb3068ce3aa24bdc8eedcb8ffc8d2a81f3abb528cbb1a54166b1cd4cc28f7d65e53e66c034ac45d280e3c581f2832883f1a9b72ac9b3a74364b3cf4ec08d7f67e73c64c236ae47d082e1c783f0812e85f7afb12ccfb5a14562b5c948c68b7961e13a62c430a841d684e7c185f6872c87f5adb32ecdb7a34760b7cb4ac4897b63e33860c632aa43d486e5c387f4852289fba3bd20c3b9ad496eb9c544ca87756ded366ec83ca44dda88ebcd89fa8b208bf9a1bf22c1bbaf4b6cbbc746c885776fef346cca3ea64fd88ae9cf8bf889268dffa7b924c7bda94d6abdc140ce837169e9326acc38a049de8cefc98dfe8f248ffda5bb26c5bfab4f68bfc342cc81736beb3068ce3aa24bdc8eedcb8ffc8d2a81f3abb528cbb1a54166b1cd4cc28f7d65e53e66c034ac45d280e3c581f2832883f1a9b72ac9b3a74364b3cf4ec08d7f67e73c64c236ae47d082e1c783f0812e85f7afb12ccfb5a14562b5c948c68b7961e13a62c430a841d684e7c185f6872c87f5adb32ecdb7a34760b7cb4ac4897b63e33860c632aa43d486e5c387f4852289fba3bd20c3b9ad496eb9c544ca87756ded366ec83ca44dda88ebcd89fa8b208bf9a1bf22c1bbaf4b6cbbc746c885776fef346cca3ea64fd88ae9cf8bf889268dffa7b924c7bda94d6abdc140ce837169e9326acc38a049de8cefc98dfe8f248ffda5bb26c5bfab4f68bfc342cc81736beb3068ce3aa24bdc8eedcb8ffc8d2a81f3abb528cbb1a54166b1cd4cc28f7d65e53e66c034ac45d280e3c581f2832883f1a9b72ac9b3a74364b3cf4ec08d7f67e73c64c236ae47d082e1c783f0812e85f7afb12ccfb5a14562b5c948c68b7961e13a62c430a841d684e7c185f6872c87f5adb32ecdb7a34760b7cb4ac4897b63e33860c632aa43d486e5c387f4852289fba3bd20c3b9ad496eb9c544ca87756ded366ec83ca44dda88ebcd89fa8b208bf9a1bf22c1bbaf4b6cbbc746c885776fef346cca3ea64fd88ae9cf8bf889268dffa7b924c7bda94d6abdc140ce837169e9326acc38a049de8cefc98dfe8f248ffda5bb26c5bfab4f68bfc342cc81736beb3068ce3aa24bdc8eedcb8ffc8d2a81f3abb528cbb1a54166b1cd4cc28f785afb1f9f5da47dbeca615852624701e5d7a7888c821785d3b693960ad90dc08",
        "hex": "6a20cef95110312b35f74b24758863c8c1cbc2b80af23bc2a594f70b68cea072c0284db004289fba3bd20c3b9ad496eb9c544ca87756ded366ec83ca44dda88ebcd89fa8b208bf9a1bf22c1bbaf4b6cbbc746c885776fef346cca3ea64fd88ae9cf8bf889268dffa7b924c7bda94d6abdc140ce837169e9326acc38a049de8cefc98dfe8f248ffda5bb26c5bfab4f68bfc342cc81736beb3068ce3aa24bdc8eedcb8ffc8d2a81f3abb528cbb1a54166b1cd4cc28f7d65e53e66c034ac45d280e3c581f2832883f1a9b72ac9b3a74364b3cf4ec08d7f67e73c64c236ae47d082e1c783f0812e85f7afb12ccfb5a14562b5c948c68b7961e13a62c430a841d684e7c185f6872c87f5adb32ecdb7a34760b7cb4ac4897b63e33860c632aa43d486e5c387f4852289fba3bd20c3b9ad496eb9c544ca87756ded366ec83ca44dda88ebcd89fa8b208bf9a1bf22c1bbaf4b6cbbc746c885776fef346cca3ea64fd88ae9cf8bf889268dffa7b924c7bda94d6abdc140ce837169e9326acc38a049de8cefc98dfe8f248ffda5bb26c5bfab4f68bfc342cc81736beb3068ce3aa24bdc8eedcb8ffc8d2a81f3abb528cbb1a54166b1cd4cc28f7d65e53e66c034ac45d280e3c581f2832883f1a9b72ac9b3a74364b3cf4ec08d7f67e73c64c236ae47d082e1c783f0812e85f7afb12ccfb5a14562b5c948c68b7961e13a62c430a841d684e7c185f6872c87f5adb32ecdb7a34760b7cb4ac4897b63e33860c632aa43d486e5c387f4852289fba3bd20c3b9ad496eb9c544ca87756ded366ec83ca44dda88ebcd89fa8b208bf9a1bf22c1bbaf4b6cbbc746c885776fef346cca3ea64fd88ae9cf8bf889268dffa7b924c7bda94d6abdc140ce837169e9326acc38a049de8cefc98dfe8f248ffda5bb26c5bfab4f68bfc342cc81736beb3068ce3aa24bdc8eedcb8ffc8d2a81f3abb528cbb1a54166b1cd4cc28f7d65e53e66c034ac45d280e3c581f2832883f1a9b72ac9b3a74364b3cf4ec08d7f67e73c64c236ae47d082e1c783f0812e85f7afb12ccfb5a14562b5c948c68b7961e13a62c430a841d684e7c185f6872c87f5adb32ecdb7a34760b7cb4ac4897b63e33860c632aa43d486e5c387f4852289fba3bd20c3b9ad496eb9c544ca87756ded366ec83ca44dda88ebcd89fa8b208bf9a1bf22c1bbaf4b6cbbc746c885776fef346cca3ea64fd88ae9cf8bf889268dffa7b924c7bda94d6abdc140ce837169e9326acc38a049de8cefc98dfe8f248ffda5bb26c5bfab4f68bfc342cc81736beb3068ce3aa24bdc8eedcb8ffc8d2a81f3abb528cbb1a54166b1cd4cc28f7d65e53e66c034ac45d280e3c581f2832883f1a9b72ac9b3a74364b3cf4ec08d7f67e73c64c236ae47d082e1c783f0812e85f7afb12ccfb5a14562b5c948c68b7961e13a62c430a841d684e7c185f6872c87f5adb32ecdb7a34760b7cb4ac4897b63e33860c632aa43d486e5c387f4852289fba3bd20c3b9ad496eb9c544ca87756ded366ec83ca44dda88ebcd89fa8b208bf9a1bf22c1bbaf4b6cbbc746c885776fef346cca3ea64fd88ae9cf8bf889268dffa7b924c7bda94d6abdc140ce837169e9326acc38a049de8cefc98dfe8f248ffda5bb26c5bfab4f68bfc342cc81736beb3068ce3aa24bdc8eedcb8ffc8d2a81f3abb528cbb1a54166b1cd4cc28f785afb1f9f5da47dbeca615852624701e5d7a7888c821785d3b693960ad90dc08",
        "type": "nulldata"
      }
    }
  ],
  "blockhash": "c0ea0e6b16ad20f35d4757cbcff39c3d199dbd7e252fa8e6bc9f3f36ee858c22",
  "confirmations": 1,
  "time": 1764183276,
  "blocktime": 1764183276
}