{
  "hex": "0100000000010183bc5b7e89e2cc791eea3f4d38e36715acacc4e2c29cec689a2ff37a746d43810100000000feffffff0200e1f50500000000fdd5046a20136d4fa7bc433564cc3c98b8e68e7f2e3000ff7d925c8c6fe9e4575396f584764db004d7c63c7d77894deb79b8b69234b045329e42cc20cd1a687922c2d5ea7b356281f7e61c5d57a96dcb599896b214906512be62ec00ed3a485902e2f5ca5b1542a197867c3d37c90dab39f8f6d274f00572de028c608d5a2839628295aa3b7522c1b7a65c1d17e92d8b19d8d6f254d02552fe22ac40ad7a081942a2b58a1b5502e15746bcfdf709cd6bf9383612b430c5b21ec24ca04d9ae8f9a242556afbb5e20177669cddd729ed4bd91816329410e5923ee26c806dbac8d98262754adb95c2211706fcbdb7498d2bb9787652f47085f25e820ce00ddaa8b9e202152abbf5a2413726dc9d9769ad0b99585672d450a5d27ea22cc02dfa8899c222350a9bd58261d7c63c7d77894deb79b8b69234b045329e42cc20cd1a687922c2d5ea7b356281f7e61c5d57a96dcb599896b214906512be62ec00ed3a485902e2f5ca5b1542a197867c3d37c90dab39f8f6d274f00572de028c608d5a2839628295aa3b7522c1b7a65c1d17e92d8b19d8d6f254d02552fe22ac40ad7a081942a2b58a1b5502e15746bcfdf709cd6bf9383612b430c5b21ec24ca04d9ae8f9a242556afbb5e20177669cddd729ed4bd91816329410e5923ee26c806dbac8d98262754adb95c2211706fcbdb7498d2bb9787652f47085f25e820ce00ddaa8b9e202152abbf5a2413726dc9d9769ad0b99585672d450a5d27ea22cc02dfa8899c222350a9bd58261d7c63c7d77894deb79b8b69234b045329e42cc20cd1a687922c2d5ea7b356281f7e61c5d57a96dcb599896b214906512be62ec00ed3a485902e2f5ca5b1542a197867c3d37c90dab39f8f6d274f00572de028c608d5a2839628295aa3b7522c1b7a65c1d17e92d8b19d8d6f254d02552fe22ac40ad7a081942a2b58a1b5502e15746bcfdf709cd6bf9383612b430c5b21ec24ca04d9ae8f9a242556afbb5e20177669cddd729ed4bd91816329410e5923ee26c806dbac8d98262754adb95c2211706fcbdb7498d2bb9787652f47085f25e820ce00ddaa8b9e202152abbf5a2413726dc9d9769ad0b99585672d450a5d27ea22cc02dfa8899c222350a9bd58261d7c63c7d77894deb79b8b69234b045329e42cc20cd1a687922c2d5ea7b356281f7e61c5d57a96dcb599896b214906512be62ec00ed3a485902e2f5ca5b1542a197867c3d37c90dab39f8f6d274f00572de028c608d5a2839628295aa3b7522c1b7a65c1d17e92d8b19d8d6f254d02552fe22ac40ad7a081942a2b58a1b5502e15746bcfdf709cd6bf9383612b430c5b21ec24ca04d9ae8f9a242556afbb5e20177669cddd729ed4bd91816329410e5923ee26c806dbac8d98262754adb95c2211706fcbdb7498d2bb9787652f47085f25e820ce00ddaa8b9e202152abbf5a2413726dc9d9769ad0b99585672d450a5d27ea22cc02dfa8899c222350a9bd58261d7c63c7d77894deb79b8b69234b045329e42cc20cd1a687922c2d5ea7b356281f7e61c5d57a96dcb599896b214906512be62ec00ed3a485902e2f5ca5b1542a197867c3d37c90dab39f8f6d274f00572de028c608d5a2839628295aa3b7522c1b7a65c1d17e92d8b19d8d6f254d02552fe22ac40ad7a081942a2b58a1b5502e15746bcfdf709cd6bf9383612b430c5b25f7b710e7d08593f5b5a4bb6b6a18b25527a7327f0478a890023df3c64e85eac4021813f792d0000225120ad79481ccbea9be3d1878cf6d3333a40986f5a00df12e38728690667dc23c97d02fd750975e52e322f0a8395993fa9484bd056bfe2c451d618ea983c38290d653ed45c83b854ed218da150540de34023ee66c55e87677081b6ea4e8e2c86ccc70d5008f870ae94c12102480ece68668c3330e78837ef5b7cea997434062edea9e07c173c529534d24879f2c6d7af44a8c7205d33fd044b86e866c71b38bf5480bfcc39bfd2b0612bb000057b901cbe0996fed69d7f7b457dc331e92224865c4e20061c7819dfc5fa5ad94fce4e4ea6f775a773a6a158349e91628dc4fc66adac116b7c55d95b76b200b5bcc10cd5efe84f46c3cf434426e5e73dee09548a53dc346d17790c944209756fd494ade0759268cbeef3ff7204efb7554bbbbd4464004c0ecc942d0e227fcf3932229c7cd5639e3de369d90bce45a9343e270791e605ee597ddf2315c6e0d88ecc7abc7089590c7bf7b1ee4202fe405e6548784aba66e9bff0db229bc982801d0ed42aa66ceb0d3ce4a68b26466b43e0c86cbee923058e09f5d727a5c1af6ee4f82a881819f85df242020338afe0256b00e6da6abf8dfa4d433df8194f4c2f8d281355db33d6f29fe6254439a2916427f4ce1f222d9216cd252aced94dbc77284bb2c2026b7c9b94d85c3c761a06445cde2da9e155ae8168c39ecad3a0bd4428fa838c69c6a4990c08ae6ed1096752ee4050fab897a2bc6f486ff4b17749446a18a2a87a253d20487aa3dff666441645ae9456fc6a45a5049589555040eb04f70b2dda723a44c60e4dd87445c9eda1103fa405b53a1a8dcf81cc5ab492de5ec93bf935cdb5832398f153e4ebed37a516501ba4f09b765c531c552ea2b4069d2a5e3a544f8b5a391d2169ee7983aaed4a8bbb1b72da3df834cf7a81f7334ca6c79bf174b3a5e56deb2df7af5e8876cf4f2bc8e0b76778c9717069b260edc5464549cc27d7915506f30342a120bc8498ea21606f9e760085b8229dc7888618b7970ac9db6c8e318445f511843e3744784c62cf0d013f16c5e728baf9a62b367142cee8cb7868702f6da1cc9bfa4d44cbdac3d7fcdb747f963e0b0643b8ae983a61dd9048a51728ce95798eae332ae460c06ce9ec0c7ad5cee9eaf213855ee79f09e6cdd2164e148c31c4f58211c7e5affc27f209a1f36b6f0e32780870850beeecfd5e87b48055accb844c4bafd341ba58e5f7a3d7c85a2a7b509426245c2ad419f202bb2e217e6b45fcdd03eba51e7f98e2b667ebef5262f6ba6b22c5d9b84b664be39b89325000b9db043537c17f877ce9436199011768563c63618200dcd738f8564dc544b148c2ebfbd87bf68b7accedb805fe1f9192c190fe7c6b7bb89cf64ff5722623e67a674c48a9a246d7e7a0a43b783e5f3e5716d4c531ac79a115ab8c343087979a1bfda8d8dc974f64ec8a02bd5fa63a589c05c30b6650cd6a8232e3cbe32bdf5961f2cce5d8faf4bc3d372491612fde54e0c5e05c1c06d153dcfc72204e08d7e7865fd42aaf393dc1f6a6d4a97a95bb3235d72c92bb7e12f23740a69bb9f8b316ad7ec839a8a1af674ee0fb624b8ace019276abb1a45868705b77744fd2e1cc998edd424a9245e1555a05c127e03226ac1dc356382cfde3e6b88d2dee39c3a93e813582bde381c1735d1065572eec5a41fddd0639e40bd7ab97b356d7edaffecd28250f28f69dd93394133471c6b3986ba04eb974f9dff1cbd1dbb66e405ec2d782b56e6f864e39db0810dc6384495cc683ad97b15b7a68e51ad06784bfdd31a46dc388e50a4e82f040cd8e1f3e870bb2e38d203ec095cc4adcf46d0253c5d72e794ef9aa9d7daaa740875b37fcb194869fc5a0f2705977ce1d8172e84846cf49872f3a21527451d6fc9bf4a6e1a97f7eb0084a96bf456e4c48c0a03b304bf4219069c4ff9078d77d5d156c8af7aa11c978f40d86c9ea1afb2519a83700356f881648677e3ee31e7ebb83a8acb45b9cab35d640498752b6888493c993964d2c8c5b657f6b9133cf9ea989048ebd322b5eb8c874660915155db93855cbaf8952cc201c851f24464601c1033dc4011d5a4ad2351cfece1ad10c7ee6737b7e984805844e40618056650a321d382f60a5d77ced5237875a1231297f4a6d9a97da45406f0b494911a2ba5c78215c4be831f3c6130a68716994601284dc403158ec80ceceb57bcac11ca241418b6dbef3336db9dff1d4b41cc867cbf6f0a62478174310e8b2d76033c544134880ba42bd5485fa0272d0b0d3e0be7557a99e40572cf71d6d952054ef4c57c4205758f6b841df476b44b10ad9038dfae942c0a228b99a7e333386adfd2bf569b258fe00088615d07d53aa599bf2d4e113df8b360f92742b0bfd28ba2dfe40ce516c2f9b81e0b8654e2671e3371b08f6cbfafba32970eaefd94c9e3865b5a2197aaed8e3c2ccf349fd29bb4104b3de8b938155493c39f324811e70beb33fa3f5e782415d7f35981123dcb12d64e23e30b810da46757a432e7d75f133195e6a1915aac0a1b8147e7816aeea8c6c4f5ac63bcf29d1e1acb15fbb2612ee2bb406d3a569bb56832171b8e45cd437ab82fa675ffaf849c12d986269eb516a9cca198d24c1150d7ab472a87db9655854f05e57d87985d5c4a7dc8882d1966c273b26a27faf8183d02ad3af623eef65244ce5dcd412559456fa424ebb13342fa989c20e095c3d78d1ec13ffde95f2db8ae531809b0a32b61ca558bcdfaa692e2c2db903a9424c225edeaa2b23312775c129929deffdedad932aaae24e83309b6fef3c184c1fae24c6326d0510eb56bd3421d3be52d83c4cb6c816b75a944249c64a37a59d85dfbbc91440fea394fc3795360733e9fdc08b730d1b29f5e8109c83547a936a574707e46d467d6465ab4318846cdb401e870678de2c766840fb1c387f926597acb772f374c00d470c9b2c646c1b86ce5e40f866611056c17b5544c69ca17f360a7c0ec5f2981072ba253e66a18ddf628e0dcd83e88b9cdde928d3191b39489fc6969f8e2540ff5778189e35906ae06f761464c211b2c775217290e276ff5ff8d6be58fecd00a50c2a793a0ef1ec432a9dec7036e02967ef498a163eaa17fb00ee3212b91c5fe13bb9366bb407c904613a5d3c3070b0b7d8161cdcf562d39f5a1f6e6ea7dc995fdb3ee839da458f558e6fbab87196ede322d88a7ed478ce5f41c5d46dc2a85c61d6e1293ff7f6ad27aa17a79b0a829a8e7c81e2e3276d2d564481c2a4688d1a6eba97cdc0ee8215dee91157848427032122e0611c0c07bd86c8cb29a5b10697679ab15a79c3cd0aedb669a27a534b5d4d7e70c3c4fb0efc71c4c0a6ab9b1cddd253c36e4700040d485259677077808a9091a5adbfc4c8cdd5e1f3f91e20316267a1c0c3c9ccddf2f63275789dabc2fa0d0e14191d2d3d486c6f748487afbdc4c9d5d9e8ea0000000000000000000000000000000017242b4001fd21050017234a7ae2192ae1c16628f15826245c6240796612228d0f1444adc31bcf4607f4c38ed77e1bf39d9660beccff89f43d0cfaa32bb0790613629f0f5602f231dd136206e1a6ba00decb4cf1830a0157b71eff673d71b74aa67de3afbf9e9100b90e8f825fae5db572c60356655e22eb5bb84f1cbb2f10b1b0d0e43781ec1c83b7d857ad7d147a3370ee674c06c0441b41f752c5b6a860703defc6732336082730d3c78fe4f4b1e0cd4178ffa28b1341c8497a59f9e45d55839d7f93ab2239d4ef59b62729ea15a744d24c14bffd39cba659eaa365d1f45de7c21c6afe64e2f43765420278251787f3d39dd34571d93df5de4012b5e714d1bf1c58e224d2441ba1e457c16f286b353012f09522a18b2bae81325e479a9434e9a41be9988be0566c29afb18a891e60c7adbbbf5b7fe22c12a3a8aca4254d2b510c3dd1d216224b1e613d7ad78680494f4cfa706b72b926e3288987f9c2ccf2d921e97acc55fee50b91f21feeb95f11671b7b084e78db4ad27c8826464985ff656da3d73cea084d4c28905a0f78fe8a1326757e1ef90f805510b5b2d0179903e33a59f872492ce96c80eb39393bcd1a364cde93d078a4795166f09c6d6d4a925dac10e80aca040ecf3e6385c1dc26a0e2e5deba3eda122a536f88bd12c5d108efbba321603fb07a3baa6a161d817d3307d89a572057c786cc8581a1e24c75bcb91e73771ae58edee29839a45a7fcf306bfe5e7bba3fdf294208ce5a37685e286175703ebe8a1d6ff5464253b04cfcb5cb9b71afeb66abfeed6e05ce36168998ddeca89277a3611d6113d5a16d6f4bca6a8733df3c9e277e76869154cb0972e159550621f063d2b115a442a0cc768293b20d80005bd73d0f17042a17172e4b850744be06c2b31e454ea49d2d94ef052b425c84fdec6b6c8748e789dac422567ba92c08d86a4bcd2cfaed035d6f07ba69d89697feea50ca2cdc18a33abc676c5b7c1ce7589c1efc31ba4e1df83cdb6fe35a7bb2bb2fd8f9222c3c95b7a2e56e822c0dbf8b0ad0c8d5a6c7ea6462d459b2fe4d27ed45efa6be9cdce687fb6423705e8323c7db52f920ccc7b26b429b19647747308c53bb34f59567bd597457e8139a01749d111406dd78501a369b097f39b0c543303b93ec19610de6cd539f775c8b2d4f399c20d6ce9e3a7bf87e1f15ab4ffd1cc743d6ccaba56bd5d28b1a52403d056f37d902179a1c06cbaa5fad8cf161a1cf4850ec0f55e951e2247d5c42c316e266f5d23697602958832033e6d346225dd76dbadd823642d09d9c445c08dfc8890801a2b5152987b067310a647a8a71da5d0acdaf498cab93d78b8cef78c64dbff3df4a0c026902525de0d1801acae314ac178c076c3f8dfe6006b072d11dde7deac305e554de5603293c3a52ced4936946bcdda1f3a61192b32d7582cacf33ac5ebefdbb3ac09f71f7961b50cbf2f4ec19512fdb4e16accef93d1dc554ed62d24dc3e8b04f9cb2f6f0e2bf0ce7b887e2031fb6f486a85cd5cd9083a8702be3ff2a7d02c5fc577dbd386807482596c785f90dd95bd3c42851f694856ed799a0882438c1d334b86be565e66622aaf4ac742da6f3e5ea0480127cedb7838748858db0c05829060fa09305e88c783226b7dce351cd4420e103ed470acb2d7e1adc2992d22899f2c926d8d734491e30211ce06b53cdcc1fb5857793695ddc40cbfe0671763ae5bccff19595a8a837d6d3c71b593c7cfe54a0c7bb3bd87842f93269ec6e93d3e20831352b3649b47640f0173e6164215c1d2ca103c7499d9df797938b46177782d4b5a4794fb82e2ac4bba73af83a8604896e67a06fc1996dc8ac059d200f53738b067a6e000000",
  "txid": "60cc3dbdef556cf18b9deba446ece60548cad58353f9a010351c97925b825c08",
  "hash": "55bc83271192ce1e1c6f0c2b809566862acbd5ae4439c01bd8821cd087d81799",
  "size": 5085,
  "vsize": 2278,
  "version": 1,
  "locktime": 110,
  "vin": [
    {
      "txid": "81436d747af32f9a68ec9cc2e2c4acac1567e3384d3fea1e79cce2897e5bbc83",
      "vout": 1,
      "scriptSig": {
        "asm": "",
        "hex": ""
      },
      "txinwitness": [
        "75e52e322f0a8395993fa9484bd056bfe2c451d618ea983c38290d653ed45c83b854ed218da150540de34023ee66c55e87677081b6ea4e8e2c86ccc70d5008f870ae94c12102480ece68668c3330e78837ef5b7cea997434062edea9e07c173c529534d24879f2c6d7af44a8c7205d33fd044b86e866c71b38bf5480bfcc39bfd2b0612bb000057b901cbe0996fed69d7f7b457dc331e92224865c4e20061c7819dfc5fa5ad94fce4e4ea6f775a773a6a158349e91628dc4fc66adac116b7c55d95b76b200b5bcc10cd5efe84f46c3cf434426e5e73dee09548a53dc346d17790c944209756fd494ade0759268cbeef3ff7204efb7554bbbbd4464004c0ecc942d0e227fcf3932229c7cd5639e3de369d90bce45a9343e270791e605ee597ddf2315c6e0d88ecc7abc7089590c7bf7b1ee4202fe405e6548784aba66e9bff0db229bc982801d0ed42aa66ceb0d3ce4a68b26466b43e0c86cbee923058e09f5d727a5c1af6ee4f82a881819f85df242020338afe0256b00e6da6abf8dfa4d433df8194f4c2f8d281355db33d6f29fe6254439a2916427f4ce1f222d9216cd252aced94dbc77284bb2c2026b7c9b94d85c3c761a06445cde2da9e155ae8168c39ecad3a0bd4428fa838c69c6a4990c08ae6ed1096752ee4050fab897a2bc6f486ff4b17749446a18a2a87a253d20487aa3dff666441645ae9456fc6a45a5049589555040eb04f70b2dda723a44c60e4dd87445c9eda1103fa405b53a1a8dcf81cc5ab492de5ec93bf935cdb5832398f153e4ebed37a516501ba4f09b765c531c552ea2b4069d2a5e3a544f8b5a391d2169ee7983aaed4a8bbb1b72da3df834cf7a81f7334ca6c79bf174b3a5e56deb2df7af5e8876cf4f2bc8e0b76778c9717069b260edc5464549cc27d7915506f30342a120bc8498ea21606f9e760085b8229dc7888618b7970ac9db6c8e318445f511843e3744784c62cf0d013f16c5e728baf9a62b367142cee8cb7868702f6da1cc9bfa4d44cbdac3d7fcdb747f963e0b0643b8ae983a61dd9048a51728ce95798eae332ae460c06ce9ec0c7ad5cee9eaf213855ee79f09e6cdd2164e148c31c4f58211c7e5affc27f209a1f36b6f0e32780870850beeecfd5e87b48055accb844c4bafd341ba58e5f7a3d7c85a2a7b509426245c2ad419f202bb2e217e6b45fcdd03eba51e7f98e2b667ebef5262f6ba6b22c5d9b84b664be39b89325000b9db043537c17f877ce9436199011768563c63618200dcd738f8564dc544b148c2ebfbd87bf68b7accedb805fe1f9192c190fe7c6b7bb89cf64ff5722623e67a674c48a9a246d7e7a0a43b783e5f3e5716d4c531ac79a115ab8c343087979a1bfda8d8dc974f64ec8a02bd5fa63a589c05c30b6650cd6a8232e3cbe32bdf5961f2cce5d8faf4bc3d372491612fde54e0c5e05c1c06d153dcfc72204e08d7e7865fd42aaf393dc1f6a6d4a97a95bb3235d72c92bb7e12f23740a69bb9f8b316ad7ec839a8a1af674ee0fb624b8ace019276abb1a45868705b77744fd2e1cc998edd424a9245e1555a05c127e03226ac1dc356382cfde3e6b88d2dee39c3a93e813582bde381c1735d1065572eec5a41fddd0639e40bd7ab97b356d7edaffecd28250f28f69dd93394133471c6b3986ba04eb974f9dff1cbd1dbb66e405ec2d782b56e6f864e39db0810dc6384495cc683ad97b15b7a68e51ad06784bfdd31a46dc388e50a4e82f040cd8e1f3e870bb2e38d203ec095cc4adcf46d0253c5d72e794ef9aa9d7daaa740875b37fcb194869fc5a0f2705977ce1d8172e84846cf49872f3a21527451d6fc9bf4a6e1a97f7eb0084a96bf456e4c48c0a03b304bf4219069c4ff9078d77d5d156c8af7aa11c978f40d86c9ea1afb2519a83700356f881648677e3ee31e7ebb83a8acb45b9cab35d640498752b6888493c993964d2c8c5b657f6b9133cf9ea989048ebd322b5eb8c874660915155db93855cbaf8952cc201c851f24464601c1033dc4011d5a4ad2351cfece1ad10c7ee6737b7e984805844e40618056650a321d382f60a5d77ced5237875a1231297f4a6d9a97da45406f0b494911a2ba5c78215c4be831f3c6130a68716994601284dc403158ec80ceceb57bcac11ca241418b6dbef3336db9dff1d4b41cc867cbf6f0a62478174310e8b2d76033c544134880ba42bd5485fa0272d0b0d3e0be7557a99e40572cf71d6d952054ef4c57c4205758f6b841df476b44b10ad9038dfae942c0a228b99a7e333386adfd2bf569b258fe00088615d07d53aa599bf2d4e113df8b360f92742b0bfd28ba2dfe40ce516c2f9b81e0b8654e2671e3371b08f6cbfafba32970eaefd94c9e3865b5a2197aaed8e3c2ccf349fd29bb4104b3de8b938155493c39f324811e70beb33fa3f5e782415d7f35981123dcb12d64e23e30b810da46757a432e7d75f133195e6a1915aac0a1b8147e7816aeea8c6c4f5ac63bcf29d1e1acb15fbb2612ee2bb406d3a569bb56832171b8e45cd437ab82fa675ffaf849c12d986269eb516a9cca198d24c1150d7ab472a87db9655854f05e57d87985d5c4a7dc8882d1966c273b26a27faf8183d02ad3af623eef65244ce5dcd412559456fa424ebb13342fa989c20e095c3d78d1ec13ffde95f2db8ae531809b0a32b61ca558bcdfaa692e2c2db903a9424c225edeaa2b23312775c129929deffdedad932aaae24e83309b6fef3c184c1fae24c6326d0510eb56bd3421d3be52d83c4cb6c816b75a944249c64a37a59d85dfbbc91440fea394fc3795360733e9fdc08b730d1b29f5e8109c83547a936a574707e46d467d6465ab4318846cdb401e870678de2c766840fb1c387f926597acb772f374c00d470c9b2c646c1b86ce5e40f866611056c17b5544c69ca17f360a7c0ec5f2981072ba253e66a18ddf628e0dcd83e88b9cdde928d3191b39489fc6969f8e2540ff5778189e35906ae06f761464c211b2c775217290e276ff5ff8d6be58fecd00a50c2a793a0ef1ec432a9dec7036e02967ef498a163eaa17fb00ee3212b91c5fe13bb9366bb407c904613a5d3c3070b0b7d8161cdcf562d39f5a1f6e6ea7dc995fdb3ee839da458f558e6fbab87196ede322d88a7ed478ce5f41c5d46dc2a85c61d6e1293ff7f6ad27aa17a79b0a829a8e7c81e2e3276d2d564481c2a4688d1a6eba97cdc0ee8215dee91157848427032122e0611c0c07bd86c8cb29a5b10697679ab15a79c3cd0aedb669a27a534b5d4d7e70c3c4fb0efc71c4c0a6ab9b1cddd253c36e4700040d485259677077808a9091a5adbfc4c8cdd5e1f3f91e20316267a1c0c3c9ccddf2f63275789dabc2fa0d0e14191d2d3d486c6f748487afbdc4c9d5d9e8ea0000000000000000000000000000000017242b4001",
        "0017234a7ae2192ae1c16628f15826245c6240796612228d0f1444adc31bcf4607f4c38ed77e1bf39d9660beccff89f43d0cfaa32bb0790613629f0f5602f231dd136206e1a6ba00decb4cf1830a0157b71eff673d71b74aa67de3afbf9e9100b90e8f825fae5db572c60356655e22eb5bb84f1cbb2f10b1b0d0e43781ec1c83b7d857ad7d147a3370ee674c06c0441b41f752c5b6a860703defc6732336082730d3c78fe4f4b1e0cd4178ffa28b1341c8497a59f9e45d55839d7f93ab2239d4ef59b62729ea15a744d24c14bffd39cba659eaa365d1f45de7c21c6afe64e2f43765420278251787f3d39dd34571d93df5de4012b5e714d1bf1c58e224d2441ba1e457c16f286b353012f09522a18b2bae81325e479a9434e9a41be9988be0566c29afb18a891e60c7adbbbf5b7fe22c12a3a8aca4254d2b510c3dd1d216224b1e613d7ad78680494f4cfa706b72b926e3288987f9c2ccf2d921e97acc55fee50b91f21feeb95f11671b7b084e78db4ad27c8826464985ff656da3d73cea084d4c28905a0f78fe8a1326757e1ef90f805510b5b2d0179903e33a59f872492ce96c80eb39393bcd1a364cde93d078a4795166f09c6d6d4a925dac10e80aca040ecf3e6385c1dc26a0e2e5deba3eda122a536f88bd12c5d108efbba321603fb07a3baa6a161d817d3307d89a572057c786cc8581a1e24c75bcb91e73771ae58edee29839a45a7fcf306bfe5e7bba3fdf294208ce5a37685e286175703ebe8a1d6ff5464253b04cfcb5cb9b71afeb66abfeed6e05ce36168998ddeca89277a3611d6113d5a16d6f4bca6a8733df3c9e277e76869154cb0972e159550621f063d2b115a442a0cc768293b20d80005bd73d0f17042a17172e4b850744be06c2b31e454ea49d2d94ef052b425c84fdec6b6c8748e789dac422567ba92c08d86a4bcd2cfaed035d6f07ba69d89697feea50ca2cdc18a33abc676c5b7c1ce7589c1efc31ba4e1df83cdb6fe35a7bb2bb2fd8f9222c3c95b7a2e56e822c0dbf8b0ad0c8d5a6c7ea6462d459b2fe4d27ed45efa6be9cdce687fb6423705e8323c7db52f920ccc7b26b429b19647747308c53bb34f59567bd597457e8139a01749d111406dd78501a369b097f39b0c543303b93ec19610de6cd539f775c8b2d4f399c20d6ce9e3a7bf87e1f15ab4ffd1cc743d6ccaba56bd5d28b1a52403d056f37d902179a1c06cbaa5fad8cf161a1cf4850ec0f55e951e2247d5c42c316e266f5d23697602958832033e6d346225dd76dbadd823642d09d9c445c08dfc8890801a2b5152987b067310a647a8a71da5d0acdaf498cab93d78b8cef78c64dbff3df4a0c026902525de0d1801acae314ac178c076c3f8dfe6006b072d11dde7deac305e554de5603293c3a52ced4936946bcdda1f3a61192b32d7582cacf33ac5ebefdbb3ac09f71f7961b50cbf2f4ec19512fdb4e16accef93d1dc554ed62d24dc3e8b04f9cb2f6f0e2bf0ce7b887e2031fb6f486a85cd5cd9083a8702be3ff2a7d02c5fc577dbd386807482596c785f90dd95bd3c42851f694856ed799a0882438c1d334b86be565e66622aaf4ac742da6f3e5ea0480127cedb7838748858db0c05829060fa09305e88c783226b7dce351cd4420e103ed470acb2d7e1adc2992d22899f2c926d8d734491e30211ce06b53cdcc1fb5857793695ddc40cbfe0671763ae5bccff19595a8a837d6d3c71b593c7cfe54a0c7bb3bd87842f93269ec6e93d3e20831352b3649b47640f0173e6164215c1d2ca103c7499d9df797938b46177782d4b5a4794fb82e2ac4bba73af83a8604896e67a06fc1996dc8ac059d200f53738b067a"
      ],
      "sequence": 4294967294
    }
  ],
  "vout": [
    {
      "value": 1.0,
      "n": 0,
      "scriptPubKey": {
        "asm": "OP_RETURN 136d4fa7bc433564cc3c98b8e68e7f2e3000ff7d925c8c6fe9e4575396f58476 d7c63c7d77894deb79b8b69234b045329e42cc20cd1a687922c2d5ea7b356281f7e61c5d57a96dcb599896b214906512be62ec00ed3a485902e2f5ca5b1542a197867c3d37c90dab39f8f6d274f00572de028c608d5a2839628295aa3b7522c1b7a65c1d17e92d8b19d8d6f254d02552fe22ac40ad7a081942a2b58a1b5502e15746bcfdf709cd6bf9383612b430c5b21ec24ca04d9ae8f9a242556afbb5e20177669cddd729ed4bd91816329410e5923ee26c806dbac8d98262754adb95c2211706fcbdb7498d2bb9787652f47085f25e820ce00ddaa8b9e202152abbf5a2413726dc9d9769ad0b99585672d450a5d27ea22cc02dfa8899c222350a9bd58261d7c63c7d77894deb79b8b69234b045329e42cc20cd1a687922c2d5ea7b356281f7e61c5d57a96dcb599896b214906512be62ec00ed3a485902e2f5ca5b1542a197867c3d37c90dab39f8f6d274f00572de028c608d5a2839628295aa3b7522c1b7a65c1d17e92d8b19d8d6f254d02552fe22ac40ad7a081942a2b58a1b5502e15746bcfdf709cd6bf9383612b430c5b21ec24ca04d9ae8f9a242556afbb5e20177669cddd729ed4bd91816329410e5923ee26c806dbac8d98262754adb95c2211706fcbdb7498d2bb9787652f47085f25e820ce00ddaa8b9e202152abbf5a2413726dc9d9769ad0b99585672d450a5d27ea22cc02dfa8899c222350a9bd58261d7c63c7d77894deb79b8b69234b045329e42cc20cd1a687922c2d5ea7b356281f7e61c5d57a96dcb599896b214906512be62ec00ed3a485902e2f5ca5b1542a197867c3d37c90dab39f8f6d274f00572de028c608d5a2839628295aa3b7522c1b7a65c1d17e92d8b19d8d6f254d02552fe22ac40ad7a081942a2b58a1b5502e15746bcfdf709cd6bf9383612b430c5b21ec24ca04d9ae8f9a242556afbb5e20177669cddd729ed4bd91816329410e5923ee26c806dbac8d98262754adb95c2211706fcbdb7498d2bb9787652f47085f25e820ce00ddaa8b9e202152abbf5a2413726dc9d9769ad0b99585672d450a5d27ea22cc02dfa8899c222350a9bd58261d7c63c7d77894deb79b8b69234b045329e42cc20cd1a687922c2d5ea7b356281f7e61c5d57a96dcb599896b214906512be62ec00ed3a485902e2f5ca5b1542a197867c3d37c90dab39f8f6d274f00572de028c608d5a2839628295aa3b7522c1b7a65c1d17e92d8b19d8d6f254d02552fe22ac40ad7a081942a2b58a1b5502e15746bcfdf709cd6bf9383612b430c5b21ec24ca04d9ae8f9a242556afbb5e20177669cddd729ed4bd91816329410e5923ee26c806dbac8d98262754adb95c2211706fcbdb7498d2bb9787652f47085f25e820ce00ddaa8b9e202152abbf5a2413726dc9d9769ad0b99585672d450a5d27ea22cc02dfa8899c222350a9bd58261d7c63c7d77894deb79b8b69234b045329e42cc20cd1a687922c2d5ea7b356281f7e61c5d57a96dcb599896b214906512be62ec00ed3a485902e2f5ca5b1542a197867c3d37c90dab39f8f6d274f00572de028c608d5a2839628295aa3b7522c1b7a65c1d17e92d8b19d8d6f254d02552fe22ac40ad7a081942a2b58a1b5502e15746bcfdf709cd6bf9383612b430c5b25f7b710e7d08593f5b5a4bb6b6a18b25527a7327f0478a890023df3c64e85eac",
        "hex": "6a20136d4fa7bc433564cc3c98b8e68e7f2e3000ff7d925c8c6fe9e4575396f584764db004d7c63c7d77894deb79b8b69234b045329e42cc20cd1a687922c2d5ea7b356281f7e61c5d57a96dcb599896b214906512be62ec00ed3a485902e2f5ca5b1542a197867c3d37c90dab39f8f6d274f00572de028c608d5a2839628295aa3b7522c1b7a65c1d17e92d8b19d8d6f254d02552fe22ac40ad7a081942a2b58a1b5502e15746bcfdf709cd6bf9383612b430c5b21ec24ca04d9ae8f9a242556afbb5e20177669cddd729ed4bd91816329410e5923ee26c806dbac8d98262754adb95c2211706fcbdb7498d2bb9787652f47085f25e820ce00ddaa8b9e202152abbf5a2413726dc9d9769ad0b99585672d450a5d27ea22cc02dfa8899c222350a9bd58261d7c63c7d77894deb79b8b69234b045329e42cc20cd1a687922c2d5ea7b356281f7e61c5d57a96dcb599896b214906512be62ec00ed3a485902e2f5ca5b1542a197867c3d37c90dab39f8f6d274f00572de028c608d5a2839628295aa3b7522c1b7a65c1d17e92d8b19d8d6f254d02552fe22ac40ad7a081942a2b58a1b5502e15746bcfdf709cd6bf9383612b430c5b21ec24ca04d9ae8f9a242556afbb5e20177669cddd729ed4bd91816329410e5923ee26c806dbac8d98262754adb95c2211706fcbdb7498d2bb9787652f47085f25e820ce00ddaa8b9e202152abbf5a2413726dc9d9769ad0b99585672d450a5d27ea22cc02dfa8899c222350a9bd58261d7c63c7d77894deb79b8b69234b045329e42cc20cd1a687922c2d5ea7b356281f7e61c5d57a96dcb599896b214906512be62ec00ed3a485902e2f5ca5b1542a197867c3d37c90dab39f8f6d274f00572de028c608d5a2839628295aa3b7522c1b7a65c1d17e92d8b19d8d6f254d02552fe22ac40ad7a081942a2b58a1b5502e15746bcfdf709cd6bf9383612b430c5b21ec24ca04d9ae8f9a242556afbb5e20177669cddd729ed4bd91816329410e5923ee26c806dbac8d98262754adb95c2211706fcbdb7498d2bb9787652f47085f25e820ce00ddaa8b9e202152abbf5a2413726dc9d9769ad0b99585672d450a5d27ea22cc02dfa8899c222350a9bd58261d7c63c7d77894deb79b8b69234b045329e42cc20cd1a687922c2d5ea7b356281f7e61c5d57a96dcb599896b214906512be62ec00ed3a485902e2f5ca5b1542a197867c3d37c90dab39f8f6d274f00572de028c608d5a2839628295aa3b7522c1b7a65c1d17e92d8b19d8d6f254d02552fe22ac40ad7a081942a2b58a1b5502e15746bcfdf709cd6bf9383612b430c5b21ec24ca04d9ae8f9a242556afbb5e20177669cddd729ed4bd91816329410e5923ee26c806dbac8d98262754adb95c2211706fcbdb7498d2bb9787652f47085f25e820ce00ddaa8b9e202152abbf5a2413726dc9d9769ad0b99585672d450a5d27ea22cc02dfa8899c222350a9bd58261d7c63c7d77894deb79b8b69234b045329e42cc20cd1a687922c2d5ea7b356281f7e61c5d57a96dcb599896b214906512be62ec00ed3a485902e2f5ca5b1542a197867c3d37c90dab39f8f6d274f00572de028c608d5a2839628295aa3b7522c1b7a65c1d17e92d8b19d8d6f254d02552fe22ac40ad7a081942a2b58a1b5502e15746bcfdf709cd6bf9383612b430c5b25f7b710e7d08593f5b5a4bb6b6a18b25527a7327f0478a890023df3c64e85eac",
        "type": "nulldata"
      }
    },
    {
      "value": 499987.7972,
      "n": 1,
      "scriptPubKey": {
        "asm": "1 ad79481ccbea9be3d1878cf6d3333a40986f5a00df12e38728690667dc23c97d",
        "hex": "5120ad79481ccbea9be3d1878cf6d3333a40986f5a00df12e38728690667dc23c97d",
        "reqSigs": 1,
        "type": "witness_v1_scripthash",
        "addresses": [
          "3QJmnh"
        ]
      }
    }
  ],
  "blockhash": "2622e54cefe9d3081f6ac04e4c67f268d7c1e3313b2268ffede4439aafe1acd1",
  "confirmations": 1,
  "time": 1764177922,
  "blocktime": 1764177922
}