{
  "hex": "01000000000101b927aad6a972c5877954c857378048d20134a7443d52f67cf535ff5245c11d560100000000feffffff0200774227792d000022512095decb24c22c8662996448abe6f6a7a78c8fd6ac7a046e9f7b101c191e4220d300e1f50500000000fdd5046a207a70dd260a9121cef3c2e2f11c5a41c2404e1d2dd9b1d795c17462e685ced73c4db0046709770eb0966ff84360182e39258423e5cc8863ab587c6366db260da4a47be34729572e90b64fd86340380e1905a403c5eca8438b785c4346fb062d84845bc32749374ef0d62fb80320586e7965c463a58cc823eb183c23269b664de4e43ba30769176ed0f60f982300784e5945e44385ace803cb381c0306bb466dc4c41b83e789f78e3016ef78c3e098aeb9a504a3654c08e32bd8fce3e65ba68d2424fb63c7a9d7ae1036cf58e3c0b88e99852483456c28c30bf8dcc3c67b86ad0404db43a7c9b7ce7056af3883a0d8eef9e544e3250c48a36b98bca3a61be6cd6464bb2387e997ee50768f18a380f8ced9c564c3052c68834bb89c83863bc6ed44449b036709770eb0966ff84360182e39258423e5cc8863ab587c6366db260da4a47be34729572e90b64fd86340380e1905a403c5eca8438b785c4346fb062d84845bc32749374ef0d62fb80320586e7965c463a58cc823eb183c23269b664de4e43ba30769176ed0f60f982300784e5945e44385ace803cb381c0306bb466dc4c41b83e789f78e3016ef78c3e098aeb9a504a3654c08e32bd8fce3e65ba68d2424fb63c7a9d7ae1036cf58e3c0b88e99852483456c28c30bf8dcc3c67b86ad0404db43a7c9b7ce7056af3883a0d8eef9e544e3250c48a36b98bca3a61be6cd6464bb2387e997ee50768f18a380f8ced9c564c3052c68834bb89c83863bc6ed44449b036709770eb0966ff84360182e39258423e5cc8863ab587c6366db260da4a47be34729572e90b64fd86340380e1905a403c5eca8438b785c4346fb062d84845bc32749374ef0d62fb80320586e7965c463a58cc823eb183c23269b664de4e43ba30769176ed0f60f982300784e5945e44385ace803cb381c0306bb466dc4c41b83e789f78e3016ef78c3e098aeb9a504a3654c08e32bd8fce3e65ba68d2424fb63c7a9d7ae1036cf58e3c0b88e99852483456c28c30bf8dcc3c67b86ad0404db43a7c9b7ce7056af3883a0d8eef9e544e3250c48a36b98bca3a61be6cd6464bb2387e997ee50768f18a380f8ced9c564c3052c68834bb89c83863bc6ed44449b036709770eb0966ff84360182e39258423e5cc8863ab587c6366db260da4a47be34729572e90b64fd86340380e1905a403c5eca8438b785c4346fb062d84845bc32749374ef0d62fb80320586e7965c463a58cc823eb183c23269b664de4e43ba30769176ed0f60f982300784e5945e44385ace803cb381c0306bb466dc4c41b83e789f78e3016ef78c3e098aeb9a504a3654c08e32bd8fce3e65ba68d2424fb63c7a9d7ae1036cf58e3c0b88e99852483456c28c30bf8dcc3c67b86ad0404db43a7c9b7ce7056af3883a0d8eef9e544e3250c48a36b98bca3a61be6cd6464bb2387e997ee50768f18a380f8ced9c564c3052c68834bb89c83863bc6ed44449b036709770eb0966ff84360182e39258423e5cc8863ab587c6366db260da4a47be34729572e90b64fd86340380e1905a403c5eca8438b785c4346fb062d84845bc32749374ef0d62fb80320586e7965c463a58cc823eb183c23269b664de4e43ba30769176ed0f60f982300784e5945e44385ace803cb381c0306bb466dc4c41b83e789f78e3016ef78c3e098aeb9a504a3b2acacbf2704106c2b618ba89ee988bf00fef5572c47289f5b370cc8e72a921d02fd7509fe948440757ad63a857c7424c3b96206064cbbb717c1eec025fafbc70135dead2668d70ae3102253341d2a18a36cd685c82ea53a2e0feadcf778e84f040bd62bd68cc98ee7f1894c84cc6ec9846fac29ccf37c871f457ec5be8f908b2b6396494dd0517d38747032f5a5086cbb576f82129cc3b9994dfc329af7c491ffc444009b7f294e723511a009642f19c4fa774b68ed35ca3840780cad644460f0fd05c13a118e000d5558183a946fe255ae2a0e15d4fc6045c9c84c1a953ceb746a10aeb0f554fad3c14982820fa8c53baddcd6d2f75ff3b520b4a2a2ab13d15da52f0d6bc6a6916e5c5011cd6a1fd26cc52695d8a4a27ababf2682a5b08853ad16dea01ea4d955c715532a9ff9be3ccf90082e644d8a93c929bc9e5a88423b80e6334c450dbabdb7dcb362d23124c2d8a3d0fee3c8de542cc3d470446e057c0f15c997efa517f608a444d52ef3c54422be978bf1490624ce9c04c5f4e58f8b1611956b368d53738e7aecd74529c63700339a7a4e9ad75a3abb0da178571c0cb2cce166bb823f7aaa137b819aca0495beed6cdb57686b52bc6a80c8dfa47ff016ea12b26ec01a579303d4bfd05265643c71d76154df4e9aff55d78f3c756223ac46c30bfce9d0af6c50983e59cf28386844c92b4376c26b403e59cc33d855e4e5fd4216ca8f13fafeedfee6a4446eda01fde63c2c1300f3d5854cbdc5cc1cc12f4b51aecdf6b814f2b419accee69b2917d9f54e2bacc17c01d066b9a0b840490ecb142ea9c9f1ae3ee67980b688cbbc35e35f99200d2f0557b55d8ef6a5b847c423cd45e0cb1414ba9ee8789db94d8e5a8b1b36abcc74c98e55ec120b6aa7b1ec401b2af45974f770623ac841a6e79e805b2bc32af70e61d1d6503da7027c8946d8405a03ebf6bf5bd10b9e64da1a74bb978b4dbeed4a145a9fe2b1e1a2f4f1f3cf0cdaa0c92963f68aa00d13bf124f9d825848871bd08a09de7df838fe52d0fb304f7798ffb658d489f550913c8f265dad730ccc2fd5664f16ee8fb20205f52133331c7fd62bb533c187662de1349fc33b1bc0d565f1b7cce2bf3c0d4f8b85eac0173bd15c610a57bb9472f086ce38d57ee1a7620679ddb4d42dd61dec8ae8ad6480a2676e3211ca4f679697a0c7d103097baf3ff982a858774bf922206a67d28ab5df976228b1fb4ceb0d14c00f9f6def960b6b83c6c19cdc474c4c2b9e8611f1afdfbb22c02bbce7ec308e6a73edbe031e7341fdd83597fad5fbee78599a126c04565e7012cbfc12cba21dad0fe82830017cdad90943a9e5648bdb54f1431a996d12be614f515bead5dcc1e8018f5cb1f19276f1a30051d6af345cb07a8600b5af9fb61c8f98e38c74a24a481a40ff9e24f109571123c143439ce80af65b3802d69b9e17d99112dfb62c2d16a6074811aef94d8bc2b96f0061e6d1d4c600fa705e9f54b2fcca5c608b5a3d74406bbdf869e95a5e9dbb4e46c4aa7860f05c12b247e2e0d71396fa3a6d82aad875ff04720d38cfe34d320f725a6da5553a6594d4e22ac7b6ed3bc5b5af11de96b1a9b58f72a1d9a7daa59e90967b284b173dbfaca08474afe20711f0b6703ae8d11bcbb557e06a047844c3cb0c7a6a367813fa6c430c158a52d99e5c0f6f608aba052488ff023bdfac87fff253ef9c6eab30cf12ce99de7a1b6d048fb317ade9001aacb60a14a70525c9ddf96ba89799b2f9abdb2ce9e8a7d88740eeb7a93ad263b652c1ab4b235f65ac5ccbde8365b23df8fa3c161460b0f0b7157d3b552dc180d921ead77a56f25a3bb9c71fde1c16472ec86446fb2ca0374f33c2196d530a50cd5d6abcbdd8dfbb2458f02159ba399d332b311eb4d52b9e1707ecd1c3794f0d39daa28aaf15e2bbb6528528da7d5f07a2491a7b58997865b67a90bfe3c37a16e168f7941d24ae03ad00d4dbca0535fb3a582cd33b114ebcc302061e9345c7ee53aee819cad41377aa9895ce24f329761d5a736d94ff7b5c67198a9df545a2c7d21dc609baaf6639b8c191bb67dffeae923e410f4e5ecbdcf81909742de32ef519a5530fd8e4e2b17d08090a9f06d222d0b0bc6194c550940a74b5affb87969892bc4be9a703fedc136688de7869f7ddcee518e28299af129edc5d08389496503057ea9cb8587e14a6b547e5777e1934154a7dee81a16f65f0da8f3ac59c131a71629b33e56b1b0af750ae292409bd8bf1108352f6fd161dd5da33c34535a32feee53fe3880744c472b057358ea4debe0a9c6599c08a0eb5b8d5d66abb659f8541e72a396cdf96ef33bc923258c46387fa979d7f8a5867dfd636cd51682f58caa343c00f6a03b37f40dd896a374ef1b87ddfbb0e793b5b973f6b958aece4c055f5231afb7d15e04fe7b9c86458326dbd2561e6f02101db94b7e3c54b4129de48f1fe2810d5fbe928a74f0a8fb767f8ff13fe4dbc1cab5585b3452bf10e7e0954756506d2b12abb925d6040900a6982e52bbb7d91ddfdaa13415d74ef8bc901d5e66c2fad62f9c0da37231f02e253d5c1f42cf7efb927b5bb02f667c90f35b6a306e9db69e40f6f2d405ea4b9e578cb5fc4ab1621dd4a54cd3b9f3a3158089f73bf3f7188274aa6281303f707b02c5230a7459f5f8a3a9a86047f1413f154f8f6bcb1437983277579947d5fb9e385870e338e3945270cec4b07fc6737c72f3ce44d10f857a53ee7703541d1ee7e385e5ac3c8a3e92038bf234e6227de93e3fddb0ab5a768d10181d088105c761a7efe47c4be26c1293dd6fce47e0e60e9631cae8073b91ea28e0289290f8817a1f3c4aef9576b3dd08266f0b8c58c5fbd7f06eb5c45bc4f21fdb536fc51bfabf4efc86187a8fa56c6625689ae56fdfe66609ab31ef613cfefb76cfad3e6f44c5f8960e1413b614342452b4fb38576db94e8dba1221c796a9ed951598764e01738e55a4115e4be9e707abe76eb84bde869fb009f8a049cd7b379e6d4b31394b466764cffae69968720d3d0f9ec1cdabef4368c70f05ab4601aaf12214a721407d804b9e200529a5661acf068fa46f16b26432f15420622b40ef2c8f8b8c098a8bbbdaede456ac7fa6aac3ed2f9fcf29495e19935d494af4d748d9eed2944eb58aa7a1f521a794b3fa9734132da63895342f04862aabb3c9d50f3e32893e6b2212c97a82b71a349805a97807d11758980b7fea2042f61d83bcfa6c137842f4c46c643da1a4fb78a37f0394689e543f81742982346ca127969bae4c9ce364059df133b83bc3b461eb5b40c56e0c36be73622bbdb8835fad15aa0929ff1a7f044dc4afc00967c5ab2141c1340696a8385878d93a9b2c1c5d7e1e9f3fb0f10272b375c667882868a8c909598bcbed5e6f3fc151a252c3a3d44484e5f79909699a5a6b1c4d3d5d71f2051577da4b0b8bfdee2e5000000000000000012273c4801fd210500682fc0a0846b5edf7b7df9211d3fff3309f9b549627f431f992ff1564a9ae363b82417514c63fcd3dad84917c9f0be17b3f263285d08eb29c96b291618153efe4ea66df74e0defe51804b269fd1b9e77badaeb275fcb83cea6f4df6703922c9b374c7720fd3a5c06fb82f765650461bf39421443a66ab21322988ac87f7c090752f26156a7328ac02ecb4a3537c51bc051c843e9335125e41dde4a99dca16073bb45eb96a1423816a05eedcc06fbc6072c35e91cd85f0171e1e36db0944875f2758cbc5dace23a14184d1ba206a025a1abfa162c6e3ff7714c1b4dae5dc9ec4b7730d578fd886a7d2466914e0863501b5d1886f353b6967ef354e7dadffbc94e7589abfde74ab85fed7ac6d2cd7651aff6668948c496fae632518b8839843055751c972dcdf75948c2e75e1f65f8db0474fde53f2c31dc3a528bf049a21d8eaee56e5ba2e8a18df7252b8bc3cd545af6597184d37d3e99daccf61a5e48c9243d3695f50e6ea2272bb65dbefd401388940059b2c5d57dce97ea7d2288778dfea20136b24a822680c6bd2a66780aee04ed6e36ccedc729deda46aba0752475ef844ee710307b91260f45380b405184197e90ad2594fe53cfa7d0dfb2574beec5874bbe590af2807ebdfbaba99d6775cd61f4cb48da5aa42d01e781f5013e3d6d0ed5d730f481ad681562ed30047b6425cc1fdbbb0dd652d4dd6108094b6104de85fb516d959b732c9b5cce6998bb2e6410d9901e65eb3dc20f6017c5283ec4071d8dd5e1306bbc78c111ec5cfa257f6d5402c81a61dba0fd8d7a376c9a031c8f37fdb8a3948c71f260632a30537269c9e942f35799382a49623e8055f6baecc17894bf9eb1ecf8fdffc63fa266c51889ad21cb35edc2769c7fedccead420db32bd1cdc880da564845acf3e31713bac93b4ce5723efd158c185d87a12b9ce01d61f7f20a389c2fbac5db7e281d8413125f3b3f49aa6bb529c4dd868289982e9aaf059b38bb7301bd75d1bd7418ad3c39fea2a1e135effd12c82cf7937a4ddf60207f9209456a6cfcf783292cf1c8d1e950aefb8ddc3dfd275c5aec540c0b2cfe565d5f3759ec2f01f0e6c92e521ea6f1e588c7d12a5170d3ac84ae6cbcd545061381935f318c96d35ba577547d428b19c2f75535bdc4e33190291747e7e212019b2ef2165cd5c7250cb0d10160cd9d5c0ce116552ab3191a65b12608250e35826a22703745d0985cf799b17e580aa1a14a3a7519b0f9b15351bda5bd0509fff820ae40e536071b90835f32adf93da320cbc7dcb18705be8cd08a5938e766547b37f4d46ee586ffa08311ddc1a650976fe406de611ae35be89e8e75837019997f6a1f5c21250c52a9c2cdcf3ef9ce0e6797cbbbda11a0970f107b0d7c189d37c50ec7486bab4ebaa33df9ac1cbbec0745b63dd83f17ea40ffe856040030af99a484cc95ab02e050e9a761ead0b6da8920b6aa50b2a24549f69b51627d78affd91b45fcbc6007db6a55f462115e289ed8a0407323567a0dc31be271deed681c6a86a68ae0e9da5d13598d7e2279d8089bfe5e08e3f2a4c2a42febeae1d7c2fb2368bac068f0677f879320eef67942f87f819d8efebc0e6d5234258af71e2e66aa1794a67a1a5204093c3bf63d28c45eb260e501ebab48aafc14dfc625cfa37741eb8c155f1603abdc1a462af075dc585334bbd21e807061530a568b2372f3bd51d6c0dbc1f207d3f77c83ff2fc4c6bd5a22ba11cd058e4d8597f9e6afa70ceb316a4239c9975a3a14339d0ce120e97f46f91b24069a83495ba636325c076ceea8ddf12fc36a35bc20aff7cb72d279a80011d5b68c8f43aa6c3d795c98471e3f21468672000000",
  "txid": "603e15ae124852647f2ff0bb9306012eb8a11ba1e970e4384603171baf6b8a03",
  "hash": "d85d1d15c317ddbebe4f0ddff4de082206182d47b10bf7a72a735f3cefec86f5",
  "size": 5085,
  "vsize": 2278,
  "version": 1,
  "locktime": 114,
  "vin": [
    {
      "txid": "561dc14552ff35f57cf6523d44a73401d248803757c8547987c572a9d6aa27b9",
      "vout": 1,
      "scriptSig": {
        "asm": "",
        "hex": ""
      },
      "txinwitness": [
        "fe948440757ad63a857c7424c3b96206064cbbb717c1eec025fafbc70135dead2668d70ae3102253341d2a18a36cd685c82ea53a2e0feadcf778e84f040bd62bd68cc98ee7f1894c84cc6ec9846fac29ccf37c871f457ec5be8f908b2b6396494dd0517d38747032f5a5086cbb576f82129cc3b9994dfc329af7c491ffc444009b7f294e723511a009642f19c4fa774b68ed35ca3840780cad644460f0fd05c13a118e000d5558183a946fe255ae2a0e15d4fc6045c9c84c1a953ceb746a10aeb0f554fad3c14982820fa8c53baddcd6d2f75ff3b520b4a2a2ab13d15da52f0d6bc6a6916e5c5011cd6a1fd26cc52695d8a4a27ababf2682a5b08853ad16dea01ea4d955c715532a9ff9be3ccf90082e644d8a93c929bc9e5a88423b80e6334c450dbabdb7dcb362d23124c2d8a3d0fee3c8de542cc3d470446e057c0f15c997efa517f608a444d52ef3c54422be978bf1490624ce9c04c5f4e58f8b1611956b368d53738e7aecd74529c63700339a7a4e9ad75a3abb0da178571c0cb2cce166bb823f7aaa137b819aca0495beed6cdb57686b52bc6a80c8dfa47ff016ea12b26ec01a579303d4bfd05265643c71d76154df4e9aff55d78f3c756223ac46c30bfce9d0af6c50983e59cf28386844c92b4376c26b403e59cc33d855e4e5fd4216ca8f13fafeedfee6a4446eda01fde63c2c1300f3d5854cbdc5cc1cc12f4b51aecdf6b814f2b419accee69b2917d9f54e2bacc17c01d066b9a0b840490ecb142ea9c9f1ae3ee67980b688cbbc35e35f99200d2f0557b55d8ef6a5b847c423cd45e0cb1414ba9ee8789db94d8e5a8b1b36abcc74c98e55ec120b6aa7b1ec401b2af45974f770623ac841a6e79e805b2bc32af70e61d1d6503da7027c8946d8405a03ebf6bf5bd10b9e64da1a74bb978b4dbeed4a145a9fe2b1e1a2f4f1f3cf0cdaa0c92963f68aa00d13bf124f9d825848871bd08a09de7df838fe52d0fb304f7798ffb658d489f550913c8f265dad730ccc2fd5664f16ee8fb20205f52133331c7fd62bb533c187662de1349fc33b1bc0d565f1b7cce2bf3c0d4f8b85eac0173bd15c610a57bb9472f086ce38d57ee1a7620679ddb4d42dd61dec8ae8ad6480a2676e3211ca4f679697a0c7d103097baf3ff982a858774bf922206a67d28ab5df976228b1fb4ceb0d14c00f9f6def960b6b83c6c19cdc474c4c2b9e8611f1afdfbb22c02bbce7ec308e6a73edbe031e7341fdd83597fad5fbee78599a126c04565e7012cbfc12cba21dad0fe82830017cdad90943a9e5648bdb54f1431a996d12be614f515bead5dcc1e8018f5cb1f19276f1a30051d6af345cb07a8600b5af9fb61c8f98e38c74a24a481a40ff9e24f109571123c143439ce80af65b3802d69b9e17d99112dfb62c2d16a6074811aef94d8bc2b96f0061e6d1d4c600fa705e9f54b2fcca5c608b5a3d74406bbdf869e95a5e9dbb4e46c4aa7860f05c12b247e2e0d71396fa3a6d82aad875ff04720d38cfe34d320f725a6da5553a6594d4e22ac7b6ed3bc5b5af11de96b1a9b58f72a1d9a7daa59e90967b284b173dbfaca08474afe20711f0b6703ae8d11bcbb557e06a047844c3cb0c7a6a367813fa6c430c158a52d99e5c0f6f608aba052488ff023bdfac87fff253ef9c6eab30cf12ce99de7a1b6d048fb317ade9001aacb60a14a70525c9ddf96ba89799b2f9abdb2ce9e8a7d88740eeb7a93ad263b652c1ab4b235f65ac5ccbde8365b23df8fa3c161460b0f0b7157d3b552dc180d921ead77a56f25a3bb9c71fde1c16472ec86446fb2ca0374f33c2196d530a50cd5d6abcbdd8dfbb2458f02159ba399d332b311eb4d52b9e1707ecd1c3794f0d39daa28aaf15e2bbb6528528da7d5f07a2491a7b58997865b67a90bfe3c37a16e168f7941d24ae03ad00d4dbca0535fb3a582cd33b114ebcc302061e9345c7ee53aee819cad41377aa9895ce24f329761d5a736d94ff7b5c67198a9df545a2c7d21dc609baaf6639b8c191bb67dffeae923e410f4e5ecbdcf81909742de32ef519a5530fd8e4e2b17d08090a9f06d222d0b0bc6194c550940a74b5affb87969892bc4be9a703fedc136688de7869f7ddcee518e28299af129edc5d08389496503057ea9cb8587e14a6b547e5777e1934154a7dee81a16f65f0da8f3ac59c131a71629b33e56b1b0af750ae292409bd8bf1108352f6fd161dd5da33c34535a32feee53fe3880744c472b057358ea4debe0a9c6599c08a0eb5b8d5d66abb659f8541e72a396cdf96ef33bc923258c46387fa979d7f8a5867dfd636cd51682f58caa343c00f6a03b37f40dd896a374ef1b87ddfbb0e793b5b973f6b958aece4c055f5231afb7d15e04fe7b9c86458326dbd2561e6f02101db94b7e3c54b4129de48f1fe2810d5fbe928a74f0a8fb767f8ff13fe4dbc1cab5585b3452bf10e7e0954756506d2b12abb925d6040900a6982e52bbb7d91ddfdaa13415d74ef8bc901d5e66c2fad62f9c0da37231f02e253d5c1f42cf7efb927b5bb02f667c90f35b6a306e9db69e40f6f2d405ea4b9e578cb5fc4ab1621dd4a54cd3b9f3a3158089f73bf3f7188274aa6281303f707b02c5230a7459f5f8a3a9a86047f1413f154f8f6bcb1437983277579947d5fb9e385870e338e3945270cec4b07fc6737c72f3ce44d10f857a53ee7703541d1ee7e385e5ac3c8a3e92038bf234e6227de93e3fddb0ab5a768d10181d088105c761a7efe47c4be26c1293dd6fce47e0e60e9631cae8073b91ea28e0289290f8817a1f3c4aef9576b3dd08266f0b8c58c5fbd7f06eb5c45bc4f21fdb536fc51bfabf4efc86187a8fa56c6625689ae56fdfe66609ab31ef613cfefb76cfad3e6f44c5f8960e1413b614342452b4fb38576db94e8dba1221c796a9ed951598764e01738e55a4115e4be9e707abe76eb84bde869fb009f8a049cd7b379e6d4b31394b466764cffae69968720d3d0f9ec1cdabef4368c70f05ab4601aaf12214a721407d804b9e200529a5661acf068fa46f16b26432f15420622b40ef2c8f8b8c098a8bbbdaede456ac7fa6aac3ed2f9fcf29495e19935d494af4d748d9eed2944eb58aa7a1f521a794b3fa9734132da63895342f04862aabb3c9d50f3e32893e6b2212c97a82b71a349805a97807d11758980b7fea2042f61d83bcfa6c137842f4c46c643da1a4fb78a37f0394689e543f81742982346ca127969bae4c9ce364059df133b83bc3b461eb5b40c56e0c36be73622bbdb8835fad15aa0929ff1a7f044dc4afc00967c5ab2141c1340696a8385878d93a9b2c1c5d7e1e9f3fb0f10272b375c667882868a8c909598bcbed5e6f3fc151a252c3a3d44484e5f79909699a5a6b1c4d3d5d71f2051577da4b0b8bfdee2e5000000000000000012273c4801",
        "00682fc0a0846b5edf7b7df9211d3fff3309f9b549627f431f992ff1564a9ae363b82417514c63fcd3dad84917c9f0be17b3f263285d08eb29c96b291618153efe4ea66df74e0defe51804b269fd1b9e77badaeb275fcb83cea6f4df6703922c9b374c7720fd3a5c06fb82f765650461bf39421443a66ab21322988ac87f7c090752f26156a7328ac02ecb4a3537c51bc051c843e9335125e41dde4a99dca16073bb45eb96a1423816a05eedcc06fbc6072c35e91cd85f0171e1e36db0944875f2758cbc5dace23a14184d1ba206a025a1abfa162c6e3ff7714c1b4dae5dc9ec4b7730d578fd886a7d2466914e0863501b5d1886f353b6967ef354e7dadffbc94e7589abfde74ab85fed7ac6d2cd7651aff6668948c496fae632518b8839843055751c972dcdf75948c2e75e1f65f8db0474fde53f2c31dc3a528bf049a21d8eaee56e5ba2e8a18df7252b8bc3cd545af6597184d37d3e99daccf61a5e48c9243d3695f50e6ea2272bb65dbefd401388940059b2c5d57dce97ea7d2288778dfea20136b24a822680c6bd2a66780aee04ed6e36ccedc729deda46aba0752475ef844ee710307b91260f45380b405184197e90ad2594fe53cfa7d0dfb2574beec5874bbe590af2807ebdfbaba99d6775cd61f4cb48da5aa42d01e781f5013e3d6d0ed5d730f481ad681562ed30047b6425cc1fdbbb0dd652d4dd6108094b6104de85fb516d959b732c9b5cce6998bb2e6410d9901e65eb3dc20f6017c5283ec4071d8dd5e1306bbc78c111ec5cfa257f6d5402c81a61dba0fd8d7a376c9a031c8f37fdb8a3948c71f260632a30537269c9e942f35799382a49623e8055f6baecc17894bf9eb1ecf8fdffc63fa266c51889ad21cb35edc2769c7fedccead420db32bd1cdc880da564845acf3e31713bac93b4ce5723efd158c185d87a12b9ce01d61f7f20a389c2fbac5db7e281d8413125f3b3f49aa6bb529c4dd868289982e9aaf059b38bb7301bd75d1bd7418ad3c39fea2a1e135effd12c82cf7937a4ddf60207f9209456a6cfcf783292cf1c8d1e950aefb8ddc3dfd275c5aec540c0b2cfe565d5f3759ec2f01f0e6c92e521ea6f1e588c7d12a5170d3ac84ae6cbcd545061381935f318c96d35ba577547d428b19c2f75535bdc4e33190291747e7e212019b2ef2165cd5c7250cb0d10160cd9d5c0ce116552ab3191a65b12608250e35826a22703745d0985cf799b17e580aa1a14a3a7519b0f9b15351bda5bd0509fff820ae40e536071b90835f32adf93da320cbc7dcb18705be8cd08a5938e766547b37f4d46ee586ffa08311ddc1a650976fe406de611ae35be89e8e75837019997f6a1f5c21250c52a9c2cdcf3ef9ce0e6797cbbbda11a0970f107b0d7c189d37c50ec7486bab4ebaa33df9ac1cbbec0745b63dd83f17ea40ffe856040030af99a484cc95ab02e050e9a761ead0b6da8920b6aa50b2a24549f69b51627d78affd91b45fcbc6007db6a55f462115e289ed8a0407323567a0dc31be271deed681c6a86a68ae0e9da5d13598d7e2279d8089bfe5e08e3f2a4c2a42febeae1d7c2fb2368bac068f0677f879320eef67942f87f819d8efebc0e6d5234258af71e2e66aa1794a67a1a5204093c3bf63d28c45eb260e501ebab48aafc14dfc625cfa37741eb8c155f1603abdc1a462af075dc585334bbd21e807061530a568b2372f3bd51d6c0dbc1f207d3f77c83ff2fc4c6bd5a22ba11cd058e4d8597f9e6afa70ceb316a4239c9975a3a14339d0ce120e97f46f91b24069a83495ba636325c076ceea8ddf12fc36a35bc20aff7cb72d279a80011d5b68c8f43aa6c3d795c98471e3f214686"
      ],
      "sequence": 4294967294
    }
  ],
  "vout": [
    {
      "value": 499983.7296,
      "n": 0,
      "scriptPubKey": {
        "asm": "1 95decb24c22c8662996448abe6f6a7a78c8fd6ac7a046e9f7b101c191e4220d3",
        "hex": "512095decb24c22c8662996448abe6f6a7a78c8fd6ac7a046e9f7b101c191e4220d3",
        "reqSigs": 1,
        "type": "witness_v1_scripthash",
        "addresses": [
          "3QJmnh"
        ]
      }
    },
    {
      "value": 1.0,
      "n": 1,
      "scriptPubKey": {
        "asm": "OP_RETURN 7a70dd260a9121cef3c2e2f11c5a41c2404e1d2dd9b1d795c17462e685ced73c 6709770eb0966ff84360182e39258423e5cc8863ab587c6366db260da4a47be34729572e90b64fd86340380e1905a403c5eca8438b785c4346fb062d84845bc32749374ef0d62fb80320586e7965c463a58cc823eb183c23269b664de4e43ba30769176ed0f60f982300784e5945e44385ace803cb381c0306bb466dc4c41b83e789f78e3016ef78c3e098aeb9a504a3654c08e32bd8fce3e65ba68d2424fb63c7a9d7ae1036cf58e3c0b88e99852483456c28c30bf8dcc3c67b86ad0404db43a7c9b7ce7056af3883a0d8eef9e544e3250c48a36b98bca3a61be6cd6464bb2387e997ee50768f18a380f8ced9c564c3052c68834bb89c83863bc6ed44449b036709770eb0966ff84360182e39258423e5cc8863ab587c6366db260da4a47be34729572e90b64fd86340380e1905a403c5eca8438b785c4346fb062d84845bc32749374ef0d62fb80320586e7965c463a58cc823eb183c23269b664de4e43ba30769176ed0f60f982300784e5945e44385ace803cb381c0306bb466dc4c41b83e789f78e3016ef78c3e098aeb9a504a3654c08e32bd8fce3e65ba68d2424fb63c7a9d7ae1036cf58e3c0b88e99852483456c28c30bf8dcc3c67b86ad0404db43a7c9b7ce7056af3883a0d8eef9e544e3250c48a36b98bca3a61be6cd6464bb2387e997ee50768f18a380f8ced9c564c3052c68834bb89c83863bc6ed44449b036709770eb0966ff84360182e39258423e5cc8863ab587c6366db260da4a47be34729572e90b64fd86340380e1905a403c5eca8438b785c4346fb062d84845bc32749374ef0d62fb80320586e7965c463a58cc823eb183c23269b664de4e43ba30769176ed0f60f982300784e5945e44385ace803cb381c0306bb466dc4c41b83e789f78e3016ef78c3e098aeb9a504a3654c08e32bd8fce3e65ba68d2424fb63c7a9d7ae1036cf58e3c0b88e99852483456c28c30bf8dcc3c67b86ad0404db43a7c9b7ce7056af3883a0d8eef9e544e3250c48a36b98bca3a61be6cd6464bb2387e997ee50768f18a380f8ced9c564c3052c68834bb89c83863bc6ed44449b036709770eb0966ff84360182e39258423e5cc8863ab587c6366db260da4a47be34729572e90b64fd86340380e1905a403c5eca8438b785c4346fb062d84845bc32749374ef0d62fb80320586e7965c463a58cc823eb183c23269b664de4e43ba30769176ed0f60f982300784e5945e44385ace803cb381c0306bb466dc4c41b83e789f78e3016ef78c3e098aeb9a504a3654c08e32bd8fce3e65ba68d2424fb63c7a9d7ae1036cf58e3c0b88e99852483456c28c30bf8dcc3c67b86ad0404db43a7c9b7ce7056af3883a0d8eef9e544e3250c48a36b98bca3a61be6cd6464bb2387e997ee50768f18a380f8ced9c564c3052c68834bb89c83863bc6ed44449b036709770eb0966ff84360182e39258423e5cc8863ab587c6366db260da4a47be34729572e90b64fd86340380e1905a403c5eca8438b785c4346fb062d84845bc32749374ef0d62fb80320586e7965c463a58cc823eb183c23269b664de4e43ba30769176ed0f60f982300784e5945e44385ace803cb381c0306bb466dc4c41b83e789f78e3016ef78c3e098aeb9a504a3b2acacbf2704106c2b618ba89ee988bf00fef5572c47289f5b370cc8e72a921d",
        "hex": "6a207a70dd260a9121cef3c2e2f11c5a41c2404e1d2dd9b1d795c17462e685ced73c4db0046709770eb0966ff84360182e39258423e5cc8863ab587c6366db260da4a47be34729572e90b64fd86340380e1905a403c5eca8438b785c4346fb062d84845bc32749374ef0d62fb80320586e7965c463a58cc823eb183c23269b664de4e43ba30769176ed0f60f982300784e5945e44385ace803cb381c0306bb466dc4c41b83e789f78e3016ef78c3e098aeb9a504a3654c08e32bd8fce3e65ba68d2424fb63c7a9d7ae1036cf58e3c0b88e99852483456c28c30bf8dcc3c67b86ad0404db43a7c9b7ce7056af3883a0d8eef9e544e3250c48a36b98bca3a61be6cd6464bb2387e997ee50768f18a380f8ced9c564c3052c68834bb89c83863bc6ed44449b036709770eb0966ff84360182e39258423e5cc8863ab587c6366db260da4a47be34729572e90b64fd86340380e1905a403c5eca8438b785c4346fb062d84845bc32749374ef0d62fb80320586e7965c463a58cc823eb183c23269b664de4e43ba30769176ed0f60f982300784e5945e44385ace803cb381c0306bb466dc4c41b83e789f78e3016ef78c3e098aeb9a504a3654c08e32bd8fce3e65ba68d2424fb63c7a9d7ae1036cf58e3c0b88e99852483456c28c30bf8dcc3c67b86ad0404db43a7c9b7ce7056af3883a0d8eef9e544e3250c48a36b98bca3a61be6cd6464bb2387e997ee50768f18a380f8ced9c564c3052c68834bb89c83863bc6ed44449b036709770eb0966ff84360182e39258423e5cc8863ab587c6366db260da4a47be34729572e90b64fd86340380e1905a403c5eca8438b785c4346fb062d84845bc32749374ef0d62fb80320586e7965c463a58cc823eb183c23269b664de4e43ba30769176ed0f60f982300784e5945e44385ace803cb381c0306bb466dc4c41b83e789f78e3016ef78c3e098aeb9a504a3654c08e32bd8fce3e65ba68d2424fb63c7a9d7ae1036cf58e3c0b88e99852483456c28c30bf8dcc3c67b86ad0404db43a7c9b7ce7056af3883a0d8eef9e544e3250c48a36b98bca3a61be6cd6464bb2387e997ee50768f18a380f8ced9c564c3052c68834bb89c83863bc6ed44449b036709770eb0966ff84360182e39258423e5cc8863ab587c6366db260da4a47be34729572e90b64fd86340380e1905a403c5eca8438b785c4346fb062d84845bc32749374ef0d62fb80320586e7965c463a58cc823eb183c23269b664de4e43ba30769176ed0f60f982300784e5945e44385ace803cb381c0306bb466dc4c41b83e789f78e3016ef78c3e098aeb9a504a3654c08e32bd8fce3e65ba68d2424fb63c7a9d7ae1036cf58e3c0b88e99852483456c28c30bf8dcc3c67b86ad0404db43a7c9b7ce7056af3883a0d8eef9e544e3250c48a36b98bca3a61be6cd6464bb2387e997ee50768f18a380f8ced9c564c3052c68834bb89c83863bc6ed44449b036709770eb0966ff84360182e39258423e5cc8863ab587c6366db260da4a47be34729572e90b64fd86340380e1905a403c5eca8438b785c4346fb062d84845bc32749374ef0d62fb80320586e7965c463a58cc823eb183c23269b664de4e43ba30769176ed0f60f982300784e5945e44385ace803cb381c0306bb466dc4c41b83e789f78e3016ef78c3e098aeb9a504a3b2acacbf2704106c2b618ba89ee988bf00fef5572c47289f5b370cc8e72a921d",
        "type": "nulldata"
      }
    }
  ],
  "blockhash": "a404c97fd79b0f74ac8935f18e4afcd6ffd73e4b441b9f6bd67a7215b8c8499e",
  "confirmations": 1,
  "time": 1764178774,
  "blocktime": 1764178774
}