{
  "hex": "01000000000101e81341441ac6224825005d582bbabd99a446aa605cd6177905495904774aaddb0100000000feffffff029021522d792d00002251202faca63e29b09e7c255b36f9b3ee4d3f453d6349d1e88505e88d9a85c59d9e3100e1f50500000000fdd5046a206b1478615b6550ab671522dc15bd36ea712af18db2e6807d5432beb46d761a154db0041a8dca41ad488b4ed853880780fb6d2dec6baea680a73db83e222242d4b368493aadea618d68ab6ef873a827a0db4d0dcc4b8e86a0871d981e020262f49348695acd8a01ed08cb0e9813c847c0bb2d6dac2beee6c0e77df87e62620294f328097aedaa21cd28eb2eb833e867e09b0d4d8c0bcec6e0c75dd85e424222b4d308299a0d4ac12dc80bce58d30887007bedad6ceb2e260027bd38bea2a2c25433e8c9ba2d6ae10de82bee78f328a7205bcd8d4ccb0e0620079d189e8282e27413c8e9da4d0a816d884b8e189348c7403baded2cab6e664067fd78fee2e2821473a889fa6d2aa14da86bae38b368e7601b8dcd0c8b4e466047dd58dec2c2a2345388a91a8dca41ad488b4ed853880780fb6d2dec6baea680a73db83e222242d4b368493aadea618d68ab6ef873a827a0db4d0dcc4b8e86a0871d981e020262f49348695acd8a01ed08cb0e9813c847c0bb2d6dac2beee6c0e77df87e62620294f328097aedaa21cd28eb2eb833e867e09b0d4d8c0bcec6e0c75dd85e424222b4d308299a0d4ac12dc80bce58d30887007bedad6ceb2e260027bd38bea2a2c25433e8c9ba2d6ae10de82bee78f328a7205bcd8d4ccb0e0620079d189e8282e27413c8e9da4d0a816d884b8e189348c7403baded2cab6e664067fd78fee2e2821473a889fa6d2aa14da86bae38b368e7601b8dcd0c8b4e466047dd58dec2c2a2345388a91a8dca41ad488b4ed853880780fb6d2dec6baea680a73db83e222242d4b368493aadea618d68ab6ef873a827a0db4d0dcc4b8e86a0871d981e020262f49348695acd8a01ed08cb0e9813c847c0bb2d6dac2beee6c0e77df87e62620294f328097aedaa21cd28eb2eb833e867e09b0d4d8c0bcec6e0c75dd85e424222b4d308299a0d4ac12dc80bce58d30887007bedad6ceb2e260027bd38bea2a2c25433e8c9ba2d6ae10de82bee78f328a7205bcd8d4ccb0e0620079d189e8282e27413c8e9da4d0a816d884b8e189348c7403baded2cab6e664067fd78fee2e2821473a889fa6d2aa14da86bae38b368e7601b8dcd0c8b4e466047dd58dec2c2a2345388a91a8dca41ad488b4ed853880780fb6d2dec6baea680a73db83e222242d4b368493aadea618d68ab6ef873a827a0db4d0dcc4b8e86a0871d981e020262f49348695acd8a01ed08cb0e9813c847c0bb2d6dac2beee6c0e77df87e62620294f328097aedaa21cd28eb2eb833e867e09b0d4d8c0bcec6e0c75dd85e424222b4d308299a0d4ac12dc80bce58d30887007bedad6ceb2e260027bd38bea2a2c25433e8c9ba2d6ae10de82bee78f328a7205bcd8d4ccb0e0620079d189e8282e27413c8e9da4d0a816d884b8e189348c7403baded2cab6e664067fd78fee2e2821473a889fa6d2aa14da86bae38b368e7601b8dcd0c8b4e466047dd58dec2c2a2345388a91a8dca41ad488b4ed853880780fb6d2dec6baea680a73db83e222242d4b368493aadea618d68ab6ef873a827a0db4d0dcc4b8e86a0871d981e020262f49348695acd8a01ed08cb0e9813c847c0bb2d6dac2beee6c0e77df87e62620294f328097aedaa21cd28eb2eb833e867e09b0d4d8c0bcec6e0c75dd85e424222b4d308299a0d4ac12dc80bce58d30887007bedadb713a9d7f037364cfe5ecb1c5c868cda1a9c512e8dc9e69e128f125ef9901c8002fd750988ca7517f078f4724cc4eb511ec68508b85a94a91961b097513396b1e148191785d26a47e83cf4da78071bb4df6e1ac4f6885ee3882ec17d50029f3072316bb52f714fb5d34060fbba1fcd159ed5b60f4c85be3179ccc4cdf681f320a79376d22b28282cdc4e056a24905465462457cb8ec9afaf88b76be93d56254b45af633f036bb119bd8dd8f75a1f01da98aef4532bd032443afcc1d1e6b53565858020fd8d27640982dcfcc9c63cc647de064408d5fbb774fb955d2e3bece6ec9af5db9ff9001ea97eab68e9699d43d7746bb4c6ddc8316a7d8ecaa858c19a9260217e54e8a8f74d0f83faa212cf7465160a6f9f19f37426281ea876fc963de68822619ab6b72d6296cf52365d57a2a52c241056132b4bccd2bba74b6ab5f0e283427309dd83e9cc98276b00a1d4e10f5874b9ea52b9bd138bd9d133d4b38cc1677f9d1d825b6b21729a49323d71ea36a5d993603846d4657e3e39e59cefc320c5c4419f0e7811c030943924a50bb843945d5a83f9e53fcfe5f245b31d1007622f26ed09636628287b2940a582b966c8cc1a17c4a8e1135204da92913b042547a332931a2dcd94e3ee6cc08b3d2305357b791c8c76a81fa3b6b2882f63bc82c787740061e30e8d691243a68da959306eb21f7b48dd9123c86f9fd9a28bea900abe0eabe85336fc6e61b41081dad1e92df0d931c043c09404f1ced03cdb429d0790b2d7f774fea53c089b0ad7847d4c722024d5311f73a10c5599eec7fa8e958762b941e6e469b08493a0e012ece09fed8d6dc618d8e1642d295bea45551de0ce56f7b6465f79522688afcd175894ec8d90bdeba7f58ed387daea5281cd96c80311804468cb244cb6958f69f351566f3ef41a054435757b86133e7b2bc77e2420c157237f8683ed2300d2ef518f216f7773c2ba4b464215d53115aa8d8861a8d800751a40774114abd6d98d78a0d99f821f7a8440ad9e6087c5c8774d6a38e4d8d9bdca7083c28b983c71c783e7b7efaf48f24e1c0f4ca601c80d152f0719a5c51881f8808c3f0e2ca2a10c8b49412d44551807425b35b4984bb7091a9f88ddbd8cfbd5e4da716b86d60a93bcc1d60c372ed55b7cdd515d96976f7a39b936f8fc050e6303cfaa82d47a21a6ec717b2b357183cc8592ab90c5062ff04e73c5fc04407b87bbf4e0b9402c3173a86b1da1fff17cd6762094ea4fb3dcaa1ebb9d986542a84a3caffae6e1a7df73467c54860f176b4efc20e8647f56fc814f910b868c715f5addfd921da52771e559285ea0d6f0bb3b08c80ea77f0ffcacb312bd89c2e064e618dbe6c69b53b6efb04e8304401725d7541610022d9e064d5ee713cee1672a7ec301eeea86878831e5c0cb2227ac7a1352bc1db91a7dbbd2603e8813f99f41e99abf60968a3f322b0d99157e40b21f0070b16f2cd9cb96b50e5f1a21046c7aa7efbfce9d884b1524e3b2afb796278ffb10ce92a12a54a088c85269f62215c4e91d8a10ceb44fc3a0608e8c9886b3d3a47ac18f4a4e15d26c64baad8acf162bf3359c07e26f5469432aa1339db4bca1890aa085d8aeb02195f4f1c33acf6ea307655d6e8720ceec8b1d8f0750c112410a9ea73914ea3830465e5bfd3e4972959d1099bfc282f30e5dff15dbd8c5b21810f88ea2936af3966c565d37131d82e1f97ef308efe84c703c98f804188bacd99f8fea3833192dc29c96b2d6a45040d879b6cfd367a9f058d60b2d9a761dd0d2c9f9fa6eec4ad76e462e7ebbf6d45e6ae8eb44921ed5ceba4cd26b45f91ccd5d1e7778fa25e2bae353e8445a4c640cf508b0f7f6e0b8ffe496a7375ec4429494b9a84a88de50177a43f55093d3884c345cba0aeeef6041e3864c61aec52675412b36c52d60f635a0df5b5f349da1c8b5f1aab4a7a3325425af5316d93ad0e71f71243a0f0fc462f2e2f07383c7d9f661b78cc15b676fc072850742542940fca0e4183e137d80bffbcef3ef808eef7d6d5d9106de2d418a99f568bc006e21e32e3b056b848374bdb42d10e21cf959feb676dbbd86cb7f029cd5b914f5af609a0d2ee930cef5f2142f570d092c1b3b6b0f7b05c49588deeda2444afe6bc5c691ca0cf7da7dfa63d857a8e7393f9615da8b9adac44671b1fed5e03fb46553455167ca720e8ac56678759ca36c353fee6048d0c9aebb616921a8b82554fc24db248ef8378c13bf794049b68f8e5881740f3b6834588641df8400c96dabf786a6db6b26a69bf2ec1b0b17e58014da785259358a8c80a12d4ae2c2b5d1d9b27aa1330e5dc236c2966bc7cfa3cab34d16b8a1575a8d618c55b513573eec4318b898dad3f463868b3da9b45a45a4db6e74d46285ee849df72b1e97eb6f0a1fe507aaf8dd51968d93000b0a12a694e44b481b77a13dac77476e344acb783e4d12b5785b0ae69092ddb98f16bd097bab2e9fa18bc0ee3e7a98bd130f5990efd6e255f49a372445e1b994c368c19fa8a8fa167594f20e52836561a1bc31453811981771a5a63b704e31ab464b89e6390d8ad86136546a7bc8983b3889b3ec9b214fd3ee5d0551d91cbdd97c6f5ab5695f82170f5c31b86c7d300abb94ae6b2cdc3851ad46fd0fb7b9e6847892c4fad2cd406d848b4794f17bed7e9367320f9a60d87df1718113dc5a54f8c3e7527ada037e417fab772a7fdccb16e55ab91a778e810bc42e8e471231a3fee39f8ed24dbe21bdeb98541456b63f59a850851d28d836494f0e2eabd5721dcfbdc7bd9ad25465b6ec79bd8e8bc16046d67d01090433568600065f592f46ef2f306544067eb95ffde31a97ae324f9551a99f0f56806402acc7dd53b8314bce61129bbf217521b26d42d32f405869a7ceb725988ca1d9bd15c96f93b59505812a0768cc8993654744cc72f41b6ec8e4ebce224b618d664b488e5a045274d5dac732be9acb6a72e6804d35406c17db38736e6bb2720d36de9a00b58c74985bc1acc748e3c30bec6173357670502cf19e3f67f4fd7fe9026d51ff9d02f3ff95c65e6f6819cd747d17dc8ab951e5d367ccd1a8d57df9e36cd265883061ce79cd28dd11923a4da518c09711bda0708a43dad0daf5722c6ebdb0a33044a41bdf27b6e026059f87a33cc66f89fb39ab631e7130819afad083bd2925c014e9f106af3085a2d9cfbbf5686f650d418e8952b15f0e66d6b05acac1e5d6055fc2da8b6d5ca8a23e8d4afae48b6b7e65ea923f0d7aad315975e1cf42ce37bc5e49da9b8a242d2754cd22678366b3dd52bac051f11535c85d80785a785322e4172264327a5d9e02f3f3bcf3a364610e5dc2e6000306455e648aa2a8bad5d6deecf2fb063f49546a9499a4afbdd2f2f7f90d10141a1d294a5f727a85868a8d91a7d3d8e6eaecedf2f8fa161a263145494e4f555d5e64747a859fa9aec3c7d5e0e10000000f1d364d01fd2105007360f8558d8175ca90ca5738a203eff1a4b801a5352d3d9be0061c0878773653d6fed94c2ac00edf83c9955acaf0b988b4b6e6b053bf318cc8d4d481f05eb743d1a6acb9900cdcafed0b09019222d266f2c3b291e013bad5b8469a13fe90da793f9651c679a49ee987d08f2ff8c654733cddcbef6d1f0b2f4689fbd0d7bf3d35b156a6dd2a27df1b814c940f9a324edfa3c54dcb2e19cce34b47acb3ec6522dba1f43cd2aabfc1bd8569145fd32136f7e4b6e1875058420c8dfb4e1d69620c50cdb3b37bbc1cf3e4efd1c7d04221b95f19d05944ff748ff06eb3c251794a5deed320a0695c5b34518e088adbb4dcfe7953a2af232e4d281915917c5fd9ec4716fdec2bdebb8828f7b1be34068366f7bd31dbceecf9ea5cb2ac5eb7d697ef1fbfa19ca7c170642475095ad8e6e082a4b74d8afb0b1b6e30d5ea393c54dfd0bab5a2936cc7a49bcdb5b97406a4ff3c5c6e07deeac67ef6404db75a0faa9e5fb5bfbf81c164d537ee8c2a0118ffadf64523801f6a6f6b24142da525bc343f2df6ffaf01c6798f9d6dc7833c0c206b169f0ac4b5cec5ee7ed8b09c492619c86cade3d28e98d1a6304de0bfb48bb954d2b23ee144d5d526bfd5b3c271b8323f1e809f6de7c421a5678841d391bf4b9fcf9a48d75516917be2537ef4425608616e79889ce7945b48a40bbdce0b52b8a111e6ceb060bbb26edbf0c540b133e3e81f822d9dc998214149cfd8b79be7a8e7c1c2443faa1573ec724be2be45b888f02ca91f4c6715be33e22d70708020439b56fa7b7b2574fb45eb98a06420a383f20f6a996fcb434fc963f4c6f7694cc29a1c56d0a9d108a5e2b7e193627bfdec3e5c51f98c141a4cc3f2453235d853a30c58cf3fa385d391181e44a1a9f90cdc105eb9c33cadbcbf2a69d98a85c07a4b580b5ed25cfd984c96c9b94688db62e644937c797e0d840e3a70152bbf5b2f74341db7133cffdb0859ec440891971e407e14fa0cc744de54923b9087022b175917c1c63944cc375f3456f2b4890d9efe4f82cbafe8308eab2b40e44520749055940029749d560a04c3e9104b14d056c7c9a7bcf45115a0cb39424943683468a26689bcb1bcf734818298579623f2a33db126cd506e56dae9f8c909b62e1a1bae4b57e01c32cfee66a0f38370f6697bde30ef1fdec1d6efaa7103e55efe091cff376bf66e390db1a2350d025093f231b2b595e0d64d508f552e6168ce5a8cf9f9aabcbe99d4930f2aba22cc0c303a4fed854b600045648459ecc240122b1d902b019a1416b6498a61856c60b3a7052104caee0fbd71374121b7141f1415a9cd89ab2d09b2d72c1c975d10480485e6e960d6914cf40385c50cd92f993b1a24418c7dcf97f6e223c36657bf98e62260f0079fa4edbf53cbc18a176bc1a1d23b0179f76ed1b3d4b617c449d1bee94595aa87b58bd7f21170a567fe68109c649a9888cc6763b7658366fde19669e4e1c7e581e06c378067d33599e7ea95505042fba7f033204e0be92f9a850e4547a2ca5782acdbc4f5193fd92588e68f57a331004c2e87343ca401af7e6bb37da640e4bb72872588d02cb5a19461ce7f58366a598eb9f1bc7e99433ec4ab42f4e10dd62794ec22b1ea35f7a3407c324ac842a3b0a4448c15a8d2714028b1b94ad515832e4b1b58afe2f9dc16d70dcdc5beff2bc21c1d44d85739a706822821a4f817316cf546603168b543805f795250b9c59c1231b2429ef764d579e146bc9aad0e27cf44a5742d3c301da6f393d173e6472df991e590d3818953a8521ce0c7ed34fa754a545f4688d75cbcfecaffe0d9fb1aca0867cc88c3ca22d1d21e296f739e53ddcdc42d056078000000",
  "txid": "6b7d5b3ee971dfc70cce8e0c52ac0dc9c9a2fe2b64cc7f0fd3afc8ffc817e5df",
  "hash": "fed2fd52f8488cfa549ad8623c687f4feb328316a76eac93c929e3d8e79296fd",
  "size": 5085,
  "vsize": 2278,
  "version": 1,
  "locktime": 120,
  "vin": [
    {
      "txid": "dbad4a77045949057917d65c60aa46a499bdba2b585d00254822c61a444113e8",
      "vout": 1,
      "scriptSig": {
        "asm": "",
        "hex": ""
      },
      "txinwitness": [
        "88ca7517f078f4724cc4eb511ec68508b85a94a91961b097513396b1e148191785d26a47e83cf4da78071bb4df6e1ac4f6885ee3882ec17d50029f3072316bb52f714fb5d34060fbba1fcd159ed5b60f4c85be3179ccc4cdf681f320a79376d22b28282cdc4e056a24905465462457cb8ec9afaf88b76be93d56254b45af633f036bb119bd8dd8f75a1f01da98aef4532bd032443afcc1d1e6b53565858020fd8d27640982dcfcc9c63cc647de064408d5fbb774fb955d2e3bece6ec9af5db9ff9001ea97eab68e9699d43d7746bb4c6ddc8316a7d8ecaa858c19a9260217e54e8a8f74d0f83faa212cf7465160a6f9f19f37426281ea876fc963de68822619ab6b72d6296cf52365d57a2a52c241056132b4bccd2bba74b6ab5f0e283427309dd83e9cc98276b00a1d4e10f5874b9ea52b9bd138bd9d133d4b38cc1677f9d1d825b6b21729a49323d71ea36a5d993603846d4657e3e39e59cefc320c5c4419f0e7811c030943924a50bb843945d5a83f9e53fcfe5f245b31d1007622f26ed09636628287b2940a582b966c8cc1a17c4a8e1135204da92913b042547a332931a2dcd94e3ee6cc08b3d2305357b791c8c76a81fa3b6b2882f63bc82c787740061e30e8d691243a68da959306eb21f7b48dd9123c86f9fd9a28bea900abe0eabe85336fc6e61b41081dad1e92df0d931c043c09404f1ced03cdb429d0790b2d7f774fea53c089b0ad7847d4c722024d5311f73a10c5599eec7fa8e958762b941e6e469b08493a0e012ece09fed8d6dc618d8e1642d295bea45551de0ce56f7b6465f79522688afcd175894ec8d90bdeba7f58ed387daea5281cd96c80311804468cb244cb6958f69f351566f3ef41a054435757b86133e7b2bc77e2420c157237f8683ed2300d2ef518f216f7773c2ba4b464215d53115aa8d8861a8d800751a40774114abd6d98d78a0d99f821f7a8440ad9e6087c5c8774d6a38e4d8d9bdca7083c28b983c71c783e7b7efaf48f24e1c0f4ca601c80d152f0719a5c51881f8808c3f0e2ca2a10c8b49412d44551807425b35b4984bb7091a9f88ddbd8cfbd5e4da716b86d60a93bcc1d60c372ed55b7cdd515d96976f7a39b936f8fc050e6303cfaa82d47a21a6ec717b2b357183cc8592ab90c5062ff04e73c5fc04407b87bbf4e0b9402c3173a86b1da1fff17cd6762094ea4fb3dcaa1ebb9d986542a84a3caffae6e1a7df73467c54860f176b4efc20e8647f56fc814f910b868c715f5addfd921da52771e559285ea0d6f0bb3b08c80ea77f0ffcacb312bd89c2e064e618dbe6c69b53b6efb04e8304401725d7541610022d9e064d5ee713cee1672a7ec301eeea86878831e5c0cb2227ac7a1352bc1db91a7dbbd2603e8813f99f41e99abf60968a3f322b0d99157e40b21f0070b16f2cd9cb96b50e5f1a21046c7aa7efbfce9d884b1524e3b2afb796278ffb10ce92a12a54a088c85269f62215c4e91d8a10ceb44fc3a0608e8c9886b3d3a47ac18f4a4e15d26c64baad8acf162bf3359c07e26f5469432aa1339db4bca1890aa085d8aeb02195f4f1c33acf6ea307655d6e8720ceec8b1d8f0750c112410a9ea73914ea3830465e5bfd3e4972959d1099bfc282f30e5dff15dbd8c5b21810f88ea2936af3966c565d37131d82e1f97ef308efe84c703c98f804188bacd99f8fea3833192dc29c96b2d6a45040d879b6cfd367a9f058d60b2d9a761dd0d2c9f9fa6eec4ad76e462e7ebbf6d45e6ae8eb44921ed5ceba4cd26b45f91ccd5d1e7778fa25e2bae353e8445a4c640cf508b0f7f6e0b8ffe496a7375ec4429494b9a84a88de50177a43f55093d3884c345cba0aeeef6041e3864c61aec52675412b36c52d60f635a0df5b5f349da1c8b5f1aab4a7a3325425af5316d93ad0e71f71243a0f0fc462f2e2f07383c7d9f661b78cc15b676fc072850742542940fca0e4183e137d80bffbcef3ef808eef7d6d5d9106de2d418a99f568bc006e21e32e3b056b848374bdb42d10e21cf959feb676dbbd86cb7f029cd5b914f5af609a0d2ee930cef5f2142f570d092c1b3b6b0f7b05c49588deeda2444afe6bc5c691ca0cf7da7dfa63d857a8e7393f9615da8b9adac44671b1fed5e03fb46553455167ca720e8ac56678759ca36c353fee6048d0c9aebb616921a8b82554fc24db248ef8378c13bf794049b68f8e5881740f3b6834588641df8400c96dabf786a6db6b26a69bf2ec1b0b17e58014da785259358a8c80a12d4ae2c2b5d1d9b27aa1330e5dc236c2966bc7cfa3cab34d16b8a1575a8d618c55b513573eec4318b898dad3f463868b3da9b45a45a4db6e74d46285ee849df72b1e97eb6f0a1fe507aaf8dd51968d93000b0a12a694e44b481b77a13dac77476e344acb783e4d12b5785b0ae69092ddb98f16bd097bab2e9fa18bc0ee3e7a98bd130f5990efd6e255f49a372445e1b994c368c19fa8a8fa167594f20e52836561a1bc31453811981771a5a63b704e31ab464b89e6390d8ad86136546a7bc8983b3889b3ec9b214fd3ee5d0551d91cbdd97c6f5ab5695f82170f5c31b86c7d300abb94ae6b2cdc3851ad46fd0fb7b9e6847892c4fad2cd406d848b4794f17bed7e9367320f9a60d87df1718113dc5a54f8c3e7527ada037e417fab772a7fdccb16e55ab91a778e810bc42e8e471231a3fee39f8ed24dbe21bdeb98541456b63f59a850851d28d836494f0e2eabd5721dcfbdc7bd9ad25465b6ec79bd8e8bc16046d67d01090433568600065f592f46ef2f306544067eb95ffde31a97ae324f9551a99f0f56806402acc7dd53b8314bce61129bbf217521b26d42d32f405869a7ceb725988ca1d9bd15c96f93b59505812a0768cc8993654744cc72f41b6ec8e4ebce224b618d664b488e5a045274d5dac732be9acb6a72e6804d35406c17db38736e6bb2720d36de9a00b58c74985bc1acc748e3c30bec6173357670502cf19e3f67f4fd7fe9026d51ff9d02f3ff95c65e6f6819cd747d17dc8ab951e5d367ccd1a8d57df9e36cd265883061ce79cd28dd11923a4da518c09711bda0708a43dad0daf5722c6ebdb0a33044a41bdf27b6e026059f87a33cc66f89fb39ab631e7130819afad083bd2925c014e9f106af3085a2d9cfbbf5686f650d418e8952b15f0e66d6b05acac1e5d6055fc2da8b6d5ca8a23e8d4afae48b6b7e65ea923f0d7aad315975e1cf42ce37bc5e49da9b8a242d2754cd22678366b3dd52bac051f11535c85d80785a785322e4172264327a5d9e02f3f3bcf3a364610e5dc2e6000306455e648aa2a8bad5d6deecf2fb063f49546a9499a4afbdd2f2f7f90d10141a1d294a5f727a85868a8d91a7d3d8e6eaecedf2f8fa161a263145494e4f555d5e64747a859fa9aec3c7d5e0e10000000f1d364d01",
        "007360f8558d8175ca90ca5738a203eff1a4b801a5352d3d9be0061c0878773653d6fed94c2ac00edf83c9955acaf0b988b4b6e6b053bf318cc8d4d481f05eb743d1a6acb9900cdcafed0b09019222d266f2c3b291e013bad5b8469a13fe90da793f9651c679a49ee987d08f2ff8c654733cddcbef6d1f0b2f4689fbd0d7bf3d35b156a6dd2a27df1b814c940f9a324edfa3c54dcb2e19cce34b47acb3ec6522dba1f43cd2aabfc1bd8569145fd32136f7e4b6e1875058420c8dfb4e1d69620c50cdb3b37bbc1cf3e4efd1c7d04221b95f19d05944ff748ff06eb3c251794a5deed320a0695c5b34518e088adbb4dcfe7953a2af232e4d281915917c5fd9ec4716fdec2bdebb8828f7b1be34068366f7bd31dbceecf9ea5cb2ac5eb7d697ef1fbfa19ca7c170642475095ad8e6e082a4b74d8afb0b1b6e30d5ea393c54dfd0bab5a2936cc7a49bcdb5b97406a4ff3c5c6e07deeac67ef6404db75a0faa9e5fb5bfbf81c164d537ee8c2a0118ffadf64523801f6a6f6b24142da525bc343f2df6ffaf01c6798f9d6dc7833c0c206b169f0ac4b5cec5ee7ed8b09c492619c86cade3d28e98d1a6304de0bfb48bb954d2b23ee144d5d526bfd5b3c271b8323f1e809f6de7c421a5678841d391bf4b9fcf9a48d75516917be2537ef4425608616e79889ce7945b48a40bbdce0b52b8a111e6ceb060bbb26edbf0c540b133e3e81f822d9dc998214149cfd8b79be7a8e7c1c2443faa1573ec724be2be45b888f02ca91f4c6715be33e22d70708020439b56fa7b7b2574fb45eb98a06420a383f20f6a996fcb434fc963f4c6f7694cc29a1c56d0a9d108a5e2b7e193627bfdec3e5c51f98c141a4cc3f2453235d853a30c58cf3fa385d391181e44a1a9f90cdc105eb9c33cadbcbf2a69d98a85c07a4b580b5ed25cfd984c96c9b94688db62e644937c797e0d840e3a70152bbf5b2f74341db7133cffdb0859ec440891971e407e14fa0cc744de54923b9087022b175917c1c63944cc375f3456f2b4890d9efe4f82cbafe8308eab2b40e44520749055940029749d560a04c3e9104b14d056c7c9a7bcf45115a0cb39424943683468a26689bcb1bcf734818298579623f2a33db126cd506e56dae9f8c909b62e1a1bae4b57e01c32cfee66a0f38370f6697bde30ef1fdec1d6efaa7103e55efe091cff376bf66e390db1a2350d025093f231b2b595e0d64d508f552e6168ce5a8cf9f9aabcbe99d4930f2aba22cc0c303a4fed854b600045648459ecc240122b1d902b019a1416b6498a61856c60b3a7052104caee0fbd71374121b7141f1415a9cd89ab2d09b2d72c1c975d10480485e6e960d6914cf40385c50cd92f993b1a24418c7dcf97f6e223c36657bf98e62260f0079fa4edbf53cbc18a176bc1a1d23b0179f76ed1b3d4b617c449d1bee94595aa87b58bd7f21170a567fe68109c649a9888cc6763b7658366fde19669e4e1c7e581e06c378067d33599e7ea95505042fba7f033204e0be92f9a850e4547a2ca5782acdbc4f5193fd92588e68f57a331004c2e87343ca401af7e6bb37da640e4bb72872588d02cb5a19461ce7f58366a598eb9f1bc7e99433ec4ab42f4e10dd62794ec22b1ea35f7a3407c324ac842a3b0a4448c15a8d2714028b1b94ad515832e4b1b58afe2f9dc16d70dcdc5beff2bc21c1d44d85739a706822821a4f817316cf546603168b543805f795250b9c59c1231b2429ef764d579e146bc9aad0e27cf44a5742d3c301da6f393d173e6472df991e590d3818953a8521ce0c7ed34fa754a545f4688d75cbcfecaffe0d9fb1aca0867cc88c3ca22d1d21e296f739e53ddcdc42d0560"
      ],
      "sequence": 4294967294
    }
  ],
  "vout": [
    {
      "value": 499984.7465,
      "n": 0,
      "scriptPubKey": {
        "asm": "1 2faca63e29b09e7c255b36f9b3ee4d3f453d6349d1e88505e88d9a85c59d9e31",
        "hex": "51202faca63e29b09e7c255b36f9b3ee4d3f453d6349d1e88505e88d9a85c59d9e31",
        "reqSigs": 1,
        "type": "witness_v1_scripthash",
        "addresses": [
          "3QJmnh"
        ]
      }
    },
    {
      "value": 1.0,
      "n": 1,
      "scriptPubKey": {
        "asm": "OP_RETURN 6b1478615b6550ab671522dc15bd36ea712af18db2e6807d5432beb46d761a15 1a8dca41ad488b4ed853880780fb6d2dec6baea680a73db83e222242d4b368493aadea618d68ab6ef873a827a0db4d0dcc4b8e86a0871d981e020262f49348695acd8a01ed08cb0e9813c847c0bb2d6dac2beee6c0e77df87e62620294f328097aedaa21cd28eb2eb833e867e09b0d4d8c0bcec6e0c75dd85e424222b4d308299a0d4ac12dc80bce58d30887007bedad6ceb2e260027bd38bea2a2c25433e8c9ba2d6ae10de82bee78f328a7205bcd8d4ccb0e0620079d189e8282e27413c8e9da4d0a816d884b8e189348c7403baded2cab6e664067fd78fee2e2821473a889fa6d2aa14da86bae38b368e7601b8dcd0c8b4e466047dd58dec2c2a2345388a91a8dca41ad488b4ed853880780fb6d2dec6baea680a73db83e222242d4b368493aadea618d68ab6ef873a827a0db4d0dcc4b8e86a0871d981e020262f49348695acd8a01ed08cb0e9813c847c0bb2d6dac2beee6c0e77df87e62620294f328097aedaa21cd28eb2eb833e867e09b0d4d8c0bcec6e0c75dd85e424222b4d308299a0d4ac12dc80bce58d30887007bedad6ceb2e260027bd38bea2a2c25433e8c9ba2d6ae10de82bee78f328a7205bcd8d4ccb0e0620079d189e8282e27413c8e9da4d0a816d884b8e189348c7403baded2cab6e664067fd78fee2e2821473a889fa6d2aa14da86bae38b368e7601b8dcd0c8b4e466047dd58dec2c2a2345388a91a8dca41ad488b4ed853880780fb6d2dec6baea680a73db83e222242d4b368493aadea618d68ab6ef873a827a0db4d0dcc4b8e86a0871d981e020262f49348695acd8a01ed08cb0e9813c847c0bb2d6dac2beee6c0e77df87e62620294f328097aedaa21cd28eb2eb833e867e09b0d4d8c0bcec6e0c75dd85e424222b4d308299a0d4ac12dc80bce58d30887007bedad6ceb2e260027bd38bea2a2c25433e8c9ba2d6ae10de82bee78f328a7205bcd8d4ccb0e0620079d189e8282e27413c8e9da4d0a816d884b8e189348c7403baded2cab6e664067fd78fee2e2821473a889fa6d2aa14da86bae38b368e7601b8dcd0c8b4e466047dd58dec2c2a2345388a91a8dca41ad488b4ed853880780fb6d2dec6baea680a73db83e222242d4b368493aadea618d68ab6ef873a827a0db4d0dcc4b8e86a0871d981e020262f49348695acd8a01ed08cb0e9813c847c0bb2d6dac2beee6c0e77df87e62620294f328097aedaa21cd28eb2eb833e867e09b0d4d8c0bcec6e0c75dd85e424222b4d308299a0d4ac12dc80bce58d30887007bedad6ceb2e260027bd38bea2a2c25433e8c9ba2d6ae10de82bee78f328a7205bcd8d4ccb0e0620079d189e8282e27413c8e9da4d0a816d884b8e189348c7403baded2cab6e664067fd78fee2e2821473a889fa6d2aa14da86bae38b368e7601b8dcd0c8b4e466047dd58dec2c2a2345388a91a8dca41ad488b4ed853880780fb6d2dec6baea680a73db83e222242d4b368493aadea618d68ab6ef873a827a0db4d0dcc4b8e86a0871d981e020262f49348695acd8a01ed08cb0e9813c847c0bb2d6dac2beee6c0e77df87e62620294f328097aedaa21cd28eb2eb833e867e09b0d4d8c0bcec6e0c75dd85e424222b4d308299a0d4ac12dc80bce58d30887007bedadb713a9d7f037364cfe5ecb1c5c868cda1a9c512e8dc9e69e128f125ef9901c80",
        "hex": "6a206b1478615b6550ab671522dc15bd36ea712af18db2e6807d5432beb46d761a154db0041a8dca41ad488b4ed853880780fb6d2dec6baea680a73db83e222242d4b368493aadea618d68ab6ef873a827a0db4d0dcc4b8e86a0871d981e020262f49348695acd8a01ed08cb0e9813c847c0bb2d6dac2beee6c0e77df87e62620294f328097aedaa21cd28eb2eb833e867e09b0d4d8c0bcec6e0c75dd85e424222b4d308299a0d4ac12dc80bce58d30887007bedad6ceb2e260027bd38bea2a2c25433e8c9ba2d6ae10de82bee78f328a7205bcd8d4ccb0e0620079d189e8282e27413c8e9da4d0a816d884b8e189348c7403baded2cab6e664067fd78fee2e2821473a889fa6d2aa14da86bae38b368e7601b8dcd0c8b4e466047dd58dec2c2a2345388a91a8dca41ad488b4ed853880780fb6d2dec6baea680a73db83e222242d4b368493aadea618d68ab6ef873a827a0db4d0dcc4b8e86a0871d981e020262f49348695acd8a01ed08cb0e9813c847c0bb2d6dac2beee6c0e77df87e62620294f328097aedaa21cd28eb2eb833e867e09b0d4d8c0bcec6e0c75dd85e424222b4d308299a0d4ac12dc80bce58d30887007bedad6ceb2e260027bd38bea2a2c25433e8c9ba2d6ae10de82bee78f328a7205bcd8d4ccb0e0620079d189e8282e27413c8e9da4d0a816d884b8e189348c7403baded2cab6e664067fd78fee2e2821473a889fa6d2aa14da86bae38b368e7601b8dcd0c8b4e466047dd58dec2c2a2345388a91a8dca41ad488b4ed853880780fb6d2dec6baea680a73db83e222242d4b368493aadea618d68ab6ef873a827a0db4d0dcc4b8e86a0871d981e020262f49348695acd8a01ed08cb0e9813c847c0bb2d6dac2beee6c0e77df87e62620294f328097aedaa21cd28eb2eb833e867e09b0d4d8c0bcec6e0c75dd85e424222b4d308299a0d4ac12dc80bce58d30887007bedad6ceb2e260027bd38bea2a2c25433e8c9ba2d6ae10de82bee78f328a7205bcd8d4ccb0e0620079d189e8282e27413c8e9da4d0a816d884b8e189348c7403baded2cab6e664067fd78fee2e2821473a889fa6d2aa14da86bae38b368e7601b8dcd0c8b4e466047dd58dec2c2a2345388a91a8dca41ad488b4ed853880780fb6d2dec6baea680a73db83e222242d4b368493aadea618d68ab6ef873a827a0db4d0dcc4b8e86a0871d981e020262f49348695acd8a01ed08cb0e9813c847c0bb2d6dac2beee6c0e77df87e62620294f328097aedaa21cd28eb2eb833e867e09b0d4d8c0bcec6e0c75dd85e424222b4d308299a0d4ac12dc80bce58d30887007bedad6ceb2e260027bd38bea2a2c25433e8c9ba2d6ae10de82bee78f328a7205bcd8d4ccb0e0620079d189e8282e27413c8e9da4d0a816d884b8e189348c7403baded2cab6e664067fd78fee2e2821473a889fa6d2aa14da86bae38b368e7601b8dcd0c8b4e466047dd58dec2c2a2345388a91a8dca41ad488b4ed853880780fb6d2dec6baea680a73db83e222242d4b368493aadea618d68ab6ef873a827a0db4d0dcc4b8e86a0871d981e020262f49348695acd8a01ed08cb0e9813c847c0bb2d6dac2beee6c0e77df87e62620294f328097aedaa21cd28eb2eb833e867e09b0d4d8c0bcec6e0c75dd85e424222b4d308299a0d4ac12dc80bce58d30887007bedadb713a9d7f037364cfe5ecb1c5c868cda1a9c512e8dc9e69e128f125ef9901c80",
        "type": "nulldata"
      }
    }
  ],
  "blockhash": "0125d69e6984563ac74cb1b0b8601a67b424e71230e7918fa710584dbb11162a",
  "confirmations": 1,
  "time": 1764180090,
  "blocktime": 1764180090
}