{
  "hex": "01000000000101fe62d0047ce6cb44a9482b177378494ae13b679041c1e0d80c6dcc22a3f4247f0100000000feffffff026076a04b792d000022512099921e48e87ecf96f12f47466ad5ac43d25da6de65c230ee767a1b75bec46a3400e1f50500000000fdd5046a20c4b511c5da203a538f24d94798e566c5408007a3b6052e94a5dc493c574d95154db004526b422a9db9d1a27648ac2d1def9814de91cc5d7bfcc2097b04b9604cc1bf83724b620abd99f18256688c0d3dcfb834feb1ec7d5bdce2295b2499406ce19fa3122b026addf991e23608ec6d5dafd8549ed18c1d3bbc82493b44f9200c81ffc3320b224afdd9b1c21628cc4d7d8ff874bef1ac3d1b9ca2691b64d9002ca1dfe3d2ebc2aa1d395122f6c82cad9d6f18945e114cddfb7c4289fb8439e0cc413f03f2cbe28a3d197102d6e80c8dbd4f38b47e316cfddb5c62a9dba419c0ec611f2392ab82ea5d791162b6886ceddd2f58d41e510c9dbb3c02c9bbc479a08c017f43b28ba2ca7d59314296a84ccdfd0f78f43e712cbd9b1c22e99be45980ac215f63526b422a9db9d1a27648ac2d1def9814de91cc5d7bfcc2097b04b9604cc1bf83724b620abd99f18256688c0d3dcfb834feb1ec7d5bdce2295b2499406ce19fa3122b026addf991e23608ec6d5dafd8549ed18c1d3bbc82493b44f9200c81ffc3320b224afdd9b1c21628cc4d7d8ff874bef1ac3d1b9ca2691b64d9002ca1dfe3d2ebc2aa1d395122f6c82cad9d6f18945e114cddfb7c4289fb8439e0cc413f03f2cbe28a3d197102d6e80c8dbd4f38b47e316cfddb5c62a9dba419c0ec611f2392ab82ea5d791162b6886ceddd2f58d41e510c9dbb3c02c9bbc479a08c017f43b28ba2ca7d59314296a84ccdfd0f78f43e712cbd9b1c22e99be45980ac215f63526b422a9db9d1a27648ac2d1def9814de91cc5d7bfcc2097b04b9604cc1bf83724b620abd99f18256688c0d3dcfb834feb1ec7d5bdce2295b2499406ce19fa3122b026addf991e23608ec6d5dafd8549ed18c1d3bbc82493b44f9200c81ffc3320b224afdd9b1c21628cc4d7d8ff874bef1ac3d1b9ca2691b64d9002ca1dfe3d2ebc2aa1d395122f6c82cad9d6f18945e114cddfb7c4289fb8439e0cc413f03f2cbe28a3d197102d6e80c8dbd4f38b47e316cfddb5c62a9dba419c0ec611f2392ab82ea5d791162b6886ceddd2f58d41e510c9dbb3c02c9bbc479a08c017f43b28ba2ca7d59314296a84ccdfd0f78f43e712cbd9b1c22e99be45980ac215f63526b422a9db9d1a27648ac2d1def9814de91cc5d7bfcc2097b04b9604cc1bf83724b620abd99f18256688c0d3dcfb834feb1ec7d5bdce2295b2499406ce19fa3122b026addf991e23608ec6d5dafd8549ed18c1d3bbc82493b44f9200c81ffc3320b224afdd9b1c21628cc4d7d8ff874bef1ac3d1b9ca2691b64d9002ca1dfe3d2ebc2aa1d395122f6c82cad9d6f18945e114cddfb7c4289fb8439e0cc413f03f2cbe28a3d197102d6e80c8dbd4f38b47e316cfddb5c62a9dba419c0ec611f2392ab82ea5d791162b6886ceddd2f58d41e510c9dbb3c02c9bbc479a08c017f43b28ba2ca7d59314296a84ccdfd0f78f43e712cbd9b1c22e99be45980ac215f63526b422a9db9d1a27648ac2d1def9814de91cc5d7bfcc2097b04b9604cc1bf83724b620abd99f18256688c0d3dcfb834feb1ec7d5bdce2295b2499406ce19fa3122b026addf991e23608ec6d5dafd8549ed18c1d3bbc82493b44f9200c81ffc3320b224afdd9b1c21628cc4d7d8ff874bef1ac3d1b9ca2691b64d9002ca1dfe3d2ebc2aa1d395122f6c82cad9d6f18948a2f2d2b9be9ab41dd49fbb92b1ef6b5063d822a3d64713dfdfece78246481cc02fd7509369eda158a67f8367ea345b3bbed942570a4ec7c3422b91fc1cd0ff5b1d57aa255c0c620c901d77d87495c4121e9d1222afc9747ede6d88bff87bb0c2148992f248da6dffe283a6337c1cf8d6ecac52d7732d1cf60415d56d9c2d6dd6448cade0db8e1c5041e420c90c3ef43a707550c17f58cb488f6ee363cac662c245d01e2d6cad0a8f07796a66348ab2e0590a3ab1756a0aee9541c00f6dc60808d4ef998a0df1685cddbe28e8e9c64de92b2162f3aa6c4f3ef6cb46ce16815764ba27c014459e42cfb24fc1454a4d5c53aef2919643aa75a957827cd35e203db0fba9cad86d7323ba39c9aadd120cf44f912b55abf096b7fd72dcf91700aeab23b990646da93e54dee99e0edb047bd986f5e80154dbcf9c7640324818a1cd841da7ed26fc65c41c796bdb34c827ad43e4d2b9fc7f29969b20cac10b3b0184d115b77c378930970bd9d8991051b4ac67d0328f3e2e19e3824d1e0ad61555a89afb5a6930c277a333de0f55fbcead9b566b14526cf90ca31deaf1a045e47133fc09d95723c4f2c348d0c2668b724e7900452f6c7933334efaf8cc6c6003b7cc2246c1abbe609cd353e9acd8244e16feb955a5247ace78ef26ca39ac432d8d68e3baa420c217c000f76aa4359bf99c7482dad6cdb80e0a3ca14167dc7a7c4c2b1a8427788c2c5123d00562934fcfa539a99f1eb5a63eb316a354f7d55d78f12cb9e1e0158c2927c41918bb66accbea022a3aacd1cf6963737b8d88c15280bdd61af5dd2ebf1e068b3148670fd9ee59dbf382b41210a80f19bc5d64b2337bd42173a0cef67fc8c48328a72ce27063d214cc0e0d253d27f46f69078811f357316a54993627bf6df2277bc0410e5c11128efde127df951faeb2daeb72e62be6aa92ddd1d8fd35b67ccfee065a9ee6ca69dab58c741714c45f79df604f4677c72b43eee5f7227fa1543db8539cf14abefc028043d0456bac2aee5e9046c353494e177e7d30197d2f863fe8ac7f472c6680fb45099ccd420707308f16fdee26b151ec16ad06c90fc2167e7ba6824e5305b2ce860b0a45604ec7e890c66b809eeea0152cce04f63e6cb0e0d883bb1b5748c7beee7848865bd0cd8f194fa127182bbd584bfc644e57ace6942140d682dd7428191a61166e529db8d86fdf54363e4ae92912fdf80cb8f3d156d8ab59bb4dafea55d467d3b6efc6290dba7855f72ae932ab782cfad48ba6b749b6ee938edf0a1fa8718060f287e943dfaa7703feef52dfc91eb4150b3e03e5016f4bb29fc1b48667d29de8cc02cf51c2c7b1d1485d42ec8b7ed6679d87ca3e40e29263757fc79b6ff266c8d767ea0331a4f7989cc245a43e21654c687cb62ec43593c66c3bfa8b2b62e2076739a14900bc6765c08547db286c212e66aaa92b2f1839b711f101db140746497dd66d81c7a2b5a57d595060ce40175d3ca8d31d47c1252c4240335d32556cb592748695adc99afa8c6f4d70191df86cb86be8ed375d5f72c2f81b19ff979ba6d99abf7df989e87525dec8a6ea97f382ac9ac62590548cfef1a3944420122c464627a813c8e7c7af10adf3ee0340331a42d81200631d836386c0e3a41a37727ca911bd07fad6a09498b5665d90e4c8594ce51cd454c43d67674c51c502b1d0cc98220480749e88d0a8b91504d21e221be8298ba7598ab2ed0b82bccdaaf762c185af92a3a45849a30d9b762e72e68b5ad8f168dab3e54c7a7651455f39f03ca09fd4c033abab4eb6b8273b3e99756d18f20c63664a79d6d3e2293143904a107a22b11c6d97ac87e4233914ee87adf19616fbf237cc03622d9336f5470070a30f5d4db3b528b5e0a8e72ac5ec145749c6a64f2e02719b01da256520dfa3f98a2a1db5d7bd97aa5b2466450fa7105308ee0dfff2b17a038ddc252f30a1176440474c778f0cc30df3874cd70eb24cd149498b7a9b523fd89527de6bc8bde55830dabc1f1814bc4150082401d3adab128adf7e50cf7772bffc45407adaadceb4268e07321e3f963604cfbad36cccd7cf52d566cb5e9b91e8f9898db4a65beef946107cf48f4af7215bedeef64d31906fb33d6eb8fdaf86ab18485b2c59f944693dc398bb1e21834a669ffed8457e8a8e61306e468207b46f6090075a7bbaf2252d420753080c099d21bfd5d75ec1cede5ba62b8335b199e371b75245e7265a10c3ee045251e81cc497ac1c11289483d7ab0e566d305a460347e503fc92fea3a1ccbec792663375ee7987a41c1a18e13bd9875bcdfdfd30b05c4ab374c0d6fc02496574793afb055852ad76ae599342a7fddd1a04487875f6e14c9cf6c95b43462b076b8815fd07d01c1b47584cd932e5f6c10c265c0258f69d30d55db5a5caa1b6aba89ee945f053f27994525d2c8531b5e849336bf6665247eda2ce2ad54411afce88a5a74920db69024d7b06776a08b7dde860d2ca726659598e136238b361ef4e0093b84e0dc6e9e628e49087123adc03f79d6fff2e09aaa1bcf976963eaabdc34a611e6107fa44048906d2a46896d9c593d32f91efc1dab2fe8697cda41f85a1fa4ae3637c3c464473d6df7a72c4ea59ba59ee6e3f6913ec8b29de9eb4b7c1466a30310736aeb5ca0f49b9a601de164f46cbea4761cd2927a68bb5f97f3f4937e612ecd3132632b5853e5d2ab82fb8af6168058ee0016a071a121fb9f09f38a687c2e5a28b25f2d7c02af7669c33806a005b008aaa22750468ed641e3b4d45758b891a0eaace675609e987c6294e3c7e00eabac21b2cb8d54bba3f8deced15b8d0f23d8940ef2f1b0c0f908ff2b94e4f6616bd850fb64ea92cbb82acdabafd167d138cd64a270b136821846f101cf39c63d001a94a9c4a1f5f2b355c9bff5b0a29505b3dc88bff13ef8913f6d0baf7892edd1947799e44bc08136b124e7591f78aa238a31edd6bc5b9aca628650f362491e930fb41c6935e9a225351aeefb7ebf1797d78efbd0c51b64312f61a4211365c615ab1f605c9077e7943bdcb052a421e348ee126aa2b03d313f99acb8a4aabf3ef2dca4166e107891c2fab2f8add1c4fa85f722c78bb7cfafcad3bc05e80e91666d260f6cd344efb752ec824bee443146ff6ee0a5d58bd8347e4ce54c3a5d8843c42b209de2667de17aaa9bda9b90b6c046b3c5834fcdc2d61ab7af2cc22c4ef712617d2ffdd1764810f4313ac620f90c17a88a64661cdabe051c8fb5f193f517ae4c7aa5586cfc13a23cdaa151579e7b995bf239ba1dc0bb961419a9eb82e08d78dd1cc3c05cc7759c58c613c86765ab0b577ef53ce73a4609a5076bab4cff2d830434464e4f579eaeb2b4cfd2dcdef305091218353d474e5568788b90a6fd0e283546565864717b7db7c5c6c9d6f0fcff15262a425b5f6275767b8a8c8e9aa0b8c5fa00000000000000000000000000000f1e304201fd210500203b820c45e501e99cf4f71f36a1d3189a3c94c471e9f0b5685ae99c91785bbd2ba9851354df33b5f2ec1f6f6d80a4859344288fd436f3d0351a4015a4433e762866e023832f5e6668db46b83d7b6b81e17849cbcf5b55dd05d1a49e06e3a9145a1c54292fbd380e629e6fa67ebe53cdbbb6758a5c28deedf3b447a952ddbf5ad8afcdbfea0860cfd46ca838fdb47e54b3538c0b45b3380e7a9159ce6b39d97479068afe50d60de0dbe4840a2a00ee83c51696fa6a442e222cb303b0f8084ea4c52ba2b41b04fbf7ac62ff5567cb0319cd1a4ca3e8692a90e776d84ecc82a49ef3d9bc16acda6df4edadb82bb872d3699ce260953b5c9bae8b477e1a42847ba6ea84916cb17a516f7ef6f9565e7aaa2d980263fcc709166785fb1ba465a47cbc2546b50d3ddb89719028de73aa2e78128a291b52fd09b0cb73cc1029e92be76d716f25b2a0e8fda4e92aa8a7ba2cfbfd0fde7313a3bc16b0c2414c197f9e256df31466ab3dd7abc87531077d32dfe0a562f764a3dad0a8e6550f39427ddc3b2b25857dc4f00d8b7eaa543087afa9b611c1dbc079e5ca831428a2be54920b2afad1ccaa749f4fc389551dfabc50ecac7465a5e3c30d19b9c1b15fed7d33d914de9fddc33b2b8883abd72d281fdbc1dfcbb1b51831eef9fd4b1df0ae109dbf9af0838aab901d5f4180f5cc80420589bd486eb7f1e769466e374527e218e3b6d2026542a47d54b08ad9a9ee892af2320c173b8da455186829f7a2e04c5b0f4b2505dc17fc6bdf98a57ed0be08b5574ca3d9cbf8d6c758773ced38ac0b7053618dc43913a3a5763f88a463358c4fd1907788cb632fbf33d8e773c46052488425219056c5d3c28856094f4d91fc952205893cde4519340d4b7d20b3b0125cc5a45f6667f8cfd10ff346f1fee6c0fdcd7e71731c7d0e0c2ea7d2b673e28bbde206cbda05c2aef4d2416a7c9c206702459783e561de2fff3ab4afe33ac1a774f3917e1033f9f35c68341eafc3e879c02869a3a97bbd84e5cac474fe840876cd7bfd87b963ff30cf70fcf20fe9de4c40a32c14561c1a670797a724c98bddae47852e290765e14d133c927a3a8b806121ceba103d4b6c7ce794b6969e1fcb2edb50850e9e3b6b48386d495690a911224dab54a2347ddb84f18cf120bd2a5ce12e2b0039c8093e092ce2eb60460163feaf31e13802562d727ba26a44dc0df5ce0833a8565c358e4df287c15bafce5ccce355deb6b1aa5d6dc3e20dfcea2f87d3b0d3c5756cfb3ee517427781713812f4e771a0c9b6b04c40cd940c85ef1e548fa8ecaa11de771f30fc4da8ef7154faba52810e5c904ea15d0a944eb242b563ffa13c50690045d4d152a9162494935a0f4360d9d7a4a6a2604e7f12f1eb890daf3ab371267a38495b27333825d77f6478ad1512947535e02ec763da947f354bd3f87e874e69c07786d62958a39f5bf32d72dbc856f32461a2d2c49d267b047449bb5e62ba85d9c2160101467a1c66d5301ddde2a240d3a851968f1d08bbe692876c6b30e6f1fdbf43a938be6d24f178a1739c92e5a92348f682d57b347f1f4163146aa780da79c2eeb0510f45dae8db251367f1e302d49120b34969668fb95f343df2f235483d70780f5c6011e9c8548d698bf19b2d26c9adc336fb6ef9453ec65abb4342989c0171b3182928b66e627474738585e73ad6f21a0315558830e9b4262765eeb431517c57d4d4c7472b970c2205b738b8de83fa0a554013f02e5b3e3e3c7e28528f7c9b3eaa6c530da258da0443a04fd271665f352056475a92ee53097c73a4f5792a949c82584b0341a267c0d775b79e1b800651f4a4b44e8669bdf057e9c6616c000000",
  "txid": "664c1519679b8e3d8236c1d607633f171d3a33c90411a6ef1b94ecf996ebddd8",
  "hash": "069145509254885913653c56791aabdfecdd28191c268bd6fa2abc3675a5d894",
  "size": 5085,
  "vsize": 2278,
  "version": 1,
  "locktime": 108,
  "vin": [
    {
      "txid": "7f24f4a322cc6d0cd8e0c14190673be14a497873172b48a944cbe67c04d062fe",
      "vout": 1,
      "scriptSig": {
        "asm": "",
        "hex": ""
      },
      "txinwitness": [
        "369eda158a67f8367ea345b3bbed942570a4ec7c3422b91fc1cd0ff5b1d57aa255c0c620c901d77d87495c4121e9d1222afc9747ede6d88bff87bb0c2148992f248da6dffe283a6337c1cf8d6ecac52d7732d1cf60415d56d9c2d6dd6448cade0db8e1c5041e420c90c3ef43a707550c17f58cb488f6ee363cac662c245d01e2d6cad0a8f07796a66348ab2e0590a3ab1756a0aee9541c00f6dc60808d4ef998a0df1685cddbe28e8e9c64de92b2162f3aa6c4f3ef6cb46ce16815764ba27c014459e42cfb24fc1454a4d5c53aef2919643aa75a957827cd35e203db0fba9cad86d7323ba39c9aadd120cf44f912b55abf096b7fd72dcf91700aeab23b990646da93e54dee99e0edb047bd986f5e80154dbcf9c7640324818a1cd841da7ed26fc65c41c796bdb34c827ad43e4d2b9fc7f29969b20cac10b3b0184d115b77c378930970bd9d8991051b4ac67d0328f3e2e19e3824d1e0ad61555a89afb5a6930c277a333de0f55fbcead9b566b14526cf90ca31deaf1a045e47133fc09d95723c4f2c348d0c2668b724e7900452f6c7933334efaf8cc6c6003b7cc2246c1abbe609cd353e9acd8244e16feb955a5247ace78ef26ca39ac432d8d68e3baa420c217c000f76aa4359bf99c7482dad6cdb80e0a3ca14167dc7a7c4c2b1a8427788c2c5123d00562934fcfa539a99f1eb5a63eb316a354f7d55d78f12cb9e1e0158c2927c41918bb66accbea022a3aacd1cf6963737b8d88c15280bdd61af5dd2ebf1e068b3148670fd9ee59dbf382b41210a80f19bc5d64b2337bd42173a0cef67fc8c48328a72ce27063d214cc0e0d253d27f46f69078811f357316a54993627bf6df2277bc0410e5c11128efde127df951faeb2daeb72e62be6aa92ddd1d8fd35b67ccfee065a9ee6ca69dab58c741714c45f79df604f4677c72b43eee5f7227fa1543db8539cf14abefc028043d0456bac2aee5e9046c353494e177e7d30197d2f863fe8ac7f472c6680fb45099ccd420707308f16fdee26b151ec16ad06c90fc2167e7ba6824e5305b2ce860b0a45604ec7e890c66b809eeea0152cce04f63e6cb0e0d883bb1b5748c7beee7848865bd0cd8f194fa127182bbd584bfc644e57ace6942140d682dd7428191a61166e529db8d86fdf54363e4ae92912fdf80cb8f3d156d8ab59bb4dafea55d467d3b6efc6290dba7855f72ae932ab782cfad48ba6b749b6ee938edf0a1fa8718060f287e943dfaa7703feef52dfc91eb4150b3e03e5016f4bb29fc1b48667d29de8cc02cf51c2c7b1d1485d42ec8b7ed6679d87ca3e40e29263757fc79b6ff266c8d767ea0331a4f7989cc245a43e21654c687cb62ec43593c66c3bfa8b2b62e2076739a14900bc6765c08547db286c212e66aaa92b2f1839b711f101db140746497dd66d81c7a2b5a57d595060ce40175d3ca8d31d47c1252c4240335d32556cb592748695adc99afa8c6f4d70191df86cb86be8ed375d5f72c2f81b19ff979ba6d99abf7df989e87525dec8a6ea97f382ac9ac62590548cfef1a3944420122c464627a813c8e7c7af10adf3ee0340331a42d81200631d836386c0e3a41a37727ca911bd07fad6a09498b5665d90e4c8594ce51cd454c43d67674c51c502b1d0cc98220480749e88d0a8b91504d21e221be8298ba7598ab2ed0b82bccdaaf762c185af92a3a45849a30d9b762e72e68b5ad8f168dab3e54c7a7651455f39f03ca09fd4c033abab4eb6b8273b3e99756d18f20c63664a79d6d3e2293143904a107a22b11c6d97ac87e4233914ee87adf19616fbf237cc03622d9336f5470070a30f5d4db3b528b5e0a8e72ac5ec145749c6a64f2e02719b01da256520dfa3f98a2a1db5d7bd97aa5b2466450fa7105308ee0dfff2b17a038ddc252f30a1176440474c778f0cc30df3874cd70eb24cd149498b7a9b523fd89527de6bc8bde55830dabc1f1814bc4150082401d3adab128adf7e50cf7772bffc45407adaadceb4268e07321e3f963604cfbad36cccd7cf52d566cb5e9b91e8f9898db4a65beef946107cf48f4af7215bedeef64d31906fb33d6eb8fdaf86ab18485b2c59f944693dc398bb1e21834a669ffed8457e8a8e61306e468207b46f6090075a7bbaf2252d420753080c099d21bfd5d75ec1cede5ba62b8335b199e371b75245e7265a10c3ee045251e81cc497ac1c11289483d7ab0e566d305a460347e503fc92fea3a1ccbec792663375ee7987a41c1a18e13bd9875bcdfdfd30b05c4ab374c0d6fc02496574793afb055852ad76ae599342a7fddd1a04487875f6e14c9cf6c95b43462b076b8815fd07d01c1b47584cd932e5f6c10c265c0258f69d30d55db5a5caa1b6aba89ee945f053f27994525d2c8531b5e849336bf6665247eda2ce2ad54411afce88a5a74920db69024d7b06776a08b7dde860d2ca726659598e136238b361ef4e0093b84e0dc6e9e628e49087123adc03f79d6fff2e09aaa1bcf976963eaabdc34a611e6107fa44048906d2a46896d9c593d32f91efc1dab2fe8697cda41f85a1fa4ae3637c3c464473d6df7a72c4ea59ba59ee6e3f6913ec8b29de9eb4b7c1466a30310736aeb5ca0f49b9a601de164f46cbea4761cd2927a68bb5f97f3f4937e612ecd3132632b5853e5d2ab82fb8af6168058ee0016a071a121fb9f09f38a687c2e5a28b25f2d7c02af7669c33806a005b008aaa22750468ed641e3b4d45758b891a0eaace675609e987c6294e3c7e00eabac21b2cb8d54bba3f8deced15b8d0f23d8940ef2f1b0c0f908ff2b94e4f6616bd850fb64ea92cbb82acdabafd167d138cd64a270b136821846f101cf39c63d001a94a9c4a1f5f2b355c9bff5b0a29505b3dc88bff13ef8913f6d0baf7892edd1947799e44bc08136b124e7591f78aa238a31edd6bc5b9aca628650f362491e930fb41c6935e9a225351aeefb7ebf1797d78efbd0c51b64312f61a4211365c615ab1f605c9077e7943bdcb052a421e348ee126aa2b03d313f99acb8a4aabf3ef2dca4166e107891c2fab2f8add1c4fa85f722c78bb7cfafcad3bc05e80e91666d260f6cd344efb752ec824bee443146ff6ee0a5d58bd8347e4ce54c3a5d8843c42b209de2667de17aaa9bda9b90b6c046b3c5834fcdc2d61ab7af2cc22c4ef712617d2ffdd1764810f4313ac620f90c17a88a64661cdabe051c8fb5f193f517ae4c7aa5586cfc13a23cdaa151579e7b995bf239ba1dc0bb961419a9eb82e08d78dd1cc3c05cc7759c58c613c86765ab0b577ef53ce73a4609a5076bab4cff2d830434464e4f579eaeb2b4cfd2dcdef305091218353d474e5568788b90a6fd0e283546565864717b7db7c5c6c9d6f0fcff15262a425b5f6275767b8a8c8e9aa0b8c5fa00000000000000000000000000000f1e304201",
        "00203b820c45e501e99cf4f71f36a1d3189a3c94c471e9f0b5685ae99c91785bbd2ba9851354df33b5f2ec1f6f6d80a4859344288fd436f3d0351a4015a4433e762866e023832f5e6668db46b83d7b6b81e17849cbcf5b55dd05d1a49e06e3a9145a1c54292fbd380e629e6fa67ebe53cdbbb6758a5c28deedf3b447a952ddbf5ad8afcdbfea0860cfd46ca838fdb47e54b3538c0b45b3380e7a9159ce6b39d97479068afe50d60de0dbe4840a2a00ee83c51696fa6a442e222cb303b0f8084ea4c52ba2b41b04fbf7ac62ff5567cb0319cd1a4ca3e8692a90e776d84ecc82a49ef3d9bc16acda6df4edadb82bb872d3699ce260953b5c9bae8b477e1a42847ba6ea84916cb17a516f7ef6f9565e7aaa2d980263fcc709166785fb1ba465a47cbc2546b50d3ddb89719028de73aa2e78128a291b52fd09b0cb73cc1029e92be76d716f25b2a0e8fda4e92aa8a7ba2cfbfd0fde7313a3bc16b0c2414c197f9e256df31466ab3dd7abc87531077d32dfe0a562f764a3dad0a8e6550f39427ddc3b2b25857dc4f00d8b7eaa543087afa9b611c1dbc079e5ca831428a2be54920b2afad1ccaa749f4fc389551dfabc50ecac7465a5e3c30d19b9c1b15fed7d33d914de9fddc33b2b8883abd72d281fdbc1dfcbb1b51831eef9fd4b1df0ae109dbf9af0838aab901d5f4180f5cc80420589bd486eb7f1e769466e374527e218e3b6d2026542a47d54b08ad9a9ee892af2320c173b8da455186829f7a2e04c5b0f4b2505dc17fc6bdf98a57ed0be08b5574ca3d9cbf8d6c758773ced38ac0b7053618dc43913a3a5763f88a463358c4fd1907788cb632fbf33d8e773c46052488425219056c5d3c28856094f4d91fc952205893cde4519340d4b7d20b3b0125cc5a45f6667f8cfd10ff346f1fee6c0fdcd7e71731c7d0e0c2ea7d2b673e28bbde206cbda05c2aef4d2416a7c9c206702459783e561de2fff3ab4afe33ac1a774f3917e1033f9f35c68341eafc3e879c02869a3a97bbd84e5cac474fe840876cd7bfd87b963ff30cf70fcf20fe9de4c40a32c14561c1a670797a724c98bddae47852e290765e14d133c927a3a8b806121ceba103d4b6c7ce794b6969e1fcb2edb50850e9e3b6b48386d495690a911224dab54a2347ddb84f18cf120bd2a5ce12e2b0039c8093e092ce2eb60460163feaf31e13802562d727ba26a44dc0df5ce0833a8565c358e4df287c15bafce5ccce355deb6b1aa5d6dc3e20dfcea2f87d3b0d3c5756cfb3ee517427781713812f4e771a0c9b6b04c40cd940c85ef1e548fa8ecaa11de771f30fc4da8ef7154faba52810e5c904ea15d0a944eb242b563ffa13c50690045d4d152a9162494935a0f4360d9d7a4a6a2604e7f12f1eb890daf3ab371267a38495b27333825d77f6478ad1512947535e02ec763da947f354bd3f87e874e69c07786d62958a39f5bf32d72dbc856f32461a2d2c49d267b047449bb5e62ba85d9c2160101467a1c66d5301ddde2a240d3a851968f1d08bbe692876c6b30e6f1fdbf43a938be6d24f178a1739c92e5a92348f682d57b347f1f4163146aa780da79c2eeb0510f45dae8db251367f1e302d49120b34969668fb95f343df2f235483d70780f5c6011e9c8548d698bf19b2d26c9adc336fb6ef9453ec65abb4342989c0171b3182928b66e627474738585e73ad6f21a0315558830e9b4262765eeb431517c57d4d4c7472b970c2205b738b8de83fa0a554013f02e5b3e3e3c7e28528f7c9b3eaa6c530da258da0443a04fd271665f352056475a92ee53097c73a4f5792a949c82584b0341a267c0d775b79e1b800651f4a4b44e8669bdf057e9c661"
      ],
      "sequence": 4294967294
    }
  ],
  "vout": [
    {
      "value": 499989.831,
      "n": 0,
      "scriptPubKey": {
        "asm": "1 99921e48e87ecf96f12f47466ad5ac43d25da6de65c230ee767a1b75bec46a34",
        "hex": "512099921e48e87ecf96f12f47466ad5ac43d25da6de65c230ee767a1b75bec46a34",
        "reqSigs": 1,
        "type": "witness_v1_scripthash",
        "addresses": [
          "3QJmnh"
        ]
      }
    },
    {
      "value": 1.0,
      "n": 1,
      "scriptPubKey": {
        "asm": "OP_RETURN c4b511c5da203a538f24d94798e566c5408007a3b6052e94a5dc493c574d9515 526b422a9db9d1a27648ac2d1def9814de91cc5d7bfcc2097b04b9604cc1bf83724b620abd99f18256688c0d3dcfb834feb1ec7d5bdce2295b2499406ce19fa3122b026addf991e23608ec6d5dafd8549ed18c1d3bbc82493b44f9200c81ffc3320b224afdd9b1c21628cc4d7d8ff874bef1ac3d1b9ca2691b64d9002ca1dfe3d2ebc2aa1d395122f6c82cad9d6f18945e114cddfb7c4289fb8439e0cc413f03f2cbe28a3d197102d6e80c8dbd4f38b47e316cfddb5c62a9dba419c0ec611f2392ab82ea5d791162b6886ceddd2f58d41e510c9dbb3c02c9bbc479a08c017f43b28ba2ca7d59314296a84ccdfd0f78f43e712cbd9b1c22e99be45980ac215f63526b422a9db9d1a27648ac2d1def9814de91cc5d7bfcc2097b04b9604cc1bf83724b620abd99f18256688c0d3dcfb834feb1ec7d5bdce2295b2499406ce19fa3122b026addf991e23608ec6d5dafd8549ed18c1d3bbc82493b44f9200c81ffc3320b224afdd9b1c21628cc4d7d8ff874bef1ac3d1b9ca2691b64d9002ca1dfe3d2ebc2aa1d395122f6c82cad9d6f18945e114cddfb7c4289fb8439e0cc413f03f2cbe28a3d197102d6e80c8dbd4f38b47e316cfddb5c62a9dba419c0ec611f2392ab82ea5d791162b6886ceddd2f58d41e510c9dbb3c02c9bbc479a08c017f43b28ba2ca7d59314296a84ccdfd0f78f43e712cbd9b1c22e99be45980ac215f63526b422a9db9d1a27648ac2d1def9814de91cc5d7bfcc2097b04b9604cc1bf83724b620abd99f18256688c0d3dcfb834feb1ec7d5bdce2295b2499406ce19fa3122b026addf991e23608ec6d5dafd8549ed18c1d3bbc82493b44f9200c81ffc3320b224afdd9b1c21628cc4d7d8ff874bef1ac3d1b9ca2691b64d9002ca1dfe3d2ebc2aa1d395122f6c82cad9d6f18945e114cddfb7c4289fb8439e0cc413f03f2cbe28a3d197102d6e80c8dbd4f38b47e316cfddb5c62a9dba419c0ec611f2392ab82ea5d791162b6886ceddd2f58d41e510c9dbb3c02c9bbc479a08c017f43b28ba2ca7d59314296a84ccdfd0f78f43e712cbd9b1c22e99be45980ac215f63526b422a9db9d1a27648ac2d1def9814de91cc5d7bfcc2097b04b9604cc1bf83724b620abd99f18256688c0d3dcfb834feb1ec7d5bdce2295b2499406ce19fa3122b026addf991e23608ec6d5dafd8549ed18c1d3bbc82493b44f9200c81ffc3320b224afdd9b1c21628cc4d7d8ff874bef1ac3d1b9ca2691b64d9002ca1dfe3d2ebc2aa1d395122f6c82cad9d6f18945e114cddfb7c4289fb8439e0cc413f03f2cbe28a3d197102d6e80c8dbd4f38b47e316cfddb5c62a9dba419c0ec611f2392ab82ea5d791162b6886ceddd2f58d41e510c9dbb3c02c9bbc479a08c017f43b28ba2ca7d59314296a84ccdfd0f78f43e712cbd9b1c22e99be45980ac215f63526b422a9db9d1a27648ac2d1def9814de91cc5d7bfcc2097b04b9604cc1bf83724b620abd99f18256688c0d3dcfb834feb1ec7d5bdce2295b2499406ce19fa3122b026addf991e23608ec6d5dafd8549ed18c1d3bbc82493b44f9200c81ffc3320b224afdd9b1c21628cc4d7d8ff874bef1ac3d1b9ca2691b64d9002ca1dfe3d2ebc2aa1d395122f6c82cad9d6f18948a2f2d2b9be9ab41dd49fbb92b1ef6b5063d822a3d64713dfdfece78246481cc",
        "hex": "6a20c4b511c5da203a538f24d94798e566c5408007a3b6052e94a5dc493c574d95154db004526b422a9db9d1a27648ac2d1def9814de91cc5d7bfcc2097b04b9604cc1bf83724b620abd99f18256688c0d3dcfb834feb1ec7d5bdce2295b2499406ce19fa3122b026addf991e23608ec6d5dafd8549ed18c1d3bbc82493b44f9200c81ffc3320b224afdd9b1c21628cc4d7d8ff874bef1ac3d1b9ca2691b64d9002ca1dfe3d2ebc2aa1d395122f6c82cad9d6f18945e114cddfb7c4289fb8439e0cc413f03f2cbe28a3d197102d6e80c8dbd4f38b47e316cfddb5c62a9dba419c0ec611f2392ab82ea5d791162b6886ceddd2f58d41e510c9dbb3c02c9bbc479a08c017f43b28ba2ca7d59314296a84ccdfd0f78f43e712cbd9b1c22e99be45980ac215f63526b422a9db9d1a27648ac2d1def9814de91cc5d7bfcc2097b04b9604cc1bf83724b620abd99f18256688c0d3dcfb834feb1ec7d5bdce2295b2499406ce19fa3122b026addf991e23608ec6d5dafd8549ed18c1d3bbc82493b44f9200c81ffc3320b224afdd9b1c21628cc4d7d8ff874bef1ac3d1b9ca2691b64d9002ca1dfe3d2ebc2aa1d395122f6c82cad9d6f18945e114cddfb7c4289fb8439e0cc413f03f2cbe28a3d197102d6e80c8dbd4f38b47e316cfddb5c62a9dba419c0ec611f2392ab82ea5d791162b6886ceddd2f58d41e510c9dbb3c02c9bbc479a08c017f43b28ba2ca7d59314296a84ccdfd0f78f43e712cbd9b1c22e99be45980ac215f63526b422a9db9d1a27648ac2d1def9814de91cc5d7bfcc2097b04b9604cc1bf83724b620abd99f18256688c0d3dcfb834feb1ec7d5bdce2295b2499406ce19fa3122b026addf991e23608ec6d5dafd8549ed18c1d3bbc82493b44f9200c81ffc3320b224afdd9b1c21628cc4d7d8ff874bef1ac3d1b9ca2691b64d9002ca1dfe3d2ebc2aa1d395122f6c82cad9d6f18945e114cddfb7c4289fb8439e0cc413f03f2cbe28a3d197102d6e80c8dbd4f38b47e316cfddb5c62a9dba419c0ec611f2392ab82ea5d791162b6886ceddd2f58d41e510c9dbb3c02c9bbc479a08c017f43b28ba2ca7d59314296a84ccdfd0f78f43e712cbd9b1c22e99be45980ac215f63526b422a9db9d1a27648ac2d1def9814de91cc5d7bfcc2097b04b9604cc1bf83724b620abd99f18256688c0d3dcfb834feb1ec7d5bdce2295b2499406ce19fa3122b026addf991e23608ec6d5dafd8549ed18c1d3bbc82493b44f9200c81ffc3320b224afdd9b1c21628cc4d7d8ff874bef1ac3d1b9ca2691b64d9002ca1dfe3d2ebc2aa1d395122f6c82cad9d6f18945e114cddfb7c4289fb8439e0cc413f03f2cbe28a3d197102d6e80c8dbd4f38b47e316cfddb5c62a9dba419c0ec611f2392ab82ea5d791162b6886ceddd2f58d41e510c9dbb3c02c9bbc479a08c017f43b28ba2ca7d59314296a84ccdfd0f78f43e712cbd9b1c22e99be45980ac215f63526b422a9db9d1a27648ac2d1def9814de91cc5d7bfcc2097b04b9604cc1bf83724b620abd99f18256688c0d3dcfb834feb1ec7d5bdce2295b2499406ce19fa3122b026addf991e23608ec6d5dafd8549ed18c1d3bbc82493b44f9200c81ffc3320b224afdd9b1c21628cc4d7d8ff874bef1ac3d1b9ca2691b64d9002ca1dfe3d2ebc2aa1d395122f6c82cad9d6f18948a2f2d2b9be9ab41dd49fbb92b1ef6b5063d822a3d64713dfdfece78246481cc",
        "type": "nulldata"
      }
    }
  ],
  "blockhash": "fed18006ccdab590a9e00afae0c126c0756e5b686d02c0375b028c4c6af5cb31",
  "confirmations": 1,
  "time": 1764177489,
  "blocktime": 1764177489
}