{
  "hex": "01000000000101c14669d586e96a858477746042ae002f7ee227a67f548236d1ab42d34d5fccf80000000000feffffff0200e1f50500000000fdd5046a2039018d8f759134ec2e516205a089d70d9f051b96ff2af826ff4c83763c1c47244db004171946f0407fca4fad708f7fd009952ed5e2afecce6525d961118ba8932f4814373966d0605fea6f8d50af5ff029b50ef5c28fccee4505f94131ab88b30f6834575906b0003f8a0fed30cf3f9049d56e95a2efac8e2565992151cbe8d36f085477792690201faa2fcd10ef1fb069f54eb582cf8cae0545b90171ebc8f34f28749799c670c0ff4acf2df00fff508915ae55622f6c4ee5a559e1910b2813afc894b7b9e650e0df6aef0dd02fdf70a9358e75420f4c6ec58579c1b12b08338fe8b4d7d9863080bf0a8f6db04fbf10c955ee15226f2c0ea5e519a1d14b6853ef88d4f7f9a610a09f2aaf4d906f9f30e975ce35024f0c2e85c53981f16b4873cfa8f4171946f0407fca4fad708f7fd009952ed5e2afecce6525d961118ba8932f4814373966d0605fea6f8d50af5ff029b50ef5c28fccee4505f94131ab88b30f6834575906b0003f8a0fed30cf3f9049d56e95a2efac8e2565992151cbe8d36f085477792690201faa2fcd10ef1fb069f54eb582cf8cae0545b90171ebc8f34f28749799c670c0ff4acf2df00fff508915ae55622f6c4ee5a559e1910b2813afc894b7b9e650e0df6aef0dd02fdf70a9358e75420f4c6ec58579c1b12b08338fe8b4d7d9863080bf0a8f6db04fbf10c955ee15226f2c0ea5e519a1d14b6853ef88d4f7f9a610a09f2aaf4d906f9f30e975ce35024f0c2e85c53981f16b4873cfa8f4171946f0407fca4fad708f7fd009952ed5e2afecce6525d961118ba8932f4814373966d0605fea6f8d50af5ff029b50ef5c28fccee4505f94131ab88b30f6834575906b0003f8a0fed30cf3f9049d56e95a2efac8e2565992151cbe8d36f085477792690201faa2fcd10ef1fb069f54eb582cf8cae0545b90171ebc8f34f28749799c670c0ff4acf2df00fff508915ae55622f6c4ee5a559e1910b2813afc894b7b9e650e0df6aef0dd02fdf70a9358e75420f4c6ec58579c1b12b08338fe8b4d7d9863080bf0a8f6db04fbf10c955ee15226f2c0ea5e519a1d14b6853ef88d4f7f9a610a09f2aaf4d906f9f30e975ce35024f0c2e85c53981f16b4873cfa8f4171946f0407fca4fad708f7fd009952ed5e2afecce6525d961118ba8932f4814373966d0605fea6f8d50af5ff029b50ef5c28fccee4505f94131ab88b30f6834575906b0003f8a0fed30cf3f9049d56e95a2efac8e2565992151cbe8d36f085477792690201faa2fcd10ef1fb069f54eb582cf8cae0545b90171ebc8f34f28749799c670c0ff4acf2df00fff508915ae55622f6c4ee5a559e1910b2813afc894b7b9e650e0df6aef0dd02fdf70a9358e75420f4c6ec58579c1b12b08338fe8b4d7d9863080bf0a8f6db04fbf10c955ee15226f2c0ea5e519a1d14b6853ef88d4f7f9a610a09f2aaf4d906f9f30e975ce35024f0c2e85c53981f16b4873cfa8f4171946f0407fca4fad708f7fd009952ed5e2afecce6525d961118ba8932f4814373966d0605fea6f8d50af5ff029b50ef5c28fccee4505f94131ab88b30f6834575906b0003f8a0fed30cf3f9049d56e95a2efac8e2565992151cbe8d36f085477792690201faa2fcd10ef1fb069f54eb582cf8cae0545b90171ebc8f34f28749799c670c0ff4acf2df00fff508915ae941ac7fa036218b69645e046fce714fb60ba22433d94b087e711bbd16435e76e70cc3221792d000022512015f48840f77b303faf3e466006715224dda61eb2bed4071f2be2f37637bf2bf102fd7509577ac7bd8f7ef18a631090abf7844b88b2699dfec409ce37b10b96d3dda2669a4cacc00b65e8070f53fcf50bc2cb69b5d855de8b85d828b5773dd68bc93dc97e735fb0bbbb211c13835ba9d067b4e6a46f3fcbde1b26caf54e7bdf75bf2c2944e3fa1429d8f26532fe4e4912970bf099ba9b6cc3ad4e135299d8967d1da7b8b7b1ed4571037e67bf1a6c6f7777fe8e6faaf1aa09d8199a8a6f03459f1c2efa48cbaf996a2533b4ecd69fc39e3a32579868bc9ef0557c28cb9fb9e4dd6477bb0fbb0db682fea8e5ec5f7f1050c1f0540376317a3d7d5eacc0abf70098cb5a59ff73ada68db53b0997d9349188d5a01a59f1c3ae1d2a02a5e7d13fb8da9bd17840e75f1cfa953fdfc9248b9e5bfafeb5b0ebccc907836a15557e6d8cb41a17d7a93575b6ec08dcefa2dde23e7cc23abb074a9cb678227f0c8f31d37ce0f54c375ff7b20d9ee0560687acab2b0d9411ec9dfd1c79a8d0cb86568a5b23f9fdb35930ded8caee68f8b3b959f44ce0c0bbc0c075e475a90b080a99fe962cafe8ae8eac83796a5be45d4fa16796eb175e8c34c6aa7c1b5a988ecb6faff10e874d7dcf45f4d852239ec4f749cccb268f0a62badaecf0a00c30ad52c36ba4fc0da4a5e125f3688dc5c81c31ee5422561a43063a0cfcf578e8d42363527c9ae6a809470723dde652c3dc32958ef94120310240fc855e02ae765884a0d63e84baad692448c525350ed263659d843b62129a6fd5a3c968d181d79a0eaf37473fd201b00ab440383052e9653f5d43532810e84c85d7cdaf19d2354024c62f00c31227c0bc05a847492035bcad66bcf06ecff9dc0b219ee1f6159819c221f78f9745369d211f500c8a02c0c14062218bd439a042fddbe0aa94da9530dd6bec66d5f0a9419e72cf829fe4a860786cf8ee880e45bcb12d2f2d3e03fffdbd7ee0faa5bce869f20c89c90d128bdb8caf1a904c13fe71e568263ec88f3d781372b47c6dfa5a99d6ab64601b5094ff6e449d297010dac236bf58bed788f7fdf3ee0a7d3dcdc069917b06f37a6bdcf8f8c017d9b42720484b8117e109a4e13f587861cec280b3b8e24e6586495cf1f248e702db2d397239927ac34bc73e98913fcc51112cc4e8926dc023f09f43212fe638806eb00efeb302e7c646edcb979bb66f6dd90c89320afe742ab9b5bc2b1009aa1916a426bb95a91863384a4359afac849ef8336cd87e523d859ac579ac300ed5d2582ae035f9d739d5f3964a0d4f482280e34266ccb9369a33668fdc6107faa674fa95cc5949a596dc564b00bc767625f3902ff733f3cd985f82aa17c284ab07a9acddf6053cddb1a0f29c57a180c36e17d0290494ed96b10918341262798c3feb5cc8ec8324875dbd0e038bccb4d867948ad1051c5872d6e9ad11ef1f06f3242fb7b83205bd04fbc4da026a88affe4fc043a3eb0a76e404fd96c12763daf026182788e04bfc2106d8360aafc1a5234db6211b57c96ccd08ab93f29b2b204955a07784545fcb463cd2281afa90eaa10db5fa24b27c22cde7b1644d413289f93674e7a8521056c683f3bf0f3d51896008f50c8cb3e3ba2b3e104d0a835bd222f6c3b1b15a059e8e324696dbaecaa6ac4c33722729e94eb915aca56b145856794584923c83ad258e608be6366a4d8d7658bf5dd517410909755e74d057b33b870419e30cd9008c7dfe3a4308e97dcad95bbe0ec59f42be98d6c7a952f7d457964cce6b7ab9d33f3edbc86fae247dfc5e5b01c3ae9c897e96eacbb27443d2bfea1f846f3a1b58dfcc41fdf68a1af94ab5e45caf953c875c4468221eb174c8c577d24844d998738512335df86fa3aebd850377225c50c2020fb84193aee6eaa902630703a43d97bf8fe47c0ea683878f7c7042f08aed97ca444c834d2ee4e63cf8c11294cf21757440848405258848141e5a10a244dfb659165a037a4238a8ca84a3b617fd7574bb71b25df17a4d070669db2b9a127fd01c38a3953b77b469e284b629a7bca6e909fe00bc0bf08b17f9484b2364d304c8efa8d88fcff944773e3001186fca161e0273fec1bfa23f1ab94cdc73a98a929432bef6add80733e2c934eaaa7fc42f6307481a789219b8ec307bb4abd5172f27551606d4a470154ad25a371130fc7e70d236cd05b09865fd262d083210bc6478143b6fdb6d3aa3217fff2d879bcbc7c826f29a4727d1f84f1e5eb320f8fbc2fece64e615cf324371d10dcb1dca61735d58756217b3d97bfa74979575d2b80f03e04e4bcc58d3db686a0c9cb6a3237e13bd4d9c43c95a140d47adad226627cc0b66c25c9f5b1597d60c1f043520095af7eb880410b9cb10f3f17eecd7a818895c0d8af002b1126fef63b26a1d76cbb339767bcb0c43e607c8d31fa6ac9c1ac0f8be181b1d12a9e216df2c9ef0f9de0b46dd38108c4c08bb26d187e8073d3b5701bb6aec3d3dad59230f03cb9e64af1322c6ecdcb84c192f993f7fb54052644056fb27742e085b4c4a756cf6dba94e29fc64e279002e2251bd98c48bd49bfefa90fef118c43aed8d34e902545f39f9db6321d8a98d16a5a972e2c74ed3da9e657f654ea916d83c48bf919c2538230adaa69a47555814884d1a4f1a60babaeda5184fecf00fdfa74149c0ef1b53ecad0b723202aaf5f5deea6925eaf3df3f417bacbc520c6e4c24e274f35f67e3623eba23b5f816723de90d2ac0bc19e736ad8a1006be16b2239816d3d8b999ddf3dd8288c81a30fa6eb44642be4c31dbbb15dbc1c72beaaec416b6940eae5a13a46bdd7091474d654ddc777ac450b6ecd9f450dd24aa9c2fd5fe6c6053b0c06e9070c812d843582ded4b6685a7bb0e87e71757ccb7e63b1991a4b4f1c0d14632a17d7f973aa82be5267bbaa485697e7bd1adc8cc9b1d3caeabe620114dfc933e5869c163dd6e009c2eff9c6ab61356825eb2734dfd0c317cd0b1afc63bff3145614338a1005a2edc6119e482accf1b3c90957c2d16e916e28ebd5ec722952e09b54f567d7689b275b3b6b5503ab33a3f4eb4d9c17390530ca751894c08e45b66080c5de5533efdb0ee6cbfeffa17c5e281e1649274212fa1892b6d3e7c13feda7089d8515521529f22f4dbb022c1dda7722401ef8be43f0ec6bda47188861328af8d8d5a3b122169020ad7c72c40a464c4ad00a9f86de9305c6d50d0d3bc2ac475dbbc32ef12de70adf83ccd80bdf7d856101ad911aa54085c3b2e88d1d53299871736ef047dc08d96381d7183992daf0d70d449a60dc71cb710f7b5ceb387a178e501a047f68d99dfdb0a189a52b3e5ea90abea161540ab060a2b3a43495d7a84a9aae0e4e810202b34383c73a3a5abbbc1d6d7dcdfe0001422363b4f647374787b7e82a0a4a8b1b5d3dee2fe166983898b8d8f97a1b2b5c6cadbdce800000000000000000000000e1f354501fd210500b7b832a2e5f84b5b16c54ec2900549fd7e8aef6222ecf4eb7567356d54d42f28d8b24bf68ef823e21ee2fe931f001ff2576e0975437695075f8709c635860d850edb070f779cd5146fffb937d24fbf233cb77dc862237eb78cfae3f58e894cb42043665b123abe5fd93fc9a7873ceda8733591e7ef975c142dd09d4fcd90d3a4e289ce01d53f5561db91fba7d026b78ca77c0b74fd646cc3fbf8a49a8a1c64ecb5d03b7d2d6467374d96be7c629115a3f139d24a029acdac471d967dc6500cad5d452689b9dda8f3c793b0c4517ba76ce10351d1bbae5a1da705717daee46ecb70fe2987615cc8be1ef87946c1bf96acf12d254c66a668c87c36fdc3df8efa2d190bb94f282257f01049fe88fe4492d2e03f43080d0cf8c7959f884a2b9b7b4c225e483e201a4d2a6b43a3567c6a1bb34ffa55fdff4ac58f6aea50d471f58af4453b3fc33d8e0a9c2448f33d61f16ed424715f17749d0fbfa571516681515dfbe91606cadcfe5912fa93d4eb6429df993f09de2dc54df224298cc431877f8b9aefad8ac3d1f94812866cbe1816df51eef56518bee4de0be62639adb38031931634e29565ff252853d872c471db4f3c717aa8fe7d47c5f9ce09ee054836ad6626da2bccc99b0ab57e3c67a3315cbc5ed13d959ea6d81717ca101db906204edfd7def8519210b301ab5ebc7641e62fe5d90ab6d3b5b8e2661f20929d86b44ae22cdf88c2a64d34d0325d7a10ae2c1a95b8b556eb76bdb28d76dd6d2d9a2246b3443e20247101d5ddf8421e9912f7892c5ba4e512349e76c9e9dda81646679efbd543fe7c84545683aac1ffe5e5191a4ceec59eb967b29161ae882fb80b49958404560f70e0dbf26f007d5542337f5116611b55b49e7f57a2bb9a15c970b75f24b7a859264f8f2ae936844eedc41f188d7e1ff01cb5be267f6da268c57c53373ca282b63020165297c87a271e335be5ee4a6bc848ed9a7888fb204275988a18036e28ab2ed815ee994939e558be4d644ef9179a7d299f3c4b1d35c20260b632535514e5739ae847a729f7ba457843b78d0a85c4264b2f0e53194fe707f2721240d89c4365a80111898a31170d84bda19ad10a87f67b248430ed5c901e56bcc43bccb9c8ee3250373cd2c13402a6d26216b345c7dbd94175c44a520d5a5b3b8892339457ce61d9c597e1464b4e6d60adb9bc64c1a601e1df81829758227c401d2748f72b67fc1749e87390fdf680d023b632f9c538f173b9f92d4ad2298c3a6f8eeb15396636c4e0353725d8e0f808d73675a13ed7e7eac965df71f21db24023621f2800c2333c39a92831c6e49bc52003f2c856612c0bdc3efd49aff6623834b811103e38f627dc2a9a32244895096478598fd67c8413359881d7f52196df6bbc895aaabba7730f7182cf03e5e30ad8ab05f6ab9c3d610e9db069f9c1227f65d8b0aea7864d88b1398833c555cb7ed2be65cd61f8659e15b67075785e6de95bd3e4c660721e2d7dd84068ea7ba3779240ea5cf002963eb69591954559acdd58667ee88b0d3b181099a9956d2c0181511a8b62b67d5d7fddc1a7459c38835d1711dabe2ddcc8e8dea3b7966dc7531a3730674665dcc9588261bb44866f1631d17923713c1ebe8eda793585269e5c098661e88cb9f73628cec136660a8d28a9afe62efed28d93ed0132122b152151afee1c98a2aef532ebcbb6f39e34589613195163a4eea1121ede6a471bdd64d68f84bd2c125992b6a486316d4186877bc49e2d24becf65fb25dc5b356d04f6912be69eb28042697d2152b8ec362036157fd4e61bdc4680e04608296724a773370eba9be96c1710b886f3ebe882c1fc2fc20d5cf773000000",
  "txid": "68957d03750041b6d573e910ce536e9c85c62c5e9f3f312db40dc1cb1f6e74d5",
  "hash": "54959a88590f6b389748f5fd74b577d073216cbc4c6d8aeefd86dfce8df50b81",
  "size": 5085,
  "vsize": 2278,
  "version": 1,
  "locktime": 115,
  "vin": [
    {
      "txid": "f8cc5f4dd342abd13682547fa627e27e2f00ae4260747784856ae986d56946c1",
      "vout": 0,
      "scriptSig": {
        "asm": "",
        "hex": ""
      },
      "txinwitness": [
        "577ac7bd8f7ef18a631090abf7844b88b2699dfec409ce37b10b96d3dda2669a4cacc00b65e8070f53fcf50bc2cb69b5d855de8b85d828b5773dd68bc93dc97e735fb0bbbb211c13835ba9d067b4e6a46f3fcbde1b26caf54e7bdf75bf2c2944e3fa1429d8f26532fe4e4912970bf099ba9b6cc3ad4e135299d8967d1da7b8b7b1ed4571037e67bf1a6c6f7777fe8e6faaf1aa09d8199a8a6f03459f1c2efa48cbaf996a2533b4ecd69fc39e3a32579868bc9ef0557c28cb9fb9e4dd6477bb0fbb0db682fea8e5ec5f7f1050c1f0540376317a3d7d5eacc0abf70098cb5a59ff73ada68db53b0997d9349188d5a01a59f1c3ae1d2a02a5e7d13fb8da9bd17840e75f1cfa953fdfc9248b9e5bfafeb5b0ebccc907836a15557e6d8cb41a17d7a93575b6ec08dcefa2dde23e7cc23abb074a9cb678227f0c8f31d37ce0f54c375ff7b20d9ee0560687acab2b0d9411ec9dfd1c79a8d0cb86568a5b23f9fdb35930ded8caee68f8b3b959f44ce0c0bbc0c075e475a90b080a99fe962cafe8ae8eac83796a5be45d4fa16796eb175e8c34c6aa7c1b5a988ecb6faff10e874d7dcf45f4d852239ec4f749cccb268f0a62badaecf0a00c30ad52c36ba4fc0da4a5e125f3688dc5c81c31ee5422561a43063a0cfcf578e8d42363527c9ae6a809470723dde652c3dc32958ef94120310240fc855e02ae765884a0d63e84baad692448c525350ed263659d843b62129a6fd5a3c968d181d79a0eaf37473fd201b00ab440383052e9653f5d43532810e84c85d7cdaf19d2354024c62f00c31227c0bc05a847492035bcad66bcf06ecff9dc0b219ee1f6159819c221f78f9745369d211f500c8a02c0c14062218bd439a042fddbe0aa94da9530dd6bec66d5f0a9419e72cf829fe4a860786cf8ee880e45bcb12d2f2d3e03fffdbd7ee0faa5bce869f20c89c90d128bdb8caf1a904c13fe71e568263ec88f3d781372b47c6dfa5a99d6ab64601b5094ff6e449d297010dac236bf58bed788f7fdf3ee0a7d3dcdc069917b06f37a6bdcf8f8c017d9b42720484b8117e109a4e13f587861cec280b3b8e24e6586495cf1f248e702db2d397239927ac34bc73e98913fcc51112cc4e8926dc023f09f43212fe638806eb00efeb302e7c646edcb979bb66f6dd90c89320afe742ab9b5bc2b1009aa1916a426bb95a91863384a4359afac849ef8336cd87e523d859ac579ac300ed5d2582ae035f9d739d5f3964a0d4f482280e34266ccb9369a33668fdc6107faa674fa95cc5949a596dc564b00bc767625f3902ff733f3cd985f82aa17c284ab07a9acddf6053cddb1a0f29c57a180c36e17d0290494ed96b10918341262798c3feb5cc8ec8324875dbd0e038bccb4d867948ad1051c5872d6e9ad11ef1f06f3242fb7b83205bd04fbc4da026a88affe4fc043a3eb0a76e404fd96c12763daf026182788e04bfc2106d8360aafc1a5234db6211b57c96ccd08ab93f29b2b204955a07784545fcb463cd2281afa90eaa10db5fa24b27c22cde7b1644d413289f93674e7a8521056c683f3bf0f3d51896008f50c8cb3e3ba2b3e104d0a835bd222f6c3b1b15a059e8e324696dbaecaa6ac4c33722729e94eb915aca56b145856794584923c83ad258e608be6366a4d8d7658bf5dd517410909755e74d057b33b870419e30cd9008c7dfe3a4308e97dcad95bbe0ec59f42be98d6c7a952f7d457964cce6b7ab9d33f3edbc86fae247dfc5e5b01c3ae9c897e96eacbb27443d2bfea1f846f3a1b58dfcc41fdf68a1af94ab5e45caf953c875c4468221eb174c8c577d24844d998738512335df86fa3aebd850377225c50c2020fb84193aee6eaa902630703a43d97bf8fe47c0ea683878f7c7042f08aed97ca444c834d2ee4e63cf8c11294cf21757440848405258848141e5a10a244dfb659165a037a4238a8ca84a3b617fd7574bb71b25df17a4d070669db2b9a127fd01c38a3953b77b469e284b629a7bca6e909fe00bc0bf08b17f9484b2364d304c8efa8d88fcff944773e3001186fca161e0273fec1bfa23f1ab94cdc73a98a929432bef6add80733e2c934eaaa7fc42f6307481a789219b8ec307bb4abd5172f27551606d4a470154ad25a371130fc7e70d236cd05b09865fd262d083210bc6478143b6fdb6d3aa3217fff2d879bcbc7c826f29a4727d1f84f1e5eb320f8fbc2fece64e615cf324371d10dcb1dca61735d58756217b3d97bfa74979575d2b80f03e04e4bcc58d3db686a0c9cb6a3237e13bd4d9c43c95a140d47adad226627cc0b66c25c9f5b1597d60c1f043520095af7eb880410b9cb10f3f17eecd7a818895c0d8af002b1126fef63b26a1d76cbb339767bcb0c43e607c8d31fa6ac9c1ac0f8be181b1d12a9e216df2c9ef0f9de0b46dd38108c4c08bb26d187e8073d3b5701bb6aec3d3dad59230f03cb9e64af1322c6ecdcb84c192f993f7fb54052644056fb27742e085b4c4a756cf6dba94e29fc64e279002e2251bd98c48bd49bfefa90fef118c43aed8d34e902545f39f9db6321d8a98d16a5a972e2c74ed3da9e657f654ea916d83c48bf919c2538230adaa69a47555814884d1a4f1a60babaeda5184fecf00fdfa74149c0ef1b53ecad0b723202aaf5f5deea6925eaf3df3f417bacbc520c6e4c24e274f35f67e3623eba23b5f816723de90d2ac0bc19e736ad8a1006be16b2239816d3d8b999ddf3dd8288c81a30fa6eb44642be4c31dbbb15dbc1c72beaaec416b6940eae5a13a46bdd7091474d654ddc777ac450b6ecd9f450dd24aa9c2fd5fe6c6053b0c06e9070c812d843582ded4b6685a7bb0e87e71757ccb7e63b1991a4b4f1c0d14632a17d7f973aa82be5267bbaa485697e7bd1adc8cc9b1d3caeabe620114dfc933e5869c163dd6e009c2eff9c6ab61356825eb2734dfd0c317cd0b1afc63bff3145614338a1005a2edc6119e482accf1b3c90957c2d16e916e28ebd5ec722952e09b54f567d7689b275b3b6b5503ab33a3f4eb4d9c17390530ca751894c08e45b66080c5de5533efdb0ee6cbfeffa17c5e281e1649274212fa1892b6d3e7c13feda7089d8515521529f22f4dbb022c1dda7722401ef8be43f0ec6bda47188861328af8d8d5a3b122169020ad7c72c40a464c4ad00a9f86de9305c6d50d0d3bc2ac475dbbc32ef12de70adf83ccd80bdf7d856101ad911aa54085c3b2e88d1d53299871736ef047dc08d96381d7183992daf0d70d449a60dc71cb710f7b5ceb387a178e501a047f68d99dfdb0a189a52b3e5ea90abea161540ab060a2b3a43495d7a84a9aae0e4e810202b34383c73a3a5abbbc1d6d7dcdfe0001422363b4f647374787b7e82a0a4a8b1b5d3dee2fe166983898b8d8f97a1b2b5c6cadbdce800000000000000000000000e1f354501",
        "00b7b832a2e5f84b5b16c54ec2900549fd7e8aef6222ecf4eb7567356d54d42f28d8b24bf68ef823e21ee2fe931f001ff2576e0975437695075f8709c635860d850edb070f779cd5146fffb937d24fbf233cb77dc862237eb78cfae3f58e894cb42043665b123abe5fd93fc9a7873ceda8733591e7ef975c142dd09d4fcd90d3a4e289ce01d53f5561db91fba7d026b78ca77c0b74fd646cc3fbf8a49a8a1c64ecb5d03b7d2d6467374d96be7c629115a3f139d24a029acdac471d967dc6500cad5d452689b9dda8f3c793b0c4517ba76ce10351d1bbae5a1da705717daee46ecb70fe2987615cc8be1ef87946c1bf96acf12d254c66a668c87c36fdc3df8efa2d190bb94f282257f01049fe88fe4492d2e03f43080d0cf8c7959f884a2b9b7b4c225e483e201a4d2a6b43a3567c6a1bb34ffa55fdff4ac58f6aea50d471f58af4453b3fc33d8e0a9c2448f33d61f16ed424715f17749d0fbfa571516681515dfbe91606cadcfe5912fa93d4eb6429df993f09de2dc54df224298cc431877f8b9aefad8ac3d1f94812866cbe1816df51eef56518bee4de0be62639adb38031931634e29565ff252853d872c471db4f3c717aa8fe7d47c5f9ce09ee054836ad6626da2bccc99b0ab57e3c67a3315cbc5ed13d959ea6d81717ca101db906204edfd7def8519210b301ab5ebc7641e62fe5d90ab6d3b5b8e2661f20929d86b44ae22cdf88c2a64d34d0325d7a10ae2c1a95b8b556eb76bdb28d76dd6d2d9a2246b3443e20247101d5ddf8421e9912f7892c5ba4e512349e76c9e9dda81646679efbd543fe7c84545683aac1ffe5e5191a4ceec59eb967b29161ae882fb80b49958404560f70e0dbf26f007d5542337f5116611b55b49e7f57a2bb9a15c970b75f24b7a859264f8f2ae936844eedc41f188d7e1ff01cb5be267f6da268c57c53373ca282b63020165297c87a271e335be5ee4a6bc848ed9a7888fb204275988a18036e28ab2ed815ee994939e558be4d644ef9179a7d299f3c4b1d35c20260b632535514e5739ae847a729f7ba457843b78d0a85c4264b2f0e53194fe707f2721240d89c4365a80111898a31170d84bda19ad10a87f67b248430ed5c901e56bcc43bccb9c8ee3250373cd2c13402a6d26216b345c7dbd94175c44a520d5a5b3b8892339457ce61d9c597e1464b4e6d60adb9bc64c1a601e1df81829758227c401d2748f72b67fc1749e87390fdf680d023b632f9c538f173b9f92d4ad2298c3a6f8eeb15396636c4e0353725d8e0f808d73675a13ed7e7eac965df71f21db24023621f2800c2333c39a92831c6e49bc52003f2c856612c0bdc3efd49aff6623834b811103e38f627dc2a9a32244895096478598fd67c8413359881d7f52196df6bbc895aaabba7730f7182cf03e5e30ad8ab05f6ab9c3d610e9db069f9c1227f65d8b0aea7864d88b1398833c555cb7ed2be65cd61f8659e15b67075785e6de95bd3e4c660721e2d7dd84068ea7ba3779240ea5cf002963eb69591954559acdd58667ee88b0d3b181099a9956d2c0181511a8b62b67d5d7fddc1a7459c38835d1711dabe2ddcc8e8dea3b7966dc7531a3730674665dcc9588261bb44866f1631d17923713c1ebe8eda793585269e5c098661e88cb9f73628cec136660a8d28a9afe62efed28d93ed0132122b152151afee1c98a2aef532ebcbb6f39e34589613195163a4eea1121ede6a471bdd64d68f84bd2c125992b6a486316d4186877bc49e2d24becf65fb25dc5b356d04f6912be69eb28042697d2152b8ec362036157fd4e61bdc4680e04608296724a773370eba9be96c1710b886f3ebe882c1fc2fc20d5cf7"
      ],
      "sequence": 4294967294
    }
  ],
  "vout": [
    {
      "value": 1.0,
      "n": 0,
      "scriptPubKey": {
        "asm": "OP_RETURN 39018d8f759134ec2e516205a089d70d9f051b96ff2af826ff4c83763c1c4724 171946f0407fca4fad708f7fd009952ed5e2afecce6525d961118ba8932f4814373966d0605fea6f8d50af5ff029b50ef5c28fccee4505f94131ab88b30f6834575906b0003f8a0fed30cf3f9049d56e95a2efac8e2565992151cbe8d36f085477792690201faa2fcd10ef1fb069f54eb582cf8cae0545b90171ebc8f34f28749799c670c0ff4acf2df00fff508915ae55622f6c4ee5a559e1910b2813afc894b7b9e650e0df6aef0dd02fdf70a9358e75420f4c6ec58579c1b12b08338fe8b4d7d9863080bf0a8f6db04fbf10c955ee15226f2c0ea5e519a1d14b6853ef88d4f7f9a610a09f2aaf4d906f9f30e975ce35024f0c2e85c53981f16b4873cfa8f4171946f0407fca4fad708f7fd009952ed5e2afecce6525d961118ba8932f4814373966d0605fea6f8d50af5ff029b50ef5c28fccee4505f94131ab88b30f6834575906b0003f8a0fed30cf3f9049d56e95a2efac8e2565992151cbe8d36f085477792690201faa2fcd10ef1fb069f54eb582cf8cae0545b90171ebc8f34f28749799c670c0ff4acf2df00fff508915ae55622f6c4ee5a559e1910b2813afc894b7b9e650e0df6aef0dd02fdf70a9358e75420f4c6ec58579c1b12b08338fe8b4d7d9863080bf0a8f6db04fbf10c955ee15226f2c0ea5e519a1d14b6853ef88d4f7f9a610a09f2aaf4d906f9f30e975ce35024f0c2e85c53981f16b4873cfa8f4171946f0407fca4fad708f7fd009952ed5e2afecce6525d961118ba8932f4814373966d0605fea6f8d50af5ff029b50ef5c28fccee4505f94131ab88b30f6834575906b0003f8a0fed30cf3f9049d56e95a2efac8e2565992151cbe8d36f085477792690201faa2fcd10ef1fb069f54eb582cf8cae0545b90171ebc8f34f28749799c670c0ff4acf2df00fff508915ae55622f6c4ee5a559e1910b2813afc894b7b9e650e0df6aef0dd02fdf70a9358e75420f4c6ec58579c1b12b08338fe8b4d7d9863080bf0a8f6db04fbf10c955ee15226f2c0ea5e519a1d14b6853ef88d4f7f9a610a09f2aaf4d906f9f30e975ce35024f0c2e85c53981f16b4873cfa8f4171946f0407fca4fad708f7fd009952ed5e2afecce6525d961118ba8932f4814373966d0605fea6f8d50af5ff029b50ef5c28fccee4505f94131ab88b30f6834575906b0003f8a0fed30cf3f9049d56e95a2efac8e2565992151cbe8d36f085477792690201faa2fcd10ef1fb069f54eb582cf8cae0545b90171ebc8f34f28749799c670c0ff4acf2df00fff508915ae55622f6c4ee5a559e1910b2813afc894b7b9e650e0df6aef0dd02fdf70a9358e75420f4c6ec58579c1b12b08338fe8b4d7d9863080bf0a8f6db04fbf10c955ee15226f2c0ea5e519a1d14b6853ef88d4f7f9a610a09f2aaf4d906f9f30e975ce35024f0c2e85c53981f16b4873cfa8f4171946f0407fca4fad708f7fd009952ed5e2afecce6525d961118ba8932f4814373966d0605fea6f8d50af5ff029b50ef5c28fccee4505f94131ab88b30f6834575906b0003f8a0fed30cf3f9049d56e95a2efac8e2565992151cbe8d36f085477792690201faa2fcd10ef1fb069f54eb582cf8cae0545b90171ebc8f34f28749799c670c0ff4acf2df00fff508915ae941ac7fa036218b69645e046fce714fb60ba22433d94b087e711bbd16435e76e",
        "hex": "6a2039018d8f759134ec2e516205a089d70d9f051b96ff2af826ff4c83763c1c47244db004171946f0407fca4fad708f7fd009952ed5e2afecce6525d961118ba8932f4814373966d0605fea6f8d50af5ff029b50ef5c28fccee4505f94131ab88b30f6834575906b0003f8a0fed30cf3f9049d56e95a2efac8e2565992151cbe8d36f085477792690201faa2fcd10ef1fb069f54eb582cf8cae0545b90171ebc8f34f28749799c670c0ff4acf2df00fff508915ae55622f6c4ee5a559e1910b2813afc894b7b9e650e0df6aef0dd02fdf70a9358e75420f4c6ec58579c1b12b08338fe8b4d7d9863080bf0a8f6db04fbf10c955ee15226f2c0ea5e519a1d14b6853ef88d4f7f9a610a09f2aaf4d906f9f30e975ce35024f0c2e85c53981f16b4873cfa8f4171946f0407fca4fad708f7fd009952ed5e2afecce6525d961118ba8932f4814373966d0605fea6f8d50af5ff029b50ef5c28fccee4505f94131ab88b30f6834575906b0003f8a0fed30cf3f9049d56e95a2efac8e2565992151cbe8d36f085477792690201faa2fcd10ef1fb069f54eb582cf8cae0545b90171ebc8f34f28749799c670c0ff4acf2df00fff508915ae55622f6c4ee5a559e1910b2813afc894b7b9e650e0df6aef0dd02fdf70a9358e75420f4c6ec58579c1b12b08338fe8b4d7d9863080bf0a8f6db04fbf10c955ee15226f2c0ea5e519a1d14b6853ef88d4f7f9a610a09f2aaf4d906f9f30e975ce35024f0c2e85c53981f16b4873cfa8f4171946f0407fca4fad708f7fd009952ed5e2afecce6525d961118ba8932f4814373966d0605fea6f8d50af5ff029b50ef5c28fccee4505f94131ab88b30f6834575906b0003f8a0fed30cf3f9049d56e95a2efac8e2565992151cbe8d36f085477792690201faa2fcd10ef1fb069f54eb582cf8cae0545b90171ebc8f34f28749799c670c0ff4acf2df00fff508915ae55622f6c4ee5a559e1910b2813afc894b7b9e650e0df6aef0dd02fdf70a9358e75420f4c6ec58579c1b12b08338fe8b4d7d9863080bf0a8f6db04fbf10c955ee15226f2c0ea5e519a1d14b6853ef88d4f7f9a610a09f2aaf4d906f9f30e975ce35024f0c2e85c53981f16b4873cfa8f4171946f0407fca4fad708f7fd009952ed5e2afecce6525d961118ba8932f4814373966d0605fea6f8d50af5ff029b50ef5c28fccee4505f94131ab88b30f6834575906b0003f8a0fed30cf3f9049d56e95a2efac8e2565992151cbe8d36f085477792690201faa2fcd10ef1fb069f54eb582cf8cae0545b90171ebc8f34f28749799c670c0ff4acf2df00fff508915ae55622f6c4ee5a559e1910b2813afc894b7b9e650e0df6aef0dd02fdf70a9358e75420f4c6ec58579c1b12b08338fe8b4d7d9863080bf0a8f6db04fbf10c955ee15226f2c0ea5e519a1d14b6853ef88d4f7f9a610a09f2aaf4d906f9f30e975ce35024f0c2e85c53981f16b4873cfa8f4171946f0407fca4fad708f7fd009952ed5e2afecce6525d961118ba8932f4814373966d0605fea6f8d50af5ff029b50ef5c28fccee4505f94131ab88b30f6834575906b0003f8a0fed30cf3f9049d56e95a2efac8e2565992151cbe8d36f085477792690201faa2fcd10ef1fb069f54eb582cf8cae0545b90171ebc8f34f28749799c670c0ff4acf2df00fff508915ae941ac7fa036218b69645e046fce714fb60ba22433d94b087e711bbd16435e76e",
        "type": "nulldata"
      }
    },
    {
      "value": 499982.7127,
      "n": 1,
      "scriptPubKey": {
        "asm": "1 15f48840f77b303faf3e466006715224dda61eb2bed4071f2be2f37637bf2bf1",
        "hex": "512015f48840f77b303faf3e466006715224dda61eb2bed4071f2be2f37637bf2bf1",
        "reqSigs": 1,
        "type": "witness_v1_scripthash",
        "addresses": [
          "3QJmnh"
        ]
      }
    }
  ],
  "blockhash": "b157fe5006ea74e3e2696296011f5383f171fa956e468cbbd84742f98a1af3af",
  "confirmations": 1,
  "time": 1764179051,
  "blocktime": 1764179051
}