{
  "hex": "0100000000010168ee3da1f24edf5d22957f931bf66b6a75ebfa577d0ff4aacd767b5fbac2e3e50100000000feffffff02c075fe6f792d0000225120cc19ad30580540e0e66815e0cb5c9f1c1d05b3a9fd5bd0faa94fb0ff9449399f00e1f50500000000fdd5046a206445b7c2e3c4a07d3f0ae37087be92dac736a606e329e5c4d2ef786d7718a7fb4db004e26987c234d38a8326d545c5211d1e9facf04b8b9ad8f5e46490a0459c2142d2c249a7e214f3aaa306f565e5013d3ebf8cd06babbaf8d5c444b08065bc0162f2a229c7827493cac366950585615d5edfecb00bcbda98b5a424d0e005dc6102928209e7a254b3eae346b525a5417d7effcc902bebfab8958404f0c025fc4122b262e90742b4530a03a655c545a19d9e1f2c70cb0b1a587564e41020c51ca1c25242c9276294732a238675e56581bdbe3f0c50eb2b3a785544c43000e53c81e27222a94702f4134a43e6158505e1ddde5f6c308b4b5a183524a45060855ce1821202896722d4336a63c635a525c1fdfe7f4c10ab6b7a381504847040a57cc1a232e26987c234d38a8326d545c5211d1e9facf04b8b9ad8f5e46490a0459c2142d2c249a7e214f3aaa306f565e5013d3ebf8cd06babbaf8d5c444b08065bc0162f2a229c7827493cac366950585615d5edfecb00bcbda98b5a424d0e005dc6102928209e7a254b3eae346b525a5417d7effcc902bebfab8958404f0c025fc4122b262e90742b4530a03a655c545a19d9e1f2c70cb0b1a587564e41020c51ca1c25242c9276294732a238675e56581bdbe3f0c50eb2b3a785544c43000e53c81e27222a94702f4134a43e6158505e1ddde5f6c308b4b5a183524a45060855ce1821202896722d4336a63c635a525c1fdfe7f4c10ab6b7a381504847040a57cc1a232e26987c234d38a8326d545c5211d1e9facf04b8b9ad8f5e46490a0459c2142d2c249a7e214f3aaa306f565e5013d3ebf8cd06babbaf8d5c444b08065bc0162f2a229c7827493cac366950585615d5edfecb00bcbda98b5a424d0e005dc6102928209e7a254b3eae346b525a5417d7effcc902bebfab8958404f0c025fc4122b262e90742b4530a03a655c545a19d9e1f2c70cb0b1a587564e41020c51ca1c25242c9276294732a238675e56581bdbe3f0c50eb2b3a785544c43000e53c81e27222a94702f4134a43e6158505e1ddde5f6c308b4b5a183524a45060855ce1821202896722d4336a63c635a525c1fdfe7f4c10ab6b7a381504847040a57cc1a232e26987c234d38a8326d545c5211d1e9facf04b8b9ad8f5e46490a0459c2142d2c249a7e214f3aaa306f565e5013d3ebf8cd06babbaf8d5c444b08065bc0162f2a229c7827493cac366950585615d5edfecb00bcbda98b5a424d0e005dc6102928209e7a254b3eae346b525a5417d7effcc902bebfab8958404f0c025fc4122b262e90742b4530a03a655c545a19d9e1f2c70cb0b1a587564e41020c51ca1c25242c9276294732a238675e56581bdbe3f0c50eb2b3a785544c43000e53c81e27222a94702f4134a43e6158505e1ddde5f6c308b4b5a183524a45060855ce1821202896722d4336a63c635a525c1fdfe7f4c10ab6b7a381504847040a57cc1a232e26987c234d38a8326d545c5211d1e9facf04b8b9ad8f5e46490a0459c2142d2c249a7e214f3aaa306f565e5013d3ebf8cd06babbaf8d5c444b08065bc0162f2a229c7827493cac366950585615d5edfecb00bcbda98b5a424d0e005dc6102928209e7a254b3eae346b525a5417d7effcc902bebfab8958404f0c025fc4122b262e90742b4530a03a655c545a19d9e1f58c12d08bc0278721332519726cd843823b3561ab6ebc539b7763b0150816df302fd750937197780d1d0a992a21e60dee576ed696e58a7111d657d58005d557026a44018976c05a3e61f9045eca2d56cf18a724c093e081590257bdd236dd4e7d92fc5fad6b721135e63f174f81a98b98c046ec89710fb023d0c76f27fece0ad195fc6ed574ca0e0190095a46e0ef76124798571922a2822113a8a26165d0ac596c405e1052fd3fb8aa15fe7f0bcae6e89b59687996062e47529599fa22777aee735c804bfe12de549f0141440a51c0326b76dff52453b49ac062daad5d1beca6b544dd0ece4fb89502756a4e38bde6042a810edfcb59caea57f7162c728f8dba9c429ddb9933dcb39689068f13e62746ed984a426d7d35e9cd4d7439b09df6ce1e4a9b57f8b070783d8e989fde7a98554b41e26df81ce8a07ba09f2d44d0d1e9b5dbd064c4fa100ef4d6e985707f4fe4dae029d023115d03b43cdc060b8ddf19c1879e45e03b8fa762078b7aad9d87a8b44acf12804492f8d0cb8f79de4459f4e60155c179266ded1890008942a2ef17ab3f9ad73770605625448bce3b8bcda8d0cc85783d15140092ab9284deb444f1302553ab00a6d1f48df10a1f7af9cbeb64b93c0355183921940b15da9de60cdd7d9ec224d8dc5b1aaeba0fafb745b4d61bfb736c90c5750745d3d816c3d8006fc3eaea6b5dfd70bad7158cb10858b55077ad4cc7d90aec3bdfa842648d87916474ed60f6a110f9abf6c1a3fab43f402f0a9c2119620c7e336360ea5b23959c99e2d5fdd239a3846c3c81154f7caed40700adfa39e30f7c0f78b64cb31c1afba7e01a6f317ec3d2cd96afc1e9b26ef8f4c3c44e8e130aa92b28b869cb33055122bcffbc810e8c8d80aaee3f7d4b9feb6489b6c16539edd39d9befef7fcc95cecb0e1bff290ad905e7c4053b834fd836f9328f64234429ed3c496cb28b338c66080ff664207938b6e841a0ba65b286c8925d8fbc4a72b7f9e9f80339b5b4125c87629310c61119fbedb540237eb3419028870d76fe7f07300d21231b122dfca7ae7aeab507886c08585655cdec12c808fb989bd2d7fbdb71cc5109541898364a345a243bce0d395c21b001c54d34669b2a10d7c0a4e5499a4b2a4254b3dde199708faff178dc56f397e6aa1cb6ec7cf5eacc1362c7bc81bc8cbf4a15ac565dcfc2b2521b3a7d273c7d4f58a832494d467a90590ea35e6c4be323afd12fac6d7e9c7ec73eaaba1d90cb1c12c46f5d4a191c946caa8eebea10fed1fb6543a48258128ad4be6b53223ab03010f56d89ac0dc68e99568c5b7151a3ca54ef6364249b3611afbdfe06cdcd26c0448548a035a7110d3c742d54aed4062b393fbd6dcf4a9ced2e32064d4e9689a343b0bf91bfaddd9ee9062606c7c9be4c298fe21ae114796a043f5757e2b3deb38c35700d3d8053afb858ae3956b4123a5fe95f0dd77bf05dda0667ac5470a47cb86443dd868373d998b6f270304787ace34a4475a34811b516d3f3b1a0107f3c2c904873a21e7fd84be5ffcbd80c57ce5a5780bed7e47700149b11179a975b54cf1ab1b887f94636d84121803802d749e1a06a36f1449e1f1488657af169040278d8e73275b5e7633494a860010ec270d728849d33b414d044dec14c573561d774d911e2b4e03fd1f1c6a324e99f3f4659ca6bb80f51a684528b9107d6e5d5cb853ec70c226168369204a4e2b92f0e8d4fcfb66666aede44280d72f7bfcc44c6f704b62e0e9d37c36ade548ae9f94587e94df2900c788c61f04ef91f8de12f7a4f201b33db32aa812be5ebcb65e80dcce288a47698d3d40ec4dcfd45890ab627d65f5f82da1e3675b269d5685dfa731a8054227f4416373d4b30cb273b35acd51a1ff806c178066df1af06614ec23e9692c27a2122ef69120a9d9af46c3ed18b3d6499ca8f0a0a0ab6b7049a1f38452cea2bdbc0c5ab1eec2b9d1e861066dd06c07bdf6c5a8f21b66a4569f8191aa5ffe828f4bee43eccf4f0434987d4712e9c52e717831fbbbf617cbdd6d46827912af5b1e9c093aa3a4bddfa2815d4e80f237000c8c1c88656627b4266823fb68a72119f91cb6f830b4ed779385f4dbe5e0690032c34f35f6d8d53bc9906001cada43a8a964951f635b5b00e6b7f50e8096ec65d07098147301258c69f958b684a27d2825c08f9d16289f23375ff37e2d61ae33bf9b843351260cb67f993ceadffa8f024d444286b8dd8bc70288339d473330649229f5a3cfb93658f1dd310939a92fecc4bc3453e397875bdfb0f19310d78420aba6ea4ba2ad89c36b7539b98452c060b2673d29acd6e86f1728d97b4dd6b75eb4c0cc2450de7529592731d5c5e76a00829edf24aa495741095e8691a48586e647a7024dcfd5f012fb4e72767bf7688d4ef5212625104233e6ea664ee9adba6a94711c74508d3cf3a9ef4be7d5e5bfa5ec7fd67afbcc97a62669cfd3f6ccaacfb22e7966dcf340e4db32828ffbadc462646264f101619f1944b494896e4ef8b2963871811d3e4d898daac9fa137768c7d67bcd0352c29741c86bfed0274827bfcb23fc436646bd8780710479d5fa59bf5a423046c87d7f6804a11a8bba647064803848427e674a77b95ca66cff44a60c9058626390c89e71d37c91c269710bddd50399735d794f9f15e7a5b171df0cbcbe91efba3ab9a0f91424a8e5773852c58ebe284eb11cbbe724d9ff292c4c5632c536267e57bc2684d220d568d865bcffe9b48207b0cf5707a27e4be3b155f28b13e9f6dffda2317fbba155054fc68a0175c9698d45475ee8f95d628ceca601d7aa9b6c37950ad036ba9b76548a0d39b9c313ab8e089e100a8cc622e90a90304b9c85cbd867ece07980bfbd60d46228f92ef1b578376247b5047e95a520f87ccdd84225d90a2896e9969dbac934922439c938911e200c21542d31a0a9dd0c74c075ae0836af2f379eb2eac158adbe2e16819d644e1eff80983ac5c71ee2bd59de38fcbf38e961189accbb579cf279cdf1a1112e081c83d5465dd157c9969670d508099f443dc6f45ba4e4127b4d56364f149a61659e520035808fb575afecb54b018427ed8fa5133448a981d9736aa8996c3319a930e911379128470841a4c1d7b640e65fddbb0d8906a9a38bcc83abc4d01ec862770ae43defbb53d733adcb983dac2aaf801b4d2243fbdbe8bf6fe59ae71b121e4b5dce691fe46dbb01d5f4535e2f3f111f8064bfbf432530e7467bd9691e92fbf8f4123d7b39f1e1349c540fdc5bf66c75434f470cf5a636f298362d962fae0b4daae61798f193af669e105d94fd64e05483aea00846ca1d46baaa51f53de4aa18ee82ced90f1b2e5793bfc6cdd2e9ef1927353f40484e5051616e6f7b8f98aacbf2fcfd0e11173b60a0c2c4f1061b21246b7378a1a2aecdec000000000000000000000000000000000000000000000000000000000b1f283401fd21050026727d681c116b98decb0a33a3931cd6e6ac39ea4309738511a689a43d7c97fefb827c1d4737ad63ecc32652c59bf43a11d134e94645e6f82a288987ec3cd5577312ebc6aaacbd887d584405cd23b1baeea37ed89e31f15e082a963513fca038c24786c22c3cd94903650fec298a7b933af0eec0fb7898261ccbd81371b2f69991303fed184b0933a6f187b81df129ce06354fd222ac0b139f45288e41de3508d6aa37b1c799433fd8813063147e581c9dcc408c720ecee596ad7e303bbfe0f662b0ff04f7d6e547580431645b8d4a401e13eded5cab549abeb8dc7126947947a1b096b14ad6d09d4be5a0b105f4a965b96e82257a12bd51352f99e7bf39a438ef49910e91187cd4902e2ab0a26049f512015137c5537f41c262ab7cbf4d8917466b04946000981dd163795054ab42d6aefd9b54b3bbb9091a2cc593fabc347e1087c7f08864f0e31a0763d36d104285a2fa26b1ebec97c2ef451a3a98c779fd388bb15888cc80abf12265ba4bf74f615eb18b48c900a18699429cedef2af9cea2a40126ddcf38756d12ac6109777c9118b7056dc115ea7366a53586bb293f0f6358abee1c5b88adb0d89c4dc7e6b69ae9f41dbad244ee6f30f03110734c3618805b2495d6155afb79f3b02a94085f4ca7e292cda8277b123f4ba7dcc7cbd49693eacf4ae47f2a10fc8661c302a4436b5bc6e635d8b1277feb12a3560c6e4b4814cb3e978260eccf95990641e5ad39954213ffb292d9490997c4ca33a7604326af32e820bd1630fd511078697c96f55f9e284c7c51d9892b2cce53ad270cca7ee292944a113b5f95d69404cfc4983cdf4ace237519545c659d4950aa834ca70d2a5c727251e044ea33d8e6309be0cd9f95e31359ea280b808e99c1909cc4d420265abb18a5f5c4c008b441baa38d90c264206bdcacc4f55bfde1bc7fae082fc7b75574b56cb6d6a0ce17ea76faf1feb206bfdffecd33a12731df2595e258f2da7529c9dfe68bfc551f49a196b26a1e9ece204690ee4eac2cc5c8ab7eaca32d56bfa6720762cc2e8bf321758f3f04340294a966c1a2af07298426b8d9152904a013047186ef01c95696a1f4a6d58d152bcb4303f66250bfaf42707005f479f66162221d721d3e47e7caa8d73f677e38759843d5f4910558bafe228d35b8736b4dfa709f1d269b5298a0a54cbe067cec95525538f5c9a1a5d495007e6a76f5e7bd18f08ef93e016aa614fc0523b92eb5d962873c99f2425184f8f42d2cbc7fad2762e2bcea2640e1ab8c5e243f275598febece724d361f04e5953c56b9d7cbab905d42a70dfb5e0c5de1e1b0873146ece4a8f9dc6938a3639b6746a52b23f268eb9be83f21cac6cb08266be0ee4bcfd92de006d85a1fb5c0e49db36ffd8ae9f7c6c424f174fb5d4aa4254a0f01de601010a12bbd95465cd82471ad32975e5d50b03d060a7996922a34e726aa2fd07644d04ad9ba87d87228e3edc4fd0ef509fd8dbf893a31b6db5dca8e2fbea3a3e91c26075a80c770701500c9a7b899d292aa9a160e3a3cac76c05cdd7b1663f35d2f30c2785fb3945bbcde0d051e7d01cb10827071b7cfb501bbd0adc4dd40dc8862e150d46c0754bd5cc834b148b51ac1ed9e27579af6cc23d139d61b4e72693e7eac31c14c299d0fbd9992671ce2bfd49bbab3a0abedc90110fc47072d6f3613e149031afd2a969c3f27d88bf267c2ff3eed9c994355ee3416443cdb948d7d524aad0cc8d1cb2e2baa143bc5623ac7f28012e521f1dff0b5431ce31819f9b51239e4ec4a12ba97b1de988a786e3f680f50d9d048d2febdc64f8adc1cdcc8cc9471b04db1ead6fee3f98d648e13b9167ff15f67000000",
  "txid": "6c6d096f71df26418f9c368243778200bf7888ddcd6775de60b637a9750ec489",
  "hash": "78e4dfc664e05845916fe52209260c1833f45b5b377bc4fcdf1676bed2640c8e",
  "size": 5085,
  "vsize": 2278,
  "version": 1,
  "locktime": 103,
  "vin": [
    {
      "txid": "e5e3c2ba5f7b76cdaaf40f7d57faeb756a6bf61b937f95225ddf4ef2a13dee68",
      "vout": 1,
      "scriptSig": {
        "asm": "",
        "hex": ""
      },
      "txinwitness": [
        "37197780d1d0a992a21e60dee576ed696e58a7111d657d58005d557026a44018976c05a3e61f9045eca2d56cf18a724c093e081590257bdd236dd4e7d92fc5fad6b721135e63f174f81a98b98c046ec89710fb023d0c76f27fece0ad195fc6ed574ca0e0190095a46e0ef76124798571922a2822113a8a26165d0ac596c405e1052fd3fb8aa15fe7f0bcae6e89b59687996062e47529599fa22777aee735c804bfe12de549f0141440a51c0326b76dff52453b49ac062daad5d1beca6b544dd0ece4fb89502756a4e38bde6042a810edfcb59caea57f7162c728f8dba9c429ddb9933dcb39689068f13e62746ed984a426d7d35e9cd4d7439b09df6ce1e4a9b57f8b070783d8e989fde7a98554b41e26df81ce8a07ba09f2d44d0d1e9b5dbd064c4fa100ef4d6e985707f4fe4dae029d023115d03b43cdc060b8ddf19c1879e45e03b8fa762078b7aad9d87a8b44acf12804492f8d0cb8f79de4459f4e60155c179266ded1890008942a2ef17ab3f9ad73770605625448bce3b8bcda8d0cc85783d15140092ab9284deb444f1302553ab00a6d1f48df10a1f7af9cbeb64b93c0355183921940b15da9de60cdd7d9ec224d8dc5b1aaeba0fafb745b4d61bfb736c90c5750745d3d816c3d8006fc3eaea6b5dfd70bad7158cb10858b55077ad4cc7d90aec3bdfa842648d87916474ed60f6a110f9abf6c1a3fab43f402f0a9c2119620c7e336360ea5b23959c99e2d5fdd239a3846c3c81154f7caed40700adfa39e30f7c0f78b64cb31c1afba7e01a6f317ec3d2cd96afc1e9b26ef8f4c3c44e8e130aa92b28b869cb33055122bcffbc810e8c8d80aaee3f7d4b9feb6489b6c16539edd39d9befef7fcc95cecb0e1bff290ad905e7c4053b834fd836f9328f64234429ed3c496cb28b338c66080ff664207938b6e841a0ba65b286c8925d8fbc4a72b7f9e9f80339b5b4125c87629310c61119fbedb540237eb3419028870d76fe7f07300d21231b122dfca7ae7aeab507886c08585655cdec12c808fb989bd2d7fbdb71cc5109541898364a345a243bce0d395c21b001c54d34669b2a10d7c0a4e5499a4b2a4254b3dde199708faff178dc56f397e6aa1cb6ec7cf5eacc1362c7bc81bc8cbf4a15ac565dcfc2b2521b3a7d273c7d4f58a832494d467a90590ea35e6c4be323afd12fac6d7e9c7ec73eaaba1d90cb1c12c46f5d4a191c946caa8eebea10fed1fb6543a48258128ad4be6b53223ab03010f56d89ac0dc68e99568c5b7151a3ca54ef6364249b3611afbdfe06cdcd26c0448548a035a7110d3c742d54aed4062b393fbd6dcf4a9ced2e32064d4e9689a343b0bf91bfaddd9ee9062606c7c9be4c298fe21ae114796a043f5757e2b3deb38c35700d3d8053afb858ae3956b4123a5fe95f0dd77bf05dda0667ac5470a47cb86443dd868373d998b6f270304787ace34a4475a34811b516d3f3b1a0107f3c2c904873a21e7fd84be5ffcbd80c57ce5a5780bed7e47700149b11179a975b54cf1ab1b887f94636d84121803802d749e1a06a36f1449e1f1488657af169040278d8e73275b5e7633494a860010ec270d728849d33b414d044dec14c573561d774d911e2b4e03fd1f1c6a324e99f3f4659ca6bb80f51a684528b9107d6e5d5cb853ec70c226168369204a4e2b92f0e8d4fcfb66666aede44280d72f7bfcc44c6f704b62e0e9d37c36ade548ae9f94587e94df2900c788c61f04ef91f8de12f7a4f201b33db32aa812be5ebcb65e80dcce288a47698d3d40ec4dcfd45890ab627d65f5f82da1e3675b269d5685dfa731a8054227f4416373d4b30cb273b35acd51a1ff806c178066df1af06614ec23e9692c27a2122ef69120a9d9af46c3ed18b3d6499ca8f0a0a0ab6b7049a1f38452cea2bdbc0c5ab1eec2b9d1e861066dd06c07bdf6c5a8f21b66a4569f8191aa5ffe828f4bee43eccf4f0434987d4712e9c52e717831fbbbf617cbdd6d46827912af5b1e9c093aa3a4bddfa2815d4e80f237000c8c1c88656627b4266823fb68a72119f91cb6f830b4ed779385f4dbe5e0690032c34f35f6d8d53bc9906001cada43a8a964951f635b5b00e6b7f50e8096ec65d07098147301258c69f958b684a27d2825c08f9d16289f23375ff37e2d61ae33bf9b843351260cb67f993ceadffa8f024d444286b8dd8bc70288339d473330649229f5a3cfb93658f1dd310939a92fecc4bc3453e397875bdfb0f19310d78420aba6ea4ba2ad89c36b7539b98452c060b2673d29acd6e86f1728d97b4dd6b75eb4c0cc2450de7529592731d5c5e76a00829edf24aa495741095e8691a48586e647a7024dcfd5f012fb4e72767bf7688d4ef5212625104233e6ea664ee9adba6a94711c74508d3cf3a9ef4be7d5e5bfa5ec7fd67afbcc97a62669cfd3f6ccaacfb22e7966dcf340e4db32828ffbadc462646264f101619f1944b494896e4ef8b2963871811d3e4d898daac9fa137768c7d67bcd0352c29741c86bfed0274827bfcb23fc436646bd8780710479d5fa59bf5a423046c87d7f6804a11a8bba647064803848427e674a77b95ca66cff44a60c9058626390c89e71d37c91c269710bddd50399735d794f9f15e7a5b171df0cbcbe91efba3ab9a0f91424a8e5773852c58ebe284eb11cbbe724d9ff292c4c5632c536267e57bc2684d220d568d865bcffe9b48207b0cf5707a27e4be3b155f28b13e9f6dffda2317fbba155054fc68a0175c9698d45475ee8f95d628ceca601d7aa9b6c37950ad036ba9b76548a0d39b9c313ab8e089e100a8cc622e90a90304b9c85cbd867ece07980bfbd60d46228f92ef1b578376247b5047e95a520f87ccdd84225d90a2896e9969dbac934922439c938911e200c21542d31a0a9dd0c74c075ae0836af2f379eb2eac158adbe2e16819d644e1eff80983ac5c71ee2bd59de38fcbf38e961189accbb579cf279cdf1a1112e081c83d5465dd157c9969670d508099f443dc6f45ba4e4127b4d56364f149a61659e520035808fb575afecb54b018427ed8fa5133448a981d9736aa8996c3319a930e911379128470841a4c1d7b640e65fddbb0d8906a9a38bcc83abc4d01ec862770ae43defbb53d733adcb983dac2aaf801b4d2243fbdbe8bf6fe59ae71b121e4b5dce691fe46dbb01d5f4535e2f3f111f8064bfbf432530e7467bd9691e92fbf8f4123d7b39f1e1349c540fdc5bf66c75434f470cf5a636f298362d962fae0b4daae61798f193af669e105d94fd64e05483aea00846ca1d46baaa51f53de4aa18ee82ced90f1b2e5793bfc6cdd2e9ef1927353f40484e5051616e6f7b8f98aacbf2fcfd0e11173b60a0c2c4f1061b21246b7378a1a2aecdec000000000000000000000000000000000000000000000000000000000b1f283401",
        "0026727d681c116b98decb0a33a3931cd6e6ac39ea4309738511a689a43d7c97fefb827c1d4737ad63ecc32652c59bf43a11d134e94645e6f82a288987ec3cd5577312ebc6aaacbd887d584405cd23b1baeea37ed89e31f15e082a963513fca038c24786c22c3cd94903650fec298a7b933af0eec0fb7898261ccbd81371b2f69991303fed184b0933a6f187b81df129ce06354fd222ac0b139f45288e41de3508d6aa37b1c799433fd8813063147e581c9dcc408c720ecee596ad7e303bbfe0f662b0ff04f7d6e547580431645b8d4a401e13eded5cab549abeb8dc7126947947a1b096b14ad6d09d4be5a0b105f4a965b96e82257a12bd51352f99e7bf39a438ef49910e91187cd4902e2ab0a26049f512015137c5537f41c262ab7cbf4d8917466b04946000981dd163795054ab42d6aefd9b54b3bbb9091a2cc593fabc347e1087c7f08864f0e31a0763d36d104285a2fa26b1ebec97c2ef451a3a98c779fd388bb15888cc80abf12265ba4bf74f615eb18b48c900a18699429cedef2af9cea2a40126ddcf38756d12ac6109777c9118b7056dc115ea7366a53586bb293f0f6358abee1c5b88adb0d89c4dc7e6b69ae9f41dbad244ee6f30f03110734c3618805b2495d6155afb79f3b02a94085f4ca7e292cda8277b123f4ba7dcc7cbd49693eacf4ae47f2a10fc8661c302a4436b5bc6e635d8b1277feb12a3560c6e4b4814cb3e978260eccf95990641e5ad39954213ffb292d9490997c4ca33a7604326af32e820bd1630fd511078697c96f55f9e284c7c51d9892b2cce53ad270cca7ee292944a113b5f95d69404cfc4983cdf4ace237519545c659d4950aa834ca70d2a5c727251e044ea33d8e6309be0cd9f95e31359ea280b808e99c1909cc4d420265abb18a5f5c4c008b441baa38d90c264206bdcacc4f55bfde1bc7fae082fc7b75574b56cb6d6a0ce17ea76faf1feb206bfdffecd33a12731df2595e258f2da7529c9dfe68bfc551f49a196b26a1e9ece204690ee4eac2cc5c8ab7eaca32d56bfa6720762cc2e8bf321758f3f04340294a966c1a2af07298426b8d9152904a013047186ef01c95696a1f4a6d58d152bcb4303f66250bfaf42707005f479f66162221d721d3e47e7caa8d73f677e38759843d5f4910558bafe228d35b8736b4dfa709f1d269b5298a0a54cbe067cec95525538f5c9a1a5d495007e6a76f5e7bd18f08ef93e016aa614fc0523b92eb5d962873c99f2425184f8f42d2cbc7fad2762e2bcea2640e1ab8c5e243f275598febece724d361f04e5953c56b9d7cbab905d42a70dfb5e0c5de1e1b0873146ece4a8f9dc6938a3639b6746a52b23f268eb9be83f21cac6cb08266be0ee4bcfd92de006d85a1fb5c0e49db36ffd8ae9f7c6c424f174fb5d4aa4254a0f01de601010a12bbd95465cd82471ad32975e5d50b03d060a7996922a34e726aa2fd07644d04ad9ba87d87228e3edc4fd0ef509fd8dbf893a31b6db5dca8e2fbea3a3e91c26075a80c770701500c9a7b899d292aa9a160e3a3cac76c05cdd7b1663f35d2f30c2785fb3945bbcde0d051e7d01cb10827071b7cfb501bbd0adc4dd40dc8862e150d46c0754bd5cc834b148b51ac1ed9e27579af6cc23d139d61b4e72693e7eac31c14c299d0fbd9992671ce2bfd49bbab3a0abedc90110fc47072d6f3613e149031afd2a969c3f27d88bf267c2ff3eed9c994355ee3416443cdb948d7d524aad0cc8d1cb2e2baa143bc5623ac7f28012e521f1dff0b5431ce31819f9b51239e4ec4a12ba97b1de988a786e3f680f50d9d048d2febdc64f8adc1cdcc8cc9471b04db1ead6fee3f98d648e13b9167ff15f"
      ],
      "sequence": 4294967294
    }
  ],
  "vout": [
    {
      "value": 499995.9324,
      "n": 0,
      "scriptPubKey": {
        "asm": "1 cc19ad30580540e0e66815e0cb5c9f1c1d05b3a9fd5bd0faa94fb0ff9449399f",
        "hex": "5120cc19ad30580540e0e66815e0cb5c9f1c1d05b3a9fd5bd0faa94fb0ff9449399f",
        "reqSigs": 1,
        "type": "witness_v1_scripthash",
        "addresses": [
          "3QJmnh"
        ]
      }
    },
    {
      "value": 1.0,
      "n": 1,
      "scriptPubKey": {
        "asm": "OP_RETURN 6445b7c2e3c4a07d3f0ae37087be92dac736a606e329e5c4d2ef786d7718a7fb e26987c234d38a8326d545c5211d1e9facf04b8b9ad8f5e46490a0459c2142d2c249a7e214f3aaa306f565e5013d3ebf8cd06babbaf8d5c444b08065bc0162f2a229c7827493cac366950585615d5edfecb00bcbda98b5a424d0e005dc6102928209e7a254b3eae346b525a5417d7effcc902bebfab8958404f0c025fc4122b262e90742b4530a03a655c545a19d9e1f2c70cb0b1a587564e41020c51ca1c25242c9276294732a238675e56581bdbe3f0c50eb2b3a785544c43000e53c81e27222a94702f4134a43e6158505e1ddde5f6c308b4b5a183524a45060855ce1821202896722d4336a63c635a525c1fdfe7f4c10ab6b7a381504847040a57cc1a232e26987c234d38a8326d545c5211d1e9facf04b8b9ad8f5e46490a0459c2142d2c249a7e214f3aaa306f565e5013d3ebf8cd06babbaf8d5c444b08065bc0162f2a229c7827493cac366950585615d5edfecb00bcbda98b5a424d0e005dc6102928209e7a254b3eae346b525a5417d7effcc902bebfab8958404f0c025fc4122b262e90742b4530a03a655c545a19d9e1f2c70cb0b1a587564e41020c51ca1c25242c9276294732a238675e56581bdbe3f0c50eb2b3a785544c43000e53c81e27222a94702f4134a43e6158505e1ddde5f6c308b4b5a183524a45060855ce1821202896722d4336a63c635a525c1fdfe7f4c10ab6b7a381504847040a57cc1a232e26987c234d38a8326d545c5211d1e9facf04b8b9ad8f5e46490a0459c2142d2c249a7e214f3aaa306f565e5013d3ebf8cd06babbaf8d5c444b08065bc0162f2a229c7827493cac366950585615d5edfecb00bcbda98b5a424d0e005dc6102928209e7a254b3eae346b525a5417d7effcc902bebfab8958404f0c025fc4122b262e90742b4530a03a655c545a19d9e1f2c70cb0b1a587564e41020c51ca1c25242c9276294732a238675e56581bdbe3f0c50eb2b3a785544c43000e53c81e27222a94702f4134a43e6158505e1ddde5f6c308b4b5a183524a45060855ce1821202896722d4336a63c635a525c1fdfe7f4c10ab6b7a381504847040a57cc1a232e26987c234d38a8326d545c5211d1e9facf04b8b9ad8f5e46490a0459c2142d2c249a7e214f3aaa306f565e5013d3ebf8cd06babbaf8d5c444b08065bc0162f2a229c7827493cac366950585615d5edfecb00bcbda98b5a424d0e005dc6102928209e7a254b3eae346b525a5417d7effcc902bebfab8958404f0c025fc4122b262e90742b4530a03a655c545a19d9e1f2c70cb0b1a587564e41020c51ca1c25242c9276294732a238675e56581bdbe3f0c50eb2b3a785544c43000e53c81e27222a94702f4134a43e6158505e1ddde5f6c308b4b5a183524a45060855ce1821202896722d4336a63c635a525c1fdfe7f4c10ab6b7a381504847040a57cc1a232e26987c234d38a8326d545c5211d1e9facf04b8b9ad8f5e46490a0459c2142d2c249a7e214f3aaa306f565e5013d3ebf8cd06babbaf8d5c444b08065bc0162f2a229c7827493cac366950585615d5edfecb00bcbda98b5a424d0e005dc6102928209e7a254b3eae346b525a5417d7effcc902bebfab8958404f0c025fc4122b262e90742b4530a03a655c545a19d9e1f58c12d08bc0278721332519726cd843823b3561ab6ebc539b7763b0150816df3",
        "hex": "6a206445b7c2e3c4a07d3f0ae37087be92dac736a606e329e5c4d2ef786d7718a7fb4db004e26987c234d38a8326d545c5211d1e9facf04b8b9ad8f5e46490a0459c2142d2c249a7e214f3aaa306f565e5013d3ebf8cd06babbaf8d5c444b08065bc0162f2a229c7827493cac366950585615d5edfecb00bcbda98b5a424d0e005dc6102928209e7a254b3eae346b525a5417d7effcc902bebfab8958404f0c025fc4122b262e90742b4530a03a655c545a19d9e1f2c70cb0b1a587564e41020c51ca1c25242c9276294732a238675e56581bdbe3f0c50eb2b3a785544c43000e53c81e27222a94702f4134a43e6158505e1ddde5f6c308b4b5a183524a45060855ce1821202896722d4336a63c635a525c1fdfe7f4c10ab6b7a381504847040a57cc1a232e26987c234d38a8326d545c5211d1e9facf04b8b9ad8f5e46490a0459c2142d2c249a7e214f3aaa306f565e5013d3ebf8cd06babbaf8d5c444b08065bc0162f2a229c7827493cac366950585615d5edfecb00bcbda98b5a424d0e005dc6102928209e7a254b3eae346b525a5417d7effcc902bebfab8958404f0c025fc4122b262e90742b4530a03a655c545a19d9e1f2c70cb0b1a587564e41020c51ca1c25242c9276294732a238675e56581bdbe3f0c50eb2b3a785544c43000e53c81e27222a94702f4134a43e6158505e1ddde5f6c308b4b5a183524a45060855ce1821202896722d4336a63c635a525c1fdfe7f4c10ab6b7a381504847040a57cc1a232e26987c234d38a8326d545c5211d1e9facf04b8b9ad8f5e46490a0459c2142d2c249a7e214f3aaa306f565e5013d3ebf8cd06babbaf8d5c444b08065bc0162f2a229c7827493cac366950585615d5edfecb00bcbda98b5a424d0e005dc6102928209e7a254b3eae346b525a5417d7effcc902bebfab8958404f0c025fc4122b262e90742b4530a03a655c545a19d9e1f2c70cb0b1a587564e41020c51ca1c25242c9276294732a238675e56581bdbe3f0c50eb2b3a785544c43000e53c81e27222a94702f4134a43e6158505e1ddde5f6c308b4b5a183524a45060855ce1821202896722d4336a63c635a525c1fdfe7f4c10ab6b7a381504847040a57cc1a232e26987c234d38a8326d545c5211d1e9facf04b8b9ad8f5e46490a0459c2142d2c249a7e214f3aaa306f565e5013d3ebf8cd06babbaf8d5c444b08065bc0162f2a229c7827493cac366950585615d5edfecb00bcbda98b5a424d0e005dc6102928209e7a254b3eae346b525a5417d7effcc902bebfab8958404f0c025fc4122b262e90742b4530a03a655c545a19d9e1f2c70cb0b1a587564e41020c51ca1c25242c9276294732a238675e56581bdbe3f0c50eb2b3a785544c43000e53c81e27222a94702f4134a43e6158505e1ddde5f6c308b4b5a183524a45060855ce1821202896722d4336a63c635a525c1fdfe7f4c10ab6b7a381504847040a57cc1a232e26987c234d38a8326d545c5211d1e9facf04b8b9ad8f5e46490a0459c2142d2c249a7e214f3aaa306f565e5013d3ebf8cd06babbaf8d5c444b08065bc0162f2a229c7827493cac366950585615d5edfecb00bcbda98b5a424d0e005dc6102928209e7a254b3eae346b525a5417d7effcc902bebfab8958404f0c025fc4122b262e90742b4530a03a655c545a19d9e1f58c12d08bc0278721332519726cd843823b3561ab6ebc539b7763b0150816df3",
        "type": "nulldata"
      }
    }
  ],
  "blockhash": "15af9b025c636b87e0a10c18a1a8de0e5f3c2069ad563b293161176d75df89a4",
  "confirmations": 1,
  "time": 1764174659,
  "blocktime": 1764174659
}