{
  "hex": "010000000001014269239187d28a0656ab6caf83f07f5f8535da8467050b9957fa302a93ed51380000000000feffffff0200e1f50500000000fdd5046a2053de5a31c20913c7d2a4baf42b212dba50aa7e31baafe77cf11c9c08bb4095bb4db004f8afbf235949f14fae4bbfa5997902f1d7175c1bc4601365983801530993e6c5d88f9f037969d16f8e6b9f85b95922d1f7377c3be4403345b818217329b3c6e5b8efff631909b10fee0bffe5d93942b197571c5b84205325d878411349d3a68598cfdf433929912fce2bdfc5f9196291b7773c7ba4007305f858613369f386a5782f3fa3d9c971cf2ecb3f2519f982715797dc9b44e093e518b881d389136645580f1f83f9e951ef0eeb1f0539d9a25177b7fcbb64c0b3c53898a1f3a9334665386f7fe39989318f6e8b7f6559b9c23117d79cdb04a0d3a558f8c193c9532605184f5fc3b9a911af4eab5f457999e21137f7bcfb2480f38578d8e1b3e9730625f8afbf235949f14fae4bbfa5997902f1d7175c1bc4601365983801530993e6c5d88f9f037969d16f8e6b9f85b95922d1f7377c3be4403345b818217329b3c6e5b8efff631909b10fee0bffe5d93942b197571c5b84205325d878411349d3a68598cfdf433929912fce2bdfc5f9196291b7773c7ba4007305f858613369f386a5782f3fa3d9c971cf2ecb3f2519f982715797dc9b44e093e518b881d389136645580f1f83f9e951ef0eeb1f0539d9a25177b7fcbb64c0b3c53898a1f3a9334665386f7fe39989318f6e8b7f6559b9c23117d79cdb04a0d3a558f8c193c9532605184f5fc3b9a911af4eab5f457999e21137f7bcfb2480f38578d8e1b3e9730625f8afbf235949f14fae4bbfa5997902f1d7175c1bc4601365983801530993e6c5d88f9f037969d16f8e6b9f85b95922d1f7377c3be4403345b818217329b3c6e5b8efff631909b10fee0bffe5d93942b197571c5b84205325d878411349d3a68598cfdf433929912fce2bdfc5f9196291b7773c7ba4007305f858613369f386a5782f3fa3d9c971cf2ecb3f2519f982715797dc9b44e093e518b881d389136645580f1f83f9e951ef0eeb1f0539d9a25177b7fcbb64c0b3c53898a1f3a9334665386f7fe39989318f6e8b7f6559b9c23117d79cdb04a0d3a558f8c193c9532605184f5fc3b9a911af4eab5f457999e21137f7bcfb2480f38578d8e1b3e9730625f8afbf235949f14fae4bbfa5997902f1d7175c1bc4601365983801530993e6c5d88f9f037969d16f8e6b9f85b95922d1f7377c3be4403345b818217329b3c6e5b8efff631909b10fee0bffe5d93942b197571c5b84205325d878411349d3a68598cfdf433929912fce2bdfc5f9196291b7773c7ba4007305f858613369f386a5782f3fa3d9c971cf2ecb3f2519f982715797dc9b44e093e518b881d389136645580f1f83f9e951ef0eeb1f0539d9a25177b7fcbb64c0b3c53898a1f3a9334665386f7fe39989318f6e8b7f6559b9c23117d79cdb04a0d3a558f8c193c9532605184f5fc3b9a911af4eab5f457999e21137f7bcfb2480f38578d8e1b3e9730625f8afbf235949f14fae4bbfa5997902f1d7175c1bc4601365983801530993e6c5d88f9f037969d16f8e6b9f85b95922d1f7377c3be4403345b818217329b3c6e5b8efff631909b10fee0bffe5d93942b197571c5b84205325d878411349d3a68598cfdf433929912fce2bdfc5f9196291b7773c7ba4007305f858613369f386a5782f3fa3d9c971cf2ecb3f2519f982719788f84b37fb499c8d548dc377fc08a65c6fee767722d9ef71953912914bc9a520cc6133792d0000225120a85056e5eae084503455e81063cf523645b831654dc344267c84c32c70049a1e02fd75091b4da9ef71ab3d9ac147b9679ed93fc9b01a42dd3c135c75f1864429bf7417549e3bc6a8dbd84499fd035ac4bef2d9de79b0d2b4e527e0927bca7774648d40588d94fa8a4078b6bd0cfe93603c5ce77c69d35b129b66d323771ee63b51ce5a3441b024f91eeb0def05e070ea85e49e5994cf0a0661998ee79404bfeb1d8e61458d03780bf9a84163f633f91aa50a43dd0bb5296ca804426d6cc2f6f273856e8fff13654d33042b340975b11ef6257075c6fe9f8a5aa9db88285ee2a279859fc067d6fcf15840e20b1d8875279d4995966c49c6bacb35424ab23c2731f6eea27631c80c9953f0dd44b8f409158587589716961b1a999a4fa74e0a422622f7c994f433d3b19ff067cfbcc126cfa20a95a40eecd3405c19da4008ef7ad99dc7806d1b19e44079ac6b95b455fdbc2e23964b151949729829022b879a464d3ebec5f9100ebd7db98c803fcd76abb4fa9992b16141429bd7ad3cd5dc6b634f1f7ecf0303033eb59722f95ed477df9514de141c25f9a0e4ceeeef7ca196976632247b73a6ed4ae09ea0ad2bfc601c32f3bdd25c3c13503f336b354d84d5fd64ddbd41320be27de70058bbe1b512e0ef44cd65828d8177cdd814b958d367e3a400e882316725ac5d18e4e51c7b227e636b061637a7236dba2505fb2909c9dcef854b4e256ada83c4ee44a118a949f267534a12e3115cb3447126af34247ce2d6e88f6856b49707a8cab89e2d8efc74e5a4d6a20affe6f3b9f828841e2467a5675acfffefecffddf09b5a6cc16406b80062fa6843181c0f96013bacbb0b1b031d9dff63ceb078f21d47e7613dee7e59f87ed4b28aeba434c5ac5008cf8d3bad1f16aac39764ad12fba3bf8f02a3662217245be0c36c024f31cb628d4d5c40bb74c4768ed3cb9841fb0e4be76b9d5fda592c20b74937f66bb7400b47e4bb22798c0b66c99114c091cc6f0d5e41c5de4e15a631427ff377dea5a54443fe4633f71212bc33fe5450b72c4f506e02459eeb51b9906dec3a59ce66b16f2d983e1c03f83d027eef28007ef53b6fad8823b0b4795351c3ce55def6bf9b227b2cd239c9844f67a7d01a0c0582ab609aaf8d648f50d2ef62669720d327a693d49793710b395b8db6521e57f9799465512fa4ebf9386491478f59e46e9e780dd101177cd052fe73fbb0f71f3dc62389f73e4748261669ec676306513f613886159cb227b73b95f9da9c204ca02667016e107073e424d9ced0d6a678d4e4ec95d9f5307b864c0f17a640b6c6cbe349f3827af5997e32ab84b4cfc7f355cd77486598f5f487a7f52642523b032dfe66d94c4124d209a3e7bd158fa05195f8e4125573fa952e7bd4b8f0f927944ec66cde850217871bc0c0817a378f375437f3827aff61a9e82b1ddf2eab3c1d386a2e834a55972f4cd97476cfe04aa0fbc91687758914e5d9d161a550f70985f94dcf9b4ba94d1ca0f30fcc39b6ba3737195941d590eb3b9ac6da2248caa1980c1f6bcd18e51253809208eb6c8cb4abd58c375e1b206cccbcd523f1328b92944b110e425a98566a8decb45a32be6cddadd5207c630e3e5bb804a8af13379f1e316c66dff949b823ac7545f94fe1b53b81e409e43f5f9527ca756abb483450fe81d011c93615b133906253868ddd6e48c425e897b9904edb8b52146c28b176b74b446acadbfa21655d092750a734b1c5d01047658560bd82d60fd35c4e6e23975bf44dce0816f6786fef5b1690be6da4eebbe150409981a0b6ff1037cbfff23b0046f94160789813024e779083e10d62efb55c23cc4785b0afa197c98a68025af889924682506e6a641b2dfe0baf326aaa78b843427b5bbf0374dab70857f4e056dee8e5f9eb3d49ece0326a77b80eea3dd2b2023dc13c56aa85dbd0c8900737231aed5975559abb476c83b19adffc885a42d8d1bc20db9e325d22b3e53dfd07f5c7db4ac88076e51a82a9f27adb452517099f195f3ea62b91f50455410e28bf12e0116fb7792f9c4783203564c6386b56012599f2c01aee476df6207742e7e53c37512f5b1dd7264080de15f0ef7fd0ba09a1507d2bc5284d66992462e8093b31458f844ea254fa1510367f64f92da92efe8e93ba563eb74193a8a073fc8fb4d6fd38bf8442445a0fda3c203448bc215621d84d0cb85a1dcf5c9bd39d01705e0411f869e97d450fcba7af2db9d1940057ee2abf1231cdb4670034679e0cf327349cf01d13f22bbf1308e1690897d4eec6f12f67a0ef299eccba3928c3714b5129c75e9f2d9a71e11c520c9f69ba76964e054ff6f7874acc8dc3af56884bb39bc0f51fae52becc804b06de1d41f311bc124009d33f7183553eec37a642b90e49d9ce5219674624de5ea95d2326267777d2c99b65940b9ba191b41c333f14dbf4dfa1ee3e4c2ac5a9915a42b6a1faaa237ed79b8b8c243e23325cdeddd6bf43f7d3eaa9eba23fce590e0849781c677c48ada83aac1e596c20cf2844ab9b718c889ea58b33a9faf3bf34ba64f651001f6999ee065cf4ce7b6c5173f94bf0df6cd6389d875ec89c17a9e174846cac7f819ed7b4ee1fec3816c4f793449bfbb9fd3f11f8cb143f8bf94bb04f22100b80ca131f169855df80b9185da862dcda823861c0353b76efc24f524c50e3e94f7c2e277b8a4518cb9e37051f71b3836f9dbe6bf77119790366a829f07bbb2438d1725d3899ea24dfb96e3f83d7ee59159da3693904d8026209d05c02719aa6c5bc07e405557748aeae365ba9ad915ed60beccbe64a8b5e67a127a1df88588fb52ea78e10dbef1bedfca347911e18c70663ddb20e5c0c4f1f4a0d8a2e6a57c51f78a2815a3054dd22addd608d0e10539f5f69224cf035c2fa2c7877baf90ae597bebd3bd78d3ac006b92d03dd2bbd51ab0873886ce9bf56d96296b53d78d4345f7314da18942fb76ff04c0d91fb94b12b2112633165ad4dd04ca48ad6a22613a29ff4e55eb90490b3f7b3994cb4c7e6cf516c3d62f79f570d14ecc67dcc86a960168bf1592046eec89b482eb115d63e7b6d52caff0dd72fc638f121f45e05f891469ccbc01a628bfdbf79cf9e9a6b8b68797cc00cb6dbd176ef5c4de36de1bcd1bf12b8f55149cb35ff807ab19639995b4cc89c56d786f6cfed05eeee12e59a5305286e5266a4b59e1ad738c13db0906a011df00b8ada61f65e17395a8eea5f3f7433751853bc961b3cc897b291cb8d748ead54474b868361c21bdb2fc3bb7613bc903664d621dc9af35e841f370285bf7a52ca67517ee29970a891006a2a3902b45353aca7acad9024068046740062299b0e1e24384f52575980c6d6e8090a16304345464c5b6e7d848589a0bbc1d2d5f2283b60728795c5cddee1e6e7fb282c323c41455e728182eaf300000000000000000000000000000000000000000000000c202d3901fd210500a64f51282532d7e0dc21a0d4b83fa729f1065b3fa1a3cb42caa1291eda1cbb5dd224d10731eabde08ebd57e7219a655f91dc90ec98fcc952e5d5f08ee47b5e7e99f77dbfa568b4fcc899064b1aa82b40a69499cef844c6212592eca1770516db9d15f40e4266ec0749d4e8c9c11335ff6f6aa7bf78242e5aa1e5b210d96eaaed11405c1e0f5c97d49c0fb0b697735570c163430ed39ece685bc3c196407696e500ffe86f1b10c21baf014122e93e13d40afc270569b9a81c03c0da698eefb5017dccf13b173c31e50eed52d3d40f029f013564eb6342682abaff2222b715a45df1b493663236ddc975c5d32f31145a969d57019cba15b8308b7a1dd6b786541b6949507b9e5549a4a81319968f9acb202a0540dd761c556349d75484c394cae6df7da44f7240749ab431a1a33446ca3c3f9ececaf72467f9476bbc9f922e628dd27b1a2f54c025806908d87c416e2855a7b70b2daf6b5a762e3a8c21e86c396571dcb0e19aa6693fee22e6fca9b079f911f7b5eeb30d51dc2d6e870450c417b76ee2a1babd9a36c83a8e2ad8258d86a48de67633d4de95ed70bf6e1002545ce702d07a595a201042101b3c06722d20cf7fa122c62b294f252b1971250e6947cbd6ca0f69acbcd60494c8ee2cddeb7bfa88e027c58f1cd59a76bab946086ba99e3f44bb5d180ef6a44a6a036e881372adbb461a690439c8cac51eb564c5bf743c3523ac4d3bf18400ad4040f2aec774116a10e0f69737a7e2a9079668720bd1b81bad2d5aacacd8c24e3c7906370b1b5220f30578fe91c152ad58d3d27744d44c776d3624b975c5c60c6602d7e41480cde754eeb677b8e230a3b8523aed2c919ea64c2b1e0e06848b8c672bd89d633d8c10c7d08d4a494e5a9bd7f3509331772a2d4fbf3c50e32e2eb33e0d2e5c892f771c76a247b296daa57bc05b402e6ed8fb59ed71ced2e1819c441f67d8094140cdef3f76116cbe6e71fc064607137a8e12c7baba59d3a921e0c7b47c1959ed51ce07a21fc688ca1f1dcb1bcd77fa72114d8625e230e386c7c5ba923a3db2c53ebc56530fe8063b9c3d8dddaf06f558d417c9f48ba3498dbb5fc63e9e3c907107d06760e22de6b15a1f936ca337b3e5186dff2354ea967b224af5e2a02c500db442bf1ba70e613f35d1dbf602953140262f4b45220c60e8fb62c3998abf6affa4973bb3c6db417d8f9f735341dfdf95cdbb630ac00e51d8948a332014431cd27ded097e3b6e54539469928d6d44589afd975dc201628a642fca3202ee508fb678dca5ca9a6e95a0366a6ba6db4acd2cead9dcd3eb64a1c487bc2e85636efeacc408b8060f9f5ab6c7b54bd624847853613781008d9a8490a1a3c2300cfad792667bea853867c13b037bfac70790569d6d00b1c91c5541e3ac02ce8cf2c41c761b8d314a0a94298aa949c2b8e2f8bed73646c5d5733d893d2387738512afbb719939c3cd20d9bebb669d71648ae7b8c71943ef6db552cd902ae4d154b44d0a5125bbc0a09d4293aefaa7bd19b06ade278d61530d1ccff5a9ed3d6db52a1d8920153f3a7d6013faf6057200df05b9f8eb82dd0e58ccebfcfe382f0e450cd72140dbad55239dcbe96a5368db0ae1e490a4f4e3937d5ec6e59218fa277033d987f6fd7e3cd61751b20db6193eab7fbde28689f84c2ec0b6b2497c70943c3ff7d7dea9bf50bfb5954f347c2559ab012f6990b49ca68cd315e53d96f8bc1167840a15fbe85a68d4aba956b5a13094e3a28ee84502aed7a50f258b942ae99ce8682014f4e849a486a99b7f03268c58d9d24de087aff396c2e8ef24bba5439071f2e6d4051f14c7651223e6c14c79848c4588b350b370000000",
  "txid": "6076f9b324f0853ff7bb95f62ca5a27019a43f478bc55f8ce3532b6704112335",
  "hash": "e91abb0bb3afd25639002f5d84d725fb0083a01dba5f65d144735e10d460aba9",
  "size": 5085,
  "vsize": 2278,
  "version": 1,
  "locktime": 112,
  "vin": [
    {
      "txid": "3851ed932a30fa57990b056784da35855f7ff083af6cab56068ad28791236942",
      "vout": 0,
      "scriptSig": {
        "asm": "",
        "hex": ""
      },
      "txinwitness": [
        "1b4da9ef71ab3d9ac147b9679ed93fc9b01a42dd3c135c75f1864429bf7417549e3bc6a8dbd84499fd035ac4bef2d9de79b0d2b4e527e0927bca7774648d40588d94fa8a4078b6bd0cfe93603c5ce77c69d35b129b66d323771ee63b51ce5a3441b024f91eeb0def05e070ea85e49e5994cf0a0661998ee79404bfeb1d8e61458d03780bf9a84163f633f91aa50a43dd0bb5296ca804426d6cc2f6f273856e8fff13654d33042b340975b11ef6257075c6fe9f8a5aa9db88285ee2a279859fc067d6fcf15840e20b1d8875279d4995966c49c6bacb35424ab23c2731f6eea27631c80c9953f0dd44b8f409158587589716961b1a999a4fa74e0a422622f7c994f433d3b19ff067cfbcc126cfa20a95a40eecd3405c19da4008ef7ad99dc7806d1b19e44079ac6b95b455fdbc2e23964b151949729829022b879a464d3ebec5f9100ebd7db98c803fcd76abb4fa9992b16141429bd7ad3cd5dc6b634f1f7ecf0303033eb59722f95ed477df9514de141c25f9a0e4ceeeef7ca196976632247b73a6ed4ae09ea0ad2bfc601c32f3bdd25c3c13503f336b354d84d5fd64ddbd41320be27de70058bbe1b512e0ef44cd65828d8177cdd814b958d367e3a400e882316725ac5d18e4e51c7b227e636b061637a7236dba2505fb2909c9dcef854b4e256ada83c4ee44a118a949f267534a12e3115cb3447126af34247ce2d6e88f6856b49707a8cab89e2d8efc74e5a4d6a20affe6f3b9f828841e2467a5675acfffefecffddf09b5a6cc16406b80062fa6843181c0f96013bacbb0b1b031d9dff63ceb078f21d47e7613dee7e59f87ed4b28aeba434c5ac5008cf8d3bad1f16aac39764ad12fba3bf8f02a3662217245be0c36c024f31cb628d4d5c40bb74c4768ed3cb9841fb0e4be76b9d5fda592c20b74937f66bb7400b47e4bb22798c0b66c99114c091cc6f0d5e41c5de4e15a631427ff377dea5a54443fe4633f71212bc33fe5450b72c4f506e02459eeb51b9906dec3a59ce66b16f2d983e1c03f83d027eef28007ef53b6fad8823b0b4795351c3ce55def6bf9b227b2cd239c9844f67a7d01a0c0582ab609aaf8d648f50d2ef62669720d327a693d49793710b395b8db6521e57f9799465512fa4ebf9386491478f59e46e9e780dd101177cd052fe73fbb0f71f3dc62389f73e4748261669ec676306513f613886159cb227b73b95f9da9c204ca02667016e107073e424d9ced0d6a678d4e4ec95d9f5307b864c0f17a640b6c6cbe349f3827af5997e32ab84b4cfc7f355cd77486598f5f487a7f52642523b032dfe66d94c4124d209a3e7bd158fa05195f8e4125573fa952e7bd4b8f0f927944ec66cde850217871bc0c0817a378f375437f3827aff61a9e82b1ddf2eab3c1d386a2e834a55972f4cd97476cfe04aa0fbc91687758914e5d9d161a550f70985f94dcf9b4ba94d1ca0f30fcc39b6ba3737195941d590eb3b9ac6da2248caa1980c1f6bcd18e51253809208eb6c8cb4abd58c375e1b206cccbcd523f1328b92944b110e425a98566a8decb45a32be6cddadd5207c630e3e5bb804a8af13379f1e316c66dff949b823ac7545f94fe1b53b81e409e43f5f9527ca756abb483450fe81d011c93615b133906253868ddd6e48c425e897b9904edb8b52146c28b176b74b446acadbfa21655d092750a734b1c5d01047658560bd82d60fd35c4e6e23975bf44dce0816f6786fef5b1690be6da4eebbe150409981a0b6ff1037cbfff23b0046f94160789813024e779083e10d62efb55c23cc4785b0afa197c98a68025af889924682506e6a641b2dfe0baf326aaa78b843427b5bbf0374dab70857f4e056dee8e5f9eb3d49ece0326a77b80eea3dd2b2023dc13c56aa85dbd0c8900737231aed5975559abb476c83b19adffc885a42d8d1bc20db9e325d22b3e53dfd07f5c7db4ac88076e51a82a9f27adb452517099f195f3ea62b91f50455410e28bf12e0116fb7792f9c4783203564c6386b56012599f2c01aee476df6207742e7e53c37512f5b1dd7264080de15f0ef7fd0ba09a1507d2bc5284d66992462e8093b31458f844ea254fa1510367f64f92da92efe8e93ba563eb74193a8a073fc8fb4d6fd38bf8442445a0fda3c203448bc215621d84d0cb85a1dcf5c9bd39d01705e0411f869e97d450fcba7af2db9d1940057ee2abf1231cdb4670034679e0cf327349cf01d13f22bbf1308e1690897d4eec6f12f67a0ef299eccba3928c3714b5129c75e9f2d9a71e11c520c9f69ba76964e054ff6f7874acc8dc3af56884bb39bc0f51fae52becc804b06de1d41f311bc124009d33f7183553eec37a642b90e49d9ce5219674624de5ea95d2326267777d2c99b65940b9ba191b41c333f14dbf4dfa1ee3e4c2ac5a9915a42b6a1faaa237ed79b8b8c243e23325cdeddd6bf43f7d3eaa9eba23fce590e0849781c677c48ada83aac1e596c20cf2844ab9b718c889ea58b33a9faf3bf34ba64f651001f6999ee065cf4ce7b6c5173f94bf0df6cd6389d875ec89c17a9e174846cac7f819ed7b4ee1fec3816c4f793449bfbb9fd3f11f8cb143f8bf94bb04f22100b80ca131f169855df80b9185da862dcda823861c0353b76efc24f524c50e3e94f7c2e277b8a4518cb9e37051f71b3836f9dbe6bf77119790366a829f07bbb2438d1725d3899ea24dfb96e3f83d7ee59159da3693904d8026209d05c02719aa6c5bc07e405557748aeae365ba9ad915ed60beccbe64a8b5e67a127a1df88588fb52ea78e10dbef1bedfca347911e18c70663ddb20e5c0c4f1f4a0d8a2e6a57c51f78a2815a3054dd22addd608d0e10539f5f69224cf035c2fa2c7877baf90ae597bebd3bd78d3ac006b92d03dd2bbd51ab0873886ce9bf56d96296b53d78d4345f7314da18942fb76ff04c0d91fb94b12b2112633165ad4dd04ca48ad6a22613a29ff4e55eb90490b3f7b3994cb4c7e6cf516c3d62f79f570d14ecc67dcc86a960168bf1592046eec89b482eb115d63e7b6d52caff0dd72fc638f121f45e05f891469ccbc01a628bfdbf79cf9e9a6b8b68797cc00cb6dbd176ef5c4de36de1bcd1bf12b8f55149cb35ff807ab19639995b4cc89c56d786f6cfed05eeee12e59a5305286e5266a4b59e1ad738c13db0906a011df00b8ada61f65e17395a8eea5f3f7433751853bc961b3cc897b291cb8d748ead54474b868361c21bdb2fc3bb7613bc903664d621dc9af35e841f370285bf7a52ca67517ee29970a891006a2a3902b45353aca7acad9024068046740062299b0e1e24384f52575980c6d6e8090a16304345464c5b6e7d848589a0bbc1d2d5f2283b60728795c5cddee1e6e7fb282c323c41455e728182eaf300000000000000000000000000000000000000000000000c202d3901",
        "00a64f51282532d7e0dc21a0d4b83fa729f1065b3fa1a3cb42caa1291eda1cbb5dd224d10731eabde08ebd57e7219a655f91dc90ec98fcc952e5d5f08ee47b5e7e99f77dbfa568b4fcc899064b1aa82b40a69499cef844c6212592eca1770516db9d15f40e4266ec0749d4e8c9c11335ff6f6aa7bf78242e5aa1e5b210d96eaaed11405c1e0f5c97d49c0fb0b697735570c163430ed39ece685bc3c196407696e500ffe86f1b10c21baf014122e93e13d40afc270569b9a81c03c0da698eefb5017dccf13b173c31e50eed52d3d40f029f013564eb6342682abaff2222b715a45df1b493663236ddc975c5d32f31145a969d57019cba15b8308b7a1dd6b786541b6949507b9e5549a4a81319968f9acb202a0540dd761c556349d75484c394cae6df7da44f7240749ab431a1a33446ca3c3f9ececaf72467f9476bbc9f922e628dd27b1a2f54c025806908d87c416e2855a7b70b2daf6b5a762e3a8c21e86c396571dcb0e19aa6693fee22e6fca9b079f911f7b5eeb30d51dc2d6e870450c417b76ee2a1babd9a36c83a8e2ad8258d86a48de67633d4de95ed70bf6e1002545ce702d07a595a201042101b3c06722d20cf7fa122c62b294f252b1971250e6947cbd6ca0f69acbcd60494c8ee2cddeb7bfa88e027c58f1cd59a76bab946086ba99e3f44bb5d180ef6a44a6a036e881372adbb461a690439c8cac51eb564c5bf743c3523ac4d3bf18400ad4040f2aec774116a10e0f69737a7e2a9079668720bd1b81bad2d5aacacd8c24e3c7906370b1b5220f30578fe91c152ad58d3d27744d44c776d3624b975c5c60c6602d7e41480cde754eeb677b8e230a3b8523aed2c919ea64c2b1e0e06848b8c672bd89d633d8c10c7d08d4a494e5a9bd7f3509331772a2d4fbf3c50e32e2eb33e0d2e5c892f771c76a247b296daa57bc05b402e6ed8fb59ed71ced2e1819c441f67d8094140cdef3f76116cbe6e71fc064607137a8e12c7baba59d3a921e0c7b47c1959ed51ce07a21fc688ca1f1dcb1bcd77fa72114d8625e230e386c7c5ba923a3db2c53ebc56530fe8063b9c3d8dddaf06f558d417c9f48ba3498dbb5fc63e9e3c907107d06760e22de6b15a1f936ca337b3e5186dff2354ea967b224af5e2a02c500db442bf1ba70e613f35d1dbf602953140262f4b45220c60e8fb62c3998abf6affa4973bb3c6db417d8f9f735341dfdf95cdbb630ac00e51d8948a332014431cd27ded097e3b6e54539469928d6d44589afd975dc201628a642fca3202ee508fb678dca5ca9a6e95a0366a6ba6db4acd2cead9dcd3eb64a1c487bc2e85636efeacc408b8060f9f5ab6c7b54bd624847853613781008d9a8490a1a3c2300cfad792667bea853867c13b037bfac70790569d6d00b1c91c5541e3ac02ce8cf2c41c761b8d314a0a94298aa949c2b8e2f8bed73646c5d5733d893d2387738512afbb719939c3cd20d9bebb669d71648ae7b8c71943ef6db552cd902ae4d154b44d0a5125bbc0a09d4293aefaa7bd19b06ade278d61530d1ccff5a9ed3d6db52a1d8920153f3a7d6013faf6057200df05b9f8eb82dd0e58ccebfcfe382f0e450cd72140dbad55239dcbe96a5368db0ae1e490a4f4e3937d5ec6e59218fa277033d987f6fd7e3cd61751b20db6193eab7fbde28689f84c2ec0b6b2497c70943c3ff7d7dea9bf50bfb5954f347c2559ab012f6990b49ca68cd315e53d96f8bc1167840a15fbe85a68d4aba956b5a13094e3a28ee84502aed7a50f258b942ae99ce8682014f4e849a486a99b7f03268c58d9d24de087aff396c2e8ef24bba5439071f2e6d4051f14c7651223e6c14c79848c4588b350b3"
      ],
      "sequence": 4294967294
    }
  ],
  "vout": [
    {
      "value": 1.0,
      "n": 0,
      "scriptPubKey": {
        "asm": "OP_RETURN 53de5a31c20913c7d2a4baf42b212dba50aa7e31baafe77cf11c9c08bb4095bb f8afbf235949f14fae4bbfa5997902f1d7175c1bc4601365983801530993e6c5d88f9f037969d16f8e6b9f85b95922d1f7377c3be4403345b818217329b3c6e5b8efff631909b10fee0bffe5d93942b197571c5b84205325d878411349d3a68598cfdf433929912fce2bdfc5f9196291b7773c7ba4007305f858613369f386a5782f3fa3d9c971cf2ecb3f2519f982715797dc9b44e093e518b881d389136645580f1f83f9e951ef0eeb1f0539d9a25177b7fcbb64c0b3c53898a1f3a9334665386f7fe39989318f6e8b7f6559b9c23117d79cdb04a0d3a558f8c193c9532605184f5fc3b9a911af4eab5f457999e21137f7bcfb2480f38578d8e1b3e9730625f8afbf235949f14fae4bbfa5997902f1d7175c1bc4601365983801530993e6c5d88f9f037969d16f8e6b9f85b95922d1f7377c3be4403345b818217329b3c6e5b8efff631909b10fee0bffe5d93942b197571c5b84205325d878411349d3a68598cfdf433929912fce2bdfc5f9196291b7773c7ba4007305f858613369f386a5782f3fa3d9c971cf2ecb3f2519f982715797dc9b44e093e518b881d389136645580f1f83f9e951ef0eeb1f0539d9a25177b7fcbb64c0b3c53898a1f3a9334665386f7fe39989318f6e8b7f6559b9c23117d79cdb04a0d3a558f8c193c9532605184f5fc3b9a911af4eab5f457999e21137f7bcfb2480f38578d8e1b3e9730625f8afbf235949f14fae4bbfa5997902f1d7175c1bc4601365983801530993e6c5d88f9f037969d16f8e6b9f85b95922d1f7377c3be4403345b818217329b3c6e5b8efff631909b10fee0bffe5d93942b197571c5b84205325d878411349d3a68598cfdf433929912fce2bdfc5f9196291b7773c7ba4007305f858613369f386a5782f3fa3d9c971cf2ecb3f2519f982715797dc9b44e093e518b881d389136645580f1f83f9e951ef0eeb1f0539d9a25177b7fcbb64c0b3c53898a1f3a9334665386f7fe39989318f6e8b7f6559b9c23117d79cdb04a0d3a558f8c193c9532605184f5fc3b9a911af4eab5f457999e21137f7bcfb2480f38578d8e1b3e9730625f8afbf235949f14fae4bbfa5997902f1d7175c1bc4601365983801530993e6c5d88f9f037969d16f8e6b9f85b95922d1f7377c3be4403345b818217329b3c6e5b8efff631909b10fee0bffe5d93942b197571c5b84205325d878411349d3a68598cfdf433929912fce2bdfc5f9196291b7773c7ba4007305f858613369f386a5782f3fa3d9c971cf2ecb3f2519f982715797dc9b44e093e518b881d389136645580f1f83f9e951ef0eeb1f0539d9a25177b7fcbb64c0b3c53898a1f3a9334665386f7fe39989318f6e8b7f6559b9c23117d79cdb04a0d3a558f8c193c9532605184f5fc3b9a911af4eab5f457999e21137f7bcfb2480f38578d8e1b3e9730625f8afbf235949f14fae4bbfa5997902f1d7175c1bc4601365983801530993e6c5d88f9f037969d16f8e6b9f85b95922d1f7377c3be4403345b818217329b3c6e5b8efff631909b10fee0bffe5d93942b197571c5b84205325d878411349d3a68598cfdf433929912fce2bdfc5f9196291b7773c7ba4007305f858613369f386a5782f3fa3d9c971cf2ecb3f2519f982719788f84b37fb499c8d548dc377fc08a65c6fee767722d9ef71953912914bc9a5",
        "hex": "6a2053de5a31c20913c7d2a4baf42b212dba50aa7e31baafe77cf11c9c08bb4095bb4db004f8afbf235949f14fae4bbfa5997902f1d7175c1bc4601365983801530993e6c5d88f9f037969d16f8e6b9f85b95922d1f7377c3be4403345b818217329b3c6e5b8efff631909b10fee0bffe5d93942b197571c5b84205325d878411349d3a68598cfdf433929912fce2bdfc5f9196291b7773c7ba4007305f858613369f386a5782f3fa3d9c971cf2ecb3f2519f982715797dc9b44e093e518b881d389136645580f1f83f9e951ef0eeb1f0539d9a25177b7fcbb64c0b3c53898a1f3a9334665386f7fe39989318f6e8b7f6559b9c23117d79cdb04a0d3a558f8c193c9532605184f5fc3b9a911af4eab5f457999e21137f7bcfb2480f38578d8e1b3e9730625f8afbf235949f14fae4bbfa5997902f1d7175c1bc4601365983801530993e6c5d88f9f037969d16f8e6b9f85b95922d1f7377c3be4403345b818217329b3c6e5b8efff631909b10fee0bffe5d93942b197571c5b84205325d878411349d3a68598cfdf433929912fce2bdfc5f9196291b7773c7ba4007305f858613369f386a5782f3fa3d9c971cf2ecb3f2519f982715797dc9b44e093e518b881d389136645580f1f83f9e951ef0eeb1f0539d9a25177b7fcbb64c0b3c53898a1f3a9334665386f7fe39989318f6e8b7f6559b9c23117d79cdb04a0d3a558f8c193c9532605184f5fc3b9a911af4eab5f457999e21137f7bcfb2480f38578d8e1b3e9730625f8afbf235949f14fae4bbfa5997902f1d7175c1bc4601365983801530993e6c5d88f9f037969d16f8e6b9f85b95922d1f7377c3be4403345b818217329b3c6e5b8efff631909b10fee0bffe5d93942b197571c5b84205325d878411349d3a68598cfdf433929912fce2bdfc5f9196291b7773c7ba4007305f858613369f386a5782f3fa3d9c971cf2ecb3f2519f982715797dc9b44e093e518b881d389136645580f1f83f9e951ef0eeb1f0539d9a25177b7fcbb64c0b3c53898a1f3a9334665386f7fe39989318f6e8b7f6559b9c23117d79cdb04a0d3a558f8c193c9532605184f5fc3b9a911af4eab5f457999e21137f7bcfb2480f38578d8e1b3e9730625f8afbf235949f14fae4bbfa5997902f1d7175c1bc4601365983801530993e6c5d88f9f037969d16f8e6b9f85b95922d1f7377c3be4403345b818217329b3c6e5b8efff631909b10fee0bffe5d93942b197571c5b84205325d878411349d3a68598cfdf433929912fce2bdfc5f9196291b7773c7ba4007305f858613369f386a5782f3fa3d9c971cf2ecb3f2519f982715797dc9b44e093e518b881d389136645580f1f83f9e951ef0eeb1f0539d9a25177b7fcbb64c0b3c53898a1f3a9334665386f7fe39989318f6e8b7f6559b9c23117d79cdb04a0d3a558f8c193c9532605184f5fc3b9a911af4eab5f457999e21137f7bcfb2480f38578d8e1b3e9730625f8afbf235949f14fae4bbfa5997902f1d7175c1bc4601365983801530993e6c5d88f9f037969d16f8e6b9f85b95922d1f7377c3be4403345b818217329b3c6e5b8efff631909b10fee0bffe5d93942b197571c5b84205325d878411349d3a68598cfdf433929912fce2bdfc5f9196291b7773c7ba4007305f858613369f386a5782f3fa3d9c971cf2ecb3f2519f982719788f84b37fb499c8d548dc377fc08a65c6fee767722d9ef71953912914bc9a5",
        "type": "nulldata"
      }
    },
    {
      "value": 499985.7634,
      "n": 1,
      "scriptPubKey": {
        "asm": "1 a85056e5eae084503455e81063cf523645b831654dc344267c84c32c70049a1e",
        "hex": "5120a85056e5eae084503455e81063cf523645b831654dc344267c84c32c70049a1e",
        "reqSigs": 1,
        "type": "witness_v1_scripthash",
        "addresses": [
          "3QJmnh"
        ]
      }
    }
  ],
  "blockhash": "0588000bb82f4b14ca9e4626330a5c84a7bb9e1c31fd2ade5c3732d80cc4fd85",
  "confirmations": 1,
  "time": 1764178356,
  "blocktime": 1764178356
}