{
  "hex": "01000000000101cbc6022df82c05ed990f3ed5a417aeb1bf5bf05020f066fb0ab11789af97aaa30000000000feffffff02b0cd76d8782d0000225120f5de6fb1a3bfaac004b3c5e82723462c0fcbddec7d86b3927d2be1fd307db10300e1f50500000000fdd5046a2070bdc820e8ee1038232fa962fe62feee43b712ed5057432b677d250c56861baa4db004de8c6f332990665779861b34a6f9ccb589e9a80ba03eb9e02dd18d5e75f02c13feac4f1309b0467759a63b1486d9ec95a9c9882b801e99c00df1ad7e55d00c339ecc2f7369d0261739c65b74e6b98cf5c9a9e84be07ef9a06d91cd1e35b06c53beec0f5349f0063719e67b54c699acd5e989c86bc05ed9804db1ed3e15904c735e0cefb3a910e6d7f9069bb426794c350969288b20be3960ad510ddef570ac937e2ccf938930c6f7d926bb9406596c15294908ab009e19408d712dfed5508cb31e4caff3e950a697b946dbf466390c75492968cb60fe7920ed114d9eb530ecd33e6c8fd3c97086b79966fbd446192c55690948eb40de5900cd316dbe9510ccf3de8c6f332990665779861b34a6f9ccb589e9a80ba03eb9e02dd18d5e75f02c13feac4f1309b0467759a63b1486d9ec95a9c9882b801e99c00df1ad7e55d00c339ecc2f7369d0261739c65b74e6b98cf5c9a9e84be07ef9a06d91cd1e35b06c53beec0f5349f0063719e67b54c699acd5e989c86bc05ed9804db1ed3e15904c735e0cefb3a910e6d7f9069bb426794c350969288b20be3960ad510ddef570ac937e2ccf938930c6f7d926bb9406596c15294908ab009e19408d712dfed5508cb31e4caff3e950a697b946dbf466390c75492968cb60fe7920ed114d9eb530ecd33e6c8fd3c97086b79966fbd446192c55690948eb40de5900cd316dbe9510ccf3de8c6f332990665779861b34a6f9ccb589e9a80ba03eb9e02dd18d5e75f02c13feac4f1309b0467759a63b1486d9ec95a9c9882b801e99c00df1ad7e55d00c339ecc2f7369d0261739c65b74e6b98cf5c9a9e84be07ef9a06d91cd1e35b06c53beec0f5349f0063719e67b54c699acd5e989c86bc05ed9804db1ed3e15904c735e0cefb3a910e6d7f9069bb426794c350969288b20be3960ad510ddef570ac937e2ccf938930c6f7d926bb9406596c15294908ab009e19408d712dfed5508cb31e4caff3e950a697b946dbf466390c75492968cb60fe7920ed114d9eb530ecd33e6c8fd3c97086b79966fbd446192c55690948eb40de5900cd316dbe9510ccf3de8c6f332990665779861b34a6f9ccb589e9a80ba03eb9e02dd18d5e75f02c13feac4f1309b0467759a63b1486d9ec95a9c9882b801e99c00df1ad7e55d00c339ecc2f7369d0261739c65b74e6b98cf5c9a9e84be07ef9a06d91cd1e35b06c53beec0f5349f0063719e67b54c699acd5e989c86bc05ed9804db1ed3e15904c735e0cefb3a910e6d7f9069bb426794c350969288b20be3960ad510ddef570ac937e2ccf938930c6f7d926bb9406596c15294908ab009e19408d712dfed5508cb31e4caff3e950a697b946dbf466390c75492968cb60fe7920ed114d9eb530ecd33e6c8fd3c97086b79966fbd446192c55690948eb40de5900cd316dbe9510ccf3de8c6f332990665779861b34a6f9ccb589e9a80ba03eb9e02dd18d5e75f02c13feac4f1309b0467759a63b1486d9ec95a9c9882b801e99c00df1ad7e55d00c339ecc2f7369d0261739c65b74e6b98cf5c9a9e84be07ef9a06d91cd1e35b06c53beec0f5349f0063719e67b54c699acd5e989c86bc05ed9804db1ed3e15904c735e0cefb3a910e6d7f9069bb426794c3598bbe51ec3239658e9dd56d23a8015694f43f87ee008e0da058e14cdf8e7a6a602fd75093377294f528ac8cd88eb54aa2bff0f311b4037623bd4ecf9bf771041575de649c8af4709c093051860c54f68170657c48ef53503c29c6c994c288f3a4871d5887a089662602fabe09d2c9357d7512811f542ed2658e19b7746ad910ae7f19f97a4d30516421a735896948c7e894dc72d9aabfecb9a003ead394d26965ba237ee2a5f5c2f63670dc39ac6c2d1fa808aac4357d0f3416004a15c3c02d6662e110414ca8250af41813f61aa5d46966172aa31b279067de66e37de7c49340daad4d82d4e574f934834def10ccaff2e2bb186ddf4c588c250964311d0c3ebac22e6b243d1f4367a2cecdc8a0a90b2c73d693c2ce5851f1792b34bd4bcf9af03e478fcd7d00a2b882e48876ae4dab8b7fb96b877adcccb6696125a382d5fcdcedbc5c6ea7af16e664b61888f18888bba7db763a04d2d4a8acab4ae2a743d835511ca5078c7bfaebd7e0366d35b7aee61da14ba09ec1ccc1aa1d1d06d3a18711386340bc4bedb69fd27bd6f8f42403fdd979a5c1c904da1db8c2525142038967d9ab95559062b6497b6245bdec6ccd842b5878a492f41e0acabe31ec334bd3b44a064dae19f36c1cc5004d46061d86e62cad041d3aca53d31fe777da2100e398d4c003b7c6b5b0ccd74ca233fd20610c23f1a146de8101f06526856b4939180dfa435e85785fad2810c23b94c7bc6270dcb32a0c4ecb01e0bbf8636d38094fb440a38d4134993fb66d0a2a3ad11d17622bbffc7def3b5e5a8687d242e3d4aa8e0fd019dab7576327d28adb8d433e2b9c67d82060ef4953f9b2f52cc781ebbbb3e01b890c00ec9db1e991513b632ac1f1fd11d88065097e59bf9539b9122bd5f8cb1eb4cf0c8677bedd77c8149cb59821c423150ed2e50e063430db1ace4afdf0ae2382b272f35090a53562db67d6144b69b0d2df0b98df9464152a0bcfc358cbdb4b9224c946fb591985b6f5e9296d2e0c22c05730a3ac35a68b603d88c1a1553b32e7b1fcc841fe5cf1da40155de554423060714905e409cc64e7b91934c03542f13d0b0229e31bf23fceff9ac8efd2d6ebfe5dbf4c28dd14e36706bef378fcc3268ae0977cf787026a76aa47ab5198aad8af9972e6c102db77c5052da923d831a58adcd36470675acea85a9eef301e26c2e8a9b6c0a5754cc63cd149c2a3656e85dc45fefcb3ca2733793c38508be4f97774a35d24fd5c321b79e89372cf48cc7af0fd5ad99fbc5bb666efeea66ae7d815252fd4d27b4d25932551cbd35ff3fee29a11ff53c23fcc085631b73b13b8af4a4bca80c6641177e982dc8422c57e1a501445f49dddc84a0902318f81b1610123050bc84c5cf7da43ea52b2b9c3bbcf6d8887e6f10858ed40e61e2e285f5ba001b18ca4ec9201783fe4acff824f7e312c2d6f2550b2d70f85b47813a764b1597d92b9887cfae93a4d69769b587a98e9fb205df9b7af541a4f610646723c810661486b84365751f9c59570d31f748213ad34e9dd90d8c95f91476e9a435d1dc219e4840d7d341385e4829da8c874e4204a9355296bbb2450449fa2a4d8c677fede9e5492dafec15599976f08b929d93d43b3d695af35773e157cc5a1a562956d0bc4aa6ab68d9ca3d70847c6f125b425d14233e0fa1eb65309a3fa14b3a0dbf6ec414f93a4e2fdf7f0d5189c59684df3283518f14b1d4ac97b7e34ea704fecf508368c46f2fb72c76b03c4c4676404c8b70a4247fbb09958109b05b1e8f27be8f0ba94c784e0ca596e7ab040ab0c2f4a5cf700512a5558ad599d4826576a767d9ee500891a68aac6dd9e874d27918d9b987c79ca403179550d56baeaefc4db6d169945b49f73de346cf78c9d6e9c35350a58e588679aeba27c851da92c488626d73ae496d7d462ae1d95e73f124ce1d44bcdd8f3b25fb975b43d74898376bc7d0d4e129415a055bd5247d47f7eb53a6c10a681339cb411b1690f019c1170917dbe49d1b0fc5e01f0045d1361686195a2d403bceb340f496b0c03bd8e1cc74986db5dd7b39e2fbeab4cc3eb9f0f1dcf4f7103db07d53e5cf4ff65bfb77870492617235e5630a93c8488b92ca1b0d19c2502338c5140aa5a1fe4d662eab73e8aee74f71b79784b9d4672604508cb8eaf535db23eb32acacaee7ee0cdd27d021f1aa84f6ae1dc26c8ca5c9c4a39ea63adecfc057340fd87972298c032ae43f05e47064170ce271d9c0ef124ddc8df66deb4c87b8a7c31c0bf2f01ce45855f91ca85003e45c3efc2e8262cc2a3f37a6e7ed227c6bbf67917af04bc29431bd8ae4504036f4565b92555cb9b0976f17f0e816ad49807db7bf07a193a65661f3470c4008d87e096341b53f26345bf2c45351340d04109ecbd9f1984e96506bb80a78274d20b943e6fab64c5eccb964f548e4a0c4e1a26e3a613d4ebebab10bd40aefc201231b2efb41af5cf146f6534ed89528d3cd58bb1489fd9346dce5b4ce4d09791dde7795861e8bc997c4fa8b76cf9f3fc6c7dc0c43a43509e90541a0b2d23c22b56e97a2dc1a101fd52bc66ddb0f6fd1bf9690977ff952438418ba924edfcc18b6b4e499cea1d34ff5599e203920c771b8cf4732dd5135bbeda8bf120f3e14210a85d88649da83e7dbd05bba88738260b26bc6686995fe5f5016bd0b7c8ece1135a9977c1004f2490e0663e26e50dd6e56643406662226b4d68f943d491ea90db2fb0b1cc0b1bdd95e27a9addeb16601f105b74095db12602182bb0fc037a73570180d9e17f1b4574104dacaf6a3a931557bfd9bdfd51d922fb407a8f892b94214939f995a0a25809a65a5a0dfa57ed2dde663346a66888a258d5f1e4f6135f69bea5e3e5831a515832f47445d4ecc8e791616fad300d2953acf579c0c0bd28ff1edd02537877079894533c5842da1e784273e28300287e0c3f22c6610290adca2e48dabea7a9167fcfabd154438c805c8f8beaa8879d0d0dfbdff55e64d1555fd0293122d13c8a0e3917600c51c7b8295b897d028349205590feeb08db3f6669f85c61ec640e85bd997e0c4d9cf20399cb73bbd1eeaca04c0c0fbcac88cf7b9ccb42b728583547973a782624b7fa19755c701a4969769824c865d32e94ea88909d2fd94c0dd37024b1a9bada4d8c14315a4524eb30e8a96ac0f91db503f7ccf621928b690180eb16a8b0bedc57b2fb57c5effeccbe63d1b5ac847084765ae392adf061b9ba95c6b6a35961d70f7d2a666ad072f2e59b5e3ff167882e608e4a428edf1a78e17f605d2621aac8687a51224d275e78af6ad17e68a79f691689d0f024f4cd1ca92b220c9c6f72aedd9870690d05515203239555d7a83a8aab1b8b9c0e60a222f364851686b757d8aebf40c13191a2b2e2f344143486780868ea8a9b5b9c0d1d4010a354b546a797d8792a1a3bcd7dae5e6e9ebfa000000000000000000000f1c324601fd21050024530095a1ea48eef94d8630bd07c2223040f71de787fa28252d7aef39a523d754d0104126d8bff1529feaa6433addb2f5e55ff7757a8e8a94ad703bfd7a4028752c3528d3765b63b5a1f061eab47e5bd854f96145a4c4c8ce363e5c32b01dd8d3c293e43fd7919723c1957a6ce11cdff998780c30fe0313060677858d3b19b738f6f5e9b6fb51443ac66fcffeb317091a208d2b7eb8b090972c46d048153fccf529632a8e385a1f0bd7c49c878d33effda784fd600215425792fda98ee7c122b2286941068b2b258837c611cfd54d8c2516d76aa6a93fe0e9f48d869e46cabe537fe8b06f96229ed7dc257ed4d3e3c40dfa96c40511c888e649e867dbdf34c73fb8f92a74726a1e20fa0c82785593e1d16b1484316044a3cdf09fd0216292f1f65ea3145df11a0d36754a7562756dee6c1884bec05570d353632e6c98867a4180e35466517403b15361e8c4d51e8619fbe27e100b07689986916f560234691d542eace7d7a9d9bc8d89655600e62032488f46e673aab694a8fa27519a9564e50d38dca30f4b8ad8f43282fd2c3080006aa77fdeaf23b65dbf1fabf7b25c19dba0804ed3e8ae7546e1947fa455a3b7328d7545792e30181411bd461f2833ef45cae90b14c56368067b12d637fae123a0b7e0eb37af27800ceb883a44dc6da4dca585ec020d89a273e8e2bc3779872d2f988c78015e33487a323ff1fec013438285428b5588ab162e8e0a6da30783a7308564b5296b9775eade254523cbb5290e3e0579c919f3818331d1cb2d1a882f67cb45546fd0b6353ab1074fa974229a186a7575770df9a6060d18584ef7928dd76d89db8f5641731516bb32e7c498c24f6b6ca54a0a6ee2b26e9bb9006d1eb518afbf69877b722efb2e7571f7737e1fcb6d8ab65dcf0232ef8886bdf98feda10a35b33dcb69167a1f2b5ffa3baa2ef3324f9f85be3ea2090b58b3e24b8f520f9a35f1ee0f21a9215edc8d632874f6392f83996e5b742080d11164bc3f445730c770afdb047021345e6d8dff99b43b0a3e29b651986b2f351d0b71a6eb9d5914bc5a9e68118956607a947edef6cd1263e769ec20be5e6c56094bb4aea1b7182c3ff27bfc72051bdda8d75db3c0f6d3675e13fe54ddba1d1f2173aa057e6239527ad67178a7d2230515c749f8be955585ed7eba6256bd4449e7b21751d4920c42e204ee64276221079b11c15a6cd383f35dba99a0b5367d3d0f6b545d67f1d167d35222319137a3149fe6f4473549866c4d08bd3104eeda0f0353d2736527d7a34f638285a61d346bba1439ff0d0fbb7fcd27246011700cb8b98f8fe217e499508bb6346949b6d9ebd902925bfa166a0cc48950130eeb7dbc890b8fae229d0ca0b0f8241fe430f404752e044e4aee22b0f2273b7e9cef30e898323230014a6b99241b1551a06f419f7f662a2d876fd3b89b1eb15e9e55ba72d0a94e9607bea718750904e5db7af9c8dc0ec5c83d9e9f47318c797e731344b4cc1c5391f78379f04eaed5954fe4ed945f2eec873ce6867bcb9a2637ba48e23ad0751ed6fc91c864ee0c30b49a800a5b1b1c7e1e45dc81064ec70846b72c08f2ab2da060ae017ae1daa2971f5f016f170809e26eb71cdba38a7334d009047d59f02c686a189678d83434c8398b5002b54d7ded1e58779f604fa61866b67409fe65a4313f44b4e891ce8f0132673aef0056a95d3ade7700c910672573c72dd87f11e75402a119fab42672c6365bb28677b3464906b0eb3762e52c510f669f09b268a1fe42298ad7535627c0d4c3e32b9adae0a980f18bec428c797c110c1c7ca4b751a39912ea3aa7123ac0aa6bcb6c87fbc6f89963ea2d78aa7f000000",
  "txid": "601ebdb984b04a9c3ad52cc7397dd79f50f287876eb4d5f880740b4950ac2ee3",
  "hash": "03c54ec1804ef095a020ffae0f0b0d5f54995d26bb77400ea6b5447a592611a5",
  "size": 5085,
  "vsize": 2278,
  "version": 1,
  "locktime": 127,
  "vin": [
    {
      "txid": "a3aa97af8917b10afb66f02050f05bbfb1ae17a4d53e0f99ed052cf82d02c6cb",
      "vout": 0,
      "scriptSig": {
        "asm": "",
        "hex": ""
      },
      "txinwitness": [
        "3377294f528ac8cd88eb54aa2bff0f311b4037623bd4ecf9bf771041575de649c8af4709c093051860c54f68170657c48ef53503c29c6c994c288f3a4871d5887a089662602fabe09d2c9357d7512811f542ed2658e19b7746ad910ae7f19f97a4d30516421a735896948c7e894dc72d9aabfecb9a003ead394d26965ba237ee2a5f5c2f63670dc39ac6c2d1fa808aac4357d0f3416004a15c3c02d6662e110414ca8250af41813f61aa5d46966172aa31b279067de66e37de7c49340daad4d82d4e574f934834def10ccaff2e2bb186ddf4c588c250964311d0c3ebac22e6b243d1f4367a2cecdc8a0a90b2c73d693c2ce5851f1792b34bd4bcf9af03e478fcd7d00a2b882e48876ae4dab8b7fb96b877adcccb6696125a382d5fcdcedbc5c6ea7af16e664b61888f18888bba7db763a04d2d4a8acab4ae2a743d835511ca5078c7bfaebd7e0366d35b7aee61da14ba09ec1ccc1aa1d1d06d3a18711386340bc4bedb69fd27bd6f8f42403fdd979a5c1c904da1db8c2525142038967d9ab95559062b6497b6245bdec6ccd842b5878a492f41e0acabe31ec334bd3b44a064dae19f36c1cc5004d46061d86e62cad041d3aca53d31fe777da2100e398d4c003b7c6b5b0ccd74ca233fd20610c23f1a146de8101f06526856b4939180dfa435e85785fad2810c23b94c7bc6270dcb32a0c4ecb01e0bbf8636d38094fb440a38d4134993fb66d0a2a3ad11d17622bbffc7def3b5e5a8687d242e3d4aa8e0fd019dab7576327d28adb8d433e2b9c67d82060ef4953f9b2f52cc781ebbbb3e01b890c00ec9db1e991513b632ac1f1fd11d88065097e59bf9539b9122bd5f8cb1eb4cf0c8677bedd77c8149cb59821c423150ed2e50e063430db1ace4afdf0ae2382b272f35090a53562db67d6144b69b0d2df0b98df9464152a0bcfc358cbdb4b9224c946fb591985b6f5e9296d2e0c22c05730a3ac35a68b603d88c1a1553b32e7b1fcc841fe5cf1da40155de554423060714905e409cc64e7b91934c03542f13d0b0229e31bf23fceff9ac8efd2d6ebfe5dbf4c28dd14e36706bef378fcc3268ae0977cf787026a76aa47ab5198aad8af9972e6c102db77c5052da923d831a58adcd36470675acea85a9eef301e26c2e8a9b6c0a5754cc63cd149c2a3656e85dc45fefcb3ca2733793c38508be4f97774a35d24fd5c321b79e89372cf48cc7af0fd5ad99fbc5bb666efeea66ae7d815252fd4d27b4d25932551cbd35ff3fee29a11ff53c23fcc085631b73b13b8af4a4bca80c6641177e982dc8422c57e1a501445f49dddc84a0902318f81b1610123050bc84c5cf7da43ea52b2b9c3bbcf6d8887e6f10858ed40e61e2e285f5ba001b18ca4ec9201783fe4acff824f7e312c2d6f2550b2d70f85b47813a764b1597d92b9887cfae93a4d69769b587a98e9fb205df9b7af541a4f610646723c810661486b84365751f9c59570d31f748213ad34e9dd90d8c95f91476e9a435d1dc219e4840d7d341385e4829da8c874e4204a9355296bbb2450449fa2a4d8c677fede9e5492dafec15599976f08b929d93d43b3d695af35773e157cc5a1a562956d0bc4aa6ab68d9ca3d70847c6f125b425d14233e0fa1eb65309a3fa14b3a0dbf6ec414f93a4e2fdf7f0d5189c59684df3283518f14b1d4ac97b7e34ea704fecf508368c46f2fb72c76b03c4c4676404c8b70a4247fbb09958109b05b1e8f27be8f0ba94c784e0ca596e7ab040ab0c2f4a5cf700512a5558ad599d4826576a767d9ee500891a68aac6dd9e874d27918d9b987c79ca403179550d56baeaefc4db6d169945b49f73de346cf78c9d6e9c35350a58e588679aeba27c851da92c488626d73ae496d7d462ae1d95e73f124ce1d44bcdd8f3b25fb975b43d74898376bc7d0d4e129415a055bd5247d47f7eb53a6c10a681339cb411b1690f019c1170917dbe49d1b0fc5e01f0045d1361686195a2d403bceb340f496b0c03bd8e1cc74986db5dd7b39e2fbeab4cc3eb9f0f1dcf4f7103db07d53e5cf4ff65bfb77870492617235e5630a93c8488b92ca1b0d19c2502338c5140aa5a1fe4d662eab73e8aee74f71b79784b9d4672604508cb8eaf535db23eb32acacaee7ee0cdd27d021f1aa84f6ae1dc26c8ca5c9c4a39ea63adecfc057340fd87972298c032ae43f05e47064170ce271d9c0ef124ddc8df66deb4c87b8a7c31c0bf2f01ce45855f91ca85003e45c3efc2e8262cc2a3f37a6e7ed227c6bbf67917af04bc29431bd8ae4504036f4565b92555cb9b0976f17f0e816ad49807db7bf07a193a65661f3470c4008d87e096341b53f26345bf2c45351340d04109ecbd9f1984e96506bb80a78274d20b943e6fab64c5eccb964f548e4a0c4e1a26e3a613d4ebebab10bd40aefc201231b2efb41af5cf146f6534ed89528d3cd58bb1489fd9346dce5b4ce4d09791dde7795861e8bc997c4fa8b76cf9f3fc6c7dc0c43a43509e90541a0b2d23c22b56e97a2dc1a101fd52bc66ddb0f6fd1bf9690977ff952438418ba924edfcc18b6b4e499cea1d34ff5599e203920c771b8cf4732dd5135bbeda8bf120f3e14210a85d88649da83e7dbd05bba88738260b26bc6686995fe5f5016bd0b7c8ece1135a9977c1004f2490e0663e26e50dd6e56643406662226b4d68f943d491ea90db2fb0b1cc0b1bdd95e27a9addeb16601f105b74095db12602182bb0fc037a73570180d9e17f1b4574104dacaf6a3a931557bfd9bdfd51d922fb407a8f892b94214939f995a0a25809a65a5a0dfa57ed2dde663346a66888a258d5f1e4f6135f69bea5e3e5831a515832f47445d4ecc8e791616fad300d2953acf579c0c0bd28ff1edd02537877079894533c5842da1e784273e28300287e0c3f22c6610290adca2e48dabea7a9167fcfabd154438c805c8f8beaa8879d0d0dfbdff55e64d1555fd0293122d13c8a0e3917600c51c7b8295b897d028349205590feeb08db3f6669f85c61ec640e85bd997e0c4d9cf20399cb73bbd1eeaca04c0c0fbcac88cf7b9ccb42b728583547973a782624b7fa19755c701a4969769824c865d32e94ea88909d2fd94c0dd37024b1a9bada4d8c14315a4524eb30e8a96ac0f91db503f7ccf621928b690180eb16a8b0bedc57b2fb57c5effeccbe63d1b5ac847084765ae392adf061b9ba95c6b6a35961d70f7d2a666ad072f2e59b5e3ff167882e608e4a428edf1a78e17f605d2621aac8687a51224d275e78af6ad17e68a79f691689d0f024f4cd1ca92b220c9c6f72aedd9870690d05515203239555d7a83a8aab1b8b9c0e60a222f364851686b757d8aebf40c13191a2b2e2f344143486780868ea8a9b5b9c0d1d4010a354b546a797d8792a1a3bcd7dae5e6e9ebfa000000000000000000000f1c324601",
        "0024530095a1ea48eef94d8630bd07c2223040f71de787fa28252d7aef39a523d754d0104126d8bff1529feaa6433addb2f5e55ff7757a8e8a94ad703bfd7a4028752c3528d3765b63b5a1f061eab47e5bd854f96145a4c4c8ce363e5c32b01dd8d3c293e43fd7919723c1957a6ce11cdff998780c30fe0313060677858d3b19b738f6f5e9b6fb51443ac66fcffeb317091a208d2b7eb8b090972c46d048153fccf529632a8e385a1f0bd7c49c878d33effda784fd600215425792fda98ee7c122b2286941068b2b258837c611cfd54d8c2516d76aa6a93fe0e9f48d869e46cabe537fe8b06f96229ed7dc257ed4d3e3c40dfa96c40511c888e649e867dbdf34c73fb8f92a74726a1e20fa0c82785593e1d16b1484316044a3cdf09fd0216292f1f65ea3145df11a0d36754a7562756dee6c1884bec05570d353632e6c98867a4180e35466517403b15361e8c4d51e8619fbe27e100b07689986916f560234691d542eace7d7a9d9bc8d89655600e62032488f46e673aab694a8fa27519a9564e50d38dca30f4b8ad8f43282fd2c3080006aa77fdeaf23b65dbf1fabf7b25c19dba0804ed3e8ae7546e1947fa455a3b7328d7545792e30181411bd461f2833ef45cae90b14c56368067b12d637fae123a0b7e0eb37af27800ceb883a44dc6da4dca585ec020d89a273e8e2bc3779872d2f988c78015e33487a323ff1fec013438285428b5588ab162e8e0a6da30783a7308564b5296b9775eade254523cbb5290e3e0579c919f3818331d1cb2d1a882f67cb45546fd0b6353ab1074fa974229a186a7575770df9a6060d18584ef7928dd76d89db8f5641731516bb32e7c498c24f6b6ca54a0a6ee2b26e9bb9006d1eb518afbf69877b722efb2e7571f7737e1fcb6d8ab65dcf0232ef8886bdf98feda10a35b33dcb69167a1f2b5ffa3baa2ef3324f9f85be3ea2090b58b3e24b8f520f9a35f1ee0f21a9215edc8d632874f6392f83996e5b742080d11164bc3f445730c770afdb047021345e6d8dff99b43b0a3e29b651986b2f351d0b71a6eb9d5914bc5a9e68118956607a947edef6cd1263e769ec20be5e6c56094bb4aea1b7182c3ff27bfc72051bdda8d75db3c0f6d3675e13fe54ddba1d1f2173aa057e6239527ad67178a7d2230515c749f8be955585ed7eba6256bd4449e7b21751d4920c42e204ee64276221079b11c15a6cd383f35dba99a0b5367d3d0f6b545d67f1d167d35222319137a3149fe6f4473549866c4d08bd3104eeda0f0353d2736527d7a34f638285a61d346bba1439ff0d0fbb7fcd27246011700cb8b98f8fe217e499508bb6346949b6d9ebd902925bfa166a0cc48950130eeb7dbc890b8fae229d0ca0b0f8241fe430f404752e044e4aee22b0f2273b7e9cef30e898323230014a6b99241b1551a06f419f7f662a2d876fd3b89b1eb15e9e55ba72d0a94e9607bea718750904e5db7af9c8dc0ec5c83d9e9f47318c797e731344b4cc1c5391f78379f04eaed5954fe4ed945f2eec873ce6867bcb9a2637ba48e23ad0751ed6fc91c864ee0c30b49a800a5b1b1c7e1e45dc81064ec70846b72c08f2ab2da060ae017ae1daa2971f5f016f170809e26eb71cdba38a7334d009047d59f02c686a189678d83434c8398b5002b54d7ded1e58779f604fa61866b67409fe65a4313f44b4e891ce8f0132673aef0056a95d3ade7700c910672573c72dd87f11e75402a119fab42672c6365bb28677b3464906b0eb3762e52c510f669f09b268a1fe42298ad7535627c0d4c3e32b9adae0a980f18bec428c797c110c1c7ca4b751a39912ea3aa7123ac0aa6bcb6c87fbc6f89963ea2d78aa"
      ],
      "sequence": 4294967294
    }
  ],
  "vout": [
    {
      "value": 499970.5099,
      "n": 0,
      "scriptPubKey": {
        "asm": "1 f5de6fb1a3bfaac004b3c5e82723462c0fcbddec7d86b3927d2be1fd307db103",
        "hex": "5120f5de6fb1a3bfaac004b3c5e82723462c0fcbddec7d86b3927d2be1fd307db103",
        "reqSigs": 1,
        "type": "witness_v1_scripthash",
        "addresses": [
          "3QJmnh"
        ]
      }
    },
    {
      "value": 1.0,
      "n": 1,
      "scriptPubKey": {
        "asm": "OP_RETURN 70bdc820e8ee1038232fa962fe62feee43b712ed5057432b677d250c56861baa de8c6f332990665779861b34a6f9ccb589e9a80ba03eb9e02dd18d5e75f02c13feac4f1309b0467759a63b1486d9ec95a9c9882b801e99c00df1ad7e55d00c339ecc2f7369d0261739c65b74e6b98cf5c9a9e84be07ef9a06d91cd1e35b06c53beec0f5349f0063719e67b54c699acd5e989c86bc05ed9804db1ed3e15904c735e0cefb3a910e6d7f9069bb426794c350969288b20be3960ad510ddef570ac937e2ccf938930c6f7d926bb9406596c15294908ab009e19408d712dfed5508cb31e4caff3e950a697b946dbf466390c75492968cb60fe7920ed114d9eb530ecd33e6c8fd3c97086b79966fbd446192c55690948eb40de5900cd316dbe9510ccf3de8c6f332990665779861b34a6f9ccb589e9a80ba03eb9e02dd18d5e75f02c13feac4f1309b0467759a63b1486d9ec95a9c9882b801e99c00df1ad7e55d00c339ecc2f7369d0261739c65b74e6b98cf5c9a9e84be07ef9a06d91cd1e35b06c53beec0f5349f0063719e67b54c699acd5e989c86bc05ed9804db1ed3e15904c735e0cefb3a910e6d7f9069bb426794c350969288b20be3960ad510ddef570ac937e2ccf938930c6f7d926bb9406596c15294908ab009e19408d712dfed5508cb31e4caff3e950a697b946dbf466390c75492968cb60fe7920ed114d9eb530ecd33e6c8fd3c97086b79966fbd446192c55690948eb40de5900cd316dbe9510ccf3de8c6f332990665779861b34a6f9ccb589e9a80ba03eb9e02dd18d5e75f02c13feac4f1309b0467759a63b1486d9ec95a9c9882b801e99c00df1ad7e55d00c339ecc2f7369d0261739c65b74e6b98cf5c9a9e84be07ef9a06d91cd1e35b06c53beec0f5349f0063719e67b54c699acd5e989c86bc05ed9804db1ed3e15904c735e0cefb3a910e6d7f9069bb426794c350969288b20be3960ad510ddef570ac937e2ccf938930c6f7d926bb9406596c15294908ab009e19408d712dfed5508cb31e4caff3e950a697b946dbf466390c75492968cb60fe7920ed114d9eb530ecd33e6c8fd3c97086b79966fbd446192c55690948eb40de5900cd316dbe9510ccf3de8c6f332990665779861b34a6f9ccb589e9a80ba03eb9e02dd18d5e75f02c13feac4f1309b0467759a63b1486d9ec95a9c9882b801e99c00df1ad7e55d00c339ecc2f7369d0261739c65b74e6b98cf5c9a9e84be07ef9a06d91cd1e35b06c53beec0f5349f0063719e67b54c699acd5e989c86bc05ed9804db1ed3e15904c735e0cefb3a910e6d7f9069bb426794c350969288b20be3960ad510ddef570ac937e2ccf938930c6f7d926bb9406596c15294908ab009e19408d712dfed5508cb31e4caff3e950a697b946dbf466390c75492968cb60fe7920ed114d9eb530ecd33e6c8fd3c97086b79966fbd446192c55690948eb40de5900cd316dbe9510ccf3de8c6f332990665779861b34a6f9ccb589e9a80ba03eb9e02dd18d5e75f02c13feac4f1309b0467759a63b1486d9ec95a9c9882b801e99c00df1ad7e55d00c339ecc2f7369d0261739c65b74e6b98cf5c9a9e84be07ef9a06d91cd1e35b06c53beec0f5349f0063719e67b54c699acd5e989c86bc05ed9804db1ed3e15904c735e0cefb3a910e6d7f9069bb426794c3598bbe51ec3239658e9dd56d23a8015694f43f87ee008e0da058e14cdf8e7a6a6",
        "hex": "6a2070bdc820e8ee1038232fa962fe62feee43b712ed5057432b677d250c56861baa4db004de8c6f332990665779861b34a6f9ccb589e9a80ba03eb9e02dd18d5e75f02c13feac4f1309b0467759a63b1486d9ec95a9c9882b801e99c00df1ad7e55d00c339ecc2f7369d0261739c65b74e6b98cf5c9a9e84be07ef9a06d91cd1e35b06c53beec0f5349f0063719e67b54c699acd5e989c86bc05ed9804db1ed3e15904c735e0cefb3a910e6d7f9069bb426794c350969288b20be3960ad510ddef570ac937e2ccf938930c6f7d926bb9406596c15294908ab009e19408d712dfed5508cb31e4caff3e950a697b946dbf466390c75492968cb60fe7920ed114d9eb530ecd33e6c8fd3c97086b79966fbd446192c55690948eb40de5900cd316dbe9510ccf3de8c6f332990665779861b34a6f9ccb589e9a80ba03eb9e02dd18d5e75f02c13feac4f1309b0467759a63b1486d9ec95a9c9882b801e99c00df1ad7e55d00c339ecc2f7369d0261739c65b74e6b98cf5c9a9e84be07ef9a06d91cd1e35b06c53beec0f5349f0063719e67b54c699acd5e989c86bc05ed9804db1ed3e15904c735e0cefb3a910e6d7f9069bb426794c350969288b20be3960ad510ddef570ac937e2ccf938930c6f7d926bb9406596c15294908ab009e19408d712dfed5508cb31e4caff3e950a697b946dbf466390c75492968cb60fe7920ed114d9eb530ecd33e6c8fd3c97086b79966fbd446192c55690948eb40de5900cd316dbe9510ccf3de8c6f332990665779861b34a6f9ccb589e9a80ba03eb9e02dd18d5e75f02c13feac4f1309b0467759a63b1486d9ec95a9c9882b801e99c00df1ad7e55d00c339ecc2f7369d0261739c65b74e6b98cf5c9a9e84be07ef9a06d91cd1e35b06c53beec0f5349f0063719e67b54c699acd5e989c86bc05ed9804db1ed3e15904c735e0cefb3a910e6d7f9069bb426794c350969288b20be3960ad510ddef570ac937e2ccf938930c6f7d926bb9406596c15294908ab009e19408d712dfed5508cb31e4caff3e950a697b946dbf466390c75492968cb60fe7920ed114d9eb530ecd33e6c8fd3c97086b79966fbd446192c55690948eb40de5900cd316dbe9510ccf3de8c6f332990665779861b34a6f9ccb589e9a80ba03eb9e02dd18d5e75f02c13feac4f1309b0467759a63b1486d9ec95a9c9882b801e99c00df1ad7e55d00c339ecc2f7369d0261739c65b74e6b98cf5c9a9e84be07ef9a06d91cd1e35b06c53beec0f5349f0063719e67b54c699acd5e989c86bc05ed9804db1ed3e15904c735e0cefb3a910e6d7f9069bb426794c350969288b20be3960ad510ddef570ac937e2ccf938930c6f7d926bb9406596c15294908ab009e19408d712dfed5508cb31e4caff3e950a697b946dbf466390c75492968cb60fe7920ed114d9eb530ecd33e6c8fd3c97086b79966fbd446192c55690948eb40de5900cd316dbe9510ccf3de8c6f332990665779861b34a6f9ccb589e9a80ba03eb9e02dd18d5e75f02c13feac4f1309b0467759a63b1486d9ec95a9c9882b801e99c00df1ad7e55d00c339ecc2f7369d0261739c65b74e6b98cf5c9a9e84be07ef9a06d91cd1e35b06c53beec0f5349f0063719e67b54c699acd5e989c86bc05ed9804db1ed3e15904c735e0cefb3a910e6d7f9069bb426794c3598bbe51ec3239658e9dd56d23a8015694f43f87ee008e0da058e14cdf8e7a6a6",
        "type": "nulldata"
      }
    }
  ],
  "blockhash": "f7496688ea8085f6c88d1199f2534797ba9d5c262af7501e5ddf271dd00b2202",
  "confirmations": 1,
  "time": 1764181480,
  "blocktime": 1764181480
}