{
  "hex": "01000000000101221195cb2da530eea342113ddc6026ac08f51c1f31f34e50d7a22eb1c38b46480100000000feffffff023022f408792d0000225120c1e3f2327a8a1cac959a96b65a670f661eafc7c59b1311572fca3df44f9d15a200e1f50500000000fdd5046a205ccd4b943cae476ff57a2327cbce89b275d57a7392ff125500e538960d5c0b5e4db00475d7b8131aed1ae1d6afb8265518ccde69973e4adc8cc43751819fe5ca24d62d55f798333acd3ac1f68f98067538ecfe49b71e6afcace41771a1bfc5ea04f60d3597f8535aad5aa196eff86615588c9e29d77e0a9ccc847711c1dfa58a64966d15b7d8737a8d7a81b6cfd8463578acbe09f75e2abceca45731e1ff85aa44b64df55738939a6d9a61562f38a6d5984c5ee917beca5c0c44b7d1011f654aa456add57718b3ba4dba41760f1886f5b86c7ec9379eea7c2c6497f1213f456a84768db51778d3da2dda21166f78e695d80c1ea957fe8a1c4c04f791415f250ae416ed953758f3fa0dfa01364f58c6b5f82c3e8977deaa3c6c24d7b1617f052ac436cd75d7b8131aed1ae1d6afb8265518ccde69973e4adc8cc43751819fe5ca24d62d55f798333acd3ac1f68f98067538ecfe49b71e6afcace41771a1bfc5ea04f60d3597f8535aad5aa196eff86615588c9e29d77e0a9ccc847711c1dfa58a64966d15b7d8737a8d7a81b6cfd8463578acbe09f75e2abceca45731e1ff85aa44b64df55738939a6d9a61562f38a6d5984c5ee917beca5c0c44b7d1011f654aa456add57718b3ba4dba41760f1886f5b86c7ec9379eea7c2c6497f1213f456a84768db51778d3da2dda21166f78e695d80c1ea957fe8a1c4c04f791415f250ae416ed953758f3fa0dfa01364f58c6b5f82c3e8977deaa3c6c24d7b1617f052ac436cd75d7b8131aed1ae1d6afb8265518ccde69973e4adc8cc43751819fe5ca24d62d55f798333acd3ac1f68f98067538ecfe49b71e6afcace41771a1bfc5ea04f60d3597f8535aad5aa196eff86615588c9e29d77e0a9ccc847711c1dfa58a64966d15b7d8737a8d7a81b6cfd8463578acbe09f75e2abceca45731e1ff85aa44b64df55738939a6d9a61562f38a6d5984c5ee917beca5c0c44b7d1011f654aa456add57718b3ba4dba41760f1886f5b86c7ec9379eea7c2c6497f1213f456a84768db51778d3da2dda21166f78e695d80c1ea957fe8a1c4c04f791415f250ae416ed953758f3fa0dfa01364f58c6b5f82c3e8977deaa3c6c24d7b1617f052ac436cd75d7b8131aed1ae1d6afb8265518ccde69973e4adc8cc43751819fe5ca24d62d55f798333acd3ac1f68f98067538ecfe49b71e6afcace41771a1bfc5ea04f60d3597f8535aad5aa196eff86615588c9e29d77e0a9ccc847711c1dfa58a64966d15b7d8737a8d7a81b6cfd8463578acbe09f75e2abceca45731e1ff85aa44b64df55738939a6d9a61562f38a6d5984c5ee917beca5c0c44b7d1011f654aa456add57718b3ba4dba41760f1886f5b86c7ec9379eea7c2c6497f1213f456a84768db51778d3da2dda21166f78e695d80c1ea957fe8a1c4c04f791415f250ae416ed953758f3fa0dfa01364f58c6b5f82c3e8977deaa3c6c24d7b1617f052ac436cd75d7b8131aed1ae1d6afb8265518ccde69973e4adc8cc43751819fe5ca24d62d55f798333acd3ac1f68f98067538ecfe49b71e6afcace41771a1bfc5ea04f60d3597f8535aad5aa196eff86615588c9e29d77e0a9ccc847711c1dfa58a64966d15b7d8737a8d7a81b6cfd8463578acbe09f75e2abceca45731e1ff85aa44b64df55738939a6d9a61562f38a6d5984c5eb526d22b4de3613ef6c96af2161df6e1e1e21b4d4473ca48bf0ddd3d3b3dafab02fd7509bdb3afbf17a8dfb025d5505885c863691312988a3c93eb3591b70c9b4ad8b22e922d6a51700c59a71288a35ae57fc78131b2c31d9600a94f04fd0876f3fedb4f5642851a141db193951cd2d9693e34dff0e98f51adc56ef48455d4a5c6850046e5157dd9e10a09cf83ea47ca3d7843b9da6ff9848460c1fa13ac5335ed297ba127efcf9ef82daa11a4435dfa3982303bf96dd41b5f8a1733347e0c5b05aa46c0028e21c3209e1dd285b6edfb3c1e0d4c3f67d4f364081b9a85f6e6a532639a56b579a7ebb980591cbdd3f9eb2cce0650f7e6cc225adf55c1f8643e9e0bd72d848e705d28d9930a7fc5c618a4aee92a183ad5927841a8ba6be4a11b157a615b0dd6f5b45516bd5af9977a5b861caed9d2788aa9567e7a54d48910bcb55c4a6ddd4186020675ab9c531c980e4ee64cae218ae373c0f801015a1b97dc55ccc4d8563ca46859e593f084ee432d93d4abf5eacdd88ef1df883b27441fea14cf183d10cc12331082717a7dcea13e6d93c55c9d9ec2c5206e0f879f52aa33144c2211b76d5179005541c90a119abc60e283f0d4c1f7bff63965844c3319e129b3ec2491b0fd06e50359cf4ebd4217c0dc9738b8f54ce12b8396d4c92ca1e387155675ca1a6cfd4c7c03477e19f4a4391de3a7e5e1e4e29a4f0bb4862920a3e22cb54e919545f8a273c0dd49b6c21eb075ec2b5c6f97cbf0dfca445359f1ee2bb551822f3f13e3f72c285de4a747043eb6cb2d1e3340a5dcfae90d53a4a00d17e1e6f912541f8c45c05f9b2cdcd4c5e982c13ef4d2bc70aa53ad3981cd4b4c00ca28f1a571ce2b5874b7e38bdcb249999108958d96a9ffdaca3eb738fac983fed2f416d12e510beeb361281960e0731adf188cc92b6c2a741bb51c48782292dab54830a9c0f303291cc5c5fa648b9f8702b821fecab9e89da5d36cee51da12ede9d8fa40a07cafe54de936cebb7a3c9654a4890cd31e4da03b1a3930e4182aab9c66d1b2703fe315c0d34fef0e696ed257d5d12fc87a00f91c410da387da1dc4f4875e7e53ce0db42b80c7f40f4f4dd86aaaa7aef946814f1f92147f6ef0f8f0d0c2c9a0b1b2411f80058631451a6522528a3a7a0ee3769d7f4d0e7c1b54d34a9bf07fce7ef1b4913bc8b17b70b7a75d718c7f41982b577971f5e189ebfda7a0da06e6184fa260d9bab3a74e1e4146d29d1db6afc2806ae54dad9a0f30e61355088937f36feb52e3fc539c45f798d7b6c8ff6bdce4746a0525e4529c881aa7d3b2fc84f4186086ed4e6aa0179d078a8c7a0bfbac45b794322dd129f8a03e711f4af33b72064d7897f425deb0ede08b4a002fea09e3b11af4f408ec7c81801443557b57b4f8e5687a8aeca4ab4e2c35ca94b3863d693d3114b5c8b155d3b519917be1e731450bf687f048c22ad29746166f70e1aaad623e0587e53f2113788ea1afdd76b30c140b68b98aeeda7dc61df8517a4065cd2507cef111b918c71be62500eea3e359b4dfb3b7762c91ca5ab69940592f83da5f9aa23e892c68752271eb370b43ea98f9edb6d5a8596a873020e42b40ffc8406b1ec6691b596354ef0913ba515d0a5c238baf39d547c0396d5a6a7e27120e7dc90266c000f44ffca787e666fada345b3a9730a9e9175628c1a84269892b6f8d124655765465ac20c01991b63ec4883152dcc59396bc25d94e476debb2b133741f7e796dd8f15d08455b2e6ebf8677c6fe3ad2c799f6580629a2c72320e75757f4e2b192fd598c889420441b40c4b016dda2dd977d21ea50fe6f1aa4326123c583edf52bedde5be5deee6df74e668346d8915829e7f8ca74c39013d46c1c97e7241e17e233cb2a4724abf4f7582e158fd4b9912f3b19325ff4fc0e25695e2919c6069e6ca2a521784aa81345e6141528c93b3782ed9ddc1e32cc5b9081ab86229ed7a534889a37d398b9449358efbea2f8292883b49d33adf58e00fbefab8befaa74216469b9abd38844bb434aa50cc0585512531c4da96a63bd2889f95c462bafe82edc4f86ab36244156b43ef6fe2299f3732e7ee25259eb7b9e3b9335e424ac314366cafe02f7f55002906ee2dffae20b83e18674ac233dfc2d70f3799743fbc08b235fbcf3059f1959946c2f153128904a62dc915e12002624b665711674dfc4f513649f228a80d74c973ed0cec7e4a1731ed01c25299d387f7145870163fbe6e9d38a3d380a21d7e1068f599b57fdba4a832a5ce4041fd4502f37e28c4dadfd72b7a454720f60e845b6e46430ab1cb2e63b45e4aefb6e2b89226552b82a6837c6f4c44eb55ea73d78792df8e0cca52431053086a393c23c7036555f3635eea4b29c1c3d2960923c43330c5302be27866d8af72c1bf10924b0e16ad78cb6477e3d03d0471be1346622933bddcbd0d72c9bfb4af88785db2bfc14586ef731e676654e078b372c36ffb97e16840f8cd7654205b6c34edd55ec09a2bef534817fe99a4851da473403e3f09dfc0ca58c7dc40a0e07484e9699b93a3a5f81af0983987607e7c5017c6c64642af806e2cd80247008c41eedd562ccd139eec99473b1fa4fa73ae0a8ca353ec6c0b22385f6b6f6dacd6556ba8c389d0aa70a6566f79c83be9dd4dddae0a609b9815a2d53fd3f9d78f1ed033000d506a619fdd8cf248af9655fab7c982af4ae98739066a6efacad18c2c85256c4974d0681a1c6e704cd116d2da4d68e9a366b584a5c2c3cc9ec5f0b1cd000f81dc5889fc477991dc5e5b5897d6f58dcf940f28bd87f34fcf98c4170faf7abe1cf7b30c01e4f978938e2cea4d2a02309c168ec38b04b0df5204a2ee2fe321275717dc4ec857f6448cfa2d44c2063c651d5dba485d7a42a4536d7028a63a3625d8a993f2898cc2f292216c8f6d8b4fc3a14f76e8aafa29bae02ab6afe75c077b8cbcb83c1bf605b80630911f3ab906f47b19a5264e0626c45f800f8914f0030d7055492f08e4f46dfe97d23a12766c4c4feb02c7bbcc2abc94613b12b5f9540437c573d00e9b113fa84bd0e18f39799e60c3a4f46c10728ee5afbabd2033ba43cea8bbefa503deb2f8e7fa36ecc47a561ed4f62292b4b2574120568e842130de71ac4343545fb0703101324564ad75213f5b2b17b95df6cdeea63231729ef545fb4ebadd0be4ae15e25b25f31d4fe4bd1be677d001dfc815a426e150687623cf87c5ddca3743c15bedd2a84e54e9a50b951d4e7a6edf6b1b3726f6f6f53f0978b0874050e77bc0c0dc9abac5c656688d41ddac22bdca1461b2bf74ac170918da14fc7590ae05f0e1bc6d726a4383add6c94351c7a7cef178a0e11384f7696aadae910191c3638424d516476829296a8b3bed7da6c73919da5add2de101c1d416c718b9a9ca8cfd3d6d9e6ed0000000000000000000000000000000000000000000000000000000000091b233301fd210500c565d82ce68200f0d006eaf7af4534cd21b484d61664bace262787b1ad395757ca14c93e37dbb4a99fe99c578822fd298db56a764248103abefa5fcd5319cb42d9f2499e464557e4932e9bccedcd8cb5c2e15d02182a509d30e8277233e44d1cda5a4de2401ae3974ed6699aeb7cfcad2c2dafc802f40679026e6f1d31e57166fb8ce617139b2a56864631020dd1eae03c399656642f354fbe02d54b7e196b1dcc028391846fb2bda98108fc74c8b08f2a09424f6b7ec51f1d6262099dfb497d32b3816defdbc92e492d1a187fbadb9780bec85768ea99a70008137bb7c323b1b043fcbe3b17fd9cda47e94799a4b6364779030ca6d7121d93bd0ab7169e273d459359ec8cc0a36b01a3ec1681fb1507060227df147f77507537045cc082ba85245faa869d8cf8b7134117ac841dee99d4a36efaebb02f644dbceff672d5ccbdb534434e6242cfe9144c883e5a3c8cb0f35206ec9db0b3846dc604b17c850c03ae3b5b8ed51d10f0d286dcd6a22480e8a7f335f64a20f4ba65c8f88d504ecc0ed9152eb62d316aacebec9ce82cb42dbf1d66f89e38f7bc3d87bddaf829db5bfec00321c26ed41a896091cef711ad51b361164db9136e02d1eedfb37a5ffdcc6fbb06941a1d0e57c82777da88c9a75fc7861447bde029a10c071957b6b494a75c4722b17f21eadc236ff71cd68f4d2a6e27533a508c53a59dd5721142ef884946dbbfec2b39c234482d1173425eba1a2126f68ffd2b0ff60f3caf1306a1b86abe9050aa97e1268388fa5194ecefdd70900d8ae03c0c2743ab5fd4177f42f78c9fa8fea8beb3a8e67787684bf413ac2a0c68ccf0700d3d47f1f234b50046399921d03ca8b5762a1eee6e3ed684083f1bda7df55de807a868ccd93b58400a1515bd1fca0c5d3ad55617a9c08dc26ea21f9281adcf1eec13ab45b0199ab06105d5477a82615c7c400b865b20cfd4cb2b9707b68cd81b0b233ee5787a0989aab992512bb27d28d7992be59dab1f09b8b4b3e8f0564b374a20771e52bb50c3b7f0b157697ecdfb6af0d68a66f89b333a74cb4d4d50634b94e19b253cf42df5ae35073464bfe4dcdfa042fcc6d88978409097390f2d175e5f4364cf069d82ee94ec6b1f89837caa5f294b027fab11ee4ca7800c9ec3064f6ee7a342576c0364765c6be2472594f4d4463218d27d60e41ae6a9e5edf8571584e373c97eb60ae0ad1082e404e83493d3a80816c1a6990b934101a541060bf433b66ea1dfc637fd34698f3d8237089bc908ef771a00e4b18703432ac3304b79e19cb6ba183cb0fee2ecb149e608eb423b06127b2c3e7fc43390acb17bc5acdaff53766e6ecf5a27a9a6c2f86f8b9f4a083e35c92659c291e56e56162d3836b5da2b6506b930c2be3a64d89520c99c9336fa9ed9f4fd0912913bd848dd9ed7749469c4a0047546535afe03937e57c95aefac6791593db3cb7c6726b4e950c415aca3b1e3cf60ca87230d61015b9e741b53e042f0bdf8d716f69aa09af28c47177aad00e6035fe89db61991132e5971ec198c4fe8faa441b69c35b7d66555fc76cbdc0d19221b99864d191ebe3c88116152fa0593768b0aa0e0a687536c97a6efdb7b5d69d09003ddec6b91933386bd209b0f504394d754f4b2ca1b06128ff45e9d7d73ac0ead5d37e7f2a86b592ea65b7a687d16ff505f110b4d27232a91b204fcda3e4c661ce6de607821f570e5dc0bbdb873c521e399de0e3297df6841a497d173142e1be7debaae922662696a4d3425f24084cdc2a423cfec83f6fdab69b4ac4de82e2da184a703ba9830126bc120f3d0311eb4c837aa573583a1464ccfe1005526ec8136b4551f96640e77000000",
  "txid": "6e4541988a8ec2be300978e437b5734498849adc35ef74d41af496c6166c3c24",
  "hash": "0692481bf5bfd8a5b9ec050acf32b6f295434dbcdd957a95709b9d6e650eea93",
  "size": 5085,
  "vsize": 2278,
  "version": 1,
  "locktime": 119,
  "vin": [
    {
      "txid": "48468bc3b12ea2d7504ef3311f1cf508ac2660dc3d1142a3ee30a52dcb951122",
      "vout": 1,
      "scriptSig": {
        "asm": "",
        "hex": ""
      },
      "txinwitness": [
        "bdb3afbf17a8dfb025d5505885c863691312988a3c93eb3591b70c9b4ad8b22e922d6a51700c59a71288a35ae57fc78131b2c31d9600a94f04fd0876f3fedb4f5642851a141db193951cd2d9693e34dff0e98f51adc56ef48455d4a5c6850046e5157dd9e10a09cf83ea47ca3d7843b9da6ff9848460c1fa13ac5335ed297ba127efcf9ef82daa11a4435dfa3982303bf96dd41b5f8a1733347e0c5b05aa46c0028e21c3209e1dd285b6edfb3c1e0d4c3f67d4f364081b9a85f6e6a532639a56b579a7ebb980591cbdd3f9eb2cce0650f7e6cc225adf55c1f8643e9e0bd72d848e705d28d9930a7fc5c618a4aee92a183ad5927841a8ba6be4a11b157a615b0dd6f5b45516bd5af9977a5b861caed9d2788aa9567e7a54d48910bcb55c4a6ddd4186020675ab9c531c980e4ee64cae218ae373c0f801015a1b97dc55ccc4d8563ca46859e593f084ee432d93d4abf5eacdd88ef1df883b27441fea14cf183d10cc12331082717a7dcea13e6d93c55c9d9ec2c5206e0f879f52aa33144c2211b76d5179005541c90a119abc60e283f0d4c1f7bff63965844c3319e129b3ec2491b0fd06e50359cf4ebd4217c0dc9738b8f54ce12b8396d4c92ca1e387155675ca1a6cfd4c7c03477e19f4a4391de3a7e5e1e4e29a4f0bb4862920a3e22cb54e919545f8a273c0dd49b6c21eb075ec2b5c6f97cbf0dfca445359f1ee2bb551822f3f13e3f72c285de4a747043eb6cb2d1e3340a5dcfae90d53a4a00d17e1e6f912541f8c45c05f9b2cdcd4c5e982c13ef4d2bc70aa53ad3981cd4b4c00ca28f1a571ce2b5874b7e38bdcb249999108958d96a9ffdaca3eb738fac983fed2f416d12e510beeb361281960e0731adf188cc92b6c2a741bb51c48782292dab54830a9c0f303291cc5c5fa648b9f8702b821fecab9e89da5d36cee51da12ede9d8fa40a07cafe54de936cebb7a3c9654a4890cd31e4da03b1a3930e4182aab9c66d1b2703fe315c0d34fef0e696ed257d5d12fc87a00f91c410da387da1dc4f4875e7e53ce0db42b80c7f40f4f4dd86aaaa7aef946814f1f92147f6ef0f8f0d0c2c9a0b1b2411f80058631451a6522528a3a7a0ee3769d7f4d0e7c1b54d34a9bf07fce7ef1b4913bc8b17b70b7a75d718c7f41982b577971f5e189ebfda7a0da06e6184fa260d9bab3a74e1e4146d29d1db6afc2806ae54dad9a0f30e61355088937f36feb52e3fc539c45f798d7b6c8ff6bdce4746a0525e4529c881aa7d3b2fc84f4186086ed4e6aa0179d078a8c7a0bfbac45b794322dd129f8a03e711f4af33b72064d7897f425deb0ede08b4a002fea09e3b11af4f408ec7c81801443557b57b4f8e5687a8aeca4ab4e2c35ca94b3863d693d3114b5c8b155d3b519917be1e731450bf687f048c22ad29746166f70e1aaad623e0587e53f2113788ea1afdd76b30c140b68b98aeeda7dc61df8517a4065cd2507cef111b918c71be62500eea3e359b4dfb3b7762c91ca5ab69940592f83da5f9aa23e892c68752271eb370b43ea98f9edb6d5a8596a873020e42b40ffc8406b1ec6691b596354ef0913ba515d0a5c238baf39d547c0396d5a6a7e27120e7dc90266c000f44ffca787e666fada345b3a9730a9e9175628c1a84269892b6f8d124655765465ac20c01991b63ec4883152dcc59396bc25d94e476debb2b133741f7e796dd8f15d08455b2e6ebf8677c6fe3ad2c799f6580629a2c72320e75757f4e2b192fd598c889420441b40c4b016dda2dd977d21ea50fe6f1aa4326123c583edf52bedde5be5deee6df74e668346d8915829e7f8ca74c39013d46c1c97e7241e17e233cb2a4724abf4f7582e158fd4b9912f3b19325ff4fc0e25695e2919c6069e6ca2a521784aa81345e6141528c93b3782ed9ddc1e32cc5b9081ab86229ed7a534889a37d398b9449358efbea2f8292883b49d33adf58e00fbefab8befaa74216469b9abd38844bb434aa50cc0585512531c4da96a63bd2889f95c462bafe82edc4f86ab36244156b43ef6fe2299f3732e7ee25259eb7b9e3b9335e424ac314366cafe02f7f55002906ee2dffae20b83e18674ac233dfc2d70f3799743fbc08b235fbcf3059f1959946c2f153128904a62dc915e12002624b665711674dfc4f513649f228a80d74c973ed0cec7e4a1731ed01c25299d387f7145870163fbe6e9d38a3d380a21d7e1068f599b57fdba4a832a5ce4041fd4502f37e28c4dadfd72b7a454720f60e845b6e46430ab1cb2e63b45e4aefb6e2b89226552b82a6837c6f4c44eb55ea73d78792df8e0cca52431053086a393c23c7036555f3635eea4b29c1c3d2960923c43330c5302be27866d8af72c1bf10924b0e16ad78cb6477e3d03d0471be1346622933bddcbd0d72c9bfb4af88785db2bfc14586ef731e676654e078b372c36ffb97e16840f8cd7654205b6c34edd55ec09a2bef534817fe99a4851da473403e3f09dfc0ca58c7dc40a0e07484e9699b93a3a5f81af0983987607e7c5017c6c64642af806e2cd80247008c41eedd562ccd139eec99473b1fa4fa73ae0a8ca353ec6c0b22385f6b6f6dacd6556ba8c389d0aa70a6566f79c83be9dd4dddae0a609b9815a2d53fd3f9d78f1ed033000d506a619fdd8cf248af9655fab7c982af4ae98739066a6efacad18c2c85256c4974d0681a1c6e704cd116d2da4d68e9a366b584a5c2c3cc9ec5f0b1cd000f81dc5889fc477991dc5e5b5897d6f58dcf940f28bd87f34fcf98c4170faf7abe1cf7b30c01e4f978938e2cea4d2a02309c168ec38b04b0df5204a2ee2fe321275717dc4ec857f6448cfa2d44c2063c651d5dba485d7a42a4536d7028a63a3625d8a993f2898cc2f292216c8f6d8b4fc3a14f76e8aafa29bae02ab6afe75c077b8cbcb83c1bf605b80630911f3ab906f47b19a5264e0626c45f800f8914f0030d7055492f08e4f46dfe97d23a12766c4c4feb02c7bbcc2abc94613b12b5f9540437c573d00e9b113fa84bd0e18f39799e60c3a4f46c10728ee5afbabd2033ba43cea8bbefa503deb2f8e7fa36ecc47a561ed4f62292b4b2574120568e842130de71ac4343545fb0703101324564ad75213f5b2b17b95df6cdeea63231729ef545fb4ebadd0be4ae15e25b25f31d4fe4bd1be677d001dfc815a426e150687623cf87c5ddca3743c15bedd2a84e54e9a50b951d4e7a6edf6b1b3726f6f6f53f0978b0874050e77bc0c0dc9abac5c656688d41ddac22bdca1461b2bf74ac170918da14fc7590ae05f0e1bc6d726a4383add6c94351c7a7cef178a0e11384f7696aadae910191c3638424d516476829296a8b3bed7da6c73919da5add2de101c1d416c718b9a9ca8cfd3d6d9e6ed0000000000000000000000000000000000000000000000000000000000091b233301",
        "00c565d82ce68200f0d006eaf7af4534cd21b484d61664bace262787b1ad395757ca14c93e37dbb4a99fe99c578822fd298db56a764248103abefa5fcd5319cb42d9f2499e464557e4932e9bccedcd8cb5c2e15d02182a509d30e8277233e44d1cda5a4de2401ae3974ed6699aeb7cfcad2c2dafc802f40679026e6f1d31e57166fb8ce617139b2a56864631020dd1eae03c399656642f354fbe02d54b7e196b1dcc028391846fb2bda98108fc74c8b08f2a09424f6b7ec51f1d6262099dfb497d32b3816defdbc92e492d1a187fbadb9780bec85768ea99a70008137bb7c323b1b043fcbe3b17fd9cda47e94799a4b6364779030ca6d7121d93bd0ab7169e273d459359ec8cc0a36b01a3ec1681fb1507060227df147f77507537045cc082ba85245faa869d8cf8b7134117ac841dee99d4a36efaebb02f644dbceff672d5ccbdb534434e6242cfe9144c883e5a3c8cb0f35206ec9db0b3846dc604b17c850c03ae3b5b8ed51d10f0d286dcd6a22480e8a7f335f64a20f4ba65c8f88d504ecc0ed9152eb62d316aacebec9ce82cb42dbf1d66f89e38f7bc3d87bddaf829db5bfec00321c26ed41a896091cef711ad51b361164db9136e02d1eedfb37a5ffdcc6fbb06941a1d0e57c82777da88c9a75fc7861447bde029a10c071957b6b494a75c4722b17f21eadc236ff71cd68f4d2a6e27533a508c53a59dd5721142ef884946dbbfec2b39c234482d1173425eba1a2126f68ffd2b0ff60f3caf1306a1b86abe9050aa97e1268388fa5194ecefdd70900d8ae03c0c2743ab5fd4177f42f78c9fa8fea8beb3a8e67787684bf413ac2a0c68ccf0700d3d47f1f234b50046399921d03ca8b5762a1eee6e3ed684083f1bda7df55de807a868ccd93b58400a1515bd1fca0c5d3ad55617a9c08dc26ea21f9281adcf1eec13ab45b0199ab06105d5477a82615c7c400b865b20cfd4cb2b9707b68cd81b0b233ee5787a0989aab992512bb27d28d7992be59dab1f09b8b4b3e8f0564b374a20771e52bb50c3b7f0b157697ecdfb6af0d68a66f89b333a74cb4d4d50634b94e19b253cf42df5ae35073464bfe4dcdfa042fcc6d88978409097390f2d175e5f4364cf069d82ee94ec6b1f89837caa5f294b027fab11ee4ca7800c9ec3064f6ee7a342576c0364765c6be2472594f4d4463218d27d60e41ae6a9e5edf8571584e373c97eb60ae0ad1082e404e83493d3a80816c1a6990b934101a541060bf433b66ea1dfc637fd34698f3d8237089bc908ef771a00e4b18703432ac3304b79e19cb6ba183cb0fee2ecb149e608eb423b06127b2c3e7fc43390acb17bc5acdaff53766e6ecf5a27a9a6c2f86f8b9f4a083e35c92659c291e56e56162d3836b5da2b6506b930c2be3a64d89520c99c9336fa9ed9f4fd0912913bd848dd9ed7749469c4a0047546535afe03937e57c95aefac6791593db3cb7c6726b4e950c415aca3b1e3cf60ca87230d61015b9e741b53e042f0bdf8d716f69aa09af28c47177aad00e6035fe89db61991132e5971ec198c4fe8faa441b69c35b7d66555fc76cbdc0d19221b99864d191ebe3c88116152fa0593768b0aa0e0a687536c97a6efdb7b5d69d09003ddec6b91933386bd209b0f504394d754f4b2ca1b06128ff45e9d7d73ac0ead5d37e7f2a86b592ea65b7a687d16ff505f110b4d27232a91b204fcda3e4c661ce6de607821f570e5dc0bbdb873c521e399de0e3297df6841a497d173142e1be7debaae922662696a4d3425f24084cdc2a423cfec83f6fdab69b4ac4de82e2da184a703ba9830126bc120f3d0311eb4c837aa573583a1464ccfe1005526ec8136b4551f96640e"
      ],
      "sequence": 4294967294
    }
  ],
  "vout": [
    {
      "value": 499978.6451,
      "n": 0,
      "scriptPubKey": {
        "asm": "1 c1e3f2327a8a1cac959a96b65a670f661eafc7c59b1311572fca3df44f9d15a2",
        "hex": "5120c1e3f2327a8a1cac959a96b65a670f661eafc7c59b1311572fca3df44f9d15a2",
        "reqSigs": 1,
        "type": "witness_v1_scripthash",
        "addresses": [
          "3QJmnh"
        ]
      }
    },
    {
      "value": 1.0,
      "n": 1,
      "scriptPubKey": {
        "asm": "OP_RETURN 5ccd4b943cae476ff57a2327cbce89b275d57a7392ff125500e538960d5c0b5e 75d7b8131aed1ae1d6afb8265518ccde69973e4adc8cc43751819fe5ca24d62d55f798333acd3ac1f68f98067538ecfe49b71e6afcace41771a1bfc5ea04f60d3597f8535aad5aa196eff86615588c9e29d77e0a9ccc847711c1dfa58a64966d15b7d8737a8d7a81b6cfd8463578acbe09f75e2abceca45731e1ff85aa44b64df55738939a6d9a61562f38a6d5984c5ee917beca5c0c44b7d1011f654aa456add57718b3ba4dba41760f1886f5b86c7ec9379eea7c2c6497f1213f456a84768db51778d3da2dda21166f78e695d80c1ea957fe8a1c4c04f791415f250ae416ed953758f3fa0dfa01364f58c6b5f82c3e8977deaa3c6c24d7b1617f052ac436cd75d7b8131aed1ae1d6afb8265518ccde69973e4adc8cc43751819fe5ca24d62d55f798333acd3ac1f68f98067538ecfe49b71e6afcace41771a1bfc5ea04f60d3597f8535aad5aa196eff86615588c9e29d77e0a9ccc847711c1dfa58a64966d15b7d8737a8d7a81b6cfd8463578acbe09f75e2abceca45731e1ff85aa44b64df55738939a6d9a61562f38a6d5984c5ee917beca5c0c44b7d1011f654aa456add57718b3ba4dba41760f1886f5b86c7ec9379eea7c2c6497f1213f456a84768db51778d3da2dda21166f78e695d80c1ea957fe8a1c4c04f791415f250ae416ed953758f3fa0dfa01364f58c6b5f82c3e8977deaa3c6c24d7b1617f052ac436cd75d7b8131aed1ae1d6afb8265518ccde69973e4adc8cc43751819fe5ca24d62d55f798333acd3ac1f68f98067538ecfe49b71e6afcace41771a1bfc5ea04f60d3597f8535aad5aa196eff86615588c9e29d77e0a9ccc847711c1dfa58a64966d15b7d8737a8d7a81b6cfd8463578acbe09f75e2abceca45731e1ff85aa44b64df55738939a6d9a61562f38a6d5984c5ee917beca5c0c44b7d1011f654aa456add57718b3ba4dba41760f1886f5b86c7ec9379eea7c2c6497f1213f456a84768db51778d3da2dda21166f78e695d80c1ea957fe8a1c4c04f791415f250ae416ed953758f3fa0dfa01364f58c6b5f82c3e8977deaa3c6c24d7b1617f052ac436cd75d7b8131aed1ae1d6afb8265518ccde69973e4adc8cc43751819fe5ca24d62d55f798333acd3ac1f68f98067538ecfe49b71e6afcace41771a1bfc5ea04f60d3597f8535aad5aa196eff86615588c9e29d77e0a9ccc847711c1dfa58a64966d15b7d8737a8d7a81b6cfd8463578acbe09f75e2abceca45731e1ff85aa44b64df55738939a6d9a61562f38a6d5984c5ee917beca5c0c44b7d1011f654aa456add57718b3ba4dba41760f1886f5b86c7ec9379eea7c2c6497f1213f456a84768db51778d3da2dda21166f78e695d80c1ea957fe8a1c4c04f791415f250ae416ed953758f3fa0dfa01364f58c6b5f82c3e8977deaa3c6c24d7b1617f052ac436cd75d7b8131aed1ae1d6afb8265518ccde69973e4adc8cc43751819fe5ca24d62d55f798333acd3ac1f68f98067538ecfe49b71e6afcace41771a1bfc5ea04f60d3597f8535aad5aa196eff86615588c9e29d77e0a9ccc847711c1dfa58a64966d15b7d8737a8d7a81b6cfd8463578acbe09f75e2abceca45731e1ff85aa44b64df55738939a6d9a61562f38a6d5984c5eb526d22b4de3613ef6c96af2161df6e1e1e21b4d4473ca48bf0ddd3d3b3dafab",
        "hex": "6a205ccd4b943cae476ff57a2327cbce89b275d57a7392ff125500e538960d5c0b5e4db00475d7b8131aed1ae1d6afb8265518ccde69973e4adc8cc43751819fe5ca24d62d55f798333acd3ac1f68f98067538ecfe49b71e6afcace41771a1bfc5ea04f60d3597f8535aad5aa196eff86615588c9e29d77e0a9ccc847711c1dfa58a64966d15b7d8737a8d7a81b6cfd8463578acbe09f75e2abceca45731e1ff85aa44b64df55738939a6d9a61562f38a6d5984c5ee917beca5c0c44b7d1011f654aa456add57718b3ba4dba41760f1886f5b86c7ec9379eea7c2c6497f1213f456a84768db51778d3da2dda21166f78e695d80c1ea957fe8a1c4c04f791415f250ae416ed953758f3fa0dfa01364f58c6b5f82c3e8977deaa3c6c24d7b1617f052ac436cd75d7b8131aed1ae1d6afb8265518ccde69973e4adc8cc43751819fe5ca24d62d55f798333acd3ac1f68f98067538ecfe49b71e6afcace41771a1bfc5ea04f60d3597f8535aad5aa196eff86615588c9e29d77e0a9ccc847711c1dfa58a64966d15b7d8737a8d7a81b6cfd8463578acbe09f75e2abceca45731e1ff85aa44b64df55738939a6d9a61562f38a6d5984c5ee917beca5c0c44b7d1011f654aa456add57718b3ba4dba41760f1886f5b86c7ec9379eea7c2c6497f1213f456a84768db51778d3da2dda21166f78e695d80c1ea957fe8a1c4c04f791415f250ae416ed953758f3fa0dfa01364f58c6b5f82c3e8977deaa3c6c24d7b1617f052ac436cd75d7b8131aed1ae1d6afb8265518ccde69973e4adc8cc43751819fe5ca24d62d55f798333acd3ac1f68f98067538ecfe49b71e6afcace41771a1bfc5ea04f60d3597f8535aad5aa196eff86615588c9e29d77e0a9ccc847711c1dfa58a64966d15b7d8737a8d7a81b6cfd8463578acbe09f75e2abceca45731e1ff85aa44b64df55738939a6d9a61562f38a6d5984c5ee917beca5c0c44b7d1011f654aa456add57718b3ba4dba41760f1886f5b86c7ec9379eea7c2c6497f1213f456a84768db51778d3da2dda21166f78e695d80c1ea957fe8a1c4c04f791415f250ae416ed953758f3fa0dfa01364f58c6b5f82c3e8977deaa3c6c24d7b1617f052ac436cd75d7b8131aed1ae1d6afb8265518ccde69973e4adc8cc43751819fe5ca24d62d55f798333acd3ac1f68f98067538ecfe49b71e6afcace41771a1bfc5ea04f60d3597f8535aad5aa196eff86615588c9e29d77e0a9ccc847711c1dfa58a64966d15b7d8737a8d7a81b6cfd8463578acbe09f75e2abceca45731e1ff85aa44b64df55738939a6d9a61562f38a6d5984c5ee917beca5c0c44b7d1011f654aa456add57718b3ba4dba41760f1886f5b86c7ec9379eea7c2c6497f1213f456a84768db51778d3da2dda21166f78e695d80c1ea957fe8a1c4c04f791415f250ae416ed953758f3fa0dfa01364f58c6b5f82c3e8977deaa3c6c24d7b1617f052ac436cd75d7b8131aed1ae1d6afb8265518ccde69973e4adc8cc43751819fe5ca24d62d55f798333acd3ac1f68f98067538ecfe49b71e6afcace41771a1bfc5ea04f60d3597f8535aad5aa196eff86615588c9e29d77e0a9ccc847711c1dfa58a64966d15b7d8737a8d7a81b6cfd8463578acbe09f75e2abceca45731e1ff85aa44b64df55738939a6d9a61562f38a6d5984c5eb526d22b4de3613ef6c96af2161df6e1e1e21b4d4473ca48bf0ddd3d3b3dafab",
        "type": "nulldata"
      }
    }
  ],
  "blockhash": "2c44072194b49e49486c87ae6b37abdd6c2c23e2c7b477f70371a1b5276080d1",
  "confirmations": 1,
  "time": 1764179865,
  "blocktime": 1764179865
}