{
  "hex": "0100000000010160beac6caa99c329c4327dce487e51e104badfc8e5956dca14eb613074812a500100000000feffffff0200e1f50500000000fdd5046a2046fb5f8516baca30bd3a99cafb352bf22b7e307c8da47939bee96a55913db64f4db004b989488ea071d00801756708bf1b75df0719f0033c317a044cf2c5492f5de77199a968ae8051f028215547289f3b55ff2739d0231c115a246cd2e5690f7dc751f9c908cee031904841352748ff5b359f4759b0437c713a440cb285096f1da731d9e928eec011b06861150768df7b15bf677990635c511a642c92a5294f3d87113909c80e20f1508881f5e7883f9bf55f87997083bcb1fa84cc7245c9afdd67f11929e82e00d170a8a1d5c7a81fbbd57fa7b950a39c91daa4ec5265e98ffd47d17949884e60b110c8c1b5a7c87fdbb51fc7d930c3fcf1bac48c320589ef9d27b15969a86e409130e8e19587e85ffb953fe7f910e3dcd19ae4ac1225a9cfbd0791b989488ea071d00801756708bf1b75df0719f0033c317a044cf2c5492f5de77199a968ae8051f028215547289f3b55ff2739d0231c115a246cd2e5690f7dc751f9c908cee031904841352748ff5b359f4759b0437c713a440cb285096f1da731d9e928eec011b06861150768df7b15bf677990635c511a642c92a5294f3d87113909c80e20f1508881f5e7883f9bf55f87997083bcb1fa84cc7245c9afdd67f11929e82e00d170a8a1d5c7a81fbbd57fa7b950a39c91daa4ec5265e98ffd47d17949884e60b110c8c1b5a7c87fdbb51fc7d930c3fcf1bac48c320589ef9d27b15969a86e409130e8e19587e85ffb953fe7f910e3dcd19ae4ac1225a9cfbd0791b989488ea071d00801756708bf1b75df0719f0033c317a044cf2c5492f5de77199a968ae8051f028215547289f3b55ff2739d0231c115a246cd2e5690f7dc751f9c908cee031904841352748ff5b359f4759b0437c713a440cb285096f1da731d9e928eec011b06861150768df7b15bf677990635c511a642c92a5294f3d87113909c80e20f1508881f5e7883f9bf55f87997083bcb1fa84cc7245c9afdd67f11929e82e00d170a8a1d5c7a81fbbd57fa7b950a39c91daa4ec5265e98ffd47d17949884e60b110c8c1b5a7c87fdbb51fc7d930c3fcf1bac48c320589ef9d27b15969a86e409130e8e19587e85ffb953fe7f910e3dcd19ae4ac1225a9cfbd0791b989488ea071d00801756708bf1b75df0719f0033c317a044cf2c5492f5de77199a968ae8051f028215547289f3b55ff2739d0231c115a246cd2e5690f7dc751f9c908cee031904841352748ff5b359f4759b0437c713a440cb285096f1da731d9e928eec011b06861150768df7b15bf677990635c511a642c92a5294f3d87113909c80e20f1508881f5e7883f9bf55f87997083bcb1fa84cc7245c9afdd67f11929e82e00d170a8a1d5c7a81fbbd57fa7b950a39c91daa4ec5265e98ffd47d17949884e60b110c8c1b5a7c87fdbb51fc7d930c3fcf1bac48c320589ef9d27b15969a86e409130e8e19587e85ffb953fe7f910e3dcd19ae4ac1225a9cfbd0791b989488ea071d00801756708bf1b75df0719f0033c317a044cf2c5492f5de77199a968ae8051f028215547289f3b55ff2739d0231c115a246cd2e5690f7dc751f9c908cee031904841352748ff5b359f4759b0437c713a440cb285096f1da731d9e928eec011b06861150768df7b15bf677990635c511a642c92a5294f3d87113909c80e20f1508881f5e7883f9bf55f0e09ca12291155652b8138e9502b9ddeb8c830babe07a07e6a7031a88ac6bdf68079ca95782d00002251200a907296102e9c23455110b7e42331b2a64b6ed756d44880e1af093c784bb55c02fd7509e8cf278e25b9cccda47a3e92b19fe831b26c8a658e3626c4a0614f1c87f6fcb330fea7993fba6d8e513756a9fb6aef2ef6ab6e04714d1e9d87d2a414f287c53a46bb9fbafcdb7f60a7f0147a5edf83a103e713875b3bd107d40bbe7d5e2f55a73c0ad8e8c4e6a519c0346d6dc75d691d69a86412b7724a96a104bbbc8fb33632c4359f5ffba19045538b4e828757033761827867156237f1da6b79cc7ba4ebb26fe1c3d50615b93a38eee859f441cd2e394d6d53832229ee8e00644ab61ade6bd80846d423d47e71323e77c13141ea304bbd50c7ccaf7a5b20d76c039b8f63ef7de596fd137087bf1c11f37b0a682ed5bcc02baf7304cf9faada833f6d375869e068f011350f9260fe530653d8b9d4b36d7bdc4125eacaaea09ccedd1b978cb1a452100054e62ae221614e451610976218d62890eaf2c5afaf15981a7db3c48c2e0dd4a58314038341ae15acaf9552c7ee8de3a916a5eb04d0fc04968a23edc10826dfdb5c7a7aa5a25517ae171d0c8f6d166fbb8cfe2c2e0966a831d148b7a48ac33b1ddf659d8dfaf39b8250eb6b8f791c71fb09870914466eda3e15962d8c51c9a52cf7479f29a2c69d2313fb2f2190226ac72eee656a1269d6b908037eb68eef235a0649466167ae132737aabdcd8a34a8e0c15c761c717cafd16646df6d12799a1350a521a7107fb165cca4a45d0120ca5c57edb45da0f0dc66e1e0b61443cb63601834ebcf09f1a1c6e7137a9f08bf1aa44b627e0d86ea9c74b1b18ec4c59e1555c8645bf1fa045929875d24a2c02d8df7acf4a3f5db7c918e4ca9f6b0f16723c6bd835116bfc0ec2e50fffe3bb54355a4c1c4a4528e3992f704a8826c9d75f99d32c31ff030b411eddcad1bc4ebd0a069ff0f06da03b36113d7792046d7fd9d514a8ae9625446731d3c75ee4bf7e654559e43911d9e36ce7931a6c632c804f587c166a89eb1e772286bee95ed1554aa74bfe663eb015207f1909c2897a93d8b4cf0928e26acea091dcc6c788af7a7951358911ab9925e4e1d2654dd3bca79cad3ea4188958f7fba933479d6e1d3ae3bf1dddfb4f25874c31a1c602d5993f26b054cdedd8ba769510c1b064169e8adda0d854165c511d9213859eacdd9e1f7becbbbe2ef9480bc6c2d3c97eab77f0c968f2a49309a7e6df8afd33267c48777a195acd9e52c28a59b1dccbb5ac0ef1c213fd99f11511b5ee3f4e91f0b75c2b7fc42f1b92acfb8049db69001e39e678ab620403a828ff384d70888c8a30cd2ea9f8fc6f1d906f78a6d73de995ea8745a7c0abb9c01a579c9e99d5f98b5d94e10ffcac95f0f8a145c380fae761193d9a36fdca374aa13d64e592053f333957a89fb19fdc66b87dbadf8039cdff14a058577867b5e1a913fa86065a048654788ab630a8412dd615b719f565c87453a7aa066d000cdd89f6a96af2909b3706d6a0c2156d01744d55f86b79f3a77162ab1d19120b02b7e0122d75f72df4496e24edb40e5b02e0f9010be62c9170e336b82fc119378a384f5b275e641d0a7e90b611caf0f56a7123459b314519a927569517de8a8e98d3038fd1ffbefa412bf1fc2a6841409b0656d3447f1b2673c45365e98dc0842e04bd0c5086f1559536e17afe8f35b8033da04cc80a5554a9dd487985b50cfda8b40b52ff89385395d0e5c801ee61a45cd02cc661c04e7435c04434f6df97f68985ea17746e7095fddf33cf9d05c2c7b7a2901e30c87eb01325068d62621332a5690cd32c04ae1aef52dce20861528a9be0ef44124ee00f87b33c7a941f4cee69fabc90127740ce6e1fccb2b2d61140015b05c95d0c0c479910d5eb8336f2176b02b1b5caf2042c050555dbecd45f0000e16cafdf36fceb0fc563e7d029992871576a7a6efbae56efd74d56eceffeb3a20c7ddad7e750fd06c4230e7a26f95dbdf90f36fe188ea68cd3308105e93748d7578ee1e01056e54db2aa7f4e657503411853144b248e78f21c4aad20baa48622d3961c7080ef5720fe3b62d0a623ebf50e89cdf06f17e6226515efe1d73a101224f8eeeec8160b8d2d466ce298c5bf6d45b1d0ff6395ae3d1c32384f7401f44b4e575ccd93a9e84c005c324324851a621bc34af2d33d6d58f0d28119d505c5ac22c452f3b183b2dd35f988416afb89e874a05c7f765d403cda568186a1a05cd1f15380ccc60b6175343b9493413632224f539798d25468cc012aea9cac8d05d683ae762e9580362f771cf7c35d65218610f44a91a4ec3a45929e245c93f7ec0db78b4ce128c2542192e65917919d9f5106b4f2c5c2aba4bd0906820c1c9324733e909f1e8b8fbc1fca8c19b70e7f59d856b424cd4cea46463a4a98341775cf96cd9698ecd72d50355641dfb5539d1c18be93e016af1f7051593c8bcdc5b56a0728dad1320d30194c5424fcc37e0fcc4480edb370cbf6fcc4632b029986c05f7476b93e9f81e5e1162bbe9623f8ae9e046c98a672f72c0507e27736f75b556dc6508b73b20e05c1964e3eb35d92006a9f8e0a0fa1f7e4988a0802330ca2e63de0e891107ca041d731adb5dfd634fab28a1a2626956d7ce05ee887c789e901c079faaece0ee3eb1501177d070435f8b0102ba9b998132813237ae942d603ac3e74d786487693894099f4266ac2602ce9162f91f97238a9d69f87ab43d325727032c6267d5b613aee45392a21e3241f41c9d006a76af9126b51635e5674a5516430315827b9b990673bc232b1ce90016e20304b116656fa2cdea33fe64858b147a270d5eeefa86e6a669d43a177b6a54c7891a303554b021a21a1f06df3bc5d55d2db518992b095652e5c0c73853cb79679acd620547d4b7f8d768e491f26838326cc0c68060abe55f42f82752cbc106cad1d135d967646ec6e03bbf001cefe4f6f351af61c3a6d31022be578085a1d4a38c677d4d15823d201a17304e702c62cf6d422942044302b2e475eeaf9b30cb70df4e45c4c3bc07f6b2fdbd91b42de21372cd16e42d723a358991176b71c4ac4de962b9028cb1c0b4fc9d8d67a258e2f34a67ddb041eeb7eb30cc9365f8372d11892908d3af1c1b0c6d562fc15ce51646d62924c61c1b0ef7ab3ec3910a76ac1866af7a63324b20b4a68eb505a63ee93423f73f2b7fe516172e9ffe7c96575a48fd53a1e24b981ca667832fdb4761288c441f604ae7c50537abf451e7fe2522bd210ea84003223924635d235ca311e73bcac8045fb10af9ccf8137ff7985a799af7b4c25f23aa3c0c2fdd5812425d922f7e7e4ca84a6253af3ca030b3f4511b484d6e61e863e6fdf3ef32240a1b56575a5f677b7d8f9399acb0b2bc020e1c3e3f4784a4a8c4c7cfd901021a202537445861848a95a1cdd3f6fd060b374c545e687f868c9ca4afc8d0dcddeef6f90000000000000000000000000000101d2e4201fd2105004c1554fcb35bb393308dd1753c2107bd90f99623f9eb03dfb70b425f294e02353729b15500deaad03ebeb4b57e5eebe39829a91b90179f4b683308532df06f5571ea312e9e78f1f47caa5f06a0c58569625d5095a3446ee5b5c905990bc8f6732335bd538088805b53b87a3bddeac902b0da24425d66f7f2ae112ad8f589d77c64681fa1fe8b77af4771a2ff9912fe494088ff7595c64a88e4b3005473339d074685b6eee20a9da4b0b3e1cdf450ad1c11296d6d2bd191d35d0c188410a262d78e1e18a091e7c7419bd8648924d5c4544732a3e90a3c13e4c378c0485aba874c01fb8d545b272c741acda305ef034ddd92f20e17fbee6d8004b8050256ecfcba1469a8b1c17cef633e1b92d3e0f8a07adb323ea199fead3e7edaec1c38ed0adc23b3516121565003e15ee27a2d17e109964d7b1aedd8dab093ee250715cbfceeeacade277c22313cebad678d87f624afd3994d326491136e9f5b90e592055f259d8342036be0346e4ebfb43ec3620628eafa728f41b95df0111247968144c7e312221c1d4f73e28d99d4bc85d0407b5eba3a1971b70dbdad8a008e1b14bc79ed128e5a06a96fef9802b6658c5dee4d55ce70beaa12acd98c25d2ed1ed625ae410b86bf9405579441c9e89c6da0bcec3c111849969ed3b6a7d95ddc3996627019d15cd5828fa530141f28ae6010e2b191bed405c6267820c4d127e7733ca4b452af09da7b658194b53fbf8c8544c21cd8a3c6580e284a40ba99e43d25363897aee0ca92d508e882d263b3333e7ec211320a6f5085ccda2f36ec03854a17cc0ddfafdbdc73e5305ec165f46c7e41a3b3c44ec03855097c5c2e3fa6533de7b16572a7f4fc0bb7798c056a0e4841dd55d3e5b3bc17f0e243002b9ced3edba6dbde6d7eb301c467254662a89b87b75b4479da7ca78e695e3bc1239e741480ed025ae4943f095153274989db85885e301c4ad854e9a2b200f89352384eaf7ea20ad16237ea075788cbb6c49eafe060e2eb33e3e3847d70f26f9eeedc4dd4d9b1a3b3953d115993e5eec02af6340df253d1662e6b5696bb602880386609f12601abef95e539f379add81932a3ec7e271b2ed5e7ad601ecee37940157f5864ded2159cfd6eeed62163bdb0be8610426b01249772a0bd13d2129872bc455d56da2bea54a3c12a13cdd9bf2e4eb16cf9050431b8a2d599a60f4b73c9f715880cb8073ddc381592912aed4a4c15ae939d2f023e20a8e4c8e8634d172b63be7bc2aa4d8c9e37e3edfe7917baf7ca3ac727ca72d7612ea1bb60caf93f0c189d4d3b220f62972103c68d2d6ef562e6ea463c7603a2079a41cb08d506fd01657458df38faa730180e530a912534dedcc960b45dd56981efd8226c46a3063de44bc4e271c2af2ce6605946c9644b08b3b0658213cb35e8864d103fc172b61525bfffbd2f34aafd70e63cd615b3b08979f56841b6ca8fc5e3ddc8dc6ae386d7a0fa6875804b255d879ae43c502dc0f0e0a9b94e5d94ce1c247f0b79af2ad7787479bdd79b3fd013a5da75b48a543686e063c12817e733b1d035bc8cf4f9e71287727e1d6ca5606b1892b583412cde0fb0988a8aeeaf646f531d7889fc27c8a21b1aabeb4c662be3457b6b141bc80c4929746dda4aadefb9aca12a332ba0d6e38e93a389f807e5864d3b3b1390f143cdc6d84449e0e0bd52671212690cb99abd88997a2ae382db28e16539cec32321d1fb81ef86f551876ef60e842deda982a71bfdaa0f8a91169cfc61f7decbd04f4dc37189270190d35ed897b3d34b0bbbe265554751addf2f16fe8e7d2851b0e30ae30106b571fac8673b8e410a2668322c816c90121bd057eaa88a000000",
  "txid": "635546e09782b0fa4abd79053c73259ff2212e2ef22886d0f0fc568a3c304043",
  "hash": "6d11c34c3c9d7173c38fac62ab342cce8e7233f6b5bfa8a71282096657131dde",
  "size": 5085,
  "vsize": 2278,
  "version": 1,
  "locktime": 138,
  "vin": [
    {
      "txid": "502a81743061eb14ca6d95e5c8dfba04e1517e48ce7d32c429c399aa6cacbe60",
      "vout": 1,
      "scriptSig": {
        "asm": "",
        "hex": ""
      },
      "txinwitness": [
        "e8cf278e25b9cccda47a3e92b19fe831b26c8a658e3626c4a0614f1c87f6fcb330fea7993fba6d8e513756a9fb6aef2ef6ab6e04714d1e9d87d2a414f287c53a46bb9fbafcdb7f60a7f0147a5edf83a103e713875b3bd107d40bbe7d5e2f55a73c0ad8e8c4e6a519c0346d6dc75d691d69a86412b7724a96a104bbbc8fb33632c4359f5ffba19045538b4e828757033761827867156237f1da6b79cc7ba4ebb26fe1c3d50615b93a38eee859f441cd2e394d6d53832229ee8e00644ab61ade6bd80846d423d47e71323e77c13141ea304bbd50c7ccaf7a5b20d76c039b8f63ef7de596fd137087bf1c11f37b0a682ed5bcc02baf7304cf9faada833f6d375869e068f011350f9260fe530653d8b9d4b36d7bdc4125eacaaea09ccedd1b978cb1a452100054e62ae221614e451610976218d62890eaf2c5afaf15981a7db3c48c2e0dd4a58314038341ae15acaf9552c7ee8de3a916a5eb04d0fc04968a23edc10826dfdb5c7a7aa5a25517ae171d0c8f6d166fbb8cfe2c2e0966a831d148b7a48ac33b1ddf659d8dfaf39b8250eb6b8f791c71fb09870914466eda3e15962d8c51c9a52cf7479f29a2c69d2313fb2f2190226ac72eee656a1269d6b908037eb68eef235a0649466167ae132737aabdcd8a34a8e0c15c761c717cafd16646df6d12799a1350a521a7107fb165cca4a45d0120ca5c57edb45da0f0dc66e1e0b61443cb63601834ebcf09f1a1c6e7137a9f08bf1aa44b627e0d86ea9c74b1b18ec4c59e1555c8645bf1fa045929875d24a2c02d8df7acf4a3f5db7c918e4ca9f6b0f16723c6bd835116bfc0ec2e50fffe3bb54355a4c1c4a4528e3992f704a8826c9d75f99d32c31ff030b411eddcad1bc4ebd0a069ff0f06da03b36113d7792046d7fd9d514a8ae9625446731d3c75ee4bf7e654559e43911d9e36ce7931a6c632c804f587c166a89eb1e772286bee95ed1554aa74bfe663eb015207f1909c2897a93d8b4cf0928e26acea091dcc6c788af7a7951358911ab9925e4e1d2654dd3bca79cad3ea4188958f7fba933479d6e1d3ae3bf1dddfb4f25874c31a1c602d5993f26b054cdedd8ba769510c1b064169e8adda0d854165c511d9213859eacdd9e1f7becbbbe2ef9480bc6c2d3c97eab77f0c968f2a49309a7e6df8afd33267c48777a195acd9e52c28a59b1dccbb5ac0ef1c213fd99f11511b5ee3f4e91f0b75c2b7fc42f1b92acfb8049db69001e39e678ab620403a828ff384d70888c8a30cd2ea9f8fc6f1d906f78a6d73de995ea8745a7c0abb9c01a579c9e99d5f98b5d94e10ffcac95f0f8a145c380fae761193d9a36fdca374aa13d64e592053f333957a89fb19fdc66b87dbadf8039cdff14a058577867b5e1a913fa86065a048654788ab630a8412dd615b719f565c87453a7aa066d000cdd89f6a96af2909b3706d6a0c2156d01744d55f86b79f3a77162ab1d19120b02b7e0122d75f72df4496e24edb40e5b02e0f9010be62c9170e336b82fc119378a384f5b275e641d0a7e90b611caf0f56a7123459b314519a927569517de8a8e98d3038fd1ffbefa412bf1fc2a6841409b0656d3447f1b2673c45365e98dc0842e04bd0c5086f1559536e17afe8f35b8033da04cc80a5554a9dd487985b50cfda8b40b52ff89385395d0e5c801ee61a45cd02cc661c04e7435c04434f6df97f68985ea17746e7095fddf33cf9d05c2c7b7a2901e30c87eb01325068d62621332a5690cd32c04ae1aef52dce20861528a9be0ef44124ee00f87b33c7a941f4cee69fabc90127740ce6e1fccb2b2d61140015b05c95d0c0c479910d5eb8336f2176b02b1b5caf2042c050555dbecd45f0000e16cafdf36fceb0fc563e7d029992871576a7a6efbae56efd74d56eceffeb3a20c7ddad7e750fd06c4230e7a26f95dbdf90f36fe188ea68cd3308105e93748d7578ee1e01056e54db2aa7f4e657503411853144b248e78f21c4aad20baa48622d3961c7080ef5720fe3b62d0a623ebf50e89cdf06f17e6226515efe1d73a101224f8eeeec8160b8d2d466ce298c5bf6d45b1d0ff6395ae3d1c32384f7401f44b4e575ccd93a9e84c005c324324851a621bc34af2d33d6d58f0d28119d505c5ac22c452f3b183b2dd35f988416afb89e874a05c7f765d403cda568186a1a05cd1f15380ccc60b6175343b9493413632224f539798d25468cc012aea9cac8d05d683ae762e9580362f771cf7c35d65218610f44a91a4ec3a45929e245c93f7ec0db78b4ce128c2542192e65917919d9f5106b4f2c5c2aba4bd0906820c1c9324733e909f1e8b8fbc1fca8c19b70e7f59d856b424cd4cea46463a4a98341775cf96cd9698ecd72d50355641dfb5539d1c18be93e016af1f7051593c8bcdc5b56a0728dad1320d30194c5424fcc37e0fcc4480edb370cbf6fcc4632b029986c05f7476b93e9f81e5e1162bbe9623f8ae9e046c98a672f72c0507e27736f75b556dc6508b73b20e05c1964e3eb35d92006a9f8e0a0fa1f7e4988a0802330ca2e63de0e891107ca041d731adb5dfd634fab28a1a2626956d7ce05ee887c789e901c079faaece0ee3eb1501177d070435f8b0102ba9b998132813237ae942d603ac3e74d786487693894099f4266ac2602ce9162f91f97238a9d69f87ab43d325727032c6267d5b613aee45392a21e3241f41c9d006a76af9126b51635e5674a5516430315827b9b990673bc232b1ce90016e20304b116656fa2cdea33fe64858b147a270d5eeefa86e6a669d43a177b6a54c7891a303554b021a21a1f06df3bc5d55d2db518992b095652e5c0c73853cb79679acd620547d4b7f8d768e491f26838326cc0c68060abe55f42f82752cbc106cad1d135d967646ec6e03bbf001cefe4f6f351af61c3a6d31022be578085a1d4a38c677d4d15823d201a17304e702c62cf6d422942044302b2e475eeaf9b30cb70df4e45c4c3bc07f6b2fdbd91b42de21372cd16e42d723a358991176b71c4ac4de962b9028cb1c0b4fc9d8d67a258e2f34a67ddb041eeb7eb30cc9365f8372d11892908d3af1c1b0c6d562fc15ce51646d62924c61c1b0ef7ab3ec3910a76ac1866af7a63324b20b4a68eb505a63ee93423f73f2b7fe516172e9ffe7c96575a48fd53a1e24b981ca667832fdb4761288c441f604ae7c50537abf451e7fe2522bd210ea84003223924635d235ca311e73bcac8045fb10af9ccf8137ff7985a799af7b4c25f23aa3c0c2fdd5812425d922f7e7e4ca84a6253af3ca030b3f4511b484d6e61e863e6fdf3ef32240a1b56575a5f677b7d8f9399acb0b2bc020e1c3e3f4784a4a8c4c7cfd901021a202537445861848a95a1cdd3f6fd060b374c545e687f868c9ca4afc8d0dcddeef6f90000000000000000000000000000101d2e4201",
        "004c1554fcb35bb393308dd1753c2107bd90f99623f9eb03dfb70b425f294e02353729b15500deaad03ebeb4b57e5eebe39829a91b90179f4b683308532df06f5571ea312e9e78f1f47caa5f06a0c58569625d5095a3446ee5b5c905990bc8f6732335bd538088805b53b87a3bddeac902b0da24425d66f7f2ae112ad8f589d77c64681fa1fe8b77af4771a2ff9912fe494088ff7595c64a88e4b3005473339d074685b6eee20a9da4b0b3e1cdf450ad1c11296d6d2bd191d35d0c188410a262d78e1e18a091e7c7419bd8648924d5c4544732a3e90a3c13e4c378c0485aba874c01fb8d545b272c741acda305ef034ddd92f20e17fbee6d8004b8050256ecfcba1469a8b1c17cef633e1b92d3e0f8a07adb323ea199fead3e7edaec1c38ed0adc23b3516121565003e15ee27a2d17e109964d7b1aedd8dab093ee250715cbfceeeacade277c22313cebad678d87f624afd3994d326491136e9f5b90e592055f259d8342036be0346e4ebfb43ec3620628eafa728f41b95df0111247968144c7e312221c1d4f73e28d99d4bc85d0407b5eba3a1971b70dbdad8a008e1b14bc79ed128e5a06a96fef9802b6658c5dee4d55ce70beaa12acd98c25d2ed1ed625ae410b86bf9405579441c9e89c6da0bcec3c111849969ed3b6a7d95ddc3996627019d15cd5828fa530141f28ae6010e2b191bed405c6267820c4d127e7733ca4b452af09da7b658194b53fbf8c8544c21cd8a3c6580e284a40ba99e43d25363897aee0ca92d508e882d263b3333e7ec211320a6f5085ccda2f36ec03854a17cc0ddfafdbdc73e5305ec165f46c7e41a3b3c44ec03855097c5c2e3fa6533de7b16572a7f4fc0bb7798c056a0e4841dd55d3e5b3bc17f0e243002b9ced3edba6dbde6d7eb301c467254662a89b87b75b4479da7ca78e695e3bc1239e741480ed025ae4943f095153274989db85885e301c4ad854e9a2b200f89352384eaf7ea20ad16237ea075788cbb6c49eafe060e2eb33e3e3847d70f26f9eeedc4dd4d9b1a3b3953d115993e5eec02af6340df253d1662e6b5696bb602880386609f12601abef95e539f379add81932a3ec7e271b2ed5e7ad601ecee37940157f5864ded2159cfd6eeed62163bdb0be8610426b01249772a0bd13d2129872bc455d56da2bea54a3c12a13cdd9bf2e4eb16cf9050431b8a2d599a60f4b73c9f715880cb8073ddc381592912aed4a4c15ae939d2f023e20a8e4c8e8634d172b63be7bc2aa4d8c9e37e3edfe7917baf7ca3ac727ca72d7612ea1bb60caf93f0c189d4d3b220f62972103c68d2d6ef562e6ea463c7603a2079a41cb08d506fd01657458df38faa730180e530a912534dedcc960b45dd56981efd8226c46a3063de44bc4e271c2af2ce6605946c9644b08b3b0658213cb35e8864d103fc172b61525bfffbd2f34aafd70e63cd615b3b08979f56841b6ca8fc5e3ddc8dc6ae386d7a0fa6875804b255d879ae43c502dc0f0e0a9b94e5d94ce1c247f0b79af2ad7787479bdd79b3fd013a5da75b48a543686e063c12817e733b1d035bc8cf4f9e71287727e1d6ca5606b1892b583412cde0fb0988a8aeeaf646f531d7889fc27c8a21b1aabeb4c662be3457b6b141bc80c4929746dda4aadefb9aca12a332ba0d6e38e93a389f807e5864d3b3b1390f143cdc6d84449e0e0bd52671212690cb99abd88997a2ae382db28e16539cec32321d1fb81ef86f551876ef60e842deda982a71bfdaa0f8a91169cfc61f7decbd04f4dc37189270190d35ed897b3d34b0bbbe265554751addf2f16fe8e7d2851b0e30ae30106b571fac8673b8e410a2668322c816c90121bd057eaa8"
      ],
      "sequence": 4294967294
    }
  ],
  "vout": [
    {
      "value": 1.0,
      "n": 0,
      "scriptPubKey": {
        "asm": "OP_RETURN 46fb5f8516baca30bd3a99cafb352bf22b7e307c8da47939bee96a55913db64f b989488ea071d00801756708bf1b75df0719f0033c317a044cf2c5492f5de77199a968ae8051f028215547289f3b55ff2739d0231c115a246cd2e5690f7dc751f9c908cee031904841352748ff5b359f4759b0437c713a440cb285096f1da731d9e928eec011b06861150768df7b15bf677990635c511a642c92a5294f3d87113909c80e20f1508881f5e7883f9bf55f87997083bcb1fa84cc7245c9afdd67f11929e82e00d170a8a1d5c7a81fbbd57fa7b950a39c91daa4ec5265e98ffd47d17949884e60b110c8c1b5a7c87fdbb51fc7d930c3fcf1bac48c320589ef9d27b15969a86e409130e8e19587e85ffb953fe7f910e3dcd19ae4ac1225a9cfbd0791b989488ea071d00801756708bf1b75df0719f0033c317a044cf2c5492f5de77199a968ae8051f028215547289f3b55ff2739d0231c115a246cd2e5690f7dc751f9c908cee031904841352748ff5b359f4759b0437c713a440cb285096f1da731d9e928eec011b06861150768df7b15bf677990635c511a642c92a5294f3d87113909c80e20f1508881f5e7883f9bf55f87997083bcb1fa84cc7245c9afdd67f11929e82e00d170a8a1d5c7a81fbbd57fa7b950a39c91daa4ec5265e98ffd47d17949884e60b110c8c1b5a7c87fdbb51fc7d930c3fcf1bac48c320589ef9d27b15969a86e409130e8e19587e85ffb953fe7f910e3dcd19ae4ac1225a9cfbd0791b989488ea071d00801756708bf1b75df0719f0033c317a044cf2c5492f5de77199a968ae8051f028215547289f3b55ff2739d0231c115a246cd2e5690f7dc751f9c908cee031904841352748ff5b359f4759b0437c713a440cb285096f1da731d9e928eec011b06861150768df7b15bf677990635c511a642c92a5294f3d87113909c80e20f1508881f5e7883f9bf55f87997083bcb1fa84cc7245c9afdd67f11929e82e00d170a8a1d5c7a81fbbd57fa7b950a39c91daa4ec5265e98ffd47d17949884e60b110c8c1b5a7c87fdbb51fc7d930c3fcf1bac48c320589ef9d27b15969a86e409130e8e19587e85ffb953fe7f910e3dcd19ae4ac1225a9cfbd0791b989488ea071d00801756708bf1b75df0719f0033c317a044cf2c5492f5de77199a968ae8051f028215547289f3b55ff2739d0231c115a246cd2e5690f7dc751f9c908cee031904841352748ff5b359f4759b0437c713a440cb285096f1da731d9e928eec011b06861150768df7b15bf677990635c511a642c92a5294f3d87113909c80e20f1508881f5e7883f9bf55f87997083bcb1fa84cc7245c9afdd67f11929e82e00d170a8a1d5c7a81fbbd57fa7b950a39c91daa4ec5265e98ffd47d17949884e60b110c8c1b5a7c87fdbb51fc7d930c3fcf1bac48c320589ef9d27b15969a86e409130e8e19587e85ffb953fe7f910e3dcd19ae4ac1225a9cfbd0791b989488ea071d00801756708bf1b75df0719f0033c317a044cf2c5492f5de77199a968ae8051f028215547289f3b55ff2739d0231c115a246cd2e5690f7dc751f9c908cee031904841352748ff5b359f4759b0437c713a440cb285096f1da731d9e928eec011b06861150768df7b15bf677990635c511a642c92a5294f3d87113909c80e20f1508881f5e7883f9bf55f0e09ca12291155652b8138e9502b9ddeb8c830babe07a07e6a7031a88ac6bdf6",
        "hex": "6a2046fb5f8516baca30bd3a99cafb352bf22b7e307c8da47939bee96a55913db64f4db004b989488ea071d00801756708bf1b75df0719f0033c317a044cf2c5492f5de77199a968ae8051f028215547289f3b55ff2739d0231c115a246cd2e5690f7dc751f9c908cee031904841352748ff5b359f4759b0437c713a440cb285096f1da731d9e928eec011b06861150768df7b15bf677990635c511a642c92a5294f3d87113909c80e20f1508881f5e7883f9bf55f87997083bcb1fa84cc7245c9afdd67f11929e82e00d170a8a1d5c7a81fbbd57fa7b950a39c91daa4ec5265e98ffd47d17949884e60b110c8c1b5a7c87fdbb51fc7d930c3fcf1bac48c320589ef9d27b15969a86e409130e8e19587e85ffb953fe7f910e3dcd19ae4ac1225a9cfbd0791b989488ea071d00801756708bf1b75df0719f0033c317a044cf2c5492f5de77199a968ae8051f028215547289f3b55ff2739d0231c115a246cd2e5690f7dc751f9c908cee031904841352748ff5b359f4759b0437c713a440cb285096f1da731d9e928eec011b06861150768df7b15bf677990635c511a642c92a5294f3d87113909c80e20f1508881f5e7883f9bf55f87997083bcb1fa84cc7245c9afdd67f11929e82e00d170a8a1d5c7a81fbbd57fa7b950a39c91daa4ec5265e98ffd47d17949884e60b110c8c1b5a7c87fdbb51fc7d930c3fcf1bac48c320589ef9d27b15969a86e409130e8e19587e85ffb953fe7f910e3dcd19ae4ac1225a9cfbd0791b989488ea071d00801756708bf1b75df0719f0033c317a044cf2c5492f5de77199a968ae8051f028215547289f3b55ff2739d0231c115a246cd2e5690f7dc751f9c908cee031904841352748ff5b359f4759b0437c713a440cb285096f1da731d9e928eec011b06861150768df7b15bf677990635c511a642c92a5294f3d87113909c80e20f1508881f5e7883f9bf55f87997083bcb1fa84cc7245c9afdd67f11929e82e00d170a8a1d5c7a81fbbd57fa7b950a39c91daa4ec5265e98ffd47d17949884e60b110c8c1b5a7c87fdbb51fc7d930c3fcf1bac48c320589ef9d27b15969a86e409130e8e19587e85ffb953fe7f910e3dcd19ae4ac1225a9cfbd0791b989488ea071d00801756708bf1b75df0719f0033c317a044cf2c5492f5de77199a968ae8051f028215547289f3b55ff2739d0231c115a246cd2e5690f7dc751f9c908cee031904841352748ff5b359f4759b0437c713a440cb285096f1da731d9e928eec011b06861150768df7b15bf677990635c511a642c92a5294f3d87113909c80e20f1508881f5e7883f9bf55f87997083bcb1fa84cc7245c9afdd67f11929e82e00d170a8a1d5c7a81fbbd57fa7b950a39c91daa4ec5265e98ffd47d17949884e60b110c8c1b5a7c87fdbb51fc7d930c3fcf1bac48c320589ef9d27b15969a86e409130e8e19587e85ffb953fe7f910e3dcd19ae4ac1225a9cfbd0791b989488ea071d00801756708bf1b75df0719f0033c317a044cf2c5492f5de77199a968ae8051f028215547289f3b55ff2739d0231c115a246cd2e5690f7dc751f9c908cee031904841352748ff5b359f4759b0437c713a440cb285096f1da731d9e928eec011b06861150768df7b15bf677990635c511a642c92a5294f3d87113909c80e20f1508881f5e7883f9bf55f0e09ca12291155652b8138e9502b9ddeb8c830babe07a07e6a7031a88ac6bdf6",
        "type": "nulldata"
      }
    },
    {
      "value": 499959.324,
      "n": 1,
      "scriptPubKey": {
        "asm": "1 0a907296102e9c23455110b7e42331b2a64b6ed756d44880e1af093c784bb55c",
        "hex": "51200a907296102e9c23455110b7e42331b2a64b6ed756d44880e1af093c784bb55c",
        "reqSigs": 1,
        "type": "witness_v1_scripthash",
        "addresses": [
          "3QJmnh"
        ]
      }
    }
  ],
  "blockhash": "394f302ff1829b8db869c98f7b64fb5f27cc2b50e933cff1e5bbeae34fa68a80",
  "confirmations": 1,
  "time": 1764183654,
  "blocktime": 1764183654
}