{
  "hex": "01000000000101dcbf1af74075debca546d79280047d788f39b44d32703fa579edcb0827ad528b0100000000feffffff0200e1f50500000000fdd5046a20bfde6522f99eea4f70c1aacaceaa517f94a7ac7dd3a2a7f4727abd9f74d1e3c94db0044c006bfbd118850e62454bff75cd26e0d18bc648287e12857eb2210c472bc1166c204bdbf138a52e42656bdf55ed06c0f1abe668085e32a55e92012c670be1360c402bbb9158c54e22050bbf358d66a091cb8608683e52c53ef2614c076b81562c600b9bb178e56e02252b9f15ad4680b1eba628481e72e51ed2416c274ba176cc80eb7b5198058ee2c5cb7ff54da660510b46c8a8fe9205fe32a18cc7ab4196eca0cb5b71b825aec2e5eb5fd56d8640712b66e888deb225de1281ace78b61b68cc0ab3b11d845cea2858b3fb50de620114b0688e8bed245be72e1cc87eb01d6ace08b1b31f865ee82a5ab1f952dc600316b26a8c89ef2659e52c1eca7cb21f64c006bfbd118850e62454bff75cd26e0d18bc648287e12857eb2210c472bc1166c204bdbf138a52e42656bdf55ed06c0f1abe668085e32a55e92012c670be1360c402bbb9158c54e22050bbf358d66a091cb8608683e52c53ef2614c076b81562c600b9bb178e56e02252b9f15ad4680b1eba628481e72e51ed2416c274ba176cc80eb7b5198058ee2c5cb7ff54da660510b46c8a8fe9205fe32a18cc7ab4196eca0cb5b71b825aec2e5eb5fd56d8640712b66e888deb225de1281ace78b61b68cc0ab3b11d845cea2858b3fb50de620114b0688e8bed245be72e1cc87eb01d6ace08b1b31f865ee82a5ab1f952dc600316b26a8c89ef2659e52c1eca7cb21f64c006bfbd118850e62454bff75cd26e0d18bc648287e12857eb2210c472bc1166c204bdbf138a52e42656bdf55ed06c0f1abe668085e32a55e92012c670be1360c402bbb9158c54e22050bbf358d66a091cb8608683e52c53ef2614c076b81562c600b9bb178e56e02252b9f15ad4680b1eba628481e72e51ed2416c274ba176cc80eb7b5198058ee2c5cb7ff54da660510b46c8a8fe9205fe32a18cc7ab4196eca0cb5b71b825aec2e5eb5fd56d8640712b66e888deb225de1281ace78b61b68cc0ab3b11d845cea2858b3fb50de620114b0688e8bed245be72e1cc87eb01d6ace08b1b31f865ee82a5ab1f952dc600316b26a8c89ef2659e52c1eca7cb21f64c006bfbd118850e62454bff75cd26e0d18bc648287e12857eb2210c472bc1166c204bdbf138a52e42656bdf55ed06c0f1abe668085e32a55e92012c670be1360c402bbb9158c54e22050bbf358d66a091cb8608683e52c53ef2614c076b81562c600b9bb178e56e02252b9f15ad4680b1eba628481e72e51ed2416c274ba176cc80eb7b5198058ee2c5cb7ff54da660510b46c8a8fe9205fe32a18cc7ab4196eca0cb5b71b825aec2e5eb5fd56d8640712b66e888deb225de1281ace78b61b68cc0ab3b11d845cea2858b3fb50de620114b0688e8bed245be72e1cc87eb01d6ace08b1b31f865ee82a5ab1f952dc600316b26a8c89ef2659e52c1eca7cb21f64c006bfbd118850e62454bff75cd26e0d18bc648287e12857eb2210c472bc1166c204bdbf138a52e42656bdf55ed06c0f1abe668085e32a55e92012c670be1360c402bbb9158c54e22050bbf358d66a091cb8608683e52c53ef2614c076b81562c600b9bb178e56e02252b9f15ad4680b1eba628481e72e51ed2416c274ba176cc80eb7b5198058ee2c5cb7ff54da660d3dc939466351f8aab5b411c3b0f89762a918ba52fca768579c74d7c12eea809c0cc030f792d0000225120749d98a3f917795405d32acb768f4a58a969573ce866ed7e6d0dd34e39ab9d9802fd75092cbb9aac430a3bbeca83cfb649174c35d3aff0112ba33b6dec07ebe0fed414099d8a4604cc7bba2fad4f266a8914435fc0dd6fca7bec065f203409da0cdff0df66c0200626d95159f5f8f3e3862089a1ea4c0e12989a56903b57ab507f8768a4808d52fd901cf855b58a77cbec5ae3eb01dd9532a8149e53fbc7af10d1b167d71be9496764bf1a150c6eef0cf359993c5e3719e29ff625b051280394f585ae9393476324be6f8c64079cdbd77d3f8c9c6f78ada18a1da21b810856ae5fe80e430b1ccf5a447a36ca6c1da78a3e8fb706d1569c9542b5339d01cf68f97df96a7a7308c6f00f82a9e6745581a88300a0942ca64bb81c1fde9e705636dab121fdfee4ce58da0fc91dfc0073f977a6795ef0ff10cec62f0282b25916b47c2a77b61204902fdd6351227a83ac88d15f3348ed5b426cf880ba37378b02efe576b1b3104388c4cc6015f7c5e68ee03a70e581631d73ce4e74579b26dfc04e020d03548f53cbb94ce2f95b6aad8919b76de5a12655c492228fb32cf59be68464c626f488f0b8b4b52f53f5d70032b89fd07edfacf814c6dd1d2ac7b653defaad053d7c317b1ff644a332a01a10286f71d362a30c4b2b8f1c6e1a3371d10095c4a3ca01416980a56ea5d67fef49c94c8e2e3a9dd7eb031aedd64e9b21506fde304e00d4351344489a09ee7ff0ec3adb921bd3702206d5792d874a3e1abe29fc6b28704f7a947a863377339fc443fbd3d05673f4e5f927093484865b76a4642bfe32f37ffa733ebfc042c247ed4d20bafcac89e1ae7ff39909d03645f5111572abdbde9b5b94dde99f246cdf9a2a0ce273c480a21c69bb91e90d25640a55ec0dbdbd8199a1382c465e0c0dfa56da9b85118d33a8f5f987dd5ab99f0464e0a09b92bde4e5af2e7ee809c2f45a294d5726a771b59edf29927f94c4152ae02e8b66f65415fa40361470720d5da2a6938167d1f1f664bddb035ad45c277a15f70c9b2f947dbcacb069a18179f8f10b0b349575dbf203c6456463752cfe791cbac29e01d35f69710acb29ba2b861246c8e3a216dd0715e731c817daeceb4b44cf9b88934aa2b2d03ae17c9097c4bb426f50bacf82262ea7db6e5397e96b79b3fc03a2b96a2ccf56776624adbe8be66df7d12a2653221beb931ff11b8afba1fd600b7e110576e2679e151ec886cba5cf11b1624d251bc4c5dbb135e3f00235bb60a4603365990b1582678b08f4fe21084d700cc3734ae36a6248ba9b2aac8180864b2e36d3dcee81c9e945f1ffdca415570d1f3804f1414cbf522d245ed8b866574e72b3ffa25b4b8aa9692a17be5417b809910bac3bb4b955cfea4c939debf5287cc32031335867d21bb7df0565bbcd0a69c4a7e07df092331a3c83e70e0c1d30b466ff5477bddab173fae9be2b0f27bcd297b94035650f83cc7549e216a1aa24ed0864d575733a91da5708de8938db5c509f6e3c691fc85b99f42d98788640b43e994396c00dce44ed9627b5ee3e4e6e25b009e35750770c01b35c2489e612ef231465210b08439988fe16fccf81f9ead2fffbcfd74558bd08f57e1b2530f305b265fa73a3ae1e029f9ae93a4feb39cd6fb25fbaa54b18767a265d8c631525bb8b50ece3e2b9950679c779b52b96d616fe3692bf8c2b60e59419559e015442beb968a8c88f4be0ee736f7e75cd8b8a4263c211e6dcefd1c364174b5e01dd73845c2bbd0e6701ddf852f745da1ee87699c6f2f5a692484418ec682e1b57818bc09d181f5e33121f6313a2f3cbb996ea124f69c80f69ea00ec79a708a16423c5bff18c466379ba6b0025c2a19074940997f7b10ac93d870c30488a7e88d1272d5d041ed925aca3fc0002cd37ed4006d2cd8d02e10cab2db7037ead6b34471291b7a9790ce551ed2497f4e8a22959e005c2c3d22dc256132a3a0118d679c67d3524ae168a1bfbbdd6d58bf6210d9a831a6cc2bb15933e571175676a7d2269fd13cc5337ee176e8642cbd345240871fff97a9e965681199c3d39a92dd6e08434c1467a0b3716c2a7cb1790b4fea92ca3dd85ebe4569f8d06eb2dc6413cd43fe34267bc1f1560a0da53daaa72c665e992f338827d450befa1bdbd32c8532249d4d07d10f116b6e7446d8ba43f186761b63c785af3909e395444907b62402b74b0e93dc58f4959ea5a07204d21990389d2b16d154200c45422686e1ab2c3df71177fd2dbdb77cc1c9a56ef659ff6231a678f643d4d521d68ac4523c1153bfd3c272196b6a5aae8278b9d8c70735e6d09e6b37111b9681fcd6eb19bbff8422b08dfa142d458a8aaed20a6d9b248b9433d3bfdee076e9e2da8d39852d347d50df93e304225d0fb9eef9ae1dfb124ca2aa229e4120029338e634d21ad02fde19e13f9c4cc8d83f19c6aa87a70112398bb3dd91c522727e6130457542e13702315b8f273333b6ed488b7999dfab2989827e9c501c2c1d637b34b47b1e76cda558f9ca5284857532c334261584842b1d21d4d83a9a5fa940bacc868e1946a3a43ad4dbaebb1aeeaa6b99cb102856786c504389012439ce93591e48267d1508306e72e7f91940003a5cc56ae2d0134d84eaada4c47150e2c5ae03b340cf76b70cd33031b83562fbfe327f5e8a94d2bff8d9bfe08d3a9b7f9cfff1a217aaec86511b8fd1cad7b4fa6ffc0a2a9dea83be1d565e6640a5b20090131ae85ee9863966a4226c43e17d1986660c96a73c722dfdaf42b943396d82bafd55edeacf1341de43cbc5c76f485a7c13fdc920836db1138559c854577723c9e2148b377246a1e09ac832acdca27eb8607cb8ac839dd7810567976d00235ec22cbf937bc3e3c0b5a4b5e15c5f8b5e56707eae1eb5d84a02e907c7ffe15fa8429aa8a23b902609d25f3917fbc5f5c7077684eceaafb4c274478bad172100bd94d1521f88f4f206742e7963280f4d60e13666cef06da84b99bd22b3d4b59824400f9610d3f96cfa5abb120e70924d449e67c44d7cac3ae9440e86c07c64c665288adba17cb36eff6b093ec09cf1a54c01ee2cf78b271b8fd28da0f7492e07ae22033b25741bc5ac71718a51cea1889aec014bb4966de15446d0f3a5cd56d597f372f4ff2d656b993c2296007345578b4b9666cb674f55d7fcf28aae923114a16c0e4a849ab25fd94ea5db8a46ee1cf4130c62d6b9dc6e847f02dbc41663f1c22bba4c550cecf0c56a7d317d81e7ab4bcc23e9b2ad7a6c1131f40a8c24e49cd06e61d72a63cf2e0978af9c90431b5216bb64403bba6aea51c5910757aa5c4da86d22f84c21e35e5b6d4bc5c95b0df674ce8cff860730918343542636894a3c7d1e901070d123653676c6d6e71949fbcc8cadfe905383c434e597f859ca8eef7fc031f263252557f859aa3bbbdc7c8ee000000000000000000000000000000000000000000000c1e2b3a01fd2105009e11186bb3619384f60819d717b9a1540c9a1b34a70deda7660331ad89f49246db4d7b74f21d95f08639931b2bc968786b0dc2dedc9ee75ab3db6ff55369dd09240468041905478fddad62b4303373b5b1490fe3c36d71e187747a52327c645380dd1211d3cf8c553b9c8a049a8c0a2c5b4831ad74952916ffacef4799fa55d608de3ece09cafc6cadc83e9c2f9df86ea8ad49c539e453ddc429822e2d8ab86c868f04c4e89166f74921a9b9737a458ef10926eaadc15288b520b115bf392dc223d58022d9076939dc7dbc346e86c6709ef1cbc1b478a915148454acc07122736de7374faa6f0daedaa806ad3f5b08a384ffae463dea764f13b03bc1d12ebd885ebe6bd64994eae577cebb188f27d727db3edf04733d8f32608d155e5daccbeefe66a847980bece242fec51bcade82bd2e3da17fc982ec34a073f0f56cd1baa76f9acb813bb170759232729bc04dfdebd46e19d9883deb3780d112c8cf8604a16c15a564426714497ff79abe7bbfa0ef71e664d5967d3455a7ee0b1f636d7bc63d82f841dbf9d037d4c477038f12a607eb781d4cb3f696fb7338d42901e6012b7b367a2b4d4c1239982144618af3b8d1a9024674f0b4d75b1598b29aac21ff8c7824f256b608825a76695e95c36cf9dfab24bf871d83d9ac1585e951fdfb6017ab9334c416caa10e7133bdf159365cb34795fea14513cef90043d2310b7a0bcd3af4577422f406b084c978bd27a6cb6f75a289d4f1b2443fc30a6e2335c2a82b55e6b1e8e34f4a82667e100351ebf18119f8a6dbab7f2679cfc7c73f69224897c87ae440adadd5d70bb94400f98dded3efbc72bea5c63bfe731a7e44abcd3a3ad2ffd04df9ae4382b29a983963b694cec13ff16017fda322272a27ade2949f52cc9a313818476585b500e6dedd3ec0aa13f0c6ee951ccc45db55e98d7dbe19af3bbe704fcf9346c68509a456832029ae1cf979a7d81eac5164d75385bca363b7ef6a040b1269e2d93c3259dbf5939eab0e42d46e2a76345684b7fc99079043fbd4698d75118727bfd0e38ab4bb5e31eef725fdeb52629057c5ca4a4a813b74dc962f0fbd0e2f43ced2f19eac7ddba88bb5820eec541a6cd937d6e4a7709addd67128a9bf68fa1a6421f95232ce2874df12babfc85d1e664480d7e1de75138aae3e13a5b6b7185b03b1977e8d0fe05b03e246dcf0163e5fa8912bf28a5565874b0157baa975aa6d4bbf5e6e67ae2fa88e5b6b5da00a3de7278475831fe47adf7216f5e30645ac87faa558223673b36a9b8174ad5854cbbc2f7ea243196bc371188b674e4230f5371a8215ce0e243b80e5bc98c5fbec623b58dd965003daa7a89a4298e78a20f9b060619c8842abc138b50eaf31f71ee0bdb3e19429aeeebfd05e01eeab1b38b9da7d71a1cc97f4cd3c7db1a22cfd5b95c21741a613bde9559d28ceff19bb57dd6cf268f9a3280d74bc981069c02d949b325edc60a843a0eb57d638a4c99a20b20b6df35891d416656d2fd49e870f7157bb78fafae43cec9c5e42d41d0fcdd698914c8bce70d6eeda21ff7a66ff641882ee985106c58bf76313985347bd4759176bb0ade78cf004c3981a8a05bd6649cf3d031a1b0bee2729bed8b0c5836d4a4324628af5db5ffd480c595f825d5aabd96a01185a1ab65f683dc836f9310635e818268f8159b74b4a065fdc70c68ec9160b8d86b419d2c6e8125f43bfed5aa802c37cb245c68c1c7cd63c36111a4293891b642b6336994df4ec5478e96f095e9af438a14ca18db2d3eab768327a2d899500eb0987556d36565d9fc2ba9ef417096bf9adcafe750e87f40b014d40523e2b994edfc24bda2bcb916676000000",
  "txid": "62ef594743c5970d8dc00481d95c8506dd3c76be1cc6741245c6b39f850b829f",
  "hash": "d2063c42a910dc3d33e7679bfad4f0320cef8be3850a3d88f2d72a46631a1f0a",
  "size": 5085,
  "vsize": 2278,
  "version": 1,
  "locktime": 118,
  "vin": [
    {
      "txid": "8b52ad2708cbed79a53f70324db4398f787d048092d746a5bcde7540f71abfdc",
      "vout": 1,
      "scriptSig": {
        "asm": "",
        "hex": ""
      },
      "txinwitness": [
        "2cbb9aac430a3bbeca83cfb649174c35d3aff0112ba33b6dec07ebe0fed414099d8a4604cc7bba2fad4f266a8914435fc0dd6fca7bec065f203409da0cdff0df66c0200626d95159f5f8f3e3862089a1ea4c0e12989a56903b57ab507f8768a4808d52fd901cf855b58a77cbec5ae3eb01dd9532a8149e53fbc7af10d1b167d71be9496764bf1a150c6eef0cf359993c5e3719e29ff625b051280394f585ae9393476324be6f8c64079cdbd77d3f8c9c6f78ada18a1da21b810856ae5fe80e430b1ccf5a447a36ca6c1da78a3e8fb706d1569c9542b5339d01cf68f97df96a7a7308c6f00f82a9e6745581a88300a0942ca64bb81c1fde9e705636dab121fdfee4ce58da0fc91dfc0073f977a6795ef0ff10cec62f0282b25916b47c2a77b61204902fdd6351227a83ac88d15f3348ed5b426cf880ba37378b02efe576b1b3104388c4cc6015f7c5e68ee03a70e581631d73ce4e74579b26dfc04e020d03548f53cbb94ce2f95b6aad8919b76de5a12655c492228fb32cf59be68464c626f488f0b8b4b52f53f5d70032b89fd07edfacf814c6dd1d2ac7b653defaad053d7c317b1ff644a332a01a10286f71d362a30c4b2b8f1c6e1a3371d10095c4a3ca01416980a56ea5d67fef49c94c8e2e3a9dd7eb031aedd64e9b21506fde304e00d4351344489a09ee7ff0ec3adb921bd3702206d5792d874a3e1abe29fc6b28704f7a947a863377339fc443fbd3d05673f4e5f927093484865b76a4642bfe32f37ffa733ebfc042c247ed4d20bafcac89e1ae7ff39909d03645f5111572abdbde9b5b94dde99f246cdf9a2a0ce273c480a21c69bb91e90d25640a55ec0dbdbd8199a1382c465e0c0dfa56da9b85118d33a8f5f987dd5ab99f0464e0a09b92bde4e5af2e7ee809c2f45a294d5726a771b59edf29927f94c4152ae02e8b66f65415fa40361470720d5da2a6938167d1f1f664bddb035ad45c277a15f70c9b2f947dbcacb069a18179f8f10b0b349575dbf203c6456463752cfe791cbac29e01d35f69710acb29ba2b861246c8e3a216dd0715e731c817daeceb4b44cf9b88934aa2b2d03ae17c9097c4bb426f50bacf82262ea7db6e5397e96b79b3fc03a2b96a2ccf56776624adbe8be66df7d12a2653221beb931ff11b8afba1fd600b7e110576e2679e151ec886cba5cf11b1624d251bc4c5dbb135e3f00235bb60a4603365990b1582678b08f4fe21084d700cc3734ae36a6248ba9b2aac8180864b2e36d3dcee81c9e945f1ffdca415570d1f3804f1414cbf522d245ed8b866574e72b3ffa25b4b8aa9692a17be5417b809910bac3bb4b955cfea4c939debf5287cc32031335867d21bb7df0565bbcd0a69c4a7e07df092331a3c83e70e0c1d30b466ff5477bddab173fae9be2b0f27bcd297b94035650f83cc7549e216a1aa24ed0864d575733a91da5708de8938db5c509f6e3c691fc85b99f42d98788640b43e994396c00dce44ed9627b5ee3e4e6e25b009e35750770c01b35c2489e612ef231465210b08439988fe16fccf81f9ead2fffbcfd74558bd08f57e1b2530f305b265fa73a3ae1e029f9ae93a4feb39cd6fb25fbaa54b18767a265d8c631525bb8b50ece3e2b9950679c779b52b96d616fe3692bf8c2b60e59419559e015442beb968a8c88f4be0ee736f7e75cd8b8a4263c211e6dcefd1c364174b5e01dd73845c2bbd0e6701ddf852f745da1ee87699c6f2f5a692484418ec682e1b57818bc09d181f5e33121f6313a2f3cbb996ea124f69c80f69ea00ec79a708a16423c5bff18c466379ba6b0025c2a19074940997f7b10ac93d870c30488a7e88d1272d5d041ed925aca3fc0002cd37ed4006d2cd8d02e10cab2db7037ead6b34471291b7a9790ce551ed2497f4e8a22959e005c2c3d22dc256132a3a0118d679c67d3524ae168a1bfbbdd6d58bf6210d9a831a6cc2bb15933e571175676a7d2269fd13cc5337ee176e8642cbd345240871fff97a9e965681199c3d39a92dd6e08434c1467a0b3716c2a7cb1790b4fea92ca3dd85ebe4569f8d06eb2dc6413cd43fe34267bc1f1560a0da53daaa72c665e992f338827d450befa1bdbd32c8532249d4d07d10f116b6e7446d8ba43f186761b63c785af3909e395444907b62402b74b0e93dc58f4959ea5a07204d21990389d2b16d154200c45422686e1ab2c3df71177fd2dbdb77cc1c9a56ef659ff6231a678f643d4d521d68ac4523c1153bfd3c272196b6a5aae8278b9d8c70735e6d09e6b37111b9681fcd6eb19bbff8422b08dfa142d458a8aaed20a6d9b248b9433d3bfdee076e9e2da8d39852d347d50df93e304225d0fb9eef9ae1dfb124ca2aa229e4120029338e634d21ad02fde19e13f9c4cc8d83f19c6aa87a70112398bb3dd91c522727e6130457542e13702315b8f273333b6ed488b7999dfab2989827e9c501c2c1d637b34b47b1e76cda558f9ca5284857532c334261584842b1d21d4d83a9a5fa940bacc868e1946a3a43ad4dbaebb1aeeaa6b99cb102856786c504389012439ce93591e48267d1508306e72e7f91940003a5cc56ae2d0134d84eaada4c47150e2c5ae03b340cf76b70cd33031b83562fbfe327f5e8a94d2bff8d9bfe08d3a9b7f9cfff1a217aaec86511b8fd1cad7b4fa6ffc0a2a9dea83be1d565e6640a5b20090131ae85ee9863966a4226c43e17d1986660c96a73c722dfdaf42b943396d82bafd55edeacf1341de43cbc5c76f485a7c13fdc920836db1138559c854577723c9e2148b377246a1e09ac832acdca27eb8607cb8ac839dd7810567976d00235ec22cbf937bc3e3c0b5a4b5e15c5f8b5e56707eae1eb5d84a02e907c7ffe15fa8429aa8a23b902609d25f3917fbc5f5c7077684eceaafb4c274478bad172100bd94d1521f88f4f206742e7963280f4d60e13666cef06da84b99bd22b3d4b59824400f9610d3f96cfa5abb120e70924d449e67c44d7cac3ae9440e86c07c64c665288adba17cb36eff6b093ec09cf1a54c01ee2cf78b271b8fd28da0f7492e07ae22033b25741bc5ac71718a51cea1889aec014bb4966de15446d0f3a5cd56d597f372f4ff2d656b993c2296007345578b4b9666cb674f55d7fcf28aae923114a16c0e4a849ab25fd94ea5db8a46ee1cf4130c62d6b9dc6e847f02dbc41663f1c22bba4c550cecf0c56a7d317d81e7ab4bcc23e9b2ad7a6c1131f40a8c24e49cd06e61d72a63cf2e0978af9c90431b5216bb64403bba6aea51c5910757aa5c4da86d22f84c21e35e5b6d4bc5c95b0df674ce8cff860730918343542636894a3c7d1e901070d123653676c6d6e71949fbcc8cadfe905383c434e597f859ca8eef7fc031f263252557f859aa3bbbdc7c8ee000000000000000000000000000000000000000000000c1e2b3a01",
        "009e11186bb3619384f60819d717b9a1540c9a1b34a70deda7660331ad89f49246db4d7b74f21d95f08639931b2bc968786b0dc2dedc9ee75ab3db6ff55369dd09240468041905478fddad62b4303373b5b1490fe3c36d71e187747a52327c645380dd1211d3cf8c553b9c8a049a8c0a2c5b4831ad74952916ffacef4799fa55d608de3ece09cafc6cadc83e9c2f9df86ea8ad49c539e453ddc429822e2d8ab86c868f04c4e89166f74921a9b9737a458ef10926eaadc15288b520b115bf392dc223d58022d9076939dc7dbc346e86c6709ef1cbc1b478a915148454acc07122736de7374faa6f0daedaa806ad3f5b08a384ffae463dea764f13b03bc1d12ebd885ebe6bd64994eae577cebb188f27d727db3edf04733d8f32608d155e5daccbeefe66a847980bece242fec51bcade82bd2e3da17fc982ec34a073f0f56cd1baa76f9acb813bb170759232729bc04dfdebd46e19d9883deb3780d112c8cf8604a16c15a564426714497ff79abe7bbfa0ef71e664d5967d3455a7ee0b1f636d7bc63d82f841dbf9d037d4c477038f12a607eb781d4cb3f696fb7338d42901e6012b7b367a2b4d4c1239982144618af3b8d1a9024674f0b4d75b1598b29aac21ff8c7824f256b608825a76695e95c36cf9dfab24bf871d83d9ac1585e951fdfb6017ab9334c416caa10e7133bdf159365cb34795fea14513cef90043d2310b7a0bcd3af4577422f406b084c978bd27a6cb6f75a289d4f1b2443fc30a6e2335c2a82b55e6b1e8e34f4a82667e100351ebf18119f8a6dbab7f2679cfc7c73f69224897c87ae440adadd5d70bb94400f98dded3efbc72bea5c63bfe731a7e44abcd3a3ad2ffd04df9ae4382b29a983963b694cec13ff16017fda322272a27ade2949f52cc9a313818476585b500e6dedd3ec0aa13f0c6ee951ccc45db55e98d7dbe19af3bbe704fcf9346c68509a456832029ae1cf979a7d81eac5164d75385bca363b7ef6a040b1269e2d93c3259dbf5939eab0e42d46e2a76345684b7fc99079043fbd4698d75118727bfd0e38ab4bb5e31eef725fdeb52629057c5ca4a4a813b74dc962f0fbd0e2f43ced2f19eac7ddba88bb5820eec541a6cd937d6e4a7709addd67128a9bf68fa1a6421f95232ce2874df12babfc85d1e664480d7e1de75138aae3e13a5b6b7185b03b1977e8d0fe05b03e246dcf0163e5fa8912bf28a5565874b0157baa975aa6d4bbf5e6e67ae2fa88e5b6b5da00a3de7278475831fe47adf7216f5e30645ac87faa558223673b36a9b8174ad5854cbbc2f7ea243196bc371188b674e4230f5371a8215ce0e243b80e5bc98c5fbec623b58dd965003daa7a89a4298e78a20f9b060619c8842abc138b50eaf31f71ee0bdb3e19429aeeebfd05e01eeab1b38b9da7d71a1cc97f4cd3c7db1a22cfd5b95c21741a613bde9559d28ceff19bb57dd6cf268f9a3280d74bc981069c02d949b325edc60a843a0eb57d638a4c99a20b20b6df35891d416656d2fd49e870f7157bb78fafae43cec9c5e42d41d0fcdd698914c8bce70d6eeda21ff7a66ff641882ee985106c58bf76313985347bd4759176bb0ade78cf004c3981a8a05bd6649cf3d031a1b0bee2729bed8b0c5836d4a4324628af5db5ffd480c595f825d5aabd96a01185a1ab65f683dc836f9310635e818268f8159b74b4a065fdc70c68ec9160b8d86b419d2c6e8125f43bfed5aa802c37cb245c68c1c7cd63c36111a4293891b642b6336994df4ec5478e96f095e9af438a14ca18db2d3eab768327a2d899500eb0987556d36565d9fc2ba9ef417096bf9adcafe750e87f40b014d40523e2b994edfc24bda2bcb9166"
      ],
      "sequence": 4294967294
    }
  ],
  "vout": [
    {
      "value": 1.0,
      "n": 0,
      "scriptPubKey": {
        "asm": "OP_RETURN bfde6522f99eea4f70c1aacaceaa517f94a7ac7dd3a2a7f4727abd9f74d1e3c9 4c006bfbd118850e62454bff75cd26e0d18bc648287e12857eb2210c472bc1166c204bdbf138a52e42656bdf55ed06c0f1abe668085e32a55e92012c670be1360c402bbb9158c54e22050bbf358d66a091cb8608683e52c53ef2614c076b81562c600b9bb178e56e02252b9f15ad4680b1eba628481e72e51ed2416c274ba176cc80eb7b5198058ee2c5cb7ff54da660510b46c8a8fe9205fe32a18cc7ab4196eca0cb5b71b825aec2e5eb5fd56d8640712b66e888deb225de1281ace78b61b68cc0ab3b11d845cea2858b3fb50de620114b0688e8bed245be72e1cc87eb01d6ace08b1b31f865ee82a5ab1f952dc600316b26a8c89ef2659e52c1eca7cb21f64c006bfbd118850e62454bff75cd26e0d18bc648287e12857eb2210c472bc1166c204bdbf138a52e42656bdf55ed06c0f1abe668085e32a55e92012c670be1360c402bbb9158c54e22050bbf358d66a091cb8608683e52c53ef2614c076b81562c600b9bb178e56e02252b9f15ad4680b1eba628481e72e51ed2416c274ba176cc80eb7b5198058ee2c5cb7ff54da660510b46c8a8fe9205fe32a18cc7ab4196eca0cb5b71b825aec2e5eb5fd56d8640712b66e888deb225de1281ace78b61b68cc0ab3b11d845cea2858b3fb50de620114b0688e8bed245be72e1cc87eb01d6ace08b1b31f865ee82a5ab1f952dc600316b26a8c89ef2659e52c1eca7cb21f64c006bfbd118850e62454bff75cd26e0d18bc648287e12857eb2210c472bc1166c204bdbf138a52e42656bdf55ed06c0f1abe668085e32a55e92012c670be1360c402bbb9158c54e22050bbf358d66a091cb8608683e52c53ef2614c076b81562c600b9bb178e56e02252b9f15ad4680b1eba628481e72e51ed2416c274ba176cc80eb7b5198058ee2c5cb7ff54da660510b46c8a8fe9205fe32a18cc7ab4196eca0cb5b71b825aec2e5eb5fd56d8640712b66e888deb225de1281ace78b61b68cc0ab3b11d845cea2858b3fb50de620114b0688e8bed245be72e1cc87eb01d6ace08b1b31f865ee82a5ab1f952dc600316b26a8c89ef2659e52c1eca7cb21f64c006bfbd118850e62454bff75cd26e0d18bc648287e12857eb2210c472bc1166c204bdbf138a52e42656bdf55ed06c0f1abe668085e32a55e92012c670be1360c402bbb9158c54e22050bbf358d66a091cb8608683e52c53ef2614c076b81562c600b9bb178e56e02252b9f15ad4680b1eba628481e72e51ed2416c274ba176cc80eb7b5198058ee2c5cb7ff54da660510b46c8a8fe9205fe32a18cc7ab4196eca0cb5b71b825aec2e5eb5fd56d8640712b66e888deb225de1281ace78b61b68cc0ab3b11d845cea2858b3fb50de620114b0688e8bed245be72e1cc87eb01d6ace08b1b31f865ee82a5ab1f952dc600316b26a8c89ef2659e52c1eca7cb21f64c006bfbd118850e62454bff75cd26e0d18bc648287e12857eb2210c472bc1166c204bdbf138a52e42656bdf55ed06c0f1abe668085e32a55e92012c670be1360c402bbb9158c54e22050bbf358d66a091cb8608683e52c53ef2614c076b81562c600b9bb178e56e02252b9f15ad4680b1eba628481e72e51ed2416c274ba176cc80eb7b5198058ee2c5cb7ff54da660d3dc939466351f8aab5b411c3b0f89762a918ba52fca768579c74d7c12eea809",
        "hex": "6a20bfde6522f99eea4f70c1aacaceaa517f94a7ac7dd3a2a7f4727abd9f74d1e3c94db0044c006bfbd118850e62454bff75cd26e0d18bc648287e12857eb2210c472bc1166c204bdbf138a52e42656bdf55ed06c0f1abe668085e32a55e92012c670be1360c402bbb9158c54e22050bbf358d66a091cb8608683e52c53ef2614c076b81562c600b9bb178e56e02252b9f15ad4680b1eba628481e72e51ed2416c274ba176cc80eb7b5198058ee2c5cb7ff54da660510b46c8a8fe9205fe32a18cc7ab4196eca0cb5b71b825aec2e5eb5fd56d8640712b66e888deb225de1281ace78b61b68cc0ab3b11d845cea2858b3fb50de620114b0688e8bed245be72e1cc87eb01d6ace08b1b31f865ee82a5ab1f952dc600316b26a8c89ef2659e52c1eca7cb21f64c006bfbd118850e62454bff75cd26e0d18bc648287e12857eb2210c472bc1166c204bdbf138a52e42656bdf55ed06c0f1abe668085e32a55e92012c670be1360c402bbb9158c54e22050bbf358d66a091cb8608683e52c53ef2614c076b81562c600b9bb178e56e02252b9f15ad4680b1eba628481e72e51ed2416c274ba176cc80eb7b5198058ee2c5cb7ff54da660510b46c8a8fe9205fe32a18cc7ab4196eca0cb5b71b825aec2e5eb5fd56d8640712b66e888deb225de1281ace78b61b68cc0ab3b11d845cea2858b3fb50de620114b0688e8bed245be72e1cc87eb01d6ace08b1b31f865ee82a5ab1f952dc600316b26a8c89ef2659e52c1eca7cb21f64c006bfbd118850e62454bff75cd26e0d18bc648287e12857eb2210c472bc1166c204bdbf138a52e42656bdf55ed06c0f1abe668085e32a55e92012c670be1360c402bbb9158c54e22050bbf358d66a091cb8608683e52c53ef2614c076b81562c600b9bb178e56e02252b9f15ad4680b1eba628481e72e51ed2416c274ba176cc80eb7b5198058ee2c5cb7ff54da660510b46c8a8fe9205fe32a18cc7ab4196eca0cb5b71b825aec2e5eb5fd56d8640712b66e888deb225de1281ace78b61b68cc0ab3b11d845cea2858b3fb50de620114b0688e8bed245be72e1cc87eb01d6ace08b1b31f865ee82a5ab1f952dc600316b26a8c89ef2659e52c1eca7cb21f64c006bfbd118850e62454bff75cd26e0d18bc648287e12857eb2210c472bc1166c204bdbf138a52e42656bdf55ed06c0f1abe668085e32a55e92012c670be1360c402bbb9158c54e22050bbf358d66a091cb8608683e52c53ef2614c076b81562c600b9bb178e56e02252b9f15ad4680b1eba628481e72e51ed2416c274ba176cc80eb7b5198058ee2c5cb7ff54da660510b46c8a8fe9205fe32a18cc7ab4196eca0cb5b71b825aec2e5eb5fd56d8640712b66e888deb225de1281ace78b61b68cc0ab3b11d845cea2858b3fb50de620114b0688e8bed245be72e1cc87eb01d6ace08b1b31f865ee82a5ab1f952dc600316b26a8c89ef2659e52c1eca7cb21f64c006bfbd118850e62454bff75cd26e0d18bc648287e12857eb2210c472bc1166c204bdbf138a52e42656bdf55ed06c0f1abe668085e32a55e92012c670be1360c402bbb9158c54e22050bbf358d66a091cb8608683e52c53ef2614c076b81562c600b9bb178e56e02252b9f15ad4680b1eba628481e72e51ed2416c274ba176cc80eb7b5198058ee2c5cb7ff54da660d3dc939466351f8aab5b411c3b0f89762a918ba52fca768579c74d7c12eea809",
        "type": "nulldata"
      }
    },
    {
      "value": 499979.662,
      "n": 1,
      "scriptPubKey": {
        "asm": "1 749d98a3f917795405d32acb768f4a58a969573ce866ed7e6d0dd34e39ab9d98",
        "hex": "5120749d98a3f917795405d32acb768f4a58a969573ce866ed7e6d0dd34e39ab9d98",
        "reqSigs": 1,
        "type": "witness_v1_scripthash",
        "addresses": [
          "3QJmnh"
        ]
      }
    }
  ],
  "blockhash": "c592ff09702ccc153ea7e0356b0e5a10b37ebf9436b5bd4870b29e5d1c636d36",
  "confirmations": 1,
  "time": 1764179615,
  "blocktime": 1764179615
}