{
  "hex": "0100000000010159dd04f9deeed7ae217c65380b85070afc44ad75f474932751bee207537162ee0000000000feffffff0200e1f50500000000fdd5046a2029b43a9dbdad8c3e62ca0dcd3712c6fd6667db26ec10aff45c5271d9b7a4934f4db004039dc8b15e9216616f8ca090f61c03d5dc3ef92830891ea1ae0a13bff6aded5f23bde8917eb236414fac80b0d63c23f5fc1ed90810a93e818e2a339fd68dcd7f43dd88f11ed256212fcce0d0b65c43959c7eb96870c95ee1ee4a53ffb6edad1f63fda8d13ef276010fecc0f0967c63b5bc5e994850e97ec1ce6a73df96cd8d3f831d4831de1296e1ef0c2010769c83555cbe79a8b0099e212e8a933f762d6ddfa33d6811fe32b6c1cf2c003056bca3757c9e59889029be010eaab31f560d4dffc35d08719e52d6a1af4c605036dcc3151cfe39e8f049de616ecad37f366d2d9fe37d2851be72f6818f6c407016fce3353cde19c8d069fe414eeaf35f164d0dbf039dc8b15e9216616f8ca090f61c03d5dc3ef92830891ea1ae0a13bff6aded5f23bde8917eb236414fac80b0d63c23f5fc1ed90810a93e818e2a339fd68dcd7f43dd88f11ed256212fcce0d0b65c43959c7eb96870c95ee1ee4a53ffb6edad1f63fda8d13ef276010fecc0f0967c63b5bc5e994850e97ec1ce6a73df96cd8d3f831d4831de1296e1ef0c2010769c83555cbe79a8b0099e212e8a933f762d6ddfa33d6811fe32b6c1cf2c003056bca3757c9e59889029be010eaab31f560d4dffc35d08719e52d6a1af4c605036dcc3151cfe39e8f049de616ecad37f366d2d9fe37d2851be72f6818f6c407016fce3353cde19c8d069fe414eeaf35f164d0dbf039dc8b15e9216616f8ca090f61c03d5dc3ef92830891ea1ae0a13bff6aded5f23bde8917eb236414fac80b0d63c23f5fc1ed90810a93e818e2a339fd68dcd7f43dd88f11ed256212fcce0d0b65c43959c7eb96870c95ee1ee4a53ffb6edad1f63fda8d13ef276010fecc0f0967c63b5bc5e994850e97ec1ce6a73df96cd8d3f831d4831de1296e1ef0c2010769c83555cbe79a8b0099e212e8a933f762d6ddfa33d6811fe32b6c1cf2c003056bca3757c9e59889029be010eaab31f560d4dffc35d08719e52d6a1af4c605036dcc3151cfe39e8f049de616ecad37f366d2d9fe37d2851be72f6818f6c407016fce3353cde19c8d069fe414eeaf35f164d0dbf039dc8b15e9216616f8ca090f61c03d5dc3ef92830891ea1ae0a13bff6aded5f23bde8917eb236414fac80b0d63c23f5fc1ed90810a93e818e2a339fd68dcd7f43dd88f11ed256212fcce0d0b65c43959c7eb96870c95ee1ee4a53ffb6edad1f63fda8d13ef276010fecc0f0967c63b5bc5e994850e97ec1ce6a73df96cd8d3f831d4831de1296e1ef0c2010769c83555cbe79a8b0099e212e8a933f762d6ddfa33d6811fe32b6c1cf2c003056bca3757c9e59889029be010eaab31f560d4dffc35d08719e52d6a1af4c605036dcc3151cfe39e8f049de616ecad37f366d2d9fe37d2851be72f6818f6c407016fce3353cde19c8d069fe414eeaf35f164d0dbf039dc8b15e9216616f8ca090f61c03d5dc3ef92830891ea1ae0a13bff6aded5f23bde8917eb236414fac80b0d63c23f5fc1ed90810a93e818e2a339fd68dcd7f43dd88f11ed256212fcce0d0b65c43959c7eb96870c95ee1ee4a53ffb6edad1f63fda8d13ef276010fecc0f0967c63b5bc5e994850e97ec1ce6a73df96cd8d3f831d4831de1296e1ef0c2010769c8355690be16a33ca884add0f3f88ffc5f6bf7d61f96e8a40c4bb129dc56c20708fa860cda5ea782d0000225120f8870fcd86eb9368430d37034c560d417b52842c48a004980198bf9e7edf974902fd75093b91d599c0c62ea25fc2c878eab0c5f62a755569f23c1fe3251b5ae5ce2e9e4982f372fcc371284c8bf0e15005e0962c86ba30cc2b0b0a45648487030710714e68456c0aae18ca1eb861778065f5983d872f3fb44446e80e594ee34561df6f372829d8586304928b09a3794f18301b825663d966b2a13a551746164e802e0ee03a41edd6a94bdaaecffd787540197b2cf2e1a4ce18724615de6632462226bef9af78453d67301cfdc5d0b25e6165ea008af82b4fc145c0edcaf74b2a2d74728cb56f58fb8f984dec612dc2d131df7b0f33b0f4997d8f00ad450805ccf929c5fa532694830d3a65662dc8cef24e141d52bd500f2bc3cd4a065d89036ae34bb20882239252518b0e1ec29029b4675a449c54e3e76c2fd7f2391e4750e6f5e70370fcc67f8cab7e3a3d4fc74a5be2bb0ae6a0afe3b0cea042fe992b7717383fa89b95fc8735ff4f070804922be3b343fc9578a77bf67c277ff766a7cd4950c6576c5b00ea206c45254747c0ee5a2e058d58c73d2824e1b49aebf2e0044c77164a2e16176423be076ea9fc86bd49e3c638c082f717cb0541a0310def88e864da350d4e6d1ec62e00813abec96462d4db8a7740ee74b33e7aaf5a494407b2851e93f01a894ceb4ebaa63b99ca36383273f79d518c23cf210124b314690dce01660a514222bc3a0739a3b8abe17c31701b8155dace4d5677c698a0c40de8c276176e01204b9e1382e20f4feb9552900e7b83be4e9bddd9a4085aa251b31286d6483051c503b86ba8094dae8e96293d12518f3ebf92ae1dfe41105bf20b3fddcb6c8d05222cfde87248bd9e60673901df8ebbe6a6cf1b04dd60443748b324b157b6ca0884fb0fe5bd9e3646a9c04d2bf4f7bc318280f63466be750ae9d9257787bbf4b67481b9f36a1a0bc8668517de8071a6d2f5313c0710c71407726bf8751db39f775d6b3ebcf60dd01a1f24625d9a852de95bac71abfc0710c60c2897484fe34fa99ff2c63c954433af62efdfaa4e37beabfc6fe906cbb63d5f44c2b0e4cc68fa869b8b67104932010f08f8b84e892f952f14dd673431bf36bdc862121b614586fc9ae7a1880b2d2dc1fc80290fc32f07d7e9edcdaae549cedb9adf2a3a4c248c90086d0b28473c68dda8a519bc7083f08115ae301a5f63bc27d38c92fc6c3f060cc440a9a307afdcfe4427750b6404900b2df9a121e7fa2e14b90fb574a87c2a3c15f0f849469c348900313798c91c07dbcee50af2afbb4650ff5a79d5bd6397eee9e8a9705fd48b7c8c995daa8390fc2f2a9409d61ca94477f0a6a47e0f35c25e1fc3592223f7cfee3905bd9fe2ac704027ddf579f0f0761d1b84fd8caccf7b89ca6d93066438180d3b6dc206904e1824000bdbd53009bde5e9cd4881c6f964caaf9f29d0be3a7e283f53b8f2df326483dbf4e108ba1fdfa2eaaab319e16b56ccf7ac71336b2a2a879d39fbb204d6614b3e9241daa796f491b33787aaba102d27e4df9afff1ff63bdcb297566518367ede4211f34adf748d06ece9c6604b7a827662672380d13cd302a5ed360158771b684ed08d43f09fd331151a27821766eddf8cb4260721450fe64d80d7d9b89b28bcd2409b1a0fca8e9e22c29f9d751f8326816f7841df34537a2126efdb505c7fde9b4641a10f918c0ca3cb7205f944d4382f0e8355c5976e1c7e5dd817c16caee03e7e4597641a3e4b98dfe4e0d9608393c57c6e6d1293a52d4274707aa03690250da5a9283df2a7ef3e087d4dde0f250fb4f702513f7a936f4444773f4aed206682892216c7554add2c5d10898c0f65cbd338f2757a6a0b355e8acfb9012aea5f739cd4ca1f4ddbd65bf6a6dbf0420866af0165db5e1eda001a8ac446b9a2685ad55ad6727060b161e43d174a22dbca545d64761ec5379da5e6447d7f9a0b8a16c88c2f2c60dc3e7f554bc39cfa171ed1eb9cc00c9acdcc727ef0c24704bcc448e05641ed6bd810eb97e1d84a240610e6673d99ca7ee5f3e6291a939fd72a20fbd464b7c09f4ec0111993067fa4b0e7ecd3e22fea6ea5cbf935b4388e6336546cdb6b98b8d5004cfad27154c6c347fc49d64f129746f81c42872887c1818f080ac84134c2c85e3db28c87765c8d9a1d25d9eef471a535ec03f8352dc49a4c14cc324c7509e1568fd9604e313e7e085353dfecf3f9e1d52bc62ac78258655a6de0c1061f7aefdb9df67cc376fcdd03ea3ae9a84cc79f621cfacf3b4f0fb645e76d5002092295f6eee914712b2d8ae956e2bedc85471d1eef276e0fa31897454f68a6f7ddf292bbc8482fa16278bc146e528cc097a28a6a1902d145df63e778c045074028e0a2192ad936215cfa87ce3e3ad2bb87d863b983e10c98d81f857fb16701ce245ac33ba44aa9ea00b0ed15c047057cef32119227040cf16be9a598a079ef8064a434d956f572c07f05c05ba0eac4a3efaa9698cf62c9275bb7646f466295554f8fbaae347fccdd5dd182a96110fc8cf276dd4f15108e1c70a170fb569dc8621b7d15ff18b48ba56b1af289c75f50c8a1356d2c43dbd7cf97c49e79ee463f918388d0022b2e924230618953f5aaeb56252a8ffe5ef47b3c8ec034bb7d9108b2cf6990d4594418ead7090e5513e5c58b849e9a8b172a005c7261c8f7916100d2d6493f8ac2674246841adf28ccb9bb602263fb8526935e345a715b573d71e590704f9ba0fefd9eaee35d68966e6ad01bfd137aec1fc27152337ceecfceb6df9f6e4505f0649e7105328a720067b019015ee95998c4c8b6dd5e3c90c4bc52204954fcd346b6c35aa9302757e7ff206cd59b0411c0bcf2f3c54a4bf424077c7712dd2ce4d159862030554ae21067f819f419421a3de76000133c4aefed6660d8881f862fd47d63bce5780f4e846823c4b8d548546bf98eebab81de3e1761d9e75bea22193f5a96cf0e5750c2befa2dceff72ba11a37ea2d05d38f72f66c83bb1c388f2d72aebe10a928d2d49c23683b71ff32dc76deb7435b4536c0a82449b6b8ed603b5085dd3ea648293534236da21324a730780b15c482d18accb1ecd7f361e3db2ba17dcd93bd8a6431ea5fab405c86f78def93159efe6d012e8566746c472a5b3878379e33d9abbfb3fa0363d66cd8101ab71623ea27ff9797b5aae7a56c80f74247ffd252461231b1200606f2175c98d03568621838c19b574d0aad0c40861c0136ac2afc063a940fd2a6a778cfbd5cce3a515de23f8b57f291c3b8344d987381475bd6bbcaa9ec2e458985e7f5f67f601d8a60898507520c9f5571d6d2538e861511ad47189069e854a874031a1b21282a5861627c8092cdf701484e55676b72a7a8d7e2f211151a3544596a8d9aafb2cbd30285a3c8e60000000000000000000000000000000000000000000000000000000000000000000000000e1a272c01fd2105009434d2c76445d3ba4f1913d6398fb897df7501aa0da6159bcf0da016ff76a1bf3a6d4a452066336cb32f91b9e5a70bf7fb72c2a7fb4dcb00b877b9a62a835904cdf99bea7c75debe559b13e1da45d6943a8e18a0d35b3d83625b1e9e0406d5a388dd2e52469279c61f7680e2d6e73eeddc3b83ab2f93b9c851ed132bdb41c227445ebaf0c7f88d833d175501a6d461622b5590f79dfb4124ff19ac88581c5d28ab2f857be7206f172e65b76314714ab1ecdbb8a0650e24cb4a9656e641a9cc251000cf88b361531f355953b03fed127a28501a902cbf0842301b2fbbc8da13df542ac377759da82e8708ede6fa7cfa649f5771ee40b955a58465b4ac55ffe1fb5fda89f82068b39d52c371aa25e528c848d60f4acf2310e2dd7c61297b363a8a67b0bdab2c0a83493a77c4842f059f661eb451d44670868efd77222dffbfbba16b92d7bac669d88ac65563e77a9134181f884a3138d76f81fef4e3c4aacf5090be82c4351447781a0d873f90579a1ce97cf8fecac7a9b0a3fe0a4a6d27af98a202c323140a4c78f1f55a4b62e0b3448f3e7a86fb95f04bfa6d10a4c4d9f4122315533e239b7ae76539788b134c75c8b5d5ef85f480d8a29fbdde84cac6895c5d38ef3db81ad0e65e9d05f08166e59b841b60e5e032044a2525d1e0704d9528a46e93cb902330962ce5aaf42192ef610c43b478f91dfe39cb9c020d26023ec5526d5695432eb13d32932be755699c933f2b78d7634ee656376797ff8692731eb0ed999ba0b63b26f8a367b9e465aea60983efc20504db070fa4636cb4925c3b44439057d6dd97de21827c687860d97c680eb83d5e8b816b373d0df812ad4153f197588d75b77314321ba93be71316bfbc79ae6ecd7c18cb6e5349630e2cc489b08fcbf68f0429cec2323c85325de8485d727d00ac9d13e44ac81b74cda1a6c330b3488e1396c15a76b089c28b7b0f5629cec9f8c171cd9f03319d4e6803dfa582d4549370f4a05619a6140ac35b812a4f8e527c85b38dfd2c873631d8a0d72215bcdf5788cec5b3d7c0aa6fbfea4f601303521ec5e67cd3efc7ba5f7ab63c5c222789a3f5b16ea5b2673b3b4a5eae6381424d484abd4b686f69bd7ef3bf6f8f92cbe57a541554cb5c714237ea2a17b0b4559e48a1ce72245d5a1122487a829136b34e288adaca7bf377148bfffd838b8997caf3f369bd6aa66fa229d3a99fd54b84735385d1c1c8761fa82eab4f6bf3578ccb1eed0cadd5b04a2b1fe92333999d0066eea19d08093b15c2bbd6059fd0f6c98d3ffd5c6fc473b75d32670de37e447cb9674c89a827e4961ede168ec8bad281784ddda5b5099dccbe86c1eed854d3c1ccc7f87b693456b0bbfb24142311b257b88bf2ae959776954d78b2efe1ad052351fd333e74e80cecbbb67db4af60a88f1b28bd9b8f73c5fcd5ffa6f537ff91c93a32942860aff3c4e5d5e7a7b22ac701bd960c352322c7f6615677c9062e62d5168cb2388e7d0598b63e7fe2551c59ddb7a1ef83172f32d998ab64b653a42ce46b1a7db31b75e87c2cb3eda6bab4f00a92569ba98fa6f004ace4e8f5b95bd62ffc5ee4a636b004cdca79c6ac6e6c74da03f1f60e2aa2086288c08ca4ad51f1b0dbbae019b94193972f702193639014f167fc0051fa614f28f7aaf05e12ccbdf708081d5e4213488d1b639fa003816334e947ecaf9770bd9cd9650662ffb5ff2166e50b05fb70253545670c32b058af13b395acd0d45995716defabaf749d8244e5ab654b5b4f6e26cd4f3f00b1a116a855c99ebafe56cf399f48effd68e4077da5acd0c448218d04dd4f92ccbac8546f2d036593e402a43ad5cd4aa1dac0a286000000",
  "txid": "67c60296153e58b3280310e5b92a338978f23bcd7bed20aa0fe5f17221c0679e",
  "hash": "9876425e348341c0ca34e4ba6f6dd73b7ee73995819bb9a0422a613a33dcc13e",
  "size": 5085,
  "vsize": 2278,
  "version": 1,
  "locktime": 134,
  "vin": [
    {
      "txid": "ee62715307e2be51279374f475ad44fc0a07850b38657c21aed7eedef904dd59",
      "vout": 0,
      "scriptSig": {
        "asm": "",
        "hex": ""
      },
      "txinwitness": [
        "3b91d599c0c62ea25fc2c878eab0c5f62a755569f23c1fe3251b5ae5ce2e9e4982f372fcc371284c8bf0e15005e0962c86ba30cc2b0b0a45648487030710714e68456c0aae18ca1eb861778065f5983d872f3fb44446e80e594ee34561df6f372829d8586304928b09a3794f18301b825663d966b2a13a551746164e802e0ee03a41edd6a94bdaaecffd787540197b2cf2e1a4ce18724615de6632462226bef9af78453d67301cfdc5d0b25e6165ea008af82b4fc145c0edcaf74b2a2d74728cb56f58fb8f984dec612dc2d131df7b0f33b0f4997d8f00ad450805ccf929c5fa532694830d3a65662dc8cef24e141d52bd500f2bc3cd4a065d89036ae34bb20882239252518b0e1ec29029b4675a449c54e3e76c2fd7f2391e4750e6f5e70370fcc67f8cab7e3a3d4fc74a5be2bb0ae6a0afe3b0cea042fe992b7717383fa89b95fc8735ff4f070804922be3b343fc9578a77bf67c277ff766a7cd4950c6576c5b00ea206c45254747c0ee5a2e058d58c73d2824e1b49aebf2e0044c77164a2e16176423be076ea9fc86bd49e3c638c082f717cb0541a0310def88e864da350d4e6d1ec62e00813abec96462d4db8a7740ee74b33e7aaf5a494407b2851e93f01a894ceb4ebaa63b99ca36383273f79d518c23cf210124b314690dce01660a514222bc3a0739a3b8abe17c31701b8155dace4d5677c698a0c40de8c276176e01204b9e1382e20f4feb9552900e7b83be4e9bddd9a4085aa251b31286d6483051c503b86ba8094dae8e96293d12518f3ebf92ae1dfe41105bf20b3fddcb6c8d05222cfde87248bd9e60673901df8ebbe6a6cf1b04dd60443748b324b157b6ca0884fb0fe5bd9e3646a9c04d2bf4f7bc318280f63466be750ae9d9257787bbf4b67481b9f36a1a0bc8668517de8071a6d2f5313c0710c71407726bf8751db39f775d6b3ebcf60dd01a1f24625d9a852de95bac71abfc0710c60c2897484fe34fa99ff2c63c954433af62efdfaa4e37beabfc6fe906cbb63d5f44c2b0e4cc68fa869b8b67104932010f08f8b84e892f952f14dd673431bf36bdc862121b614586fc9ae7a1880b2d2dc1fc80290fc32f07d7e9edcdaae549cedb9adf2a3a4c248c90086d0b28473c68dda8a519bc7083f08115ae301a5f63bc27d38c92fc6c3f060cc440a9a307afdcfe4427750b6404900b2df9a121e7fa2e14b90fb574a87c2a3c15f0f849469c348900313798c91c07dbcee50af2afbb4650ff5a79d5bd6397eee9e8a9705fd48b7c8c995daa8390fc2f2a9409d61ca94477f0a6a47e0f35c25e1fc3592223f7cfee3905bd9fe2ac704027ddf579f0f0761d1b84fd8caccf7b89ca6d93066438180d3b6dc206904e1824000bdbd53009bde5e9cd4881c6f964caaf9f29d0be3a7e283f53b8f2df326483dbf4e108ba1fdfa2eaaab319e16b56ccf7ac71336b2a2a879d39fbb204d6614b3e9241daa796f491b33787aaba102d27e4df9afff1ff63bdcb297566518367ede4211f34adf748d06ece9c6604b7a827662672380d13cd302a5ed360158771b684ed08d43f09fd331151a27821766eddf8cb4260721450fe64d80d7d9b89b28bcd2409b1a0fca8e9e22c29f9d751f8326816f7841df34537a2126efdb505c7fde9b4641a10f918c0ca3cb7205f944d4382f0e8355c5976e1c7e5dd817c16caee03e7e4597641a3e4b98dfe4e0d9608393c57c6e6d1293a52d4274707aa03690250da5a9283df2a7ef3e087d4dde0f250fb4f702513f7a936f4444773f4aed206682892216c7554add2c5d10898c0f65cbd338f2757a6a0b355e8acfb9012aea5f739cd4ca1f4ddbd65bf6a6dbf0420866af0165db5e1eda001a8ac446b9a2685ad55ad6727060b161e43d174a22dbca545d64761ec5379da5e6447d7f9a0b8a16c88c2f2c60dc3e7f554bc39cfa171ed1eb9cc00c9acdcc727ef0c24704bcc448e05641ed6bd810eb97e1d84a240610e6673d99ca7ee5f3e6291a939fd72a20fbd464b7c09f4ec0111993067fa4b0e7ecd3e22fea6ea5cbf935b4388e6336546cdb6b98b8d5004cfad27154c6c347fc49d64f129746f81c42872887c1818f080ac84134c2c85e3db28c87765c8d9a1d25d9eef471a535ec03f8352dc49a4c14cc324c7509e1568fd9604e313e7e085353dfecf3f9e1d52bc62ac78258655a6de0c1061f7aefdb9df67cc376fcdd03ea3ae9a84cc79f621cfacf3b4f0fb645e76d5002092295f6eee914712b2d8ae956e2bedc85471d1eef276e0fa31897454f68a6f7ddf292bbc8482fa16278bc146e528cc097a28a6a1902d145df63e778c045074028e0a2192ad936215cfa87ce3e3ad2bb87d863b983e10c98d81f857fb16701ce245ac33ba44aa9ea00b0ed15c047057cef32119227040cf16be9a598a079ef8064a434d956f572c07f05c05ba0eac4a3efaa9698cf62c9275bb7646f466295554f8fbaae347fccdd5dd182a96110fc8cf276dd4f15108e1c70a170fb569dc8621b7d15ff18b48ba56b1af289c75f50c8a1356d2c43dbd7cf97c49e79ee463f918388d0022b2e924230618953f5aaeb56252a8ffe5ef47b3c8ec034bb7d9108b2cf6990d4594418ead7090e5513e5c58b849e9a8b172a005c7261c8f7916100d2d6493f8ac2674246841adf28ccb9bb602263fb8526935e345a715b573d71e590704f9ba0fefd9eaee35d68966e6ad01bfd137aec1fc27152337ceecfceb6df9f6e4505f0649e7105328a720067b019015ee95998c4c8b6dd5e3c90c4bc52204954fcd346b6c35aa9302757e7ff206cd59b0411c0bcf2f3c54a4bf424077c7712dd2ce4d159862030554ae21067f819f419421a3de76000133c4aefed6660d8881f862fd47d63bce5780f4e846823c4b8d548546bf98eebab81de3e1761d9e75bea22193f5a96cf0e5750c2befa2dceff72ba11a37ea2d05d38f72f66c83bb1c388f2d72aebe10a928d2d49c23683b71ff32dc76deb7435b4536c0a82449b6b8ed603b5085dd3ea648293534236da21324a730780b15c482d18accb1ecd7f361e3db2ba17dcd93bd8a6431ea5fab405c86f78def93159efe6d012e8566746c472a5b3878379e33d9abbfb3fa0363d66cd8101ab71623ea27ff9797b5aae7a56c80f74247ffd252461231b1200606f2175c98d03568621838c19b574d0aad0c40861c0136ac2afc063a940fd2a6a778cfbd5cce3a515de23f8b57f291c3b8344d987381475bd6bbcaa9ec2e458985e7f5f67f601d8a60898507520c9f5571d6d2538e861511ad47189069e854a874031a1b21282a5861627c8092cdf701484e55676b72a7a8d7e2f211151a3544596a8d9aafb2cbd30285a3c8e60000000000000000000000000000000000000000000000000000000000000000000000000e1a272c01",
        "009434d2c76445d3ba4f1913d6398fb897df7501aa0da6159bcf0da016ff76a1bf3a6d4a452066336cb32f91b9e5a70bf7fb72c2a7fb4dcb00b877b9a62a835904cdf99bea7c75debe559b13e1da45d6943a8e18a0d35b3d83625b1e9e0406d5a388dd2e52469279c61f7680e2d6e73eeddc3b83ab2f93b9c851ed132bdb41c227445ebaf0c7f88d833d175501a6d461622b5590f79dfb4124ff19ac88581c5d28ab2f857be7206f172e65b76314714ab1ecdbb8a0650e24cb4a9656e641a9cc251000cf88b361531f355953b03fed127a28501a902cbf0842301b2fbbc8da13df542ac377759da82e8708ede6fa7cfa649f5771ee40b955a58465b4ac55ffe1fb5fda89f82068b39d52c371aa25e528c848d60f4acf2310e2dd7c61297b363a8a67b0bdab2c0a83493a77c4842f059f661eb451d44670868efd77222dffbfbba16b92d7bac669d88ac65563e77a9134181f884a3138d76f81fef4e3c4aacf5090be82c4351447781a0d873f90579a1ce97cf8fecac7a9b0a3fe0a4a6d27af98a202c323140a4c78f1f55a4b62e0b3448f3e7a86fb95f04bfa6d10a4c4d9f4122315533e239b7ae76539788b134c75c8b5d5ef85f480d8a29fbdde84cac6895c5d38ef3db81ad0e65e9d05f08166e59b841b60e5e032044a2525d1e0704d9528a46e93cb902330962ce5aaf42192ef610c43b478f91dfe39cb9c020d26023ec5526d5695432eb13d32932be755699c933f2b78d7634ee656376797ff8692731eb0ed999ba0b63b26f8a367b9e465aea60983efc20504db070fa4636cb4925c3b44439057d6dd97de21827c687860d97c680eb83d5e8b816b373d0df812ad4153f197588d75b77314321ba93be71316bfbc79ae6ecd7c18cb6e5349630e2cc489b08fcbf68f0429cec2323c85325de8485d727d00ac9d13e44ac81b74cda1a6c330b3488e1396c15a76b089c28b7b0f5629cec9f8c171cd9f03319d4e6803dfa582d4549370f4a05619a6140ac35b812a4f8e527c85b38dfd2c873631d8a0d72215bcdf5788cec5b3d7c0aa6fbfea4f601303521ec5e67cd3efc7ba5f7ab63c5c222789a3f5b16ea5b2673b3b4a5eae6381424d484abd4b686f69bd7ef3bf6f8f92cbe57a541554cb5c714237ea2a17b0b4559e48a1ce72245d5a1122487a829136b34e288adaca7bf377148bfffd838b8997caf3f369bd6aa66fa229d3a99fd54b84735385d1c1c8761fa82eab4f6bf3578ccb1eed0cadd5b04a2b1fe92333999d0066eea19d08093b15c2bbd6059fd0f6c98d3ffd5c6fc473b75d32670de37e447cb9674c89a827e4961ede168ec8bad281784ddda5b5099dccbe86c1eed854d3c1ccc7f87b693456b0bbfb24142311b257b88bf2ae959776954d78b2efe1ad052351fd333e74e80cecbbb67db4af60a88f1b28bd9b8f73c5fcd5ffa6f537ff91c93a32942860aff3c4e5d5e7a7b22ac701bd960c352322c7f6615677c9062e62d5168cb2388e7d0598b63e7fe2551c59ddb7a1ef83172f32d998ab64b653a42ce46b1a7db31b75e87c2cb3eda6bab4f00a92569ba98fa6f004ace4e8f5b95bd62ffc5ee4a636b004cdca79c6ac6e6c74da03f1f60e2aa2086288c08ca4ad51f1b0dbbae019b94193972f702193639014f167fc0051fa614f28f7aaf05e12ccbdf708081d5e4213488d1b639fa003816334e947ecaf9770bd9cd9650662ffb5ff2166e50b05fb70253545670c32b058af13b395acd0d45995716defabaf749d8244e5ab654b5b4f6e26cd4f3f00b1a116a855c99ebafe56cf399f48effd68e4077da5acd0c448218d04dd4f92ccbac8546f2d036593e402a43ad5cd4aa1dac0a2"
      ],
      "sequence": 4294967294
    }
  ],
  "vout": [
    {
      "value": 1.0,
      "n": 0,
      "scriptPubKey": {
        "asm": "OP_RETURN 29b43a9dbdad8c3e62ca0dcd3712c6fd6667db26ec10aff45c5271d9b7a4934f 039dc8b15e9216616f8ca090f61c03d5dc3ef92830891ea1ae0a13bff6aded5f23bde8917eb236414fac80b0d63c23f5fc1ed90810a93e818e2a339fd68dcd7f43dd88f11ed256212fcce0d0b65c43959c7eb96870c95ee1ee4a53ffb6edad1f63fda8d13ef276010fecc0f0967c63b5bc5e994850e97ec1ce6a73df96cd8d3f831d4831de1296e1ef0c2010769c83555cbe79a8b0099e212e8a933f762d6ddfa33d6811fe32b6c1cf2c003056bca3757c9e59889029be010eaab31f560d4dffc35d08719e52d6a1af4c605036dcc3151cfe39e8f049de616ecad37f366d2d9fe37d2851be72f6818f6c407016fce3353cde19c8d069fe414eeaf35f164d0dbf039dc8b15e9216616f8ca090f61c03d5dc3ef92830891ea1ae0a13bff6aded5f23bde8917eb236414fac80b0d63c23f5fc1ed90810a93e818e2a339fd68dcd7f43dd88f11ed256212fcce0d0b65c43959c7eb96870c95ee1ee4a53ffb6edad1f63fda8d13ef276010fecc0f0967c63b5bc5e994850e97ec1ce6a73df96cd8d3f831d4831de1296e1ef0c2010769c83555cbe79a8b0099e212e8a933f762d6ddfa33d6811fe32b6c1cf2c003056bca3757c9e59889029be010eaab31f560d4dffc35d08719e52d6a1af4c605036dcc3151cfe39e8f049de616ecad37f366d2d9fe37d2851be72f6818f6c407016fce3353cde19c8d069fe414eeaf35f164d0dbf039dc8b15e9216616f8ca090f61c03d5dc3ef92830891ea1ae0a13bff6aded5f23bde8917eb236414fac80b0d63c23f5fc1ed90810a93e818e2a339fd68dcd7f43dd88f11ed256212fcce0d0b65c43959c7eb96870c95ee1ee4a53ffb6edad1f63fda8d13ef276010fecc0f0967c63b5bc5e994850e97ec1ce6a73df96cd8d3f831d4831de1296e1ef0c2010769c83555cbe79a8b0099e212e8a933f762d6ddfa33d6811fe32b6c1cf2c003056bca3757c9e59889029be010eaab31f560d4dffc35d08719e52d6a1af4c605036dcc3151cfe39e8f049de616ecad37f366d2d9fe37d2851be72f6818f6c407016fce3353cde19c8d069fe414eeaf35f164d0dbf039dc8b15e9216616f8ca090f61c03d5dc3ef92830891ea1ae0a13bff6aded5f23bde8917eb236414fac80b0d63c23f5fc1ed90810a93e818e2a339fd68dcd7f43dd88f11ed256212fcce0d0b65c43959c7eb96870c95ee1ee4a53ffb6edad1f63fda8d13ef276010fecc0f0967c63b5bc5e994850e97ec1ce6a73df96cd8d3f831d4831de1296e1ef0c2010769c83555cbe79a8b0099e212e8a933f762d6ddfa33d6811fe32b6c1cf2c003056bca3757c9e59889029be010eaab31f560d4dffc35d08719e52d6a1af4c605036dcc3151cfe39e8f049de616ecad37f366d2d9fe37d2851be72f6818f6c407016fce3353cde19c8d069fe414eeaf35f164d0dbf039dc8b15e9216616f8ca090f61c03d5dc3ef92830891ea1ae0a13bff6aded5f23bde8917eb236414fac80b0d63c23f5fc1ed90810a93e818e2a339fd68dcd7f43dd88f11ed256212fcce0d0b65c43959c7eb96870c95ee1ee4a53ffb6edad1f63fda8d13ef276010fecc0f0967c63b5bc5e994850e97ec1ce6a73df96cd8d3f831d4831de1296e1ef0c2010769c8355690be16a33ca884add0f3f88ffc5f6bf7d61f96e8a40c4bb129dc56c20708fa8",
        "hex": "6a2029b43a9dbdad8c3e62ca0dcd3712c6fd6667db26ec10aff45c5271d9b7a4934f4db004039dc8b15e9216616f8ca090f61c03d5dc3ef92830891ea1ae0a13bff6aded5f23bde8917eb236414fac80b0d63c23f5fc1ed90810a93e818e2a339fd68dcd7f43dd88f11ed256212fcce0d0b65c43959c7eb96870c95ee1ee4a53ffb6edad1f63fda8d13ef276010fecc0f0967c63b5bc5e994850e97ec1ce6a73df96cd8d3f831d4831de1296e1ef0c2010769c83555cbe79a8b0099e212e8a933f762d6ddfa33d6811fe32b6c1cf2c003056bca3757c9e59889029be010eaab31f560d4dffc35d08719e52d6a1af4c605036dcc3151cfe39e8f049de616ecad37f366d2d9fe37d2851be72f6818f6c407016fce3353cde19c8d069fe414eeaf35f164d0dbf039dc8b15e9216616f8ca090f61c03d5dc3ef92830891ea1ae0a13bff6aded5f23bde8917eb236414fac80b0d63c23f5fc1ed90810a93e818e2a339fd68dcd7f43dd88f11ed256212fcce0d0b65c43959c7eb96870c95ee1ee4a53ffb6edad1f63fda8d13ef276010fecc0f0967c63b5bc5e994850e97ec1ce6a73df96cd8d3f831d4831de1296e1ef0c2010769c83555cbe79a8b0099e212e8a933f762d6ddfa33d6811fe32b6c1cf2c003056bca3757c9e59889029be010eaab31f560d4dffc35d08719e52d6a1af4c605036dcc3151cfe39e8f049de616ecad37f366d2d9fe37d2851be72f6818f6c407016fce3353cde19c8d069fe414eeaf35f164d0dbf039dc8b15e9216616f8ca090f61c03d5dc3ef92830891ea1ae0a13bff6aded5f23bde8917eb236414fac80b0d63c23f5fc1ed90810a93e818e2a339fd68dcd7f43dd88f11ed256212fcce0d0b65c43959c7eb96870c95ee1ee4a53ffb6edad1f63fda8d13ef276010fecc0f0967c63b5bc5e994850e97ec1ce6a73df96cd8d3f831d4831de1296e1ef0c2010769c83555cbe79a8b0099e212e8a933f762d6ddfa33d6811fe32b6c1cf2c003056bca3757c9e59889029be010eaab31f560d4dffc35d08719e52d6a1af4c605036dcc3151cfe39e8f049de616ecad37f366d2d9fe37d2851be72f6818f6c407016fce3353cde19c8d069fe414eeaf35f164d0dbf039dc8b15e9216616f8ca090f61c03d5dc3ef92830891ea1ae0a13bff6aded5f23bde8917eb236414fac80b0d63c23f5fc1ed90810a93e818e2a339fd68dcd7f43dd88f11ed256212fcce0d0b65c43959c7eb96870c95ee1ee4a53ffb6edad1f63fda8d13ef276010fecc0f0967c63b5bc5e994850e97ec1ce6a73df96cd8d3f831d4831de1296e1ef0c2010769c83555cbe79a8b0099e212e8a933f762d6ddfa33d6811fe32b6c1cf2c003056bca3757c9e59889029be010eaab31f560d4dffc35d08719e52d6a1af4c605036dcc3151cfe39e8f049de616ecad37f366d2d9fe37d2851be72f6818f6c407016fce3353cde19c8d069fe414eeaf35f164d0dbf039dc8b15e9216616f8ca090f61c03d5dc3ef92830891ea1ae0a13bff6aded5f23bde8917eb236414fac80b0d63c23f5fc1ed90810a93e818e2a339fd68dcd7f43dd88f11ed256212fcce0d0b65c43959c7eb96870c95ee1ee4a53ffb6edad1f63fda8d13ef276010fecc0f0967c63b5bc5e994850e97ec1ce6a73df96cd8d3f831d4831de1296e1ef0c2010769c8355690be16a33ca884add0f3f88ffc5f6bf7d61f96e8a40c4bb129dc56c20708fa8",
        "type": "nulldata"
      }
    },
    {
      "value": 499973.5606,
      "n": 1,
      "scriptPubKey": {
        "asm": "1 f8870fcd86eb9368430d37034c560d417b52842c48a004980198bf9e7edf9749",
        "hex": "5120f8870fcd86eb9368430d37034c560d417b52842c48a004980198bf9e7edf9749",
        "reqSigs": 1,
        "type": "witness_v1_scripthash",
        "addresses": [
          "3QJmnh"
        ]
      }
    }
  ],
  "blockhash": "74cd48d8c624c37e1fac27c00c19e94c48df61d3ca85b84b56360e4f6170fa6f",
  "confirmations": 1,
  "time": 1764182926,
  "blocktime": 1764182926
}