{
  "hex": "010000000001018c297b9968a7766a15884a39b4c3bd654752bed215c60220a3b879a38818ecb60100000000feffffff0200e1f50500000000fdd5046a205395eef8e1cb9814c1463d9bf502c83b6aac913caefae1e02a29c523ecbc05fb4db004f757b942df7a392010418442199585022d25c8ff9444d40ae9321b17af5e73f9d7779962ff5a19003061a46239b5a5220d05e8dfb464f42ac9123b378f7e53d9b717f9029f3a79605001c40259d5c5426d6588bfd404944aa9725b57ef1e33b99737d922bf1a59407021e42279f5e5624d45a89ff424b46a89527b77cf3e139977d739c25ffab9a090c104c299150582ada5487f14c4548a69b29b972fdef37957f719e27fda9980b0e124e2b93525a28d85685f34e474aa4992bbb70ffed359379779821fbaf9e0d0814482d95545c2ede5083f548414ca29f2dbd76f9eb33917b759a23f9ad9c0f0a164a2f97565e2cdc5281f74a434ea09d2fbf74fbe9319f757b942df7a392010418442199585022d25c8ff9444d40ae9321b17af5e73f9d7779962ff5a19003061a46239b5a5220d05e8dfb464f42ac9123b378f7e53d9b717f9029f3a79605001c40259d5c5426d6588bfd404944aa9725b57ef1e33b99737d922bf1a59407021e42279f5e5624d45a89ff424b46a89527b77cf3e139977d739c25ffab9a090c104c299150582ada5487f14c4548a69b29b972fdef37957f719e27fda9980b0e124e2b93525a28d85685f34e474aa4992bbb70ffed359379779821fbaf9e0d0814482d95545c2ede5083f548414ca29f2dbd76f9eb33917b759a23f9ad9c0f0a164a2f97565e2cdc5281f74a434ea09d2fbf74fbe9319f757b942df7a392010418442199585022d25c8ff9444d40ae9321b17af5e73f9d7779962ff5a19003061a46239b5a5220d05e8dfb464f42ac9123b378f7e53d9b717f9029f3a79605001c40259d5c5426d6588bfd404944aa9725b57ef1e33b99737d922bf1a59407021e42279f5e5624d45a89ff424b46a89527b77cf3e139977d739c25ffab9a090c104c299150582ada5487f14c4548a69b29b972fdef37957f719e27fda9980b0e124e2b93525a28d85685f34e474aa4992bbb70ffed359379779821fbaf9e0d0814482d95545c2ede5083f548414ca29f2dbd76f9eb33917b759a23f9ad9c0f0a164a2f97565e2cdc5281f74a434ea09d2fbf74fbe9319f757b942df7a392010418442199585022d25c8ff9444d40ae9321b17af5e73f9d7779962ff5a19003061a46239b5a5220d05e8dfb464f42ac9123b378f7e53d9b717f9029f3a79605001c40259d5c5426d6588bfd404944aa9725b57ef1e33b99737d922bf1a59407021e42279f5e5624d45a89ff424b46a89527b77cf3e139977d739c25ffab9a090c104c299150582ada5487f14c4548a69b29b972fdef37957f719e27fda9980b0e124e2b93525a28d85685f34e474aa4992bbb70ffed359379779821fbaf9e0d0814482d95545c2ede5083f548414ca29f2dbd76f9eb33917b759a23f9ad9c0f0a164a2f97565e2cdc5281f74a434ea09d2fbf74fbe9319f757b942df7a392010418442199585022d25c8ff9444d40ae9321b17af5e73f9d7779962ff5a19003061a46239b5a5220d05e8dfb464f42ac9123b378f7e53d9b717f9029f3a79605001c40259d5c5426d6588bfd404944aa9725b57ef1e33b99737d922bf1a59407021e42279f5e5624d45a89ff424b46a89527b77cf3e139977d739c25ffab9a090c104c299150582387a047289094afe8a5d780c9db51b962f25a6f6ee9eb91e986375afe24865a8e0ca1d7c792d0000225120fd374bea041ad396de098d9b236b62e3108bbc5c120188ed58d7c0c814b6cd0002fd75090735a258c8a1cfe0d1e42ebfba742b215b9d6dffb7e06d7658411f437b2ae7dfd60c0310ada0f6646e878370f771ccdd37f32bbf5d0039c9b246e1ca9ff5f239bea098052587f4f4eec79aaeb2d08942a47f0f538b99ad72ac2d5eb8ce7f692df0c3b1b2c704a3c83f188792e3cc34ab8d5eb7215f98e9291bf0a6ea7ec74315c0be4fbeb17e71ed1e91f5d1503222275a78ca1ad2a84ecdedaddfea24b413159e647da8b39ec078fd7a18c5e89b2eda435de248240cd23eea3a9b928f0df53fabd70f0dab369afe993be72bd9385a3cb814ba342e25bafdbb79eb181306e829d1e92607d605a721ed023f90ee88b4a315c3e6f69386bd06f1a7df25d9e4e60e7b8421ac51618a7a398b87ad4c68d68020843abffe8ee57466db3de7c7472bb2e74c90710f084fd63b0751264639dca0c4bea0bdb2447fd6724cf326fa551894bd80608701460fcfc49acea9f4e614ab1c8a5002a6c8e62368548f8adadc45052182b0b8909225310f0828c69323f2dcf35ef8b4122634332d1aa4dcd2c2c3742b14e8ba5f993a491278dbd3c31460aa1968e87e957f2ffe0d39e483636615ccc86c78c007ae62358c0492e38ec5da51dd8c2d4fe30e9d916d1561439a64d1b8c2af2fcb974da8a2c065c6205e64a3fe47175192edfe08636820a458d440485068fbf8959f07eaf2f012158fa0f9f5f1df07c552a13eaa87b05809e8f8d9ba5b4dd1279e9568ca2c465d9a2ad8a53f9ec9f7906a231684b333896a37fa81a28cb4def9a19fe4bb42039b777139369166fa00beb23a9a307e725adf2f9e49482042a0604d951fadd1bba083dc71c10dd788d321b939d0fca2a841fafd0d0838257b6fa37b2a953f673b7539adbef5ab9278d06f178a2ca259b21de73325a1c7e64e3a8de2eff896c959b92267fe0d12ccfbd7934a117fa0ebd3c22b7e8dd2a41a802403d4aadfa54c86a40f7c4393e0619bb16583ce07b993640a1fa219edade49b0fdae38f98cef30523b37a05c72924d345182b303f8b78277ae54fb74dd883c485579972d65737c95aa399fe396309e3daa902fd954ec7ddbc5052fac458a1776ea8d61b889d95ec99aa9020ce43cabb21f591f1d4f9a8d5335433238d8f73746aa7f8202cf7c838dc7c48f09196a58916ccd9d9dd389f7fc39d4f1aba37c28d17d5a05f9cd7003be6cc253977f645dc20a7105e0011e2a05927dcb06bfd1390ad2a00ca9e16727b4765fdbe7a89def7764d1fd3d0a884aa8a459166c33288184568dfc4e83ea4fd23ff16cac017a68e04552b9b8b1c177c2e5e23cd00839c22f82f6741e90c59d4fb493209a21a8215d3788e92e7ad3cff28f57a41aaa274d571659a64695b5a113c041cae248f7bdb169493e1f479765124ac1d09317e3a213ba381a347fb2b72b09343d71f456fd8a5eaf01a08ff0cd62567ec25e56fd5fd116df764a4f2b283933abe541caf35bc36591af4ef2318b0ef6d8b8ca813889c176626ba0717d41224cc7f5f456d766d0d64416ab51c1f3a35d56a58d9f12dbcaf3b52e39ba41aebc930a52f6eb5f6a72cb90729df0e023668d9cfbd9d305542a97c54331841dcbd418df252431478914ba2384b996d697aa6c3902744f42d710bcc3eb5656352d261823c1ccded04cfadc1a97b3170c3ab02e113f4b73f8068e4cf6333ccc3b1b88666d9506946f025a8532d1fb176fcdf5ff76589a8a1ff6e7fd657795896c450a90db2f858bb020e3e4d71686ea8fde7efccf6fe98e6114bd60e31b37d0b29fe831a5eeb43d7b2d7714bba565c0c6d47954a335a7ed1f8204dab6ca2cd35a5dddf99fdf310bc4179e2d9ec9c0c3ae5802009ebb072af303fe7449836324b4cfd5c15b80e8bfc1acf963e6926e656075458622d1e13c1868729e738d43aaae80357973e5cab2f0783045cb3c156380d5d44d05ff1164b1f04f638a3b0f12b202e9eef6677927df5740ad8d0ab32f5b4ebb703532061eaba94ddc46f5305745364c64cf64696bd3dfb9fb168e24143dc89c341661c87db53c8e69303e328e4d67329fd9de4efdcff9679c6b5efd7b69dde5a0735113ea85814aff7901bcdc89efb03e5ad1301d5e8bab9bf965ebb826204bb3e5d418ec609b2cce10b1d3a126c032f0998714f6abe7b49ddbb2150645cdc7309fd88fdb2a4caffde6416c71ac1ff0ecfa6ed2795e91171aa8557932aeb653aa1bb48abb64f112b0557c829e1ffd4c292c8089e655dd5d8b655fe40123d3d17ccc504bafdd5c2c336aef4040a8d09fb84c8653c866d7a967163c24614d7aaedbd3f67c5130b253e37615471bbda8a6ff7f969efcd6277144dd99145e4b377af67095381c2e1f6dbd7c4d6bb271786b6d3d55d79a3a2260fe839bf0a361d28c910c3d9f82a6ae7d0a0fdd3350f06641da8c7645b84fe9fa1f210ddfdc08879c9b67bc34d4f9075d60857dbad587142733a256b0fde916885a5f9cc49417795c23c3ac07309495b23d3f151ab0f07c276ac1f80a1675afcfd33c497db2e0124c06715d499e28bb4df931e1acfa306acf9060f72be41f478feae8187a6e46330469cb0532684abbd027933750f0ec7c4210f16ce394e555b6846a70f3b3d7a24ad2b71a8ec0661a7cf084d4c1ad84e4e3145618dcd8f8bd2664864fe507da2cd0862768db091b6aad670c0776485daeaa0a6ead50399d82c9dece348a87a71fa8d74d2262d5a6e91f744476ed15c5c5128734415d5191f6bf762309fe7f6596f5690016f717606790fc16f7b6d8e4cd4638cb8422e67a23406a2211dfe0ff5598c2565fbfd122e6b0732392ddf835146d3a2f08e2d43641a0a406e7eda12ab96fc8b150ce9f52306c17d77ab6009be3fcfbb8615c6b6a0441d0244fec10f158a2e7654b96bc69eee891a5730ed0c2a201d9aa20c81542d4a3fcc5c19598c7f095985b22efc1be8343e4933b73aacc18e4dc1e4318c29b479392c549336ac300b8f3d03275f283e43931711cb518279d7087c2a3af8d72a2052874a34aa4039d26111734695fd48315e4f883583ddef3344c471b4e185496ed7d3cb1db263aa1b5bc74f7e042bc7209f6868220a4744e132ee9791697b5ebb708271840194a519acd833dd2af9c5ee3a2186a1519787abc95c60736eee8791b222498d9db97dd2b9ffa89e91445679b9b219b84450428cf32164501ccbea2ab7acb1c8b038d28dd722475749c044a46b45ec83bf41edf01d0797124e47c3d147e1b35431e26f61b9dd2149c9ceb80424878d635b60575cd515bcb059cf3ad6122dad35c0fe101c955e99f30180a0000622264e8c95a6d5e3ecfb2933525455566493afb0b1dee3ec012436455b7a7b7d98acc1dadbdce2ec0d2c343d3f525354555e6d6f8a9cb3b4f3f5fe000000000000000000000000000000000000000c1a2a3d01fd2105002c395f8793c97b1c6620d49f97990c5f79c5bdfbf36a789facc754d348896dcdda9a9d22b49044a9a29cefd71e0a7379bd4c20b8357fbedf1d5ee9b89ed67eef9a998761066fd9de1c5edf4d5fa159ffc92e25e0131bf4dbaff65068c34324d9992aad4c2c466f63d4024e117c2edd4ad270c4b4e485a3b338cc92b157cd797f6f51290c614b6f2ce3bca157e59b36e3a020df0568c262f25f5626fe722b4c9eba57fc226bca65f0b6783bc558d367e8e5a84c17fb787eb65b333dc0bbf73bbbd186ad0696031e8a92b31b9ae265bb6cb4b7749cda5d2413e0193e6c8b122fc00707a05b88b92ff40551d6073a44e582e4296607ccde9ec119324d47c043c4759379970693acaaf2d8fc58373c6cb7557964f84acdb87cbecd35271a2c6fcd576d4f2d759684ee0294f8ba540f2a445b86fde3b7d37ec4c34b6189e0fabfceb216b93536a9e26d7e009f870fb81670b45fb9a160322f03a348b55ae1d908f18c0a494c01697b72fdd40eba71f4ea54cb9cc5a79ef961492b693bd935d94487899581dbc9b447b8d27b6ec9a26096df8cfac4f9cd63c00175e9a7cace04bf5cc00131b30985cf5bf4d91a3e80165a933a6ce6e4fe8697b6a7657834611e3f78617f5c48d602ccb6f4fb52af0143cc892cc438155966a474a06cc24d9de3beffc3a134527c98d66e2230a3c590536920e7c439fe6c39d333fb0ab9014c2b89e9e470a6bf0c161c8ba9bed77b44bc47fa7ab27576880e6ae5724169a946643eef260826a2a7e19c59590bd93595abef68a71f9babc8707b3479f01c43ba3cd641c12cbeab580a0eceddce2d384f9568b36f0f169899ca8771acd9e673f7a9ae0f76c5acce2f94d40519459aa51b37aa0026c62d7e505224e3708fc7d7cf71cdf55768a7179d86e2f2c444440099e17ede6f1bf4f40238e0076a8779d620871862aa8118ecdf3b64091aab67ee294123325c159c64ad483f0bf0eee7edf52f872d36d0194ad60e4a62e5e1b1e481358d717de3cb4f390ab6bf578ca2b85a47f4ff3bab244d314fc35b0a747dccb2bdaa8b7b1eca41631468741c02ecd954be57a7cdf913e8cddf32ea89f8bc646314fe4091447694f88fcbb5d01ae60c1a9e0f02451c807031692b44ea4b55fee4bcae186c08a59595e24896a28a5c63770d8649a90b77966567bd2cda765fc90cd5ebf68b33780dc83064886848e2eb81078802970168260ba104b047154c7683bd0e3762ed20e3d8490f2fa4f8b4d582861fc042861265c693a2efd4d360a2302e3b093a2c13ec83c2521f84adaa80fd385238cbde09e9dd4ef08e1fa7e49bc0d9d0c78f90a11320c17949cceeb8b44f2754dafa948cb4749cfff2856245d665d6f4f591b4bfd3797129f57ea4187d4154461fb5ee8fbec23c997d819803ab756846ddbbe84ee118032fcad4cf45c3bcf7c5d2124ff60ab4779fb5b677ccdeb261fc613d9c9d7ca319cb97fc1f1304d07fdc0891f35328956a27c5d78b4fb860e0b5dc352762cc05b681a1c69f7d70937814ac92cbde1d51ceef28abd04897e6114a6c86cef8197616618a4dfb25d4d3545fc3c0e2fb53355f7fd5f9bd95437b63adec04666db4eac01feea12f947e2e33aff8df4d09d30c996b7609c2b9d853e192c3dfec75ede517f1ff45d33e8fc9d1b00bed2996ddf9aed972682c59a580974c1b3aa1ba5f2e5068016c296ef3d934ae118284c40c9a809b6089f68f322406269f9747221fa071897efe48a497eb61547045d74c2c5197387e83091b21789d62558faeef9603d7969de3189e08879b4d11db7a1150a079020b98e52761e4fa169aa01cdbe4390d675b3cfb74d954486c5b3d67000000",
  "txid": "6ac6e4f74506e61470747275b470dbd499a87efe800489bb8c538845655c90d7",
  "hash": "0c9c3d398c136af4d4fc7954942913743031d8781adf7b7e1755cc635452fb8f",
  "size": 5085,
  "vsize": 2278,
  "version": 1,
  "locktime": 103,
  "vin": [
    {
      "txid": "b6ec1888a379b8a32002c615d2be524765bdc3b4394a88156a76a768997b298c",
      "vout": 1,
      "scriptSig": {
        "asm": "",
        "hex": ""
      },
      "txinwitness": [
        "0735a258c8a1cfe0d1e42ebfba742b215b9d6dffb7e06d7658411f437b2ae7dfd60c0310ada0f6646e878370f771ccdd37f32bbf5d0039c9b246e1ca9ff5f239bea098052587f4f4eec79aaeb2d08942a47f0f538b99ad72ac2d5eb8ce7f692df0c3b1b2c704a3c83f188792e3cc34ab8d5eb7215f98e9291bf0a6ea7ec74315c0be4fbeb17e71ed1e91f5d1503222275a78ca1ad2a84ecdedaddfea24b413159e647da8b39ec078fd7a18c5e89b2eda435de248240cd23eea3a9b928f0df53fabd70f0dab369afe993be72bd9385a3cb814ba342e25bafdbb79eb181306e829d1e92607d605a721ed023f90ee88b4a315c3e6f69386bd06f1a7df25d9e4e60e7b8421ac51618a7a398b87ad4c68d68020843abffe8ee57466db3de7c7472bb2e74c90710f084fd63b0751264639dca0c4bea0bdb2447fd6724cf326fa551894bd80608701460fcfc49acea9f4e614ab1c8a5002a6c8e62368548f8adadc45052182b0b8909225310f0828c69323f2dcf35ef8b4122634332d1aa4dcd2c2c3742b14e8ba5f993a491278dbd3c31460aa1968e87e957f2ffe0d39e483636615ccc86c78c007ae62358c0492e38ec5da51dd8c2d4fe30e9d916d1561439a64d1b8c2af2fcb974da8a2c065c6205e64a3fe47175192edfe08636820a458d440485068fbf8959f07eaf2f012158fa0f9f5f1df07c552a13eaa87b05809e8f8d9ba5b4dd1279e9568ca2c465d9a2ad8a53f9ec9f7906a231684b333896a37fa81a28cb4def9a19fe4bb42039b777139369166fa00beb23a9a307e725adf2f9e49482042a0604d951fadd1bba083dc71c10dd788d321b939d0fca2a841fafd0d0838257b6fa37b2a953f673b7539adbef5ab9278d06f178a2ca259b21de73325a1c7e64e3a8de2eff896c959b92267fe0d12ccfbd7934a117fa0ebd3c22b7e8dd2a41a802403d4aadfa54c86a40f7c4393e0619bb16583ce07b993640a1fa219edade49b0fdae38f98cef30523b37a05c72924d345182b303f8b78277ae54fb74dd883c485579972d65737c95aa399fe396309e3daa902fd954ec7ddbc5052fac458a1776ea8d61b889d95ec99aa9020ce43cabb21f591f1d4f9a8d5335433238d8f73746aa7f8202cf7c838dc7c48f09196a58916ccd9d9dd389f7fc39d4f1aba37c28d17d5a05f9cd7003be6cc253977f645dc20a7105e0011e2a05927dcb06bfd1390ad2a00ca9e16727b4765fdbe7a89def7764d1fd3d0a884aa8a459166c33288184568dfc4e83ea4fd23ff16cac017a68e04552b9b8b1c177c2e5e23cd00839c22f82f6741e90c59d4fb493209a21a8215d3788e92e7ad3cff28f57a41aaa274d571659a64695b5a113c041cae248f7bdb169493e1f479765124ac1d09317e3a213ba381a347fb2b72b09343d71f456fd8a5eaf01a08ff0cd62567ec25e56fd5fd116df764a4f2b283933abe541caf35bc36591af4ef2318b0ef6d8b8ca813889c176626ba0717d41224cc7f5f456d766d0d64416ab51c1f3a35d56a58d9f12dbcaf3b52e39ba41aebc930a52f6eb5f6a72cb90729df0e023668d9cfbd9d305542a97c54331841dcbd418df252431478914ba2384b996d697aa6c3902744f42d710bcc3eb5656352d261823c1ccded04cfadc1a97b3170c3ab02e113f4b73f8068e4cf6333ccc3b1b88666d9506946f025a8532d1fb176fcdf5ff76589a8a1ff6e7fd657795896c450a90db2f858bb020e3e4d71686ea8fde7efccf6fe98e6114bd60e31b37d0b29fe831a5eeb43d7b2d7714bba565c0c6d47954a335a7ed1f8204dab6ca2cd35a5dddf99fdf310bc4179e2d9ec9c0c3ae5802009ebb072af303fe7449836324b4cfd5c15b80e8bfc1acf963e6926e656075458622d1e13c1868729e738d43aaae80357973e5cab2f0783045cb3c156380d5d44d05ff1164b1f04f638a3b0f12b202e9eef6677927df5740ad8d0ab32f5b4ebb703532061eaba94ddc46f5305745364c64cf64696bd3dfb9fb168e24143dc89c341661c87db53c8e69303e328e4d67329fd9de4efdcff9679c6b5efd7b69dde5a0735113ea85814aff7901bcdc89efb03e5ad1301d5e8bab9bf965ebb826204bb3e5d418ec609b2cce10b1d3a126c032f0998714f6abe7b49ddbb2150645cdc7309fd88fdb2a4caffde6416c71ac1ff0ecfa6ed2795e91171aa8557932aeb653aa1bb48abb64f112b0557c829e1ffd4c292c8089e655dd5d8b655fe40123d3d17ccc504bafdd5c2c336aef4040a8d09fb84c8653c866d7a967163c24614d7aaedbd3f67c5130b253e37615471bbda8a6ff7f969efcd6277144dd99145e4b377af67095381c2e1f6dbd7c4d6bb271786b6d3d55d79a3a2260fe839bf0a361d28c910c3d9f82a6ae7d0a0fdd3350f06641da8c7645b84fe9fa1f210ddfdc08879c9b67bc34d4f9075d60857dbad587142733a256b0fde916885a5f9cc49417795c23c3ac07309495b23d3f151ab0f07c276ac1f80a1675afcfd33c497db2e0124c06715d499e28bb4df931e1acfa306acf9060f72be41f478feae8187a6e46330469cb0532684abbd027933750f0ec7c4210f16ce394e555b6846a70f3b3d7a24ad2b71a8ec0661a7cf084d4c1ad84e4e3145618dcd8f8bd2664864fe507da2cd0862768db091b6aad670c0776485daeaa0a6ead50399d82c9dece348a87a71fa8d74d2262d5a6e91f744476ed15c5c5128734415d5191f6bf762309fe7f6596f5690016f717606790fc16f7b6d8e4cd4638cb8422e67a23406a2211dfe0ff5598c2565fbfd122e6b0732392ddf835146d3a2f08e2d43641a0a406e7eda12ab96fc8b150ce9f52306c17d77ab6009be3fcfbb8615c6b6a0441d0244fec10f158a2e7654b96bc69eee891a5730ed0c2a201d9aa20c81542d4a3fcc5c19598c7f095985b22efc1be8343e4933b73aacc18e4dc1e4318c29b479392c549336ac300b8f3d03275f283e43931711cb518279d7087c2a3af8d72a2052874a34aa4039d26111734695fd48315e4f883583ddef3344c471b4e185496ed7d3cb1db263aa1b5bc74f7e042bc7209f6868220a4744e132ee9791697b5ebb708271840194a519acd833dd2af9c5ee3a2186a1519787abc95c60736eee8791b222498d9db97dd2b9ffa89e91445679b9b219b84450428cf32164501ccbea2ab7acb1c8b038d28dd722475749c044a46b45ec83bf41edf01d0797124e47c3d147e1b35431e26f61b9dd2149c9ceb80424878d635b60575cd515bcb059cf3ad6122dad35c0fe101c955e99f30180a0000622264e8c95a6d5e3ecfb2933525455566493afb0b1dee3ec012436455b7a7b7d98acc1dadbdce2ec0d2c343d3f525354555e6d6f8a9cb3b4f3f5fe000000000000000000000000000000000000000c1a2a3d01",
        "002c395f8793c97b1c6620d49f97990c5f79c5bdfbf36a789facc754d348896dcdda9a9d22b49044a9a29cefd71e0a7379bd4c20b8357fbedf1d5ee9b89ed67eef9a998761066fd9de1c5edf4d5fa159ffc92e25e0131bf4dbaff65068c34324d9992aad4c2c466f63d4024e117c2edd4ad270c4b4e485a3b338cc92b157cd797f6f51290c614b6f2ce3bca157e59b36e3a020df0568c262f25f5626fe722b4c9eba57fc226bca65f0b6783bc558d367e8e5a84c17fb787eb65b333dc0bbf73bbbd186ad0696031e8a92b31b9ae265bb6cb4b7749cda5d2413e0193e6c8b122fc00707a05b88b92ff40551d6073a44e582e4296607ccde9ec119324d47c043c4759379970693acaaf2d8fc58373c6cb7557964f84acdb87cbecd35271a2c6fcd576d4f2d759684ee0294f8ba540f2a445b86fde3b7d37ec4c34b6189e0fabfceb216b93536a9e26d7e009f870fb81670b45fb9a160322f03a348b55ae1d908f18c0a494c01697b72fdd40eba71f4ea54cb9cc5a79ef961492b693bd935d94487899581dbc9b447b8d27b6ec9a26096df8cfac4f9cd63c00175e9a7cace04bf5cc00131b30985cf5bf4d91a3e80165a933a6ce6e4fe8697b6a7657834611e3f78617f5c48d602ccb6f4fb52af0143cc892cc438155966a474a06cc24d9de3beffc3a134527c98d66e2230a3c590536920e7c439fe6c39d333fb0ab9014c2b89e9e470a6bf0c161c8ba9bed77b44bc47fa7ab27576880e6ae5724169a946643eef260826a2a7e19c59590bd93595abef68a71f9babc8707b3479f01c43ba3cd641c12cbeab580a0eceddce2d384f9568b36f0f169899ca8771acd9e673f7a9ae0f76c5acce2f94d40519459aa51b37aa0026c62d7e505224e3708fc7d7cf71cdf55768a7179d86e2f2c444440099e17ede6f1bf4f40238e0076a8779d620871862aa8118ecdf3b64091aab67ee294123325c159c64ad483f0bf0eee7edf52f872d36d0194ad60e4a62e5e1b1e481358d717de3cb4f390ab6bf578ca2b85a47f4ff3bab244d314fc35b0a747dccb2bdaa8b7b1eca41631468741c02ecd954be57a7cdf913e8cddf32ea89f8bc646314fe4091447694f88fcbb5d01ae60c1a9e0f02451c807031692b44ea4b55fee4bcae186c08a59595e24896a28a5c63770d8649a90b77966567bd2cda765fc90cd5ebf68b33780dc83064886848e2eb81078802970168260ba104b047154c7683bd0e3762ed20e3d8490f2fa4f8b4d582861fc042861265c693a2efd4d360a2302e3b093a2c13ec83c2521f84adaa80fd385238cbde09e9dd4ef08e1fa7e49bc0d9d0c78f90a11320c17949cceeb8b44f2754dafa948cb4749cfff2856245d665d6f4f591b4bfd3797129f57ea4187d4154461fb5ee8fbec23c997d819803ab756846ddbbe84ee118032fcad4cf45c3bcf7c5d2124ff60ab4779fb5b677ccdeb261fc613d9c9d7ca319cb97fc1f1304d07fdc0891f35328956a27c5d78b4fb860e0b5dc352762cc05b681a1c69f7d70937814ac92cbde1d51ceef28abd04897e6114a6c86cef8197616618a4dfb25d4d3545fc3c0e2fb53355f7fd5f9bd95437b63adec04666db4eac01feea12f947e2e33aff8df4d09d30c996b7609c2b9d853e192c3dfec75ede517f1ff45d33e8fc9d1b00bed2996ddf9aed972682c59a580974c1b3aa1ba5f2e5068016c296ef3d934ae118284c40c9a809b6089f68f322406269f9747221fa071897efe48a497eb61547045d74c2c5197387e83091b21789d62558faeef9603d7969de3189e08879b4d11db7a1150a079020b98e52761e4fa169aa01cdbe4390d675b3cfb74d954486c5b3d"
      ],
      "sequence": 4294967294
    }
  ],
  "vout": [
    {
      "value": 1.0,
      "n": 0,
      "scriptPubKey": {
        "asm": "OP_RETURN 5395eef8e1cb9814c1463d9bf502c83b6aac913caefae1e02a29c523ecbc05fb f757b942df7a392010418442199585022d25c8ff9444d40ae9321b17af5e73f9d7779962ff5a19003061a46239b5a5220d05e8dfb464f42ac9123b378f7e53d9b717f9029f3a79605001c40259d5c5426d6588bfd404944aa9725b57ef1e33b99737d922bf1a59407021e42279f5e5624d45a89ff424b46a89527b77cf3e139977d739c25ffab9a090c104c299150582ada5487f14c4548a69b29b972fdef37957f719e27fda9980b0e124e2b93525a28d85685f34e474aa4992bbb70ffed359379779821fbaf9e0d0814482d95545c2ede5083f548414ca29f2dbd76f9eb33917b759a23f9ad9c0f0a164a2f97565e2cdc5281f74a434ea09d2fbf74fbe9319f757b942df7a392010418442199585022d25c8ff9444d40ae9321b17af5e73f9d7779962ff5a19003061a46239b5a5220d05e8dfb464f42ac9123b378f7e53d9b717f9029f3a79605001c40259d5c5426d6588bfd404944aa9725b57ef1e33b99737d922bf1a59407021e42279f5e5624d45a89ff424b46a89527b77cf3e139977d739c25ffab9a090c104c299150582ada5487f14c4548a69b29b972fdef37957f719e27fda9980b0e124e2b93525a28d85685f34e474aa4992bbb70ffed359379779821fbaf9e0d0814482d95545c2ede5083f548414ca29f2dbd76f9eb33917b759a23f9ad9c0f0a164a2f97565e2cdc5281f74a434ea09d2fbf74fbe9319f757b942df7a392010418442199585022d25c8ff9444d40ae9321b17af5e73f9d7779962ff5a19003061a46239b5a5220d05e8dfb464f42ac9123b378f7e53d9b717f9029f3a79605001c40259d5c5426d6588bfd404944aa9725b57ef1e33b99737d922bf1a59407021e42279f5e5624d45a89ff424b46a89527b77cf3e139977d739c25ffab9a090c104c299150582ada5487f14c4548a69b29b972fdef37957f719e27fda9980b0e124e2b93525a28d85685f34e474aa4992bbb70ffed359379779821fbaf9e0d0814482d95545c2ede5083f548414ca29f2dbd76f9eb33917b759a23f9ad9c0f0a164a2f97565e2cdc5281f74a434ea09d2fbf74fbe9319f757b942df7a392010418442199585022d25c8ff9444d40ae9321b17af5e73f9d7779962ff5a19003061a46239b5a5220d05e8dfb464f42ac9123b378f7e53d9b717f9029f3a79605001c40259d5c5426d6588bfd404944aa9725b57ef1e33b99737d922bf1a59407021e42279f5e5624d45a89ff424b46a89527b77cf3e139977d739c25ffab9a090c104c299150582ada5487f14c4548a69b29b972fdef37957f719e27fda9980b0e124e2b93525a28d85685f34e474aa4992bbb70ffed359379779821fbaf9e0d0814482d95545c2ede5083f548414ca29f2dbd76f9eb33917b759a23f9ad9c0f0a164a2f97565e2cdc5281f74a434ea09d2fbf74fbe9319f757b942df7a392010418442199585022d25c8ff9444d40ae9321b17af5e73f9d7779962ff5a19003061a46239b5a5220d05e8dfb464f42ac9123b378f7e53d9b717f9029f3a79605001c40259d5c5426d6588bfd404944aa9725b57ef1e33b99737d922bf1a59407021e42279f5e5624d45a89ff424b46a89527b77cf3e139977d739c25ffab9a090c104c299150582387a047289094afe8a5d780c9db51b962f25a6f6ee9eb91e986375afe24865a8",
        "hex": "6a205395eef8e1cb9814c1463d9bf502c83b6aac913caefae1e02a29c523ecbc05fb4db004f757b942df7a392010418442199585022d25c8ff9444d40ae9321b17af5e73f9d7779962ff5a19003061a46239b5a5220d05e8dfb464f42ac9123b378f7e53d9b717f9029f3a79605001c40259d5c5426d6588bfd404944aa9725b57ef1e33b99737d922bf1a59407021e42279f5e5624d45a89ff424b46a89527b77cf3e139977d739c25ffab9a090c104c299150582ada5487f14c4548a69b29b972fdef37957f719e27fda9980b0e124e2b93525a28d85685f34e474aa4992bbb70ffed359379779821fbaf9e0d0814482d95545c2ede5083f548414ca29f2dbd76f9eb33917b759a23f9ad9c0f0a164a2f97565e2cdc5281f74a434ea09d2fbf74fbe9319f757b942df7a392010418442199585022d25c8ff9444d40ae9321b17af5e73f9d7779962ff5a19003061a46239b5a5220d05e8dfb464f42ac9123b378f7e53d9b717f9029f3a79605001c40259d5c5426d6588bfd404944aa9725b57ef1e33b99737d922bf1a59407021e42279f5e5624d45a89ff424b46a89527b77cf3e139977d739c25ffab9a090c104c299150582ada5487f14c4548a69b29b972fdef37957f719e27fda9980b0e124e2b93525a28d85685f34e474aa4992bbb70ffed359379779821fbaf9e0d0814482d95545c2ede5083f548414ca29f2dbd76f9eb33917b759a23f9ad9c0f0a164a2f97565e2cdc5281f74a434ea09d2fbf74fbe9319f757b942df7a392010418442199585022d25c8ff9444d40ae9321b17af5e73f9d7779962ff5a19003061a46239b5a5220d05e8dfb464f42ac9123b378f7e53d9b717f9029f3a79605001c40259d5c5426d6588bfd404944aa9725b57ef1e33b99737d922bf1a59407021e42279f5e5624d45a89ff424b46a89527b77cf3e139977d739c25ffab9a090c104c299150582ada5487f14c4548a69b29b972fdef37957f719e27fda9980b0e124e2b93525a28d85685f34e474aa4992bbb70ffed359379779821fbaf9e0d0814482d95545c2ede5083f548414ca29f2dbd76f9eb33917b759a23f9ad9c0f0a164a2f97565e2cdc5281f74a434ea09d2fbf74fbe9319f757b942df7a392010418442199585022d25c8ff9444d40ae9321b17af5e73f9d7779962ff5a19003061a46239b5a5220d05e8dfb464f42ac9123b378f7e53d9b717f9029f3a79605001c40259d5c5426d6588bfd404944aa9725b57ef1e33b99737d922bf1a59407021e42279f5e5624d45a89ff424b46a89527b77cf3e139977d739c25ffab9a090c104c299150582ada5487f14c4548a69b29b972fdef37957f719e27fda9980b0e124e2b93525a28d85685f34e474aa4992bbb70ffed359379779821fbaf9e0d0814482d95545c2ede5083f548414ca29f2dbd76f9eb33917b759a23f9ad9c0f0a164a2f97565e2cdc5281f74a434ea09d2fbf74fbe9319f757b942df7a392010418442199585022d25c8ff9444d40ae9321b17af5e73f9d7779962ff5a19003061a46239b5a5220d05e8dfb464f42ac9123b378f7e53d9b717f9029f3a79605001c40259d5c5426d6588bfd404944aa9725b57ef1e33b99737d922bf1a59407021e42279f5e5624d45a89ff424b46a89527b77cf3e139977d739c25ffab9a090c104c299150582387a047289094afe8a5d780c9db51b962f25a6f6ee9eb91e986375afe24865a8",
        "type": "nulldata"
      }
    },
    {
      "value": 499997.9662,
      "n": 1,
      "scriptPubKey": {
        "asm": "1 fd374bea041ad396de098d9b236b62e3108bbc5c120188ed58d7c0c814b6cd00",
        "hex": "5120fd374bea041ad396de098d9b236b62e3108bbc5c120188ed58d7c0c814b6cd00",
        "reqSigs": 1,
        "type": "witness_v1_scripthash",
        "addresses": [
          "3QJmnh"
        ]
      }
    }
  ],
  "blockhash": "15af9b025c636b87e0a10c18a1a8de0e5f3c2069ad563b293161176d75df89a4",
  "confirmations": 1,
  "time": 1764174659,
  "blocktime": 1764174659
}