{
  "hex": "01000000000101e0534fe0f886f4a2f2f94c1812ca76186b6722ec0ea8ca7bae960f8af31d776e0000000000feffffff0200e1f50500000000fdd5046a20f33cea0ca16437a1c280e4b8c8e03668b342b2ef28b85fe96b0aea91aa3d595c4db00468fc835aed44f550a7269eb3b71d24c847d7543dc42deb0689722ff77cf7b61a48dca37acd64d5708706be93973d04e867f7741de40dcb26a9520fd75cd7963a28bcc31aad04b510e766def3f75d64880797147d846dab46c9326fb73cb7f65a089ce33a8d249530c746fed3d77d44a827b7345da44d8b66e9124f971c97d67ae87c03da6dc475d027a61e33379da448c757d4bd44ad6b8609f2af77fc77369ac85c23fa4de455f007863e1317bd8468e777f49d648d4ba629d28f57dc5716baa83c439a2d84359067e65e7377dde408871794fd04ed2bc649b2ef37bc3776da881c63ba0da415b047c67e5357fdc428a737b4dd24cd0be66992cf179c1756fa68fc835aed44f550a7269eb3b71d24c847d7543dc42deb0689722ff77cf7b61a48dca37acd64d5708706be93973d04e867f7741de40dcb26a9520fd75cd7963a28bcc31aad04b510e766def3f75d64880797147d846dab46c9326fb73cb7f65a089ce33a8d249530c746fed3d77d44a827b7345da44d8b66e9124f971c97d67ae87c03da6dc475d027a61e33379da448c757d4bd44ad6b8609f2af77fc77369ac85c23fa4de455f007863e1317bd8468e777f49d648d4ba629d28f57dc5716baa83c439a2d84359067e65e7377dde408871794fd04ed2bc649b2ef37bc3776da881c63ba0da415b047c67e5357fdc428a737b4dd24cd0be66992cf179c1756fa68fc835aed44f550a7269eb3b71d24c847d7543dc42deb0689722ff77cf7b61a48dca37acd64d5708706be93973d04e867f7741de40dcb26a9520fd75cd7963a28bcc31aad04b510e766def3f75d64880797147d846dab46c9326fb73cb7f65a089ce33a8d249530c746fed3d77d44a827b7345da44d8b66e9124f971c97d67ae87c03da6dc475d027a61e33379da448c757d4bd44ad6b8609f2af77fc77369ac85c23fa4de455f007863e1317bd8468e777f49d648d4ba629d28f57dc5716baa83c439a2d84359067e65e7377dde408871794fd04ed2bc649b2ef37bc3776da881c63ba0da415b047c67e5357fdc428a737b4dd24cd0be66992cf179c1756fa68fc835aed44f550a7269eb3b71d24c847d7543dc42deb0689722ff77cf7b61a48dca37acd64d5708706be93973d04e867f7741de40dcb26a9520fd75cd7963a28bcc31aad04b510e766def3f75d64880797147d846dab46c9326fb73cb7f65a089ce33a8d249530c746fed3d77d44a827b7345da44d8b66e9124f971c97d67ae87c03da6dc475d027a61e33379da448c757d4bd44ad6b8609f2af77fc77369ac85c23fa4de455f007863e1317bd8468e777f49d648d4ba629d28f57dc5716baa83c439a2d84359067e65e7377dde408871794fd04ed2bc649b2ef37bc3776da881c63ba0da415b047c67e5357fdc428a737b4dd24cd0be66992cf179c1756fa68fc835aed44f550a7269eb3b71d24c847d7543dc42deb0689722ff77cf7b61a48dca37acd64d5708706be93973d04e867f7741de40dcb26a9520fd75cd7963a28bcc31aad04b510e766def3f75d64880797147d846dab46c9326fb73cb7f65a089ce33a8d249530c746fed3d77d44a827b7345da44d8b66e9124f971c97d67ae87c03da6dc475d027a61e33379da448eba4afd1c0073cf14631679a2734953b2f3c11a9baa23da8e0370b428c9c19f210cdd4fc782d00002251205b179a45623225cf5c3214992243822871d43860995de37538a66fca36db23cb02fd750977216650aff304543e2d4a1c68618f25a89f209ab01b1df52d40f29e55cf8447f836f17b8f43507af31b3e7086d6326cb35a2b6e3e61431180f39917a4628f5ebc6e1ef82ae22b95bb4f3bd49f687e862f408de00649b60b0f8b385aa8f71105f089a2e2d1ca79d20c04da8a5cb95911d5b2f577ce5cfe7ae5b4bfb526656d72f903c181b9b1724d0844ab7f2817dc27e4b494f7a5a881b21e131f4977f9fa2e2f05b28e0384ca96502581117bcbe69ed3d2edd508d6aee85647f37d352fed1ad1a6fecf084376150017bdc6c6c46358ab02ff9abf394430185a41340f547ed1d8b0fabbea65fffed859c2b7b3aa09593ef425304e2532d36f93a433e4282eabce9339240c21038d371b714c807f59701aa02999301a26d3cc2e86f67af1fb9d1d3c8a9de081dbcfbe5176ffb30981ea38bfd797ad132f0b7fa7631b22854d55addd1a8f9e94fb18ccb088dee59e23a2025d61f5f296a0415030a4db29068439e2c3e09cd9b0cde98660fe4453c771b692ad78997beff9c6d6d6c7313e635df5b6022d79e44a06ae019a14e845b4c8bc6a98dc28e1e10dd05b11b8498b46b88489184c58e6d6f0a86173451e072fe75cd1f58d59b4c5e60ee50071c918b47c06ca7e0ab44819bea2ad105365f7f6569c00083f9bd59df09e50da5c2c708d2f4599fd7a0542e1951ea5a2ec04e1c9b761fd55c62185467eb847bb64e847580990046cf7b694ea21016af380eca988a4077503fe66ddb3dea6631eb333ee3a3b7596946409ba83a1cc6836ef9aac8d5a851e7ea4cf8260e77ee896951d2fb47ae919b7114544465d8efce68153f6c0096fc46f25b027ed4ee9f6c77ac6c4d9a5532d377128bc1551af036c533108a4600c868aa98def2eb0c30b38d6151080f77864ed786d5f67d504800390bcb79f71ff9bb458d09c9a3ba2a91dfcb7bc68e97868511e39483993941a50d7207ac003568efca064b598db5b0ecfe59a9714bf2f207fa0862dec28366edc996d2fb17afa98e7c79a005f7135d70e77cdf77464ce4e6e9cd491f818a86aa1afc6133183541148a53d09fa2acef743ad35c8258eac6a5e75a8d114c102c739a144449df4dd5453d174518dbc325df6e2ad0ee689d68435bb49f04bc90d92c97b7d462f4b0b7151a8dfbd02a99237ec6e8a41f0f011f7d5d1396df4733dd3efe9d641386fbb3fc09605c00a71f6881ceeb40c60138a085a399eef81561869fd66c32072ed47da3583e40ef24238981fadbe8847a921c7c0c0b3d4a049dbc435f831bff4fc135270a32a182e2f7a7b8402a705f9a14b60d07dfbe7c40c4c98a9bf449d4a4c57917b1c3fbf033e60ffe20700b55a3a02b6d5963b200f7cecbe951f12cc057c66cad9d3691cf9319d98e8d123722e3a3fb4a34783d3b8ccac1a185a65adb5214afa1c501aaefae221ee1e3e72e9ee2a0221338ea9b333f95a34f1691b775a6938261f084a812db9fc0e48c12a2a6c9ea73c7275dae61bd07954f56eb47b7538c3cb73ca88eb6bfd79006e0d5b6d716c7a0316d93d3876287b28370fe9aff4ec2e4b083ef0893b472c096d3d23c8ca3912dc3e6f5c5ffe6e8c98967cbb7565fd873552a730ea1862ba3550f581691bbea9ca56e615319e6b73cc4cf67458a879e50b3425d495b807713105acb5b2d33870f6ad92f4d1def8b3c6c7517851e7a0247f0911c36d9056542107999911569f0de2df80d409ea22a60744cfdd9abec1d0b7d2467b30bc8e4d84c4998697c758db93fe62a175be82c901a52a542e769f87b92f7fbaf0a8674a226bb69cbab2eceb4ac150babfaa3891aad0352945b3a5a676527b3fa748d82b323d900e87103e6b35b45d53f5dc6cc79ab39666eb548195e35c5e4df5da900c4f1fc7510ebd7bd7e31bcd5c4345c6a6d81777c16ec019d2138bc587d008a908cc9ab57aac6ea0f76339935093c9e3e0ca46308dfb6c66f32381be92117ba51410148639abc94f37b62d7aafb07e06a2f4b9c6e77038af8220b7b137acdcc5febbf9eab01adb30d359f2c89cef027585c2a352d583630ee8419fb9fa114ed59d11770e14c8f1098f43117a1ca1ab2bed17d158a5e9505046894d4d763be170c2d21c591d7ddd1b88b079630e775592c6b7f6313866305a3aeb4c0e3bd2ef241f501325bf2be6ff1e69ac88bfd1c44f0bd58f745c4cb8f25fc4e5c591ff5455ad4f8cf9cde783da2c0f9e99b3c54f7f0cfb5a6b76f20b564e13b9ed1bd0f405dfde995a756fd6544505009436f1a5d40c8e02d5b37c4e8718b6468d42253fde60937a1d6cae8ef1584a8b5cf7b462a095c519fa313c268c529afde8676ee722ecc2fbe051b1acbb1f5f0de358a61f0cea3f37bfaee7e41f5765ecc8f64f1faf5a464d016cc9f5d6a9827f68e8f9e19e9d48893885aa84c04cd9569987faa6eeab5d5173d01a54bc91bd82fa63d22b152fec525854ed142963929c910ecec1ff58716257961472151fafb7a70a761e7169692627ceed52b1d48ba069d65e436cc46b1dd65adf017e13a1629159850f3608cbd496dfae2411549bfa9f40100d4aaccf40a7691c233b8eb120dacf2aeed9f000b50a8438a3cd94899737b0c65e91096637536617f10d539378e8d9134f884eab0905c1dff98d9ec018a825ee1e9ae715dec01caca6c5947321aa95ba4347b961d7d3467fe3516c3ab1eeac06cf3505e036438d5943f7e57345df062aa382c7785fcc10974521e1721d2911cdf4186c93deeaf9a76bd8a2ac86fe1eee3091273bccb6c1c53da571f27db88b954c122d192e3ba37fd0b9798e2ed2eef9bc35833130d20d0914df763f67a4bae865c349569886c715675ea17e6b9223f8be571bb010c90383db05f776dd69b9f87f06853f3c0f85e2dcebb1bc68819fdc91378af6e3d3abb482620eea3882802744fa6195121cde09fe7fa59d5ca6db9f9a329ceb588d683952517abb2969f88bc86c90f2f14d07187e7f35078b12cc6dfd909c021e4af743672ca5cf81f6bbf33c6b2a697a79f0300330bfe13f843e50fc3c8695e22e968ec841e74fdf75ab8dad6cdd5f22865c24c987234737128ef747457b0de999cbdf2a2af8d3dbef701043c3aa65d74560d6bdb316857fdf8afd1668a63458d89d909ceb419c3653a70f70bd989208d1596ee5bb7cd8d0e7b8fdc82d2b32d812a02e9b2d33b9b136cebb7286da63a7b48fec0c9c39d023cfca783bd3ee49bfc3b1c6eb820daf4722c5d7a61a6ff9489e76ebdfd46776e03aac802e81bb6227f0300aeb053489f705cd0712c82585e4d5cf2b86d89f1c59698391a4aab2b4d5d6edf4fa12183f455f6467858d94a5a7c4cdd9dee6f90d1b2c33353e4f5c9397aaacb2d2d6eff3f6fe071444454754666b7c8b90a2a8adbdd9dcfb00000000000000000000000e20334501fd210500fbd6ff3e83244541485ca1ab8e801493b1531a5a4941cb2509f062743eb5c10df1053ccd04ec18cf04354a16d189e1f15dbd462599ef1d4c9a0b9974f74c908eb4853813ab9000978d828a7d6154b8a1ca42542e2df704ed672a6e15bcac6458bf15608c2571bcfbd7486f514536df7e6980c5e69e0a5d0969fa7d5475086c1ea9fdaa5df4415e7177af32b9bd30cda76ff391d571f8175e7b1993bee69ee26a67bddd708dea19746bf320fd80f5d78c6483daa4ae8d4b9ccf0bad5550b972b90ead7d08826dd301f02345b2f4ca623bb401f72672ef08f5196c8a80e2f3ea9e4460a9be8d7662bd7bec9d700cbc6ab3326c4405d37be69384cde0acfb7aee6269c91593ee9ebe5651e9b3fae2f32aeb67c79a8fc73defc89e455d6b6d9a1443b4064da4c99c36b1747f228245f10afb75696a2fd91010b4031f8752f69f1f2910c7f3533965ef0ab2a417460b9fd76932864742b0da460a87fe669d7a8235b784d5592144f763c5cbc9bda7fc5b9bcd3048147d670c303ccd994abdb55b0d6162c8e46839afd522f477d57d59e6cb14d43daa35969f559eebbae97efd06d129dc29f1cd04ddc0189432d19f946e42161b171ffb8ee0a1968c25aa54e49a852223ddc2ddab6886bb45dce83df74028bfe186749402a8729c98e7b55c27f8d4de5bbdcbd22d6835e32d8c2a5bccd611aecaf56f256ed6d896a85e62e7c4f09b61d642cced4be05e517e57550e7008e7e051d640f2d5934619b4d089355add62d28b49b9ec7b8d28d08628dc29427a93a705932f8a173d3635b9744a5f511984f4d422857897b0189a12e952be39cbcccf9ec5cb74cf56d417f484b1db30d745a612486e725551486e1c2cd0383d2cfae2fa94128eeb0935f967f08e251415b1ab9d00d0b05d338257295285e61831c010fe31442cd0b708578e753f7a75aa5834a18295952ec2699e46d6951b4c9ea60571ae30ce9d4e89e613adf1223e834d0052380757a0576bc317fa7b3cfc0c14616212f7953482fb6e2cddf0a7bebee7ff949c95db09da74b920c3b3b0a2c4fc29832739b5cd105d3c1d952930a48aae27f7a0cdc1e47fe49d72f44d1e70435c5a94ba362cfe99d6a670db6935fde1e54a7b4bee2895ddae98d54ae3d158dd33d2280e2397bb1c0606cb1b0795efa5f1192a367accfcbbd2a2744ed6f5e16f16ce37a2ed900bbb73646e412e35cac908722ecb2cdb5cedc4be799349f84da60f4fde1dda3e77878f64e69049302cbd352cc688e77c9d312a17ef6706083196a82073ba4047b817a6a93513ddf5217c814cf2b2fb3f14d4a61dde4d3a0c408f3987bac9baaa84e1fec2b58e93a03122b937e311392281fdcaf7290654a31b17ded214dd5c21da29de79f0293084e1eb86be3f695e08c3adbb40e6a055b8be114f96e08a198e5baaa8e5765dc6cf6592b3bbeef5144fe60f74c9d1245dd43340c2fae90fa65a03fba02911b4bc02be8a0c1cc3027ebe6ffec1200a6e6d6bc769d9e8b1b9dcaadc66a326734b1ea1c83f9db2b67f660d888f6ab70c59a76647f05c2a25b50183c33c72fda9eb81742f9e5fae294288f77a94f2ed8a3ee001f7d768a2a8ae4ce0a6f743e7a72863b32a5d14037736e89360e8026c24b3120266102d4c1ca7b3f145240d147c8465ab65cbc19059f59722694587c72941104a7447baf90bcf3c48fd2c2f57198075f40cee210e845c46fa8343fe830d3ad770fde1907994a3bccc3486465ae113ecf2637c8e16554be452f3d7d470bf3b16542df59f147502b6e78f3b87d9e12c3691bc944c3ef09d27808e6ad0c09f7f44f0c97d45859d99f4cc36231cff5696736e0746a19679000000",
  "txid": "6a2009198f85e2fd928a6dd63797dced14e853bc73fcfc930551bf47595995ca",
  "hash": "8191b334931dd8304362ccee1c02a47750b4eb43cb30ad2ac3afafb44baee201",
  "size": 5085,
  "vsize": 2278,
  "version": 1,
  "locktime": 121,
  "vin": [
    {
      "txid": "6e771df38a0f96ae7bcaa80eec22676b1876ca12184cf9f2a2f486f8e04f53e0",
      "vout": 0,
      "scriptSig": {
        "asm": "",
        "hex": ""
      },
      "txinwitness": [
        "77216650aff304543e2d4a1c68618f25a89f209ab01b1df52d40f29e55cf8447f836f17b8f43507af31b3e7086d6326cb35a2b6e3e61431180f39917a4628f5ebc6e1ef82ae22b95bb4f3bd49f687e862f408de00649b60b0f8b385aa8f71105f089a2e2d1ca79d20c04da8a5cb95911d5b2f577ce5cfe7ae5b4bfb526656d72f903c181b9b1724d0844ab7f2817dc27e4b494f7a5a881b21e131f4977f9fa2e2f05b28e0384ca96502581117bcbe69ed3d2edd508d6aee85647f37d352fed1ad1a6fecf084376150017bdc6c6c46358ab02ff9abf394430185a41340f547ed1d8b0fabbea65fffed859c2b7b3aa09593ef425304e2532d36f93a433e4282eabce9339240c21038d371b714c807f59701aa02999301a26d3cc2e86f67af1fb9d1d3c8a9de081dbcfbe5176ffb30981ea38bfd797ad132f0b7fa7631b22854d55addd1a8f9e94fb18ccb088dee59e23a2025d61f5f296a0415030a4db29068439e2c3e09cd9b0cde98660fe4453c771b692ad78997beff9c6d6d6c7313e635df5b6022d79e44a06ae019a14e845b4c8bc6a98dc28e1e10dd05b11b8498b46b88489184c58e6d6f0a86173451e072fe75cd1f58d59b4c5e60ee50071c918b47c06ca7e0ab44819bea2ad105365f7f6569c00083f9bd59df09e50da5c2c708d2f4599fd7a0542e1951ea5a2ec04e1c9b761fd55c62185467eb847bb64e847580990046cf7b694ea21016af380eca988a4077503fe66ddb3dea6631eb333ee3a3b7596946409ba83a1cc6836ef9aac8d5a851e7ea4cf8260e77ee896951d2fb47ae919b7114544465d8efce68153f6c0096fc46f25b027ed4ee9f6c77ac6c4d9a5532d377128bc1551af036c533108a4600c868aa98def2eb0c30b38d6151080f77864ed786d5f67d504800390bcb79f71ff9bb458d09c9a3ba2a91dfcb7bc68e97868511e39483993941a50d7207ac003568efca064b598db5b0ecfe59a9714bf2f207fa0862dec28366edc996d2fb17afa98e7c79a005f7135d70e77cdf77464ce4e6e9cd491f818a86aa1afc6133183541148a53d09fa2acef743ad35c8258eac6a5e75a8d114c102c739a144449df4dd5453d174518dbc325df6e2ad0ee689d68435bb49f04bc90d92c97b7d462f4b0b7151a8dfbd02a99237ec6e8a41f0f011f7d5d1396df4733dd3efe9d641386fbb3fc09605c00a71f6881ceeb40c60138a085a399eef81561869fd66c32072ed47da3583e40ef24238981fadbe8847a921c7c0c0b3d4a049dbc435f831bff4fc135270a32a182e2f7a7b8402a705f9a14b60d07dfbe7c40c4c98a9bf449d4a4c57917b1c3fbf033e60ffe20700b55a3a02b6d5963b200f7cecbe951f12cc057c66cad9d3691cf9319d98e8d123722e3a3fb4a34783d3b8ccac1a185a65adb5214afa1c501aaefae221ee1e3e72e9ee2a0221338ea9b333f95a34f1691b775a6938261f084a812db9fc0e48c12a2a6c9ea73c7275dae61bd07954f56eb47b7538c3cb73ca88eb6bfd79006e0d5b6d716c7a0316d93d3876287b28370fe9aff4ec2e4b083ef0893b472c096d3d23c8ca3912dc3e6f5c5ffe6e8c98967cbb7565fd873552a730ea1862ba3550f581691bbea9ca56e615319e6b73cc4cf67458a879e50b3425d495b807713105acb5b2d33870f6ad92f4d1def8b3c6c7517851e7a0247f0911c36d9056542107999911569f0de2df80d409ea22a60744cfdd9abec1d0b7d2467b30bc8e4d84c4998697c758db93fe62a175be82c901a52a542e769f87b92f7fbaf0a8674a226bb69cbab2eceb4ac150babfaa3891aad0352945b3a5a676527b3fa748d82b323d900e87103e6b35b45d53f5dc6cc79ab39666eb548195e35c5e4df5da900c4f1fc7510ebd7bd7e31bcd5c4345c6a6d81777c16ec019d2138bc587d008a908cc9ab57aac6ea0f76339935093c9e3e0ca46308dfb6c66f32381be92117ba51410148639abc94f37b62d7aafb07e06a2f4b9c6e77038af8220b7b137acdcc5febbf9eab01adb30d359f2c89cef027585c2a352d583630ee8419fb9fa114ed59d11770e14c8f1098f43117a1ca1ab2bed17d158a5e9505046894d4d763be170c2d21c591d7ddd1b88b079630e775592c6b7f6313866305a3aeb4c0e3bd2ef241f501325bf2be6ff1e69ac88bfd1c44f0bd58f745c4cb8f25fc4e5c591ff5455ad4f8cf9cde783da2c0f9e99b3c54f7f0cfb5a6b76f20b564e13b9ed1bd0f405dfde995a756fd6544505009436f1a5d40c8e02d5b37c4e8718b6468d42253fde60937a1d6cae8ef1584a8b5cf7b462a095c519fa313c268c529afde8676ee722ecc2fbe051b1acbb1f5f0de358a61f0cea3f37bfaee7e41f5765ecc8f64f1faf5a464d016cc9f5d6a9827f68e8f9e19e9d48893885aa84c04cd9569987faa6eeab5d5173d01a54bc91bd82fa63d22b152fec525854ed142963929c910ecec1ff58716257961472151fafb7a70a761e7169692627ceed52b1d48ba069d65e436cc46b1dd65adf017e13a1629159850f3608cbd496dfae2411549bfa9f40100d4aaccf40a7691c233b8eb120dacf2aeed9f000b50a8438a3cd94899737b0c65e91096637536617f10d539378e8d9134f884eab0905c1dff98d9ec018a825ee1e9ae715dec01caca6c5947321aa95ba4347b961d7d3467fe3516c3ab1eeac06cf3505e036438d5943f7e57345df062aa382c7785fcc10974521e1721d2911cdf4186c93deeaf9a76bd8a2ac86fe1eee3091273bccb6c1c53da571f27db88b954c122d192e3ba37fd0b9798e2ed2eef9bc35833130d20d0914df763f67a4bae865c349569886c715675ea17e6b9223f8be571bb010c90383db05f776dd69b9f87f06853f3c0f85e2dcebb1bc68819fdc91378af6e3d3abb482620eea3882802744fa6195121cde09fe7fa59d5ca6db9f9a329ceb588d683952517abb2969f88bc86c90f2f14d07187e7f35078b12cc6dfd909c021e4af743672ca5cf81f6bbf33c6b2a697a79f0300330bfe13f843e50fc3c8695e22e968ec841e74fdf75ab8dad6cdd5f22865c24c987234737128ef747457b0de999cbdf2a2af8d3dbef701043c3aa65d74560d6bdb316857fdf8afd1668a63458d89d909ceb419c3653a70f70bd989208d1596ee5bb7cd8d0e7b8fdc82d2b32d812a02e9b2d33b9b136cebb7286da63a7b48fec0c9c39d023cfca783bd3ee49bfc3b1c6eb820daf4722c5d7a61a6ff9489e76ebdfd46776e03aac802e81bb6227f0300aeb053489f705cd0712c82585e4d5cf2b86d89f1c59698391a4aab2b4d5d6edf4fa12183f455f6467858d94a5a7c4cdd9dee6f90d1b2c33353e4f5c9397aaacb2d2d6eff3f6fe071444454754666b7c8b90a2a8adbdd9dcfb00000000000000000000000e20334501",
        "00fbd6ff3e83244541485ca1ab8e801493b1531a5a4941cb2509f062743eb5c10df1053ccd04ec18cf04354a16d189e1f15dbd462599ef1d4c9a0b9974f74c908eb4853813ab9000978d828a7d6154b8a1ca42542e2df704ed672a6e15bcac6458bf15608c2571bcfbd7486f514536df7e6980c5e69e0a5d0969fa7d5475086c1ea9fdaa5df4415e7177af32b9bd30cda76ff391d571f8175e7b1993bee69ee26a67bddd708dea19746bf320fd80f5d78c6483daa4ae8d4b9ccf0bad5550b972b90ead7d08826dd301f02345b2f4ca623bb401f72672ef08f5196c8a80e2f3ea9e4460a9be8d7662bd7bec9d700cbc6ab3326c4405d37be69384cde0acfb7aee6269c91593ee9ebe5651e9b3fae2f32aeb67c79a8fc73defc89e455d6b6d9a1443b4064da4c99c36b1747f228245f10afb75696a2fd91010b4031f8752f69f1f2910c7f3533965ef0ab2a417460b9fd76932864742b0da460a87fe669d7a8235b784d5592144f763c5cbc9bda7fc5b9bcd3048147d670c303ccd994abdb55b0d6162c8e46839afd522f477d57d59e6cb14d43daa35969f559eebbae97efd06d129dc29f1cd04ddc0189432d19f946e42161b171ffb8ee0a1968c25aa54e49a852223ddc2ddab6886bb45dce83df74028bfe186749402a8729c98e7b55c27f8d4de5bbdcbd22d6835e32d8c2a5bccd611aecaf56f256ed6d896a85e62e7c4f09b61d642cced4be05e517e57550e7008e7e051d640f2d5934619b4d089355add62d28b49b9ec7b8d28d08628dc29427a93a705932f8a173d3635b9744a5f511984f4d422857897b0189a12e952be39cbcccf9ec5cb74cf56d417f484b1db30d745a612486e725551486e1c2cd0383d2cfae2fa94128eeb0935f967f08e251415b1ab9d00d0b05d338257295285e61831c010fe31442cd0b708578e753f7a75aa5834a18295952ec2699e46d6951b4c9ea60571ae30ce9d4e89e613adf1223e834d0052380757a0576bc317fa7b3cfc0c14616212f7953482fb6e2cddf0a7bebee7ff949c95db09da74b920c3b3b0a2c4fc29832739b5cd105d3c1d952930a48aae27f7a0cdc1e47fe49d72f44d1e70435c5a94ba362cfe99d6a670db6935fde1e54a7b4bee2895ddae98d54ae3d158dd33d2280e2397bb1c0606cb1b0795efa5f1192a367accfcbbd2a2744ed6f5e16f16ce37a2ed900bbb73646e412e35cac908722ecb2cdb5cedc4be799349f84da60f4fde1dda3e77878f64e69049302cbd352cc688e77c9d312a17ef6706083196a82073ba4047b817a6a93513ddf5217c814cf2b2fb3f14d4a61dde4d3a0c408f3987bac9baaa84e1fec2b58e93a03122b937e311392281fdcaf7290654a31b17ded214dd5c21da29de79f0293084e1eb86be3f695e08c3adbb40e6a055b8be114f96e08a198e5baaa8e5765dc6cf6592b3bbeef5144fe60f74c9d1245dd43340c2fae90fa65a03fba02911b4bc02be8a0c1cc3027ebe6ffec1200a6e6d6bc769d9e8b1b9dcaadc66a326734b1ea1c83f9db2b67f660d888f6ab70c59a76647f05c2a25b50183c33c72fda9eb81742f9e5fae294288f77a94f2ed8a3ee001f7d768a2a8ae4ce0a6f743e7a72863b32a5d14037736e89360e8026c24b3120266102d4c1ca7b3f145240d147c8465ab65cbc19059f59722694587c72941104a7447baf90bcf3c48fd2c2f57198075f40cee210e845c46fa8343fe830d3ad770fde1907994a3bccc3486465ae113ecf2637c8e16554be452f3d7d470bf3b16542df59f147502b6e78f3b87d9e12c3691bc944c3ef09d27808e6ad0c09f7f44f0c97d45859d99f4cc36231cff5696736e0746a196"
      ],
      "sequence": 4294967294
    }
  ],
  "vout": [
    {
      "value": 1.0,
      "n": 0,
      "scriptPubKey": {
        "asm": "OP_RETURN f33cea0ca16437a1c280e4b8c8e03668b342b2ef28b85fe96b0aea91aa3d595c 68fc835aed44f550a7269eb3b71d24c847d7543dc42deb0689722ff77cf7b61a48dca37acd64d5708706be93973d04e867f7741de40dcb26a9520fd75cd7963a28bcc31aad04b510e766def3f75d64880797147d846dab46c9326fb73cb7f65a089ce33a8d249530c746fed3d77d44a827b7345da44d8b66e9124f971c97d67ae87c03da6dc475d027a61e33379da448c757d4bd44ad6b8609f2af77fc77369ac85c23fa4de455f007863e1317bd8468e777f49d648d4ba629d28f57dc5716baa83c439a2d84359067e65e7377dde408871794fd04ed2bc649b2ef37bc3776da881c63ba0da415b047c67e5357fdc428a737b4dd24cd0be66992cf179c1756fa68fc835aed44f550a7269eb3b71d24c847d7543dc42deb0689722ff77cf7b61a48dca37acd64d5708706be93973d04e867f7741de40dcb26a9520fd75cd7963a28bcc31aad04b510e766def3f75d64880797147d846dab46c9326fb73cb7f65a089ce33a8d249530c746fed3d77d44a827b7345da44d8b66e9124f971c97d67ae87c03da6dc475d027a61e33379da448c757d4bd44ad6b8609f2af77fc77369ac85c23fa4de455f007863e1317bd8468e777f49d648d4ba629d28f57dc5716baa83c439a2d84359067e65e7377dde408871794fd04ed2bc649b2ef37bc3776da881c63ba0da415b047c67e5357fdc428a737b4dd24cd0be66992cf179c1756fa68fc835aed44f550a7269eb3b71d24c847d7543dc42deb0689722ff77cf7b61a48dca37acd64d5708706be93973d04e867f7741de40dcb26a9520fd75cd7963a28bcc31aad04b510e766def3f75d64880797147d846dab46c9326fb73cb7f65a089ce33a8d249530c746fed3d77d44a827b7345da44d8b66e9124f971c97d67ae87c03da6dc475d027a61e33379da448c757d4bd44ad6b8609f2af77fc77369ac85c23fa4de455f007863e1317bd8468e777f49d648d4ba629d28f57dc5716baa83c439a2d84359067e65e7377dde408871794fd04ed2bc649b2ef37bc3776da881c63ba0da415b047c67e5357fdc428a737b4dd24cd0be66992cf179c1756fa68fc835aed44f550a7269eb3b71d24c847d7543dc42deb0689722ff77cf7b61a48dca37acd64d5708706be93973d04e867f7741de40dcb26a9520fd75cd7963a28bcc31aad04b510e766def3f75d64880797147d846dab46c9326fb73cb7f65a089ce33a8d249530c746fed3d77d44a827b7345da44d8b66e9124f971c97d67ae87c03da6dc475d027a61e33379da448c757d4bd44ad6b8609f2af77fc77369ac85c23fa4de455f007863e1317bd8468e777f49d648d4ba629d28f57dc5716baa83c439a2d84359067e65e7377dde408871794fd04ed2bc649b2ef37bc3776da881c63ba0da415b047c67e5357fdc428a737b4dd24cd0be66992cf179c1756fa68fc835aed44f550a7269eb3b71d24c847d7543dc42deb0689722ff77cf7b61a48dca37acd64d5708706be93973d04e867f7741de40dcb26a9520fd75cd7963a28bcc31aad04b510e766def3f75d64880797147d846dab46c9326fb73cb7f65a089ce33a8d249530c746fed3d77d44a827b7345da44d8b66e9124f971c97d67ae87c03da6dc475d027a61e33379da448eba4afd1c0073cf14631679a2734953b2f3c11a9baa23da8e0370b428c9c19f2",
        "hex": "6a20f33cea0ca16437a1c280e4b8c8e03668b342b2ef28b85fe96b0aea91aa3d595c4db00468fc835aed44f550a7269eb3b71d24c847d7543dc42deb0689722ff77cf7b61a48dca37acd64d5708706be93973d04e867f7741de40dcb26a9520fd75cd7963a28bcc31aad04b510e766def3f75d64880797147d846dab46c9326fb73cb7f65a089ce33a8d249530c746fed3d77d44a827b7345da44d8b66e9124f971c97d67ae87c03da6dc475d027a61e33379da448c757d4bd44ad6b8609f2af77fc77369ac85c23fa4de455f007863e1317bd8468e777f49d648d4ba629d28f57dc5716baa83c439a2d84359067e65e7377dde408871794fd04ed2bc649b2ef37bc3776da881c63ba0da415b047c67e5357fdc428a737b4dd24cd0be66992cf179c1756fa68fc835aed44f550a7269eb3b71d24c847d7543dc42deb0689722ff77cf7b61a48dca37acd64d5708706be93973d04e867f7741de40dcb26a9520fd75cd7963a28bcc31aad04b510e766def3f75d64880797147d846dab46c9326fb73cb7f65a089ce33a8d249530c746fed3d77d44a827b7345da44d8b66e9124f971c97d67ae87c03da6dc475d027a61e33379da448c757d4bd44ad6b8609f2af77fc77369ac85c23fa4de455f007863e1317bd8468e777f49d648d4ba629d28f57dc5716baa83c439a2d84359067e65e7377dde408871794fd04ed2bc649b2ef37bc3776da881c63ba0da415b047c67e5357fdc428a737b4dd24cd0be66992cf179c1756fa68fc835aed44f550a7269eb3b71d24c847d7543dc42deb0689722ff77cf7b61a48dca37acd64d5708706be93973d04e867f7741de40dcb26a9520fd75cd7963a28bcc31aad04b510e766def3f75d64880797147d846dab46c9326fb73cb7f65a089ce33a8d249530c746fed3d77d44a827b7345da44d8b66e9124f971c97d67ae87c03da6dc475d027a61e33379da448c757d4bd44ad6b8609f2af77fc77369ac85c23fa4de455f007863e1317bd8468e777f49d648d4ba629d28f57dc5716baa83c439a2d84359067e65e7377dde408871794fd04ed2bc649b2ef37bc3776da881c63ba0da415b047c67e5357fdc428a737b4dd24cd0be66992cf179c1756fa68fc835aed44f550a7269eb3b71d24c847d7543dc42deb0689722ff77cf7b61a48dca37acd64d5708706be93973d04e867f7741de40dcb26a9520fd75cd7963a28bcc31aad04b510e766def3f75d64880797147d846dab46c9326fb73cb7f65a089ce33a8d249530c746fed3d77d44a827b7345da44d8b66e9124f971c97d67ae87c03da6dc475d027a61e33379da448c757d4bd44ad6b8609f2af77fc77369ac85c23fa4de455f007863e1317bd8468e777f49d648d4ba629d28f57dc5716baa83c439a2d84359067e65e7377dde408871794fd04ed2bc649b2ef37bc3776da881c63ba0da415b047c67e5357fdc428a737b4dd24cd0be66992cf179c1756fa68fc835aed44f550a7269eb3b71d24c847d7543dc42deb0689722ff77cf7b61a48dca37acd64d5708706be93973d04e867f7741de40dcb26a9520fd75cd7963a28bcc31aad04b510e766def3f75d64880797147d846dab46c9326fb73cb7f65a089ce33a8d249530c746fed3d77d44a827b7345da44d8b66e9124f971c97d67ae87c03da6dc475d027a61e33379da448eba4afd1c0073cf14631679a2734953b2f3c11a9baa23da8e0370b428c9c19f2",
        "type": "nulldata"
      }
    },
    {
      "value": 499976.6113,
      "n": 1,
      "scriptPubKey": {
        "asm": "1 5b179a45623225cf5c3214992243822871d43860995de37538a66fca36db23cb",
        "hex": "51205b179a45623225cf5c3214992243822871d43860995de37538a66fca36db23cb",
        "reqSigs": 1,
        "type": "witness_v1_scripthash",
        "addresses": [
          "3QJmnh"
        ]
      }
    }
  ],
  "blockhash": "b00c1afcc726d07acf9b884f47bf06130e4cba196c4900690ef7405d42c36beb",
  "confirmations": 1,
  "time": 1764180257,
  "blocktime": 1764180257
}