{
  "hex": "01000000000101502a6dff7d4d0aaa5606205f2d2ad964102836d39bfc451f00781672f9343bfc0000000000feffffff029021522d792d000022512040916ab25c8b3c6bfb02d3b28b77c68aa64410c473dc5ea645b90675b61cc7ba00e1f50500000000fdd5046a200a651e68f5e601df113d699713ee85e0795a5aac26ff748503be61af682a43384db0041e2d1190fe87029867e3e27fbde7cf74a3aa4377d100d270b4fc171f53dda2433e0d31b0dea722b847c3c25f9dc7ef54838a6357f120f25094dc373f73fd82635e6d51d0bec742d827a3a23ffda78f34e3ea033791409230f4bc575f139de2037e4d71f09ee762f80783821fdd87af14c3ca2317b160b210d49c777f33bdc2239ead91107e078218e76362ff3d674ff4232ac3f7518052f0347c979fd35d22c3be8db1305e27a238c74342df1d476fd4030ae3d771a072d0145cb7bff37d02e3deedd1503e47c258a72322bf7d270fb4636a83b711c012b0743cd7df931d6283fecdf1701e67e2788703029f5d072f94434aa39731e03290541cf7ffb33d42a31e2d1190fe87029867e3e27fbde7cf74a3aa4377d100d270b4fc171f53dda2433e0d31b0dea722b847c3c25f9dc7ef54838a6357f120f25094dc373f73fd82635e6d51d0bec742d827a3a23ffda78f34e3ea033791409230f4bc575f139de2037e4d71f09ee762f80783821fdd87af14c3ca2317b160b210d49c777f33bdc2239ead91107e078218e76362ff3d674ff4232ac3f7518052f0347c979fd35d22c3be8db1305e27a238c74342df1d476fd4030ae3d771a072d0145cb7bff37d02e3deedd1503e47c258a72322bf7d270fb4636a83b711c012b0743cd7df931d6283fecdf1701e67e2788703029f5d072f94434aa39731e03290541cf7ffb33d42a31e2d1190fe87029867e3e27fbde7cf74a3aa4377d100d270b4fc171f53dda2433e0d31b0dea722b847c3c25f9dc7ef54838a6357f120f25094dc373f73fd82635e6d51d0bec742d827a3a23ffda78f34e3ea033791409230f4bc575f139de2037e4d71f09ee762f80783821fdd87af14c3ca2317b160b210d49c777f33bdc2239ead91107e078218e76362ff3d674ff4232ac3f7518052f0347c979fd35d22c3be8db1305e27a238c74342df1d476fd4030ae3d771a072d0145cb7bff37d02e3deedd1503e47c258a72322bf7d270fb4636a83b711c012b0743cd7df931d6283fecdf1701e67e2788703029f5d072f94434aa39731e03290541cf7ffb33d42a31e2d1190fe87029867e3e27fbde7cf74a3aa4377d100d270b4fc171f53dda2433e0d31b0dea722b847c3c25f9dc7ef54838a6357f120f25094dc373f73fd82635e6d51d0bec742d827a3a23ffda78f34e3ea033791409230f4bc575f139de2037e4d71f09ee762f80783821fdd87af14c3ca2317b160b210d49c777f33bdc2239ead91107e078218e76362ff3d674ff4232ac3f7518052f0347c979fd35d22c3be8db1305e27a238c74342df1d476fd4030ae3d771a072d0145cb7bff37d02e3deedd1503e47c258a72322bf7d270fb4636a83b711c012b0743cd7df931d6283fecdf1701e67e2788703029f5d072f94434aa39731e03290541cf7ffb33d42a31e2d1190fe87029867e3e27fbde7cf74a3aa4377d100d270b4fc171f53dda2433e0d31b0dea722b847c3c25f9dc7ef54838a6357f120f25094dc373f73fd82635e6d51d0bec742d827a3a23ffda78f34e3ea033791409230f4bc575f139de2037e4d71f09ee762f80783821fdd87af14c3ca2317b160b210d49c777f33bdc2239ead91107e078218e76362ff3d674ff4a5af87dfde91cbba34a805e3f4d391708e44b4a4fdd6cf1908189904f9ca9d0b02fd750940986bb820d9b848661d22f48420df9e3c6620aea79ac805e64f64566138feb7420285588e450f8bcbff7071ad6e1e497e5d9ccd23d632e0bb30b6b84c8a0a04db70643967d705e7f39544df271eeaaaa88771360a53378507810b4497d6289aa5bd67df7108a5578ba2ea029c9a7f5b8e7fb444db0df588b2afbee1f58b2b213729ec1a6825272536b86729ea0a03f006f37f9fb3b602e5f462df401a173358661f2550e9ee61435da5bbb483748e35161ad9dd6674d6df31d513407096156decc5ecad62253ec32b75ce4be118d3a2b1ce6acbf41810a8265e1640ddd3c50317c053b18998ec974667a6dbd35d7dbdac9a69d8178ea1625c3475bf5332efaec53c3858624c21fea2d4249ce55661a694bc837ec05b100f9a90dcf3c159cb86626ed4acf12466fa82f8caa47c9572edfd6bd1a9e1ed8b30a752971f8b077a8b25427fa96bae1b2d5a4fd97c575806ed02c5ed5169fc42a99be7fb014ea102424832567883afac995ad5d01d296f8eb90ef7547df34a47bbf08a4859e4d7b68bc12b3d09d381877926e726f351a8024207e1ab014cc0f73a3679592fe2827eb19c657c75938e48899c616e57bcbd9dd091103c953f95217866c5baa1fe8963557a1d6b7863380cf9695321def4f66b00c9c0a9ef6cbeda9312d0cde81efd3f8ab3650baab1d9bcfb86a7e84357ccdd4d3a451944a703e28d69984791c052648857f13cdaef088af5f9c75dc6fb7e82051a2c57ec4f2403ea33dbf2b49de2939f37e6b68a424c9781a18c15c8587681ae9c0ea47bb6901d904e724f4362f766b6eee6e3d2882796f38ddee600090c918f8710553a6f255b72eb5c7aebe5f79ce920ca5f888319fd302c21dc266c5e58d9e4cc6f5b9f116b25296667116da87c800e7dec4b68035f6d2479c1d6decebbf21cb803f48551c1f9e210a0cd45dc286086be67419f83b739542e6fec5b1a05b2f26245a2cf9f4e68da444647f9f8cce9f42fc46472bc92513015229294556efc58d2e04a53591f37a56d1d64faac864f1b71e1e998e711dbe0e70c1f4deb7dd513969fd7d8812d9e9638d5be1ba6455dd53f7238152e2c4da43afe6261731c6d826b6cab743a1191fc890a6adb651862d4f0c4a0a4d8fbfbd18c6ae2c2d77df2444a2b3e8a60c0968c0140d68e9e321e26edd08def04812dabcae7f0e251fe86ca5aff6e9ad1fe397912b9d7c14d7cff48e57f541171f5897931bcd1895e7770ac82058cc15805f1166a10fb7b7edc401e79a8ebb17e66f59e429716462e3771ab6af2b6fc6759bd7685ab1fd754586542394aa966d279979bd74aaf395f62b1c50308bbd6ef061816cbb71c3d1cbf38dc3e1591d1fdf42d858575e4ab718f90b9daccfc5092ad8f95ee26b7a34c086e5dcc3dfacfdf8d4f46c6ab4400cb2a631a549420a22c7ca07539dedac0729372546e3812ab74a19249be6bcdd409cbb664b90a78532fe6cb922402c6ffd37f58f8d7ddf5a552ace1c1f3d00df1127555d5258bb37d619179c64a48ddafc22c38f236bce965ef38dc586a1d99d0b124da0aa737e127f943087cdc6d5977486405bff367b7f139c6ddbf939be976056f2b1cd1d7ec40204a0aa7d5daeb8cdf9a63a974bde12b2fdaed36c71b8582eb56130873138c2ab859138633006ca5b11fd3d864a0e40f6ee2e139eb8cd8cd333c71115438f09aa75df237c0da4be0b6f25225f7ee5983d41962964772f18a67aea4db2e1ec28134fe3be05de804eb4b4d538a0e43cc84c40a9d38721746e4cbe64b3fa9fee11b016b577ccd82479da73259726b0c0c9c7e3c0e021dd9737be7c041c531b69a4213000685edd81f869a77d29c96f48dd79fece2fe53bf4ad50ff646bfbb8894cbd6e669d016a5c4e39779ad7542a7b999e88f18d00926165fd21db1aa5afc69c38d20f159bdfee4a58b85c5a0ac56c23fbc53a5d9a32461c0e0ee9f23ad1b5a8acb285cad0bab04fbfa42c8c505cc85ec4152bc7dc8708ee32ade9fe16eb711062e95f664e6dacfd2f588140e9c4e29ff974f35cef2ba6d817327bc060bb21f034e6f27f9c1e4fb6da6b8a2e76ee40ff1a984575719cf2572b50181117c4e4f60a1c9fc6ad8086b6c87f1c6a3e9f41a5cfab9e5937c2687ee8af498ffb42380950e8c068963bd14ef2f3c0e39695a2582c53fc16b9be73a17aafb575fc9660ed84cdfb074f5ef37cc0b1abf03da2ed136903adae0fd7168fec6de5b40483c44e2c11ca21dc0961390b60ed02441c830993edf37b693e403e0efe475d8c4785fcf7ce0c79886f7cd8c2b22dc54ac2cdc2e90d2e33505d3dc4b73b9859fe24bae1bc419336e7f47d9f9467b772a076ed74a561af6c0795f82fee3fc73fccd6bc4e3e36dd149de09754666b65590143c7a49adfc333b787a8fa31ace87c18ccbaf6d085b49cda5df820d49fe9af37fb5e074d39a54d95c5f53e38787d787e82d285074174d7dd118e5a7519752f9c9383a76d016760d8646052fbfcb98f1499269197cb74407a6a676b14975c69a40a26ee9ef1b7716f462b4e7e22a6b414ae5118419d73a548ab42e426b4e551811e1f7f588d584f56e128f6d238e30c1a50efaefdf9577b07b3c7b8a623542f2e0f91fb10af87a1074e3d1be06deb97a725eff9241a8b50b365ff71580a76880a865bc750dce721764f8531534be72ecfb95269a862af0c2a7fb509b8fdc32942947e30922c2f43fa64f608ee89447bbf9168eace6072d7bdc2d249411a065edaecf78b30968fd16a437873fb5871e47ec645ac17a41520e369f6ab18c4287db87f3d6fdcb4e4e0b185deb766e69ca0dc7d7416090bf311b812a57ab3a74cb283d04e23062ed094ec69e8d09d9b2a8bd7debe498d8a00ab1f41369331e3724875b226477e7f9b1c9db2fb42f379e12e11e1b42b45ef2ab016dfc1b7aea046969e7a53c4840cffa58fc6aae1e4edd96f7e293a979e9eeb8578eea841a0569ea1f3f667e9fe88976b249d6995f3b57a5e42a71d43a698b5d387738e9a8c0819bfbe60655610900018dfb820f34404490ec2cdf4cc3fc4924443b34ead6da6b922d8d6d6e98b40b29eb16ddd8b197b214e68659674897fa6ad2d7952a3fa9d2de6dc7c149be13de7cebaf066613ac482fadcc1c4ab68d3f5e27f41eae1445cc3edcd916f1146e3e78be5fba255efccdf996ea76445806ac2353368ef9aaafed6c77c821e23b1bf9215c06f138e8b390980b85097a296aa8437c5f8a75def0d8d62257d215dc1074f85cce93c20e5da03a22b24328af6d0c35e799acd5f1c50d93070b66737581888caeb5b6c0c8daf20d325776848a9da0b6b9bcdde6e9eff5fb161a1c467d818696adb1b6d1d9dee7e900070918191e444f5155c3dee8ebf100000000000000000000000000000000000f20303f01fd210500df9e0eabcb0f3c40ef00148725ea6e4d83336ff5719e72acf56a527020b60bf7617b3c6f83cd272222cc3c5560a969388f2f7c82a621782a51d573788b57cecd020269ae5eb7e139c3946269d567c22ff04f6626ef4891b4c7f8e5fd3563ad7e965729998a2e154215154be5a67bd8a87c06405a298d5a3907344f287f5b2103519efb1829fabfc15941dc5fc526ef19d14ae1debd568b2865c5a64c5cdef990b8f34ce53f3ff0677cf77be88a5c75769c988c7882de961294a3cbb7f0a6907cae706d5f8b75919e0a14afc323d89ecb44a8332a084b956ddf75ee9c86f6ee8f2ae70b19c458cda47ab77550799af40208f7fb8831c54a23bc2effad2811bec7af13ae48170a9493fd4590072df947b15726e2fefc821ff2f6ac47dc349470ac0129972129d5ecbc09e525f49384b867d6ba9336da00aeee211c7f6cf48e9bdaa504d0837f762030c7e678c1a9403f1ba75251576ad0f1534c6f598698dd5d0bd7f798fbe7755b596d515e33bce61df3d6cbb2ec683d2c9c9e8b84c07f6fc04d3883b02c0aefe6e59fc3d6b1529422dc972fecdfde9ac872437a7e43ca011cf6f5efba1fc7af015327cc764d605971531c74384aefcaf1fca6b7bd1f36d41a4c0db05824a6473e4f8837e759d86ebbe93277705d776f9bc3cddb6834d6aee64cd78b9604049d17562041365b6c2d81cadc92f16a19fe50be49e1c7ce6894f1262421fb11031df404fcd74a4c7e831fc0c19c5bb66931714336a568a93d7f83316a98e532dff4b3392ef1581f68c58dcc893fba74c487803755584084446eb35bddb0804656516e820c4540bb37e22e52d344730c089d68082b78e33193cf13e8eb9c04dafc61d7c78212b0328214905233964595c92284980cc5201208f46c8690f68c24df77c770ffeb77fe4432c2afedcfd29f155699fb35bba59fd060f3d496105d285d0d4b6575144c0be9c52d4e134b1f304c5c0ebc94e5d93bab8ec362b462379dab60a59d409c0a479d1677878ffda5f8b312670d6d75d9ad94c17607d8cdaaaa185b0a47dfceaef8bff3a475db95a5dc19d38554ea60b42408f1bb12891225e7ac8a52a2e8f07909ac384cb6f1948255345b7c7e4b7e0447ed03cf02ebd5e98c01bece5d76f91f77680a7b29fb39a34e1256dd5f4fd8639c9483c16bc982ed986c15d48b829a7e46f9cf654db68d528e8adfec6e19f7cd3a4b479ff36473ffd6346adb41a488205a152605d20abb05c4c46b1f09cb91e057f716834f0ed8578aa4e5befba7f8b2bffbd4937e0f07175c00a342de5cd89674721658f735511b4ecbb59489ab0fb384ab15690740fc0e3682003d103f39eedfa55b25a4d0c8f94fd920c502292d254de1ada023404535d9ff5ae90ebfddd40217cc2575121a7dd9bb93d612ba73f83008849ecb756e9f0157e3e7c99470f7badb228530fc8536883419113a78bc97745d7addf5977c6d6ab47091fdb06daee3028c3afccba563d529fb05c6f7f71a93adcfcba5b1d5a02a8db13560ef1ec31d2295ce414d3810fbaa67e2df3165d58829ec2cfceb2a3440d14b3210bdd7a91e6c750bc18468f6093c3e14e2a2b1600813a08e28fbbe79cd0556dff5b596aa6a0bf98c1d36cdb392a7caf5021ae3b226f59184c039d8e9ac35eeeba2344469964210c81a7edae53e4c63a51c062a4384f0e9d132848b75ccaedb21e73a1e7e1a0c814d1872719bcb91443375dfae57d40a8e25e7afc295ddfa40d801139330f1045fc412a6979dd9c79c7ca3320333dae183af66cb0727712cb6e65a62231dcba7a403443c3384eb427bddc2aaf6d99256225c673f93f0138f26c265df854548306d3a6871000000",
  "txid": "789915d727a66e2672e5fb9ae63983dfc77132d98365bfce91060f7a6ee57840",
  "hash": "520869f1332a5012a11eb9b0d8126f56205300a9de5a38daef3aed3bb1795684",
  "size": 5085,
  "vsize": 2278,
  "version": 1,
  "locktime": 113,
  "vin": [
    {
      "txid": "fc3b34f9721678001f45fc9bd336281064d92a2d5f200656aa0a4d7dff6d2a50",
      "vout": 0,
      "scriptSig": {
        "asm": "",
        "hex": ""
      },
      "txinwitness": [
        "40986bb820d9b848661d22f48420df9e3c6620aea79ac805e64f64566138feb7420285588e450f8bcbff7071ad6e1e497e5d9ccd23d632e0bb30b6b84c8a0a04db70643967d705e7f39544df271eeaaaa88771360a53378507810b4497d6289aa5bd67df7108a5578ba2ea029c9a7f5b8e7fb444db0df588b2afbee1f58b2b213729ec1a6825272536b86729ea0a03f006f37f9fb3b602e5f462df401a173358661f2550e9ee61435da5bbb483748e35161ad9dd6674d6df31d513407096156decc5ecad62253ec32b75ce4be118d3a2b1ce6acbf41810a8265e1640ddd3c50317c053b18998ec974667a6dbd35d7dbdac9a69d8178ea1625c3475bf5332efaec53c3858624c21fea2d4249ce55661a694bc837ec05b100f9a90dcf3c159cb86626ed4acf12466fa82f8caa47c9572edfd6bd1a9e1ed8b30a752971f8b077a8b25427fa96bae1b2d5a4fd97c575806ed02c5ed5169fc42a99be7fb014ea102424832567883afac995ad5d01d296f8eb90ef7547df34a47bbf08a4859e4d7b68bc12b3d09d381877926e726f351a8024207e1ab014cc0f73a3679592fe2827eb19c657c75938e48899c616e57bcbd9dd091103c953f95217866c5baa1fe8963557a1d6b7863380cf9695321def4f66b00c9c0a9ef6cbeda9312d0cde81efd3f8ab3650baab1d9bcfb86a7e84357ccdd4d3a451944a703e28d69984791c052648857f13cdaef088af5f9c75dc6fb7e82051a2c57ec4f2403ea33dbf2b49de2939f37e6b68a424c9781a18c15c8587681ae9c0ea47bb6901d904e724f4362f766b6eee6e3d2882796f38ddee600090c918f8710553a6f255b72eb5c7aebe5f79ce920ca5f888319fd302c21dc266c5e58d9e4cc6f5b9f116b25296667116da87c800e7dec4b68035f6d2479c1d6decebbf21cb803f48551c1f9e210a0cd45dc286086be67419f83b739542e6fec5b1a05b2f26245a2cf9f4e68da444647f9f8cce9f42fc46472bc92513015229294556efc58d2e04a53591f37a56d1d64faac864f1b71e1e998e711dbe0e70c1f4deb7dd513969fd7d8812d9e9638d5be1ba6455dd53f7238152e2c4da43afe6261731c6d826b6cab743a1191fc890a6adb651862d4f0c4a0a4d8fbfbd18c6ae2c2d77df2444a2b3e8a60c0968c0140d68e9e321e26edd08def04812dabcae7f0e251fe86ca5aff6e9ad1fe397912b9d7c14d7cff48e57f541171f5897931bcd1895e7770ac82058cc15805f1166a10fb7b7edc401e79a8ebb17e66f59e429716462e3771ab6af2b6fc6759bd7685ab1fd754586542394aa966d279979bd74aaf395f62b1c50308bbd6ef061816cbb71c3d1cbf38dc3e1591d1fdf42d858575e4ab718f90b9daccfc5092ad8f95ee26b7a34c086e5dcc3dfacfdf8d4f46c6ab4400cb2a631a549420a22c7ca07539dedac0729372546e3812ab74a19249be6bcdd409cbb664b90a78532fe6cb922402c6ffd37f58f8d7ddf5a552ace1c1f3d00df1127555d5258bb37d619179c64a48ddafc22c38f236bce965ef38dc586a1d99d0b124da0aa737e127f943087cdc6d5977486405bff367b7f139c6ddbf939be976056f2b1cd1d7ec40204a0aa7d5daeb8cdf9a63a974bde12b2fdaed36c71b8582eb56130873138c2ab859138633006ca5b11fd3d864a0e40f6ee2e139eb8cd8cd333c71115438f09aa75df237c0da4be0b6f25225f7ee5983d41962964772f18a67aea4db2e1ec28134fe3be05de804eb4b4d538a0e43cc84c40a9d38721746e4cbe64b3fa9fee11b016b577ccd82479da73259726b0c0c9c7e3c0e021dd9737be7c041c531b69a4213000685edd81f869a77d29c96f48dd79fece2fe53bf4ad50ff646bfbb8894cbd6e669d016a5c4e39779ad7542a7b999e88f18d00926165fd21db1aa5afc69c38d20f159bdfee4a58b85c5a0ac56c23fbc53a5d9a32461c0e0ee9f23ad1b5a8acb285cad0bab04fbfa42c8c505cc85ec4152bc7dc8708ee32ade9fe16eb711062e95f664e6dacfd2f588140e9c4e29ff974f35cef2ba6d817327bc060bb21f034e6f27f9c1e4fb6da6b8a2e76ee40ff1a984575719cf2572b50181117c4e4f60a1c9fc6ad8086b6c87f1c6a3e9f41a5cfab9e5937c2687ee8af498ffb42380950e8c068963bd14ef2f3c0e39695a2582c53fc16b9be73a17aafb575fc9660ed84cdfb074f5ef37cc0b1abf03da2ed136903adae0fd7168fec6de5b40483c44e2c11ca21dc0961390b60ed02441c830993edf37b693e403e0efe475d8c4785fcf7ce0c79886f7cd8c2b22dc54ac2cdc2e90d2e33505d3dc4b73b9859fe24bae1bc419336e7f47d9f9467b772a076ed74a561af6c0795f82fee3fc73fccd6bc4e3e36dd149de09754666b65590143c7a49adfc333b787a8fa31ace87c18ccbaf6d085b49cda5df820d49fe9af37fb5e074d39a54d95c5f53e38787d787e82d285074174d7dd118e5a7519752f9c9383a76d016760d8646052fbfcb98f1499269197cb74407a6a676b14975c69a40a26ee9ef1b7716f462b4e7e22a6b414ae5118419d73a548ab42e426b4e551811e1f7f588d584f56e128f6d238e30c1a50efaefdf9577b07b3c7b8a623542f2e0f91fb10af87a1074e3d1be06deb97a725eff9241a8b50b365ff71580a76880a865bc750dce721764f8531534be72ecfb95269a862af0c2a7fb509b8fdc32942947e30922c2f43fa64f608ee89447bbf9168eace6072d7bdc2d249411a065edaecf78b30968fd16a437873fb5871e47ec645ac17a41520e369f6ab18c4287db87f3d6fdcb4e4e0b185deb766e69ca0dc7d7416090bf311b812a57ab3a74cb283d04e23062ed094ec69e8d09d9b2a8bd7debe498d8a00ab1f41369331e3724875b226477e7f9b1c9db2fb42f379e12e11e1b42b45ef2ab016dfc1b7aea046969e7a53c4840cffa58fc6aae1e4edd96f7e293a979e9eeb8578eea841a0569ea1f3f667e9fe88976b249d6995f3b57a5e42a71d43a698b5d387738e9a8c0819bfbe60655610900018dfb820f34404490ec2cdf4cc3fc4924443b34ead6da6b922d8d6d6e98b40b29eb16ddd8b197b214e68659674897fa6ad2d7952a3fa9d2de6dc7c149be13de7cebaf066613ac482fadcc1c4ab68d3f5e27f41eae1445cc3edcd916f1146e3e78be5fba255efccdf996ea76445806ac2353368ef9aaafed6c77c821e23b1bf9215c06f138e8b390980b85097a296aa8437c5f8a75def0d8d62257d215dc1074f85cce93c20e5da03a22b24328af6d0c35e799acd5f1c50d93070b66737581888caeb5b6c0c8daf20d325776848a9da0b6b9bcdde6e9eff5fb161a1c467d818696adb1b6d1d9dee7e900070918191e444f5155c3dee8ebf100000000000000000000000000000000000f20303f01",
        "00df9e0eabcb0f3c40ef00148725ea6e4d83336ff5719e72acf56a527020b60bf7617b3c6f83cd272222cc3c5560a969388f2f7c82a621782a51d573788b57cecd020269ae5eb7e139c3946269d567c22ff04f6626ef4891b4c7f8e5fd3563ad7e965729998a2e154215154be5a67bd8a87c06405a298d5a3907344f287f5b2103519efb1829fabfc15941dc5fc526ef19d14ae1debd568b2865c5a64c5cdef990b8f34ce53f3ff0677cf77be88a5c75769c988c7882de961294a3cbb7f0a6907cae706d5f8b75919e0a14afc323d89ecb44a8332a084b956ddf75ee9c86f6ee8f2ae70b19c458cda47ab77550799af40208f7fb8831c54a23bc2effad2811bec7af13ae48170a9493fd4590072df947b15726e2fefc821ff2f6ac47dc349470ac0129972129d5ecbc09e525f49384b867d6ba9336da00aeee211c7f6cf48e9bdaa504d0837f762030c7e678c1a9403f1ba75251576ad0f1534c6f598698dd5d0bd7f798fbe7755b596d515e33bce61df3d6cbb2ec683d2c9c9e8b84c07f6fc04d3883b02c0aefe6e59fc3d6b1529422dc972fecdfde9ac872437a7e43ca011cf6f5efba1fc7af015327cc764d605971531c74384aefcaf1fca6b7bd1f36d41a4c0db05824a6473e4f8837e759d86ebbe93277705d776f9bc3cddb6834d6aee64cd78b9604049d17562041365b6c2d81cadc92f16a19fe50be49e1c7ce6894f1262421fb11031df404fcd74a4c7e831fc0c19c5bb66931714336a568a93d7f83316a98e532dff4b3392ef1581f68c58dcc893fba74c487803755584084446eb35bddb0804656516e820c4540bb37e22e52d344730c089d68082b78e33193cf13e8eb9c04dafc61d7c78212b0328214905233964595c92284980cc5201208f46c8690f68c24df77c770ffeb77fe4432c2afedcfd29f155699fb35bba59fd060f3d496105d285d0d4b6575144c0be9c52d4e134b1f304c5c0ebc94e5d93bab8ec362b462379dab60a59d409c0a479d1677878ffda5f8b312670d6d75d9ad94c17607d8cdaaaa185b0a47dfceaef8bff3a475db95a5dc19d38554ea60b42408f1bb12891225e7ac8a52a2e8f07909ac384cb6f1948255345b7c7e4b7e0447ed03cf02ebd5e98c01bece5d76f91f77680a7b29fb39a34e1256dd5f4fd8639c9483c16bc982ed986c15d48b829a7e46f9cf654db68d528e8adfec6e19f7cd3a4b479ff36473ffd6346adb41a488205a152605d20abb05c4c46b1f09cb91e057f716834f0ed8578aa4e5befba7f8b2bffbd4937e0f07175c00a342de5cd89674721658f735511b4ecbb59489ab0fb384ab15690740fc0e3682003d103f39eedfa55b25a4d0c8f94fd920c502292d254de1ada023404535d9ff5ae90ebfddd40217cc2575121a7dd9bb93d612ba73f83008849ecb756e9f0157e3e7c99470f7badb228530fc8536883419113a78bc97745d7addf5977c6d6ab47091fdb06daee3028c3afccba563d529fb05c6f7f71a93adcfcba5b1d5a02a8db13560ef1ec31d2295ce414d3810fbaa67e2df3165d58829ec2cfceb2a3440d14b3210bdd7a91e6c750bc18468f6093c3e14e2a2b1600813a08e28fbbe79cd0556dff5b596aa6a0bf98c1d36cdb392a7caf5021ae3b226f59184c039d8e9ac35eeeba2344469964210c81a7edae53e4c63a51c062a4384f0e9d132848b75ccaedb21e73a1e7e1a0c814d1872719bcb91443375dfae57d40a8e25e7afc295ddfa40d801139330f1045fc412a6979dd9c79c7ca3320333dae183af66cb0727712cb6e65a62231dcba7a403443c3384eb427bddc2aaf6d99256225c673f93f0138f26c265df854548306d3a68"
      ],
      "sequence": 4294967294
    }
  ],
  "vout": [
    {
      "value": 499984.7465,
      "n": 0,
      "scriptPubKey": {
        "asm": "1 40916ab25c8b3c6bfb02d3b28b77c68aa64410c473dc5ea645b90675b61cc7ba",
        "hex": "512040916ab25c8b3c6bfb02d3b28b77c68aa64410c473dc5ea645b90675b61cc7ba",
        "reqSigs": 1,
        "type": "witness_v1_scripthash",
        "addresses": [
          "3QJmnh"
        ]
      }
    },
    {
      "value": 1.0,
      "n": 1,
      "scriptPubKey": {
        "asm": "OP_RETURN 0a651e68f5e601df113d699713ee85e0795a5aac26ff748503be61af682a4338 1e2d1190fe87029867e3e27fbde7cf74a3aa4377d100d270b4fc171f53dda2433e0d31b0dea722b847c3c25f9dc7ef54838a6357f120f25094dc373f73fd82635e6d51d0bec742d827a3a23ffda78f34e3ea033791409230f4bc575f139de2037e4d71f09ee762f80783821fdd87af14c3ca2317b160b210d49c777f33bdc2239ead91107e078218e76362ff3d674ff4232ac3f7518052f0347c979fd35d22c3be8db1305e27a238c74342df1d476fd4030ae3d771a072d0145cb7bff37d02e3deedd1503e47c258a72322bf7d270fb4636a83b711c012b0743cd7df931d6283fecdf1701e67e2788703029f5d072f94434aa39731e03290541cf7ffb33d42a31e2d1190fe87029867e3e27fbde7cf74a3aa4377d100d270b4fc171f53dda2433e0d31b0dea722b847c3c25f9dc7ef54838a6357f120f25094dc373f73fd82635e6d51d0bec742d827a3a23ffda78f34e3ea033791409230f4bc575f139de2037e4d71f09ee762f80783821fdd87af14c3ca2317b160b210d49c777f33bdc2239ead91107e078218e76362ff3d674ff4232ac3f7518052f0347c979fd35d22c3be8db1305e27a238c74342df1d476fd4030ae3d771a072d0145cb7bff37d02e3deedd1503e47c258a72322bf7d270fb4636a83b711c012b0743cd7df931d6283fecdf1701e67e2788703029f5d072f94434aa39731e03290541cf7ffb33d42a31e2d1190fe87029867e3e27fbde7cf74a3aa4377d100d270b4fc171f53dda2433e0d31b0dea722b847c3c25f9dc7ef54838a6357f120f25094dc373f73fd82635e6d51d0bec742d827a3a23ffda78f34e3ea033791409230f4bc575f139de2037e4d71f09ee762f80783821fdd87af14c3ca2317b160b210d49c777f33bdc2239ead91107e078218e76362ff3d674ff4232ac3f7518052f0347c979fd35d22c3be8db1305e27a238c74342df1d476fd4030ae3d771a072d0145cb7bff37d02e3deedd1503e47c258a72322bf7d270fb4636a83b711c012b0743cd7df931d6283fecdf1701e67e2788703029f5d072f94434aa39731e03290541cf7ffb33d42a31e2d1190fe87029867e3e27fbde7cf74a3aa4377d100d270b4fc171f53dda2433e0d31b0dea722b847c3c25f9dc7ef54838a6357f120f25094dc373f73fd82635e6d51d0bec742d827a3a23ffda78f34e3ea033791409230f4bc575f139de2037e4d71f09ee762f80783821fdd87af14c3ca2317b160b210d49c777f33bdc2239ead91107e078218e76362ff3d674ff4232ac3f7518052f0347c979fd35d22c3be8db1305e27a238c74342df1d476fd4030ae3d771a072d0145cb7bff37d02e3deedd1503e47c258a72322bf7d270fb4636a83b711c012b0743cd7df931d6283fecdf1701e67e2788703029f5d072f94434aa39731e03290541cf7ffb33d42a31e2d1190fe87029867e3e27fbde7cf74a3aa4377d100d270b4fc171f53dda2433e0d31b0dea722b847c3c25f9dc7ef54838a6357f120f25094dc373f73fd82635e6d51d0bec742d827a3a23ffda78f34e3ea033791409230f4bc575f139de2037e4d71f09ee762f80783821fdd87af14c3ca2317b160b210d49c777f33bdc2239ead91107e078218e76362ff3d674ff4a5af87dfde91cbba34a805e3f4d391708e44b4a4fdd6cf1908189904f9ca9d0b",
        "hex": "6a200a651e68f5e601df113d699713ee85e0795a5aac26ff748503be61af682a43384db0041e2d1190fe87029867e3e27fbde7cf74a3aa4377d100d270b4fc171f53dda2433e0d31b0dea722b847c3c25f9dc7ef54838a6357f120f25094dc373f73fd82635e6d51d0bec742d827a3a23ffda78f34e3ea033791409230f4bc575f139de2037e4d71f09ee762f80783821fdd87af14c3ca2317b160b210d49c777f33bdc2239ead91107e078218e76362ff3d674ff4232ac3f7518052f0347c979fd35d22c3be8db1305e27a238c74342df1d476fd4030ae3d771a072d0145cb7bff37d02e3deedd1503e47c258a72322bf7d270fb4636a83b711c012b0743cd7df931d6283fecdf1701e67e2788703029f5d072f94434aa39731e03290541cf7ffb33d42a31e2d1190fe87029867e3e27fbde7cf74a3aa4377d100d270b4fc171f53dda2433e0d31b0dea722b847c3c25f9dc7ef54838a6357f120f25094dc373f73fd82635e6d51d0bec742d827a3a23ffda78f34e3ea033791409230f4bc575f139de2037e4d71f09ee762f80783821fdd87af14c3ca2317b160b210d49c777f33bdc2239ead91107e078218e76362ff3d674ff4232ac3f7518052f0347c979fd35d22c3be8db1305e27a238c74342df1d476fd4030ae3d771a072d0145cb7bff37d02e3deedd1503e47c258a72322bf7d270fb4636a83b711c012b0743cd7df931d6283fecdf1701e67e2788703029f5d072f94434aa39731e03290541cf7ffb33d42a31e2d1190fe87029867e3e27fbde7cf74a3aa4377d100d270b4fc171f53dda2433e0d31b0dea722b847c3c25f9dc7ef54838a6357f120f25094dc373f73fd82635e6d51d0bec742d827a3a23ffda78f34e3ea033791409230f4bc575f139de2037e4d71f09ee762f80783821fdd87af14c3ca2317b160b210d49c777f33bdc2239ead91107e078218e76362ff3d674ff4232ac3f7518052f0347c979fd35d22c3be8db1305e27a238c74342df1d476fd4030ae3d771a072d0145cb7bff37d02e3deedd1503e47c258a72322bf7d270fb4636a83b711c012b0743cd7df931d6283fecdf1701e67e2788703029f5d072f94434aa39731e03290541cf7ffb33d42a31e2d1190fe87029867e3e27fbde7cf74a3aa4377d100d270b4fc171f53dda2433e0d31b0dea722b847c3c25f9dc7ef54838a6357f120f25094dc373f73fd82635e6d51d0bec742d827a3a23ffda78f34e3ea033791409230f4bc575f139de2037e4d71f09ee762f80783821fdd87af14c3ca2317b160b210d49c777f33bdc2239ead91107e078218e76362ff3d674ff4232ac3f7518052f0347c979fd35d22c3be8db1305e27a238c74342df1d476fd4030ae3d771a072d0145cb7bff37d02e3deedd1503e47c258a72322bf7d270fb4636a83b711c012b0743cd7df931d6283fecdf1701e67e2788703029f5d072f94434aa39731e03290541cf7ffb33d42a31e2d1190fe87029867e3e27fbde7cf74a3aa4377d100d270b4fc171f53dda2433e0d31b0dea722b847c3c25f9dc7ef54838a6357f120f25094dc373f73fd82635e6d51d0bec742d827a3a23ffda78f34e3ea033791409230f4bc575f139de2037e4d71f09ee762f80783821fdd87af14c3ca2317b160b210d49c777f33bdc2239ead91107e078218e76362ff3d674ff4a5af87dfde91cbba34a805e3f4d391708e44b4a4fdd6cf1908189904f9ca9d0b",
        "type": "nulldata"
      }
    }
  ],
  "blockhash": "d7a7b9a6fa9b7eeca4ed3b292cd4c21f070551bfab2aaeca0619c41458c07723",
  "confirmations": 1,
  "time": 1764178593,
  "blocktime": 1764178593
}