{
  "hex": "01000000000101ff0a7ae52acf7b8d3beebf67ead9825c37c377174c563adce51e76221f3727960000000000feffffff021076cf5d792d0000225120ff9290cea7a4f7d26e0b6b60b533e14355cfd7d1640c1a57dc7d5f5f5bf885a100e1f50500000000fdd5046a202c9179c9e42e697d8686391091d1dbf29d62f6d0f0be42b5967984a94bab54464db00453038960afb2329428fd207c0dd304d81ae9a0c44ad14e3481c987567574cfcf7323a9408f9212b408dd005c2df324f83ac980e46af16e14a1e9a7765554efef1343c920eff272d468bd603c4d9344985aa9e0840a910e74c189c71635348f8f3363e900cfd252f4489d401c6db364b87a89c0a42ab12e54e1a9e7361514afafd38309e02f32b214a87da0fc8d5384589a692044ca51ceb4014907d6f5f44f4ff3a329c00f129234885d80dcad73a478ba490064ea71ee94216927f6d5d46f6f93c349a06f72f254e83de0bccd13c418da2960048a118ef441094796b5b40f0fb3e369804f52d274c81dc09ced33e438fa094024aa31aed4612967b695942f2f53038960afb2329428fd207c0dd304d81ae9a0c44ad14e3481c987567574cfcf7323a9408f9212b408dd005c2df324f83ac980e46af16e14a1e9a7765554efef1343c920eff272d468bd603c4d9344985aa9e0840a910e74c189c71635348f8f3363e900cfd252f4489d401c6db364b87a89c0a42ab12e54e1a9e7361514afafd38309e02f32b214a87da0fc8d5384589a692044ca51ceb4014907d6f5f44f4ff3a329c00f129234885d80dcad73a478ba490064ea71ee94216927f6d5d46f6f93c349a06f72f254e83de0bccd13c418da2960048a118ef441094796b5b40f0fb3e369804f52d274c81dc09ced33e438fa094024aa31aed4612967b695942f2f53038960afb2329428fd207c0dd304d81ae9a0c44ad14e3481c987567574cfcf7323a9408f9212b408dd005c2df324f83ac980e46af16e14a1e9a7765554efef1343c920eff272d468bd603c4d9344985aa9e0840a910e74c189c71635348f8f3363e900cfd252f4489d401c6db364b87a89c0a42ab12e54e1a9e7361514afafd38309e02f32b214a87da0fc8d5384589a692044ca51ceb4014907d6f5f44f4ff3a329c00f129234885d80dcad73a478ba490064ea71ee94216927f6d5d46f6f93c349a06f72f254e83de0bccd13c418da2960048a118ef441094796b5b40f0fb3e369804f52d274c81dc09ced33e438fa094024aa31aed4612967b695942f2f53038960afb2329428fd207c0dd304d81ae9a0c44ad14e3481c987567574cfcf7323a9408f9212b408dd005c2df324f83ac980e46af16e14a1e9a7765554efef1343c920eff272d468bd603c4d9344985aa9e0840a910e74c189c71635348f8f3363e900cfd252f4489d401c6db364b87a89c0a42ab12e54e1a9e7361514afafd38309e02f32b214a87da0fc8d5384589a692044ca51ceb4014907d6f5f44f4ff3a329c00f129234885d80dcad73a478ba490064ea71ee94216927f6d5d46f6f93c349a06f72f254e83de0bccd13c418da2960048a118ef441094796b5b40f0fb3e369804f52d274c81dc09ced33e438fa094024aa31aed4612967b695942f2f53038960afb2329428fd207c0dd304d81ae9a0c44ad14e3481c987567574cfcf7323a9408f9212b408dd005c2df324f83ac980e46af16e14a1e9a7765554efef1343c920eff272d468bd603c4d9344985aa9e0840a910e74c189c71635348f8f3363e900cfd252f4489d401c6db364b87a89c0a42ab12e54e1a9e7361514afafd38309e02f32b214a87da0fc8d53845874c56d991ac65ffb8e3d25b7a743bd9799d1212cecf02f2342aa343257e00e6b02fd7509022852687ab8fe8e03cfc2b75f21dbde03a59c906055d7d4d7765bcce02c92183262961917db357acece1e90abddb7903def25773133b69e2c95b3013ca1776506817ee44789c93e906e1ed41af5ef8d265958c1224004f459c5538482692e1008c8b116770c7137cc1bbb95c22ff81a3c604e37f226420a488fe9b423e12d46859d4b1a63c1f966921d2f647cd3ed303225e441972c266127bf4d5fee37928447d450fdc9c62581625fa18a1931999e0a3257fccd0bacc6b40239a3c2e3e2abf9446dae6d05eb61f7f9d9a1359037d46483e8382c31b0477be9a413b70a5038b1821fffa9b29adb43c376c7f7d8c3cc65cc177a1e9fe4d979db3fd623360fece1b4dc54b97a516b27ed62b9b0a669c8ab9eb79fa60b78b1038513580e9bbb7e16a2a8fed97153b8141d630cd5f2bb4da66d776de15700194a81308b939df36971ac21c955c9d5363315ca77982d9dbd8fa29b9f034fe89459239dd116f4393581bbd5e8ce6716afbdc44eb1e311bc4737efa693cfc5846e0c816070f165e01d734199e8df4e2aa95f44d6c238010e138353912af5a7cda05309f035751edbe51e77405a9d4d1a7365526990bb2a3396f1594f56929605475adf3bb1adef23c2eb80a1c0965eb5846ec579a21ca5ce4821a834dee05bf2ffabca91f9601d4c23a41f45aa134d0070461b97d9d34199654a4a077b770e57229174b80bf6ef0fe1f931e541c0f49809525ebc22cd192691c13bd11c35d5a31f4888b3f8fb54aa20618125777423f97545758ff2890ca6437d7a3108295e49b8601180461b8df24abae8730d96bb1b2b7cdb1aa03410429dfc9ba5ec7129349f9261c50de92231134272205307213a19c51bd8314a9198cf6b36d9a4f104cd0da84c93809b922c084611d9d872021a9f1225278aedb0e946ee2e4cf8ea009de90ef21707271f1fb03f0ec66d75f34a5ec1f6df5f7e36c6e5d2513f9e3d521302e8e947bf4c51ed1f9cde53c893c215438b746fdc82fa4a5551b71ab91b826a4ec8347e208e8e7e28303856451590a0e48028c06a705f649f80e90502a356923d8ca5986c0b3dc00ee8296766939035a9d95527d45ffcd90e157ddc47c4242464aa13ec4eea1dc434d13b26ecbf8f321955d488159b57f961fa0e8f49bcd18da74837d260327c8abdf45816cc85019c1051128432e060963ec06d01d882e0645b75586cebcae0b7753b1d339f17aacd87a528070db98deb7505f157ce83c4eb58c05fb0c86cce81997af5636c2d17b11362a222e96fcd73dd4ab1d12875e7b923e2907d727ecc7f8a43e0f8c78e7c2a539bc8436c5912e1228f147b66fb0276808e2a8178ca1d65ef9257f90d09f129df6f63ab9582f014f4225c61444be6588b0c5f472fe170a55116fb82e108ab96182944484ef0db5e5d0c0a64b587fa09610517f1d9adaf9a404f8e0ba2f98edeb4620b57e67a15b3e3268ee67128b78d5467ba72e4db068b92a4ab1c1fe595fc6c8af967f521b55fcefed753c67f0d08001a65e2c71b3bb47c9d5c98f26171ef45eeb169dc89d45b082b8d4199a674c1a4f0add948d124f01c483ca75a9823bf69ebb62c870f3fad61db4908ece60c0782b98cef230f7a357a312628689c4d9cc2bbfeb385c61a0d9de6995295a213a28e9cbd3acca11cb63bd02a931e97977e5c722052422d5549c74944d15e486b31ce6112a1f6e45a1b9f596129e6adf62b32e2686de78c08f8f698f16a954a68469aa581ac5398dc23474d653d4b2dd591848aed4d9a7212952a17087fea2c04a4266cf1efab1785c84a8466c391596aacc56340632eeb1f86a885fd4b2116189ed3fffe05dcc836b769b0bf262081f8b5b18a33f5fa509e46290c77324164210c44b3e933fb8e00efa6b9a5c200420502a374cfff46f3af172c1fb2a5ce4834bd1caa32f03266d95dba56b780bb4460bc5ad463f441f44e10d57d7feb36bef49df006f13973b1569f0dd22d7f376c10cd579d1eb22f640eadf8eabefb3df93cde8079ad1941bc752ba9259c388eb737d94af97a7517f4c6ef448dcba35d26685fa33f254509dc7d930546d514fbdb647bf2fbc26ce5228bd7371da8e6a90dc61b2e114aae8cf1280e91315445adaf7bc686e8caf555bfce65bf0fcadb1ae5ca92e5fed143116d17bfa711b9f375c4a79c0296fda14dab5ac56cf915f8b6dc21217823aebfc33bca932e045f3a8424fd0323862ed8dc973e3e9a00bf978547aa28e62bcb2b78237586cca329a80501dc3cc683db77e7c65c27c846073a130ec1a0984b244f0368359b302af4779ebf9dcff69081351b16be96b2ff6f9dae14e798a5a35370ee78113562cd8918a8e5fa3cdd384b84f0efa70169a7eeb7e783a5249b52ffd629f76916ec013d865baf4f2b5a0e33c0bb1a2e0c4c47fa4232f7ccc0c78c585cece8e2545d27c8b2954a5e6586d162b6b90c142a88af858f90da5a0ba3112a9297d582cb3577cc3d38899b68a4c71a667616db26f2d17ab8cd5b9fb86e9be74356a489a13c06f93a9a1d619eb378c777cde088c69a526dae876a34f1599c8805f9105b2e51710154bf7d37a567436bb7e78f4f5a8c8e618ca3b60f89a93c33fdbfc782e817182650e3a6deaa0f3915757aad1726b07bfc6ddd0f5025418e2f2dd66bad7d5bbdb4d1656a0e39a3cdfa031eb5d56d91b0e90b9062b7d31f5aa8e2327d9ed7bfa58c5f363e69db6f164fec306100e71ee866593ad0afe84cc73392cc25c5dc04d9d0581fc6833002f5acd3dbdaac690dc2f64e47acb49d8c521cebd575f53f0f73aeecc36d0faa86a4bb17da70c52529f2ffd3be4114073478200efa80a969712bbbdbd731d3c618886cedc4bcb5a5206287a90de951d449dc9b5d36ffd4b31231083a6c0ca18180cab51c3633cd859d553935971f63ded4781278941362708ddb4e9640cb1599fd2d1f15238dd8ae423dd0f6428179a113e50987d7506b3f10a6f7bc25d71423b50c090e66cb336d7ef54175ce6a428b558da1b70aab4dc58f64f27fcbc87ca451b087bf4127b1d1b2300204a4525345bada8d035a919abb5f5abd1a04545b22844c825c2ecb91fc950a278a6b05173698894ca67fb116ebc780e7ef4fd5b6e6e317adb202aa155a02c06a8f40ef5b91451b7ea9686474f848fec673fe7b0b8b227a9ae0c568d312a20d9eae7cb704eb088ce71486d6b168c24fecca5bc806dcb5b1ab02bbbc25329609cd866a8eb8f106be51c29800ffb9db2bffa0a368b899d2095238e062de01c6648dadb0c55ed382a32f9af9ea004ea40836448f97a0dbdcdff1f802041029374798a7b4d0dae6ecfa080a3d4b5991b0b6bed0dff905070e13383c46616c75859297a1abbcd5f6000000000000000000000000000000000000000000000000000b19253701fd210500e31137f410bedff0b653721cf672467cbd8e67cb686a2380a70bb13c1dc636b7337f38d72eec18b7f8b01f8d7d688784960ee1dfc95f6833581743ba365e191316742b49e4c6afeee9a3e503970fe48c3954b6e851f7cb17aff4074ad844f21c84ca0e53e6620582730d50f7a644e33a64d20434251cd82752ce3405d55dc8a08619b5daa099ceccebf1d9de35bffac13bd824b3d860b8bb79e3065ec807a454d259ab6e579873675a4bb3e13d6667ca65617587b35059964f55fb55c703e8791f35bcd08f9309eae1295122d55f4362ca6b55307dd2bbae75a613949ad137d8a98166f77b98752a7127f8b33d884afa5738800317ed4e70ac35e1a25063d87a1c8e03da05e6afe4d3fe3da36fd131e0d33e118bc294de8ecc2c037d403a9aad426a845e48f8bf31da66d4b006366313e3a5e6d05517fecf908d02ff70302b224fad982299a82f7a9a50352139691d9794750870aaa2d16393c5acd97a2ae7bd9a71588f62f652c542da1b0cf954b92d14fd052a2293052d9ae94971737dfd36aeaa2841fb3e2ef8c4bfb6d9f1927d811c043988f139af61fc8ade2a6e3cda9a6837511e62681bfea4825bccde2007642fbf525c413e8ee78b1b3752721f14b12b17bc91638bb78c78eaf19fc2ff1ed116029c8393677d917acbbbd6a3122dcbee6250d813f8273bcf8ec7c0afe89183a7b8fe4489696c929e7a215a6e44ce5f5840f2a75f24b11432d1c68ca5e424ada126a8a1c0583a193adad652ccc5139bf6853aad505f1e8b572e8b3a8c0970f7efb74795965c40aaf91c244c4904e13283b82a4e76d31a93812532e28bdc8736be77c4e2cfd0c88f927432b32a32dcb45a53bdcb9c2fb6c378b0f3e118b12126aa08e230115abf3e5dd063528a2842edf1d89904c3781ad35a3d58fc279b0c3e763abd7dad7c39ab70c0784bab752dab0a84e2b8339ef4e60591084259b1e60dda19ceb4067733989c9d9bc5198d475f12936700d4ae2147ed8636d729dfd7ec04f0ba8883a7611758ac7ee58b7f83f761bb586c347b574c16b1ff55ef32acb7ac04d579e193ef755c9d9dec3ecf092f7aa8c07a47488b4c7fd945452f9c6e2d3e2ea259581772141b742e0e38cc188cea139258ade0916056f78519ff4ec34c2505838ed8052256a34f40bd371729bf12a7d13a39e9cb56f435d16f85be7e54cb12fd662449642470d21a7434f46f79bdd256147b5f949ee94406890a0f480e9cfdb522e435c46b1c19df9cc7c4e05870c0ee08b837d8ff714449a59be20e2338fa00b1123a339537c4611f31afe499474db2693e3c2cf573cb620a6a31fd99d0efe9b958c6df084139d5a43a401198e339c161aa07f90f10316df6608d8916a0fcc362d2d7525d03b179963337bba88430d33100ee7e991785a814a02ef367de1aa36a6af65d132d2107b16ff0969e132eaa5878b084d098b9778c124fb7cb4f42cf5fc244225629d980865f778301d4bda132d695d1093167a0293b3b13e5444042861076d5434ee1756bf17786f7bcd4b1e69b1275780fc6e132ff02f5528e3a5adf25b3b1cfcf83a5fbcb618ffa351cc344fab695c011136ed3f876d10399a8770aef31a8bbee9de6b3c637fc7dda970a7b9fb9e82bd51b2af6c44f28a7884f4492535bc20b2f6e13ead26ce84c4fdeb5aec0b764c3ea69cd75d3d0dca333ca1e73d07c1dec553003c14b80c58752c66f07bc4c5e5b94940e5448f0c5292e6463afef9523d29d6fe94c406eb98012be560247b4e54974e4af4cd5403b15c35c49186b679bf6325f647ca5e9885fe6ff1cbbc9241be977ddc4d94b7c310198770af505c783615bc92db3b121cb5d69000000",
  "txid": "7e8ae0a1928056eacbe097f40488e3a3b35af122d80e22ec26672729d371aa05",
  "hash": "a5005e7ccc410731efef592b023bdc7a3b4e41c142b3040a1150bc70f95d68d6",
  "size": 5085,
  "vsize": 2278,
  "version": 1,
  "locktime": 105,
  "vin": [
    {
      "txid": "9627371f22761ee5dc3a564c1777c3375c82d9ea67bfee3b8d7bcf2ae57a0aff",
      "vout": 0,
      "scriptSig": {
        "asm": "",
        "hex": ""
      },
      "txinwitness": [
        "022852687ab8fe8e03cfc2b75f21dbde03a59c906055d7d4d7765bcce02c92183262961917db357acece1e90abddb7903def25773133b69e2c95b3013ca1776506817ee44789c93e906e1ed41af5ef8d265958c1224004f459c5538482692e1008c8b116770c7137cc1bbb95c22ff81a3c604e37f226420a488fe9b423e12d46859d4b1a63c1f966921d2f647cd3ed303225e441972c266127bf4d5fee37928447d450fdc9c62581625fa18a1931999e0a3257fccd0bacc6b40239a3c2e3e2abf9446dae6d05eb61f7f9d9a1359037d46483e8382c31b0477be9a413b70a5038b1821fffa9b29adb43c376c7f7d8c3cc65cc177a1e9fe4d979db3fd623360fece1b4dc54b97a516b27ed62b9b0a669c8ab9eb79fa60b78b1038513580e9bbb7e16a2a8fed97153b8141d630cd5f2bb4da66d776de15700194a81308b939df36971ac21c955c9d5363315ca77982d9dbd8fa29b9f034fe89459239dd116f4393581bbd5e8ce6716afbdc44eb1e311bc4737efa693cfc5846e0c816070f165e01d734199e8df4e2aa95f44d6c238010e138353912af5a7cda05309f035751edbe51e77405a9d4d1a7365526990bb2a3396f1594f56929605475adf3bb1adef23c2eb80a1c0965eb5846ec579a21ca5ce4821a834dee05bf2ffabca91f9601d4c23a41f45aa134d0070461b97d9d34199654a4a077b770e57229174b80bf6ef0fe1f931e541c0f49809525ebc22cd192691c13bd11c35d5a31f4888b3f8fb54aa20618125777423f97545758ff2890ca6437d7a3108295e49b8601180461b8df24abae8730d96bb1b2b7cdb1aa03410429dfc9ba5ec7129349f9261c50de92231134272205307213a19c51bd8314a9198cf6b36d9a4f104cd0da84c93809b922c084611d9d872021a9f1225278aedb0e946ee2e4cf8ea009de90ef21707271f1fb03f0ec66d75f34a5ec1f6df5f7e36c6e5d2513f9e3d521302e8e947bf4c51ed1f9cde53c893c215438b746fdc82fa4a5551b71ab91b826a4ec8347e208e8e7e28303856451590a0e48028c06a705f649f80e90502a356923d8ca5986c0b3dc00ee8296766939035a9d95527d45ffcd90e157ddc47c4242464aa13ec4eea1dc434d13b26ecbf8f321955d488159b57f961fa0e8f49bcd18da74837d260327c8abdf45816cc85019c1051128432e060963ec06d01d882e0645b75586cebcae0b7753b1d339f17aacd87a528070db98deb7505f157ce83c4eb58c05fb0c86cce81997af5636c2d17b11362a222e96fcd73dd4ab1d12875e7b923e2907d727ecc7f8a43e0f8c78e7c2a539bc8436c5912e1228f147b66fb0276808e2a8178ca1d65ef9257f90d09f129df6f63ab9582f014f4225c61444be6588b0c5f472fe170a55116fb82e108ab96182944484ef0db5e5d0c0a64b587fa09610517f1d9adaf9a404f8e0ba2f98edeb4620b57e67a15b3e3268ee67128b78d5467ba72e4db068b92a4ab1c1fe595fc6c8af967f521b55fcefed753c67f0d08001a65e2c71b3bb47c9d5c98f26171ef45eeb169dc89d45b082b8d4199a674c1a4f0add948d124f01c483ca75a9823bf69ebb62c870f3fad61db4908ece60c0782b98cef230f7a357a312628689c4d9cc2bbfeb385c61a0d9de6995295a213a28e9cbd3acca11cb63bd02a931e97977e5c722052422d5549c74944d15e486b31ce6112a1f6e45a1b9f596129e6adf62b32e2686de78c08f8f698f16a954a68469aa581ac5398dc23474d653d4b2dd591848aed4d9a7212952a17087fea2c04a4266cf1efab1785c84a8466c391596aacc56340632eeb1f86a885fd4b2116189ed3fffe05dcc836b769b0bf262081f8b5b18a33f5fa509e46290c77324164210c44b3e933fb8e00efa6b9a5c200420502a374cfff46f3af172c1fb2a5ce4834bd1caa32f03266d95dba56b780bb4460bc5ad463f441f44e10d57d7feb36bef49df006f13973b1569f0dd22d7f376c10cd579d1eb22f640eadf8eabefb3df93cde8079ad1941bc752ba9259c388eb737d94af97a7517f4c6ef448dcba35d26685fa33f254509dc7d930546d514fbdb647bf2fbc26ce5228bd7371da8e6a90dc61b2e114aae8cf1280e91315445adaf7bc686e8caf555bfce65bf0fcadb1ae5ca92e5fed143116d17bfa711b9f375c4a79c0296fda14dab5ac56cf915f8b6dc21217823aebfc33bca932e045f3a8424fd0323862ed8dc973e3e9a00bf978547aa28e62bcb2b78237586cca329a80501dc3cc683db77e7c65c27c846073a130ec1a0984b244f0368359b302af4779ebf9dcff69081351b16be96b2ff6f9dae14e798a5a35370ee78113562cd8918a8e5fa3cdd384b84f0efa70169a7eeb7e783a5249b52ffd629f76916ec013d865baf4f2b5a0e33c0bb1a2e0c4c47fa4232f7ccc0c78c585cece8e2545d27c8b2954a5e6586d162b6b90c142a88af858f90da5a0ba3112a9297d582cb3577cc3d38899b68a4c71a667616db26f2d17ab8cd5b9fb86e9be74356a489a13c06f93a9a1d619eb378c777cde088c69a526dae876a34f1599c8805f9105b2e51710154bf7d37a567436bb7e78f4f5a8c8e618ca3b60f89a93c33fdbfc782e817182650e3a6deaa0f3915757aad1726b07bfc6ddd0f5025418e2f2dd66bad7d5bbdb4d1656a0e39a3cdfa031eb5d56d91b0e90b9062b7d31f5aa8e2327d9ed7bfa58c5f363e69db6f164fec306100e71ee866593ad0afe84cc73392cc25c5dc04d9d0581fc6833002f5acd3dbdaac690dc2f64e47acb49d8c521cebd575f53f0f73aeecc36d0faa86a4bb17da70c52529f2ffd3be4114073478200efa80a969712bbbdbd731d3c618886cedc4bcb5a5206287a90de951d449dc9b5d36ffd4b31231083a6c0ca18180cab51c3633cd859d553935971f63ded4781278941362708ddb4e9640cb1599fd2d1f15238dd8ae423dd0f6428179a113e50987d7506b3f10a6f7bc25d71423b50c090e66cb336d7ef54175ce6a428b558da1b70aab4dc58f64f27fcbc87ca451b087bf4127b1d1b2300204a4525345bada8d035a919abb5f5abd1a04545b22844c825c2ecb91fc950a278a6b05173698894ca67fb116ebc780e7ef4fd5b6e6e317adb202aa155a02c06a8f40ef5b91451b7ea9686474f848fec673fe7b0b8b227a9ae0c568d312a20d9eae7cb704eb088ce71486d6b168c24fecca5bc806dcb5b1ab02bbbc25329609cd866a8eb8f106be51c29800ffb9db2bffa0a368b899d2095238e062de01c6648dadb0c55ed382a32f9af9ea004ea40836448f97a0dbdcdff1f802041029374798a7b4d0dae6ecfa080a3d4b5991b0b6bed0dff905070e13383c46616c75859297a1abbcd5f6000000000000000000000000000000000000000000000000000b19253701",
        "00e31137f410bedff0b653721cf672467cbd8e67cb686a2380a70bb13c1dc636b7337f38d72eec18b7f8b01f8d7d688784960ee1dfc95f6833581743ba365e191316742b49e4c6afeee9a3e503970fe48c3954b6e851f7cb17aff4074ad844f21c84ca0e53e6620582730d50f7a644e33a64d20434251cd82752ce3405d55dc8a08619b5daa099ceccebf1d9de35bffac13bd824b3d860b8bb79e3065ec807a454d259ab6e579873675a4bb3e13d6667ca65617587b35059964f55fb55c703e8791f35bcd08f9309eae1295122d55f4362ca6b55307dd2bbae75a613949ad137d8a98166f77b98752a7127f8b33d884afa5738800317ed4e70ac35e1a25063d87a1c8e03da05e6afe4d3fe3da36fd131e0d33e118bc294de8ecc2c037d403a9aad426a845e48f8bf31da66d4b006366313e3a5e6d05517fecf908d02ff70302b224fad982299a82f7a9a50352139691d9794750870aaa2d16393c5acd97a2ae7bd9a71588f62f652c542da1b0cf954b92d14fd052a2293052d9ae94971737dfd36aeaa2841fb3e2ef8c4bfb6d9f1927d811c043988f139af61fc8ade2a6e3cda9a6837511e62681bfea4825bccde2007642fbf525c413e8ee78b1b3752721f14b12b17bc91638bb78c78eaf19fc2ff1ed116029c8393677d917acbbbd6a3122dcbee6250d813f8273bcf8ec7c0afe89183a7b8fe4489696c929e7a215a6e44ce5f5840f2a75f24b11432d1c68ca5e424ada126a8a1c0583a193adad652ccc5139bf6853aad505f1e8b572e8b3a8c0970f7efb74795965c40aaf91c244c4904e13283b82a4e76d31a93812532e28bdc8736be77c4e2cfd0c88f927432b32a32dcb45a53bdcb9c2fb6c378b0f3e118b12126aa08e230115abf3e5dd063528a2842edf1d89904c3781ad35a3d58fc279b0c3e763abd7dad7c39ab70c0784bab752dab0a84e2b8339ef4e60591084259b1e60dda19ceb4067733989c9d9bc5198d475f12936700d4ae2147ed8636d729dfd7ec04f0ba8883a7611758ac7ee58b7f83f761bb586c347b574c16b1ff55ef32acb7ac04d579e193ef755c9d9dec3ecf092f7aa8c07a47488b4c7fd945452f9c6e2d3e2ea259581772141b742e0e38cc188cea139258ade0916056f78519ff4ec34c2505838ed8052256a34f40bd371729bf12a7d13a39e9cb56f435d16f85be7e54cb12fd662449642470d21a7434f46f79bdd256147b5f949ee94406890a0f480e9cfdb522e435c46b1c19df9cc7c4e05870c0ee08b837d8ff714449a59be20e2338fa00b1123a339537c4611f31afe499474db2693e3c2cf573cb620a6a31fd99d0efe9b958c6df084139d5a43a401198e339c161aa07f90f10316df6608d8916a0fcc362d2d7525d03b179963337bba88430d33100ee7e991785a814a02ef367de1aa36a6af65d132d2107b16ff0969e132eaa5878b084d098b9778c124fb7cb4f42cf5fc244225629d980865f778301d4bda132d695d1093167a0293b3b13e5444042861076d5434ee1756bf17786f7bcd4b1e69b1275780fc6e132ff02f5528e3a5adf25b3b1cfcf83a5fbcb618ffa351cc344fab695c011136ed3f876d10399a8770aef31a8bbee9de6b3c637fc7dda970a7b9fb9e82bd51b2af6c44f28a7884f4492535bc20b2f6e13ead26ce84c4fdeb5aec0b764c3ea69cd75d3d0dca333ca1e73d07c1dec553003c14b80c58752c66f07bc4c5e5b94940e5448f0c5292e6463afef9523d29d6fe94c406eb98012be560247b4e54974e4af4cd5403b15c35c49186b679bf6325f647ca5e9885fe6ff1cbbc9241be977ddc4d94b7c310198770af505c783615bc92db3b121cb5d"
      ],
      "sequence": 4294967294
    }
  ],
  "vout": [
    {
      "value": 499992.8817,
      "n": 0,
      "scriptPubKey": {
        "asm": "1 ff9290cea7a4f7d26e0b6b60b533e14355cfd7d1640c1a57dc7d5f5f5bf885a1",
        "hex": "5120ff9290cea7a4f7d26e0b6b60b533e14355cfd7d1640c1a57dc7d5f5f5bf885a1",
        "reqSigs": 1,
        "type": "witness_v1_scripthash",
        "addresses": [
          "3QJmnh"
        ]
      }
    },
    {
      "value": 1.0,
      "n": 1,
      "scriptPubKey": {
        "asm": "OP_RETURN 2c9179c9e42e697d8686391091d1dbf29d62f6d0f0be42b5967984a94bab5446 53038960afb2329428fd207c0dd304d81ae9a0c44ad14e3481c987567574cfcf7323a9408f9212b408dd005c2df324f83ac980e46af16e14a1e9a7765554efef1343c920eff272d468bd603c4d9344985aa9e0840a910e74c189c71635348f8f3363e900cfd252f4489d401c6db364b87a89c0a42ab12e54e1a9e7361514afafd38309e02f32b214a87da0fc8d5384589a692044ca51ceb4014907d6f5f44f4ff3a329c00f129234885d80dcad73a478ba490064ea71ee94216927f6d5d46f6f93c349a06f72f254e83de0bccd13c418da2960048a118ef441094796b5b40f0fb3e369804f52d274c81dc09ced33e438fa094024aa31aed4612967b695942f2f53038960afb2329428fd207c0dd304d81ae9a0c44ad14e3481c987567574cfcf7323a9408f9212b408dd005c2df324f83ac980e46af16e14a1e9a7765554efef1343c920eff272d468bd603c4d9344985aa9e0840a910e74c189c71635348f8f3363e900cfd252f4489d401c6db364b87a89c0a42ab12e54e1a9e7361514afafd38309e02f32b214a87da0fc8d5384589a692044ca51ceb4014907d6f5f44f4ff3a329c00f129234885d80dcad73a478ba490064ea71ee94216927f6d5d46f6f93c349a06f72f254e83de0bccd13c418da2960048a118ef441094796b5b40f0fb3e369804f52d274c81dc09ced33e438fa094024aa31aed4612967b695942f2f53038960afb2329428fd207c0dd304d81ae9a0c44ad14e3481c987567574cfcf7323a9408f9212b408dd005c2df324f83ac980e46af16e14a1e9a7765554efef1343c920eff272d468bd603c4d9344985aa9e0840a910e74c189c71635348f8f3363e900cfd252f4489d401c6db364b87a89c0a42ab12e54e1a9e7361514afafd38309e02f32b214a87da0fc8d5384589a692044ca51ceb4014907d6f5f44f4ff3a329c00f129234885d80dcad73a478ba490064ea71ee94216927f6d5d46f6f93c349a06f72f254e83de0bccd13c418da2960048a118ef441094796b5b40f0fb3e369804f52d274c81dc09ced33e438fa094024aa31aed4612967b695942f2f53038960afb2329428fd207c0dd304d81ae9a0c44ad14e3481c987567574cfcf7323a9408f9212b408dd005c2df324f83ac980e46af16e14a1e9a7765554efef1343c920eff272d468bd603c4d9344985aa9e0840a910e74c189c71635348f8f3363e900cfd252f4489d401c6db364b87a89c0a42ab12e54e1a9e7361514afafd38309e02f32b214a87da0fc8d5384589a692044ca51ceb4014907d6f5f44f4ff3a329c00f129234885d80dcad73a478ba490064ea71ee94216927f6d5d46f6f93c349a06f72f254e83de0bccd13c418da2960048a118ef441094796b5b40f0fb3e369804f52d274c81dc09ced33e438fa094024aa31aed4612967b695942f2f53038960afb2329428fd207c0dd304d81ae9a0c44ad14e3481c987567574cfcf7323a9408f9212b408dd005c2df324f83ac980e46af16e14a1e9a7765554efef1343c920eff272d468bd603c4d9344985aa9e0840a910e74c189c71635348f8f3363e900cfd252f4489d401c6db364b87a89c0a42ab12e54e1a9e7361514afafd38309e02f32b214a87da0fc8d53845874c56d991ac65ffb8e3d25b7a743bd9799d1212cecf02f2342aa343257e00e6b",
        "hex": "6a202c9179c9e42e697d8686391091d1dbf29d62f6d0f0be42b5967984a94bab54464db00453038960afb2329428fd207c0dd304d81ae9a0c44ad14e3481c987567574cfcf7323a9408f9212b408dd005c2df324f83ac980e46af16e14a1e9a7765554efef1343c920eff272d468bd603c4d9344985aa9e0840a910e74c189c71635348f8f3363e900cfd252f4489d401c6db364b87a89c0a42ab12e54e1a9e7361514afafd38309e02f32b214a87da0fc8d5384589a692044ca51ceb4014907d6f5f44f4ff3a329c00f129234885d80dcad73a478ba490064ea71ee94216927f6d5d46f6f93c349a06f72f254e83de0bccd13c418da2960048a118ef441094796b5b40f0fb3e369804f52d274c81dc09ced33e438fa094024aa31aed4612967b695942f2f53038960afb2329428fd207c0dd304d81ae9a0c44ad14e3481c987567574cfcf7323a9408f9212b408dd005c2df324f83ac980e46af16e14a1e9a7765554efef1343c920eff272d468bd603c4d9344985aa9e0840a910e74c189c71635348f8f3363e900cfd252f4489d401c6db364b87a89c0a42ab12e54e1a9e7361514afafd38309e02f32b214a87da0fc8d5384589a692044ca51ceb4014907d6f5f44f4ff3a329c00f129234885d80dcad73a478ba490064ea71ee94216927f6d5d46f6f93c349a06f72f254e83de0bccd13c418da2960048a118ef441094796b5b40f0fb3e369804f52d274c81dc09ced33e438fa094024aa31aed4612967b695942f2f53038960afb2329428fd207c0dd304d81ae9a0c44ad14e3481c987567574cfcf7323a9408f9212b408dd005c2df324f83ac980e46af16e14a1e9a7765554efef1343c920eff272d468bd603c4d9344985aa9e0840a910e74c189c71635348f8f3363e900cfd252f4489d401c6db364b87a89c0a42ab12e54e1a9e7361514afafd38309e02f32b214a87da0fc8d5384589a692044ca51ceb4014907d6f5f44f4ff3a329c00f129234885d80dcad73a478ba490064ea71ee94216927f6d5d46f6f93c349a06f72f254e83de0bccd13c418da2960048a118ef441094796b5b40f0fb3e369804f52d274c81dc09ced33e438fa094024aa31aed4612967b695942f2f53038960afb2329428fd207c0dd304d81ae9a0c44ad14e3481c987567574cfcf7323a9408f9212b408dd005c2df324f83ac980e46af16e14a1e9a7765554efef1343c920eff272d468bd603c4d9344985aa9e0840a910e74c189c71635348f8f3363e900cfd252f4489d401c6db364b87a89c0a42ab12e54e1a9e7361514afafd38309e02f32b214a87da0fc8d5384589a692044ca51ceb4014907d6f5f44f4ff3a329c00f129234885d80dcad73a478ba490064ea71ee94216927f6d5d46f6f93c349a06f72f254e83de0bccd13c418da2960048a118ef441094796b5b40f0fb3e369804f52d274c81dc09ced33e438fa094024aa31aed4612967b695942f2f53038960afb2329428fd207c0dd304d81ae9a0c44ad14e3481c987567574cfcf7323a9408f9212b408dd005c2df324f83ac980e46af16e14a1e9a7765554efef1343c920eff272d468bd603c4d9344985aa9e0840a910e74c189c71635348f8f3363e900cfd252f4489d401c6db364b87a89c0a42ab12e54e1a9e7361514afafd38309e02f32b214a87da0fc8d53845874c56d991ac65ffb8e3d25b7a743bd9799d1212cecf02f2342aa343257e00e6b",
        "type": "nulldata"
      }
    }
  ],
  "blockhash": "86d3aa2e412fd1c0ad7fd5d7d84b7ddcf41a8bf652344eaa49dd1e6444ae5dce",
  "confirmations": 1,
  "time": 1764176858,
  "blocktime": 1764176858
}