{
  "hex": "01000000000101356ff14ff289de1ba86a1b7d1e20ce4e60e58fff54a9ba32b10b2ca59439a3200000000000feffffff0200e1f50500000000fdd5046a20f6e5545eae3c32a349677cb82ff177295a3feffba2713c9ef353f6e3ab423b634db004a800f2fa71fa3c7a7fd988114889e193b4b57d0ddeff4f0f7b97ca6f3b988e738820d2da51da1c5a5ff9a83168a9c1b394955d2dfedf6f2f5bb7ea4f1bb8ae53e840b2ba31ba7c3a3f99c85108c9a1d3f4f53d4d9ebf0f4f3bd78a2f7bd8ce33c860929a119a5c1a1fb9e87128e981f3d4d51d6dbe9f2f6f1bf7aa0f5bf8ee132880727af17abcfaff590891c80961133435fd8d5e7fcf8ffb174aefbb180ef308a0525ad15a9cdadf7928b1e82941331415ddad7e5fefafdb376acf9b382ed368c0323ab13afcbabf1948d1884921537475bdcd1e3f8fcfbb570aaffb584eb348e0121a911adc9a9f3968f1a869017354559ded3e1fafef9b772a8fdb786e93a800f2fa71fa3c7a7fd988114889e193b4b57d0ddeff4f0f7b97ca6f3b988e738820d2da51da1c5a5ff9a83168a9c1b394955d2dfedf6f2f5bb7ea4f1bb8ae53e840b2ba31ba7c3a3f99c85108c9a1d3f4f53d4d9ebf0f4f3bd78a2f7bd8ce33c860929a119a5c1a1fb9e87128e981f3d4d51d6dbe9f2f6f1bf7aa0f5bf8ee132880727af17abcfaff590891c80961133435fd8d5e7fcf8ffb174aefbb180ef308a0525ad15a9cdadf7928b1e82941331415ddad7e5fefafdb376acf9b382ed368c0323ab13afcbabf1948d1884921537475bdcd1e3f8fcfbb570aaffb584eb348e0121a911adc9a9f3968f1a869017354559ded3e1fafef9b772a8fdb786e93a800f2fa71fa3c7a7fd988114889e193b4b57d0ddeff4f0f7b97ca6f3b988e738820d2da51da1c5a5ff9a83168a9c1b394955d2dfedf6f2f5bb7ea4f1bb8ae53e840b2ba31ba7c3a3f99c85108c9a1d3f4f53d4d9ebf0f4f3bd78a2f7bd8ce33c860929a119a5c1a1fb9e87128e981f3d4d51d6dbe9f2f6f1bf7aa0f5bf8ee132880727af17abcfaff590891c80961133435fd8d5e7fcf8ffb174aefbb180ef308a0525ad15a9cdadf7928b1e82941331415ddad7e5fefafdb376acf9b382ed368c0323ab13afcbabf1948d1884921537475bdcd1e3f8fcfbb570aaffb584eb348e0121a911adc9a9f3968f1a869017354559ded3e1fafef9b772a8fdb786e93a800f2fa71fa3c7a7fd988114889e193b4b57d0ddeff4f0f7b97ca6f3b988e738820d2da51da1c5a5ff9a83168a9c1b394955d2dfedf6f2f5bb7ea4f1bb8ae53e840b2ba31ba7c3a3f99c85108c9a1d3f4f53d4d9ebf0f4f3bd78a2f7bd8ce33c860929a119a5c1a1fb9e87128e981f3d4d51d6dbe9f2f6f1bf7aa0f5bf8ee132880727af17abcfaff590891c80961133435fd8d5e7fcf8ffb174aefbb180ef308a0525ad15a9cdadf7928b1e82941331415ddad7e5fefafdb376acf9b382ed368c0323ab13afcbabf1948d1884921537475bdcd1e3f8fcfbb570aaffb584eb348e0121a911adc9a9f3968f1a869017354559ded3e1fafef9b772a8fdb786e93a800f2fa71fa3c7a7fd988114889e193b4b57d0ddeff4f0f7b97ca6f3b988e738820d2da51da1c5a5ff9a83168a9c1b394955d2dfedf6f2f5bb7ea4f1bb8ae53e840b2ba31ba7c3a3f99c85108c9a1d3f4f53d4d9ebf0f4f3bd78a2f7bd8ce33c860929a119a5c1a1fb9e87128e981f3d4d51d6dbe9f2f6f1bf7aa0f5bf8ee132880727af17abcfaff590891c8096113e6cf7507578a0f17ce4cddc042d81d69bed901be65de561f1602aec6e301bb016024ab89782d00002251205bf0830bd0ab574393a32a3829f76557309eec00c7510188870b9df02a5e487b02fd7509528909188839f79ba99dda7847c083592f34bbbe253c3c8517057457092a883b2d1822c6261581031c88ef3f3319205c2ad1de61ded4792405dd00736fda16778346d7d0ef9ac79db4dace10cb738e37a3857c5ca584f17fef45bebe32e058c6d3ffad28c396bba4cabf80fbd57199e4b6306b2415f7e4224382a731bf9bf70e900b397c48769b763c1dbe4b872b036ee5fe053b3c0020e2ca570d12d473023ea0c9b98fbfbaad5d92c2b2faa3c93c2066519736f31461439e3b38e00c0922c60f4127806c17109fac569b03b5ce29eb882e1ad879f373541608a36537c04a413ed5268275d8080641055dc37a94ca4acca8fe53752abbedb18d0ec72d0fe463532571e2c78582d7a1b2b83b686c48a2a8beca792bdea7352906b33f8ac63f0cca075131c59ebfcbfffc8072075949a10b966a492ff3638dc31e306f215a76314d9a6eda790594e4157f3916d357df762607ec3e76ba271110386bda60122858a74552a87810363555cf317729ca5f650b61473bf95822241dacaa82b76863a5b406201978e91523422fe8d3b9fb837ce012c34982a4a27c46687ae47713f58e8b72caab4a908dad568d5586ae3715aa932f63677d384c4c181fead5367768683cb500728cc8fa8f81ac52bf29e3e05edf6a84d243131649ebb854b8234ac2d54f13770a7ef1d93ddc1f48bc57bcc72d27d2ede4d66c82f22628d0890d67a6a67a0cd60ae3eb8b1a7ad8dcacf746fc27bb234dea8040c3d81e653565bd52fcf97fcb69028009f58cfc48bab69fbad503478c63f1383e0a785d75b9778ff8d16fd6946eae9a6f97bf7b2fbff17adcc554dc3b68b24967468dbe58154c702b95d2765c66809556bbe7a17979dffd89bbca8a5546dab7f05aaed253c402d6b1a190d2cec404f8b5be0f345ef8325169ff5bd324728e726e98ebde66b46e8bdc03fd4170a9069a049d8bb5636a26745ccb0b1a5a86cdc934c265e2109705aeac0d91a0fc7411dc4854faf5263a828f6a226b0953ad7e1e4482eeb3b12d87ddbcc4f58af8d0bc47c7de31058f94d682793c92f6e06677141883ff9280fa3148d330377a4ecfa041b8fab766de7cc8bdc2b6c41131b7ed62a5c2b4b9b21e6fea4d083776bb2deb7759b9005d6eee76a5c09f6b89164a192a61236eea31c818052fe17baa923dbd3d5d3882a5eee3fb29f072428c7948a04070d5431b904b107e19b8547f253c3f526a5e1fed61ee944908b2608752512b90787b66ad75ef11a07b4166e4dd7e187db3faa0dd7f9eed3f40d82ed71a661276ce39ad9c0d78801417b5bb21987ad9509ea815b17ddff39e331dca7e32c231cafbabb27df39735af13f5baef14fa349fa10b91edcaf8aa76d5bc47cc0800b93286adb1d1bfb8e00af41580ff1f25ff2a3d0a32ce00d8a267506577fe488e40c8deba3e7d5c180f4ddad82a6d71eab0c28db8441f1c3f71d9af7eb5269b0da85d80ea0b1a246752c0e3d720263599a36f63b86ee8be6010061d661b0ac4dfea679c1a45a2399e466db17c9448cd2a178638cc8a1b2894928ed9677f7e451133df1f1ce57b15f584bc08f29b103080451bfb1efe5c3dbdae438817bb785b1298f3670c1209225b660501c08e89172c44af04ae9fc12d43781b4a5a328d4acee8cb6389f717b11e956d0235493fe338486c2d2333deb67158599d3fc83c0e0d34d77cf35a0b0b31803cd83b15d51f9ee927f19b67d258adb9fabc8cf5f72563190ebfbd1e7e5c5a664fcd97863d5e51cf475423d35177b82ebefe3161ce10d4c57a64759a4a00924eafbad63a13c96a6ce03a4197dfbd7310fe9891acf2b4fabce695a84374bc4ebff367ece199ecb55818d370e2eab907f7fb496293eb57b40c313c60fe46ab1b9e117a98144a062ddb9aae13e0840118686fe91258dd7aa3904f5d3ad4f2cc440520a55a3a34d6810eab66697b3c67e5c7ecca9c1c7d3e15e9370f9054811cb25137ef86d73a59c2c2ea3126d73cc85f7ecb5a2246669d1d5017256a5c6cf3fd9fdc691526e064651e7d7a554724f7a4acfd68e6c401084a3a4827c84b1bd8ab6e29e14018020322acd21e4675f8b7ea7aa4b198e15588e9fe3f44173b2fe93217e99635b9ace7f1e58f7e34f672faf7df98d0b8405ea4aa7e97c7f0d1ca3ea3d627f435f9fe708e329a7b3e28f3ed61b9ae316538344386bded72d07fb1110e34686a7b047f72ffb4f2dd64dfc9058009aa0cfd0a851b6f7abccd7db270be348c75c1938a5cc38c26495d30441033f4617d41ffde98d48e5d4654b0dad53ebc9cb5539cff499a0118e4e63ac8781dd999324cbd323276fceb6757c5adf4bda8809d66d5b5accf73f4597325f820d59e2e37b58dfb36e67eba394035c3136a5ac3c6bba74b28b721d287781f6dcf4d325161af17b6a634cc9a0839aabca1f2c0c04df0a068dd1e39c5b91522df98dd4b76c70d7f1fe9ba20f6b13b0319c49643b0d9aea42501ab0c93ff0840338f010cba1df0d707c2698f243a8a34d4de803ddf871b80add65170d1e28f6c180f600d25fe288294492d2e5bf7b3ed12e0338e32919e87be9b8b1d018a6443275a40e231885f160e825fbad95f606cb2f697a8dfc848e9d3ae2b2f036eccf4c5c69a803012f10911849c65f8f696db5c7ec55850982cf15f0f96fba514cdd013ffc09598fb77d2774435b8ec1885e657212f0222fd217caaf808a9f86f023b66e384814708a30a643791ea7d5bb099a6d9e4af766ecf48a52d1f712b54317a54d2e77e9153f3820f3f118aa6e5cab4cedaee79f00139569391d1f31672330a71928f4f9a4023d2af5ea0b7b6828a38667b9a1009a8fc8a6c173795277d98ef5139fc134e09cdf7cb721c1303daa8cc50a75fe2ce4b1dba9a33a02dd29fc8f5314c871bcc1a3972136af2a7bd038c688fded2884f1b6ad08ebdd86e917914d9085cc8a77045549a92f8fad0c6331ca185f356699f67e25c2a02b1e4129395f3901fc0786c30940cc8a038eb0939e693501dfc897c22988ca02372e5c62414a4232a868480bd0c7d22004fd735def64a92e8a2c7f1a79ce654bc7cc55f9b97dd4f779dd5775e5380b07723de094fcdd0c0481f68d531785b20354fedf4510231c34ac3671a312aec63fed261546590914faf2a84ab0bfc30d1c788a5f1c10492ae286027bb1da8a2ec33bd15f8131379ac937e842f9dae38b32103d4d6878d6f9ef8b98fb480398b5d7c8308e3ed07e14b41be45b42a1ad1017694aa9fb3c6e0d0351e26e99c7fb8eabf1f91847507ed545f7f30191fb75a590009203034566791ced4dde6e8f4fb202232528184999ba5b2bec9e6000b0f2e484e54969bb2bac0c9cddbdfe3eaeefafd494b575d747ca9b1bac3c9d3000000000000000000000000000000000000000f1c313d01fd21050025b0f67bd1a23b2a84c62c64ddb79cb4056ff5b0259e812c770917ce2c4ddd36ce161d9eb236880cbd232937ec61409df7208937e4808c3b287c1c7c6191fa62a3eb9af21e4f45d4f7f323b9171302b2f82d690ed8cc528d5a3d8589f8ce76611f42689014ccf1e6adedbb0314261e53dba79601ad9063527efd58f01989f327bc4e39b8256e5d14859c1b250bcb636860416108a00509e26e4fc9ee2829be91c60aac68184f9d94cdf5ec4f94bd8a8683a44fb0ded39906d5be04b4bde9b21975b0c897c92bb9f776bec34703ca53ad166f30a3f9e8634193d9642cc636e5b2796cffbb975ef799c56913caec3a4198edb7e4c22b934416b5fe0a8b3dd8e19473c6238ecceaac33969710c9903d691cbba245ed604656b57d1fd8c01dbb18ae3f11409921eb3368591c2705ad3e5164bb9d1808e0831c7695536ac5ad893a7d0a85bfa1316d6b2e6e4197c1bd025b826df4af309c88f8ab1f7fdf9f59fdd522ad98b66fe1825e51fdd2c3ae962d28364ce461be3f123a27d212ffa259c0bdf56d34facd7178a6b5ef500c841bffd5530c05b8c7027bbdc9ff68feb787f840f2ba8282f36de729ee419a31764b12837bb6fe5791b14739611432a5955e94a1d7a07d193fe8f8a940b61f426c86d77a305005c3edf5df611dee5ccaa12d7648161b845e281fbd62f00a49400dd9ea95cf2596c8172dd9641c2c13e6940497bf162a9207efc6fc159dcd36ec2dc2d67c908fa1782ad4d9f8eb2d95a31f2333df36ccfb8ba30f56805c56cbed934a0a9697263f746efc8761e731601906199f12934808746149d63bee3a6c3b2502793ad486f0c50f771a17c9b0d4ba53280986a5a6984f5fe6b202bff6447154fd68a90d5b856841f7c3f5e80d936c1e3431df63f92b9d0c9c07befbe6d4ce1e6d05864f91ef5a8fa0977f5796b5c8d50dca2acbe2594342668abb3681db5734cbebd23899e768dfff321a056a741142d33933d6f48b570309c199ac692d67c230624f17cc1fc6605f2cb1bde475dc625b59faf26c94642b6fd5070707c646351fde328198d91a3f0417cd887c478bf92c60839e0143ae51cec57f80608776f32c61b65bd687e8abf28bebd28542255a28c093b28139c29ad2e6522efab3d365f16e3f8173c9cd107ae041483c16c988b943aeca0f9ca76f8e414d05756470c8dac5a16d28404b89664383ea104643e49dd44f404f3efbe36c27c4dac158cfbea13fdc52440023a9ca5bc45a9bc6afae8e32da5d6b89c71b9dc3a0496be2bd5a2f31a856c22636c7c1393fb95836c9385804559c394c1976570b5a2bbd4db473d9cd5ac7fb72beb2ef844f16077ab018b9bd3566eae6021e699e55100bc0f0370c4671a2207333999a33367e868111b67ea604a32b0c0487cf866a2aa3cdd71643cd72b194ea2702a8dc354c5e7d7b5f5c15bbdf2608aadb5d06aba68c4cf29fbc4d430b1529c31fad89d44eefd2bffce79f59cd4dd72e5fbb7f43787be4174488881d6264d1225094b25840e44dbe28ba0e50f287f6e9bb7a0b6a139150b5f13e895e555ed5f312d2641188ac9f2d0318f857233b8bf103c427f8ec6991fc3cd72bbe7afc854bb156e9ac87b0f5f119063a47f8199e2d4b54b71f719a1ff127783f3229e1ab43b7ce6059ef202bc495896d8d5696e40504ecd491df9eef8d59d663a115fefabc21e944f46ce3e114c3688557481d8d0a021425d39a1a8efbea4ec871cb61618bc8d80f2c0dda1a81936a6b6dc02d0661558f36b7195cb40d446b4d358969ecca1f239e1d807b71f59252c00016f5f5fd2e99c3778038bf681c2292e0e9585192a38f459129c19681c0fa24cd1d8c000000",
  "txid": "739665c8715281ae776a3989e2db6380d023b56528df9e053be6dfd3b3e16658",
  "hash": "53d34eb86425592910c63eaddc9821e5b4a52384ed60937639c089fe52ac782d",
  "size": 5085,
  "vsize": 2278,
  "version": 1,
  "locktime": 140,
  "vin": [
    {
      "txid": "20a33994a52c0bb132baa954ff8fe5604ece201e7d1b6aa81bde89f24ff16f35",
      "vout": 0,
      "scriptSig": {
        "asm": "",
        "hex": ""
      },
      "txinwitness": [
        "528909188839f79ba99dda7847c083592f34bbbe253c3c8517057457092a883b2d1822c6261581031c88ef3f3319205c2ad1de61ded4792405dd00736fda16778346d7d0ef9ac79db4dace10cb738e37a3857c5ca584f17fef45bebe32e058c6d3ffad28c396bba4cabf80fbd57199e4b6306b2415f7e4224382a731bf9bf70e900b397c48769b763c1dbe4b872b036ee5fe053b3c0020e2ca570d12d473023ea0c9b98fbfbaad5d92c2b2faa3c93c2066519736f31461439e3b38e00c0922c60f4127806c17109fac569b03b5ce29eb882e1ad879f373541608a36537c04a413ed5268275d8080641055dc37a94ca4acca8fe53752abbedb18d0ec72d0fe463532571e2c78582d7a1b2b83b686c48a2a8beca792bdea7352906b33f8ac63f0cca075131c59ebfcbfffc8072075949a10b966a492ff3638dc31e306f215a76314d9a6eda790594e4157f3916d357df762607ec3e76ba271110386bda60122858a74552a87810363555cf317729ca5f650b61473bf95822241dacaa82b76863a5b406201978e91523422fe8d3b9fb837ce012c34982a4a27c46687ae47713f58e8b72caab4a908dad568d5586ae3715aa932f63677d384c4c181fead5367768683cb500728cc8fa8f81ac52bf29e3e05edf6a84d243131649ebb854b8234ac2d54f13770a7ef1d93ddc1f48bc57bcc72d27d2ede4d66c82f22628d0890d67a6a67a0cd60ae3eb8b1a7ad8dcacf746fc27bb234dea8040c3d81e653565bd52fcf97fcb69028009f58cfc48bab69fbad503478c63f1383e0a785d75b9778ff8d16fd6946eae9a6f97bf7b2fbff17adcc554dc3b68b24967468dbe58154c702b95d2765c66809556bbe7a17979dffd89bbca8a5546dab7f05aaed253c402d6b1a190d2cec404f8b5be0f345ef8325169ff5bd324728e726e98ebde66b46e8bdc03fd4170a9069a049d8bb5636a26745ccb0b1a5a86cdc934c265e2109705aeac0d91a0fc7411dc4854faf5263a828f6a226b0953ad7e1e4482eeb3b12d87ddbcc4f58af8d0bc47c7de31058f94d682793c92f6e06677141883ff9280fa3148d330377a4ecfa041b8fab766de7cc8bdc2b6c41131b7ed62a5c2b4b9b21e6fea4d083776bb2deb7759b9005d6eee76a5c09f6b89164a192a61236eea31c818052fe17baa923dbd3d5d3882a5eee3fb29f072428c7948a04070d5431b904b107e19b8547f253c3f526a5e1fed61ee944908b2608752512b90787b66ad75ef11a07b4166e4dd7e187db3faa0dd7f9eed3f40d82ed71a661276ce39ad9c0d78801417b5bb21987ad9509ea815b17ddff39e331dca7e32c231cafbabb27df39735af13f5baef14fa349fa10b91edcaf8aa76d5bc47cc0800b93286adb1d1bfb8e00af41580ff1f25ff2a3d0a32ce00d8a267506577fe488e40c8deba3e7d5c180f4ddad82a6d71eab0c28db8441f1c3f71d9af7eb5269b0da85d80ea0b1a246752c0e3d720263599a36f63b86ee8be6010061d661b0ac4dfea679c1a45a2399e466db17c9448cd2a178638cc8a1b2894928ed9677f7e451133df1f1ce57b15f584bc08f29b103080451bfb1efe5c3dbdae438817bb785b1298f3670c1209225b660501c08e89172c44af04ae9fc12d43781b4a5a328d4acee8cb6389f717b11e956d0235493fe338486c2d2333deb67158599d3fc83c0e0d34d77cf35a0b0b31803cd83b15d51f9ee927f19b67d258adb9fabc8cf5f72563190ebfbd1e7e5c5a664fcd97863d5e51cf475423d35177b82ebefe3161ce10d4c57a64759a4a00924eafbad63a13c96a6ce03a4197dfbd7310fe9891acf2b4fabce695a84374bc4ebff367ece199ecb55818d370e2eab907f7fb496293eb57b40c313c60fe46ab1b9e117a98144a062ddb9aae13e0840118686fe91258dd7aa3904f5d3ad4f2cc440520a55a3a34d6810eab66697b3c67e5c7ecca9c1c7d3e15e9370f9054811cb25137ef86d73a59c2c2ea3126d73cc85f7ecb5a2246669d1d5017256a5c6cf3fd9fdc691526e064651e7d7a554724f7a4acfd68e6c401084a3a4827c84b1bd8ab6e29e14018020322acd21e4675f8b7ea7aa4b198e15588e9fe3f44173b2fe93217e99635b9ace7f1e58f7e34f672faf7df98d0b8405ea4aa7e97c7f0d1ca3ea3d627f435f9fe708e329a7b3e28f3ed61b9ae316538344386bded72d07fb1110e34686a7b047f72ffb4f2dd64dfc9058009aa0cfd0a851b6f7abccd7db270be348c75c1938a5cc38c26495d30441033f4617d41ffde98d48e5d4654b0dad53ebc9cb5539cff499a0118e4e63ac8781dd999324cbd323276fceb6757c5adf4bda8809d66d5b5accf73f4597325f820d59e2e37b58dfb36e67eba394035c3136a5ac3c6bba74b28b721d287781f6dcf4d325161af17b6a634cc9a0839aabca1f2c0c04df0a068dd1e39c5b91522df98dd4b76c70d7f1fe9ba20f6b13b0319c49643b0d9aea42501ab0c93ff0840338f010cba1df0d707c2698f243a8a34d4de803ddf871b80add65170d1e28f6c180f600d25fe288294492d2e5bf7b3ed12e0338e32919e87be9b8b1d018a6443275a40e231885f160e825fbad95f606cb2f697a8dfc848e9d3ae2b2f036eccf4c5c69a803012f10911849c65f8f696db5c7ec55850982cf15f0f96fba514cdd013ffc09598fb77d2774435b8ec1885e657212f0222fd217caaf808a9f86f023b66e384814708a30a643791ea7d5bb099a6d9e4af766ecf48a52d1f712b54317a54d2e77e9153f3820f3f118aa6e5cab4cedaee79f00139569391d1f31672330a71928f4f9a4023d2af5ea0b7b6828a38667b9a1009a8fc8a6c173795277d98ef5139fc134e09cdf7cb721c1303daa8cc50a75fe2ce4b1dba9a33a02dd29fc8f5314c871bcc1a3972136af2a7bd038c688fded2884f1b6ad08ebdd86e917914d9085cc8a77045549a92f8fad0c6331ca185f356699f67e25c2a02b1e4129395f3901fc0786c30940cc8a038eb0939e693501dfc897c22988ca02372e5c62414a4232a868480bd0c7d22004fd735def64a92e8a2c7f1a79ce654bc7cc55f9b97dd4f779dd5775e5380b07723de094fcdd0c0481f68d531785b20354fedf4510231c34ac3671a312aec63fed261546590914faf2a84ab0bfc30d1c788a5f1c10492ae286027bb1da8a2ec33bd15f8131379ac937e842f9dae38b32103d4d6878d6f9ef8b98fb480398b5d7c8308e3ed07e14b41be45b42a1ad1017694aa9fb3c6e0d0351e26e99c7fb8eabf1f91847507ed545f7f30191fb75a590009203034566791ced4dde6e8f4fb202232528184999ba5b2bec9e6000b0f2e484e54969bb2bac0c9cddbdfe3eaeefafd494b575d747ca9b1bac3c9d3000000000000000000000000000000000000000f1c313d01",
        "0025b0f67bd1a23b2a84c62c64ddb79cb4056ff5b0259e812c770917ce2c4ddd36ce161d9eb236880cbd232937ec61409df7208937e4808c3b287c1c7c6191fa62a3eb9af21e4f45d4f7f323b9171302b2f82d690ed8cc528d5a3d8589f8ce76611f42689014ccf1e6adedbb0314261e53dba79601ad9063527efd58f01989f327bc4e39b8256e5d14859c1b250bcb636860416108a00509e26e4fc9ee2829be91c60aac68184f9d94cdf5ec4f94bd8a8683a44fb0ded39906d5be04b4bde9b21975b0c897c92bb9f776bec34703ca53ad166f30a3f9e8634193d9642cc636e5b2796cffbb975ef799c56913caec3a4198edb7e4c22b934416b5fe0a8b3dd8e19473c6238ecceaac33969710c9903d691cbba245ed604656b57d1fd8c01dbb18ae3f11409921eb3368591c2705ad3e5164bb9d1808e0831c7695536ac5ad893a7d0a85bfa1316d6b2e6e4197c1bd025b826df4af309c88f8ab1f7fdf9f59fdd522ad98b66fe1825e51fdd2c3ae962d28364ce461be3f123a27d212ffa259c0bdf56d34facd7178a6b5ef500c841bffd5530c05b8c7027bbdc9ff68feb787f840f2ba8282f36de729ee419a31764b12837bb6fe5791b14739611432a5955e94a1d7a07d193fe8f8a940b61f426c86d77a305005c3edf5df611dee5ccaa12d7648161b845e281fbd62f00a49400dd9ea95cf2596c8172dd9641c2c13e6940497bf162a9207efc6fc159dcd36ec2dc2d67c908fa1782ad4d9f8eb2d95a31f2333df36ccfb8ba30f56805c56cbed934a0a9697263f746efc8761e731601906199f12934808746149d63bee3a6c3b2502793ad486f0c50f771a17c9b0d4ba53280986a5a6984f5fe6b202bff6447154fd68a90d5b856841f7c3f5e80d936c1e3431df63f92b9d0c9c07befbe6d4ce1e6d05864f91ef5a8fa0977f5796b5c8d50dca2acbe2594342668abb3681db5734cbebd23899e768dfff321a056a741142d33933d6f48b570309c199ac692d67c230624f17cc1fc6605f2cb1bde475dc625b59faf26c94642b6fd5070707c646351fde328198d91a3f0417cd887c478bf92c60839e0143ae51cec57f80608776f32c61b65bd687e8abf28bebd28542255a28c093b28139c29ad2e6522efab3d365f16e3f8173c9cd107ae041483c16c988b943aeca0f9ca76f8e414d05756470c8dac5a16d28404b89664383ea104643e49dd44f404f3efbe36c27c4dac158cfbea13fdc52440023a9ca5bc45a9bc6afae8e32da5d6b89c71b9dc3a0496be2bd5a2f31a856c22636c7c1393fb95836c9385804559c394c1976570b5a2bbd4db473d9cd5ac7fb72beb2ef844f16077ab018b9bd3566eae6021e699e55100bc0f0370c4671a2207333999a33367e868111b67ea604a32b0c0487cf866a2aa3cdd71643cd72b194ea2702a8dc354c5e7d7b5f5c15bbdf2608aadb5d06aba68c4cf29fbc4d430b1529c31fad89d44eefd2bffce79f59cd4dd72e5fbb7f43787be4174488881d6264d1225094b25840e44dbe28ba0e50f287f6e9bb7a0b6a139150b5f13e895e555ed5f312d2641188ac9f2d0318f857233b8bf103c427f8ec6991fc3cd72bbe7afc854bb156e9ac87b0f5f119063a47f8199e2d4b54b71f719a1ff127783f3229e1ab43b7ce6059ef202bc495896d8d5696e40504ecd491df9eef8d59d663a115fefabc21e944f46ce3e114c3688557481d8d0a021425d39a1a8efbea4ec871cb61618bc8d80f2c0dda1a81936a6b6dc02d0661558f36b7195cb40d446b4d358969ecca1f239e1d807b71f59252c00016f5f5fd2e99c3778038bf681c2292e0e9585192a38f459129c19681c0fa24cd1d"
      ],
      "sequence": 4294967294
    }
  ],
  "vout": [
    {
      "value": 1.0,
      "n": 0,
      "scriptPubKey": {
        "asm": "OP_RETURN f6e5545eae3c32a349677cb82ff177295a3feffba2713c9ef353f6e3ab423b63 a800f2fa71fa3c7a7fd988114889e193b4b57d0ddeff4f0f7b97ca6f3b988e738820d2da51da1c5a5ff9a83168a9c1b394955d2dfedf6f2f5bb7ea4f1bb8ae53e840b2ba31ba7c3a3f99c85108c9a1d3f4f53d4d9ebf0f4f3bd78a2f7bd8ce33c860929a119a5c1a1fb9e87128e981f3d4d51d6dbe9f2f6f1bf7aa0f5bf8ee132880727af17abcfaff590891c80961133435fd8d5e7fcf8ffb174aefbb180ef308a0525ad15a9cdadf7928b1e82941331415ddad7e5fefafdb376acf9b382ed368c0323ab13afcbabf1948d1884921537475bdcd1e3f8fcfbb570aaffb584eb348e0121a911adc9a9f3968f1a869017354559ded3e1fafef9b772a8fdb786e93a800f2fa71fa3c7a7fd988114889e193b4b57d0ddeff4f0f7b97ca6f3b988e738820d2da51da1c5a5ff9a83168a9c1b394955d2dfedf6f2f5bb7ea4f1bb8ae53e840b2ba31ba7c3a3f99c85108c9a1d3f4f53d4d9ebf0f4f3bd78a2f7bd8ce33c860929a119a5c1a1fb9e87128e981f3d4d51d6dbe9f2f6f1bf7aa0f5bf8ee132880727af17abcfaff590891c80961133435fd8d5e7fcf8ffb174aefbb180ef308a0525ad15a9cdadf7928b1e82941331415ddad7e5fefafdb376acf9b382ed368c0323ab13afcbabf1948d1884921537475bdcd1e3f8fcfbb570aaffb584eb348e0121a911adc9a9f3968f1a869017354559ded3e1fafef9b772a8fdb786e93a800f2fa71fa3c7a7fd988114889e193b4b57d0ddeff4f0f7b97ca6f3b988e738820d2da51da1c5a5ff9a83168a9c1b394955d2dfedf6f2f5bb7ea4f1bb8ae53e840b2ba31ba7c3a3f99c85108c9a1d3f4f53d4d9ebf0f4f3bd78a2f7bd8ce33c860929a119a5c1a1fb9e87128e981f3d4d51d6dbe9f2f6f1bf7aa0f5bf8ee132880727af17abcfaff590891c80961133435fd8d5e7fcf8ffb174aefbb180ef308a0525ad15a9cdadf7928b1e82941331415ddad7e5fefafdb376acf9b382ed368c0323ab13afcbabf1948d1884921537475bdcd1e3f8fcfbb570aaffb584eb348e0121a911adc9a9f3968f1a869017354559ded3e1fafef9b772a8fdb786e93a800f2fa71fa3c7a7fd988114889e193b4b57d0ddeff4f0f7b97ca6f3b988e738820d2da51da1c5a5ff9a83168a9c1b394955d2dfedf6f2f5bb7ea4f1bb8ae53e840b2ba31ba7c3a3f99c85108c9a1d3f4f53d4d9ebf0f4f3bd78a2f7bd8ce33c860929a119a5c1a1fb9e87128e981f3d4d51d6dbe9f2f6f1bf7aa0f5bf8ee132880727af17abcfaff590891c80961133435fd8d5e7fcf8ffb174aefbb180ef308a0525ad15a9cdadf7928b1e82941331415ddad7e5fefafdb376acf9b382ed368c0323ab13afcbabf1948d1884921537475bdcd1e3f8fcfbb570aaffb584eb348e0121a911adc9a9f3968f1a869017354559ded3e1fafef9b772a8fdb786e93a800f2fa71fa3c7a7fd988114889e193b4b57d0ddeff4f0f7b97ca6f3b988e738820d2da51da1c5a5ff9a83168a9c1b394955d2dfedf6f2f5bb7ea4f1bb8ae53e840b2ba31ba7c3a3f99c85108c9a1d3f4f53d4d9ebf0f4f3bd78a2f7bd8ce33c860929a119a5c1a1fb9e87128e981f3d4d51d6dbe9f2f6f1bf7aa0f5bf8ee132880727af17abcfaff590891c8096113e6cf7507578a0f17ce4cddc042d81d69bed901be65de561f1602aec6e301bb01",
        "hex": "6a20f6e5545eae3c32a349677cb82ff177295a3feffba2713c9ef353f6e3ab423b634db004a800f2fa71fa3c7a7fd988114889e193b4b57d0ddeff4f0f7b97ca6f3b988e738820d2da51da1c5a5ff9a83168a9c1b394955d2dfedf6f2f5bb7ea4f1bb8ae53e840b2ba31ba7c3a3f99c85108c9a1d3f4f53d4d9ebf0f4f3bd78a2f7bd8ce33c860929a119a5c1a1fb9e87128e981f3d4d51d6dbe9f2f6f1bf7aa0f5bf8ee132880727af17abcfaff590891c80961133435fd8d5e7fcf8ffb174aefbb180ef308a0525ad15a9cdadf7928b1e82941331415ddad7e5fefafdb376acf9b382ed368c0323ab13afcbabf1948d1884921537475bdcd1e3f8fcfbb570aaffb584eb348e0121a911adc9a9f3968f1a869017354559ded3e1fafef9b772a8fdb786e93a800f2fa71fa3c7a7fd988114889e193b4b57d0ddeff4f0f7b97ca6f3b988e738820d2da51da1c5a5ff9a83168a9c1b394955d2dfedf6f2f5bb7ea4f1bb8ae53e840b2ba31ba7c3a3f99c85108c9a1d3f4f53d4d9ebf0f4f3bd78a2f7bd8ce33c860929a119a5c1a1fb9e87128e981f3d4d51d6dbe9f2f6f1bf7aa0f5bf8ee132880727af17abcfaff590891c80961133435fd8d5e7fcf8ffb174aefbb180ef308a0525ad15a9cdadf7928b1e82941331415ddad7e5fefafdb376acf9b382ed368c0323ab13afcbabf1948d1884921537475bdcd1e3f8fcfbb570aaffb584eb348e0121a911adc9a9f3968f1a869017354559ded3e1fafef9b772a8fdb786e93a800f2fa71fa3c7a7fd988114889e193b4b57d0ddeff4f0f7b97ca6f3b988e738820d2da51da1c5a5ff9a83168a9c1b394955d2dfedf6f2f5bb7ea4f1bb8ae53e840b2ba31ba7c3a3f99c85108c9a1d3f4f53d4d9ebf0f4f3bd78a2f7bd8ce33c860929a119a5c1a1fb9e87128e981f3d4d51d6dbe9f2f6f1bf7aa0f5bf8ee132880727af17abcfaff590891c80961133435fd8d5e7fcf8ffb174aefbb180ef308a0525ad15a9cdadf7928b1e82941331415ddad7e5fefafdb376acf9b382ed368c0323ab13afcbabf1948d1884921537475bdcd1e3f8fcfbb570aaffb584eb348e0121a911adc9a9f3968f1a869017354559ded3e1fafef9b772a8fdb786e93a800f2fa71fa3c7a7fd988114889e193b4b57d0ddeff4f0f7b97ca6f3b988e738820d2da51da1c5a5ff9a83168a9c1b394955d2dfedf6f2f5bb7ea4f1bb8ae53e840b2ba31ba7c3a3f99c85108c9a1d3f4f53d4d9ebf0f4f3bd78a2f7bd8ce33c860929a119a5c1a1fb9e87128e981f3d4d51d6dbe9f2f6f1bf7aa0f5bf8ee132880727af17abcfaff590891c80961133435fd8d5e7fcf8ffb174aefbb180ef308a0525ad15a9cdadf7928b1e82941331415ddad7e5fefafdb376acf9b382ed368c0323ab13afcbabf1948d1884921537475bdcd1e3f8fcfbb570aaffb584eb348e0121a911adc9a9f3968f1a869017354559ded3e1fafef9b772a8fdb786e93a800f2fa71fa3c7a7fd988114889e193b4b57d0ddeff4f0f7b97ca6f3b988e738820d2da51da1c5a5ff9a83168a9c1b394955d2dfedf6f2f5bb7ea4f1bb8ae53e840b2ba31ba7c3a3f99c85108c9a1d3f4f53d4d9ebf0f4f3bd78a2f7bd8ce33c860929a119a5c1a1fb9e87128e981f3d4d51d6dbe9f2f6f1bf7aa0f5bf8ee132880727af17abcfaff590891c8096113e6cf7507578a0f17ce4cddc042d81d69bed901be65de561f1602aec6e301bb01",
        "type": "nulldata"
      }
    },
    {
      "value": 499957.2902,
      "n": 1,
      "scriptPubKey": {
        "asm": "1 5bf0830bd0ab574393a32a3829f76557309eec00c7510188870b9df02a5e487b",
        "hex": "51205bf0830bd0ab574393a32a3829f76557309eec00c7510188870b9df02a5e487b",
        "reqSigs": 1,
        "type": "witness_v1_scripthash",
        "addresses": [
          "3QJmnh"
        ]
      }
    }
  ],
  "blockhash": "39d4bea9c9c25d41b43db6cdde5dd715e5d3be3597965cba0de2d48951f8c4e3",
  "confirmations": 1,
  "time": 1764183939,
  "blocktime": 1764183939
}