{
  "hex": "010000000001013504eab015a285a617667c8547a20b0d48c9117500d82d353297042ca3ff77770100000000feffffff0200e1f50500000000fdd5046a20017a733dfad712e801441ba3caee1e259b62be019df0393d469f9e8f24775e8d4db004c395c6174f3b855bddd567a4367c68bb29686c9f63a726e6e0d39497cd9f2107e3b5e6376f1ba57bfdf54784165c489b09484cbf438706c6c0f3b4b7edbf012783d586570f7bc51b9d9527e4763c28fb69282cdf23e766a6a093d4d78ddf6147a3f5a6772f5be53bbdb507c4561c08db49080cff03c7468680b3f4f7adff416743154697cfbb05db5d55e724b6fce83ba9e8ec1fe327a666605314174d1fa187633566b7ef9b25fb7d75c70496dcc81b89c8cc3fc3078646407334376d3f81a7035506d78ffb459b1d15a764f6bca87be9a8ac5fa367e626201354570d5fe1c7237526f7afdb65bb3d358744d69c885bc9888c7f8347c606003374772d7fc1e7c395c6174f3b855bddd567a4367c68bb29686c9f63a726e6e0d39497cd9f2107e3b5e6376f1ba57bfdf54784165c489b09484cbf438706c6c0f3b4b7edbf012783d586570f7bc51b9d9527e4763c28fb69282cdf23e766a6a093d4d78ddf6147a3f5a6772f5be53bbdb507c4561c08db49080cff03c7468680b3f4f7adff416743154697cfbb05db5d55e724b6fce83ba9e8ec1fe327a666605314174d1fa187633566b7ef9b25fb7d75c70496dcc81b89c8cc3fc3078646407334376d3f81a7035506d78ffb459b1d15a764f6bca87be9a8ac5fa367e626201354570d5fe1c7237526f7afdb65bb3d358744d69c885bc9888c7f8347c606003374772d7fc1e7c395c6174f3b855bddd567a4367c68bb29686c9f63a726e6e0d39497cd9f2107e3b5e6376f1ba57bfdf54784165c489b09484cbf438706c6c0f3b4b7edbf012783d586570f7bc51b9d9527e4763c28fb69282cdf23e766a6a093d4d78ddf6147a3f5a6772f5be53bbdb507c4561c08db49080cff03c7468680b3f4f7adff416743154697cfbb05db5d55e724b6fce83ba9e8ec1fe327a666605314174d1fa187633566b7ef9b25fb7d75c70496dcc81b89c8cc3fc3078646407334376d3f81a7035506d78ffb459b1d15a764f6bca87be9a8ac5fa367e626201354570d5fe1c7237526f7afdb65bb3d358744d69c885bc9888c7f8347c606003374772d7fc1e7c395c6174f3b855bddd567a4367c68bb29686c9f63a726e6e0d39497cd9f2107e3b5e6376f1ba57bfdf54784165c489b09484cbf438706c6c0f3b4b7edbf012783d586570f7bc51b9d9527e4763c28fb69282cdf23e766a6a093d4d78ddf6147a3f5a6772f5be53bbdb507c4561c08db49080cff03c7468680b3f4f7adff416743154697cfbb05db5d55e724b6fce83ba9e8ec1fe327a666605314174d1fa187633566b7ef9b25fb7d75c70496dcc81b89c8cc3fc3078646407334376d3f81a7035506d78ffb459b1d15a764f6bca87be9a8ac5fa367e626201354570d5fe1c7237526f7afdb65bb3d358744d69c885bc9888c7f8347c606003374772d7fc1e7c395c6174f3b855bddd567a4367c68bb29686c9f63a726e6e0d39497cd9f2107e3b5e6376f1ba57bfdf54784165c489b09484cbf438706c6c0f3b4b7edbf012783d586570f7bc51b9d9527e4763c28fb69282cdf23e766a6a093d4d78ddf6147a3f5a6772f5be53bbdb507c4561c08db49080cff03c7468680b3f4f7adff416743154697cfbb05db5d55e724b6fce83bc4071e8fd4f08947ea359befae98d6e0faacce0ad1fe752ca4f0ab1090082fe7a020df63792d0000225120ec100efec6d940f5f72f4f71385c6186154a2a948d6a868e1ae4d5c02855357202fd750905c434ae9dbb5995e375b310b6ae4e364c4aa2c63a8167ea06485e521775cd39027e3796be351b3c0ce60afbed1665fe53fd3c48e320fb906bd97980709841fb1613e345eac72f743b7d8b215fee65c45a1f656cc176132f7a4d8264171e3ddf2caf410d026ff46ff97cb94e8bf1d90473f104884c0292d2e6e7ed08e06bf9b1c018fc1d7fc39f404600809d500757e98e26a6084ad1596e2306c790dafca8f314e4518f373c82734e5c0977f2429e0b723f08a270d23568685552e78e50f52889bfb77da4085c62e31ac97511eb5d876cdf9f6c399c4af26b312b6b2214a42d2b114eeed8d972becfe48b5c98db345926bd44e73b86924af52a919beea4d061a66d0e232a444ec661afc8b39aa7528979c2f452a92d3e1c8175310d7f159081c9c965b4e7d355c93d056c77c5f5f579e0a571b46d3138a8cb4981d18f7e353e608736143a1e460e6f56a197b3f8efb8277b795830e09dbf54e04831d956d694e448d901285181c9f7b2101324544501e1b7d900abcf1a18eecb882240911dbb72181ead9baac3adac8e60fe83d72b94eaf1bd7bb4cb61379278623bbeb48a48b75fe3aa09b0f857118299bd0a069e8f7fcea5c4cb459e105afd4c1898fcd43bb96caaeddf06d918c344b0588427a6d447ec32adac332600a3e729d02cfb12b08ac8b428ab0128c960a7955ef7434ebb9f397c0d1e5f8c2b02b815fa0234809c6b277c5149dd36dbd59f135b9784d7686aac62d3107788bc339ba601f14cc39a48d79aec4ad08855ebff4301225313987f34c9e1e7a49f906a07d8ebc6bca3ff7b8eab8a38362ff270859c08fc4f17de69e77e82f2701562981c1dced401a53bd789f965f29c46c64c7b208d39d454a0875281b39f4faa977fdcd45386fca97024a59ffb09a16ba5273f6025bc667853091b48d841e5b4a5c6725f2f8733543fd814663e288066f11bdc73edb9081c7770e071f18d028fef6c9c88037edd5a8d56f73f8afe2c132aed9a0d9e17b96aaacd98d14817a19ee744d475e3a0984007ef7093756512ecd7dd905c5c278f3d597c1b6729b7676239cc338e5c81a361f8cf820b568c2a1a442c2f4094634fc401507447fa3ea59df9ae1ecaea1d49f759afd8915818b835f94e36dd5d066d54e2c3510b9b08ba07996ee60f3b0a8115b30561f63cffea137ed306b2fc48732087f5a2401f45bbe2a78292e775d0faf9a4e05a5a8d194c1079aa4cb853bda93baaae34a9b0a3fed90e5765b26de1b896e6525b6e10575fb339591ac31cdbeaed6f8ef603371020e77cbc29b7797fda432f83c884a05270c9ca47325241b25df870d72f28fcf8f5434bfaaf1145c46a251a211c16b54219be962605ab978b916e4779b356c87910dc2d0d06d1a9eef50b52d8a1711e21ca90cb21af013e2050d41c50aa8a247ece11f11ffe3bf721dbcb8c901b4b935cf20d47edc6b7ca9bac00e5f68863a0ae8ba834febc8a0b04442e13554287626b848db012e6fdfeced3fb6c0e4d1f636d2e1d16b4f6faeaf53409d8f03d938bf857594184cb3ba3fbd66b9389c3bc89e2851cb87ac907229c58669f3608d1dc79fae5adf72ba79553939b0be5f65c5fa079eea82f4d0536028c3a8c48ff556c8ebe44acf82709058dd9b64e857d6f4e6964d15b035ecd38fa91cd6346a4f3faf4e8b3e798246b098cb2afcb3c418a1f2b09a5fdc4938b492dac49ce281b512951818aecad1ba4c1539083c44c9c91cb17a726c1fe641f837c37761e1ad8f942d7fbf9006b0ac80153094d5f6c828318bd9ac079097a9194759b596a13ab2171fe5e9d3d80dec1ba61f851d676d0807aaa136f55570ba04fe66e69ca55ad62a3e61fe291e83db85e653a201807fff60d6f678678fa41a0705a27f8e28d4776321e4a5e7fcec58af6288b53cb8613b58a917b97fbc2eb3c3232a61921c06aaeeb423722e72c05dd9a1079969070b7a81b7062cea46a37d312b10f8cccfa18a17b786eb77d057886201dc3759cd6046daf11e242aa97c73dac56a43293f2ff1f53af200d5136e6050ece3d0772ec0ff2729c68ba7ae7372f6567c08ec2f4f3e1ed4507584d9ae138955a3508a38ad467b1cc2f147e1d66b0a61b6d34c42db49e0cd1bbe4dbcc7d678ca62322e9eda05d26c8c7a5cb0033e3d77e3f78b62a2714e97b5f7222ccb3f64498db6c919a387c0ee7b82f5ebc5281536ce9637f38bd186be359f20aa6ca29a1c18dd4c618dd19453d15ee404aecba5a5cbc466b2a0c528f38401c27d88d0e7794de0eed746923610e30a797559370a34853419ca3b3e3eab0f372623f9394a25cae92eed345a668b1fb5c59697c1d9e8f39c3c299394487c92bba51f29d8df7760aec67dae9df15acac1dd0ed6e0d30fbb01a245821ed399513f423f6d1dee8636d53a8201c870db776f79ff5822a67523adf9c600f8cd80bd62dcf05f18e6ba8c87534561d58b45c9c4e896a9a3f104f945bb3c4fbd2ab1b565ba4dcd4ae9ffad87eea16fa11c91d534ecad3396d69823e7ec1d1df828dc055b6ddd2ed72b549cd30b92bafac4769a69c7f6fdf35fd33909004152ac44f637c446b53ceec71d5a957acd9775458b3605a839e6d38eab252e9f850ca928e9dbc8ce53efd457fc8218d54f66b2bc89079e48c4f1cd8a9a0bc696ddd85e04e4bd306f005a1347a4bcee9537dfd855a82da5b23e480e87628e4906afa314c3fb490273c374f4e6a91192ac3ec8405a86991806480756f552f9e014df799815b5faa38dcd5ec1ee020103aeca8f33c7d92483c9820946fc7306247e605451ffee73552c290bc7e3981af5b127969cf64072044b9b329d8c8fd6a86bb529816c221f0679f43d31fe52bc594a0414b84cd2a208400915b1c5778ca41367acee88007b10f02e64002de1be77f5361fec014a82f3afb25f6d918f47efcb3402799ed8e626b4b88d9283e706e6c145f8492107754518bf219d4413d5fd42d3dd6df66ed5a9ff762daef0c8ea0f9317429b1d510bddf861cef78380d282a0205bb561f7afa3626249ef706b67cce95c1e60073e1d4ef103c3616abe855398af8f8fc5c6a874b4000a2402fc545b09ecac68ebb4bee67fa17240ee84cd476663f9716faa2357ac3aa48b7980c5ce8203ffa5f69e31c945134c5345216708158d737c5dc4d77a406eb30ab1415eaf095edbd255768f2a928f14106c0134a2318c08b942b62120534e627ea3d4d7cafbf4160a4af797f96423585323f189b6bfccdc468aa3df8af5386c793af9f7c59b9881c151223d1eed8d4c9f64b22ba99251d202a33496d777f8c929398a2c3c7d5d6e5e90a19353a6871727c8c8eacb2c8e9eb1929323b3e444e697e8c8f98b1b8c8d6dbdde4091c25293c5356626a758f9396a4add5dfe80000000000000000001322354701fd2105004c68b7de76e32c34382ae82a7285d15bb3d4e28dfac4655500c347a530ba74dd65fde56ae10dc7716fd09d6a4c9286339b167f1ae6e8f0568ae7047a4b8754a8b78798c0c3d624df1b74fd816def56f14e74d403ec54cee36f4b6aabe655b6a117e9c3c3a790a8d40e9615cc18e5fbbb9eeea8c5dde8060b43f45813e687a92116def16c992ab3df5fb49f1b2ac4736aeb36a6b567bd63f83066f43b3e0e721adc81d0b9b3ceafc16210164016e81d0aa51fbfc658972a7504bac74307efeacb50b9e8c773299066b1bb866d95b96de8b2469ae85d5b20cbcf016bf3973d3a611b5c0785d6a33258d890bb81d43a600c03ec63297000e47b894e2c0938805d67471d429bc00e3dd3f2d2c34e17d7ba33bb1d4d5f2d5dfbe9c0f255ba837626e7d5798ffcbe3c07a5c272c3d0e7a1c372b569bbcd7a31db3abc3cce7b061eb373a57f917168eebaf9de65a28a8674443b22a1557f309722cb2a88df6d2592e0210a321cdc9c1ca4b457b8031c03216a6a98f42142ec85e2e6bfe602b3be014551bfc2a34e99b06be99340d558614df1fbdf200f2f35647227fcd5f6529fddcb079d128d95e8f9903e475afe810ed16ade1a3c222f8e9f7907661174a41e6bc406c57e827d9def30c13f048f755198f6cf6883c88342d0ccc04241e982c0ae8bdc9f38c6727c66088fe64512adb2c3799ba103c9e4653e53b06c294bae29aa9fcc12cd229f8a446eb8f6ee194a5f400b9ace693ea106ea59a4390ec87e586aad47e461a81bb8c4b023b6a63efb88e5e819d5af67a56ac244d3de5303f930a2428b961830d0ce4eeb2776af0af4d86de5feced13e076385366299ab38439c7f9ab908a4fa8c59974365371bd33b38709ce338b0e7b01673dbb8a2567b49e790c243f39762ba387442822873f3cc8b6cc03125cb4a8c955641f32f4795e35714e449e71270063580e0097bab8bb4b19d01932e03c2a82c7ee841ede5ed9a4bdaad2425980c2bf975ab0442e8db10ea69415e5ff392cfc9336655026366397150af7b44b1f0910a6c4b96b070a40e3e809b3b77421ac8c8effc1d638135e3b880ea602716e76e8e4abd32e5debeea31edaecc51043bfcef67c2f0803ec261b1510165ccad343064a215c4b429210c51696bb0130389d50cf3edf8a887030133fe55bd9cb3a64420558633b57773822586678f602feb1b11660419e3c24bc8028eef32f45d368065bc9edd625b1d7465a26ea8c397eeecf697066c045c95c6b4ea0d2ee00af1c44e38038607a259a291264d7067050c77da19225e7487131966a8e15c85f4d7ef4dd48fe5482cad585943185a6e534269dca0a747380ba084d1028a97a50d74e4a50e42946e6fee04bfe6196e380fe11ef1eff3688bde8d0dfc3a1dc43d570730535215cd1f0a4c8859dff5fa0f9caf7caea4a929d70221096e7130c72fb7395d004c4bb18ece3c65835dd4a92c7dc6eb348003b6ca9aeee40f8cfe82c23daa83a19ff90efea8cca7419099c8b9bdce7114bfbe64c76518d372f3796880087b842ef8f36a5c46a1c41a09754d41306550b76dcc1ff9ae2c7884b24814e5c57368e6550c969ace057f9929099b82df7d5d76cf85dcac2175568dcdf5454cea03f7ffd416ad9c4ed5a17d702f8f2fd3bfb42a083a1718361b8d0df271e6fc49ca787ae133ac721f0ebcef141fa7d7fbe30533c6fc2504b0504bc51cf704649884ab08ee8efab8a0813dd45671cd95fc5179244c3a46e3e4b3a805ef0e59dd23414d45d6d6df03c6ad4da67bbeccccdb829707ceb4978cb5819e9f9d7b7428b4279369dbdb02ca8db9bb810e3dbb5deebcb91b90c33f95f21fcd880cb58668000000",
  "txid": "77a7ff47fc85565b5651cce46df6f413f530418c0f8f36e7bc91f4e619321f62",
  "hash": "7ee8079688f1d4aa91a5d6cc881dd54251546ee27ef93c269a4e862f255377e4",
  "size": 5085,
  "vsize": 2278,
  "version": 1,
  "locktime": 104,
  "vin": [
    {
      "txid": "7777ffa32c049732352dd8007511c9480d0ba247857c6617a685a215b0ea0435",
      "vout": 1,
      "scriptSig": {
        "asm": "",
        "hex": ""
      },
      "txinwitness": [
        "05c434ae9dbb5995e375b310b6ae4e364c4aa2c63a8167ea06485e521775cd39027e3796be351b3c0ce60afbed1665fe53fd3c48e320fb906bd97980709841fb1613e345eac72f743b7d8b215fee65c45a1f656cc176132f7a4d8264171e3ddf2caf410d026ff46ff97cb94e8bf1d90473f104884c0292d2e6e7ed08e06bf9b1c018fc1d7fc39f404600809d500757e98e26a6084ad1596e2306c790dafca8f314e4518f373c82734e5c0977f2429e0b723f08a270d23568685552e78e50f52889bfb77da4085c62e31ac97511eb5d876cdf9f6c399c4af26b312b6b2214a42d2b114eeed8d972becfe48b5c98db345926bd44e73b86924af52a919beea4d061a66d0e232a444ec661afc8b39aa7528979c2f452a92d3e1c8175310d7f159081c9c965b4e7d355c93d056c77c5f5f579e0a571b46d3138a8cb4981d18f7e353e608736143a1e460e6f56a197b3f8efb8277b795830e09dbf54e04831d956d694e448d901285181c9f7b2101324544501e1b7d900abcf1a18eecb882240911dbb72181ead9baac3adac8e60fe83d72b94eaf1bd7bb4cb61379278623bbeb48a48b75fe3aa09b0f857118299bd0a069e8f7fcea5c4cb459e105afd4c1898fcd43bb96caaeddf06d918c344b0588427a6d447ec32adac332600a3e729d02cfb12b08ac8b428ab0128c960a7955ef7434ebb9f397c0d1e5f8c2b02b815fa0234809c6b277c5149dd36dbd59f135b9784d7686aac62d3107788bc339ba601f14cc39a48d79aec4ad08855ebff4301225313987f34c9e1e7a49f906a07d8ebc6bca3ff7b8eab8a38362ff270859c08fc4f17de69e77e82f2701562981c1dced401a53bd789f965f29c46c64c7b208d39d454a0875281b39f4faa977fdcd45386fca97024a59ffb09a16ba5273f6025bc667853091b48d841e5b4a5c6725f2f8733543fd814663e288066f11bdc73edb9081c7770e071f18d028fef6c9c88037edd5a8d56f73f8afe2c132aed9a0d9e17b96aaacd98d14817a19ee744d475e3a0984007ef7093756512ecd7dd905c5c278f3d597c1b6729b7676239cc338e5c81a361f8cf820b568c2a1a442c2f4094634fc401507447fa3ea59df9ae1ecaea1d49f759afd8915818b835f94e36dd5d066d54e2c3510b9b08ba07996ee60f3b0a8115b30561f63cffea137ed306b2fc48732087f5a2401f45bbe2a78292e775d0faf9a4e05a5a8d194c1079aa4cb853bda93baaae34a9b0a3fed90e5765b26de1b896e6525b6e10575fb339591ac31cdbeaed6f8ef603371020e77cbc29b7797fda432f83c884a05270c9ca47325241b25df870d72f28fcf8f5434bfaaf1145c46a251a211c16b54219be962605ab978b916e4779b356c87910dc2d0d06d1a9eef50b52d8a1711e21ca90cb21af013e2050d41c50aa8a247ece11f11ffe3bf721dbcb8c901b4b935cf20d47edc6b7ca9bac00e5f68863a0ae8ba834febc8a0b04442e13554287626b848db012e6fdfeced3fb6c0e4d1f636d2e1d16b4f6faeaf53409d8f03d938bf857594184cb3ba3fbd66b9389c3bc89e2851cb87ac907229c58669f3608d1dc79fae5adf72ba79553939b0be5f65c5fa079eea82f4d0536028c3a8c48ff556c8ebe44acf82709058dd9b64e857d6f4e6964d15b035ecd38fa91cd6346a4f3faf4e8b3e798246b098cb2afcb3c418a1f2b09a5fdc4938b492dac49ce281b512951818aecad1ba4c1539083c44c9c91cb17a726c1fe641f837c37761e1ad8f942d7fbf9006b0ac80153094d5f6c828318bd9ac079097a9194759b596a13ab2171fe5e9d3d80dec1ba61f851d676d0807aaa136f55570ba04fe66e69ca55ad62a3e61fe291e83db85e653a201807fff60d6f678678fa41a0705a27f8e28d4776321e4a5e7fcec58af6288b53cb8613b58a917b97fbc2eb3c3232a61921c06aaeeb423722e72c05dd9a1079969070b7a81b7062cea46a37d312b10f8cccfa18a17b786eb77d057886201dc3759cd6046daf11e242aa97c73dac56a43293f2ff1f53af200d5136e6050ece3d0772ec0ff2729c68ba7ae7372f6567c08ec2f4f3e1ed4507584d9ae138955a3508a38ad467b1cc2f147e1d66b0a61b6d34c42db49e0cd1bbe4dbcc7d678ca62322e9eda05d26c8c7a5cb0033e3d77e3f78b62a2714e97b5f7222ccb3f64498db6c919a387c0ee7b82f5ebc5281536ce9637f38bd186be359f20aa6ca29a1c18dd4c618dd19453d15ee404aecba5a5cbc466b2a0c528f38401c27d88d0e7794de0eed746923610e30a797559370a34853419ca3b3e3eab0f372623f9394a25cae92eed345a668b1fb5c59697c1d9e8f39c3c299394487c92bba51f29d8df7760aec67dae9df15acac1dd0ed6e0d30fbb01a245821ed399513f423f6d1dee8636d53a8201c870db776f79ff5822a67523adf9c600f8cd80bd62dcf05f18e6ba8c87534561d58b45c9c4e896a9a3f104f945bb3c4fbd2ab1b565ba4dcd4ae9ffad87eea16fa11c91d534ecad3396d69823e7ec1d1df828dc055b6ddd2ed72b549cd30b92bafac4769a69c7f6fdf35fd33909004152ac44f637c446b53ceec71d5a957acd9775458b3605a839e6d38eab252e9f850ca928e9dbc8ce53efd457fc8218d54f66b2bc89079e48c4f1cd8a9a0bc696ddd85e04e4bd306f005a1347a4bcee9537dfd855a82da5b23e480e87628e4906afa314c3fb490273c374f4e6a91192ac3ec8405a86991806480756f552f9e014df799815b5faa38dcd5ec1ee020103aeca8f33c7d92483c9820946fc7306247e605451ffee73552c290bc7e3981af5b127969cf64072044b9b329d8c8fd6a86bb529816c221f0679f43d31fe52bc594a0414b84cd2a208400915b1c5778ca41367acee88007b10f02e64002de1be77f5361fec014a82f3afb25f6d918f47efcb3402799ed8e626b4b88d9283e706e6c145f8492107754518bf219d4413d5fd42d3dd6df66ed5a9ff762daef0c8ea0f9317429b1d510bddf861cef78380d282a0205bb561f7afa3626249ef706b67cce95c1e60073e1d4ef103c3616abe855398af8f8fc5c6a874b4000a2402fc545b09ecac68ebb4bee67fa17240ee84cd476663f9716faa2357ac3aa48b7980c5ce8203ffa5f69e31c945134c5345216708158d737c5dc4d77a406eb30ab1415eaf095edbd255768f2a928f14106c0134a2318c08b942b62120534e627ea3d4d7cafbf4160a4af797f96423585323f189b6bfccdc468aa3df8af5386c793af9f7c59b9881c151223d1eed8d4c9f64b22ba99251d202a33496d777f8c929398a2c3c7d5d6e5e90a19353a6871727c8c8eacb2c8e9eb1929323b3e444e697e8c8f98b1b8c8d6dbdde4091c25293c5356626a758f9396a4add5dfe80000000000000000001322354701",
        "004c68b7de76e32c34382ae82a7285d15bb3d4e28dfac4655500c347a530ba74dd65fde56ae10dc7716fd09d6a4c9286339b167f1ae6e8f0568ae7047a4b8754a8b78798c0c3d624df1b74fd816def56f14e74d403ec54cee36f4b6aabe655b6a117e9c3c3a790a8d40e9615cc18e5fbbb9eeea8c5dde8060b43f45813e687a92116def16c992ab3df5fb49f1b2ac4736aeb36a6b567bd63f83066f43b3e0e721adc81d0b9b3ceafc16210164016e81d0aa51fbfc658972a7504bac74307efeacb50b9e8c773299066b1bb866d95b96de8b2469ae85d5b20cbcf016bf3973d3a611b5c0785d6a33258d890bb81d43a600c03ec63297000e47b894e2c0938805d67471d429bc00e3dd3f2d2c34e17d7ba33bb1d4d5f2d5dfbe9c0f255ba837626e7d5798ffcbe3c07a5c272c3d0e7a1c372b569bbcd7a31db3abc3cce7b061eb373a57f917168eebaf9de65a28a8674443b22a1557f309722cb2a88df6d2592e0210a321cdc9c1ca4b457b8031c03216a6a98f42142ec85e2e6bfe602b3be014551bfc2a34e99b06be99340d558614df1fbdf200f2f35647227fcd5f6529fddcb079d128d95e8f9903e475afe810ed16ade1a3c222f8e9f7907661174a41e6bc406c57e827d9def30c13f048f755198f6cf6883c88342d0ccc04241e982c0ae8bdc9f38c6727c66088fe64512adb2c3799ba103c9e4653e53b06c294bae29aa9fcc12cd229f8a446eb8f6ee194a5f400b9ace693ea106ea59a4390ec87e586aad47e461a81bb8c4b023b6a63efb88e5e819d5af67a56ac244d3de5303f930a2428b961830d0ce4eeb2776af0af4d86de5feced13e076385366299ab38439c7f9ab908a4fa8c59974365371bd33b38709ce338b0e7b01673dbb8a2567b49e790c243f39762ba387442822873f3cc8b6cc03125cb4a8c955641f32f4795e35714e449e71270063580e0097bab8bb4b19d01932e03c2a82c7ee841ede5ed9a4bdaad2425980c2bf975ab0442e8db10ea69415e5ff392cfc9336655026366397150af7b44b1f0910a6c4b96b070a40e3e809b3b77421ac8c8effc1d638135e3b880ea602716e76e8e4abd32e5debeea31edaecc51043bfcef67c2f0803ec261b1510165ccad343064a215c4b429210c51696bb0130389d50cf3edf8a887030133fe55bd9cb3a64420558633b57773822586678f602feb1b11660419e3c24bc8028eef32f45d368065bc9edd625b1d7465a26ea8c397eeecf697066c045c95c6b4ea0d2ee00af1c44e38038607a259a291264d7067050c77da19225e7487131966a8e15c85f4d7ef4dd48fe5482cad585943185a6e534269dca0a747380ba084d1028a97a50d74e4a50e42946e6fee04bfe6196e380fe11ef1eff3688bde8d0dfc3a1dc43d570730535215cd1f0a4c8859dff5fa0f9caf7caea4a929d70221096e7130c72fb7395d004c4bb18ece3c65835dd4a92c7dc6eb348003b6ca9aeee40f8cfe82c23daa83a19ff90efea8cca7419099c8b9bdce7114bfbe64c76518d372f3796880087b842ef8f36a5c46a1c41a09754d41306550b76dcc1ff9ae2c7884b24814e5c57368e6550c969ace057f9929099b82df7d5d76cf85dcac2175568dcdf5454cea03f7ffd416ad9c4ed5a17d702f8f2fd3bfb42a083a1718361b8d0df271e6fc49ca787ae133ac721f0ebcef141fa7d7fbe30533c6fc2504b0504bc51cf704649884ab08ee8efab8a0813dd45671cd95fc5179244c3a46e3e4b3a805ef0e59dd23414d45d6d6df03c6ad4da67bbeccccdb829707ceb4978cb5819e9f9d7b7428b4279369dbdb02ca8db9bb810e3dbb5deebcb91b90c33f95f21fcd880cb586"
      ],
      "sequence": 4294967294
    }
  ],
  "vout": [
    {
      "value": 1.0,
      "n": 0,
      "scriptPubKey": {
        "asm": "OP_RETURN 017a733dfad712e801441ba3caee1e259b62be019df0393d469f9e8f24775e8d c395c6174f3b855bddd567a4367c68bb29686c9f63a726e6e0d39497cd9f2107e3b5e6376f1ba57bfdf54784165c489b09484cbf438706c6c0f3b4b7edbf012783d586570f7bc51b9d9527e4763c28fb69282cdf23e766a6a093d4d78ddf6147a3f5a6772f5be53bbdb507c4561c08db49080cff03c7468680b3f4f7adff416743154697cfbb05db5d55e724b6fce83ba9e8ec1fe327a666605314174d1fa187633566b7ef9b25fb7d75c70496dcc81b89c8cc3fc3078646407334376d3f81a7035506d78ffb459b1d15a764f6bca87be9a8ac5fa367e626201354570d5fe1c7237526f7afdb65bb3d358744d69c885bc9888c7f8347c606003374772d7fc1e7c395c6174f3b855bddd567a4367c68bb29686c9f63a726e6e0d39497cd9f2107e3b5e6376f1ba57bfdf54784165c489b09484cbf438706c6c0f3b4b7edbf012783d586570f7bc51b9d9527e4763c28fb69282cdf23e766a6a093d4d78ddf6147a3f5a6772f5be53bbdb507c4561c08db49080cff03c7468680b3f4f7adff416743154697cfbb05db5d55e724b6fce83ba9e8ec1fe327a666605314174d1fa187633566b7ef9b25fb7d75c70496dcc81b89c8cc3fc3078646407334376d3f81a7035506d78ffb459b1d15a764f6bca87be9a8ac5fa367e626201354570d5fe1c7237526f7afdb65bb3d358744d69c885bc9888c7f8347c606003374772d7fc1e7c395c6174f3b855bddd567a4367c68bb29686c9f63a726e6e0d39497cd9f2107e3b5e6376f1ba57bfdf54784165c489b09484cbf438706c6c0f3b4b7edbf012783d586570f7bc51b9d9527e4763c28fb69282cdf23e766a6a093d4d78ddf6147a3f5a6772f5be53bbdb507c4561c08db49080cff03c7468680b3f4f7adff416743154697cfbb05db5d55e724b6fce83ba9e8ec1fe327a666605314174d1fa187633566b7ef9b25fb7d75c70496dcc81b89c8cc3fc3078646407334376d3f81a7035506d78ffb459b1d15a764f6bca87be9a8ac5fa367e626201354570d5fe1c7237526f7afdb65bb3d358744d69c885bc9888c7f8347c606003374772d7fc1e7c395c6174f3b855bddd567a4367c68bb29686c9f63a726e6e0d39497cd9f2107e3b5e6376f1ba57bfdf54784165c489b09484cbf438706c6c0f3b4b7edbf012783d586570f7bc51b9d9527e4763c28fb69282cdf23e766a6a093d4d78ddf6147a3f5a6772f5be53bbdb507c4561c08db49080cff03c7468680b3f4f7adff416743154697cfbb05db5d55e724b6fce83ba9e8ec1fe327a666605314174d1fa187633566b7ef9b25fb7d75c70496dcc81b89c8cc3fc3078646407334376d3f81a7035506d78ffb459b1d15a764f6bca87be9a8ac5fa367e626201354570d5fe1c7237526f7afdb65bb3d358744d69c885bc9888c7f8347c606003374772d7fc1e7c395c6174f3b855bddd567a4367c68bb29686c9f63a726e6e0d39497cd9f2107e3b5e6376f1ba57bfdf54784165c489b09484cbf438706c6c0f3b4b7edbf012783d586570f7bc51b9d9527e4763c28fb69282cdf23e766a6a093d4d78ddf6147a3f5a6772f5be53bbdb507c4561c08db49080cff03c7468680b3f4f7adff416743154697cfbb05db5d55e724b6fce83bc4071e8fd4f08947ea359befae98d6e0faacce0ad1fe752ca4f0ab1090082fe7",
        "hex": "6a20017a733dfad712e801441ba3caee1e259b62be019df0393d469f9e8f24775e8d4db004c395c6174f3b855bddd567a4367c68bb29686c9f63a726e6e0d39497cd9f2107e3b5e6376f1ba57bfdf54784165c489b09484cbf438706c6c0f3b4b7edbf012783d586570f7bc51b9d9527e4763c28fb69282cdf23e766a6a093d4d78ddf6147a3f5a6772f5be53bbdb507c4561c08db49080cff03c7468680b3f4f7adff416743154697cfbb05db5d55e724b6fce83ba9e8ec1fe327a666605314174d1fa187633566b7ef9b25fb7d75c70496dcc81b89c8cc3fc3078646407334376d3f81a7035506d78ffb459b1d15a764f6bca87be9a8ac5fa367e626201354570d5fe1c7237526f7afdb65bb3d358744d69c885bc9888c7f8347c606003374772d7fc1e7c395c6174f3b855bddd567a4367c68bb29686c9f63a726e6e0d39497cd9f2107e3b5e6376f1ba57bfdf54784165c489b09484cbf438706c6c0f3b4b7edbf012783d586570f7bc51b9d9527e4763c28fb69282cdf23e766a6a093d4d78ddf6147a3f5a6772f5be53bbdb507c4561c08db49080cff03c7468680b3f4f7adff416743154697cfbb05db5d55e724b6fce83ba9e8ec1fe327a666605314174d1fa187633566b7ef9b25fb7d75c70496dcc81b89c8cc3fc3078646407334376d3f81a7035506d78ffb459b1d15a764f6bca87be9a8ac5fa367e626201354570d5fe1c7237526f7afdb65bb3d358744d69c885bc9888c7f8347c606003374772d7fc1e7c395c6174f3b855bddd567a4367c68bb29686c9f63a726e6e0d39497cd9f2107e3b5e6376f1ba57bfdf54784165c489b09484cbf438706c6c0f3b4b7edbf012783d586570f7bc51b9d9527e4763c28fb69282cdf23e766a6a093d4d78ddf6147a3f5a6772f5be53bbdb507c4561c08db49080cff03c7468680b3f4f7adff416743154697cfbb05db5d55e724b6fce83ba9e8ec1fe327a666605314174d1fa187633566b7ef9b25fb7d75c70496dcc81b89c8cc3fc3078646407334376d3f81a7035506d78ffb459b1d15a764f6bca87be9a8ac5fa367e626201354570d5fe1c7237526f7afdb65bb3d358744d69c885bc9888c7f8347c606003374772d7fc1e7c395c6174f3b855bddd567a4367c68bb29686c9f63a726e6e0d39497cd9f2107e3b5e6376f1ba57bfdf54784165c489b09484cbf438706c6c0f3b4b7edbf012783d586570f7bc51b9d9527e4763c28fb69282cdf23e766a6a093d4d78ddf6147a3f5a6772f5be53bbdb507c4561c08db49080cff03c7468680b3f4f7adff416743154697cfbb05db5d55e724b6fce83ba9e8ec1fe327a666605314174d1fa187633566b7ef9b25fb7d75c70496dcc81b89c8cc3fc3078646407334376d3f81a7035506d78ffb459b1d15a764f6bca87be9a8ac5fa367e626201354570d5fe1c7237526f7afdb65bb3d358744d69c885bc9888c7f8347c606003374772d7fc1e7c395c6174f3b855bddd567a4367c68bb29686c9f63a726e6e0d39497cd9f2107e3b5e6376f1ba57bfdf54784165c489b09484cbf438706c6c0f3b4b7edbf012783d586570f7bc51b9d9527e4763c28fb69282cdf23e766a6a093d4d78ddf6147a3f5a6772f5be53bbdb507c4561c08db49080cff03c7468680b3f4f7adff416743154697cfbb05db5d55e724b6fce83bc4071e8fd4f08947ea359befae98d6e0faacce0ad1fe752ca4f0ab1090082fe7",
        "type": "nulldata"
      }
    },
    {
      "value": 499993.8986,
      "n": 1,
      "scriptPubKey": {
        "asm": "1 ec100efec6d940f5f72f4f71385c6186154a2a948d6a868e1ae4d5c028553572",
        "hex": "5120ec100efec6d940f5f72f4f71385c6186154a2a948d6a868e1ae4d5c028553572",
        "reqSigs": 1,
        "type": "witness_v1_scripthash",
        "addresses": [
          "3QJmnh"
        ]
      }
    }
  ],
  "blockhash": "32a2d379a33ec88ae1cb3a8a1a44f2d12b76aebf574ecf7ac16b289397ed6cd9",
  "confirmations": 1,
  "time": 1764176557,
  "blocktime": 1764176557
}