{
  "hex": "010000000001018c8d190eee45875d0935e72fb97f90973d0b203d5587c0d00853b8400836d7df0000000000feffffff0200e1f50500000000fdd5046a20b4cab74d55362e9054da5656fc3a432d8c5877b59b60f63fe476f60ad7d939ad4db00406ed8464baf779d85e16b4d46226d139723b2fee0298f53f6089d5c94358373d26cda4449ad759f87e3694f44206f119521b0fce22b8d51f40a9f5e96378171d46adc424fab739981e56f49422669179327b6fae42d8b57f20c995890318777d668de404da9719b83e76d4b40246b159125b4f8e62f8955f00e9b5a92338575d866d04e43a77f958de963454e2a651b9f2bbaf6e821875bfe0095549c3d8b7bda64d24c41a57d978feb61474c2867199d29b8f4ea238559fc0297569e3f8979dc62d44a47a37b9189ed67414a2e611f9b2fbef2ec25835ffa04915098398f7fde60d64845a179938bef6543482c631d992dbcf0ee27815df80693529a3b8d7dd06ed8464baf779d85e16b4d46226d139723b2fee0298f53f6089d5c94358373d26cda4449ad759f87e3694f44206f119521b0fce22b8d51f40a9f5e96378171d46adc424fab739981e56f49422669179327b6fae42d8b57f20c995890318777d668de404da9719b83e76d4b40246b159125b4f8e62f8955f00e9b5a92338575d866d04e43a77f958de963454e2a651b9f2bbaf6e821875bfe0095549c3d8b7bda64d24c41a57d978feb61474c2867199d29b8f4ea238559fc0297569e3f8979dc62d44a47a37b9189ed67414a2e611f9b2fbef2ec25835ffa04915098398f7fde60d64845a179938bef6543482c631d992dbcf0ee27815df80693529a3b8d7dd06ed8464baf779d85e16b4d46226d139723b2fee0298f53f6089d5c94358373d26cda4449ad759f87e3694f44206f119521b0fce22b8d51f40a9f5e96378171d46adc424fab739981e56f49422669179327b6fae42d8b57f20c995890318777d668de404da9719b83e76d4b40246b159125b4f8e62f8955f00e9b5a92338575d866d04e43a77f958de963454e2a651b9f2bbaf6e821875bfe0095549c3d8b7bda64d24c41a57d978feb61474c2867199d29b8f4ea238559fc0297569e3f8979dc62d44a47a37b9189ed67414a2e611f9b2fbef2ec25835ffa04915098398f7fde60d64845a179938bef6543482c631d992dbcf0ee27815df80693529a3b8d7dd06ed8464baf779d85e16b4d46226d139723b2fee0298f53f6089d5c94358373d26cda4449ad759f87e3694f44206f119521b0fce22b8d51f40a9f5e96378171d46adc424fab739981e56f49422669179327b6fae42d8b57f20c995890318777d668de404da9719b83e76d4b40246b159125b4f8e62f8955f00e9b5a92338575d866d04e43a77f958de963454e2a651b9f2bbaf6e821875bfe0095549c3d8b7bda64d24c41a57d978feb61474c2867199d29b8f4ea238559fc0297569e3f8979dc62d44a47a37b9189ed67414a2e611f9b2fbef2ec25835ffa04915098398f7fde60d64845a179938bef6543482c631d992dbcf0ee27815df80693529a3b8d7dd06ed8464baf779d85e16b4d46226d139723b2fee0298f53f6089d5c94358373d26cda4449ad759f87e3694f44206f119521b0fce22b8d51f40a9f5e96378171d46adc424fab739981e56f49422669179327b6fae42d8b57f20c995890318777d668de404da9719b83e76d4b40246b159125b4f8e62f8955f00e9b5a92338575d866d04e43a77f958de963454e2a651b980a6b2204692337ab8424fc19fc0d478ce420e7ae3ea6df858eaaa4ea57410d99021522d792d00002251204e637fc5a611863a06a47e98c5dbb947e19e8ee7c90cf8a313f23be384051f8a02fd75094d51d616772013042362bc26dc211c5c38fbf2bbcb5fa4c4f81e4d49f1c61aa8efd82657dea820c9a8324e9421b5bf716707c449a05dd0098451c7495b22c51be17a1156d660edd633c0b5099831f877bca0ea58f9d1d8aa57821b87328e9c5b39c7d28db9014bec13eb0903e5337b5d6cf83f21e58e26ece700b5adc3e5ec7114754d2378e64ebe06e6dcfddd4de61079e21425ecc1f99717c6bb27bab335039029bcd8293a93d62311cfd7d56f6f85c2d429ba6a284503103e6061732355364dab74a212b55b6c427a113c49cab5989af9077afe379ca3616b2632a3992a7d57ecf168c3b19bf7165e4334f97aa4c2ed5fd652a9010812509ab6c4741cace2216730dfaca242fae9a89b7dbe51ab356c6d1f6fb5239ab0f0239d89fbcb0c00c6806a126fe6f381f09fcb3dae349d30fef5b2da596c404e4d57160f383a2b46877c0a538c27c9eba132f859e8fdd83031118a7a664d9ab0db43b0bbc5aad11a8fe3f811c88565c1b3a25f1ba8927e9fdecad108ba5d4cb15de2b2fab89351d0570a7e8fdd7145110f81ad061e226eb7df578b28b8e7239341d890163fab65e430a22773f3faa32d4d8432fb025201e62feecbe4ba611f772b70104615b5cc38f369858ae9b41eeb3c36216de6e43400dca8e78c2b55a8ac0134f6fc497c980648f50dc512def2a7976dbd409f5e7929a6265b1a7e96ad005fb2d242b6857f09148bca2130061a3c732a7f6540882fe8603485a6fbb2047b4b06ebb31e26ce5a70eaafa13436309cb7d44eda8506a2b9c34a3ebb2e0c8aec18dffb2a027549bc53f93056a91bb218aab593edbde99dfe0a1d3df92980fff8ba5166bd495b8842d781e8726e34929a14ab0737e76407390f93a670ea6eb08bfe54fb75f3aedeedbbf8a867374a46d2b0d6229b30cb91b75224bda73b7902c4791e1172c7674ffc36badc87888ddbd7db919a6c41ca47b7ce2f608b5a2668b521e44b7071b1567ca01c23a75cc97971e63aea8c192abbe73111b71a2ef5cd77aba5d05400acba04d8075913f25c4870633752ead8494e97cd9fc610c0fc496313a492f63d721272b2fc8f5f611a16de1c34d80835fc51c6b26f1fea81f0d52032868834556aee93b31fc1de535f69a9723921517c4d81727b4282bdbf2e4ab3cc4f97b630c585d4a4c680bc13ae5363fe6e5c26e59e5c267718898945dcb94abcf040925c18a19ca8783cf49eea5aa5d45f280a6c3a25572f59b4e4e432b31bb2319953402a028b27a7487f9f9545891ba50b335b731f98f8bd10c40bec46712b37024ec698254d16d48b01a4785cb8a5f2d7ed6a9680d06f2793b1f8ddb0011693bae95896d2b416e40dff820d24721c3385a531a4e30c4eba56e457dfe7efc55348e5606b69c5db49f48ac5268c3c7f3122892b0ca6d17c90b4c9f11d457457f259f5a477d623db3142e305806ae863c0b2df880ebd2e9dc07a44912eb9da9981cecf9e74e92d81f14e70042e8dd866e56ba3985f7bfe1ef1f6370f5f021a7e53c64cb759d80112ce0569bc8c400301ba693b387f7ae81e7602effc77b3d3a33f64252268d11b9b07dbb7e398c76eab7afe32f8ae5533974201395f25b90adf99e3789adfcbdc2c54030983104db1fbfe4f707f70d7f11cc0de3c6ccf6369cfccc9412152e43126f6699416d43b57b2ba8ce30b56364d62594313b365d85e2f8d4941e1f569b48cc2e984fcbba1a2914291bdd2c2814a4b9c724b87948e4341045f230427209a08a17b280af71880f3715a017bb0401fcd80cb8347dd0c65b1d4dacdc9087c30262d93d5c76f4ab96906216352f3a0362c2ad9d65506b104d41391ee0f230623dbeb764df25b062ac3b36f513bc9f8a2458d9ea3f2eb814b4c40f43479910bd1a0daa9129bbb3acb7e994a5c7b00fea980ba0d0e90322dc6b1dcc1ef303a0d076df4d23e05ff6a8b5e1f0effd753d021953e143d4cc5ca6ae8f1f1d5746683cc4ad5ea86b976cace26d4ab14f31b870418f65705917d2105fa9b1bd6a039e790c4d2056b449a52da5f792f84cc8347ac62ce7bfd0efa7e6711199028c4cc4e1b526787d4c66de2be799da976897b1527a4fadd63ff48d322a452459f6e5ddddef743e7959894341a32ff4e5785f034e330c7801776ee532a72f7553c111104b4963106c2575a526a12d305dd86db5c707c4c77f5d1151cd6b25da79b7f4c5c3dc94aac2315f674067c94c8f0275326c5b1b7a93137cab723e9a8e625c643e59af080c28fb3cf04b136e2c14966ae78c39c0590b12fde439241b0bc219c82beaa77959111a2406f62f1f378ce6256a60784db094a4b4809b90d0532097780e36d36d896ed82d1f7a64e24543ce8f6a633c02f4d350438df9159ee665845760f45f75a8d38c3bdb54e9abd3d94c15d7152cc5f570a07e2c3b0dc1dc984ca06b6edcba00ca2564f8cda04a55f738a54f65d6de0f475d6970803c220fec1ba0fd0f76ba69931ae23ccd79b593251b59bcba6227e37bc4f79c8ff43c2c6f34d3805727bb95fadb91b85b830b79cf27e9bddbbc8c55c28b78764b177c006f163bf54d6d4eb85f5562ec07e1e6f8603725408a27ebd98856485d13a48c2a1f7452d06ae3383601d4001feacab7ebf13178379193c6dd058e1cc89cdf782954199054b825a3747aade94c84482271799c273e40227a9635d10ae855588315dbf91b0f7b9030ac5f53a8daa938a40ef8d4258c16f9cca5aabbbaea51cc04d8ddf0c0fcaeaa1833f991ec8bdd2183bb147a7de4a60c54fe5cc7b785bb92f5fc02500947971f31038978945158709d591b1e4e8eb5343a6ff049a26c4266c2d3a66eb0d1356908b389212153b0b9dd1aa76ce00edb7998032d0b85359f702380123c066ae901b8726a9cee104814d6fcbfe23084c6d3eecf20268f04e2e705790c88cc9ddf600576e716ddb0be91cf635bbcea1072184659f8529cd57a3db094a8fe487582127301642a208b5a18e9975f306a8d532c37dc1957f26ac250c7edbec5612f19017fbe3b28439f62749817065c06ea281cbc486373546c1e3f0bc7d64c3a0d2538cc4879b0f458ac571078560e1cd4e03b0f282225bf911157d30080334a15443fd878f5f708fa7ff4f554dcf29b6e16c2e6217c204fddbef85b1df0633eb3a60a277f0aed122f68ac7b2503e9eb681a4bab0fffd11b67b52e1016ba501f3f86707485f85044f1cacc3850f281758bf0543482f4f86127341dd13adab97f19a616500f66fcf8270a484d61088a2fb3b09ba14712e5710cf022b301993bcf3e13700213788a3b0b9c6deecfc135865709a9ca2c4d1dce9ebf601080b11324b4e636b777a8393c4c9cbecf2f502083c46474a555c7376859bdbe5ec000000000000000000000000000000000000000000000b182b3a01fd2105006898c7a2155da124244335ce168cb043117e55fe2ecf41368f622ff65e95429d39f7bca9d98056f827acf4fff20a8ecbbde683e7a28e8a4c53729130bc8495c362381d50ab6b86b56398ce11e270898dadccf203bd8b9899385fecb89e02ee2e061e5aa902b19acde7556a441c822b3564e7dd80ba39b3854054394911ff7183ad5cd2d505116a987786fd78e3a513766d2086cd84d3c1346e24120183c12a3c9b81785dffd5a60ef0cddd01b6208758c6ec1acb3c4e8b7178b6a5a4e52c30097411fe74aa65207b30d86b7dd2c781878fef7ddfe95ace13897526e6f522826231ada80ced88501673fe5233c9156f8dc5d994cdf108db9fe01f6cc0ae9a7cc393bd012ac67fa21ad3290130055d129c947ef89dbb4e8bfb6a7df00ed859dc587c7900fe540479b00627acc8fb834f05664a392e011bd2db13d5136444c1e014f56a55ef4afe760ed38ffc453bbff342b49d3e1021dea0d9bc2b24e4dcc6c0de80eed137ad41bd43a6cca3c47c8a3cd97f749ebcc671cd35369de99ba9500c22c964da727882aeb58db44c63524023eb085387d7f4169c6b9b2920f0399a0e3b1815550cfa96c0c119c15018505783597c5b7469b6dd7c84465cc1e15ee1cbefc67f041ca7c8b0863f6b257e50f1b7d03337d39ddf1744e28a9966f6a5bf7afa8f21c1d5c15bd242a47937d7ea4966217c0365d7873ad156ac231ec86ac6189c1e4a7b67fdd5d6bf4f6b810b975d75ff834b0aaeee860285dda58a88665d45db767e63591b4d38a8d7fe9bf05faadb6f6dd5c734ee2fccd8cae87bce94244142fea042e900ec07f935ebe8df094f1c07019feb5e2c44887ae5b3932940fe3dfddbff8f8e137e70e123db5ed3ffaa85db413656c21afdf97a49dd98a5346b1ffb99b0a758098ed400d6dfaec85cbafa6c09f8d7e919ed1231b8d5e35aac477ce803579892f057260362e89cae8b221eb75f07395bb0d807fb35a005cd8516a10b54951c0197a98b6c350d7d4a5e0664a6557b3bba2ef917f97250541304a35cdaef9956caba27f580442f592e6ef604c6adb50f454ed73c1e70af1bacf943860facb0a252409c91c1d7059b9a4343d8c1ed45a5156a062f8803182916b52eadfcb471e8c252110b7eb4252c2ccba5d0183de6764d70c0718f157f2e05f6defecdeb823e511c86cbb772a2de71a93b8cd5fce227069c924542736ad4002c3996f5b531f1745e44a987ce5a7d7c97168aa15a76c22ad97bd300fcf6f45f19e088fbd5ec84adb371e513743a0a22169bfc9c1f8d32d83d34fcc17d873e265c3b33f0667e25360bc2e54cd380c2e44261701b12005f35ba01b6483bc2ff5ab61bbeeeda352ca9f1f99f058c0a61b17d9ac5164e865f739698996ceafcfbd6d6aa6851a77b7cdddd922dd2f764984ee13a59f466d1438eeea4dbab80322840aad69e63700dafff188eace8b6635e0bb48fea15be85df14fb60743c8450b85fe8984dfb5eb1ab826934a46608b9af152c640eb68f620f0db968d3204bff2e17241abc09508d0e3666fb689c26902ba565c5f398c457f827422bde2980cd66b90bc797de04df7c0c3dc1c225a4b651a9c06aa7c37db0e9b14cbd8d77b0bfbcf3dd24f4d0a50d20e058fbbb5a84168436fb5302f5bc8fc1cd8b575d865eb98b7eb9abac037406a46b5b176a84e8f1d5dedc347f6108c6d524b36323e5ba5d73f7515c229703fbfe52cf75bb32dc3cbd6ff90ce07ad64bce6f73f764ad67b46b811ed6e731dc5b7b7f18a9f84ebb3d1eaf775d57b7ccddaf98cdabbbc90163a7e6b9fd7125632b282d649fb80936bbdd4529f7181d8c40b90f29fdc0e301200e095d08fd8772000000",
  "txid": "778b415a5fa2a3cf198f6017392e5ecbc1a97d68c9566c029bf4f19c7a8481a2",
  "hash": "9bf7f28b72da96cf4a4f4d3601f200b6984fefee4732d2ade11cd666ec874deb",
  "size": 5085,
  "vsize": 2278,
  "version": 1,
  "locktime": 114,
  "vin": [
    {
      "txid": "dfd7360840b85308d0c087553d200b3d97907fb92fe735095d8745ee0e198d8c",
      "vout": 0,
      "scriptSig": {
        "asm": "",
        "hex": ""
      },
      "txinwitness": [
        "4d51d616772013042362bc26dc211c5c38fbf2bbcb5fa4c4f81e4d49f1c61aa8efd82657dea820c9a8324e9421b5bf716707c449a05dd0098451c7495b22c51be17a1156d660edd633c0b5099831f877bca0ea58f9d1d8aa57821b87328e9c5b39c7d28db9014bec13eb0903e5337b5d6cf83f21e58e26ece700b5adc3e5ec7114754d2378e64ebe06e6dcfddd4de61079e21425ecc1f99717c6bb27bab335039029bcd8293a93d62311cfd7d56f6f85c2d429ba6a284503103e6061732355364dab74a212b55b6c427a113c49cab5989af9077afe379ca3616b2632a3992a7d57ecf168c3b19bf7165e4334f97aa4c2ed5fd652a9010812509ab6c4741cace2216730dfaca242fae9a89b7dbe51ab356c6d1f6fb5239ab0f0239d89fbcb0c00c6806a126fe6f381f09fcb3dae349d30fef5b2da596c404e4d57160f383a2b46877c0a538c27c9eba132f859e8fdd83031118a7a664d9ab0db43b0bbc5aad11a8fe3f811c88565c1b3a25f1ba8927e9fdecad108ba5d4cb15de2b2fab89351d0570a7e8fdd7145110f81ad061e226eb7df578b28b8e7239341d890163fab65e430a22773f3faa32d4d8432fb025201e62feecbe4ba611f772b70104615b5cc38f369858ae9b41eeb3c36216de6e43400dca8e78c2b55a8ac0134f6fc497c980648f50dc512def2a7976dbd409f5e7929a6265b1a7e96ad005fb2d242b6857f09148bca2130061a3c732a7f6540882fe8603485a6fbb2047b4b06ebb31e26ce5a70eaafa13436309cb7d44eda8506a2b9c34a3ebb2e0c8aec18dffb2a027549bc53f93056a91bb218aab593edbde99dfe0a1d3df92980fff8ba5166bd495b8842d781e8726e34929a14ab0737e76407390f93a670ea6eb08bfe54fb75f3aedeedbbf8a867374a46d2b0d6229b30cb91b75224bda73b7902c4791e1172c7674ffc36badc87888ddbd7db919a6c41ca47b7ce2f608b5a2668b521e44b7071b1567ca01c23a75cc97971e63aea8c192abbe73111b71a2ef5cd77aba5d05400acba04d8075913f25c4870633752ead8494e97cd9fc610c0fc496313a492f63d721272b2fc8f5f611a16de1c34d80835fc51c6b26f1fea81f0d52032868834556aee93b31fc1de535f69a9723921517c4d81727b4282bdbf2e4ab3cc4f97b630c585d4a4c680bc13ae5363fe6e5c26e59e5c267718898945dcb94abcf040925c18a19ca8783cf49eea5aa5d45f280a6c3a25572f59b4e4e432b31bb2319953402a028b27a7487f9f9545891ba50b335b731f98f8bd10c40bec46712b37024ec698254d16d48b01a4785cb8a5f2d7ed6a9680d06f2793b1f8ddb0011693bae95896d2b416e40dff820d24721c3385a531a4e30c4eba56e457dfe7efc55348e5606b69c5db49f48ac5268c3c7f3122892b0ca6d17c90b4c9f11d457457f259f5a477d623db3142e305806ae863c0b2df880ebd2e9dc07a44912eb9da9981cecf9e74e92d81f14e70042e8dd866e56ba3985f7bfe1ef1f6370f5f021a7e53c64cb759d80112ce0569bc8c400301ba693b387f7ae81e7602effc77b3d3a33f64252268d11b9b07dbb7e398c76eab7afe32f8ae5533974201395f25b90adf99e3789adfcbdc2c54030983104db1fbfe4f707f70d7f11cc0de3c6ccf6369cfccc9412152e43126f6699416d43b57b2ba8ce30b56364d62594313b365d85e2f8d4941e1f569b48cc2e984fcbba1a2914291bdd2c2814a4b9c724b87948e4341045f230427209a08a17b280af71880f3715a017bb0401fcd80cb8347dd0c65b1d4dacdc9087c30262d93d5c76f4ab96906216352f3a0362c2ad9d65506b104d41391ee0f230623dbeb764df25b062ac3b36f513bc9f8a2458d9ea3f2eb814b4c40f43479910bd1a0daa9129bbb3acb7e994a5c7b00fea980ba0d0e90322dc6b1dcc1ef303a0d076df4d23e05ff6a8b5e1f0effd753d021953e143d4cc5ca6ae8f1f1d5746683cc4ad5ea86b976cace26d4ab14f31b870418f65705917d2105fa9b1bd6a039e790c4d2056b449a52da5f792f84cc8347ac62ce7bfd0efa7e6711199028c4cc4e1b526787d4c66de2be799da976897b1527a4fadd63ff48d322a452459f6e5ddddef743e7959894341a32ff4e5785f034e330c7801776ee532a72f7553c111104b4963106c2575a526a12d305dd86db5c707c4c77f5d1151cd6b25da79b7f4c5c3dc94aac2315f674067c94c8f0275326c5b1b7a93137cab723e9a8e625c643e59af080c28fb3cf04b136e2c14966ae78c39c0590b12fde439241b0bc219c82beaa77959111a2406f62f1f378ce6256a60784db094a4b4809b90d0532097780e36d36d896ed82d1f7a64e24543ce8f6a633c02f4d350438df9159ee665845760f45f75a8d38c3bdb54e9abd3d94c15d7152cc5f570a07e2c3b0dc1dc984ca06b6edcba00ca2564f8cda04a55f738a54f65d6de0f475d6970803c220fec1ba0fd0f76ba69931ae23ccd79b593251b59bcba6227e37bc4f79c8ff43c2c6f34d3805727bb95fadb91b85b830b79cf27e9bddbbc8c55c28b78764b177c006f163bf54d6d4eb85f5562ec07e1e6f8603725408a27ebd98856485d13a48c2a1f7452d06ae3383601d4001feacab7ebf13178379193c6dd058e1cc89cdf782954199054b825a3747aade94c84482271799c273e40227a9635d10ae855588315dbf91b0f7b9030ac5f53a8daa938a40ef8d4258c16f9cca5aabbbaea51cc04d8ddf0c0fcaeaa1833f991ec8bdd2183bb147a7de4a60c54fe5cc7b785bb92f5fc02500947971f31038978945158709d591b1e4e8eb5343a6ff049a26c4266c2d3a66eb0d1356908b389212153b0b9dd1aa76ce00edb7998032d0b85359f702380123c066ae901b8726a9cee104814d6fcbfe23084c6d3eecf20268f04e2e705790c88cc9ddf600576e716ddb0be91cf635bbcea1072184659f8529cd57a3db094a8fe487582127301642a208b5a18e9975f306a8d532c37dc1957f26ac250c7edbec5612f19017fbe3b28439f62749817065c06ea281cbc486373546c1e3f0bc7d64c3a0d2538cc4879b0f458ac571078560e1cd4e03b0f282225bf911157d30080334a15443fd878f5f708fa7ff4f554dcf29b6e16c2e6217c204fddbef85b1df0633eb3a60a277f0aed122f68ac7b2503e9eb681a4bab0fffd11b67b52e1016ba501f3f86707485f85044f1cacc3850f281758bf0543482f4f86127341dd13adab97f19a616500f66fcf8270a484d61088a2fb3b09ba14712e5710cf022b301993bcf3e13700213788a3b0b9c6deecfc135865709a9ca2c4d1dce9ebf601080b11324b4e636b777a8393c4c9cbecf2f502083c46474a555c7376859bdbe5ec000000000000000000000000000000000000000000000b182b3a01",
        "006898c7a2155da124244335ce168cb043117e55fe2ecf41368f622ff65e95429d39f7bca9d98056f827acf4fff20a8ecbbde683e7a28e8a4c53729130bc8495c362381d50ab6b86b56398ce11e270898dadccf203bd8b9899385fecb89e02ee2e061e5aa902b19acde7556a441c822b3564e7dd80ba39b3854054394911ff7183ad5cd2d505116a987786fd78e3a513766d2086cd84d3c1346e24120183c12a3c9b81785dffd5a60ef0cddd01b6208758c6ec1acb3c4e8b7178b6a5a4e52c30097411fe74aa65207b30d86b7dd2c781878fef7ddfe95ace13897526e6f522826231ada80ced88501673fe5233c9156f8dc5d994cdf108db9fe01f6cc0ae9a7cc393bd012ac67fa21ad3290130055d129c947ef89dbb4e8bfb6a7df00ed859dc587c7900fe540479b00627acc8fb834f05664a392e011bd2db13d5136444c1e014f56a55ef4afe760ed38ffc453bbff342b49d3e1021dea0d9bc2b24e4dcc6c0de80eed137ad41bd43a6cca3c47c8a3cd97f749ebcc671cd35369de99ba9500c22c964da727882aeb58db44c63524023eb085387d7f4169c6b9b2920f0399a0e3b1815550cfa96c0c119c15018505783597c5b7469b6dd7c84465cc1e15ee1cbefc67f041ca7c8b0863f6b257e50f1b7d03337d39ddf1744e28a9966f6a5bf7afa8f21c1d5c15bd242a47937d7ea4966217c0365d7873ad156ac231ec86ac6189c1e4a7b67fdd5d6bf4f6b810b975d75ff834b0aaeee860285dda58a88665d45db767e63591b4d38a8d7fe9bf05faadb6f6dd5c734ee2fccd8cae87bce94244142fea042e900ec07f935ebe8df094f1c07019feb5e2c44887ae5b3932940fe3dfddbff8f8e137e70e123db5ed3ffaa85db413656c21afdf97a49dd98a5346b1ffb99b0a758098ed400d6dfaec85cbafa6c09f8d7e919ed1231b8d5e35aac477ce803579892f057260362e89cae8b221eb75f07395bb0d807fb35a005cd8516a10b54951c0197a98b6c350d7d4a5e0664a6557b3bba2ef917f97250541304a35cdaef9956caba27f580442f592e6ef604c6adb50f454ed73c1e70af1bacf943860facb0a252409c91c1d7059b9a4343d8c1ed45a5156a062f8803182916b52eadfcb471e8c252110b7eb4252c2ccba5d0183de6764d70c0718f157f2e05f6defecdeb823e511c86cbb772a2de71a93b8cd5fce227069c924542736ad4002c3996f5b531f1745e44a987ce5a7d7c97168aa15a76c22ad97bd300fcf6f45f19e088fbd5ec84adb371e513743a0a22169bfc9c1f8d32d83d34fcc17d873e265c3b33f0667e25360bc2e54cd380c2e44261701b12005f35ba01b6483bc2ff5ab61bbeeeda352ca9f1f99f058c0a61b17d9ac5164e865f739698996ceafcfbd6d6aa6851a77b7cdddd922dd2f764984ee13a59f466d1438eeea4dbab80322840aad69e63700dafff188eace8b6635e0bb48fea15be85df14fb60743c8450b85fe8984dfb5eb1ab826934a46608b9af152c640eb68f620f0db968d3204bff2e17241abc09508d0e3666fb689c26902ba565c5f398c457f827422bde2980cd66b90bc797de04df7c0c3dc1c225a4b651a9c06aa7c37db0e9b14cbd8d77b0bfbcf3dd24f4d0a50d20e058fbbb5a84168436fb5302f5bc8fc1cd8b575d865eb98b7eb9abac037406a46b5b176a84e8f1d5dedc347f6108c6d524b36323e5ba5d73f7515c229703fbfe52cf75bb32dc3cbd6ff90ce07ad64bce6f73f764ad67b46b811ed6e731dc5b7b7f18a9f84ebb3d1eaf775d57b7ccddaf98cdabbbc90163a7e6b9fd7125632b282d649fb80936bbdd4529f7181d8c40b90f29fdc0e301200e095d08fd87"
      ],
      "sequence": 4294967294
    }
  ],
  "vout": [
    {
      "value": 1.0,
      "n": 0,
      "scriptPubKey": {
        "asm": "OP_RETURN b4cab74d55362e9054da5656fc3a432d8c5877b59b60f63fe476f60ad7d939ad 06ed8464baf779d85e16b4d46226d139723b2fee0298f53f6089d5c94358373d26cda4449ad759f87e3694f44206f119521b0fce22b8d51f40a9f5e96378171d46adc424fab739981e56f49422669179327b6fae42d8b57f20c995890318777d668de404da9719b83e76d4b40246b159125b4f8e62f8955f00e9b5a92338575d866d04e43a77f958de963454e2a651b9f2bbaf6e821875bfe0095549c3d8b7bda64d24c41a57d978feb61474c2867199d29b8f4ea238559fc0297569e3f8979dc62d44a47a37b9189ed67414a2e611f9b2fbef2ec25835ffa04915098398f7fde60d64845a179938bef6543482c631d992dbcf0ee27815df80693529a3b8d7dd06ed8464baf779d85e16b4d46226d139723b2fee0298f53f6089d5c94358373d26cda4449ad759f87e3694f44206f119521b0fce22b8d51f40a9f5e96378171d46adc424fab739981e56f49422669179327b6fae42d8b57f20c995890318777d668de404da9719b83e76d4b40246b159125b4f8e62f8955f00e9b5a92338575d866d04e43a77f958de963454e2a651b9f2bbaf6e821875bfe0095549c3d8b7bda64d24c41a57d978feb61474c2867199d29b8f4ea238559fc0297569e3f8979dc62d44a47a37b9189ed67414a2e611f9b2fbef2ec25835ffa04915098398f7fde60d64845a179938bef6543482c631d992dbcf0ee27815df80693529a3b8d7dd06ed8464baf779d85e16b4d46226d139723b2fee0298f53f6089d5c94358373d26cda4449ad759f87e3694f44206f119521b0fce22b8d51f40a9f5e96378171d46adc424fab739981e56f49422669179327b6fae42d8b57f20c995890318777d668de404da9719b83e76d4b40246b159125b4f8e62f8955f00e9b5a92338575d866d04e43a77f958de963454e2a651b9f2bbaf6e821875bfe0095549c3d8b7bda64d24c41a57d978feb61474c2867199d29b8f4ea238559fc0297569e3f8979dc62d44a47a37b9189ed67414a2e611f9b2fbef2ec25835ffa04915098398f7fde60d64845a179938bef6543482c631d992dbcf0ee27815df80693529a3b8d7dd06ed8464baf779d85e16b4d46226d139723b2fee0298f53f6089d5c94358373d26cda4449ad759f87e3694f44206f119521b0fce22b8d51f40a9f5e96378171d46adc424fab739981e56f49422669179327b6fae42d8b57f20c995890318777d668de404da9719b83e76d4b40246b159125b4f8e62f8955f00e9b5a92338575d866d04e43a77f958de963454e2a651b9f2bbaf6e821875bfe0095549c3d8b7bda64d24c41a57d978feb61474c2867199d29b8f4ea238559fc0297569e3f8979dc62d44a47a37b9189ed67414a2e611f9b2fbef2ec25835ffa04915098398f7fde60d64845a179938bef6543482c631d992dbcf0ee27815df80693529a3b8d7dd06ed8464baf779d85e16b4d46226d139723b2fee0298f53f6089d5c94358373d26cda4449ad759f87e3694f44206f119521b0fce22b8d51f40a9f5e96378171d46adc424fab739981e56f49422669179327b6fae42d8b57f20c995890318777d668de404da9719b83e76d4b40246b159125b4f8e62f8955f00e9b5a92338575d866d04e43a77f958de963454e2a651b980a6b2204692337ab8424fc19fc0d478ce420e7ae3ea6df858eaaa4ea57410d9",
        "hex": "6a20b4cab74d55362e9054da5656fc3a432d8c5877b59b60f63fe476f60ad7d939ad4db00406ed8464baf779d85e16b4d46226d139723b2fee0298f53f6089d5c94358373d26cda4449ad759f87e3694f44206f119521b0fce22b8d51f40a9f5e96378171d46adc424fab739981e56f49422669179327b6fae42d8b57f20c995890318777d668de404da9719b83e76d4b40246b159125b4f8e62f8955f00e9b5a92338575d866d04e43a77f958de963454e2a651b9f2bbaf6e821875bfe0095549c3d8b7bda64d24c41a57d978feb61474c2867199d29b8f4ea238559fc0297569e3f8979dc62d44a47a37b9189ed67414a2e611f9b2fbef2ec25835ffa04915098398f7fde60d64845a179938bef6543482c631d992dbcf0ee27815df80693529a3b8d7dd06ed8464baf779d85e16b4d46226d139723b2fee0298f53f6089d5c94358373d26cda4449ad759f87e3694f44206f119521b0fce22b8d51f40a9f5e96378171d46adc424fab739981e56f49422669179327b6fae42d8b57f20c995890318777d668de404da9719b83e76d4b40246b159125b4f8e62f8955f00e9b5a92338575d866d04e43a77f958de963454e2a651b9f2bbaf6e821875bfe0095549c3d8b7bda64d24c41a57d978feb61474c2867199d29b8f4ea238559fc0297569e3f8979dc62d44a47a37b9189ed67414a2e611f9b2fbef2ec25835ffa04915098398f7fde60d64845a179938bef6543482c631d992dbcf0ee27815df80693529a3b8d7dd06ed8464baf779d85e16b4d46226d139723b2fee0298f53f6089d5c94358373d26cda4449ad759f87e3694f44206f119521b0fce22b8d51f40a9f5e96378171d46adc424fab739981e56f49422669179327b6fae42d8b57f20c995890318777d668de404da9719b83e76d4b40246b159125b4f8e62f8955f00e9b5a92338575d866d04e43a77f958de963454e2a651b9f2bbaf6e821875bfe0095549c3d8b7bda64d24c41a57d978feb61474c2867199d29b8f4ea238559fc0297569e3f8979dc62d44a47a37b9189ed67414a2e611f9b2fbef2ec25835ffa04915098398f7fde60d64845a179938bef6543482c631d992dbcf0ee27815df80693529a3b8d7dd06ed8464baf779d85e16b4d46226d139723b2fee0298f53f6089d5c94358373d26cda4449ad759f87e3694f44206f119521b0fce22b8d51f40a9f5e96378171d46adc424fab739981e56f49422669179327b6fae42d8b57f20c995890318777d668de404da9719b83e76d4b40246b159125b4f8e62f8955f00e9b5a92338575d866d04e43a77f958de963454e2a651b9f2bbaf6e821875bfe0095549c3d8b7bda64d24c41a57d978feb61474c2867199d29b8f4ea238559fc0297569e3f8979dc62d44a47a37b9189ed67414a2e611f9b2fbef2ec25835ffa04915098398f7fde60d64845a179938bef6543482c631d992dbcf0ee27815df80693529a3b8d7dd06ed8464baf779d85e16b4d46226d139723b2fee0298f53f6089d5c94358373d26cda4449ad759f87e3694f44206f119521b0fce22b8d51f40a9f5e96378171d46adc424fab739981e56f49422669179327b6fae42d8b57f20c995890318777d668de404da9719b83e76d4b40246b159125b4f8e62f8955f00e9b5a92338575d866d04e43a77f958de963454e2a651b980a6b2204692337ab8424fc19fc0d478ce420e7ae3ea6df858eaaa4ea57410d9",
        "type": "nulldata"
      }
    },
    {
      "value": 499984.7465,
      "n": 1,
      "scriptPubKey": {
        "asm": "1 4e637fc5a611863a06a47e98c5dbb947e19e8ee7c90cf8a313f23be384051f8a",
        "hex": "51204e637fc5a611863a06a47e98c5dbb947e19e8ee7c90cf8a313f23be384051f8a",
        "reqSigs": 1,
        "type": "witness_v1_scripthash",
        "addresses": [
          "3QJmnh"
        ]
      }
    }
  ],
  "blockhash": "a404c97fd79b0f74ac8935f18e4afcd6ffd73e4b441b9f6bd67a7215b8c8499e",
  "confirmations": 1,
  "time": 1764178774,
  "blocktime": 1764178774
}