{
  "hex": "0100000000010193d5331100cf280fb501bb6401ff4ca7218f3eb596bd806865a2b74396092b530000000000feffffff02a077e402792d000022512023b6d9105ede055376743eae132db3a533282372b6a077b36b8e0fdb23522b9d00e1f50500000000fdd5046a2032f4f7bc1f54d4f359986a1b55fce89d9b1041309c5981a8ef85fd9cf2b9d1254db00436c86946cba1d4fc27ffe9103c4c253f44e8f77a773008c0a0006d7161e5e70b16e84966eb81f4dc07dfc9301c6c051f64c8d75a571028e080204d5141c5c72b768829068be194bc67bfa9507c0c657f04a8b73a37704880e0402d3121a5a74b56a80926abc1b49c479f89705c2c455f2488971a175068a0c0600d110185876bb648e9c64b21547ca77f6990bccca5bfc46877faf7b088402080edf1e165678b9668c9e66b01745c875f49b09cec859fe44857dad790a86000a0cdd1c14547abf608a9860b61143ce73f29d0fc8ce5ff842837bab7f0c80060c0adb1a12527cbd62889a62b41341cc71f09f0dcacc5dfa408179a97d0e82040e08d91810507eb36c86946cba1d4fc27ffe9103c4c253f44e8f77a773008c0a0006d7161e5e70b16e84966eb81f4dc07dfc9301c6c051f64c8d75a571028e080204d5141c5c72b768829068be194bc67bfa9507c0c657f04a8b73a37704880e0402d3121a5a74b56a80926abc1b49c479f89705c2c455f2488971a175068a0c0600d110185876bb648e9c64b21547ca77f6990bccca5bfc46877faf7b088402080edf1e165678b9668c9e66b01745c875f49b09cec859fe44857dad790a86000a0cdd1c14547abf608a9860b61143ce73f29d0fc8ce5ff842837bab7f0c80060c0adb1a12527cbd62889a62b41341cc71f09f0dcacc5dfa408179a97d0e82040e08d91810507eb36c86946cba1d4fc27ffe9103c4c253f44e8f77a773008c0a0006d7161e5e70b16e84966eb81f4dc07dfc9301c6c051f64c8d75a571028e080204d5141c5c72b768829068be194bc67bfa9507c0c657f04a8b73a37704880e0402d3121a5a74b56a80926abc1b49c479f89705c2c455f2488971a175068a0c0600d110185876bb648e9c64b21547ca77f6990bccca5bfc46877faf7b088402080edf1e165678b9668c9e66b01745c875f49b09cec859fe44857dad790a86000a0cdd1c14547abf608a9860b61143ce73f29d0fc8ce5ff842837bab7f0c80060c0adb1a12527cbd62889a62b41341cc71f09f0dcacc5dfa408179a97d0e82040e08d91810507eb36c86946cba1d4fc27ffe9103c4c253f44e8f77a773008c0a0006d7161e5e70b16e84966eb81f4dc07dfc9301c6c051f64c8d75a571028e080204d5141c5c72b768829068be194bc67bfa9507c0c657f04a8b73a37704880e0402d3121a5a74b56a80926abc1b49c479f89705c2c455f2488971a175068a0c0600d110185876bb648e9c64b21547ca77f6990bccca5bfc46877faf7b088402080edf1e165678b9668c9e66b01745c875f49b09cec859fe44857dad790a86000a0cdd1c14547abf608a9860b61143ce73f29d0fc8ce5ff842837bab7f0c80060c0adb1a12527cbd62889a62b41341cc71f09f0dcacc5dfa408179a97d0e82040e08d91810507eb36c86946cba1d4fc27ffe9103c4c253f44e8f77a773008c0a0006d7161e5e70b16e84966eb81f4dc07dfc9301c6c051f64c8d75a571028e080204d5141c5c72b768829068be194bc67bfa9507c0c657f04a8b73a37704880e0402d3121a5a74b56a80926abc1b49c479f89705c2c455f2488971a175068a0c0600d110185876bb648e9c64b21547ca77f6990bccca5bf469eaa9d2ea343697d1ec9178b8b67107527fcb4a89c00132b1e0e28d313448c02fd75092412fb26563dbfc8f3254d648da18b1bea61cc88716e1da763e242eceae9450bda19335ecfef84621105fc1d11578b71d9ef1a275721e88a0107d518ba0cb4c294ee792f8abdf8abf7f7e9f85cf73a19fae86757c744bb5157d36e3567914c2131a2de629f8ca3a76d514b863f7c2800f3207c752023eb76fcaaf0980d7d6950bf8daa5ac080fd42653cc9a9e60decd8fa557871e9cb657091d9e5da24a4fcce1b1890cec27e6122557926ff0d866d2ee1ea210ff55c4b01d6d0e75782045c7e79346a99b6ab65c071d489719b5357aee8099b3386c8fcf7ff6adf887b4ef583642fd0455582c2f935862271f0db49b8bc5cd7979d5cffe9ec6bcb8f141d589672df27e8989101778a75665ab47638bd14923a41d03b9a13edddd6546809627954445be6e2d33cd206c99ed7500fa6289fa9b671405ca29e26cfe24c33886071f808bdf81f8168b712026fbcbac0d6f4818a1e68ad7a50095062a81fceb6c15266e7bbb1c7ef9e5fca7161c6f6f09b073848b4aae73e1a8f1e6362811e0cec8f14f5405d0107cae0ed1beeb959c3ba2bcc3c376cd91320136c8126b58dbc133fd1cf9d679d91a76bcd4a10a474e12e121c88e5730dd08c3ccdf02c8e0ee579d3fc07ccebe958fe3ca9ac5c6b7b6621085dd0ec34d70521751a97dd4c13e2c624534a163208e204a50c94e0ead1514f12ecc06b992215d82251769607a3c9e2e299fea10c6a6162e6022eab6e4628e6d01272994d324144d62b4b547eed8f2b575fec87c65c9a9a475ab03290d4b3a0b95fe10f0eb085b0b3d75cd58a6008b24862e6e92d31515f14d151110d93141a94774efe1a903c76eba47b37da8378732ad09b1fdd0d4736082406c33a3e785d1e211bee7af1bd5c9bf9d64eb2c8d0c81158a91adc9d9ce4d95389389ee3029b84c31fcaf97f73c2870562075b677a93f1f492919c5761c7525029ca57dfd08c80e285d80d06c09b987556912d3e8e1b245a8eda79ee6cefd186265eae95e7351e911e089060867b7ed4a36741ca908067ba57fc816191fe69780d59f8d4b2a538bf34f8e6a626ba27f77d8b7037002ead8424d3ab526d31e8156eb47c013cae550d4ec59d2eb22c3533a5050d197e728cd46e9b2c2e8be1e42363a2e89b859fa5085f1565aaf4dffb9e61458ce47948ad7e249915fdaf0123dad0c484d847d11bbd97a46c898b8f96e0297ce63fad992de5ad173bd187194286d6d138aae05155655482fa37a282e807ca7cadfdf9f43eb8b7ed2fd29e5d48586f002beaf406a09218da195ce650482be653ce67fdb8c3c8ef5464c302e63c2b79567ee8adf08f74c5d2f9d31dc5b9953c8bedc01268c29ee2523528da04ff3c75d4d3b5063155b869cdb08a6052f1662b2ee129bc6c8fcbfdf8010bb775ce16c04e4b4c7bc604381ae2c5d2e563650f13d27125234e90058967eb26e7e6b16e19f0ffa9d0944897df8db655c1c89a8a7a539ceb64afb46a40a50a2f58e91be7bece502d4b478bb077be325a2b8d7ba6ca3cb2ebb2b2fd04201a3b541f351a4eb93fe649529ab1057cda18feb44d5018599804820930943b6a8c39caaa8543d881f989b5b1ec25d4e54e6cdc999102b4e16d313d254524810bcc9ce3795a4a4d262f37441204bbe24e5f1c06bc0bf0873a92b4397f96bca8ab86e4443e8f66a94d55e982eb33b7e3af53172fa54520a5a41319db61bebd6c725ade1121773047f6670f0743ad7f0b111a974a548d781a165ac3df242d74a8bea6583a0b70c9c57a742e1a58294724ffc86ac40d081cda7fffd31db3dc097a396eb140c64c57ae5b88d57d9ef6eef9f6c8288f2eface196f577befb6bd9e015a402039ec547a2bbdeaa90cb3b4482730cd4407c8aac8be461e4610a9427067f86bbf1eccdada7dd3eb75ea8b8d27ae13becb1c35ef0a21ac21d7ea30cce78beebbde826e3af20743520e6b8cfa41c487e2520a5bb08a0852debc605df063bc7b26f44e438e058e7af955bfa8f502d43f9de332a5d1e6f896b3e059f7d7bba90278b9bd346e3aea26607bcfeac4af9fbbf4c970061dd582557db934a8d006cf10c8f6a88763f496dd4224ab149a2e25f8e7b8bb894eef651aeea386fea83c6159f418386aa2024e8ceb97dc1da78cde0f6ddea41bfb4eaff1a1ff8f5a0bfc7b983a95903397387f7fc7008d68eb74908b112736d3b5efc7b41cd0011ea2e6335f87159b6e76ecffb514f3957ace4251bea5cfcc54e3d974758ccc90f3975daab5d2913ba04fbbe6ea0e0d76e1c77326815ffbf9cf56f4af95ba89c6d508d20e4dc84987374bc2bffb365385e683d0c65fb619afdb086a3a7ff21e9e7f139044798226c346eb428736715161eebd1336d2d20e1724b7ca954e5af65dd03461cb138002bf00837a080bcbfc45652164ceb91cd661eee08a14d1b11ff5ee2c1637df5dbd42a34a0c475cefed5672c26f50e0be503cbe82c6946d0735bb3a2df79904ed6892b857343ebc00d6cbc2a075dd9ae988a3620791743eed71ef22f69b73bf547f2ec74f00810b5124f75a2d4eecbdd2a5f522865410995477806c513ed8ccd5b000857ca2692681d24fc3b8bbf5fc8baf19c1a2b2120dd535cf39213c10c26b208ae46fee59f3e784304a89bcc6acb7666fd4ca0c76f9d10ec29fa94c51d520662462951dd61e0a5f8b9f0a2e68a089a3cd7b7731bd26d5db6831b5bb25f26d3c2d61267ca890ed7d4cc125dd9481ce698c209bb3a72a07d71779244c245853a9997fb8e54a70b46276c9714c409e505259eddc7698891bdd73daf4eb82b342a23521281e46f0a091a4f9806e82e18323c09aedea9efbea283e14cebf53866b9ff1645287281b34f3696024bd9b8c82de59e75c53584757ac0dac3fb2bf02049d37ec2f9f28971d16209f137298fce483955cec5fec630ec89cfda8228a3c55fc56b7bfa622c27cfd0eb3afabf063a392679c6a75bda5669aa777afba6c3ac201ddd1d597fcca88bc31901fd2fd4de48d5bf74833cd9499c3b6d9fdf02d0beec22a966e85437f17268e90ed9bdb844cc0c94a561d4c2d2419b0f15fb87b2d1236c2a718b08bece81cb330cce568617c1ca7e079b76591241b3fdb1af4f1990bb312920f77a4cd8d35c5be404dfe925319a88b76833166de82cf7949b42cab762b8d76dfe05f872140df250e1769cbfaab215d0be5933f58edc5320b13abe15d3011996795e1da1b59ccd16c382c41fc1d788a56ff1f4cc9371f9573aab14ed5fb1c17dadbb6c3a38dce252f271acc79d04a5c728a12481cc27969738616265354717ec6dbe2e3eb02224f62648c9cb3d0e1e5ec0d111218272940438ecff2f5f9101c3b3c40465765666a808ea0bdcbccd8dcf2f40000000000000000000000000000000000000000000000000b17243801fd21050016414c93c30c49028f065ac442cdcf007c1bae7800cddd19b6704c3064fbd1ca0b961f36f0fca2f9742618c0c9477127d129ac87eb6f2b4ed07c3e3331df4530680da4c1f4c9a81c0beb9326f409aee0cd0c0efdfad6a5196a9d740f4b7c5c85f864a687b8ebd7d8921cb87c90b450fe82887508dd77dfba330ac9f7809875527aa429b0368a339a4027b6bfbe256343d96a407b41124b5ccd08c8ac307f1197bffb88859a4a238dcb7b3f2015d9d8dbbd105b9c9665a5be538352b7d6107bd8027e0b0a1231e4e58c222df5b6723c76afc8915cb96771c11fa2cf91e670b9619fea814af72a4109eff6c2df99d0cd1df6eeef6173f34a0ed90d901d89d71d7914a7460a073c96a31e47612837ee9bc4a44946a9fd0ecc12242018817738898492e929301dbbe88539c4a8de960e2883d275cf4a8cd10c5497d0838b699ec1832b7ab54060da1b9bf7c28850e2f5ca8f97813694ca7d4e8020951f92a6a2d16f55e30c821f5962e01454066b5fcc7ab08f1190d6f30ac0f49a413037b464886f8b3fc009a4e970d0c0649050f920f59cd31aad11332fc87f0be106eba7aaf1e4927793b49c30695a25cec0e0acec7198bd35ccb57831cb2a1f19c6b792037d4f706f33e84cd33e00bcf91c29040df9c0f9b9a0a9e3323796fe95753133e6eb557ef9dcf8111f6b43e258e7e7641736e9bfd8c011953d54d860d67ebec33bf0b349ebd1bec107d4ad00ef2a676d617141fdadfa3b87f7f95ebb770ff6416a1f1117a8e3b1a84c854966ab596dbecf1c8083ef561ebbcee49133defe083ea19ff34acf00010e510ccf952119845736eb9bcfcf1cd59f12401f0d391d527a6c83724a4e9ae42e40a1a37568f1cbb20739bd6bedc8e5ac9355cee31b72b33429a250b8aa745dd7ef3033498885b133b98adcc6650e5fcef910277cf97ca00f81c7c537a68a491fba115a1838833788570d94c1e931e328f06d7e171ed0cb5e6c9ebcbee9909c6028d7c589ff62632f04d2cf83472e45a3cd62b52bd397797e88270c045ef62c8f76f05f76b3c1b0a24bb3cb1ed59a043678e8417340940fdf0d685c854de18f6fb02d21e6291ba5d0e5cecb3cca0cc439949126353ceb8b899157c0ff76700e10a71860a0ec87ebcf4fb47cf329a781dfbc980306bd108056afc781afc9283494d490fd91361bc5770951aa05333e9927c9c03add1a66ae3009d8b3f1608f818dd96a7445a979eb68934595b66cbc764593a4b4d42bd9b45329601b55570ea9438baaa07d6fb0fc2ae87efb14388b8e12185e3b797df806d8a42341f7370b5e22d731fc155073bb2bc8c2713c9f7192eac0b0258387557ec4279dea4d82f22ddd871139a5a292dad136424ce720cff8ace954d417dce023d31d70cfc16fc063eb5727bb088d8ff9087c6c19e6bbcbcabae9f4f50f06f3400bf5b023cbb2b597c7af9b3a2681fa204b47e355b17fa97a7a9484a831108377697fdf7a0104f6948056f204a5cda45f218601aa3cc56dec164ccf74629701b438a34eabc4dd08e92df8d890a0fd50e94619fafa1c712e6e7847f265a6d5347853cb2a5c13664c287aaa4bbd52e5b82c6e4ca2fb57a7b9b7e6bee1984e44b129c0260990b09553701278e79748dc4a1b68e5ef1c320969eec2337b2dfaaaaa5c29f8a4ed8524cf6c0696a57313e8d94fd01a00c29ec2c4dbe1f05cfd1f8553f644bbc4ae286f393743c5d56fc87d9de74a0e73b8a14aa9ede27221dfa9e792bf8cd46da6fcb0561624610969b6992b686bd8d591dc449a4be57141595b55698b1aeb3395694422802efacd67b777e64db4e4449dd327637a4377eb6a3d2c5a51604dad1578000000",
  "txid": "7438344e2e5cfd2c86efbf68e0aa474b014fa6220f1864736d04c2ab21599ab0",
  "hash": "4f2e9e75870c5f57038347b4fc5e25675ab6967a75d4d98237bade75ba29c48f",
  "size": 5085,
  "vsize": 2278,
  "version": 1,
  "locktime": 120,
  "vin": [
    {
      "txid": "532b099643b7a2656880bd96b53e8f21a74cff0164bb01b50f28cf001133d593",
      "vout": 0,
      "scriptSig": {
        "asm": "",
        "hex": ""
      },
      "txinwitness": [
        "2412fb26563dbfc8f3254d648da18b1bea61cc88716e1da763e242eceae9450bda19335ecfef84621105fc1d11578b71d9ef1a275721e88a0107d518ba0cb4c294ee792f8abdf8abf7f7e9f85cf73a19fae86757c744bb5157d36e3567914c2131a2de629f8ca3a76d514b863f7c2800f3207c752023eb76fcaaf0980d7d6950bf8daa5ac080fd42653cc9a9e60decd8fa557871e9cb657091d9e5da24a4fcce1b1890cec27e6122557926ff0d866d2ee1ea210ff55c4b01d6d0e75782045c7e79346a99b6ab65c071d489719b5357aee8099b3386c8fcf7ff6adf887b4ef583642fd0455582c2f935862271f0db49b8bc5cd7979d5cffe9ec6bcb8f141d589672df27e8989101778a75665ab47638bd14923a41d03b9a13edddd6546809627954445be6e2d33cd206c99ed7500fa6289fa9b671405ca29e26cfe24c33886071f808bdf81f8168b712026fbcbac0d6f4818a1e68ad7a50095062a81fceb6c15266e7bbb1c7ef9e5fca7161c6f6f09b073848b4aae73e1a8f1e6362811e0cec8f14f5405d0107cae0ed1beeb959c3ba2bcc3c376cd91320136c8126b58dbc133fd1cf9d679d91a76bcd4a10a474e12e121c88e5730dd08c3ccdf02c8e0ee579d3fc07ccebe958fe3ca9ac5c6b7b6621085dd0ec34d70521751a97dd4c13e2c624534a163208e204a50c94e0ead1514f12ecc06b992215d82251769607a3c9e2e299fea10c6a6162e6022eab6e4628e6d01272994d324144d62b4b547eed8f2b575fec87c65c9a9a475ab03290d4b3a0b95fe10f0eb085b0b3d75cd58a6008b24862e6e92d31515f14d151110d93141a94774efe1a903c76eba47b37da8378732ad09b1fdd0d4736082406c33a3e785d1e211bee7af1bd5c9bf9d64eb2c8d0c81158a91adc9d9ce4d95389389ee3029b84c31fcaf97f73c2870562075b677a93f1f492919c5761c7525029ca57dfd08c80e285d80d06c09b987556912d3e8e1b245a8eda79ee6cefd186265eae95e7351e911e089060867b7ed4a36741ca908067ba57fc816191fe69780d59f8d4b2a538bf34f8e6a626ba27f77d8b7037002ead8424d3ab526d31e8156eb47c013cae550d4ec59d2eb22c3533a5050d197e728cd46e9b2c2e8be1e42363a2e89b859fa5085f1565aaf4dffb9e61458ce47948ad7e249915fdaf0123dad0c484d847d11bbd97a46c898b8f96e0297ce63fad992de5ad173bd187194286d6d138aae05155655482fa37a282e807ca7cadfdf9f43eb8b7ed2fd29e5d48586f002beaf406a09218da195ce650482be653ce67fdb8c3c8ef5464c302e63c2b79567ee8adf08f74c5d2f9d31dc5b9953c8bedc01268c29ee2523528da04ff3c75d4d3b5063155b869cdb08a6052f1662b2ee129bc6c8fcbfdf8010bb775ce16c04e4b4c7bc604381ae2c5d2e563650f13d27125234e90058967eb26e7e6b16e19f0ffa9d0944897df8db655c1c89a8a7a539ceb64afb46a40a50a2f58e91be7bece502d4b478bb077be325a2b8d7ba6ca3cb2ebb2b2fd04201a3b541f351a4eb93fe649529ab1057cda18feb44d5018599804820930943b6a8c39caaa8543d881f989b5b1ec25d4e54e6cdc999102b4e16d313d254524810bcc9ce3795a4a4d262f37441204bbe24e5f1c06bc0bf0873a92b4397f96bca8ab86e4443e8f66a94d55e982eb33b7e3af53172fa54520a5a41319db61bebd6c725ade1121773047f6670f0743ad7f0b111a974a548d781a165ac3df242d74a8bea6583a0b70c9c57a742e1a58294724ffc86ac40d081cda7fffd31db3dc097a396eb140c64c57ae5b88d57d9ef6eef9f6c8288f2eface196f577befb6bd9e015a402039ec547a2bbdeaa90cb3b4482730cd4407c8aac8be461e4610a9427067f86bbf1eccdada7dd3eb75ea8b8d27ae13becb1c35ef0a21ac21d7ea30cce78beebbde826e3af20743520e6b8cfa41c487e2520a5bb08a0852debc605df063bc7b26f44e438e058e7af955bfa8f502d43f9de332a5d1e6f896b3e059f7d7bba90278b9bd346e3aea26607bcfeac4af9fbbf4c970061dd582557db934a8d006cf10c8f6a88763f496dd4224ab149a2e25f8e7b8bb894eef651aeea386fea83c6159f418386aa2024e8ceb97dc1da78cde0f6ddea41bfb4eaff1a1ff8f5a0bfc7b983a95903397387f7fc7008d68eb74908b112736d3b5efc7b41cd0011ea2e6335f87159b6e76ecffb514f3957ace4251bea5cfcc54e3d974758ccc90f3975daab5d2913ba04fbbe6ea0e0d76e1c77326815ffbf9cf56f4af95ba89c6d508d20e4dc84987374bc2bffb365385e683d0c65fb619afdb086a3a7ff21e9e7f139044798226c346eb428736715161eebd1336d2d20e1724b7ca954e5af65dd03461cb138002bf00837a080bcbfc45652164ceb91cd661eee08a14d1b11ff5ee2c1637df5dbd42a34a0c475cefed5672c26f50e0be503cbe82c6946d0735bb3a2df79904ed6892b857343ebc00d6cbc2a075dd9ae988a3620791743eed71ef22f69b73bf547f2ec74f00810b5124f75a2d4eecbdd2a5f522865410995477806c513ed8ccd5b000857ca2692681d24fc3b8bbf5fc8baf19c1a2b2120dd535cf39213c10c26b208ae46fee59f3e784304a89bcc6acb7666fd4ca0c76f9d10ec29fa94c51d520662462951dd61e0a5f8b9f0a2e68a089a3cd7b7731bd26d5db6831b5bb25f26d3c2d61267ca890ed7d4cc125dd9481ce698c209bb3a72a07d71779244c245853a9997fb8e54a70b46276c9714c409e505259eddc7698891bdd73daf4eb82b342a23521281e46f0a091a4f9806e82e18323c09aedea9efbea283e14cebf53866b9ff1645287281b34f3696024bd9b8c82de59e75c53584757ac0dac3fb2bf02049d37ec2f9f28971d16209f137298fce483955cec5fec630ec89cfda8228a3c55fc56b7bfa622c27cfd0eb3afabf063a392679c6a75bda5669aa777afba6c3ac201ddd1d597fcca88bc31901fd2fd4de48d5bf74833cd9499c3b6d9fdf02d0beec22a966e85437f17268e90ed9bdb844cc0c94a561d4c2d2419b0f15fb87b2d1236c2a718b08bece81cb330cce568617c1ca7e079b76591241b3fdb1af4f1990bb312920f77a4cd8d35c5be404dfe925319a88b76833166de82cf7949b42cab762b8d76dfe05f872140df250e1769cbfaab215d0be5933f58edc5320b13abe15d3011996795e1da1b59ccd16c382c41fc1d788a56ff1f4cc9371f9573aab14ed5fb1c17dadbb6c3a38dce252f271acc79d04a5c728a12481cc27969738616265354717ec6dbe2e3eb02224f62648c9cb3d0e1e5ec0d111218272940438ecff2f5f9101c3b3c40465765666a808ea0bdcbccd8dcf2f40000000000000000000000000000000000000000000000000b17243801",
        "0016414c93c30c49028f065ac442cdcf007c1bae7800cddd19b6704c3064fbd1ca0b961f36f0fca2f9742618c0c9477127d129ac87eb6f2b4ed07c3e3331df4530680da4c1f4c9a81c0beb9326f409aee0cd0c0efdfad6a5196a9d740f4b7c5c85f864a687b8ebd7d8921cb87c90b450fe82887508dd77dfba330ac9f7809875527aa429b0368a339a4027b6bfbe256343d96a407b41124b5ccd08c8ac307f1197bffb88859a4a238dcb7b3f2015d9d8dbbd105b9c9665a5be538352b7d6107bd8027e0b0a1231e4e58c222df5b6723c76afc8915cb96771c11fa2cf91e670b9619fea814af72a4109eff6c2df99d0cd1df6eeef6173f34a0ed90d901d89d71d7914a7460a073c96a31e47612837ee9bc4a44946a9fd0ecc12242018817738898492e929301dbbe88539c4a8de960e2883d275cf4a8cd10c5497d0838b699ec1832b7ab54060da1b9bf7c28850e2f5ca8f97813694ca7d4e8020951f92a6a2d16f55e30c821f5962e01454066b5fcc7ab08f1190d6f30ac0f49a413037b464886f8b3fc009a4e970d0c0649050f920f59cd31aad11332fc87f0be106eba7aaf1e4927793b49c30695a25cec0e0acec7198bd35ccb57831cb2a1f19c6b792037d4f706f33e84cd33e00bcf91c29040df9c0f9b9a0a9e3323796fe95753133e6eb557ef9dcf8111f6b43e258e7e7641736e9bfd8c011953d54d860d67ebec33bf0b349ebd1bec107d4ad00ef2a676d617141fdadfa3b87f7f95ebb770ff6416a1f1117a8e3b1a84c854966ab596dbecf1c8083ef561ebbcee49133defe083ea19ff34acf00010e510ccf952119845736eb9bcfcf1cd59f12401f0d391d527a6c83724a4e9ae42e40a1a37568f1cbb20739bd6bedc8e5ac9355cee31b72b33429a250b8aa745dd7ef3033498885b133b98adcc6650e5fcef910277cf97ca00f81c7c537a68a491fba115a1838833788570d94c1e931e328f06d7e171ed0cb5e6c9ebcbee9909c6028d7c589ff62632f04d2cf83472e45a3cd62b52bd397797e88270c045ef62c8f76f05f76b3c1b0a24bb3cb1ed59a043678e8417340940fdf0d685c854de18f6fb02d21e6291ba5d0e5cecb3cca0cc439949126353ceb8b899157c0ff76700e10a71860a0ec87ebcf4fb47cf329a781dfbc980306bd108056afc781afc9283494d490fd91361bc5770951aa05333e9927c9c03add1a66ae3009d8b3f1608f818dd96a7445a979eb68934595b66cbc764593a4b4d42bd9b45329601b55570ea9438baaa07d6fb0fc2ae87efb14388b8e12185e3b797df806d8a42341f7370b5e22d731fc155073bb2bc8c2713c9f7192eac0b0258387557ec4279dea4d82f22ddd871139a5a292dad136424ce720cff8ace954d417dce023d31d70cfc16fc063eb5727bb088d8ff9087c6c19e6bbcbcabae9f4f50f06f3400bf5b023cbb2b597c7af9b3a2681fa204b47e355b17fa97a7a9484a831108377697fdf7a0104f6948056f204a5cda45f218601aa3cc56dec164ccf74629701b438a34eabc4dd08e92df8d890a0fd50e94619fafa1c712e6e7847f265a6d5347853cb2a5c13664c287aaa4bbd52e5b82c6e4ca2fb57a7b9b7e6bee1984e44b129c0260990b09553701278e79748dc4a1b68e5ef1c320969eec2337b2dfaaaaa5c29f8a4ed8524cf6c0696a57313e8d94fd01a00c29ec2c4dbe1f05cfd1f8553f644bbc4ae286f393743c5d56fc87d9de74a0e73b8a14aa9ede27221dfa9e792bf8cd46da6fcb0561624610969b6992b686bd8d591dc449a4be57141595b55698b1aeb3395694422802efacd67b777e64db4e4449dd327637a4377eb6a3d2c5a51604dad15"
      ],
      "sequence": 4294967294
    }
  ],
  "vout": [
    {
      "value": 499977.6282,
      "n": 0,
      "scriptPubKey": {
        "asm": "1 23b6d9105ede055376743eae132db3a533282372b6a077b36b8e0fdb23522b9d",
        "hex": "512023b6d9105ede055376743eae132db3a533282372b6a077b36b8e0fdb23522b9d",
        "reqSigs": 1,
        "type": "witness_v1_scripthash",
        "addresses": [
          "3QJmnh"
        ]
      }
    },
    {
      "value": 1.0,
      "n": 1,
      "scriptPubKey": {
        "asm": "OP_RETURN 32f4f7bc1f54d4f359986a1b55fce89d9b1041309c5981a8ef85fd9cf2b9d125 36c86946cba1d4fc27ffe9103c4c253f44e8f77a773008c0a0006d7161e5e70b16e84966eb81f4dc07dfc9301c6c051f64c8d75a571028e080204d5141c5c72b768829068be194bc67bfa9507c0c657f04a8b73a37704880e0402d3121a5a74b56a80926abc1b49c479f89705c2c455f2488971a175068a0c0600d110185876bb648e9c64b21547ca77f6990bccca5bfc46877faf7b088402080edf1e165678b9668c9e66b01745c875f49b09cec859fe44857dad790a86000a0cdd1c14547abf608a9860b61143ce73f29d0fc8ce5ff842837bab7f0c80060c0adb1a12527cbd62889a62b41341cc71f09f0dcacc5dfa408179a97d0e82040e08d91810507eb36c86946cba1d4fc27ffe9103c4c253f44e8f77a773008c0a0006d7161e5e70b16e84966eb81f4dc07dfc9301c6c051f64c8d75a571028e080204d5141c5c72b768829068be194bc67bfa9507c0c657f04a8b73a37704880e0402d3121a5a74b56a80926abc1b49c479f89705c2c455f2488971a175068a0c0600d110185876bb648e9c64b21547ca77f6990bccca5bfc46877faf7b088402080edf1e165678b9668c9e66b01745c875f49b09cec859fe44857dad790a86000a0cdd1c14547abf608a9860b61143ce73f29d0fc8ce5ff842837bab7f0c80060c0adb1a12527cbd62889a62b41341cc71f09f0dcacc5dfa408179a97d0e82040e08d91810507eb36c86946cba1d4fc27ffe9103c4c253f44e8f77a773008c0a0006d7161e5e70b16e84966eb81f4dc07dfc9301c6c051f64c8d75a571028e080204d5141c5c72b768829068be194bc67bfa9507c0c657f04a8b73a37704880e0402d3121a5a74b56a80926abc1b49c479f89705c2c455f2488971a175068a0c0600d110185876bb648e9c64b21547ca77f6990bccca5bfc46877faf7b088402080edf1e165678b9668c9e66b01745c875f49b09cec859fe44857dad790a86000a0cdd1c14547abf608a9860b61143ce73f29d0fc8ce5ff842837bab7f0c80060c0adb1a12527cbd62889a62b41341cc71f09f0dcacc5dfa408179a97d0e82040e08d91810507eb36c86946cba1d4fc27ffe9103c4c253f44e8f77a773008c0a0006d7161e5e70b16e84966eb81f4dc07dfc9301c6c051f64c8d75a571028e080204d5141c5c72b768829068be194bc67bfa9507c0c657f04a8b73a37704880e0402d3121a5a74b56a80926abc1b49c479f89705c2c455f2488971a175068a0c0600d110185876bb648e9c64b21547ca77f6990bccca5bfc46877faf7b088402080edf1e165678b9668c9e66b01745c875f49b09cec859fe44857dad790a86000a0cdd1c14547abf608a9860b61143ce73f29d0fc8ce5ff842837bab7f0c80060c0adb1a12527cbd62889a62b41341cc71f09f0dcacc5dfa408179a97d0e82040e08d91810507eb36c86946cba1d4fc27ffe9103c4c253f44e8f77a773008c0a0006d7161e5e70b16e84966eb81f4dc07dfc9301c6c051f64c8d75a571028e080204d5141c5c72b768829068be194bc67bfa9507c0c657f04a8b73a37704880e0402d3121a5a74b56a80926abc1b49c479f89705c2c455f2488971a175068a0c0600d110185876bb648e9c64b21547ca77f6990bccca5bf469eaa9d2ea343697d1ec9178b8b67107527fcb4a89c00132b1e0e28d313448c",
        "hex": "6a2032f4f7bc1f54d4f359986a1b55fce89d9b1041309c5981a8ef85fd9cf2b9d1254db00436c86946cba1d4fc27ffe9103c4c253f44e8f77a773008c0a0006d7161e5e70b16e84966eb81f4dc07dfc9301c6c051f64c8d75a571028e080204d5141c5c72b768829068be194bc67bfa9507c0c657f04a8b73a37704880e0402d3121a5a74b56a80926abc1b49c479f89705c2c455f2488971a175068a0c0600d110185876bb648e9c64b21547ca77f6990bccca5bfc46877faf7b088402080edf1e165678b9668c9e66b01745c875f49b09cec859fe44857dad790a86000a0cdd1c14547abf608a9860b61143ce73f29d0fc8ce5ff842837bab7f0c80060c0adb1a12527cbd62889a62b41341cc71f09f0dcacc5dfa408179a97d0e82040e08d91810507eb36c86946cba1d4fc27ffe9103c4c253f44e8f77a773008c0a0006d7161e5e70b16e84966eb81f4dc07dfc9301c6c051f64c8d75a571028e080204d5141c5c72b768829068be194bc67bfa9507c0c657f04a8b73a37704880e0402d3121a5a74b56a80926abc1b49c479f89705c2c455f2488971a175068a0c0600d110185876bb648e9c64b21547ca77f6990bccca5bfc46877faf7b088402080edf1e165678b9668c9e66b01745c875f49b09cec859fe44857dad790a86000a0cdd1c14547abf608a9860b61143ce73f29d0fc8ce5ff842837bab7f0c80060c0adb1a12527cbd62889a62b41341cc71f09f0dcacc5dfa408179a97d0e82040e08d91810507eb36c86946cba1d4fc27ffe9103c4c253f44e8f77a773008c0a0006d7161e5e70b16e84966eb81f4dc07dfc9301c6c051f64c8d75a571028e080204d5141c5c72b768829068be194bc67bfa9507c0c657f04a8b73a37704880e0402d3121a5a74b56a80926abc1b49c479f89705c2c455f2488971a175068a0c0600d110185876bb648e9c64b21547ca77f6990bccca5bfc46877faf7b088402080edf1e165678b9668c9e66b01745c875f49b09cec859fe44857dad790a86000a0cdd1c14547abf608a9860b61143ce73f29d0fc8ce5ff842837bab7f0c80060c0adb1a12527cbd62889a62b41341cc71f09f0dcacc5dfa408179a97d0e82040e08d91810507eb36c86946cba1d4fc27ffe9103c4c253f44e8f77a773008c0a0006d7161e5e70b16e84966eb81f4dc07dfc9301c6c051f64c8d75a571028e080204d5141c5c72b768829068be194bc67bfa9507c0c657f04a8b73a37704880e0402d3121a5a74b56a80926abc1b49c479f89705c2c455f2488971a175068a0c0600d110185876bb648e9c64b21547ca77f6990bccca5bfc46877faf7b088402080edf1e165678b9668c9e66b01745c875f49b09cec859fe44857dad790a86000a0cdd1c14547abf608a9860b61143ce73f29d0fc8ce5ff842837bab7f0c80060c0adb1a12527cbd62889a62b41341cc71f09f0dcacc5dfa408179a97d0e82040e08d91810507eb36c86946cba1d4fc27ffe9103c4c253f44e8f77a773008c0a0006d7161e5e70b16e84966eb81f4dc07dfc9301c6c051f64c8d75a571028e080204d5141c5c72b768829068be194bc67bfa9507c0c657f04a8b73a37704880e0402d3121a5a74b56a80926abc1b49c479f89705c2c455f2488971a175068a0c0600d110185876bb648e9c64b21547ca77f6990bccca5bf469eaa9d2ea343697d1ec9178b8b67107527fcb4a89c00132b1e0e28d313448c",
        "type": "nulldata"
      }
    }
  ],
  "blockhash": "0125d69e6984563ac74cb1b0b8601a67b424e71230e7918fa710584dbb11162a",
  "confirmations": 1,
  "time": 1764180090,
  "blocktime": 1764180090
}