{
  "hex": "01000000000101a75fe130870b9f8983119f17aa20348c5e5a02ebce6741229f93f811673b71910000000000feffffff02b0767139792d0000225120c506f78a0c7a55184154e3b4cf0fca4b837ec753ee4abeeff054e60aa7e0dd8100e1f50500000000fdd5046a20f646d41ecf2b2eb1a016e767b7f390588505bfc92a9980efd891f53b4f04701f4db00449285894ac2b8b65532544edf6d5eed974aedaca71f84884b4a5456e619e7427690878b48c0bab45730564cdd6f5cef9548efaea51d868a49485654e41be5407096818d4ec6bcb25136504adb695ae9934ee9a8a31b808c4f4e5052e21de3467294838f4cc4beb053345248d96b58eb914cebaaa119828e4d4c5250e01fe1447c9a8d8142cab0be5d3a5c46d76556e59f42e5a4af178c8043425c5eee11ef4a7e988f8340c8b2bc5f385e44d56754e79d40e7a6ad158e8241405e5cec13ed48789e898546ceb4ba593e5842d36152e19b46e1a0ab1388844746585aea15eb4e7a9c8b8744ccb6b85b3c5a40d16350e39944e3a2a9118a8645445a58e817e94c749285894ac2b8b65532544edf6d5eed974aedaca71f84884b4a5456e619e7427690878b48c0bab45730564cdd6f5cef9548efaea51d868a49485654e41be5407096818d4ec6bcb25136504adb695ae9934ee9a8a31b808c4f4e5052e21de3467294838f4cc4beb053345248d96b58eb914cebaaa119828e4d4c5250e01fe1447c9a8d8142cab0be5d3a5c46d76556e59f42e5a4af178c8043425c5eee11ef4a7e988f8340c8b2bc5f385e44d56754e79d40e7a6ad158e8241405e5cec13ed48789e898546ceb4ba593e5842d36152e19b46e1a0ab1388844746585aea15eb4e7a9c8b8744ccb6b85b3c5a40d16350e39944e3a2a9118a8645445a58e817e94c749285894ac2b8b65532544edf6d5eed974aedaca71f84884b4a5456e619e7427690878b48c0bab45730564cdd6f5cef9548efaea51d868a49485654e41be5407096818d4ec6bcb25136504adb695ae9934ee9a8a31b808c4f4e5052e21de3467294838f4cc4beb053345248d96b58eb914cebaaa119828e4d4c5250e01fe1447c9a8d8142cab0be5d3a5c46d76556e59f42e5a4af178c8043425c5eee11ef4a7e988f8340c8b2bc5f385e44d56754e79d40e7a6ad158e8241405e5cec13ed48789e898546ceb4ba593e5842d36152e19b46e1a0ab1388844746585aea15eb4e7a9c8b8744ccb6b85b3c5a40d16350e39944e3a2a9118a8645445a58e817e94c749285894ac2b8b65532544edf6d5eed974aedaca71f84884b4a5456e619e7427690878b48c0bab45730564cdd6f5cef9548efaea51d868a49485654e41be5407096818d4ec6bcb25136504adb695ae9934ee9a8a31b808c4f4e5052e21de3467294838f4cc4beb053345248d96b58eb914cebaaa119828e4d4c5250e01fe1447c9a8d8142cab0be5d3a5c46d76556e59f42e5a4af178c8043425c5eee11ef4a7e988f8340c8b2bc5f385e44d56754e79d40e7a6ad158e8241405e5cec13ed48789e898546ceb4ba593e5842d36152e19b46e1a0ab1388844746585aea15eb4e7a9c8b8744ccb6b85b3c5a40d16350e39944e3a2a9118a8645445a58e817e94c749285894ac2b8b65532544edf6d5eed974aedaca71f84884b4a5456e619e7427690878b48c0bab45730564cdd6f5cef9548efaea51d868a49485654e41be5407096818d4ec6bcb25136504adb695ae9934ee9a8a31b808c4f4e5052e21de3467294838f4cc4beb053345248d96b58eb914cebaaa119828e4d4c5250e01fe1447c9a8d8142cab0be5d3a5c46d76556e595154fc0d329a86ec2a591996a4ecd271db150be2081fc9035a915442a94af8fa02fd75099f41dd9f73a423e10b08077ff500fad523fc8d1dc718bcc410943a8536b9d104bb6ba29bb6d0064f4e7e7d2a5e526ea10c30c6005c77a580cfa3f5d35e0a909c9ebb3d0890949811e2ddccca3cbc422619d64a9c097ebcf5202a68f6b73129ef94eb7829dae3fc0feb6d494efdfe60e83a088135e4072360953a5c0813b696792222b641dda8fe943f1f5a84cc3950d6b462972336d18a94b56e45161affc369b4779c0ddeb673d1b1a33e859d714f2ee6500cfd4374bdca215a304eaf1b99c01cf9f34b18a0dcf725bffdb3d04b136ab726aa2cea055dc515f1ff6f1cb9b59a63d9f3e061c3d89959ed0e4db3108846e0ba412c09909481044d8d4246c34690eef63e9310df9633cb166229808b534d49241f30065911d313324c2c4e44d94e51987bcb040a6078e9795405b1fbc85cb010151cadc468d92c9489cbcdeeb942634a49e0e1f3be96e22ad013f187a400f3aac74f043bf1de32c75b9e4bd53fc66a013df66e1e746479d2ab6267842f5c2f92aafec6c3a545f9fb507bf4b1a20107f760927822b21f6bf1bd296c34aaf1f69073ca3e19e0d591f70dd2964f9f1ce9e548092c6a44424db0ab76a27ca92eefeccc01c4532a94783c0139854c4e10f178c4dbe61dc74a1b462b413d9d97582d14a304b8808344759d187f195d37214884e3662f03855ee20889c1f0aad2c6c8b28cc7575f675f4159c2bdec50d16ef5f7f6a6c7b0c255ae3b44ccf389b230e70e1e8c25704d8595a415e8490e9e87b9c27f401d72562320a20addb99a18f03fc832950a35d92430045aa4b11bde1fec32f66e8e5d54ba1b3dd17127bdcbb2cf248f0adaa9553860f225a3aa814445159d908c8a896f9679ea76655646e5eb683a32ef897217a7f255eb90134f2d6fef71f326985fa7c4e686c7501e3f1b0ed60b9650e3f5194e9b58d4cee1e8eec28cc0806ff8afc2b8ba9d99a4987874824a2b8e7026f3ac6f04dc7f11d278b64e382deae4ae5ee53d86bda89db399464c0a5617bad437ac2cb6c6511e69c4b57fbe0ffcb8d823733785a6a299b67f2bc5171d18de1e6272fa68a8aa9fcf33a28e9ef702e8a29dedf6017eafdde1455968108ffc6f3c752a96cd2660956163c0175655f10326a86bedd5befd7573319b045b7b26c7a2ddeb74044853c21aba657730a9e33ffbf62000fb17ebfa092f2a9323b249c2e9800d01add0f93829260bbe7ed3c331322c7906937312776965ffaac18dfa68eb262f54149978f51f547957400dae975bc8ddf50e017960ad43129b7e47285552491968875732f59d254faaf623ed64441228725079e8155eb72c8face2ed89ffc858b32255faf3bccf461e98405bfcd307b1cdae72745cfff0265a280c5b534c5cf514141dcf6ef59fd9785e33a3b05902a1468d36c4e8e1cbfe49dedea905a0c3f3a9e64557ea17c397f35c09d01d8a0cac7f3c65d922cf940c87a1049ac04562e899a0a17f5cb76e2aefa21dcab807b0c3471bd08c22d80f513edad3705a8411d4e68bb16795e6112a750fcec29334a4f9561d58845a873a3926d9346d9d5d4edd75f839989c1406e06df6c58eb86054ae11b09856fa3103e02d6aa4fa17addb4b2ab123408d930b8e4d17c3f0a7752ab02e6683d039b713e42c4e9beadc83f9d9a4fe65f88b27f9f9fdbeeb3d96141e4c16ce5f097464294291493fc9ccec09482a94f20cfcfa6b8539196f40bf688563706ffc494deb4f47f01634c0d311e91051ab5c9c2a5d4f65334a437e16271ba140446ec61b28e0493c2ccd9f5612d12dcd887bd490a8d30d5aca752ba20c1a1c9ca319a6e98e736eeee451b1c13946baa7386b6a46c0fa63efaa3546c493c8b6f3dc021927113d97221e7a721741cf538907454f13201656043e37a7c9706f33b4b6c29955c0caaf681f9d347296f19abfcb82c355b3c13352985981c44292e2a7f034ea06f100cdd0332816ead99c440a3661fdf723461dd4b8ba0c1aca01936b0d84b95e13cb793eb24180a5067a24e484bb96b1953628dbc9f1bd2fec20ea2e2a52add8294299967ea151169b6962418400268df9155404242ad8f5eb6a6f5d634c0e20c3de5ce62b77265ba60c18799f7782f5f4c24b11c661ebecbb0bcf0c0f450a1889d4548f37a899bcc825d26afb286adecdc8a699606f661bfd04a17424e032100fcf91c4287d4ad1a759180cbfa69cb642b67e045024de968af4cad53fddbf40e01443358b4a6df0047f6598bdd66961365a0a175c8cfbe883860cd298ebf4a55f525475b3cc1f5157c506d8449ab44c41a2f120db6e34c1593707c919997eb01cb412a42e37fe635a502143809d9f033756b5b76391f4b877301e23751fc7caa86d8c5c56592d86fdc03ea4a846ca84d5db05030ebe9478fc0f263227fbd820944e873107dc6ea67097e56dbf490d7220489a77d76891375fc90f3c83002ddd398bf5dc3de6f3ae43c6783fc0acb144c5660015b0c615e14824148e9cbba6f6c9977198f16c129987cab25cb35132f3933480f43389b3d330cb22e5a391444a56c5aa9e7d6833e237de35d726d119c6f14939a6a308db12d5e260a4a857e9c28c32969a789c471ed53f0dd55adfa90f3fa87c54c5bd9bd516b337f860b78db2ed63348ded324d59d84774fca795b9c6250f65eb69c52bd0d65bb968ff51de184c76649df405b1176798074477fc219e75e07170ed20f2f3d5175fda2d1c156542620b67f8915c044f99cd74bb97aac75d70ece05c147f01348959d7c1ec3ad36b1abfa0a3c82666d9855f9ef30e3afa4738952a8387510ab56c6b5b8675e25de72f46be0a3963c43775230327ea4aa6437ce799660a421f381c43f984470e4ab9091b5b3d843f2c0b8923af8a8cffdb2379f9573895141b772909e90fd4c50793e2f8e49bbed6ba34847ec268475d388704c369a44690dff19ffdc72548cd98e5c98398cdbc733a9410b040949d702cb677fa77b787343505d918272faa670898caff5382aa5f0f779104ee1a7321bd1b1e0ebfe8ef0f0a624c01a12ff7bb8255e023840526026eb5916266335c1cc2fd9ae8d6476987fcb88201965ea7491ad3f78abad3d985d7032b36e02fc95212166254c58a5879780c9d6bf954242766ba0340fa822d5a6c3f6230c18f77840f4fc4adfbc6993cff8a9f4ff0961567abf7aaecb552bf04e74060078748180d2bab2244fd0a369d5efc22eeb829c473b8c6414554698e2feffebeff00b4c17cd2a4351ac204dc20f26b34e17b5becff0f7d47eab590c53c8f04faf49a601e768d873bafa90119282f6d707c8694aebac4ced0d1d8ff033577919eacd7e702072a3f444a4d4f5273757996b3e725282a47595b626b90c7cce8fbff00000000000000000000000000000000000000000000000000001119283601fd210500fbd1da2ff5a78f813b7cd07d480d977ed95fd105345505a2bd840373fb643dc5622052feb90e8882fea52121d77f9c9eb7f1974f4e0c9365ba569797df96119b926f8963a3c7d769f069f185a55c6af2c2452fc5a8b643765d2b538391433c116b5be69767bbf669daa9761f313c4d7a4fd4d0927b625085fc9511bec4887d304ff8b16d1387f56f4582abb6dc4f5565df3c8d6e89d5819af8c89f188305788c9f3d5c7524990a4d420893c9bbb57ea9ef1f9087be65c684a1de5f577226f4f3a3e937eec5341c5fdfcaca471b0e3a1dcb05d06509464705f48bbc0d55f7bc7b1232fabd097212dfc7e6990ef5aec780272d9243826a039ce86c98870c06280bbb28b682f4c749e9989539c9e40dd7080da16b6cee31e51d93a8ab09705b2e3b2de666346eb7871a410ddf73bb3a380dbe0c3a6aabbf1a7db7e6f16537d62dce832250aaad496622191485f6c1f821e33beff6889c8d9878946714e38d6ee99da8c80ead6b0530121f2b6788ccdd83c02b0a2d131ef56b3e57e087b0431d7f103f819faeeba1579cf5c59b7a616a42a2276b516813706feeda8aa9e01a74a3ea213ec1e42149f42117058e0c1127c91738e24cf9e6ba5365682720f127afa76db1c737c52e10d2d50bd801b0dd3e46b88bf5cbc5eb2c049ee19a73033ac4be7a38d31beec5641ce0824bfd22af29d9b10ad712e744357d754586fdedab8075ce2b1d9b0183fc9132f8ad1413f900da9818a25cd9be177ec8d082e671fc90963ad7e6689b088a5fcc6f5da47fba829cac33e936acebb8a88a956100cd0bbea4e09970c333429819d8f00a1aa876dcf3c84ba417203bf4ff538988a532c94fee0ddedd2eccc4e5b81e26c5b0dcc1b2e859cdde046e580fcd3852d8dc0ff27e207a1040696ed234c31ce0860fd24589cacffb5c340c8431f81551c0012ab7b61b732a2e615357536364f0e9869589ad6c695873dc080234465c22cf1aeb548948bca65c6e9b51203a8c169998a68a174f90d02de2d8599138732be183769649af9bbd1c6432c3aac253eb125a4fc65394d2b57100a1cbac4d1804e3375a5f25c6a4b57a4b4104150443bcd0b3906934fdde3fb99f413122d4bd428822ede3c81fce02a48b598f3bc6142f33160d486f67eabc1070440b0f16968a136be02ab251d1a98e57fbdfb9fbdb4227d4a83ec7a1ccc649b32a52e72b3791507c24c1209d51f85d4c98af1cf350c958c455af8fc6ba52a3bb7bea9446345dd8c5ee35874b1ca4b63a5d1897ca971171327b3000041866bcb9a6b4c989ad2420d9fccce85b107bd1cda985c3b2cd61cfc49bb3f1a0a697bf8585d051055f4514cac973b4fbc2ba0cce028fb1bf25a2209b9665eb69943d756b94d52d95a42610d83fc2996996c66d819add06cc156fedb23b5c1a7ab8a666bf272bf838b5f7d256ad60930ac010f4411d024283b2ffd239b222b53d3f6d01cda7a67e4be35c9ffef772076cba66e99b2364369c32f3bd7a44b2e2e33ffb33b46dc69bd7a3b7e7efa10c5b55f7bb1b88fc7b4d92a7d885833bf4b19f66034b58b5314513aea2ecd1d432cd825af76e3da0c3baf13c7d694cacc7f05b168a5a94ef7cf0a59b28ab906a00e99f4e7a4a3ec9ff599127f090591adc5ed0be0a8e3b847614bf7903d452d2efeb96658e49e4c167022d622e86824c6d36ab915373842787d3d687e789d02cb16c4b6e76fee7ec3883cca2c5eb890684c55abcef8ef8a6da5f6ce54b56ffd3d0630e5e281f5a18658c4accc9ecce83d19a9182c7c28bc5501553c39c56faab602e717b27e64ae6895874b1c69ea8789287c4642d56777bb4c5f8e0d692ca1f5cd5669c6e000000",
  "txid": "77030353448122d294b6664ab50d4b3ee7697a6da161a89ced096ec092eb0520",
  "hash": "e22cb375cce2e5e43615810376bbe76c79a5e7c4ddd3dd1e72101f679d3d83a8",
  "size": 5085,
  "vsize": 2278,
  "version": 1,
  "locktime": 110,
  "vin": [
    {
      "txid": "91713b6711f8939f224167ceeb025a5e8c3420aa179f1183899f0b8730e15fa7",
      "vout": 0,
      "scriptSig": {
        "asm": "",
        "hex": ""
      },
      "txinwitness": [
        "9f41dd9f73a423e10b08077ff500fad523fc8d1dc718bcc410943a8536b9d104bb6ba29bb6d0064f4e7e7d2a5e526ea10c30c6005c77a580cfa3f5d35e0a909c9ebb3d0890949811e2ddccca3cbc422619d64a9c097ebcf5202a68f6b73129ef94eb7829dae3fc0feb6d494efdfe60e83a088135e4072360953a5c0813b696792222b641dda8fe943f1f5a84cc3950d6b462972336d18a94b56e45161affc369b4779c0ddeb673d1b1a33e859d714f2ee6500cfd4374bdca215a304eaf1b99c01cf9f34b18a0dcf725bffdb3d04b136ab726aa2cea055dc515f1ff6f1cb9b59a63d9f3e061c3d89959ed0e4db3108846e0ba412c09909481044d8d4246c34690eef63e9310df9633cb166229808b534d49241f30065911d313324c2c4e44d94e51987bcb040a6078e9795405b1fbc85cb010151cadc468d92c9489cbcdeeb942634a49e0e1f3be96e22ad013f187a400f3aac74f043bf1de32c75b9e4bd53fc66a013df66e1e746479d2ab6267842f5c2f92aafec6c3a545f9fb507bf4b1a20107f760927822b21f6bf1bd296c34aaf1f69073ca3e19e0d591f70dd2964f9f1ce9e548092c6a44424db0ab76a27ca92eefeccc01c4532a94783c0139854c4e10f178c4dbe61dc74a1b462b413d9d97582d14a304b8808344759d187f195d37214884e3662f03855ee20889c1f0aad2c6c8b28cc7575f675f4159c2bdec50d16ef5f7f6a6c7b0c255ae3b44ccf389b230e70e1e8c25704d8595a415e8490e9e87b9c27f401d72562320a20addb99a18f03fc832950a35d92430045aa4b11bde1fec32f66e8e5d54ba1b3dd17127bdcbb2cf248f0adaa9553860f225a3aa814445159d908c8a896f9679ea76655646e5eb683a32ef897217a7f255eb90134f2d6fef71f326985fa7c4e686c7501e3f1b0ed60b9650e3f5194e9b58d4cee1e8eec28cc0806ff8afc2b8ba9d99a4987874824a2b8e7026f3ac6f04dc7f11d278b64e382deae4ae5ee53d86bda89db399464c0a5617bad437ac2cb6c6511e69c4b57fbe0ffcb8d823733785a6a299b67f2bc5171d18de1e6272fa68a8aa9fcf33a28e9ef702e8a29dedf6017eafdde1455968108ffc6f3c752a96cd2660956163c0175655f10326a86bedd5befd7573319b045b7b26c7a2ddeb74044853c21aba657730a9e33ffbf62000fb17ebfa092f2a9323b249c2e9800d01add0f93829260bbe7ed3c331322c7906937312776965ffaac18dfa68eb262f54149978f51f547957400dae975bc8ddf50e017960ad43129b7e47285552491968875732f59d254faaf623ed64441228725079e8155eb72c8face2ed89ffc858b32255faf3bccf461e98405bfcd307b1cdae72745cfff0265a280c5b534c5cf514141dcf6ef59fd9785e33a3b05902a1468d36c4e8e1cbfe49dedea905a0c3f3a9e64557ea17c397f35c09d01d8a0cac7f3c65d922cf940c87a1049ac04562e899a0a17f5cb76e2aefa21dcab807b0c3471bd08c22d80f513edad3705a8411d4e68bb16795e6112a750fcec29334a4f9561d58845a873a3926d9346d9d5d4edd75f839989c1406e06df6c58eb86054ae11b09856fa3103e02d6aa4fa17addb4b2ab123408d930b8e4d17c3f0a7752ab02e6683d039b713e42c4e9beadc83f9d9a4fe65f88b27f9f9fdbeeb3d96141e4c16ce5f097464294291493fc9ccec09482a94f20cfcfa6b8539196f40bf688563706ffc494deb4f47f01634c0d311e91051ab5c9c2a5d4f65334a437e16271ba140446ec61b28e0493c2ccd9f5612d12dcd887bd490a8d30d5aca752ba20c1a1c9ca319a6e98e736eeee451b1c13946baa7386b6a46c0fa63efaa3546c493c8b6f3dc021927113d97221e7a721741cf538907454f13201656043e37a7c9706f33b4b6c29955c0caaf681f9d347296f19abfcb82c355b3c13352985981c44292e2a7f034ea06f100cdd0332816ead99c440a3661fdf723461dd4b8ba0c1aca01936b0d84b95e13cb793eb24180a5067a24e484bb96b1953628dbc9f1bd2fec20ea2e2a52add8294299967ea151169b6962418400268df9155404242ad8f5eb6a6f5d634c0e20c3de5ce62b77265ba60c18799f7782f5f4c24b11c661ebecbb0bcf0c0f450a1889d4548f37a899bcc825d26afb286adecdc8a699606f661bfd04a17424e032100fcf91c4287d4ad1a759180cbfa69cb642b67e045024de968af4cad53fddbf40e01443358b4a6df0047f6598bdd66961365a0a175c8cfbe883860cd298ebf4a55f525475b3cc1f5157c506d8449ab44c41a2f120db6e34c1593707c919997eb01cb412a42e37fe635a502143809d9f033756b5b76391f4b877301e23751fc7caa86d8c5c56592d86fdc03ea4a846ca84d5db05030ebe9478fc0f263227fbd820944e873107dc6ea67097e56dbf490d7220489a77d76891375fc90f3c83002ddd398bf5dc3de6f3ae43c6783fc0acb144c5660015b0c615e14824148e9cbba6f6c9977198f16c129987cab25cb35132f3933480f43389b3d330cb22e5a391444a56c5aa9e7d6833e237de35d726d119c6f14939a6a308db12d5e260a4a857e9c28c32969a789c471ed53f0dd55adfa90f3fa87c54c5bd9bd516b337f860b78db2ed63348ded324d59d84774fca795b9c6250f65eb69c52bd0d65bb968ff51de184c76649df405b1176798074477fc219e75e07170ed20f2f3d5175fda2d1c156542620b67f8915c044f99cd74bb97aac75d70ece05c147f01348959d7c1ec3ad36b1abfa0a3c82666d9855f9ef30e3afa4738952a8387510ab56c6b5b8675e25de72f46be0a3963c43775230327ea4aa6437ce799660a421f381c43f984470e4ab9091b5b3d843f2c0b8923af8a8cffdb2379f9573895141b772909e90fd4c50793e2f8e49bbed6ba34847ec268475d388704c369a44690dff19ffdc72548cd98e5c98398cdbc733a9410b040949d702cb677fa77b787343505d918272faa670898caff5382aa5f0f779104ee1a7321bd1b1e0ebfe8ef0f0a624c01a12ff7bb8255e023840526026eb5916266335c1cc2fd9ae8d6476987fcb88201965ea7491ad3f78abad3d985d7032b36e02fc95212166254c58a5879780c9d6bf954242766ba0340fa822d5a6c3f6230c18f77840f4fc4adfbc6993cff8a9f4ff0961567abf7aaecb552bf04e74060078748180d2bab2244fd0a369d5efc22eeb829c473b8c6414554698e2feffebeff00b4c17cd2a4351ac204dc20f26b34e17b5becff0f7d47eab590c53c8f04faf49a601e768d873bafa90119282f6d707c8694aebac4ced0d1d8ff033577919eacd7e702072a3f444a4d4f5273757996b3e725282a47595b626b90c7cce8fbff00000000000000000000000000000000000000000000000000001119283601",
        "00fbd1da2ff5a78f813b7cd07d480d977ed95fd105345505a2bd840373fb643dc5622052feb90e8882fea52121d77f9c9eb7f1974f4e0c9365ba569797df96119b926f8963a3c7d769f069f185a55c6af2c2452fc5a8b643765d2b538391433c116b5be69767bbf669daa9761f313c4d7a4fd4d0927b625085fc9511bec4887d304ff8b16d1387f56f4582abb6dc4f5565df3c8d6e89d5819af8c89f188305788c9f3d5c7524990a4d420893c9bbb57ea9ef1f9087be65c684a1de5f577226f4f3a3e937eec5341c5fdfcaca471b0e3a1dcb05d06509464705f48bbc0d55f7bc7b1232fabd097212dfc7e6990ef5aec780272d9243826a039ce86c98870c06280bbb28b682f4c749e9989539c9e40dd7080da16b6cee31e51d93a8ab09705b2e3b2de666346eb7871a410ddf73bb3a380dbe0c3a6aabbf1a7db7e6f16537d62dce832250aaad496622191485f6c1f821e33beff6889c8d9878946714e38d6ee99da8c80ead6b0530121f2b6788ccdd83c02b0a2d131ef56b3e57e087b0431d7f103f819faeeba1579cf5c59b7a616a42a2276b516813706feeda8aa9e01a74a3ea213ec1e42149f42117058e0c1127c91738e24cf9e6ba5365682720f127afa76db1c737c52e10d2d50bd801b0dd3e46b88bf5cbc5eb2c049ee19a73033ac4be7a38d31beec5641ce0824bfd22af29d9b10ad712e744357d754586fdedab8075ce2b1d9b0183fc9132f8ad1413f900da9818a25cd9be177ec8d082e671fc90963ad7e6689b088a5fcc6f5da47fba829cac33e936acebb8a88a956100cd0bbea4e09970c333429819d8f00a1aa876dcf3c84ba417203bf4ff538988a532c94fee0ddedd2eccc4e5b81e26c5b0dcc1b2e859cdde046e580fcd3852d8dc0ff27e207a1040696ed234c31ce0860fd24589cacffb5c340c8431f81551c0012ab7b61b732a2e615357536364f0e9869589ad6c695873dc080234465c22cf1aeb548948bca65c6e9b51203a8c169998a68a174f90d02de2d8599138732be183769649af9bbd1c6432c3aac253eb125a4fc65394d2b57100a1cbac4d1804e3375a5f25c6a4b57a4b4104150443bcd0b3906934fdde3fb99f413122d4bd428822ede3c81fce02a48b598f3bc6142f33160d486f67eabc1070440b0f16968a136be02ab251d1a98e57fbdfb9fbdb4227d4a83ec7a1ccc649b32a52e72b3791507c24c1209d51f85d4c98af1cf350c958c455af8fc6ba52a3bb7bea9446345dd8c5ee35874b1ca4b63a5d1897ca971171327b3000041866bcb9a6b4c989ad2420d9fccce85b107bd1cda985c3b2cd61cfc49bb3f1a0a697bf8585d051055f4514cac973b4fbc2ba0cce028fb1bf25a2209b9665eb69943d756b94d52d95a42610d83fc2996996c66d819add06cc156fedb23b5c1a7ab8a666bf272bf838b5f7d256ad60930ac010f4411d024283b2ffd239b222b53d3f6d01cda7a67e4be35c9ffef772076cba66e99b2364369c32f3bd7a44b2e2e33ffb33b46dc69bd7a3b7e7efa10c5b55f7bb1b88fc7b4d92a7d885833bf4b19f66034b58b5314513aea2ecd1d432cd825af76e3da0c3baf13c7d694cacc7f05b168a5a94ef7cf0a59b28ab906a00e99f4e7a4a3ec9ff599127f090591adc5ed0be0a8e3b847614bf7903d452d2efeb96658e49e4c167022d622e86824c6d36ab915373842787d3d687e789d02cb16c4b6e76fee7ec3883cca2c5eb890684c55abcef8ef8a6da5f6ce54b56ffd3d0630e5e281f5a18658c4accc9ecce83d19a9182c7c28bc5501553c39c56faab602e717b27e64ae6895874b1c69ea8789287c4642d56777bb4c5f8e0d692ca1f5cd5669c"
      ],
      "sequence": 4294967294
    }
  ],
  "vout": [
    {
      "value": 499986.7803,
      "n": 0,
      "scriptPubKey": {
        "asm": "1 c506f78a0c7a55184154e3b4cf0fca4b837ec753ee4abeeff054e60aa7e0dd81",
        "hex": "5120c506f78a0c7a55184154e3b4cf0fca4b837ec753ee4abeeff054e60aa7e0dd81",
        "reqSigs": 1,
        "type": "witness_v1_scripthash",
        "addresses": [
          "3QJmnh"
        ]
      }
    },
    {
      "value": 1.0,
      "n": 1,
      "scriptPubKey": {
        "asm": "OP_RETURN f646d41ecf2b2eb1a016e767b7f390588505bfc92a9980efd891f53b4f04701f 49285894ac2b8b65532544edf6d5eed974aedaca71f84884b4a5456e619e7427690878b48c0bab45730564cdd6f5cef9548efaea51d868a49485654e41be5407096818d4ec6bcb25136504adb695ae9934ee9a8a31b808c4f4e5052e21de3467294838f4cc4beb053345248d96b58eb914cebaaa119828e4d4c5250e01fe1447c9a8d8142cab0be5d3a5c46d76556e59f42e5a4af178c8043425c5eee11ef4a7e988f8340c8b2bc5f385e44d56754e79d40e7a6ad158e8241405e5cec13ed48789e898546ceb4ba593e5842d36152e19b46e1a0ab1388844746585aea15eb4e7a9c8b8744ccb6b85b3c5a40d16350e39944e3a2a9118a8645445a58e817e94c749285894ac2b8b65532544edf6d5eed974aedaca71f84884b4a5456e619e7427690878b48c0bab45730564cdd6f5cef9548efaea51d868a49485654e41be5407096818d4ec6bcb25136504adb695ae9934ee9a8a31b808c4f4e5052e21de3467294838f4cc4beb053345248d96b58eb914cebaaa119828e4d4c5250e01fe1447c9a8d8142cab0be5d3a5c46d76556e59f42e5a4af178c8043425c5eee11ef4a7e988f8340c8b2bc5f385e44d56754e79d40e7a6ad158e8241405e5cec13ed48789e898546ceb4ba593e5842d36152e19b46e1a0ab1388844746585aea15eb4e7a9c8b8744ccb6b85b3c5a40d16350e39944e3a2a9118a8645445a58e817e94c749285894ac2b8b65532544edf6d5eed974aedaca71f84884b4a5456e619e7427690878b48c0bab45730564cdd6f5cef9548efaea51d868a49485654e41be5407096818d4ec6bcb25136504adb695ae9934ee9a8a31b808c4f4e5052e21de3467294838f4cc4beb053345248d96b58eb914cebaaa119828e4d4c5250e01fe1447c9a8d8142cab0be5d3a5c46d76556e59f42e5a4af178c8043425c5eee11ef4a7e988f8340c8b2bc5f385e44d56754e79d40e7a6ad158e8241405e5cec13ed48789e898546ceb4ba593e5842d36152e19b46e1a0ab1388844746585aea15eb4e7a9c8b8744ccb6b85b3c5a40d16350e39944e3a2a9118a8645445a58e817e94c749285894ac2b8b65532544edf6d5eed974aedaca71f84884b4a5456e619e7427690878b48c0bab45730564cdd6f5cef9548efaea51d868a49485654e41be5407096818d4ec6bcb25136504adb695ae9934ee9a8a31b808c4f4e5052e21de3467294838f4cc4beb053345248d96b58eb914cebaaa119828e4d4c5250e01fe1447c9a8d8142cab0be5d3a5c46d76556e59f42e5a4af178c8043425c5eee11ef4a7e988f8340c8b2bc5f385e44d56754e79d40e7a6ad158e8241405e5cec13ed48789e898546ceb4ba593e5842d36152e19b46e1a0ab1388844746585aea15eb4e7a9c8b8744ccb6b85b3c5a40d16350e39944e3a2a9118a8645445a58e817e94c749285894ac2b8b65532544edf6d5eed974aedaca71f84884b4a5456e619e7427690878b48c0bab45730564cdd6f5cef9548efaea51d868a49485654e41be5407096818d4ec6bcb25136504adb695ae9934ee9a8a31b808c4f4e5052e21de3467294838f4cc4beb053345248d96b58eb914cebaaa119828e4d4c5250e01fe1447c9a8d8142cab0be5d3a5c46d76556e595154fc0d329a86ec2a591996a4ecd271db150be2081fc9035a915442a94af8fa",
        "hex": "6a20f646d41ecf2b2eb1a016e767b7f390588505bfc92a9980efd891f53b4f04701f4db00449285894ac2b8b65532544edf6d5eed974aedaca71f84884b4a5456e619e7427690878b48c0bab45730564cdd6f5cef9548efaea51d868a49485654e41be5407096818d4ec6bcb25136504adb695ae9934ee9a8a31b808c4f4e5052e21de3467294838f4cc4beb053345248d96b58eb914cebaaa119828e4d4c5250e01fe1447c9a8d8142cab0be5d3a5c46d76556e59f42e5a4af178c8043425c5eee11ef4a7e988f8340c8b2bc5f385e44d56754e79d40e7a6ad158e8241405e5cec13ed48789e898546ceb4ba593e5842d36152e19b46e1a0ab1388844746585aea15eb4e7a9c8b8744ccb6b85b3c5a40d16350e39944e3a2a9118a8645445a58e817e94c749285894ac2b8b65532544edf6d5eed974aedaca71f84884b4a5456e619e7427690878b48c0bab45730564cdd6f5cef9548efaea51d868a49485654e41be5407096818d4ec6bcb25136504adb695ae9934ee9a8a31b808c4f4e5052e21de3467294838f4cc4beb053345248d96b58eb914cebaaa119828e4d4c5250e01fe1447c9a8d8142cab0be5d3a5c46d76556e59f42e5a4af178c8043425c5eee11ef4a7e988f8340c8b2bc5f385e44d56754e79d40e7a6ad158e8241405e5cec13ed48789e898546ceb4ba593e5842d36152e19b46e1a0ab1388844746585aea15eb4e7a9c8b8744ccb6b85b3c5a40d16350e39944e3a2a9118a8645445a58e817e94c749285894ac2b8b65532544edf6d5eed974aedaca71f84884b4a5456e619e7427690878b48c0bab45730564cdd6f5cef9548efaea51d868a49485654e41be5407096818d4ec6bcb25136504adb695ae9934ee9a8a31b808c4f4e5052e21de3467294838f4cc4beb053345248d96b58eb914cebaaa119828e4d4c5250e01fe1447c9a8d8142cab0be5d3a5c46d76556e59f42e5a4af178c8043425c5eee11ef4a7e988f8340c8b2bc5f385e44d56754e79d40e7a6ad158e8241405e5cec13ed48789e898546ceb4ba593e5842d36152e19b46e1a0ab1388844746585aea15eb4e7a9c8b8744ccb6b85b3c5a40d16350e39944e3a2a9118a8645445a58e817e94c749285894ac2b8b65532544edf6d5eed974aedaca71f84884b4a5456e619e7427690878b48c0bab45730564cdd6f5cef9548efaea51d868a49485654e41be5407096818d4ec6bcb25136504adb695ae9934ee9a8a31b808c4f4e5052e21de3467294838f4cc4beb053345248d96b58eb914cebaaa119828e4d4c5250e01fe1447c9a8d8142cab0be5d3a5c46d76556e59f42e5a4af178c8043425c5eee11ef4a7e988f8340c8b2bc5f385e44d56754e79d40e7a6ad158e8241405e5cec13ed48789e898546ceb4ba593e5842d36152e19b46e1a0ab1388844746585aea15eb4e7a9c8b8744ccb6b85b3c5a40d16350e39944e3a2a9118a8645445a58e817e94c749285894ac2b8b65532544edf6d5eed974aedaca71f84884b4a5456e619e7427690878b48c0bab45730564cdd6f5cef9548efaea51d868a49485654e41be5407096818d4ec6bcb25136504adb695ae9934ee9a8a31b808c4f4e5052e21de3467294838f4cc4beb053345248d96b58eb914cebaaa119828e4d4c5250e01fe1447c9a8d8142cab0be5d3a5c46d76556e595154fc0d329a86ec2a591996a4ecd271db150be2081fc9035a915442a94af8fa",
        "type": "nulldata"
      }
    }
  ],
  "blockhash": "2622e54cefe9d3081f6ac04e4c67f268d7c1e3313b2268ffede4439aafe1acd1",
  "confirmations": 1,
  "time": 1764177922,
  "blocktime": 1764177922
}