{
  "hex": "010000000001016d2f723510bbee9aafe08dfe9397d9b6fa33159ea30934a2c93ff037282f522d0000000000feffffff0200e1f50500000000fdd5046a20ae10502f9eea8e89d135307051e075b6948e6a6cd59d4de1b40a094ec4c470934db00434698487dbee828a0b9ad16567991695cd91808c55baaa58e205940e835ceac81449a4a7fbcea2aa2bbaf14547b936b5edb1a0ac759a8a78c225b42ea37ccae87429c4c79baec2ca4bda912527d956d58dd1c0cc15faea18a245d44ec31caa885409e4e7bb8ee2ea6bfab10507f976f5adf1e0ec35daca388265f46ee33c8aa8b4e904075b6e020a8b1a51e5e71996154d11000cd53a2ad86285148e03dc6a4894c924277b4e222aab3a71c5c739b6356d31202cf51a0af842a534ae23fc4a68f4a944471b2e424acb5a11a5a759d6550d51404c957a6a9822c554ce439c2a08d48964673b0e626aeb7a31858779f6752d71606cb55a4ab802e574ee63bc0a2834698487dbee828a0b9ad16567991695cd91808c55baaa58e205940e835ceac81449a4a7fbcea2aa2bbaf14547b936b5edb1a0ac759a8a78c225b42ea37ccae87429c4c79baec2ca4bda912527d956d58dd1c0cc15faea18a245d44ec31caa885409e4e7bb8ee2ea6bfab10507f976f5adf1e0ec35daca388265f46ee33c8aa8b4e904075b6e020a8b1a51e5e71996154d11000cd53a2ad86285148e03dc6a4894c924277b4e222aab3a71c5c739b6356d31202cf51a0af842a534ae23fc4a68f4a944471b2e424acb5a11a5a759d6550d51404c957a6a9822c554ce439c2a08d48964673b0e626aeb7a31858779f6752d71606cb55a4ab802e574ee63bc0a2834698487dbee828a0b9ad16567991695cd91808c55baaa58e205940e835ceac81449a4a7fbcea2aa2bbaf14547b936b5edb1a0ac759a8a78c225b42ea37ccae87429c4c79baec2ca4bda912527d956d58dd1c0cc15faea18a245d44ec31caa885409e4e7bb8ee2ea6bfab10507f976f5adf1e0ec35daca388265f46ee33c8aa8b4e904075b6e020a8b1a51e5e71996154d11000cd53a2ad86285148e03dc6a4894c924277b4e222aab3a71c5c739b6356d31202cf51a0af842a534ae23fc4a68f4a944471b2e424acb5a11a5a759d6550d51404c957a6a9822c554ce439c2a08d48964673b0e626aeb7a31858779f6752d71606cb55a4ab802e574ee63bc0a2834698487dbee828a0b9ad16567991695cd91808c55baaa58e205940e835ceac81449a4a7fbcea2aa2bbaf14547b936b5edb1a0ac759a8a78c225b42ea37ccae87429c4c79baec2ca4bda912527d956d58dd1c0cc15faea18a245d44ec31caa885409e4e7bb8ee2ea6bfab10507f976f5adf1e0ec35daca388265f46ee33c8aa8b4e904075b6e020a8b1a51e5e71996154d11000cd53a2ad86285148e03dc6a4894c924277b4e222aab3a71c5c739b6356d31202cf51a0af842a534ae23fc4a68f4a944471b2e424acb5a11a5a759d6550d51404c957a6a9822c554ce439c2a08d48964673b0e626aeb7a31858779f6752d71606cb55a4ab802e574ee63bc0a2834698487dbee828a0b9ad16567991695cd91808c55baaa58e205940e835ceac81449a4a7fbcea2aa2bbaf14547b936b5edb1a0ac759a8a78c225b42ea37ccae87429c4c79baec2ca4bda912527d956d58dd1c0cc15faea18a245d44ec31caa885409e4e7bb8ee2ea6bfab10507f976f5adf1e0ec35daca388265f46ee33c8aa8b4e904075b6e020a8b1a51e5e7199615cb8810b396688a130fa6fe39b22c8918dbbfdbc50a22ce1111ae996124a3df15f020b051792d0000225120f5c7807fce5d9ce2ca9935daf0db08b339db244bb72a497758c7832dc2e9ff6102fd7509f95a8ff844955fbc8d4217b3eb31c0385d015a55f225e25742b55577df7422559379323703f5c90adef6dc95262f0ab4f3cca7f1cb26560d628ccc5e026b2fc61d4f2c973344e8beaacb232b5c46e602ca47e8c9671313b54c61faed83ae30a2a8177c8b0e0d717df512d5b46519b062fb2ecb571e98100e25618d1955c1eb4d692bc4afc1c7b037a3280e24328770682e12a0c1e119aa68095351643b22ec34e7d2475093757cc9cc86984738e15da95b1d7d8b738f2f472029755737bcc9080fbbf1ca0082792173d24079fd3dae91ab1926e7c29decb5c7d8878ddcdb403d6448019d33bbdde6c2ed6c1379088135f7bf7dfc0cac858018a868d864f12440d2da0f2eeaf8b42a9c3c47f55c6415905f47c26a75b2a7f0fcf41de700a84bb30660460c1dc06b824056c8ea6b299911b59737888dc0ad17d759b9396949aa389eb96add103cedd28834b67703fcc388b737b7b46a2898718eae68caee4f2bd5d93723e000d1fb0fb0400e117185bdfb290fe9b17b8534e26093ea88ae6be0b62ab72396c8b36d48ea9c6dfccb4822078cbe12cc9faee69869a4ee2ea4a13ba73f5e95fd8dd23d4c40188b6ea630fe8474f973535c97c643683710b4f6fb63c2c732e1ba35b67cf25e57c75f16c9baba1b7336d0a1ef1b5885dbb3593ef0225704c7ab1cb012fa3176d00a5b8c4dcacfbbff2c23a5fcb93348af7028abf4b7f692e302624935ed021a65dd5645515741f0c2832c0c326c4aa2daab2bafbfd5290a66908dbf4f84d42d92d8556689233cf4d4b235f2d2bb549832fa7817ebfd06c3c74f292518ab8a579b998cbbc5db8f01944381afe3204eeff228ab06b32bd6b0e497bb96dc12ead2fcfac849edd504be91b2f67b39cb9b90ad1d6efcd6120e78e2f7d86e0bda88b35c35e4a91c85fd9012f0d91a4514fd1cc5d6bea1b53858454d25c066ba7c3281040261202b9179b988401c2758baf9aec74e8dc3ec109e1a6d6fe146ca73011d0a8424f0d6492d0de853b2854edd54ea51c64d7d07aef8a495727f4d475ec6281b4847cc1b51f714a6d4e462c21ed5260a6fefb53bab0e5a48f788dfa729320949b6ed7e89ff984a7526f816519c5da5a704761a5c9df18b19c2b49fe6bfb0f88a4bbf994154390b7969069338892db397b11dcd5e80dcafda5da0b810dc3b3982d7249a8506ca5bf7d5078cac8fc017a5e50ca6a39014f00b89e28aa59b989717d0a6e8c2a471d0223225708af2ba19e4593025f7ac6bd27187dec218e897897f3ae98fe78cccf3838b5fe43d777563860c7bd210027094459a7d005d61322dd777c2dbfd09d628498839c87a8daae4a25909495dd0f59bf1534565b41e23a804737131bec0154f10381da6bd9f66a324305f69d290504b3b23b9f5eef02bc7cb5c563709122c5bc3f29ed86408171b880b2e5f0002ef0d4fca2bce748fa06eac4c09e4f146931688968c950c727fa5e6329b380e50d046b33cea71fe8d6e2042b15e1d08ca23c977607c7f5e6a3a347dba064d1adc35acf16054ce696eaca6eaf874acf396acf4348600051d8bdfa556f76ff2ea65990252144fbdc57777fd098e69395e2efa344283e281873793ba79c3daf48a32653f360025fcbde92ce09750321df5543d56b02276f682e474d54d36b35fe507841cd02d53912fdf8b5f7dca9b3c86fab1007abe39dc71a67614c70c8ed179d14fdf5990b6ccac61f8805d132034a0b63a2a5aaa0300d00b9851d844e4ede03f2b827253f4ce4ac562f04f7e28eb0e15f5568904b399dfe0b6962502c3544dcf917272a92c3004f7b8f8b6ff411c310d6a52d746b02a0bdaf0186362c6d318ac5a06f10614954b7b89efe399d03b5da0a30d0fb5caaf66223493c9ba933804ab2de45190097715b4afb2397075210fc1f72e2c6b908dfde42f171ba2d16e9be9dc9341cdcba23b108caad6f26b397a21cc73c58db34b82cf9e019580a26705672cfa6262fa825bef6298146b12cd645850da86919362195fcadb9da6f9d151936b4ba221e1f2a439646eb88dfaa98540c2501b00d75545b5c3a10d4c68476c7819c9b4c44c0b77bfdfb2dbb345d6d53c9415cfb8bbb7350d57a4b4f7bc4baa7c5a83731da44af5d7a8c15abad5b94533175c7fbf18ad28ea1c889838db1c914888b60504951730c06208ae0684a806ad71523a61b15e9ba5b2f17cd15453effbbf473cd1eb7af98472450dd76436de509625060d7a232d1c6218674dfe8a3f9e8c3f6e793dc4fac742caccc8a536634a86d91baa091ae184214fa8f972a59a1912bd15b9fbd1eb35dc87244850eeea39294f1d541aad08945b0485d5964b4df7c11e80d5ef1c15efcda023f63a872c90c093c407a5ad36db91abd55beac1b832d27917068d11c661168f978ff3f0682aa8027aab0d03737fe2edbe48dd6c877ed4e257c0a9759c59eeb469f815caf5e65ecc1b38771cd046339366f66c3bcaf7f5e35ca33c86ef12fa81ab6a58cce1ae376633e677e7c2510d74282aeb3c5d8fe8d4686565371eb989902a5c15729740a3a2362de11ee8c7e973af5f22a7caffa6f9764111b12e1bd7e35556c2c44e4cc87df02360f3f7eaf6ff05d1ec6c7e8e2c4642ed1717c6f217350a27cff7ce2a710c4be85445da8d11e30a988f95cbdb3878c95fe2537a075ae03f3b90b423bdf227099db2b29a77774b999d6581fc65055ccd70f8be551bdc32bda1c778a51ade5418b9a91994989a2e3faa81c1bf56c7d59e8a7df9cb41cbd7b7de9c82397c61d6a4f43c3d95c0b8b7c8d53857ca80bee7b9a473c2bd0947dfbff9df9d42303dc078d8afe868c696a34b33714bc8f2c5e77867ffe63a837f5ecd66a641a00c0b30fd4a11039d226e14448a2d0fbd5dd63e593e18f1cab5379ececd73fba38e97e2e72fd7317eb34e933ac9c3ec9f549365b023c8aeb6099214ff9b04b4679a5049fde3fdb93f83857a9c42f56744155a4a9b6bb505d725abf2873d9b038cf1f4e75b8a0cbfe7db7d5c79305c2e7fac2200a1894fcd413b02390eb31d2509a8a50759a7060c8e50a84a70e783e5347b8017685860a03bcdced09b29dafe216ad7fa574e6ed12f1da63f77352f9672907437b346303c3668665e4cd9f3179193cb1ec93d4639c155b3232cac3ca57a791625a65bc1d54c71f939d530d6c55c605250f06035e67bf796054352e0330f3d7d0afd2a1af942ceb803e8b27a0a368fbb957e3e46559cdbb74458c5cd91bcb0a60c9ae5e9145bae3ae76bcde207ea3fd6aba6e701b20739c1f475897b573aec1e3d5a6576828ea0afd5e3eef30f1f223f55828ac8ced5f2f6fa2e637a8a91a0afddfa0b122a2e3b3c5d84d4000000000000000000000000000000000000000000000000000000000000000000000000000c19222b01fd2105004529872d723403ff4ed69021926f5d201fd467248f9fefcb7db403d260150ab852e3cbbaefcf998c11414b7bf81c069caf2c8f26230578abaecb728a0d7ac561e212f567b836aa0593064a9cb082de395b1f04042d688829ad550c0a0f07a00fbd3aec2f6d4d3a422b6d00be9d452e397d93b133040bfdbbbd5a0027c8c5ce7efe5e6efd4a604535a0bd727a983dad489fff3576c03def04959e9548b8c0152fcf93a69e2bb0042e1a973fb68822e126529793278df719b6c88cb1900148d07cae0aa94e2e33f3abc940efdf5c6f2895302bd91ff06e66ded694de7f4c6f2ca42d9484d4fe8c34ac5ddde57ef0e432843491d224f9a586d5f5f57c5b5e8c2f56e9cdf34bcf01cf3fdd7bdd4db554f30ecd6cae44b3e9fc19558f34edfc26578e1e88a83ae6c9b42e1cb5002eea61212ebadcd787ca06241e24b656912aeb2a16f15a1b66b768048450576ac9ac1bca4da7e65b74274f533645a1705769aca3045933c35ce54e410a8984708f65b4c9f7b9fb5983bb666cb0b2c427a7f1def55564b780470d8b4f25684cf1fc4acf2a1cf59a02dff0cc248cc0d1bbd02f6b05c527dacebecfc4fcdf08e70de104f0b97ccdc65fa4e3b8d56bfdd709321c6adda18004c747e3244324c307f61c346b27325dabaac11df7278df9446f67cc2bb538301fc99c07b95ca9edd7df0718b4719478c77f91178d8e76e5a1483c717119dc6e95612ea8fb0acdbca8a5b0508e128f9098c3058104d1104d203d18f9d28757ab85712acd72664fe7ad47c532474bd81c76a4f938c47c8f25ac1ad5263211e9c6ecedb7e18e675deb16b9f91344ea25a0757530b4d2c8a2060c671c6fae7e2f939b0fcbeb9ee1ca4a1c274e3676c682bef94a4fe52a2ee98d3c61aed369a94656601c8aa3d3d846ae7fb30a287fb53122d84771c8d5246308b63edf52c68f9b999cf5e8a4da6829f5f84f2b790b44e3f69c9e7473116a564386abb327c21df5401e9cf9a33cc71ece1bf182967586600119df1503199a005eb59efb2765fd85c9de5062dc21e398a97384ded739fc0467f15c01cf562bd4ec6696210eabc074693571ad5cccca8d2036aa590eb503682e6d4dbe2ab35a57deade1e671b2d6776d8ff17104e9890c12de13711df0e73290aadb82116607db190e28fcd1367ffdbba71dbaa142ee2de538f04d49f3fddfe7e50ea33af10ae33f636a576d2e7389cef94779058be5cbf1980882612e92fa43ddd2962864d8b9d24ee8cc6d0627901861672408692d979d14393174db0b4ddc1ecd090db84ee11b40fec89ee16a63c2bc4adf4f0de4d2ca8ec1103195258ce14b096a0b37b128118d7fdff0c0cad8913b97957ee8175d182a76d26836ba5c4e17fd4058080f7ec11e0d7ee55de424dc82859d8eb60dd07b811039c3b7267cd202c1406c9f72575bc632724c8f0f6f07b8ec3f5a86d9507d0ce9c889a0995d2b6d9e784eb22916042536f21e9efcb9fcfc66628c3d744430352c88c6e76ecbc2fed833befcd9dcd506600165c88890f1bf5d3e4fac7ac29e3f00c2183e1800eb23ca69c851708ee6dbc4a283f879cc64ba04f890ca401d1077d827517b86bcb2d70683de0f3846fbaf1e36be06161205e196cc2b5550f726149ab1d99dccebb2623b27decfafe1919c70a2ee7fdffb912287e01cada713325da805ee69c6fa525aeb57f83a6218dc09695d8481fc8c8e3ffe5086d814af8dd59aa9c2c3ae1bf8f94d36016c2d38d6cf31e49319208b8a4bff77e3114e0a89a0b271ec5f31f8fd9cf613a3055666efcd49a5f6854e7f90c5c61573b4102459bbfd7949298849c023ca915ed01e1c2c97ece981e401196b000000",
  "txid": "7f24f4a322cc6d0cd8e0c14190673be14a497873172b48a944cbe67c04d062fe",
  "hash": "86d45cd296d3902f8fde1bb9c9dcc7dcc54c360ca092671d5fda19cae695846c",
  "size": 5085,
  "vsize": 2278,
  "version": 1,
  "locktime": 107,
  "vin": [
    {
      "txid": "2d522f2837f03fc9a23409a39e1533fab6d99793fe8de0af9aeebb1035722f6d",
      "vout": 0,
      "scriptSig": {
        "asm": "",
        "hex": ""
      },
      "txinwitness": [
        "f95a8ff844955fbc8d4217b3eb31c0385d015a55f225e25742b55577df7422559379323703f5c90adef6dc95262f0ab4f3cca7f1cb26560d628ccc5e026b2fc61d4f2c973344e8beaacb232b5c46e602ca47e8c9671313b54c61faed83ae30a2a8177c8b0e0d717df512d5b46519b062fb2ecb571e98100e25618d1955c1eb4d692bc4afc1c7b037a3280e24328770682e12a0c1e119aa68095351643b22ec34e7d2475093757cc9cc86984738e15da95b1d7d8b738f2f472029755737bcc9080fbbf1ca0082792173d24079fd3dae91ab1926e7c29decb5c7d8878ddcdb403d6448019d33bbdde6c2ed6c1379088135f7bf7dfc0cac858018a868d864f12440d2da0f2eeaf8b42a9c3c47f55c6415905f47c26a75b2a7f0fcf41de700a84bb30660460c1dc06b824056c8ea6b299911b59737888dc0ad17d759b9396949aa389eb96add103cedd28834b67703fcc388b737b7b46a2898718eae68caee4f2bd5d93723e000d1fb0fb0400e117185bdfb290fe9b17b8534e26093ea88ae6be0b62ab72396c8b36d48ea9c6dfccb4822078cbe12cc9faee69869a4ee2ea4a13ba73f5e95fd8dd23d4c40188b6ea630fe8474f973535c97c643683710b4f6fb63c2c732e1ba35b67cf25e57c75f16c9baba1b7336d0a1ef1b5885dbb3593ef0225704c7ab1cb012fa3176d00a5b8c4dcacfbbff2c23a5fcb93348af7028abf4b7f692e302624935ed021a65dd5645515741f0c2832c0c326c4aa2daab2bafbfd5290a66908dbf4f84d42d92d8556689233cf4d4b235f2d2bb549832fa7817ebfd06c3c74f292518ab8a579b998cbbc5db8f01944381afe3204eeff228ab06b32bd6b0e497bb96dc12ead2fcfac849edd504be91b2f67b39cb9b90ad1d6efcd6120e78e2f7d86e0bda88b35c35e4a91c85fd9012f0d91a4514fd1cc5d6bea1b53858454d25c066ba7c3281040261202b9179b988401c2758baf9aec74e8dc3ec109e1a6d6fe146ca73011d0a8424f0d6492d0de853b2854edd54ea51c64d7d07aef8a495727f4d475ec6281b4847cc1b51f714a6d4e462c21ed5260a6fefb53bab0e5a48f788dfa729320949b6ed7e89ff984a7526f816519c5da5a704761a5c9df18b19c2b49fe6bfb0f88a4bbf994154390b7969069338892db397b11dcd5e80dcafda5da0b810dc3b3982d7249a8506ca5bf7d5078cac8fc017a5e50ca6a39014f00b89e28aa59b989717d0a6e8c2a471d0223225708af2ba19e4593025f7ac6bd27187dec218e897897f3ae98fe78cccf3838b5fe43d777563860c7bd210027094459a7d005d61322dd777c2dbfd09d628498839c87a8daae4a25909495dd0f59bf1534565b41e23a804737131bec0154f10381da6bd9f66a324305f69d290504b3b23b9f5eef02bc7cb5c563709122c5bc3f29ed86408171b880b2e5f0002ef0d4fca2bce748fa06eac4c09e4f146931688968c950c727fa5e6329b380e50d046b33cea71fe8d6e2042b15e1d08ca23c977607c7f5e6a3a347dba064d1adc35acf16054ce696eaca6eaf874acf396acf4348600051d8bdfa556f76ff2ea65990252144fbdc57777fd098e69395e2efa344283e281873793ba79c3daf48a32653f360025fcbde92ce09750321df5543d56b02276f682e474d54d36b35fe507841cd02d53912fdf8b5f7dca9b3c86fab1007abe39dc71a67614c70c8ed179d14fdf5990b6ccac61f8805d132034a0b63a2a5aaa0300d00b9851d844e4ede03f2b827253f4ce4ac562f04f7e28eb0e15f5568904b399dfe0b6962502c3544dcf917272a92c3004f7b8f8b6ff411c310d6a52d746b02a0bdaf0186362c6d318ac5a06f10614954b7b89efe399d03b5da0a30d0fb5caaf66223493c9ba933804ab2de45190097715b4afb2397075210fc1f72e2c6b908dfde42f171ba2d16e9be9dc9341cdcba23b108caad6f26b397a21cc73c58db34b82cf9e019580a26705672cfa6262fa825bef6298146b12cd645850da86919362195fcadb9da6f9d151936b4ba221e1f2a439646eb88dfaa98540c2501b00d75545b5c3a10d4c68476c7819c9b4c44c0b77bfdfb2dbb345d6d53c9415cfb8bbb7350d57a4b4f7bc4baa7c5a83731da44af5d7a8c15abad5b94533175c7fbf18ad28ea1c889838db1c914888b60504951730c06208ae0684a806ad71523a61b15e9ba5b2f17cd15453effbbf473cd1eb7af98472450dd76436de509625060d7a232d1c6218674dfe8a3f9e8c3f6e793dc4fac742caccc8a536634a86d91baa091ae184214fa8f972a59a1912bd15b9fbd1eb35dc87244850eeea39294f1d541aad08945b0485d5964b4df7c11e80d5ef1c15efcda023f63a872c90c093c407a5ad36db91abd55beac1b832d27917068d11c661168f978ff3f0682aa8027aab0d03737fe2edbe48dd6c877ed4e257c0a9759c59eeb469f815caf5e65ecc1b38771cd046339366f66c3bcaf7f5e35ca33c86ef12fa81ab6a58cce1ae376633e677e7c2510d74282aeb3c5d8fe8d4686565371eb989902a5c15729740a3a2362de11ee8c7e973af5f22a7caffa6f9764111b12e1bd7e35556c2c44e4cc87df02360f3f7eaf6ff05d1ec6c7e8e2c4642ed1717c6f217350a27cff7ce2a710c4be85445da8d11e30a988f95cbdb3878c95fe2537a075ae03f3b90b423bdf227099db2b29a77774b999d6581fc65055ccd70f8be551bdc32bda1c778a51ade5418b9a91994989a2e3faa81c1bf56c7d59e8a7df9cb41cbd7b7de9c82397c61d6a4f43c3d95c0b8b7c8d53857ca80bee7b9a473c2bd0947dfbff9df9d42303dc078d8afe868c696a34b33714bc8f2c5e77867ffe63a837f5ecd66a641a00c0b30fd4a11039d226e14448a2d0fbd5dd63e593e18f1cab5379ececd73fba38e97e2e72fd7317eb34e933ac9c3ec9f549365b023c8aeb6099214ff9b04b4679a5049fde3fdb93f83857a9c42f56744155a4a9b6bb505d725abf2873d9b038cf1f4e75b8a0cbfe7db7d5c79305c2e7fac2200a1894fcd413b02390eb31d2509a8a50759a7060c8e50a84a70e783e5347b8017685860a03bcdced09b29dafe216ad7fa574e6ed12f1da63f77352f9672907437b346303c3668665e4cd9f3179193cb1ec93d4639c155b3232cac3ca57a791625a65bc1d54c71f939d530d6c55c605250f06035e67bf796054352e0330f3d7d0afd2a1af942ceb803e8b27a0a368fbb957e3e46559cdbb74458c5cd91bcb0a60c9ae5e9145bae3ae76bcde207ea3fd6aba6e701b20739c1f475897b573aec1e3d5a6576828ea0afd5e3eef30f1f223f55828ac8ced5f2f6fa2e637a8a91a0afddfa0b122a2e3b3c5d84d4000000000000000000000000000000000000000000000000000000000000000000000000000c19222b01",
        "004529872d723403ff4ed69021926f5d201fd467248f9fefcb7db403d260150ab852e3cbbaefcf998c11414b7bf81c069caf2c8f26230578abaecb728a0d7ac561e212f567b836aa0593064a9cb082de395b1f04042d688829ad550c0a0f07a00fbd3aec2f6d4d3a422b6d00be9d452e397d93b133040bfdbbbd5a0027c8c5ce7efe5e6efd4a604535a0bd727a983dad489fff3576c03def04959e9548b8c0152fcf93a69e2bb0042e1a973fb68822e126529793278df719b6c88cb1900148d07cae0aa94e2e33f3abc940efdf5c6f2895302bd91ff06e66ded694de7f4c6f2ca42d9484d4fe8c34ac5ddde57ef0e432843491d224f9a586d5f5f57c5b5e8c2f56e9cdf34bcf01cf3fdd7bdd4db554f30ecd6cae44b3e9fc19558f34edfc26578e1e88a83ae6c9b42e1cb5002eea61212ebadcd787ca06241e24b656912aeb2a16f15a1b66b768048450576ac9ac1bca4da7e65b74274f533645a1705769aca3045933c35ce54e410a8984708f65b4c9f7b9fb5983bb666cb0b2c427a7f1def55564b780470d8b4f25684cf1fc4acf2a1cf59a02dff0cc248cc0d1bbd02f6b05c527dacebecfc4fcdf08e70de104f0b97ccdc65fa4e3b8d56bfdd709321c6adda18004c747e3244324c307f61c346b27325dabaac11df7278df9446f67cc2bb538301fc99c07b95ca9edd7df0718b4719478c77f91178d8e76e5a1483c717119dc6e95612ea8fb0acdbca8a5b0508e128f9098c3058104d1104d203d18f9d28757ab85712acd72664fe7ad47c532474bd81c76a4f938c47c8f25ac1ad5263211e9c6ecedb7e18e675deb16b9f91344ea25a0757530b4d2c8a2060c671c6fae7e2f939b0fcbeb9ee1ca4a1c274e3676c682bef94a4fe52a2ee98d3c61aed369a94656601c8aa3d3d846ae7fb30a287fb53122d84771c8d5246308b63edf52c68f9b999cf5e8a4da6829f5f84f2b790b44e3f69c9e7473116a564386abb327c21df5401e9cf9a33cc71ece1bf182967586600119df1503199a005eb59efb2765fd85c9de5062dc21e398a97384ded739fc0467f15c01cf562bd4ec6696210eabc074693571ad5cccca8d2036aa590eb503682e6d4dbe2ab35a57deade1e671b2d6776d8ff17104e9890c12de13711df0e73290aadb82116607db190e28fcd1367ffdbba71dbaa142ee2de538f04d49f3fddfe7e50ea33af10ae33f636a576d2e7389cef94779058be5cbf1980882612e92fa43ddd2962864d8b9d24ee8cc6d0627901861672408692d979d14393174db0b4ddc1ecd090db84ee11b40fec89ee16a63c2bc4adf4f0de4d2ca8ec1103195258ce14b096a0b37b128118d7fdff0c0cad8913b97957ee8175d182a76d26836ba5c4e17fd4058080f7ec11e0d7ee55de424dc82859d8eb60dd07b811039c3b7267cd202c1406c9f72575bc632724c8f0f6f07b8ec3f5a86d9507d0ce9c889a0995d2b6d9e784eb22916042536f21e9efcb9fcfc66628c3d744430352c88c6e76ecbc2fed833befcd9dcd506600165c88890f1bf5d3e4fac7ac29e3f00c2183e1800eb23ca69c851708ee6dbc4a283f879cc64ba04f890ca401d1077d827517b86bcb2d70683de0f3846fbaf1e36be06161205e196cc2b5550f726149ab1d99dccebb2623b27decfafe1919c70a2ee7fdffb912287e01cada713325da805ee69c6fa525aeb57f83a6218dc09695d8481fc8c8e3ffe5086d814af8dd59aa9c2c3ae1bf8f94d36016c2d38d6cf31e49319208b8a4bff77e3114e0a89a0b271ec5f31f8fd9cf613a3055666efcd49a5f6854e7f90c5c61573b4102459bbfd7949298849c023ca915ed01e1c2c97ece981e40119"
      ],
      "sequence": 4294967294
    }
  ],
  "vout": [
    {
      "value": 1.0,
      "n": 0,
      "scriptPubKey": {
        "asm": "OP_RETURN ae10502f9eea8e89d135307051e075b6948e6a6cd59d4de1b40a094ec4c47093 34698487dbee828a0b9ad16567991695cd91808c55baaa58e205940e835ceac81449a4a7fbcea2aa2bbaf14547b936b5edb1a0ac759a8a78c225b42ea37ccae87429c4c79baec2ca4bda912527d956d58dd1c0cc15faea18a245d44ec31caa885409e4e7bb8ee2ea6bfab10507f976f5adf1e0ec35daca388265f46ee33c8aa8b4e904075b6e020a8b1a51e5e71996154d11000cd53a2ad86285148e03dc6a4894c924277b4e222aab3a71c5c739b6356d31202cf51a0af842a534ae23fc4a68f4a944471b2e424acb5a11a5a759d6550d51404c957a6a9822c554ce439c2a08d48964673b0e626aeb7a31858779f6752d71606cb55a4ab802e574ee63bc0a2834698487dbee828a0b9ad16567991695cd91808c55baaa58e205940e835ceac81449a4a7fbcea2aa2bbaf14547b936b5edb1a0ac759a8a78c225b42ea37ccae87429c4c79baec2ca4bda912527d956d58dd1c0cc15faea18a245d44ec31caa885409e4e7bb8ee2ea6bfab10507f976f5adf1e0ec35daca388265f46ee33c8aa8b4e904075b6e020a8b1a51e5e71996154d11000cd53a2ad86285148e03dc6a4894c924277b4e222aab3a71c5c739b6356d31202cf51a0af842a534ae23fc4a68f4a944471b2e424acb5a11a5a759d6550d51404c957a6a9822c554ce439c2a08d48964673b0e626aeb7a31858779f6752d71606cb55a4ab802e574ee63bc0a2834698487dbee828a0b9ad16567991695cd91808c55baaa58e205940e835ceac81449a4a7fbcea2aa2bbaf14547b936b5edb1a0ac759a8a78c225b42ea37ccae87429c4c79baec2ca4bda912527d956d58dd1c0cc15faea18a245d44ec31caa885409e4e7bb8ee2ea6bfab10507f976f5adf1e0ec35daca388265f46ee33c8aa8b4e904075b6e020a8b1a51e5e71996154d11000cd53a2ad86285148e03dc6a4894c924277b4e222aab3a71c5c739b6356d31202cf51a0af842a534ae23fc4a68f4a944471b2e424acb5a11a5a759d6550d51404c957a6a9822c554ce439c2a08d48964673b0e626aeb7a31858779f6752d71606cb55a4ab802e574ee63bc0a2834698487dbee828a0b9ad16567991695cd91808c55baaa58e205940e835ceac81449a4a7fbcea2aa2bbaf14547b936b5edb1a0ac759a8a78c225b42ea37ccae87429c4c79baec2ca4bda912527d956d58dd1c0cc15faea18a245d44ec31caa885409e4e7bb8ee2ea6bfab10507f976f5adf1e0ec35daca388265f46ee33c8aa8b4e904075b6e020a8b1a51e5e71996154d11000cd53a2ad86285148e03dc6a4894c924277b4e222aab3a71c5c739b6356d31202cf51a0af842a534ae23fc4a68f4a944471b2e424acb5a11a5a759d6550d51404c957a6a9822c554ce439c2a08d48964673b0e626aeb7a31858779f6752d71606cb55a4ab802e574ee63bc0a2834698487dbee828a0b9ad16567991695cd91808c55baaa58e205940e835ceac81449a4a7fbcea2aa2bbaf14547b936b5edb1a0ac759a8a78c225b42ea37ccae87429c4c79baec2ca4bda912527d956d58dd1c0cc15faea18a245d44ec31caa885409e4e7bb8ee2ea6bfab10507f976f5adf1e0ec35daca388265f46ee33c8aa8b4e904075b6e020a8b1a51e5e7199615cb8810b396688a130fa6fe39b22c8918dbbfdbc50a22ce1111ae996124a3df15",
        "hex": "6a20ae10502f9eea8e89d135307051e075b6948e6a6cd59d4de1b40a094ec4c470934db00434698487dbee828a0b9ad16567991695cd91808c55baaa58e205940e835ceac81449a4a7fbcea2aa2bbaf14547b936b5edb1a0ac759a8a78c225b42ea37ccae87429c4c79baec2ca4bda912527d956d58dd1c0cc15faea18a245d44ec31caa885409e4e7bb8ee2ea6bfab10507f976f5adf1e0ec35daca388265f46ee33c8aa8b4e904075b6e020a8b1a51e5e71996154d11000cd53a2ad86285148e03dc6a4894c924277b4e222aab3a71c5c739b6356d31202cf51a0af842a534ae23fc4a68f4a944471b2e424acb5a11a5a759d6550d51404c957a6a9822c554ce439c2a08d48964673b0e626aeb7a31858779f6752d71606cb55a4ab802e574ee63bc0a2834698487dbee828a0b9ad16567991695cd91808c55baaa58e205940e835ceac81449a4a7fbcea2aa2bbaf14547b936b5edb1a0ac759a8a78c225b42ea37ccae87429c4c79baec2ca4bda912527d956d58dd1c0cc15faea18a245d44ec31caa885409e4e7bb8ee2ea6bfab10507f976f5adf1e0ec35daca388265f46ee33c8aa8b4e904075b6e020a8b1a51e5e71996154d11000cd53a2ad86285148e03dc6a4894c924277b4e222aab3a71c5c739b6356d31202cf51a0af842a534ae23fc4a68f4a944471b2e424acb5a11a5a759d6550d51404c957a6a9822c554ce439c2a08d48964673b0e626aeb7a31858779f6752d71606cb55a4ab802e574ee63bc0a2834698487dbee828a0b9ad16567991695cd91808c55baaa58e205940e835ceac81449a4a7fbcea2aa2bbaf14547b936b5edb1a0ac759a8a78c225b42ea37ccae87429c4c79baec2ca4bda912527d956d58dd1c0cc15faea18a245d44ec31caa885409e4e7bb8ee2ea6bfab10507f976f5adf1e0ec35daca388265f46ee33c8aa8b4e904075b6e020a8b1a51e5e71996154d11000cd53a2ad86285148e03dc6a4894c924277b4e222aab3a71c5c739b6356d31202cf51a0af842a534ae23fc4a68f4a944471b2e424acb5a11a5a759d6550d51404c957a6a9822c554ce439c2a08d48964673b0e626aeb7a31858779f6752d71606cb55a4ab802e574ee63bc0a2834698487dbee828a0b9ad16567991695cd91808c55baaa58e205940e835ceac81449a4a7fbcea2aa2bbaf14547b936b5edb1a0ac759a8a78c225b42ea37ccae87429c4c79baec2ca4bda912527d956d58dd1c0cc15faea18a245d44ec31caa885409e4e7bb8ee2ea6bfab10507f976f5adf1e0ec35daca388265f46ee33c8aa8b4e904075b6e020a8b1a51e5e71996154d11000cd53a2ad86285148e03dc6a4894c924277b4e222aab3a71c5c739b6356d31202cf51a0af842a534ae23fc4a68f4a944471b2e424acb5a11a5a759d6550d51404c957a6a9822c554ce439c2a08d48964673b0e626aeb7a31858779f6752d71606cb55a4ab802e574ee63bc0a2834698487dbee828a0b9ad16567991695cd91808c55baaa58e205940e835ceac81449a4a7fbcea2aa2bbaf14547b936b5edb1a0ac759a8a78c225b42ea37ccae87429c4c79baec2ca4bda912527d956d58dd1c0cc15faea18a245d44ec31caa885409e4e7bb8ee2ea6bfab10507f976f5adf1e0ec35daca388265f46ee33c8aa8b4e904075b6e020a8b1a51e5e7199615cb8810b396688a130fa6fe39b22c8918dbbfdbc50a22ce1111ae996124a3df15",
        "type": "nulldata"
      }
    },
    {
      "value": 499990.8479,
      "n": 1,
      "scriptPubKey": {
        "asm": "1 f5c7807fce5d9ce2ca9935daf0db08b339db244bb72a497758c7832dc2e9ff61",
        "hex": "5120f5c7807fce5d9ce2ca9935daf0db08b339db244bb72a497758c7832dc2e9ff61",
        "reqSigs": 1,
        "type": "witness_v1_scripthash",
        "addresses": [
          "3QJmnh"
        ]
      }
    }
  ],
  "blockhash": "70f7ec20af3843e0d144de9ce3637c8baa62723aad58289fd59c71fdb9075fdf",
  "confirmations": 1,
  "time": 1764177228,
  "blocktime": 1764177228
}