{
  "hex": "01000000000101ce2ebf166c448740f90c6f6003de81dbc860dc09ddc2221d9d6e4d3cb439defd0000000000feffffff023079f9a7782d0000225120d17bcf06565cf40896eb8cac0a327208c6275aac3daed2a094d148ae2761f2a200e1f50500000000fdd5046a20020b150482d2bf161bbd068a1cf39c900fc61f267f595d65a3e771f8d5bfcad44db0049acecbd385e7405880c76fbbc94f974f62f3d1d785107f2457886ed67a4d8912baeeebf3a5c76078a0e74f9be96fb76f42d3f1f7a5305f0477a84ef65a6da932da8e8b93c5a70018c0872ffb890fd70f22b39197c5503f6417c82e963a0dc952faaeabb3e5872038e0a70fdba92ff72f0293b1b7e5701f4437e80eb61a2de9721a4e4b530567c0d80047ef3b49cf17cfe27351570590ffa4d708ee56facd09923a6e6b732547e0f82067cf1b69ef37efc253717725b0df84f728ce76daed29b25a0e0b13452780984007af7b098f578fa233111745d0bfe49748ae16ba8d49d27a2e2b336507a0b860278f5b29af77af8213313765f09fc4b7688e369aad69f29acecbd385e7405880c76fbbc94f974f62f3d1d785107f2457886ed67a4d8912baeeebf3a5c76078a0e74f9be96fb76f42d3f1f7a5305f0477a84ef65a6da932da8e8b93c5a70018c0872ffb890fd70f22b39197c5503f6417c82e963a0dc952faaeabb3e5872038e0a70fdba92ff72f0293b1b7e5701f4437e80eb61a2de9721a4e4b530567c0d80047ef3b49cf17cfe27351570590ffa4d708ee56facd09923a6e6b732547e0f82067cf1b69ef37efc253717725b0df84f728ce76daed29b25a0e0b13452780984007af7b098f578fa233111745d0bfe49748ae16ba8d49d27a2e2b336507a0b860278f5b29af77af8213313765f09fc4b7688e369aad69f29acecbd385e7405880c76fbbc94f974f62f3d1d785107f2457886ed67a4d8912baeeebf3a5c76078a0e74f9be96fb76f42d3f1f7a5305f0477a84ef65a6da932da8e8b93c5a70018c0872ffb890fd70f22b39197c5503f6417c82e963a0dc952faaeabb3e5872038e0a70fdba92ff72f0293b1b7e5701f4437e80eb61a2de9721a4e4b530567c0d80047ef3b49cf17cfe27351570590ffa4d708ee56facd09923a6e6b732547e0f82067cf1b69ef37efc253717725b0df84f728ce76daed29b25a0e0b13452780984007af7b098f578fa233111745d0bfe49748ae16ba8d49d27a2e2b336507a0b860278f5b29af77af8213313765f09fc4b7688e369aad69f29acecbd385e7405880c76fbbc94f974f62f3d1d785107f2457886ed67a4d8912baeeebf3a5c76078a0e74f9be96fb76f42d3f1f7a5305f0477a84ef65a6da932da8e8b93c5a70018c0872ffb890fd70f22b39197c5503f6417c82e963a0dc952faaeabb3e5872038e0a70fdba92ff72f0293b1b7e5701f4437e80eb61a2de9721a4e4b530567c0d80047ef3b49cf17cfe27351570590ffa4d708ee56facd09923a6e6b732547e0f82067cf1b69ef37efc253717725b0df84f728ce76daed29b25a0e0b13452780984007af7b098f578fa233111745d0bfe49748ae16ba8d49d27a2e2b336507a0b860278f5b29af77af8213313765f09fc4b7688e369aad69f29acecbd385e7405880c76fbbc94f974f62f3d1d785107f2457886ed67a4d8912baeeebf3a5c76078a0e74f9be96fb76f42d3f1f7a5305f0477a84ef65a6da932da8e8b93c5a70018c0872ffb890fd70f22b39197c5503f6417c82e963a0dc952faaeabb3e5872038e0a70fdba92ff72f0293b1b7e5701f4437e80eb61a2de9721a4e4b530567c0d80047ef3b49cf17cf62afac58bb11c56bab6fbb9635b8951eca31388d7061c615663d64947784701a02fd750989d789609eb6d4c2ee8e46458f44ea11baff6fda54f4d1aa658883b4a67b0a1ba58c37dbaab2a00028ab6432741edc805f7a817e40c709179721a1d7168e716eae57913cce675b819479ca93bcb7ab72388df73f8b5ab9ff32209ff308ae2fa5ac1dbaacf9ced92a2c87da7c577389d061414ea26e11829cac775cddd75af26897d5fb5e2941389f0f805335b9962a26d781dc0b574a09a37433c0db48e5c4d6107592cf92f9b33a0a669206d8c840152c0f80ef838103bc44ec2148f1142b9e730d6625f73291966719b75ba33026e54f306c8d47a5bac24140715d04502b8510e7a92b8431fd67d8ce1e84e392ad2212827eedce7058f87ee8e20c93044c77140380b439c4e62124e9362170bd48941cb444a7822bdd43ac9e90e80e26b0e38c40ccf84e7e1acf164ae060c50ebbccc48ba72ffacac0aeca9a1c136aa552fc08a5101072f0aebcf83b7694c5683de9af70a7b94035b52e8f8708f49fbb16a243efe6aed987ce566f5f8530835042102a3eac9a2b1c0fc48fa9886f71fa6fad0dd16b6d7dacac0910e82b10d7044e370d91307199c300955a31d53c8a0d281edffb87889a33a7678c5af7b59381f074299a807795c5e5fbbd17cfbd616fa91f9697c87c68c70165af4bdaa04247e125b98bb4a6c49a53323ff3c74f72bac62fea6dfb143d9dca79908c82f86fd18c605299f8b8942b564e85b20321ed5608ceb40e39080fcefde128993bab93291973426831668ade81018efab62c92c85be53488612c331c3f6cc308a83ccc9c475f56e0ef8b431d569f591fc3d029f432e092cae2b6cd37478a3d8db46cbc747b33283d5692d3a7a6c4ada47e67f400e564d1050fb257bbb05ecd62c3dbee0806e731d5eb588a82d5835356d3c9c19417ffa69a07b29ecea072bd709d491998f5d5240e519f9462a6a8dad48638d065337b90d96ad6e7cfbd007728c9b082ec83615ae1bdf717614a848e3f262f5f2dbb590c529f9ac9e46f947c58eee7d88a2d3f251a72c0d4ff1c40efc94e26c8c223244945fc4efc96964b5e5782aad3db9c1a47dc9fdd1b8e438501fbdfed439fadef29a6845b6f3462e7b82e5ab9f05d81158b4bdfa3290377df39c0d606e841f6be7b9ba649883bf67e118aeca26ef58b5c72bd29ea5f96251dc28e260262c1692e5836bac3a0af7cd0419b001ee1eca68084245e47b608b2e4845df1c66ef469aadee8dda021c1ba95b0d1464be8aae2ecb02065dffefdbc26b312b289ea4c5035865ec532deb3eb554f14a09be9d0c08fcaa958aa59548d132b972e2b11f8081d5a7e114f7950a785f307dd0c3ec4cdfbc018b8727949fae7baa22c685880ea46a2768f41aa636d4f35d250502b5bedb13c77638e79f388b07ed1cf4027733579b4cbbc51782a9264d912019fbcd46420b3c88a24b2d4f748b7e8478f336295c4c48b1dcacea20a0f34c793b58550f237efc318d37e9daab6cbd921b3111a33fa657a8f1021cd687cb8182ba597eb6aa0860f569fe76599f06383dbb0c21c404e7cf93aca93ef19396e09908ae4cf710209f4b388cd3d87d240b3f74d570ffd4ea1cc4a8981e3029d431ca8c5a3abeca60ee91f19de0a21a51321da3b84dc802ac41d7496dbc3321664471488be5adfa72db59a8b7fc778b87b6cecce539921fc46b639c2c497a91c7043c832cc062334ce29f9b28bef4aa49edee7797f6a6aa29b99e488eb7ee36f00590f4a7eb91227beebb97ee219c56463d08789f48417ae5e19189189edd865f1ab594cce6f835e3ddcf3f0304deb7e8cb2093da0132c99ebefc037829240567ed43ac76f37dc0ab14497c76208b5bb51310802a6f378c71ebeaddd8fa52c1183c5bad8faa727cc5604b08394c4132dd20df445650803513406cecc22e184daad6d848fe95a0829516591edfbcd7ce4747fbdd5e988803807ade8a1a6d77a94d11621f0e084d5bb3227a427e42efdbac78afe44fa15ceb804626b691962811e154fac62bee90efface8372d894e53ba16edc0c69d0ed63e60c560f1560c86826e1d24c14e6ef304ff797593d86a858b6a5baa29709ea87dc56fcb41c16edebe2a51c4991eabee888d742880b2843f3767c9c55584fe203f2fb87fa5eaaa402482974a090736e1c335242589148e7d6b888118fbe54db3a3c96ffd2608344cadbdb765d421a460023e6dd9a9b1329f71ef0a9027f44f903f3a04bda73dfd15ffae61a7fc4c12dd55a3bcc00fc88b0e759ace8ad7edbd6bce8bc4097e9b78a3871a92eaaa7b5ef9b22bb5938dc558cd8b0f353229c637d611b486a14a539a6090f73f470e56cf8bb662000de2952c5b848d53f7913f8c0719bece3cdad097f9c73b7ea65f33e545e2433d0b4e2511cec23993aa3e390e7548eeee3d59d95c5e214df2afbffc6478ed72c83bf88f9e97f4c8e6c1d6927f611b4f189e62437ddacad714a75bd7054e46db7c2978ba96c2c776bfd06bea5127f55b142b20cd171fca010ab8dbb9e1ba72bbb2a02fb4a7389608911d4042a068bc9a4c8eeed9a6b7e2b13bcbeac8bb7a11ce90aeac1c4af77ec4f469107425a8de67bfd4ad8e0a125afef26891ff5ed1c5eefa5976883f07acd235bf6970240b744d102413257e81173c257ad1e196cfc4cd9d9f44ed37b904a6e39d3acab548cdcb025ced885be5bee6b29e1c575ab2ecf836d2f429990ac5bdb950d4d31a93ab23ec7fc61fc5931819ad65c17469f03d8bcead4c0a56b1f5b47901c99ed21c2742e80acb045fedbd29dcd3a60178d078379ff8405dc496768ce88a5a64283d35c9a43428f1daedd4b00456d5dd16f36896235f7c8b881041070fc81a877a127a3491ac539aaea1cee0a950d7f13a3604021eb9383981ffac26cf545819ea1982434c2d57a40c08f6eb8f53bb78a209f91bee6c9e5f680359324c56218d5224eb9d09851fbd0e732a72545f03a22780e47d2d0ba4f30c41cc7fb2ad49bfcde873fc4cbb5c4a978efd883d837025b64c0f1696a3d920dc24680a6f9608c7b59a04ba701a03d7d836e37c64bfb6271a4e2b5ab63871789e02eee1892b62fb3e157f8966a36023035f1c8c3445f81c0556a354b4b2d85bf46c56c079e8882cb93e1609ef48b0cef72f3cfbc65bd1e55e00259819fe8cd862f09c038b749be461f4fb5e89045aaa27911d4f63a256e07570910f22bcf742f22dfbbe61e9e0ce1f90211009a10a4569f0dd13f221ead805ee5c666aebd4dfe5b31ff655c43f199ec5a44361f79916a15133d34b76f36133d7ee85cd2ea221f3b4c1ad227ce3c4a1673808333438454d525b717379898fa3b5bac6cdd9daf2f6004250566c749093a4a6a8a9c1cbd0d9e0070b1123293e5759656a727e9b9fb3c1e2e6f811153a42535d656d767b8e98a0c1c3c7e5f1fd00000016273a4d01fd210500a3b1a41c8661196f523f45fb8d1af1680a2434a6bf34c62059aa816c71fde1c6b37f7e4f568a312bf7abc0d614976df96ee8e3bfe79c471422742fd0cd4290aa22a750d2744c395476fa0f1e1645d94292e147b52c7504ec948aa33932534bc4c65113c534df3ff0599a2b8f2ba96b14d8034b3827f5e7ef17e2d303bbf6aae0ee562334f55c3832b02fc8fce05f28c2f7a0557834fed6b1f550efba2310c051fdbaf4aa6b42727b57c582a732025bd18af07f827aa184eac8706d1008db50a8abeca6daa74a43154625432b5602db66613e999f634d24a011e037b481662a61006279fd8471f5cfa489e654bbe677fd960dadbdb11541da2bf8e351383c3b652adc85c81ea99b32f5b0110253faca62c1853e6c561367bdd4d02e9adf96b8f8b9a9912c0478818c26f91457d1e27f625e6189387dd08dea102e4adf488941cb044428e76b3bc6723393f155df70ea634d106ce8e2dd040a2fc34f8c63317c7bbde3afd399ce3d4287682c2e9c1530da94e5317b12b868f7b68a2527ca737f185aa5b45eb4a27ac2ba2541a456d2b8046912be7e84a9031911c684873ca5617b9853856ac7a395328e0f6a586c6e3a4d1fb2ef7ba99e76a1bba50661b8f7886eb14f2e315bc9494c9a141a1dc6388c24190c57eb1fd117e00688f245240c2fbee45cd23efd48ed02e0d8ac8d7c704d851e4b77796ff97230641213a355b0861e82ffe6c28fb39d2f953a7da4a6116f9fe8d5abe43f413dff8cf30701650ca4f2096ccff5f77ad2fc2ab9baf9af73b51b502c2666a15a13d293c780eeab2534d49994c968c27321742205eab3c77fe829d1ba01177a20250d9b0ffd21cd114a50c9662e1cad74be42a4f48ef205a9ddb110f3bd58f552f1b644c4abf96525c1bc038cb0ca4b375b305efd94c265a47c08061336a06a66d89b40f58092efee5c48d3f4e29044d8133c1154e5d2db4b2b1a21bd93477a996fecb851976d57d6801778ef378eb4c9116dfb55bf851e0685223a22cdec41dd64a46fbc2e37733e63c3d893aee32d6a4b98c79e790cd0c86bd8a07fbba5ac493ffa604e48dc972d97b24194e738a9642c487fcd435889e4f5c375c5e1a961486447dee1d9439f725e780c3a9fbd326b9f2375ecf15afa369bd56a1fa2ff3af7b5510293db60b5cc3431ebf5fa806e1698bf84c09ea4fd63fafa7ec0a6cd9161e6845b95016374a87b009e5c3764456cad6f8a8a3a0744a4a3e1d5421c4626e8502a6e17ba6f79b6e4f45f8a2c7546f15a7db59354b048664bcee566f23e680520c12179ba2ebb2b2d425b87a5100bcb4622293b66ba3743871ff89bae023b232ca05d4a7512fff65b22651ce6b201ebce93a605f2bd9ec9121491039ab131de1a8d4272d1492e7000586a52949b673a57626330532cbebac3b30e0cc66a36f6fb1748c44242dd4694763247dcb3b27484445b4370153065867195fd83a933d843c71bd996599d5138ae958a5f2293dfb98c98eef35bbd7555a6e7bc0edcaed5077792b93dd72bab721deeb8633e2c020ab763d8be52b89a5d7dbf6f923c63a4e04f21b707b05d4873e4495767e6cef8c3319728ff0e59a98b94fc7f9f52f8904f6f9d558f12807d2e196b88c386bb2de58b2fc0d4f3940234f1ecb5dfd9a397676023d71e6af2024c421a45ee40c02322ff479f66feab6ec7c6c5f468f0afaf0ba41f29adc9ce09edc9a4dca1f69cf01e1d1fea92a1ffb8a1b3ede0a675c49fb669293dac00e878db613472175c837621237fa0a1a258115a371ae9bba9c31f599ff9bfd11ca30d4975bd611bae01cffdc89206e52bdd6a8076808f869fdd5d72c2e14b47b1086a394b89000000",
  "txid": "780ff8af91da234bd8896efea809849156224a2b841faa1ce5f1d8bc91a54db0",
  "hash": "58a0a0b2cf443a102790d2637b9f631bc6c768c8bf5e773b856ac02f443df872",
  "size": 5085,
  "vsize": 2278,
  "version": 1,
  "locktime": 137,
  "vin": [
    {
      "txid": "fdde39b43c4d6e9d1d22c2dd09dc60c8db81de03606f0cf94087446c16bf2ece",
      "vout": 0,
      "scriptSig": {
        "asm": "",
        "hex": ""
      },
      "txinwitness": [
        "89d789609eb6d4c2ee8e46458f44ea11baff6fda54f4d1aa658883b4a67b0a1ba58c37dbaab2a00028ab6432741edc805f7a817e40c709179721a1d7168e716eae57913cce675b819479ca93bcb7ab72388df73f8b5ab9ff32209ff308ae2fa5ac1dbaacf9ced92a2c87da7c577389d061414ea26e11829cac775cddd75af26897d5fb5e2941389f0f805335b9962a26d781dc0b574a09a37433c0db48e5c4d6107592cf92f9b33a0a669206d8c840152c0f80ef838103bc44ec2148f1142b9e730d6625f73291966719b75ba33026e54f306c8d47a5bac24140715d04502b8510e7a92b8431fd67d8ce1e84e392ad2212827eedce7058f87ee8e20c93044c77140380b439c4e62124e9362170bd48941cb444a7822bdd43ac9e90e80e26b0e38c40ccf84e7e1acf164ae060c50ebbccc48ba72ffacac0aeca9a1c136aa552fc08a5101072f0aebcf83b7694c5683de9af70a7b94035b52e8f8708f49fbb16a243efe6aed987ce566f5f8530835042102a3eac9a2b1c0fc48fa9886f71fa6fad0dd16b6d7dacac0910e82b10d7044e370d91307199c300955a31d53c8a0d281edffb87889a33a7678c5af7b59381f074299a807795c5e5fbbd17cfbd616fa91f9697c87c68c70165af4bdaa04247e125b98bb4a6c49a53323ff3c74f72bac62fea6dfb143d9dca79908c82f86fd18c605299f8b8942b564e85b20321ed5608ceb40e39080fcefde128993bab93291973426831668ade81018efab62c92c85be53488612c331c3f6cc308a83ccc9c475f56e0ef8b431d569f591fc3d029f432e092cae2b6cd37478a3d8db46cbc747b33283d5692d3a7a6c4ada47e67f400e564d1050fb257bbb05ecd62c3dbee0806e731d5eb588a82d5835356d3c9c19417ffa69a07b29ecea072bd709d491998f5d5240e519f9462a6a8dad48638d065337b90d96ad6e7cfbd007728c9b082ec83615ae1bdf717614a848e3f262f5f2dbb590c529f9ac9e46f947c58eee7d88a2d3f251a72c0d4ff1c40efc94e26c8c223244945fc4efc96964b5e5782aad3db9c1a47dc9fdd1b8e438501fbdfed439fadef29a6845b6f3462e7b82e5ab9f05d81158b4bdfa3290377df39c0d606e841f6be7b9ba649883bf67e118aeca26ef58b5c72bd29ea5f96251dc28e260262c1692e5836bac3a0af7cd0419b001ee1eca68084245e47b608b2e4845df1c66ef469aadee8dda021c1ba95b0d1464be8aae2ecb02065dffefdbc26b312b289ea4c5035865ec532deb3eb554f14a09be9d0c08fcaa958aa59548d132b972e2b11f8081d5a7e114f7950a785f307dd0c3ec4cdfbc018b8727949fae7baa22c685880ea46a2768f41aa636d4f35d250502b5bedb13c77638e79f388b07ed1cf4027733579b4cbbc51782a9264d912019fbcd46420b3c88a24b2d4f748b7e8478f336295c4c48b1dcacea20a0f34c793b58550f237efc318d37e9daab6cbd921b3111a33fa657a8f1021cd687cb8182ba597eb6aa0860f569fe76599f06383dbb0c21c404e7cf93aca93ef19396e09908ae4cf710209f4b388cd3d87d240b3f74d570ffd4ea1cc4a8981e3029d431ca8c5a3abeca60ee91f19de0a21a51321da3b84dc802ac41d7496dbc3321664471488be5adfa72db59a8b7fc778b87b6cecce539921fc46b639c2c497a91c7043c832cc062334ce29f9b28bef4aa49edee7797f6a6aa29b99e488eb7ee36f00590f4a7eb91227beebb97ee219c56463d08789f48417ae5e19189189edd865f1ab594cce6f835e3ddcf3f0304deb7e8cb2093da0132c99ebefc037829240567ed43ac76f37dc0ab14497c76208b5bb51310802a6f378c71ebeaddd8fa52c1183c5bad8faa727cc5604b08394c4132dd20df445650803513406cecc22e184daad6d848fe95a0829516591edfbcd7ce4747fbdd5e988803807ade8a1a6d77a94d11621f0e084d5bb3227a427e42efdbac78afe44fa15ceb804626b691962811e154fac62bee90efface8372d894e53ba16edc0c69d0ed63e60c560f1560c86826e1d24c14e6ef304ff797593d86a858b6a5baa29709ea87dc56fcb41c16edebe2a51c4991eabee888d742880b2843f3767c9c55584fe203f2fb87fa5eaaa402482974a090736e1c335242589148e7d6b888118fbe54db3a3c96ffd2608344cadbdb765d421a460023e6dd9a9b1329f71ef0a9027f44f903f3a04bda73dfd15ffae61a7fc4c12dd55a3bcc00fc88b0e759ace8ad7edbd6bce8bc4097e9b78a3871a92eaaa7b5ef9b22bb5938dc558cd8b0f353229c637d611b486a14a539a6090f73f470e56cf8bb662000de2952c5b848d53f7913f8c0719bece3cdad097f9c73b7ea65f33e545e2433d0b4e2511cec23993aa3e390e7548eeee3d59d95c5e214df2afbffc6478ed72c83bf88f9e97f4c8e6c1d6927f611b4f189e62437ddacad714a75bd7054e46db7c2978ba96c2c776bfd06bea5127f55b142b20cd171fca010ab8dbb9e1ba72bbb2a02fb4a7389608911d4042a068bc9a4c8eeed9a6b7e2b13bcbeac8bb7a11ce90aeac1c4af77ec4f469107425a8de67bfd4ad8e0a125afef26891ff5ed1c5eefa5976883f07acd235bf6970240b744d102413257e81173c257ad1e196cfc4cd9d9f44ed37b904a6e39d3acab548cdcb025ced885be5bee6b29e1c575ab2ecf836d2f429990ac5bdb950d4d31a93ab23ec7fc61fc5931819ad65c17469f03d8bcead4c0a56b1f5b47901c99ed21c2742e80acb045fedbd29dcd3a60178d078379ff8405dc496768ce88a5a64283d35c9a43428f1daedd4b00456d5dd16f36896235f7c8b881041070fc81a877a127a3491ac539aaea1cee0a950d7f13a3604021eb9383981ffac26cf545819ea1982434c2d57a40c08f6eb8f53bb78a209f91bee6c9e5f680359324c56218d5224eb9d09851fbd0e732a72545f03a22780e47d2d0ba4f30c41cc7fb2ad49bfcde873fc4cbb5c4a978efd883d837025b64c0f1696a3d920dc24680a6f9608c7b59a04ba701a03d7d836e37c64bfb6271a4e2b5ab63871789e02eee1892b62fb3e157f8966a36023035f1c8c3445f81c0556a354b4b2d85bf46c56c079e8882cb93e1609ef48b0cef72f3cfbc65bd1e55e00259819fe8cd862f09c038b749be461f4fb5e89045aaa27911d4f63a256e07570910f22bcf742f22dfbbe61e9e0ce1f90211009a10a4569f0dd13f221ead805ee5c666aebd4dfe5b31ff655c43f199ec5a44361f79916a15133d34b76f36133d7ee85cd2ea221f3b4c1ad227ce3c4a1673808333438454d525b717379898fa3b5bac6cdd9daf2f6004250566c749093a4a6a8a9c1cbd0d9e0070b1123293e5759656a727e9b9fb3c1e2e6f811153a42535d656d767b8e98a0c1c3c7e5f1fd00000016273a4d01",
        "00a3b1a41c8661196f523f45fb8d1af1680a2434a6bf34c62059aa816c71fde1c6b37f7e4f568a312bf7abc0d614976df96ee8e3bfe79c471422742fd0cd4290aa22a750d2744c395476fa0f1e1645d94292e147b52c7504ec948aa33932534bc4c65113c534df3ff0599a2b8f2ba96b14d8034b3827f5e7ef17e2d303bbf6aae0ee562334f55c3832b02fc8fce05f28c2f7a0557834fed6b1f550efba2310c051fdbaf4aa6b42727b57c582a732025bd18af07f827aa184eac8706d1008db50a8abeca6daa74a43154625432b5602db66613e999f634d24a011e037b481662a61006279fd8471f5cfa489e654bbe677fd960dadbdb11541da2bf8e351383c3b652adc85c81ea99b32f5b0110253faca62c1853e6c561367bdd4d02e9adf96b8f8b9a9912c0478818c26f91457d1e27f625e6189387dd08dea102e4adf488941cb044428e76b3bc6723393f155df70ea634d106ce8e2dd040a2fc34f8c63317c7bbde3afd399ce3d4287682c2e9c1530da94e5317b12b868f7b68a2527ca737f185aa5b45eb4a27ac2ba2541a456d2b8046912be7e84a9031911c684873ca5617b9853856ac7a395328e0f6a586c6e3a4d1fb2ef7ba99e76a1bba50661b8f7886eb14f2e315bc9494c9a141a1dc6388c24190c57eb1fd117e00688f245240c2fbee45cd23efd48ed02e0d8ac8d7c704d851e4b77796ff97230641213a355b0861e82ffe6c28fb39d2f953a7da4a6116f9fe8d5abe43f413dff8cf30701650ca4f2096ccff5f77ad2fc2ab9baf9af73b51b502c2666a15a13d293c780eeab2534d49994c968c27321742205eab3c77fe829d1ba01177a20250d9b0ffd21cd114a50c9662e1cad74be42a4f48ef205a9ddb110f3bd58f552f1b644c4abf96525c1bc038cb0ca4b375b305efd94c265a47c08061336a06a66d89b40f58092efee5c48d3f4e29044d8133c1154e5d2db4b2b1a21bd93477a996fecb851976d57d6801778ef378eb4c9116dfb55bf851e0685223a22cdec41dd64a46fbc2e37733e63c3d893aee32d6a4b98c79e790cd0c86bd8a07fbba5ac493ffa604e48dc972d97b24194e738a9642c487fcd435889e4f5c375c5e1a961486447dee1d9439f725e780c3a9fbd326b9f2375ecf15afa369bd56a1fa2ff3af7b5510293db60b5cc3431ebf5fa806e1698bf84c09ea4fd63fafa7ec0a6cd9161e6845b95016374a87b009e5c3764456cad6f8a8a3a0744a4a3e1d5421c4626e8502a6e17ba6f79b6e4f45f8a2c7546f15a7db59354b048664bcee566f23e680520c12179ba2ebb2b2d425b87a5100bcb4622293b66ba3743871ff89bae023b232ca05d4a7512fff65b22651ce6b201ebce93a605f2bd9ec9121491039ab131de1a8d4272d1492e7000586a52949b673a57626330532cbebac3b30e0cc66a36f6fb1748c44242dd4694763247dcb3b27484445b4370153065867195fd83a933d843c71bd996599d5138ae958a5f2293dfb98c98eef35bbd7555a6e7bc0edcaed5077792b93dd72bab721deeb8633e2c020ab763d8be52b89a5d7dbf6f923c63a4e04f21b707b05d4873e4495767e6cef8c3319728ff0e59a98b94fc7f9f52f8904f6f9d558f12807d2e196b88c386bb2de58b2fc0d4f3940234f1ecb5dfd9a397676023d71e6af2024c421a45ee40c02322ff479f66feab6ec7c6c5f468f0afaf0ba41f29adc9ce09edc9a4dca1f69cf01e1d1fea92a1ffb8a1b3ede0a675c49fb669293dac00e878db613472175c837621237fa0a1a258115a371ae9bba9c31f599ff9bfd11ca30d4975bd611bae01cffdc89206e52bdd6a8076808f869fdd5d72c2e14b47b1086a394b"
      ],
      "sequence": 4294967294
    }
  ],
  "vout": [
    {
      "value": 499962.3747,
      "n": 0,
      "scriptPubKey": {
        "asm": "1 d17bcf06565cf40896eb8cac0a327208c6275aac3daed2a094d148ae2761f2a2",
        "hex": "5120d17bcf06565cf40896eb8cac0a327208c6275aac3daed2a094d148ae2761f2a2",
        "reqSigs": 1,
        "type": "witness_v1_scripthash",
        "addresses": [
          "3QJmnh"
        ]
      }
    },
    {
      "value": 1.0,
      "n": 1,
      "scriptPubKey": {
        "asm": "OP_RETURN 020b150482d2bf161bbd068a1cf39c900fc61f267f595d65a3e771f8d5bfcad4 9acecbd385e7405880c76fbbc94f974f62f3d1d785107f2457886ed67a4d8912baeeebf3a5c76078a0e74f9be96fb76f42d3f1f7a5305f0477a84ef65a6da932da8e8b93c5a70018c0872ffb890fd70f22b39197c5503f6417c82e963a0dc952faaeabb3e5872038e0a70fdba92ff72f0293b1b7e5701f4437e80eb61a2de9721a4e4b530567c0d80047ef3b49cf17cfe27351570590ffa4d708ee56facd09923a6e6b732547e0f82067cf1b69ef37efc253717725b0df84f728ce76daed29b25a0e0b13452780984007af7b098f578fa233111745d0bfe49748ae16ba8d49d27a2e2b336507a0b860278f5b29af77af8213313765f09fc4b7688e369aad69f29acecbd385e7405880c76fbbc94f974f62f3d1d785107f2457886ed67a4d8912baeeebf3a5c76078a0e74f9be96fb76f42d3f1f7a5305f0477a84ef65a6da932da8e8b93c5a70018c0872ffb890fd70f22b39197c5503f6417c82e963a0dc952faaeabb3e5872038e0a70fdba92ff72f0293b1b7e5701f4437e80eb61a2de9721a4e4b530567c0d80047ef3b49cf17cfe27351570590ffa4d708ee56facd09923a6e6b732547e0f82067cf1b69ef37efc253717725b0df84f728ce76daed29b25a0e0b13452780984007af7b098f578fa233111745d0bfe49748ae16ba8d49d27a2e2b336507a0b860278f5b29af77af8213313765f09fc4b7688e369aad69f29acecbd385e7405880c76fbbc94f974f62f3d1d785107f2457886ed67a4d8912baeeebf3a5c76078a0e74f9be96fb76f42d3f1f7a5305f0477a84ef65a6da932da8e8b93c5a70018c0872ffb890fd70f22b39197c5503f6417c82e963a0dc952faaeabb3e5872038e0a70fdba92ff72f0293b1b7e5701f4437e80eb61a2de9721a4e4b530567c0d80047ef3b49cf17cfe27351570590ffa4d708ee56facd09923a6e6b732547e0f82067cf1b69ef37efc253717725b0df84f728ce76daed29b25a0e0b13452780984007af7b098f578fa233111745d0bfe49748ae16ba8d49d27a2e2b336507a0b860278f5b29af77af8213313765f09fc4b7688e369aad69f29acecbd385e7405880c76fbbc94f974f62f3d1d785107f2457886ed67a4d8912baeeebf3a5c76078a0e74f9be96fb76f42d3f1f7a5305f0477a84ef65a6da932da8e8b93c5a70018c0872ffb890fd70f22b39197c5503f6417c82e963a0dc952faaeabb3e5872038e0a70fdba92ff72f0293b1b7e5701f4437e80eb61a2de9721a4e4b530567c0d80047ef3b49cf17cfe27351570590ffa4d708ee56facd09923a6e6b732547e0f82067cf1b69ef37efc253717725b0df84f728ce76daed29b25a0e0b13452780984007af7b098f578fa233111745d0bfe49748ae16ba8d49d27a2e2b336507a0b860278f5b29af77af8213313765f09fc4b7688e369aad69f29acecbd385e7405880c76fbbc94f974f62f3d1d785107f2457886ed67a4d8912baeeebf3a5c76078a0e74f9be96fb76f42d3f1f7a5305f0477a84ef65a6da932da8e8b93c5a70018c0872ffb890fd70f22b39197c5503f6417c82e963a0dc952faaeabb3e5872038e0a70fdba92ff72f0293b1b7e5701f4437e80eb61a2de9721a4e4b530567c0d80047ef3b49cf17cf62afac58bb11c56bab6fbb9635b8951eca31388d7061c615663d64947784701a",
        "hex": "6a20020b150482d2bf161bbd068a1cf39c900fc61f267f595d65a3e771f8d5bfcad44db0049acecbd385e7405880c76fbbc94f974f62f3d1d785107f2457886ed67a4d8912baeeebf3a5c76078a0e74f9be96fb76f42d3f1f7a5305f0477a84ef65a6da932da8e8b93c5a70018c0872ffb890fd70f22b39197c5503f6417c82e963a0dc952faaeabb3e5872038e0a70fdba92ff72f0293b1b7e5701f4437e80eb61a2de9721a4e4b530567c0d80047ef3b49cf17cfe27351570590ffa4d708ee56facd09923a6e6b732547e0f82067cf1b69ef37efc253717725b0df84f728ce76daed29b25a0e0b13452780984007af7b098f578fa233111745d0bfe49748ae16ba8d49d27a2e2b336507a0b860278f5b29af77af8213313765f09fc4b7688e369aad69f29acecbd385e7405880c76fbbc94f974f62f3d1d785107f2457886ed67a4d8912baeeebf3a5c76078a0e74f9be96fb76f42d3f1f7a5305f0477a84ef65a6da932da8e8b93c5a70018c0872ffb890fd70f22b39197c5503f6417c82e963a0dc952faaeabb3e5872038e0a70fdba92ff72f0293b1b7e5701f4437e80eb61a2de9721a4e4b530567c0d80047ef3b49cf17cfe27351570590ffa4d708ee56facd09923a6e6b732547e0f82067cf1b69ef37efc253717725b0df84f728ce76daed29b25a0e0b13452780984007af7b098f578fa233111745d0bfe49748ae16ba8d49d27a2e2b336507a0b860278f5b29af77af8213313765f09fc4b7688e369aad69f29acecbd385e7405880c76fbbc94f974f62f3d1d785107f2457886ed67a4d8912baeeebf3a5c76078a0e74f9be96fb76f42d3f1f7a5305f0477a84ef65a6da932da8e8b93c5a70018c0872ffb890fd70f22b39197c5503f6417c82e963a0dc952faaeabb3e5872038e0a70fdba92ff72f0293b1b7e5701f4437e80eb61a2de9721a4e4b530567c0d80047ef3b49cf17cfe27351570590ffa4d708ee56facd09923a6e6b732547e0f82067cf1b69ef37efc253717725b0df84f728ce76daed29b25a0e0b13452780984007af7b098f578fa233111745d0bfe49748ae16ba8d49d27a2e2b336507a0b860278f5b29af77af8213313765f09fc4b7688e369aad69f29acecbd385e7405880c76fbbc94f974f62f3d1d785107f2457886ed67a4d8912baeeebf3a5c76078a0e74f9be96fb76f42d3f1f7a5305f0477a84ef65a6da932da8e8b93c5a70018c0872ffb890fd70f22b39197c5503f6417c82e963a0dc952faaeabb3e5872038e0a70fdba92ff72f0293b1b7e5701f4437e80eb61a2de9721a4e4b530567c0d80047ef3b49cf17cfe27351570590ffa4d708ee56facd09923a6e6b732547e0f82067cf1b69ef37efc253717725b0df84f728ce76daed29b25a0e0b13452780984007af7b098f578fa233111745d0bfe49748ae16ba8d49d27a2e2b336507a0b860278f5b29af77af8213313765f09fc4b7688e369aad69f29acecbd385e7405880c76fbbc94f974f62f3d1d785107f2457886ed67a4d8912baeeebf3a5c76078a0e74f9be96fb76f42d3f1f7a5305f0477a84ef65a6da932da8e8b93c5a70018c0872ffb890fd70f22b39197c5503f6417c82e963a0dc952faaeabb3e5872038e0a70fdba92ff72f0293b1b7e5701f4437e80eb61a2de9721a4e4b530567c0d80047ef3b49cf17cf62afac58bb11c56bab6fbb9635b8951eca31388d7061c615663d64947784701a",
        "type": "nulldata"
      }
    }
  ],
  "blockhash": "9c49f121af07ca043271baff5049446c1aadf74400091ff8de6bf4087ac8778e",
  "confirmations": 1,
  "time": 1764183425,
  "blocktime": 1764183425
}