{
  "hex": "01000000000101de133ceaffea03e09d3a2f46dff5518c8fedaec089d1ea3298981210037af3a60000000000feffffff0200e1f50500000000fdd5046a208db8a52fcdf94ecbac45d904eacb1df3441b8fc6d6b43554c3b2cf15c1b661504db004bf7f095bf6298c540899165cfbb18a4bdb1f5fa0d347115685cc38e3a275c6f59f5f297bd609ac7428b9367cdb91aa6bfb3f7f80f3673176a5ec18c38255e6d5ff3f491bb669cc1448d9561cbbf1ca0b9b5f1fe093075116c58c78a3e23586b5df1f693b9649ec3468f9763c9bd1ea2bbb7f3fc0b3277136e5ac5883c215a6953fff89db76a90cd4881996dc7b310acb5b9fdf2053c791d6054cb86322f546751fdfa9fb56892cf4a839b6fc5b112aeb7bbfff0073e7b1f6256c984302d566557fbfc99b36e94c94c859d69c3b714a8b1bdf9f601387d196450cf82362b506355f9fe9bb16c96cb4e879f6bc1b516aab3bffbf4033a7f1b6652cd80342952615bf7f095bf6298c540899165cfbb18a4bdb1f5fa0d347115685cc38e3a275c6f59f5f297bd609ac7428b9367cdb91aa6bfb3f7f80f3673176a5ec18c38255e6d5ff3f491bb669cc1448d9561cbbf1ca0b9b5f1fe093075116c58c78a3e23586b5df1f693b9649ec3468f9763c9bd1ea2bbb7f3fc0b3277136e5ac5883c215a6953fff89db76a90cd4881996dc7b310acb5b9fdf2053c791d6054cb86322f546751fdfa9fb56892cf4a839b6fc5b112aeb7bbfff0073e7b1f6256c984302d566557fbfc99b36e94c94c859d69c3b714a8b1bdf9f601387d196450cf82362b506355f9fe9bb16c96cb4e879f6bc1b516aab3bffbf4033a7f1b6652cd80342952615bf7f095bf6298c540899165cfbb18a4bdb1f5fa0d347115685cc38e3a275c6f59f5f297bd609ac7428b9367cdb91aa6bfb3f7f80f3673176a5ec18c38255e6d5ff3f491bb669cc1448d9561cbbf1ca0b9b5f1fe093075116c58c78a3e23586b5df1f693b9649ec3468f9763c9bd1ea2bbb7f3fc0b3277136e5ac5883c215a6953fff89db76a90cd4881996dc7b310acb5b9fdf2053c791d6054cb86322f546751fdfa9fb56892cf4a839b6fc5b112aeb7bbfff0073e7b1f6256c984302d566557fbfc99b36e94c94c859d69c3b714a8b1bdf9f601387d196450cf82362b506355f9fe9bb16c96cb4e879f6bc1b516aab3bffbf4033a7f1b6652cd80342952615bf7f095bf6298c540899165cfbb18a4bdb1f5fa0d347115685cc38e3a275c6f59f5f297bd609ac7428b9367cdb91aa6bfb3f7f80f3673176a5ec18c38255e6d5ff3f491bb669cc1448d9561cbbf1ca0b9b5f1fe093075116c58c78a3e23586b5df1f693b9649ec3468f9763c9bd1ea2bbb7f3fc0b3277136e5ac5883c215a6953fff89db76a90cd4881996dc7b310acb5b9fdf2053c791d6054cb86322f546751fdfa9fb56892cf4a839b6fc5b112aeb7bbfff0073e7b1f6256c984302d566557fbfc99b36e94c94c859d69c3b714a8b1bdf9f601387d196450cf82362b506355f9fe9bb16c96cb4e879f6bc1b516aab3bffbf4033a7f1b6652cd80342952615bf7f095bf6298c540899165cfbb18a4bdb1f5fa0d347115685cc38e3a275c6f59f5f297bd609ac7428b9367cdb91aa6bfb3f7f80f3673176a5ec18c38255e6d5ff3f491bb669cc1448d9561cbbf1ca0b9b5f1fe093075116c58c78a3e23586b5df1f693b9649ec3468f9763c9bd1ea2bbb7f3fc0b3277136e5ac5883c215a6953fff89db76a90cd4881996dc7b310acbf0b533ff8bf5901ff6b0b03f5a46176f5c51cd076f55988df631b2abc560772a80cbbf57792d00002251203791fd62b874203a0d53d524477945e8b4930af9c5ed5064cbd14428def358ae02fd7509094c525669d92942e29a58e7fda8871f562da79e41f066d754779280973f06d8940843ff6e66451e8f30d7a1d3ce90e4742d85ef50c1fa99ca200c0b09caac83cd69148e46a24af5b764363a20c43c3cfd49c4d9e7a38f4929e28ca1c81a739f9439750be487e9b86c6562370c492787cf14b9fc395971fbf16da4b3a5914107a00a0e56252e84a8fc10680f26e062127943ebddce633585f18a49471b0a1f8de44c5dd32a66989c85e1655d328173d42a92fdfff31c423fac3bb79b99ebeb7fdfa4979f7bd1cc4bf77edca472d6346a963829e212560a018f4a9136093083db577b2303f00ee16af2223f472859d55b1820430616a4ea92152631a4baef0e77d40210a53972088b6788b724d3d4e2b71fc05de4db74e80872686c4032293677548758cb8b2c063e22762898f12cad4d6109b0017fcad99bc70ad89037764b2801d6d462b83b9a18372e1bc08cc357991f32e4305ceafef3661d43437f6f0065019adf1450b74d8bd25ced9dd35b241607357f9529509c941302daca14a1777d688fe71f056e4ce8b0760b379f619ce6c1fac708bdf036eddac1fa0abb2f1540461aefb50213afdc71d9d5b985055ac873574f048e7683c8701f9e34de489046d92304dc06fa558e4516a97c8ae65ae83a87528efe62f45f36a450e7bfd9a2e49beaa546caa1a1fed3a79d56843635e857790775b2cef878756488b6c1fb2e014421993cfabeef070f42f9ac5d004e6569cad89fee9ee5e250904bb8df3208cc9dfdbf80bd5468261b3dc1a13011192c9b7d45bc4a55a425d6ddb6e1bc1131ae4dc891dbf8baa8a21f5fa370a120016a9ec7f16d8bb4054b285b552c847af94804f3e95090d95021f0e03873739f449ce51f68f97468122eea0f11b4d9725d1a2b407b8c01a29d0e962b872dfebc73cc7a391b4f1daeda37790ddc3d3cb09d5604ba6eead8a635d645f3814028b65cb28a935e64e746cdbd1e42682fa7374eecc91ab86bd9fb233e5ee19a19054dbada0dd30736b7430b67e1c8b21e82b174eac66c1d2335185d7c910b551b67b17b6a9240ee635adea4ee5382ba9de277b2d6ab0ca52c651fbbe0763799ee1bc33e30252b7eccf805fb455a7e89422277e3997bea159828fbb13de849f70e14b32cf4a9a6487fa3704ab29804bfc4712858cc6646a10375ff15bf51821ae508602255f2a1cc8db34e4eb095ad6e6ee802b0f7d4b18654007ff2013a73711860ade84aa397ad42b67c26f02edfb45132bae04f626fd0c2315244ad51a8c9161b9e1cee23fef932b294857a514203bd233906f4f1dc97c8d44c8f0e7dbace541cb5db28e9b16d864ff419854a0caeaef56332b5c2106f8b55ac8fca126e044a95667465f3d91b04d75a3590f69f60b38798c9cc46fdf1147abd6bdd5c2cb7a2bccc659df00482618e79cf8917619c9b05909a48cda7296717f0360afd56551094fe02d2cb078ae20ff97b1ec0c7a4a09bb56bd1f3af36359a537ef3b7ea4c7f1df13c28e00ec02b542901b14290fd176b693a31395f638d2e481b1f90cf09e3f0f004b9e204fce667bace06afdf1d9b125b8f60b0b887cbc0bd60f3504d5a420e1a24f4aa75d48efb04aa5edbc87e95e3b4b1ec2ea6a6b09cf710129cfa82456fb99016f149785259beaf999e8dd9ef9409c2554585d04e8aac6558746dfc5e397e54bece98f613af3c1beda4c6943a1bcaf7875d5d41eee4bd25ba90234542f49be2ed3fddebb049613565f2d01d7c71f735b5263d54fe98fa6d8b087dae9cba4e265a7682880a99bcd78ec49d5a1594f65b2e1fcd2c8aac0fd8619975d1dcd723126c2b39e1e0749ebd6e9db1d984ba5a4dba5f683ee1ecf0e08a30aec119ea3dadf48d3af380132c2c7e427b86b8a1f3562776c4a200b5df415e89ada4ec55579bf1cde74ecfbc40d104df6d5e4522a4e055ca45969ae3be4a99d45aed9fee0bb3e66a61aba08f5d91b8e7064bde27b3628d8269a514a8acf98a4c698c941a1e8d6ee08e21437065ae1d51d5109553a5db379ec3d67edeaa9f6e78875ff443e270f2d027cc8d23976a9026be270e72f746dedd53c43fbe91a380c1441c3db5e5751f49d5829502bcce7ad6fc753dde8d8f04146ee643b6b8e4d039c7de4bb6a9f5dff7760762ff0b60dbb23e793033adc4b47100460746d90f760ac99c1a60453ad09c818b18419fcdb10451e40140db43046d912020724f66c2c41f2e25289bd89bf34e031d7b1e72b0cb9481fe5160f63b7fb2535e3899169c0eea851d5648b261f196f52efd5fc711c7b14dbda879be83e9660602a909fcc50982717b1ccbfafb74d91088883ff03a6a322babfaf65395bd48ab8279ee89a372a934d1cb28954cac14a59d0c44b110d2dd3ad2e0b1238556160ea96642dd3321d7af9fbb505ad8a59757b17f8594417a1083f7b7e84e0c3b5a2c2d3e695824e28b2d032dadd8802f39340cca89d74111b84d3f6bf7c5cb5bcd829a2d144b5769ab63e161e154660be7378b4fbd28b8601105b95ccf7935d3baa8f67b132d684d1aebcbda0519b11277ab5b8b36a3837e74a324c78162609365dd34889a6737ca5c975b6bf5cebb63cbc2ed959cbd90dc05fae67bc730b0f4046c87f6a670478bb5f5c07af063de7e936fb2693ec46e89bba96f643c8e0c113600193ab72034d95db71885a6216a4f38cfe2405dc35dd782fc4cd45b4a5de95b3af33d3f72429d98a2da1684ffdbe6b6dc0c78315f946b2ad18d1b67d1dd92fffb8435e45ba2e9fd3e33e375296a729f25e8985bc6f7412be3c6071980fd8c287fa6cc13ef29b15e15770673cb9ba50105796b67651c94e2ac92154a02e55270fee9536b6059b85d43a1de89e0877353c607016d4bf5cf75542a188953e501d7e329ef28838f3747f12d32a998b6ec5cf219116ab22d6adac260436f6152356eaf2e237173f751957e50f1a468a35b6f6ff418bd8721d9d3c6e437b6a6ae259626d94459a429dcd9a6c8acb56c0785be2311805608dc4926409fc310623f1b1d9ce6011656ef6b5948fa3844368b1ea668223ae61aba21905ef3e5357f921dc79cfe4cff94f199a4cc1691caaaa8c12e450330d7455f4baadc0909e6579a0f748de63821e30c20f4b84ca5323e1b66729ad9e604a8f81746c7e00f19022d025eabc4b63a92b3faf1a97f7744fe5ebfa05a3329d8aee3e9f6bde35e94f75d175c4d8c1084ab2f6519939e8fe9879eabda10aaf2b89e2f407ccd1635f37e764746c6c6ceb74253d9b501ba67c28ace5b32e7eb531e26f45c7b5459d5db66f22a4a586a6d6f89aeb9c0f20f13171a25272d323447777b8687bccaced5d7e2e5e90211363b4151577a8d8f91abb7c6cbcfd7dde62c36436d95ceddecfc000000000000000000000000000000000000000b21343d01fd210500b06196ab80a26bb9fe40a827852e8b08b68180102f6780a111488e6153b1dc57382dbca02b95a5675b62808b824b1e2c8898503cf43edee60c185694d550047c083beadf524242b7b840bcbe0423c4fe180e553282f11ba940fea437edd6c05e6c0da8fabbf69fc1a086a2efeca4afdab50ff15ca3ef898bea33e3f6f88f4034dc541e650eb0ff4e90fe3b5fc5f8da97af95c05c6c1a22a8f3bf4d6c1d075bceea58cc69c717471d3d95f271f8f673cbf9d841b601ea573c202047626f8c4e794bb682d1a6194cf46dd0dff9dd5076af8c21d6d6aab709911ca233f6917272a7b341422eed793dd5b25a7c282119a86e47fa69b00ca9b1e8ca8d0593acf1ef7ff3a5c607e03c17881bc7d8f7f9e68f6ccf2e4a58a166dc9b41fbf14210e36b913c234920577bec4b69aabc7c42d0d38ca9bfa75d2f7f5c60ef2e5e41c891ed703b4f8ccfde70011f036eeac2aea788d418ddffe99c3d94cd52a4cecdb3cd154149dc840e295fad276cd645cbdd1a3b51e4033307a5408bbf693c82491d27e8617e39fa5896e75b9053ac76fcd86656578d42675f389dceaf17ad64964641a1d32e3e0c115e6855d91115c9aae13e7c90ea317049d0a2da1f28177602092ea794023b2515434dc2d93faab23b2071f2c6abd90d527904ee645ad068cc55ffa1d0bc83a464ecdfee85c84c1687a8be723daf9e6468b3769d618064ab028c024c78ceee1420aa313395a26e461dbfbd83be6c95966fd1c5c8a92447e82d52c4966ae9570cb8c4b824189f6b532e3c52c1a9a968bd55b6e0b503c91c3cabb1ba245db6885970ffc5e494d700b2d7c2086a2933ae1a0565f349179939c28b866e5453386985bcd72f25434314a08a5dbe71b4c2c42238988a16bfeb07c33826069e840307d539f8e9e49da00b49e01eb601335796868f2298160e630c5758890f3ceb5a5a4a21c81ed41ca66c34c216dd97275fff14f441e25e8a87c67816041fcb5cf6ac0012e3a348bbd1b58a1b78089f78dbbcf46558a2e975e918852484039727e003de831c2a22df49d9b70b6bbee67133b96309161f5b5e9a3ca8dd206b7d3371a26fdecf9c5ea034f98b4b0dfd099db505c9238f14ff8766915f309fc7d9590e7fa8d6045c147590430771063cff51cb15e19a7fc0e7e01d22db96a9336e2b37b66e3bb951cb4bf4ac4f54adc7913b112a979c66805225e7e3bb520bf8205d3b2124eb447f4f0d95c99e6659358c7c66b4c39eb9877596703499533e03c7f138a53f37256707c0ad2d4b6081c9b0b2049edabb3475b83ab8e77406e8ff803c80801ef456e75567eff0bf90455e77ab9b350a986d436a7e855b5362221f4e16fd89b2cc9f30944f2f9008244841b4d72935b03774b177a99754282c0046593e5e81b665f188d602be31dec0ee455423a0d0031a4b689f1d275b5f619382d69dba0a06a810d8cadd364d86cf9b070bed198fc7521cc93779f88729b77f7bfae4f65dcca40fa8eae178e18b7fbe728204a710b9649408b8904c934dd605cce1b94c08da4e078326215c3ba8b76b92a3759d308ef1fa21d6959953e15b4a021f0c981c919791735552fbfbb73e9d91a932c86ee9b1ce0ed3c3d78397222519b7fee392a111b91b20c2e86d86a7ca424278d0dfaf99cabbaf8e144a5817ec2f650d4fda4a3abdb453fb0f82e1dccc79a2ef5f94137bf86abe642b4a7edb6ac9e4a6a8733bbc42d9375690ec8dfa03a413d5c1ed37514b443cfc2a81b5c42931b709cea59e453207c0ddbead878f503564ad514e6cfcb25867c61479ebcf90e47b33274577d88e6647f42dfc13ab516ca7628f088c116134fa55d46b61a5ed03169e69000000",
  "txid": "755878d27e87d88b314114d80f65819bb19c265b3f69a8d933592823eb65624a",
  "hash": "33eacfd9c42099963e6635a5d61481db1e083270ea0a92de58b1b718ea20c5ba",
  "size": 5085,
  "vsize": 2278,
  "version": 1,
  "locktime": 105,
  "vin": [
    {
      "txid": "a6f37a031012989832ead189c0aeed8f8c51f5df462f3a9de003eaffea3c13de",
      "vout": 0,
      "scriptSig": {
        "asm": "",
        "hex": ""
      },
      "txinwitness": [
        "094c525669d92942e29a58e7fda8871f562da79e41f066d754779280973f06d8940843ff6e66451e8f30d7a1d3ce90e4742d85ef50c1fa99ca200c0b09caac83cd69148e46a24af5b764363a20c43c3cfd49c4d9e7a38f4929e28ca1c81a739f9439750be487e9b86c6562370c492787cf14b9fc395971fbf16da4b3a5914107a00a0e56252e84a8fc10680f26e062127943ebddce633585f18a49471b0a1f8de44c5dd32a66989c85e1655d328173d42a92fdfff31c423fac3bb79b99ebeb7fdfa4979f7bd1cc4bf77edca472d6346a963829e212560a018f4a9136093083db577b2303f00ee16af2223f472859d55b1820430616a4ea92152631a4baef0e77d40210a53972088b6788b724d3d4e2b71fc05de4db74e80872686c4032293677548758cb8b2c063e22762898f12cad4d6109b0017fcad99bc70ad89037764b2801d6d462b83b9a18372e1bc08cc357991f32e4305ceafef3661d43437f6f0065019adf1450b74d8bd25ced9dd35b241607357f9529509c941302daca14a1777d688fe71f056e4ce8b0760b379f619ce6c1fac708bdf036eddac1fa0abb2f1540461aefb50213afdc71d9d5b985055ac873574f048e7683c8701f9e34de489046d92304dc06fa558e4516a97c8ae65ae83a87528efe62f45f36a450e7bfd9a2e49beaa546caa1a1fed3a79d56843635e857790775b2cef878756488b6c1fb2e014421993cfabeef070f42f9ac5d004e6569cad89fee9ee5e250904bb8df3208cc9dfdbf80bd5468261b3dc1a13011192c9b7d45bc4a55a425d6ddb6e1bc1131ae4dc891dbf8baa8a21f5fa370a120016a9ec7f16d8bb4054b285b552c847af94804f3e95090d95021f0e03873739f449ce51f68f97468122eea0f11b4d9725d1a2b407b8c01a29d0e962b872dfebc73cc7a391b4f1daeda37790ddc3d3cb09d5604ba6eead8a635d645f3814028b65cb28a935e64e746cdbd1e42682fa7374eecc91ab86bd9fb233e5ee19a19054dbada0dd30736b7430b67e1c8b21e82b174eac66c1d2335185d7c910b551b67b17b6a9240ee635adea4ee5382ba9de277b2d6ab0ca52c651fbbe0763799ee1bc33e30252b7eccf805fb455a7e89422277e3997bea159828fbb13de849f70e14b32cf4a9a6487fa3704ab29804bfc4712858cc6646a10375ff15bf51821ae508602255f2a1cc8db34e4eb095ad6e6ee802b0f7d4b18654007ff2013a73711860ade84aa397ad42b67c26f02edfb45132bae04f626fd0c2315244ad51a8c9161b9e1cee23fef932b294857a514203bd233906f4f1dc97c8d44c8f0e7dbace541cb5db28e9b16d864ff419854a0caeaef56332b5c2106f8b55ac8fca126e044a95667465f3d91b04d75a3590f69f60b38798c9cc46fdf1147abd6bdd5c2cb7a2bccc659df00482618e79cf8917619c9b05909a48cda7296717f0360afd56551094fe02d2cb078ae20ff97b1ec0c7a4a09bb56bd1f3af36359a537ef3b7ea4c7f1df13c28e00ec02b542901b14290fd176b693a31395f638d2e481b1f90cf09e3f0f004b9e204fce667bace06afdf1d9b125b8f60b0b887cbc0bd60f3504d5a420e1a24f4aa75d48efb04aa5edbc87e95e3b4b1ec2ea6a6b09cf710129cfa82456fb99016f149785259beaf999e8dd9ef9409c2554585d04e8aac6558746dfc5e397e54bece98f613af3c1beda4c6943a1bcaf7875d5d41eee4bd25ba90234542f49be2ed3fddebb049613565f2d01d7c71f735b5263d54fe98fa6d8b087dae9cba4e265a7682880a99bcd78ec49d5a1594f65b2e1fcd2c8aac0fd8619975d1dcd723126c2b39e1e0749ebd6e9db1d984ba5a4dba5f683ee1ecf0e08a30aec119ea3dadf48d3af380132c2c7e427b86b8a1f3562776c4a200b5df415e89ada4ec55579bf1cde74ecfbc40d104df6d5e4522a4e055ca45969ae3be4a99d45aed9fee0bb3e66a61aba08f5d91b8e7064bde27b3628d8269a514a8acf98a4c698c941a1e8d6ee08e21437065ae1d51d5109553a5db379ec3d67edeaa9f6e78875ff443e270f2d027cc8d23976a9026be270e72f746dedd53c43fbe91a380c1441c3db5e5751f49d5829502bcce7ad6fc753dde8d8f04146ee643b6b8e4d039c7de4bb6a9f5dff7760762ff0b60dbb23e793033adc4b47100460746d90f760ac99c1a60453ad09c818b18419fcdb10451e40140db43046d912020724f66c2c41f2e25289bd89bf34e031d7b1e72b0cb9481fe5160f63b7fb2535e3899169c0eea851d5648b261f196f52efd5fc711c7b14dbda879be83e9660602a909fcc50982717b1ccbfafb74d91088883ff03a6a322babfaf65395bd48ab8279ee89a372a934d1cb28954cac14a59d0c44b110d2dd3ad2e0b1238556160ea96642dd3321d7af9fbb505ad8a59757b17f8594417a1083f7b7e84e0c3b5a2c2d3e695824e28b2d032dadd8802f39340cca89d74111b84d3f6bf7c5cb5bcd829a2d144b5769ab63e161e154660be7378b4fbd28b8601105b95ccf7935d3baa8f67b132d684d1aebcbda0519b11277ab5b8b36a3837e74a324c78162609365dd34889a6737ca5c975b6bf5cebb63cbc2ed959cbd90dc05fae67bc730b0f4046c87f6a670478bb5f5c07af063de7e936fb2693ec46e89bba96f643c8e0c113600193ab72034d95db71885a6216a4f38cfe2405dc35dd782fc4cd45b4a5de95b3af33d3f72429d98a2da1684ffdbe6b6dc0c78315f946b2ad18d1b67d1dd92fffb8435e45ba2e9fd3e33e375296a729f25e8985bc6f7412be3c6071980fd8c287fa6cc13ef29b15e15770673cb9ba50105796b67651c94e2ac92154a02e55270fee9536b6059b85d43a1de89e0877353c607016d4bf5cf75542a188953e501d7e329ef28838f3747f12d32a998b6ec5cf219116ab22d6adac260436f6152356eaf2e237173f751957e50f1a468a35b6f6ff418bd8721d9d3c6e437b6a6ae259626d94459a429dcd9a6c8acb56c0785be2311805608dc4926409fc310623f1b1d9ce6011656ef6b5948fa3844368b1ea668223ae61aba21905ef3e5357f921dc79cfe4cff94f199a4cc1691caaaa8c12e450330d7455f4baadc0909e6579a0f748de63821e30c20f4b84ca5323e1b66729ad9e604a8f81746c7e00f19022d025eabc4b63a92b3faf1a97f7744fe5ebfa05a3329d8aee3e9f6bde35e94f75d175c4d8c1084ab2f6519939e8fe9879eabda10aaf2b89e2f407ccd1635f37e764746c6c6ceb74253d9b501ba67c28ace5b32e7eb531e26f45c7b5459d5db66f22a4a586a6d6f89aeb9c0f20f13171a25272d323447777b8687bccaced5d7e2e5e90211363b4151577a8d8f91abb7c6cbcfd7dde62c36436d95ceddecfc000000000000000000000000000000000000000b21343d01",
        "00b06196ab80a26bb9fe40a827852e8b08b68180102f6780a111488e6153b1dc57382dbca02b95a5675b62808b824b1e2c8898503cf43edee60c185694d550047c083beadf524242b7b840bcbe0423c4fe180e553282f11ba940fea437edd6c05e6c0da8fabbf69fc1a086a2efeca4afdab50ff15ca3ef898bea33e3f6f88f4034dc541e650eb0ff4e90fe3b5fc5f8da97af95c05c6c1a22a8f3bf4d6c1d075bceea58cc69c717471d3d95f271f8f673cbf9d841b601ea573c202047626f8c4e794bb682d1a6194cf46dd0dff9dd5076af8c21d6d6aab709911ca233f6917272a7b341422eed793dd5b25a7c282119a86e47fa69b00ca9b1e8ca8d0593acf1ef7ff3a5c607e03c17881bc7d8f7f9e68f6ccf2e4a58a166dc9b41fbf14210e36b913c234920577bec4b69aabc7c42d0d38ca9bfa75d2f7f5c60ef2e5e41c891ed703b4f8ccfde70011f036eeac2aea788d418ddffe99c3d94cd52a4cecdb3cd154149dc840e295fad276cd645cbdd1a3b51e4033307a5408bbf693c82491d27e8617e39fa5896e75b9053ac76fcd86656578d42675f389dceaf17ad64964641a1d32e3e0c115e6855d91115c9aae13e7c90ea317049d0a2da1f28177602092ea794023b2515434dc2d93faab23b2071f2c6abd90d527904ee645ad068cc55ffa1d0bc83a464ecdfee85c84c1687a8be723daf9e6468b3769d618064ab028c024c78ceee1420aa313395a26e461dbfbd83be6c95966fd1c5c8a92447e82d52c4966ae9570cb8c4b824189f6b532e3c52c1a9a968bd55b6e0b503c91c3cabb1ba245db6885970ffc5e494d700b2d7c2086a2933ae1a0565f349179939c28b866e5453386985bcd72f25434314a08a5dbe71b4c2c42238988a16bfeb07c33826069e840307d539f8e9e49da00b49e01eb601335796868f2298160e630c5758890f3ceb5a5a4a21c81ed41ca66c34c216dd97275fff14f441e25e8a87c67816041fcb5cf6ac0012e3a348bbd1b58a1b78089f78dbbcf46558a2e975e918852484039727e003de831c2a22df49d9b70b6bbee67133b96309161f5b5e9a3ca8dd206b7d3371a26fdecf9c5ea034f98b4b0dfd099db505c9238f14ff8766915f309fc7d9590e7fa8d6045c147590430771063cff51cb15e19a7fc0e7e01d22db96a9336e2b37b66e3bb951cb4bf4ac4f54adc7913b112a979c66805225e7e3bb520bf8205d3b2124eb447f4f0d95c99e6659358c7c66b4c39eb9877596703499533e03c7f138a53f37256707c0ad2d4b6081c9b0b2049edabb3475b83ab8e77406e8ff803c80801ef456e75567eff0bf90455e77ab9b350a986d436a7e855b5362221f4e16fd89b2cc9f30944f2f9008244841b4d72935b03774b177a99754282c0046593e5e81b665f188d602be31dec0ee455423a0d0031a4b689f1d275b5f619382d69dba0a06a810d8cadd364d86cf9b070bed198fc7521cc93779f88729b77f7bfae4f65dcca40fa8eae178e18b7fbe728204a710b9649408b8904c934dd605cce1b94c08da4e078326215c3ba8b76b92a3759d308ef1fa21d6959953e15b4a021f0c981c919791735552fbfbb73e9d91a932c86ee9b1ce0ed3c3d78397222519b7fee392a111b91b20c2e86d86a7ca424278d0dfaf99cabbaf8e144a5817ec2f650d4fda4a3abdb453fb0f82e1dccc79a2ef5f94137bf86abe642b4a7edb6ac9e4a6a8733bbc42d9375690ec8dfa03a413d5c1ed37514b443cfc2a81b5c42931b709cea59e453207c0ddbead878f503564ad514e6cfcb25867c61479ebcf90e47b33274577d88e6647f42dfc13ab516ca7628f088c116134fa55d46b61a5ed03169e"
      ],
      "sequence": 4294967294
    }
  ],
  "vout": [
    {
      "value": 1.0,
      "n": 0,
      "scriptPubKey": {
        "asm": "OP_RETURN 8db8a52fcdf94ecbac45d904eacb1df3441b8fc6d6b43554c3b2cf15c1b66150 bf7f095bf6298c540899165cfbb18a4bdb1f5fa0d347115685cc38e3a275c6f59f5f297bd609ac7428b9367cdb91aa6bfb3f7f80f3673176a5ec18c38255e6d5ff3f491bb669cc1448d9561cbbf1ca0b9b5f1fe093075116c58c78a3e23586b5df1f693b9649ec3468f9763c9bd1ea2bbb7f3fc0b3277136e5ac5883c215a6953fff89db76a90cd4881996dc7b310acb5b9fdf2053c791d6054cb86322f546751fdfa9fb56892cf4a839b6fc5b112aeb7bbfff0073e7b1f6256c984302d566557fbfc99b36e94c94c859d69c3b714a8b1bdf9f601387d196450cf82362b506355f9fe9bb16c96cb4e879f6bc1b516aab3bffbf4033a7f1b6652cd80342952615bf7f095bf6298c540899165cfbb18a4bdb1f5fa0d347115685cc38e3a275c6f59f5f297bd609ac7428b9367cdb91aa6bfb3f7f80f3673176a5ec18c38255e6d5ff3f491bb669cc1448d9561cbbf1ca0b9b5f1fe093075116c58c78a3e23586b5df1f693b9649ec3468f9763c9bd1ea2bbb7f3fc0b3277136e5ac5883c215a6953fff89db76a90cd4881996dc7b310acb5b9fdf2053c791d6054cb86322f546751fdfa9fb56892cf4a839b6fc5b112aeb7bbfff0073e7b1f6256c984302d566557fbfc99b36e94c94c859d69c3b714a8b1bdf9f601387d196450cf82362b506355f9fe9bb16c96cb4e879f6bc1b516aab3bffbf4033a7f1b6652cd80342952615bf7f095bf6298c540899165cfbb18a4bdb1f5fa0d347115685cc38e3a275c6f59f5f297bd609ac7428b9367cdb91aa6bfb3f7f80f3673176a5ec18c38255e6d5ff3f491bb669cc1448d9561cbbf1ca0b9b5f1fe093075116c58c78a3e23586b5df1f693b9649ec3468f9763c9bd1ea2bbb7f3fc0b3277136e5ac5883c215a6953fff89db76a90cd4881996dc7b310acb5b9fdf2053c791d6054cb86322f546751fdfa9fb56892cf4a839b6fc5b112aeb7bbfff0073e7b1f6256c984302d566557fbfc99b36e94c94c859d69c3b714a8b1bdf9f601387d196450cf82362b506355f9fe9bb16c96cb4e879f6bc1b516aab3bffbf4033a7f1b6652cd80342952615bf7f095bf6298c540899165cfbb18a4bdb1f5fa0d347115685cc38e3a275c6f59f5f297bd609ac7428b9367cdb91aa6bfb3f7f80f3673176a5ec18c38255e6d5ff3f491bb669cc1448d9561cbbf1ca0b9b5f1fe093075116c58c78a3e23586b5df1f693b9649ec3468f9763c9bd1ea2bbb7f3fc0b3277136e5ac5883c215a6953fff89db76a90cd4881996dc7b310acb5b9fdf2053c791d6054cb86322f546751fdfa9fb56892cf4a839b6fc5b112aeb7bbfff0073e7b1f6256c984302d566557fbfc99b36e94c94c859d69c3b714a8b1bdf9f601387d196450cf82362b506355f9fe9bb16c96cb4e879f6bc1b516aab3bffbf4033a7f1b6652cd80342952615bf7f095bf6298c540899165cfbb18a4bdb1f5fa0d347115685cc38e3a275c6f59f5f297bd609ac7428b9367cdb91aa6bfb3f7f80f3673176a5ec18c38255e6d5ff3f491bb669cc1448d9561cbbf1ca0b9b5f1fe093075116c58c78a3e23586b5df1f693b9649ec3468f9763c9bd1ea2bbb7f3fc0b3277136e5ac5883c215a6953fff89db76a90cd4881996dc7b310acbf0b533ff8bf5901ff6b0b03f5a46176f5c51cd076f55988df631b2abc560772a",
        "hex": "6a208db8a52fcdf94ecbac45d904eacb1df3441b8fc6d6b43554c3b2cf15c1b661504db004bf7f095bf6298c540899165cfbb18a4bdb1f5fa0d347115685cc38e3a275c6f59f5f297bd609ac7428b9367cdb91aa6bfb3f7f80f3673176a5ec18c38255e6d5ff3f491bb669cc1448d9561cbbf1ca0b9b5f1fe093075116c58c78a3e23586b5df1f693b9649ec3468f9763c9bd1ea2bbb7f3fc0b3277136e5ac5883c215a6953fff89db76a90cd4881996dc7b310acb5b9fdf2053c791d6054cb86322f546751fdfa9fb56892cf4a839b6fc5b112aeb7bbfff0073e7b1f6256c984302d566557fbfc99b36e94c94c859d69c3b714a8b1bdf9f601387d196450cf82362b506355f9fe9bb16c96cb4e879f6bc1b516aab3bffbf4033a7f1b6652cd80342952615bf7f095bf6298c540899165cfbb18a4bdb1f5fa0d347115685cc38e3a275c6f59f5f297bd609ac7428b9367cdb91aa6bfb3f7f80f3673176a5ec18c38255e6d5ff3f491bb669cc1448d9561cbbf1ca0b9b5f1fe093075116c58c78a3e23586b5df1f693b9649ec3468f9763c9bd1ea2bbb7f3fc0b3277136e5ac5883c215a6953fff89db76a90cd4881996dc7b310acb5b9fdf2053c791d6054cb86322f546751fdfa9fb56892cf4a839b6fc5b112aeb7bbfff0073e7b1f6256c984302d566557fbfc99b36e94c94c859d69c3b714a8b1bdf9f601387d196450cf82362b506355f9fe9bb16c96cb4e879f6bc1b516aab3bffbf4033a7f1b6652cd80342952615bf7f095bf6298c540899165cfbb18a4bdb1f5fa0d347115685cc38e3a275c6f59f5f297bd609ac7428b9367cdb91aa6bfb3f7f80f3673176a5ec18c38255e6d5ff3f491bb669cc1448d9561cbbf1ca0b9b5f1fe093075116c58c78a3e23586b5df1f693b9649ec3468f9763c9bd1ea2bbb7f3fc0b3277136e5ac5883c215a6953fff89db76a90cd4881996dc7b310acb5b9fdf2053c791d6054cb86322f546751fdfa9fb56892cf4a839b6fc5b112aeb7bbfff0073e7b1f6256c984302d566557fbfc99b36e94c94c859d69c3b714a8b1bdf9f601387d196450cf82362b506355f9fe9bb16c96cb4e879f6bc1b516aab3bffbf4033a7f1b6652cd80342952615bf7f095bf6298c540899165cfbb18a4bdb1f5fa0d347115685cc38e3a275c6f59f5f297bd609ac7428b9367cdb91aa6bfb3f7f80f3673176a5ec18c38255e6d5ff3f491bb669cc1448d9561cbbf1ca0b9b5f1fe093075116c58c78a3e23586b5df1f693b9649ec3468f9763c9bd1ea2bbb7f3fc0b3277136e5ac5883c215a6953fff89db76a90cd4881996dc7b310acb5b9fdf2053c791d6054cb86322f546751fdfa9fb56892cf4a839b6fc5b112aeb7bbfff0073e7b1f6256c984302d566557fbfc99b36e94c94c859d69c3b714a8b1bdf9f601387d196450cf82362b506355f9fe9bb16c96cb4e879f6bc1b516aab3bffbf4033a7f1b6652cd80342952615bf7f095bf6298c540899165cfbb18a4bdb1f5fa0d347115685cc38e3a275c6f59f5f297bd609ac7428b9367cdb91aa6bfb3f7f80f3673176a5ec18c38255e6d5ff3f491bb669cc1448d9561cbbf1ca0b9b5f1fe093075116c58c78a3e23586b5df1f693b9649ec3468f9763c9bd1ea2bbb7f3fc0b3277136e5ac5883c215a6953fff89db76a90cd4881996dc7b310acbf0b533ff8bf5901ff6b0b03f5a46176f5c51cd076f55988df631b2abc560772a",
        "type": "nulldata"
      }
    },
    {
      "value": 499991.8648,
      "n": 1,
      "scriptPubKey": {
        "asm": "1 3791fd62b874203a0d53d524477945e8b4930af9c5ed5064cbd14428def358ae",
        "hex": "51203791fd62b874203a0d53d524477945e8b4930af9c5ed5064cbd14428def358ae",
        "reqSigs": 1,
        "type": "witness_v1_scripthash",
        "addresses": [
          "3QJmnh"
        ]
      }
    }
  ],
  "blockhash": "86d3aa2e412fd1c0ad7fd5d7d84b7ddcf41a8bf652344eaa49dd1e6444ae5dce",
  "confirmations": 1,
  "time": 1764176858,
  "blocktime": 1764176858
}