{
  "hex": "010000000001013f470265038dff683ae69329e1df94c2eb52a165e5e460069a590e7213e08f500100000000feffffff0200e1f50500000000fdd5046a2088766f01ee343818e078354999d435970472f0dc89bb89c2f1dace49f2d505dc4db00407d29a589047d96fbbec6e383d0afe1801df0d84ce633227eab83b562cebe58327f2ba78b067f94f9bcc4e181d2ade3821ff2da4ee431207ca981b760ccbc5a34792da18d007992ffbac2e787d4abe58419f4dc48e237267aaf87b166caba5c367b2fa38f027b90fdb8c0e585d6a9e7861bf6de4ae0352478ad85b364c8b85e387521ad810c759ef3b6ceeb8bd8a7e98815f8d044ee3b2a76a38bbd6ac6b6503a7723af830e779cf1b4cce989daa5eb8a17fad246ec392874a189bf68c4b4523c7125a98508719af7b2caef8fdca3ed8c11fcd440ea3f2e72a78fb96ec2b2543e7327ab870a7398f5b0c8ed8ddea1ef8e13fed642e83d2c70a58dbb6cc0b056307d29a589047d96fbbec6e383d0afe1801df0d84ce633227eab83b562cebe58327f2ba78b067f94f9bcc4e181d2ade3821ff2da4ee431207ca981b760ccbc5a34792da18d007992ffbac2e787d4abe58419f4dc48e237267aaf87b166caba5c367b2fa38f027b90fdb8c0e585d6a9e7861bf6de4ae0352478ad85b364c8b85e387521ad810c759ef3b6ceeb8bd8a7e98815f8d044ee3b2a76a38bbd6ac6b6503a7723af830e779cf1b4cce989daa5eb8a17fad246ec392874a189bf68c4b4523c7125a98508719af7b2caef8fdca3ed8c11fcd440ea3f2e72a78fb96ec2b2543e7327ab870a7398f5b0c8ed8ddea1ef8e13fed642e83d2c70a58dbb6cc0b056307d29a589047d96fbbec6e383d0afe1801df0d84ce633227eab83b562cebe58327f2ba78b067f94f9bcc4e181d2ade3821ff2da4ee431207ca981b760ccbc5a34792da18d007992ffbac2e787d4abe58419f4dc48e237267aaf87b166caba5c367b2fa38f027b90fdb8c0e585d6a9e7861bf6de4ae0352478ad85b364c8b85e387521ad810c759ef3b6ceeb8bd8a7e98815f8d044ee3b2a76a38bbd6ac6b6503a7723af830e779cf1b4cce989daa5eb8a17fad246ec392874a189bf68c4b4523c7125a98508719af7b2caef8fdca3ed8c11fcd440ea3f2e72a78fb96ec2b2543e7327ab870a7398f5b0c8ed8ddea1ef8e13fed642e83d2c70a58dbb6cc0b056307d29a589047d96fbbec6e383d0afe1801df0d84ce633227eab83b562cebe58327f2ba78b067f94f9bcc4e181d2ade3821ff2da4ee431207ca981b760ccbc5a34792da18d007992ffbac2e787d4abe58419f4dc48e237267aaf87b166caba5c367b2fa38f027b90fdb8c0e585d6a9e7861bf6de4ae0352478ad85b364c8b85e387521ad810c759ef3b6ceeb8bd8a7e98815f8d044ee3b2a76a38bbd6ac6b6503a7723af830e779cf1b4cce989daa5eb8a17fad246ec392874a189bf68c4b4523c7125a98508719af7b2caef8fdca3ed8c11fcd440ea3f2e72a78fb96ec2b2543e7327ab870a7398f5b0c8ed8ddea1ef8e13fed642e83d2c70a58dbb6cc0b056307d29a589047d96fbbec6e383d0afe1801df0d84ce633227eab83b562cebe58327f2ba78b067f94f9bcc4e181d2ade3821ff2da4ee431207ca981b760ccbc5a34792da18d007992ffbac2e787d4abe58419f4dc48e237267aaf87b166caba5c367b2fa38f027b90fdb8c0e585d6a9e7861bf6de4ae0352478ad85b364c8b85e387521ad810c759ef3b6ceeb8bd8a7e985ffef6bbf2119549314055f771a2d2107db7893e25fbb7943ddaabf8d11b08a6c075fe6f792d000022512082e20cd2cb6b189daa7b90e34e46bff4663d9e45399ba65e10e15582a8d7d14002fd75091d3296e5f17d369f8b675262a87674e392ab2d2e7c1926be8de0c536855f9cd8510f5e8294b2e5a167955f66eb829c593fb7465a12f7eca29e970072f60e4d3a25afcd807477d0e3fa22d0a9654ec08a71176d4ad9d3914265310245285bd8dca568cb778bf7c81134fbeead22bf7bed8f9c2b2bcf0532dbc2ead0805ab7d9b4e7586c533c0de3ae0702ef1a0001c0b7cf394e1a2c88e08caf0c54884d5610a76a4807fb2985d4ce57f2db7693c7057286cdfdf85bb9f138dd05652482472669612c6b36fa1fd244bfa9e1b7e4ff60487ed4fc1cacf21f91c587fa4699fdfd44fbbde849531c0135c895e7d2cc22717a10ffc761331724cd7d544426b24e7de0514e8a446f600ae9c8d629e444dd7fd840084a35e1440f4af375a486d866c5fed3bff43cb1a39a80f89f4ca236f7c13fc039117fcc2a46e5b0a4ddd74cf5733921ea18b04a30dc0dbba97fed2e935a6f508b3197af2b7baf712ef8d3bd689e70b481ac5c2eb3368bd77ad567997f56d8ff921ff713c2704f9ffa05bcb67cdff2f4a122e268205131fceb2513686c8898461f1aad9885b59ff2291bdae0e63c6f1873ec41db9576750bf9d660f494805a0276289a112d9ef4232c681f3a4191702a4b6caf6fa33342015de3fe31861bd804a40cf13000b3bfe5c1bc677d4d0c7bdeb557b5cb5407eb5f359e8efa18f2ff057fb7cccf438da17d1f502726c666d720243648e9e83295f72d92eae5ce276a804dc920bca248913415ee7cf5d401173ab51f738cb5d99cbfc7d00035454703e35a4f9615ce37f2d7acaae2b9cb0872586336669e9e6161924568040cc1d451b6fd5e095c73f46a79da3c7350c448b05a6ace22304fa85625c0b86c093b2f0b07894eb1c510596f9fa62957a769700ef9fd4371dc400e51b3e367369c407ced6813687c8a97ddd0f22b0e92ae71b282a6dab65d76cb8d7562b0f10e67881b60ae9fd0d08fe6f9b942f956ee40fb6da80c4a9b2822e5324b90148c384b522c84449378554a59d48c83ef90a8cb2b059a6ea44a8f3ebadb95646a796bb9aa0dafe12fa72bb8225923f7f1349c8530aa508d7e7b7a220296dff9eafde9cebcb62eded3c6eeaf20db2b39dde79a9d6a9029acd916dfb41966b133e9af76424b874fc2a29c4dd8fd9a3af328a52116c1af5139ea4044b01f68ad496b1d6b464e57ba9d51958efa59090e7234a94f63036a95f3ffe330469ddf20b614e8dc68ddfd2b4105abbd660132813c2f93060ec1a760a08250b101b33f231a4426c16f21a102a4aaf7ea4961d69812258309be9e8595769b69654302c2ea473c0548f211a4cab8c9a9b7bde784835bfcb1659c8a4235240fdeb2c90332b189c80e8f2eb5d33773a64f4cca1824248942409888b785d9ec6be1b25416154f8ab77fb24e05e3d113d2f234de2273c169852aeb89f9934add40908c31612e322e45fc497150bcf5aebd730484ea4cffc3ee8ec918d101101b5d8137f9a8821770024ee616cefa7586f96964e28dfe11bfaa807547900e5d7cabe6c89a05152f00d1b8323c39b50f2a16852fb0a18d93d8c019f3e69e6f2b18dee27820560fe8d19b9ce6dee2c2b6d7b3496349e24f580f34afd0966d671263064b2780b46e5aaaf8e2109206ed365af82bd9ef39c6ef00e8bae35944c818be8404e53a3ebf65760e53ec6c469e297ead7cb354b88bc7ede8962a90fdb49d5c98cc6068fef60b97ea14f0b754d03decbf1d964407cf41fff2acc887195a650af30e1b3d1576f49fea229834c0848b7005afcc5c23934b8bf328c2e4ff80dbc57de06c801b6133fb5f38b8bf3d30dceea2c17f1705bdda43b036583469ba171c2e3067e1f9b47c0b9125ad0d2c6e6dea880ebef6f9085d63be63ff523315a730fb1b5db0a5f69dd2f90b728165e12069731245bb6aab2cd577c6621dc14c2dbfe755d5959ea3dcc46cfa3f77566b880a3c6cee8a9272d33df32b8f1db222ea3274d27d173a04b246e6581a43212fef889b300159277c6e011f0d5b23071010ebc7d15094067786b5cdbe0d97b8354702ff9202e2d43cb9133626179cc839f8612d0e639ea3bd2e1c19355cc27913bf48626e85738eb030f38779635de18e9a0df5417af07b6f8f5e24a325d8ffec76ed62d2c8f2a296cc02e062e30d06a96b3741e89c7e308696210a404c03a9e8df8ac12eb9978eaaa2fdfbc59705d3a75a13d9f434e7c689c51edcdef3004c88bb7587ba055037baa80273dabfb6c539679141ab3debcb20ab2fa860916a5778e7661c56acf3b693cedaee69773b75c01304dbf19faf03949f91c0b553bcbf75dd5b806a12b79c9f567726e9a9b17d95a297bcd010617e1d513f5e5f656f60662da7b30abba16f8a6e74126cfaedd51b5c7c1747d56d50f41614a986bf435f62a3a2e19710cbca8eae9aa4c8302671d26ddfbe3cb5c79c96a2c5a1b733094f7a5916043eea5dc686f982587932c80a98925ef0a20636616a85018b5eda17fa0ee84bba70a64988b92b147028c098a6f8106019c8c731b07217a657bbc8fc6ae7b11e777f38279058ffe9e3e2056a124968405ed805da3dca2c9908cb1ada2ac9bdcbf4f9aeafc4ece3e30f69e7e86e4b7364a47d80b8bcdbd5e8230ca06ad119b138af5d9c830bc23159b87bb5032e9c3616d25323686c20734645930243b6f4dce20e0d266494808330ff3548d61500a39a6b5367fa3b80aeaa5ea6e6db41dbb20a4d58dde0c17a47c7b481b7eb3a18a99b2fb997bb82bfe529540b2bce44f4fc2e5d8d1ca30ce5fbccdd60b1bff4cd9f8e6e2eb9f98dca28dae8d7d948cfbe9594805fdd8feb4381532859fabfb8edb75d400255c40a9faed7dda9dfb3d546dfcd7f13887d2238bd381beb5205394d8edf201946b58f580dea4821a77a466aba3c6c5e11d2cc3cc4b3252b7cc9f79be8d48fa8261cac8bcb989427edf1f0dbbd8e385b007c35c9d99b860258488872a45266c191159ce3c11858c84bb9d36a2461d9a5c4528a95326aa91ad84ee46a70b4b00a1c400f13cd0e0c76aa81fb29a375c3f58d2c68911bd8aea18a5bf476a5cf39820963b5ebb95e945f570c52ea58c480f5e120543ce9be3318b2abeab10e94e0757d0ce478bb35fc267e3c05bbf9e74079a75de206bc8781fb5eadc99437b51a64c1f3dd14c9fb6249c866b76fa7009fb8c2a41b471bf3df7b7a1eeb39f8ae00a355015f2074d0ee58759859fc17493e4b35ee68b3cd4899b914a3e873358fec78c20ef5968259dc871c4358a70b8b005b202a9a859e7e678de1fe7dc2980c2d37454a515465859ca5acb3e7ea1b1f21233b455679879caaabc0c4ccced9e1e30d28353a506b6d83b0cbd0fd030416232f434d8fa6a8c6cbdef300000000000000000000000000000000000000000f222e3c01fd210500f7fc5b4dacbf9e3b5eaa1b120919bce0dd7de9d46de0749d14caab7af1edd793ac270c630c3fe50a18cff4a82c8036135336dae1e9ed63ef325dc8b03f5b8efaac3c8c744555a55039d0084c5434e391d3ca4831c5336b7e4e87db90649674ed154b7452982fdc013ac884076017ebed59e05ad6c3bd1d8ec5e9ea8e385af5004f4c70d9f7c4ab1411992d0a50cc98f1d61b7a5068eab27677b277864a412a1d212daf31fe41601ce1efaa9bfa6c45142785c7a08058e2b30b3ca332498a19f5ccb3035314a723b93e2a07f4e1b667ab7f0e718347e241d146399d18035c55a5f0ab147f50fbd34be33df3029373cc6dd6bda09f09b16e39db77b576a7abca4f2aaf1dc7e71250848e46dd64dff271b613dd7f9a9e4251002ccef5a7a1ac10e35519419b46c1d6df4c21b111401f7523a09b85129b1b41cd0e19c8e30805d106b134e9fbf741dea147489229f14509419ed3c2e0ada905eb244b74b065c3a0fe0380061863b1b599c652dbac837c33442e3c1095bb313e9428ceb4e08bcbbf4c8ab1f81914c47735065584cf1a60df596348cc30ae984aaf0989bf63b9876d21d4814cffb783d441563b1caff26d8e5228547cb2dc28ec6652a2bea48627d35c79bcf50aff4eda744bffd9d629a4c2195829a36b87714c0572339fb5229e4f5a5e01268b12f245960a555aeb37a07ad3ab01fb2e10a19054f4eb456c596ad59bdfbbdb558529af9cc44cd3ed35937c403c974ea3dc92bebbf992ae0b9f49318995a1e99b243016c8182f41c78a7c3659fa675fa63844e364955097678f50659ae8c1401d3645b14daa59602431dca8da7adf7a7eabb8fb3284df6469e070157b0e02db36867e620a222a5351a994e208d4e7d195b90a1bc69dbbee46a934e437d43abe713fb1f60899d723de3935de3a1d238a20f4a65648f724b1e4c98b5ae49cf33d4823261b79fbc896ba23cb0ff9e580270be6c49487ead9d73f9267e2c58d31255170bc118b638cb2e1deddac58d3b2daa2555319abc1fe3d6fb8280d6db271ee8ab8427f7e23cd5e72786febf516c0aa2c81c2cf8ccc0b94ff851e6533ca26ae410a514d3acee198fe7e3758e16a93f9412803746675717f62b474d6f3a441e17ce3de5b4ab3828a90247fab45424ec79659e98dbd27f3873fb04d72f0ac3df552c75298b0149978a61ce50d4f62d640d9bcdb597c8549afc0747a4cea2d4eef0fa8d19fb15e3a15de77c1c440a59d8fcedf99c36c35f7503c2ea537a9e7ac52907a31bf389af91b4b5b7f0b2732cea98aa3c3df9cc963d2afd36d63013432d797a9bc7a490a2d90beadf21344665d3c2a05893571cdb59ccc012709e5bb44ca67dd3222d31790ce224219645f9002c2a32ed4ae02959e67783279d9473d1e4833bdfdf2a326cb151c899f908fdc1ec80e6fc9c50c0b473abeef1776cc8bd517ebeb530ca238a8864a951145ce6263c0d3b98509f0e021764ae08041c0e08d572ee93e9efa2f5e1a808bd28113c3d09c1e111e89fa700388078fa9bb2eaad406bbbbce734a44d1fa1d923119a87362fb7222608ac24372975d32adc10745c1949f4ebe2359d3a0ce74fafa72a8c654c628bd0db91133a951903563594ba8f502ebd25d7d91a72693bf39af4c958edba06bee829fd47438bdc80ad35a3321a5d5044e29ff055a62acd4d9741b6ffea31f7e7bdeda305ad8f3d81896cdda24abd60bf3d368e5af1cc9628fb5496ba625680e47f1a5c1784d9fd56ba37851b947a7ae79fc7a42fd477d986e4d751693721390e3a8f6f3c88574d6a9c1e7fef5229cb8840aa3d39d092b0c75a2161070536d793195b2886caf2eec52ce4e5167000000",
  "txid": "7040a2f9820c8c3203a3fdc72c18d7d2e84f23d506a0e9fbde4094f5d50b6b66",
  "hash": "bb6a9029d377c96a15bb56891b6be514f2f7f0ec0d73207eedd693b2161241be",
  "size": 5085,
  "vsize": 2278,
  "version": 1,
  "locktime": 103,
  "vin": [
    {
      "txid": "508fe013720e599a0660e4e565a152ebc294dfe12993e63a68ff8d036502473f",
      "vout": 1,
      "scriptSig": {
        "asm": "",
        "hex": ""
      },
      "txinwitness": [
        "1d3296e5f17d369f8b675262a87674e392ab2d2e7c1926be8de0c536855f9cd8510f5e8294b2e5a167955f66eb829c593fb7465a12f7eca29e970072f60e4d3a25afcd807477d0e3fa22d0a9654ec08a71176d4ad9d3914265310245285bd8dca568cb778bf7c81134fbeead22bf7bed8f9c2b2bcf0532dbc2ead0805ab7d9b4e7586c533c0de3ae0702ef1a0001c0b7cf394e1a2c88e08caf0c54884d5610a76a4807fb2985d4ce57f2db7693c7057286cdfdf85bb9f138dd05652482472669612c6b36fa1fd244bfa9e1b7e4ff60487ed4fc1cacf21f91c587fa4699fdfd44fbbde849531c0135c895e7d2cc22717a10ffc761331724cd7d544426b24e7de0514e8a446f600ae9c8d629e444dd7fd840084a35e1440f4af375a486d866c5fed3bff43cb1a39a80f89f4ca236f7c13fc039117fcc2a46e5b0a4ddd74cf5733921ea18b04a30dc0dbba97fed2e935a6f508b3197af2b7baf712ef8d3bd689e70b481ac5c2eb3368bd77ad567997f56d8ff921ff713c2704f9ffa05bcb67cdff2f4a122e268205131fceb2513686c8898461f1aad9885b59ff2291bdae0e63c6f1873ec41db9576750bf9d660f494805a0276289a112d9ef4232c681f3a4191702a4b6caf6fa33342015de3fe31861bd804a40cf13000b3bfe5c1bc677d4d0c7bdeb557b5cb5407eb5f359e8efa18f2ff057fb7cccf438da17d1f502726c666d720243648e9e83295f72d92eae5ce276a804dc920bca248913415ee7cf5d401173ab51f738cb5d99cbfc7d00035454703e35a4f9615ce37f2d7acaae2b9cb0872586336669e9e6161924568040cc1d451b6fd5e095c73f46a79da3c7350c448b05a6ace22304fa85625c0b86c093b2f0b07894eb1c510596f9fa62957a769700ef9fd4371dc400e51b3e367369c407ced6813687c8a97ddd0f22b0e92ae71b282a6dab65d76cb8d7562b0f10e67881b60ae9fd0d08fe6f9b942f956ee40fb6da80c4a9b2822e5324b90148c384b522c84449378554a59d48c83ef90a8cb2b059a6ea44a8f3ebadb95646a796bb9aa0dafe12fa72bb8225923f7f1349c8530aa508d7e7b7a220296dff9eafde9cebcb62eded3c6eeaf20db2b39dde79a9d6a9029acd916dfb41966b133e9af76424b874fc2a29c4dd8fd9a3af328a52116c1af5139ea4044b01f68ad496b1d6b464e57ba9d51958efa59090e7234a94f63036a95f3ffe330469ddf20b614e8dc68ddfd2b4105abbd660132813c2f93060ec1a760a08250b101b33f231a4426c16f21a102a4aaf7ea4961d69812258309be9e8595769b69654302c2ea473c0548f211a4cab8c9a9b7bde784835bfcb1659c8a4235240fdeb2c90332b189c80e8f2eb5d33773a64f4cca1824248942409888b785d9ec6be1b25416154f8ab77fb24e05e3d113d2f234de2273c169852aeb89f9934add40908c31612e322e45fc497150bcf5aebd730484ea4cffc3ee8ec918d101101b5d8137f9a8821770024ee616cefa7586f96964e28dfe11bfaa807547900e5d7cabe6c89a05152f00d1b8323c39b50f2a16852fb0a18d93d8c019f3e69e6f2b18dee27820560fe8d19b9ce6dee2c2b6d7b3496349e24f580f34afd0966d671263064b2780b46e5aaaf8e2109206ed365af82bd9ef39c6ef00e8bae35944c818be8404e53a3ebf65760e53ec6c469e297ead7cb354b88bc7ede8962a90fdb49d5c98cc6068fef60b97ea14f0b754d03decbf1d964407cf41fff2acc887195a650af30e1b3d1576f49fea229834c0848b7005afcc5c23934b8bf328c2e4ff80dbc57de06c801b6133fb5f38b8bf3d30dceea2c17f1705bdda43b036583469ba171c2e3067e1f9b47c0b9125ad0d2c6e6dea880ebef6f9085d63be63ff523315a730fb1b5db0a5f69dd2f90b728165e12069731245bb6aab2cd577c6621dc14c2dbfe755d5959ea3dcc46cfa3f77566b880a3c6cee8a9272d33df32b8f1db222ea3274d27d173a04b246e6581a43212fef889b300159277c6e011f0d5b23071010ebc7d15094067786b5cdbe0d97b8354702ff9202e2d43cb9133626179cc839f8612d0e639ea3bd2e1c19355cc27913bf48626e85738eb030f38779635de18e9a0df5417af07b6f8f5e24a325d8ffec76ed62d2c8f2a296cc02e062e30d06a96b3741e89c7e308696210a404c03a9e8df8ac12eb9978eaaa2fdfbc59705d3a75a13d9f434e7c689c51edcdef3004c88bb7587ba055037baa80273dabfb6c539679141ab3debcb20ab2fa860916a5778e7661c56acf3b693cedaee69773b75c01304dbf19faf03949f91c0b553bcbf75dd5b806a12b79c9f567726e9a9b17d95a297bcd010617e1d513f5e5f656f60662da7b30abba16f8a6e74126cfaedd51b5c7c1747d56d50f41614a986bf435f62a3a2e19710cbca8eae9aa4c8302671d26ddfbe3cb5c79c96a2c5a1b733094f7a5916043eea5dc686f982587932c80a98925ef0a20636616a85018b5eda17fa0ee84bba70a64988b92b147028c098a6f8106019c8c731b07217a657bbc8fc6ae7b11e777f38279058ffe9e3e2056a124968405ed805da3dca2c9908cb1ada2ac9bdcbf4f9aeafc4ece3e30f69e7e86e4b7364a47d80b8bcdbd5e8230ca06ad119b138af5d9c830bc23159b87bb5032e9c3616d25323686c20734645930243b6f4dce20e0d266494808330ff3548d61500a39a6b5367fa3b80aeaa5ea6e6db41dbb20a4d58dde0c17a47c7b481b7eb3a18a99b2fb997bb82bfe529540b2bce44f4fc2e5d8d1ca30ce5fbccdd60b1bff4cd9f8e6e2eb9f98dca28dae8d7d948cfbe9594805fdd8feb4381532859fabfb8edb75d400255c40a9faed7dda9dfb3d546dfcd7f13887d2238bd381beb5205394d8edf201946b58f580dea4821a77a466aba3c6c5e11d2cc3cc4b3252b7cc9f79be8d48fa8261cac8bcb989427edf1f0dbbd8e385b007c35c9d99b860258488872a45266c191159ce3c11858c84bb9d36a2461d9a5c4528a95326aa91ad84ee46a70b4b00a1c400f13cd0e0c76aa81fb29a375c3f58d2c68911bd8aea18a5bf476a5cf39820963b5ebb95e945f570c52ea58c480f5e120543ce9be3318b2abeab10e94e0757d0ce478bb35fc267e3c05bbf9e74079a75de206bc8781fb5eadc99437b51a64c1f3dd14c9fb6249c866b76fa7009fb8c2a41b471bf3df7b7a1eeb39f8ae00a355015f2074d0ee58759859fc17493e4b35ee68b3cd4899b914a3e873358fec78c20ef5968259dc871c4358a70b8b005b202a9a859e7e678de1fe7dc2980c2d37454a515465859ca5acb3e7ea1b1f21233b455679879caaabc0c4ccced9e1e30d28353a506b6d83b0cbd0fd030416232f434d8fa6a8c6cbdef300000000000000000000000000000000000000000f222e3c01",
        "00f7fc5b4dacbf9e3b5eaa1b120919bce0dd7de9d46de0749d14caab7af1edd793ac270c630c3fe50a18cff4a82c8036135336dae1e9ed63ef325dc8b03f5b8efaac3c8c744555a55039d0084c5434e391d3ca4831c5336b7e4e87db90649674ed154b7452982fdc013ac884076017ebed59e05ad6c3bd1d8ec5e9ea8e385af5004f4c70d9f7c4ab1411992d0a50cc98f1d61b7a5068eab27677b277864a412a1d212daf31fe41601ce1efaa9bfa6c45142785c7a08058e2b30b3ca332498a19f5ccb3035314a723b93e2a07f4e1b667ab7f0e718347e241d146399d18035c55a5f0ab147f50fbd34be33df3029373cc6dd6bda09f09b16e39db77b576a7abca4f2aaf1dc7e71250848e46dd64dff271b613dd7f9a9e4251002ccef5a7a1ac10e35519419b46c1d6df4c21b111401f7523a09b85129b1b41cd0e19c8e30805d106b134e9fbf741dea147489229f14509419ed3c2e0ada905eb244b74b065c3a0fe0380061863b1b599c652dbac837c33442e3c1095bb313e9428ceb4e08bcbbf4c8ab1f81914c47735065584cf1a60df596348cc30ae984aaf0989bf63b9876d21d4814cffb783d441563b1caff26d8e5228547cb2dc28ec6652a2bea48627d35c79bcf50aff4eda744bffd9d629a4c2195829a36b87714c0572339fb5229e4f5a5e01268b12f245960a555aeb37a07ad3ab01fb2e10a19054f4eb456c596ad59bdfbbdb558529af9cc44cd3ed35937c403c974ea3dc92bebbf992ae0b9f49318995a1e99b243016c8182f41c78a7c3659fa675fa63844e364955097678f50659ae8c1401d3645b14daa59602431dca8da7adf7a7eabb8fb3284df6469e070157b0e02db36867e620a222a5351a994e208d4e7d195b90a1bc69dbbee46a934e437d43abe713fb1f60899d723de3935de3a1d238a20f4a65648f724b1e4c98b5ae49cf33d4823261b79fbc896ba23cb0ff9e580270be6c49487ead9d73f9267e2c58d31255170bc118b638cb2e1deddac58d3b2daa2555319abc1fe3d6fb8280d6db271ee8ab8427f7e23cd5e72786febf516c0aa2c81c2cf8ccc0b94ff851e6533ca26ae410a514d3acee198fe7e3758e16a93f9412803746675717f62b474d6f3a441e17ce3de5b4ab3828a90247fab45424ec79659e98dbd27f3873fb04d72f0ac3df552c75298b0149978a61ce50d4f62d640d9bcdb597c8549afc0747a4cea2d4eef0fa8d19fb15e3a15de77c1c440a59d8fcedf99c36c35f7503c2ea537a9e7ac52907a31bf389af91b4b5b7f0b2732cea98aa3c3df9cc963d2afd36d63013432d797a9bc7a490a2d90beadf21344665d3c2a05893571cdb59ccc012709e5bb44ca67dd3222d31790ce224219645f9002c2a32ed4ae02959e67783279d9473d1e4833bdfdf2a326cb151c899f908fdc1ec80e6fc9c50c0b473abeef1776cc8bd517ebeb530ca238a8864a951145ce6263c0d3b98509f0e021764ae08041c0e08d572ee93e9efa2f5e1a808bd28113c3d09c1e111e89fa700388078fa9bb2eaad406bbbbce734a44d1fa1d923119a87362fb7222608ac24372975d32adc10745c1949f4ebe2359d3a0ce74fafa72a8c654c628bd0db91133a951903563594ba8f502ebd25d7d91a72693bf39af4c958edba06bee829fd47438bdc80ad35a3321a5d5044e29ff055a62acd4d9741b6ffea31f7e7bdeda305ad8f3d81896cdda24abd60bf3d368e5af1cc9628fb5496ba625680e47f1a5c1784d9fd56ba37851b947a7ae79fc7a42fd477d986e4d751693721390e3a8f6f3c88574d6a9c1e7fef5229cb8840aa3d39d092b0c75a2161070536d793195b2886caf2eec52ce4e51"
      ],
      "sequence": 4294967294
    }
  ],
  "vout": [
    {
      "value": 1.0,
      "n": 0,
      "scriptPubKey": {
        "asm": "OP_RETURN 88766f01ee343818e078354999d435970472f0dc89bb89c2f1dace49f2d505dc 07d29a589047d96fbbec6e383d0afe1801df0d84ce633227eab83b562cebe58327f2ba78b067f94f9bcc4e181d2ade3821ff2da4ee431207ca981b760ccbc5a34792da18d007992ffbac2e787d4abe58419f4dc48e237267aaf87b166caba5c367b2fa38f027b90fdb8c0e585d6a9e7861bf6de4ae0352478ad85b364c8b85e387521ad810c759ef3b6ceeb8bd8a7e98815f8d044ee3b2a76a38bbd6ac6b6503a7723af830e779cf1b4cce989daa5eb8a17fad246ec392874a189bf68c4b4523c7125a98508719af7b2caef8fdca3ed8c11fcd440ea3f2e72a78fb96ec2b2543e7327ab870a7398f5b0c8ed8ddea1ef8e13fed642e83d2c70a58dbb6cc0b056307d29a589047d96fbbec6e383d0afe1801df0d84ce633227eab83b562cebe58327f2ba78b067f94f9bcc4e181d2ade3821ff2da4ee431207ca981b760ccbc5a34792da18d007992ffbac2e787d4abe58419f4dc48e237267aaf87b166caba5c367b2fa38f027b90fdb8c0e585d6a9e7861bf6de4ae0352478ad85b364c8b85e387521ad810c759ef3b6ceeb8bd8a7e98815f8d044ee3b2a76a38bbd6ac6b6503a7723af830e779cf1b4cce989daa5eb8a17fad246ec392874a189bf68c4b4523c7125a98508719af7b2caef8fdca3ed8c11fcd440ea3f2e72a78fb96ec2b2543e7327ab870a7398f5b0c8ed8ddea1ef8e13fed642e83d2c70a58dbb6cc0b056307d29a589047d96fbbec6e383d0afe1801df0d84ce633227eab83b562cebe58327f2ba78b067f94f9bcc4e181d2ade3821ff2da4ee431207ca981b760ccbc5a34792da18d007992ffbac2e787d4abe58419f4dc48e237267aaf87b166caba5c367b2fa38f027b90fdb8c0e585d6a9e7861bf6de4ae0352478ad85b364c8b85e387521ad810c759ef3b6ceeb8bd8a7e98815f8d044ee3b2a76a38bbd6ac6b6503a7723af830e779cf1b4cce989daa5eb8a17fad246ec392874a189bf68c4b4523c7125a98508719af7b2caef8fdca3ed8c11fcd440ea3f2e72a78fb96ec2b2543e7327ab870a7398f5b0c8ed8ddea1ef8e13fed642e83d2c70a58dbb6cc0b056307d29a589047d96fbbec6e383d0afe1801df0d84ce633227eab83b562cebe58327f2ba78b067f94f9bcc4e181d2ade3821ff2da4ee431207ca981b760ccbc5a34792da18d007992ffbac2e787d4abe58419f4dc48e237267aaf87b166caba5c367b2fa38f027b90fdb8c0e585d6a9e7861bf6de4ae0352478ad85b364c8b85e387521ad810c759ef3b6ceeb8bd8a7e98815f8d044ee3b2a76a38bbd6ac6b6503a7723af830e779cf1b4cce989daa5eb8a17fad246ec392874a189bf68c4b4523c7125a98508719af7b2caef8fdca3ed8c11fcd440ea3f2e72a78fb96ec2b2543e7327ab870a7398f5b0c8ed8ddea1ef8e13fed642e83d2c70a58dbb6cc0b056307d29a589047d96fbbec6e383d0afe1801df0d84ce633227eab83b562cebe58327f2ba78b067f94f9bcc4e181d2ade3821ff2da4ee431207ca981b760ccbc5a34792da18d007992ffbac2e787d4abe58419f4dc48e237267aaf87b166caba5c367b2fa38f027b90fdb8c0e585d6a9e7861bf6de4ae0352478ad85b364c8b85e387521ad810c759ef3b6ceeb8bd8a7e985ffef6bbf2119549314055f771a2d2107db7893e25fbb7943ddaabf8d11b08a6",
        "hex": "6a2088766f01ee343818e078354999d435970472f0dc89bb89c2f1dace49f2d505dc4db00407d29a589047d96fbbec6e383d0afe1801df0d84ce633227eab83b562cebe58327f2ba78b067f94f9bcc4e181d2ade3821ff2da4ee431207ca981b760ccbc5a34792da18d007992ffbac2e787d4abe58419f4dc48e237267aaf87b166caba5c367b2fa38f027b90fdb8c0e585d6a9e7861bf6de4ae0352478ad85b364c8b85e387521ad810c759ef3b6ceeb8bd8a7e98815f8d044ee3b2a76a38bbd6ac6b6503a7723af830e779cf1b4cce989daa5eb8a17fad246ec392874a189bf68c4b4523c7125a98508719af7b2caef8fdca3ed8c11fcd440ea3f2e72a78fb96ec2b2543e7327ab870a7398f5b0c8ed8ddea1ef8e13fed642e83d2c70a58dbb6cc0b056307d29a589047d96fbbec6e383d0afe1801df0d84ce633227eab83b562cebe58327f2ba78b067f94f9bcc4e181d2ade3821ff2da4ee431207ca981b760ccbc5a34792da18d007992ffbac2e787d4abe58419f4dc48e237267aaf87b166caba5c367b2fa38f027b90fdb8c0e585d6a9e7861bf6de4ae0352478ad85b364c8b85e387521ad810c759ef3b6ceeb8bd8a7e98815f8d044ee3b2a76a38bbd6ac6b6503a7723af830e779cf1b4cce989daa5eb8a17fad246ec392874a189bf68c4b4523c7125a98508719af7b2caef8fdca3ed8c11fcd440ea3f2e72a78fb96ec2b2543e7327ab870a7398f5b0c8ed8ddea1ef8e13fed642e83d2c70a58dbb6cc0b056307d29a589047d96fbbec6e383d0afe1801df0d84ce633227eab83b562cebe58327f2ba78b067f94f9bcc4e181d2ade3821ff2da4ee431207ca981b760ccbc5a34792da18d007992ffbac2e787d4abe58419f4dc48e237267aaf87b166caba5c367b2fa38f027b90fdb8c0e585d6a9e7861bf6de4ae0352478ad85b364c8b85e387521ad810c759ef3b6ceeb8bd8a7e98815f8d044ee3b2a76a38bbd6ac6b6503a7723af830e779cf1b4cce989daa5eb8a17fad246ec392874a189bf68c4b4523c7125a98508719af7b2caef8fdca3ed8c11fcd440ea3f2e72a78fb96ec2b2543e7327ab870a7398f5b0c8ed8ddea1ef8e13fed642e83d2c70a58dbb6cc0b056307d29a589047d96fbbec6e383d0afe1801df0d84ce633227eab83b562cebe58327f2ba78b067f94f9bcc4e181d2ade3821ff2da4ee431207ca981b760ccbc5a34792da18d007992ffbac2e787d4abe58419f4dc48e237267aaf87b166caba5c367b2fa38f027b90fdb8c0e585d6a9e7861bf6de4ae0352478ad85b364c8b85e387521ad810c759ef3b6ceeb8bd8a7e98815f8d044ee3b2a76a38bbd6ac6b6503a7723af830e779cf1b4cce989daa5eb8a17fad246ec392874a189bf68c4b4523c7125a98508719af7b2caef8fdca3ed8c11fcd440ea3f2e72a78fb96ec2b2543e7327ab870a7398f5b0c8ed8ddea1ef8e13fed642e83d2c70a58dbb6cc0b056307d29a589047d96fbbec6e383d0afe1801df0d84ce633227eab83b562cebe58327f2ba78b067f94f9bcc4e181d2ade3821ff2da4ee431207ca981b760ccbc5a34792da18d007992ffbac2e787d4abe58419f4dc48e237267aaf87b166caba5c367b2fa38f027b90fdb8c0e585d6a9e7861bf6de4ae0352478ad85b364c8b85e387521ad810c759ef3b6ceeb8bd8a7e985ffef6bbf2119549314055f771a2d2107db7893e25fbb7943ddaabf8d11b08a6",
        "type": "nulldata"
      }
    },
    {
      "value": 499995.9324,
      "n": 1,
      "scriptPubKey": {
        "asm": "1 82e20cd2cb6b189daa7b90e34e46bff4663d9e45399ba65e10e15582a8d7d140",
        "hex": "512082e20cd2cb6b189daa7b90e34e46bff4663d9e45399ba65e10e15582a8d7d140",
        "reqSigs": 1,
        "type": "witness_v1_scripthash",
        "addresses": [
          "3QJmnh"
        ]
      }
    }
  ],
  "blockhash": "15af9b025c636b87e0a10c18a1a8de0e5f3c2069ad563b293161176d75df89a4",
  "confirmations": 1,
  "time": 1764174659,
  "blocktime": 1764174659
}