{
  "hex": "010000000001018232e03242184a8b5dc6d75126e707a1eb13e9ab3ee9c2ce97ab1769212498f00100000000feffffff02a020df63792d00002251204e3ad02567722cb048cd935c300631c98a2dbc9b144581389bc3d4620369e2f800e1f50500000000fdd5046a20a3003d3db50cb8d1c9ec5bef0050405dff3b8adda88ba49d8d942123fe09cd674db004e95d593c0618d7fd4fd45e591ae24a436d9333b0087435c524b3233ad7727d1bc97d791c2638f7dd6ff47e793ac26a634db31390285415e50493031af7525d3ba91d197c465897bd0f941e195aa20a032dd373f04834758564f3637a97323d5b893d395c6678b79d2fb43e397a822a230df353d0681455a544d3435ab7121d7b69ddd9bc8698577dcf54ded99a62cac3ed13b33088f4b545a433a3ba57f2fd9b49fdf99ca6b8775def74fef9ba42eae3cd339310a8d495658413839a77d2ddbb299d99fcc6d8173d8f149e99da228a83ad53f370c8b4f505e473e3fa17b2bddb09bdb9dce6f8371daf34beb9fa02aaa38d73d350e894d525c453c3da37929dfbe95d593c0618d7fd4fd45e591ae24a436d9333b0087435c524b3233ad7727d1bc97d791c2638f7dd6ff47e793ac26a634db31390285415e50493031af7525d3ba91d197c465897bd0f941e195aa20a032dd373f04834758564f3637a97323d5b893d395c6678b79d2fb43e397a822a230df353d0681455a544d3435ab7121d7b69ddd9bc8698577dcf54ded99a62cac3ed13b33088f4b545a433a3ba57f2fd9b49fdf99ca6b8775def74fef9ba42eae3cd339310a8d495658413839a77d2ddbb299d99fcc6d8173d8f149e99da228a83ad53f370c8b4f505e473e3fa17b2bddb09bdb9dce6f8371daf34beb9fa02aaa38d73d350e894d525c453c3da37929dfbe95d593c0618d7fd4fd45e591ae24a436d9333b0087435c524b3233ad7727d1bc97d791c2638f7dd6ff47e793ac26a634db31390285415e50493031af7525d3ba91d197c465897bd0f941e195aa20a032dd373f04834758564f3637a97323d5b893d395c6678b79d2fb43e397a822a230df353d0681455a544d3435ab7121d7b69ddd9bc8698577dcf54ded99a62cac3ed13b33088f4b545a433a3ba57f2fd9b49fdf99ca6b8775def74fef9ba42eae3cd339310a8d495658413839a77d2ddbb299d99fcc6d8173d8f149e99da228a83ad53f370c8b4f505e473e3fa17b2bddb09bdb9dce6f8371daf34beb9fa02aaa38d73d350e894d525c453c3da37929dfbe95d593c0618d7fd4fd45e591ae24a436d9333b0087435c524b3233ad7727d1bc97d791c2638f7dd6ff47e793ac26a634db31390285415e50493031af7525d3ba91d197c465897bd0f941e195aa20a032dd373f04834758564f3637a97323d5b893d395c6678b79d2fb43e397a822a230df353d0681455a544d3435ab7121d7b69ddd9bc8698577dcf54ded99a62cac3ed13b33088f4b545a433a3ba57f2fd9b49fdf99ca6b8775def74fef9ba42eae3cd339310a8d495658413839a77d2ddbb299d99fcc6d8173d8f149e99da228a83ad53f370c8b4f505e473e3fa17b2bddb09bdb9dce6f8371daf34beb9fa02aaa38d73d350e894d525c453c3da37929dfbe95d593c0618d7fd4fd45e591ae24a436d9333b0087435c524b3233ad7727d1bc97d791c2638f7dd6ff47e793ac26a634db31390285415e50493031af7525d3ba91d197c465897bd0f941e195aa20a032dd373f04834758564f3637a97323d5b893d395c6678b79d2fb43e397a822a230df353d0681455a544d3435ab7121d7b69ddd9bc8698577dcf54ded99a62cac33d88c8da5e26d0a85fb7c4d82b7ed7aad47d0bcbe24cee7a063cd3f794cdf8c302fd7509069bfebcd1a042c01276f42fa587269886be3fcdbfa1109a21b6ccc3a2dea2cbe15d8f9ebcc866f22d686a60f0e783b2ef77b65e6468b8fe7bdd8996c6993e697edca28257a405a009f4b1a76a005b7d0227f9564bab625c49860114fba31b70ae2cd705a753f3cb42e63e4291d2c93b21706f2ab8bcca1c25a99888735cee65f98834ece6c404aedde977b105ce4f0e9fa9fa1a255304c3fa4af27d4b4b6c2c95bb9f3615dc1d168f3e209765fd1293631c31c3a791f61867c932052d5e3495edabdd705db3cf7706dc5d8931dfeb6ddef982f40844e0e7c0e8f8ca974b3174f010c2b7e45256463f0824957d434a7f02e6e9067c00dea7836510818ad8b902d2e9aab67b0539bd6e019e8f0b2d702a9ffbcd813ab2cd9d5695ad6e7a4e5ecd8d1bfc33b7f5a63ebe3da4a3b1d063bf514c45dcd1295fca8d7d559ce47e025226c05a1b3ffbfb824df2666e89f30d8b29da310b2b736e17f70e4547f8de6d9a399e231b0132cfbddc2194739ab4da2c35095699359fda958239c0997dcb0b517e4ba0fc8aacbd7b94e4b4792bd62df46fd94d39468c06dd946cfc091257869e0e704bb90bca398c784ed229674443b530f46cc2ea9acca4ca31f11b1ecd39c234269cdad699f1f04812cb38b0c29c792f8594550d60fa5cc74dab9726b269bbcff8161c73844af4d09a99bb99849793f481874050d6767297f16ed991302309c9a08c36d0ce53243ec16105cf2c3fdc177d11d8584ed8ded5a0ca661fe8cac06136c00296f60191c445277b5bbfdb66a56287b3039085d12f625e95a85d26d304b54fc1da5af308d93f20c20853097615e16c645c866f0bce13c8bbed60228290b9988a4f48eb892ba17a83e6ac6184adacf95eaf4f33987ef45201ea9f3b14db9f226e8f45eea30f723acecb9b3072f227c87e2136d0b923f7bfcfbedb1cdf3bd468b21634b641612687b557a70b46f04849508c430a1e5bf2e10aab2c2d9efd56f2829c18c8f2307bf2454a638bff4c43c819df6b66fd025d05e0e792f220c936201130c9bb3b72698acf5305cf9f7991b1450b16c2dd5429e88b28a799c4d17e053addfd2806c8aee26e36399de3a77c353745bc2a735c95997927e7cf4a049264e6b31cfd86fcef83b7986c55e555b6fb839816f1d94504f083ffba7d503a17b1d5e2ce5a1cf28209fac444cca60c516713ee1aa957cd66515948ae700bb89db82448d51b68e4af664ee8452d20f05b5b34419c668f1eb0fbea4543263a08e26d68f6247a726d69e58b91b659e9a0675796eba896253cc08471423a299b07f92736cefb7da7b7ed06e01943a222c028d28997f536ee1221f485436e90c817dce4a476afbc14321d570a2f57daf21d7860f163342e1defc23a6be3790c4e40fbf288d9a5e46cb13d4f77301b05753a1c5a772cc9f56c9e87c54c6598976b5f77e47d86f8d7d54b621f1d7f81749dadaf9ca2c76ca610739cc62f2a7e8044b7623e68ff4b7023ac93ba24b0bcd38bfb759b5b4affa747461c339720f8fa6d6aad52c2e6916938f1ee7391845ad13cdb6f709d63aaeb4a35ed865224ef04c865217fbd316fe7e30d14f2e08fbc120b9e5979a7254ffdccd2d8a18d3b01ce630bf37e0c754dca08067a6474bbf6d8a21c2fd40efa480cb1dae00db7b199429d9d0531c64a763c15dcbfb7d7bebee1f20d707289bd03853db1d690adeabcf87791252411905e59f251f930aa2822badb5b03d8cd8bb0f6465456b5a56c91984d75e47ef970a2e077acea782864d43df8fa72effa2d5c849327ac32e478a83ad1b9996adbd73213901dab6b4550ffdd3da9d88733d6d7bcc8070785cb9ab3059cf19c18d62f423bf967f25dc1d31c8b693e91bc726e28c3240edf125800522f4639b4a64b46a4f90ee344d9c25346e2ef1a9280ed20eaa3ef278b5fb22a614dfcbea3e5256bd4e6c99524881de52bdc196e941612aefccaecab35262562c33eec6206ffc842a88ce55fbd5c1341c9da4ad84ef1d50fd02ac5996a9ff3011f61bfe49cf86dc20c6c128432657d21d70eed400cdc8c3bf9604f78cf1c6ef93efb63e23589defe55b074b3d982c8ceb44670d7694d35e568242d1f2564942fd3dcb670a6e2b12d49e5de4b7d6292dc236c8d1c6cf0d74bc88ec33d3abcf54a711847d9229e395c2ecc715d291256c3e1240d88e142690d179fdb179cfe878572206b978d4fbe1af379b381bd29b013654b74f3c56bd7646f5acf7a367c780712517c2bd1909a8979194679fba836a2db28da35914f50b7961a80b291ad3e584b438e44a8c718aece131e521b8f83809e803778ed3d540ceddb899a8a8d9d99b47be042ec80030cf6f2adbe5c530b798b1082484095d08a39ca9875ae00692f34744d8f65f082a63ff870344a35d86b7dcfd872232d4fbf2369e82a2338b2cc76b2d487d5e13eb25cfe47a5f3ac81e13f39ba885c9449381410bf23b31e2861ce982f0752d2a597b7a70466fdd5e015475190da9019a31a682cac8b01b6f6a7c716720ba994b038904f3667f4e7ca8885f9eec73fe2243cb8720c17f51ac420d0e9fefcbd40d761a03632e76b6729e2ea7f1b07c3553602d89be59c487d705c237aa41607e58885f86deecbf24ffd04cf3f8656c68660be665edf1b6808e9051cb27f8f2a9a9d98ad1b941d99283bad558a1ab868041981c1985397cca047c0ca991595e3f85d4d28c2a998140928c6594025c3d84e584c1a8614e151dba164b35c3497288a2e40dc5feda74bf85b32e3c78ea4cd1075c39d26bfa44ee5164499e08236fba22dcf9f433e15c37d6205847eb5e02ba97d0db91fc3080a37fa7baadf008de96e80de101dc55baa98e1de6ea411c7c8e33902526e84619af9375036a62337fb42c54000d12ef2205aa74f7e7f74cfa0e88215292a349e946da8f565b9ba74c24e98c5c202854cad6e8dec1e66ae0ca92c47e0a1a2498f25177b43f5963a43202ce2fe4fdd4fb505d253aec4f386578eea4e177e27c93dfa78aea1bbc943dcd7a90e7b14990751272833b2688aed9305662e61d7431c7812dfa9ee40b1dea38bd4a48840d40b09f4261069eb0780056bdaea027ba84a5bafb96a9d4e42fea385c64a83049ad568ae5ba82e59bded080df49d4d7e19fc81efa1ffc20cf80ad85ea803e590f3fe999516bc6b6745c4a41eac140e4faf32f3153c2b682bba2b4ea656f603ae0a66260b5a2d6aff56a63024060bb236ea0564bf11f7b00a8ada8258b666f49f740f187e9bf22856687a8c4d044dd0effba06611e115c94def6a080c0d0e1e282a444c5763737c8d9eb0bcc2c3d0d8def8243543607396aeafdadfe7e916191a2f43446b7888a7bbdc464f656990a3afdde700000000000000000000000000000000000000000000000017232f3801fd2105000977ae3373a9df64b031045e701670cc0ccf9f2e908e2b189d3d1b69a5aa86ddf6fe111570b32f6f30a52c8a9bf2e35a9807d55add6496374fc23185b3cee796839e18a2f5d00e31b3547d0bd9cb1b742a3c7020e827a0d70be5318ab0efc6d8f88ebb5de86a14e121be06d4514e7ea66824232aaa7d2a48ce8ddba1daf9e5baf6ff1e5f87be217bcbacbf3d08cea37b609887fb8fcfa337a0e26f32f52aceb7aa8d92ec9775ecb547696a00901857ecbaed2e44147032045388d6d1668da951453797a91de038e35168268b2066f645a189379421f5fc3e1012f3c1c4c591f772aa72873eef7713b6131ba4279cc1ff294b5c9cba7a9dac408639357212cd658d0e51f56cae4c4d78963a7e62e507acb7702c4db6bf04fea1863c3e7821e99af0f2c62fd06fff7aba983857d77d9e7cb4b564c97a16405484714eb06c5f464e94f9854486da537dec99f0a281d0d1057b5153b44822aa4b0c5e0cc8fef5362b9c8d31bce62af36c2a5309850a05c09c5978ddf0de2ba0e6d290ab02a550b4d5815c2c5a69fe95a9c66969d91d48d9e1b69313e8b3d93d4d0a9e999d5aacc6cc73ba9a639a60212531b13c76f5eb88d9f60fafd9678c180b49efa0a48688aecda1882bdb86e0bcc5c15b68c5d84796813a71fa5a5a56c18107502c3d3eca95a416a026d828e7b565fb8ad904219ea386333a8ba82af70a63b6b7351df384c0cc28225ac42bde98d6f868bc1e45506131e726ab3b3bc1ae319dd58685e1e08c269b56933d323d16da0a29979082427b4ca1bbd5f3a3772c00ded18a0b9cfdfa52f1be67d7034af99df53e220c666afa7d324a2a7a74e1bd3896b4aad88d0c352ab2b3b1e73bb79e487007aa7d47af65176bec61725509ea38862b4497c50a6bd8963c1955365f31b58f16db5b93c9dfc8355e8992523bfeb8381202afc74a4246a9ad675ab8081570030457dcdb6d668b9f1f3e5c0b8b8a64e7e634e33a36aef1235bf3ac96c13c9eb6f253e872921afcb453c028faf67089198eb1277514d168b3ba0385ebc7f1b013f303ee39e1738ca0b240f7a458104b5ee3a451448f598149e202e29396f0049dd6268544ab8287fdce6374e5329e8484585ec79eb60f88ae91edb0e9babbb0720cab328e3e30343d77037a608e9572d7a5488890fc7d0f71cbffa96936307864f0bbb12a813c1a4b186820d111d8c0bc84c0e3647667f5620c833341f3997e084b244618e25a669b4ebf3f7090e6a4d7912995890d09ec994a34c410546c8dbb1829f5ad86b137bb4bc3606534e8be9f94950582c3be88676a92f5a1c0ceef67e81e9008527ec6bfe94437a632e220bcc299e75f3d48c672b9f9e55ebd9e8641e379c676e46084e87cc3be882db625e782b1a747dd1cf4890d29f3764c1b39b86d2d2e6004482b25696312a77822f0eab42faec93c6cd5e4a242ad212f0b5b560858749ea98a86760759c4d682e47e513e08aeaec0cf90ee95cdee68d24b05727f6c30a36727b8ebd21df5185cdbdfbbc176a2caf8ee9ed8390ddc5d7619e800def6f64e22ec5e46c0f0e7251ea747fa8e4eff34f68e4ff859bdb8a7093e47b45ba393a8ce1b61e03a814cccd1612e11b6bd8bdd1900a647b3e5391c91f667d613b5d02e0cd86324a90d5dab55e44c79cf6d939d1837d2fed87b6718d5c7bdd703907eba0f2fbd033e99d82e4a81640328f4c85a6765c1ff85e978672f14aea7772d33560d3efacf384f3748a7f478924eb7fdd5b02eab283c5215e079dadae5557e2574689055a8e36e35ead10a0fcd6cb5672991bb7cdb2595ff97efe9fb8f3b190ed86308a5ce9162ec4945e828630d9934e752387568000000",
  "txid": "7379223fa017578d28ba72f1287e343a2eb52ccd021491a1c5ac32aafa91e4ea",
  "hash": "6e2e93e584822ec9671fbc2b20afefcce63224b10900f3d72121a4c59e17a334",
  "size": 5085,
  "vsize": 2278,
  "version": 1,
  "locktime": 104,
  "vin": [
    {
      "txid": "f09824216917ab97cec2e93eabe913eba107e72651d7c65d8b4a184232e03282",
      "vout": 1,
      "scriptSig": {
        "asm": "",
        "hex": ""
      },
      "txinwitness": [
        "069bfebcd1a042c01276f42fa587269886be3fcdbfa1109a21b6ccc3a2dea2cbe15d8f9ebcc866f22d686a60f0e783b2ef77b65e6468b8fe7bdd8996c6993e697edca28257a405a009f4b1a76a005b7d0227f9564bab625c49860114fba31b70ae2cd705a753f3cb42e63e4291d2c93b21706f2ab8bcca1c25a99888735cee65f98834ece6c404aedde977b105ce4f0e9fa9fa1a255304c3fa4af27d4b4b6c2c95bb9f3615dc1d168f3e209765fd1293631c31c3a791f61867c932052d5e3495edabdd705db3cf7706dc5d8931dfeb6ddef982f40844e0e7c0e8f8ca974b3174f010c2b7e45256463f0824957d434a7f02e6e9067c00dea7836510818ad8b902d2e9aab67b0539bd6e019e8f0b2d702a9ffbcd813ab2cd9d5695ad6e7a4e5ecd8d1bfc33b7f5a63ebe3da4a3b1d063bf514c45dcd1295fca8d7d559ce47e025226c05a1b3ffbfb824df2666e89f30d8b29da310b2b736e17f70e4547f8de6d9a399e231b0132cfbddc2194739ab4da2c35095699359fda958239c0997dcb0b517e4ba0fc8aacbd7b94e4b4792bd62df46fd94d39468c06dd946cfc091257869e0e704bb90bca398c784ed229674443b530f46cc2ea9acca4ca31f11b1ecd39c234269cdad699f1f04812cb38b0c29c792f8594550d60fa5cc74dab9726b269bbcff8161c73844af4d09a99bb99849793f481874050d6767297f16ed991302309c9a08c36d0ce53243ec16105cf2c3fdc177d11d8584ed8ded5a0ca661fe8cac06136c00296f60191c445277b5bbfdb66a56287b3039085d12f625e95a85d26d304b54fc1da5af308d93f20c20853097615e16c645c866f0bce13c8bbed60228290b9988a4f48eb892ba17a83e6ac6184adacf95eaf4f33987ef45201ea9f3b14db9f226e8f45eea30f723acecb9b3072f227c87e2136d0b923f7bfcfbedb1cdf3bd468b21634b641612687b557a70b46f04849508c430a1e5bf2e10aab2c2d9efd56f2829c18c8f2307bf2454a638bff4c43c819df6b66fd025d05e0e792f220c936201130c9bb3b72698acf5305cf9f7991b1450b16c2dd5429e88b28a799c4d17e053addfd2806c8aee26e36399de3a77c353745bc2a735c95997927e7cf4a049264e6b31cfd86fcef83b7986c55e555b6fb839816f1d94504f083ffba7d503a17b1d5e2ce5a1cf28209fac444cca60c516713ee1aa957cd66515948ae700bb89db82448d51b68e4af664ee8452d20f05b5b34419c668f1eb0fbea4543263a08e26d68f6247a726d69e58b91b659e9a0675796eba896253cc08471423a299b07f92736cefb7da7b7ed06e01943a222c028d28997f536ee1221f485436e90c817dce4a476afbc14321d570a2f57daf21d7860f163342e1defc23a6be3790c4e40fbf288d9a5e46cb13d4f77301b05753a1c5a772cc9f56c9e87c54c6598976b5f77e47d86f8d7d54b621f1d7f81749dadaf9ca2c76ca610739cc62f2a7e8044b7623e68ff4b7023ac93ba24b0bcd38bfb759b5b4affa747461c339720f8fa6d6aad52c2e6916938f1ee7391845ad13cdb6f709d63aaeb4a35ed865224ef04c865217fbd316fe7e30d14f2e08fbc120b9e5979a7254ffdccd2d8a18d3b01ce630bf37e0c754dca08067a6474bbf6d8a21c2fd40efa480cb1dae00db7b199429d9d0531c64a763c15dcbfb7d7bebee1f20d707289bd03853db1d690adeabcf87791252411905e59f251f930aa2822badb5b03d8cd8bb0f6465456b5a56c91984d75e47ef970a2e077acea782864d43df8fa72effa2d5c849327ac32e478a83ad1b9996adbd73213901dab6b4550ffdd3da9d88733d6d7bcc8070785cb9ab3059cf19c18d62f423bf967f25dc1d31c8b693e91bc726e28c3240edf125800522f4639b4a64b46a4f90ee344d9c25346e2ef1a9280ed20eaa3ef278b5fb22a614dfcbea3e5256bd4e6c99524881de52bdc196e941612aefccaecab35262562c33eec6206ffc842a88ce55fbd5c1341c9da4ad84ef1d50fd02ac5996a9ff3011f61bfe49cf86dc20c6c128432657d21d70eed400cdc8c3bf9604f78cf1c6ef93efb63e23589defe55b074b3d982c8ceb44670d7694d35e568242d1f2564942fd3dcb670a6e2b12d49e5de4b7d6292dc236c8d1c6cf0d74bc88ec33d3abcf54a711847d9229e395c2ecc715d291256c3e1240d88e142690d179fdb179cfe878572206b978d4fbe1af379b381bd29b013654b74f3c56bd7646f5acf7a367c780712517c2bd1909a8979194679fba836a2db28da35914f50b7961a80b291ad3e584b438e44a8c718aece131e521b8f83809e803778ed3d540ceddb899a8a8d9d99b47be042ec80030cf6f2adbe5c530b798b1082484095d08a39ca9875ae00692f34744d8f65f082a63ff870344a35d86b7dcfd872232d4fbf2369e82a2338b2cc76b2d487d5e13eb25cfe47a5f3ac81e13f39ba885c9449381410bf23b31e2861ce982f0752d2a597b7a70466fdd5e015475190da9019a31a682cac8b01b6f6a7c716720ba994b038904f3667f4e7ca8885f9eec73fe2243cb8720c17f51ac420d0e9fefcbd40d761a03632e76b6729e2ea7f1b07c3553602d89be59c487d705c237aa41607e58885f86deecbf24ffd04cf3f8656c68660be665edf1b6808e9051cb27f8f2a9a9d98ad1b941d99283bad558a1ab868041981c1985397cca047c0ca991595e3f85d4d28c2a998140928c6594025c3d84e584c1a8614e151dba164b35c3497288a2e40dc5feda74bf85b32e3c78ea4cd1075c39d26bfa44ee5164499e08236fba22dcf9f433e15c37d6205847eb5e02ba97d0db91fc3080a37fa7baadf008de96e80de101dc55baa98e1de6ea411c7c8e33902526e84619af9375036a62337fb42c54000d12ef2205aa74f7e7f74cfa0e88215292a349e946da8f565b9ba74c24e98c5c202854cad6e8dec1e66ae0ca92c47e0a1a2498f25177b43f5963a43202ce2fe4fdd4fb505d253aec4f386578eea4e177e27c93dfa78aea1bbc943dcd7a90e7b14990751272833b2688aed9305662e61d7431c7812dfa9ee40b1dea38bd4a48840d40b09f4261069eb0780056bdaea027ba84a5bafb96a9d4e42fea385c64a83049ad568ae5ba82e59bded080df49d4d7e19fc81efa1ffc20cf80ad85ea803e590f3fe999516bc6b6745c4a41eac140e4faf32f3153c2b682bba2b4ea656f603ae0a66260b5a2d6aff56a63024060bb236ea0564bf11f7b00a8ada8258b666f49f740f187e9bf22856687a8c4d044dd0effba06611e115c94def6a080c0d0e1e282a444c5763737c8d9eb0bcc2c3d0d8def8243543607396aeafdadfe7e916191a2f43446b7888a7bbdc464f656990a3afdde700000000000000000000000000000000000000000000000017232f3801",
        "000977ae3373a9df64b031045e701670cc0ccf9f2e908e2b189d3d1b69a5aa86ddf6fe111570b32f6f30a52c8a9bf2e35a9807d55add6496374fc23185b3cee796839e18a2f5d00e31b3547d0bd9cb1b742a3c7020e827a0d70be5318ab0efc6d8f88ebb5de86a14e121be06d4514e7ea66824232aaa7d2a48ce8ddba1daf9e5baf6ff1e5f87be217bcbacbf3d08cea37b609887fb8fcfa337a0e26f32f52aceb7aa8d92ec9775ecb547696a00901857ecbaed2e44147032045388d6d1668da951453797a91de038e35168268b2066f645a189379421f5fc3e1012f3c1c4c591f772aa72873eef7713b6131ba4279cc1ff294b5c9cba7a9dac408639357212cd658d0e51f56cae4c4d78963a7e62e507acb7702c4db6bf04fea1863c3e7821e99af0f2c62fd06fff7aba983857d77d9e7cb4b564c97a16405484714eb06c5f464e94f9854486da537dec99f0a281d0d1057b5153b44822aa4b0c5e0cc8fef5362b9c8d31bce62af36c2a5309850a05c09c5978ddf0de2ba0e6d290ab02a550b4d5815c2c5a69fe95a9c66969d91d48d9e1b69313e8b3d93d4d0a9e999d5aacc6cc73ba9a639a60212531b13c76f5eb88d9f60fafd9678c180b49efa0a48688aecda1882bdb86e0bcc5c15b68c5d84796813a71fa5a5a56c18107502c3d3eca95a416a026d828e7b565fb8ad904219ea386333a8ba82af70a63b6b7351df384c0cc28225ac42bde98d6f868bc1e45506131e726ab3b3bc1ae319dd58685e1e08c269b56933d323d16da0a29979082427b4ca1bbd5f3a3772c00ded18a0b9cfdfa52f1be67d7034af99df53e220c666afa7d324a2a7a74e1bd3896b4aad88d0c352ab2b3b1e73bb79e487007aa7d47af65176bec61725509ea38862b4497c50a6bd8963c1955365f31b58f16db5b93c9dfc8355e8992523bfeb8381202afc74a4246a9ad675ab8081570030457dcdb6d668b9f1f3e5c0b8b8a64e7e634e33a36aef1235bf3ac96c13c9eb6f253e872921afcb453c028faf67089198eb1277514d168b3ba0385ebc7f1b013f303ee39e1738ca0b240f7a458104b5ee3a451448f598149e202e29396f0049dd6268544ab8287fdce6374e5329e8484585ec79eb60f88ae91edb0e9babbb0720cab328e3e30343d77037a608e9572d7a5488890fc7d0f71cbffa96936307864f0bbb12a813c1a4b186820d111d8c0bc84c0e3647667f5620c833341f3997e084b244618e25a669b4ebf3f7090e6a4d7912995890d09ec994a34c410546c8dbb1829f5ad86b137bb4bc3606534e8be9f94950582c3be88676a92f5a1c0ceef67e81e9008527ec6bfe94437a632e220bcc299e75f3d48c672b9f9e55ebd9e8641e379c676e46084e87cc3be882db625e782b1a747dd1cf4890d29f3764c1b39b86d2d2e6004482b25696312a77822f0eab42faec93c6cd5e4a242ad212f0b5b560858749ea98a86760759c4d682e47e513e08aeaec0cf90ee95cdee68d24b05727f6c30a36727b8ebd21df5185cdbdfbbc176a2caf8ee9ed8390ddc5d7619e800def6f64e22ec5e46c0f0e7251ea747fa8e4eff34f68e4ff859bdb8a7093e47b45ba393a8ce1b61e03a814cccd1612e11b6bd8bdd1900a647b3e5391c91f667d613b5d02e0cd86324a90d5dab55e44c79cf6d939d1837d2fed87b6718d5c7bdd703907eba0f2fbd033e99d82e4a81640328f4c85a6765c1ff85e978672f14aea7772d33560d3efacf384f3748a7f478924eb7fdd5b02eab283c5215e079dadae5557e2574689055a8e36e35ead10a0fcd6cb5672991bb7cdb2595ff97efe9fb8f3b190ed86308a5ce9162ec4945e828630d9934e7523875"
      ],
      "sequence": 4294967294
    }
  ],
  "vout": [
    {
      "value": 499993.8986,
      "n": 0,
      "scriptPubKey": {
        "asm": "1 4e3ad02567722cb048cd935c300631c98a2dbc9b144581389bc3d4620369e2f8",
        "hex": "51204e3ad02567722cb048cd935c300631c98a2dbc9b144581389bc3d4620369e2f8",
        "reqSigs": 1,
        "type": "witness_v1_scripthash",
        "addresses": [
          "3QJmnh"
        ]
      }
    },
    {
      "value": 1.0,
      "n": 1,
      "scriptPubKey": {
        "asm": "OP_RETURN a3003d3db50cb8d1c9ec5bef0050405dff3b8adda88ba49d8d942123fe09cd67 e95d593c0618d7fd4fd45e591ae24a436d9333b0087435c524b3233ad7727d1bc97d791c2638f7dd6ff47e793ac26a634db31390285415e50493031af7525d3ba91d197c465897bd0f941e195aa20a032dd373f04834758564f3637a97323d5b893d395c6678b79d2fb43e397a822a230df353d0681455a544d3435ab7121d7b69ddd9bc8698577dcf54ded99a62cac3ed13b33088f4b545a433a3ba57f2fd9b49fdf99ca6b8775def74fef9ba42eae3cd339310a8d495658413839a77d2ddbb299d99fcc6d8173d8f149e99da228a83ad53f370c8b4f505e473e3fa17b2bddb09bdb9dce6f8371daf34beb9fa02aaa38d73d350e894d525c453c3da37929dfbe95d593c0618d7fd4fd45e591ae24a436d9333b0087435c524b3233ad7727d1bc97d791c2638f7dd6ff47e793ac26a634db31390285415e50493031af7525d3ba91d197c465897bd0f941e195aa20a032dd373f04834758564f3637a97323d5b893d395c6678b79d2fb43e397a822a230df353d0681455a544d3435ab7121d7b69ddd9bc8698577dcf54ded99a62cac3ed13b33088f4b545a433a3ba57f2fd9b49fdf99ca6b8775def74fef9ba42eae3cd339310a8d495658413839a77d2ddbb299d99fcc6d8173d8f149e99da228a83ad53f370c8b4f505e473e3fa17b2bddb09bdb9dce6f8371daf34beb9fa02aaa38d73d350e894d525c453c3da37929dfbe95d593c0618d7fd4fd45e591ae24a436d9333b0087435c524b3233ad7727d1bc97d791c2638f7dd6ff47e793ac26a634db31390285415e50493031af7525d3ba91d197c465897bd0f941e195aa20a032dd373f04834758564f3637a97323d5b893d395c6678b79d2fb43e397a822a230df353d0681455a544d3435ab7121d7b69ddd9bc8698577dcf54ded99a62cac3ed13b33088f4b545a433a3ba57f2fd9b49fdf99ca6b8775def74fef9ba42eae3cd339310a8d495658413839a77d2ddbb299d99fcc6d8173d8f149e99da228a83ad53f370c8b4f505e473e3fa17b2bddb09bdb9dce6f8371daf34beb9fa02aaa38d73d350e894d525c453c3da37929dfbe95d593c0618d7fd4fd45e591ae24a436d9333b0087435c524b3233ad7727d1bc97d791c2638f7dd6ff47e793ac26a634db31390285415e50493031af7525d3ba91d197c465897bd0f941e195aa20a032dd373f04834758564f3637a97323d5b893d395c6678b79d2fb43e397a822a230df353d0681455a544d3435ab7121d7b69ddd9bc8698577dcf54ded99a62cac3ed13b33088f4b545a433a3ba57f2fd9b49fdf99ca6b8775def74fef9ba42eae3cd339310a8d495658413839a77d2ddbb299d99fcc6d8173d8f149e99da228a83ad53f370c8b4f505e473e3fa17b2bddb09bdb9dce6f8371daf34beb9fa02aaa38d73d350e894d525c453c3da37929dfbe95d593c0618d7fd4fd45e591ae24a436d9333b0087435c524b3233ad7727d1bc97d791c2638f7dd6ff47e793ac26a634db31390285415e50493031af7525d3ba91d197c465897bd0f941e195aa20a032dd373f04834758564f3637a97323d5b893d395c6678b79d2fb43e397a822a230df353d0681455a544d3435ab7121d7b69ddd9bc8698577dcf54ded99a62cac33d88c8da5e26d0a85fb7c4d82b7ed7aad47d0bcbe24cee7a063cd3f794cdf8c3",
        "hex": "6a20a3003d3db50cb8d1c9ec5bef0050405dff3b8adda88ba49d8d942123fe09cd674db004e95d593c0618d7fd4fd45e591ae24a436d9333b0087435c524b3233ad7727d1bc97d791c2638f7dd6ff47e793ac26a634db31390285415e50493031af7525d3ba91d197c465897bd0f941e195aa20a032dd373f04834758564f3637a97323d5b893d395c6678b79d2fb43e397a822a230df353d0681455a544d3435ab7121d7b69ddd9bc8698577dcf54ded99a62cac3ed13b33088f4b545a433a3ba57f2fd9b49fdf99ca6b8775def74fef9ba42eae3cd339310a8d495658413839a77d2ddbb299d99fcc6d8173d8f149e99da228a83ad53f370c8b4f505e473e3fa17b2bddb09bdb9dce6f8371daf34beb9fa02aaa38d73d350e894d525c453c3da37929dfbe95d593c0618d7fd4fd45e591ae24a436d9333b0087435c524b3233ad7727d1bc97d791c2638f7dd6ff47e793ac26a634db31390285415e50493031af7525d3ba91d197c465897bd0f941e195aa20a032dd373f04834758564f3637a97323d5b893d395c6678b79d2fb43e397a822a230df353d0681455a544d3435ab7121d7b69ddd9bc8698577dcf54ded99a62cac3ed13b33088f4b545a433a3ba57f2fd9b49fdf99ca6b8775def74fef9ba42eae3cd339310a8d495658413839a77d2ddbb299d99fcc6d8173d8f149e99da228a83ad53f370c8b4f505e473e3fa17b2bddb09bdb9dce6f8371daf34beb9fa02aaa38d73d350e894d525c453c3da37929dfbe95d593c0618d7fd4fd45e591ae24a436d9333b0087435c524b3233ad7727d1bc97d791c2638f7dd6ff47e793ac26a634db31390285415e50493031af7525d3ba91d197c465897bd0f941e195aa20a032dd373f04834758564f3637a97323d5b893d395c6678b79d2fb43e397a822a230df353d0681455a544d3435ab7121d7b69ddd9bc8698577dcf54ded99a62cac3ed13b33088f4b545a433a3ba57f2fd9b49fdf99ca6b8775def74fef9ba42eae3cd339310a8d495658413839a77d2ddbb299d99fcc6d8173d8f149e99da228a83ad53f370c8b4f505e473e3fa17b2bddb09bdb9dce6f8371daf34beb9fa02aaa38d73d350e894d525c453c3da37929dfbe95d593c0618d7fd4fd45e591ae24a436d9333b0087435c524b3233ad7727d1bc97d791c2638f7dd6ff47e793ac26a634db31390285415e50493031af7525d3ba91d197c465897bd0f941e195aa20a032dd373f04834758564f3637a97323d5b893d395c6678b79d2fb43e397a822a230df353d0681455a544d3435ab7121d7b69ddd9bc8698577dcf54ded99a62cac3ed13b33088f4b545a433a3ba57f2fd9b49fdf99ca6b8775def74fef9ba42eae3cd339310a8d495658413839a77d2ddbb299d99fcc6d8173d8f149e99da228a83ad53f370c8b4f505e473e3fa17b2bddb09bdb9dce6f8371daf34beb9fa02aaa38d73d350e894d525c453c3da37929dfbe95d593c0618d7fd4fd45e591ae24a436d9333b0087435c524b3233ad7727d1bc97d791c2638f7dd6ff47e793ac26a634db31390285415e50493031af7525d3ba91d197c465897bd0f941e195aa20a032dd373f04834758564f3637a97323d5b893d395c6678b79d2fb43e397a822a230df353d0681455a544d3435ab7121d7b69ddd9bc8698577dcf54ded99a62cac33d88c8da5e26d0a85fb7c4d82b7ed7aad47d0bcbe24cee7a063cd3f794cdf8c3",
        "type": "nulldata"
      }
    }
  ],
  "blockhash": "32a2d379a33ec88ae1cb3a8a1a44f2d12b76aebf574ecf7ac16b289397ed6cd9",
  "confirmations": 1,
  "time": 1764176557,
  "blocktime": 1764176557
}