{
  "hex": "01000000000101e72f9f211070adc4215bec98c4dc5ce14caaba187df0328ba806bbcc8dcdf1c70000000000feffffff0200e1f50500000000fdd5046a20bd2609c1c6d10c8093ab8eb8444f735a116338b9212f76bd8785a9ae06da2c7f4db0042532abfae13bf869c7b4454713170f75980b39ff29704004839fa00c99bc2b5105128bdac11bd849e794656733372f55b82b19df09506024a3bf802cb99c0b716572ebbaa17bb82987f4050753574f35d84b79bf69300044c3dfe04cd9fc6b114552cb9a815b9809a7d4252773776f15f86b599f49102064e3ffc06cf9dc4b31a5b22b7a61bb78e94734c5c793978ff5188bb97fa9f0c084031f208c193cabd185920b5a419b58c96714e5e7b3b7afd538ab995f89d0e0a4233f00ac391c8bf1e5f26b3a21fb38a907748587d3d7cfb558cbf93fe9b080c4435f60cc597ceb91c5d24b1a01db18892754a5a7f3f7ef9578ebd91fc990a0e4637f40ec795ccbb12532abfae13bf869c7b4454713170f75980b39ff29704004839fa00c99bc2b5105128bdac11bd849e794656733372f55b82b19df09506024a3bf802cb99c0b716572ebbaa17bb82987f4050753574f35d84b79bf69300044c3dfe04cd9fc6b114552cb9a815b9809a7d4252773776f15f86b599f49102064e3ffc06cf9dc4b31a5b22b7a61bb78e94734c5c793978ff5188bb97fa9f0c084031f208c193cabd185920b5a419b58c96714e5e7b3b7afd538ab995f89d0e0a4233f00ac391c8bf1e5f26b3a21fb38a907748587d3d7cfb558cbf93fe9b080c4435f60cc597ceb91c5d24b1a01db18892754a5a7f3f7ef9578ebd91fc990a0e4637f40ec795ccbb12532abfae13bf869c7b4454713170f75980b39ff29704004839fa00c99bc2b5105128bdac11bd849e794656733372f55b82b19df09506024a3bf802cb99c0b716572ebbaa17bb82987f4050753574f35d84b79bf69300044c3dfe04cd9fc6b114552cb9a815b9809a7d4252773776f15f86b599f49102064e3ffc06cf9dc4b31a5b22b7a61bb78e94734c5c793978ff5188bb97fa9f0c084031f208c193cabd185920b5a419b58c96714e5e7b3b7afd538ab995f89d0e0a4233f00ac391c8bf1e5f26b3a21fb38a907748587d3d7cfb558cbf93fe9b080c4435f60cc597ceb91c5d24b1a01db18892754a5a7f3f7ef9578ebd91fc990a0e4637f40ec795ccbb12532abfae13bf869c7b4454713170f75980b39ff29704004839fa00c99bc2b5105128bdac11bd849e794656733372f55b82b19df09506024a3bf802cb99c0b716572ebbaa17bb82987f4050753574f35d84b79bf69300044c3dfe04cd9fc6b114552cb9a815b9809a7d4252773776f15f86b599f49102064e3ffc06cf9dc4b31a5b22b7a61bb78e94734c5c793978ff5188bb97fa9f0c084031f208c193cabd185920b5a419b58c96714e5e7b3b7afd538ab995f89d0e0a4233f00ac391c8bf1e5f26b3a21fb38a907748587d3d7cfb558cbf93fe9b080c4435f60cc597ceb91c5d24b1a01db18892754a5a7f3f7ef9578ebd91fc990a0e4637f40ec795ccbb12532abfae13bf869c7b4454713170f75980b39ff29704004839fa00c99bc2b5105128bdac11bd849e794656733372f55b82b19df09506024a3bf802cb99c0b716572ebbaa17bb82987f4050753574f35d84b79bf69300044c3dfe04cd9fc6b114552cb9a815b9809a7d4252773776f15f86b599f49102064e3ffc06cf9dc4b31a5b22b7a61bb78e94734c5c793978ff5b07e5265a944754bd78084281bd50db42c4332acdd165f73b4d8acd9a5be819980cbbf57792d00002251204f3130141d2159ff34aeb204f87b3d9f2ad3773ce820a26c5ee0ebde43a0242102fd75090de2013758d99eb41ea3899f0ce6ba926f5635f9ddd6e1accf712e1a2e396642913ad804944f6ce6df105564c0453171b66cd56a4da10ecf191e245d314376fde712927c71be83220fa5b18ee04cfd2366f66c9d99502dff217470e6cb12d262bc4162cdd6902f7a47d841fc348ac554a0b8949cf31017355d2a9c8db2fd466e94ed6db060ea83df26e7f836b171f1a615b49cc2bda8d211ba2ecb4099d70b0949756d94bffdc829650689eacfd1efb0a431853344d14be320968752ec3e30f0d911906ed7a4c1b16ad177a8b60f5f25a102ec4d12a27a4d5431f245df861624b4d90fc05386403bcbee95a91fdc7d3ecf87e3126d1ed3e904609b7d033d5159685f677b90ef7d1b4da178ab29f6881e53f17135f89f9d755bc5d26af2fa8757260179b0d7cebae4306342506ddd709ae393605fad5044b897c169f18d2da2cbc8088d4aa7d2f2d1fea6b36b93fcc41af2f6552243081f404522a93fdfa83e9399a17429b2293fbae2c62dac62404ef1c6bedc8b496d1210f32883b4bbcfe67a3b62aa8f18cdff19a876cea18b7952b2553b9bcdff19fd0930e25f42a71137bffa4cbf68f8ed9f081535e668ae27d354e869fd79d507081189a7b3aa627a4d1bc2a9c0e1570bf0ad3c5e3216fa8778be63cfd4777a963f1cd899e54d7ccbc92afabfcc60184e1e4120cbb25531c47ec21c977ee80c37d5323d2cf402dd38d46413ff66b66922f1d40c37206b36c9a0dd444bb7c0423b102860db3546ddf52f31b827ecc67ac1a027ee8e7a0f9ac367de31b99a2d9bef79c2909feae960f27a390db4b493d914567b68c8409c82dc5175e828468c4a94e66c148156ba596618c33974977830b7d85481275dee1e536581c2d1bc819130587797ec30639c6feae624a0b02eb6a72faeb2a733e6b008758c92ff9e6d7b75164b87b25ada18f402a51a8caeb7bf7c2c0b99c4f3ed66f450206054f35a7dc57a478ab8a3fa9010806c1cc0a6f8c6001a4b975054dfd93d6d3f5432d3f74b02c3112f419558eeb63173e0527e4920c52382a1f9996933e5e7a70a616bc7e906120f987ff03583d87973af15337cc48d1f6b240220ca41be044a741058f01523cf5b52fe34e954cc29a1291a741221a3610ea7929bfd14dee5177b3abe6577f2415f107d06c3d45e41ff027325c518f4c8fe82e1c2d7dc0bb343b5c14d807538af4a4ebee47b458b0cbd93628e32fd3dc4e13745b342c689877deb3ad9aeb6bcc7ebf88b05a671ae7c0077ac6450dc345c44cc8456f5b1d2f64b166fb7a0aec2e0f7822f3a28fb499ee0389fd4da5833a828df0e6e38becde4449537251340dc090db8bcc8f0d4569a095f96ce868151123060d6ae9ceefbe94e30472bb16ef9e8891f2a47b03cb042467ac473e2a10dea3ac4f78cf0a33c740d103a7d3f8d90e9e1a7c424ac45f316f21b81e70ddfdadfb30d706cde16064bf9175e828dca0c38768ee15f1963d8722441289d13d403efd05c10f51ba1da9b71c11cb6d28a70070abe1efdf4b772f2ac00f141c7813a2ade24c4797e1822fbbfd1df08bf1601601c3915f8122598568b296bdb218406b1ea43ecae959e2ea6e53a5d58ca8279ba92025ee8baf60d9fda4702cbb8dced23a84771f28acd2af9fd6200c6c71db54b4801ddeb14c6fe2676f251879674399e960c4b9110d30c7cfb974e2a2ca0f222520fc3727ba50abd23490eef70d1aee85dfbe585c6e21a6e08889d885d5666528d6bd33da62f67fdb560d1712338eacedb5e853eb5b7cdcf4d4bda0aa3d0d713bc3da5244d2bb5f1a53fd08052014442d85c98511ae1f9d3df5c4b7ab15846c4e8b9f69f5fa6d3488ede6b0f88ae6c31a75cfa577c59e331f5a5def6b9785ce47dc152623b5cf110ba23e68fe5d9284070dae66da4fc3d7d3903f617a2c94c16a86819f1401363438174edc830469510200adcff2358bece03490a1bad3df622758a6f2761457b2530711075fdb93cbb3122ef2e79c7d6311f9da446e085eac2d303203d16f822b59c161e332bc3541fda6781ef53f31371accdb691f9a6edfa6acfcd29893cb56a8f97bd66f530a0354a5755f8664bd2f76d17dcc6bbd9ca7243cbbddff526407aeea4310ccb908b841bd413e2003fcaa1f022a7633cb089ea391934ba1bb57d5fa0d3883d6053bc9b8d22841b6f55dc2b51aa80a9beb2d4a40e1ea86da66d5a412216e2b2eb47e583cc67c8f0edf8227479cddf5a73ffb98c6e3a732b10c8725908aa69453f0344783e1ea5bf110d306c6692ce4fa326b6844755a49faa013dc4fcd40b4e6cf8ff2a2237c0d77a2c19d679c5a81552ca00f0fbfc583d69d7462158d30212b9c752102c3047a31cd101f8a0bc641c56a57d3207dc0d07b23bb6670045eda39e694f343bc87f47aca9b6e40e425c5fc1b9776a769c4ace301bfbe12237e210c8f27fab639075ed5de5479ceaf707b252b29eee84434af992f8eccc2d6cde67267de80dca96b3554f7f5fa713136830a69cbaf1e1a177eec77894ce56c6c8b244d1b75c578daa7e954c5fa4ee733c3b932874aea887534365abc0d2e4fe5d473f030bedef642d5959d74caf7a264d0a43b13b1c40f6cc512c2700e779a6928c161b9cd1862dfbffea4935505a813653abf9a10b8a8245681601b801a1013b90cd1c81852d2038863001db23a63dcf860ef276da0c79fbc8c5cbf17dc7a6f400f5c013d0b5eff9a2b5fc5bb3be132872a5e4d7dec1a11851d9ac5474af97d2fcdef7bdea47571f05a250c6116e5cc25da33a12b6bb87e00a2f4c8f9e9fc2b9dc673ff1c55a6756de46d4ad0f6cb46ab331384255ef35c1d6864c6dacfda781f4b38f56933e500ad793edc38a4ad296a46cfee6236b80e274f4bbf9c1e622ab0cfcdc00bb95c51648e9b9766b4bc3e9d5b1a5ddf23ca5aa93f94d379d2bd1f4f773c08d22772a3a79981c25fcee8fc15d5fae9fb379a451c85c668e8eb5dcc32827c73b622408432cf53f6c51c4b8e29655f90952dc5547dc259dd460336a9d90857450c359f6c6476e39af51d2fbb04781d3465c045f13d80ebd6187056f0fa6a992f48f5f17653d6eb8d1d0c7a8ffe1db082853ca49dca4078aa7785daafe7a72f5866cb4415634202b34099de3dad50c7feb6fb9003b608d2e1413e9673c007c21c2f4424f105b1184979e8b99d3ea8803dd6d9634c2cc74edb5e48458e7c82ea3005b5f96d4634d20071e860e9f590efd9548c61056077b456e99ebd138dabc00a356a4991a9c16afe8e2a2c707333bcdc25c39df042de302c70f14141b2c303c68748f939caacbcdcedfe3f4fe232c323943494b8d8f9297a8b3b9cdd9e7f1fe102123253d576674758bb5b8c5cfd0d1e5ee122430393f4e6ca2a4b9d4f0ff0000000000000000000000001225374401fd210500d3434efe9e9b22fac922fc85de6a18c24d2c9f7969921a0dbdcaf4b522d5e3e219fab6a5be7407b41960f5d36bc1dce14b373c1b83fd5aaeda544ad872e5461e29c92ce81e880e433c88da80e2fe58b76fefb7d5eac2b5e4e35e2a90804fb6ef405739f4cbb161195dc92a7b843b6530ac97ec62c41a82ac90ca8780e8a685968bd7723338f877feeac046a2344e7bf6c51dea39bdef6152dd8e442df80cca629e950c81c7e48ad07e5e6aa16381a9cdb9121c17885e7d2c7473ca6e2d64c8aba999c5275462ecffd7bce7b3fb4374810744a7ebf2324bb58c77edf511c98f57224be0ffd697e54f7e4747043972e229e0292aaa2ae8d58ee5876628adb1e75c2a05874cdb61b6e8d1a5354adce676b48adf7328047dc9e1cf0b6b35cb7f5a2bb20251cb69b76dc027d2acb2c7611c6d0b3824fd8fe59d86a70710dee3f4ce63e168349d3eeb215b69a703aa63fd0a1cded6bc1486c4a14882764c8c19963bbb99fb944265b4aa8ca966dedf19fe69cbbb39f2d7606b9661968d1b3301dc1f5089299756f9dddac2711090d4f670c318f191b5a83381e5460e7ba1a4ca7ba58acb5834b68bddbc5f2d6dd9c4da123e55221adcde4f7403938bf5a787388603e0690b9abc3102af7bbcc2ccb09a18aa7edae5ecf4172430cce8454a46e5d26c88e6822a3785f4e4a3cc3a6dbf7dc6649192abc17b98f66bdf87a4ece7c769a26d9087da6767b796d44c78555774626578b4b44e6690194cd973b8d287e1fd040f4e37e89808ed6137beca5672a57e2395d8e103ab2614d5bf3e59ce12271f3420c4f4ec4ac41cc5f4aa5d0b37b86840684b345884ee45c858ba3eec4d47b3a296a5629f9fa614868c0be132589c53d0c000e56769d0c3984bc9efccf6c2e309ae78f74cb9cd2111731bfc09aa986c49bc952f68dcdc4cc02c835966e20d5cde25fcaa5feac98981380e7d0bf069bf43e57eb74efd97afc4c497b7df791c88c1b4b5702381c95c0525f547ddfe62372fb807062c64e943fc1d26ee1984993ec0389c02f06314a1e9dd9f7a21019a11e9606dd5fe639753daf11e73f4a62c6c5799b41a32e504456aa68671461394407f9fbd1e0d201b761574ce175f4ce95c89296b7267c829b0095155cde5ede641e81a5b2d1ee78ae411812a4b2acb7dce41efafce0f28f4d61355c085fe9a26e4eea4cd8359256f376e4cf44b708b8790e27805e295e8ce21ce5684a18fe544416846bdf3e4193332fa88b31f4a844d3fd7768b1e05dd533800bb354faa93297ff6a0ea46dad3218fa499e504753d5ad23ef7a43c8c32ade60f730e8d4bf3bea9938809080602058b59f62420d5f3d4b3dff67ded45ef60fbdd8f2935ac2710f582e167fb3d5802f83a08de57825b016ac1425ef64b7e0426f8a76ff43208718f8dc72430e756417ae9b13f923690d2bf76ea5f0bd20702b89db4c4ee64c6d7ddc775a44e4e63a8036986c578830a019cfb1aac0b0f6e4ef65210a557dd83087d774fb3eedc36c011956b23a766db7bc58b20d9b3d62f6d49b711f981e98f6c03dafa6e10abecb1e00678143615e0d72693e0bb8c92483203fdf8dbae7858a479ca7e2d06f36809965e91333c5e5378b9b44c5d41e9be01a890d57b37bb55b49ab654b0d721949e5aa9b5349d42bfae2d0a665a42a8cdf51ac1ba1b0267eb0368ec668f8906b72bffdb9185ec2465a03b19077da0e3b9d8c008a7e95fdd66ccc11f53156efb83190cdce5cf3a9990c87ca76aa6e5af5a64201eda5e57187fd9a058508f679eea68219becfc4c1bd8cda2c7b4172e5de7fc8a7f053ab3054926fd62b02a670893e4be6fc6d671ef50cd88f8de6a000000",
  "txid": "798edce33f5f3c06638201348dcc6c6f91b2c9045391db0e35054789b6c005fc",
  "hash": "7f1c2d0522411a8fd23c9f1fd39265f323a1117207e3ff2d151283eacab8c47f",
  "size": 5085,
  "vsize": 2278,
  "version": 1,
  "locktime": 106,
  "vin": [
    {
      "txid": "c7f1cd8dccbb06a88b32f07d18baaa4ce15cdcc498ec5b21c4ad7010219f2fe7",
      "vout": 0,
      "scriptSig": {
        "asm": "",
        "hex": ""
      },
      "txinwitness": [
        "0de2013758d99eb41ea3899f0ce6ba926f5635f9ddd6e1accf712e1a2e396642913ad804944f6ce6df105564c0453171b66cd56a4da10ecf191e245d314376fde712927c71be83220fa5b18ee04cfd2366f66c9d99502dff217470e6cb12d262bc4162cdd6902f7a47d841fc348ac554a0b8949cf31017355d2a9c8db2fd466e94ed6db060ea83df26e7f836b171f1a615b49cc2bda8d211ba2ecb4099d70b0949756d94bffdc829650689eacfd1efb0a431853344d14be320968752ec3e30f0d911906ed7a4c1b16ad177a8b60f5f25a102ec4d12a27a4d5431f245df861624b4d90fc05386403bcbee95a91fdc7d3ecf87e3126d1ed3e904609b7d033d5159685f677b90ef7d1b4da178ab29f6881e53f17135f89f9d755bc5d26af2fa8757260179b0d7cebae4306342506ddd709ae393605fad5044b897c169f18d2da2cbc8088d4aa7d2f2d1fea6b36b93fcc41af2f6552243081f404522a93fdfa83e9399a17429b2293fbae2c62dac62404ef1c6bedc8b496d1210f32883b4bbcfe67a3b62aa8f18cdff19a876cea18b7952b2553b9bcdff19fd0930e25f42a71137bffa4cbf68f8ed9f081535e668ae27d354e869fd79d507081189a7b3aa627a4d1bc2a9c0e1570bf0ad3c5e3216fa8778be63cfd4777a963f1cd899e54d7ccbc92afabfcc60184e1e4120cbb25531c47ec21c977ee80c37d5323d2cf402dd38d46413ff66b66922f1d40c37206b36c9a0dd444bb7c0423b102860db3546ddf52f31b827ecc67ac1a027ee8e7a0f9ac367de31b99a2d9bef79c2909feae960f27a390db4b493d914567b68c8409c82dc5175e828468c4a94e66c148156ba596618c33974977830b7d85481275dee1e536581c2d1bc819130587797ec30639c6feae624a0b02eb6a72faeb2a733e6b008758c92ff9e6d7b75164b87b25ada18f402a51a8caeb7bf7c2c0b99c4f3ed66f450206054f35a7dc57a478ab8a3fa9010806c1cc0a6f8c6001a4b975054dfd93d6d3f5432d3f74b02c3112f419558eeb63173e0527e4920c52382a1f9996933e5e7a70a616bc7e906120f987ff03583d87973af15337cc48d1f6b240220ca41be044a741058f01523cf5b52fe34e954cc29a1291a741221a3610ea7929bfd14dee5177b3abe6577f2415f107d06c3d45e41ff027325c518f4c8fe82e1c2d7dc0bb343b5c14d807538af4a4ebee47b458b0cbd93628e32fd3dc4e13745b342c689877deb3ad9aeb6bcc7ebf88b05a671ae7c0077ac6450dc345c44cc8456f5b1d2f64b166fb7a0aec2e0f7822f3a28fb499ee0389fd4da5833a828df0e6e38becde4449537251340dc090db8bcc8f0d4569a095f96ce868151123060d6ae9ceefbe94e30472bb16ef9e8891f2a47b03cb042467ac473e2a10dea3ac4f78cf0a33c740d103a7d3f8d90e9e1a7c424ac45f316f21b81e70ddfdadfb30d706cde16064bf9175e828dca0c38768ee15f1963d8722441289d13d403efd05c10f51ba1da9b71c11cb6d28a70070abe1efdf4b772f2ac00f141c7813a2ade24c4797e1822fbbfd1df08bf1601601c3915f8122598568b296bdb218406b1ea43ecae959e2ea6e53a5d58ca8279ba92025ee8baf60d9fda4702cbb8dced23a84771f28acd2af9fd6200c6c71db54b4801ddeb14c6fe2676f251879674399e960c4b9110d30c7cfb974e2a2ca0f222520fc3727ba50abd23490eef70d1aee85dfbe585c6e21a6e08889d885d5666528d6bd33da62f67fdb560d1712338eacedb5e853eb5b7cdcf4d4bda0aa3d0d713bc3da5244d2bb5f1a53fd08052014442d85c98511ae1f9d3df5c4b7ab15846c4e8b9f69f5fa6d3488ede6b0f88ae6c31a75cfa577c59e331f5a5def6b9785ce47dc152623b5cf110ba23e68fe5d9284070dae66da4fc3d7d3903f617a2c94c16a86819f1401363438174edc830469510200adcff2358bece03490a1bad3df622758a6f2761457b2530711075fdb93cbb3122ef2e79c7d6311f9da446e085eac2d303203d16f822b59c161e332bc3541fda6781ef53f31371accdb691f9a6edfa6acfcd29893cb56a8f97bd66f530a0354a5755f8664bd2f76d17dcc6bbd9ca7243cbbddff526407aeea4310ccb908b841bd413e2003fcaa1f022a7633cb089ea391934ba1bb57d5fa0d3883d6053bc9b8d22841b6f55dc2b51aa80a9beb2d4a40e1ea86da66d5a412216e2b2eb47e583cc67c8f0edf8227479cddf5a73ffb98c6e3a732b10c8725908aa69453f0344783e1ea5bf110d306c6692ce4fa326b6844755a49faa013dc4fcd40b4e6cf8ff2a2237c0d77a2c19d679c5a81552ca00f0fbfc583d69d7462158d30212b9c752102c3047a31cd101f8a0bc641c56a57d3207dc0d07b23bb6670045eda39e694f343bc87f47aca9b6e40e425c5fc1b9776a769c4ace301bfbe12237e210c8f27fab639075ed5de5479ceaf707b252b29eee84434af992f8eccc2d6cde67267de80dca96b3554f7f5fa713136830a69cbaf1e1a177eec77894ce56c6c8b244d1b75c578daa7e954c5fa4ee733c3b932874aea887534365abc0d2e4fe5d473f030bedef642d5959d74caf7a264d0a43b13b1c40f6cc512c2700e779a6928c161b9cd1862dfbffea4935505a813653abf9a10b8a8245681601b801a1013b90cd1c81852d2038863001db23a63dcf860ef276da0c79fbc8c5cbf17dc7a6f400f5c013d0b5eff9a2b5fc5bb3be132872a5e4d7dec1a11851d9ac5474af97d2fcdef7bdea47571f05a250c6116e5cc25da33a12b6bb87e00a2f4c8f9e9fc2b9dc673ff1c55a6756de46d4ad0f6cb46ab331384255ef35c1d6864c6dacfda781f4b38f56933e500ad793edc38a4ad296a46cfee6236b80e274f4bbf9c1e622ab0cfcdc00bb95c51648e9b9766b4bc3e9d5b1a5ddf23ca5aa93f94d379d2bd1f4f773c08d22772a3a79981c25fcee8fc15d5fae9fb379a451c85c668e8eb5dcc32827c73b622408432cf53f6c51c4b8e29655f90952dc5547dc259dd460336a9d90857450c359f6c6476e39af51d2fbb04781d3465c045f13d80ebd6187056f0fa6a992f48f5f17653d6eb8d1d0c7a8ffe1db082853ca49dca4078aa7785daafe7a72f5866cb4415634202b34099de3dad50c7feb6fb9003b608d2e1413e9673c007c21c2f4424f105b1184979e8b99d3ea8803dd6d9634c2cc74edb5e48458e7c82ea3005b5f96d4634d20071e860e9f590efd9548c61056077b456e99ebd138dabc00a356a4991a9c16afe8e2a2c707333bcdc25c39df042de302c70f14141b2c303c68748f939caacbcdcedfe3f4fe232c323943494b8d8f9297a8b3b9cdd9e7f1fe102123253d576674758bb5b8c5cfd0d1e5ee122430393f4e6ca2a4b9d4f0ff0000000000000000000000001225374401",
        "00d3434efe9e9b22fac922fc85de6a18c24d2c9f7969921a0dbdcaf4b522d5e3e219fab6a5be7407b41960f5d36bc1dce14b373c1b83fd5aaeda544ad872e5461e29c92ce81e880e433c88da80e2fe58b76fefb7d5eac2b5e4e35e2a90804fb6ef405739f4cbb161195dc92a7b843b6530ac97ec62c41a82ac90ca8780e8a685968bd7723338f877feeac046a2344e7bf6c51dea39bdef6152dd8e442df80cca629e950c81c7e48ad07e5e6aa16381a9cdb9121c17885e7d2c7473ca6e2d64c8aba999c5275462ecffd7bce7b3fb4374810744a7ebf2324bb58c77edf511c98f57224be0ffd697e54f7e4747043972e229e0292aaa2ae8d58ee5876628adb1e75c2a05874cdb61b6e8d1a5354adce676b48adf7328047dc9e1cf0b6b35cb7f5a2bb20251cb69b76dc027d2acb2c7611c6d0b3824fd8fe59d86a70710dee3f4ce63e168349d3eeb215b69a703aa63fd0a1cded6bc1486c4a14882764c8c19963bbb99fb944265b4aa8ca966dedf19fe69cbbb39f2d7606b9661968d1b3301dc1f5089299756f9dddac2711090d4f670c318f191b5a83381e5460e7ba1a4ca7ba58acb5834b68bddbc5f2d6dd9c4da123e55221adcde4f7403938bf5a787388603e0690b9abc3102af7bbcc2ccb09a18aa7edae5ecf4172430cce8454a46e5d26c88e6822a3785f4e4a3cc3a6dbf7dc6649192abc17b98f66bdf87a4ece7c769a26d9087da6767b796d44c78555774626578b4b44e6690194cd973b8d287e1fd040f4e37e89808ed6137beca5672a57e2395d8e103ab2614d5bf3e59ce12271f3420c4f4ec4ac41cc5f4aa5d0b37b86840684b345884ee45c858ba3eec4d47b3a296a5629f9fa614868c0be132589c53d0c000e56769d0c3984bc9efccf6c2e309ae78f74cb9cd2111731bfc09aa986c49bc952f68dcdc4cc02c835966e20d5cde25fcaa5feac98981380e7d0bf069bf43e57eb74efd97afc4c497b7df791c88c1b4b5702381c95c0525f547ddfe62372fb807062c64e943fc1d26ee1984993ec0389c02f06314a1e9dd9f7a21019a11e9606dd5fe639753daf11e73f4a62c6c5799b41a32e504456aa68671461394407f9fbd1e0d201b761574ce175f4ce95c89296b7267c829b0095155cde5ede641e81a5b2d1ee78ae411812a4b2acb7dce41efafce0f28f4d61355c085fe9a26e4eea4cd8359256f376e4cf44b708b8790e27805e295e8ce21ce5684a18fe544416846bdf3e4193332fa88b31f4a844d3fd7768b1e05dd533800bb354faa93297ff6a0ea46dad3218fa499e504753d5ad23ef7a43c8c32ade60f730e8d4bf3bea9938809080602058b59f62420d5f3d4b3dff67ded45ef60fbdd8f2935ac2710f582e167fb3d5802f83a08de57825b016ac1425ef64b7e0426f8a76ff43208718f8dc72430e756417ae9b13f923690d2bf76ea5f0bd20702b89db4c4ee64c6d7ddc775a44e4e63a8036986c578830a019cfb1aac0b0f6e4ef65210a557dd83087d774fb3eedc36c011956b23a766db7bc58b20d9b3d62f6d49b711f981e98f6c03dafa6e10abecb1e00678143615e0d72693e0bb8c92483203fdf8dbae7858a479ca7e2d06f36809965e91333c5e5378b9b44c5d41e9be01a890d57b37bb55b49ab654b0d721949e5aa9b5349d42bfae2d0a665a42a8cdf51ac1ba1b0267eb0368ec668f8906b72bffdb9185ec2465a03b19077da0e3b9d8c008a7e95fdd66ccc11f53156efb83190cdce5cf3a9990c87ca76aa6e5af5a64201eda5e57187fd9a058508f679eea68219becfc4c1bd8cda2c7b4172e5de7fc8a7f053ab3054926fd62b02a670893e4be6fc6d671ef50cd88f8de"
      ],
      "sequence": 4294967294
    }
  ],
  "vout": [
    {
      "value": 1.0,
      "n": 0,
      "scriptPubKey": {
        "asm": "OP_RETURN bd2609c1c6d10c8093ab8eb8444f735a116338b9212f76bd8785a9ae06da2c7f 2532abfae13bf869c7b4454713170f75980b39ff29704004839fa00c99bc2b5105128bdac11bd849e794656733372f55b82b19df09506024a3bf802cb99c0b716572ebbaa17bb82987f4050753574f35d84b79bf69300044c3dfe04cd9fc6b114552cb9a815b9809a7d4252773776f15f86b599f49102064e3ffc06cf9dc4b31a5b22b7a61bb78e94734c5c793978ff5188bb97fa9f0c084031f208c193cabd185920b5a419b58c96714e5e7b3b7afd538ab995f89d0e0a4233f00ac391c8bf1e5f26b3a21fb38a907748587d3d7cfb558cbf93fe9b080c4435f60cc597ceb91c5d24b1a01db18892754a5a7f3f7ef9578ebd91fc990a0e4637f40ec795ccbb12532abfae13bf869c7b4454713170f75980b39ff29704004839fa00c99bc2b5105128bdac11bd849e794656733372f55b82b19df09506024a3bf802cb99c0b716572ebbaa17bb82987f4050753574f35d84b79bf69300044c3dfe04cd9fc6b114552cb9a815b9809a7d4252773776f15f86b599f49102064e3ffc06cf9dc4b31a5b22b7a61bb78e94734c5c793978ff5188bb97fa9f0c084031f208c193cabd185920b5a419b58c96714e5e7b3b7afd538ab995f89d0e0a4233f00ac391c8bf1e5f26b3a21fb38a907748587d3d7cfb558cbf93fe9b080c4435f60cc597ceb91c5d24b1a01db18892754a5a7f3f7ef9578ebd91fc990a0e4637f40ec795ccbb12532abfae13bf869c7b4454713170f75980b39ff29704004839fa00c99bc2b5105128bdac11bd849e794656733372f55b82b19df09506024a3bf802cb99c0b716572ebbaa17bb82987f4050753574f35d84b79bf69300044c3dfe04cd9fc6b114552cb9a815b9809a7d4252773776f15f86b599f49102064e3ffc06cf9dc4b31a5b22b7a61bb78e94734c5c793978ff5188bb97fa9f0c084031f208c193cabd185920b5a419b58c96714e5e7b3b7afd538ab995f89d0e0a4233f00ac391c8bf1e5f26b3a21fb38a907748587d3d7cfb558cbf93fe9b080c4435f60cc597ceb91c5d24b1a01db18892754a5a7f3f7ef9578ebd91fc990a0e4637f40ec795ccbb12532abfae13bf869c7b4454713170f75980b39ff29704004839fa00c99bc2b5105128bdac11bd849e794656733372f55b82b19df09506024a3bf802cb99c0b716572ebbaa17bb82987f4050753574f35d84b79bf69300044c3dfe04cd9fc6b114552cb9a815b9809a7d4252773776f15f86b599f49102064e3ffc06cf9dc4b31a5b22b7a61bb78e94734c5c793978ff5188bb97fa9f0c084031f208c193cabd185920b5a419b58c96714e5e7b3b7afd538ab995f89d0e0a4233f00ac391c8bf1e5f26b3a21fb38a907748587d3d7cfb558cbf93fe9b080c4435f60cc597ceb91c5d24b1a01db18892754a5a7f3f7ef9578ebd91fc990a0e4637f40ec795ccbb12532abfae13bf869c7b4454713170f75980b39ff29704004839fa00c99bc2b5105128bdac11bd849e794656733372f55b82b19df09506024a3bf802cb99c0b716572ebbaa17bb82987f4050753574f35d84b79bf69300044c3dfe04cd9fc6b114552cb9a815b9809a7d4252773776f15f86b599f49102064e3ffc06cf9dc4b31a5b22b7a61bb78e94734c5c793978ff5b07e5265a944754bd78084281bd50db42c4332acdd165f73b4d8acd9a5be8199",
        "hex": "6a20bd2609c1c6d10c8093ab8eb8444f735a116338b9212f76bd8785a9ae06da2c7f4db0042532abfae13bf869c7b4454713170f75980b39ff29704004839fa00c99bc2b5105128bdac11bd849e794656733372f55b82b19df09506024a3bf802cb99c0b716572ebbaa17bb82987f4050753574f35d84b79bf69300044c3dfe04cd9fc6b114552cb9a815b9809a7d4252773776f15f86b599f49102064e3ffc06cf9dc4b31a5b22b7a61bb78e94734c5c793978ff5188bb97fa9f0c084031f208c193cabd185920b5a419b58c96714e5e7b3b7afd538ab995f89d0e0a4233f00ac391c8bf1e5f26b3a21fb38a907748587d3d7cfb558cbf93fe9b080c4435f60cc597ceb91c5d24b1a01db18892754a5a7f3f7ef9578ebd91fc990a0e4637f40ec795ccbb12532abfae13bf869c7b4454713170f75980b39ff29704004839fa00c99bc2b5105128bdac11bd849e794656733372f55b82b19df09506024a3bf802cb99c0b716572ebbaa17bb82987f4050753574f35d84b79bf69300044c3dfe04cd9fc6b114552cb9a815b9809a7d4252773776f15f86b599f49102064e3ffc06cf9dc4b31a5b22b7a61bb78e94734c5c793978ff5188bb97fa9f0c084031f208c193cabd185920b5a419b58c96714e5e7b3b7afd538ab995f89d0e0a4233f00ac391c8bf1e5f26b3a21fb38a907748587d3d7cfb558cbf93fe9b080c4435f60cc597ceb91c5d24b1a01db18892754a5a7f3f7ef9578ebd91fc990a0e4637f40ec795ccbb12532abfae13bf869c7b4454713170f75980b39ff29704004839fa00c99bc2b5105128bdac11bd849e794656733372f55b82b19df09506024a3bf802cb99c0b716572ebbaa17bb82987f4050753574f35d84b79bf69300044c3dfe04cd9fc6b114552cb9a815b9809a7d4252773776f15f86b599f49102064e3ffc06cf9dc4b31a5b22b7a61bb78e94734c5c793978ff5188bb97fa9f0c084031f208c193cabd185920b5a419b58c96714e5e7b3b7afd538ab995f89d0e0a4233f00ac391c8bf1e5f26b3a21fb38a907748587d3d7cfb558cbf93fe9b080c4435f60cc597ceb91c5d24b1a01db18892754a5a7f3f7ef9578ebd91fc990a0e4637f40ec795ccbb12532abfae13bf869c7b4454713170f75980b39ff29704004839fa00c99bc2b5105128bdac11bd849e794656733372f55b82b19df09506024a3bf802cb99c0b716572ebbaa17bb82987f4050753574f35d84b79bf69300044c3dfe04cd9fc6b114552cb9a815b9809a7d4252773776f15f86b599f49102064e3ffc06cf9dc4b31a5b22b7a61bb78e94734c5c793978ff5188bb97fa9f0c084031f208c193cabd185920b5a419b58c96714e5e7b3b7afd538ab995f89d0e0a4233f00ac391c8bf1e5f26b3a21fb38a907748587d3d7cfb558cbf93fe9b080c4435f60cc597ceb91c5d24b1a01db18892754a5a7f3f7ef9578ebd91fc990a0e4637f40ec795ccbb12532abfae13bf869c7b4454713170f75980b39ff29704004839fa00c99bc2b5105128bdac11bd849e794656733372f55b82b19df09506024a3bf802cb99c0b716572ebbaa17bb82987f4050753574f35d84b79bf69300044c3dfe04cd9fc6b114552cb9a815b9809a7d4252773776f15f86b599f49102064e3ffc06cf9dc4b31a5b22b7a61bb78e94734c5c793978ff5b07e5265a944754bd78084281bd50db42c4332acdd165f73b4d8acd9a5be8199",
        "type": "nulldata"
      }
    },
    {
      "value": 499991.8648,
      "n": 1,
      "scriptPubKey": {
        "asm": "1 4f3130141d2159ff34aeb204f87b3d9f2ad3773ce820a26c5ee0ebde43a02421",
        "hex": "51204f3130141d2159ff34aeb204f87b3d9f2ad3773ce820a26c5ee0ebde43a02421",
        "reqSigs": 1,
        "type": "witness_v1_scripthash",
        "addresses": [
          "3QJmnh"
        ]
      }
    }
  ],
  "blockhash": "ed58b71ef50cb049f6fd5c1ad274bdeb3951d970e0a56ec51ef7152d34b6d8c5",
  "confirmations": 1,
  "time": 1764177054,
  "blocktime": 1764177054
}