{
  "hex": "01000000000101e02e4aea0128e32e5e181e601d094e2048f31f2277c178f61c7d45725048ca310100000000feffffff021076cf5d792d00002251207d4671c5ac7fb05f3a0db183abbbb3b5e64bf8980f1445aead740e53ae48c29100e1f50500000000fdd5046a20021598304bc31251d738a7d4bb3fb9bf975cd038a43609fc242dfe519ed456c24db0047c404dce28dffd072bc1ce3666c461738abc00304d2fbddd079b6fd1e4dbec165c606dee08ffdd270be1ee1646e44153aa9c20106d0f9dfd27bb4ff1c4fbcc363c000d8e689fbd476b818e7626842133cafc40700d6ffd9d47db2f91a49bac561c202dae48bf9d674ba1ae5606a40113eadc60502d4fddbd67fb0fb184bb8c76fcc0cd4ea85f7d87ab414eb6e644e1f30a3c80b0cdaf3d5d871bef51645b6c96dce0ed6e887f5da78b616e96c664c1d32a1ca090ed8f1d7da73bcf71447b4cb6bc808d0ee81f3dc7eb010ef6a604a1b34a7cc0f08def7d1dc75baf11241b2cd69ca0ad2ec83f1de7cb212ed6862481936a5ce0d0adcf5d3de77b8f31043b0cf67c404dce28dffd072bc1ce3666c461738abc00304d2fbddd079b6fd1e4dbec165c606dee08ffdd270be1ee1646e44153aa9c20106d0f9dfd27bb4ff1c4fbcc363c000d8e689fbd476b818e7626842133cafc40700d6ffd9d47db2f91a49bac561c202dae48bf9d674ba1ae5606a40113eadc60502d4fddbd67fb0fb184bb8c76fcc0cd4ea85f7d87ab414eb6e644e1f30a3c80b0cdaf3d5d871bef51645b6c96dce0ed6e887f5da78b616e96c664c1d32a1ca090ed8f1d7da73bcf71447b4cb6bc808d0ee81f3dc7eb010ef6a604a1b34a7cc0f08def7d1dc75baf11241b2cd69ca0ad2ec83f1de7cb212ed6862481936a5ce0d0adcf5d3de77b8f31043b0cf67c404dce28dffd072bc1ce3666c461738abc00304d2fbddd079b6fd1e4dbec165c606dee08ffdd270be1ee1646e44153aa9c20106d0f9dfd27bb4ff1c4fbcc363c000d8e689fbd476b818e7626842133cafc40700d6ffd9d47db2f91a49bac561c202dae48bf9d674ba1ae5606a40113eadc60502d4fddbd67fb0fb184bb8c76fcc0cd4ea85f7d87ab414eb6e644e1f30a3c80b0cdaf3d5d871bef51645b6c96dce0ed6e887f5da78b616e96c664c1d32a1ca090ed8f1d7da73bcf71447b4cb6bc808d0ee81f3dc7eb010ef6a604a1b34a7cc0f08def7d1dc75baf11241b2cd69ca0ad2ec83f1de7cb212ed6862481936a5ce0d0adcf5d3de77b8f31043b0cf67c404dce28dffd072bc1ce3666c461738abc00304d2fbddd079b6fd1e4dbec165c606dee08ffdd270be1ee1646e44153aa9c20106d0f9dfd27bb4ff1c4fbcc363c000d8e689fbd476b818e7626842133cafc40700d6ffd9d47db2f91a49bac561c202dae48bf9d674ba1ae5606a40113eadc60502d4fddbd67fb0fb184bb8c76fcc0cd4ea85f7d87ab414eb6e644e1f30a3c80b0cdaf3d5d871bef51645b6c96dce0ed6e887f5da78b616e96c664c1d32a1ca090ed8f1d7da73bcf71447b4cb6bc808d0ee81f3dc7eb010ef6a604a1b34a7cc0f08def7d1dc75baf11241b2cd69ca0ad2ec83f1de7cb212ed6862481936a5ce0d0adcf5d3de77b8f31043b0cf67c404dce28dffd072bc1ce3666c461738abc00304d2fbddd079b6fd1e4dbec165c606dee08ffdd270be1ee1646e44153aa9c20106d0f9dfd27bb4ff1c4fbcc363c000d8e689fbd476b818e7626842133cafc40700d6ffd9d47db2f91a49bac561c202dae48bf9d674ba1ae5606a40113eadc60502d4fddbd67fb0fb184bb8c76fcc0cd4ea85f7d87ab414eb6e644e1f3c5ed8e59cbe0e596b14b1aaca36fb8b9ef98ffd0c941d85ec51c9583e8b46fd102fd7509b0835964581803cbf853f2a3fe2a9c684a870146f22a8ff529f641c44f39fb80597a77f918b9c0b5feffc83fba429cb7d37a8dbd409210ee380646f8433b0df3d35199bbf53918a4501fdc108f57af8555ff3292f95b921df3820b0d6c91466329cdeb684c977ba33f7f0a8d55a6782ceb87a14dfa492f1aa6bc8e208ba14b93a0e843367dc28a84e646a5a93026e973066867b8ff9215282e4b43d27076ab853897303d029c02fdde87d5669b0f3cb6ffd9abc25d11097759fa348b45295fba9c84bc08d38a2cf8b41ade37c76de5e711eb4a019f588744cb556a732829ef918acf00812b734a52c144971f29cbd90d49e3d0ce8fad3649b3cd2e888d8d896f3417ee1197f231f3ca5871e3841848616209dbe97947837167be07f2ca9cc053609fb2e08215207af58cb3a6b52e54fcbb7f99e85edfd5a487e81c67b3044c9f3dc7451951fc16aae5dc00ad0137f16f9a4c5f81702a78bcf9d9076fdc18b413d58f06ba1a79f361a918224d97c21f4a731e242a11f887aa166ae93f95e0bc38df32a7bd733550e0a86038c2c996a827d49301c35e3e660a90f60546bcd57c69af0831a858b0d55031b2f3971db60f34afc6b34dc0aafa35f2848b94000c21336b79319099cc477adaf5d1562b0dc12fb234e5a5fdf52fd90965aae615ef65ca7b0d8e38d24e8fc01157e521a1c35d6d1610a660cbe76d5092d11367ef4f1a27f1ee352f85f2811a0935c1d2a2754f451a6461c1def99197aa040fbe939f26a18c90da89ec00453c6ae26ca71190ae9d8616f627ea51ec4de18030d291ead0d5c30b46cdd50f665e1c07f485c7db1ce897d24862b79fb02f3e527ba8cfe055d929f4ee0661e741d7444b3e6d1c14ec55be4247a99a51fee20ba4e218901ecea623be4d3342021f7cb318024be700e5a262816f555bdf4f78630a86f8fbdee94e358ca2a4c19c830b229edd30335c04838765cfb139dc741e07e4728188d8e5d910ff21d21516cdb5ef861799ea078bf0daae2ff8e51b0c8284c20c09bb100b5c558a0afac4407ab89a850c3a32ec2bea26bce3c9e64a7b106660b05dd4266805cb91b6a26857921aeaff6986c4ebc9cbd01a9ab1396f3feda58bbc39299a06ae4d57979ca7581b0e8394f08bf204df981b66dcb6e7c35a8f330bd0e29cf27a32f3c2601de526af9dcc912f1edb417556e9f0b1a1b0f3690f50bbab16a5a8aebd34074d81d5b7547b9c9d809d55e9599128acd6ba7007ebcf49f1707120f7b44e7469ee915f3236ec23fc8e6c1cdbed4ded14163150d81b9e8247c26ecd18e567193a4dfb6e10d72224016ae69ba9e6ffbb291edb76af47932624ba08c8789d3e9cd9d436067f71c8e68dd0436e4848e66ca364680a0410c54fa0085e2174dd738c38f724f991f3db687f332ba59e873a938e7078fceb43733254160f86ea899ecaddc8be7ef7181f683552cf96fdcbcd7486f215bccc4e914f654bc4507d7455b4de6666c72563169272ad3f184cea81ffe53c500ae7119b60751bf0986c11990e4d867934fd5b02b02d3f13dac5250d19045f92d91086cb36daadc753aecc5166689ffef03ad116e539df065bd63be1a8ccbad174563f59ac4cdb1542daeced8e6e180032babd2b4ad71099cbb82268dec0b16bbfc2803946286dd03c7664126946d115776482caaa4848d82ab2f5708a0f9bf53eb9e20ffca23e25ff1a439895509476dd2227197090c8f9b4f384c14dcf8612023596926577c0b39da3dd9bd5139ad04ffb804fbad522605f500802f1203d2a0790f18aa27ff2aa933dfaa607c9131cc4181ee17f9b9110b0af6f3604e1b32fb941c692088f2e5b0db5e33f3ed5f0f0790b73a5ec0c389f3a0945b8fd8df5c221472332d01d57c6ea21b9cb6e2373d5d98083d8588e8f504825fd2b850d2cad209d76106833f69a2c235aeeb364f37150910fbd92745944c35d8179604a833874cc3bb4a54db696e5d743a1edd35c70e040dce9d548cf15f2d901886c3c18af2c9bb65d243c110968e8b814530665bf612a2881e35be957c226a8f9601e64d6b051fa864fdcdc09d2faeb9c631444c2b634a0f2af4afdd12fc459ff157119db218fb594c5a4799af8ab6c7dd096490d8cf75419083048f9bbcd8d91a00815ab4e048c63a5c95d531bed0ff909fede06e11a2dc88f3761e658bd6e25db428de2ae8a8bb2677d59bddb041c4b262374968be6afbc4ef5d6a7c2feb8da87a2108fef3a2a01ffa551fc6dcbdd69bb1a9f1be80af92e95ec5e940d8de4c77e81f2dd4549bc8c1337d3a12c9948486268ac01a211b6238efb76ca5b5ed217015eed745a68eef5df8777408e847c86676c2622a864a9b9fd1035f8a4b432d719ec008fffaebb3beb58b9d8204a7fd1ffe69d0ac49602b993ecff4e15b02aa0002eb6905bd344bb11684b10b0166d32588cce4ac5e293852948807d40ec317cbb5ab28999a92f850056b325f1276b9013cb4900ed44defaf4d10424b6fecd1aa9744a30d003e5914192442362ed490d0475766955fc54c0d53a612e71125451f72cb1b403425799e1a05e4e0aacad7a7111f544aae76add45358e4252989dc28f4ce0ceff56dd560bf07f78eb265b9c4cfcee0111f14b5cba8f518f2465d42b4b630677b485e8cae072fe9ddd0d71e9ea1d544bae18398611899c402abce43f172b2038e3f9525cb3d5b2273e04ae8ce26b85e04d938509ec9a791097b4b8d8e1f6f7c34b3fa44eff1fc73d068295a24fb276865eb8809f0aab349c92cc2dbe1b232944d3f1d2c3948373c6738896066bf9d09c9efe8dbc2dc4a98faaf7257b81045e820479048ecb9febb9b54f6b70edb8dc6faa8b9f5092506eb15d0bae37585c6ba3ef46d9c9e9e5634687679b67841134ba3387b5e8a2c89b599d5f56edf5f505991cf93a6ef3d9b8ef25d429a928fdacd5149c163fce45168a52c1a1647c0937712f9a60e193dd9ca4ccb0ad9b9fc903750d131a2d8cb91b5e3f78cccc6769235f2926aa78770577347463cdc11bb59f0c787b43e900c35d9b90c0bf9db3bf30e6a409615a645164c9ea777995375aae74dcc22ea3a85677c4d4f3b52e93cf8b6cb207ca8c5a2b65a966b7134ef5e7ba9052f1593f884b1405335c8c031f46ccacb7abe622c8d538d8168db481785c43b83618e41bad17cff7c4c58b435f6cd727c7e05f1a0e9dd4b47c2880f37d83fd92ea6ee87783c16f934f362feb3463ec49c390e538bdf666ee3d5caeb6a8c42df29663b801004c333fb24c9e77cd4ce5992a407658b42e484f0271c35310334d5b6eafb3c2d1d6dbe816465b5e616468777f98aee0ec0725283a4b5e6a6d78898e93b0c4ced0e900011b1d3f42436e737983a0b8c6d2d3e4fc00000000000000000000000000000000000000000c192a3c01fd210500ab889210eb94e17d12325209f5118f182397948a3d316f74967e69d1b0424583c9d03f57ba285ae845893975151b953d909b21a3d7e38f4eb6f2a9bc25ac43056bca5a6292702932a8454edc9ab4609e682c2bb239aac4593882cc039ac17c564add84b4e311493319ca73534149f73b04723a58701c7d9b97ccb4d56174d03344552b0b93679a83f53aadd7a6a42aae2a901723873138a06582a58d86cd0a82d7cb43f37659e18a6b05b27d81bd15afa323297880dcf3142e7a400486d895e5db1aecae7b8677155cbafa7dc0e4e86884ad857d2fa25bb219c7a90f877dfd886b48bda3baf6986e67dd737d24f63e6d3e156e82749ab47ea0a4128fedc3ec2f25a2fb0e74168e74250638e11d5dc389a4a159d8e8832b37c6a0c7d4fea877a4bf5f227b21aa18dfe9c32bceaa6eb7a308aa8da2adfd9281a13d8627ee46a0ace488ab433d0fd5f81233045607e63166d2bac2dc764e3843fe88b59522a87fba963f616d3172d83e366b0f489d9b9fd5040ff21ea058bf46f4df068a2819af07f790010f555b4229d3bba9007d97f9a0e1feaa999f770ece5aba02881f29a9b4042543093451c4bd5b194957511b80c073f71731c174b9e52a1336309e35139dc181dbb92149bb123b52a41d35e296f208fdcdcd25eb345f466d3478595f19281448f59de5a658c7458a0cc3b5fe02268041b5f0c2de2f7e4a93cdbb815ab5a4730dd411485a20ab8e4db35c616cee0cf1e74d8d2a158a23bd320e645d68d2bbf262cdddebe0543d307e0deb154b498aba5183b5ae6d8554f566d6c2d6cf74b4c0cbcce4e21a82e8362bba66412c02914a95f877b03eeecb777dcf523789678cac31dca505f72053cfbfea49c84402b512340cb073dce1bfdcd2ff393718dae8cee5c2c579dc6d2a34f2e116e8e873734a22fbd2fa13c0b1424b3698e1f561af0a9aed4a33efea9d8996cc031e4358dc71956a0fc2ddbe92b67becf27aea9fb4634d011c10327c872f9fccc8a456592b212316d1edd9f2d22fc4c5953b2dd2948876e3467ebc1d2f861f5c39304f6f1c1e9d581a7b2ad7d0712de19649f9007ca6a71104efa8cbe65b6cba2a059b6d2f12814b894cda51e5092c90d9c9baffb2d3f1040480585aa99330124756d04fd38ca521a51c609ab96ad8f4f2891ff8a221fd95ebf3ea855b643c5e2e0d204c48debda1dec8023a4973cc82f26f7f0819740e4234e3379fea240e8c82bb5ba1bcd3d67c4256ba1dc3220f4fa443646f7a01ac56715388abcd32b7370ea23fed7e551400a080b5e70c234ef6bcc03f31cf285109a8811b4f3ffb7bec481f579d3dcbc08122d0660fef09b8acd8dfdcdea17d011d9851020129c32218c6517b47c3e07153b4a8fa72674ac9649e46605016d5eaf81b191988ce9b75bee020e5e3a151175bde4b83b1304c7392a29e0deab0ae663cd12c4f38319e96caddd7a22fbad71e679e2218382c5c55fc0fd51af390ff02667234e653d8fa6b4cae4b22d45f03992ecd41df8c49485c084c1bdb5166ff6ba5c2b901afbb9f5c761c110f40f64cf279affa538ba3c62075fd8dfaa57350d78bf9fce3b377ffab9a4747f3e9c5686d81d2150f8c0d992296818cdc7578a2a04865e9e6e02b32231f919e0e37fe6ccc88a2b8b0c7fe4c62809eff303f884b90cae157dcafd492580bc54787b6ee445793902a6553ed4440484303d8871c4314ad6b7e68079353e948b99a7f1ce643f63cd3efdd5906618f1b8e04f742405feb87fedf13189c831bf164b0de56dfc083895309d62c2e2b821eed8b7bafd3650baf01b7dcde04387698849771682e98030896d99f1aca542af0ecadcb558569000000",
  "txid": "7f5d0681b39c1e80b8d107e463b3bfcff328fb0a92792e59d1da6647fd76ff8c",
  "hash": "6827f1f39572ebfe6bab2ac135fbb6243f4b88a3fca893e2c76d781f8b6d81c9",
  "size": 5085,
  "vsize": 2278,
  "version": 1,
  "locktime": 105,
  "vin": [
    {
      "txid": "31ca485072457d1cf678c177221ff348204e091d601e185e2ee32801ea4a2ee0",
      "vout": 1,
      "scriptSig": {
        "asm": "",
        "hex": ""
      },
      "txinwitness": [
        "b0835964581803cbf853f2a3fe2a9c684a870146f22a8ff529f641c44f39fb80597a77f918b9c0b5feffc83fba429cb7d37a8dbd409210ee380646f8433b0df3d35199bbf53918a4501fdc108f57af8555ff3292f95b921df3820b0d6c91466329cdeb684c977ba33f7f0a8d55a6782ceb87a14dfa492f1aa6bc8e208ba14b93a0e843367dc28a84e646a5a93026e973066867b8ff9215282e4b43d27076ab853897303d029c02fdde87d5669b0f3cb6ffd9abc25d11097759fa348b45295fba9c84bc08d38a2cf8b41ade37c76de5e711eb4a019f588744cb556a732829ef918acf00812b734a52c144971f29cbd90d49e3d0ce8fad3649b3cd2e888d8d896f3417ee1197f231f3ca5871e3841848616209dbe97947837167be07f2ca9cc053609fb2e08215207af58cb3a6b52e54fcbb7f99e85edfd5a487e81c67b3044c9f3dc7451951fc16aae5dc00ad0137f16f9a4c5f81702a78bcf9d9076fdc18b413d58f06ba1a79f361a918224d97c21f4a731e242a11f887aa166ae93f95e0bc38df32a7bd733550e0a86038c2c996a827d49301c35e3e660a90f60546bcd57c69af0831a858b0d55031b2f3971db60f34afc6b34dc0aafa35f2848b94000c21336b79319099cc477adaf5d1562b0dc12fb234e5a5fdf52fd90965aae615ef65ca7b0d8e38d24e8fc01157e521a1c35d6d1610a660cbe76d5092d11367ef4f1a27f1ee352f85f2811a0935c1d2a2754f451a6461c1def99197aa040fbe939f26a18c90da89ec00453c6ae26ca71190ae9d8616f627ea51ec4de18030d291ead0d5c30b46cdd50f665e1c07f485c7db1ce897d24862b79fb02f3e527ba8cfe055d929f4ee0661e741d7444b3e6d1c14ec55be4247a99a51fee20ba4e218901ecea623be4d3342021f7cb318024be700e5a262816f555bdf4f78630a86f8fbdee94e358ca2a4c19c830b229edd30335c04838765cfb139dc741e07e4728188d8e5d910ff21d21516cdb5ef861799ea078bf0daae2ff8e51b0c8284c20c09bb100b5c558a0afac4407ab89a850c3a32ec2bea26bce3c9e64a7b106660b05dd4266805cb91b6a26857921aeaff6986c4ebc9cbd01a9ab1396f3feda58bbc39299a06ae4d57979ca7581b0e8394f08bf204df981b66dcb6e7c35a8f330bd0e29cf27a32f3c2601de526af9dcc912f1edb417556e9f0b1a1b0f3690f50bbab16a5a8aebd34074d81d5b7547b9c9d809d55e9599128acd6ba7007ebcf49f1707120f7b44e7469ee915f3236ec23fc8e6c1cdbed4ded14163150d81b9e8247c26ecd18e567193a4dfb6e10d72224016ae69ba9e6ffbb291edb76af47932624ba08c8789d3e9cd9d436067f71c8e68dd0436e4848e66ca364680a0410c54fa0085e2174dd738c38f724f991f3db687f332ba59e873a938e7078fceb43733254160f86ea899ecaddc8be7ef7181f683552cf96fdcbcd7486f215bccc4e914f654bc4507d7455b4de6666c72563169272ad3f184cea81ffe53c500ae7119b60751bf0986c11990e4d867934fd5b02b02d3f13dac5250d19045f92d91086cb36daadc753aecc5166689ffef03ad116e539df065bd63be1a8ccbad174563f59ac4cdb1542daeced8e6e180032babd2b4ad71099cbb82268dec0b16bbfc2803946286dd03c7664126946d115776482caaa4848d82ab2f5708a0f9bf53eb9e20ffca23e25ff1a439895509476dd2227197090c8f9b4f384c14dcf8612023596926577c0b39da3dd9bd5139ad04ffb804fbad522605f500802f1203d2a0790f18aa27ff2aa933dfaa607c9131cc4181ee17f9b9110b0af6f3604e1b32fb941c692088f2e5b0db5e33f3ed5f0f0790b73a5ec0c389f3a0945b8fd8df5c221472332d01d57c6ea21b9cb6e2373d5d98083d8588e8f504825fd2b850d2cad209d76106833f69a2c235aeeb364f37150910fbd92745944c35d8179604a833874cc3bb4a54db696e5d743a1edd35c70e040dce9d548cf15f2d901886c3c18af2c9bb65d243c110968e8b814530665bf612a2881e35be957c226a8f9601e64d6b051fa864fdcdc09d2faeb9c631444c2b634a0f2af4afdd12fc459ff157119db218fb594c5a4799af8ab6c7dd096490d8cf75419083048f9bbcd8d91a00815ab4e048c63a5c95d531bed0ff909fede06e11a2dc88f3761e658bd6e25db428de2ae8a8bb2677d59bddb041c4b262374968be6afbc4ef5d6a7c2feb8da87a2108fef3a2a01ffa551fc6dcbdd69bb1a9f1be80af92e95ec5e940d8de4c77e81f2dd4549bc8c1337d3a12c9948486268ac01a211b6238efb76ca5b5ed217015eed745a68eef5df8777408e847c86676c2622a864a9b9fd1035f8a4b432d719ec008fffaebb3beb58b9d8204a7fd1ffe69d0ac49602b993ecff4e15b02aa0002eb6905bd344bb11684b10b0166d32588cce4ac5e293852948807d40ec317cbb5ab28999a92f850056b325f1276b9013cb4900ed44defaf4d10424b6fecd1aa9744a30d003e5914192442362ed490d0475766955fc54c0d53a612e71125451f72cb1b403425799e1a05e4e0aacad7a7111f544aae76add45358e4252989dc28f4ce0ceff56dd560bf07f78eb265b9c4cfcee0111f14b5cba8f518f2465d42b4b630677b485e8cae072fe9ddd0d71e9ea1d544bae18398611899c402abce43f172b2038e3f9525cb3d5b2273e04ae8ce26b85e04d938509ec9a791097b4b8d8e1f6f7c34b3fa44eff1fc73d068295a24fb276865eb8809f0aab349c92cc2dbe1b232944d3f1d2c3948373c6738896066bf9d09c9efe8dbc2dc4a98faaf7257b81045e820479048ecb9febb9b54f6b70edb8dc6faa8b9f5092506eb15d0bae37585c6ba3ef46d9c9e9e5634687679b67841134ba3387b5e8a2c89b599d5f56edf5f505991cf93a6ef3d9b8ef25d429a928fdacd5149c163fce45168a52c1a1647c0937712f9a60e193dd9ca4ccb0ad9b9fc903750d131a2d8cb91b5e3f78cccc6769235f2926aa78770577347463cdc11bb59f0c787b43e900c35d9b90c0bf9db3bf30e6a409615a645164c9ea777995375aae74dcc22ea3a85677c4d4f3b52e93cf8b6cb207ca8c5a2b65a966b7134ef5e7ba9052f1593f884b1405335c8c031f46ccacb7abe622c8d538d8168db481785c43b83618e41bad17cff7c4c58b435f6cd727c7e05f1a0e9dd4b47c2880f37d83fd92ea6ee87783c16f934f362feb3463ec49c390e538bdf666ee3d5caeb6a8c42df29663b801004c333fb24c9e77cd4ce5992a407658b42e484f0271c35310334d5b6eafb3c2d1d6dbe816465b5e616468777f98aee0ec0725283a4b5e6a6d78898e93b0c4ced0e900011b1d3f42436e737983a0b8c6d2d3e4fc00000000000000000000000000000000000000000c192a3c01",
        "00ab889210eb94e17d12325209f5118f182397948a3d316f74967e69d1b0424583c9d03f57ba285ae845893975151b953d909b21a3d7e38f4eb6f2a9bc25ac43056bca5a6292702932a8454edc9ab4609e682c2bb239aac4593882cc039ac17c564add84b4e311493319ca73534149f73b04723a58701c7d9b97ccb4d56174d03344552b0b93679a83f53aadd7a6a42aae2a901723873138a06582a58d86cd0a82d7cb43f37659e18a6b05b27d81bd15afa323297880dcf3142e7a400486d895e5db1aecae7b8677155cbafa7dc0e4e86884ad857d2fa25bb219c7a90f877dfd886b48bda3baf6986e67dd737d24f63e6d3e156e82749ab47ea0a4128fedc3ec2f25a2fb0e74168e74250638e11d5dc389a4a159d8e8832b37c6a0c7d4fea877a4bf5f227b21aa18dfe9c32bceaa6eb7a308aa8da2adfd9281a13d8627ee46a0ace488ab433d0fd5f81233045607e63166d2bac2dc764e3843fe88b59522a87fba963f616d3172d83e366b0f489d9b9fd5040ff21ea058bf46f4df068a2819af07f790010f555b4229d3bba9007d97f9a0e1feaa999f770ece5aba02881f29a9b4042543093451c4bd5b194957511b80c073f71731c174b9e52a1336309e35139dc181dbb92149bb123b52a41d35e296f208fdcdcd25eb345f466d3478595f19281448f59de5a658c7458a0cc3b5fe02268041b5f0c2de2f7e4a93cdbb815ab5a4730dd411485a20ab8e4db35c616cee0cf1e74d8d2a158a23bd320e645d68d2bbf262cdddebe0543d307e0deb154b498aba5183b5ae6d8554f566d6c2d6cf74b4c0cbcce4e21a82e8362bba66412c02914a95f877b03eeecb777dcf523789678cac31dca505f72053cfbfea49c84402b512340cb073dce1bfdcd2ff393718dae8cee5c2c579dc6d2a34f2e116e8e873734a22fbd2fa13c0b1424b3698e1f561af0a9aed4a33efea9d8996cc031e4358dc71956a0fc2ddbe92b67becf27aea9fb4634d011c10327c872f9fccc8a456592b212316d1edd9f2d22fc4c5953b2dd2948876e3467ebc1d2f861f5c39304f6f1c1e9d581a7b2ad7d0712de19649f9007ca6a71104efa8cbe65b6cba2a059b6d2f12814b894cda51e5092c90d9c9baffb2d3f1040480585aa99330124756d04fd38ca521a51c609ab96ad8f4f2891ff8a221fd95ebf3ea855b643c5e2e0d204c48debda1dec8023a4973cc82f26f7f0819740e4234e3379fea240e8c82bb5ba1bcd3d67c4256ba1dc3220f4fa443646f7a01ac56715388abcd32b7370ea23fed7e551400a080b5e70c234ef6bcc03f31cf285109a8811b4f3ffb7bec481f579d3dcbc08122d0660fef09b8acd8dfdcdea17d011d9851020129c32218c6517b47c3e07153b4a8fa72674ac9649e46605016d5eaf81b191988ce9b75bee020e5e3a151175bde4b83b1304c7392a29e0deab0ae663cd12c4f38319e96caddd7a22fbad71e679e2218382c5c55fc0fd51af390ff02667234e653d8fa6b4cae4b22d45f03992ecd41df8c49485c084c1bdb5166ff6ba5c2b901afbb9f5c761c110f40f64cf279affa538ba3c62075fd8dfaa57350d78bf9fce3b377ffab9a4747f3e9c5686d81d2150f8c0d992296818cdc7578a2a04865e9e6e02b32231f919e0e37fe6ccc88a2b8b0c7fe4c62809eff303f884b90cae157dcafd492580bc54787b6ee445793902a6553ed4440484303d8871c4314ad6b7e68079353e948b99a7f1ce643f63cd3efdd5906618f1b8e04f742405feb87fedf13189c831bf164b0de56dfc083895309d62c2e2b821eed8b7bafd3650baf01b7dcde04387698849771682e98030896d99f1aca542af0ecadcb5585"
      ],
      "sequence": 4294967294
    }
  ],
  "vout": [
    {
      "value": 499992.8817,
      "n": 0,
      "scriptPubKey": {
        "asm": "1 7d4671c5ac7fb05f3a0db183abbbb3b5e64bf8980f1445aead740e53ae48c291",
        "hex": "51207d4671c5ac7fb05f3a0db183abbbb3b5e64bf8980f1445aead740e53ae48c291",
        "reqSigs": 1,
        "type": "witness_v1_scripthash",
        "addresses": [
          "3QJmnh"
        ]
      }
    },
    {
      "value": 1.0,
      "n": 1,
      "scriptPubKey": {
        "asm": "OP_RETURN 021598304bc31251d738a7d4bb3fb9bf975cd038a43609fc242dfe519ed456c2 7c404dce28dffd072bc1ce3666c461738abc00304d2fbddd079b6fd1e4dbec165c606dee08ffdd270be1ee1646e44153aa9c20106d0f9dfd27bb4ff1c4fbcc363c000d8e689fbd476b818e7626842133cafc40700d6ffd9d47db2f91a49bac561c202dae48bf9d674ba1ae5606a40113eadc60502d4fddbd67fb0fb184bb8c76fcc0cd4ea85f7d87ab414eb6e644e1f30a3c80b0cdaf3d5d871bef51645b6c96dce0ed6e887f5da78b616e96c664c1d32a1ca090ed8f1d7da73bcf71447b4cb6bc808d0ee81f3dc7eb010ef6a604a1b34a7cc0f08def7d1dc75baf11241b2cd69ca0ad2ec83f1de7cb212ed6862481936a5ce0d0adcf5d3de77b8f31043b0cf67c404dce28dffd072bc1ce3666c461738abc00304d2fbddd079b6fd1e4dbec165c606dee08ffdd270be1ee1646e44153aa9c20106d0f9dfd27bb4ff1c4fbcc363c000d8e689fbd476b818e7626842133cafc40700d6ffd9d47db2f91a49bac561c202dae48bf9d674ba1ae5606a40113eadc60502d4fddbd67fb0fb184bb8c76fcc0cd4ea85f7d87ab414eb6e644e1f30a3c80b0cdaf3d5d871bef51645b6c96dce0ed6e887f5da78b616e96c664c1d32a1ca090ed8f1d7da73bcf71447b4cb6bc808d0ee81f3dc7eb010ef6a604a1b34a7cc0f08def7d1dc75baf11241b2cd69ca0ad2ec83f1de7cb212ed6862481936a5ce0d0adcf5d3de77b8f31043b0cf67c404dce28dffd072bc1ce3666c461738abc00304d2fbddd079b6fd1e4dbec165c606dee08ffdd270be1ee1646e44153aa9c20106d0f9dfd27bb4ff1c4fbcc363c000d8e689fbd476b818e7626842133cafc40700d6ffd9d47db2f91a49bac561c202dae48bf9d674ba1ae5606a40113eadc60502d4fddbd67fb0fb184bb8c76fcc0cd4ea85f7d87ab414eb6e644e1f30a3c80b0cdaf3d5d871bef51645b6c96dce0ed6e887f5da78b616e96c664c1d32a1ca090ed8f1d7da73bcf71447b4cb6bc808d0ee81f3dc7eb010ef6a604a1b34a7cc0f08def7d1dc75baf11241b2cd69ca0ad2ec83f1de7cb212ed6862481936a5ce0d0adcf5d3de77b8f31043b0cf67c404dce28dffd072bc1ce3666c461738abc00304d2fbddd079b6fd1e4dbec165c606dee08ffdd270be1ee1646e44153aa9c20106d0f9dfd27bb4ff1c4fbcc363c000d8e689fbd476b818e7626842133cafc40700d6ffd9d47db2f91a49bac561c202dae48bf9d674ba1ae5606a40113eadc60502d4fddbd67fb0fb184bb8c76fcc0cd4ea85f7d87ab414eb6e644e1f30a3c80b0cdaf3d5d871bef51645b6c96dce0ed6e887f5da78b616e96c664c1d32a1ca090ed8f1d7da73bcf71447b4cb6bc808d0ee81f3dc7eb010ef6a604a1b34a7cc0f08def7d1dc75baf11241b2cd69ca0ad2ec83f1de7cb212ed6862481936a5ce0d0adcf5d3de77b8f31043b0cf67c404dce28dffd072bc1ce3666c461738abc00304d2fbddd079b6fd1e4dbec165c606dee08ffdd270be1ee1646e44153aa9c20106d0f9dfd27bb4ff1c4fbcc363c000d8e689fbd476b818e7626842133cafc40700d6ffd9d47db2f91a49bac561c202dae48bf9d674ba1ae5606a40113eadc60502d4fddbd67fb0fb184bb8c76fcc0cd4ea85f7d87ab414eb6e644e1f3c5ed8e59cbe0e596b14b1aaca36fb8b9ef98ffd0c941d85ec51c9583e8b46fd1",
        "hex": "6a20021598304bc31251d738a7d4bb3fb9bf975cd038a43609fc242dfe519ed456c24db0047c404dce28dffd072bc1ce3666c461738abc00304d2fbddd079b6fd1e4dbec165c606dee08ffdd270be1ee1646e44153aa9c20106d0f9dfd27bb4ff1c4fbcc363c000d8e689fbd476b818e7626842133cafc40700d6ffd9d47db2f91a49bac561c202dae48bf9d674ba1ae5606a40113eadc60502d4fddbd67fb0fb184bb8c76fcc0cd4ea85f7d87ab414eb6e644e1f30a3c80b0cdaf3d5d871bef51645b6c96dce0ed6e887f5da78b616e96c664c1d32a1ca090ed8f1d7da73bcf71447b4cb6bc808d0ee81f3dc7eb010ef6a604a1b34a7cc0f08def7d1dc75baf11241b2cd69ca0ad2ec83f1de7cb212ed6862481936a5ce0d0adcf5d3de77b8f31043b0cf67c404dce28dffd072bc1ce3666c461738abc00304d2fbddd079b6fd1e4dbec165c606dee08ffdd270be1ee1646e44153aa9c20106d0f9dfd27bb4ff1c4fbcc363c000d8e689fbd476b818e7626842133cafc40700d6ffd9d47db2f91a49bac561c202dae48bf9d674ba1ae5606a40113eadc60502d4fddbd67fb0fb184bb8c76fcc0cd4ea85f7d87ab414eb6e644e1f30a3c80b0cdaf3d5d871bef51645b6c96dce0ed6e887f5da78b616e96c664c1d32a1ca090ed8f1d7da73bcf71447b4cb6bc808d0ee81f3dc7eb010ef6a604a1b34a7cc0f08def7d1dc75baf11241b2cd69ca0ad2ec83f1de7cb212ed6862481936a5ce0d0adcf5d3de77b8f31043b0cf67c404dce28dffd072bc1ce3666c461738abc00304d2fbddd079b6fd1e4dbec165c606dee08ffdd270be1ee1646e44153aa9c20106d0f9dfd27bb4ff1c4fbcc363c000d8e689fbd476b818e7626842133cafc40700d6ffd9d47db2f91a49bac561c202dae48bf9d674ba1ae5606a40113eadc60502d4fddbd67fb0fb184bb8c76fcc0cd4ea85f7d87ab414eb6e644e1f30a3c80b0cdaf3d5d871bef51645b6c96dce0ed6e887f5da78b616e96c664c1d32a1ca090ed8f1d7da73bcf71447b4cb6bc808d0ee81f3dc7eb010ef6a604a1b34a7cc0f08def7d1dc75baf11241b2cd69ca0ad2ec83f1de7cb212ed6862481936a5ce0d0adcf5d3de77b8f31043b0cf67c404dce28dffd072bc1ce3666c461738abc00304d2fbddd079b6fd1e4dbec165c606dee08ffdd270be1ee1646e44153aa9c20106d0f9dfd27bb4ff1c4fbcc363c000d8e689fbd476b818e7626842133cafc40700d6ffd9d47db2f91a49bac561c202dae48bf9d674ba1ae5606a40113eadc60502d4fddbd67fb0fb184bb8c76fcc0cd4ea85f7d87ab414eb6e644e1f30a3c80b0cdaf3d5d871bef51645b6c96dce0ed6e887f5da78b616e96c664c1d32a1ca090ed8f1d7da73bcf71447b4cb6bc808d0ee81f3dc7eb010ef6a604a1b34a7cc0f08def7d1dc75baf11241b2cd69ca0ad2ec83f1de7cb212ed6862481936a5ce0d0adcf5d3de77b8f31043b0cf67c404dce28dffd072bc1ce3666c461738abc00304d2fbddd079b6fd1e4dbec165c606dee08ffdd270be1ee1646e44153aa9c20106d0f9dfd27bb4ff1c4fbcc363c000d8e689fbd476b818e7626842133cafc40700d6ffd9d47db2f91a49bac561c202dae48bf9d674ba1ae5606a40113eadc60502d4fddbd67fb0fb184bb8c76fcc0cd4ea85f7d87ab414eb6e644e1f3c5ed8e59cbe0e596b14b1aaca36fb8b9ef98ffd0c941d85ec51c9583e8b46fd1",
        "type": "nulldata"
      }
    }
  ],
  "blockhash": "86d3aa2e412fd1c0ad7fd5d7d84b7ddcf41a8bf652344eaa49dd1e6444ae5dce",
  "confirmations": 1,
  "time": 1764176858,
  "blocktime": 1764176858
}