{
  "hex": "01000000000101150e8523f9537f867a501578217127bbe4bb2468ab4fe81d3e631516db69c0910000000000feffffff0200e1f50500000000fdd5046a2088ce9a876c508b0e5b45ecb502af86620a8cdffd2adf2c0856f9eb0cfc5979884db004b6626008f59772a3c13b39a0b2d9787e4a5a00cf1bfa75b5effdaa069ab42bd296424028d5b75283e11b198092f9585e6a7a20ef3bda5595cfdd8a26ba940bf2f6222048b5d732e3817b79e0f299383e0a1a408f5bba35f5afbdea46daf46b92d602006895f712c3a15b59c0d2b9181e2a3a60af7b9a15d58f9dca66fad44bb236e2e0887517f22341bbb9203259f8fecada804f9b7af5356f7d2a861a34ab5216c2c0a85537d203619b99001279d8deeafaa06fbb5ad5154f5d0aa63a148b7276a2a0c83557b26301fbf9607219b8be8a9ac00fdb3ab5752f3d6ac65a74eb12568280e81577924321dbd9405239989eaabae02ffb1a95550f1d4ae67a54cb32b6626008f59772a3c13b39a0b2d9787e4a5a00cf1bfa75b5effdaa069ab42bd296424028d5b75283e11b198092f9585e6a7a20ef3bda5595cfdd8a26ba940bf2f6222048b5d732e3817b79e0f299383e0a1a408f5bba35f5afbdea46daf46b92d602006895f712c3a15b59c0d2b9181e2a3a60af7b9a15d58f9dca66fad44bb236e2e0887517f22341bbb9203259f8fecada804f9b7af5356f7d2a861a34ab5216c2c0a85537d203619b99001279d8deeafaa06fbb5ad5154f5d0aa63a148b7276a2a0c83557b26301fbf9607219b8be8a9ac00fdb3ab5752f3d6ac65a74eb12568280e81577924321dbd9405239989eaabae02ffb1a95550f1d4ae67a54cb32b6626008f59772a3c13b39a0b2d9787e4a5a00cf1bfa75b5effdaa069ab42bd296424028d5b75283e11b198092f9585e6a7a20ef3bda5595cfdd8a26ba940bf2f6222048b5d732e3817b79e0f299383e0a1a408f5bba35f5afbdea46daf46b92d602006895f712c3a15b59c0d2b9181e2a3a60af7b9a15d58f9dca66fad44bb236e2e0887517f22341bbb9203259f8fecada804f9b7af5356f7d2a861a34ab5216c2c0a85537d203619b99001279d8deeafaa06fbb5ad5154f5d0aa63a148b7276a2a0c83557b26301fbf9607219b8be8a9ac00fdb3ab5752f3d6ac65a74eb12568280e81577924321dbd9405239989eaabae02ffb1a95550f1d4ae67a54cb32b6626008f59772a3c13b39a0b2d9787e4a5a00cf1bfa75b5effdaa069ab42bd296424028d5b75283e11b198092f9585e6a7a20ef3bda5595cfdd8a26ba940bf2f6222048b5d732e3817b79e0f299383e0a1a408f5bba35f5afbdea46daf46b92d602006895f712c3a15b59c0d2b9181e2a3a60af7b9a15d58f9dca66fad44bb236e2e0887517f22341bbb9203259f8fecada804f9b7af5356f7d2a861a34ab5216c2c0a85537d203619b99001279d8deeafaa06fbb5ad5154f5d0aa63a148b7276a2a0c83557b26301fbf9607219b8be8a9ac00fdb3ab5752f3d6ac65a74eb12568280e81577924321dbd9405239989eaabae02ffb1a95550f1d4ae67a54cb32b6626008f59772a3c13b39a0b2d9787e4a5a00cf1bfa75b5effdaa069ab42bd296424028d5b75283e11b198092f9585e6a7a20ef3bda5595cfdd8a26ba940bf2f6222048b5d732e3817b79e0f299383e0a1a408f5bba35f5afbdea46daf46b92d602006895f712c3a15b59c0d2b9181e2a3a60af7b9a15d58f9dca66fad44bb236e2e0887517f22341bbb9203259f8feef1ad4488b407109fde335cabff99887522b23a1f4ef62c95355f8d08419c6f2d0799b83782d00002251205ef24f28ed5a952ba7d4234e931f6b1aa8bbc0463647ecf85ad71401ff9abc3802fd75098aae6afb8ad13e3b502ba1a38f794e93fdbc4561966e609208c92b71205dbb0ec648c0eaccc3de5d00b031508549b8a2a3af777194418633eb7028aefab4328f45140f9edcbe0fa69e71a023ab00eea45af11d77b7fc9a547b0cd7ce51dca610cea58ea823b946c5fc75eb9a750f7feee254f401ed2e3df2adef4e68955236ca2fbe7e6a12650df876068116b0b9bc872aa0b4324c8b07e08238c27a73eaab1e8d824bb54cee4243037927c1b1da4bdd7535ecd0efed3030b2c4ed3f1151befa33f6a1a03e2fe72c2873ac2a722a09756c38830818279e1f8ce65ad4116c25d5cb4715e7ff6ad8d89e89e1d26140162f6c0d3c77b95d4992e6e6501e43270b9b203dce50fcbca7b4054e4b2dc45073202c0dc66cd69f7a4be01b4494fe7b8bb98243a97029793aea577d0d46e26af6dc8e2a32245e0a7cb395e04c793c95544ac138c3da2889c345b8dd269edf61cc799b8d23a8ce14d816305fa6326d9b6b93556630110c4defdf57b65dd6dbd3b0b0456f9492bc9ffefb95b16665417fe044e0bc107082f9972c84337bb88c326fce715a77da5987f8d3ca05033b3bf1bcf254b5bba3c61d56072982a597bf26b8c090d0f7ee4b4032faae112dec640c3f15b294f7e6f7d4180b955f015988f9c371dc099d3f54bd39af07bac33c53f171d7f5c1499b0b8c8f5e42528ad11773d840dbf88aea2fbe54be33fdc093a322c137604017a6bcff3eea36324bbf6166949fccbfd150ed21ccd198f562b877fc7973c25ed4def875e9dc1fb21efc13d8d045befdacf0e85ebeaaa2bcac659149afef9057f8732e5bd76b167a9258145a416b773fd7bdd61943bdbc29b6055942c7247623e8c2c0e8d218f08aab028ad1a5a0e3c790928880efde2c627a5ca15e963b2699e653cb02734f48ac3021d445c847e50a8383c98c4be05870afd7373297d4f13d43bb9741ee95be5c119be9107ae27c3ce6374da757bd8d1ab5a966847e6893a8741da81cd78946ce3ffc10fa9f214a1411f5f72f85d267b94b889c61af5a0c2f6becf47cc7f48cc36b61aadfa8492e067eefd602b42cc52f5855d27d37164b4d79d01b173e9e1f1c2b1084634b17c64d48c2e3941b193d2ed23291f326b8788dbde117be17a6bd00d9f1bc75a1dc077c36198dc66b806b73c9b65e8d28deca3ec024ccec1faf480c2dee11008d17adc95b7aae90fdfe618870c07c9829c467df0dbd4d0e759675475a3a2c056ad879b825be25979ec404e59dfd4de8a97919d717b07358c601cf576252c3e21b2c5a2caf9211b067bba6c41a6bb9b2018ae010c7c664e5b8262a78bda063a6710cc1c1b2bb15518063f6685f078f86524acdd081c5a72f5ff47a59e59cd443ba3eefd4c7b48010262f66edb56fdab7a6ed873b39b48fd15673a3755658d338758d9bc4a832cffbbd20c8c2f049c3e292ee1f0b252684928a33a316914afb17aa375b4f45cc30621c7d3dcfaa021a3386a4c0b3ff0a704447d69b3c6b939c12e985456744d8663a87c90eb548738bd9bd0cfe61733a5860bc12e205d28254b8cb95019c2eb2f62e83e26eb6e75349a4b60446ab5929ec9f36dfe25bfc14e2da9b7ec08dc08e545ae610bb04973bc043436d37d60663598bf781f8c6ee3f3ea32814faedcec0751f2d6178df4bf19ccb7b6eec9c08cd27e299b9190d12fdc0d36031bdb5f3049b2a6b8576ae8e75e718727e71e799a22286ff553b9e1f2d19f51425bcf324a4f259524f19507f2af7d7354660edf8ba35e1d78a9fc2998f8c493d6912f8a7d761798061cffbc2e008aa0ea18fde6d028fcf7418217ec59969da10461f67190a4786b0c4930d08d4c537e2e6ea76078d134843da1d304846944aed04c0f234ce32c2149b33bd1b356239721a79d4239220929e7f91f9607bc95dcad561ce612d3cf50799a82b5f388fabd3341c3034e921b54355e9d95fb8d4f6f5c5aee2d64163471906c462e0de76a0574dd12368e2763cd3560a1ad3ca8a88bf177bb58547885917725d998c06fd4184824f4ab770339e87f63b9bbec65e21b67cef44a63c588882b1432b1626cee96d5c5711549e55925a1abc04405731a3154d0e538478db252c1f91e3ed63c8b27d66c1e3eea1053126dd3864570b5a10706f30300871928479d1404bf43a17d89db53e66adac2bc741a7ae228aa09222097d2b7db0f0647a3bc14763b4768c7b8b730f0cf76d6fcba2f6f9d6d4065467e6364639d25a5e3f7b0caf8580446a7f88b2ba3987a07a8d344f99e24005e05b2764752d5735b690bb81241abd666ef9b19eac084659266247fac0a1a72cbe85058367cf5b0ca20c6511d8b9a57c73e8916ecd8bb5f7c5628d3a3fdcf3490d83d81968befe6b2c2059a5257f5580878cc54cd52cfc748eb040408ce347b9567f83a798a3738e2769d3da3eedf72d4b38df167ca85abc2dc469409a61a2f8bb0fc156178c098c1f5601f60b53e190334b006bb12979588bfabce1b267cc17a91e648c687da0b8262e29f3c7fe6a62d89a6832be984ef06d5ec8fbecee3d383a87fb345616d21e6b6c83db9e440e2f5173897276013119bcfabd9910798424f3f1064e741804b1e88d2ff659cb3e8f755014b51c1dd14a39baf06250eede17bfc3401a060747c98613f37b4b0d749a3602fbf57b979a65958ea05b2d8b7cc268d760a2bed7fb1a1c01d1fc58ffd03f03f8bb714dc1e95b29bdad0ffaf3364c8a5bbaee7e4ff1771f0170d4e5d716a0da797be85cbbc2c720dba2feeb7522543f76f0be764e9719e6e6faea240f5368a593e0867c144e74eda0502c75ec64bac78b338c9e0069b5809768a915b24778d2612d615df3432f29e10cea07bf189456d6eca744db1b5f9fef2aad6d0edfb8701fd6bf41b271bb046d46c5e4b09f724a1a3517f062940c90426228387a28a3e5f4cb57a5e49078a98916328a39555213226f8d9518c8fc8ba7aa72fc8ab09869d849114ec93461d5d9a7bf2d51ef18a996959b061ad9bcef2759da46f17dca1f3737c28219d0cc89814f6b1e953edac56d29fd2657b4356b7290afad150284adf72e4eeb3ee869c5ef640b901944dc9258cae684acc7c89ae0af288258fa5cbb3a05b90f6f3ff8bf443c67489ae127564315e7c4aa02f49cc2007fa259e27d56a08e4923d8757742c5394712c9c30370fcc1ee8a78fcf3d40b03b28787faaf0eff083d445bb1bbe5d2c6c4aaa0558fcc725b6ba8ddc59d371173803267d2eb42a32517555015c97a3f933350bb57694c8b3a34224392f375d7b76f22a3988bb793a5dd2c5660677a8d8e8f9ba6c1eafd394e5a5d667a7b83abb0b3b5bbc8d7f8fcff03050b1d333e4345484e575f8a95a1b4b7cff3162c324157656676770000000000000000000000000000000000000000000d1f323b01fd21050094de2f3f0cf4bffd59df51494f4ea05f5424dd3643b939a8e5d7a50c93e4bc9d2b58ee8ecac7dfb8a1aa7285f4f8290b4669cd0ae5ce81e90a460b7f867e8b29b42fec181516fa31b3d7765151029625106ee4ee824368cb706904b6b0bf3cac59f341002c5b77bd9c6ceab9f6d29de746458c7d7e15104009e1a85427b5398105a6f8d0ed215783310c349c38c37ab2f49f919372e6968dbe837f26a978b90528e7c6d77789816b368cd8a221498f0c00253fd0ce71b110d6607f2d0e86b0bf478e197dadad0f49663555e25430284d8ea3ba6bd466a12bb62323656206432fe3047d5f7471493a19966928a4b8554fd12d7b63a6916148900ff43d875ba4405c9687f042d2c7a8f6a9edc8739202bedc03146e9fbb954c8a00be94c2baa3dfa074ae7e573502fe18ef629abb3aef2a78d59a2f05bbc53f277ea6660d15ed78dcb115851c9e67ed714a095c5d76568d48ea9a495eee347b876563e42ebdc4ad41f6a175930265f869962ed0d3251e149e29ee7e2585b95cb9096ce60a0bbfd9d31b40a2ba0cc7e9091cbf35bacccc3a133a7703580123c4ca960d2b5b959f591ed3547604281d795c25f281a4010b3ad7a2248913e92ca2ab57256a754b16d80975760b8a56eaf4a68477f8151044dd3bfa700dbc177c987aef9600299a640787061ba9e4de56f6dcac20a4c651c8d746e51fde90d92e5a501b953d2193d7e5328c40ce7e959d26ac3f465a2baebed735b8fa6d292e83f894e8e48d7dc88a84e397c5ab5c2e0d181c0aca5c103294bc23533256a4e7ca547ff281b514704065a4b8a761a4fe5737602dad2a6263386c5138af332ffcefabdc79b4218919b0e86b71b0b78559f40ec5ac48f373a926c4f18af83fdab10a965df7f7ac083c88308da5a83bd5081400d275884d0307a78ff22076be5e88ae5134c21ae592ed9e7d640d02ac43a596d7f80b3cc0f136c1a3e23c74c8ffe0ed3d348d665b4e9cb2eaa2b69c3ebe230ad9f0a2fe7ec0ffda40840d22764a8830150dfa9dfaa090245bea5108acd2d3c1d4eb171caf3b9db6d2c8f2c6a2cec0af294d3120fa901afc0d5215ffc649ddf568ccd67a81e31ad88b3273b850647bb07437cf4094b55c65abf7b28f8e16e7016b2e14eee7334e62160b4e301f2b39b88379caf44ef55740fde1c36cfef1ecb77d4ac641dd53d6d46ca16962f23486951df4bdda0dc388d370f7ba932ba1e82d06926936618dafde988187b90be08e1a09c19100398e946e1f8efb3b40ad4aacb64a1ca66669b0160ce08779e42c54e41475aff969848e3557cc0cd1ea8f97fa4acff14350e18dffa54bc53f4bb990ec1c6ee6a0e469a43356894fa41ef7ad03c1252af2a152d635a6003400e6959a107f50be103012da0c59e271c777a29f90f6870cdd50bbc2fcf2e05ea61ffaf84ed46f1899274423cc33681d8418b5df666cc75a1f003b48676cb7075843342f95fcfabada0e5215a694dbe53587d57b512f3e1acce87d946ea989d20c3e8ecb463d10ff3bcb3a3f4b299c8b1b8b685866704b8ab70c1d7dae0ccb2d18b07be8d9722b6327790097550243de54a586589e5a8df97b60011d41a3f4b1a5dfe830284b68ec68733560625b9259b4c130f90fd31d2fb6e96de31f9a77e8557939f9d8f8b5da4c9038c293e6fd4b461d525af18b87b671d261ba6b8b9a07d90a8bfce9c6d651bb7ec31264ff5c4505645a8256de0a300e4b1aeff6c300010fe986ad2146cbf08e27a050d1e36f6da5400bfd93b2cc811683322a4e8fe3c8885968e715ebe1e6aa43c3ea875afcc9b6d890c246e70151dc8cb0532d42bd561f7dbaa3d965db16bc25a6c3df3459000000",
  "txid": "7eee3c09bcd48b694538eeba33fb8a4bb221fd44056941065da34022e14e490c",
  "hash": "e4af35b326c90c47e6695f2c9eceac2f7a9adbac894ce949427fda66409fd937",
  "size": 5085,
  "vsize": 2278,
  "version": 1,
  "locktime": 89,
  "vin": [
    {
      "txid": "91c069db1615633e1de84fab6824bbe4bb2771217815507a867f53f923850e15",
      "vout": 0,
      "scriptSig": {
        "asm": "",
        "hex": ""
      },
      "txinwitness": [
        "8aae6afb8ad13e3b502ba1a38f794e93fdbc4561966e609208c92b71205dbb0ec648c0eaccc3de5d00b031508549b8a2a3af777194418633eb7028aefab4328f45140f9edcbe0fa69e71a023ab00eea45af11d77b7fc9a547b0cd7ce51dca610cea58ea823b946c5fc75eb9a750f7feee254f401ed2e3df2adef4e68955236ca2fbe7e6a12650df876068116b0b9bc872aa0b4324c8b07e08238c27a73eaab1e8d824bb54cee4243037927c1b1da4bdd7535ecd0efed3030b2c4ed3f1151befa33f6a1a03e2fe72c2873ac2a722a09756c38830818279e1f8ce65ad4116c25d5cb4715e7ff6ad8d89e89e1d26140162f6c0d3c77b95d4992e6e6501e43270b9b203dce50fcbca7b4054e4b2dc45073202c0dc66cd69f7a4be01b4494fe7b8bb98243a97029793aea577d0d46e26af6dc8e2a32245e0a7cb395e04c793c95544ac138c3da2889c345b8dd269edf61cc799b8d23a8ce14d816305fa6326d9b6b93556630110c4defdf57b65dd6dbd3b0b0456f9492bc9ffefb95b16665417fe044e0bc107082f9972c84337bb88c326fce715a77da5987f8d3ca05033b3bf1bcf254b5bba3c61d56072982a597bf26b8c090d0f7ee4b4032faae112dec640c3f15b294f7e6f7d4180b955f015988f9c371dc099d3f54bd39af07bac33c53f171d7f5c1499b0b8c8f5e42528ad11773d840dbf88aea2fbe54be33fdc093a322c137604017a6bcff3eea36324bbf6166949fccbfd150ed21ccd198f562b877fc7973c25ed4def875e9dc1fb21efc13d8d045befdacf0e85ebeaaa2bcac659149afef9057f8732e5bd76b167a9258145a416b773fd7bdd61943bdbc29b6055942c7247623e8c2c0e8d218f08aab028ad1a5a0e3c790928880efde2c627a5ca15e963b2699e653cb02734f48ac3021d445c847e50a8383c98c4be05870afd7373297d4f13d43bb9741ee95be5c119be9107ae27c3ce6374da757bd8d1ab5a966847e6893a8741da81cd78946ce3ffc10fa9f214a1411f5f72f85d267b94b889c61af5a0c2f6becf47cc7f48cc36b61aadfa8492e067eefd602b42cc52f5855d27d37164b4d79d01b173e9e1f1c2b1084634b17c64d48c2e3941b193d2ed23291f326b8788dbde117be17a6bd00d9f1bc75a1dc077c36198dc66b806b73c9b65e8d28deca3ec024ccec1faf480c2dee11008d17adc95b7aae90fdfe618870c07c9829c467df0dbd4d0e759675475a3a2c056ad879b825be25979ec404e59dfd4de8a97919d717b07358c601cf576252c3e21b2c5a2caf9211b067bba6c41a6bb9b2018ae010c7c664e5b8262a78bda063a6710cc1c1b2bb15518063f6685f078f86524acdd081c5a72f5ff47a59e59cd443ba3eefd4c7b48010262f66edb56fdab7a6ed873b39b48fd15673a3755658d338758d9bc4a832cffbbd20c8c2f049c3e292ee1f0b252684928a33a316914afb17aa375b4f45cc30621c7d3dcfaa021a3386a4c0b3ff0a704447d69b3c6b939c12e985456744d8663a87c90eb548738bd9bd0cfe61733a5860bc12e205d28254b8cb95019c2eb2f62e83e26eb6e75349a4b60446ab5929ec9f36dfe25bfc14e2da9b7ec08dc08e545ae610bb04973bc043436d37d60663598bf781f8c6ee3f3ea32814faedcec0751f2d6178df4bf19ccb7b6eec9c08cd27e299b9190d12fdc0d36031bdb5f3049b2a6b8576ae8e75e718727e71e799a22286ff553b9e1f2d19f51425bcf324a4f259524f19507f2af7d7354660edf8ba35e1d78a9fc2998f8c493d6912f8a7d761798061cffbc2e008aa0ea18fde6d028fcf7418217ec59969da10461f67190a4786b0c4930d08d4c537e2e6ea76078d134843da1d304846944aed04c0f234ce32c2149b33bd1b356239721a79d4239220929e7f91f9607bc95dcad561ce612d3cf50799a82b5f388fabd3341c3034e921b54355e9d95fb8d4f6f5c5aee2d64163471906c462e0de76a0574dd12368e2763cd3560a1ad3ca8a88bf177bb58547885917725d998c06fd4184824f4ab770339e87f63b9bbec65e21b67cef44a63c588882b1432b1626cee96d5c5711549e55925a1abc04405731a3154d0e538478db252c1f91e3ed63c8b27d66c1e3eea1053126dd3864570b5a10706f30300871928479d1404bf43a17d89db53e66adac2bc741a7ae228aa09222097d2b7db0f0647a3bc14763b4768c7b8b730f0cf76d6fcba2f6f9d6d4065467e6364639d25a5e3f7b0caf8580446a7f88b2ba3987a07a8d344f99e24005e05b2764752d5735b690bb81241abd666ef9b19eac084659266247fac0a1a72cbe85058367cf5b0ca20c6511d8b9a57c73e8916ecd8bb5f7c5628d3a3fdcf3490d83d81968befe6b2c2059a5257f5580878cc54cd52cfc748eb040408ce347b9567f83a798a3738e2769d3da3eedf72d4b38df167ca85abc2dc469409a61a2f8bb0fc156178c098c1f5601f60b53e190334b006bb12979588bfabce1b267cc17a91e648c687da0b8262e29f3c7fe6a62d89a6832be984ef06d5ec8fbecee3d383a87fb345616d21e6b6c83db9e440e2f5173897276013119bcfabd9910798424f3f1064e741804b1e88d2ff659cb3e8f755014b51c1dd14a39baf06250eede17bfc3401a060747c98613f37b4b0d749a3602fbf57b979a65958ea05b2d8b7cc268d760a2bed7fb1a1c01d1fc58ffd03f03f8bb714dc1e95b29bdad0ffaf3364c8a5bbaee7e4ff1771f0170d4e5d716a0da797be85cbbc2c720dba2feeb7522543f76f0be764e9719e6e6faea240f5368a593e0867c144e74eda0502c75ec64bac78b338c9e0069b5809768a915b24778d2612d615df3432f29e10cea07bf189456d6eca744db1b5f9fef2aad6d0edfb8701fd6bf41b271bb046d46c5e4b09f724a1a3517f062940c90426228387a28a3e5f4cb57a5e49078a98916328a39555213226f8d9518c8fc8ba7aa72fc8ab09869d849114ec93461d5d9a7bf2d51ef18a996959b061ad9bcef2759da46f17dca1f3737c28219d0cc89814f6b1e953edac56d29fd2657b4356b7290afad150284adf72e4eeb3ee869c5ef640b901944dc9258cae684acc7c89ae0af288258fa5cbb3a05b90f6f3ff8bf443c67489ae127564315e7c4aa02f49cc2007fa259e27d56a08e4923d8757742c5394712c9c30370fcc1ee8a78fcf3d40b03b28787faaf0eff083d445bb1bbe5d2c6c4aaa0558fcc725b6ba8ddc59d371173803267d2eb42a32517555015c97a3f933350bb57694c8b3a34224392f375d7b76f22a3988bb793a5dd2c5660677a8d8e8f9ba6c1eafd394e5a5d667a7b83abb0b3b5bbc8d7f8fcff03050b1d333e4345484e575f8a95a1b4b7cff3162c324157656676770000000000000000000000000000000000000000000d1f323b01",
        "0094de2f3f0cf4bffd59df51494f4ea05f5424dd3643b939a8e5d7a50c93e4bc9d2b58ee8ecac7dfb8a1aa7285f4f8290b4669cd0ae5ce81e90a460b7f867e8b29b42fec181516fa31b3d7765151029625106ee4ee824368cb706904b6b0bf3cac59f341002c5b77bd9c6ceab9f6d29de746458c7d7e15104009e1a85427b5398105a6f8d0ed215783310c349c38c37ab2f49f919372e6968dbe837f26a978b90528e7c6d77789816b368cd8a221498f0c00253fd0ce71b110d6607f2d0e86b0bf478e197dadad0f49663555e25430284d8ea3ba6bd466a12bb62323656206432fe3047d5f7471493a19966928a4b8554fd12d7b63a6916148900ff43d875ba4405c9687f042d2c7a8f6a9edc8739202bedc03146e9fbb954c8a00be94c2baa3dfa074ae7e573502fe18ef629abb3aef2a78d59a2f05bbc53f277ea6660d15ed78dcb115851c9e67ed714a095c5d76568d48ea9a495eee347b876563e42ebdc4ad41f6a175930265f869962ed0d3251e149e29ee7e2585b95cb9096ce60a0bbfd9d31b40a2ba0cc7e9091cbf35bacccc3a133a7703580123c4ca960d2b5b959f591ed3547604281d795c25f281a4010b3ad7a2248913e92ca2ab57256a754b16d80975760b8a56eaf4a68477f8151044dd3bfa700dbc177c987aef9600299a640787061ba9e4de56f6dcac20a4c651c8d746e51fde90d92e5a501b953d2193d7e5328c40ce7e959d26ac3f465a2baebed735b8fa6d292e83f894e8e48d7dc88a84e397c5ab5c2e0d181c0aca5c103294bc23533256a4e7ca547ff281b514704065a4b8a761a4fe5737602dad2a6263386c5138af332ffcefabdc79b4218919b0e86b71b0b78559f40ec5ac48f373a926c4f18af83fdab10a965df7f7ac083c88308da5a83bd5081400d275884d0307a78ff22076be5e88ae5134c21ae592ed9e7d640d02ac43a596d7f80b3cc0f136c1a3e23c74c8ffe0ed3d348d665b4e9cb2eaa2b69c3ebe230ad9f0a2fe7ec0ffda40840d22764a8830150dfa9dfaa090245bea5108acd2d3c1d4eb171caf3b9db6d2c8f2c6a2cec0af294d3120fa901afc0d5215ffc649ddf568ccd67a81e31ad88b3273b850647bb07437cf4094b55c65abf7b28f8e16e7016b2e14eee7334e62160b4e301f2b39b88379caf44ef55740fde1c36cfef1ecb77d4ac641dd53d6d46ca16962f23486951df4bdda0dc388d370f7ba932ba1e82d06926936618dafde988187b90be08e1a09c19100398e946e1f8efb3b40ad4aacb64a1ca66669b0160ce08779e42c54e41475aff969848e3557cc0cd1ea8f97fa4acff14350e18dffa54bc53f4bb990ec1c6ee6a0e469a43356894fa41ef7ad03c1252af2a152d635a6003400e6959a107f50be103012da0c59e271c777a29f90f6870cdd50bbc2fcf2e05ea61ffaf84ed46f1899274423cc33681d8418b5df666cc75a1f003b48676cb7075843342f95fcfabada0e5215a694dbe53587d57b512f3e1acce87d946ea989d20c3e8ecb463d10ff3bcb3a3f4b299c8b1b8b685866704b8ab70c1d7dae0ccb2d18b07be8d9722b6327790097550243de54a586589e5a8df97b60011d41a3f4b1a5dfe830284b68ec68733560625b9259b4c130f90fd31d2fb6e96de31f9a77e8557939f9d8f8b5da4c9038c293e6fd4b461d525af18b87b671d261ba6b8b9a07d90a8bfce9c6d651bb7ec31264ff5c4505645a8256de0a300e4b1aeff6c300010fe986ad2146cbf08e27a050d1e36f6da5400bfd93b2cc811683322a4e8fe3c8885968e715ebe1e6aa43c3ea875afcc9b6d890c246e70151dc8cb0532d42bd561f7dbaa3d965db16bc25a6c3df34"
      ],
      "sequence": 4294967294
    }
  ],
  "vout": [
    {
      "value": 1.0,
      "n": 0,
      "scriptPubKey": {
        "asm": "OP_RETURN 88ce9a876c508b0e5b45ecb502af86620a8cdffd2adf2c0856f9eb0cfc597988 b6626008f59772a3c13b39a0b2d9787e4a5a00cf1bfa75b5effdaa069ab42bd296424028d5b75283e11b198092f9585e6a7a20ef3bda5595cfdd8a26ba940bf2f6222048b5d732e3817b79e0f299383e0a1a408f5bba35f5afbdea46daf46b92d602006895f712c3a15b59c0d2b9181e2a3a60af7b9a15d58f9dca66fad44bb236e2e0887517f22341bbb9203259f8fecada804f9b7af5356f7d2a861a34ab5216c2c0a85537d203619b99001279d8deeafaa06fbb5ad5154f5d0aa63a148b7276a2a0c83557b26301fbf9607219b8be8a9ac00fdb3ab5752f3d6ac65a74eb12568280e81577924321dbd9405239989eaabae02ffb1a95550f1d4ae67a54cb32b6626008f59772a3c13b39a0b2d9787e4a5a00cf1bfa75b5effdaa069ab42bd296424028d5b75283e11b198092f9585e6a7a20ef3bda5595cfdd8a26ba940bf2f6222048b5d732e3817b79e0f299383e0a1a408f5bba35f5afbdea46daf46b92d602006895f712c3a15b59c0d2b9181e2a3a60af7b9a15d58f9dca66fad44bb236e2e0887517f22341bbb9203259f8fecada804f9b7af5356f7d2a861a34ab5216c2c0a85537d203619b99001279d8deeafaa06fbb5ad5154f5d0aa63a148b7276a2a0c83557b26301fbf9607219b8be8a9ac00fdb3ab5752f3d6ac65a74eb12568280e81577924321dbd9405239989eaabae02ffb1a95550f1d4ae67a54cb32b6626008f59772a3c13b39a0b2d9787e4a5a00cf1bfa75b5effdaa069ab42bd296424028d5b75283e11b198092f9585e6a7a20ef3bda5595cfdd8a26ba940bf2f6222048b5d732e3817b79e0f299383e0a1a408f5bba35f5afbdea46daf46b92d602006895f712c3a15b59c0d2b9181e2a3a60af7b9a15d58f9dca66fad44bb236e2e0887517f22341bbb9203259f8fecada804f9b7af5356f7d2a861a34ab5216c2c0a85537d203619b99001279d8deeafaa06fbb5ad5154f5d0aa63a148b7276a2a0c83557b26301fbf9607219b8be8a9ac00fdb3ab5752f3d6ac65a74eb12568280e81577924321dbd9405239989eaabae02ffb1a95550f1d4ae67a54cb32b6626008f59772a3c13b39a0b2d9787e4a5a00cf1bfa75b5effdaa069ab42bd296424028d5b75283e11b198092f9585e6a7a20ef3bda5595cfdd8a26ba940bf2f6222048b5d732e3817b79e0f299383e0a1a408f5bba35f5afbdea46daf46b92d602006895f712c3a15b59c0d2b9181e2a3a60af7b9a15d58f9dca66fad44bb236e2e0887517f22341bbb9203259f8fecada804f9b7af5356f7d2a861a34ab5216c2c0a85537d203619b99001279d8deeafaa06fbb5ad5154f5d0aa63a148b7276a2a0c83557b26301fbf9607219b8be8a9ac00fdb3ab5752f3d6ac65a74eb12568280e81577924321dbd9405239989eaabae02ffb1a95550f1d4ae67a54cb32b6626008f59772a3c13b39a0b2d9787e4a5a00cf1bfa75b5effdaa069ab42bd296424028d5b75283e11b198092f9585e6a7a20ef3bda5595cfdd8a26ba940bf2f6222048b5d732e3817b79e0f299383e0a1a408f5bba35f5afbdea46daf46b92d602006895f712c3a15b59c0d2b9181e2a3a60af7b9a15d58f9dca66fad44bb236e2e0887517f22341bbb9203259f8feef1ad4488b407109fde335cabff99887522b23a1f4ef62c95355f8d08419c6f2",
        "hex": "6a2088ce9a876c508b0e5b45ecb502af86620a8cdffd2adf2c0856f9eb0cfc5979884db004b6626008f59772a3c13b39a0b2d9787e4a5a00cf1bfa75b5effdaa069ab42bd296424028d5b75283e11b198092f9585e6a7a20ef3bda5595cfdd8a26ba940bf2f6222048b5d732e3817b79e0f299383e0a1a408f5bba35f5afbdea46daf46b92d602006895f712c3a15b59c0d2b9181e2a3a60af7b9a15d58f9dca66fad44bb236e2e0887517f22341bbb9203259f8fecada804f9b7af5356f7d2a861a34ab5216c2c0a85537d203619b99001279d8deeafaa06fbb5ad5154f5d0aa63a148b7276a2a0c83557b26301fbf9607219b8be8a9ac00fdb3ab5752f3d6ac65a74eb12568280e81577924321dbd9405239989eaabae02ffb1a95550f1d4ae67a54cb32b6626008f59772a3c13b39a0b2d9787e4a5a00cf1bfa75b5effdaa069ab42bd296424028d5b75283e11b198092f9585e6a7a20ef3bda5595cfdd8a26ba940bf2f6222048b5d732e3817b79e0f299383e0a1a408f5bba35f5afbdea46daf46b92d602006895f712c3a15b59c0d2b9181e2a3a60af7b9a15d58f9dca66fad44bb236e2e0887517f22341bbb9203259f8fecada804f9b7af5356f7d2a861a34ab5216c2c0a85537d203619b99001279d8deeafaa06fbb5ad5154f5d0aa63a148b7276a2a0c83557b26301fbf9607219b8be8a9ac00fdb3ab5752f3d6ac65a74eb12568280e81577924321dbd9405239989eaabae02ffb1a95550f1d4ae67a54cb32b6626008f59772a3c13b39a0b2d9787e4a5a00cf1bfa75b5effdaa069ab42bd296424028d5b75283e11b198092f9585e6a7a20ef3bda5595cfdd8a26ba940bf2f6222048b5d732e3817b79e0f299383e0a1a408f5bba35f5afbdea46daf46b92d602006895f712c3a15b59c0d2b9181e2a3a60af7b9a15d58f9dca66fad44bb236e2e0887517f22341bbb9203259f8fecada804f9b7af5356f7d2a861a34ab5216c2c0a85537d203619b99001279d8deeafaa06fbb5ad5154f5d0aa63a148b7276a2a0c83557b26301fbf9607219b8be8a9ac00fdb3ab5752f3d6ac65a74eb12568280e81577924321dbd9405239989eaabae02ffb1a95550f1d4ae67a54cb32b6626008f59772a3c13b39a0b2d9787e4a5a00cf1bfa75b5effdaa069ab42bd296424028d5b75283e11b198092f9585e6a7a20ef3bda5595cfdd8a26ba940bf2f6222048b5d732e3817b79e0f299383e0a1a408f5bba35f5afbdea46daf46b92d602006895f712c3a15b59c0d2b9181e2a3a60af7b9a15d58f9dca66fad44bb236e2e0887517f22341bbb9203259f8fecada804f9b7af5356f7d2a861a34ab5216c2c0a85537d203619b99001279d8deeafaa06fbb5ad5154f5d0aa63a148b7276a2a0c83557b26301fbf9607219b8be8a9ac00fdb3ab5752f3d6ac65a74eb12568280e81577924321dbd9405239989eaabae02ffb1a95550f1d4ae67a54cb32b6626008f59772a3c13b39a0b2d9787e4a5a00cf1bfa75b5effdaa069ab42bd296424028d5b75283e11b198092f9585e6a7a20ef3bda5595cfdd8a26ba940bf2f6222048b5d732e3817b79e0f299383e0a1a408f5bba35f5afbdea46daf46b92d602006895f712c3a15b59c0d2b9181e2a3a60af7b9a15d58f9dca66fad44bb236e2e0887517f22341bbb9203259f8feef1ad4488b407109fde335cabff99887522b23a1f4ef62c95355f8d08419c6f2",
        "type": "nulldata"
      }
    },
    {
      "value": 499956.2733,
      "n": 1,
      "scriptPubKey": {
        "asm": "1 5ef24f28ed5a952ba7d4234e931f6b1aa8bbc0463647ecf85ad71401ff9abc38",
        "hex": "51205ef24f28ed5a952ba7d4234e931f6b1aa8bbc0463647ecf85ad71401ff9abc38",
        "reqSigs": 1,
        "type": "witness_v1_scripthash",
        "addresses": [
          "3QJmnh"
        ]
      }
    }
  ],
  "blockhash": "39d4bea9c9c25d41b43db6cdde5dd715e5d3be3597965cba0de2d48951f8c4e3",
  "confirmations": 1,
  "time": 1764183939,
  "blocktime": 1764183939
}