{
  "hex": "01000000000101f86461104da439eaac15db9ff816ae18448be3f4f4daf693ed8370382a6b9cdc0000000000feffffff0250200e76792d000022512006989602b95967c849fa06b9f0066dd4cf593b3f9247790678ae7182a797f36b00e1f50500000000fdd5046a20de092d7b8176eed03b1c0b77ad460123b69110d77fe739db9e9ff341b47b4b9e4db004ef9ac3ac41847fcf32f05042f70fd88717426bd28686e9f2bc23a4450622d0f6cfbae38c61a45fef12d07062d72ff8a737624bf2a6a6c9d29c0384652602f0d6afda83ec01c43f8f72b01002b74f98c757022b92c6c6a9b2fc63e405466290b68ffaa3cc21e41faf52903022976fb8e777220bb2e6e68992dc43c4256642b0966f1a432cc104ff4fb270d0c2778f580797c2eb52060669723ca324c586a250764f3a630ce124df6f9250f0e257af7827b7e2cb72262649521c8304e5a68270562f5a036c8144bf0ff230908237cf1847d782ab12464629327ce36485c6e210360f7a234ca1649f2fd210b0a217ef3867f7a28b32666609125cc344a5e6c23016ef9ac3ac41847fcf32f05042f70fd88717426bd28686e9f2bc23a4450622d0f6cfbae38c61a45fef12d07062d72ff8a737624bf2a6a6c9d29c0384652602f0d6afda83ec01c43f8f72b01002b74f98c757022b92c6c6a9b2fc63e405466290b68ffaa3cc21e41faf52903022976fb8e777220bb2e6e68992dc43c4256642b0966f1a432cc104ff4fb270d0c2778f580797c2eb52060669723ca324c586a250764f3a630ce124df6f9250f0e257af7827b7e2cb72262649521c8304e5a68270562f5a036c8144bf0ff230908237cf1847d782ab12464629327ce36485c6e210360f7a234ca1649f2fd210b0a217ef3867f7a28b32666609125cc344a5e6c23016ef9ac3ac41847fcf32f05042f70fd88717426bd28686e9f2bc23a4450622d0f6cfbae38c61a45fef12d07062d72ff8a737624bf2a6a6c9d29c0384652602f0d6afda83ec01c43f8f72b01002b74f98c757022b92c6c6a9b2fc63e405466290b68ffaa3cc21e41faf52903022976fb8e777220bb2e6e68992dc43c4256642b0966f1a432cc104ff4fb270d0c2778f580797c2eb52060669723ca324c586a250764f3a630ce124df6f9250f0e257af7827b7e2cb72262649521c8304e5a68270562f5a036c8144bf0ff230908237cf1847d782ab12464629327ce36485c6e210360f7a234ca1649f2fd210b0a217ef3867f7a28b32666609125cc344a5e6c23016ef9ac3ac41847fcf32f05042f70fd88717426bd28686e9f2bc23a4450622d0f6cfbae38c61a45fef12d07062d72ff8a737624bf2a6a6c9d29c0384652602f0d6afda83ec01c43f8f72b01002b74f98c757022b92c6c6a9b2fc63e405466290b68ffaa3cc21e41faf52903022976fb8e777220bb2e6e68992dc43c4256642b0966f1a432cc104ff4fb270d0c2778f580797c2eb52060669723ca324c586a250764f3a630ce124df6f9250f0e257af7827b7e2cb72262649521c8304e5a68270562f5a036c8144bf0ff230908237cf1847d782ab12464629327ce36485c6e210360f7a234ca1649f2fd210b0a217ef3867f7a28b32666609125cc344a5e6c23016ef9ac3ac41847fcf32f05042f70fd88717426bd28686e9f2bc23a4450622d0f6cfbae38c61a45fef12d07062d72ff8a737624bf2a6a6c9d29c0384652602f0d6afda83ec01c43f8f72b01002b74f98c757022b92c6c6a9b2fc63e405466290b68ffaa3cc21e41faf52903022976fb8e777220bb2e6e68992dc43c4256642b0966f1a432cc104ff4fb270d0c2778f58073ffece2e2ea62c8a85490b871c54d78b66cabfec0546a628da21e0173899ed6d02fd750917e820fed6138d2093c1d02ad7377079ff2d3f160513ad2dbd280daa9521de0b6f47f61669051f6aa363f5522f0eded3085b1e607f02c9839a3694c42b42d0adc8089647d6bbc0f76c629eba81248de1cde33731673c765c202a91176c00a26808ac70849c3bd3aef22ec4203c54265f0dd0eceb0b6fdc46b910d5ca7fec5699f7a012f08d042cdd19f7b8b038859d1499fcf7acbd6c4bf9c293322a8b8db8a6d0a5af01631917594387f346a802e01c5f5958cf0b741da7d74a608ce23d36766da036c6a0dd0f29560803ed401c41123341dd3be82880a1611fe7f181968770690d6a2f79d9d7f9eddcbc883c2f2dd20b410a1656b9469cd4aa65c522c47fc51e6fe06a423c29d608e085be520aac5114eff65fc1d0bd929337e4fb300869726f988ef3c3b04f6e81c4487d4fe68342ce9e3e5a7ba605f707f13a658a2c54da63b700193c1b342ef1f0a6d0d8e8754349d6b11b2b0718f86005d46a7377af7d1ccc807eb5fec6987eab67378852d5e482310245439cd310dd373e3637c5ff2c4df039ccf84277069acee1d48cee35a1e0f49988cb6158ae10ba56394b939767426d718ca7eb3cfae55bc1c6d2a7f45a9c30740595582db6dccc1fa5f80f4473301cd0450c07740eb3ae050abf12f95515164edf3dd5443260beeee6e3e481f208fb75f4cdd2085c8ca9139230701277d8907543e97a7099a5b81b9afa559f0e1126e7daf63b112ead88ff46ae299172e789824310b75392a23eae21f8ae3daa02725716fd28b3e1ce2916691e845913335bc6b29b4d89ff42d78236d6d131cb581ec4ba03737d3ce075534f0cabc2b394959fa907cca46dcf04f0c5d0ee8819fcea173354da66060ebbab43a56ee11fac6b8bac94b75783863422b1bdeed85d8ab7fba99e0c8fb83a36e02aa62cb67fd6b279a715365c57a90f215e2befbac538b69c7dfb1c7002fae7f32cb89a12bffb38029237371bd63a34984b3716022c3b847252bb35ffe245995539eea20badb352c4908ff685153fed98785b0ba6cb5fe1423dbe1a8a3f3ffc0b221ff5f3d8b6a0a0aefd7f697b9162455b482ef8473f092b453e1b7fdeb659fe63a139e794d84d36ed080c6c8161cd6b4ef6e1bead32481898fbc2dbdcd4684f4b6c6f6b3d5d875b73f90f37a3f14aa07fe63562ca9d0d05f8af241e5e91fc0ed8da30b9a1d6d48271c4701e0a62c71036074bb44cdff8afbc04b2dfbd7490389df51da8bb02151a964da4730d9c59294f2cf05a6a8555d69d5a762caedb6072557e66c1f739cdc979a3f3a4525f375861f0db8968c11cae00869f007af14c4b598322500ddfe24418c8db6718d972b18993665977847fe70a1d10e8e59b82be23c726cc33054a8ddacde590740a3cbf39fc1810d74540805c2d11e6334436d1fccfa93aca8927673359323ca16decc122ea240ff3f24882803dcd0827acfd378812c1d7497f6821d5c0bc1f48d9387f07f65342b517318581ae6a8a037ad8d9383827983d67344c218dad3f4d2356fa40ff373d2a09a77ddfc81d9a2bf2268aea716677fc1ff6e3ce0ba0cb1423dc6c6575e04d1a2b06a4a320dfaf61993df9eeff3599e7b9c988b3cf44487c82dacbc1b5c8c1e7d46a1079725473cd6597af487861df983d10990fe17c4283a238649c556798742c11a4a921a7b499d86556216e1aa1103580a370a69cc43ecd284f7efc445b0a4f4a4898b1624ec8190673270dac642fd251589ee6767ec29742f3dea44a9aa298dc9d6e0235daba25dec85537718f778adb267ab57cacf62021d3734ddcc2ae35d714c87c792ce09ed3d416adfa8cc50301ae1dfd2626c9dcf58a26f2989a72be5c326e04688ed95c4dfb5b6df0e0a8129100fa35c419b6e16c58bd1197cdff4d1e72f47c83642bf280712fed92f645628f0790afe66e215b9b8c735a8a08220f9fd255b83d1f1bff6e4fc1d85db31af845db5452337a4a3229ccbccd79ada135d5e5cb3fe7b2abc44986ae953e179d8222358d1cd2334a14f14729e1e5bed251c33e8ffd4830a82721abc251c433c865ce8d3babe89a3b9332dead80e222341f4bbb2cddbde52806a7a87d6cdf4f593b6f9d5bcde0915f6620bbeb484108a6760703cbda7465947340a76789e06cdba043115035054bec35815d7f5a9221f74b1b87c892f80a2949c2ecf49e069ff0472a9375edcf0aca7494f9629d31029774605de749b5f198b22468ddb008d500edb3eb7686e3a9425cba3ecb6eea2c50477aa038352935f5d8c85b6752ac81bb5a7a0ba96af06a0d211a3b56540b99f8ae7add4669f4aceb1141905a0507d23754569300283dae086716948e9bf22996d47e49967f886c9bef3f2dfe54091f4c4956194e2cfde5cbe24d4954281d4a8017e74d10890807ad1d204ada3626df892e2cb5e39d491b95abc6a51e28caa472d794700c30a893e88cd1c39086612f84761404637301d35da1ddbbddeb34418d9fdf86042825e0957979874b134a043e88a83f95dc24777d97a448ebe733403411d05f85d1c3247278e0fd06404b21d24391cb7ac8cb9010ad35e8bf9405335d926a26adf2f9aaadcd73ec8461cd839b707ee43f248877a73292be4cbd125f2dd2e39a2f9f22cfb7d7b03d9db79dabf08f758cb1c089b0ec1010c77601279993fc8d676aeed1282172d0ddd0e5b3fd67eb9939e65a573364941673dc1e39020276c66e7178d0a3128d213e0f1d529e3825a47b00f783ce1c38babb4c11cd504877783038349f6574b404a8dcd5af40ad34a5f687f0be8a79cf33a4622c242077df93790d23a61c09dd14404a3492e740df3985c678f8725d336fd07ee489d049a0ee43845704139e7fcdbc8dc633907a6c1b127ecd01a23b8442686866b60190e358de3979348f1740c17fa7b5bea9aec271be4977c0ce2bf40a69b7c4f43382e0f4e82b4c477cbd159176dace08056cbd3b41fda8effaadc9f1bc4085f070c1a3c7d5c44b29b0ffdd4989dedaa384762a69d4f5e8aeb8811462472e3d069d3471a98dd5abb8abfccc35e394ac995b7aa76a8878019e7e8a5af35952e331b5c08981593cd01fb3c898dee54c4dd030619f6a11797e187f53ee5f4c5c6a01870f1a1bf1c3abed77b07a52f6f07389d7063cb74506922168c3f61c9ab5f7d70af528ed202087818ab324c0603a8d284c399950d57a901b6af6128e9e5e0029273534b17a649423f875e658e9cc3983fbd2b6cd0cb61b652f8ceb738db2d23d6fa6b02c56d607655d0276b088187c7fb3a2f21c1ebb59bfbe609f096b43d4554235060b0e262b2e476f9192959cc00b141e282c303739407489a8c1cde8ecee062a818f9a9eb0bdcbcfd8ef16194041424f8687888c9ba5c0c3ced0d2d5e1000000000000000000000000000000000000000d1e2a3d01fd210500d3bf15129737e0dfff17d29a614270f84d30a5eb96a7625864370b30f9997c4aabe463f53b5ac2d060d7e3fd0e1fcd2c9603239a553310bde7e27c68eee630cfe3d727a01a376bdb06176aff19488ecf3519f6815ea6b600ad4941a92a8a7bba986a94bd08a6b99fec086015a2b03ea60c9a08055191233e821571a84768a43ad2a0550e961f6137ba925bc06337d17712fcdc253e8e924df5c57c4b55a26712a8e5d88c3a41cd5ee0fc7ef4944511af8a40ef9ec22888ec0559b2a31cc3c448d0d3ed211b0ede77bba174cb4894078dc50447a5d033239cd778a596c5455051c934d453acb2b65c258e36f87656606874e5e08940c9f63e13c4aec4767a917507c418eabae2720c07fefc8f7dca1134501c33b337080ee5abe916893ffd028c2efc34f98b14ea02ae4355783a220a585e038771ff59f1f6782706afcde72852f180ca65a8be26b485ff39841697d1ce7084dcead3a07348496bbd97e7975dadb040522528e470605c54f354c90fed981882290b4fe50dd5fc3fff6af3eff99b45a820f7d5bd9b4025d5f3921cc139ad3b30a72257840df8f0272c59264c9b050a702610c0a2617b4d80f8d1e77d1a453e3371d6fada9eeebc9fbe745f64cb1c01cf9d5fd61bef847385117221f2b0c3796c38932a05a0fab8ac52f2c414f2e8e11a336dd1c3e4391e35418688dc854c553cb6e1e12e6adada90af076aa5236d28f8fdfb56244a0d04d61e173941a3b4b831bdb20df65adb3b62c52e3b8484e61abd7e6f95021cc4c7814ee81f6c1b3c836820808cbb08dcb8ef256a51e6a3d21bf72b6e38289c3853d30b0eda45c193525df13337f4d57a882645e5939eb6b54fb6b9c7900bffe76250a9f841435b0ae49d54c4913c707d645a9327c7ba59f898571fbab37a991be439906003606b9aea62b7e5ea3c2dc0552409ddde526c3b6ecc638cff4f8de91a713f1d452c40a6900ae460e9035c38d75194b5e254be85a55bcdd32cf2e8680a82b96e8ed566bbb64a4aeddb0c8be65b688c2229aa3dc4299b69058728d3893eb98afc93f60db61c60a3c0a47bb8fffdfbe9d45759d174a07f9017685c56efae1bcb3019dc67d1d9bdafea5746dd1df330c85db0480c499dbb97f2e0b3b49ffbbb720c15d1a6e89bb1f174f07abbf636e6315be1b73254de896f9f3ac38caa9764493058e993e41bbd7acf288aee5b7d0d1d0d740e833ab4298591be6eacbe68fc3400d5f2f408ec7f0cb829c4188156aced98b189073c705882ce0a09ca40854efe628ba946726800e2a6c78b315cf1fb18aaae1206ba93b506a2b62c8fade537660b3842f9960066c5519b37ea5b5c7e2b397996f973db0b328b9e2312529f974c9edf9a2f3562d7fd21edba6cc6a6bb5f5886747bc1b06e19fcae99d315aad3df987113d6164390a2a99c5db2dceef954646127fc94c7f5796674a8b8421f781e617f6798570cb386c2abe1241d709e41ed3c5f5f7932ddd2612052e0282b817cefcd9b2a11dc048191b4f4bea384a3a95381c666958aeafacab614c85c60f2af365618113fb3818055d57b30afc1a58ebc1e8f9534fbbf52244e0c424d3ea38cde1c51fddac87ca98204e27917b7d9f1f9af224a4dcd8e9c9921e37b2e74ecc996452415b48f12ce0fa50a907b8dc146e57081a68e0ef407ce0aaba505d43578f133d6844ea5ac2402ad602fea69830a9e1fd46554301db19a53fc37a569dc240bfb9c1fe9e1e870754376b088de76a706cd6804bfbb70a0c8a117933b949994381dcd3a873a09114b38a857500325bd8d991ee613383f8b380a0d1cacbbad27adab7a59f60914a3e1ac1a01aaa04d9de7744b570e68000000",
  "txid": "78d77f1ca5efe35ea1d7933ee50ba4b958aef23d0513dff5e101111b6320b76c",
  "hash": "6dba5e5b94ec37fb738525fe67c946085f09b63a533d1778aaef3e22c824ad52",
  "size": 5085,
  "vsize": 2278,
  "version": 1,
  "locktime": 104,
  "vin": [
    {
      "txid": "dc9c6b2a387083ed93f6daf4f4e38b4418ae16f89fdb15acea39a44d106164f8",
      "vout": 0,
      "scriptSig": {
        "asm": "",
        "hex": ""
      },
      "txinwitness": [
        "17e820fed6138d2093c1d02ad7377079ff2d3f160513ad2dbd280daa9521de0b6f47f61669051f6aa363f5522f0eded3085b1e607f02c9839a3694c42b42d0adc8089647d6bbc0f76c629eba81248de1cde33731673c765c202a91176c00a26808ac70849c3bd3aef22ec4203c54265f0dd0eceb0b6fdc46b910d5ca7fec5699f7a012f08d042cdd19f7b8b038859d1499fcf7acbd6c4bf9c293322a8b8db8a6d0a5af01631917594387f346a802e01c5f5958cf0b741da7d74a608ce23d36766da036c6a0dd0f29560803ed401c41123341dd3be82880a1611fe7f181968770690d6a2f79d9d7f9eddcbc883c2f2dd20b410a1656b9469cd4aa65c522c47fc51e6fe06a423c29d608e085be520aac5114eff65fc1d0bd929337e4fb300869726f988ef3c3b04f6e81c4487d4fe68342ce9e3e5a7ba605f707f13a658a2c54da63b700193c1b342ef1f0a6d0d8e8754349d6b11b2b0718f86005d46a7377af7d1ccc807eb5fec6987eab67378852d5e482310245439cd310dd373e3637c5ff2c4df039ccf84277069acee1d48cee35a1e0f49988cb6158ae10ba56394b939767426d718ca7eb3cfae55bc1c6d2a7f45a9c30740595582db6dccc1fa5f80f4473301cd0450c07740eb3ae050abf12f95515164edf3dd5443260beeee6e3e481f208fb75f4cdd2085c8ca9139230701277d8907543e97a7099a5b81b9afa559f0e1126e7daf63b112ead88ff46ae299172e789824310b75392a23eae21f8ae3daa02725716fd28b3e1ce2916691e845913335bc6b29b4d89ff42d78236d6d131cb581ec4ba03737d3ce075534f0cabc2b394959fa907cca46dcf04f0c5d0ee8819fcea173354da66060ebbab43a56ee11fac6b8bac94b75783863422b1bdeed85d8ab7fba99e0c8fb83a36e02aa62cb67fd6b279a715365c57a90f215e2befbac538b69c7dfb1c7002fae7f32cb89a12bffb38029237371bd63a34984b3716022c3b847252bb35ffe245995539eea20badb352c4908ff685153fed98785b0ba6cb5fe1423dbe1a8a3f3ffc0b221ff5f3d8b6a0a0aefd7f697b9162455b482ef8473f092b453e1b7fdeb659fe63a139e794d84d36ed080c6c8161cd6b4ef6e1bead32481898fbc2dbdcd4684f4b6c6f6b3d5d875b73f90f37a3f14aa07fe63562ca9d0d05f8af241e5e91fc0ed8da30b9a1d6d48271c4701e0a62c71036074bb44cdff8afbc04b2dfbd7490389df51da8bb02151a964da4730d9c59294f2cf05a6a8555d69d5a762caedb6072557e66c1f739cdc979a3f3a4525f375861f0db8968c11cae00869f007af14c4b598322500ddfe24418c8db6718d972b18993665977847fe70a1d10e8e59b82be23c726cc33054a8ddacde590740a3cbf39fc1810d74540805c2d11e6334436d1fccfa93aca8927673359323ca16decc122ea240ff3f24882803dcd0827acfd378812c1d7497f6821d5c0bc1f48d9387f07f65342b517318581ae6a8a037ad8d9383827983d67344c218dad3f4d2356fa40ff373d2a09a77ddfc81d9a2bf2268aea716677fc1ff6e3ce0ba0cb1423dc6c6575e04d1a2b06a4a320dfaf61993df9eeff3599e7b9c988b3cf44487c82dacbc1b5c8c1e7d46a1079725473cd6597af487861df983d10990fe17c4283a238649c556798742c11a4a921a7b499d86556216e1aa1103580a370a69cc43ecd284f7efc445b0a4f4a4898b1624ec8190673270dac642fd251589ee6767ec29742f3dea44a9aa298dc9d6e0235daba25dec85537718f778adb267ab57cacf62021d3734ddcc2ae35d714c87c792ce09ed3d416adfa8cc50301ae1dfd2626c9dcf58a26f2989a72be5c326e04688ed95c4dfb5b6df0e0a8129100fa35c419b6e16c58bd1197cdff4d1e72f47c83642bf280712fed92f645628f0790afe66e215b9b8c735a8a08220f9fd255b83d1f1bff6e4fc1d85db31af845db5452337a4a3229ccbccd79ada135d5e5cb3fe7b2abc44986ae953e179d8222358d1cd2334a14f14729e1e5bed251c33e8ffd4830a82721abc251c433c865ce8d3babe89a3b9332dead80e222341f4bbb2cddbde52806a7a87d6cdf4f593b6f9d5bcde0915f6620bbeb484108a6760703cbda7465947340a76789e06cdba043115035054bec35815d7f5a9221f74b1b87c892f80a2949c2ecf49e069ff0472a9375edcf0aca7494f9629d31029774605de749b5f198b22468ddb008d500edb3eb7686e3a9425cba3ecb6eea2c50477aa038352935f5d8c85b6752ac81bb5a7a0ba96af06a0d211a3b56540b99f8ae7add4669f4aceb1141905a0507d23754569300283dae086716948e9bf22996d47e49967f886c9bef3f2dfe54091f4c4956194e2cfde5cbe24d4954281d4a8017e74d10890807ad1d204ada3626df892e2cb5e39d491b95abc6a51e28caa472d794700c30a893e88cd1c39086612f84761404637301d35da1ddbbddeb34418d9fdf86042825e0957979874b134a043e88a83f95dc24777d97a448ebe733403411d05f85d1c3247278e0fd06404b21d24391cb7ac8cb9010ad35e8bf9405335d926a26adf2f9aaadcd73ec8461cd839b707ee43f248877a73292be4cbd125f2dd2e39a2f9f22cfb7d7b03d9db79dabf08f758cb1c089b0ec1010c77601279993fc8d676aeed1282172d0ddd0e5b3fd67eb9939e65a573364941673dc1e39020276c66e7178d0a3128d213e0f1d529e3825a47b00f783ce1c38babb4c11cd504877783038349f6574b404a8dcd5af40ad34a5f687f0be8a79cf33a4622c242077df93790d23a61c09dd14404a3492e740df3985c678f8725d336fd07ee489d049a0ee43845704139e7fcdbc8dc633907a6c1b127ecd01a23b8442686866b60190e358de3979348f1740c17fa7b5bea9aec271be4977c0ce2bf40a69b7c4f43382e0f4e82b4c477cbd159176dace08056cbd3b41fda8effaadc9f1bc4085f070c1a3c7d5c44b29b0ffdd4989dedaa384762a69d4f5e8aeb8811462472e3d069d3471a98dd5abb8abfccc35e394ac995b7aa76a8878019e7e8a5af35952e331b5c08981593cd01fb3c898dee54c4dd030619f6a11797e187f53ee5f4c5c6a01870f1a1bf1c3abed77b07a52f6f07389d7063cb74506922168c3f61c9ab5f7d70af528ed202087818ab324c0603a8d284c399950d57a901b6af6128e9e5e0029273534b17a649423f875e658e9cc3983fbd2b6cd0cb61b652f8ceb738db2d23d6fa6b02c56d607655d0276b088187c7fb3a2f21c1ebb59bfbe609f096b43d4554235060b0e262b2e476f9192959cc00b141e282c303739407489a8c1cde8ecee062a818f9a9eb0bdcbcfd8ef16194041424f8687888c9ba5c0c3ced0d2d5e1000000000000000000000000000000000000000d1e2a3d01",
        "00d3bf15129737e0dfff17d29a614270f84d30a5eb96a7625864370b30f9997c4aabe463f53b5ac2d060d7e3fd0e1fcd2c9603239a553310bde7e27c68eee630cfe3d727a01a376bdb06176aff19488ecf3519f6815ea6b600ad4941a92a8a7bba986a94bd08a6b99fec086015a2b03ea60c9a08055191233e821571a84768a43ad2a0550e961f6137ba925bc06337d17712fcdc253e8e924df5c57c4b55a26712a8e5d88c3a41cd5ee0fc7ef4944511af8a40ef9ec22888ec0559b2a31cc3c448d0d3ed211b0ede77bba174cb4894078dc50447a5d033239cd778a596c5455051c934d453acb2b65c258e36f87656606874e5e08940c9f63e13c4aec4767a917507c418eabae2720c07fefc8f7dca1134501c33b337080ee5abe916893ffd028c2efc34f98b14ea02ae4355783a220a585e038771ff59f1f6782706afcde72852f180ca65a8be26b485ff39841697d1ce7084dcead3a07348496bbd97e7975dadb040522528e470605c54f354c90fed981882290b4fe50dd5fc3fff6af3eff99b45a820f7d5bd9b4025d5f3921cc139ad3b30a72257840df8f0272c59264c9b050a702610c0a2617b4d80f8d1e77d1a453e3371d6fada9eeebc9fbe745f64cb1c01cf9d5fd61bef847385117221f2b0c3796c38932a05a0fab8ac52f2c414f2e8e11a336dd1c3e4391e35418688dc854c553cb6e1e12e6adada90af076aa5236d28f8fdfb56244a0d04d61e173941a3b4b831bdb20df65adb3b62c52e3b8484e61abd7e6f95021cc4c7814ee81f6c1b3c836820808cbb08dcb8ef256a51e6a3d21bf72b6e38289c3853d30b0eda45c193525df13337f4d57a882645e5939eb6b54fb6b9c7900bffe76250a9f841435b0ae49d54c4913c707d645a9327c7ba59f898571fbab37a991be439906003606b9aea62b7e5ea3c2dc0552409ddde526c3b6ecc638cff4f8de91a713f1d452c40a6900ae460e9035c38d75194b5e254be85a55bcdd32cf2e8680a82b96e8ed566bbb64a4aeddb0c8be65b688c2229aa3dc4299b69058728d3893eb98afc93f60db61c60a3c0a47bb8fffdfbe9d45759d174a07f9017685c56efae1bcb3019dc67d1d9bdafea5746dd1df330c85db0480c499dbb97f2e0b3b49ffbbb720c15d1a6e89bb1f174f07abbf636e6315be1b73254de896f9f3ac38caa9764493058e993e41bbd7acf288aee5b7d0d1d0d740e833ab4298591be6eacbe68fc3400d5f2f408ec7f0cb829c4188156aced98b189073c705882ce0a09ca40854efe628ba946726800e2a6c78b315cf1fb18aaae1206ba93b506a2b62c8fade537660b3842f9960066c5519b37ea5b5c7e2b397996f973db0b328b9e2312529f974c9edf9a2f3562d7fd21edba6cc6a6bb5f5886747bc1b06e19fcae99d315aad3df987113d6164390a2a99c5db2dceef954646127fc94c7f5796674a8b8421f781e617f6798570cb386c2abe1241d709e41ed3c5f5f7932ddd2612052e0282b817cefcd9b2a11dc048191b4f4bea384a3a95381c666958aeafacab614c85c60f2af365618113fb3818055d57b30afc1a58ebc1e8f9534fbbf52244e0c424d3ea38cde1c51fddac87ca98204e27917b7d9f1f9af224a4dcd8e9c9921e37b2e74ecc996452415b48f12ce0fa50a907b8dc146e57081a68e0ef407ce0aaba505d43578f133d6844ea5ac2402ad602fea69830a9e1fd46554301db19a53fc37a569dc240bfb9c1fe9e1e870754376b088de76a706cd6804bfbb70a0c8a117933b949994381dcd3a873a09114b38a857500325bd8d991ee613383f8b380a0d1cacbbad27adab7a59f60914a3e1ac1a01aaa04d9de7744b570e"
      ],
      "sequence": 4294967294
    }
  ],
  "vout": [
    {
      "value": 499996.9493,
      "n": 0,
      "scriptPubKey": {
        "asm": "1 06989602b95967c849fa06b9f0066dd4cf593b3f9247790678ae7182a797f36b",
        "hex": "512006989602b95967c849fa06b9f0066dd4cf593b3f9247790678ae7182a797f36b",
        "reqSigs": 1,
        "type": "witness_v1_scripthash",
        "addresses": [
          "3QJmnh"
        ]
      }
    },
    {
      "value": 1.0,
      "n": 1,
      "scriptPubKey": {
        "asm": "OP_RETURN de092d7b8176eed03b1c0b77ad460123b69110d77fe739db9e9ff341b47b4b9e ef9ac3ac41847fcf32f05042f70fd88717426bd28686e9f2bc23a4450622d0f6cfbae38c61a45fef12d07062d72ff8a737624bf2a6a6c9d29c0384652602f0d6afda83ec01c43f8f72b01002b74f98c757022b92c6c6a9b2fc63e405466290b68ffaa3cc21e41faf52903022976fb8e777220bb2e6e68992dc43c4256642b0966f1a432cc104ff4fb270d0c2778f580797c2eb52060669723ca324c586a250764f3a630ce124df6f9250f0e257af7827b7e2cb72262649521c8304e5a68270562f5a036c8144bf0ff230908237cf1847d782ab12464629327ce36485c6e210360f7a234ca1649f2fd210b0a217ef3867f7a28b32666609125cc344a5e6c23016ef9ac3ac41847fcf32f05042f70fd88717426bd28686e9f2bc23a4450622d0f6cfbae38c61a45fef12d07062d72ff8a737624bf2a6a6c9d29c0384652602f0d6afda83ec01c43f8f72b01002b74f98c757022b92c6c6a9b2fc63e405466290b68ffaa3cc21e41faf52903022976fb8e777220bb2e6e68992dc43c4256642b0966f1a432cc104ff4fb270d0c2778f580797c2eb52060669723ca324c586a250764f3a630ce124df6f9250f0e257af7827b7e2cb72262649521c8304e5a68270562f5a036c8144bf0ff230908237cf1847d782ab12464629327ce36485c6e210360f7a234ca1649f2fd210b0a217ef3867f7a28b32666609125cc344a5e6c23016ef9ac3ac41847fcf32f05042f70fd88717426bd28686e9f2bc23a4450622d0f6cfbae38c61a45fef12d07062d72ff8a737624bf2a6a6c9d29c0384652602f0d6afda83ec01c43f8f72b01002b74f98c757022b92c6c6a9b2fc63e405466290b68ffaa3cc21e41faf52903022976fb8e777220bb2e6e68992dc43c4256642b0966f1a432cc104ff4fb270d0c2778f580797c2eb52060669723ca324c586a250764f3a630ce124df6f9250f0e257af7827b7e2cb72262649521c8304e5a68270562f5a036c8144bf0ff230908237cf1847d782ab12464629327ce36485c6e210360f7a234ca1649f2fd210b0a217ef3867f7a28b32666609125cc344a5e6c23016ef9ac3ac41847fcf32f05042f70fd88717426bd28686e9f2bc23a4450622d0f6cfbae38c61a45fef12d07062d72ff8a737624bf2a6a6c9d29c0384652602f0d6afda83ec01c43f8f72b01002b74f98c757022b92c6c6a9b2fc63e405466290b68ffaa3cc21e41faf52903022976fb8e777220bb2e6e68992dc43c4256642b0966f1a432cc104ff4fb270d0c2778f580797c2eb52060669723ca324c586a250764f3a630ce124df6f9250f0e257af7827b7e2cb72262649521c8304e5a68270562f5a036c8144bf0ff230908237cf1847d782ab12464629327ce36485c6e210360f7a234ca1649f2fd210b0a217ef3867f7a28b32666609125cc344a5e6c23016ef9ac3ac41847fcf32f05042f70fd88717426bd28686e9f2bc23a4450622d0f6cfbae38c61a45fef12d07062d72ff8a737624bf2a6a6c9d29c0384652602f0d6afda83ec01c43f8f72b01002b74f98c757022b92c6c6a9b2fc63e405466290b68ffaa3cc21e41faf52903022976fb8e777220bb2e6e68992dc43c4256642b0966f1a432cc104ff4fb270d0c2778f58073ffece2e2ea62c8a85490b871c54d78b66cabfec0546a628da21e0173899ed6d",
        "hex": "6a20de092d7b8176eed03b1c0b77ad460123b69110d77fe739db9e9ff341b47b4b9e4db004ef9ac3ac41847fcf32f05042f70fd88717426bd28686e9f2bc23a4450622d0f6cfbae38c61a45fef12d07062d72ff8a737624bf2a6a6c9d29c0384652602f0d6afda83ec01c43f8f72b01002b74f98c757022b92c6c6a9b2fc63e405466290b68ffaa3cc21e41faf52903022976fb8e777220bb2e6e68992dc43c4256642b0966f1a432cc104ff4fb270d0c2778f580797c2eb52060669723ca324c586a250764f3a630ce124df6f9250f0e257af7827b7e2cb72262649521c8304e5a68270562f5a036c8144bf0ff230908237cf1847d782ab12464629327ce36485c6e210360f7a234ca1649f2fd210b0a217ef3867f7a28b32666609125cc344a5e6c23016ef9ac3ac41847fcf32f05042f70fd88717426bd28686e9f2bc23a4450622d0f6cfbae38c61a45fef12d07062d72ff8a737624bf2a6a6c9d29c0384652602f0d6afda83ec01c43f8f72b01002b74f98c757022b92c6c6a9b2fc63e405466290b68ffaa3cc21e41faf52903022976fb8e777220bb2e6e68992dc43c4256642b0966f1a432cc104ff4fb270d0c2778f580797c2eb52060669723ca324c586a250764f3a630ce124df6f9250f0e257af7827b7e2cb72262649521c8304e5a68270562f5a036c8144bf0ff230908237cf1847d782ab12464629327ce36485c6e210360f7a234ca1649f2fd210b0a217ef3867f7a28b32666609125cc344a5e6c23016ef9ac3ac41847fcf32f05042f70fd88717426bd28686e9f2bc23a4450622d0f6cfbae38c61a45fef12d07062d72ff8a737624bf2a6a6c9d29c0384652602f0d6afda83ec01c43f8f72b01002b74f98c757022b92c6c6a9b2fc63e405466290b68ffaa3cc21e41faf52903022976fb8e777220bb2e6e68992dc43c4256642b0966f1a432cc104ff4fb270d0c2778f580797c2eb52060669723ca324c586a250764f3a630ce124df6f9250f0e257af7827b7e2cb72262649521c8304e5a68270562f5a036c8144bf0ff230908237cf1847d782ab12464629327ce36485c6e210360f7a234ca1649f2fd210b0a217ef3867f7a28b32666609125cc344a5e6c23016ef9ac3ac41847fcf32f05042f70fd88717426bd28686e9f2bc23a4450622d0f6cfbae38c61a45fef12d07062d72ff8a737624bf2a6a6c9d29c0384652602f0d6afda83ec01c43f8f72b01002b74f98c757022b92c6c6a9b2fc63e405466290b68ffaa3cc21e41faf52903022976fb8e777220bb2e6e68992dc43c4256642b0966f1a432cc104ff4fb270d0c2778f580797c2eb52060669723ca324c586a250764f3a630ce124df6f9250f0e257af7827b7e2cb72262649521c8304e5a68270562f5a036c8144bf0ff230908237cf1847d782ab12464629327ce36485c6e210360f7a234ca1649f2fd210b0a217ef3867f7a28b32666609125cc344a5e6c23016ef9ac3ac41847fcf32f05042f70fd88717426bd28686e9f2bc23a4450622d0f6cfbae38c61a45fef12d07062d72ff8a737624bf2a6a6c9d29c0384652602f0d6afda83ec01c43f8f72b01002b74f98c757022b92c6c6a9b2fc63e405466290b68ffaa3cc21e41faf52903022976fb8e777220bb2e6e68992dc43c4256642b0966f1a432cc104ff4fb270d0c2778f58073ffece2e2ea62c8a85490b871c54d78b66cabfec0546a628da21e0173899ed6d",
        "type": "nulldata"
      }
    }
  ],
  "blockhash": "32a2d379a33ec88ae1cb3a8a1a44f2d12b76aebf574ecf7ac16b289397ed6cd9",
  "confirmations": 1,
  "time": 1764176557,
  "blocktime": 1764176557
}