{
  "hex": "010000000001015376440983c04d63eca92d4daa4e1496e6a8d0d354d9c44057ecea8e649d8e8e0000000000feffffff02702338c0782d0000225120dcd9226548c2643b45026ede8c101f6bda1b6f5b570738bf4747ef2bbab2000e00e1f50500000000fdd5046a2052c5577706b4c288c60f09cd83b60b28179a29f21fc19ecb643bc4b293e237d24db00402259732ace036b3cf237d326ccc1b7e99ea8b1e5c12a1ee7c8f96a4df32c8df2205b7128cc01693ef035d124cec3b5eb9caab3e7c3281ce5cafb684ff12e8ff4265d772eca076f38f633d722c8c5b3ed9aacb5e1c52e1ae3ccfd6e49f72889f6245f752cc8056d3af431d520cac7b1ef98aeb7e3c72c18e1ceff6c4bf52a8bf82a517b22c60b6334fa3fdb2ec4c9bfe196a0b9edc92216efc0f16245fb2485fa28537920c4096136f83dd92cc6cbbde394a2bbefcb2014edc2f36047f92687fc2e557f26c20f6730fe3bdf2ac0cdbbe592a4bde9cd2612ebc4f56641ff2081fe2c577d24c00d6532fc39dd28c2cfb9e790a6bfebcf2410e9c6f76443fd2283f02259732ace036b3cf237d326ccc1b7e99ea8b1e5c12a1ee7c8f96a4df32c8df2205b7128cc01693ef035d124cec3b5eb9caab3e7c3281ce5cafb684ff12e8ff4265d772eca076f38f633d722c8c5b3ed9aacb5e1c52e1ae3ccfd6e49f72889f6245f752cc8056d3af431d520cac7b1ef98aeb7e3c72c18e1ceff6c4bf52a8bf82a517b22c60b6334fa3fdb2ec4c9bfe196a0b9edc92216efc0f16245fb2485fa28537920c4096136f83dd92cc6cbbde394a2bbefcb2014edc2f36047f92687fc2e557f26c20f6730fe3bdf2ac0cdbbe592a4bde9cd2612ebc4f56641ff2081fe2c577d24c00d6532fc39dd28c2cfb9e790a6bfebcf2410e9c6f76443fd2283f02259732ace036b3cf237d326ccc1b7e99ea8b1e5c12a1ee7c8f96a4df32c8df2205b7128cc01693ef035d124cec3b5eb9caab3e7c3281ce5cafb684ff12e8ff4265d772eca076f38f633d722c8c5b3ed9aacb5e1c52e1ae3ccfd6e49f72889f6245f752cc8056d3af431d520cac7b1ef98aeb7e3c72c18e1ceff6c4bf52a8bf82a517b22c60b6334fa3fdb2ec4c9bfe196a0b9edc92216efc0f16245fb2485fa28537920c4096136f83dd92cc6cbbde394a2bbefcb2014edc2f36047f92687fc2e557f26c20f6730fe3bdf2ac0cdbbe592a4bde9cd2612ebc4f56641ff2081fe2c577d24c00d6532fc39dd28c2cfb9e790a6bfebcf2410e9c6f76443fd2283f02259732ace036b3cf237d326ccc1b7e99ea8b1e5c12a1ee7c8f96a4df32c8df2205b7128cc01693ef035d124cec3b5eb9caab3e7c3281ce5cafb684ff12e8ff4265d772eca076f38f633d722c8c5b3ed9aacb5e1c52e1ae3ccfd6e49f72889f6245f752cc8056d3af431d520cac7b1ef98aeb7e3c72c18e1ceff6c4bf52a8bf82a517b22c60b6334fa3fdb2ec4c9bfe196a0b9edc92216efc0f16245fb2485fa28537920c4096136f83dd92cc6cbbde394a2bbefcb2014edc2f36047f92687fc2e557f26c20f6730fe3bdf2ac0cdbbe592a4bde9cd2612ebc4f56641ff2081fe2c577d24c00d6532fc39dd28c2cfb9e790a6bfebcf2410e9c6f76443fd2283f02259732ace036b3cf237d326ccc1b7e99ea8b1e5c12a1ee7c8f96a4df32c8df2205b7128cc01693ef035d124cec3b5eb9caab3e7c3281ce5cafb684ff12e8ff4265d772eca076f38f633d722c8c5b3ed9aacb5e1c52e1ae3ccfd6e49f72889f6245f752cc8056d3af431d520cac7b1ef98aeb7e3c72c18e1ceff6c4bf52a8bf82a517b22c60b6334fa3fdb2ec4c9bfeb0cc4c84e7441f212fa35806fcc3cc153d67a2209deaefb8e324d0040fb76f8c02fd7509336cc762986219a01c9fd06913ac613f81fc68dc866ea616918482f1fdd71b1b0dd85c405130bee84b70e696789729916157f15cc47e862a9df473c29e9e1e4ddf702436a7922c4cbaa6a6c99b90dabb4436262dda650f7f88ff1544be4681eac6649cded2d4ce89471edfc396b69aa1b6a71d869afc0d704181028c8b77815f8965a2acb4d4b03fede9279d5dcc2c2cc1baba95c77650b50fa6136b5eda2b8ef1aaee4029776eb53d70771579cc887caa83b847ee485bc60a5b1ee70215648a3f93275b33a1357c523f062780326e00573b28b52e69eee12d273fda9b48c443842212e873685e5a35a7f4696c3ed79c088f2c08af853b00cef2c5e7142d1e4e05079e0b93d320d5e66fcb163c75c81305b5aa2907a51c027b46fa717e1fdc87e2ac830aeb6d8d9f27b464c80f6114c7e25e30cfd3b61c5b79d5ecd748854cf66648e29e260841babbf51112113e77c94dfb7b1b0c0701539baa512a6a9bacc69e57c93ed81ff034a7b2522c1116fb6e07321c2b099392448e67cb11d73cc47e15776bcddd904c52e41edf847ced5b31de129ddf8e21861ba359e043a2582595f6728d66c2a51f965c349fe9e755800aea0a48b6b9fdf00cfcdf3729db58133b75e2e6dd628dfaa603ee5feb1169ce9443f26a8194ed240bf05267e911a9228cd02222ead71723d71228388547c5ce4aa51205a20f64172f487bb18a33b472de481cc0898043d9dd54ca3f5a149889648850605d8da8a6e3f39cd7fdaa579edef092f59fc7640e7a04d2fbceb3fe7e92ce96e6e52f98e0038c2ba5a4d71287ae688d6482adc96ac5b445b5af1b0c7ca6b839442e3dc13bfdd4dd4f0b1602b280da498c728f4589a851864930470a2d443a57f91b5627ea8fd1d9c08477be2125b3fd81f56f0541ac94dff4d90af72ea3a5fa39ffc38d30e62855f58c914103b60cc37052b50c0ffbbc86386efd3f1cd34ec83e4955648f7a17f7ede0e8f31b784db702033e46074326ae5bab2ce232fcd95dc1af5dbecc023644f3582851224d75b96fe4dd44c6b42d00779cca96c0130edc05fb352ab1decd367beb1335925a4cfcaac8c8414e23bdbf6a301a4b295e586edba038f9ae7e78dcc033aaaec8025556e22287b3e9ceb67431bc653a2ccb1d2aa326a379c89769ddd99db67244e5bddfc6fcf3100e36915c3b04fd5a99923bb89422963f1b144b296f66c5f44398f0f7b09086da7965c8c23ef90adbfd26dbbd9954937978c324e7a082917eaef305e0a3cdcebb807f928afa41fad729825e1a896b8fb317aefa1ed47065cb71524abfeb1e5b643c8605c970b0a9a608331d148a4508c4c32bc69efbfb1b917bf9585feac0ad37d4ecb1b7e6be46efe88dfd1382869673714b31758b79da2130eac054f308308a24492e710a62f0b8c7f5d88ff91b9a060a182bfb819d040ce68cd922fd0556d5117824491b8a1c930c9adae99f94906f938ca9cb1fc14de0d8d1cd4f3611ccf3cdc0b59aad5e80a7b4607bb34cab543d75d6513140a9f24be0050493647ed8cf034524eb9c3e6624b95cf9cb447f2a5f3842c6cc0c71473f088e0bce90fc99478d418a9405960fbbede8a0f24ff7d90403d4fbe93d10ae91dbb3689c1a10028be0730f2fcb3629fc181f08461230c1790f53a8b9596010d6e511b7deb141ca4493a0f7f07cdabf13e8202c2533b7bc7838bb50ff45f5a0c998e8120843201387f931ee987f041cf721a94d2bd0d8682f3913e71ebbfe317ce73deb3350163f7a4bcbe3956a9da698d7717d46e4626844634260fd4d9f1732c9ef7c7d2f881686c86c1f51609b564db4575ba5cd82d36db7d80a9e00ee67b026e655aaaed611eca32b066d5477879256bf5105c4d5da6aa3c4405307289c4a9fa720c47a3cd18f39caa4e43e6b5d1987927b3b90ea45670a9e7a9e1792b403c614958f2a77ddead88bf9ddb80ff12dab7064d6e30025cd0211eb3afd1345382fa44643fd8d06cb3b02d7d1b5cf8417fe8a00b418cab42ba76f9558ecd3d030227962f90b60fe674fa45defbfd3f4e9956b118a3ee7117a5ba7c384047e20cb261725884dda62e1a6e0431b011d9b4b0c0cfef05e0ba9be357e364bb33db2263d595323465b755bfe232588c7dc17df660047f92ef27f128493fa4a032daefc8b8e54c57f4a5ee65bfc576f5bdd4a7959563b5b011527af9d1c9fc791521fc67fa828e5465c20f1394255a077ba341090659b95839059e7e3907ebf1afb30591f9d4fd242d1c4e9ebe438a233783c905d08445297181a04429e8e616d7e9e52e22e7a7493fd8d1f9b2a490c3b5df9052113918945b02a3a4b5c8eac72dbecf4254e3af80c6304ed57bff69e5a67ec7c6164b1871f84efcc7d6c2963409a06a72a4267db40b7657726130417ef00a28e22afac785e91882e716f927781d97e0e124a04499d650d92ca7327fe1bf0c5da38881696f3944cee698489ed76165239f6a5c8122d8bba6e524ff0b7a18d5b3a3eb2ad4f38e76ea94a1246a061961a3352829485db6ac2fe96f624592be4260ef1cdc700c08880be95eb7f33544a1444060dd2d40bc7a5b88bf6301e24af1ccd564ade0091ae55f96bea9f2d4daed2717bd1ccf5d7c635c33bb32cebddee8550a49a46d021a41801f5777959da74d59a08555fa273f4fa7dca62d60360fca1098b8925d0c9d4e33e9c52c98eeffcbc47c6f27468c0a860e1c6d7e8ee7d113a09197a4ee25908996f60b7a4c324e79a1705e728e31528dee633233d4eb751d0b4eb276ddec3bd1cc28c81f9d7f2b1891b57585e3e6952314528eeffa53d7770dfb16f75a10606b8d74284ca40851fa0566dfec631caed0d9dbc2ebf99fd4eeda1caac31bedbc1c027a127ca78283855652fea598e1ca4fa37c6893e10954d204529c8631372fc1d7a447cf37f0a97e83806209e3d2928b291fc136572803c1bc797cc26e5e7680e542ff18f92e5eed22f67cb85ca53c7b988e4192115d7e5e20db0125bbd0de0b24ee871d5b8cbcb4a44cccde66645cbb504a0e19fec0328a7b3899df1c40f44fcc2c41320a04ffbfb3b93397732c62dece01c45f23c68446c84f0d78b177905ebe0013847fc30f198d33c99c55fffa593c160df024e5cb7f4fe446f74f47e5ee48bdd43e556477c66785283a15e4d9ae4887040e10fde23432aecd92a5e5f2c2dea6b2b053b47c988cc2dd28abf0bffebb856acf202913303d4a3c9f8e61f0f9e9441355668a33c796f442692b044367a9aca0b8b682ec6ac5ced23abcb766b4dfe2e99c105bfa5f8c4075d14262a48516568727e929a9eb7b9bff700020c191b1f213e4049526db5bdd6f4233b3f595c6a7275b8c2c9cfecfc0108283a41424e506061707a8c95aacfeaebecee000000000000000000000000000010202e4201fd21050045ed332420c2d6bc54f19a55def5bf0e678a9c71104e369744e740a546b6445ef3808c18ee40ac9bd3f1427b061f1681f58a5ce34ef29acd2ca5a1f3b7e29ad6bb4cff5a4ae9a458f41ce8625a1789c8669f64d1a2c22ddee578d19a5e01f43144a9372714796d3c7b105cb3ab720a70809c0c7431f67478956ecde6ba2e87fe9dc4c28def5a0472ad919f3ab01de1b5fd3d1b866aac21099fc38f1080a3d3edc7416dca26bef3d7a20312e80f79a18a43556b33659f1536f19902802e739b92ac881fb052622d4811adababeee7957a6461e5e05d420e1e8e0efc458448560431b9740651ddb133480feaf0980ee97492ee47e52e0a02f5b28eb99ccda3607215d5c951e573ed2b392f9e2ad059b1b524df93db61a096900b278c8b5cbfedc8a5d9eb1a1bd4dc8b3dcb2374bee1547a1b2c858e207ef59c772547cd6d47e299e47628a93f8f0ddd13ab5dbf8ff17cd3adeb953f034d706bee771b738486f4d082482223e0d506fceae3a34ba56fc53344fdd53a5debb946870fd1190a7e41cb0b43ddc974f1bb09d81ae92f559148024daac66108bc4ffe316b5f1564e054fa311ccc3d87e7f42b065a667967787a5915204f740c9a5e97b91b133f98a5fafcf5c29176eb6a6e602b60a1ee21ebd5d65432895059821c7bd83542daa150a5a2acd154c419f9d9c0a979768eaa585103d4fba3beb09386f2db42aebfe8c7954b097d1f4b761d79047b6c28090f7a9ab66ec650b617e4657b8b8feaabc7e9b2128c3d44cc73b4ec067d7cea15870d92a1b5ebbc75d2c39b3ae558d46b2f1ca4fca20ed82fab6a66366229158e3adac176eb38672f75327562542d4718dc2e6e277bfc291835436925c554ab6d99f44ca1af2c0ee03dea961c76a4f467cc0c0f985a3f8f223d67f300d7bcdc8d673bf7cfdf444491a5e4f910a9986fdd4dc56e8eba07b27cfa93ac9b5210a06b44fe885fe917bc4c1c76e4d3e95c4b570acd652969e6a4d7b89d211a6046069fdbfc70ba653f75d3281968d59945ac400cb973b1cea42aee37810360e625c27036ce52bb393e6f456872a67f860b97ae08a5ff61d6760dfb0932588aa3bd95d6d98f301035507dec5ef5e873b9518d72368114c0cfb66d2c1743dcc7f953732759064c0ec10acdd0ca373d7aa86fe622be76b36e34e3bb28b3d177f611847e2593570529307c74673431c714f809fbc0d6dde26906913ffc579f00bb3b0da91a0c9534bc6e7b15a1b1c359225fe73a3e6f50db3283b03dec86fff68ceb1f03d5a068333e89b0715df226d383171127ddcaf1f895af48bc813f6b3934d57de144be3cd9674c853a49285a1746a11908561cc87a79db502dbbf04aa769786d4a5306180ed4527155fa9673b373c9e8974f508c1fb3ab3a95b875f5ad3dfa860b27ebf12e6d96e03b84dfbce02fe069cd21f41a19317a18a27dd2db1be7c1077097f476ada55ab179d91201b142317715df49cd7702407ce40149a4beb7ad4a4a91a82c289ee7bfc6cdf740f9ea7f67c6fd25605b4a5b562724a61cb66f10ddff84cb36764b21893e7d92cc61f1b65e049e18172a159f6c40037e69005197052a64ff23f5f7b735428d13ab70251d053590806af4a929e7d7bd5a26663390a8e75e3ae147233a4abfe84b501c67b1377eb2bfe00e0e08b585177909d27ffc87977e04857e6c55fbe987e0af48edaf85557ee6b0fa9ed4869db309cb702dd74057aa1b64b9f6befca2b5703fbefb7a131507046b584236183f6a4120ee7e0e8c1172f6b156e9aa6b2567f087c31986cd26f1ca3edef7429b4423f1631595b0ff26303835551cd144fd2ff779e135262d46710e0996a283000000",
  "txid": "7f4f91ffa80cecd373338217cc10386b519102946aa6c3f92a09ec95f852bfb1",
  "hash": "da9183acbc31cd55ec706117254b4dcd1ea785c7d033caa7e46cb47a72dd681d",
  "size": 5085,
  "vsize": 2278,
  "version": 1,
  "locktime": 131,
  "vin": [
    {
      "txid": "8e8e9d648eeaec5740c4d954d3d0a8e696144eaa4d2da9ec634dc08309447653",
      "vout": 0,
      "scriptSig": {
        "asm": "",
        "hex": ""
      },
      "txinwitness": [
        "336cc762986219a01c9fd06913ac613f81fc68dc866ea616918482f1fdd71b1b0dd85c405130bee84b70e696789729916157f15cc47e862a9df473c29e9e1e4ddf702436a7922c4cbaa6a6c99b90dabb4436262dda650f7f88ff1544be4681eac6649cded2d4ce89471edfc396b69aa1b6a71d869afc0d704181028c8b77815f8965a2acb4d4b03fede9279d5dcc2c2cc1baba95c77650b50fa6136b5eda2b8ef1aaee4029776eb53d70771579cc887caa83b847ee485bc60a5b1ee70215648a3f93275b33a1357c523f062780326e00573b28b52e69eee12d273fda9b48c443842212e873685e5a35a7f4696c3ed79c088f2c08af853b00cef2c5e7142d1e4e05079e0b93d320d5e66fcb163c75c81305b5aa2907a51c027b46fa717e1fdc87e2ac830aeb6d8d9f27b464c80f6114c7e25e30cfd3b61c5b79d5ecd748854cf66648e29e260841babbf51112113e77c94dfb7b1b0c0701539baa512a6a9bacc69e57c93ed81ff034a7b2522c1116fb6e07321c2b099392448e67cb11d73cc47e15776bcddd904c52e41edf847ced5b31de129ddf8e21861ba359e043a2582595f6728d66c2a51f965c349fe9e755800aea0a48b6b9fdf00cfcdf3729db58133b75e2e6dd628dfaa603ee5feb1169ce9443f26a8194ed240bf05267e911a9228cd02222ead71723d71228388547c5ce4aa51205a20f64172f487bb18a33b472de481cc0898043d9dd54ca3f5a149889648850605d8da8a6e3f39cd7fdaa579edef092f59fc7640e7a04d2fbceb3fe7e92ce96e6e52f98e0038c2ba5a4d71287ae688d6482adc96ac5b445b5af1b0c7ca6b839442e3dc13bfdd4dd4f0b1602b280da498c728f4589a851864930470a2d443a57f91b5627ea8fd1d9c08477be2125b3fd81f56f0541ac94dff4d90af72ea3a5fa39ffc38d30e62855f58c914103b60cc37052b50c0ffbbc86386efd3f1cd34ec83e4955648f7a17f7ede0e8f31b784db702033e46074326ae5bab2ce232fcd95dc1af5dbecc023644f3582851224d75b96fe4dd44c6b42d00779cca96c0130edc05fb352ab1decd367beb1335925a4cfcaac8c8414e23bdbf6a301a4b295e586edba038f9ae7e78dcc033aaaec8025556e22287b3e9ceb67431bc653a2ccb1d2aa326a379c89769ddd99db67244e5bddfc6fcf3100e36915c3b04fd5a99923bb89422963f1b144b296f66c5f44398f0f7b09086da7965c8c23ef90adbfd26dbbd9954937978c324e7a082917eaef305e0a3cdcebb807f928afa41fad729825e1a896b8fb317aefa1ed47065cb71524abfeb1e5b643c8605c970b0a9a608331d148a4508c4c32bc69efbfb1b917bf9585feac0ad37d4ecb1b7e6be46efe88dfd1382869673714b31758b79da2130eac054f308308a24492e710a62f0b8c7f5d88ff91b9a060a182bfb819d040ce68cd922fd0556d5117824491b8a1c930c9adae99f94906f938ca9cb1fc14de0d8d1cd4f3611ccf3cdc0b59aad5e80a7b4607bb34cab543d75d6513140a9f24be0050493647ed8cf034524eb9c3e6624b95cf9cb447f2a5f3842c6cc0c71473f088e0bce90fc99478d418a9405960fbbede8a0f24ff7d90403d4fbe93d10ae91dbb3689c1a10028be0730f2fcb3629fc181f08461230c1790f53a8b9596010d6e511b7deb141ca4493a0f7f07cdabf13e8202c2533b7bc7838bb50ff45f5a0c998e8120843201387f931ee987f041cf721a94d2bd0d8682f3913e71ebbfe317ce73deb3350163f7a4bcbe3956a9da698d7717d46e4626844634260fd4d9f1732c9ef7c7d2f881686c86c1f51609b564db4575ba5cd82d36db7d80a9e00ee67b026e655aaaed611eca32b066d5477879256bf5105c4d5da6aa3c4405307289c4a9fa720c47a3cd18f39caa4e43e6b5d1987927b3b90ea45670a9e7a9e1792b403c614958f2a77ddead88bf9ddb80ff12dab7064d6e30025cd0211eb3afd1345382fa44643fd8d06cb3b02d7d1b5cf8417fe8a00b418cab42ba76f9558ecd3d030227962f90b60fe674fa45defbfd3f4e9956b118a3ee7117a5ba7c384047e20cb261725884dda62e1a6e0431b011d9b4b0c0cfef05e0ba9be357e364bb33db2263d595323465b755bfe232588c7dc17df660047f92ef27f128493fa4a032daefc8b8e54c57f4a5ee65bfc576f5bdd4a7959563b5b011527af9d1c9fc791521fc67fa828e5465c20f1394255a077ba341090659b95839059e7e3907ebf1afb30591f9d4fd242d1c4e9ebe438a233783c905d08445297181a04429e8e616d7e9e52e22e7a7493fd8d1f9b2a490c3b5df9052113918945b02a3a4b5c8eac72dbecf4254e3af80c6304ed57bff69e5a67ec7c6164b1871f84efcc7d6c2963409a06a72a4267db40b7657726130417ef00a28e22afac785e91882e716f927781d97e0e124a04499d650d92ca7327fe1bf0c5da38881696f3944cee698489ed76165239f6a5c8122d8bba6e524ff0b7a18d5b3a3eb2ad4f38e76ea94a1246a061961a3352829485db6ac2fe96f624592be4260ef1cdc700c08880be95eb7f33544a1444060dd2d40bc7a5b88bf6301e24af1ccd564ade0091ae55f96bea9f2d4daed2717bd1ccf5d7c635c33bb32cebddee8550a49a46d021a41801f5777959da74d59a08555fa273f4fa7dca62d60360fca1098b8925d0c9d4e33e9c52c98eeffcbc47c6f27468c0a860e1c6d7e8ee7d113a09197a4ee25908996f60b7a4c324e79a1705e728e31528dee633233d4eb751d0b4eb276ddec3bd1cc28c81f9d7f2b1891b57585e3e6952314528eeffa53d7770dfb16f75a10606b8d74284ca40851fa0566dfec631caed0d9dbc2ebf99fd4eeda1caac31bedbc1c027a127ca78283855652fea598e1ca4fa37c6893e10954d204529c8631372fc1d7a447cf37f0a97e83806209e3d2928b291fc136572803c1bc797cc26e5e7680e542ff18f92e5eed22f67cb85ca53c7b988e4192115d7e5e20db0125bbd0de0b24ee871d5b8cbcb4a44cccde66645cbb504a0e19fec0328a7b3899df1c40f44fcc2c41320a04ffbfb3b93397732c62dece01c45f23c68446c84f0d78b177905ebe0013847fc30f198d33c99c55fffa593c160df024e5cb7f4fe446f74f47e5ee48bdd43e556477c66785283a15e4d9ae4887040e10fde23432aecd92a5e5f2c2dea6b2b053b47c988cc2dd28abf0bffebb856acf202913303d4a3c9f8e61f0f9e9441355668a33c796f442692b044367a9aca0b8b682ec6ac5ced23abcb766b4dfe2e99c105bfa5f8c4075d14262a48516568727e929a9eb7b9bff700020c191b1f213e4049526db5bdd6f4233b3f595c6a7275b8c2c9cfecfc0108283a41424e506061707a8c95aacfeaebecee000000000000000000000000000010202e4201",
        "0045ed332420c2d6bc54f19a55def5bf0e678a9c71104e369744e740a546b6445ef3808c18ee40ac9bd3f1427b061f1681f58a5ce34ef29acd2ca5a1f3b7e29ad6bb4cff5a4ae9a458f41ce8625a1789c8669f64d1a2c22ddee578d19a5e01f43144a9372714796d3c7b105cb3ab720a70809c0c7431f67478956ecde6ba2e87fe9dc4c28def5a0472ad919f3ab01de1b5fd3d1b866aac21099fc38f1080a3d3edc7416dca26bef3d7a20312e80f79a18a43556b33659f1536f19902802e739b92ac881fb052622d4811adababeee7957a6461e5e05d420e1e8e0efc458448560431b9740651ddb133480feaf0980ee97492ee47e52e0a02f5b28eb99ccda3607215d5c951e573ed2b392f9e2ad059b1b524df93db61a096900b278c8b5cbfedc8a5d9eb1a1bd4dc8b3dcb2374bee1547a1b2c858e207ef59c772547cd6d47e299e47628a93f8f0ddd13ab5dbf8ff17cd3adeb953f034d706bee771b738486f4d082482223e0d506fceae3a34ba56fc53344fdd53a5debb946870fd1190a7e41cb0b43ddc974f1bb09d81ae92f559148024daac66108bc4ffe316b5f1564e054fa311ccc3d87e7f42b065a667967787a5915204f740c9a5e97b91b133f98a5fafcf5c29176eb6a6e602b60a1ee21ebd5d65432895059821c7bd83542daa150a5a2acd154c419f9d9c0a979768eaa585103d4fba3beb09386f2db42aebfe8c7954b097d1f4b761d79047b6c28090f7a9ab66ec650b617e4657b8b8feaabc7e9b2128c3d44cc73b4ec067d7cea15870d92a1b5ebbc75d2c39b3ae558d46b2f1ca4fca20ed82fab6a66366229158e3adac176eb38672f75327562542d4718dc2e6e277bfc291835436925c554ab6d99f44ca1af2c0ee03dea961c76a4f467cc0c0f985a3f8f223d67f300d7bcdc8d673bf7cfdf444491a5e4f910a9986fdd4dc56e8eba07b27cfa93ac9b5210a06b44fe885fe917bc4c1c76e4d3e95c4b570acd652969e6a4d7b89d211a6046069fdbfc70ba653f75d3281968d59945ac400cb973b1cea42aee37810360e625c27036ce52bb393e6f456872a67f860b97ae08a5ff61d6760dfb0932588aa3bd95d6d98f301035507dec5ef5e873b9518d72368114c0cfb66d2c1743dcc7f953732759064c0ec10acdd0ca373d7aa86fe622be76b36e34e3bb28b3d177f611847e2593570529307c74673431c714f809fbc0d6dde26906913ffc579f00bb3b0da91a0c9534bc6e7b15a1b1c359225fe73a3e6f50db3283b03dec86fff68ceb1f03d5a068333e89b0715df226d383171127ddcaf1f895af48bc813f6b3934d57de144be3cd9674c853a49285a1746a11908561cc87a79db502dbbf04aa769786d4a5306180ed4527155fa9673b373c9e8974f508c1fb3ab3a95b875f5ad3dfa860b27ebf12e6d96e03b84dfbce02fe069cd21f41a19317a18a27dd2db1be7c1077097f476ada55ab179d91201b142317715df49cd7702407ce40149a4beb7ad4a4a91a82c289ee7bfc6cdf740f9ea7f67c6fd25605b4a5b562724a61cb66f10ddff84cb36764b21893e7d92cc61f1b65e049e18172a159f6c40037e69005197052a64ff23f5f7b735428d13ab70251d053590806af4a929e7d7bd5a26663390a8e75e3ae147233a4abfe84b501c67b1377eb2bfe00e0e08b585177909d27ffc87977e04857e6c55fbe987e0af48edaf85557ee6b0fa9ed4869db309cb702dd74057aa1b64b9f6befca2b5703fbefb7a131507046b584236183f6a4120ee7e0e8c1172f6b156e9aa6b2567f087c31986cd26f1ca3edef7429b4423f1631595b0ff26303835551cd144fd2ff779e135262d46710e0996a2"
      ],
      "sequence": 4294967294
    }
  ],
  "vout": [
    {
      "value": 499966.4423,
      "n": 0,
      "scriptPubKey": {
        "asm": "1 dcd9226548c2643b45026ede8c101f6bda1b6f5b570738bf4747ef2bbab2000e",
        "hex": "5120dcd9226548c2643b45026ede8c101f6bda1b6f5b570738bf4747ef2bbab2000e",
        "reqSigs": 1,
        "type": "witness_v1_scripthash",
        "addresses": [
          "3QJmnh"
        ]
      }
    },
    {
      "value": 1.0,
      "n": 1,
      "scriptPubKey": {
        "asm": "OP_RETURN 52c5577706b4c288c60f09cd83b60b28179a29f21fc19ecb643bc4b293e237d2 02259732ace036b3cf237d326ccc1b7e99ea8b1e5c12a1ee7c8f96a4df32c8df2205b7128cc01693ef035d124cec3b5eb9caab3e7c3281ce5cafb684ff12e8ff4265d772eca076f38f633d722c8c5b3ed9aacb5e1c52e1ae3ccfd6e49f72889f6245f752cc8056d3af431d520cac7b1ef98aeb7e3c72c18e1ceff6c4bf52a8bf82a517b22c60b6334fa3fdb2ec4c9bfe196a0b9edc92216efc0f16245fb2485fa28537920c4096136f83dd92cc6cbbde394a2bbefcb2014edc2f36047f92687fc2e557f26c20f6730fe3bdf2ac0cdbbe592a4bde9cd2612ebc4f56641ff2081fe2c577d24c00d6532fc39dd28c2cfb9e790a6bfebcf2410e9c6f76443fd2283f02259732ace036b3cf237d326ccc1b7e99ea8b1e5c12a1ee7c8f96a4df32c8df2205b7128cc01693ef035d124cec3b5eb9caab3e7c3281ce5cafb684ff12e8ff4265d772eca076f38f633d722c8c5b3ed9aacb5e1c52e1ae3ccfd6e49f72889f6245f752cc8056d3af431d520cac7b1ef98aeb7e3c72c18e1ceff6c4bf52a8bf82a517b22c60b6334fa3fdb2ec4c9bfe196a0b9edc92216efc0f16245fb2485fa28537920c4096136f83dd92cc6cbbde394a2bbefcb2014edc2f36047f92687fc2e557f26c20f6730fe3bdf2ac0cdbbe592a4bde9cd2612ebc4f56641ff2081fe2c577d24c00d6532fc39dd28c2cfb9e790a6bfebcf2410e9c6f76443fd2283f02259732ace036b3cf237d326ccc1b7e99ea8b1e5c12a1ee7c8f96a4df32c8df2205b7128cc01693ef035d124cec3b5eb9caab3e7c3281ce5cafb684ff12e8ff4265d772eca076f38f633d722c8c5b3ed9aacb5e1c52e1ae3ccfd6e49f72889f6245f752cc8056d3af431d520cac7b1ef98aeb7e3c72c18e1ceff6c4bf52a8bf82a517b22c60b6334fa3fdb2ec4c9bfe196a0b9edc92216efc0f16245fb2485fa28537920c4096136f83dd92cc6cbbde394a2bbefcb2014edc2f36047f92687fc2e557f26c20f6730fe3bdf2ac0cdbbe592a4bde9cd2612ebc4f56641ff2081fe2c577d24c00d6532fc39dd28c2cfb9e790a6bfebcf2410e9c6f76443fd2283f02259732ace036b3cf237d326ccc1b7e99ea8b1e5c12a1ee7c8f96a4df32c8df2205b7128cc01693ef035d124cec3b5eb9caab3e7c3281ce5cafb684ff12e8ff4265d772eca076f38f633d722c8c5b3ed9aacb5e1c52e1ae3ccfd6e49f72889f6245f752cc8056d3af431d520cac7b1ef98aeb7e3c72c18e1ceff6c4bf52a8bf82a517b22c60b6334fa3fdb2ec4c9bfe196a0b9edc92216efc0f16245fb2485fa28537920c4096136f83dd92cc6cbbde394a2bbefcb2014edc2f36047f92687fc2e557f26c20f6730fe3bdf2ac0cdbbe592a4bde9cd2612ebc4f56641ff2081fe2c577d24c00d6532fc39dd28c2cfb9e790a6bfebcf2410e9c6f76443fd2283f02259732ace036b3cf237d326ccc1b7e99ea8b1e5c12a1ee7c8f96a4df32c8df2205b7128cc01693ef035d124cec3b5eb9caab3e7c3281ce5cafb684ff12e8ff4265d772eca076f38f633d722c8c5b3ed9aacb5e1c52e1ae3ccfd6e49f72889f6245f752cc8056d3af431d520cac7b1ef98aeb7e3c72c18e1ceff6c4bf52a8bf82a517b22c60b6334fa3fdb2ec4c9bfeb0cc4c84e7441f212fa35806fcc3cc153d67a2209deaefb8e324d0040fb76f8c",
        "hex": "6a2052c5577706b4c288c60f09cd83b60b28179a29f21fc19ecb643bc4b293e237d24db00402259732ace036b3cf237d326ccc1b7e99ea8b1e5c12a1ee7c8f96a4df32c8df2205b7128cc01693ef035d124cec3b5eb9caab3e7c3281ce5cafb684ff12e8ff4265d772eca076f38f633d722c8c5b3ed9aacb5e1c52e1ae3ccfd6e49f72889f6245f752cc8056d3af431d520cac7b1ef98aeb7e3c72c18e1ceff6c4bf52a8bf82a517b22c60b6334fa3fdb2ec4c9bfe196a0b9edc92216efc0f16245fb2485fa28537920c4096136f83dd92cc6cbbde394a2bbefcb2014edc2f36047f92687fc2e557f26c20f6730fe3bdf2ac0cdbbe592a4bde9cd2612ebc4f56641ff2081fe2c577d24c00d6532fc39dd28c2cfb9e790a6bfebcf2410e9c6f76443fd2283f02259732ace036b3cf237d326ccc1b7e99ea8b1e5c12a1ee7c8f96a4df32c8df2205b7128cc01693ef035d124cec3b5eb9caab3e7c3281ce5cafb684ff12e8ff4265d772eca076f38f633d722c8c5b3ed9aacb5e1c52e1ae3ccfd6e49f72889f6245f752cc8056d3af431d520cac7b1ef98aeb7e3c72c18e1ceff6c4bf52a8bf82a517b22c60b6334fa3fdb2ec4c9bfe196a0b9edc92216efc0f16245fb2485fa28537920c4096136f83dd92cc6cbbde394a2bbefcb2014edc2f36047f92687fc2e557f26c20f6730fe3bdf2ac0cdbbe592a4bde9cd2612ebc4f56641ff2081fe2c577d24c00d6532fc39dd28c2cfb9e790a6bfebcf2410e9c6f76443fd2283f02259732ace036b3cf237d326ccc1b7e99ea8b1e5c12a1ee7c8f96a4df32c8df2205b7128cc01693ef035d124cec3b5eb9caab3e7c3281ce5cafb684ff12e8ff4265d772eca076f38f633d722c8c5b3ed9aacb5e1c52e1ae3ccfd6e49f72889f6245f752cc8056d3af431d520cac7b1ef98aeb7e3c72c18e1ceff6c4bf52a8bf82a517b22c60b6334fa3fdb2ec4c9bfe196a0b9edc92216efc0f16245fb2485fa28537920c4096136f83dd92cc6cbbde394a2bbefcb2014edc2f36047f92687fc2e557f26c20f6730fe3bdf2ac0cdbbe592a4bde9cd2612ebc4f56641ff2081fe2c577d24c00d6532fc39dd28c2cfb9e790a6bfebcf2410e9c6f76443fd2283f02259732ace036b3cf237d326ccc1b7e99ea8b1e5c12a1ee7c8f96a4df32c8df2205b7128cc01693ef035d124cec3b5eb9caab3e7c3281ce5cafb684ff12e8ff4265d772eca076f38f633d722c8c5b3ed9aacb5e1c52e1ae3ccfd6e49f72889f6245f752cc8056d3af431d520cac7b1ef98aeb7e3c72c18e1ceff6c4bf52a8bf82a517b22c60b6334fa3fdb2ec4c9bfe196a0b9edc92216efc0f16245fb2485fa28537920c4096136f83dd92cc6cbbde394a2bbefcb2014edc2f36047f92687fc2e557f26c20f6730fe3bdf2ac0cdbbe592a4bde9cd2612ebc4f56641ff2081fe2c577d24c00d6532fc39dd28c2cfb9e790a6bfebcf2410e9c6f76443fd2283f02259732ace036b3cf237d326ccc1b7e99ea8b1e5c12a1ee7c8f96a4df32c8df2205b7128cc01693ef035d124cec3b5eb9caab3e7c3281ce5cafb684ff12e8ff4265d772eca076f38f633d722c8c5b3ed9aacb5e1c52e1ae3ccfd6e49f72889f6245f752cc8056d3af431d520cac7b1ef98aeb7e3c72c18e1ceff6c4bf52a8bf82a517b22c60b6334fa3fdb2ec4c9bfeb0cc4c84e7441f212fa35806fcc3cc153d67a2209deaefb8e324d0040fb76f8c",
        "type": "nulldata"
      }
    }
  ],
  "blockhash": "3357cb4dc001b5acbac31fcce3a77df76b11eaba9a4d126a2528d529fe11213e",
  "confirmations": 1,
  "time": 1764182290,
  "blocktime": 1764182290
}