{
  "hex": "01000000000101c6cae41066bf072ad433144819473eec5c551e454efd8df0f098bea2a5c1a9d20000000000feffffff0200e1f50500000000fdd5046a20b8d23fbec6b9f67d8dcf103379df81e2d22d35fea7c2ea246e6f1fceb98e298a4db0040e7883fac2f62cf15ac1daf2901c4167492c96aec58381de917412d76519b0602e58a3dae2d60cd17ae1fad2b03c6147690cb68ee5a3a1feb15432f7453990404e38c3ba82b66cb11a819ab2d05c0127096cd6ee85c3c19ed13452972559f0206e18e39aa2964c913aa1ba92f07c2107294cf6cea5e3e1bef11472b70579d0008ef8037a4276ac71da415a72109cc1e7c9ac162e4503015e11f49257e59930e0aed8235a62568c51fa617a5230bce1c7e98c360e6523217e31d4b277c5b910c0ceb8433a0236ec319a011a3250dc81a789ec566e0543411e51b4d217a5d970a0ee98631a2216cc11ba213a1270fca187a9cc764e2563613e7194f23785f950800e7883fac2f62cf15ac1daf2901c4167492c96aec58381de917412d76519b0602e58a3dae2d60cd17ae1fad2b03c6147690cb68ee5a3a1feb15432f7453990404e38c3ba82b66cb11a819ab2d05c0127096cd6ee85c3c19ed13452972559f0206e18e39aa2964c913aa1ba92f07c2107294cf6cea5e3e1bef11472b70579d0008ef8037a4276ac71da415a72109cc1e7c9ac162e4503015e11f49257e59930e0aed8235a62568c51fa617a5230bce1c7e98c360e6523217e31d4b277c5b910c0ceb8433a0236ec319a011a3250dc81a789ec566e0543411e51b4d217a5d970a0ee98631a2216cc11ba213a1270fca187a9cc764e2563613e7194f23785f950800e7883fac2f62cf15ac1daf2901c4167492c96aec58381de917412d76519b0602e58a3dae2d60cd17ae1fad2b03c6147690cb68ee5a3a1feb15432f7453990404e38c3ba82b66cb11a819ab2d05c0127096cd6ee85c3c19ed13452972559f0206e18e39aa2964c913aa1ba92f07c2107294cf6cea5e3e1bef11472b70579d0008ef8037a4276ac71da415a72109cc1e7c9ac162e4503015e11f49257e59930e0aed8235a62568c51fa617a5230bce1c7e98c360e6523217e31d4b277c5b910c0ceb8433a0236ec319a011a3250dc81a789ec566e0543411e51b4d217a5d970a0ee98631a2216cc11ba213a1270fca187a9cc764e2563613e7194f23785f950800e7883fac2f62cf15ac1daf2901c4167492c96aec58381de917412d76519b0602e58a3dae2d60cd17ae1fad2b03c6147690cb68ee5a3a1feb15432f7453990404e38c3ba82b66cb11a819ab2d05c0127096cd6ee85c3c19ed13452972559f0206e18e39aa2964c913aa1ba92f07c2107294cf6cea5e3e1bef11472b70579d0008ef8037a4276ac71da415a72109cc1e7c9ac162e4503015e11f49257e59930e0aed8235a62568c51fa617a5230bce1c7e98c360e6523217e31d4b277c5b910c0ceb8433a0236ec319a011a3250dc81a789ec566e0543411e51b4d217a5d970a0ee98631a2216cc11ba213a1270fca187a9cc764e2563613e7194f23785f950800e7883fac2f62cf15ac1daf2901c4167492c96aec58381de917412d76519b0602e58a3dae2d60cd17ae1fad2b03c6147690cb68ee5a3a1feb15432f7453990404e38c3ba82b66cb11a819ab2d05c0127096cd6ee85c3c19ed13452972559f0206e18e39aa2964c913aa1ba92f07c2107294cf6cea5e3e1bef11472b70579d0008ef8037a4276ac71da415a72109cc1e70f0f1d15607fb786c54e6773cd3e6a500e43127f387e38a7cc597e45b2b30ff5907857cc782d0000225120873fef9c10c21e8989417570cdd40f089ca8fe821d9a0fc5d74975ac27e81e6d02fd750965392be0eb87972962a6ea79508912d6410604190aaa8666d367dd9ef76d8c1e65b99e2d354e9cbb669b509543b15444f84c3f4366f13bbdf92359357285e1ddfd914ca3dc2a897236972fc7f60ccd521664f885841a6d07170d60bc5c6c7014563214efd7384f7ed93661b4976bd8dd2bb44a208dd75285ae8343093893d0515967bd7d1efb23bddd9926abb7554c8b6f9c623ccc2c151f9ac35219718f8fdbf387a2c70bc3a404398c1cd9a3b48939fea92b5843f5f935e2ae22dd4bd9abc19565413fb424974b6ceaaa8615503b4de5cafac6cf97fdc2a58ad3fd6c7a2d0363120f095c4b4bc02e1ec34bdaa5ecbdc8ad11db7f8c49f59382910e7ab9dffb1f78435c9f75425875b713a8b985d592bdaa5295acb30559f26314c6fbbbcc92d195ee4d804f1cfd2c40b0109b3735caa62a804e626507949e0408ca66d19c74404f8cc9ecd5ed2c40cc2ed5c43700713c7d9055dc0a4717f2235ba9ddce8b9d98c78c61fa898ddc56315388c7e1851d152e1510c30196ddcf63b03bf32bf0515770de08c5ccbc0f9a7e3dc03b132e68f3bb3e2e3874778b1d03a13bf842149a85fd731ea3fb85d7165ebc67e231b119d4f9fb5da7d343dec5a6c4074e770406f7a13d1f2b1482c0605278eda0077744194ac2741c9488d0138bb24450122c438ad0720359655c52bfae4b470cd3957a97e79a2c3c050955d64ceb4388415f5b0698963d1438774ad5a1b3d885e4f54a86547131f87b44af679dbbc77ec4af190cc4ce7795eaa98bd385c3760f9276dda17ddd725645aa44628b9f3f64b9fc51d0bd27741cea57187ef3a75acd2eb58d1892ce36f41b7d753bb3ae9c02427907a1d0348226596ae99b006065db4e1d71b5e2e3e3a5529b2cf478b8d1383e562b7c3d96792a2be42467a6d906ebe5e1495e1145534865dd353eff76b3e207144b7ed69fff6c052c206b044287a693e8ac5815594abbf38c4bd32835e34419e82e9827ef8187237726d408cb334567e09a37a2efa999f555cb8c29c1a57bf2536165f92396f9b8526e4f2ccd784fc6a15e74d7cbe13dbfb52a097441eb2ff978f9e6dbf979bc72c3de5c4544622e702ff064713c7767294d2c250bbcbbb02b995cba7c6a117b8dbda47ecd3b57d932c20522dc45047bd5b3533ab745169420134beccef4ae9043abbbeac00ee0f91336ee910d2a0b15a2005b8fd36dd6a36490c1f82e952dca445c5736e92009ca74523cd4ad76785a0fe2feb0696c96c294764b76c08223c77da277deeebcfeaba1534f41fefe07d7b9760255d09556f602ec4b4d895192215c8762df76cec60389c73e68ed1900927b90acc85d17c05fbb2d22436fbfb378a542cca7ef6a2341c906e71149fcfaf1b9ff2b2c0b32c82828bf41d16226849b2f3a6f4977ca9e8ecf43a89ca49310c43194dd4023ccb32111aa7d32d00e0acec1fee22835c87f5216f47d6b5b8699068b2ff28d56e0ee2a963a16c49b01a8c8f13fa1197fcaf4b089df940bd1c13143e08b12930e856e709c5af53e2fab390ba0d3ba2d202872a79ecdb05dcaea9b3049e83495df93b926e8c6435fc0d7c888b0818baccaae80478d9ad838999df57e67ff1c50dd2abd96f99148e70924c5650f83ef62a476ea3cf4dbac9f63156eb646c03ca0565d3cd52a2cb7b12845843922675a97746988a5b77daadbe6182d4c13fa5fe9a0cef654173fa1f01f576a4cab249e9621105872cc8353b1162f593bceaae63e2555fefd5f944b0f51da77503e25ce53fa49c93c698a95def11a2553baa8f24141edc9198391ba6d77ffb9a2342085a3264bc06268d9b05e1491f41e71f123d61ecda3049331459d91c9e868744bd3dba2ef174083417a47a20751c4c1a0584bb46c1371f53211e803d7bbe20156b8c5aed442822d5ff64128c5f90106cb7467b23f768f4f922e9e2ea758d09fa8cc2d5c881b35e957c8f625b06c29bf73a0a2eadcd6a96b68a701cc78e34aaca8641b54bcdc8d32a2510e773b3b633af23e8fa6a38124a21227ae45620a869b0e4aaeedbc66906ff2c980b54cb173fce7fb9ed1395994c380bcef183477e21dd96160920c839b681176b74874f2d7cce5f2ef358b7c880439d35b1488470acb2d00e73efafcd2f20add6587ea70f21fe05b881ef39b6b95311208803511c7ed866c40135390a70090d0f2e3727c16e8e98359873df1602eeca7735002dba58bef13800c94f1157fc36c65b8ee15ec1085a6e3855366db62bb4c89b5e1cfc0ccce686f4c7da30f9a8a40c0f77db49276d031e4b759b9d8dec82d93534902132bb61db7f40832cd6d3dd6c218488da34a8665b49f3dc0368d3c2499ce37449c8c8abde324a9c9df29bd6daa78a0c07862fce99cd05153fcdcd8afa785a8e420de6d172f1cc6d7aa19de696741876d4f9576d08f706ddbb5d22e3d080da905246e7b16b577999634efcfd354b00c9f9de368c35048a2765df9007630c482114cd44b79ff79aed609ea24974de608a6f9ca5b29095ee6357bb6971016719fd8be3932d7d14e222280f4b3a60b3ea669b6bd08a37fcb73ccb009eb48fd94f4bf44fa9f8d31b20697dc90493c7a260909b34b70a24543621929552d0d3698691e6831fdec25f2b86064101a98f5f41a5b6f255ea81fbb74ae236577018c17615093c4d6e3a6a0551e9280a6931bca66981bd9ada27b941cd4486997ec064a3d18b3a452f5f0d47525f0450987818013780028f67711f4365db85a469e84723512feae947e542a8d315bde822c93da077d3a1b57ddd92228f66f14e74db93ef21e28ff3ba7d09c1013dab75d3a7a18d66b00a573f25c0ece8c03b05e784223e8bcf467fca90bc81ec7b046054fbeb53e60fa23329784604c83a044f57fd8bd56af5c980508d564ec936ffdc2a1d9e23b2f2ea9e6b025772e9e8e9c9f3a1814064b7bbf6b798ac1dda14e324d444d31590ea583cb0b43d790b6cc9b7cab6971f2f1e8362418d33ebe2b3199d6e9e1d565b5a9b5b6f949fae0422209a74c028607fe4ffd8b5b7ac4b6c3dddac1e03154fceae6927a06ae8349dcf67a57030182547e8c09c9ff906070d1a27709304cede2f9fb94100c89295e4f7ccf482ebe8b1d05afbb1d4fbabcb3cf16e9effdb2d1bd7f74f6fecdbb6ee029bef9d4aaeb0e3dc4854b0b0cc6af15c008cd9f378d71703fe7ed4fc118838abb11fe38f5f3b2df83f6cf423997bf3d115f88d12ab9a2c2e193e937b6309e43278d415e9e5d6b63a4d920b6f627a7201842c5b979a21e7e6b3e8a4a556643943d3e03db2617273134353b3e4165696f767779838a8ea9d3d7ee021b3c4957707697989ca2bfcbcecfd8d9dff90f1b3ba3a5c0cadae0e6f0f5032627555b6274778c9ab4b6bec6e3ea0000000000000000000000001528344401fd21050071732cc6458fc92f2f6c0b466670be3c46ac33f5b9a7b84b2f0b76da0a5c47148d8f629451e7b179577f0ae1f50f050a66e5e10949787740cc47e02639774b575b946c50d46592468b1155ed74e7e65556f9373fd372df93a1a97151586251140190bb2b4f53e407503c6415ae236920f56bd89362095a3fa5e2e1d32e77fbb3a113bfd7867f922b4e5e7636c2d76566374c2216ee0ba7a193a13cf361e9cb550fe556c3eaf45e1340f3878d175eab9c74588c9faf3040ff8af22da248e758c4cd79036aa9e7f607432b6ddcc954e127822d102a31d95183cbc423d2f0e512dd5a89352bb9f81b4330f9cd3eccced0e432833c7bcd1ca1bcff79a7a3fdace35403ad48122089ca4f83bdc013af72a9b9a37b50af081697540ddd93447ba36a4ac1a4820e7637168dd1a318f1a805fc27dc6aac8385251551acd4bbe1b16b2a05cc109440086fbb0d23fad9b2280416f480b4b35862c8cda6a2d70479260daedb7aaf73d9cc686cab62631f30970c6753cb0fb6ce6503c4c007036504c42c6746c92ad9cf4d6861048df2ba610bb4308b86b7d30d821ff7ea0588372c7e4dcea6fd950eaafaffc26ccb9b0b247b3fc2c7e09f5f404264e6e755462aadcfbc55c122ff67a4290becf17c15bca69955c47132a727f6a3e9ab5e53edead13f98dfdb56de7d6ebb574eadb4ec474fe0acfc0a1d2ce6eb6195a281a7f5e8929fd81e39d6452572c6fd92ad17cf97dac246165dc48a4dd65e7526ac697f97e1bf662f1b0fe160869e6a3ebdcfbdf6626b4f8cbbb3ff45bcdbe80345d162e7fe254dc8f1b263093923c296a7874345fa8fafad6da8f41f8db3e2b2d3d263b1201320736258b896e7b518dd289be4bd7c9a43ad9cd6dc142f21789408031b63b449224067a99d8e5d1926f30967bf86fe2a9ed75416a259dd5d23df45155cf02f8a6f3b05642feb8ed92200010443b76e2cdeabc4effb59ccd84e69c8cd6729b51fc830c71c878c6776ae9869d0a89a4eda1a9a5536208dfafc833ae776ca8f1f7755ef13efdcf006fa2fd21786370ecca3e0f7909b1c7dcae8c916f24a1ce97d3f629effe6419c4e85d7c25293d61315c5b1c0237c9c7ed8e026335948ce48d26c8c6a802636f5592e9af85d03746983282e618548bdf6d2095312e1518b627d7693f3afa012dac1578f92b9be30a99ebba53d2d77794e687c0c2f8b67bcbe7eb310de4258d5d438394c7755afe9f84ad9b77a23a46f5f6363a30fbbc6e8c797bd1e83980790dceada081c5f307e404cf0ad10d4c0fa6e3bf7ccdb536b6af06f959faa866aa879945939382bcc117f9784b70cf78204f77813a7ef1aa127f89427105820fa629b705232bb9538941305b10016b88cfd499934294252f9e9998c76da64a0027dd38512e13732c2ca94213531fc19e579aa075e99cbc01beee42ecf70302a055990a472c17f85ff04e277e59299db355051b9bc3d6aea53c7c26bed12c4062fbcf6583665a58b2bbeec944379b0fe2760d3ff77bfbe104a14b21ecc21ef999bc1ba77cf4d8ba945778eb15d28e2cc89b9152fd6af39de3a157ad80cb652d739cd2c8ce947d36826dbe6730dff4106ca45a9c19aba99a26239bcb0c00952851c7e17126ce7cf67dc9633234f35c0f2a205fbeb99cd8674853ce55fd5d85dadb25e1c64f81c541c220331fa34ac26e286b827d99e7773daaf32a1494e3332f3d5c06835adf6576b504aa93d6103e923d5004adb3554994d132d286e5755af2bd3746e10983b122f108d427b21762e80ce7c14f352a9926dd302930fd929ac7e34a98628aa5ab1a7509fa209af2f76026511a0d12aebec74904cccf125bd1e517e000000",
  "txid": "7bb505200f3bf02f07329d7e26e88bac702946664ed86d1ed63247a50edea9fe",
  "hash": "c900989020af0a51d20b3af417343fce233fe040d76149ac65b5328c6607211e",
  "size": 5085,
  "vsize": 2278,
  "version": 1,
  "locktime": 126,
  "vin": [
    {
      "txid": "d2a9c1a5a2be98f0f08dfd4e451e555cec3e4719481433d42a07bf6610e4cac6",
      "vout": 0,
      "scriptSig": {
        "asm": "",
        "hex": ""
      },
      "txinwitness": [
        "65392be0eb87972962a6ea79508912d6410604190aaa8666d367dd9ef76d8c1e65b99e2d354e9cbb669b509543b15444f84c3f4366f13bbdf92359357285e1ddfd914ca3dc2a897236972fc7f60ccd521664f885841a6d07170d60bc5c6c7014563214efd7384f7ed93661b4976bd8dd2bb44a208dd75285ae8343093893d0515967bd7d1efb23bddd9926abb7554c8b6f9c623ccc2c151f9ac35219718f8fdbf387a2c70bc3a404398c1cd9a3b48939fea92b5843f5f935e2ae22dd4bd9abc19565413fb424974b6ceaaa8615503b4de5cafac6cf97fdc2a58ad3fd6c7a2d0363120f095c4b4bc02e1ec34bdaa5ecbdc8ad11db7f8c49f59382910e7ab9dffb1f78435c9f75425875b713a8b985d592bdaa5295acb30559f26314c6fbbbcc92d195ee4d804f1cfd2c40b0109b3735caa62a804e626507949e0408ca66d19c74404f8cc9ecd5ed2c40cc2ed5c43700713c7d9055dc0a4717f2235ba9ddce8b9d98c78c61fa898ddc56315388c7e1851d152e1510c30196ddcf63b03bf32bf0515770de08c5ccbc0f9a7e3dc03b132e68f3bb3e2e3874778b1d03a13bf842149a85fd731ea3fb85d7165ebc67e231b119d4f9fb5da7d343dec5a6c4074e770406f7a13d1f2b1482c0605278eda0077744194ac2741c9488d0138bb24450122c438ad0720359655c52bfae4b470cd3957a97e79a2c3c050955d64ceb4388415f5b0698963d1438774ad5a1b3d885e4f54a86547131f87b44af679dbbc77ec4af190cc4ce7795eaa98bd385c3760f9276dda17ddd725645aa44628b9f3f64b9fc51d0bd27741cea57187ef3a75acd2eb58d1892ce36f41b7d753bb3ae9c02427907a1d0348226596ae99b006065db4e1d71b5e2e3e3a5529b2cf478b8d1383e562b7c3d96792a2be42467a6d906ebe5e1495e1145534865dd353eff76b3e207144b7ed69fff6c052c206b044287a693e8ac5815594abbf38c4bd32835e34419e82e9827ef8187237726d408cb334567e09a37a2efa999f555cb8c29c1a57bf2536165f92396f9b8526e4f2ccd784fc6a15e74d7cbe13dbfb52a097441eb2ff978f9e6dbf979bc72c3de5c4544622e702ff064713c7767294d2c250bbcbbb02b995cba7c6a117b8dbda47ecd3b57d932c20522dc45047bd5b3533ab745169420134beccef4ae9043abbbeac00ee0f91336ee910d2a0b15a2005b8fd36dd6a36490c1f82e952dca445c5736e92009ca74523cd4ad76785a0fe2feb0696c96c294764b76c08223c77da277deeebcfeaba1534f41fefe07d7b9760255d09556f602ec4b4d895192215c8762df76cec60389c73e68ed1900927b90acc85d17c05fbb2d22436fbfb378a542cca7ef6a2341c906e71149fcfaf1b9ff2b2c0b32c82828bf41d16226849b2f3a6f4977ca9e8ecf43a89ca49310c43194dd4023ccb32111aa7d32d00e0acec1fee22835c87f5216f47d6b5b8699068b2ff28d56e0ee2a963a16c49b01a8c8f13fa1197fcaf4b089df940bd1c13143e08b12930e856e709c5af53e2fab390ba0d3ba2d202872a79ecdb05dcaea9b3049e83495df93b926e8c6435fc0d7c888b0818baccaae80478d9ad838999df57e67ff1c50dd2abd96f99148e70924c5650f83ef62a476ea3cf4dbac9f63156eb646c03ca0565d3cd52a2cb7b12845843922675a97746988a5b77daadbe6182d4c13fa5fe9a0cef654173fa1f01f576a4cab249e9621105872cc8353b1162f593bceaae63e2555fefd5f944b0f51da77503e25ce53fa49c93c698a95def11a2553baa8f24141edc9198391ba6d77ffb9a2342085a3264bc06268d9b05e1491f41e71f123d61ecda3049331459d91c9e868744bd3dba2ef174083417a47a20751c4c1a0584bb46c1371f53211e803d7bbe20156b8c5aed442822d5ff64128c5f90106cb7467b23f768f4f922e9e2ea758d09fa8cc2d5c881b35e957c8f625b06c29bf73a0a2eadcd6a96b68a701cc78e34aaca8641b54bcdc8d32a2510e773b3b633af23e8fa6a38124a21227ae45620a869b0e4aaeedbc66906ff2c980b54cb173fce7fb9ed1395994c380bcef183477e21dd96160920c839b681176b74874f2d7cce5f2ef358b7c880439d35b1488470acb2d00e73efafcd2f20add6587ea70f21fe05b881ef39b6b95311208803511c7ed866c40135390a70090d0f2e3727c16e8e98359873df1602eeca7735002dba58bef13800c94f1157fc36c65b8ee15ec1085a6e3855366db62bb4c89b5e1cfc0ccce686f4c7da30f9a8a40c0f77db49276d031e4b759b9d8dec82d93534902132bb61db7f40832cd6d3dd6c218488da34a8665b49f3dc0368d3c2499ce37449c8c8abde324a9c9df29bd6daa78a0c07862fce99cd05153fcdcd8afa785a8e420de6d172f1cc6d7aa19de696741876d4f9576d08f706ddbb5d22e3d080da905246e7b16b577999634efcfd354b00c9f9de368c35048a2765df9007630c482114cd44b79ff79aed609ea24974de608a6f9ca5b29095ee6357bb6971016719fd8be3932d7d14e222280f4b3a60b3ea669b6bd08a37fcb73ccb009eb48fd94f4bf44fa9f8d31b20697dc90493c7a260909b34b70a24543621929552d0d3698691e6831fdec25f2b86064101a98f5f41a5b6f255ea81fbb74ae236577018c17615093c4d6e3a6a0551e9280a6931bca66981bd9ada27b941cd4486997ec064a3d18b3a452f5f0d47525f0450987818013780028f67711f4365db85a469e84723512feae947e542a8d315bde822c93da077d3a1b57ddd92228f66f14e74db93ef21e28ff3ba7d09c1013dab75d3a7a18d66b00a573f25c0ece8c03b05e784223e8bcf467fca90bc81ec7b046054fbeb53e60fa23329784604c83a044f57fd8bd56af5c980508d564ec936ffdc2a1d9e23b2f2ea9e6b025772e9e8e9c9f3a1814064b7bbf6b798ac1dda14e324d444d31590ea583cb0b43d790b6cc9b7cab6971f2f1e8362418d33ebe2b3199d6e9e1d565b5a9b5b6f949fae0422209a74c028607fe4ffd8b5b7ac4b6c3dddac1e03154fceae6927a06ae8349dcf67a57030182547e8c09c9ff906070d1a27709304cede2f9fb94100c89295e4f7ccf482ebe8b1d05afbb1d4fbabcb3cf16e9effdb2d1bd7f74f6fecdbb6ee029bef9d4aaeb0e3dc4854b0b0cc6af15c008cd9f378d71703fe7ed4fc118838abb11fe38f5f3b2df83f6cf423997bf3d115f88d12ab9a2c2e193e937b6309e43278d415e9e5d6b63a4d920b6f627a7201842c5b979a21e7e6b3e8a4a556643943d3e03db2617273134353b3e4165696f767779838a8ea9d3d7ee021b3c4957707697989ca2bfcbcecfd8d9dff90f1b3ba3a5c0cadae0e6f0f5032627555b6274778c9ab4b6bec6e3ea0000000000000000000000001528344401",
        "0071732cc6458fc92f2f6c0b466670be3c46ac33f5b9a7b84b2f0b76da0a5c47148d8f629451e7b179577f0ae1f50f050a66e5e10949787740cc47e02639774b575b946c50d46592468b1155ed74e7e65556f9373fd372df93a1a97151586251140190bb2b4f53e407503c6415ae236920f56bd89362095a3fa5e2e1d32e77fbb3a113bfd7867f922b4e5e7636c2d76566374c2216ee0ba7a193a13cf361e9cb550fe556c3eaf45e1340f3878d175eab9c74588c9faf3040ff8af22da248e758c4cd79036aa9e7f607432b6ddcc954e127822d102a31d95183cbc423d2f0e512dd5a89352bb9f81b4330f9cd3eccced0e432833c7bcd1ca1bcff79a7a3fdace35403ad48122089ca4f83bdc013af72a9b9a37b50af081697540ddd93447ba36a4ac1a4820e7637168dd1a318f1a805fc27dc6aac8385251551acd4bbe1b16b2a05cc109440086fbb0d23fad9b2280416f480b4b35862c8cda6a2d70479260daedb7aaf73d9cc686cab62631f30970c6753cb0fb6ce6503c4c007036504c42c6746c92ad9cf4d6861048df2ba610bb4308b86b7d30d821ff7ea0588372c7e4dcea6fd950eaafaffc26ccb9b0b247b3fc2c7e09f5f404264e6e755462aadcfbc55c122ff67a4290becf17c15bca69955c47132a727f6a3e9ab5e53edead13f98dfdb56de7d6ebb574eadb4ec474fe0acfc0a1d2ce6eb6195a281a7f5e8929fd81e39d6452572c6fd92ad17cf97dac246165dc48a4dd65e7526ac697f97e1bf662f1b0fe160869e6a3ebdcfbdf6626b4f8cbbb3ff45bcdbe80345d162e7fe254dc8f1b263093923c296a7874345fa8fafad6da8f41f8db3e2b2d3d263b1201320736258b896e7b518dd289be4bd7c9a43ad9cd6dc142f21789408031b63b449224067a99d8e5d1926f30967bf86fe2a9ed75416a259dd5d23df45155cf02f8a6f3b05642feb8ed92200010443b76e2cdeabc4effb59ccd84e69c8cd6729b51fc830c71c878c6776ae9869d0a89a4eda1a9a5536208dfafc833ae776ca8f1f7755ef13efdcf006fa2fd21786370ecca3e0f7909b1c7dcae8c916f24a1ce97d3f629effe6419c4e85d7c25293d61315c5b1c0237c9c7ed8e026335948ce48d26c8c6a802636f5592e9af85d03746983282e618548bdf6d2095312e1518b627d7693f3afa012dac1578f92b9be30a99ebba53d2d77794e687c0c2f8b67bcbe7eb310de4258d5d438394c7755afe9f84ad9b77a23a46f5f6363a30fbbc6e8c797bd1e83980790dceada081c5f307e404cf0ad10d4c0fa6e3bf7ccdb536b6af06f959faa866aa879945939382bcc117f9784b70cf78204f77813a7ef1aa127f89427105820fa629b705232bb9538941305b10016b88cfd499934294252f9e9998c76da64a0027dd38512e13732c2ca94213531fc19e579aa075e99cbc01beee42ecf70302a055990a472c17f85ff04e277e59299db355051b9bc3d6aea53c7c26bed12c4062fbcf6583665a58b2bbeec944379b0fe2760d3ff77bfbe104a14b21ecc21ef999bc1ba77cf4d8ba945778eb15d28e2cc89b9152fd6af39de3a157ad80cb652d739cd2c8ce947d36826dbe6730dff4106ca45a9c19aba99a26239bcb0c00952851c7e17126ce7cf67dc9633234f35c0f2a205fbeb99cd8674853ce55fd5d85dadb25e1c64f81c541c220331fa34ac26e286b827d99e7773daaf32a1494e3332f3d5c06835adf6576b504aa93d6103e923d5004adb3554994d132d286e5755af2bd3746e10983b122f108d427b21762e80ce7c14f352a9926dd302930fd929ac7e34a98628aa5ab1a7509fa209af2f76026511a0d12aebec74904cccf125bd1e51"
      ],
      "sequence": 4294967294
    }
  ],
  "vout": [
    {
      "value": 1.0,
      "n": 0,
      "scriptPubKey": {
        "asm": "OP_RETURN b8d23fbec6b9f67d8dcf103379df81e2d22d35fea7c2ea246e6f1fceb98e298a 0e7883fac2f62cf15ac1daf2901c4167492c96aec58381de917412d76519b0602e58a3dae2d60cd17ae1fad2b03c6147690cb68ee5a3a1feb15432f7453990404e38c3ba82b66cb11a819ab2d05c0127096cd6ee85c3c19ed13452972559f0206e18e39aa2964c913aa1ba92f07c2107294cf6cea5e3e1bef11472b70579d0008ef8037a4276ac71da415a72109cc1e7c9ac162e4503015e11f49257e59930e0aed8235a62568c51fa617a5230bce1c7e98c360e6523217e31d4b277c5b910c0ceb8433a0236ec319a011a3250dc81a789ec566e0543411e51b4d217a5d970a0ee98631a2216cc11ba213a1270fca187a9cc764e2563613e7194f23785f950800e7883fac2f62cf15ac1daf2901c4167492c96aec58381de917412d76519b0602e58a3dae2d60cd17ae1fad2b03c6147690cb68ee5a3a1feb15432f7453990404e38c3ba82b66cb11a819ab2d05c0127096cd6ee85c3c19ed13452972559f0206e18e39aa2964c913aa1ba92f07c2107294cf6cea5e3e1bef11472b70579d0008ef8037a4276ac71da415a72109cc1e7c9ac162e4503015e11f49257e59930e0aed8235a62568c51fa617a5230bce1c7e98c360e6523217e31d4b277c5b910c0ceb8433a0236ec319a011a3250dc81a789ec566e0543411e51b4d217a5d970a0ee98631a2216cc11ba213a1270fca187a9cc764e2563613e7194f23785f950800e7883fac2f62cf15ac1daf2901c4167492c96aec58381de917412d76519b0602e58a3dae2d60cd17ae1fad2b03c6147690cb68ee5a3a1feb15432f7453990404e38c3ba82b66cb11a819ab2d05c0127096cd6ee85c3c19ed13452972559f0206e18e39aa2964c913aa1ba92f07c2107294cf6cea5e3e1bef11472b70579d0008ef8037a4276ac71da415a72109cc1e7c9ac162e4503015e11f49257e59930e0aed8235a62568c51fa617a5230bce1c7e98c360e6523217e31d4b277c5b910c0ceb8433a0236ec319a011a3250dc81a789ec566e0543411e51b4d217a5d970a0ee98631a2216cc11ba213a1270fca187a9cc764e2563613e7194f23785f950800e7883fac2f62cf15ac1daf2901c4167492c96aec58381de917412d76519b0602e58a3dae2d60cd17ae1fad2b03c6147690cb68ee5a3a1feb15432f7453990404e38c3ba82b66cb11a819ab2d05c0127096cd6ee85c3c19ed13452972559f0206e18e39aa2964c913aa1ba92f07c2107294cf6cea5e3e1bef11472b70579d0008ef8037a4276ac71da415a72109cc1e7c9ac162e4503015e11f49257e59930e0aed8235a62568c51fa617a5230bce1c7e98c360e6523217e31d4b277c5b910c0ceb8433a0236ec319a011a3250dc81a789ec566e0543411e51b4d217a5d970a0ee98631a2216cc11ba213a1270fca187a9cc764e2563613e7194f23785f950800e7883fac2f62cf15ac1daf2901c4167492c96aec58381de917412d76519b0602e58a3dae2d60cd17ae1fad2b03c6147690cb68ee5a3a1feb15432f7453990404e38c3ba82b66cb11a819ab2d05c0127096cd6ee85c3c19ed13452972559f0206e18e39aa2964c913aa1ba92f07c2107294cf6cea5e3e1bef11472b70579d0008ef8037a4276ac71da415a72109cc1e70f0f1d15607fb786c54e6773cd3e6a500e43127f387e38a7cc597e45b2b30ff5",
        "hex": "6a20b8d23fbec6b9f67d8dcf103379df81e2d22d35fea7c2ea246e6f1fceb98e298a4db0040e7883fac2f62cf15ac1daf2901c4167492c96aec58381de917412d76519b0602e58a3dae2d60cd17ae1fad2b03c6147690cb68ee5a3a1feb15432f7453990404e38c3ba82b66cb11a819ab2d05c0127096cd6ee85c3c19ed13452972559f0206e18e39aa2964c913aa1ba92f07c2107294cf6cea5e3e1bef11472b70579d0008ef8037a4276ac71da415a72109cc1e7c9ac162e4503015e11f49257e59930e0aed8235a62568c51fa617a5230bce1c7e98c360e6523217e31d4b277c5b910c0ceb8433a0236ec319a011a3250dc81a789ec566e0543411e51b4d217a5d970a0ee98631a2216cc11ba213a1270fca187a9cc764e2563613e7194f23785f950800e7883fac2f62cf15ac1daf2901c4167492c96aec58381de917412d76519b0602e58a3dae2d60cd17ae1fad2b03c6147690cb68ee5a3a1feb15432f7453990404e38c3ba82b66cb11a819ab2d05c0127096cd6ee85c3c19ed13452972559f0206e18e39aa2964c913aa1ba92f07c2107294cf6cea5e3e1bef11472b70579d0008ef8037a4276ac71da415a72109cc1e7c9ac162e4503015e11f49257e59930e0aed8235a62568c51fa617a5230bce1c7e98c360e6523217e31d4b277c5b910c0ceb8433a0236ec319a011a3250dc81a789ec566e0543411e51b4d217a5d970a0ee98631a2216cc11ba213a1270fca187a9cc764e2563613e7194f23785f950800e7883fac2f62cf15ac1daf2901c4167492c96aec58381de917412d76519b0602e58a3dae2d60cd17ae1fad2b03c6147690cb68ee5a3a1feb15432f7453990404e38c3ba82b66cb11a819ab2d05c0127096cd6ee85c3c19ed13452972559f0206e18e39aa2964c913aa1ba92f07c2107294cf6cea5e3e1bef11472b70579d0008ef8037a4276ac71da415a72109cc1e7c9ac162e4503015e11f49257e59930e0aed8235a62568c51fa617a5230bce1c7e98c360e6523217e31d4b277c5b910c0ceb8433a0236ec319a011a3250dc81a789ec566e0543411e51b4d217a5d970a0ee98631a2216cc11ba213a1270fca187a9cc764e2563613e7194f23785f950800e7883fac2f62cf15ac1daf2901c4167492c96aec58381de917412d76519b0602e58a3dae2d60cd17ae1fad2b03c6147690cb68ee5a3a1feb15432f7453990404e38c3ba82b66cb11a819ab2d05c0127096cd6ee85c3c19ed13452972559f0206e18e39aa2964c913aa1ba92f07c2107294cf6cea5e3e1bef11472b70579d0008ef8037a4276ac71da415a72109cc1e7c9ac162e4503015e11f49257e59930e0aed8235a62568c51fa617a5230bce1c7e98c360e6523217e31d4b277c5b910c0ceb8433a0236ec319a011a3250dc81a789ec566e0543411e51b4d217a5d970a0ee98631a2216cc11ba213a1270fca187a9cc764e2563613e7194f23785f950800e7883fac2f62cf15ac1daf2901c4167492c96aec58381de917412d76519b0602e58a3dae2d60cd17ae1fad2b03c6147690cb68ee5a3a1feb15432f7453990404e38c3ba82b66cb11a819ab2d05c0127096cd6ee85c3c19ed13452972559f0206e18e39aa2964c913aa1ba92f07c2107294cf6cea5e3e1bef11472b70579d0008ef8037a4276ac71da415a72109cc1e70f0f1d15607fb786c54e6773cd3e6a500e43127f387e38a7cc597e45b2b30ff5",
        "type": "nulldata"
      }
    },
    {
      "value": 499968.4761,
      "n": 1,
      "scriptPubKey": {
        "asm": "1 873fef9c10c21e8989417570cdd40f089ca8fe821d9a0fc5d74975ac27e81e6d",
        "hex": "5120873fef9c10c21e8989417570cdd40f089ca8fe821d9a0fc5d74975ac27e81e6d",
        "reqSigs": 1,
        "type": "witness_v1_scripthash",
        "addresses": [
          "3QJmnh"
        ]
      }
    }
  ],
  "blockhash": "6d9c0c317b6a18c94c8dfa8ecf7920e3db1b4df4697afebc42d3fd28269e39fd",
  "confirmations": 1,
  "time": 1764181315,
  "blocktime": 1764181315
}