{
  "hex": "01000000000101aca3e41dfe1372c879b0e98be578ed9d534a175be10f7e1a18f01242404bfd980100000000feffffff02907857cc782d0000225120a2faf4a656f062cb4a037df685b22dbc15d5d203bd8ff9a2122a2f3166f1ff9500e1f50500000000fdd5046a20f9a277e949b61c871622d0f52144a14a157080b295f56b3f3b9b4a609775bd304db0049160a01d892d5b5c6477a952a004469e63f58738f74d78d5f35294fc0f8fc421b140803da90d7b7c44578972802466be43d5a718d76d58f5d372b4dc2fafe401d120e05dc96d1b1c2437e912e04406de23b5c778b70d3895b312d4bc4fcf8461f100c07de94d3b3c0417c932c06426fe0395e758972d18b59332f49c6fefa44111e0209d09addbdce4f729d22084c61ee37507b877cdf85573d2147c8f0f44a131c000bd298dfbfcc4d709f200a4e63ec355279857edd87553f2345caf2f648151a060dd49ed9b9ca4b7699260c4865ea33547f8378db8153392543ccf4f04e1718040fd69cdbbbc849749b240e4a67e831567d817ad983513b2741cef6f24c19160a01d892d5b5c6477a952a004469e63f58738f74d78d5f35294fc0f8fc421b140803da90d7b7c44578972802466be43d5a718d76d58f5d372b4dc2fafe401d120e05dc96d1b1c2437e912e04406de23b5c778b70d3895b312d4bc4fcf8461f100c07de94d3b3c0417c932c06426fe0395e758972d18b59332f49c6fefa44111e0209d09addbdce4f729d22084c61ee37507b877cdf85573d2147c8f0f44a131c000bd298dfbfcc4d709f200a4e63ec355279857edd87553f2345caf2f648151a060dd49ed9b9ca4b7699260c4865ea33547f8378db8153392543ccf4f04e1718040fd69cdbbbc849749b240e4a67e831567d817ad983513b2741cef6f24c19160a01d892d5b5c6477a952a004469e63f58738f74d78d5f35294fc0f8fc421b140803da90d7b7c44578972802466be43d5a718d76d58f5d372b4dc2fafe401d120e05dc96d1b1c2437e912e04406de23b5c778b70d3895b312d4bc4fcf8461f100c07de94d3b3c0417c932c06426fe0395e758972d18b59332f49c6fefa44111e0209d09addbdce4f729d22084c61ee37507b877cdf85573d2147c8f0f44a131c000bd298dfbfcc4d709f200a4e63ec355279857edd87553f2345caf2f648151a060dd49ed9b9ca4b7699260c4865ea33547f8378db8153392543ccf4f04e1718040fd69cdbbbc849749b240e4a67e831567d817ad983513b2741cef6f24c19160a01d892d5b5c6477a952a004469e63f58738f74d78d5f35294fc0f8fc421b140803da90d7b7c44578972802466be43d5a718d76d58f5d372b4dc2fafe401d120e05dc96d1b1c2437e912e04406de23b5c778b70d3895b312d4bc4fcf8461f100c07de94d3b3c0417c932c06426fe0395e758972d18b59332f49c6fefa44111e0209d09addbdce4f729d22084c61ee37507b877cdf85573d2147c8f0f44a131c000bd298dfbfcc4d709f200a4e63ec355279857edd87553f2345caf2f648151a060dd49ed9b9ca4b7699260c4865ea33547f8378db8153392543ccf4f04e1718040fd69cdbbbc849749b240e4a67e831567d817ad983513b2741cef6f24c19160a01d892d5b5c6477a952a004469e63f58738f74d78d5f35294fc0f8fc421b140803da90d7b7c44578972802466be43d5a718d76d58f5d372b4dc2fafe401d120e05dc96d1b1c2437e912e04406de23b5c778b70d3895b312d4bc4fcf8461f100c07de94d3b3c0417c932c06426fe0395e758972d18b59332f49c6fefa44111e0209d09addbdce4f729d22084c61ec0f3fa39d4fdf62694621b20fb661ed294fcfad3acc6070f97f80c26758423d202fd75092d9eb69f579b51937303556e30d31310b560880c5b9b804c5e03831afcff9a6c80cdf0dd2e932c09076b81f04d2be4c14cd2e8a704143b9d43eb8fbe5ac34ded2455e30d87b6bf0c8dba83c2cf21fe11f66b6e6c34eb3fe22cf866046a62bd53b389cdd553fea6e7715dabeb18938b98035407f9b030e925ba22b46775222908c788149418457db1e813b3cc611dd560eaaa43ef1e4014aafb0e5effb0925b759af0571a5b76eb615e4c34936380ac4c08f92819b95cf2a6a9eb9d7b3377ae675eebd73aea8dd7df9c6d2d085f0c54854664ca78498f033e951a93c7770d240d22176205a384e18c501e570fb9d1ec531b965bab2cf2c97e09baced984082d82ade4b4e9cd3af4c6f749559809dc7e4604c386652b9c428ed36e84f92b654936691be6fa15ebebc71ba6a0b50e0b077fbc9a847caa6901ee2cfd599bd78b539e10211a014b6d1f04b89e32d9431cc95038ef05a1030b88990fd6303933b1684c98fe0904ff7b24693446b35fc339366d38f3f59723a626e01534c82db6b514208204711aa9655baf8de6179b3aa5c0ad40e61c9238061d4a108f722dbcead6589ce32f7eb98ba58ee9c02e279098d37da912cd03267e59082c4a174367f34bc604502beddbe65be9d9fd9ef42bbeb8a64dd7b4fcdd508051f49fe81c0075dc21894a4057b43ed4162a442970cf67cbdf8c576607c5d50ac474d6b80e91aee5543b0eba3f272799c9e5e8b1684b6ca05c019f16f6ea6f3b1460718ddb5ba2193d540db31e627d03a24f435ce77577d1c7ef7e99b5091c16cf4f6413b4bfe4c918605d4d215d723ddd88e29b70824a823d1a9971ea7031fef06beecfbf314da21942955a5fc27ef1359c173dfba6df1245f9a3622f1e146e220676d749e75fd05878729001be8ba52b918621ab27a5d7eceb18b7c41552ffca92c39625021d39a2c07a8cf4fa84e221526668fc7460bf3f9bb1d8fcfa3a5cf05a206a29ea4fac47aab753a48fd09ea49c8d9195ac4036c9839cfa61be886cbeb1b4ba6bc7380343afb419a80cb0f4a813609dc275753201a6d8a2ae22412863efac541512dbc0c275cdcb651e996a3fbb70a960fde0bd6b3292043598f59d0b9e0af3577576884aeb410bd1b3b6f5758b64cf1e3c6239da72fab76d944d4b8e6e0a58a8bdcff77cc8dda7355dc54fa4878f999024f18d7fa8d7070e788c5a353d1df847c6e37bb5805b77be129af091f1882954966c0f79137b1734a9e40d719679d076db46d9bf398dfedfdfe1f34adb72b31d3dda265ee6a6df08625cd556371541b07c00c0b058ede485ea30af6d4afcd4d6f0ab20aa094a81aa1432bb99181239f190906a8fc592b2094bf4691494fac387a8e9d00f1b2d31a7958db3fbf4652b7772d27de6f179f416e2e014838dad6069500e1a51963e570cbef4b7ad3b0a86f200052a9c704ad6fea845d232d453d8882bcdd11b06f609c72dce6f676c76339866ae4febfd843cae93911f2d6ffced64b1eb2c60746ca6c08d243c0c2bc2bb1f09b8aecce9ccf2d5da07ec78da8ff723b4a4cb730e612de7cb915fd8853e53353f6afb40c5ceca7292addc28f7e37be5b09374d9b7c9f5438f920a905bfc7baed85927eaf4df37f5d09f82f078e6c4202b4be7ae23f5324e6e1c160a2b96da202a60f512afa8f4e3fe0d8913a038d1eea902f6977aa782cc5bda2a01f0b91f616a5d923b7a9bf6d8007593df2abcd63ee5bf5e37b62900ae20f781244d852dbb47efef16d6c80eac668347a5f563d63f4f50b479dd0a44632c4b1eab3b02f9901a3dcae8c76eddbce13aa215784e7729ce5a9a221c29c93a34677fa4d7fb57db5b5a61083160dd5e1d0d7f59367464543ae1e6cdef6e89afd5491fb31d7dd2cebefdf2abf929eb552ca58e843eedb557d559dea8d3f1a021f2bf272e3cf6182e35ddb0f7e24b8ca5be317dfc67d1c059cadff9d0230ded827ddd50aa559fa7e9a11aa02fc0ab14d3b71bf605122d238863bf586154239ed975361ed7031afffb89eff0173bfe279412b8c287677c331ce2ac3f52b589d26d52f852e6c81df8708648b016abe8df14aec6593feabf73fd72b1ca01d30a2e2c3511147fb056e844bc3ac91de6b178995385be058ede809eeae214f848710947423b34014d01cf90fe351c2e1ab2279c059f0c36c7bd912510c397e627aba0920c118d3c94c394c57aa009509a054209636c19b75d952d814087ea94c52f5a7b825a48cc8bd2a813de048491287a2910f54a3c697d5cd656e6caadab5bb9787c515c31d43a084f24764c72b6c555b54a62d5c02ee9253bbecc3bc63b22a826e891bcaaf22f7e4e7ccfd94a78f9e783f071bec686cd4ba1536274d6ab7ee89313bf39f15a973e2050d1813e52f56927704d83464389430ed3a7a81ebbfe576bc808833e54deb4965f00dcac81323602fb9cc74cbd1dc6ceaaf98bb76f5d0e7cc97f7eeebc24ec8a4723cdc772b53cc297740b93c64754fe2b92ee3f8f0030bfe7865edb454cbcacb47da9d39fb1d0a715bca292b81a3ef0f680d7c2088587f95b40938d1b1157838b4a2cb6e31a40a1768ec3ec27370d3d28e949c52723c1fb3c5f5f9cd11c4741c937290da8c469b3797efb95ed37d68f459efbdbc8cdb05ea262801510eef286e97a119bcda43c5a1e1e0f4c0098901a2830ded51515fa59c7a0f3551db2456d0d6ac5a428c5688111105bc319d544a33a1ca57a3c6f04520b16aa508a5400183f516e0a7addc97f12881383f6630cc42d8d9aee2bf5a0084c25c535ada46cf122f8eb3b4ce6aa85bc937e62a248b2705b37b8754a6936699431eb97742a5d94466d76775d4f284d04836a0c3ae59d4b73c8a5907307a58c1c3ec89367b64611de8657297059c16907b0efc503fdb1ee8118ac413f93f672f47a8d4a1e70939ef783f650825fe4066853862aa42a8ccf5b5315dc1ac2a18e8214a33357d67ffc4516ae2d9539c6614df3530c69131bef5abae7fa7e86aabbdf61591efa15933ce67532fc22c0a3b4ade30b969f753622961b4357c7790022d9dc4f683019997d0018d9521f15e32d7adef9b24f83317cc21d865527f9a0702f0b5de614e57f3710d500d3e0ca6c0a3cb4702dbe308447ed308f0b6aad9a211c0f9876b03f7259836f1af91c81de13b56f4c9feaff385998fa7f4ba42d8f8a082150a2d50c3b0ccfe03abbe6772f85746da16a9bb268802fc85b788cd51695ad09769ca5fb4986be09f653f4cbd4c9a835dad1fb935307e704fff1192ec562a6aab606113c8e7a4c013193fb5f728d97999da2b8c1c3c7cbe80632637a7f898a8c8da3d3f80614193341506d727996a4aeb9bcd9ddf3021f3336b0b3c2c8f900000000000000000000000000000000000000000000000000000000000d192a3301fd21050019bfbd7b354b9a2686ba755fd69b93a478f9f279481e444389256efdc9525744ec106a8c6b07b5bf2aad68781aad948283c450e001b457b08f8b693cd4836f2ed87171bce51a32e0b4663d3bf6f0bdb8b601377d45ec3020c56ed1880df515c747aff103e018cc6b267f58f561a67e85b81be45fdad1e35ae2fd5bc1083c75c730a57255eb2f2513b9ba9774ba0fe3dab31817203f0d4c6c5ba7a0cfc76db1a1544bc53823eb3d39bf182480f9c82fffcf3adcd9730883c26b5f595fa79c171bf40dcc2f878cb8bfd6c5912e639f15fca07397793b3038c8b08d507c86dbb4a7d64ba269f11d404b9b223b9fdc6489ac46f8a161c235f3cfb4edd2eb88844fdac0dbc6082f3793de6378dcccded7d6877da39a68a868b55666262e0ff12975a3a9cc9fdb79ff9de7d0fb147018669f40c47ce595b6641f0ae7d80c2204c78be1714aa105c5b4c2774a2ecb727964e2a5200572e18b41ed956729446931481e2475be2efeec2e0a9ee5b9ca30c72922814f71ad0fdd59b2efd379530698ef67622307a72fad27b4fb117da2f59e9ca5aaf3f97d8cf5ae309e4823f1e32474ab95a9b6478f75e91da6b9f60810bf46a66516c0fe5f179c79b8c982d1673c95cf638d274707302c461cc7446904a2a409e3545c68a5090d1adb916afaa8d17ead200a1a8cc9b7e8a52b0c05db58d83f0bfc586850238e8e9cf877f1cfb8377b1585914c8ccb377e19dd24a9755e2427495124f4ba1fc0b621f81403bc6370c53a22260b89cca234d40761316fac1ca1740f9bbbe3ae6c954f0ae2efae8c5475cddcb748a45e9ca11d96d2ac5b92e22b56d5e21ee0eec9e83b766f21a2efa7c3a53710579b8ed916c42bdfd278d45d398cfc24183cb7bf7cc4a694159bcd46eebe3fd59767cf02d6ace0fa84039193845175289a3e1522bbe32e17b26f24ad2d880e4a7b32118c809d5f40fbf6272ab80cc2090b72e3c8d1d82bd8cc41acdb3ef6f8255d645d7e99b188bb88b96acf8acf8f09f0833bd8569b20bef5f5a2e852c902e3e0fc1e1dd07865a7781c1f59482e5e57c302f605e92bf1a3ff5f67a7e385ab9ca5726a2ca02c9903bb2528c3c491f63cf233449266980624a6bea88728047b9932cadbbb0ebe9e1b5b8c5a96c2eeed19dfed805b548f99de69ebc5e66972ccb1805c779f79368431079a0afb6838844b4aeacb5d09735ac0f10bd1e15f9d2f1410eaff94748c440653877ee071f591a99f5c47395d4ee7f03caf5c68a8c7ce1dc21ed408b0c4a967a3890dcf553c26706e6d2465830e5ee1462e79342fba751a82cc0834af51c4e865ec657c4c1de9d2bc949654a6a0e3b4c0cf13e467c98c502f9b32a61b4306bf202f28ad14576d9140e1186349b2784a536a86880af85ac39f195c62a6634f32c196f8525fa1997d7d8dfbcf5d7a3dc95a93672beab846fdac0666e4815b5ab0e8fcadcb9a1a0c027d0f8b181ee9ca048a4f5f8d1d3a5f4113cc88d85ccc4b3fa24d922a89e8752bcb7bed60d4dd49ebfa8c53e1d6461a91566c552737409def769b48db09d4465fff36deed4392209a6478cfa3a7ccdc290d079d128b37218d2c1690dbbc964718d1fdb5557455efb9bc9fd19bcbe01a769878bc1d8b895f3154449f3bdd01600032355c2ed2e4c82af09a11c4c33f3958490418ec0c82b1314f77c7a71b80a40518bd9fb1d7c095c3bdd85a4a9fcdc4979765b78f0f0b768968136b58d630075024114e314f0516a3a4b558ee4ffc042ab1903ee5899bb1665fc8b0e3094b44731ac86b4c11eaa163225b1f25eccc269e3a9356dc193070ff780c6ec10fd02ceed1371b3ccef169d32b2bf77b99d71c81000000",
  "txid": "81625a2fd8d5ab22436e82a12df094fe87c9a1bb3b63ce9a48ca2423fdb2f8ed",
  "hash": "d8a5b86052786bcb58628a4f26e700e95b571ca4068e3f4c5ace14658f2eca29",
  "size": 5085,
  "vsize": 2278,
  "version": 1,
  "locktime": 129,
  "vin": [
    {
      "txid": "98fd4b404212f0181a7e0fe15b174a539ded78e58be9b079c87213fe1de4a3ac",
      "vout": 1,
      "scriptSig": {
        "asm": "",
        "hex": ""
      },
      "txinwitness": [
        "2d9eb69f579b51937303556e30d31310b560880c5b9b804c5e03831afcff9a6c80cdf0dd2e932c09076b81f04d2be4c14cd2e8a704143b9d43eb8fbe5ac34ded2455e30d87b6bf0c8dba83c2cf21fe11f66b6e6c34eb3fe22cf866046a62bd53b389cdd553fea6e7715dabeb18938b98035407f9b030e925ba22b46775222908c788149418457db1e813b3cc611dd560eaaa43ef1e4014aafb0e5effb0925b759af0571a5b76eb615e4c34936380ac4c08f92819b95cf2a6a9eb9d7b3377ae675eebd73aea8dd7df9c6d2d085f0c54854664ca78498f033e951a93c7770d240d22176205a384e18c501e570fb9d1ec531b965bab2cf2c97e09baced984082d82ade4b4e9cd3af4c6f749559809dc7e4604c386652b9c428ed36e84f92b654936691be6fa15ebebc71ba6a0b50e0b077fbc9a847caa6901ee2cfd599bd78b539e10211a014b6d1f04b89e32d9431cc95038ef05a1030b88990fd6303933b1684c98fe0904ff7b24693446b35fc339366d38f3f59723a626e01534c82db6b514208204711aa9655baf8de6179b3aa5c0ad40e61c9238061d4a108f722dbcead6589ce32f7eb98ba58ee9c02e279098d37da912cd03267e59082c4a174367f34bc604502beddbe65be9d9fd9ef42bbeb8a64dd7b4fcdd508051f49fe81c0075dc21894a4057b43ed4162a442970cf67cbdf8c576607c5d50ac474d6b80e91aee5543b0eba3f272799c9e5e8b1684b6ca05c019f16f6ea6f3b1460718ddb5ba2193d540db31e627d03a24f435ce77577d1c7ef7e99b5091c16cf4f6413b4bfe4c918605d4d215d723ddd88e29b70824a823d1a9971ea7031fef06beecfbf314da21942955a5fc27ef1359c173dfba6df1245f9a3622f1e146e220676d749e75fd05878729001be8ba52b918621ab27a5d7eceb18b7c41552ffca92c39625021d39a2c07a8cf4fa84e221526668fc7460bf3f9bb1d8fcfa3a5cf05a206a29ea4fac47aab753a48fd09ea49c8d9195ac4036c9839cfa61be886cbeb1b4ba6bc7380343afb419a80cb0f4a813609dc275753201a6d8a2ae22412863efac541512dbc0c275cdcb651e996a3fbb70a960fde0bd6b3292043598f59d0b9e0af3577576884aeb410bd1b3b6f5758b64cf1e3c6239da72fab76d944d4b8e6e0a58a8bdcff77cc8dda7355dc54fa4878f999024f18d7fa8d7070e788c5a353d1df847c6e37bb5805b77be129af091f1882954966c0f79137b1734a9e40d719679d076db46d9bf398dfedfdfe1f34adb72b31d3dda265ee6a6df08625cd556371541b07c00c0b058ede485ea30af6d4afcd4d6f0ab20aa094a81aa1432bb99181239f190906a8fc592b2094bf4691494fac387a8e9d00f1b2d31a7958db3fbf4652b7772d27de6f179f416e2e014838dad6069500e1a51963e570cbef4b7ad3b0a86f200052a9c704ad6fea845d232d453d8882bcdd11b06f609c72dce6f676c76339866ae4febfd843cae93911f2d6ffced64b1eb2c60746ca6c08d243c0c2bc2bb1f09b8aecce9ccf2d5da07ec78da8ff723b4a4cb730e612de7cb915fd8853e53353f6afb40c5ceca7292addc28f7e37be5b09374d9b7c9f5438f920a905bfc7baed85927eaf4df37f5d09f82f078e6c4202b4be7ae23f5324e6e1c160a2b96da202a60f512afa8f4e3fe0d8913a038d1eea902f6977aa782cc5bda2a01f0b91f616a5d923b7a9bf6d8007593df2abcd63ee5bf5e37b62900ae20f781244d852dbb47efef16d6c80eac668347a5f563d63f4f50b479dd0a44632c4b1eab3b02f9901a3dcae8c76eddbce13aa215784e7729ce5a9a221c29c93a34677fa4d7fb57db5b5a61083160dd5e1d0d7f59367464543ae1e6cdef6e89afd5491fb31d7dd2cebefdf2abf929eb552ca58e843eedb557d559dea8d3f1a021f2bf272e3cf6182e35ddb0f7e24b8ca5be317dfc67d1c059cadff9d0230ded827ddd50aa559fa7e9a11aa02fc0ab14d3b71bf605122d238863bf586154239ed975361ed7031afffb89eff0173bfe279412b8c287677c331ce2ac3f52b589d26d52f852e6c81df8708648b016abe8df14aec6593feabf73fd72b1ca01d30a2e2c3511147fb056e844bc3ac91de6b178995385be058ede809eeae214f848710947423b34014d01cf90fe351c2e1ab2279c059f0c36c7bd912510c397e627aba0920c118d3c94c394c57aa009509a054209636c19b75d952d814087ea94c52f5a7b825a48cc8bd2a813de048491287a2910f54a3c697d5cd656e6caadab5bb9787c515c31d43a084f24764c72b6c555b54a62d5c02ee9253bbecc3bc63b22a826e891bcaaf22f7e4e7ccfd94a78f9e783f071bec686cd4ba1536274d6ab7ee89313bf39f15a973e2050d1813e52f56927704d83464389430ed3a7a81ebbfe576bc808833e54deb4965f00dcac81323602fb9cc74cbd1dc6ceaaf98bb76f5d0e7cc97f7eeebc24ec8a4723cdc772b53cc297740b93c64754fe2b92ee3f8f0030bfe7865edb454cbcacb47da9d39fb1d0a715bca292b81a3ef0f680d7c2088587f95b40938d1b1157838b4a2cb6e31a40a1768ec3ec27370d3d28e949c52723c1fb3c5f5f9cd11c4741c937290da8c469b3797efb95ed37d68f459efbdbc8cdb05ea262801510eef286e97a119bcda43c5a1e1e0f4c0098901a2830ded51515fa59c7a0f3551db2456d0d6ac5a428c5688111105bc319d544a33a1ca57a3c6f04520b16aa508a5400183f516e0a7addc97f12881383f6630cc42d8d9aee2bf5a0084c25c535ada46cf122f8eb3b4ce6aa85bc937e62a248b2705b37b8754a6936699431eb97742a5d94466d76775d4f284d04836a0c3ae59d4b73c8a5907307a58c1c3ec89367b64611de8657297059c16907b0efc503fdb1ee8118ac413f93f672f47a8d4a1e70939ef783f650825fe4066853862aa42a8ccf5b5315dc1ac2a18e8214a33357d67ffc4516ae2d9539c6614df3530c69131bef5abae7fa7e86aabbdf61591efa15933ce67532fc22c0a3b4ade30b969f753622961b4357c7790022d9dc4f683019997d0018d9521f15e32d7adef9b24f83317cc21d865527f9a0702f0b5de614e57f3710d500d3e0ca6c0a3cb4702dbe308447ed308f0b6aad9a211c0f9876b03f7259836f1af91c81de13b56f4c9feaff385998fa7f4ba42d8f8a082150a2d50c3b0ccfe03abbe6772f85746da16a9bb268802fc85b788cd51695ad09769ca5fb4986be09f653f4cbd4c9a835dad1fb935307e704fff1192ec562a6aab606113c8e7a4c013193fb5f728d97999da2b8c1c3c7cbe80632637a7f898a8c8da3d3f80614193341506d727996a4aeb9bcd9ddf3021f3336b0b3c2c8f900000000000000000000000000000000000000000000000000000000000d192a3301",
        "0019bfbd7b354b9a2686ba755fd69b93a478f9f279481e444389256efdc9525744ec106a8c6b07b5bf2aad68781aad948283c450e001b457b08f8b693cd4836f2ed87171bce51a32e0b4663d3bf6f0bdb8b601377d45ec3020c56ed1880df515c747aff103e018cc6b267f58f561a67e85b81be45fdad1e35ae2fd5bc1083c75c730a57255eb2f2513b9ba9774ba0fe3dab31817203f0d4c6c5ba7a0cfc76db1a1544bc53823eb3d39bf182480f9c82fffcf3adcd9730883c26b5f595fa79c171bf40dcc2f878cb8bfd6c5912e639f15fca07397793b3038c8b08d507c86dbb4a7d64ba269f11d404b9b223b9fdc6489ac46f8a161c235f3cfb4edd2eb88844fdac0dbc6082f3793de6378dcccded7d6877da39a68a868b55666262e0ff12975a3a9cc9fdb79ff9de7d0fb147018669f40c47ce595b6641f0ae7d80c2204c78be1714aa105c5b4c2774a2ecb727964e2a5200572e18b41ed956729446931481e2475be2efeec2e0a9ee5b9ca30c72922814f71ad0fdd59b2efd379530698ef67622307a72fad27b4fb117da2f59e9ca5aaf3f97d8cf5ae309e4823f1e32474ab95a9b6478f75e91da6b9f60810bf46a66516c0fe5f179c79b8c982d1673c95cf638d274707302c461cc7446904a2a409e3545c68a5090d1adb916afaa8d17ead200a1a8cc9b7e8a52b0c05db58d83f0bfc586850238e8e9cf877f1cfb8377b1585914c8ccb377e19dd24a9755e2427495124f4ba1fc0b621f81403bc6370c53a22260b89cca234d40761316fac1ca1740f9bbbe3ae6c954f0ae2efae8c5475cddcb748a45e9ca11d96d2ac5b92e22b56d5e21ee0eec9e83b766f21a2efa7c3a53710579b8ed916c42bdfd278d45d398cfc24183cb7bf7cc4a694159bcd46eebe3fd59767cf02d6ace0fa84039193845175289a3e1522bbe32e17b26f24ad2d880e4a7b32118c809d5f40fbf6272ab80cc2090b72e3c8d1d82bd8cc41acdb3ef6f8255d645d7e99b188bb88b96acf8acf8f09f0833bd8569b20bef5f5a2e852c902e3e0fc1e1dd07865a7781c1f59482e5e57c302f605e92bf1a3ff5f67a7e385ab9ca5726a2ca02c9903bb2528c3c491f63cf233449266980624a6bea88728047b9932cadbbb0ebe9e1b5b8c5a96c2eeed19dfed805b548f99de69ebc5e66972ccb1805c779f79368431079a0afb6838844b4aeacb5d09735ac0f10bd1e15f9d2f1410eaff94748c440653877ee071f591a99f5c47395d4ee7f03caf5c68a8c7ce1dc21ed408b0c4a967a3890dcf553c26706e6d2465830e5ee1462e79342fba751a82cc0834af51c4e865ec657c4c1de9d2bc949654a6a0e3b4c0cf13e467c98c502f9b32a61b4306bf202f28ad14576d9140e1186349b2784a536a86880af85ac39f195c62a6634f32c196f8525fa1997d7d8dfbcf5d7a3dc95a93672beab846fdac0666e4815b5ab0e8fcadcb9a1a0c027d0f8b181ee9ca048a4f5f8d1d3a5f4113cc88d85ccc4b3fa24d922a89e8752bcb7bed60d4dd49ebfa8c53e1d6461a91566c552737409def769b48db09d4465fff36deed4392209a6478cfa3a7ccdc290d079d128b37218d2c1690dbbc964718d1fdb5557455efb9bc9fd19bcbe01a769878bc1d8b895f3154449f3bdd01600032355c2ed2e4c82af09a11c4c33f3958490418ec0c82b1314f77c7a71b80a40518bd9fb1d7c095c3bdd85a4a9fcdc4979765b78f0f0b768968136b58d630075024114e314f0516a3a4b558ee4ffc042ab1903ee5899bb1665fc8b0e3094b44731ac86b4c11eaa163225b1f25eccc269e3a9356dc193070ff780c6ec10fd02ceed1371b3ccef169d32b2bf77b99d71c"
      ],
      "sequence": 4294967294
    }
  ],
  "vout": [
    {
      "value": 499968.4761,
      "n": 0,
      "scriptPubKey": {
        "asm": "1 a2faf4a656f062cb4a037df685b22dbc15d5d203bd8ff9a2122a2f3166f1ff95",
        "hex": "5120a2faf4a656f062cb4a037df685b22dbc15d5d203bd8ff9a2122a2f3166f1ff95",
        "reqSigs": 1,
        "type": "witness_v1_scripthash",
        "addresses": [
          "3QJmnh"
        ]
      }
    },
    {
      "value": 1.0,
      "n": 1,
      "scriptPubKey": {
        "asm": "OP_RETURN f9a277e949b61c871622d0f52144a14a157080b295f56b3f3b9b4a609775bd30 9160a01d892d5b5c6477a952a004469e63f58738f74d78d5f35294fc0f8fc421b140803da90d7b7c44578972802466be43d5a718d76d58f5d372b4dc2fafe401d120e05dc96d1b1c2437e912e04406de23b5c778b70d3895b312d4bc4fcf8461f100c07de94d3b3c0417c932c06426fe0395e758972d18b59332f49c6fefa44111e0209d09addbdce4f729d22084c61ee37507b877cdf85573d2147c8f0f44a131c000bd298dfbfcc4d709f200a4e63ec355279857edd87553f2345caf2f648151a060dd49ed9b9ca4b7699260c4865ea33547f8378db8153392543ccf4f04e1718040fd69cdbbbc849749b240e4a67e831567d817ad983513b2741cef6f24c19160a01d892d5b5c6477a952a004469e63f58738f74d78d5f35294fc0f8fc421b140803da90d7b7c44578972802466be43d5a718d76d58f5d372b4dc2fafe401d120e05dc96d1b1c2437e912e04406de23b5c778b70d3895b312d4bc4fcf8461f100c07de94d3b3c0417c932c06426fe0395e758972d18b59332f49c6fefa44111e0209d09addbdce4f729d22084c61ee37507b877cdf85573d2147c8f0f44a131c000bd298dfbfcc4d709f200a4e63ec355279857edd87553f2345caf2f648151a060dd49ed9b9ca4b7699260c4865ea33547f8378db8153392543ccf4f04e1718040fd69cdbbbc849749b240e4a67e831567d817ad983513b2741cef6f24c19160a01d892d5b5c6477a952a004469e63f58738f74d78d5f35294fc0f8fc421b140803da90d7b7c44578972802466be43d5a718d76d58f5d372b4dc2fafe401d120e05dc96d1b1c2437e912e04406de23b5c778b70d3895b312d4bc4fcf8461f100c07de94d3b3c0417c932c06426fe0395e758972d18b59332f49c6fefa44111e0209d09addbdce4f729d22084c61ee37507b877cdf85573d2147c8f0f44a131c000bd298dfbfcc4d709f200a4e63ec355279857edd87553f2345caf2f648151a060dd49ed9b9ca4b7699260c4865ea33547f8378db8153392543ccf4f04e1718040fd69cdbbbc849749b240e4a67e831567d817ad983513b2741cef6f24c19160a01d892d5b5c6477a952a004469e63f58738f74d78d5f35294fc0f8fc421b140803da90d7b7c44578972802466be43d5a718d76d58f5d372b4dc2fafe401d120e05dc96d1b1c2437e912e04406de23b5c778b70d3895b312d4bc4fcf8461f100c07de94d3b3c0417c932c06426fe0395e758972d18b59332f49c6fefa44111e0209d09addbdce4f729d22084c61ee37507b877cdf85573d2147c8f0f44a131c000bd298dfbfcc4d709f200a4e63ec355279857edd87553f2345caf2f648151a060dd49ed9b9ca4b7699260c4865ea33547f8378db8153392543ccf4f04e1718040fd69cdbbbc849749b240e4a67e831567d817ad983513b2741cef6f24c19160a01d892d5b5c6477a952a004469e63f58738f74d78d5f35294fc0f8fc421b140803da90d7b7c44578972802466be43d5a718d76d58f5d372b4dc2fafe401d120e05dc96d1b1c2437e912e04406de23b5c778b70d3895b312d4bc4fcf8461f100c07de94d3b3c0417c932c06426fe0395e758972d18b59332f49c6fefa44111e0209d09addbdce4f729d22084c61ec0f3fa39d4fdf62694621b20fb661ed294fcfad3acc6070f97f80c26758423d2",
        "hex": "6a20f9a277e949b61c871622d0f52144a14a157080b295f56b3f3b9b4a609775bd304db0049160a01d892d5b5c6477a952a004469e63f58738f74d78d5f35294fc0f8fc421b140803da90d7b7c44578972802466be43d5a718d76d58f5d372b4dc2fafe401d120e05dc96d1b1c2437e912e04406de23b5c778b70d3895b312d4bc4fcf8461f100c07de94d3b3c0417c932c06426fe0395e758972d18b59332f49c6fefa44111e0209d09addbdce4f729d22084c61ee37507b877cdf85573d2147c8f0f44a131c000bd298dfbfcc4d709f200a4e63ec355279857edd87553f2345caf2f648151a060dd49ed9b9ca4b7699260c4865ea33547f8378db8153392543ccf4f04e1718040fd69cdbbbc849749b240e4a67e831567d817ad983513b2741cef6f24c19160a01d892d5b5c6477a952a004469e63f58738f74d78d5f35294fc0f8fc421b140803da90d7b7c44578972802466be43d5a718d76d58f5d372b4dc2fafe401d120e05dc96d1b1c2437e912e04406de23b5c778b70d3895b312d4bc4fcf8461f100c07de94d3b3c0417c932c06426fe0395e758972d18b59332f49c6fefa44111e0209d09addbdce4f729d22084c61ee37507b877cdf85573d2147c8f0f44a131c000bd298dfbfcc4d709f200a4e63ec355279857edd87553f2345caf2f648151a060dd49ed9b9ca4b7699260c4865ea33547f8378db8153392543ccf4f04e1718040fd69cdbbbc849749b240e4a67e831567d817ad983513b2741cef6f24c19160a01d892d5b5c6477a952a004469e63f58738f74d78d5f35294fc0f8fc421b140803da90d7b7c44578972802466be43d5a718d76d58f5d372b4dc2fafe401d120e05dc96d1b1c2437e912e04406de23b5c778b70d3895b312d4bc4fcf8461f100c07de94d3b3c0417c932c06426fe0395e758972d18b59332f49c6fefa44111e0209d09addbdce4f729d22084c61ee37507b877cdf85573d2147c8f0f44a131c000bd298dfbfcc4d709f200a4e63ec355279857edd87553f2345caf2f648151a060dd49ed9b9ca4b7699260c4865ea33547f8378db8153392543ccf4f04e1718040fd69cdbbbc849749b240e4a67e831567d817ad983513b2741cef6f24c19160a01d892d5b5c6477a952a004469e63f58738f74d78d5f35294fc0f8fc421b140803da90d7b7c44578972802466be43d5a718d76d58f5d372b4dc2fafe401d120e05dc96d1b1c2437e912e04406de23b5c778b70d3895b312d4bc4fcf8461f100c07de94d3b3c0417c932c06426fe0395e758972d18b59332f49c6fefa44111e0209d09addbdce4f729d22084c61ee37507b877cdf85573d2147c8f0f44a131c000bd298dfbfcc4d709f200a4e63ec355279857edd87553f2345caf2f648151a060dd49ed9b9ca4b7699260c4865ea33547f8378db8153392543ccf4f04e1718040fd69cdbbbc849749b240e4a67e831567d817ad983513b2741cef6f24c19160a01d892d5b5c6477a952a004469e63f58738f74d78d5f35294fc0f8fc421b140803da90d7b7c44578972802466be43d5a718d76d58f5d372b4dc2fafe401d120e05dc96d1b1c2437e912e04406de23b5c778b70d3895b312d4bc4fcf8461f100c07de94d3b3c0417c932c06426fe0395e758972d18b59332f49c6fefa44111e0209d09addbdce4f729d22084c61ec0f3fa39d4fdf62694621b20fb661ed294fcfad3acc6070f97f80c26758423d2",
        "type": "nulldata"
      }
    }
  ],
  "blockhash": "e950f66e7d48487e03ac7a1b4e7864aa28758accf0e3d98358cdf64a352531e0",
  "confirmations": 1,
  "time": 1764181937,
  "blocktime": 1764181937
}