{
  "hex": "0100000000010190b9287f1f106bf5cb91fc4ac90f75154077c472699e7b2298292f0c5af7c2260100000000feffffff0200e1f50500000000fdd5046a209dfb0737fb3d2b418dcf08f2d4726e8112d399b98115135f96a9d70435572df44db004d480700d65663e5995b9520ab7d5c5686dcefedfc77fa5be3f79bab181724b18f4a0502d45461e79b599722a97f5e5484deedeffe75f859e1f599a91a1526b3894c0304d25267e19d5f9124af79585282d8ebe9f873fe5fe7f39faf1c1320b58b4e0106d05065e39f5d9326ad7b5a5080dae9ebfa71fc5de5f19dad1e1122b785400f08de5e6bed91539d28a375545e8ed4e7e5f47ff253ebff93a3101f2cb987420d0adc5c69ef93519f2aa177565c8cd6e5e7f67df051e9fd91a1121d2ebb81440b0cda5a6fe99557992ca771505a8ad0e3e1f07bf657effb97a7141b28bd8346090ed8586deb97559b2ea573525888d2e1e3f279f455edf995a516192abf8d480700d65663e5995b9520ab7d5c5686dcefedfc77fa5be3f79bab181724b18f4a0502d45461e79b599722a97f5e5484deedeffe75f859e1f599a91a1526b3894c0304d25267e19d5f9124af79585282d8ebe9f873fe5fe7f39faf1c1320b58b4e0106d05065e39f5d9326ad7b5a5080dae9ebfa71fc5de5f19dad1e1122b785400f08de5e6bed91539d28a375545e8ed4e7e5f47ff253ebff93a3101f2cb987420d0adc5c69ef93519f2aa177565c8cd6e5e7f67df051e9fd91a1121d2ebb81440b0cda5a6fe99557992ca771505a8ad0e3e1f07bf657effb97a7141b28bd8346090ed8586deb97559b2ea573525888d2e1e3f279f455edf995a516192abf8d480700d65663e5995b9520ab7d5c5686dcefedfc77fa5be3f79bab181724b18f4a0502d45461e79b599722a97f5e5484deedeffe75f859e1f599a91a1526b3894c0304d25267e19d5f9124af79585282d8ebe9f873fe5fe7f39faf1c1320b58b4e0106d05065e39f5d9326ad7b5a5080dae9ebfa71fc5de5f19dad1e1122b785400f08de5e6bed91539d28a375545e8ed4e7e5f47ff253ebff93a3101f2cb987420d0adc5c69ef93519f2aa177565c8cd6e5e7f67df051e9fd91a1121d2ebb81440b0cda5a6fe99557992ca771505a8ad0e3e1f07bf657effb97a7141b28bd8346090ed8586deb97559b2ea573525888d2e1e3f279f455edf995a516192abf8d480700d65663e5995b9520ab7d5c5686dcefedfc77fa5be3f79bab181724b18f4a0502d45461e79b599722a97f5e5484deedeffe75f859e1f599a91a1526b3894c0304d25267e19d5f9124af79585282d8ebe9f873fe5fe7f39faf1c1320b58b4e0106d05065e39f5d9326ad7b5a5080dae9ebfa71fc5de5f19dad1e1122b785400f08de5e6bed91539d28a375545e8ed4e7e5f47ff253ebff93a3101f2cb987420d0adc5c69ef93519f2aa177565c8cd6e5e7f67df051e9fd91a1121d2ebb81440b0cda5a6fe99557992ca771505a8ad0e3e1f07bf657effb97a7141b28bd8346090ed8586deb97559b2ea573525888d2e1e3f279f455edf995a516192abf8d480700d65663e5995b9520ab7d5c5686dcefedfc77fa5be3f79bab181724b18f4a0502d45461e79b599722a97f5e5484deedeffe75f859e1f599a91a1526b3894c0304d25267e19d5f9124af79585282d8ebe9f873fe5fe7f39faf1c1320b58b4e0106d05065e39f5d9326ad7b5a5080dae9ebfa71fc5de5f19dad1e1122b785400f08de5e6bed91539d28a375545e84128db213aaab5b0053a2b9b3014ef48fe40eeb321e23830d3d44ed2b04177dae021231b792d00002251209ad8ce4361ae2de0629ee0a4a50047f275fbf46afbdef8335d5278ec7e6ff94c02fd7509aa6243dc12136b5595d641cc6427033c01686338016998ad3181549fbafeacd4d40869fef545148eacc0ac32b6d38c12599f4df87dc727eb8fcac54496619812f6b3a10a9acb0d3981a8348879e3d255535a0d0453ff20e772678de446c3de679526885befa52850ac2b2cd14bceaed1430faa5fafd15075fa0d462d6428fdf5e6abf208494595360df6326640c51247f448f0cb05ac21e19eca381d1d2d572c350d4f8465bad0f40dcf7d9fec1d7d5feacccc54c596548c77bd8fc7a4e85c23b654f7e3cf1bdc4a43d9cb1f979342fe80de869cd7f5c7f2210694bb295250ecbf2959e730eec9de75f42ef644738284257f7104b77aa16ce35dedecd5566539aed16d74bd59102e2baa3cda626fce7e2bab17ab680c164dc67945949674898b279e49c4f04571a8b7d24c7aea4ccbf9537faa88a03c89c01bc30aa72a0b04c8d5c56a12f2e3a2d90965cf1ee9d1a1bb502da4390740789cfa849a0033d4f912dbe700bde79c7d37be2d590fac65ea08f054856abb729bb61afe4c8e7695b568713f12a17d77a56cc6620e25d5ff447ae55e189dcbaa0a6547b8ef3f0d703e83c5b8523ecad227860f894f5100483a3e9e6efeaec9061d4ec13565b82fcae21cb82eeeb8668344e53f7b3ef0adf9a0f89ee33580da28d32f16f9998c2268031793551d90aa1d97e92bc7c5e314eae02dcf7544e45f5afa64b7a8c9901962dc3e28d63e4d12a8687e6d17fb9bcf20c84b1b00632d030aae1f216019ffdd9fd3b3e8ddb2a040bf29eaa5d8c3061493813a4c1a7f49ca78dcf139f844807f2bb206deb5cc889c1b06a86f27f2960b74688eb5aec3f54a5e29c3d8703f9ddee036e7abad57573d8884956350677848202159741ed4015b20af5c5c16efe56f74208f7fd3f394d3b7b98897a604127e477390a60e13fe6e4453e7a6ab8193720fc16557676effc38d31c29f98346ee4d38ba80f501e1b73234bbc45d38f91fe3a35b36e3fee109701de6eee516233cc01f7aa0e8e9d20e0b7a7cd248ab8385b66b08edf82ea7f863f9e9831e060cfdf098312759df1000fad2c2ddfcbc36992201139524c9be97558a6839af0723155723f244a0b1ac4bee3923a70d9109c5bd3ce164eb5a81f5c9798e70fa1bd004e0bdde27fd6557ddab1611dd4bc29cbb6d9f9355776a6ef5eab14681e1f7e8dc2d7dc282a7b4ee0769c7807711186f20c7e88cdf51f4473d8477a3867315e31efb04ffd4aca8d0488220f86c4c8cd14966c487201b97e297895ca66c2c2514c88dd58fbd34ee05329873dfa36089f4ed0cd407b0ad68fb8f114cb59b5f8264b797fa4081fa744ad93cfa4815c6c822c434a1f78352ebd892f332f70504db39a908bc26ba9e1479ae31fa5be6d5ea37d97fd11876422c9fdcf59c3590bff9ba6e536be2c42eeef624c4dd4d558b2e7d07d04016fdf5d4cf41296b33b2886492f9b265a2d928cdd943358e3c19d8f750280cc769ceacbdf8b4ba1176cbc6eb574a9d17e7c838195e3025a45726c723b50d166af0eb3080045a9cbda3c69f8e18c93579d8eb21c92d5ed6fb84954a7953ab99577d2f608f7f06f31bd639593f1150afb50336bc98b0034774e1a6f043c71df21d8191031198d2b5bd47ff1ebea1e97caf3ed3a9ed08fa3e6ff9902c4f2e77ac650db0617cb9b18bc2e498a6aac03cc4bb9610278f5e4336e90c669c8572c02e17ce4ef3f3ca2395d22e6e4f4df5568e6c5348f87b422f3985b6c9238588785d8cf3aeff52f9236c69c12601bf3c2cc2a45aafdaac62f21b562e5272972b9fdbb9871dbabfc3876893f5fc0cf4d884758e9fb89f54de088456256f98cf985e86a03dd87ecfc375b4ac3605ccbb6ed5b5fd8f4c92af8be1254b63117ce650f817d61129f1c0a9ab83c4931e1d37ad92e4534d5f785960da9d84877cd21a8fe9f345ac53d1f37cbabe2f0ce666fc35e1cf35375fc8b0da9ba70d7c0c876f8c4667b154a09a90e157d3d32ed2fbb2dd1e335806e34d9be725a0cd0dbad48c5f149839b37f9d6dffab82eae638c7b34fde7f356c9420bd00c1587ebe0e9cf67dce3297f3214382f28635055d6b7cf277aedcf34d38bbc51dfb74f1a2bba938f53826a45db4f3861b5d0319f57516ad0711751900b8006349fd23af988db460cc4504f5c89ebc5c8a6f14b08d8a5a8173f3355127c8a84c58736ab50eb9f6914d90f9e38e4020b0a27148543b9f97e0027d7b698ef2bbcf1d757f1a687adf73d3dd1cf9fc29333f76f8cf71639b3a378c34f46357f5a9ed4ef945eeeed2448e9fc99ddb4f1f92a2673ae4b1117e3b0303d1710ad90f0ee0b8d64d3ec80820c9715318e142bed1c2b87e98bc04c392cf074722b910c5df7e1a5d5cfff490c9b46cac8e836886b1cb7c17408b2b58ef9ec3f4a001a054144fc01a2c16520faaf1d104d3d6e00c96c2e1d2d4d2f0cbb4fba8582b80c82713fe8d27168576eeca64691aad23da07b56cf68ac619351fc6eb393b5a8ef5075436610d1ec613e672cae6d75529958635cf7bc297f1dcb0a4f6b5611e281d4bd1bde483487187b7ee6b3387208b3f7a0a241cbbbe32d3c101cf515535d66e1d0c980adb3caa97ca043bd9ab5dcdec15001e4cc058fe474e5baf7e7489812f098c9ccea9e8e8635f20ae26cea201b5b9b545bf79644841fda8b5fc9a067d7cc03d5860c780ba10a37a89a2307a1c2a8cdb96ba9731b0c42b9bf759148caac763fba1d3be26c270852e280775238cc0c772a4c80236ff149c0e3b54708884f0d23216feb5ca73707304e40861587b23b17514535a6eb0a58001a9bba184a6d57c2dad5c91849d106e775939b7b0dae5548dfa774fee8efc2f4649b1bf2a149fc529f93cadb2609c62ec6799d8ef0adc98e0d9d346a97a2f6071652a5773d4f638cf20dbb26e299294303bef77d80c18bca13fd290ed5b87eee458ff933527e99a14aaece1950e39ca469954ddb5ec74e65aee2756c4ff1f7f34c19243ccef75594a8f9eeb2ebb828c5ebc188dc0227f5103b8dde372404d4a1f6592a8ae0cc43c082526f8f381d7111a020d223de4270c57d3b74dfd806fcb42843fc54431f1f463dac9cdb53b54284c814cb8d7b5111f9dac1fdc54c3e032a012dbafc02c8ba0ed2d96ae1c729655bf73db93a4426a7e09d9b5b1d8404e7484afaf89bf8b279a5ff19cd5b5887182cc83956b4e779e6d4714063fc5af5baf1fe20a8e09b414a4ae36314348a0a15579461f8e5ba2a00e3c0237895667ef0ca7331352a57426be79287d5d0a430c55f26a930481e3d220d0e1017262f53808290c0c2dcf405101328515c608d92a6c8f00d13143b484c4d696c6e76858b8ca0b6b9bdd0dbdedff41021242e3335363a64809bacbbbfd3d6e3e5f0f4f9fa0000000000000000000e1a314701fd210500608471602ce953d1ca0fe6c0144dc96e3d104e1e55691139817121190def90283d6bf688b291bf707ec8a14a038c1e285696426a3d761f758bba9ffd2e7fbff744309ee798ac4aff6cfc64b0f25f250eaabb4a09eefad24618542351971e9fb52241159ceab8eb2bcadd169c35ef4883960a53e34a9248f56ec914fab7bfb9c3940a892e17e271a87464fcaf34d668fc302bf3725dc09e953c28cf0fd28a9a7a5dc79ac86c47440ea390c469c85e46917b32a8e9f171362b415e163e9c8259a5ff09efc6ee7c1ce672afacc404c7e00b61b5fd8ce6356d4292f3b50fb3626b4c4f816dd182693ec0f3bf26928463c8b33fdf31ee93de28fa6d3bd1e7236c1d9a5375fdb8211e7884c4debe483046697142b7c5b483b10c6fc7b430f23238f9d853a1ebbabfbc8b5b2a868d30c1ac074b4d57cbb42e69d431c66f6a37cc44d1a848cf3278611b36c99c3d2a1d29eb8067184a2189c290aab26e0c40e3ec48e911edb9a4bde88c18bec4e91f61d0f357cd030ba409d27422faedb7439fe2a28f90bba0f4a7273084e487b0e7b73d2e03da070c6da8904b45050de33cfa27d97911cd0d7e8ca54f24b8e340fb9de807aac85877fbf0967f717cfc3ea6358e8a7c46edff47a66c724d5e3e49e6306f9d03c6b54f7378abdb561639e503bd255b1b25a19a51612bf5be63b5f2c9d2cd8ade9fd12c6bb79defd8b3cfaad2b01f8cedb75ea4b3425d7dafbc37d55b2e70578955b4b79495b97c43733009584d4c25a929bb5823b5be78597b386e28dfad5217679f37967751c81410c44f5375cabd4b210d83c59ec706a4ffe7f075f9a81cb453a43b5af28c0fe7a581aec081bc7046fa436370069c9e42eb25e4a9dc45ab53d5890dd5aa418bbb3df642cf57cad19336c2bd219b884ba1bf7f0a0b8ee84d30579f51692032a9e1d1e4205971f37147d3888729ba45342831191788a0a03ae7b69c536972d4608ffa4ade42e4b92f965d3f55507a016c4c44d72995e163e5b80212f2fff0633d1729518f6a70f9eb067435b243320e871ae739483caeecbe8977b3aefe7fd48dea6d1dcdc1ddff907db857226da6a0b85a98c008840074c572841c3febeb25ad8e24abee53e8249612ef9aebc07ee8a9946ccf06bb2b14d53d50d6b5d5c47c1748dbb4398a5fcda0a78ca2ec2126fb3b96aa4742be19ad733744f93491eced520961a1f4f0374caa6fa3d2de1fc6cf6e8375255e8d9f68b27b17888c4e84880e87f6c3523e6754a02dfa6973355e773380ddfe31a9cedae3be8d2fab9cf58f98f694b2d5b8f51cf20ec9ebe7402ffe4b68f1fd97837ba153480ebed903a2f2cdc3befcd676b3c64ab97df33d99046ec8821affc3bac474fc7124946793dbc9ececfff69187ceef29e0ed3f119857797531d4abb8f14ddebd2ce38d90a22a24d7e45211aab15af43388dd4fe2ed29f165cc94fa594ce1e7a809c7465b1c29fdac35206606593505f8789c094bf9072f12cb7c7d0ddb2054cec5ff901f3bf86cb2b715053eca771c13d8fb76bf8966e8a92cb4b567fc9379ae5dfa0ffe2d7920e61b9d65991d982bfa593653137719ea7739e1b66b962c8c44324614cd843b55b504763d66bbad2248b5ec45951e2035608d51d4f22740a1896f80c96e726f930d1093a085d6295d2647e8e492deb51a24625d347daec55f7b56a0d9587094e57092fd9fb9f8fbdc09deae52ae7c04c8473fe624a6781d549945e4bd77a964e3adab4fa1eb90d363e70b875e2458820616cc5e3c814274be8134f855d733363102c58ff08f62b1622aec7b3d69ccafa74fda6088f133eda188b174b1925e161d7e3ce91d709844859fa82574000000",
  "txid": "81b58539e0068f651c6a766abb1ae80b9f15158c2eabade2fa9cb8e5f4dbd4f1",
  "hash": "15403672ece4fb5d217929195ad2ba455def18a87abcb9fa5eec8597d2e3851a",
  "size": 5085,
  "vsize": 2278,
  "version": 1,
  "locktime": 116,
  "vin": [
    {
      "txid": "26c2f75a0c2f2998227b9e6972c4774015750fc94afc91cbf56b101f7f28b990",
      "vout": 1,
      "scriptSig": {
        "asm": "",
        "hex": ""
      },
      "txinwitness": [
        "aa6243dc12136b5595d641cc6427033c01686338016998ad3181549fbafeacd4d40869fef545148eacc0ac32b6d38c12599f4df87dc727eb8fcac54496619812f6b3a10a9acb0d3981a8348879e3d255535a0d0453ff20e772678de446c3de679526885befa52850ac2b2cd14bceaed1430faa5fafd15075fa0d462d6428fdf5e6abf208494595360df6326640c51247f448f0cb05ac21e19eca381d1d2d572c350d4f8465bad0f40dcf7d9fec1d7d5feacccc54c596548c77bd8fc7a4e85c23b654f7e3cf1bdc4a43d9cb1f979342fe80de869cd7f5c7f2210694bb295250ecbf2959e730eec9de75f42ef644738284257f7104b77aa16ce35dedecd5566539aed16d74bd59102e2baa3cda626fce7e2bab17ab680c164dc67945949674898b279e49c4f04571a8b7d24c7aea4ccbf9537faa88a03c89c01bc30aa72a0b04c8d5c56a12f2e3a2d90965cf1ee9d1a1bb502da4390740789cfa849a0033d4f912dbe700bde79c7d37be2d590fac65ea08f054856abb729bb61afe4c8e7695b568713f12a17d77a56cc6620e25d5ff447ae55e189dcbaa0a6547b8ef3f0d703e83c5b8523ecad227860f894f5100483a3e9e6efeaec9061d4ec13565b82fcae21cb82eeeb8668344e53f7b3ef0adf9a0f89ee33580da28d32f16f9998c2268031793551d90aa1d97e92bc7c5e314eae02dcf7544e45f5afa64b7a8c9901962dc3e28d63e4d12a8687e6d17fb9bcf20c84b1b00632d030aae1f216019ffdd9fd3b3e8ddb2a040bf29eaa5d8c3061493813a4c1a7f49ca78dcf139f844807f2bb206deb5cc889c1b06a86f27f2960b74688eb5aec3f54a5e29c3d8703f9ddee036e7abad57573d8884956350677848202159741ed4015b20af5c5c16efe56f74208f7fd3f394d3b7b98897a604127e477390a60e13fe6e4453e7a6ab8193720fc16557676effc38d31c29f98346ee4d38ba80f501e1b73234bbc45d38f91fe3a35b36e3fee109701de6eee516233cc01f7aa0e8e9d20e0b7a7cd248ab8385b66b08edf82ea7f863f9e9831e060cfdf098312759df1000fad2c2ddfcbc36992201139524c9be97558a6839af0723155723f244a0b1ac4bee3923a70d9109c5bd3ce164eb5a81f5c9798e70fa1bd004e0bdde27fd6557ddab1611dd4bc29cbb6d9f9355776a6ef5eab14681e1f7e8dc2d7dc282a7b4ee0769c7807711186f20c7e88cdf51f4473d8477a3867315e31efb04ffd4aca8d0488220f86c4c8cd14966c487201b97e297895ca66c2c2514c88dd58fbd34ee05329873dfa36089f4ed0cd407b0ad68fb8f114cb59b5f8264b797fa4081fa744ad93cfa4815c6c822c434a1f78352ebd892f332f70504db39a908bc26ba9e1479ae31fa5be6d5ea37d97fd11876422c9fdcf59c3590bff9ba6e536be2c42eeef624c4dd4d558b2e7d07d04016fdf5d4cf41296b33b2886492f9b265a2d928cdd943358e3c19d8f750280cc769ceacbdf8b4ba1176cbc6eb574a9d17e7c838195e3025a45726c723b50d166af0eb3080045a9cbda3c69f8e18c93579d8eb21c92d5ed6fb84954a7953ab99577d2f608f7f06f31bd639593f1150afb50336bc98b0034774e1a6f043c71df21d8191031198d2b5bd47ff1ebea1e97caf3ed3a9ed08fa3e6ff9902c4f2e77ac650db0617cb9b18bc2e498a6aac03cc4bb9610278f5e4336e90c669c8572c02e17ce4ef3f3ca2395d22e6e4f4df5568e6c5348f87b422f3985b6c9238588785d8cf3aeff52f9236c69c12601bf3c2cc2a45aafdaac62f21b562e5272972b9fdbb9871dbabfc3876893f5fc0cf4d884758e9fb89f54de088456256f98cf985e86a03dd87ecfc375b4ac3605ccbb6ed5b5fd8f4c92af8be1254b63117ce650f817d61129f1c0a9ab83c4931e1d37ad92e4534d5f785960da9d84877cd21a8fe9f345ac53d1f37cbabe2f0ce666fc35e1cf35375fc8b0da9ba70d7c0c876f8c4667b154a09a90e157d3d32ed2fbb2dd1e335806e34d9be725a0cd0dbad48c5f149839b37f9d6dffab82eae638c7b34fde7f356c9420bd00c1587ebe0e9cf67dce3297f3214382f28635055d6b7cf277aedcf34d38bbc51dfb74f1a2bba938f53826a45db4f3861b5d0319f57516ad0711751900b8006349fd23af988db460cc4504f5c89ebc5c8a6f14b08d8a5a8173f3355127c8a84c58736ab50eb9f6914d90f9e38e4020b0a27148543b9f97e0027d7b698ef2bbcf1d757f1a687adf73d3dd1cf9fc29333f76f8cf71639b3a378c34f46357f5a9ed4ef945eeeed2448e9fc99ddb4f1f92a2673ae4b1117e3b0303d1710ad90f0ee0b8d64d3ec80820c9715318e142bed1c2b87e98bc04c392cf074722b910c5df7e1a5d5cfff490c9b46cac8e836886b1cb7c17408b2b58ef9ec3f4a001a054144fc01a2c16520faaf1d104d3d6e00c96c2e1d2d4d2f0cbb4fba8582b80c82713fe8d27168576eeca64691aad23da07b56cf68ac619351fc6eb393b5a8ef5075436610d1ec613e672cae6d75529958635cf7bc297f1dcb0a4f6b5611e281d4bd1bde483487187b7ee6b3387208b3f7a0a241cbbbe32d3c101cf515535d66e1d0c980adb3caa97ca043bd9ab5dcdec15001e4cc058fe474e5baf7e7489812f098c9ccea9e8e8635f20ae26cea201b5b9b545bf79644841fda8b5fc9a067d7cc03d5860c780ba10a37a89a2307a1c2a8cdb96ba9731b0c42b9bf759148caac763fba1d3be26c270852e280775238cc0c772a4c80236ff149c0e3b54708884f0d23216feb5ca73707304e40861587b23b17514535a6eb0a58001a9bba184a6d57c2dad5c91849d106e775939b7b0dae5548dfa774fee8efc2f4649b1bf2a149fc529f93cadb2609c62ec6799d8ef0adc98e0d9d346a97a2f6071652a5773d4f638cf20dbb26e299294303bef77d80c18bca13fd290ed5b87eee458ff933527e99a14aaece1950e39ca469954ddb5ec74e65aee2756c4ff1f7f34c19243ccef75594a8f9eeb2ebb828c5ebc188dc0227f5103b8dde372404d4a1f6592a8ae0cc43c082526f8f381d7111a020d223de4270c57d3b74dfd806fcb42843fc54431f1f463dac9cdb53b54284c814cb8d7b5111f9dac1fdc54c3e032a012dbafc02c8ba0ed2d96ae1c729655bf73db93a4426a7e09d9b5b1d8404e7484afaf89bf8b279a5ff19cd5b5887182cc83956b4e779e6d4714063fc5af5baf1fe20a8e09b414a4ae36314348a0a15579461f8e5ba2a00e3c0237895667ef0ca7331352a57426be79287d5d0a430c55f26a930481e3d220d0e1017262f53808290c0c2dcf405101328515c608d92a6c8f00d13143b484c4d696c6e76858b8ca0b6b9bdd0dbdedff41021242e3335363a64809bacbbbfd3d6e3e5f0f4f9fa0000000000000000000e1a314701",
        "00608471602ce953d1ca0fe6c0144dc96e3d104e1e55691139817121190def90283d6bf688b291bf707ec8a14a038c1e285696426a3d761f758bba9ffd2e7fbff744309ee798ac4aff6cfc64b0f25f250eaabb4a09eefad24618542351971e9fb52241159ceab8eb2bcadd169c35ef4883960a53e34a9248f56ec914fab7bfb9c3940a892e17e271a87464fcaf34d668fc302bf3725dc09e953c28cf0fd28a9a7a5dc79ac86c47440ea390c469c85e46917b32a8e9f171362b415e163e9c8259a5ff09efc6ee7c1ce672afacc404c7e00b61b5fd8ce6356d4292f3b50fb3626b4c4f816dd182693ec0f3bf26928463c8b33fdf31ee93de28fa6d3bd1e7236c1d9a5375fdb8211e7884c4debe483046697142b7c5b483b10c6fc7b430f23238f9d853a1ebbabfbc8b5b2a868d30c1ac074b4d57cbb42e69d431c66f6a37cc44d1a848cf3278611b36c99c3d2a1d29eb8067184a2189c290aab26e0c40e3ec48e911edb9a4bde88c18bec4e91f61d0f357cd030ba409d27422faedb7439fe2a28f90bba0f4a7273084e487b0e7b73d2e03da070c6da8904b45050de33cfa27d97911cd0d7e8ca54f24b8e340fb9de807aac85877fbf0967f717cfc3ea6358e8a7c46edff47a66c724d5e3e49e6306f9d03c6b54f7378abdb561639e503bd255b1b25a19a51612bf5be63b5f2c9d2cd8ade9fd12c6bb79defd8b3cfaad2b01f8cedb75ea4b3425d7dafbc37d55b2e70578955b4b79495b97c43733009584d4c25a929bb5823b5be78597b386e28dfad5217679f37967751c81410c44f5375cabd4b210d83c59ec706a4ffe7f075f9a81cb453a43b5af28c0fe7a581aec081bc7046fa436370069c9e42eb25e4a9dc45ab53d5890dd5aa418bbb3df642cf57cad19336c2bd219b884ba1bf7f0a0b8ee84d30579f51692032a9e1d1e4205971f37147d3888729ba45342831191788a0a03ae7b69c536972d4608ffa4ade42e4b92f965d3f55507a016c4c44d72995e163e5b80212f2fff0633d1729518f6a70f9eb067435b243320e871ae739483caeecbe8977b3aefe7fd48dea6d1dcdc1ddff907db857226da6a0b85a98c008840074c572841c3febeb25ad8e24abee53e8249612ef9aebc07ee8a9946ccf06bb2b14d53d50d6b5d5c47c1748dbb4398a5fcda0a78ca2ec2126fb3b96aa4742be19ad733744f93491eced520961a1f4f0374caa6fa3d2de1fc6cf6e8375255e8d9f68b27b17888c4e84880e87f6c3523e6754a02dfa6973355e773380ddfe31a9cedae3be8d2fab9cf58f98f694b2d5b8f51cf20ec9ebe7402ffe4b68f1fd97837ba153480ebed903a2f2cdc3befcd676b3c64ab97df33d99046ec8821affc3bac474fc7124946793dbc9ececfff69187ceef29e0ed3f119857797531d4abb8f14ddebd2ce38d90a22a24d7e45211aab15af43388dd4fe2ed29f165cc94fa594ce1e7a809c7465b1c29fdac35206606593505f8789c094bf9072f12cb7c7d0ddb2054cec5ff901f3bf86cb2b715053eca771c13d8fb76bf8966e8a92cb4b567fc9379ae5dfa0ffe2d7920e61b9d65991d982bfa593653137719ea7739e1b66b962c8c44324614cd843b55b504763d66bbad2248b5ec45951e2035608d51d4f22740a1896f80c96e726f930d1093a085d6295d2647e8e492deb51a24625d347daec55f7b56a0d9587094e57092fd9fb9f8fbdc09deae52ae7c04c8473fe624a6781d549945e4bd77a964e3adab4fa1eb90d363e70b875e2458820616cc5e3c814274be8134f855d733363102c58ff08f62b1622aec7b3d69ccafa74fda6088f133eda188b174b1925e161d7e3ce91d709844859fa825"
      ],
      "sequence": 4294967294
    }
  ],
  "vout": [
    {
      "value": 1.0,
      "n": 0,
      "scriptPubKey": {
        "asm": "OP_RETURN 9dfb0737fb3d2b418dcf08f2d4726e8112d399b98115135f96a9d70435572df4 d480700d65663e5995b9520ab7d5c5686dcefedfc77fa5be3f79bab181724b18f4a0502d45461e79b599722a97f5e5484deedeffe75f859e1f599a91a1526b3894c0304d25267e19d5f9124af79585282d8ebe9f873fe5fe7f39faf1c1320b58b4e0106d05065e39f5d9326ad7b5a5080dae9ebfa71fc5de5f19dad1e1122b785400f08de5e6bed91539d28a375545e8ed4e7e5f47ff253ebff93a3101f2cb987420d0adc5c69ef93519f2aa177565c8cd6e5e7f67df051e9fd91a1121d2ebb81440b0cda5a6fe99557992ca771505a8ad0e3e1f07bf657effb97a7141b28bd8346090ed8586deb97559b2ea573525888d2e1e3f279f455edf995a516192abf8d480700d65663e5995b9520ab7d5c5686dcefedfc77fa5be3f79bab181724b18f4a0502d45461e79b599722a97f5e5484deedeffe75f859e1f599a91a1526b3894c0304d25267e19d5f9124af79585282d8ebe9f873fe5fe7f39faf1c1320b58b4e0106d05065e39f5d9326ad7b5a5080dae9ebfa71fc5de5f19dad1e1122b785400f08de5e6bed91539d28a375545e8ed4e7e5f47ff253ebff93a3101f2cb987420d0adc5c69ef93519f2aa177565c8cd6e5e7f67df051e9fd91a1121d2ebb81440b0cda5a6fe99557992ca771505a8ad0e3e1f07bf657effb97a7141b28bd8346090ed8586deb97559b2ea573525888d2e1e3f279f455edf995a516192abf8d480700d65663e5995b9520ab7d5c5686dcefedfc77fa5be3f79bab181724b18f4a0502d45461e79b599722a97f5e5484deedeffe75f859e1f599a91a1526b3894c0304d25267e19d5f9124af79585282d8ebe9f873fe5fe7f39faf1c1320b58b4e0106d05065e39f5d9326ad7b5a5080dae9ebfa71fc5de5f19dad1e1122b785400f08de5e6bed91539d28a375545e8ed4e7e5f47ff253ebff93a3101f2cb987420d0adc5c69ef93519f2aa177565c8cd6e5e7f67df051e9fd91a1121d2ebb81440b0cda5a6fe99557992ca771505a8ad0e3e1f07bf657effb97a7141b28bd8346090ed8586deb97559b2ea573525888d2e1e3f279f455edf995a516192abf8d480700d65663e5995b9520ab7d5c5686dcefedfc77fa5be3f79bab181724b18f4a0502d45461e79b599722a97f5e5484deedeffe75f859e1f599a91a1526b3894c0304d25267e19d5f9124af79585282d8ebe9f873fe5fe7f39faf1c1320b58b4e0106d05065e39f5d9326ad7b5a5080dae9ebfa71fc5de5f19dad1e1122b785400f08de5e6bed91539d28a375545e8ed4e7e5f47ff253ebff93a3101f2cb987420d0adc5c69ef93519f2aa177565c8cd6e5e7f67df051e9fd91a1121d2ebb81440b0cda5a6fe99557992ca771505a8ad0e3e1f07bf657effb97a7141b28bd8346090ed8586deb97559b2ea573525888d2e1e3f279f455edf995a516192abf8d480700d65663e5995b9520ab7d5c5686dcefedfc77fa5be3f79bab181724b18f4a0502d45461e79b599722a97f5e5484deedeffe75f859e1f599a91a1526b3894c0304d25267e19d5f9124af79585282d8ebe9f873fe5fe7f39faf1c1320b58b4e0106d05065e39f5d9326ad7b5a5080dae9ebfa71fc5de5f19dad1e1122b785400f08de5e6bed91539d28a375545e84128db213aaab5b0053a2b9b3014ef48fe40eeb321e23830d3d44ed2b04177da",
        "hex": "6a209dfb0737fb3d2b418dcf08f2d4726e8112d399b98115135f96a9d70435572df44db004d480700d65663e5995b9520ab7d5c5686dcefedfc77fa5be3f79bab181724b18f4a0502d45461e79b599722a97f5e5484deedeffe75f859e1f599a91a1526b3894c0304d25267e19d5f9124af79585282d8ebe9f873fe5fe7f39faf1c1320b58b4e0106d05065e39f5d9326ad7b5a5080dae9ebfa71fc5de5f19dad1e1122b785400f08de5e6bed91539d28a375545e8ed4e7e5f47ff253ebff93a3101f2cb987420d0adc5c69ef93519f2aa177565c8cd6e5e7f67df051e9fd91a1121d2ebb81440b0cda5a6fe99557992ca771505a8ad0e3e1f07bf657effb97a7141b28bd8346090ed8586deb97559b2ea573525888d2e1e3f279f455edf995a516192abf8d480700d65663e5995b9520ab7d5c5686dcefedfc77fa5be3f79bab181724b18f4a0502d45461e79b599722a97f5e5484deedeffe75f859e1f599a91a1526b3894c0304d25267e19d5f9124af79585282d8ebe9f873fe5fe7f39faf1c1320b58b4e0106d05065e39f5d9326ad7b5a5080dae9ebfa71fc5de5f19dad1e1122b785400f08de5e6bed91539d28a375545e8ed4e7e5f47ff253ebff93a3101f2cb987420d0adc5c69ef93519f2aa177565c8cd6e5e7f67df051e9fd91a1121d2ebb81440b0cda5a6fe99557992ca771505a8ad0e3e1f07bf657effb97a7141b28bd8346090ed8586deb97559b2ea573525888d2e1e3f279f455edf995a516192abf8d480700d65663e5995b9520ab7d5c5686dcefedfc77fa5be3f79bab181724b18f4a0502d45461e79b599722a97f5e5484deedeffe75f859e1f599a91a1526b3894c0304d25267e19d5f9124af79585282d8ebe9f873fe5fe7f39faf1c1320b58b4e0106d05065e39f5d9326ad7b5a5080dae9ebfa71fc5de5f19dad1e1122b785400f08de5e6bed91539d28a375545e8ed4e7e5f47ff253ebff93a3101f2cb987420d0adc5c69ef93519f2aa177565c8cd6e5e7f67df051e9fd91a1121d2ebb81440b0cda5a6fe99557992ca771505a8ad0e3e1f07bf657effb97a7141b28bd8346090ed8586deb97559b2ea573525888d2e1e3f279f455edf995a516192abf8d480700d65663e5995b9520ab7d5c5686dcefedfc77fa5be3f79bab181724b18f4a0502d45461e79b599722a97f5e5484deedeffe75f859e1f599a91a1526b3894c0304d25267e19d5f9124af79585282d8ebe9f873fe5fe7f39faf1c1320b58b4e0106d05065e39f5d9326ad7b5a5080dae9ebfa71fc5de5f19dad1e1122b785400f08de5e6bed91539d28a375545e8ed4e7e5f47ff253ebff93a3101f2cb987420d0adc5c69ef93519f2aa177565c8cd6e5e7f67df051e9fd91a1121d2ebb81440b0cda5a6fe99557992ca771505a8ad0e3e1f07bf657effb97a7141b28bd8346090ed8586deb97559b2ea573525888d2e1e3f279f455edf995a516192abf8d480700d65663e5995b9520ab7d5c5686dcefedfc77fa5be3f79bab181724b18f4a0502d45461e79b599722a97f5e5484deedeffe75f859e1f599a91a1526b3894c0304d25267e19d5f9124af79585282d8ebe9f873fe5fe7f39faf1c1320b58b4e0106d05065e39f5d9326ad7b5a5080dae9ebfa71fc5de5f19dad1e1122b785400f08de5e6bed91539d28a375545e84128db213aaab5b0053a2b9b3014ef48fe40eeb321e23830d3d44ed2b04177da",
        "type": "nulldata"
      }
    },
    {
      "value": 499981.6958,
      "n": 1,
      "scriptPubKey": {
        "asm": "1 9ad8ce4361ae2de0629ee0a4a50047f275fbf46afbdef8335d5278ec7e6ff94c",
        "hex": "51209ad8ce4361ae2de0629ee0a4a50047f275fbf46afbdef8335d5278ec7e6ff94c",
        "reqSigs": 1,
        "type": "witness_v1_scripthash",
        "addresses": [
          "3QJmnh"
        ]
      }
    }
  ],
  "blockhash": "73359bfd0a4582986ffd1e7664419d7a0ef7b090643ab62685454f7a097cd719",
  "confirmations": 1,
  "time": 1764179247,
  "blocktime": 1764179247
}