{
  "hex": "0100000000010193875a82b3ef8c5186b259753c47d6527828662b54c1ccf99e626f6fc5a8c9060000000000feffffff02702338c0782d0000225120bce1e126b154125e5743ca709391d53cf9c463d41fce7f120174fa995aa75a5500e1f50500000000fdd5046a204c9f1b8677c52ff9998b32e450ed0d641f496a239adeaea61f37ac04b0bca5cf4db004410596f7d5939a799f11106eb63c1931c5bb811a670f44acd816fd4cf18078926125b6d7f5b3ba59bf31304e961c3911e59ba13a472f648cf836dd6cd1a058b20145d6b795d3da39df51502ef67c597185fbc15a274f04ec9856bd0cb1c038d22165f697b5f3fa19ff71700ed65c7951a5dbe17a076f24ccb8769d2c91e018f2c185167755131af91f9190ee36bc99b1453b019ae78fc42c58967dcc7100f812e1a5365775333ad93fb1b0ce169cb991651b21bac7afe40c78b65dec5120d83281c5563715535ab95fd1d0ae76fcd9f1057b41daa7cf846c18d63d8c3140b852a1e5761735737a997ff1f08e56dcf9d1255b61fa87efa44c38f61dac11609872410596f7d5939a799f11106eb63c1931c5bb811a670f44acd816fd4cf18078926125b6d7f5b3ba59bf31304e961c3911e59ba13a472f648cf836dd6cd1a058b20145d6b795d3da39df51502ef67c597185fbc15a274f04ec9856bd0cb1c038d22165f697b5f3fa19ff71700ed65c7951a5dbe17a076f24ccb8769d2c91e018f2c185167755131af91f9190ee36bc99b1453b019ae78fc42c58967dcc7100f812e1a5365775333ad93fb1b0ce169cb991651b21bac7afe40c78b65dec5120d83281c5563715535ab95fd1d0ae76fcd9f1057b41daa7cf846c18d63d8c3140b852a1e5761735737a997ff1f08e56dcf9d1255b61fa87efa44c38f61dac11609872410596f7d5939a799f11106eb63c1931c5bb811a670f44acd816fd4cf18078926125b6d7f5b3ba59bf31304e961c3911e59ba13a472f648cf836dd6cd1a058b20145d6b795d3da39df51502ef67c597185fbc15a274f04ec9856bd0cb1c038d22165f697b5f3fa19ff71700ed65c7951a5dbe17a076f24ccb8769d2c91e018f2c185167755131af91f9190ee36bc99b1453b019ae78fc42c58967dcc7100f812e1a5365775333ad93fb1b0ce169cb991651b21bac7afe40c78b65dec5120d83281c5563715535ab95fd1d0ae76fcd9f1057b41daa7cf846c18d63d8c3140b852a1e5761735737a997ff1f08e56dcf9d1255b61fa87efa44c38f61dac11609872410596f7d5939a799f11106eb63c1931c5bb811a670f44acd816fd4cf18078926125b6d7f5b3ba59bf31304e961c3911e59ba13a472f648cf836dd6cd1a058b20145d6b795d3da39df51502ef67c597185fbc15a274f04ec9856bd0cb1c038d22165f697b5f3fa19ff71700ed65c7951a5dbe17a076f24ccb8769d2c91e018f2c185167755131af91f9190ee36bc99b1453b019ae78fc42c58967dcc7100f812e1a5365775333ad93fb1b0ce169cb991651b21bac7afe40c78b65dec5120d83281c5563715535ab95fd1d0ae76fcd9f1057b41daa7cf846c18d63d8c3140b852a1e5761735737a997ff1f08e56dcf9d1255b61fa87efa44c38f61dac11609872410596f7d5939a799f11106eb63c1931c5bb811a670f44acd816fd4cf18078926125b6d7f5b3ba59bf31304e961c3911e59ba13a472f648cf836dd6cd1a058b20145d6b795d3da39df51502ef67c597185fbc15a274f04ec9856bd0cb1c038d22165f697b5f3fa19ff71700ed65c7951a5dbe17a076f24ccb8769d2c91e018f2c185167755131af91f9190ee36bc99b1ced5cf9e0000d60e3369ba2cddd13e3e9a422b703afae6dd2ae7f761b8b9ecc602fd75091c0c724f97d03923aefc9f9f6696382628d81c2a91565a92edab9ee0d91f39be3569bd5fa56ce54f2865e7d85ec73a29d0f772cc51c9d9f91f77aef05309290fda92d7d5150c212f96ae81ce0110e3f3d6b1cfcddf68c0b25e3474cc0d3a77ec4abbd929f7868d7fc1500b2c3392b16006b582348ddd290bf46b96ca40d61b255084f2c259ea65d74c682f969e17b4c8f81b4c75851eeb52a33c583910f5ad6f91a3fe6d95703b8e97bd36f221c95d692df8d16dc4da9467ee9c52bf139dda7aa51d277604459b9dc5e0bb944ffc755d96c8d1237bdf6c27ee30726f0338f7db64ba47c596e458f51c3975ed8a437db322c8207fa508939ba605d28bf4f0047ea9c03e4b6b7428bff349126d785d976e080967b877689f8b295a1eb8ccb25503692f8bc10b70d8bdd9dd9bff8d8bc3412870e16687c5e9c923899eddf454d396c8c3e818278cb980a43b2cf713ca2be1ad95eb59fcb1628aa57e106b9c7ffd2a9408ac70c2cc70936c335ce9b3915eba0a3236d2886dae2b29fe511fc628911dae4c958ff27b55f9698fa70e8c7cecb9dec31193f7d0b9e11d6151c82cad62218f9b7fa89b2539e80ef94e91b17e9283c748f102b38e02ba97558d60ec3bde1695fc2b99efbebe4e03048d476e32f2b7beeb515261f10b3b36052b2cf64d76ffa21d63a20a4d0ff6a34989a98145b3bf6e28d8170b3c0bb904a9738fb80018db1caf2ec50416e0120cb00d8c45d812974a56d3452c58fb939a59a4c8b6ce397d9ca0bf63dd2bb99ad88e52a3de58a701b42dcce59f0f8fc2946bef50c27b47c697ad53381627a49751e4885570991f7fbb3f85d858dfd927a8f5a5c21bf6753355ee74d7e5687f29f8d768e5fbb265094997faa8340a8817270775d9594b155b76a6b463571e5df910ae909056da47775e7e146affe78a95224c61f7c7b482310bafa2093360cec921e5386e0543e1d1be3b59e610887219e3f32c7e3a7c2da8feb4ea35dffa7f13c56a48ffcb6d1b8de5f03434f8192c728f63aec7cd4ccb577439159c5745ba940c29bf0eb39901bc3128354aeb73996feb7be74bd09fcc3cfee0d0ff4ef20290a8fbddb6b7d5c9512e58e6c2f17232e3c22a2edd0e67f65d83253c22a002538e5170379b7f3e4b349a5f5d2f384b3da3efc20dd177f3d59bdac7acdb92d43042fb020d23e0a0bdc8b1a93cd7fc06a532c7f7a2ad67439fab1eea2781aeb895ad4da0c65a6a095af355e3b06539bad670331ae94076f8a1f7a92cce820a250e05a6f92bb1bc7e93d57215814b4888e31235478bae0e3821ddb43e15b5cc89cfeaf17ee34039e87c54e276e04d8d02567572298046bc0b154681456668e470ff0ec2da251d8f7e88be1a6eb9967877d3599deeba9f51651d9fd1d97d645de588aa1797750c0538fc7e08695dcc3ca520452cd19977c4ce514b04d3d52673cd4cc9218279e2ffa010c5504dd8005abd07eea3610bc7e7c02584a823baebbad6fb02f0f892ba3b4defa25e29060cc27841ab3ac54c0c4fc8e9d22042cc43ead8209f2b17912cd480f768ac8cb39d224f4d29c42300b6d3803ec57586f0d99ad91d7645e99bf9b1788d267039f394a63d76d706daf200bf9dfe671398b09728a7e6a3a7d272be981472d900ac4b0f9a1e72d772a37d93664978dd7e64e5abb9c1078678c9a27eb64e8dc0927a9b78e58749b6db8f62acb0a7a34a26bc0c3fa11e8ad0850c690ea6b53da404fdacdae4b339669e099094dc8d21ff2855128436bca09e0e6b8bc74c82ed676c446440474b824993b9d87bf094aec1ffb128aa14f81a6d955999ac81edf1aedc8f7cb3be8b68b0b4ffe9d18bb718cd5643ed96ffc4b1546801d2d7b18c11cc4797c314b05667c585dbafe4561d0da31465ea310c6d1633faf86902d20d2f12b36217bae1e100d7cb325f5392e0e856f0c81e9f811bfb808d8cf8d92b71039e87ae46e98f7fdab5fe3985331b522e95e0db551d6c9bf935fc1802fc4287fcd8dade52b7839eebe6b541780ecc822565a363d9b7b3b171349da42ba1b03cef171592455470c92793458604725ff23bf10803c2a7c58fc5b8844670fc8625d914b64febb3a3a7d13f3bc41a8355c48893c35cf3aa4dc0f2c56c9ea41fa75ef979a6838628f098f858d847ebdbee53c1d7db1dda8917414e46db05bdea748b590773652fcbb8d866c2030d1bd271e82b2b625480d1f4f9b0920cd46327ea48232551d5888e22b9f823fb3bcd65cb2f6280bebbc592c6ca29915a7c47b797145137b9335e4d440cfa3188edeff4adcedf60ce1d9471fe332fea7da06985fe662fa950ecca7f9223db43ab20310daab2ea6400aa8bc392836d15aedc2b27a1fec57f861dba4a422584715e1edc4ca3a4ccb6c1e0412d738a3b4d95d31b5809abcea9c7fd5fbc047f9dc9ccef74efbfcf2a16c6723900c5345e6dd1cd284ead3f3c71619b349aa2fc027e850f54440f0e1b0bb4e333fe9e060ce686b499f2ef80510e29294ead771917a36bb1dcefe44560b7fb5cea431e643fffa2417151fe7d7404f3beeba4cd87fe90875e1f034e8bfc21098bd855a078f29eaa8a05379ca8d9582cf40b40be25ff4a7cc048fff69389e5098ff09656d81b5b88b2952ba2ea10ca69f947a43e2183b61f2584b173d36b6ba7f8205ed3f6ebffcb64ffae8f9d2e62557cecc1d59086a79737f9dd8ff032d84dfdd4c840e34dad10b364cae567a9700dfbfa02f5f5788ece04336874df3287acdb7ac34a44cda6750ae24f5a7c242c768f1828181371ef108ea295ca601cfd8ee9dcffe525c2139704dc1928bffb20e9062dbc9348fab68f629b2b8adbfe53f91a267961b58c4e15fd449df91c8db7daf1c054d96d7b9fb6754dc5f37b9caf79a0971d69a663434f5b46ac042c9df49c54b989e48428c59ea6cb192668ec4d00e852e50a6ba8289bc0ff8b467774b205b847f2c3a8f110004910df3a389c4bf7a6c3050a165acdbaeb8327657452118ab212e9838dce9e27008e4627416933900ea7f1a2939a8e57deedf719b29660d9c45e384f78d192c4daf3380002b312bcaf6f1b6afa67828868a8e93b807df81e2b045d40f9451b56e95c7293a760b1dfd110bb7060fe0820bb7340b753a24d360d86c61a82f3e745da722d8511168a7b8a82a58f96dd9de6bebeef661527193a3ea4f1be9a8fc1775100dd4d435e976f92ec0268c52b120bcb7c9cd43e9038cc0c5d5e3d9ac4bab77ff1b62a6084e42ad68fee9c063abdb9830eb8cb22b7eec7d339fdac67a674a61d70d579fb9210404548676a777a91999cc4deedf1f8fa010b0f3b3d4d585c646587898b999da4fe111b3d457a829ca0a2a6b4c4c5d7dbddf4fcff010306073b5a7d87b7b9bad2dff6fbfd0000000000000000000000001021344401fd210500437bfe695e25cccde1bcd79bad3ed48fe9fe217ef901eef473b78403b497903654401d07228d961bb8e61d510145432a4bd98792703b7373139b9a3b4aeeb957e02b3a4fdb029ed5f26d631d5cfa770ecf5adda51a3ca0b271b0cc1933dfa45aec993c5992bf85de6fb9800bef7aa10647c7d9ae014f007f00c5931f9e643cfff61bdfbaf11a7dac0030c8a01109e2747aa043f3b230c543fdb732ae768e33cc17c50dab133f2ddcb00c4ca9ab3869521c7335b2afd3dd8ef00614bac27c78a2a7b4decbd87724c321172e3e4df17daefa623c2edc0687c9f33c42c4f5c34297a9af00934481f025f3e77b70f587305d4895b6822f018066ec52570856e72ff306b3e60268fb8d9c7e9adf4945961beab4033a2a2d222a657fec4b23abc7680e75a16cebff24d2cbe22da2cc1ef2db0c9f389e82049220975d680933d87f76417f06105aa2f221ccf606f2c8ca86fd75febfdfb1b43433da4066aaa071b2ebd211925382bf8f030ad1ed476bc0c492bcbafd6393ca4eedb642a7c1bb56699a38991b159e13a975ef515c8018084ba18fd2b25d825f09ededc8b78529f6d10a4ae4ed784b3ee2a9e4a29343f3f9b5f26bb92a1d1469b8f2b166db90d318d57028c3a680c0bfd3bf0a70299016e8aeb3bc27c2f7ce579b07e81c47fb0e0584d0a8145dab42b92c26863e96704f106651e3dc047ed685eda17041ce1530b450710dceaadfc9fe39b6dd6c3f30a597e2cab266c2b5efbd697999dde0236e58949a008105fd94f352c170eceec254eb6a96035373f557176f952037e0caa1f47aa62760750e635c426e3a58a928ac1840595a3ea59e67cd2b3d5e06322e3b672859cb79a1ac9f660ebfa9b19e911661915f91983aa2c695dd73667ff78454a888497107ee09770d3d7501277c20542554696fffea374cef2d83dfa6c99bbfa232fea0186321fec941a12ea0b8244c7309fcafcedef5356381cd0740f0da144007d10b09565726db7a212f99562fc524ab73ff6eb91f84ff99d25b64589f686bae911dc579637b26617d23c71bddd02616a652f1d1b22a6f368698188329512e47773b094a42a678c9ce7d254a3b65c6a9fadbb951ac962a61f159839a6fa30fb626cf78e11014af3db6b09945872eba2c24850d31ef3836492859648e58bed62547ef55dbb2e00cff7c62a2c5e794ac03f08f60f7a7b8b3d1c22538692330fb38bf5ae7c83a06a75363afd08fa6776e264fb2f63f55cce63606c9aedf479ae55d24c0f52c60722213b233cd50d175ee920ce82114a59c36a8e599a239e4708080fe39785dbbf1822f97db8f04970dc9122cd935d603102d8f6bef829153b9255cc79c90275ae98c1e9b2dfff89fda54e81bf417e568636aa54fd7319bfa5f267da4900f35ba46e3c2b31b81f03c870bdc6fa552db8ed59c33610532d3cdccdba4036791803e67546e7d9ef6e70172fa4b75e162d977aa381e92e63e6e84670927d5c48070bace107e5f8090989f29c0d3243ac5dd11c7bb2e00c12848c4a991884408bf4ecac51d36d8ee722b2b1b897c353343c48961cf5671d29b61000e4fae865b7f63a91bf99e0efbb51a60f06e0a190a1ba5eeb45c9be1f4d53c7c2d30a13efffbf72745780784e77ed17e6ad758f5ae79d34e74bc92d28c0f1a858976e8d402aa47b51cfdb2ae8e8b690418c8aafeb392be8fb1cec81e8a8ce15bf807dd8bcb7329cd4e89d35232ccd25935fd1d710142e4d15d32535c5d0421700b638930622ef554b8ee088f08fd7cc8f2b7982e225f4c6dcd2663cd90bcaefabb79ef336ad02fdf9d773b43047c2326373186d0c34bc63033752103cc49925a76ea11876c83000000",
  "txid": "856e85df13c822a081efdd0e0ede93e442ad94ed377494b81e8139aedb8d4f06",
  "hash": "04c90ec7bfcb9d812386863842f129fdb891f9f1176ea1eacb384228a9e67e77",
  "size": 5085,
  "vsize": 2278,
  "version": 1,
  "locktime": 131,
  "vin": [
    {
      "txid": "06c9a8c56f6f629ef9ccc1542b66287852d6473c7559b286518cefb3825a8793",
      "vout": 0,
      "scriptSig": {
        "asm": "",
        "hex": ""
      },
      "txinwitness": [
        "1c0c724f97d03923aefc9f9f6696382628d81c2a91565a92edab9ee0d91f39be3569bd5fa56ce54f2865e7d85ec73a29d0f772cc51c9d9f91f77aef05309290fda92d7d5150c212f96ae81ce0110e3f3d6b1cfcddf68c0b25e3474cc0d3a77ec4abbd929f7868d7fc1500b2c3392b16006b582348ddd290bf46b96ca40d61b255084f2c259ea65d74c682f969e17b4c8f81b4c75851eeb52a33c583910f5ad6f91a3fe6d95703b8e97bd36f221c95d692df8d16dc4da9467ee9c52bf139dda7aa51d277604459b9dc5e0bb944ffc755d96c8d1237bdf6c27ee30726f0338f7db64ba47c596e458f51c3975ed8a437db322c8207fa508939ba605d28bf4f0047ea9c03e4b6b7428bff349126d785d976e080967b877689f8b295a1eb8ccb25503692f8bc10b70d8bdd9dd9bff8d8bc3412870e16687c5e9c923899eddf454d396c8c3e818278cb980a43b2cf713ca2be1ad95eb59fcb1628aa57e106b9c7ffd2a9408ac70c2cc70936c335ce9b3915eba0a3236d2886dae2b29fe511fc628911dae4c958ff27b55f9698fa70e8c7cecb9dec31193f7d0b9e11d6151c82cad62218f9b7fa89b2539e80ef94e91b17e9283c748f102b38e02ba97558d60ec3bde1695fc2b99efbebe4e03048d476e32f2b7beeb515261f10b3b36052b2cf64d76ffa21d63a20a4d0ff6a34989a98145b3bf6e28d8170b3c0bb904a9738fb80018db1caf2ec50416e0120cb00d8c45d812974a56d3452c58fb939a59a4c8b6ce397d9ca0bf63dd2bb99ad88e52a3de58a701b42dcce59f0f8fc2946bef50c27b47c697ad53381627a49751e4885570991f7fbb3f85d858dfd927a8f5a5c21bf6753355ee74d7e5687f29f8d768e5fbb265094997faa8340a8817270775d9594b155b76a6b463571e5df910ae909056da47775e7e146affe78a95224c61f7c7b482310bafa2093360cec921e5386e0543e1d1be3b59e610887219e3f32c7e3a7c2da8feb4ea35dffa7f13c56a48ffcb6d1b8de5f03434f8192c728f63aec7cd4ccb577439159c5745ba940c29bf0eb39901bc3128354aeb73996feb7be74bd09fcc3cfee0d0ff4ef20290a8fbddb6b7d5c9512e58e6c2f17232e3c22a2edd0e67f65d83253c22a002538e5170379b7f3e4b349a5f5d2f384b3da3efc20dd177f3d59bdac7acdb92d43042fb020d23e0a0bdc8b1a93cd7fc06a532c7f7a2ad67439fab1eea2781aeb895ad4da0c65a6a095af355e3b06539bad670331ae94076f8a1f7a92cce820a250e05a6f92bb1bc7e93d57215814b4888e31235478bae0e3821ddb43e15b5cc89cfeaf17ee34039e87c54e276e04d8d02567572298046bc0b154681456668e470ff0ec2da251d8f7e88be1a6eb9967877d3599deeba9f51651d9fd1d97d645de588aa1797750c0538fc7e08695dcc3ca520452cd19977c4ce514b04d3d52673cd4cc9218279e2ffa010c5504dd8005abd07eea3610bc7e7c02584a823baebbad6fb02f0f892ba3b4defa25e29060cc27841ab3ac54c0c4fc8e9d22042cc43ead8209f2b17912cd480f768ac8cb39d224f4d29c42300b6d3803ec57586f0d99ad91d7645e99bf9b1788d267039f394a63d76d706daf200bf9dfe671398b09728a7e6a3a7d272be981472d900ac4b0f9a1e72d772a37d93664978dd7e64e5abb9c1078678c9a27eb64e8dc0927a9b78e58749b6db8f62acb0a7a34a26bc0c3fa11e8ad0850c690ea6b53da404fdacdae4b339669e099094dc8d21ff2855128436bca09e0e6b8bc74c82ed676c446440474b824993b9d87bf094aec1ffb128aa14f81a6d955999ac81edf1aedc8f7cb3be8b68b0b4ffe9d18bb718cd5643ed96ffc4b1546801d2d7b18c11cc4797c314b05667c585dbafe4561d0da31465ea310c6d1633faf86902d20d2f12b36217bae1e100d7cb325f5392e0e856f0c81e9f811bfb808d8cf8d92b71039e87ae46e98f7fdab5fe3985331b522e95e0db551d6c9bf935fc1802fc4287fcd8dade52b7839eebe6b541780ecc822565a363d9b7b3b171349da42ba1b03cef171592455470c92793458604725ff23bf10803c2a7c58fc5b8844670fc8625d914b64febb3a3a7d13f3bc41a8355c48893c35cf3aa4dc0f2c56c9ea41fa75ef979a6838628f098f858d847ebdbee53c1d7db1dda8917414e46db05bdea748b590773652fcbb8d866c2030d1bd271e82b2b625480d1f4f9b0920cd46327ea48232551d5888e22b9f823fb3bcd65cb2f6280bebbc592c6ca29915a7c47b797145137b9335e4d440cfa3188edeff4adcedf60ce1d9471fe332fea7da06985fe662fa950ecca7f9223db43ab20310daab2ea6400aa8bc392836d15aedc2b27a1fec57f861dba4a422584715e1edc4ca3a4ccb6c1e0412d738a3b4d95d31b5809abcea9c7fd5fbc047f9dc9ccef74efbfcf2a16c6723900c5345e6dd1cd284ead3f3c71619b349aa2fc027e850f54440f0e1b0bb4e333fe9e060ce686b499f2ef80510e29294ead771917a36bb1dcefe44560b7fb5cea431e643fffa2417151fe7d7404f3beeba4cd87fe90875e1f034e8bfc21098bd855a078f29eaa8a05379ca8d9582cf40b40be25ff4a7cc048fff69389e5098ff09656d81b5b88b2952ba2ea10ca69f947a43e2183b61f2584b173d36b6ba7f8205ed3f6ebffcb64ffae8f9d2e62557cecc1d59086a79737f9dd8ff032d84dfdd4c840e34dad10b364cae567a9700dfbfa02f5f5788ece04336874df3287acdb7ac34a44cda6750ae24f5a7c242c768f1828181371ef108ea295ca601cfd8ee9dcffe525c2139704dc1928bffb20e9062dbc9348fab68f629b2b8adbfe53f91a267961b58c4e15fd449df91c8db7daf1c054d96d7b9fb6754dc5f37b9caf79a0971d69a663434f5b46ac042c9df49c54b989e48428c59ea6cb192668ec4d00e852e50a6ba8289bc0ff8b467774b205b847f2c3a8f110004910df3a389c4bf7a6c3050a165acdbaeb8327657452118ab212e9838dce9e27008e4627416933900ea7f1a2939a8e57deedf719b29660d9c45e384f78d192c4daf3380002b312bcaf6f1b6afa67828868a8e93b807df81e2b045d40f9451b56e95c7293a760b1dfd110bb7060fe0820bb7340b753a24d360d86c61a82f3e745da722d8511168a7b8a82a58f96dd9de6bebeef661527193a3ea4f1be9a8fc1775100dd4d435e976f92ec0268c52b120bcb7c9cd43e9038cc0c5d5e3d9ac4bab77ff1b62a6084e42ad68fee9c063abdb9830eb8cb22b7eec7d339fdac67a674a61d70d579fb9210404548676a777a91999cc4deedf1f8fa010b0f3b3d4d585c646587898b999da4fe111b3d457a829ca0a2a6b4c4c5d7dbddf4fcff010306073b5a7d87b7b9bad2dff6fbfd0000000000000000000000001021344401",
        "00437bfe695e25cccde1bcd79bad3ed48fe9fe217ef901eef473b78403b497903654401d07228d961bb8e61d510145432a4bd98792703b7373139b9a3b4aeeb957e02b3a4fdb029ed5f26d631d5cfa770ecf5adda51a3ca0b271b0cc1933dfa45aec993c5992bf85de6fb9800bef7aa10647c7d9ae014f007f00c5931f9e643cfff61bdfbaf11a7dac0030c8a01109e2747aa043f3b230c543fdb732ae768e33cc17c50dab133f2ddcb00c4ca9ab3869521c7335b2afd3dd8ef00614bac27c78a2a7b4decbd87724c321172e3e4df17daefa623c2edc0687c9f33c42c4f5c34297a9af00934481f025f3e77b70f587305d4895b6822f018066ec52570856e72ff306b3e60268fb8d9c7e9adf4945961beab4033a2a2d222a657fec4b23abc7680e75a16cebff24d2cbe22da2cc1ef2db0c9f389e82049220975d680933d87f76417f06105aa2f221ccf606f2c8ca86fd75febfdfb1b43433da4066aaa071b2ebd211925382bf8f030ad1ed476bc0c492bcbafd6393ca4eedb642a7c1bb56699a38991b159e13a975ef515c8018084ba18fd2b25d825f09ededc8b78529f6d10a4ae4ed784b3ee2a9e4a29343f3f9b5f26bb92a1d1469b8f2b166db90d318d57028c3a680c0bfd3bf0a70299016e8aeb3bc27c2f7ce579b07e81c47fb0e0584d0a8145dab42b92c26863e96704f106651e3dc047ed685eda17041ce1530b450710dceaadfc9fe39b6dd6c3f30a597e2cab266c2b5efbd697999dde0236e58949a008105fd94f352c170eceec254eb6a96035373f557176f952037e0caa1f47aa62760750e635c426e3a58a928ac1840595a3ea59e67cd2b3d5e06322e3b672859cb79a1ac9f660ebfa9b19e911661915f91983aa2c695dd73667ff78454a888497107ee09770d3d7501277c20542554696fffea374cef2d83dfa6c99bbfa232fea0186321fec941a12ea0b8244c7309fcafcedef5356381cd0740f0da144007d10b09565726db7a212f99562fc524ab73ff6eb91f84ff99d25b64589f686bae911dc579637b26617d23c71bddd02616a652f1d1b22a6f368698188329512e47773b094a42a678c9ce7d254a3b65c6a9fadbb951ac962a61f159839a6fa30fb626cf78e11014af3db6b09945872eba2c24850d31ef3836492859648e58bed62547ef55dbb2e00cff7c62a2c5e794ac03f08f60f7a7b8b3d1c22538692330fb38bf5ae7c83a06a75363afd08fa6776e264fb2f63f55cce63606c9aedf479ae55d24c0f52c60722213b233cd50d175ee920ce82114a59c36a8e599a239e4708080fe39785dbbf1822f97db8f04970dc9122cd935d603102d8f6bef829153b9255cc79c90275ae98c1e9b2dfff89fda54e81bf417e568636aa54fd7319bfa5f267da4900f35ba46e3c2b31b81f03c870bdc6fa552db8ed59c33610532d3cdccdba4036791803e67546e7d9ef6e70172fa4b75e162d977aa381e92e63e6e84670927d5c48070bace107e5f8090989f29c0d3243ac5dd11c7bb2e00c12848c4a991884408bf4ecac51d36d8ee722b2b1b897c353343c48961cf5671d29b61000e4fae865b7f63a91bf99e0efbb51a60f06e0a190a1ba5eeb45c9be1f4d53c7c2d30a13efffbf72745780784e77ed17e6ad758f5ae79d34e74bc92d28c0f1a858976e8d402aa47b51cfdb2ae8e8b690418c8aafeb392be8fb1cec81e8a8ce15bf807dd8bcb7329cd4e89d35232ccd25935fd1d710142e4d15d32535c5d0421700b638930622ef554b8ee088f08fd7cc8f2b7982e225f4c6dcd2663cd90bcaefabb79ef336ad02fdf9d773b43047c2326373186d0c34bc63033752103cc49925a76ea11876c"
      ],
      "sequence": 4294967294
    }
  ],
  "vout": [
    {
      "value": 499966.4423,
      "n": 0,
      "scriptPubKey": {
        "asm": "1 bce1e126b154125e5743ca709391d53cf9c463d41fce7f120174fa995aa75a55",
        "hex": "5120bce1e126b154125e5743ca709391d53cf9c463d41fce7f120174fa995aa75a55",
        "reqSigs": 1,
        "type": "witness_v1_scripthash",
        "addresses": [
          "3QJmnh"
        ]
      }
    },
    {
      "value": 1.0,
      "n": 1,
      "scriptPubKey": {
        "asm": "OP_RETURN 4c9f1b8677c52ff9998b32e450ed0d641f496a239adeaea61f37ac04b0bca5cf 410596f7d5939a799f11106eb63c1931c5bb811a670f44acd816fd4cf18078926125b6d7f5b3ba59bf31304e961c3911e59ba13a472f648cf836dd6cd1a058b20145d6b795d3da39df51502ef67c597185fbc15a274f04ec9856bd0cb1c038d22165f697b5f3fa19ff71700ed65c7951a5dbe17a076f24ccb8769d2c91e018f2c185167755131af91f9190ee36bc99b1453b019ae78fc42c58967dcc7100f812e1a5365775333ad93fb1b0ce169cb991651b21bac7afe40c78b65dec5120d83281c5563715535ab95fd1d0ae76fcd9f1057b41daa7cf846c18d63d8c3140b852a1e5761735737a997ff1f08e56dcf9d1255b61fa87efa44c38f61dac11609872410596f7d5939a799f11106eb63c1931c5bb811a670f44acd816fd4cf18078926125b6d7f5b3ba59bf31304e961c3911e59ba13a472f648cf836dd6cd1a058b20145d6b795d3da39df51502ef67c597185fbc15a274f04ec9856bd0cb1c038d22165f697b5f3fa19ff71700ed65c7951a5dbe17a076f24ccb8769d2c91e018f2c185167755131af91f9190ee36bc99b1453b019ae78fc42c58967dcc7100f812e1a5365775333ad93fb1b0ce169cb991651b21bac7afe40c78b65dec5120d83281c5563715535ab95fd1d0ae76fcd9f1057b41daa7cf846c18d63d8c3140b852a1e5761735737a997ff1f08e56dcf9d1255b61fa87efa44c38f61dac11609872410596f7d5939a799f11106eb63c1931c5bb811a670f44acd816fd4cf18078926125b6d7f5b3ba59bf31304e961c3911e59ba13a472f648cf836dd6cd1a058b20145d6b795d3da39df51502ef67c597185fbc15a274f04ec9856bd0cb1c038d22165f697b5f3fa19ff71700ed65c7951a5dbe17a076f24ccb8769d2c91e018f2c185167755131af91f9190ee36bc99b1453b019ae78fc42c58967dcc7100f812e1a5365775333ad93fb1b0ce169cb991651b21bac7afe40c78b65dec5120d83281c5563715535ab95fd1d0ae76fcd9f1057b41daa7cf846c18d63d8c3140b852a1e5761735737a997ff1f08e56dcf9d1255b61fa87efa44c38f61dac11609872410596f7d5939a799f11106eb63c1931c5bb811a670f44acd816fd4cf18078926125b6d7f5b3ba59bf31304e961c3911e59ba13a472f648cf836dd6cd1a058b20145d6b795d3da39df51502ef67c597185fbc15a274f04ec9856bd0cb1c038d22165f697b5f3fa19ff71700ed65c7951a5dbe17a076f24ccb8769d2c91e018f2c185167755131af91f9190ee36bc99b1453b019ae78fc42c58967dcc7100f812e1a5365775333ad93fb1b0ce169cb991651b21bac7afe40c78b65dec5120d83281c5563715535ab95fd1d0ae76fcd9f1057b41daa7cf846c18d63d8c3140b852a1e5761735737a997ff1f08e56dcf9d1255b61fa87efa44c38f61dac11609872410596f7d5939a799f11106eb63c1931c5bb811a670f44acd816fd4cf18078926125b6d7f5b3ba59bf31304e961c3911e59ba13a472f648cf836dd6cd1a058b20145d6b795d3da39df51502ef67c597185fbc15a274f04ec9856bd0cb1c038d22165f697b5f3fa19ff71700ed65c7951a5dbe17a076f24ccb8769d2c91e018f2c185167755131af91f9190ee36bc99b1ced5cf9e0000d60e3369ba2cddd13e3e9a422b703afae6dd2ae7f761b8b9ecc6",
        "hex": "6a204c9f1b8677c52ff9998b32e450ed0d641f496a239adeaea61f37ac04b0bca5cf4db004410596f7d5939a799f11106eb63c1931c5bb811a670f44acd816fd4cf18078926125b6d7f5b3ba59bf31304e961c3911e59ba13a472f648cf836dd6cd1a058b20145d6b795d3da39df51502ef67c597185fbc15a274f04ec9856bd0cb1c038d22165f697b5f3fa19ff71700ed65c7951a5dbe17a076f24ccb8769d2c91e018f2c185167755131af91f9190ee36bc99b1453b019ae78fc42c58967dcc7100f812e1a5365775333ad93fb1b0ce169cb991651b21bac7afe40c78b65dec5120d83281c5563715535ab95fd1d0ae76fcd9f1057b41daa7cf846c18d63d8c3140b852a1e5761735737a997ff1f08e56dcf9d1255b61fa87efa44c38f61dac11609872410596f7d5939a799f11106eb63c1931c5bb811a670f44acd816fd4cf18078926125b6d7f5b3ba59bf31304e961c3911e59ba13a472f648cf836dd6cd1a058b20145d6b795d3da39df51502ef67c597185fbc15a274f04ec9856bd0cb1c038d22165f697b5f3fa19ff71700ed65c7951a5dbe17a076f24ccb8769d2c91e018f2c185167755131af91f9190ee36bc99b1453b019ae78fc42c58967dcc7100f812e1a5365775333ad93fb1b0ce169cb991651b21bac7afe40c78b65dec5120d83281c5563715535ab95fd1d0ae76fcd9f1057b41daa7cf846c18d63d8c3140b852a1e5761735737a997ff1f08e56dcf9d1255b61fa87efa44c38f61dac11609872410596f7d5939a799f11106eb63c1931c5bb811a670f44acd816fd4cf18078926125b6d7f5b3ba59bf31304e961c3911e59ba13a472f648cf836dd6cd1a058b20145d6b795d3da39df51502ef67c597185fbc15a274f04ec9856bd0cb1c038d22165f697b5f3fa19ff71700ed65c7951a5dbe17a076f24ccb8769d2c91e018f2c185167755131af91f9190ee36bc99b1453b019ae78fc42c58967dcc7100f812e1a5365775333ad93fb1b0ce169cb991651b21bac7afe40c78b65dec5120d83281c5563715535ab95fd1d0ae76fcd9f1057b41daa7cf846c18d63d8c3140b852a1e5761735737a997ff1f08e56dcf9d1255b61fa87efa44c38f61dac11609872410596f7d5939a799f11106eb63c1931c5bb811a670f44acd816fd4cf18078926125b6d7f5b3ba59bf31304e961c3911e59ba13a472f648cf836dd6cd1a058b20145d6b795d3da39df51502ef67c597185fbc15a274f04ec9856bd0cb1c038d22165f697b5f3fa19ff71700ed65c7951a5dbe17a076f24ccb8769d2c91e018f2c185167755131af91f9190ee36bc99b1453b019ae78fc42c58967dcc7100f812e1a5365775333ad93fb1b0ce169cb991651b21bac7afe40c78b65dec5120d83281c5563715535ab95fd1d0ae76fcd9f1057b41daa7cf846c18d63d8c3140b852a1e5761735737a997ff1f08e56dcf9d1255b61fa87efa44c38f61dac11609872410596f7d5939a799f11106eb63c1931c5bb811a670f44acd816fd4cf18078926125b6d7f5b3ba59bf31304e961c3911e59ba13a472f648cf836dd6cd1a058b20145d6b795d3da39df51502ef67c597185fbc15a274f04ec9856bd0cb1c038d22165f697b5f3fa19ff71700ed65c7951a5dbe17a076f24ccb8769d2c91e018f2c185167755131af91f9190ee36bc99b1ced5cf9e0000d60e3369ba2cddd13e3e9a422b703afae6dd2ae7f761b8b9ecc6",
        "type": "nulldata"
      }
    }
  ],
  "blockhash": "3357cb4dc001b5acbac31fcce3a77df76b11eaba9a4d126a2528d529fe11213e",
  "confirmations": 1,
  "time": 1764182290,
  "blocktime": 1764182290
}