{
  "hex": "010000000001014d7a581d30a7655541a59af703a3b5ebc163fbf1fdbd893b2833fac3c4baf7030000000000feffffff02f0ceba8f782d0000225120e265f23c21c5788786d2df9ec98dc1e4155d2e71a6a54fe58a078980e8bb53a900e1f50500000000fdd5046a208378233cc615df8c30aee7f5801888980187a290eeda382f6d54851f5bddf86c4db004a2eb988c07864b0d06bcfb3c8540cd13917172665474988f31b000f8d612238e82cbb8ac27a66b2d269cdb1ca560ed33b15152467454b8af119020d8f63203aee2abd8cc47c60b4d46fcbb7cc5008d53d13132261434d8cf71f040b8965263cec28bf8ec67e62b6d66dc9b5ce520ad73f11112063414f8ef51d06098b67243ee226b180c8706cb8d863c7bbc05c04d9311f1f2e6d4f4180fb13080785692a30e024b382ca726ebada61c5b9c25e06db331d1d2c6f4d4382f9110a05876b2832e622b584cc7468bcdc67c3bfc45800dd351b1b2a694b4584ff170c03816d2e34e420b786ce766abede65c1bdc65a02df371919286b494786fd150e01836f2c36ea2eb988c07864b0d06bcfb3c8540cd13917172665474988f31b000f8d612238e82cbb8ac27a66b2d269cdb1ca560ed33b15152467454b8af119020d8f63203aee2abd8cc47c60b4d46fcbb7cc5008d53d13132261434d8cf71f040b8965263cec28bf8ec67e62b6d66dc9b5ce520ad73f11112063414f8ef51d06098b67243ee226b180c8706cb8d863c7bbc05c04d9311f1f2e6d4f4180fb13080785692a30e024b382ca726ebada61c5b9c25e06db331d1d2c6f4d4382f9110a05876b2832e622b584cc7468bcdc67c3bfc45800dd351b1b2a694b4584ff170c03816d2e34e420b786ce766abede65c1bdc65a02df371919286b494786fd150e01836f2c36ea2eb988c07864b0d06bcfb3c8540cd13917172665474988f31b000f8d612238e82cbb8ac27a66b2d269cdb1ca560ed33b15152467454b8af119020d8f63203aee2abd8cc47c60b4d46fcbb7cc5008d53d13132261434d8cf71f040b8965263cec28bf8ec67e62b6d66dc9b5ce520ad73f11112063414f8ef51d06098b67243ee226b180c8706cb8d863c7bbc05c04d9311f1f2e6d4f4180fb13080785692a30e024b382ca726ebada61c5b9c25e06db331d1d2c6f4d4382f9110a05876b2832e622b584cc7468bcdc67c3bfc45800dd351b1b2a694b4584ff170c03816d2e34e420b786ce766abede65c1bdc65a02df371919286b494786fd150e01836f2c36ea2eb988c07864b0d06bcfb3c8540cd13917172665474988f31b000f8d612238e82cbb8ac27a66b2d269cdb1ca560ed33b15152467454b8af119020d8f63203aee2abd8cc47c60b4d46fcbb7cc5008d53d13132261434d8cf71f040b8965263cec28bf8ec67e62b6d66dc9b5ce520ad73f11112063414f8ef51d06098b67243ee226b180c8706cb8d863c7bbc05c04d9311f1f2e6d4f4180fb13080785692a30e024b382ca726ebada61c5b9c25e06db331d1d2c6f4d4382f9110a05876b2832e622b584cc7468bcdc67c3bfc45800dd351b1b2a694b4584ff170c03816d2e34e420b786ce766abede65c1bdc65a02df371919286b494786fd150e01836f2c36ea2eb988c07864b0d06bcfb3c8540cd13917172665474988f31b000f8d612238e82cbb8ac27a66b2d269cdb1ca560ed33b15152467454b8af119020d8f63203aee2abd8cc47c60b4d46fcbb7cc5008d53d13132261434d8cf71f040b8965263cec28bf8ec67e62b6d66dc9b5ce520ad73f11112063414f8ef51d06098b67243ee226b180c8706cb8d863c7bbc05c04d9332ef5b54f70500b97d07340b486fc6c26f26c21592f5155ab9c74ba060de6ef602fd75091f9270e61ab6ee9b2276fd749edb4dcf39f15f1b836429dcaa54f3efec04989734560732d13766c447a43d3f906215a99260da80ef97081ecf18807b4bbefd6c13bc6c5db3044681e9dddbb816c55abf6077aec66a33db6b9c2e558d0e20be60b78402be1a79d13c6e03624c92ffb1dfdd8d33afb8032197e51f40029ae51d84f619100b3b3d5fc60eb101bb5776fb2a31a2dd941fa13bee7e21ec749da8e1a8413063244ced6c6cd1e8cb08da851b85243ce4c74d2a544a8c522308f7e33f8ffc283bec9d8b04a62e77cedbb284adb73cc72861917b339047ddee7fb9b1d82e73c1826d97a8dcdef32b570996544cfc3c80495e873173dbb571cbac8706828010e318ce227cbdcf6494b1d127021fb66eb2c788878905b084b30ddcdb5c3894aa2e4cdc58b8be1f0bc9e26bbfde589413c747d40437bdda744431ca3887c64b31cccb47f2f99cd7ff5fa0c96c1e27122b8273b8f89b8e3698d2349b830dd947cf06c5d4a083e10fb6f676ad689ba5d3afea456b2877f9ba1430665cb6885a542b073fccb00cfef6074a71e54f86bbe18b34f2f878f91506c31eb6d6e11484a34774c5a4b000fc9c509fb14d93423fdae6462a1159297e0384c8115ae76dd39ece690ec6e6851416dc39f577fbaef80def030aea52ecd49dcc4cfed5704ef04fa58b16a13c3e09e626411c1ebd6cb239d2765a0a5f1db8a9bbefc2e109da3e28794fdd7c9208578d26ef4164b638603656b3c7f600d0907a97b61143c1ea1a63c3ccf6846eefa8f309712ec85784a35f6131adf305b400b944390142c58102882b50dc949f9b407ab93abfe7badfa66deb0c7dd3c607fa5b41c5ab3f024bb336c715086d1ede6cfe13fb939ad76850b48102b2b28aea77767ba16871879acb6e8f1773c2088bf4d241058d994ea92d01f0cfc875024a024de50d737dd6b943d3a23a100f18a32f1a0882f23e066df409f7321b433a11cfdf45701b40cfe597b423c6c411931810a1f5e15c50849f96c4b5686c9a9bd1a7b2984654fa747bd53d413159c813df28460511cdee15286aa4351f856dc2ebea89f00e651e152a9e72a921d818de8ecfe9aee3347a0c4a278fc14f55451c5157240227dd017f299877a0757c8ecdef9cec3077257baeff095d8780c2b1b53ede1a1c91c40eeda88fd254deeff2b12763b1b549f6a8287f068d15c5c441c85e710fb093c24f152372af1d04c6d8146d4bdc3fa79f2520bcccd27f307abcf9e71a2b1bcbfa54f1fd85ed82aa9b5dda943c073cf4b360e2d74bda7ca53934585fb29cb33d2c03766105207baa7fcfb1532afcb52f5abfbfe1385718ad774348a61d3473d97da48456ebd7974c51a779e8fc259dcbe0e8e1924b8a1984b288d7faad5c4d65a1965c67d3b4443825863436ace2570db4801a6ebccfe48870689959ab23af3263c1772f5efcdaa0b9bf6b7f76e0e5c040d5dbd02e3c2e35e9ef825b7091d46eecc7399e63119c973c4a2ce581c410ba536e6b3d52e7e8ee1efdccd5135f06527bd33d10bc143379c066c7bf05e8b65f8447ed31042676c53b960ccbf8ccef5abc084683f38eaa37970307d6846939ab147142075f6be65b0b14647a07d1902157cc069fcad3e1e5b5814f426ee85e6ba667c5fbd4efd0513a9d0187656f84b8230fda91db8d9ff4726e36cecf656108e26f871c0ad427da15f9a6906f9650f1bb5b71a66bdf0ffb7cabb10e6f79fe5dd187ec1c532098c940ba738ec25fe0fac9a5e8097ca6da6573a261c36f08eaab5c8765f1dd72c64aa5169c0296a00f5ed0cbffca2924207a4a038468eb5ae9cc582ca7eab741b82456acbe220fcd7aa214f26c3332db846159ab2adf79c0beba70e7ce6eddb1afd667a42972c1474c7fed7c6cff1806c96e5359ea53a6eb59ae6e9d10069cae1bac46bd9252bd9706e64de136f81295b2ae34684fd5b24d282cc894594b26ee40a7fa01d8577a527de984b464aad0e0bee1c5aa363d548f3e45f55d2d0b56d177ae5177cb2153cb8c413cc29cdc0eea88dc0fed95a2001a6a0caa8de38b775ecf8636079d07caf016b5b8e9f47d7b881a2df75fea2530ec54d72d34f57c3f8bb74b35b40d85d3fe42557f26b5ba1c9ab444984d7b927fc9ae9a3ef89fd1424c963f7a71343973168e6f52269c23331ecc72a2d24d11327b6d8545d83af2f8d4bfa6ae81eb05b9d2dacfc659530d5e1211289a90909eab3e7d79820062835dc3e648c8eb92b425cf3344476ab2b1939b33c84c5705e7a6d8548e0424b8e0d15c0349f7316d29d556e111dfcb9a859da7a74f2a1cf0639e09e92684eb0ddca31fba2b07055515d83a2038463c34ff682a438bcdf1dc051e076876244dcb922a3cf1eb8ff83e46714917ab1bd258c33a8eb8483062a5baebc4824252e200761b7cb51380ba58dc107d02ec4b3addf7ecfaa8306cd1b72d1d6c205e553e68435230d47096cdd1c7452040d2bc5855a12841ab4bafeff42beef89c1474e0763d886217145249b41f79644829b97512859104167a3eb1162c7acf9034cab7a4571d52a41d4883f605f98ddebbc253a980b87e0d075c696b39406b51f0748c7d0603c60c55be6b22d591b5e5ee2b2dc3b0f908826c20c972cd1ff5f490bc0e163e73c79f9a34c01e9157464f3c473fd40d471970041ba0a9911a8a9af36fdb6d662fa3a432f856d1d7820da67e4ca306755449bf0401d196feaf75721ec08de8b11bf9be45a86f012c30cf4ec33f983a7e7ea1d593a2cd76515e1f11f43c28acb6d2634b1140de614c1599e2cd5b6b4c4bb770377095abf203539d9d30e6a1c8f88c70e04f42d9db744005d0ed0a3c93e3d6964ff735561807ee33aa4df1ed15e062951edfa9f9a9790cca34968a1bd6edd8fb6cc6de78f96cd93173d4afacc5a08d73c288d04175fe4c9c417e2212b6f10f7d2b26f0b74f85cee4723cdfe2151e5ad872f5dce29b3e700925ca6d7a69075450a38a0e00d55a22d3510642fb47ed39b213541868f93367b442f256ae64120c607671d82e653fb508182cd874ae7f79ba7943f3f39c3867d40e659e0a8fe97086abf724ddfb5fa4e8c07f4573d9181cbb879ace2cd603080a345842d0db554ea24e8b6c9754847bb47ae122cab390e79a5b4663cf52568854f01869d1816d5ece16ac0d91cbe0a58b2fa19ebe73ec02e64a18b64b4cac59aeb3bb59d3987a3e83ac69ff002fb0dcc0ac67e107f0769d0479b906b1113f4c15056ba485e9f5a87451d74c1ad576038da8cf10779240835bf0bc21b536fde73787688f557cbfca3f141d6271828a98cbd8e419353e48545d64666a789fb8dfe2edfbfc023e4e546d7689e5f0f3131c222c4a4b6a6e7aa3a5b7bcf5fb000000000000000000000000000000000000000000000000000000000a1b253401fd210500825a265d51581773254b2419aec8d45cddcc83aeb1415bae3247c742e44dce82a1b1be895ee00ea2b121ae51cbf1b17adb243a47685ec8f859a7c17e3ae7a91436e577bb2a3ba5c3902f0763d6e4391e4f345d1c861d246283ab81e5474cd8ac0614d02961cd1a816598b78a0efad7413f66d4b7a44a63aa7c824fbf70500cb21e74fb10a5e97e22f536594e9aea5f5d4ae1359a70725d74f55f2669f1ba939187becc8482f1faf26a1601c5d19d370b11d94c2f46b927071d75c3028d1ebf3bdd027345d86e5f1e3fc19a6ad407f1f657ba3a2e54bcd300f09a2ed4a735fd3e15cfbd3008ed314cccfb89f049b2bb8f5964965c04f79534782e426e63ec86907b058f3f4266722b8a8ca4e3e8805ae22d724de66242449bc5f1f1c12ce50ebd6fa7878292c54eaa1680cb79b18555e6a80221f72a06673f19b1eceaa6490d2ee037b0064ede62c953ac3a306864d20f3fdd805d1ea126ae1fa583a3ee34cd18ed9a0624d5f10f8e0ac1ceb450c61b36d48aa2918d9051099f64b2dbf6db707b7b5c4c1b791437ad1385000bf7869363929aca95998906e431c055646dd439a6497701434b4d76fbcad5768c0f86ef6b177fbe6e4eaa6311e440ce31e956ff159e58248e4f786181de85c2d6d2ba67df67ba2a7301930f7240494429e63c6aad3a48b0ef88cd55571ec7cb94e1cb837337da01d1b4200dbf37e8591b4553791140badd386ec7165f74aaf558e496d682ba8fe4012c4866d7c55efa4b421b455195d414739eb2b591a6959ec6418d096f4751d9c914ecd2aae755a67d275cfbea1a3456683721b1db081e1bc0f63a6cc157d55c28655f119cb0fcaff331aa2d8da00bd66912dad467fa4f16c2d511760fea94739e26ade581e0f051fc35c41dfd6bdee92aeeb2cdfc164f14ed7db8223bd0ac48bc06a34b3049d66cc20b3f039c4342426a85601afc73a322dfe418bec63e3b1ee926a86fd0e45ac5bdb8f80115545b8655364827e44401795d0c7c52f8c42846b1b960d4520a0ee382bd8bfe6aa2e2c9841db8476aaed8914f55fd7064589d2a863ff4ff3f4383831e24d0757907724fe1154abeb4fc5293d7f48c0b29c9889794faf655c82c234b539c10d46f622a5c4e8327005bd8ff08ad9a4f8e0edf8388aade190703c2955fa63a383b619de192553b8ba40168e10bab2d8a21bb373e37a58be7e94be7131c13cf51c30ed21e80fc83e9d572284aa31f8e36ea0e6de4692f0d93e9f4abee23fc70df037d6eecf69b0e2495082ed2c615428baf8eea89c322eb381b7f448d4ec590e5f8fc5f74a41dc3b85472f20682bcf266b28d75e060cd43aae18af96ab8344ca4807172ffb1b990cb5e898d297d092e761e9e6a8fe4a249f91585acef7977d5b80c1319b64a0839c6820049ce5919fed8c2e3e18184a47f3808fa4cf18fc495a2d2799e2edddaf581025f68ca2d8f711ccf842dac98f4fa92ca9636564f81adf144f2782ac5b769ad4b3d4037b8d31ea415724774224e5b5f6daa97be652526c9d22c07663a929bbfce44a0e9d376fc5a84fd1abadfa3c311a9dbc3cd060c8583a8cbb11ab636da2109ea050a34adb74a2782c3e12589ecd4212553cbbe31915cd663123f3224c9d8da296a661b25a8de0db817ae422468b1e438289ebbe8989f86a45522fe511c7f78a2da76ddad2d3bec0a5fbde5de9f159515190ab1fbd6c7c747b35c69e7cb15124a51c75dab8f4a999f156c258050b61b0501b7c8556aa3203a863059ffc5e953ef8a34fd3753568311d28282cb68801ddeff9badf428d9ec5646fe4b06babef0905997000e84fce598469314a7d34c4c110df25f1f41fb61368b000000",
  "txid": "8f6ecbe742df51f8fafde7825524a4c31a9824c3535631ae8ea3c83ec2f6e5fa",
  "hash": "fb545384a57de9c48fdc00ab0bb7e5b529df9d0f7f66890fa85c02d164337553",
  "size": 5085,
  "vsize": 2278,
  "version": 1,
  "locktime": 139,
  "vin": [
    {
      "txid": "03f7bac4c3fa33283b89bdfdf1fb63c1ebb5a303f79aa5415565a7301d587a4d",
      "vout": 0,
      "scriptSig": {
        "asm": "",
        "hex": ""
      },
      "txinwitness": [
        "1f9270e61ab6ee9b2276fd749edb4dcf39f15f1b836429dcaa54f3efec04989734560732d13766c447a43d3f906215a99260da80ef97081ecf18807b4bbefd6c13bc6c5db3044681e9dddbb816c55abf6077aec66a33db6b9c2e558d0e20be60b78402be1a79d13c6e03624c92ffb1dfdd8d33afb8032197e51f40029ae51d84f619100b3b3d5fc60eb101bb5776fb2a31a2dd941fa13bee7e21ec749da8e1a8413063244ced6c6cd1e8cb08da851b85243ce4c74d2a544a8c522308f7e33f8ffc283bec9d8b04a62e77cedbb284adb73cc72861917b339047ddee7fb9b1d82e73c1826d97a8dcdef32b570996544cfc3c80495e873173dbb571cbac8706828010e318ce227cbdcf6494b1d127021fb66eb2c788878905b084b30ddcdb5c3894aa2e4cdc58b8be1f0bc9e26bbfde589413c747d40437bdda744431ca3887c64b31cccb47f2f99cd7ff5fa0c96c1e27122b8273b8f89b8e3698d2349b830dd947cf06c5d4a083e10fb6f676ad689ba5d3afea456b2877f9ba1430665cb6885a542b073fccb00cfef6074a71e54f86bbe18b34f2f878f91506c31eb6d6e11484a34774c5a4b000fc9c509fb14d93423fdae6462a1159297e0384c8115ae76dd39ece690ec6e6851416dc39f577fbaef80def030aea52ecd49dcc4cfed5704ef04fa58b16a13c3e09e626411c1ebd6cb239d2765a0a5f1db8a9bbefc2e109da3e28794fdd7c9208578d26ef4164b638603656b3c7f600d0907a97b61143c1ea1a63c3ccf6846eefa8f309712ec85784a35f6131adf305b400b944390142c58102882b50dc949f9b407ab93abfe7badfa66deb0c7dd3c607fa5b41c5ab3f024bb336c715086d1ede6cfe13fb939ad76850b48102b2b28aea77767ba16871879acb6e8f1773c2088bf4d241058d994ea92d01f0cfc875024a024de50d737dd6b943d3a23a100f18a32f1a0882f23e066df409f7321b433a11cfdf45701b40cfe597b423c6c411931810a1f5e15c50849f96c4b5686c9a9bd1a7b2984654fa747bd53d413159c813df28460511cdee15286aa4351f856dc2ebea89f00e651e152a9e72a921d818de8ecfe9aee3347a0c4a278fc14f55451c5157240227dd017f299877a0757c8ecdef9cec3077257baeff095d8780c2b1b53ede1a1c91c40eeda88fd254deeff2b12763b1b549f6a8287f068d15c5c441c85e710fb093c24f152372af1d04c6d8146d4bdc3fa79f2520bcccd27f307abcf9e71a2b1bcbfa54f1fd85ed82aa9b5dda943c073cf4b360e2d74bda7ca53934585fb29cb33d2c03766105207baa7fcfb1532afcb52f5abfbfe1385718ad774348a61d3473d97da48456ebd7974c51a779e8fc259dcbe0e8e1924b8a1984b288d7faad5c4d65a1965c67d3b4443825863436ace2570db4801a6ebccfe48870689959ab23af3263c1772f5efcdaa0b9bf6b7f76e0e5c040d5dbd02e3c2e35e9ef825b7091d46eecc7399e63119c973c4a2ce581c410ba536e6b3d52e7e8ee1efdccd5135f06527bd33d10bc143379c066c7bf05e8b65f8447ed31042676c53b960ccbf8ccef5abc084683f38eaa37970307d6846939ab147142075f6be65b0b14647a07d1902157cc069fcad3e1e5b5814f426ee85e6ba667c5fbd4efd0513a9d0187656f84b8230fda91db8d9ff4726e36cecf656108e26f871c0ad427da15f9a6906f9650f1bb5b71a66bdf0ffb7cabb10e6f79fe5dd187ec1c532098c940ba738ec25fe0fac9a5e8097ca6da6573a261c36f08eaab5c8765f1dd72c64aa5169c0296a00f5ed0cbffca2924207a4a038468eb5ae9cc582ca7eab741b82456acbe220fcd7aa214f26c3332db846159ab2adf79c0beba70e7ce6eddb1afd667a42972c1474c7fed7c6cff1806c96e5359ea53a6eb59ae6e9d10069cae1bac46bd9252bd9706e64de136f81295b2ae34684fd5b24d282cc894594b26ee40a7fa01d8577a527de984b464aad0e0bee1c5aa363d548f3e45f55d2d0b56d177ae5177cb2153cb8c413cc29cdc0eea88dc0fed95a2001a6a0caa8de38b775ecf8636079d07caf016b5b8e9f47d7b881a2df75fea2530ec54d72d34f57c3f8bb74b35b40d85d3fe42557f26b5ba1c9ab444984d7b927fc9ae9a3ef89fd1424c963f7a71343973168e6f52269c23331ecc72a2d24d11327b6d8545d83af2f8d4bfa6ae81eb05b9d2dacfc659530d5e1211289a90909eab3e7d79820062835dc3e648c8eb92b425cf3344476ab2b1939b33c84c5705e7a6d8548e0424b8e0d15c0349f7316d29d556e111dfcb9a859da7a74f2a1cf0639e09e92684eb0ddca31fba2b07055515d83a2038463c34ff682a438bcdf1dc051e076876244dcb922a3cf1eb8ff83e46714917ab1bd258c33a8eb8483062a5baebc4824252e200761b7cb51380ba58dc107d02ec4b3addf7ecfaa8306cd1b72d1d6c205e553e68435230d47096cdd1c7452040d2bc5855a12841ab4bafeff42beef89c1474e0763d886217145249b41f79644829b97512859104167a3eb1162c7acf9034cab7a4571d52a41d4883f605f98ddebbc253a980b87e0d075c696b39406b51f0748c7d0603c60c55be6b22d591b5e5ee2b2dc3b0f908826c20c972cd1ff5f490bc0e163e73c79f9a34c01e9157464f3c473fd40d471970041ba0a9911a8a9af36fdb6d662fa3a432f856d1d7820da67e4ca306755449bf0401d196feaf75721ec08de8b11bf9be45a86f012c30cf4ec33f983a7e7ea1d593a2cd76515e1f11f43c28acb6d2634b1140de614c1599e2cd5b6b4c4bb770377095abf203539d9d30e6a1c8f88c70e04f42d9db744005d0ed0a3c93e3d6964ff735561807ee33aa4df1ed15e062951edfa9f9a9790cca34968a1bd6edd8fb6cc6de78f96cd93173d4afacc5a08d73c288d04175fe4c9c417e2212b6f10f7d2b26f0b74f85cee4723cdfe2151e5ad872f5dce29b3e700925ca6d7a69075450a38a0e00d55a22d3510642fb47ed39b213541868f93367b442f256ae64120c607671d82e653fb508182cd874ae7f79ba7943f3f39c3867d40e659e0a8fe97086abf724ddfb5fa4e8c07f4573d9181cbb879ace2cd603080a345842d0db554ea24e8b6c9754847bb47ae122cab390e79a5b4663cf52568854f01869d1816d5ece16ac0d91cbe0a58b2fa19ebe73ec02e64a18b64b4cac59aeb3bb59d3987a3e83ac69ff002fb0dcc0ac67e107f0769d0479b906b1113f4c15056ba485e9f5a87451d74c1ad576038da8cf10779240835bf0bc21b536fde73787688f557cbfca3f141d6271828a98cbd8e419353e48545d64666a789fb8dfe2edfbfc023e4e546d7689e5f0f3131c222c4a4b6a6e7aa3a5b7bcf5fb000000000000000000000000000000000000000000000000000000000a1b253401",
        "00825a265d51581773254b2419aec8d45cddcc83aeb1415bae3247c742e44dce82a1b1be895ee00ea2b121ae51cbf1b17adb243a47685ec8f859a7c17e3ae7a91436e577bb2a3ba5c3902f0763d6e4391e4f345d1c861d246283ab81e5474cd8ac0614d02961cd1a816598b78a0efad7413f66d4b7a44a63aa7c824fbf70500cb21e74fb10a5e97e22f536594e9aea5f5d4ae1359a70725d74f55f2669f1ba939187becc8482f1faf26a1601c5d19d370b11d94c2f46b927071d75c3028d1ebf3bdd027345d86e5f1e3fc19a6ad407f1f657ba3a2e54bcd300f09a2ed4a735fd3e15cfbd3008ed314cccfb89f049b2bb8f5964965c04f79534782e426e63ec86907b058f3f4266722b8a8ca4e3e8805ae22d724de66242449bc5f1f1c12ce50ebd6fa7878292c54eaa1680cb79b18555e6a80221f72a06673f19b1eceaa6490d2ee037b0064ede62c953ac3a306864d20f3fdd805d1ea126ae1fa583a3ee34cd18ed9a0624d5f10f8e0ac1ceb450c61b36d48aa2918d9051099f64b2dbf6db707b7b5c4c1b791437ad1385000bf7869363929aca95998906e431c055646dd439a6497701434b4d76fbcad5768c0f86ef6b177fbe6e4eaa6311e440ce31e956ff159e58248e4f786181de85c2d6d2ba67df67ba2a7301930f7240494429e63c6aad3a48b0ef88cd55571ec7cb94e1cb837337da01d1b4200dbf37e8591b4553791140badd386ec7165f74aaf558e496d682ba8fe4012c4866d7c55efa4b421b455195d414739eb2b591a6959ec6418d096f4751d9c914ecd2aae755a67d275cfbea1a3456683721b1db081e1bc0f63a6cc157d55c28655f119cb0fcaff331aa2d8da00bd66912dad467fa4f16c2d511760fea94739e26ade581e0f051fc35c41dfd6bdee92aeeb2cdfc164f14ed7db8223bd0ac48bc06a34b3049d66cc20b3f039c4342426a85601afc73a322dfe418bec63e3b1ee926a86fd0e45ac5bdb8f80115545b8655364827e44401795d0c7c52f8c42846b1b960d4520a0ee382bd8bfe6aa2e2c9841db8476aaed8914f55fd7064589d2a863ff4ff3f4383831e24d0757907724fe1154abeb4fc5293d7f48c0b29c9889794faf655c82c234b539c10d46f622a5c4e8327005bd8ff08ad9a4f8e0edf8388aade190703c2955fa63a383b619de192553b8ba40168e10bab2d8a21bb373e37a58be7e94be7131c13cf51c30ed21e80fc83e9d572284aa31f8e36ea0e6de4692f0d93e9f4abee23fc70df037d6eecf69b0e2495082ed2c615428baf8eea89c322eb381b7f448d4ec590e5f8fc5f74a41dc3b85472f20682bcf266b28d75e060cd43aae18af96ab8344ca4807172ffb1b990cb5e898d297d092e761e9e6a8fe4a249f91585acef7977d5b80c1319b64a0839c6820049ce5919fed8c2e3e18184a47f3808fa4cf18fc495a2d2799e2edddaf581025f68ca2d8f711ccf842dac98f4fa92ca9636564f81adf144f2782ac5b769ad4b3d4037b8d31ea415724774224e5b5f6daa97be652526c9d22c07663a929bbfce44a0e9d376fc5a84fd1abadfa3c311a9dbc3cd060c8583a8cbb11ab636da2109ea050a34adb74a2782c3e12589ecd4212553cbbe31915cd663123f3224c9d8da296a661b25a8de0db817ae422468b1e438289ebbe8989f86a45522fe511c7f78a2da76ddad2d3bec0a5fbde5de9f159515190ab1fbd6c7c747b35c69e7cb15124a51c75dab8f4a999f156c258050b61b0501b7c8556aa3203a863059ffc5e953ef8a34fd3753568311d28282cb68801ddeff9badf428d9ec5646fe4b06babef0905997000e84fce598469314a7d34c4c110df25f1f41fb6136"
      ],
      "sequence": 4294967294
    }
  ],
  "vout": [
    {
      "value": 499958.3071,
      "n": 0,
      "scriptPubKey": {
        "asm": "1 e265f23c21c5788786d2df9ec98dc1e4155d2e71a6a54fe58a078980e8bb53a9",
        "hex": "5120e265f23c21c5788786d2df9ec98dc1e4155d2e71a6a54fe58a078980e8bb53a9",
        "reqSigs": 1,
        "type": "witness_v1_scripthash",
        "addresses": [
          "3QJmnh"
        ]
      }
    },
    {
      "value": 1.0,
      "n": 1,
      "scriptPubKey": {
        "asm": "OP_RETURN 8378233cc615df8c30aee7f5801888980187a290eeda382f6d54851f5bddf86c a2eb988c07864b0d06bcfb3c8540cd13917172665474988f31b000f8d612238e82cbb8ac27a66b2d269cdb1ca560ed33b15152467454b8af119020d8f63203aee2abd8cc47c60b4d46fcbb7cc5008d53d13132261434d8cf71f040b8965263cec28bf8ec67e62b6d66dc9b5ce520ad73f11112063414f8ef51d06098b67243ee226b180c8706cb8d863c7bbc05c04d9311f1f2e6d4f4180fb13080785692a30e024b382ca726ebada61c5b9c25e06db331d1d2c6f4d4382f9110a05876b2832e622b584cc7468bcdc67c3bfc45800dd351b1b2a694b4584ff170c03816d2e34e420b786ce766abede65c1bdc65a02df371919286b494786fd150e01836f2c36ea2eb988c07864b0d06bcfb3c8540cd13917172665474988f31b000f8d612238e82cbb8ac27a66b2d269cdb1ca560ed33b15152467454b8af119020d8f63203aee2abd8cc47c60b4d46fcbb7cc5008d53d13132261434d8cf71f040b8965263cec28bf8ec67e62b6d66dc9b5ce520ad73f11112063414f8ef51d06098b67243ee226b180c8706cb8d863c7bbc05c04d9311f1f2e6d4f4180fb13080785692a30e024b382ca726ebada61c5b9c25e06db331d1d2c6f4d4382f9110a05876b2832e622b584cc7468bcdc67c3bfc45800dd351b1b2a694b4584ff170c03816d2e34e420b786ce766abede65c1bdc65a02df371919286b494786fd150e01836f2c36ea2eb988c07864b0d06bcfb3c8540cd13917172665474988f31b000f8d612238e82cbb8ac27a66b2d269cdb1ca560ed33b15152467454b8af119020d8f63203aee2abd8cc47c60b4d46fcbb7cc5008d53d13132261434d8cf71f040b8965263cec28bf8ec67e62b6d66dc9b5ce520ad73f11112063414f8ef51d06098b67243ee226b180c8706cb8d863c7bbc05c04d9311f1f2e6d4f4180fb13080785692a30e024b382ca726ebada61c5b9c25e06db331d1d2c6f4d4382f9110a05876b2832e622b584cc7468bcdc67c3bfc45800dd351b1b2a694b4584ff170c03816d2e34e420b786ce766abede65c1bdc65a02df371919286b494786fd150e01836f2c36ea2eb988c07864b0d06bcfb3c8540cd13917172665474988f31b000f8d612238e82cbb8ac27a66b2d269cdb1ca560ed33b15152467454b8af119020d8f63203aee2abd8cc47c60b4d46fcbb7cc5008d53d13132261434d8cf71f040b8965263cec28bf8ec67e62b6d66dc9b5ce520ad73f11112063414f8ef51d06098b67243ee226b180c8706cb8d863c7bbc05c04d9311f1f2e6d4f4180fb13080785692a30e024b382ca726ebada61c5b9c25e06db331d1d2c6f4d4382f9110a05876b2832e622b584cc7468bcdc67c3bfc45800dd351b1b2a694b4584ff170c03816d2e34e420b786ce766abede65c1bdc65a02df371919286b494786fd150e01836f2c36ea2eb988c07864b0d06bcfb3c8540cd13917172665474988f31b000f8d612238e82cbb8ac27a66b2d269cdb1ca560ed33b15152467454b8af119020d8f63203aee2abd8cc47c60b4d46fcbb7cc5008d53d13132261434d8cf71f040b8965263cec28bf8ec67e62b6d66dc9b5ce520ad73f11112063414f8ef51d06098b67243ee226b180c8706cb8d863c7bbc05c04d9332ef5b54f70500b97d07340b486fc6c26f26c21592f5155ab9c74ba060de6ef6",
        "hex": "6a208378233cc615df8c30aee7f5801888980187a290eeda382f6d54851f5bddf86c4db004a2eb988c07864b0d06bcfb3c8540cd13917172665474988f31b000f8d612238e82cbb8ac27a66b2d269cdb1ca560ed33b15152467454b8af119020d8f63203aee2abd8cc47c60b4d46fcbb7cc5008d53d13132261434d8cf71f040b8965263cec28bf8ec67e62b6d66dc9b5ce520ad73f11112063414f8ef51d06098b67243ee226b180c8706cb8d863c7bbc05c04d9311f1f2e6d4f4180fb13080785692a30e024b382ca726ebada61c5b9c25e06db331d1d2c6f4d4382f9110a05876b2832e622b584cc7468bcdc67c3bfc45800dd351b1b2a694b4584ff170c03816d2e34e420b786ce766abede65c1bdc65a02df371919286b494786fd150e01836f2c36ea2eb988c07864b0d06bcfb3c8540cd13917172665474988f31b000f8d612238e82cbb8ac27a66b2d269cdb1ca560ed33b15152467454b8af119020d8f63203aee2abd8cc47c60b4d46fcbb7cc5008d53d13132261434d8cf71f040b8965263cec28bf8ec67e62b6d66dc9b5ce520ad73f11112063414f8ef51d06098b67243ee226b180c8706cb8d863c7bbc05c04d9311f1f2e6d4f4180fb13080785692a30e024b382ca726ebada61c5b9c25e06db331d1d2c6f4d4382f9110a05876b2832e622b584cc7468bcdc67c3bfc45800dd351b1b2a694b4584ff170c03816d2e34e420b786ce766abede65c1bdc65a02df371919286b494786fd150e01836f2c36ea2eb988c07864b0d06bcfb3c8540cd13917172665474988f31b000f8d612238e82cbb8ac27a66b2d269cdb1ca560ed33b15152467454b8af119020d8f63203aee2abd8cc47c60b4d46fcbb7cc5008d53d13132261434d8cf71f040b8965263cec28bf8ec67e62b6d66dc9b5ce520ad73f11112063414f8ef51d06098b67243ee226b180c8706cb8d863c7bbc05c04d9311f1f2e6d4f4180fb13080785692a30e024b382ca726ebada61c5b9c25e06db331d1d2c6f4d4382f9110a05876b2832e622b584cc7468bcdc67c3bfc45800dd351b1b2a694b4584ff170c03816d2e34e420b786ce766abede65c1bdc65a02df371919286b494786fd150e01836f2c36ea2eb988c07864b0d06bcfb3c8540cd13917172665474988f31b000f8d612238e82cbb8ac27a66b2d269cdb1ca560ed33b15152467454b8af119020d8f63203aee2abd8cc47c60b4d46fcbb7cc5008d53d13132261434d8cf71f040b8965263cec28bf8ec67e62b6d66dc9b5ce520ad73f11112063414f8ef51d06098b67243ee226b180c8706cb8d863c7bbc05c04d9311f1f2e6d4f4180fb13080785692a30e024b382ca726ebada61c5b9c25e06db331d1d2c6f4d4382f9110a05876b2832e622b584cc7468bcdc67c3bfc45800dd351b1b2a694b4584ff170c03816d2e34e420b786ce766abede65c1bdc65a02df371919286b494786fd150e01836f2c36ea2eb988c07864b0d06bcfb3c8540cd13917172665474988f31b000f8d612238e82cbb8ac27a66b2d269cdb1ca560ed33b15152467454b8af119020d8f63203aee2abd8cc47c60b4d46fcbb7cc5008d53d13132261434d8cf71f040b8965263cec28bf8ec67e62b6d66dc9b5ce520ad73f11112063414f8ef51d06098b67243ee226b180c8706cb8d863c7bbc05c04d9332ef5b54f70500b97d07340b486fc6c26f26c21592f5155ab9c74ba060de6ef6",
        "type": "nulldata"
      }
    }
  ],
  "blockhash": "fe774b47c0e88c04e0fb50de4979690042b0828e482e852985a1cce393f947a2",
  "confirmations": 1,
  "time": 1764183806,
  "blocktime": 1764183806
}