{
  "hex": "01000000000101c24734318e61ed91a86d6428ce6425c5eec9224f3facacc42af95c9ca089ea600100000000feffffff0200e1f50500000000fdd5046a200cd52b4b15d1a72fac064728578e98459eeee225fddc88c07b690656ce4b0b464db004479c656a0acf29efefe00082e12d4014c67f0170dceddac03747b7b0f6bea16067bc454a2aef09cfcfc020a2c10d6034e65f2150fccdfae017679790d69e814007dc252a4a8f69afafa040c2a16d0054863f41309cad9a807707f7f0b6fee12027fc050a6aaf498f8f8060e2814d2074a61f6110bc8dbaa05727d7d096dec100c71ce5ea8a4fa96f6f60800261adc09446ff81f05c6d5a40b7c73730763e21e0e73cc5caaa6f894f4f40a022418de0b466dfa1d07c4d7a6097e71710561e01c0875ca5aaca0fe92f2f20c04221ed80d406bfc1b01c2d1a00f7877770367e61a0a77c858aea2fc90f0f00e06201cda0f4269fe1903c0d3a20d7a75750165e4180479c656a0acf29efefe00082e12d4014c67f0170dceddac03747b7b0f6bea16067bc454a2aef09cfcfc020a2c10d6034e65f2150fccdfae017679790d69e814007dc252a4a8f69afafa040c2a16d0054863f41309cad9a807707f7f0b6fee12027fc050a6aaf498f8f8060e2814d2074a61f6110bc8dbaa05727d7d096dec100c71ce5ea8a4fa96f6f60800261adc09446ff81f05c6d5a40b7c73730763e21e0e73cc5caaa6f894f4f40a022418de0b466dfa1d07c4d7a6097e71710561e01c0875ca5aaca0fe92f2f20c04221ed80d406bfc1b01c2d1a00f7877770367e61a0a77c858aea2fc90f0f00e06201cda0f4269fe1903c0d3a20d7a75750165e4180479c656a0acf29efefe00082e12d4014c67f0170dceddac03747b7b0f6bea16067bc454a2aef09cfcfc020a2c10d6034e65f2150fccdfae017679790d69e814007dc252a4a8f69afafa040c2a16d0054863f41309cad9a807707f7f0b6fee12027fc050a6aaf498f8f8060e2814d2074a61f6110bc8dbaa05727d7d096dec100c71ce5ea8a4fa96f6f60800261adc09446ff81f05c6d5a40b7c73730763e21e0e73cc5caaa6f894f4f40a022418de0b466dfa1d07c4d7a6097e71710561e01c0875ca5aaca0fe92f2f20c04221ed80d406bfc1b01c2d1a00f7877770367e61a0a77c858aea2fc90f0f00e06201cda0f4269fe1903c0d3a20d7a75750165e4180479c656a0acf29efefe00082e12d4014c67f0170dceddac03747b7b0f6bea16067bc454a2aef09cfcfc020a2c10d6034e65f2150fccdfae017679790d69e814007dc252a4a8f69afafa040c2a16d0054863f41309cad9a807707f7f0b6fee12027fc050a6aaf498f8f8060e2814d2074a61f6110bc8dbaa05727d7d096dec100c71ce5ea8a4fa96f6f60800261adc09446ff81f05c6d5a40b7c73730763e21e0e73cc5caaa6f894f4f40a022418de0b466dfa1d07c4d7a6097e71710561e01c0875ca5aaca0fe92f2f20c04221ed80d406bfc1b01c2d1a00f7877770367e61a0a77c858aea2fc90f0f00e06201cda0f4269fe1903c0d3a20d7a75750165e4180479c656a0acf29efefe00082e12d4014c67f0170dceddac03747b7b0f6bea16067bc454a2aef09cfcfc020a2c10d6034e65f2150fccdfae017679790d69e814007dc252a4a8f69afafa040c2a16d0054863f41309cad9a807707f7f0b6fee12027fc050a6aaf498f8f8060e2814d2074a61f6110bc8dbaa05727d7d096dec100c71ce5ea8a4fa96f6f60800261adc0946f6fae28fd5ba599badc96ceeb6d6e605b734cb293be311b1b899a8f26a77f6ed0cb9045792d00002251203e3c49beb1e66aa1c8d9f362f23d2d76a2ba73a8c4c3bde206b9a316701cd3b902fd75094ec2115eb9dd609b1a79741681f965c3861487d5a156547b909faf2f0071671827d34d45b272d1eab924d664360dcf6ef0c1c3daf04e036d822d95194ac66319d51f04c6e0b198aa9830de7cc91d36ecbdc34d1c977b7fc12291e5ce720539b521b69e538f463a7726286cb333ddf8f2eeb4ea94c864ae590f73be46700a5845ddad68e5aa562a7fecaa136b4902cad0b31df3c11863efb2621e918dd072cb5dba636f0892505bcd96aea8cf9dbc429a743ceca59e35e6d676a6cbd864b7bcb889a0ac61a48417391cc72b0ba5cbf40d9a5897565755307caec4666f05b60041b424ab984022287431c412baadb7ef79738aa0362470873ef35d9c8ac4cbee6b884134447b2dca6a2e89424e542f7f425981242b84e04557dadb7e25ca6278efb5c1f347c735a653e994fdf5118b5cbd9a09c4803baa46874758dd2a95d2eab821b34030d1359d5475239607dd03959f0de95726d2971183fe035435a5b652394b88b114c9d7ac2bbe5f0ff77644c933edea766b713578fdd5f127a367f3c0d084cae819959fb185461cbe5c3a29998835e194f65ae097b3c958f0f0718f79e661924f8f3ecda2fae6cc999369ae892ab7ab0251dd542066580cd3af1b224a496696e5478e2adf1a07969da38022fb1b9f82fd54a659d594ebf8fc100bb6cf29f0347409d892a9d33a5f96301a27f02fe5f34093d6c419deb42d619275a428022df446bd0e9db28f4ac0c1496cbc9007dbef10babf36e66b8fa6d669b2162ae1fbb5c661ec2ace4def45c62995d0d22361f7e0a1667a02599c46643a02a6d8bc812a79388adbe2203217701e0dbaaa4a6b86ea02c561ffd7b078051367c6d6320e7a007f03e9f2198735564cc8e064576663d1022bd7b7ab46559294e84accf07f946dae3a04bf2b117ca731f2fc178c6d008496ad48c326bf605fc5d6687ae89348b7d708f4cb165417ed047ef41658b7aedccbd533a8de773eb7f79dfada91b9486c2c32050eb928c7000dfee3216d0f9b1fa9375db0a45d54c515a951dcb2d4d34bc779e9ac41ee3818800f4af76ecfb7208d355f559dbf7a70be144a4abd5e52732b5c88dc87ad384d3079e84e164bd07ecb2c8e08a0ea01fc9d456ed727f15b851c288d622e1f42768f100ef1811a1ffd664035f6fed0e96981b73b35d79de615e0d6ab4b3b373b6fd8c373f8f39a767ac87bd443bad8f193930ca3f9ceb5bda6bd6371eb724fc487ba86107a3a2e060fc90b5b5843479e115af056fe73cf5da8dfcdd158cf4c9cc727ac5534313ae467ff79b5f42f47c87df21251e2db8ffb90a28d6641cdcacbad9b9342165237c0ed42d1266a40f425c1297e817804cef0820a4cb0104eb72df2a388d21e6b039ee1370db48b3752e6a08a4fc94c3743f608e1c5e6a83e51f0c52c30815076020868bccd6b53e603d180afd3511a7a1f25a6c84f14a7273486e5a39de6189a0d95ec2fc80c3f8a7ee6764a5ba51bfe9bda9a5f524637621734f87e7e5aca661df7988fff623c39be7dc8399cd49fea16a0cf53f895c40239cc58902571cd046b453ac4ce9aa5514f66cab61565a89190551c42b7ddd8a41ac1873536ab534deb5216608a2c01e76efa88971c846d18dcd392031fad0bdbf979f846254a27d69a80b1237efd40bdc05de453c7c9f28d5abc6f1d2adcce71d6849ada5af5252c02a6b42e9fd8b1e40f7696fa93ca6b9e6e2c6959b404ea5758d4fe7d885bb17884823e67c7fb71ee9ade0648beb0b207186610da779c34a29ae9d5f2b5370bddfafa48e3b5e153ba07d9e615780e0e44171106471cf9ff7513e1ece8ea408e514a44597ce6493f8fcff92a4e3ffe6442cbfb03f6e1ea74e9100970aed54f187a031f83e182293c2c36d49484dcb16c500ee8f977b1bcce759505d5e0bbb0bd9d36a18e14f80c7ea53a6dc799f532236e40bab8b5708b7d7cd1ab7d0ddbc21938d191adb28648faf217ce364d67efd0660f24d1f24a6187d31eecef5784fbbbfde2f047a075a7263d05b2c53fe5fbf94531b326a49764eec829791628f9bc1a27dc1a1c0fedddd6b720bea6369e60c704ca0fc4cc6636a42c0831a5adb2430287a3919fca5a2a0000a4d75e2e971e7e7466185d88c29d998c507c7d33ae99456040b97ce30e373203d504e0055c6f70da7885107fa1656945f6052de798e6aa5c1a02ab618446426b3510c4848487cf15822a3ceb8ecd888c264e3afe48de2a9626b4ea1a5ba39cabc9d12adf6ecea837dea87515aa67000e2eb1a55f1ee7cf1134c88136a20664ab621913128c3adbee402d8e544a3ae51989a7c9c02bcf501eb0b6c8584a4463befd3bdba5839506697c2968a33c56c08d73a6f7a5a1330bcc6614ef09cd3105168fc10dec912f9a46ac97205baeb810ed3e2944db00ba2e80bc99a99b0519596ee36acdcaca917a8cbdc2bd68995433a724ed9a220abb7c9ada88cbdbe24209d6dc95c0c54438f4ba8e9f5e1466e813d63b8a309a04d7134e5c438d002c3b0e2cb6ffda592c8eef4d6f3d79a77d248f0456b541fa30eb5dbf97c563370d1cdacc2363f0fb565331be5f3f01504a98a3fdbe83875882e30c54bf28244076691e660867d3909d6040ee416731c346f2c22f4a3b9a15884be12f1a476c19a336f830c9af65b0ef10b4afb13e9397c629b69ab953c3b0de3ca95990a0d44dffec0248347d1abb3069fede794ada23076c4076143065786673046a49e3b0e199886451af3278aba10555e84daad82712cd3224718a55b15c8804a58d9c037a50085b9984fc8f9671ea0bf3a8d81f1d0fc244352195cb7eee0b1786548aed1350cf486e9c5105cf517ee36016b5390173f9f2104b158ba6dbd7637e9a11d24597cd89aa123eefcb79b0aa9f605314f0608e1cbd6d8d366a1fc9f6654566d189dd95096699ef656ac7fa8631502e8d164702502f19f0a2c5d2f112f77ee7d7a82cf8a9b68229f6df690a300da18ef71fe2603808a070a005299fc5a30de8c6b214bf14c9e4ca474545552260b13ca38fb0ceb74e610b3841270a29a6c63a7053ae122ab70f020e98ee10c33cef43801f0fc734bfa6050e42d4583c7aa5856d2e5426fe182e9a0e63b7cd090fa6e698548139785c3d8eb424f245d4ed07feaaf0016467eab0fb2f623295d12d3476da7d0b9de97b681fd0cd04f116888d378cf303868bf130e7d4ff507b8d1bfa8e21f428a62ca8d1b01ba9cddfe16a7a3ef31574a583547af0bec64382b54d382c53057d27045e3a947eb7be5bca0661788a3ad45b041d5e48db2756d3cf770204101f272e60828b8fa3a5aaadc3cce708375156628cabc0f3fb0a0f26334c65687ca4b0b7e3e9f2fb080b0f1d67758390c7d4e5ec0000000000000000000000000000000000000000000000000000111b2a3601fd21050081c23194b97191b789881eebec001e561fedb8b5cfb3cb48e106eb6f71b237791f5320d1b9507e7dee660b392edbcc9c68acab048bb0a6c44b8a9e60479b737f99a3cab86b9d93e16cc2cde1c13aa13874f188366d7bc1df3947afcd9288d56566ad263310288269dc0d43c9036cadf1a111db44450963c44c80f0e5cf08e569cb7641b18ad05fc92153cfe59f2476537f507363eb9e6bee2b26f5d9fa5a19b65f6876b7609e90cc9bf24b88168f9ba82c05214ac9dba5146e2ac05b56891c0a072bdb26337af5b08362da11e884c2d4647f918b8b83b7e488481c7d39b5d4bfad7cd5681a33f351d24ce524f15389e1c056272b26ea94532f6bff7e70446229bbae9e4e5b9dbfd81a8f79a4af0019922e495abfba9a3e68401125d7b39371c91b78c1ae30548215b1da993d9efd22c81e1c3099c3452b6e4ee8f54d4e274e0fdd1f1bb0139e207dbadc58cb2e61c6e33d186478d67cd4a6d74e328622679a3dc7957b81e8fb10ff269bcb880e5f05cc3d6792678cc194062c84fdf20407c4eddb191f3be92208b1173f4e2403a44ed2a1dd97dd993653fdbc79ce526ad66ff4834f5ace73f6496e8471ccd432302b05bbc283d95daa1d1bae0ca80f46ccbc8e7aa9fc30d9af0bbd9bd6e74a151671588c8839f2473b00a2e07516c9ed1401fc2c7de0ce6fdbc3cefd17fc27294dfbb7c1fd30a22af4f5e6d9b78a56e7b33b32f1850dddccfbbf5d8c3f0a6a38a010f3abc81e41a39d68bf8a66f7ed4d1395589ce3c57605d47971eea723ec302915d90e7212dea39446d3e8754cc79e69cb08b5f5e6ad562465b5357939c3c083ad629d755d93cfc0a31235e6ad28bde33d240ef4f27eff920ea152991ec66f2684b12cfe816ec1444c291f6c3579f6650f36f8fd06bd7925b8aad8bce3fdb89ddc4a8ccb8a4f1d457f4d2122d03a11b9448c8037a14dfa9b935cdb49f4af16b1044bde100315798b6fdd959098a991eed2a8daaf54fd3b2f433adc3ab267ab1fe646eee699839915f2597bfe69ed9caab2e26666735023ecb84032ce4274c1dd92a0e19958c94ab58b77306f126ca62e3979fcabdac6034e85fa0f0548f50894442dc851cda51946244934ae37a3d710acfeb6ccb223da5046165729134974ae2aee9b7d13f37cd8974a84c6754bfa31b66531806ab6fa70ad4abd6fb095d03f6e2cb345013a9044801e53b66c87d2846779c48d088306cb0c1aa81648cf446e150509999b40c9fcd0e84c3d40c9199101bb2d5d3658d618829bcd292a1dcf49f2390e6f7b30dd33c2569a90e1a005cda1063b2a5ccde079e002509f0ea2353764c33bf70afa13a78f352bb70fabc2d324f9e7301b10468c9e6cb73535a5cd9ed6ff0203e7c0ba4ff52ab21f395ea5a3c7bcac3d012d35eb2f3a064da7a397be862a62932cc1d2f7c6305771ec99485eb1e25d7b9197c42320c68955b23234185ed62f7f8a63ed27e18ab572cb2ac04e215cb306bf993ad511861aae96f4c89cab635977df0e1ca0c531ea94449552710b274ced302cac605e0e439cffecf99763d7f64f6d5190e266ee891c22f319f234ee200f4ab73aecd8e8bf0f879631eb99f8e44f9771d2d0d79ec58ba05fb686fdc15894eaed518514092527941f7b5b950deefebb1276d28f2a0640ac3a10173119a8e7f5100e114b99f6d9896d13dccf8d8f244d96c1d5de7bda31d6d329c222f62aa3d9a7f857a593d1e3b90528d86db595ac5361de0bfdd0a4743dc8bacaced5dcc2dafcdb4888b16f3678ae7341c7a078ee51da4b7f114e489a561af19f8f970ec4cd99734bbe6b1ab9e13493c4cabe9a3034586b6f4085cd24e1bc1dd1a9a20b000000",
  "txid": "8def5f53fbac89ba3a1ad38b0df951514a031ce3a183283e9ba1dff42b9875c7",
  "hash": "448942e776191f2c67581b886ab4732cc5ec6e26973060d42a674be5b620dc7f",
  "size": 5085,
  "vsize": 2278,
  "version": 1,
  "locktime": 11,
  "vin": [
    {
      "txid": "60ea89a09c5cf92ac4acac3f4f22c9eec52564ce28646da891ed618e313447c2",
      "vout": 1,
      "scriptSig": {
        "asm": "",
        "hex": ""
      },
      "txinwitness": [
        "4ec2115eb9dd609b1a79741681f965c3861487d5a156547b909faf2f0071671827d34d45b272d1eab924d664360dcf6ef0c1c3daf04e036d822d95194ac66319d51f04c6e0b198aa9830de7cc91d36ecbdc34d1c977b7fc12291e5ce720539b521b69e538f463a7726286cb333ddf8f2eeb4ea94c864ae590f73be46700a5845ddad68e5aa562a7fecaa136b4902cad0b31df3c11863efb2621e918dd072cb5dba636f0892505bcd96aea8cf9dbc429a743ceca59e35e6d676a6cbd864b7bcb889a0ac61a48417391cc72b0ba5cbf40d9a5897565755307caec4666f05b60041b424ab984022287431c412baadb7ef79738aa0362470873ef35d9c8ac4cbee6b884134447b2dca6a2e89424e542f7f425981242b84e04557dadb7e25ca6278efb5c1f347c735a653e994fdf5118b5cbd9a09c4803baa46874758dd2a95d2eab821b34030d1359d5475239607dd03959f0de95726d2971183fe035435a5b652394b88b114c9d7ac2bbe5f0ff77644c933edea766b713578fdd5f127a367f3c0d084cae819959fb185461cbe5c3a29998835e194f65ae097b3c958f0f0718f79e661924f8f3ecda2fae6cc999369ae892ab7ab0251dd542066580cd3af1b224a496696e5478e2adf1a07969da38022fb1b9f82fd54a659d594ebf8fc100bb6cf29f0347409d892a9d33a5f96301a27f02fe5f34093d6c419deb42d619275a428022df446bd0e9db28f4ac0c1496cbc9007dbef10babf36e66b8fa6d669b2162ae1fbb5c661ec2ace4def45c62995d0d22361f7e0a1667a02599c46643a02a6d8bc812a79388adbe2203217701e0dbaaa4a6b86ea02c561ffd7b078051367c6d6320e7a007f03e9f2198735564cc8e064576663d1022bd7b7ab46559294e84accf07f946dae3a04bf2b117ca731f2fc178c6d008496ad48c326bf605fc5d6687ae89348b7d708f4cb165417ed047ef41658b7aedccbd533a8de773eb7f79dfada91b9486c2c32050eb928c7000dfee3216d0f9b1fa9375db0a45d54c515a951dcb2d4d34bc779e9ac41ee3818800f4af76ecfb7208d355f559dbf7a70be144a4abd5e52732b5c88dc87ad384d3079e84e164bd07ecb2c8e08a0ea01fc9d456ed727f15b851c288d622e1f42768f100ef1811a1ffd664035f6fed0e96981b73b35d79de615e0d6ab4b3b373b6fd8c373f8f39a767ac87bd443bad8f193930ca3f9ceb5bda6bd6371eb724fc487ba86107a3a2e060fc90b5b5843479e115af056fe73cf5da8dfcdd158cf4c9cc727ac5534313ae467ff79b5f42f47c87df21251e2db8ffb90a28d6641cdcacbad9b9342165237c0ed42d1266a40f425c1297e817804cef0820a4cb0104eb72df2a388d21e6b039ee1370db48b3752e6a08a4fc94c3743f608e1c5e6a83e51f0c52c30815076020868bccd6b53e603d180afd3511a7a1f25a6c84f14a7273486e5a39de6189a0d95ec2fc80c3f8a7ee6764a5ba51bfe9bda9a5f524637621734f87e7e5aca661df7988fff623c39be7dc8399cd49fea16a0cf53f895c40239cc58902571cd046b453ac4ce9aa5514f66cab61565a89190551c42b7ddd8a41ac1873536ab534deb5216608a2c01e76efa88971c846d18dcd392031fad0bdbf979f846254a27d69a80b1237efd40bdc05de453c7c9f28d5abc6f1d2adcce71d6849ada5af5252c02a6b42e9fd8b1e40f7696fa93ca6b9e6e2c6959b404ea5758d4fe7d885bb17884823e67c7fb71ee9ade0648beb0b207186610da779c34a29ae9d5f2b5370bddfafa48e3b5e153ba07d9e615780e0e44171106471cf9ff7513e1ece8ea408e514a44597ce6493f8fcff92a4e3ffe6442cbfb03f6e1ea74e9100970aed54f187a031f83e182293c2c36d49484dcb16c500ee8f977b1bcce759505d5e0bbb0bd9d36a18e14f80c7ea53a6dc799f532236e40bab8b5708b7d7cd1ab7d0ddbc21938d191adb28648faf217ce364d67efd0660f24d1f24a6187d31eecef5784fbbbfde2f047a075a7263d05b2c53fe5fbf94531b326a49764eec829791628f9bc1a27dc1a1c0fedddd6b720bea6369e60c704ca0fc4cc6636a42c0831a5adb2430287a3919fca5a2a0000a4d75e2e971e7e7466185d88c29d998c507c7d33ae99456040b97ce30e373203d504e0055c6f70da7885107fa1656945f6052de798e6aa5c1a02ab618446426b3510c4848487cf15822a3ceb8ecd888c264e3afe48de2a9626b4ea1a5ba39cabc9d12adf6ecea837dea87515aa67000e2eb1a55f1ee7cf1134c88136a20664ab621913128c3adbee402d8e544a3ae51989a7c9c02bcf501eb0b6c8584a4463befd3bdba5839506697c2968a33c56c08d73a6f7a5a1330bcc6614ef09cd3105168fc10dec912f9a46ac97205baeb810ed3e2944db00ba2e80bc99a99b0519596ee36acdcaca917a8cbdc2bd68995433a724ed9a220abb7c9ada88cbdbe24209d6dc95c0c54438f4ba8e9f5e1466e813d63b8a309a04d7134e5c438d002c3b0e2cb6ffda592c8eef4d6f3d79a77d248f0456b541fa30eb5dbf97c563370d1cdacc2363f0fb565331be5f3f01504a98a3fdbe83875882e30c54bf28244076691e660867d3909d6040ee416731c346f2c22f4a3b9a15884be12f1a476c19a336f830c9af65b0ef10b4afb13e9397c629b69ab953c3b0de3ca95990a0d44dffec0248347d1abb3069fede794ada23076c4076143065786673046a49e3b0e199886451af3278aba10555e84daad82712cd3224718a55b15c8804a58d9c037a50085b9984fc8f9671ea0bf3a8d81f1d0fc244352195cb7eee0b1786548aed1350cf486e9c5105cf517ee36016b5390173f9f2104b158ba6dbd7637e9a11d24597cd89aa123eefcb79b0aa9f605314f0608e1cbd6d8d366a1fc9f6654566d189dd95096699ef656ac7fa8631502e8d164702502f19f0a2c5d2f112f77ee7d7a82cf8a9b68229f6df690a300da18ef71fe2603808a070a005299fc5a30de8c6b214bf14c9e4ca474545552260b13ca38fb0ceb74e610b3841270a29a6c63a7053ae122ab70f020e98ee10c33cef43801f0fc734bfa6050e42d4583c7aa5856d2e5426fe182e9a0e63b7cd090fa6e698548139785c3d8eb424f245d4ed07feaaf0016467eab0fb2f623295d12d3476da7d0b9de97b681fd0cd04f116888d378cf303868bf130e7d4ff507b8d1bfa8e21f428a62ca8d1b01ba9cddfe16a7a3ef31574a583547af0bec64382b54d382c53057d27045e3a947eb7be5bca0661788a3ad45b041d5e48db2756d3cf770204101f272e60828b8fa3a5aaadc3cce708375156628cabc0f3fb0a0f26334c65687ca4b0b7e3e9f2fb080b0f1d67758390c7d4e5ec0000000000000000000000000000000000000000000000000000111b2a3601",
        "0081c23194b97191b789881eebec001e561fedb8b5cfb3cb48e106eb6f71b237791f5320d1b9507e7dee660b392edbcc9c68acab048bb0a6c44b8a9e60479b737f99a3cab86b9d93e16cc2cde1c13aa13874f188366d7bc1df3947afcd9288d56566ad263310288269dc0d43c9036cadf1a111db44450963c44c80f0e5cf08e569cb7641b18ad05fc92153cfe59f2476537f507363eb9e6bee2b26f5d9fa5a19b65f6876b7609e90cc9bf24b88168f9ba82c05214ac9dba5146e2ac05b56891c0a072bdb26337af5b08362da11e884c2d4647f918b8b83b7e488481c7d39b5d4bfad7cd5681a33f351d24ce524f15389e1c056272b26ea94532f6bff7e70446229bbae9e4e5b9dbfd81a8f79a4af0019922e495abfba9a3e68401125d7b39371c91b78c1ae30548215b1da993d9efd22c81e1c3099c3452b6e4ee8f54d4e274e0fdd1f1bb0139e207dbadc58cb2e61c6e33d186478d67cd4a6d74e328622679a3dc7957b81e8fb10ff269bcb880e5f05cc3d6792678cc194062c84fdf20407c4eddb191f3be92208b1173f4e2403a44ed2a1dd97dd993653fdbc79ce526ad66ff4834f5ace73f6496e8471ccd432302b05bbc283d95daa1d1bae0ca80f46ccbc8e7aa9fc30d9af0bbd9bd6e74a151671588c8839f2473b00a2e07516c9ed1401fc2c7de0ce6fdbc3cefd17fc27294dfbb7c1fd30a22af4f5e6d9b78a56e7b33b32f1850dddccfbbf5d8c3f0a6a38a010f3abc81e41a39d68bf8a66f7ed4d1395589ce3c57605d47971eea723ec302915d90e7212dea39446d3e8754cc79e69cb08b5f5e6ad562465b5357939c3c083ad629d755d93cfc0a31235e6ad28bde33d240ef4f27eff920ea152991ec66f2684b12cfe816ec1444c291f6c3579f6650f36f8fd06bd7925b8aad8bce3fdb89ddc4a8ccb8a4f1d457f4d2122d03a11b9448c8037a14dfa9b935cdb49f4af16b1044bde100315798b6fdd959098a991eed2a8daaf54fd3b2f433adc3ab267ab1fe646eee699839915f2597bfe69ed9caab2e26666735023ecb84032ce4274c1dd92a0e19958c94ab58b77306f126ca62e3979fcabdac6034e85fa0f0548f50894442dc851cda51946244934ae37a3d710acfeb6ccb223da5046165729134974ae2aee9b7d13f37cd8974a84c6754bfa31b66531806ab6fa70ad4abd6fb095d03f6e2cb345013a9044801e53b66c87d2846779c48d088306cb0c1aa81648cf446e150509999b40c9fcd0e84c3d40c9199101bb2d5d3658d618829bcd292a1dcf49f2390e6f7b30dd33c2569a90e1a005cda1063b2a5ccde079e002509f0ea2353764c33bf70afa13a78f352bb70fabc2d324f9e7301b10468c9e6cb73535a5cd9ed6ff0203e7c0ba4ff52ab21f395ea5a3c7bcac3d012d35eb2f3a064da7a397be862a62932cc1d2f7c6305771ec99485eb1e25d7b9197c42320c68955b23234185ed62f7f8a63ed27e18ab572cb2ac04e215cb306bf993ad511861aae96f4c89cab635977df0e1ca0c531ea94449552710b274ced302cac605e0e439cffecf99763d7f64f6d5190e266ee891c22f319f234ee200f4ab73aecd8e8bf0f879631eb99f8e44f9771d2d0d79ec58ba05fb686fdc15894eaed518514092527941f7b5b950deefebb1276d28f2a0640ac3a10173119a8e7f5100e114b99f6d9896d13dccf8d8f244d96c1d5de7bda31d6d329c222f62aa3d9a7f857a593d1e3b90528d86db595ac5361de0bfdd0a4743dc8bacaced5dcc2dafcdb4888b16f3678ae7341c7a078ee51da4b7f114e489a561af19f8f970ec4cd99734bbe6b1ab9e13493c4cabe9a3034586b6f4085cd24e1bc1dd1a9a2"
      ],
      "sequence": 4294967294
    }
  ],
  "vout": [
    {
      "value": 1.0,
      "n": 0,
      "scriptPubKey": {
        "asm": "OP_RETURN 0cd52b4b15d1a72fac064728578e98459eeee225fddc88c07b690656ce4b0b46 479c656a0acf29efefe00082e12d4014c67f0170dceddac03747b7b0f6bea16067bc454a2aef09cfcfc020a2c10d6034e65f2150fccdfae017679790d69e814007dc252a4a8f69afafa040c2a16d0054863f41309cad9a807707f7f0b6fee12027fc050a6aaf498f8f8060e2814d2074a61f6110bc8dbaa05727d7d096dec100c71ce5ea8a4fa96f6f60800261adc09446ff81f05c6d5a40b7c73730763e21e0e73cc5caaa6f894f4f40a022418de0b466dfa1d07c4d7a6097e71710561e01c0875ca5aaca0fe92f2f20c04221ed80d406bfc1b01c2d1a00f7877770367e61a0a77c858aea2fc90f0f00e06201cda0f4269fe1903c0d3a20d7a75750165e4180479c656a0acf29efefe00082e12d4014c67f0170dceddac03747b7b0f6bea16067bc454a2aef09cfcfc020a2c10d6034e65f2150fccdfae017679790d69e814007dc252a4a8f69afafa040c2a16d0054863f41309cad9a807707f7f0b6fee12027fc050a6aaf498f8f8060e2814d2074a61f6110bc8dbaa05727d7d096dec100c71ce5ea8a4fa96f6f60800261adc09446ff81f05c6d5a40b7c73730763e21e0e73cc5caaa6f894f4f40a022418de0b466dfa1d07c4d7a6097e71710561e01c0875ca5aaca0fe92f2f20c04221ed80d406bfc1b01c2d1a00f7877770367e61a0a77c858aea2fc90f0f00e06201cda0f4269fe1903c0d3a20d7a75750165e4180479c656a0acf29efefe00082e12d4014c67f0170dceddac03747b7b0f6bea16067bc454a2aef09cfcfc020a2c10d6034e65f2150fccdfae017679790d69e814007dc252a4a8f69afafa040c2a16d0054863f41309cad9a807707f7f0b6fee12027fc050a6aaf498f8f8060e2814d2074a61f6110bc8dbaa05727d7d096dec100c71ce5ea8a4fa96f6f60800261adc09446ff81f05c6d5a40b7c73730763e21e0e73cc5caaa6f894f4f40a022418de0b466dfa1d07c4d7a6097e71710561e01c0875ca5aaca0fe92f2f20c04221ed80d406bfc1b01c2d1a00f7877770367e61a0a77c858aea2fc90f0f00e06201cda0f4269fe1903c0d3a20d7a75750165e4180479c656a0acf29efefe00082e12d4014c67f0170dceddac03747b7b0f6bea16067bc454a2aef09cfcfc020a2c10d6034e65f2150fccdfae017679790d69e814007dc252a4a8f69afafa040c2a16d0054863f41309cad9a807707f7f0b6fee12027fc050a6aaf498f8f8060e2814d2074a61f6110bc8dbaa05727d7d096dec100c71ce5ea8a4fa96f6f60800261adc09446ff81f05c6d5a40b7c73730763e21e0e73cc5caaa6f894f4f40a022418de0b466dfa1d07c4d7a6097e71710561e01c0875ca5aaca0fe92f2f20c04221ed80d406bfc1b01c2d1a00f7877770367e61a0a77c858aea2fc90f0f00e06201cda0f4269fe1903c0d3a20d7a75750165e4180479c656a0acf29efefe00082e12d4014c67f0170dceddac03747b7b0f6bea16067bc454a2aef09cfcfc020a2c10d6034e65f2150fccdfae017679790d69e814007dc252a4a8f69afafa040c2a16d0054863f41309cad9a807707f7f0b6fee12027fc050a6aaf498f8f8060e2814d2074a61f6110bc8dbaa05727d7d096dec100c71ce5ea8a4fa96f6f60800261adc0946f6fae28fd5ba599badc96ceeb6d6e605b734cb293be311b1b899a8f26a77f6e",
        "hex": "6a200cd52b4b15d1a72fac064728578e98459eeee225fddc88c07b690656ce4b0b464db004479c656a0acf29efefe00082e12d4014c67f0170dceddac03747b7b0f6bea16067bc454a2aef09cfcfc020a2c10d6034e65f2150fccdfae017679790d69e814007dc252a4a8f69afafa040c2a16d0054863f41309cad9a807707f7f0b6fee12027fc050a6aaf498f8f8060e2814d2074a61f6110bc8dbaa05727d7d096dec100c71ce5ea8a4fa96f6f60800261adc09446ff81f05c6d5a40b7c73730763e21e0e73cc5caaa6f894f4f40a022418de0b466dfa1d07c4d7a6097e71710561e01c0875ca5aaca0fe92f2f20c04221ed80d406bfc1b01c2d1a00f7877770367e61a0a77c858aea2fc90f0f00e06201cda0f4269fe1903c0d3a20d7a75750165e4180479c656a0acf29efefe00082e12d4014c67f0170dceddac03747b7b0f6bea16067bc454a2aef09cfcfc020a2c10d6034e65f2150fccdfae017679790d69e814007dc252a4a8f69afafa040c2a16d0054863f41309cad9a807707f7f0b6fee12027fc050a6aaf498f8f8060e2814d2074a61f6110bc8dbaa05727d7d096dec100c71ce5ea8a4fa96f6f60800261adc09446ff81f05c6d5a40b7c73730763e21e0e73cc5caaa6f894f4f40a022418de0b466dfa1d07c4d7a6097e71710561e01c0875ca5aaca0fe92f2f20c04221ed80d406bfc1b01c2d1a00f7877770367e61a0a77c858aea2fc90f0f00e06201cda0f4269fe1903c0d3a20d7a75750165e4180479c656a0acf29efefe00082e12d4014c67f0170dceddac03747b7b0f6bea16067bc454a2aef09cfcfc020a2c10d6034e65f2150fccdfae017679790d69e814007dc252a4a8f69afafa040c2a16d0054863f41309cad9a807707f7f0b6fee12027fc050a6aaf498f8f8060e2814d2074a61f6110bc8dbaa05727d7d096dec100c71ce5ea8a4fa96f6f60800261adc09446ff81f05c6d5a40b7c73730763e21e0e73cc5caaa6f894f4f40a022418de0b466dfa1d07c4d7a6097e71710561e01c0875ca5aaca0fe92f2f20c04221ed80d406bfc1b01c2d1a00f7877770367e61a0a77c858aea2fc90f0f00e06201cda0f4269fe1903c0d3a20d7a75750165e4180479c656a0acf29efefe00082e12d4014c67f0170dceddac03747b7b0f6bea16067bc454a2aef09cfcfc020a2c10d6034e65f2150fccdfae017679790d69e814007dc252a4a8f69afafa040c2a16d0054863f41309cad9a807707f7f0b6fee12027fc050a6aaf498f8f8060e2814d2074a61f6110bc8dbaa05727d7d096dec100c71ce5ea8a4fa96f6f60800261adc09446ff81f05c6d5a40b7c73730763e21e0e73cc5caaa6f894f4f40a022418de0b466dfa1d07c4d7a6097e71710561e01c0875ca5aaca0fe92f2f20c04221ed80d406bfc1b01c2d1a00f7877770367e61a0a77c858aea2fc90f0f00e06201cda0f4269fe1903c0d3a20d7a75750165e4180479c656a0acf29efefe00082e12d4014c67f0170dceddac03747b7b0f6bea16067bc454a2aef09cfcfc020a2c10d6034e65f2150fccdfae017679790d69e814007dc252a4a8f69afafa040c2a16d0054863f41309cad9a807707f7f0b6fee12027fc050a6aaf498f8f8060e2814d2074a61f6110bc8dbaa05727d7d096dec100c71ce5ea8a4fa96f6f60800261adc0946f6fae28fd5ba599badc96ceeb6d6e605b734cb293be311b1b899a8f26a77f6e",
        "type": "nulldata"
      }
    },
    {
      "value": 499988.8141,
      "n": 1,
      "scriptPubKey": {
        "asm": "1 3e3c49beb1e66aa1c8d9f362f23d2d76a2ba73a8c4c3bde206b9a316701cd3b9",
        "hex": "51203e3c49beb1e66aa1c8d9f362f23d2d76a2ba73a8c4c3bde206b9a316701cd3b9",
        "reqSigs": 1,
        "type": "witness_v1_scripthash",
        "addresses": [
          "3QJmnh"
        ]
      }
    }
  ],
  "blockhash": "9418e69333e129952491dcd6dc324ee50ca4a2e07f0678970cb85d951484494a",
  "confirmations": 1,
  "time": 1764177673,
  "blocktime": 1764177673
}