{
  "hex": "01000000000101850a416fc418e7a25e12bf98ba2e823bdf59c45d9319f8b385bc51445c949cb20100000000feffffff0200ce47c6782d0000225120baeb4563865e5dc76ca50acb504a0574816ce0d12b84c14600432189ee5dec5800e1f50500000000fdd5046a20633fd0f369f2bf715e7280e3a728f80ce9814233efc43519ae6e55d027bfe55f4db00485d07bdc6ec4b700eb062f78e8ed5bda49296da8d49cced158466b5ceb01d0f5a5f05bfc4ee49720cb260f58c8cd7bfa69094d88f4bceef178664b7ccb21f0d5c5903b9c2e84f740ab466f38a8ad1b9a09692de894dc8e9118062b1cab4190b5e5b01bbc0ea4d7608b664f18888d3bba29490dc8b4fcaeb138260b3c8b61b0950550fb5cee4437806b86aff8686ddb5ac9a9ed28541c4e51d8c6ebdc6b8150752570db7cce6417a04ba68fd8484dfb7ae989cd08743c6e71f8e6cbfc4ba170554510bb1cae0477c02bc6efb8282d9b1a89e9ad68145c0e119886ab9c2bc1103565309b3c8e2457e00be6cf98080dbb3aa9c98d48347c2e31b8a68bbc0be1301585d07bdc6ec4b700eb062f78e8ed5bda49296da8d49cced158466b5ceb01d0f5a5f05bfc4ee49720cb260f58c8cd7bfa69094d88f4bceef178664b7ccb21f0d5c5903b9c2e84f740ab466f38a8ad1b9a09692de894dc8e9118062b1cab4190b5e5b01bbc0ea4d7608b664f18888d3bba29490dc8b4fcaeb138260b3c8b61b0950550fb5cee4437806b86aff8686ddb5ac9a9ed28541c4e51d8c6ebdc6b8150752570db7cce6417a04ba68fd8484dfb7ae989cd08743c6e71f8e6cbfc4ba170554510bb1cae0477c02bc6efb8282d9b1a89e9ad68145c0e119886ab9c2bc1103565309b3c8e2457e00be6cf98080dbb3aa9c98d48347c2e31b8a68bbc0be1301585d07bdc6ec4b700eb062f78e8ed5bda49296da8d49cced158466b5ceb01d0f5a5f05bfc4ee49720cb260f58c8cd7bfa69094d88f4bceef178664b7ccb21f0d5c5903b9c2e84f740ab466f38a8ad1b9a09692de894dc8e9118062b1cab4190b5e5b01bbc0ea4d7608b664f18888d3bba29490dc8b4fcaeb138260b3c8b61b0950550fb5cee4437806b86aff8686ddb5ac9a9ed28541c4e51d8c6ebdc6b8150752570db7cce6417a04ba68fd8484dfb7ae989cd08743c6e71f8e6cbfc4ba170554510bb1cae0477c02bc6efb8282d9b1a89e9ad68145c0e119886ab9c2bc1103565309b3c8e2457e00be6cf98080dbb3aa9c98d48347c2e31b8a68bbc0be1301585d07bdc6ec4b700eb062f78e8ed5bda49296da8d49cced158466b5ceb01d0f5a5f05bfc4ee49720cb260f58c8cd7bfa69094d88f4bceef178664b7ccb21f0d5c5903b9c2e84f740ab466f38a8ad1b9a09692de894dc8e9118062b1cab4190b5e5b01bbc0ea4d7608b664f18888d3bba29490dc8b4fcaeb138260b3c8b61b0950550fb5cee4437806b86aff8686ddb5ac9a9ed28541c4e51d8c6ebdc6b8150752570db7cce6417a04ba68fd8484dfb7ae989cd08743c6e71f8e6cbfc4ba170554510bb1cae0477c02bc6efb8282d9b1a89e9ad68145c0e119886ab9c2bc1103565309b3c8e2457e00be6cf98080dbb3aa9c98d48347c2e31b8a68bbc0be1301585d07bdc6ec4b700eb062f78e8ed5bda49296da8d49cced158466b5ceb01d0f5a5f05bfc4ee49720cb260f58c8cd7bfa69094d88f4bceef178664b7ccb21f0d5c5903b9c2e84f740ab466f38a8ad1b9a09692de894dc8e9118062b1cab4190b5e5b01bbc0ea4d7608b664f18888d3bba29490dc8b4fcaeb138260b3c8b61b0950550fb5cee4437806b86aff8686ddb5aad0fc66cb05798d70bf82e44c8bf223edd5032edacf52b16587e0e9aaa3ab0d902fd7509503fa17473a9aab2e4245b3259d9c979eaf3a0b848f9fbaf5f200829427906f3a004b5147613d867d2a35c6467230855cb87d4b99b9ee8f63ddb1bc50bd99d7ddfc257ac90929de30db0144a1b87827b1a37a3c22f6d7f2941709ef5fbf09ea40b06669800c6fe1a928a23fff1246098499db5dc0268d2955fec9cb1e10b48d9adadf690e74d38a3cbdd2073639f4c397de4b35f9c0f9e8b7f290d6e6a8b24098958dc3a3b9da5e8e524f773d85b23c85e23809a4fcdd0f9c86097045d59b8afd36b8e67ca703ae18506aad4cba905b1f2a01e9ec71d01d37036946be69a646ea85f60f3676f8709f448c82f02339441f5237b3c52c832d89d68c237e8a8daaf472a8c3273a2decafb12402526e481b0f4708a65f8e8178391ac21156b4b0571faa3dfe071ab2f075b606fa4f2d45013367058f89458ae3c50a2a61ff668e0cb1bdeb51e3009785f9955966cec05efc790720f557f2e8d208796aed07a96eb4aa9245d37a9c9a1b52d6dec04beff6635508af09b8de198e526d8f24a82f667182581ddf00f962f405afbf74f98407e494e4c4f5570a13033f78d5a112425f3b791ddfcd4f217049b0a0625146026efeab4d6b33f5a733fdfb8c5a77e3571f585e4de2c9fa69b4b853fa642918780c30b996e5136a9f9cc66b2784b192b76c17e3b410d1a3d5f9c6234819021950b03a0d09df83ea76de7474e54b37c1f9437d2d99ec38ed56c124a279fa2f93b57cd59b3eb11efe81905e74562e4631288e00eb5eea74fe1d8852e1ab5097bf99c15b5b09114afccb5a546faa76d16c2bb389d78a8c969061fcb1486c90393bfebbaa502ab0e68cdabb0f30aba926051ab9107ece9c82da86f0cfcbab524e0092aee47e6560f76f85a598bab64b851748c1ae8b8ddad3f625e68a12e022a0db32c745c0be63fa946971a106dbfbb547f6a442e9652239d70bfbd9b9b5c86b9b2507e4d05adfcf987c7dca635efcf900a9e4b7f813061861f52adbab068d40e47063e8cb08813a3060de002dd5d96b01cf64493fc3dddc9bb518d8ea3b83d75d60875176a62ee675ee89836a4f7fe9cdc918c137df689e800e47719286c9bb4a8accf934c2705baf960066abcd2e1ee1b4f555da32765e4a5cb1b49dbcfd2025b44b25f6b7f69f83c2cc1ae9f0f90dc1e48c93132b81c007ab1a04f7e5caf7375cd133979b3bf41ab9af0f2367122c9de6ddcd8e5678f8906a79325a82e58f96e5b5abdc6583de71645747d7670b2a8e8fcd78db9b7bd9cfd69df0eef0a689a0b778cfd73ac209a8ead81f00f60675582bc4089c164ae68cb8f6f6ed6fef68462c5b09bddcd2f4e225de371a0c4f4cc0a15c8fdc4a73c1ccae9837d29ee8fe346dab38407e4683dfb9e9a60241a5420b1bf4c05d311f75506de1fbe080a02f9713ade9f2a1bad3fe97df0f08f32a86b4f344e4a54c0dca82779bcdc82a66f7f13224c2ec9ca01cba51d4e884ea3f0bf6ff0c2ea571249b077d6e326745c850de1d617210a400702d0c19768e32263d1d6f643564062c1d00a5684ea5c2c62cdcc745ae7d3aae8e5ef561c856852062acd281de928eef246689706ddb7b7710ba766ef9813e3cf38ee012f76fcd1381f5f9a83ccc305c9af98e8234e4be2347681cebee43c4ee647d8e0d9b78f3e6ebd84a36d7d33cc77c1812a3dfbeadf5b29dd4b5b8c04bbce362e38e913cea8658b35d5d83fd830f58dbc62aa6419ec2d12b21fe93b1f28432b57c9cd87fbdf5c502484b532c9de2c6cc7c0390e31cf0db1da795bea9e073f3d160abc3fbeb52270d2806efbe42b81e3516f3418d30247361741d1c2cedbbde907768c4e1b64ce50566269083f73e621e093f22f4e95f836df854df6bf2dceecb2cffa1da64b70e01cf76bfc2916422657162401feabd3d534167e638fff1c086e753811ff56bf4b3f3d3e04d21751da417b17aea0c1dfccc15e286b00f3e11344bdcb6c02fc821b49785ac530f5f196c73c24755f3fbf3431cb9f1d8ee862400548f07e3761fef135d9ad7cb1165faad9fd83aa64ca0c6207ef0874088edeccfc31b30afdc0a88808be180bfbb69e224936ff439fb0e387e39915841c59d0d2dace70fbf4c5f565b8a28e34857c16808fd0488aa575b597a9c4f75b87819fabc028843543c4c07f39bdbad1f5e2ea3a447f13a86ff424c1ce46036f2c94ed52da268c69c00f0ac36130a2dc99210f5857fe7f31417a581df34784e994d8700bb208c1539c677361392f5a3f23f31613469ccc27a17bfadb7ecb88f0fb5783d28a9974ff5f401df14a7847bf1027012af7aed1aa46b6864bd050437d6b1b9f6cf043822f16b112886171e65bbea5c87f5a7516152ff1499fda2114b63a3a4a380d1f6339a8123abbe79512a59b89b199ea19ea7973c60805623febfb83d716a1962dbc01f0241f091509b1b66fef8e6acadc36e16c96ac8c609ec8d4f6135161b22642dc8c8b03761de96569e867e551470b9148c641e317bea711328aa25156bf0feb880ad205e55492eaeb7cf0c674bb734b344336e9e20c752ba6b88baf08952fc4755037e15e121b4ad5ef758d682717656049be8feb40ec4870c7b642fbab692c228264725a12cbb2b3de044053d5f4ac5712ff4e5e3722027cc297030495dc6a5ad60ae3e359ef2dc27792b6109c038b681351978c3bb57e0acaa3318de4c1badf83184f8805477d5a8e5c6d875c8ac7b1be320561c684d7fe7270502c61d747809917d44c0b8f6b039d1e2666dd29297b2f28925ac7264bf1824d8fdc5bf9c45d60680c420634a5ce81f6f7708d961e8e2586d509e6b01c9530d36e0a379dc880becfcea699959149a752667d85a40f57004869d7669ecc833ab3295a723ce240ca6582ca8f87a651dd70c94b145bcdde069a8d4e8aa58eeba5d413cc68acf45b1c3610fa457709b18196f287c6076348c8b78a23488b06d313a036b56969dec8a22e4150e220e095436e2f8fbb2503e62bbd0f91cf79afe888ccca7492c67a801f51f4627a3a33d8bce7d891b4a45d08eb8218fc2eeb4509f21490b6ee3de39d4b2ab5b76f755059ab53f5eab95e91772a65f2a15ffa51a6a78cdc72446420d66bed476593ed9637afd039b987c890c86d041043182a55b492892db0009999ae411e7d2ff5f40dbc2d5fad2027fb2412b377a326f8dc1f031d0e2baa8262b314572610cf8767476585b0e907778be923f9a11bf1eae2c79e9ae50793866fa51fb27e86bfa9280cb7868c836c39f48508aee36b7e1b4ff0c72e46ea43629d0fbeaf422c27a3a4d2e0020517191b66788a8da0aeb9c3c9fdfe283e577074777ca8b0d2e2fcfe090f1c1d1e2d31444a777c97afcad6e3ea2225303d494a6982a2afb9bdc1cad1f2000000000000000000000000000000000000101d2e3e01fd210500f0d1e29447dc1e296c98c69b5cf7c90f6d3b51d4f4ed2b2932b5ae284662de2136a86fc283f55ab4c7ce5ddb85a75fa4283d3d20b238385342a33f8569642c409f65b0dc8f79bc8df38313600a7e63ca15383e7691705ed72c74375020e54fe14d90c7bf76a70fa42eaa0178eb74b8b73bf1ba78fd23ba054de6c1867efb189183201a1cc298c7820f9be5f167da3e8f2c6cfbabafbef0d854ae1ff4d9c0e5d7c479105ec21a207d848743f8213070ad57ba76776bf59bbf13b580d21b742b194cb7736d0ffb200cdcc342702329bad870d7ba6e1b7407693e31219d4c53e50b213e7e8ad984361174ddea1c08c9e2911f770b6fec7c9c845148da30e08670f9827d925d6abdaa768e9277eb4828129c75c73d6799542d021c8b6354f17d892dc2c8d41f9227a9a99c8c45ec1671ea76be44fe96329e0d5d90b9fa64fadc576efba7b160cf3ff3a3a455ae9cd7a1e522d11ac047ac3b2be646faacb0a588e60ac64c7da5d4842ab9996b8b219221ff576b71e21a34249c93a71dd9ec1aca6637ecdb1e4396163f721842e8e201d2e8fccae244683e956f640e5ce124ab4f1ee2ba3d4767867972ec812b8db222dd16dd4ba44297cc58567634f19e59cceb3230774e5469bb0f5013bebd34447845155fdd8f0b4d6022a9dcb91afd165dd5d23569c2ad96d8bc0f16e20210bb4108ad37aa9be5724b9cb5c87d8b19ae79f4186d70bfc1808d78457f5161501f6bf8b24a0229121ed69585f3b2ef900dd4fbd22a093064652ae97cebf7909172b7fb987b3a24a8c81849382b3ec614a6a8359056745b8c0a21172e9cf0e3ac6c52b6ac9cb91c237dfb45dfb5a7e2207a7a008df66560401fc314aa8e636b2198492cdbc18f70e4b0224c48670c0be771c397096c2e0d70e093a6a6bd757e8cbf077e3a361f1642267a25e987c5f09edf200f3c03ec018e69e9f6581a9426bf3d1bf9fa43ff9687baefaac51968ced5893542d200df8809a09754d518c5bb309c77523aaffd3073bfa674757effc3823d7a6480a5359d7701bf3505dba11d10d70d630ea4e149832ba5ccb4bda887db6671a3c8159de405edcab7ea1b4e6273af30bf2183abdaf614732f7f757f765294e1d40e94b6a48960c6e6bc5fc54160f8fd8aa32177b9395d425db17a1536de4f1ffa06180acfc0f3955cd22ef2c9aa9cffeb285f006f86148c6a87813c7d157f0ffd2f337c8595a71fce3b25f9ec24ddd051a220858f57dfbeac59e626d81b7a0864e4aa231ea8a81d3a1e06bacae2b52582051f934348b958be39e26cc2c9364dcfec58f08384a4fb20b48af40deec62955faa5567dfe55791a97de5ea500325b8cd4cc18d3ab32f7f1cf4ac0b334909aee867d27987ff828bb83d5537d4e8cee6a64a65738498569eab6c6b9a03c674807f87d78439fa3e3f4fb4eff802057de02af00ac9aa21fa276167a64ee537673954285a49099a228e557f68fd787df32201bc9cc61b97b38ca51d95dd021d51c61c3f2406a39f2fcc67e1ea4c5ea9ffafbf4282ebe2e0a88764ed4a4d0072a2a94595b1c6ba4826942c0f12d08866b5dd7e91e1b8194516d5828a034e1bc4813ebc259dcefd46c92cb04c0ef42b8e741d39c978744f394e90f1d1a48464ba41127011b72da629e047f0f529cad8a7736c1d1929091332e26406d9c82d0710fcd54e050e62df94a8d7a5bde9db0e7885c185d861658a879528e3d511d4ad8f225974dcae24858521737ffe337b5c203595f14b2e2a28f008693d0abd51ccefd52974012137ca9261671935ad0622d9b62f9ed41c10af2cde5856d8487dcbe6ce0b5e844cde1b78868b7ba5b52475fb7e123a09382000000",
  "txid": "8e8e9d648eeaec5740c4d954d3d0a8e696144eaa4d2da9ec634dc08309447653",
  "hash": "cbefe1371abfcce28a2079c2cf6c35724df1399ac4945e2c7ec06cbbed3c9408",
  "size": 5085,
  "vsize": 2278,
  "version": 1,
  "locktime": 130,
  "vin": [
    {
      "txid": "b29c945c4451bc85b3f819935dc459df3b822eba98bf125ea2e718c46f410a85",
      "vout": 1,
      "scriptSig": {
        "asm": "",
        "hex": ""
      },
      "txinwitness": [
        "503fa17473a9aab2e4245b3259d9c979eaf3a0b848f9fbaf5f200829427906f3a004b5147613d867d2a35c6467230855cb87d4b99b9ee8f63ddb1bc50bd99d7ddfc257ac90929de30db0144a1b87827b1a37a3c22f6d7f2941709ef5fbf09ea40b06669800c6fe1a928a23fff1246098499db5dc0268d2955fec9cb1e10b48d9adadf690e74d38a3cbdd2073639f4c397de4b35f9c0f9e8b7f290d6e6a8b24098958dc3a3b9da5e8e524f773d85b23c85e23809a4fcdd0f9c86097045d59b8afd36b8e67ca703ae18506aad4cba905b1f2a01e9ec71d01d37036946be69a646ea85f60f3676f8709f448c82f02339441f5237b3c52c832d89d68c237e8a8daaf472a8c3273a2decafb12402526e481b0f4708a65f8e8178391ac21156b4b0571faa3dfe071ab2f075b606fa4f2d45013367058f89458ae3c50a2a61ff668e0cb1bdeb51e3009785f9955966cec05efc790720f557f2e8d208796aed07a96eb4aa9245d37a9c9a1b52d6dec04beff6635508af09b8de198e526d8f24a82f667182581ddf00f962f405afbf74f98407e494e4c4f5570a13033f78d5a112425f3b791ddfcd4f217049b0a0625146026efeab4d6b33f5a733fdfb8c5a77e3571f585e4de2c9fa69b4b853fa642918780c30b996e5136a9f9cc66b2784b192b76c17e3b410d1a3d5f9c6234819021950b03a0d09df83ea76de7474e54b37c1f9437d2d99ec38ed56c124a279fa2f93b57cd59b3eb11efe81905e74562e4631288e00eb5eea74fe1d8852e1ab5097bf99c15b5b09114afccb5a546faa76d16c2bb389d78a8c969061fcb1486c90393bfebbaa502ab0e68cdabb0f30aba926051ab9107ece9c82da86f0cfcbab524e0092aee47e6560f76f85a598bab64b851748c1ae8b8ddad3f625e68a12e022a0db32c745c0be63fa946971a106dbfbb547f6a442e9652239d70bfbd9b9b5c86b9b2507e4d05adfcf987c7dca635efcf900a9e4b7f813061861f52adbab068d40e47063e8cb08813a3060de002dd5d96b01cf64493fc3dddc9bb518d8ea3b83d75d60875176a62ee675ee89836a4f7fe9cdc918c137df689e800e47719286c9bb4a8accf934c2705baf960066abcd2e1ee1b4f555da32765e4a5cb1b49dbcfd2025b44b25f6b7f69f83c2cc1ae9f0f90dc1e48c93132b81c007ab1a04f7e5caf7375cd133979b3bf41ab9af0f2367122c9de6ddcd8e5678f8906a79325a82e58f96e5b5abdc6583de71645747d7670b2a8e8fcd78db9b7bd9cfd69df0eef0a689a0b778cfd73ac209a8ead81f00f60675582bc4089c164ae68cb8f6f6ed6fef68462c5b09bddcd2f4e225de371a0c4f4cc0a15c8fdc4a73c1ccae9837d29ee8fe346dab38407e4683dfb9e9a60241a5420b1bf4c05d311f75506de1fbe080a02f9713ade9f2a1bad3fe97df0f08f32a86b4f344e4a54c0dca82779bcdc82a66f7f13224c2ec9ca01cba51d4e884ea3f0bf6ff0c2ea571249b077d6e326745c850de1d617210a400702d0c19768e32263d1d6f643564062c1d00a5684ea5c2c62cdcc745ae7d3aae8e5ef561c856852062acd281de928eef246689706ddb7b7710ba766ef9813e3cf38ee012f76fcd1381f5f9a83ccc305c9af98e8234e4be2347681cebee43c4ee647d8e0d9b78f3e6ebd84a36d7d33cc77c1812a3dfbeadf5b29dd4b5b8c04bbce362e38e913cea8658b35d5d83fd830f58dbc62aa6419ec2d12b21fe93b1f28432b57c9cd87fbdf5c502484b532c9de2c6cc7c0390e31cf0db1da795bea9e073f3d160abc3fbeb52270d2806efbe42b81e3516f3418d30247361741d1c2cedbbde907768c4e1b64ce50566269083f73e621e093f22f4e95f836df854df6bf2dceecb2cffa1da64b70e01cf76bfc2916422657162401feabd3d534167e638fff1c086e753811ff56bf4b3f3d3e04d21751da417b17aea0c1dfccc15e286b00f3e11344bdcb6c02fc821b49785ac530f5f196c73c24755f3fbf3431cb9f1d8ee862400548f07e3761fef135d9ad7cb1165faad9fd83aa64ca0c6207ef0874088edeccfc31b30afdc0a88808be180bfbb69e224936ff439fb0e387e39915841c59d0d2dace70fbf4c5f565b8a28e34857c16808fd0488aa575b597a9c4f75b87819fabc028843543c4c07f39bdbad1f5e2ea3a447f13a86ff424c1ce46036f2c94ed52da268c69c00f0ac36130a2dc99210f5857fe7f31417a581df34784e994d8700bb208c1539c677361392f5a3f23f31613469ccc27a17bfadb7ecb88f0fb5783d28a9974ff5f401df14a7847bf1027012af7aed1aa46b6864bd050437d6b1b9f6cf043822f16b112886171e65bbea5c87f5a7516152ff1499fda2114b63a3a4a380d1f6339a8123abbe79512a59b89b199ea19ea7973c60805623febfb83d716a1962dbc01f0241f091509b1b66fef8e6acadc36e16c96ac8c609ec8d4f6135161b22642dc8c8b03761de96569e867e551470b9148c641e317bea711328aa25156bf0feb880ad205e55492eaeb7cf0c674bb734b344336e9e20c752ba6b88baf08952fc4755037e15e121b4ad5ef758d682717656049be8feb40ec4870c7b642fbab692c228264725a12cbb2b3de044053d5f4ac5712ff4e5e3722027cc297030495dc6a5ad60ae3e359ef2dc27792b6109c038b681351978c3bb57e0acaa3318de4c1badf83184f8805477d5a8e5c6d875c8ac7b1be320561c684d7fe7270502c61d747809917d44c0b8f6b039d1e2666dd29297b2f28925ac7264bf1824d8fdc5bf9c45d60680c420634a5ce81f6f7708d961e8e2586d509e6b01c9530d36e0a379dc880becfcea699959149a752667d85a40f57004869d7669ecc833ab3295a723ce240ca6582ca8f87a651dd70c94b145bcdde069a8d4e8aa58eeba5d413cc68acf45b1c3610fa457709b18196f287c6076348c8b78a23488b06d313a036b56969dec8a22e4150e220e095436e2f8fbb2503e62bbd0f91cf79afe888ccca7492c67a801f51f4627a3a33d8bce7d891b4a45d08eb8218fc2eeb4509f21490b6ee3de39d4b2ab5b76f755059ab53f5eab95e91772a65f2a15ffa51a6a78cdc72446420d66bed476593ed9637afd039b987c890c86d041043182a55b492892db0009999ae411e7d2ff5f40dbc2d5fad2027fb2412b377a326f8dc1f031d0e2baa8262b314572610cf8767476585b0e907778be923f9a11bf1eae2c79e9ae50793866fa51fb27e86bfa9280cb7868c836c39f48508aee36b7e1b4ff0c72e46ea43629d0fbeaf422c27a3a4d2e0020517191b66788a8da0aeb9c3c9fdfe283e577074777ca8b0d2e2fcfe090f1c1d1e2d31444a777c97afcad6e3ea2225303d494a6982a2afb9bdc1cad1f2000000000000000000000000000000000000101d2e3e01",
        "00f0d1e29447dc1e296c98c69b5cf7c90f6d3b51d4f4ed2b2932b5ae284662de2136a86fc283f55ab4c7ce5ddb85a75fa4283d3d20b238385342a33f8569642c409f65b0dc8f79bc8df38313600a7e63ca15383e7691705ed72c74375020e54fe14d90c7bf76a70fa42eaa0178eb74b8b73bf1ba78fd23ba054de6c1867efb189183201a1cc298c7820f9be5f167da3e8f2c6cfbabafbef0d854ae1ff4d9c0e5d7c479105ec21a207d848743f8213070ad57ba76776bf59bbf13b580d21b742b194cb7736d0ffb200cdcc342702329bad870d7ba6e1b7407693e31219d4c53e50b213e7e8ad984361174ddea1c08c9e2911f770b6fec7c9c845148da30e08670f9827d925d6abdaa768e9277eb4828129c75c73d6799542d021c8b6354f17d892dc2c8d41f9227a9a99c8c45ec1671ea76be44fe96329e0d5d90b9fa64fadc576efba7b160cf3ff3a3a455ae9cd7a1e522d11ac047ac3b2be646faacb0a588e60ac64c7da5d4842ab9996b8b219221ff576b71e21a34249c93a71dd9ec1aca6637ecdb1e4396163f721842e8e201d2e8fccae244683e956f640e5ce124ab4f1ee2ba3d4767867972ec812b8db222dd16dd4ba44297cc58567634f19e59cceb3230774e5469bb0f5013bebd34447845155fdd8f0b4d6022a9dcb91afd165dd5d23569c2ad96d8bc0f16e20210bb4108ad37aa9be5724b9cb5c87d8b19ae79f4186d70bfc1808d78457f5161501f6bf8b24a0229121ed69585f3b2ef900dd4fbd22a093064652ae97cebf7909172b7fb987b3a24a8c81849382b3ec614a6a8359056745b8c0a21172e9cf0e3ac6c52b6ac9cb91c237dfb45dfb5a7e2207a7a008df66560401fc314aa8e636b2198492cdbc18f70e4b0224c48670c0be771c397096c2e0d70e093a6a6bd757e8cbf077e3a361f1642267a25e987c5f09edf200f3c03ec018e69e9f6581a9426bf3d1bf9fa43ff9687baefaac51968ced5893542d200df8809a09754d518c5bb309c77523aaffd3073bfa674757effc3823d7a6480a5359d7701bf3505dba11d10d70d630ea4e149832ba5ccb4bda887db6671a3c8159de405edcab7ea1b4e6273af30bf2183abdaf614732f7f757f765294e1d40e94b6a48960c6e6bc5fc54160f8fd8aa32177b9395d425db17a1536de4f1ffa06180acfc0f3955cd22ef2c9aa9cffeb285f006f86148c6a87813c7d157f0ffd2f337c8595a71fce3b25f9ec24ddd051a220858f57dfbeac59e626d81b7a0864e4aa231ea8a81d3a1e06bacae2b52582051f934348b958be39e26cc2c9364dcfec58f08384a4fb20b48af40deec62955faa5567dfe55791a97de5ea500325b8cd4cc18d3ab32f7f1cf4ac0b334909aee867d27987ff828bb83d5537d4e8cee6a64a65738498569eab6c6b9a03c674807f87d78439fa3e3f4fb4eff802057de02af00ac9aa21fa276167a64ee537673954285a49099a228e557f68fd787df32201bc9cc61b97b38ca51d95dd021d51c61c3f2406a39f2fcc67e1ea4c5ea9ffafbf4282ebe2e0a88764ed4a4d0072a2a94595b1c6ba4826942c0f12d08866b5dd7e91e1b8194516d5828a034e1bc4813ebc259dcefd46c92cb04c0ef42b8e741d39c978744f394e90f1d1a48464ba41127011b72da629e047f0f529cad8a7736c1d1929091332e26406d9c82d0710fcd54e050e62df94a8d7a5bde9db0e7885c185d861658a879528e3d511d4ad8f225974dcae24858521737ffe337b5c203595f14b2e2a28f008693d0abd51ccefd52974012137ca9261671935ad0622d9b62f9ed41c10af2cde5856d8487dcbe6ce0b5e844cde1b78868b7ba5b52475fb7e123a093"
      ],
      "sequence": 4294967294
    }
  ],
  "vout": [
    {
      "value": 499967.4592,
      "n": 0,
      "scriptPubKey": {
        "asm": "1 baeb4563865e5dc76ca50acb504a0574816ce0d12b84c14600432189ee5dec58",
        "hex": "5120baeb4563865e5dc76ca50acb504a0574816ce0d12b84c14600432189ee5dec58",
        "reqSigs": 1,
        "type": "witness_v1_scripthash",
        "addresses": [
          "3QJmnh"
        ]
      }
    },
    {
      "value": 1.0,
      "n": 1,
      "scriptPubKey": {
        "asm": "OP_RETURN 633fd0f369f2bf715e7280e3a728f80ce9814233efc43519ae6e55d027bfe55f 85d07bdc6ec4b700eb062f78e8ed5bda49296da8d49cced158466b5ceb01d0f5a5f05bfc4ee49720cb260f58c8cd7bfa69094d88f4bceef178664b7ccb21f0d5c5903b9c2e84f740ab466f38a8ad1b9a09692de894dc8e9118062b1cab4190b5e5b01bbc0ea4d7608b664f18888d3bba29490dc8b4fcaeb138260b3c8b61b0950550fb5cee4437806b86aff8686ddb5ac9a9ed28541c4e51d8c6ebdc6b8150752570db7cce6417a04ba68fd8484dfb7ae989cd08743c6e71f8e6cbfc4ba170554510bb1cae0477c02bc6efb8282d9b1a89e9ad68145c0e119886ab9c2bc1103565309b3c8e2457e00be6cf98080dbb3aa9c98d48347c2e31b8a68bbc0be1301585d07bdc6ec4b700eb062f78e8ed5bda49296da8d49cced158466b5ceb01d0f5a5f05bfc4ee49720cb260f58c8cd7bfa69094d88f4bceef178664b7ccb21f0d5c5903b9c2e84f740ab466f38a8ad1b9a09692de894dc8e9118062b1cab4190b5e5b01bbc0ea4d7608b664f18888d3bba29490dc8b4fcaeb138260b3c8b61b0950550fb5cee4437806b86aff8686ddb5ac9a9ed28541c4e51d8c6ebdc6b8150752570db7cce6417a04ba68fd8484dfb7ae989cd08743c6e71f8e6cbfc4ba170554510bb1cae0477c02bc6efb8282d9b1a89e9ad68145c0e119886ab9c2bc1103565309b3c8e2457e00be6cf98080dbb3aa9c98d48347c2e31b8a68bbc0be1301585d07bdc6ec4b700eb062f78e8ed5bda49296da8d49cced158466b5ceb01d0f5a5f05bfc4ee49720cb260f58c8cd7bfa69094d88f4bceef178664b7ccb21f0d5c5903b9c2e84f740ab466f38a8ad1b9a09692de894dc8e9118062b1cab4190b5e5b01bbc0ea4d7608b664f18888d3bba29490dc8b4fcaeb138260b3c8b61b0950550fb5cee4437806b86aff8686ddb5ac9a9ed28541c4e51d8c6ebdc6b8150752570db7cce6417a04ba68fd8484dfb7ae989cd08743c6e71f8e6cbfc4ba170554510bb1cae0477c02bc6efb8282d9b1a89e9ad68145c0e119886ab9c2bc1103565309b3c8e2457e00be6cf98080dbb3aa9c98d48347c2e31b8a68bbc0be1301585d07bdc6ec4b700eb062f78e8ed5bda49296da8d49cced158466b5ceb01d0f5a5f05bfc4ee49720cb260f58c8cd7bfa69094d88f4bceef178664b7ccb21f0d5c5903b9c2e84f740ab466f38a8ad1b9a09692de894dc8e9118062b1cab4190b5e5b01bbc0ea4d7608b664f18888d3bba29490dc8b4fcaeb138260b3c8b61b0950550fb5cee4437806b86aff8686ddb5ac9a9ed28541c4e51d8c6ebdc6b8150752570db7cce6417a04ba68fd8484dfb7ae989cd08743c6e71f8e6cbfc4ba170554510bb1cae0477c02bc6efb8282d9b1a89e9ad68145c0e119886ab9c2bc1103565309b3c8e2457e00be6cf98080dbb3aa9c98d48347c2e31b8a68bbc0be1301585d07bdc6ec4b700eb062f78e8ed5bda49296da8d49cced158466b5ceb01d0f5a5f05bfc4ee49720cb260f58c8cd7bfa69094d88f4bceef178664b7ccb21f0d5c5903b9c2e84f740ab466f38a8ad1b9a09692de894dc8e9118062b1cab4190b5e5b01bbc0ea4d7608b664f18888d3bba29490dc8b4fcaeb138260b3c8b61b0950550fb5cee4437806b86aff8686ddb5aad0fc66cb05798d70bf82e44c8bf223edd5032edacf52b16587e0e9aaa3ab0d9",
        "hex": "6a20633fd0f369f2bf715e7280e3a728f80ce9814233efc43519ae6e55d027bfe55f4db00485d07bdc6ec4b700eb062f78e8ed5bda49296da8d49cced158466b5ceb01d0f5a5f05bfc4ee49720cb260f58c8cd7bfa69094d88f4bceef178664b7ccb21f0d5c5903b9c2e84f740ab466f38a8ad1b9a09692de894dc8e9118062b1cab4190b5e5b01bbc0ea4d7608b664f18888d3bba29490dc8b4fcaeb138260b3c8b61b0950550fb5cee4437806b86aff8686ddb5ac9a9ed28541c4e51d8c6ebdc6b8150752570db7cce6417a04ba68fd8484dfb7ae989cd08743c6e71f8e6cbfc4ba170554510bb1cae0477c02bc6efb8282d9b1a89e9ad68145c0e119886ab9c2bc1103565309b3c8e2457e00be6cf98080dbb3aa9c98d48347c2e31b8a68bbc0be1301585d07bdc6ec4b700eb062f78e8ed5bda49296da8d49cced158466b5ceb01d0f5a5f05bfc4ee49720cb260f58c8cd7bfa69094d88f4bceef178664b7ccb21f0d5c5903b9c2e84f740ab466f38a8ad1b9a09692de894dc8e9118062b1cab4190b5e5b01bbc0ea4d7608b664f18888d3bba29490dc8b4fcaeb138260b3c8b61b0950550fb5cee4437806b86aff8686ddb5ac9a9ed28541c4e51d8c6ebdc6b8150752570db7cce6417a04ba68fd8484dfb7ae989cd08743c6e71f8e6cbfc4ba170554510bb1cae0477c02bc6efb8282d9b1a89e9ad68145c0e119886ab9c2bc1103565309b3c8e2457e00be6cf98080dbb3aa9c98d48347c2e31b8a68bbc0be1301585d07bdc6ec4b700eb062f78e8ed5bda49296da8d49cced158466b5ceb01d0f5a5f05bfc4ee49720cb260f58c8cd7bfa69094d88f4bceef178664b7ccb21f0d5c5903b9c2e84f740ab466f38a8ad1b9a09692de894dc8e9118062b1cab4190b5e5b01bbc0ea4d7608b664f18888d3bba29490dc8b4fcaeb138260b3c8b61b0950550fb5cee4437806b86aff8686ddb5ac9a9ed28541c4e51d8c6ebdc6b8150752570db7cce6417a04ba68fd8484dfb7ae989cd08743c6e71f8e6cbfc4ba170554510bb1cae0477c02bc6efb8282d9b1a89e9ad68145c0e119886ab9c2bc1103565309b3c8e2457e00be6cf98080dbb3aa9c98d48347c2e31b8a68bbc0be1301585d07bdc6ec4b700eb062f78e8ed5bda49296da8d49cced158466b5ceb01d0f5a5f05bfc4ee49720cb260f58c8cd7bfa69094d88f4bceef178664b7ccb21f0d5c5903b9c2e84f740ab466f38a8ad1b9a09692de894dc8e9118062b1cab4190b5e5b01bbc0ea4d7608b664f18888d3bba29490dc8b4fcaeb138260b3c8b61b0950550fb5cee4437806b86aff8686ddb5ac9a9ed28541c4e51d8c6ebdc6b8150752570db7cce6417a04ba68fd8484dfb7ae989cd08743c6e71f8e6cbfc4ba170554510bb1cae0477c02bc6efb8282d9b1a89e9ad68145c0e119886ab9c2bc1103565309b3c8e2457e00be6cf98080dbb3aa9c98d48347c2e31b8a68bbc0be1301585d07bdc6ec4b700eb062f78e8ed5bda49296da8d49cced158466b5ceb01d0f5a5f05bfc4ee49720cb260f58c8cd7bfa69094d88f4bceef178664b7ccb21f0d5c5903b9c2e84f740ab466f38a8ad1b9a09692de894dc8e9118062b1cab4190b5e5b01bbc0ea4d7608b664f18888d3bba29490dc8b4fcaeb138260b3c8b61b0950550fb5cee4437806b86aff8686ddb5aad0fc66cb05798d70bf82e44c8bf223edd5032edacf52b16587e0e9aaa3ab0d9",
        "type": "nulldata"
      }
    }
  ],
  "blockhash": "a9a7ce638639648c5b111e15e0d4489535a11a846f6b50fba3b7e2925471654c",
  "confirmations": 1,
  "time": 1764182153,
  "blocktime": 1764182153
}