{
  "hex": "0100000000010142b9a5959c2d628c49e9751ee8b41c5ed0a611b4608f7498e7fbdfe0d9ca710a0000000000feffffff0200e1f50500000000fdd5046a204e0cad28c7db698f5bd3ac46444da1a18825c1e1a07f678903c6f38544d3e5784db0046bb34f76d8820b6fc6701f98569882ddc8150fe6483db20f8be626d64d4a81bb4b936f56f8a22b4fe6503fb876b8a2fde8352fc6681d922fabc606f66d6aa19b2bf30f3698c24b2f86305fd816d8c29d88554fa6087df24fcba666960d0ac1fb0bd32f16b8e26b0fa6107ff836f8e2bda8756f86285dd26feb8646b62d2ae1dbeb33cff658028bef46f09f18d618025d48958f66c8bd328f0b66a656cdca013bcb13efd67822abcf66d0bf38f638227d68b5af46e89d12af2b468676edea211bab738fb61842cbaf06b0df589658421d08d5cf2688fd72cf4b26e6168d8a417b8b53af963862eb8f2690ff78b678623d28f5ef06a8dd52ef6b06c636adaa615b6bb34f76d8820b6fc6701f98569882ddc8150fe6483db20f8be626d64d4a81bb4b936f56f8a22b4fe6503fb876b8a2fde8352fc6681d922fabc606f66d6aa19b2bf30f3698c24b2f86305fd816d8c29d88554fa6087df24fcba666960d0ac1fb0bd32f16b8e26b0fa6107ff836f8e2bda8756f86285dd26feb8646b62d2ae1dbeb33cff658028bef46f09f18d618025d48958f66c8bd328f0b66a656cdca013bcb13efd67822abcf66d0bf38f638227d68b5af46e89d12af2b468676edea211bab738fb61842cbaf06b0df589658421d08d5cf2688fd72cf4b26e6168d8a417b8b53af963862eb8f2690ff78b678623d28f5ef06a8dd52ef6b06c636adaa615b6bb34f76d8820b6fc6701f98569882ddc8150fe6483db20f8be626d64d4a81bb4b936f56f8a22b4fe6503fb876b8a2fde8352fc6681d922fabc606f66d6aa19b2bf30f3698c24b2f86305fd816d8c29d88554fa6087df24fcba666960d0ac1fb0bd32f16b8e26b0fa6107ff836f8e2bda8756f86285dd26feb8646b62d2ae1dbeb33cff658028bef46f09f18d618025d48958f66c8bd328f0b66a656cdca013bcb13efd67822abcf66d0bf38f638227d68b5af46e89d12af2b468676edea211bab738fb61842cbaf06b0df589658421d08d5cf2688fd72cf4b26e6168d8a417b8b53af963862eb8f2690ff78b678623d28f5ef06a8dd52ef6b06c636adaa615b6bb34f76d8820b6fc6701f98569882ddc8150fe6483db20f8be626d64d4a81bb4b936f56f8a22b4fe6503fb876b8a2fde8352fc6681d922fabc606f66d6aa19b2bf30f3698c24b2f86305fd816d8c29d88554fa6087df24fcba666960d0ac1fb0bd32f16b8e26b0fa6107ff836f8e2bda8756f86285dd26feb8646b62d2ae1dbeb33cff658028bef46f09f18d618025d48958f66c8bd328f0b66a656cdca013bcb13efd67822abcf66d0bf38f638227d68b5af46e89d12af2b468676edea211bab738fb61842cbaf06b0df589658421d08d5cf2688fd72cf4b26e6168d8a417b8b53af963862eb8f2690ff78b678623d28f5ef06a8dd52ef6b06c636adaa615b6bb34f76d8820b6fc6701f98569882ddc8150fe6483db20f8be626d64d4a81bb4b936f56f8a22b4fe6503fb876b8a2fde8352fc6681d922fabc606f66d6aa19b2bf30f3698c24b2f86305fd816d8c29d88554fa6087df24fcba666960d0ac1fb0bd32f16b8e26b0fa6107ff836f8e2bda8756f86285dd26feb8646b62d2ae1dbeb33cff658028bef46f09f18d618025db186b034d6830afafcce329b45abeef3b710db1dc9d909d6e4dd7dae9a936e62a077e402792d0000225120a707b7273f0d5050a365015aa2f8b4bf97042e1bfcc440182ecb1f80aec7953502fd7509018bf358af7e90d4a3c1a23b2383b8ae2da39c1cf0e58f4d4c563e6489cd7eaf807046f9b428a8de9acd98a880c32a20cb19da18387a22a3994cc2f10f4d7d42f03df87eb070734243a7b1831d0198feb38255174f3d6ece28d11ebd5824f013d6760b765d78ca80353e1562e821649b15b0c434dc05c73b2abaa7d9aeeca02ad0924c88987de9126781178eda67686022b145f89c5c720ff0c7a26fecd1a72885af48cf98ebfc26d102962673610544a974bc35567b707fa18d1154667b3ce428900a7f15bc9671a8b845e972d06fc1f844aa8c00147c8c42ca93c18c1f2f46265c2643a119a012bddcc6bc4d4eb10cd34123e781e0134025e50090b50ed715dec2db615bf34c53d873b40380ae0c3274f5c8bda5f7a2457c4d050f8cc38c9971c5093fd955b5d60f766819b3400eea2e655ee4704cc806a217be1109887288ba7ca4b8d29cf83bbf758d4f0eea776dea5169f3655b8b707c1ab2502e9841b4500529ad1f37a0c0707f1fb2257cd69152d9be5da50323a35fc7a395d788b4cc87391ac52d0f2f5c2e66cdbe298dd7bcff66e37b3c6d575cf4d7ab6fc13ad7b50c68455272911f542da9d9637a1bfacbf8bbffc9c822b895c0758b550efe28735cee114309245bcb2953170c3590794d9af100b6ff4cbe98aa05ff150412a04ad26c70c9fb8ddf1d5253ae2afcf436a630a2a88d0d4e839397a52c54d0c2ef0ffc3b21d1a8755446c560cd7f8eea537959e13501b3cf6c417073f27fb8c944bbfce4d33d09b42b3e88faef87c8c1125d2030f16e764f01aa890070c4d6ded3a23d340a52566f24ad19195ee170eff6ef047e87e9eecfa29c8936b342b09b24f3e101595096f4667b5d8dfd1720c08a5b3b44a1a0aae79646a8868d7b10f46eece9fdec17112b99f344e86ab01b868a377125150bc1d2326a8d9d6c3bc744ff94210ccfe8ad0cc3c323f480928b69e7657c375fff24716f056e2cfa195e3ab9a36c565ae9f001b093efd93a2113acfe50c61b560fe691d4f78a16c22d44be615156d967122d36546da9a873f243041e74d051513b298783a7866f950d9b51f96c01020b362e25f33ef377c63591db19857707f38c7ad79088dbe6ef5fa6f9287c56ae23d2c8f36de45cd045cc0f628e81cd656914e92d3f891e63325317d23dc08aa5c3fd63ba822cc4513b6eb440431e8b6d22cc56dd13b18dd1eeca25f1d6e6d8973b65980879ac820d5f193b6fa0ff0e0db1d0f89948009618a1a8fabed588f5e5d1fdd98cc0b5daa958ffcba337789cabca1ab877a02e6bb3ad4fa29e87fa52edbcc6c49997ffab4a7eeca2abb1715bfa6e701cbc4baa10d66f4a9ba05273b61740f6b9bac4d1e678b03500e07e3fd97b5081a5a436058e7282caa7a25bfa3a088179d2862c4ce55637c98aedd3d195bad35647b0a45c933806816bb0b7ebe893283ede94228e2307d51bc6693bdb2b2e577c64ccc8c86ba1cfd888b66c46a803327f55098922dc945bea58adc60b2f94a9301dc712710b68c479579731890fed246892c69b879441df7e3c804f44a5acceb0219caf2a2ca54c82e1b5baa30663be72d405078e4c1b16623f3b061644e5190c857e7fc95021f76fcf7aeeeeeb988bf92ca09037453ae54546fb34991d7580f803ea8587c4b7dd0d97157b4a8ccd6cc401435e644075b6ad8d14e6b2e2fc3c856d481478cf1ee2399df5d2611b18a4af207a12bb9cc9337552f4ed9e4007b1fc8851c773cb36c70cf1d7df8a4b62881b456f1cce67adadb27c0fcf6c760c7e3678313d7128b59cc2ded950a8715d9aa91cd83d7af9e84fa436d3ab4634a7263d692aef306d20decb23ed4aaad46fad0f2878361532a1fc1a45fea92c45dfb7054781a3cefb4a440ceff99c3df18f13819bffaef373b86b664a396ae4b0845bc7860def18b40018a122943c25a6462cd240cf08e761b530ce2d425e33a2d7e2230d1c3a6cb55ef32c112ad1ad83bd8c20a97ab71ef40dafe53e5c71c152218da59ade31ab0354e1db37738f5d9689b77c91a4a53ae8a4cca6e6936025c657d4e4fca032491a2434f948a4a8f638a99cc7b8ebfaaa54ae14f2997a76c0b80b8741d37e38f2b54fda65f9436d307b6f223f6e29b079fed37ddc59dee1691fe2b6e32bbfe68319b735acfdf84d4b500d91988cecd495a1a31f95825d8c4f5707b1e0f034865e404e9345203d9d086be74e66bace05be7c07e5810f2e08b179e59bdc95f98d119c9d26992e221c564fb1866017166943cedbea77d98c8017af570fb95350c7b5c59e3152cffbfa539e20c9da4591ef7b5d4e0370cddab33a0a10cf7102f44d1a22f19ec569106a44b1895489f32411997c1766db8d749ee507145bc5f22f075f2007ecb1c17150cbbb6de6fddf35ffd6cfd52c6d0966ac902e98727e01821c394019a652142a832047c7ec23b818b933e0602f7abc22ffea95350c40ac91f57ad61fb51f327a6d8a37a1df4534e4c523106bdfecece4437413e7d09c54dfaf4aa0040a0bfe93a2e6038c5899a37ec14d25fe275a2754ee7930776cf61e732965ec003bd24dbb2b21da5472150e8f09e3f4f4e0229089f47bd1936776c974626e33d45313d0f408f4e9a5eb4d5aa449dd09a060c956b607d76f2bf57675f7b9b0efa2ee14bf3b4d66b929813a09830aa969f5a6284231313006cf0aa8112d275a7fe1a8058e8f05c56a000899bb89f79a1842fb6d160d313b4e6fd974c7c378a5512934902bc76a1f87fe1566044b05ae359344b21a481cc3f18d8f83a9ec74a85554b50caf6c5040d2b06047029c239d6b80f3c5faa6b1edf1816b4415458c50b0f556017e13807cf9aa3ad85a3bbd6f26b1c411aeb118ea615c5a986f4de98d6da23f81addf13f45964ece34e72cb832f8e5790f906dd49a283479571d4642a8d2aa814cb8f062c7d57762bb96a00661aaf3c77d8c5e4a74c6a279b46729682a69a0021b46262e67bc008f6f866688d9f0ffad3304d4edaca7033654ed4083a3c2a89cfdfb239af89c649a642d45e4d07c59445fb932b0f4376d191847906b4dc4cc8aae56c13e922ccfe9905c09847ccc08a59ff1b1c75f5a2021eca50bdbe5244634370a4faacd34f4cda6b9e9f8513e326e4e78078755837b5c3ce1738fa312def8589ab30560a3547aa3969caf0bcc568ca46c2cae90b82eedf22f7945b57e883567caa9d2c2234905f5f0452420cade968570b591be7be79447af758a6e50ef53d27f9f88b2dd6b655808972ab0551ea7a66a0f919bb775f9dddeb481cdbf8ce92eecdecfc103e4244626a7f929aa6abb8c3c7cad9dadf0b19232a2b535c5e778d9eaed4e6333a3e455e6169b8e0e1000a1d2b37525b5cd0d1d3e8ebeef2fafe00000000000000000000000000000000000000000012202a3b01fd210500504946dcc0d079dec167c9a2921bbefc53b96f41c2ceed8ca4a6127288ecd2f156a619ef5c3207ffbb29b03bb141370636c8df34db6a1d91a98ed2da7e195b89904d0375a42caf987df26c9ad3b153e385eb251aca8d61919feebec0301f75a6881522c9accaf4bd8c16b9029cff2092d9db4e9c50c986dac0d7b2dea38dfe01bc1988a3d8b4653c8199db380ead91a63663dc255430d6ab9a5435a5befbef8e14036cfae031317f7e1d65f4ece3ec23a46f5420e00e8c199c167a7dbb430499a723f82307b18dd71ba667eb2490f048f0fbe1409b10b3f4c7528598351f4c55f39efff94c712abbe03dc5ca7577a547023607f39af27236ae0a7d784b6bf98c8afd805e745da663d295aacb57ef4873558bf1fd99e96868c9d3a08d16541342bd5a1880fb2c89c511dadaf15173fc83578a801d699be440c19059e0856c1736446b9cff25b79c791a9c567142b5f58b4d165b1e43457d1a65f2bdceecb2a8219d38ab072a4f1a9a6a9da8a282847f904eb98e21df8470bda059dc2d545e3321b90d970dc453be2cba96a38f9bb2cd4d2da7eee0cf57954d8f96c09b62dded87d1df01de0d9d62d17b7d8388951327b683dd4e86ed5de55646572a5a57ec258c965121e12b09c4fae02f8d704715712db5b6b4ea91944c90f374cbd20446567adca7c8c0c76a51d7e14115d75a86b4d8ac724ac6cbb6c6d79193ad84c4995247f8afefe8727b3240e58f7832586de7431052352bc1d0bda257571552babb9a864f242d68f38428e6b2d36c4570f39fce8d8f196f7cc379de5fed924bb643f754d57db8a4ca3b4413b7c0a9ae35351e229bd35d8487dcf0d3840445003429d75d6e313e745f559d0a74fc57bbd78fed9f92c02fcc2f8dcbf3185df29ba5ceb2bda0d73391254f59a8ade28399b68067cbd953186e34e411a754f41e172bb6f430c5fef887d2a825137e5922bd3b70e8f4bcc5bbae0aae67daa877253cfaaf494b61f9327cb03a493e3f13b2d505e5dbc07647619e55fa67d9b726c463d0b26b442e21f46bea6bae28f93277768d88a3b0f829894a658b5e20bec78d772e13f344dacc6b30840912c378d95457e71b048fd077407665b9d9a948cfa3a0a941c074cb780622afd0e649d25add2225f0dc412efadaca7302283e370503408a2628bbe8476f017653d688c97a29d4919872c9bf161070788a1643e7f2ab473e56c28ec253f4b5542d548cc3a5cbdfd169a0ecd8e9702c5630bb9a78512a4b50646772661feb7cd2413adc68c49acca9d3348e4e5b8a4ca420a90a01284cd0b068345236639efd2fb7b7cb6a089c2256585cf07df41f666b6cc13a15e3a8d45fd6528b4f5cecef3f2b305eb47a55fa6156a75676724385e646812bd0b140dfdf1e878c6e1745f32ce74fba96f61cd328af785dec2714037ce0f35cd5a919c5f5fe69f901852d97e3d008959037a73086cf55272b430f4e09773f4a4f2486512817f598e6d8835cab5321c304dd88877827ad7913ceda3dbb709380b142411642e83e03f738cd32e0922fb803972c252da2e377197ddd1d93b232f3102ba0b776e4e211823de6c2d80002d17ee2c22fd97a57c0eff9de43efd66209b201a443452be7571fa3e84097a098c0554d47d5837e790b8ecb1485fcf2634b6f43e7b6f806c1016c3b9ceb00d4495d81b532882ccf3cab601b3637b91bf59fea017467c7e1d801ce6ff3496eda0b4023ea622bedc04bb2077f9e5552b3ebfee1cb9b8bfba5dc9fa0a71ce237cec895fa994c653db32d3bb74f91d243cee8cc66907faba8f9d2a6554852c60ec254539f7de654a42be87a31d1b8e83a643fb18ae6449c0ab80fa877000000",
  "txid": "8259b9235ab951219dcb07f317b9599f8d6cd779fb053f269573a7d1b92ea6aa",
  "hash": "a7fdaded90656f3d703f1985643c6162c1049a73fcd68d8f9f1c40e8cab552ee",
  "size": 5085,
  "vsize": 2278,
  "version": 1,
  "locktime": 119,
  "vin": [
    {
      "txid": "0a71cad9e0dffbe798748f60b411a6d05e1cb4e81e75e9498c622d9c95a5b942",
      "vout": 0,
      "scriptSig": {
        "asm": "",
        "hex": ""
      },
      "txinwitness": [
        "018bf358af7e90d4a3c1a23b2383b8ae2da39c1cf0e58f4d4c563e6489cd7eaf807046f9b428a8de9acd98a880c32a20cb19da18387a22a3994cc2f10f4d7d42f03df87eb070734243a7b1831d0198feb38255174f3d6ece28d11ebd5824f013d6760b765d78ca80353e1562e821649b15b0c434dc05c73b2abaa7d9aeeca02ad0924c88987de9126781178eda67686022b145f89c5c720ff0c7a26fecd1a72885af48cf98ebfc26d102962673610544a974bc35567b707fa18d1154667b3ce428900a7f15bc9671a8b845e972d06fc1f844aa8c00147c8c42ca93c18c1f2f46265c2643a119a012bddcc6bc4d4eb10cd34123e781e0134025e50090b50ed715dec2db615bf34c53d873b40380ae0c3274f5c8bda5f7a2457c4d050f8cc38c9971c5093fd955b5d60f766819b3400eea2e655ee4704cc806a217be1109887288ba7ca4b8d29cf83bbf758d4f0eea776dea5169f3655b8b707c1ab2502e9841b4500529ad1f37a0c0707f1fb2257cd69152d9be5da50323a35fc7a395d788b4cc87391ac52d0f2f5c2e66cdbe298dd7bcff66e37b3c6d575cf4d7ab6fc13ad7b50c68455272911f542da9d9637a1bfacbf8bbffc9c822b895c0758b550efe28735cee114309245bcb2953170c3590794d9af100b6ff4cbe98aa05ff150412a04ad26c70c9fb8ddf1d5253ae2afcf436a630a2a88d0d4e839397a52c54d0c2ef0ffc3b21d1a8755446c560cd7f8eea537959e13501b3cf6c417073f27fb8c944bbfce4d33d09b42b3e88faef87c8c1125d2030f16e764f01aa890070c4d6ded3a23d340a52566f24ad19195ee170eff6ef047e87e9eecfa29c8936b342b09b24f3e101595096f4667b5d8dfd1720c08a5b3b44a1a0aae79646a8868d7b10f46eece9fdec17112b99f344e86ab01b868a377125150bc1d2326a8d9d6c3bc744ff94210ccfe8ad0cc3c323f480928b69e7657c375fff24716f056e2cfa195e3ab9a36c565ae9f001b093efd93a2113acfe50c61b560fe691d4f78a16c22d44be615156d967122d36546da9a873f243041e74d051513b298783a7866f950d9b51f96c01020b362e25f33ef377c63591db19857707f38c7ad79088dbe6ef5fa6f9287c56ae23d2c8f36de45cd045cc0f628e81cd656914e92d3f891e63325317d23dc08aa5c3fd63ba822cc4513b6eb440431e8b6d22cc56dd13b18dd1eeca25f1d6e6d8973b65980879ac820d5f193b6fa0ff0e0db1d0f89948009618a1a8fabed588f5e5d1fdd98cc0b5daa958ffcba337789cabca1ab877a02e6bb3ad4fa29e87fa52edbcc6c49997ffab4a7eeca2abb1715bfa6e701cbc4baa10d66f4a9ba05273b61740f6b9bac4d1e678b03500e07e3fd97b5081a5a436058e7282caa7a25bfa3a088179d2862c4ce55637c98aedd3d195bad35647b0a45c933806816bb0b7ebe893283ede94228e2307d51bc6693bdb2b2e577c64ccc8c86ba1cfd888b66c46a803327f55098922dc945bea58adc60b2f94a9301dc712710b68c479579731890fed246892c69b879441df7e3c804f44a5acceb0219caf2a2ca54c82e1b5baa30663be72d405078e4c1b16623f3b061644e5190c857e7fc95021f76fcf7aeeeeeb988bf92ca09037453ae54546fb34991d7580f803ea8587c4b7dd0d97157b4a8ccd6cc401435e644075b6ad8d14e6b2e2fc3c856d481478cf1ee2399df5d2611b18a4af207a12bb9cc9337552f4ed9e4007b1fc8851c773cb36c70cf1d7df8a4b62881b456f1cce67adadb27c0fcf6c760c7e3678313d7128b59cc2ded950a8715d9aa91cd83d7af9e84fa436d3ab4634a7263d692aef306d20decb23ed4aaad46fad0f2878361532a1fc1a45fea92c45dfb7054781a3cefb4a440ceff99c3df18f13819bffaef373b86b664a396ae4b0845bc7860def18b40018a122943c25a6462cd240cf08e761b530ce2d425e33a2d7e2230d1c3a6cb55ef32c112ad1ad83bd8c20a97ab71ef40dafe53e5c71c152218da59ade31ab0354e1db37738f5d9689b77c91a4a53ae8a4cca6e6936025c657d4e4fca032491a2434f948a4a8f638a99cc7b8ebfaaa54ae14f2997a76c0b80b8741d37e38f2b54fda65f9436d307b6f223f6e29b079fed37ddc59dee1691fe2b6e32bbfe68319b735acfdf84d4b500d91988cecd495a1a31f95825d8c4f5707b1e0f034865e404e9345203d9d086be74e66bace05be7c07e5810f2e08b179e59bdc95f98d119c9d26992e221c564fb1866017166943cedbea77d98c8017af570fb95350c7b5c59e3152cffbfa539e20c9da4591ef7b5d4e0370cddab33a0a10cf7102f44d1a22f19ec569106a44b1895489f32411997c1766db8d749ee507145bc5f22f075f2007ecb1c17150cbbb6de6fddf35ffd6cfd52c6d0966ac902e98727e01821c394019a652142a832047c7ec23b818b933e0602f7abc22ffea95350c40ac91f57ad61fb51f327a6d8a37a1df4534e4c523106bdfecece4437413e7d09c54dfaf4aa0040a0bfe93a2e6038c5899a37ec14d25fe275a2754ee7930776cf61e732965ec003bd24dbb2b21da5472150e8f09e3f4f4e0229089f47bd1936776c974626e33d45313d0f408f4e9a5eb4d5aa449dd09a060c956b607d76f2bf57675f7b9b0efa2ee14bf3b4d66b929813a09830aa969f5a6284231313006cf0aa8112d275a7fe1a8058e8f05c56a000899bb89f79a1842fb6d160d313b4e6fd974c7c378a5512934902bc76a1f87fe1566044b05ae359344b21a481cc3f18d8f83a9ec74a85554b50caf6c5040d2b06047029c239d6b80f3c5faa6b1edf1816b4415458c50b0f556017e13807cf9aa3ad85a3bbd6f26b1c411aeb118ea615c5a986f4de98d6da23f81addf13f45964ece34e72cb832f8e5790f906dd49a283479571d4642a8d2aa814cb8f062c7d57762bb96a00661aaf3c77d8c5e4a74c6a279b46729682a69a0021b46262e67bc008f6f866688d9f0ffad3304d4edaca7033654ed4083a3c2a89cfdfb239af89c649a642d45e4d07c59445fb932b0f4376d191847906b4dc4cc8aae56c13e922ccfe9905c09847ccc08a59ff1b1c75f5a2021eca50bdbe5244634370a4faacd34f4cda6b9e9f8513e326e4e78078755837b5c3ce1738fa312def8589ab30560a3547aa3969caf0bcc568ca46c2cae90b82eedf22f7945b57e883567caa9d2c2234905f5f0452420cade968570b591be7be79447af758a6e50ef53d27f9f88b2dd6b655808972ab0551ea7a66a0f919bb775f9dddeb481cdbf8ce92eecdecfc103e4244626a7f929aa6abb8c3c7cad9dadf0b19232a2b535c5e778d9eaed4e6333a3e455e6169b8e0e1000a1d2b37525b5cd0d1d3e8ebeef2fafe00000000000000000000000000000000000000000012202a3b01",
        "00504946dcc0d079dec167c9a2921bbefc53b96f41c2ceed8ca4a6127288ecd2f156a619ef5c3207ffbb29b03bb141370636c8df34db6a1d91a98ed2da7e195b89904d0375a42caf987df26c9ad3b153e385eb251aca8d61919feebec0301f75a6881522c9accaf4bd8c16b9029cff2092d9db4e9c50c986dac0d7b2dea38dfe01bc1988a3d8b4653c8199db380ead91a63663dc255430d6ab9a5435a5befbef8e14036cfae031317f7e1d65f4ece3ec23a46f5420e00e8c199c167a7dbb430499a723f82307b18dd71ba667eb2490f048f0fbe1409b10b3f4c7528598351f4c55f39efff94c712abbe03dc5ca7577a547023607f39af27236ae0a7d784b6bf98c8afd805e745da663d295aacb57ef4873558bf1fd99e96868c9d3a08d16541342bd5a1880fb2c89c511dadaf15173fc83578a801d699be440c19059e0856c1736446b9cff25b79c791a9c567142b5f58b4d165b1e43457d1a65f2bdceecb2a8219d38ab072a4f1a9a6a9da8a282847f904eb98e21df8470bda059dc2d545e3321b90d970dc453be2cba96a38f9bb2cd4d2da7eee0cf57954d8f96c09b62dded87d1df01de0d9d62d17b7d8388951327b683dd4e86ed5de55646572a5a57ec258c965121e12b09c4fae02f8d704715712db5b6b4ea91944c90f374cbd20446567adca7c8c0c76a51d7e14115d75a86b4d8ac724ac6cbb6c6d79193ad84c4995247f8afefe8727b3240e58f7832586de7431052352bc1d0bda257571552babb9a864f242d68f38428e6b2d36c4570f39fce8d8f196f7cc379de5fed924bb643f754d57db8a4ca3b4413b7c0a9ae35351e229bd35d8487dcf0d3840445003429d75d6e313e745f559d0a74fc57bbd78fed9f92c02fcc2f8dcbf3185df29ba5ceb2bda0d73391254f59a8ade28399b68067cbd953186e34e411a754f41e172bb6f430c5fef887d2a825137e5922bd3b70e8f4bcc5bbae0aae67daa877253cfaaf494b61f9327cb03a493e3f13b2d505e5dbc07647619e55fa67d9b726c463d0b26b442e21f46bea6bae28f93277768d88a3b0f829894a658b5e20bec78d772e13f344dacc6b30840912c378d95457e71b048fd077407665b9d9a948cfa3a0a941c074cb780622afd0e649d25add2225f0dc412efadaca7302283e370503408a2628bbe8476f017653d688c97a29d4919872c9bf161070788a1643e7f2ab473e56c28ec253f4b5542d548cc3a5cbdfd169a0ecd8e9702c5630bb9a78512a4b50646772661feb7cd2413adc68c49acca9d3348e4e5b8a4ca420a90a01284cd0b068345236639efd2fb7b7cb6a089c2256585cf07df41f666b6cc13a15e3a8d45fd6528b4f5cecef3f2b305eb47a55fa6156a75676724385e646812bd0b140dfdf1e878c6e1745f32ce74fba96f61cd328af785dec2714037ce0f35cd5a919c5f5fe69f901852d97e3d008959037a73086cf55272b430f4e09773f4a4f2486512817f598e6d8835cab5321c304dd88877827ad7913ceda3dbb709380b142411642e83e03f738cd32e0922fb803972c252da2e377197ddd1d93b232f3102ba0b776e4e211823de6c2d80002d17ee2c22fd97a57c0eff9de43efd66209b201a443452be7571fa3e84097a098c0554d47d5837e790b8ecb1485fcf2634b6f43e7b6f806c1016c3b9ceb00d4495d81b532882ccf3cab601b3637b91bf59fea017467c7e1d801ce6ff3496eda0b4023ea622bedc04bb2077f9e5552b3ebfee1cb9b8bfba5dc9fa0a71ce237cec895fa994c653db32d3bb74f91d243cee8cc66907faba8f9d2a6554852c60ec254539f7de654a42be87a31d1b8e83a643fb18ae6449c0ab80fa8"
      ],
      "sequence": 4294967294
    }
  ],
  "vout": [
    {
      "value": 1.0,
      "n": 0,
      "scriptPubKey": {
        "asm": "OP_RETURN 4e0cad28c7db698f5bd3ac46444da1a18825c1e1a07f678903c6f38544d3e578 6bb34f76d8820b6fc6701f98569882ddc8150fe6483db20f8be626d64d4a81bb4b936f56f8a22b4fe6503fb876b8a2fde8352fc6681d922fabc606f66d6aa19b2bf30f3698c24b2f86305fd816d8c29d88554fa6087df24fcba666960d0ac1fb0bd32f16b8e26b0fa6107ff836f8e2bda8756f86285dd26feb8646b62d2ae1dbeb33cff658028bef46f09f18d618025d48958f66c8bd328f0b66a656cdca013bcb13efd67822abcf66d0bf38f638227d68b5af46e89d12af2b468676edea211bab738fb61842cbaf06b0df589658421d08d5cf2688fd72cf4b26e6168d8a417b8b53af963862eb8f2690ff78b678623d28f5ef06a8dd52ef6b06c636adaa615b6bb34f76d8820b6fc6701f98569882ddc8150fe6483db20f8be626d64d4a81bb4b936f56f8a22b4fe6503fb876b8a2fde8352fc6681d922fabc606f66d6aa19b2bf30f3698c24b2f86305fd816d8c29d88554fa6087df24fcba666960d0ac1fb0bd32f16b8e26b0fa6107ff836f8e2bda8756f86285dd26feb8646b62d2ae1dbeb33cff658028bef46f09f18d618025d48958f66c8bd328f0b66a656cdca013bcb13efd67822abcf66d0bf38f638227d68b5af46e89d12af2b468676edea211bab738fb61842cbaf06b0df589658421d08d5cf2688fd72cf4b26e6168d8a417b8b53af963862eb8f2690ff78b678623d28f5ef06a8dd52ef6b06c636adaa615b6bb34f76d8820b6fc6701f98569882ddc8150fe6483db20f8be626d64d4a81bb4b936f56f8a22b4fe6503fb876b8a2fde8352fc6681d922fabc606f66d6aa19b2bf30f3698c24b2f86305fd816d8c29d88554fa6087df24fcba666960d0ac1fb0bd32f16b8e26b0fa6107ff836f8e2bda8756f86285dd26feb8646b62d2ae1dbeb33cff658028bef46f09f18d618025d48958f66c8bd328f0b66a656cdca013bcb13efd67822abcf66d0bf38f638227d68b5af46e89d12af2b468676edea211bab738fb61842cbaf06b0df589658421d08d5cf2688fd72cf4b26e6168d8a417b8b53af963862eb8f2690ff78b678623d28f5ef06a8dd52ef6b06c636adaa615b6bb34f76d8820b6fc6701f98569882ddc8150fe6483db20f8be626d64d4a81bb4b936f56f8a22b4fe6503fb876b8a2fde8352fc6681d922fabc606f66d6aa19b2bf30f3698c24b2f86305fd816d8c29d88554fa6087df24fcba666960d0ac1fb0bd32f16b8e26b0fa6107ff836f8e2bda8756f86285dd26feb8646b62d2ae1dbeb33cff658028bef46f09f18d618025d48958f66c8bd328f0b66a656cdca013bcb13efd67822abcf66d0bf38f638227d68b5af46e89d12af2b468676edea211bab738fb61842cbaf06b0df589658421d08d5cf2688fd72cf4b26e6168d8a417b8b53af963862eb8f2690ff78b678623d28f5ef06a8dd52ef6b06c636adaa615b6bb34f76d8820b6fc6701f98569882ddc8150fe6483db20f8be626d64d4a81bb4b936f56f8a22b4fe6503fb876b8a2fde8352fc6681d922fabc606f66d6aa19b2bf30f3698c24b2f86305fd816d8c29d88554fa6087df24fcba666960d0ac1fb0bd32f16b8e26b0fa6107ff836f8e2bda8756f86285dd26feb8646b62d2ae1dbeb33cff658028bef46f09f18d618025db186b034d6830afafcce329b45abeef3b710db1dc9d909d6e4dd7dae9a936e62",
        "hex": "6a204e0cad28c7db698f5bd3ac46444da1a18825c1e1a07f678903c6f38544d3e5784db0046bb34f76d8820b6fc6701f98569882ddc8150fe6483db20f8be626d64d4a81bb4b936f56f8a22b4fe6503fb876b8a2fde8352fc6681d922fabc606f66d6aa19b2bf30f3698c24b2f86305fd816d8c29d88554fa6087df24fcba666960d0ac1fb0bd32f16b8e26b0fa6107ff836f8e2bda8756f86285dd26feb8646b62d2ae1dbeb33cff658028bef46f09f18d618025d48958f66c8bd328f0b66a656cdca013bcb13efd67822abcf66d0bf38f638227d68b5af46e89d12af2b468676edea211bab738fb61842cbaf06b0df589658421d08d5cf2688fd72cf4b26e6168d8a417b8b53af963862eb8f2690ff78b678623d28f5ef06a8dd52ef6b06c636adaa615b6bb34f76d8820b6fc6701f98569882ddc8150fe6483db20f8be626d64d4a81bb4b936f56f8a22b4fe6503fb876b8a2fde8352fc6681d922fabc606f66d6aa19b2bf30f3698c24b2f86305fd816d8c29d88554fa6087df24fcba666960d0ac1fb0bd32f16b8e26b0fa6107ff836f8e2bda8756f86285dd26feb8646b62d2ae1dbeb33cff658028bef46f09f18d618025d48958f66c8bd328f0b66a656cdca013bcb13efd67822abcf66d0bf38f638227d68b5af46e89d12af2b468676edea211bab738fb61842cbaf06b0df589658421d08d5cf2688fd72cf4b26e6168d8a417b8b53af963862eb8f2690ff78b678623d28f5ef06a8dd52ef6b06c636adaa615b6bb34f76d8820b6fc6701f98569882ddc8150fe6483db20f8be626d64d4a81bb4b936f56f8a22b4fe6503fb876b8a2fde8352fc6681d922fabc606f66d6aa19b2bf30f3698c24b2f86305fd816d8c29d88554fa6087df24fcba666960d0ac1fb0bd32f16b8e26b0fa6107ff836f8e2bda8756f86285dd26feb8646b62d2ae1dbeb33cff658028bef46f09f18d618025d48958f66c8bd328f0b66a656cdca013bcb13efd67822abcf66d0bf38f638227d68b5af46e89d12af2b468676edea211bab738fb61842cbaf06b0df589658421d08d5cf2688fd72cf4b26e6168d8a417b8b53af963862eb8f2690ff78b678623d28f5ef06a8dd52ef6b06c636adaa615b6bb34f76d8820b6fc6701f98569882ddc8150fe6483db20f8be626d64d4a81bb4b936f56f8a22b4fe6503fb876b8a2fde8352fc6681d922fabc606f66d6aa19b2bf30f3698c24b2f86305fd816d8c29d88554fa6087df24fcba666960d0ac1fb0bd32f16b8e26b0fa6107ff836f8e2bda8756f86285dd26feb8646b62d2ae1dbeb33cff658028bef46f09f18d618025d48958f66c8bd328f0b66a656cdca013bcb13efd67822abcf66d0bf38f638227d68b5af46e89d12af2b468676edea211bab738fb61842cbaf06b0df589658421d08d5cf2688fd72cf4b26e6168d8a417b8b53af963862eb8f2690ff78b678623d28f5ef06a8dd52ef6b06c636adaa615b6bb34f76d8820b6fc6701f98569882ddc8150fe6483db20f8be626d64d4a81bb4b936f56f8a22b4fe6503fb876b8a2fde8352fc6681d922fabc606f66d6aa19b2bf30f3698c24b2f86305fd816d8c29d88554fa6087df24fcba666960d0ac1fb0bd32f16b8e26b0fa6107ff836f8e2bda8756f86285dd26feb8646b62d2ae1dbeb33cff658028bef46f09f18d618025db186b034d6830afafcce329b45abeef3b710db1dc9d909d6e4dd7dae9a936e62",
        "type": "nulldata"
      }
    },
    {
      "value": 499977.6282,
      "n": 1,
      "scriptPubKey": {
        "asm": "1 a707b7273f0d5050a365015aa2f8b4bf97042e1bfcc440182ecb1f80aec79535",
        "hex": "5120a707b7273f0d5050a365015aa2f8b4bf97042e1bfcc440182ecb1f80aec79535",
        "reqSigs": 1,
        "type": "witness_v1_scripthash",
        "addresses": [
          "3QJmnh"
        ]
      }
    }
  ],
  "blockhash": "2c44072194b49e49486c87ae6b37abdd6c2c23e2c7b477f70371a1b5276080d1",
  "confirmations": 1,
  "time": 1764179865,
  "blocktime": 1764179865
}