{
  "hex": "01000000000101ef89b6fbf1bb90344630a92db8d8168035a5b7632e98658ff1a99f00ce7daf4f0100000000feffffff02f0ceba8f782d0000225120a2dc4d48f1b4047c50e86fd59b99de697ee55090f441f87bf6ef1a769d6b0a1d00e1f50500000000fdd5046a20614347bdc23300d7ceb908ba42f0f922be4dd78f84c4e197b69013f2655e07654db0041e9ecdb2fe6f7702ed2e13bcb28084ebede3fd5c20e005231b1475efc3c403123ebeed92de4f5722cd0e339c92a0a4cbcdc3dd7c00c025033b3455cfe3e423325ede8df2be2f3742ad6e53fcf2c0c4abada3bd1c60a045635b5435af838443527efeadd29e0f17628d4e73dcd2e0e48b8d839d3c408065437b74158fa3a463729e1e4d327eeff7826dae933c3200046b6d637ddca06085a39b94f56f43448392be3e6d125ecfd7a24d8eb31c1220244b4d435dfc8040a583bbb4d54f6364a3b2de5e0d723eafb7c22deed37c7240442b2d233d9ce020c5e3dbd4b52f0304c3d2fe7e2d521e8f97e20dcef35c5260640b0d031dbcc000e5c3fbf4950f2324e3f21e9ecdb2fe6f7702ed2e13bcb28084ebede3fd5c20e005231b1475efc3c403123ebeed92de4f5722cd0e339c92a0a4cbcdc3dd7c00c025033b3455cfe3e423325ede8df2be2f3742ad6e53fcf2c0c4abada3bd1c60a045635b5435af838443527efeadd29e0f17628d4e73dcd2e0e48b8d839d3c408065437b74158fa3a463729e1e4d327eeff7826dae933c3200046b6d637ddca06085a39b94f56f43448392be3e6d125ecfd7a24d8eb31c1220244b4d435dfc8040a583bbb4d54f6364a3b2de5e0d723eafb7c22deed37c7240442b2d233d9ce020c5e3dbd4b52f0304c3d2fe7e2d521e8f97e20dcef35c5260640b0d031dbcc000e5c3fbf4950f2324e3f21e9ecdb2fe6f7702ed2e13bcb28084ebede3fd5c20e005231b1475efc3c403123ebeed92de4f5722cd0e339c92a0a4cbcdc3dd7c00c025033b3455cfe3e423325ede8df2be2f3742ad6e53fcf2c0c4abada3bd1c60a045635b5435af838443527efeadd29e0f17628d4e73dcd2e0e48b8d839d3c408065437b74158fa3a463729e1e4d327eeff7826dae933c3200046b6d637ddca06085a39b94f56f43448392be3e6d125ecfd7a24d8eb31c1220244b4d435dfc8040a583bbb4d54f6364a3b2de5e0d723eafb7c22deed37c7240442b2d233d9ce020c5e3dbd4b52f0304c3d2fe7e2d521e8f97e20dcef35c5260640b0d031dbcc000e5c3fbf4950f2324e3f21e9ecdb2fe6f7702ed2e13bcb28084ebede3fd5c20e005231b1475efc3c403123ebeed92de4f5722cd0e339c92a0a4cbcdc3dd7c00c025033b3455cfe3e423325ede8df2be2f3742ad6e53fcf2c0c4abada3bd1c60a045635b5435af838443527efeadd29e0f17628d4e73dcd2e0e48b8d839d3c408065437b74158fa3a463729e1e4d327eeff7826dae933c3200046b6d637ddca06085a39b94f56f43448392be3e6d125ecfd7a24d8eb31c1220244b4d435dfc8040a583bbb4d54f6364a3b2de5e0d723eafb7c22deed37c7240442b2d233d9ce020c5e3dbd4b52f0304c3d2fe7e2d521e8f97e20dcef35c5260640b0d031dbcc000e5c3fbf4950f2324e3f21e9ecdb2fe6f7702ed2e13bcb28084ebede3fd5c20e005231b1475efc3c403123ebeed92de4f5722cd0e339c92a0a4cbcdc3dd7c00c025033b3455cfe3e423325ede8df2be2f3742ad6e53fcf2c0c4abada3bd1c60a045635b5435af838443527efeadd29e0f17628d4e73dcd2e0e48b8d839d3c408065437b74158fa3a463729e1e4d327eeff7826dae933c3200046b4ea54c092592771bd081b85060f178a9cbb49fb7fc19db8cc04873fd51a5882d02fd75099962b9edb9226b86474a7155180bbe1b565821d8434184961ba0a9b240ed3a7aa0feb9ed2278bc9c81fa60a1b8e6f5d81e800187bf81359d3a8d452b36e2038e12aab2efe31b5496db8895b2c9498e98afff7575891bed7c4cd15e60dcb0880db2c3fdeae7357ca469d6e9a2934b8590e250b59941fb14c0ffcc14caed3dff8c5c10d585e04fcbb43babc6965bec37c2772835a87d3b66863e878fdd7205d7c734bd1db8887619395ae9ad39f31f3dd1ca5752a13d4fbe338ed5136cedf1cf8b68240443134b6a54d794cc2e90f1a811010a1f472610afe42f7aa0024eabf3180b11447a510cddd4177fb1b5ae459109ed23185cb68babada830af2717232e017dc267d623e0539e7cd3d4b8b8978bdeeaac4a8ea7794a1a5c7f5c1a8bbceff9789cab4b1e34e0874ef872b4ab3b1960156a1e0bdaba8283c5b97f916f3ca03dcea6d071e2721f526d377a2ba37f629d9ef83930ea51523cf3303f889fc845279b94c6d83f1e6381f5e2e478a160bbc33073d3cc1659ab0dc5b4d3f9202ed01e77b1828a5c9827c5e3d97170a53c50f078e0ef08a488511ef1742c1b29e3a73820f36470e9666d1d68b25061b1f085d5fd23174102ec9c9c94ae79fec90fa80cd898c2897b35dd3e4a44e01f5b57e692c41d1da992130bcafecae2fce8c79b0809c33f6e6eb2460ed19cd4ae897849f2e178f38099bbcf75038332715fcdb9e5523fa6eb74b210022b1b461a758b34f372891b1516c2b456001fb4354e141940fd2d37063db0da4fd708d6bb5ba59bea6d9dae2f73322337f49d8f8156cd1bae1ba9188517bd9d23d29a6e98ad5eb53b20da4c51422261f88a01289d2e6e28025e86b500d3f4b6cf78b09b58e7bb33138b4847d920fc70183ae9bf9a9481f48c00e99a81c73cc0b3f537f493a8184544bd6591037a0e176bd6f2ed153d24b9f19ab9fcfd85c90041f6a275811c1673155b3f868702273a95b421d26bb5da0f4f7e267059168ea4fd7408e6788fd226430f119687e9416c47024d0165a6ec59b78e1c7e55304a553b5fac1695b5204d95590394696be1a90ee9c10db004b58d9779ca4a46c383aa63ac96f08dd7e50489fddce42542681299fb676e355db0f9251fcbdc543551baae12c3f707cc016e880c85b7f39d4b483a98688eaf25032503ee17f19b0bc1f1513f2f8bf43750ada9e70443327dd10560f0c8b66d99a1e84eda0a7e0acdc057b232ddbf583f528e7c513028d3f3e10a0a620c016996f67bc1477f8ae80bbf654dffb14016fb81d9ae87ba9fdd0c357123f917cd81201c3c8c4f8ac43daa9e0f3c580cb80f4673572e419dfda5c29e8ea43130d880b870b64208a73ffff9d2526fcd997425d27a8e7c3ab3fc9acc59ab2f01e71a1f8d4746d5e5eb5ee58c78311b26d83b2547db9469a6040eba5c77f9c189509824caa732c7ceab878a3ddcf33966d6512fa65ca97e5e3592f16a30fd00f76e54718042c36824d606f5ee30d1b5a87ec44f4f9b16e645e302043b6c0cfba97ed5ffd923fe1501471173f978af6022b7b87162b81489da7baedaa40cd48bb8278df610cef7d55f2e9392f66cca5120466b85436ff9d4c672358d05950a0f2aad2fb1d4fa22be8159e17a79e607ecc999c2e5a4ee531d58b21707243e9dbe3600287377e502b54ce3079ddf982c8d9468c45ade5b8a43480f63869dbacee76f9c6282cfd4227e517adceda86ba5b9d489be27ca7f03907aeaecef217eb026a91eb0e12439c5a5bb3f58ff6c079477da97fc4b6d6ad563197505d63cf8524ed864c324bc2ec6a414c1769f31517b63409be18e256e2a34d496133b0e64b32b5e1711f1368b0d35c70ac4d9f0cd36220a1106db4c63d7711269b79106a634ec152bf88e28e3ee6fa068aa943c75b6ae607efc44a76df9fbd1f51f8c20c970e616cf9c9e092c03a5e51a52ce3887abc3bec20cb6ce0e295326456d6d42e05e2ee642f8d2d5bcf02211943c86bf224ba746f1f4f06bb70184e1046f612efbabbeef2df651715b8e6bb6fa470d68535bdf88e140f863f86ea416e61f41ec802a773140582133b7074298689ca44240e1d1da190e9122683830b6f3d46e7bab6724cd9af09f2c0b2823a483d14ca530ae85c70ce1e8e42606b42d3d455380ef8288cbde31c10553ca998d2d55e65d4e6b8a27ac37e5cf2a048880e780e9cf17f9933ec19f55ed0a4c5a214b4cf1bedc97496f41d3cd4bdb813870c81787a3d24299437c9eaa1eef851c84b4ad1abef9af31e3003d4f69f69a3df47296418bf0e35ddf3f09566826139b9755e78c14439c023421b0a58a117e3316d2aa2f5bfe178af7f4a613b6384383ae8334e9025692ec2c8c175be53ca3d270ff3526e0f1893a2a690b9bc5fb70af971099f9e4f7c96ae352b4c4b9c23582bc5081db100af6365621bab3c103c44063ad43160b8a3f2cf6a52965ff5fbbc67f81fd17c065888f7c7fb3764e79897bc18213cccc8741c26eb329e2a7735fd71b185778cb2373b9c48ba33db51a36fbc96e8abbaafa8e88472675a29d9f9a9d476d2f7f7bb8abcd0447edab3a8fcd05420164b25179a0981c26c5129bdf27f371dde5352d73b9659b13a1871e67236fc6ff5f11477f4a958b350176aa06b559f7101fd413a52cd0513a5ae0529e974dfe4af7d973ab6035d9ec8a42f0e9513ea8bcddf23a0f7cdeaa6e790a27e5c2a8160abc98e00ab89050a62b00bb66726c97a01ae05f185bc209a3ec4cc33449af5c46cd61c6cf107de83d827e72025bb1334215661f7ac65ce185de9453a2759e6b99f51dbba8fe4e0359f08ab33d79782a7e2693e7d887baa0d001fab873e13ec56cdfb972de51d961a41093c29b895efe6acf0c645a969e9b9042a227b3256f77d26524be2075cd851ab5b1abdb6c3e7b50656f4ecb3647be45960738e640f917f16f3df97ec1d5e15a7cea4dc3fb3ab6a0e5d7988408319c058c182453ad1ce212154e45e190ac5297fcd3f049fc4022c680ebe0ba745c005df6bd0e5ba090eace1787cf5e3f3fa17046b5c6972ee4463c5d8b10758e0734779c0692b30c21d4692f7e49ad87168059bf2fb9a342871ada122ee3e165fb8f4da1480f4d3aa54ecaa569c16e7f2980e01240eba58d5e28825671922d7c79865382d8b3001a47099d1266b7f8a1baf14eb78c5285574bfabddb09d53a6c31c80607236b7e41815cf351fde908b3bf8872f13fd3be0016fbb60d807a9ad8ece8a9e13ebd14be428500bda1ed1174b425b38262fa668001868477b149ab61abfbb362bdd3aebe76060c0d111c1e383941506b747a7b9da4a9b7c2c4d6dee1fd2a404a53666e709eb4bbcbd2d7202a3a94aeb0b4bdbee1eff5f70c1b215b61828e909399a4b3bfd5e90000000000000000000000000000001825324101fd210500dcfb7144a13c65f6f624f037c0f4126ac4e5890c65782c943444b377e9a4d434695b43af6a98e7f7be6f07401adc708462adcc46da48573da6400309cc6777454e7e7cc2b1f09c13dc7d8b60b3cf89cae0b814a3640861eb7f118b5815e9529fd48266abda93c61780f4076c21baeddb62aa62293402b7308bc7e559c731abae21b377669764827197c42d94fe0fde90044ebda47f189136d6b2a621680755b31eb25351f9c7d25f253e5cc9855173619a7558480ffe1c54a44d4b2959f6b0793e39503338c19a0d3342053784659c6588a4e3826a159fd782181271efb36624359ea3a52e18e663d62ed72985df1a11b75b189d4cd38a715bf26e4a2fa665360a664651a98957881b637b50da8ed71ad076abb9f1fe72a6ae6198049fb3086a033d02bdb13383e744bc0bf2f20607386879ec2083f246caa42ef103ea3c482e6554cc20d5c83afbade8c0f38620bbdfdb13c8723e18eb87251a20fd75ab22177d06de5204fffe4e9349d9a28aa6ab7a0f16c8ecebfffb0fc18325ae85efa5feaacd775899938b5bd4d9f37a2f9d0df2885e5f7a5adfa3c0dec1e6093f281362cf38bd418b1a4c4d7d09625fb9c072c3cb39acd8108806d7bec9b55d7b5b26ebf3c190ecbc84e21f3568e6c611135942ba16847c8aa9ae39ded3a51b089ee7be1400f15a792ca05a4513befc5352b96dbaab56966b80e9f055f53a849b82c738e473a45ad267afd361499afc296dafeca0d73b594ec1e855b80c6a644fbe21ea7c307018b21fca2f2618bc4d7b752937d029ab0ea0792ce054391fc2c2fb0e4dbaf81f7114494b89aea2c8f43c2be8d12a200dc68ce7f6a09510e66990a6c5bd6377a6489b7e46d6531aaad46319b206cfdcb3105b75ef8f172a669d8521eff0571bc40f103eb7e5c24a0bf7f88e931bc3bd9eca5d12fa45eea1af2eb9741e69334817f21e3b763858b58e93add30c43d06ac341ca6c4abfe4fa177d32f6ef2e2ba63dc06fa51c7d099a276bd909df689f3a981b36ae8b37df76beb81eabe84925288543aa6b632e7a2ed3ead04805e98dacfe96fceee9ec0246c195f02c781a654068c247f012acb9ef4430d018bf182e77d8557b26256cc99e7ec21bdcf1607abc648bf7fe8a452cd3849b850be5d628d595da6b64374a021aa0c145476035d40c57122c0e30310dfc15f02a2c084bf9289d4605ba7be6074451dcb1e72ca3e9638b047ecb4e1ea81268ea99493845112baf509b37401e4b05a33dc529fcb45e814280fd76dffebe5d4786a2afcc3f3f1498e8c78fc3efaf072166fca12e54349d60947290cda6fb78ac52dc7a1b7c2491627ed101b01609c924958a065eac10629ee4dea0f75e0656129904a4748cc1a41771a9b4dcc592f4440ab96bf9cc6742efb35488e2d904628731aaac16d9006b237ad216527c24c134b833c0371e7f8f81433c839cd6172449ed5c5bf3cb165e6f7f7b9ce52d5c105daa28cace0a2d63638a599a5536aeaae2430411de2f87d3653a8b3ebaee0e1a704ae9b45aa4555664e081d5bc22d14284bc488d21fb5053ec21f7b704368377850c1ee73a9c245beaa462dde0ff087ac807f5ae121a2c85da76b38520132f515b52e9d912dda2763c4ebe92dff8300b850ab6cbe4f26722d18699134a54639534339300f032f09633164eee86183d0f6241647b87d9e920768fa0b1afdf4fd80a8ff1b26a9084e62ee5bd002a8a7dba7bb938037a107ed022be7000b2950ac84a811b7e201369ad8193ca7bbc5027fc12a0655bc806e9ca113cd6b96ecc4e181027c3e47e368f2dba12f10fb516239dcd6b526c601bab51ea62a73e1c61e130c7d488321d038b000000",
  "txid": "80f2d09b6ae06c350c1bb3336ad813c8b208db8bede49f8f12f8a67188cfeeef",
  "hash": "cd853085fa7d790d3ff6174730132e5599149b6dc1aed2ce26367ca898a70996",
  "size": 5085,
  "vsize": 2278,
  "version": 1,
  "locktime": 139,
  "vin": [
    {
      "txid": "4faf7dce009fa9f18f65982e63b7a5358016d8b82da930463490bbf1fbb689ef",
      "vout": 1,
      "scriptSig": {
        "asm": "",
        "hex": ""
      },
      "txinwitness": [
        "9962b9edb9226b86474a7155180bbe1b565821d8434184961ba0a9b240ed3a7aa0feb9ed2278bc9c81fa60a1b8e6f5d81e800187bf81359d3a8d452b36e2038e12aab2efe31b5496db8895b2c9498e98afff7575891bed7c4cd15e60dcb0880db2c3fdeae7357ca469d6e9a2934b8590e250b59941fb14c0ffcc14caed3dff8c5c10d585e04fcbb43babc6965bec37c2772835a87d3b66863e878fdd7205d7c734bd1db8887619395ae9ad39f31f3dd1ca5752a13d4fbe338ed5136cedf1cf8b68240443134b6a54d794cc2e90f1a811010a1f472610afe42f7aa0024eabf3180b11447a510cddd4177fb1b5ae459109ed23185cb68babada830af2717232e017dc267d623e0539e7cd3d4b8b8978bdeeaac4a8ea7794a1a5c7f5c1a8bbceff9789cab4b1e34e0874ef872b4ab3b1960156a1e0bdaba8283c5b97f916f3ca03dcea6d071e2721f526d377a2ba37f629d9ef83930ea51523cf3303f889fc845279b94c6d83f1e6381f5e2e478a160bbc33073d3cc1659ab0dc5b4d3f9202ed01e77b1828a5c9827c5e3d97170a53c50f078e0ef08a488511ef1742c1b29e3a73820f36470e9666d1d68b25061b1f085d5fd23174102ec9c9c94ae79fec90fa80cd898c2897b35dd3e4a44e01f5b57e692c41d1da992130bcafecae2fce8c79b0809c33f6e6eb2460ed19cd4ae897849f2e178f38099bbcf75038332715fcdb9e5523fa6eb74b210022b1b461a758b34f372891b1516c2b456001fb4354e141940fd2d37063db0da4fd708d6bb5ba59bea6d9dae2f73322337f49d8f8156cd1bae1ba9188517bd9d23d29a6e98ad5eb53b20da4c51422261f88a01289d2e6e28025e86b500d3f4b6cf78b09b58e7bb33138b4847d920fc70183ae9bf9a9481f48c00e99a81c73cc0b3f537f493a8184544bd6591037a0e176bd6f2ed153d24b9f19ab9fcfd85c90041f6a275811c1673155b3f868702273a95b421d26bb5da0f4f7e267059168ea4fd7408e6788fd226430f119687e9416c47024d0165a6ec59b78e1c7e55304a553b5fac1695b5204d95590394696be1a90ee9c10db004b58d9779ca4a46c383aa63ac96f08dd7e50489fddce42542681299fb676e355db0f9251fcbdc543551baae12c3f707cc016e880c85b7f39d4b483a98688eaf25032503ee17f19b0bc1f1513f2f8bf43750ada9e70443327dd10560f0c8b66d99a1e84eda0a7e0acdc057b232ddbf583f528e7c513028d3f3e10a0a620c016996f67bc1477f8ae80bbf654dffb14016fb81d9ae87ba9fdd0c357123f917cd81201c3c8c4f8ac43daa9e0f3c580cb80f4673572e419dfda5c29e8ea43130d880b870b64208a73ffff9d2526fcd997425d27a8e7c3ab3fc9acc59ab2f01e71a1f8d4746d5e5eb5ee58c78311b26d83b2547db9469a6040eba5c77f9c189509824caa732c7ceab878a3ddcf33966d6512fa65ca97e5e3592f16a30fd00f76e54718042c36824d606f5ee30d1b5a87ec44f4f9b16e645e302043b6c0cfba97ed5ffd923fe1501471173f978af6022b7b87162b81489da7baedaa40cd48bb8278df610cef7d55f2e9392f66cca5120466b85436ff9d4c672358d05950a0f2aad2fb1d4fa22be8159e17a79e607ecc999c2e5a4ee531d58b21707243e9dbe3600287377e502b54ce3079ddf982c8d9468c45ade5b8a43480f63869dbacee76f9c6282cfd4227e517adceda86ba5b9d489be27ca7f03907aeaecef217eb026a91eb0e12439c5a5bb3f58ff6c079477da97fc4b6d6ad563197505d63cf8524ed864c324bc2ec6a414c1769f31517b63409be18e256e2a34d496133b0e64b32b5e1711f1368b0d35c70ac4d9f0cd36220a1106db4c63d7711269b79106a634ec152bf88e28e3ee6fa068aa943c75b6ae607efc44a76df9fbd1f51f8c20c970e616cf9c9e092c03a5e51a52ce3887abc3bec20cb6ce0e295326456d6d42e05e2ee642f8d2d5bcf02211943c86bf224ba746f1f4f06bb70184e1046f612efbabbeef2df651715b8e6bb6fa470d68535bdf88e140f863f86ea416e61f41ec802a773140582133b7074298689ca44240e1d1da190e9122683830b6f3d46e7bab6724cd9af09f2c0b2823a483d14ca530ae85c70ce1e8e42606b42d3d455380ef8288cbde31c10553ca998d2d55e65d4e6b8a27ac37e5cf2a048880e780e9cf17f9933ec19f55ed0a4c5a214b4cf1bedc97496f41d3cd4bdb813870c81787a3d24299437c9eaa1eef851c84b4ad1abef9af31e3003d4f69f69a3df47296418bf0e35ddf3f09566826139b9755e78c14439c023421b0a58a117e3316d2aa2f5bfe178af7f4a613b6384383ae8334e9025692ec2c8c175be53ca3d270ff3526e0f1893a2a690b9bc5fb70af971099f9e4f7c96ae352b4c4b9c23582bc5081db100af6365621bab3c103c44063ad43160b8a3f2cf6a52965ff5fbbc67f81fd17c065888f7c7fb3764e79897bc18213cccc8741c26eb329e2a7735fd71b185778cb2373b9c48ba33db51a36fbc96e8abbaafa8e88472675a29d9f9a9d476d2f7f7bb8abcd0447edab3a8fcd05420164b25179a0981c26c5129bdf27f371dde5352d73b9659b13a1871e67236fc6ff5f11477f4a958b350176aa06b559f7101fd413a52cd0513a5ae0529e974dfe4af7d973ab6035d9ec8a42f0e9513ea8bcddf23a0f7cdeaa6e790a27e5c2a8160abc98e00ab89050a62b00bb66726c97a01ae05f185bc209a3ec4cc33449af5c46cd61c6cf107de83d827e72025bb1334215661f7ac65ce185de9453a2759e6b99f51dbba8fe4e0359f08ab33d79782a7e2693e7d887baa0d001fab873e13ec56cdfb972de51d961a41093c29b895efe6acf0c645a969e9b9042a227b3256f77d26524be2075cd851ab5b1abdb6c3e7b50656f4ecb3647be45960738e640f917f16f3df97ec1d5e15a7cea4dc3fb3ab6a0e5d7988408319c058c182453ad1ce212154e45e190ac5297fcd3f049fc4022c680ebe0ba745c005df6bd0e5ba090eace1787cf5e3f3fa17046b5c6972ee4463c5d8b10758e0734779c0692b30c21d4692f7e49ad87168059bf2fb9a342871ada122ee3e165fb8f4da1480f4d3aa54ecaa569c16e7f2980e01240eba58d5e28825671922d7c79865382d8b3001a47099d1266b7f8a1baf14eb78c5285574bfabddb09d53a6c31c80607236b7e41815cf351fde908b3bf8872f13fd3be0016fbb60d807a9ad8ece8a9e13ebd14be428500bda1ed1174b425b38262fa668001868477b149ab61abfbb362bdd3aebe76060c0d111c1e383941506b747a7b9da4a9b7c2c4d6dee1fd2a404a53666e709eb4bbcbd2d7202a3a94aeb0b4bdbee1eff5f70c1b215b61828e909399a4b3bfd5e90000000000000000000000000000001825324101",
        "00dcfb7144a13c65f6f624f037c0f4126ac4e5890c65782c943444b377e9a4d434695b43af6a98e7f7be6f07401adc708462adcc46da48573da6400309cc6777454e7e7cc2b1f09c13dc7d8b60b3cf89cae0b814a3640861eb7f118b5815e9529fd48266abda93c61780f4076c21baeddb62aa62293402b7308bc7e559c731abae21b377669764827197c42d94fe0fde90044ebda47f189136d6b2a621680755b31eb25351f9c7d25f253e5cc9855173619a7558480ffe1c54a44d4b2959f6b0793e39503338c19a0d3342053784659c6588a4e3826a159fd782181271efb36624359ea3a52e18e663d62ed72985df1a11b75b189d4cd38a715bf26e4a2fa665360a664651a98957881b637b50da8ed71ad076abb9f1fe72a6ae6198049fb3086a033d02bdb13383e744bc0bf2f20607386879ec2083f246caa42ef103ea3c482e6554cc20d5c83afbade8c0f38620bbdfdb13c8723e18eb87251a20fd75ab22177d06de5204fffe4e9349d9a28aa6ab7a0f16c8ecebfffb0fc18325ae85efa5feaacd775899938b5bd4d9f37a2f9d0df2885e5f7a5adfa3c0dec1e6093f281362cf38bd418b1a4c4d7d09625fb9c072c3cb39acd8108806d7bec9b55d7b5b26ebf3c190ecbc84e21f3568e6c611135942ba16847c8aa9ae39ded3a51b089ee7be1400f15a792ca05a4513befc5352b96dbaab56966b80e9f055f53a849b82c738e473a45ad267afd361499afc296dafeca0d73b594ec1e855b80c6a644fbe21ea7c307018b21fca2f2618bc4d7b752937d029ab0ea0792ce054391fc2c2fb0e4dbaf81f7114494b89aea2c8f43c2be8d12a200dc68ce7f6a09510e66990a6c5bd6377a6489b7e46d6531aaad46319b206cfdcb3105b75ef8f172a669d8521eff0571bc40f103eb7e5c24a0bf7f88e931bc3bd9eca5d12fa45eea1af2eb9741e69334817f21e3b763858b58e93add30c43d06ac341ca6c4abfe4fa177d32f6ef2e2ba63dc06fa51c7d099a276bd909df689f3a981b36ae8b37df76beb81eabe84925288543aa6b632e7a2ed3ead04805e98dacfe96fceee9ec0246c195f02c781a654068c247f012acb9ef4430d018bf182e77d8557b26256cc99e7ec21bdcf1607abc648bf7fe8a452cd3849b850be5d628d595da6b64374a021aa0c145476035d40c57122c0e30310dfc15f02a2c084bf9289d4605ba7be6074451dcb1e72ca3e9638b047ecb4e1ea81268ea99493845112baf509b37401e4b05a33dc529fcb45e814280fd76dffebe5d4786a2afcc3f3f1498e8c78fc3efaf072166fca12e54349d60947290cda6fb78ac52dc7a1b7c2491627ed101b01609c924958a065eac10629ee4dea0f75e0656129904a4748cc1a41771a9b4dcc592f4440ab96bf9cc6742efb35488e2d904628731aaac16d9006b237ad216527c24c134b833c0371e7f8f81433c839cd6172449ed5c5bf3cb165e6f7f7b9ce52d5c105daa28cace0a2d63638a599a5536aeaae2430411de2f87d3653a8b3ebaee0e1a704ae9b45aa4555664e081d5bc22d14284bc488d21fb5053ec21f7b704368377850c1ee73a9c245beaa462dde0ff087ac807f5ae121a2c85da76b38520132f515b52e9d912dda2763c4ebe92dff8300b850ab6cbe4f26722d18699134a54639534339300f032f09633164eee86183d0f6241647b87d9e920768fa0b1afdf4fd80a8ff1b26a9084e62ee5bd002a8a7dba7bb938037a107ed022be7000b2950ac84a811b7e201369ad8193ca7bbc5027fc12a0655bc806e9ca113cd6b96ecc4e181027c3e47e368f2dba12f10fb516239dcd6b526c601bab51ea62a73e1c61e130c7d488321d03"
      ],
      "sequence": 4294967294
    }
  ],
  "vout": [
    {
      "value": 499958.3071,
      "n": 0,
      "scriptPubKey": {
        "asm": "1 a2dc4d48f1b4047c50e86fd59b99de697ee55090f441f87bf6ef1a769d6b0a1d",
        "hex": "5120a2dc4d48f1b4047c50e86fd59b99de697ee55090f441f87bf6ef1a769d6b0a1d",
        "reqSigs": 1,
        "type": "witness_v1_scripthash",
        "addresses": [
          "3QJmnh"
        ]
      }
    },
    {
      "value": 1.0,
      "n": 1,
      "scriptPubKey": {
        "asm": "OP_RETURN 614347bdc23300d7ceb908ba42f0f922be4dd78f84c4e197b69013f2655e0765 1e9ecdb2fe6f7702ed2e13bcb28084ebede3fd5c20e005231b1475efc3c403123ebeed92de4f5722cd0e339c92a0a4cbcdc3dd7c00c025033b3455cfe3e423325ede8df2be2f3742ad6e53fcf2c0c4abada3bd1c60a045635b5435af838443527efeadd29e0f17628d4e73dcd2e0e48b8d839d3c408065437b74158fa3a463729e1e4d327eeff7826dae933c3200046b6d637ddca06085a39b94f56f43448392be3e6d125ecfd7a24d8eb31c1220244b4d435dfc8040a583bbb4d54f6364a3b2de5e0d723eafb7c22deed37c7240442b2d233d9ce020c5e3dbd4b52f0304c3d2fe7e2d521e8f97e20dcef35c5260640b0d031dbcc000e5c3fbf4950f2324e3f21e9ecdb2fe6f7702ed2e13bcb28084ebede3fd5c20e005231b1475efc3c403123ebeed92de4f5722cd0e339c92a0a4cbcdc3dd7c00c025033b3455cfe3e423325ede8df2be2f3742ad6e53fcf2c0c4abada3bd1c60a045635b5435af838443527efeadd29e0f17628d4e73dcd2e0e48b8d839d3c408065437b74158fa3a463729e1e4d327eeff7826dae933c3200046b6d637ddca06085a39b94f56f43448392be3e6d125ecfd7a24d8eb31c1220244b4d435dfc8040a583bbb4d54f6364a3b2de5e0d723eafb7c22deed37c7240442b2d233d9ce020c5e3dbd4b52f0304c3d2fe7e2d521e8f97e20dcef35c5260640b0d031dbcc000e5c3fbf4950f2324e3f21e9ecdb2fe6f7702ed2e13bcb28084ebede3fd5c20e005231b1475efc3c403123ebeed92de4f5722cd0e339c92a0a4cbcdc3dd7c00c025033b3455cfe3e423325ede8df2be2f3742ad6e53fcf2c0c4abada3bd1c60a045635b5435af838443527efeadd29e0f17628d4e73dcd2e0e48b8d839d3c408065437b74158fa3a463729e1e4d327eeff7826dae933c3200046b6d637ddca06085a39b94f56f43448392be3e6d125ecfd7a24d8eb31c1220244b4d435dfc8040a583bbb4d54f6364a3b2de5e0d723eafb7c22deed37c7240442b2d233d9ce020c5e3dbd4b52f0304c3d2fe7e2d521e8f97e20dcef35c5260640b0d031dbcc000e5c3fbf4950f2324e3f21e9ecdb2fe6f7702ed2e13bcb28084ebede3fd5c20e005231b1475efc3c403123ebeed92de4f5722cd0e339c92a0a4cbcdc3dd7c00c025033b3455cfe3e423325ede8df2be2f3742ad6e53fcf2c0c4abada3bd1c60a045635b5435af838443527efeadd29e0f17628d4e73dcd2e0e48b8d839d3c408065437b74158fa3a463729e1e4d327eeff7826dae933c3200046b6d637ddca06085a39b94f56f43448392be3e6d125ecfd7a24d8eb31c1220244b4d435dfc8040a583bbb4d54f6364a3b2de5e0d723eafb7c22deed37c7240442b2d233d9ce020c5e3dbd4b52f0304c3d2fe7e2d521e8f97e20dcef35c5260640b0d031dbcc000e5c3fbf4950f2324e3f21e9ecdb2fe6f7702ed2e13bcb28084ebede3fd5c20e005231b1475efc3c403123ebeed92de4f5722cd0e339c92a0a4cbcdc3dd7c00c025033b3455cfe3e423325ede8df2be2f3742ad6e53fcf2c0c4abada3bd1c60a045635b5435af838443527efeadd29e0f17628d4e73dcd2e0e48b8d839d3c408065437b74158fa3a463729e1e4d327eeff7826dae933c3200046b4ea54c092592771bd081b85060f178a9cbb49fb7fc19db8cc04873fd51a5882d",
        "hex": "6a20614347bdc23300d7ceb908ba42f0f922be4dd78f84c4e197b69013f2655e07654db0041e9ecdb2fe6f7702ed2e13bcb28084ebede3fd5c20e005231b1475efc3c403123ebeed92de4f5722cd0e339c92a0a4cbcdc3dd7c00c025033b3455cfe3e423325ede8df2be2f3742ad6e53fcf2c0c4abada3bd1c60a045635b5435af838443527efeadd29e0f17628d4e73dcd2e0e48b8d839d3c408065437b74158fa3a463729e1e4d327eeff7826dae933c3200046b6d637ddca06085a39b94f56f43448392be3e6d125ecfd7a24d8eb31c1220244b4d435dfc8040a583bbb4d54f6364a3b2de5e0d723eafb7c22deed37c7240442b2d233d9ce020c5e3dbd4b52f0304c3d2fe7e2d521e8f97e20dcef35c5260640b0d031dbcc000e5c3fbf4950f2324e3f21e9ecdb2fe6f7702ed2e13bcb28084ebede3fd5c20e005231b1475efc3c403123ebeed92de4f5722cd0e339c92a0a4cbcdc3dd7c00c025033b3455cfe3e423325ede8df2be2f3742ad6e53fcf2c0c4abada3bd1c60a045635b5435af838443527efeadd29e0f17628d4e73dcd2e0e48b8d839d3c408065437b74158fa3a463729e1e4d327eeff7826dae933c3200046b6d637ddca06085a39b94f56f43448392be3e6d125ecfd7a24d8eb31c1220244b4d435dfc8040a583bbb4d54f6364a3b2de5e0d723eafb7c22deed37c7240442b2d233d9ce020c5e3dbd4b52f0304c3d2fe7e2d521e8f97e20dcef35c5260640b0d031dbcc000e5c3fbf4950f2324e3f21e9ecdb2fe6f7702ed2e13bcb28084ebede3fd5c20e005231b1475efc3c403123ebeed92de4f5722cd0e339c92a0a4cbcdc3dd7c00c025033b3455cfe3e423325ede8df2be2f3742ad6e53fcf2c0c4abada3bd1c60a045635b5435af838443527efeadd29e0f17628d4e73dcd2e0e48b8d839d3c408065437b74158fa3a463729e1e4d327eeff7826dae933c3200046b6d637ddca06085a39b94f56f43448392be3e6d125ecfd7a24d8eb31c1220244b4d435dfc8040a583bbb4d54f6364a3b2de5e0d723eafb7c22deed37c7240442b2d233d9ce020c5e3dbd4b52f0304c3d2fe7e2d521e8f97e20dcef35c5260640b0d031dbcc000e5c3fbf4950f2324e3f21e9ecdb2fe6f7702ed2e13bcb28084ebede3fd5c20e005231b1475efc3c403123ebeed92de4f5722cd0e339c92a0a4cbcdc3dd7c00c025033b3455cfe3e423325ede8df2be2f3742ad6e53fcf2c0c4abada3bd1c60a045635b5435af838443527efeadd29e0f17628d4e73dcd2e0e48b8d839d3c408065437b74158fa3a463729e1e4d327eeff7826dae933c3200046b6d637ddca06085a39b94f56f43448392be3e6d125ecfd7a24d8eb31c1220244b4d435dfc8040a583bbb4d54f6364a3b2de5e0d723eafb7c22deed37c7240442b2d233d9ce020c5e3dbd4b52f0304c3d2fe7e2d521e8f97e20dcef35c5260640b0d031dbcc000e5c3fbf4950f2324e3f21e9ecdb2fe6f7702ed2e13bcb28084ebede3fd5c20e005231b1475efc3c403123ebeed92de4f5722cd0e339c92a0a4cbcdc3dd7c00c025033b3455cfe3e423325ede8df2be2f3742ad6e53fcf2c0c4abada3bd1c60a045635b5435af838443527efeadd29e0f17628d4e73dcd2e0e48b8d839d3c408065437b74158fa3a463729e1e4d327eeff7826dae933c3200046b4ea54c092592771bd081b85060f178a9cbb49fb7fc19db8cc04873fd51a5882d",
        "type": "nulldata"
      }
    }
  ],
  "blockhash": "fe774b47c0e88c04e0fb50de4979690042b0828e482e852985a1cce393f947a2",
  "confirmations": 1,
  "time": 1764183806,
  "blocktime": 1764183806
}