{
  "hex": "01000000000101e63b42ef9407343d20c7e8cebb21b0aefaa3b39b257695a7bc4bdb20aa427d4a0000000000feffffff0200e1f50500000000fdd5046a20a5b56ab5cc46f7699e78cd852750e3bd8ef82810f4aaea3e86ce544240e183314db004b39a65fb820ab605329fd4d443e5ae010d157ef84be7c58442316681320bd76e93ba45dba22a962512bff4f463c58e212d355ed86bc7e5a4621146a1122bf74ef3da25bbc24af64572df949403a5ee414d553eb80ba785c4027126c1724b972ed3fa059be26ad66552ffb4b42385ce616d751e982b87a5e4225106e1526bb70e331ae57b028a3685b21f5454c3652e818d95fe78cb674504c2b1e601b28b57ee133ac55b22aa16a5923f7474e3450ea1adb5de58eb476524e291c62192ab77ce735aa53b42ca76c5f25f141483256ec1cdd5be388b27054482f1a641f2cb17ae537a851b62ea56e5d27f3434a3054ee1edf59e18ab072564a2d18661d2eb378eb39a65fb820ab605329fd4d443e5ae010d157ef84be7c58442316681320bd76e93ba45dba22a962512bff4f463c58e212d355ed86bc7e5a4621146a1122bf74ef3da25bbc24af64572df949403a5ee414d553eb80ba785c4027126c1724b972ed3fa059be26ad66552ffb4b42385ce616d751e982b87a5e4225106e1526bb70e331ae57b028a3685b21f5454c3652e818d95fe78cb674504c2b1e601b28b57ee133ac55b22aa16a5923f7474e3450ea1adb5de58eb476524e291c62192ab77ce735aa53b42ca76c5f25f141483256ec1cdd5be388b27054482f1a641f2cb17ae537a851b62ea56e5d27f3434a3054ee1edf59e18ab072564a2d18661d2eb378eb39a65fb820ab605329fd4d443e5ae010d157ef84be7c58442316681320bd76e93ba45dba22a962512bff4f463c58e212d355ed86bc7e5a4621146a1122bf74ef3da25bbc24af64572df949403a5ee414d553eb80ba785c4027126c1724b972ed3fa059be26ad66552ffb4b42385ce616d751e982b87a5e4225106e1526bb70e331ae57b028a3685b21f5454c3652e818d95fe78cb674504c2b1e601b28b57ee133ac55b22aa16a5923f7474e3450ea1adb5de58eb476524e291c62192ab77ce735aa53b42ca76c5f25f141483256ec1cdd5be388b27054482f1a641f2cb17ae537a851b62ea56e5d27f3434a3054ee1edf59e18ab072564a2d18661d2eb378eb39a65fb820ab605329fd4d443e5ae010d157ef84be7c58442316681320bd76e93ba45dba22a962512bff4f463c58e212d355ed86bc7e5a4621146a1122bf74ef3da25bbc24af64572df949403a5ee414d553eb80ba785c4027126c1724b972ed3fa059be26ad66552ffb4b42385ce616d751e982b87a5e4225106e1526bb70e331ae57b028a3685b21f5454c3652e818d95fe78cb674504c2b1e601b28b57ee133ac55b22aa16a5923f7474e3450ea1adb5de58eb476524e291c62192ab77ce735aa53b42ca76c5f25f141483256ec1cdd5be388b27054482f1a641f2cb17ae537a851b62ea56e5d27f3434a3054ee1edf59e18ab072564a2d18661d2eb378eb39a65fb820ab605329fd4d443e5ae010d157ef84be7c58442316681320bd76e93ba45dba22a962512bff4f463c58e212d355ed86bc7e5a4621146a1122bf74ef3da25bbc24af64572df949403a5ee414d553eb80ba785c4027126c1724b972ed3fa059be26ad66552ffb4b42385ce616d751e982b87a5e4225106e1526bb70e331ae57b028a3685b21f5454c3652e81046df50acb6ff537a1d27767278fa06f62fa3ef490b32b33882d8fe4d19bf2591024da9b782d000022512007c9d2d59726eaf91cde57c0b2aecde90c06218ea077e67e0bd56f5b2e36602d02fd7509a7652d9013515ed1ef4892af468e14a69094cb8cb30090555e9579d71d0637a753c01a1942efbccde275d40fdebe3d68efa68f64a8800af0b5517a22406ba180129703dc3d8ea75194a66d76a03d210e52024b71633679151bc7b8d1eb1898d49824f8d04d1310557745d9665d177cdd81a336ae6b6c10cf797e1efecd0423c22a80f50498d2a6454fa9172a0a24ee82bf1932753c12dd10b9dea62ba130eca0f97463fbd67d7937f5e051d633ca555cf61169e956aaf2b3958c547d7536958e87ae9113ce93303fdcd8f216a9ee335b5f03dfdd4bc84e092c38bed919533eb05b909f5045c8719cb1b2e131b087013d4171db74bf7e594c7fd66b3a7617c53716bb3cc84570ccbcfcbc32dc4c8b30148bdb884a6efed125ddb086beeaa700e36e4e4c462be92931933a33bc48df040e57fbb2008ac31d396f96329030a1a955267720581bb460277ab104e8103c9cad5f24878dc0b5c4841ae4953413fc30f87a8c79aafa9243855c5867c64deee72510ef3d77f38a7be07090f12304c0a1734d25d119ca0033827829486430cbce2c1e1d1cdc7d3ffcf2509ec143bc47555cc554287d4602c6efc0fe8d0b3545637f40d77eb72cfd2d9f1fc6d4f6348ec671d8f3b253f1ca5c513533293dfa987d22e6b3cfa09218fc48f82698178b12bfa4b4b0227cd84e688149b86db9607dfc1adc66783138f9188a3fdf385ea43b466eba8e655888e3fc6612a3e7a7127824b4ed1fca797a2a8f3614a12b044f8881802ca51eb56c146aa286713b703e3e0605270df36adc0b5909756c28d3ecc80a4b582e93851c140480d197efd11fa173b792333f776d701f9433d0ae05dca641a34798eb6d043b4043d745a81d005dc9b394036b098c973f32e5aa18d357687c6a2b4b2b6717d0e4e1f44a5b17f2a9e7b2d5616d8ad85fb23497f2c7cc52a16fbd76f67fee4aa3c910635f16c8ccf3eeb2962ee113e9378780c512436eeb6b4bd5db5728d94e990354296b51790da4baf89a4fde8e73e48519e876d34852ee25238df265ee7988169447d13de41a776d982e79aa7176991f71123b591509943a387b0aa9aa089a508c3b9c21602ae90f1516b833c7f5cc19226838fa5a54c957be93b5d3bd1e0f95d2cf807caf42a722208222c26593a8ef1e8017a3d5f7b89c62fedeca6fa378299b2ce8f0d724626393bc75d94cb664fe7491c73d904ca77f42a80f292f0f0340a61cdb88ac462c5e4802c189958597e04a2c50fe5eba3c1392e677f09a4f65fb7d04b9193306bc2e200e3805f18041c0ef5d2444dd9b9a11d78319ea9b7b31e8bb8ab504e3fbd8db577ba7eb7bb220f5534d75a3f01b89bb5b0ad205231ce6da340974f7aae67fe171ac2db07e3abb2460a760fbffa825f9f4001575e7c841ce89d3f43641f439d8fb2dc14e7933f61f20c9af7312dc9af4bf13f897d92096f111d0f81e0c0b1cc2b63eb59b6a0b6aa22b8bc90da76956489f65e20fc3e266678da9ac73ab759f1c05950d4a2e101eb6f51ee6107f2445f2a2b981fd655df0e6ccd762bb69557aae060d1e55aba18c863211d202cb5ee333f282894b21ebc04a836d5768eb6a2602daa84f6364084242067c7afdb8f5314f77fff0d015d85d7e20e0db27071dc995ee8021977df290195bb158dd32e80230fe5270e920584db27782ae9bd53900cb1a265e3524ec9621a31ec6e077b31ce5a1ca58096248b2625420dbb6d2ce0f633c5a47c86ad355b946d08844d8574920a18c77d40a72b4711cb345edadd30271bd2b2f95b339bf643fdc5286cf2cc1316562ba95abd75e2e67cadd05b806331b4519527d65cd7f5664cd37b0764c87509d781a90abd8bd13b1868e9024b72bfe04ae6fafdb98c71b343fb988ef7a0f035a399a8eb1707ac32d1219e3a5c945ef68b472d20890995fbf3b353a80f0f1f3a887b4c2fe4fac3c822bfd3f74c009b9489aefb1180370469a220883e04136fee7d5fb0a19f6e415d98a3ae1977626da78741b2b7c1977d25be558ed5261dc177a1a5e85ed2ec5bf2c24520aaebcde6fe4adcb5cb3cc7ee09a679ceabc118468a5ae0d7d45aaca01dfb084d164c628bd2ce0976e7eb65740c2250015b994f475ba2654943119321bbac5f0906a7976fcfb5163dd350526aec4f8a2b67d93972863537667e51b442115ef91200a15ff5b570685ef2e7b3fea3e9ca2a4bdf9cd7308c77d93d7cf31ea35dfb22dd8fca08d2a2ac66c5057f780b08b99b34f9bdb2161fe4de5124df21b8120f815a17eb098430d3b10317b0dfe3500a22d566fac5fae14622e75f55e0c433c32be4a790cc35abe0047ceeaf473d230baa51c56bd149f4fd49304185bd251147cef45b65c6c85fe216d9a4a8d5d92328551dfa042bdc4549f216f7151b1332c0d3127c5eb23754659000607c20ed65f19eeab9c802b06e8bdde7d632fcba0a81e4ce4cff0f2b2b049644028c4e9e58d5d0b9c1a6200c70086bc98a04c055a171602f02136207e45e27a4cf63912c14e192f3c455accf8e526f471fcddee3c8ee935aa123c84727d9d21244dc98edfb018d555d9a1cc25657d4d45679de35720d2b22d74409153d6093c19353bd305f6d1f6c4d3a9d8e8a3e7e3fb9e6c55adc183a3c71f8a6fb455708e3016df5a96e378f85d263af5b334574f6c27a89808dce7f97c2df343723d71460dd654718bc2cf47670c122ceb795b681a9f198582659b7877d76bb5225fd529dfa2365c9607b1bb5475512e47a0260c4d3da5197b61b55b248ae58a9bbe359c848b1db248dd2ae2a7323881fba5757b034a7f0f9c0ba99c6dc768b246dd6548bbd23ea90a4f3d9e05a5418745bed710428c717973c5fcccd73118d0110097c0e81659359c1110882ae07a09aa3af1cc566347652ab34a8129f2a4989640bff1409490608bc60fdfcf4f98c070269c0f8651b536a5d9972c6d4707a240fd246acdb38cd701d8f59642cbd40dc98fae9ebaf2214f59e32585e1c96a6a35741a85122b1716b8531a9f3cef160abd2b6be9bd551e2a29fbcb5e4f5bf6b2b39c9844a6619b742087c25e75236fc23a767fea0da7ae43661080beb2f7ee045a6773485b1c69056b2687eb1b8328d1a52631eae1e0616e9dcea78ab08154cca67dff48da6300cb4ed46fc3b7aa579a0c3e1e982bc5ec0ce1fc8f2bf474b17aad0f95289a7b65c05402262f822ac8705a5833863847b7e508c23782f505e26e1b44a17211e34fa639dce583d2023178c6602e9a67d6edc6bdff8869da800e966e9f10813a32f3ee3c0b247af40d96fd8a0110182141517ed6e2f2f500030c19235e65758292a9c3c7d1eaee17787f8a909698acb7c4dced0219212328293239565f618991b4c6cde1eafafbfd00000000000000000000000000000000000000000b1b273c01fd2105007fcc33984a5a5f155ace455b114e35835f341522793fcfebc090ee2f7ab5d99ee89cff55eb2bf728bad777c280ac600a2713258512f093464e5be8dc1270027f8aab648a39431891c60fef6567b2b46d685f182ddf5e2e9489f4a9e9d9402ad4664d221c0cbec4114c59bc4c443cdc182dbc628391d6331bd38ae063a3bf15c9620817e745bb5394f6a3a12be25d6bdb0669fe59085cd28672ac1d1025ee471773f2b20309972b4f334af3fdb2fbce54df779e458d6081bda21993be3442f4a9570eee63020861e276136550d41cf6c6574cfd208389f20c0ef9081fdad36dd36e04bb1b8384ecfb73cfeca3b5262246e02f7b2ede9e4303462787950b86aa1113d54e3d835cf1f1ab9645d8685a6161be10dd1734d6cd468f4d48b79ea204e41c8c7a3b82a5c2416be12a965a199f7bb9f8f4859d900a8bb425d457f6341fed9e46ba668c04c7555af0100e61ad3b73657c19fd1b3eeac6245cf701f479a7b0ae38576f6341b5b6f3017e52007796a75c7df0a7f86b28e122eb716db810d77dbe8d8f182570d8df3a2acac738d0d5a856911e2399cf4ae86a3268ec19f331e2eae81670f527388ebc9e0dea52af0717117c855d02e8ac20ae810d9ea80556af0ab2b00e5f40c3db2a609a661d12e58b8d3773b5f65c9f01649d617036c95f0347e720b193af50b34224a5288f15a38ed4120043a6b20850be54293f6124a7ba9666853420fe63b7b4a2b100641799664c6e823106ff46ab704a05cd28886bb86a9afc8922c7ebe4252503974cca12cff691b78bd441e3d8c496211a75858da3ba85654bf70bfd7a109c06bf893180a058d8710c52a064c88f66888908990bb39397597351a69329fbbe302a742f978c8b27c83d1ad8a79c1403c52d10fe8feb2392ef04eb0634db70386f4051ca678203eff8967a6761259bd177ce1b02d82eb17a28b2174365fb9f22fd90de0f9ed9fdf3c3dbf815271a8086e3ba40ca4050167e784727ce1477352be6da946a13146bf91742b04cae892575e5f773b99420916bba5b1df7f1416a2693cf38182e714176310abcbd52b779adbf91cf9a0ca577b405d11b28b38b83a5bf5d59b1589da9b33846567c1142a21ada9aaa73fce1e171df40d8806fa38cea9f05a8266a5fcd9ac6d0c2a374609f4d5b1d32971f7fdaf0d130b4b0b632b156b39ff7f46e3c9ccc5caa1a7b4b66e79a68850e5e4e97c1cdee1aefc7b3d16ae4c3d120fe55c7b70fd3b01e74c8f62c1a8b9e4a4053eb891ffbc01586bbbb51e8c37ca1e43814a3a21e101abf2ae3769a165b23d12eeaa2d69b89c08d6e2f78e1ea6f0a965b0a3e2f9bbd09bc2dbc6314d2981f472aeba20552710265345c1b1bb98ff26df90c43a171e270fdd792b337e37a2567e92bb1dc30d07798fc51c2e71bc9add5e363ae5f008b5692d4b7244e2742ae44b406501f3dbbf151b30aadd5ef7b56b49d3a9a6395cc428f0c37ea3f79a9a572cef1b25d4c928ceae773cea02f2918623eb449a207d105e5c45d62d8522c5eefb64f3cd8c60a178171134c9b56b47fc1980854a6ac9aa99d71a94ea6e11d6c91233a6c6978f8f640883b3e16dfa39d801202ef4360b62f1133342c55d7e72f7c216d1800f3aaebc10fc175b36b309b77fac2331e74f3391705bb861a7ed7a0f1b28c27fadafce8bef3531ad705228c9f7c595b3627145caf66d106cad6029bb7b9f2ce5ae6e8d07d252b618b60d30066a418ae2ec4d4be85fb997719302d336733aa35dd82fcea0eeee7d8059b1127e5b8efe2165ac580dad86bb140910d38f36c1cce4371da15c767fd3ac154ca38273e897d0ebc15292da0fec8147f1cccd7e80489000000",
  "txid": "81f40ed8a9184bc4468620b9b215f1b921a897dcc85e11b002629217e3d7fdd4",
  "hash": "2efe695d2781db141964606ad2c8ddbfe3d7a59616beb1b30457149c5522e506",
  "size": 5085,
  "vsize": 2278,
  "version": 1,
  "locktime": 137,
  "vin": [
    {
      "txid": "4a7d42aa20db4bbca79576259bb3a3faaeb021bbcee8c7203d340794ef423be6",
      "vout": 0,
      "scriptSig": {
        "asm": "",
        "hex": ""
      },
      "txinwitness": [
        "a7652d9013515ed1ef4892af468e14a69094cb8cb30090555e9579d71d0637a753c01a1942efbccde275d40fdebe3d68efa68f64a8800af0b5517a22406ba180129703dc3d8ea75194a66d76a03d210e52024b71633679151bc7b8d1eb1898d49824f8d04d1310557745d9665d177cdd81a336ae6b6c10cf797e1efecd0423c22a80f50498d2a6454fa9172a0a24ee82bf1932753c12dd10b9dea62ba130eca0f97463fbd67d7937f5e051d633ca555cf61169e956aaf2b3958c547d7536958e87ae9113ce93303fdcd8f216a9ee335b5f03dfdd4bc84e092c38bed919533eb05b909f5045c8719cb1b2e131b087013d4171db74bf7e594c7fd66b3a7617c53716bb3cc84570ccbcfcbc32dc4c8b30148bdb884a6efed125ddb086beeaa700e36e4e4c462be92931933a33bc48df040e57fbb2008ac31d396f96329030a1a955267720581bb460277ab104e8103c9cad5f24878dc0b5c4841ae4953413fc30f87a8c79aafa9243855c5867c64deee72510ef3d77f38a7be07090f12304c0a1734d25d119ca0033827829486430cbce2c1e1d1cdc7d3ffcf2509ec143bc47555cc554287d4602c6efc0fe8d0b3545637f40d77eb72cfd2d9f1fc6d4f6348ec671d8f3b253f1ca5c513533293dfa987d22e6b3cfa09218fc48f82698178b12bfa4b4b0227cd84e688149b86db9607dfc1adc66783138f9188a3fdf385ea43b466eba8e655888e3fc6612a3e7a7127824b4ed1fca797a2a8f3614a12b044f8881802ca51eb56c146aa286713b703e3e0605270df36adc0b5909756c28d3ecc80a4b582e93851c140480d197efd11fa173b792333f776d701f9433d0ae05dca641a34798eb6d043b4043d745a81d005dc9b394036b098c973f32e5aa18d357687c6a2b4b2b6717d0e4e1f44a5b17f2a9e7b2d5616d8ad85fb23497f2c7cc52a16fbd76f67fee4aa3c910635f16c8ccf3eeb2962ee113e9378780c512436eeb6b4bd5db5728d94e990354296b51790da4baf89a4fde8e73e48519e876d34852ee25238df265ee7988169447d13de41a776d982e79aa7176991f71123b591509943a387b0aa9aa089a508c3b9c21602ae90f1516b833c7f5cc19226838fa5a54c957be93b5d3bd1e0f95d2cf807caf42a722208222c26593a8ef1e8017a3d5f7b89c62fedeca6fa378299b2ce8f0d724626393bc75d94cb664fe7491c73d904ca77f42a80f292f0f0340a61cdb88ac462c5e4802c189958597e04a2c50fe5eba3c1392e677f09a4f65fb7d04b9193306bc2e200e3805f18041c0ef5d2444dd9b9a11d78319ea9b7b31e8bb8ab504e3fbd8db577ba7eb7bb220f5534d75a3f01b89bb5b0ad205231ce6da340974f7aae67fe171ac2db07e3abb2460a760fbffa825f9f4001575e7c841ce89d3f43641f439d8fb2dc14e7933f61f20c9af7312dc9af4bf13f897d92096f111d0f81e0c0b1cc2b63eb59b6a0b6aa22b8bc90da76956489f65e20fc3e266678da9ac73ab759f1c05950d4a2e101eb6f51ee6107f2445f2a2b981fd655df0e6ccd762bb69557aae060d1e55aba18c863211d202cb5ee333f282894b21ebc04a836d5768eb6a2602daa84f6364084242067c7afdb8f5314f77fff0d015d85d7e20e0db27071dc995ee8021977df290195bb158dd32e80230fe5270e920584db27782ae9bd53900cb1a265e3524ec9621a31ec6e077b31ce5a1ca58096248b2625420dbb6d2ce0f633c5a47c86ad355b946d08844d8574920a18c77d40a72b4711cb345edadd30271bd2b2f95b339bf643fdc5286cf2cc1316562ba95abd75e2e67cadd05b806331b4519527d65cd7f5664cd37b0764c87509d781a90abd8bd13b1868e9024b72bfe04ae6fafdb98c71b343fb988ef7a0f035a399a8eb1707ac32d1219e3a5c945ef68b472d20890995fbf3b353a80f0f1f3a887b4c2fe4fac3c822bfd3f74c009b9489aefb1180370469a220883e04136fee7d5fb0a19f6e415d98a3ae1977626da78741b2b7c1977d25be558ed5261dc177a1a5e85ed2ec5bf2c24520aaebcde6fe4adcb5cb3cc7ee09a679ceabc118468a5ae0d7d45aaca01dfb084d164c628bd2ce0976e7eb65740c2250015b994f475ba2654943119321bbac5f0906a7976fcfb5163dd350526aec4f8a2b67d93972863537667e51b442115ef91200a15ff5b570685ef2e7b3fea3e9ca2a4bdf9cd7308c77d93d7cf31ea35dfb22dd8fca08d2a2ac66c5057f780b08b99b34f9bdb2161fe4de5124df21b8120f815a17eb098430d3b10317b0dfe3500a22d566fac5fae14622e75f55e0c433c32be4a790cc35abe0047ceeaf473d230baa51c56bd149f4fd49304185bd251147cef45b65c6c85fe216d9a4a8d5d92328551dfa042bdc4549f216f7151b1332c0d3127c5eb23754659000607c20ed65f19eeab9c802b06e8bdde7d632fcba0a81e4ce4cff0f2b2b049644028c4e9e58d5d0b9c1a6200c70086bc98a04c055a171602f02136207e45e27a4cf63912c14e192f3c455accf8e526f471fcddee3c8ee935aa123c84727d9d21244dc98edfb018d555d9a1cc25657d4d45679de35720d2b22d74409153d6093c19353bd305f6d1f6c4d3a9d8e8a3e7e3fb9e6c55adc183a3c71f8a6fb455708e3016df5a96e378f85d263af5b334574f6c27a89808dce7f97c2df343723d71460dd654718bc2cf47670c122ceb795b681a9f198582659b7877d76bb5225fd529dfa2365c9607b1bb5475512e47a0260c4d3da5197b61b55b248ae58a9bbe359c848b1db248dd2ae2a7323881fba5757b034a7f0f9c0ba99c6dc768b246dd6548bbd23ea90a4f3d9e05a5418745bed710428c717973c5fcccd73118d0110097c0e81659359c1110882ae07a09aa3af1cc566347652ab34a8129f2a4989640bff1409490608bc60fdfcf4f98c070269c0f8651b536a5d9972c6d4707a240fd246acdb38cd701d8f59642cbd40dc98fae9ebaf2214f59e32585e1c96a6a35741a85122b1716b8531a9f3cef160abd2b6be9bd551e2a29fbcb5e4f5bf6b2b39c9844a6619b742087c25e75236fc23a767fea0da7ae43661080beb2f7ee045a6773485b1c69056b2687eb1b8328d1a52631eae1e0616e9dcea78ab08154cca67dff48da6300cb4ed46fc3b7aa579a0c3e1e982bc5ec0ce1fc8f2bf474b17aad0f95289a7b65c05402262f822ac8705a5833863847b7e508c23782f505e26e1b44a17211e34fa639dce583d2023178c6602e9a67d6edc6bdff8869da800e966e9f10813a32f3ee3c0b247af40d96fd8a0110182141517ed6e2f2f500030c19235e65758292a9c3c7d1eaee17787f8a909698acb7c4dced0219212328293239565f618991b4c6cde1eafafbfd00000000000000000000000000000000000000000b1b273c01",
        "007fcc33984a5a5f155ace455b114e35835f341522793fcfebc090ee2f7ab5d99ee89cff55eb2bf728bad777c280ac600a2713258512f093464e5be8dc1270027f8aab648a39431891c60fef6567b2b46d685f182ddf5e2e9489f4a9e9d9402ad4664d221c0cbec4114c59bc4c443cdc182dbc628391d6331bd38ae063a3bf15c9620817e745bb5394f6a3a12be25d6bdb0669fe59085cd28672ac1d1025ee471773f2b20309972b4f334af3fdb2fbce54df779e458d6081bda21993be3442f4a9570eee63020861e276136550d41cf6c6574cfd208389f20c0ef9081fdad36dd36e04bb1b8384ecfb73cfeca3b5262246e02f7b2ede9e4303462787950b86aa1113d54e3d835cf1f1ab9645d8685a6161be10dd1734d6cd468f4d48b79ea204e41c8c7a3b82a5c2416be12a965a199f7bb9f8f4859d900a8bb425d457f6341fed9e46ba668c04c7555af0100e61ad3b73657c19fd1b3eeac6245cf701f479a7b0ae38576f6341b5b6f3017e52007796a75c7df0a7f86b28e122eb716db810d77dbe8d8f182570d8df3a2acac738d0d5a856911e2399cf4ae86a3268ec19f331e2eae81670f527388ebc9e0dea52af0717117c855d02e8ac20ae810d9ea80556af0ab2b00e5f40c3db2a609a661d12e58b8d3773b5f65c9f01649d617036c95f0347e720b193af50b34224a5288f15a38ed4120043a6b20850be54293f6124a7ba9666853420fe63b7b4a2b100641799664c6e823106ff46ab704a05cd28886bb86a9afc8922c7ebe4252503974cca12cff691b78bd441e3d8c496211a75858da3ba85654bf70bfd7a109c06bf893180a058d8710c52a064c88f66888908990bb39397597351a69329fbbe302a742f978c8b27c83d1ad8a79c1403c52d10fe8feb2392ef04eb0634db70386f4051ca678203eff8967a6761259bd177ce1b02d82eb17a28b2174365fb9f22fd90de0f9ed9fdf3c3dbf815271a8086e3ba40ca4050167e784727ce1477352be6da946a13146bf91742b04cae892575e5f773b99420916bba5b1df7f1416a2693cf38182e714176310abcbd52b779adbf91cf9a0ca577b405d11b28b38b83a5bf5d59b1589da9b33846567c1142a21ada9aaa73fce1e171df40d8806fa38cea9f05a8266a5fcd9ac6d0c2a374609f4d5b1d32971f7fdaf0d130b4b0b632b156b39ff7f46e3c9ccc5caa1a7b4b66e79a68850e5e4e97c1cdee1aefc7b3d16ae4c3d120fe55c7b70fd3b01e74c8f62c1a8b9e4a4053eb891ffbc01586bbbb51e8c37ca1e43814a3a21e101abf2ae3769a165b23d12eeaa2d69b89c08d6e2f78e1ea6f0a965b0a3e2f9bbd09bc2dbc6314d2981f472aeba20552710265345c1b1bb98ff26df90c43a171e270fdd792b337e37a2567e92bb1dc30d07798fc51c2e71bc9add5e363ae5f008b5692d4b7244e2742ae44b406501f3dbbf151b30aadd5ef7b56b49d3a9a6395cc428f0c37ea3f79a9a572cef1b25d4c928ceae773cea02f2918623eb449a207d105e5c45d62d8522c5eefb64f3cd8c60a178171134c9b56b47fc1980854a6ac9aa99d71a94ea6e11d6c91233a6c6978f8f640883b3e16dfa39d801202ef4360b62f1133342c55d7e72f7c216d1800f3aaebc10fc175b36b309b77fac2331e74f3391705bb861a7ed7a0f1b28c27fadafce8bef3531ad705228c9f7c595b3627145caf66d106cad6029bb7b9f2ce5ae6e8d07d252b618b60d30066a418ae2ec4d4be85fb997719302d336733aa35dd82fcea0eeee7d8059b1127e5b8efe2165ac580dad86bb140910d38f36c1cce4371da15c767fd3ac154ca38273e897d0ebc15292da0fec8147f1cccd7e804"
      ],
      "sequence": 4294967294
    }
  ],
  "vout": [
    {
      "value": 1.0,
      "n": 0,
      "scriptPubKey": {
        "asm": "OP_RETURN a5b56ab5cc46f7699e78cd852750e3bd8ef82810f4aaea3e86ce544240e18331 b39a65fb820ab605329fd4d443e5ae010d157ef84be7c58442316681320bd76e93ba45dba22a962512bff4f463c58e212d355ed86bc7e5a4621146a1122bf74ef3da25bbc24af64572df949403a5ee414d553eb80ba785c4027126c1724b972ed3fa059be26ad66552ffb4b42385ce616d751e982b87a5e4225106e1526bb70e331ae57b028a3685b21f5454c3652e818d95fe78cb674504c2b1e601b28b57ee133ac55b22aa16a5923f7474e3450ea1adb5de58eb476524e291c62192ab77ce735aa53b42ca76c5f25f141483256ec1cdd5be388b27054482f1a641f2cb17ae537a851b62ea56e5d27f3434a3054ee1edf59e18ab072564a2d18661d2eb378eb39a65fb820ab605329fd4d443e5ae010d157ef84be7c58442316681320bd76e93ba45dba22a962512bff4f463c58e212d355ed86bc7e5a4621146a1122bf74ef3da25bbc24af64572df949403a5ee414d553eb80ba785c4027126c1724b972ed3fa059be26ad66552ffb4b42385ce616d751e982b87a5e4225106e1526bb70e331ae57b028a3685b21f5454c3652e818d95fe78cb674504c2b1e601b28b57ee133ac55b22aa16a5923f7474e3450ea1adb5de58eb476524e291c62192ab77ce735aa53b42ca76c5f25f141483256ec1cdd5be388b27054482f1a641f2cb17ae537a851b62ea56e5d27f3434a3054ee1edf59e18ab072564a2d18661d2eb378eb39a65fb820ab605329fd4d443e5ae010d157ef84be7c58442316681320bd76e93ba45dba22a962512bff4f463c58e212d355ed86bc7e5a4621146a1122bf74ef3da25bbc24af64572df949403a5ee414d553eb80ba785c4027126c1724b972ed3fa059be26ad66552ffb4b42385ce616d751e982b87a5e4225106e1526bb70e331ae57b028a3685b21f5454c3652e818d95fe78cb674504c2b1e601b28b57ee133ac55b22aa16a5923f7474e3450ea1adb5de58eb476524e291c62192ab77ce735aa53b42ca76c5f25f141483256ec1cdd5be388b27054482f1a641f2cb17ae537a851b62ea56e5d27f3434a3054ee1edf59e18ab072564a2d18661d2eb378eb39a65fb820ab605329fd4d443e5ae010d157ef84be7c58442316681320bd76e93ba45dba22a962512bff4f463c58e212d355ed86bc7e5a4621146a1122bf74ef3da25bbc24af64572df949403a5ee414d553eb80ba785c4027126c1724b972ed3fa059be26ad66552ffb4b42385ce616d751e982b87a5e4225106e1526bb70e331ae57b028a3685b21f5454c3652e818d95fe78cb674504c2b1e601b28b57ee133ac55b22aa16a5923f7474e3450ea1adb5de58eb476524e291c62192ab77ce735aa53b42ca76c5f25f141483256ec1cdd5be388b27054482f1a641f2cb17ae537a851b62ea56e5d27f3434a3054ee1edf59e18ab072564a2d18661d2eb378eb39a65fb820ab605329fd4d443e5ae010d157ef84be7c58442316681320bd76e93ba45dba22a962512bff4f463c58e212d355ed86bc7e5a4621146a1122bf74ef3da25bbc24af64572df949403a5ee414d553eb80ba785c4027126c1724b972ed3fa059be26ad66552ffb4b42385ce616d751e982b87a5e4225106e1526bb70e331ae57b028a3685b21f5454c3652e81046df50acb6ff537a1d27767278fa06f62fa3ef490b32b33882d8fe4d19bf259",
        "hex": "6a20a5b56ab5cc46f7699e78cd852750e3bd8ef82810f4aaea3e86ce544240e183314db004b39a65fb820ab605329fd4d443e5ae010d157ef84be7c58442316681320bd76e93ba45dba22a962512bff4f463c58e212d355ed86bc7e5a4621146a1122bf74ef3da25bbc24af64572df949403a5ee414d553eb80ba785c4027126c1724b972ed3fa059be26ad66552ffb4b42385ce616d751e982b87a5e4225106e1526bb70e331ae57b028a3685b21f5454c3652e818d95fe78cb674504c2b1e601b28b57ee133ac55b22aa16a5923f7474e3450ea1adb5de58eb476524e291c62192ab77ce735aa53b42ca76c5f25f141483256ec1cdd5be388b27054482f1a641f2cb17ae537a851b62ea56e5d27f3434a3054ee1edf59e18ab072564a2d18661d2eb378eb39a65fb820ab605329fd4d443e5ae010d157ef84be7c58442316681320bd76e93ba45dba22a962512bff4f463c58e212d355ed86bc7e5a4621146a1122bf74ef3da25bbc24af64572df949403a5ee414d553eb80ba785c4027126c1724b972ed3fa059be26ad66552ffb4b42385ce616d751e982b87a5e4225106e1526bb70e331ae57b028a3685b21f5454c3652e818d95fe78cb674504c2b1e601b28b57ee133ac55b22aa16a5923f7474e3450ea1adb5de58eb476524e291c62192ab77ce735aa53b42ca76c5f25f141483256ec1cdd5be388b27054482f1a641f2cb17ae537a851b62ea56e5d27f3434a3054ee1edf59e18ab072564a2d18661d2eb378eb39a65fb820ab605329fd4d443e5ae010d157ef84be7c58442316681320bd76e93ba45dba22a962512bff4f463c58e212d355ed86bc7e5a4621146a1122bf74ef3da25bbc24af64572df949403a5ee414d553eb80ba785c4027126c1724b972ed3fa059be26ad66552ffb4b42385ce616d751e982b87a5e4225106e1526bb70e331ae57b028a3685b21f5454c3652e818d95fe78cb674504c2b1e601b28b57ee133ac55b22aa16a5923f7474e3450ea1adb5de58eb476524e291c62192ab77ce735aa53b42ca76c5f25f141483256ec1cdd5be388b27054482f1a641f2cb17ae537a851b62ea56e5d27f3434a3054ee1edf59e18ab072564a2d18661d2eb378eb39a65fb820ab605329fd4d443e5ae010d157ef84be7c58442316681320bd76e93ba45dba22a962512bff4f463c58e212d355ed86bc7e5a4621146a1122bf74ef3da25bbc24af64572df949403a5ee414d553eb80ba785c4027126c1724b972ed3fa059be26ad66552ffb4b42385ce616d751e982b87a5e4225106e1526bb70e331ae57b028a3685b21f5454c3652e818d95fe78cb674504c2b1e601b28b57ee133ac55b22aa16a5923f7474e3450ea1adb5de58eb476524e291c62192ab77ce735aa53b42ca76c5f25f141483256ec1cdd5be388b27054482f1a641f2cb17ae537a851b62ea56e5d27f3434a3054ee1edf59e18ab072564a2d18661d2eb378eb39a65fb820ab605329fd4d443e5ae010d157ef84be7c58442316681320bd76e93ba45dba22a962512bff4f463c58e212d355ed86bc7e5a4621146a1122bf74ef3da25bbc24af64572df949403a5ee414d553eb80ba785c4027126c1724b972ed3fa059be26ad66552ffb4b42385ce616d751e982b87a5e4225106e1526bb70e331ae57b028a3685b21f5454c3652e81046df50acb6ff537a1d27767278fa06f62fa3ef490b32b33882d8fe4d19bf259",
        "type": "nulldata"
      }
    },
    {
      "value": 499960.3409,
      "n": 1,
      "scriptPubKey": {
        "asm": "1 07c9d2d59726eaf91cde57c0b2aecde90c06218ea077e67e0bd56f5b2e36602d",
        "hex": "512007c9d2d59726eaf91cde57c0b2aecde90c06218ea077e67e0bd56f5b2e36602d",
        "reqSigs": 1,
        "type": "witness_v1_scripthash",
        "addresses": [
          "3QJmnh"
        ]
      }
    }
  ],
  "blockhash": "9c49f121af07ca043271baff5049446c1aadf74400091ff8de6bf4087ac8778e",
  "confirmations": 1,
  "time": 1764183425,
  "blocktime": 1764183425
}