{
  "hex": "010000000001016f6a522e34a12ec0338f161afa332647f709af034aba45e65b078bc45db086b50000000000feffffff024021813f792d0000225120f156aa8d2687ca3e94cba0349452292011feb5132d4bdcc9084da99b28ff32f700e1f50500000000fdd5046a20ba5467c98c28e9a588f4fb18a558e29c07ecbe4b8594887206b1fa7a00d3759c4db0043f0c4c9e0a9064c1fb13f030ae8059232ac2b7524aaa5cf48298226b1166e3311f2c6cbe2ab044e1db33d0108ea079030ae297726a8a7cd4a2b8024b3146c3117f4c0cde4ad02481bb53b070eec019636a82f7120aea1cb4c2d8622b5126a3715f6c2cfe6af004a19b739050cee039434aa2d7322aca3c94e2f8420b71068351bf8ccc1e8a10e4417b9370b02e00d9a3aa4237d2ca2adc740218a2eb91e663b19facec3eaa30c4615bb350900e20f9838a6217f2ea0afc54223882cbb1c64391ffcc8c5eca50a4013bd330f06e4099e3ea0277928a6a9c344258e2abd1a623f1dfecac7eea7084211bf310d04e60b9c3ca2257b2aa4abc146278c28bf18603d13f0c4c9e0a9064c1fb13f030ae8059232ac2b7524aaa5cf48298226b1166e3311f2c6cbe2ab044e1db33d0108ea079030ae297726a8a7cd4a2b8024b3146c3117f4c0cde4ad02481bb53b070eec019636a82f7120aea1cb4c2d8622b5126a3715f6c2cfe6af004a19b739050cee039434aa2d7322aca3c94e2f8420b71068351bf8ccc1e8a10e4417b9370b02e00d9a3aa4237d2ca2adc740218a2eb91e663b19facec3eaa30c4615bb350900e20f9838a6217f2ea0afc54223882cbb1c64391ffcc8c5eca50a4013bd330f06e4099e3ea0277928a6a9c344258e2abd1a623f1dfecac7eea7084211bf310d04e60b9c3ca2257b2aa4abc146278c28bf18603d13f0c4c9e0a9064c1fb13f030ae8059232ac2b7524aaa5cf48298226b1166e3311f2c6cbe2ab044e1db33d0108ea079030ae297726a8a7cd4a2b8024b3146c3117f4c0cde4ad02481bb53b070eec019636a82f7120aea1cb4c2d8622b5126a3715f6c2cfe6af004a19b739050cee039434aa2d7322aca3c94e2f8420b71068351bf8ccc1e8a10e4417b9370b02e00d9a3aa4237d2ca2adc740218a2eb91e663b19facec3eaa30c4615bb350900e20f9838a6217f2ea0afc54223882cbb1c64391ffcc8c5eca50a4013bd330f06e4099e3ea0277928a6a9c344258e2abd1a623f1dfecac7eea7084211bf310d04e60b9c3ca2257b2aa4abc146278c28bf18603d13f0c4c9e0a9064c1fb13f030ae8059232ac2b7524aaa5cf48298226b1166e3311f2c6cbe2ab044e1db33d0108ea079030ae297726a8a7cd4a2b8024b3146c3117f4c0cde4ad02481bb53b070eec019636a82f7120aea1cb4c2d8622b5126a3715f6c2cfe6af004a19b739050cee039434aa2d7322aca3c94e2f8420b71068351bf8ccc1e8a10e4417b9370b02e00d9a3aa4237d2ca2adc740218a2eb91e663b19facec3eaa30c4615bb350900e20f9838a6217f2ea0afc54223882cbb1c64391ffcc8c5eca50a4013bd330f06e4099e3ea0277928a6a9c344258e2abd1a623f1dfecac7eea7084211bf310d04e60b9c3ca2257b2aa4abc146278c28bf18603d13f0c4c9e0a9064c1fb13f030ae8059232ac2b7524aaa5cf48298226b1166e3311f2c6cbe2ab044e1db33d0108ea079030ae297726a8a7cd4a2b8024b3146c3117f4c0cde4ad02481bb53b070eec019636a82f7120aea1cb4c2d8622b5126a3715f6c2cfe6af004a19b739050cee039434aa2d7322aca3c94e2f8420b71068351bf8ccc1e8a10e4417b9370b02e00d9a36fa5341e1627eaa8be9d3e8bf22c6e7e323804c56b6b0bf4c328a45bd6d5933e02fd7509cdf5835874723a955ca317a4266f9d069a2798c611d21c01fdb09250146afe176f137f231d31dd5dedb0bddfe6dc893859a57b0eda4ca810c1b779f2b6d1c1552cb710d7dcac3d43ccb87562cc6c50c75c3366f0f55d2cc92b7215328215d2934b354da05313291402661945fb9322a6205471e13203a6e059e689f8dfe2dda8a307f941dfeb097b4cfc2fc24eec52baf7c84fa925a59af7e02911842cf966523c23390d68c553c379fe5b4c814448002db6f7d05d92fda9a3107361ab9c0a6739c80a5f834f4f2acfc51fbb766d2e96dbd8b44fe9efc0c0f2db9b60d6b971178c84f3946cd893e767155e76a5e6072afc27a72c55234672fa9bb62f2ac5b6332208d3f66759def2492ff4781b68bbe3a7100a98cdc37b1095340e33e311f2bbaa3c03d05248c1dec1b30fe80fb08352fcab042d8bda1de52560150ec1812ce7bd2a4f6b70c84dc875ac44d7567f76e028418a365f7748784774d836157e24fefbd93e2030d0fe2c74cd1718dbad86ba1f73b5beb290f40bb3e8799ca3f0d178e26501f0a67f81bef4e75190f93ec94c9a2d08390a188ec51ed07b35eedf185a77156d87f6d08935d1a7194dc2ec4cf6585c558a9d58633d4d2a7a92b1007cb416c5af3f2cdd3acf6939781f25c041178c1c20efe756acef28a5e13f335165cab8ae2a6c6df287191aecb4b8870e486888a69bf1ba78427ed33bb330f0e640b001e43af73d611e61da6a140c383a7addbdea82cec3ea06e7da749aa380cfbbcd75e6d23ebb9b9f4a89e169dc23d893debf4e20a0891b3015ce1d629e6db5021aa5fa4158d9ea7bab815cda792daebd8c3c3ebc34da566b407b8f4bb1ba2c3f5201b248f41206789983bdfffe2162dfcd26daf5a9db063f19ed53f56bfcaf6ea45e69a7e4a037b901809d968eec2a3fe8fdd2d11da5d908994711e28cd2447a68f8ac53afcdbfb75d815fb8976be1576f91d3a6c55b773d42478b023f609fc5b826ee2f039c9d2a9e06f0c183e8dc027236db8d18a3bc440884f423cfa799934716a14a961c094d9c97d5398abfd8362983882b6e92502b3fad14d54f11892afe2e405021355c97a65afb7525492b2708ab68361ab8588ba0f220d8606b7b7b2e9853f7dbdd4da05a4062733ec80313ea529e00c45544b8e37b8e4ef7f0cc4b6c1c5ab2d9eb745dfc24a00e343d308daa233c0474702757ee2ca2fabd54a6c66325461d26575299869cd18fad6ab16843dbb16a5b49c2d60e9ddbee32dcc2f40fe0f515d3004ea4a01668bdf52b5180823e2ca15f49bb68d8833e0ded641d98ddea21d578ea4d8785e644d812ee0cf355edec947aea1ae9a16ebc430cf00d8f3dfe2b87da8237e670ba420492bc923a950e4fee88f904e917046e35bf01ee7ec42a93f55182a953fbb7699ee100e4c37a6aaedfb8031aafe29a6e0269248ddd02cf35c6dab465e3ad0c3e6d60c3597ed314e6312210d9969e9f7a43a663d25e0b3e92c313cd4905a2a1af6f3fb1cdb25f6699330248e6189fad00a7dd9f78ae2f1414afe92a7a3acef14e2efbd044f474fb61f382e38351ab1ea61978ccc59bfe20d0e8fb76923d965fcf48f8948b91c8fd580828ed7d0d11f216dcb58dce9ab9beb02e36160ec64e7485c5f48602077984ef16d7e9a800b3c69d62f10d8a9ecc196f70bddb097a29b9d29b63c513477789490ec85eaa3c8dc903fe9152edb695eef218ccfa3389a65721846e99f6d2b0a5dcb5207fd326ecfdb73ea08af9afac30a4c57d09bf253a3d83d7819e597c086d03c9a5475eeeb6d46c1a109f2acdeb57d88daad30eefc33d77ef1b8d65aa2c4c55a0132837715b03a5272ddab5072e8e2918538faf6e99fef0808bd395984234b9890f1e8ae6ffbb77dd61fb7f650fde7a41a381165a0766b38d0b2743aa51660d894b4b8171309e5cd4196f6a861806b7f2d8c71d78d042a41461628d11d3e0dd52abcbd2a4fc3e5fff8b4cd1e67b539f897d6100fca7638c082f807975cca17057b0acb6f4a4d523869d3ae09782f9d3f34b77d2868d59121bffea112f53237fee3c8c139a8355f798a0e578017f5b0879855533ad2a8915f875b606eb9e14082972513f431d3e9488df1a247b3998da55d71201b2eb6e5445d0b8bd1421fa0c927450c19549a4a5536d8091359fafd10954e29d197d64ed6b203fd293a50500c7828f72205c3d62211802380562e518b2ed8d093b80c1df2100bc8b62ea8eb6e24a50e4452c33988005712312948a8ab16556ce4977d5ed28dd28d902451db20b85011d98367bc49614806f52398a485557015a1c1e61d0e81351fae62bc03eae57206055d445f5ff3acf5f4981e162c248d4a42475d01317c0a992c0b1a7979530e7597f741677ff7fd531e1e42b9d09018be5d37553f2312f773b6a8af1ea493026ca0a5554d38936e59ef435943449ee2f5ffb1525b4d5bab4117e45dd6581dcabcc7b28590a57ff5cbe5b8fa076f51447caa2d8e69eed887145342c4b776b287a2699a12d19fc30f99286700a347cc900388be92710a5a6b8d48ba98d9eeb1baa5f38e9ec8de1038a0d913b3daf418212106f4b235de7b1c9df31dd94ebb295c2a3fe634732d8c13be130f3b3ab336cf91c63699b58041be2d83d793bd1c4aa1ffd0132afb82b495a20caea4855ff47b5c5e8aaef816ff7d730306e822b48b77407e9fa4b02ffdcb7ae8b197d2b57a893857aa33cf9360cdf4375cb06e366d314bb77c1028b55fa1a1f625020c792562419379db1c69936107b5b66197e6644b38d2d849a08bdd441ffaf4648c75f81a61d6d7ee65eba07fc4c351b7a01c40cae37f368e5dc2238ff87004f952b11a3c8f50f90d775d959af86a67e2654f5d2897835e208719650ff615c08b064658fda19a3e7293961a4230d8c9982f6bb40d76c2c8d10f45c60ca4800a7706a3131304285d7c7200216ebb74c98aec32a86b669c1f0b21865493568e103ae112da226c10d7a0d814aa1fe5aefa89f7784dee5dff8523c592b8b7cce7de50b98fa04dd4acc34158ddf78b93f8f71031f509c2b2b3eb704537be652ce707a2468017492604f0027b46c9d1905a57e31e214ba9ae78ba37bc3d6c5f4b63a21fea8b89d44b93bb9a92c67aa98b2056c55be926fbc7e12518430388740e88627a9ac3f54b5fa987712cb897870eb583dcc39699728bc2598e9f8894990b548b08b4eff10eaf2126a380ffd0f8d29aed9e8e8ae36d9f6a5044e314b07b30e20f16c22de3e234005cd6ec85d5397787bc2be8a60b21cd544a05a92660726012cc109102124253236385d626d7576888dabc0ddfc020408182f3639414f5064748a8e9ba9c4d0d4de1837494b596a83919cf7101f212230476f93d3f80000000000000000000000000000000000000000001327313b01fd21050009db02743586134f7b72d47e49e50639c0095905b82d8d4763f061d8935e4bc4b5c0e1b63fdd22c8f031d2592c822f060fc7ecef2163ee4d7045b3bfdee7c8eb20883cb03541635b7635b81a694591d2c781e14284dd54e2b3e83841c05ae1f335e54849a70614c34200d53e2cdf81d5aa728b75b16d9fdf9930b1bb221407f3200f2cabd4dd74442683ab6ae97dc30383187fa00b104f478518f8af866ae66b6b75829664813a6e30c752e63f0d46fb9dbba6e881375a3f37a695ddfe77564086b597c0a9706a9ad810311bba1ab09dddc22719456146f3d3a0a126a8a1359affb008b9aff55b51f75db9e3c36b7536c103d2ca4713e9d4250e5541223d30cc1c565cb8af9004ac263430d2612337e51572e91107d7e4c8ad9ed07f922acc05d3f1f10df28967c31557162423df7d93648790aba378e305d0ae599be6090fcccac0c1653a5ada981882e66d7ddd4fcbad3df105973d2de066389d998f2af8db15464f5b010b004526c793c10fec35b3b08c5d94dbdbe3ed72292d1291014ed321c269817f90c4a41422a3879c7010c291f4c310194f7a3d8f7f7f148c9e3234f16a57bf62845999631996d08f448a8ae6887a0df75a9f6c881786847e2341c3af870ef5f4f976587e1d42da63c49ba2db1cacc20d1cb1bd17a96eaa2338282a0f8620ca484a7bb55b61ede40025fd2afe5ac28994194445405e8ee198b46a50b08f9103db09bc6f23f1a44c69bc87b88580ef4112eee49c09fa327b1d3539e0ca3bdf657d43412dca3af6a79abfdcda45439b46784192d0c1a7d7880f364d65f0823c582eed75cc9011817bc0b4382919e94d947d87f9968c23fccfab47ef214b08f1ae2582c26fa9893481a8df736822b5413df0997578a3da319745465f194d95a73a35d2a364128d0c72786c02e52e3dfafba5a7b70bbfdbf7a12526e408b4d41b3c544c5fbc18438cff906fd458798f77a862d9af4c2f16517d5d99b90fa6a91f6616fc0f3a03eca0d0f32688e159749225a5bf6db27f14f84a34c3cfa0387af785bfa24b202653c4d40d81be7285a7ec59167ef065e008e7c4368416715bf57afb164aeab2fcb21cc5200fa874d48c754fa19e6632461720fe3dec1f4ea318a31722a1406a57b67580b2179b6fdee928fdfb9ea85e040cc650a3aa743af28225215597b30cb4459008083841c918b5c38f243cf805ae255c9aca08e092e55d4087a5a2e2becbb50ef5cb8e941fcc639ff9ae6682f4072b651bbda2fc0950a1b35a2a4d88c7d6732b72356794896a2a8c18c5c0224895230957835734d0608a68ec0961ecd6d9221ccb4c1a7f0eabae73c45d9dd7ce058699dd5b8bf52ff09df64bffa58f0027114e6e6c9ae1234dc914e79137ddf2cceb55c7488c36a8b2f7d889b1326e40982a663f8a6e26796b53c924a3be24d7abf77bf45fddaa477ac248ac84887d130cdeee55302277324f645bf8f7cc416495015a60c54795148e3d7cf9971548910c495ebb0cc94cb92ff65081c588cbd54134d1ea3e68bf1d6caaee7af70ca1d668223c2e331e7e3c9009269b81d04027749dde179968f8dd850898cdbe781f8690b0a8ae4a9b5a4a0aca10ec58311cac02a245743cb6ad07af37aaf9ab3eef6b3dff53ba5cedf70f001760abbd5869fa9d013def014a2b5aab8b410395ea7ccb6a1dc94b674d5f3b669d19c08cfa8c38a63977206260e6844e0f3c636756f1232393222fc9053b8fd30271fc80184f2cdddd6728ad2050aa9468a77c717496462d6f3f3e30eaf2e401bb5925048acf5b230ebb3b3040e1b734e9528859a05367f0cca13dc50be2c84f0b35f7e7f61390cffc1b81f0ff53246e000000",
  "txid": "8dbd4fb8b55555265b52b428641bbbade61e2c9b170c84bae5699439a4e52bc6",
  "hash": "2b625b60a62a05b7c87708482bb78c93318c92f14bec082a2e155f1d69976630",
  "size": 5085,
  "vsize": 2278,
  "version": 1,
  "locktime": 110,
  "vin": [
    {
      "txid": "b586b05dc48b075be645ba4a03af09f7472633fa1a168f33c02ea1342e526a6f",
      "vout": 0,
      "scriptSig": {
        "asm": "",
        "hex": ""
      },
      "txinwitness": [
        "cdf5835874723a955ca317a4266f9d069a2798c611d21c01fdb09250146afe176f137f231d31dd5dedb0bddfe6dc893859a57b0eda4ca810c1b779f2b6d1c1552cb710d7dcac3d43ccb87562cc6c50c75c3366f0f55d2cc92b7215328215d2934b354da05313291402661945fb9322a6205471e13203a6e059e689f8dfe2dda8a307f941dfeb097b4cfc2fc24eec52baf7c84fa925a59af7e02911842cf966523c23390d68c553c379fe5b4c814448002db6f7d05d92fda9a3107361ab9c0a6739c80a5f834f4f2acfc51fbb766d2e96dbd8b44fe9efc0c0f2db9b60d6b971178c84f3946cd893e767155e76a5e6072afc27a72c55234672fa9bb62f2ac5b6332208d3f66759def2492ff4781b68bbe3a7100a98cdc37b1095340e33e311f2bbaa3c03d05248c1dec1b30fe80fb08352fcab042d8bda1de52560150ec1812ce7bd2a4f6b70c84dc875ac44d7567f76e028418a365f7748784774d836157e24fefbd93e2030d0fe2c74cd1718dbad86ba1f73b5beb290f40bb3e8799ca3f0d178e26501f0a67f81bef4e75190f93ec94c9a2d08390a188ec51ed07b35eedf185a77156d87f6d08935d1a7194dc2ec4cf6585c558a9d58633d4d2a7a92b1007cb416c5af3f2cdd3acf6939781f25c041178c1c20efe756acef28a5e13f335165cab8ae2a6c6df287191aecb4b8870e486888a69bf1ba78427ed33bb330f0e640b001e43af73d611e61da6a140c383a7addbdea82cec3ea06e7da749aa380cfbbcd75e6d23ebb9b9f4a89e169dc23d893debf4e20a0891b3015ce1d629e6db5021aa5fa4158d9ea7bab815cda792daebd8c3c3ebc34da566b407b8f4bb1ba2c3f5201b248f41206789983bdfffe2162dfcd26daf5a9db063f19ed53f56bfcaf6ea45e69a7e4a037b901809d968eec2a3fe8fdd2d11da5d908994711e28cd2447a68f8ac53afcdbfb75d815fb8976be1576f91d3a6c55b773d42478b023f609fc5b826ee2f039c9d2a9e06f0c183e8dc027236db8d18a3bc440884f423cfa799934716a14a961c094d9c97d5398abfd8362983882b6e92502b3fad14d54f11892afe2e405021355c97a65afb7525492b2708ab68361ab8588ba0f220d8606b7b7b2e9853f7dbdd4da05a4062733ec80313ea529e00c45544b8e37b8e4ef7f0cc4b6c1c5ab2d9eb745dfc24a00e343d308daa233c0474702757ee2ca2fabd54a6c66325461d26575299869cd18fad6ab16843dbb16a5b49c2d60e9ddbee32dcc2f40fe0f515d3004ea4a01668bdf52b5180823e2ca15f49bb68d8833e0ded641d98ddea21d578ea4d8785e644d812ee0cf355edec947aea1ae9a16ebc430cf00d8f3dfe2b87da8237e670ba420492bc923a950e4fee88f904e917046e35bf01ee7ec42a93f55182a953fbb7699ee100e4c37a6aaedfb8031aafe29a6e0269248ddd02cf35c6dab465e3ad0c3e6d60c3597ed314e6312210d9969e9f7a43a663d25e0b3e92c313cd4905a2a1af6f3fb1cdb25f6699330248e6189fad00a7dd9f78ae2f1414afe92a7a3acef14e2efbd044f474fb61f382e38351ab1ea61978ccc59bfe20d0e8fb76923d965fcf48f8948b91c8fd580828ed7d0d11f216dcb58dce9ab9beb02e36160ec64e7485c5f48602077984ef16d7e9a800b3c69d62f10d8a9ecc196f70bddb097a29b9d29b63c513477789490ec85eaa3c8dc903fe9152edb695eef218ccfa3389a65721846e99f6d2b0a5dcb5207fd326ecfdb73ea08af9afac30a4c57d09bf253a3d83d7819e597c086d03c9a5475eeeb6d46c1a109f2acdeb57d88daad30eefc33d77ef1b8d65aa2c4c55a0132837715b03a5272ddab5072e8e2918538faf6e99fef0808bd395984234b9890f1e8ae6ffbb77dd61fb7f650fde7a41a381165a0766b38d0b2743aa51660d894b4b8171309e5cd4196f6a861806b7f2d8c71d78d042a41461628d11d3e0dd52abcbd2a4fc3e5fff8b4cd1e67b539f897d6100fca7638c082f807975cca17057b0acb6f4a4d523869d3ae09782f9d3f34b77d2868d59121bffea112f53237fee3c8c139a8355f798a0e578017f5b0879855533ad2a8915f875b606eb9e14082972513f431d3e9488df1a247b3998da55d71201b2eb6e5445d0b8bd1421fa0c927450c19549a4a5536d8091359fafd10954e29d197d64ed6b203fd293a50500c7828f72205c3d62211802380562e518b2ed8d093b80c1df2100bc8b62ea8eb6e24a50e4452c33988005712312948a8ab16556ce4977d5ed28dd28d902451db20b85011d98367bc49614806f52398a485557015a1c1e61d0e81351fae62bc03eae57206055d445f5ff3acf5f4981e162c248d4a42475d01317c0a992c0b1a7979530e7597f741677ff7fd531e1e42b9d09018be5d37553f2312f773b6a8af1ea493026ca0a5554d38936e59ef435943449ee2f5ffb1525b4d5bab4117e45dd6581dcabcc7b28590a57ff5cbe5b8fa076f51447caa2d8e69eed887145342c4b776b287a2699a12d19fc30f99286700a347cc900388be92710a5a6b8d48ba98d9eeb1baa5f38e9ec8de1038a0d913b3daf418212106f4b235de7b1c9df31dd94ebb295c2a3fe634732d8c13be130f3b3ab336cf91c63699b58041be2d83d793bd1c4aa1ffd0132afb82b495a20caea4855ff47b5c5e8aaef816ff7d730306e822b48b77407e9fa4b02ffdcb7ae8b197d2b57a893857aa33cf9360cdf4375cb06e366d314bb77c1028b55fa1a1f625020c792562419379db1c69936107b5b66197e6644b38d2d849a08bdd441ffaf4648c75f81a61d6d7ee65eba07fc4c351b7a01c40cae37f368e5dc2238ff87004f952b11a3c8f50f90d775d959af86a67e2654f5d2897835e208719650ff615c08b064658fda19a3e7293961a4230d8c9982f6bb40d76c2c8d10f45c60ca4800a7706a3131304285d7c7200216ebb74c98aec32a86b669c1f0b21865493568e103ae112da226c10d7a0d814aa1fe5aefa89f7784dee5dff8523c592b8b7cce7de50b98fa04dd4acc34158ddf78b93f8f71031f509c2b2b3eb704537be652ce707a2468017492604f0027b46c9d1905a57e31e214ba9ae78ba37bc3d6c5f4b63a21fea8b89d44b93bb9a92c67aa98b2056c55be926fbc7e12518430388740e88627a9ac3f54b5fa987712cb897870eb583dcc39699728bc2598e9f8894990b548b08b4eff10eaf2126a380ffd0f8d29aed9e8e8ae36d9f6a5044e314b07b30e20f16c22de3e234005cd6ec85d5397787bc2be8a60b21cd544a05a92660726012cc109102124253236385d626d7576888dabc0ddfc020408182f3639414f5064748a8e9ba9c4d0d4de1837494b596a83919cf7101f212230476f93d3f80000000000000000000000000000000000000000001327313b01",
        "0009db02743586134f7b72d47e49e50639c0095905b82d8d4763f061d8935e4bc4b5c0e1b63fdd22c8f031d2592c822f060fc7ecef2163ee4d7045b3bfdee7c8eb20883cb03541635b7635b81a694591d2c781e14284dd54e2b3e83841c05ae1f335e54849a70614c34200d53e2cdf81d5aa728b75b16d9fdf9930b1bb221407f3200f2cabd4dd74442683ab6ae97dc30383187fa00b104f478518f8af866ae66b6b75829664813a6e30c752e63f0d46fb9dbba6e881375a3f37a695ddfe77564086b597c0a9706a9ad810311bba1ab09dddc22719456146f3d3a0a126a8a1359affb008b9aff55b51f75db9e3c36b7536c103d2ca4713e9d4250e5541223d30cc1c565cb8af9004ac263430d2612337e51572e91107d7e4c8ad9ed07f922acc05d3f1f10df28967c31557162423df7d93648790aba378e305d0ae599be6090fcccac0c1653a5ada981882e66d7ddd4fcbad3df105973d2de066389d998f2af8db15464f5b010b004526c793c10fec35b3b08c5d94dbdbe3ed72292d1291014ed321c269817f90c4a41422a3879c7010c291f4c310194f7a3d8f7f7f148c9e3234f16a57bf62845999631996d08f448a8ae6887a0df75a9f6c881786847e2341c3af870ef5f4f976587e1d42da63c49ba2db1cacc20d1cb1bd17a96eaa2338282a0f8620ca484a7bb55b61ede40025fd2afe5ac28994194445405e8ee198b46a50b08f9103db09bc6f23f1a44c69bc87b88580ef4112eee49c09fa327b1d3539e0ca3bdf657d43412dca3af6a79abfdcda45439b46784192d0c1a7d7880f364d65f0823c582eed75cc9011817bc0b4382919e94d947d87f9968c23fccfab47ef214b08f1ae2582c26fa9893481a8df736822b5413df0997578a3da319745465f194d95a73a35d2a364128d0c72786c02e52e3dfafba5a7b70bbfdbf7a12526e408b4d41b3c544c5fbc18438cff906fd458798f77a862d9af4c2f16517d5d99b90fa6a91f6616fc0f3a03eca0d0f32688e159749225a5bf6db27f14f84a34c3cfa0387af785bfa24b202653c4d40d81be7285a7ec59167ef065e008e7c4368416715bf57afb164aeab2fcb21cc5200fa874d48c754fa19e6632461720fe3dec1f4ea318a31722a1406a57b67580b2179b6fdee928fdfb9ea85e040cc650a3aa743af28225215597b30cb4459008083841c918b5c38f243cf805ae255c9aca08e092e55d4087a5a2e2becbb50ef5cb8e941fcc639ff9ae6682f4072b651bbda2fc0950a1b35a2a4d88c7d6732b72356794896a2a8c18c5c0224895230957835734d0608a68ec0961ecd6d9221ccb4c1a7f0eabae73c45d9dd7ce058699dd5b8bf52ff09df64bffa58f0027114e6e6c9ae1234dc914e79137ddf2cceb55c7488c36a8b2f7d889b1326e40982a663f8a6e26796b53c924a3be24d7abf77bf45fddaa477ac248ac84887d130cdeee55302277324f645bf8f7cc416495015a60c54795148e3d7cf9971548910c495ebb0cc94cb92ff65081c588cbd54134d1ea3e68bf1d6caaee7af70ca1d668223c2e331e7e3c9009269b81d04027749dde179968f8dd850898cdbe781f8690b0a8ae4a9b5a4a0aca10ec58311cac02a245743cb6ad07af37aaf9ab3eef6b3dff53ba5cedf70f001760abbd5869fa9d013def014a2b5aab8b410395ea7ccb6a1dc94b674d5f3b669d19c08cfa8c38a63977206260e6844e0f3c636756f1232393222fc9053b8fd30271fc80184f2cdddd6728ad2050aa9468a77c717496462d6f3f3e30eaf2e401bb5925048acf5b230ebb3b3040e1b734e9528859a05367f0cca13dc50be2c84f0b35f7e7f61390cffc1b81f0ff5324"
      ],
      "sequence": 4294967294
    }
  ],
  "vout": [
    {
      "value": 499987.7972,
      "n": 0,
      "scriptPubKey": {
        "asm": "1 f156aa8d2687ca3e94cba0349452292011feb5132d4bdcc9084da99b28ff32f7",
        "hex": "5120f156aa8d2687ca3e94cba0349452292011feb5132d4bdcc9084da99b28ff32f7",
        "reqSigs": 1,
        "type": "witness_v1_scripthash",
        "addresses": [
          "3QJmnh"
        ]
      }
    },
    {
      "value": 1.0,
      "n": 1,
      "scriptPubKey": {
        "asm": "OP_RETURN ba5467c98c28e9a588f4fb18a558e29c07ecbe4b8594887206b1fa7a00d3759c 3f0c4c9e0a9064c1fb13f030ae8059232ac2b7524aaa5cf48298226b1166e3311f2c6cbe2ab044e1db33d0108ea079030ae297726a8a7cd4a2b8024b3146c3117f4c0cde4ad02481bb53b070eec019636a82f7120aea1cb4c2d8622b5126a3715f6c2cfe6af004a19b739050cee039434aa2d7322aca3c94e2f8420b71068351bf8ccc1e8a10e4417b9370b02e00d9a3aa4237d2ca2adc740218a2eb91e663b19facec3eaa30c4615bb350900e20f9838a6217f2ea0afc54223882cbb1c64391ffcc8c5eca50a4013bd330f06e4099e3ea0277928a6a9c344258e2abd1a623f1dfecac7eea7084211bf310d04e60b9c3ca2257b2aa4abc146278c28bf18603d13f0c4c9e0a9064c1fb13f030ae8059232ac2b7524aaa5cf48298226b1166e3311f2c6cbe2ab044e1db33d0108ea079030ae297726a8a7cd4a2b8024b3146c3117f4c0cde4ad02481bb53b070eec019636a82f7120aea1cb4c2d8622b5126a3715f6c2cfe6af004a19b739050cee039434aa2d7322aca3c94e2f8420b71068351bf8ccc1e8a10e4417b9370b02e00d9a3aa4237d2ca2adc740218a2eb91e663b19facec3eaa30c4615bb350900e20f9838a6217f2ea0afc54223882cbb1c64391ffcc8c5eca50a4013bd330f06e4099e3ea0277928a6a9c344258e2abd1a623f1dfecac7eea7084211bf310d04e60b9c3ca2257b2aa4abc146278c28bf18603d13f0c4c9e0a9064c1fb13f030ae8059232ac2b7524aaa5cf48298226b1166e3311f2c6cbe2ab044e1db33d0108ea079030ae297726a8a7cd4a2b8024b3146c3117f4c0cde4ad02481bb53b070eec019636a82f7120aea1cb4c2d8622b5126a3715f6c2cfe6af004a19b739050cee039434aa2d7322aca3c94e2f8420b71068351bf8ccc1e8a10e4417b9370b02e00d9a3aa4237d2ca2adc740218a2eb91e663b19facec3eaa30c4615bb350900e20f9838a6217f2ea0afc54223882cbb1c64391ffcc8c5eca50a4013bd330f06e4099e3ea0277928a6a9c344258e2abd1a623f1dfecac7eea7084211bf310d04e60b9c3ca2257b2aa4abc146278c28bf18603d13f0c4c9e0a9064c1fb13f030ae8059232ac2b7524aaa5cf48298226b1166e3311f2c6cbe2ab044e1db33d0108ea079030ae297726a8a7cd4a2b8024b3146c3117f4c0cde4ad02481bb53b070eec019636a82f7120aea1cb4c2d8622b5126a3715f6c2cfe6af004a19b739050cee039434aa2d7322aca3c94e2f8420b71068351bf8ccc1e8a10e4417b9370b02e00d9a3aa4237d2ca2adc740218a2eb91e663b19facec3eaa30c4615bb350900e20f9838a6217f2ea0afc54223882cbb1c64391ffcc8c5eca50a4013bd330f06e4099e3ea0277928a6a9c344258e2abd1a623f1dfecac7eea7084211bf310d04e60b9c3ca2257b2aa4abc146278c28bf18603d13f0c4c9e0a9064c1fb13f030ae8059232ac2b7524aaa5cf48298226b1166e3311f2c6cbe2ab044e1db33d0108ea079030ae297726a8a7cd4a2b8024b3146c3117f4c0cde4ad02481bb53b070eec019636a82f7120aea1cb4c2d8622b5126a3715f6c2cfe6af004a19b739050cee039434aa2d7322aca3c94e2f8420b71068351bf8ccc1e8a10e4417b9370b02e00d9a36fa5341e1627eaa8be9d3e8bf22c6e7e323804c56b6b0bf4c328a45bd6d5933e",
        "hex": "6a20ba5467c98c28e9a588f4fb18a558e29c07ecbe4b8594887206b1fa7a00d3759c4db0043f0c4c9e0a9064c1fb13f030ae8059232ac2b7524aaa5cf48298226b1166e3311f2c6cbe2ab044e1db33d0108ea079030ae297726a8a7cd4a2b8024b3146c3117f4c0cde4ad02481bb53b070eec019636a82f7120aea1cb4c2d8622b5126a3715f6c2cfe6af004a19b739050cee039434aa2d7322aca3c94e2f8420b71068351bf8ccc1e8a10e4417b9370b02e00d9a3aa4237d2ca2adc740218a2eb91e663b19facec3eaa30c4615bb350900e20f9838a6217f2ea0afc54223882cbb1c64391ffcc8c5eca50a4013bd330f06e4099e3ea0277928a6a9c344258e2abd1a623f1dfecac7eea7084211bf310d04e60b9c3ca2257b2aa4abc146278c28bf18603d13f0c4c9e0a9064c1fb13f030ae8059232ac2b7524aaa5cf48298226b1166e3311f2c6cbe2ab044e1db33d0108ea079030ae297726a8a7cd4a2b8024b3146c3117f4c0cde4ad02481bb53b070eec019636a82f7120aea1cb4c2d8622b5126a3715f6c2cfe6af004a19b739050cee039434aa2d7322aca3c94e2f8420b71068351bf8ccc1e8a10e4417b9370b02e00d9a3aa4237d2ca2adc740218a2eb91e663b19facec3eaa30c4615bb350900e20f9838a6217f2ea0afc54223882cbb1c64391ffcc8c5eca50a4013bd330f06e4099e3ea0277928a6a9c344258e2abd1a623f1dfecac7eea7084211bf310d04e60b9c3ca2257b2aa4abc146278c28bf18603d13f0c4c9e0a9064c1fb13f030ae8059232ac2b7524aaa5cf48298226b1166e3311f2c6cbe2ab044e1db33d0108ea079030ae297726a8a7cd4a2b8024b3146c3117f4c0cde4ad02481bb53b070eec019636a82f7120aea1cb4c2d8622b5126a3715f6c2cfe6af004a19b739050cee039434aa2d7322aca3c94e2f8420b71068351bf8ccc1e8a10e4417b9370b02e00d9a3aa4237d2ca2adc740218a2eb91e663b19facec3eaa30c4615bb350900e20f9838a6217f2ea0afc54223882cbb1c64391ffcc8c5eca50a4013bd330f06e4099e3ea0277928a6a9c344258e2abd1a623f1dfecac7eea7084211bf310d04e60b9c3ca2257b2aa4abc146278c28bf18603d13f0c4c9e0a9064c1fb13f030ae8059232ac2b7524aaa5cf48298226b1166e3311f2c6cbe2ab044e1db33d0108ea079030ae297726a8a7cd4a2b8024b3146c3117f4c0cde4ad02481bb53b070eec019636a82f7120aea1cb4c2d8622b5126a3715f6c2cfe6af004a19b739050cee039434aa2d7322aca3c94e2f8420b71068351bf8ccc1e8a10e4417b9370b02e00d9a3aa4237d2ca2adc740218a2eb91e663b19facec3eaa30c4615bb350900e20f9838a6217f2ea0afc54223882cbb1c64391ffcc8c5eca50a4013bd330f06e4099e3ea0277928a6a9c344258e2abd1a623f1dfecac7eea7084211bf310d04e60b9c3ca2257b2aa4abc146278c28bf18603d13f0c4c9e0a9064c1fb13f030ae8059232ac2b7524aaa5cf48298226b1166e3311f2c6cbe2ab044e1db33d0108ea079030ae297726a8a7cd4a2b8024b3146c3117f4c0cde4ad02481bb53b070eec019636a82f7120aea1cb4c2d8622b5126a3715f6c2cfe6af004a19b739050cee039434aa2d7322aca3c94e2f8420b71068351bf8ccc1e8a10e4417b9370b02e00d9a36fa5341e1627eaa8be9d3e8bf22c6e7e323804c56b6b0bf4c328a45bd6d5933e",
        "type": "nulldata"
      }
    }
  ],
  "blockhash": "2622e54cefe9d3081f6ac04e4c67f268d7c1e3313b2268ffede4439aafe1acd1",
  "confirmations": 1,
  "time": 1764177922,
  "blocktime": 1764177922
}