{
  "hex": "01000000000101647a848dd71d57437e88b009ffdb2fcafb0bfc92ea9ffd22ec89a8568455fa940100000000feffffff02e82d307c792d000022512087750fe221b239ef45a129e2c0bd4f5f0543dc9d2f792149e18a00ab6be5527700e1f50500000000fdd5046a20b63f78b32c07fa3bdd45afdd0271d2fb5a63682532be43b182d7326e66a0528b4db00469b6125b97bdb98f092fcffd6d6380d8123c833f42908e48cf2a4e071bc28def4996327bb79d99af290fefdd4d43a0f8321ca31f62b0ae68ef0a6e273be2adcf29f6521bd7fdf9cf496f8fbd2d23c098527cc37f02d0ce088f6a0e475b82cdaf09d6723bf7ddd9ef694faf9d0d03e0b8725ce35f22f0ee28af4a2e677ba2ed8fe93692db173d390f89af4f7dede3005892bc03bfc2100ec84faace879b420d6fc916b2fb371d192fa98f6f5dcdc32078b29c239fe2302ee86f8aeea7bb622d4fa976d29b577d794fc9ef0f3dada34018d2fc43ff82504e880fea8ec7db024d2f8956f2bb775d596fe9cf2f1d8d836038f2dc63dfa2706ea82fcaaee7fb226d0f69b6125b97bdb98f092fcffd6d6380d8123c833f42908e48cf2a4e071bc28def4996327bb79d99af290fefdd4d43a0f8321ca31f62b0ae68ef0a6e273be2adcf29f6521bd7fdf9cf496f8fbd2d23c098527cc37f02d0ce088f6a0e475b82cdaf09d6723bf7ddd9ef694faf9d0d03e0b8725ce35f22f0ee28af4a2e677ba2ed8fe93692db173d390f89af4f7dede3005892bc03bfc2100ec84faace879b420d6fc916b2fb371d192fa98f6f5dcdc32078b29c239fe2302ee86f8aeea7bb622d4fa976d29b577d794fc9ef0f3dada34018d2fc43ff82504e880fea8ec7db024d2f8956f2bb775d596fe9cf2f1d8d836038f2dc63dfa2706ea82fcaaee7fb226d0f69b6125b97bdb98f092fcffd6d6380d8123c833f42908e48cf2a4e071bc28def4996327bb79d99af290fefdd4d43a0f8321ca31f62b0ae68ef0a6e273be2adcf29f6521bd7fdf9cf496f8fbd2d23c098527cc37f02d0ce088f6a0e475b82cdaf09d6723bf7ddd9ef694faf9d0d03e0b8725ce35f22f0ee28af4a2e677ba2ed8fe93692db173d390f89af4f7dede3005892bc03bfc2100ec84faace879b420d6fc916b2fb371d192fa98f6f5dcdc32078b29c239fe2302ee86f8aeea7bb622d4fa976d29b577d794fc9ef0f3dada34018d2fc43ff82504e880fea8ec7db024d2f8956f2bb775d596fe9cf2f1d8d836038f2dc63dfa2706ea82fcaaee7fb226d0f69b6125b97bdb98f092fcffd6d6380d8123c833f42908e48cf2a4e071bc28def4996327bb79d99af290fefdd4d43a0f8321ca31f62b0ae68ef0a6e273be2adcf29f6521bd7fdf9cf496f8fbd2d23c098527cc37f02d0ce088f6a0e475b82cdaf09d6723bf7ddd9ef694faf9d0d03e0b8725ce35f22f0ee28af4a2e677ba2ed8fe93692db173d390f89af4f7dede3005892bc03bfc2100ec84faace879b420d6fc916b2fb371d192fa98f6f5dcdc32078b29c239fe2302ee86f8aeea7bb622d4fa976d29b577d794fc9ef0f3dada34018d2fc43ff82504e880fea8ec7db024d2f8956f2bb775d596fe9cf2f1d8d836038f2dc63dfa2706ea82fcaaee7fb226d0f69b6125b97bdb98f092fcffd6d6380d8123c833f42908e48cf2a4e071bc28def4996327bb79d99af290fefdd4d43a0f8321ca31f62b0ae68ef0a6e273be2adcf29f6521bd7fdf9cf496f8fbd2d23c098527cc37f02d0ce088f6a0e475b82cdaf09d6723bf7ddd9ef694faf9d0d03e0b8725ce35f22f0ee28af4a2e677ba2ed8fe93692db173d390f89af4f7dede3005852b47986e1082d6c94fcd01fc1389829e8f760bd92162c9afb471f5171c7454a02fd7509cc489af4260b8ff1a430e18a862e0a118d9a2abd2354ec09d34bde7db3e2a313d6c6cb7669fce9d4e9c51408b9f5b3f4e584f8354c585ffe898d9301984707f223a764a7e1a7b8f455358f370ca28604faf67507f72a15de9cf3f3059e3e190dfbe7a42a763bcee385163e2be08ce5637df462498f3b92d3c74c4d3bc11a6762ec4c0786e3fe16a0a27e20ea33d9223dd105da36d8a61644d6b75b68a27487bc4c54ae0725bdf53c06f0fba51e351cfefed3749e58471a124b2b70ee0c7bf8fd3b9278408939f8f0ec3dc00d9d6bc87b814990e4b7ad17113102c67a5a5e095d63e12ab715251f784ce542e435e3457d4beaaef7b1b202df9b26f26818a18d3cd27a31ec65f99f685cd049ccca29d0857b4fa4ad829b358e444b3c313f4523f40043da554fddaf2674ec7b7638580c40438f52ad169b0c4cc1d32f5c12c4652ea8bbaf9b6c22bedb61e0ab85d911291bd4d618c60063d837c28a44ea69aba7711d9ed03b47e102337ab7889a1d0cbfa2f3d6bbebf29cfedb6a36e094e891f06cd84abcac095310d56d427ddf4ad2afe25bd0f0c5f24a347843c43a91db6527369457e63057939a9355ceab9d1f3cc772fcda9f64881c26d0533ee8d505ad5f7fe4aaba075df2c7a895e39546ca9f27c91e3430b57bd7e90469aeb7db44be6d8d8a2acce07e8a7605e73e768fbd4c22695a7cf67a74630f13514ae5b7e4bc4763ba64e50859b1a6e3efd34c0d54e8fc6403ecbd6d09ff69ef7272b17b7b631d0a1622cb80fcb111e880d141b81f59b47dc675f74aff32ae7610630afd64b859003d06ceb0fc33a2a5ff25452e33bba270eedeaf9a5be3dd5a60fffbdacb786489cca5f9bd4201879816558b037862fe964114e811608791f3f1ee146f06f862fbc7811be611473cee477d313847cda01773253c3089497fec95a4b77f16abee92a9d0f9ce4d4c6035d71ad49aa37fc8f660dfc773a9eb49500a1ddbc69c4ac41efcb3f1e1d2571e2ef1e348a36c412d4bcefafbcd842e204e8a5af4c20cee913920c82f93e0bec49dbd51610c95e844428e7d9dbff9e7c0c06578ec01722899a11cc1e7907ca74a2f521db392db458db13db10917fc73d7214177af8198d0f4b8aa012fca7182147cde663ba175fdda0e123a0b5322f5f285bbcb43156b4030bb852631c2a5b1ed5ba547fb87aa47b30e288a9abda98b7808563d40fb111b2f40a55f91cfbbe8f41a7b3d574a83d2591f9baf79a9edda195312039dcb24b0cddb8e347b1b1ebbc38f842314a2701b421d7e5dc3985def48609f81317de5604431eb2dd966567fb0ce35fb902297947092ac879a9e52a33a1ed718ef4d06fdaa038da400b8116539a85ba335caba2d21a762507c355d3ecd91b4630df3747726feaf0aa44983f217d96bea74023e51bd6d4f4773b4a66ec68a4e4fec0ecb1c1ca94ab49dbf12a78700dcdb18d43fc3fd215cdbece2a8d9d1ef043893a71bb565ceea12b737a3656745d3416af54eae07a410b69895aa90a37ca5c96c81c328720ae4a46d632f26ecd51fe7027ae848f45748073b3d15fd8cddd4aa9083a3353de59189bf99900fe0ed9e021ac4b7cd40ab5b75796d9c7cb419a26f69d4aec5755638d65778f5dac109caecd3675622f44d0f617b1e0ded01975a4e5839b502906cb1323ca2d3bce174c1d77c0a2d1c7507a470bfae8c327306a1b69ef6025656aca18fdb2c722caff11e4e3712ecc8bffa8673f0a1e2a507608bd9fc4868d6336adac382d4245b441d12c43e294b3bda592c37ea19bfc819c92ccdfe4508de7c4bd803cd3e8fd1ec9768102330d0ec7df585aa82fcd2f570c9554b4a68c73106b37990e1286d288d45d100444877388a23b25bc34da54875b0574c7f7c450a82994b586945f2644ba6efbe5b15aef08a2d8677e6e3353954a27301dfcfd8cd9d1b4d695172dac2120bb7398ed7ed8130d1b0bfb98fa24f3bafe7e556015f57fa753497b0c3727763d25363579027d6b333cb0d71e96cc023b05c3b089d38d9dbbd36fc6cfcc48c7588a57144f8c4ce69766a21c1b8343332a82115a4e0ae2f96e649e21e1d52e0175662b9e3a4ef1a605dfdde3164a33fb5de131e747f26840f1111a19558e3397ee0cf0bfb711d8f2ecc037fcc178e5e9011c6cac677b2858c5e3f4049acbf098b8b30fe1da89b09fdf328652735d26a44947086dae4d50b1bc0b9256881d90f8ad2790a23a463831d667898ab47385d9479741fe4f6fbb072500394d298d8bf92e38d884a6413804b88d88e7523555717cf2dd4409a16d55f0cece9d943807ec6414d27cea4c2a3352a9bea2af1e78e8513dd9c6afd5b9804768fc54097c076f9d04742a1aa932ccbbc3833ff21ad01f79d1394f862f5414f29f0f8076e2e1ee9457581d3e971ad7fbc108762974a6d43e5a2fb9eb749c9f6936cf40b00a24250759dbaf1853491e124c59aa6b9264d43c40b9d21c29d8f6ea003ec8e97cce36406adbc4729cda85b1776b43179208e47c3458a7e1bd071d635cb4ba8b9a910cdd9b41e464c8abda54cf50435fa2a22c441237c2b7ee867267e00091cdda73126447b014a3b699c592360de3ce0fa31611534fd87aac0a8a13c5f6af4db2ec9465cd4906803cb7345cec8396ac51a8391ba58d57948bf3ad8d8b308cdaf5c94e54f8d5eb503049f405ff9e8449019f3045732f860c4cbb28396cc976461ab503ebc424f751f6f4861f645843a8a13996851ed97ac930840122a10f599f246ac7c12a0eadab32b60980a407e51716e7182d2b7db1ea09081b468bf3a101146a3329e1201b1f5f796c711a4f810cd945acc04e982fe2c739794d9bb05a0d6c12196c3e0909c7ba13e5a2060ecde7c8b4cfd5e8b70e632f0f34174de91dd7e98ca3a2950f25a826892f565a27cb8f3cea7660b33d9a7e7ca04871d10b7311e7aa940d9db7484256a6b51afcc6fe1c5c7c4ead255382ec1e54665084ec952cc6ff47c5deb64b89ddcc0eab400a8092bb42a0e3df2a552cff9287e9e7c2e1a926e79e9f4b43e15f786d95c2acfdc31780fc5824fe4c9d31cfcf1064d5901f37bebec92c93ddc4ad51fc9ccb8d72e285b86c96c95b9c883365e82b448439eb2e35cc08b1969921603e2353b30cdc07484d7dffc1808196e844b92eaa35819660efe54a363adbe732d8f03fbec5979e2f14d806ce8710199a41ffa6800b9507ec188327d6a25a14d27af8ce90ed3dc2f521c74457938fccd689efe4162fc6c33fa9a991b6c92c3960a030481dbef33272b64c4e5c29a40748af8ba1863040c2043768a8f949b9fff0613252d2f575f797e8494a8c8e5ecee313c4d535e656772757e9192aeb7bdc5c7ced0dadde0e9042d363e4b5b6d7697a8aeb0d1d9e80000000000000000000000000000000b1b324101fd210500497524cfb0a976f54d6986b3f7bd440d866408cf4c9600cea62b4b8d1fe1a238d10f9752e47b8488531345525e7e7c2aef9a987cce9a4a1b319c9aa78d7bae64d1fda1c1611d2d90a260d97caaabb0678c99b24099e0c7b614aeeb7efb8b677f68dcb66275c1cab1ad75f215313e346de6f5990240b81e6eaf53933353e81747761f6dc99a8f60b6bcf4132c446f294fe794659a8f235d272679afeac2da05ecc7bc69d139c55435b5f3b8dfbe8ac28d085f14fe6c5c8604ef10299341fb240aa9ce1792beb77beb9a44692ed5a78fde23700fecbb8495e32d008d4508e94b49bde4f8b7772f14ad0003c3b0f530fd591d9ac90142402a6e857c929eef864368663a100f3ffe0bd7e2d1bba7ecaa15e6e08d3fa82850deb035863e63eb7f658c560f1c67207415853d830fbca1929a1b6492f29d60280dcb32a8f3afd3bab6b7e9f158edba177817f4b4c2c754b307834f06baf8b8d314f4bdb078042130fbc0c9a1d2bb05826a01423b239a7b5fe1a6ed04af28f1cc87ba88de4f5849a5ac44b2a1e499d6e6040ecf20e2fee6dadc0abd5f15860b412821b3de57bf02f96b3c94a02162b279410df78421ee942e43b55895b2d61b9f08361c2105e96daec6ed722c7a8b7c9f028f4cc459a7e24677d02195cd694592987f19394975d7cdc158c5034644bef74d97cd3939f0f134d4567152fbe838595262a8457898b5d7e684a9e3407149ce582a7d776a6d0a19e62bec9265e3aa46ca3337305ebfa582313a7d2815cd40314c68bc37a190bddba2c8405a3cd63f410410f04f82cca197c59265acb55f2342c3216e0d94ebf2ae918e2ae078ae0c9df996fe1672663d7e4bd66839dbc4a807c4bd6cc96a192de96dbf5fccc40bac5e580fd4d8e92e0c0965731c5fd92f806c6ae40b208cd42ef63ed102a0d6222c545bc2f9ec25875eca115d196d51927881dde58b1d4b72e7125b669dcf95576e07fda18595872be1afd37722f329e8e18e200937db4401d07e10dba7ba99d32e150e87f769e7b9d4ab515fc2813e73fc5c818cf3bebc39784565b597a01ce2c6ab391da3b6e5fd41bbb2093ddc1657f72163badaa800e3ca4abafdf51cab5a3041923773b74e18495fb1c1ab51e15f7d88dee4ddadf586e628efa7ad50a90ccee3e32d40a717ee48d08c4f4d5ab4137a1d516bc46e57c3f396ecb794bbd618102f7d3a4f113b6bb135aed4590c3eaf704ef873170c63930d14f9158d3106af8338bd9b06ef22dbf008bb13fc89a9e7bb9504a54ecfa89761189fafc5007667820e4483bb392fe942ee351d3f1bbde615cbfe1ed4b52c93739b0168a3a3a6dfc9629ee517dc791974a9428db6104054bf86c6df1fd04af5e22f3909279a45fa41b7996deb7a79cd95170374ecbd53343f27ddb576e001602a613ca9626c23f29b64f770ff6b53bc19e9ed0422eab8c6d99516cae67021e8647a2b6bf39c05fcab7bb1d2008df37609a7de04643e943c77cca1841ab15dca3b98de86def64be02ddb642a01879f7fb7ce999b4962d2426b248c6189d841a9c76c10a30b0ae68ea8c345de2b12dd3587cb52b2729bce375a8d552446f4287965112d17a7e8cb74a1aba4fdb7a5ec7f1866d407b34e41a60fa23bc2237c95589242f596beb67b0e96e3006a202aa591a23307889faa6dcde70047c96677d002b9f3dea5b1cb131b5219c0bc0f1b62b0435c467c95a3014ee7fd92e2f06c6053f1079594a2a12b401342e901478ed4dc24db0a8b247140348996ebe68f7d6a03de34e7db3d48b82ac3f3a6bb253d2d2e77249056aa54bfe652d93d871ec26d335c46675b428a1275cf8775a75760df95f90eda8168000000",
  "txid": "8be62363d29baa629ead44d96de256211cdbc243761be5a3bf93492acbd7f098",
  "hash": "49a0bb203fec5863af787cd9d9b4234716cfd869d357ee3b96dd338ba1046028",
  "size": 5085,
  "vsize": 2278,
  "version": 1,
  "locktime": 104,
  "vin": [
    {
      "txid": "94fa558456a889ec22fd9fea92fc0bfbca2fdbff09b0887e43571dd78d847a64",
      "vout": 1,
      "scriptSig": {
        "asm": "",
        "hex": ""
      },
      "txinwitness": [
        "cc489af4260b8ff1a430e18a862e0a118d9a2abd2354ec09d34bde7db3e2a313d6c6cb7669fce9d4e9c51408b9f5b3f4e584f8354c585ffe898d9301984707f223a764a7e1a7b8f455358f370ca28604faf67507f72a15de9cf3f3059e3e190dfbe7a42a763bcee385163e2be08ce5637df462498f3b92d3c74c4d3bc11a6762ec4c0786e3fe16a0a27e20ea33d9223dd105da36d8a61644d6b75b68a27487bc4c54ae0725bdf53c06f0fba51e351cfefed3749e58471a124b2b70ee0c7bf8fd3b9278408939f8f0ec3dc00d9d6bc87b814990e4b7ad17113102c67a5a5e095d63e12ab715251f784ce542e435e3457d4beaaef7b1b202df9b26f26818a18d3cd27a31ec65f99f685cd049ccca29d0857b4fa4ad829b358e444b3c313f4523f40043da554fddaf2674ec7b7638580c40438f52ad169b0c4cc1d32f5c12c4652ea8bbaf9b6c22bedb61e0ab85d911291bd4d618c60063d837c28a44ea69aba7711d9ed03b47e102337ab7889a1d0cbfa2f3d6bbebf29cfedb6a36e094e891f06cd84abcac095310d56d427ddf4ad2afe25bd0f0c5f24a347843c43a91db6527369457e63057939a9355ceab9d1f3cc772fcda9f64881c26d0533ee8d505ad5f7fe4aaba075df2c7a895e39546ca9f27c91e3430b57bd7e90469aeb7db44be6d8d8a2acce07e8a7605e73e768fbd4c22695a7cf67a74630f13514ae5b7e4bc4763ba64e50859b1a6e3efd34c0d54e8fc6403ecbd6d09ff69ef7272b17b7b631d0a1622cb80fcb111e880d141b81f59b47dc675f74aff32ae7610630afd64b859003d06ceb0fc33a2a5ff25452e33bba270eedeaf9a5be3dd5a60fffbdacb786489cca5f9bd4201879816558b037862fe964114e811608791f3f1ee146f06f862fbc7811be611473cee477d313847cda01773253c3089497fec95a4b77f16abee92a9d0f9ce4d4c6035d71ad49aa37fc8f660dfc773a9eb49500a1ddbc69c4ac41efcb3f1e1d2571e2ef1e348a36c412d4bcefafbcd842e204e8a5af4c20cee913920c82f93e0bec49dbd51610c95e844428e7d9dbff9e7c0c06578ec01722899a11cc1e7907ca74a2f521db392db458db13db10917fc73d7214177af8198d0f4b8aa012fca7182147cde663ba175fdda0e123a0b5322f5f285bbcb43156b4030bb852631c2a5b1ed5ba547fb87aa47b30e288a9abda98b7808563d40fb111b2f40a55f91cfbbe8f41a7b3d574a83d2591f9baf79a9edda195312039dcb24b0cddb8e347b1b1ebbc38f842314a2701b421d7e5dc3985def48609f81317de5604431eb2dd966567fb0ce35fb902297947092ac879a9e52a33a1ed718ef4d06fdaa038da400b8116539a85ba335caba2d21a762507c355d3ecd91b4630df3747726feaf0aa44983f217d96bea74023e51bd6d4f4773b4a66ec68a4e4fec0ecb1c1ca94ab49dbf12a78700dcdb18d43fc3fd215cdbece2a8d9d1ef043893a71bb565ceea12b737a3656745d3416af54eae07a410b69895aa90a37ca5c96c81c328720ae4a46d632f26ecd51fe7027ae848f45748073b3d15fd8cddd4aa9083a3353de59189bf99900fe0ed9e021ac4b7cd40ab5b75796d9c7cb419a26f69d4aec5755638d65778f5dac109caecd3675622f44d0f617b1e0ded01975a4e5839b502906cb1323ca2d3bce174c1d77c0a2d1c7507a470bfae8c327306a1b69ef6025656aca18fdb2c722caff11e4e3712ecc8bffa8673f0a1e2a507608bd9fc4868d6336adac382d4245b441d12c43e294b3bda592c37ea19bfc819c92ccdfe4508de7c4bd803cd3e8fd1ec9768102330d0ec7df585aa82fcd2f570c9554b4a68c73106b37990e1286d288d45d100444877388a23b25bc34da54875b0574c7f7c450a82994b586945f2644ba6efbe5b15aef08a2d8677e6e3353954a27301dfcfd8cd9d1b4d695172dac2120bb7398ed7ed8130d1b0bfb98fa24f3bafe7e556015f57fa753497b0c3727763d25363579027d6b333cb0d71e96cc023b05c3b089d38d9dbbd36fc6cfcc48c7588a57144f8c4ce69766a21c1b8343332a82115a4e0ae2f96e649e21e1d52e0175662b9e3a4ef1a605dfdde3164a33fb5de131e747f26840f1111a19558e3397ee0cf0bfb711d8f2ecc037fcc178e5e9011c6cac677b2858c5e3f4049acbf098b8b30fe1da89b09fdf328652735d26a44947086dae4d50b1bc0b9256881d90f8ad2790a23a463831d667898ab47385d9479741fe4f6fbb072500394d298d8bf92e38d884a6413804b88d88e7523555717cf2dd4409a16d55f0cece9d943807ec6414d27cea4c2a3352a9bea2af1e78e8513dd9c6afd5b9804768fc54097c076f9d04742a1aa932ccbbc3833ff21ad01f79d1394f862f5414f29f0f8076e2e1ee9457581d3e971ad7fbc108762974a6d43e5a2fb9eb749c9f6936cf40b00a24250759dbaf1853491e124c59aa6b9264d43c40b9d21c29d8f6ea003ec8e97cce36406adbc4729cda85b1776b43179208e47c3458a7e1bd071d635cb4ba8b9a910cdd9b41e464c8abda54cf50435fa2a22c441237c2b7ee867267e00091cdda73126447b014a3b699c592360de3ce0fa31611534fd87aac0a8a13c5f6af4db2ec9465cd4906803cb7345cec8396ac51a8391ba58d57948bf3ad8d8b308cdaf5c94e54f8d5eb503049f405ff9e8449019f3045732f860c4cbb28396cc976461ab503ebc424f751f6f4861f645843a8a13996851ed97ac930840122a10f599f246ac7c12a0eadab32b60980a407e51716e7182d2b7db1ea09081b468bf3a101146a3329e1201b1f5f796c711a4f810cd945acc04e982fe2c739794d9bb05a0d6c12196c3e0909c7ba13e5a2060ecde7c8b4cfd5e8b70e632f0f34174de91dd7e98ca3a2950f25a826892f565a27cb8f3cea7660b33d9a7e7ca04871d10b7311e7aa940d9db7484256a6b51afcc6fe1c5c7c4ead255382ec1e54665084ec952cc6ff47c5deb64b89ddcc0eab400a8092bb42a0e3df2a552cff9287e9e7c2e1a926e79e9f4b43e15f786d95c2acfdc31780fc5824fe4c9d31cfcf1064d5901f37bebec92c93ddc4ad51fc9ccb8d72e285b86c96c95b9c883365e82b448439eb2e35cc08b1969921603e2353b30cdc07484d7dffc1808196e844b92eaa35819660efe54a363adbe732d8f03fbec5979e2f14d806ce8710199a41ffa6800b9507ec188327d6a25a14d27af8ce90ed3dc2f521c74457938fccd689efe4162fc6c33fa9a991b6c92c3960a030481dbef33272b64c4e5c29a40748af8ba1863040c2043768a8f949b9fff0613252d2f575f797e8494a8c8e5ecee313c4d535e656772757e9192aeb7bdc5c7ced0dadde0e9042d363e4b5b6d7697a8aeb0d1d9e80000000000000000000000000000000b1b324101",
        "00497524cfb0a976f54d6986b3f7bd440d866408cf4c9600cea62b4b8d1fe1a238d10f9752e47b8488531345525e7e7c2aef9a987cce9a4a1b319c9aa78d7bae64d1fda1c1611d2d90a260d97caaabb0678c99b24099e0c7b614aeeb7efb8b677f68dcb66275c1cab1ad75f215313e346de6f5990240b81e6eaf53933353e81747761f6dc99a8f60b6bcf4132c446f294fe794659a8f235d272679afeac2da05ecc7bc69d139c55435b5f3b8dfbe8ac28d085f14fe6c5c8604ef10299341fb240aa9ce1792beb77beb9a44692ed5a78fde23700fecbb8495e32d008d4508e94b49bde4f8b7772f14ad0003c3b0f530fd591d9ac90142402a6e857c929eef864368663a100f3ffe0bd7e2d1bba7ecaa15e6e08d3fa82850deb035863e63eb7f658c560f1c67207415853d830fbca1929a1b6492f29d60280dcb32a8f3afd3bab6b7e9f158edba177817f4b4c2c754b307834f06baf8b8d314f4bdb078042130fbc0c9a1d2bb05826a01423b239a7b5fe1a6ed04af28f1cc87ba88de4f5849a5ac44b2a1e499d6e6040ecf20e2fee6dadc0abd5f15860b412821b3de57bf02f96b3c94a02162b279410df78421ee942e43b55895b2d61b9f08361c2105e96daec6ed722c7a8b7c9f028f4cc459a7e24677d02195cd694592987f19394975d7cdc158c5034644bef74d97cd3939f0f134d4567152fbe838595262a8457898b5d7e684a9e3407149ce582a7d776a6d0a19e62bec9265e3aa46ca3337305ebfa582313a7d2815cd40314c68bc37a190bddba2c8405a3cd63f410410f04f82cca197c59265acb55f2342c3216e0d94ebf2ae918e2ae078ae0c9df996fe1672663d7e4bd66839dbc4a807c4bd6cc96a192de96dbf5fccc40bac5e580fd4d8e92e0c0965731c5fd92f806c6ae40b208cd42ef63ed102a0d6222c545bc2f9ec25875eca115d196d51927881dde58b1d4b72e7125b669dcf95576e07fda18595872be1afd37722f329e8e18e200937db4401d07e10dba7ba99d32e150e87f769e7b9d4ab515fc2813e73fc5c818cf3bebc39784565b597a01ce2c6ab391da3b6e5fd41bbb2093ddc1657f72163badaa800e3ca4abafdf51cab5a3041923773b74e18495fb1c1ab51e15f7d88dee4ddadf586e628efa7ad50a90ccee3e32d40a717ee48d08c4f4d5ab4137a1d516bc46e57c3f396ecb794bbd618102f7d3a4f113b6bb135aed4590c3eaf704ef873170c63930d14f9158d3106af8338bd9b06ef22dbf008bb13fc89a9e7bb9504a54ecfa89761189fafc5007667820e4483bb392fe942ee351d3f1bbde615cbfe1ed4b52c93739b0168a3a3a6dfc9629ee517dc791974a9428db6104054bf86c6df1fd04af5e22f3909279a45fa41b7996deb7a79cd95170374ecbd53343f27ddb576e001602a613ca9626c23f29b64f770ff6b53bc19e9ed0422eab8c6d99516cae67021e8647a2b6bf39c05fcab7bb1d2008df37609a7de04643e943c77cca1841ab15dca3b98de86def64be02ddb642a01879f7fb7ce999b4962d2426b248c6189d841a9c76c10a30b0ae68ea8c345de2b12dd3587cb52b2729bce375a8d552446f4287965112d17a7e8cb74a1aba4fdb7a5ec7f1866d407b34e41a60fa23bc2237c95589242f596beb67b0e96e3006a202aa591a23307889faa6dcde70047c96677d002b9f3dea5b1cb131b5219c0bc0f1b62b0435c467c95a3014ee7fd92e2f06c6053f1079594a2a12b401342e901478ed4dc24db0a8b247140348996ebe68f7d6a03de34e7db3d48b82ac3f3a6bb253d2d2e77249056aa54bfe652d93d871ec26d335c46675b428a1275cf8775a75760df95f90eda81"
      ],
      "sequence": 4294967294
    }
  ],
  "vout": [
    {
      "value": 499997.97825,
      "n": 0,
      "scriptPubKey": {
        "asm": "1 87750fe221b239ef45a129e2c0bd4f5f0543dc9d2f792149e18a00ab6be55277",
        "hex": "512087750fe221b239ef45a129e2c0bd4f5f0543dc9d2f792149e18a00ab6be55277",
        "reqSigs": 1,
        "type": "witness_v1_scripthash",
        "addresses": [
          "3QJmnh"
        ]
      }
    },
    {
      "value": 1.0,
      "n": 1,
      "scriptPubKey": {
        "asm": "OP_RETURN b63f78b32c07fa3bdd45afdd0271d2fb5a63682532be43b182d7326e66a0528b 69b6125b97bdb98f092fcffd6d6380d8123c833f42908e48cf2a4e071bc28def4996327bb79d99af290fefdd4d43a0f8321ca31f62b0ae68ef0a6e273be2adcf29f6521bd7fdf9cf496f8fbd2d23c098527cc37f02d0ce088f6a0e475b82cdaf09d6723bf7ddd9ef694faf9d0d03e0b8725ce35f22f0ee28af4a2e677ba2ed8fe93692db173d390f89af4f7dede3005892bc03bfc2100ec84faace879b420d6fc916b2fb371d192fa98f6f5dcdc32078b29c239fe2302ee86f8aeea7bb622d4fa976d29b577d794fc9ef0f3dada34018d2fc43ff82504e880fea8ec7db024d2f8956f2bb775d596fe9cf2f1d8d836038f2dc63dfa2706ea82fcaaee7fb226d0f69b6125b97bdb98f092fcffd6d6380d8123c833f42908e48cf2a4e071bc28def4996327bb79d99af290fefdd4d43a0f8321ca31f62b0ae68ef0a6e273be2adcf29f6521bd7fdf9cf496f8fbd2d23c098527cc37f02d0ce088f6a0e475b82cdaf09d6723bf7ddd9ef694faf9d0d03e0b8725ce35f22f0ee28af4a2e677ba2ed8fe93692db173d390f89af4f7dede3005892bc03bfc2100ec84faace879b420d6fc916b2fb371d192fa98f6f5dcdc32078b29c239fe2302ee86f8aeea7bb622d4fa976d29b577d794fc9ef0f3dada34018d2fc43ff82504e880fea8ec7db024d2f8956f2bb775d596fe9cf2f1d8d836038f2dc63dfa2706ea82fcaaee7fb226d0f69b6125b97bdb98f092fcffd6d6380d8123c833f42908e48cf2a4e071bc28def4996327bb79d99af290fefdd4d43a0f8321ca31f62b0ae68ef0a6e273be2adcf29f6521bd7fdf9cf496f8fbd2d23c098527cc37f02d0ce088f6a0e475b82cdaf09d6723bf7ddd9ef694faf9d0d03e0b8725ce35f22f0ee28af4a2e677ba2ed8fe93692db173d390f89af4f7dede3005892bc03bfc2100ec84faace879b420d6fc916b2fb371d192fa98f6f5dcdc32078b29c239fe2302ee86f8aeea7bb622d4fa976d29b577d794fc9ef0f3dada34018d2fc43ff82504e880fea8ec7db024d2f8956f2bb775d596fe9cf2f1d8d836038f2dc63dfa2706ea82fcaaee7fb226d0f69b6125b97bdb98f092fcffd6d6380d8123c833f42908e48cf2a4e071bc28def4996327bb79d99af290fefdd4d43a0f8321ca31f62b0ae68ef0a6e273be2adcf29f6521bd7fdf9cf496f8fbd2d23c098527cc37f02d0ce088f6a0e475b82cdaf09d6723bf7ddd9ef694faf9d0d03e0b8725ce35f22f0ee28af4a2e677ba2ed8fe93692db173d390f89af4f7dede3005892bc03bfc2100ec84faace879b420d6fc916b2fb371d192fa98f6f5dcdc32078b29c239fe2302ee86f8aeea7bb622d4fa976d29b577d794fc9ef0f3dada34018d2fc43ff82504e880fea8ec7db024d2f8956f2bb775d596fe9cf2f1d8d836038f2dc63dfa2706ea82fcaaee7fb226d0f69b6125b97bdb98f092fcffd6d6380d8123c833f42908e48cf2a4e071bc28def4996327bb79d99af290fefdd4d43a0f8321ca31f62b0ae68ef0a6e273be2adcf29f6521bd7fdf9cf496f8fbd2d23c098527cc37f02d0ce088f6a0e475b82cdaf09d6723bf7ddd9ef694faf9d0d03e0b8725ce35f22f0ee28af4a2e677ba2ed8fe93692db173d390f89af4f7dede3005852b47986e1082d6c94fcd01fc1389829e8f760bd92162c9afb471f5171c7454a",
        "hex": "6a20b63f78b32c07fa3bdd45afdd0271d2fb5a63682532be43b182d7326e66a0528b4db00469b6125b97bdb98f092fcffd6d6380d8123c833f42908e48cf2a4e071bc28def4996327bb79d99af290fefdd4d43a0f8321ca31f62b0ae68ef0a6e273be2adcf29f6521bd7fdf9cf496f8fbd2d23c098527cc37f02d0ce088f6a0e475b82cdaf09d6723bf7ddd9ef694faf9d0d03e0b8725ce35f22f0ee28af4a2e677ba2ed8fe93692db173d390f89af4f7dede3005892bc03bfc2100ec84faace879b420d6fc916b2fb371d192fa98f6f5dcdc32078b29c239fe2302ee86f8aeea7bb622d4fa976d29b577d794fc9ef0f3dada34018d2fc43ff82504e880fea8ec7db024d2f8956f2bb775d596fe9cf2f1d8d836038f2dc63dfa2706ea82fcaaee7fb226d0f69b6125b97bdb98f092fcffd6d6380d8123c833f42908e48cf2a4e071bc28def4996327bb79d99af290fefdd4d43a0f8321ca31f62b0ae68ef0a6e273be2adcf29f6521bd7fdf9cf496f8fbd2d23c098527cc37f02d0ce088f6a0e475b82cdaf09d6723bf7ddd9ef694faf9d0d03e0b8725ce35f22f0ee28af4a2e677ba2ed8fe93692db173d390f89af4f7dede3005892bc03bfc2100ec84faace879b420d6fc916b2fb371d192fa98f6f5dcdc32078b29c239fe2302ee86f8aeea7bb622d4fa976d29b577d794fc9ef0f3dada34018d2fc43ff82504e880fea8ec7db024d2f8956f2bb775d596fe9cf2f1d8d836038f2dc63dfa2706ea82fcaaee7fb226d0f69b6125b97bdb98f092fcffd6d6380d8123c833f42908e48cf2a4e071bc28def4996327bb79d99af290fefdd4d43a0f8321ca31f62b0ae68ef0a6e273be2adcf29f6521bd7fdf9cf496f8fbd2d23c098527cc37f02d0ce088f6a0e475b82cdaf09d6723bf7ddd9ef694faf9d0d03e0b8725ce35f22f0ee28af4a2e677ba2ed8fe93692db173d390f89af4f7dede3005892bc03bfc2100ec84faace879b420d6fc916b2fb371d192fa98f6f5dcdc32078b29c239fe2302ee86f8aeea7bb622d4fa976d29b577d794fc9ef0f3dada34018d2fc43ff82504e880fea8ec7db024d2f8956f2bb775d596fe9cf2f1d8d836038f2dc63dfa2706ea82fcaaee7fb226d0f69b6125b97bdb98f092fcffd6d6380d8123c833f42908e48cf2a4e071bc28def4996327bb79d99af290fefdd4d43a0f8321ca31f62b0ae68ef0a6e273be2adcf29f6521bd7fdf9cf496f8fbd2d23c098527cc37f02d0ce088f6a0e475b82cdaf09d6723bf7ddd9ef694faf9d0d03e0b8725ce35f22f0ee28af4a2e677ba2ed8fe93692db173d390f89af4f7dede3005892bc03bfc2100ec84faace879b420d6fc916b2fb371d192fa98f6f5dcdc32078b29c239fe2302ee86f8aeea7bb622d4fa976d29b577d794fc9ef0f3dada34018d2fc43ff82504e880fea8ec7db024d2f8956f2bb775d596fe9cf2f1d8d836038f2dc63dfa2706ea82fcaaee7fb226d0f69b6125b97bdb98f092fcffd6d6380d8123c833f42908e48cf2a4e071bc28def4996327bb79d99af290fefdd4d43a0f8321ca31f62b0ae68ef0a6e273be2adcf29f6521bd7fdf9cf496f8fbd2d23c098527cc37f02d0ce088f6a0e475b82cdaf09d6723bf7ddd9ef694faf9d0d03e0b8725ce35f22f0ee28af4a2e677ba2ed8fe93692db173d390f89af4f7dede3005852b47986e1082d6c94fcd01fc1389829e8f760bd92162c9afb471f5171c7454a",
        "type": "nulldata"
      }
    }
  ],
  "blockhash": "32a2d379a33ec88ae1cb3a8a1a44f2d12b76aebf574ecf7ac16b289397ed6cd9",
  "confirmations": 1,
  "time": 1764176557,
  "blocktime": 1764176557
}