{
  "hex": "0100000000010138efa081c41d0b2f2929adc27cbbd25c121d5f766129b9842fe98a03bcf4bb030100000000feffffff02f020b051792d00002251208d303769d228eea9ff8a14768824d8745f5c56396ef36a665871c25e787327c400e1f50500000000fdd5046a205effe728ba659a74f30073289a54b9bcac697e10b3d7f9aea21447ec6fb7846a4db004c978c2a8530bd66f86580fbbd3249671198f5a4e581d65de4929e6959469359ee958e288732bf64fa6782f9bf304b65139af7a6e783d45fe6909c6b5b44915be893882e8134b962fc6184ffb9364d63159cf1a0e185d259e0969a6d5d42975dea918a2c8336bb60fe6386fdbb344f61179ef3a2e387d05be294986f5f40955fe49f84228d38b56ef06d88f3b53a416f1990fdaced89de55ec9a9661514e9b51e69d86208f3ab76cf26f8af1b738436d1b92ffaeef8bdc57ee989463534c9953e09b8026893cb16af4698cf7b13e456b1d94f9a8e98dda51e89e9265554a9f55e29982248b3eb368f66b8ef5b33c47691f96fbaaeb8fd853ea9c906757489d57ec978c2a8530bd66f86580fbbd3249671198f5a4e581d65de4929e6959469359ee958e288732bf64fa6782f9bf304b65139af7a6e783d45fe6909c6b5b44915be893882e8134b962fc6184ffb9364d63159cf1a0e185d259e0969a6d5d42975dea918a2c8336bb60fe6386fdbb344f61179ef3a2e387d05be294986f5f40955fe49f84228d38b56ef06d88f3b53a416f1990fdaced89de55ec9a9661514e9b51e69d86208f3ab76cf26f8af1b738436d1b92ffaeef8bdc57ee989463534c9953e09b8026893cb16af4698cf7b13e456b1d94f9a8e98dda51e89e9265554a9f55e29982248b3eb368f66b8ef5b33c47691f96fbaaeb8fd853ea9c906757489d57ec978c2a8530bd66f86580fbbd3249671198f5a4e581d65de4929e6959469359ee958e288732bf64fa6782f9bf304b65139af7a6e783d45fe6909c6b5b44915be893882e8134b962fc6184ffb9364d63159cf1a0e185d259e0969a6d5d42975dea918a2c8336bb60fe6386fdbb344f61179ef3a2e387d05be294986f5f40955fe49f84228d38b56ef06d88f3b53a416f1990fdaced89de55ec9a9661514e9b51e69d86208f3ab76cf26f8af1b738436d1b92ffaeef8bdc57ee989463534c9953e09b8026893cb16af4698cf7b13e456b1d94f9a8e98dda51e89e9265554a9f55e29982248b3eb368f66b8ef5b33c47691f96fbaaeb8fd853ea9c906757489d57ec978c2a8530bd66f86580fbbd3249671198f5a4e581d65de4929e6959469359ee958e288732bf64fa6782f9bf304b65139af7a6e783d45fe6909c6b5b44915be893882e8134b962fc6184ffb9364d63159cf1a0e185d259e0969a6d5d42975dea918a2c8336bb60fe6386fdbb344f61179ef3a2e387d05be294986f5f40955fe49f84228d38b56ef06d88f3b53a416f1990fdaced89de55ec9a9661514e9b51e69d86208f3ab76cf26f8af1b738436d1b92ffaeef8bdc57ee989463534c9953e09b8026893cb16af4698cf7b13e456b1d94f9a8e98dda51e89e9265554a9f55e29982248b3eb368f66b8ef5b33c47691f96fbaaeb8fd853ea9c906757489d57ec978c2a8530bd66f86580fbbd3249671198f5a4e581d65de4929e6959469359ee958e288732bf64fa6782f9bf304b65139af7a6e783d45fe6909c6b5b44915be893882e8134b962fc6184ffb9364d63159cf1a0e185d259e0969a6d5d42975dea918a2c8336bb60fe6386fdbb344f61179ef3a2e387d05be294986f5f40955fe49f84228d38b56ef06d88f3b53a416f1285b225b02764146cf65b5e775884e8e92d35d783b3648b8fe9073be3181940002fd7509e9e0b0579eff27ae1f4759578a0a02fe3352d5847191a0f9ae7d176ab7acfab69b353976ef8fedc428079a4c785b82e250a5d6687e33be8f58507ed9ecc1f1581326d372136f859ba5ea6c997bd15b9be4fcc3bde04f3423a9f5cb32f5ed3f02a699d01578d9a368fa3d57497ee6a07e6c259e68fe020590a25bc08480765c05a88461b66d31040aea8bd0e7f0c1cb9bcf45e318fc442eddf9c4474a566314ef91c2594afc4430ed44b8291eaa72dbb557af23110f1a6304dd60f5cb943075d03cad3a8e1708ac2ada2f96c83314e565f15efb47869db28c4940501e31215e5dcad2229f110835f8f392dcabd1c036870916109ead47fc7c17c048997bdf7968daacc5508a958bc6211f23764084c1fe53daa60e40712c86c21d28479669c214812365ea70db127796868d372b691e08aed0e4522c0b0aa88a5beabb91e3dbc540094fcbf9ac914d0748d6e4a49dcef5510539464c7a68c053a23ecfa630cf488730902b6b27c3ab2610952b4e1e760e0af091b929d939b85324a5d2594109b954a56bd5b6b5637194b35e441ac7ea4928476767a7995f9ed7dbcad6390a1e86dbc63c1ac8e7a4c2e9ead294de0ae62b335c19a1e4c21cc6adb64c8bf89c41f7ad14fe15d3a24e74ebed53d003665ced6ffab98700416400d1f0e2ebc9bb31c63a72b2690fc26d9e6e993b90daa22598dbdba86eb70ee14d9e082d95e9e7c7313ea7ff38c6ef56214dfdbbd4f0b3dfc15e164000dccab9838ba0dbfa150edaf08a218f349ded86b235f66512a4cde78ee185eb950dd3cc068bbf0855ad2d33673f37ed64fc8491beac4f7fcad7c768fb6c64962b2165e79666f0bdec4db711d0954c5f4e0c613e54237b2e4fa96c0832c7c02dad35366f3340d7166d00758ecf54e4ee9ebae9d1cd3c8963700e603d489b49634a88cb2e45c2a34bf28fa750c44924fedb3c91541cd08a3a16a6532aec693273afbfa3a59bc4b474817d42abbabffe46a63ddc19663949f1c3472b3cdc05cf93fcf1977ccde1751adaf9c89b3bbd50f63686e34cbf981375747d53698cae69fe6c93621889c874c7231ae37c76c30e46c6758c7347170552c85c44a2deedaf6d989ade5780fae97c4abe50bfff8ac998a5921a7487855ecf32f36d71e3fcdcffbae2397b5c8aa38ef8c4b5384ba12464714e5ce9aa6c5e7b490b44ce66f499d28caa9829bb71e26bd3683cfb46ded00873fad3d7d37dde50c5add5c4c3654dfdc95a225045ae2e6d184ddf35dac545e78006dba5861ede63983f275bda9df66917e725d16e2a1aa7f0a898912c005930af06e7928509c187a54d997dfdde1645f23f63c2235d7eee8d0e78901ed136fef6705a396ae2cc1bf12c0e46657fe2a84bb4451df89e5d623b476524101f92c7440452839443e92f9f6127092fc5c2e2621b940d68c0b27bf321b7e541a5aea7258cef0ec3b99c95a3ce948f04113857ad1ebc6d77f57d10dbfb9cd89f0fb28a7ecb11a68b6a766cf010e3301aa8f86a57c820b6f3b69dd0395ad92386b6a6cf821fa863872ab3906bc16a408582697ee1ebdc3b974b5edfbddfb2ae3627c3e6ce8903528cd7b623b184cd5fb661a113bce30499cb459d70a63932f4f59c957b35080fbe4643836addd075851dfb7ca36d53faa9fac279ad52424a0de5f245302087d1633e5705501f483cdd39bc6a4b8d2dbca4d2fef67e01c92f6e136bc65e726feabfae6b797531012286ec88531a17b5985358e66cc959e9fe3f74522d3e068a827f07fdedd7ed31f6792cdd33633ba03a63c0c680a1465f34620cd34c90b72eacf59ec7975c137ee4d2b8918aa3ad40d7c4fee043c1fcb5140bcced7d4ae164f0f65fb5a0abd49cb1704f419c796c776540309d951d6bcc2fa87d27cf71a1c356b631d1f27aec2c426ac82681b2362915bf266affe22a43b2305766ccaca834c1e0cb6cf247a220cd3941e6f6b818eecf44dbec01c2545f54fbac51ba693586ac28342d2efafc0c8ae91993c69646e4bf0a1becf6f2a8008a8b127f12f7033f29a0ba4fabbdf9da955b245c00ce95677f7f0cff080f9ac506a318a93f6c2d83e296e139ea5dcf505c08097272f6ee261adc681cdd194fb87d7d13a0e88f7dca4c20d4077f092877cebafffc0352932c63e81a93c64971c3f168abf13b96d1420eac12d1e8722e7927b62e136601aee5afe0f5326a3beb83f155ba0b895ebed663e0eb7cc865a8660962c69208b21ecdc6372348bc5e45c44743bb2320549605a2eff4703d912095f43ae10e075fbcfd4db003c5c1e007a44eec8fc002abbb86c655bd2f7c9fce231dea60f2caa0db7b24cc504a188824bf22fc1689677073c7e8a4fd9bdb1caebf4f693bd8e865cfc7a5bd32e816c2e263613773173763936a14b72d6f7c5b22847c1e6466ceeaba51cc9fec90691d0a01b04294f1d8799a2003f7be18fb7a5587fba1577fcee9a22c796702d361e0d364315a1163561f29a622f149948a01bdb192fc0b6b178fd76267304419ef89412274b987460b090fb31d8fde8a9075097a4549d5d5635c10d5c13c8303eb413b9e4bd54ca3045ef00546562a931d2ff378256db2076417494d5c5430efc3c24a6f62ab9f39baff03fa5e011f79f178cb3cc0ee6f525321d9093f0ca5e6949fafca8fcf894d9b386a33f710084ef0dac487669396d3f9816b389b826a8d665aab2899a9d915c279c5bfc287888e9304c529b11d9f3aaba689d41c6752a1e6d35b875cc4cdfd8eb467857e0fee6133661323442dc9854dbaa7a82ca39cf6c2a09df6eab2610718a7cfc4533ee0d290340bed13f2038e67957788d674377fafc131ef986a4a0733cde4bf789efb546318fb9e1cf2289d89db90aae260ac93c975433e1f3f85e0e00276853226bcb423ef4c3c5224af4a84aeca2d7a24b061858b4ab68ada1f9c618e4049c07aa95ad75b6b26850dcbc392551afeb364a8050a050d9a843d195377076edf0688618ed004ef3ad30e82c92b6a08780cd8ac1e44c645cd6a28dd41f7e9f808c79e627e295c48695d15a94932f5a4fcca816479e785bb67cfabe1aff7651a224f22bfcb4655f3cddc61881ba33d254773560ed4de07e8503bd7f0ef540b926fb525bd393a0f32fa776bd3071d210cb796e1d554b22c64e10d90c5f8a6d873b48271303d2c3aacd1203d904ea8ce47bd1ffa72588ce30acccb38d6026b722618290089454a51166605c6f105bc9362cd4c37b0b0ef058c32e424c8524d1bdd7eebdb2cc76c5dda20a4dc84b90911d74de38acd67e5744d3a0641400b171f4e717696c3cbd3e7f61e2b3947494a7c82a1a8abc4182627292d5b62636575787d93959aa3b9c7d4e1e2edf4fa0109686a828c8f94d8e1e3e900000000000000000000000000000000000000000c18303c01fd2105000392c7b69e3bf8c23b7cec80917404d1ce746e0337dc7545abffd5310bf2ec1303b7355c2e96cd1ecf77ab699894bb239b13eea3724d69f6ad1b0946eb48b8f49de00f2264891ceb0ea460f205a1f04be6a0b58a922024546be93a2df7766454af3df918eb38b73da079de3a5108230c7ddc5ddd5078a5746e230d54812de5f5d56f9ff117ac6e62e23c50fff3ad043d3c98a6f0ecb2981d1f145c0868c4ad034d52c044c6bab8103fe6d4bb9aeb08dcafb9976cd369c1c58cb844c414ea8de00a6592a34c0f5d09a14b63375dcf2b7a64181cc2214be30eb17d822c15aef1adb914c913fa527ab61fbffee14325f5eca9ca809d87ed87c8c02405ebf47d4bc77f5867f90c3747e776b41ba9bcd30a816fd39775882dcc0861e25f62b321f5626a26a8b1ac104457bc5716a2ea671bda49a1e038d0082fd8e35bf3397b251e11130bb056c574f916a2a401f6876b4369cf3c4f496397ea22bea72b9b40fae1d7e62f4c88985056ff72f20ff1a2753f9967b25de98e0bee5c5b5d227b49be45818ba2fed103d2e7286aafd7d6ac8b449af900677c177a3f95a07b33d63708488beab108cd9e07764b4d4d7a8232716ef0d73e7bc14841606ea36ba0c4561243045ecec884b8f61bc7292e797f9b0075aea1a5c5b02d1235af6d16f47c128069988a8e802b33ffabea509ff2fcd9b951267266d739c6ef6473e70ea39bde769842abb74b79a9f35ecb39307fc4f2940dadcabeb774a453f5eb57ff890dfc641ee4e6c6654699b817989f8ffac1c7a59a2b6ae1496ed28e4a33d0a2c9809f6f5fff27c7eaef6ac34118644684cc584f94817321a1b7b7a5785346baa012691dabd5abfa941d5f3399fccaedc53911899de1adc5b6ab8ab8fbb65463465968adae503a861843dd9b82d72a9fff28fc35242346f009230f6717a8ba9f8bf73f7a565a25d7c19d5679fba350e0ff195e11dbd149cbc647d8847769689f8960c3cf85c59f2788b24abc2444f3b8ba55b41722e43024f5eb9526bb0a28abdcfd9c261d0b2f3a3aba777154967dbc653d7db4d61731fba407d555c87becde6be6fa2ee089708d57facc3d3a20c2510fc9681d6d52a6593801454cf460f56bda7b71c6555fbc6fcb5f4d38851742c6092fba13347db8b27786d3fcbae39b1f824c3fd6586ced6de6071cfc3375f28097584d4df16d03e2af1a1a7f666c626e1103b539ffa7c5ef76c89db3fb6cef1b640e4fd97ca055afbdf042eeb875e75b15f6fb3679c232d79a43ccd499ac1d90089fea2d5bbd8b32010ef2d3853e26857cf475c6cb66dd3c5d71ef40bf243ee2805829d9bc858c21c81daceb3dd1529fa8e0add6fdb1487795c9e207516c081917e43b0afd7b21bb208f2595461e2e3d6140b98a361713b097e7aca482e581123831cd48bfbf7d15decd4349af3de3ea1ba48c1b446904362476259ef89813e4d2f35714c8c16be8d7d30ab2c273450460f528487b44d8eb2a89e120e1d2379a133eac864509416c5a1e03a033ada24104f8bbb55463cec4551698ca625d9d2c064e8b25d6c51ece9861f882283a12b9fce529d2f4e70a6cd9178a840b6c44e6d01f54d4f07d64520d527bd27878776138a662226ee4352839c6576ca6abebf6cd44e0f5c2fc64a10d277f80ddf3fe5e5f4c48c4187cbf0d981c1655b4fe051d939890ef3cadb949935a240293c14d88b7226700098488762b9c4c27967caf45851b106641890dd810d38dda72ec159f6d641631917c91e97f0e0ec65fe1cd96b990c6790091b0c7fcf0d6455d28d968747af2cf7d0792e5be12df89b342ce2852f3ce69c38a0a0588e4cc8044b96d4143aa88d0fa8b16000000",
  "txid": "82686c332cf4047ce46482d93d31942d21be005a93d08da0dfdacf781566b9f9",
  "hash": "b645a1a794aceb8305f46b4d4f7bddd67dda95900553996b092fe7bcca4fdf6a",
  "size": 5085,
  "vsize": 2278,
  "version": 1,
  "locktime": 22,
  "vin": [
    {
      "txid": "03bbf4bc038ae92f84b92961765f1d125cd2bb7cc2ad29292f0b1dc481a0ef38",
      "vout": 1,
      "scriptSig": {
        "asm": "",
        "hex": ""
      },
      "txinwitness": [
        "e9e0b0579eff27ae1f4759578a0a02fe3352d5847191a0f9ae7d176ab7acfab69b353976ef8fedc428079a4c785b82e250a5d6687e33be8f58507ed9ecc1f1581326d372136f859ba5ea6c997bd15b9be4fcc3bde04f3423a9f5cb32f5ed3f02a699d01578d9a368fa3d57497ee6a07e6c259e68fe020590a25bc08480765c05a88461b66d31040aea8bd0e7f0c1cb9bcf45e318fc442eddf9c4474a566314ef91c2594afc4430ed44b8291eaa72dbb557af23110f1a6304dd60f5cb943075d03cad3a8e1708ac2ada2f96c83314e565f15efb47869db28c4940501e31215e5dcad2229f110835f8f392dcabd1c036870916109ead47fc7c17c048997bdf7968daacc5508a958bc6211f23764084c1fe53daa60e40712c86c21d28479669c214812365ea70db127796868d372b691e08aed0e4522c0b0aa88a5beabb91e3dbc540094fcbf9ac914d0748d6e4a49dcef5510539464c7a68c053a23ecfa630cf488730902b6b27c3ab2610952b4e1e760e0af091b929d939b85324a5d2594109b954a56bd5b6b5637194b35e441ac7ea4928476767a7995f9ed7dbcad6390a1e86dbc63c1ac8e7a4c2e9ead294de0ae62b335c19a1e4c21cc6adb64c8bf89c41f7ad14fe15d3a24e74ebed53d003665ced6ffab98700416400d1f0e2ebc9bb31c63a72b2690fc26d9e6e993b90daa22598dbdba86eb70ee14d9e082d95e9e7c7313ea7ff38c6ef56214dfdbbd4f0b3dfc15e164000dccab9838ba0dbfa150edaf08a218f349ded86b235f66512a4cde78ee185eb950dd3cc068bbf0855ad2d33673f37ed64fc8491beac4f7fcad7c768fb6c64962b2165e79666f0bdec4db711d0954c5f4e0c613e54237b2e4fa96c0832c7c02dad35366f3340d7166d00758ecf54e4ee9ebae9d1cd3c8963700e603d489b49634a88cb2e45c2a34bf28fa750c44924fedb3c91541cd08a3a16a6532aec693273afbfa3a59bc4b474817d42abbabffe46a63ddc19663949f1c3472b3cdc05cf93fcf1977ccde1751adaf9c89b3bbd50f63686e34cbf981375747d53698cae69fe6c93621889c874c7231ae37c76c30e46c6758c7347170552c85c44a2deedaf6d989ade5780fae97c4abe50bfff8ac998a5921a7487855ecf32f36d71e3fcdcffbae2397b5c8aa38ef8c4b5384ba12464714e5ce9aa6c5e7b490b44ce66f499d28caa9829bb71e26bd3683cfb46ded00873fad3d7d37dde50c5add5c4c3654dfdc95a225045ae2e6d184ddf35dac545e78006dba5861ede63983f275bda9df66917e725d16e2a1aa7f0a898912c005930af06e7928509c187a54d997dfdde1645f23f63c2235d7eee8d0e78901ed136fef6705a396ae2cc1bf12c0e46657fe2a84bb4451df89e5d623b476524101f92c7440452839443e92f9f6127092fc5c2e2621b940d68c0b27bf321b7e541a5aea7258cef0ec3b99c95a3ce948f04113857ad1ebc6d77f57d10dbfb9cd89f0fb28a7ecb11a68b6a766cf010e3301aa8f86a57c820b6f3b69dd0395ad92386b6a6cf821fa863872ab3906bc16a408582697ee1ebdc3b974b5edfbddfb2ae3627c3e6ce8903528cd7b623b184cd5fb661a113bce30499cb459d70a63932f4f59c957b35080fbe4643836addd075851dfb7ca36d53faa9fac279ad52424a0de5f245302087d1633e5705501f483cdd39bc6a4b8d2dbca4d2fef67e01c92f6e136bc65e726feabfae6b797531012286ec88531a17b5985358e66cc959e9fe3f74522d3e068a827f07fdedd7ed31f6792cdd33633ba03a63c0c680a1465f34620cd34c90b72eacf59ec7975c137ee4d2b8918aa3ad40d7c4fee043c1fcb5140bcced7d4ae164f0f65fb5a0abd49cb1704f419c796c776540309d951d6bcc2fa87d27cf71a1c356b631d1f27aec2c426ac82681b2362915bf266affe22a43b2305766ccaca834c1e0cb6cf247a220cd3941e6f6b818eecf44dbec01c2545f54fbac51ba693586ac28342d2efafc0c8ae91993c69646e4bf0a1becf6f2a8008a8b127f12f7033f29a0ba4fabbdf9da955b245c00ce95677f7f0cff080f9ac506a318a93f6c2d83e296e139ea5dcf505c08097272f6ee261adc681cdd194fb87d7d13a0e88f7dca4c20d4077f092877cebafffc0352932c63e81a93c64971c3f168abf13b96d1420eac12d1e8722e7927b62e136601aee5afe0f5326a3beb83f155ba0b895ebed663e0eb7cc865a8660962c69208b21ecdc6372348bc5e45c44743bb2320549605a2eff4703d912095f43ae10e075fbcfd4db003c5c1e007a44eec8fc002abbb86c655bd2f7c9fce231dea60f2caa0db7b24cc504a188824bf22fc1689677073c7e8a4fd9bdb1caebf4f693bd8e865cfc7a5bd32e816c2e263613773173763936a14b72d6f7c5b22847c1e6466ceeaba51cc9fec90691d0a01b04294f1d8799a2003f7be18fb7a5587fba1577fcee9a22c796702d361e0d364315a1163561f29a622f149948a01bdb192fc0b6b178fd76267304419ef89412274b987460b090fb31d8fde8a9075097a4549d5d5635c10d5c13c8303eb413b9e4bd54ca3045ef00546562a931d2ff378256db2076417494d5c5430efc3c24a6f62ab9f39baff03fa5e011f79f178cb3cc0ee6f525321d9093f0ca5e6949fafca8fcf894d9b386a33f710084ef0dac487669396d3f9816b389b826a8d665aab2899a9d915c279c5bfc287888e9304c529b11d9f3aaba689d41c6752a1e6d35b875cc4cdfd8eb467857e0fee6133661323442dc9854dbaa7a82ca39cf6c2a09df6eab2610718a7cfc4533ee0d290340bed13f2038e67957788d674377fafc131ef986a4a0733cde4bf789efb546318fb9e1cf2289d89db90aae260ac93c975433e1f3f85e0e00276853226bcb423ef4c3c5224af4a84aeca2d7a24b061858b4ab68ada1f9c618e4049c07aa95ad75b6b26850dcbc392551afeb364a8050a050d9a843d195377076edf0688618ed004ef3ad30e82c92b6a08780cd8ac1e44c645cd6a28dd41f7e9f808c79e627e295c48695d15a94932f5a4fcca816479e785bb67cfabe1aff7651a224f22bfcb4655f3cddc61881ba33d254773560ed4de07e8503bd7f0ef540b926fb525bd393a0f32fa776bd3071d210cb796e1d554b22c64e10d90c5f8a6d873b48271303d2c3aacd1203d904ea8ce47bd1ffa72588ce30acccb38d6026b722618290089454a51166605c6f105bc9362cd4c37b0b0ef058c32e424c8524d1bdd7eebdb2cc76c5dda20a4dc84b90911d74de38acd67e5744d3a0641400b171f4e717696c3cbd3e7f61e2b3947494a7c82a1a8abc4182627292d5b62636575787d93959aa3b9c7d4e1e2edf4fa0109686a828c8f94d8e1e3e900000000000000000000000000000000000000000c18303c01",
        "000392c7b69e3bf8c23b7cec80917404d1ce746e0337dc7545abffd5310bf2ec1303b7355c2e96cd1ecf77ab699894bb239b13eea3724d69f6ad1b0946eb48b8f49de00f2264891ceb0ea460f205a1f04be6a0b58a922024546be93a2df7766454af3df918eb38b73da079de3a5108230c7ddc5ddd5078a5746e230d54812de5f5d56f9ff117ac6e62e23c50fff3ad043d3c98a6f0ecb2981d1f145c0868c4ad034d52c044c6bab8103fe6d4bb9aeb08dcafb9976cd369c1c58cb844c414ea8de00a6592a34c0f5d09a14b63375dcf2b7a64181cc2214be30eb17d822c15aef1adb914c913fa527ab61fbffee14325f5eca9ca809d87ed87c8c02405ebf47d4bc77f5867f90c3747e776b41ba9bcd30a816fd39775882dcc0861e25f62b321f5626a26a8b1ac104457bc5716a2ea671bda49a1e038d0082fd8e35bf3397b251e11130bb056c574f916a2a401f6876b4369cf3c4f496397ea22bea72b9b40fae1d7e62f4c88985056ff72f20ff1a2753f9967b25de98e0bee5c5b5d227b49be45818ba2fed103d2e7286aafd7d6ac8b449af900677c177a3f95a07b33d63708488beab108cd9e07764b4d4d7a8232716ef0d73e7bc14841606ea36ba0c4561243045ecec884b8f61bc7292e797f9b0075aea1a5c5b02d1235af6d16f47c128069988a8e802b33ffabea509ff2fcd9b951267266d739c6ef6473e70ea39bde769842abb74b79a9f35ecb39307fc4f2940dadcabeb774a453f5eb57ff890dfc641ee4e6c6654699b817989f8ffac1c7a59a2b6ae1496ed28e4a33d0a2c9809f6f5fff27c7eaef6ac34118644684cc584f94817321a1b7b7a5785346baa012691dabd5abfa941d5f3399fccaedc53911899de1adc5b6ab8ab8fbb65463465968adae503a861843dd9b82d72a9fff28fc35242346f009230f6717a8ba9f8bf73f7a565a25d7c19d5679fba350e0ff195e11dbd149cbc647d8847769689f8960c3cf85c59f2788b24abc2444f3b8ba55b41722e43024f5eb9526bb0a28abdcfd9c261d0b2f3a3aba777154967dbc653d7db4d61731fba407d555c87becde6be6fa2ee089708d57facc3d3a20c2510fc9681d6d52a6593801454cf460f56bda7b71c6555fbc6fcb5f4d38851742c6092fba13347db8b27786d3fcbae39b1f824c3fd6586ced6de6071cfc3375f28097584d4df16d03e2af1a1a7f666c626e1103b539ffa7c5ef76c89db3fb6cef1b640e4fd97ca055afbdf042eeb875e75b15f6fb3679c232d79a43ccd499ac1d90089fea2d5bbd8b32010ef2d3853e26857cf475c6cb66dd3c5d71ef40bf243ee2805829d9bc858c21c81daceb3dd1529fa8e0add6fdb1487795c9e207516c081917e43b0afd7b21bb208f2595461e2e3d6140b98a361713b097e7aca482e581123831cd48bfbf7d15decd4349af3de3ea1ba48c1b446904362476259ef89813e4d2f35714c8c16be8d7d30ab2c273450460f528487b44d8eb2a89e120e1d2379a133eac864509416c5a1e03a033ada24104f8bbb55463cec4551698ca625d9d2c064e8b25d6c51ece9861f882283a12b9fce529d2f4e70a6cd9178a840b6c44e6d01f54d4f07d64520d527bd27878776138a662226ee4352839c6576ca6abebf6cd44e0f5c2fc64a10d277f80ddf3fe5e5f4c48c4187cbf0d981c1655b4fe051d939890ef3cadb949935a240293c14d88b7226700098488762b9c4c27967caf45851b106641890dd810d38dda72ec159f6d641631917c91e97f0e0ec65fe1cd96b990c6790091b0c7fcf0d6455d28d968747af2cf7d0792e5be12df89b342ce2852f3ce69c38a0a0588e4cc8044b96d4143aa88d0fa8b"
      ],
      "sequence": 4294967294
    }
  ],
  "vout": [
    {
      "value": 499990.8479,
      "n": 0,
      "scriptPubKey": {
        "asm": "1 8d303769d228eea9ff8a14768824d8745f5c56396ef36a665871c25e787327c4",
        "hex": "51208d303769d228eea9ff8a14768824d8745f5c56396ef36a665871c25e787327c4",
        "reqSigs": 1,
        "type": "witness_v1_scripthash",
        "addresses": [
          "3QJmnh"
        ]
      }
    },
    {
      "value": 1.0,
      "n": 1,
      "scriptPubKey": {
        "asm": "OP_RETURN 5effe728ba659a74f30073289a54b9bcac697e10b3d7f9aea21447ec6fb7846a c978c2a8530bd66f86580fbbd3249671198f5a4e581d65de4929e6959469359ee958e288732bf64fa6782f9bf304b65139af7a6e783d45fe6909c6b5b44915be893882e8134b962fc6184ffb9364d63159cf1a0e185d259e0969a6d5d42975dea918a2c8336bb60fe6386fdbb344f61179ef3a2e387d05be294986f5f40955fe49f84228d38b56ef06d88f3b53a416f1990fdaced89de55ec9a9661514e9b51e69d86208f3ab76cf26f8af1b738436d1b92ffaeef8bdc57ee989463534c9953e09b8026893cb16af4698cf7b13e456b1d94f9a8e98dda51e89e9265554a9f55e29982248b3eb368f66b8ef5b33c47691f96fbaaeb8fd853ea9c906757489d57ec978c2a8530bd66f86580fbbd3249671198f5a4e581d65de4929e6959469359ee958e288732bf64fa6782f9bf304b65139af7a6e783d45fe6909c6b5b44915be893882e8134b962fc6184ffb9364d63159cf1a0e185d259e0969a6d5d42975dea918a2c8336bb60fe6386fdbb344f61179ef3a2e387d05be294986f5f40955fe49f84228d38b56ef06d88f3b53a416f1990fdaced89de55ec9a9661514e9b51e69d86208f3ab76cf26f8af1b738436d1b92ffaeef8bdc57ee989463534c9953e09b8026893cb16af4698cf7b13e456b1d94f9a8e98dda51e89e9265554a9f55e29982248b3eb368f66b8ef5b33c47691f96fbaaeb8fd853ea9c906757489d57ec978c2a8530bd66f86580fbbd3249671198f5a4e581d65de4929e6959469359ee958e288732bf64fa6782f9bf304b65139af7a6e783d45fe6909c6b5b44915be893882e8134b962fc6184ffb9364d63159cf1a0e185d259e0969a6d5d42975dea918a2c8336bb60fe6386fdbb344f61179ef3a2e387d05be294986f5f40955fe49f84228d38b56ef06d88f3b53a416f1990fdaced89de55ec9a9661514e9b51e69d86208f3ab76cf26f8af1b738436d1b92ffaeef8bdc57ee989463534c9953e09b8026893cb16af4698cf7b13e456b1d94f9a8e98dda51e89e9265554a9f55e29982248b3eb368f66b8ef5b33c47691f96fbaaeb8fd853ea9c906757489d57ec978c2a8530bd66f86580fbbd3249671198f5a4e581d65de4929e6959469359ee958e288732bf64fa6782f9bf304b65139af7a6e783d45fe6909c6b5b44915be893882e8134b962fc6184ffb9364d63159cf1a0e185d259e0969a6d5d42975dea918a2c8336bb60fe6386fdbb344f61179ef3a2e387d05be294986f5f40955fe49f84228d38b56ef06d88f3b53a416f1990fdaced89de55ec9a9661514e9b51e69d86208f3ab76cf26f8af1b738436d1b92ffaeef8bdc57ee989463534c9953e09b8026893cb16af4698cf7b13e456b1d94f9a8e98dda51e89e9265554a9f55e29982248b3eb368f66b8ef5b33c47691f96fbaaeb8fd853ea9c906757489d57ec978c2a8530bd66f86580fbbd3249671198f5a4e581d65de4929e6959469359ee958e288732bf64fa6782f9bf304b65139af7a6e783d45fe6909c6b5b44915be893882e8134b962fc6184ffb9364d63159cf1a0e185d259e0969a6d5d42975dea918a2c8336bb60fe6386fdbb344f61179ef3a2e387d05be294986f5f40955fe49f84228d38b56ef06d88f3b53a416f1285b225b02764146cf65b5e775884e8e92d35d783b3648b8fe9073be31819400",
        "hex": "6a205effe728ba659a74f30073289a54b9bcac697e10b3d7f9aea21447ec6fb7846a4db004c978c2a8530bd66f86580fbbd3249671198f5a4e581d65de4929e6959469359ee958e288732bf64fa6782f9bf304b65139af7a6e783d45fe6909c6b5b44915be893882e8134b962fc6184ffb9364d63159cf1a0e185d259e0969a6d5d42975dea918a2c8336bb60fe6386fdbb344f61179ef3a2e387d05be294986f5f40955fe49f84228d38b56ef06d88f3b53a416f1990fdaced89de55ec9a9661514e9b51e69d86208f3ab76cf26f8af1b738436d1b92ffaeef8bdc57ee989463534c9953e09b8026893cb16af4698cf7b13e456b1d94f9a8e98dda51e89e9265554a9f55e29982248b3eb368f66b8ef5b33c47691f96fbaaeb8fd853ea9c906757489d57ec978c2a8530bd66f86580fbbd3249671198f5a4e581d65de4929e6959469359ee958e288732bf64fa6782f9bf304b65139af7a6e783d45fe6909c6b5b44915be893882e8134b962fc6184ffb9364d63159cf1a0e185d259e0969a6d5d42975dea918a2c8336bb60fe6386fdbb344f61179ef3a2e387d05be294986f5f40955fe49f84228d38b56ef06d88f3b53a416f1990fdaced89de55ec9a9661514e9b51e69d86208f3ab76cf26f8af1b738436d1b92ffaeef8bdc57ee989463534c9953e09b8026893cb16af4698cf7b13e456b1d94f9a8e98dda51e89e9265554a9f55e29982248b3eb368f66b8ef5b33c47691f96fbaaeb8fd853ea9c906757489d57ec978c2a8530bd66f86580fbbd3249671198f5a4e581d65de4929e6959469359ee958e288732bf64fa6782f9bf304b65139af7a6e783d45fe6909c6b5b44915be893882e8134b962fc6184ffb9364d63159cf1a0e185d259e0969a6d5d42975dea918a2c8336bb60fe6386fdbb344f61179ef3a2e387d05be294986f5f40955fe49f84228d38b56ef06d88f3b53a416f1990fdaced89de55ec9a9661514e9b51e69d86208f3ab76cf26f8af1b738436d1b92ffaeef8bdc57ee989463534c9953e09b8026893cb16af4698cf7b13e456b1d94f9a8e98dda51e89e9265554a9f55e29982248b3eb368f66b8ef5b33c47691f96fbaaeb8fd853ea9c906757489d57ec978c2a8530bd66f86580fbbd3249671198f5a4e581d65de4929e6959469359ee958e288732bf64fa6782f9bf304b65139af7a6e783d45fe6909c6b5b44915be893882e8134b962fc6184ffb9364d63159cf1a0e185d259e0969a6d5d42975dea918a2c8336bb60fe6386fdbb344f61179ef3a2e387d05be294986f5f40955fe49f84228d38b56ef06d88f3b53a416f1990fdaced89de55ec9a9661514e9b51e69d86208f3ab76cf26f8af1b738436d1b92ffaeef8bdc57ee989463534c9953e09b8026893cb16af4698cf7b13e456b1d94f9a8e98dda51e89e9265554a9f55e29982248b3eb368f66b8ef5b33c47691f96fbaaeb8fd853ea9c906757489d57ec978c2a8530bd66f86580fbbd3249671198f5a4e581d65de4929e6959469359ee958e288732bf64fa6782f9bf304b65139af7a6e783d45fe6909c6b5b44915be893882e8134b962fc6184ffb9364d63159cf1a0e185d259e0969a6d5d42975dea918a2c8336bb60fe6386fdbb344f61179ef3a2e387d05be294986f5f40955fe49f84228d38b56ef06d88f3b53a416f1285b225b02764146cf65b5e775884e8e92d35d783b3648b8fe9073be31819400",
        "type": "nulldata"
      }
    }
  ],
  "blockhash": "2622e54cefe9d3081f6ac04e4c67f268d7c1e3313b2268ffede4439aafe1acd1",
  "confirmations": 1,
  "time": 1764177922,
  "blocktime": 1764177922
}