{
  "hex": "01000000000101eecca9152a5ba67a7b64b3f9a3b8c27a89af6425e23b1e4de45f8e39d22310c80000000000feffffff0200e1f50500000000fdd5046a2055b07fe33c92b94cdd0b8ba346c667d72983d455daeec6bb1e06ac9deca855c94db004c14aafea1097547045008b88abf279c7a93db989258ffd1e190bd318ca339fcee16a8fca30b774506520aba88bd259e7891d99a905afdd3e392bf338ea13bfee810aefaa50d714300540cbc8ebb23987e97df9c965cfbd5e594b93588a73df8ea12acf8a70f734102560ebe8cb9219a7c95dd9e945ef9d7e796bb378aa53ffae41ca2f6a9017d4f0c5800b082b72f94729bd3909a50f7d9e998b53984ab31f4e61ea0f4ab037f4d0e5a02b280b52d967099d1929852f5dbeb9ab73b86a933f6e018a6f2ad05794b085c04b486b32b90769fd7949e54f3dded9cb13d80af35f0e21aa4f0af077b490a5e06b684b12992749dd5969c56f1dfef9eb33f82ad37f2ec14aafea1097547045008b88abf279c7a93db989258ffd1e190bd318ca339fcee16a8fca30b774506520aba88bd259e7891d99a905afdd3e392bf338ea13bfee810aefaa50d714300540cbc8ebb23987e97df9c965cfbd5e594b93588a73df8ea12acf8a70f734102560ebe8cb9219a7c95dd9e945ef9d7e796bb378aa53ffae41ca2f6a9017d4f0c5800b082b72f94729bd3909a50f7d9e998b53984ab31f4e61ea0f4ab037f4d0e5a02b280b52d967099d1929852f5dbeb9ab73b86a933f6e018a6f2ad05794b085c04b486b32b90769fd7949e54f3dded9cb13d80af35f0e21aa4f0af077b490a5e06b684b12992749dd5969c56f1dfef9eb33f82ad37f2ec14aafea1097547045008b88abf279c7a93db989258ffd1e190bd318ca339fcee16a8fca30b774506520aba88bd259e7891d99a905afdd3e392bf338ea13bfee810aefaa50d714300540cbc8ebb23987e97df9c965cfbd5e594b93588a73df8ea12acf8a70f734102560ebe8cb9219a7c95dd9e945ef9d7e796bb378aa53ffae41ca2f6a9017d4f0c5800b082b72f94729bd3909a50f7d9e998b53984ab31f4e61ea0f4ab037f4d0e5a02b280b52d967099d1929852f5dbeb9ab73b86a933f6e018a6f2ad05794b085c04b486b32b90769fd7949e54f3dded9cb13d80af35f0e21aa4f0af077b490a5e06b684b12992749dd5969c56f1dfef9eb33f82ad37f2ec14aafea1097547045008b88abf279c7a93db989258ffd1e190bd318ca339fcee16a8fca30b774506520aba88bd259e7891d99a905afdd3e392bf338ea13bfee810aefaa50d714300540cbc8ebb23987e97df9c965cfbd5e594b93588a73df8ea12acf8a70f734102560ebe8cb9219a7c95dd9e945ef9d7e796bb378aa53ffae41ca2f6a9017d4f0c5800b082b72f94729bd3909a50f7d9e998b53984ab31f4e61ea0f4ab037f4d0e5a02b280b52d967099d1929852f5dbeb9ab73b86a933f6e018a6f2ad05794b085c04b486b32b90769fd7949e54f3dded9cb13d80af35f0e21aa4f0af077b490a5e06b684b12992749dd5969c56f1dfef9eb33f82ad37f2ec14aafea1097547045008b88abf279c7a93db989258ffd1e190bd318ca339fcee16a8fca30b774506520aba88bd259e7891d99a905afdd3e392bf338ea13bfee810aefaa50d714300540cbc8ebb23987e97df9c965cfbd5e594b93588a73df8ea12acf8a70f734102560ebe8cb9219a7c95dd9e945ef9d7e796bb378aa53ffae41ca2f6a9017d4f0c5800b082b72f947484f936b11e3195b03daf2c59d3ed218fd48a9395ae6cfc3d4bc07a788051b07e07828ba782d000022512081a52d1294c12acce6c6def20ea5dc5fe9002b8a27646406fcd3c357d824a76602fd75099d24726fd6a5f79d06dde498fa573919079e6b9199e9ae1c94e531a864315aadae706a13fb87b87ef70c8973c2077d4606842a8b698ca733bd20d967ff4471113c5ceeedc700271b8061d0f43305b2b1641db795affa6fd00bff9ae90f5ebce020b110260e24aa8087a1a08584b83dd5283240268be300e067064d4a238e3992c4a1a41316ca26d8433dc8408a5fb304cd49501d027ec0f786b1f0cf46695860db522adc9af1cec201558fadb953a20d9b75d67ec03c6ab5a45f8761a7f3e1c05d208b206aa72e2e6c975257a7b99774f575bfc71881b9dbf5e3326cf0b9e3bcacf8b9b60651d409b209d09690db5e43865b7f5809fc707e691e3dcdaacd829200d424f30aeac0c6c8d0d305a0f49212e5c8257672202254b74a4bf1d30c36926ff6dd334a2f84eac3fc832bd35432072f41aafcbd91e977fce45a292d942deb2b7adc819229f85a5ecc1fb053691bfdd84218ac10b2444d3d02968674ecc129f4b4fac175de24c694fd1efe1457dfe18968d8ede60e85e6d355ae0bcfb7055962adbf5c382fc38b1dbc2a641b232d4ea1813cb851931b5126b019bcd2eefa2a09d37e2849f02906b890c8a8058c37599fd4bbe2102d975bf2af54709aace74d3baba4cbc231777c3ab4e7158410a7467c596a1f49a7ab82576a2e4f42b7bfeac1f70e28541cb776d9902223edd1d7711586dd04c253ba7cdac24ab0f31b92dda2db01e1309d3649732842970646e3d13a6fa798346f9567b918ea4c62b49694f8721ee6031b8ea6f09544742e8844b4c57cb19097ee8b1fd484ad52c3be4a9da5b9c3ec3cf17f87e5680d567ce10288e54b606937c70ca66df4f0f665324031dd0aac7e9da1b20c8695ff3d18ae5e394f3b49e1ea0bb4cf1785477c31a69bf00fa492cb5b6d4546d772c80353c0167069267a87bd777942728cf235b796505345814035ba38a1abc5cd624ce667b7fb4cb8e826b05eabf00cbc8154fa4a0ab3b97dfd9a859f634d5796ed0980fa4825c88160146568ff4c44afe1ed90c760cc3d6489f43ccf0b1db3cfa60f057977a050df8cddddae708df0996c1e0c6cee8ac0b40a59f20cd224c05f5a2e8743d089543d516f67794331b24ce6b7363136101c932abf3b1cff7f23eed1805d8e766b8b48418386f1c7ba5f14fdf2de346167f64479c8a402c52dc4feddc3df7e8f8907667365d98f984c9ce494b797492f301d98647a3e72475e2a61c7bf3982dfa768ef3719622ee4cf54ee0a04c48b5ed36aff50efa1a0206f4b97908a876d6fc5756159026deefbd33badf0b980902c99892842c394f80cba73bca72b83fefe6df462e1212823837293bdafb7686f90a21eaf340f2c203df6d80ffc232a92fb37619984749e1fb319e036641c921d3d6c756cda1deccb756b97c311d0a21ee05779e3e0ec0c7713e2fdbc6fabf5855c51315d9c905d401988a56f3932b9561b1e7c6b7342a3f121def5efac966d8337b1258dbc11d879b0c491cd049fa956a4690d93f2fb033518107b39905400514ef1bcccc950b34611a1c877ae2d7efe886a8c910403d64357ef0e9bcf8cbbe3bba3145f4add01a20d7776d2ff1878de07b0c00ecb21a46fc96e06e5f2b10852db3bf3b920dd1c368ac2c9006a1ac8d20fc23e221b45254bf0da92436ff0baf46d09f259d3cdf2a0fa36270990c1ad0252bc52ba85fe4892008985df338ee343ca32942ded9dddfeb519a82f9fd6eb97a3cc33702689252bfa3a01ee6c33d2da6644d9021cbb991d54704ff0b6b2f0031aa4ba9f8831590606e293d45e1b58201ae55337e23401793a67bce2d1b9c787e23ba5fc1a382b6cdadd66f89208bedaeaf52c326d245dfd9fe18fa80785b4d3a4bc3993370f6eaf1f2bdea6b88fb8c3c2238f67df4f910d190e0ca2e9335841d021e081588c8b83cb0892c2504e6682776e18a094c73dd133ac14a50c645d05ae6c2c06193ace948c46c629ff0a0fe3b54b6f3da50613913b20e4c5faa0aaae0e4cf4dff5c8dc688054de5e6906167fec8d6aa49f95c4038712641cc0390beb6b42e5b3c955a14475d4ec3ce9bfb0fd5d00d9664b135e4c43545a5ca32fa74c5c5be185cbbfea5e9d40dc2fa74ad8e2f115230c046d0fb48613a04dd261fcbd4d447df615a8b295c4917b1619015ff062ea6c7a0bfc0ad7d5d3011144411c8f560c3e57698549e10c7fc281ca9b8f229c21fe4566dfb740863ab088073aac5e6bbdaea34c01067e51eba61fabc5c5f649c433b4ac5e7308d69d125d3a23feabae11f23659b73b6ab82fd4e83b9daa7f8a634b0ffcad481e19f66679d08dbd5b69381afbcb5d73a3c9ccbdf0ac4a7b5e36407d359b0eeddb763b80522f25ea306e8b71eb3591db0d616a425a8a7953b62791fdd66e8e1b69c300581e0ef08ff85f0ef29d1fab178489e2cf671f78b89c357d156103dd8ebbc40c875b1824e2cd414b24721d7ca8a86230c93381cc7afaf7c360825aa59649fa4452eb8ddf5519c5e681fc91773e03e821388204dad1df7d6ea594385512155678eaf59b985fb3515e46c064a4b78216b264393cd939b4fede099ecdb61e1f3415fe5ededae37f4891888daabf633bf5881247cdbb362d3358d201c890bd9a7b378b2773501cae763e20c933676aee9f474827dbc567134142d9a9db02811f45601c7b43eaab4a108492e16fb43ef996a316c469d9c30362ac9297d3e2405f69d1e7f4e4a9b4f4427f07faeed000cb5f140b348aa3d735d64ef15d7f7dadb2072a629ea427ee48998e6dd4baee3d7d9f7e0f89c136d47cf87968e0cd01cd50954e0f1fa9d67e00266541c6bb3860270550ce9b08725881096ba04d427f5af554e8893c69bec47b2b513072ee5152994e3fc12b35b382080b7500d42dcfeb93f7072af28e7ee1156083e2527ebb9f68c4d7f929ebde8b7d7cd37b47cee1d33c07d095575fea3496d73597be78c9d3e80558a7fa2f905a68b8f698f33b6fb8cf9d82540d6584c720669ea0f2b7f1ad84c62b46294499fde41ef66fcbe112ba197206b86eb8ae6e97510a74326ca4c72f79c02279fcb61c5205ad9faee2a9c4270979d97507aa7800fdce4eb0058347532b5d5bd1edc4bc973aff0663e708fd5a1093a4248c8eb1916a0913419e0ae4c53fdfcd3db0fa284cd4056f37aeb40e5374f73f39ef3b9c6bb6ac022e8ceb75caae6bf5c7540cab775135296cfa83bf6c1452738ed98d7d7d4983d2b37a41f6d959c18fdf2afa6b4919c1852ffc7e621f4051f7d6fb4437f8d9b8ff3f8c2b43a9f063840af6390b672246010d4b5f7481c2e2f206141a252e383e4e5c63808fa0a6d4eaf40203042c3d464b545658636f777b80a2b4b8bec2dee5f91b252f3034505d767e819b9cb2c3c5c8d2e7eb000000000000000000000000091a314401fd21050014470485df9a60c0eb2e01d0023b3066b1b53eacc4e37d57f4f1dce94971e6efa7c2c2cc03ccbbdaf0434fb082dd3278e56f4b73eb3102b552a14c35a42886ec4d2d12ca84c15c6e0c0437994ae3bf04e406c8fa41152b4b88ba965fd30c5bdc4a3e1bc60ae1c2a0dbcb3e3eb04fdb6bf4d4cd1922737ab42818b5c9bd8636eb532f6d3e58570ee20d946ba6902f2d416597112b956366fc206aaf93ada6caf8a9c691961b74ea22cb2ab6759696f6968d7a60231565e418e13c27c7f0545365ada41413b7a4ded3db9722134fd739f1719aba3063d849801721c2f256261b5e2f8c3f59af48e5b17a9653989465e8820a52dcd658e7ceae3982cfe34c893817d8a174074a3d72da54579ce4587351314c85745c2b52c4252c415bbab7aef9a3ee9b43910fa5ba83ab72147f592e25825617b96a1a638d611d2de51b80c241d3ac5f3c14f83bb3b725081a6f572c82c286892152ba239df513b78473375340e2a1a88082373313b08fa0958693ce456a39c997c4bed9fccb2ab23a4906b98d5cc8c2a49a87912f5b7f809395a07ac77bba75b23f2a60e1e77dd9dd2e9a8fb15b50af686e7cebdac924b482b02043815f1eefc94c2af1c3d92145777f20adabd5acecc76db86a63f3585bade4b281ac6e0ad1ebb38b9db9dd092b6e7831baa61c5bf443faf22b0e962395b2ce2b58605c9f54c325c1f8c8c989332bfbec58343f16f18a9413ba637c3226df529b0ec3efb01e8fa27ac933064e7728b61fee9406d455072af1157b0aa02b2882786af795cd86f4dcfa62984b5e311e63c7ae6d04e58f33096b9e07a599f9e3538986af4d819d4bb05e95bdbe8461d0b902a549f27b9b5306de630b27affc93972c41105cad183a0d3c3b13850e5251fd4adb8773ffb1fae27ebd36401ac516fc6044e07aa8620990385622538c20ec5852e9b5748becb96d9ae7345ca2e4da5b8c8e45b4912ee1b4503cbb94d43e7b8a455a39a2db8c66a8e2130265ab21982edd60e39eef671c5d64093aa5790e5151bc6df5355f72a223c4612ce867bcb30dab313de815a3a3c30113fbe8a5eb0311b01aa2bdc89bc59c6a4d95353f2f3055fb115c337a047a7bb0bf096689b5158b54284ad3d4b1d8276a2f36f6dfe1460b11db06bffd6d788a05fe81625ae17d486fd03aacf09c7936377ebd4228b0c4768e716274fcf9c91e9bbb664905a85cf4eedac502cae967080ef021b73216c0bcef2e7a06f6effc57ea1dfc3ba66aca057f8f3766582bd833cd51bb5a0045a08cf5b9bbba0fc41e3193319b87ce7ba727293d836525b578a3548fd52f6566f024ab8974c7f307eb90275fcaf2de8994073187fe9c13494f0fd00dcd1ff7ebb7d82a250a0264bae4de7c00bb943510f592fec4df090142dc773f8b3e773d6cec5fd5e977b3a099c0c13e553b67c4c2946369b87982f4fe851adeb9b51071d987e4dc79cf17b0aca4b4b14687faee1909100accc725a560976834b9ab797edbb7b5287b867cb55a36e155271adeb06c9d72520634744f6a26618485cccedb64bc667fa5dfa6ca77e5dac7afd4a6c6973cac606719ad7ab511fc3f5521c26aff2c980e61537a2ac8bfcc372a5de03466715b7ee52c70370b001297275a633016f835985ee92f1eedde5b2b5ee4aac085bd058515dbe47224a88b6c266d7d9863e6687b5da5439354d9f8adcc081ef31c4c1768a095343c2556c360847f408ba6059cd16a5222dbaf336be6eb553e2ef8f61b2ab223e4ebd6571152b63c59826c458de9d9fd055ce6998784530d0f8003cebeec33483dba3f99599895a3fa9253b84fce7e48e6e14d299ac00f7008d0d0d285669f338f75000000",
  "txid": "8a24d99778386a29b5a10206582a97a8e02341c73227fab4873c60605c84c96c",
  "hash": "697702bb822e61a228c8133e4e03b274274372dfea24aeead3fc8afc8ceda58b",
  "size": 5085,
  "vsize": 2278,
  "version": 1,
  "locktime": 117,
  "vin": [
    {
      "txid": "c81023d2398e5fe44d1e3be22564af897ac2b8a3f9b3647b7aa65b2a15a9ccee",
      "vout": 0,
      "scriptSig": {
        "asm": "",
        "hex": ""
      },
      "txinwitness": [
        "9d24726fd6a5f79d06dde498fa573919079e6b9199e9ae1c94e531a864315aadae706a13fb87b87ef70c8973c2077d4606842a8b698ca733bd20d967ff4471113c5ceeedc700271b8061d0f43305b2b1641db795affa6fd00bff9ae90f5ebce020b110260e24aa8087a1a08584b83dd5283240268be300e067064d4a238e3992c4a1a41316ca26d8433dc8408a5fb304cd49501d027ec0f786b1f0cf46695860db522adc9af1cec201558fadb953a20d9b75d67ec03c6ab5a45f8761a7f3e1c05d208b206aa72e2e6c975257a7b99774f575bfc71881b9dbf5e3326cf0b9e3bcacf8b9b60651d409b209d09690db5e43865b7f5809fc707e691e3dcdaacd829200d424f30aeac0c6c8d0d305a0f49212e5c8257672202254b74a4bf1d30c36926ff6dd334a2f84eac3fc832bd35432072f41aafcbd91e977fce45a292d942deb2b7adc819229f85a5ecc1fb053691bfdd84218ac10b2444d3d02968674ecc129f4b4fac175de24c694fd1efe1457dfe18968d8ede60e85e6d355ae0bcfb7055962adbf5c382fc38b1dbc2a641b232d4ea1813cb851931b5126b019bcd2eefa2a09d37e2849f02906b890c8a8058c37599fd4bbe2102d975bf2af54709aace74d3baba4cbc231777c3ab4e7158410a7467c596a1f49a7ab82576a2e4f42b7bfeac1f70e28541cb776d9902223edd1d7711586dd04c253ba7cdac24ab0f31b92dda2db01e1309d3649732842970646e3d13a6fa798346f9567b918ea4c62b49694f8721ee6031b8ea6f09544742e8844b4c57cb19097ee8b1fd484ad52c3be4a9da5b9c3ec3cf17f87e5680d567ce10288e54b606937c70ca66df4f0f665324031dd0aac7e9da1b20c8695ff3d18ae5e394f3b49e1ea0bb4cf1785477c31a69bf00fa492cb5b6d4546d772c80353c0167069267a87bd777942728cf235b796505345814035ba38a1abc5cd624ce667b7fb4cb8e826b05eabf00cbc8154fa4a0ab3b97dfd9a859f634d5796ed0980fa4825c88160146568ff4c44afe1ed90c760cc3d6489f43ccf0b1db3cfa60f057977a050df8cddddae708df0996c1e0c6cee8ac0b40a59f20cd224c05f5a2e8743d089543d516f67794331b24ce6b7363136101c932abf3b1cff7f23eed1805d8e766b8b48418386f1c7ba5f14fdf2de346167f64479c8a402c52dc4feddc3df7e8f8907667365d98f984c9ce494b797492f301d98647a3e72475e2a61c7bf3982dfa768ef3719622ee4cf54ee0a04c48b5ed36aff50efa1a0206f4b97908a876d6fc5756159026deefbd33badf0b980902c99892842c394f80cba73bca72b83fefe6df462e1212823837293bdafb7686f90a21eaf340f2c203df6d80ffc232a92fb37619984749e1fb319e036641c921d3d6c756cda1deccb756b97c311d0a21ee05779e3e0ec0c7713e2fdbc6fabf5855c51315d9c905d401988a56f3932b9561b1e7c6b7342a3f121def5efac966d8337b1258dbc11d879b0c491cd049fa956a4690d93f2fb033518107b39905400514ef1bcccc950b34611a1c877ae2d7efe886a8c910403d64357ef0e9bcf8cbbe3bba3145f4add01a20d7776d2ff1878de07b0c00ecb21a46fc96e06e5f2b10852db3bf3b920dd1c368ac2c9006a1ac8d20fc23e221b45254bf0da92436ff0baf46d09f259d3cdf2a0fa36270990c1ad0252bc52ba85fe4892008985df338ee343ca32942ded9dddfeb519a82f9fd6eb97a3cc33702689252bfa3a01ee6c33d2da6644d9021cbb991d54704ff0b6b2f0031aa4ba9f8831590606e293d45e1b58201ae55337e23401793a67bce2d1b9c787e23ba5fc1a382b6cdadd66f89208bedaeaf52c326d245dfd9fe18fa80785b4d3a4bc3993370f6eaf1f2bdea6b88fb8c3c2238f67df4f910d190e0ca2e9335841d021e081588c8b83cb0892c2504e6682776e18a094c73dd133ac14a50c645d05ae6c2c06193ace948c46c629ff0a0fe3b54b6f3da50613913b20e4c5faa0aaae0e4cf4dff5c8dc688054de5e6906167fec8d6aa49f95c4038712641cc0390beb6b42e5b3c955a14475d4ec3ce9bfb0fd5d00d9664b135e4c43545a5ca32fa74c5c5be185cbbfea5e9d40dc2fa74ad8e2f115230c046d0fb48613a04dd261fcbd4d447df615a8b295c4917b1619015ff062ea6c7a0bfc0ad7d5d3011144411c8f560c3e57698549e10c7fc281ca9b8f229c21fe4566dfb740863ab088073aac5e6bbdaea34c01067e51eba61fabc5c5f649c433b4ac5e7308d69d125d3a23feabae11f23659b73b6ab82fd4e83b9daa7f8a634b0ffcad481e19f66679d08dbd5b69381afbcb5d73a3c9ccbdf0ac4a7b5e36407d359b0eeddb763b80522f25ea306e8b71eb3591db0d616a425a8a7953b62791fdd66e8e1b69c300581e0ef08ff85f0ef29d1fab178489e2cf671f78b89c357d156103dd8ebbc40c875b1824e2cd414b24721d7ca8a86230c93381cc7afaf7c360825aa59649fa4452eb8ddf5519c5e681fc91773e03e821388204dad1df7d6ea594385512155678eaf59b985fb3515e46c064a4b78216b264393cd939b4fede099ecdb61e1f3415fe5ededae37f4891888daabf633bf5881247cdbb362d3358d201c890bd9a7b378b2773501cae763e20c933676aee9f474827dbc567134142d9a9db02811f45601c7b43eaab4a108492e16fb43ef996a316c469d9c30362ac9297d3e2405f69d1e7f4e4a9b4f4427f07faeed000cb5f140b348aa3d735d64ef15d7f7dadb2072a629ea427ee48998e6dd4baee3d7d9f7e0f89c136d47cf87968e0cd01cd50954e0f1fa9d67e00266541c6bb3860270550ce9b08725881096ba04d427f5af554e8893c69bec47b2b513072ee5152994e3fc12b35b382080b7500d42dcfeb93f7072af28e7ee1156083e2527ebb9f68c4d7f929ebde8b7d7cd37b47cee1d33c07d095575fea3496d73597be78c9d3e80558a7fa2f905a68b8f698f33b6fb8cf9d82540d6584c720669ea0f2b7f1ad84c62b46294499fde41ef66fcbe112ba197206b86eb8ae6e97510a74326ca4c72f79c02279fcb61c5205ad9faee2a9c4270979d97507aa7800fdce4eb0058347532b5d5bd1edc4bc973aff0663e708fd5a1093a4248c8eb1916a0913419e0ae4c53fdfcd3db0fa284cd4056f37aeb40e5374f73f39ef3b9c6bb6ac022e8ceb75caae6bf5c7540cab775135296cfa83bf6c1452738ed98d7d7d4983d2b37a41f6d959c18fdf2afa6b4919c1852ffc7e621f4051f7d6fb4437f8d9b8ff3f8c2b43a9f063840af6390b672246010d4b5f7481c2e2f206141a252e383e4e5c63808fa0a6d4eaf40203042c3d464b545658636f777b80a2b4b8bec2dee5f91b252f3034505d767e819b9cb2c3c5c8d2e7eb000000000000000000000000091a314401",
        "0014470485df9a60c0eb2e01d0023b3066b1b53eacc4e37d57f4f1dce94971e6efa7c2c2cc03ccbbdaf0434fb082dd3278e56f4b73eb3102b552a14c35a42886ec4d2d12ca84c15c6e0c0437994ae3bf04e406c8fa41152b4b88ba965fd30c5bdc4a3e1bc60ae1c2a0dbcb3e3eb04fdb6bf4d4cd1922737ab42818b5c9bd8636eb532f6d3e58570ee20d946ba6902f2d416597112b956366fc206aaf93ada6caf8a9c691961b74ea22cb2ab6759696f6968d7a60231565e418e13c27c7f0545365ada41413b7a4ded3db9722134fd739f1719aba3063d849801721c2f256261b5e2f8c3f59af48e5b17a9653989465e8820a52dcd658e7ceae3982cfe34c893817d8a174074a3d72da54579ce4587351314c85745c2b52c4252c415bbab7aef9a3ee9b43910fa5ba83ab72147f592e25825617b96a1a638d611d2de51b80c241d3ac5f3c14f83bb3b725081a6f572c82c286892152ba239df513b78473375340e2a1a88082373313b08fa0958693ce456a39c997c4bed9fccb2ab23a4906b98d5cc8c2a49a87912f5b7f809395a07ac77bba75b23f2a60e1e77dd9dd2e9a8fb15b50af686e7cebdac924b482b02043815f1eefc94c2af1c3d92145777f20adabd5acecc76db86a63f3585bade4b281ac6e0ad1ebb38b9db9dd092b6e7831baa61c5bf443faf22b0e962395b2ce2b58605c9f54c325c1f8c8c989332bfbec58343f16f18a9413ba637c3226df529b0ec3efb01e8fa27ac933064e7728b61fee9406d455072af1157b0aa02b2882786af795cd86f4dcfa62984b5e311e63c7ae6d04e58f33096b9e07a599f9e3538986af4d819d4bb05e95bdbe8461d0b902a549f27b9b5306de630b27affc93972c41105cad183a0d3c3b13850e5251fd4adb8773ffb1fae27ebd36401ac516fc6044e07aa8620990385622538c20ec5852e9b5748becb96d9ae7345ca2e4da5b8c8e45b4912ee1b4503cbb94d43e7b8a455a39a2db8c66a8e2130265ab21982edd60e39eef671c5d64093aa5790e5151bc6df5355f72a223c4612ce867bcb30dab313de815a3a3c30113fbe8a5eb0311b01aa2bdc89bc59c6a4d95353f2f3055fb115c337a047a7bb0bf096689b5158b54284ad3d4b1d8276a2f36f6dfe1460b11db06bffd6d788a05fe81625ae17d486fd03aacf09c7936377ebd4228b0c4768e716274fcf9c91e9bbb664905a85cf4eedac502cae967080ef021b73216c0bcef2e7a06f6effc57ea1dfc3ba66aca057f8f3766582bd833cd51bb5a0045a08cf5b9bbba0fc41e3193319b87ce7ba727293d836525b578a3548fd52f6566f024ab8974c7f307eb90275fcaf2de8994073187fe9c13494f0fd00dcd1ff7ebb7d82a250a0264bae4de7c00bb943510f592fec4df090142dc773f8b3e773d6cec5fd5e977b3a099c0c13e553b67c4c2946369b87982f4fe851adeb9b51071d987e4dc79cf17b0aca4b4b14687faee1909100accc725a560976834b9ab797edbb7b5287b867cb55a36e155271adeb06c9d72520634744f6a26618485cccedb64bc667fa5dfa6ca77e5dac7afd4a6c6973cac606719ad7ab511fc3f5521c26aff2c980e61537a2ac8bfcc372a5de03466715b7ee52c70370b001297275a633016f835985ee92f1eedde5b2b5ee4aac085bd058515dbe47224a88b6c266d7d9863e6687b5da5439354d9f8adcc081ef31c4c1768a095343c2556c360847f408ba6059cd16a5222dbaf336be6eb553e2ef8f61b2ab223e4ebd6571152b63c59826c458de9d9fd055ce6998784530d0f8003cebeec33483dba3f99599895a3fa9253b84fce7e48e6e14d299ac00f7008d0d0d285669f338f"
      ],
      "sequence": 4294967294
    }
  ],
  "vout": [
    {
      "value": 1.0,
      "n": 0,
      "scriptPubKey": {
        "asm": "OP_RETURN 55b07fe33c92b94cdd0b8ba346c667d72983d455daeec6bb1e06ac9deca855c9 c14aafea1097547045008b88abf279c7a93db989258ffd1e190bd318ca339fcee16a8fca30b774506520aba88bd259e7891d99a905afdd3e392bf338ea13bfee810aefaa50d714300540cbc8ebb23987e97df9c965cfbd5e594b93588a73df8ea12acf8a70f734102560ebe8cb9219a7c95dd9e945ef9d7e796bb378aa53ffae41ca2f6a9017d4f0c5800b082b72f94729bd3909a50f7d9e998b53984ab31f4e61ea0f4ab037f4d0e5a02b280b52d967099d1929852f5dbeb9ab73b86a933f6e018a6f2ad05794b085c04b486b32b90769fd7949e54f3dded9cb13d80af35f0e21aa4f0af077b490a5e06b684b12992749dd5969c56f1dfef9eb33f82ad37f2ec14aafea1097547045008b88abf279c7a93db989258ffd1e190bd318ca339fcee16a8fca30b774506520aba88bd259e7891d99a905afdd3e392bf338ea13bfee810aefaa50d714300540cbc8ebb23987e97df9c965cfbd5e594b93588a73df8ea12acf8a70f734102560ebe8cb9219a7c95dd9e945ef9d7e796bb378aa53ffae41ca2f6a9017d4f0c5800b082b72f94729bd3909a50f7d9e998b53984ab31f4e61ea0f4ab037f4d0e5a02b280b52d967099d1929852f5dbeb9ab73b86a933f6e018a6f2ad05794b085c04b486b32b90769fd7949e54f3dded9cb13d80af35f0e21aa4f0af077b490a5e06b684b12992749dd5969c56f1dfef9eb33f82ad37f2ec14aafea1097547045008b88abf279c7a93db989258ffd1e190bd318ca339fcee16a8fca30b774506520aba88bd259e7891d99a905afdd3e392bf338ea13bfee810aefaa50d714300540cbc8ebb23987e97df9c965cfbd5e594b93588a73df8ea12acf8a70f734102560ebe8cb9219a7c95dd9e945ef9d7e796bb378aa53ffae41ca2f6a9017d4f0c5800b082b72f94729bd3909a50f7d9e998b53984ab31f4e61ea0f4ab037f4d0e5a02b280b52d967099d1929852f5dbeb9ab73b86a933f6e018a6f2ad05794b085c04b486b32b90769fd7949e54f3dded9cb13d80af35f0e21aa4f0af077b490a5e06b684b12992749dd5969c56f1dfef9eb33f82ad37f2ec14aafea1097547045008b88abf279c7a93db989258ffd1e190bd318ca339fcee16a8fca30b774506520aba88bd259e7891d99a905afdd3e392bf338ea13bfee810aefaa50d714300540cbc8ebb23987e97df9c965cfbd5e594b93588a73df8ea12acf8a70f734102560ebe8cb9219a7c95dd9e945ef9d7e796bb378aa53ffae41ca2f6a9017d4f0c5800b082b72f94729bd3909a50f7d9e998b53984ab31f4e61ea0f4ab037f4d0e5a02b280b52d967099d1929852f5dbeb9ab73b86a933f6e018a6f2ad05794b085c04b486b32b90769fd7949e54f3dded9cb13d80af35f0e21aa4f0af077b490a5e06b684b12992749dd5969c56f1dfef9eb33f82ad37f2ec14aafea1097547045008b88abf279c7a93db989258ffd1e190bd318ca339fcee16a8fca30b774506520aba88bd259e7891d99a905afdd3e392bf338ea13bfee810aefaa50d714300540cbc8ebb23987e97df9c965cfbd5e594b93588a73df8ea12acf8a70f734102560ebe8cb9219a7c95dd9e945ef9d7e796bb378aa53ffae41ca2f6a9017d4f0c5800b082b72f947484f936b11e3195b03daf2c59d3ed218fd48a9395ae6cfc3d4bc07a788051b07",
        "hex": "6a2055b07fe33c92b94cdd0b8ba346c667d72983d455daeec6bb1e06ac9deca855c94db004c14aafea1097547045008b88abf279c7a93db989258ffd1e190bd318ca339fcee16a8fca30b774506520aba88bd259e7891d99a905afdd3e392bf338ea13bfee810aefaa50d714300540cbc8ebb23987e97df9c965cfbd5e594b93588a73df8ea12acf8a70f734102560ebe8cb9219a7c95dd9e945ef9d7e796bb378aa53ffae41ca2f6a9017d4f0c5800b082b72f94729bd3909a50f7d9e998b53984ab31f4e61ea0f4ab037f4d0e5a02b280b52d967099d1929852f5dbeb9ab73b86a933f6e018a6f2ad05794b085c04b486b32b90769fd7949e54f3dded9cb13d80af35f0e21aa4f0af077b490a5e06b684b12992749dd5969c56f1dfef9eb33f82ad37f2ec14aafea1097547045008b88abf279c7a93db989258ffd1e190bd318ca339fcee16a8fca30b774506520aba88bd259e7891d99a905afdd3e392bf338ea13bfee810aefaa50d714300540cbc8ebb23987e97df9c965cfbd5e594b93588a73df8ea12acf8a70f734102560ebe8cb9219a7c95dd9e945ef9d7e796bb378aa53ffae41ca2f6a9017d4f0c5800b082b72f94729bd3909a50f7d9e998b53984ab31f4e61ea0f4ab037f4d0e5a02b280b52d967099d1929852f5dbeb9ab73b86a933f6e018a6f2ad05794b085c04b486b32b90769fd7949e54f3dded9cb13d80af35f0e21aa4f0af077b490a5e06b684b12992749dd5969c56f1dfef9eb33f82ad37f2ec14aafea1097547045008b88abf279c7a93db989258ffd1e190bd318ca339fcee16a8fca30b774506520aba88bd259e7891d99a905afdd3e392bf338ea13bfee810aefaa50d714300540cbc8ebb23987e97df9c965cfbd5e594b93588a73df8ea12acf8a70f734102560ebe8cb9219a7c95dd9e945ef9d7e796bb378aa53ffae41ca2f6a9017d4f0c5800b082b72f94729bd3909a50f7d9e998b53984ab31f4e61ea0f4ab037f4d0e5a02b280b52d967099d1929852f5dbeb9ab73b86a933f6e018a6f2ad05794b085c04b486b32b90769fd7949e54f3dded9cb13d80af35f0e21aa4f0af077b490a5e06b684b12992749dd5969c56f1dfef9eb33f82ad37f2ec14aafea1097547045008b88abf279c7a93db989258ffd1e190bd318ca339fcee16a8fca30b774506520aba88bd259e7891d99a905afdd3e392bf338ea13bfee810aefaa50d714300540cbc8ebb23987e97df9c965cfbd5e594b93588a73df8ea12acf8a70f734102560ebe8cb9219a7c95dd9e945ef9d7e796bb378aa53ffae41ca2f6a9017d4f0c5800b082b72f94729bd3909a50f7d9e998b53984ab31f4e61ea0f4ab037f4d0e5a02b280b52d967099d1929852f5dbeb9ab73b86a933f6e018a6f2ad05794b085c04b486b32b90769fd7949e54f3dded9cb13d80af35f0e21aa4f0af077b490a5e06b684b12992749dd5969c56f1dfef9eb33f82ad37f2ec14aafea1097547045008b88abf279c7a93db989258ffd1e190bd318ca339fcee16a8fca30b774506520aba88bd259e7891d99a905afdd3e392bf338ea13bfee810aefaa50d714300540cbc8ebb23987e97df9c965cfbd5e594b93588a73df8ea12acf8a70f734102560ebe8cb9219a7c95dd9e945ef9d7e796bb378aa53ffae41ca2f6a9017d4f0c5800b082b72f947484f936b11e3195b03daf2c59d3ed218fd48a9395ae6cfc3d4bc07a788051b07",
        "type": "nulldata"
      }
    },
    {
      "value": 499965.4254,
      "n": 1,
      "scriptPubKey": {
        "asm": "1 81a52d1294c12acce6c6def20ea5dc5fe9002b8a27646406fcd3c357d824a766",
        "hex": "512081a52d1294c12acce6c6def20ea5dc5fe9002b8a27646406fcd3c357d824a766",
        "reqSigs": 1,
        "type": "witness_v1_scripthash",
        "addresses": [
          "3QJmnh"
        ]
      }
    }
  ],
  "blockhash": "2dfbfbf9a9b6a37d5bbaa2d3fd41803f08650e7d63861427b8d0526132d1543b",
  "confirmations": 1,
  "time": 1764182436,
  "blocktime": 1764182436
}