{
  "hex": "0100000000010104bf1ad94feb33d2e9767b65c99082e9dd0bbc6211b639dfb5b42db634b65b9d0000000000feffffff02c075fe6f792d0000225120e1a0f068b0b5e039d895574a92b473e235fcc17107331340db2a14d095d8339c00e1f50500000000fdd5046a208815561545853cfd4955bf53da361ea07dab3a7dcb55c3b836436b4bad7f3a5d4db004d74ad5c4519db1ae2d8397cba548d54d13fd0027927178478a1a272dd40ccc38f76af5e471bd918e0da3b7eb8568f56d33dd2007b2515867aa3a070df42cec18970a958411ddf1ee6dc3d78be508950d53bd4067d2313807ca5a676d944c8c78b72ab5a431fdd1ce4de3f7abc528b52d739d6047f2111827ea7a474db46cac5857ca5544d11d312ead03174b25c855cd937d80a712f1f8c70a9aa7ad548c4cb877ea7564f13d110e8d23376b05e875edb35da08732d1d8e72aba878d74ac6c98178a1504915d716eed43570b6588158dd33dc0e752b1b8874adae7ed14cc0cf837aa3524b17d514ecd63772b45a835adf31de0c7729198a76afac7cd34ec2cd8d74ad5c4519db1ae2d8397cba548d54d13fd0027927178478a1a272dd40ccc38f76af5e471bd918e0da3b7eb8568f56d33dd2007b2515867aa3a070df42cec18970a958411ddf1ee6dc3d78be508950d53bd4067d2313807ca5a676d944c8c78b72ab5a431fdd1ce4de3f7abc528b52d739d6047f2111827ea7a474db46cac5857ca5544d11d312ead03174b25c855cd937d80a712f1f8c70a9aa7ad548c4cb877ea7564f13d110e8d23376b05e875edb35da08732d1d8e72aba878d74ac6c98178a1504915d716eed43570b6588158dd33dc0e752b1b8874adae7ed14cc0cf837aa3524b17d514ecd63772b45a835adf31de0c7729198a76afac7cd34ec2cd8d74ad5c4519db1ae2d8397cba548d54d13fd0027927178478a1a272dd40ccc38f76af5e471bd918e0da3b7eb8568f56d33dd2007b2515867aa3a070df42cec18970a958411ddf1ee6dc3d78be508950d53bd4067d2313807ca5a676d944c8c78b72ab5a431fdd1ce4de3f7abc528b52d739d6047f2111827ea7a474db46cac5857ca5544d11d312ead03174b25c855cd937d80a712f1f8c70a9aa7ad548c4cb877ea7564f13d110e8d23376b05e875edb35da08732d1d8e72aba878d74ac6c98178a1504915d716eed43570b6588158dd33dc0e752b1b8874adae7ed14cc0cf837aa3524b17d514ecd63772b45a835adf31de0c7729198a76afac7cd34ec2cd8d74ad5c4519db1ae2d8397cba548d54d13fd0027927178478a1a272dd40ccc38f76af5e471bd918e0da3b7eb8568f56d33dd2007b2515867aa3a070df42cec18970a958411ddf1ee6dc3d78be508950d53bd4067d2313807ca5a676d944c8c78b72ab5a431fdd1ce4de3f7abc528b52d739d6047f2111827ea7a474db46cac5857ca5544d11d312ead03174b25c855cd937d80a712f1f8c70a9aa7ad548c4cb877ea7564f13d110e8d23376b05e875edb35da08732d1d8e72aba878d74ac6c98178a1504915d716eed43570b6588158dd33dc0e752b1b8874adae7ed14cc0cf837aa3524b17d514ecd63772b45a835adf31de0c7729198a76afac7cd34ec2cd8d74ad5c4519db1ae2d8397cba548d54d13fd0027927178478a1a272dd40ccc38f76af5e471bd918e0da3b7eb8568f56d33dd2007b2515867aa3a070df42cec18970a958411ddf1ee6dc3d78be508950d53bd4067d2313807ca5a676d944c8c78b72ab5a431fdd1ce4de3f7abc528b52d739d6047f2111827ea7a474db46cac5857ca5544d11d312ead03174b25c855cdef9ab832c54c74355bb3e4979db87c691b9e78448e9387fb479c1d8a277159af02fd750957c049769fd29c586a0ccbfe4ab00242095274627854d5ab5af82103cb7bc8908ea2a8c42cc0331ff965e5d40049d03d85bae30029bc3057b332f203b417d63c5ff2c5071d4fa5af4e93ae1fee79bef0b2782687ac7867fa946f895082c62f5a5766a03e26e7b0e91939743efb49e462e697bd4a5545b99d9ac841988b4daa499b920b7744f22dd61f37b123491cda710aaba679c67c25098e171b9789b497018ab9e12e1ea4a27d054ccc7b01ca7c2b375c5ca3ad83972880f86dbb6f5fd4e7c11c1cda7da4b6a8f5f6d218966fbc6834261b7cebb3320fee19cf3b8e881e0bbc5cce8bfb9c8954cac4a5890f06091952916643959435793945be3eb4ce329d7cdb7a4fd6ccafec435f853c2f8492748d501d51475973af1cb9c50b4c88ab5d3dae718df58805a5a061fd38a9614409e0f4369837d2c9c9fa1366b96a5948d122390ab4067f3fdeb894fc40d1f6563ac3792579d021cd890f81abcbfbc3d59e3169c1aa1967e375808d5c71cd65bf7c1e103a1365f6766ae5b3f63f6d169ba9a7b838fed0ee036b2d96329ba9f5ed41dcb6f4db101fbecff62136bced604b9e51bf5251dc0f4a915f393b8f3fa98100d9dbc5fce1fe7b73916da7035bb72432d2a061f935f15bea04372e1d673fbf3e263e16b5cafb390c73b10d03b62a11dd2ade98b179215732e7ad80c42588d6ea1204277a7e1a1be481ed398877e82945baaa3f3ab37fb1c3933c14911cd1a501b69b98b96e847b352edb7a4016c2174c62c792f7f027b813572c5e5aad90ecca651d86867dd18331c4c2013158c3fb213fbbfb9ca070764063bfc3e97b28fb301947af7be90f5bbe4974d669ec6b31657e78af23d51fc91adc047acc6b2e6ec3d758f3fa3dd754bdd47649ffa034183dd5b16665aefed2d15cbf90ff63479a6b34f8ca4d8e44f1ec30611740ff61579f8beeb4f4187b2d29e8148c7218c5e870035cb637fb4e8ac9e886c42cc4ac6e2022c66f373434525194dc7e0a74764cac49a5ccfae02907a497f7ea5ba06a35c02d8aed0951b7ea1fb4476a370fa29da5e255f91460798220858e6dadc0b8de4a0c7b06e789a5b723c6511e04157ffac0a8769a6862c6fa41d4ab03c3b1a006dc2d9a3342bda1049b795156992f5ce51c9bcb5d14229f0c4fd32fdd2d27412c25f65cc61f0841bdbf94841c534ecc7490c79dfc9f2330f1319450c81e56f4d9f7c746b4c117f20746ffa266557973644896ea845c4b99941a4b99dd60b98d1cfb553ce17179246f5e7a78a96c1111eec187ee805ce337652700ff49b76b4e2bc99bdd1a356ec3ecec2656342879e278fc6d072f82f84c488145ec92be2f7432990dcb0746546fb2365f609395ebab9b62b7a53c8249f6d76ae5ae5384701be30b987a3cced84b5d6bfea42583ab9e8def0e9783d4d7dc3302bdace5cec13fee5708105287f929a1953312b0b7052c1da66d6d3a78b1d3504879c216a735f2539fbc189b5ba491f66a4c5bf82a545687e7ef6d047349aa924a8f229bb056f53c1cbc27c9409dc765fc42330cc1a0336cebde038fd94722a9ab9106572fc587b48249b11ce744ade5874f8cc3fdd8c2f68635163feb0aabaac2cea86dc764f1f5367f0ddcef1c76356865eb4c7569d40feab3260fdb51d3d16cdc6c83a39624d6f83b0b4488c1612e73cbfe8bf5a01e44d6bd8b20d9f1852f15c97cef6d43421b1b1f82534cc2fb02c297eb37e568708cfa3e732b940b6f2b91012657ef9ea24c97e130866f3686e8c4f16739e1318fb9b0a93f7ccb9f6042600d57a49157331e6bce82ec25b13d96c14ea60cabd5197b6a8bc8c6978e84480ec9db1851fc9823a491eb4754eed652a5b759b3adb1adfc9ee4ae1460ded0fdb9e5a6ba1fe2e0bf74021661c5de45b9f402ece4e456b3375966b3bd16f999edd4ebdff12c96bc3fc982541d62b885e382f511d1b6d27911404cb84de923104a6acd0dcd3a0cf6092baa310d71f737c1018131be5e4ca81666835923d87f600a7b7318a390b2f3a4cd7fe0108269550f3e5aef252a43429a869046733e492b891a66339e1504ff1ac8e644de24891bc60290ab37f75d3054d11bd4c76c36f376411629bead4c7f355a44e1eac7edf4d28fe5cc9b8b7ec321d2082d98679160b06f7c5c401135e38d877c77c0dde2cd230e908888357615bc16d87184fe487794742d51f1ee535d0c7882baa6be425d5bf0e9db0634f8c22b4d3755b49a65110cb6bf263d389f54e9c265752ce7cb0e6d9a9891c07faf979f4a8d7197ca505e7c889ac981585c3279be5c22b7afe94d40de20c21c46d03115c7bf547fdef5a566286a3324532e720de909be8d44ff6a3d26f908e922aa8ccaee00cee91f1bf3a0eb1b3cb43572c47e527586c83464cdf41ffa1845bc6d4cb0785745a1c4ca60c287a659b7dcf1564589575572b1b95c9ba826405726c3ac2583ecca3ed0bb7e916c38fc130f7973e0b4c478e9db81c77ab724d5c7528d8b6e195c68106198cf52720dc2026839a6f1c789239c8baf8e600737edea2c05a1c672e4ab4f962d735ee7d77bfeb3e3ff52bb81e4455ca99c7020f0b49a6ac854584e8b702927b13d11a8c02069582b1547ca57679a537ce13fcfaaa3444c894a69b978526c83763b1e3972357a4e3b67e5d2a6b43bad4b87e2cfc469fc59d9b4e7969b6695a4df4009caaea6194d5b8d44cdc4620cd5d2b404e15a2892ba0ce35476413e3eb68134e5c9f85887e0456ae1f570cbb850c6a6158a1cd6dca9de2e86935c32f615317bd7978b808f0d2766318b74c5c0a0b89cee7cd901554b1e421b0b7e48a98565614adda6189410e997d9cac4cd77efa0db575f9df8268badc7333ebceb87f6c662804ad0303ab69a97a0f1347ef374fa93a954d8158b233d8935dcbb8ebd9df2f315cbdeb8e5c9901f4e62e83d56fe83cfb06d0877dceea55fcb2f7545f3443514c9bf13d65c7cde54fb7480ad3faad219da4c9e8dc8db26de5373072254a98a839c6ca0174e63313f9a836c5f7af34ff26199df7755b9eb65f4d900e769955da5b28c2bb7bbfbadc0440eef8719a0355d1347a5e005593656902bef5dce4f8cde1194631785d85b47fd5830d34c7b69dfa8dc4ebb905614b4ab24a6e494023e0111d01761744a9c5d809f71fdc4e7a8db86a84d31a51da72edb17833525d1dda31dd8bc6930c8deab1734eb72335a61bc4188b56d403577f19f94ee8d7adb26c901a8dbdba1f5010016b68b01cb7200c025b5bcfd579445250382bf9680be28e07b8e7f2f8fde793d7acd020e101d465a5b676e8a92afc4dce0e7f2fc2d2f30525a5f83879fb1bccdd10811455c61636470768196a5a6bfc1db0b181d1f2f3e595f72757f8791b2b7d3dfe3000000000000000000000000000000121f2f4101fd2105009284106d65a8e08b296b8ac1647bc0e9034f960f0f19d74c22860db5d9a9eadde3432c1f45c41879146ddc36f4dfdd0d37bc50b394d576d95028546a22192ed07354bb3cd7c296370fa3cdff65c79e9c02e3cb3e827aa097964298815b4d890fb7a89fff8d244290252f51a67a25085f32905dbaeb52329c3da4f186d60030c1aa54f3c068ee9dc1885a659d1a5c435bb2502bdaf4626b12d97a312f9555672e290f7fb45da3f8760cf8761c0e6ed5e6a93bad75fd52e4d94422785791f64daaa21216133728ca04cf9f80c65ae464ff43ff546ff5480633cae653add3acb018e25ca6518a8c703c2f96689f395f35dd44aad489fa780cdaecfe0614725d3409ee065fc5dca8e200fec62582ea2027b94c0bff318126b2baaa98677ca248915621e642d6fa1eb3e26546de6f3c4ef0732a29e87ea606b10d088b66151a0a4aef9382f476091e77590cf69fd1df23ed29f44038bc94a57d6a05a0eb6cf766484910b2c579069e95ae2531b6c6feeb11071802ae86ecfbdf0c31cbd6ae9557d7c11ae9496ae06138306fb68a10fce16cd08c824267d42b8426e6c02c17d2953c84dba98ffd1446a76b5e89f09ba9a73726cc48e220931f1865096eccfb8c743dd4da7bad108f15227d690bb113808c6b30bca241c5e4d55a661f7bffa8a431b843e6e41a916963a17b50465a927fb6477f1790c64aa083b23994f4e15e39d9d4505c8393aed9780017f6755561d4fdad0e609925a84cf44890958c90fadf538d5a49b8a567e1220ce7c35a069220e393a54f35bb4abe234e9bc8a860edf8a84c150b58c5f87b8807364a5f9a20536fb8c0de4a498475d48d4a65c2a3474d9befe6411a0c25bb725fbc05c8b67868a9d7bd6719acceabfa55fe4e298b3d06da44fba96e659fab87c9245a58d95bb9c8b1f8041b9f5173255656559d2b9601898b1c35b763e59cd01c1edf394aaa8460ab6f4a1b3d4fd6d60e147f8b7d52ce2f28b7cc2bf6d41aa5d3e676868154e16f27df5428fdd6d50cf4927048d42b65dd04c997a796d0450ce20d581877c5af029ed81a2b28883086ec02d262b2ead9b7c3fad94c31c615813d70db607c592b684eb35a62fe3af50b64e651f5687392ac3d9e126e8b83f3d589c1fc3cf432e75d7e783e7673499ee43b04be1824191d7746e350d00ebe478e3c1a39943cd2c4cfc1a0805eeebacdb291ff1e7b6da8f8ae902d3e3109178dccc43890aa59122596c8495e4a902c13f546a7c95c4edb601d2acd3a32c663138dbbfb748cb858f1541a184baeb9fba5c88f5692085359750317f0db9ef0f994bbd17f2571a212a18665b71f65f1f523f72531c05d55722b8a0fa17be798f310ba04fa081edf1076c2fe63c0a0cc00ee247d18a8da3d963c9ad550878472de2b3aeb7831d735aae2aec31cd3e6d8eb78f917e3d657e7eb32208d205f92b9c7eef3cc7bfe01a85b57cb2b82349c777beda72abb1ebe026f5179aafe54c7d2f4d35fc8c5273b97ddf80b2873200db872944ae4c4cf995c2694cc879d00fd78f9299d6df7804d6d21816f167efb276afedad0518394bf8281fc4c8e6ed5236b1ac776b79d5a7432f09523725f7e2946c8f9440526cae713644741719474145fb720bf14e069a4dd90d6dabefa22de0fb0492b595489dbfb5df987605dec6017750e8bc726c664c08f1d913f3565682c2f4b27a8582792fb1937bcc650492a049816ce25ea4811934a1bf1e566f13fe2dd56c1345d9c78344ae6d56f704ee00f1c50df7211b3e67a589499d4c9d1b1976575d54aef7604e722979013f420ef20aac1978d12d43a22c936b539e533b420465144d7ae8e53ae958cf3258f67000000",
  "txid": "814700e7a8ea763a5fcc40f8a97955936bf56e3cae122bbee8698afc28a194c8",
  "hash": "9ea6f96341039eda880d22d7c51b331e3007e1ab9cbe605acacfbbfba74a8446",
  "size": 5085,
  "vsize": 2278,
  "version": 1,
  "locktime": 103,
  "vin": [
    {
      "txid": "9d5bb634b62db4b5df39b61162bc0bdde98290c9657b76e9d233eb4fd91abf04",
      "vout": 0,
      "scriptSig": {
        "asm": "",
        "hex": ""
      },
      "txinwitness": [
        "57c049769fd29c586a0ccbfe4ab00242095274627854d5ab5af82103cb7bc8908ea2a8c42cc0331ff965e5d40049d03d85bae30029bc3057b332f203b417d63c5ff2c5071d4fa5af4e93ae1fee79bef0b2782687ac7867fa946f895082c62f5a5766a03e26e7b0e91939743efb49e462e697bd4a5545b99d9ac841988b4daa499b920b7744f22dd61f37b123491cda710aaba679c67c25098e171b9789b497018ab9e12e1ea4a27d054ccc7b01ca7c2b375c5ca3ad83972880f86dbb6f5fd4e7c11c1cda7da4b6a8f5f6d218966fbc6834261b7cebb3320fee19cf3b8e881e0bbc5cce8bfb9c8954cac4a5890f06091952916643959435793945be3eb4ce329d7cdb7a4fd6ccafec435f853c2f8492748d501d51475973af1cb9c50b4c88ab5d3dae718df58805a5a061fd38a9614409e0f4369837d2c9c9fa1366b96a5948d122390ab4067f3fdeb894fc40d1f6563ac3792579d021cd890f81abcbfbc3d59e3169c1aa1967e375808d5c71cd65bf7c1e103a1365f6766ae5b3f63f6d169ba9a7b838fed0ee036b2d96329ba9f5ed41dcb6f4db101fbecff62136bced604b9e51bf5251dc0f4a915f393b8f3fa98100d9dbc5fce1fe7b73916da7035bb72432d2a061f935f15bea04372e1d673fbf3e263e16b5cafb390c73b10d03b62a11dd2ade98b179215732e7ad80c42588d6ea1204277a7e1a1be481ed398877e82945baaa3f3ab37fb1c3933c14911cd1a501b69b98b96e847b352edb7a4016c2174c62c792f7f027b813572c5e5aad90ecca651d86867dd18331c4c2013158c3fb213fbbfb9ca070764063bfc3e97b28fb301947af7be90f5bbe4974d669ec6b31657e78af23d51fc91adc047acc6b2e6ec3d758f3fa3dd754bdd47649ffa034183dd5b16665aefed2d15cbf90ff63479a6b34f8ca4d8e44f1ec30611740ff61579f8beeb4f4187b2d29e8148c7218c5e870035cb637fb4e8ac9e886c42cc4ac6e2022c66f373434525194dc7e0a74764cac49a5ccfae02907a497f7ea5ba06a35c02d8aed0951b7ea1fb4476a370fa29da5e255f91460798220858e6dadc0b8de4a0c7b06e789a5b723c6511e04157ffac0a8769a6862c6fa41d4ab03c3b1a006dc2d9a3342bda1049b795156992f5ce51c9bcb5d14229f0c4fd32fdd2d27412c25f65cc61f0841bdbf94841c534ecc7490c79dfc9f2330f1319450c81e56f4d9f7c746b4c117f20746ffa266557973644896ea845c4b99941a4b99dd60b98d1cfb553ce17179246f5e7a78a96c1111eec187ee805ce337652700ff49b76b4e2bc99bdd1a356ec3ecec2656342879e278fc6d072f82f84c488145ec92be2f7432990dcb0746546fb2365f609395ebab9b62b7a53c8249f6d76ae5ae5384701be30b987a3cced84b5d6bfea42583ab9e8def0e9783d4d7dc3302bdace5cec13fee5708105287f929a1953312b0b7052c1da66d6d3a78b1d3504879c216a735f2539fbc189b5ba491f66a4c5bf82a545687e7ef6d047349aa924a8f229bb056f53c1cbc27c9409dc765fc42330cc1a0336cebde038fd94722a9ab9106572fc587b48249b11ce744ade5874f8cc3fdd8c2f68635163feb0aabaac2cea86dc764f1f5367f0ddcef1c76356865eb4c7569d40feab3260fdb51d3d16cdc6c83a39624d6f83b0b4488c1612e73cbfe8bf5a01e44d6bd8b20d9f1852f15c97cef6d43421b1b1f82534cc2fb02c297eb37e568708cfa3e732b940b6f2b91012657ef9ea24c97e130866f3686e8c4f16739e1318fb9b0a93f7ccb9f6042600d57a49157331e6bce82ec25b13d96c14ea60cabd5197b6a8bc8c6978e84480ec9db1851fc9823a491eb4754eed652a5b759b3adb1adfc9ee4ae1460ded0fdb9e5a6ba1fe2e0bf74021661c5de45b9f402ece4e456b3375966b3bd16f999edd4ebdff12c96bc3fc982541d62b885e382f511d1b6d27911404cb84de923104a6acd0dcd3a0cf6092baa310d71f737c1018131be5e4ca81666835923d87f600a7b7318a390b2f3a4cd7fe0108269550f3e5aef252a43429a869046733e492b891a66339e1504ff1ac8e644de24891bc60290ab37f75d3054d11bd4c76c36f376411629bead4c7f355a44e1eac7edf4d28fe5cc9b8b7ec321d2082d98679160b06f7c5c401135e38d877c77c0dde2cd230e908888357615bc16d87184fe487794742d51f1ee535d0c7882baa6be425d5bf0e9db0634f8c22b4d3755b49a65110cb6bf263d389f54e9c265752ce7cb0e6d9a9891c07faf979f4a8d7197ca505e7c889ac981585c3279be5c22b7afe94d40de20c21c46d03115c7bf547fdef5a566286a3324532e720de909be8d44ff6a3d26f908e922aa8ccaee00cee91f1bf3a0eb1b3cb43572c47e527586c83464cdf41ffa1845bc6d4cb0785745a1c4ca60c287a659b7dcf1564589575572b1b95c9ba826405726c3ac2583ecca3ed0bb7e916c38fc130f7973e0b4c478e9db81c77ab724d5c7528d8b6e195c68106198cf52720dc2026839a6f1c789239c8baf8e600737edea2c05a1c672e4ab4f962d735ee7d77bfeb3e3ff52bb81e4455ca99c7020f0b49a6ac854584e8b702927b13d11a8c02069582b1547ca57679a537ce13fcfaaa3444c894a69b978526c83763b1e3972357a4e3b67e5d2a6b43bad4b87e2cfc469fc59d9b4e7969b6695a4df4009caaea6194d5b8d44cdc4620cd5d2b404e15a2892ba0ce35476413e3eb68134e5c9f85887e0456ae1f570cbb850c6a6158a1cd6dca9de2e86935c32f615317bd7978b808f0d2766318b74c5c0a0b89cee7cd901554b1e421b0b7e48a98565614adda6189410e997d9cac4cd77efa0db575f9df8268badc7333ebceb87f6c662804ad0303ab69a97a0f1347ef374fa93a954d8158b233d8935dcbb8ebd9df2f315cbdeb8e5c9901f4e62e83d56fe83cfb06d0877dceea55fcb2f7545f3443514c9bf13d65c7cde54fb7480ad3faad219da4c9e8dc8db26de5373072254a98a839c6ca0174e63313f9a836c5f7af34ff26199df7755b9eb65f4d900e769955da5b28c2bb7bbfbadc0440eef8719a0355d1347a5e005593656902bef5dce4f8cde1194631785d85b47fd5830d34c7b69dfa8dc4ebb905614b4ab24a6e494023e0111d01761744a9c5d809f71fdc4e7a8db86a84d31a51da72edb17833525d1dda31dd8bc6930c8deab1734eb72335a61bc4188b56d403577f19f94ee8d7adb26c901a8dbdba1f5010016b68b01cb7200c025b5bcfd579445250382bf9680be28e07b8e7f2f8fde793d7acd020e101d465a5b676e8a92afc4dce0e7f2fc2d2f30525a5f83879fb1bccdd10811455c61636470768196a5a6bfc1db0b181d1f2f3e595f72757f8791b2b7d3dfe3000000000000000000000000000000121f2f4101",
        "009284106d65a8e08b296b8ac1647bc0e9034f960f0f19d74c22860db5d9a9eadde3432c1f45c41879146ddc36f4dfdd0d37bc50b394d576d95028546a22192ed07354bb3cd7c296370fa3cdff65c79e9c02e3cb3e827aa097964298815b4d890fb7a89fff8d244290252f51a67a25085f32905dbaeb52329c3da4f186d60030c1aa54f3c068ee9dc1885a659d1a5c435bb2502bdaf4626b12d97a312f9555672e290f7fb45da3f8760cf8761c0e6ed5e6a93bad75fd52e4d94422785791f64daaa21216133728ca04cf9f80c65ae464ff43ff546ff5480633cae653add3acb018e25ca6518a8c703c2f96689f395f35dd44aad489fa780cdaecfe0614725d3409ee065fc5dca8e200fec62582ea2027b94c0bff318126b2baaa98677ca248915621e642d6fa1eb3e26546de6f3c4ef0732a29e87ea606b10d088b66151a0a4aef9382f476091e77590cf69fd1df23ed29f44038bc94a57d6a05a0eb6cf766484910b2c579069e95ae2531b6c6feeb11071802ae86ecfbdf0c31cbd6ae9557d7c11ae9496ae06138306fb68a10fce16cd08c824267d42b8426e6c02c17d2953c84dba98ffd1446a76b5e89f09ba9a73726cc48e220931f1865096eccfb8c743dd4da7bad108f15227d690bb113808c6b30bca241c5e4d55a661f7bffa8a431b843e6e41a916963a17b50465a927fb6477f1790c64aa083b23994f4e15e39d9d4505c8393aed9780017f6755561d4fdad0e609925a84cf44890958c90fadf538d5a49b8a567e1220ce7c35a069220e393a54f35bb4abe234e9bc8a860edf8a84c150b58c5f87b8807364a5f9a20536fb8c0de4a498475d48d4a65c2a3474d9befe6411a0c25bb725fbc05c8b67868a9d7bd6719acceabfa55fe4e298b3d06da44fba96e659fab87c9245a58d95bb9c8b1f8041b9f5173255656559d2b9601898b1c35b763e59cd01c1edf394aaa8460ab6f4a1b3d4fd6d60e147f8b7d52ce2f28b7cc2bf6d41aa5d3e676868154e16f27df5428fdd6d50cf4927048d42b65dd04c997a796d0450ce20d581877c5af029ed81a2b28883086ec02d262b2ead9b7c3fad94c31c615813d70db607c592b684eb35a62fe3af50b64e651f5687392ac3d9e126e8b83f3d589c1fc3cf432e75d7e783e7673499ee43b04be1824191d7746e350d00ebe478e3c1a39943cd2c4cfc1a0805eeebacdb291ff1e7b6da8f8ae902d3e3109178dccc43890aa59122596c8495e4a902c13f546a7c95c4edb601d2acd3a32c663138dbbfb748cb858f1541a184baeb9fba5c88f5692085359750317f0db9ef0f994bbd17f2571a212a18665b71f65f1f523f72531c05d55722b8a0fa17be798f310ba04fa081edf1076c2fe63c0a0cc00ee247d18a8da3d963c9ad550878472de2b3aeb7831d735aae2aec31cd3e6d8eb78f917e3d657e7eb32208d205f92b9c7eef3cc7bfe01a85b57cb2b82349c777beda72abb1ebe026f5179aafe54c7d2f4d35fc8c5273b97ddf80b2873200db872944ae4c4cf995c2694cc879d00fd78f9299d6df7804d6d21816f167efb276afedad0518394bf8281fc4c8e6ed5236b1ac776b79d5a7432f09523725f7e2946c8f9440526cae713644741719474145fb720bf14e069a4dd90d6dabefa22de0fb0492b595489dbfb5df987605dec6017750e8bc726c664c08f1d913f3565682c2f4b27a8582792fb1937bcc650492a049816ce25ea4811934a1bf1e566f13fe2dd56c1345d9c78344ae6d56f704ee00f1c50df7211b3e67a589499d4c9d1b1976575d54aef7604e722979013f420ef20aac1978d12d43a22c936b539e533b420465144d7ae8e53ae958cf3258f"
      ],
      "sequence": 4294967294
    }
  ],
  "vout": [
    {
      "value": 499995.9324,
      "n": 0,
      "scriptPubKey": {
        "asm": "1 e1a0f068b0b5e039d895574a92b473e235fcc17107331340db2a14d095d8339c",
        "hex": "5120e1a0f068b0b5e039d895574a92b473e235fcc17107331340db2a14d095d8339c",
        "reqSigs": 1,
        "type": "witness_v1_scripthash",
        "addresses": [
          "3QJmnh"
        ]
      }
    },
    {
      "value": 1.0,
      "n": 1,
      "scriptPubKey": {
        "asm": "OP_RETURN 8815561545853cfd4955bf53da361ea07dab3a7dcb55c3b836436b4bad7f3a5d d74ad5c4519db1ae2d8397cba548d54d13fd0027927178478a1a272dd40ccc38f76af5e471bd918e0da3b7eb8568f56d33dd2007b2515867aa3a070df42cec18970a958411ddf1ee6dc3d78be508950d53bd4067d2313807ca5a676d944c8c78b72ab5a431fdd1ce4de3f7abc528b52d739d6047f2111827ea7a474db46cac5857ca5544d11d312ead03174b25c855cd937d80a712f1f8c70a9aa7ad548c4cb877ea7564f13d110e8d23376b05e875edb35da08732d1d8e72aba878d74ac6c98178a1504915d716eed43570b6588158dd33dc0e752b1b8874adae7ed14cc0cf837aa3524b17d514ecd63772b45a835adf31de0c7729198a76afac7cd34ec2cd8d74ad5c4519db1ae2d8397cba548d54d13fd0027927178478a1a272dd40ccc38f76af5e471bd918e0da3b7eb8568f56d33dd2007b2515867aa3a070df42cec18970a958411ddf1ee6dc3d78be508950d53bd4067d2313807ca5a676d944c8c78b72ab5a431fdd1ce4de3f7abc528b52d739d6047f2111827ea7a474db46cac5857ca5544d11d312ead03174b25c855cd937d80a712f1f8c70a9aa7ad548c4cb877ea7564f13d110e8d23376b05e875edb35da08732d1d8e72aba878d74ac6c98178a1504915d716eed43570b6588158dd33dc0e752b1b8874adae7ed14cc0cf837aa3524b17d514ecd63772b45a835adf31de0c7729198a76afac7cd34ec2cd8d74ad5c4519db1ae2d8397cba548d54d13fd0027927178478a1a272dd40ccc38f76af5e471bd918e0da3b7eb8568f56d33dd2007b2515867aa3a070df42cec18970a958411ddf1ee6dc3d78be508950d53bd4067d2313807ca5a676d944c8c78b72ab5a431fdd1ce4de3f7abc528b52d739d6047f2111827ea7a474db46cac5857ca5544d11d312ead03174b25c855cd937d80a712f1f8c70a9aa7ad548c4cb877ea7564f13d110e8d23376b05e875edb35da08732d1d8e72aba878d74ac6c98178a1504915d716eed43570b6588158dd33dc0e752b1b8874adae7ed14cc0cf837aa3524b17d514ecd63772b45a835adf31de0c7729198a76afac7cd34ec2cd8d74ad5c4519db1ae2d8397cba548d54d13fd0027927178478a1a272dd40ccc38f76af5e471bd918e0da3b7eb8568f56d33dd2007b2515867aa3a070df42cec18970a958411ddf1ee6dc3d78be508950d53bd4067d2313807ca5a676d944c8c78b72ab5a431fdd1ce4de3f7abc528b52d739d6047f2111827ea7a474db46cac5857ca5544d11d312ead03174b25c855cd937d80a712f1f8c70a9aa7ad548c4cb877ea7564f13d110e8d23376b05e875edb35da08732d1d8e72aba878d74ac6c98178a1504915d716eed43570b6588158dd33dc0e752b1b8874adae7ed14cc0cf837aa3524b17d514ecd63772b45a835adf31de0c7729198a76afac7cd34ec2cd8d74ad5c4519db1ae2d8397cba548d54d13fd0027927178478a1a272dd40ccc38f76af5e471bd918e0da3b7eb8568f56d33dd2007b2515867aa3a070df42cec18970a958411ddf1ee6dc3d78be508950d53bd4067d2313807ca5a676d944c8c78b72ab5a431fdd1ce4de3f7abc528b52d739d6047f2111827ea7a474db46cac5857ca5544d11d312ead03174b25c855cdef9ab832c54c74355bb3e4979db87c691b9e78448e9387fb479c1d8a277159af",
        "hex": "6a208815561545853cfd4955bf53da361ea07dab3a7dcb55c3b836436b4bad7f3a5d4db004d74ad5c4519db1ae2d8397cba548d54d13fd0027927178478a1a272dd40ccc38f76af5e471bd918e0da3b7eb8568f56d33dd2007b2515867aa3a070df42cec18970a958411ddf1ee6dc3d78be508950d53bd4067d2313807ca5a676d944c8c78b72ab5a431fdd1ce4de3f7abc528b52d739d6047f2111827ea7a474db46cac5857ca5544d11d312ead03174b25c855cd937d80a712f1f8c70a9aa7ad548c4cb877ea7564f13d110e8d23376b05e875edb35da08732d1d8e72aba878d74ac6c98178a1504915d716eed43570b6588158dd33dc0e752b1b8874adae7ed14cc0cf837aa3524b17d514ecd63772b45a835adf31de0c7729198a76afac7cd34ec2cd8d74ad5c4519db1ae2d8397cba548d54d13fd0027927178478a1a272dd40ccc38f76af5e471bd918e0da3b7eb8568f56d33dd2007b2515867aa3a070df42cec18970a958411ddf1ee6dc3d78be508950d53bd4067d2313807ca5a676d944c8c78b72ab5a431fdd1ce4de3f7abc528b52d739d6047f2111827ea7a474db46cac5857ca5544d11d312ead03174b25c855cd937d80a712f1f8c70a9aa7ad548c4cb877ea7564f13d110e8d23376b05e875edb35da08732d1d8e72aba878d74ac6c98178a1504915d716eed43570b6588158dd33dc0e752b1b8874adae7ed14cc0cf837aa3524b17d514ecd63772b45a835adf31de0c7729198a76afac7cd34ec2cd8d74ad5c4519db1ae2d8397cba548d54d13fd0027927178478a1a272dd40ccc38f76af5e471bd918e0da3b7eb8568f56d33dd2007b2515867aa3a070df42cec18970a958411ddf1ee6dc3d78be508950d53bd4067d2313807ca5a676d944c8c78b72ab5a431fdd1ce4de3f7abc528b52d739d6047f2111827ea7a474db46cac5857ca5544d11d312ead03174b25c855cd937d80a712f1f8c70a9aa7ad548c4cb877ea7564f13d110e8d23376b05e875edb35da08732d1d8e72aba878d74ac6c98178a1504915d716eed43570b6588158dd33dc0e752b1b8874adae7ed14cc0cf837aa3524b17d514ecd63772b45a835adf31de0c7729198a76afac7cd34ec2cd8d74ad5c4519db1ae2d8397cba548d54d13fd0027927178478a1a272dd40ccc38f76af5e471bd918e0da3b7eb8568f56d33dd2007b2515867aa3a070df42cec18970a958411ddf1ee6dc3d78be508950d53bd4067d2313807ca5a676d944c8c78b72ab5a431fdd1ce4de3f7abc528b52d739d6047f2111827ea7a474db46cac5857ca5544d11d312ead03174b25c855cd937d80a712f1f8c70a9aa7ad548c4cb877ea7564f13d110e8d23376b05e875edb35da08732d1d8e72aba878d74ac6c98178a1504915d716eed43570b6588158dd33dc0e752b1b8874adae7ed14cc0cf837aa3524b17d514ecd63772b45a835adf31de0c7729198a76afac7cd34ec2cd8d74ad5c4519db1ae2d8397cba548d54d13fd0027927178478a1a272dd40ccc38f76af5e471bd918e0da3b7eb8568f56d33dd2007b2515867aa3a070df42cec18970a958411ddf1ee6dc3d78be508950d53bd4067d2313807ca5a676d944c8c78b72ab5a431fdd1ce4de3f7abc528b52d739d6047f2111827ea7a474db46cac5857ca5544d11d312ead03174b25c855cdef9ab832c54c74355bb3e4979db87c691b9e78448e9387fb479c1d8a277159af",
        "type": "nulldata"
      }
    }
  ],
  "blockhash": "15af9b025c636b87e0a10c18a1a8de0e5f3c2069ad563b293161176d75df89a4",
  "confirmations": 1,
  "time": 1764174659,
  "blocktime": 1764174659
}