{
  "hex": "01000000000101c6476d1fec8ed5260b39280be0253961e6e7bc6faa1dfcb68322444722177e410100000000feffffff0270cc3221792d00002251201f27c439aff9f08bd7f252f46185f5613a8cdb86a513c32ddb0647a2b75c3f2500e1f50500000000fdd5046a2053a66445958c6289b08f084e43907630bdeb50bec0504a9b6588e9d1c48257a34db004a3a319ce021b41afa0393fb3b6dac0830e4fcb69ded045cb4c215f5b330ce30e838339ee223b618f80191f9396fae0a32e6feb49fef065eb6c017f7b132cc32ee3e3598e425b01efe0797ff3f69a80c34e0f8b299e90058b0c611f1b734ca34ec3c379ae627b21cfc0595fd3d6baa0e36e2fab09beb025ab2c413f3b536c836e2323994e829bc12f20b9bf33365a40038ecf4be95e50c54bcca1dfdbb38c638e0303b96ea2bbe10f00999f13167a6023aeef6bc97e70e56bec81fffb93ac43ae6363d90ec2db816f60f9ff73761a0043ce8f0ba91e10850b8ce19f9bf3cc23ce4343f92ee2fba14f40d9df53563a2063eeaf2b893e30a52bacc1bfbbd3ec03eea3a319ce021b41afa0393fb3b6dac0830e4fcb69ded045cb4c215f5b330ce30e838339ee223b618f80191f9396fae0a32e6feb49fef065eb6c017f7b132cc32ee3e3598e425b01efe0797ff3f69a80c34e0f8b299e90058b0c611f1b734ca34ec3c379ae627b21cfc0595fd3d6baa0e36e2fab09beb025ab2c413f3b536c836e2323994e829bc12f20b9bf33365a40038ecf4be95e50c54bcca1dfdbb38c638e0303b96ea2bbe10f00999f13167a6023aeef6bc97e70e56bec81fffb93ac43ae6363d90ec2db816f60f9ff73761a0043ce8f0ba91e10850b8ce19f9bf3cc23ce4343f92ee2fba14f40d9df53563a2063eeaf2b893e30a52bacc1bfbbd3ec03eea3a319ce021b41afa0393fb3b6dac0830e4fcb69ded045cb4c215f5b330ce30e838339ee223b618f80191f9396fae0a32e6feb49fef065eb6c017f7b132cc32ee3e3598e425b01efe0797ff3f69a80c34e0f8b299e90058b0c611f1b734ca34ec3c379ae627b21cfc0595fd3d6baa0e36e2fab09beb025ab2c413f3b536c836e2323994e829bc12f20b9bf33365a40038ecf4be95e50c54bcca1dfdbb38c638e0303b96ea2bbe10f00999f13167a6023aeef6bc97e70e56bec81fffb93ac43ae6363d90ec2db816f60f9ff73761a0043ce8f0ba91e10850b8ce19f9bf3cc23ce4343f92ee2fba14f40d9df53563a2063eeaf2b893e30a52bacc1bfbbd3ec03eea3a319ce021b41afa0393fb3b6dac0830e4fcb69ded045cb4c215f5b330ce30e838339ee223b618f80191f9396fae0a32e6feb49fef065eb6c017f7b132cc32ee3e3598e425b01efe0797ff3f69a80c34e0f8b299e90058b0c611f1b734ca34ec3c379ae627b21cfc0595fd3d6baa0e36e2fab09beb025ab2c413f3b536c836e2323994e829bc12f20b9bf33365a40038ecf4be95e50c54bcca1dfdbb38c638e0303b96ea2bbe10f00999f13167a6023aeef6bc97e70e56bec81fffb93ac43ae6363d90ec2db816f60f9ff73761a0043ce8f0ba91e10850b8ce19f9bf3cc23ce4343f92ee2fba14f40d9df53563a2063eeaf2b893e30a52bacc1bfbbd3ec03eea3a319ce021b41afa0393fb3b6dac0830e4fcb69ded045cb4c215f5b330ce30e838339ee223b618f80191f9396fae0a32e6feb49fef065eb6c017f7b132cc32ee3e3598e425b01efe0797ff3f69a80c34e0f8b299e90058b0c611f1b734ca34ec3c379ae627b21cfc0595fd3d6baa0e36e2fab09beb025ab2c413f3b536c836e2323994e829bc12f20b9bf33365a4003efc5105c402af64f9c4b4cf756ede5f800c3c4d100c012ea04908e8c12204f5502fd7509f2329aac887a8d8b487b72ec64fc44a137faec7e3609308b5ae75abc490ab2dad3a4cdb1237167223f3ea79eb85964d658697e84b23e6243bcac9c464b103eeab69fefe8e8a580a8cf6988b938eeb50a46a28e451983a89456893ca45a097d3ee7bea46f817998db6b473667bc361191cdef3a13d17f3589d67c3450494ee47b9d922ca7804993d1ef81b5c953fa0e8847e896a5a246986f0a6c6fcfc38f533de14f686ac6b86cbd022ee531d6e81e18836c8857eb3970006f0b1ebc40272d69eb194f6b0cc13819ed89eaaa82b0faac1de351cc3e6e0438fe1e3e31b2486b211aacfbc4fbefd3f416f74c94d25864230e9018f9776b86674e416951342d0655c38b2afb859da67b44fd6d613cab07b258a34502e19f1dd0e6cb77a27fb0ff7beacb99a58d7b8342194d903be200d23c2f03fe793836595979216ec6ef1828e94362bf12dfbd094ea793116b2c247a0308a9029cbb30117c578193956a7b09d5079d6949a96d0321329dbe3e3d9f9f4a4676f442ab3be33477c7ce6d610e991f073ebe3d9ff3364f16a2c64a876ea2ca41ac8f2a50b49f587f313b156de4a3eec0e97e251c05043abbd6b5f6072224ef2d3b95f4abf39de7ba50f545bb7e301c5680b9de19d8fa80947f8a7faded55f112d37e49e5769b7745298482aa360cddd9beb58f869b6db02c56b9cde715f5ca77f6f67cbdc8c983f8d58a2d1d634fed64e21bc6e7666578eab1d241afe9ed2b1168ee6b84ad84db1eeb6c9d668dd641ad0914cafe960e99fe13db7c8c17cff0cf27229be0dfd3e333aae8a2d606c6350255a36b616b75b5c36dcf67fc82a0b2ea046e19a7d60cb44dbf44983858320687882a8d1b1d2dbddf0e22e55dda0b4bc43c707cf457cb0b7f1980a964972e1a5587234c0759fb91834911ede2a593743cc05db6654ea84857ae3cdc19c0f82e9d263cd1ed1a8325d297acc13888cefcd63c36c858ddf17efa86aee433f8f99ebeb15c347327f7db3653e0c6155f697af3cb1d7e232c8c18134175dca8a280567f7db17ec102d9a484e395769d8d403fa515d63fb14b0ed67fe44023a04071929f3e3dc28e20cd8fea139dddba373050ed1684c8c2f909c8b407e46e059d6b67bd546613d26a5712bd68ded742a39f4c70e7052093717546efca9a72eced2acabdefb6c55b5c305c450ac84020dfb3bc56bf4157691b39bcdf47d694a79273aa5758a43879c353f290cae2f0fd9519cb784df5b3f90c5eab441aaa9c8544cac3dd780e2b109e61b936ee3a4a4ac2f2a6361b7de10ec4f92768b2285138676da4e7a67adc1b64800f9b8d0b686f23186210441a3c26e2379cc0d0ee19728a21d260e5296fb656c562eec03ad1e47e30a4e8f1f69958d35728e45bb2074dee2057adc52d5dd54a3bae1c035f7a60ecffdcf59b9ae11cb29f545eb9fed36380844942caf4ca2cdc10f185e5aae9b28393925d5106357370545b2bbadbb9a936468da3126c3604fd85633f32d590f8270483db88e0dda0926ddb4dd0f8b9d93a36c6cf054ff0cb5fc45d79640a4bc846fff2307a8830a5b6cb4af82571b9c2fbe40cf98950c99f69708f4a4ca5dddace3136f23aea28f79b745d6dc05ac9065b4562d894588bddafbe2732a0686229d0466700de6408166f28b57f4190f9bcdbad96192d67620e25f45021229d9036c27b93479916269e3406b5ea26a2e0b6b2d84ffc0f1c3ddca77bd80925963ef0ce8f1981e2a9fa9b70c0d9ebfddd964d3992ee4b83ecf80cf4b971f22c422c1271be9836ec01ee9479c824915c5c28e12a50ed010c771aa1278a2ccddeb685e6bd595d60121c8d18f6f20e9c302b36fb21b02a395cd9f20de57722ee44cc485367699a098ea25e568b12f892c04e97a4772df23eef0d63277f378169186ea0de857aa698f241a94f1e5dfd6fd0da2a474259a9009e7476ada68821938ee4beb29fe39a5af9a18658134937aaa4f793b70632937982d4ce24e7b20db16d2feac952f9646258a24d56105f6c614069634db3b4d3e396283ac9af6ef9f6d96120bddc6330c4c63d54a895f89a63e38a06127ed81830ed06ca3ee6336ee5d773b7f38a27bbb311735c167d37aeea1170c4d35da7130cd46006a3701fbea2ddbe8d30bd9f13af5237702852343f17956b5e6a5b3ae0b786911bdb48bdc75d67894606e4e0d0b2c02d5cb470ec703dfe74e406124ac5f8803d1f904aecd5fae96b8d4443390046de16bb38ac9203eea2ae13265478d6c89cd92bb2a230018f970ff0f0885fc2ae9adb5c56eb2cfc730cd623dda1111da06c1e968be5e0310fbb8c84869a0324ad6da0b93c357200d8bbf78570784873f7a5fbdf4503dd6293df9525f0e443744b9efdfe26e0c5a7dbb39132e0decee14c9197bd0a2529a52533e64baa8a3a5c7173ad6dd9e3fb76e118365f163f88fb53a7c9633bb7f2d8047b636242801b976499394a1d2a011f44ea01f13565af822c9a8bc2bd858ea03efec7b9bfc4480453798c999a9f505d6a2d6aca3b89858bc8cb36f1fbb02832d5d3b85202f0f739f449fa68bca1bd7d9bf71d3a4b81f7e438bfca01e75965effdf813cb437427ededccaf809b00fd3db1f5ce5afe9dffb084b4e42d34cd3e26b5a81725720d3670140db619117b330c66a5ce7f4a98eb060c0f6b872ba38a6d2f334e68530e71f417f449c00e054fe7007e7542978ceb092768e3a9dbd6922032a50f285f0146c8b267a4f5418007c5b7c1e3af67a5b1783a1ebd60d6e6f15e30a93ce8903848297cdc3974dc3df9df6a8de200928b39be443991c3f622475cf31f5ea61ed1c6c1d8a8aa2fb5ea1bccfecdc12b17c2d393c02fbb3932e6e812e53065fb468a1a259d6cc58e9dcc60761ed51eedf950f253c4c86b65fdea2aadd5f05a06fb7ba80fcb59c31293c5dbe86db50e5e59d37225887906aa46a76b1b8c3c4db23257e4297c19163948b6a7d6d5ea827bd756f29c965f078a8acb9e5e73c0d9da0a967105bc4b42cf1139ff656fb29cafb26f05006e1d71c0b112b95a29725556dabae0ff685bee24a3e00f2f260a59d9e3a86f012cec58629b51b207d551fb0fd515c8373ec1d7db36fe58f313193f74bf26721b86cb37077ea9cb8fa4d4564d7ce36709c321af7ef9796df8a2d7f24abddca674fc0a3bbe8ad1adf43700f5faf74ef033f60e85591c8d99457300eb3982bffbb9e468f1de02d9bfc5657542998edcc8a90e5d52137cf0f008a2d6621bcec3dffef2e6fe95b8fcda467c53b03cbe887ea4663a4d7db04a9de9cad90e4ce73de2312b64696e81898a8d8f969d9fa9b4b8c5d0d1d3d6e8f6030f1b212e585d60678a8b92a2b4babbc6dedfeafdfe02080d565a618399b9bbc7d7dff0f5f6fafb121b27282d373d779497b8bddfedfe000000162c3e4d01fd2105006e9603f255b89fd12e859c9c13141fc1d9c1930990a1aaf311220f8069ebdc1039a26daa93ba08560868ac5fa83887717825123bab9b4c35c61c17f5e48026f72f0d36d39f17ea050d75314ce6cd58f886820bc5ae804485e79411a1f611af7b423600ab4c82d591ed3222981a1df19d9ef0a2746f30ece27bd28ebc1122e1757db77b4561d84665c4c4b4add867489ce281c539cf863dd23e95edee292ad7d568c918d9c2c46ebc6ff5a34a8ff7d061c03bb4af605dd6f0de0b50c5e6444878c1d0ceabf1f1b7be9e74dedb6b7a82c4807e6d83e9a775a2696dceca2162de29c9b497c73cba37705023bc0f16bf6ce3d276c7f256a01bf231be0b0d63ea5ebfcd4a34c8ed7eba4f545d42936bc4bd72a672781910e7f4e04b794d96f2d480d4ed21d059e2480f1fe3984b8cbcf7708677fc3c816034888a1ab22d9ff8660e55ff5a40c633ebf5379b4baa20b895788e512e870c6cafc5d752c657d42a17b4e64b6c1adfd65456a7cfd4e046441eede65f60e4f88331164cfd95271afae940f22aef862ef7435c445dcf92b2cd5c8f8d94363cedbbc60d57b73115674cba3f66ef593f37c124b0db916e5e38ef7de23400c8ca96909e79e84d496a08824983c2a1370d11e563d13bac4d0726f170a32b47ba9bb67c064e5b8c79d35fd8e4e9a31efce13c1fcd9d335d41c320ebea768d9dbbfe15f90ef3fb42d0ec6fc65af9dff391de8857c2322a77419da7a159cc7b0a59e16cdc944ec7fe25ca8b48634cd7391bb22d6e4e617119eb6f24bbb1200e50fa438af5f3c92caf1fcd8b074ecd142da11e058b3b4760c0d5119a2378607583c7b4a867064a7aea07fd95893599a30524109f8c8d5efedc9171dd68906e0518f8561cc146980f9afefbd823c73b169cf388a02dd86e56dd06e46238e537d33cfd929f174ed661233a0142d1db131a01e5dba0f880172164e93294f529d35b1b60b902b314d2932344b6a861b952beb1a7a89b70dce1967d0d97241c7ae0b05f97eed0be55f83df9da3112cf674db4e699706d5bf89892ac6c953573788a8ba12df50012afc1896018e8a067c0df0dd546105fe6d744afab7646012e8daa459a3e754dc1a973c24c973ec56c5010fe94194b5521007b0fbf7c7bad10b0fddd9da40bd1718a3cbd31b881bff3237b3c2c675d2ec3026a24550f3b7409d59adacccd7532770437bd9f9b3858412054c9c1a3c92f544823fe298ded672b2e5aef9f4b61939a5ef912bb04549d93828e017bfedc52fcb15676f32e4b16961780bc2a3cde8b6de9913496594b15967c94309907391448537a42ef448c269fd0f265445f6aa4a10b0551316ba526d0d61fce203d2c260b130bfc0661318ef5afd528924f75f7fa2afa3a8824ad2279a48cc7c78f69182737d46b235023b1a41235218fedb8fb879c184a38b882ea2fda677b05337113e65d1ce9d9125336c3446ae072a73d41ea1d686967e3fbf86ff4d17ee374bf5d38ae3f4d54abcf1000bae42d4eec177c8c8bf7f837c26ae3be911cd286e1c4a407a0ce54111a02a848349edfb1b832a47ca064580e72926b2766c2319f74de7b0cc59fc759a9d059cfb4cd39e355323518837eb750b7d08afca1f243862ef481f0ccd5a3c44fc13400d00a426f5385fcce225e5b9e160ff952950cc539f247d4b0c65fd26688fbe6f10b405129681ccdfd0d3804e9eb094de3bbb3bb9204c0b505b69f06b941761b270023b13537ff9ade8c8321fc407f81cd2ce51a5a06975a08890c2de6eaf387cc2a963dd8b633fd125aa904bace3033ccfa951fbd28131ea56adacb37a8b612e21e757a9be1363d707cd437a2a0ac63243346da7c000000",
  "txid": "8c7cfec7eea8561488289df24cf9940d5aac4a05fdcd8f41ce7e1610a211ae8d",
  "hash": "4f7e87b1eb1fc30dc2bd43751693debe909d5f53ff9b468901989d1418575639",
  "size": 5085,
  "vsize": 2278,
  "version": 1,
  "locktime": 124,
  "vin": [
    {
      "txid": "417e172247442283b6fc1daa6fbce7e6613925e00b28390b26d58eec1f6d47c6",
      "vout": 1,
      "scriptSig": {
        "asm": "",
        "hex": ""
      },
      "txinwitness": [
        "f2329aac887a8d8b487b72ec64fc44a137faec7e3609308b5ae75abc490ab2dad3a4cdb1237167223f3ea79eb85964d658697e84b23e6243bcac9c464b103eeab69fefe8e8a580a8cf6988b938eeb50a46a28e451983a89456893ca45a097d3ee7bea46f817998db6b473667bc361191cdef3a13d17f3589d67c3450494ee47b9d922ca7804993d1ef81b5c953fa0e8847e896a5a246986f0a6c6fcfc38f533de14f686ac6b86cbd022ee531d6e81e18836c8857eb3970006f0b1ebc40272d69eb194f6b0cc13819ed89eaaa82b0faac1de351cc3e6e0438fe1e3e31b2486b211aacfbc4fbefd3f416f74c94d25864230e9018f9776b86674e416951342d0655c38b2afb859da67b44fd6d613cab07b258a34502e19f1dd0e6cb77a27fb0ff7beacb99a58d7b8342194d903be200d23c2f03fe793836595979216ec6ef1828e94362bf12dfbd094ea793116b2c247a0308a9029cbb30117c578193956a7b09d5079d6949a96d0321329dbe3e3d9f9f4a4676f442ab3be33477c7ce6d610e991f073ebe3d9ff3364f16a2c64a876ea2ca41ac8f2a50b49f587f313b156de4a3eec0e97e251c05043abbd6b5f6072224ef2d3b95f4abf39de7ba50f545bb7e301c5680b9de19d8fa80947f8a7faded55f112d37e49e5769b7745298482aa360cddd9beb58f869b6db02c56b9cde715f5ca77f6f67cbdc8c983f8d58a2d1d634fed64e21bc6e7666578eab1d241afe9ed2b1168ee6b84ad84db1eeb6c9d668dd641ad0914cafe960e99fe13db7c8c17cff0cf27229be0dfd3e333aae8a2d606c6350255a36b616b75b5c36dcf67fc82a0b2ea046e19a7d60cb44dbf44983858320687882a8d1b1d2dbddf0e22e55dda0b4bc43c707cf457cb0b7f1980a964972e1a5587234c0759fb91834911ede2a593743cc05db6654ea84857ae3cdc19c0f82e9d263cd1ed1a8325d297acc13888cefcd63c36c858ddf17efa86aee433f8f99ebeb15c347327f7db3653e0c6155f697af3cb1d7e232c8c18134175dca8a280567f7db17ec102d9a484e395769d8d403fa515d63fb14b0ed67fe44023a04071929f3e3dc28e20cd8fea139dddba373050ed1684c8c2f909c8b407e46e059d6b67bd546613d26a5712bd68ded742a39f4c70e7052093717546efca9a72eced2acabdefb6c55b5c305c450ac84020dfb3bc56bf4157691b39bcdf47d694a79273aa5758a43879c353f290cae2f0fd9519cb784df5b3f90c5eab441aaa9c8544cac3dd780e2b109e61b936ee3a4a4ac2f2a6361b7de10ec4f92768b2285138676da4e7a67adc1b64800f9b8d0b686f23186210441a3c26e2379cc0d0ee19728a21d260e5296fb656c562eec03ad1e47e30a4e8f1f69958d35728e45bb2074dee2057adc52d5dd54a3bae1c035f7a60ecffdcf59b9ae11cb29f545eb9fed36380844942caf4ca2cdc10f185e5aae9b28393925d5106357370545b2bbadbb9a936468da3126c3604fd85633f32d590f8270483db88e0dda0926ddb4dd0f8b9d93a36c6cf054ff0cb5fc45d79640a4bc846fff2307a8830a5b6cb4af82571b9c2fbe40cf98950c99f69708f4a4ca5dddace3136f23aea28f79b745d6dc05ac9065b4562d894588bddafbe2732a0686229d0466700de6408166f28b57f4190f9bcdbad96192d67620e25f45021229d9036c27b93479916269e3406b5ea26a2e0b6b2d84ffc0f1c3ddca77bd80925963ef0ce8f1981e2a9fa9b70c0d9ebfddd964d3992ee4b83ecf80cf4b971f22c422c1271be9836ec01ee9479c824915c5c28e12a50ed010c771aa1278a2ccddeb685e6bd595d60121c8d18f6f20e9c302b36fb21b02a395cd9f20de57722ee44cc485367699a098ea25e568b12f892c04e97a4772df23eef0d63277f378169186ea0de857aa698f241a94f1e5dfd6fd0da2a474259a9009e7476ada68821938ee4beb29fe39a5af9a18658134937aaa4f793b70632937982d4ce24e7b20db16d2feac952f9646258a24d56105f6c614069634db3b4d3e396283ac9af6ef9f6d96120bddc6330c4c63d54a895f89a63e38a06127ed81830ed06ca3ee6336ee5d773b7f38a27bbb311735c167d37aeea1170c4d35da7130cd46006a3701fbea2ddbe8d30bd9f13af5237702852343f17956b5e6a5b3ae0b786911bdb48bdc75d67894606e4e0d0b2c02d5cb470ec703dfe74e406124ac5f8803d1f904aecd5fae96b8d4443390046de16bb38ac9203eea2ae13265478d6c89cd92bb2a230018f970ff0f0885fc2ae9adb5c56eb2cfc730cd623dda1111da06c1e968be5e0310fbb8c84869a0324ad6da0b93c357200d8bbf78570784873f7a5fbdf4503dd6293df9525f0e443744b9efdfe26e0c5a7dbb39132e0decee14c9197bd0a2529a52533e64baa8a3a5c7173ad6dd9e3fb76e118365f163f88fb53a7c9633bb7f2d8047b636242801b976499394a1d2a011f44ea01f13565af822c9a8bc2bd858ea03efec7b9bfc4480453798c999a9f505d6a2d6aca3b89858bc8cb36f1fbb02832d5d3b85202f0f739f449fa68bca1bd7d9bf71d3a4b81f7e438bfca01e75965effdf813cb437427ededccaf809b00fd3db1f5ce5afe9dffb084b4e42d34cd3e26b5a81725720d3670140db619117b330c66a5ce7f4a98eb060c0f6b872ba38a6d2f334e68530e71f417f449c00e054fe7007e7542978ceb092768e3a9dbd6922032a50f285f0146c8b267a4f5418007c5b7c1e3af67a5b1783a1ebd60d6e6f15e30a93ce8903848297cdc3974dc3df9df6a8de200928b39be443991c3f622475cf31f5ea61ed1c6c1d8a8aa2fb5ea1bccfecdc12b17c2d393c02fbb3932e6e812e53065fb468a1a259d6cc58e9dcc60761ed51eedf950f253c4c86b65fdea2aadd5f05a06fb7ba80fcb59c31293c5dbe86db50e5e59d37225887906aa46a76b1b8c3c4db23257e4297c19163948b6a7d6d5ea827bd756f29c965f078a8acb9e5e73c0d9da0a967105bc4b42cf1139ff656fb29cafb26f05006e1d71c0b112b95a29725556dabae0ff685bee24a3e00f2f260a59d9e3a86f012cec58629b51b207d551fb0fd515c8373ec1d7db36fe58f313193f74bf26721b86cb37077ea9cb8fa4d4564d7ce36709c321af7ef9796df8a2d7f24abddca674fc0a3bbe8ad1adf43700f5faf74ef033f60e85591c8d99457300eb3982bffbb9e468f1de02d9bfc5657542998edcc8a90e5d52137cf0f008a2d6621bcec3dffef2e6fe95b8fcda467c53b03cbe887ea4663a4d7db04a9de9cad90e4ce73de2312b64696e81898a8d8f969d9fa9b4b8c5d0d1d3d6e8f6030f1b212e585d60678a8b92a2b4babbc6dedfeafdfe02080d565a618399b9bbc7d7dff0f5f6fafb121b27282d373d779497b8bddfedfe000000162c3e4d01",
        "006e9603f255b89fd12e859c9c13141fc1d9c1930990a1aaf311220f8069ebdc1039a26daa93ba08560868ac5fa83887717825123bab9b4c35c61c17f5e48026f72f0d36d39f17ea050d75314ce6cd58f886820bc5ae804485e79411a1f611af7b423600ab4c82d591ed3222981a1df19d9ef0a2746f30ece27bd28ebc1122e1757db77b4561d84665c4c4b4add867489ce281c539cf863dd23e95edee292ad7d568c918d9c2c46ebc6ff5a34a8ff7d061c03bb4af605dd6f0de0b50c5e6444878c1d0ceabf1f1b7be9e74dedb6b7a82c4807e6d83e9a775a2696dceca2162de29c9b497c73cba37705023bc0f16bf6ce3d276c7f256a01bf231be0b0d63ea5ebfcd4a34c8ed7eba4f545d42936bc4bd72a672781910e7f4e04b794d96f2d480d4ed21d059e2480f1fe3984b8cbcf7708677fc3c816034888a1ab22d9ff8660e55ff5a40c633ebf5379b4baa20b895788e512e870c6cafc5d752c657d42a17b4e64b6c1adfd65456a7cfd4e046441eede65f60e4f88331164cfd95271afae940f22aef862ef7435c445dcf92b2cd5c8f8d94363cedbbc60d57b73115674cba3f66ef593f37c124b0db916e5e38ef7de23400c8ca96909e79e84d496a08824983c2a1370d11e563d13bac4d0726f170a32b47ba9bb67c064e5b8c79d35fd8e4e9a31efce13c1fcd9d335d41c320ebea768d9dbbfe15f90ef3fb42d0ec6fc65af9dff391de8857c2322a77419da7a159cc7b0a59e16cdc944ec7fe25ca8b48634cd7391bb22d6e4e617119eb6f24bbb1200e50fa438af5f3c92caf1fcd8b074ecd142da11e058b3b4760c0d5119a2378607583c7b4a867064a7aea07fd95893599a30524109f8c8d5efedc9171dd68906e0518f8561cc146980f9afefbd823c73b169cf388a02dd86e56dd06e46238e537d33cfd929f174ed661233a0142d1db131a01e5dba0f880172164e93294f529d35b1b60b902b314d2932344b6a861b952beb1a7a89b70dce1967d0d97241c7ae0b05f97eed0be55f83df9da3112cf674db4e699706d5bf89892ac6c953573788a8ba12df50012afc1896018e8a067c0df0dd546105fe6d744afab7646012e8daa459a3e754dc1a973c24c973ec56c5010fe94194b5521007b0fbf7c7bad10b0fddd9da40bd1718a3cbd31b881bff3237b3c2c675d2ec3026a24550f3b7409d59adacccd7532770437bd9f9b3858412054c9c1a3c92f544823fe298ded672b2e5aef9f4b61939a5ef912bb04549d93828e017bfedc52fcb15676f32e4b16961780bc2a3cde8b6de9913496594b15967c94309907391448537a42ef448c269fd0f265445f6aa4a10b0551316ba526d0d61fce203d2c260b130bfc0661318ef5afd528924f75f7fa2afa3a8824ad2279a48cc7c78f69182737d46b235023b1a41235218fedb8fb879c184a38b882ea2fda677b05337113e65d1ce9d9125336c3446ae072a73d41ea1d686967e3fbf86ff4d17ee374bf5d38ae3f4d54abcf1000bae42d4eec177c8c8bf7f837c26ae3be911cd286e1c4a407a0ce54111a02a848349edfb1b832a47ca064580e72926b2766c2319f74de7b0cc59fc759a9d059cfb4cd39e355323518837eb750b7d08afca1f243862ef481f0ccd5a3c44fc13400d00a426f5385fcce225e5b9e160ff952950cc539f247d4b0c65fd26688fbe6f10b405129681ccdfd0d3804e9eb094de3bbb3bb9204c0b505b69f06b941761b270023b13537ff9ade8c8321fc407f81cd2ce51a5a06975a08890c2de6eaf387cc2a963dd8b633fd125aa904bace3033ccfa951fbd28131ea56adacb37a8b612e21e757a9be1363d707cd437a2a0ac63243346da"
      ],
      "sequence": 4294967294
    }
  ],
  "vout": [
    {
      "value": 499982.7127,
      "n": 0,
      "scriptPubKey": {
        "asm": "1 1f27c439aff9f08bd7f252f46185f5613a8cdb86a513c32ddb0647a2b75c3f25",
        "hex": "51201f27c439aff9f08bd7f252f46185f5613a8cdb86a513c32ddb0647a2b75c3f25",
        "reqSigs": 1,
        "type": "witness_v1_scripthash",
        "addresses": [
          "3QJmnh"
        ]
      }
    },
    {
      "value": 1.0,
      "n": 1,
      "scriptPubKey": {
        "asm": "OP_RETURN 53a66445958c6289b08f084e43907630bdeb50bec0504a9b6588e9d1c48257a3 a3a319ce021b41afa0393fb3b6dac0830e4fcb69ded045cb4c215f5b330ce30e838339ee223b618f80191f9396fae0a32e6feb49fef065eb6c017f7b132cc32ee3e3598e425b01efe0797ff3f69a80c34e0f8b299e90058b0c611f1b734ca34ec3c379ae627b21cfc0595fd3d6baa0e36e2fab09beb025ab2c413f3b536c836e2323994e829bc12f20b9bf33365a40038ecf4be95e50c54bcca1dfdbb38c638e0303b96ea2bbe10f00999f13167a6023aeef6bc97e70e56bec81fffb93ac43ae6363d90ec2db816f60f9ff73761a0043ce8f0ba91e10850b8ce19f9bf3cc23ce4343f92ee2fba14f40d9df53563a2063eeaf2b893e30a52bacc1bfbbd3ec03eea3a319ce021b41afa0393fb3b6dac0830e4fcb69ded045cb4c215f5b330ce30e838339ee223b618f80191f9396fae0a32e6feb49fef065eb6c017f7b132cc32ee3e3598e425b01efe0797ff3f69a80c34e0f8b299e90058b0c611f1b734ca34ec3c379ae627b21cfc0595fd3d6baa0e36e2fab09beb025ab2c413f3b536c836e2323994e829bc12f20b9bf33365a40038ecf4be95e50c54bcca1dfdbb38c638e0303b96ea2bbe10f00999f13167a6023aeef6bc97e70e56bec81fffb93ac43ae6363d90ec2db816f60f9ff73761a0043ce8f0ba91e10850b8ce19f9bf3cc23ce4343f92ee2fba14f40d9df53563a2063eeaf2b893e30a52bacc1bfbbd3ec03eea3a319ce021b41afa0393fb3b6dac0830e4fcb69ded045cb4c215f5b330ce30e838339ee223b618f80191f9396fae0a32e6feb49fef065eb6c017f7b132cc32ee3e3598e425b01efe0797ff3f69a80c34e0f8b299e90058b0c611f1b734ca34ec3c379ae627b21cfc0595fd3d6baa0e36e2fab09beb025ab2c413f3b536c836e2323994e829bc12f20b9bf33365a40038ecf4be95e50c54bcca1dfdbb38c638e0303b96ea2bbe10f00999f13167a6023aeef6bc97e70e56bec81fffb93ac43ae6363d90ec2db816f60f9ff73761a0043ce8f0ba91e10850b8ce19f9bf3cc23ce4343f92ee2fba14f40d9df53563a2063eeaf2b893e30a52bacc1bfbbd3ec03eea3a319ce021b41afa0393fb3b6dac0830e4fcb69ded045cb4c215f5b330ce30e838339ee223b618f80191f9396fae0a32e6feb49fef065eb6c017f7b132cc32ee3e3598e425b01efe0797ff3f69a80c34e0f8b299e90058b0c611f1b734ca34ec3c379ae627b21cfc0595fd3d6baa0e36e2fab09beb025ab2c413f3b536c836e2323994e829bc12f20b9bf33365a40038ecf4be95e50c54bcca1dfdbb38c638e0303b96ea2bbe10f00999f13167a6023aeef6bc97e70e56bec81fffb93ac43ae6363d90ec2db816f60f9ff73761a0043ce8f0ba91e10850b8ce19f9bf3cc23ce4343f92ee2fba14f40d9df53563a2063eeaf2b893e30a52bacc1bfbbd3ec03eea3a319ce021b41afa0393fb3b6dac0830e4fcb69ded045cb4c215f5b330ce30e838339ee223b618f80191f9396fae0a32e6feb49fef065eb6c017f7b132cc32ee3e3598e425b01efe0797ff3f69a80c34e0f8b299e90058b0c611f1b734ca34ec3c379ae627b21cfc0595fd3d6baa0e36e2fab09beb025ab2c413f3b536c836e2323994e829bc12f20b9bf33365a4003efc5105c402af64f9c4b4cf756ede5f800c3c4d100c012ea04908e8c12204f55",
        "hex": "6a2053a66445958c6289b08f084e43907630bdeb50bec0504a9b6588e9d1c48257a34db004a3a319ce021b41afa0393fb3b6dac0830e4fcb69ded045cb4c215f5b330ce30e838339ee223b618f80191f9396fae0a32e6feb49fef065eb6c017f7b132cc32ee3e3598e425b01efe0797ff3f69a80c34e0f8b299e90058b0c611f1b734ca34ec3c379ae627b21cfc0595fd3d6baa0e36e2fab09beb025ab2c413f3b536c836e2323994e829bc12f20b9bf33365a40038ecf4be95e50c54bcca1dfdbb38c638e0303b96ea2bbe10f00999f13167a6023aeef6bc97e70e56bec81fffb93ac43ae6363d90ec2db816f60f9ff73761a0043ce8f0ba91e10850b8ce19f9bf3cc23ce4343f92ee2fba14f40d9df53563a2063eeaf2b893e30a52bacc1bfbbd3ec03eea3a319ce021b41afa0393fb3b6dac0830e4fcb69ded045cb4c215f5b330ce30e838339ee223b618f80191f9396fae0a32e6feb49fef065eb6c017f7b132cc32ee3e3598e425b01efe0797ff3f69a80c34e0f8b299e90058b0c611f1b734ca34ec3c379ae627b21cfc0595fd3d6baa0e36e2fab09beb025ab2c413f3b536c836e2323994e829bc12f20b9bf33365a40038ecf4be95e50c54bcca1dfdbb38c638e0303b96ea2bbe10f00999f13167a6023aeef6bc97e70e56bec81fffb93ac43ae6363d90ec2db816f60f9ff73761a0043ce8f0ba91e10850b8ce19f9bf3cc23ce4343f92ee2fba14f40d9df53563a2063eeaf2b893e30a52bacc1bfbbd3ec03eea3a319ce021b41afa0393fb3b6dac0830e4fcb69ded045cb4c215f5b330ce30e838339ee223b618f80191f9396fae0a32e6feb49fef065eb6c017f7b132cc32ee3e3598e425b01efe0797ff3f69a80c34e0f8b299e90058b0c611f1b734ca34ec3c379ae627b21cfc0595fd3d6baa0e36e2fab09beb025ab2c413f3b536c836e2323994e829bc12f20b9bf33365a40038ecf4be95e50c54bcca1dfdbb38c638e0303b96ea2bbe10f00999f13167a6023aeef6bc97e70e56bec81fffb93ac43ae6363d90ec2db816f60f9ff73761a0043ce8f0ba91e10850b8ce19f9bf3cc23ce4343f92ee2fba14f40d9df53563a2063eeaf2b893e30a52bacc1bfbbd3ec03eea3a319ce021b41afa0393fb3b6dac0830e4fcb69ded045cb4c215f5b330ce30e838339ee223b618f80191f9396fae0a32e6feb49fef065eb6c017f7b132cc32ee3e3598e425b01efe0797ff3f69a80c34e0f8b299e90058b0c611f1b734ca34ec3c379ae627b21cfc0595fd3d6baa0e36e2fab09beb025ab2c413f3b536c836e2323994e829bc12f20b9bf33365a40038ecf4be95e50c54bcca1dfdbb38c638e0303b96ea2bbe10f00999f13167a6023aeef6bc97e70e56bec81fffb93ac43ae6363d90ec2db816f60f9ff73761a0043ce8f0ba91e10850b8ce19f9bf3cc23ce4343f92ee2fba14f40d9df53563a2063eeaf2b893e30a52bacc1bfbbd3ec03eea3a319ce021b41afa0393fb3b6dac0830e4fcb69ded045cb4c215f5b330ce30e838339ee223b618f80191f9396fae0a32e6feb49fef065eb6c017f7b132cc32ee3e3598e425b01efe0797ff3f69a80c34e0f8b299e90058b0c611f1b734ca34ec3c379ae627b21cfc0595fd3d6baa0e36e2fab09beb025ab2c413f3b536c836e2323994e829bc12f20b9bf33365a4003efc5105c402af64f9c4b4cf756ede5f800c3c4d100c012ea04908e8c12204f55",
        "type": "nulldata"
      }
    }
  ],
  "blockhash": "fe93069f37b49cfb15542a42b300d4e9dc573fdbbe6c5d081907ef62d551896a",
  "confirmations": 1,
  "time": 1764180962,
  "blocktime": 1764180962
}