{
  "hex": "010000000001016d5bca4f58898727968e180aca7492cdaa1742647a72e270b472cbb461aceea10100000000feffffff0200e1f50500000000fdd5046a20cb28ec8ec4d7ba90536a844d0c263817187cd5e4acb9bcba29fd897f70b18af34db004840411bf96db6d01b0eab27f1fdc10fee3165415350135528e96d4e23f187a90a424319fb6fb4d2190ca925f3ffc30dec336743515211572aeb6f4c21f385ab0c44451ffd69b2d41f0aaf23f5f9c50bea356145575417512ced694a27f583ad0e46471dff6bb0d61d08ad21f7fbc709e8376347555615532eef6b4825f781af00484913f165bed81306a32ff9f5c907e6396d495b581b5d20e165462bf98fa1024a4b11f367bcda1104a12dfbf7cb05e43b6f4b595a195f22e3674429fb8da3044c4d17f561badc1702a72bfdf1cd03e23d694d5f5c1f5924e561422ffd8ba5064e4f15f763b8de1500a529fff3cf01e03f6b4f5d5e1d5b26e763402dff89a70840411bf96db6d01b0eab27f1fdc10fee3165415350135528e96d4e23f187a90a424319fb6fb4d2190ca925f3ffc30dec336743515211572aeb6f4c21f385ab0c44451ffd69b2d41f0aaf23f5f9c50bea356145575417512ced694a27f583ad0e46471dff6bb0d61d08ad21f7fbc709e8376347555615532eef6b4825f781af00484913f165bed81306a32ff9f5c907e6396d495b581b5d20e165462bf98fa1024a4b11f367bcda1104a12dfbf7cb05e43b6f4b595a195f22e3674429fb8da3044c4d17f561badc1702a72bfdf1cd03e23d694d5f5c1f5924e561422ffd8ba5064e4f15f763b8de1500a529fff3cf01e03f6b4f5d5e1d5b26e763402dff89a70840411bf96db6d01b0eab27f1fdc10fee3165415350135528e96d4e23f187a90a424319fb6fb4d2190ca925f3ffc30dec336743515211572aeb6f4c21f385ab0c44451ffd69b2d41f0aaf23f5f9c50bea356145575417512ced694a27f583ad0e46471dff6bb0d61d08ad21f7fbc709e8376347555615532eef6b4825f781af00484913f165bed81306a32ff9f5c907e6396d495b581b5d20e165462bf98fa1024a4b11f367bcda1104a12dfbf7cb05e43b6f4b595a195f22e3674429fb8da3044c4d17f561badc1702a72bfdf1cd03e23d694d5f5c1f5924e561422ffd8ba5064e4f15f763b8de1500a529fff3cf01e03f6b4f5d5e1d5b26e763402dff89a70840411bf96db6d01b0eab27f1fdc10fee3165415350135528e96d4e23f187a90a424319fb6fb4d2190ca925f3ffc30dec336743515211572aeb6f4c21f385ab0c44451ffd69b2d41f0aaf23f5f9c50bea356145575417512ced694a27f583ad0e46471dff6bb0d61d08ad21f7fbc709e8376347555615532eef6b4825f781af00484913f165bed81306a32ff9f5c907e6396d495b581b5d20e165462bf98fa1024a4b11f367bcda1104a12dfbf7cb05e43b6f4b595a195f22e3674429fb8da3044c4d17f561badc1702a72bfdf1cd03e23d694d5f5c1f5924e561422ffd8ba5064e4f15f763b8de1500a529fff3cf01e03f6b4f5d5e1d5b26e763402dff89a70840411bf96db6d01b0eab27f1fdc10fee3165415350135528e96d4e23f187a90a424319fb6fb4d2190ca925f3ffc30dec336743515211572aeb6f4c21f385ab0c44451ffd69b2d41f0aaf23f5f9c50bea356145575417512ced694a27f583ad0e46471dff6bb0d61d08ad21f7fbc709e8376347555615532eef6b4825f781af00484913f165bed81306a32ff9f5c907e9245faccb4908174b864fe063c747e722c48c3a2891f18abb882fbec6373939a3022f408792d00002251200acea8a46b4991c46482792f57d7ed4bce63d8b13a3ab346dbb53e87ca4d2b7202fd7509d0da1c83f2322a131e187245a7e4dec19a4f6b6b9de17cd64e2ee3bed435694636382d8a0c5b505dd9dc859f4fb349515b74b13fdaa7bb71af2f948d4d7cced6295f63b6d37f2870220dae53315d6f6efc5d2b70fe2fe20e7e041d4cec2cdb49d68e266622b79c950070583d06289747d9804ca40ed57ebd90f5eb1c68e24b5e343641783ec58d066deb42e5b8a491103fbb24a890a830e186969fad4e870142e74961d9975c4b50a4cf95bc5fc13e0ec51a8b1a857cdbf5707d940f339f35bfcc030168233cfaa0bacee7b249f994ef20a8debbbf2d4983955dd1f6dcc15d8c14e348bd6d61c3668acae94177099fa9a6f7623987e393bfe3e45d8e24b6a0a1badd3cf1a5f20488699812c79872ee4a23c2505f67ab7f802db450714e485dd116e9d84fc3cb1611172ea79210bb1fc5e83532adc124b47e006bf4405962b5b72deb4c8987d9b659dcfeb08301e7692e3f327c486516651f3b6f020226f0b6b1e1e5a4c19d4d27461ceb9d1f3767493af766322005ec22ddbf558220674c57277b4891f5dc106b8cf20b0cc1f16c35b47292ad2cacf13bf1b71cab9467606a0b31769de2319e880237b07e7ebf34278d1d25c109e353aa3bd18259f29c7b90fd8b569bd4249b35a8cc8be45d5b1eb38c5039afc1f769ad300c06848712bc45a70a59c7d2e39050d68d0e2706ce38f007509b80e23c0dcfb13b971197c98d0b7078bdf857560f316c6b4a770b6750da25ae9b49d43cb66007e2292e9af6f42c94dd158c19be1417b8dad0c28609055185a920622bc2373cd5fe3af6cbfebfbe9e99ed66244cc80f9d3206d58f46d08000ab73bb54e7d43b40db6b6af46e784de550606fa58ed0f7b6112e4ae0f5b224f7e003a2973bc48e18f2db00235350272af04db3443d7adfe209432892721333333859916c60180d315eebcfa94332139ed45c88360350059bb97d36db79f1f19c3b81c6069a0a1d8543ec6d6b49bd654e0dd1a376451394e529f10c9b78d925e9a3d9b6f839e184729d83d952470c6d2f541962945dc98daa990dd8ad244b7c593193ebbcdf898a78470185db8e1cbb403c2004d135f522f17a76bd66c25d28d061d8323630fc9b18415213ad64674ba24d976d4e9511b85b4b196a5271ed533c9e9fdbbfb7c6653ee146593f9f226e1ad2178742626a31f0dd9cdf6999d7c0b0260257b0c8ad267bc6193dcfe0e50bf74ea84bcea0c7060dde37f3f2189a1b454c466de72dac88d6ae506a0d9022ea2e25fca04a292bdb8ac3a92fdcf493d00c4065333d5fb340e33e6165e7ce2f620e454cf5e0898e4efca4455298f7e4e8342412df6a9355ba40c6416765f570c73ca72f30b96eb1f6077d567cd000538d4ab4f4a1fdf226ae404f77b81067c5a7f131a5f9e8a07538f5f5e23627d85b7d429e98aa0895fcb9d7e94d53a4605b113438ba32e29d981fcadc76f79700cb7127ee3b99fe593a1db30ddd40f3b3a405af04abc0c931eaea3d676989be6ea97e19404f0781c4502deea819f4dc6632a1b3583e7a2a7580520a4391004d59eb8331926179d50e1961c534a437dc5bc1ef0c13613ed345789b45b42367b94f40ff86f546c6792883d2f19c561cc79a86cf790dab76d11b92a15d60311b684369f88a9011d8db718e94fc73026855cffa556cff57968879103789f3f60dbde5605f3f66844f401cd0f7409097aa6d7780c614bef7bb23a6c68fde73bfdc43f141a2144c585472b39b8594571da76047d6230d5fb5da4c2003a2e591d008ca24675a21396a328822e563729fea452deb0414ab07ee8b5b2921c77a24b53dc46963299693e97c01ff9cbb2b3291ded83a3cd0e2feeaae6d783a8b582bd649e7813eb75ffe78c335827fccd64a256b18d1a58699b3608d06e86489372ed67880948f23a92cdc3a848d1fc6bf48259b356cca6518fbf14c3086e6cdefbd88389d817eeb02c190b1de54728358756e7565f551c32e73c5ea99d03b250468cee562d9cd3c2902373d5d483b19aa262c487c5c976c03bac599479dafd7627bcbdf6164c66d71768fe09a5b1264bf49da67d8e40241e54aef8c84a5a0dcf09acdd0b600d6fba0cecec892b3461860d0cf0e40ac32f6d1d2b1c2c01369d53d2589a71c017cd776c3f77e403feb898c0ae3c3c543cbf4ed0306e0869b01555a3d1d3ce7d5401ddab599f3d22c8789129677212f262c098da354b23b1bba5d5d1072cbb0b66d0df731b8d214d1805b088da88a9105808fb100a067ad87cb06a7220e2fc2240cab10786981519034d614b6ae0a1a31cdad903efcc644e87d15fa6488a845960fa0fd77105d4ee274e74ac1d05430b26ed980b2d463503fbcf40372e5156fcf040e78db8bd499cb51e5ed63937bc0edc673190f92226365445b65b8370c11125442ada77fad23abcc34301ac67ba814c7cdbb2fbd78f8a8ec27464c2895ab57705f41931094424627aae71db70942a6ae0149c3cf2a7d6699d864dcae84d9d9ce75feeba27bd56b0e2327b50b8fc0b45294e8345f4a810dda4c97204506a5b0210c6b6272c88b82275ac19e71713a543fa57b6f6a1c639a1c667014930c3b2565f20d9cace022ace208d13681988f87c477f9079b000174b62f23a3b4f72dbd41f9d87139d24ed5c1ef516d9d700851c9800e3b173c7d22122a9e73c3f588f4929bb1c7cd2447dd4ee887b3596331983324d745dbf2931373287b74f77c052135556875a7ae6623d3bf600062b7346e5b625b47e4313195e26ac56e8557f4479338ac4e1a76c1913a0b042478cf2ae2b6950d03efff90c109fd1dfffd4c4f002da9062c19e31b5afb50cfe39db860eb23ce8a8898888af699cb9dbbe0335a770526f751953ca9eecb6ab88fdfbeea54ce629a2aa6e81eb01f09e5f6f44b9c2d5a3693d20828c8dcf3cba3af4edb4db147fc61155d01301ace426d5f99004a68fc9d50115566ca93e5a4016b9f1c1e8af7423722f6456cc131132eb73f01a63072ee5904f595a0827d189d1762154b7bef069263ad0571804afedc54ced235b6db21170bf86bcec4a1b709962640b2f8448ce0d6f3d702c24324d67b7554aa2f521793c633e29c3cec6f3e02532d5566d96900597763be403c8876d7d47375162a2a1b0e8109d9aae38b021ec8451a73650b6264b68ca59e32158f0a60dd00872cb000cf430a0c0406ff6ff728c25cf8e96a6c4a7844de51ca1b34ba6b2e899fae8d64f1d366f1734a9fe5b2cf101364d081b5506e51ff4bb7e09314dc832fd3a8a2a49355d962c6555118ce5825c9e75c2170333d445152556e87949697a4acb5bdc0d5ee080b131e2b313a474a585e66677ba2bbd6fafc0812151b2429383d415e5f757bec1617474c535e8f959ca3abc1c7cbd1d4d60000000000000000000000001225334401fd210500c6fad22fc2075d9740577f3eb3248217a26b44634114d442423160274d76b1edf54d7d3329b00b77b09f3349e6a16f70aa50696ccba090bf4ed274369ed078516a430aa6e2f3674b0b2b87d5d4bdabb2061f3bd0cc7d12a1bb13d2fe4193df1b5f2b64f262edb4e043c3a70670755350216f0c1f20b7d58d8875cbabd3649b97e7681098d5b49e5e5910495dad51894dbc67c0d96c2c5eb3be75cf8e7b5952912f277a98a4c4271313620e9cbb47f59c584cfdfd34b4d4d40bc2fce29e83fc84dfaf5885fa2970ef0e5aa91f6f7c6277e38c6a7089fa80924c2627270bd0f9c257e505edc8564327736fec61c9e6cb1dea4e8bf77c9a3e21cf56b7df14ddac6b69204895134f121ecc18dd83dd253a5acb4220e34921717651dc692ef6e7ac083b5103223204e74929d3611fbbd325adc6412edbdae5ab3eea74175751a0223f2d7707fd3dc9e1ce54ddc980db31c3b92891dfdaad3c7a7216a32eb1f0f390ba4dbb46a51936e1e2e02e57efccb6d077f3a1c8140ab571351b03058941fe74e9858ae81f9db97b85f4f8345381fc35b3279e9a212290bbe8b926803216b474976034c7d0108fb3efc5dd13d506a7eb8f2cf5528a45bb28ba5e5f1d6a9cabf7a2e9ea00c746a39a26e09b055ee39670f78170406bc7e54a14447ef0f46f72a27e6ef0eb7d534686f0067c8ddf1d9765275672b11f255d2b03936f01629d1bc3c6f2450826688c62d76fbc45c75a5c147fa7bde1939fa97ecc3583e6098b4c63a9a6dd89a28471ac907d1c241d65d1c18dd0cc187986d2967fb7f0d07bfed764e4294b08522c4d9960db60cda84594cd91a6edc3c5c732ac95a741fd69ed68c42d5929d4d0b3d47fbbd0bc89d3de82928f0bb7e0c9d6f822208c42913c569f0eb6dc5c20932e2e836b14f2fac9747bbee290e70d0958b74fab20f9bf72bfe38c2adce82abf97759201c2865dbb8c988b8bed4fce252e051af8a8b43fc2826d923bec193790dbd294d8e4f6edab21d40b7080becce3e5e616d93a3c5708ca2bb765f8832c6e518c33c010cff4d1f529a76b8c46df5514d1c403b584a01afcc51cc55ede95c29df53214b3c6b02d401a98b152b53717b6e0d97a134f936ee8cac8296b3669580e02ca9d1de8787a8999a6456694ed6f44392be61c8afc0ea31361ba2c1fe2cd4d088727de963e0dd741e5be2f1720f8a02b45653cd57e276682c5f1cbc889d94d3fa824a8d6fae1903d306178a3b8bdb0a4e80f0cac19bc451503e051504fed5743ce6991ccc441cc63dbc0c4cefcab4171abd72ee211263dc599faa8b3c160950d57edc9a8375858c2da51e791cda7eb7b7c2bcfce29e1c7d3d7d09eb9fd202d3612d6112c9da4a397eafa1236365970cec0606188757654216b91fec64535805d2719b2679b389ad1bbc7d6b8e871d10285d7504c410bef285f12c727cf6f5fe317d8c081dbd7a72a30118ca5b2398ef99b769a44b32f1ffc677a7152d82aa8ed78e0b18f2b41d02cc0ecbc0b34ca92d02dbca0091656067de0cbbbb0e9d2ca436e515fa0980af87a99bb5f343143d3c9edd8ac2fcf609eeb850a64336b33f362b369db5b028854134d80e10285b39f938aa79425bc5820b732bc57d43cadf530af313a075569e0877cfe216f5ec91ecca0bf918f4d52944b46a848a5e27092fa441b71417d61941ac4f71feb563029bc44733e9e15deee8ca8a072c6269613306bb01eaa2f5283f7498ed44d4b5e58dbd5daf0d18b617e74ec9ac0b6e3f70707747087f7b381b08b2aee14cc1de7f0784b4bb77347c78b1a36d6b68fcc7d14b4c2557555455825eb280aba164ab37bd6b1a7419c1c64fabf523d74000000",
  "txid": "8497d4444a461490c798cc5d35de4617d024880853e27802d289c368a8e75c77",
  "hash": "ecc270a6ae1d9668a9ca01d67b369a865e22d5707bff53f9b744e16100d70256",
  "size": 5085,
  "vsize": 2278,
  "version": 1,
  "locktime": 116,
  "vin": [
    {
      "txid": "a1eeac61b4cb72b470e2727a644217aacd9274ca0a188e96278789584fca5b6d",
      "vout": 1,
      "scriptSig": {
        "asm": "",
        "hex": ""
      },
      "txinwitness": [
        "d0da1c83f2322a131e187245a7e4dec19a4f6b6b9de17cd64e2ee3bed435694636382d8a0c5b505dd9dc859f4fb349515b74b13fdaa7bb71af2f948d4d7cced6295f63b6d37f2870220dae53315d6f6efc5d2b70fe2fe20e7e041d4cec2cdb49d68e266622b79c950070583d06289747d9804ca40ed57ebd90f5eb1c68e24b5e343641783ec58d066deb42e5b8a491103fbb24a890a830e186969fad4e870142e74961d9975c4b50a4cf95bc5fc13e0ec51a8b1a857cdbf5707d940f339f35bfcc030168233cfaa0bacee7b249f994ef20a8debbbf2d4983955dd1f6dcc15d8c14e348bd6d61c3668acae94177099fa9a6f7623987e393bfe3e45d8e24b6a0a1badd3cf1a5f20488699812c79872ee4a23c2505f67ab7f802db450714e485dd116e9d84fc3cb1611172ea79210bb1fc5e83532adc124b47e006bf4405962b5b72deb4c8987d9b659dcfeb08301e7692e3f327c486516651f3b6f020226f0b6b1e1e5a4c19d4d27461ceb9d1f3767493af766322005ec22ddbf558220674c57277b4891f5dc106b8cf20b0cc1f16c35b47292ad2cacf13bf1b71cab9467606a0b31769de2319e880237b07e7ebf34278d1d25c109e353aa3bd18259f29c7b90fd8b569bd4249b35a8cc8be45d5b1eb38c5039afc1f769ad300c06848712bc45a70a59c7d2e39050d68d0e2706ce38f007509b80e23c0dcfb13b971197c98d0b7078bdf857560f316c6b4a770b6750da25ae9b49d43cb66007e2292e9af6f42c94dd158c19be1417b8dad0c28609055185a920622bc2373cd5fe3af6cbfebfbe9e99ed66244cc80f9d3206d58f46d08000ab73bb54e7d43b40db6b6af46e784de550606fa58ed0f7b6112e4ae0f5b224f7e003a2973bc48e18f2db00235350272af04db3443d7adfe209432892721333333859916c60180d315eebcfa94332139ed45c88360350059bb97d36db79f1f19c3b81c6069a0a1d8543ec6d6b49bd654e0dd1a376451394e529f10c9b78d925e9a3d9b6f839e184729d83d952470c6d2f541962945dc98daa990dd8ad244b7c593193ebbcdf898a78470185db8e1cbb403c2004d135f522f17a76bd66c25d28d061d8323630fc9b18415213ad64674ba24d976d4e9511b85b4b196a5271ed533c9e9fdbbfb7c6653ee146593f9f226e1ad2178742626a31f0dd9cdf6999d7c0b0260257b0c8ad267bc6193dcfe0e50bf74ea84bcea0c7060dde37f3f2189a1b454c466de72dac88d6ae506a0d9022ea2e25fca04a292bdb8ac3a92fdcf493d00c4065333d5fb340e33e6165e7ce2f620e454cf5e0898e4efca4455298f7e4e8342412df6a9355ba40c6416765f570c73ca72f30b96eb1f6077d567cd000538d4ab4f4a1fdf226ae404f77b81067c5a7f131a5f9e8a07538f5f5e23627d85b7d429e98aa0895fcb9d7e94d53a4605b113438ba32e29d981fcadc76f79700cb7127ee3b99fe593a1db30ddd40f3b3a405af04abc0c931eaea3d676989be6ea97e19404f0781c4502deea819f4dc6632a1b3583e7a2a7580520a4391004d59eb8331926179d50e1961c534a437dc5bc1ef0c13613ed345789b45b42367b94f40ff86f546c6792883d2f19c561cc79a86cf790dab76d11b92a15d60311b684369f88a9011d8db718e94fc73026855cffa556cff57968879103789f3f60dbde5605f3f66844f401cd0f7409097aa6d7780c614bef7bb23a6c68fde73bfdc43f141a2144c585472b39b8594571da76047d6230d5fb5da4c2003a2e591d008ca24675a21396a328822e563729fea452deb0414ab07ee8b5b2921c77a24b53dc46963299693e97c01ff9cbb2b3291ded83a3cd0e2feeaae6d783a8b582bd649e7813eb75ffe78c335827fccd64a256b18d1a58699b3608d06e86489372ed67880948f23a92cdc3a848d1fc6bf48259b356cca6518fbf14c3086e6cdefbd88389d817eeb02c190b1de54728358756e7565f551c32e73c5ea99d03b250468cee562d9cd3c2902373d5d483b19aa262c487c5c976c03bac599479dafd7627bcbdf6164c66d71768fe09a5b1264bf49da67d8e40241e54aef8c84a5a0dcf09acdd0b600d6fba0cecec892b3461860d0cf0e40ac32f6d1d2b1c2c01369d53d2589a71c017cd776c3f77e403feb898c0ae3c3c543cbf4ed0306e0869b01555a3d1d3ce7d5401ddab599f3d22c8789129677212f262c098da354b23b1bba5d5d1072cbb0b66d0df731b8d214d1805b088da88a9105808fb100a067ad87cb06a7220e2fc2240cab10786981519034d614b6ae0a1a31cdad903efcc644e87d15fa6488a845960fa0fd77105d4ee274e74ac1d05430b26ed980b2d463503fbcf40372e5156fcf040e78db8bd499cb51e5ed63937bc0edc673190f92226365445b65b8370c11125442ada77fad23abcc34301ac67ba814c7cdbb2fbd78f8a8ec27464c2895ab57705f41931094424627aae71db70942a6ae0149c3cf2a7d6699d864dcae84d9d9ce75feeba27bd56b0e2327b50b8fc0b45294e8345f4a810dda4c97204506a5b0210c6b6272c88b82275ac19e71713a543fa57b6f6a1c639a1c667014930c3b2565f20d9cace022ace208d13681988f87c477f9079b000174b62f23a3b4f72dbd41f9d87139d24ed5c1ef516d9d700851c9800e3b173c7d22122a9e73c3f588f4929bb1c7cd2447dd4ee887b3596331983324d745dbf2931373287b74f77c052135556875a7ae6623d3bf600062b7346e5b625b47e4313195e26ac56e8557f4479338ac4e1a76c1913a0b042478cf2ae2b6950d03efff90c109fd1dfffd4c4f002da9062c19e31b5afb50cfe39db860eb23ce8a8898888af699cb9dbbe0335a770526f751953ca9eecb6ab88fdfbeea54ce629a2aa6e81eb01f09e5f6f44b9c2d5a3693d20828c8dcf3cba3af4edb4db147fc61155d01301ace426d5f99004a68fc9d50115566ca93e5a4016b9f1c1e8af7423722f6456cc131132eb73f01a63072ee5904f595a0827d189d1762154b7bef069263ad0571804afedc54ced235b6db21170bf86bcec4a1b709962640b2f8448ce0d6f3d702c24324d67b7554aa2f521793c633e29c3cec6f3e02532d5566d96900597763be403c8876d7d47375162a2a1b0e8109d9aae38b021ec8451a73650b6264b68ca59e32158f0a60dd00872cb000cf430a0c0406ff6ff728c25cf8e96a6c4a7844de51ca1b34ba6b2e899fae8d64f1d366f1734a9fe5b2cf101364d081b5506e51ff4bb7e09314dc832fd3a8a2a49355d962c6555118ce5825c9e75c2170333d445152556e87949697a4acb5bdc0d5ee080b131e2b313a474a585e66677ba2bbd6fafc0812151b2429383d415e5f757bec1617474c535e8f959ca3abc1c7cbd1d4d60000000000000000000000001225334401",
        "00c6fad22fc2075d9740577f3eb3248217a26b44634114d442423160274d76b1edf54d7d3329b00b77b09f3349e6a16f70aa50696ccba090bf4ed274369ed078516a430aa6e2f3674b0b2b87d5d4bdabb2061f3bd0cc7d12a1bb13d2fe4193df1b5f2b64f262edb4e043c3a70670755350216f0c1f20b7d58d8875cbabd3649b97e7681098d5b49e5e5910495dad51894dbc67c0d96c2c5eb3be75cf8e7b5952912f277a98a4c4271313620e9cbb47f59c584cfdfd34b4d4d40bc2fce29e83fc84dfaf5885fa2970ef0e5aa91f6f7c6277e38c6a7089fa80924c2627270bd0f9c257e505edc8564327736fec61c9e6cb1dea4e8bf77c9a3e21cf56b7df14ddac6b69204895134f121ecc18dd83dd253a5acb4220e34921717651dc692ef6e7ac083b5103223204e74929d3611fbbd325adc6412edbdae5ab3eea74175751a0223f2d7707fd3dc9e1ce54ddc980db31c3b92891dfdaad3c7a7216a32eb1f0f390ba4dbb46a51936e1e2e02e57efccb6d077f3a1c8140ab571351b03058941fe74e9858ae81f9db97b85f4f8345381fc35b3279e9a212290bbe8b926803216b474976034c7d0108fb3efc5dd13d506a7eb8f2cf5528a45bb28ba5e5f1d6a9cabf7a2e9ea00c746a39a26e09b055ee39670f78170406bc7e54a14447ef0f46f72a27e6ef0eb7d534686f0067c8ddf1d9765275672b11f255d2b03936f01629d1bc3c6f2450826688c62d76fbc45c75a5c147fa7bde1939fa97ecc3583e6098b4c63a9a6dd89a28471ac907d1c241d65d1c18dd0cc187986d2967fb7f0d07bfed764e4294b08522c4d9960db60cda84594cd91a6edc3c5c732ac95a741fd69ed68c42d5929d4d0b3d47fbbd0bc89d3de82928f0bb7e0c9d6f822208c42913c569f0eb6dc5c20932e2e836b14f2fac9747bbee290e70d0958b74fab20f9bf72bfe38c2adce82abf97759201c2865dbb8c988b8bed4fce252e051af8a8b43fc2826d923bec193790dbd294d8e4f6edab21d40b7080becce3e5e616d93a3c5708ca2bb765f8832c6e518c33c010cff4d1f529a76b8c46df5514d1c403b584a01afcc51cc55ede95c29df53214b3c6b02d401a98b152b53717b6e0d97a134f936ee8cac8296b3669580e02ca9d1de8787a8999a6456694ed6f44392be61c8afc0ea31361ba2c1fe2cd4d088727de963e0dd741e5be2f1720f8a02b45653cd57e276682c5f1cbc889d94d3fa824a8d6fae1903d306178a3b8bdb0a4e80f0cac19bc451503e051504fed5743ce6991ccc441cc63dbc0c4cefcab4171abd72ee211263dc599faa8b3c160950d57edc9a8375858c2da51e791cda7eb7b7c2bcfce29e1c7d3d7d09eb9fd202d3612d6112c9da4a397eafa1236365970cec0606188757654216b91fec64535805d2719b2679b389ad1bbc7d6b8e871d10285d7504c410bef285f12c727cf6f5fe317d8c081dbd7a72a30118ca5b2398ef99b769a44b32f1ffc677a7152d82aa8ed78e0b18f2b41d02cc0ecbc0b34ca92d02dbca0091656067de0cbbbb0e9d2ca436e515fa0980af87a99bb5f343143d3c9edd8ac2fcf609eeb850a64336b33f362b369db5b028854134d80e10285b39f938aa79425bc5820b732bc57d43cadf530af313a075569e0877cfe216f5ec91ecca0bf918f4d52944b46a848a5e27092fa441b71417d61941ac4f71feb563029bc44733e9e15deee8ca8a072c6269613306bb01eaa2f5283f7498ed44d4b5e58dbd5daf0d18b617e74ec9ac0b6e3f70707747087f7b381b08b2aee14cc1de7f0784b4bb77347c78b1a36d6b68fcc7d14b4c2557555455825eb280aba164ab37bd6b1a7419c1c64fabf523d"
      ],
      "sequence": 4294967294
    }
  ],
  "vout": [
    {
      "value": 1.0,
      "n": 0,
      "scriptPubKey": {
        "asm": "OP_RETURN cb28ec8ec4d7ba90536a844d0c263817187cd5e4acb9bcba29fd897f70b18af3 840411bf96db6d01b0eab27f1fdc10fee3165415350135528e96d4e23f187a90a424319fb6fb4d2190ca925f3ffc30dec336743515211572aeb6f4c21f385ab0c44451ffd69b2d41f0aaf23f5f9c50bea356145575417512ced694a27f583ad0e46471dff6bb0d61d08ad21f7fbc709e8376347555615532eef6b4825f781af00484913f165bed81306a32ff9f5c907e6396d495b581b5d20e165462bf98fa1024a4b11f367bcda1104a12dfbf7cb05e43b6f4b595a195f22e3674429fb8da3044c4d17f561badc1702a72bfdf1cd03e23d694d5f5c1f5924e561422ffd8ba5064e4f15f763b8de1500a529fff3cf01e03f6b4f5d5e1d5b26e763402dff89a70840411bf96db6d01b0eab27f1fdc10fee3165415350135528e96d4e23f187a90a424319fb6fb4d2190ca925f3ffc30dec336743515211572aeb6f4c21f385ab0c44451ffd69b2d41f0aaf23f5f9c50bea356145575417512ced694a27f583ad0e46471dff6bb0d61d08ad21f7fbc709e8376347555615532eef6b4825f781af00484913f165bed81306a32ff9f5c907e6396d495b581b5d20e165462bf98fa1024a4b11f367bcda1104a12dfbf7cb05e43b6f4b595a195f22e3674429fb8da3044c4d17f561badc1702a72bfdf1cd03e23d694d5f5c1f5924e561422ffd8ba5064e4f15f763b8de1500a529fff3cf01e03f6b4f5d5e1d5b26e763402dff89a70840411bf96db6d01b0eab27f1fdc10fee3165415350135528e96d4e23f187a90a424319fb6fb4d2190ca925f3ffc30dec336743515211572aeb6f4c21f385ab0c44451ffd69b2d41f0aaf23f5f9c50bea356145575417512ced694a27f583ad0e46471dff6bb0d61d08ad21f7fbc709e8376347555615532eef6b4825f781af00484913f165bed81306a32ff9f5c907e6396d495b581b5d20e165462bf98fa1024a4b11f367bcda1104a12dfbf7cb05e43b6f4b595a195f22e3674429fb8da3044c4d17f561badc1702a72bfdf1cd03e23d694d5f5c1f5924e561422ffd8ba5064e4f15f763b8de1500a529fff3cf01e03f6b4f5d5e1d5b26e763402dff89a70840411bf96db6d01b0eab27f1fdc10fee3165415350135528e96d4e23f187a90a424319fb6fb4d2190ca925f3ffc30dec336743515211572aeb6f4c21f385ab0c44451ffd69b2d41f0aaf23f5f9c50bea356145575417512ced694a27f583ad0e46471dff6bb0d61d08ad21f7fbc709e8376347555615532eef6b4825f781af00484913f165bed81306a32ff9f5c907e6396d495b581b5d20e165462bf98fa1024a4b11f367bcda1104a12dfbf7cb05e43b6f4b595a195f22e3674429fb8da3044c4d17f561badc1702a72bfdf1cd03e23d694d5f5c1f5924e561422ffd8ba5064e4f15f763b8de1500a529fff3cf01e03f6b4f5d5e1d5b26e763402dff89a70840411bf96db6d01b0eab27f1fdc10fee3165415350135528e96d4e23f187a90a424319fb6fb4d2190ca925f3ffc30dec336743515211572aeb6f4c21f385ab0c44451ffd69b2d41f0aaf23f5f9c50bea356145575417512ced694a27f583ad0e46471dff6bb0d61d08ad21f7fbc709e8376347555615532eef6b4825f781af00484913f165bed81306a32ff9f5c907e9245faccb4908174b864fe063c747e722c48c3a2891f18abb882fbec6373939a",
        "hex": "6a20cb28ec8ec4d7ba90536a844d0c263817187cd5e4acb9bcba29fd897f70b18af34db004840411bf96db6d01b0eab27f1fdc10fee3165415350135528e96d4e23f187a90a424319fb6fb4d2190ca925f3ffc30dec336743515211572aeb6f4c21f385ab0c44451ffd69b2d41f0aaf23f5f9c50bea356145575417512ced694a27f583ad0e46471dff6bb0d61d08ad21f7fbc709e8376347555615532eef6b4825f781af00484913f165bed81306a32ff9f5c907e6396d495b581b5d20e165462bf98fa1024a4b11f367bcda1104a12dfbf7cb05e43b6f4b595a195f22e3674429fb8da3044c4d17f561badc1702a72bfdf1cd03e23d694d5f5c1f5924e561422ffd8ba5064e4f15f763b8de1500a529fff3cf01e03f6b4f5d5e1d5b26e763402dff89a70840411bf96db6d01b0eab27f1fdc10fee3165415350135528e96d4e23f187a90a424319fb6fb4d2190ca925f3ffc30dec336743515211572aeb6f4c21f385ab0c44451ffd69b2d41f0aaf23f5f9c50bea356145575417512ced694a27f583ad0e46471dff6bb0d61d08ad21f7fbc709e8376347555615532eef6b4825f781af00484913f165bed81306a32ff9f5c907e6396d495b581b5d20e165462bf98fa1024a4b11f367bcda1104a12dfbf7cb05e43b6f4b595a195f22e3674429fb8da3044c4d17f561badc1702a72bfdf1cd03e23d694d5f5c1f5924e561422ffd8ba5064e4f15f763b8de1500a529fff3cf01e03f6b4f5d5e1d5b26e763402dff89a70840411bf96db6d01b0eab27f1fdc10fee3165415350135528e96d4e23f187a90a424319fb6fb4d2190ca925f3ffc30dec336743515211572aeb6f4c21f385ab0c44451ffd69b2d41f0aaf23f5f9c50bea356145575417512ced694a27f583ad0e46471dff6bb0d61d08ad21f7fbc709e8376347555615532eef6b4825f781af00484913f165bed81306a32ff9f5c907e6396d495b581b5d20e165462bf98fa1024a4b11f367bcda1104a12dfbf7cb05e43b6f4b595a195f22e3674429fb8da3044c4d17f561badc1702a72bfdf1cd03e23d694d5f5c1f5924e561422ffd8ba5064e4f15f763b8de1500a529fff3cf01e03f6b4f5d5e1d5b26e763402dff89a70840411bf96db6d01b0eab27f1fdc10fee3165415350135528e96d4e23f187a90a424319fb6fb4d2190ca925f3ffc30dec336743515211572aeb6f4c21f385ab0c44451ffd69b2d41f0aaf23f5f9c50bea356145575417512ced694a27f583ad0e46471dff6bb0d61d08ad21f7fbc709e8376347555615532eef6b4825f781af00484913f165bed81306a32ff9f5c907e6396d495b581b5d20e165462bf98fa1024a4b11f367bcda1104a12dfbf7cb05e43b6f4b595a195f22e3674429fb8da3044c4d17f561badc1702a72bfdf1cd03e23d694d5f5c1f5924e561422ffd8ba5064e4f15f763b8de1500a529fff3cf01e03f6b4f5d5e1d5b26e763402dff89a70840411bf96db6d01b0eab27f1fdc10fee3165415350135528e96d4e23f187a90a424319fb6fb4d2190ca925f3ffc30dec336743515211572aeb6f4c21f385ab0c44451ffd69b2d41f0aaf23f5f9c50bea356145575417512ced694a27f583ad0e46471dff6bb0d61d08ad21f7fbc709e8376347555615532eef6b4825f781af00484913f165bed81306a32ff9f5c907e9245faccb4908174b864fe063c747e722c48c3a2891f18abb882fbec6373939a",
        "type": "nulldata"
      }
    },
    {
      "value": 499978.6451,
      "n": 1,
      "scriptPubKey": {
        "asm": "1 0acea8a46b4991c46482792f57d7ed4bce63d8b13a3ab346dbb53e87ca4d2b72",
        "hex": "51200acea8a46b4991c46482792f57d7ed4bce63d8b13a3ab346dbb53e87ca4d2b72",
        "reqSigs": 1,
        "type": "witness_v1_scripthash",
        "addresses": [
          "3QJmnh"
        ]
      }
    }
  ],
  "blockhash": "73359bfd0a4582986ffd1e7664419d7a0ef7b090643ab62685454f7a097cd719",
  "confirmations": 1,
  "time": 1764179247,
  "blocktime": 1764179247
}