{
  "hex": "010000000001016135580a7ca04c5b335195cd6c2fa908aaeefb348f219ac530977f4f10f6b2c90000000000feffffff0200e1f50500000000fdd5046a2025a5092981edcf0110a528ac95958112761506bdaba545350aa971e15d3abd7c4db0046e27c5de8b94976ca642fa04fc209d2a4cfe41050b2a8375b18c0f590cdde4334e07e5feabb4b74c8662da24dc00bd0a6cde61252b0aa35591ac2f792cfdc4132e67859ecbd4d72ce602ba44bc60dd6a0cbe01454b6ac335f1cc4f194c9da4730e47a5beebf4f70cc6229a649c40fd4a2c9e21656b4ae315d1ec6f396cbd8453eea7455e0b1417ec26c27a847ca01daacc7ec1858baa03f5310c8fd98c5d64b3ce87657e2b3437cc06e25aa45c803d8aec5ee1a5ab8a23d5112caff9ac7d4493aee7051e4b5457ac66823ac43ce05dea8c3e81c5cbea43b5714ccf99cc1d24f38ec7253e6b74778c46a21ae41cc07dcaac1ea1e5ebca6395516cefb9ec3d04d36e27c5de8b94976ca642fa04fc209d2a4cfe41050b2a8375b18c0f590cdde4334e07e5feabb4b74c8662da24dc00bd0a6cde61252b0aa35591ac2f792cfdc4132e67859ecbd4d72ce602ba44bc60dd6a0cbe01454b6ac335f1cc4f194c9da4730e47a5beebf4f70cc6229a649c40fd4a2c9e21656b4ae315d1ec6f396cbd8453eea7455e0b1417ec26c27a847ca01daacc7ec1858baa03f5310c8fd98c5d64b3ce87657e2b3437cc06e25aa45c803d8aec5ee1a5ab8a23d5112caff9ac7d4493aee7051e4b5457ac66823ac43ce05dea8c3e81c5cbea43b5714ccf99cc1d24f38ec7253e6b74778c46a21ae41cc07dcaac1ea1e5ebca6395516cefb9ec3d04d36e27c5de8b94976ca642fa04fc209d2a4cfe41050b2a8375b18c0f590cdde4334e07e5feabb4b74c8662da24dc00bd0a6cde61252b0aa35591ac2f792cfdc4132e67859ecbd4d72ce602ba44bc60dd6a0cbe01454b6ac335f1cc4f194c9da4730e47a5beebf4f70cc6229a649c40fd4a2c9e21656b4ae315d1ec6f396cbd8453eea7455e0b1417ec26c27a847ca01daacc7ec1858baa03f5310c8fd98c5d64b3ce87657e2b3437cc06e25aa45c803d8aec5ee1a5ab8a23d5112caff9ac7d4493aee7051e4b5457ac66823ac43ce05dea8c3e81c5cbea43b5714ccf99cc1d24f38ec7253e6b74778c46a21ae41cc07dcaac1ea1e5ebca6395516cefb9ec3d04d36e27c5de8b94976ca642fa04fc209d2a4cfe41050b2a8375b18c0f590cdde4334e07e5feabb4b74c8662da24dc00bd0a6cde61252b0aa35591ac2f792cfdc4132e67859ecbd4d72ce602ba44bc60dd6a0cbe01454b6ac335f1cc4f194c9da4730e47a5beebf4f70cc6229a649c40fd4a2c9e21656b4ae315d1ec6f396cbd8453eea7455e0b1417ec26c27a847ca01daacc7ec1858baa03f5310c8fd98c5d64b3ce87657e2b3437cc06e25aa45c803d8aec5ee1a5ab8a23d5112caff9ac7d4493aee7051e4b5457ac66823ac43ce05dea8c3e81c5cbea43b5714ccf99cc1d24f38ec7253e6b74778c46a21ae41cc07dcaac1ea1e5ebca6395516cefb9ec3d04d36e27c5de8b94976ca642fa04fc209d2a4cfe41050b2a8375b18c0f590cdde4334e07e5feabb4b74c8662da24dc00bd0a6cde61252b0aa35591ac2f792cfdc4132e67859ecbd4d72ce602ba44bc60dd6a0cbe01454b6ac335f1cc4f194c9da4730e47a5beebf4f70cc6229a649c40fd4a2c9e21656b4ae315d1ec6f396cbd8453eea7455e0b1417ec26c27a847ca01daaf06c85a9b373f5881229bd8be3c9e74b53df85cd804cb57e1ba779c47cfae796a020df63792d00002251201cd2f7768d924a42e000e7f2df76c275ad4a0a48e42a7a1b7a85216066eae19802fd7509e05c53af481adfb3b5b7f509563120299fd9c80c66b6b9ab28731639d3bcfc8543bdd2ffd9c723e9b752ae2e19b039474f305b87d452ee19e9bfc68c6cbdeb66187e9646ae630bdbc5c127d2fc4d90a9d30e0d8ff41f846045e62b7262fdb8b13c8374b85908d84150cf6809a3a449bf08b5de68cfbb8d5ff430c089af72ef4719c76b0652008e0e266731d566100d6389ea06aa501d9b42a14acea88aef4552a24a2080076023e90e87e3857ae2ba3b06c3def515695707548c00fe66950f2bb46145cd7621e25d275337d7e9a43cb4644d432fe77086878b40e555eb0d29eb99615351e11d110cbb11d15dc1c35c44fb1d0861a4b9a17372a2656ae63681d9972f5f78847cfb9052f70ccb94fb394b990afb1a6cd51c71effea18d7877f747bb53784e7ff4ecc018b6b1a786df7b9e4e0b2c7933e0759c9b1245d1e2eb869961a8452d1b37a10b9e422ff32079f6f56f184732bb68106502e631bf0e566991b34f478a0ec9ae8e0bdea860f6bf145b8858f6215f0d3b243629b0c143aabb2c02182d50763218c05c9492fa84187b4117529ba119bad03bd83778486bc225e79725003e4e4f55129a20da37d905af6eff8b0450d314a950dedb8eb42f13e191e6396e310533f10b86a611c785c52a0bbff98213b3c322289e33b6d72781f1d44d143036282e3db72c46dca85426cfc0513d5b8464055a5f8677876416c66d521451e63f146e47ee10b7decf6f0008e20749e9f3a5228072640f86bc9fcdda266f08e45078f8e00a5453851eaa88f5a4bd2135f5004ebb62c34b2d302f585d789ab0104bd092769cc060673b8f7db772c8f1d1d1f950c778f64eb43e38f83edc9ef730726e806b0eeb4a75f6f6d887865f743705bc9fba19f9832e58f146a97fbb4f748137dc98de1e2944609adb52273147b88688e56e981117b8b61a0bb89e218aa913a6ab1d3adf818e8fc986e86856eaafb2da2f4652e502bd1ede9ee2c674b8b49b84bc65ba323741ec17bf270cf1fade058f213fdfff7362481b196e22ccdbff9c0fa887c48da3b1a78195dc4d8d09f16e0f57d70a7d73b68a00b4a6a4b911489827892f7bca2e704490054f8dd9fb4a11a4f799479172ebc5ff595cb443adb12399bf176deeedf7a3c3655d93e0daf3634953fcb188409b1363265f96fa455e052a880e1e12b5c8cdfff753c4dcb9865a7a638a75254d99855b6a6808b8392d94477bf9d649ffcdb40d15c6a91c5987e12ab38a4b1015ab85497283014622fb19eaa5d1cfe6989178a29e5e3720c414da297f446152d11dd69e8fe3174e4711790ce8b5616dec9c6a0e56b2e0f10f2163f2145f97db0a3227de1ab53bb69f03af601dafe53e2a3a3e8d2734cb3c8ffede19eac42fa6d651404fb1393e587887ad3e9eb98a9b721ecf74f6fa2b4352de8dd4fc650bd22fb7cba7cb123102b19698b23e113d46439bb564a343c8434aa28d842305a5af499860ceb65078a7a4aea5a9a49bed836b43addbe701416f359a73478bc0a846f41209f3ceaeff0d4631c96b8ba460c17ea06cd592232fb6a667776ed4900582cf4f98dc06620492d067099f1594c67bb8694c4753fe516872667ceab5008b1ac901ca465745cc17cd0a936e91909688087ce163559118fd3f4aafb10120292190fc1757b0016dc447bef86f19242306d86e2742bdc5cbb7edd60a79f2c776b325fa7fbf7e72d1a9d8b04f1cc5fe679363bb32d1e73312abc55106231075ca2a3b0dafaaefed2d14d72c37cf36156e1b1968d4b17f4fe04d6b6a3411745f0422f04d24dac36a2522b0a91f111a59e94b13dcfd16ea0a9e1da5ce21d618f45e5866ebd1c82bf95e61e00a47b93485aa272fa4d295894b04ab8e36eae9de6ff4210b3f0d4638a1bab612d92156a6f410a40f95009e24a0866900ff1076c62fb8fd1c5b180bdefcf6f60fe5c33dad199f803032ff83b3151c3f3378750803cb688da25fa9153ead9a64cea5164f0622a9b2ca7c7892cb95aa7effd8c75ceea4386093b7bd0e64726c74a5814f5d4ed5ac2c1d2b05a0cb9d7e2a4595296050463672645392a56a16d7f51bb159b4df57c53bd45b98d4ed4dbc469153f4fda73f0f5bd07547c7facdb87ee69e3bb8fdd960155375978a919db66667e74c16b84456aedc285856619befbd8493015f7063624cedc92b6fa2f9ccd74fa2fcd927c39fe4523140ecd8b49fc78b37a4384e6defe1877515b972931f4f9439c8906d10848a1f29c25e372438a7211b182120fc8c1c703754b68d37027950f524a3e0108521ebf8d9a5599976258ed72f7cf341d61f003653cb7a09f28957cdc1efaee8b261a1c26bfad53e3c9a438c3c6104d260e6c215c8d1953aeb225ddb788504c30d62aee26993869c52e47667a5fd1d9c4ecf53c9d42a26669a0cbdfddf15bede3ec713b8c356528192af8ae548460a2a80699c00a2d46c36b5a2406bdc3f177e6a7761eb5ea9e46c5064a5d97559de59e71b42ae000d93540920c789eba0fcfcd5347be07eb24f97100d09a1e84a9e30286864e54d627da621dcbe638c7dcfb9e293ee45c4bcf5e9ea6b566edd10f8cf2407873b1c9cb2b5958c9a2a88290b7c1504c63cce9d38459b846e69e3c4d87d8955d88dd84aa2b7970782176c07e20d56f49e8626061775a53c5a3facbd1342599a2a6bd854d987621f97bda2f36b35f6ad242144f873eeb7958c104e085265ef31355a9402da0e91132c21aab0b0dee9e44812921007a54fa30759266f8df8d5a1a3b471da31e87ae5d87f481c406a946436e5e33c86abe44b90a7c940de126b39e9446811645915507611859be3cf7fec71d8991a1840a4d343e2472e102546a469085c37a0ad662bab21ab28038d69de2c3dcca6e5b4c19e692075bce76d29d9b02097806b764b3311a929165ea64e9b721fdb19647284c3c89ac941ab7458b3fb12c2b97b715d2d4e2dd326d95739a699d9c5a02ab5353d5910cc08cd8329afc22e66148b4427b11fc9269a6a6cd3ea79689c01c15ec24ab98b595de09559309a05092704221329a8dc607d9dd573ead2b9ed5b9bbba23567f4a88815b9cad360841bffccf25dc6acdd1fc19f0937a7d2154940c90ff4cd3029e6f28919d527f2a09e0cb400f76d501a067e505da2fcdc1fdc6fd9df9534bc03f2317df0cc6cd77ce296d7596941e9acfe1685d794bfb812f1d933d4dd3bf8ce52e00b77be0259043714a64bb5fa0efe4635221896c86c05aad7b4df3d55ee0d498651264ff783b31a3ade1e6d2e7652f84493147f7a8be844c81a9484090d181c272a2f3848545867919fa1b0b1b7c4deee3239437686888b9da0a1afd6ebf0122b2e4f63657f86898b9b9cabb3da0f1d273e5773a0aed5eb00000000000000000000000000000000000000001523323c01fd2105008189a363bddf4475b2ac59fac69c2eeb898925af572f19867df26bc69f76b6be946a4d7c3a4143c9e14c99c27093c0763081c8626a51ba4ddda5a51bb84125fa9d0c4da8cad15a6296d10fccf9ec5329f016d5136b148b7a412f5578c45cf1e71ac648bf6b9ae040e8caee32631e9ad46bf0e644a940e2192b62748ca1e469ecdd54ce3a0e458728b4522fe96eef792957d27e05f44dbc60b44d38e2c705d41d7e4e0150f9119808c8f1959a7ed09603ed750c10d94175eda68db3da623aedf2ac22ad98ec254dbdaa74a32199877d2ce1c8c6d93fae35e0e013b43310b71a692e6e73e4fc1db36a12239f3fa811432b58b32ae3a0741dabd9c1e15aae9ae5b4fc3715070fc824f6937364856da03641df07894bb31ae643aa77dcdc8ac76bae5194309b8d3ad2b6803fd3ecfe27fc1bd7315b2b30c7e4096e0bb322e0aa90deed212be8318e3010f1b454188f7234c4c59e94cb111b38e5c8e13d5524ac977daec8d83fd7d830d41bc2ac5e02a88a12c4d9a8cadc31a70001a3ddd08b81e66040225dcab20154706259817278d28510d65251ae0d36f43492baeb0b7b68b4f6e0bc8a42ce831f774b099086811958c08a346d158b9c4e23860d703dd6f26e8279c9ac01528a2e44f9d42929cb8bade900d130e181d4db6d6d249f1518b574c71146aa8312d4c35e41955d51e2b720880c1a1f4689e632c0763001dd12405a68121c23d538ea3ea8997bcfa033ddfa1511745dc12aba414839cd16dc17f8343bef36dfe1155743ec16ff322a512d633c9e124c3e805851858db260c4cbde37ddf5bc278451f9738240e0af4bc244dda7a6c686635944310bb89efb8b344abb98c323cc12683de5ab3595c7adbeac9996c0d1c470063a9313b5de0dc7d005e798986fb78504f6b3913cc689d0088fd0a3317592e7470a08a8206d1c6800b6569bc43bdbc7b521ef7b09d6755c6621df5f8ff1f8a2ed160dc86082877f785005a532144f9955864a5d749e1b603202966f9e90a54fad98091798f88cd09ad3b4eed9234ee898159cef0a2579c0ea8088460209518e413daab3bc33a211c7bf17c8e31c06881b8963f2685c07b8ad4ff2f8eec41b08d5c16f34a16259ff22e8b78513b676926d75bd355fc01db5d2eb8373a48c7aa8a0da5934fced6102df4472015817222bd15832e97993f4cc05478fad86530f080b490322f5e912af52111794c82b45cfaa1b503668dd3ed967954027ab2b70b3ba41d4be6537eb8101773367ab3f25dfb6acb151e0d5ceea6096d13bfe98f0901d6949ba10dd729f6627679e37df165c4aa39ac7ba5d12b3535c12e195d81fc92ac6358dbd9fa5a37744f40a204d49a01054b447164db97823677d0f9d9a88dadd06924294dd42ba43c0c836ba5176fc0d33aa7f9c937b005261cc28b643ceeb9969b3f3c1e56623e23032f3d5703760d3956bc8b3d546c64d9fda95800c151dab381e7e937b0417d767055094ffb212cf1eb5304533a8ca948c89e589574eb0efbc466d7e5098625fe76ecfc945c438c9cebf3c45f5b03f84111bed83e9c7a52c0dd1b9304a4977225b953cfb35be41701fb9ce1a5f9558d49274e7f2250d835dac8d601172bd1c59270b3becbb53b0146e9e948b3c4b3079c5c0308dfd03dc7f0a2a4d0323bd98cf60922178d8be642de40ddaf792ad02194e359f50a49ce171372d32f89e6a99ac820c312dada183c0b96c28736c7184ad49589edb16bb323f088f70e9137a98065207f2fc7c2575f91ab0b104c05de6323d437238bfc4708e0082d507f5c89e1e40e63e176ad622b4e269b4db9dca5ae4a55b298eac78f13a0b740cb8d9bdb5ecdfa2c068000000",
  "txid": "871cb3213370cb09ee800c4200ba5115245e32026554cb5d994c5deabd3a73eb",
  "hash": "87c5f40a7b20bd4b047c1fa94d967463c8f2f9e2b8e1f7e36eaf6169519d95f3",
  "size": 5085,
  "vsize": 2278,
  "version": 1,
  "locktime": 104,
  "vin": [
    {
      "txid": "c9b2f6104f7f9730c59a218f34fbeeaa08a92f6ccd9551335b4ca07c0a583561",
      "vout": 0,
      "scriptSig": {
        "asm": "",
        "hex": ""
      },
      "txinwitness": [
        "e05c53af481adfb3b5b7f509563120299fd9c80c66b6b9ab28731639d3bcfc8543bdd2ffd9c723e9b752ae2e19b039474f305b87d452ee19e9bfc68c6cbdeb66187e9646ae630bdbc5c127d2fc4d90a9d30e0d8ff41f846045e62b7262fdb8b13c8374b85908d84150cf6809a3a449bf08b5de68cfbb8d5ff430c089af72ef4719c76b0652008e0e266731d566100d6389ea06aa501d9b42a14acea88aef4552a24a2080076023e90e87e3857ae2ba3b06c3def515695707548c00fe66950f2bb46145cd7621e25d275337d7e9a43cb4644d432fe77086878b40e555eb0d29eb99615351e11d110cbb11d15dc1c35c44fb1d0861a4b9a17372a2656ae63681d9972f5f78847cfb9052f70ccb94fb394b990afb1a6cd51c71effea18d7877f747bb53784e7ff4ecc018b6b1a786df7b9e4e0b2c7933e0759c9b1245d1e2eb869961a8452d1b37a10b9e422ff32079f6f56f184732bb68106502e631bf0e566991b34f478a0ec9ae8e0bdea860f6bf145b8858f6215f0d3b243629b0c143aabb2c02182d50763218c05c9492fa84187b4117529ba119bad03bd83778486bc225e79725003e4e4f55129a20da37d905af6eff8b0450d314a950dedb8eb42f13e191e6396e310533f10b86a611c785c52a0bbff98213b3c322289e33b6d72781f1d44d143036282e3db72c46dca85426cfc0513d5b8464055a5f8677876416c66d521451e63f146e47ee10b7decf6f0008e20749e9f3a5228072640f86bc9fcdda266f08e45078f8e00a5453851eaa88f5a4bd2135f5004ebb62c34b2d302f585d789ab0104bd092769cc060673b8f7db772c8f1d1d1f950c778f64eb43e38f83edc9ef730726e806b0eeb4a75f6f6d887865f743705bc9fba19f9832e58f146a97fbb4f748137dc98de1e2944609adb52273147b88688e56e981117b8b61a0bb89e218aa913a6ab1d3adf818e8fc986e86856eaafb2da2f4652e502bd1ede9ee2c674b8b49b84bc65ba323741ec17bf270cf1fade058f213fdfff7362481b196e22ccdbff9c0fa887c48da3b1a78195dc4d8d09f16e0f57d70a7d73b68a00b4a6a4b911489827892f7bca2e704490054f8dd9fb4a11a4f799479172ebc5ff595cb443adb12399bf176deeedf7a3c3655d93e0daf3634953fcb188409b1363265f96fa455e052a880e1e12b5c8cdfff753c4dcb9865a7a638a75254d99855b6a6808b8392d94477bf9d649ffcdb40d15c6a91c5987e12ab38a4b1015ab85497283014622fb19eaa5d1cfe6989178a29e5e3720c414da297f446152d11dd69e8fe3174e4711790ce8b5616dec9c6a0e56b2e0f10f2163f2145f97db0a3227de1ab53bb69f03af601dafe53e2a3a3e8d2734cb3c8ffede19eac42fa6d651404fb1393e587887ad3e9eb98a9b721ecf74f6fa2b4352de8dd4fc650bd22fb7cba7cb123102b19698b23e113d46439bb564a343c8434aa28d842305a5af499860ceb65078a7a4aea5a9a49bed836b43addbe701416f359a73478bc0a846f41209f3ceaeff0d4631c96b8ba460c17ea06cd592232fb6a667776ed4900582cf4f98dc06620492d067099f1594c67bb8694c4753fe516872667ceab5008b1ac901ca465745cc17cd0a936e91909688087ce163559118fd3f4aafb10120292190fc1757b0016dc447bef86f19242306d86e2742bdc5cbb7edd60a79f2c776b325fa7fbf7e72d1a9d8b04f1cc5fe679363bb32d1e73312abc55106231075ca2a3b0dafaaefed2d14d72c37cf36156e1b1968d4b17f4fe04d6b6a3411745f0422f04d24dac36a2522b0a91f111a59e94b13dcfd16ea0a9e1da5ce21d618f45e5866ebd1c82bf95e61e00a47b93485aa272fa4d295894b04ab8e36eae9de6ff4210b3f0d4638a1bab612d92156a6f410a40f95009e24a0866900ff1076c62fb8fd1c5b180bdefcf6f60fe5c33dad199f803032ff83b3151c3f3378750803cb688da25fa9153ead9a64cea5164f0622a9b2ca7c7892cb95aa7effd8c75ceea4386093b7bd0e64726c74a5814f5d4ed5ac2c1d2b05a0cb9d7e2a4595296050463672645392a56a16d7f51bb159b4df57c53bd45b98d4ed4dbc469153f4fda73f0f5bd07547c7facdb87ee69e3bb8fdd960155375978a919db66667e74c16b84456aedc285856619befbd8493015f7063624cedc92b6fa2f9ccd74fa2fcd927c39fe4523140ecd8b49fc78b37a4384e6defe1877515b972931f4f9439c8906d10848a1f29c25e372438a7211b182120fc8c1c703754b68d37027950f524a3e0108521ebf8d9a5599976258ed72f7cf341d61f003653cb7a09f28957cdc1efaee8b261a1c26bfad53e3c9a438c3c6104d260e6c215c8d1953aeb225ddb788504c30d62aee26993869c52e47667a5fd1d9c4ecf53c9d42a26669a0cbdfddf15bede3ec713b8c356528192af8ae548460a2a80699c00a2d46c36b5a2406bdc3f177e6a7761eb5ea9e46c5064a5d97559de59e71b42ae000d93540920c789eba0fcfcd5347be07eb24f97100d09a1e84a9e30286864e54d627da621dcbe638c7dcfb9e293ee45c4bcf5e9ea6b566edd10f8cf2407873b1c9cb2b5958c9a2a88290b7c1504c63cce9d38459b846e69e3c4d87d8955d88dd84aa2b7970782176c07e20d56f49e8626061775a53c5a3facbd1342599a2a6bd854d987621f97bda2f36b35f6ad242144f873eeb7958c104e085265ef31355a9402da0e91132c21aab0b0dee9e44812921007a54fa30759266f8df8d5a1a3b471da31e87ae5d87f481c406a946436e5e33c86abe44b90a7c940de126b39e9446811645915507611859be3cf7fec71d8991a1840a4d343e2472e102546a469085c37a0ad662bab21ab28038d69de2c3dcca6e5b4c19e692075bce76d29d9b02097806b764b3311a929165ea64e9b721fdb19647284c3c89ac941ab7458b3fb12c2b97b715d2d4e2dd326d95739a699d9c5a02ab5353d5910cc08cd8329afc22e66148b4427b11fc9269a6a6cd3ea79689c01c15ec24ab98b595de09559309a05092704221329a8dc607d9dd573ead2b9ed5b9bbba23567f4a88815b9cad360841bffccf25dc6acdd1fc19f0937a7d2154940c90ff4cd3029e6f28919d527f2a09e0cb400f76d501a067e505da2fcdc1fdc6fd9df9534bc03f2317df0cc6cd77ce296d7596941e9acfe1685d794bfb812f1d933d4dd3bf8ce52e00b77be0259043714a64bb5fa0efe4635221896c86c05aad7b4df3d55ee0d498651264ff783b31a3ade1e6d2e7652f84493147f7a8be844c81a9484090d181c272a2f3848545867919fa1b0b1b7c4deee3239437686888b9da0a1afd6ebf0122b2e4f63657f86898b9b9cabb3da0f1d273e5773a0aed5eb00000000000000000000000000000000000000001523323c01",
        "008189a363bddf4475b2ac59fac69c2eeb898925af572f19867df26bc69f76b6be946a4d7c3a4143c9e14c99c27093c0763081c8626a51ba4ddda5a51bb84125fa9d0c4da8cad15a6296d10fccf9ec5329f016d5136b148b7a412f5578c45cf1e71ac648bf6b9ae040e8caee32631e9ad46bf0e644a940e2192b62748ca1e469ecdd54ce3a0e458728b4522fe96eef792957d27e05f44dbc60b44d38e2c705d41d7e4e0150f9119808c8f1959a7ed09603ed750c10d94175eda68db3da623aedf2ac22ad98ec254dbdaa74a32199877d2ce1c8c6d93fae35e0e013b43310b71a692e6e73e4fc1db36a12239f3fa811432b58b32ae3a0741dabd9c1e15aae9ae5b4fc3715070fc824f6937364856da03641df07894bb31ae643aa77dcdc8ac76bae5194309b8d3ad2b6803fd3ecfe27fc1bd7315b2b30c7e4096e0bb322e0aa90deed212be8318e3010f1b454188f7234c4c59e94cb111b38e5c8e13d5524ac977daec8d83fd7d830d41bc2ac5e02a88a12c4d9a8cadc31a70001a3ddd08b81e66040225dcab20154706259817278d28510d65251ae0d36f43492baeb0b7b68b4f6e0bc8a42ce831f774b099086811958c08a346d158b9c4e23860d703dd6f26e8279c9ac01528a2e44f9d42929cb8bade900d130e181d4db6d6d249f1518b574c71146aa8312d4c35e41955d51e2b720880c1a1f4689e632c0763001dd12405a68121c23d538ea3ea8997bcfa033ddfa1511745dc12aba414839cd16dc17f8343bef36dfe1155743ec16ff322a512d633c9e124c3e805851858db260c4cbde37ddf5bc278451f9738240e0af4bc244dda7a6c686635944310bb89efb8b344abb98c323cc12683de5ab3595c7adbeac9996c0d1c470063a9313b5de0dc7d005e798986fb78504f6b3913cc689d0088fd0a3317592e7470a08a8206d1c6800b6569bc43bdbc7b521ef7b09d6755c6621df5f8ff1f8a2ed160dc86082877f785005a532144f9955864a5d749e1b603202966f9e90a54fad98091798f88cd09ad3b4eed9234ee898159cef0a2579c0ea8088460209518e413daab3bc33a211c7bf17c8e31c06881b8963f2685c07b8ad4ff2f8eec41b08d5c16f34a16259ff22e8b78513b676926d75bd355fc01db5d2eb8373a48c7aa8a0da5934fced6102df4472015817222bd15832e97993f4cc05478fad86530f080b490322f5e912af52111794c82b45cfaa1b503668dd3ed967954027ab2b70b3ba41d4be6537eb8101773367ab3f25dfb6acb151e0d5ceea6096d13bfe98f0901d6949ba10dd729f6627679e37df165c4aa39ac7ba5d12b3535c12e195d81fc92ac6358dbd9fa5a37744f40a204d49a01054b447164db97823677d0f9d9a88dadd06924294dd42ba43c0c836ba5176fc0d33aa7f9c937b005261cc28b643ceeb9969b3f3c1e56623e23032f3d5703760d3956bc8b3d546c64d9fda95800c151dab381e7e937b0417d767055094ffb212cf1eb5304533a8ca948c89e589574eb0efbc466d7e5098625fe76ecfc945c438c9cebf3c45f5b03f84111bed83e9c7a52c0dd1b9304a4977225b953cfb35be41701fb9ce1a5f9558d49274e7f2250d835dac8d601172bd1c59270b3becbb53b0146e9e948b3c4b3079c5c0308dfd03dc7f0a2a4d0323bd98cf60922178d8be642de40ddaf792ad02194e359f50a49ce171372d32f89e6a99ac820c312dada183c0b96c28736c7184ad49589edb16bb323f088f70e9137a98065207f2fc7c2575f91ab0b104c05de6323d437238bfc4708e0082d507f5c89e1e40e63e176ad622b4e269b4db9dca5ae4a55b298eac78f13a0b740cb8d9bdb5ecdfa2c0"
      ],
      "sequence": 4294967294
    }
  ],
  "vout": [
    {
      "value": 1.0,
      "n": 0,
      "scriptPubKey": {
        "asm": "OP_RETURN 25a5092981edcf0110a528ac95958112761506bdaba545350aa971e15d3abd7c 6e27c5de8b94976ca642fa04fc209d2a4cfe41050b2a8375b18c0f590cdde4334e07e5feabb4b74c8662da24dc00bd0a6cde61252b0aa35591ac2f792cfdc4132e67859ecbd4d72ce602ba44bc60dd6a0cbe01454b6ac335f1cc4f194c9da4730e47a5beebf4f70cc6229a649c40fd4a2c9e21656b4ae315d1ec6f396cbd8453eea7455e0b1417ec26c27a847ca01daacc7ec1858baa03f5310c8fd98c5d64b3ce87657e2b3437cc06e25aa45c803d8aec5ee1a5ab8a23d5112caff9ac7d4493aee7051e4b5457ac66823ac43ce05dea8c3e81c5cbea43b5714ccf99cc1d24f38ec7253e6b74778c46a21ae41cc07dcaac1ea1e5ebca6395516cefb9ec3d04d36e27c5de8b94976ca642fa04fc209d2a4cfe41050b2a8375b18c0f590cdde4334e07e5feabb4b74c8662da24dc00bd0a6cde61252b0aa35591ac2f792cfdc4132e67859ecbd4d72ce602ba44bc60dd6a0cbe01454b6ac335f1cc4f194c9da4730e47a5beebf4f70cc6229a649c40fd4a2c9e21656b4ae315d1ec6f396cbd8453eea7455e0b1417ec26c27a847ca01daacc7ec1858baa03f5310c8fd98c5d64b3ce87657e2b3437cc06e25aa45c803d8aec5ee1a5ab8a23d5112caff9ac7d4493aee7051e4b5457ac66823ac43ce05dea8c3e81c5cbea43b5714ccf99cc1d24f38ec7253e6b74778c46a21ae41cc07dcaac1ea1e5ebca6395516cefb9ec3d04d36e27c5de8b94976ca642fa04fc209d2a4cfe41050b2a8375b18c0f590cdde4334e07e5feabb4b74c8662da24dc00bd0a6cde61252b0aa35591ac2f792cfdc4132e67859ecbd4d72ce602ba44bc60dd6a0cbe01454b6ac335f1cc4f194c9da4730e47a5beebf4f70cc6229a649c40fd4a2c9e21656b4ae315d1ec6f396cbd8453eea7455e0b1417ec26c27a847ca01daacc7ec1858baa03f5310c8fd98c5d64b3ce87657e2b3437cc06e25aa45c803d8aec5ee1a5ab8a23d5112caff9ac7d4493aee7051e4b5457ac66823ac43ce05dea8c3e81c5cbea43b5714ccf99cc1d24f38ec7253e6b74778c46a21ae41cc07dcaac1ea1e5ebca6395516cefb9ec3d04d36e27c5de8b94976ca642fa04fc209d2a4cfe41050b2a8375b18c0f590cdde4334e07e5feabb4b74c8662da24dc00bd0a6cde61252b0aa35591ac2f792cfdc4132e67859ecbd4d72ce602ba44bc60dd6a0cbe01454b6ac335f1cc4f194c9da4730e47a5beebf4f70cc6229a649c40fd4a2c9e21656b4ae315d1ec6f396cbd8453eea7455e0b1417ec26c27a847ca01daacc7ec1858baa03f5310c8fd98c5d64b3ce87657e2b3437cc06e25aa45c803d8aec5ee1a5ab8a23d5112caff9ac7d4493aee7051e4b5457ac66823ac43ce05dea8c3e81c5cbea43b5714ccf99cc1d24f38ec7253e6b74778c46a21ae41cc07dcaac1ea1e5ebca6395516cefb9ec3d04d36e27c5de8b94976ca642fa04fc209d2a4cfe41050b2a8375b18c0f590cdde4334e07e5feabb4b74c8662da24dc00bd0a6cde61252b0aa35591ac2f792cfdc4132e67859ecbd4d72ce602ba44bc60dd6a0cbe01454b6ac335f1cc4f194c9da4730e47a5beebf4f70cc6229a649c40fd4a2c9e21656b4ae315d1ec6f396cbd8453eea7455e0b1417ec26c27a847ca01daaf06c85a9b373f5881229bd8be3c9e74b53df85cd804cb57e1ba779c47cfae796",
        "hex": "6a2025a5092981edcf0110a528ac95958112761506bdaba545350aa971e15d3abd7c4db0046e27c5de8b94976ca642fa04fc209d2a4cfe41050b2a8375b18c0f590cdde4334e07e5feabb4b74c8662da24dc00bd0a6cde61252b0aa35591ac2f792cfdc4132e67859ecbd4d72ce602ba44bc60dd6a0cbe01454b6ac335f1cc4f194c9da4730e47a5beebf4f70cc6229a649c40fd4a2c9e21656b4ae315d1ec6f396cbd8453eea7455e0b1417ec26c27a847ca01daacc7ec1858baa03f5310c8fd98c5d64b3ce87657e2b3437cc06e25aa45c803d8aec5ee1a5ab8a23d5112caff9ac7d4493aee7051e4b5457ac66823ac43ce05dea8c3e81c5cbea43b5714ccf99cc1d24f38ec7253e6b74778c46a21ae41cc07dcaac1ea1e5ebca6395516cefb9ec3d04d36e27c5de8b94976ca642fa04fc209d2a4cfe41050b2a8375b18c0f590cdde4334e07e5feabb4b74c8662da24dc00bd0a6cde61252b0aa35591ac2f792cfdc4132e67859ecbd4d72ce602ba44bc60dd6a0cbe01454b6ac335f1cc4f194c9da4730e47a5beebf4f70cc6229a649c40fd4a2c9e21656b4ae315d1ec6f396cbd8453eea7455e0b1417ec26c27a847ca01daacc7ec1858baa03f5310c8fd98c5d64b3ce87657e2b3437cc06e25aa45c803d8aec5ee1a5ab8a23d5112caff9ac7d4493aee7051e4b5457ac66823ac43ce05dea8c3e81c5cbea43b5714ccf99cc1d24f38ec7253e6b74778c46a21ae41cc07dcaac1ea1e5ebca6395516cefb9ec3d04d36e27c5de8b94976ca642fa04fc209d2a4cfe41050b2a8375b18c0f590cdde4334e07e5feabb4b74c8662da24dc00bd0a6cde61252b0aa35591ac2f792cfdc4132e67859ecbd4d72ce602ba44bc60dd6a0cbe01454b6ac335f1cc4f194c9da4730e47a5beebf4f70cc6229a649c40fd4a2c9e21656b4ae315d1ec6f396cbd8453eea7455e0b1417ec26c27a847ca01daacc7ec1858baa03f5310c8fd98c5d64b3ce87657e2b3437cc06e25aa45c803d8aec5ee1a5ab8a23d5112caff9ac7d4493aee7051e4b5457ac66823ac43ce05dea8c3e81c5cbea43b5714ccf99cc1d24f38ec7253e6b74778c46a21ae41cc07dcaac1ea1e5ebca6395516cefb9ec3d04d36e27c5de8b94976ca642fa04fc209d2a4cfe41050b2a8375b18c0f590cdde4334e07e5feabb4b74c8662da24dc00bd0a6cde61252b0aa35591ac2f792cfdc4132e67859ecbd4d72ce602ba44bc60dd6a0cbe01454b6ac335f1cc4f194c9da4730e47a5beebf4f70cc6229a649c40fd4a2c9e21656b4ae315d1ec6f396cbd8453eea7455e0b1417ec26c27a847ca01daacc7ec1858baa03f5310c8fd98c5d64b3ce87657e2b3437cc06e25aa45c803d8aec5ee1a5ab8a23d5112caff9ac7d4493aee7051e4b5457ac66823ac43ce05dea8c3e81c5cbea43b5714ccf99cc1d24f38ec7253e6b74778c46a21ae41cc07dcaac1ea1e5ebca6395516cefb9ec3d04d36e27c5de8b94976ca642fa04fc209d2a4cfe41050b2a8375b18c0f590cdde4334e07e5feabb4b74c8662da24dc00bd0a6cde61252b0aa35591ac2f792cfdc4132e67859ecbd4d72ce602ba44bc60dd6a0cbe01454b6ac335f1cc4f194c9da4730e47a5beebf4f70cc6229a649c40fd4a2c9e21656b4ae315d1ec6f396cbd8453eea7455e0b1417ec26c27a847ca01daaf06c85a9b373f5881229bd8be3c9e74b53df85cd804cb57e1ba779c47cfae796",
        "type": "nulldata"
      }
    },
    {
      "value": 499993.8986,
      "n": 1,
      "scriptPubKey": {
        "asm": "1 1cd2f7768d924a42e000e7f2df76c275ad4a0a48e42a7a1b7a85216066eae198",
        "hex": "51201cd2f7768d924a42e000e7f2df76c275ad4a0a48e42a7a1b7a85216066eae198",
        "reqSigs": 1,
        "type": "witness_v1_scripthash",
        "addresses": [
          "3QJmnh"
        ]
      }
    }
  ],
  "blockhash": "32a2d379a33ec88ae1cb3a8a1a44f2d12b76aebf574ecf7ac16b289397ed6cd9",
  "confirmations": 1,
  "time": 1764176557,
  "blocktime": 1764176557
}