{
  "hex": "010000000001016d42d0a8e54d41d4a167bcaa67e8ab579d3726a050a11bd4d97d15f521e475780000000000feffffff029021522d792d00002251202f1e389c07aec20479b774349bde7387bd70dfec2364130f205be3a27ff66cd800e1f50500000000fdd5046a20ba0d77918c29ad876395c2f4fe8f4d42eb9adfb60f937d7c844c59470ffad9aa4db004dd3969d92971746af6d4000b2e33b76c4b09d4daf88fdeb15cb485b0e0e7bd67fd1949f90951544ad6f4202b0e13974c6b29f4fad8affe917c94a590c0c79d479d7929996931342ab694404b6e73f72c0b49949ab8cf9ef11cf4c5f0a0a7fd27bd5909b94911140a96b4606b4e53d70c2b69b4ba98efbed13cd4e5d08087dd075db9e959a9f1f4ea7654808baeb337eccb89545a780f5e31dc34053060673de77d99c97989d1d4ca5674a0ab8e9317cceba9747a582f7e11fc14251040471dc71df9a919e9b1b4aa3614c0cbeef377ac8bc9141a384f1e719c74457020277da73dd98939c991948a1634e0ebced3578cabe9343a186f3e51bc54655000075d87dd3969d92971746af6d4000b2e33b76c4b09d4daf88fdeb15cb485b0e0e7bd67fd1949f90951544ad6f4202b0e13974c6b29f4fad8affe917c94a590c0c79d479d7929996931342ab694404b6e73f72c0b49949ab8cf9ef11cf4c5f0a0a7fd27bd5909b94911140a96b4606b4e53d70c2b69b4ba98efbed13cd4e5d08087dd075db9e959a9f1f4ea7654808baeb337eccb89545a780f5e31dc34053060673de77d99c97989d1d4ca5674a0ab8e9317cceba9747a582f7e11fc14251040471dc71df9a919e9b1b4aa3614c0cbeef377ac8bc9141a384f1e719c74457020277da73dd98939c991948a1634e0ebced3578cabe9343a186f3e51bc54655000075d87dd3969d92971746af6d4000b2e33b76c4b09d4daf88fdeb15cb485b0e0e7bd67fd1949f90951544ad6f4202b0e13974c6b29f4fad8affe917c94a590c0c79d479d7929996931342ab694404b6e73f72c0b49949ab8cf9ef11cf4c5f0a0a7fd27bd5909b94911140a96b4606b4e53d70c2b69b4ba98efbed13cd4e5d08087dd075db9e959a9f1f4ea7654808baeb337eccb89545a780f5e31dc34053060673de77d99c97989d1d4ca5674a0ab8e9317cceba9747a582f7e11fc14251040471dc71df9a919e9b1b4aa3614c0cbeef377ac8bc9141a384f1e719c74457020277da73dd98939c991948a1634e0ebced3578cabe9343a186f3e51bc54655000075d87dd3969d92971746af6d4000b2e33b76c4b09d4daf88fdeb15cb485b0e0e7bd67fd1949f90951544ad6f4202b0e13974c6b29f4fad8affe917c94a590c0c79d479d7929996931342ab694404b6e73f72c0b49949ab8cf9ef11cf4c5f0a0a7fd27bd5909b94911140a96b4606b4e53d70c2b69b4ba98efbed13cd4e5d08087dd075db9e959a9f1f4ea7654808baeb337eccb89545a780f5e31dc34053060673de77d99c97989d1d4ca5674a0ab8e9317cceba9747a582f7e11fc14251040471dc71df9a919e9b1b4aa3614c0cbeef377ac8bc9141a384f1e719c74457020277da73dd98939c991948a1634e0ebced3578cabe9343a186f3e51bc54655000075d87dd3969d92971746af6d4000b2e33b76c4b09d4daf88fdeb15cb485b0e0e7bd67fd1949f90951544ad6f4202b0e13974c6b29f4fad8affe917c94a590c0c79d479d7929996931342ab694404b6e73f72c0b49949ab8cf9ef11cf4c5f0a0a7fd27bd5909b94911140a96b4606b4e53d70c2b69b4ba98efbed13cd4e5d08087dd075db9e959a9f1f4ea7654808baeb337ece62ab8f07693fcf3a8e2a56ad29f41f9d5646028fad18b24ed8f9155ea49ae1102fd750927ad74d77207b0fa930aaad348ccc8023b7a6d18d7ecb8845ade090e2b7529166f143ff0914581172724548dbf77345162354a1b6e7e4fbb14f7ee1a731a4e6103b24836895c47ee92990cb20af6275968800ff0f13ab4816f689e55e9f488174663bc85d1d571ef8a2ba825d1835912a31c516e59b1ffdc16fae7f714223cc2f14d5971f3f101367d834f388d26bd183f3d3b5187726a9c44abd98dcbf9e557829cf6b0896b9279c7be0c2fbe6299a6eee0b5558394da8edcdf1bf5c6c4195ff8d0d70ac14a33c28a453b97881926ea16d03fbf5f0d25083d68d5bbc6602b1b4708f6c542c212469afa2aabeb296b9e721be40348977b9181808b802fa82b703ea514aeb81456d748206cfab92000d636a589a6ba94727be7c4c1e28e1b3aba987ccb5c4cd91cd32dcdb3a4e3521b2e353ed4d8488bb447bc8fbed89fbc02793804d2fa8839e83256c2827f30e0d546a91874d147911d6ff4ff394963072d346004ebb5944c8655f4c07ca9c361c1c52f89f1e3f58dd3a8c15492ba0832e1ce38b1f1e46e0f5898c22202396d2759cd905689774e3526d70f3383b8b5935148f0bc3efad4340ee0d89cb40c53d2f4f34cc5f5c7f43f3ed200a596968d86dbbc1279cf60d5d1e32d41210a142fbfa1284572719cecf93073fd1748a003a4afc762e628fe44d8cee472b7ccee480959719304082c07ace03620d2cdb1f6f237b37a78cf8806d25e609223bdac0fa0da4fee6e1ed4b2b72f8b1539caa36875deb802002c9c27ea7e1e67e07702c50ea1393b17c8644cce4442825b9a9be1eecb690728c0a4c33d971fd129db926b9830c79650ffaa4d0ba0701922897009e16c2371baedd74a249c79c962d8979e5460b254c8d4605e4bcb2595e746ab3613afd7ce42e4f14bb969d88f15e937ca00a0b141aa4a41691ae7f7f68c549cc4f917412bcac2365d216ae4a17e65f006697b78be4e779b5c12ad0c2c1359439b2a00fb280df5fc02c647db5a2797f9c293d32b6e96ac585285e375837ab2cd4b9bd7be86b70eeaa5bf3434af40576dcfbbe2788f80bcaf9c96067e3b60a4b857fc46b442a6069650050ec9d4d893de0de5bc29c07273538d639baa2f10ccb07483430f3d3a420e10a990c998b8ce9c5850c8114a98a4b6f94f05bc9fca978f70aab277580263b6e0824d9fd54ddda78503694b2611e476bb4bcb549e3c20cc0b0654f30b240e32901245f636314d482e938537dcf1806fbc5b26487af8df4f17fea4ee95a11db3b7788cfa918d7170ff332da93a5d20c4012c907abc3e5346cb7ee48381cfd2b43134d740388abfe800a6d26d0253ba119589d341ea2fa34e1979c7ae1b5864487eb40c3f8d016743e2e3b105e00407ac237e01025a6c10dbf5eb5e4af78be1a482897ad65a3e93a973a50837b0766b122e0d87c342ff4f701ce538ddc5dab4fd6d340bc3acc8fc8ba75463abb33976f4e58d8942fa5a3baad0048d3075aceba4137fe841402a9f9c853f67913c6b1a1d71f976869e605d4b72695fd402f249fa2206da922c9933b6de5a82ef62003a09ef15a493f26598ae6afce438ba1d46d208a7c696c8c8ba7a3bd5eb4f2de2603f8568dda068dcba55ecdaeb8613ab357ad40063d7b540f6a3c719c684b8ac2d7d1375c688ea26ebce9fd59d3d143f3f244966c09aeaf0632b59e69267f6bb43ebb2c61aa17c02417cde0b803e00042599844cada9349ccccb9b9a1d9869da7da14d5451b5b720e5ba3ae8fd5567c69f0a390efd15fcba3fb39a08fd50bca8e56462cf64de1fc2fa3f2fa56500cde230ca6849bff67715620fe9f789fd75f7b07c8457494967f7822e9bd9d3cf8d3fb3dbf4f9117443335fd6a6ea10c3832c56dd72014c7a045d40fc41c33a52a4290b53074149922a05bc895268cb171de5e81a1be277acd9da120e0a1791ec2f55ce95615a27f40345b759bb804a7424faf1bb9a4fc8fc4f410a0336304e76e5136f536b497faef1c9e711ef4614699563bd2801e14a59d6c831da308ca25271f199a67bf2f1ccf47a495ee3b25061200bf622a5c30a9e405223512550c68abaace4f19fb5b87fac23d79c619bb44a51753f9872277a186177fcf6ab82137ea187f70251377d0b9b891c6db32e4d1de5ef9727af3e0b4d40def8b9615b724e6961a88613443b54e92920de4644fad44f98ad10630679c0f806c02fc2c643697aa618098c96386927e3e46953077f35536e2a79a696aec617bf6cdadc317cacac1c874d5b1eb759f1acc292215741a05f16770ec987b0d0a78fc3a0b3af32e427262b34d93341f0c4071b0e61b1bf4e76fd0c24f5ce40dbe782b819848bab7930f296f1123ed7ad449bbd5d4b82cd45ea3b70c4ce898872d5a6c4c69fb775e0b77929e2f6e2500e0626846a337391a64aa568e0c23fb05b579a5c98e356ddba372a9ed419913c6f6a629daa983e38014f326803bc16fd60feccac1cae22290e38c15dd5ed5ea757925fd3b676767855b5b4840a589326fc66b8b42e0e9b7725479c888e8371906450e102f16a37c0b342a84fcd8069bdb48284a522e11d5cf3009bb0825e4ba0563aa4f9e758f6903a1eae6100d70cb3bb84f800965fa876c259e53903d991f9c94a0b34a4f00f83a47b3c0eecbbbd69c1a30736beefee054ab51fc8c9fa2796bc1cf044f4fb373c2e79936e285bc3bad59fbc1deca9efe6368ea492a9430d5555400452f98f697dc31b1233d029687e0e2d546c6be35384b22ac82287c40a7080c2ae7a85b6a007337058a8aefb832867cd922eb83a035a023de054f61360785cd7808ba18b75cdcd7bad97962c9d89dc7baaacb8d71b4a998b99336a5d93b293a13ec2e6254c71c3ef3c4a02f47a7ef4a0f0712a00b4b0e897d94d73162e0da39d23aba9f2981aaa94dd6b5ca90e75fdfbda97193e0298344f20cf74748d886506f54baa1ec4f7abea264f3320858a8b36fce27e320b2c10e18e9c49c10211d9f79c373efbed0551b7aabafbece4f909ed0106af61c8c261e4a5eabdc0c5b34484c082e4b980e4321d0d65b03ec83dd9ebbbea59be49ff1f4bd3a18557b7f75efab51c48ebf1bde796b48d1e176b33999e5fcf87416ed799cb35cf351713380ec03e3aeee6a4a5a6915964f23992fbf5611afc86d145b714f0c8c6cdc1792c0d1d5a74de7a4900fdb113515fccd3b801b60daeadebe9537dcae1a7425184154e6bbc111b3cfc739453dd1a8a108d3feb5e83b839dd8e560db76aaee603d5b376d29190a9d53dfdb13cf582b68b385076fe6e45255da145fc1a2a2d334d58616290a6aaae0005152b39586d717a80929eacb5c5ced908090d21263f4968a5acb1c2dadbf50e1e282c2e36385170778c96a9b4b9c4e1e3fc00000000000000000000000000000000000c1d2c3f01fd2105003dd560da2863d056af4cf02b6fe28800a475b4c400a514af985a0dd828d7a892fa16ff1bd90b44f9d35fdd629c6ed0016d345c67b2467e1af246bda86608c1808eecd46d412e9c9922229806a41855204daf77ba3a3d9cc8eb6d348cbfc6526b3c3fe99dc2e0e3f9d37d450adcd221301ca65578271c27b4c88f6d77f28f7ceef8fa4e46eb6c66cb697f69a85a309a42a11d867435a22ce99ee089d3f6512aab3675998d6e976dbc3d1c8b22ec5b97973ca8851d16cc01d143da2978edc245c5d8ffa07b4f7632531d32978b5b410819f06884a8a04e4a920d881bfbceddafbd84278ae2d6417bed51383b87ecccad16972daa2bf791c33729ccaebb06c13d9a731a004ef14eb0a9e5253a73119ad1bce85ee0736c90320692c86d530b18fbb0ae020808ba32021aca611f87139d04b32db589bbe64fe8d66b568f97f392bba55220e1f8615f868fba460580b916851136da7d8a306231d846b7798f2d7da635ac51e24b1a3d81f176644ea1154a1f5956fcd71c57e804fca495a06490e31b40ad665d5036994dc510227d8fd0b6a650e26057096428fc994d0dd25701611479daac13788dc876be0ffacf8b0f470688be62f0fdccc0b965f871af624ad8413a9bc7b7986868ebd606bad1a556000eda73ef5cd6c2a71286ee0a272d203857aaf731005513ddf7bcc139889b5f6af3e4e32d5cae9bdd6254e5005f8c1d346001196564037306fc90e9e1d2a40c6b897cf96127e44cb710644126cdeddc64d0968d90616142c78a2947155b00fd43bd616fb2fbe4d5399fcfa9fbe068281dbfdf9a56ed232427f1dcaee72941c739e9e85562c646ca5cde36e540897c2a18a10c9068f5e68148281187d794d6e8c08c2e8963fb23fba855b5b985a15330962c27600d7b038cf2cbbe5c530feec6ab14ae6726976e89220973792a4f08524fd0f5565faaf631d16f08bbfea91385865daaca7d02c462b7613864d7c3d96f958d1677f49a3fc14e1ec4413224326a4561d9732eeb570ea466a36bbb1f5e3f19d77a65a85986fbfee240f7eb119cda58b68254d62d2bc80ace235d2ba766fa41a3c5ec916551ece3779b4c46e9114de71ea7ad67fb0a8f07576100ce82f0d90465ea2c5d56b9f5855173dae170a06b1b9ea6c67c4636eb176afdbeb3886fbe88b3cc3fe9d76d9ca594d795817d044ad8a9f6634dabb83c40b935a1d25b93f96f57a54e113ec169509cdd4a6235cda66db35bab20ea6951e689351e4859bc730e40c682165a8daea6e94f190972250d49682113f33dd505767a008c474e9c8df9aa0bdb20d05f02f4470549c259afa00d7b2bbffd2b96fa128a0a2253652a6375ffc83da2ba9ac54319aa6a9b8f9c7c832724269115259815be1979f937d03cc746dc09e71b920eab3c721b457bc4ea306e3bb204a46265a6d213d4138eb3a4b18d35bd5ba9e7e45d1e1b5d8f5667ed7123f53d6d130d15ae165b4c5ef14302e9c3a923f15a48b3f956b8654eaae8dc14395e4bd2ed629c069135472eac822245f96159b6e0dbaff7c9740eb295804d78e6f3d3fa5109e9ae7d76d9645545665a234c64dc1fdd7c4e49c5b2580a4328f6a2b7613bd71678955986024eaa8691f7ee1a926113056ad39fb71e86c6828f21b7c59b2e40ac0bd287a9b5924add3d6b5597b7ea95217da8b9ae176dc92787031bf6680b8088299b19fc178c5d24920127a56cbcc3448d9906ab60ca97530aeeda30733ef481e1cadfa812ef20d6ccedd657c433396781a7f203ddb25fb15ebabd297305053c475912ef48af5c179eed61ce791208d45cbf43bdb0c5f00930b6de1175fc04698688ab6a31d9025e2be116296e000000",
  "txid": "839cd91d3f7b2b566fd7b174424d031d42611b1ec9e81af12aecc90a9ac72585",
  "hash": "3efdc8f3bdf327fb3705d0d330644483c098c6cbd633d7d9f39bb0b19575adb4",
  "size": 5085,
  "vsize": 2278,
  "version": 1,
  "locktime": 110,
  "vin": [
    {
      "txid": "7875e421f5157dd9d41ba150a026379d57abe867aabc67a1d4414de5a8d0426d",
      "vout": 0,
      "scriptSig": {
        "asm": "",
        "hex": ""
      },
      "txinwitness": [
        "27ad74d77207b0fa930aaad348ccc8023b7a6d18d7ecb8845ade090e2b7529166f143ff0914581172724548dbf77345162354a1b6e7e4fbb14f7ee1a731a4e6103b24836895c47ee92990cb20af6275968800ff0f13ab4816f689e55e9f488174663bc85d1d571ef8a2ba825d1835912a31c516e59b1ffdc16fae7f714223cc2f14d5971f3f101367d834f388d26bd183f3d3b5187726a9c44abd98dcbf9e557829cf6b0896b9279c7be0c2fbe6299a6eee0b5558394da8edcdf1bf5c6c4195ff8d0d70ac14a33c28a453b97881926ea16d03fbf5f0d25083d68d5bbc6602b1b4708f6c542c212469afa2aabeb296b9e721be40348977b9181808b802fa82b703ea514aeb81456d748206cfab92000d636a589a6ba94727be7c4c1e28e1b3aba987ccb5c4cd91cd32dcdb3a4e3521b2e353ed4d8488bb447bc8fbed89fbc02793804d2fa8839e83256c2827f30e0d546a91874d147911d6ff4ff394963072d346004ebb5944c8655f4c07ca9c361c1c52f89f1e3f58dd3a8c15492ba0832e1ce38b1f1e46e0f5898c22202396d2759cd905689774e3526d70f3383b8b5935148f0bc3efad4340ee0d89cb40c53d2f4f34cc5f5c7f43f3ed200a596968d86dbbc1279cf60d5d1e32d41210a142fbfa1284572719cecf93073fd1748a003a4afc762e628fe44d8cee472b7ccee480959719304082c07ace03620d2cdb1f6f237b37a78cf8806d25e609223bdac0fa0da4fee6e1ed4b2b72f8b1539caa36875deb802002c9c27ea7e1e67e07702c50ea1393b17c8644cce4442825b9a9be1eecb690728c0a4c33d971fd129db926b9830c79650ffaa4d0ba0701922897009e16c2371baedd74a249c79c962d8979e5460b254c8d4605e4bcb2595e746ab3613afd7ce42e4f14bb969d88f15e937ca00a0b141aa4a41691ae7f7f68c549cc4f917412bcac2365d216ae4a17e65f006697b78be4e779b5c12ad0c2c1359439b2a00fb280df5fc02c647db5a2797f9c293d32b6e96ac585285e375837ab2cd4b9bd7be86b70eeaa5bf3434af40576dcfbbe2788f80bcaf9c96067e3b60a4b857fc46b442a6069650050ec9d4d893de0de5bc29c07273538d639baa2f10ccb07483430f3d3a420e10a990c998b8ce9c5850c8114a98a4b6f94f05bc9fca978f70aab277580263b6e0824d9fd54ddda78503694b2611e476bb4bcb549e3c20cc0b0654f30b240e32901245f636314d482e938537dcf1806fbc5b26487af8df4f17fea4ee95a11db3b7788cfa918d7170ff332da93a5d20c4012c907abc3e5346cb7ee48381cfd2b43134d740388abfe800a6d26d0253ba119589d341ea2fa34e1979c7ae1b5864487eb40c3f8d016743e2e3b105e00407ac237e01025a6c10dbf5eb5e4af78be1a482897ad65a3e93a973a50837b0766b122e0d87c342ff4f701ce538ddc5dab4fd6d340bc3acc8fc8ba75463abb33976f4e58d8942fa5a3baad0048d3075aceba4137fe841402a9f9c853f67913c6b1a1d71f976869e605d4b72695fd402f249fa2206da922c9933b6de5a82ef62003a09ef15a493f26598ae6afce438ba1d46d208a7c696c8c8ba7a3bd5eb4f2de2603f8568dda068dcba55ecdaeb8613ab357ad40063d7b540f6a3c719c684b8ac2d7d1375c688ea26ebce9fd59d3d143f3f244966c09aeaf0632b59e69267f6bb43ebb2c61aa17c02417cde0b803e00042599844cada9349ccccb9b9a1d9869da7da14d5451b5b720e5ba3ae8fd5567c69f0a390efd15fcba3fb39a08fd50bca8e56462cf64de1fc2fa3f2fa56500cde230ca6849bff67715620fe9f789fd75f7b07c8457494967f7822e9bd9d3cf8d3fb3dbf4f9117443335fd6a6ea10c3832c56dd72014c7a045d40fc41c33a52a4290b53074149922a05bc895268cb171de5e81a1be277acd9da120e0a1791ec2f55ce95615a27f40345b759bb804a7424faf1bb9a4fc8fc4f410a0336304e76e5136f536b497faef1c9e711ef4614699563bd2801e14a59d6c831da308ca25271f199a67bf2f1ccf47a495ee3b25061200bf622a5c30a9e405223512550c68abaace4f19fb5b87fac23d79c619bb44a51753f9872277a186177fcf6ab82137ea187f70251377d0b9b891c6db32e4d1de5ef9727af3e0b4d40def8b9615b724e6961a88613443b54e92920de4644fad44f98ad10630679c0f806c02fc2c643697aa618098c96386927e3e46953077f35536e2a79a696aec617bf6cdadc317cacac1c874d5b1eb759f1acc292215741a05f16770ec987b0d0a78fc3a0b3af32e427262b34d93341f0c4071b0e61b1bf4e76fd0c24f5ce40dbe782b819848bab7930f296f1123ed7ad449bbd5d4b82cd45ea3b70c4ce898872d5a6c4c69fb775e0b77929e2f6e2500e0626846a337391a64aa568e0c23fb05b579a5c98e356ddba372a9ed419913c6f6a629daa983e38014f326803bc16fd60feccac1cae22290e38c15dd5ed5ea757925fd3b676767855b5b4840a589326fc66b8b42e0e9b7725479c888e8371906450e102f16a37c0b342a84fcd8069bdb48284a522e11d5cf3009bb0825e4ba0563aa4f9e758f6903a1eae6100d70cb3bb84f800965fa876c259e53903d991f9c94a0b34a4f00f83a47b3c0eecbbbd69c1a30736beefee054ab51fc8c9fa2796bc1cf044f4fb373c2e79936e285bc3bad59fbc1deca9efe6368ea492a9430d5555400452f98f697dc31b1233d029687e0e2d546c6be35384b22ac82287c40a7080c2ae7a85b6a007337058a8aefb832867cd922eb83a035a023de054f61360785cd7808ba18b75cdcd7bad97962c9d89dc7baaacb8d71b4a998b99336a5d93b293a13ec2e6254c71c3ef3c4a02f47a7ef4a0f0712a00b4b0e897d94d73162e0da39d23aba9f2981aaa94dd6b5ca90e75fdfbda97193e0298344f20cf74748d886506f54baa1ec4f7abea264f3320858a8b36fce27e320b2c10e18e9c49c10211d9f79c373efbed0551b7aabafbece4f909ed0106af61c8c261e4a5eabdc0c5b34484c082e4b980e4321d0d65b03ec83dd9ebbbea59be49ff1f4bd3a18557b7f75efab51c48ebf1bde796b48d1e176b33999e5fcf87416ed799cb35cf351713380ec03e3aeee6a4a5a6915964f23992fbf5611afc86d145b714f0c8c6cdc1792c0d1d5a74de7a4900fdb113515fccd3b801b60daeadebe9537dcae1a7425184154e6bbc111b3cfc739453dd1a8a108d3feb5e83b839dd8e560db76aaee603d5b376d29190a9d53dfdb13cf582b68b385076fe6e45255da145fc1a2a2d334d58616290a6aaae0005152b39586d717a80929eacb5c5ced908090d21263f4968a5acb1c2dadbf50e1e282c2e36385170778c96a9b4b9c4e1e3fc00000000000000000000000000000000000c1d2c3f01",
        "003dd560da2863d056af4cf02b6fe28800a475b4c400a514af985a0dd828d7a892fa16ff1bd90b44f9d35fdd629c6ed0016d345c67b2467e1af246bda86608c1808eecd46d412e9c9922229806a41855204daf77ba3a3d9cc8eb6d348cbfc6526b3c3fe99dc2e0e3f9d37d450adcd221301ca65578271c27b4c88f6d77f28f7ceef8fa4e46eb6c66cb697f69a85a309a42a11d867435a22ce99ee089d3f6512aab3675998d6e976dbc3d1c8b22ec5b97973ca8851d16cc01d143da2978edc245c5d8ffa07b4f7632531d32978b5b410819f06884a8a04e4a920d881bfbceddafbd84278ae2d6417bed51383b87ecccad16972daa2bf791c33729ccaebb06c13d9a731a004ef14eb0a9e5253a73119ad1bce85ee0736c90320692c86d530b18fbb0ae020808ba32021aca611f87139d04b32db589bbe64fe8d66b568f97f392bba55220e1f8615f868fba460580b916851136da7d8a306231d846b7798f2d7da635ac51e24b1a3d81f176644ea1154a1f5956fcd71c57e804fca495a06490e31b40ad665d5036994dc510227d8fd0b6a650e26057096428fc994d0dd25701611479daac13788dc876be0ffacf8b0f470688be62f0fdccc0b965f871af624ad8413a9bc7b7986868ebd606bad1a556000eda73ef5cd6c2a71286ee0a272d203857aaf731005513ddf7bcc139889b5f6af3e4e32d5cae9bdd6254e5005f8c1d346001196564037306fc90e9e1d2a40c6b897cf96127e44cb710644126cdeddc64d0968d90616142c78a2947155b00fd43bd616fb2fbe4d5399fcfa9fbe068281dbfdf9a56ed232427f1dcaee72941c739e9e85562c646ca5cde36e540897c2a18a10c9068f5e68148281187d794d6e8c08c2e8963fb23fba855b5b985a15330962c27600d7b038cf2cbbe5c530feec6ab14ae6726976e89220973792a4f08524fd0f5565faaf631d16f08bbfea91385865daaca7d02c462b7613864d7c3d96f958d1677f49a3fc14e1ec4413224326a4561d9732eeb570ea466a36bbb1f5e3f19d77a65a85986fbfee240f7eb119cda58b68254d62d2bc80ace235d2ba766fa41a3c5ec916551ece3779b4c46e9114de71ea7ad67fb0a8f07576100ce82f0d90465ea2c5d56b9f5855173dae170a06b1b9ea6c67c4636eb176afdbeb3886fbe88b3cc3fe9d76d9ca594d795817d044ad8a9f6634dabb83c40b935a1d25b93f96f57a54e113ec169509cdd4a6235cda66db35bab20ea6951e689351e4859bc730e40c682165a8daea6e94f190972250d49682113f33dd505767a008c474e9c8df9aa0bdb20d05f02f4470549c259afa00d7b2bbffd2b96fa128a0a2253652a6375ffc83da2ba9ac54319aa6a9b8f9c7c832724269115259815be1979f937d03cc746dc09e71b920eab3c721b457bc4ea306e3bb204a46265a6d213d4138eb3a4b18d35bd5ba9e7e45d1e1b5d8f5667ed7123f53d6d130d15ae165b4c5ef14302e9c3a923f15a48b3f956b8654eaae8dc14395e4bd2ed629c069135472eac822245f96159b6e0dbaff7c9740eb295804d78e6f3d3fa5109e9ae7d76d9645545665a234c64dc1fdd7c4e49c5b2580a4328f6a2b7613bd71678955986024eaa8691f7ee1a926113056ad39fb71e86c6828f21b7c59b2e40ac0bd287a9b5924add3d6b5597b7ea95217da8b9ae176dc92787031bf6680b8088299b19fc178c5d24920127a56cbcc3448d9906ab60ca97530aeeda30733ef481e1cadfa812ef20d6ccedd657c433396781a7f203ddb25fb15ebabd297305053c475912ef48af5c179eed61ce791208d45cbf43bdb0c5f00930b6de1175fc04698688ab6a31d9025e2be11629"
      ],
      "sequence": 4294967294
    }
  ],
  "vout": [
    {
      "value": 499984.7465,
      "n": 0,
      "scriptPubKey": {
        "asm": "1 2f1e389c07aec20479b774349bde7387bd70dfec2364130f205be3a27ff66cd8",
        "hex": "51202f1e389c07aec20479b774349bde7387bd70dfec2364130f205be3a27ff66cd8",
        "reqSigs": 1,
        "type": "witness_v1_scripthash",
        "addresses": [
          "3QJmnh"
        ]
      }
    },
    {
      "value": 1.0,
      "n": 1,
      "scriptPubKey": {
        "asm": "OP_RETURN ba0d77918c29ad876395c2f4fe8f4d42eb9adfb60f937d7c844c59470ffad9aa dd3969d92971746af6d4000b2e33b76c4b09d4daf88fdeb15cb485b0e0e7bd67fd1949f90951544ad6f4202b0e13974c6b29f4fad8affe917c94a590c0c79d479d7929996931342ab694404b6e73f72c0b49949ab8cf9ef11cf4c5f0a0a7fd27bd5909b94911140a96b4606b4e53d70c2b69b4ba98efbed13cd4e5d08087dd075db9e959a9f1f4ea7654808baeb337eccb89545a780f5e31dc34053060673de77d99c97989d1d4ca5674a0ab8e9317cceba9747a582f7e11fc14251040471dc71df9a919e9b1b4aa3614c0cbeef377ac8bc9141a384f1e719c74457020277da73dd98939c991948a1634e0ebced3578cabe9343a186f3e51bc54655000075d87dd3969d92971746af6d4000b2e33b76c4b09d4daf88fdeb15cb485b0e0e7bd67fd1949f90951544ad6f4202b0e13974c6b29f4fad8affe917c94a590c0c79d479d7929996931342ab694404b6e73f72c0b49949ab8cf9ef11cf4c5f0a0a7fd27bd5909b94911140a96b4606b4e53d70c2b69b4ba98efbed13cd4e5d08087dd075db9e959a9f1f4ea7654808baeb337eccb89545a780f5e31dc34053060673de77d99c97989d1d4ca5674a0ab8e9317cceba9747a582f7e11fc14251040471dc71df9a919e9b1b4aa3614c0cbeef377ac8bc9141a384f1e719c74457020277da73dd98939c991948a1634e0ebced3578cabe9343a186f3e51bc54655000075d87dd3969d92971746af6d4000b2e33b76c4b09d4daf88fdeb15cb485b0e0e7bd67fd1949f90951544ad6f4202b0e13974c6b29f4fad8affe917c94a590c0c79d479d7929996931342ab694404b6e73f72c0b49949ab8cf9ef11cf4c5f0a0a7fd27bd5909b94911140a96b4606b4e53d70c2b69b4ba98efbed13cd4e5d08087dd075db9e959a9f1f4ea7654808baeb337eccb89545a780f5e31dc34053060673de77d99c97989d1d4ca5674a0ab8e9317cceba9747a582f7e11fc14251040471dc71df9a919e9b1b4aa3614c0cbeef377ac8bc9141a384f1e719c74457020277da73dd98939c991948a1634e0ebced3578cabe9343a186f3e51bc54655000075d87dd3969d92971746af6d4000b2e33b76c4b09d4daf88fdeb15cb485b0e0e7bd67fd1949f90951544ad6f4202b0e13974c6b29f4fad8affe917c94a590c0c79d479d7929996931342ab694404b6e73f72c0b49949ab8cf9ef11cf4c5f0a0a7fd27bd5909b94911140a96b4606b4e53d70c2b69b4ba98efbed13cd4e5d08087dd075db9e959a9f1f4ea7654808baeb337eccb89545a780f5e31dc34053060673de77d99c97989d1d4ca5674a0ab8e9317cceba9747a582f7e11fc14251040471dc71df9a919e9b1b4aa3614c0cbeef377ac8bc9141a384f1e719c74457020277da73dd98939c991948a1634e0ebced3578cabe9343a186f3e51bc54655000075d87dd3969d92971746af6d4000b2e33b76c4b09d4daf88fdeb15cb485b0e0e7bd67fd1949f90951544ad6f4202b0e13974c6b29f4fad8affe917c94a590c0c79d479d7929996931342ab694404b6e73f72c0b49949ab8cf9ef11cf4c5f0a0a7fd27bd5909b94911140a96b4606b4e53d70c2b69b4ba98efbed13cd4e5d08087dd075db9e959a9f1f4ea7654808baeb337ece62ab8f07693fcf3a8e2a56ad29f41f9d5646028fad18b24ed8f9155ea49ae11",
        "hex": "6a20ba0d77918c29ad876395c2f4fe8f4d42eb9adfb60f937d7c844c59470ffad9aa4db004dd3969d92971746af6d4000b2e33b76c4b09d4daf88fdeb15cb485b0e0e7bd67fd1949f90951544ad6f4202b0e13974c6b29f4fad8affe917c94a590c0c79d479d7929996931342ab694404b6e73f72c0b49949ab8cf9ef11cf4c5f0a0a7fd27bd5909b94911140a96b4606b4e53d70c2b69b4ba98efbed13cd4e5d08087dd075db9e959a9f1f4ea7654808baeb337eccb89545a780f5e31dc34053060673de77d99c97989d1d4ca5674a0ab8e9317cceba9747a582f7e11fc14251040471dc71df9a919e9b1b4aa3614c0cbeef377ac8bc9141a384f1e719c74457020277da73dd98939c991948a1634e0ebced3578cabe9343a186f3e51bc54655000075d87dd3969d92971746af6d4000b2e33b76c4b09d4daf88fdeb15cb485b0e0e7bd67fd1949f90951544ad6f4202b0e13974c6b29f4fad8affe917c94a590c0c79d479d7929996931342ab694404b6e73f72c0b49949ab8cf9ef11cf4c5f0a0a7fd27bd5909b94911140a96b4606b4e53d70c2b69b4ba98efbed13cd4e5d08087dd075db9e959a9f1f4ea7654808baeb337eccb89545a780f5e31dc34053060673de77d99c97989d1d4ca5674a0ab8e9317cceba9747a582f7e11fc14251040471dc71df9a919e9b1b4aa3614c0cbeef377ac8bc9141a384f1e719c74457020277da73dd98939c991948a1634e0ebced3578cabe9343a186f3e51bc54655000075d87dd3969d92971746af6d4000b2e33b76c4b09d4daf88fdeb15cb485b0e0e7bd67fd1949f90951544ad6f4202b0e13974c6b29f4fad8affe917c94a590c0c79d479d7929996931342ab694404b6e73f72c0b49949ab8cf9ef11cf4c5f0a0a7fd27bd5909b94911140a96b4606b4e53d70c2b69b4ba98efbed13cd4e5d08087dd075db9e959a9f1f4ea7654808baeb337eccb89545a780f5e31dc34053060673de77d99c97989d1d4ca5674a0ab8e9317cceba9747a582f7e11fc14251040471dc71df9a919e9b1b4aa3614c0cbeef377ac8bc9141a384f1e719c74457020277da73dd98939c991948a1634e0ebced3578cabe9343a186f3e51bc54655000075d87dd3969d92971746af6d4000b2e33b76c4b09d4daf88fdeb15cb485b0e0e7bd67fd1949f90951544ad6f4202b0e13974c6b29f4fad8affe917c94a590c0c79d479d7929996931342ab694404b6e73f72c0b49949ab8cf9ef11cf4c5f0a0a7fd27bd5909b94911140a96b4606b4e53d70c2b69b4ba98efbed13cd4e5d08087dd075db9e959a9f1f4ea7654808baeb337eccb89545a780f5e31dc34053060673de77d99c97989d1d4ca5674a0ab8e9317cceba9747a582f7e11fc14251040471dc71df9a919e9b1b4aa3614c0cbeef377ac8bc9141a384f1e719c74457020277da73dd98939c991948a1634e0ebced3578cabe9343a186f3e51bc54655000075d87dd3969d92971746af6d4000b2e33b76c4b09d4daf88fdeb15cb485b0e0e7bd67fd1949f90951544ad6f4202b0e13974c6b29f4fad8affe917c94a590c0c79d479d7929996931342ab694404b6e73f72c0b49949ab8cf9ef11cf4c5f0a0a7fd27bd5909b94911140a96b4606b4e53d70c2b69b4ba98efbed13cd4e5d08087dd075db9e959a9f1f4ea7654808baeb337ece62ab8f07693fcf3a8e2a56ad29f41f9d5646028fad18b24ed8f9155ea49ae11",
        "type": "nulldata"
      }
    }
  ],
  "blockhash": "2622e54cefe9d3081f6ac04e4c67f268d7c1e3313b2268ffede4439aafe1acd1",
  "confirmations": 1,
  "time": 1764177922,
  "blocktime": 1764177922
}