{
  "hex": "01000000000101c985b0035d0e5e5c769cb8997fef396f2b0105e9dda39b6c14b2e1c13a4f6d370100000000feffffff02e07828ba782d0000225120c9e548302e7370e0b7ebfc7dcee99a607afbfb23e0360135f8ce9fdc1cc8234800e1f50500000000fdd5046a20d583d1875b9b1774bcd4612118a386bc1bf121dfdb58eafc1409452cf2d9925d4db00490ea4674037d085a14a5e3f0329ffb8d4b91c133cf229461cad3154aadf6c8b9b0ca6654235d287a3485c3d012bfdbad6bb1e113ef02b441eaf3356a8dd6e899d0aa0634433d481a54e5a3b072dfbbcd0bd181738f62d4218a93550aedb688f9f08a2614631d683a74c5839052ff9bed2bf1a153af42f401aab3752acd96a8d9106ac6f483fd88da94256370b21f7b0dcb1141b34fa214e14a5395ca2d764839304ae6d4a3dda8fab4054350923f5b2deb3161936f8234c16a73b5ea0d566819502a86b4c3bdc89ad4652330f25f3b4d8b5101f30fe254a10a13d58a6d360879700aa694e39de8baf4450310d27f1b6dab7121d32fc274812a33f5aa4d16285990ea4674037d085a14a5e3f0329ffb8d4b91c133cf229461cad3154aadf6c8b9b0ca6654235d287a3485c3d012bfdbad6bb1e113ef02b441eaf3356a8dd6e899d0aa0634433d481a54e5a3b072dfbbcd0bd181738f62d4218a93550aedb688f9f08a2614631d683a74c5839052ff9bed2bf1a153af42f401aab3752acd96a8d9106ac6f483fd88da94256370b21f7b0dcb1141b34fa214e14a5395ca2d764839304ae6d4a3dda8fab4054350923f5b2deb3161936f8234c16a73b5ea0d566819502a86b4c3bdc89ad4652330f25f3b4d8b5101f30fe254a10a13d58a6d360879700aa694e39de8baf4450310d27f1b6dab7121d32fc274812a33f5aa4d16285990ea4674037d085a14a5e3f0329ffb8d4b91c133cf229461cad3154aadf6c8b9b0ca6654235d287a3485c3d012bfdbad6bb1e113ef02b441eaf3356a8dd6e899d0aa0634433d481a54e5a3b072dfbbcd0bd181738f62d4218a93550aedb688f9f08a2614631d683a74c5839052ff9bed2bf1a153af42f401aab3752acd96a8d9106ac6f483fd88da94256370b21f7b0dcb1141b34fa214e14a5395ca2d764839304ae6d4a3dda8fab4054350923f5b2deb3161936f8234c16a73b5ea0d566819502a86b4c3bdc89ad4652330f25f3b4d8b5101f30fe254a10a13d58a6d360879700aa694e39de8baf4450310d27f1b6dab7121d32fc274812a33f5aa4d16285990ea4674037d085a14a5e3f0329ffb8d4b91c133cf229461cad3154aadf6c8b9b0ca6654235d287a3485c3d012bfdbad6bb1e113ef02b441eaf3356a8dd6e899d0aa0634433d481a54e5a3b072dfbbcd0bd181738f62d4218a93550aedb688f9f08a2614631d683a74c5839052ff9bed2bf1a153af42f401aab3752acd96a8d9106ac6f483fd88da94256370b21f7b0dcb1141b34fa214e14a5395ca2d764839304ae6d4a3dda8fab4054350923f5b2deb3161936f8234c16a73b5ea0d566819502a86b4c3bdc89ad4652330f25f3b4d8b5101f30fe254a10a13d58a6d360879700aa694e39de8baf4450310d27f1b6dab7121d32fc274812a33f5aa4d16285990ea4674037d085a14a5e3f0329ffb8d4b91c133cf229461cad3154aadf6c8b9b0ca6654235d287a3485c3d012bfdbad6bb1e113ef02b441eaf3356a8dd6e899d0aa0634433d481a54e5a3b072dfbbcd0bd181738f62d4218a93550aedb688f9f08a2614631d683a74c5839052ff9bed2bf1a153af42f401aab3752acd96a8d9106ac6f483fd88da94256370b21f7b0d94a005862465935f0014362f48d23345478daee57302befe29dccff4656e4f7002fd750961373db034065cf763d8a1ed3841960320b729c88b8cfcb5e7ebe9813ad9b0d0dd804e55a48b7a6df2a56a5d736d34ba9459d82206fe96ec3649eeb3b01e348119e56d350bb74387a84fda3632e03f364d2efc66750e1593b89d590c9311decade8a1380a2aca48984936a5e049ecaa78787d2a999e295fb481dbc3e7740812573b4f578380999fcba5e51fe97092e5ea81951239eb327aedbec7a728b8a55a0900532d7f360ced24ccef4435cf1b654bf73e44597d24945d484ce9c15ab5dccbdfd15548849a4c5cfc7b6368bee3a5d10b65b3bcf7fb91b8cb979459c4a95e17e61580644eecde487cf98977b79ae7ad7a18757c9d10e173183260aa842792a9575081ea8fb433ca326de614160491d4f63056e75fa58012111db3baeaa19bb31dedfce0b21ae15649114ee4c7c7b05a66575671712f9db0480cb8a6dbdf7f2a1135c08fd52257b0b4eb02251875ea5a1f141b9ac85751fc7f5b644039b6c4c49fb3132fbd3c798781c9be27cea8278ea34802eac7c4a6bd08941d1ec38a3741c54879398aa0496fdeafb13a8088fa4401954d17d95ccdae4278ce103734d31f3bdaacd74e31a32015956efbe87e67cca5b1ba12fcd21def61965eaebc20768a635c925fbefd9bc7c70fd4cb187602ce4f448e7799d11ee4a4d9f97ef0ebdbf8552e672c58b24367bc0117bbc88367899066d8129dc448049e6bba97292226867a71f1073644c6168c40d108e131253604781d771e72611b2e8c178e6386940821a7b109203416531070cffd656e74901158ab0fbdeea66bb6c39a3b5d0861b9d75d730a0b28346328a6e3b1e72c2a9a4ff2d1672164f8e76ffaee9f47f78f9fd35e32cdedc0303465ae961c85ab7a1ca509917ea4cabee01d06381db027f469faddfad9e6807bbc4949b83c4c035332b3caf01c458335a38cd4cab4bf978001ec6440cd280b7a86b5a75caa4a432527d59f7a2e1adf2b048ed285635278d33569bfdf953bc3862ecb93a9f73e51cd537f3025979ea21749412e55a2f472619bae0887c0fa54e9646c453c8a82b656f5345dbb1bb6c94ac45d29c45a1732a33ab7b4d36a850d021ae341459fa0301f4a2409535648f203f8da8dfa1cd78a77859f48b6ecb3062404a7befb58911a1d76660a652bc75e4ad97d0f3d14ee381c5671bfe87b8baa642d16e209c454d909a814e65d688f25cd626246d443c15da234bbac688b59cf5ea2a222a2a3e415fa9dbccec6c6d0fa5c5fa7229c67d7e5755d76868c8e90a396e93db7effabfeff197194b609e39896e63d7bfc04723e631c3675870769fd1f0a33e2b5a80c767936cacac1ea01877707e5e8ed773dd289c8bc2182868e0e4803438aace37ab4db259e7e83b2431cd727a81c3ab7f2e66ccb80bccb41b95b3a10a4ece0008be3bfcd47d0be95c22725f7e13ea3d84ed5e373115d19e48dc854f46a2fb97dae96160a6546d8a5131fe04f42c3cb1254f0dd0a493d1b2f788a3e97bf4514b0ed55e5f1c6d12f116e883dac08c6058b94f9b3aa554a8085bba4a30c9fb108a1fef864635060b10c4dce503555c3e9c585ab822b744659e5eb2f48aac4178ed8ebc80a4f2f241b9f26d3eae5a2c6194313981882c6f84d38b34e96bc4d0de1c4b371647f12b04c3fe2dcd32fdc20cb0b371d658ead17c635cd64b63f8dda332124724153580f276fc7650d354e3a0c3719a3855614e84cf232e269de048885324e0294b3d67c31b0b4e1218d08e9ae4a0a55b3d11a6b5b8910b738d1d2b844cea87d41bae677bdfd09354fd43c470fc1e1533f69052700603390bb9bf8a113a953f60f2ca74edc49ddb51705f2bb0a2147a151488de8e71d9d66c98f27d416209e0b0b510532f7b77a7bc1a2fe9404673e229f41c45ff0ef44d5ab980319bac16ec806fde124ca6c7a552cb589ec98f3af5978b15f69cd32c82b615d35a1cf2a52e843816e1fda48b1dfd1fed9782f84aac7c473feb87c1b5cc08b177b1c7e75dd299699b61237ed2e28b805dc236faa0c839ce2e54c9146c784c10e712e2bc9554980ee8e0e09f2d1008548679e6a49bdaf80a5d6ccb886ad35e3b78c1dca0317e85565fc8a5f0c06deea522bcd31f6bbce875e81ce73a48299eacd7b980eb24ae4c6517db85abab024d55786b1653ef9c9f4c42d1b900d7ada3619d01cb93573a87b7eeb6d771f5031945043c7e5b0f0ba04f3d5a66e326dbdc7cfe8fe4b3304860d4afd9bc106d6ee82d9899f0763d46f1ccf04528828890ee9385171163a2b49d32fe4f96bbed42775df28bb97b09c15a03f1153b98c273754d829bcf89f856356602b2a1b0d36297e9a5471df7951b74645d91a2ac098767d8ed221494dc043b03c3762bd32f31b000e2ff3f91a355a70d25fae22590debb662dd7708023d32745fa664a0aa6902bd3b061ae0095184e128c20b5f7a787403a4c9188060d8a3fdb4753fb193c9431c66733d7bbe0b0ac90f7965d266225c3861d3c13ad697221466e16d47bc699a185ee69179565c42fcd5ad3d422ab7bbba439b7f8c8195ee6d934879d74a4f2cd5bb6fbdc173ccb541fc319fe411ed63436b47c03f4b36da2c9500cc809f9bc65dc54a4bb84a526e291c6a57fb234bca9a8f0f0669d74719a0d5bd1b86878a7f8cdc196c9cc59ada5b6de0b78ba378dc680154195d0a9d595ad46f8c3431d39b676f90fa750d8f17768225064e561dcc9dd6e134f80af6ee3d8828a9e017db7f8e6d867f205df347e6d0f4cbcb54feabc8d483926bfc78413309a5c88193def3c62e95e5f9c4510f4a5d844d8d27bf6827c0ae390755729153cf74243b0b86ffa0291a6236acaf5a4871141e37115a5396de81fcba5cb88c8753045d04869449a3d24ffdde7ef181baff26d9d48346a46e5f1ab8393633e726fd530c74f3e27a8503b1f8e84f3218dfd66057d5600e2efb4a2654c16768df630fd3642ba8faebdb26c63fc179c3fee7845342d51f756a26e1514f35040f0eda093385dd29ce930c12022c111c86fc9b393e9e2aa3447273054f7b20222c3f440af816d938984176efe8e11865bd723568d1e35b8df91686e8c144c2989de89513e7189969a9907a7df8e37f7ce501330fbdd01996818ff858574fada633d42de40f6fd6e566b0485f0ec7daf24a3c9506d50c79045009d64f0a5a822f71fc95c61aefe637d3520832433bc2791ae384f36d5e25d19cc8a74570aed6b6b3ab1a122c81c6164f3d3c02f88922f28a269b96154a969f81ae6abb463c8949bf850266eb3cf0c1dd95bf36a35fc4941cc0d8970016313a505e60cee0e3f3f5f70c1a223d4647484f61666d8e9caacaf10a1020213a4b4c4d5e6c6d6e7180919ea2bdc4cff6080d1a1f282a2b2c354b4e7691bceaf3fa000000000000000000000000000d1d324301fd210500eeb8c6e913a3bb5f410c9c94f4ccbf3c8d7332296e9d3342bee0a6cc050fab419273b5c173ac4b4c3d4bdec7a8c989a99893d759a2c28e0d59b9890bfeb54d8e02e43d9d607a3fef3c5c7bf54b2971de8ce69f01b6b8a5597a35575c6963b376a586cc4e262c0c15820c79f960dc34e384573f0cea5763350213786053807f276228fbec33d8ec1c7ef3857bea5e59f46cc64f0c631c79c69f9a21fa0c276837a9902ca3a290154d77b206d04a5d0ad43dbbb4c08889179c3261a03ea21a76c8d7bb901f80c761dfd123591066d94f2b162739f111f7e9d48f273ff2b0afd41a6abaa50eaef5d81d13027f5993e15ade3346672c212030fb454e80288893ab50020d7a484c86eae6f5fe04c2d05eeebcb73c9bfcba2efab22c4e8a27e58a3d5fdd01cab6f7e48ec070a5bb309e0f40fa93e54faa6186aec3134f3a371d7130a05ac4618eebee328d84f552731f6bc5c495c135c05af60ac09fcaf72a7ce7fc897e3b5e5a8a47e7cd88a90b569f0dcdbe4df80e3f3df1abf44d7e7cc90cfdf78aa28023320d53b6fbe9d539e57948040dbe2391583391e75ed06a1fd32f1d9af0d63fbf087214c63c8f8a905220bcc24bac0bf2c15e22dbe2c9f8d472781f9663fe003c056ad38c122312d7a9ca1cba0d9fadb1c419d97254cf6d9128745d7e1f3dd99b2ce832bdbad163b3d005d53afb305c1e6df495af1914a0db0c2319cb8fda580a0d5fb6b69acadaae3898f365175f3f4fc6364da7d3e80bfd3598c184009f9f7542949b64a908020d77416b22a76e79e5a723b4162382ed0c8f6eea8a1f4ddbb1c6470cd023ba00a2128ed38b8731e11fb66d31515c267619a5fb75e2c34bde530f8e51ac2f597b0347bfbdbe20fe0dab797a63b28931acefe3e451e70abbee66982454e5b13a6953270bfd70530a146b401b09e4237361f10c8d74642fb85fcc7bf100b1d524030739597d02938fde223575b5f014ec88b0b3747203f11782efd2885f80b3fc209af1491f56c5bf768e20b2b7e7994931e5f8b740dfc73bb3b3b1bf6db72fdd2c0c3dc018886a0b14a0d5a06b412000eda3cd54a0b6e34831333ba85e2cc94bf6a4a0a7d9675ac6ebc341039b8a5f035095682951f81c74d69da26394c204ef9536b4e8efbaa5d3821f50df53d9a9a31bffd460f276447c544de93fe355efe17f5ced549852cf6de485874b971c072ce0cf7f0c7a3ab0136118b05e612569c70bc794d6cdad45e26e3bd9326eb58d2c563daaae989bd0334a1ace4a04d32a987b32656623d58a7cc098ab821326e403aee464a4f598479f3617579e6235ad0442d6d85c843daa4a4b49579e83cdccf5326d54814d55f7f4ee7aa67dd3e5415fb9deba68ee743b4c30027a472a1fab24795fd5aa7fafebe42acdaf730b238bcff9ecb7acd8c210efe1a9a44eec1dac235dc43d9ea32547f959f73b3a04d4a54e097191f3a1f16d3f0a2bcfb619c23668269d1ee0f0dbb98a0c43fe1d351d3eddea4772a91f7c75551d7e92fbbf512fb17e05e5036d1b2a4ca7c11cf74c0993331e8aada4202aa1ba124f5d4df0ea81b1c9807ae22fe386a74390a32f04e64b6fa6fa31a68f3988101596918966052515b8d16e48e824b8c2dfc682ac81dc3187bc4abd3168609671982407114a47ca308869f15abaa59d78454a1e342954eb3d37961f97f7de148abe4f87cd0f2b29dea530bce1e27cebee3edb61eb5aa874809c21df122b74252449469536700fd958809cb0c82fdea920b6122c3a7b51552c0a576e04a93269346281dc53777b21b4cdafaf1c252d78c1cae8f904f4e847cc21cdd06ff4ae6ffd04f25d985b8c4fab4c88134de372ea84000000",
  "txid": "83352b8a5f746a1ecf407b461d73b9eaa518622f9f361cc8ba98d0fc4eec74d0",
  "hash": "7a7122549921fe1f3222fc4c52ece0d4b42e3cad16699ed82c9a1b7bdd15d096",
  "size": 5085,
  "vsize": 2278,
  "version": 1,
  "locktime": 132,
  "vin": [
    {
      "txid": "376d4f3ac1e1b2146c9ba3dde905012b6f39ef7f99b89c765c5e0e5d03b085c9",
      "vout": 1,
      "scriptSig": {
        "asm": "",
        "hex": ""
      },
      "txinwitness": [
        "61373db034065cf763d8a1ed3841960320b729c88b8cfcb5e7ebe9813ad9b0d0dd804e55a48b7a6df2a56a5d736d34ba9459d82206fe96ec3649eeb3b01e348119e56d350bb74387a84fda3632e03f364d2efc66750e1593b89d590c9311decade8a1380a2aca48984936a5e049ecaa78787d2a999e295fb481dbc3e7740812573b4f578380999fcba5e51fe97092e5ea81951239eb327aedbec7a728b8a55a0900532d7f360ced24ccef4435cf1b654bf73e44597d24945d484ce9c15ab5dccbdfd15548849a4c5cfc7b6368bee3a5d10b65b3bcf7fb91b8cb979459c4a95e17e61580644eecde487cf98977b79ae7ad7a18757c9d10e173183260aa842792a9575081ea8fb433ca326de614160491d4f63056e75fa58012111db3baeaa19bb31dedfce0b21ae15649114ee4c7c7b05a66575671712f9db0480cb8a6dbdf7f2a1135c08fd52257b0b4eb02251875ea5a1f141b9ac85751fc7f5b644039b6c4c49fb3132fbd3c798781c9be27cea8278ea34802eac7c4a6bd08941d1ec38a3741c54879398aa0496fdeafb13a8088fa4401954d17d95ccdae4278ce103734d31f3bdaacd74e31a32015956efbe87e67cca5b1ba12fcd21def61965eaebc20768a635c925fbefd9bc7c70fd4cb187602ce4f448e7799d11ee4a4d9f97ef0ebdbf8552e672c58b24367bc0117bbc88367899066d8129dc448049e6bba97292226867a71f1073644c6168c40d108e131253604781d771e72611b2e8c178e6386940821a7b109203416531070cffd656e74901158ab0fbdeea66bb6c39a3b5d0861b9d75d730a0b28346328a6e3b1e72c2a9a4ff2d1672164f8e76ffaee9f47f78f9fd35e32cdedc0303465ae961c85ab7a1ca509917ea4cabee01d06381db027f469faddfad9e6807bbc4949b83c4c035332b3caf01c458335a38cd4cab4bf978001ec6440cd280b7a86b5a75caa4a432527d59f7a2e1adf2b048ed285635278d33569bfdf953bc3862ecb93a9f73e51cd537f3025979ea21749412e55a2f472619bae0887c0fa54e9646c453c8a82b656f5345dbb1bb6c94ac45d29c45a1732a33ab7b4d36a850d021ae341459fa0301f4a2409535648f203f8da8dfa1cd78a77859f48b6ecb3062404a7befb58911a1d76660a652bc75e4ad97d0f3d14ee381c5671bfe87b8baa642d16e209c454d909a814e65d688f25cd626246d443c15da234bbac688b59cf5ea2a222a2a3e415fa9dbccec6c6d0fa5c5fa7229c67d7e5755d76868c8e90a396e93db7effabfeff197194b609e39896e63d7bfc04723e631c3675870769fd1f0a33e2b5a80c767936cacac1ea01877707e5e8ed773dd289c8bc2182868e0e4803438aace37ab4db259e7e83b2431cd727a81c3ab7f2e66ccb80bccb41b95b3a10a4ece0008be3bfcd47d0be95c22725f7e13ea3d84ed5e373115d19e48dc854f46a2fb97dae96160a6546d8a5131fe04f42c3cb1254f0dd0a493d1b2f788a3e97bf4514b0ed55e5f1c6d12f116e883dac08c6058b94f9b3aa554a8085bba4a30c9fb108a1fef864635060b10c4dce503555c3e9c585ab822b744659e5eb2f48aac4178ed8ebc80a4f2f241b9f26d3eae5a2c6194313981882c6f84d38b34e96bc4d0de1c4b371647f12b04c3fe2dcd32fdc20cb0b371d658ead17c635cd64b63f8dda332124724153580f276fc7650d354e3a0c3719a3855614e84cf232e269de048885324e0294b3d67c31b0b4e1218d08e9ae4a0a55b3d11a6b5b8910b738d1d2b844cea87d41bae677bdfd09354fd43c470fc1e1533f69052700603390bb9bf8a113a953f60f2ca74edc49ddb51705f2bb0a2147a151488de8e71d9d66c98f27d416209e0b0b510532f7b77a7bc1a2fe9404673e229f41c45ff0ef44d5ab980319bac16ec806fde124ca6c7a552cb589ec98f3af5978b15f69cd32c82b615d35a1cf2a52e843816e1fda48b1dfd1fed9782f84aac7c473feb87c1b5cc08b177b1c7e75dd299699b61237ed2e28b805dc236faa0c839ce2e54c9146c784c10e712e2bc9554980ee8e0e09f2d1008548679e6a49bdaf80a5d6ccb886ad35e3b78c1dca0317e85565fc8a5f0c06deea522bcd31f6bbce875e81ce73a48299eacd7b980eb24ae4c6517db85abab024d55786b1653ef9c9f4c42d1b900d7ada3619d01cb93573a87b7eeb6d771f5031945043c7e5b0f0ba04f3d5a66e326dbdc7cfe8fe4b3304860d4afd9bc106d6ee82d9899f0763d46f1ccf04528828890ee9385171163a2b49d32fe4f96bbed42775df28bb97b09c15a03f1153b98c273754d829bcf89f856356602b2a1b0d36297e9a5471df7951b74645d91a2ac098767d8ed221494dc043b03c3762bd32f31b000e2ff3f91a355a70d25fae22590debb662dd7708023d32745fa664a0aa6902bd3b061ae0095184e128c20b5f7a787403a4c9188060d8a3fdb4753fb193c9431c66733d7bbe0b0ac90f7965d266225c3861d3c13ad697221466e16d47bc699a185ee69179565c42fcd5ad3d422ab7bbba439b7f8c8195ee6d934879d74a4f2cd5bb6fbdc173ccb541fc319fe411ed63436b47c03f4b36da2c9500cc809f9bc65dc54a4bb84a526e291c6a57fb234bca9a8f0f0669d74719a0d5bd1b86878a7f8cdc196c9cc59ada5b6de0b78ba378dc680154195d0a9d595ad46f8c3431d39b676f90fa750d8f17768225064e561dcc9dd6e134f80af6ee3d8828a9e017db7f8e6d867f205df347e6d0f4cbcb54feabc8d483926bfc78413309a5c88193def3c62e95e5f9c4510f4a5d844d8d27bf6827c0ae390755729153cf74243b0b86ffa0291a6236acaf5a4871141e37115a5396de81fcba5cb88c8753045d04869449a3d24ffdde7ef181baff26d9d48346a46e5f1ab8393633e726fd530c74f3e27a8503b1f8e84f3218dfd66057d5600e2efb4a2654c16768df630fd3642ba8faebdb26c63fc179c3fee7845342d51f756a26e1514f35040f0eda093385dd29ce930c12022c111c86fc9b393e9e2aa3447273054f7b20222c3f440af816d938984176efe8e11865bd723568d1e35b8df91686e8c144c2989de89513e7189969a9907a7df8e37f7ce501330fbdd01996818ff858574fada633d42de40f6fd6e566b0485f0ec7daf24a3c9506d50c79045009d64f0a5a822f71fc95c61aefe637d3520832433bc2791ae384f36d5e25d19cc8a74570aed6b6b3ab1a122c81c6164f3d3c02f88922f28a269b96154a969f81ae6abb463c8949bf850266eb3cf0c1dd95bf36a35fc4941cc0d8970016313a505e60cee0e3f3f5f70c1a223d4647484f61666d8e9caacaf10a1020213a4b4c4d5e6c6d6e7180919ea2bdc4cff6080d1a1f282a2b2c354b4e7691bceaf3fa000000000000000000000000000d1d324301",
        "00eeb8c6e913a3bb5f410c9c94f4ccbf3c8d7332296e9d3342bee0a6cc050fab419273b5c173ac4b4c3d4bdec7a8c989a99893d759a2c28e0d59b9890bfeb54d8e02e43d9d607a3fef3c5c7bf54b2971de8ce69f01b6b8a5597a35575c6963b376a586cc4e262c0c15820c79f960dc34e384573f0cea5763350213786053807f276228fbec33d8ec1c7ef3857bea5e59f46cc64f0c631c79c69f9a21fa0c276837a9902ca3a290154d77b206d04a5d0ad43dbbb4c08889179c3261a03ea21a76c8d7bb901f80c761dfd123591066d94f2b162739f111f7e9d48f273ff2b0afd41a6abaa50eaef5d81d13027f5993e15ade3346672c212030fb454e80288893ab50020d7a484c86eae6f5fe04c2d05eeebcb73c9bfcba2efab22c4e8a27e58a3d5fdd01cab6f7e48ec070a5bb309e0f40fa93e54faa6186aec3134f3a371d7130a05ac4618eebee328d84f552731f6bc5c495c135c05af60ac09fcaf72a7ce7fc897e3b5e5a8a47e7cd88a90b569f0dcdbe4df80e3f3df1abf44d7e7cc90cfdf78aa28023320d53b6fbe9d539e57948040dbe2391583391e75ed06a1fd32f1d9af0d63fbf087214c63c8f8a905220bcc24bac0bf2c15e22dbe2c9f8d472781f9663fe003c056ad38c122312d7a9ca1cba0d9fadb1c419d97254cf6d9128745d7e1f3dd99b2ce832bdbad163b3d005d53afb305c1e6df495af1914a0db0c2319cb8fda580a0d5fb6b69acadaae3898f365175f3f4fc6364da7d3e80bfd3598c184009f9f7542949b64a908020d77416b22a76e79e5a723b4162382ed0c8f6eea8a1f4ddbb1c6470cd023ba00a2128ed38b8731e11fb66d31515c267619a5fb75e2c34bde530f8e51ac2f597b0347bfbdbe20fe0dab797a63b28931acefe3e451e70abbee66982454e5b13a6953270bfd70530a146b401b09e4237361f10c8d74642fb85fcc7bf100b1d524030739597d02938fde223575b5f014ec88b0b3747203f11782efd2885f80b3fc209af1491f56c5bf768e20b2b7e7994931e5f8b740dfc73bb3b3b1bf6db72fdd2c0c3dc018886a0b14a0d5a06b412000eda3cd54a0b6e34831333ba85e2cc94bf6a4a0a7d9675ac6ebc341039b8a5f035095682951f81c74d69da26394c204ef9536b4e8efbaa5d3821f50df53d9a9a31bffd460f276447c544de93fe355efe17f5ced549852cf6de485874b971c072ce0cf7f0c7a3ab0136118b05e612569c70bc794d6cdad45e26e3bd9326eb58d2c563daaae989bd0334a1ace4a04d32a987b32656623d58a7cc098ab821326e403aee464a4f598479f3617579e6235ad0442d6d85c843daa4a4b49579e83cdccf5326d54814d55f7f4ee7aa67dd3e5415fb9deba68ee743b4c30027a472a1fab24795fd5aa7fafebe42acdaf730b238bcff9ecb7acd8c210efe1a9a44eec1dac235dc43d9ea32547f959f73b3a04d4a54e097191f3a1f16d3f0a2bcfb619c23668269d1ee0f0dbb98a0c43fe1d351d3eddea4772a91f7c75551d7e92fbbf512fb17e05e5036d1b2a4ca7c11cf74c0993331e8aada4202aa1ba124f5d4df0ea81b1c9807ae22fe386a74390a32f04e64b6fa6fa31a68f3988101596918966052515b8d16e48e824b8c2dfc682ac81dc3187bc4abd3168609671982407114a47ca308869f15abaa59d78454a1e342954eb3d37961f97f7de148abe4f87cd0f2b29dea530bce1e27cebee3edb61eb5aa874809c21df122b74252449469536700fd958809cb0c82fdea920b6122c3a7b51552c0a576e04a93269346281dc53777b21b4cdafaf1c252d78c1cae8f904f4e847cc21cdd06ff4ae6ffd04f25d985b8c4fab4c88134de372ea"
      ],
      "sequence": 4294967294
    }
  ],
  "vout": [
    {
      "value": 499965.4254,
      "n": 0,
      "scriptPubKey": {
        "asm": "1 c9e548302e7370e0b7ebfc7dcee99a607afbfb23e0360135f8ce9fdc1cc82348",
        "hex": "5120c9e548302e7370e0b7ebfc7dcee99a607afbfb23e0360135f8ce9fdc1cc82348",
        "reqSigs": 1,
        "type": "witness_v1_scripthash",
        "addresses": [
          "3QJmnh"
        ]
      }
    },
    {
      "value": 1.0,
      "n": 1,
      "scriptPubKey": {
        "asm": "OP_RETURN d583d1875b9b1774bcd4612118a386bc1bf121dfdb58eafc1409452cf2d9925d 90ea4674037d085a14a5e3f0329ffb8d4b91c133cf229461cad3154aadf6c8b9b0ca6654235d287a3485c3d012bfdbad6bb1e113ef02b441eaf3356a8dd6e899d0aa0634433d481a54e5a3b072dfbbcd0bd181738f62d4218a93550aedb688f9f08a2614631d683a74c5839052ff9bed2bf1a153af42f401aab3752acd96a8d9106ac6f483fd88da94256370b21f7b0dcb1141b34fa214e14a5395ca2d764839304ae6d4a3dda8fab4054350923f5b2deb3161936f8234c16a73b5ea0d566819502a86b4c3bdc89ad4652330f25f3b4d8b5101f30fe254a10a13d58a6d360879700aa694e39de8baf4450310d27f1b6dab7121d32fc274812a33f5aa4d16285990ea4674037d085a14a5e3f0329ffb8d4b91c133cf229461cad3154aadf6c8b9b0ca6654235d287a3485c3d012bfdbad6bb1e113ef02b441eaf3356a8dd6e899d0aa0634433d481a54e5a3b072dfbbcd0bd181738f62d4218a93550aedb688f9f08a2614631d683a74c5839052ff9bed2bf1a153af42f401aab3752acd96a8d9106ac6f483fd88da94256370b21f7b0dcb1141b34fa214e14a5395ca2d764839304ae6d4a3dda8fab4054350923f5b2deb3161936f8234c16a73b5ea0d566819502a86b4c3bdc89ad4652330f25f3b4d8b5101f30fe254a10a13d58a6d360879700aa694e39de8baf4450310d27f1b6dab7121d32fc274812a33f5aa4d16285990ea4674037d085a14a5e3f0329ffb8d4b91c133cf229461cad3154aadf6c8b9b0ca6654235d287a3485c3d012bfdbad6bb1e113ef02b441eaf3356a8dd6e899d0aa0634433d481a54e5a3b072dfbbcd0bd181738f62d4218a93550aedb688f9f08a2614631d683a74c5839052ff9bed2bf1a153af42f401aab3752acd96a8d9106ac6f483fd88da94256370b21f7b0dcb1141b34fa214e14a5395ca2d764839304ae6d4a3dda8fab4054350923f5b2deb3161936f8234c16a73b5ea0d566819502a86b4c3bdc89ad4652330f25f3b4d8b5101f30fe254a10a13d58a6d360879700aa694e39de8baf4450310d27f1b6dab7121d32fc274812a33f5aa4d16285990ea4674037d085a14a5e3f0329ffb8d4b91c133cf229461cad3154aadf6c8b9b0ca6654235d287a3485c3d012bfdbad6bb1e113ef02b441eaf3356a8dd6e899d0aa0634433d481a54e5a3b072dfbbcd0bd181738f62d4218a93550aedb688f9f08a2614631d683a74c5839052ff9bed2bf1a153af42f401aab3752acd96a8d9106ac6f483fd88da94256370b21f7b0dcb1141b34fa214e14a5395ca2d764839304ae6d4a3dda8fab4054350923f5b2deb3161936f8234c16a73b5ea0d566819502a86b4c3bdc89ad4652330f25f3b4d8b5101f30fe254a10a13d58a6d360879700aa694e39de8baf4450310d27f1b6dab7121d32fc274812a33f5aa4d16285990ea4674037d085a14a5e3f0329ffb8d4b91c133cf229461cad3154aadf6c8b9b0ca6654235d287a3485c3d012bfdbad6bb1e113ef02b441eaf3356a8dd6e899d0aa0634433d481a54e5a3b072dfbbcd0bd181738f62d4218a93550aedb688f9f08a2614631d683a74c5839052ff9bed2bf1a153af42f401aab3752acd96a8d9106ac6f483fd88da94256370b21f7b0d94a005862465935f0014362f48d23345478daee57302befe29dccff4656e4f70",
        "hex": "6a20d583d1875b9b1774bcd4612118a386bc1bf121dfdb58eafc1409452cf2d9925d4db00490ea4674037d085a14a5e3f0329ffb8d4b91c133cf229461cad3154aadf6c8b9b0ca6654235d287a3485c3d012bfdbad6bb1e113ef02b441eaf3356a8dd6e899d0aa0634433d481a54e5a3b072dfbbcd0bd181738f62d4218a93550aedb688f9f08a2614631d683a74c5839052ff9bed2bf1a153af42f401aab3752acd96a8d9106ac6f483fd88da94256370b21f7b0dcb1141b34fa214e14a5395ca2d764839304ae6d4a3dda8fab4054350923f5b2deb3161936f8234c16a73b5ea0d566819502a86b4c3bdc89ad4652330f25f3b4d8b5101f30fe254a10a13d58a6d360879700aa694e39de8baf4450310d27f1b6dab7121d32fc274812a33f5aa4d16285990ea4674037d085a14a5e3f0329ffb8d4b91c133cf229461cad3154aadf6c8b9b0ca6654235d287a3485c3d012bfdbad6bb1e113ef02b441eaf3356a8dd6e899d0aa0634433d481a54e5a3b072dfbbcd0bd181738f62d4218a93550aedb688f9f08a2614631d683a74c5839052ff9bed2bf1a153af42f401aab3752acd96a8d9106ac6f483fd88da94256370b21f7b0dcb1141b34fa214e14a5395ca2d764839304ae6d4a3dda8fab4054350923f5b2deb3161936f8234c16a73b5ea0d566819502a86b4c3bdc89ad4652330f25f3b4d8b5101f30fe254a10a13d58a6d360879700aa694e39de8baf4450310d27f1b6dab7121d32fc274812a33f5aa4d16285990ea4674037d085a14a5e3f0329ffb8d4b91c133cf229461cad3154aadf6c8b9b0ca6654235d287a3485c3d012bfdbad6bb1e113ef02b441eaf3356a8dd6e899d0aa0634433d481a54e5a3b072dfbbcd0bd181738f62d4218a93550aedb688f9f08a2614631d683a74c5839052ff9bed2bf1a153af42f401aab3752acd96a8d9106ac6f483fd88da94256370b21f7b0dcb1141b34fa214e14a5395ca2d764839304ae6d4a3dda8fab4054350923f5b2deb3161936f8234c16a73b5ea0d566819502a86b4c3bdc89ad4652330f25f3b4d8b5101f30fe254a10a13d58a6d360879700aa694e39de8baf4450310d27f1b6dab7121d32fc274812a33f5aa4d16285990ea4674037d085a14a5e3f0329ffb8d4b91c133cf229461cad3154aadf6c8b9b0ca6654235d287a3485c3d012bfdbad6bb1e113ef02b441eaf3356a8dd6e899d0aa0634433d481a54e5a3b072dfbbcd0bd181738f62d4218a93550aedb688f9f08a2614631d683a74c5839052ff9bed2bf1a153af42f401aab3752acd96a8d9106ac6f483fd88da94256370b21f7b0dcb1141b34fa214e14a5395ca2d764839304ae6d4a3dda8fab4054350923f5b2deb3161936f8234c16a73b5ea0d566819502a86b4c3bdc89ad4652330f25f3b4d8b5101f30fe254a10a13d58a6d360879700aa694e39de8baf4450310d27f1b6dab7121d32fc274812a33f5aa4d16285990ea4674037d085a14a5e3f0329ffb8d4b91c133cf229461cad3154aadf6c8b9b0ca6654235d287a3485c3d012bfdbad6bb1e113ef02b441eaf3356a8dd6e899d0aa0634433d481a54e5a3b072dfbbcd0bd181738f62d4218a93550aedb688f9f08a2614631d683a74c5839052ff9bed2bf1a153af42f401aab3752acd96a8d9106ac6f483fd88da94256370b21f7b0d94a005862465935f0014362f48d23345478daee57302befe29dccff4656e4f70",
        "type": "nulldata"
      }
    }
  ],
  "blockhash": "2dfbfbf9a9b6a37d5bbaa2d3fd41803f08650e7d63861427b8d0526132d1543b",
  "confirmations": 1,
  "time": 1764182436,
  "blocktime": 1764182436
}