{
  "hex": "010000000001010dca188cfd75179948c82360b02043fc5fe3e566e53ad1607606372c8f88e6860100000000feffffff0200e1f50500000000fdd5046a20b854f91379e020201ce6c7ab0c46ce1004a15b90366a4b23574730d85bb5f22c4db004eb8b76b71012e262996f85f71c1052796d56bffa15f7e52d0e34548636754aa6cbab56973032c242b94fa5d73c3072594d769fda35d7c50d2e1474a616556a86abcb36f75052a222d92fc5b75c5012392d16ffba55b7a56d4e7414c676350ae68beb16d770728202f90fe5977c7032190d36df9a7597854d6e5434e656152ac66b0bf637909262e219ef05779c90d2f9edd63f7a957765ad8eb4d406b6f5ca264b2bd617b0b242c239cf2557bcb0f2d9cdf61f5ab557458dae94f42696d5ea062b4bb677d0d222a259af4537dcd092b9ad967f3ad53725edcef49446f6b58a660b6b9657f0f20282798f6517fcf0b2998db65f1af51705cdeed4b466d695aa46eb8b76b71012e262996f85f71c1052796d56bffa15f7e52d0e34548636754aa6cbab56973032c242b94fa5d73c3072594d769fda35d7c50d2e1474a616556a86abcb36f75052a222d92fc5b75c5012392d16ffba55b7a56d4e7414c676350ae68beb16d770728202f90fe5977c7032190d36df9a7597854d6e5434e656152ac66b0bf637909262e219ef05779c90d2f9edd63f7a957765ad8eb4d406b6f5ca264b2bd617b0b242c239cf2557bcb0f2d9cdf61f5ab557458dae94f42696d5ea062b4bb677d0d222a259af4537dcd092b9ad967f3ad53725edcef49446f6b58a660b6b9657f0f20282798f6517fcf0b2998db65f1af51705cdeed4b466d695aa46eb8b76b71012e262996f85f71c1052796d56bffa15f7e52d0e34548636754aa6cbab56973032c242b94fa5d73c3072594d769fda35d7c50d2e1474a616556a86abcb36f75052a222d92fc5b75c5012392d16ffba55b7a56d4e7414c676350ae68beb16d770728202f90fe5977c7032190d36df9a7597854d6e5434e656152ac66b0bf637909262e219ef05779c90d2f9edd63f7a957765ad8eb4d406b6f5ca264b2bd617b0b242c239cf2557bcb0f2d9cdf61f5ab557458dae94f42696d5ea062b4bb677d0d222a259af4537dcd092b9ad967f3ad53725edcef49446f6b58a660b6b9657f0f20282798f6517fcf0b2998db65f1af51705cdeed4b466d695aa46eb8b76b71012e262996f85f71c1052796d56bffa15f7e52d0e34548636754aa6cbab56973032c242b94fa5d73c3072594d769fda35d7c50d2e1474a616556a86abcb36f75052a222d92fc5b75c5012392d16ffba55b7a56d4e7414c676350ae68beb16d770728202f90fe5977c7032190d36df9a7597854d6e5434e656152ac66b0bf637909262e219ef05779c90d2f9edd63f7a957765ad8eb4d406b6f5ca264b2bd617b0b242c239cf2557bcb0f2d9cdf61f5ab557458dae94f42696d5ea062b4bb677d0d222a259af4537dcd092b9ad967f3ad53725edcef49446f6b58a660b6b9657f0f20282798f6517fcf0b2998db65f1af51705cdeed4b466d695aa46eb8b76b71012e262996f85f71c1052796d56bffa15f7e52d0e34548636754aa6cbab56973032c242b94fa5d73c3072594d769fda35d7c50d2e1474a616556a86abcb36f75052a222d92fc5b75c5012392d16ffba55b7a56d4e7414c676350ae68beb16d770728202f90fe5977c7032190d36df9a7597854d6e5434e656152ac66b0bf637909262e219ef05779c90d2f9cf12243c9da151f496ffa46f0dba67e2d09a5f91066b2da62d41188fbd89a9b9c075fe6f792d0000225120eec9d2df09fe655d1dc188bbfcd22199ed1083dfdbcf92db52aea81730ad9e0802fd7509a812d9168ea55582a81365f8adf4878248e977ced993c1fa22bc46673d140b908850c8420f192189c26b6c381f428e5311e89a24d22d9fa6968fdfed7f1f497b64f5b614f802c992f62cfdc80d5f0b632d708455a96e81f6116ccc6dc1724c37c4ff9390102717064d73fd7d98bef944f5e1fffecee5d5c7e8d37e8c0ab03d9cae9419423df11018debf095df903b1049e8a02941076d29a3c18dd8dc91a7ecb57ab51904aac0c58d9fff26e4dcb30ba911f02eeaf9f14b2a628d28b698fcf8aed89a8f12bc14d6fd0e8eec7b2754a57c0dac8b0771b4fd17506451a6180cccae343759e8eefaa5f85aa40303c6879376f011a2b0a1c256fab2b687a39c909e282710904a29bb516c1b680f9e290a4f19267a0e4b65103f924fa87ee78b13760a44afd669526ab20c2193827fd4609b0e24fc542eaf001ba6e4049bd57ebfc011def8da021f10e2c59319609df8be0c0e5759cd650a0975b29103c67e3946c4dea2b8e8350274e52613a6335ce1d87d1246afd0cb47576907806e4239fff0fbf6fc449b5e88efc6da2b9db09cbb5e30058a5bb87aa9d271260d9edf600a77a5188c5ba7a7bb01cd5e524045cca43d0f28232cbe64d388474f226a7c59eed518c9806f0f7aec8b1f5f38ce1e6b020100127de366cbef9fd6bfd626a297129efb898932c2bfdd4eba9d62fb00121f860ff9e2bd3008e187e0618b503bc15e657523627b21f708fc1af5fe82e6d01fed4337de4d964bca42f01f9fb9fa462ebee1b372f97a4e94e4fb99429462290b84df76368830dbe5138475966137fde26a5efa4d2a5c2ff8a2aa5160c800d0124afcece31ee76c1436a9b118e906c4a5bc09a97f69d162e0a5a24e87ca5e96e940aa96aa8b12d50ea90dc473f2ba1eacbc8ac0c84dcb268afe51dc1548ad020d974748d0275af085f95fed9fe01a24653019a4a495fb9742f0cfc2ad637f16882afb226f512987767ff69c6b524463733560d39e1cdac96dbe86280dc72e261973da1295e532b20a4cb8682089061cda0d56eb05ff380a5b8015c6a0049124934f72fae378daa86446a841aa3fb63580d40386225683ac8823f24c3f351381d08a9eaba6a9be77471c22a52cf2ba1a8c40ec247ab41030f2d2c901ba03f79f7d4541f1008a4b1049b35c3effa68c5437dc7c0abfa3595280b7e2221c6fd53e54d02db315226d2a90ef4fb56568d78792dc7c7544a5001151cbaceabcead520adbb3ce4a99b9b8c9630223e8da821a0ec436b954200b6af7b0ae9148266518b4a9f9783c4e6cb5fb3ed5a6a577aa4c5bfc33a311da60bcc5b0b23f6459909f3c5c134a3dda7a727376c7c6e8cf58faf622dde245ccce8f707f88df2211667f21c1bf90da31023ebfeb4e144e45cce398dc8b0d0a373e26f111c75c253ad97bca17c48d51841de1c00825e76ef355c5a7fa0e46b9c38020d272f1eb8db442cb4c0384a4973ce241b1a74d3c3f78bfa1d7f825272b97804420fd1cd56d5fa70e47060d506b1468caf24226491bcc0c8393f96460f09dff98e05f7b725ef997b2452753c12d7924efaf3ee846d80207cd1e22a6cbee1936c61e457f8b14aa016192b3619d5be97a69355e79b476cd3ab7f246c4a8f589b55f4b67d15e77fe7bec8ca8791d69907e11c1d67d1b9aa3978a39855bd2c2f67ba9e0e2042382f9ef548c14ca839368d1d0869aaec1835725e06315c2b53b5db97f1c32487930dc5bab1ff79fd145748e029e509b438d91c8fa6c118e7133b218da024f34fc555f46e47184b08ca38341e700db5836999b8ffdc192119489da4bf528a0d28ebe3e6637f2a20b862c500b9bfa5ee5ea80016761e9c62b284705486872b90a3f102df135eab0b0c712e7dec4a0c83ea0ec8df9f673d806bb844532270aff8380fea5bec2cfdbfc69230f717176c79a6da2cc04e0210b8b3acd4530af9595bc1e7f9094763ca442f7f11ab856b4d61fd5384a1178593fe2ff1307b5ac2daea4757d3f615c5f44c25d048546b06ae7527a7b9e7b62315f57773f1be756921c115145808496743b469b8f7cacdbf24fc2cd64c861ea787ad7d3d705d330a14b537643577a4bca0f8e84e24b4ffbef6748c3349e597ff6a7e58ef818f479810a850563fe5863500ec1706dbddf817ddc76df5956b6831c941592109ae0bd70452d5ab82eea4459593de2ac76d4d7fc3e51758f97d7a57437adf3b5bc50739ca84d1141d65a491801fde9b79cf00e20dc9d103481b9f44beba6f5f0f16dc69ebb91b1bc5170c472c7753dea2ef1738a13ec6a14cd84dafb8a37dd27275086e0c195fe6b98f4330e8f4647ff748c36318d6dc89881f81b6eeaf169e2803b89fe1a80fd51f1c4388718804c4cef36de07603725d192e0e80c49e66c8e0e4d1d5de31935f5061c0df4e8597a1aa0b18e4367d1a706eaa95ea5eefb7332a5d3b6401acb0271282b97eccc10042016e91c5f9140a9b86588a944e109ae6d8ea93176c82c1a902c4ccdc769a7b5985d3a79dea7cf3c36f506bbe85ab6e4245af6705c5b4c7d097fd0208d053beac7c4c207a0f0b7ef7d86b79153e1baaadd9306762c1f76033b2db2c4802b25a19c029b655dfeac2f1aaa8c551fe61792f1c7f7d437e901a56dd509bedee3aebdd96274b4fdcbd2f7ea23d4b89442c695d14c2450b5a2692b6e4b0109826967e82aa64ed1f03a47ded87ccf87156ec85f353520a223064148b58072040d9558f35bf74a1f09dc11c44c984ff2a18129ca9bd1881083e1fa8cb30e6d5dc15c98564ff7b40582148637f145e95c36fe7473921ed3084e86a04fe0a58871fced6eba920074faf5ed5d6d89b517a8c30c85bbe84c710eeba2d56603f10d9bdbe92e5a503163b75ccf500c725523502f6a6cdbfee911f3ce8be3c4609d2b8073aa014e45d656c3e07a5556caa95b38814e128a474ee8f0ba0c4ba6266c9dd2f98c904363a02e079d01eef7f8be3c49cb68cf046cd8b9a3a891fea3b612e47696c5506f9266020597c24f768fb2d6862635cf36e4acce958163ac084616c6fdf8cd1a9d7728738f87ee0687c9aa22a9793f4ce7e79034ad98fbcb0f26f9b82a4f2c3595e641506e82584aefc3e2c60c45369e7aa12c0c1c4d05a92cc046a714eebbaf6a80260c829455693c646f04f7d8853ae504c93f05c67079723f78a96db8c94d757089516b56cbfdeaf89bf5e2b36099d401aade60c6adc323f7bd0f3909908974fbe3ee8f3add1b311c8834ebd6e7bca7569c18f4c74dbe670982119080781f93ff1a5f7eb2fad7a622505f84f6301c95152e3a668186a1a4ade7f1f2f7fb131a303551556d7182858f9bb5b8bcd2d9f3040d313b4750585f65676a737b8ca5c4d8ee1420323b3e414e505f6176798a8cb5c8d4d6e0e4f90000000000000000000e20324701fd21050084d571e2b1bc591457fe4d547c55bb9c10b119952c609410f273a000037bf6daebaea146a684cf008e8bed6bf4e038b4484540fd19ef33a17990c7c1a40ad74488606fe06933a6d21bfe178799c3fd7803d39d5de5da298ab729f75c61212554973bd3324ae92b8b7bba523db42f8d5793765d5de00c51373fe3bc8dbf9b3a7a0c93d911a3e005b625eb5c391a469f164560513289be3c8e72aa7a92ecf5954d74b832b6aaccfb681fa912d1734f30618f65b3fd008c5bc14bb0a6a5daa926fc9a9a0d5cd197d075744299dbe67e876ddc3cb93c6e71234107a1668c89c8819d84366e3e95f3e2e3736fcfb3e0a5d4cbed021e3eef6c82a1ff2b61a36120b162ff63c6463d9cf75bdeb6ff73eaabf8731a329e3d6e4f48f52fb3c178cc1c85cf201517df30110088e2347b3371f1750c59cffc9aae4f2edc44a6e4df47dee6ae81bc34f926e457047e3a91b71f2473eac250cba156f31b1f4a0791bed32661c2fd190f1d5c1d0107a7e291613b116ef4d863d1b7cfbfdddf7753b86e62e4f4e5f497265061b4e1ea6f30139973439e0a576441ba5a34797f0a285df3a22c55c33bf3368e63afaae6e35581bca9dbde5ab679e53ca29787615cfe53c54d1ead0f90b74d950c591c3ae94c901c2f048b3df93df69cb29215627cfa470864a2c0dbd17cbcfec7625eb1899def19fada3b41154e6b2a18dc9060a9102ca7f38bfd25e7e2668d6e80d80c272b764de8aa4edc0c467870afa46cc6fc0898e6f35dc130858bf75802aa94487f17673f6391e59c5eab6cc5f12617ae41f462492a85f686a2ae9e9f4fca10ef4a4d97c0b5206deb41e9e72e4010f99dc74e822ed779a00d8805c759eb1d605aab1d719149b6d3693c0d5573b2bc438dbff37d2d3cdead8032793bf4f6d536b64901c23637545f38e9e8431527ea5dc8f63564c87c4382185c78e7a084525de21776f97326bf2486ed810a2ba9001ed7e02746f8a447f4cfcae829ad4eeb2afda5a17ff9a167ebe5db29c43495f9c310269e73e5ee6813e34fd3fbecea71a3c489ba999e0036f39a6aeb182eb0b563d34549ef324debda371ff6e39d72e9af2db4398b58ccf002f1b89ae5a9b37f7ad6e2c3676b7a4f5cd19bc2b55ff4548b8229676ac21fb10c8b3325c811599de729bb45772f9624486b3a4884717c2ff94e47abb46b0c17f008da42b26bb4324d274f7ed8f7dec99ca2f30de5ace0573d6d596be678c9e24a29251e3e4981027ca9d3632c79781628c26901ae610f1647ddc7ebb8bbb724b29e9a56e2ab54e09bf6768a55f66f40dfb30ea0a040457f83f12072f24ae81b116c3be36b24c06681ddc6ef3780220ab9a7a07af7258eb5bcc01379fa5d3d5a855b108b09ccc601efaac41d2ae915a62891f9aa9d4cc27f4a65edc10b39d991f9476af4fbfa568e80b455eac09568fb00be868e4afa6300c58e8f3ef4b89655409f1822950fcb039807c16a2b7c0d2df22c51f039f3c32e4e99c9952c1e5e55dab82c55f5fcd2894201c090fe2df5ea4090dbba393b0f3dfe40684e752f7428d3685ce7a5324b1a54a21f0e68c3a6f0b82248680d0d7558585c1e1a493cb9c384e952e3c1dba92ba436917c5319485322886efc39232595d66f479996b01396dbfa71e43dea5af99abd94b0204d70e765545aca524889be9728627b029e6dccd1c3a1c8e5e129257c7f0bb8cdb394cc45235d5870726e226c2bfdecc75dcd8243ce8576a9a890fddbe41f62ad268642bcafa6049c4f2f84720ff0e91112211eb18424bb127387dc8f06a3b5d9394981ecfbae4ede8140550a8c5f65e074911c7c31f8582a1f5c98cb54b8dfdcbded889d8d67000000",
  "txid": "8a770e0d5e39aa56b2157c29cd0031c452358a4b031048fc14237247b84cbd7d",
  "hash": "f8773c16b52946e92e469f930ee297caf20cfb8371bf3e4a8f6d92915eb7582f",
  "size": 5085,
  "vsize": 2278,
  "version": 1,
  "locktime": 103,
  "vin": [
    {
      "txid": "86e6888f2c37067660d13ae566e5e35ffc4320b06023c848991775fd8c18ca0d",
      "vout": 1,
      "scriptSig": {
        "asm": "",
        "hex": ""
      },
      "txinwitness": [
        "a812d9168ea55582a81365f8adf4878248e977ced993c1fa22bc46673d140b908850c8420f192189c26b6c381f428e5311e89a24d22d9fa6968fdfed7f1f497b64f5b614f802c992f62cfdc80d5f0b632d708455a96e81f6116ccc6dc1724c37c4ff9390102717064d73fd7d98bef944f5e1fffecee5d5c7e8d37e8c0ab03d9cae9419423df11018debf095df903b1049e8a02941076d29a3c18dd8dc91a7ecb57ab51904aac0c58d9fff26e4dcb30ba911f02eeaf9f14b2a628d28b698fcf8aed89a8f12bc14d6fd0e8eec7b2754a57c0dac8b0771b4fd17506451a6180cccae343759e8eefaa5f85aa40303c6879376f011a2b0a1c256fab2b687a39c909e282710904a29bb516c1b680f9e290a4f19267a0e4b65103f924fa87ee78b13760a44afd669526ab20c2193827fd4609b0e24fc542eaf001ba6e4049bd57ebfc011def8da021f10e2c59319609df8be0c0e5759cd650a0975b29103c67e3946c4dea2b8e8350274e52613a6335ce1d87d1246afd0cb47576907806e4239fff0fbf6fc449b5e88efc6da2b9db09cbb5e30058a5bb87aa9d271260d9edf600a77a5188c5ba7a7bb01cd5e524045cca43d0f28232cbe64d388474f226a7c59eed518c9806f0f7aec8b1f5f38ce1e6b020100127de366cbef9fd6bfd626a297129efb898932c2bfdd4eba9d62fb00121f860ff9e2bd3008e187e0618b503bc15e657523627b21f708fc1af5fe82e6d01fed4337de4d964bca42f01f9fb9fa462ebee1b372f97a4e94e4fb99429462290b84df76368830dbe5138475966137fde26a5efa4d2a5c2ff8a2aa5160c800d0124afcece31ee76c1436a9b118e906c4a5bc09a97f69d162e0a5a24e87ca5e96e940aa96aa8b12d50ea90dc473f2ba1eacbc8ac0c84dcb268afe51dc1548ad020d974748d0275af085f95fed9fe01a24653019a4a495fb9742f0cfc2ad637f16882afb226f512987767ff69c6b524463733560d39e1cdac96dbe86280dc72e261973da1295e532b20a4cb8682089061cda0d56eb05ff380a5b8015c6a0049124934f72fae378daa86446a841aa3fb63580d40386225683ac8823f24c3f351381d08a9eaba6a9be77471c22a52cf2ba1a8c40ec247ab41030f2d2c901ba03f79f7d4541f1008a4b1049b35c3effa68c5437dc7c0abfa3595280b7e2221c6fd53e54d02db315226d2a90ef4fb56568d78792dc7c7544a5001151cbaceabcead520adbb3ce4a99b9b8c9630223e8da821a0ec436b954200b6af7b0ae9148266518b4a9f9783c4e6cb5fb3ed5a6a577aa4c5bfc33a311da60bcc5b0b23f6459909f3c5c134a3dda7a727376c7c6e8cf58faf622dde245ccce8f707f88df2211667f21c1bf90da31023ebfeb4e144e45cce398dc8b0d0a373e26f111c75c253ad97bca17c48d51841de1c00825e76ef355c5a7fa0e46b9c38020d272f1eb8db442cb4c0384a4973ce241b1a74d3c3f78bfa1d7f825272b97804420fd1cd56d5fa70e47060d506b1468caf24226491bcc0c8393f96460f09dff98e05f7b725ef997b2452753c12d7924efaf3ee846d80207cd1e22a6cbee1936c61e457f8b14aa016192b3619d5be97a69355e79b476cd3ab7f246c4a8f589b55f4b67d15e77fe7bec8ca8791d69907e11c1d67d1b9aa3978a39855bd2c2f67ba9e0e2042382f9ef548c14ca839368d1d0869aaec1835725e06315c2b53b5db97f1c32487930dc5bab1ff79fd145748e029e509b438d91c8fa6c118e7133b218da024f34fc555f46e47184b08ca38341e700db5836999b8ffdc192119489da4bf528a0d28ebe3e6637f2a20b862c500b9bfa5ee5ea80016761e9c62b284705486872b90a3f102df135eab0b0c712e7dec4a0c83ea0ec8df9f673d806bb844532270aff8380fea5bec2cfdbfc69230f717176c79a6da2cc04e0210b8b3acd4530af9595bc1e7f9094763ca442f7f11ab856b4d61fd5384a1178593fe2ff1307b5ac2daea4757d3f615c5f44c25d048546b06ae7527a7b9e7b62315f57773f1be756921c115145808496743b469b8f7cacdbf24fc2cd64c861ea787ad7d3d705d330a14b537643577a4bca0f8e84e24b4ffbef6748c3349e597ff6a7e58ef818f479810a850563fe5863500ec1706dbddf817ddc76df5956b6831c941592109ae0bd70452d5ab82eea4459593de2ac76d4d7fc3e51758f97d7a57437adf3b5bc50739ca84d1141d65a491801fde9b79cf00e20dc9d103481b9f44beba6f5f0f16dc69ebb91b1bc5170c472c7753dea2ef1738a13ec6a14cd84dafb8a37dd27275086e0c195fe6b98f4330e8f4647ff748c36318d6dc89881f81b6eeaf169e2803b89fe1a80fd51f1c4388718804c4cef36de07603725d192e0e80c49e66c8e0e4d1d5de31935f5061c0df4e8597a1aa0b18e4367d1a706eaa95ea5eefb7332a5d3b6401acb0271282b97eccc10042016e91c5f9140a9b86588a944e109ae6d8ea93176c82c1a902c4ccdc769a7b5985d3a79dea7cf3c36f506bbe85ab6e4245af6705c5b4c7d097fd0208d053beac7c4c207a0f0b7ef7d86b79153e1baaadd9306762c1f76033b2db2c4802b25a19c029b655dfeac2f1aaa8c551fe61792f1c7f7d437e901a56dd509bedee3aebdd96274b4fdcbd2f7ea23d4b89442c695d14c2450b5a2692b6e4b0109826967e82aa64ed1f03a47ded87ccf87156ec85f353520a223064148b58072040d9558f35bf74a1f09dc11c44c984ff2a18129ca9bd1881083e1fa8cb30e6d5dc15c98564ff7b40582148637f145e95c36fe7473921ed3084e86a04fe0a58871fced6eba920074faf5ed5d6d89b517a8c30c85bbe84c710eeba2d56603f10d9bdbe92e5a503163b75ccf500c725523502f6a6cdbfee911f3ce8be3c4609d2b8073aa014e45d656c3e07a5556caa95b38814e128a474ee8f0ba0c4ba6266c9dd2f98c904363a02e079d01eef7f8be3c49cb68cf046cd8b9a3a891fea3b612e47696c5506f9266020597c24f768fb2d6862635cf36e4acce958163ac084616c6fdf8cd1a9d7728738f87ee0687c9aa22a9793f4ce7e79034ad98fbcb0f26f9b82a4f2c3595e641506e82584aefc3e2c60c45369e7aa12c0c1c4d05a92cc046a714eebbaf6a80260c829455693c646f04f7d8853ae504c93f05c67079723f78a96db8c94d757089516b56cbfdeaf89bf5e2b36099d401aade60c6adc323f7bd0f3909908974fbe3ee8f3add1b311c8834ebd6e7bca7569c18f4c74dbe670982119080781f93ff1a5f7eb2fad7a622505f84f6301c95152e3a668186a1a4ade7f1f2f7fb131a303551556d7182858f9bb5b8bcd2d9f3040d313b4750585f65676a737b8ca5c4d8ee1420323b3e414e505f6176798a8cb5c8d4d6e0e4f90000000000000000000e20324701",
        "0084d571e2b1bc591457fe4d547c55bb9c10b119952c609410f273a000037bf6daebaea146a684cf008e8bed6bf4e038b4484540fd19ef33a17990c7c1a40ad74488606fe06933a6d21bfe178799c3fd7803d39d5de5da298ab729f75c61212554973bd3324ae92b8b7bba523db42f8d5793765d5de00c51373fe3bc8dbf9b3a7a0c93d911a3e005b625eb5c391a469f164560513289be3c8e72aa7a92ecf5954d74b832b6aaccfb681fa912d1734f30618f65b3fd008c5bc14bb0a6a5daa926fc9a9a0d5cd197d075744299dbe67e876ddc3cb93c6e71234107a1668c89c8819d84366e3e95f3e2e3736fcfb3e0a5d4cbed021e3eef6c82a1ff2b61a36120b162ff63c6463d9cf75bdeb6ff73eaabf8731a329e3d6e4f48f52fb3c178cc1c85cf201517df30110088e2347b3371f1750c59cffc9aae4f2edc44a6e4df47dee6ae81bc34f926e457047e3a91b71f2473eac250cba156f31b1f4a0791bed32661c2fd190f1d5c1d0107a7e291613b116ef4d863d1b7cfbfdddf7753b86e62e4f4e5f497265061b4e1ea6f30139973439e0a576441ba5a34797f0a285df3a22c55c33bf3368e63afaae6e35581bca9dbde5ab679e53ca29787615cfe53c54d1ead0f90b74d950c591c3ae94c901c2f048b3df93df69cb29215627cfa470864a2c0dbd17cbcfec7625eb1899def19fada3b41154e6b2a18dc9060a9102ca7f38bfd25e7e2668d6e80d80c272b764de8aa4edc0c467870afa46cc6fc0898e6f35dc130858bf75802aa94487f17673f6391e59c5eab6cc5f12617ae41f462492a85f686a2ae9e9f4fca10ef4a4d97c0b5206deb41e9e72e4010f99dc74e822ed779a00d8805c759eb1d605aab1d719149b6d3693c0d5573b2bc438dbff37d2d3cdead8032793bf4f6d536b64901c23637545f38e9e8431527ea5dc8f63564c87c4382185c78e7a084525de21776f97326bf2486ed810a2ba9001ed7e02746f8a447f4cfcae829ad4eeb2afda5a17ff9a167ebe5db29c43495f9c310269e73e5ee6813e34fd3fbecea71a3c489ba999e0036f39a6aeb182eb0b563d34549ef324debda371ff6e39d72e9af2db4398b58ccf002f1b89ae5a9b37f7ad6e2c3676b7a4f5cd19bc2b55ff4548b8229676ac21fb10c8b3325c811599de729bb45772f9624486b3a4884717c2ff94e47abb46b0c17f008da42b26bb4324d274f7ed8f7dec99ca2f30de5ace0573d6d596be678c9e24a29251e3e4981027ca9d3632c79781628c26901ae610f1647ddc7ebb8bbb724b29e9a56e2ab54e09bf6768a55f66f40dfb30ea0a040457f83f12072f24ae81b116c3be36b24c06681ddc6ef3780220ab9a7a07af7258eb5bcc01379fa5d3d5a855b108b09ccc601efaac41d2ae915a62891f9aa9d4cc27f4a65edc10b39d991f9476af4fbfa568e80b455eac09568fb00be868e4afa6300c58e8f3ef4b89655409f1822950fcb039807c16a2b7c0d2df22c51f039f3c32e4e99c9952c1e5e55dab82c55f5fcd2894201c090fe2df5ea4090dbba393b0f3dfe40684e752f7428d3685ce7a5324b1a54a21f0e68c3a6f0b82248680d0d7558585c1e1a493cb9c384e952e3c1dba92ba436917c5319485322886efc39232595d66f479996b01396dbfa71e43dea5af99abd94b0204d70e765545aca524889be9728627b029e6dccd1c3a1c8e5e129257c7f0bb8cdb394cc45235d5870726e226c2bfdecc75dcd8243ce8576a9a890fddbe41f62ad268642bcafa6049c4f2f84720ff0e91112211eb18424bb127387dc8f06a3b5d9394981ecfbae4ede8140550a8c5f65e074911c7c31f8582a1f5c98cb54b8dfdcbded889d8d"
      ],
      "sequence": 4294967294
    }
  ],
  "vout": [
    {
      "value": 1.0,
      "n": 0,
      "scriptPubKey": {
        "asm": "OP_RETURN b854f91379e020201ce6c7ab0c46ce1004a15b90366a4b23574730d85bb5f22c eb8b76b71012e262996f85f71c1052796d56bffa15f7e52d0e34548636754aa6cbab56973032c242b94fa5d73c3072594d769fda35d7c50d2e1474a616556a86abcb36f75052a222d92fc5b75c5012392d16ffba55b7a56d4e7414c676350ae68beb16d770728202f90fe5977c7032190d36df9a7597854d6e5434e656152ac66b0bf637909262e219ef05779c90d2f9edd63f7a957765ad8eb4d406b6f5ca264b2bd617b0b242c239cf2557bcb0f2d9cdf61f5ab557458dae94f42696d5ea062b4bb677d0d222a259af4537dcd092b9ad967f3ad53725edcef49446f6b58a660b6b9657f0f20282798f6517fcf0b2998db65f1af51705cdeed4b466d695aa46eb8b76b71012e262996f85f71c1052796d56bffa15f7e52d0e34548636754aa6cbab56973032c242b94fa5d73c3072594d769fda35d7c50d2e1474a616556a86abcb36f75052a222d92fc5b75c5012392d16ffba55b7a56d4e7414c676350ae68beb16d770728202f90fe5977c7032190d36df9a7597854d6e5434e656152ac66b0bf637909262e219ef05779c90d2f9edd63f7a957765ad8eb4d406b6f5ca264b2bd617b0b242c239cf2557bcb0f2d9cdf61f5ab557458dae94f42696d5ea062b4bb677d0d222a259af4537dcd092b9ad967f3ad53725edcef49446f6b58a660b6b9657f0f20282798f6517fcf0b2998db65f1af51705cdeed4b466d695aa46eb8b76b71012e262996f85f71c1052796d56bffa15f7e52d0e34548636754aa6cbab56973032c242b94fa5d73c3072594d769fda35d7c50d2e1474a616556a86abcb36f75052a222d92fc5b75c5012392d16ffba55b7a56d4e7414c676350ae68beb16d770728202f90fe5977c7032190d36df9a7597854d6e5434e656152ac66b0bf637909262e219ef05779c90d2f9edd63f7a957765ad8eb4d406b6f5ca264b2bd617b0b242c239cf2557bcb0f2d9cdf61f5ab557458dae94f42696d5ea062b4bb677d0d222a259af4537dcd092b9ad967f3ad53725edcef49446f6b58a660b6b9657f0f20282798f6517fcf0b2998db65f1af51705cdeed4b466d695aa46eb8b76b71012e262996f85f71c1052796d56bffa15f7e52d0e34548636754aa6cbab56973032c242b94fa5d73c3072594d769fda35d7c50d2e1474a616556a86abcb36f75052a222d92fc5b75c5012392d16ffba55b7a56d4e7414c676350ae68beb16d770728202f90fe5977c7032190d36df9a7597854d6e5434e656152ac66b0bf637909262e219ef05779c90d2f9edd63f7a957765ad8eb4d406b6f5ca264b2bd617b0b242c239cf2557bcb0f2d9cdf61f5ab557458dae94f42696d5ea062b4bb677d0d222a259af4537dcd092b9ad967f3ad53725edcef49446f6b58a660b6b9657f0f20282798f6517fcf0b2998db65f1af51705cdeed4b466d695aa46eb8b76b71012e262996f85f71c1052796d56bffa15f7e52d0e34548636754aa6cbab56973032c242b94fa5d73c3072594d769fda35d7c50d2e1474a616556a86abcb36f75052a222d92fc5b75c5012392d16ffba55b7a56d4e7414c676350ae68beb16d770728202f90fe5977c7032190d36df9a7597854d6e5434e656152ac66b0bf637909262e219ef05779c90d2f9cf12243c9da151f496ffa46f0dba67e2d09a5f91066b2da62d41188fbd89a9b9",
        "hex": "6a20b854f91379e020201ce6c7ab0c46ce1004a15b90366a4b23574730d85bb5f22c4db004eb8b76b71012e262996f85f71c1052796d56bffa15f7e52d0e34548636754aa6cbab56973032c242b94fa5d73c3072594d769fda35d7c50d2e1474a616556a86abcb36f75052a222d92fc5b75c5012392d16ffba55b7a56d4e7414c676350ae68beb16d770728202f90fe5977c7032190d36df9a7597854d6e5434e656152ac66b0bf637909262e219ef05779c90d2f9edd63f7a957765ad8eb4d406b6f5ca264b2bd617b0b242c239cf2557bcb0f2d9cdf61f5ab557458dae94f42696d5ea062b4bb677d0d222a259af4537dcd092b9ad967f3ad53725edcef49446f6b58a660b6b9657f0f20282798f6517fcf0b2998db65f1af51705cdeed4b466d695aa46eb8b76b71012e262996f85f71c1052796d56bffa15f7e52d0e34548636754aa6cbab56973032c242b94fa5d73c3072594d769fda35d7c50d2e1474a616556a86abcb36f75052a222d92fc5b75c5012392d16ffba55b7a56d4e7414c676350ae68beb16d770728202f90fe5977c7032190d36df9a7597854d6e5434e656152ac66b0bf637909262e219ef05779c90d2f9edd63f7a957765ad8eb4d406b6f5ca264b2bd617b0b242c239cf2557bcb0f2d9cdf61f5ab557458dae94f42696d5ea062b4bb677d0d222a259af4537dcd092b9ad967f3ad53725edcef49446f6b58a660b6b9657f0f20282798f6517fcf0b2998db65f1af51705cdeed4b466d695aa46eb8b76b71012e262996f85f71c1052796d56bffa15f7e52d0e34548636754aa6cbab56973032c242b94fa5d73c3072594d769fda35d7c50d2e1474a616556a86abcb36f75052a222d92fc5b75c5012392d16ffba55b7a56d4e7414c676350ae68beb16d770728202f90fe5977c7032190d36df9a7597854d6e5434e656152ac66b0bf637909262e219ef05779c90d2f9edd63f7a957765ad8eb4d406b6f5ca264b2bd617b0b242c239cf2557bcb0f2d9cdf61f5ab557458dae94f42696d5ea062b4bb677d0d222a259af4537dcd092b9ad967f3ad53725edcef49446f6b58a660b6b9657f0f20282798f6517fcf0b2998db65f1af51705cdeed4b466d695aa46eb8b76b71012e262996f85f71c1052796d56bffa15f7e52d0e34548636754aa6cbab56973032c242b94fa5d73c3072594d769fda35d7c50d2e1474a616556a86abcb36f75052a222d92fc5b75c5012392d16ffba55b7a56d4e7414c676350ae68beb16d770728202f90fe5977c7032190d36df9a7597854d6e5434e656152ac66b0bf637909262e219ef05779c90d2f9edd63f7a957765ad8eb4d406b6f5ca264b2bd617b0b242c239cf2557bcb0f2d9cdf61f5ab557458dae94f42696d5ea062b4bb677d0d222a259af4537dcd092b9ad967f3ad53725edcef49446f6b58a660b6b9657f0f20282798f6517fcf0b2998db65f1af51705cdeed4b466d695aa46eb8b76b71012e262996f85f71c1052796d56bffa15f7e52d0e34548636754aa6cbab56973032c242b94fa5d73c3072594d769fda35d7c50d2e1474a616556a86abcb36f75052a222d92fc5b75c5012392d16ffba55b7a56d4e7414c676350ae68beb16d770728202f90fe5977c7032190d36df9a7597854d6e5434e656152ac66b0bf637909262e219ef05779c90d2f9cf12243c9da151f496ffa46f0dba67e2d09a5f91066b2da62d41188fbd89a9b9",
        "type": "nulldata"
      }
    },
    {
      "value": 499995.9324,
      "n": 1,
      "scriptPubKey": {
        "asm": "1 eec9d2df09fe655d1dc188bbfcd22199ed1083dfdbcf92db52aea81730ad9e08",
        "hex": "5120eec9d2df09fe655d1dc188bbfcd22199ed1083dfdbcf92db52aea81730ad9e08",
        "reqSigs": 1,
        "type": "witness_v1_scripthash",
        "addresses": [
          "3QJmnh"
        ]
      }
    }
  ],
  "blockhash": "15af9b025c636b87e0a10c18a1a8de0e5f3c2069ad563b293161176d75df89a4",
  "confirmations": 1,
  "time": 1764174659,
  "blocktime": 1764174659
}