{
  "hex": "010000000001015e4bf9a6bfe27b49ce380a8c5eb908992a0fa1f436749d406c59b0811054940d0000000000feffffff0200e1f50500000000fdd5046a20b57d877deca998c4b3624dd9b03278c37dfea4f84da1d20da05449796f7988524db00437e1aa46435a466c212a8534edccebfb398eae2daf15e8556da19112ef04352217c18a66637a664c010aa514cdeccbdb19ae8e0d8f35c8754d81b132cf24150277a1ea06031a062c616ac574ad8cabbb79ceee6def55a8152de1d152af4475625781ca26233a260c414ae5548dac8b9b59eece4dcf7588350dc1f1728f645542b7612ac6c3dac6eca1aa05b46d4c6b7bb90e2ead2f9568d5ed2111926f84b5a297410ae6e3fae6cc818a25944d6c4b5b992e0e8d0fb548f5cd0131b24fa49582f7216a86839a86ace1ea45f42d0c2b3bf94e6eed6fd52895ad6151d22fc4f5e2d7014aa6a3baa68cc1ca65d40d2c0b1bd96e4ecd4ff508b58d4171f20fe4d5c237e1aa46435a466c212a8534edccebfb398eae2daf15e8556da19112ef04352217c18a66637a664c010aa514cdeccbdb19ae8e0d8f35c8754d81b132cf24150277a1ea06031a062c616ac574ad8cabbb79ceee6def55a8152de1d152af4475625781ca26233a260c414ae5548dac8b9b59eece4dcf7588350dc1f1728f645542b7612ac6c3dac6eca1aa05b46d4c6b7bb90e2ead2f9568d5ed2111926f84b5a297410ae6e3fae6cc818a25944d6c4b5b992e0e8d0fb548f5cd0131b24fa49582f7216a86839a86ace1ea45f42d0c2b3bf94e6eed6fd52895ad6151d22fc4f5e2d7014aa6a3baa68cc1ca65d40d2c0b1bd96e4ecd4ff508b58d4171f20fe4d5c237e1aa46435a466c212a8534edccebfb398eae2daf15e8556da19112ef04352217c18a66637a664c010aa514cdeccbdb19ae8e0d8f35c8754d81b132cf24150277a1ea06031a062c616ac574ad8cabbb79ceee6def55a8152de1d152af4475625781ca26233a260c414ae5548dac8b9b59eece4dcf7588350dc1f1728f645542b7612ac6c3dac6eca1aa05b46d4c6b7bb90e2ead2f9568d5ed2111926f84b5a297410ae6e3fae6cc818a25944d6c4b5b992e0e8d0fb548f5cd0131b24fa49582f7216a86839a86ace1ea45f42d0c2b3bf94e6eed6fd52895ad6151d22fc4f5e2d7014aa6a3baa68cc1ca65d40d2c0b1bd96e4ecd4ff508b58d4171f20fe4d5c237e1aa46435a466c212a8534edccebfb398eae2daf15e8556da19112ef04352217c18a66637a664c010aa514cdeccbdb19ae8e0d8f35c8754d81b132cf24150277a1ea06031a062c616ac574ad8cabbb79ceee6def55a8152de1d152af4475625781ca26233a260c414ae5548dac8b9b59eece4dcf7588350dc1f1728f645542b7612ac6c3dac6eca1aa05b46d4c6b7bb90e2ead2f9568d5ed2111926f84b5a297410ae6e3fae6cc818a25944d6c4b5b992e0e8d0fb548f5cd0131b24fa49582f7216a86839a86ace1ea45f42d0c2b3bf94e6eed6fd52895ad6151d22fc4f5e2d7014aa6a3baa68cc1ca65d40d2c0b1bd96e4ecd4ff508b58d4171f20fe4d5c237e1aa46435a466c212a8534edccebfb398eae2daf15e8556da19112ef04352217c18a66637a664c010aa514cdeccbdb19ae8e0d8f35c8754d81b132cf24150277a1ea06031a062c616ac574ad8cabbb79ceee6def55a8152de1d152af4475625781ca26233a260c414ae5548dac8b9b59eece4dcf7588350dc1f1728f645542b7612ac6c3dac6eca1aa05b46d4c6b7b5796aebcb6cf22d3ebc1758cad7ef9c6f9f2bc0ceca591fb43c94bd3a5bf20a8a077e402792d000022512052a20a4f364c9690d699f775e4558fbe585b10e9011030c27d6765ca3bf2a94602fd75096eaffbbabbbaea311de1e6cc0081f6dea7994cba1fee73f0117e75c93dfdb5da2484ea0920e595b0f4d072a776fc16c769ac235d58233f126504080e591456a25c52395a475cc8fc1da1c3c58f21c9cc4ca5bd4afd1fccdd6f7ee815cd69cd073ed6157e70bb7e1b221fecf44abefcda2cf3a7382bf36911780b27f98c5d5b91f515e8b0b6aaf14abbaa16e94fb40d7e5d424526036971b1181079a8286e95b101725e2f17fb6ddf7f87d81507bb9fd6618c7bed8d6eb71927f4bb89d803b713c6ee9c91abb8f698a76f73b9d86f147bcc752246b3feaea8a0f1cdcf49897305de97bf91452be883ed8932c070fabb654b4231b6421f0898a17a5da051b2f1ed94a92f0bc95ebb1385039c5f3f4390f7d2af3abde140aebc120367dc02478ed6ecbfe052a457c8873d92dc6d16a708b8e6b2be9c802f035478b2d52950042e0feda64b43851cd679b6ef5fe1d4e702e4e3d2549ee72812bb1cb789960cb42216840bc400dc56262fdebd28586880b8abac6d572c5d392a8eeac41115332e25a984fea5e939d7920b90b3d487fb420b217dc9a0c19dfebd5f39f47aa4e457692f5098a8d7399a36fd78aac2c8abbde2cfa68dd5087280da2a7fb7a24f532012d1c4cfe5b21ef311315c6b1a0eea3597ca2eb58746bc30fdcecee058ce01bf58f7b894197d1cd3295906bc84ec036ebb1c018a6d764802b445ffbeb798389dbc804ac5ad86445a3e179a11551672b2f1af7f2fcf1c4c5dc7fdc38531234336f4c45ea758381977b372a603a7120de0b7ddf038e811fb8753046e993972d39a868d8df25691121a323f746961bf8d0b9fff243bfced97a701cc5ae4407491a462b13f3cabb91f70d4a353360b20796b5a34a85a06ef3570ea91626f636548b0202070439768b9b004596e62a9c39707b6ef6851e3b529308692b716d9f32e5815befd4917dc0fc23d7577df22aa423cb6ee3d40264dcbba8250f4dd29a7c7dbe449e04215c2cdd0c4b35972bf94541b704fc921a9e3a4864662516282df474f7855120849532281874bd8940c126cb8a2ea2a3bdc3bc6f31797b3661a3b0548f677aa3054eced8cfb0d423cf5f4f9f097453668eaf0990caf1aaf1d4fb56fda0396cb158701112a08a1e1eabd6a49403bc4c4873d2e3c27ff0393b49eec01171f043eb5bceae1c1fcc933a030290fd530c15e6d95f8e806496d305b46d336a248a80e957eefa316948f5b4083caf1009b25d1f6054bb5a33e45d0c4a928da5005a7993b29d1714445a1767d8991b55e2b6f0e61b5382f0707448b2d4ecc300c7365b76f3e67eb1e18d60d7fac286d35517109f8539d8a525f3de76ea72c94ecd027bc0b43d322c3ddcc55ce73df11e48054fb827bd18efb0d2cb8c28ad4aa0dfba7d2b7572a7f052a2ecda179ca67bf5adfd0a848c82f891f5e76eb2584531b6919545e54b8f6a6211f85fb4c2ceb90c9ba3d17160474952404eea395a067c73b951f919d743d1643839c162d9008d83359084191dd90ad0b46edcda0393526eb23d9186f13f89ef58e82c68d10c0d747ba7cadac25aafd61c34f74d734ab55072df824b5f4bb6df8cb5f3327568f31fcbffedaa786e62ef59b783cc1ae4b2ab0813762eaa8439c3a4846ef4ae2f844a4c25a0b2e8f24c512b3f908de8dc19eb885ddd22d49ecba3517a172a3aab1a9726e01303680d711ebacd86152bd0d275afcede63397be7938c469059a862bd806c0080b259e5294a05317534505a1edde682d0329bf64c96203a9c11155cd2e3f9f841da6b6ae6c038257796c6f48fd264c5994d6464ea2e527516be98936c1e306db3ea05bfeb912307213f1e86861e2d1d6d4aa298c2c1f37352c5f01131765018f056d13b35326af0851ac593bce53015b0ad22b709ea7efc39691f5c173158092ddf98237cba57b90c500e5bc7d9a6abb91bd5ec4f67107b57b7675b2f9122c5eeebdef9e889e64f9d7dbe07285d03f2358740e972b950a7caa234c1fcd2d3e93e35529556d2127517e145dbf33c3ab1ee30c84eab1705ec7a1721531191361c90293c7845ae63d0f55fe79acfb0b779881eabc5877d3e5a6e465ac9c7fd983b8ee2b315de4fdff7c31e51f52b75c9241c154d05eb4a6292c44d5f56f357d04212e171d1405901ead6fbc93e22baa0a3945134c19356a36fb2dc35be4d9f07b92f6c1adccdfd24c6e25fc8fa32100d3e5166dd21f264e8a1b9c848b1f337ac4915b487a5bd718a61aea3db0b631dca03c76d58572f68b15efad803a520aaa58eec754bd3b4f9503372383fac81efdc5cdac26bc4fa52d734fbf763e68abb8d8ccfd63b79ada8cc1cf55bac30521e5b5b6f548f05408e7b5feb1822e128634653e5828f28e5eeae6c0bad21811d849a40a434a57c01716da8d62a238f9be8b4aae7a83612f8800fde796b6a6315c743c046ea6b6b6d6784ce24a8676be9a9acc0373a8ac867b8570881ac207423d5042f31f9458886526539b9371da2c84b797e41839477eefc68e8cd7c991aee3de5aab9200f62add04cfa56d6128990c0b55c53b62ed5e1541dcfec9c71dc68bbaff8f8322bfd0ee928e8cdf7da2b48862ff38cc5b0eb1c2bb4cb2929fdc06e5f91bf6c99bd108076875b3720bc0bf1ed80896c3eb66380649cee7f49de15b31fd16b6efb7900da9c0aab5b46d8740dab25dda686bb4bc6c05973fca8f675499724d457fef68512bfc526d1615517bdb34da2632b7e90ac33bb0a83f1c9f352aff5253d4d54715ad98529b0ae6e4b15ded1ced165242177256ca8720e5641369e245a867ebef72b9347f35a1dae836205fe4628046728cadb1c78eb924ef02c8b1fe9f6fc49c35abc37e6d02a226972dbe4b3028d538ab55f7d5af8839c68408237e4f06528cf35b2c310c8acaf925814a494b6117930362219e9131b1f9de3ffbd7fde49fa2b5234d1eadf7491ca6ab556992b958fa84f3cb1e167bab976fc6c53a5554f5eacf82472b831afa2103aeb751b5dbbeea216056683f6d193bfd1c319d47c748a519ed1f2ba53583101218cbcf45c4980cd5d14e08c31a3683e6ec76cec233f584f2f8d65dfee4e0c4595a92a2b873c8ac370e22e3fc80f8e4c19864ecae6f01cda446977582bc163d1c0c425d5b38ddf7445390c083138ffb8cd27ac9f2d108d269a464d701e05fa67612b6616fe0d733471a847e5d4c9c29c49d2ab10e63baaeedc6ddaa2af26b448df81d34f9d340ab9e2ec3b7e4f7e3b5a87c3d9f224319eeed10ca57224da249f8fe4a84ddcbe1035710c1dc86a15ee0cd55779613365560647e8183a3acb0b8dcee0c188c919395a0afcbd0dbdde4eeeff4fe10323d4e4f517e85869195a0afb4dcf0f9fb041520264f575871a6abacb8c9d5f0f4fa00000000000000000000000000000e1f314201fd21050024392febd276b5248b7554f98eee48e8f03b14ebbb35bbdf200e4e69d13c0c1ad7f653b03fcc192679940f0216eee81cb0d196c28313fd88ccb0d51d980810d4c1ae25f1cf5dd34ab60dcb9c01f078481d311fad66117c095d63e2a8d84e34a21539a7544859e823a1010109341726dc7362add4ca9a300d2ef1668864013b1e00871264ce2379bcea7172257c5703f9eec2549674f706bac6fbcd84dfe92e157f0aaf2a98944162d7491bc80756aa886a5b6db4b674049e921ca9f4d2afac9fd747f001a8ccd06c9fa251498fdd395ffdf63b5e15ea6a4ceb2f16b2005cece7bc79961fa2283a966a1a73acd4d22772309fbcd44b9cb5f937bdc01ffb73d4fbc8184bc613bd4af7e6c20c6c17785cbc4d4b99b7f811ca575204bd383b4c1111b35d7334070b4eb9b9872775c78e3a15b0a778372f0ee211df8f91cf7d770925f28121cd5a407fb82f379200661286300b57cd763d5d0bb189b807d8b52fb496f87aa11e2d77299df44d28fe1af61d913c262b1a307c5bb895d1cf0f9e3c4dffb0941e5eb8b480cbc2d014f041e1b2e0ac96ac93388f50ab164fbad6651df4698e7ad00d2963983f5ae419894dc9e83c35ea782d7456cc4f8a02d6b75656c33052070358c07e1ce840c771c95cf51c584f02f285b194d19c6d095b1aff85538f8b5c287b088daf634ad23910ce42e169b33f016951e9e4bdcc78b525604622d606842e7b8968e9728ba46776bbf5226b0fb22c232e5f4fad02711889c904e375c9af22cb9cb665771f879582b86b71efb0c0fa7e2a62c79ed12d77c531269122b76424b74c82f09f114264c1475c67dde85214900b0dd2932e58c9c95b5dd9a11c07a1cb29bc5ed22d71ce709d1934323685da35e01b8767d6856328359add4cfdc10b6d0d29f3258fe9adfb0a49bbe3288a8ff3ecf47aa313694409215699e4a9fa7ab44402b340733df0d2f3885f6e041608c0f87b7c8dc7e2d493ecbfe8126a1044c790c6f60b92eaa1a680c19150875372536b0f1b2c49db630a8d5dfdd3d523bda7cf574dd760e84f2209ed8584952e1fc988b8102a62adaa2b591be4de36887227b11247d3778a88daa2451ba7b25aea6b7ac104d288261bca92cbfd7a1644e1b47ac02f71c01b4dcf6520e3c345a7ed83faec72f2dab4656896ba9f02b8544e9fcb177fa8b47c5daf2d6fe6d57d3bcc4f7970881a669be25e7e625c6b2d166da834f2a9db3f9a03bf967b5076b10f6148767196d775b87f36b49a508f7ea22a9c951b7a22ddb7f318330a7135e02553af0d5f3336096a582a8fa7b9099e27acf4d9e5dd6e658fa3a0a50c372ceaa841de84e293060e63b4b993ef8b112bb8054696c41bc463c0431ec9410c59381bd04c4f5b0ab07a1c74e995541448c9351991c91206e8622387951f7afc322526966a0f6b9791afa2b4d0b9525655f56c194c6c6ef33c58f355ae5c1839f71758eda646b3e517d301f4d6084611ade4306e88507f851ca419043197b31333f7ae04c7aba215d1847d2eb4ba6832073f775c4568f42b7c0958cc26a38dcdd296ec3d80b099cb184a594abcf88d9eb324d95552b15777a610460bc2b799d6d5b0412dcaa643f91d53b4819bd7ad5a861f29c8b4ba369585b18250f989bf7ce2606b521359830d9c2ce7630d5a942b386faca1e496044d1d58b4be2a6fe2ca769192d17cabbb7aa43589268f97bd0b97c57bdcb6927a0c0c336c6f91c43a39a4a128294c74fcb3447a7afb1e33606948ecbfc824cf533423aa8990478aedd715f4627d97f34ef2a22579f9239e2d4338f25adab0c927bcdcd6a1647badd2fedfe2e1e6f7a68dace21b52b706edafb8697a000000",
  "txid": "93b3cd1a8117994bb6b5bdabc714dd57b8740727c72396115fd1516ff0fa5b95",
  "hash": "108486158c0c80200891663d36c9dc5f34cb9f7dada0164dab7cd51fe0703546",
  "size": 5085,
  "vsize": 2278,
  "version": 1,
  "locktime": 122,
  "vin": [
    {
      "txid": "0d94541081b0596c409d7436f4a10f2a9908b95e8c0a38ce497be2bfa6f94b5e",
      "vout": 0,
      "scriptSig": {
        "asm": "",
        "hex": ""
      },
      "txinwitness": [
        "6eaffbbabbbaea311de1e6cc0081f6dea7994cba1fee73f0117e75c93dfdb5da2484ea0920e595b0f4d072a776fc16c769ac235d58233f126504080e591456a25c52395a475cc8fc1da1c3c58f21c9cc4ca5bd4afd1fccdd6f7ee815cd69cd073ed6157e70bb7e1b221fecf44abefcda2cf3a7382bf36911780b27f98c5d5b91f515e8b0b6aaf14abbaa16e94fb40d7e5d424526036971b1181079a8286e95b101725e2f17fb6ddf7f87d81507bb9fd6618c7bed8d6eb71927f4bb89d803b713c6ee9c91abb8f698a76f73b9d86f147bcc752246b3feaea8a0f1cdcf49897305de97bf91452be883ed8932c070fabb654b4231b6421f0898a17a5da051b2f1ed94a92f0bc95ebb1385039c5f3f4390f7d2af3abde140aebc120367dc02478ed6ecbfe052a457c8873d92dc6d16a708b8e6b2be9c802f035478b2d52950042e0feda64b43851cd679b6ef5fe1d4e702e4e3d2549ee72812bb1cb789960cb42216840bc400dc56262fdebd28586880b8abac6d572c5d392a8eeac41115332e25a984fea5e939d7920b90b3d487fb420b217dc9a0c19dfebd5f39f47aa4e457692f5098a8d7399a36fd78aac2c8abbde2cfa68dd5087280da2a7fb7a24f532012d1c4cfe5b21ef311315c6b1a0eea3597ca2eb58746bc30fdcecee058ce01bf58f7b894197d1cd3295906bc84ec036ebb1c018a6d764802b445ffbeb798389dbc804ac5ad86445a3e179a11551672b2f1af7f2fcf1c4c5dc7fdc38531234336f4c45ea758381977b372a603a7120de0b7ddf038e811fb8753046e993972d39a868d8df25691121a323f746961bf8d0b9fff243bfced97a701cc5ae4407491a462b13f3cabb91f70d4a353360b20796b5a34a85a06ef3570ea91626f636548b0202070439768b9b004596e62a9c39707b6ef6851e3b529308692b716d9f32e5815befd4917dc0fc23d7577df22aa423cb6ee3d40264dcbba8250f4dd29a7c7dbe449e04215c2cdd0c4b35972bf94541b704fc921a9e3a4864662516282df474f7855120849532281874bd8940c126cb8a2ea2a3bdc3bc6f31797b3661a3b0548f677aa3054eced8cfb0d423cf5f4f9f097453668eaf0990caf1aaf1d4fb56fda0396cb158701112a08a1e1eabd6a49403bc4c4873d2e3c27ff0393b49eec01171f043eb5bceae1c1fcc933a030290fd530c15e6d95f8e806496d305b46d336a248a80e957eefa316948f5b4083caf1009b25d1f6054bb5a33e45d0c4a928da5005a7993b29d1714445a1767d8991b55e2b6f0e61b5382f0707448b2d4ecc300c7365b76f3e67eb1e18d60d7fac286d35517109f8539d8a525f3de76ea72c94ecd027bc0b43d322c3ddcc55ce73df11e48054fb827bd18efb0d2cb8c28ad4aa0dfba7d2b7572a7f052a2ecda179ca67bf5adfd0a848c82f891f5e76eb2584531b6919545e54b8f6a6211f85fb4c2ceb90c9ba3d17160474952404eea395a067c73b951f919d743d1643839c162d9008d83359084191dd90ad0b46edcda0393526eb23d9186f13f89ef58e82c68d10c0d747ba7cadac25aafd61c34f74d734ab55072df824b5f4bb6df8cb5f3327568f31fcbffedaa786e62ef59b783cc1ae4b2ab0813762eaa8439c3a4846ef4ae2f844a4c25a0b2e8f24c512b3f908de8dc19eb885ddd22d49ecba3517a172a3aab1a9726e01303680d711ebacd86152bd0d275afcede63397be7938c469059a862bd806c0080b259e5294a05317534505a1edde682d0329bf64c96203a9c11155cd2e3f9f841da6b6ae6c038257796c6f48fd264c5994d6464ea2e527516be98936c1e306db3ea05bfeb912307213f1e86861e2d1d6d4aa298c2c1f37352c5f01131765018f056d13b35326af0851ac593bce53015b0ad22b709ea7efc39691f5c173158092ddf98237cba57b90c500e5bc7d9a6abb91bd5ec4f67107b57b7675b2f9122c5eeebdef9e889e64f9d7dbe07285d03f2358740e972b950a7caa234c1fcd2d3e93e35529556d2127517e145dbf33c3ab1ee30c84eab1705ec7a1721531191361c90293c7845ae63d0f55fe79acfb0b779881eabc5877d3e5a6e465ac9c7fd983b8ee2b315de4fdff7c31e51f52b75c9241c154d05eb4a6292c44d5f56f357d04212e171d1405901ead6fbc93e22baa0a3945134c19356a36fb2dc35be4d9f07b92f6c1adccdfd24c6e25fc8fa32100d3e5166dd21f264e8a1b9c848b1f337ac4915b487a5bd718a61aea3db0b631dca03c76d58572f68b15efad803a520aaa58eec754bd3b4f9503372383fac81efdc5cdac26bc4fa52d734fbf763e68abb8d8ccfd63b79ada8cc1cf55bac30521e5b5b6f548f05408e7b5feb1822e128634653e5828f28e5eeae6c0bad21811d849a40a434a57c01716da8d62a238f9be8b4aae7a83612f8800fde796b6a6315c743c046ea6b6b6d6784ce24a8676be9a9acc0373a8ac867b8570881ac207423d5042f31f9458886526539b9371da2c84b797e41839477eefc68e8cd7c991aee3de5aab9200f62add04cfa56d6128990c0b55c53b62ed5e1541dcfec9c71dc68bbaff8f8322bfd0ee928e8cdf7da2b48862ff38cc5b0eb1c2bb4cb2929fdc06e5f91bf6c99bd108076875b3720bc0bf1ed80896c3eb66380649cee7f49de15b31fd16b6efb7900da9c0aab5b46d8740dab25dda686bb4bc6c05973fca8f675499724d457fef68512bfc526d1615517bdb34da2632b7e90ac33bb0a83f1c9f352aff5253d4d54715ad98529b0ae6e4b15ded1ced165242177256ca8720e5641369e245a867ebef72b9347f35a1dae836205fe4628046728cadb1c78eb924ef02c8b1fe9f6fc49c35abc37e6d02a226972dbe4b3028d538ab55f7d5af8839c68408237e4f06528cf35b2c310c8acaf925814a494b6117930362219e9131b1f9de3ffbd7fde49fa2b5234d1eadf7491ca6ab556992b958fa84f3cb1e167bab976fc6c53a5554f5eacf82472b831afa2103aeb751b5dbbeea216056683f6d193bfd1c319d47c748a519ed1f2ba53583101218cbcf45c4980cd5d14e08c31a3683e6ec76cec233f584f2f8d65dfee4e0c4595a92a2b873c8ac370e22e3fc80f8e4c19864ecae6f01cda446977582bc163d1c0c425d5b38ddf7445390c083138ffb8cd27ac9f2d108d269a464d701e05fa67612b6616fe0d733471a847e5d4c9c29c49d2ab10e63baaeedc6ddaa2af26b448df81d34f9d340ab9e2ec3b7e4f7e3b5a87c3d9f224319eeed10ca57224da249f8fe4a84ddcbe1035710c1dc86a15ee0cd55779613365560647e8183a3acb0b8dcee0c188c919395a0afcbd0dbdde4eeeff4fe10323d4e4f517e85869195a0afb4dcf0f9fb041520264f575871a6abacb8c9d5f0f4fa00000000000000000000000000000e1f314201",
        "0024392febd276b5248b7554f98eee48e8f03b14ebbb35bbdf200e4e69d13c0c1ad7f653b03fcc192679940f0216eee81cb0d196c28313fd88ccb0d51d980810d4c1ae25f1cf5dd34ab60dcb9c01f078481d311fad66117c095d63e2a8d84e34a21539a7544859e823a1010109341726dc7362add4ca9a300d2ef1668864013b1e00871264ce2379bcea7172257c5703f9eec2549674f706bac6fbcd84dfe92e157f0aaf2a98944162d7491bc80756aa886a5b6db4b674049e921ca9f4d2afac9fd747f001a8ccd06c9fa251498fdd395ffdf63b5e15ea6a4ceb2f16b2005cece7bc79961fa2283a966a1a73acd4d22772309fbcd44b9cb5f937bdc01ffb73d4fbc8184bc613bd4af7e6c20c6c17785cbc4d4b99b7f811ca575204bd383b4c1111b35d7334070b4eb9b9872775c78e3a15b0a778372f0ee211df8f91cf7d770925f28121cd5a407fb82f379200661286300b57cd763d5d0bb189b807d8b52fb496f87aa11e2d77299df44d28fe1af61d913c262b1a307c5bb895d1cf0f9e3c4dffb0941e5eb8b480cbc2d014f041e1b2e0ac96ac93388f50ab164fbad6651df4698e7ad00d2963983f5ae419894dc9e83c35ea782d7456cc4f8a02d6b75656c33052070358c07e1ce840c771c95cf51c584f02f285b194d19c6d095b1aff85538f8b5c287b088daf634ad23910ce42e169b33f016951e9e4bdcc78b525604622d606842e7b8968e9728ba46776bbf5226b0fb22c232e5f4fad02711889c904e375c9af22cb9cb665771f879582b86b71efb0c0fa7e2a62c79ed12d77c531269122b76424b74c82f09f114264c1475c67dde85214900b0dd2932e58c9c95b5dd9a11c07a1cb29bc5ed22d71ce709d1934323685da35e01b8767d6856328359add4cfdc10b6d0d29f3258fe9adfb0a49bbe3288a8ff3ecf47aa313694409215699e4a9fa7ab44402b340733df0d2f3885f6e041608c0f87b7c8dc7e2d493ecbfe8126a1044c790c6f60b92eaa1a680c19150875372536b0f1b2c49db630a8d5dfdd3d523bda7cf574dd760e84f2209ed8584952e1fc988b8102a62adaa2b591be4de36887227b11247d3778a88daa2451ba7b25aea6b7ac104d288261bca92cbfd7a1644e1b47ac02f71c01b4dcf6520e3c345a7ed83faec72f2dab4656896ba9f02b8544e9fcb177fa8b47c5daf2d6fe6d57d3bcc4f7970881a669be25e7e625c6b2d166da834f2a9db3f9a03bf967b5076b10f6148767196d775b87f36b49a508f7ea22a9c951b7a22ddb7f318330a7135e02553af0d5f3336096a582a8fa7b9099e27acf4d9e5dd6e658fa3a0a50c372ceaa841de84e293060e63b4b993ef8b112bb8054696c41bc463c0431ec9410c59381bd04c4f5b0ab07a1c74e995541448c9351991c91206e8622387951f7afc322526966a0f6b9791afa2b4d0b9525655f56c194c6c6ef33c58f355ae5c1839f71758eda646b3e517d301f4d6084611ade4306e88507f851ca419043197b31333f7ae04c7aba215d1847d2eb4ba6832073f775c4568f42b7c0958cc26a38dcdd296ec3d80b099cb184a594abcf88d9eb324d95552b15777a610460bc2b799d6d5b0412dcaa643f91d53b4819bd7ad5a861f29c8b4ba369585b18250f989bf7ce2606b521359830d9c2ce7630d5a942b386faca1e496044d1d58b4be2a6fe2ca769192d17cabbb7aa43589268f97bd0b97c57bdcb6927a0c0c336c6f91c43a39a4a128294c74fcb3447a7afb1e33606948ecbfc824cf533423aa8990478aedd715f4627d97f34ef2a22579f9239e2d4338f25adab0c927bcdcd6a1647badd2fedfe2e1e6f7a68dace21b52b706edafb869"
      ],
      "sequence": 4294967294
    }
  ],
  "vout": [
    {
      "value": 1.0,
      "n": 0,
      "scriptPubKey": {
        "asm": "OP_RETURN b57d877deca998c4b3624dd9b03278c37dfea4f84da1d20da05449796f798852 37e1aa46435a466c212a8534edccebfb398eae2daf15e8556da19112ef04352217c18a66637a664c010aa514cdeccbdb19ae8e0d8f35c8754d81b132cf24150277a1ea06031a062c616ac574ad8cabbb79ceee6def55a8152de1d152af4475625781ca26233a260c414ae5548dac8b9b59eece4dcf7588350dc1f1728f645542b7612ac6c3dac6eca1aa05b46d4c6b7bb90e2ead2f9568d5ed2111926f84b5a297410ae6e3fae6cc818a25944d6c4b5b992e0e8d0fb548f5cd0131b24fa49582f7216a86839a86ace1ea45f42d0c2b3bf94e6eed6fd52895ad6151d22fc4f5e2d7014aa6a3baa68cc1ca65d40d2c0b1bd96e4ecd4ff508b58d4171f20fe4d5c237e1aa46435a466c212a8534edccebfb398eae2daf15e8556da19112ef04352217c18a66637a664c010aa514cdeccbdb19ae8e0d8f35c8754d81b132cf24150277a1ea06031a062c616ac574ad8cabbb79ceee6def55a8152de1d152af4475625781ca26233a260c414ae5548dac8b9b59eece4dcf7588350dc1f1728f645542b7612ac6c3dac6eca1aa05b46d4c6b7bb90e2ead2f9568d5ed2111926f84b5a297410ae6e3fae6cc818a25944d6c4b5b992e0e8d0fb548f5cd0131b24fa49582f7216a86839a86ace1ea45f42d0c2b3bf94e6eed6fd52895ad6151d22fc4f5e2d7014aa6a3baa68cc1ca65d40d2c0b1bd96e4ecd4ff508b58d4171f20fe4d5c237e1aa46435a466c212a8534edccebfb398eae2daf15e8556da19112ef04352217c18a66637a664c010aa514cdeccbdb19ae8e0d8f35c8754d81b132cf24150277a1ea06031a062c616ac574ad8cabbb79ceee6def55a8152de1d152af4475625781ca26233a260c414ae5548dac8b9b59eece4dcf7588350dc1f1728f645542b7612ac6c3dac6eca1aa05b46d4c6b7bb90e2ead2f9568d5ed2111926f84b5a297410ae6e3fae6cc818a25944d6c4b5b992e0e8d0fb548f5cd0131b24fa49582f7216a86839a86ace1ea45f42d0c2b3bf94e6eed6fd52895ad6151d22fc4f5e2d7014aa6a3baa68cc1ca65d40d2c0b1bd96e4ecd4ff508b58d4171f20fe4d5c237e1aa46435a466c212a8534edccebfb398eae2daf15e8556da19112ef04352217c18a66637a664c010aa514cdeccbdb19ae8e0d8f35c8754d81b132cf24150277a1ea06031a062c616ac574ad8cabbb79ceee6def55a8152de1d152af4475625781ca26233a260c414ae5548dac8b9b59eece4dcf7588350dc1f1728f645542b7612ac6c3dac6eca1aa05b46d4c6b7bb90e2ead2f9568d5ed2111926f84b5a297410ae6e3fae6cc818a25944d6c4b5b992e0e8d0fb548f5cd0131b24fa49582f7216a86839a86ace1ea45f42d0c2b3bf94e6eed6fd52895ad6151d22fc4f5e2d7014aa6a3baa68cc1ca65d40d2c0b1bd96e4ecd4ff508b58d4171f20fe4d5c237e1aa46435a466c212a8534edccebfb398eae2daf15e8556da19112ef04352217c18a66637a664c010aa514cdeccbdb19ae8e0d8f35c8754d81b132cf24150277a1ea06031a062c616ac574ad8cabbb79ceee6def55a8152de1d152af4475625781ca26233a260c414ae5548dac8b9b59eece4dcf7588350dc1f1728f645542b7612ac6c3dac6eca1aa05b46d4c6b7b5796aebcb6cf22d3ebc1758cad7ef9c6f9f2bc0ceca591fb43c94bd3a5bf20a8",
        "hex": "6a20b57d877deca998c4b3624dd9b03278c37dfea4f84da1d20da05449796f7988524db00437e1aa46435a466c212a8534edccebfb398eae2daf15e8556da19112ef04352217c18a66637a664c010aa514cdeccbdb19ae8e0d8f35c8754d81b132cf24150277a1ea06031a062c616ac574ad8cabbb79ceee6def55a8152de1d152af4475625781ca26233a260c414ae5548dac8b9b59eece4dcf7588350dc1f1728f645542b7612ac6c3dac6eca1aa05b46d4c6b7bb90e2ead2f9568d5ed2111926f84b5a297410ae6e3fae6cc818a25944d6c4b5b992e0e8d0fb548f5cd0131b24fa49582f7216a86839a86ace1ea45f42d0c2b3bf94e6eed6fd52895ad6151d22fc4f5e2d7014aa6a3baa68cc1ca65d40d2c0b1bd96e4ecd4ff508b58d4171f20fe4d5c237e1aa46435a466c212a8534edccebfb398eae2daf15e8556da19112ef04352217c18a66637a664c010aa514cdeccbdb19ae8e0d8f35c8754d81b132cf24150277a1ea06031a062c616ac574ad8cabbb79ceee6def55a8152de1d152af4475625781ca26233a260c414ae5548dac8b9b59eece4dcf7588350dc1f1728f645542b7612ac6c3dac6eca1aa05b46d4c6b7bb90e2ead2f9568d5ed2111926f84b5a297410ae6e3fae6cc818a25944d6c4b5b992e0e8d0fb548f5cd0131b24fa49582f7216a86839a86ace1ea45f42d0c2b3bf94e6eed6fd52895ad6151d22fc4f5e2d7014aa6a3baa68cc1ca65d40d2c0b1bd96e4ecd4ff508b58d4171f20fe4d5c237e1aa46435a466c212a8534edccebfb398eae2daf15e8556da19112ef04352217c18a66637a664c010aa514cdeccbdb19ae8e0d8f35c8754d81b132cf24150277a1ea06031a062c616ac574ad8cabbb79ceee6def55a8152de1d152af4475625781ca26233a260c414ae5548dac8b9b59eece4dcf7588350dc1f1728f645542b7612ac6c3dac6eca1aa05b46d4c6b7bb90e2ead2f9568d5ed2111926f84b5a297410ae6e3fae6cc818a25944d6c4b5b992e0e8d0fb548f5cd0131b24fa49582f7216a86839a86ace1ea45f42d0c2b3bf94e6eed6fd52895ad6151d22fc4f5e2d7014aa6a3baa68cc1ca65d40d2c0b1bd96e4ecd4ff508b58d4171f20fe4d5c237e1aa46435a466c212a8534edccebfb398eae2daf15e8556da19112ef04352217c18a66637a664c010aa514cdeccbdb19ae8e0d8f35c8754d81b132cf24150277a1ea06031a062c616ac574ad8cabbb79ceee6def55a8152de1d152af4475625781ca26233a260c414ae5548dac8b9b59eece4dcf7588350dc1f1728f645542b7612ac6c3dac6eca1aa05b46d4c6b7bb90e2ead2f9568d5ed2111926f84b5a297410ae6e3fae6cc818a25944d6c4b5b992e0e8d0fb548f5cd0131b24fa49582f7216a86839a86ace1ea45f42d0c2b3bf94e6eed6fd52895ad6151d22fc4f5e2d7014aa6a3baa68cc1ca65d40d2c0b1bd96e4ecd4ff508b58d4171f20fe4d5c237e1aa46435a466c212a8534edccebfb398eae2daf15e8556da19112ef04352217c18a66637a664c010aa514cdeccbdb19ae8e0d8f35c8754d81b132cf24150277a1ea06031a062c616ac574ad8cabbb79ceee6def55a8152de1d152af4475625781ca26233a260c414ae5548dac8b9b59eece4dcf7588350dc1f1728f645542b7612ac6c3dac6eca1aa05b46d4c6b7b5796aebcb6cf22d3ebc1758cad7ef9c6f9f2bc0ceca591fb43c94bd3a5bf20a8",
        "type": "nulldata"
      }
    },
    {
      "value": 499977.6282,
      "n": 1,
      "scriptPubKey": {
        "asm": "1 52a20a4f364c9690d699f775e4558fbe585b10e9011030c27d6765ca3bf2a946",
        "hex": "512052a20a4f364c9690d699f775e4558fbe585b10e9011030c27d6765ca3bf2a946",
        "reqSigs": 1,
        "type": "witness_v1_scripthash",
        "addresses": [
          "3QJmnh"
        ]
      }
    }
  ],
  "blockhash": "ccdcfedcff6ade259e7f17160cbcd6ff75249aea4f0a85a59e1a4fb3f710df5f",
  "confirmations": 1,
  "time": 1764180435,
  "blocktime": 1764180435
}