{
  "hex": "01000000000101d09c5c7749b0389c99a9c86292b47114bfa78c25256a4d42cbd1724afe23d4360100000000feffffff0200e1f50500000000fdd5046a20ac55699297d5b9c571d5fcc9c9472024209a179c92385b7f96d6e30286f8d3114db004d60ea235accb13e5692e4469b8880c84961f4f8a0a191eadc98f080c411fc1caf62e82158ceb33c5490e644998a82ca4b63f6faa2a393e8de9af282c613fe1ea964ee275ec8b53a5296e0429f8c84cc4d65f0fca4a595eed89cf484c015f818ab66ec255ccab7385094e2409d8e86ce4f67f2fea6a797ecda9ef686c217fa1aa568e22b52c4b9365e9aec4e938088c04169fcf0a8a999e2d490f888cc19f414a76ae02950c6bb345c98ee4c91828ac2436bfef2aaab9be0d692fa8ace1bf616a16ce62f56c0bd325a9ee84a97848cc4456df8f4acad9de6d094fc8cc81df010a36ee42d54c2bf30589cea4895868ec6476ffaf6aeaf9fe4d296fe8eca1ff212ad60ea235accb13e5692e4469b8880c84961f4f8a0a191eadc98f080c411fc1caf62e82158ceb33c5490e644998a82ca4b63f6faa2a393e8de9af282c613fe1ea964ee275ec8b53a5296e0429f8c84cc4d65f0fca4a595eed89cf484c015f818ab66ec255ccab7385094e2409d8e86ce4f67f2fea6a797ecda9ef686c217fa1aa568e22b52c4b9365e9aec4e938088c04169fcf0a8a999e2d490f888cc19f414a76ae02950c6bb345c98ee4c91828ac2436bfef2aaab9be0d692fa8ace1bf616a16ce62f56c0bd325a9ee84a97848cc4456df8f4acad9de6d094fc8cc81df010a36ee42d54c2bf30589cea4895868ec6476ffaf6aeaf9fe4d296fe8eca1ff212ad60ea235accb13e5692e4469b8880c84961f4f8a0a191eadc98f080c411fc1caf62e82158ceb33c5490e644998a82ca4b63f6faa2a393e8de9af282c613fe1ea964ee275ec8b53a5296e0429f8c84cc4d65f0fca4a595eed89cf484c015f818ab66ec255ccab7385094e2409d8e86ce4f67f2fea6a797ecda9ef686c217fa1aa568e22b52c4b9365e9aec4e938088c04169fcf0a8a999e2d490f888cc19f414a76ae02950c6bb345c98ee4c91828ac2436bfef2aaab9be0d692fa8ace1bf616a16ce62f56c0bd325a9ee84a97848cc4456df8f4acad9de6d094fc8cc81df010a36ee42d54c2bf30589cea4895868ec6476ffaf6aeaf9fe4d296fe8eca1ff212ad60ea235accb13e5692e4469b8880c84961f4f8a0a191eadc98f080c411fc1caf62e82158ceb33c5490e644998a82ca4b63f6faa2a393e8de9af282c613fe1ea964ee275ec8b53a5296e0429f8c84cc4d65f0fca4a595eed89cf484c015f818ab66ec255ccab7385094e2409d8e86ce4f67f2fea6a797ecda9ef686c217fa1aa568e22b52c4b9365e9aec4e938088c04169fcf0a8a999e2d490f888cc19f414a76ae02950c6bb345c98ee4c91828ac2436bfef2aaab9be0d692fa8ace1bf616a16ce62f56c0bd325a9ee84a97848cc4456df8f4acad9de6d094fc8cc81df010a36ee42d54c2bf30589cea4895868ec6476ffaf6aeaf9fe4d296fe8eca1ff212ad60ea235accb13e5692e4469b8880c84961f4f8a0a191eadc98f080c411fc1caf62e82158ceb33c5490e644998a82ca4b63f6faa2a393e8de9af282c613fe1ea964ee275ec8b53a5296e0429f8c84cc4d65f0fca4a595eed89cf484c015f818ab66ec255ccab7385094e2409d8e86ce4f67f2fea6a797ecda9ef686c217fa1aa568e22b52c4b9365e9aec4e938088c045afb0ae3dc6ff1969ecd87545435e0879938f9c7d8050857e615ceb55fe5b37f80cbbf57792d000022512039c38b4e74c571d98ee18f6e32aee1063758a3a9d9e236287726aece49a4726f02fd7509bcdb7ee0e9ff1150825fa9110e615d1a808104c2aeb27fbc820347954ff108c50c1692804cdf20b6ccbb1aa952c511733cb7997524f1f1c3659debcfa0633d74f81a755e877be30b37a918fe3d56044757b9772a50b6ab102002ffd052094f4cd627df297f4caeac5c2b204e68439034e6c9943a560c60d6f2c6f7250adf9a7f44dbf1584184ebed64cf56fc59861990ed9c8d1ebe67c35eb878620a88b8e63078dfe7d2ed2c216ce39c17d60289696c29fd889bb555735c70b647a0e45e9ad7899f6cd3a238b63e408e1f484d1b56d6b7a6b02691023ac012555701e71ada1d3415f2b6f6286d5f7699e47aba3016f2cc589c5e2f6b63bb462cfb11e613f88a918bb5b245f8ff177ae168062ccf1fe9b11eced27b72e1506d06ea383e356d0f6811afb33102772bee7667c5c2433ad5b1b77f51fa1c41e997f368429d27caaced8dd8c86fdfeef972dd9e55b20c20d4d7bb98fef108bfb310264dbf06b8dc8535a832fb6ce9a942c5bd26a0025c1cfa88611a3243e748644248afd0100a8201892ca2353bddf60bb98beae66929ee7e556ba8e8864adfce0ee247c1fb3d251e763099e9fb90c16d17bad0be2f34b418d97366045fdbf119d57c7bbd0ecbfb2a2e2270264adeb23b0358eb790e7799178f4f251648ac921170513ab21d81aaa9ab8e67392c83512cea0bcd0895857ae3a09c53255c992ce978cd27c45b41c7ca6359fb343377f51801b206b6cb266e28bb34910b96a5456077d05f2e3b6818b7e99fcb0454dfc7393e2e210612f20df4212084c69d71ff94cbb4cc96482db3994cca04fc6afa5c05a649472f8be5df599c32105273a532c102a4c0b79cc6ab654ff2f9499a3b8452b63434908f7e07cc7b9eae0ea95094a45468ec682254cad5ed1a3462438a878b32c7569c9477d53c5d47dd090001b97b0a4b3e80988ba0dc51a79000ebe8e0474ff91a30cc6f6920019c5bdcb92abfd7d1c6cf58f190c7619a3ef43ec55e1de3660479747f9d1101d83633b6aa6a865a29f190ae4d02e53e79175ed74a1d5303cc2fa002ead6ed608267676a1cebe49af035367fe4de801a4726d37b911fb20185de4709c016360672b29c09eb8082d6987ff4a15eb5c826657f592423af0b1b3f5d259e1395923480ac7b5e9268b06ebd7ce02328d8284d5d2da5844b9fc30b7213bc8c541b9102c53e4e527024c5ae163ce3ff585f940a9432d70cf6fd9e441a2ecadd0cc6a63e7cb9e651d379d1db6ea8e3c0ebc956316b02af1de7bca803eb25a75a39501a623821a30306dacd6e468d3355c95e37bfae53053c761845549a9a1a16564340bb826f9358e7cf1c8c277f538dec4ad3c642944c146f587a88d4d96a86fd7aef01584de52837bb7ea7e6c65a540aabe3f270379af07d33dddd4eae3c91e8cc1970644e314fb90ff02f144c979f96fa1477b843bb152975eeed974cdcbc6be284e8fab5bef038e91a5f35825cbe09a65df7cd986715b1f3cbdd8f41820fe4f807c7545b4fdf1b10cbc32e4d0c061a665917657069cac374b222ce777172c19672672e8abd4f986ed275b93c41a2048feb449c8d55d89b3d0caffa640b3e9e58466cb13766b0a5857d72cb06963b2204bbf4ce1568f5a81263767b5c5649ae2ad33696b8fc220b147f5aec479434bfcaa63d0a38a1187c3879329c461bc8101691af57ed63689d921955424285513fddd1a32e0c503610b50fa707a673f4c1b9387953159f9ee8fb6c81cdca69e686d40a602a2a524e91809f7280b072f6593035028d849030b6e634de72b6fed73082dff3ca437d84360794b757184ffc53e34374da35e8fd89bcee9fefa07413eda427185932d6c8463008111e1345206bba6c19d79e51506a2e29938f728d27b8adde9e8aff66e984edd828a29e3c55474cc45623d5a88d08b36f5036e73f4bc4e18309d7bbdd5649dab22e807e0792bd2c3f8e97ffe65e8f47cfe21e55257722f2be6df7bb1c88dbfa3dd37dcce2ffba78c3864fc2461be1deed45d60fef4ff25089fa393c4f3d9ac610ae3db8712b0543b419b4db6842be728e7bf25e32f1013a6719cca47d9a8476478c9f28193cce1e80dca08b7a54527268e35e8f7706de132cd238f9d59425ed84969576ef1091c8520bc5da8aef6d17556cb1a3ad1c00c438bfb710615337f155c2529d8559e4a9e4bfc0d6f19211c6a9730fdfc99e439ca824ba1f5b51153e3b66d813ce68887af4c1b3145f73d80b1f080f538b28b394bad2cfb46f5a69f35b1b2a0e4fdcd7546486469fb52e4cef79672d081aa528874a3b527549e6e55b7adc8e946948d0e6306cd9d8170bc2375c639cbae26989343aac83d51675b4ec1354675464f9822db8ad27756aa94bc272e07775293f2c8554cc9e57843c99abab2ea3b7b258c053c75b34ca4d45c8ee279c200739363dad0fae6ef56bcf4c4aed3f9b4b00be6dbec788553fdf8c475973de2e12baa63ee4fc86ea92510bdd8233c62ff10739c449b549c9ddb5620e58f562044cfc898d3599982bbd100155d1b62b1644ae79e896f984349cc6c88c56678b84b3a83681d312fe3a5a4393448ddaad02172fd6613b3ec2f528f8792cfc7a5a399efc88f5e5870c80d6264ab2e40ac43aefe999ecba67556feaf02819fd559a7521537eee09de4421b06d88349da37f4bc5f946285b5046dd58d5a47d39fb0545b94e3a7678150a1abdd7936d9f8245e1564835913343905402e22da3633703eff11828138e4e4c024ae41451965ec685c34c3f82033d67cc9b4a4932b5ed66a9cd6b5179ee6e2f71b700413833f5f142577359aab85b99b90e0c2884a0b8d5393df5ba5861a82311b24fc76e0dedf733c75ff8422b3aa41dd03068aab475733f770d9cae6a76466baaa63648916cde81fc5f3fb7f5cbfa112fb6804e840a9b645416384c867fba217b99828b29bbefdfcff964afe4791ed4e1c9c579dd24118a11c3462c7c050e95664ee8908c46949c4948374aa0a1c6a970daa51c19ba2be510b01631b9bcd0c374bd0ad59a1adbd0e7acb57dfac8293f76173570cad1da73ea8a93bab327a96f77055e27218d7f09ae8631dff6052846885f529f81b4f59ee5627d0be5dd87f75965ebf89665f984b855d1483e4e304693ddfaf8d959346ad019e809ab2e6fc5e5b608f1b29d387db834cf7add77472fba816a2b63cce22cf6587a8cbf9137170a79d108f25c98fa7012d6ee3d5551f1c9348842a581a5e0d83cf452cc2a86584a0c0144086409e5b2a02ddeaa16036f7b13479239f06fa40a1111d47df5a6061214181e223e75818ba1d6d9eaeef902071a212b2e515257606d8e9facaec2d6d9e5e7f0f1373e49595a5f66767d889ba9c3c5cfd0e30f151618252740699ae3f100000000000000000000000000001026374201fd2105008b326f150126e6a6fa6324a5eaf4fc8500d047625d37bdae386a9e5005202bb20de8ab4fbabc55cc78a763141a45befd0f08e6988fe8b3356065f9aeeca9912ea3d4ef45234bd793518e7f89fd0b74fbcaaf8856747586d71c86de748a18e3fd6cc2be6f29ba03c28a79226733562dd30eaf21db675f8810441c97f95b3cc15d27cb147fe050334a918210b7d3e6b7cc3ae37eeb83abda75e6ad5e7e5bba66b5ca08ad598b05cac30d473abf5c293e9720bf754577227d1c398161b0e271f8a026794a71c9eb5c7468a5241cf9ead5573b70b952866e9d84c5ee6257faa05bf72f5944af675fff93da26ea7b99bf8c1bd8741a624a55a9798ac4a06b5409a8142cc72270bea80894d6ef9139546a0f0e3a3c5dc6df21bc4531c93c47aace30a8d2f49f07f528887adacc6190b2877fc44df82050114a95c2763386657b72adbcf5bced9ba897edc65e5e7a79589c341a601274a038bbd122353f56b848a774f9eb47a67c6278bb4f231e01ac122ca5e38a8e136118f7e46cd42c7a204790e111522307909000f8df8e059f4f2150ad70c3e7fdbae0fe8d4d7f157be9bee6ebd19e45abd0f1cebc9aff451198a8fe333dc79f34f5a46d8a8afde576286158279d0161b1b4a08a315364c151aae5f82a34b621399875502d935a1e40f952d02e7dd510f4bfbce343f4597f73b45ade532e58d9cac6152c8d956396fdf521766c9bf36b3371a6b771dc8f7f06295fa3431acb5d358e0d8164e94e58b38a9c0016cde9cc4a3e928d358455160fef6dd3cf5421e5d304d7e3da943b3e7c550eb0870fb7271d53cfd532cf5947e7427c8819b292439f720c7ba477483c191281278b7c6ae0a5b5045b02e7a6a34fdbfced619c0c8e64a065cb52ba21aad68bdc1db13abcffa82f09528a5d2c47f32af978df1868235e809996d5a8c8c726aa50db6892c000fe16df6ad09e88016eab674aa12d8782de6797d95c484d116a05b217b144ea3a54b884e9fc274a3c9559d840504e459b098e7217bd5356736cb75b2becb871f1e11c0ed719db42e091426f0f6e8dd69f29588e70733708f3f8b0d61c5a92bbdb6e0812e89bb1d635a45278d95e0285bc32a64186c99a31c9f728f0484c42c71aa2c74ecf3678b4de3d3549214512d37d6007814732997dcf5258da9a1f9ffb125dfc9defd655139a5d8c13350c14e7d4d33763df0592d47889876efb99126a5c6e6f292127ff379dc3a2b034a37ebc8dd176960d394ab6a84082a073190d93a630aacae2ecd0a24b6a065b5973d587f7888ea9962130efa50e2c47b896b4bb7fe42b372a79905bd8caf781bad9cd00d4be6c5968c62ae05c7f84173a33b64294b3dcb878175dfaf27a1aa5a4c36f24574c92c73cbdc708943bc8b53e1e3d6f34a012fa86ff438ed550ea5f4038af777542f7fa5cb40035eb4f558478cb80257cbdf8b25ec2ab0caa36fd6479a5be3ae7eb6b4a6a0fd35a3a72b8607510b95869d940b2b28620f13744fc4cc516fc475333bbc312c39a59e6bfa039d1aed47b969d95ba809aea9570f8ff399afbb24c9f780943a8c84325d52eb70b0470d8b9fad361e5e402ac9b722b4ee5ca3979444b6ed6d607e4436c15a82a76551a34ff7a1d7bccb01211d7e2698f9b24137f8c42f72c700c57b27a912ab448580c91f9977529ac69063bf73bc71bd9b67f711595a84150e95590dbb81e9e1c3a7878d1b9843ed2e231edfca861bc58262c639bbd56ded0d47d3ab022200d04f3ba146d06a9e9718f0f14394adfa6c5d9b9ce01f0b76e47d78c9b089398f05e496b18f81266a6e0859e57a752ce2beaf9010e546c079cfccc0aa7ad67955161d6ae776a000000",
  "txid": "9cd71aa6b94b2ff0ce3c8467a4b86ff2d88f473371bdb652f7158c0da802a77c",
  "hash": "85bc19a00952b3039b68b75c474e2c6d24c5840807090f992e20bc30fe5632ff",
  "size": 5085,
  "vsize": 2278,
  "version": 1,
  "locktime": 106,
  "vin": [
    {
      "txid": "36d423fe4a72d1cb424d6a25258ca7bf1471b49262c8a9999c38b049775c9cd0",
      "vout": 1,
      "scriptSig": {
        "asm": "",
        "hex": ""
      },
      "txinwitness": [
        "bcdb7ee0e9ff1150825fa9110e615d1a808104c2aeb27fbc820347954ff108c50c1692804cdf20b6ccbb1aa952c511733cb7997524f1f1c3659debcfa0633d74f81a755e877be30b37a918fe3d56044757b9772a50b6ab102002ffd052094f4cd627df297f4caeac5c2b204e68439034e6c9943a560c60d6f2c6f7250adf9a7f44dbf1584184ebed64cf56fc59861990ed9c8d1ebe67c35eb878620a88b8e63078dfe7d2ed2c216ce39c17d60289696c29fd889bb555735c70b647a0e45e9ad7899f6cd3a238b63e408e1f484d1b56d6b7a6b02691023ac012555701e71ada1d3415f2b6f6286d5f7699e47aba3016f2cc589c5e2f6b63bb462cfb11e613f88a918bb5b245f8ff177ae168062ccf1fe9b11eced27b72e1506d06ea383e356d0f6811afb33102772bee7667c5c2433ad5b1b77f51fa1c41e997f368429d27caaced8dd8c86fdfeef972dd9e55b20c20d4d7bb98fef108bfb310264dbf06b8dc8535a832fb6ce9a942c5bd26a0025c1cfa88611a3243e748644248afd0100a8201892ca2353bddf60bb98beae66929ee7e556ba8e8864adfce0ee247c1fb3d251e763099e9fb90c16d17bad0be2f34b418d97366045fdbf119d57c7bbd0ecbfb2a2e2270264adeb23b0358eb790e7799178f4f251648ac921170513ab21d81aaa9ab8e67392c83512cea0bcd0895857ae3a09c53255c992ce978cd27c45b41c7ca6359fb343377f51801b206b6cb266e28bb34910b96a5456077d05f2e3b6818b7e99fcb0454dfc7393e2e210612f20df4212084c69d71ff94cbb4cc96482db3994cca04fc6afa5c05a649472f8be5df599c32105273a532c102a4c0b79cc6ab654ff2f9499a3b8452b63434908f7e07cc7b9eae0ea95094a45468ec682254cad5ed1a3462438a878b32c7569c9477d53c5d47dd090001b97b0a4b3e80988ba0dc51a79000ebe8e0474ff91a30cc6f6920019c5bdcb92abfd7d1c6cf58f190c7619a3ef43ec55e1de3660479747f9d1101d83633b6aa6a865a29f190ae4d02e53e79175ed74a1d5303cc2fa002ead6ed608267676a1cebe49af035367fe4de801a4726d37b911fb20185de4709c016360672b29c09eb8082d6987ff4a15eb5c826657f592423af0b1b3f5d259e1395923480ac7b5e9268b06ebd7ce02328d8284d5d2da5844b9fc30b7213bc8c541b9102c53e4e527024c5ae163ce3ff585f940a9432d70cf6fd9e441a2ecadd0cc6a63e7cb9e651d379d1db6ea8e3c0ebc956316b02af1de7bca803eb25a75a39501a623821a30306dacd6e468d3355c95e37bfae53053c761845549a9a1a16564340bb826f9358e7cf1c8c277f538dec4ad3c642944c146f587a88d4d96a86fd7aef01584de52837bb7ea7e6c65a540aabe3f270379af07d33dddd4eae3c91e8cc1970644e314fb90ff02f144c979f96fa1477b843bb152975eeed974cdcbc6be284e8fab5bef038e91a5f35825cbe09a65df7cd986715b1f3cbdd8f41820fe4f807c7545b4fdf1b10cbc32e4d0c061a665917657069cac374b222ce777172c19672672e8abd4f986ed275b93c41a2048feb449c8d55d89b3d0caffa640b3e9e58466cb13766b0a5857d72cb06963b2204bbf4ce1568f5a81263767b5c5649ae2ad33696b8fc220b147f5aec479434bfcaa63d0a38a1187c3879329c461bc8101691af57ed63689d921955424285513fddd1a32e0c503610b50fa707a673f4c1b9387953159f9ee8fb6c81cdca69e686d40a602a2a524e91809f7280b072f6593035028d849030b6e634de72b6fed73082dff3ca437d84360794b757184ffc53e34374da35e8fd89bcee9fefa07413eda427185932d6c8463008111e1345206bba6c19d79e51506a2e29938f728d27b8adde9e8aff66e984edd828a29e3c55474cc45623d5a88d08b36f5036e73f4bc4e18309d7bbdd5649dab22e807e0792bd2c3f8e97ffe65e8f47cfe21e55257722f2be6df7bb1c88dbfa3dd37dcce2ffba78c3864fc2461be1deed45d60fef4ff25089fa393c4f3d9ac610ae3db8712b0543b419b4db6842be728e7bf25e32f1013a6719cca47d9a8476478c9f28193cce1e80dca08b7a54527268e35e8f7706de132cd238f9d59425ed84969576ef1091c8520bc5da8aef6d17556cb1a3ad1c00c438bfb710615337f155c2529d8559e4a9e4bfc0d6f19211c6a9730fdfc99e439ca824ba1f5b51153e3b66d813ce68887af4c1b3145f73d80b1f080f538b28b394bad2cfb46f5a69f35b1b2a0e4fdcd7546486469fb52e4cef79672d081aa528874a3b527549e6e55b7adc8e946948d0e6306cd9d8170bc2375c639cbae26989343aac83d51675b4ec1354675464f9822db8ad27756aa94bc272e07775293f2c8554cc9e57843c99abab2ea3b7b258c053c75b34ca4d45c8ee279c200739363dad0fae6ef56bcf4c4aed3f9b4b00be6dbec788553fdf8c475973de2e12baa63ee4fc86ea92510bdd8233c62ff10739c449b549c9ddb5620e58f562044cfc898d3599982bbd100155d1b62b1644ae79e896f984349cc6c88c56678b84b3a83681d312fe3a5a4393448ddaad02172fd6613b3ec2f528f8792cfc7a5a399efc88f5e5870c80d6264ab2e40ac43aefe999ecba67556feaf02819fd559a7521537eee09de4421b06d88349da37f4bc5f946285b5046dd58d5a47d39fb0545b94e3a7678150a1abdd7936d9f8245e1564835913343905402e22da3633703eff11828138e4e4c024ae41451965ec685c34c3f82033d67cc9b4a4932b5ed66a9cd6b5179ee6e2f71b700413833f5f142577359aab85b99b90e0c2884a0b8d5393df5ba5861a82311b24fc76e0dedf733c75ff8422b3aa41dd03068aab475733f770d9cae6a76466baaa63648916cde81fc5f3fb7f5cbfa112fb6804e840a9b645416384c867fba217b99828b29bbefdfcff964afe4791ed4e1c9c579dd24118a11c3462c7c050e95664ee8908c46949c4948374aa0a1c6a970daa51c19ba2be510b01631b9bcd0c374bd0ad59a1adbd0e7acb57dfac8293f76173570cad1da73ea8a93bab327a96f77055e27218d7f09ae8631dff6052846885f529f81b4f59ee5627d0be5dd87f75965ebf89665f984b855d1483e4e304693ddfaf8d959346ad019e809ab2e6fc5e5b608f1b29d387db834cf7add77472fba816a2b63cce22cf6587a8cbf9137170a79d108f25c98fa7012d6ee3d5551f1c9348842a581a5e0d83cf452cc2a86584a0c0144086409e5b2a02ddeaa16036f7b13479239f06fa40a1111d47df5a6061214181e223e75818ba1d6d9eaeef902071a212b2e515257606d8e9facaec2d6d9e5e7f0f1373e49595a5f66767d889ba9c3c5cfd0e30f151618252740699ae3f100000000000000000000000000001026374201",
        "008b326f150126e6a6fa6324a5eaf4fc8500d047625d37bdae386a9e5005202bb20de8ab4fbabc55cc78a763141a45befd0f08e6988fe8b3356065f9aeeca9912ea3d4ef45234bd793518e7f89fd0b74fbcaaf8856747586d71c86de748a18e3fd6cc2be6f29ba03c28a79226733562dd30eaf21db675f8810441c97f95b3cc15d27cb147fe050334a918210b7d3e6b7cc3ae37eeb83abda75e6ad5e7e5bba66b5ca08ad598b05cac30d473abf5c293e9720bf754577227d1c398161b0e271f8a026794a71c9eb5c7468a5241cf9ead5573b70b952866e9d84c5ee6257faa05bf72f5944af675fff93da26ea7b99bf8c1bd8741a624a55a9798ac4a06b5409a8142cc72270bea80894d6ef9139546a0f0e3a3c5dc6df21bc4531c93c47aace30a8d2f49f07f528887adacc6190b2877fc44df82050114a95c2763386657b72adbcf5bced9ba897edc65e5e7a79589c341a601274a038bbd122353f56b848a774f9eb47a67c6278bb4f231e01ac122ca5e38a8e136118f7e46cd42c7a204790e111522307909000f8df8e059f4f2150ad70c3e7fdbae0fe8d4d7f157be9bee6ebd19e45abd0f1cebc9aff451198a8fe333dc79f34f5a46d8a8afde576286158279d0161b1b4a08a315364c151aae5f82a34b621399875502d935a1e40f952d02e7dd510f4bfbce343f4597f73b45ade532e58d9cac6152c8d956396fdf521766c9bf36b3371a6b771dc8f7f06295fa3431acb5d358e0d8164e94e58b38a9c0016cde9cc4a3e928d358455160fef6dd3cf5421e5d304d7e3da943b3e7c550eb0870fb7271d53cfd532cf5947e7427c8819b292439f720c7ba477483c191281278b7c6ae0a5b5045b02e7a6a34fdbfced619c0c8e64a065cb52ba21aad68bdc1db13abcffa82f09528a5d2c47f32af978df1868235e809996d5a8c8c726aa50db6892c000fe16df6ad09e88016eab674aa12d8782de6797d95c484d116a05b217b144ea3a54b884e9fc274a3c9559d840504e459b098e7217bd5356736cb75b2becb871f1e11c0ed719db42e091426f0f6e8dd69f29588e70733708f3f8b0d61c5a92bbdb6e0812e89bb1d635a45278d95e0285bc32a64186c99a31c9f728f0484c42c71aa2c74ecf3678b4de3d3549214512d37d6007814732997dcf5258da9a1f9ffb125dfc9defd655139a5d8c13350c14e7d4d33763df0592d47889876efb99126a5c6e6f292127ff379dc3a2b034a37ebc8dd176960d394ab6a84082a073190d93a630aacae2ecd0a24b6a065b5973d587f7888ea9962130efa50e2c47b896b4bb7fe42b372a79905bd8caf781bad9cd00d4be6c5968c62ae05c7f84173a33b64294b3dcb878175dfaf27a1aa5a4c36f24574c92c73cbdc708943bc8b53e1e3d6f34a012fa86ff438ed550ea5f4038af777542f7fa5cb40035eb4f558478cb80257cbdf8b25ec2ab0caa36fd6479a5be3ae7eb6b4a6a0fd35a3a72b8607510b95869d940b2b28620f13744fc4cc516fc475333bbc312c39a59e6bfa039d1aed47b969d95ba809aea9570f8ff399afbb24c9f780943a8c84325d52eb70b0470d8b9fad361e5e402ac9b722b4ee5ca3979444b6ed6d607e4436c15a82a76551a34ff7a1d7bccb01211d7e2698f9b24137f8c42f72c700c57b27a912ab448580c91f9977529ac69063bf73bc71bd9b67f711595a84150e95590dbb81e9e1c3a7878d1b9843ed2e231edfca861bc58262c639bbd56ded0d47d3ab022200d04f3ba146d06a9e9718f0f14394adfa6c5d9b9ce01f0b76e47d78c9b089398f05e496b18f81266a6e0859e57a752ce2beaf9010e546c079cfccc0aa7ad67955161d6ae77"
      ],
      "sequence": 4294967294
    }
  ],
  "vout": [
    {
      "value": 1.0,
      "n": 0,
      "scriptPubKey": {
        "asm": "OP_RETURN ac55699297d5b9c571d5fcc9c9472024209a179c92385b7f96d6e30286f8d311 d60ea235accb13e5692e4469b8880c84961f4f8a0a191eadc98f080c411fc1caf62e82158ceb33c5490e644998a82ca4b63f6faa2a393e8de9af282c613fe1ea964ee275ec8b53a5296e0429f8c84cc4d65f0fca4a595eed89cf484c015f818ab66ec255ccab7385094e2409d8e86ce4f67f2fea6a797ecda9ef686c217fa1aa568e22b52c4b9365e9aec4e938088c04169fcf0a8a999e2d490f888cc19f414a76ae02950c6bb345c98ee4c91828ac2436bfef2aaab9be0d692fa8ace1bf616a16ce62f56c0bd325a9ee84a97848cc4456df8f4acad9de6d094fc8cc81df010a36ee42d54c2bf30589cea4895868ec6476ffaf6aeaf9fe4d296fe8eca1ff212ad60ea235accb13e5692e4469b8880c84961f4f8a0a191eadc98f080c411fc1caf62e82158ceb33c5490e644998a82ca4b63f6faa2a393e8de9af282c613fe1ea964ee275ec8b53a5296e0429f8c84cc4d65f0fca4a595eed89cf484c015f818ab66ec255ccab7385094e2409d8e86ce4f67f2fea6a797ecda9ef686c217fa1aa568e22b52c4b9365e9aec4e938088c04169fcf0a8a999e2d490f888cc19f414a76ae02950c6bb345c98ee4c91828ac2436bfef2aaab9be0d692fa8ace1bf616a16ce62f56c0bd325a9ee84a97848cc4456df8f4acad9de6d094fc8cc81df010a36ee42d54c2bf30589cea4895868ec6476ffaf6aeaf9fe4d296fe8eca1ff212ad60ea235accb13e5692e4469b8880c84961f4f8a0a191eadc98f080c411fc1caf62e82158ceb33c5490e644998a82ca4b63f6faa2a393e8de9af282c613fe1ea964ee275ec8b53a5296e0429f8c84cc4d65f0fca4a595eed89cf484c015f818ab66ec255ccab7385094e2409d8e86ce4f67f2fea6a797ecda9ef686c217fa1aa568e22b52c4b9365e9aec4e938088c04169fcf0a8a999e2d490f888cc19f414a76ae02950c6bb345c98ee4c91828ac2436bfef2aaab9be0d692fa8ace1bf616a16ce62f56c0bd325a9ee84a97848cc4456df8f4acad9de6d094fc8cc81df010a36ee42d54c2bf30589cea4895868ec6476ffaf6aeaf9fe4d296fe8eca1ff212ad60ea235accb13e5692e4469b8880c84961f4f8a0a191eadc98f080c411fc1caf62e82158ceb33c5490e644998a82ca4b63f6faa2a393e8de9af282c613fe1ea964ee275ec8b53a5296e0429f8c84cc4d65f0fca4a595eed89cf484c015f818ab66ec255ccab7385094e2409d8e86ce4f67f2fea6a797ecda9ef686c217fa1aa568e22b52c4b9365e9aec4e938088c04169fcf0a8a999e2d490f888cc19f414a76ae02950c6bb345c98ee4c91828ac2436bfef2aaab9be0d692fa8ace1bf616a16ce62f56c0bd325a9ee84a97848cc4456df8f4acad9de6d094fc8cc81df010a36ee42d54c2bf30589cea4895868ec6476ffaf6aeaf9fe4d296fe8eca1ff212ad60ea235accb13e5692e4469b8880c84961f4f8a0a191eadc98f080c411fc1caf62e82158ceb33c5490e644998a82ca4b63f6faa2a393e8de9af282c613fe1ea964ee275ec8b53a5296e0429f8c84cc4d65f0fca4a595eed89cf484c015f818ab66ec255ccab7385094e2409d8e86ce4f67f2fea6a797ecda9ef686c217fa1aa568e22b52c4b9365e9aec4e938088c045afb0ae3dc6ff1969ecd87545435e0879938f9c7d8050857e615ceb55fe5b37f",
        "hex": "6a20ac55699297d5b9c571d5fcc9c9472024209a179c92385b7f96d6e30286f8d3114db004d60ea235accb13e5692e4469b8880c84961f4f8a0a191eadc98f080c411fc1caf62e82158ceb33c5490e644998a82ca4b63f6faa2a393e8de9af282c613fe1ea964ee275ec8b53a5296e0429f8c84cc4d65f0fca4a595eed89cf484c015f818ab66ec255ccab7385094e2409d8e86ce4f67f2fea6a797ecda9ef686c217fa1aa568e22b52c4b9365e9aec4e938088c04169fcf0a8a999e2d490f888cc19f414a76ae02950c6bb345c98ee4c91828ac2436bfef2aaab9be0d692fa8ace1bf616a16ce62f56c0bd325a9ee84a97848cc4456df8f4acad9de6d094fc8cc81df010a36ee42d54c2bf30589cea4895868ec6476ffaf6aeaf9fe4d296fe8eca1ff212ad60ea235accb13e5692e4469b8880c84961f4f8a0a191eadc98f080c411fc1caf62e82158ceb33c5490e644998a82ca4b63f6faa2a393e8de9af282c613fe1ea964ee275ec8b53a5296e0429f8c84cc4d65f0fca4a595eed89cf484c015f818ab66ec255ccab7385094e2409d8e86ce4f67f2fea6a797ecda9ef686c217fa1aa568e22b52c4b9365e9aec4e938088c04169fcf0a8a999e2d490f888cc19f414a76ae02950c6bb345c98ee4c91828ac2436bfef2aaab9be0d692fa8ace1bf616a16ce62f56c0bd325a9ee84a97848cc4456df8f4acad9de6d094fc8cc81df010a36ee42d54c2bf30589cea4895868ec6476ffaf6aeaf9fe4d296fe8eca1ff212ad60ea235accb13e5692e4469b8880c84961f4f8a0a191eadc98f080c411fc1caf62e82158ceb33c5490e644998a82ca4b63f6faa2a393e8de9af282c613fe1ea964ee275ec8b53a5296e0429f8c84cc4d65f0fca4a595eed89cf484c015f818ab66ec255ccab7385094e2409d8e86ce4f67f2fea6a797ecda9ef686c217fa1aa568e22b52c4b9365e9aec4e938088c04169fcf0a8a999e2d490f888cc19f414a76ae02950c6bb345c98ee4c91828ac2436bfef2aaab9be0d692fa8ace1bf616a16ce62f56c0bd325a9ee84a97848cc4456df8f4acad9de6d094fc8cc81df010a36ee42d54c2bf30589cea4895868ec6476ffaf6aeaf9fe4d296fe8eca1ff212ad60ea235accb13e5692e4469b8880c84961f4f8a0a191eadc98f080c411fc1caf62e82158ceb33c5490e644998a82ca4b63f6faa2a393e8de9af282c613fe1ea964ee275ec8b53a5296e0429f8c84cc4d65f0fca4a595eed89cf484c015f818ab66ec255ccab7385094e2409d8e86ce4f67f2fea6a797ecda9ef686c217fa1aa568e22b52c4b9365e9aec4e938088c04169fcf0a8a999e2d490f888cc19f414a76ae02950c6bb345c98ee4c91828ac2436bfef2aaab9be0d692fa8ace1bf616a16ce62f56c0bd325a9ee84a97848cc4456df8f4acad9de6d094fc8cc81df010a36ee42d54c2bf30589cea4895868ec6476ffaf6aeaf9fe4d296fe8eca1ff212ad60ea235accb13e5692e4469b8880c84961f4f8a0a191eadc98f080c411fc1caf62e82158ceb33c5490e644998a82ca4b63f6faa2a393e8de9af282c613fe1ea964ee275ec8b53a5296e0429f8c84cc4d65f0fca4a595eed89cf484c015f818ab66ec255ccab7385094e2409d8e86ce4f67f2fea6a797ecda9ef686c217fa1aa568e22b52c4b9365e9aec4e938088c045afb0ae3dc6ff1969ecd87545435e0879938f9c7d8050857e615ceb55fe5b37f",
        "type": "nulldata"
      }
    },
    {
      "value": 499991.8648,
      "n": 1,
      "scriptPubKey": {
        "asm": "1 39c38b4e74c571d98ee18f6e32aee1063758a3a9d9e236287726aece49a4726f",
        "hex": "512039c38b4e74c571d98ee18f6e32aee1063758a3a9d9e236287726aece49a4726f",
        "reqSigs": 1,
        "type": "witness_v1_scripthash",
        "addresses": [
          "3QJmnh"
        ]
      }
    }
  ],
  "blockhash": "ed58b71ef50cb049f6fd5c1ad274bdeb3951d970e0a56ec51ef7152d34b6d8c5",
  "confirmations": 1,
  "time": 1764177054,
  "blocktime": 1764177054
}