{
  "hex": "010000000001017aeb0d647682fbfe1370257b2c151adc1abdb4e712dac8b35943fbe6e10c029e0000000000feffffff029021522d792d0000225120aa5f5649cbc9b8f11033fc8d984b4a5459e50564a2c725f0b43f310b946617bb00e1f50500000000fdd5046a20d1fc80482be80aa6c199467ec0662dadb48d281d295ef81632dbf75d781427784db004a19cceef77653d72bdcf65715a5055cd20c6104f1a3b6bc5289e1d1da458c1d181bceecf57451d529def45517a7075ed00e6306f3a1b4be508be3d3d8478e1f1e1dc8eaf37257d32fd8f25311a10158d6086500f5a7b2b8568de5d5de4188191c1fcae8f17055d12ddaf05113a3035ad40a6702f7a5b0ba548fe7d7dc438a1b1211c4e6ff7e5bdf23d4fe5f1dad0d54da04690cf9abbeb45a81e9d9d24d84151013c6e4fd7c59dd21d6fc5d1faf0f56d8066b0efba9bcb65883ebdbd04f86171615c0e2fb7a5fdb27d0fa5b19a90950de006d08fdafbab05e85edddd64980111417c2e0f9785dd925d2f8591bab0b52dc026f0affadb8b25c87efdfd44b82131a19cceef77653d72bdcf65715a5055cd20c6104f1a3b6bc5289e1d1da458c1d181bceecf57451d529def45517a7075ed00e6306f3a1b4be508be3d3d8478e1f1e1dc8eaf37257d32fd8f25311a10158d6086500f5a7b2b8568de5d5de4188191c1fcae8f17055d12ddaf05113a3035ad40a6702f7a5b0ba548fe7d7dc438a1b1211c4e6ff7e5bdf23d4fe5f1dad0d54da04690cf9abbeb45a81e9d9d24d84151013c6e4fd7c59dd21d6fc5d1faf0f56d8066b0efba9bcb65883ebdbd04f86171615c0e2fb7a5fdb27d0fa5b19a90950de006d08fdafbab05e85edddd64980111417c2e0f9785dd925d2f8591bab0b52dc026f0affadb8b25c87efdfd44b82131a19cceef77653d72bdcf65715a5055cd20c6104f1a3b6bc5289e1d1da458c1d181bceecf57451d529def45517a7075ed00e6306f3a1b4be508be3d3d8478e1f1e1dc8eaf37257d32fd8f25311a10158d6086500f5a7b2b8568de5d5de4188191c1fcae8f17055d12ddaf05113a3035ad40a6702f7a5b0ba548fe7d7dc438a1b1211c4e6ff7e5bdf23d4fe5f1dad0d54da04690cf9abbeb45a81e9d9d24d84151013c6e4fd7c59dd21d6fc5d1faf0f56d8066b0efba9bcb65883ebdbd04f86171615c0e2fb7a5fdb27d0fa5b19a90950de006d08fdafbab05e85edddd64980111417c2e0f9785dd925d2f8591bab0b52dc026f0affadb8b25c87efdfd44b82131a19cceef77653d72bdcf65715a5055cd20c6104f1a3b6bc5289e1d1da458c1d181bceecf57451d529def45517a7075ed00e6306f3a1b4be508be3d3d8478e1f1e1dc8eaf37257d32fd8f25311a10158d6086500f5a7b2b8568de5d5de4188191c1fcae8f17055d12ddaf05113a3035ad40a6702f7a5b0ba548fe7d7dc438a1b1211c4e6ff7e5bdf23d4fe5f1dad0d54da04690cf9abbeb45a81e9d9d24d84151013c6e4fd7c59dd21d6fc5d1faf0f56d8066b0efba9bcb65883ebdbd04f86171615c0e2fb7a5fdb27d0fa5b19a90950de006d08fdafbab05e85edddd64980111417c2e0f9785dd925d2f8591bab0b52dc026f0affadb8b25c87efdfd44b82131a19cceef77653d72bdcf65715a5055cd20c6104f1a3b6bc5289e1d1da458c1d181bceecf57451d529def45517a7075ed00e6306f3a1b4be508be3d3d8478e1f1e1dc8eaf37257d32fd8f25311a10158d6086500f5a7b2b8568de5d5de4188191c1fcae8f17055d12ddaf05113a3035ad40a6702f7a5b0ba548fe7d7dc438a1b1211c4e6ff7e5bdf23d4fe5f1dad0d54d4109eeaa8d401ab51cd1bdba7f29c263c4e1353320c9c729bdc4384eff60f34c02fd7509172c771e49679ecd2446f87ce11356567552344e4fc5d41d55de696c5d2ee0ccc5c626092c099c14017433a81d4035e6ae0450ef0cb6abf7fe28bc03ed2c6d6ff59f5dec2017da62f19456c19e278e507138fd4d1c001b4c3cf530463a972861f04d26a6f51539e09a3deef1637c4c5ea5722f069023d1b3dea8ddba4a56fc3e4a879f26cdad8d9da0031850d04d1e6b010bee2a7cae8403f0d676ff7ba9808f96b2444be8593f2a8d9de3dec68f9e2d6acc2c6a5c5e1c33198c9ea105c304eb2042d162ba4e9a97328f33a5b2496ebce216f11f77f7c3c6a5ce8667085b830826f51ec9f746bcfcf0ac92eee2035f064c677a84e955d5ef35668dcf0e32a9b61856aacbec34cc5591161f5c63fd972784c5dc5fa685e10a822770c271610b22ad23816b9760f32c2ad693a74fe257ebacae6f96ebf59eed7be694c95ee7b55f4d4caf3b6615e0b27a87636320862e23e7f1e53d73605460b831b11d46af70ed5f0f62ae99410bcd3207d18f610cf42480c1d482cb34c349a827ec75cf7863abb520b99108802be99ffd857dc32a7cbfbb66695569075299eb04a266373c038951aeea9d6f8064b2e39cc74f3add123d26552c894ef69d54ee835b8d0b85b2a002529b7f4d0befc8353492c1155f31bed0d752d40a58ae103833b007e39b9d2a8df30cc02063f4e57d53ef92477c98e6606fd5df1b00ef6c37b25a3075d5192ef12fccdf2c904eecd360c48316ad1a3c99d7e42cf93dbff7aa68b82fca5d5692d86d05c4509598ddee17fa6cff8047332c3dec890693f1a00044aa21f476ec8adf4813a93220042f67bc26c7d489e613cf3224db89581d0e31e4688926ad923e5cb62d82199df968e880caf7622c432b5ee2ce064346cc07b8bf9c52fb9dd95692c3f09e9f169102cf38cc200a751ea2aa2e3be66f1c5c5b6c55d0cc5b8d1a8799caafee6dcdcd50d8b4e0911fca08750697968e3a5b70c467f50545c5a9d9d3cfbe5f61113f54aca51c502ca4525ef0ae288480969da757df77dfaf17a65705bbb29b93814f9072333c43b8d5d69374c417e39b61151180d8dd93d7b00be3da6ec422a805ee1a8bc9c3cb9b3bad2730fbeefa7d71840f053d6ac7abd915bc2ebd4c0317640eb454404ad6b4270c5c99446bdc7693ab8b73399427efda1c31639647064cb580698e8894e2eb6954b0267b3a0fc31887f90be8c453ba6bacca81737dae3f3332e2345b87d2a995837e692fb13bc878fbb42aa4e0efa194b72e4b224d427039681e1f98506b82612a483244eefb8d12558fc199827e013315551332220c0b193429545ea43ce735415799fd6c91e31c3ffb9fd4396895697e4165e43308c06c30e90ee39ff8cce845d3a36f3ce49f39b46fd8d959b703fb9d9d0afc3e33bfec7ae426d5b125563d31d69137b3ee8bc7f8f3730f88aac549a9c91c7afc2e8ea32a67c1f9bf34e1ac754bf46f47463f48cc8de4be6e29bd99d3e31249f2a73a242fc0cc07829d4a2d091e46185b60973a032df7f74d60d91a0b03fae2f20188cfdce08b9e70b89e5756dfa29dac1c23923a020188dfdbac9370c6217817d7a76fe318928cc74fa01d38485bd7c8e6f2f82d5c5edd22990d01ac7cb5e701d534d33e397b1c60d125bc1aae3491e3916e4efbd6a29cf01704ea4944348fc37ee965dab74924453e46e89d28a77087356b83f84d8f159cedcbdff00a0a8c0cf71317a1c6eb8c62e5bd97e493215c94bade58dccabd3db76da4a33a46463b02031016cfa71fea6f0a7b0e277217cd98b9b609a463d9089f239662a2469c60e65ab84cfc567e4cb141d9158b1203551bfe54ab9fa1b30a10858bf53af6b6b982c8381c27c5edf90354a809d0a3f9d7055152df65462ac5c755af32e74de162cd7efffa41170049a520eaef056ea4b978e6e1949c89651125fa2c32372bcb7dd9bc305467dff55dcba7b0b2715cd3b89ec2c8f09a65201e89d940f9b792b76933cb1465a07547885a54a4850ec3b28d012c74c5e449b13d9ca80594e5a76a27d6766526eb51255f43248f5e33635f961b4b49e0fe5029512dc638c413e7f6e7e3494ea1cf80ae192eb13f58157ff51f030cce463fbdeb9f75ecec7aa66b0e743896e0e63dc1c03f43137323f4a0ee14d355270aa058dc2f9d45c4fa5989a3bdf63a1cc80bb7e5c4af65cdd6d6f679aef8f2ddf45d38acb533dd0f043fce5ac7d48fd8a193eb87b6520ccdfbd2db302a1652581ca8ac4f3e89f60a1c841a38446565c61912b5140527e05e7d971b144ccc43d5539717e6cb1ac10419599e992566e3a91b5e787433cc675bde8679e388bbe19ec2890202e01c5f008f1c30f8ab903f1882ea8fa185bd95ac249ff03e41bd802df0fcadf9473aef426e1445a5664d2542c25bf69d23037be9d25d3b9bafe15b49b5c1e8e38e45291cb08e32e2b71eadf02d6f891e08b9cf727b8b8f3d544434f5dfcaa1b088988ffe112613c49287a51d274484ec16f5da4a0ea0e70f9c300c07c621f7ec83a62f025020f050e1db7b1d95d04e66f0981fc1cdd408739092c5004680f05e3ef8db114cc295a63c161635a86ce07ce80e34ed463825e3ed2044008e6030e712dd0c25b223bc14fe55b6c550b05eb0119ac0f8a937d8e36544a7ff7c5b961407d6c3f16bf3603af9b4ec23c4d41ef0a2797c75d2d2ca388e3fdc108eb9ef7568e8860b24a68bcb49c3ef87b23aa0cfd722a658bf19fb037018cc4439ad86c60bd551c9cbc4725f5fa6ef8f57f70d9339a2031a775a9a31fc10e0cd3d511d599579815001fbde834816831a09c8fd54a5afa2ccee13fc532d3f849b63ee7d17d5a79f17e0ef7f3fda8227bf7dffba3791ea52a25bde6b80f50fdae4aded106bbf2feed30c5f8d4c36d8c75cd1f8496ee7bbefcb1e2e1a9202a717d6421d0d99bb5819f7661acdde58850da2eb973c8ad0a226b67bcdf47e11a4ea2326a6183aca42c2906be5eaac9fa5e6fe29cd3d8fcffd327077365643dde7ab596ec7c91ecfdb9274c1a2cef6576009059581a80b60a5144809a1f288a875592c4a575009be838b139de88d96df854c3a2a8236c7346426bf7fb34cffd53943f3a93f92a385c21e41a5aa3732c16d53d769f76c4bb634b4f424acc17b8c352813fbf3bd04f3b07b63544425d07cac572060fc82a53b5230a4ebd8e8c13138a1ec94d1b13d5d4463833abf4d9356aa706454ba64d2c2a652076738279640c7b08073912c6d17dedb3ab6a8e303e4f5f116c65f346b4875d752d27b0e3c18b1a577e5beaf4570961e8e74d217f21333363f405f68699192bac7ce17283c475257656a7f859ca1a5b0b3dcfa10222427333a45474d516178829eadb8ccd8fd193e848fb7c6f4fcfd000000000000000000000000000000000000000000000d1e313a01fd210500d360e7fa3b6438431d68dc2e5946d2e130a265ec3d7a4a1cbadf05826f69189c6167f038e0416a4392964c2e00563f23b26f4f8c7ee84ac795a8b65fcfc47f4be1b16ec630d825ea6f021a4da3058a5d134ec233516ee313bf3ec0623e84e5213ebda151a65062a6fef220a42b0c7fb791608db5de46da5635a21bdbf5ec34f4a46185a9286d6cc09c0def1d64b60f411b9656988fa4190c7a9d45906a78c55c9878c331468654c2bd9be675bef16661b04c48b9d620e8aad87d3a40131cad5203b16aa9d2468e53026990a4fba8b0dddc8ca7ee9217ec0da0fd43bc7075a5a395bbcc3437103a9a46e16e2356d9660b5c0614832a7052293eabcc08c8262d5982580718d914046c7686ba6fdbf095b9c1d277ac401170e798cc38bcaa2973e6e24e692a80447c47f626665523344095e132f55f51a7c9d3f13f70b1af6857e4b34ec7f8d37361388d8783383de20f66cd20adc2dfe605b3bc6fcaee4fd8efe653db6de618c8479843c29d4466ed23ca2306ef33b8a2efe72d71cfda2e42a9622ee3d588c6827bafdfb046995622e79245e0323d33e39bbb6b0227ae72d19e26b65ee726280f058f3448c4ebae71fdd1c808946f4234aa55e1095cd20414eab32bf7e54479a132ad23454969fa1c6a1e17498b953515da2b66e3dd170286a07a899a3eaf07666b317da2ee4c0c653e74d03a35c56e6b15fdb70902a1427c833b5a99464b6f30ca6252d8ba7ec8b66953b69ffa1e0d4c21bbf94a6d9b50c98270f9f03f0bef0fccbbf47090bf2b1b110df1f0a5eaddd1be92d1afa802e41a5fb4b17fe3cccb012c9b314480ef4ad02baaf81e57a8004511a03180258f08949e3163ba3f57993d4cdb266de4d2cfd63b6a36f81fbf5d6440db46c4a9ec62c1e01bf20f7becaf7157e50bbdd4ad820566f9a2447a3f2d8721b5c45b64d19cd940e624ca4d3ec8af81d6b3137634b2ad8d0275fd820586d8f63a2e5d33e11d0d3183fe31dd6fd7bfb1042925b180924c2c615eeae477591f430fdec491a0d9cefc057049446386e2fa8b2c71cd4d0206338c864211b5594c405105e199b908384b8e03a3a1e59823c2975bd4c7c7232a81665123a26bd098a824e2514d620f4b77020988b591a3d1f96e4afce7afbcaa5ab9723ff8e12aa4ea4dfb764a78602a2db729ba595776ee977735fbac5131cff53bee23b8e1d83937ee9d78dab53b8a23ab8c1e0905ca9af7baede517ac533ef1674d5c09c2f0dbd5476eb931581fb6a45b785da976d343e70bc2780b76532c22daaf608f25312b6361a2a9a7c1368de42fff209eb029957d464f38c95008bd94ff85db85bcba1cf34eb3a9153e53747efc6610a1e4cf1f2e2fa1e2427444171642fd2caaddb004cfa32e009beb294951ddef24fdbdffdc4199dc597be1d0379aaad9ec5c90ed88e37300a18dd2c45286af58a9cbc1675daad6201a1d54607e88c354261b2f58dc4e829f1c68058f058212f834b22236e19f0bc0bf8185b6ac9b6d9148754128e7d558f6818763d0361637d83cdc0d8b54b05f7c0911647b382fa1be8c0b1d152e0c3c95d583d7593b84f41f54f4c3ea92096592390eb02efa6da0a3bc64474971f3e76c42dc4a6cd70a1963ddfbe93c1fba4345be7cb4d0dcb3a7c6ef090871d2e60705782266ffd3855d175d606bfdcb700cddf2a1fe6f2bb1a42b5e76516048b892e98d4860791af97dde230c0da0226094c6eddfc2d35db74adb404ad224e94bd333695af5b3f7a68a380a0f2f014476ff6d3c0559464b2350f480e02d8675a2b9e16bd457ebad3cbf05dd3b0ca227d9a924d6ecbf5dfebb83d51d7789811fc13469adcdd8a08f7f9b71000000",
  "txid": "92fe8f9fb0b7700f331a3ae8dd5faee98cef9f05fe500a6741e4d32bcdd67ec7",
  "hash": "de8b1ae61c880f782778513686fb69581d892a12f547192d840cb4bd9318e973",
  "size": 5085,
  "vsize": 2278,
  "version": 1,
  "locktime": 113,
  "vin": [
    {
      "txid": "9e020ce1e6fb4359b3c8da12e7b4bd1adc1a152c7b257013fefb8276640deb7a",
      "vout": 0,
      "scriptSig": {
        "asm": "",
        "hex": ""
      },
      "txinwitness": [
        "172c771e49679ecd2446f87ce11356567552344e4fc5d41d55de696c5d2ee0ccc5c626092c099c14017433a81d4035e6ae0450ef0cb6abf7fe28bc03ed2c6d6ff59f5dec2017da62f19456c19e278e507138fd4d1c001b4c3cf530463a972861f04d26a6f51539e09a3deef1637c4c5ea5722f069023d1b3dea8ddba4a56fc3e4a879f26cdad8d9da0031850d04d1e6b010bee2a7cae8403f0d676ff7ba9808f96b2444be8593f2a8d9de3dec68f9e2d6acc2c6a5c5e1c33198c9ea105c304eb2042d162ba4e9a97328f33a5b2496ebce216f11f77f7c3c6a5ce8667085b830826f51ec9f746bcfcf0ac92eee2035f064c677a84e955d5ef35668dcf0e32a9b61856aacbec34cc5591161f5c63fd972784c5dc5fa685e10a822770c271610b22ad23816b9760f32c2ad693a74fe257ebacae6f96ebf59eed7be694c95ee7b55f4d4caf3b6615e0b27a87636320862e23e7f1e53d73605460b831b11d46af70ed5f0f62ae99410bcd3207d18f610cf42480c1d482cb34c349a827ec75cf7863abb520b99108802be99ffd857dc32a7cbfbb66695569075299eb04a266373c038951aeea9d6f8064b2e39cc74f3add123d26552c894ef69d54ee835b8d0b85b2a002529b7f4d0befc8353492c1155f31bed0d752d40a58ae103833b007e39b9d2a8df30cc02063f4e57d53ef92477c98e6606fd5df1b00ef6c37b25a3075d5192ef12fccdf2c904eecd360c48316ad1a3c99d7e42cf93dbff7aa68b82fca5d5692d86d05c4509598ddee17fa6cff8047332c3dec890693f1a00044aa21f476ec8adf4813a93220042f67bc26c7d489e613cf3224db89581d0e31e4688926ad923e5cb62d82199df968e880caf7622c432b5ee2ce064346cc07b8bf9c52fb9dd95692c3f09e9f169102cf38cc200a751ea2aa2e3be66f1c5c5b6c55d0cc5b8d1a8799caafee6dcdcd50d8b4e0911fca08750697968e3a5b70c467f50545c5a9d9d3cfbe5f61113f54aca51c502ca4525ef0ae288480969da757df77dfaf17a65705bbb29b93814f9072333c43b8d5d69374c417e39b61151180d8dd93d7b00be3da6ec422a805ee1a8bc9c3cb9b3bad2730fbeefa7d71840f053d6ac7abd915bc2ebd4c0317640eb454404ad6b4270c5c99446bdc7693ab8b73399427efda1c31639647064cb580698e8894e2eb6954b0267b3a0fc31887f90be8c453ba6bacca81737dae3f3332e2345b87d2a995837e692fb13bc878fbb42aa4e0efa194b72e4b224d427039681e1f98506b82612a483244eefb8d12558fc199827e013315551332220c0b193429545ea43ce735415799fd6c91e31c3ffb9fd4396895697e4165e43308c06c30e90ee39ff8cce845d3a36f3ce49f39b46fd8d959b703fb9d9d0afc3e33bfec7ae426d5b125563d31d69137b3ee8bc7f8f3730f88aac549a9c91c7afc2e8ea32a67c1f9bf34e1ac754bf46f47463f48cc8de4be6e29bd99d3e31249f2a73a242fc0cc07829d4a2d091e46185b60973a032df7f74d60d91a0b03fae2f20188cfdce08b9e70b89e5756dfa29dac1c23923a020188dfdbac9370c6217817d7a76fe318928cc74fa01d38485bd7c8e6f2f82d5c5edd22990d01ac7cb5e701d534d33e397b1c60d125bc1aae3491e3916e4efbd6a29cf01704ea4944348fc37ee965dab74924453e46e89d28a77087356b83f84d8f159cedcbdff00a0a8c0cf71317a1c6eb8c62e5bd97e493215c94bade58dccabd3db76da4a33a46463b02031016cfa71fea6f0a7b0e277217cd98b9b609a463d9089f239662a2469c60e65ab84cfc567e4cb141d9158b1203551bfe54ab9fa1b30a10858bf53af6b6b982c8381c27c5edf90354a809d0a3f9d7055152df65462ac5c755af32e74de162cd7efffa41170049a520eaef056ea4b978e6e1949c89651125fa2c32372bcb7dd9bc305467dff55dcba7b0b2715cd3b89ec2c8f09a65201e89d940f9b792b76933cb1465a07547885a54a4850ec3b28d012c74c5e449b13d9ca80594e5a76a27d6766526eb51255f43248f5e33635f961b4b49e0fe5029512dc638c413e7f6e7e3494ea1cf80ae192eb13f58157ff51f030cce463fbdeb9f75ecec7aa66b0e743896e0e63dc1c03f43137323f4a0ee14d355270aa058dc2f9d45c4fa5989a3bdf63a1cc80bb7e5c4af65cdd6d6f679aef8f2ddf45d38acb533dd0f043fce5ac7d48fd8a193eb87b6520ccdfbd2db302a1652581ca8ac4f3e89f60a1c841a38446565c61912b5140527e05e7d971b144ccc43d5539717e6cb1ac10419599e992566e3a91b5e787433cc675bde8679e388bbe19ec2890202e01c5f008f1c30f8ab903f1882ea8fa185bd95ac249ff03e41bd802df0fcadf9473aef426e1445a5664d2542c25bf69d23037be9d25d3b9bafe15b49b5c1e8e38e45291cb08e32e2b71eadf02d6f891e08b9cf727b8b8f3d544434f5dfcaa1b088988ffe112613c49287a51d274484ec16f5da4a0ea0e70f9c300c07c621f7ec83a62f025020f050e1db7b1d95d04e66f0981fc1cdd408739092c5004680f05e3ef8db114cc295a63c161635a86ce07ce80e34ed463825e3ed2044008e6030e712dd0c25b223bc14fe55b6c550b05eb0119ac0f8a937d8e36544a7ff7c5b961407d6c3f16bf3603af9b4ec23c4d41ef0a2797c75d2d2ca388e3fdc108eb9ef7568e8860b24a68bcb49c3ef87b23aa0cfd722a658bf19fb037018cc4439ad86c60bd551c9cbc4725f5fa6ef8f57f70d9339a2031a775a9a31fc10e0cd3d511d599579815001fbde834816831a09c8fd54a5afa2ccee13fc532d3f849b63ee7d17d5a79f17e0ef7f3fda8227bf7dffba3791ea52a25bde6b80f50fdae4aded106bbf2feed30c5f8d4c36d8c75cd1f8496ee7bbefcb1e2e1a9202a717d6421d0d99bb5819f7661acdde58850da2eb973c8ad0a226b67bcdf47e11a4ea2326a6183aca42c2906be5eaac9fa5e6fe29cd3d8fcffd327077365643dde7ab596ec7c91ecfdb9274c1a2cef6576009059581a80b60a5144809a1f288a875592c4a575009be838b139de88d96df854c3a2a8236c7346426bf7fb34cffd53943f3a93f92a385c21e41a5aa3732c16d53d769f76c4bb634b4f424acc17b8c352813fbf3bd04f3b07b63544425d07cac572060fc82a53b5230a4ebd8e8c13138a1ec94d1b13d5d4463833abf4d9356aa706454ba64d2c2a652076738279640c7b08073912c6d17dedb3ab6a8e303e4f5f116c65f346b4875d752d27b0e3c18b1a577e5beaf4570961e8e74d217f21333363f405f68699192bac7ce17283c475257656a7f859ca1a5b0b3dcfa10222427333a45474d516178829eadb8ccd8fd193e848fb7c6f4fcfd000000000000000000000000000000000000000000000d1e313a01",
        "00d360e7fa3b6438431d68dc2e5946d2e130a265ec3d7a4a1cbadf05826f69189c6167f038e0416a4392964c2e00563f23b26f4f8c7ee84ac795a8b65fcfc47f4be1b16ec630d825ea6f021a4da3058a5d134ec233516ee313bf3ec0623e84e5213ebda151a65062a6fef220a42b0c7fb791608db5de46da5635a21bdbf5ec34f4a46185a9286d6cc09c0def1d64b60f411b9656988fa4190c7a9d45906a78c55c9878c331468654c2bd9be675bef16661b04c48b9d620e8aad87d3a40131cad5203b16aa9d2468e53026990a4fba8b0dddc8ca7ee9217ec0da0fd43bc7075a5a395bbcc3437103a9a46e16e2356d9660b5c0614832a7052293eabcc08c8262d5982580718d914046c7686ba6fdbf095b9c1d277ac401170e798cc38bcaa2973e6e24e692a80447c47f626665523344095e132f55f51a7c9d3f13f70b1af6857e4b34ec7f8d37361388d8783383de20f66cd20adc2dfe605b3bc6fcaee4fd8efe653db6de618c8479843c29d4466ed23ca2306ef33b8a2efe72d71cfda2e42a9622ee3d588c6827bafdfb046995622e79245e0323d33e39bbb6b0227ae72d19e26b65ee726280f058f3448c4ebae71fdd1c808946f4234aa55e1095cd20414eab32bf7e54479a132ad23454969fa1c6a1e17498b953515da2b66e3dd170286a07a899a3eaf07666b317da2ee4c0c653e74d03a35c56e6b15fdb70902a1427c833b5a99464b6f30ca6252d8ba7ec8b66953b69ffa1e0d4c21bbf94a6d9b50c98270f9f03f0bef0fccbbf47090bf2b1b110df1f0a5eaddd1be92d1afa802e41a5fb4b17fe3cccb012c9b314480ef4ad02baaf81e57a8004511a03180258f08949e3163ba3f57993d4cdb266de4d2cfd63b6a36f81fbf5d6440db46c4a9ec62c1e01bf20f7becaf7157e50bbdd4ad820566f9a2447a3f2d8721b5c45b64d19cd940e624ca4d3ec8af81d6b3137634b2ad8d0275fd820586d8f63a2e5d33e11d0d3183fe31dd6fd7bfb1042925b180924c2c615eeae477591f430fdec491a0d9cefc057049446386e2fa8b2c71cd4d0206338c864211b5594c405105e199b908384b8e03a3a1e59823c2975bd4c7c7232a81665123a26bd098a824e2514d620f4b77020988b591a3d1f96e4afce7afbcaa5ab9723ff8e12aa4ea4dfb764a78602a2db729ba595776ee977735fbac5131cff53bee23b8e1d83937ee9d78dab53b8a23ab8c1e0905ca9af7baede517ac533ef1674d5c09c2f0dbd5476eb931581fb6a45b785da976d343e70bc2780b76532c22daaf608f25312b6361a2a9a7c1368de42fff209eb029957d464f38c95008bd94ff85db85bcba1cf34eb3a9153e53747efc6610a1e4cf1f2e2fa1e2427444171642fd2caaddb004cfa32e009beb294951ddef24fdbdffdc4199dc597be1d0379aaad9ec5c90ed88e37300a18dd2c45286af58a9cbc1675daad6201a1d54607e88c354261b2f58dc4e829f1c68058f058212f834b22236e19f0bc0bf8185b6ac9b6d9148754128e7d558f6818763d0361637d83cdc0d8b54b05f7c0911647b382fa1be8c0b1d152e0c3c95d583d7593b84f41f54f4c3ea92096592390eb02efa6da0a3bc64474971f3e76c42dc4a6cd70a1963ddfbe93c1fba4345be7cb4d0dcb3a7c6ef090871d2e60705782266ffd3855d175d606bfdcb700cddf2a1fe6f2bb1a42b5e76516048b892e98d4860791af97dde230c0da0226094c6eddfc2d35db74adb404ad224e94bd333695af5b3f7a68a380a0f2f014476ff6d3c0559464b2350f480e02d8675a2b9e16bd457ebad3cbf05dd3b0ca227d9a924d6ecbf5dfebb83d51d7789811fc13469adcdd8a08f7f9b"
      ],
      "sequence": 4294967294
    }
  ],
  "vout": [
    {
      "value": 499984.7465,
      "n": 0,
      "scriptPubKey": {
        "asm": "1 aa5f5649cbc9b8f11033fc8d984b4a5459e50564a2c725f0b43f310b946617bb",
        "hex": "5120aa5f5649cbc9b8f11033fc8d984b4a5459e50564a2c725f0b43f310b946617bb",
        "reqSigs": 1,
        "type": "witness_v1_scripthash",
        "addresses": [
          "3QJmnh"
        ]
      }
    },
    {
      "value": 1.0,
      "n": 1,
      "scriptPubKey": {
        "asm": "OP_RETURN d1fc80482be80aa6c199467ec0662dadb48d281d295ef81632dbf75d78142778 a19cceef77653d72bdcf65715a5055cd20c6104f1a3b6bc5289e1d1da458c1d181bceecf57451d529def45517a7075ed00e6306f3a1b4be508be3d3d8478e1f1e1dc8eaf37257d32fd8f25311a10158d6086500f5a7b2b8568de5d5de4188191c1fcae8f17055d12ddaf05113a3035ad40a6702f7a5b0ba548fe7d7dc438a1b1211c4e6ff7e5bdf23d4fe5f1dad0d54da04690cf9abbeb45a81e9d9d24d84151013c6e4fd7c59dd21d6fc5d1faf0f56d8066b0efba9bcb65883ebdbd04f86171615c0e2fb7a5fdb27d0fa5b19a90950de006d08fdafbab05e85edddd64980111417c2e0f9785dd925d2f8591bab0b52dc026f0affadb8b25c87efdfd44b82131a19cceef77653d72bdcf65715a5055cd20c6104f1a3b6bc5289e1d1da458c1d181bceecf57451d529def45517a7075ed00e6306f3a1b4be508be3d3d8478e1f1e1dc8eaf37257d32fd8f25311a10158d6086500f5a7b2b8568de5d5de4188191c1fcae8f17055d12ddaf05113a3035ad40a6702f7a5b0ba548fe7d7dc438a1b1211c4e6ff7e5bdf23d4fe5f1dad0d54da04690cf9abbeb45a81e9d9d24d84151013c6e4fd7c59dd21d6fc5d1faf0f56d8066b0efba9bcb65883ebdbd04f86171615c0e2fb7a5fdb27d0fa5b19a90950de006d08fdafbab05e85edddd64980111417c2e0f9785dd925d2f8591bab0b52dc026f0affadb8b25c87efdfd44b82131a19cceef77653d72bdcf65715a5055cd20c6104f1a3b6bc5289e1d1da458c1d181bceecf57451d529def45517a7075ed00e6306f3a1b4be508be3d3d8478e1f1e1dc8eaf37257d32fd8f25311a10158d6086500f5a7b2b8568de5d5de4188191c1fcae8f17055d12ddaf05113a3035ad40a6702f7a5b0ba548fe7d7dc438a1b1211c4e6ff7e5bdf23d4fe5f1dad0d54da04690cf9abbeb45a81e9d9d24d84151013c6e4fd7c59dd21d6fc5d1faf0f56d8066b0efba9bcb65883ebdbd04f86171615c0e2fb7a5fdb27d0fa5b19a90950de006d08fdafbab05e85edddd64980111417c2e0f9785dd925d2f8591bab0b52dc026f0affadb8b25c87efdfd44b82131a19cceef77653d72bdcf65715a5055cd20c6104f1a3b6bc5289e1d1da458c1d181bceecf57451d529def45517a7075ed00e6306f3a1b4be508be3d3d8478e1f1e1dc8eaf37257d32fd8f25311a10158d6086500f5a7b2b8568de5d5de4188191c1fcae8f17055d12ddaf05113a3035ad40a6702f7a5b0ba548fe7d7dc438a1b1211c4e6ff7e5bdf23d4fe5f1dad0d54da04690cf9abbeb45a81e9d9d24d84151013c6e4fd7c59dd21d6fc5d1faf0f56d8066b0efba9bcb65883ebdbd04f86171615c0e2fb7a5fdb27d0fa5b19a90950de006d08fdafbab05e85edddd64980111417c2e0f9785dd925d2f8591bab0b52dc026f0affadb8b25c87efdfd44b82131a19cceef77653d72bdcf65715a5055cd20c6104f1a3b6bc5289e1d1da458c1d181bceecf57451d529def45517a7075ed00e6306f3a1b4be508be3d3d8478e1f1e1dc8eaf37257d32fd8f25311a10158d6086500f5a7b2b8568de5d5de4188191c1fcae8f17055d12ddaf05113a3035ad40a6702f7a5b0ba548fe7d7dc438a1b1211c4e6ff7e5bdf23d4fe5f1dad0d54d4109eeaa8d401ab51cd1bdba7f29c263c4e1353320c9c729bdc4384eff60f34c",
        "hex": "6a20d1fc80482be80aa6c199467ec0662dadb48d281d295ef81632dbf75d781427784db004a19cceef77653d72bdcf65715a5055cd20c6104f1a3b6bc5289e1d1da458c1d181bceecf57451d529def45517a7075ed00e6306f3a1b4be508be3d3d8478e1f1e1dc8eaf37257d32fd8f25311a10158d6086500f5a7b2b8568de5d5de4188191c1fcae8f17055d12ddaf05113a3035ad40a6702f7a5b0ba548fe7d7dc438a1b1211c4e6ff7e5bdf23d4fe5f1dad0d54da04690cf9abbeb45a81e9d9d24d84151013c6e4fd7c59dd21d6fc5d1faf0f56d8066b0efba9bcb65883ebdbd04f86171615c0e2fb7a5fdb27d0fa5b19a90950de006d08fdafbab05e85edddd64980111417c2e0f9785dd925d2f8591bab0b52dc026f0affadb8b25c87efdfd44b82131a19cceef77653d72bdcf65715a5055cd20c6104f1a3b6bc5289e1d1da458c1d181bceecf57451d529def45517a7075ed00e6306f3a1b4be508be3d3d8478e1f1e1dc8eaf37257d32fd8f25311a10158d6086500f5a7b2b8568de5d5de4188191c1fcae8f17055d12ddaf05113a3035ad40a6702f7a5b0ba548fe7d7dc438a1b1211c4e6ff7e5bdf23d4fe5f1dad0d54da04690cf9abbeb45a81e9d9d24d84151013c6e4fd7c59dd21d6fc5d1faf0f56d8066b0efba9bcb65883ebdbd04f86171615c0e2fb7a5fdb27d0fa5b19a90950de006d08fdafbab05e85edddd64980111417c2e0f9785dd925d2f8591bab0b52dc026f0affadb8b25c87efdfd44b82131a19cceef77653d72bdcf65715a5055cd20c6104f1a3b6bc5289e1d1da458c1d181bceecf57451d529def45517a7075ed00e6306f3a1b4be508be3d3d8478e1f1e1dc8eaf37257d32fd8f25311a10158d6086500f5a7b2b8568de5d5de4188191c1fcae8f17055d12ddaf05113a3035ad40a6702f7a5b0ba548fe7d7dc438a1b1211c4e6ff7e5bdf23d4fe5f1dad0d54da04690cf9abbeb45a81e9d9d24d84151013c6e4fd7c59dd21d6fc5d1faf0f56d8066b0efba9bcb65883ebdbd04f86171615c0e2fb7a5fdb27d0fa5b19a90950de006d08fdafbab05e85edddd64980111417c2e0f9785dd925d2f8591bab0b52dc026f0affadb8b25c87efdfd44b82131a19cceef77653d72bdcf65715a5055cd20c6104f1a3b6bc5289e1d1da458c1d181bceecf57451d529def45517a7075ed00e6306f3a1b4be508be3d3d8478e1f1e1dc8eaf37257d32fd8f25311a10158d6086500f5a7b2b8568de5d5de4188191c1fcae8f17055d12ddaf05113a3035ad40a6702f7a5b0ba548fe7d7dc438a1b1211c4e6ff7e5bdf23d4fe5f1dad0d54da04690cf9abbeb45a81e9d9d24d84151013c6e4fd7c59dd21d6fc5d1faf0f56d8066b0efba9bcb65883ebdbd04f86171615c0e2fb7a5fdb27d0fa5b19a90950de006d08fdafbab05e85edddd64980111417c2e0f9785dd925d2f8591bab0b52dc026f0affadb8b25c87efdfd44b82131a19cceef77653d72bdcf65715a5055cd20c6104f1a3b6bc5289e1d1da458c1d181bceecf57451d529def45517a7075ed00e6306f3a1b4be508be3d3d8478e1f1e1dc8eaf37257d32fd8f25311a10158d6086500f5a7b2b8568de5d5de4188191c1fcae8f17055d12ddaf05113a3035ad40a6702f7a5b0ba548fe7d7dc438a1b1211c4e6ff7e5bdf23d4fe5f1dad0d54d4109eeaa8d401ab51cd1bdba7f29c263c4e1353320c9c729bdc4384eff60f34c",
        "type": "nulldata"
      }
    }
  ],
  "blockhash": "d7a7b9a6fa9b7eeca4ed3b292cd4c21f070551bfab2aaeca0619c41458c07723",
  "confirmations": 1,
  "time": 1764178593,
  "blocktime": 1764178593
}