{
  "hex": "01000000000101ac2cf62d7ca5c769dc1f7a0de2b524c1f186de68f8636b94087cac35cc4b58df0100000000feffffff0270cc3221792d0000225120e5fe511a11b5503eff68e08d1c0867da80fbfe3ee2c6c57f5a5797aad801f69400e1f50500000000fdd5046a208b7bf9708b60f0e27107cecc33baa68ad0b85d27dd1ac5e9e4f75c71c3e875204db0045f6acb7446828f287fd861250f17c7d671c5fd559ed51b3e3bdbb19fa9f576047f4aeb5466a2af085ff841052f37e7f651e5dd75bef53b1e1bfb91bf89d556241f2a8b3406c2cf683f9821654f5787963185bd15de955b7e7b9bf1dfe9b536443f0aab1426e2ef481fb801456f77a7b611a59d35feb57b5e5bbbd1ffc9951664dfea4bf4c6020fa8ff58e1a58f974756f1457dd51e559bbebb5b311f2975f684ffca6bd4e6222f88df78c185afb76776d1655df53e75bb9e9b7b113f0955d6a49faa0bb486424fe8bf18a1e5cfd70716b1053d955e15dbfefb1b715f6935b6c4bf8a2b94a6626fc89f3881c5eff7273691251db57e35fbdedb3b517f491596e45f6acb7446828f287fd861250f17c7d671c5fd559ed51b3e3bdbb19fa9f576047f4aeb5466a2af085ff841052f37e7f651e5dd75bef53b1e1bfb91bf89d556241f2a8b3406c2cf683f9821654f5787963185bd15de955b7e7b9bf1dfe9b536443f0aab1426e2ef481fb801456f77a7b611a59d35feb57b5e5bbbd1ffc9951664dfea4bf4c6020fa8ff58e1a58f974756f1457dd51e559bbebb5b311f2975f684ffca6bd4e6222f88df78c185afb76776d1655df53e75bb9e9b7b113f0955d6a49faa0bb486424fe8bf18a1e5cfd70716b1053d955e15dbfefb1b715f6935b6c4bf8a2b94a6626fc89f3881c5eff7273691251db57e35fbdedb3b517f491596e45f6acb7446828f287fd861250f17c7d671c5fd559ed51b3e3bdbb19fa9f576047f4aeb5466a2af085ff841052f37e7f651e5dd75bef53b1e1bfb91bf89d556241f2a8b3406c2cf683f9821654f5787963185bd15de955b7e7b9bf1dfe9b536443f0aab1426e2ef481fb801456f77a7b611a59d35feb57b5e5bbbd1ffc9951664dfea4bf4c6020fa8ff58e1a58f974756f1457dd51e559bbebb5b311f2975f684ffca6bd4e6222f88df78c185afb76776d1655df53e75bb9e9b7b113f0955d6a49faa0bb486424fe8bf18a1e5cfd70716b1053d955e15dbfefb1b715f6935b6c4bf8a2b94a6626fc89f3881c5eff7273691251db57e35fbdedb3b517f491596e45f6acb7446828f287fd861250f17c7d671c5fd559ed51b3e3bdbb19fa9f576047f4aeb5466a2af085ff841052f37e7f651e5dd75bef53b1e1bfb91bf89d556241f2a8b3406c2cf683f9821654f5787963185bd15de955b7e7b9bf1dfe9b536443f0aab1426e2ef481fb801456f77a7b611a59d35feb57b5e5bbbd1ffc9951664dfea4bf4c6020fa8ff58e1a58f974756f1457dd51e559bbebb5b311f2975f684ffca6bd4e6222f88df78c185afb76776d1655df53e75bb9e9b7b113f0955d6a49faa0bb486424fe8bf18a1e5cfd70716b1053d955e15dbfefb1b715f6935b6c4bf8a2b94a6626fc89f3881c5eff7273691251db57e35fbdedb3b517f491596e45f6acb7446828f287fd861250f17c7d671c5fd559ed51b3e3bdbb19fa9f576047f4aeb5466a2af085ff841052f37e7f651e5dd75bef53b1e1bfb91bf89d556241f2a8b3406c2cf683f9821654f5787963185bd15de955b7e7b9bf1dfe9b536443f0aab1426e2ef481fb801456f77a7b611a59d35feb57b5e5bbbd1ffc9951664dfea4bf4c6020fa8ff58e1a58f9747569a641f8404ab6c8eba52087779c4aff439f99bd4ca71558ede636bb8c8482c5602fd7509177f6fcdc8149365052b25fc4cd78de385c9f1109ec0a807a863ce1b28afe55dbc2b8dde4356bfd02c136b3d97d652484c9f8d25096130a4993dde0d8775269fcc422a465f668de5f4613309de8a386135f3159abf186a08dec2d9a961b71e139dfd28fefd0cc3f0523cc24f89561a3f9ad98e423909496ebfa9c0f5daf03f9088f2537d2c6fb157d42494e0a5629e5154c02d08f351ae00b0dca2629cc2065d154f7eef473b597d37327ea2b557a3dac47020b982d3a865223ce04ddadff99cd96914c6d0de49c1d2173cc014d276a50f20ed556c5fb2a696300bffcad86e99767d218e119d378a03dc1b61fde81f7a12b5415e61ada38c0b7e74b2edb5bbca8ea5e005d8e78c30b13f6964e6e98e39d02c66b1ca0cc2e5157450fe2c2a90ba2b409759a453a6a9a7363a94cde9c71a43536bf03da85da8a7d007570e88998efd022497a06134a7c3499b3035a7a185444d93dd268790f7117f01e9d08bd88bdfd7f45549e8bafa8a3e5343c0c41fe010663b7841ad0935235edc364c042d11e3a7faa1ca2783be2460bc55f258e7f2aab963fd596581cdc0c869d163df1aa542ac95419e665b42463667025e78cb91b408486fbe8fe4bbc04ce8b6572cc1d3cd33bed99a230623d0bbfa81ea067efeef87385f081bf083a0bae0e5d356373612f3e1e4137e8cff07cd1fc4a3a25ec1c4433de90dbbc761998ed5c85d90a5c307f9978f654b6c03e92eacea88f8493d746b0c87f8d5897a0833e9bce2f514075d8b9b1214df291ee2d6681510120807c5c751ecd3a3ec8a2750c170ab838164abdde70568c120c084df6da18ac7494cff35be7c1084b76262f9a5dc1b0fab95ca2a6f3d64799f9695d8f925bd55a49050fe5673c2c0825cbd8d4d55497d4ac44130f2c213a0b412973bd9ee95b4e5a05f74a0ab1136c7111fba7cc502eaa583833d994e5aa2f063dc81a8a73ef9f8e9d369fdfe2af41b01300af1f68a4d295996ee705b41267d975e02eaed8400e49f88126c89e5324940191f35c66e24f50c0b22f66d9f8f7541ad1d54f594357db98b3b272c853560df21da0666c7de19a1cc28536d7e5c0227ec40bbcc21f14287f83785bb013cbbadb61b5e51eda531d9dd63827f2a8722ed35eca1f6ee6f7fd51ea79e02ec11eee4903428ac27458349e428b6dc8111c8cea44a7bd2a4265163dd82db66b7c3bf8062d9100d113e94f3cfc9afc2762ab49a7d8c867e2ac31f78b7952a0e71a8d8f899241b6db9888a7d9f3754d7727d9ac33033d374de82d5c4655c406b92da60638534a3987e3eb05f49306b222221f282406217cd31823ef5fff2b755a89f4fde8cef34573d0dddebd8a829497e98523785e756ef2e2061ae30e274d742c7b475fd25af2b8f939d2089cee0fc5acecd04e76e9daa2da78015ced3c4029dea45d06d6d7953a6a8cd6564763b16dac80c4e14e8704541fdb93e4553bced54c9b800a69051e67e45d1c916bb7d2e9c72a8192e6053fb4d4ee56183731a135ba7bd560e30de6ce0e27323a6f6102e41fb1aa204a24f6e71f327e0a54feb8b64bed641fe0501b00d446177c77871049097514fc0fef735defdeff26d5671d5e1fbb6dfafc70b6524618843588f93b6af25e32b57667c9bccf40183be4d87cb47643fdeacbd112ca5240eb79fe5938b0765261d81aee81a71fdb4e03fe0e9d19a19b098f03f90d55c7f8a2f5200899d3474b32723fd413b4c17c0358e3f6d4fb6dd8fb0c8724e961f820a347aea3eb894ac11dd49816e1e760083c5130a5840b75e3065b5262efd1b9264796c933d3b64b0b5b36bc5a8c7a6d261e9e55afbbe5629848f6895f44c9cc2d3eb3107c403ce45ea3ab6be129e73f44fa8e5a24a60675fd64be827159140fdc925fc6ffc26c39dc29087a0111b298e32b5987466964824c63ddc0aaa3af61945a5725dd66bbe2470344e92d29dd4f677858f2862f3ccab1c9832c9d0dab338672e2bceb61f83fa64b932cf7664b7b0573c37cbfe5dd4218a9305a3fe3371b3084c13664eca85eaebe843af6a738f22869fd39af0c1d6721ae93bef6d48f8153ada5fac7909bb3389e014d87fd0514add7daf73f221fc32a8024156b589f15d18684270aa96a7038093655db8aac4836211c1a5b26b0cd5a2131590df5dfb14e1b76799b12ea101d525002953dd011591281ff2953fcb19a8a5efbf6aedf39c1c85c0a49a53f95801cce2fa4a0a49548fb29940b3c486e6487a787d93a7ad88ed1c6a40d0a2a5e1123313bc1a26d4406874f2b0599197579910b1a1d850796f08e1554a5f8775b06f11ab34e1b3ce488cc67eaa9aa4db1d29ec0c6bb5b0c66c03c501f58b21809097d17791be6c717670efe2dfba2836df11077a3e742d8f71a25331efd2474d748f8ad262bfdf2d64833fdc6fccdd9a36e04cfce6a5f4d47e5865382c72383673bd5e7e63a33c733d754da98bb9d6911d2a02175a567994c5d711e47ba8c48cbf0c0fb8029682e558ba597982f560888e7abf01276394790587568605231277ca526cd921e79a30fb2a18ff8d3f9c375eb7713a2474e51c7d6ca493f82bf3047842a52ab1fb62bbb16d42a42126733e15e016e5a3c71f0f12bc867106e693b624a126888ec5f12a0fb201f5f52022040aaa9a0c027fd15c83701a97f88304d1477ca0d7aae782a9b735047f42c20d642f2e0245092c35667d4428e8d11871ae9b80282fe1ef23be220cae74c84254f85fd6d3bd31bd5901fd039789e292f93a5a64b7127d412d0ac3532b7856c25b0459cd49962bc9173b7592aee8e92918e844acab5c1e55139b661ee24598be6d94309ac89e846fb2d68d28e254c7c8dee14a9f0f5d1a411aadc1723bc36a3704592bb04a7e7a2ab5632ad24e9df7eb27c2f9d3fd8be996e3abc732d5480c758335529b006691728fdbfe156e3d711bc111ad0c0dd79f677c01b027532efaf7abcf15be268c12f69ff223ef20303bfa88d4e4ea7c7292c1202edec1012ef3ae419334ee4a9021baa5df80588ba7773d24dcf8d1dc9c2fcd3a0b12facd8d437d4da386777f8e1fddd68c6c6c03017bf74e27694fcec17dcfc77ad86020e6080b634b436eeba1b131dff6054922e8337560ca0555be539fe562ca18e63f6da97b05fdaed54692f865781d37118492ac59fb40c8898924f5e1d54bcf4d2d6c5bd6ec8b857e6b6a98bbbf5a7472e50ddf1b1737a7b0ea79812b1f7174d76e9ea457174626c28439fa53c70ecf50cd4cf84108aa001fda765fd93ad6eb5c3d724d6efd89ae7a457677c224d7558b670f1f2f3f415d6371afb6d3e10b0d13313e414c565a626a73787b818a96a4a9c3cddceef8fcfd1b414b535c64738c959eacb0b3cefc404a545c686a6c77797f8a8e8f98a5b2d0d1e3fc000000000000000c26354901fd2105001d59ad12f63bde8c25efab68eee673a76f4b629743b02fbcb2adfe0cc1997c12ef385e78f210607160b382528d91640ec9e585e69e72716f481bc39a86261d2dacaac661250284991e7e0f7b543f4b582d4baaa1bad232efec25457ce64d9cac126ff0b930cbb9845bf0be445fa2e9a25c015516777aa7edb8db112fbc16b64a7c0842365d4077ea00f81b589890eaa225b7c97962b7c200646d9d7a53811474b4782c6492db50b5e66d824a09915541396e52f1387c833a490e5860b2ead46de1c94f15f60bd88250236dfd1083a03811979ae80c7b49c1213481b0da5acc96ab7a391a884689f3a6f1d612ee9ad34fc0687c91535403baf887dda94d26b8ab002b561887134f158035d88d2c9c75be552598092db75a61b470391fa13ae03c40d9ffdbe18a99550ef5a853f40b1b2c20fe6b5e6994b34f96cd295796ef87d0530ba7fb53e35507822e717d463203967d181222b620b35816cf70b0a5cce8e8450b5a2fd4ca4caeb93fd7605e3b496466019019e21c2cc854d0b2a51f717c949fe868be33fba4d09597f66820509b941c694459ead7ef9abbf98b985190046504a84149d9ef70d8eaba3a4bb891ca5e2f06144ac9967fc41f91768b0bc983cd7c18f334e1314de21ca88e635b6abfb2152e924aa2ffbf8fc9fb5bcf8d1120c53ba00ad274dd8b8b451e2828220655f22bd0d9248119ad73a96bc9d31afea57fc5287b08d9c168e5387a2d9dfcdb4f50580772262acbfa08338c09180afb54b330a5871a7946e01d1a1e74192965bb8947b3524fc688549e3a0a1c8366f3da88cf92c9c2088c6db84058366c22f75d093376fe4760dda75d1d536b5639f59c254b4765b2a8b193b7538a51f3d7f5f6d15ccfd4f1c2cb9219393eebdc842e223716398a86a64fae7e32fd7b37f44a56fba5b538f729ec9c8f870bab8a26242224c1d6748094dff658679cacafb50f408b2ef2476407f44acfcb559b31f761984672ea94eb934cd65ad24e3a7fbc913c62b6e02e40c9962359dd3c5c5c7b972b9c9e07b9ee43ad1bced8c5f2c7003728326b40e68e8cc3a2a5503f34ba0243321ce1ddb645bf3b5b09809be1ab5168059f195bc30cc338ef6c125833d9190bebedd1c15e76f4d4ef3f552163047a3a4cc847ca838a18cf52d7fb377b1f8c8ab56ec977d6f84c1fd9eaaaec58b91be02042c3a0d86f6d31e110b3db32b60d2831c1fe7566785330ab6a78061ce9ffd8f297a03e092577db254e784a493b5cbfe7071da3be9cb8e644afd5abc4f0892da3ca05c7f509280678b1fd286f0ad8a187435614cc93f3ac5b1d5f30543555095c7356d3c934a10eb082054224c3934458fbdb3b0a640f9b2dc04a67a28103636f3990e51d162096a1b41191c2e7d754bf660313dac13b09e1f1b9f0a6a0eca365a20a06879c69dbd0c5015d9eea7394264647e9b58f46b85fc70482c375ff814886bb252e771b759ae43c76e71567cc2a907644f2989d58e885ab96247f2dc58a7a70d981fd55871377df77180013224c18b71053d48e1b202888cbb9d296d301fbbcfc2f48c0c835be834ac83fd2d58c73d095acfdb3736d7e70d373bf0d3e6ad3dae2d44daa13b957899cfd8011fbb6c5b052cef502bb11775617a2f1817c5f89f66cfaa6efcf4034020909c9e1ac837e8259d5e1f8d99150850ec48d0d419a1f7b14df881b1af9b78e8fc736b7a37213b329f0bfe582adda6e45887bb6b182fd5c0eb2e7862eceff84614005e7256e2675f03965d45e3650dceb55f18b089f1c8586937cebe85dcab2c50964e9a5461e1054fde15511443baf179053e3d683eeb04bc689e9a252ee81efad4fb73fdcbc86000000",
  "txid": "9ec613f05c80594a397e72d21a555bc8c7b6fa1a94ef5d6f686a10b24051428f",
  "hash": "74fcba0fdf7090c284fe5fb015c586239370c0acad71af941e20eae9a78d8f0c",
  "size": 5085,
  "vsize": 2278,
  "version": 1,
  "locktime": 134,
  "vin": [
    {
      "txid": "df584bcc35ac7c08946b63f868de86f1c124b5e20d7a1fdc69c7a57c2df62cac",
      "vout": 1,
      "scriptSig": {
        "asm": "",
        "hex": ""
      },
      "txinwitness": [
        "177f6fcdc8149365052b25fc4cd78de385c9f1109ec0a807a863ce1b28afe55dbc2b8dde4356bfd02c136b3d97d652484c9f8d25096130a4993dde0d8775269fcc422a465f668de5f4613309de8a386135f3159abf186a08dec2d9a961b71e139dfd28fefd0cc3f0523cc24f89561a3f9ad98e423909496ebfa9c0f5daf03f9088f2537d2c6fb157d42494e0a5629e5154c02d08f351ae00b0dca2629cc2065d154f7eef473b597d37327ea2b557a3dac47020b982d3a865223ce04ddadff99cd96914c6d0de49c1d2173cc014d276a50f20ed556c5fb2a696300bffcad86e99767d218e119d378a03dc1b61fde81f7a12b5415e61ada38c0b7e74b2edb5bbca8ea5e005d8e78c30b13f6964e6e98e39d02c66b1ca0cc2e5157450fe2c2a90ba2b409759a453a6a9a7363a94cde9c71a43536bf03da85da8a7d007570e88998efd022497a06134a7c3499b3035a7a185444d93dd268790f7117f01e9d08bd88bdfd7f45549e8bafa8a3e5343c0c41fe010663b7841ad0935235edc364c042d11e3a7faa1ca2783be2460bc55f258e7f2aab963fd596581cdc0c869d163df1aa542ac95419e665b42463667025e78cb91b408486fbe8fe4bbc04ce8b6572cc1d3cd33bed99a230623d0bbfa81ea067efeef87385f081bf083a0bae0e5d356373612f3e1e4137e8cff07cd1fc4a3a25ec1c4433de90dbbc761998ed5c85d90a5c307f9978f654b6c03e92eacea88f8493d746b0c87f8d5897a0833e9bce2f514075d8b9b1214df291ee2d6681510120807c5c751ecd3a3ec8a2750c170ab838164abdde70568c120c084df6da18ac7494cff35be7c1084b76262f9a5dc1b0fab95ca2a6f3d64799f9695d8f925bd55a49050fe5673c2c0825cbd8d4d55497d4ac44130f2c213a0b412973bd9ee95b4e5a05f74a0ab1136c7111fba7cc502eaa583833d994e5aa2f063dc81a8a73ef9f8e9d369fdfe2af41b01300af1f68a4d295996ee705b41267d975e02eaed8400e49f88126c89e5324940191f35c66e24f50c0b22f66d9f8f7541ad1d54f594357db98b3b272c853560df21da0666c7de19a1cc28536d7e5c0227ec40bbcc21f14287f83785bb013cbbadb61b5e51eda531d9dd63827f2a8722ed35eca1f6ee6f7fd51ea79e02ec11eee4903428ac27458349e428b6dc8111c8cea44a7bd2a4265163dd82db66b7c3bf8062d9100d113e94f3cfc9afc2762ab49a7d8c867e2ac31f78b7952a0e71a8d8f899241b6db9888a7d9f3754d7727d9ac33033d374de82d5c4655c406b92da60638534a3987e3eb05f49306b222221f282406217cd31823ef5fff2b755a89f4fde8cef34573d0dddebd8a829497e98523785e756ef2e2061ae30e274d742c7b475fd25af2b8f939d2089cee0fc5acecd04e76e9daa2da78015ced3c4029dea45d06d6d7953a6a8cd6564763b16dac80c4e14e8704541fdb93e4553bced54c9b800a69051e67e45d1c916bb7d2e9c72a8192e6053fb4d4ee56183731a135ba7bd560e30de6ce0e27323a6f6102e41fb1aa204a24f6e71f327e0a54feb8b64bed641fe0501b00d446177c77871049097514fc0fef735defdeff26d5671d5e1fbb6dfafc70b6524618843588f93b6af25e32b57667c9bccf40183be4d87cb47643fdeacbd112ca5240eb79fe5938b0765261d81aee81a71fdb4e03fe0e9d19a19b098f03f90d55c7f8a2f5200899d3474b32723fd413b4c17c0358e3f6d4fb6dd8fb0c8724e961f820a347aea3eb894ac11dd49816e1e760083c5130a5840b75e3065b5262efd1b9264796c933d3b64b0b5b36bc5a8c7a6d261e9e55afbbe5629848f6895f44c9cc2d3eb3107c403ce45ea3ab6be129e73f44fa8e5a24a60675fd64be827159140fdc925fc6ffc26c39dc29087a0111b298e32b5987466964824c63ddc0aaa3af61945a5725dd66bbe2470344e92d29dd4f677858f2862f3ccab1c9832c9d0dab338672e2bceb61f83fa64b932cf7664b7b0573c37cbfe5dd4218a9305a3fe3371b3084c13664eca85eaebe843af6a738f22869fd39af0c1d6721ae93bef6d48f8153ada5fac7909bb3389e014d87fd0514add7daf73f221fc32a8024156b589f15d18684270aa96a7038093655db8aac4836211c1a5b26b0cd5a2131590df5dfb14e1b76799b12ea101d525002953dd011591281ff2953fcb19a8a5efbf6aedf39c1c85c0a49a53f95801cce2fa4a0a49548fb29940b3c486e6487a787d93a7ad88ed1c6a40d0a2a5e1123313bc1a26d4406874f2b0599197579910b1a1d850796f08e1554a5f8775b06f11ab34e1b3ce488cc67eaa9aa4db1d29ec0c6bb5b0c66c03c501f58b21809097d17791be6c717670efe2dfba2836df11077a3e742d8f71a25331efd2474d748f8ad262bfdf2d64833fdc6fccdd9a36e04cfce6a5f4d47e5865382c72383673bd5e7e63a33c733d754da98bb9d6911d2a02175a567994c5d711e47ba8c48cbf0c0fb8029682e558ba597982f560888e7abf01276394790587568605231277ca526cd921e79a30fb2a18ff8d3f9c375eb7713a2474e51c7d6ca493f82bf3047842a52ab1fb62bbb16d42a42126733e15e016e5a3c71f0f12bc867106e693b624a126888ec5f12a0fb201f5f52022040aaa9a0c027fd15c83701a97f88304d1477ca0d7aae782a9b735047f42c20d642f2e0245092c35667d4428e8d11871ae9b80282fe1ef23be220cae74c84254f85fd6d3bd31bd5901fd039789e292f93a5a64b7127d412d0ac3532b7856c25b0459cd49962bc9173b7592aee8e92918e844acab5c1e55139b661ee24598be6d94309ac89e846fb2d68d28e254c7c8dee14a9f0f5d1a411aadc1723bc36a3704592bb04a7e7a2ab5632ad24e9df7eb27c2f9d3fd8be996e3abc732d5480c758335529b006691728fdbfe156e3d711bc111ad0c0dd79f677c01b027532efaf7abcf15be268c12f69ff223ef20303bfa88d4e4ea7c7292c1202edec1012ef3ae419334ee4a9021baa5df80588ba7773d24dcf8d1dc9c2fcd3a0b12facd8d437d4da386777f8e1fddd68c6c6c03017bf74e27694fcec17dcfc77ad86020e6080b634b436eeba1b131dff6054922e8337560ca0555be539fe562ca18e63f6da97b05fdaed54692f865781d37118492ac59fb40c8898924f5e1d54bcf4d2d6c5bd6ec8b857e6b6a98bbbf5a7472e50ddf1b1737a7b0ea79812b1f7174d76e9ea457174626c28439fa53c70ecf50cd4cf84108aa001fda765fd93ad6eb5c3d724d6efd89ae7a457677c224d7558b670f1f2f3f415d6371afb6d3e10b0d13313e414c565a626a73787b818a96a4a9c3cddceef8fcfd1b414b535c64738c959eacb0b3cefc404a545c686a6c77797f8a8e8f98a5b2d0d1e3fc000000000000000c26354901",
        "001d59ad12f63bde8c25efab68eee673a76f4b629743b02fbcb2adfe0cc1997c12ef385e78f210607160b382528d91640ec9e585e69e72716f481bc39a86261d2dacaac661250284991e7e0f7b543f4b582d4baaa1bad232efec25457ce64d9cac126ff0b930cbb9845bf0be445fa2e9a25c015516777aa7edb8db112fbc16b64a7c0842365d4077ea00f81b589890eaa225b7c97962b7c200646d9d7a53811474b4782c6492db50b5e66d824a09915541396e52f1387c833a490e5860b2ead46de1c94f15f60bd88250236dfd1083a03811979ae80c7b49c1213481b0da5acc96ab7a391a884689f3a6f1d612ee9ad34fc0687c91535403baf887dda94d26b8ab002b561887134f158035d88d2c9c75be552598092db75a61b470391fa13ae03c40d9ffdbe18a99550ef5a853f40b1b2c20fe6b5e6994b34f96cd295796ef87d0530ba7fb53e35507822e717d463203967d181222b620b35816cf70b0a5cce8e8450b5a2fd4ca4caeb93fd7605e3b496466019019e21c2cc854d0b2a51f717c949fe868be33fba4d09597f66820509b941c694459ead7ef9abbf98b985190046504a84149d9ef70d8eaba3a4bb891ca5e2f06144ac9967fc41f91768b0bc983cd7c18f334e1314de21ca88e635b6abfb2152e924aa2ffbf8fc9fb5bcf8d1120c53ba00ad274dd8b8b451e2828220655f22bd0d9248119ad73a96bc9d31afea57fc5287b08d9c168e5387a2d9dfcdb4f50580772262acbfa08338c09180afb54b330a5871a7946e01d1a1e74192965bb8947b3524fc688549e3a0a1c8366f3da88cf92c9c2088c6db84058366c22f75d093376fe4760dda75d1d536b5639f59c254b4765b2a8b193b7538a51f3d7f5f6d15ccfd4f1c2cb9219393eebdc842e223716398a86a64fae7e32fd7b37f44a56fba5b538f729ec9c8f870bab8a26242224c1d6748094dff658679cacafb50f408b2ef2476407f44acfcb559b31f761984672ea94eb934cd65ad24e3a7fbc913c62b6e02e40c9962359dd3c5c5c7b972b9c9e07b9ee43ad1bced8c5f2c7003728326b40e68e8cc3a2a5503f34ba0243321ce1ddb645bf3b5b09809be1ab5168059f195bc30cc338ef6c125833d9190bebedd1c15e76f4d4ef3f552163047a3a4cc847ca838a18cf52d7fb377b1f8c8ab56ec977d6f84c1fd9eaaaec58b91be02042c3a0d86f6d31e110b3db32b60d2831c1fe7566785330ab6a78061ce9ffd8f297a03e092577db254e784a493b5cbfe7071da3be9cb8e644afd5abc4f0892da3ca05c7f509280678b1fd286f0ad8a187435614cc93f3ac5b1d5f30543555095c7356d3c934a10eb082054224c3934458fbdb3b0a640f9b2dc04a67a28103636f3990e51d162096a1b41191c2e7d754bf660313dac13b09e1f1b9f0a6a0eca365a20a06879c69dbd0c5015d9eea7394264647e9b58f46b85fc70482c375ff814886bb252e771b759ae43c76e71567cc2a907644f2989d58e885ab96247f2dc58a7a70d981fd55871377df77180013224c18b71053d48e1b202888cbb9d296d301fbbcfc2f48c0c835be834ac83fd2d58c73d095acfdb3736d7e70d373bf0d3e6ad3dae2d44daa13b957899cfd8011fbb6c5b052cef502bb11775617a2f1817c5f89f66cfaa6efcf4034020909c9e1ac837e8259d5e1f8d99150850ec48d0d419a1f7b14df881b1af9b78e8fc736b7a37213b329f0bfe582adda6e45887bb6b182fd5c0eb2e7862eceff84614005e7256e2675f03965d45e3650dceb55f18b089f1c8586937cebe85dcab2c50964e9a5461e1054fde15511443baf179053e3d683eeb04bc689e9a252ee81efad4fb73fdcbc"
      ],
      "sequence": 4294967294
    }
  ],
  "vout": [
    {
      "value": 499982.7127,
      "n": 0,
      "scriptPubKey": {
        "asm": "1 e5fe511a11b5503eff68e08d1c0867da80fbfe3ee2c6c57f5a5797aad801f694",
        "hex": "5120e5fe511a11b5503eff68e08d1c0867da80fbfe3ee2c6c57f5a5797aad801f694",
        "reqSigs": 1,
        "type": "witness_v1_scripthash",
        "addresses": [
          "3QJmnh"
        ]
      }
    },
    {
      "value": 1.0,
      "n": 1,
      "scriptPubKey": {
        "asm": "OP_RETURN 8b7bf9708b60f0e27107cecc33baa68ad0b85d27dd1ac5e9e4f75c71c3e87520 5f6acb7446828f287fd861250f17c7d671c5fd559ed51b3e3bdbb19fa9f576047f4aeb5466a2af085ff841052f37e7f651e5dd75bef53b1e1bfb91bf89d556241f2a8b3406c2cf683f9821654f5787963185bd15de955b7e7b9bf1dfe9b536443f0aab1426e2ef481fb801456f77a7b611a59d35feb57b5e5bbbd1ffc9951664dfea4bf4c6020fa8ff58e1a58f974756f1457dd51e559bbebb5b311f2975f684ffca6bd4e6222f88df78c185afb76776d1655df53e75bb9e9b7b113f0955d6a49faa0bb486424fe8bf18a1e5cfd70716b1053d955e15dbfefb1b715f6935b6c4bf8a2b94a6626fc89f3881c5eff7273691251db57e35fbdedb3b517f491596e45f6acb7446828f287fd861250f17c7d671c5fd559ed51b3e3bdbb19fa9f576047f4aeb5466a2af085ff841052f37e7f651e5dd75bef53b1e1bfb91bf89d556241f2a8b3406c2cf683f9821654f5787963185bd15de955b7e7b9bf1dfe9b536443f0aab1426e2ef481fb801456f77a7b611a59d35feb57b5e5bbbd1ffc9951664dfea4bf4c6020fa8ff58e1a58f974756f1457dd51e559bbebb5b311f2975f684ffca6bd4e6222f88df78c185afb76776d1655df53e75bb9e9b7b113f0955d6a49faa0bb486424fe8bf18a1e5cfd70716b1053d955e15dbfefb1b715f6935b6c4bf8a2b94a6626fc89f3881c5eff7273691251db57e35fbdedb3b517f491596e45f6acb7446828f287fd861250f17c7d671c5fd559ed51b3e3bdbb19fa9f576047f4aeb5466a2af085ff841052f37e7f651e5dd75bef53b1e1bfb91bf89d556241f2a8b3406c2cf683f9821654f5787963185bd15de955b7e7b9bf1dfe9b536443f0aab1426e2ef481fb801456f77a7b611a59d35feb57b5e5bbbd1ffc9951664dfea4bf4c6020fa8ff58e1a58f974756f1457dd51e559bbebb5b311f2975f684ffca6bd4e6222f88df78c185afb76776d1655df53e75bb9e9b7b113f0955d6a49faa0bb486424fe8bf18a1e5cfd70716b1053d955e15dbfefb1b715f6935b6c4bf8a2b94a6626fc89f3881c5eff7273691251db57e35fbdedb3b517f491596e45f6acb7446828f287fd861250f17c7d671c5fd559ed51b3e3bdbb19fa9f576047f4aeb5466a2af085ff841052f37e7f651e5dd75bef53b1e1bfb91bf89d556241f2a8b3406c2cf683f9821654f5787963185bd15de955b7e7b9bf1dfe9b536443f0aab1426e2ef481fb801456f77a7b611a59d35feb57b5e5bbbd1ffc9951664dfea4bf4c6020fa8ff58e1a58f974756f1457dd51e559bbebb5b311f2975f684ffca6bd4e6222f88df78c185afb76776d1655df53e75bb9e9b7b113f0955d6a49faa0bb486424fe8bf18a1e5cfd70716b1053d955e15dbfefb1b715f6935b6c4bf8a2b94a6626fc89f3881c5eff7273691251db57e35fbdedb3b517f491596e45f6acb7446828f287fd861250f17c7d671c5fd559ed51b3e3bdbb19fa9f576047f4aeb5466a2af085ff841052f37e7f651e5dd75bef53b1e1bfb91bf89d556241f2a8b3406c2cf683f9821654f5787963185bd15de955b7e7b9bf1dfe9b536443f0aab1426e2ef481fb801456f77a7b611a59d35feb57b5e5bbbd1ffc9951664dfea4bf4c6020fa8ff58e1a58f9747569a641f8404ab6c8eba52087779c4aff439f99bd4ca71558ede636bb8c8482c56",
        "hex": "6a208b7bf9708b60f0e27107cecc33baa68ad0b85d27dd1ac5e9e4f75c71c3e875204db0045f6acb7446828f287fd861250f17c7d671c5fd559ed51b3e3bdbb19fa9f576047f4aeb5466a2af085ff841052f37e7f651e5dd75bef53b1e1bfb91bf89d556241f2a8b3406c2cf683f9821654f5787963185bd15de955b7e7b9bf1dfe9b536443f0aab1426e2ef481fb801456f77a7b611a59d35feb57b5e5bbbd1ffc9951664dfea4bf4c6020fa8ff58e1a58f974756f1457dd51e559bbebb5b311f2975f684ffca6bd4e6222f88df78c185afb76776d1655df53e75bb9e9b7b113f0955d6a49faa0bb486424fe8bf18a1e5cfd70716b1053d955e15dbfefb1b715f6935b6c4bf8a2b94a6626fc89f3881c5eff7273691251db57e35fbdedb3b517f491596e45f6acb7446828f287fd861250f17c7d671c5fd559ed51b3e3bdbb19fa9f576047f4aeb5466a2af085ff841052f37e7f651e5dd75bef53b1e1bfb91bf89d556241f2a8b3406c2cf683f9821654f5787963185bd15de955b7e7b9bf1dfe9b536443f0aab1426e2ef481fb801456f77a7b611a59d35feb57b5e5bbbd1ffc9951664dfea4bf4c6020fa8ff58e1a58f974756f1457dd51e559bbebb5b311f2975f684ffca6bd4e6222f88df78c185afb76776d1655df53e75bb9e9b7b113f0955d6a49faa0bb486424fe8bf18a1e5cfd70716b1053d955e15dbfefb1b715f6935b6c4bf8a2b94a6626fc89f3881c5eff7273691251db57e35fbdedb3b517f491596e45f6acb7446828f287fd861250f17c7d671c5fd559ed51b3e3bdbb19fa9f576047f4aeb5466a2af085ff841052f37e7f651e5dd75bef53b1e1bfb91bf89d556241f2a8b3406c2cf683f9821654f5787963185bd15de955b7e7b9bf1dfe9b536443f0aab1426e2ef481fb801456f77a7b611a59d35feb57b5e5bbbd1ffc9951664dfea4bf4c6020fa8ff58e1a58f974756f1457dd51e559bbebb5b311f2975f684ffca6bd4e6222f88df78c185afb76776d1655df53e75bb9e9b7b113f0955d6a49faa0bb486424fe8bf18a1e5cfd70716b1053d955e15dbfefb1b715f6935b6c4bf8a2b94a6626fc89f3881c5eff7273691251db57e35fbdedb3b517f491596e45f6acb7446828f287fd861250f17c7d671c5fd559ed51b3e3bdbb19fa9f576047f4aeb5466a2af085ff841052f37e7f651e5dd75bef53b1e1bfb91bf89d556241f2a8b3406c2cf683f9821654f5787963185bd15de955b7e7b9bf1dfe9b536443f0aab1426e2ef481fb801456f77a7b611a59d35feb57b5e5bbbd1ffc9951664dfea4bf4c6020fa8ff58e1a58f974756f1457dd51e559bbebb5b311f2975f684ffca6bd4e6222f88df78c185afb76776d1655df53e75bb9e9b7b113f0955d6a49faa0bb486424fe8bf18a1e5cfd70716b1053d955e15dbfefb1b715f6935b6c4bf8a2b94a6626fc89f3881c5eff7273691251db57e35fbdedb3b517f491596e45f6acb7446828f287fd861250f17c7d671c5fd559ed51b3e3bdbb19fa9f576047f4aeb5466a2af085ff841052f37e7f651e5dd75bef53b1e1bfb91bf89d556241f2a8b3406c2cf683f9821654f5787963185bd15de955b7e7b9bf1dfe9b536443f0aab1426e2ef481fb801456f77a7b611a59d35feb57b5e5bbbd1ffc9951664dfea4bf4c6020fa8ff58e1a58f9747569a641f8404ab6c8eba52087779c4aff439f99bd4ca71558ede636bb8c8482c56",
        "type": "nulldata"
      }
    }
  ],
  "blockhash": "74cd48d8c624c37e1fac27c00c19e94c48df61d3ca85b84b56360e4f6170fa6f",
  "confirmations": 1,
  "time": 1764182926,
  "blocktime": 1764182926
}