{
  "hex": "01000000000101f1d4dbf4e5b89cfae2adab2e8c15159f0be81abb6a766a1c658f06e03985b5810100000000feffffff0200e1f50500000000fdd5046a20fb814a33bdc4f7522d4bafbcfb9fb720b49cab82f59357ec5dab0eca08f7ce254db0047641fd4235f0789f241dfc309cbb4f9258abbae898cdde2e712c37a4de8f8a9f5661dd6215d058bf043ddc10bc9b6fb2788b9ac8b8edfe0e510c1784feafaabf3601bd0275b038df645dbc70dcfb0fd218ebfaa8d88d9e6e316c77e49ecfcadf16219d22559018ff447d9c50fcdb2ff238cbda88f8adbe4e114c57c4beefeafff6c17dc2b570f81fa49d7cb01c3bcf12d82b3a68184d5eaef1acb7245e0f0a1fd6e15de29550d83f84bd5c903c1bef32f80b1a48386d7e8ed18c97047e2f2a3fb6813d82f530b85fe4dd3cf05c7b8f52986b7a28580d1eeeb1ecf7641e4f4a5f96a11da2d510987fc4fd1cd07c5baf72b84b5a08782d3ece91ccd7443e6f6a7f7641fd4235f0789f241dfc309cbb4f9258abbae898cdde2e712c37a4de8f8a9f5661dd6215d058bf043ddc10bc9b6fb2788b9ac8b8edfe0e510c1784feafaabf3601bd0275b038df645dbc70dcfb0fd218ebfaa8d88d9e6e316c77e49ecfcadf16219d22559018ff447d9c50fcdb2ff238cbda88f8adbe4e114c57c4beefeafff6c17dc2b570f81fa49d7cb01c3bcf12d82b3a68184d5eaef1acb7245e0f0a1fd6e15de29550d83f84bd5c903c1bef32f80b1a48386d7e8ed18c97047e2f2a3fb6813d82f530b85fe4dd3cf05c7b8f52986b7a28580d1eeeb1ecf7641e4f4a5f96a11da2d510987fc4fd1cd07c5baf72b84b5a08782d3ece91ccd7443e6f6a7f7641fd4235f0789f241dfc309cbb4f9258abbae898cdde2e712c37a4de8f8a9f5661dd6215d058bf043ddc10bc9b6fb2788b9ac8b8edfe0e510c1784feafaabf3601bd0275b038df645dbc70dcfb0fd218ebfaa8d88d9e6e316c77e49ecfcadf16219d22559018ff447d9c50fcdb2ff238cbda88f8adbe4e114c57c4beefeafff6c17dc2b570f81fa49d7cb01c3bcf12d82b3a68184d5eaef1acb7245e0f0a1fd6e15de29550d83f84bd5c903c1bef32f80b1a48386d7e8ed18c97047e2f2a3fb6813d82f530b85fe4dd3cf05c7b8f52986b7a28580d1eeeb1ecf7641e4f4a5f96a11da2d510987fc4fd1cd07c5baf72b84b5a08782d3ece91ccd7443e6f6a7f7641fd4235f0789f241dfc309cbb4f9258abbae898cdde2e712c37a4de8f8a9f5661dd6215d058bf043ddc10bc9b6fb2788b9ac8b8edfe0e510c1784feafaabf3601bd0275b038df645dbc70dcfb0fd218ebfaa8d88d9e6e316c77e49ecfcadf16219d22559018ff447d9c50fcdb2ff238cbda88f8adbe4e114c57c4beefeafff6c17dc2b570f81fa49d7cb01c3bcf12d82b3a68184d5eaef1acb7245e0f0a1fd6e15de29550d83f84bd5c903c1bef32f80b1a48386d7e8ed18c97047e2f2a3fb6813d82f530b85fe4dd3cf05c7b8f52986b7a28580d1eeeb1ecf7641e4f4a5f96a11da2d510987fc4fd1cd07c5baf72b84b5a08782d3ece91ccd7443e6f6a7f7641fd4235f0789f241dfc309cbb4f9258abbae898cdde2e712c37a4de8f8a9f5661dd6215d058bf043ddc10bc9b6fb2788b9ac8b8edfe0e510c1784feafaabf3601bd0275b038df645dbc70dcfb0fd218ebfaa8d88d9e6e316c77e49ecfcadf16219d22559018ff447d9c50fcdb2ff238cbda88f8adbe4e114c57c4beefeafff6c17dc2b570f81fa49d7cb01c3bcf12a1839f9bfaa690387f852d503a6ec8f95d831e8675c8e5851c4ee21cb07a518950771315792d0000225120c8f80d584cd6aeebf976f0acdeb374dd7cb122c27dc474d97dbecf00969206c502fd75090dcb6715cbe0b4896b05228a36d7b6ca929f437e016a5963f33e357e1d2edf98c9588f932a5bc293620514a518b2aa38555d00f8569f384ad774de40a11728307b6a574431bdd27e87a616838bae1d21def4398d01bc17db7696654cc13e8ab5953777d2a738c790fdf614ebd814581f9f7854b8deecc9dc8b7cc8f72b967dd1a43f74079506f781b27a84ea646b3f0578b171cebc3d0f3d0cb659205a8d006732f59d2b83198f3c040d9668b7c1935d7f2350a393b8a9ab1e455df710e4b54ba005fb576813ef1a7398a5c9114331277723f51671535550b1cf7428c787a71f96462ddef05074b6e0d9c8f3803528912ff47738d73377523ece27b70b48b4713eeef619d1189c723a9391ac1901a86903ad5daaafab860d19e02c2150c04acf9dd2fb8f629805c25f4727895c25b58061d2b557a718ced9f9c8324db25a601d57e42583e1ce67790ea16540452815950d057ad14704715dd70097d97088ad46eecb9ffb8b5836e1476d32541b613daff81bd1f0a23c38ecf6aaeadf4856c525346604281aace48d977d3ab1497135433c59a2376e02104c083ed1c3d65280dc303b4b3aeed559a34b77fd7904c05300021bdd57728e9257b0fe55b37ce7b4d9ff2b735e1c874dca24f5f32ce6341113712768422eb7a374292581291073e69392ecd5be9e4cea8af01f96b825b7724dc9d152cfce63c83a28b3205a1411bbce145fb372d6d81db424b0de60718109eaef04402510d98c8b4d620f7fe99e58f2690fb730ee628233da156eb7b32ac41ef2b193e1472f5b7b6419736f568fe8cbbef714b9742bc27cf65a2a75aa76bf9b91f5dab8f134da019a5603df560a2da8ed2135e48b04aa2e0aa59959a955b240f628cb66d3687f10c45c066df0910155dfeae0adf5a552ca2d1fcd2113fa53797e8c1bababb2023133ea1ccd5f65f6ddb223862eafd3d9fb49a5a6b92df09452e5e86b6d34571a32fe2e2ee57d711da591354e92b0da1013759ea73daf3af3f0e929b338b6526ec18c3e3894e4996a68a5969e3afdab3c0c4ebd4afd02579113a241bb7f411d93888acc9f633da3afdbfedde2c14f417523c517451996bd5b7832cb1efc314e03fd3fadb6dc2915f36084a1430dae614e8072af0aa47e9d4a423ef7accbe30414d2ab2ef8a4dfe2bd6b6b33bee322479be6014918170dfac2b000afb57b0e70af8f50ecdfec68655ce10e20a7856523bfc73dabb9215060801ff19b3a484df71f3eed4869e7f7fdbf1355a6beeb691e5418a7d234a04783bf3460ad8953a9f4c8efa16a07f01a8187382eab545b3fa1cc4139ab493e71b5569c5de24435e20551c2f30e9a943133b37c522e5ac504d4260f6ead73d0c341957bb751f8a78c7a10d68b8419a384b13e59a20565fea3886ec8b163397b55deb0866f2079f59030623ed956661891ecae30a4474f0eb274fea65d572c5922dd0d6f770d0314385a9da1d361bdcb6b53f1d408d6a5ecc427749d651f64babdb531ff42f76f236e953829cd9b1c09b5ddc466271b451c32b51d44e444b5375260f69da0f18a4bd14f0f9f0b5c92027ff86f7cd61c9d21c294a0421b411f6838f08883ecd4e6cf66e713030506ad2eecb638a036a11b896baa621a28cb3ff2676e799a1913066b4f048dda576f5826bf2673dc8ec35b52957ee30ce73632f365bb7aa67aea18693df26f94f0773fa4eb20e985ac36aa792a4946ff55f57da37ed5b956aa76396c4f5ba1f1495fdc19cbf90806a2c5557e62b558e3e84259f977dd7fa199f42252abd668d94053d408bd9b5e241fb47511708017e83a738961ca1c1ce2011dfe52ce6e066379f49c2bd5e46ab09a940d18e374135c2865bb41c8ead6b81a3c3efa161797e46a74229c9e17789e1d40409f22ea6a1e95fe1c6872310ce985f301085bb1d093a476430c7c39d98d5f28132707ba6173fbc769d4f929a2c84745e4c334f127c68352949a59c472e3245c5e178979d2cb39d5a840add1a2aa8fe04c53f1984cc68d42dda673a9e806bf9f488c6983b7ce2da4bf03b7b9cb5bc5058adfef0d0ae53608ee494da0628a7dc17921d743e5334aeba3b84363e9ace12658f617066aa653172ff9a642a425d6b356817777fbdb0b3ca1a7e0815247ac831f2aaf1e2a0e4fc095e945f073e458ccc27096f7430b35917c5d05de71be2181b242a8fa80745e852cf74b8455ac350341b143e35a139e27577c1fb015db34baee25680ea388be4b53c301719331617a036a15df4296634db2a39a92a1c50339cc632d6c06115cca3cd22eb2eba7c894a95072c594e1f89b658eaeb8c9d467789b655b998643e3894e807436a14c3186cd2998367a04bbc02d304736d6d0f705182a746b8d160e23fb8aefd2be11065ccd57d702b95f45caced065fde722c892ec4a75c2949c0819be8da0a539acbe038de5f6e930b57ad2b89fea33aee0d69393b0b9c0ffd0e0315d135481cfc64188f12f4490f986c2d183430c35d0c3918b82f82cf72a9c3aea3616afb6197edaa894118c8b3ca74075fac62d21f2caaf575d85cfc405b8b7ac56a3c8db8a196e84fdc93c462759fe7450ed5311dbda50195253617789920a87033a5e8005ccbf0231c88dbd6e3dd4e1b8ae654048eae605e48854c75b471d549882b5fa9dcbcdfe609c43e511bb60687338c194b691f5dd3854375b785a98470c165646754693c2b3b6e7770d20abc117a70b699b371f82ad84e0367961cb67f7320af670e99fe16be40427ada17699ed45a4ce3cbc2f696e83b97b16ce56cee5c46fb877adbff6eaa36668e33a4468e00ae3342121d233cfc44230b4c6bce08d1d079092bce5e380446cffc4e9ca2b31e9b4bdd5072006a877d51c13afce7b25952b19ca1079b3d2eb9d6b06dd454058fb41e41489d673d8174205d6ecc9a122880e9aa5d16bd8b6c01cadd1d862d33a0844979439087325c90cda84e59b65f11ec8f9fddf28ba7b6736a0dc96a9dac933aeea666d983b8ba4eb61d5c1522300f28818dc9e601dea6517a1fd4d2d3cbbd2fc5c6ecaf221bf4b0981bbe8a1846e48d32cab4548a93348bf4ecae2b827bfb1c75be57cf46c446db0a76291abb1c44caee383e48a9c6f2a6781c8c5721aa07bbb36de3a826cf1548c67f34daed2fe959ff0b83cd0e3c5eb9a8db98a51de9de8e5e5d9ed24b5ed4659f5fda8fa0db271eebea198ec15ed85da5a4eeca8ea2936205099bdd8a175b74f2b9e77d6d4f93da85cfdde54dc31d6f243b6e412d8784513ea6345f505e3965b1c3419d7f4d6b2d67158e6030b15262b303f565e878da1a6abacb2c9d1d2e2e4f5131b34383e575f6266818788898a8c9197bdbec3ddfe0c1a45465167868b8f92a0a5bec3d8e7fbff57617083949598b6bee6e900000000000000162c3e4901fd210500b2b25dc689be4f5244a27b99e26c0e592adc3b95df187c44b344130ce9502c514ca0df530da98d8c4120e8f1dd522d8e216ce391b8844768c7e48aa3de001d1dcf4720a1031c35a820fbbcd93b6cb3a5f37d77f92da959a6a4e05bf9a5dfba22e80132830a6cdc51affb82e10326a39411c83e6f0a484cdab2a734dc04730d02bfc3517c56d6211e1516b72d7642f6f8bc744ad47d5458d2e3d890c9a36140046ca5ef10488019a21ea12a7c6c4bf258477eddfbf4a41f2c8696dd4b4aa4eb621047b5047080f09421465dfa8c8d215382f76812aaf1297794b0cf77723e8420bb2ee6d0466188f8d3827ecf72fc4550e467aaecd7d5362717561507d427b83e73f40bd86eea91a5802772d03af4180145d2e584855ca2e7f96f13af37731381e0dc64d1fe0569beb286ce75ee72acf93de05554858a8d8897e272ba712d3ce075a594b870a33e0f3f280defbae3825122a8f7a351f55c03cf73a8703bb47fc6d9ff2e197b97dca59b8770915f2799f9cc1b5c12905374baf84ce22fb3d91f6817cf18382cce67f5a6a8c902438828e3b92cb36539d5cced2b05ec343ce92bd6cfe312691b5e3c682ec61ba4bd68a05ba90c3068b1eef91c84c3ba52c0c4b5d56c642ada7f9821bd87cdd55d8265c93b284b5dfbf5ce3c7e3c29bb0051faf61a6289dc9f0f2ba64a2750db71700a547950e1f65083153a76571d872a327ad5f2813ab08d36a3604671279b1790a72c9a8cf8791071da190f09790942e0cd124eca19becd5329572b35ebae8af2872708a30764e76895dc3a887fbb510d00314039bd60cb2b2795bd31ca3d692653d38323f271b92c31940963a7e23a9f73c14888b450aa1ae92fdb33d18510d6589e9e26ee360496fae999a7845a301b20cb7194d8fc78e89a8998ebfd0d38826b5f16a0764b1280c617226fc105f4ee9c8c4b90849bb1875862a97aa40c4b9cea508fb528b8aa58e59e8e254d7556250b18ed47d47b9fe382c5dbd0815787d3f95b38758a338aeee8b3a781596e020914d2b87589a69e5fb64b3b91b896025fe93884b754a916aba403b62f18f847698730e8239b26501f6639145d94239ec70b03774b472d76b4744c8cda6307a8a0f96e09618802866e1d62425ba0c68a0c6dd4b01c3e84d1f8df280afa291ee2ebfab854fbbf282af5c2f0f9eb698e0b590ac22183ad029ff61292e277d226f9f259af9fa300401cbee30bf325f6cd17497f9990fbb5cb62cfc9507757bf692e80dc6617d23bebf7876cd896f823949411109814be3c936bb96c866fab2ec60553e539d9fe2da94f49abce0a12edd6c7259e99c274ad7c249539c831931c086ce955ca80d309c4e752dcecc331b17d88f004c7a9b17145e99a6c6b3d29807c3c49d0eb44684a149b7fcf3dfade169f4247e3a46417989db3f1dcc14e90f95155a1ca5011aed4e970a64f9606441bda0ae9328e9fb6cfae2dd3ef0fd62d7a722690649eb2468407f2a41104f0a7615cea9d517747d3789f628885b59fba415f02125588d8ecceec1a0083fd962d20acd2da8985debd8557c31c726b8035a84d62c6f77717d3f72c08764c7f3ed1f5e6fa8c69778f340fb541b505cfd7f778ff79f7bc8a7b73b8be3df901c28d41424139e71aafa825dfda870cc02990b1039b69c55963a71022f993b7de1c6fac9006996bc8a1055829f9fe33b0e943200409994c93107e79655683795cdddaf8e313eafff88caaf41a18a84e929c310f05942fd547de2404f9734dc23e101b08b05c8cd266960ed5c95d01d0f0709904fad9665ca3a8779b38ef138649edc623b57c06da61fb003f8f2147b689fb2576fc15e13cba65d275000000",
  "txid": "96094f69533be53acbfe8376b396e81e8b8ddd5e9d81e4895461c3ccf5f89a18",
  "hash": "b1f214e4e961929e275d10bd90948f8ce77502ecfefc1252b452a4778baa3eef",
  "size": 5085,
  "vsize": 2278,
  "version": 1,
  "locktime": 117,
  "vin": [
    {
      "txid": "81b58539e0068f651c6a766abb1ae80b9f15158c2eabade2fa9cb8e5f4dbd4f1",
      "vout": 1,
      "scriptSig": {
        "asm": "",
        "hex": ""
      },
      "txinwitness": [
        "0dcb6715cbe0b4896b05228a36d7b6ca929f437e016a5963f33e357e1d2edf98c9588f932a5bc293620514a518b2aa38555d00f8569f384ad774de40a11728307b6a574431bdd27e87a616838bae1d21def4398d01bc17db7696654cc13e8ab5953777d2a738c790fdf614ebd814581f9f7854b8deecc9dc8b7cc8f72b967dd1a43f74079506f781b27a84ea646b3f0578b171cebc3d0f3d0cb659205a8d006732f59d2b83198f3c040d9668b7c1935d7f2350a393b8a9ab1e455df710e4b54ba005fb576813ef1a7398a5c9114331277723f51671535550b1cf7428c787a71f96462ddef05074b6e0d9c8f3803528912ff47738d73377523ece27b70b48b4713eeef619d1189c723a9391ac1901a86903ad5daaafab860d19e02c2150c04acf9dd2fb8f629805c25f4727895c25b58061d2b557a718ced9f9c8324db25a601d57e42583e1ce67790ea16540452815950d057ad14704715dd70097d97088ad46eecb9ffb8b5836e1476d32541b613daff81bd1f0a23c38ecf6aaeadf4856c525346604281aace48d977d3ab1497135433c59a2376e02104c083ed1c3d65280dc303b4b3aeed559a34b77fd7904c05300021bdd57728e9257b0fe55b37ce7b4d9ff2b735e1c874dca24f5f32ce6341113712768422eb7a374292581291073e69392ecd5be9e4cea8af01f96b825b7724dc9d152cfce63c83a28b3205a1411bbce145fb372d6d81db424b0de60718109eaef04402510d98c8b4d620f7fe99e58f2690fb730ee628233da156eb7b32ac41ef2b193e1472f5b7b6419736f568fe8cbbef714b9742bc27cf65a2a75aa76bf9b91f5dab8f134da019a5603df560a2da8ed2135e48b04aa2e0aa59959a955b240f628cb66d3687f10c45c066df0910155dfeae0adf5a552ca2d1fcd2113fa53797e8c1bababb2023133ea1ccd5f65f6ddb223862eafd3d9fb49a5a6b92df09452e5e86b6d34571a32fe2e2ee57d711da591354e92b0da1013759ea73daf3af3f0e929b338b6526ec18c3e3894e4996a68a5969e3afdab3c0c4ebd4afd02579113a241bb7f411d93888acc9f633da3afdbfedde2c14f417523c517451996bd5b7832cb1efc314e03fd3fadb6dc2915f36084a1430dae614e8072af0aa47e9d4a423ef7accbe30414d2ab2ef8a4dfe2bd6b6b33bee322479be6014918170dfac2b000afb57b0e70af8f50ecdfec68655ce10e20a7856523bfc73dabb9215060801ff19b3a484df71f3eed4869e7f7fdbf1355a6beeb691e5418a7d234a04783bf3460ad8953a9f4c8efa16a07f01a8187382eab545b3fa1cc4139ab493e71b5569c5de24435e20551c2f30e9a943133b37c522e5ac504d4260f6ead73d0c341957bb751f8a78c7a10d68b8419a384b13e59a20565fea3886ec8b163397b55deb0866f2079f59030623ed956661891ecae30a4474f0eb274fea65d572c5922dd0d6f770d0314385a9da1d361bdcb6b53f1d408d6a5ecc427749d651f64babdb531ff42f76f236e953829cd9b1c09b5ddc466271b451c32b51d44e444b5375260f69da0f18a4bd14f0f9f0b5c92027ff86f7cd61c9d21c294a0421b411f6838f08883ecd4e6cf66e713030506ad2eecb638a036a11b896baa621a28cb3ff2676e799a1913066b4f048dda576f5826bf2673dc8ec35b52957ee30ce73632f365bb7aa67aea18693df26f94f0773fa4eb20e985ac36aa792a4946ff55f57da37ed5b956aa76396c4f5ba1f1495fdc19cbf90806a2c5557e62b558e3e84259f977dd7fa199f42252abd668d94053d408bd9b5e241fb47511708017e83a738961ca1c1ce2011dfe52ce6e066379f49c2bd5e46ab09a940d18e374135c2865bb41c8ead6b81a3c3efa161797e46a74229c9e17789e1d40409f22ea6a1e95fe1c6872310ce985f301085bb1d093a476430c7c39d98d5f28132707ba6173fbc769d4f929a2c84745e4c334f127c68352949a59c472e3245c5e178979d2cb39d5a840add1a2aa8fe04c53f1984cc68d42dda673a9e806bf9f488c6983b7ce2da4bf03b7b9cb5bc5058adfef0d0ae53608ee494da0628a7dc17921d743e5334aeba3b84363e9ace12658f617066aa653172ff9a642a425d6b356817777fbdb0b3ca1a7e0815247ac831f2aaf1e2a0e4fc095e945f073e458ccc27096f7430b35917c5d05de71be2181b242a8fa80745e852cf74b8455ac350341b143e35a139e27577c1fb015db34baee25680ea388be4b53c301719331617a036a15df4296634db2a39a92a1c50339cc632d6c06115cca3cd22eb2eba7c894a95072c594e1f89b658eaeb8c9d467789b655b998643e3894e807436a14c3186cd2998367a04bbc02d304736d6d0f705182a746b8d160e23fb8aefd2be11065ccd57d702b95f45caced065fde722c892ec4a75c2949c0819be8da0a539acbe038de5f6e930b57ad2b89fea33aee0d69393b0b9c0ffd0e0315d135481cfc64188f12f4490f986c2d183430c35d0c3918b82f82cf72a9c3aea3616afb6197edaa894118c8b3ca74075fac62d21f2caaf575d85cfc405b8b7ac56a3c8db8a196e84fdc93c462759fe7450ed5311dbda50195253617789920a87033a5e8005ccbf0231c88dbd6e3dd4e1b8ae654048eae605e48854c75b471d549882b5fa9dcbcdfe609c43e511bb60687338c194b691f5dd3854375b785a98470c165646754693c2b3b6e7770d20abc117a70b699b371f82ad84e0367961cb67f7320af670e99fe16be40427ada17699ed45a4ce3cbc2f696e83b97b16ce56cee5c46fb877adbff6eaa36668e33a4468e00ae3342121d233cfc44230b4c6bce08d1d079092bce5e380446cffc4e9ca2b31e9b4bdd5072006a877d51c13afce7b25952b19ca1079b3d2eb9d6b06dd454058fb41e41489d673d8174205d6ecc9a122880e9aa5d16bd8b6c01cadd1d862d33a0844979439087325c90cda84e59b65f11ec8f9fddf28ba7b6736a0dc96a9dac933aeea666d983b8ba4eb61d5c1522300f28818dc9e601dea6517a1fd4d2d3cbbd2fc5c6ecaf221bf4b0981bbe8a1846e48d32cab4548a93348bf4ecae2b827bfb1c75be57cf46c446db0a76291abb1c44caee383e48a9c6f2a6781c8c5721aa07bbb36de3a826cf1548c67f34daed2fe959ff0b83cd0e3c5eb9a8db98a51de9de8e5e5d9ed24b5ed4659f5fda8fa0db271eebea198ec15ed85da5a4eeca8ea2936205099bdd8a175b74f2b9e77d6d4f93da85cfdde54dc31d6f243b6e412d8784513ea6345f505e3965b1c3419d7f4d6b2d67158e6030b15262b303f565e878da1a6abacb2c9d1d2e2e4f5131b34383e575f6266818788898a8c9197bdbec3ddfe0c1a45465167868b8f92a0a5bec3d8e7fbff57617083949598b6bee6e900000000000000162c3e4901",
        "00b2b25dc689be4f5244a27b99e26c0e592adc3b95df187c44b344130ce9502c514ca0df530da98d8c4120e8f1dd522d8e216ce391b8844768c7e48aa3de001d1dcf4720a1031c35a820fbbcd93b6cb3a5f37d77f92da959a6a4e05bf9a5dfba22e80132830a6cdc51affb82e10326a39411c83e6f0a484cdab2a734dc04730d02bfc3517c56d6211e1516b72d7642f6f8bc744ad47d5458d2e3d890c9a36140046ca5ef10488019a21ea12a7c6c4bf258477eddfbf4a41f2c8696dd4b4aa4eb621047b5047080f09421465dfa8c8d215382f76812aaf1297794b0cf77723e8420bb2ee6d0466188f8d3827ecf72fc4550e467aaecd7d5362717561507d427b83e73f40bd86eea91a5802772d03af4180145d2e584855ca2e7f96f13af37731381e0dc64d1fe0569beb286ce75ee72acf93de05554858a8d8897e272ba712d3ce075a594b870a33e0f3f280defbae3825122a8f7a351f55c03cf73a8703bb47fc6d9ff2e197b97dca59b8770915f2799f9cc1b5c12905374baf84ce22fb3d91f6817cf18382cce67f5a6a8c902438828e3b92cb36539d5cced2b05ec343ce92bd6cfe312691b5e3c682ec61ba4bd68a05ba90c3068b1eef91c84c3ba52c0c4b5d56c642ada7f9821bd87cdd55d8265c93b284b5dfbf5ce3c7e3c29bb0051faf61a6289dc9f0f2ba64a2750db71700a547950e1f65083153a76571d872a327ad5f2813ab08d36a3604671279b1790a72c9a8cf8791071da190f09790942e0cd124eca19becd5329572b35ebae8af2872708a30764e76895dc3a887fbb510d00314039bd60cb2b2795bd31ca3d692653d38323f271b92c31940963a7e23a9f73c14888b450aa1ae92fdb33d18510d6589e9e26ee360496fae999a7845a301b20cb7194d8fc78e89a8998ebfd0d38826b5f16a0764b1280c617226fc105f4ee9c8c4b90849bb1875862a97aa40c4b9cea508fb528b8aa58e59e8e254d7556250b18ed47d47b9fe382c5dbd0815787d3f95b38758a338aeee8b3a781596e020914d2b87589a69e5fb64b3b91b896025fe93884b754a916aba403b62f18f847698730e8239b26501f6639145d94239ec70b03774b472d76b4744c8cda6307a8a0f96e09618802866e1d62425ba0c68a0c6dd4b01c3e84d1f8df280afa291ee2ebfab854fbbf282af5c2f0f9eb698e0b590ac22183ad029ff61292e277d226f9f259af9fa300401cbee30bf325f6cd17497f9990fbb5cb62cfc9507757bf692e80dc6617d23bebf7876cd896f823949411109814be3c936bb96c866fab2ec60553e539d9fe2da94f49abce0a12edd6c7259e99c274ad7c249539c831931c086ce955ca80d309c4e752dcecc331b17d88f004c7a9b17145e99a6c6b3d29807c3c49d0eb44684a149b7fcf3dfade169f4247e3a46417989db3f1dcc14e90f95155a1ca5011aed4e970a64f9606441bda0ae9328e9fb6cfae2dd3ef0fd62d7a722690649eb2468407f2a41104f0a7615cea9d517747d3789f628885b59fba415f02125588d8ecceec1a0083fd962d20acd2da8985debd8557c31c726b8035a84d62c6f77717d3f72c08764c7f3ed1f5e6fa8c69778f340fb541b505cfd7f778ff79f7bc8a7b73b8be3df901c28d41424139e71aafa825dfda870cc02990b1039b69c55963a71022f993b7de1c6fac9006996bc8a1055829f9fe33b0e943200409994c93107e79655683795cdddaf8e313eafff88caaf41a18a84e929c310f05942fd547de2404f9734dc23e101b08b05c8cd266960ed5c95d01d0f0709904fad9665ca3a8779b38ef138649edc623b57c06da61fb003f8f2147b689fb2576fc15e13cba65d2"
      ],
      "sequence": 4294967294
    }
  ],
  "vout": [
    {
      "value": 1.0,
      "n": 0,
      "scriptPubKey": {
        "asm": "OP_RETURN fb814a33bdc4f7522d4bafbcfb9fb720b49cab82f59357ec5dab0eca08f7ce25 7641fd4235f0789f241dfc309cbb4f9258abbae898cdde2e712c37a4de8f8a9f5661dd6215d058bf043ddc10bc9b6fb2788b9ac8b8edfe0e510c1784feafaabf3601bd0275b038df645dbc70dcfb0fd218ebfaa8d88d9e6e316c77e49ecfcadf16219d22559018ff447d9c50fcdb2ff238cbda88f8adbe4e114c57c4beefeafff6c17dc2b570f81fa49d7cb01c3bcf12d82b3a68184d5eaef1acb7245e0f0a1fd6e15de29550d83f84bd5c903c1bef32f80b1a48386d7e8ed18c97047e2f2a3fb6813d82f530b85fe4dd3cf05c7b8f52986b7a28580d1eeeb1ecf7641e4f4a5f96a11da2d510987fc4fd1cd07c5baf72b84b5a08782d3ece91ccd7443e6f6a7f7641fd4235f0789f241dfc309cbb4f9258abbae898cdde2e712c37a4de8f8a9f5661dd6215d058bf043ddc10bc9b6fb2788b9ac8b8edfe0e510c1784feafaabf3601bd0275b038df645dbc70dcfb0fd218ebfaa8d88d9e6e316c77e49ecfcadf16219d22559018ff447d9c50fcdb2ff238cbda88f8adbe4e114c57c4beefeafff6c17dc2b570f81fa49d7cb01c3bcf12d82b3a68184d5eaef1acb7245e0f0a1fd6e15de29550d83f84bd5c903c1bef32f80b1a48386d7e8ed18c97047e2f2a3fb6813d82f530b85fe4dd3cf05c7b8f52986b7a28580d1eeeb1ecf7641e4f4a5f96a11da2d510987fc4fd1cd07c5baf72b84b5a08782d3ece91ccd7443e6f6a7f7641fd4235f0789f241dfc309cbb4f9258abbae898cdde2e712c37a4de8f8a9f5661dd6215d058bf043ddc10bc9b6fb2788b9ac8b8edfe0e510c1784feafaabf3601bd0275b038df645dbc70dcfb0fd218ebfaa8d88d9e6e316c77e49ecfcadf16219d22559018ff447d9c50fcdb2ff238cbda88f8adbe4e114c57c4beefeafff6c17dc2b570f81fa49d7cb01c3bcf12d82b3a68184d5eaef1acb7245e0f0a1fd6e15de29550d83f84bd5c903c1bef32f80b1a48386d7e8ed18c97047e2f2a3fb6813d82f530b85fe4dd3cf05c7b8f52986b7a28580d1eeeb1ecf7641e4f4a5f96a11da2d510987fc4fd1cd07c5baf72b84b5a08782d3ece91ccd7443e6f6a7f7641fd4235f0789f241dfc309cbb4f9258abbae898cdde2e712c37a4de8f8a9f5661dd6215d058bf043ddc10bc9b6fb2788b9ac8b8edfe0e510c1784feafaabf3601bd0275b038df645dbc70dcfb0fd218ebfaa8d88d9e6e316c77e49ecfcadf16219d22559018ff447d9c50fcdb2ff238cbda88f8adbe4e114c57c4beefeafff6c17dc2b570f81fa49d7cb01c3bcf12d82b3a68184d5eaef1acb7245e0f0a1fd6e15de29550d83f84bd5c903c1bef32f80b1a48386d7e8ed18c97047e2f2a3fb6813d82f530b85fe4dd3cf05c7b8f52986b7a28580d1eeeb1ecf7641e4f4a5f96a11da2d510987fc4fd1cd07c5baf72b84b5a08782d3ece91ccd7443e6f6a7f7641fd4235f0789f241dfc309cbb4f9258abbae898cdde2e712c37a4de8f8a9f5661dd6215d058bf043ddc10bc9b6fb2788b9ac8b8edfe0e510c1784feafaabf3601bd0275b038df645dbc70dcfb0fd218ebfaa8d88d9e6e316c77e49ecfcadf16219d22559018ff447d9c50fcdb2ff238cbda88f8adbe4e114c57c4beefeafff6c17dc2b570f81fa49d7cb01c3bcf12a1839f9bfaa690387f852d503a6ec8f95d831e8675c8e5851c4ee21cb07a5189",
        "hex": "6a20fb814a33bdc4f7522d4bafbcfb9fb720b49cab82f59357ec5dab0eca08f7ce254db0047641fd4235f0789f241dfc309cbb4f9258abbae898cdde2e712c37a4de8f8a9f5661dd6215d058bf043ddc10bc9b6fb2788b9ac8b8edfe0e510c1784feafaabf3601bd0275b038df645dbc70dcfb0fd218ebfaa8d88d9e6e316c77e49ecfcadf16219d22559018ff447d9c50fcdb2ff238cbda88f8adbe4e114c57c4beefeafff6c17dc2b570f81fa49d7cb01c3bcf12d82b3a68184d5eaef1acb7245e0f0a1fd6e15de29550d83f84bd5c903c1bef32f80b1a48386d7e8ed18c97047e2f2a3fb6813d82f530b85fe4dd3cf05c7b8f52986b7a28580d1eeeb1ecf7641e4f4a5f96a11da2d510987fc4fd1cd07c5baf72b84b5a08782d3ece91ccd7443e6f6a7f7641fd4235f0789f241dfc309cbb4f9258abbae898cdde2e712c37a4de8f8a9f5661dd6215d058bf043ddc10bc9b6fb2788b9ac8b8edfe0e510c1784feafaabf3601bd0275b038df645dbc70dcfb0fd218ebfaa8d88d9e6e316c77e49ecfcadf16219d22559018ff447d9c50fcdb2ff238cbda88f8adbe4e114c57c4beefeafff6c17dc2b570f81fa49d7cb01c3bcf12d82b3a68184d5eaef1acb7245e0f0a1fd6e15de29550d83f84bd5c903c1bef32f80b1a48386d7e8ed18c97047e2f2a3fb6813d82f530b85fe4dd3cf05c7b8f52986b7a28580d1eeeb1ecf7641e4f4a5f96a11da2d510987fc4fd1cd07c5baf72b84b5a08782d3ece91ccd7443e6f6a7f7641fd4235f0789f241dfc309cbb4f9258abbae898cdde2e712c37a4de8f8a9f5661dd6215d058bf043ddc10bc9b6fb2788b9ac8b8edfe0e510c1784feafaabf3601bd0275b038df645dbc70dcfb0fd218ebfaa8d88d9e6e316c77e49ecfcadf16219d22559018ff447d9c50fcdb2ff238cbda88f8adbe4e114c57c4beefeafff6c17dc2b570f81fa49d7cb01c3bcf12d82b3a68184d5eaef1acb7245e0f0a1fd6e15de29550d83f84bd5c903c1bef32f80b1a48386d7e8ed18c97047e2f2a3fb6813d82f530b85fe4dd3cf05c7b8f52986b7a28580d1eeeb1ecf7641e4f4a5f96a11da2d510987fc4fd1cd07c5baf72b84b5a08782d3ece91ccd7443e6f6a7f7641fd4235f0789f241dfc309cbb4f9258abbae898cdde2e712c37a4de8f8a9f5661dd6215d058bf043ddc10bc9b6fb2788b9ac8b8edfe0e510c1784feafaabf3601bd0275b038df645dbc70dcfb0fd218ebfaa8d88d9e6e316c77e49ecfcadf16219d22559018ff447d9c50fcdb2ff238cbda88f8adbe4e114c57c4beefeafff6c17dc2b570f81fa49d7cb01c3bcf12d82b3a68184d5eaef1acb7245e0f0a1fd6e15de29550d83f84bd5c903c1bef32f80b1a48386d7e8ed18c97047e2f2a3fb6813d82f530b85fe4dd3cf05c7b8f52986b7a28580d1eeeb1ecf7641e4f4a5f96a11da2d510987fc4fd1cd07c5baf72b84b5a08782d3ece91ccd7443e6f6a7f7641fd4235f0789f241dfc309cbb4f9258abbae898cdde2e712c37a4de8f8a9f5661dd6215d058bf043ddc10bc9b6fb2788b9ac8b8edfe0e510c1784feafaabf3601bd0275b038df645dbc70dcfb0fd218ebfaa8d88d9e6e316c77e49ecfcadf16219d22559018ff447d9c50fcdb2ff238cbda88f8adbe4e114c57c4beefeafff6c17dc2b570f81fa49d7cb01c3bcf12a1839f9bfaa690387f852d503a6ec8f95d831e8675c8e5851c4ee21cb07a5189",
        "type": "nulldata"
      }
    },
    {
      "value": 499980.6789,
      "n": 1,
      "scriptPubKey": {
        "asm": "1 c8f80d584cd6aeebf976f0acdeb374dd7cb122c27dc474d97dbecf00969206c5",
        "hex": "5120c8f80d584cd6aeebf976f0acdeb374dd7cb122c27dc474d97dbecf00969206c5",
        "reqSigs": 1,
        "type": "witness_v1_scripthash",
        "addresses": [
          "3QJmnh"
        ]
      }
    }
  ],
  "blockhash": "443ef5589806c3570db60b1178f56898637f167918ce0f0236a27ac7d0512dc1",
  "confirmations": 1,
  "time": 1764179461,
  "blocktime": 1764179461
}