{
  "hex": "01000000000101723e7cf4d4121a57678888337c550af9a80804129b98ce25170a1188a11ef9390000000000feffffff02f0ceba8f782d0000225120eb8382179c1999b4910ceca9c60cb595a254446a4157d425718e09b4286dfe8800e1f50500000000fdd5046a20e3db588fbff484de906cedae29c91c2ed708cdc47213faf904969263e39c04694db004e57db2528bb2201b6ffcb74e3e6582cd917c4b76ccdd08f3bb0c86220e5f5d3ec55d9272ab92003b4fdc976e1e45a2edb15c6b56ecfd28d39b2ca6022e7f7d1ea53df212cbf2605b2fbcf70e7e25c28dd13c0b368c9d48b3fb4cc6624e1f1d7e851dd232ebd2407b0f9cd72e5e05e2adf11c2b16acbd6893db6ce6426e3f3d5e65fd32d20b32a09bef7c37cebee5024d11fccbf64c5d88733b8c06a28edfddbe45dd12f22b1280bbcf5c17ee9ec5226d31dcebd66c7da8531bac2682aefffd9e25bd72924b72e0dbaf3c778efea5420d51bc8bb60c1dc8337bcc46e2ce9f9dfe059d52b26b52c0fb8f1c57aede85622d719cab962c3de8135bec66c2eebfbddee57db2528bb2201b6ffcb74e3e6582cd917c4b76ccdd08f3bb0c86220e5f5d3ec55d9272ab92003b4fdc976e1e45a2edb15c6b56ecfd28d39b2ca6022e7f7d1ea53df212cbf2605b2fbcf70e7e25c28dd13c0b368c9d48b3fb4cc6624e1f1d7e851dd232ebd2407b0f9cd72e5e05e2adf11c2b16acbd6893db6ce6426e3f3d5e65fd32d20b32a09bef7c37cebee5024d11fccbf64c5d88733b8c06a28edfddbe45dd12f22b1280bbcf5c17ee9ec5226d31dcebd66c7da8531bac2682aefffd9e25bd72924b72e0dbaf3c778efea5420d51bc8bb60c1dc8337bcc46e2ce9f9dfe059d52b26b52c0fb8f1c57aede85622d719cab962c3de8135bec66c2eebfbddee57db2528bb2201b6ffcb74e3e6582cd917c4b76ccdd08f3bb0c86220e5f5d3ec55d9272ab92003b4fdc976e1e45a2edb15c6b56ecfd28d39b2ca6022e7f7d1ea53df212cbf2605b2fbcf70e7e25c28dd13c0b368c9d48b3fb4cc6624e1f1d7e851dd232ebd2407b0f9cd72e5e05e2adf11c2b16acbd6893db6ce6426e3f3d5e65fd32d20b32a09bef7c37cebee5024d11fccbf64c5d88733b8c06a28edfddbe45dd12f22b1280bbcf5c17ee9ec5226d31dcebd66c7da8531bac2682aefffd9e25bd72924b72e0dbaf3c778efea5420d51bc8bb60c1dc8337bcc46e2ce9f9dfe059d52b26b52c0fb8f1c57aede85622d719cab962c3de8135bec66c2eebfbddee57db2528bb2201b6ffcb74e3e6582cd917c4b76ccdd08f3bb0c86220e5f5d3ec55d9272ab92003b4fdc976e1e45a2edb15c6b56ecfd28d39b2ca6022e7f7d1ea53df212cbf2605b2fbcf70e7e25c28dd13c0b368c9d48b3fb4cc6624e1f1d7e851dd232ebd2407b0f9cd72e5e05e2adf11c2b16acbd6893db6ce6426e3f3d5e65fd32d20b32a09bef7c37cebee5024d11fccbf64c5d88733b8c06a28edfddbe45dd12f22b1280bbcf5c17ee9ec5226d31dcebd66c7da8531bac2682aefffd9e25bd72924b72e0dbaf3c778efea5420d51bc8bb60c1dc8337bcc46e2ce9f9dfe059d52b26b52c0fb8f1c57aede85622d719cab962c3de8135bec66c2eebfbddee57db2528bb2201b6ffcb74e3e6582cd917c4b76ccdd08f3bb0c86220e5f5d3ec55d9272ab92003b4fdc976e1e45a2edb15c6b56ecfd28d39b2ca6022e7f7d1ea53df212cbf2605b2fbcf70e7e25c28dd13c0b368c9d48b3fb4cc6624e1f1d7e851dd232ebd2407b0f9cd72e5e05e2adf11c2b16acbd6893db6ce6426e3f3d5e65fd32d20b32a09bef7c37cebee5024dc5618c9acadb8e750161a90ec8b58e5ebf5df444c0e5f03923d94f0c612dda3102fd7509e3ddea45c599a736f0045f6c12799f023aabf277077b12ab1047fe9d68a29c1bc7abd070fbc03cb7893e62ab6bfe733e5cded274d570e42d25d06c8bef771dbe0456761c5b0946e839582c39a9e58e563d921b5b799d75ed1683d0b79f761ee39885ba5154704036bd88900a7520b728731387fa004d2820e9dc1d9075e45d745bfc37984470eea524c6995340a76b426d1fa8dfb1fea19c2201634d8a05390210794549a313ddcce0a8fab0bda78e4b8a918882c8038827c04c9322e1f6cb6286005b1de789c784d7ec838f17092f3bf014db6e5b011e6efbb015e39d3a3941e663a6182003a4e9e5273dc15fd43197b46d2039e89f37db0240c60685f8a95e5725f63d3da08707cacdf4a7b76d5c8f0dcf76a08b2af3b2061f3ee1be4b13e4cfd6370cadefe82d31cc72b12aebd743f07e6426a2508d2eb694953477ac0ce1a77a4502fafb27e6cb05d3f1b0c328c5934168ee97a2793d2028d389f2edf4119df77f8e092ffdb170368dc48e9a84f810efa9b1d07d781c174a217b8496282f5dc690f79ef006aaf595c962887a652369fb5a0c86bbf94036b0f42905a182e13f5de3fc6d0830038cdd66515b8d26d5ff64dccea015c1fe3af314c2d18f018e59239c2fcf01cb9451614921ab6b0d3120a5ca5bf16493de6542ad90a20638dddead10ddacb00fc21a0b769a8d6f989d67d30b46bb433289605bf1a5647eb06a2dd90b30939a8b06a57acb938ea9bb945075d17e75a0058404e61254f73c4a54a6a0e04b4bca31113431deded2b64af07a229941f58245ea6f378eafe96f67f0c75071a10ea012e5ca2e1dc0123c9854fb1ba2c1d90aee25fb4bdc576da57898e89d23918dc123cd85d32adcdcd200d09a26185bbbb27f42271194fb3790ec49297b7fd1e916d23a618a14327ee5d17e1f45c892e64a9675639eaee097efca16940f4f4c0b327f756d531b807bd324b7164d69567edf1739a9a7fecfe14f0491dffe4ba597010d0741288e9a2954e9c774c72ec1e46b3d19896b738b6f57f4cc7148a0450691c8af8ed457e3a51d8c8a03f6ece48f3c0b2465a7ef2bb2d567b3f34ff94d04582fd9703139acd014319085ce1af0d097d0e138ed3acffeb1e7a4ed407d1d4ef3c6491e1d402362984604ee37dd4e0a32f2a7985a7182e0eae2c774806ee0e5123e7fb79969513c4f8e3fbd705edd6c023356ec77629e598d74b86f915a9031ed3cf64162adc0e8ecf7d8c8810e00b0ea098b6f010923d32273b3bfaa592685e5828448093829e6af58f66ef089d22a28edbbf69af1e208255d978662fd641a6df97172743c481b0e0758b83519985549c098b1915411f1005788a4f80bbf39863c28810ed95e1f104666d7491dcd6de63f7c28429336a68d46fde30224c4cc337d5a878756e0f1eba05160fbf5f2d4a4a789abf37f16319cdb5f377012145ac7a4a36a64b66a8c0bbcbabf4b06a05bf3575c8353be813ef581121a6946f5e0065597f3d9b60625a962842efa3d8ddf46ff8cdbb5993d41f1cc67921c720c4e8e970921634acb1622f598da4b43d6794a88886cd2b09e918a8cf2b735e70677042e3400ab681d1bb691e3f0b2b9e20c7030f09405eb68d7985759b0be1d78915efa710c8ee863fe85bf65ace3df633172ccc70ff84e620d815685114162082be552e5acb7e5d716246b87031c560ebd9b6fe74935dd0f23faa510542e0a740110e1231f2a3617b3ae82d062b214ffd710f56608f676d65f01ed56a2a7df4ecb1e3adfed4e97ac23746bd98579cf1bcd6bd5a233c49a12b5f07468cc9e81482aecf321401c2316a61200c58b27870ae58bf03875e2247b4434f5f29b3d8a75fda9a4918db0216c84cd60ea5b4797762dd693076453adb6e412196bb5b3b76e0cf8027e24cdb6017ee30f6e0d00ec19076535c14582852010df7f95e23f2b15844de23d68fc7d8791188c8bcd868055f650925f9d83a5b5127a8a2ad1ae673281b213275a6712ca0d4875abbdabfe363609df15eff4a870db4715d2cb6c1f737cc2deae3204bca8c8efc3653008c25a4c8a18ac161c4902947a43ced2a8b1f127939b7cc5e13782ae2bc391fed6a94cd289e0556bbeeeb929885dc8a93bf6f2186caf7dd7b0b1a256a439929201a6f6ddb9ebd8a986f1b7ee76764d8cd0abad235fd3c09d68ed5d4ce127f13920d376fb5d6b1edf1376839df8d603972792a97c169af5f79e53af8771dbfed533eff8df4a7d9b8a17c2d75c945875cc71c7586f853bc0aac1f1576afe96d96de75cd05cd7b25876d69ee2e66fc5d9af22ba000b4a64dca4abf4f713764f717c102d64950d68ab95035dff33dacd824e5fa8398ef11709e9398632cee0a8d6c392a256600505667767a8614668782988b7ea4b63829f072e8661fbbfe6dcd70bb3002133eb843f29db1385d7680a662fb8f69cfe6631e0cb5da791d02af884d8a71635d4115005ace6e74dc4169439f995de5ea440e55c18c5d7826688f8ff8b45d8e54ea08b14bc89d89c242e029305d4cd1a4ef1514313697f1246c31725ea17993a67b4d6f72098caa393745b4ff5a8abfa07e64d308a9ace9acb0961bfce4a15e621c0643354d11e7c3355ffde8bf12d023c629e3e3f5fe2a7c603018c498c3107b2f5ce6895f1787a1ad319c814074476bd0ca1243765acbdc2834994ee58e2c3a0c8cc58f33f7884991b3730a879587c7ffb8025eeb135e4d77d2b9e8e562ab4d4cbdca74f644639f7a3fff0ef49996c49c0d7c56f32dd5641e004898a1ab97140f4258ac81359ee3b89e75dd79bd314d03184091083e1fbe0b73fd892d2a6c647654435dcad4d436f72899b574bda952f1a80b76b8833d829ee3f38747c11f2a0a4bb85c259fc19eaac5f8c3d6a45d73a31ee726d8d8b77763d9e7dfb9e1f4382e0b7f9fb72815d3020d4330e73b5e7b3c861edde3b31603183f36f339ebbb4ee396ec5bb435aeaa9a3b1e337677846bc1d649db54a093cf2e6a22d0d76379c6f26f46866fc0bcb65312beb824ae43a8e7511e96165d72f980c4834e7099d09c758a33b0ec3b1f63f582a7e08deba19285247c9375d2e3d095e8ccd0ba74a1d40514ead9534b4ba388a99642a668231d4f080cf654f8f2a904475e8bf4dac4757d21075a40a3d3139b123bac8e20b0bf91cd751f7c2c6ac5dfa44ad18b11fc99a0828063800e6d38dede5af18c589904c6a8428bc0fd0143302e126cb36444a0ddf5cfac98469dedfb2dda0a3ca7ff5de06445fc0e374c766ead252d5386773d92477b5dd485b16ca3126b40334384665797c8489b8becfd2d800061c3233363c4468878fa3bfcbdff010141d1f30384b6c747f8692a0a4cddfe6101c22304f8ea6a8acb8babec1c7cdd2fe000000000000000000000000000000000e1e2f4001fd2105000c7666614a455f7cf70d0f5b8fba490a90a3f981deaa0d0ffc5960f7d23b48869d89d66d0f46e8380bd844a977f72155e9739b3c8ba3838617eb3cd7e64343d02a792574bb7241707b6b0eb5c45d3ec5b22d5efff8413bd41ac7e057b76eb4116ca4b1e4935df286abc0daab8867544880ae8b52a26c0f533aa7e25e31d117964067108dc6cad9f9da1bf6fd975c42fa18a304bd347ff6e6a4508e65a191306fe4467f3f6b98640b6e720316dec83020477f23aadc7439cb5e3a0e26669f7edbc8fc060f0a090704de58008a5a81a7d026ad9b9c4625dfef15402b7fc606e59b9b4afd6caab4cd428f84fdc44e267c493aeaa6a12424503aca80d5cd9de3d88139d2b6526b7de1c9afe5e39262d7d71c2a87457cc4380a9e63f6c6584323c0cf84fa0a4e80bb5855260a1b7dd14883fc4416007598c033217b257b0017b9c8a29d2f98d975bbd06a508c6d0339cef09bd66bc65df11d956be2b0d00f5ac17193dfe76f6f8ec892bf8f0d51860a09e4d64ba493b851ccd88e2d397b5170460788992f1f58e307c028ed12d145056051114c050fa1b54fd5bb12ef8a6acf9a1f8df281fb53b6ca1cf07305b7624ea56e315df9e0bce5e72757590576808000073c7cc6f532bf0bdffe7ff038d1cd8edf152df3d14b0a4789b680a318647a81aefee210bcb38d82f73be90b88b6e99781c2376051d12a4df4bc226f5189b9020dd9485f576459731df2a79291d868738eb53db2254dd50b153aec6e4174109843d2217b0d2f83d29777ee06fed480ae5832b1a55a5ecdf5ddeeeca1019a205402daaf16c0222a793aa98de2855bb1203c91268fdfb594304b4b1ef4f1d7596776bab8489c2383cba79ff1125b52e78c1d7cce6c20b3ba2bf463e8c877c13f7820107ca510e78c9f13abe7de1ec2f2a27a5fd07a6e13704e4f56aa9e14d7254e5d19f52e65cc6bcade015d2356ac69ba09f2fbb75f0351f2cafbdad348cd7585ef481df86d36c3739b3b342bfd7c866eba4d0543bd15b0cb62b81efdc3c240af40bd9b11b96e00e7ac5349abc588422c670dd1fb9beb7069dcabca98e2aa4d6883162304d4d58d10650fd91ce85978a59e176251965d0108920d0b7ef3c64bc83fc9352ff43aa1ea9ddc6dd2ff47f5ab0a07860d933eea367f2fc88707d89c2f54c5a60f2e48d8bae2e6c6758ff10fe538a7a1df066a15a4bbb37c121ae8f6d98b67a13100186065c3b7eaf2364a3097662540397805a8a9e501fbbe6a5074ae995029e579e01ddf4bacbc10b0ff4ac9e3e282d786f2f2d6a126c0993ffab247c809310e41ffa0019b860984a90677c8478b09a31cb1a8a209f72de463d4f8c2df57d41c544ffff7f5d2ba15f7539d2593ce7cbb55c723a8042871b96469e7bafb2c2fab1271c7efda71f65db1a27a1bc02559ca5cc291ee116fcc3a678df07b20ec47916f983e947d8e8afc622c4222a37fa72fbd68955a348530e5144aaa42957743766eedb4c50e61d62cc81ea193770c687955bc74d86027a61d50f42ea6b50d15f73ea93a6a9f07b233b7d7eedc0bf65bc35e8c528d85b5321dae8ee1a550f45294ba9206881d97bc084c245a0104b7adb1a70e72b84e73b862639ec05f9cec23656bf3ea36b6aabeadf268021991c93da5476ef43d827a3b2a8b5c8bd08f22977795ec41f46509fede8663aa2c9ff8504a08bf7eebaa3dff3b33e20f5c53102346615b05959371f75bdb4838dff4eb25251402f06a10425878043d8af977fb3209926bd7b57fed299264805de065763318defe4c2bee815667ddf9aafb15d0079a187b0727354a7c9fce3137b306f1a98ee14bbc51a6344b5da78492f1249c8b000000",
  "txid": "9fb0f72dad4dab1a1f7048d81cd14a69f037651b1ecf40ce0165bf7afbc6ca2a",
  "hash": "225ac8b3269e51c230f96ebe257ab975df441011f69717dbb85d3a6eff57e6a9",
  "size": 5085,
  "vsize": 2278,
  "version": 1,
  "locktime": 139,
  "vin": [
    {
      "txid": "39f91ea188110a1725ce989b120408a8f90a557c33888867571a12d4f47c3e72",
      "vout": 0,
      "scriptSig": {
        "asm": "",
        "hex": ""
      },
      "txinwitness": [
        "e3ddea45c599a736f0045f6c12799f023aabf277077b12ab1047fe9d68a29c1bc7abd070fbc03cb7893e62ab6bfe733e5cded274d570e42d25d06c8bef771dbe0456761c5b0946e839582c39a9e58e563d921b5b799d75ed1683d0b79f761ee39885ba5154704036bd88900a7520b728731387fa004d2820e9dc1d9075e45d745bfc37984470eea524c6995340a76b426d1fa8dfb1fea19c2201634d8a05390210794549a313ddcce0a8fab0bda78e4b8a918882c8038827c04c9322e1f6cb6286005b1de789c784d7ec838f17092f3bf014db6e5b011e6efbb015e39d3a3941e663a6182003a4e9e5273dc15fd43197b46d2039e89f37db0240c60685f8a95e5725f63d3da08707cacdf4a7b76d5c8f0dcf76a08b2af3b2061f3ee1be4b13e4cfd6370cadefe82d31cc72b12aebd743f07e6426a2508d2eb694953477ac0ce1a77a4502fafb27e6cb05d3f1b0c328c5934168ee97a2793d2028d389f2edf4119df77f8e092ffdb170368dc48e9a84f810efa9b1d07d781c174a217b8496282f5dc690f79ef006aaf595c962887a652369fb5a0c86bbf94036b0f42905a182e13f5de3fc6d0830038cdd66515b8d26d5ff64dccea015c1fe3af314c2d18f018e59239c2fcf01cb9451614921ab6b0d3120a5ca5bf16493de6542ad90a20638dddead10ddacb00fc21a0b769a8d6f989d67d30b46bb433289605bf1a5647eb06a2dd90b30939a8b06a57acb938ea9bb945075d17e75a0058404e61254f73c4a54a6a0e04b4bca31113431deded2b64af07a229941f58245ea6f378eafe96f67f0c75071a10ea012e5ca2e1dc0123c9854fb1ba2c1d90aee25fb4bdc576da57898e89d23918dc123cd85d32adcdcd200d09a26185bbbb27f42271194fb3790ec49297b7fd1e916d23a618a14327ee5d17e1f45c892e64a9675639eaee097efca16940f4f4c0b327f756d531b807bd324b7164d69567edf1739a9a7fecfe14f0491dffe4ba597010d0741288e9a2954e9c774c72ec1e46b3d19896b738b6f57f4cc7148a0450691c8af8ed457e3a51d8c8a03f6ece48f3c0b2465a7ef2bb2d567b3f34ff94d04582fd9703139acd014319085ce1af0d097d0e138ed3acffeb1e7a4ed407d1d4ef3c6491e1d402362984604ee37dd4e0a32f2a7985a7182e0eae2c774806ee0e5123e7fb79969513c4f8e3fbd705edd6c023356ec77629e598d74b86f915a9031ed3cf64162adc0e8ecf7d8c8810e00b0ea098b6f010923d32273b3bfaa592685e5828448093829e6af58f66ef089d22a28edbbf69af1e208255d978662fd641a6df97172743c481b0e0758b83519985549c098b1915411f1005788a4f80bbf39863c28810ed95e1f104666d7491dcd6de63f7c28429336a68d46fde30224c4cc337d5a878756e0f1eba05160fbf5f2d4a4a789abf37f16319cdb5f377012145ac7a4a36a64b66a8c0bbcbabf4b06a05bf3575c8353be813ef581121a6946f5e0065597f3d9b60625a962842efa3d8ddf46ff8cdbb5993d41f1cc67921c720c4e8e970921634acb1622f598da4b43d6794a88886cd2b09e918a8cf2b735e70677042e3400ab681d1bb691e3f0b2b9e20c7030f09405eb68d7985759b0be1d78915efa710c8ee863fe85bf65ace3df633172ccc70ff84e620d815685114162082be552e5acb7e5d716246b87031c560ebd9b6fe74935dd0f23faa510542e0a740110e1231f2a3617b3ae82d062b214ffd710f56608f676d65f01ed56a2a7df4ecb1e3adfed4e97ac23746bd98579cf1bcd6bd5a233c49a12b5f07468cc9e81482aecf321401c2316a61200c58b27870ae58bf03875e2247b4434f5f29b3d8a75fda9a4918db0216c84cd60ea5b4797762dd693076453adb6e412196bb5b3b76e0cf8027e24cdb6017ee30f6e0d00ec19076535c14582852010df7f95e23f2b15844de23d68fc7d8791188c8bcd868055f650925f9d83a5b5127a8a2ad1ae673281b213275a6712ca0d4875abbdabfe363609df15eff4a870db4715d2cb6c1f737cc2deae3204bca8c8efc3653008c25a4c8a18ac161c4902947a43ced2a8b1f127939b7cc5e13782ae2bc391fed6a94cd289e0556bbeeeb929885dc8a93bf6f2186caf7dd7b0b1a256a439929201a6f6ddb9ebd8a986f1b7ee76764d8cd0abad235fd3c09d68ed5d4ce127f13920d376fb5d6b1edf1376839df8d603972792a97c169af5f79e53af8771dbfed533eff8df4a7d9b8a17c2d75c945875cc71c7586f853bc0aac1f1576afe96d96de75cd05cd7b25876d69ee2e66fc5d9af22ba000b4a64dca4abf4f713764f717c102d64950d68ab95035dff33dacd824e5fa8398ef11709e9398632cee0a8d6c392a256600505667767a8614668782988b7ea4b63829f072e8661fbbfe6dcd70bb3002133eb843f29db1385d7680a662fb8f69cfe6631e0cb5da791d02af884d8a71635d4115005ace6e74dc4169439f995de5ea440e55c18c5d7826688f8ff8b45d8e54ea08b14bc89d89c242e029305d4cd1a4ef1514313697f1246c31725ea17993a67b4d6f72098caa393745b4ff5a8abfa07e64d308a9ace9acb0961bfce4a15e621c0643354d11e7c3355ffde8bf12d023c629e3e3f5fe2a7c603018c498c3107b2f5ce6895f1787a1ad319c814074476bd0ca1243765acbdc2834994ee58e2c3a0c8cc58f33f7884991b3730a879587c7ffb8025eeb135e4d77d2b9e8e562ab4d4cbdca74f644639f7a3fff0ef49996c49c0d7c56f32dd5641e004898a1ab97140f4258ac81359ee3b89e75dd79bd314d03184091083e1fbe0b73fd892d2a6c647654435dcad4d436f72899b574bda952f1a80b76b8833d829ee3f38747c11f2a0a4bb85c259fc19eaac5f8c3d6a45d73a31ee726d8d8b77763d9e7dfb9e1f4382e0b7f9fb72815d3020d4330e73b5e7b3c861edde3b31603183f36f339ebbb4ee396ec5bb435aeaa9a3b1e337677846bc1d649db54a093cf2e6a22d0d76379c6f26f46866fc0bcb65312beb824ae43a8e7511e96165d72f980c4834e7099d09c758a33b0ec3b1f63f582a7e08deba19285247c9375d2e3d095e8ccd0ba74a1d40514ead9534b4ba388a99642a668231d4f080cf654f8f2a904475e8bf4dac4757d21075a40a3d3139b123bac8e20b0bf91cd751f7c2c6ac5dfa44ad18b11fc99a0828063800e6d38dede5af18c589904c6a8428bc0fd0143302e126cb36444a0ddf5cfac98469dedfb2dda0a3ca7ff5de06445fc0e374c766ead252d5386773d92477b5dd485b16ca3126b40334384665797c8489b8becfd2d800061c3233363c4468878fa3bfcbdff010141d1f30384b6c747f8692a0a4cddfe6101c22304f8ea6a8acb8babec1c7cdd2fe000000000000000000000000000000000e1e2f4001",
        "000c7666614a455f7cf70d0f5b8fba490a90a3f981deaa0d0ffc5960f7d23b48869d89d66d0f46e8380bd844a977f72155e9739b3c8ba3838617eb3cd7e64343d02a792574bb7241707b6b0eb5c45d3ec5b22d5efff8413bd41ac7e057b76eb4116ca4b1e4935df286abc0daab8867544880ae8b52a26c0f533aa7e25e31d117964067108dc6cad9f9da1bf6fd975c42fa18a304bd347ff6e6a4508e65a191306fe4467f3f6b98640b6e720316dec83020477f23aadc7439cb5e3a0e26669f7edbc8fc060f0a090704de58008a5a81a7d026ad9b9c4625dfef15402b7fc606e59b9b4afd6caab4cd428f84fdc44e267c493aeaa6a12424503aca80d5cd9de3d88139d2b6526b7de1c9afe5e39262d7d71c2a87457cc4380a9e63f6c6584323c0cf84fa0a4e80bb5855260a1b7dd14883fc4416007598c033217b257b0017b9c8a29d2f98d975bbd06a508c6d0339cef09bd66bc65df11d956be2b0d00f5ac17193dfe76f6f8ec892bf8f0d51860a09e4d64ba493b851ccd88e2d397b5170460788992f1f58e307c028ed12d145056051114c050fa1b54fd5bb12ef8a6acf9a1f8df281fb53b6ca1cf07305b7624ea56e315df9e0bce5e72757590576808000073c7cc6f532bf0bdffe7ff038d1cd8edf152df3d14b0a4789b680a318647a81aefee210bcb38d82f73be90b88b6e99781c2376051d12a4df4bc226f5189b9020dd9485f576459731df2a79291d868738eb53db2254dd50b153aec6e4174109843d2217b0d2f83d29777ee06fed480ae5832b1a55a5ecdf5ddeeeca1019a205402daaf16c0222a793aa98de2855bb1203c91268fdfb594304b4b1ef4f1d7596776bab8489c2383cba79ff1125b52e78c1d7cce6c20b3ba2bf463e8c877c13f7820107ca510e78c9f13abe7de1ec2f2a27a5fd07a6e13704e4f56aa9e14d7254e5d19f52e65cc6bcade015d2356ac69ba09f2fbb75f0351f2cafbdad348cd7585ef481df86d36c3739b3b342bfd7c866eba4d0543bd15b0cb62b81efdc3c240af40bd9b11b96e00e7ac5349abc588422c670dd1fb9beb7069dcabca98e2aa4d6883162304d4d58d10650fd91ce85978a59e176251965d0108920d0b7ef3c64bc83fc9352ff43aa1ea9ddc6dd2ff47f5ab0a07860d933eea367f2fc88707d89c2f54c5a60f2e48d8bae2e6c6758ff10fe538a7a1df066a15a4bbb37c121ae8f6d98b67a13100186065c3b7eaf2364a3097662540397805a8a9e501fbbe6a5074ae995029e579e01ddf4bacbc10b0ff4ac9e3e282d786f2f2d6a126c0993ffab247c809310e41ffa0019b860984a90677c8478b09a31cb1a8a209f72de463d4f8c2df57d41c544ffff7f5d2ba15f7539d2593ce7cbb55c723a8042871b96469e7bafb2c2fab1271c7efda71f65db1a27a1bc02559ca5cc291ee116fcc3a678df07b20ec47916f983e947d8e8afc622c4222a37fa72fbd68955a348530e5144aaa42957743766eedb4c50e61d62cc81ea193770c687955bc74d86027a61d50f42ea6b50d15f73ea93a6a9f07b233b7d7eedc0bf65bc35e8c528d85b5321dae8ee1a550f45294ba9206881d97bc084c245a0104b7adb1a70e72b84e73b862639ec05f9cec23656bf3ea36b6aabeadf268021991c93da5476ef43d827a3b2a8b5c8bd08f22977795ec41f46509fede8663aa2c9ff8504a08bf7eebaa3dff3b33e20f5c53102346615b05959371f75bdb4838dff4eb25251402f06a10425878043d8af977fb3209926bd7b57fed299264805de065763318defe4c2bee815667ddf9aafb15d0079a187b0727354a7c9fce3137b306f1a98ee14bbc51a6344b5da78492f1249c"
      ],
      "sequence": 4294967294
    }
  ],
  "vout": [
    {
      "value": 499958.3071,
      "n": 0,
      "scriptPubKey": {
        "asm": "1 eb8382179c1999b4910ceca9c60cb595a254446a4157d425718e09b4286dfe88",
        "hex": "5120eb8382179c1999b4910ceca9c60cb595a254446a4157d425718e09b4286dfe88",
        "reqSigs": 1,
        "type": "witness_v1_scripthash",
        "addresses": [
          "3QJmnh"
        ]
      }
    },
    {
      "value": 1.0,
      "n": 1,
      "scriptPubKey": {
        "asm": "OP_RETURN e3db588fbff484de906cedae29c91c2ed708cdc47213faf904969263e39c0469 e57db2528bb2201b6ffcb74e3e6582cd917c4b76ccdd08f3bb0c86220e5f5d3ec55d9272ab92003b4fdc976e1e45a2edb15c6b56ecfd28d39b2ca6022e7f7d1ea53df212cbf2605b2fbcf70e7e25c28dd13c0b368c9d48b3fb4cc6624e1f1d7e851dd232ebd2407b0f9cd72e5e05e2adf11c2b16acbd6893db6ce6426e3f3d5e65fd32d20b32a09bef7c37cebee5024d11fccbf64c5d88733b8c06a28edfddbe45dd12f22b1280bbcf5c17ee9ec5226d31dcebd66c7da8531bac2682aefffd9e25bd72924b72e0dbaf3c778efea5420d51bc8bb60c1dc8337bcc46e2ce9f9dfe059d52b26b52c0fb8f1c57aede85622d719cab962c3de8135bec66c2eebfbddee57db2528bb2201b6ffcb74e3e6582cd917c4b76ccdd08f3bb0c86220e5f5d3ec55d9272ab92003b4fdc976e1e45a2edb15c6b56ecfd28d39b2ca6022e7f7d1ea53df212cbf2605b2fbcf70e7e25c28dd13c0b368c9d48b3fb4cc6624e1f1d7e851dd232ebd2407b0f9cd72e5e05e2adf11c2b16acbd6893db6ce6426e3f3d5e65fd32d20b32a09bef7c37cebee5024d11fccbf64c5d88733b8c06a28edfddbe45dd12f22b1280bbcf5c17ee9ec5226d31dcebd66c7da8531bac2682aefffd9e25bd72924b72e0dbaf3c778efea5420d51bc8bb60c1dc8337bcc46e2ce9f9dfe059d52b26b52c0fb8f1c57aede85622d719cab962c3de8135bec66c2eebfbddee57db2528bb2201b6ffcb74e3e6582cd917c4b76ccdd08f3bb0c86220e5f5d3ec55d9272ab92003b4fdc976e1e45a2edb15c6b56ecfd28d39b2ca6022e7f7d1ea53df212cbf2605b2fbcf70e7e25c28dd13c0b368c9d48b3fb4cc6624e1f1d7e851dd232ebd2407b0f9cd72e5e05e2adf11c2b16acbd6893db6ce6426e3f3d5e65fd32d20b32a09bef7c37cebee5024d11fccbf64c5d88733b8c06a28edfddbe45dd12f22b1280bbcf5c17ee9ec5226d31dcebd66c7da8531bac2682aefffd9e25bd72924b72e0dbaf3c778efea5420d51bc8bb60c1dc8337bcc46e2ce9f9dfe059d52b26b52c0fb8f1c57aede85622d719cab962c3de8135bec66c2eebfbddee57db2528bb2201b6ffcb74e3e6582cd917c4b76ccdd08f3bb0c86220e5f5d3ec55d9272ab92003b4fdc976e1e45a2edb15c6b56ecfd28d39b2ca6022e7f7d1ea53df212cbf2605b2fbcf70e7e25c28dd13c0b368c9d48b3fb4cc6624e1f1d7e851dd232ebd2407b0f9cd72e5e05e2adf11c2b16acbd6893db6ce6426e3f3d5e65fd32d20b32a09bef7c37cebee5024d11fccbf64c5d88733b8c06a28edfddbe45dd12f22b1280bbcf5c17ee9ec5226d31dcebd66c7da8531bac2682aefffd9e25bd72924b72e0dbaf3c778efea5420d51bc8bb60c1dc8337bcc46e2ce9f9dfe059d52b26b52c0fb8f1c57aede85622d719cab962c3de8135bec66c2eebfbddee57db2528bb2201b6ffcb74e3e6582cd917c4b76ccdd08f3bb0c86220e5f5d3ec55d9272ab92003b4fdc976e1e45a2edb15c6b56ecfd28d39b2ca6022e7f7d1ea53df212cbf2605b2fbcf70e7e25c28dd13c0b368c9d48b3fb4cc6624e1f1d7e851dd232ebd2407b0f9cd72e5e05e2adf11c2b16acbd6893db6ce6426e3f3d5e65fd32d20b32a09bef7c37cebee5024dc5618c9acadb8e750161a90ec8b58e5ebf5df444c0e5f03923d94f0c612dda31",
        "hex": "6a20e3db588fbff484de906cedae29c91c2ed708cdc47213faf904969263e39c04694db004e57db2528bb2201b6ffcb74e3e6582cd917c4b76ccdd08f3bb0c86220e5f5d3ec55d9272ab92003b4fdc976e1e45a2edb15c6b56ecfd28d39b2ca6022e7f7d1ea53df212cbf2605b2fbcf70e7e25c28dd13c0b368c9d48b3fb4cc6624e1f1d7e851dd232ebd2407b0f9cd72e5e05e2adf11c2b16acbd6893db6ce6426e3f3d5e65fd32d20b32a09bef7c37cebee5024d11fccbf64c5d88733b8c06a28edfddbe45dd12f22b1280bbcf5c17ee9ec5226d31dcebd66c7da8531bac2682aefffd9e25bd72924b72e0dbaf3c778efea5420d51bc8bb60c1dc8337bcc46e2ce9f9dfe059d52b26b52c0fb8f1c57aede85622d719cab962c3de8135bec66c2eebfbddee57db2528bb2201b6ffcb74e3e6582cd917c4b76ccdd08f3bb0c86220e5f5d3ec55d9272ab92003b4fdc976e1e45a2edb15c6b56ecfd28d39b2ca6022e7f7d1ea53df212cbf2605b2fbcf70e7e25c28dd13c0b368c9d48b3fb4cc6624e1f1d7e851dd232ebd2407b0f9cd72e5e05e2adf11c2b16acbd6893db6ce6426e3f3d5e65fd32d20b32a09bef7c37cebee5024d11fccbf64c5d88733b8c06a28edfddbe45dd12f22b1280bbcf5c17ee9ec5226d31dcebd66c7da8531bac2682aefffd9e25bd72924b72e0dbaf3c778efea5420d51bc8bb60c1dc8337bcc46e2ce9f9dfe059d52b26b52c0fb8f1c57aede85622d719cab962c3de8135bec66c2eebfbddee57db2528bb2201b6ffcb74e3e6582cd917c4b76ccdd08f3bb0c86220e5f5d3ec55d9272ab92003b4fdc976e1e45a2edb15c6b56ecfd28d39b2ca6022e7f7d1ea53df212cbf2605b2fbcf70e7e25c28dd13c0b368c9d48b3fb4cc6624e1f1d7e851dd232ebd2407b0f9cd72e5e05e2adf11c2b16acbd6893db6ce6426e3f3d5e65fd32d20b32a09bef7c37cebee5024d11fccbf64c5d88733b8c06a28edfddbe45dd12f22b1280bbcf5c17ee9ec5226d31dcebd66c7da8531bac2682aefffd9e25bd72924b72e0dbaf3c778efea5420d51bc8bb60c1dc8337bcc46e2ce9f9dfe059d52b26b52c0fb8f1c57aede85622d719cab962c3de8135bec66c2eebfbddee57db2528bb2201b6ffcb74e3e6582cd917c4b76ccdd08f3bb0c86220e5f5d3ec55d9272ab92003b4fdc976e1e45a2edb15c6b56ecfd28d39b2ca6022e7f7d1ea53df212cbf2605b2fbcf70e7e25c28dd13c0b368c9d48b3fb4cc6624e1f1d7e851dd232ebd2407b0f9cd72e5e05e2adf11c2b16acbd6893db6ce6426e3f3d5e65fd32d20b32a09bef7c37cebee5024d11fccbf64c5d88733b8c06a28edfddbe45dd12f22b1280bbcf5c17ee9ec5226d31dcebd66c7da8531bac2682aefffd9e25bd72924b72e0dbaf3c778efea5420d51bc8bb60c1dc8337bcc46e2ce9f9dfe059d52b26b52c0fb8f1c57aede85622d719cab962c3de8135bec66c2eebfbddee57db2528bb2201b6ffcb74e3e6582cd917c4b76ccdd08f3bb0c86220e5f5d3ec55d9272ab92003b4fdc976e1e45a2edb15c6b56ecfd28d39b2ca6022e7f7d1ea53df212cbf2605b2fbcf70e7e25c28dd13c0b368c9d48b3fb4cc6624e1f1d7e851dd232ebd2407b0f9cd72e5e05e2adf11c2b16acbd6893db6ce6426e3f3d5e65fd32d20b32a09bef7c37cebee5024dc5618c9acadb8e750161a90ec8b58e5ebf5df444c0e5f03923d94f0c612dda31",
        "type": "nulldata"
      }
    }
  ],
  "blockhash": "fe774b47c0e88c04e0fb50de4979690042b0828e482e852985a1cce393f947a2",
  "confirmations": 1,
  "time": 1764183806,
  "blocktime": 1764183806
}