{
  "hex": "01000000000101c09f4b97c4c9bc2cf0116d36f491218d170bb85cec4e2b0547c9991a9dbc02130000000000feffffff0200e1f50500000000fdd5046a204b17981720318234b34292ee61f7db6f7981e57fb2ef2e282b2d3989c43bc03f4db0046ab8cf53ced4b159e39a657aecaaf124d4f171ecbde31dea9a306217b3d233954a98ef73eef49179c3ba455acc8ad104f4d151cc9dc33dcaba10423793f213b52af88f138e94f119a3da253aaceab16494b131acfda35daada702257f39273d50ad8af33aeb4d13983fa051a8cca9144b491118cdd837d8afa500277d3b253f5ea384fd34e5431d9631ae5fa6c2a71a45471f16c3d639d6a1ab0e2973352b315ca186ff36e7411f9433ac5da4c0a51847451d14c1d43bd4a3a90c2b713729335aa780f930e147199235aa5ba2c6a31e41431b12c7d23dd2a5af0a2d77312f3558a582fb32e3451b9037a859a0c4a11c43411910c5d03fd0a7ad082f75332d3756ab8cf53ced4b159e39a657aecaaf124d4f171ecbde31dea9a306217b3d233954a98ef73eef49179c3ba455acc8ad104f4d151cc9dc33dcaba10423793f213b52af88f138e94f119a3da253aaceab16494b131acfda35daada702257f39273d50ad8af33aeb4d13983fa051a8cca9144b491118cdd837d8afa500277d3b253f5ea384fd34e5431d9631ae5fa6c2a71a45471f16c3d639d6a1ab0e2973352b315ca186ff36e7411f9433ac5da4c0a51847451d14c1d43bd4a3a90c2b713729335aa780f930e147199235aa5ba2c6a31e41431b12c7d23dd2a5af0a2d77312f3558a582fb32e3451b9037a859a0c4a11c43411910c5d03fd0a7ad082f75332d3756ab8cf53ced4b159e39a657aecaaf124d4f171ecbde31dea9a306217b3d233954a98ef73eef49179c3ba455acc8ad104f4d151cc9dc33dcaba10423793f213b52af88f138e94f119a3da253aaceab16494b131acfda35daada702257f39273d50ad8af33aeb4d13983fa051a8cca9144b491118cdd837d8afa500277d3b253f5ea384fd34e5431d9631ae5fa6c2a71a45471f16c3d639d6a1ab0e2973352b315ca186ff36e7411f9433ac5da4c0a51847451d14c1d43bd4a3a90c2b713729335aa780f930e147199235aa5ba2c6a31e41431b12c7d23dd2a5af0a2d77312f3558a582fb32e3451b9037a859a0c4a11c43411910c5d03fd0a7ad082f75332d3756ab8cf53ced4b159e39a657aecaaf124d4f171ecbde31dea9a306217b3d233954a98ef73eef49179c3ba455acc8ad104f4d151cc9dc33dcaba10423793f213b52af88f138e94f119a3da253aaceab16494b131acfda35daada702257f39273d50ad8af33aeb4d13983fa051a8cca9144b491118cdd837d8afa500277d3b253f5ea384fd34e5431d9631ae5fa6c2a71a45471f16c3d639d6a1ab0e2973352b315ca186ff36e7411f9433ac5da4c0a51847451d14c1d43bd4a3a90c2b713729335aa780f930e147199235aa5ba2c6a31e41431b12c7d23dd2a5af0a2d77312f3558a582fb32e3451b9037a859a0c4a11c43411910c5d03fd0a7ad082f75332d3756ab8cf53ced4b159e39a657aecaaf124d4f171ecbde31dea9a306217b3d233954a98ef73eef49179c3ba455acc8ad104f4d151cc9dc33dcaba10423793f213b52af88f138e94f119a3da253aaceab16494b131acfda35daada702257f39273d50ad8af33aeb4d13983fa051a8cca9144b491118cdd837d8afa500277d3b253f5ea384fd34e5431d9631ae5fa6c2a71a4d8b0f8cd9ce21719f4429cd11cd82bb7a1f11b898ffdda972897d95248077c39202367d2782d0000225120c21f794d535a4bd4d1230fecbf068884886442c1e0503daa8b9a2a0cadace83502fd75095f651ee3d8118f057c6cceffe0b8428a349bfafb2076ef8f4a022881f4bd15087e88ee75c6dd592238d7a9ac06bbcdb814d0308d90857063ea1a9f66931c174c2b7fa7c8f717cfa67d3c5a7ae8103d81078312e67f7d04341a2de48344b5843370fe0746ea1dbb591d97ef4723a3b9d6e24ab961913305764d412453282ca4fde9634cee1d6692b9df3c4d807b477875adbfed615df13414c42b8232e196b53168779e8be265ae02749d94629720066de79c53245da732cd084d26ec10de6732b3aca779d54828aa49da3ef24b6f2c8df87c96d8509a6f9c1c1f11fe67207b87b07477cab1313c88a249527f7455826442d13eaf64fdb587d808eca6ae7e39fef66fd5602174177eeceaee13039658a42f5eb53c36d89bd4e5d1931866450c95c0a89ff0d2245695aff410f101fc0a10fd981360b53d75789a2b3c1244706c97ee1d7e3d149ac00c9debc1730a3382075fdc08e3acdbb9624808304ab508cda3e2aa28b0da913cb1355b6e6780a1680c79ca5507a5b68228dfbda11730f1d0e8a8b95dff7b83c51cfc86d3ae28ebbc9fb3d4d23bf638e4b377242196092455d25f33b65612cecc7f4fbd3063fe66a091549cc76e02e7b6e82e7ffd30aecc6b4fc47fa78ff3343226c331282ba3cb1b310af31f113c0dcaea6b75d9d8ad92873a87376753233988ff07b50cc92695d925b9fa516a96084205ccf65b0befa5ba4ec14269ef66add0ff3c6a33d86ac02ce70abf34cf8d8a578786458216b3323ea445410b70b1f118af57373ae6f0bb0c83b241d632cd0aefbf96620861f9dd4c1a4325ca260a248c071562a84c618d575b11fe9f7cb79808e3bf71c40d6c147fbe9b08262148e7f545d2a9194f3290116c7820dafb3789dcf83c7e0159e36d281c9ffa2a9ab698b489801aa8f57b8a4ad933c5ead5d5ac6dcf96000883c0049298ba6454e74e49d2478518c8e76a56a45966761cdbca6def32b3333dc4d4f4e6ecd77af2f364d71b9d37d653d2a3143cd6375517b4418dc273972287cc059bf2fdd2773f166c9f9dcd10f7b031eea68722ec12d0c7ea7e19050f8beca2022730d6093b7876743deb758c9147422911c62d444063e5c8fbf7a4e32a08169c87ea8738e98f765f59cd0d722a2d8d20f986001162de31226fbd1d825fdc79229e22d879f97a2bd45a3b0198bb70a8e18dac5526e30e59d426f734376370f9c446b97d9cd154f94927a2c28e124f9324d70e2e5cefb4dc903235aa6265e92bf1078717e6f2f6c91e6b512c883372c98d8c8a7974230658de8ade4e5359cc31a62be38bbb7b5740f6e81f536be07c20d17ef93029d029ef10d4ec960075ed1b3b208faf7634ca8dc0dcd4c37acfc1f14f8b6d78ea50dd94d39c6fe8ebd139f8e2cb56aad419e832359d397691bd56481d41c6ff27127deae6e0ba46e7bab3a18824190287cc6a503472894a1f88394f9d1e8675963e1e41c65e50944a920ab8710d53102800fd07ace7541b9f61c457c27de9424cd5ea63e75508cf8182643562956edbcea9ce0f153a8b397669a5e5a49244055a1cad295dc3df8b23ca75d36bac184b1dc9aa6b9dddd2c321748e8ddce2eb66f4940d7912639862563d4e26096107ad968774f04c25bb41923b19635c5a4c392a5e73069de2689ab5cbd5bf6bda996f7874979665584534df3868cef05a4e99f0d3cb6015c9fc31b4d07b384533620ea73bdf0e6b1fd88073453c45a5fcc5364ca72d1ec1eda82f32c25028c10997be7e6b9dd7ce0d476c3bde90e4a11d032fe4d5b2e7f2629c7663f3665251bfb2db5cc1cc48993a3afcfc5201e397dca50609af2ad731ccd102ab6c64e6afa8a406a86845c015e8cb547ed4ac198653eb114a24e58b564aa0a9e7629ab183f53080fca27964291083d7ac63e5edd0fccbb0acd4888a1230a307bfa74c0f84502c728f2513e7f3e4bd07c9ac1577cfbc5d03067dca3277ae9dc0364524d6d187a124828d8e54011f652bd6a6af674d5efde4b93768a56075bf96f88afa271bba3f6c7f69cd6724769c807d6288e728df11a435bc447be9800dcfa5024a7e88871246dff2b9b784324cfdbafbaa154d91402a15d74d5eac3647b53fd14ffe0b331c87d3fc202f6f4bfb6217e091f1ecd35dd4223bd822a7ff76f1b024d7b42628636733289c8108f8f8f4ab69a577e4890bf6318bb32e59ed936d04b389645b1a24323ae74ad7b42681cb353848f4b488becf7e1a8a4cd5ff3e109622dde954cfdfadf44d79e8b00257818c2f6fd09d5d374df94c2671befe59c0d93cbcc3fc19e20b40cf825e4e2783526f17c973f6df82caf6bdfe0b59e6655b73b5784742b76ca9b56ae9e6adf51d467114f144f9c54efcf3e4974b7388ca0c59516016e613454c3a106cfa75fa82c33930cbeead42507580d10ac6f86256104b4c60706236ec25237b13b61566796da081aa45a6567e04da2ad478cf0acbd6a7f85da8a84fc8809ecc38a17e729956ba02796dcf34f62b1d590ec5c269c2330744e634a7cc8e7542b074eddf88f8c320307be6d603a425a25d22e0aa5bd1f836b8e2a964809875b56b0fda244d70ef77a91d908e4f6dcca22bca2fd56cc038a795d01b3719021636a2aeb31ac431f5ce288dc5c821fd0026112203d71a69074c514cbc96d7be61a4df1b05f54f57a04cdc349bdcb30e8a9e85526f52a394bd69bf1851820c862df37a4f9dc648e291303880581a1fd50d806ee73144ee22a343b3b11f496651e1a178b73f1066a4b28efb0536e1d29910e64ca46fc54fc83d3dca17c6c850ecacb02eee143ee4069a35e2ce1b54bdb69cd2ef0f816fbcd51c234996e78a48b4d6ee63225e04c0342844641dc92e5c461f3c98eeb08d32fb80ae6ceb3de16bf7a3d735a2d926619b385f0a9e48a82fac54aee239bd38f333a50e97daf4e221e0f2a2c3bb681cef103baf59c9e327d9a1a8d6e392313eedbf53d8d43767ae55b82f3e0cfa9d211c5248fb727f8030d307ad0e79ea2135425a60936c6e5f00bd7d33c31f01e8e7ae4aef7c12ff41c67d915286f577452e138fb9a9a85750cfe71d8ceaa2c97bb7b60639fa77f3925778849e4f6bf1b7cba5c420e89a960b8a4c4401bb5623ade894f676ce6fd8ef967d158c285629663051f6d317073c7a8c814d5c354e9850e2f55271bab0b03a4c673cf87efe01e5ac5390f970764752e4d265d4753e8e9529e640de352fbe387da8c7fa652976e426ae41cafed85e059dd0596293b8476a4b057e629b960e1ca6b0891f7dc7ad171a743e1ea46508ba587ae55c093147485b5f6f73aabfc0d3fb052e6480879ba4b3c4c9f2f4f7f9fd292f3236444a565a5e5f6668879fa6b3b9d3f60003121d2c2d3037394749555d65686d7bb0b6c2c9e1ecf4fc00000000000000000d1c2f4801fd210500dec8fceddba0d03d3b2422cf9da47354487aa64db99d6c94527871c1f81a3a25f92a9d907593079daa5f8755d167c3d1895c8a29bd653fbbb08d3404ede9bfed41fe698957d4a8ce2b365ebec578a7e9d0649db2970f49f3db374f7d966593bb0d4f622c6338f91b5858a297a27da05282934b2849f7602bbfef7d8557dd194c4153fe4ad569e995f759165d189a2748f097620b503f381bc3410cc425172cc10041d898b158cd4978f0181eb0fc4e203ee3c394b40d93a21018524cfa6b2f7549444060c4f2329dab98d40c89727120e2e4019ddcb36215d78caf2cec8c538259bd300d841443460ea179b72ed74c72d070cab391b73d854f5b0abb027c14d7155e50d8d167f8c293008e95803b97f2d41b71f57a497769058cc7a4e931c1805f2f4642458ce227afd642bfa13b99d2f760785a3e9eab0e9e74099b937997022ab58b956cb1d2089465b350af2754d3bc51e2b6b4f7310c220564ad386182e88ad8dbc81b49df974dfb2304a1ed4a330916799f8ae05bd73d91756bb8f39299e8e22beb0377c3c733aabb04de47f27452a3cbb91e0f1f70ceac6f68ea555ad89eb5a06cb5d886292abcddb862e7657dd1858e3143994225fcc5fd05705e13179b039671090435ca9b9ebdb0b51a3db21c790d8665c83ee8e4f11f4ed7fa99cceb6e739d410cc3afaa068e2ab90443353ec8d076a9a91ac912dd89a605b3e70da8b6bb36c17b277702cc9d97296fc3aa074ca8c41e5c37a4958691376494fafabcc98f94d685548eec51148d5a1c72bbb4ad4da314704f2909b4af7ae346c6b092dbdd555d29af96904ee6b4600015a5417f6816a01da74fcc18300cfd3c5eee9aa2907ef8dbc81354ace2ce0f1fc867fd815256e166913d8b2d35241f38bd7a0516eba149f5c7f8fe3e4a5411789ba4734c254158d65416cf6086db0ab5952b594c97e9d1b3162361425259f67d0089e7e31943ff91cea889234225ce8269f414d9114dbae68595d7c4dcfa872ca9849cb267c3d60755bb1ddabdba55fb88933601408311c24ec860196b702e45d8fe3003dce9fad7cd82781932ac672798523ad3dac442dfb12c9e5db76091021d72a451ca4f9e23b9d842445f1370d2f5509c71f7d286c15d083b83563ffb7d0abe4532c6c02c45574a05cb0d52edbebcc09bea40f8e837d6f77c0aba7cd4c14d73d4b7c90ade03f95b96d4afc79eea3fc7314f3e544490f244fbdabd33acce61ac3b2c6de80c840149be544b350662b88ad419febd8989a83d783d3bbb482c4361937cd297e25235c09ee0de805f31a88e4b1bbb4d8d4cef05bdfc951f2159cdd26a5f59281ca78d5ad6b03135a5dde1cf0cd3b629ad68746a37557c9b37494e748ebcd23054b29db48c4e0a23e44f8124d09eceb4b5b82c1da744723828cecf641e40a95ff74a8ae218c4b36db7b9dd2b43cc1c4acfe27bc93922fb291f9448cc3dc09ec99192f0b8ef20ccbd4d8711cd77fb15b22078ba88af73b7828e67c26be4785e63a9dfebf15ef37adba3a373392da22848905be5190a6165a73437cdb09da01a09eefc8359ecd59d26d18cfff67ba5457dad904367b42720da725369cfee2ad438daf69ec3e643257f02c0652d1a92a8b4717a9512c3ce6eba228190da2d2bdfd90df6b0f005315cefe845d780d3a40d7f9f2c2c4ad84a8f870c1d5c6c511a0908ba0c226a67d07fe1cba925e3eee68db4e78621265f73b41b3a28a8143292d0b479734ebec5f0e7d15d17704b1eabc62c66554dbb784690a3397eadaf5af52b5285278eada740d0a3e07ecf84e7bfad85920f1e854e9c2d476f0081d67c4278798f8877eff49e56b1379ce4da80000000",
  "txid": "98fd4b404212f0181a7e0fe15b174a539ded78e58be9b079c87213fe1de4a3ac",
  "hash": "936a498ec13d1567b04bf926c2841d7d73952f07f156d2dd92745c52bd828f79",
  "size": 5085,
  "vsize": 2278,
  "version": 1,
  "locktime": 128,
  "vin": [
    {
      "txid": "1302bc9d1a99c947052b4eec5cb80b178d2191f4366d11f02cbcc9c4974b9fc0",
      "vout": 0,
      "scriptSig": {
        "asm": "",
        "hex": ""
      },
      "txinwitness": [
        "5f651ee3d8118f057c6cceffe0b8428a349bfafb2076ef8f4a022881f4bd15087e88ee75c6dd592238d7a9ac06bbcdb814d0308d90857063ea1a9f66931c174c2b7fa7c8f717cfa67d3c5a7ae8103d81078312e67f7d04341a2de48344b5843370fe0746ea1dbb591d97ef4723a3b9d6e24ab961913305764d412453282ca4fde9634cee1d6692b9df3c4d807b477875adbfed615df13414c42b8232e196b53168779e8be265ae02749d94629720066de79c53245da732cd084d26ec10de6732b3aca779d54828aa49da3ef24b6f2c8df87c96d8509a6f9c1c1f11fe67207b87b07477cab1313c88a249527f7455826442d13eaf64fdb587d808eca6ae7e39fef66fd5602174177eeceaee13039658a42f5eb53c36d89bd4e5d1931866450c95c0a89ff0d2245695aff410f101fc0a10fd981360b53d75789a2b3c1244706c97ee1d7e3d149ac00c9debc1730a3382075fdc08e3acdbb9624808304ab508cda3e2aa28b0da913cb1355b6e6780a1680c79ca5507a5b68228dfbda11730f1d0e8a8b95dff7b83c51cfc86d3ae28ebbc9fb3d4d23bf638e4b377242196092455d25f33b65612cecc7f4fbd3063fe66a091549cc76e02e7b6e82e7ffd30aecc6b4fc47fa78ff3343226c331282ba3cb1b310af31f113c0dcaea6b75d9d8ad92873a87376753233988ff07b50cc92695d925b9fa516a96084205ccf65b0befa5ba4ec14269ef66add0ff3c6a33d86ac02ce70abf34cf8d8a578786458216b3323ea445410b70b1f118af57373ae6f0bb0c83b241d632cd0aefbf96620861f9dd4c1a4325ca260a248c071562a84c618d575b11fe9f7cb79808e3bf71c40d6c147fbe9b08262148e7f545d2a9194f3290116c7820dafb3789dcf83c7e0159e36d281c9ffa2a9ab698b489801aa8f57b8a4ad933c5ead5d5ac6dcf96000883c0049298ba6454e74e49d2478518c8e76a56a45966761cdbca6def32b3333dc4d4f4e6ecd77af2f364d71b9d37d653d2a3143cd6375517b4418dc273972287cc059bf2fdd2773f166c9f9dcd10f7b031eea68722ec12d0c7ea7e19050f8beca2022730d6093b7876743deb758c9147422911c62d444063e5c8fbf7a4e32a08169c87ea8738e98f765f59cd0d722a2d8d20f986001162de31226fbd1d825fdc79229e22d879f97a2bd45a3b0198bb70a8e18dac5526e30e59d426f734376370f9c446b97d9cd154f94927a2c28e124f9324d70e2e5cefb4dc903235aa6265e92bf1078717e6f2f6c91e6b512c883372c98d8c8a7974230658de8ade4e5359cc31a62be38bbb7b5740f6e81f536be07c20d17ef93029d029ef10d4ec960075ed1b3b208faf7634ca8dc0dcd4c37acfc1f14f8b6d78ea50dd94d39c6fe8ebd139f8e2cb56aad419e832359d397691bd56481d41c6ff27127deae6e0ba46e7bab3a18824190287cc6a503472894a1f88394f9d1e8675963e1e41c65e50944a920ab8710d53102800fd07ace7541b9f61c457c27de9424cd5ea63e75508cf8182643562956edbcea9ce0f153a8b397669a5e5a49244055a1cad295dc3df8b23ca75d36bac184b1dc9aa6b9dddd2c321748e8ddce2eb66f4940d7912639862563d4e26096107ad968774f04c25bb41923b19635c5a4c392a5e73069de2689ab5cbd5bf6bda996f7874979665584534df3868cef05a4e99f0d3cb6015c9fc31b4d07b384533620ea73bdf0e6b1fd88073453c45a5fcc5364ca72d1ec1eda82f32c25028c10997be7e6b9dd7ce0d476c3bde90e4a11d032fe4d5b2e7f2629c7663f3665251bfb2db5cc1cc48993a3afcfc5201e397dca50609af2ad731ccd102ab6c64e6afa8a406a86845c015e8cb547ed4ac198653eb114a24e58b564aa0a9e7629ab183f53080fca27964291083d7ac63e5edd0fccbb0acd4888a1230a307bfa74c0f84502c728f2513e7f3e4bd07c9ac1577cfbc5d03067dca3277ae9dc0364524d6d187a124828d8e54011f652bd6a6af674d5efde4b93768a56075bf96f88afa271bba3f6c7f69cd6724769c807d6288e728df11a435bc447be9800dcfa5024a7e88871246dff2b9b784324cfdbafbaa154d91402a15d74d5eac3647b53fd14ffe0b331c87d3fc202f6f4bfb6217e091f1ecd35dd4223bd822a7ff76f1b024d7b42628636733289c8108f8f8f4ab69a577e4890bf6318bb32e59ed936d04b389645b1a24323ae74ad7b42681cb353848f4b488becf7e1a8a4cd5ff3e109622dde954cfdfadf44d79e8b00257818c2f6fd09d5d374df94c2671befe59c0d93cbcc3fc19e20b40cf825e4e2783526f17c973f6df82caf6bdfe0b59e6655b73b5784742b76ca9b56ae9e6adf51d467114f144f9c54efcf3e4974b7388ca0c59516016e613454c3a106cfa75fa82c33930cbeead42507580d10ac6f86256104b4c60706236ec25237b13b61566796da081aa45a6567e04da2ad478cf0acbd6a7f85da8a84fc8809ecc38a17e729956ba02796dcf34f62b1d590ec5c269c2330744e634a7cc8e7542b074eddf88f8c320307be6d603a425a25d22e0aa5bd1f836b8e2a964809875b56b0fda244d70ef77a91d908e4f6dcca22bca2fd56cc038a795d01b3719021636a2aeb31ac431f5ce288dc5c821fd0026112203d71a69074c514cbc96d7be61a4df1b05f54f57a04cdc349bdcb30e8a9e85526f52a394bd69bf1851820c862df37a4f9dc648e291303880581a1fd50d806ee73144ee22a343b3b11f496651e1a178b73f1066a4b28efb0536e1d29910e64ca46fc54fc83d3dca17c6c850ecacb02eee143ee4069a35e2ce1b54bdb69cd2ef0f816fbcd51c234996e78a48b4d6ee63225e04c0342844641dc92e5c461f3c98eeb08d32fb80ae6ceb3de16bf7a3d735a2d926619b385f0a9e48a82fac54aee239bd38f333a50e97daf4e221e0f2a2c3bb681cef103baf59c9e327d9a1a8d6e392313eedbf53d8d43767ae55b82f3e0cfa9d211c5248fb727f8030d307ad0e79ea2135425a60936c6e5f00bd7d33c31f01e8e7ae4aef7c12ff41c67d915286f577452e138fb9a9a85750cfe71d8ceaa2c97bb7b60639fa77f3925778849e4f6bf1b7cba5c420e89a960b8a4c4401bb5623ade894f676ce6fd8ef967d158c285629663051f6d317073c7a8c814d5c354e9850e2f55271bab0b03a4c673cf87efe01e5ac5390f970764752e4d265d4753e8e9529e640de352fbe387da8c7fa652976e426ae41cafed85e059dd0596293b8476a4b057e629b960e1ca6b0891f7dc7ad171a743e1ea46508ba587ae55c093147485b5f6f73aabfc0d3fb052e6480879ba4b3c4c9f2f4f7f9fd292f3236444a565a5e5f6668879fa6b3b9d3f60003121d2c2d3037394749555d65686d7bb0b6c2c9e1ecf4fc00000000000000000d1c2f4801",
        "00dec8fceddba0d03d3b2422cf9da47354487aa64db99d6c94527871c1f81a3a25f92a9d907593079daa5f8755d167c3d1895c8a29bd653fbbb08d3404ede9bfed41fe698957d4a8ce2b365ebec578a7e9d0649db2970f49f3db374f7d966593bb0d4f622c6338f91b5858a297a27da05282934b2849f7602bbfef7d8557dd194c4153fe4ad569e995f759165d189a2748f097620b503f381bc3410cc425172cc10041d898b158cd4978f0181eb0fc4e203ee3c394b40d93a21018524cfa6b2f7549444060c4f2329dab98d40c89727120e2e4019ddcb36215d78caf2cec8c538259bd300d841443460ea179b72ed74c72d070cab391b73d854f5b0abb027c14d7155e50d8d167f8c293008e95803b97f2d41b71f57a497769058cc7a4e931c1805f2f4642458ce227afd642bfa13b99d2f760785a3e9eab0e9e74099b937997022ab58b956cb1d2089465b350af2754d3bc51e2b6b4f7310c220564ad386182e88ad8dbc81b49df974dfb2304a1ed4a330916799f8ae05bd73d91756bb8f39299e8e22beb0377c3c733aabb04de47f27452a3cbb91e0f1f70ceac6f68ea555ad89eb5a06cb5d886292abcddb862e7657dd1858e3143994225fcc5fd05705e13179b039671090435ca9b9ebdb0b51a3db21c790d8665c83ee8e4f11f4ed7fa99cceb6e739d410cc3afaa068e2ab90443353ec8d076a9a91ac912dd89a605b3e70da8b6bb36c17b277702cc9d97296fc3aa074ca8c41e5c37a4958691376494fafabcc98f94d685548eec51148d5a1c72bbb4ad4da314704f2909b4af7ae346c6b092dbdd555d29af96904ee6b4600015a5417f6816a01da74fcc18300cfd3c5eee9aa2907ef8dbc81354ace2ce0f1fc867fd815256e166913d8b2d35241f38bd7a0516eba149f5c7f8fe3e4a5411789ba4734c254158d65416cf6086db0ab5952b594c97e9d1b3162361425259f67d0089e7e31943ff91cea889234225ce8269f414d9114dbae68595d7c4dcfa872ca9849cb267c3d60755bb1ddabdba55fb88933601408311c24ec860196b702e45d8fe3003dce9fad7cd82781932ac672798523ad3dac442dfb12c9e5db76091021d72a451ca4f9e23b9d842445f1370d2f5509c71f7d286c15d083b83563ffb7d0abe4532c6c02c45574a05cb0d52edbebcc09bea40f8e837d6f77c0aba7cd4c14d73d4b7c90ade03f95b96d4afc79eea3fc7314f3e544490f244fbdabd33acce61ac3b2c6de80c840149be544b350662b88ad419febd8989a83d783d3bbb482c4361937cd297e25235c09ee0de805f31a88e4b1bbb4d8d4cef05bdfc951f2159cdd26a5f59281ca78d5ad6b03135a5dde1cf0cd3b629ad68746a37557c9b37494e748ebcd23054b29db48c4e0a23e44f8124d09eceb4b5b82c1da744723828cecf641e40a95ff74a8ae218c4b36db7b9dd2b43cc1c4acfe27bc93922fb291f9448cc3dc09ec99192f0b8ef20ccbd4d8711cd77fb15b22078ba88af73b7828e67c26be4785e63a9dfebf15ef37adba3a373392da22848905be5190a6165a73437cdb09da01a09eefc8359ecd59d26d18cfff67ba5457dad904367b42720da725369cfee2ad438daf69ec3e643257f02c0652d1a92a8b4717a9512c3ce6eba228190da2d2bdfd90df6b0f005315cefe845d780d3a40d7f9f2c2c4ad84a8f870c1d5c6c511a0908ba0c226a67d07fe1cba925e3eee68db4e78621265f73b41b3a28a8143292d0b479734ebec5f0e7d15d17704b1eabc62c66554dbb784690a3397eadaf5af52b5285278eada740d0a3e07ecf84e7bfad85920f1e854e9c2d476f0081d67c4278798f8877eff49e56b1379ce4da"
      ],
      "sequence": 4294967294
    }
  ],
  "vout": [
    {
      "value": 1.0,
      "n": 0,
      "scriptPubKey": {
        "asm": "OP_RETURN 4b17981720318234b34292ee61f7db6f7981e57fb2ef2e282b2d3989c43bc03f 6ab8cf53ced4b159e39a657aecaaf124d4f171ecbde31dea9a306217b3d233954a98ef73eef49179c3ba455acc8ad104f4d151cc9dc33dcaba10423793f213b52af88f138e94f119a3da253aaceab16494b131acfda35daada702257f39273d50ad8af33aeb4d13983fa051a8cca9144b491118cdd837d8afa500277d3b253f5ea384fd34e5431d9631ae5fa6c2a71a45471f16c3d639d6a1ab0e2973352b315ca186ff36e7411f9433ac5da4c0a51847451d14c1d43bd4a3a90c2b713729335aa780f930e147199235aa5ba2c6a31e41431b12c7d23dd2a5af0a2d77312f3558a582fb32e3451b9037a859a0c4a11c43411910c5d03fd0a7ad082f75332d3756ab8cf53ced4b159e39a657aecaaf124d4f171ecbde31dea9a306217b3d233954a98ef73eef49179c3ba455acc8ad104f4d151cc9dc33dcaba10423793f213b52af88f138e94f119a3da253aaceab16494b131acfda35daada702257f39273d50ad8af33aeb4d13983fa051a8cca9144b491118cdd837d8afa500277d3b253f5ea384fd34e5431d9631ae5fa6c2a71a45471f16c3d639d6a1ab0e2973352b315ca186ff36e7411f9433ac5da4c0a51847451d14c1d43bd4a3a90c2b713729335aa780f930e147199235aa5ba2c6a31e41431b12c7d23dd2a5af0a2d77312f3558a582fb32e3451b9037a859a0c4a11c43411910c5d03fd0a7ad082f75332d3756ab8cf53ced4b159e39a657aecaaf124d4f171ecbde31dea9a306217b3d233954a98ef73eef49179c3ba455acc8ad104f4d151cc9dc33dcaba10423793f213b52af88f138e94f119a3da253aaceab16494b131acfda35daada702257f39273d50ad8af33aeb4d13983fa051a8cca9144b491118cdd837d8afa500277d3b253f5ea384fd34e5431d9631ae5fa6c2a71a45471f16c3d639d6a1ab0e2973352b315ca186ff36e7411f9433ac5da4c0a51847451d14c1d43bd4a3a90c2b713729335aa780f930e147199235aa5ba2c6a31e41431b12c7d23dd2a5af0a2d77312f3558a582fb32e3451b9037a859a0c4a11c43411910c5d03fd0a7ad082f75332d3756ab8cf53ced4b159e39a657aecaaf124d4f171ecbde31dea9a306217b3d233954a98ef73eef49179c3ba455acc8ad104f4d151cc9dc33dcaba10423793f213b52af88f138e94f119a3da253aaceab16494b131acfda35daada702257f39273d50ad8af33aeb4d13983fa051a8cca9144b491118cdd837d8afa500277d3b253f5ea384fd34e5431d9631ae5fa6c2a71a45471f16c3d639d6a1ab0e2973352b315ca186ff36e7411f9433ac5da4c0a51847451d14c1d43bd4a3a90c2b713729335aa780f930e147199235aa5ba2c6a31e41431b12c7d23dd2a5af0a2d77312f3558a582fb32e3451b9037a859a0c4a11c43411910c5d03fd0a7ad082f75332d3756ab8cf53ced4b159e39a657aecaaf124d4f171ecbde31dea9a306217b3d233954a98ef73eef49179c3ba455acc8ad104f4d151cc9dc33dcaba10423793f213b52af88f138e94f119a3da253aaceab16494b131acfda35daada702257f39273d50ad8af33aeb4d13983fa051a8cca9144b491118cdd837d8afa500277d3b253f5ea384fd34e5431d9631ae5fa6c2a71a4d8b0f8cd9ce21719f4429cd11cd82bb7a1f11b898ffdda972897d95248077c39",
        "hex": "6a204b17981720318234b34292ee61f7db6f7981e57fb2ef2e282b2d3989c43bc03f4db0046ab8cf53ced4b159e39a657aecaaf124d4f171ecbde31dea9a306217b3d233954a98ef73eef49179c3ba455acc8ad104f4d151cc9dc33dcaba10423793f213b52af88f138e94f119a3da253aaceab16494b131acfda35daada702257f39273d50ad8af33aeb4d13983fa051a8cca9144b491118cdd837d8afa500277d3b253f5ea384fd34e5431d9631ae5fa6c2a71a45471f16c3d639d6a1ab0e2973352b315ca186ff36e7411f9433ac5da4c0a51847451d14c1d43bd4a3a90c2b713729335aa780f930e147199235aa5ba2c6a31e41431b12c7d23dd2a5af0a2d77312f3558a582fb32e3451b9037a859a0c4a11c43411910c5d03fd0a7ad082f75332d3756ab8cf53ced4b159e39a657aecaaf124d4f171ecbde31dea9a306217b3d233954a98ef73eef49179c3ba455acc8ad104f4d151cc9dc33dcaba10423793f213b52af88f138e94f119a3da253aaceab16494b131acfda35daada702257f39273d50ad8af33aeb4d13983fa051a8cca9144b491118cdd837d8afa500277d3b253f5ea384fd34e5431d9631ae5fa6c2a71a45471f16c3d639d6a1ab0e2973352b315ca186ff36e7411f9433ac5da4c0a51847451d14c1d43bd4a3a90c2b713729335aa780f930e147199235aa5ba2c6a31e41431b12c7d23dd2a5af0a2d77312f3558a582fb32e3451b9037a859a0c4a11c43411910c5d03fd0a7ad082f75332d3756ab8cf53ced4b159e39a657aecaaf124d4f171ecbde31dea9a306217b3d233954a98ef73eef49179c3ba455acc8ad104f4d151cc9dc33dcaba10423793f213b52af88f138e94f119a3da253aaceab16494b131acfda35daada702257f39273d50ad8af33aeb4d13983fa051a8cca9144b491118cdd837d8afa500277d3b253f5ea384fd34e5431d9631ae5fa6c2a71a45471f16c3d639d6a1ab0e2973352b315ca186ff36e7411f9433ac5da4c0a51847451d14c1d43bd4a3a90c2b713729335aa780f930e147199235aa5ba2c6a31e41431b12c7d23dd2a5af0a2d77312f3558a582fb32e3451b9037a859a0c4a11c43411910c5d03fd0a7ad082f75332d3756ab8cf53ced4b159e39a657aecaaf124d4f171ecbde31dea9a306217b3d233954a98ef73eef49179c3ba455acc8ad104f4d151cc9dc33dcaba10423793f213b52af88f138e94f119a3da253aaceab16494b131acfda35daada702257f39273d50ad8af33aeb4d13983fa051a8cca9144b491118cdd837d8afa500277d3b253f5ea384fd34e5431d9631ae5fa6c2a71a45471f16c3d639d6a1ab0e2973352b315ca186ff36e7411f9433ac5da4c0a51847451d14c1d43bd4a3a90c2b713729335aa780f930e147199235aa5ba2c6a31e41431b12c7d23dd2a5af0a2d77312f3558a582fb32e3451b9037a859a0c4a11c43411910c5d03fd0a7ad082f75332d3756ab8cf53ced4b159e39a657aecaaf124d4f171ecbde31dea9a306217b3d233954a98ef73eef49179c3ba455acc8ad104f4d151cc9dc33dcaba10423793f213b52af88f138e94f119a3da253aaceab16494b131acfda35daada702257f39273d50ad8af33aeb4d13983fa051a8cca9144b491118cdd837d8afa500277d3b253f5ea384fd34e5431d9631ae5fa6c2a71a4d8b0f8cd9ce21719f4429cd11cd82bb7a1f11b898ffdda972897d95248077c39",
        "type": "nulldata"
      }
    },
    {
      "value": 499969.493,
      "n": 1,
      "scriptPubKey": {
        "asm": "1 c21f794d535a4bd4d1230fecbf068884886442c1e0503daa8b9a2a0cadace835",
        "hex": "5120c21f794d535a4bd4d1230fecbf068884886442c1e0503daa8b9a2a0cadace835",
        "reqSigs": 1,
        "type": "witness_v1_scripthash",
        "addresses": [
          "3QJmnh"
        ]
      }
    }
  ],
  "blockhash": "f0ff1fbaae405cadeb51abb379c93a956cf666ff613992ee95c2f945c1780bd2",
  "confirmations": 1,
  "time": 1764181685,
  "blocktime": 1764181685
}