{
  "hex": "01000000000101cee6c2f16909df2a838f0d14a3428cc69f5ce5c57482d81aa871af59d05304d50100000000feffffff021024da9b782d0000225120ccdc5e758e46336a33838788d314dbc659690b3e5f17c54907c76e4d60cdeff600e1f50500000000fdd5046a2029e5bbcbf8b71d9a68bca7def75f13ab71c4a0ef0e0e2b420a3b5664d8434ecc4db0040064db1d9f08e93e3af9209f90e5cabee9ccf9bd7a62e60c429b4b6e447f47602044fb3dbf28c91e1ad900bfb0c5ea9ec9ecd99d5a42c62c62bb6b4e645f674040249b5ddf48a97e7ab960dfd0a58afea98cb9fd3a22a64c02db0b2e043f07206004bb7dff68895e5a9940fff085aade89ac99dd1a02866c22fb2b0e241f270080e45b9d1f8869beba79a01f10654a3e694c793dfae2668cc21bcbeec4ffc7e0a0c47bbd3fa8499e9a59803f30456a1e496c591ddac246ace23bebcee4dfe7c0c0a41bdd5fc829fefa39e05f50250a7e290c397dbaa226cc825b8bae84bf87a0e0843bfd7fe809deda19c07f70052a5e092c195d9a8206eca27bab8ea49fa7800064db1d9f08e93e3af9209f90e5cabee9ccf9bd7a62e60c429b4b6e447f47602044fb3dbf28c91e1ad900bfb0c5ea9ec9ecd99d5a42c62c62bb6b4e645f674040249b5ddf48a97e7ab960dfd0a58afea98cb9fd3a22a64c02db0b2e043f07206004bb7dff68895e5a9940fff085aade89ac99dd1a02866c22fb2b0e241f270080e45b9d1f8869beba79a01f10654a3e694c793dfae2668cc21bcbeec4ffc7e0a0c47bbd3fa8499e9a59803f30456a1e496c591ddac246ace23bebcee4dfe7c0c0a41bdd5fc829fefa39e05f50250a7e290c397dbaa226cc825b8bae84bf87a0e0843bfd7fe809deda19c07f70052a5e092c195d9a8206eca27bab8ea49fa7800064db1d9f08e93e3af9209f90e5cabee9ccf9bd7a62e60c429b4b6e447f47602044fb3dbf28c91e1ad900bfb0c5ea9ec9ecd99d5a42c62c62bb6b4e645f674040249b5ddf48a97e7ab960dfd0a58afea98cb9fd3a22a64c02db0b2e043f07206004bb7dff68895e5a9940fff085aade89ac99dd1a02866c22fb2b0e241f270080e45b9d1f8869beba79a01f10654a3e694c793dfae2668cc21bcbeec4ffc7e0a0c47bbd3fa8499e9a59803f30456a1e496c591ddac246ace23bebcee4dfe7c0c0a41bdd5fc829fefa39e05f50250a7e290c397dbaa226cc825b8bae84bf87a0e0843bfd7fe809deda19c07f70052a5e092c195d9a8206eca27bab8ea49fa7800064db1d9f08e93e3af9209f90e5cabee9ccf9bd7a62e60c429b4b6e447f47602044fb3dbf28c91e1ad900bfb0c5ea9ec9ecd99d5a42c62c62bb6b4e645f674040249b5ddf48a97e7ab960dfd0a58afea98cb9fd3a22a64c02db0b2e043f07206004bb7dff68895e5a9940fff085aade89ac99dd1a02866c22fb2b0e241f270080e45b9d1f8869beba79a01f10654a3e694c793dfae2668cc21bcbeec4ffc7e0a0c47bbd3fa8499e9a59803f30456a1e496c591ddac246ace23bebcee4dfe7c0c0a41bdd5fc829fefa39e05f50250a7e290c397dbaa226cc825b8bae84bf87a0e0843bfd7fe809deda19c07f70052a5e092c195d9a8206eca27bab8ea49fa7800064db1d9f08e93e3af9209f90e5cabee9ccf9bd7a62e60c429b4b6e447f47602044fb3dbf28c91e1ad900bfb0c5ea9ec9ecd99d5a42c62c62bb6b4e645f674040249b5ddf48a97e7ab960dfd0a58afea98cb9fd3a22a64c02db0b2e043f07206004bb7dff68895e5a9940fff085aade89ac99dd1a02866c22fb2b0e241f270080e45b9d1f8869beba79a01f10654a3ed632553489c538aa3b6dffdaffb34f531a5d52cef10a951f2fea1a39ca32bff602fd750952d70682f028db3d9f78869f2e9b01d31c9d817dd867c6813353c1cf9d46be761ee5e6e5bf1683e3efceae999570c359850edec70f7a2db57754e6a8e9dad450bf4b765145e8fbe9dee1689c87bc5a0435ced3e401fb812493856bcbc1e377c1fb2c46f5d25cc222f484ccb7f61f07a92a1d7b00643c0bd61deb72c9833338f6352b2a99a5b4dc666bd0721b3a3630afa02fd6bc2101fa5dfec7d403849445b7a0cfbd301c3b110dc1a4430a1841e84576e23e04498dd96117d99075bbfcf94317dac74c691e6e1b7c2351691015be0a42449cb08c1bb6dfd510a0182d673c3167a8f7f488ae7fa6545bce8f68bcee9dedbe902b538e10aa7f43baaaf85ce139863fd1655841d52db3a29240feef4eed236cb17251a987388d18c42e99330bf45ccdc29b0a5077746b3b8f6b0694f8963973e3c61f15d959f2749902bcd7c5bc29fd9bd88999a85dba3788596d8cbc0f30556f1ec10507627db6ec2e3850a2c529851d82f9d69c1a0235d7310405eb7075a4aaef736ae26f01e0846a1c6d78d017290ed633d045d62cc3e67ec3ded8c085538c996befdbdcf4996b533333f742e2360eed424600b3530a8eab7fab4ef85e00810a6c583fa25263965ab40ecc28a5c27421d54d31609ec4165d2647e4c01bde04c3d38845445ec17aeb6947e9e908039454cc56491a2c7db4c8964f8fb988c9d33f5742bb688e5e2227d08c6949f0c8c3933bbe14c17aae546a6b50521a8a313fb73e76b0c36dd0e022b9612dc7ea823b93b4d321eeebe82aacd70938ac6a3f51f2fe4b29e19ae9c2e7f6feb95d99264470ea29a0adff7dcfe3245fc7e07af91be182e1e662b99895d0232bcdbde0c9863badb9d2dd2a170570ba495f9a997f8615dcca826fc0b2334a69c6a286bba4cd8683a9498af625953d3657fed8f69c22995fb33caf0f20b980c8a4f2a0c38cacd0615451d21646c67c48d8c7c2cd49089d03b8bb855a970bca2ad019bcf68498c2edd49afe39a7e0b3bd189c27831fbf42a37f71782d5031fba288b2141249a2c20cebba03657a2ea367d701ff617170faddd694434a2175578f421dea859234f90791168b272bd4e0a71ced6e854e29cab4822e092dbfe71092d6ad39fff23b9b2cd667d730c9cfdeaf382f1b8b24d5b5b742aa235c5a2704dc0b4ac5741eb6fe50bf67192a3f86f5a4a61b03db0b996302a8665f626c70d224eb59929e1fa79de541766cd110507ea2df607a00ae487216045954479614fa6be83f0335ece9fd7fa825e72ed91e262d4a86bef37cb89d107798b4bc197f2316d941ffcb987dc758d87735fec18ec6b5213ea30c54520b2ae857024ae2300e79ed8dd8893d77117ac63c767d5923f15b5733994f7a36d6b97fdb603560e687554ffed747fcf57101d3e4ef1e5417609f851bdd0615bd3ab0b0740702bcf96693ae9ede8994b7ce0562c47e4ea8914c28b83e4a707a72306fb2e5d75ac2e67333e3cc21d95d367a8a49e51dce2b9adb6248af0f6da923f76c12ae0d2e60c692561e502255a26c797f9e270887a7297cb11d4ada57b11243494861a57b2784277533dcc8ff164441a8af2d9bc9ad06cdbcbbde69be46d8beeeeb321885d0c226e2d80bc2e173c02c1b6332d8fe6dea08d7a4ae696f6409225204a6394e86257923c74cb7a514e6f36ff1bd922d2ee68e1c5b7f5afe9997ee669201bada663ea2fe6d5854a937445f1c2765b7f41f7c0a1c5d3a8aae8c34a4c6a95b3cbfd466849f4f3c2654789f86c7ce20997b97bf8cf90e11060d80f91e97a2a78fe0f27c533ab0948da2da4064dfc7524ad51edb4ffba32403f3478fca181102181fc0fdba4a5686399de48b8a9417994b3a138235a1fc6869b30b77773cf93d6a1a804cd4fc5c34c85199523eeba67e1412983f2381d198d126324a66bc107e3f1c929a0a6637bd85a9a15594dbf90d2562e4e9c2a65c2d9ca918b7203ae225b85728f9c0ac986303948bd7778eed1dee7dbd93e045bf7e87ea087b8e32123e540f250694a1c04d942a7531f5570596cf39e23d749a6c628abc961c00d22bbaef677078437e5344f0411e2bec3e6d4a580ff6b406ec44b719d136f5b6e6a72dacb838ac5b723c5a7f31dc37090c26fbd4c5a25dbc7fabe52f1abf6f56b63686cba40b70123ff25a7ac67c1662f27081a8ab5a7fa04b4117751222adbfcdaafc48626e526743c92273149b3936dd8f5b51473b87fa76a0566fc0fe29a3f46dccace3fdac9ccdc66a0970d7409db0915047171662cdca5c6b64b2bfab7abe93d5ca0a06375d267df57526f6f30120900a339beaaeb3ecc49cd7fbe36155bea5caee941745656fe951328a1fa36b65155f8b88b4f8f4889d26a60f69c772545ba650ec82f437438d629eaf2be010c89ce6c29f2b8cbbe17cece27769b9a90e6b0c2278ddff948ce85f46269b5d0f2ab9fdb4c177c5246804ee0f04e9cc136bd8c3c1e51e67226296bfb01fd1cd5b09fcfeef38236c48d558c5c3e47ce32d72fa5ef8ce4608e03de46e38084d04e52f737122380b9176cbb8747e8f0e23859d9190437615d355b85f5cad3b83772a272e5f64138f8d5ecd3bceb8705bfaf84ba07657ab5472149dc767ba0fd150e689c1e4af29c3af865faecde7c310244eba6cf2f81093df5e85a442f31fc3b05abc32ad7e110c8774ec509135b4a63ff1e0302615b6fe5adf0bd67073ae33b07277608db733dc55739fff56228c5acee7ac6b14530381bacfc229e54e1fe177ec33bd9e910740419d61a59fdec85aa94f6d772d092b9eaf6d5572d84beeba06ae8a22670d829afeffe06537477553688142b2eba14fbc03e424861f404507f312946a869569e86d2f5ed52ba64396345481e72350d560e0f2e927498e4ae161451d77435a071b8c1fd10deaa53b48cff158b4d6cc6c7b7f6cea22fe32de04e6c3273277376a4189a031f06939288b4a14b4240d9589251e7549a7b55fa432d9f47202ae437bb7728c642474e47daa84a76773d45e11907b5c9b50e1710f15566eb13f6a791d31f2dc8fdffda85a0867896afba132202515213f387e0bdfd5568d401b8667461f22b0410fba40fc9ffe6c772b4b8cf6d090c7ca29628fe6e5d286970ddbdfd7b345cf5c9beca39cb2bfd65b6f772a4da6b103f2944e82add6ed09f078fe5dde2e8e9b3b6bef368f9826796c5b751266b5d83edbee6cbb5d44f7a80ea493c0bcf18c6440fee05e2cd2c1b8ba150e49a3727565199020d2dff8a5c719e54a0d90a7659da30e1144e7c77e7c5b288246ad0627135c8d1d8e185b5c6e8ab2baced2d8dfe2e3e5e7030b0c1d2f4952565c7d9cb2b6b8bbd9e7ecf4ff0b1522274d5a898da3a4b1c6f4151c2023303e4b5d66737e88b4d1d2de000000000000000000000000000000000f23304001fd210500f19bc26e3ae3665ece755e791d7e7aa23686d695f4cec41864ef41a51dbcb3f08eb643bc9114cb0e1234e2003db002605e87f84c1dc18b5ee1fe480c38cdc07778804a356f0c91f3fbf0b0b56a961248e0fdb4c1693a704d081e4227cc009f24fd99c0593438e7bdf808a3874ddf885f078364b044721423bc3564da7ea67692ddd1aa4993b9255e5499ef1a4f3b9984ddaca23d13eb00d312360f32156fd74ab91be5307f34ae48358c719c68a0751ce844b59b7550fda487062ca4fd6d6525972672b9906fd571f7e516ab1a78127e8fea1b5c866fbb0f501f59e5b63d80d0f5b7f228f775178b5832dc9355c51a9887bdd3cb6bdf75e2535a5fccf55ccd46028eac3afdba3e259e1733b3534262890ddbc02b4718729519d098f80549177a4e7762381c76b92f7311a171644c7f67de13158e49c7614f1568db324b25fe47e77acaee41b8d2f97c9f8413f10336450e4f7c50da5753280955c715ee396c59d30bf17f5a0da83e15daaff582855daf0f6e68de55d9748e0b96d74a3acf280d9839c0dd21e34f1f0cf05e6b47f1b0b22f77e4e0d3bb85622da807e97d6e339964a9e7694d4dd8a1266390d763d6d501acc41ae307235dcf492b087ff609fd596ca40f2b66a78b670521036b0b12b66136e83ee760aa20ed0333fd82af5ea3123e06dd8f1e7d33fb95c356539849c68b019ff01032935276c879308e69b1dc846877c410f0e77e3f4664b18c71570faf3bab4d263e0d8aa018e8cac83fb89dc268599cceffb28939e3eb0606ece9ee1ac6a3247f68676be03e6db8e02748342c88806dc9f9d2867fc8d52d2c8ebfc1ebf9e0374c24a7faa9ffafc564cce186d15e48a82c457c72411dfed43cbb680bb44edd1ae9d69c70994165ad965a9ccc83bdb4fcc4db0d1a9bb36c2cc781c3a04fe01450e3f6e94152b579270c4cd71d80f3f8c17bde57b94f0304f9e856cba284f4e54684dc0b374b0c982b8a895275a965766dcbb13c195faf1fa0d63887b6692ff92fd28088923cec9a4af08f08a90819d6a00597090fdca19cef8d7759326811bcdea2bcb34161832c768c916b0d484492a5bd2589087e391f3d940f686e35a4131acb97f0f6d33c7c4c5e80a833169bb2df97198dae5d0132c467c49880ecdb9483289e22233cb8e3128c70fd1e1410454aeac0695512a0e68ffce961cf7e787ae14f5f5ece9c38868a5f5becbf6dcde72f568c49b32ee3b3e8c2d6e14c970f4e5c980ee0bab22ea483f87f21b96e0aec123ebc414af6681c6d398c5db2f120d4d227abdd6573f175bce9e7407e69083b899b25acafd13f73c16b3ade043a64ab20b440c664925d6971344ebdac05664371fbcb6d2369a97c00b59afd1b33751a55519d70732af528233429f54768f6e073c95218c076115cd81f13033da9e7dd5b99638e80b627e8bca053372b9f3e5db5ac155e72860fb44304b515568418ccb00ba93d175bc11d3fafa7489e32daa91d917d399af731efb42e2a226037257d8f9866c98cb3eea2121634b2944bf767036e70e781616c2d4c4e4c30a3606b2d3e011247a3b4c5571cf0edcd2a0f4d0b8587c6b64253b30e8811d5e65254e219a6e02d33498cf63bfd63143a0d0cd9547cd7cfc2d3908a655e542ba6ffe686ead53c4804edf848030276fdce14719b5f650ec75315d2fc7a0656427a5dc374996bec61805a551dacbca3eca7a59a741efeb28bc9059fd35adc9686b1253a8b635f13c96aabb5ce1dd340e249862bbee72bf1679582ef83e2d2deddb434cdc55130bce47e59101f97575e627b4619d913208835040163f2d04d4f5f72fdb07b6591e9ed798fa9a76ed305374816ce89000000",
  "txid": "9409746c86a004447fea33a9f8b7f0605d3718ec46822814d43239e522e1133c",
  "hash": "f2507eb13f277557676bf7e9c52843750e1aeb834ae95f8d1ea88d764defc703",
  "size": 5085,
  "vsize": 2278,
  "version": 1,
  "locktime": 137,
  "vin": [
    {
      "txid": "d50453d059af71a81ad88274c5e55c9fc68c42a3140d8f832adf0969f1c2e6ce",
      "vout": 1,
      "scriptSig": {
        "asm": "",
        "hex": ""
      },
      "txinwitness": [
        "52d70682f028db3d9f78869f2e9b01d31c9d817dd867c6813353c1cf9d46be761ee5e6e5bf1683e3efceae999570c359850edec70f7a2db57754e6a8e9dad450bf4b765145e8fbe9dee1689c87bc5a0435ced3e401fb812493856bcbc1e377c1fb2c46f5d25cc222f484ccb7f61f07a92a1d7b00643c0bd61deb72c9833338f6352b2a99a5b4dc666bd0721b3a3630afa02fd6bc2101fa5dfec7d403849445b7a0cfbd301c3b110dc1a4430a1841e84576e23e04498dd96117d99075bbfcf94317dac74c691e6e1b7c2351691015be0a42449cb08c1bb6dfd510a0182d673c3167a8f7f488ae7fa6545bce8f68bcee9dedbe902b538e10aa7f43baaaf85ce139863fd1655841d52db3a29240feef4eed236cb17251a987388d18c42e99330bf45ccdc29b0a5077746b3b8f6b0694f8963973e3c61f15d959f2749902bcd7c5bc29fd9bd88999a85dba3788596d8cbc0f30556f1ec10507627db6ec2e3850a2c529851d82f9d69c1a0235d7310405eb7075a4aaef736ae26f01e0846a1c6d78d017290ed633d045d62cc3e67ec3ded8c085538c996befdbdcf4996b533333f742e2360eed424600b3530a8eab7fab4ef85e00810a6c583fa25263965ab40ecc28a5c27421d54d31609ec4165d2647e4c01bde04c3d38845445ec17aeb6947e9e908039454cc56491a2c7db4c8964f8fb988c9d33f5742bb688e5e2227d08c6949f0c8c3933bbe14c17aae546a6b50521a8a313fb73e76b0c36dd0e022b9612dc7ea823b93b4d321eeebe82aacd70938ac6a3f51f2fe4b29e19ae9c2e7f6feb95d99264470ea29a0adff7dcfe3245fc7e07af91be182e1e662b99895d0232bcdbde0c9863badb9d2dd2a170570ba495f9a997f8615dcca826fc0b2334a69c6a286bba4cd8683a9498af625953d3657fed8f69c22995fb33caf0f20b980c8a4f2a0c38cacd0615451d21646c67c48d8c7c2cd49089d03b8bb855a970bca2ad019bcf68498c2edd49afe39a7e0b3bd189c27831fbf42a37f71782d5031fba288b2141249a2c20cebba03657a2ea367d701ff617170faddd694434a2175578f421dea859234f90791168b272bd4e0a71ced6e854e29cab4822e092dbfe71092d6ad39fff23b9b2cd667d730c9cfdeaf382f1b8b24d5b5b742aa235c5a2704dc0b4ac5741eb6fe50bf67192a3f86f5a4a61b03db0b996302a8665f626c70d224eb59929e1fa79de541766cd110507ea2df607a00ae487216045954479614fa6be83f0335ece9fd7fa825e72ed91e262d4a86bef37cb89d107798b4bc197f2316d941ffcb987dc758d87735fec18ec6b5213ea30c54520b2ae857024ae2300e79ed8dd8893d77117ac63c767d5923f15b5733994f7a36d6b97fdb603560e687554ffed747fcf57101d3e4ef1e5417609f851bdd0615bd3ab0b0740702bcf96693ae9ede8994b7ce0562c47e4ea8914c28b83e4a707a72306fb2e5d75ac2e67333e3cc21d95d367a8a49e51dce2b9adb6248af0f6da923f76c12ae0d2e60c692561e502255a26c797f9e270887a7297cb11d4ada57b11243494861a57b2784277533dcc8ff164441a8af2d9bc9ad06cdbcbbde69be46d8beeeeb321885d0c226e2d80bc2e173c02c1b6332d8fe6dea08d7a4ae696f6409225204a6394e86257923c74cb7a514e6f36ff1bd922d2ee68e1c5b7f5afe9997ee669201bada663ea2fe6d5854a937445f1c2765b7f41f7c0a1c5d3a8aae8c34a4c6a95b3cbfd466849f4f3c2654789f86c7ce20997b97bf8cf90e11060d80f91e97a2a78fe0f27c533ab0948da2da4064dfc7524ad51edb4ffba32403f3478fca181102181fc0fdba4a5686399de48b8a9417994b3a138235a1fc6869b30b77773cf93d6a1a804cd4fc5c34c85199523eeba67e1412983f2381d198d126324a66bc107e3f1c929a0a6637bd85a9a15594dbf90d2562e4e9c2a65c2d9ca918b7203ae225b85728f9c0ac986303948bd7778eed1dee7dbd93e045bf7e87ea087b8e32123e540f250694a1c04d942a7531f5570596cf39e23d749a6c628abc961c00d22bbaef677078437e5344f0411e2bec3e6d4a580ff6b406ec44b719d136f5b6e6a72dacb838ac5b723c5a7f31dc37090c26fbd4c5a25dbc7fabe52f1abf6f56b63686cba40b70123ff25a7ac67c1662f27081a8ab5a7fa04b4117751222adbfcdaafc48626e526743c92273149b3936dd8f5b51473b87fa76a0566fc0fe29a3f46dccace3fdac9ccdc66a0970d7409db0915047171662cdca5c6b64b2bfab7abe93d5ca0a06375d267df57526f6f30120900a339beaaeb3ecc49cd7fbe36155bea5caee941745656fe951328a1fa36b65155f8b88b4f8f4889d26a60f69c772545ba650ec82f437438d629eaf2be010c89ce6c29f2b8cbbe17cece27769b9a90e6b0c2278ddff948ce85f46269b5d0f2ab9fdb4c177c5246804ee0f04e9cc136bd8c3c1e51e67226296bfb01fd1cd5b09fcfeef38236c48d558c5c3e47ce32d72fa5ef8ce4608e03de46e38084d04e52f737122380b9176cbb8747e8f0e23859d9190437615d355b85f5cad3b83772a272e5f64138f8d5ecd3bceb8705bfaf84ba07657ab5472149dc767ba0fd150e689c1e4af29c3af865faecde7c310244eba6cf2f81093df5e85a442f31fc3b05abc32ad7e110c8774ec509135b4a63ff1e0302615b6fe5adf0bd67073ae33b07277608db733dc55739fff56228c5acee7ac6b14530381bacfc229e54e1fe177ec33bd9e910740419d61a59fdec85aa94f6d772d092b9eaf6d5572d84beeba06ae8a22670d829afeffe06537477553688142b2eba14fbc03e424861f404507f312946a869569e86d2f5ed52ba64396345481e72350d560e0f2e927498e4ae161451d77435a071b8c1fd10deaa53b48cff158b4d6cc6c7b7f6cea22fe32de04e6c3273277376a4189a031f06939288b4a14b4240d9589251e7549a7b55fa432d9f47202ae437bb7728c642474e47daa84a76773d45e11907b5c9b50e1710f15566eb13f6a791d31f2dc8fdffda85a0867896afba132202515213f387e0bdfd5568d401b8667461f22b0410fba40fc9ffe6c772b4b8cf6d090c7ca29628fe6e5d286970ddbdfd7b345cf5c9beca39cb2bfd65b6f772a4da6b103f2944e82add6ed09f078fe5dde2e8e9b3b6bef368f9826796c5b751266b5d83edbee6cbb5d44f7a80ea493c0bcf18c6440fee05e2cd2c1b8ba150e49a3727565199020d2dff8a5c719e54a0d90a7659da30e1144e7c77e7c5b288246ad0627135c8d1d8e185b5c6e8ab2baced2d8dfe2e3e5e7030b0c1d2f4952565c7d9cb2b6b8bbd9e7ecf4ff0b1522274d5a898da3a4b1c6f4151c2023303e4b5d66737e88b4d1d2de000000000000000000000000000000000f23304001",
        "00f19bc26e3ae3665ece755e791d7e7aa23686d695f4cec41864ef41a51dbcb3f08eb643bc9114cb0e1234e2003db002605e87f84c1dc18b5ee1fe480c38cdc07778804a356f0c91f3fbf0b0b56a961248e0fdb4c1693a704d081e4227cc009f24fd99c0593438e7bdf808a3874ddf885f078364b044721423bc3564da7ea67692ddd1aa4993b9255e5499ef1a4f3b9984ddaca23d13eb00d312360f32156fd74ab91be5307f34ae48358c719c68a0751ce844b59b7550fda487062ca4fd6d6525972672b9906fd571f7e516ab1a78127e8fea1b5c866fbb0f501f59e5b63d80d0f5b7f228f775178b5832dc9355c51a9887bdd3cb6bdf75e2535a5fccf55ccd46028eac3afdba3e259e1733b3534262890ddbc02b4718729519d098f80549177a4e7762381c76b92f7311a171644c7f67de13158e49c7614f1568db324b25fe47e77acaee41b8d2f97c9f8413f10336450e4f7c50da5753280955c715ee396c59d30bf17f5a0da83e15daaff582855daf0f6e68de55d9748e0b96d74a3acf280d9839c0dd21e34f1f0cf05e6b47f1b0b22f77e4e0d3bb85622da807e97d6e339964a9e7694d4dd8a1266390d763d6d501acc41ae307235dcf492b087ff609fd596ca40f2b66a78b670521036b0b12b66136e83ee760aa20ed0333fd82af5ea3123e06dd8f1e7d33fb95c356539849c68b019ff01032935276c879308e69b1dc846877c410f0e77e3f4664b18c71570faf3bab4d263e0d8aa018e8cac83fb89dc268599cceffb28939e3eb0606ece9ee1ac6a3247f68676be03e6db8e02748342c88806dc9f9d2867fc8d52d2c8ebfc1ebf9e0374c24a7faa9ffafc564cce186d15e48a82c457c72411dfed43cbb680bb44edd1ae9d69c70994165ad965a9ccc83bdb4fcc4db0d1a9bb36c2cc781c3a04fe01450e3f6e94152b579270c4cd71d80f3f8c17bde57b94f0304f9e856cba284f4e54684dc0b374b0c982b8a895275a965766dcbb13c195faf1fa0d63887b6692ff92fd28088923cec9a4af08f08a90819d6a00597090fdca19cef8d7759326811bcdea2bcb34161832c768c916b0d484492a5bd2589087e391f3d940f686e35a4131acb97f0f6d33c7c4c5e80a833169bb2df97198dae5d0132c467c49880ecdb9483289e22233cb8e3128c70fd1e1410454aeac0695512a0e68ffce961cf7e787ae14f5f5ece9c38868a5f5becbf6dcde72f568c49b32ee3b3e8c2d6e14c970f4e5c980ee0bab22ea483f87f21b96e0aec123ebc414af6681c6d398c5db2f120d4d227abdd6573f175bce9e7407e69083b899b25acafd13f73c16b3ade043a64ab20b440c664925d6971344ebdac05664371fbcb6d2369a97c00b59afd1b33751a55519d70732af528233429f54768f6e073c95218c076115cd81f13033da9e7dd5b99638e80b627e8bca053372b9f3e5db5ac155e72860fb44304b515568418ccb00ba93d175bc11d3fafa7489e32daa91d917d399af731efb42e2a226037257d8f9866c98cb3eea2121634b2944bf767036e70e781616c2d4c4e4c30a3606b2d3e011247a3b4c5571cf0edcd2a0f4d0b8587c6b64253b30e8811d5e65254e219a6e02d33498cf63bfd63143a0d0cd9547cd7cfc2d3908a655e542ba6ffe686ead53c4804edf848030276fdce14719b5f650ec75315d2fc7a0656427a5dc374996bec61805a551dacbca3eca7a59a741efeb28bc9059fd35adc9686b1253a8b635f13c96aabb5ce1dd340e249862bbee72bf1679582ef83e2d2deddb434cdc55130bce47e59101f97575e627b4619d913208835040163f2d04d4f5f72fdb07b6591e9ed798fa9a76ed305374816ce"
      ],
      "sequence": 4294967294
    }
  ],
  "vout": [
    {
      "value": 499960.3409,
      "n": 0,
      "scriptPubKey": {
        "asm": "1 ccdc5e758e46336a33838788d314dbc659690b3e5f17c54907c76e4d60cdeff6",
        "hex": "5120ccdc5e758e46336a33838788d314dbc659690b3e5f17c54907c76e4d60cdeff6",
        "reqSigs": 1,
        "type": "witness_v1_scripthash",
        "addresses": [
          "3QJmnh"
        ]
      }
    },
    {
      "value": 1.0,
      "n": 1,
      "scriptPubKey": {
        "asm": "OP_RETURN 29e5bbcbf8b71d9a68bca7def75f13ab71c4a0ef0e0e2b420a3b5664d8434ecc 0064db1d9f08e93e3af9209f90e5cabee9ccf9bd7a62e60c429b4b6e447f47602044fb3dbf28c91e1ad900bfb0c5ea9ec9ecd99d5a42c62c62bb6b4e645f674040249b5ddf48a97e7ab960dfd0a58afea98cb9fd3a22a64c02db0b2e043f07206004bb7dff68895e5a9940fff085aade89ac99dd1a02866c22fb2b0e241f270080e45b9d1f8869beba79a01f10654a3e694c793dfae2668cc21bcbeec4ffc7e0a0c47bbd3fa8499e9a59803f30456a1e496c591ddac246ace23bebcee4dfe7c0c0a41bdd5fc829fefa39e05f50250a7e290c397dbaa226cc825b8bae84bf87a0e0843bfd7fe809deda19c07f70052a5e092c195d9a8206eca27bab8ea49fa7800064db1d9f08e93e3af9209f90e5cabee9ccf9bd7a62e60c429b4b6e447f47602044fb3dbf28c91e1ad900bfb0c5ea9ec9ecd99d5a42c62c62bb6b4e645f674040249b5ddf48a97e7ab960dfd0a58afea98cb9fd3a22a64c02db0b2e043f07206004bb7dff68895e5a9940fff085aade89ac99dd1a02866c22fb2b0e241f270080e45b9d1f8869beba79a01f10654a3e694c793dfae2668cc21bcbeec4ffc7e0a0c47bbd3fa8499e9a59803f30456a1e496c591ddac246ace23bebcee4dfe7c0c0a41bdd5fc829fefa39e05f50250a7e290c397dbaa226cc825b8bae84bf87a0e0843bfd7fe809deda19c07f70052a5e092c195d9a8206eca27bab8ea49fa7800064db1d9f08e93e3af9209f90e5cabee9ccf9bd7a62e60c429b4b6e447f47602044fb3dbf28c91e1ad900bfb0c5ea9ec9ecd99d5a42c62c62bb6b4e645f674040249b5ddf48a97e7ab960dfd0a58afea98cb9fd3a22a64c02db0b2e043f07206004bb7dff68895e5a9940fff085aade89ac99dd1a02866c22fb2b0e241f270080e45b9d1f8869beba79a01f10654a3e694c793dfae2668cc21bcbeec4ffc7e0a0c47bbd3fa8499e9a59803f30456a1e496c591ddac246ace23bebcee4dfe7c0c0a41bdd5fc829fefa39e05f50250a7e290c397dbaa226cc825b8bae84bf87a0e0843bfd7fe809deda19c07f70052a5e092c195d9a8206eca27bab8ea49fa7800064db1d9f08e93e3af9209f90e5cabee9ccf9bd7a62e60c429b4b6e447f47602044fb3dbf28c91e1ad900bfb0c5ea9ec9ecd99d5a42c62c62bb6b4e645f674040249b5ddf48a97e7ab960dfd0a58afea98cb9fd3a22a64c02db0b2e043f07206004bb7dff68895e5a9940fff085aade89ac99dd1a02866c22fb2b0e241f270080e45b9d1f8869beba79a01f10654a3e694c793dfae2668cc21bcbeec4ffc7e0a0c47bbd3fa8499e9a59803f30456a1e496c591ddac246ace23bebcee4dfe7c0c0a41bdd5fc829fefa39e05f50250a7e290c397dbaa226cc825b8bae84bf87a0e0843bfd7fe809deda19c07f70052a5e092c195d9a8206eca27bab8ea49fa7800064db1d9f08e93e3af9209f90e5cabee9ccf9bd7a62e60c429b4b6e447f47602044fb3dbf28c91e1ad900bfb0c5ea9ec9ecd99d5a42c62c62bb6b4e645f674040249b5ddf48a97e7ab960dfd0a58afea98cb9fd3a22a64c02db0b2e043f07206004bb7dff68895e5a9940fff085aade89ac99dd1a02866c22fb2b0e241f270080e45b9d1f8869beba79a01f10654a3ed632553489c538aa3b6dffdaffb34f531a5d52cef10a951f2fea1a39ca32bff6",
        "hex": "6a2029e5bbcbf8b71d9a68bca7def75f13ab71c4a0ef0e0e2b420a3b5664d8434ecc4db0040064db1d9f08e93e3af9209f90e5cabee9ccf9bd7a62e60c429b4b6e447f47602044fb3dbf28c91e1ad900bfb0c5ea9ec9ecd99d5a42c62c62bb6b4e645f674040249b5ddf48a97e7ab960dfd0a58afea98cb9fd3a22a64c02db0b2e043f07206004bb7dff68895e5a9940fff085aade89ac99dd1a02866c22fb2b0e241f270080e45b9d1f8869beba79a01f10654a3e694c793dfae2668cc21bcbeec4ffc7e0a0c47bbd3fa8499e9a59803f30456a1e496c591ddac246ace23bebcee4dfe7c0c0a41bdd5fc829fefa39e05f50250a7e290c397dbaa226cc825b8bae84bf87a0e0843bfd7fe809deda19c07f70052a5e092c195d9a8206eca27bab8ea49fa7800064db1d9f08e93e3af9209f90e5cabee9ccf9bd7a62e60c429b4b6e447f47602044fb3dbf28c91e1ad900bfb0c5ea9ec9ecd99d5a42c62c62bb6b4e645f674040249b5ddf48a97e7ab960dfd0a58afea98cb9fd3a22a64c02db0b2e043f07206004bb7dff68895e5a9940fff085aade89ac99dd1a02866c22fb2b0e241f270080e45b9d1f8869beba79a01f10654a3e694c793dfae2668cc21bcbeec4ffc7e0a0c47bbd3fa8499e9a59803f30456a1e496c591ddac246ace23bebcee4dfe7c0c0a41bdd5fc829fefa39e05f50250a7e290c397dbaa226cc825b8bae84bf87a0e0843bfd7fe809deda19c07f70052a5e092c195d9a8206eca27bab8ea49fa7800064db1d9f08e93e3af9209f90e5cabee9ccf9bd7a62e60c429b4b6e447f47602044fb3dbf28c91e1ad900bfb0c5ea9ec9ecd99d5a42c62c62bb6b4e645f674040249b5ddf48a97e7ab960dfd0a58afea98cb9fd3a22a64c02db0b2e043f07206004bb7dff68895e5a9940fff085aade89ac99dd1a02866c22fb2b0e241f270080e45b9d1f8869beba79a01f10654a3e694c793dfae2668cc21bcbeec4ffc7e0a0c47bbd3fa8499e9a59803f30456a1e496c591ddac246ace23bebcee4dfe7c0c0a41bdd5fc829fefa39e05f50250a7e290c397dbaa226cc825b8bae84bf87a0e0843bfd7fe809deda19c07f70052a5e092c195d9a8206eca27bab8ea49fa7800064db1d9f08e93e3af9209f90e5cabee9ccf9bd7a62e60c429b4b6e447f47602044fb3dbf28c91e1ad900bfb0c5ea9ec9ecd99d5a42c62c62bb6b4e645f674040249b5ddf48a97e7ab960dfd0a58afea98cb9fd3a22a64c02db0b2e043f07206004bb7dff68895e5a9940fff085aade89ac99dd1a02866c22fb2b0e241f270080e45b9d1f8869beba79a01f10654a3e694c793dfae2668cc21bcbeec4ffc7e0a0c47bbd3fa8499e9a59803f30456a1e496c591ddac246ace23bebcee4dfe7c0c0a41bdd5fc829fefa39e05f50250a7e290c397dbaa226cc825b8bae84bf87a0e0843bfd7fe809deda19c07f70052a5e092c195d9a8206eca27bab8ea49fa7800064db1d9f08e93e3af9209f90e5cabee9ccf9bd7a62e60c429b4b6e447f47602044fb3dbf28c91e1ad900bfb0c5ea9ec9ecd99d5a42c62c62bb6b4e645f674040249b5ddf48a97e7ab960dfd0a58afea98cb9fd3a22a64c02db0b2e043f07206004bb7dff68895e5a9940fff085aade89ac99dd1a02866c22fb2b0e241f270080e45b9d1f8869beba79a01f10654a3ed632553489c538aa3b6dffdaffb34f531a5d52cef10a951f2fea1a39ca32bff6",
        "type": "nulldata"
      }
    }
  ],
  "blockhash": "9c49f121af07ca043271baff5049446c1aadf74400091ff8de6bf4087ac8778e",
  "confirmations": 1,
  "time": 1764183425,
  "blocktime": 1764183425
}