{
  "hex": "010000000001018fd8b3a4ab1fe116c94667cc497faa35b7abec02c07042d2536d7babdd5f35c70000000000feffffff029021522d792d0000225120292aebb874f02c47bf692d7936db8e26de663b8449ef2c88a2b3ed27eb71aaab00e1f50500000000fdd5046a207bcf4f2c05090d24f739606f737d326ae9c68164fe088b4975eab36ed75547b34db00479e389b1b497b56321305ede13ade4b73af317d8e0686cc09e3f82175923d6a759c3a99194b7954301107efe338dc4971ad337f8c0484ce0be1fa2377903f68739a3c9f1f4d7f52361701e9e53eda4f77ab35798a0282c80de7fc257196396e71983e9d1d4f7d50341503ebe73cd84d75a9377b880080ca0fe5fe2773943b6c7f9630931341735e3a1b0de5e932d6437ba73975860e8ec401ebf0297d9a35627d9432911143715c38190fe7eb30d44179a53b77840c8cc603e9f22b7f9837607b9234971745775a3e1f09e1ed36d2477fa33d71820a8ac005eff42d799e316679903695154775583c1d0be3ef34d0457da13f73800888c207edf62f7b9c3364779e389b1b497b56321305ede13ade4b73af317d8e0686cc09e3f82175923d6a759c3a99194b7954301107efe338dc4971ad337f8c0484ce0be1fa2377903f68739a3c9f1f4d7f52361701e9e53eda4f77ab35798a0282c80de7fc257196396e71983e9d1d4f7d50341503ebe73cd84d75a9377b880080ca0fe5fe2773943b6c7f9630931341735e3a1b0de5e932d6437ba73975860e8ec401ebf0297d9a35627d9432911143715c38190fe7eb30d44179a53b77840c8cc603e9f22b7f9837607b9234971745775a3e1f09e1ed36d2477fa33d71820a8ac005eff42d799e316679903695154775583c1d0be3ef34d0457da13f73800888c207edf62f7b9c3364779e389b1b497b56321305ede13ade4b73af317d8e0686cc09e3f82175923d6a759c3a99194b7954301107efe338dc4971ad337f8c0484ce0be1fa2377903f68739a3c9f1f4d7f52361701e9e53eda4f77ab35798a0282c80de7fc257196396e71983e9d1d4f7d50341503ebe73cd84d75a9377b880080ca0fe5fe2773943b6c7f9630931341735e3a1b0de5e932d6437ba73975860e8ec401ebf0297d9a35627d9432911143715c38190fe7eb30d44179a53b77840c8cc603e9f22b7f9837607b9234971745775a3e1f09e1ed36d2477fa33d71820a8ac005eff42d799e316679903695154775583c1d0be3ef34d0457da13f73800888c207edf62f7b9c3364779e389b1b497b56321305ede13ade4b73af317d8e0686cc09e3f82175923d6a759c3a99194b7954301107efe338dc4971ad337f8c0484ce0be1fa2377903f68739a3c9f1f4d7f52361701e9e53eda4f77ab35798a0282c80de7fc257196396e71983e9d1d4f7d50341503ebe73cd84d75a9377b880080ca0fe5fe2773943b6c7f9630931341735e3a1b0de5e932d6437ba73975860e8ec401ebf0297d9a35627d9432911143715c38190fe7eb30d44179a53b77840c8cc603e9f22b7f9837607b9234971745775a3e1f09e1ed36d2477fa33d71820a8ac005eff42d799e316679903695154775583c1d0be3ef34d0457da13f73800888c207edf62f7b9c3364779e389b1b497b56321305ede13ade4b73af317d8e0686cc09e3f82175923d6a759c3a99194b7954301107efe338dc4971ad337f8c0484ce0be1fa2377903f68739a3c9f1f4d7f52361701e9e53eda4f77ab35798a0282c80de7fc257196396e71983e9d1d4f7d50341503ebe73cd84d75a9377b880080ca0fe5fe2773943b6c7f9630931341735e3a1b0de5e932d64379d4fd09c99108061498eec2ebeb0b042c9d03de95c2e940e31aa89b4756a599902fd7509c1c73662e50ee3809164c787a5f4e2bb3d3ab141faf2a79e0c2670dcd72fdb29498c970b970bed4eb4e266e7d253ea19417f30af6beef81d283d3298fbc610e108cac0fed0adfa5e50dbe014f6767098c2fc3760240f394c67cbab9e8c8ef44cb528d5de78006a7b84475736ea2d86464f7795c780b042894d54ea2802d57d580a18f4f76063a23bb906a7b96e683d944f249c4c18683cc7ae8f96fb2fa08b1ffe57493ad68a245261f42efa4d39ea737c0a87f61455dcd730e5bc1ce15c85df68a34bf0e11a0d241d5df730427af56714ec5ce3c35764161ca0162d5504f458e9dcdfa4f2ed1daecb7099342e0d2d72fc596fdaf20bcca69382113713a7a5d05951a61dba24539e87e87ec01261d83b40aff374b07339990f9768995701a6543ebbedaf6bf9fd61f8f042360096e6e5945fba39bed89b4ca9d9544390b9beb0d38367bb4a77ce6912077e6e372026597a523616e7bcc991c5cab2b310153c2433f93b5e6e2e5b16bd15252306d0192cb857d5620e85381a5f4be64440aa6685bfbc148439011df15df124efee0e9d50f881411f7ea045b4edf1b69ce045e3f205b92195bc340436591f6922142e4c45db37a2b81d126d413f14cbfac5766e3c7abed0a6220c2c32e8d7d1af36569fc2950752814b9ee478df51377387d378b755630f822df88331d8443d50961fbea669b7ee7814db3cdf01943d691c945391210bf9b586a19bdd46e3c503beb05290658d0f0fe211574d28734d448b94fcc78f12e5abd5a2ef7ab0fd3729c4cb349562cbb1a4d303118d76e52f0f5a063884e5be62565398a8912a17c56a673269f26a6f56a20ac0395b4fb7d883309f82053ef98109768a0bab3a797040db8489827c120397bed7b30aee17df8ef2eeaedabe7e17718961c1a1e39136a4f1aec16b357ab7282c2bc7c18c667b0ee3d39333bfc202971727e308db029d0634e937a87bc81f9122f815cf3e557df2479773a4eb8fbce4588f3ec02cf7b7674e54e22cae0a4b60fd3c85c8d1530b7c0e12a658d219d1363b50e21f7290c233e27212da01866dd63c2a61a3580e36aea2c7883a09e088ecd1c044bb5c065ffcd693c39d6ae444aad0e026d9ad14598943f1a6bf61b909e730d7be7815bdbf866ed746b4e8dc3a8178d50dd882c86b80a772f281b9c1af511529557f6178190af259912f98175061e2744b2b89fc6b1300e36baa1ce5c43820c568787c79163fabacd05d3fd267d4fbe651bce776160c42b6339f704085d1629539462efdac23c79ebcc81ee457d209e7ad81d80fcf9a3ec59173bb46ac4576f30179f534d1b8954dc6df989d5d4927b3eef4bb93b6e6ed1c7e27210f665d961fdb4be21abbbe7b66a81236af951d870517fdb8383fe977e11d9e0da2462e3c962a72834263a2e511a239927391a88b841daf6f7ffadb7adeed0e7708d6aa1465a55b7b166fae689d5e5df7ace103687c03f09b3c565b3a18d82dcfdfb0e350b0226d53d5c9c13a32072e1e9eaf0afae8ceebe83fb8e4811a2381b22bcecb819ef0dbc530141bf1d4ea9ebdf5a5192ded4d8c6819e1f28a6f6c32f928594e621f1861e20c111fa0dde5741e525b479877b00085dbb3dbea325c164eef14f30ccb611466d702ce4d02fa0df1740cf99e1b1f97b8cbca220a180b463281b383c36f85aa600973a5426daea8d72b1e64e9a4f80c8966eab8de6074144f5261a80cf6a509b5dce38e181cd4f8f93ef6982a8ddf242c4f8935b995920d2da06116cb07f647251cbf8ae01208ab1ec84c21ce961f133b69998ce9bfc0eb770964eb39836733c4663f71c4e582766c16a64d4df549554656e9218f5aa5ade8015767d3c394d13a3f8cb9853ab0af5c86bc57a131e237ea02ac2b4e73b36e88c390a1c2535fa15a83b5e61f7c4177d52af625a874a6e718453d50e48429b1b3055bd141f039f178ab417ed1d39549dab66a84978313ba7daa8aa4143d32f705c644f1f196af8ea6d754e3d1fd4dcea7186f1530541840c19da37506bd8dd6611a4e79c13cc850b089f4ebc2ab25563035542214018fcbd8455db96e942036701574f45871954e292bb67c078e8a3a4f0cd733f43d46772916032ec0d224e13441a8ce840009a393067c6686a0e0df51ab9179f36f5b69f9bf4a329c92a5c507fd1e6bc7956805d2e9a5d1dd2f570f0648cc6336ee1c3a13f4b3fd2ee4a17f95b848ec7665e305f075b315b02b99d49c1013d7f2eefa6ce11bb5c7b03e5b0dc99a759322735623c4e4e03545b62b332d51e25d3af3d3da78f35546307f8ac876f331d7cd8387c4fd52247b601a60b48e824fc13ce013b5c575e28966e27e8e28834530710acf63711e085151b67c133c02bfe178be0b6eb23bc185f7474b7601c3729a92d70382fd0758b997a55fb2f951ccbf16dc708d06190f3f257e4fa1cea257ab74a1e092e8f5d0018d4463faeea9acd22e92cb0e49857dc5ce353b2fa09c6cf35807182a0502fd24e37b10d7c549a41e02d4efbeff46890ba321effbd7deb2152c3400265ba0278e8843330feb087e45da75c162d12203cfa31a02f0c9feae15ba630d2e5b622fbbf7b49d73bc86465a358862fe15df05c097d85047e9caec1b30788cc040c07c7ea3d2b3e3c3a1cb71030287a1d3a0adc19fece1a571165e9b5f2742cd7fbb8d6a755836b9a1db550893626805f8da8601228196f78cf865efab1a076f52ad29c87c267c54f284525a01783a53a95cef4120e601beb5e0f67ba13d065dca73c5216ac059efde78085c6c9e8c2a438082308f1e8bbe66f70004081fb55419ab980705cf6e61272295c6f4bc0c6c6b5383b5f778cd33891214114f53fabc017e5ad8fd6064238a90aa3d5f4db9416ff565200e0235eee863f9d31081274456be8aee99f3fc4f7cd4720c038229a36a35a181d09112d79ad88184f5e15d633de34dbf64715b9dd96d0aeb01921da5d77f5630bbff720efcac51c78b4bd101993f70dca6392d36568391ea6f8279ad4de9bb7b0bb611e8ae5b593a92ca365057aa5eeb6f98ac579ba9042705a3b7aa9b593c6c4caaf8002a550a67b86065f233efbf9aa0094f0452c5d317942d5c2f09a78e7a4097017abd53b1bae3931c44b84774ea677a862c65619a1b1c5d8121d1ae63dd09e9706fcaa9a61c9cac83f5b954a42a4859bf81def3fd045010a6b8df2b502a959b1be315ccd67a5c3bdbdd8775da46b7c262a2c55e6e6c8cc4a85de8a5ec3347ce63b50a9ad8626ea85eec8a70b64541c80999129c1b41704bdfc4c3eaf37dc429d5c3021048535a608c96b2c8cbe5f6f7000d5e6783898d8e9abcebf0070b3054696e7584c9d4e3141a3133363c5d5e7a828399b1c0e2e3f9fdff0000000000000000000000000000000000000000000000000e1a253801fd210500b0aefe80f53320aaed9ecaf31d1a511aa8ee20ba6541f2074ea3e662a0ffd38ecb1342317418d76f83b15b0bb2bd02cd7c03a600f1b9605a925715cbe6ad08337345598d692340d95ab300dc375c4acb241d1c0a74ac5af3f8f73e3fcd9e6606a03d200c43bbadc8a6b1becd6504561e57815c5fde7cfba1ecebed52973d5c37fee96590702d4eaa204885d2196652c52bfb36caaa7afe7f15e5a4870cd1ee1f6620632133d302304a3e22a506d806e42cce070aa406dce8eda3ff41c4b4f5546bad9e3926cdc7621f2e06c22add22b575ace33decff5b579d230e1fa89b3b25162bc963b7a7613e7430edcf3df3d6826baf141c6db31c1f3c8ea60035d120f6608dfafe5f31197d848b878a21c480497a7fba051621151c819073ec57f098cee41f36328291af878064d637674812636b8a795d06bef567235dba5a84cb40f55187c962b17d7a9869e98a794474c358cf2f07c762196bcb8695e77f1326f0195ebefdaf7f4d4fd8c9daa4833bf7e2936c4a46a87f1d4dec5571a6f7a638e7d8a22da496adb9689c3296dfd2b95cff028325edb02f6be1c08ad105bc4c6875696b16babced494ef0b11cfe448eca67df1063fc2b67128d6fda50529d8010f36b9cbdc3bbb1bc0d29a55428d61bb01e5cd4010a13495d9259ff38e6658bd48463052162f4e84b46d5efad9f5a2d33673143646995d2486e12eded3a05bee2241c0b4eff41e8c5cffe587adf53a25b7954d56ac39fd09e9e2a4e65d43bdc14074e142691114272551d9c83a399cfb08b881bd219ab97240c8807034e987981b448c8a4ab3c88538304a545c46fb8b6729647aa07c22a31888939c17368db04709451897e096b1bf5c1180a5b89ebc09b0744e496e09eaa518adf48d2941f896112d559bf9b0d6e8f2070d3ad260ebe54b0e1d2d78e0536dd7711aea2a227be5b8e4f443125bd83761c44be210d9b415ecd516baa5a70d0ae2847a03bef22c5c76906e1cac3896f1d95fc46bcc6bf7cf1dcc67edf4ba95b18b4bd37a5e8c616e5806de3ef49f0d1c394f44e5d55282a4670ee2192a102c5befa57bf106a98c6f34ac81c23476c42d8260ff572695bcb795750e95e868a3942c6a9cb40b8e587313aef6e623dc4a9c1b4c605e9626c647448a86dd2559a645fc81824b21a81f593c273accd67f66bc733505d90e4eeba6546d574226158cbf9c8afdd7bc308dd5ec845d3e71d4f5cdef6552065f250d17926b1b30cbeac6403a3ed3027745ba366bb178559bb32a13613bcae722cfd50ce1ca86fdabbfe592a98b38cea014d96aad35ee87328315b32d1fd2ddd720363d8a84c98d9a9f9ca4e89ab37e75fbae2cf41793334ac116e0e008335c1421a6deb60b14b7f1fb490df00d6202b78a5a2a59ff7e387355921db22cc70d00bab0a141d13d03673e555479e76ed8a8accf17cbd1298c55565b63a29205eef1ebfa7f5aa98f3120cb692742da4993e44bbb881af41a669ce3d86bf273a6a87e63c721e372a85934666c5debce052764198ebe877fbcf68dfbb3061f50915444a5475db1639992671ee0af4463652333f890a9880c108a864110a2171b01b37fafdb8d8d73049c11f3a4d992ef7055ca74c53e77fef4f50b653972404f4e5df8ae86e4c6d6e703d99065968380764235c3b1db621c450f54dbe925b3e016f6524b97b2fca4d49a49c05b9864ec34d50cc1b050ff3516da2ed34c182118d0815aec060040de47e71a93dcb469094dcc21d1d635faf88613a110ea2e51ee263077e93181499b592ad9c6f3b6405e09458d1646b5dac15fe9a5d9432cd7a6eb80c1875c8838180a774c51883eb3f59f1290c7453251015000000",
  "txid": "9b427840a5dae2126c8ee033f5ee0caeee50324ea4758b376ceb45cc962f5052",
  "hash": "fb8c4eed8703fcbff80d7d38e785b9afd2b5e748af11ec01ac118c983b1bbd5f",
  "size": 5085,
  "vsize": 2278,
  "version": 1,
  "locktime": 21,
  "vin": [
    {
      "txid": "c7355fddab7b6d53d24270c002ecabb735aa7f49cc6746c916e11faba4b3d88f",
      "vout": 0,
      "scriptSig": {
        "asm": "",
        "hex": ""
      },
      "txinwitness": [
        "c1c73662e50ee3809164c787a5f4e2bb3d3ab141faf2a79e0c2670dcd72fdb29498c970b970bed4eb4e266e7d253ea19417f30af6beef81d283d3298fbc610e108cac0fed0adfa5e50dbe014f6767098c2fc3760240f394c67cbab9e8c8ef44cb528d5de78006a7b84475736ea2d86464f7795c780b042894d54ea2802d57d580a18f4f76063a23bb906a7b96e683d944f249c4c18683cc7ae8f96fb2fa08b1ffe57493ad68a245261f42efa4d39ea737c0a87f61455dcd730e5bc1ce15c85df68a34bf0e11a0d241d5df730427af56714ec5ce3c35764161ca0162d5504f458e9dcdfa4f2ed1daecb7099342e0d2d72fc596fdaf20bcca69382113713a7a5d05951a61dba24539e87e87ec01261d83b40aff374b07339990f9768995701a6543ebbedaf6bf9fd61f8f042360096e6e5945fba39bed89b4ca9d9544390b9beb0d38367bb4a77ce6912077e6e372026597a523616e7bcc991c5cab2b310153c2433f93b5e6e2e5b16bd15252306d0192cb857d5620e85381a5f4be64440aa6685bfbc148439011df15df124efee0e9d50f881411f7ea045b4edf1b69ce045e3f205b92195bc340436591f6922142e4c45db37a2b81d126d413f14cbfac5766e3c7abed0a6220c2c32e8d7d1af36569fc2950752814b9ee478df51377387d378b755630f822df88331d8443d50961fbea669b7ee7814db3cdf01943d691c945391210bf9b586a19bdd46e3c503beb05290658d0f0fe211574d28734d448b94fcc78f12e5abd5a2ef7ab0fd3729c4cb349562cbb1a4d303118d76e52f0f5a063884e5be62565398a8912a17c56a673269f26a6f56a20ac0395b4fb7d883309f82053ef98109768a0bab3a797040db8489827c120397bed7b30aee17df8ef2eeaedabe7e17718961c1a1e39136a4f1aec16b357ab7282c2bc7c18c667b0ee3d39333bfc202971727e308db029d0634e937a87bc81f9122f815cf3e557df2479773a4eb8fbce4588f3ec02cf7b7674e54e22cae0a4b60fd3c85c8d1530b7c0e12a658d219d1363b50e21f7290c233e27212da01866dd63c2a61a3580e36aea2c7883a09e088ecd1c044bb5c065ffcd693c39d6ae444aad0e026d9ad14598943f1a6bf61b909e730d7be7815bdbf866ed746b4e8dc3a8178d50dd882c86b80a772f281b9c1af511529557f6178190af259912f98175061e2744b2b89fc6b1300e36baa1ce5c43820c568787c79163fabacd05d3fd267d4fbe651bce776160c42b6339f704085d1629539462efdac23c79ebcc81ee457d209e7ad81d80fcf9a3ec59173bb46ac4576f30179f534d1b8954dc6df989d5d4927b3eef4bb93b6e6ed1c7e27210f665d961fdb4be21abbbe7b66a81236af951d870517fdb8383fe977e11d9e0da2462e3c962a72834263a2e511a239927391a88b841daf6f7ffadb7adeed0e7708d6aa1465a55b7b166fae689d5e5df7ace103687c03f09b3c565b3a18d82dcfdfb0e350b0226d53d5c9c13a32072e1e9eaf0afae8ceebe83fb8e4811a2381b22bcecb819ef0dbc530141bf1d4ea9ebdf5a5192ded4d8c6819e1f28a6f6c32f928594e621f1861e20c111fa0dde5741e525b479877b00085dbb3dbea325c164eef14f30ccb611466d702ce4d02fa0df1740cf99e1b1f97b8cbca220a180b463281b383c36f85aa600973a5426daea8d72b1e64e9a4f80c8966eab8de6074144f5261a80cf6a509b5dce38e181cd4f8f93ef6982a8ddf242c4f8935b995920d2da06116cb07f647251cbf8ae01208ab1ec84c21ce961f133b69998ce9bfc0eb770964eb39836733c4663f71c4e582766c16a64d4df549554656e9218f5aa5ade8015767d3c394d13a3f8cb9853ab0af5c86bc57a131e237ea02ac2b4e73b36e88c390a1c2535fa15a83b5e61f7c4177d52af625a874a6e718453d50e48429b1b3055bd141f039f178ab417ed1d39549dab66a84978313ba7daa8aa4143d32f705c644f1f196af8ea6d754e3d1fd4dcea7186f1530541840c19da37506bd8dd6611a4e79c13cc850b089f4ebc2ab25563035542214018fcbd8455db96e942036701574f45871954e292bb67c078e8a3a4f0cd733f43d46772916032ec0d224e13441a8ce840009a393067c6686a0e0df51ab9179f36f5b69f9bf4a329c92a5c507fd1e6bc7956805d2e9a5d1dd2f570f0648cc6336ee1c3a13f4b3fd2ee4a17f95b848ec7665e305f075b315b02b99d49c1013d7f2eefa6ce11bb5c7b03e5b0dc99a759322735623c4e4e03545b62b332d51e25d3af3d3da78f35546307f8ac876f331d7cd8387c4fd52247b601a60b48e824fc13ce013b5c575e28966e27e8e28834530710acf63711e085151b67c133c02bfe178be0b6eb23bc185f7474b7601c3729a92d70382fd0758b997a55fb2f951ccbf16dc708d06190f3f257e4fa1cea257ab74a1e092e8f5d0018d4463faeea9acd22e92cb0e49857dc5ce353b2fa09c6cf35807182a0502fd24e37b10d7c549a41e02d4efbeff46890ba321effbd7deb2152c3400265ba0278e8843330feb087e45da75c162d12203cfa31a02f0c9feae15ba630d2e5b622fbbf7b49d73bc86465a358862fe15df05c097d85047e9caec1b30788cc040c07c7ea3d2b3e3c3a1cb71030287a1d3a0adc19fece1a571165e9b5f2742cd7fbb8d6a755836b9a1db550893626805f8da8601228196f78cf865efab1a076f52ad29c87c267c54f284525a01783a53a95cef4120e601beb5e0f67ba13d065dca73c5216ac059efde78085c6c9e8c2a438082308f1e8bbe66f70004081fb55419ab980705cf6e61272295c6f4bc0c6c6b5383b5f778cd33891214114f53fabc017e5ad8fd6064238a90aa3d5f4db9416ff565200e0235eee863f9d31081274456be8aee99f3fc4f7cd4720c038229a36a35a181d09112d79ad88184f5e15d633de34dbf64715b9dd96d0aeb01921da5d77f5630bbff720efcac51c78b4bd101993f70dca6392d36568391ea6f8279ad4de9bb7b0bb611e8ae5b593a92ca365057aa5eeb6f98ac579ba9042705a3b7aa9b593c6c4caaf8002a550a67b86065f233efbf9aa0094f0452c5d317942d5c2f09a78e7a4097017abd53b1bae3931c44b84774ea677a862c65619a1b1c5d8121d1ae63dd09e9706fcaa9a61c9cac83f5b954a42a4859bf81def3fd045010a6b8df2b502a959b1be315ccd67a5c3bdbdd8775da46b7c262a2c55e6e6c8cc4a85de8a5ec3347ce63b50a9ad8626ea85eec8a70b64541c80999129c1b41704bdfc4c3eaf37dc429d5c3021048535a608c96b2c8cbe5f6f7000d5e6783898d8e9abcebf0070b3054696e7584c9d4e3141a3133363c5d5e7a828399b1c0e2e3f9fdff0000000000000000000000000000000000000000000000000e1a253801",
        "00b0aefe80f53320aaed9ecaf31d1a511aa8ee20ba6541f2074ea3e662a0ffd38ecb1342317418d76f83b15b0bb2bd02cd7c03a600f1b9605a925715cbe6ad08337345598d692340d95ab300dc375c4acb241d1c0a74ac5af3f8f73e3fcd9e6606a03d200c43bbadc8a6b1becd6504561e57815c5fde7cfba1ecebed52973d5c37fee96590702d4eaa204885d2196652c52bfb36caaa7afe7f15e5a4870cd1ee1f6620632133d302304a3e22a506d806e42cce070aa406dce8eda3ff41c4b4f5546bad9e3926cdc7621f2e06c22add22b575ace33decff5b579d230e1fa89b3b25162bc963b7a7613e7430edcf3df3d6826baf141c6db31c1f3c8ea60035d120f6608dfafe5f31197d848b878a21c480497a7fba051621151c819073ec57f098cee41f36328291af878064d637674812636b8a795d06bef567235dba5a84cb40f55187c962b17d7a9869e98a794474c358cf2f07c762196bcb8695e77f1326f0195ebefdaf7f4d4fd8c9daa4833bf7e2936c4a46a87f1d4dec5571a6f7a638e7d8a22da496adb9689c3296dfd2b95cff028325edb02f6be1c08ad105bc4c6875696b16babced494ef0b11cfe448eca67df1063fc2b67128d6fda50529d8010f36b9cbdc3bbb1bc0d29a55428d61bb01e5cd4010a13495d9259ff38e6658bd48463052162f4e84b46d5efad9f5a2d33673143646995d2486e12eded3a05bee2241c0b4eff41e8c5cffe587adf53a25b7954d56ac39fd09e9e2a4e65d43bdc14074e142691114272551d9c83a399cfb08b881bd219ab97240c8807034e987981b448c8a4ab3c88538304a545c46fb8b6729647aa07c22a31888939c17368db04709451897e096b1bf5c1180a5b89ebc09b0744e496e09eaa518adf48d2941f896112d559bf9b0d6e8f2070d3ad260ebe54b0e1d2d78e0536dd7711aea2a227be5b8e4f443125bd83761c44be210d9b415ecd516baa5a70d0ae2847a03bef22c5c76906e1cac3896f1d95fc46bcc6bf7cf1dcc67edf4ba95b18b4bd37a5e8c616e5806de3ef49f0d1c394f44e5d55282a4670ee2192a102c5befa57bf106a98c6f34ac81c23476c42d8260ff572695bcb795750e95e868a3942c6a9cb40b8e587313aef6e623dc4a9c1b4c605e9626c647448a86dd2559a645fc81824b21a81f593c273accd67f66bc733505d90e4eeba6546d574226158cbf9c8afdd7bc308dd5ec845d3e71d4f5cdef6552065f250d17926b1b30cbeac6403a3ed3027745ba366bb178559bb32a13613bcae722cfd50ce1ca86fdabbfe592a98b38cea014d96aad35ee87328315b32d1fd2ddd720363d8a84c98d9a9f9ca4e89ab37e75fbae2cf41793334ac116e0e008335c1421a6deb60b14b7f1fb490df00d6202b78a5a2a59ff7e387355921db22cc70d00bab0a141d13d03673e555479e76ed8a8accf17cbd1298c55565b63a29205eef1ebfa7f5aa98f3120cb692742da4993e44bbb881af41a669ce3d86bf273a6a87e63c721e372a85934666c5debce052764198ebe877fbcf68dfbb3061f50915444a5475db1639992671ee0af4463652333f890a9880c108a864110a2171b01b37fafdb8d8d73049c11f3a4d992ef7055ca74c53e77fef4f50b653972404f4e5df8ae86e4c6d6e703d99065968380764235c3b1db621c450f54dbe925b3e016f6524b97b2fca4d49a49c05b9864ec34d50cc1b050ff3516da2ed34c182118d0815aec060040de47e71a93dcb469094dcc21d1d635faf88613a110ea2e51ee263077e93181499b592ad9c6f3b6405e09458d1646b5dac15fe9a5d9432cd7a6eb80c1875c8838180a774c51883eb3f59f1290c74532510"
      ],
      "sequence": 4294967294
    }
  ],
  "vout": [
    {
      "value": 499984.7465,
      "n": 0,
      "scriptPubKey": {
        "asm": "1 292aebb874f02c47bf692d7936db8e26de663b8449ef2c88a2b3ed27eb71aaab",
        "hex": "5120292aebb874f02c47bf692d7936db8e26de663b8449ef2c88a2b3ed27eb71aaab",
        "reqSigs": 1,
        "type": "witness_v1_scripthash",
        "addresses": [
          "3QJmnh"
        ]
      }
    },
    {
      "value": 1.0,
      "n": 1,
      "scriptPubKey": {
        "asm": "OP_RETURN 7bcf4f2c05090d24f739606f737d326ae9c68164fe088b4975eab36ed75547b3 79e389b1b497b56321305ede13ade4b73af317d8e0686cc09e3f82175923d6a759c3a99194b7954301107efe338dc4971ad337f8c0484ce0be1fa2377903f68739a3c9f1f4d7f52361701e9e53eda4f77ab35798a0282c80de7fc257196396e71983e9d1d4f7d50341503ebe73cd84d75a9377b880080ca0fe5fe2773943b6c7f9630931341735e3a1b0de5e932d6437ba73975860e8ec401ebf0297d9a35627d9432911143715c38190fe7eb30d44179a53b77840c8cc603e9f22b7f9837607b9234971745775a3e1f09e1ed36d2477fa33d71820a8ac005eff42d799e316679903695154775583c1d0be3ef34d0457da13f73800888c207edf62f7b9c3364779e389b1b497b56321305ede13ade4b73af317d8e0686cc09e3f82175923d6a759c3a99194b7954301107efe338dc4971ad337f8c0484ce0be1fa2377903f68739a3c9f1f4d7f52361701e9e53eda4f77ab35798a0282c80de7fc257196396e71983e9d1d4f7d50341503ebe73cd84d75a9377b880080ca0fe5fe2773943b6c7f9630931341735e3a1b0de5e932d6437ba73975860e8ec401ebf0297d9a35627d9432911143715c38190fe7eb30d44179a53b77840c8cc603e9f22b7f9837607b9234971745775a3e1f09e1ed36d2477fa33d71820a8ac005eff42d799e316679903695154775583c1d0be3ef34d0457da13f73800888c207edf62f7b9c3364779e389b1b497b56321305ede13ade4b73af317d8e0686cc09e3f82175923d6a759c3a99194b7954301107efe338dc4971ad337f8c0484ce0be1fa2377903f68739a3c9f1f4d7f52361701e9e53eda4f77ab35798a0282c80de7fc257196396e71983e9d1d4f7d50341503ebe73cd84d75a9377b880080ca0fe5fe2773943b6c7f9630931341735e3a1b0de5e932d6437ba73975860e8ec401ebf0297d9a35627d9432911143715c38190fe7eb30d44179a53b77840c8cc603e9f22b7f9837607b9234971745775a3e1f09e1ed36d2477fa33d71820a8ac005eff42d799e316679903695154775583c1d0be3ef34d0457da13f73800888c207edf62f7b9c3364779e389b1b497b56321305ede13ade4b73af317d8e0686cc09e3f82175923d6a759c3a99194b7954301107efe338dc4971ad337f8c0484ce0be1fa2377903f68739a3c9f1f4d7f52361701e9e53eda4f77ab35798a0282c80de7fc257196396e71983e9d1d4f7d50341503ebe73cd84d75a9377b880080ca0fe5fe2773943b6c7f9630931341735e3a1b0de5e932d6437ba73975860e8ec401ebf0297d9a35627d9432911143715c38190fe7eb30d44179a53b77840c8cc603e9f22b7f9837607b9234971745775a3e1f09e1ed36d2477fa33d71820a8ac005eff42d799e316679903695154775583c1d0be3ef34d0457da13f73800888c207edf62f7b9c3364779e389b1b497b56321305ede13ade4b73af317d8e0686cc09e3f82175923d6a759c3a99194b7954301107efe338dc4971ad337f8c0484ce0be1fa2377903f68739a3c9f1f4d7f52361701e9e53eda4f77ab35798a0282c80de7fc257196396e71983e9d1d4f7d50341503ebe73cd84d75a9377b880080ca0fe5fe2773943b6c7f9630931341735e3a1b0de5e932d64379d4fd09c99108061498eec2ebeb0b042c9d03de95c2e940e31aa89b4756a5999",
        "hex": "6a207bcf4f2c05090d24f739606f737d326ae9c68164fe088b4975eab36ed75547b34db00479e389b1b497b56321305ede13ade4b73af317d8e0686cc09e3f82175923d6a759c3a99194b7954301107efe338dc4971ad337f8c0484ce0be1fa2377903f68739a3c9f1f4d7f52361701e9e53eda4f77ab35798a0282c80de7fc257196396e71983e9d1d4f7d50341503ebe73cd84d75a9377b880080ca0fe5fe2773943b6c7f9630931341735e3a1b0de5e932d6437ba73975860e8ec401ebf0297d9a35627d9432911143715c38190fe7eb30d44179a53b77840c8cc603e9f22b7f9837607b9234971745775a3e1f09e1ed36d2477fa33d71820a8ac005eff42d799e316679903695154775583c1d0be3ef34d0457da13f73800888c207edf62f7b9c3364779e389b1b497b56321305ede13ade4b73af317d8e0686cc09e3f82175923d6a759c3a99194b7954301107efe338dc4971ad337f8c0484ce0be1fa2377903f68739a3c9f1f4d7f52361701e9e53eda4f77ab35798a0282c80de7fc257196396e71983e9d1d4f7d50341503ebe73cd84d75a9377b880080ca0fe5fe2773943b6c7f9630931341735e3a1b0de5e932d6437ba73975860e8ec401ebf0297d9a35627d9432911143715c38190fe7eb30d44179a53b77840c8cc603e9f22b7f9837607b9234971745775a3e1f09e1ed36d2477fa33d71820a8ac005eff42d799e316679903695154775583c1d0be3ef34d0457da13f73800888c207edf62f7b9c3364779e389b1b497b56321305ede13ade4b73af317d8e0686cc09e3f82175923d6a759c3a99194b7954301107efe338dc4971ad337f8c0484ce0be1fa2377903f68739a3c9f1f4d7f52361701e9e53eda4f77ab35798a0282c80de7fc257196396e71983e9d1d4f7d50341503ebe73cd84d75a9377b880080ca0fe5fe2773943b6c7f9630931341735e3a1b0de5e932d6437ba73975860e8ec401ebf0297d9a35627d9432911143715c38190fe7eb30d44179a53b77840c8cc603e9f22b7f9837607b9234971745775a3e1f09e1ed36d2477fa33d71820a8ac005eff42d799e316679903695154775583c1d0be3ef34d0457da13f73800888c207edf62f7b9c3364779e389b1b497b56321305ede13ade4b73af317d8e0686cc09e3f82175923d6a759c3a99194b7954301107efe338dc4971ad337f8c0484ce0be1fa2377903f68739a3c9f1f4d7f52361701e9e53eda4f77ab35798a0282c80de7fc257196396e71983e9d1d4f7d50341503ebe73cd84d75a9377b880080ca0fe5fe2773943b6c7f9630931341735e3a1b0de5e932d6437ba73975860e8ec401ebf0297d9a35627d9432911143715c38190fe7eb30d44179a53b77840c8cc603e9f22b7f9837607b9234971745775a3e1f09e1ed36d2477fa33d71820a8ac005eff42d799e316679903695154775583c1d0be3ef34d0457da13f73800888c207edf62f7b9c3364779e389b1b497b56321305ede13ade4b73af317d8e0686cc09e3f82175923d6a759c3a99194b7954301107efe338dc4971ad337f8c0484ce0be1fa2377903f68739a3c9f1f4d7f52361701e9e53eda4f77ab35798a0282c80de7fc257196396e71983e9d1d4f7d50341503ebe73cd84d75a9377b880080ca0fe5fe2773943b6c7f9630931341735e3a1b0de5e932d64379d4fd09c99108061498eec2ebeb0b042c9d03de95c2e940e31aa89b4756a5999",
        "type": "nulldata"
      }
    }
  ],
  "blockhash": "d7a7b9a6fa9b7eeca4ed3b292cd4c21f070551bfab2aaeca0619c41458c07723",
  "confirmations": 1,
  "time": 1764178593,
  "blocktime": 1764178593
}