{
  "hex": "01000000000101efeecf8871a6f8128f9fe4ed8bdb08b2c813d86a33b31b0c356ce06a9bd0f2800000000000feffffff026024ab89782d000022512093a8c26b28e67097ff772bb7e8fc4cfdc11ed46a219ab297476ba1b6ffe50b3b00e1f50500000000fdd5046a20fa8d6b926165473693bd8d9f59cca7d241d7df31d80e1096a0980db2a9f0117b4db004d4bee0c704df033e32170bc178f092a64392e28dfd0cb6126f408b990b5f5a6cf49ec0e724ff231e12372be158d0b28663b2c2addd2c96324f60abb92b7f7a4c94fea087449f437e72574b8138b0d2e603d2a2cdbd4cf6522f00cbd94b1f1a2cb4de80a764bf635e52776ba11890f2c623f282ed9d6cd6720f20ebf96b3f3a0c543e6047845f83beb2978b41f8701226c312620d7d8c3692efc00b198bdfdaec741e4067a47fa39e92b7ab61d8503206e332422d5dac16b2cfe02b39abfffacc147e2007c41fc3fef2d7cb01b83052668352224d3dcc76d2af804b59cb9f9aac345e0027e43fe3ded2f7eb2198107246a372026d1dec56f28fa06b79ebbfba8cd4bee0c704df033e32170bc178f092a64392e28dfd0cb6126f408b990b5f5a6cf49ec0e724ff231e12372be158d0b28663b2c2addd2c96324f60abb92b7f7a4c94fea087449f437e72574b8138b0d2e603d2a2cdbd4cf6522f00cbd94b1f1a2cb4de80a764bf635e52776ba11890f2c623f282ed9d6cd6720f20ebf96b3f3a0c543e6047845f83beb2978b41f8701226c312620d7d8c3692efc00b198bdfdaec741e4067a47fa39e92b7ab61d8503206e332422d5dac16b2cfe02b39abfffacc147e2007c41fc3fef2d7cb01b83052668352224d3dcc76d2af804b59cb9f9aac345e0027e43fe3ded2f7eb2198107246a372026d1dec56f28fa06b79ebbfba8cd4bee0c704df033e32170bc178f092a64392e28dfd0cb6126f408b990b5f5a6cf49ec0e724ff231e12372be158d0b28663b2c2addd2c96324f60abb92b7f7a4c94fea087449f437e72574b8138b0d2e603d2a2cdbd4cf6522f00cbd94b1f1a2cb4de80a764bf635e52776ba11890f2c623f282ed9d6cd6720f20ebf96b3f3a0c543e6047845f83beb2978b41f8701226c312620d7d8c3692efc00b198bdfdaec741e4067a47fa39e92b7ab61d8503206e332422d5dac16b2cfe02b39abfffacc147e2007c41fc3fef2d7cb01b83052668352224d3dcc76d2af804b59cb9f9aac345e0027e43fe3ded2f7eb2198107246a372026d1dec56f28fa06b79ebbfba8cd4bee0c704df033e32170bc178f092a64392e28dfd0cb6126f408b990b5f5a6cf49ec0e724ff231e12372be158d0b28663b2c2addd2c96324f60abb92b7f7a4c94fea087449f437e72574b8138b0d2e603d2a2cdbd4cf6522f00cbd94b1f1a2cb4de80a764bf635e52776ba11890f2c623f282ed9d6cd6720f20ebf96b3f3a0c543e6047845f83beb2978b41f8701226c312620d7d8c3692efc00b198bdfdaec741e4067a47fa39e92b7ab61d8503206e332422d5dac16b2cfe02b39abfffacc147e2007c41fc3fef2d7cb01b83052668352224d3dcc76d2af804b59cb9f9aac345e0027e43fe3ded2f7eb2198107246a372026d1dec56f28fa06b79ebbfba8cd4bee0c704df033e32170bc178f092a64392e28dfd0cb6126f408b990b5f5a6cf49ec0e724ff231e12372be158d0b28663b2c2addd2c96324f60abb92b7f7a4c94fea087449f437e72574b8138b0d2e603d2a2cdbd4cf6522f00cbd94b1f1a2cb4de80a764bf635e52776ba11890f2c623f282ed9d6cd6720f20ebf96b3f3a0c543e6047845f83beb2978b41f8701226aad9f49379be135a6321bf58adcc10997a802bf85cef1c373cb12baf54ee5fb302fd7509204d3818dd3807f98821ba0be332055a1d777bd3249e51cbda70c719324f92fecd5375fd6a8b0e56d818f9735abf5733cc84b50cccd4594d8083b8a84dd7c64f898897ca2a270ab0eb600d5ccbc3158c471c227f02a9eb993a47c8a796a5ab68394013726e8a6e93c97051f877eea63cb5887eb5a53325bcc280f1b2e451e2dd8eec9ba64dd4cc22f782f48a014ceed6ec546c296eed18cdc8fa1c67cfb014910adaa25a20abe5ed81b18d74497847f00cfe89146853cdb2755feffc689f5bf994ecc391997f6a480dd32baf03b32b097b878981036ff6a98cedb92f1b51ebfb89e0590fba8619dd66c03ab9f70f845403a27de933ae4c6edbe32c3c3b44f55780457736db51fddcf2cfcb2fc7f66bca5a152bbfc01b689ac8ef0a96da2cd25fc95e00fb6f0b788a75d5b06548eee4f430191db76a0e7ee9838d57555518ab8d01fa5dcd50debe2b374e78899b10717deda0684b0fa1e287de9295074637f53bc2b6c94d3040558ed05775d0705c65c352e51ad6467f5d2a0323c587210dbf990d432af2949a6de2973292933414616ec93c0e06f80834194b87149b9537662833d7265abe8dcb4608e67cb0d5bf93a4ff5d221e448c6bb4053eddd7f991e93b52e9ef3fedfba103496d95368d928fa25b095195cb1dc3ff09b687594bde72b13ed6e6fc63029e4f3708ea4ce67a81028ba7014a927ef31ce687e8d74a66e4bed2bec64e619593d0d0bab73b2d003c4d3c1bc7f34f8611bd1cc10dcc0209b8c6fe2c0eb18f2017648dff8d0e9c91a350d3477eeb50c987868566abacffd2f2fd6d6c989b826b8d45cd81747386a65b5dd3ca6326c8f4aff8a80b750835251be26eaf554f95aa362646ad7019b49cc7a590261bbdffa52fa617b8b4200d60ab76dfb924a0783af71258109aae4d1dc47283dceb55f30375e4c95c38c9747ca3ee152d149ddec3383c57dca2f5cad9962e6d6909f5523445b7ec97f051d022757be5274e2b10cfa6dc5bdf1caf38114f98b50c2310c3cdd7ecbbe7e753a054b1f70f9e5d23a4c2a60d802d0dfb9aaeeb85f207cdb47d4f6ffed363c7a667f512c910df186e3d995fe7a4d9bd58493fe3d7502dc1f082d6878a4a78c414849243e37f77b4131d3f4e0bfad530fcd4a79065512d1dfc6f3ec9f5f44a9bd5b42e89b812c7ac345bdbb464297e941a290a5c845fdfcbe85eedd46146b185ef13a1ede757158962a38a9a09401b17c491f312b70715f3e9353bb8a44420cf7089a286f2fed92116383ac92a3ccc67c4c69d92c7e25af614629c153a0e4fc15ee4e8c9959a419c05fa34578f615f18b3c349cba57bf341baf6457bdd86fb54675760886e9a55347677ea0a44019e824ed30c468a932774f7d5d894161d539259a0436af30888bb64777d80a2645058a5fdf40387d609ec50c98ea44979f9a74a9bb9792901154f2d70cd1a1f5fb719f8ebf16cbb7f29471f3ca6f8cf5baef4ba5e708b32bf80714a1ce33bfc314db9131f29a76518563ab164b7dd2ef3c7b8b9386a9df62f0639f84e1691cad88b89198cc3857ca8176b52760e1c910b4bbf72af6d9593216e8d7ce1bb760729f6f669c0f2ead142f080a2e6ca56c1c7aea117159f347853f77db121a496f112ca37896ed78d6c5583aeb8ce13d653e001e3f4dd1252605c977bda9353858910c483bec7fc1c11f12d0c2862aff64bd7da2129338734e8e19b406a680a4689a9c2e23ec2d2381884aa143290eebd00abdc59b608adbdb947bf254c937ff410f24fafcba83fff06e29e52b4cb4c2adec21a7e9e750ac64f914801a255e2997e26ceccff7f7807caffb284aca245fd4e573fcd3f1a2889be67a6c240d96175612d4f5384358f4cdb470e2ccf7f2ccb22f94252c9cf66a644d5cbbc1acb2259d697d1fdb6b58ccd6d3591b9d90d7354f0feb378998f270351d1d0ac1e51b88e6f9ec16f934ef185afc5b1f1c46a1c78821952f6095e5fb80af646458515867bc54dd6dc5418f7bdb5a0baf684284ff7440a8be2f1d8e1e10e805e14ce798d9999e825dce1fea383e51cacc7af6558fe603f766406b6283548d6d1dd9a0bc47b5c3ee25f75d7203b8f8f4922d618eb3025b45132d5df4652c86e868761b2ab6a9c7b01ce7e4966d99224b8e310c5f48a4d461bc2e733eaede19c26f3ce3604b0f45b6d8af0d6020446d185dfc515f3aec1fec0593adebfab886807c72884e6f458b44ad50dc8df22db2d78384fc38c8d64de45f7b37664414838375ab49bda2538300f2857612968893d76e297419c52f3afcbeb57ce817559ede18c5f9d3cd4f2c5d981501234ad6e177986daaadc2b0924c8bd70be0de0399ef2fb4573e75c2b65ecb432e86bd07527f681e1714d0729be58e6ba12db049639adb653884f1ffb0d8673ebf99511461d64f8abe490572b3ad33b8ebb0f70a56dd4c34fdee5bcaf89582e078fae36033ad9ce479a1a5135c8e17d3872bc72aa69061a6e4aaab66b7d9e265fe089456eeabab32ac7b781f5d329b2d097125961fd8234ef07c9fcdca616ead0e77be5f70e71912fa10144caaf507af0b7d4147b3d3acc2c7b65990345bef44976b9791d6e8eeee01075c7c8bce7b18c3da9aae62a7903c394be0337d3577caa25c7e705d94b513e9393f71f03c31da2a34ee37df1268cbdb7d9952d5e31a3a4261dc8250ad9b4ff40f7e9b44a327814b2b8d41f771aaa89cdb13dac3694d7f3af32aa6f984576ae38b13c6e271ca88057edfed24558369c2bb519555998abd2825d5a163b75c8283108d21a19bf07eb8553af01119864326d7d974e889e5decb85bd6c4b421d8eb53dc4e51d07df60b35152e0c0c929fea3511199d7edc92b22c5c64eb0f3d581c06d26509f8ab2597bdec38ad5dbc68d5d131e7f92aec1dbc15f3f7fae7478a01155e79f7cbaa271f63f12873c31beb5b4b13321cf7196219957df41e081060faaedad86f78e17f663714200e029e6b8d9173e77f4fa415e048d8850e2ae21475099bd164d1235b2b5eb3454731f2015379b471c685137507a2ceffe2ce84c9eeb07b1fc4dc9a8b5615003b125dc38257a0f22aa0c0df02d66b5c684f70727f838e663595a465be8da94fd1b4d960779b91b64195d30da4a7289fbe0bececba0cdd9868ef4864cd8cc62ef3d94f12521b57174dca12870ca64959e7f56bcb57a1eb244503db935494762a091024c69643f6d83a229a8219ca3fce316f514a6d7b225dec46b624d7c1ef9151202c7d86caace1f031b96dec76c6b90694936a6fbedd089dc3dffe6ede1e80def1030d10465c889aaec1e5eb011b3a414853566f707b8d939b9fa1a2cfd3e50d314648525b686b7d8284939a9edc232b4f63666c7890a3acbec7e1e9fd00000000000000000000000000000000000000000b1e2d3c01fd210500438ec844abb204b66e0e58faec532931b92f5e5b9cf86c018cdc31fecbd3aab04c5ebecc422755880e633bcaf9cacfe2ac39d8e0f46a987111ffa3d45082ef8ca7f0c8c66854ea6b3f2470316ea60dc19b3db5479217070af1abc0d6aea17a47bbe15801aca4f62c3a6f036698448edeea5fe8fa58a4852d38f08f2414950f924c6cde90d7eb8f7dca7ff6458c689bae16e4492e23ea0791c95f9fcd1cbec9f3e535533437033c5507f47da8d57e4e2beac2f560ef6c6e3570fbe80c4eb3f53729294ca39a58adf09f783c79c89757437e6725c2f90e7996228e7f3d218bd3d54a3ac5b4c221f9542bd19ac6a0299c1be0cad90d4713f1d33e8e4cf503f2dcc29a514bdecaa464efd0ed8615bc1cd7bc38933b0678fbb2bc1dc444312413c6a107646f0d975d5840daf6a50dff428e464ea33d427e54e5544fe8c61c0552bc5402bfacf2a8479a7f0ca63f9111d2850cb18455367f2fade81d301a17827d9ff3c54ee13031939826d6bf5c22aa7dec1945d1cc6e7d1ada5ec605aab573655a69b7c46a9b00b5e81671ef4d4a31aaf6562c12c9c054b1fa9710062e7f595478375d94db2696dcbaa23260c58bf39a8a8d77827286eb69003e6e8e2a90f72aa19c7fafe3db8887e8a8f6bdfc4de7e91cc165bd6df6a8c2e7af3ae3d7ac8470ed5504f84e2e958d440be41a454189c85d91b5520287724ffef7427cec50523a2008d6f78873cd914820f57ed9be77f6a3cc514bb5ef026ee74ecf1811491b351d7ed94e5c3e5ea0cd5abbced25a41e0a3305426c66e151e668a75a04d361604d1b2a414d552e2529d21e7e95db989c15a186bb1fbfe9a6a2b0d1f403adaf07121c6d35911d94199b994b984a1d37ae72b8eba66b93e27a837db2d26c13942e11b71ecaf1137e614b595a565d6035941e8f9955d132ed7991553d16d5c3cf0240671ab8a8e31c2493ef7eb648df7f8d927dbd114a6756b6c9c66cef49e4f1d975b0dfa1b2128bc8375f4a25b8afc3d6647014b7dbb0c8dd107d1777fc3738c9123a09904b69ae465fc46e54fdcab794a279952815c62129e14b38cf300fef530e1c511a17cbeba6a3b1ed88b18a2492dd9dc6b538e235196f8b708068d49c834a2f8658f539fc4af0861d8c27aa0b9f23d092c324abc52e33f00cbc0f62a9a7265676242427f8e65714ca012fef4cdf028ddc227b4711b0058f3f105de1fac4d564b05ed07e2b00d86f2d8727068ccbf62139785b94dc1364bfd4c00d98b1d84a0629d19c85b2e8a938650d502958d4f9d6e96088b114e4286c2426e3b409675564a9145753f116b4727888f898c3a2c3c45692ed60881eaea5ec17714a03730536009fb67a51a2d35a4f9a04e9c4b4fd41fc65d4a954fc06174eca05f8be5848a4af5f6471023af4b9871c2c3e4a526700d2c5dfba2565184bdcfccccddedde7de7d8ea4170432ff045b3ea26c48b7b91b1bfd6e2e06a9c522c3bae375aea49bf6342abf050c06683fb027b5cf0a49f50274bf2a2a6eb49e1328cb7746e2e2d27de9343cac6a2f38e42fdbe71ce258213deb6472fd7da3d72aaa614a23486db54d8cc80b489fa00fad05a64e33d6d65ea491751c5e5e13df44217e43473205c0f93999dd0d3d2625ce35763615b977e8b02ae228b91a10a8eb92971ba8f19be5548419bbf195249899eb2b28c446febfb906835fbc2421b4e64f9abeda42437fcb06c60efcc51ae2486b8d31bc1e9314523ad1bed1458f538b3947dce9d2419f602f9dae9e90aa3e861ce88511a0f76d7aabc8ddf0c5a59bf216e6d0357b76417d9eb861607c56888919ba1dc051e77e85066040c91b2085adeb3e35118331d54c98c000000",
  "txid": "99d37b24eb509505e6991f5fb2f00e2d192d59f3ee992a78389b380ff505d1ea",
  "hash": "3234457d1d0ad6c5fbcaef02ab992f767a3d58f8e545423df66d5e844b5c7613",
  "size": 5085,
  "vsize": 2278,
  "version": 1,
  "locktime": 140,
  "vin": [
    {
      "txid": "80f2d09b6ae06c350c1bb3336ad813c8b208db8bede49f8f12f8a67188cfeeef",
      "vout": 0,
      "scriptSig": {
        "asm": "",
        "hex": ""
      },
      "txinwitness": [
        "204d3818dd3807f98821ba0be332055a1d777bd3249e51cbda70c719324f92fecd5375fd6a8b0e56d818f9735abf5733cc84b50cccd4594d8083b8a84dd7c64f898897ca2a270ab0eb600d5ccbc3158c471c227f02a9eb993a47c8a796a5ab68394013726e8a6e93c97051f877eea63cb5887eb5a53325bcc280f1b2e451e2dd8eec9ba64dd4cc22f782f48a014ceed6ec546c296eed18cdc8fa1c67cfb014910adaa25a20abe5ed81b18d74497847f00cfe89146853cdb2755feffc689f5bf994ecc391997f6a480dd32baf03b32b097b878981036ff6a98cedb92f1b51ebfb89e0590fba8619dd66c03ab9f70f845403a27de933ae4c6edbe32c3c3b44f55780457736db51fddcf2cfcb2fc7f66bca5a152bbfc01b689ac8ef0a96da2cd25fc95e00fb6f0b788a75d5b06548eee4f430191db76a0e7ee9838d57555518ab8d01fa5dcd50debe2b374e78899b10717deda0684b0fa1e287de9295074637f53bc2b6c94d3040558ed05775d0705c65c352e51ad6467f5d2a0323c587210dbf990d432af2949a6de2973292933414616ec93c0e06f80834194b87149b9537662833d7265abe8dcb4608e67cb0d5bf93a4ff5d221e448c6bb4053eddd7f991e93b52e9ef3fedfba103496d95368d928fa25b095195cb1dc3ff09b687594bde72b13ed6e6fc63029e4f3708ea4ce67a81028ba7014a927ef31ce687e8d74a66e4bed2bec64e619593d0d0bab73b2d003c4d3c1bc7f34f8611bd1cc10dcc0209b8c6fe2c0eb18f2017648dff8d0e9c91a350d3477eeb50c987868566abacffd2f2fd6d6c989b826b8d45cd81747386a65b5dd3ca6326c8f4aff8a80b750835251be26eaf554f95aa362646ad7019b49cc7a590261bbdffa52fa617b8b4200d60ab76dfb924a0783af71258109aae4d1dc47283dceb55f30375e4c95c38c9747ca3ee152d149ddec3383c57dca2f5cad9962e6d6909f5523445b7ec97f051d022757be5274e2b10cfa6dc5bdf1caf38114f98b50c2310c3cdd7ecbbe7e753a054b1f70f9e5d23a4c2a60d802d0dfb9aaeeb85f207cdb47d4f6ffed363c7a667f512c910df186e3d995fe7a4d9bd58493fe3d7502dc1f082d6878a4a78c414849243e37f77b4131d3f4e0bfad530fcd4a79065512d1dfc6f3ec9f5f44a9bd5b42e89b812c7ac345bdbb464297e941a290a5c845fdfcbe85eedd46146b185ef13a1ede757158962a38a9a09401b17c491f312b70715f3e9353bb8a44420cf7089a286f2fed92116383ac92a3ccc67c4c69d92c7e25af614629c153a0e4fc15ee4e8c9959a419c05fa34578f615f18b3c349cba57bf341baf6457bdd86fb54675760886e9a55347677ea0a44019e824ed30c468a932774f7d5d894161d539259a0436af30888bb64777d80a2645058a5fdf40387d609ec50c98ea44979f9a74a9bb9792901154f2d70cd1a1f5fb719f8ebf16cbb7f29471f3ca6f8cf5baef4ba5e708b32bf80714a1ce33bfc314db9131f29a76518563ab164b7dd2ef3c7b8b9386a9df62f0639f84e1691cad88b89198cc3857ca8176b52760e1c910b4bbf72af6d9593216e8d7ce1bb760729f6f669c0f2ead142f080a2e6ca56c1c7aea117159f347853f77db121a496f112ca37896ed78d6c5583aeb8ce13d653e001e3f4dd1252605c977bda9353858910c483bec7fc1c11f12d0c2862aff64bd7da2129338734e8e19b406a680a4689a9c2e23ec2d2381884aa143290eebd00abdc59b608adbdb947bf254c937ff410f24fafcba83fff06e29e52b4cb4c2adec21a7e9e750ac64f914801a255e2997e26ceccff7f7807caffb284aca245fd4e573fcd3f1a2889be67a6c240d96175612d4f5384358f4cdb470e2ccf7f2ccb22f94252c9cf66a644d5cbbc1acb2259d697d1fdb6b58ccd6d3591b9d90d7354f0feb378998f270351d1d0ac1e51b88e6f9ec16f934ef185afc5b1f1c46a1c78821952f6095e5fb80af646458515867bc54dd6dc5418f7bdb5a0baf684284ff7440a8be2f1d8e1e10e805e14ce798d9999e825dce1fea383e51cacc7af6558fe603f766406b6283548d6d1dd9a0bc47b5c3ee25f75d7203b8f8f4922d618eb3025b45132d5df4652c86e868761b2ab6a9c7b01ce7e4966d99224b8e310c5f48a4d461bc2e733eaede19c26f3ce3604b0f45b6d8af0d6020446d185dfc515f3aec1fec0593adebfab886807c72884e6f458b44ad50dc8df22db2d78384fc38c8d64de45f7b37664414838375ab49bda2538300f2857612968893d76e297419c52f3afcbeb57ce817559ede18c5f9d3cd4f2c5d981501234ad6e177986daaadc2b0924c8bd70be0de0399ef2fb4573e75c2b65ecb432e86bd07527f681e1714d0729be58e6ba12db049639adb653884f1ffb0d8673ebf99511461d64f8abe490572b3ad33b8ebb0f70a56dd4c34fdee5bcaf89582e078fae36033ad9ce479a1a5135c8e17d3872bc72aa69061a6e4aaab66b7d9e265fe089456eeabab32ac7b781f5d329b2d097125961fd8234ef07c9fcdca616ead0e77be5f70e71912fa10144caaf507af0b7d4147b3d3acc2c7b65990345bef44976b9791d6e8eeee01075c7c8bce7b18c3da9aae62a7903c394be0337d3577caa25c7e705d94b513e9393f71f03c31da2a34ee37df1268cbdb7d9952d5e31a3a4261dc8250ad9b4ff40f7e9b44a327814b2b8d41f771aaa89cdb13dac3694d7f3af32aa6f984576ae38b13c6e271ca88057edfed24558369c2bb519555998abd2825d5a163b75c8283108d21a19bf07eb8553af01119864326d7d974e889e5decb85bd6c4b421d8eb53dc4e51d07df60b35152e0c0c929fea3511199d7edc92b22c5c64eb0f3d581c06d26509f8ab2597bdec38ad5dbc68d5d131e7f92aec1dbc15f3f7fae7478a01155e79f7cbaa271f63f12873c31beb5b4b13321cf7196219957df41e081060faaedad86f78e17f663714200e029e6b8d9173e77f4fa415e048d8850e2ae21475099bd164d1235b2b5eb3454731f2015379b471c685137507a2ceffe2ce84c9eeb07b1fc4dc9a8b5615003b125dc38257a0f22aa0c0df02d66b5c684f70727f838e663595a465be8da94fd1b4d960779b91b64195d30da4a7289fbe0bececba0cdd9868ef4864cd8cc62ef3d94f12521b57174dca12870ca64959e7f56bcb57a1eb244503db935494762a091024c69643f6d83a229a8219ca3fce316f514a6d7b225dec46b624d7c1ef9151202c7d86caace1f031b96dec76c6b90694936a6fbedd089dc3dffe6ede1e80def1030d10465c889aaec1e5eb011b3a414853566f707b8d939b9fa1a2cfd3e50d314648525b686b7d8284939a9edc232b4f63666c7890a3acbec7e1e9fd00000000000000000000000000000000000000000b1e2d3c01",
        "00438ec844abb204b66e0e58faec532931b92f5e5b9cf86c018cdc31fecbd3aab04c5ebecc422755880e633bcaf9cacfe2ac39d8e0f46a987111ffa3d45082ef8ca7f0c8c66854ea6b3f2470316ea60dc19b3db5479217070af1abc0d6aea17a47bbe15801aca4f62c3a6f036698448edeea5fe8fa58a4852d38f08f2414950f924c6cde90d7eb8f7dca7ff6458c689bae16e4492e23ea0791c95f9fcd1cbec9f3e535533437033c5507f47da8d57e4e2beac2f560ef6c6e3570fbe80c4eb3f53729294ca39a58adf09f783c79c89757437e6725c2f90e7996228e7f3d218bd3d54a3ac5b4c221f9542bd19ac6a0299c1be0cad90d4713f1d33e8e4cf503f2dcc29a514bdecaa464efd0ed8615bc1cd7bc38933b0678fbb2bc1dc444312413c6a107646f0d975d5840daf6a50dff428e464ea33d427e54e5544fe8c61c0552bc5402bfacf2a8479a7f0ca63f9111d2850cb18455367f2fade81d301a17827d9ff3c54ee13031939826d6bf5c22aa7dec1945d1cc6e7d1ada5ec605aab573655a69b7c46a9b00b5e81671ef4d4a31aaf6562c12c9c054b1fa9710062e7f595478375d94db2696dcbaa23260c58bf39a8a8d77827286eb69003e6e8e2a90f72aa19c7fafe3db8887e8a8f6bdfc4de7e91cc165bd6df6a8c2e7af3ae3d7ac8470ed5504f84e2e958d440be41a454189c85d91b5520287724ffef7427cec50523a2008d6f78873cd914820f57ed9be77f6a3cc514bb5ef026ee74ecf1811491b351d7ed94e5c3e5ea0cd5abbced25a41e0a3305426c66e151e668a75a04d361604d1b2a414d552e2529d21e7e95db989c15a186bb1fbfe9a6a2b0d1f403adaf07121c6d35911d94199b994b984a1d37ae72b8eba66b93e27a837db2d26c13942e11b71ecaf1137e614b595a565d6035941e8f9955d132ed7991553d16d5c3cf0240671ab8a8e31c2493ef7eb648df7f8d927dbd114a6756b6c9c66cef49e4f1d975b0dfa1b2128bc8375f4a25b8afc3d6647014b7dbb0c8dd107d1777fc3738c9123a09904b69ae465fc46e54fdcab794a279952815c62129e14b38cf300fef530e1c511a17cbeba6a3b1ed88b18a2492dd9dc6b538e235196f8b708068d49c834a2f8658f539fc4af0861d8c27aa0b9f23d092c324abc52e33f00cbc0f62a9a7265676242427f8e65714ca012fef4cdf028ddc227b4711b0058f3f105de1fac4d564b05ed07e2b00d86f2d8727068ccbf62139785b94dc1364bfd4c00d98b1d84a0629d19c85b2e8a938650d502958d4f9d6e96088b114e4286c2426e3b409675564a9145753f116b4727888f898c3a2c3c45692ed60881eaea5ec17714a03730536009fb67a51a2d35a4f9a04e9c4b4fd41fc65d4a954fc06174eca05f8be5848a4af5f6471023af4b9871c2c3e4a526700d2c5dfba2565184bdcfccccddedde7de7d8ea4170432ff045b3ea26c48b7b91b1bfd6e2e06a9c522c3bae375aea49bf6342abf050c06683fb027b5cf0a49f50274bf2a2a6eb49e1328cb7746e2e2d27de9343cac6a2f38e42fdbe71ce258213deb6472fd7da3d72aaa614a23486db54d8cc80b489fa00fad05a64e33d6d65ea491751c5e5e13df44217e43473205c0f93999dd0d3d2625ce35763615b977e8b02ae228b91a10a8eb92971ba8f19be5548419bbf195249899eb2b28c446febfb906835fbc2421b4e64f9abeda42437fcb06c60efcc51ae2486b8d31bc1e9314523ad1bed1458f538b3947dce9d2419f602f9dae9e90aa3e861ce88511a0f76d7aabc8ddf0c5a59bf216e6d0357b76417d9eb861607c56888919ba1dc051e77e85066040c91b2085adeb3e35118331d54c9"
      ],
      "sequence": 4294967294
    }
  ],
  "vout": [
    {
      "value": 499957.2902,
      "n": 0,
      "scriptPubKey": {
        "asm": "1 93a8c26b28e67097ff772bb7e8fc4cfdc11ed46a219ab297476ba1b6ffe50b3b",
        "hex": "512093a8c26b28e67097ff772bb7e8fc4cfdc11ed46a219ab297476ba1b6ffe50b3b",
        "reqSigs": 1,
        "type": "witness_v1_scripthash",
        "addresses": [
          "3QJmnh"
        ]
      }
    },
    {
      "value": 1.0,
      "n": 1,
      "scriptPubKey": {
        "asm": "OP_RETURN fa8d6b926165473693bd8d9f59cca7d241d7df31d80e1096a0980db2a9f0117b d4bee0c704df033e32170bc178f092a64392e28dfd0cb6126f408b990b5f5a6cf49ec0e724ff231e12372be158d0b28663b2c2addd2c96324f60abb92b7f7a4c94fea087449f437e72574b8138b0d2e603d2a2cdbd4cf6522f00cbd94b1f1a2cb4de80a764bf635e52776ba11890f2c623f282ed9d6cd6720f20ebf96b3f3a0c543e6047845f83beb2978b41f8701226c312620d7d8c3692efc00b198bdfdaec741e4067a47fa39e92b7ab61d8503206e332422d5dac16b2cfe02b39abfffacc147e2007c41fc3fef2d7cb01b83052668352224d3dcc76d2af804b59cb9f9aac345e0027e43fe3ded2f7eb2198107246a372026d1dec56f28fa06b79ebbfba8cd4bee0c704df033e32170bc178f092a64392e28dfd0cb6126f408b990b5f5a6cf49ec0e724ff231e12372be158d0b28663b2c2addd2c96324f60abb92b7f7a4c94fea087449f437e72574b8138b0d2e603d2a2cdbd4cf6522f00cbd94b1f1a2cb4de80a764bf635e52776ba11890f2c623f282ed9d6cd6720f20ebf96b3f3a0c543e6047845f83beb2978b41f8701226c312620d7d8c3692efc00b198bdfdaec741e4067a47fa39e92b7ab61d8503206e332422d5dac16b2cfe02b39abfffacc147e2007c41fc3fef2d7cb01b83052668352224d3dcc76d2af804b59cb9f9aac345e0027e43fe3ded2f7eb2198107246a372026d1dec56f28fa06b79ebbfba8cd4bee0c704df033e32170bc178f092a64392e28dfd0cb6126f408b990b5f5a6cf49ec0e724ff231e12372be158d0b28663b2c2addd2c96324f60abb92b7f7a4c94fea087449f437e72574b8138b0d2e603d2a2cdbd4cf6522f00cbd94b1f1a2cb4de80a764bf635e52776ba11890f2c623f282ed9d6cd6720f20ebf96b3f3a0c543e6047845f83beb2978b41f8701226c312620d7d8c3692efc00b198bdfdaec741e4067a47fa39e92b7ab61d8503206e332422d5dac16b2cfe02b39abfffacc147e2007c41fc3fef2d7cb01b83052668352224d3dcc76d2af804b59cb9f9aac345e0027e43fe3ded2f7eb2198107246a372026d1dec56f28fa06b79ebbfba8cd4bee0c704df033e32170bc178f092a64392e28dfd0cb6126f408b990b5f5a6cf49ec0e724ff231e12372be158d0b28663b2c2addd2c96324f60abb92b7f7a4c94fea087449f437e72574b8138b0d2e603d2a2cdbd4cf6522f00cbd94b1f1a2cb4de80a764bf635e52776ba11890f2c623f282ed9d6cd6720f20ebf96b3f3a0c543e6047845f83beb2978b41f8701226c312620d7d8c3692efc00b198bdfdaec741e4067a47fa39e92b7ab61d8503206e332422d5dac16b2cfe02b39abfffacc147e2007c41fc3fef2d7cb01b83052668352224d3dcc76d2af804b59cb9f9aac345e0027e43fe3ded2f7eb2198107246a372026d1dec56f28fa06b79ebbfba8cd4bee0c704df033e32170bc178f092a64392e28dfd0cb6126f408b990b5f5a6cf49ec0e724ff231e12372be158d0b28663b2c2addd2c96324f60abb92b7f7a4c94fea087449f437e72574b8138b0d2e603d2a2cdbd4cf6522f00cbd94b1f1a2cb4de80a764bf635e52776ba11890f2c623f282ed9d6cd6720f20ebf96b3f3a0c543e6047845f83beb2978b41f8701226aad9f49379be135a6321bf58adcc10997a802bf85cef1c373cb12baf54ee5fb3",
        "hex": "6a20fa8d6b926165473693bd8d9f59cca7d241d7df31d80e1096a0980db2a9f0117b4db004d4bee0c704df033e32170bc178f092a64392e28dfd0cb6126f408b990b5f5a6cf49ec0e724ff231e12372be158d0b28663b2c2addd2c96324f60abb92b7f7a4c94fea087449f437e72574b8138b0d2e603d2a2cdbd4cf6522f00cbd94b1f1a2cb4de80a764bf635e52776ba11890f2c623f282ed9d6cd6720f20ebf96b3f3a0c543e6047845f83beb2978b41f8701226c312620d7d8c3692efc00b198bdfdaec741e4067a47fa39e92b7ab61d8503206e332422d5dac16b2cfe02b39abfffacc147e2007c41fc3fef2d7cb01b83052668352224d3dcc76d2af804b59cb9f9aac345e0027e43fe3ded2f7eb2198107246a372026d1dec56f28fa06b79ebbfba8cd4bee0c704df033e32170bc178f092a64392e28dfd0cb6126f408b990b5f5a6cf49ec0e724ff231e12372be158d0b28663b2c2addd2c96324f60abb92b7f7a4c94fea087449f437e72574b8138b0d2e603d2a2cdbd4cf6522f00cbd94b1f1a2cb4de80a764bf635e52776ba11890f2c623f282ed9d6cd6720f20ebf96b3f3a0c543e6047845f83beb2978b41f8701226c312620d7d8c3692efc00b198bdfdaec741e4067a47fa39e92b7ab61d8503206e332422d5dac16b2cfe02b39abfffacc147e2007c41fc3fef2d7cb01b83052668352224d3dcc76d2af804b59cb9f9aac345e0027e43fe3ded2f7eb2198107246a372026d1dec56f28fa06b79ebbfba8cd4bee0c704df033e32170bc178f092a64392e28dfd0cb6126f408b990b5f5a6cf49ec0e724ff231e12372be158d0b28663b2c2addd2c96324f60abb92b7f7a4c94fea087449f437e72574b8138b0d2e603d2a2cdbd4cf6522f00cbd94b1f1a2cb4de80a764bf635e52776ba11890f2c623f282ed9d6cd6720f20ebf96b3f3a0c543e6047845f83beb2978b41f8701226c312620d7d8c3692efc00b198bdfdaec741e4067a47fa39e92b7ab61d8503206e332422d5dac16b2cfe02b39abfffacc147e2007c41fc3fef2d7cb01b83052668352224d3dcc76d2af804b59cb9f9aac345e0027e43fe3ded2f7eb2198107246a372026d1dec56f28fa06b79ebbfba8cd4bee0c704df033e32170bc178f092a64392e28dfd0cb6126f408b990b5f5a6cf49ec0e724ff231e12372be158d0b28663b2c2addd2c96324f60abb92b7f7a4c94fea087449f437e72574b8138b0d2e603d2a2cdbd4cf6522f00cbd94b1f1a2cb4de80a764bf635e52776ba11890f2c623f282ed9d6cd6720f20ebf96b3f3a0c543e6047845f83beb2978b41f8701226c312620d7d8c3692efc00b198bdfdaec741e4067a47fa39e92b7ab61d8503206e332422d5dac16b2cfe02b39abfffacc147e2007c41fc3fef2d7cb01b83052668352224d3dcc76d2af804b59cb9f9aac345e0027e43fe3ded2f7eb2198107246a372026d1dec56f28fa06b79ebbfba8cd4bee0c704df033e32170bc178f092a64392e28dfd0cb6126f408b990b5f5a6cf49ec0e724ff231e12372be158d0b28663b2c2addd2c96324f60abb92b7f7a4c94fea087449f437e72574b8138b0d2e603d2a2cdbd4cf6522f00cbd94b1f1a2cb4de80a764bf635e52776ba11890f2c623f282ed9d6cd6720f20ebf96b3f3a0c543e6047845f83beb2978b41f8701226aad9f49379be135a6321bf58adcc10997a802bf85cef1c373cb12baf54ee5fb3",
        "type": "nulldata"
      }
    }
  ],
  "blockhash": "39d4bea9c9c25d41b43db6cdde5dd715e5d3be3597965cba0de2d48951f8c4e3",
  "confirmations": 1,
  "time": 1764183939,
  "blocktime": 1764183939
}