{
  "hex": "010000000001012463347ba6a1e587741e281e152cb9468dc144014ffbce752cd981b6321bc8ef0100000000feffffff0250771315792d000022512094a8241d7621aa25fc38961f5d61631fd007af5d362623aa6edac29dc3de722e00e1f50500000000fdd5046a2052188f043dab22a651f07705ac6fabc388c23ca235d185069fdbe2292c8c0cf64db004e49fdab2e493a50cee87d3e30726bcc012cf6b443c6a9139e7bb572936a0bcedc4bffa92c4b3852ccea7f3c327069ce032ef4b641c4ab119c79b770916809ccda4df9af2a4d3e54caec793a34766fc80528f2b047c2ad179a7fb176976e0fcad84ffbad284f3c56c8ee7b3836746dca072af0b245c0af15987db374956c0dc8d641f5a326413258c6e07536387a63c40924febc4bcea11b9673bd7a9b6203c6d443f7a12443305ac4e277343a7861c60b26fcbe49cca3199471bf78996001c4d245f1a72245365cc2e471323c7e67c00d20fab84fcaa51f9277b97e9f6607c2d047f3a52047345ec0e673303e7c65c20f22f8ba4dc8a71d9075bb7c9d6405c0de49fdab2e493a50cee87d3e30726bcc012cf6b443c6a9139e7bb572936a0bcedc4bffa92c4b3852ccea7f3c327069ce032ef4b641c4ab119c79b770916809ccda4df9af2a4d3e54caec793a34766fc80528f2b047c2ad179a7fb176976e0fcad84ffbad284f3c56c8ee7b3836746dca072af0b245c0af15987db374956c0dc8d641f5a326413258c6e07536387a63c40924febc4bcea11b9673bd7a9b6203c6d443f7a12443305ac4e277343a7861c60b26fcbe49cca3199471bf78996001c4d245f1a72245365cc2e471323c7e67c00d20fab84fcaa51f9277b97e9f6607c2d047f3a52047345ec0e673303e7c65c20f22f8ba4dc8a71d9075bb7c9d6405c0de49fdab2e493a50cee87d3e30726bcc012cf6b443c6a9139e7bb572936a0bcedc4bffa92c4b3852ccea7f3c327069ce032ef4b641c4ab119c79b770916809ccda4df9af2a4d3e54caec793a34766fc80528f2b047c2ad179a7fb176976e0fcad84ffbad284f3c56c8ee7b3836746dca072af0b245c0af15987db374956c0dc8d641f5a326413258c6e07536387a63c40924febc4bcea11b9673bd7a9b6203c6d443f7a12443305ac4e277343a7861c60b26fcbe49cca3199471bf78996001c4d245f1a72245365cc2e471323c7e67c00d20fab84fcaa51f9277b97e9f6607c2d047f3a52047345ec0e673303e7c65c20f22f8ba4dc8a71d9075bb7c9d6405c0de49fdab2e493a50cee87d3e30726bcc012cf6b443c6a9139e7bb572936a0bcedc4bffa92c4b3852ccea7f3c327069ce032ef4b641c4ab119c79b770916809ccda4df9af2a4d3e54caec793a34766fc80528f2b047c2ad179a7fb176976e0fcad84ffbad284f3c56c8ee7b3836746dca072af0b245c0af15987db374956c0dc8d641f5a326413258c6e07536387a63c40924febc4bcea11b9673bd7a9b6203c6d443f7a12443305ac4e277343a7861c60b26fcbe49cca3199471bf78996001c4d245f1a72245365cc2e471323c7e67c00d20fab84fcaa51f9277b97e9f6607c2d047f3a52047345ec0e673303e7c65c20f22f8ba4dc8a71d9075bb7c9d6405c0de49fdab2e493a50cee87d3e30726bcc012cf6b443c6a9139e7bb572936a0bcedc4bffa92c4b3852ccea7f3c327069ce032ef4b641c4ab119c79b770916809ccda4df9af2a4d3e54caec793a34766fc80528f2b047c2ad179a7fb176976e0fcad84ffbad284f3c56c8ee7b3836746dca072af0b245c0af15987db374956c0dc8d641f5a326413258c6e07536387a63c406c17e79579f053bbd3898b146d4951299965169873d5d83cbeddbf0b5a58996c02fd75099ac29cd12a8d2dfefcb3b9670541e3ef592e487ff7caa687a0024ef9deeb7d53bffbf29b8d691feccb36d34433fa0fdcdf9abbd5022e3fffd2d9d36c5b73c5d2ea48f459f22717ddf96c670a03e9f7c35bb1b11a8b1ab2f9c24011b88f18a3e5b5c13654f6b616f319803bc5ef85d033c502029277ea757409652361d450cd47d925f526b00df45ef4074525bde9d2753f09bf1e5dcd62b92642378af5de7ea80fabb400977535677d12b6d886a561219862132c3ef84d765a267af7c654c42bc1836fa400c98a0e15b8ab1ab26001a84650a78011dc045e362039455bbbf4a7886b29d154f62455ce7dd1b1e2c57a40220b9298ef3e6f69c998fb35c00c5211e27e3141ac2802bf1f0ca3ac8e16089cd94afbed44d16e282edbf1d5212c8b008d49e549e442d523389ba33b21bdef400386b174e2d9298669ec5929482b5b96a747b65b4f21ade2cc34cd7bdae3e9040f7818d564050e060ff35a8d0dd5d589c905cccc9984c7e1d86439dd8be441bbf5332fc524fc557a6ce839ed6f94103bc3de08d8cb88ea88a285f609162bd19bf5f2699631d87f79498c12ad513111eecdd155acbf6f9101ef3e3a12711e1d149378165bcd968266f3ba99969f79dc237f118046a202d728f450d812e33958706bd1e8d484c442c2b487dfdcfd7786efe5de1e0363c223d3c71822e9f66f49fdd3a33379611fe35362f8fd51c9baa01eeddb9d977cdab1f7226467e184aa238727f927fb9f8c11903f8560d73c9d166d5a9a99bfcde297e5224aff559bedb2a8ed62c0bbb7e3723cc2c901338e452ccba53686d0a73f824e26b4d4a55a49d6189e143a94fb5f895ab3c097facb644c8e6dd520ce95dbb7575090109d33c745e3156b02c6c8d9f641025f8b76f70ab814c664c401a8733df610257c952625c8916431869f67d13336f9e43f979870795f736fd8163b523ab9b86bdaf6e3ded6601444affbe600e4a66e58517a74ca659433cb42e391a18e835705c977da34144847df0882b3da26c271dec566bf2db13dd664f83f65305a7cd5fa7cc0b32381579131ff78e7dcb05c9c26224f9579760903086f3c3209e15dd596eaebc8f00aeb68032707cad7f06a877333c8dce0deeb195e1412ac4899c261daf429a80541bb84cf1be80d5d05a5f961e5d7fde6f6d97c594d348676fe15fee70ec1f52bc5fa34af5610f4aecb76e839846c2beb3387e54e5eb661d860b5d08585a6b61032cbfa4f2a70c10d7fc21a0f6c260d0d7b8566a285016028fd36afdab8d1c214d0183e3e1998570efc770e9f7dca0fb241c7590304a393793710246e963bb5a3ba0cc1cc8fefbac19403543e554403ce3d0123cd85f83039147ae929d11e2beb2a7ff6b942c41033ff8fbf78b6bce8cc59f584e1093ea6a29934542c2414d5d6cc016a9ac52d7b7d3f66e1b399c73c03b248d9c7db2892122d98cc7e639dbf9039c42f6a591c1429702484c15311fb3df6002f93075239a849851c011a88019638465594cb56ace9401bf199119c853dcf5de8d164e5e4f770ccd27b2754673117a4e07e8a25e3e63791b2ea21bdd6004f95def252bf8e3578904b4e92da2c772fe6e6090e54d2ad998f49a985bbddb77700b93b4aa8d46eafd4233d7abdbf78a9e80b860fdd5e0b926422347fc8c7fbadfef04d9cd4904dea0ff89d4832d86c2c4f16a66b4936e45ead77b8c170f623e4b58f1fb77531f2fdc25281784f60f465ab0711d681824150a8c6ea0813123703cc8f974c9bd84e4fcf50213aa4e32c1270d2ee27423a707b2915cb511b5b8b77cfaddae2d25f0eb505d868066ecf6d0375ed35560af6b8cdb5b3dc1783da243f52e0139e42a523a2859d60afe2403ef3f94b94d0ca78b3b9d3f2bf4f9882c3dd4039bfed46dd2c61184ca007c91b9d2ccde34d7b9e33f8dbb1276de170613d1ae20f956423e5292d32399b7c017a2207dff50fa1f78dfc571b4fa6e92bfb6ca681cd8ada1729a62d2b0018d91b81fcd69f295266a774c7963324d653a60ed51f45ea716c30f6701c50e7c5807568687f15fa17ca17fc9f9da3688cc171b557ddd4e8d22917ed9068c22cfe3b810c04e48e2a620578663c6798335883620969b0c7b8a7e07a6b20cd0e1a16b9cc0f576539ca5e39c345e8ed144dbf9e165741ee676fcaa6196f779262817361cd2a00453d062a1a3497cbe3a3c0ef477c93436f490b12a2591451a897b6bf4b8ecbf7a4c288b07e68d13c2e9c5740c34117a50b6ba0789300249fbce529633e338a6ed6424aa5529aed9ee88075f7339c444a68eaf21b6c0cba0c20decaf30b9a341b9b869edcf31feb1f28b648a99a1432b47f01c5522ad827f32052f755d76aef95a1409b1f99c77f1d4984e5e145061dacf1b0c43b4305bab08ec3d48472d3e804a1a83452f38d5aa5f2a9536e0a66e16e9e0afb9a3e8f9c252e1ead78dd2835b84531470645dba97ab21e360c972fa779322948d89674bbd36e536dbe246fccf47ea3b6e62efb5a9decf2138dbff556ccafe030c2b22140ab606abc340b03c27837a0531a3f99dfc85bfe4a12c9ecd8525a7a1df61d498daf6cd2412d35adb669378d4a1bb221aa9ca78c715999829d2e96b8da723ccfb6e6a58bb243300e9c3e4c315d1c780b63af4ee8cca579b0afda4eedb33e5312dfb503e693d96871651d476164fd0047b60def3d1188a80837c8759ba053a20b9e0200264be49ba8648ef2707fb2b6831b5c3f7536d7fdf13376309728433a6f42621d2629e18e0c8f2bdbc44bdb8d307104b7f276effb75c26ef0e619174b2861e462f61e08513a0cbd24b101f745f4beec7af6723b920edf15b46cece5786b58131ce8942605de344d7c44cfc3aff03a07bcc713d2ea7deb54b39f18f2746eebd1fd428f9c95e099738ff46a35ecb22673cb51e69faeda528ccf95875838bd828537bde006ddcf3edb97e973055eaaf18022d3204d4fe3be85a3dce2a8ea3e9319561a3f3335a2c69771cc6065551aeadd59c127e48e48b4757a5a4c0b356f275f381c3b964f7d2e4b46af29993fd343ad98aea1126472ce1916d406c44572a47621f4c5e84861ce43f10c96e7fe1a1746af9d2d07e394b249f84819cbbf23a0f19dda79466832f696459d84c006096695dc0822a2d6bbdd3e210cadb58570e09341d256cbdaa611bb165c7b68e9c99b4d612f989b2fdc043d6771e8bfb77942ee98a89c29823ad09e009055cf7f94f5ad4483c3d618bcc09a7330e0ac52a9f4c4d71a53ebd9808e23c53b57df684a5daa0c686d8a650de300fcdc1e23474f676c707280a2afbac5dde6fe0406181b283b3c464a4d6d7286878dbfc0c2d2dee8edf40b1746687a7d808c8d9098acadbaced20f303a44626d7b8aaac8ced2d4d6d7e9f800000000000000001027374801fd21050089ac7db568689e20326d0571ca3d6a553a95e5014c1096cf0077287781ff24cba971d1176d1bc9fc6da7ff6d754ab44a138778fc3ab776f15ec3f773bddbc8e5cf6aaf46d61ee1f1bac0fd31a319018705fe8802ac9d99a42572fbef228a7b2f59391927d0a059baeeccb7c9c922684ada2eac9644002620db6be694bcd98023d4fe73f81cba17bbb28caffa61d46d50066d7093a3490b44e8a558b32f2188c724d1b6f5c65ce8a167e60073fa890cc7093548b85420ce926a5bd90e75ee7ac3957d600d9ab82bc9edd30d989a1d80b4aaf9ab7c23bf754ca79b140d7f42be8cc9ef81311f63d28629464a0753d4c275f00f26f327be3a5bbcd8c77c7ec93a4cbb9d9af167d1efe4d250f2517523e3c924f11ad30f1dfef77cfdcafc534ba6bb59467ba658008085a4e7e7e8992d7f89d2c9dc57d682f9ac871ca8faa20ee8d68b461ac7235ee5d449920b114f80d5f1a789e166dbb2e9caaab05c675e93ff1e720bfcedcdce349b97f28cb74d708efbdb691d2fc0a710f7241addce9fdd6693ab53c1eb3fd397f21a0c3f9946f3b3c157a44b5cd1156bde193fdc149d0ac3822738ae7c4a403f25e44528fcdefe6ef172388e7599ece85259a694c05b752320e04916a7cb0b382cd1e844184260afdbeb66076c181862dc8b79341a105e4699db732a96a77990cbabd6cfb4c1771cd39785a50a75db7b23face214c40e24740ee3f35bdd9eaa0f53696ace8f5dfddfceed838c4577dbab89c468437e8a78be820e9098b0a030436dac093cb942fa88c1d757a587ee4911356b7973fcb7207a0993ef69b31cc86170f63f603a0c57856beb3503b15c3474f7283466ed321a51fd70f5d3d34aea459d23a1088835fcb0dce67ec8eb944d3727ffdd076b0033f016be202fd004ad534854ce679b63ba44c29736909233a10da0473a907b056673ec47793f6ae80830c794369621e9a724ecc3eb30823ea616554cd87bf482f2c50b7d48e06e45fda145e7f7e28bc2988629f517cd256e415a4c357bb48b24f46ddce85042456729fd772630f3b08f779ba8309681b49ab34db4e6d1e837cd7de8c25cb73dcf5646ea301b953416256b205bbe53840cafc9776b15d10953aef22301cbc48da76f40d79b8987633995cd0e6af8d97069148d2573c4fe09ee1b5ea0d03023e9eef13f8edb9c1157401f95f16352b9d14172e32b6c488b65a6617af903c6c80913d464b3b2f42e4003843ba853b349e42a7ced733359bcd96bf93de1eeb089d00550c9b1c896d89757e7df9da60f9bd629f792e24f29391eb500655d8a0f23edaee20f7adef29392d3b7544b64f7f27e43f2df4f7ccce9414a20b82e76cc00e9208174abdcb0e4dfd780018ee9fad9058b1f89d7c7be2da1678d807621255b338c7548e4a827db431d2344e2c716e6850ca31e8d61e0d8c7fdbc16870748fd6fe800a79cb8117548c26507299df4e43bf0da9f09d1fed2821d64f4602734d2d14a7f41b0503fbc1394d81b2c14bd0d3a1b579e28b36e91fd4e1b602bb41f5bec11fe7cd31ca7494694448e518bfcbee3dcf788d7ff0df332614d235fe498119dcf2aa72765fb59390db4a8e44d3179a992827978ae25c2bf3a38ec1b42dc450d9a2baaf718d61426078af3dd8a89cfa928b545d308402741b0cb8d94baed1caa422cd4d3c959ed773ed1919e9583e023af8003eb89d71b56369e6f1bbd313d42134500436aaa33acb868c38c2976ebb3493c32a51da4b9339c9be82073195613ead60ea050c53c918510b43e568216fa632e7f399822dc049b192a5b1465e571f9740f03e037426b96c46361dd4033e7126233ed2ae101ea66077859175000000",
  "txid": "9bd243159139d5a9a02ad5c2330f7b0167f59e9954729de55e77e8056ca9b005",
  "hash": "d99ee4ca5500811fb5b57467486bd11b628261f008b3f94de067b0d67f711f1a",
  "size": 5085,
  "vsize": 2278,
  "version": 1,
  "locktime": 117,
  "vin": [
    {
      "txid": "efc81b32b681d92c75cefb4f0144c18d46b92c151e281e7487e5a1a67b346324",
      "vout": 1,
      "scriptSig": {
        "asm": "",
        "hex": ""
      },
      "txinwitness": [
        "9ac29cd12a8d2dfefcb3b9670541e3ef592e487ff7caa687a0024ef9deeb7d53bffbf29b8d691feccb36d34433fa0fdcdf9abbd5022e3fffd2d9d36c5b73c5d2ea48f459f22717ddf96c670a03e9f7c35bb1b11a8b1ab2f9c24011b88f18a3e5b5c13654f6b616f319803bc5ef85d033c502029277ea757409652361d450cd47d925f526b00df45ef4074525bde9d2753f09bf1e5dcd62b92642378af5de7ea80fabb400977535677d12b6d886a561219862132c3ef84d765a267af7c654c42bc1836fa400c98a0e15b8ab1ab26001a84650a78011dc045e362039455bbbf4a7886b29d154f62455ce7dd1b1e2c57a40220b9298ef3e6f69c998fb35c00c5211e27e3141ac2802bf1f0ca3ac8e16089cd94afbed44d16e282edbf1d5212c8b008d49e549e442d523389ba33b21bdef400386b174e2d9298669ec5929482b5b96a747b65b4f21ade2cc34cd7bdae3e9040f7818d564050e060ff35a8d0dd5d589c905cccc9984c7e1d86439dd8be441bbf5332fc524fc557a6ce839ed6f94103bc3de08d8cb88ea88a285f609162bd19bf5f2699631d87f79498c12ad513111eecdd155acbf6f9101ef3e3a12711e1d149378165bcd968266f3ba99969f79dc237f118046a202d728f450d812e33958706bd1e8d484c442c2b487dfdcfd7786efe5de1e0363c223d3c71822e9f66f49fdd3a33379611fe35362f8fd51c9baa01eeddb9d977cdab1f7226467e184aa238727f927fb9f8c11903f8560d73c9d166d5a9a99bfcde297e5224aff559bedb2a8ed62c0bbb7e3723cc2c901338e452ccba53686d0a73f824e26b4d4a55a49d6189e143a94fb5f895ab3c097facb644c8e6dd520ce95dbb7575090109d33c745e3156b02c6c8d9f641025f8b76f70ab814c664c401a8733df610257c952625c8916431869f67d13336f9e43f979870795f736fd8163b523ab9b86bdaf6e3ded6601444affbe600e4a66e58517a74ca659433cb42e391a18e835705c977da34144847df0882b3da26c271dec566bf2db13dd664f83f65305a7cd5fa7cc0b32381579131ff78e7dcb05c9c26224f9579760903086f3c3209e15dd596eaebc8f00aeb68032707cad7f06a877333c8dce0deeb195e1412ac4899c261daf429a80541bb84cf1be80d5d05a5f961e5d7fde6f6d97c594d348676fe15fee70ec1f52bc5fa34af5610f4aecb76e839846c2beb3387e54e5eb661d860b5d08585a6b61032cbfa4f2a70c10d7fc21a0f6c260d0d7b8566a285016028fd36afdab8d1c214d0183e3e1998570efc770e9f7dca0fb241c7590304a393793710246e963bb5a3ba0cc1cc8fefbac19403543e554403ce3d0123cd85f83039147ae929d11e2beb2a7ff6b942c41033ff8fbf78b6bce8cc59f584e1093ea6a29934542c2414d5d6cc016a9ac52d7b7d3f66e1b399c73c03b248d9c7db2892122d98cc7e639dbf9039c42f6a591c1429702484c15311fb3df6002f93075239a849851c011a88019638465594cb56ace9401bf199119c853dcf5de8d164e5e4f770ccd27b2754673117a4e07e8a25e3e63791b2ea21bdd6004f95def252bf8e3578904b4e92da2c772fe6e6090e54d2ad998f49a985bbddb77700b93b4aa8d46eafd4233d7abdbf78a9e80b860fdd5e0b926422347fc8c7fbadfef04d9cd4904dea0ff89d4832d86c2c4f16a66b4936e45ead77b8c170f623e4b58f1fb77531f2fdc25281784f60f465ab0711d681824150a8c6ea0813123703cc8f974c9bd84e4fcf50213aa4e32c1270d2ee27423a707b2915cb511b5b8b77cfaddae2d25f0eb505d868066ecf6d0375ed35560af6b8cdb5b3dc1783da243f52e0139e42a523a2859d60afe2403ef3f94b94d0ca78b3b9d3f2bf4f9882c3dd4039bfed46dd2c61184ca007c91b9d2ccde34d7b9e33f8dbb1276de170613d1ae20f956423e5292d32399b7c017a2207dff50fa1f78dfc571b4fa6e92bfb6ca681cd8ada1729a62d2b0018d91b81fcd69f295266a774c7963324d653a60ed51f45ea716c30f6701c50e7c5807568687f15fa17ca17fc9f9da3688cc171b557ddd4e8d22917ed9068c22cfe3b810c04e48e2a620578663c6798335883620969b0c7b8a7e07a6b20cd0e1a16b9cc0f576539ca5e39c345e8ed144dbf9e165741ee676fcaa6196f779262817361cd2a00453d062a1a3497cbe3a3c0ef477c93436f490b12a2591451a897b6bf4b8ecbf7a4c288b07e68d13c2e9c5740c34117a50b6ba0789300249fbce529633e338a6ed6424aa5529aed9ee88075f7339c444a68eaf21b6c0cba0c20decaf30b9a341b9b869edcf31feb1f28b648a99a1432b47f01c5522ad827f32052f755d76aef95a1409b1f99c77f1d4984e5e145061dacf1b0c43b4305bab08ec3d48472d3e804a1a83452f38d5aa5f2a9536e0a66e16e9e0afb9a3e8f9c252e1ead78dd2835b84531470645dba97ab21e360c972fa779322948d89674bbd36e536dbe246fccf47ea3b6e62efb5a9decf2138dbff556ccafe030c2b22140ab606abc340b03c27837a0531a3f99dfc85bfe4a12c9ecd8525a7a1df61d498daf6cd2412d35adb669378d4a1bb221aa9ca78c715999829d2e96b8da723ccfb6e6a58bb243300e9c3e4c315d1c780b63af4ee8cca579b0afda4eedb33e5312dfb503e693d96871651d476164fd0047b60def3d1188a80837c8759ba053a20b9e0200264be49ba8648ef2707fb2b6831b5c3f7536d7fdf13376309728433a6f42621d2629e18e0c8f2bdbc44bdb8d307104b7f276effb75c26ef0e619174b2861e462f61e08513a0cbd24b101f745f4beec7af6723b920edf15b46cece5786b58131ce8942605de344d7c44cfc3aff03a07bcc713d2ea7deb54b39f18f2746eebd1fd428f9c95e099738ff46a35ecb22673cb51e69faeda528ccf95875838bd828537bde006ddcf3edb97e973055eaaf18022d3204d4fe3be85a3dce2a8ea3e9319561a3f3335a2c69771cc6065551aeadd59c127e48e48b4757a5a4c0b356f275f381c3b964f7d2e4b46af29993fd343ad98aea1126472ce1916d406c44572a47621f4c5e84861ce43f10c96e7fe1a1746af9d2d07e394b249f84819cbbf23a0f19dda79466832f696459d84c006096695dc0822a2d6bbdd3e210cadb58570e09341d256cbdaa611bb165c7b68e9c99b4d612f989b2fdc043d6771e8bfb77942ee98a89c29823ad09e009055cf7f94f5ad4483c3d618bcc09a7330e0ac52a9f4c4d71a53ebd9808e23c53b57df684a5daa0c686d8a650de300fcdc1e23474f676c707280a2afbac5dde6fe0406181b283b3c464a4d6d7286878dbfc0c2d2dee8edf40b1746687a7d808c8d9098acadbaced20f303a44626d7b8aaac8ced2d4d6d7e9f800000000000000001027374801",
        "0089ac7db568689e20326d0571ca3d6a553a95e5014c1096cf0077287781ff24cba971d1176d1bc9fc6da7ff6d754ab44a138778fc3ab776f15ec3f773bddbc8e5cf6aaf46d61ee1f1bac0fd31a319018705fe8802ac9d99a42572fbef228a7b2f59391927d0a059baeeccb7c9c922684ada2eac9644002620db6be694bcd98023d4fe73f81cba17bbb28caffa61d46d50066d7093a3490b44e8a558b32f2188c724d1b6f5c65ce8a167e60073fa890cc7093548b85420ce926a5bd90e75ee7ac3957d600d9ab82bc9edd30d989a1d80b4aaf9ab7c23bf754ca79b140d7f42be8cc9ef81311f63d28629464a0753d4c275f00f26f327be3a5bbcd8c77c7ec93a4cbb9d9af167d1efe4d250f2517523e3c924f11ad30f1dfef77cfdcafc534ba6bb59467ba658008085a4e7e7e8992d7f89d2c9dc57d682f9ac871ca8faa20ee8d68b461ac7235ee5d449920b114f80d5f1a789e166dbb2e9caaab05c675e93ff1e720bfcedcdce349b97f28cb74d708efbdb691d2fc0a710f7241addce9fdd6693ab53c1eb3fd397f21a0c3f9946f3b3c157a44b5cd1156bde193fdc149d0ac3822738ae7c4a403f25e44528fcdefe6ef172388e7599ece85259a694c05b752320e04916a7cb0b382cd1e844184260afdbeb66076c181862dc8b79341a105e4699db732a96a77990cbabd6cfb4c1771cd39785a50a75db7b23face214c40e24740ee3f35bdd9eaa0f53696ace8f5dfddfceed838c4577dbab89c468437e8a78be820e9098b0a030436dac093cb942fa88c1d757a587ee4911356b7973fcb7207a0993ef69b31cc86170f63f603a0c57856beb3503b15c3474f7283466ed321a51fd70f5d3d34aea459d23a1088835fcb0dce67ec8eb944d3727ffdd076b0033f016be202fd004ad534854ce679b63ba44c29736909233a10da0473a907b056673ec47793f6ae80830c794369621e9a724ecc3eb30823ea616554cd87bf482f2c50b7d48e06e45fda145e7f7e28bc2988629f517cd256e415a4c357bb48b24f46ddce85042456729fd772630f3b08f779ba8309681b49ab34db4e6d1e837cd7de8c25cb73dcf5646ea301b953416256b205bbe53840cafc9776b15d10953aef22301cbc48da76f40d79b8987633995cd0e6af8d97069148d2573c4fe09ee1b5ea0d03023e9eef13f8edb9c1157401f95f16352b9d14172e32b6c488b65a6617af903c6c80913d464b3b2f42e4003843ba853b349e42a7ced733359bcd96bf93de1eeb089d00550c9b1c896d89757e7df9da60f9bd629f792e24f29391eb500655d8a0f23edaee20f7adef29392d3b7544b64f7f27e43f2df4f7ccce9414a20b82e76cc00e9208174abdcb0e4dfd780018ee9fad9058b1f89d7c7be2da1678d807621255b338c7548e4a827db431d2344e2c716e6850ca31e8d61e0d8c7fdbc16870748fd6fe800a79cb8117548c26507299df4e43bf0da9f09d1fed2821d64f4602734d2d14a7f41b0503fbc1394d81b2c14bd0d3a1b579e28b36e91fd4e1b602bb41f5bec11fe7cd31ca7494694448e518bfcbee3dcf788d7ff0df332614d235fe498119dcf2aa72765fb59390db4a8e44d3179a992827978ae25c2bf3a38ec1b42dc450d9a2baaf718d61426078af3dd8a89cfa928b545d308402741b0cb8d94baed1caa422cd4d3c959ed773ed1919e9583e023af8003eb89d71b56369e6f1bbd313d42134500436aaa33acb868c38c2976ebb3493c32a51da4b9339c9be82073195613ead60ea050c53c918510b43e568216fa632e7f399822dc049b192a5b1465e571f9740f03e037426b96c46361dd4033e7126233ed2ae101ea660778591"
      ],
      "sequence": 4294967294
    }
  ],
  "vout": [
    {
      "value": 499980.6789,
      "n": 0,
      "scriptPubKey": {
        "asm": "1 94a8241d7621aa25fc38961f5d61631fd007af5d362623aa6edac29dc3de722e",
        "hex": "512094a8241d7621aa25fc38961f5d61631fd007af5d362623aa6edac29dc3de722e",
        "reqSigs": 1,
        "type": "witness_v1_scripthash",
        "addresses": [
          "3QJmnh"
        ]
      }
    },
    {
      "value": 1.0,
      "n": 1,
      "scriptPubKey": {
        "asm": "OP_RETURN 52188f043dab22a651f07705ac6fabc388c23ca235d185069fdbe2292c8c0cf6 e49fdab2e493a50cee87d3e30726bcc012cf6b443c6a9139e7bb572936a0bcedc4bffa92c4b3852ccea7f3c327069ce032ef4b641c4ab119c79b770916809ccda4df9af2a4d3e54caec793a34766fc80528f2b047c2ad179a7fb176976e0fcad84ffbad284f3c56c8ee7b3836746dca072af0b245c0af15987db374956c0dc8d641f5a326413258c6e07536387a63c40924febc4bcea11b9673bd7a9b6203c6d443f7a12443305ac4e277343a7861c60b26fcbe49cca3199471bf78996001c4d245f1a72245365cc2e471323c7e67c00d20fab84fcaa51f9277b97e9f6607c2d047f3a52047345ec0e673303e7c65c20f22f8ba4dc8a71d9075bb7c9d6405c0de49fdab2e493a50cee87d3e30726bcc012cf6b443c6a9139e7bb572936a0bcedc4bffa92c4b3852ccea7f3c327069ce032ef4b641c4ab119c79b770916809ccda4df9af2a4d3e54caec793a34766fc80528f2b047c2ad179a7fb176976e0fcad84ffbad284f3c56c8ee7b3836746dca072af0b245c0af15987db374956c0dc8d641f5a326413258c6e07536387a63c40924febc4bcea11b9673bd7a9b6203c6d443f7a12443305ac4e277343a7861c60b26fcbe49cca3199471bf78996001c4d245f1a72245365cc2e471323c7e67c00d20fab84fcaa51f9277b97e9f6607c2d047f3a52047345ec0e673303e7c65c20f22f8ba4dc8a71d9075bb7c9d6405c0de49fdab2e493a50cee87d3e30726bcc012cf6b443c6a9139e7bb572936a0bcedc4bffa92c4b3852ccea7f3c327069ce032ef4b641c4ab119c79b770916809ccda4df9af2a4d3e54caec793a34766fc80528f2b047c2ad179a7fb176976e0fcad84ffbad284f3c56c8ee7b3836746dca072af0b245c0af15987db374956c0dc8d641f5a326413258c6e07536387a63c40924febc4bcea11b9673bd7a9b6203c6d443f7a12443305ac4e277343a7861c60b26fcbe49cca3199471bf78996001c4d245f1a72245365cc2e471323c7e67c00d20fab84fcaa51f9277b97e9f6607c2d047f3a52047345ec0e673303e7c65c20f22f8ba4dc8a71d9075bb7c9d6405c0de49fdab2e493a50cee87d3e30726bcc012cf6b443c6a9139e7bb572936a0bcedc4bffa92c4b3852ccea7f3c327069ce032ef4b641c4ab119c79b770916809ccda4df9af2a4d3e54caec793a34766fc80528f2b047c2ad179a7fb176976e0fcad84ffbad284f3c56c8ee7b3836746dca072af0b245c0af15987db374956c0dc8d641f5a326413258c6e07536387a63c40924febc4bcea11b9673bd7a9b6203c6d443f7a12443305ac4e277343a7861c60b26fcbe49cca3199471bf78996001c4d245f1a72245365cc2e471323c7e67c00d20fab84fcaa51f9277b97e9f6607c2d047f3a52047345ec0e673303e7c65c20f22f8ba4dc8a71d9075bb7c9d6405c0de49fdab2e493a50cee87d3e30726bcc012cf6b443c6a9139e7bb572936a0bcedc4bffa92c4b3852ccea7f3c327069ce032ef4b641c4ab119c79b770916809ccda4df9af2a4d3e54caec793a34766fc80528f2b047c2ad179a7fb176976e0fcad84ffbad284f3c56c8ee7b3836746dca072af0b245c0af15987db374956c0dc8d641f5a326413258c6e07536387a63c406c17e79579f053bbd3898b146d4951299965169873d5d83cbeddbf0b5a58996c",
        "hex": "6a2052188f043dab22a651f07705ac6fabc388c23ca235d185069fdbe2292c8c0cf64db004e49fdab2e493a50cee87d3e30726bcc012cf6b443c6a9139e7bb572936a0bcedc4bffa92c4b3852ccea7f3c327069ce032ef4b641c4ab119c79b770916809ccda4df9af2a4d3e54caec793a34766fc80528f2b047c2ad179a7fb176976e0fcad84ffbad284f3c56c8ee7b3836746dca072af0b245c0af15987db374956c0dc8d641f5a326413258c6e07536387a63c40924febc4bcea11b9673bd7a9b6203c6d443f7a12443305ac4e277343a7861c60b26fcbe49cca3199471bf78996001c4d245f1a72245365cc2e471323c7e67c00d20fab84fcaa51f9277b97e9f6607c2d047f3a52047345ec0e673303e7c65c20f22f8ba4dc8a71d9075bb7c9d6405c0de49fdab2e493a50cee87d3e30726bcc012cf6b443c6a9139e7bb572936a0bcedc4bffa92c4b3852ccea7f3c327069ce032ef4b641c4ab119c79b770916809ccda4df9af2a4d3e54caec793a34766fc80528f2b047c2ad179a7fb176976e0fcad84ffbad284f3c56c8ee7b3836746dca072af0b245c0af15987db374956c0dc8d641f5a326413258c6e07536387a63c40924febc4bcea11b9673bd7a9b6203c6d443f7a12443305ac4e277343a7861c60b26fcbe49cca3199471bf78996001c4d245f1a72245365cc2e471323c7e67c00d20fab84fcaa51f9277b97e9f6607c2d047f3a52047345ec0e673303e7c65c20f22f8ba4dc8a71d9075bb7c9d6405c0de49fdab2e493a50cee87d3e30726bcc012cf6b443c6a9139e7bb572936a0bcedc4bffa92c4b3852ccea7f3c327069ce032ef4b641c4ab119c79b770916809ccda4df9af2a4d3e54caec793a34766fc80528f2b047c2ad179a7fb176976e0fcad84ffbad284f3c56c8ee7b3836746dca072af0b245c0af15987db374956c0dc8d641f5a326413258c6e07536387a63c40924febc4bcea11b9673bd7a9b6203c6d443f7a12443305ac4e277343a7861c60b26fcbe49cca3199471bf78996001c4d245f1a72245365cc2e471323c7e67c00d20fab84fcaa51f9277b97e9f6607c2d047f3a52047345ec0e673303e7c65c20f22f8ba4dc8a71d9075bb7c9d6405c0de49fdab2e493a50cee87d3e30726bcc012cf6b443c6a9139e7bb572936a0bcedc4bffa92c4b3852ccea7f3c327069ce032ef4b641c4ab119c79b770916809ccda4df9af2a4d3e54caec793a34766fc80528f2b047c2ad179a7fb176976e0fcad84ffbad284f3c56c8ee7b3836746dca072af0b245c0af15987db374956c0dc8d641f5a326413258c6e07536387a63c40924febc4bcea11b9673bd7a9b6203c6d443f7a12443305ac4e277343a7861c60b26fcbe49cca3199471bf78996001c4d245f1a72245365cc2e471323c7e67c00d20fab84fcaa51f9277b97e9f6607c2d047f3a52047345ec0e673303e7c65c20f22f8ba4dc8a71d9075bb7c9d6405c0de49fdab2e493a50cee87d3e30726bcc012cf6b443c6a9139e7bb572936a0bcedc4bffa92c4b3852ccea7f3c327069ce032ef4b641c4ab119c79b770916809ccda4df9af2a4d3e54caec793a34766fc80528f2b047c2ad179a7fb176976e0fcad84ffbad284f3c56c8ee7b3836746dca072af0b245c0af15987db374956c0dc8d641f5a326413258c6e07536387a63c406c17e79579f053bbd3898b146d4951299965169873d5d83cbeddbf0b5a58996c",
        "type": "nulldata"
      }
    }
  ],
  "blockhash": "443ef5589806c3570db60b1178f56898637f167918ce0f0236a27ac7d0512dc1",
  "confirmations": 1,
  "time": 1764179461,
  "blocktime": 1764179461
}