{
  "hex": "010000000001017b364b5c618d4effa44d33480571f4590a5890a6a5f1d94146d0c4adc7eb31100000000000feffffff0200e1f505000000002251208bfdb4ef48cdce85eb0bb890c89a4d63c3e6c03e645c0bd30eb62b4e15b60fc678d83f82792d00002251202543793e36b8e8b7240e965d2dff5343223828c79cd121c79269c6f2d281dec802fd750941eca08f6eb3d21ef419bf301c50cc898746359619b0f6ac60e7c72e0342ead49d5b02b30d7501d0ed04388f8a3f6e64e8b980e029ee537ca0a4f478a044bcbece3e92865b5981dd8c00ffb74ac255efa4dbf036e05632168e07a4e95ec2c805ee64012323b3f6922ab83b4ff8ea8d374b38f8e12d72b2c986f7ff3f093de0e83b3ac8c47cb47ff1f2c92330a6616494fa1318a26d6798c11570cc9fb39cdbce9edda1664babcc0901ad7f8a01f34defeeb1b434a766f577e7c4a37e8a8e35df9fb9acb843574ae03389dd9e2da4f4b3eff3ad4855d821655ffacad8f92674fdc75a697ff08b8115534c92c4315b4e4389b13c8e25699911a8557ab9479d7c2202d3adec3f9c4ccc56ea932ed7867908fd1e56f86f7ea0ea4652ac19d183860510bf39141d0e63595099d66e719ab803ef7793cc3b12e7a2f5a59e56b98d39193f8244b440bea020c4fe0c06f4491b460365172277acc4dc40de33dbfea1a9bd80b1eb653fd1b055be790cc873ca5922b74c99fea5fa83d8311f639c8e42a8536bcde111eb3b6caa1485c49aff44b28542a850b3e628739d8ff74519e989a3fd331f1a25b262bd2d7f71b851b9d417c35848ef40f78a1162a07660cb35b35167eb35a0e0c823ac3e04f9c829a944c9852d5d61270febba298a5bfffc726f96cf7a01229d2f836634704ede443988ecfeeb98bde1c6d0091efe1713571014191ed55a59e09c927b15c3637e73e28d5cb3c3dbab22a6feb566607bae24a239db85b06e3b71e17e1b97bc0725193ab5634252be277b9501b168cd52531ac3c512820a93239e2f65d3cbc94e69c90cd4903a53b123d46239e4d322cf53ec5f99c96c7f66d99feabfff0e0ac47364d6162edeca27c7756bd423ee898e9fe004d78b34c2f530475407f7e1d825716d0419cc94d2015f5436edc3980aa657c4fb8255325f610b31f7b3cfa4a68d2e4b8b0a3285c47180628e871eeeac6fbec1ee7b0991d1b51f5e671e67d90eebea1a277f77fed6d6b200f70bfa287bcee799ba3bf0c29620a85f70515cef88eda853c0821a832e62d951da321d6d87f32da16870e0469a6d9e3db2050a25fcac5a4649e736aa03bcea507b90921dd0cbf35f47e0878824173bdf60377896090ed53791e52272beca7c4b4db46e1b7df1087aaa4bc0d798a674ee65cf4624849e0082315dd2c2e982015e1c71bf5d674464b5aebc51adf8c224097728eb561ff3853faf7de118beb2663c04f206f4dc6f2ffe35b7219d36e34f7a1473a99e76daae5d7aa4932cc3b7d618bd891c9ed7c239d07033596c61e19183212379dfa52f62b890879a62e5bbd5a8148c7f1896b1bc5d0cd816c4c98399d0ecc4ff7d07e78e7a2fc53b06aeeac6aaa420e142c7928108b2f46c1f146189630c55277fa89ec40336703d1ff83db55470aeb3073dfd6d544ab7bee458ce7223850f1710982213d08bc55bee5c7d0047470581ac41ae2eba58ff90c4bbb2a439ca8bdddd2a10ad6070c5fc17360508a5566d11800e386d6e4a4d2e8ec1536ab1b8d3f8e63ef378ea8559415346077b2f14a4d7ef75f11c96526e86769c8c2611ebd6202fb948f60bb221659cb56e17e12425a89c6c7c9db29782af4db7ee67e7995ab1c43c339308602598ee0c0ca7a2781572c80d24e11764bddca13bfcd914e75d6d64ec49597f465f8aef71ae68948962ace0f1c59df57cd957e2596f98a4c3e3728e64dd83c549d4b61eeb7c8ca155c7523cb518c7d31557a8a9d7fdb6c761c979f5872e3b75afd63711a9b2f7c9db46f64af7a226d7ac4ec06c20ddfe54bfe531f175ea4b0d9f734bc3a623c759d06b6949b73c0f7b604f2c3ad9f22f5832a786fcf94ca0f8b45307833c6481a2ace16e6d91954c9e28affab24df78a29e2ba3c5772268e9e7e3fe4fb47cd5b557080a34edb66884898dbcb32a8d747403e37aad232f9b14ac5b139833c508a133fccf1ce011797077f93d93daeab96f9af9e271935e5f2c6f17b3b21854efef1f5587bb2a90b0568a5e5e319003b80968ecd93e72fbc477643000263d9a5136c5c04b762531144e76ddcf481b3c72b2ff1b550c8e6d93f1e23ef1503d8f8e2f3b0d14c737b2ac6828155da2c998c0b8b551382c9ce4d6a3aac390cd9e428a1bb7498d9285a248ad380e1fd6e2c7348eac37094717707e5cd7906af4ad49c971f771545b24135f660052080844a1ab710dcfcdaba851c9d40b40a69c6b125bc127787035a5154a30dd665671b34a3adc330d249c57112316a3c89f9eda089af5df48aeec12463648df57b72491fe78f3d1ccdfffebba7193b927b04d14fd0aceb6aa63dd60ae97fb1e55caa0b3324d5659ed406c9289f317e6a259a497abb7c9e7f2a82f2ea6f71fdcccc3c065b12cdd9b134b7994c7dfbbe00c8769e4ccaa39275f1bdcc20b7df1c0bd75044daf72c799a2c7d80dca54916c31c2970b9aaa0cb0c9f2e9cb964a26a9c98748c39287246bbe0340506077b4929bc50066e2317771fe15ac64bb1372e90110ec6a53fc38c3b0dfce2c503f0eac2ce3751d6e23c6c09a3b89ada4ede6595e87e6b4c77e775216afb3a231411f4261a866da3414de6537c5be28fe083d829aef813e6d2bf9a10798cfe6f9d8f95072435433a8ac22d8aecfd1d3fa8b1aa572bc45fc546c9efacbd11c226db3fba48f55fbf6001ea405e4af718276487dfa1c4b0432c1b10044d5fecafcb5c70ac6f6fe6310dcee600a7a663a4936e4880ee30735cdec53a83cab79443b2c8e729b0b5f82ef8a71a6a4609099d5bc9420f7eb85065c71813d99e64cb6b0d50e007cb1fe7a693620c7cfa205cbbccd2ec812b9da55fb988c25b481f37f068d811ff6bdd698907c9f7b7cc89f9ac0dedc84cb24269eaad96f9842f0c5b0027d7602266e995a83686d1567c8f767110e5b2c84f46dba19a113fd4ccef7545ace2fdef86577c1ba309c9a1f9489385d4dcd4c7809ea79f3f73134e7c84debeb097c96c64a833b91015d976b70c6a29d2e63158cbd3383255f847b0e90e65000c76176ff8e14ec51b210a3434c8de44323081b42e9d470ad66c2d9a0c40abecd7c07dae9ef1bb573b6f99ac3b4dfa062a4b5c75da7d73f1f19eebab5330903edb2b98bf92f608871e6ee2ef1de572683ad2c8abbe8afcfcdab2343ae72e83e4daff8cf6ee38aebce1652500ef4d5354a55f15f5b0e069f93f0a735ac7adc037e59f03488014733115b7cf54742eeefa774f19f68a6e69c4488cf265b01a7362031a757100fe1cdefe86791a2777430b6b0cbc9b8a04c9c9232a2e31545b696e767c96c8d4e80c132a3543474850535a62757679859aa4bdc7d1dbdc0b1b23294253696e737a7ea4acb0b2c8d1d4ed1318292a354c51797a8287b3bfc1c3e1fa00000000000000000e24374801fd2105006fabe22319288b848b7933a05cc7ed94e9e208ea4d0052ce709f729c7c9afb859462c2fe0ea953498b167731d88bfd1880b840cc79b6795bd3aafa7b67d8f6eeb58a6955e494ab1f8d8733b25041e2d10568bc0aee98966124553f74b830d6d4a0860c1f276993feeb5fa0bed3a9b588417dcbb46bc40f3373b8005d9f612f2b3790e188059d070ee2db56b3ef6b8c9db43dde84d66b7854135ce2025f788b00277da64ee17df59fae15c17440bbdec7e0c5f858802e6b7b93781280cbcacd5aee17a139ec3a15f2454edabf3d1d4ea40fb22866145e0301d2c5845d1eef13fec1f73e62cec83f3547a8c55ebef421240a8668e9397d6bb385f79061c6052270f0cc6beece222fbe44d5ccf2a79534c39255d47c13b1797abefc92f0976b8c7d02440a2be13f5a4c075ae613037ca424e43b0b3e51711cf1f8cb3fd2699782ce760839afc0b6f8ebf20bbccea3909774b043bcab5bc9a293de5bb369ae8bf74ae6eff59811a6e579d268cefb8f5870c3baebbf35cf6908fb3337a585fc4aaa344acaffa24cb290365fb0bcbf6fb96bf9fe660854adf1e9b86b29f0d39dfd680fbfcf9863a5aa24b91b5e060b653bdae78d53fc7d015252d638037fcef8bd24d3dd4c4afa773d7c9eaa82e94def97c70766399245092184700629bbad74cb317f1129e61db8e455955b8087c9870ca51e62327d0ece865a1183dc6024e8a7b2b3a84a6c3c5298f0fbc187f55a873bd7f988d1db27098cbbc03ef74ffe4d4df8c9cb5e0b66b4a2115b43a7a6dff8d0efeba00d7fac3b83bd80521539b910690ba0821915ef8d46221d57b83a68fd11418906013f311e6b65a9de2ee0c3cd57568ee0cf730f42c5fdca644808c37983e4c9825571df6fcabaa3e39517ec3130e47289b69e73ee9fa723810632ea3eb1443d0ad772e74fba7edee413b8cceddb5dee63c129173668c44607d5dadf785ccbbcfc464d3dd81f4e00e09e2c91ad8f811fdad7930c1f461c1709f44593eb16b087945e3961ec128b0cdbf4cbc52eca1034a403e292d067e78a18bd72300cc0c56838ea9b2618bbb290c9f28f70c9edbcead7e14ff2e39ded17c4bbd8576b6d956ea6028db4dda6ff211280a22432945ef6afd9551dccad0a8c0aecf6de653e98dac99b3fba975c64de8a7a0cb5b535049e9d42d0a291dcf70183f3c0146bf51d2451dd85ff0959b5efcbcf1e0dc2b7a07ce20a25ca3729fa749068db928cd73e832447bb6020ab0089ea6afdf9897208d4563dfd1db68eacf57f81f1ae77b99465aaaeb4ebb9380d4c2ea14e41fcbbd7d21e33257333c1ba7d442b43577136ff0e33ef1d265d2e457420031a0de4fd01a8adf998e07a07ae6860433b26dac43693ac23a3743e8ebf35c72f72be9c95fc0f88f4aff060ab59833a63c499fc4a464d4f7f72531a3b10c8143b8b36bd21ac8c233ae19d03c4d3e59a64d20df9b3849c727e1a612d2bc36e5310aebce5baa263215f939292cdf6e6fa4b7b5c79a64e5f1713d59dff0fc815aae8f20c70e1e608b6e4a9343c8d0f1f4af7507817dbc9e9473ea1c03f10728b18baaa329c63c5b9d888641e3490c9a3add9f31eac67726554c77d269ea89bbe94dc0b93f89d38db2a41a49e18ec0547978ce4d4a6b8976eb84ccb52e8eb8b12cf522c90f1ebf610de5ff6ee3d8a1f6b1576894fb013a4a690d2aa413ba4129d3739feebfff1e91f51a2481eb76498713ddb2b8911532fa560752353d691e9726df22df1501ebc68d80061f9f1534ba658aa5fc4962fe0fe29083f8922b29e984275de5d7c8e1cb4db8a95aaf9b918e7d3cd3fac61a867e7acd48967d2c81089cc824c30605ec43866000000",
  "txid": "94fa558456a889ec22fd9fea92fc0bfbca2fdbff09b0887e43571dd78d847a64",
  "hash": "fb00ae6d29185c29ff16a5c2a154d95f70f31371d53e05bf3d02fd969966e0f5",
  "size": 3880,
  "vsize": 1073,
  "version": 1,
  "locktime": 102,
  "vin": [
    {
      "txid": "1031ebc7adc4d04641d9f1a5a690580a59f4710548334da4ff4e8d615c4b367b",
      "vout": 0,
      "scriptSig": {
        "asm": "",
        "hex": ""
      },
      "txinwitness": [
        "41eca08f6eb3d21ef419bf301c50cc898746359619b0f6ac60e7c72e0342ead49d5b02b30d7501d0ed04388f8a3f6e64e8b980e029ee537ca0a4f478a044bcbece3e92865b5981dd8c00ffb74ac255efa4dbf036e05632168e07a4e95ec2c805ee64012323b3f6922ab83b4ff8ea8d374b38f8e12d72b2c986f7ff3f093de0e83b3ac8c47cb47ff1f2c92330a6616494fa1318a26d6798c11570cc9fb39cdbce9edda1664babcc0901ad7f8a01f34defeeb1b434a766f577e7c4a37e8a8e35df9fb9acb843574ae03389dd9e2da4f4b3eff3ad4855d821655ffacad8f92674fdc75a697ff08b8115534c92c4315b4e4389b13c8e25699911a8557ab9479d7c2202d3adec3f9c4ccc56ea932ed7867908fd1e56f86f7ea0ea4652ac19d183860510bf39141d0e63595099d66e719ab803ef7793cc3b12e7a2f5a59e56b98d39193f8244b440bea020c4fe0c06f4491b460365172277acc4dc40de33dbfea1a9bd80b1eb653fd1b055be790cc873ca5922b74c99fea5fa83d8311f639c8e42a8536bcde111eb3b6caa1485c49aff44b28542a850b3e628739d8ff74519e989a3fd331f1a25b262bd2d7f71b851b9d417c35848ef40f78a1162a07660cb35b35167eb35a0e0c823ac3e04f9c829a944c9852d5d61270febba298a5bfffc726f96cf7a01229d2f836634704ede443988ecfeeb98bde1c6d0091efe1713571014191ed55a59e09c927b15c3637e73e28d5cb3c3dbab22a6feb566607bae24a239db85b06e3b71e17e1b97bc0725193ab5634252be277b9501b168cd52531ac3c512820a93239e2f65d3cbc94e69c90cd4903a53b123d46239e4d322cf53ec5f99c96c7f66d99feabfff0e0ac47364d6162edeca27c7756bd423ee898e9fe004d78b34c2f530475407f7e1d825716d0419cc94d2015f5436edc3980aa657c4fb8255325f610b31f7b3cfa4a68d2e4b8b0a3285c47180628e871eeeac6fbec1ee7b0991d1b51f5e671e67d90eebea1a277f77fed6d6b200f70bfa287bcee799ba3bf0c29620a85f70515cef88eda853c0821a832e62d951da321d6d87f32da16870e0469a6d9e3db2050a25fcac5a4649e736aa03bcea507b90921dd0cbf35f47e0878824173bdf60377896090ed53791e52272beca7c4b4db46e1b7df1087aaa4bc0d798a674ee65cf4624849e0082315dd2c2e982015e1c71bf5d674464b5aebc51adf8c224097728eb561ff3853faf7de118beb2663c04f206f4dc6f2ffe35b7219d36e34f7a1473a99e76daae5d7aa4932cc3b7d618bd891c9ed7c239d07033596c61e19183212379dfa52f62b890879a62e5bbd5a8148c7f1896b1bc5d0cd816c4c98399d0ecc4ff7d07e78e7a2fc53b06aeeac6aaa420e142c7928108b2f46c1f146189630c55277fa89ec40336703d1ff83db55470aeb3073dfd6d544ab7bee458ce7223850f1710982213d08bc55bee5c7d0047470581ac41ae2eba58ff90c4bbb2a439ca8bdddd2a10ad6070c5fc17360508a5566d11800e386d6e4a4d2e8ec1536ab1b8d3f8e63ef378ea8559415346077b2f14a4d7ef75f11c96526e86769c8c2611ebd6202fb948f60bb221659cb56e17e12425a89c6c7c9db29782af4db7ee67e7995ab1c43c339308602598ee0c0ca7a2781572c80d24e11764bddca13bfcd914e75d6d64ec49597f465f8aef71ae68948962ace0f1c59df57cd957e2596f98a4c3e3728e64dd83c549d4b61eeb7c8ca155c7523cb518c7d31557a8a9d7fdb6c761c979f5872e3b75afd63711a9b2f7c9db46f64af7a226d7ac4ec06c20ddfe54bfe531f175ea4b0d9f734bc3a623c759d06b6949b73c0f7b604f2c3ad9f22f5832a786fcf94ca0f8b45307833c6481a2ace16e6d91954c9e28affab24df78a29e2ba3c5772268e9e7e3fe4fb47cd5b557080a34edb66884898dbcb32a8d747403e37aad232f9b14ac5b139833c508a133fccf1ce011797077f93d93daeab96f9af9e271935e5f2c6f17b3b21854efef1f5587bb2a90b0568a5e5e319003b80968ecd93e72fbc477643000263d9a5136c5c04b762531144e76ddcf481b3c72b2ff1b550c8e6d93f1e23ef1503d8f8e2f3b0d14c737b2ac6828155da2c998c0b8b551382c9ce4d6a3aac390cd9e428a1bb7498d9285a248ad380e1fd6e2c7348eac37094717707e5cd7906af4ad49c971f771545b24135f660052080844a1ab710dcfcdaba851c9d40b40a69c6b125bc127787035a5154a30dd665671b34a3adc330d249c57112316a3c89f9eda089af5df48aeec12463648df57b72491fe78f3d1ccdfffebba7193b927b04d14fd0aceb6aa63dd60ae97fb1e55caa0b3324d5659ed406c9289f317e6a259a497abb7c9e7f2a82f2ea6f71fdcccc3c065b12cdd9b134b7994c7dfbbe00c8769e4ccaa39275f1bdcc20b7df1c0bd75044daf72c799a2c7d80dca54916c31c2970b9aaa0cb0c9f2e9cb964a26a9c98748c39287246bbe0340506077b4929bc50066e2317771fe15ac64bb1372e90110ec6a53fc38c3b0dfce2c503f0eac2ce3751d6e23c6c09a3b89ada4ede6595e87e6b4c77e775216afb3a231411f4261a866da3414de6537c5be28fe083d829aef813e6d2bf9a10798cfe6f9d8f95072435433a8ac22d8aecfd1d3fa8b1aa572bc45fc546c9efacbd11c226db3fba48f55fbf6001ea405e4af718276487dfa1c4b0432c1b10044d5fecafcb5c70ac6f6fe6310dcee600a7a663a4936e4880ee30735cdec53a83cab79443b2c8e729b0b5f82ef8a71a6a4609099d5bc9420f7eb85065c71813d99e64cb6b0d50e007cb1fe7a693620c7cfa205cbbccd2ec812b9da55fb988c25b481f37f068d811ff6bdd698907c9f7b7cc89f9ac0dedc84cb24269eaad96f9842f0c5b0027d7602266e995a83686d1567c8f767110e5b2c84f46dba19a113fd4ccef7545ace2fdef86577c1ba309c9a1f9489385d4dcd4c7809ea79f3f73134e7c84debeb097c96c64a833b91015d976b70c6a29d2e63158cbd3383255f847b0e90e65000c76176ff8e14ec51b210a3434c8de44323081b42e9d470ad66c2d9a0c40abecd7c07dae9ef1bb573b6f99ac3b4dfa062a4b5c75da7d73f1f19eebab5330903edb2b98bf92f608871e6ee2ef1de572683ad2c8abbe8afcfcdab2343ae72e83e4daff8cf6ee38aebce1652500ef4d5354a55f15f5b0e069f93f0a735ac7adc037e59f03488014733115b7cf54742eeefa774f19f68a6e69c4488cf265b01a7362031a757100fe1cdefe86791a2777430b6b0cbc9b8a04c9c9232a2e31545b696e767c96c8d4e80c132a3543474850535a62757679859aa4bdc7d1dbdc0b1b23294253696e737a7ea4acb0b2c8d1d4ed1318292a354c51797a8287b3bfc1c3e1fa00000000000000000e24374801",
        "006fabe22319288b848b7933a05cc7ed94e9e208ea4d0052ce709f729c7c9afb859462c2fe0ea953498b167731d88bfd1880b840cc79b6795bd3aafa7b67d8f6eeb58a6955e494ab1f8d8733b25041e2d10568bc0aee98966124553f74b830d6d4a0860c1f276993feeb5fa0bed3a9b588417dcbb46bc40f3373b8005d9f612f2b3790e188059d070ee2db56b3ef6b8c9db43dde84d66b7854135ce2025f788b00277da64ee17df59fae15c17440bbdec7e0c5f858802e6b7b93781280cbcacd5aee17a139ec3a15f2454edabf3d1d4ea40fb22866145e0301d2c5845d1eef13fec1f73e62cec83f3547a8c55ebef421240a8668e9397d6bb385f79061c6052270f0cc6beece222fbe44d5ccf2a79534c39255d47c13b1797abefc92f0976b8c7d02440a2be13f5a4c075ae613037ca424e43b0b3e51711cf1f8cb3fd2699782ce760839afc0b6f8ebf20bbccea3909774b043bcab5bc9a293de5bb369ae8bf74ae6eff59811a6e579d268cefb8f5870c3baebbf35cf6908fb3337a585fc4aaa344acaffa24cb290365fb0bcbf6fb96bf9fe660854adf1e9b86b29f0d39dfd680fbfcf9863a5aa24b91b5e060b653bdae78d53fc7d015252d638037fcef8bd24d3dd4c4afa773d7c9eaa82e94def97c70766399245092184700629bbad74cb317f1129e61db8e455955b8087c9870ca51e62327d0ece865a1183dc6024e8a7b2b3a84a6c3c5298f0fbc187f55a873bd7f988d1db27098cbbc03ef74ffe4d4df8c9cb5e0b66b4a2115b43a7a6dff8d0efeba00d7fac3b83bd80521539b910690ba0821915ef8d46221d57b83a68fd11418906013f311e6b65a9de2ee0c3cd57568ee0cf730f42c5fdca644808c37983e4c9825571df6fcabaa3e39517ec3130e47289b69e73ee9fa723810632ea3eb1443d0ad772e74fba7edee413b8cceddb5dee63c129173668c44607d5dadf785ccbbcfc464d3dd81f4e00e09e2c91ad8f811fdad7930c1f461c1709f44593eb16b087945e3961ec128b0cdbf4cbc52eca1034a403e292d067e78a18bd72300cc0c56838ea9b2618bbb290c9f28f70c9edbcead7e14ff2e39ded17c4bbd8576b6d956ea6028db4dda6ff211280a22432945ef6afd9551dccad0a8c0aecf6de653e98dac99b3fba975c64de8a7a0cb5b535049e9d42d0a291dcf70183f3c0146bf51d2451dd85ff0959b5efcbcf1e0dc2b7a07ce20a25ca3729fa749068db928cd73e832447bb6020ab0089ea6afdf9897208d4563dfd1db68eacf57f81f1ae77b99465aaaeb4ebb9380d4c2ea14e41fcbbd7d21e33257333c1ba7d442b43577136ff0e33ef1d265d2e457420031a0de4fd01a8adf998e07a07ae6860433b26dac43693ac23a3743e8ebf35c72f72be9c95fc0f88f4aff060ab59833a63c499fc4a464d4f7f72531a3b10c8143b8b36bd21ac8c233ae19d03c4d3e59a64d20df9b3849c727e1a612d2bc36e5310aebce5baa263215f939292cdf6e6fa4b7b5c79a64e5f1713d59dff0fc815aae8f20c70e1e608b6e4a9343c8d0f1f4af7507817dbc9e9473ea1c03f10728b18baaa329c63c5b9d888641e3490c9a3add9f31eac67726554c77d269ea89bbe94dc0b93f89d38db2a41a49e18ec0547978ce4d4a6b8976eb84ccb52e8eb8b12cf522c90f1ebf610de5ff6ee3d8a1f6b1576894fb013a4a690d2aa413ba4129d3739feebfff1e91f51a2481eb76498713ddb2b8911532fa560752353d691e9726df22df1501ebc68d80061f9f1534ba658aa5fc4962fe0fe29083f8922b29e984275de5d7c8e1cb4db8a95aaf9b918e7d3cd3fac61a867e7acd48967d2c81089cc824c30605ec438"
      ],
      "sequence": 4294967294
    }
  ],
  "vout": [
    {
      "value": 1.0,
      "n": 0,
      "scriptPubKey": {
        "asm": "1 8bfdb4ef48cdce85eb0bb890c89a4d63c3e6c03e645c0bd30eb62b4e15b60fc6",
        "hex": "51208bfdb4ef48cdce85eb0bb890c89a4d63c3e6c03e645c0bd30eb62b4e15b60fc6",
        "reqSigs": 1,
        "type": "witness_v1_scripthash",
        "addresses": [
          "3QJmnh"
        ]
      }
    },
    {
      "value": 499998.99515,
      "n": 1,
      "scriptPubKey": {
        "asm": "1 2543793e36b8e8b7240e965d2dff5343223828c79cd121c79269c6f2d281dec8",
        "hex": "51202543793e36b8e8b7240e965d2dff5343223828c79cd121c79269c6f2d281dec8",
        "reqSigs": 1,
        "type": "witness_v1_scripthash",
        "addresses": [
          "3QJmnh"
        ]
      }
    }
  ],
  "blockhash": "32a2d379a33ec88ae1cb3a8a1a44f2d12b76aebf574ecf7ac16b289397ed6cd9",
  "confirmations": 1,
  "time": 1764176557,
  "blocktime": 1764176557
}