{
  "hex": "010000000001016390754946cf201ea7475574beb92e2f95c3ed7103fab7200c8a547c46336df00100000000feffffff0200e1f50500000000fdd5046a2041a6d1e49def9733f92b58896396f148c40f69c346ba7799f1605fd6de0969a74db004bc52d42ad799088821077fbc159a53769a37d7b926205f6d9aadfc282df6dc379c72f40af7b928a801275f9c35ba7356ba17f79906007f4dba8ddc080dd6fc17fc12946a97d948c861473ffc55da1336da7797f966601f2ddaedbc686db69c77dc32b44ab7f968e841671fdc75fa3316fa57b7d946403f0dfacd9c484d96bc573cd254aa57198808a187ff3c951ad3f61ab75739a6a0dfed1a2d7ca8ad765cb71cf2748a7739a82881a7df1cb53af3d63a9777198680ffcd3a0d5c888d567c977c9214ea1759c848e1c7bf7cd55a93b65af71779e6e09fad5a6d3ce8ed361cf75cb234ca3779e868c1e79f5cf57ab3967ad73759c6c0bf8d7a4d1cc8cd163cd7bc52d42ad799088821077fbc159a53769a37d7b926205f6d9aadfc282df6dc379c72f40af7b928a801275f9c35ba7356ba17f79906007f4dba8ddc080dd6fc17fc12946a97d948c861473ffc55da1336da7797f966601f2ddaedbc686db69c77dc32b44ab7f968e841671fdc75fa3316fa57b7d946403f0dfacd9c484d96bc573cd254aa57198808a187ff3c951ad3f61ab75739a6a0dfed1a2d7ca8ad765cb71cf2748a7739a82881a7df1cb53af3d63a9777198680ffcd3a0d5c888d567c977c9214ea1759c848e1c7bf7cd55a93b65af71779e6e09fad5a6d3ce8ed361cf75cb234ca3779e868c1e79f5cf57ab3967ad73759c6c0bf8d7a4d1cc8cd163cd7bc52d42ad799088821077fbc159a53769a37d7b926205f6d9aadfc282df6dc379c72f40af7b928a801275f9c35ba7356ba17f79906007f4dba8ddc080dd6fc17fc12946a97d948c861473ffc55da1336da7797f966601f2ddaedbc686db69c77dc32b44ab7f968e841671fdc75fa3316fa57b7d946403f0dfacd9c484d96bc573cd254aa57198808a187ff3c951ad3f61ab75739a6a0dfed1a2d7ca8ad765cb71cf2748a7739a82881a7df1cb53af3d63a9777198680ffcd3a0d5c888d567c977c9214ea1759c848e1c7bf7cd55a93b65af71779e6e09fad5a6d3ce8ed361cf75cb234ca3779e868c1e79f5cf57ab3967ad73759c6c0bf8d7a4d1cc8cd163cd7bc52d42ad799088821077fbc159a53769a37d7b926205f6d9aadfc282df6dc379c72f40af7b928a801275f9c35ba7356ba17f79906007f4dba8ddc080dd6fc17fc12946a97d948c861473ffc55da1336da7797f966601f2ddaedbc686db69c77dc32b44ab7f968e841671fdc75fa3316fa57b7d946403f0dfacd9c484d96bc573cd254aa57198808a187ff3c951ad3f61ab75739a6a0dfed1a2d7ca8ad765cb71cf2748a7739a82881a7df1cb53af3d63a9777198680ffcd3a0d5c888d567c977c9214ea1759c848e1c7bf7cd55a93b65af71779e6e09fad5a6d3ce8ed361cf75cb234ca3779e868c1e79f5cf57ab3967ad73759c6c0bf8d7a4d1cc8cd163cd7bc52d42ad799088821077fbc159a53769a37d7b926205f6d9aadfc282df6dc379c72f40af7b928a801275f9c35ba7356ba17f79906007f4dba8ddc080dd6fc17fc12946a97d948c861473ffc55da1336da7797f966601f2ddaedbc686db69c77dc32b44ab7f968e841671fdc75fa3316fa57b7d946403f0dfacd9c484d96bc573cd254aa57198808a187ff3c951ad3f6ac7b265c49b56bb0682f2718f8bbd5232a6b4487a5e7d4202541e6559700c0bcc075fe6f792d0000225120cd866922411a7bccaf194981a9cb718c04acdfe15a65bc7962b4a200c4a2455a02fd75096b4b9446ed9f792b639eaf2810370c1d6bb28afbc49494268d4e2318665d5edca963cd452045b2e6a4c4546055c7d900f61de708472bf5651a57dd1739c3fddda40dd0714315e1183e89dc83a97967398c7ca4a037cda7be59515ad08e2ec406732d79f9b172c1d0e8377cce403c4456a51d45d057e2fae75a95ae16d584e2799557038f2c8d7e1f8f2580e6bca0b402a27f3c626c09e72e1b79419d139445dd0851460e97d9e8a1f4a2f9dea7521b85265769bdc42d2c537761516862581d8c6e4c0599771007cbbed10c86c833af2c1cc3a82f9b37345906fac4a88b5190d047beb43fff5f00656f60d7a7a6136ea536924f69091962cbbf414cbfee2095eccd78fcbcffa5f015bd10ed254e92baa1ee2b3fd867cfd2b4de433ad4b1fff8670115d41aabd9f839185db5458e2fac87376f524f05b69d58fc7c665b9fb5a5ec4897b905f04db8cd3fb619c723e41a1302f825e08d97faf99f42c22c112da7b1620ace3e33e3755ce3f920ab095ffec390ba761d18de94c6d54e43df6da09ebc06bfa145cd3f00358c8d9929d03356295232f3feab26ba089efba19073e10a757c67b9e29275ede49ee5ef6fae5fe0d50c9e617555269d93f49ca6285daa9b908bd22c441701a435e609d2bcde301821b468f357ad30cb9968599edd03f4afb91fc11ebffb15314343d8bbd9a0b7a4e075e1f5788bd7e180366637ba8277338b57511304118471e47f3b2b3e7a5a62755bb171c14bc22acbc44749f7d3c38672a8aff330b25695cb7af94b04a9289cd1b5af208990d78eb87c7f1f6500246bd0f3a3f5e39f25387a5a2648e4f87f6c716cf5323be45aacdf20370e120529ce753705cb9701bb405d1e62018df0e46e3c41056d9c88aa14d3b1d8d7c3c3497e312f418a8195d5f8728de7dd6ac7295b594f6fa749240b8c6d55459860b7401ac9d10f80eacaed42aa9bde5d65628111e966c93508d10e8d8a74a60c8880909d2c2f0edb654b734655943d08f5955998393b3345fe1332576217daf85739513544ae4713ebb9f7d38e7dae1b356d8585da67619c1cc5dcba3f02b905b7000b9b55e5f0b51fed1b5ac28c7075ba12395e3399e00f4136442b0d49a7d47f94e6181bda550bbaf1b5b888ab4e7c14336540db48f1df462ac69177eda7f0f846eaf764d59688ac421e7d30d833fa56885b036c928cddbd3bb671fe0d48e25ebcba1418d0d570a10d5ace056c96a195d52f50efd86e8cca7a7fa948b24f03b99ae7ce0af811ec94c1e67bc5925b854dfe5b7742007d114bf66058325af1af3aa752126312bd014b5d553d973f37e64432f06082fe7725d1f724879e5e96b0611081beb97d703988069c1f3c5d8fa4eed517851257f7dd686b175ef806ebe510c02269cc5a8230b056431bcd97b40f8c9d7af23238a0a563ceaa5cfd12bfb1a087ee92541dab0a7432db326ff7b0300c2ca0d77b058b37c6d2145f2bcd12bd7d6c72f62caca58cd2887f1376111ad92b4b70da6d12821c7565a15b2c358b3a3dcb4d0339127ec03befbe80210ce510a4743612105d24250b53973c2fd012adeeac129aa7d033d98a4a7ea2640beed3f272118507448a83f2c8bbcb2046cc992e2785ede3d303134eefe80516e2ac3310802c074284b81dc887ddec0c589ea8565a929e70ec7db2c2993740088d538366972cf82a88ab40b44281f6b103fa989ed2c90ec0c0e0b2c022600e1c85a733773a932d24084da7f8e10c6ecec132252a6100bc0e87d742a7635031ce4bfa535ae6f2c4f6688421995849b11e5bed0408f1358f611f82a476c97364c9940d84c6bb2dae24487d5fc11d71a820cd1731ea78bd6d5a1d59da96988da0e99a5da86e2f3a0208b2e30ea007aa0514a06a6f5fbceaeaa8d8171e17e2cc5776a5057a5a0f677a69c8fa7fd0bac42667954bdd0fcac2541b3740a4359fb2bc51f9d31b67011a9eaac66bc50f57ccab4719fce4cb7b3a25b2d0d71ab9fc4f528a5714abdca0a6d22663e0f855aac1c5e9b2ca2629076d032170947426edcb6d50d5578c3ce0c5e4beda0f3788debb89ffb4c669ba383244552932cb095f28860a02b1cafd5163381690ed3f39a1e30f7b5033b2bee00c9de676ea28f978a8056b2f614da0c155be7757706ee3a7bed31575a09ee7ea92127f3cb9a86bbbcab3619632dc6738540d99fdfc6d64154ec885715965017b1ed281113ccc7a9977e55480963178ef222fb04e0c3688e4474a4c266401fbce8dd76ebdc91c4963a5a659936134e2654015282aadb5104c99f1bf90ba68135364fd1604867d1bc76e98effdc1bc56c472d5a2d96996784b98f872ac241a402bfa2f5c8f29fb70b975be34c39b342a4b572647a325b1e138cb4efb8ab7e7dfea9fa9a9142b9461f3f2e95bf7b942e0c444b69ed2826ce07d47c2e54c4300444e8bf880a1523d9593cf85ba1d068b78aa7967793e0b3d87d1df5153dc3258ade431971cb041a9063743e738ef5e98aead461b68ef7b69663deabb35301f419c85a68087ffbaf2f9a035d2ef9b9cff879d1699a783282ad2831546cd3757eec9449725afa99d1f9d9d74a93dc2acad680198fd12fbad71eb2b130366d2c674a4d42aa1d2f009e1e27c96df2d6cce455ff661e69f433d2ea85f920b72aea29c9d7d435cdf3c74d00991a2bf0739c0c1ae4d7a0e6c014743d021d199f6578c497eabd8bda2c97186055dacbe256f7eb15c02600ed41da193de3b5415bea5abf3e7556fba1f9ef7ca6f376dbe4fced5f881f2f5222501cc3c3491bf323dc475a8d52d238f8194c91a47831e98e71669387058e68f57506ae384833b724467eb4671164ba6bd44a525c3f5d8f68cd618c638d5203831685b3ae70beb1d06430d34bdbf2bac66deff0d14558f5afa2e1fb1b0917fdc8b0cc13606eecc9e6866d8552bb14412b222aecfc479780bd084c28899692a2e529a65be053d5701fb4c94177bac7a8653ce22c12f1b339979347f7c44bfe786aa0e69a97a5a08b05c49c4dec6e0abde7447a1580a98c97f7542cb60b608c0d5643952518be2a22bc0e18eb602e041b56d6d3f4857126f06661b53fd7506652cbe87e1c274a0034d165bb3510cf7a2634c123a6b4a646ccd4a6b536c611885f8ef6c52852a62615cec2eee625d88b0bfc1fc78890ff53a7ff1e8d6dcdf20b074c201275aacbded9ea52d36f85d4da0b3259c834a45cb92a8fc4e01e832d13fac31b7040516bc2b334d5288aa56ef2016964dbc2c63f0978b11dd2be1d330290c885cf29d1fdc0b1ab6935e6b704f7d0d3e182c3150576676787f81aaabb6c9dbe4fa08141b36373a3b4042434c708792a4b4b6cfdef2f8fd0004051c3e4e596b82a4a6bdd1d9e7274d7176989ed1dddfe5f5f6f8000000000000000000000000001127364301fd2105004d3bbeb405efc286810ec22ab0b0dea05bf20e041e04077c00000cecbaebc0211f73dff3a9acf5d4bd276887cf59213db990199ae28fb13c4ecc838d3434a80bde7081a417750571fb58c9c5cb06e4b67bf6aed61bc2208213a831b9cbec3843a95293d356a6688c00545d197ac459fcbe03ee708d2280a3d5cb175450736e5adfef3c99b0dddcc2edc96c8453abb163745679305f65351a6aefdbfda924469372d4769bdf14c89b58349123f66b5151b19a7a47e39544044ad2037f0ac29e6e9544e60db3239540778815680e1975c8028511647807caf579b7c3326def25e33c739886ce70f58eeaf01e6d01a7facf631bd19ae841fdf8cf2f5f5922ba730468dbcd188f89ee95d0f23fe26a10b1269662aca2d979760f3c79288adae26d5fa60d5eda433c7c3cf6760a7f34ce3d77fd330eff63569677431dc380ea345da71b99014efdb671b06386527293c066d250f79bde601923d52f6ae2ce26a7012b51c78027c2ca944fc73fdd3ef6986d2fcd8cc4b7e055c737c66be20ab565b052d91a890b6bd2c2fdca026b53f79c04809872e045d41a10ad20cef13f65a1c50a7f13ebe0c5fb569fc13d049fecaade5fc4138176cd69d4fa3592ff2fdaa8d3bc62eb97f691e6b22a9fed57888cffa7c2d062e948543d80e7f0cfe97e3fb7807bc7ed2b36148a44194d001f7c92b116b161accebddbda48b76892dffc6c84e1dc7f8a20b1a258527068aba11bd5d9afd3d2279c953035e782a719f11fbbee93410958a19c9d25478914f4885b3d9cd050133c66838f5628f84f871f2b594fae0be48108b19cea584dbe89f4beb23f00100bdfe405da7283c8c3d1af24a2d85a7e7518cb4df1205e3674fbb720ebd4734952fdd8196761b6367b74d0ad7e27d8cb747a930948c1357fe85ecfc048a66cb6989e75066756251d18507f308d5c6d0281cedc33a98a875ba8ab8287a578e19ca736c44f315ac6ea44aca848f46ac6c8b60bd13367c87cbdac93dc7ffbbc773db74fcb4c73786de8246e6e7ed1ec877553732896b65b76130c9f34220e90f68396f3167f91378cb2ffc70e1af49a653d6ea20326e1420a71f79ffe840964ff7cdf13ff3bc7dff408f8da1cdcf3bf352c8437156b4cb86c96d5aeda4af9da7ab6a213353f1280375bdaf91c4c575c0257856556ffa1fb6ce835b1ebaeb4ffa87a57d074533b2a29263c6ba5a5d12922525e0f8d1c9cfabde0d5e20b71f851e13b3ff947f937f40fee7e5d29268580ebf0b087fabc0912a5cc13a6a5bd9eddf5bd6d23c18f341b84534c4231586c903b51b0c55d48d73bebd29fcf57603ab3aa85a279979c7d2fd195e5e5fe1c18759430769f95384beb88b0905fb04d32787f994db145c712b7b7e4ee44393c678b9c63951f2e3b8ea7a6663fe8b16ebb5138c4af1ea94cc201a4a5e6e0367fbe53b6fc9a0728d071a91ae708082446db9d3726bde6fdbbabe850ce1f73e7118eefeac5e49fd60fb64fa5c532cffaac00c3d98ccaea57478baa49457fab2de3b6c97189610618ffafd4a046068ce842d32c9fdc271a4c813736a6bd777b4f6bd70ad2916bb09200b6096e247da9adb65184d2be7db1df9dfe8a175178b9ff7c65936b3248cabef1e8a75e21b537a89efbed07658049dfac2ff95e9329ea24b9acbffe7f875f00e81fdca3244533c47f4ce7a770b2778b4cda63801e03c8f8cca98e5fe77107dbb51caf6e8f657c62a2a58af8c1cf9717db046ef7f7ed24a9d6d5323712fee015b7c2b6c8cb6cf5b21368de62aaf7248acb70c5c9b93ebed6e64151f38ad320de2ce9482084a52b2f4b4f3d6e7cd3e07bcba5a973c679c5185a8529eb372f000000",
  "txid": "910c244b94baf0c16d35288d52a42323d5f6f117d65a745ee947f593b02a792c",
  "hash": "fc44359f7d56dd5420b164bde9da74eca93be605f7d5563f78220c7d20ed3f89",
  "size": 5085,
  "vsize": 2278,
  "version": 1,
  "locktime": 47,
  "vin": [
    {
      "txid": "f06d33467c548a0c20b7fa0371edc3952f2eb9be745547a71e20cf4649759063",
      "vout": 1,
      "scriptSig": {
        "asm": "",
        "hex": ""
      },
      "txinwitness": [
        "6b4b9446ed9f792b639eaf2810370c1d6bb28afbc49494268d4e2318665d5edca963cd452045b2e6a4c4546055c7d900f61de708472bf5651a57dd1739c3fddda40dd0714315e1183e89dc83a97967398c7ca4a037cda7be59515ad08e2ec406732d79f9b172c1d0e8377cce403c4456a51d45d057e2fae75a95ae16d584e2799557038f2c8d7e1f8f2580e6bca0b402a27f3c626c09e72e1b79419d139445dd0851460e97d9e8a1f4a2f9dea7521b85265769bdc42d2c537761516862581d8c6e4c0599771007cbbed10c86c833af2c1cc3a82f9b37345906fac4a88b5190d047beb43fff5f00656f60d7a7a6136ea536924f69091962cbbf414cbfee2095eccd78fcbcffa5f015bd10ed254e92baa1ee2b3fd867cfd2b4de433ad4b1fff8670115d41aabd9f839185db5458e2fac87376f524f05b69d58fc7c665b9fb5a5ec4897b905f04db8cd3fb619c723e41a1302f825e08d97faf99f42c22c112da7b1620ace3e33e3755ce3f920ab095ffec390ba761d18de94c6d54e43df6da09ebc06bfa145cd3f00358c8d9929d03356295232f3feab26ba089efba19073e10a757c67b9e29275ede49ee5ef6fae5fe0d50c9e617555269d93f49ca6285daa9b908bd22c441701a435e609d2bcde301821b468f357ad30cb9968599edd03f4afb91fc11ebffb15314343d8bbd9a0b7a4e075e1f5788bd7e180366637ba8277338b57511304118471e47f3b2b3e7a5a62755bb171c14bc22acbc44749f7d3c38672a8aff330b25695cb7af94b04a9289cd1b5af208990d78eb87c7f1f6500246bd0f3a3f5e39f25387a5a2648e4f87f6c716cf5323be45aacdf20370e120529ce753705cb9701bb405d1e62018df0e46e3c41056d9c88aa14d3b1d8d7c3c3497e312f418a8195d5f8728de7dd6ac7295b594f6fa749240b8c6d55459860b7401ac9d10f80eacaed42aa9bde5d65628111e966c93508d10e8d8a74a60c8880909d2c2f0edb654b734655943d08f5955998393b3345fe1332576217daf85739513544ae4713ebb9f7d38e7dae1b356d8585da67619c1cc5dcba3f02b905b7000b9b55e5f0b51fed1b5ac28c7075ba12395e3399e00f4136442b0d49a7d47f94e6181bda550bbaf1b5b888ab4e7c14336540db48f1df462ac69177eda7f0f846eaf764d59688ac421e7d30d833fa56885b036c928cddbd3bb671fe0d48e25ebcba1418d0d570a10d5ace056c96a195d52f50efd86e8cca7a7fa948b24f03b99ae7ce0af811ec94c1e67bc5925b854dfe5b7742007d114bf66058325af1af3aa752126312bd014b5d553d973f37e64432f06082fe7725d1f724879e5e96b0611081beb97d703988069c1f3c5d8fa4eed517851257f7dd686b175ef806ebe510c02269cc5a8230b056431bcd97b40f8c9d7af23238a0a563ceaa5cfd12bfb1a087ee92541dab0a7432db326ff7b0300c2ca0d77b058b37c6d2145f2bcd12bd7d6c72f62caca58cd2887f1376111ad92b4b70da6d12821c7565a15b2c358b3a3dcb4d0339127ec03befbe80210ce510a4743612105d24250b53973c2fd012adeeac129aa7d033d98a4a7ea2640beed3f272118507448a83f2c8bbcb2046cc992e2785ede3d303134eefe80516e2ac3310802c074284b81dc887ddec0c589ea8565a929e70ec7db2c2993740088d538366972cf82a88ab40b44281f6b103fa989ed2c90ec0c0e0b2c022600e1c85a733773a932d24084da7f8e10c6ecec132252a6100bc0e87d742a7635031ce4bfa535ae6f2c4f6688421995849b11e5bed0408f1358f611f82a476c97364c9940d84c6bb2dae24487d5fc11d71a820cd1731ea78bd6d5a1d59da96988da0e99a5da86e2f3a0208b2e30ea007aa0514a06a6f5fbceaeaa8d8171e17e2cc5776a5057a5a0f677a69c8fa7fd0bac42667954bdd0fcac2541b3740a4359fb2bc51f9d31b67011a9eaac66bc50f57ccab4719fce4cb7b3a25b2d0d71ab9fc4f528a5714abdca0a6d22663e0f855aac1c5e9b2ca2629076d032170947426edcb6d50d5578c3ce0c5e4beda0f3788debb89ffb4c669ba383244552932cb095f28860a02b1cafd5163381690ed3f39a1e30f7b5033b2bee00c9de676ea28f978a8056b2f614da0c155be7757706ee3a7bed31575a09ee7ea92127f3cb9a86bbbcab3619632dc6738540d99fdfc6d64154ec885715965017b1ed281113ccc7a9977e55480963178ef222fb04e0c3688e4474a4c266401fbce8dd76ebdc91c4963a5a659936134e2654015282aadb5104c99f1bf90ba68135364fd1604867d1bc76e98effdc1bc56c472d5a2d96996784b98f872ac241a402bfa2f5c8f29fb70b975be34c39b342a4b572647a325b1e138cb4efb8ab7e7dfea9fa9a9142b9461f3f2e95bf7b942e0c444b69ed2826ce07d47c2e54c4300444e8bf880a1523d9593cf85ba1d068b78aa7967793e0b3d87d1df5153dc3258ade431971cb041a9063743e738ef5e98aead461b68ef7b69663deabb35301f419c85a68087ffbaf2f9a035d2ef9b9cff879d1699a783282ad2831546cd3757eec9449725afa99d1f9d9d74a93dc2acad680198fd12fbad71eb2b130366d2c674a4d42aa1d2f009e1e27c96df2d6cce455ff661e69f433d2ea85f920b72aea29c9d7d435cdf3c74d00991a2bf0739c0c1ae4d7a0e6c014743d021d199f6578c497eabd8bda2c97186055dacbe256f7eb15c02600ed41da193de3b5415bea5abf3e7556fba1f9ef7ca6f376dbe4fced5f881f2f5222501cc3c3491bf323dc475a8d52d238f8194c91a47831e98e71669387058e68f57506ae384833b724467eb4671164ba6bd44a525c3f5d8f68cd618c638d5203831685b3ae70beb1d06430d34bdbf2bac66deff0d14558f5afa2e1fb1b0917fdc8b0cc13606eecc9e6866d8552bb14412b222aecfc479780bd084c28899692a2e529a65be053d5701fb4c94177bac7a8653ce22c12f1b339979347f7c44bfe786aa0e69a97a5a08b05c49c4dec6e0abde7447a1580a98c97f7542cb60b608c0d5643952518be2a22bc0e18eb602e041b56d6d3f4857126f06661b53fd7506652cbe87e1c274a0034d165bb3510cf7a2634c123a6b4a646ccd4a6b536c611885f8ef6c52852a62615cec2eee625d88b0bfc1fc78890ff53a7ff1e8d6dcdf20b074c201275aacbded9ea52d36f85d4da0b3259c834a45cb92a8fc4e01e832d13fac31b7040516bc2b334d5288aa56ef2016964dbc2c63f0978b11dd2be1d330290c885cf29d1fdc0b1ab6935e6b704f7d0d3e182c3150576676787f81aaabb6c9dbe4fa08141b36373a3b4042434c708792a4b4b6cfdef2f8fd0004051c3e4e596b82a4a6bdd1d9e7274d7176989ed1dddfe5f5f6f8000000000000000000000000001127364301",
        "004d3bbeb405efc286810ec22ab0b0dea05bf20e041e04077c00000cecbaebc0211f73dff3a9acf5d4bd276887cf59213db990199ae28fb13c4ecc838d3434a80bde7081a417750571fb58c9c5cb06e4b67bf6aed61bc2208213a831b9cbec3843a95293d356a6688c00545d197ac459fcbe03ee708d2280a3d5cb175450736e5adfef3c99b0dddcc2edc96c8453abb163745679305f65351a6aefdbfda924469372d4769bdf14c89b58349123f66b5151b19a7a47e39544044ad2037f0ac29e6e9544e60db3239540778815680e1975c8028511647807caf579b7c3326def25e33c739886ce70f58eeaf01e6d01a7facf631bd19ae841fdf8cf2f5f5922ba730468dbcd188f89ee95d0f23fe26a10b1269662aca2d979760f3c79288adae26d5fa60d5eda433c7c3cf6760a7f34ce3d77fd330eff63569677431dc380ea345da71b99014efdb671b06386527293c066d250f79bde601923d52f6ae2ce26a7012b51c78027c2ca944fc73fdd3ef6986d2fcd8cc4b7e055c737c66be20ab565b052d91a890b6bd2c2fdca026b53f79c04809872e045d41a10ad20cef13f65a1c50a7f13ebe0c5fb569fc13d049fecaade5fc4138176cd69d4fa3592ff2fdaa8d3bc62eb97f691e6b22a9fed57888cffa7c2d062e948543d80e7f0cfe97e3fb7807bc7ed2b36148a44194d001f7c92b116b161accebddbda48b76892dffc6c84e1dc7f8a20b1a258527068aba11bd5d9afd3d2279c953035e782a719f11fbbee93410958a19c9d25478914f4885b3d9cd050133c66838f5628f84f871f2b594fae0be48108b19cea584dbe89f4beb23f00100bdfe405da7283c8c3d1af24a2d85a7e7518cb4df1205e3674fbb720ebd4734952fdd8196761b6367b74d0ad7e27d8cb747a930948c1357fe85ecfc048a66cb6989e75066756251d18507f308d5c6d0281cedc33a98a875ba8ab8287a578e19ca736c44f315ac6ea44aca848f46ac6c8b60bd13367c87cbdac93dc7ffbbc773db74fcb4c73786de8246e6e7ed1ec877553732896b65b76130c9f34220e90f68396f3167f91378cb2ffc70e1af49a653d6ea20326e1420a71f79ffe840964ff7cdf13ff3bc7dff408f8da1cdcf3bf352c8437156b4cb86c96d5aeda4af9da7ab6a213353f1280375bdaf91c4c575c0257856556ffa1fb6ce835b1ebaeb4ffa87a57d074533b2a29263c6ba5a5d12922525e0f8d1c9cfabde0d5e20b71f851e13b3ff947f937f40fee7e5d29268580ebf0b087fabc0912a5cc13a6a5bd9eddf5bd6d23c18f341b84534c4231586c903b51b0c55d48d73bebd29fcf57603ab3aa85a279979c7d2fd195e5e5fe1c18759430769f95384beb88b0905fb04d32787f994db145c712b7b7e4ee44393c678b9c63951f2e3b8ea7a6663fe8b16ebb5138c4af1ea94cc201a4a5e6e0367fbe53b6fc9a0728d071a91ae708082446db9d3726bde6fdbbabe850ce1f73e7118eefeac5e49fd60fb64fa5c532cffaac00c3d98ccaea57478baa49457fab2de3b6c97189610618ffafd4a046068ce842d32c9fdc271a4c813736a6bd777b4f6bd70ad2916bb09200b6096e247da9adb65184d2be7db1df9dfe8a175178b9ff7c65936b3248cabef1e8a75e21b537a89efbed07658049dfac2ff95e9329ea24b9acbffe7f875f00e81fdca3244533c47f4ce7a770b2778b4cda63801e03c8f8cca98e5fe77107dbb51caf6e8f657c62a2a58af8c1cf9717db046ef7f7ed24a9d6d5323712fee015b7c2b6c8cb6cf5b21368de62aaf7248acb70c5c9b93ebed6e64151f38ad320de2ce9482084a52b2f4b4f3d6e7cd3e07bcba5a973c679c5185a8529eb37"
      ],
      "sequence": 4294967294
    }
  ],
  "vout": [
    {
      "value": 1.0,
      "n": 0,
      "scriptPubKey": {
        "asm": "OP_RETURN 41a6d1e49def9733f92b58896396f148c40f69c346ba7799f1605fd6de0969a7 bc52d42ad799088821077fbc159a53769a37d7b926205f6d9aadfc282df6dc379c72f40af7b928a801275f9c35ba7356ba17f79906007f4dba8ddc080dd6fc17fc12946a97d948c861473ffc55da1336da7797f966601f2ddaedbc686db69c77dc32b44ab7f968e841671fdc75fa3316fa57b7d946403f0dfacd9c484d96bc573cd254aa57198808a187ff3c951ad3f61ab75739a6a0dfed1a2d7ca8ad765cb71cf2748a7739a82881a7df1cb53af3d63a9777198680ffcd3a0d5c888d567c977c9214ea1759c848e1c7bf7cd55a93b65af71779e6e09fad5a6d3ce8ed361cf75cb234ca3779e868c1e79f5cf57ab3967ad73759c6c0bf8d7a4d1cc8cd163cd7bc52d42ad799088821077fbc159a53769a37d7b926205f6d9aadfc282df6dc379c72f40af7b928a801275f9c35ba7356ba17f79906007f4dba8ddc080dd6fc17fc12946a97d948c861473ffc55da1336da7797f966601f2ddaedbc686db69c77dc32b44ab7f968e841671fdc75fa3316fa57b7d946403f0dfacd9c484d96bc573cd254aa57198808a187ff3c951ad3f61ab75739a6a0dfed1a2d7ca8ad765cb71cf2748a7739a82881a7df1cb53af3d63a9777198680ffcd3a0d5c888d567c977c9214ea1759c848e1c7bf7cd55a93b65af71779e6e09fad5a6d3ce8ed361cf75cb234ca3779e868c1e79f5cf57ab3967ad73759c6c0bf8d7a4d1cc8cd163cd7bc52d42ad799088821077fbc159a53769a37d7b926205f6d9aadfc282df6dc379c72f40af7b928a801275f9c35ba7356ba17f79906007f4dba8ddc080dd6fc17fc12946a97d948c861473ffc55da1336da7797f966601f2ddaedbc686db69c77dc32b44ab7f968e841671fdc75fa3316fa57b7d946403f0dfacd9c484d96bc573cd254aa57198808a187ff3c951ad3f61ab75739a6a0dfed1a2d7ca8ad765cb71cf2748a7739a82881a7df1cb53af3d63a9777198680ffcd3a0d5c888d567c977c9214ea1759c848e1c7bf7cd55a93b65af71779e6e09fad5a6d3ce8ed361cf75cb234ca3779e868c1e79f5cf57ab3967ad73759c6c0bf8d7a4d1cc8cd163cd7bc52d42ad799088821077fbc159a53769a37d7b926205f6d9aadfc282df6dc379c72f40af7b928a801275f9c35ba7356ba17f79906007f4dba8ddc080dd6fc17fc12946a97d948c861473ffc55da1336da7797f966601f2ddaedbc686db69c77dc32b44ab7f968e841671fdc75fa3316fa57b7d946403f0dfacd9c484d96bc573cd254aa57198808a187ff3c951ad3f61ab75739a6a0dfed1a2d7ca8ad765cb71cf2748a7739a82881a7df1cb53af3d63a9777198680ffcd3a0d5c888d567c977c9214ea1759c848e1c7bf7cd55a93b65af71779e6e09fad5a6d3ce8ed361cf75cb234ca3779e868c1e79f5cf57ab3967ad73759c6c0bf8d7a4d1cc8cd163cd7bc52d42ad799088821077fbc159a53769a37d7b926205f6d9aadfc282df6dc379c72f40af7b928a801275f9c35ba7356ba17f79906007f4dba8ddc080dd6fc17fc12946a97d948c861473ffc55da1336da7797f966601f2ddaedbc686db69c77dc32b44ab7f968e841671fdc75fa3316fa57b7d946403f0dfacd9c484d96bc573cd254aa57198808a187ff3c951ad3f6ac7b265c49b56bb0682f2718f8bbd5232a6b4487a5e7d4202541e6559700c0bc",
        "hex": "6a2041a6d1e49def9733f92b58896396f148c40f69c346ba7799f1605fd6de0969a74db004bc52d42ad799088821077fbc159a53769a37d7b926205f6d9aadfc282df6dc379c72f40af7b928a801275f9c35ba7356ba17f79906007f4dba8ddc080dd6fc17fc12946a97d948c861473ffc55da1336da7797f966601f2ddaedbc686db69c77dc32b44ab7f968e841671fdc75fa3316fa57b7d946403f0dfacd9c484d96bc573cd254aa57198808a187ff3c951ad3f61ab75739a6a0dfed1a2d7ca8ad765cb71cf2748a7739a82881a7df1cb53af3d63a9777198680ffcd3a0d5c888d567c977c9214ea1759c848e1c7bf7cd55a93b65af71779e6e09fad5a6d3ce8ed361cf75cb234ca3779e868c1e79f5cf57ab3967ad73759c6c0bf8d7a4d1cc8cd163cd7bc52d42ad799088821077fbc159a53769a37d7b926205f6d9aadfc282df6dc379c72f40af7b928a801275f9c35ba7356ba17f79906007f4dba8ddc080dd6fc17fc12946a97d948c861473ffc55da1336da7797f966601f2ddaedbc686db69c77dc32b44ab7f968e841671fdc75fa3316fa57b7d946403f0dfacd9c484d96bc573cd254aa57198808a187ff3c951ad3f61ab75739a6a0dfed1a2d7ca8ad765cb71cf2748a7739a82881a7df1cb53af3d63a9777198680ffcd3a0d5c888d567c977c9214ea1759c848e1c7bf7cd55a93b65af71779e6e09fad5a6d3ce8ed361cf75cb234ca3779e868c1e79f5cf57ab3967ad73759c6c0bf8d7a4d1cc8cd163cd7bc52d42ad799088821077fbc159a53769a37d7b926205f6d9aadfc282df6dc379c72f40af7b928a801275f9c35ba7356ba17f79906007f4dba8ddc080dd6fc17fc12946a97d948c861473ffc55da1336da7797f966601f2ddaedbc686db69c77dc32b44ab7f968e841671fdc75fa3316fa57b7d946403f0dfacd9c484d96bc573cd254aa57198808a187ff3c951ad3f61ab75739a6a0dfed1a2d7ca8ad765cb71cf2748a7739a82881a7df1cb53af3d63a9777198680ffcd3a0d5c888d567c977c9214ea1759c848e1c7bf7cd55a93b65af71779e6e09fad5a6d3ce8ed361cf75cb234ca3779e868c1e79f5cf57ab3967ad73759c6c0bf8d7a4d1cc8cd163cd7bc52d42ad799088821077fbc159a53769a37d7b926205f6d9aadfc282df6dc379c72f40af7b928a801275f9c35ba7356ba17f79906007f4dba8ddc080dd6fc17fc12946a97d948c861473ffc55da1336da7797f966601f2ddaedbc686db69c77dc32b44ab7f968e841671fdc75fa3316fa57b7d946403f0dfacd9c484d96bc573cd254aa57198808a187ff3c951ad3f61ab75739a6a0dfed1a2d7ca8ad765cb71cf2748a7739a82881a7df1cb53af3d63a9777198680ffcd3a0d5c888d567c977c9214ea1759c848e1c7bf7cd55a93b65af71779e6e09fad5a6d3ce8ed361cf75cb234ca3779e868c1e79f5cf57ab3967ad73759c6c0bf8d7a4d1cc8cd163cd7bc52d42ad799088821077fbc159a53769a37d7b926205f6d9aadfc282df6dc379c72f40af7b928a801275f9c35ba7356ba17f79906007f4dba8ddc080dd6fc17fc12946a97d948c861473ffc55da1336da7797f966601f2ddaedbc686db69c77dc32b44ab7f968e841671fdc75fa3316fa57b7d946403f0dfacd9c484d96bc573cd254aa57198808a187ff3c951ad3f6ac7b265c49b56bb0682f2718f8bbd5232a6b4487a5e7d4202541e6559700c0bc",
        "type": "nulldata"
      }
    },
    {
      "value": 499995.9324,
      "n": 1,
      "scriptPubKey": {
        "asm": "1 cd866922411a7bccaf194981a9cb718c04acdfe15a65bc7962b4a200c4a2455a",
        "hex": "5120cd866922411a7bccaf194981a9cb718c04acdfe15a65bc7962b4a200c4a2455a",
        "reqSigs": 1,
        "type": "witness_v1_scripthash",
        "addresses": [
          "3QJmnh"
        ]
      }
    }
  ],
  "blockhash": "15af9b025c636b87e0a10c18a1a8de0e5f3c2069ad563b293161176d75df89a4",
  "confirmations": 1,
  "time": 1764174659,
  "blocktime": 1764174659
}