{
  "hex": "010000000001018449c4b8eb1f0259f7a8677883559af5227a711b5a793d746659b709a6ccc90f0000000000feffffff0200e1f50500000000fdd5046a205117f644c0a70a95075c665a6232f3dc99a08b9d132757d5ab2b41a621d443144db004a3c016051e077c2b71fa6e7008b6cc0be61859d799aee7f6b413b6ae7e793dc183e036253e275c0b51da4e502896ec2bc63879f7b98ec7d69433968e5e591de1e38056455e473c6b31ba2e3048f68c4ba6581997d9eea7b6f453f6ee3e397d81c3a076657e671c4b119a0e1068d6ac6b867839b7f9ce8796d473d6ce1e195da1234096859e87fcabf17aeef088364c8b6698d957192e67763493362efef9bd410360b6a5bea7dc8bd15aced0a8166cab46b8f977390e475614b3160eded99d616300d6c5dec7bcebb13aaeb0c8760ccb26d89917596e273674d3766ebeb9fd014320f6e5fee79ccb911a8e90e8562ceb06f8b937794e071654f3564e9e99dd21a3c016051e077c2b71fa6e7008b6cc0be61859d799aee7f6b413b6ae7e793dc183e036253e275c0b51da4e502896ec2bc63879f7b98ec7d69433968e5e591de1e38056455e473c6b31ba2e3048f68c4ba6581997d9eea7b6f453f6ee3e397d81c3a076657e671c4b119a0e1068d6ac6b867839b7f9ce8796d473d6ce1e195da1234096859e87fcabf17aeef088364c8b6698d957192e67763493362efef9bd410360b6a5bea7dc8bd15aced0a8166cab46b8f977390e475614b3160eded99d616300d6c5dec7bcebb13aaeb0c8760ccb26d89917596e273674d3766ebeb9fd014320f6e5fee79ccb911a8e90e8562ceb06f8b937794e071654f3564e9e99dd21a3c016051e077c2b71fa6e7008b6cc0be61859d799aee7f6b413b6ae7e793dc183e036253e275c0b51da4e502896ec2bc63879f7b98ec7d69433968e5e591de1e38056455e473c6b31ba2e3048f68c4ba6581997d9eea7b6f453f6ee3e397d81c3a076657e671c4b119a0e1068d6ac6b867839b7f9ce8796d473d6ce1e195da1234096859e87fcabf17aeef088364c8b6698d957192e67763493362efef9bd410360b6a5bea7dc8bd15aced0a8166cab46b8f977390e475614b3160eded99d616300d6c5dec7bcebb13aaeb0c8760ccb26d89917596e273674d3766ebeb9fd014320f6e5fee79ccb911a8e90e8562ceb06f8b937794e071654f3564e9e99dd21a3c016051e077c2b71fa6e7008b6cc0be61859d799aee7f6b413b6ae7e793dc183e036253e275c0b51da4e502896ec2bc63879f7b98ec7d69433968e5e591de1e38056455e473c6b31ba2e3048f68c4ba6581997d9eea7b6f453f6ee3e397d81c3a076657e671c4b119a0e1068d6ac6b867839b7f9ce8796d473d6ce1e195da1234096859e87fcabf17aeef088364c8b6698d957192e67763493362efef9bd410360b6a5bea7dc8bd15aced0a8166cab46b8f977390e475614b3160eded99d616300d6c5dec7bcebb13aaeb0c8760ccb26d89917596e273674d3766ebeb9fd014320f6e5fee79ccb911a8e90e8562ceb06f8b937794e071654f3564e9e99dd21a3c016051e077c2b71fa6e7008b6cc0be61859d799aee7f6b413b6ae7e793dc183e036253e275c0b51da4e502896ec2bc63879f7b98ec7d69433968e5e591de1e38056455e473c6b31ba2e3048f68c4ba6581997d9eea7b6f453f6ee3e397d81c3a076657e671c4b119a0e1068d6ac6b867839b7f9ce8796d473d6ce1e195da1234096859e87fcabf17aeef088364c8b08d025134c826e7940b2a46435c91342b900e35e5cadf8fe5bff95f84e3f09ac60cda5ea782d0000225120b4e78545f3cc50fb320fdab2b5af65722d44a9f78bc4bc5d438f1c7163fba5cc02fd7509744a32f0f6895cefac4ab4f5ab081ac3def9737ac0c9b6693d79c4e84e5918fcedcda26e239dea845c896fcae9eccf43699091acb0ce93016aa69c363f7d636a77c90114e9be6b11c530d01c7fd82abcfc096d6898a1e118a1705b07d0830baa1b84c58910f5fd85c75278acfb64bac1e0a046f974ba33ff405f9b442ac7c8d94213d8ecb24edf534cfe6d952caed4ef8ee0b8e6b3113894df88ac5ea388f830ee2aa43c83bde80e59218bb71b27f511cca81874542d053a41df51a1c36df805e6af0c806c8109c3dbd2d988ab464193dfaba3bf07734eea531b6370b71228a0422a6740e879b5535b36a525d5fb717311feef6e21735324c6d5ac073dd6b3398e93d4cfe0d91878a884a97b9c2f252960837782bacd86b510c9d96f82ce04b6bd64ec21d346f955f1aaa5c313c41602f57cfa2be381d6240cf17ed0a0995ba67ef058325d35816bf05805ffc24821898edb04d47841f44643460de2d5b68cffaeddefe055924a372ccd515958669a2074e8991dedd1e1c5a49b92a0ecb2b06fb2f6df1f4e3dac02e75318eb9509e29054adaad522162d1ee5d37addc31ae72d26b6696866712c30e4d2da5a55e1698a68e09feb37e87dd4c20dc23af1c2b16e888bb05d5804a42b39ab4d1e7b96f1c27d14fc1d9082006cdbc80b4e34023a2cffc5cbbdf7064cf066d34edad31d0ce57ca887c74c95be57209a1c8a48d3aeea9b56856a0698407c64ee5105dc7f710fe0d02a7a78526e8c2008b81305148d633186d7d2b46d12d73582b4f2d176600f6cd180f74e18b1dffc75edc080161d869bde5931a84d52297ed2628dd58d3af884796846f153d5e44a18d06f2d0c6a4870adbf421474d68ca30153d831a95e0dd85cff4b979a36a8d56b9db9696338615ab28d7c2e3cdaa60d9d31602f62bd37493f10d6d984d8845e2ac53579dd3e4fdc1bf3c21fb5894f4d35c5d8040a5af3cdafd85dbf462c28cbfcdddef878fcf4a2c0869d71382247a597272689ce4b55b06335183e5eaf73001c97cdafbbae46091011c559a337445ed76c7fdfe18c1e4f944d2fdfc41cedea9667dda9785287a42f9fc529569db1421786bbf5795adf6ab69ae65ba860f1ddc77587a0e7392b6e7c41f7f198e7ea65382f6a817f653c2a3f0ca5751fee6140c5cb87165f050f581bd9fc6e07d64c242eccfe2806e7a4c5e6d28b128ba4c709f7a8ec9aa7faf5715ba0b1a1ea62a6d0cd4062adb43e0dcc8f73ede3202880b99fc42837ac63eb4c772bb15e3fb1fc3a059dc66130788d18e754c1213f2881362806e0dd35eb3a687b7704b686a44b3dcd289d966da5bc1944dc7912706b5b1e8fdde46cd527da23b19b5320809c6f977180a6bc72e8fc69fd69fe2dc2b853e0e5145a491d61679fb3ad9f4c823baffeb191d3c7cb53b8ccfc88ededc8dd41ed910888cac87cde84a93c0971e5ca6df3960fed67e7c8241c1e5a2d2837fc4bb97dde2e2578152172a6f81fcb52a366519afbbb82f9c389ebf028caca5bc4ea79daf6a3b69a661b2d3648a512eb6a7cdbb3f17bd338fb3d9e38fac75531280760d243b2aa452844f899b9a80a51f997786353381e768d6c053cf88d0944bf9de844257465ef1cc2266b93f04f5569f5eca229d8dbf294d438e04b236cb952fb6543351ce163480a1a5f8da78548fef944be8a0d03181b7b54c3a8b7202571b4fedb3d2e35dc9d1823c9c3747a5512e3dac614afbe0cd399e37b3fa9cd061dc23d153aefc43d002d30daa3b635670b4ae44b5575c2bea8b8ec062abd4f4673ada1a30fa1c080a1ff913c88b53bb8659d51f92913e815203c0526c5592c000b8f420d7c9af35641e1a1281ca81aabe9f6fd018dc5e51e5050ad8fc27738694d1489bb8aa25662525863029d3c1c0f763c04a2bf742befd194503d3718588b028549f951ee7fcfa12a77d3a99f8614af6dce0966fa374891cf754bf9e4cdf6ee349a4d0c875665a0618f8d0ec9d676df723cf834df14f1e3ca4dccc128d44b16ff3fa14c9196d978442fa53c17772027c476dfe5019627cea6b72a0c93aba89210c5841b1b27b7ad82baa605153a15a1f2b4907caa01401064594de7b7c598496db3f24ba4c4b8e1703fcdbc1fe4cb042a300b14ce107ebc8a5d6bc454176403c814e1655968141d3d9362d3e8872cb2e100bf72b4474a42b770c29b98c944e505b22ff1ed6c4b5badf98ef1699d2c686db862add96725ab97acb2ff47c65fb93fc0588193ea289acfdbaa7f998c65043f18d0ac7724e2be28a824facaf39ed335d397d615a0b3f3cd82609da481dbcf911656f2ffd96bbbe56cf035eee11d76056764a8e0b8a2ff99c6fa90f3bf164e73f3529cc79c3a8a636adc9c322c3830f004753c144e25a0c9d9c2e9d5ceac621428edabd03ea992b7e94d8242b3e500b71218720a59ca4e156cc2104c77f4b91c8a3dc0778e96596fcc592b8a4d19118a496afaeeb6e65b284a24b1210c3bc898f6baf97d3a6134517e6ea85fbdfc9a1b7a74eb91bc9c4e2789f9ac9f7a5421ffd6542472a85ae08f39d78ec00e23650cdef1a1b62b6a570c05a932f5737af61a932e282429f0e2bd3f38583f914b91d94ff77d8bff9b98ab6e82c4762f547a7c8b77bf34b42c10809eec3e893cd3e662a9fa04f6abd270bfb5b7cc9771fa3776d8396d9dd3efe2ed16ceba9d2956f9da2ad0b4a47e812ced73bac59209d473f103e69cb09987f98e87121986a063a0b0ad094962ce0d0db61b8e68ba435e56070b9d7727f34a2c8cbdc1f46f76c49a4cb9560d79b14147324fda46080a034f79890f2f5fdef4fc7cf0abd9ec069449a84446db294250001e50a39b3b94752bb9d7e4a03c1abaf91f004dc0fe52c6c182bd41be3bc61a9265c1a166799b0840b267ab017b4904b1df6ebd40ae129c4d18587a5eb4719dfce97308c03fceb9d1dce742a67eb4a09a11ba142c4de6e0b4c166a7373e088054509887ac2549afec5894716a8edb04125dd6f4f4bce6e12d743ca93b31cc05ffc2f95badc52bd47d40395a69838d9691ba17024b4844caf645a2510abcdb0792c0cc0c51f46f59a2274bf8794c6fcc42ddaed58a16ee5b99749b38e6bec06eb10aa5f8739547e84c20c4eaa558330001f5d3be5caa992dc088aa4ed83fecdb776a306c5917878cbebf1de60c59675cb780130f2793e2a6bd3277901e48069b9a29c257600a74294ccfd2d73037fc83829ccc8d74f61c4643577143d32d540db87ad1f470d55fcbab9fd75a15773941947f5d1bbfee2aff7265154913bca9565d2b0b0d11696b6f7a7b9091b0bad20712305f6a6b727a8198b0bcc5c6f31a343e48515b637eb0bbcae2eff32c334e5a69727c8d8f98a6c5dbe0e500000000000000000000000000000000000000000000000d1c2a3901fd210500b8bd10af70255f990834b9b976d454f9ba85a392d3b578955f8829a2c6d88bfd0ac7cd483e16a2207dda79d1164fd812dd5b378dd710b649fcc31d6613bd1cde7c488808971cffae1002b3d5d0ff4d76125ee0ccb47eb8b4a8300160ea498dea50bf22136413bae9cdfa7bbcd3c098a111d1aace8fd1eb07a237695805974db1aa6cc1275f5e314ab38515a484512f94d2e6743a59f01bd72cbd1f548057009c86dd9a70516eac510fcfe93b4f150cc1e61df7bfde1241ec051ba0b62050768fa775a9ef1a824c7414ff5a10ba03ebba922a940bafb2bf94efe41ae1a3a82f1b63006c2d75c42aa2500339e050c7f2ccb1954dd83bfc2bb0e2514e611265c5d7435ede2a4b4d4f918b7c5a73250ee2e80ba46a4a3293e89918618c4394c4ec0b52b724b028f5f808c708fc5d3386d99d1770ce3ace637dbdd0f5696706106caa3a289bd414a0af1176a3fd39bb97ef233073670c77a073e5c62eacb193bd2df5fa98777f3d95094b3375253978210140a43c403244678aee98e2ed4f48030b04df0daa101dc786ba3e0fbd3792c9446bbae0aabdeea67c912ba9f1c11bae06aeab4fa7926445d223522422e6c7017060c6ad71b160f037ae4fb32c88358b939ecc4baa278811865947591fd29cfd036fa4ef64df2ce386f8b2f6b849eefdb4eb378488e7615d84e81283ef152a07f925e59b90f2c53449d4d726a06ed6198b407cf85dcdec59e21f90c61a0367333e078407f9eaaa5236bc37ad6ef7fe08b4f5fce25eef794f8efeb753f65642c174412f2367a2cff254ca67b4774e06ccca1fb5442fb831eb9e40f5a32bd438620370db7245ece681813db43fb9139f3cbd90c0752feb014917dba8381a744d93bc49e6d1d6a527944b45b02ba36c77af177262d9a5da37d3d6ab0a23967a9c1bd284497f6e3a765e57054bb3c5585d7cf94630adadc1a64e2f593b6e12f40c17c7a27dbf9e614debc4154f810bd1c592f0402664056bbaf8ec3a36fa2e8561f211cd4ebb30e94f27881457d437129f93fb1a96aa04b413be7c74e338eed2a81fb91e1587aa010719ec72de5717c740d6c7abb2bd6c72e8511ccb5b25cf506ff20fe33abd0115b302fcda261cb204950d1fe08f3dc710bb1e2f89458b03a86d10fa5115dbc8828941ceebe375ffb6e337a0f7790163009a739dc0f991682ddd9a801874ac18d9a22ef6e64a5b84becd7e2cb915a813c04cf77d284f64930b1d4972503f030e83b9297889aceb448fe0633891f59941ca84757c9095fe4db95d7e6b0e44bcc2775b5e23cb5a6a4e73bf701e0ff9acf5856a3ff0c361f8575503862775444013b67dec533b382da514ee3787d5d264a848d0cecf2ad36fa83619bb611b2baf484b76c93cbc62f51b35eece47edd690bfd5f700269732bce42ec86fb44a267fdc376b603e377358c86036c8d5f001a28369434b0f06490526aeb37338745d27ca9b5b56509a11044e52a922bbc334a41b8a583cb022df4cd3c34a7b0a7b408611d0ad6668b722f3f74a957b097b451073acc66609af48f60a650d8bf7fea189fd55f0bcee97c8f9045a5e3ed05a2bdb9ffd23456fec17ac8f2d89a6f435799b5ed5123a0df4618d8446650f457ce24714beea9bb6003afb496bca37002ff686659622a9a9d8e532b34c5f114f4a3f7be215d0128a00e6bdc075ecfc2caa84e597c157e1e07a85736e7f02b94daa56c608ae6c5974227f3307ed54014f5f843a86e7c44a2b5b758121215fa816909113c61c562212e7b037ee63ca62fe4de0b315e5df7c16bb878057eca2e1407b07b8a4c73a83abeb77b630633feb1007a00e8382231d129f5b558986358173be80000000",
  "txid": "aebb6ea3f432ece46c666ef99f8b82d2f9d802168d92d17bbb7cc326a2556e5a",
  "hash": "14e3cde6a185af212d27d7626670e4f5c849c8324a018168ea5a7a7ccde1082e",
  "size": 5085,
  "vsize": 2278,
  "version": 1,
  "locktime": 128,
  "vin": [
    {
      "txid": "0fc9cca609b75966743d795a1b717a22f59a55837867a8f759021febb8c44984",
      "vout": 0,
      "scriptSig": {
        "asm": "",
        "hex": ""
      },
      "txinwitness": [
        "744a32f0f6895cefac4ab4f5ab081ac3def9737ac0c9b6693d79c4e84e5918fcedcda26e239dea845c896fcae9eccf43699091acb0ce93016aa69c363f7d636a77c90114e9be6b11c530d01c7fd82abcfc096d6898a1e118a1705b07d0830baa1b84c58910f5fd85c75278acfb64bac1e0a046f974ba33ff405f9b442ac7c8d94213d8ecb24edf534cfe6d952caed4ef8ee0b8e6b3113894df88ac5ea388f830ee2aa43c83bde80e59218bb71b27f511cca81874542d053a41df51a1c36df805e6af0c806c8109c3dbd2d988ab464193dfaba3bf07734eea531b6370b71228a0422a6740e879b5535b36a525d5fb717311feef6e21735324c6d5ac073dd6b3398e93d4cfe0d91878a884a97b9c2f252960837782bacd86b510c9d96f82ce04b6bd64ec21d346f955f1aaa5c313c41602f57cfa2be381d6240cf17ed0a0995ba67ef058325d35816bf05805ffc24821898edb04d47841f44643460de2d5b68cffaeddefe055924a372ccd515958669a2074e8991dedd1e1c5a49b92a0ecb2b06fb2f6df1f4e3dac02e75318eb9509e29054adaad522162d1ee5d37addc31ae72d26b6696866712c30e4d2da5a55e1698a68e09feb37e87dd4c20dc23af1c2b16e888bb05d5804a42b39ab4d1e7b96f1c27d14fc1d9082006cdbc80b4e34023a2cffc5cbbdf7064cf066d34edad31d0ce57ca887c74c95be57209a1c8a48d3aeea9b56856a0698407c64ee5105dc7f710fe0d02a7a78526e8c2008b81305148d633186d7d2b46d12d73582b4f2d176600f6cd180f74e18b1dffc75edc080161d869bde5931a84d52297ed2628dd58d3af884796846f153d5e44a18d06f2d0c6a4870adbf421474d68ca30153d831a95e0dd85cff4b979a36a8d56b9db9696338615ab28d7c2e3cdaa60d9d31602f62bd37493f10d6d984d8845e2ac53579dd3e4fdc1bf3c21fb5894f4d35c5d8040a5af3cdafd85dbf462c28cbfcdddef878fcf4a2c0869d71382247a597272689ce4b55b06335183e5eaf73001c97cdafbbae46091011c559a337445ed76c7fdfe18c1e4f944d2fdfc41cedea9667dda9785287a42f9fc529569db1421786bbf5795adf6ab69ae65ba860f1ddc77587a0e7392b6e7c41f7f198e7ea65382f6a817f653c2a3f0ca5751fee6140c5cb87165f050f581bd9fc6e07d64c242eccfe2806e7a4c5e6d28b128ba4c709f7a8ec9aa7faf5715ba0b1a1ea62a6d0cd4062adb43e0dcc8f73ede3202880b99fc42837ac63eb4c772bb15e3fb1fc3a059dc66130788d18e754c1213f2881362806e0dd35eb3a687b7704b686a44b3dcd289d966da5bc1944dc7912706b5b1e8fdde46cd527da23b19b5320809c6f977180a6bc72e8fc69fd69fe2dc2b853e0e5145a491d61679fb3ad9f4c823baffeb191d3c7cb53b8ccfc88ededc8dd41ed910888cac87cde84a93c0971e5ca6df3960fed67e7c8241c1e5a2d2837fc4bb97dde2e2578152172a6f81fcb52a366519afbbb82f9c389ebf028caca5bc4ea79daf6a3b69a661b2d3648a512eb6a7cdbb3f17bd338fb3d9e38fac75531280760d243b2aa452844f899b9a80a51f997786353381e768d6c053cf88d0944bf9de844257465ef1cc2266b93f04f5569f5eca229d8dbf294d438e04b236cb952fb6543351ce163480a1a5f8da78548fef944be8a0d03181b7b54c3a8b7202571b4fedb3d2e35dc9d1823c9c3747a5512e3dac614afbe0cd399e37b3fa9cd061dc23d153aefc43d002d30daa3b635670b4ae44b5575c2bea8b8ec062abd4f4673ada1a30fa1c080a1ff913c88b53bb8659d51f92913e815203c0526c5592c000b8f420d7c9af35641e1a1281ca81aabe9f6fd018dc5e51e5050ad8fc27738694d1489bb8aa25662525863029d3c1c0f763c04a2bf742befd194503d3718588b028549f951ee7fcfa12a77d3a99f8614af6dce0966fa374891cf754bf9e4cdf6ee349a4d0c875665a0618f8d0ec9d676df723cf834df14f1e3ca4dccc128d44b16ff3fa14c9196d978442fa53c17772027c476dfe5019627cea6b72a0c93aba89210c5841b1b27b7ad82baa605153a15a1f2b4907caa01401064594de7b7c598496db3f24ba4c4b8e1703fcdbc1fe4cb042a300b14ce107ebc8a5d6bc454176403c814e1655968141d3d9362d3e8872cb2e100bf72b4474a42b770c29b98c944e505b22ff1ed6c4b5badf98ef1699d2c686db862add96725ab97acb2ff47c65fb93fc0588193ea289acfdbaa7f998c65043f18d0ac7724e2be28a824facaf39ed335d397d615a0b3f3cd82609da481dbcf911656f2ffd96bbbe56cf035eee11d76056764a8e0b8a2ff99c6fa90f3bf164e73f3529cc79c3a8a636adc9c322c3830f004753c144e25a0c9d9c2e9d5ceac621428edabd03ea992b7e94d8242b3e500b71218720a59ca4e156cc2104c77f4b91c8a3dc0778e96596fcc592b8a4d19118a496afaeeb6e65b284a24b1210c3bc898f6baf97d3a6134517e6ea85fbdfc9a1b7a74eb91bc9c4e2789f9ac9f7a5421ffd6542472a85ae08f39d78ec00e23650cdef1a1b62b6a570c05a932f5737af61a932e282429f0e2bd3f38583f914b91d94ff77d8bff9b98ab6e82c4762f547a7c8b77bf34b42c10809eec3e893cd3e662a9fa04f6abd270bfb5b7cc9771fa3776d8396d9dd3efe2ed16ceba9d2956f9da2ad0b4a47e812ced73bac59209d473f103e69cb09987f98e87121986a063a0b0ad094962ce0d0db61b8e68ba435e56070b9d7727f34a2c8cbdc1f46f76c49a4cb9560d79b14147324fda46080a034f79890f2f5fdef4fc7cf0abd9ec069449a84446db294250001e50a39b3b94752bb9d7e4a03c1abaf91f004dc0fe52c6c182bd41be3bc61a9265c1a166799b0840b267ab017b4904b1df6ebd40ae129c4d18587a5eb4719dfce97308c03fceb9d1dce742a67eb4a09a11ba142c4de6e0b4c166a7373e088054509887ac2549afec5894716a8edb04125dd6f4f4bce6e12d743ca93b31cc05ffc2f95badc52bd47d40395a69838d9691ba17024b4844caf645a2510abcdb0792c0cc0c51f46f59a2274bf8794c6fcc42ddaed58a16ee5b99749b38e6bec06eb10aa5f8739547e84c20c4eaa558330001f5d3be5caa992dc088aa4ed83fecdb776a306c5917878cbebf1de60c59675cb780130f2793e2a6bd3277901e48069b9a29c257600a74294ccfd2d73037fc83829ccc8d74f61c4643577143d32d540db87ad1f470d55fcbab9fd75a15773941947f5d1bbfee2aff7265154913bca9565d2b0b0d11696b6f7a7b9091b0bad20712305f6a6b727a8198b0bcc5c6f31a343e48515b637eb0bbcae2eff32c334e5a69727c8d8f98a6c5dbe0e500000000000000000000000000000000000000000000000d1c2a3901",
        "00b8bd10af70255f990834b9b976d454f9ba85a392d3b578955f8829a2c6d88bfd0ac7cd483e16a2207dda79d1164fd812dd5b378dd710b649fcc31d6613bd1cde7c488808971cffae1002b3d5d0ff4d76125ee0ccb47eb8b4a8300160ea498dea50bf22136413bae9cdfa7bbcd3c098a111d1aace8fd1eb07a237695805974db1aa6cc1275f5e314ab38515a484512f94d2e6743a59f01bd72cbd1f548057009c86dd9a70516eac510fcfe93b4f150cc1e61df7bfde1241ec051ba0b62050768fa775a9ef1a824c7414ff5a10ba03ebba922a940bafb2bf94efe41ae1a3a82f1b63006c2d75c42aa2500339e050c7f2ccb1954dd83bfc2bb0e2514e611265c5d7435ede2a4b4d4f918b7c5a73250ee2e80ba46a4a3293e89918618c4394c4ec0b52b724b028f5f808c708fc5d3386d99d1770ce3ace637dbdd0f5696706106caa3a289bd414a0af1176a3fd39bb97ef233073670c77a073e5c62eacb193bd2df5fa98777f3d95094b3375253978210140a43c403244678aee98e2ed4f48030b04df0daa101dc786ba3e0fbd3792c9446bbae0aabdeea67c912ba9f1c11bae06aeab4fa7926445d223522422e6c7017060c6ad71b160f037ae4fb32c88358b939ecc4baa278811865947591fd29cfd036fa4ef64df2ce386f8b2f6b849eefdb4eb378488e7615d84e81283ef152a07f925e59b90f2c53449d4d726a06ed6198b407cf85dcdec59e21f90c61a0367333e078407f9eaaa5236bc37ad6ef7fe08b4f5fce25eef794f8efeb753f65642c174412f2367a2cff254ca67b4774e06ccca1fb5442fb831eb9e40f5a32bd438620370db7245ece681813db43fb9139f3cbd90c0752feb014917dba8381a744d93bc49e6d1d6a527944b45b02ba36c77af177262d9a5da37d3d6ab0a23967a9c1bd284497f6e3a765e57054bb3c5585d7cf94630adadc1a64e2f593b6e12f40c17c7a27dbf9e614debc4154f810bd1c592f0402664056bbaf8ec3a36fa2e8561f211cd4ebb30e94f27881457d437129f93fb1a96aa04b413be7c74e338eed2a81fb91e1587aa010719ec72de5717c740d6c7abb2bd6c72e8511ccb5b25cf506ff20fe33abd0115b302fcda261cb204950d1fe08f3dc710bb1e2f89458b03a86d10fa5115dbc8828941ceebe375ffb6e337a0f7790163009a739dc0f991682ddd9a801874ac18d9a22ef6e64a5b84becd7e2cb915a813c04cf77d284f64930b1d4972503f030e83b9297889aceb448fe0633891f59941ca84757c9095fe4db95d7e6b0e44bcc2775b5e23cb5a6a4e73bf701e0ff9acf5856a3ff0c361f8575503862775444013b67dec533b382da514ee3787d5d264a848d0cecf2ad36fa83619bb611b2baf484b76c93cbc62f51b35eece47edd690bfd5f700269732bce42ec86fb44a267fdc376b603e377358c86036c8d5f001a28369434b0f06490526aeb37338745d27ca9b5b56509a11044e52a922bbc334a41b8a583cb022df4cd3c34a7b0a7b408611d0ad6668b722f3f74a957b097b451073acc66609af48f60a650d8bf7fea189fd55f0bcee97c8f9045a5e3ed05a2bdb9ffd23456fec17ac8f2d89a6f435799b5ed5123a0df4618d8446650f457ce24714beea9bb6003afb496bca37002ff686659622a9a9d8e532b34c5f114f4a3f7be215d0128a00e6bdc075ecfc2caa84e597c157e1e07a85736e7f02b94daa56c608ae6c5974227f3307ed54014f5f843a86e7c44a2b5b758121215fa816909113c61c562212e7b037ee63ca62fe4de0b315e5df7c16bb878057eca2e1407b07b8a4c73a83abeb77b630633feb1007a00e8382231d129f5b558986358173be"
      ],
      "sequence": 4294967294
    }
  ],
  "vout": [
    {
      "value": 1.0,
      "n": 0,
      "scriptPubKey": {
        "asm": "OP_RETURN 5117f644c0a70a95075c665a6232f3dc99a08b9d132757d5ab2b41a621d44314 a3c016051e077c2b71fa6e7008b6cc0be61859d799aee7f6b413b6ae7e793dc183e036253e275c0b51da4e502896ec2bc63879f7b98ec7d69433968e5e591de1e38056455e473c6b31ba2e3048f68c4ba6581997d9eea7b6f453f6ee3e397d81c3a076657e671c4b119a0e1068d6ac6b867839b7f9ce8796d473d6ce1e195da1234096859e87fcabf17aeef088364c8b6698d957192e67763493362efef9bd410360b6a5bea7dc8bd15aced0a8166cab46b8f977390e475614b3160eded99d616300d6c5dec7bcebb13aaeb0c8760ccb26d89917596e273674d3766ebeb9fd014320f6e5fee79ccb911a8e90e8562ceb06f8b937794e071654f3564e9e99dd21a3c016051e077c2b71fa6e7008b6cc0be61859d799aee7f6b413b6ae7e793dc183e036253e275c0b51da4e502896ec2bc63879f7b98ec7d69433968e5e591de1e38056455e473c6b31ba2e3048f68c4ba6581997d9eea7b6f453f6ee3e397d81c3a076657e671c4b119a0e1068d6ac6b867839b7f9ce8796d473d6ce1e195da1234096859e87fcabf17aeef088364c8b6698d957192e67763493362efef9bd410360b6a5bea7dc8bd15aced0a8166cab46b8f977390e475614b3160eded99d616300d6c5dec7bcebb13aaeb0c8760ccb26d89917596e273674d3766ebeb9fd014320f6e5fee79ccb911a8e90e8562ceb06f8b937794e071654f3564e9e99dd21a3c016051e077c2b71fa6e7008b6cc0be61859d799aee7f6b413b6ae7e793dc183e036253e275c0b51da4e502896ec2bc63879f7b98ec7d69433968e5e591de1e38056455e473c6b31ba2e3048f68c4ba6581997d9eea7b6f453f6ee3e397d81c3a076657e671c4b119a0e1068d6ac6b867839b7f9ce8796d473d6ce1e195da1234096859e87fcabf17aeef088364c8b6698d957192e67763493362efef9bd410360b6a5bea7dc8bd15aced0a8166cab46b8f977390e475614b3160eded99d616300d6c5dec7bcebb13aaeb0c8760ccb26d89917596e273674d3766ebeb9fd014320f6e5fee79ccb911a8e90e8562ceb06f8b937794e071654f3564e9e99dd21a3c016051e077c2b71fa6e7008b6cc0be61859d799aee7f6b413b6ae7e793dc183e036253e275c0b51da4e502896ec2bc63879f7b98ec7d69433968e5e591de1e38056455e473c6b31ba2e3048f68c4ba6581997d9eea7b6f453f6ee3e397d81c3a076657e671c4b119a0e1068d6ac6b867839b7f9ce8796d473d6ce1e195da1234096859e87fcabf17aeef088364c8b6698d957192e67763493362efef9bd410360b6a5bea7dc8bd15aced0a8166cab46b8f977390e475614b3160eded99d616300d6c5dec7bcebb13aaeb0c8760ccb26d89917596e273674d3766ebeb9fd014320f6e5fee79ccb911a8e90e8562ceb06f8b937794e071654f3564e9e99dd21a3c016051e077c2b71fa6e7008b6cc0be61859d799aee7f6b413b6ae7e793dc183e036253e275c0b51da4e502896ec2bc63879f7b98ec7d69433968e5e591de1e38056455e473c6b31ba2e3048f68c4ba6581997d9eea7b6f453f6ee3e397d81c3a076657e671c4b119a0e1068d6ac6b867839b7f9ce8796d473d6ce1e195da1234096859e87fcabf17aeef088364c8b08d025134c826e7940b2a46435c91342b900e35e5cadf8fe5bff95f84e3f09ac",
        "hex": "6a205117f644c0a70a95075c665a6232f3dc99a08b9d132757d5ab2b41a621d443144db004a3c016051e077c2b71fa6e7008b6cc0be61859d799aee7f6b413b6ae7e793dc183e036253e275c0b51da4e502896ec2bc63879f7b98ec7d69433968e5e591de1e38056455e473c6b31ba2e3048f68c4ba6581997d9eea7b6f453f6ee3e397d81c3a076657e671c4b119a0e1068d6ac6b867839b7f9ce8796d473d6ce1e195da1234096859e87fcabf17aeef088364c8b6698d957192e67763493362efef9bd410360b6a5bea7dc8bd15aced0a8166cab46b8f977390e475614b3160eded99d616300d6c5dec7bcebb13aaeb0c8760ccb26d89917596e273674d3766ebeb9fd014320f6e5fee79ccb911a8e90e8562ceb06f8b937794e071654f3564e9e99dd21a3c016051e077c2b71fa6e7008b6cc0be61859d799aee7f6b413b6ae7e793dc183e036253e275c0b51da4e502896ec2bc63879f7b98ec7d69433968e5e591de1e38056455e473c6b31ba2e3048f68c4ba6581997d9eea7b6f453f6ee3e397d81c3a076657e671c4b119a0e1068d6ac6b867839b7f9ce8796d473d6ce1e195da1234096859e87fcabf17aeef088364c8b6698d957192e67763493362efef9bd410360b6a5bea7dc8bd15aced0a8166cab46b8f977390e475614b3160eded99d616300d6c5dec7bcebb13aaeb0c8760ccb26d89917596e273674d3766ebeb9fd014320f6e5fee79ccb911a8e90e8562ceb06f8b937794e071654f3564e9e99dd21a3c016051e077c2b71fa6e7008b6cc0be61859d799aee7f6b413b6ae7e793dc183e036253e275c0b51da4e502896ec2bc63879f7b98ec7d69433968e5e591de1e38056455e473c6b31ba2e3048f68c4ba6581997d9eea7b6f453f6ee3e397d81c3a076657e671c4b119a0e1068d6ac6b867839b7f9ce8796d473d6ce1e195da1234096859e87fcabf17aeef088364c8b6698d957192e67763493362efef9bd410360b6a5bea7dc8bd15aced0a8166cab46b8f977390e475614b3160eded99d616300d6c5dec7bcebb13aaeb0c8760ccb26d89917596e273674d3766ebeb9fd014320f6e5fee79ccb911a8e90e8562ceb06f8b937794e071654f3564e9e99dd21a3c016051e077c2b71fa6e7008b6cc0be61859d799aee7f6b413b6ae7e793dc183e036253e275c0b51da4e502896ec2bc63879f7b98ec7d69433968e5e591de1e38056455e473c6b31ba2e3048f68c4ba6581997d9eea7b6f453f6ee3e397d81c3a076657e671c4b119a0e1068d6ac6b867839b7f9ce8796d473d6ce1e195da1234096859e87fcabf17aeef088364c8b6698d957192e67763493362efef9bd410360b6a5bea7dc8bd15aced0a8166cab46b8f977390e475614b3160eded99d616300d6c5dec7bcebb13aaeb0c8760ccb26d89917596e273674d3766ebeb9fd014320f6e5fee79ccb911a8e90e8562ceb06f8b937794e071654f3564e9e99dd21a3c016051e077c2b71fa6e7008b6cc0be61859d799aee7f6b413b6ae7e793dc183e036253e275c0b51da4e502896ec2bc63879f7b98ec7d69433968e5e591de1e38056455e473c6b31ba2e3048f68c4ba6581997d9eea7b6f453f6ee3e397d81c3a076657e671c4b119a0e1068d6ac6b867839b7f9ce8796d473d6ce1e195da1234096859e87fcabf17aeef088364c8b08d025134c826e7940b2a46435c91342b900e35e5cadf8fe5bff95f84e3f09ac",
        "type": "nulldata"
      }
    },
    {
      "value": 499973.5606,
      "n": 1,
      "scriptPubKey": {
        "asm": "1 b4e78545f3cc50fb320fdab2b5af65722d44a9f78bc4bc5d438f1c7163fba5cc",
        "hex": "5120b4e78545f3cc50fb320fdab2b5af65722d44a9f78bc4bc5d438f1c7163fba5cc",
        "reqSigs": 1,
        "type": "witness_v1_scripthash",
        "addresses": [
          "3QJmnh"
        ]
      }
    }
  ],
  "blockhash": "f0ff1fbaae405cadeb51abb379c93a956cf666ff613992ee95c2f945c1780bd2",
  "confirmations": 1,
  "time": 1764181685,
  "blocktime": 1764181685
}