{
  "hex": "010000000001014b5f3e1ce172df0a87125b9fc5dfd3bd2e76e702a71d56ae32708b85f3d1e9b00000000000feffffff0200e1f50500000000fdd5046a200fca22bd98d378e3a24d090ad06e2268d815be62fa73d4361f26789146f9b4154db0049985691464303368eac60de47fd443f4a753839b71d348a8253975db58e13959b9a5493444101348cae62dc45ff463d48773a3bb51f36888051955fb78c11979d9c5295424707328aa864da43f9403b4e713c3db319308e86579359b18a17919f9e50974045053088aa66d841fb42394c733e3fb11b328c8455915bb388159391905e994e4b0b3e86a468d64ff54c37427d3031bf153c828a5b9f55bd861b9d93925c9b4c49093c84a66ad44df74e35407f3233bd173e8088599d57bf84199f95945a9d4a4f0f3a82a06cd24bf1483346793435bb1138868e5f9b51b9821f999796589f484d0d3880a26ed049f34a31447b3637b9133a848c5d9953bb801d9b99985691464303368eac60de47fd443f4a753839b71d348a8253975db58e13959b9a5493444101348cae62dc45ff463d48773a3bb51f36888051955fb78c11979d9c5295424707328aa864da43f9403b4e713c3db319308e86579359b18a17919f9e50974045053088aa66d841fb42394c733e3fb11b328c8455915bb388159391905e994e4b0b3e86a468d64ff54c37427d3031bf153c828a5b9f55bd861b9d93925c9b4c49093c84a66ad44df74e35407f3233bd173e8088599d57bf84199f95945a9d4a4f0f3a82a06cd24bf1483346793435bb1138868e5f9b51b9821f999796589f484d0d3880a26ed049f34a31447b3637b9133a848c5d9953bb801d9b99985691464303368eac60de47fd443f4a753839b71d348a8253975db58e13959b9a5493444101348cae62dc45ff463d48773a3bb51f36888051955fb78c11979d9c5295424707328aa864da43f9403b4e713c3db319308e86579359b18a17919f9e50974045053088aa66d841fb42394c733e3fb11b328c8455915bb388159391905e994e4b0b3e86a468d64ff54c37427d3031bf153c828a5b9f55bd861b9d93925c9b4c49093c84a66ad44df74e35407f3233bd173e8088599d57bf84199f95945a9d4a4f0f3a82a06cd24bf1483346793435bb1138868e5f9b51b9821f999796589f484d0d3880a26ed049f34a31447b3637b9133a848c5d9953bb801d9b99985691464303368eac60de47fd443f4a753839b71d348a8253975db58e13959b9a5493444101348cae62dc45ff463d48773a3bb51f36888051955fb78c11979d9c5295424707328aa864da43f9403b4e713c3db319308e86579359b18a17919f9e50974045053088aa66d841fb42394c733e3fb11b328c8455915bb388159391905e994e4b0b3e86a468d64ff54c37427d3031bf153c828a5b9f55bd861b9d93925c9b4c49093c84a66ad44df74e35407f3233bd173e8088599d57bf84199f95945a9d4a4f0f3a82a06cd24bf1483346793435bb1138868e5f9b51b9821f999796589f484d0d3880a26ed049f34a31447b3637b9133a848c5d9953bb801d9b99985691464303368eac60de47fd443f4a753839b71d348a8253975db58e13959b9a5493444101348cae62dc45ff463d48773a3bb51f36888051955fb78c11979d9c5295424707328aa864da43f9403b4e713c3db319308e86579359b18a17919f9e50974045053088aa66d841fb42394c733e3fb11b328c8455915bb388159391905e994e4b0b3e86a468d64ff54c3742e7f1e562f91f77c41032f0d4a1e457540e8991fd4291ed597d72134029b40d0f020b051792d00002251201c3069a584de9578cfdab403aba2e480ddf5786dc42d941bdfe4e588feff818a02fd75093a27664023fe29c82654e0f59562ba420a1f934fdec9a23477d4b2723919d40a4bfcd55ac3ef52c88360618abe61abb47235264ef5cf53180266a0a4e8cd85cb448d885e7c56bd41ba5193524607755059b20ea4c5fc38dc00ce0ec1b6d61dff833d3100525240382ab50bdd24bf0a9868b83b86aa46fc1c2157c6a76b63647bc57f1025ef863a85877c4a8ad954a4d2b839126f9e7529638d752da8692c81467f29a2673d542ecbb70cd932d38d1bfd1e8d607868bbcd08cd68a835a5d1ac7e7463067cd78a7e017fa0f042e341efd5d1a6a9ce68c96999258b26893f9e37d47fe7cb9d4bad3373fa16558a1a8263badcd343912e567860857bebd24e1e9f1e9f089a7dfdcf2aec65683570c6a04dcc38adb01703001822d9ae47afd25825799e844b3a80bb00c602396736bc968b98ed3736df26c34ec9bfd88eb6dd1551ec5034e4bfba1ac5dce4164d1e3a2103059d425306efcb3507505260f776cad4b265a7379ba7ab4d70ef70d9b06b3bc90530d3af60e7d37d9e7e5932b34cf1dc1c48a5f401ae48d70257fbfb82c3a0f41d83f8b025d9cd6016322b788ac7e33f2768c8b1da99429e229e406ca3ea39b854960ae785cd21b972d20c14b71fc221e244b5f4cae098098d3070224971e6dba10f295a4a1e46925dc6d2981079cd8ebb2e98bc27d821c2b761302dc6be966ec15a5381fe281221bcca29e472f499dca9754cecdb1f4ce2017c5356cb1eb40ca3d65d15ed35302ad67a13ae4c89ec8162624c106082da9e5e2f3af6b5caa3036e2862fe74d04213a17c5c195f27d94d3ae536210d2684cefebcebe82c36ac31c8bd0aef978bc748fff8728665321f38cec5cee3b7f123c1560d6d9a057cfee3bc752cf2da613caeebfe596246b37cbe508ab14480194a760556fb9cfe2427a376b01581f4e80e0723c62406f38848b5c4f5a5a5879bf52d59324d52fd6c609583120494242b656025d4cbcee83e433162d586dca8fd046bade71f5be278717c527430f6a9cdcf23067611263029ccd2d4fa82ae6ec4e17813e19762fe156607a8323ed7f837e3a9b1131c71b3049083cc6c58cf7d7b17e864ad368d13ce461454017365332adcaab910bd7e045090ae9957b3ee16a4ece049449a848afbf677d999110c4df43189318fd48eaa62882784eeb7372e3b2798bbba575f919d88f2f20a769356fcd5b35a9891740f17923308a560bbe61d7c904a1f21998c1aefce276dde2409403baad234c559e2528b6393ae9607c6010a86f4d222b28576203c1f30c5c18bdf977d58e6666abad8d2659cbd8ad856a72a56c5379822ad086b3c4ba1fc0d66d4c760924dcb5fd7ac7e8e7b05c26a2af782174c6b6c559327f71dddd96d575ac4068b97d2d8b887a31386668140358c0d3ac442a2953f06ec5edfe83b85d963ce7d9885d1da0a01b49b6349dc76a4a24bcef4113321f610451a83432d05d46c7dc0101f89f40ba715757e4e8c35fc91a69e02efd9ae060d38356f5202027a4ebcd8285db06241e2fab85894fd212f83ebd4b83c1a83560bc58d4715710b3e91f4df45cebb1ad15d6d820455a85e4aa0693e62f5e5994d73b1479960f9b6a9d97e680a0bf38f6c097b0dde02ad3bad738fc0a1f1f07863445a3240a8641eee2cda1b51327305472fd55ade8cabe1d64f6ae03cf79434ede0aeff3896a8746bdde555482426c5cbaa02a6208c5d49e24d4b2fb13fd22e7eb396fb72a9e9383b24fc7b71dfcda3a50d9b233e40100cb56d2e28fd79276ba7cff5763b2aeba11628ee490ec9b9b873764e4fa68dfabe1f8683e37f9bc7ded2e51efde40ef91b8bab2ecc40b78589509a25d1709bccc486eaf0b7c792c99c0cfbe95a91b77dd42090f73e875cc62543f91c9883ce279fbb877cba05dd6021abc911c45ca3ebb0cea7544b5a434abc6c87dd60617645c7c6aca1c3c2f6bf5e722bfac25c8a7b1dd2eea8e0bf9e3d2de3eb02bf9d54c4f7fa1ecbeebe7265962344d566310e4de41b1bab42402214c3cca3946c65e3620a4c34c6d59ec5feab26b4f7bc6da90fa5228c380d1cfb731a60b65505dc3fe3080fac44fd289377297c48281e8cda6456cc7621ff875a9bd3aa11599c7c753a0ea97175c8bf0986f22962a44def19a987fd9a46cbfb824028d832f45a0d9d50df899a1afc6d5c2e42bd80dd0a046283d3a88e1112a977851860b8ce312596091c7cb8bb45824b3102d418f9a1acf691a9abf7fc1f735befcc4d83a9ef69f64694e76027bf898c702b26e1a7206298735ab97c76d621131693d5af7276ecf29151ceda3bb289a737ae5231be03ca83c59500530743c99b8263d89130949178cafdc32ddc6cf9b837c24479e7f70c612888bbd757377759fe34cf28f101573861c10da6cf31db330654dfdf0487374fd754521239bb1a5b19290c67ac014f2db078bbf6f6c55d2ac501d7e6d97f8e4ac0bddb036410a9a232b94ab6a70e5d8d351a1452a209f9ca6ad153d5ebcbce07ede5dc610db8cd85e65c1b91ee681e3b2cfc5b21cb5e2eea88d23e09ccf9d8afc89c85ca7d1dc3edf92394eb578fb64504d11d5604a6b5e763048c7596684e78599e5f60f1aa2b2c5d83df99e395498bfc5153549a07d41960c47aedddad53aa31474e9a0669f98ef01f2c9aedba77c66270a1ee81d579cde37ec47d2ab703914e6cbd626cfe1ca24519109cbf77a762d20d21c8ccc929538ef5118ad697d8649a725d4e483b14941090fc28508b879183627b88726912a63622329fe1b80a90006825f293eb5e6a63ef7a3bda0841fccc7601851aecdb3b573df43d88e3d00a28670905a7ab39981fc0c770364c306ea4c4f27354bcf21a4a2d40090a3233d4b42567df785d3bef60ad5207f579335e1bd7c0bfbc833099d68048e93f1d8de06ae6fab18df127c3211a3488cc7e6f4b1fc43b4a5cc11ce3703ffbe3bd46b7b8b37f84b1e8a4e18060ee64d6c7c4a5bcdb69e20188145fc95a227d8c8732a38199d1e5363862d1c423aeeac11ea4b3fd5edca08001c54a6cf7a50cfb4046fc80482caa07275f8bfc5b506e53ab415d665355aaebbd8115c4e545063d7c02f696e65ee9b1154d80b8086a222da4f0b1e0aa8147aa2919de8ac3dd7930a7959e4623942dcb839b4b0bf4b79f5ada99c68827c08c9872d410f01c3ae8e494230d976ae9abc966ccf9451e19dfd75a1d8b5cecf5fcd6f221c5ee67b8a55c02b4b5258739611777d9b35d8bccf6c4e112720c79c5776a2ba81b4ca4d65157fd1f7decb6d31b5371a8e3f34a4ce83057bc214d11191d22282c2f454c68737d878b99a600081f387488999ca1c2c6e6f4f5f9222856595e646f73a8dfe3e4e5e7f0f6080a141e23314649797e87a5bdcdd0db0000000000000000000000000000000000101f2f3f01fd2105003179c5e568f968c7f4d4f77b64a5339929fadc3f6a0a47aabb364cb6c389e8d588d18219b19c6427f4bace191da32370bb6cbc10092502140a19dcacf558f92f03767867583e4c156a72ee5b1c1fc5437aceb8aa59c9247db06d7967f130b57234785dfd8990f9305a795cea8c2db629dc0ce6ca027f2dc41a931a7fd82971ed4151e662bfb20857ae3b23f6fa53e27a52c12984fef7269dc94a54650141c1929cad3d3698ffd1cbac5cfa9af3648a019f18d20cca3262be35e71091a9e72512d628657990136935b40cb3edb0ebc357bb11042383cd9b1222fdafc6177f2b6e8408b765f2832b545ba44eca419e647a911c44185068aea1f7ce60783cfe2d4440aedbfd63f0ead13d20148bc9115dbf8116302bf5c93499c42368390be003b49af2331d2105c7c3c57bbbfefd18d857fe1c4b8293ab2d8bac639c1e090ccf6ba9610650b2d0c8cea6fdf2b9741df490883f747782136c8f445f8c97518b61f3ef22929fddfc179584e8f56da2892a237fa378fa7bde89b69b12d9e78a580b6a6bfdaec1db26bbe19154992c9d467600c0809f6c1681bd2dc15935ede9763dffaa3b41ce1c3cb45d8c9e7bda82479a3fb1513da2c71b2caf47d961f4ac6c88f8d1940765fe21f80530d996438032fdbc78e03dd5e8deb46f39619ddd4ed884501b1cca4f01de2d502459b4be67acc002404983d4296deb10fd5cd3599e20646025976b30e90aa98635a36951a99ecddadcee37f707784d90cdacdbd520100821df6d0ad4f9ce4a3f8ec92faf05707057a7cdfc3c139d300723bebc363bf3cee2d32573c3159cb93acb8f1a29188af6cdd23374c7447026078f8e0b0fbea2b00e39947348d92f97b8d4f348486536e16e40269a239b3e04d43f8843c81ce9cdcd57043007cca30db63bb874af77419f77a834c52973a9b0b5b6656eb281676f8b3492c80dec7479f02216bedef4d571434a7005686b5393971f0f562d5ba3e75294156b587362342b111fe7934caba64760d58dc412278b78a2ab4c37cff81cee20a34cdd9bb920822665b513390cae3bcdcf3335490ed13b063bfd4cad3fa0a0ae5afeb1f4cf6a58f3b4dc85520c2bacb4181a1c60b56e64e99587f1d21c916ed05f37fd3ed57fa312cbd7ab87e6d1504bbbb6d0c7c38f3d2c451192d2ba614550c2e167076246f6661dfe58f40e2c4ee5ae5db99328edfb662a5717e7b2aa717055019f87b65e8ab670d8f13fe972a8e8900e11a44a22bd6b070f68436c7c3674f5dca6d6a0dc038c8522db58537dfe685112bb9d549c689ee7c1c0c50e0dd5ce0895d94a20cca046da75465ef50fde6082792baa4e6dceb3be3c09ad4a056e826b854127f710293a7f016ba5ba4391e39193103169203e01b1ee691c13e81c62d6d186ba3e1072c2eda1125450566c8ea4ec9da460b6a902ccf6743a25d2c8a046564b55cd0472466c61b46787a26aef481f449ecbf4c51e6dde3c3a9b31f9fa2f677d31d3339563fdb11d097c1ecb18db88f3a74837ab7c318fdbb4c5e98c21054cd46f5570989a76ada3199f60d58d454c693c717dda80c01eea44f1e274bae0b0cac5ff3039d55662f6b2db3b615c54b27c988ff2e4091e1e2385cba92e1164015ecd3760577c8e478aff1774576c845fa55ee25e080d25d16deef3aef3a4de9eb48d05e85fa7ef020f96e66ca83867e57329d20d942a49beb33137cf3dfaf8588cd47c57cc3c6e6b80826a4e448d71d0e0570016fc7be8ac802dc182e3d4662a412b3e06379ab44088f96b952708c013641e638ca7f6d4541deaf4aeead9b0dffc9b5b9db250d61fe2809a7c7c52b840aca0951855d4d02d97d6a6a13f6e000000",
  "txid": "a9498493e26087ff1fb8695b769197a0f3930f3ffbb7d069c87d85999c8e61cf",
  "hash": "dfafaa6d5d84085363b8e059133cdac9585ed92cfc5be827d9c413e269754042",
  "size": 5085,
  "vsize": 2278,
  "version": 1,
  "locktime": 110,
  "vin": [
    {
      "txid": "b0e9d1f3858b7032ae561da702e7762ebdd3dfc59f5b12870adf72e11c3e5f4b",
      "vout": 0,
      "scriptSig": {
        "asm": "",
        "hex": ""
      },
      "txinwitness": [
        "3a27664023fe29c82654e0f59562ba420a1f934fdec9a23477d4b2723919d40a4bfcd55ac3ef52c88360618abe61abb47235264ef5cf53180266a0a4e8cd85cb448d885e7c56bd41ba5193524607755059b20ea4c5fc38dc00ce0ec1b6d61dff833d3100525240382ab50bdd24bf0a9868b83b86aa46fc1c2157c6a76b63647bc57f1025ef863a85877c4a8ad954a4d2b839126f9e7529638d752da8692c81467f29a2673d542ecbb70cd932d38d1bfd1e8d607868bbcd08cd68a835a5d1ac7e7463067cd78a7e017fa0f042e341efd5d1a6a9ce68c96999258b26893f9e37d47fe7cb9d4bad3373fa16558a1a8263badcd343912e567860857bebd24e1e9f1e9f089a7dfdcf2aec65683570c6a04dcc38adb01703001822d9ae47afd25825799e844b3a80bb00c602396736bc968b98ed3736df26c34ec9bfd88eb6dd1551ec5034e4bfba1ac5dce4164d1e3a2103059d425306efcb3507505260f776cad4b265a7379ba7ab4d70ef70d9b06b3bc90530d3af60e7d37d9e7e5932b34cf1dc1c48a5f401ae48d70257fbfb82c3a0f41d83f8b025d9cd6016322b788ac7e33f2768c8b1da99429e229e406ca3ea39b854960ae785cd21b972d20c14b71fc221e244b5f4cae098098d3070224971e6dba10f295a4a1e46925dc6d2981079cd8ebb2e98bc27d821c2b761302dc6be966ec15a5381fe281221bcca29e472f499dca9754cecdb1f4ce2017c5356cb1eb40ca3d65d15ed35302ad67a13ae4c89ec8162624c106082da9e5e2f3af6b5caa3036e2862fe74d04213a17c5c195f27d94d3ae536210d2684cefebcebe82c36ac31c8bd0aef978bc748fff8728665321f38cec5cee3b7f123c1560d6d9a057cfee3bc752cf2da613caeebfe596246b37cbe508ab14480194a760556fb9cfe2427a376b01581f4e80e0723c62406f38848b5c4f5a5a5879bf52d59324d52fd6c609583120494242b656025d4cbcee83e433162d586dca8fd046bade71f5be278717c527430f6a9cdcf23067611263029ccd2d4fa82ae6ec4e17813e19762fe156607a8323ed7f837e3a9b1131c71b3049083cc6c58cf7d7b17e864ad368d13ce461454017365332adcaab910bd7e045090ae9957b3ee16a4ece049449a848afbf677d999110c4df43189318fd48eaa62882784eeb7372e3b2798bbba575f919d88f2f20a769356fcd5b35a9891740f17923308a560bbe61d7c904a1f21998c1aefce276dde2409403baad234c559e2528b6393ae9607c6010a86f4d222b28576203c1f30c5c18bdf977d58e6666abad8d2659cbd8ad856a72a56c5379822ad086b3c4ba1fc0d66d4c760924dcb5fd7ac7e8e7b05c26a2af782174c6b6c559327f71dddd96d575ac4068b97d2d8b887a31386668140358c0d3ac442a2953f06ec5edfe83b85d963ce7d9885d1da0a01b49b6349dc76a4a24bcef4113321f610451a83432d05d46c7dc0101f89f40ba715757e4e8c35fc91a69e02efd9ae060d38356f5202027a4ebcd8285db06241e2fab85894fd212f83ebd4b83c1a83560bc58d4715710b3e91f4df45cebb1ad15d6d820455a85e4aa0693e62f5e5994d73b1479960f9b6a9d97e680a0bf38f6c097b0dde02ad3bad738fc0a1f1f07863445a3240a8641eee2cda1b51327305472fd55ade8cabe1d64f6ae03cf79434ede0aeff3896a8746bdde555482426c5cbaa02a6208c5d49e24d4b2fb13fd22e7eb396fb72a9e9383b24fc7b71dfcda3a50d9b233e40100cb56d2e28fd79276ba7cff5763b2aeba11628ee490ec9b9b873764e4fa68dfabe1f8683e37f9bc7ded2e51efde40ef91b8bab2ecc40b78589509a25d1709bccc486eaf0b7c792c99c0cfbe95a91b77dd42090f73e875cc62543f91c9883ce279fbb877cba05dd6021abc911c45ca3ebb0cea7544b5a434abc6c87dd60617645c7c6aca1c3c2f6bf5e722bfac25c8a7b1dd2eea8e0bf9e3d2de3eb02bf9d54c4f7fa1ecbeebe7265962344d566310e4de41b1bab42402214c3cca3946c65e3620a4c34c6d59ec5feab26b4f7bc6da90fa5228c380d1cfb731a60b65505dc3fe3080fac44fd289377297c48281e8cda6456cc7621ff875a9bd3aa11599c7c753a0ea97175c8bf0986f22962a44def19a987fd9a46cbfb824028d832f45a0d9d50df899a1afc6d5c2e42bd80dd0a046283d3a88e1112a977851860b8ce312596091c7cb8bb45824b3102d418f9a1acf691a9abf7fc1f735befcc4d83a9ef69f64694e76027bf898c702b26e1a7206298735ab97c76d621131693d5af7276ecf29151ceda3bb289a737ae5231be03ca83c59500530743c99b8263d89130949178cafdc32ddc6cf9b837c24479e7f70c612888bbd757377759fe34cf28f101573861c10da6cf31db330654dfdf0487374fd754521239bb1a5b19290c67ac014f2db078bbf6f6c55d2ac501d7e6d97f8e4ac0bddb036410a9a232b94ab6a70e5d8d351a1452a209f9ca6ad153d5ebcbce07ede5dc610db8cd85e65c1b91ee681e3b2cfc5b21cb5e2eea88d23e09ccf9d8afc89c85ca7d1dc3edf92394eb578fb64504d11d5604a6b5e763048c7596684e78599e5f60f1aa2b2c5d83df99e395498bfc5153549a07d41960c47aedddad53aa31474e9a0669f98ef01f2c9aedba77c66270a1ee81d579cde37ec47d2ab703914e6cbd626cfe1ca24519109cbf77a762d20d21c8ccc929538ef5118ad697d8649a725d4e483b14941090fc28508b879183627b88726912a63622329fe1b80a90006825f293eb5e6a63ef7a3bda0841fccc7601851aecdb3b573df43d88e3d00a28670905a7ab39981fc0c770364c306ea4c4f27354bcf21a4a2d40090a3233d4b42567df785d3bef60ad5207f579335e1bd7c0bfbc833099d68048e93f1d8de06ae6fab18df127c3211a3488cc7e6f4b1fc43b4a5cc11ce3703ffbe3bd46b7b8b37f84b1e8a4e18060ee64d6c7c4a5bcdb69e20188145fc95a227d8c8732a38199d1e5363862d1c423aeeac11ea4b3fd5edca08001c54a6cf7a50cfb4046fc80482caa07275f8bfc5b506e53ab415d665355aaebbd8115c4e545063d7c02f696e65ee9b1154d80b8086a222da4f0b1e0aa8147aa2919de8ac3dd7930a7959e4623942dcb839b4b0bf4b79f5ada99c68827c08c9872d410f01c3ae8e494230d976ae9abc966ccf9451e19dfd75a1d8b5cecf5fcd6f221c5ee67b8a55c02b4b5258739611777d9b35d8bccf6c4e112720c79c5776a2ba81b4ca4d65157fd1f7decb6d31b5371a8e3f34a4ce83057bc214d11191d22282c2f454c68737d878b99a600081f387488999ca1c2c6e6f4f5f9222856595e646f73a8dfe3e4e5e7f0f6080a141e23314649797e87a5bdcdd0db0000000000000000000000000000000000101f2f3f01",
        "003179c5e568f968c7f4d4f77b64a5339929fadc3f6a0a47aabb364cb6c389e8d588d18219b19c6427f4bace191da32370bb6cbc10092502140a19dcacf558f92f03767867583e4c156a72ee5b1c1fc5437aceb8aa59c9247db06d7967f130b57234785dfd8990f9305a795cea8c2db629dc0ce6ca027f2dc41a931a7fd82971ed4151e662bfb20857ae3b23f6fa53e27a52c12984fef7269dc94a54650141c1929cad3d3698ffd1cbac5cfa9af3648a019f18d20cca3262be35e71091a9e72512d628657990136935b40cb3edb0ebc357bb11042383cd9b1222fdafc6177f2b6e8408b765f2832b545ba44eca419e647a911c44185068aea1f7ce60783cfe2d4440aedbfd63f0ead13d20148bc9115dbf8116302bf5c93499c42368390be003b49af2331d2105c7c3c57bbbfefd18d857fe1c4b8293ab2d8bac639c1e090ccf6ba9610650b2d0c8cea6fdf2b9741df490883f747782136c8f445f8c97518b61f3ef22929fddfc179584e8f56da2892a237fa378fa7bde89b69b12d9e78a580b6a6bfdaec1db26bbe19154992c9d467600c0809f6c1681bd2dc15935ede9763dffaa3b41ce1c3cb45d8c9e7bda82479a3fb1513da2c71b2caf47d961f4ac6c88f8d1940765fe21f80530d996438032fdbc78e03dd5e8deb46f39619ddd4ed884501b1cca4f01de2d502459b4be67acc002404983d4296deb10fd5cd3599e20646025976b30e90aa98635a36951a99ecddadcee37f707784d90cdacdbd520100821df6d0ad4f9ce4a3f8ec92faf05707057a7cdfc3c139d300723bebc363bf3cee2d32573c3159cb93acb8f1a29188af6cdd23374c7447026078f8e0b0fbea2b00e39947348d92f97b8d4f348486536e16e40269a239b3e04d43f8843c81ce9cdcd57043007cca30db63bb874af77419f77a834c52973a9b0b5b6656eb281676f8b3492c80dec7479f02216bedef4d571434a7005686b5393971f0f562d5ba3e75294156b587362342b111fe7934caba64760d58dc412278b78a2ab4c37cff81cee20a34cdd9bb920822665b513390cae3bcdcf3335490ed13b063bfd4cad3fa0a0ae5afeb1f4cf6a58f3b4dc85520c2bacb4181a1c60b56e64e99587f1d21c916ed05f37fd3ed57fa312cbd7ab87e6d1504bbbb6d0c7c38f3d2c451192d2ba614550c2e167076246f6661dfe58f40e2c4ee5ae5db99328edfb662a5717e7b2aa717055019f87b65e8ab670d8f13fe972a8e8900e11a44a22bd6b070f68436c7c3674f5dca6d6a0dc038c8522db58537dfe685112bb9d549c689ee7c1c0c50e0dd5ce0895d94a20cca046da75465ef50fde6082792baa4e6dceb3be3c09ad4a056e826b854127f710293a7f016ba5ba4391e39193103169203e01b1ee691c13e81c62d6d186ba3e1072c2eda1125450566c8ea4ec9da460b6a902ccf6743a25d2c8a046564b55cd0472466c61b46787a26aef481f449ecbf4c51e6dde3c3a9b31f9fa2f677d31d3339563fdb11d097c1ecb18db88f3a74837ab7c318fdbb4c5e98c21054cd46f5570989a76ada3199f60d58d454c693c717dda80c01eea44f1e274bae0b0cac5ff3039d55662f6b2db3b615c54b27c988ff2e4091e1e2385cba92e1164015ecd3760577c8e478aff1774576c845fa55ee25e080d25d16deef3aef3a4de9eb48d05e85fa7ef020f96e66ca83867e57329d20d942a49beb33137cf3dfaf8588cd47c57cc3c6e6b80826a4e448d71d0e0570016fc7be8ac802dc182e3d4662a412b3e06379ab44088f96b952708c013641e638ca7f6d4541deaf4aeead9b0dffc9b5b9db250d61fe2809a7c7c52b840aca0951855d4d02d97d6a6a13f"
      ],
      "sequence": 4294967294
    }
  ],
  "vout": [
    {
      "value": 1.0,
      "n": 0,
      "scriptPubKey": {
        "asm": "OP_RETURN 0fca22bd98d378e3a24d090ad06e2268d815be62fa73d4361f26789146f9b415 9985691464303368eac60de47fd443f4a753839b71d348a8253975db58e13959b9a5493444101348cae62dc45ff463d48773a3bb51f36888051955fb78c11979d9c5295424707328aa864da43f9403b4e713c3db319308e86579359b18a17919f9e50974045053088aa66d841fb42394c733e3fb11b328c8455915bb388159391905e994e4b0b3e86a468d64ff54c37427d3031bf153c828a5b9f55bd861b9d93925c9b4c49093c84a66ad44df74e35407f3233bd173e8088599d57bf84199f95945a9d4a4f0f3a82a06cd24bf1483346793435bb1138868e5f9b51b9821f999796589f484d0d3880a26ed049f34a31447b3637b9133a848c5d9953bb801d9b99985691464303368eac60de47fd443f4a753839b71d348a8253975db58e13959b9a5493444101348cae62dc45ff463d48773a3bb51f36888051955fb78c11979d9c5295424707328aa864da43f9403b4e713c3db319308e86579359b18a17919f9e50974045053088aa66d841fb42394c733e3fb11b328c8455915bb388159391905e994e4b0b3e86a468d64ff54c37427d3031bf153c828a5b9f55bd861b9d93925c9b4c49093c84a66ad44df74e35407f3233bd173e8088599d57bf84199f95945a9d4a4f0f3a82a06cd24bf1483346793435bb1138868e5f9b51b9821f999796589f484d0d3880a26ed049f34a31447b3637b9133a848c5d9953bb801d9b99985691464303368eac60de47fd443f4a753839b71d348a8253975db58e13959b9a5493444101348cae62dc45ff463d48773a3bb51f36888051955fb78c11979d9c5295424707328aa864da43f9403b4e713c3db319308e86579359b18a17919f9e50974045053088aa66d841fb42394c733e3fb11b328c8455915bb388159391905e994e4b0b3e86a468d64ff54c37427d3031bf153c828a5b9f55bd861b9d93925c9b4c49093c84a66ad44df74e35407f3233bd173e8088599d57bf84199f95945a9d4a4f0f3a82a06cd24bf1483346793435bb1138868e5f9b51b9821f999796589f484d0d3880a26ed049f34a31447b3637b9133a848c5d9953bb801d9b99985691464303368eac60de47fd443f4a753839b71d348a8253975db58e13959b9a5493444101348cae62dc45ff463d48773a3bb51f36888051955fb78c11979d9c5295424707328aa864da43f9403b4e713c3db319308e86579359b18a17919f9e50974045053088aa66d841fb42394c733e3fb11b328c8455915bb388159391905e994e4b0b3e86a468d64ff54c37427d3031bf153c828a5b9f55bd861b9d93925c9b4c49093c84a66ad44df74e35407f3233bd173e8088599d57bf84199f95945a9d4a4f0f3a82a06cd24bf1483346793435bb1138868e5f9b51b9821f999796589f484d0d3880a26ed049f34a31447b3637b9133a848c5d9953bb801d9b99985691464303368eac60de47fd443f4a753839b71d348a8253975db58e13959b9a5493444101348cae62dc45ff463d48773a3bb51f36888051955fb78c11979d9c5295424707328aa864da43f9403b4e713c3db319308e86579359b18a17919f9e50974045053088aa66d841fb42394c733e3fb11b328c8455915bb388159391905e994e4b0b3e86a468d64ff54c3742e7f1e562f91f77c41032f0d4a1e457540e8991fd4291ed597d72134029b40d0",
        "hex": "6a200fca22bd98d378e3a24d090ad06e2268d815be62fa73d4361f26789146f9b4154db0049985691464303368eac60de47fd443f4a753839b71d348a8253975db58e13959b9a5493444101348cae62dc45ff463d48773a3bb51f36888051955fb78c11979d9c5295424707328aa864da43f9403b4e713c3db319308e86579359b18a17919f9e50974045053088aa66d841fb42394c733e3fb11b328c8455915bb388159391905e994e4b0b3e86a468d64ff54c37427d3031bf153c828a5b9f55bd861b9d93925c9b4c49093c84a66ad44df74e35407f3233bd173e8088599d57bf84199f95945a9d4a4f0f3a82a06cd24bf1483346793435bb1138868e5f9b51b9821f999796589f484d0d3880a26ed049f34a31447b3637b9133a848c5d9953bb801d9b99985691464303368eac60de47fd443f4a753839b71d348a8253975db58e13959b9a5493444101348cae62dc45ff463d48773a3bb51f36888051955fb78c11979d9c5295424707328aa864da43f9403b4e713c3db319308e86579359b18a17919f9e50974045053088aa66d841fb42394c733e3fb11b328c8455915bb388159391905e994e4b0b3e86a468d64ff54c37427d3031bf153c828a5b9f55bd861b9d93925c9b4c49093c84a66ad44df74e35407f3233bd173e8088599d57bf84199f95945a9d4a4f0f3a82a06cd24bf1483346793435bb1138868e5f9b51b9821f999796589f484d0d3880a26ed049f34a31447b3637b9133a848c5d9953bb801d9b99985691464303368eac60de47fd443f4a753839b71d348a8253975db58e13959b9a5493444101348cae62dc45ff463d48773a3bb51f36888051955fb78c11979d9c5295424707328aa864da43f9403b4e713c3db319308e86579359b18a17919f9e50974045053088aa66d841fb42394c733e3fb11b328c8455915bb388159391905e994e4b0b3e86a468d64ff54c37427d3031bf153c828a5b9f55bd861b9d93925c9b4c49093c84a66ad44df74e35407f3233bd173e8088599d57bf84199f95945a9d4a4f0f3a82a06cd24bf1483346793435bb1138868e5f9b51b9821f999796589f484d0d3880a26ed049f34a31447b3637b9133a848c5d9953bb801d9b99985691464303368eac60de47fd443f4a753839b71d348a8253975db58e13959b9a5493444101348cae62dc45ff463d48773a3bb51f36888051955fb78c11979d9c5295424707328aa864da43f9403b4e713c3db319308e86579359b18a17919f9e50974045053088aa66d841fb42394c733e3fb11b328c8455915bb388159391905e994e4b0b3e86a468d64ff54c37427d3031bf153c828a5b9f55bd861b9d93925c9b4c49093c84a66ad44df74e35407f3233bd173e8088599d57bf84199f95945a9d4a4f0f3a82a06cd24bf1483346793435bb1138868e5f9b51b9821f999796589f484d0d3880a26ed049f34a31447b3637b9133a848c5d9953bb801d9b99985691464303368eac60de47fd443f4a753839b71d348a8253975db58e13959b9a5493444101348cae62dc45ff463d48773a3bb51f36888051955fb78c11979d9c5295424707328aa864da43f9403b4e713c3db319308e86579359b18a17919f9e50974045053088aa66d841fb42394c733e3fb11b328c8455915bb388159391905e994e4b0b3e86a468d64ff54c3742e7f1e562f91f77c41032f0d4a1e457540e8991fd4291ed597d72134029b40d0",
        "type": "nulldata"
      }
    },
    {
      "value": 499990.8479,
      "n": 1,
      "scriptPubKey": {
        "asm": "1 1c3069a584de9578cfdab403aba2e480ddf5786dc42d941bdfe4e588feff818a",
        "hex": "51201c3069a584de9578cfdab403aba2e480ddf5786dc42d941bdfe4e588feff818a",
        "reqSigs": 1,
        "type": "witness_v1_scripthash",
        "addresses": [
          "3QJmnh"
        ]
      }
    }
  ],
  "blockhash": "2622e54cefe9d3081f6ac04e4c67f268d7c1e3313b2268ffede4439aafe1acd1",
  "confirmations": 1,
  "time": 1764177922,
  "blocktime": 1764177922
}