{
  "hex": "01000000000101c4ba9f9f95cc12fcf3ef42c7e11486da7a7e1133e60edb2ec983f7fc2e791fed0000000000feffffff0200e1f50500000000fdd5046a20fbfb1383caef15812dad816edd373fb94f3e4748b79930907906188480cf915b4db0043b31750053c049d9875d8ba8772752be604b5f2608be136f4fe4a78566a1c1251b11552073e069f9a77dab885707729e406b7f06289e334f6fc487a54681e1057b71354013800999c71dcbe8376712fe200b1f6648fe532f0fa4e7c526e181655b51156033a029b9e73debc8174732de002b3f4668de730f2f84c7e506c1a145bbb1f580d340c95907dd0b28f7a7d23ee0cbdfa6883e93efcf642705e62141a59b91d5a0f360e97927fd2b08d787f21ec0ebff86a81eb3cfef440725c6016185fbf1b5c093008919479d4b68b7e7927ea08b9fe6c87ed3af8f246745a66101e5dbd195e0b320a93967bd6b4897c7b25e80abbfc6e85ef38faf044765864121c53b31750053c049d9875d8ba8772752be604b5f2608be136f4fe4a78566a1c1251b11552073e069f9a77dab885707729e406b7f06289e334f6fc487a54681e1057b71354013800999c71dcbe8376712fe200b1f6648fe532f0fa4e7c526e181655b51156033a029b9e73debc8174732de002b3f4668de730f2f84c7e506c1a145bbb1f580d340c95907dd0b28f7a7d23ee0cbdfa6883e93efcf642705e62141a59b91d5a0f360e97927fd2b08d787f21ec0ebff86a81eb3cfef440725c6016185fbf1b5c093008919479d4b68b7e7927ea08b9fe6c87ed3af8f246745a66101e5dbd195e0b320a93967bd6b4897c7b25e80abbfc6e85ef38faf044765864121c53b31750053c049d9875d8ba8772752be604b5f2608be136f4fe4a78566a1c1251b11552073e069f9a77dab885707729e406b7f06289e334f6fc487a54681e1057b71354013800999c71dcbe8376712fe200b1f6648fe532f0fa4e7c526e181655b51156033a029b9e73debc8174732de002b3f4668de730f2f84c7e506c1a145bbb1f580d340c95907dd0b28f7a7d23ee0cbdfa6883e93efcf642705e62141a59b91d5a0f360e97927fd2b08d787f21ec0ebff86a81eb3cfef440725c6016185fbf1b5c093008919479d4b68b7e7927ea08b9fe6c87ed3af8f246745a66101e5dbd195e0b320a93967bd6b4897c7b25e80abbfc6e85ef38faf044765864121c53b31750053c049d9875d8ba8772752be604b5f2608be136f4fe4a78566a1c1251b11552073e069f9a77dab885707729e406b7f06289e334f6fc487a54681e1057b71354013800999c71dcbe8376712fe200b1f6648fe532f0fa4e7c526e181655b51156033a029b9e73debc8174732de002b3f4668de730f2f84c7e506c1a145bbb1f580d340c95907dd0b28f7a7d23ee0cbdfa6883e93efcf642705e62141a59b91d5a0f360e97927fd2b08d787f21ec0ebff86a81eb3cfef440725c6016185fbf1b5c093008919479d4b68b7e7927ea08b9fe6c87ed3af8f246745a66101e5dbd195e0b320a93967bd6b4897c7b25e80abbfc6e85ef38faf044765864121c53b31750053c049d9875d8ba8772752be604b5f2608be136f4fe4a78566a1c1251b11552073e069f9a77dab885707729e406b7f06289e334f6fc487a54681e1057b71354013800999c71dcbe8376712fe200b1f6648fe532f0fa4e7c526e181655b51156033a029b9e73debc8174732de002b3f4668de730f2f84c7e506c1a145bbb1f580d340c95907dd0b28f7a7d23e9fa3039cae91dfbcc26c685791d85c8ab31cdccc40e1a0e9e2ca4694fc03793a10cdd4fc782d000022512021532ffe026e6e5f77ecefe17d2504e07c9a62e8ba848b243b74b4b049b2e42702fd7509f7ef012642dd445b3b074803cb9be32300cae7099525f4d7ec39e29634b0f0fd296e298e61b940bf45d2d344f079ec20355ef874cd9de06f32d2d110d65e8e9ac89ddb4f87dbb7a4170f936eb523c267dcd9f40e2f602a275354d1e19c12a941a2b194a2217b94e8f64a3a058bfee3e5e972900c978b54d7e14fae58ff19c4c65b5fbace9f32162908283c60966546dfa784ac2287c1e1bbc0bb57894b3573f8379b7d979bd221e72b31299f6a0b3debe01f7369e48ee4f3e9c927d1ae4801f9f3b42a6f2210041fd54f2ed42e90ac01809d7032406a8785960d0fd522a060f6da467c5dab285c81a3c158294cd302b72ffe3fd14141987f5f8616567cf89320b7bcf47bd0b1b9f8763d7406ab562845f40f301e1781e2590fc36bddfa16e3590aa84409bf90c82b6538d1c2411eb0d8d008731e44346051dbb27b0c6b5e1cda542024b671689dd668630e027b4ac28450f1693747264fe5f421bddb33d92abb0af0fc8845605f080cdc0dad739ff27e1a68e0a6c7ea9b9f7a2f69269bc0b0bc97f8175669093031addd956f69804eb460b61fec303c8c31c74d44f238f46a0874577f59a2cd91a43a3ac46334a874f36bae6ad610ce06d1785e753561fddeb855897b76528e6fce67bc72863d8524b90af2f88a2a969cfb4ab4c7aa24a627300970fc238b9f9cf67854cbf673ffa1f453029111ffd2ca228a4c4290516cc59244141a68c674439398a0f4a34a6a5ece9c0b4136208a94051f7eba54b48595d9a2729025690c74a4f453726160e7181a6f7578f2dc0d2cec62509fa01928fe2f334bd30f53fc6138060b0cbb9d33cc7e4a00bd05509b16672dca488e086b3b8c40d7072eb8771978e74ea9eff29c418d706933b5941e1c9950a639c6f2b4ab524cfc4a2dd01fc2c0bf8255c2661c0c73d2a0213672dff2cce34e48d47faff2a91d90b49d854a7cec84d54d60f8d7549110198ce51415b044f6a88bdd440a380b89fa5c95820958391a169589103f05e172b6897a03713511d50cb39cadbd40ff1919c5e209e3af020b35606c2a53cc4d36f9ad5e5e8c6d8b47ff231f98380fb5039d959ef05f0136896d678624a361875290c6522677acf14ab2236b85b36b057fadf23c942c21bee6a6f4b5b40cc3ae8b06ca71370bdacf32db5608f7880b5ceb49d0748694aed4ace42ac367777bd45b68a9d3ef8f49f98c78cf257f38351fb0f689d33095725add562a9e928038be9e403562009a3a98f53967c86ed9ebd99868884c5aea25cbf4dcf290fd9b8a45973ac70bba3870a9b13442f838c77dc8356c91a9ac3b436baea6e37a1a8ac358265296d2fb1b793868c7b74aaf44cff6d97da1d83b343bd7d3eae13e709342a0ae7acb346fa594090ca0b3013796b4a1af75cb106403ee8f9ebfd4ebc666590cd0f20076288c61876bc51ff769aae634dc8ab0476e895cf2c0f3cfb7190d452fc4214c0a020acbbe456a4794335e8ba69f78e59b6f18150d2740d2181a409c8c25ed71185e97111100bff29ae677f7f0d2fed7a65b1e1297f5df2763896ccb6b4b27ed5f4d69f23b53116f1f4e53f7693ac6544d3f38b0991238584feac29d09256cdcd61e9492f29368ea752c6bcba2f62152264f97a681816d7015d4f3c3a0055a8e3b2bd93d3099269c6e2ea63c5b70bf77ac41c82ff4064f60a5673432bb2ffcfc936d20d767d7986217a8acf29e92da7d29eb47799802a343dde79857ceaa7923024e35e3e9411e9e34bdfb1fe9d74e0f27a2c92d236089045568f6549eeceb34655f95536bb3bfcee5622d58aaa7f7541ebaef0de75168ae88054a12228ba1de8d60557763040f5da80d10a1494d336e936b2e155fe363233f47f7337e6c91785076258830d349a2e8cc8b8e9b1caf7d0fcc898ea239f060291422beac59543bd9435d9ca65659605bc1ceaf9eccdc1edc64c7bb067d6d08d4a75f90bf7e17b533c9b25f72b6ad7322eb16ceb293bf894ca20e2d733c2469ab7a6a1566ff7611ca5f1b33b2486ff252248b2c2980abb19c0dc6e32ba6fcdb07436d7f13a24e26a485e2fa828e5af7dc89527015c372b3906bd0ed9d059f946c5bda7bd335d25f6dbaf30c9a1aa240f303f8148cf2b03fb6d08201d29e97d03641151a532b5ea5f7065a7b02af333716ad991c3a6840dc1086363b191d35056cad2cccc187851ec7d0bf740718ada141016c623715a116f6a71c64e49749c6f6826b398b2d9607fd0fe988f51c5a312e32eb78e2cd74f9986c9fcf5afcd294c95550a88a26e0de18d664326fba3a8e595fb5f8e80e33042a7771b19402217edfe0f4b294b58fc77542c43cb374c450ade3e7bded611c29cec0670628dd01691b3a36eae7d312d821b4f7af128aeb96979a473de51c799392c925ea4ae351d4b14c06be90ae84bc53eeb497dc15aa9e5846ec0ba993ed2edc05f0202f37b8fe1df2795b9e22e7992f2dcd7d89cf3b3424fb32ffb1acda1218533d6a89a87821af9db380525de952d1cf004f34ce53b7cce60b38428275025e37b59e405622c7a4d3b9cc580d185883763f7bc8aff20f5f69a2967168ffcc3bda3ec27458701756124ee67f318dbcc0029844848d228312317ea89be3bb4e48b549fda490cd665a0795410e6cee81a203c3192d6525945d37ea161aec40a98e7bc1e950d854c029b26ec3b77c599cfd2f78bd8fa3e4f5b8f11ac65275b43e869737d9eb02f534f58dce5b48ca120dd367a1043bf8fcb364be792f81846a1f0842b06c864500a4a97487e2f59f891604b65ad749b336eaaa316b6a71e7fcb74a11399bb893ef4f674c643cd5d296e06be1de1c985f50350b4cd4e275b1d1862d8ac8a6885590fefc44a8594812181c81d097e2141ab127f7b1069476d94bbb4b4057ce24d44ce3c728b2e66f966a497b788e2ab90707df92d0017e5956a9b0ecfb82de2dbac6f2be91c3b70882937758c82681bc1229697aa844b42bd0f5bbeac8c1fdcfef7dc5958514d80dc45636b4bf750b3264c97dc8756f0f64d5e17fb8e9b7452447a3c0cdebcf6116e473ae47f15efae461f51f3c32660bd44ec3fd92a43eee26e40db6a3af9a80be46e5e2eadf379d6ef68a10ebcb1de88e05df31e5515b8f7326d3f96df33e3a75d427dcf1838d5a0dec6bea633fb5c5ea358aba100570df556f9b4c25e9f1cad258cec4b379dce3943595a62676553e72764f6b997da1b2f8727106ff7f1385d19625022eb501850a5754a652b8e5285e8c7831a5f089fabe6c16f4184c460bbb421dfa005fd029ac85a1cc119093054b0a111d293f4f5487abced8e6f1171c262d31436a94a8c7d8faff01070d0f11212b6e70899a9ca3d7dc0212bdc5dee80000000000000000000000000000000000000000000000000000000000000000000d1a292f01fd2105007cca9184c3362f19f79c3464e850f30bf51035016f46b24c1da52473996c1cface8c13b00e9db3cd1e39c8a8c9ff5269443900f74e21996c92bbbff47d3087322bcfd3f73fbd2faf6d5628ea316d93b114b1951a78119a03133500c3a273ef99c7bc60240f12696234475e6b3eab137687e962a4c2f4da41f2533fbc4515ed0c67ee1e6f66c8f343747a80bbd36022c9c1d12f5aff52bf0869e36c2153bfb5f596b42614013b2c4f62deb702df3fb4df0be74a969c8df2a94791b6b57c35187658c3f2b39b4742aef30ef8781c65205d80397195aec87310ba56636b9e4b7607ce935cd99ae71e06f5c23abc71b36fa7f3e1598175eab034a6cc30a5cb6a96139f4e096865e6b10f92dbb6d8194d798f2dc68454a122a4842ed4fa65bba3fb39d90c73880ba49d3d156b4c1355b10f6fa727d12acd14cea77f9a470cd47549ee6380da55375a276587cbdd41a5bbf395a844e0de5ee70575239eca12db52247c6086c2913c2a2ac6e14c5adbcc17e36d618a23e54742da919a4c34c889831bf25be2ceb3f34c1a191532b21fd1fe9d039f0d8b50e2861c0031bddbbb0b2048b2f721155c7f60f153a89ec6f8a7bcd55cd100bc33e15cdfcf9362ab04e228cd807ec81554e7d5ae1340f256752357dd7ba488f446e2355cd8d3604591da9785703ce69d096e8e6e76c07ef33abf701b70ae7a016337eab4883bff6ce709b38cc8ab86f6678fc8b22d4ae0a4c81c8f30de40c24641b9b71041763b2afba31693a10c7014170a7b1fcddecba704ac579a955e6d3caf96ad47f1baba3a3f29ceb517ddfcc081bd22b25e333a0de145eca44224cab74aeb061bdf7f6e7e21c31edb373ef81a01613c5a296370edaf3cd4be25159fa3d45e45ec69b5ab3a6ed9c3242335640c5ba3bdd9cc75b99dae76b5b88157e8eba7d152631d17d6838909f7b0214d1ec41a16d8dc31b1d710f7b01364f06cfa8c17a18d5d778fefd96276607a1b2f83cbc5416e7cbeb20b77fe2ac914902517f40617b1f0f4a05a6782485ede196ae2b4e650e0a56789c2b7618db89454e0b9c6e138a1e58db718e9191880f133156864df0b764f8b4a71de689efb8b680cf5d5006900150257c33a5ee7d83f5b01553a16311a3b853e88327c43bb4dc229f86f90478058364e75da40fc41b0aca177e29e5a0c938cc0ab9a5b60f678f358525ec237e78bf8828c14469c07140abcf5367d4d58af87be712e551fb7dec252e70a25ed85e4cfd9aa202b6a7b01d5f68e503c18c1a254601ed4dda1e88b7fbfc8949493b5f41f0d9bfb59ce60c8fefb0ea0df8445694ddce05f007a3a8b24c6b6fb949ead62cb2b6cf2bac1460062a28139d5aa037510c4e2bf40a37336a7a8edfcabfb23bf16e2284b8f8c10702881dfa5ad6536ebd3f7871f4954f562d13d181b78fa17574f915807c47d14a936314fbd922723e163db5c2b2d173a19da9dd2083a65c126abae63534a65362e10518a1654e4341da40f216b342594b3b5719385773f3a3c31a0e8adbe6c140d0c093e119da3ea09d688de21cd654a1497a5fcbeac2d4146cdecc29c6c7559f4aacf93332677d1d222af14e770eb9a440fc4a799055d19c7f4465ab876917192c7c07ab7ed2677e2539a6e5f7893ea19bb6dc1288422ce41230b4c8ba3a11bc3dca54fbd34f432ac2de6df9d1c5cf2ce8152fa59fb75d86132cadef9e7fed3eb8b0f2dc5d3175f511f5678a731ca353e1c590c962b5375152a69adf23913b838bd936db5328fcebd5c40e759df63d619740fd4edbe1b7b26577e215b65873c47c6bfb45e4fb4731a1fb4833953c830bc33094495ac955eb39aa093e4eac91ad47a79000000",
  "txid": "aaa7d9a10570fc08a600e8b5cc04e96cd0687cbf356c654037af59d886c749a5",
  "hash": "7b4103984cbe12e9144b52f8c0e830a3a5714ef4eb980f3a1e83eb61636360af",
  "size": 5085,
  "vsize": 2278,
  "version": 1,
  "locktime": 121,
  "vin": [
    {
      "txid": "ed1f792efcf783c92edb0ee633117e7ada8614e1c742eff3fc12cc959f9fbac4",
      "vout": 0,
      "scriptSig": {
        "asm": "",
        "hex": ""
      },
      "txinwitness": [
        "f7ef012642dd445b3b074803cb9be32300cae7099525f4d7ec39e29634b0f0fd296e298e61b940bf45d2d344f079ec20355ef874cd9de06f32d2d110d65e8e9ac89ddb4f87dbb7a4170f936eb523c267dcd9f40e2f602a275354d1e19c12a941a2b194a2217b94e8f64a3a058bfee3e5e972900c978b54d7e14fae58ff19c4c65b5fbace9f32162908283c60966546dfa784ac2287c1e1bbc0bb57894b3573f8379b7d979bd221e72b31299f6a0b3debe01f7369e48ee4f3e9c927d1ae4801f9f3b42a6f2210041fd54f2ed42e90ac01809d7032406a8785960d0fd522a060f6da467c5dab285c81a3c158294cd302b72ffe3fd14141987f5f8616567cf89320b7bcf47bd0b1b9f8763d7406ab562845f40f301e1781e2590fc36bddfa16e3590aa84409bf90c82b6538d1c2411eb0d8d008731e44346051dbb27b0c6b5e1cda542024b671689dd668630e027b4ac28450f1693747264fe5f421bddb33d92abb0af0fc8845605f080cdc0dad739ff27e1a68e0a6c7ea9b9f7a2f69269bc0b0bc97f8175669093031addd956f69804eb460b61fec303c8c31c74d44f238f46a0874577f59a2cd91a43a3ac46334a874f36bae6ad610ce06d1785e753561fddeb855897b76528e6fce67bc72863d8524b90af2f88a2a969cfb4ab4c7aa24a627300970fc238b9f9cf67854cbf673ffa1f453029111ffd2ca228a4c4290516cc59244141a68c674439398a0f4a34a6a5ece9c0b4136208a94051f7eba54b48595d9a2729025690c74a4f453726160e7181a6f7578f2dc0d2cec62509fa01928fe2f334bd30f53fc6138060b0cbb9d33cc7e4a00bd05509b16672dca488e086b3b8c40d7072eb8771978e74ea9eff29c418d706933b5941e1c9950a639c6f2b4ab524cfc4a2dd01fc2c0bf8255c2661c0c73d2a0213672dff2cce34e48d47faff2a91d90b49d854a7cec84d54d60f8d7549110198ce51415b044f6a88bdd440a380b89fa5c95820958391a169589103f05e172b6897a03713511d50cb39cadbd40ff1919c5e209e3af020b35606c2a53cc4d36f9ad5e5e8c6d8b47ff231f98380fb5039d959ef05f0136896d678624a361875290c6522677acf14ab2236b85b36b057fadf23c942c21bee6a6f4b5b40cc3ae8b06ca71370bdacf32db5608f7880b5ceb49d0748694aed4ace42ac367777bd45b68a9d3ef8f49f98c78cf257f38351fb0f689d33095725add562a9e928038be9e403562009a3a98f53967c86ed9ebd99868884c5aea25cbf4dcf290fd9b8a45973ac70bba3870a9b13442f838c77dc8356c91a9ac3b436baea6e37a1a8ac358265296d2fb1b793868c7b74aaf44cff6d97da1d83b343bd7d3eae13e709342a0ae7acb346fa594090ca0b3013796b4a1af75cb106403ee8f9ebfd4ebc666590cd0f20076288c61876bc51ff769aae634dc8ab0476e895cf2c0f3cfb7190d452fc4214c0a020acbbe456a4794335e8ba69f78e59b6f18150d2740d2181a409c8c25ed71185e97111100bff29ae677f7f0d2fed7a65b1e1297f5df2763896ccb6b4b27ed5f4d69f23b53116f1f4e53f7693ac6544d3f38b0991238584feac29d09256cdcd61e9492f29368ea752c6bcba2f62152264f97a681816d7015d4f3c3a0055a8e3b2bd93d3099269c6e2ea63c5b70bf77ac41c82ff4064f60a5673432bb2ffcfc936d20d767d7986217a8acf29e92da7d29eb47799802a343dde79857ceaa7923024e35e3e9411e9e34bdfb1fe9d74e0f27a2c92d236089045568f6549eeceb34655f95536bb3bfcee5622d58aaa7f7541ebaef0de75168ae88054a12228ba1de8d60557763040f5da80d10a1494d336e936b2e155fe363233f47f7337e6c91785076258830d349a2e8cc8b8e9b1caf7d0fcc898ea239f060291422beac59543bd9435d9ca65659605bc1ceaf9eccdc1edc64c7bb067d6d08d4a75f90bf7e17b533c9b25f72b6ad7322eb16ceb293bf894ca20e2d733c2469ab7a6a1566ff7611ca5f1b33b2486ff252248b2c2980abb19c0dc6e32ba6fcdb07436d7f13a24e26a485e2fa828e5af7dc89527015c372b3906bd0ed9d059f946c5bda7bd335d25f6dbaf30c9a1aa240f303f8148cf2b03fb6d08201d29e97d03641151a532b5ea5f7065a7b02af333716ad991c3a6840dc1086363b191d35056cad2cccc187851ec7d0bf740718ada141016c623715a116f6a71c64e49749c6f6826b398b2d9607fd0fe988f51c5a312e32eb78e2cd74f9986c9fcf5afcd294c95550a88a26e0de18d664326fba3a8e595fb5f8e80e33042a7771b19402217edfe0f4b294b58fc77542c43cb374c450ade3e7bded611c29cec0670628dd01691b3a36eae7d312d821b4f7af128aeb96979a473de51c799392c925ea4ae351d4b14c06be90ae84bc53eeb497dc15aa9e5846ec0ba993ed2edc05f0202f37b8fe1df2795b9e22e7992f2dcd7d89cf3b3424fb32ffb1acda1218533d6a89a87821af9db380525de952d1cf004f34ce53b7cce60b38428275025e37b59e405622c7a4d3b9cc580d185883763f7bc8aff20f5f69a2967168ffcc3bda3ec27458701756124ee67f318dbcc0029844848d228312317ea89be3bb4e48b549fda490cd665a0795410e6cee81a203c3192d6525945d37ea161aec40a98e7bc1e950d854c029b26ec3b77c599cfd2f78bd8fa3e4f5b8f11ac65275b43e869737d9eb02f534f58dce5b48ca120dd367a1043bf8fcb364be792f81846a1f0842b06c864500a4a97487e2f59f891604b65ad749b336eaaa316b6a71e7fcb74a11399bb893ef4f674c643cd5d296e06be1de1c985f50350b4cd4e275b1d1862d8ac8a6885590fefc44a8594812181c81d097e2141ab127f7b1069476d94bbb4b4057ce24d44ce3c728b2e66f966a497b788e2ab90707df92d0017e5956a9b0ecfb82de2dbac6f2be91c3b70882937758c82681bc1229697aa844b42bd0f5bbeac8c1fdcfef7dc5958514d80dc45636b4bf750b3264c97dc8756f0f64d5e17fb8e9b7452447a3c0cdebcf6116e473ae47f15efae461f51f3c32660bd44ec3fd92a43eee26e40db6a3af9a80be46e5e2eadf379d6ef68a10ebcb1de88e05df31e5515b8f7326d3f96df33e3a75d427dcf1838d5a0dec6bea633fb5c5ea358aba100570df556f9b4c25e9f1cad258cec4b379dce3943595a62676553e72764f6b997da1b2f8727106ff7f1385d19625022eb501850a5754a652b8e5285e8c7831a5f089fabe6c16f4184c460bbb421dfa005fd029ac85a1cc119093054b0a111d293f4f5487abced8e6f1171c262d31436a94a8c7d8faff01070d0f11212b6e70899a9ca3d7dc0212bdc5dee80000000000000000000000000000000000000000000000000000000000000000000d1a292f01",
        "007cca9184c3362f19f79c3464e850f30bf51035016f46b24c1da52473996c1cface8c13b00e9db3cd1e39c8a8c9ff5269443900f74e21996c92bbbff47d3087322bcfd3f73fbd2faf6d5628ea316d93b114b1951a78119a03133500c3a273ef99c7bc60240f12696234475e6b3eab137687e962a4c2f4da41f2533fbc4515ed0c67ee1e6f66c8f343747a80bbd36022c9c1d12f5aff52bf0869e36c2153bfb5f596b42614013b2c4f62deb702df3fb4df0be74a969c8df2a94791b6b57c35187658c3f2b39b4742aef30ef8781c65205d80397195aec87310ba56636b9e4b7607ce935cd99ae71e06f5c23abc71b36fa7f3e1598175eab034a6cc30a5cb6a96139f4e096865e6b10f92dbb6d8194d798f2dc68454a122a4842ed4fa65bba3fb39d90c73880ba49d3d156b4c1355b10f6fa727d12acd14cea77f9a470cd47549ee6380da55375a276587cbdd41a5bbf395a844e0de5ee70575239eca12db52247c6086c2913c2a2ac6e14c5adbcc17e36d618a23e54742da919a4c34c889831bf25be2ceb3f34c1a191532b21fd1fe9d039f0d8b50e2861c0031bddbbb0b2048b2f721155c7f60f153a89ec6f8a7bcd55cd100bc33e15cdfcf9362ab04e228cd807ec81554e7d5ae1340f256752357dd7ba488f446e2355cd8d3604591da9785703ce69d096e8e6e76c07ef33abf701b70ae7a016337eab4883bff6ce709b38cc8ab86f6678fc8b22d4ae0a4c81c8f30de40c24641b9b71041763b2afba31693a10c7014170a7b1fcddecba704ac579a955e6d3caf96ad47f1baba3a3f29ceb517ddfcc081bd22b25e333a0de145eca44224cab74aeb061bdf7f6e7e21c31edb373ef81a01613c5a296370edaf3cd4be25159fa3d45e45ec69b5ab3a6ed9c3242335640c5ba3bdd9cc75b99dae76b5b88157e8eba7d152631d17d6838909f7b0214d1ec41a16d8dc31b1d710f7b01364f06cfa8c17a18d5d778fefd96276607a1b2f83cbc5416e7cbeb20b77fe2ac914902517f40617b1f0f4a05a6782485ede196ae2b4e650e0a56789c2b7618db89454e0b9c6e138a1e58db718e9191880f133156864df0b764f8b4a71de689efb8b680cf5d5006900150257c33a5ee7d83f5b01553a16311a3b853e88327c43bb4dc229f86f90478058364e75da40fc41b0aca177e29e5a0c938cc0ab9a5b60f678f358525ec237e78bf8828c14469c07140abcf5367d4d58af87be712e551fb7dec252e70a25ed85e4cfd9aa202b6a7b01d5f68e503c18c1a254601ed4dda1e88b7fbfc8949493b5f41f0d9bfb59ce60c8fefb0ea0df8445694ddce05f007a3a8b24c6b6fb949ead62cb2b6cf2bac1460062a28139d5aa037510c4e2bf40a37336a7a8edfcabfb23bf16e2284b8f8c10702881dfa5ad6536ebd3f7871f4954f562d13d181b78fa17574f915807c47d14a936314fbd922723e163db5c2b2d173a19da9dd2083a65c126abae63534a65362e10518a1654e4341da40f216b342594b3b5719385773f3a3c31a0e8adbe6c140d0c093e119da3ea09d688de21cd654a1497a5fcbeac2d4146cdecc29c6c7559f4aacf93332677d1d222af14e770eb9a440fc4a799055d19c7f4465ab876917192c7c07ab7ed2677e2539a6e5f7893ea19bb6dc1288422ce41230b4c8ba3a11bc3dca54fbd34f432ac2de6df9d1c5cf2ce8152fa59fb75d86132cadef9e7fed3eb8b0f2dc5d3175f511f5678a731ca353e1c590c962b5375152a69adf23913b838bd936db5328fcebd5c40e759df63d619740fd4edbe1b7b26577e215b65873c47c6bfb45e4fb4731a1fb4833953c830bc33094495ac955eb39aa093e4eac91ad47a"
      ],
      "sequence": 4294967294
    }
  ],
  "vout": [
    {
      "value": 1.0,
      "n": 0,
      "scriptPubKey": {
        "asm": "OP_RETURN fbfb1383caef15812dad816edd373fb94f3e4748b79930907906188480cf915b 3b31750053c049d9875d8ba8772752be604b5f2608be136f4fe4a78566a1c1251b11552073e069f9a77dab885707729e406b7f06289e334f6fc487a54681e1057b71354013800999c71dcbe8376712fe200b1f6648fe532f0fa4e7c526e181655b51156033a029b9e73debc8174732de002b3f4668de730f2f84c7e506c1a145bbb1f580d340c95907dd0b28f7a7d23ee0cbdfa6883e93efcf642705e62141a59b91d5a0f360e97927fd2b08d787f21ec0ebff86a81eb3cfef440725c6016185fbf1b5c093008919479d4b68b7e7927ea08b9fe6c87ed3af8f246745a66101e5dbd195e0b320a93967bd6b4897c7b25e80abbfc6e85ef38faf044765864121c53b31750053c049d9875d8ba8772752be604b5f2608be136f4fe4a78566a1c1251b11552073e069f9a77dab885707729e406b7f06289e334f6fc487a54681e1057b71354013800999c71dcbe8376712fe200b1f6648fe532f0fa4e7c526e181655b51156033a029b9e73debc8174732de002b3f4668de730f2f84c7e506c1a145bbb1f580d340c95907dd0b28f7a7d23ee0cbdfa6883e93efcf642705e62141a59b91d5a0f360e97927fd2b08d787f21ec0ebff86a81eb3cfef440725c6016185fbf1b5c093008919479d4b68b7e7927ea08b9fe6c87ed3af8f246745a66101e5dbd195e0b320a93967bd6b4897c7b25e80abbfc6e85ef38faf044765864121c53b31750053c049d9875d8ba8772752be604b5f2608be136f4fe4a78566a1c1251b11552073e069f9a77dab885707729e406b7f06289e334f6fc487a54681e1057b71354013800999c71dcbe8376712fe200b1f6648fe532f0fa4e7c526e181655b51156033a029b9e73debc8174732de002b3f4668de730f2f84c7e506c1a145bbb1f580d340c95907dd0b28f7a7d23ee0cbdfa6883e93efcf642705e62141a59b91d5a0f360e97927fd2b08d787f21ec0ebff86a81eb3cfef440725c6016185fbf1b5c093008919479d4b68b7e7927ea08b9fe6c87ed3af8f246745a66101e5dbd195e0b320a93967bd6b4897c7b25e80abbfc6e85ef38faf044765864121c53b31750053c049d9875d8ba8772752be604b5f2608be136f4fe4a78566a1c1251b11552073e069f9a77dab885707729e406b7f06289e334f6fc487a54681e1057b71354013800999c71dcbe8376712fe200b1f6648fe532f0fa4e7c526e181655b51156033a029b9e73debc8174732de002b3f4668de730f2f84c7e506c1a145bbb1f580d340c95907dd0b28f7a7d23ee0cbdfa6883e93efcf642705e62141a59b91d5a0f360e97927fd2b08d787f21ec0ebff86a81eb3cfef440725c6016185fbf1b5c093008919479d4b68b7e7927ea08b9fe6c87ed3af8f246745a66101e5dbd195e0b320a93967bd6b4897c7b25e80abbfc6e85ef38faf044765864121c53b31750053c049d9875d8ba8772752be604b5f2608be136f4fe4a78566a1c1251b11552073e069f9a77dab885707729e406b7f06289e334f6fc487a54681e1057b71354013800999c71dcbe8376712fe200b1f6648fe532f0fa4e7c526e181655b51156033a029b9e73debc8174732de002b3f4668de730f2f84c7e506c1a145bbb1f580d340c95907dd0b28f7a7d23e9fa3039cae91dfbcc26c685791d85c8ab31cdccc40e1a0e9e2ca4694fc03793a",
        "hex": "6a20fbfb1383caef15812dad816edd373fb94f3e4748b79930907906188480cf915b4db0043b31750053c049d9875d8ba8772752be604b5f2608be136f4fe4a78566a1c1251b11552073e069f9a77dab885707729e406b7f06289e334f6fc487a54681e1057b71354013800999c71dcbe8376712fe200b1f6648fe532f0fa4e7c526e181655b51156033a029b9e73debc8174732de002b3f4668de730f2f84c7e506c1a145bbb1f580d340c95907dd0b28f7a7d23ee0cbdfa6883e93efcf642705e62141a59b91d5a0f360e97927fd2b08d787f21ec0ebff86a81eb3cfef440725c6016185fbf1b5c093008919479d4b68b7e7927ea08b9fe6c87ed3af8f246745a66101e5dbd195e0b320a93967bd6b4897c7b25e80abbfc6e85ef38faf044765864121c53b31750053c049d9875d8ba8772752be604b5f2608be136f4fe4a78566a1c1251b11552073e069f9a77dab885707729e406b7f06289e334f6fc487a54681e1057b71354013800999c71dcbe8376712fe200b1f6648fe532f0fa4e7c526e181655b51156033a029b9e73debc8174732de002b3f4668de730f2f84c7e506c1a145bbb1f580d340c95907dd0b28f7a7d23ee0cbdfa6883e93efcf642705e62141a59b91d5a0f360e97927fd2b08d787f21ec0ebff86a81eb3cfef440725c6016185fbf1b5c093008919479d4b68b7e7927ea08b9fe6c87ed3af8f246745a66101e5dbd195e0b320a93967bd6b4897c7b25e80abbfc6e85ef38faf044765864121c53b31750053c049d9875d8ba8772752be604b5f2608be136f4fe4a78566a1c1251b11552073e069f9a77dab885707729e406b7f06289e334f6fc487a54681e1057b71354013800999c71dcbe8376712fe200b1f6648fe532f0fa4e7c526e181655b51156033a029b9e73debc8174732de002b3f4668de730f2f84c7e506c1a145bbb1f580d340c95907dd0b28f7a7d23ee0cbdfa6883e93efcf642705e62141a59b91d5a0f360e97927fd2b08d787f21ec0ebff86a81eb3cfef440725c6016185fbf1b5c093008919479d4b68b7e7927ea08b9fe6c87ed3af8f246745a66101e5dbd195e0b320a93967bd6b4897c7b25e80abbfc6e85ef38faf044765864121c53b31750053c049d9875d8ba8772752be604b5f2608be136f4fe4a78566a1c1251b11552073e069f9a77dab885707729e406b7f06289e334f6fc487a54681e1057b71354013800999c71dcbe8376712fe200b1f6648fe532f0fa4e7c526e181655b51156033a029b9e73debc8174732de002b3f4668de730f2f84c7e506c1a145bbb1f580d340c95907dd0b28f7a7d23ee0cbdfa6883e93efcf642705e62141a59b91d5a0f360e97927fd2b08d787f21ec0ebff86a81eb3cfef440725c6016185fbf1b5c093008919479d4b68b7e7927ea08b9fe6c87ed3af8f246745a66101e5dbd195e0b320a93967bd6b4897c7b25e80abbfc6e85ef38faf044765864121c53b31750053c049d9875d8ba8772752be604b5f2608be136f4fe4a78566a1c1251b11552073e069f9a77dab885707729e406b7f06289e334f6fc487a54681e1057b71354013800999c71dcbe8376712fe200b1f6648fe532f0fa4e7c526e181655b51156033a029b9e73debc8174732de002b3f4668de730f2f84c7e506c1a145bbb1f580d340c95907dd0b28f7a7d23e9fa3039cae91dfbcc26c685791d85c8ab31cdccc40e1a0e9e2ca4694fc03793a",
        "type": "nulldata"
      }
    },
    {
      "value": 499976.6113,
      "n": 1,
      "scriptPubKey": {
        "asm": "1 21532ffe026e6e5f77ecefe17d2504e07c9a62e8ba848b243b74b4b049b2e427",
        "hex": "512021532ffe026e6e5f77ecefe17d2504e07c9a62e8ba848b243b74b4b049b2e427",
        "reqSigs": 1,
        "type": "witness_v1_scripthash",
        "addresses": [
          "3QJmnh"
        ]
      }
    }
  ],
  "blockhash": "b00c1afcc726d07acf9b884f47bf06130e4cba196c4900690ef7405d42c36beb",
  "confirmations": 1,
  "time": 1764180257,
  "blocktime": 1764180257
}