{
  "hex": "01000000000101a8a27c503fc4a8380c0af81f7a6a3701dd3b274e90c532b34140a7eb6d8920c00000000000feffffff0200e1f50500000000fdd5046a203efd506329aa508bfff44db4e947587aeb2651427e57a33960d6e38195f7a4464db0048bb7080a5209d0fe19ee8c005688e0c8c9478db04305dc8288357781f9ddc81eab97282a7229f0de39ceac2076a8c0e8e967ad906325fca2a81557a1d9fde83ecbf7484a124990be59aecc4016c8a0888907cdf003459cc2c87537c1b99d885eebd7686a3269b09e798eec6036e880a8a927edd02365bce2e85517e199bda87e0b37888ad289507e996e0c80d608604849c70d30c3855c0208b5f701795d489e2b17a8aaf2a9705eb94e2ca0f628406869e72d10e3a57c222895d721597d68be4b77c8ca92c9103ed92e4cc09648200809874d7083c51c4248f5b741391d08de6b57e8eab2e9301ef90e6ce0b668002829a76d50a3e53c6268d59761193d28fe8bb7080a5209d0fe19ee8c005688e0c8c9478db04305dc8288357781f9ddc81eab97282a7229f0de39ceac2076a8c0e8e967ad906325fca2a81557a1d9fde83ecbf7484a124990be59aecc4016c8a0888907cdf003459cc2c87537c1b99d885eebd7686a3269b09e798eec6036e880a8a927edd02365bce2e85517e199bda87e0b37888ad289507e996e0c80d608604849c70d30c3855c0208b5f701795d489e2b17a8aaf2a9705eb94e2ca0f628406869e72d10e3a57c222895d721597d68be4b77c8ca92c9103ed92e4cc09648200809874d7083c51c4248f5b741391d08de6b57e8eab2e9301ef90e6ce0b668002829a76d50a3e53c6268d59761193d28fe8bb7080a5209d0fe19ee8c005688e0c8c9478db04305dc8288357781f9ddc81eab97282a7229f0de39ceac2076a8c0e8e967ad906325fca2a81557a1d9fde83ecbf7484a124990be59aecc4016c8a0888907cdf003459cc2c87537c1b99d885eebd7686a3269b09e798eec6036e880a8a927edd02365bce2e85517e199bda87e0b37888ad289507e996e0c80d608604849c70d30c3855c0208b5f701795d489e2b17a8aaf2a9705eb94e2ca0f628406869e72d10e3a57c222895d721597d68be4b77c8ca92c9103ed92e4cc09648200809874d7083c51c4248f5b741391d08de6b57e8eab2e9301ef90e6ce0b668002829a76d50a3e53c6268d59761193d28fe8bb7080a5209d0fe19ee8c005688e0c8c9478db04305dc8288357781f9ddc81eab97282a7229f0de39ceac2076a8c0e8e967ad906325fca2a81557a1d9fde83ecbf7484a124990be59aecc4016c8a0888907cdf003459cc2c87537c1b99d885eebd7686a3269b09e798eec6036e880a8a927edd02365bce2e85517e199bda87e0b37888ad289507e996e0c80d608604849c70d30c3855c0208b5f701795d489e2b17a8aaf2a9705eb94e2ca0f628406869e72d10e3a57c222895d721597d68be4b77c8ca92c9103ed92e4cc09648200809874d7083c51c4248f5b741391d08de6b57e8eab2e9301ef90e6ce0b668002829a76d50a3e53c6268d59761193d28fe8bb7080a5209d0fe19ee8c005688e0c8c9478db04305dc8288357781f9ddc81eab97282a7229f0de39ceac2076a8c0e8e967ad906325fca2a81557a1d9fde83ecbf7484a124990be59aecc4016c8a0888907cdf003459cc2c87537c1b99d885eebd7686a3269b09e798eec6036e880a8a927edd02365bce2e85517e199bda87e0b37888ad289507e996e0c80d60860489259ee3d4e600d67f0398a816380527e2f097877249ca1e9d0e0d2c6f52cf06b10cdd4fc782d00002251202caa469a5100adf877348e5c33b53a492eb72a1ad5361fe74ec374f5211a912c02fd750973a5d5baf0af4cdf4dad708c3ec5d0448a3a89d1bb6f10bec96e6480f4f49dcdf1c424a2bd370f4d28615a2b2f3301b0491957dc6d7b6308a28ec679a76f044816e956778801d1683c64f0935b2d10e4cf64a7587dfde16e00512c1be88a5dd0ce91eeb944b2c19db1740b1d56f5eadb9a1da83580c5131755e27c269d1748b1af2bdf4a1eef1980c4ae13588c72f83c40701fff6d03ed730a1f7f4e4c296732d3ac3de72c0e1778ee3fcbf1e02854198c4172c58a7963a0d6fa43698fc6ef998811c6660c82e61c2fa5ee657c596cbacc16df73839a8a8dc57bbe3e5e116b5c42d490df829684d1d1b3f3a439e1bf9c128020d3d0596fadfd89fb697b0ca4582396a8cfbe0826198a9c6d5c2d13489f5711612acafa25455abc02a77cc03864829a1cd8f45b94554f52ed3c8d410c24f12ded4aed8656359a538b57225452fbe68994bc2285e9603c92dfe9761da850c803a6c542cb4f1be61b8d4aef3a2c90908b8200c88c950b8ae42d25cca9d3e0f40aca31c8a3eb4149cc7b85d1d67624bc97779699e3129785e2ae0a4227d8e90a985aadc1dc889cb829d608683abf0ea5005063a504d3f023c26c5ffa1c18acd63859cddd2706afa4c1dc491b2839c36f0da7da0b35a274ffac971e3c521019858e4027ed55e8dfb1d2b5c66e5c28ddb7477c6612d74457bbcdd16e982c594d6377ec650733aa29299a785b2a7e8cbc7c66bbfdacd7ca63c79fd080f0af815a7b140fa3eb8e96b4587e4e39d8d4b11cab493720664693b6eb116988b266cd58977a71b77913342ef1b1eb6667a9e05dde522a69c008b86d6cce4c66a0e9a77a99028643916411e31365f4f0386e25bec8699a81d6c08b5e0f2abc5232e668e64118765eb07cd76a5aca2fcf046de7b875dccac97c87f9fc785d5ef9ab261299bb3685886f3670425af4f7893694239cfdbcb12038a77237d10b4901e83c998cdb4f0f737b19f8e9c25cb587ce42246217256ee78bf219aa70c1a964c049d17fe372dfd3725f56484d37ee62d528cd2d0237f5b2f45814dc98e0d34dabbe9336db026dcba2ce1352e5a8e5f9a3e5d562e50926df43ab9d3e22fb2319562c981ca59d3df6dc954c15c72cb5ca31a2a5ed35fd218f60a0cbbfce6a4966d27050746382bed893b0e0d94cebe0bcfebc11b312d03a41cb89589a5e08b6f6e2db95b46d8aa403ea25e2116f0278ce0d0b472b422bc3e30257f4b1f686a50a7ece8e9412c4dafe00633cf0709227d03dc31a345212e57da8686af0504239fb70780a5bd9a65d8255bfd517979912f3d2e409167647098607dae2cd98c11a730486b468c70ef55aaac9fdc49d76db52b4a761358e44d5a98bb3679f93a6c6a7a6a80c18aae4f861572d909119e71d50a2bdc61517e168dde45ae11b1363fd210878f16c30a17028181754589d7fd83d77353237281aa9b673aaffaf67aa0b0180971f8eda60bf9d9bed20d0afac857465d341fa80464d2348e000e2d6b73cc1592465387b722d96b029ea41982389ad07707ffaeec746dbe32255fa5d1389597c4f9c07a246d39cef833970aa7dc2380ba6d7bb4084d028c31dd3351ad172ae676d43872e35c08ee8d3b0040a1dec65018593cc1d3957de68e27a0ea44a5b77b303a85e4c9896c53a9a792a86319b5f504c9e7ca3795174baa9673d8d980f02c0631cf6128c387c973769941335bf63111f1a357d73f621cf7ab0b2b62d4d61ade4ecc553288888a732dd078c41cd7aa97c63ead957c197d44713cde72fcf40d0b74948c921a7eeead78dc67bb1979df42dc96e26699d844e446c036004f98a34319d7b09f1047b53c4d150db49dd7281ee6e12f5f19f9c3cf933715599a77a72ab4c624034e13781ce8ed313bb83215cc8faa2c04ad464bbb4d0b1a9bf83e0e0a662b8f99df7d2eca47373597a627eb640cb3fbc596cf4f3bd1693364878ed88982750ac85faebf2d123d52cde49513007817054f7c73f02f55e009c63d4c6c113f177667a9a3ab27cb283652cc75724f2ae1bc81e212663f465df13baa837e93ba7858f348f096c03a75a29fd9af2bb886f18050b7ec3e1806cfbaf552fc190be3babfefd68c7c505b1e5b79d8624b59a04b2d3896a172933d5f341eec34c54001544d170f74534ce7f75c892333d0669d87ed3b0524e0c9d7d0e9dde9ea25788566b120d5e8a37f04b7eeaf156ea8f6867a0930a4e472350bbfe00b3f9d9b2e483eb4980346ae264ef7f2866f1de4e5b571a9df95889fe1dfe737d47cb1e52ccfa691aba5a793ecbf25198ab7f080d352ba9f65eb88024aba5f2b821ea1a4c6f62292cf1db250063b877b0f9431d117f7928c9b440301c9f32c3e601fc1c2e3b41b6904e98e786f8c6b8b27f531493e88f712cb2f05f625bbfab8394c9ed53acb45b39852f4be6a3ba6613952bfe6b8d665dd8735ae36c52d942bcc3e19fe245203a9f8751a9c51ddca2c11c4d8d27aebdd307cddb0af7a7ace4be552efaa5b4726b5098482fcecef9a6f4e06b10762dfcfa6113b1dbe861984094c1ba5d51d0158a6b37a7bd56384bb6b4c4f51ea242f09bb020553b3c561fb2e16e1ae5fd500c76ff5855e9a4f1717e70bffcc61eb6eb0bedd6fe37979a9658d997ea8666034c8c30d8e03b6bff141109fcbee6e49137a9e7474c15532e271413c3ecdf7d8de59e45c14e790347adb25b67bd628e22965098dc5deac465fa5b9dee55012c190e58cbea17ad320571a066e737af9cdd8d4740c0b86d304ccc32dcd11d18df881b8a4ae14f85cfaee41596c0ac2746efdb9145b541b69065f07bd4c3d688826fd043fb4cf6cc90404e324961447d823f38c0ac1d9f17adc01d118ab75d7eb609b2a489d5c752b5f7ed0c84df917e2f3856221f287ce249253327380ae7fee3a4000f991b1a2a8f9f5da3d795c352ccbaababa03df4c3638d97437e3b213933598f0706c4cb22001ede20b27eb419d29616c908c84314fbfb64a59fc2fc28a4a1d897530331922ba0a312495f2c92314c3eda3d2f957349e80debf9890a439109583906ac34077c5c45f8cd9ec0cd69213714e184965a81b84b6a51abd5f44fcfd9a0d5926014dd67c1b898b56fa342b973c9012f711a426789a9275525711a0e1aab9cb4600c2fd6ba85666a88e6aab0b477d1a596ea4b5fcba693c5387900f0d6073bedfde374ce1a301eadb2f9c0d2bafa2652fd3f2731406a08217525d7aedc3ac54b8bbd4672ed0421091f712d11a25b828f57701a6fe17dafb70b85542775090a38f85b5b608b4c469cc43e3629523506162448545c5f626c6e7577797c8fa1a5abacb3b5bdc0f614153d3e485e818a9fcef20130464f607c8ca9b3ced2d4dbdddf0616193a3c3f4b6d749498b3b6cdd1d2e1e9ff00000000000000000000001823324501fd210500aef434b088579756cdae3a9df38b1e1be40c9dfe0d1142a56eff228378cbaeaeb80cdf5a08ec4ed69b7f6f3a5d9108bd8c955ea89aece417ee1567e2fa5dc7cb2e681f07660116b846c49c6bab55ec846ea8dbfddfb4db88be9a4aebaf9e37e3f9068177cd149f4e14894b33caa447c84fe561ac3376e2441a4432b673784f3fe38090f898939354243833d5aa8ce8b27d18a6ecf5c0217a980ac85b4b654db3dbcf03ac9b55fcb1daad7c833081eb6191217f9144330e21f307ede5b629da7bf320fcf3f7eb15f53e5a51a37d3ac3ca5c154dc889d9b9ce989f621c2826be495c10d19a803f3aa648a2d47d498bf0e2b43dd3dc64216faed906f4bea5a74a409c10a45a15dfd4221295ec2b723906afc4389588dbfa240f5061ce0f1493b05e9fcbe7b1ebd9572a1d1d00832c27710ffc731ac85cf300dea4ba7312a9ee422a402bf461fa715ca71b03b6b0b502c8d7cf728e5016d1c149973ae4265c216d0169e31462eeda91c782df1e7584d83fafdfdc88ef5b4f4859386270706e4116c384a6b8c8ef0dfd469e4b3b4e397450ba4c942b4bb2c18c3a477680d7a3d409550d7391b12937ae6c9e7541251a2f39f1e9edece4ecfac59b6109463345edc3fb1ef203a313739c79ed997a74befb15e6ed474a0b78440234749fccc35420ed57c1df27010cbd5cec921c5aff519d3e87d2521700510773cf0a2ffaec71f0cd7e67a9d64921bfb946598820798eec83511b525e9574750666f19e0815f1d0747f62cb4ee34dc4158af1403a7c99566c506115b8eca84abd59092cc9a7044f900f1b3dd8c8b0e835bc09be8b6ad4d729ec5183224e0aa9d48b551e7ba703fca645003a246510e177137bed913aafdff7b1c596ebdb0b95b3e9fc24cb7b2ad410e103967a29c5b78f6a53fac8328b7b53d14e981c4f76d6000c53af115c6426a802d639199404f94c7fff8743d7d74c7b2c0b2411d38bea2868ad18b54672287b5f3220a9ba326cbb2cae19d5ab00e4e3167e44450506732dbea83ed735a74f7a5c7d1bf790d4266ca91477125d2dbab35320a258b9491e7eeb519d8805991f9b90a84b7eda5d1ac50130ff090511841d6f218e95456c9196cc261ee19ea4cb0dd6f15608adca590abefc01eb2ba02e788ecf596c50ead2530baa8db2ce4e009099b74451a0e93a0451338e76e18ca27cbdb4efc708fecd9fdd449eba217b04565259ec0187ae99e2fac56e11d42496462b6477373c7bfcd912f56756f6c8b95236998f33a3ea15047bcc90b4a75aaf0c4f98e186da6c66cdcd7245ce661988f4d826b1fd7305411ea3f56e4a27b0a1a79c5abe59efd91fa20a45ffa09edd350692cc4288934e840ea9bdd173d513a1cacb333af6fc4c8b30415d192312a4466f3788e65393f8b2e48211afc66b3a4067f566935b02fe9d1d1589905907404c01a4e1dbe6134802991d3e03468b4ef6f539dd484d0bbb09d23eed62654199f4ca3e1ad00fa24015dc2ce719bb37a29f9ce1629404456e1e8584de8dcfcae59957f5c20a4135cc7bb321583cfee5a36ed427b594d070279ea0c039fd837a23d6c07d7400d5fc4c057ebccd823f37b7dd8344979da4199c06480a4891e03364826f109e6a792970d5d0275eb30e384b07c3a4fdad0d8e4a36189499f04991a0984566a23d1146dab038b45fef30a35055bf88273101fcd153792fd8ac2922515e4603d87031ce8af165980039c2d5877f80ea746c8b54c28f9de435d9cbdf5e9dcd409258e90ba8d72530460cacda6781f7e3b0de4fe25026638310d50386038c9791c766b730e41316278323303269478c2fb4a43b22698ddf0a77f6c7e73f5585d681000000",
  "txid": "a2443523d444d740fd9c054abce5276a419b67d72fd68aca69891943510804a7",
  "hash": "ddaa73b17bc7a61aee6a3e68650a67fdc5e0bb943ae431832bb274c342e997c9",
  "size": 5085,
  "vsize": 2278,
  "version": 1,
  "locktime": 129,
  "vin": [
    {
      "txid": "c020896deba74041b332c5904e273bdd01376a7a1ff80a0c38a8c43f507ca2a8",
      "vout": 0,
      "scriptSig": {
        "asm": "",
        "hex": ""
      },
      "txinwitness": [
        "73a5d5baf0af4cdf4dad708c3ec5d0448a3a89d1bb6f10bec96e6480f4f49dcdf1c424a2bd370f4d28615a2b2f3301b0491957dc6d7b6308a28ec679a76f044816e956778801d1683c64f0935b2d10e4cf64a7587dfde16e00512c1be88a5dd0ce91eeb944b2c19db1740b1d56f5eadb9a1da83580c5131755e27c269d1748b1af2bdf4a1eef1980c4ae13588c72f83c40701fff6d03ed730a1f7f4e4c296732d3ac3de72c0e1778ee3fcbf1e02854198c4172c58a7963a0d6fa43698fc6ef998811c6660c82e61c2fa5ee657c596cbacc16df73839a8a8dc57bbe3e5e116b5c42d490df829684d1d1b3f3a439e1bf9c128020d3d0596fadfd89fb697b0ca4582396a8cfbe0826198a9c6d5c2d13489f5711612acafa25455abc02a77cc03864829a1cd8f45b94554f52ed3c8d410c24f12ded4aed8656359a538b57225452fbe68994bc2285e9603c92dfe9761da850c803a6c542cb4f1be61b8d4aef3a2c90908b8200c88c950b8ae42d25cca9d3e0f40aca31c8a3eb4149cc7b85d1d67624bc97779699e3129785e2ae0a4227d8e90a985aadc1dc889cb829d608683abf0ea5005063a504d3f023c26c5ffa1c18acd63859cddd2706afa4c1dc491b2839c36f0da7da0b35a274ffac971e3c521019858e4027ed55e8dfb1d2b5c66e5c28ddb7477c6612d74457bbcdd16e982c594d6377ec650733aa29299a785b2a7e8cbc7c66bbfdacd7ca63c79fd080f0af815a7b140fa3eb8e96b4587e4e39d8d4b11cab493720664693b6eb116988b266cd58977a71b77913342ef1b1eb6667a9e05dde522a69c008b86d6cce4c66a0e9a77a99028643916411e31365f4f0386e25bec8699a81d6c08b5e0f2abc5232e668e64118765eb07cd76a5aca2fcf046de7b875dccac97c87f9fc785d5ef9ab261299bb3685886f3670425af4f7893694239cfdbcb12038a77237d10b4901e83c998cdb4f0f737b19f8e9c25cb587ce42246217256ee78bf219aa70c1a964c049d17fe372dfd3725f56484d37ee62d528cd2d0237f5b2f45814dc98e0d34dabbe9336db026dcba2ce1352e5a8e5f9a3e5d562e50926df43ab9d3e22fb2319562c981ca59d3df6dc954c15c72cb5ca31a2a5ed35fd218f60a0cbbfce6a4966d27050746382bed893b0e0d94cebe0bcfebc11b312d03a41cb89589a5e08b6f6e2db95b46d8aa403ea25e2116f0278ce0d0b472b422bc3e30257f4b1f686a50a7ece8e9412c4dafe00633cf0709227d03dc31a345212e57da8686af0504239fb70780a5bd9a65d8255bfd517979912f3d2e409167647098607dae2cd98c11a730486b468c70ef55aaac9fdc49d76db52b4a761358e44d5a98bb3679f93a6c6a7a6a80c18aae4f861572d909119e71d50a2bdc61517e168dde45ae11b1363fd210878f16c30a17028181754589d7fd83d77353237281aa9b673aaffaf67aa0b0180971f8eda60bf9d9bed20d0afac857465d341fa80464d2348e000e2d6b73cc1592465387b722d96b029ea41982389ad07707ffaeec746dbe32255fa5d1389597c4f9c07a246d39cef833970aa7dc2380ba6d7bb4084d028c31dd3351ad172ae676d43872e35c08ee8d3b0040a1dec65018593cc1d3957de68e27a0ea44a5b77b303a85e4c9896c53a9a792a86319b5f504c9e7ca3795174baa9673d8d980f02c0631cf6128c387c973769941335bf63111f1a357d73f621cf7ab0b2b62d4d61ade4ecc553288888a732dd078c41cd7aa97c63ead957c197d44713cde72fcf40d0b74948c921a7eeead78dc67bb1979df42dc96e26699d844e446c036004f98a34319d7b09f1047b53c4d150db49dd7281ee6e12f5f19f9c3cf933715599a77a72ab4c624034e13781ce8ed313bb83215cc8faa2c04ad464bbb4d0b1a9bf83e0e0a662b8f99df7d2eca47373597a627eb640cb3fbc596cf4f3bd1693364878ed88982750ac85faebf2d123d52cde49513007817054f7c73f02f55e009c63d4c6c113f177667a9a3ab27cb283652cc75724f2ae1bc81e212663f465df13baa837e93ba7858f348f096c03a75a29fd9af2bb886f18050b7ec3e1806cfbaf552fc190be3babfefd68c7c505b1e5b79d8624b59a04b2d3896a172933d5f341eec34c54001544d170f74534ce7f75c892333d0669d87ed3b0524e0c9d7d0e9dde9ea25788566b120d5e8a37f04b7eeaf156ea8f6867a0930a4e472350bbfe00b3f9d9b2e483eb4980346ae264ef7f2866f1de4e5b571a9df95889fe1dfe737d47cb1e52ccfa691aba5a793ecbf25198ab7f080d352ba9f65eb88024aba5f2b821ea1a4c6f62292cf1db250063b877b0f9431d117f7928c9b440301c9f32c3e601fc1c2e3b41b6904e98e786f8c6b8b27f531493e88f712cb2f05f625bbfab8394c9ed53acb45b39852f4be6a3ba6613952bfe6b8d665dd8735ae36c52d942bcc3e19fe245203a9f8751a9c51ddca2c11c4d8d27aebdd307cddb0af7a7ace4be552efaa5b4726b5098482fcecef9a6f4e06b10762dfcfa6113b1dbe861984094c1ba5d51d0158a6b37a7bd56384bb6b4c4f51ea242f09bb020553b3c561fb2e16e1ae5fd500c76ff5855e9a4f1717e70bffcc61eb6eb0bedd6fe37979a9658d997ea8666034c8c30d8e03b6bff141109fcbee6e49137a9e7474c15532e271413c3ecdf7d8de59e45c14e790347adb25b67bd628e22965098dc5deac465fa5b9dee55012c190e58cbea17ad320571a066e737af9cdd8d4740c0b86d304ccc32dcd11d18df881b8a4ae14f85cfaee41596c0ac2746efdb9145b541b69065f07bd4c3d688826fd043fb4cf6cc90404e324961447d823f38c0ac1d9f17adc01d118ab75d7eb609b2a489d5c752b5f7ed0c84df917e2f3856221f287ce249253327380ae7fee3a4000f991b1a2a8f9f5da3d795c352ccbaababa03df4c3638d97437e3b213933598f0706c4cb22001ede20b27eb419d29616c908c84314fbfb64a59fc2fc28a4a1d897530331922ba0a312495f2c92314c3eda3d2f957349e80debf9890a439109583906ac34077c5c45f8cd9ec0cd69213714e184965a81b84b6a51abd5f44fcfd9a0d5926014dd67c1b898b56fa342b973c9012f711a426789a9275525711a0e1aab9cb4600c2fd6ba85666a88e6aab0b477d1a596ea4b5fcba693c5387900f0d6073bedfde374ce1a301eadb2f9c0d2bafa2652fd3f2731406a08217525d7aedc3ac54b8bbd4672ed0421091f712d11a25b828f57701a6fe17dafb70b85542775090a38f85b5b608b4c469cc43e3629523506162448545c5f626c6e7577797c8fa1a5abacb3b5bdc0f614153d3e485e818a9fcef20130464f607c8ca9b3ced2d4dbdddf0616193a3c3f4b6d749498b3b6cdd1d2e1e9ff00000000000000000000001823324501",
        "00aef434b088579756cdae3a9df38b1e1be40c9dfe0d1142a56eff228378cbaeaeb80cdf5a08ec4ed69b7f6f3a5d9108bd8c955ea89aece417ee1567e2fa5dc7cb2e681f07660116b846c49c6bab55ec846ea8dbfddfb4db88be9a4aebaf9e37e3f9068177cd149f4e14894b33caa447c84fe561ac3376e2441a4432b673784f3fe38090f898939354243833d5aa8ce8b27d18a6ecf5c0217a980ac85b4b654db3dbcf03ac9b55fcb1daad7c833081eb6191217f9144330e21f307ede5b629da7bf320fcf3f7eb15f53e5a51a37d3ac3ca5c154dc889d9b9ce989f621c2826be495c10d19a803f3aa648a2d47d498bf0e2b43dd3dc64216faed906f4bea5a74a409c10a45a15dfd4221295ec2b723906afc4389588dbfa240f5061ce0f1493b05e9fcbe7b1ebd9572a1d1d00832c27710ffc731ac85cf300dea4ba7312a9ee422a402bf461fa715ca71b03b6b0b502c8d7cf728e5016d1c149973ae4265c216d0169e31462eeda91c782df1e7584d83fafdfdc88ef5b4f4859386270706e4116c384a6b8c8ef0dfd469e4b3b4e397450ba4c942b4bb2c18c3a477680d7a3d409550d7391b12937ae6c9e7541251a2f39f1e9edece4ecfac59b6109463345edc3fb1ef203a313739c79ed997a74befb15e6ed474a0b78440234749fccc35420ed57c1df27010cbd5cec921c5aff519d3e87d2521700510773cf0a2ffaec71f0cd7e67a9d64921bfb946598820798eec83511b525e9574750666f19e0815f1d0747f62cb4ee34dc4158af1403a7c99566c506115b8eca84abd59092cc9a7044f900f1b3dd8c8b0e835bc09be8b6ad4d729ec5183224e0aa9d48b551e7ba703fca645003a246510e177137bed913aafdff7b1c596ebdb0b95b3e9fc24cb7b2ad410e103967a29c5b78f6a53fac8328b7b53d14e981c4f76d6000c53af115c6426a802d639199404f94c7fff8743d7d74c7b2c0b2411d38bea2868ad18b54672287b5f3220a9ba326cbb2cae19d5ab00e4e3167e44450506732dbea83ed735a74f7a5c7d1bf790d4266ca91477125d2dbab35320a258b9491e7eeb519d8805991f9b90a84b7eda5d1ac50130ff090511841d6f218e95456c9196cc261ee19ea4cb0dd6f15608adca590abefc01eb2ba02e788ecf596c50ead2530baa8db2ce4e009099b74451a0e93a0451338e76e18ca27cbdb4efc708fecd9fdd449eba217b04565259ec0187ae99e2fac56e11d42496462b6477373c7bfcd912f56756f6c8b95236998f33a3ea15047bcc90b4a75aaf0c4f98e186da6c66cdcd7245ce661988f4d826b1fd7305411ea3f56e4a27b0a1a79c5abe59efd91fa20a45ffa09edd350692cc4288934e840ea9bdd173d513a1cacb333af6fc4c8b30415d192312a4466f3788e65393f8b2e48211afc66b3a4067f566935b02fe9d1d1589905907404c01a4e1dbe6134802991d3e03468b4ef6f539dd484d0bbb09d23eed62654199f4ca3e1ad00fa24015dc2ce719bb37a29f9ce1629404456e1e8584de8dcfcae59957f5c20a4135cc7bb321583cfee5a36ed427b594d070279ea0c039fd837a23d6c07d7400d5fc4c057ebccd823f37b7dd8344979da4199c06480a4891e03364826f109e6a792970d5d0275eb30e384b07c3a4fdad0d8e4a36189499f04991a0984566a23d1146dab038b45fef30a35055bf88273101fcd153792fd8ac2922515e4603d87031ce8af165980039c2d5877f80ea746c8b54c28f9de435d9cbdf5e9dcd409258e90ba8d72530460cacda6781f7e3b0de4fe25026638310d50386038c9791c766b730e41316278323303269478c2fb4a43b22698ddf0a77f6c7e73f5585d6"
      ],
      "sequence": 4294967294
    }
  ],
  "vout": [
    {
      "value": 1.0,
      "n": 0,
      "scriptPubKey": {
        "asm": "OP_RETURN 3efd506329aa508bfff44db4e947587aeb2651427e57a33960d6e38195f7a446 8bb7080a5209d0fe19ee8c005688e0c8c9478db04305dc8288357781f9ddc81eab97282a7229f0de39ceac2076a8c0e8e967ad906325fca2a81557a1d9fde83ecbf7484a124990be59aecc4016c8a0888907cdf003459cc2c87537c1b99d885eebd7686a3269b09e798eec6036e880a8a927edd02365bce2e85517e199bda87e0b37888ad289507e996e0c80d608604849c70d30c3855c0208b5f701795d489e2b17a8aaf2a9705eb94e2ca0f628406869e72d10e3a57c222895d721597d68be4b77c8ca92c9103ed92e4cc09648200809874d7083c51c4248f5b741391d08de6b57e8eab2e9301ef90e6ce0b668002829a76d50a3e53c6268d59761193d28fe8bb7080a5209d0fe19ee8c005688e0c8c9478db04305dc8288357781f9ddc81eab97282a7229f0de39ceac2076a8c0e8e967ad906325fca2a81557a1d9fde83ecbf7484a124990be59aecc4016c8a0888907cdf003459cc2c87537c1b99d885eebd7686a3269b09e798eec6036e880a8a927edd02365bce2e85517e199bda87e0b37888ad289507e996e0c80d608604849c70d30c3855c0208b5f701795d489e2b17a8aaf2a9705eb94e2ca0f628406869e72d10e3a57c222895d721597d68be4b77c8ca92c9103ed92e4cc09648200809874d7083c51c4248f5b741391d08de6b57e8eab2e9301ef90e6ce0b668002829a76d50a3e53c6268d59761193d28fe8bb7080a5209d0fe19ee8c005688e0c8c9478db04305dc8288357781f9ddc81eab97282a7229f0de39ceac2076a8c0e8e967ad906325fca2a81557a1d9fde83ecbf7484a124990be59aecc4016c8a0888907cdf003459cc2c87537c1b99d885eebd7686a3269b09e798eec6036e880a8a927edd02365bce2e85517e199bda87e0b37888ad289507e996e0c80d608604849c70d30c3855c0208b5f701795d489e2b17a8aaf2a9705eb94e2ca0f628406869e72d10e3a57c222895d721597d68be4b77c8ca92c9103ed92e4cc09648200809874d7083c51c4248f5b741391d08de6b57e8eab2e9301ef90e6ce0b668002829a76d50a3e53c6268d59761193d28fe8bb7080a5209d0fe19ee8c005688e0c8c9478db04305dc8288357781f9ddc81eab97282a7229f0de39ceac2076a8c0e8e967ad906325fca2a81557a1d9fde83ecbf7484a124990be59aecc4016c8a0888907cdf003459cc2c87537c1b99d885eebd7686a3269b09e798eec6036e880a8a927edd02365bce2e85517e199bda87e0b37888ad289507e996e0c80d608604849c70d30c3855c0208b5f701795d489e2b17a8aaf2a9705eb94e2ca0f628406869e72d10e3a57c222895d721597d68be4b77c8ca92c9103ed92e4cc09648200809874d7083c51c4248f5b741391d08de6b57e8eab2e9301ef90e6ce0b668002829a76d50a3e53c6268d59761193d28fe8bb7080a5209d0fe19ee8c005688e0c8c9478db04305dc8288357781f9ddc81eab97282a7229f0de39ceac2076a8c0e8e967ad906325fca2a81557a1d9fde83ecbf7484a124990be59aecc4016c8a0888907cdf003459cc2c87537c1b99d885eebd7686a3269b09e798eec6036e880a8a927edd02365bce2e85517e199bda87e0b37888ad289507e996e0c80d60860489259ee3d4e600d67f0398a816380527e2f097877249ca1e9d0e0d2c6f52cf06b",
        "hex": "6a203efd506329aa508bfff44db4e947587aeb2651427e57a33960d6e38195f7a4464db0048bb7080a5209d0fe19ee8c005688e0c8c9478db04305dc8288357781f9ddc81eab97282a7229f0de39ceac2076a8c0e8e967ad906325fca2a81557a1d9fde83ecbf7484a124990be59aecc4016c8a0888907cdf003459cc2c87537c1b99d885eebd7686a3269b09e798eec6036e880a8a927edd02365bce2e85517e199bda87e0b37888ad289507e996e0c80d608604849c70d30c3855c0208b5f701795d489e2b17a8aaf2a9705eb94e2ca0f628406869e72d10e3a57c222895d721597d68be4b77c8ca92c9103ed92e4cc09648200809874d7083c51c4248f5b741391d08de6b57e8eab2e9301ef90e6ce0b668002829a76d50a3e53c6268d59761193d28fe8bb7080a5209d0fe19ee8c005688e0c8c9478db04305dc8288357781f9ddc81eab97282a7229f0de39ceac2076a8c0e8e967ad906325fca2a81557a1d9fde83ecbf7484a124990be59aecc4016c8a0888907cdf003459cc2c87537c1b99d885eebd7686a3269b09e798eec6036e880a8a927edd02365bce2e85517e199bda87e0b37888ad289507e996e0c80d608604849c70d30c3855c0208b5f701795d489e2b17a8aaf2a9705eb94e2ca0f628406869e72d10e3a57c222895d721597d68be4b77c8ca92c9103ed92e4cc09648200809874d7083c51c4248f5b741391d08de6b57e8eab2e9301ef90e6ce0b668002829a76d50a3e53c6268d59761193d28fe8bb7080a5209d0fe19ee8c005688e0c8c9478db04305dc8288357781f9ddc81eab97282a7229f0de39ceac2076a8c0e8e967ad906325fca2a81557a1d9fde83ecbf7484a124990be59aecc4016c8a0888907cdf003459cc2c87537c1b99d885eebd7686a3269b09e798eec6036e880a8a927edd02365bce2e85517e199bda87e0b37888ad289507e996e0c80d608604849c70d30c3855c0208b5f701795d489e2b17a8aaf2a9705eb94e2ca0f628406869e72d10e3a57c222895d721597d68be4b77c8ca92c9103ed92e4cc09648200809874d7083c51c4248f5b741391d08de6b57e8eab2e9301ef90e6ce0b668002829a76d50a3e53c6268d59761193d28fe8bb7080a5209d0fe19ee8c005688e0c8c9478db04305dc8288357781f9ddc81eab97282a7229f0de39ceac2076a8c0e8e967ad906325fca2a81557a1d9fde83ecbf7484a124990be59aecc4016c8a0888907cdf003459cc2c87537c1b99d885eebd7686a3269b09e798eec6036e880a8a927edd02365bce2e85517e199bda87e0b37888ad289507e996e0c80d608604849c70d30c3855c0208b5f701795d489e2b17a8aaf2a9705eb94e2ca0f628406869e72d10e3a57c222895d721597d68be4b77c8ca92c9103ed92e4cc09648200809874d7083c51c4248f5b741391d08de6b57e8eab2e9301ef90e6ce0b668002829a76d50a3e53c6268d59761193d28fe8bb7080a5209d0fe19ee8c005688e0c8c9478db04305dc8288357781f9ddc81eab97282a7229f0de39ceac2076a8c0e8e967ad906325fca2a81557a1d9fde83ecbf7484a124990be59aecc4016c8a0888907cdf003459cc2c87537c1b99d885eebd7686a3269b09e798eec6036e880a8a927edd02365bce2e85517e199bda87e0b37888ad289507e996e0c80d60860489259ee3d4e600d67f0398a816380527e2f097877249ca1e9d0e0d2c6f52cf06b",
        "type": "nulldata"
      }
    },
    {
      "value": 499976.6113,
      "n": 1,
      "scriptPubKey": {
        "asm": "1 2caa469a5100adf877348e5c33b53a492eb72a1ad5361fe74ec374f5211a912c",
        "hex": "51202caa469a5100adf877348e5c33b53a492eb72a1ad5361fe74ec374f5211a912c",
        "reqSigs": 1,
        "type": "witness_v1_scripthash",
        "addresses": [
          "3QJmnh"
        ]
      }
    }
  ],
  "blockhash": "e950f66e7d48487e03ac7a1b4e7864aa28758accf0e3d98358cdf64a352531e0",
  "confirmations": 1,
  "time": 1764181937,
  "blocktime": 1764181937
}