{
  "hex": "0100000000010122a56229be900836e927ce404a8bedd4857fec375f289b308e6b132fac49cf310100000000feffffff026076a04b792d0000225120d61f67bbb6e6e6dcd20fecfb703f56510e09a5cfd2d72881a21d0e4fdb94e1a400e1f50500000000fdd5046a206b475a62f633d859c357d2c5a5e145c8eafbcdcb842d3d9041ba17f272daa6bf4db004e41647ab4dbdf496bcb605618531018ebbf2f336281cab04bac61302c70f36a2c436678b6d9dd4b69c962541a51121ae9bd2d316083c8b249ae63322e72f1682a45607eb0dfdb4d6fcf64521c57141cefbb2b376685ceb44fa865342874f76e2847627cb2ddd94f6dcd66501e55161eedb929356487ccb64daa67362a76f56c26496c72bcd3d74163c3685e105b1810e3b7273b6a89c2b843a469382478fb62244b6e70bed1d54361c16a5c12591a12e1b52539688bc0ba41a66b3a267af960224d6876b8d7d34567c76c5a145f1c14e7b3233f6e8dc6bc47a06d3c207cff66204f6a74bad5d14765c56e58165d1e16e5b1213d6c8fc4be45a26f3e227efd642e41647ab4dbdf496bcb605618531018ebbf2f336281cab04bac61302c70f36a2c436678b6d9dd4b69c962541a51121ae9bd2d316083c8b249ae63322e72f1682a45607eb0dfdb4d6fcf64521c57141cefbb2b376685ceb44fa865342874f76e2847627cb2ddd94f6dcd66501e55161eedb929356487ccb64daa67362a76f56c26496c72bcd3d74163c3685e105b1810e3b7273b6a89c2b843a469382478fb62244b6e70bed1d54361c16a5c12591a12e1b52539688bc0ba41a66b3a267af960224d6876b8d7d34567c76c5a145f1c14e7b3233f6e8dc6bc47a06d3c207cff66204f6a74bad5d14765c56e58165d1e16e5b1213d6c8fc4be45a26f3e227efd642e41647ab4dbdf496bcb605618531018ebbf2f336281cab04bac61302c70f36a2c436678b6d9dd4b69c962541a51121ae9bd2d316083c8b249ae63322e72f1682a45607eb0dfdb4d6fcf64521c57141cefbb2b376685ceb44fa865342874f76e2847627cb2ddd94f6dcd66501e55161eedb929356487ccb64daa67362a76f56c26496c72bcd3d74163c3685e105b1810e3b7273b6a89c2b843a469382478fb62244b6e70bed1d54361c16a5c12591a12e1b52539688bc0ba41a66b3a267af960224d6876b8d7d34567c76c5a145f1c14e7b3233f6e8dc6bc47a06d3c207cff66204f6a74bad5d14765c56e58165d1e16e5b1213d6c8fc4be45a26f3e227efd642e41647ab4dbdf496bcb605618531018ebbf2f336281cab04bac61302c70f36a2c436678b6d9dd4b69c962541a51121ae9bd2d316083c8b249ae63322e72f1682a45607eb0dfdb4d6fcf64521c57141cefbb2b376685ceb44fa865342874f76e2847627cb2ddd94f6dcd66501e55161eedb929356487ccb64daa67362a76f56c26496c72bcd3d74163c3685e105b1810e3b7273b6a89c2b843a469382478fb62244b6e70bed1d54361c16a5c12591a12e1b52539688bc0ba41a66b3a267af960224d6876b8d7d34567c76c5a145f1c14e7b3233f6e8dc6bc47a06d3c207cff66204f6a74bad5d14765c56e58165d1e16e5b1213d6c8fc4be45a26f3e227efd642e41647ab4dbdf496bcb605618531018ebbf2f336281cab04bac61302c70f36a2c436678b6d9dd4b69c962541a51121ae9bd2d316083c8b249ae63322e72f1682a45607eb0dfdb4d6fcf64521c57141cefbb2b376685ceb44fa865342874f76e2847627cb2ddd94f6dcd66501e55161eedb929356487ccb64daa67362a76f56c26496c72bcd3d74163c3685e105b1810e3ae38ae49169c0aca5efcd6862b7dc5d87e126afa78457d41b2fb33eeee893e902fd75092497de73bfc74856bc7cee5b6c5e309d1c2ebf491603d1b938c7e3a20dae150c2636db0a05b62689eaa28896b33970b6b476a98090e2e6d3b6e79191b3c350b7619851c1562d09ac63e46034118f260fbd34d8ec23356541491b03b1f08e9f45ac197db2c447ca3f8314e49fbafdbb015960f70a980d2d533c2a784aa3966e3c62a73ed26e19e1f8048981a15a46c360ef84f10b75e7e180a830c5970380af98e9e016391e5ef53383f71e9271064fa66393819263dda04c70b54722a0d37815edc88b70ba59fef5a90ba337f1201eaee1331cca7bed8015420be10380973b22986cd244bec6a214003866c47476b350f667f57e92f51ce48b7a8ff6f0359852b955f3b390ae89862234e0deaaa0d45fef42121a8082737525f6fa0b3e79a326ba0b7f6560ce254707d7c82509cc840bf18a9c1ef532559ed8d9ef49e134d57e0e92b63b0d445cbd5c617258832a5e9bec32dce0dad6319fb81ab460444b68ab449094fb27e2cb5b088e669f9f54559eb603eee198941c1daae80227dbb55a56f6fb7df1219d97d905c0fbdc8e3fdcf30c37eedc4131634e3dfd10ee79b550b60eb70fe50165c6b07ecc5990dec9f81658fd032df6b7c7b43b0099d74033f0289628e73397170170adc4ec76ea94a8598512a8bf065c258f0e0a1755689efea956af383882769fa9a4f459067e905cbebbe807fc3f63d77f9ee1479f4a768d01dac1f85b3bf6bc7866c9d4d3e68e605ccab4835f9f5071d7cb62c12b80a849b497d69c354fea27e86f457a787a43dd3e4a51bcaa4a05cbe31ab000e8f5b71612e80a28ccb8df1df35420f2361a8d30a4de7a273804a2606ffc94273c5d4cef70749f3c265f1d7d887ccd1b6fa4059a560cf4019a2f7518598e3e228f04dbda16be1b825a4976721a00604ef353188dec05ce9f897413c9f3835acdfecfcd104136682d93249e9cdac97b2140e5a2845b3fd47ce84183b044d3eea7e1f4f935c9a4807801b232374eb4951bbe21769fe5aa03894f2db793e6fee1d0684115539a3ca0e6d56f8ab695dc74a170dbe31b1547dd26b1b821a2ca1ce61e07fe41b5125328d6ca1cbd810e7f845d0a8be8e7495fefe046e0f23c6b6c8bae14a0721fa70d8496332fafafaf5cdd9dbf1b0bfd55536989a41ababf9e96d041464339b305b2ca14c176674c72eb3077c282704332bf1e3a3fe844cf3567a3f5f8172a1cd590245dd2252b1107a7afb6146631a8c88f5e12c02fe1d0950a0805e07d5eff52ba84e9be4c1263c2ef69ad34d526eb14c2e4096fc025a22ef174734918f0e9c9bffb686555ecf960a1fd6aa8f695a7cb39b39ed434cca1997019811c8d942f3ff0a580e7d9332d4518f3b708728a3d89c8c6ce80ac06bf121aaefb3af49d692c7638f29b57b27a0d862764984bcce93c93bd78e1c600f9a7e3074d3d70b9b8c1eca84f183508595e21504c240a34240c99135337dbd90b460d33d25f5e17efc81cea9d4a8b412568a866614893f9f3d06b7166825440ec51d09d7a4c43691dfb85ab4c58ad2293f095113bd72d5861c2b678dbac06a57d0f0efcacafb76058d79f8651b0e4d4da496bcf21a1c5d70ce0f29e05b039db1abe187f57ce4cf036e017895766fbd8662b36fd7ad3888d6f97320b4c00177a357717af588686e6b97e88f69a07359e0d4124852a6df8d8cfeca733095e4f6d2e27aa1207172f55aa332839d5205a4bf5426c012203cae29d3ec339558904f00c56acd0a10672995c74ede7ad3c06b4d514b40a71cfd90d16afa750319de522200e5df5b4198f88b32669f7e277208fca09a157176ade520deafaaf0ebb11cf7339a52ca42c803e6f9852fa843123a566a57bc09e1f12c4b018d08ebcf31acaadb1840213d2df7b1ccf60fd572e5b32ed37a1e25e75ddec1398359df2173fc8c31363b2346b6c9b803cba79ef9161753264df7648d452a18fa553a8bad964c46220f31a94bfca284ff517e0e8a902993449eaae616bf2dde3392b9b2208a36f94fe755cb242834dfbb10e3a6d9dcb8faac46b856f3c583fa743c82c3862dd718d88428e0868ea1455ab98ca724c055fbf87e1f9bb078e99221bcf7cf9fa7f89e011ebe44912a12a51a85bc7986b0f3893639c109d16ca7fbcf2305a266a4637c18bb0ab39c07bc22833cf99529b5c135b0a255f32b08ad2211196881cd4a9d45bf69c2ab389aa770cc8b277d2c305b8c6c939049d8382ef8563b732fcdbf5bf21be5f151adbb1887d614e7bc00b1eb008d63b20d9777c5057fb1c22bbbe7eb72557aae68eccf66503a727df654d3f4146a1e73c83909ffd2bfda8f8c7dbd95464fd9186b7de3355d1651699440fa5686b1319cf2e95a67e621e57df4e3c5a6a6d18a44a71f78e38c1a72230cd9f58bdb15decebc3edc10141786aefb89d715030383bcb13fd5f92c8b2c63c515e71b6cd12ee4335f0b69fbe25aec20e7fae53445b7e596456c2f71e2e7e256efd56f32ae2425dfc0ef31b7ad36dea00f96fbdd66294b8f1f564bb2ac780858b030647c0bb7b98b76e21cb6701edce8a9879681c956316ff7ec735417bb6595df2c856eee3a843b5ce3caa44830ad2aa9a12fb4f3d9800fe32cd347f95b134c5fa62a102ed500c5921ac69dff9ca4081878a0e6b4e7a4e96b7d06ab7daab5bb9d865ae0a2a9ced0d8a492d16f4bdb32fc9d4478318bc2b34e73b58c2a1b6aed7d8569bdd0b6ba81ce43ab3434953299b584986f3ecacdfff32c9851617e129cd6e163b19ca24c7aab865bc412c381be2914a7c03fabbd83b07f9f1ea4fcc2d69d4250a9ea9108b6c21e430cf1ab492befe8402861b09758234e176ab0d93c41dfd867f17b8531d2d10762cb186d781df72326e7712aef053e7b5e21bcb089047b107ab4c8ddef68175e249c4ad07d9bb93046f7e1affa1a5f98b59d52af943b0570abe6e7e792e7ffde1bd170e94ea0da245499febaf89a477bf7b01600a0d1fb81398a632f3b442d91237d43b854674a1365169fdf59a6ec78a1ca7e8a9f17faa61c8f23bb847bd85432f149b943deac6566044eed51ec04a597fa65f04dfce9629a15f876050f3ace6a6442c61fd87d0154aaeb8b337031c50feca6b681828d70acb1c23bf0fff8f99b442ea1d7a957d0860ad72d4423e6f5f2e412623f4a42d200bdba94ae29aaa4ad2c54e11676c703cf7fe3080ecc34848fa401582615760c4f8ba8284bf4441f90cca07fc0930da9a92713eb70917d96e020b5acff75e42735968a7dc0382842779e013136f46f354caab6198d847d8d4e081200e28292c646b7e83c0c5ccf032383f50545b5c63686d6eaaaed0d30103415157737d808d9195a1a5ced5eb020b11191a324748576d71737f8d97afbc00000000000000000000000000000000000000000c1b2b3c01fd210500dd00f6dd627191315f1e6dbd703997db601a8ae0683fc3b98fcc687ba69e3ded3cd1720265dd68db5f43e9e962ed52475b3fa22108b6631700c698493c4d3a318092ab74237f46cd7f3230703eca913b653bfa4784612536c97d606ffdb15daae717ab4fd6bee7c4e20a0e2e18d8f2f530ca95f8c984cedddcf69f93c1010789e4db9fc2af876e344487c95aba3f0064739559b2a43b28bbcd7f4406d427f6b400d873f8ca6c41ce9cc2dcd24dedb7ef3c2e65e17338672465855eb9e2395b58b9d063f523241032bd2861c7d8f171fe05191b3acafb53b4384aa08a8567c4d6c99647d5d5f5b62c7a7f040ccb10d967e6065a88d02ebbf63755fde59bc24ed644374a2d1a65cf9c54eab87bb182e94ca244dd4d48aa30c5013cd7d97c2014788d15db58d7b596cb04e610f1e41cfef18bc4aaf169db06cb5458510b31c81a43ac4b78d5bf03322e760f65899192b7ae405620d98f42c41abe56948c2edd36dc97f9fc43e78f6bd3df155043f52795ff66fbe4b180b0e2f1f2c812c580d8c7ed1b7ca4eefc1baa356607dbd60f30e22de745380f480cfd08d67e8cbebf315300ebd7a4b4c83be89f3fccb71df8df0e6e22505c73a90900325f0d982af67e9adf83cab51531667b1f80b1c16b1d872937714a1135ccd25cacece83ee392371ead62ce77e8f15cc4868895946d4d476e165fc0b6693fbfb42c9bd6cb7f4eccfc737f18563ae538394843314fc999a7d882a4ac4df5e0f46251dbc78b27bb8c8e1b3a16460ce1b1b99ef62350d87a00d510629bcc9a4f5887d84dbd6a318299262003a72a59340f2457de5756819abe995663cc681ba138e071c73a11093effa2d313240384ee82b9d473e1f88a583eb97d2c7966ea05f8cec58ed33f34d9f03e33f0772abf1f5986a38e7e1455bccc8536cdc4819299c7427ddd8ad9a94a7a4462c083dd050ab5d4e8d075d62108ade2b3b3e21813c4e93a3b2c3659e7063043795f1b1a760d8e40c04d89a2b79671f95ce4d206d3a1c0a2c17a7cd2e862c804472e04666ddefb2d8d6e84fa69209c87734a1547c37ded23297523f14dbf01184fa4401b8a3e77885f1e5a2c85dc05df2de92789dfcb8c37f7aa21a93b4e9c71b0172efa4ecca78749589e46a20da8bdb959eb42cfa28dcb12ddcf35d7e7ae63289e8ca24b620aac3ad8c21aa94627301d4af714a3130593938a5c9839e8cb1f73b6e8c5929103b27bb88f10aee03691c98a11b6537a15783545d656f9da2d5ba2c0d5733bb779c9608d0d0189805848c1b4f09dd79c95b666d223fc842e14cc9bc352b2f84086c97e120550f80f1b2af5bc60bf03d57255f13f2725250dbe0ba18058f27ee4a382e4d29e46e2e7612a0bbfc4baf303cd0210a8496cef9c7d24e3cb07f0f86c37017f33175d6c72a97f547f61b1bddcddbecdb58aa9dac8d93f9791b832f1a7d570f0186a73c2a8e1a270e89d67f865b9ac9f30f5a7af4a3dc2b365b2fc999e088723978921fe1641054c1785538f6393d738dff9eb86c6b4972307f1b8c0190d79fab171158dda6b3d8866db0c118b4a58c6a7d45a52bdcfc44c379d73d0c5d81db12bb433d5f2fe927ef2330df2123a648256db68fc655f7f45280e556f70e96502c88698fa0b160107fbdfd1dbee866f1f2a7f5228fac32e93ea27e44f76736314fe20ee66c40d68a97f6ffb40d0128fc151299ef2d259a2f7434f49e405531a4a67f303c55b13991e913c59258a72b46e024616b1b9694c1321d4191a5da3b5ceee17c168ef0085901e12ada19e02ab7a3b0f9be9ed22f794cc4a6afe76ea85a23539de17fd2f3c7a1167697a8e631eebe869cbc5b4d5af1b6c000000",
  "txid": "a276676b880c2f37a1cb9212f02fd18f4c4024707bd1707b287ce8498656f4b9",
  "hash": "80be4fbd01bb52da44f242d99c716b4a5cce4e388196827d837f9a6e7904ba87",
  "size": 5085,
  "vsize": 2278,
  "version": 1,
  "locktime": 108,
  "vin": [
    {
      "txid": "31cf49ac2f136b8e309b285f37ec7f85d4ed8b4a40ce27e9360890be2962a522",
      "vout": 1,
      "scriptSig": {
        "asm": "",
        "hex": ""
      },
      "txinwitness": [
        "2497de73bfc74856bc7cee5b6c5e309d1c2ebf491603d1b938c7e3a20dae150c2636db0a05b62689eaa28896b33970b6b476a98090e2e6d3b6e79191b3c350b7619851c1562d09ac63e46034118f260fbd34d8ec23356541491b03b1f08e9f45ac197db2c447ca3f8314e49fbafdbb015960f70a980d2d533c2a784aa3966e3c62a73ed26e19e1f8048981a15a46c360ef84f10b75e7e180a830c5970380af98e9e016391e5ef53383f71e9271064fa66393819263dda04c70b54722a0d37815edc88b70ba59fef5a90ba337f1201eaee1331cca7bed8015420be10380973b22986cd244bec6a214003866c47476b350f667f57e92f51ce48b7a8ff6f0359852b955f3b390ae89862234e0deaaa0d45fef42121a8082737525f6fa0b3e79a326ba0b7f6560ce254707d7c82509cc840bf18a9c1ef532559ed8d9ef49e134d57e0e92b63b0d445cbd5c617258832a5e9bec32dce0dad6319fb81ab460444b68ab449094fb27e2cb5b088e669f9f54559eb603eee198941c1daae80227dbb55a56f6fb7df1219d97d905c0fbdc8e3fdcf30c37eedc4131634e3dfd10ee79b550b60eb70fe50165c6b07ecc5990dec9f81658fd032df6b7c7b43b0099d74033f0289628e73397170170adc4ec76ea94a8598512a8bf065c258f0e0a1755689efea956af383882769fa9a4f459067e905cbebbe807fc3f63d77f9ee1479f4a768d01dac1f85b3bf6bc7866c9d4d3e68e605ccab4835f9f5071d7cb62c12b80a849b497d69c354fea27e86f457a787a43dd3e4a51bcaa4a05cbe31ab000e8f5b71612e80a28ccb8df1df35420f2361a8d30a4de7a273804a2606ffc94273c5d4cef70749f3c265f1d7d887ccd1b6fa4059a560cf4019a2f7518598e3e228f04dbda16be1b825a4976721a00604ef353188dec05ce9f897413c9f3835acdfecfcd104136682d93249e9cdac97b2140e5a2845b3fd47ce84183b044d3eea7e1f4f935c9a4807801b232374eb4951bbe21769fe5aa03894f2db793e6fee1d0684115539a3ca0e6d56f8ab695dc74a170dbe31b1547dd26b1b821a2ca1ce61e07fe41b5125328d6ca1cbd810e7f845d0a8be8e7495fefe046e0f23c6b6c8bae14a0721fa70d8496332fafafaf5cdd9dbf1b0bfd55536989a41ababf9e96d041464339b305b2ca14c176674c72eb3077c282704332bf1e3a3fe844cf3567a3f5f8172a1cd590245dd2252b1107a7afb6146631a8c88f5e12c02fe1d0950a0805e07d5eff52ba84e9be4c1263c2ef69ad34d526eb14c2e4096fc025a22ef174734918f0e9c9bffb686555ecf960a1fd6aa8f695a7cb39b39ed434cca1997019811c8d942f3ff0a580e7d9332d4518f3b708728a3d89c8c6ce80ac06bf121aaefb3af49d692c7638f29b57b27a0d862764984bcce93c93bd78e1c600f9a7e3074d3d70b9b8c1eca84f183508595e21504c240a34240c99135337dbd90b460d33d25f5e17efc81cea9d4a8b412568a866614893f9f3d06b7166825440ec51d09d7a4c43691dfb85ab4c58ad2293f095113bd72d5861c2b678dbac06a57d0f0efcacafb76058d79f8651b0e4d4da496bcf21a1c5d70ce0f29e05b039db1abe187f57ce4cf036e017895766fbd8662b36fd7ad3888d6f97320b4c00177a357717af588686e6b97e88f69a07359e0d4124852a6df8d8cfeca733095e4f6d2e27aa1207172f55aa332839d5205a4bf5426c012203cae29d3ec339558904f00c56acd0a10672995c74ede7ad3c06b4d514b40a71cfd90d16afa750319de522200e5df5b4198f88b32669f7e277208fca09a157176ade520deafaaf0ebb11cf7339a52ca42c803e6f9852fa843123a566a57bc09e1f12c4b018d08ebcf31acaadb1840213d2df7b1ccf60fd572e5b32ed37a1e25e75ddec1398359df2173fc8c31363b2346b6c9b803cba79ef9161753264df7648d452a18fa553a8bad964c46220f31a94bfca284ff517e0e8a902993449eaae616bf2dde3392b9b2208a36f94fe755cb242834dfbb10e3a6d9dcb8faac46b856f3c583fa743c82c3862dd718d88428e0868ea1455ab98ca724c055fbf87e1f9bb078e99221bcf7cf9fa7f89e011ebe44912a12a51a85bc7986b0f3893639c109d16ca7fbcf2305a266a4637c18bb0ab39c07bc22833cf99529b5c135b0a255f32b08ad2211196881cd4a9d45bf69c2ab389aa770cc8b277d2c305b8c6c939049d8382ef8563b732fcdbf5bf21be5f151adbb1887d614e7bc00b1eb008d63b20d9777c5057fb1c22bbbe7eb72557aae68eccf66503a727df654d3f4146a1e73c83909ffd2bfda8f8c7dbd95464fd9186b7de3355d1651699440fa5686b1319cf2e95a67e621e57df4e3c5a6a6d18a44a71f78e38c1a72230cd9f58bdb15decebc3edc10141786aefb89d715030383bcb13fd5f92c8b2c63c515e71b6cd12ee4335f0b69fbe25aec20e7fae53445b7e596456c2f71e2e7e256efd56f32ae2425dfc0ef31b7ad36dea00f96fbdd66294b8f1f564bb2ac780858b030647c0bb7b98b76e21cb6701edce8a9879681c956316ff7ec735417bb6595df2c856eee3a843b5ce3caa44830ad2aa9a12fb4f3d9800fe32cd347f95b134c5fa62a102ed500c5921ac69dff9ca4081878a0e6b4e7a4e96b7d06ab7daab5bb9d865ae0a2a9ced0d8a492d16f4bdb32fc9d4478318bc2b34e73b58c2a1b6aed7d8569bdd0b6ba81ce43ab3434953299b584986f3ecacdfff32c9851617e129cd6e163b19ca24c7aab865bc412c381be2914a7c03fabbd83b07f9f1ea4fcc2d69d4250a9ea9108b6c21e430cf1ab492befe8402861b09758234e176ab0d93c41dfd867f17b8531d2d10762cb186d781df72326e7712aef053e7b5e21bcb089047b107ab4c8ddef68175e249c4ad07d9bb93046f7e1affa1a5f98b59d52af943b0570abe6e7e792e7ffde1bd170e94ea0da245499febaf89a477bf7b01600a0d1fb81398a632f3b442d91237d43b854674a1365169fdf59a6ec78a1ca7e8a9f17faa61c8f23bb847bd85432f149b943deac6566044eed51ec04a597fa65f04dfce9629a15f876050f3ace6a6442c61fd87d0154aaeb8b337031c50feca6b681828d70acb1c23bf0fff8f99b442ea1d7a957d0860ad72d4423e6f5f2e412623f4a42d200bdba94ae29aaa4ad2c54e11676c703cf7fe3080ecc34848fa401582615760c4f8ba8284bf4441f90cca07fc0930da9a92713eb70917d96e020b5acff75e42735968a7dc0382842779e013136f46f354caab6198d847d8d4e081200e28292c646b7e83c0c5ccf032383f50545b5c63686d6eaaaed0d30103415157737d808d9195a1a5ced5eb020b11191a324748576d71737f8d97afbc00000000000000000000000000000000000000000c1b2b3c01",
        "00dd00f6dd627191315f1e6dbd703997db601a8ae0683fc3b98fcc687ba69e3ded3cd1720265dd68db5f43e9e962ed52475b3fa22108b6631700c698493c4d3a318092ab74237f46cd7f3230703eca913b653bfa4784612536c97d606ffdb15daae717ab4fd6bee7c4e20a0e2e18d8f2f530ca95f8c984cedddcf69f93c1010789e4db9fc2af876e344487c95aba3f0064739559b2a43b28bbcd7f4406d427f6b400d873f8ca6c41ce9cc2dcd24dedb7ef3c2e65e17338672465855eb9e2395b58b9d063f523241032bd2861c7d8f171fe05191b3acafb53b4384aa08a8567c4d6c99647d5d5f5b62c7a7f040ccb10d967e6065a88d02ebbf63755fde59bc24ed644374a2d1a65cf9c54eab87bb182e94ca244dd4d48aa30c5013cd7d97c2014788d15db58d7b596cb04e610f1e41cfef18bc4aaf169db06cb5458510b31c81a43ac4b78d5bf03322e760f65899192b7ae405620d98f42c41abe56948c2edd36dc97f9fc43e78f6bd3df155043f52795ff66fbe4b180b0e2f1f2c812c580d8c7ed1b7ca4eefc1baa356607dbd60f30e22de745380f480cfd08d67e8cbebf315300ebd7a4b4c83be89f3fccb71df8df0e6e22505c73a90900325f0d982af67e9adf83cab51531667b1f80b1c16b1d872937714a1135ccd25cacece83ee392371ead62ce77e8f15cc4868895946d4d476e165fc0b6693fbfb42c9bd6cb7f4eccfc737f18563ae538394843314fc999a7d882a4ac4df5e0f46251dbc78b27bb8c8e1b3a16460ce1b1b99ef62350d87a00d510629bcc9a4f5887d84dbd6a318299262003a72a59340f2457de5756819abe995663cc681ba138e071c73a11093effa2d313240384ee82b9d473e1f88a583eb97d2c7966ea05f8cec58ed33f34d9f03e33f0772abf1f5986a38e7e1455bccc8536cdc4819299c7427ddd8ad9a94a7a4462c083dd050ab5d4e8d075d62108ade2b3b3e21813c4e93a3b2c3659e7063043795f1b1a760d8e40c04d89a2b79671f95ce4d206d3a1c0a2c17a7cd2e862c804472e04666ddefb2d8d6e84fa69209c87734a1547c37ded23297523f14dbf01184fa4401b8a3e77885f1e5a2c85dc05df2de92789dfcb8c37f7aa21a93b4e9c71b0172efa4ecca78749589e46a20da8bdb959eb42cfa28dcb12ddcf35d7e7ae63289e8ca24b620aac3ad8c21aa94627301d4af714a3130593938a5c9839e8cb1f73b6e8c5929103b27bb88f10aee03691c98a11b6537a15783545d656f9da2d5ba2c0d5733bb779c9608d0d0189805848c1b4f09dd79c95b666d223fc842e14cc9bc352b2f84086c97e120550f80f1b2af5bc60bf03d57255f13f2725250dbe0ba18058f27ee4a382e4d29e46e2e7612a0bbfc4baf303cd0210a8496cef9c7d24e3cb07f0f86c37017f33175d6c72a97f547f61b1bddcddbecdb58aa9dac8d93f9791b832f1a7d570f0186a73c2a8e1a270e89d67f865b9ac9f30f5a7af4a3dc2b365b2fc999e088723978921fe1641054c1785538f6393d738dff9eb86c6b4972307f1b8c0190d79fab171158dda6b3d8866db0c118b4a58c6a7d45a52bdcfc44c379d73d0c5d81db12bb433d5f2fe927ef2330df2123a648256db68fc655f7f45280e556f70e96502c88698fa0b160107fbdfd1dbee866f1f2a7f5228fac32e93ea27e44f76736314fe20ee66c40d68a97f6ffb40d0128fc151299ef2d259a2f7434f49e405531a4a67f303c55b13991e913c59258a72b46e024616b1b9694c1321d4191a5da3b5ceee17c168ef0085901e12ada19e02ab7a3b0f9be9ed22f794cc4a6afe76ea85a23539de17fd2f3c7a1167697a8e631eebe869cbc5b4d5af1b"
      ],
      "sequence": 4294967294
    }
  ],
  "vout": [
    {
      "value": 499989.831,
      "n": 0,
      "scriptPubKey": {
        "asm": "1 d61f67bbb6e6e6dcd20fecfb703f56510e09a5cfd2d72881a21d0e4fdb94e1a4",
        "hex": "5120d61f67bbb6e6e6dcd20fecfb703f56510e09a5cfd2d72881a21d0e4fdb94e1a4",
        "reqSigs": 1,
        "type": "witness_v1_scripthash",
        "addresses": [
          "3QJmnh"
        ]
      }
    },
    {
      "value": 1.0,
      "n": 1,
      "scriptPubKey": {
        "asm": "OP_RETURN 6b475a62f633d859c357d2c5a5e145c8eafbcdcb842d3d9041ba17f272daa6bf e41647ab4dbdf496bcb605618531018ebbf2f336281cab04bac61302c70f36a2c436678b6d9dd4b69c962541a51121ae9bd2d316083c8b249ae63322e72f1682a45607eb0dfdb4d6fcf64521c57141cefbb2b376685ceb44fa865342874f76e2847627cb2ddd94f6dcd66501e55161eedb929356487ccb64daa67362a76f56c26496c72bcd3d74163c3685e105b1810e3b7273b6a89c2b843a469382478fb62244b6e70bed1d54361c16a5c12591a12e1b52539688bc0ba41a66b3a267af960224d6876b8d7d34567c76c5a145f1c14e7b3233f6e8dc6bc47a06d3c207cff66204f6a74bad5d14765c56e58165d1e16e5b1213d6c8fc4be45a26f3e227efd642e41647ab4dbdf496bcb605618531018ebbf2f336281cab04bac61302c70f36a2c436678b6d9dd4b69c962541a51121ae9bd2d316083c8b249ae63322e72f1682a45607eb0dfdb4d6fcf64521c57141cefbb2b376685ceb44fa865342874f76e2847627cb2ddd94f6dcd66501e55161eedb929356487ccb64daa67362a76f56c26496c72bcd3d74163c3685e105b1810e3b7273b6a89c2b843a469382478fb62244b6e70bed1d54361c16a5c12591a12e1b52539688bc0ba41a66b3a267af960224d6876b8d7d34567c76c5a145f1c14e7b3233f6e8dc6bc47a06d3c207cff66204f6a74bad5d14765c56e58165d1e16e5b1213d6c8fc4be45a26f3e227efd642e41647ab4dbdf496bcb605618531018ebbf2f336281cab04bac61302c70f36a2c436678b6d9dd4b69c962541a51121ae9bd2d316083c8b249ae63322e72f1682a45607eb0dfdb4d6fcf64521c57141cefbb2b376685ceb44fa865342874f76e2847627cb2ddd94f6dcd66501e55161eedb929356487ccb64daa67362a76f56c26496c72bcd3d74163c3685e105b1810e3b7273b6a89c2b843a469382478fb62244b6e70bed1d54361c16a5c12591a12e1b52539688bc0ba41a66b3a267af960224d6876b8d7d34567c76c5a145f1c14e7b3233f6e8dc6bc47a06d3c207cff66204f6a74bad5d14765c56e58165d1e16e5b1213d6c8fc4be45a26f3e227efd642e41647ab4dbdf496bcb605618531018ebbf2f336281cab04bac61302c70f36a2c436678b6d9dd4b69c962541a51121ae9bd2d316083c8b249ae63322e72f1682a45607eb0dfdb4d6fcf64521c57141cefbb2b376685ceb44fa865342874f76e2847627cb2ddd94f6dcd66501e55161eedb929356487ccb64daa67362a76f56c26496c72bcd3d74163c3685e105b1810e3b7273b6a89c2b843a469382478fb62244b6e70bed1d54361c16a5c12591a12e1b52539688bc0ba41a66b3a267af960224d6876b8d7d34567c76c5a145f1c14e7b3233f6e8dc6bc47a06d3c207cff66204f6a74bad5d14765c56e58165d1e16e5b1213d6c8fc4be45a26f3e227efd642e41647ab4dbdf496bcb605618531018ebbf2f336281cab04bac61302c70f36a2c436678b6d9dd4b69c962541a51121ae9bd2d316083c8b249ae63322e72f1682a45607eb0dfdb4d6fcf64521c57141cefbb2b376685ceb44fa865342874f76e2847627cb2ddd94f6dcd66501e55161eedb929356487ccb64daa67362a76f56c26496c72bcd3d74163c3685e105b1810e3ae38ae49169c0aca5efcd6862b7dc5d87e126afa78457d41b2fb33eeee893e9",
        "hex": "6a206b475a62f633d859c357d2c5a5e145c8eafbcdcb842d3d9041ba17f272daa6bf4db004e41647ab4dbdf496bcb605618531018ebbf2f336281cab04bac61302c70f36a2c436678b6d9dd4b69c962541a51121ae9bd2d316083c8b249ae63322e72f1682a45607eb0dfdb4d6fcf64521c57141cefbb2b376685ceb44fa865342874f76e2847627cb2ddd94f6dcd66501e55161eedb929356487ccb64daa67362a76f56c26496c72bcd3d74163c3685e105b1810e3b7273b6a89c2b843a469382478fb62244b6e70bed1d54361c16a5c12591a12e1b52539688bc0ba41a66b3a267af960224d6876b8d7d34567c76c5a145f1c14e7b3233f6e8dc6bc47a06d3c207cff66204f6a74bad5d14765c56e58165d1e16e5b1213d6c8fc4be45a26f3e227efd642e41647ab4dbdf496bcb605618531018ebbf2f336281cab04bac61302c70f36a2c436678b6d9dd4b69c962541a51121ae9bd2d316083c8b249ae63322e72f1682a45607eb0dfdb4d6fcf64521c57141cefbb2b376685ceb44fa865342874f76e2847627cb2ddd94f6dcd66501e55161eedb929356487ccb64daa67362a76f56c26496c72bcd3d74163c3685e105b1810e3b7273b6a89c2b843a469382478fb62244b6e70bed1d54361c16a5c12591a12e1b52539688bc0ba41a66b3a267af960224d6876b8d7d34567c76c5a145f1c14e7b3233f6e8dc6bc47a06d3c207cff66204f6a74bad5d14765c56e58165d1e16e5b1213d6c8fc4be45a26f3e227efd642e41647ab4dbdf496bcb605618531018ebbf2f336281cab04bac61302c70f36a2c436678b6d9dd4b69c962541a51121ae9bd2d316083c8b249ae63322e72f1682a45607eb0dfdb4d6fcf64521c57141cefbb2b376685ceb44fa865342874f76e2847627cb2ddd94f6dcd66501e55161eedb929356487ccb64daa67362a76f56c26496c72bcd3d74163c3685e105b1810e3b7273b6a89c2b843a469382478fb62244b6e70bed1d54361c16a5c12591a12e1b52539688bc0ba41a66b3a267af960224d6876b8d7d34567c76c5a145f1c14e7b3233f6e8dc6bc47a06d3c207cff66204f6a74bad5d14765c56e58165d1e16e5b1213d6c8fc4be45a26f3e227efd642e41647ab4dbdf496bcb605618531018ebbf2f336281cab04bac61302c70f36a2c436678b6d9dd4b69c962541a51121ae9bd2d316083c8b249ae63322e72f1682a45607eb0dfdb4d6fcf64521c57141cefbb2b376685ceb44fa865342874f76e2847627cb2ddd94f6dcd66501e55161eedb929356487ccb64daa67362a76f56c26496c72bcd3d74163c3685e105b1810e3b7273b6a89c2b843a469382478fb62244b6e70bed1d54361c16a5c12591a12e1b52539688bc0ba41a66b3a267af960224d6876b8d7d34567c76c5a145f1c14e7b3233f6e8dc6bc47a06d3c207cff66204f6a74bad5d14765c56e58165d1e16e5b1213d6c8fc4be45a26f3e227efd642e41647ab4dbdf496bcb605618531018ebbf2f336281cab04bac61302c70f36a2c436678b6d9dd4b69c962541a51121ae9bd2d316083c8b249ae63322e72f1682a45607eb0dfdb4d6fcf64521c57141cefbb2b376685ceb44fa865342874f76e2847627cb2ddd94f6dcd66501e55161eedb929356487ccb64daa67362a76f56c26496c72bcd3d74163c3685e105b1810e3ae38ae49169c0aca5efcd6862b7dc5d87e126afa78457d41b2fb33eeee893e9",
        "type": "nulldata"
      }
    }
  ],
  "blockhash": "fed18006ccdab590a9e00afae0c126c0756e5b686d02c0375b028c4c6af5cb31",
  "confirmations": 1,
  "time": 1764177489,
  "blocktime": 1764177489
}