{
  "hex": "01000000000101b1bf52f895ec092af9c3a66a940291516b3810cc17823373d3ec0ca8ff914f7f0000000000feffffff02e07828ba782d0000225120cf8c8e35c5e687a2be59f69defcd799191a08ae1b8e99c724bdcc1e0cc87600200e1f50500000000fdd5046a2022b1b698c4e65076520d84706ae8b013974ec1d469a5d9da8aa3002e1a757dd94db0043c52343439b67bc10495b3469d44916b38c04c79dd0c837cc824920022d0d2ae1c72141419965be124b59366bd64b14b18e06c59fd2ca35ce804b22002f0f28e7c12747479f63b8144d5f306dd04d12b78800c399d4cc33c8864d240629092ee5c32545459d61ba164f5d326fd24f10b58a02c19bd6ce31ca844f26042b0b2cebcd2b4b4b936fb41841533c61dc411ebb840ccf95d8c03fc48a41280a250522e9cf294949916db61a43513e63de431cb9860ecd97dac23dc688432a08270720efc92f4f4f976bb01c45573865d8451abf8008cb91dcc43bc08e452c0e210126edcb2d4d4d9569b21e47553a67da4718bd820ac993dec639c28c472e0c230324e3c52343439b67bc10495b3469d44916b38c04c79dd0c837cc824920022d0d2ae1c72141419965be124b59366bd64b14b18e06c59fd2ca35ce804b22002f0f28e7c12747479f63b8144d5f306dd04d12b78800c399d4cc33c8864d240629092ee5c32545459d61ba164f5d326fd24f10b58a02c19bd6ce31ca844f26042b0b2cebcd2b4b4b936fb41841533c61dc411ebb840ccf95d8c03fc48a41280a250522e9cf294949916db61a43513e63de431cb9860ecd97dac23dc688432a08270720efc92f4f4f976bb01c45573865d8451abf8008cb91dcc43bc08e452c0e210126edcb2d4d4d9569b21e47553a67da4718bd820ac993dec639c28c472e0c230324e3c52343439b67bc10495b3469d44916b38c04c79dd0c837cc824920022d0d2ae1c72141419965be124b59366bd64b14b18e06c59fd2ca35ce804b22002f0f28e7c12747479f63b8144d5f306dd04d12b78800c399d4cc33c8864d240629092ee5c32545459d61ba164f5d326fd24f10b58a02c19bd6ce31ca844f26042b0b2cebcd2b4b4b936fb41841533c61dc411ebb840ccf95d8c03fc48a41280a250522e9cf294949916db61a43513e63de431cb9860ecd97dac23dc688432a08270720efc92f4f4f976bb01c45573865d8451abf8008cb91dcc43bc08e452c0e210126edcb2d4d4d9569b21e47553a67da4718bd820ac993dec639c28c472e0c230324e3c52343439b67bc10495b3469d44916b38c04c79dd0c837cc824920022d0d2ae1c72141419965be124b59366bd64b14b18e06c59fd2ca35ce804b22002f0f28e7c12747479f63b8144d5f306dd04d12b78800c399d4cc33c8864d240629092ee5c32545459d61ba164f5d326fd24f10b58a02c19bd6ce31ca844f26042b0b2cebcd2b4b4b936fb41841533c61dc411ebb840ccf95d8c03fc48a41280a250522e9cf294949916db61a43513e63de431cb9860ecd97dac23dc688432a08270720efc92f4f4f976bb01c45573865d8451abf8008cb91dcc43bc08e452c0e210126edcb2d4d4d9569b21e47553a67da4718bd820ac993dec639c28c472e0c230324e3c52343439b67bc10495b3469d44916b38c04c79dd0c837cc824920022d0d2ae1c72141419965be124b59366bd64b14b18e06c59fd2ca35ce804b22002f0f28e7c12747479f63b8144d5f306dd04d12b78800c399d4cc33c8864d240629092ee5c32545459d61ba164f5d326fd24f10b58a02c19bd6ce31ca844f26042b0b2cebcd2b4b4b936fb41841533c61dc411eba2fbc1b53e4104e94e6ea4271ed2b754abe9cee4acbffe055b2c8e836e0474ab02fd75091d2bea55f4d9d613b8f012f8bce606467aabca948e98cf69d88f69e95e31e48ef4c3ec4cfb120ee44f709422556de863376d87ece4a30685f655bf5a659e218c4cd985e4bacea606d7c27cf77f4426c9c6e6aa04d57b1ee50e62a46bedf0cd4e6704c09453afa1691da4c1e57f7436692d371db540014bd4ad1345576cac5c9ad041a17b6aad26df02a336a6376734e18e5b8765e517db65108871cc8a674741d8215ecf7cdcc5b5288f8574432ff033c8dfc629228c422a0fe92969e3ddf0b9b1096264cccf94ffd5a66c9fd6d57d8c448009fdbc2577dfa2ab9c1105c008e256ee74345aa30707fe5ec5e7c45a4dc463b1c5dfa9e6d55c752f91cce881a36c857e8af2265acc02406aa924d1b1b92c98c0e30715c494320b258b26682da8f3f32c99d4f294376fef30d32b9bfc89b421052b66dd91e277184498ec006346ea442604084bce75480e156f5edcb2cbe1321b64fa334d4a7d496ecf3c2b8d1410ecacf59c95375fbe3b670d42c6bbae16567238fc17017e83b38bb637f1c8577cd437c28d9610a2cd067464b1a6b49345b905a002a7ea787cf3a8c950dc193c56dd9384ab81ba2c1b51c2ade1d07fbce5fca77625db0361aa02fa98ff17c010f6e8840afd0b3a838594f6ceae2851f9f80215049ab40a9c9faf3c788ac76b9165d29fe5db7089b1aa5ceac5587c9e7c97f1abedfe9b2c1fbc9855c8686f653c46ff215ff5c987b4bcea4fa7f059eeceedab965f195b6ad24605b96761ae1bdf1d3d40694134d17e3a8a7bffb22d3d36778a83176a75d8cb79e442bdf5e0448864af80f10526016f9daab6544ef4e59c2aa7c69a64543d7d08594ff097f841ef86e8c1e0b6f8d606f2f125d9c4726f9eceaca48f5944a7cc278731ca555ede126fbaabd7f0608530fdf427fd393a354695dd5cf3d1f41ab86855e7659d210f7342e7b53e9615827e8b1f74c048d74fea222b205d4d9d5b0921ac550bbbfa1cfdcdd7d80fd948dab38c9164b275e0c3711de249839c3ab29ab7193823cf6ef0b9ddd240e88d91abf42f708ac1ffb7883b9a804284468ab12eb589d53dfebacc9c850c3af50af712a898bfedbe085cb6bf7ee47954f319d7363158a588e355dd36f0e2f21bf5bbb3f8ee4206361ea689414f4c597c6ae091d32fed26d12114cb1179b737184b27086d9786c640be67f09160e7331ddd9c4c40610bb4521911c5099a891b53188c9ea96103072cdf9ae0e0c061854feb51d79cedf5c56a6ecdb766354091ee534bf71e6a11c6059431e564d436f0ac6dc25d306e7de274b0a41b0bdde7ff1fd8e2dc6e95948dd11b944a253749f964cc05259ea3f057e98d78cf0ccb8559749f14f6bbdeb580be2966129a27a36dfd8347b31c8419197d3417b516ac083ee014bf07c7d478355283694242a380921c0be279f0a6d1cb4a8a40e4d84aab89e16242ae44ebec8361e0e59edc9199dbec2559ab54891a3bcf6cd01900d12f36cf4ff3118031c29c9678cdd8c3e825480852ccf1acb8d07a273b30ed9d397e68a217ae42eb59e40540341b7de306cdd3f364d941e630b836eacc985d2863c87a6ea48b031c7644b728d143e57d6631260a567825991d98d9c8ddd5c494c0d155a83003cf5b06184c9bf0fd43d3be6fa4bd2768add1ee062b86d84b1655f7d2386654fa7bdc5277499b71f8ed9bb6bf49974f924261f1ceec26780ce8d30956bf6baa885868dfb482028a80c4f0abdcb3568bd023836f680cd74146c8830d6dc3bc3df4f77b358f015ba906a71f689ebdf1192f85f558dc53ba8833d22f22b997c7e8c994ef9e3fdccb18c24ea1fb26dd1875505e5e4fe72894d7e5ec4d475d718111b0b225983e91ad6ee5efa6e2b249ebaceb20bd28c339a30f3d9ed9112d0b894d3c4c6c21df505429b75a0fcbf7fb4381004cf6325582aa8c2ac057dae7d6803fd09ec5f5ebd438ab8b2f23fc10eb193bad348ee48774a439ba724c45b34b0e3a3997ec079472a30d234b247592d3525a73c0ee03a9fea0a86d52c8bbaa12e2c796e3a674bad22ea0b1ab79049f2493b5bd1d5021cc90d684720e281fd35fb871e8e66ba4b2323bababfa40e7432f3ca13cd49afc3a4afaab05f27c0b7d8e3d6a82965cd7586607cf8f64695a3e8d40399675984e51e5d9248ca3e37b50803e4249d3b88035973b7d4991a4a94850802af80398d230e71702f70e1d2e217279dbd88c7e9558e2cbad04460bc0871e5d0162bd2f886e8713bcd3fa37cfe356569c0c35c55decbd2311b5d734a741448aea5bb2008bc9eba978467043290ed745a025bde7cc214c666ab80ef77d4f7d0ddaf02e933d08a4d54173f5a0c1410bb5b010ab1d6fe0b6fab3848765f2e1fd061ec9ad82b6140d9a4bd9c58554daf53722ba714b3e3bbd2ec7c08f0604fb9fa61f2c25119d5a5d30309b93c1777474497f7ee9412e54ba59953dc8f8f6c3e75f7da9f7d082a69c587e8be1f4220fa6f293250897bcf4327436b98c4ad3f20cd52b658d1e028736b4455feb89c4b2c1c802a1444e49827689894844ad1a3513d3b705548e8b947a55c9dc6db338e8e1b7132940c5b5fd205d9a8dedc8af2425b586d903c3edcabb11635b39763d116a0a17698750f3abbceb8a9f99cd347b19dec533c8b834ef29042916702670a118e17e06dd5429af037f1f258b2b19e68bf8f0540ee8a1c4f069f0a7b1335559e157cd1f8053386286b3df406510bd2efc34ee22a1c992efcee37f5fd11be53401a387f5e14750f3cf92ca4f587b6584a04c112ecd33b83357ca17b51e554c23849769b63d38a078043dc5fb7f7864399b52e92d0a464834ce434e2bfad31d95502b1e24b196e16afec4af421e834c0a3d81391dc119a7867a4d67abece03b1a95c6e5e777843303c7e80650c669527be4343586f22e49710e318eab9d3e70de79d9237a0a53e96667176414299f17013b69ba871c9a20944205c4d00f9ed7a8c4e2662b177d7eb3895c0721ef92b5ac45c9950f37c276d482e0e2a67c47fe14c637bf31dbcc8d317a6918b578d9d939e318a134e76c7526010a31df69a737fb023a531a53e31d6553d376050098193b9f304c2c2cd356b9d3ab093a365e9912b39fa45cf3eccc527e98bae809b86eed5425b5bf6d3af194508702a40e768bda0bbf3a686534f4c00772b8cbd60d917fff5ad9e684e21ce469e7654c7336a1e6f795913bbf4f717cbc4961f3af878237b908449dcb3ced36c8caa9875e189f6198e645b96304fb1407fc42606dc9ae2b49743d77441847afba8097bd98ce3d03060a30324a6391959a9db3cad2d4d5f3f5f8fe0228424447494c4f7f9eb4cfd7ecf0080e2d73828e95a3a7a8bad2ddeef6ff162b2c434d6474787ec3d3ecf4f50000000000000000000000000000001423334101fd21050034ca2d555b275cabf5d99185b3c6d5f60ccd6f5adfdd25bd15c6e8d8650f232cb6f521d8560f8af3e02d9c7e9d211985174d255c75dbfe1df01e88dca2367299c4ac87002b691b0fb6840c7d1db56f9be37fdffebae1e56b27b2e0ef8be3350e89d9f1890bb726a74e4c96cbf97f1df441d7038f1fc2828f3971351573a305e1e2a86fc61e358453d5d247ce366350a13e1d286d4784b663461c061c6da224d4390311d4174225c2498fae055d90db7004ead27ea312188545d1aa717c4bdd948163160a8352132b6342ba5d48b4ec5adb69796c89be510c06aaea6cdf5ca37476892460cda420503cdc039375c14163ad20f5a8baabc1e05fa4b3dbcea3e7ede2eb4701257b34ee9f49cee584231611a476d609c9228d455f3329092d3ee7c2e87706ed99a89e0a82ba7d92be0d0a4eafd716d09ce1e77f88a48eff19a70a55e12820b1a14ee9316ebeb7fb38bd0cc94d5b456caddc9757c835a99889c143802e1d002cdb22c77cfc121c88fef70d359d3f5ca5275d54cfb0f0de82be513387e75f53465ec8cd65779306372677b50f6b2b82bbd93d97a89e846cc1bca13136799e501d6df063c74c924c25047848df9ebc2299463690a597eae014c1dda187039371d0b95abe761e43cdd7fafd4c8b6363ea2b8398180ab253eecf18d7977f3c9794dcaec1abc00b25c67fcc58843356beddc8b425e8a274a55d9167948d5c559a49867d5e57eb5d4397b781467622059840fbebbeab56da05b847e9cc4993b7984910c377ce5675c64c62e3467e777d1353ea639f10dd7b33aabbe6e6f1750b99fbf38358e9cbb43fde10fe02093dd2ea06c274894246b1b9b3c44b47144cd3035b1d0d44cf49a305f62dc597f0472342f269edc5aaff78939206feffdc11ff4c2b432e4458b2794dbbc867b2209bd0e7e8d753d0df50ff18b0645da911865635f58551953fe533b9b4db249f63e115c0dc942f45eafb7a8f25c6278a08aa16b96ed45784164924df76b8640e8213b7c79d2d0d57744611e99ef27f6c8efd3d8471fe44d772b59bb1ae2b78d8409590b140162da33750c80001ad553c2ede5bf523c428668a0be9293f1d08c41bc4d2946c49718fd70cc25c31140c207852327de1854ba489786a4e850c991e97a72422029d23afe6b14de247cab340570b7efaafe23931a13190b7760098bc95b63af492790260c9decd9ff89852b1c90a4adfaa8b576df566b5124f14927d154b1b450b8bbe45011c9718c592043575e77845f22a637842990f6b0788a0970a7934ce6e3c3d143d2d4f4b867f59db1cd7a9f909f95604595a63eb54d1ce75537a6a61ce88e2f2856756c1b0fad98bba8021e9212b81092eceb9e7df160998041b17f9de1738f9e5dc6b92e3bc4df2196bcf4d8e25fee2c155f3c9d55874ed1805ea09363d43de80158b173bb911f028272ab460dd2f5e53f697e32630d8bb981d2760bd6be0a21710d1497dd109b587c826bb2c21c7b30d0f07498e0e5065eae1fe38b9879abaf6414c8848a5d049effa6dba34fbe7cf5bdba5c579b3b82f4a220c5f4c44181a643e5c4dd2d52fb1879a3f56c60afac9ce1054fd854a2fc1a5f07d031d69e335ccdda471bacb35784790d812a9463b35d22f96630ca11eea0edca4162b4fb75546b2e3bcdc40d78130cc5b1d90e091b785b072ba07cd5ae72e77d1583a49da6a0686d849ad325edd8ba8d53e2c276b68af8b3cba998f4dd734f9d51b893f08ea774dfceef8642b014c9a5d85f7ae884271d662df96d61968671383c114ae5f6bd3493597c2ec14f30a973592c458ee604d1311b4704f2a8b31b343fbb38bc6bdb8a31e004c4551ae5e5e70000000",
  "txid": "a74a391adc3fa3470b6c53c5c53e0b77b7765d86239cf80ba526a6399d1b1476",
  "hash": "c492c872831353ae2aeae76fb607f05d78b11ca4b6a90e867b15af746758b246",
  "size": 5085,
  "vsize": 2278,
  "version": 1,
  "locktime": 112,
  "vin": [
    {
      "txid": "7f4f91ffa80cecd373338217cc10386b519102946aa6c3f92a09ec95f852bfb1",
      "vout": 0,
      "scriptSig": {
        "asm": "",
        "hex": ""
      },
      "txinwitness": [
        "1d2bea55f4d9d613b8f012f8bce606467aabca948e98cf69d88f69e95e31e48ef4c3ec4cfb120ee44f709422556de863376d87ece4a30685f655bf5a659e218c4cd985e4bacea606d7c27cf77f4426c9c6e6aa04d57b1ee50e62a46bedf0cd4e6704c09453afa1691da4c1e57f7436692d371db540014bd4ad1345576cac5c9ad041a17b6aad26df02a336a6376734e18e5b8765e517db65108871cc8a674741d8215ecf7cdcc5b5288f8574432ff033c8dfc629228c422a0fe92969e3ddf0b9b1096264cccf94ffd5a66c9fd6d57d8c448009fdbc2577dfa2ab9c1105c008e256ee74345aa30707fe5ec5e7c45a4dc463b1c5dfa9e6d55c752f91cce881a36c857e8af2265acc02406aa924d1b1b92c98c0e30715c494320b258b26682da8f3f32c99d4f294376fef30d32b9bfc89b421052b66dd91e277184498ec006346ea442604084bce75480e156f5edcb2cbe1321b64fa334d4a7d496ecf3c2b8d1410ecacf59c95375fbe3b670d42c6bbae16567238fc17017e83b38bb637f1c8577cd437c28d9610a2cd067464b1a6b49345b905a002a7ea787cf3a8c950dc193c56dd9384ab81ba2c1b51c2ade1d07fbce5fca77625db0361aa02fa98ff17c010f6e8840afd0b3a838594f6ceae2851f9f80215049ab40a9c9faf3c788ac76b9165d29fe5db7089b1aa5ceac5587c9e7c97f1abedfe9b2c1fbc9855c8686f653c46ff215ff5c987b4bcea4fa7f059eeceedab965f195b6ad24605b96761ae1bdf1d3d40694134d17e3a8a7bffb22d3d36778a83176a75d8cb79e442bdf5e0448864af80f10526016f9daab6544ef4e59c2aa7c69a64543d7d08594ff097f841ef86e8c1e0b6f8d606f2f125d9c4726f9eceaca48f5944a7cc278731ca555ede126fbaabd7f0608530fdf427fd393a354695dd5cf3d1f41ab86855e7659d210f7342e7b53e9615827e8b1f74c048d74fea222b205d4d9d5b0921ac550bbbfa1cfdcdd7d80fd948dab38c9164b275e0c3711de249839c3ab29ab7193823cf6ef0b9ddd240e88d91abf42f708ac1ffb7883b9a804284468ab12eb589d53dfebacc9c850c3af50af712a898bfedbe085cb6bf7ee47954f319d7363158a588e355dd36f0e2f21bf5bbb3f8ee4206361ea689414f4c597c6ae091d32fed26d12114cb1179b737184b27086d9786c640be67f09160e7331ddd9c4c40610bb4521911c5099a891b53188c9ea96103072cdf9ae0e0c061854feb51d79cedf5c56a6ecdb766354091ee534bf71e6a11c6059431e564d436f0ac6dc25d306e7de274b0a41b0bdde7ff1fd8e2dc6e95948dd11b944a253749f964cc05259ea3f057e98d78cf0ccb8559749f14f6bbdeb580be2966129a27a36dfd8347b31c8419197d3417b516ac083ee014bf07c7d478355283694242a380921c0be279f0a6d1cb4a8a40e4d84aab89e16242ae44ebec8361e0e59edc9199dbec2559ab54891a3bcf6cd01900d12f36cf4ff3118031c29c9678cdd8c3e825480852ccf1acb8d07a273b30ed9d397e68a217ae42eb59e40540341b7de306cdd3f364d941e630b836eacc985d2863c87a6ea48b031c7644b728d143e57d6631260a567825991d98d9c8ddd5c494c0d155a83003cf5b06184c9bf0fd43d3be6fa4bd2768add1ee062b86d84b1655f7d2386654fa7bdc5277499b71f8ed9bb6bf49974f924261f1ceec26780ce8d30956bf6baa885868dfb482028a80c4f0abdcb3568bd023836f680cd74146c8830d6dc3bc3df4f77b358f015ba906a71f689ebdf1192f85f558dc53ba8833d22f22b997c7e8c994ef9e3fdccb18c24ea1fb26dd1875505e5e4fe72894d7e5ec4d475d718111b0b225983e91ad6ee5efa6e2b249ebaceb20bd28c339a30f3d9ed9112d0b894d3c4c6c21df505429b75a0fcbf7fb4381004cf6325582aa8c2ac057dae7d6803fd09ec5f5ebd438ab8b2f23fc10eb193bad348ee48774a439ba724c45b34b0e3a3997ec079472a30d234b247592d3525a73c0ee03a9fea0a86d52c8bbaa12e2c796e3a674bad22ea0b1ab79049f2493b5bd1d5021cc90d684720e281fd35fb871e8e66ba4b2323bababfa40e7432f3ca13cd49afc3a4afaab05f27c0b7d8e3d6a82965cd7586607cf8f64695a3e8d40399675984e51e5d9248ca3e37b50803e4249d3b88035973b7d4991a4a94850802af80398d230e71702f70e1d2e217279dbd88c7e9558e2cbad04460bc0871e5d0162bd2f886e8713bcd3fa37cfe356569c0c35c55decbd2311b5d734a741448aea5bb2008bc9eba978467043290ed745a025bde7cc214c666ab80ef77d4f7d0ddaf02e933d08a4d54173f5a0c1410bb5b010ab1d6fe0b6fab3848765f2e1fd061ec9ad82b6140d9a4bd9c58554daf53722ba714b3e3bbd2ec7c08f0604fb9fa61f2c25119d5a5d30309b93c1777474497f7ee9412e54ba59953dc8f8f6c3e75f7da9f7d082a69c587e8be1f4220fa6f293250897bcf4327436b98c4ad3f20cd52b658d1e028736b4455feb89c4b2c1c802a1444e49827689894844ad1a3513d3b705548e8b947a55c9dc6db338e8e1b7132940c5b5fd205d9a8dedc8af2425b586d903c3edcabb11635b39763d116a0a17698750f3abbceb8a9f99cd347b19dec533c8b834ef29042916702670a118e17e06dd5429af037f1f258b2b19e68bf8f0540ee8a1c4f069f0a7b1335559e157cd1f8053386286b3df406510bd2efc34ee22a1c992efcee37f5fd11be53401a387f5e14750f3cf92ca4f587b6584a04c112ecd33b83357ca17b51e554c23849769b63d38a078043dc5fb7f7864399b52e92d0a464834ce434e2bfad31d95502b1e24b196e16afec4af421e834c0a3d81391dc119a7867a4d67abece03b1a95c6e5e777843303c7e80650c669527be4343586f22e49710e318eab9d3e70de79d9237a0a53e96667176414299f17013b69ba871c9a20944205c4d00f9ed7a8c4e2662b177d7eb3895c0721ef92b5ac45c9950f37c276d482e0e2a67c47fe14c637bf31dbcc8d317a6918b578d9d939e318a134e76c7526010a31df69a737fb023a531a53e31d6553d376050098193b9f304c2c2cd356b9d3ab093a365e9912b39fa45cf3eccc527e98bae809b86eed5425b5bf6d3af194508702a40e768bda0bbf3a686534f4c00772b8cbd60d917fff5ad9e684e21ce469e7654c7336a1e6f795913bbf4f717cbc4961f3af878237b908449dcb3ced36c8caa9875e189f6198e645b96304fb1407fc42606dc9ae2b49743d77441847afba8097bd98ce3d03060a30324a6391959a9db3cad2d4d5f3f5f8fe0228424447494c4f7f9eb4cfd7ecf0080e2d73828e95a3a7a8bad2ddeef6ff162b2c434d6474787ec3d3ecf4f50000000000000000000000000000001423334101",
        "0034ca2d555b275cabf5d99185b3c6d5f60ccd6f5adfdd25bd15c6e8d8650f232cb6f521d8560f8af3e02d9c7e9d211985174d255c75dbfe1df01e88dca2367299c4ac87002b691b0fb6840c7d1db56f9be37fdffebae1e56b27b2e0ef8be3350e89d9f1890bb726a74e4c96cbf97f1df441d7038f1fc2828f3971351573a305e1e2a86fc61e358453d5d247ce366350a13e1d286d4784b663461c061c6da224d4390311d4174225c2498fae055d90db7004ead27ea312188545d1aa717c4bdd948163160a8352132b6342ba5d48b4ec5adb69796c89be510c06aaea6cdf5ca37476892460cda420503cdc039375c14163ad20f5a8baabc1e05fa4b3dbcea3e7ede2eb4701257b34ee9f49cee584231611a476d609c9228d455f3329092d3ee7c2e87706ed99a89e0a82ba7d92be0d0a4eafd716d09ce1e77f88a48eff19a70a55e12820b1a14ee9316ebeb7fb38bd0cc94d5b456caddc9757c835a99889c143802e1d002cdb22c77cfc121c88fef70d359d3f5ca5275d54cfb0f0de82be513387e75f53465ec8cd65779306372677b50f6b2b82bbd93d97a89e846cc1bca13136799e501d6df063c74c924c25047848df9ebc2299463690a597eae014c1dda187039371d0b95abe761e43cdd7fafd4c8b6363ea2b8398180ab253eecf18d7977f3c9794dcaec1abc00b25c67fcc58843356beddc8b425e8a274a55d9167948d5c559a49867d5e57eb5d4397b781467622059840fbebbeab56da05b847e9cc4993b7984910c377ce5675c64c62e3467e777d1353ea639f10dd7b33aabbe6e6f1750b99fbf38358e9cbb43fde10fe02093dd2ea06c274894246b1b9b3c44b47144cd3035b1d0d44cf49a305f62dc597f0472342f269edc5aaff78939206feffdc11ff4c2b432e4458b2794dbbc867b2209bd0e7e8d753d0df50ff18b0645da911865635f58551953fe533b9b4db249f63e115c0dc942f45eafb7a8f25c6278a08aa16b96ed45784164924df76b8640e8213b7c79d2d0d57744611e99ef27f6c8efd3d8471fe44d772b59bb1ae2b78d8409590b140162da33750c80001ad553c2ede5bf523c428668a0be9293f1d08c41bc4d2946c49718fd70cc25c31140c207852327de1854ba489786a4e850c991e97a72422029d23afe6b14de247cab340570b7efaafe23931a13190b7760098bc95b63af492790260c9decd9ff89852b1c90a4adfaa8b576df566b5124f14927d154b1b450b8bbe45011c9718c592043575e77845f22a637842990f6b0788a0970a7934ce6e3c3d143d2d4f4b867f59db1cd7a9f909f95604595a63eb54d1ce75537a6a61ce88e2f2856756c1b0fad98bba8021e9212b81092eceb9e7df160998041b17f9de1738f9e5dc6b92e3bc4df2196bcf4d8e25fee2c155f3c9d55874ed1805ea09363d43de80158b173bb911f028272ab460dd2f5e53f697e32630d8bb981d2760bd6be0a21710d1497dd109b587c826bb2c21c7b30d0f07498e0e5065eae1fe38b9879abaf6414c8848a5d049effa6dba34fbe7cf5bdba5c579b3b82f4a220c5f4c44181a643e5c4dd2d52fb1879a3f56c60afac9ce1054fd854a2fc1a5f07d031d69e335ccdda471bacb35784790d812a9463b35d22f96630ca11eea0edca4162b4fb75546b2e3bcdc40d78130cc5b1d90e091b785b072ba07cd5ae72e77d1583a49da6a0686d849ad325edd8ba8d53e2c276b68af8b3cba998f4dd734f9d51b893f08ea774dfceef8642b014c9a5d85f7ae884271d662df96d61968671383c114ae5f6bd3493597c2ec14f30a973592c458ee604d1311b4704f2a8b31b343fbb38bc6bdb8a31e004c4551ae5e5e"
      ],
      "sequence": 4294967294
    }
  ],
  "vout": [
    {
      "value": 499965.4254,
      "n": 0,
      "scriptPubKey": {
        "asm": "1 cf8c8e35c5e687a2be59f69defcd799191a08ae1b8e99c724bdcc1e0cc876002",
        "hex": "5120cf8c8e35c5e687a2be59f69defcd799191a08ae1b8e99c724bdcc1e0cc876002",
        "reqSigs": 1,
        "type": "witness_v1_scripthash",
        "addresses": [
          "3QJmnh"
        ]
      }
    },
    {
      "value": 1.0,
      "n": 1,
      "scriptPubKey": {
        "asm": "OP_RETURN 22b1b698c4e65076520d84706ae8b013974ec1d469a5d9da8aa3002e1a757dd9 3c52343439b67bc10495b3469d44916b38c04c79dd0c837cc824920022d0d2ae1c72141419965be124b59366bd64b14b18e06c59fd2ca35ce804b22002f0f28e7c12747479f63b8144d5f306dd04d12b78800c399d4cc33c8864d240629092ee5c32545459d61ba164f5d326fd24f10b58a02c19bd6ce31ca844f26042b0b2cebcd2b4b4b936fb41841533c61dc411ebb840ccf95d8c03fc48a41280a250522e9cf294949916db61a43513e63de431cb9860ecd97dac23dc688432a08270720efc92f4f4f976bb01c45573865d8451abf8008cb91dcc43bc08e452c0e210126edcb2d4d4d9569b21e47553a67da4718bd820ac993dec639c28c472e0c230324e3c52343439b67bc10495b3469d44916b38c04c79dd0c837cc824920022d0d2ae1c72141419965be124b59366bd64b14b18e06c59fd2ca35ce804b22002f0f28e7c12747479f63b8144d5f306dd04d12b78800c399d4cc33c8864d240629092ee5c32545459d61ba164f5d326fd24f10b58a02c19bd6ce31ca844f26042b0b2cebcd2b4b4b936fb41841533c61dc411ebb840ccf95d8c03fc48a41280a250522e9cf294949916db61a43513e63de431cb9860ecd97dac23dc688432a08270720efc92f4f4f976bb01c45573865d8451abf8008cb91dcc43bc08e452c0e210126edcb2d4d4d9569b21e47553a67da4718bd820ac993dec639c28c472e0c230324e3c52343439b67bc10495b3469d44916b38c04c79dd0c837cc824920022d0d2ae1c72141419965be124b59366bd64b14b18e06c59fd2ca35ce804b22002f0f28e7c12747479f63b8144d5f306dd04d12b78800c399d4cc33c8864d240629092ee5c32545459d61ba164f5d326fd24f10b58a02c19bd6ce31ca844f26042b0b2cebcd2b4b4b936fb41841533c61dc411ebb840ccf95d8c03fc48a41280a250522e9cf294949916db61a43513e63de431cb9860ecd97dac23dc688432a08270720efc92f4f4f976bb01c45573865d8451abf8008cb91dcc43bc08e452c0e210126edcb2d4d4d9569b21e47553a67da4718bd820ac993dec639c28c472e0c230324e3c52343439b67bc10495b3469d44916b38c04c79dd0c837cc824920022d0d2ae1c72141419965be124b59366bd64b14b18e06c59fd2ca35ce804b22002f0f28e7c12747479f63b8144d5f306dd04d12b78800c399d4cc33c8864d240629092ee5c32545459d61ba164f5d326fd24f10b58a02c19bd6ce31ca844f26042b0b2cebcd2b4b4b936fb41841533c61dc411ebb840ccf95d8c03fc48a41280a250522e9cf294949916db61a43513e63de431cb9860ecd97dac23dc688432a08270720efc92f4f4f976bb01c45573865d8451abf8008cb91dcc43bc08e452c0e210126edcb2d4d4d9569b21e47553a67da4718bd820ac993dec639c28c472e0c230324e3c52343439b67bc10495b3469d44916b38c04c79dd0c837cc824920022d0d2ae1c72141419965be124b59366bd64b14b18e06c59fd2ca35ce804b22002f0f28e7c12747479f63b8144d5f306dd04d12b78800c399d4cc33c8864d240629092ee5c32545459d61ba164f5d326fd24f10b58a02c19bd6ce31ca844f26042b0b2cebcd2b4b4b936fb41841533c61dc411eba2fbc1b53e4104e94e6ea4271ed2b754abe9cee4acbffe055b2c8e836e0474ab",
        "hex": "6a2022b1b698c4e65076520d84706ae8b013974ec1d469a5d9da8aa3002e1a757dd94db0043c52343439b67bc10495b3469d44916b38c04c79dd0c837cc824920022d0d2ae1c72141419965be124b59366bd64b14b18e06c59fd2ca35ce804b22002f0f28e7c12747479f63b8144d5f306dd04d12b78800c399d4cc33c8864d240629092ee5c32545459d61ba164f5d326fd24f10b58a02c19bd6ce31ca844f26042b0b2cebcd2b4b4b936fb41841533c61dc411ebb840ccf95d8c03fc48a41280a250522e9cf294949916db61a43513e63de431cb9860ecd97dac23dc688432a08270720efc92f4f4f976bb01c45573865d8451abf8008cb91dcc43bc08e452c0e210126edcb2d4d4d9569b21e47553a67da4718bd820ac993dec639c28c472e0c230324e3c52343439b67bc10495b3469d44916b38c04c79dd0c837cc824920022d0d2ae1c72141419965be124b59366bd64b14b18e06c59fd2ca35ce804b22002f0f28e7c12747479f63b8144d5f306dd04d12b78800c399d4cc33c8864d240629092ee5c32545459d61ba164f5d326fd24f10b58a02c19bd6ce31ca844f26042b0b2cebcd2b4b4b936fb41841533c61dc411ebb840ccf95d8c03fc48a41280a250522e9cf294949916db61a43513e63de431cb9860ecd97dac23dc688432a08270720efc92f4f4f976bb01c45573865d8451abf8008cb91dcc43bc08e452c0e210126edcb2d4d4d9569b21e47553a67da4718bd820ac993dec639c28c472e0c230324e3c52343439b67bc10495b3469d44916b38c04c79dd0c837cc824920022d0d2ae1c72141419965be124b59366bd64b14b18e06c59fd2ca35ce804b22002f0f28e7c12747479f63b8144d5f306dd04d12b78800c399d4cc33c8864d240629092ee5c32545459d61ba164f5d326fd24f10b58a02c19bd6ce31ca844f26042b0b2cebcd2b4b4b936fb41841533c61dc411ebb840ccf95d8c03fc48a41280a250522e9cf294949916db61a43513e63de431cb9860ecd97dac23dc688432a08270720efc92f4f4f976bb01c45573865d8451abf8008cb91dcc43bc08e452c0e210126edcb2d4d4d9569b21e47553a67da4718bd820ac993dec639c28c472e0c230324e3c52343439b67bc10495b3469d44916b38c04c79dd0c837cc824920022d0d2ae1c72141419965be124b59366bd64b14b18e06c59fd2ca35ce804b22002f0f28e7c12747479f63b8144d5f306dd04d12b78800c399d4cc33c8864d240629092ee5c32545459d61ba164f5d326fd24f10b58a02c19bd6ce31ca844f26042b0b2cebcd2b4b4b936fb41841533c61dc411ebb840ccf95d8c03fc48a41280a250522e9cf294949916db61a43513e63de431cb9860ecd97dac23dc688432a08270720efc92f4f4f976bb01c45573865d8451abf8008cb91dcc43bc08e452c0e210126edcb2d4d4d9569b21e47553a67da4718bd820ac993dec639c28c472e0c230324e3c52343439b67bc10495b3469d44916b38c04c79dd0c837cc824920022d0d2ae1c72141419965be124b59366bd64b14b18e06c59fd2ca35ce804b22002f0f28e7c12747479f63b8144d5f306dd04d12b78800c399d4cc33c8864d240629092ee5c32545459d61ba164f5d326fd24f10b58a02c19bd6ce31ca844f26042b0b2cebcd2b4b4b936fb41841533c61dc411eba2fbc1b53e4104e94e6ea4271ed2b754abe9cee4acbffe055b2c8e836e0474ab",
        "type": "nulldata"
      }
    }
  ],
  "blockhash": "2dfbfbf9a9b6a37d5bbaa2d3fd41803f08650e7d63861427b8d0526132d1543b",
  "confirmations": 1,
  "time": 1764182436,
  "blocktime": 1764182436
}