{
  "hex": "01000000000101e583bc08de339658b3bc8bb234feb99c505cef4e92308834cf238a87ddcd546c0100000000feffffff02c075fe6f792d0000225120f709edc67931010d8dd648eebdf8dc8582351467317b194fa65c16496ce57db500e1f50500000000fdd5046a20d3c9f09536dafe5585722350b72da99be5ae1404f5a8bbfd85a7983c04c5298c4db00462a738066cd0cddc987d8f78c9c3fa3c06d215c706fcd3441c1f250a9f754617428718264cf0edfcb85daf58e9e3da1c26f235e726dcf3643c3f052abf55663722e778462c908d9cd83dcf388983ba7c4692558746bc93045c5f654adf35065702c758660cb0adbcf81def18a9a39a5c66b275a7669cb3247c7f456aff152677e227b886ec504d5c18fd0ff849437abc86529547867c53c49c9fa58a1ff5c697c20798a6cc706d7c38dd2fd869635a9ca672b567a65c73e4bcbf85aa3fd5e6b7a267f8c6ac100d1c58bd4fb809033afcc612d507c63c1384dcdfe5ca5fb586d78247d8e68c302d3c789d6f9829231adce632f527e61c33a4fcffc5ea7f95a6f762a738066cd0cddc987d8f78c9c3fa3c06d215c706fcd3441c1f250a9f754617428718264cf0edfcb85daf58e9e3da1c26f235e726dcf3643c3f052abf55663722e778462c908d9cd83dcf388983ba7c4692558746bc93045c5f654adf35065702c758660cb0adbcf81def18a9a39a5c66b275a7669cb3247c7f456aff152677e227b886ec504d5c18fd0ff849437abc86529547867c53c49c9fa58a1ff5c697c20798a6cc706d7c38dd2fd869635a9ca672b567a65c73e4bcbf85aa3fd5e6b7a267f8c6ac100d1c58bd4fb809033afcc612d507c63c1384dcdfe5ca5fb586d78247d8e68c302d3c789d6f9829231adce632f527e61c33a4fcffc5ea7f95a6f762a738066cd0cddc987d8f78c9c3fa3c06d215c706fcd3441c1f250a9f754617428718264cf0edfcb85daf58e9e3da1c26f235e726dcf3643c3f052abf55663722e778462c908d9cd83dcf388983ba7c4692558746bc93045c5f654adf35065702c758660cb0adbcf81def18a9a39a5c66b275a7669cb3247c7f456aff152677e227b886ec504d5c18fd0ff849437abc86529547867c53c49c9fa58a1ff5c697c20798a6cc706d7c38dd2fd869635a9ca672b567a65c73e4bcbf85aa3fd5e6b7a267f8c6ac100d1c58bd4fb809033afcc612d507c63c1384dcdfe5ca5fb586d78247d8e68c302d3c789d6f9829231adce632f527e61c33a4fcffc5ea7f95a6f762a738066cd0cddc987d8f78c9c3fa3c06d215c706fcd3441c1f250a9f754617428718264cf0edfcb85daf58e9e3da1c26f235e726dcf3643c3f052abf55663722e778462c908d9cd83dcf388983ba7c4692558746bc93045c5f654adf35065702c758660cb0adbcf81def18a9a39a5c66b275a7669cb3247c7f456aff152677e227b886ec504d5c18fd0ff849437abc86529547867c53c49c9fa58a1ff5c697c20798a6cc706d7c38dd2fd869635a9ca672b567a65c73e4bcbf85aa3fd5e6b7a267f8c6ac100d1c58bd4fb809033afcc612d507c63c1384dcdfe5ca5fb586d78247d8e68c302d3c789d6f9829231adce632f527e61c33a4fcffc5ea7f95a6f762a738066cd0cddc987d8f78c9c3fa3c06d215c706fcd3441c1f250a9f754617428718264cf0edfcb85daf58e9e3da1c26f235e726dcf3643c3f052abf55663722e778462c908d9cd83dcf388983ba7c4692558746bc93045c5f654adf35065702c758660cb0adbcf81def18a9a39a5c66b275a7669cb3247c7f456aff152677e227b886ec504d5c18fd0ff849437abcf7ea471b5a2f1c7c7976a5e1671998bd6fd022241fa4705c78f9d264a3367f0902fd75092736360ae3cca655a5670d4cedd61a7397714d301184e7b38ec267504293f837ac1a0d97a50f1f29370b86df5d17b1a306b810d654ff5896f3669dcb30c8d41cee9b22883f33adc22a5b768daa30800e8cc026282aec69edc2811568c3c0f82f5afacd31b65be6436648c33efd2d89b0af73b44a0ab18671c3d1fc52b1f5d15534d871cce45345710328b611aa73198eb2ce4286e99e3db3302de703391e5055dae8c4eb676cd61cbb322f48e4cd8e7e034fbb48111ab2c0f0a98b2f87aa4065dda0becc7fdb334ee05292b74a8d106cfa66b3bf84001da8013e3d8c3b2e50e28f57365a368504a1f87805278ed05fc23927d525497a95712c466472248a20cd43147268703c3d211ea42d3f7673d42d986e5651b4889a7162d298f0568631573c848d8257a2cd5624319ebe61f21638ddfeeab23aec26621597d6dcb8d07c0d2ce3186d344256c298d83e2853e72558c71bba1c35f8358205652f8b0c8882d6ba847e2ff4d862a892f44c6a9e23adacd80b7fbfe30cb7533aadac43aaa548da7c3fb7c345d0e58dea818b148869a4aaddf34dd40e6124bfbdf3609966059888b3d9f1cdb366453579bae2b68adc365e365c983deacf24be6bd3f40dbe141996215673f86da11136dcc5a001aee1542380a44467163878a4880e6caed279b2f58bce8fdad0a0caf6ea0014ffcb204ac9e05bc16b79620b53a0cba305f8488775c4a9980326e3720602e552e4a576c7c5a5e6838aa204cd035e8c484b5aeec2a43f0a37e0c3db26bf4e6b60780a05911d1e078675d1f318eb7952da7d719253608c68f0677432c5b963db32ac965d2b765d09e21038822b430970372cba68c56c4c579d2afa9a7878eb43b4987bb33deb3a90d686b290cde44933037090eb94ae9fb46803fe77afd205ed567e47a458e4d3d25c35bed75cc8d6cd9a817f2d935e7430ef3b5c7d8fc1e2f682283076d1ca6121b3bb00fd30b240b497d0b02de79121605a7fcd7ff01c91d7722407afdd390d76a6ead3b110052c6183ffcfef314198a27b20c67cdae155efeedaca840dc79155e27c7c1bc48c2213a6dbbf3d9e512717f2d0714a47b70afeb5cce98195f754934eb2b33758dde94ae05cf4ec00e1584ba882ac57e0f30e495a9938024ca959ff3cbc74c27b81454b32565468fe66290db2ce7786c74b5c55b57eefde4bf93c25ca2387ccec234851fe7d6bcb0c3f84cf878ecfe3e65913109c7fafddd8fc876ec63d143770ebcf00ad0e860525908bc2fe6ef5741faf56ccb10609da8842847d358269710c529a6db809ad12564d5130a6e05e5e68d4579f5d42d994c156928f1d61c735bfd336ceb6c8a1d82e4548fdba46af3166c120a390b18641326b1c070b1f79336629a177a80947ab7688b0e1b4f5396d9e260771a238baf22476d88e3db5c95c0cf2236b39efbe46802714ec2cf812c0077d31c7063ec63fd7f4d098cb959106c35a726f26a33cb81e8e604a09f5514469acb52a8a26e3cb28ec5366498f9f6cfd5ccf9ec0913fceb454abb3640279c1890dfedf024fc9e964def366800da26acf37a889d61713cf2121dd81448adf3d612e91960ca7aec70045d4addbc0c84851c6639d06bb8159fc4ce4d87f5390abd3aa0e8469ebb01bb6f61a46f9270b5c50a85f2974bb1d59ca75cd892ca6f2e8cc29017c03b0ce2e66cc9497c6e2fdd1916f37cc588f0f355a8a5de44325c8c8fc3a5d13bc1049371ad188b6414ee30da220563956409516e7893a84622f1dcec9b3dd83b1070fdede0d42d745fc00a7617fa76dc15a6fff111d909391bd151b9940dcbee55646447127f3287ea948a5d9d85c67ae1d80eef91bf3f55dd067b901b43e91616ccc9abee2a6fb87941e42777e16e300fbc81e1bbc35ca63b734de21a93196e944ff4afc9cd8bec51570d060a32cbbb1c14f234375087789fe85fb498a5f63c29fc2fc209b592a581db7e66e4febe7c3edeb93c51c0d6340fa99a173ebb6407a00c7eda21eb80c2365735dff51a41a9f37e30f8bde6510a9b0efe1d59ec6aef15ec8bc8cb0dcd85698ac6151f8e8bacdea39a547f4bc70ad72890ff895bd4ca2a57c8814184a66efbe1fe91e6802df09a32e2eb8856190920e73c92aea07d30747598650612f19d3b4d18294a337ba763b2959d3c9c9669132adc8f31a5cecb26138f5ed19318459cc6f807c8a5f1a600af16c15412016064c057f2ebe9bfd5587c6173ed0d6dd471dab9d1e3819d555c2804a0138d23702d3735f21a053559b78af7c3af27e7cb771f916e4a361c73b83d9165f0191f40e64420374090d1ddc012973b8482f7bc6372bc258421ecb2a4f73aa98a99bbdf2f578e6adf1d182c181b2e762f9376931f72a8fabb05e6abcf4f11b92b6848226c7ba5f60ebb42880349d917f55d341e2a446643c969091e9462bbcb798374390b3c2a1497d02e78bcb4d6de03e5c95712af9dbab08e2049223f8f821e1e81acc6b9e7ae0952c2c94a6bcf027720af4787facba4d11fb653c08ef1556c1521c437e2ee5dc73ca84fa2693fc746e1ff39c10e17ccc5c8b12d00d8c03e907facf4440d83e991cf29285e1a187c15a8825fcfc74fb5813af46a2ae2206fc0f819e8ac6ae0100a6755875d7d1aa0ea8602b87477a4cba793f5d8a9ba3962fe3cff951f72d22a3d0deead9723ae97eab00c405abad75a2bf005b67ca432514d1f2c8ce6202953321764c1983953d384fbdd94f1ff4b576c8ae0c4633fb1060216c3c885c00398751661fd244f233a5fe91846c01ec55ff5665b8dddcea0a503e758a6aeb1586169ab2f6d48d93aee1d362054626a65d7ebe6cfc1d0e2a42a636fd0419b093808a57590d62da646418c48e82a39b42ccc76ee3d40e63ffd03f51ff7a3afa876dfc6a92179a34bc619f7731c2d045553358db014177aeeeb996c4bf6aa2c3e932ccc06fe7ee8e62d07913d5fc49b39354036e79e1651dd8960b39ebfe42b08ec91b3c13aa6fb802c52d4a3dafd6fda66b3dabd683070a3769b678603e510ff2eb87aba3c863a058e31ff09c9ec1747e4af80090b1beea53a51624e976cc5fa979fc0bf2c81c14720d80a5e89c002a9d6a9efe05bed8b00059f157cbf00225f7c0999f1493a3dec93ede96d364b3c219bc446fa25577684a38e4d07779e1a0cb8a62298d47b19039110e67d04570ad02e6b0be131b173cdb69c1ff03c9a8bccfc49c4bf0b5166a9772db9d2504b359c1bd02992f5658e77e790bf9024e364e1aae33552142fccefecbc1d2be4a2e8c9ded73a0b39aec0d636fae9613161821283f43555cb4c5d6e0edef0c232c6a7b84a1f4f50325355f6a9ccaced8f3ff02070c1729354243546068797c8596aec7d1d5ebfc0000000000000000000000000000000000000000000000000f18233801fd2105008d8a71b0abd9bcbd98829fd88fb6dd87e73c003cde64ba6380a31e999047b840197d068184412e5ba9c05e51714a3ed43dd97b54e3e2547024a4406fc5b3575ed39de182d6f60a534c94dc42bf381a29cfa356ebb4979b056fc640c8c6d6839250571bd4ec8cf244b193d79fd65d6794faf0506899c8f7c3780aae72b415ba2637e483a2a03b5030a951687b2bd284393168bd91cb9f950bb162b69d3876768d7af9fd25339dbb1f2d588d33b6af97cfc83ec93e02d3e6dea955490fa31e8fae81102ed1c012eef0c6f5ae0c1903962d13ae2005614ba1fbbd7e9234ae29a2f01e51645d21807360d3f8d3133efef928f1d4a1185c354f6469e105dd96af016d87fab1659a398a59cf159786cb7d1bd86e87c01e71dfb80fcb4a386145cfb2e7db8620d5fc57e57bb455b16e028d278a8f649388f0a916349e3b57a6497038ee24b868aa80ac1e404bf559d1a85c98b303e5c80e69ed5dedf9bd9eb994570a156b43c23cd0cc2f0e51e5de87b5e8ceacb559b8a829355014468978ac7915a2c55083accd940032f61fcfefd448a4cfc82959455d12bedd46c10888860db8b0f92872803499e22983059d6c33aab9752d8220b9fd9f7697ae55e8d255ade37d45e31b7f457dd89adae2108685d8b37d9780f45bc3e6075cd1bb1d0c8aec67321e972a1c7afc8544b6f92e2d092a5f613890478b16e8c83db9b38e3d06ab674b02baed19c9f69c3c329735bc59fdc94a7d15572f980e7fa5dc9160a9c2961a4bd235a934c580e9b7830ef109266a6943fd703ba3bf929c1a8b851f05d1ba9d08cc4ba7cba43af4272f667336c1f3c088e7f3be4f49406836dbb64753dc495e6c8c80bd5650dcb5aebf1d076fbeea398fb87222dadf4c1126d780bcba150e54ccadadde296f2390e041ee193d94443aa5dcfa1d517c2e086ea0cb582b75de0a7521bd96486a2a215d58d06aab89ef2a591b048042fb96e1add7bea3b01b31679221561cb211cb74a480d732182225d997ab309c6ae2276c8b942c1665a27676a421c44d4ae3e6beb95dbf7f5419ca1e9a11a256dc7974fdc83c60e52d560db1ce409f4d0c7465c207b65d856a13f93c8ada41c5397e0aa6ce0230b308be2f89a2186f7b03d19eb40adf312903d838528cbe4aff492d10fd366909adf60bdd5fe236574bef7660c89ab414082e2e3b9beb7950ef9ca34032af4e4fcea95649c9991ac5e09f71f736251a45fe46f86e521f418e3a2c8bd4192c607b357a9893f7d2963128c7a1c660a6e0f346b0ce7128634a2b6f735d69f14a4a6a4c4458dd73e35e570d1abf35e4a9a7c750f4a5d67e87717fb75322a32e6d1b5b10734faf77512dff8a620a53e755bd3f065932d6118425d785c2f838daf8bf66bab3626f6c4ddcca40f949f003a590189d1742a624f86aff9d18165c9cdaa26bd15a449835fdd67a149bf1054047f97fbf57ff4f548beab3a971ec3600f76cea588177471647ea5ae37fe8ae2d559bd4e1de96b959e144996117cc2ee69a5429702f6ac919c200ad7f0d4ac3b093f1aedf5866bd91cb15f7a14ebb430319f1716fbfe4bdac84c1112556d6f897c0a5d4ed0fe26aead3307f208b1f08304149380dd35141f80d5b42ea2f4ada602f76a1d9f754975029e5dd6d6c1d467e4ae220fbeacf1ad5c3e2353b7d4ace9b73ce6d9ab03914218bf3983f48b1d8fa4e11b6cd5dadf419b566892e15cef536ba01e33bcc79d03e23df70267a488e5dea9500013183041ccede28da6dcb60776779ad5f7da34694b52359ad499c3909bb547aa99b6a52cf5d4078f0d286882b1e8c00a7ceec69a35673936cb9dddd02dc4d38cd3092c8f2129e67000000",
  "txid": "a8f29dc8fa0a9992320b64a4d969c1a518d06c226c497fcf4f3396dd929dd901",
  "hash": "269af30b8d81c30e02f07033c1c507aa1fb9eaa708a21f473918e37dbea3735f",
  "size": 5085,
  "vsize": 2278,
  "version": 1,
  "locktime": 103,
  "vin": [
    {
      "txid": "6c54cddd878a23cf348830924eef5c509cb9fe34b28bbcb3589633de08bc83e5",
      "vout": 1,
      "scriptSig": {
        "asm": "",
        "hex": ""
      },
      "txinwitness": [
        "2736360ae3cca655a5670d4cedd61a7397714d301184e7b38ec267504293f837ac1a0d97a50f1f29370b86df5d17b1a306b810d654ff5896f3669dcb30c8d41cee9b22883f33adc22a5b768daa30800e8cc026282aec69edc2811568c3c0f82f5afacd31b65be6436648c33efd2d89b0af73b44a0ab18671c3d1fc52b1f5d15534d871cce45345710328b611aa73198eb2ce4286e99e3db3302de703391e5055dae8c4eb676cd61cbb322f48e4cd8e7e034fbb48111ab2c0f0a98b2f87aa4065dda0becc7fdb334ee05292b74a8d106cfa66b3bf84001da8013e3d8c3b2e50e28f57365a368504a1f87805278ed05fc23927d525497a95712c466472248a20cd43147268703c3d211ea42d3f7673d42d986e5651b4889a7162d298f0568631573c848d8257a2cd5624319ebe61f21638ddfeeab23aec26621597d6dcb8d07c0d2ce3186d344256c298d83e2853e72558c71bba1c35f8358205652f8b0c8882d6ba847e2ff4d862a892f44c6a9e23adacd80b7fbfe30cb7533aadac43aaa548da7c3fb7c345d0e58dea818b148869a4aaddf34dd40e6124bfbdf3609966059888b3d9f1cdb366453579bae2b68adc365e365c983deacf24be6bd3f40dbe141996215673f86da11136dcc5a001aee1542380a44467163878a4880e6caed279b2f58bce8fdad0a0caf6ea0014ffcb204ac9e05bc16b79620b53a0cba305f8488775c4a9980326e3720602e552e4a576c7c5a5e6838aa204cd035e8c484b5aeec2a43f0a37e0c3db26bf4e6b60780a05911d1e078675d1f318eb7952da7d719253608c68f0677432c5b963db32ac965d2b765d09e21038822b430970372cba68c56c4c579d2afa9a7878eb43b4987bb33deb3a90d686b290cde44933037090eb94ae9fb46803fe77afd205ed567e47a458e4d3d25c35bed75cc8d6cd9a817f2d935e7430ef3b5c7d8fc1e2f682283076d1ca6121b3bb00fd30b240b497d0b02de79121605a7fcd7ff01c91d7722407afdd390d76a6ead3b110052c6183ffcfef314198a27b20c67cdae155efeedaca840dc79155e27c7c1bc48c2213a6dbbf3d9e512717f2d0714a47b70afeb5cce98195f754934eb2b33758dde94ae05cf4ec00e1584ba882ac57e0f30e495a9938024ca959ff3cbc74c27b81454b32565468fe66290db2ce7786c74b5c55b57eefde4bf93c25ca2387ccec234851fe7d6bcb0c3f84cf878ecfe3e65913109c7fafddd8fc876ec63d143770ebcf00ad0e860525908bc2fe6ef5741faf56ccb10609da8842847d358269710c529a6db809ad12564d5130a6e05e5e68d4579f5d42d994c156928f1d61c735bfd336ceb6c8a1d82e4548fdba46af3166c120a390b18641326b1c070b1f79336629a177a80947ab7688b0e1b4f5396d9e260771a238baf22476d88e3db5c95c0cf2236b39efbe46802714ec2cf812c0077d31c7063ec63fd7f4d098cb959106c35a726f26a33cb81e8e604a09f5514469acb52a8a26e3cb28ec5366498f9f6cfd5ccf9ec0913fceb454abb3640279c1890dfedf024fc9e964def366800da26acf37a889d61713cf2121dd81448adf3d612e91960ca7aec70045d4addbc0c84851c6639d06bb8159fc4ce4d87f5390abd3aa0e8469ebb01bb6f61a46f9270b5c50a85f2974bb1d59ca75cd892ca6f2e8cc29017c03b0ce2e66cc9497c6e2fdd1916f37cc588f0f355a8a5de44325c8c8fc3a5d13bc1049371ad188b6414ee30da220563956409516e7893a84622f1dcec9b3dd83b1070fdede0d42d745fc00a7617fa76dc15a6fff111d909391bd151b9940dcbee55646447127f3287ea948a5d9d85c67ae1d80eef91bf3f55dd067b901b43e91616ccc9abee2a6fb87941e42777e16e300fbc81e1bbc35ca63b734de21a93196e944ff4afc9cd8bec51570d060a32cbbb1c14f234375087789fe85fb498a5f63c29fc2fc209b592a581db7e66e4febe7c3edeb93c51c0d6340fa99a173ebb6407a00c7eda21eb80c2365735dff51a41a9f37e30f8bde6510a9b0efe1d59ec6aef15ec8bc8cb0dcd85698ac6151f8e8bacdea39a547f4bc70ad72890ff895bd4ca2a57c8814184a66efbe1fe91e6802df09a32e2eb8856190920e73c92aea07d30747598650612f19d3b4d18294a337ba763b2959d3c9c9669132adc8f31a5cecb26138f5ed19318459cc6f807c8a5f1a600af16c15412016064c057f2ebe9bfd5587c6173ed0d6dd471dab9d1e3819d555c2804a0138d23702d3735f21a053559b78af7c3af27e7cb771f916e4a361c73b83d9165f0191f40e64420374090d1ddc012973b8482f7bc6372bc258421ecb2a4f73aa98a99bbdf2f578e6adf1d182c181b2e762f9376931f72a8fabb05e6abcf4f11b92b6848226c7ba5f60ebb42880349d917f55d341e2a446643c969091e9462bbcb798374390b3c2a1497d02e78bcb4d6de03e5c95712af9dbab08e2049223f8f821e1e81acc6b9e7ae0952c2c94a6bcf027720af4787facba4d11fb653c08ef1556c1521c437e2ee5dc73ca84fa2693fc746e1ff39c10e17ccc5c8b12d00d8c03e907facf4440d83e991cf29285e1a187c15a8825fcfc74fb5813af46a2ae2206fc0f819e8ac6ae0100a6755875d7d1aa0ea8602b87477a4cba793f5d8a9ba3962fe3cff951f72d22a3d0deead9723ae97eab00c405abad75a2bf005b67ca432514d1f2c8ce6202953321764c1983953d384fbdd94f1ff4b576c8ae0c4633fb1060216c3c885c00398751661fd244f233a5fe91846c01ec55ff5665b8dddcea0a503e758a6aeb1586169ab2f6d48d93aee1d362054626a65d7ebe6cfc1d0e2a42a636fd0419b093808a57590d62da646418c48e82a39b42ccc76ee3d40e63ffd03f51ff7a3afa876dfc6a92179a34bc619f7731c2d045553358db014177aeeeb996c4bf6aa2c3e932ccc06fe7ee8e62d07913d5fc49b39354036e79e1651dd8960b39ebfe42b08ec91b3c13aa6fb802c52d4a3dafd6fda66b3dabd683070a3769b678603e510ff2eb87aba3c863a058e31ff09c9ec1747e4af80090b1beea53a51624e976cc5fa979fc0bf2c81c14720d80a5e89c002a9d6a9efe05bed8b00059f157cbf00225f7c0999f1493a3dec93ede96d364b3c219bc446fa25577684a38e4d07779e1a0cb8a62298d47b19039110e67d04570ad02e6b0be131b173cdb69c1ff03c9a8bccfc49c4bf0b5166a9772db9d2504b359c1bd02992f5658e77e790bf9024e364e1aae33552142fccefecbc1d2be4a2e8c9ded73a0b39aec0d636fae9613161821283f43555cb4c5d6e0edef0c232c6a7b84a1f4f50325355f6a9ccaced8f3ff02070c1729354243546068797c8596aec7d1d5ebfc0000000000000000000000000000000000000000000000000f18233801",
        "008d8a71b0abd9bcbd98829fd88fb6dd87e73c003cde64ba6380a31e999047b840197d068184412e5ba9c05e51714a3ed43dd97b54e3e2547024a4406fc5b3575ed39de182d6f60a534c94dc42bf381a29cfa356ebb4979b056fc640c8c6d6839250571bd4ec8cf244b193d79fd65d6794faf0506899c8f7c3780aae72b415ba2637e483a2a03b5030a951687b2bd284393168bd91cb9f950bb162b69d3876768d7af9fd25339dbb1f2d588d33b6af97cfc83ec93e02d3e6dea955490fa31e8fae81102ed1c012eef0c6f5ae0c1903962d13ae2005614ba1fbbd7e9234ae29a2f01e51645d21807360d3f8d3133efef928f1d4a1185c354f6469e105dd96af016d87fab1659a398a59cf159786cb7d1bd86e87c01e71dfb80fcb4a386145cfb2e7db8620d5fc57e57bb455b16e028d278a8f649388f0a916349e3b57a6497038ee24b868aa80ac1e404bf559d1a85c98b303e5c80e69ed5dedf9bd9eb994570a156b43c23cd0cc2f0e51e5de87b5e8ceacb559b8a829355014468978ac7915a2c55083accd940032f61fcfefd448a4cfc82959455d12bedd46c10888860db8b0f92872803499e22983059d6c33aab9752d8220b9fd9f7697ae55e8d255ade37d45e31b7f457dd89adae2108685d8b37d9780f45bc3e6075cd1bb1d0c8aec67321e972a1c7afc8544b6f92e2d092a5f613890478b16e8c83db9b38e3d06ab674b02baed19c9f69c3c329735bc59fdc94a7d15572f980e7fa5dc9160a9c2961a4bd235a934c580e9b7830ef109266a6943fd703ba3bf929c1a8b851f05d1ba9d08cc4ba7cba43af4272f667336c1f3c088e7f3be4f49406836dbb64753dc495e6c8c80bd5650dcb5aebf1d076fbeea398fb87222dadf4c1126d780bcba150e54ccadadde296f2390e041ee193d94443aa5dcfa1d517c2e086ea0cb582b75de0a7521bd96486a2a215d58d06aab89ef2a591b048042fb96e1add7bea3b01b31679221561cb211cb74a480d732182225d997ab309c6ae2276c8b942c1665a27676a421c44d4ae3e6beb95dbf7f5419ca1e9a11a256dc7974fdc83c60e52d560db1ce409f4d0c7465c207b65d856a13f93c8ada41c5397e0aa6ce0230b308be2f89a2186f7b03d19eb40adf312903d838528cbe4aff492d10fd366909adf60bdd5fe236574bef7660c89ab414082e2e3b9beb7950ef9ca34032af4e4fcea95649c9991ac5e09f71f736251a45fe46f86e521f418e3a2c8bd4192c607b357a9893f7d2963128c7a1c660a6e0f346b0ce7128634a2b6f735d69f14a4a6a4c4458dd73e35e570d1abf35e4a9a7c750f4a5d67e87717fb75322a32e6d1b5b10734faf77512dff8a620a53e755bd3f065932d6118425d785c2f838daf8bf66bab3626f6c4ddcca40f949f003a590189d1742a624f86aff9d18165c9cdaa26bd15a449835fdd67a149bf1054047f97fbf57ff4f548beab3a971ec3600f76cea588177471647ea5ae37fe8ae2d559bd4e1de96b959e144996117cc2ee69a5429702f6ac919c200ad7f0d4ac3b093f1aedf5866bd91cb15f7a14ebb430319f1716fbfe4bdac84c1112556d6f897c0a5d4ed0fe26aead3307f208b1f08304149380dd35141f80d5b42ea2f4ada602f76a1d9f754975029e5dd6d6c1d467e4ae220fbeacf1ad5c3e2353b7d4ace9b73ce6d9ab03914218bf3983f48b1d8fa4e11b6cd5dadf419b566892e15cef536ba01e33bcc79d03e23df70267a488e5dea9500013183041ccede28da6dcb60776779ad5f7da34694b52359ad499c3909bb547aa99b6a52cf5d4078f0d286882b1e8c00a7ceec69a35673936cb9dddd02dc4d38cd3092c8f2129e"
      ],
      "sequence": 4294967294
    }
  ],
  "vout": [
    {
      "value": 499995.9324,
      "n": 0,
      "scriptPubKey": {
        "asm": "1 f709edc67931010d8dd648eebdf8dc8582351467317b194fa65c16496ce57db5",
        "hex": "5120f709edc67931010d8dd648eebdf8dc8582351467317b194fa65c16496ce57db5",
        "reqSigs": 1,
        "type": "witness_v1_scripthash",
        "addresses": [
          "3QJmnh"
        ]
      }
    },
    {
      "value": 1.0,
      "n": 1,
      "scriptPubKey": {
        "asm": "OP_RETURN d3c9f09536dafe5585722350b72da99be5ae1404f5a8bbfd85a7983c04c5298c 62a738066cd0cddc987d8f78c9c3fa3c06d215c706fcd3441c1f250a9f754617428718264cf0edfcb85daf58e9e3da1c26f235e726dcf3643c3f052abf55663722e778462c908d9cd83dcf388983ba7c4692558746bc93045c5f654adf35065702c758660cb0adbcf81def18a9a39a5c66b275a7669cb3247c7f456aff152677e227b886ec504d5c18fd0ff849437abc86529547867c53c49c9fa58a1ff5c697c20798a6cc706d7c38dd2fd869635a9ca672b567a65c73e4bcbf85aa3fd5e6b7a267f8c6ac100d1c58bd4fb809033afcc612d507c63c1384dcdfe5ca5fb586d78247d8e68c302d3c789d6f9829231adce632f527e61c33a4fcffc5ea7f95a6f762a738066cd0cddc987d8f78c9c3fa3c06d215c706fcd3441c1f250a9f754617428718264cf0edfcb85daf58e9e3da1c26f235e726dcf3643c3f052abf55663722e778462c908d9cd83dcf388983ba7c4692558746bc93045c5f654adf35065702c758660cb0adbcf81def18a9a39a5c66b275a7669cb3247c7f456aff152677e227b886ec504d5c18fd0ff849437abc86529547867c53c49c9fa58a1ff5c697c20798a6cc706d7c38dd2fd869635a9ca672b567a65c73e4bcbf85aa3fd5e6b7a267f8c6ac100d1c58bd4fb809033afcc612d507c63c1384dcdfe5ca5fb586d78247d8e68c302d3c789d6f9829231adce632f527e61c33a4fcffc5ea7f95a6f762a738066cd0cddc987d8f78c9c3fa3c06d215c706fcd3441c1f250a9f754617428718264cf0edfcb85daf58e9e3da1c26f235e726dcf3643c3f052abf55663722e778462c908d9cd83dcf388983ba7c4692558746bc93045c5f654adf35065702c758660cb0adbcf81def18a9a39a5c66b275a7669cb3247c7f456aff152677e227b886ec504d5c18fd0ff849437abc86529547867c53c49c9fa58a1ff5c697c20798a6cc706d7c38dd2fd869635a9ca672b567a65c73e4bcbf85aa3fd5e6b7a267f8c6ac100d1c58bd4fb809033afcc612d507c63c1384dcdfe5ca5fb586d78247d8e68c302d3c789d6f9829231adce632f527e61c33a4fcffc5ea7f95a6f762a738066cd0cddc987d8f78c9c3fa3c06d215c706fcd3441c1f250a9f754617428718264cf0edfcb85daf58e9e3da1c26f235e726dcf3643c3f052abf55663722e778462c908d9cd83dcf388983ba7c4692558746bc93045c5f654adf35065702c758660cb0adbcf81def18a9a39a5c66b275a7669cb3247c7f456aff152677e227b886ec504d5c18fd0ff849437abc86529547867c53c49c9fa58a1ff5c697c20798a6cc706d7c38dd2fd869635a9ca672b567a65c73e4bcbf85aa3fd5e6b7a267f8c6ac100d1c58bd4fb809033afcc612d507c63c1384dcdfe5ca5fb586d78247d8e68c302d3c789d6f9829231adce632f527e61c33a4fcffc5ea7f95a6f762a738066cd0cddc987d8f78c9c3fa3c06d215c706fcd3441c1f250a9f754617428718264cf0edfcb85daf58e9e3da1c26f235e726dcf3643c3f052abf55663722e778462c908d9cd83dcf388983ba7c4692558746bc93045c5f654adf35065702c758660cb0adbcf81def18a9a39a5c66b275a7669cb3247c7f456aff152677e227b886ec504d5c18fd0ff849437abcf7ea471b5a2f1c7c7976a5e1671998bd6fd022241fa4705c78f9d264a3367f09",
        "hex": "6a20d3c9f09536dafe5585722350b72da99be5ae1404f5a8bbfd85a7983c04c5298c4db00462a738066cd0cddc987d8f78c9c3fa3c06d215c706fcd3441c1f250a9f754617428718264cf0edfcb85daf58e9e3da1c26f235e726dcf3643c3f052abf55663722e778462c908d9cd83dcf388983ba7c4692558746bc93045c5f654adf35065702c758660cb0adbcf81def18a9a39a5c66b275a7669cb3247c7f456aff152677e227b886ec504d5c18fd0ff849437abc86529547867c53c49c9fa58a1ff5c697c20798a6cc706d7c38dd2fd869635a9ca672b567a65c73e4bcbf85aa3fd5e6b7a267f8c6ac100d1c58bd4fb809033afcc612d507c63c1384dcdfe5ca5fb586d78247d8e68c302d3c789d6f9829231adce632f527e61c33a4fcffc5ea7f95a6f762a738066cd0cddc987d8f78c9c3fa3c06d215c706fcd3441c1f250a9f754617428718264cf0edfcb85daf58e9e3da1c26f235e726dcf3643c3f052abf55663722e778462c908d9cd83dcf388983ba7c4692558746bc93045c5f654adf35065702c758660cb0adbcf81def18a9a39a5c66b275a7669cb3247c7f456aff152677e227b886ec504d5c18fd0ff849437abc86529547867c53c49c9fa58a1ff5c697c20798a6cc706d7c38dd2fd869635a9ca672b567a65c73e4bcbf85aa3fd5e6b7a267f8c6ac100d1c58bd4fb809033afcc612d507c63c1384dcdfe5ca5fb586d78247d8e68c302d3c789d6f9829231adce632f527e61c33a4fcffc5ea7f95a6f762a738066cd0cddc987d8f78c9c3fa3c06d215c706fcd3441c1f250a9f754617428718264cf0edfcb85daf58e9e3da1c26f235e726dcf3643c3f052abf55663722e778462c908d9cd83dcf388983ba7c4692558746bc93045c5f654adf35065702c758660cb0adbcf81def18a9a39a5c66b275a7669cb3247c7f456aff152677e227b886ec504d5c18fd0ff849437abc86529547867c53c49c9fa58a1ff5c697c20798a6cc706d7c38dd2fd869635a9ca672b567a65c73e4bcbf85aa3fd5e6b7a267f8c6ac100d1c58bd4fb809033afcc612d507c63c1384dcdfe5ca5fb586d78247d8e68c302d3c789d6f9829231adce632f527e61c33a4fcffc5ea7f95a6f762a738066cd0cddc987d8f78c9c3fa3c06d215c706fcd3441c1f250a9f754617428718264cf0edfcb85daf58e9e3da1c26f235e726dcf3643c3f052abf55663722e778462c908d9cd83dcf388983ba7c4692558746bc93045c5f654adf35065702c758660cb0adbcf81def18a9a39a5c66b275a7669cb3247c7f456aff152677e227b886ec504d5c18fd0ff849437abc86529547867c53c49c9fa58a1ff5c697c20798a6cc706d7c38dd2fd869635a9ca672b567a65c73e4bcbf85aa3fd5e6b7a267f8c6ac100d1c58bd4fb809033afcc612d507c63c1384dcdfe5ca5fb586d78247d8e68c302d3c789d6f9829231adce632f527e61c33a4fcffc5ea7f95a6f762a738066cd0cddc987d8f78c9c3fa3c06d215c706fcd3441c1f250a9f754617428718264cf0edfcb85daf58e9e3da1c26f235e726dcf3643c3f052abf55663722e778462c908d9cd83dcf388983ba7c4692558746bc93045c5f654adf35065702c758660cb0adbcf81def18a9a39a5c66b275a7669cb3247c7f456aff152677e227b886ec504d5c18fd0ff849437abcf7ea471b5a2f1c7c7976a5e1671998bd6fd022241fa4705c78f9d264a3367f09",
        "type": "nulldata"
      }
    }
  ],
  "blockhash": "15af9b025c636b87e0a10c18a1a8de0e5f3c2069ad563b293161176d75df89a4",
  "confirmations": 1,
  "time": 1764174659,
  "blocktime": 1764174659
}