{
  "hex": "01000000000101166b1d9c2fb664947fae66f95efb00bf25894d3b601ded24857efe8747025ce00100000000feffffff0200e1f50500000000fdd5046a201f5b7d721e57adc6216c8bda6f76f20c8632cf92cdb380c2aa3b4930963bfdce4db0044c9f91dadd961a08d0d8205621f54cfafbfc26caa8eda047185627b9b1f813616cbfb1fafdb63a28f0f8007601d56cdadbdc06ea88cd80673876079991d833410cdfd19a9dd65a489098601661b50cbabbbc668ae8ade007581667f9f1b853212cfff1babdf67a68b0b8403641952c9a9b9c46aac88dc027783647d9d1987301cc1f115a5d169a885058a0d6a175cc7a7b7ca64a286d20c798d6a739317893e1ec3f317a7d36baa8707880f68155ec5a5b5c866a084d00e7b8f687191158b3c18c5f511a1d56dac81018e096e1358c3a3b3ce60a682d6087d896e7797138d3a1ac7f713a3d76fae83038c0b6c115ac1a1b1cc62a480d40a7f8b6c7595118f3814c9f91dadd961a08d0d8205621f54cfafbfc26caa8eda047185627b9b1f813616cbfb1fafdb63a28f0f8007601d56cdadbdc06ea88cd80673876079991d833410cdfd19a9dd65a489098601661b50cbabbbc668ae8ade007581667f9f1b853212cfff1babdf67a68b0b8403641952c9a9b9c46aac88dc027783647d9d1987301cc1f115a5d169a885058a0d6a175cc7a7b7ca64a286d20c798d6a739317893e1ec3f317a7d36baa8707880f68155ec5a5b5c866a084d00e7b8f687191158b3c18c5f511a1d56dac81018e096e1358c3a3b3ce60a682d6087d896e7797138d3a1ac7f713a3d76fae83038c0b6c115ac1a1b1cc62a480d40a7f8b6c7595118f3814c9f91dadd961a08d0d8205621f54cfafbfc26caa8eda047185627b9b1f813616cbfb1fafdb63a28f0f8007601d56cdadbdc06ea88cd80673876079991d833410cdfd19a9dd65a489098601661b50cbabbbc668ae8ade007581667f9f1b853212cfff1babdf67a68b0b8403641952c9a9b9c46aac88dc027783647d9d1987301cc1f115a5d169a885058a0d6a175cc7a7b7ca64a286d20c798d6a739317893e1ec3f317a7d36baa8707880f68155ec5a5b5c866a084d00e7b8f687191158b3c18c5f511a1d56dac81018e096e1358c3a3b3ce60a682d6087d896e7797138d3a1ac7f713a3d76fae83038c0b6c115ac1a1b1cc62a480d40a7f8b6c7595118f3814c9f91dadd961a08d0d8205621f54cfafbfc26caa8eda047185627b9b1f813616cbfb1fafdb63a28f0f8007601d56cdadbdc06ea88cd80673876079991d833410cdfd19a9dd65a489098601661b50cbabbbc668ae8ade007581667f9f1b853212cfff1babdf67a68b0b8403641952c9a9b9c46aac88dc027783647d9d1987301cc1f115a5d169a885058a0d6a175cc7a7b7ca64a286d20c798d6a739317893e1ec3f317a7d36baa8707880f68155ec5a5b5c866a084d00e7b8f687191158b3c18c5f511a1d56dac81018e096e1358c3a3b3ce60a682d6087d896e7797138d3a1ac7f713a3d76fae83038c0b6c115ac1a1b1cc62a480d40a7f8b6c7595118f3814c9f91dadd961a08d0d8205621f54cfafbfc26caa8eda047185627b9b1f813616cbfb1fafdb63a28f0f8007601d56cdadbdc06ea88cd80673876079991d833410cdfd19a9dd65a489098601661b50cbabbbc668ae8ade007581667f9f1b853212cfff1babdf67a68b0b8403641952c9a9b9c46aac88dc027783647d9d1987301cc1f115a5d169a885058a0d6a175cc7aa940f4677ca80e753d81cbace5b7a4e5c5f36dd980ea0b231055d5d2592e1868c0cc030f792d000022512078486c02f3e4eb2fe93388aeb0a84680d0660e144fa9698f2ef20fe8aa6b0f5e02fd7509869c9357834430196337b487678bd0f9ff3cf044d1dea26b3bcfbffa8b8022055485a2d2c254b20bd35c03b3b9b6fdc12b9cd27398cdcf2e7baabe7304505553054295f035361631b241b52302bd5da84a1ccc01746c821145c7b4f5b38b513763520bfb0912b23d7deff92885370107ae54a7d800289577756a4a1a94bf506cacc9b9bbd721c0cd16c607a922c5377eb73790c760bb770e68d1bb272298d9c058a9031519185f8187db84d6fc11338087b14545fc6b0a9cf92298fb0c0f13afba94dd296e8b7cda39aab85cd67a3345125d68a664f42672462b2861ab9688f84a17fe66bf71c801361aaa2d6b91a5f25b169f8493a32339e5b3c16ed55ceddc2233cc44cd3895a96d17010888933638596ecdc8dc45a6d3515cda78cf4bb50784389ef70db99992a6a6e6f687098a1e8df5f96715cbdcebad4af0b9eebf75de07a879df466ace1599560154ac30de58666bdf33a65f00859f4537721c97eb94068713eda7d9b6e6d9752492e2d52d5ac345b5aa5f0cdaaa1c397a4430ee21ef5d77031824d1c0327cd50ffa48dd33db951be356f986f0b7046f2ec9f219aab6f7e873bf7cbb00363dbe3358c59fc6d41b36a096db4bb28230b22df53a305966ff2cf01d5042aa4ab0c72e7b4827ec8c709d9669e21e73ca5bac4a1c99fdfd7ec18e15a5aa79230715c471127aceb9680fbcae313358162f6800ec947c6077182944f89fb3330d05e3c369277bcc0146ee749bfd15560abc717bfa250470aed36301f42ebc9d6d552deb97296af5263995cff3f7d0cd4ed77be54e953249a87b024ff14e663dfb80d1ca38d29e8262437620ba62a9dd426b3a802ca87d360a47a74fc8baab55d17afaa2ef95d99bcbaca2c5d168df78b0415c74a2b1312da8b8c1ac37e13f27066efa7d2615ef43081d2379ec63afb1baa9d09319599a1317ee6fe1130e0b1dcadd20f4b8fb4058e654502411ca1652ba6634b48718ea66a65612971da7cd0618f32bed88049bb389e1cdbaf9195f94ba91cae167c385e876e529dcf311629e8cf3675c3b5a62bdba531ca1715c60bcd2b56896e67e6757b14fdd0cf84b4d84c7dd7c61ff22ad670af54612099a69656fd5c85fff58f9599c53fe5e8e8ae827d92f066340d666774d0848086fc972acad6d084c645d8cd895b86b96eb0f76aa9186a4f36281381a16565d941d666781f14db0711f408ffd5a1c5c5f93e5f78f61f49fd6470df19df7681b0081174f52887cf6e1ac23ff2127c99c54c8d3f68cf42ad1cd9091075a544022cc84aef8769dc57c292d929b5d287b4c940f2c95eafed05d5e84fbc49b5cf0c102eee02512d435d8c5ea15442c3b2e5141994ea290158fc5b3dc1f03acbe78000199d147420ff921d3135085194ee777057256d714ed48a90850aa179935a7f06abfaf766687d36ee350f10977f73d19c15b7195f849451a479cf12f5e9c7bed35a30224d53340cf2718a7f7eae991bf126b3819f7190f872a978304ff40ccf6d8116affb432a60efc1e34ee5c1ade1e7d60709c782004345ed92dc0cadf3850626366b6378ddba3021a670d93681fae30d59fd1606eda4e9ced64d4656ceb36cbb8c141fc2eb7d62be883d521f81f0ecb2975c744762a060ea466ee2984bc3b5e15d44a486e3fb55cfb9613b128025860cc10aaf2f63dc32eae89e96f105ae87aa41564ff72c15bf79e64ec1105b66f129f190a8cfca840e489007fc3a665f06c3a3f6a22fb021e4b39ed1bcfee1b103cf770b217005d66f651c6597f9ce4431498dd519d3ca2cf855def601f6d0ebf248a47a7f4b9a804dff7de30ec4a6446d8f0d2d7e22ac847b2eec2fdae826463171d90e16e49d28e16526e2eee57343bab0672fa25c1b2d710dba4a3bc15ff1a45765ab363c6157e6e6850843b2340fa9b86f117e82f6ceb3d7e7eed4ca322e805c9e8023d144020849f79838207e8102fbdf1c8cac1d0b56602614b21021b9e546705506178fbb9955fb5b1cccc22d965b35a530a88410a4c22dbaf369fce2d3ea4a49ed5af3a16abb04af67e7d1edec45b519a54eb51e6d238f0ff31abd18ae00f86b4e47338248202cb95d3380bd85592490c606af8bbc29195e61bd7f350a154a798dac06bb3e6594dd06227c30ce2fcd9fdf4188785bba42a230912408779731ab2367dcb5f584df38acd6a986be138a89b4826fac37dfe9e403f37dca67c0953165b4021f8ac6e87f8615c1f92ce681172826449e03988b56565fad0cf760d4bbdf8ae2b679492d8170364912a5fe5ae5cb11d9eea0796fa0df248eec7d7eb05dc55814cb2f4496f4a3ef3edb3df93a6aad0b371c4884a275b7cea19fcc131ba62ec9f98b54d82f23d0a665727b3f8d0cf22d56d9eb3cfb30b9ac5acca59cc3eb45ad47e5c52a2572d9f18d055ff07f9ade61848ccee1954230326fffaab24c56f01c577d8ea0e2b6bf8d5d6a7bfb7a699d292c1fa6b3e894981037a666504787365451e6c9742f2fb980970b479a1e55f9a9297673c9daa92c040f0253890c3a7fbaa899147e56d0058ebf652d0acd60ec538ffc81d9cb46cc2a0ae8aa8f58d31f7c452a1e1f47ad50a16d57e6d39401ce32107097bbe6952f7297161da4e8f26c88d5a0efe0a1592487effcde9740bbc35e85a330bd7814bf0b6411de2a041f71c676f2c0fc3109260a7cb0b488d1aa8e47ab243239e109837dbc335b60911716e7a1bbc792c9e20b8d728f4572ca9612a472abdce54c361e1da37c1bb7ace8a25bbf3ffc3f159ee43debd2cca2d08e58005b0f7a0f332dc7586c1f6e1a3ac949214108fc158f043045d59ff15a67d6d33352720febe3c708ec9e6fb98a81a115a28e8673c14a1cbd1aa1f8e526e8a22b7b8c205bff7d0065354901c8f7b95ad0a71427d104a05a744b18649b888411a93c1d36b62de7f1726bc1f63459b2377f4f260dc8cd3d50564b7809d6145c92d3a8bca80d5c9eaaad27c4fb6112fc129b9b0ce06266e58648003ffca69ccfe5f474e322c7ad6b9e4edae324001b4f37db8d35736a3becf83b43d96377f3bc8b9834c89fe22d27e9e0b484b378cbb67fde968cc03e381d8377c3d375023972f71b4a0fc961310e9290fe30299abd3a7d06080deec0bc03b762547c50529364c67ad883da73d22bcf3b5e662988219a1a0fffe14ba9a6f07b1ab6f19dbeb90e3a7e3b9d6237a8100136ec1a7cb432c15a8567d6c61a8c5da1926c7e6506aa450b2cd84e64a9da723b0cdcb2c1434268855a86c04e037ee1bddd77ff3b6f0ff0d262856f48116258c534af5cc0c25363e6673979aadc4caccf01a2d303c3d3e4b575a5f7e889da2a4bbc4ced8ddeefa010f2b3052545f8d9cccf6f906293f959ba6b8d1d5d8dce0eafa000000000000000000000000000000000000000d232f3d01fd2105003002c3bc2f02a2b63cb3787ada77a3c7d2d9234e77ea6b88dd97cee62d146b9d3e99a09e8b67b153b27282e45fb5f4b1704a83e214b833b228c2d3baed0b41f04da732f1f43c7df0abaea0eb4da5612644003bb55783e447293991026ecdab231fa99f83b6bdeaf50f918c6ee73bb334e898be17999b0a36961a26ecb60eb3f98febd974e5e5f3db831c98c313bb4d4cb38c51093da7880081bf06ba24f6956adf0f37810eba3931ec6fdef4ad66d80138cb3c7de44b2df068a401974e70dbfc7c2d4a13dff67d799bd4ad421294e34a9a28caa8e210513613010910444eecd7f64b13d0506ec6c7a7514fa1a9d337dfb80cc922c7ab35f218e6694553497876328bc1a37f7459dfe8fe9001299d7f87f7b1d7ee85898a74c6cbb0e730153a3ab8b9718223925b623e233bcae03d70dc00330948e06b802cdca9736fc117c522d0ace954c7d993cf64803374fd50a39b519bff00bde3dbc08ab12cfed608fb227c1e3e1c94fc7c7555bc663b5725b836c43dd661b3c3760f9e9c0b5a7bb592bbca599a96430413473ea0fad7c291aa9018cc7b3945bb3675e91e945101c344e5358ae056d11d436d1e21fa2f4b82b60bcb44405cfb330f2eece6e15f7c4b3dbe2c0980d898ef152512dcfbcca97ea5bb79461b1c1ed3b30599bbd77b0212ec8d30c0f6cac53d5c5c07fdc74a99d7284b54a694e47f765706d5b467ed11d2f38a2326cbad82d584a1015a66c29e55b2148adfa8514e0832420b8dbfbec13209d59d95b1015ea601aae811c1a8827c4fdcff654620e9572381a431346eb403b55729275280cb739f57621542b643c5ca0b785d012bced3eb50a06fe234181a5dab7b8fe1f5c433e542d739a7cb1dc377ec9a698cc2f74ed4196b927734af96d998a945f975bbf0935d0db6b63976b6d1b8e68dd335579d77fe124d30eaa51e5ffc6c8a4ff3b539daf97ae7375c294a506750293d510db9416ff38e4abc305aea8b7adc05d6e5bfd0922467157548c34461d147c94b336282deae40fc8b0fe3afe16eb7edffa79acb4fda13b213c66aa9f54a2f8c2e81e28712bd3a37c98b4edae3d6d02eb00b0139528fe38dee780ac0fa3a956b27679edf5ca7a836bbc1ee8d2c8b695b90dc5bc5e60afca92b7f8fef0242d7502bcb7268c0d8be710e1e21d2b80536a868a3f71104d02ed715254b400aca4893dc208d6f25741b55423d586ec91b6ee3ab3fa8bb383b21b2e3e693e5688551631c21f9daf87156292de04c2751cc56a4677df3b8c6fb26e39e410cb87329e6d4eb90e4a22f51c1a57675753e6c200bed984cdb2de8de9bf836ac95c285ffb7b219c0864c6f2094ce8f853443525c634a3663897875c6a18eee85ee79a4718e5d38366fb06b4b71b9619cb2693e2d9d519f03534bab817ae92cdfef46604b2636243144134d9ff6bc1e1151036d87740c9c4bfda1971667e8907d2a76a483a86a778c75c7df5914aa84eeba5f7f7293df0eeb01a301aea8045b0ceac9a26f46bef5714445f52b9163d85df8c5ae1c51090844a17ffb69458be424bd921f2ee860a87fdcc41cd403d8615a908cf75d19b2c4796cf7df473ee4acac5dc1d0e2160bd5e390ca4ce98d0090ba1e0cfbdc1a8434a4554e4cf1b934369f973aec02bbabe6181cac6c8961c83f6ca6f74cddfb8df3bccc3806d978211fdeacb8221bd49ce4b1a6f57c960a9a6091b0b810222325735a554656355ce1c6ab098cbce0327d171f7da2d234d10607f00ab2bd076fa3ae7d7ec4c261d493ae1afc364716bc56ed4269ea2afa5253e3fa00a2565db1f599f5ad740e02c53361df9c784bbc2694edb494084697766afafcd7de4d73000000",
  "txid": "a1eeac61b4cb72b470e2727a644217aacd9274ca0a188e96278789584fca5b6d",
  "hash": "2db58ca95a2a74ac42f98ff2ec15e7d840fd9d5224c4ac0877b0caadfa0d2120",
  "size": 5085,
  "vsize": 2278,
  "version": 1,
  "locktime": 115,
  "vin": [
    {
      "txid": "e05c024787fe7e8524ed1d603b4d8925bf00fb5ef966ae7f9464b62f9c1d6b16",
      "vout": 1,
      "scriptSig": {
        "asm": "",
        "hex": ""
      },
      "txinwitness": [
        "869c9357834430196337b487678bd0f9ff3cf044d1dea26b3bcfbffa8b8022055485a2d2c254b20bd35c03b3b9b6fdc12b9cd27398cdcf2e7baabe7304505553054295f035361631b241b52302bd5da84a1ccc01746c821145c7b4f5b38b513763520bfb0912b23d7deff92885370107ae54a7d800289577756a4a1a94bf506cacc9b9bbd721c0cd16c607a922c5377eb73790c760bb770e68d1bb272298d9c058a9031519185f8187db84d6fc11338087b14545fc6b0a9cf92298fb0c0f13afba94dd296e8b7cda39aab85cd67a3345125d68a664f42672462b2861ab9688f84a17fe66bf71c801361aaa2d6b91a5f25b169f8493a32339e5b3c16ed55ceddc2233cc44cd3895a96d17010888933638596ecdc8dc45a6d3515cda78cf4bb50784389ef70db99992a6a6e6f687098a1e8df5f96715cbdcebad4af0b9eebf75de07a879df466ace1599560154ac30de58666bdf33a65f00859f4537721c97eb94068713eda7d9b6e6d9752492e2d52d5ac345b5aa5f0cdaaa1c397a4430ee21ef5d77031824d1c0327cd50ffa48dd33db951be356f986f0b7046f2ec9f219aab6f7e873bf7cbb00363dbe3358c59fc6d41b36a096db4bb28230b22df53a305966ff2cf01d5042aa4ab0c72e7b4827ec8c709d9669e21e73ca5bac4a1c99fdfd7ec18e15a5aa79230715c471127aceb9680fbcae313358162f6800ec947c6077182944f89fb3330d05e3c369277bcc0146ee749bfd15560abc717bfa250470aed36301f42ebc9d6d552deb97296af5263995cff3f7d0cd4ed77be54e953249a87b024ff14e663dfb80d1ca38d29e8262437620ba62a9dd426b3a802ca87d360a47a74fc8baab55d17afaa2ef95d99bcbaca2c5d168df78b0415c74a2b1312da8b8c1ac37e13f27066efa7d2615ef43081d2379ec63afb1baa9d09319599a1317ee6fe1130e0b1dcadd20f4b8fb4058e654502411ca1652ba6634b48718ea66a65612971da7cd0618f32bed88049bb389e1cdbaf9195f94ba91cae167c385e876e529dcf311629e8cf3675c3b5a62bdba531ca1715c60bcd2b56896e67e6757b14fdd0cf84b4d84c7dd7c61ff22ad670af54612099a69656fd5c85fff58f9599c53fe5e8e8ae827d92f066340d666774d0848086fc972acad6d084c645d8cd895b86b96eb0f76aa9186a4f36281381a16565d941d666781f14db0711f408ffd5a1c5c5f93e5f78f61f49fd6470df19df7681b0081174f52887cf6e1ac23ff2127c99c54c8d3f68cf42ad1cd9091075a544022cc84aef8769dc57c292d929b5d287b4c940f2c95eafed05d5e84fbc49b5cf0c102eee02512d435d8c5ea15442c3b2e5141994ea290158fc5b3dc1f03acbe78000199d147420ff921d3135085194ee777057256d714ed48a90850aa179935a7f06abfaf766687d36ee350f10977f73d19c15b7195f849451a479cf12f5e9c7bed35a30224d53340cf2718a7f7eae991bf126b3819f7190f872a978304ff40ccf6d8116affb432a60efc1e34ee5c1ade1e7d60709c782004345ed92dc0cadf3850626366b6378ddba3021a670d93681fae30d59fd1606eda4e9ced64d4656ceb36cbb8c141fc2eb7d62be883d521f81f0ecb2975c744762a060ea466ee2984bc3b5e15d44a486e3fb55cfb9613b128025860cc10aaf2f63dc32eae89e96f105ae87aa41564ff72c15bf79e64ec1105b66f129f190a8cfca840e489007fc3a665f06c3a3f6a22fb021e4b39ed1bcfee1b103cf770b217005d66f651c6597f9ce4431498dd519d3ca2cf855def601f6d0ebf248a47a7f4b9a804dff7de30ec4a6446d8f0d2d7e22ac847b2eec2fdae826463171d90e16e49d28e16526e2eee57343bab0672fa25c1b2d710dba4a3bc15ff1a45765ab363c6157e6e6850843b2340fa9b86f117e82f6ceb3d7e7eed4ca322e805c9e8023d144020849f79838207e8102fbdf1c8cac1d0b56602614b21021b9e546705506178fbb9955fb5b1cccc22d965b35a530a88410a4c22dbaf369fce2d3ea4a49ed5af3a16abb04af67e7d1edec45b519a54eb51e6d238f0ff31abd18ae00f86b4e47338248202cb95d3380bd85592490c606af8bbc29195e61bd7f350a154a798dac06bb3e6594dd06227c30ce2fcd9fdf4188785bba42a230912408779731ab2367dcb5f584df38acd6a986be138a89b4826fac37dfe9e403f37dca67c0953165b4021f8ac6e87f8615c1f92ce681172826449e03988b56565fad0cf760d4bbdf8ae2b679492d8170364912a5fe5ae5cb11d9eea0796fa0df248eec7d7eb05dc55814cb2f4496f4a3ef3edb3df93a6aad0b371c4884a275b7cea19fcc131ba62ec9f98b54d82f23d0a665727b3f8d0cf22d56d9eb3cfb30b9ac5acca59cc3eb45ad47e5c52a2572d9f18d055ff07f9ade61848ccee1954230326fffaab24c56f01c577d8ea0e2b6bf8d5d6a7bfb7a699d292c1fa6b3e894981037a666504787365451e6c9742f2fb980970b479a1e55f9a9297673c9daa92c040f0253890c3a7fbaa899147e56d0058ebf652d0acd60ec538ffc81d9cb46cc2a0ae8aa8f58d31f7c452a1e1f47ad50a16d57e6d39401ce32107097bbe6952f7297161da4e8f26c88d5a0efe0a1592487effcde9740bbc35e85a330bd7814bf0b6411de2a041f71c676f2c0fc3109260a7cb0b488d1aa8e47ab243239e109837dbc335b60911716e7a1bbc792c9e20b8d728f4572ca9612a472abdce54c361e1da37c1bb7ace8a25bbf3ffc3f159ee43debd2cca2d08e58005b0f7a0f332dc7586c1f6e1a3ac949214108fc158f043045d59ff15a67d6d33352720febe3c708ec9e6fb98a81a115a28e8673c14a1cbd1aa1f8e526e8a22b7b8c205bff7d0065354901c8f7b95ad0a71427d104a05a744b18649b888411a93c1d36b62de7f1726bc1f63459b2377f4f260dc8cd3d50564b7809d6145c92d3a8bca80d5c9eaaad27c4fb6112fc129b9b0ce06266e58648003ffca69ccfe5f474e322c7ad6b9e4edae324001b4f37db8d35736a3becf83b43d96377f3bc8b9834c89fe22d27e9e0b484b378cbb67fde968cc03e381d8377c3d375023972f71b4a0fc961310e9290fe30299abd3a7d06080deec0bc03b762547c50529364c67ad883da73d22bcf3b5e662988219a1a0fffe14ba9a6f07b1ab6f19dbeb90e3a7e3b9d6237a8100136ec1a7cb432c15a8567d6c61a8c5da1926c7e6506aa450b2cd84e64a9da723b0cdcb2c1434268855a86c04e037ee1bddd77ff3b6f0ff0d262856f48116258c534af5cc0c25363e6673979aadc4caccf01a2d303c3d3e4b575a5f7e889da2a4bbc4ced8ddeefa010f2b3052545f8d9cccf6f906293f959ba6b8d1d5d8dce0eafa000000000000000000000000000000000000000d232f3d01",
        "003002c3bc2f02a2b63cb3787ada77a3c7d2d9234e77ea6b88dd97cee62d146b9d3e99a09e8b67b153b27282e45fb5f4b1704a83e214b833b228c2d3baed0b41f04da732f1f43c7df0abaea0eb4da5612644003bb55783e447293991026ecdab231fa99f83b6bdeaf50f918c6ee73bb334e898be17999b0a36961a26ecb60eb3f98febd974e5e5f3db831c98c313bb4d4cb38c51093da7880081bf06ba24f6956adf0f37810eba3931ec6fdef4ad66d80138cb3c7de44b2df068a401974e70dbfc7c2d4a13dff67d799bd4ad421294e34a9a28caa8e210513613010910444eecd7f64b13d0506ec6c7a7514fa1a9d337dfb80cc922c7ab35f218e6694553497876328bc1a37f7459dfe8fe9001299d7f87f7b1d7ee85898a74c6cbb0e730153a3ab8b9718223925b623e233bcae03d70dc00330948e06b802cdca9736fc117c522d0ace954c7d993cf64803374fd50a39b519bff00bde3dbc08ab12cfed608fb227c1e3e1c94fc7c7555bc663b5725b836c43dd661b3c3760f9e9c0b5a7bb592bbca599a96430413473ea0fad7c291aa9018cc7b3945bb3675e91e945101c344e5358ae056d11d436d1e21fa2f4b82b60bcb44405cfb330f2eece6e15f7c4b3dbe2c0980d898ef152512dcfbcca97ea5bb79461b1c1ed3b30599bbd77b0212ec8d30c0f6cac53d5c5c07fdc74a99d7284b54a694e47f765706d5b467ed11d2f38a2326cbad82d584a1015a66c29e55b2148adfa8514e0832420b8dbfbec13209d59d95b1015ea601aae811c1a8827c4fdcff654620e9572381a431346eb403b55729275280cb739f57621542b643c5ca0b785d012bced3eb50a06fe234181a5dab7b8fe1f5c433e542d739a7cb1dc377ec9a698cc2f74ed4196b927734af96d998a945f975bbf0935d0db6b63976b6d1b8e68dd335579d77fe124d30eaa51e5ffc6c8a4ff3b539daf97ae7375c294a506750293d510db9416ff38e4abc305aea8b7adc05d6e5bfd0922467157548c34461d147c94b336282deae40fc8b0fe3afe16eb7edffa79acb4fda13b213c66aa9f54a2f8c2e81e28712bd3a37c98b4edae3d6d02eb00b0139528fe38dee780ac0fa3a956b27679edf5ca7a836bbc1ee8d2c8b695b90dc5bc5e60afca92b7f8fef0242d7502bcb7268c0d8be710e1e21d2b80536a868a3f71104d02ed715254b400aca4893dc208d6f25741b55423d586ec91b6ee3ab3fa8bb383b21b2e3e693e5688551631c21f9daf87156292de04c2751cc56a4677df3b8c6fb26e39e410cb87329e6d4eb90e4a22f51c1a57675753e6c200bed984cdb2de8de9bf836ac95c285ffb7b219c0864c6f2094ce8f853443525c634a3663897875c6a18eee85ee79a4718e5d38366fb06b4b71b9619cb2693e2d9d519f03534bab817ae92cdfef46604b2636243144134d9ff6bc1e1151036d87740c9c4bfda1971667e8907d2a76a483a86a778c75c7df5914aa84eeba5f7f7293df0eeb01a301aea8045b0ceac9a26f46bef5714445f52b9163d85df8c5ae1c51090844a17ffb69458be424bd921f2ee860a87fdcc41cd403d8615a908cf75d19b2c4796cf7df473ee4acac5dc1d0e2160bd5e390ca4ce98d0090ba1e0cfbdc1a8434a4554e4cf1b934369f973aec02bbabe6181cac6c8961c83f6ca6f74cddfb8df3bccc3806d978211fdeacb8221bd49ce4b1a6f57c960a9a6091b0b810222325735a554656355ce1c6ab098cbce0327d171f7da2d234d10607f00ab2bd076fa3ae7d7ec4c261d493ae1afc364716bc56ed4269ea2afa5253e3fa00a2565db1f599f5ad740e02c53361df9c784bbc2694edb494084697766afafcd7de4d"
      ],
      "sequence": 4294967294
    }
  ],
  "vout": [
    {
      "value": 1.0,
      "n": 0,
      "scriptPubKey": {
        "asm": "OP_RETURN 1f5b7d721e57adc6216c8bda6f76f20c8632cf92cdb380c2aa3b4930963bfdce 4c9f91dadd961a08d0d8205621f54cfafbfc26caa8eda047185627b9b1f813616cbfb1fafdb63a28f0f8007601d56cdadbdc06ea88cd80673876079991d833410cdfd19a9dd65a489098601661b50cbabbbc668ae8ade007581667f9f1b853212cfff1babdf67a68b0b8403641952c9a9b9c46aac88dc027783647d9d1987301cc1f115a5d169a885058a0d6a175cc7a7b7ca64a286d20c798d6a739317893e1ec3f317a7d36baa8707880f68155ec5a5b5c866a084d00e7b8f687191158b3c18c5f511a1d56dac81018e096e1358c3a3b3ce60a682d6087d896e7797138d3a1ac7f713a3d76fae83038c0b6c115ac1a1b1cc62a480d40a7f8b6c7595118f3814c9f91dadd961a08d0d8205621f54cfafbfc26caa8eda047185627b9b1f813616cbfb1fafdb63a28f0f8007601d56cdadbdc06ea88cd80673876079991d833410cdfd19a9dd65a489098601661b50cbabbbc668ae8ade007581667f9f1b853212cfff1babdf67a68b0b8403641952c9a9b9c46aac88dc027783647d9d1987301cc1f115a5d169a885058a0d6a175cc7a7b7ca64a286d20c798d6a739317893e1ec3f317a7d36baa8707880f68155ec5a5b5c866a084d00e7b8f687191158b3c18c5f511a1d56dac81018e096e1358c3a3b3ce60a682d6087d896e7797138d3a1ac7f713a3d76fae83038c0b6c115ac1a1b1cc62a480d40a7f8b6c7595118f3814c9f91dadd961a08d0d8205621f54cfafbfc26caa8eda047185627b9b1f813616cbfb1fafdb63a28f0f8007601d56cdadbdc06ea88cd80673876079991d833410cdfd19a9dd65a489098601661b50cbabbbc668ae8ade007581667f9f1b853212cfff1babdf67a68b0b8403641952c9a9b9c46aac88dc027783647d9d1987301cc1f115a5d169a885058a0d6a175cc7a7b7ca64a286d20c798d6a739317893e1ec3f317a7d36baa8707880f68155ec5a5b5c866a084d00e7b8f687191158b3c18c5f511a1d56dac81018e096e1358c3a3b3ce60a682d6087d896e7797138d3a1ac7f713a3d76fae83038c0b6c115ac1a1b1cc62a480d40a7f8b6c7595118f3814c9f91dadd961a08d0d8205621f54cfafbfc26caa8eda047185627b9b1f813616cbfb1fafdb63a28f0f8007601d56cdadbdc06ea88cd80673876079991d833410cdfd19a9dd65a489098601661b50cbabbbc668ae8ade007581667f9f1b853212cfff1babdf67a68b0b8403641952c9a9b9c46aac88dc027783647d9d1987301cc1f115a5d169a885058a0d6a175cc7a7b7ca64a286d20c798d6a739317893e1ec3f317a7d36baa8707880f68155ec5a5b5c866a084d00e7b8f687191158b3c18c5f511a1d56dac81018e096e1358c3a3b3ce60a682d6087d896e7797138d3a1ac7f713a3d76fae83038c0b6c115ac1a1b1cc62a480d40a7f8b6c7595118f3814c9f91dadd961a08d0d8205621f54cfafbfc26caa8eda047185627b9b1f813616cbfb1fafdb63a28f0f8007601d56cdadbdc06ea88cd80673876079991d833410cdfd19a9dd65a489098601661b50cbabbbc668ae8ade007581667f9f1b853212cfff1babdf67a68b0b8403641952c9a9b9c46aac88dc027783647d9d1987301cc1f115a5d169a885058a0d6a175cc7aa940f4677ca80e753d81cbace5b7a4e5c5f36dd980ea0b231055d5d2592e1868",
        "hex": "6a201f5b7d721e57adc6216c8bda6f76f20c8632cf92cdb380c2aa3b4930963bfdce4db0044c9f91dadd961a08d0d8205621f54cfafbfc26caa8eda047185627b9b1f813616cbfb1fafdb63a28f0f8007601d56cdadbdc06ea88cd80673876079991d833410cdfd19a9dd65a489098601661b50cbabbbc668ae8ade007581667f9f1b853212cfff1babdf67a68b0b8403641952c9a9b9c46aac88dc027783647d9d1987301cc1f115a5d169a885058a0d6a175cc7a7b7ca64a286d20c798d6a739317893e1ec3f317a7d36baa8707880f68155ec5a5b5c866a084d00e7b8f687191158b3c18c5f511a1d56dac81018e096e1358c3a3b3ce60a682d6087d896e7797138d3a1ac7f713a3d76fae83038c0b6c115ac1a1b1cc62a480d40a7f8b6c7595118f3814c9f91dadd961a08d0d8205621f54cfafbfc26caa8eda047185627b9b1f813616cbfb1fafdb63a28f0f8007601d56cdadbdc06ea88cd80673876079991d833410cdfd19a9dd65a489098601661b50cbabbbc668ae8ade007581667f9f1b853212cfff1babdf67a68b0b8403641952c9a9b9c46aac88dc027783647d9d1987301cc1f115a5d169a885058a0d6a175cc7a7b7ca64a286d20c798d6a739317893e1ec3f317a7d36baa8707880f68155ec5a5b5c866a084d00e7b8f687191158b3c18c5f511a1d56dac81018e096e1358c3a3b3ce60a682d6087d896e7797138d3a1ac7f713a3d76fae83038c0b6c115ac1a1b1cc62a480d40a7f8b6c7595118f3814c9f91dadd961a08d0d8205621f54cfafbfc26caa8eda047185627b9b1f813616cbfb1fafdb63a28f0f8007601d56cdadbdc06ea88cd80673876079991d833410cdfd19a9dd65a489098601661b50cbabbbc668ae8ade007581667f9f1b853212cfff1babdf67a68b0b8403641952c9a9b9c46aac88dc027783647d9d1987301cc1f115a5d169a885058a0d6a175cc7a7b7ca64a286d20c798d6a739317893e1ec3f317a7d36baa8707880f68155ec5a5b5c866a084d00e7b8f687191158b3c18c5f511a1d56dac81018e096e1358c3a3b3ce60a682d6087d896e7797138d3a1ac7f713a3d76fae83038c0b6c115ac1a1b1cc62a480d40a7f8b6c7595118f3814c9f91dadd961a08d0d8205621f54cfafbfc26caa8eda047185627b9b1f813616cbfb1fafdb63a28f0f8007601d56cdadbdc06ea88cd80673876079991d833410cdfd19a9dd65a489098601661b50cbabbbc668ae8ade007581667f9f1b853212cfff1babdf67a68b0b8403641952c9a9b9c46aac88dc027783647d9d1987301cc1f115a5d169a885058a0d6a175cc7a7b7ca64a286d20c798d6a739317893e1ec3f317a7d36baa8707880f68155ec5a5b5c866a084d00e7b8f687191158b3c18c5f511a1d56dac81018e096e1358c3a3b3ce60a682d6087d896e7797138d3a1ac7f713a3d76fae83038c0b6c115ac1a1b1cc62a480d40a7f8b6c7595118f3814c9f91dadd961a08d0d8205621f54cfafbfc26caa8eda047185627b9b1f813616cbfb1fafdb63a28f0f8007601d56cdadbdc06ea88cd80673876079991d833410cdfd19a9dd65a489098601661b50cbabbbc668ae8ade007581667f9f1b853212cfff1babdf67a68b0b8403641952c9a9b9c46aac88dc027783647d9d1987301cc1f115a5d169a885058a0d6a175cc7aa940f4677ca80e753d81cbace5b7a4e5c5f36dd980ea0b231055d5d2592e1868",
        "type": "nulldata"
      }
    },
    {
      "value": 499979.662,
      "n": 1,
      "scriptPubKey": {
        "asm": "1 78486c02f3e4eb2fe93388aeb0a84680d0660e144fa9698f2ef20fe8aa6b0f5e",
        "hex": "512078486c02f3e4eb2fe93388aeb0a84680d0660e144fa9698f2ef20fe8aa6b0f5e",
        "reqSigs": 1,
        "type": "witness_v1_scripthash",
        "addresses": [
          "3QJmnh"
        ]
      }
    }
  ],
  "blockhash": "b157fe5006ea74e3e2696296011f5383f171fa956e468cbbd84742f98a1af3af",
  "confirmations": 1,
  "time": 1764179051,
  "blocktime": 1764179051
}