{
  "hex": "0100000000010162dfa659a82ba6467873b4dc1ab0b27f15c8e79735757e535243e723046341070000000000feffffff0200e1f50500000000fdd5046a2043c22d6eaf12ee59b37104bb3400b3e2a057de335d383176404545e4d0d069e44db0041ec8ac4e95a452f33d1e6926d69670e19c2d3e8fb0604a9ed55d4cd8300049eb3ee88c6eb58472d31d3e4906f6b650c1bc0d1eaf90406abef57d6cf8102069cb5e88ec0ed5e412b37d5e296696d630a1dc6d7ecff0200ade951d0c98704009ab7ea8cc2ef5c432935d7e0946b6f61081fc4d5eefd0002afeb53d2cb85060298b9e482cce1524d273bd9ee9a65616f0611cadbe0f30e0ca1e55ddcc58b080c96bbe680cee3504f2539dbec9867636d0413c8d9e2f10c0ea3e75fdec7890a0e94bde086c8e55649233fddea9e61656b0215cedfe4f70a08a5e159d8c18f0c0892bfe284cae7544b213ddfe89c6367690017ccdde6f5080aa7e35bdac38d0e0a90b1ec8ac4e95a452f33d1e6926d69670e19c2d3e8fb0604a9ed55d4cd8300049eb3ee88c6eb58472d31d3e4906f6b650c1bc0d1eaf90406abef57d6cf8102069cb5e88ec0ed5e412b37d5e296696d630a1dc6d7ecff0200ade951d0c98704009ab7ea8cc2ef5c432935d7e0946b6f61081fc4d5eefd0002afeb53d2cb85060298b9e482cce1524d273bd9ee9a65616f0611cadbe0f30e0ca1e55ddcc58b080c96bbe680cee3504f2539dbec9867636d0413c8d9e2f10c0ea3e75fdec7890a0e94bde086c8e55649233fddea9e61656b0215cedfe4f70a08a5e159d8c18f0c0892bfe284cae7544b213ddfe89c6367690017ccdde6f5080aa7e35bdac38d0e0a90b1ec8ac4e95a452f33d1e6926d69670e19c2d3e8fb0604a9ed55d4cd8300049eb3ee88c6eb58472d31d3e4906f6b650c1bc0d1eaf90406abef57d6cf8102069cb5e88ec0ed5e412b37d5e296696d630a1dc6d7ecff0200ade951d0c98704009ab7ea8cc2ef5c432935d7e0946b6f61081fc4d5eefd0002afeb53d2cb85060298b9e482cce1524d273bd9ee9a65616f0611cadbe0f30e0ca1e55ddcc58b080c96bbe680cee3504f2539dbec9867636d0413c8d9e2f10c0ea3e75fdec7890a0e94bde086c8e55649233fddea9e61656b0215cedfe4f70a08a5e159d8c18f0c0892bfe284cae7544b213ddfe89c6367690017ccdde6f5080aa7e35bdac38d0e0a90b1ec8ac4e95a452f33d1e6926d69670e19c2d3e8fb0604a9ed55d4cd8300049eb3ee88c6eb58472d31d3e4906f6b650c1bc0d1eaf90406abef57d6cf8102069cb5e88ec0ed5e412b37d5e296696d630a1dc6d7ecff0200ade951d0c98704009ab7ea8cc2ef5c432935d7e0946b6f61081fc4d5eefd0002afeb53d2cb85060298b9e482cce1524d273bd9ee9a65616f0611cadbe0f30e0ca1e55ddcc58b080c96bbe680cee3504f2539dbec9867636d0413c8d9e2f10c0ea3e75fdec7890a0e94bde086c8e55649233fddea9e61656b0215cedfe4f70a08a5e159d8c18f0c0892bfe284cae7544b213ddfe89c6367690017ccdde6f5080aa7e35bdac38d0e0a90b1ec8ac4e95a452f33d1e6926d69670e19c2d3e8fb0604a9ed55d4cd8300049eb3ee88c6eb58472d31d3e4906f6b650c1bc0d1eaf90406abef57d6cf8102069cb5e88ec0ed5e412b37d5e296696d630a1dc6d7ecff0200ade951d0c98704009ab7ea8cc2ef5c432935d7e0946b6f61081fc4d5eefd0002afeb53d2cb85060298b9e482cce1524d273bd9ee9a65616f061bd6b158bdc0c328587806448e7a18202f8de573f86a0c698919b68afc2e44455c075fe6f792d000022512008b988c6a1354e0b528b5c5adb79941beb0e1d1d3b1d77d203d18e2baad8f8c002fd75096e86c701c54be80e9cb938f4527ff923fa1c636fdb89070ef97688bfcd5dae1d1fe656b4517532d7adcd02f1b454466e3118221e3906c450ec886ae72aff3e9131d300b5a70b2e0e5665bee39a6439a23efd59c3e6ecf3033489c0c23b7c011542307d32813fcc3267363622bd8d1b3929a24abb18f0799bdc32b8278c336f05d6a51b3eb177c3d62d90c73f585934a645985c3416e07330369176e2ebc58945f92a6d257506c61bf1fdca885a08dd9cd604f2830c76376d15f742ef2090d122ecf326ab9c03e5973e83968e47b92a23f4b290a6c1ecc4ca79fffae4580abefb8d28fd4e8f0f9435df127ea93f56f906d773318c8c3e0b31996ebfe7b1761ef9b1dd76419df0a6295d14b17ff2e82d72a3c35586fde4636038e05a0e378be25d6de31d8d5e3d8ed16ffce892b345f2c30a80161428ce94cd3b6b9ea19b6251477e49e8423b15e32f65ebf36c8684f687cc625cc03a140a0912359d05ae93997acd01ec7bcacd41020b3e1f4ae196a36a76e3955c60b561d5c9af628d01e43ea745ec06a2738a9c1a364037a832a482c2daf4f9f7e1fa3fee4bb203741412cc8c2847e22f0d020b8c73b4697ea575fb2cdc0a915b7a993caa4031d55fa8f8ae078811d628ae6a9b34e1c850634269f9411628b063c22307df5795142c542ffeadc027cb62d099480d65986ff0c09097ebed99ab260d81f8f6664a2a2f6ab41a99f1cfc0586009c2f2a5582e0f3d89e766e33a837473f355d6149b87718354760401fad03d0c5fef950a3264670f93a217df168e0206370be4aa2cc70cc3bb6e8ed803248b6666e885829a1e0fe6da1b29643976b97322dccb71be9ef0de6fa63116b6c4ea04c915db4c9e1cd61d8fc8c062e01520b198881739bd0d065d8094de10fbda5ac1d416e96d5c4d09215e70c93a6a37939b678b7d6fd5c38d969debeb314800ef7614dbb439ea8e172571ef851ee447674e6cdd3cef2599a6664166d9d377da050158baf8a974d4734b2397b5f0eed541874d601bbf79d4aa3d8b0fdc874ed63a68026e2250ef2fe00f8f19272848c342044baaaf022c1a7d9eedd1910bfcf86d0a0acf4dccd0518876463caf43149a7ba51b6886b9581344c8c5cf41a9d153d8294f9441177401b1472b0f5f9e12d21dd52fd98265fc3c85c63cd2789b5a448bdd45b2a6e6dacb2207de18097840195fed2be4654bee4e51b6a538f05c353f2b0e0a1fd5f60b41f73e96ebf65437239b99f1af54447077e64c608187ce2d2adcede260e25d36a6334311c5389606d29f477f571dc1239accc2be7b55a5b883f12a9627680896fee5c28fd1ff1affadf7addfa29d100f8812b85e014e9fccad5293834351956d71e53897a0ec6e7217c8dc27ffda187b7f041c57474afc675d9815d4a2f9b058f281763c4c402dc2a51f43cf35e308fcac1d8034897c5dc1a4d173e95b24608bc311689fac83a8b12e9d8ac13d49ef32151c195fa2e390d6699b9344e7a3d4c5d82a0b0e17aad071231d2b7cafb0f6c07a03729a7cffe59fb9a8e5bf728d76275d10f6ab21f0b897402bebab3f5c768c585554ed612d9ad30f8fdc1f03debc977aa1d9fd97529dab36d8794b65889ea68ddc4bf5c8aebc91d5bd7b08f47877ff8931b72d9d38e0902f4668e3f861b5374fc9873ce81041a3d003f1863ad815a22554054cae238aaa74418dcf6379847d44504e20d2c97b43e760ce2d9b862148211efd3e28760fbcd77f9ca3927bcc92cd8146b3ec636bc8157410572c3e14767f971d9caf900c34a270a1c4275a91d1adc5731befea34385609112f7c09bce5cbe64862b440c57473249f1e6655e6a45ef76f885b80eca7827de22515abe0bddab2dacf3266884b4dee3cc5192baedee392f63cc621ce95f24e2591733a38df1f5287cec42e75307e1ec0b93948f6c1addff9f1d555db4dd2981da12c8c31b4ae4c9c1188c8a2f866f5edafd6885e40f5dc623d0beaf81138a3191cffb4732506ebfd942cc5140a4ec23983be0cfa999f9cf95f5880a85e931c346382e4140d45137cf670ed1af38c8868e85112aaa829140cdbbc5241e43c3d3f7e5036498de286d5a4ec36c85ca24b9bd71fe9f33085d4f11651100b1500b99194c0e960a5c758d6e33f06c91d2f2310697e71e1c054557dfefd81b58fb26195e4fffad8e35eafcbcc0bb9a35baab74ee28d58942495efc59f22f8afb3f48cdd5e5b3b9dc9fb03590d77d299e9c27e97d56cafaa5f3077b434f1048609fb514aac98c099e09bd8e3dc78feab43343f82527491af26c7cb6cbf86aa1d10a68ee8ccab435b50e964b877d6e77e45b35f56923aa17aec27e525fda9efe8a5e7d3db06c3e466e87da0ec0f5b4b022f70a347afa89f7c3c6c87e6ef3c4d07d8cee7c613514c1498e49e43faf6ded3e4d40347c3e46a8ed2fff18028179f854502d6389ffd2e5bf45e46de34e890c4d1c7114e27af85992885b00771cc2ecdfdf1c29ef48655b87fb6f98adcf275cca7a22056bf7582fca85e85cdba7de202370edfdebc6530691ca8bc9f0e6b5c6daa8d7a44909cda8ecf9254aab6b8f35ad84100fe462905006e30620c9b60aa134f516b7843f47246b43ac1b226e6dd905ebcbbce5203fb66a1b945e4b734ed5c22d50fffa412e1aedf9a94522e4595c7a856ff411338da5aab6a81ef3fa81f6eee3d27336fb8126f69d80aeeded810810fc23d0b7d24fe00048c5848842495ce0adc047d8517edebe80d3489e0f6ebf3178e7f30bf63f5778942fdb2731e3db41a9d5963489d868fd65f1659c86b12f9acac131e308c009f95425eae093c8ea7442f90964a73cc30830bce60f751d98273c4e352f09532e565b760f4373d0133819d6bc5f97cf28c81f0948c2528fc0dc52fb2b62f7a96308f850c748dc9a8b22a3e9d85a66dc9b8596f5d0d6440ffd2b0bf98fa9776c9e1bbfea3c82e95136e959778f54b5109a1bb02921e944684c69dfc338ac43d411f08171fbae6047338fe36c2142b6ec07f2115a61c538db946c20b73c3c3837bf5045f36449c50659841c1901ecb017cdb7ffd3782cc63f2b982c47f5a8ebb9a9c00e9847791b60a936129574fd1e39d904dfe89bde93fba2a16ff3abad643b54d28388effe07fca2a197989e40f8e66ba8f2ec769d1fa5027bd84e41f7f2512429aac2cc24d8b08814de3395e170acdf34f75b3b8f4e91da9edf79d0d0c3c7c6c93659f2323e80604cca8f6d5121b8a0b6c6289f81694feea4ded3f2f57d101ee9f2532f7c29425a9f86cb197d378cb76f61d2e5c96e3a81c29353a4c55718ca0a2afcceb04495d66698f939cb6d2ee0106070c2429465057727d8fa1c2c8cfd8e6e843454750525990a3adc4ce00000000000000000000000000000000000000000000000000000d182b3601fd2105007935c09f71e6e8f6ee524cf6af54f545cefe1ec9e2a62b60ddd4f79226aba13d1d60982e0e53c6c38856384fad2ebadd960ccd663a5e5ef0c61484589aed04913e4bf4052a34f9cd7fee783c48f19fc03caab2ffd0b653a099bb0ea8a4a14d104693958799aa51c7ea741880003c87d97053221dffc4d4622b0e0abac99a399018c696ac38b1782febd036b451e7b1b97c859749d9684b632fa363e0e88582f0c73d936eb849f2d14ea7eb9288596f09cf3f2d0daa5e06bdd5881ddd29f7f3c42f578ed1ba966de3622f3e2c0e3c2f7136064b76add844e74b6ea65b356cfbfe6bbbec4337e2730d675d7cec11d0d2291165be932f09ac30537774fd0c179af09be534656c8b1327b7b8c66769da56406af8ff3cb85251dca48372aa4b5c06615822d871170081449ea8e1903eeb8096adfc33a08196ed65457819fda1510deeca22d648d33b8032b3239d9ebb19bb862673795344cc16a34f6c44c21904fe363f937bea1d8f8210346980e039343222ac5ffd7e7f55f737111b0b978c603419101e74763210ca8e6da814968a0641f2c643b41e0cb4006876716ddc7978dec15c7c4e1c31e140ef11781160f678192faa1aaae74e16f3837282f0d0af7c7b7413e89d681e2cdf3a745a6cd2009cfd4d1c82a5b6420742e706783d12bc556afd1ecc4d27976ab3535bb866cd82fd2c81c41d06708fdd05c5f9e16888bc8c5fc0389a38c1b7b745bcd79961f09ed8bbd0562a3afcbab1862763d1c6b2ea84d0e17b8cf8ca7dd6ca720c23fdda30f5650dd13f158db74399be5b2be80ec641eac1aa1375a92419ffd9ae516af42f8ba17bc8c3e7c8ef2b6a3522fc98ec2c511ff94977fbad005a2adbf50f0feb536faca41a988268e069f7bc4ba733ba50ffc3f8d2b95c7024b4a966f42a5a520303b8c63fafb68019d5aa384f4a711912e9920d2b985af9b2a95e0047cdd323e1480d12ab48c5656dbf10d2ebf5346c248577cc219ea078324c6700ad02e7c3f208e696e4373907bba855642b9a245924db12ce71bc5fcbd245ba6981f17407ebb53a94cd2ceb6587dca35d1c25f40dbdcfce11aff0cad663107523bd58548dfdca6c605b6f0a545e2d8839e68cf14f7f387e211835745694c8f140d1526beb0d32edc07dccc267356e29578006e036ca885bde6277da5797995f6d9bae898df62366d4f599f0219d79120b48a6e1b391cd5984fe1314c28d78cf8222fabbb756f92a64694c9e007ba319a32310ade8fc9bfd0098e214cd1158a6702907f87a8741c0bb57c925f5afa65b1405672099f2d8c52e5befb67d41a61cb59f63100bb3f484e60b59a568c4cd25d7bafe430aadbac4eeced8fc2e41c8988850ece8abef8eb88b05a3db874fb417f7da7b382661883fb5df748a37752d15c1bd5de4837008286928699e0767caef610d58b6210e641d8206cd68aff813cfeb58ba54c335d4be06df28f581386aa1a45cc0be075d8c7af5c38062e7a61d727c2539cf3df3dc774afeda46cfdd777cc9b4f3281fc98c7dc0d51ae8ecc3ea9c71b94f8bc43c67d7f344c6d81010197b65ec6e891d4f107ff21b1ce93e04e3992cb13ff182aed3d85b63feb8bf525b6b4e24cd332e0bb2ae76502011fa4340f0cda92c49002fa29381b00e896dbcdd328ff6e7e030ac00e4c9f3aa4e7230d525472cc5bd510ccbfad42e545f32cbc793e676c42c50a030c33238f18859e140d5cd50fef0bf788920664e233fd85a38d96de35ec2511a06b2185aa87c0c78821558fea4f8bda4511a0b2e745880981211b18a0884baa9ffc64a6cad15fc417df9a39a80dbe14bb042c803d58dd9fff59b282bd46186e1db9f3f67000000",
  "txid": "a21cf8ebae6fa7e543670befb995ea04b457350f22f8b2c30a6cf869ac129fb2",
  "hash": "b8d8ed1a4b690f02389746364f44898a4f82baa6fb2c1b7d33d4c1fede052d42",
  "size": 5085,
  "vsize": 2278,
  "version": 1,
  "locktime": 103,
  "vin": [
    {
      "txid": "0741630423e74352537e753597e7c8157fb2b01adcb4737846a62ba859a6df62",
      "vout": 0,
      "scriptSig": {
        "asm": "",
        "hex": ""
      },
      "txinwitness": [
        "6e86c701c54be80e9cb938f4527ff923fa1c636fdb89070ef97688bfcd5dae1d1fe656b4517532d7adcd02f1b454466e3118221e3906c450ec886ae72aff3e9131d300b5a70b2e0e5665bee39a6439a23efd59c3e6ecf3033489c0c23b7c011542307d32813fcc3267363622bd8d1b3929a24abb18f0799bdc32b8278c336f05d6a51b3eb177c3d62d90c73f585934a645985c3416e07330369176e2ebc58945f92a6d257506c61bf1fdca885a08dd9cd604f2830c76376d15f742ef2090d122ecf326ab9c03e5973e83968e47b92a23f4b290a6c1ecc4ca79fffae4580abefb8d28fd4e8f0f9435df127ea93f56f906d773318c8c3e0b31996ebfe7b1761ef9b1dd76419df0a6295d14b17ff2e82d72a3c35586fde4636038e05a0e378be25d6de31d8d5e3d8ed16ffce892b345f2c30a80161428ce94cd3b6b9ea19b6251477e49e8423b15e32f65ebf36c8684f687cc625cc03a140a0912359d05ae93997acd01ec7bcacd41020b3e1f4ae196a36a76e3955c60b561d5c9af628d01e43ea745ec06a2738a9c1a364037a832a482c2daf4f9f7e1fa3fee4bb203741412cc8c2847e22f0d020b8c73b4697ea575fb2cdc0a915b7a993caa4031d55fa8f8ae078811d628ae6a9b34e1c850634269f9411628b063c22307df5795142c542ffeadc027cb62d099480d65986ff0c09097ebed99ab260d81f8f6664a2a2f6ab41a99f1cfc0586009c2f2a5582e0f3d89e766e33a837473f355d6149b87718354760401fad03d0c5fef950a3264670f93a217df168e0206370be4aa2cc70cc3bb6e8ed803248b6666e885829a1e0fe6da1b29643976b97322dccb71be9ef0de6fa63116b6c4ea04c915db4c9e1cd61d8fc8c062e01520b198881739bd0d065d8094de10fbda5ac1d416e96d5c4d09215e70c93a6a37939b678b7d6fd5c38d969debeb314800ef7614dbb439ea8e172571ef851ee447674e6cdd3cef2599a6664166d9d377da050158baf8a974d4734b2397b5f0eed541874d601bbf79d4aa3d8b0fdc874ed63a68026e2250ef2fe00f8f19272848c342044baaaf022c1a7d9eedd1910bfcf86d0a0acf4dccd0518876463caf43149a7ba51b6886b9581344c8c5cf41a9d153d8294f9441177401b1472b0f5f9e12d21dd52fd98265fc3c85c63cd2789b5a448bdd45b2a6e6dacb2207de18097840195fed2be4654bee4e51b6a538f05c353f2b0e0a1fd5f60b41f73e96ebf65437239b99f1af54447077e64c608187ce2d2adcede260e25d36a6334311c5389606d29f477f571dc1239accc2be7b55a5b883f12a9627680896fee5c28fd1ff1affadf7addfa29d100f8812b85e014e9fccad5293834351956d71e53897a0ec6e7217c8dc27ffda187b7f041c57474afc675d9815d4a2f9b058f281763c4c402dc2a51f43cf35e308fcac1d8034897c5dc1a4d173e95b24608bc311689fac83a8b12e9d8ac13d49ef32151c195fa2e390d6699b9344e7a3d4c5d82a0b0e17aad071231d2b7cafb0f6c07a03729a7cffe59fb9a8e5bf728d76275d10f6ab21f0b897402bebab3f5c768c585554ed612d9ad30f8fdc1f03debc977aa1d9fd97529dab36d8794b65889ea68ddc4bf5c8aebc91d5bd7b08f47877ff8931b72d9d38e0902f4668e3f861b5374fc9873ce81041a3d003f1863ad815a22554054cae238aaa74418dcf6379847d44504e20d2c97b43e760ce2d9b862148211efd3e28760fbcd77f9ca3927bcc92cd8146b3ec636bc8157410572c3e14767f971d9caf900c34a270a1c4275a91d1adc5731befea34385609112f7c09bce5cbe64862b440c57473249f1e6655e6a45ef76f885b80eca7827de22515abe0bddab2dacf3266884b4dee3cc5192baedee392f63cc621ce95f24e2591733a38df1f5287cec42e75307e1ec0b93948f6c1addff9f1d555db4dd2981da12c8c31b4ae4c9c1188c8a2f866f5edafd6885e40f5dc623d0beaf81138a3191cffb4732506ebfd942cc5140a4ec23983be0cfa999f9cf95f5880a85e931c346382e4140d45137cf670ed1af38c8868e85112aaa829140cdbbc5241e43c3d3f7e5036498de286d5a4ec36c85ca24b9bd71fe9f33085d4f11651100b1500b99194c0e960a5c758d6e33f06c91d2f2310697e71e1c054557dfefd81b58fb26195e4fffad8e35eafcbcc0bb9a35baab74ee28d58942495efc59f22f8afb3f48cdd5e5b3b9dc9fb03590d77d299e9c27e97d56cafaa5f3077b434f1048609fb514aac98c099e09bd8e3dc78feab43343f82527491af26c7cb6cbf86aa1d10a68ee8ccab435b50e964b877d6e77e45b35f56923aa17aec27e525fda9efe8a5e7d3db06c3e466e87da0ec0f5b4b022f70a347afa89f7c3c6c87e6ef3c4d07d8cee7c613514c1498e49e43faf6ded3e4d40347c3e46a8ed2fff18028179f854502d6389ffd2e5bf45e46de34e890c4d1c7114e27af85992885b00771cc2ecdfdf1c29ef48655b87fb6f98adcf275cca7a22056bf7582fca85e85cdba7de202370edfdebc6530691ca8bc9f0e6b5c6daa8d7a44909cda8ecf9254aab6b8f35ad84100fe462905006e30620c9b60aa134f516b7843f47246b43ac1b226e6dd905ebcbbce5203fb66a1b945e4b734ed5c22d50fffa412e1aedf9a94522e4595c7a856ff411338da5aab6a81ef3fa81f6eee3d27336fb8126f69d80aeeded810810fc23d0b7d24fe00048c5848842495ce0adc047d8517edebe80d3489e0f6ebf3178e7f30bf63f5778942fdb2731e3db41a9d5963489d868fd65f1659c86b12f9acac131e308c009f95425eae093c8ea7442f90964a73cc30830bce60f751d98273c4e352f09532e565b760f4373d0133819d6bc5f97cf28c81f0948c2528fc0dc52fb2b62f7a96308f850c748dc9a8b22a3e9d85a66dc9b8596f5d0d6440ffd2b0bf98fa9776c9e1bbfea3c82e95136e959778f54b5109a1bb02921e944684c69dfc338ac43d411f08171fbae6047338fe36c2142b6ec07f2115a61c538db946c20b73c3c3837bf5045f36449c50659841c1901ecb017cdb7ffd3782cc63f2b982c47f5a8ebb9a9c00e9847791b60a936129574fd1e39d904dfe89bde93fba2a16ff3abad643b54d28388effe07fca2a197989e40f8e66ba8f2ec769d1fa5027bd84e41f7f2512429aac2cc24d8b08814de3395e170acdf34f75b3b8f4e91da9edf79d0d0c3c7c6c93659f2323e80604cca8f6d5121b8a0b6c6289f81694feea4ded3f2f57d101ee9f2532f7c29425a9f86cb197d378cb76f61d2e5c96e3a81c29353a4c55718ca0a2afcceb04495d66698f939cb6d2ee0106070c2429465057727d8fa1c2c8cfd8e6e843454750525990a3adc4ce00000000000000000000000000000000000000000000000000000d182b3601",
        "007935c09f71e6e8f6ee524cf6af54f545cefe1ec9e2a62b60ddd4f79226aba13d1d60982e0e53c6c38856384fad2ebadd960ccd663a5e5ef0c61484589aed04913e4bf4052a34f9cd7fee783c48f19fc03caab2ffd0b653a099bb0ea8a4a14d104693958799aa51c7ea741880003c87d97053221dffc4d4622b0e0abac99a399018c696ac38b1782febd036b451e7b1b97c859749d9684b632fa363e0e88582f0c73d936eb849f2d14ea7eb9288596f09cf3f2d0daa5e06bdd5881ddd29f7f3c42f578ed1ba966de3622f3e2c0e3c2f7136064b76add844e74b6ea65b356cfbfe6bbbec4337e2730d675d7cec11d0d2291165be932f09ac30537774fd0c179af09be534656c8b1327b7b8c66769da56406af8ff3cb85251dca48372aa4b5c06615822d871170081449ea8e1903eeb8096adfc33a08196ed65457819fda1510deeca22d648d33b8032b3239d9ebb19bb862673795344cc16a34f6c44c21904fe363f937bea1d8f8210346980e039343222ac5ffd7e7f55f737111b0b978c603419101e74763210ca8e6da814968a0641f2c643b41e0cb4006876716ddc7978dec15c7c4e1c31e140ef11781160f678192faa1aaae74e16f3837282f0d0af7c7b7413e89d681e2cdf3a745a6cd2009cfd4d1c82a5b6420742e706783d12bc556afd1ecc4d27976ab3535bb866cd82fd2c81c41d06708fdd05c5f9e16888bc8c5fc0389a38c1b7b745bcd79961f09ed8bbd0562a3afcbab1862763d1c6b2ea84d0e17b8cf8ca7dd6ca720c23fdda30f5650dd13f158db74399be5b2be80ec641eac1aa1375a92419ffd9ae516af42f8ba17bc8c3e7c8ef2b6a3522fc98ec2c511ff94977fbad005a2adbf50f0feb536faca41a988268e069f7bc4ba733ba50ffc3f8d2b95c7024b4a966f42a5a520303b8c63fafb68019d5aa384f4a711912e9920d2b985af9b2a95e0047cdd323e1480d12ab48c5656dbf10d2ebf5346c248577cc219ea078324c6700ad02e7c3f208e696e4373907bba855642b9a245924db12ce71bc5fcbd245ba6981f17407ebb53a94cd2ceb6587dca35d1c25f40dbdcfce11aff0cad663107523bd58548dfdca6c605b6f0a545e2d8839e68cf14f7f387e211835745694c8f140d1526beb0d32edc07dccc267356e29578006e036ca885bde6277da5797995f6d9bae898df62366d4f599f0219d79120b48a6e1b391cd5984fe1314c28d78cf8222fabbb756f92a64694c9e007ba319a32310ade8fc9bfd0098e214cd1158a6702907f87a8741c0bb57c925f5afa65b1405672099f2d8c52e5befb67d41a61cb59f63100bb3f484e60b59a568c4cd25d7bafe430aadbac4eeced8fc2e41c8988850ece8abef8eb88b05a3db874fb417f7da7b382661883fb5df748a37752d15c1bd5de4837008286928699e0767caef610d58b6210e641d8206cd68aff813cfeb58ba54c335d4be06df28f581386aa1a45cc0be075d8c7af5c38062e7a61d727c2539cf3df3dc774afeda46cfdd777cc9b4f3281fc98c7dc0d51ae8ecc3ea9c71b94f8bc43c67d7f344c6d81010197b65ec6e891d4f107ff21b1ce93e04e3992cb13ff182aed3d85b63feb8bf525b6b4e24cd332e0bb2ae76502011fa4340f0cda92c49002fa29381b00e896dbcdd328ff6e7e030ac00e4c9f3aa4e7230d525472cc5bd510ccbfad42e545f32cbc793e676c42c50a030c33238f18859e140d5cd50fef0bf788920664e233fd85a38d96de35ec2511a06b2185aa87c0c78821558fea4f8bda4511a0b2e745880981211b18a0884baa9ffc64a6cad15fc417df9a39a80dbe14bb042c803d58dd9fff59b282bd46186e1db9f3f"
      ],
      "sequence": 4294967294
    }
  ],
  "vout": [
    {
      "value": 1.0,
      "n": 0,
      "scriptPubKey": {
        "asm": "OP_RETURN 43c22d6eaf12ee59b37104bb3400b3e2a057de335d383176404545e4d0d069e4 1ec8ac4e95a452f33d1e6926d69670e19c2d3e8fb0604a9ed55d4cd8300049eb3ee88c6eb58472d31d3e4906f6b650c1bc0d1eaf90406abef57d6cf8102069cb5e88ec0ed5e412b37d5e296696d630a1dc6d7ecff0200ade951d0c98704009ab7ea8cc2ef5c432935d7e0946b6f61081fc4d5eefd0002afeb53d2cb85060298b9e482cce1524d273bd9ee9a65616f0611cadbe0f30e0ca1e55ddcc58b080c96bbe680cee3504f2539dbec9867636d0413c8d9e2f10c0ea3e75fdec7890a0e94bde086c8e55649233fddea9e61656b0215cedfe4f70a08a5e159d8c18f0c0892bfe284cae7544b213ddfe89c6367690017ccdde6f5080aa7e35bdac38d0e0a90b1ec8ac4e95a452f33d1e6926d69670e19c2d3e8fb0604a9ed55d4cd8300049eb3ee88c6eb58472d31d3e4906f6b650c1bc0d1eaf90406abef57d6cf8102069cb5e88ec0ed5e412b37d5e296696d630a1dc6d7ecff0200ade951d0c98704009ab7ea8cc2ef5c432935d7e0946b6f61081fc4d5eefd0002afeb53d2cb85060298b9e482cce1524d273bd9ee9a65616f0611cadbe0f30e0ca1e55ddcc58b080c96bbe680cee3504f2539dbec9867636d0413c8d9e2f10c0ea3e75fdec7890a0e94bde086c8e55649233fddea9e61656b0215cedfe4f70a08a5e159d8c18f0c0892bfe284cae7544b213ddfe89c6367690017ccdde6f5080aa7e35bdac38d0e0a90b1ec8ac4e95a452f33d1e6926d69670e19c2d3e8fb0604a9ed55d4cd8300049eb3ee88c6eb58472d31d3e4906f6b650c1bc0d1eaf90406abef57d6cf8102069cb5e88ec0ed5e412b37d5e296696d630a1dc6d7ecff0200ade951d0c98704009ab7ea8cc2ef5c432935d7e0946b6f61081fc4d5eefd0002afeb53d2cb85060298b9e482cce1524d273bd9ee9a65616f0611cadbe0f30e0ca1e55ddcc58b080c96bbe680cee3504f2539dbec9867636d0413c8d9e2f10c0ea3e75fdec7890a0e94bde086c8e55649233fddea9e61656b0215cedfe4f70a08a5e159d8c18f0c0892bfe284cae7544b213ddfe89c6367690017ccdde6f5080aa7e35bdac38d0e0a90b1ec8ac4e95a452f33d1e6926d69670e19c2d3e8fb0604a9ed55d4cd8300049eb3ee88c6eb58472d31d3e4906f6b650c1bc0d1eaf90406abef57d6cf8102069cb5e88ec0ed5e412b37d5e296696d630a1dc6d7ecff0200ade951d0c98704009ab7ea8cc2ef5c432935d7e0946b6f61081fc4d5eefd0002afeb53d2cb85060298b9e482cce1524d273bd9ee9a65616f0611cadbe0f30e0ca1e55ddcc58b080c96bbe680cee3504f2539dbec9867636d0413c8d9e2f10c0ea3e75fdec7890a0e94bde086c8e55649233fddea9e61656b0215cedfe4f70a08a5e159d8c18f0c0892bfe284cae7544b213ddfe89c6367690017ccdde6f5080aa7e35bdac38d0e0a90b1ec8ac4e95a452f33d1e6926d69670e19c2d3e8fb0604a9ed55d4cd8300049eb3ee88c6eb58472d31d3e4906f6b650c1bc0d1eaf90406abef57d6cf8102069cb5e88ec0ed5e412b37d5e296696d630a1dc6d7ecff0200ade951d0c98704009ab7ea8cc2ef5c432935d7e0946b6f61081fc4d5eefd0002afeb53d2cb85060298b9e482cce1524d273bd9ee9a65616f061bd6b158bdc0c328587806448e7a18202f8de573f86a0c698919b68afc2e44455",
        "hex": "6a2043c22d6eaf12ee59b37104bb3400b3e2a057de335d383176404545e4d0d069e44db0041ec8ac4e95a452f33d1e6926d69670e19c2d3e8fb0604a9ed55d4cd8300049eb3ee88c6eb58472d31d3e4906f6b650c1bc0d1eaf90406abef57d6cf8102069cb5e88ec0ed5e412b37d5e296696d630a1dc6d7ecff0200ade951d0c98704009ab7ea8cc2ef5c432935d7e0946b6f61081fc4d5eefd0002afeb53d2cb85060298b9e482cce1524d273bd9ee9a65616f0611cadbe0f30e0ca1e55ddcc58b080c96bbe680cee3504f2539dbec9867636d0413c8d9e2f10c0ea3e75fdec7890a0e94bde086c8e55649233fddea9e61656b0215cedfe4f70a08a5e159d8c18f0c0892bfe284cae7544b213ddfe89c6367690017ccdde6f5080aa7e35bdac38d0e0a90b1ec8ac4e95a452f33d1e6926d69670e19c2d3e8fb0604a9ed55d4cd8300049eb3ee88c6eb58472d31d3e4906f6b650c1bc0d1eaf90406abef57d6cf8102069cb5e88ec0ed5e412b37d5e296696d630a1dc6d7ecff0200ade951d0c98704009ab7ea8cc2ef5c432935d7e0946b6f61081fc4d5eefd0002afeb53d2cb85060298b9e482cce1524d273bd9ee9a65616f0611cadbe0f30e0ca1e55ddcc58b080c96bbe680cee3504f2539dbec9867636d0413c8d9e2f10c0ea3e75fdec7890a0e94bde086c8e55649233fddea9e61656b0215cedfe4f70a08a5e159d8c18f0c0892bfe284cae7544b213ddfe89c6367690017ccdde6f5080aa7e35bdac38d0e0a90b1ec8ac4e95a452f33d1e6926d69670e19c2d3e8fb0604a9ed55d4cd8300049eb3ee88c6eb58472d31d3e4906f6b650c1bc0d1eaf90406abef57d6cf8102069cb5e88ec0ed5e412b37d5e296696d630a1dc6d7ecff0200ade951d0c98704009ab7ea8cc2ef5c432935d7e0946b6f61081fc4d5eefd0002afeb53d2cb85060298b9e482cce1524d273bd9ee9a65616f0611cadbe0f30e0ca1e55ddcc58b080c96bbe680cee3504f2539dbec9867636d0413c8d9e2f10c0ea3e75fdec7890a0e94bde086c8e55649233fddea9e61656b0215cedfe4f70a08a5e159d8c18f0c0892bfe284cae7544b213ddfe89c6367690017ccdde6f5080aa7e35bdac38d0e0a90b1ec8ac4e95a452f33d1e6926d69670e19c2d3e8fb0604a9ed55d4cd8300049eb3ee88c6eb58472d31d3e4906f6b650c1bc0d1eaf90406abef57d6cf8102069cb5e88ec0ed5e412b37d5e296696d630a1dc6d7ecff0200ade951d0c98704009ab7ea8cc2ef5c432935d7e0946b6f61081fc4d5eefd0002afeb53d2cb85060298b9e482cce1524d273bd9ee9a65616f0611cadbe0f30e0ca1e55ddcc58b080c96bbe680cee3504f2539dbec9867636d0413c8d9e2f10c0ea3e75fdec7890a0e94bde086c8e55649233fddea9e61656b0215cedfe4f70a08a5e159d8c18f0c0892bfe284cae7544b213ddfe89c6367690017ccdde6f5080aa7e35bdac38d0e0a90b1ec8ac4e95a452f33d1e6926d69670e19c2d3e8fb0604a9ed55d4cd8300049eb3ee88c6eb58472d31d3e4906f6b650c1bc0d1eaf90406abef57d6cf8102069cb5e88ec0ed5e412b37d5e296696d630a1dc6d7ecff0200ade951d0c98704009ab7ea8cc2ef5c432935d7e0946b6f61081fc4d5eefd0002afeb53d2cb85060298b9e482cce1524d273bd9ee9a65616f061bd6b158bdc0c328587806448e7a18202f8de573f86a0c698919b68afc2e44455",
        "type": "nulldata"
      }
    },
    {
      "value": 499995.9324,
      "n": 1,
      "scriptPubKey": {
        "asm": "1 08b988c6a1354e0b528b5c5adb79941beb0e1d1d3b1d77d203d18e2baad8f8c0",
        "hex": "512008b988c6a1354e0b528b5c5adb79941beb0e1d1d3b1d77d203d18e2baad8f8c0",
        "reqSigs": 1,
        "type": "witness_v1_scripthash",
        "addresses": [
          "3QJmnh"
        ]
      }
    }
  ],
  "blockhash": "15af9b025c636b87e0a10c18a1a8de0e5f3c2069ad563b293161176d75df89a4",
  "confirmations": 1,
  "time": 1764174659,
  "blocktime": 1764174659
}