{
  "hex": "0100000000010174a3a8e58cf60827f0b3a402a0e6f8c5459f3f5db9f14c961f571ce9e986883b0100000000feffffff02f020b051792d00002251203f2b745f94cc539e91f2acce702d1c9b60360e64769574ef4c215bd58ef9804400e1f50500000000fdd5046a2004a8bfce198f22b8443bc92c276d679e991f8ca9d94f723d6a34462af7a7eb7b4db004c160e7603d9e6d04aa4fc71cd2dad3209c689e00cc08afc04714e3aba6c70c19e140c7401dbe4d248a6fe73cf2faf300bc48be20ec288fe06734c38b86e72c398120a7207dde2d44ea0f875c929a9360dc28de408c48ef800754a3ebe6874c59a10087005dfe0d64ca2fa77cb2bab340fc08fe60ac68cfa0277483cbc6a76c7941e067e0bd1eed842acf479c525a53a01ce81e804c882f40c794632b26478c9961c047c09d3ecda40aef67bc727a73803cc83ea06ca80f60e7b4430b0667acb901a027a0fd5eadc46a8f07dc121a13e05ca85ec00cc86f0087d4236b6607ccd921800780dd7e8de44aaf27fc323a33c07c887ee02ce84f20a7f4034b4627ecf9c160e7603d9e6d04aa4fc71cd2dad3209c689e00cc08afc04714e3aba6c70c19e140c7401dbe4d248a6fe73cf2faf300bc48be20ec288fe06734c38b86e72c398120a7207dde2d44ea0f875c929a9360dc28de408c48ef800754a3ebe6874c59a10087005dfe0d64ca2fa77cb2bab340fc08fe60ac68cfa0277483cbc6a76c7941e067e0bd1eed842acf479c525a53a01ce81e804c882f40c794632b26478c9961c047c09d3ecda40aef67bc727a73803cc83ea06ca80f60e7b4430b0667acb901a027a0fd5eadc46a8f07dc121a13e05ca85ec00cc86f0087d4236b6607ccd921800780dd7e8de44aaf27fc323a33c07c887ee02ce84f20a7f4034b4627ecf9c160e7603d9e6d04aa4fc71cd2dad3209c689e00cc08afc04714e3aba6c70c19e140c7401dbe4d248a6fe73cf2faf300bc48be20ec288fe06734c38b86e72c398120a7207dde2d44ea0f875c929a9360dc28de408c48ef800754a3ebe6874c59a10087005dfe0d64ca2fa77cb2bab340fc08fe60ac68cfa0277483cbc6a76c7941e067e0bd1eed842acf479c525a53a01ce81e804c882f40c794632b26478c9961c047c09d3ecda40aef67bc727a73803cc83ea06ca80f60e7b4430b0667acb901a027a0fd5eadc46a8f07dc121a13e05ca85ec00cc86f0087d4236b6607ccd921800780dd7e8de44aaf27fc323a33c07c887ee02ce84f20a7f4034b4627ecf9c160e7603d9e6d04aa4fc71cd2dad3209c689e00cc08afc04714e3aba6c70c19e140c7401dbe4d248a6fe73cf2faf300bc48be20ec288fe06734c38b86e72c398120a7207dde2d44ea0f875c929a9360dc28de408c48ef800754a3ebe6874c59a10087005dfe0d64ca2fa77cb2bab340fc08fe60ac68cfa0277483cbc6a76c7941e067e0bd1eed842acf479c525a53a01ce81e804c882f40c794632b26478c9961c047c09d3ecda40aef67bc727a73803cc83ea06ca80f60e7b4430b0667acb901a027a0fd5eadc46a8f07dc121a13e05ca85ec00cc86f0087d4236b6607ccd921800780dd7e8de44aaf27fc323a33c07c887ee02ce84f20a7f4034b4627ecf9c160e7603d9e6d04aa4fc71cd2dad3209c689e00cc08afc04714e3aba6c70c19e140c7401dbe4d248a6fe73cf2faf300bc48be20ec288fe06734c38b86e72c398120a7207dde2d44ea0f875c929a9360dc28de408c48ef800754a3ebe6874c59a10087005dfe0d64ca2fa77cb2bab340fc08fe60ac68cfa0277483cbc6a76c7941e067e0bd1eed842acf479c525a53a0f8621930e40141f395cac0e5ccdd20058bf8bf15598488d59e2a04489dc1230f02fd75094db8bc454d609b21de64fc194e2886ce9136f82e6d74e5741bd9fa9eb7efdae84fd87d4f6985703a69b961426db54a3da997652be60283413bbc03b2594ae685245a1ff20cb036de8a03d8965bba645b2403e79dbb4d04a23593ea64732f4633104af07ad25061c46f2248f46b536ddc435c6ae3fd14d0b5356e4857707d306b72cabee756e4010d542fd51901260e598a79b49db5837dcc6c8b3153571ac22210a51761e840a6e3282ac0915c301f7a2251ede3ed3b8697a8dc270c59ab74e096182215fcf8aa007b6dbe792ebf1694e7b08940dd4f8f0a5088bfec0afec64a5dd27bfee54114d9fe086aefe8be1d5f5e4ed373eeb0aee866b5e99d5abd2a56f39d40640dd5de39f5a2aa1889b4fb6af0458f71c3f7548528d3bb6fdd030c70c0798a251753587d626311046aec6a67ae75fc7fb572b5fc3abe9ac85f5e85c318dc9f21fdc2bc013e99174cb1918bd22355f69be4c9139b9364caea0ba8785fe089d82082a5caad7dd91971d9cf9cd22af370190824f1435c6580e4728f7f9cd59c6ee6a67e011551aa28969bf7edcc27d08783e3f798d06f4641319b52a4cfdddf852e2994b85ea8043356722a6273510793e38922d8e363d12fcafb49a9abf4140eab131144dc3cc03530a577ada3fd1771c9a8b17e9868d27d327f3a155535f392368d2205dc9a31633bbf28e69c9bc7bfe5e99214cb47246589af87ef39b48a92312b219776b9b8890d616f8bb36460c68081b9b8a9b36f247c424c257bc88bff93f6c9e1dc6090933f0dc0dd5d6ae05a298bc82cf1acb48026935702c0ac033648303d2bb2fd5502dedc55cac1b8ca0dbd30798d626c2ac9d814104bf41a52bbc3baa3cb780aaa33cdbe65327ce5c756e65891873ed1a9a1f306095ebba37527bd74c7042fc53965abbe0fb76919697e3c70446ab28fa28b50360282a7ee6daca45dcdf4eeaad94ff340b2fef26e405ad5e8313d305908d0667fd7328d4f880f2e930542d26b5f1c02ca48641be5f8408e24a3f616181632454af82c656fb3d0c89cb6815ac95bee385e35885f7edbdeab5a9952a4705df6c2fc169d6fcbf7fed5270938832fe50c3c8182558377006d4a1b778862aa6a5ec0423eb7774b2385495ba786112b243f64fbb0ed06ba3f5171d136fb553cc1fb70bbec6f694daf99a3617afa8ff8e1df8b6841d5b1a1a03f00882b1ce558dc3e82b00ab21c5bf96fa3d6b3e9c886bb3e3c4d1c4a23eef579aaaad72812d160985c2c31633b805c27fdaa70f14486b63b9e9ffebb1856b234e6b5b6ed9965a544994bac8ca8382e91bb0f33d83a90ac72852eb1e785030ce2386fa63db34aa70949c43ad1e79227e382dd9cbd54a38c83aa6e3184ab819c45cd8a9cbf11b2d76d5ad879c3dbfeb84f4e590da2c3317c13aa964a93fc2db7304c0c35b35ff8ca3f76024a7e5861e6eb9027fd6ca8d0a46369c759d2e1d855dd7b8596351141e02f4767113ff5501273a3be5ebfb8901719b1d68b4302586f337d880fa20e674110d851cb79ccaef7f858f4cf05d1552adc1df87aae978e874862535cc57870d9ecd6eff92822a14d99764048ff123d8b8e0a78091ef88ffc7fb187672e268d2a610dad081408c800d6a4c3eb800f20c5f7f686dc3e9e4be2157e80764e5c9e9d344b12a0626890931156fd3226faadf08c163ce94358acda8170726f5d4b7aab1cf74968489ccf840b5a32cd725c3bd931547c1fe61cd15f25107bbd195cff0b37a27e5a4d4e61dbbd01ae8de0fba9393f059ed9b11061d17fe732bd5a29fefe7e8898621bacfa5653a1075da40c5da1c5d2508ca39a6dff39453b6f079858614fa86cd64417f658ff0093baaf143f59f542670cc085162b67aa03cb6707d76f81c98fdaa954d0d7e121240ead015176bac5b035510044aa9e256bc84f9f79f729d5e373add381cb170aff7d65a7f58fd5cb4f93b0b7cd6a4d0cba08115bddd8a93cb33e38916865085a89a45c03c3a5e05ea41285c272de7397a531c87779b8c879a578adda6215d272c57d1199f7933947e56c79d643993e50da2849d5f64f7207387f890fd8b15b33f037aba0133c6bd6d6c68d20ec2605cb04239883aebc4b1d6058ac40d50465f2988e45b66129926bd6e701398c19eb8c4c4b89c8d9c67a4996915ce5498f782b71eadf17a774b40ae60f2d20537ec9d275c7b30df104d5f82e7db83b96047f91be158e8695bbf719e2b4d1d03cba45a160afedbd427f8b6226a6c2dff4e9c19bef21d45e8b47e27a042b927a27042bfa876a4b911c21c23f9255c4d20a1a2e5db349756fba327491c85871d3d4a9a3c121e5d0152ecff1b776e3a0f0bdd21cba60545797c55ef624ce13341bb402a173d8ccceba707d48e5733dbd976ca23d7427da8c7fec0bbc6ace8b0136528c8c3dd64789581f5753ac54ed1489d97c09c707237a08d26c130ba255f6d96b302d1e900f1c26317a0533ce3989d4368b2c0a6ca60e5f050f2ac7d6ef0b720744888127c7816c539e5161309f778f8c0c234374cdfb0e978650883074deb4e3be0c724ed499338f982f1def4d2d524b074bc92bc11031f6b13333f51b32e7a1105183061fa8316ac1b00452071135f5fd3f303fe949ed9afe2ef398184095fd03be6ad4282d5f12940e8401ab3ddb68a03ebdedee5bd6b3a8dd871e8688c84700e51a909a0583fdded84ddfd8821b3982b3f827be0925fcdf250ac8b26a82fc5b71505bda65b828ebd575848b576181823fed7da0fdfb12bef577d809ac8969580b6f7ba7b1ad75887274943e362be11360be48f5193209141a0921cae16a7956edcae202f97b95dc82095811d263f5ef009e1278c01da8a1e9422c6a93a572023efec65b2d574c45a174cf9ec09816f3c320ff96a20df020a288f65835f293e392f4a6fded098390676957e155fbbd3fe7bf6655acf5ccf73542e73f81486a921d67e73bcaa69a615289e8a89475c531b4b2e293cc6d7baf02c0dfa1447fd6ce9c924ea6ca173acbefb54348f14d2683a3bc3e914a911af6cf1735ae72bea8e1c96a7923ff129712a189ce67c14f83edd670527cdc2170a0bafe63241c01ac4503acc22d6fc289fdf54bb1a34517dff035313c4ca7460795ea616a93e73a7054fe9ef5208cedd8bc0594ce5b45ea493d7507a1f061466b3346f1c18302300632b8c651a3a525c1406181fd774836403a04150941f7f2413b108077d0c4b34da80f437b2101af79dcb7e45091194ab0f81c55d7fea8a55845c3102260a92f5698a61310b9bd7a23088ed265ed6419001e1f223039494f53668e94a2a4afb1b6bfc9cce1ec091c292d343a5c72888c9196e6e90c222e4c5370818d99b7c1ced2d7edf30b101347535a5b62899ab8d3f40000000000000000000000000000001624344101fd210500aca805c689031f73e6a69f39f399eab44eb237a88654f2bc2ba0153e87262271218702582b9af2799c7db1b25741533d3332473e25a1175a9f5af7ae06fcefe3516a7c1a633451f4caa6179b69a4302d297a754ba64417f9c41d15c8d2ba0b9308726f96492998e316480c04317ffd273ce4b161e25167ed68bc1e6c94c358e9ccd91e5cff815dd5e1d19ec73fdc61a1b65c8af26b6ecb0919d1e2b5f6f5996197e257e9db2b4b8d386cb9036082f30287cf8ad0a86e00e1f60c3b45d128838d228c347efcb93433a2af8d351c898e2f6c6cd9a4d6313d1c03bf362cfe680244675cb154cbd181163f8515f149d27f9db885edf5097228d0a2545a4bdcea741551822b3e7d641e9a59d4281e4a159f54ae6286022120027175b062f06fa7351591bcfe4fa25cee80bcb2f8232c28178cc17446471cf5a60a6727e4bb9cdcf49fb4c52c0ea4aae61ad8f91b38ab93fa9770ef53128a00d17df0be2d61f98f47a50930c6523801ddcfcc1c1e03443a8f8e4d61c84dd0530ab743a63ce60f12fc29655f9d04ed407341f77772470b9b78d4c090b1cedaf965c8d17b35e40654d57fda2312a720adbfa762cd6c3377e360191a49185f46b2952c22d675e0ea8476e627dbc06c0a63fc0f14e5ac53d3fea1739126496f3175bd6e7eaf78de5d1cdda8556789f50b9fac21b67c67ab39b2cd213bc10169d8cd291cbbff7eded53e6d82fd12f56036eeefcb95315623505b8dd473d5e33c9b6cd74c81bba8d21cf05bbe425dcf4bfdc19eaa2209cfc512f5ddc53e32a122b6e0ec31f15ab87fe402aa85abbb1e6bd77e7621e1622127a91fffe158985be8c791997c7c8e0efc6cbad16f22c0f01fa4ac46620b8d777c89f486695d971dc3117359a54d5dccfdd2d767277e86071e3c54defa57577031a86ab9c22667b3a95daad6978282093d705114fc05eb13e2db9ff4f4ddf84cfe9bed1e7921c848fccd8bf1f0df2b13d58b4ed6247ada33a243b6dde8d1f25827f99a6a780004d78f170d8eb6531b17e1a1f0b4f49d54ec8ea24fac45d36f431cab2e5c838af9596d01c944dec9cdbcff36773e7eb1782261d3e5a7bf37152cd688ef96e15bd7fcb336437e50880669b0bad2b34609e31a0babff37cf26d777ebef9715b5fe5f4c44f029f0d8768af3e425d59b60666bc1a0661e45983733ba2a83ee1bf39c4f6af84d61f8bbc954a1f326fe9148a68844f87c4b735501c2e11b940066013df4c0dcc48acae0f981d0c1e3edb87cf5c13c166be223b0dfd1cf0fbd62840064f6944e5ce4e32bbb1a052e91b8b84bf67d0aab8db93751e3e2432ffc82e6fbda7295a75e4dafd962bd111b7ecdd3d3e1c0d8dd50ea0a3ecb637480035cc387838fa5403ecdfe6464f0b8f8690b09327b9f3607b7209eaa288301b665d3de02fa19310b3f2a53bb2cebc5cff3ba2edab3fdf05af65cdbea5a9f6951788cd4e5873b47368d32b3149b1f776a3627a58f4d1941f5f08dfdcc4e495fa78590768d0f63ed9c1381130b047e7defe454cdcc1c76373097dbc29bdabc614e19530a2a8f7e1504482fc0c2803b607082f574e36f0bb279c479951d8c6fb787ebe2dc04249e663e42e93171cd2a35d90837f2fa70187caee8c7cb0cbd18caa870a2e3b526d505ec20828e3fe28fa1f4e264f10601d53f82b9ffd13e8a8620b3b0cabd115dde8867ba0ac86085f06b4d8c5c4f7e29c1713db8f71c52bc40e65d69fbd41adae7d70cd6916b5431eff43a33864b8013944f3aebe02cdc2a0be4b29bc10bf89d657b90a1180fbd3c253e3dc32255a5abf6ccd8f325ab79f71cc368b2414beb7fbbe293839e089b105c948a1b4ce6ae70000000",
  "txid": "a9d69032920fdfad05db3c4d6dc0959f674d32620c1a52d0d6cbe87e938bce3e",
  "hash": "b5ef18a04b7e9c524ddd2562258f5c9648195d7601acd922cf5e5b667fafb15d",
  "size": 5085,
  "vsize": 2278,
  "version": 1,
  "locktime": 112,
  "vin": [
    {
      "txid": "3b8886e9e91c571f964cf1b95d3f9f45c5f8e6a002a4b3f02708f68ce5a8a374",
      "vout": 1,
      "scriptSig": {
        "asm": "",
        "hex": ""
      },
      "txinwitness": [
        "4db8bc454d609b21de64fc194e2886ce9136f82e6d74e5741bd9fa9eb7efdae84fd87d4f6985703a69b961426db54a3da997652be60283413bbc03b2594ae685245a1ff20cb036de8a03d8965bba645b2403e79dbb4d04a23593ea64732f4633104af07ad25061c46f2248f46b536ddc435c6ae3fd14d0b5356e4857707d306b72cabee756e4010d542fd51901260e598a79b49db5837dcc6c8b3153571ac22210a51761e840a6e3282ac0915c301f7a2251ede3ed3b8697a8dc270c59ab74e096182215fcf8aa007b6dbe792ebf1694e7b08940dd4f8f0a5088bfec0afec64a5dd27bfee54114d9fe086aefe8be1d5f5e4ed373eeb0aee866b5e99d5abd2a56f39d40640dd5de39f5a2aa1889b4fb6af0458f71c3f7548528d3bb6fdd030c70c0798a251753587d626311046aec6a67ae75fc7fb572b5fc3abe9ac85f5e85c318dc9f21fdc2bc013e99174cb1918bd22355f69be4c9139b9364caea0ba8785fe089d82082a5caad7dd91971d9cf9cd22af370190824f1435c6580e4728f7f9cd59c6ee6a67e011551aa28969bf7edcc27d08783e3f798d06f4641319b52a4cfdddf852e2994b85ea8043356722a6273510793e38922d8e363d12fcafb49a9abf4140eab131144dc3cc03530a577ada3fd1771c9a8b17e9868d27d327f3a155535f392368d2205dc9a31633bbf28e69c9bc7bfe5e99214cb47246589af87ef39b48a92312b219776b9b8890d616f8bb36460c68081b9b8a9b36f247c424c257bc88bff93f6c9e1dc6090933f0dc0dd5d6ae05a298bc82cf1acb48026935702c0ac033648303d2bb2fd5502dedc55cac1b8ca0dbd30798d626c2ac9d814104bf41a52bbc3baa3cb780aaa33cdbe65327ce5c756e65891873ed1a9a1f306095ebba37527bd74c7042fc53965abbe0fb76919697e3c70446ab28fa28b50360282a7ee6daca45dcdf4eeaad94ff340b2fef26e405ad5e8313d305908d0667fd7328d4f880f2e930542d26b5f1c02ca48641be5f8408e24a3f616181632454af82c656fb3d0c89cb6815ac95bee385e35885f7edbdeab5a9952a4705df6c2fc169d6fcbf7fed5270938832fe50c3c8182558377006d4a1b778862aa6a5ec0423eb7774b2385495ba786112b243f64fbb0ed06ba3f5171d136fb553cc1fb70bbec6f694daf99a3617afa8ff8e1df8b6841d5b1a1a03f00882b1ce558dc3e82b00ab21c5bf96fa3d6b3e9c886bb3e3c4d1c4a23eef579aaaad72812d160985c2c31633b805c27fdaa70f14486b63b9e9ffebb1856b234e6b5b6ed9965a544994bac8ca8382e91bb0f33d83a90ac72852eb1e785030ce2386fa63db34aa70949c43ad1e79227e382dd9cbd54a38c83aa6e3184ab819c45cd8a9cbf11b2d76d5ad879c3dbfeb84f4e590da2c3317c13aa964a93fc2db7304c0c35b35ff8ca3f76024a7e5861e6eb9027fd6ca8d0a46369c759d2e1d855dd7b8596351141e02f4767113ff5501273a3be5ebfb8901719b1d68b4302586f337d880fa20e674110d851cb79ccaef7f858f4cf05d1552adc1df87aae978e874862535cc57870d9ecd6eff92822a14d99764048ff123d8b8e0a78091ef88ffc7fb187672e268d2a610dad081408c800d6a4c3eb800f20c5f7f686dc3e9e4be2157e80764e5c9e9d344b12a0626890931156fd3226faadf08c163ce94358acda8170726f5d4b7aab1cf74968489ccf840b5a32cd725c3bd931547c1fe61cd15f25107bbd195cff0b37a27e5a4d4e61dbbd01ae8de0fba9393f059ed9b11061d17fe732bd5a29fefe7e8898621bacfa5653a1075da40c5da1c5d2508ca39a6dff39453b6f079858614fa86cd64417f658ff0093baaf143f59f542670cc085162b67aa03cb6707d76f81c98fdaa954d0d7e121240ead015176bac5b035510044aa9e256bc84f9f79f729d5e373add381cb170aff7d65a7f58fd5cb4f93b0b7cd6a4d0cba08115bddd8a93cb33e38916865085a89a45c03c3a5e05ea41285c272de7397a531c87779b8c879a578adda6215d272c57d1199f7933947e56c79d643993e50da2849d5f64f7207387f890fd8b15b33f037aba0133c6bd6d6c68d20ec2605cb04239883aebc4b1d6058ac40d50465f2988e45b66129926bd6e701398c19eb8c4c4b89c8d9c67a4996915ce5498f782b71eadf17a774b40ae60f2d20537ec9d275c7b30df104d5f82e7db83b96047f91be158e8695bbf719e2b4d1d03cba45a160afedbd427f8b6226a6c2dff4e9c19bef21d45e8b47e27a042b927a27042bfa876a4b911c21c23f9255c4d20a1a2e5db349756fba327491c85871d3d4a9a3c121e5d0152ecff1b776e3a0f0bdd21cba60545797c55ef624ce13341bb402a173d8ccceba707d48e5733dbd976ca23d7427da8c7fec0bbc6ace8b0136528c8c3dd64789581f5753ac54ed1489d97c09c707237a08d26c130ba255f6d96b302d1e900f1c26317a0533ce3989d4368b2c0a6ca60e5f050f2ac7d6ef0b720744888127c7816c539e5161309f778f8c0c234374cdfb0e978650883074deb4e3be0c724ed499338f982f1def4d2d524b074bc92bc11031f6b13333f51b32e7a1105183061fa8316ac1b00452071135f5fd3f303fe949ed9afe2ef398184095fd03be6ad4282d5f12940e8401ab3ddb68a03ebdedee5bd6b3a8dd871e8688c84700e51a909a0583fdded84ddfd8821b3982b3f827be0925fcdf250ac8b26a82fc5b71505bda65b828ebd575848b576181823fed7da0fdfb12bef577d809ac8969580b6f7ba7b1ad75887274943e362be11360be48f5193209141a0921cae16a7956edcae202f97b95dc82095811d263f5ef009e1278c01da8a1e9422c6a93a572023efec65b2d574c45a174cf9ec09816f3c320ff96a20df020a288f65835f293e392f4a6fded098390676957e155fbbd3fe7bf6655acf5ccf73542e73f81486a921d67e73bcaa69a615289e8a89475c531b4b2e293cc6d7baf02c0dfa1447fd6ce9c924ea6ca173acbefb54348f14d2683a3bc3e914a911af6cf1735ae72bea8e1c96a7923ff129712a189ce67c14f83edd670527cdc2170a0bafe63241c01ac4503acc22d6fc289fdf54bb1a34517dff035313c4ca7460795ea616a93e73a7054fe9ef5208cedd8bc0594ce5b45ea493d7507a1f061466b3346f1c18302300632b8c651a3a525c1406181fd774836403a04150941f7f2413b108077d0c4b34da80f437b2101af79dcb7e45091194ab0f81c55d7fea8a55845c3102260a92f5698a61310b9bd7a23088ed265ed6419001e1f223039494f53668e94a2a4afb1b6bfc9cce1ec091c292d343a5c72888c9196e6e90c222e4c5370818d99b7c1ced2d7edf30b101347535a5b62899ab8d3f40000000000000000000000000000001624344101",
        "00aca805c689031f73e6a69f39f399eab44eb237a88654f2bc2ba0153e87262271218702582b9af2799c7db1b25741533d3332473e25a1175a9f5af7ae06fcefe3516a7c1a633451f4caa6179b69a4302d297a754ba64417f9c41d15c8d2ba0b9308726f96492998e316480c04317ffd273ce4b161e25167ed68bc1e6c94c358e9ccd91e5cff815dd5e1d19ec73fdc61a1b65c8af26b6ecb0919d1e2b5f6f5996197e257e9db2b4b8d386cb9036082f30287cf8ad0a86e00e1f60c3b45d128838d228c347efcb93433a2af8d351c898e2f6c6cd9a4d6313d1c03bf362cfe680244675cb154cbd181163f8515f149d27f9db885edf5097228d0a2545a4bdcea741551822b3e7d641e9a59d4281e4a159f54ae6286022120027175b062f06fa7351591bcfe4fa25cee80bcb2f8232c28178cc17446471cf5a60a6727e4bb9cdcf49fb4c52c0ea4aae61ad8f91b38ab93fa9770ef53128a00d17df0be2d61f98f47a50930c6523801ddcfcc1c1e03443a8f8e4d61c84dd0530ab743a63ce60f12fc29655f9d04ed407341f77772470b9b78d4c090b1cedaf965c8d17b35e40654d57fda2312a720adbfa762cd6c3377e360191a49185f46b2952c22d675e0ea8476e627dbc06c0a63fc0f14e5ac53d3fea1739126496f3175bd6e7eaf78de5d1cdda8556789f50b9fac21b67c67ab39b2cd213bc10169d8cd291cbbff7eded53e6d82fd12f56036eeefcb95315623505b8dd473d5e33c9b6cd74c81bba8d21cf05bbe425dcf4bfdc19eaa2209cfc512f5ddc53e32a122b6e0ec31f15ab87fe402aa85abbb1e6bd77e7621e1622127a91fffe158985be8c791997c7c8e0efc6cbad16f22c0f01fa4ac46620b8d777c89f486695d971dc3117359a54d5dccfdd2d767277e86071e3c54defa57577031a86ab9c22667b3a95daad6978282093d705114fc05eb13e2db9ff4f4ddf84cfe9bed1e7921c848fccd8bf1f0df2b13d58b4ed6247ada33a243b6dde8d1f25827f99a6a780004d78f170d8eb6531b17e1a1f0b4f49d54ec8ea24fac45d36f431cab2e5c838af9596d01c944dec9cdbcff36773e7eb1782261d3e5a7bf37152cd688ef96e15bd7fcb336437e50880669b0bad2b34609e31a0babff37cf26d777ebef9715b5fe5f4c44f029f0d8768af3e425d59b60666bc1a0661e45983733ba2a83ee1bf39c4f6af84d61f8bbc954a1f326fe9148a68844f87c4b735501c2e11b940066013df4c0dcc48acae0f981d0c1e3edb87cf5c13c166be223b0dfd1cf0fbd62840064f6944e5ce4e32bbb1a052e91b8b84bf67d0aab8db93751e3e2432ffc82e6fbda7295a75e4dafd962bd111b7ecdd3d3e1c0d8dd50ea0a3ecb637480035cc387838fa5403ecdfe6464f0b8f8690b09327b9f3607b7209eaa288301b665d3de02fa19310b3f2a53bb2cebc5cff3ba2edab3fdf05af65cdbea5a9f6951788cd4e5873b47368d32b3149b1f776a3627a58f4d1941f5f08dfdcc4e495fa78590768d0f63ed9c1381130b047e7defe454cdcc1c76373097dbc29bdabc614e19530a2a8f7e1504482fc0c2803b607082f574e36f0bb279c479951d8c6fb787ebe2dc04249e663e42e93171cd2a35d90837f2fa70187caee8c7cb0cbd18caa870a2e3b526d505ec20828e3fe28fa1f4e264f10601d53f82b9ffd13e8a8620b3b0cabd115dde8867ba0ac86085f06b4d8c5c4f7e29c1713db8f71c52bc40e65d69fbd41adae7d70cd6916b5431eff43a33864b8013944f3aebe02cdc2a0be4b29bc10bf89d657b90a1180fbd3c253e3dc32255a5abf6ccd8f325ab79f71cc368b2414beb7fbbe293839e089b105c948a1b4ce6ae"
      ],
      "sequence": 4294967294
    }
  ],
  "vout": [
    {
      "value": 499990.8479,
      "n": 0,
      "scriptPubKey": {
        "asm": "1 3f2b745f94cc539e91f2acce702d1c9b60360e64769574ef4c215bd58ef98044",
        "hex": "51203f2b745f94cc539e91f2acce702d1c9b60360e64769574ef4c215bd58ef98044",
        "reqSigs": 1,
        "type": "witness_v1_scripthash",
        "addresses": [
          "3QJmnh"
        ]
      }
    },
    {
      "value": 1.0,
      "n": 1,
      "scriptPubKey": {
        "asm": "OP_RETURN 04a8bfce198f22b8443bc92c276d679e991f8ca9d94f723d6a34462af7a7eb7b c160e7603d9e6d04aa4fc71cd2dad3209c689e00cc08afc04714e3aba6c70c19e140c7401dbe4d248a6fe73cf2faf300bc48be20ec288fe06734c38b86e72c398120a7207dde2d44ea0f875c929a9360dc28de408c48ef800754a3ebe6874c59a10087005dfe0d64ca2fa77cb2bab340fc08fe60ac68cfa0277483cbc6a76c7941e067e0bd1eed842acf479c525a53a01ce81e804c882f40c794632b26478c9961c047c09d3ecda40aef67bc727a73803cc83ea06ca80f60e7b4430b0667acb901a027a0fd5eadc46a8f07dc121a13e05ca85ec00cc86f0087d4236b6607ccd921800780dd7e8de44aaf27fc323a33c07c887ee02ce84f20a7f4034b4627ecf9c160e7603d9e6d04aa4fc71cd2dad3209c689e00cc08afc04714e3aba6c70c19e140c7401dbe4d248a6fe73cf2faf300bc48be20ec288fe06734c38b86e72c398120a7207dde2d44ea0f875c929a9360dc28de408c48ef800754a3ebe6874c59a10087005dfe0d64ca2fa77cb2bab340fc08fe60ac68cfa0277483cbc6a76c7941e067e0bd1eed842acf479c525a53a01ce81e804c882f40c794632b26478c9961c047c09d3ecda40aef67bc727a73803cc83ea06ca80f60e7b4430b0667acb901a027a0fd5eadc46a8f07dc121a13e05ca85ec00cc86f0087d4236b6607ccd921800780dd7e8de44aaf27fc323a33c07c887ee02ce84f20a7f4034b4627ecf9c160e7603d9e6d04aa4fc71cd2dad3209c689e00cc08afc04714e3aba6c70c19e140c7401dbe4d248a6fe73cf2faf300bc48be20ec288fe06734c38b86e72c398120a7207dde2d44ea0f875c929a9360dc28de408c48ef800754a3ebe6874c59a10087005dfe0d64ca2fa77cb2bab340fc08fe60ac68cfa0277483cbc6a76c7941e067e0bd1eed842acf479c525a53a01ce81e804c882f40c794632b26478c9961c047c09d3ecda40aef67bc727a73803cc83ea06ca80f60e7b4430b0667acb901a027a0fd5eadc46a8f07dc121a13e05ca85ec00cc86f0087d4236b6607ccd921800780dd7e8de44aaf27fc323a33c07c887ee02ce84f20a7f4034b4627ecf9c160e7603d9e6d04aa4fc71cd2dad3209c689e00cc08afc04714e3aba6c70c19e140c7401dbe4d248a6fe73cf2faf300bc48be20ec288fe06734c38b86e72c398120a7207dde2d44ea0f875c929a9360dc28de408c48ef800754a3ebe6874c59a10087005dfe0d64ca2fa77cb2bab340fc08fe60ac68cfa0277483cbc6a76c7941e067e0bd1eed842acf479c525a53a01ce81e804c882f40c794632b26478c9961c047c09d3ecda40aef67bc727a73803cc83ea06ca80f60e7b4430b0667acb901a027a0fd5eadc46a8f07dc121a13e05ca85ec00cc86f0087d4236b6607ccd921800780dd7e8de44aaf27fc323a33c07c887ee02ce84f20a7f4034b4627ecf9c160e7603d9e6d04aa4fc71cd2dad3209c689e00cc08afc04714e3aba6c70c19e140c7401dbe4d248a6fe73cf2faf300bc48be20ec288fe06734c38b86e72c398120a7207dde2d44ea0f875c929a9360dc28de408c48ef800754a3ebe6874c59a10087005dfe0d64ca2fa77cb2bab340fc08fe60ac68cfa0277483cbc6a76c7941e067e0bd1eed842acf479c525a53a0f8621930e40141f395cac0e5ccdd20058bf8bf15598488d59e2a04489dc1230f",
        "hex": "6a2004a8bfce198f22b8443bc92c276d679e991f8ca9d94f723d6a34462af7a7eb7b4db004c160e7603d9e6d04aa4fc71cd2dad3209c689e00cc08afc04714e3aba6c70c19e140c7401dbe4d248a6fe73cf2faf300bc48be20ec288fe06734c38b86e72c398120a7207dde2d44ea0f875c929a9360dc28de408c48ef800754a3ebe6874c59a10087005dfe0d64ca2fa77cb2bab340fc08fe60ac68cfa0277483cbc6a76c7941e067e0bd1eed842acf479c525a53a01ce81e804c882f40c794632b26478c9961c047c09d3ecda40aef67bc727a73803cc83ea06ca80f60e7b4430b0667acb901a027a0fd5eadc46a8f07dc121a13e05ca85ec00cc86f0087d4236b6607ccd921800780dd7e8de44aaf27fc323a33c07c887ee02ce84f20a7f4034b4627ecf9c160e7603d9e6d04aa4fc71cd2dad3209c689e00cc08afc04714e3aba6c70c19e140c7401dbe4d248a6fe73cf2faf300bc48be20ec288fe06734c38b86e72c398120a7207dde2d44ea0f875c929a9360dc28de408c48ef800754a3ebe6874c59a10087005dfe0d64ca2fa77cb2bab340fc08fe60ac68cfa0277483cbc6a76c7941e067e0bd1eed842acf479c525a53a01ce81e804c882f40c794632b26478c9961c047c09d3ecda40aef67bc727a73803cc83ea06ca80f60e7b4430b0667acb901a027a0fd5eadc46a8f07dc121a13e05ca85ec00cc86f0087d4236b6607ccd921800780dd7e8de44aaf27fc323a33c07c887ee02ce84f20a7f4034b4627ecf9c160e7603d9e6d04aa4fc71cd2dad3209c689e00cc08afc04714e3aba6c70c19e140c7401dbe4d248a6fe73cf2faf300bc48be20ec288fe06734c38b86e72c398120a7207dde2d44ea0f875c929a9360dc28de408c48ef800754a3ebe6874c59a10087005dfe0d64ca2fa77cb2bab340fc08fe60ac68cfa0277483cbc6a76c7941e067e0bd1eed842acf479c525a53a01ce81e804c882f40c794632b26478c9961c047c09d3ecda40aef67bc727a73803cc83ea06ca80f60e7b4430b0667acb901a027a0fd5eadc46a8f07dc121a13e05ca85ec00cc86f0087d4236b6607ccd921800780dd7e8de44aaf27fc323a33c07c887ee02ce84f20a7f4034b4627ecf9c160e7603d9e6d04aa4fc71cd2dad3209c689e00cc08afc04714e3aba6c70c19e140c7401dbe4d248a6fe73cf2faf300bc48be20ec288fe06734c38b86e72c398120a7207dde2d44ea0f875c929a9360dc28de408c48ef800754a3ebe6874c59a10087005dfe0d64ca2fa77cb2bab340fc08fe60ac68cfa0277483cbc6a76c7941e067e0bd1eed842acf479c525a53a01ce81e804c882f40c794632b26478c9961c047c09d3ecda40aef67bc727a73803cc83ea06ca80f60e7b4430b0667acb901a027a0fd5eadc46a8f07dc121a13e05ca85ec00cc86f0087d4236b6607ccd921800780dd7e8de44aaf27fc323a33c07c887ee02ce84f20a7f4034b4627ecf9c160e7603d9e6d04aa4fc71cd2dad3209c689e00cc08afc04714e3aba6c70c19e140c7401dbe4d248a6fe73cf2faf300bc48be20ec288fe06734c38b86e72c398120a7207dde2d44ea0f875c929a9360dc28de408c48ef800754a3ebe6874c59a10087005dfe0d64ca2fa77cb2bab340fc08fe60ac68cfa0277483cbc6a76c7941e067e0bd1eed842acf479c525a53a0f8621930e40141f395cac0e5ccdd20058bf8bf15598488d59e2a04489dc1230f",
        "type": "nulldata"
      }
    }
  ],
  "blockhash": "0588000bb82f4b14ca9e4626330a5c84a7bb9e1c31fd2ade5c3732d80cc4fd85",
  "confirmations": 1,
  "time": 1764178356,
  "blocktime": 1764178356
}