{
  "hex": "01000000000101a704085143198969ca8ad62fd7679b416a27e5bc4a059cfd40d744d4233544a20100000000feffffff0200e1f50500000000fdd5046a207b54872c89b177e6fb9194ce0e19fc2b77660b5242db5a8551431c41774546864db0047b92ddeac842aece871273d05e91bfc466e0db6d5ac740b6363f2c84c2e37ba95bb2fdcae8628eeea73253f07eb19fe446c0fb4d7ae76096161f0ca4e2c35b893bd29daa8802ee8ec75233901ed1ff8426a09b2d1a8700f6767f6cc482a33be91bf2bd8aa822ceaee77213b03ef1dfa40680bb0d3aa720d6565f4ce4a2831bc9fb125d6a48c22e4e0792f350de113f44e6605bedda47c036b6bfac044263fb29db327d4a68e20e6e27b2d370fe311f64c6407bcdfa67e016969f8c246243db09bb521d2a08826e0e47d2b3109e517f04a6201bad9a078076f6ffec440223bb699b723d0a28a24e2e67f29330be715f2486003b8dba27a056d6dfcc6422039b497b92ddeac842aece871273d05e91bfc466e0db6d5ac740b6363f2c84c2e37ba95bb2fdcae8628eeea73253f07eb19fe446c0fb4d7ae76096161f0ca4e2c35b893bd29daa8802ee8ec75233901ed1ff8426a09b2d1a8700f6767f6cc482a33be91bf2bd8aa822ceaee77213b03ef1dfa40680bb0d3aa720d6565f4ce4a2831bc9fb125d6a48c22e4e0792f350de113f44e6605bedda47c036b6bfac044263fb29db327d4a68e20e6e27b2d370fe311f64c6407bcdfa67e016969f8c246243db09bb521d2a08826e0e47d2b3109e517f04a6201bad9a078076f6ffec440223bb699b723d0a28a24e2e67f29330be715f2486003b8dba27a056d6dfcc6422039b497b92ddeac842aece871273d05e91bfc466e0db6d5ac740b6363f2c84c2e37ba95bb2fdcae8628eeea73253f07eb19fe446c0fb4d7ae76096161f0ca4e2c35b893bd29daa8802ee8ec75233901ed1ff8426a09b2d1a8700f6767f6cc482a33be91bf2bd8aa822ceaee77213b03ef1dfa40680bb0d3aa720d6565f4ce4a2831bc9fb125d6a48c22e4e0792f350de113f44e6605bedda47c036b6bfac044263fb29db327d4a68e20e6e27b2d370fe311f64c6407bcdfa67e016969f8c246243db09bb521d2a08826e0e47d2b3109e517f04a6201bad9a078076f6ffec440223bb699b723d0a28a24e2e67f29330be715f2486003b8dba27a056d6dfcc6422039b497b92ddeac842aece871273d05e91bfc466e0db6d5ac740b6363f2c84c2e37ba95bb2fdcae8628eeea73253f07eb19fe446c0fb4d7ae76096161f0ca4e2c35b893bd29daa8802ee8ec75233901ed1ff8426a09b2d1a8700f6767f6cc482a33be91bf2bd8aa822ceaee77213b03ef1dfa40680bb0d3aa720d6565f4ce4a2831bc9fb125d6a48c22e4e0792f350de113f44e6605bedda47c036b6bfac044263fb29db327d4a68e20e6e27b2d370fe311f64c6407bcdfa67e016969f8c246243db09bb521d2a08826e0e47d2b3109e517f04a6201bad9a078076f6ffec440223bb699b723d0a28a24e2e67f29330be715f2486003b8dba27a056d6dfcc6422039b497b92ddeac842aece871273d05e91bfc466e0db6d5ac740b6363f2c84c2e37ba95bb2fdcae8628eeea73253f07eb19fe446c0fb4d7ae76096161f0ca4e2c35b893bd29daa8802ee8ec75233901ed1ff8426a09b2d1a8700f6767f6cc482a33be91bf2bd8aa822ceaee77213b03ef1dfa40680bb0d3aa720d6565f4ce4a2831bc9fb125d6a48c22e4e0792f350de113f44a68d4a1827642f37ebd6cd0495d2027d41093e0af0541472a2ac95512e65788e8022c5f6782d00002251208bb54b3dd41ef0cbec7e98041a81762b33b6c22b478e9f3366d6da00feb58bb402fd7509844e91bf2372fedec15ecdca5cb616899aedc53ed0bed87636a9d936873cca2bc9d5dcd96d97b6fbf23f320b32b9ce4a445846a8777e3252b55db6a86cc7498f7d88d44008546e6f1fdbd4291a3baa791b49be33fb29f35d8fd4fe2c081eedb779890f30a1e87bf400c3f624b8d7712fb4727a0b066bf5b0ab80b160f120fa306accb0a90954dcd72e1116bd219c3607f8ec787844d963808e2f6e312b3afa9b55f60835383d56dee499f489968619494ec97565f5c24931049440d5e0dea16d5dcbd109e2583611947311fe21db954385d63719ac654c8f96362df4c2d124037c0873dd3d8b8480e32fd84b81f2da568e11f3bc329b71b9e2d9226c581e8dc98fce89953de16d14ac3432bd56ae9911a3effc752e61f92bde060787d61de26c1a02fbe0940795d0ab6850542409b93bcf941a6e0bbbcc1baada1ba6a6f7346aba7c893ebb0f25070b3b513e2d39307ae7f003a67a5addb9220639389fac0804c8f67120cc6d3dc3e2f26fcdf4d3de5c93ddcda63b557a28657bd73624eab54fe741c1d18d94f8b0ac905fea6ec4a4549801a63d84c3348567e8b6f24e9fde7536dc6232bd68599203f141709561d134029a5d952526538833658bd695be9782f3bf4f3af40739ad45b0c72e42c6bed5c0391ff70364059061630edd697d1a765443d23bebee7a1c3f129f0d5865e7e006a673d943d9c4c7863361e7c4c57a361aceeeda9c746512c40717d3923173f64903cea19f94a7f7954ffa2edd31c994a6e56732fa07f8da81bc16f3d25289fe642a5f620bb5cbb6c293cd09cb406f5818f1520d676c7fc88536e67f8edf1c6f3162619b463eccfce73476396d9ebc074a876b8783ddcdaf791515e75da9b489ed3eda9c07c4262c79bdb5575491e18908d5062d8c42d83377b3501e66b149eefb0af51ce0aae0c2e8ccfe291745bb7f9f6d866a2580fd0aaadd9648861db9451db102eaced2b23865d309f76054be30d6d70ad0221f4f417b5b234b5ce1eb3ecf446ba2bc2401447f5611d4787ec2847d4f4eb3fd68644af7abaf0a4b0be7cafd490a44baea64799f460657e8ff10ad8dbb374994b9ce44ed1e2cf162119e2851212d8cc85bb5bf7ceea4c315e9d64f868cada255d9bd70b67c8c705fd43e15dc39d7053d31073c4e1b9863bc2ca21d9d6981c247262073632d0527e98b23ffa3de3db16a0615e26eafb5b632c0af329fdde8483bbed24dff08e94882937f0a672c0787e2b05b664257ef3337ec2048c1021795bb65925531d646229a6f58527ee440d5913086e3ca94269521221d7105fd816810705fcc5c0fdf6d6e2b6c619e5c7c6e63a86c2c491f496961460e28cf7dfd69f5ef59df20eeeb94e67aa8226de2a306e0b66839cc8a26120dd9156b614122a70c7e64076fcd9a99bd1b13d120388ce59cc3599a665837d8162f04fec8fc6cd0440a61c6224192be808230f17660c34a503b6f116f5f41f6fa94f13f0c2038e6280aa3074cac7972058d1d5a3ee8cd1c4785ea3cca403314deb4fff5e11aa50c3ef7ba9fe69bdd480a032c9ccb5bd5f309451cb7a63c54b7468fa783e225028a4dd33aad4772b83203e498f13175dbfa524ddd717d2cebb4b2cd6900dacefdb3e915fb206c43268e0d32b4057f0eb5c0300f5c91d47d7c2419303603059aeebce4cd526eb999eb872dc2bb841335dffb2f12621613f6d384989facf8b882a2e4cee9d18c501b68257b6813e14e26e2caccbe88c761cc98ffd84879a5b114b532879b903f3fb48a09e47fb063bc91ddcdfe31db1432bc5f76084093d5f7e8a8d7da451f4a01442ec7296c51caa985e5c62a05274c92eed3a93bc2cb7a98d1bab9b4985c9c45752fad528175dba480393fcdbef46e6b5408144b8731da609e36dbb9df7e9a7cc80f481db49dc0af4392e8ca09df08043f75d9d1c16622ce1cef71f2392cad61e0ab32ad2af58e3b50f733f55304a2b63d4ad1ecb8d91eabe648ce5ba2012a4fa4fc632cb71a2758666f27f9110be5182d6dfd66819d4aaa5230af2b9e7c7c45647b5c5345dd88ef2b0d79196e4b8316fcc3842be1e1d362474f67db3404a0b9b5505c8517707160e3a3c71a6370b5bbf5f0266729d9865d3690f6b09c6e352857aba35d96fb1d171d2f7ceb2a5d8a9b91162439f39254e9e6e9646ceaee33d9bae92ebf11a3c03745d19dd5d0e1428622555c385c568cfe3cfcad3dff2f7b0dc2b0f1275a598d44f34c7c7cc08382b77737c5bb479567640eda7b526efc647fce73478aca21f7fe815013bd75ee1db6a35ce579f6191981cd21b2bf0138ae4eabe4da143f4322e6d7ba4231e1e4b59cfe04fbbf6a1f7eed48ed67e152548e805dfd96bfb8f5d87f2c434aeb021365f87ab384e8c1f264061f9b2fdaacd36428436be4ae8a3719d05ce428c0fae8c598c9b35c3459984280b648950508003fffec797f157a804f24c8a20312a5896eb4b24a2e9a71df48bc31cc7532627284db84103f7f6cc93d16be00eaa2b43585b9b13354351566a8ce8fdc99932fde4c29026bb7ef99b5d7d20d86ecc49e9b1b4d038948a9b4401d7b7b69c85f1b65be4f1405d0b522a776cfd5f45bf5649425e8108bf3e3caac0b7cbfa52737e049972f7599959bf2341eccadcdc704eb50b538898e7a6b7575e49bb4a5ee42683ef16658d4d610480205430bd931bed73adcb2f63ee908dfbcf492603e83be7e574db88ebcb8e3014457e19a775736b8b6f40f15ec8d9725ef50295c7980b39f524505ce225631ead7bb21aa0ce9932af76673df6a3c0dd4b62fcb28d46706044eddb00ce036d69b844ce7404e877e7f042f6ed8d2e89d6cec5b081cde3b996dbd53d3edf845181dc27734a0a37b044d0a807fdb969bf2c69ffb0c7af70e28be3d6a62dbb57b260c44a89a0c77523fea183b623c842de345c972a60068e95018aa21ce4d9205a3008d7bd990a1d7f2a20dfa481377b38b85607b951cbc2761e19cec3ff17d39eec2c1356993618b1a746b723fe3eae1f5fce287739ab32ec062cb583701fbf6b73bff77d57ceac6637462292b386bb37276bbdfd650dc87ae1c052f9cbc1face0d2857e63855dc9e61df6ca95007f4f7bb98632563194e66917588f937b9dc0b2a832654bb166813748989dfea9b174b7c19cf01caa1b860571b1778e0c9bb32ba58e34a7128605eefefc3776f246e7e440025d7eae6a0719df5dad17dbcaa1e690a8857ba27eff8e2d0b2d07c604e8694240b5960a77ff3abb904ae5f3c4962c2363357c15f5042f4bf55df4a08d73cf65cace00132c454751687073879395a6bfc8f0f2f5f7021553686c788487b5b8c2d6e2eaee2a393d4c55565c778284a1a3f5243152c8cad0f0fcfd00000000000000000000000000000000000000000000000013222f3801fd210500b5c9081cf533915fff1a89053e558800439feead7974ca5e262f7ae5f5f8f6e187a6808c66d564c7461aad3ba20f1f307b66c1db2c8d0ba3423edaa26e3c1e98fa3f134e2b1289d111f0d86045c119b4f8bb04ea0cb498913710344e5469a7bf8e05acc380c6a2458df02427ceb6e7c09a8c77851502c85f55d17d701d53ff05049668c8156b09f352438e437246879101162797fb4875267f8d1d8b9108b865749cb526704705b84f697e002b804897b5e43136a618cceb955ae546bfd6887b58f7ce5b813401a0779c33b07c00b233ead32eccbc8d715215ed826d51ee88183a937e2bca9bcccdb8864befdae3e1626a2283dc184141f801bf9d64ca9df6670eda846d52d7d5ebabbdb8abf2dd7743e8ff696eebdb8b23b205aae9d846f091dbbf22ea166a517807b514b61a988c2916cc2dbea0531deca963872f40c6c6ff454d44c744f1d225c0e252a2d1d18fdbf28ffd745cf6a3ba75e3eb4e9d53cb6a2adb474774df869c72fef2f9c246093522b0d149d204c416966a763ec739a3b63a18ae4a16876b1bf9d7c57dbdd8e893b1ca1c9defe64bfc0f940bc9e1cbeaf4d3362ef6955b8f42411d4aee337c15a97e7f45f064e08303927362a4f7ac625123ca6ac8c1545802c8f4aa4ba8110cf2d88f899791dac4b6a20e9fc146c8cb3d80cd71cca4b51aa48b59a428d23ff8704a3a3252df77956eed7dfd1030c1f3befebc5c7f406d58cd3c2fe47c026ce2a95b541145ff951c4d7fdc733b77183711b890a0f84fbe179d03c6f703d20c8e845d218c5fcbcd5de47521583ff9d717ebd3a70cbb39dd5d3322649fe2e91f6d93eecf5d60c69d36612af649dc2ae663b1caa9c1e0629fba3bf71dfad52c3e05edc9fd0b78b925f4bee4c34527a7fec9cf91b909693146a7def23660d7aedd0f9537f445680ff9e175a562747b42a6fe1c0c06430feb243e9e8a1b8b2c69d61095e731653e7391310c1f211a54933214b3e40d25d47f845f6a4cbd99e2690b9fa3ab89f4a8508f039178d97b19dd57a4c054c2d78575ec5930603bb61b808c794fabc7fd2ead8b8254f1e4b528cfbecd18680e35ce289d10c5f54e06c58cc05af15366229e7d5a236f1cdeb7320ff0f97497856128a4d865b3040c44f9d983d3f24a8cbc9875360b176d2e39d547bbafcb4ae8d8035f116215eae8d769b68305a34f5e7f8d56131a0ca790459a9c4aeaa29cbc764a30c298df1668b9a47262d4d0dd76e80aa1e5947c4aa3e8ea004a1dd610ff3851e7095cf34d4fe01313648bec78990dc84918a2ca0c5feaad7aec3cca57fa379f75c6bb6a30a813fb5e38e604f432af92c86aee1b886db89a431fdf1aeaa2fbcfb004a0204fd08cf24d1d510430a27e40d94829f925ac9316ed94b057196f5d14f77ded84652594fd85be31205f459c7485008aaac595241e0b93b91a62eb00e4c52a840a68a05327fa612e753e166a87ee262751fdc45a87c84abcb3e81012420d9b1f1077aedcd1ef4c7fbaa646d1a510822bf2ccb636c1566db6ea078e556b4953d3213bf61918ad188d12eed35f6386866870bcbcfbab8424c93cb80d307547bbc8f1c7b62c5a38814ccb0197fa7958182fdc53dec52b849edd78988e7d2f84f1ec88ddf0f3ea377db454bf9e6234187359187316e79446bf2f0146fd4376ebc88668b5c9bdb88f1ea0eb2c3372658b6aaa579c75cca84e45060155e594c12425c88b81111ec1ef621355f89e30e66e60bcb4be2559fdb9cd560327ae5ffb32b4cd45a087d47d98058b9c250f2034526b3f305588f6d2d0aa50f2d419b0822e9d00b7b071e451d3f524fc370dfbd476e02d20130def1ad3b7975a82000000",
  "txid": "afca5a9601a5b412e43f80dfd3e7a3b3fce51d231b05565ce94dd758ab86572b",
  "hash": "79275ae65feec4c001ea5477bca6cbf9beb65bd242c6f396d7230e877ff0cc6f",
  "size": 5085,
  "vsize": 2278,
  "version": 1,
  "locktime": 130,
  "vin": [
    {
      "txid": "a2443523d444d740fd9c054abce5276a419b67d72fd68aca69891943510804a7",
      "vout": 1,
      "scriptSig": {
        "asm": "",
        "hex": ""
      },
      "txinwitness": [
        "844e91bf2372fedec15ecdca5cb616899aedc53ed0bed87636a9d936873cca2bc9d5dcd96d97b6fbf23f320b32b9ce4a445846a8777e3252b55db6a86cc7498f7d88d44008546e6f1fdbd4291a3baa791b49be33fb29f35d8fd4fe2c081eedb779890f30a1e87bf400c3f624b8d7712fb4727a0b066bf5b0ab80b160f120fa306accb0a90954dcd72e1116bd219c3607f8ec787844d963808e2f6e312b3afa9b55f60835383d56dee499f489968619494ec97565f5c24931049440d5e0dea16d5dcbd109e2583611947311fe21db954385d63719ac654c8f96362df4c2d124037c0873dd3d8b8480e32fd84b81f2da568e11f3bc329b71b9e2d9226c581e8dc98fce89953de16d14ac3432bd56ae9911a3effc752e61f92bde060787d61de26c1a02fbe0940795d0ab6850542409b93bcf941a6e0bbbcc1baada1ba6a6f7346aba7c893ebb0f25070b3b513e2d39307ae7f003a67a5addb9220639389fac0804c8f67120cc6d3dc3e2f26fcdf4d3de5c93ddcda63b557a28657bd73624eab54fe741c1d18d94f8b0ac905fea6ec4a4549801a63d84c3348567e8b6f24e9fde7536dc6232bd68599203f141709561d134029a5d952526538833658bd695be9782f3bf4f3af40739ad45b0c72e42c6bed5c0391ff70364059061630edd697d1a765443d23bebee7a1c3f129f0d5865e7e006a673d943d9c4c7863361e7c4c57a361aceeeda9c746512c40717d3923173f64903cea19f94a7f7954ffa2edd31c994a6e56732fa07f8da81bc16f3d25289fe642a5f620bb5cbb6c293cd09cb406f5818f1520d676c7fc88536e67f8edf1c6f3162619b463eccfce73476396d9ebc074a876b8783ddcdaf791515e75da9b489ed3eda9c07c4262c79bdb5575491e18908d5062d8c42d83377b3501e66b149eefb0af51ce0aae0c2e8ccfe291745bb7f9f6d866a2580fd0aaadd9648861db9451db102eaced2b23865d309f76054be30d6d70ad0221f4f417b5b234b5ce1eb3ecf446ba2bc2401447f5611d4787ec2847d4f4eb3fd68644af7abaf0a4b0be7cafd490a44baea64799f460657e8ff10ad8dbb374994b9ce44ed1e2cf162119e2851212d8cc85bb5bf7ceea4c315e9d64f868cada255d9bd70b67c8c705fd43e15dc39d7053d31073c4e1b9863bc2ca21d9d6981c247262073632d0527e98b23ffa3de3db16a0615e26eafb5b632c0af329fdde8483bbed24dff08e94882937f0a672c0787e2b05b664257ef3337ec2048c1021795bb65925531d646229a6f58527ee440d5913086e3ca94269521221d7105fd816810705fcc5c0fdf6d6e2b6c619e5c7c6e63a86c2c491f496961460e28cf7dfd69f5ef59df20eeeb94e67aa8226de2a306e0b66839cc8a26120dd9156b614122a70c7e64076fcd9a99bd1b13d120388ce59cc3599a665837d8162f04fec8fc6cd0440a61c6224192be808230f17660c34a503b6f116f5f41f6fa94f13f0c2038e6280aa3074cac7972058d1d5a3ee8cd1c4785ea3cca403314deb4fff5e11aa50c3ef7ba9fe69bdd480a032c9ccb5bd5f309451cb7a63c54b7468fa783e225028a4dd33aad4772b83203e498f13175dbfa524ddd717d2cebb4b2cd6900dacefdb3e915fb206c43268e0d32b4057f0eb5c0300f5c91d47d7c2419303603059aeebce4cd526eb999eb872dc2bb841335dffb2f12621613f6d384989facf8b882a2e4cee9d18c501b68257b6813e14e26e2caccbe88c761cc98ffd84879a5b114b532879b903f3fb48a09e47fb063bc91ddcdfe31db1432bc5f76084093d5f7e8a8d7da451f4a01442ec7296c51caa985e5c62a05274c92eed3a93bc2cb7a98d1bab9b4985c9c45752fad528175dba480393fcdbef46e6b5408144b8731da609e36dbb9df7e9a7cc80f481db49dc0af4392e8ca09df08043f75d9d1c16622ce1cef71f2392cad61e0ab32ad2af58e3b50f733f55304a2b63d4ad1ecb8d91eabe648ce5ba2012a4fa4fc632cb71a2758666f27f9110be5182d6dfd66819d4aaa5230af2b9e7c7c45647b5c5345dd88ef2b0d79196e4b8316fcc3842be1e1d362474f67db3404a0b9b5505c8517707160e3a3c71a6370b5bbf5f0266729d9865d3690f6b09c6e352857aba35d96fb1d171d2f7ceb2a5d8a9b91162439f39254e9e6e9646ceaee33d9bae92ebf11a3c03745d19dd5d0e1428622555c385c568cfe3cfcad3dff2f7b0dc2b0f1275a598d44f34c7c7cc08382b77737c5bb479567640eda7b526efc647fce73478aca21f7fe815013bd75ee1db6a35ce579f6191981cd21b2bf0138ae4eabe4da143f4322e6d7ba4231e1e4b59cfe04fbbf6a1f7eed48ed67e152548e805dfd96bfb8f5d87f2c434aeb021365f87ab384e8c1f264061f9b2fdaacd36428436be4ae8a3719d05ce428c0fae8c598c9b35c3459984280b648950508003fffec797f157a804f24c8a20312a5896eb4b24a2e9a71df48bc31cc7532627284db84103f7f6cc93d16be00eaa2b43585b9b13354351566a8ce8fdc99932fde4c29026bb7ef99b5d7d20d86ecc49e9b1b4d038948a9b4401d7b7b69c85f1b65be4f1405d0b522a776cfd5f45bf5649425e8108bf3e3caac0b7cbfa52737e049972f7599959bf2341eccadcdc704eb50b538898e7a6b7575e49bb4a5ee42683ef16658d4d610480205430bd931bed73adcb2f63ee908dfbcf492603e83be7e574db88ebcb8e3014457e19a775736b8b6f40f15ec8d9725ef50295c7980b39f524505ce225631ead7bb21aa0ce9932af76673df6a3c0dd4b62fcb28d46706044eddb00ce036d69b844ce7404e877e7f042f6ed8d2e89d6cec5b081cde3b996dbd53d3edf845181dc27734a0a37b044d0a807fdb969bf2c69ffb0c7af70e28be3d6a62dbb57b260c44a89a0c77523fea183b623c842de345c972a60068e95018aa21ce4d9205a3008d7bd990a1d7f2a20dfa481377b38b85607b951cbc2761e19cec3ff17d39eec2c1356993618b1a746b723fe3eae1f5fce287739ab32ec062cb583701fbf6b73bff77d57ceac6637462292b386bb37276bbdfd650dc87ae1c052f9cbc1face0d2857e63855dc9e61df6ca95007f4f7bb98632563194e66917588f937b9dc0b2a832654bb166813748989dfea9b174b7c19cf01caa1b860571b1778e0c9bb32ba58e34a7128605eefefc3776f246e7e440025d7eae6a0719df5dad17dbcaa1e690a8857ba27eff8e2d0b2d07c604e8694240b5960a77ff3abb904ae5f3c4962c2363357c15f5042f4bf55df4a08d73cf65cace00132c454751687073879395a6bfc8f0f2f5f7021553686c788487b5b8c2d6e2eaee2a393d4c55565c778284a1a3f5243152c8cad0f0fcfd00000000000000000000000000000000000000000000000013222f3801",
        "00b5c9081cf533915fff1a89053e558800439feead7974ca5e262f7ae5f5f8f6e187a6808c66d564c7461aad3ba20f1f307b66c1db2c8d0ba3423edaa26e3c1e98fa3f134e2b1289d111f0d86045c119b4f8bb04ea0cb498913710344e5469a7bf8e05acc380c6a2458df02427ceb6e7c09a8c77851502c85f55d17d701d53ff05049668c8156b09f352438e437246879101162797fb4875267f8d1d8b9108b865749cb526704705b84f697e002b804897b5e43136a618cceb955ae546bfd6887b58f7ce5b813401a0779c33b07c00b233ead32eccbc8d715215ed826d51ee88183a937e2bca9bcccdb8864befdae3e1626a2283dc184141f801bf9d64ca9df6670eda846d52d7d5ebabbdb8abf2dd7743e8ff696eebdb8b23b205aae9d846f091dbbf22ea166a517807b514b61a988c2916cc2dbea0531deca963872f40c6c6ff454d44c744f1d225c0e252a2d1d18fdbf28ffd745cf6a3ba75e3eb4e9d53cb6a2adb474774df869c72fef2f9c246093522b0d149d204c416966a763ec739a3b63a18ae4a16876b1bf9d7c57dbdd8e893b1ca1c9defe64bfc0f940bc9e1cbeaf4d3362ef6955b8f42411d4aee337c15a97e7f45f064e08303927362a4f7ac625123ca6ac8c1545802c8f4aa4ba8110cf2d88f899791dac4b6a20e9fc146c8cb3d80cd71cca4b51aa48b59a428d23ff8704a3a3252df77956eed7dfd1030c1f3befebc5c7f406d58cd3c2fe47c026ce2a95b541145ff951c4d7fdc733b77183711b890a0f84fbe179d03c6f703d20c8e845d218c5fcbcd5de47521583ff9d717ebd3a70cbb39dd5d3322649fe2e91f6d93eecf5d60c69d36612af649dc2ae663b1caa9c1e0629fba3bf71dfad52c3e05edc9fd0b78b925f4bee4c34527a7fec9cf91b909693146a7def23660d7aedd0f9537f445680ff9e175a562747b42a6fe1c0c06430feb243e9e8a1b8b2c69d61095e731653e7391310c1f211a54933214b3e40d25d47f845f6a4cbd99e2690b9fa3ab89f4a8508f039178d97b19dd57a4c054c2d78575ec5930603bb61b808c794fabc7fd2ead8b8254f1e4b528cfbecd18680e35ce289d10c5f54e06c58cc05af15366229e7d5a236f1cdeb7320ff0f97497856128a4d865b3040c44f9d983d3f24a8cbc9875360b176d2e39d547bbafcb4ae8d8035f116215eae8d769b68305a34f5e7f8d56131a0ca790459a9c4aeaa29cbc764a30c298df1668b9a47262d4d0dd76e80aa1e5947c4aa3e8ea004a1dd610ff3851e7095cf34d4fe01313648bec78990dc84918a2ca0c5feaad7aec3cca57fa379f75c6bb6a30a813fb5e38e604f432af92c86aee1b886db89a431fdf1aeaa2fbcfb004a0204fd08cf24d1d510430a27e40d94829f925ac9316ed94b057196f5d14f77ded84652594fd85be31205f459c7485008aaac595241e0b93b91a62eb00e4c52a840a68a05327fa612e753e166a87ee262751fdc45a87c84abcb3e81012420d9b1f1077aedcd1ef4c7fbaa646d1a510822bf2ccb636c1566db6ea078e556b4953d3213bf61918ad188d12eed35f6386866870bcbcfbab8424c93cb80d307547bbc8f1c7b62c5a38814ccb0197fa7958182fdc53dec52b849edd78988e7d2f84f1ec88ddf0f3ea377db454bf9e6234187359187316e79446bf2f0146fd4376ebc88668b5c9bdb88f1ea0eb2c3372658b6aaa579c75cca84e45060155e594c12425c88b81111ec1ef621355f89e30e66e60bcb4be2559fdb9cd560327ae5ffb32b4cd45a087d47d98058b9c250f2034526b3f305588f6d2d0aa50f2d419b0822e9d00b7b071e451d3f524fc370dfbd476e02d20130def1ad3b7975a"
      ],
      "sequence": 4294967294
    }
  ],
  "vout": [
    {
      "value": 1.0,
      "n": 0,
      "scriptPubKey": {
        "asm": "OP_RETURN 7b54872c89b177e6fb9194ce0e19fc2b77660b5242db5a8551431c4177454686 7b92ddeac842aece871273d05e91bfc466e0db6d5ac740b6363f2c84c2e37ba95bb2fdcae8628eeea73253f07eb19fe446c0fb4d7ae76096161f0ca4e2c35b893bd29daa8802ee8ec75233901ed1ff8426a09b2d1a8700f6767f6cc482a33be91bf2bd8aa822ceaee77213b03ef1dfa40680bb0d3aa720d6565f4ce4a2831bc9fb125d6a48c22e4e0792f350de113f44e6605bedda47c036b6bfac044263fb29db327d4a68e20e6e27b2d370fe311f64c6407bcdfa67e016969f8c246243db09bb521d2a08826e0e47d2b3109e517f04a6201bad9a078076f6ffec440223bb699b723d0a28a24e2e67f29330be715f2486003b8dba27a056d6dfcc6422039b497b92ddeac842aece871273d05e91bfc466e0db6d5ac740b6363f2c84c2e37ba95bb2fdcae8628eeea73253f07eb19fe446c0fb4d7ae76096161f0ca4e2c35b893bd29daa8802ee8ec75233901ed1ff8426a09b2d1a8700f6767f6cc482a33be91bf2bd8aa822ceaee77213b03ef1dfa40680bb0d3aa720d6565f4ce4a2831bc9fb125d6a48c22e4e0792f350de113f44e6605bedda47c036b6bfac044263fb29db327d4a68e20e6e27b2d370fe311f64c6407bcdfa67e016969f8c246243db09bb521d2a08826e0e47d2b3109e517f04a6201bad9a078076f6ffec440223bb699b723d0a28a24e2e67f29330be715f2486003b8dba27a056d6dfcc6422039b497b92ddeac842aece871273d05e91bfc466e0db6d5ac740b6363f2c84c2e37ba95bb2fdcae8628eeea73253f07eb19fe446c0fb4d7ae76096161f0ca4e2c35b893bd29daa8802ee8ec75233901ed1ff8426a09b2d1a8700f6767f6cc482a33be91bf2bd8aa822ceaee77213b03ef1dfa40680bb0d3aa720d6565f4ce4a2831bc9fb125d6a48c22e4e0792f350de113f44e6605bedda47c036b6bfac044263fb29db327d4a68e20e6e27b2d370fe311f64c6407bcdfa67e016969f8c246243db09bb521d2a08826e0e47d2b3109e517f04a6201bad9a078076f6ffec440223bb699b723d0a28a24e2e67f29330be715f2486003b8dba27a056d6dfcc6422039b497b92ddeac842aece871273d05e91bfc466e0db6d5ac740b6363f2c84c2e37ba95bb2fdcae8628eeea73253f07eb19fe446c0fb4d7ae76096161f0ca4e2c35b893bd29daa8802ee8ec75233901ed1ff8426a09b2d1a8700f6767f6cc482a33be91bf2bd8aa822ceaee77213b03ef1dfa40680bb0d3aa720d6565f4ce4a2831bc9fb125d6a48c22e4e0792f350de113f44e6605bedda47c036b6bfac044263fb29db327d4a68e20e6e27b2d370fe311f64c6407bcdfa67e016969f8c246243db09bb521d2a08826e0e47d2b3109e517f04a6201bad9a078076f6ffec440223bb699b723d0a28a24e2e67f29330be715f2486003b8dba27a056d6dfcc6422039b497b92ddeac842aece871273d05e91bfc466e0db6d5ac740b6363f2c84c2e37ba95bb2fdcae8628eeea73253f07eb19fe446c0fb4d7ae76096161f0ca4e2c35b893bd29daa8802ee8ec75233901ed1ff8426a09b2d1a8700f6767f6cc482a33be91bf2bd8aa822ceaee77213b03ef1dfa40680bb0d3aa720d6565f4ce4a2831bc9fb125d6a48c22e4e0792f350de113f44a68d4a1827642f37ebd6cd0495d2027d41093e0af0541472a2ac95512e65788e",
        "hex": "6a207b54872c89b177e6fb9194ce0e19fc2b77660b5242db5a8551431c41774546864db0047b92ddeac842aece871273d05e91bfc466e0db6d5ac740b6363f2c84c2e37ba95bb2fdcae8628eeea73253f07eb19fe446c0fb4d7ae76096161f0ca4e2c35b893bd29daa8802ee8ec75233901ed1ff8426a09b2d1a8700f6767f6cc482a33be91bf2bd8aa822ceaee77213b03ef1dfa40680bb0d3aa720d6565f4ce4a2831bc9fb125d6a48c22e4e0792f350de113f44e6605bedda47c036b6bfac044263fb29db327d4a68e20e6e27b2d370fe311f64c6407bcdfa67e016969f8c246243db09bb521d2a08826e0e47d2b3109e517f04a6201bad9a078076f6ffec440223bb699b723d0a28a24e2e67f29330be715f2486003b8dba27a056d6dfcc6422039b497b92ddeac842aece871273d05e91bfc466e0db6d5ac740b6363f2c84c2e37ba95bb2fdcae8628eeea73253f07eb19fe446c0fb4d7ae76096161f0ca4e2c35b893bd29daa8802ee8ec75233901ed1ff8426a09b2d1a8700f6767f6cc482a33be91bf2bd8aa822ceaee77213b03ef1dfa40680bb0d3aa720d6565f4ce4a2831bc9fb125d6a48c22e4e0792f350de113f44e6605bedda47c036b6bfac044263fb29db327d4a68e20e6e27b2d370fe311f64c6407bcdfa67e016969f8c246243db09bb521d2a08826e0e47d2b3109e517f04a6201bad9a078076f6ffec440223bb699b723d0a28a24e2e67f29330be715f2486003b8dba27a056d6dfcc6422039b497b92ddeac842aece871273d05e91bfc466e0db6d5ac740b6363f2c84c2e37ba95bb2fdcae8628eeea73253f07eb19fe446c0fb4d7ae76096161f0ca4e2c35b893bd29daa8802ee8ec75233901ed1ff8426a09b2d1a8700f6767f6cc482a33be91bf2bd8aa822ceaee77213b03ef1dfa40680bb0d3aa720d6565f4ce4a2831bc9fb125d6a48c22e4e0792f350de113f44e6605bedda47c036b6bfac044263fb29db327d4a68e20e6e27b2d370fe311f64c6407bcdfa67e016969f8c246243db09bb521d2a08826e0e47d2b3109e517f04a6201bad9a078076f6ffec440223bb699b723d0a28a24e2e67f29330be715f2486003b8dba27a056d6dfcc6422039b497b92ddeac842aece871273d05e91bfc466e0db6d5ac740b6363f2c84c2e37ba95bb2fdcae8628eeea73253f07eb19fe446c0fb4d7ae76096161f0ca4e2c35b893bd29daa8802ee8ec75233901ed1ff8426a09b2d1a8700f6767f6cc482a33be91bf2bd8aa822ceaee77213b03ef1dfa40680bb0d3aa720d6565f4ce4a2831bc9fb125d6a48c22e4e0792f350de113f44e6605bedda47c036b6bfac044263fb29db327d4a68e20e6e27b2d370fe311f64c6407bcdfa67e016969f8c246243db09bb521d2a08826e0e47d2b3109e517f04a6201bad9a078076f6ffec440223bb699b723d0a28a24e2e67f29330be715f2486003b8dba27a056d6dfcc6422039b497b92ddeac842aece871273d05e91bfc466e0db6d5ac740b6363f2c84c2e37ba95bb2fdcae8628eeea73253f07eb19fe446c0fb4d7ae76096161f0ca4e2c35b893bd29daa8802ee8ec75233901ed1ff8426a09b2d1a8700f6767f6cc482a33be91bf2bd8aa822ceaee77213b03ef1dfa40680bb0d3aa720d6565f4ce4a2831bc9fb125d6a48c22e4e0792f350de113f44a68d4a1827642f37ebd6cd0495d2027d41093e0af0541472a2ac95512e65788e",
        "type": "nulldata"
      }
    },
    {
      "value": 499975.5944,
      "n": 1,
      "scriptPubKey": {
        "asm": "1 8bb54b3dd41ef0cbec7e98041a81762b33b6c22b478e9f3366d6da00feb58bb4",
        "hex": "51208bb54b3dd41ef0cbec7e98041a81762b33b6c22b478e9f3366d6da00feb58bb4",
        "reqSigs": 1,
        "type": "witness_v1_scripthash",
        "addresses": [
          "3QJmnh"
        ]
      }
    }
  ],
  "blockhash": "a9a7ce638639648c5b111e15e0d4489535a11a846f6b50fba3b7e2925471654c",
  "confirmations": 1,
  "time": 1764182153,
  "blocktime": 1764182153
}