{
  "hex": "010000000001014f8d5bac24ab4bedee72c4adb276dfe3547dfedb08e5250c4017e20a44392e0b0100000000feffffff02d02296e4782d0000225120477af1e9361e10cec134e2101dfa440515caaad6291ade4d1a6e178cc00ab08b00e1f50500000000fdd5046a20ae0d42488225a751a4df9f4a37916713a3ae57f9fa70e78de7dd54c5d14553874db0046157782f3d8043ccf7faec1b294ff802642ff89776dda7654e2ec921b5f24bf64177580f1da063ecd7dacc3b096fd822440fd8b756fd87456e0ee90195d26bd62117386f7dc0038cb7baac5b690fb842246fb8d7369de7250e6e8961f5b20bb60137184f5de023ac979a8c7b492f9862044f98f716bdc7052e4ea941d5922b96e1d7f8afbd00c34c777a6c9ba9cf7882e4af7817f65d27e5ceae49a13572cb76c1f7d88f9d20e36c575a4cbb89ef58a2c48f5837d67d07c5ee8e69811552eb56a197b8effd40830c373a2cdbe98f38c2a4ef3857b61d67a58eee09e175328b3681b798cfdd60a32c171a0cfbc9af18e284cf1877963d4785aece29c15512ab166157782f3d8043ccf7faec1b294ff802642ff89776dda7654e2ec921b5f24bf64177580f1da063ecd7dacc3b096fd822440fd8b756fd87456e0ee90195d26bd62117386f7dc0038cb7baac5b690fb842246fb8d7369de7250e6e8961f5b20bb60137184f5de023ac979a8c7b492f9862044f98f716bdc7052e4ea941d5922b96e1d7f8afbd00c34c777a6c9ba9cf7882e4af7817f65d27e5ceae49a13572cb76c1f7d88f9d20e36c575a4cbb89ef58a2c48f5837d67d07c5ee8e69811552eb56a197b8effd40830c373a2cdbe98f38c2a4ef3857b61d67a58eee09e175328b3681b798cfdd60a32c171a0cfbc9af18e284cf1877963d4785aece29c15512ab166157782f3d8043ccf7faec1b294ff802642ff89776dda7654e2ec921b5f24bf64177580f1da063ecd7dacc3b096fd822440fd8b756fd87456e0ee90195d26bd62117386f7dc0038cb7baac5b690fb842246fb8d7369de7250e6e8961f5b20bb60137184f5de023ac979a8c7b492f9862044f98f716bdc7052e4ea941d5922b96e1d7f8afbd00c34c777a6c9ba9cf7882e4af7817f65d27e5ceae49a13572cb76c1f7d88f9d20e36c575a4cbb89ef58a2c48f5837d67d07c5ee8e69811552eb56a197b8effd40830c373a2cdbe98f38c2a4ef3857b61d67a58eee09e175328b3681b798cfdd60a32c171a0cfbc9af18e284cf1877963d4785aece29c15512ab166157782f3d8043ccf7faec1b294ff802642ff89776dda7654e2ec921b5f24bf64177580f1da063ecd7dacc3b096fd822440fd8b756fd87456e0ee90195d26bd62117386f7dc0038cb7baac5b690fb842246fb8d7369de7250e6e8961f5b20bb60137184f5de023ac979a8c7b492f9862044f98f716bdc7052e4ea941d5922b96e1d7f8afbd00c34c777a6c9ba9cf7882e4af7817f65d27e5ceae49a13572cb76c1f7d88f9d20e36c575a4cbb89ef58a2c48f5837d67d07c5ee8e69811552eb56a197b8effd40830c373a2cdbe98f38c2a4ef3857b61d67a58eee09e175328b3681b798cfdd60a32c171a0cfbc9af18e284cf1877963d4785aece29c15512ab166157782f3d8043ccf7faec1b294ff802642ff89776dda7654e2ec921b5f24bf64177580f1da063ecd7dacc3b096fd822440fd8b756fd87456e0ee90195d26bd62117386f7dc0038cb7baac5b690fb842246fb8d7369de7250e6e8961f5b20bb60137184f5de023ac979a8c7b492f9862044f98f716bdc7052e4ea941d5922b96e1d7f8afbd00c34c777a6c9ba9cf7882731029f048511c88d14023e43be9102d800964612ea5f1e3ca1faff9dcd48a2002fd7509d2397c7751dc7c44200e61b650c6d095747c79965141b0f9941c50a1e2b950d377a558a8f5ad320be0763313179b7b14375fad6ee5ce0ff68ae7e3938a629110793e956717c14e2828232807f1764883dc8e1c9a706d6f7fee5d003f61b11ee57c4eedddf1f4a409302302cc5c341aa19c3a15fea082d6ce375073e2b980250eca6bfe32f86f10dba26bf4a485e019fc656bf8921cd3359882d5270f4685e1613e746d81e4756161a252e979c7830aed3644f0e52d68bc14594702222baba44fae2209784fa639a375efa627d92a752958d74d9f959f078d704ed750bdab8892363d7057f04b8c489d02ddfa9a274315f88b6bd7028bad7b8e6f5b4ef9e8122c2347e081758eded4f97911c3d16c261394c0acb028447d7998e4c3981fc0863c755e5fafb0c1b8a1e84ece37ecb1e1f223dbc9166f70d2a778d9a10b408d0dabdf9eb0a473895b387074318643c7b8c63e61a14a332e7bad7858564cf371657e01a6049629df9144d7aec881fd57f6c9632b8bfe852867eb8ddbb3f8490b8c33c88cd151937c52d3863298ebddee7a289f3e014b2c714e7d71e011da8570013c07bca63c3e0a7ee21d48d44b7f6c0bf88e088755b7f4b28dcff3dec5f90196a8ec25097236c93366fb0cf6cde7930b16c1b9a9108b8a7c5e1375c56cc1a42370c1ff4f718a8e7effeae4015f8bc348fd62121b11803a2caff4d76978111e306f5b6eb6511c098095d05e7b8bd6f710cee5b601542de87423f1f160c80ae4b99e30296bd597a6b381d4309675ed25ccab6b80eec219644e088a95e934e34ba0cf51aef29ea0f30c1997c91ce0660e99ea434302e17ce79ca35e410bcc3099166ec1840f65d073306381ed3bf8d5511f60532a88f5fc9a079d3e7dd3e5f478aa052ef3c50d033ad43d4e6797a99f28c89cb250814dd8017ac0b25df1fd2f0f416ffcc4b0afcc2e140cecf93bec3e86c254e6f4e9b00fbcfb7d9d3594f16ba109e16eadd6ad2d8033b1430790a175ed134fab84294faf8f72c43443f109ed639800ebf78cc4036fb0c3bd2833121b143e2c37f3481f143fa0f386f2a6d84c529b654fb2065491c372b06bb9c46220c8b5f1db88364ce109b9516869a99b9c9474a6e90632c67059ce4ca42d1c5be45e0424df38b8953e6c978dc1f3dd53fbef85aaebf9ea75bdb76881a52eaf74c036d9308acbe7c5bdbea6f64926260e50aeeedcd77b5b3b759e22f0622fef14c7f51b27db9125a86a79a911c8dd1be8f9f1b013ca75bcfa9cf3ad6213bc33b08182f9332fb0029009e1c50285f055d259e9113c7e827948c7bd090ffa99a6f8aa75d59d310242e736294ce0ef0f7736832228d4127b5da782850057ba83b62b6775f7ac143cd25257da50b12c70aaa374a38d630e51d44eecff4bd99b1d3db527452cdd9b8ad54f47f6188408c238d3ac3fe4d1e301f70e39bc06367ede912dcfde2ec8e9294d0c420d3e3dfd37a984def05bee30e95813417b34e7d81337dc7baf08715a1a98a4e40ad053aa44ee95213d83590ae3169f78c478077d261b34183a02720e51c894ba0f5226b27357fee053f53115d23420e4535c17a107273092b55cc1c9cf9e0b06cf4cc35e7f8a794f9ca36f04c1a0bf52890409741ae31e1b5bf3e377d14b2a208e276a7a2891002ee8a9439a517f76d6a1c3cd6c87a3d5b9bf4a5e73aa8fb25043c7e34128a0db1448c209a16c0d489b52cf9a6e3dcc1462c99a851ef4588f02173f112fc8ce0c159509403cf94287f75de6a793c0ad3b61211528b895fd1565de5dffc787722ce05c6fa26b5e1fc0bb9e4e80d2360e79f1f92d32d59920dc8e8860acf0f19ce0e98898c91024f532b33a077d88ee80b42a5f4d3041e292affeb743e47b2ddc189d89575d8ee7c2265fcfe12de14cc30352869ad657547d384b3b79276d451998dde39dc44d0fe6d9ad115c3193a7cded026bf38e80f10f89c09b7286e2ce43207ac5a29d64e97a2049e39423224bdd6b449406e3c33c3cc9b4e8383cc29236570c37a49bd959f349feb3367e5b22b14cb07c83b73037d17c2d696c7486626785c4302f0fb57d7f606b78215358005cc8e9a710a99b71b9461bc0aa07129f8303bca054f1ab522449d2ab3fcf6f005bd7e3fdd6a002e7ec5dacc11bde6188e1c7271e03a8a2d4a9603ed75a6bf3092c396e86bfcfce43cb67b4b959a22d086f235947520ad911a297f12f68976b71ee61f33a0f2e10aff757766325d000eaa9c2f035aded9040545998a8f38bb436951b8c8189562e7dbab191f35bd87c5d939b1dc5e23118f4f4cf99abab8cb5337f9f7a51e04ef41065bbcb3d4567453064e4aedacb76ad1fc199362d67c46dd9bfae68df35f4ef8575c232e8a3b73a89ac7125827babb01d65a5a9ec55b8bf733c788bd6fa406311fec962e6aab0b35cf5f578c529e60a0ca95839ff07e205ed77b1db683b38340dc6ae626c357c4d042289d66ae0ba3407b842ce6f913621bebfe3bf8f22baf22d41f97c6c6bd07203e6d725d0a4747a7c55420da6465b541913d1f9566d6eeccab193f0254064e2c9076664decd8896f85a05fefea348a5a22b51d4ec3e3b336f5719a15ded62a3361435a4739378efb24d04ffa06641933cfb0872a905e9bc3da0e4279056215c0b564403cc326d6b81093326638cdd9c0dff717b8086cf0e58230731b9a2c79bb13b0fe6ecb9bf0d14b0110b55ce59d6641e1ad5471817ebaac0a96d210ba0b0858fd41404f04656caca9c37ffccc16e719c9dc270a013f8e9e1e8f8f92f80762df2e073a26124f5e66eaaad730854043d3c71c2f287eaf6883a4b299b96e17c30d900a70b66f979c37939f3af311157ca5fb2d992d32034e77b8b825d083414b4298a31632089cf3737d9045aa4885f0d8696bc1cda8698e81a37ffd6233b8549e24f807503c2df3ec1510acc0127f10c77642a7231965d01ae54833502f73f2e36019bd359d291219b68a6ffefc7c9a172b07ea2c70cb018ab27e618bac1c6cf2dc426ccc32f4c3ee90139c0204759c2ffd6ad7dcff781ce59dee1e8020097ef11be0b0b9d63d95e4383b4c92f542004d138b4c2bf5365f20f7484e7bb9e0d987fcef3d478e04358855c1f1d3e794175dd4d1e6e6356a5a8759f88a7668cc65760ab1e843a472412578b48c206b6d2c1c1c3bc9dd10d6a1e848ada74192f8cd75605aa4e5e0ef45eb971ba060bc2ad83065797b99ef341e5e01ad68440990ec34b6bf5271ed3e409f0a1d018e32cd94f4f7aed8f81c4aa1c2d6ae4474482ac309e38f82b17361d353738434b91a5c5d2fa062f35556a75888f9bd0d7dadcea2a2e36595a6b797e95a6b3b5c2d0d6050d1118616e70777c7f808185898b9294b1cee2e4fc0000000000000000000000000000000000000b19283e01fd21050038c782d712d5810df8fad351dc6949eb8a5205feeea611c83eab2e8f3d62d82d82347e4bd8b560a2da88641a487841e030ae349155f7ee22d21a67832062eb4934c8cc9ab7bca1e0aabcc2ed025faf86316a84dadeb22e4a3fd925931ed2ce0a128fb2b766702aa7791d0a033e5c817b8d11bed7c3b6f48db9530c1b70c51a6c49ef46c9c9fd41ccffaf583a338554ba4bc727f73c0b4178cf62301dc4323b4311a9c78ef43bd1713d35fd236775771173d79e2d9a78ea0c7b6269a459bafb2d40b0ff5bbfd5bef0087487d32a1b44659cb84e0fdbb8026459969bbe8d866697228eb3b2b4cb98e19056851f20732ba6cd6de21e01987060e1e65955c0b8b0999643b90454e068168ae608f568b7b10325242f44ea3f88a500fd5a9e36f1d82ccce8f98526f3253ced279a7abb2a501bacf85965f07f4400b18ed10fa344d7c4d7e2ad2d93cae493f2c29294f1ad756caae265526f48ee336f11d82ff03c2bd0fdbdde07c0f02de6bba513be35dbd7f0b57fd038cc0806d2a3ce17829ce50e3941d36f577946c3db17c92218cd8854fab35866679792cb2b4e7fdcac9da546d2ed4747dc68826f7b03c969914f21497f85612fab29066003771eec2abc0ec8acdf9339ea8b185ea63f3742cb19ed9a630816b2855bc72aa39d77733b37d6482552ea3ee1fc0b14b7bb3fd93733ce33c0df5c18cdd6dac262f02aed3583ff85b710ab494a07ef9ee829a661d66df113e12a711cf028cfa8d22f3cd10121cf10de2855dc9d865f6408ea799bc408c59144a57c24feac2ca1eeece591892846592783da57d5c9c853df7576298caad19a85c80f75939bdc1f0982d1673fd66cfeb507541b43ad55f0b6c02b15e017b9662325d567ad929b8215d10a53022f17eb279640af76604bd2f37e24642cfe379f6583c3f1b67053025e24360e24866c838cf02f1a6d5ad1c4dc0d259d95d6d60b8069cbbbc9e9c540ea252e9d23006221d21d48ec0890f815aad0b7e4b9c48b2c79df5de2fd5a46b546cf706575ffbe208b7b5210c5a1563245d7dcbea6b2a4870ae6ffa3ad3706a53f4322e30ea92ea79bed53298bbcbba79797658ad24f512c747963899b0b2bf8b5964da29b3748f3062a229217502027369e4caa739d92c37fd4c553ed94f0bf4fd1ff1815b475aa7d8b4e23d732e14aa1bd9c6260c0c6795c5f10f01d5b3f7b4a44c7a78124c402e56f5b2f49e2a087e01535737d694babfdb763f7e563c71e161511e1f6ae16edde1de13cc93520b33e5d9756ae688882aa74b167431ba15736746f4a4b5d56dbdf6a98295147b7cb257160690b566081b52429848aaa31b337dfbeaead9e9a4a008bdf2dd4ebf7ba6e6fdd87e391538f7fb21e31d049e854513083eecac53fa980e335a0fb62610c1f18cc252be959295f8f6296cfd3780bc2b34a6564647950e4d8db7ca5bb37f95595015b3981b7e2c81977afee7c50158f428824b907486cbd6d7539859f854ad0a1b175ddee5dc1472649156720bc86909962e31bc54960662831bec652eae645dc46739b2a22e69c0f7c126585517b9ff89392066bd908c21b1bb1c452be979610d22751c667f236af547f7f852df51c401f3052528bc375c430f0ae8e93770dfe73fde3e378c4f6d2e07aa02781cea1196bcefa5b466a470b0e91ccf4c718c9779f2ae17e998c91aa4412c490373e6a404e15cfe3f13d35e9309ec4ab65d068504c394ba0db6bcec803ed4e8bed40a36ed5a227e8430411cd7a32ee2cc8cdae121c5e72be0984c9586dd6ac372039224b7901ef37e66db98ad344465372921389efe9eef4ee1e3555d3c696ecc0f24362ae2d0532c40cf77d000000",
  "txid": "a6fb4592217886e61886d00e3264a7f2f0a8f0f959b36ff84551e7a3c540c0ef",
  "hash": "e1c13d6339d5ee6a3615df455d14c6f1e5839bfb39f6082452fbd936a0e0c56b",
  "size": 5085,
  "vsize": 2278,
  "version": 1,
  "locktime": 125,
  "vin": [
    {
      "txid": "0b2e39440ae217400c25e508dbfe7d54e3df76b2adc472eeed4bab24ac5b8d4f",
      "vout": 1,
      "scriptSig": {
        "asm": "",
        "hex": ""
      },
      "txinwitness": [
        "d2397c7751dc7c44200e61b650c6d095747c79965141b0f9941c50a1e2b950d377a558a8f5ad320be0763313179b7b14375fad6ee5ce0ff68ae7e3938a629110793e956717c14e2828232807f1764883dc8e1c9a706d6f7fee5d003f61b11ee57c4eedddf1f4a409302302cc5c341aa19c3a15fea082d6ce375073e2b980250eca6bfe32f86f10dba26bf4a485e019fc656bf8921cd3359882d5270f4685e1613e746d81e4756161a252e979c7830aed3644f0e52d68bc14594702222baba44fae2209784fa639a375efa627d92a752958d74d9f959f078d704ed750bdab8892363d7057f04b8c489d02ddfa9a274315f88b6bd7028bad7b8e6f5b4ef9e8122c2347e081758eded4f97911c3d16c261394c0acb028447d7998e4c3981fc0863c755e5fafb0c1b8a1e84ece37ecb1e1f223dbc9166f70d2a778d9a10b408d0dabdf9eb0a473895b387074318643c7b8c63e61a14a332e7bad7858564cf371657e01a6049629df9144d7aec881fd57f6c9632b8bfe852867eb8ddbb3f8490b8c33c88cd151937c52d3863298ebddee7a289f3e014b2c714e7d71e011da8570013c07bca63c3e0a7ee21d48d44b7f6c0bf88e088755b7f4b28dcff3dec5f90196a8ec25097236c93366fb0cf6cde7930b16c1b9a9108b8a7c5e1375c56cc1a42370c1ff4f718a8e7effeae4015f8bc348fd62121b11803a2caff4d76978111e306f5b6eb6511c098095d05e7b8bd6f710cee5b601542de87423f1f160c80ae4b99e30296bd597a6b381d4309675ed25ccab6b80eec219644e088a95e934e34ba0cf51aef29ea0f30c1997c91ce0660e99ea434302e17ce79ca35e410bcc3099166ec1840f65d073306381ed3bf8d5511f60532a88f5fc9a079d3e7dd3e5f478aa052ef3c50d033ad43d4e6797a99f28c89cb250814dd8017ac0b25df1fd2f0f416ffcc4b0afcc2e140cecf93bec3e86c254e6f4e9b00fbcfb7d9d3594f16ba109e16eadd6ad2d8033b1430790a175ed134fab84294faf8f72c43443f109ed639800ebf78cc4036fb0c3bd2833121b143e2c37f3481f143fa0f386f2a6d84c529b654fb2065491c372b06bb9c46220c8b5f1db88364ce109b9516869a99b9c9474a6e90632c67059ce4ca42d1c5be45e0424df38b8953e6c978dc1f3dd53fbef85aaebf9ea75bdb76881a52eaf74c036d9308acbe7c5bdbea6f64926260e50aeeedcd77b5b3b759e22f0622fef14c7f51b27db9125a86a79a911c8dd1be8f9f1b013ca75bcfa9cf3ad6213bc33b08182f9332fb0029009e1c50285f055d259e9113c7e827948c7bd090ffa99a6f8aa75d59d310242e736294ce0ef0f7736832228d4127b5da782850057ba83b62b6775f7ac143cd25257da50b12c70aaa374a38d630e51d44eecff4bd99b1d3db527452cdd9b8ad54f47f6188408c238d3ac3fe4d1e301f70e39bc06367ede912dcfde2ec8e9294d0c420d3e3dfd37a984def05bee30e95813417b34e7d81337dc7baf08715a1a98a4e40ad053aa44ee95213d83590ae3169f78c478077d261b34183a02720e51c894ba0f5226b27357fee053f53115d23420e4535c17a107273092b55cc1c9cf9e0b06cf4cc35e7f8a794f9ca36f04c1a0bf52890409741ae31e1b5bf3e377d14b2a208e276a7a2891002ee8a9439a517f76d6a1c3cd6c87a3d5b9bf4a5e73aa8fb25043c7e34128a0db1448c209a16c0d489b52cf9a6e3dcc1462c99a851ef4588f02173f112fc8ce0c159509403cf94287f75de6a793c0ad3b61211528b895fd1565de5dffc787722ce05c6fa26b5e1fc0bb9e4e80d2360e79f1f92d32d59920dc8e8860acf0f19ce0e98898c91024f532b33a077d88ee80b42a5f4d3041e292affeb743e47b2ddc189d89575d8ee7c2265fcfe12de14cc30352869ad657547d384b3b79276d451998dde39dc44d0fe6d9ad115c3193a7cded026bf38e80f10f89c09b7286e2ce43207ac5a29d64e97a2049e39423224bdd6b449406e3c33c3cc9b4e8383cc29236570c37a49bd959f349feb3367e5b22b14cb07c83b73037d17c2d696c7486626785c4302f0fb57d7f606b78215358005cc8e9a710a99b71b9461bc0aa07129f8303bca054f1ab522449d2ab3fcf6f005bd7e3fdd6a002e7ec5dacc11bde6188e1c7271e03a8a2d4a9603ed75a6bf3092c396e86bfcfce43cb67b4b959a22d086f235947520ad911a297f12f68976b71ee61f33a0f2e10aff757766325d000eaa9c2f035aded9040545998a8f38bb436951b8c8189562e7dbab191f35bd87c5d939b1dc5e23118f4f4cf99abab8cb5337f9f7a51e04ef41065bbcb3d4567453064e4aedacb76ad1fc199362d67c46dd9bfae68df35f4ef8575c232e8a3b73a89ac7125827babb01d65a5a9ec55b8bf733c788bd6fa406311fec962e6aab0b35cf5f578c529e60a0ca95839ff07e205ed77b1db683b38340dc6ae626c357c4d042289d66ae0ba3407b842ce6f913621bebfe3bf8f22baf22d41f97c6c6bd07203e6d725d0a4747a7c55420da6465b541913d1f9566d6eeccab193f0254064e2c9076664decd8896f85a05fefea348a5a22b51d4ec3e3b336f5719a15ded62a3361435a4739378efb24d04ffa06641933cfb0872a905e9bc3da0e4279056215c0b564403cc326d6b81093326638cdd9c0dff717b8086cf0e58230731b9a2c79bb13b0fe6ecb9bf0d14b0110b55ce59d6641e1ad5471817ebaac0a96d210ba0b0858fd41404f04656caca9c37ffccc16e719c9dc270a013f8e9e1e8f8f92f80762df2e073a26124f5e66eaaad730854043d3c71c2f287eaf6883a4b299b96e17c30d900a70b66f979c37939f3af311157ca5fb2d992d32034e77b8b825d083414b4298a31632089cf3737d9045aa4885f0d8696bc1cda8698e81a37ffd6233b8549e24f807503c2df3ec1510acc0127f10c77642a7231965d01ae54833502f73f2e36019bd359d291219b68a6ffefc7c9a172b07ea2c70cb018ab27e618bac1c6cf2dc426ccc32f4c3ee90139c0204759c2ffd6ad7dcff781ce59dee1e8020097ef11be0b0b9d63d95e4383b4c92f542004d138b4c2bf5365f20f7484e7bb9e0d987fcef3d478e04358855c1f1d3e794175dd4d1e6e6356a5a8759f88a7668cc65760ab1e843a472412578b48c206b6d2c1c1c3bc9dd10d6a1e848ada74192f8cd75605aa4e5e0ef45eb971ba060bc2ad83065797b99ef341e5e01ad68440990ec34b6bf5271ed3e409f0a1d018e32cd94f4f7aed8f81c4aa1c2d6ae4474482ac309e38f82b17361d353738434b91a5c5d2fa062f35556a75888f9bd0d7dadcea2a2e36595a6b797e95a6b3b5c2d0d6050d1118616e70777c7f808185898b9294b1cee2e4fc0000000000000000000000000000000000000b19283e01",
        "0038c782d712d5810df8fad351dc6949eb8a5205feeea611c83eab2e8f3d62d82d82347e4bd8b560a2da88641a487841e030ae349155f7ee22d21a67832062eb4934c8cc9ab7bca1e0aabcc2ed025faf86316a84dadeb22e4a3fd925931ed2ce0a128fb2b766702aa7791d0a033e5c817b8d11bed7c3b6f48db9530c1b70c51a6c49ef46c9c9fd41ccffaf583a338554ba4bc727f73c0b4178cf62301dc4323b4311a9c78ef43bd1713d35fd236775771173d79e2d9a78ea0c7b6269a459bafb2d40b0ff5bbfd5bef0087487d32a1b44659cb84e0fdbb8026459969bbe8d866697228eb3b2b4cb98e19056851f20732ba6cd6de21e01987060e1e65955c0b8b0999643b90454e068168ae608f568b7b10325242f44ea3f88a500fd5a9e36f1d82ccce8f98526f3253ced279a7abb2a501bacf85965f07f4400b18ed10fa344d7c4d7e2ad2d93cae493f2c29294f1ad756caae265526f48ee336f11d82ff03c2bd0fdbdde07c0f02de6bba513be35dbd7f0b57fd038cc0806d2a3ce17829ce50e3941d36f577946c3db17c92218cd8854fab35866679792cb2b4e7fdcac9da546d2ed4747dc68826f7b03c969914f21497f85612fab29066003771eec2abc0ec8acdf9339ea8b185ea63f3742cb19ed9a630816b2855bc72aa39d77733b37d6482552ea3ee1fc0b14b7bb3fd93733ce33c0df5c18cdd6dac262f02aed3583ff85b710ab494a07ef9ee829a661d66df113e12a711cf028cfa8d22f3cd10121cf10de2855dc9d865f6408ea799bc408c59144a57c24feac2ca1eeece591892846592783da57d5c9c853df7576298caad19a85c80f75939bdc1f0982d1673fd66cfeb507541b43ad55f0b6c02b15e017b9662325d567ad929b8215d10a53022f17eb279640af76604bd2f37e24642cfe379f6583c3f1b67053025e24360e24866c838cf02f1a6d5ad1c4dc0d259d95d6d60b8069cbbbc9e9c540ea252e9d23006221d21d48ec0890f815aad0b7e4b9c48b2c79df5de2fd5a46b546cf706575ffbe208b7b5210c5a1563245d7dcbea6b2a4870ae6ffa3ad3706a53f4322e30ea92ea79bed53298bbcbba79797658ad24f512c747963899b0b2bf8b5964da29b3748f3062a229217502027369e4caa739d92c37fd4c553ed94f0bf4fd1ff1815b475aa7d8b4e23d732e14aa1bd9c6260c0c6795c5f10f01d5b3f7b4a44c7a78124c402e56f5b2f49e2a087e01535737d694babfdb763f7e563c71e161511e1f6ae16edde1de13cc93520b33e5d9756ae688882aa74b167431ba15736746f4a4b5d56dbdf6a98295147b7cb257160690b566081b52429848aaa31b337dfbeaead9e9a4a008bdf2dd4ebf7ba6e6fdd87e391538f7fb21e31d049e854513083eecac53fa980e335a0fb62610c1f18cc252be959295f8f6296cfd3780bc2b34a6564647950e4d8db7ca5bb37f95595015b3981b7e2c81977afee7c50158f428824b907486cbd6d7539859f854ad0a1b175ddee5dc1472649156720bc86909962e31bc54960662831bec652eae645dc46739b2a22e69c0f7c126585517b9ff89392066bd908c21b1bb1c452be979610d22751c667f236af547f7f852df51c401f3052528bc375c430f0ae8e93770dfe73fde3e378c4f6d2e07aa02781cea1196bcefa5b466a470b0e91ccf4c718c9779f2ae17e998c91aa4412c490373e6a404e15cfe3f13d35e9309ec4ab65d068504c394ba0db6bcec803ed4e8bed40a36ed5a227e8430411cd7a32ee2cc8cdae121c5e72be0984c9586dd6ac372039224b7901ef37e66db98ad344465372921389efe9eef4ee1e3555d3c696ecc0f24362ae2d0532c40cf7"
      ],
      "sequence": 4294967294
    }
  ],
  "vout": [
    {
      "value": 499972.5437,
      "n": 0,
      "scriptPubKey": {
        "asm": "1 477af1e9361e10cec134e2101dfa440515caaad6291ade4d1a6e178cc00ab08b",
        "hex": "5120477af1e9361e10cec134e2101dfa440515caaad6291ade4d1a6e178cc00ab08b",
        "reqSigs": 1,
        "type": "witness_v1_scripthash",
        "addresses": [
          "3QJmnh"
        ]
      }
    },
    {
      "value": 1.0,
      "n": 1,
      "scriptPubKey": {
        "asm": "OP_RETURN ae0d42488225a751a4df9f4a37916713a3ae57f9fa70e78de7dd54c5d1455387 6157782f3d8043ccf7faec1b294ff802642ff89776dda7654e2ec921b5f24bf64177580f1da063ecd7dacc3b096fd822440fd8b756fd87456e0ee90195d26bd62117386f7dc0038cb7baac5b690fb842246fb8d7369de7250e6e8961f5b20bb60137184f5de023ac979a8c7b492f9862044f98f716bdc7052e4ea941d5922b96e1d7f8afbd00c34c777a6c9ba9cf7882e4af7817f65d27e5ceae49a13572cb76c1f7d88f9d20e36c575a4cbb89ef58a2c48f5837d67d07c5ee8e69811552eb56a197b8effd40830c373a2cdbe98f38c2a4ef3857b61d67a58eee09e175328b3681b798cfdd60a32c171a0cfbc9af18e284cf1877963d4785aece29c15512ab166157782f3d8043ccf7faec1b294ff802642ff89776dda7654e2ec921b5f24bf64177580f1da063ecd7dacc3b096fd822440fd8b756fd87456e0ee90195d26bd62117386f7dc0038cb7baac5b690fb842246fb8d7369de7250e6e8961f5b20bb60137184f5de023ac979a8c7b492f9862044f98f716bdc7052e4ea941d5922b96e1d7f8afbd00c34c777a6c9ba9cf7882e4af7817f65d27e5ceae49a13572cb76c1f7d88f9d20e36c575a4cbb89ef58a2c48f5837d67d07c5ee8e69811552eb56a197b8effd40830c373a2cdbe98f38c2a4ef3857b61d67a58eee09e175328b3681b798cfdd60a32c171a0cfbc9af18e284cf1877963d4785aece29c15512ab166157782f3d8043ccf7faec1b294ff802642ff89776dda7654e2ec921b5f24bf64177580f1da063ecd7dacc3b096fd822440fd8b756fd87456e0ee90195d26bd62117386f7dc0038cb7baac5b690fb842246fb8d7369de7250e6e8961f5b20bb60137184f5de023ac979a8c7b492f9862044f98f716bdc7052e4ea941d5922b96e1d7f8afbd00c34c777a6c9ba9cf7882e4af7817f65d27e5ceae49a13572cb76c1f7d88f9d20e36c575a4cbb89ef58a2c48f5837d67d07c5ee8e69811552eb56a197b8effd40830c373a2cdbe98f38c2a4ef3857b61d67a58eee09e175328b3681b798cfdd60a32c171a0cfbc9af18e284cf1877963d4785aece29c15512ab166157782f3d8043ccf7faec1b294ff802642ff89776dda7654e2ec921b5f24bf64177580f1da063ecd7dacc3b096fd822440fd8b756fd87456e0ee90195d26bd62117386f7dc0038cb7baac5b690fb842246fb8d7369de7250e6e8961f5b20bb60137184f5de023ac979a8c7b492f9862044f98f716bdc7052e4ea941d5922b96e1d7f8afbd00c34c777a6c9ba9cf7882e4af7817f65d27e5ceae49a13572cb76c1f7d88f9d20e36c575a4cbb89ef58a2c48f5837d67d07c5ee8e69811552eb56a197b8effd40830c373a2cdbe98f38c2a4ef3857b61d67a58eee09e175328b3681b798cfdd60a32c171a0cfbc9af18e284cf1877963d4785aece29c15512ab166157782f3d8043ccf7faec1b294ff802642ff89776dda7654e2ec921b5f24bf64177580f1da063ecd7dacc3b096fd822440fd8b756fd87456e0ee90195d26bd62117386f7dc0038cb7baac5b690fb842246fb8d7369de7250e6e8961f5b20bb60137184f5de023ac979a8c7b492f9862044f98f716bdc7052e4ea941d5922b96e1d7f8afbd00c34c777a6c9ba9cf7882731029f048511c88d14023e43be9102d800964612ea5f1e3ca1faff9dcd48a20",
        "hex": "6a20ae0d42488225a751a4df9f4a37916713a3ae57f9fa70e78de7dd54c5d14553874db0046157782f3d8043ccf7faec1b294ff802642ff89776dda7654e2ec921b5f24bf64177580f1da063ecd7dacc3b096fd822440fd8b756fd87456e0ee90195d26bd62117386f7dc0038cb7baac5b690fb842246fb8d7369de7250e6e8961f5b20bb60137184f5de023ac979a8c7b492f9862044f98f716bdc7052e4ea941d5922b96e1d7f8afbd00c34c777a6c9ba9cf7882e4af7817f65d27e5ceae49a13572cb76c1f7d88f9d20e36c575a4cbb89ef58a2c48f5837d67d07c5ee8e69811552eb56a197b8effd40830c373a2cdbe98f38c2a4ef3857b61d67a58eee09e175328b3681b798cfdd60a32c171a0cfbc9af18e284cf1877963d4785aece29c15512ab166157782f3d8043ccf7faec1b294ff802642ff89776dda7654e2ec921b5f24bf64177580f1da063ecd7dacc3b096fd822440fd8b756fd87456e0ee90195d26bd62117386f7dc0038cb7baac5b690fb842246fb8d7369de7250e6e8961f5b20bb60137184f5de023ac979a8c7b492f9862044f98f716bdc7052e4ea941d5922b96e1d7f8afbd00c34c777a6c9ba9cf7882e4af7817f65d27e5ceae49a13572cb76c1f7d88f9d20e36c575a4cbb89ef58a2c48f5837d67d07c5ee8e69811552eb56a197b8effd40830c373a2cdbe98f38c2a4ef3857b61d67a58eee09e175328b3681b798cfdd60a32c171a0cfbc9af18e284cf1877963d4785aece29c15512ab166157782f3d8043ccf7faec1b294ff802642ff89776dda7654e2ec921b5f24bf64177580f1da063ecd7dacc3b096fd822440fd8b756fd87456e0ee90195d26bd62117386f7dc0038cb7baac5b690fb842246fb8d7369de7250e6e8961f5b20bb60137184f5de023ac979a8c7b492f9862044f98f716bdc7052e4ea941d5922b96e1d7f8afbd00c34c777a6c9ba9cf7882e4af7817f65d27e5ceae49a13572cb76c1f7d88f9d20e36c575a4cbb89ef58a2c48f5837d67d07c5ee8e69811552eb56a197b8effd40830c373a2cdbe98f38c2a4ef3857b61d67a58eee09e175328b3681b798cfdd60a32c171a0cfbc9af18e284cf1877963d4785aece29c15512ab166157782f3d8043ccf7faec1b294ff802642ff89776dda7654e2ec921b5f24bf64177580f1da063ecd7dacc3b096fd822440fd8b756fd87456e0ee90195d26bd62117386f7dc0038cb7baac5b690fb842246fb8d7369de7250e6e8961f5b20bb60137184f5de023ac979a8c7b492f9862044f98f716bdc7052e4ea941d5922b96e1d7f8afbd00c34c777a6c9ba9cf7882e4af7817f65d27e5ceae49a13572cb76c1f7d88f9d20e36c575a4cbb89ef58a2c48f5837d67d07c5ee8e69811552eb56a197b8effd40830c373a2cdbe98f38c2a4ef3857b61d67a58eee09e175328b3681b798cfdd60a32c171a0cfbc9af18e284cf1877963d4785aece29c15512ab166157782f3d8043ccf7faec1b294ff802642ff89776dda7654e2ec921b5f24bf64177580f1da063ecd7dacc3b096fd822440fd8b756fd87456e0ee90195d26bd62117386f7dc0038cb7baac5b690fb842246fb8d7369de7250e6e8961f5b20bb60137184f5de023ac979a8c7b492f9862044f98f716bdc7052e4ea941d5922b96e1d7f8afbd00c34c777a6c9ba9cf7882731029f048511c88d14023e43be9102d800964612ea5f1e3ca1faff9dcd48a20",
        "type": "nulldata"
      }
    }
  ],
  "blockhash": "e6a4adf54726245f4c34283d217923918cb1557d6baaa77edf2bc72597605551",
  "confirmations": 1,
  "time": 1764181118,
  "blocktime": 1764181118
}