{
  "hex": "01000000000101fe775c144d188d7858fa050a5132214c5063c9b242155405ed3d9f770e53c8f80100000000feffffff0200e1f50500000000fdd5046a2098fca8c6b6146cdf9924cf761439d11dd9a42853966b71cff759f56cfde3bc144db00437891d61a4d1ee3822be5f02ca3e9762a5144fee32001c90f3a9e83bb48403fc17a93d4184f1ce18029e7f22ea1eb74285346fce12203cb0d389c81b94a423dc77c95d21e491ae7862fe1f428a7ed722e5540fae72405cd0b3e9a87bf4c443bc57e97d01c4b18e5842de3f62aa5ef702c5742f8e52607cf093c9885bd4e4639cb7099de124516eb8a23edf824abe17e22594cf6eb2809c10732968bb3404837c9729bdc104714e98821effa26a9e37c205b4ef4e92a0bc305309489b1424a35cf749dda164112ef8e27e9fc20afe57a265d48f2ef2c0dc50336928fb7444c33cd769fd8144310ed8c25ebfe22ade778245f4af0ed2e0fc70134908db5464e31c37891d61a4d1ee3822be5f02ca3e9762a5144fee32001c90f3a9e83bb48403fc17a93d4184f1ce18029e7f22ea1eb74285346fce12203cb0d389c81b94a423dc77c95d21e491ae7862fe1f428a7ed722e5540fae72405cd0b3e9a87bf4c443bc57e97d01c4b18e5842de3f62aa5ef702c5742f8e52607cf093c9885bd4e4639cb7099de124516eb8a23edf824abe17e22594cf6eb2809c10732968bb3404837c9729bdc104714e98821effa26a9e37c205b4ef4e92a0bc305309489b1424a35cf749dda164112ef8e27e9fc20afe57a265d48f2ef2c0dc50336928fb7444c33cd769fd8144310ed8c25ebfe22ade778245f4af0ed2e0fc70134908db5464e31c37891d61a4d1ee3822be5f02ca3e9762a5144fee32001c90f3a9e83bb48403fc17a93d4184f1ce18029e7f22ea1eb74285346fce12203cb0d389c81b94a423dc77c95d21e491ae7862fe1f428a7ed722e5540fae72405cd0b3e9a87bf4c443bc57e97d01c4b18e5842de3f62aa5ef702c5742f8e52607cf093c9885bd4e4639cb7099de124516eb8a23edf824abe17e22594cf6eb2809c10732968bb3404837c9729bdc104714e98821effa26a9e37c205b4ef4e92a0bc305309489b1424a35cf749dda164112ef8e27e9fc20afe57a265d48f2ef2c0dc50336928fb7444c33cd769fd8144310ed8c25ebfe22ade778245f4af0ed2e0fc70134908db5464e31c37891d61a4d1ee3822be5f02ca3e9762a5144fee32001c90f3a9e83bb48403fc17a93d4184f1ce18029e7f22ea1eb74285346fce12203cb0d389c81b94a423dc77c95d21e491ae7862fe1f428a7ed722e5540fae72405cd0b3e9a87bf4c443bc57e97d01c4b18e5842de3f62aa5ef702c5742f8e52607cf093c9885bd4e4639cb7099de124516eb8a23edf824abe17e22594cf6eb2809c10732968bb3404837c9729bdc104714e98821effa26a9e37c205b4ef4e92a0bc305309489b1424a35cf749dda164112ef8e27e9fc20afe57a265d48f2ef2c0dc50336928fb7444c33cd769fd8144310ed8c25ebfe22ade778245f4af0ed2e0fc70134908db5464e31c37891d61a4d1ee3822be5f02ca3e9762a5144fee32001c90f3a9e83bb48403fc17a93d4184f1ce18029e7f22ea1eb74285346fce12203cb0d389c81b94a423dc77c95d21e491ae7862fe1f428a7ed722e5540fae72405cd0b3e9a87bf4c443bc57e97d01c4b18e5842de3f62aa5ef702c5742f8e52607cf093c9885bd4e4639cb7099de124516eb8a23edf824abe17e229c495908bf58da4a6365abc0c624b94bc714344970d9f36687019fa16909a3400ce47c6782d000022512083bec523f5b713582f0b45af7f8c6ca3e65481be1bcea865a87859e929c1b9c402fd7509850bc7bfaf19cac6f1d712ceb854613cfac6ffd6c2e8c51bafcb8b4c9671b1e1c9af44999b8a91cb33fa649b78b1438db4057ccaf94173f2f49389ffc8aee135dea3c1e47f07f4400ff3b1048b8f26f9b23d169030bc76140c36cbc07dfbb9f5be1894ac628afec32a69c8c281bdeea73652448330c598e9fe8c20294f605d18cd5c332f1b7d8526e48bc061e35f0e1ce3ccad9b4acb50c18d65854b08bf18795c69e5330910259b2aa7f4ab38e120b100c4a23ce155d3f8a14e7bb6f85f20719ee942edf12aeb1aae5b0606d570c19ec0f4cf5c84c8792d418876c521a54942825a71810e0fd8492c9c4c8bf5b9272057f8c0a2dcc8f54fdec90378e5160d4137bacee8e605ed5d2a6f61dffc02e5c2a0b6269deb474d14bc17e5c23cbe01014c19e3d8d033bde61bb5936164fed96ef7d649068e116b3dc540458cdf95b3f5c43a771bef93bdbe18a5c3b1ad4bf7b6bd785f2ac8290c8556e7cd1c7bb2b47a381cde15c13be550c99853f0aef36f2718ffa8cddcc22124bd2c87b789dfb0263ff328e7141f5574fc00438bc6f2b03258c4b351efe1db5d9e40ff75f819ecc2b8560e4b949acfb560b2ce7e67c52d9c998c838284cdf8bf5402f3f4a03a7faa05274ae73dae131e3343074916072bded4c397ac4cb7edcb9a84965af2afab0ac3cfb05b7af26fb389957e7a97a4ff070d1a0740d5cac78b7fac6a7112751b57deef6b0de5d8019d80f10f477d78ce95084d19d9029ec150e95e8c5a3f2c33e5ff911062b482d95bd3266e7e2e4cdf3e3c08945923ff42f3efc2857a25ff703accf6e53ed6342f9ac1aff98adca7d55783fe982ad6cddd858574325be84e7d44758ff19d736cf53b8927ef71a0e86733a1c8c620b63ad7ebd55b8eaaa2635ea576c904d9a23baaf9c3bdcbca2508cf0fd9c91f821f7dca3ff2830d27aceee54a5ea0a71d9c3c72ebe3470a8c394d041f445dc9f91140b919e2c2090c2bdefb5f7595352b771d49e8e066b068be312552225a548c515e3a72a7a7a740a3e95c33655920273f84a8f26ea2b04e70364cf2ab24fa0c7fbf8c93ad08b04efc7a08dcd60a1736852a7f0187fe9d173a847653cb83cd44ff87d9eaeb80026ae8e70a8930cdbd12cc0441c577a21accc2a9af2f0bd1ac1bc7f829cd099fd5cf6e1d8b66450f6aa67b4ce82672ac8b586a1d1f2f3608e2afd223b5b6f0540ea00c76d1a53876f9a738e14adeb96e38ae0b2abe4fcf9439f2aa9eaa247c9426d4c6a5e96a9fdd884819e4bc459c2231121b11792b21d86a36a2d910e2c604708fe8883c8f1242ea8011abe23fe4d3420169fedd671458c6ef0e6fe9a05b70f33d583b8450f9152f12753b4ec6c07b380312fd3ea44adc7175786aea991bf02c4c311ab914ffd71a93657c89443619edb821366dcad6ef3854380b930250965737e82d1f9f6fd86351c440d25ef26115178e5247d8ccc73085331ecf449ec9cd952bcd9c31c7b6dc46bd25f11e93e4e6e0ec958f9d9d8509a9d6cc77ade3dc80027400dc51e9b3aaef90090abd7220b78be8da55ff1ec8c3bb8c0a5e39c4844506a70129c5532cca2a46a70ef80911cfc362db527762ff760e1f1168ba1535f9fdfa9419dc3dd87439625df2e103a1add43de92a6b6f5e40878417ac23ecc054461a38d558edf6fbe4c6790a4c0d0d434d53dcf3d0667c4706ae970c895498f6d459f3f627db98f27c416c103890a949a7e81a6d7fd769a7283456fb16d34c609d95f94dc99ddfd5d29e14c138f70c79064efdc30c4d4ff6eba91af051e67539c574ec95b16465cd61d048cb434751699b17a2b939eae53e4226cac9244ffb5cffe036ed00beccf7f02a2e15764921acaf828ec51dbc41a48c24c745d0778db617d04d4cec87fc2604a73131bf83276c6fbf7fb4c4614a396f1258598b652a2832d09519e24ff328afb0e312989c93e25c05d8b244732fff8236bd7ac7e851f33b423d1af31b886a054540cc32c8d85473a01e9ab6b4a79b0d2bb117fe0967a4ac6d3eb1223d5bfde54dcd762bb4cf77aff19bd5867afc958694845bea579e43d0e07928bc45ba75b29d058d0936ebbafcd4a539b5dac94827af841648a76dcdf1cdcd1f761310aa016ac6d9c753774467f3a61b44b162fda02846587b6706a2bcde861a93f3ddddb0af9ec7d904ea11a3c0f74b71c5f75cb220afb1de4c75b4cb7278172719784e614fc89b0e0c9fef2c95930b564ec7ac2455f98e9dfda7de148fe834306f1159f75c802e79dbabf7a1bb3a8c7ead01cb75bc026ab2ef04f4938696618f647635239b94370360e7cb46fd508e2c7469ce2a253950fd30bdb419c3b927f6c24b3f771adfcc8495215315de5cba171f35dfeebc3410f25ad0d12c502e805cd3645d57c34fcf10603a8330cbedaa08d7683bcde5ec8acc326069b01d876f3dfb79261467356133ab80c226e669f81149761c2262d5c46830b94a7f72afa6eae84696af6ea89c487c5612530d68c7cfa0313a735719b6839f8ead07f2db241e99d45cf29d71d0659132c635d3c9f2972beb9c9b116216f949d2595a4773b305acadfe408790db9b74d3bbd2277e91db56ddbc9a063e3131e47e5e0cf42489d1275cf6323eb756e05507713032c1a701d2cad915ea05890361aa1af38b907352222740f62b9ed5762cc993dc7483f6fb51e9059798bb24fca27286e1fa0ff1655456447de47c8b27324390fee2f2d406c10f3bbd290dd43b63d5e53ec24cd0d906e15c4bfb364ccd49fe3ed9202c5bd925a5ef28de65ab5f7a72eb518077c4abd276f1493e60e73ee04d0a83103db3efde526399f797605a2130c06aa442ff2d4769cc27980d61e6fb7ab95f1cd03088775a9b69b6503938cc0ab458db8f5acc8e219dcdd40141ea305896cfed21697f86669cb85c7af4a9a81849dba92e79f5d60dbab52e75c19ca7c93fb4164cf2429e5b9f00c0f83ed5f35cfc63c481c0b592d110c2ad42a19a903fc688712b1563d108ea8760d79c5040a6b974d8fffc4a40491a58ac60d536150f09d20a8b1733e086b5d5067b5162b32eb256686014a4039a9006ed3b0f56c1eabcf961276cc6837b09e3714f2c583a8f484c5a2e3d87bbee509924bb4cea2577cbd9cadc8c2dc77f8f8d19d15359730a084704a6b3c9836ac56c8dc046b2cfb63cce3d0b7f5d9cd7621f38f30c0b556103ea2c19217f0978e6f68b98c6c241bd514fb9355e3b61ffe10b5afde52d1f23536c381eca0d09e31b77ca189695958f71e30f2a8fa80c1cc0ce422292f0882543ddbe484ce804102d3e42484c5f606871748a93bec6c9e5fb101316232a384a50617094c1d5dfff161d2d484a535c6163777a92d2d8e9eaf3171821242f374f75818f9197a2a6adb2c0d5f4fa0000000000000000001322334701fd21050035f7d9f00d4e332de4574b53f7f1e0180afa742d851512ac864a72a780659afe772603c4f65958189fbf3dc6c4777a15920a9c172ed5765e30a6fb39bb1a0ac3185b9d906b0c9daf05766c95782d1705ef5afbb16b82bb4de668892248e1e30c8be1415d58978ff8a0986b53c419b733eef31139cee86379fea9f30742f131ead5282be63647e08ad3a2d1db8f2c7828331105226ed239fffdb693ae6427bcd7c21ec239dffe6338b4aa94e8f41805ad82c01470dc7451de4d9a4484c8f04d5676a09a7d929bee61de127880032e9c6e9cf31db53eb5ae4c99bae958fd3ea728d0547b355f1813afe431b1078f8a2bb7956e86be2bb83a8bc00bbad15c71cd68b25ba9a1931bdd36212f2501c8fc87e8d02c57861a8ad9e2e426bbe7c151144fc964534e47cdec0926f6d90898df8cd6b677989449d9e019b209529ecc75f6f9e2975f5c9b893bf9c79ce762b954a93bd5abb2a4338fa21e8350d6807bb6b29a3a3b6a232e2ed4c9fd73c4beb6bbc87e6e6c980a16328527363f9c48a2da8953cfa36770a643ba8086c3abf94ab0b5a0ae1aa63e6d5c67f129b8662da96b8889dd002a91d077eb37ccb923c28dd3510a70ce42cbef1368642e8195c553d0e9f2527e0e13590c5099725946b5351276df9b0fc96daad748f2f434e9ec6f79876d5d390895c94711f0cfb1b9b1c8488aa60ea40be5195bd712189ef8d194918a371511a0dda76ce0a1228f5bb5924c2a64ea7a003894d3b5fec9dc39383bda2ca825fd253f3c452e55e80c78ea652290b99d2ae5e877b75a5e32ea37746152d29abe26ac33cf454a61a7c9dc10b1b6df695bae82c7dd396886762b4d4e52672d228cb61b8737a94e5ddc9292a732c111ae3ee1c0de7ba7493c385bfd5ec695ad6078c27f105e1ec70f2a168d17ef1785b9d89b53437113c70e30ddcaf6a622ccfccbfb5702f35c736e5c64a59923252ea0559f85eb2f3eeccdaa723eb1a3ebf6c5325a86bf39223c9472ababff5ac6b23063bd56941a98a55dd4cd0b67be7988ec8d0228bcf80b4db346786789188664c993aa74766252195a8080ab77d38e11a8684270fb48c671ecca0d73c760b7c39fb3b138c223e3979792f717f50d4edfc61585e4d655bb2fd195a2a6e42098eac70b8914c793def8a62944ce7199b2a68ee488bce168d37df0bad42050f6aee1e0c77848a7800ba6b8c88622347ec5c019a636354b823f4f3bc6cfb06f690c44c5261f18ce9a40ccc75917ea41dfd506f6dad4947ad96ac5ce903795522f8ddb46fc2560b6bee3d1c84b94f5277dffda49d1cb05e9adff9bd803a09a49330cdac6d0d413f9f09fca60ed08c55529aac77e99245d5367b5c57645e83c40c082abbc976b6a16899700b028165ef7c9ee25ebd1c6d4d7342effd51bc1c1463a1a82b40825a1f43a649701b34ca20a03609b19392113c2e34a518376fa61239d2f5c6b1dfc1d84063e8402ff5a5d9a6bb5d01c7cc822d9efbd3b73fd64d7e7b5dfe2cf688be29ca69c7241df96c7edaa3d8d13c4cd46322f35746a71bf66c4685692761f2be42b2c90ca33c694cdf589f0673b25e42c07b45c3211c3d779456c5e944fb42fbcbf5a4317628203d71bac2a79e01446b110fa8f0d94234f904724c51c20710979129d8b6e71094c8a473320329f535e0eb2299c415e8ec5a9119041dde90dff8d058d37f0b39f69b6f168377da7e82d60faca9bb06ee44f2c7413a05739a09c2529202e70d68d197a03ab46ab7e8d98b6417c86c22734ff75b0edee357efba23005a944615aff4c681797e285251d626a93ee2773e84aa3e60980d8e35df2a26628b780ae4c0cf5a8bc1dea126181000000",
  "txid": "a06b60ca2beacc2ad19c86ad111bb64c8f33169ca72259f9208bd1779f0c5294",
  "hash": "336d2033702daaef1405671541a3aac60e658837a05515bb3b0026def3977604",
  "size": 5085,
  "vsize": 2278,
  "version": 1,
  "locktime": 129,
  "vin": [
    {
      "txid": "f8c8530e779f3ded05541542b2c963504c2132510a05fa58788d184d145c77fe",
      "vout": 1,
      "scriptSig": {
        "asm": "",
        "hex": ""
      },
      "txinwitness": [
        "850bc7bfaf19cac6f1d712ceb854613cfac6ffd6c2e8c51bafcb8b4c9671b1e1c9af44999b8a91cb33fa649b78b1438db4057ccaf94173f2f49389ffc8aee135dea3c1e47f07f4400ff3b1048b8f26f9b23d169030bc76140c36cbc07dfbb9f5be1894ac628afec32a69c8c281bdeea73652448330c598e9fe8c20294f605d18cd5c332f1b7d8526e48bc061e35f0e1ce3ccad9b4acb50c18d65854b08bf18795c69e5330910259b2aa7f4ab38e120b100c4a23ce155d3f8a14e7bb6f85f20719ee942edf12aeb1aae5b0606d570c19ec0f4cf5c84c8792d418876c521a54942825a71810e0fd8492c9c4c8bf5b9272057f8c0a2dcc8f54fdec90378e5160d4137bacee8e605ed5d2a6f61dffc02e5c2a0b6269deb474d14bc17e5c23cbe01014c19e3d8d033bde61bb5936164fed96ef7d649068e116b3dc540458cdf95b3f5c43a771bef93bdbe18a5c3b1ad4bf7b6bd785f2ac8290c8556e7cd1c7bb2b47a381cde15c13be550c99853f0aef36f2718ffa8cddcc22124bd2c87b789dfb0263ff328e7141f5574fc00438bc6f2b03258c4b351efe1db5d9e40ff75f819ecc2b8560e4b949acfb560b2ce7e67c52d9c998c838284cdf8bf5402f3f4a03a7faa05274ae73dae131e3343074916072bded4c397ac4cb7edcb9a84965af2afab0ac3cfb05b7af26fb389957e7a97a4ff070d1a0740d5cac78b7fac6a7112751b57deef6b0de5d8019d80f10f477d78ce95084d19d9029ec150e95e8c5a3f2c33e5ff911062b482d95bd3266e7e2e4cdf3e3c08945923ff42f3efc2857a25ff703accf6e53ed6342f9ac1aff98adca7d55783fe982ad6cddd858574325be84e7d44758ff19d736cf53b8927ef71a0e86733a1c8c620b63ad7ebd55b8eaaa2635ea576c904d9a23baaf9c3bdcbca2508cf0fd9c91f821f7dca3ff2830d27aceee54a5ea0a71d9c3c72ebe3470a8c394d041f445dc9f91140b919e2c2090c2bdefb5f7595352b771d49e8e066b068be312552225a548c515e3a72a7a7a740a3e95c33655920273f84a8f26ea2b04e70364cf2ab24fa0c7fbf8c93ad08b04efc7a08dcd60a1736852a7f0187fe9d173a847653cb83cd44ff87d9eaeb80026ae8e70a8930cdbd12cc0441c577a21accc2a9af2f0bd1ac1bc7f829cd099fd5cf6e1d8b66450f6aa67b4ce82672ac8b586a1d1f2f3608e2afd223b5b6f0540ea00c76d1a53876f9a738e14adeb96e38ae0b2abe4fcf9439f2aa9eaa247c9426d4c6a5e96a9fdd884819e4bc459c2231121b11792b21d86a36a2d910e2c604708fe8883c8f1242ea8011abe23fe4d3420169fedd671458c6ef0e6fe9a05b70f33d583b8450f9152f12753b4ec6c07b380312fd3ea44adc7175786aea991bf02c4c311ab914ffd71a93657c89443619edb821366dcad6ef3854380b930250965737e82d1f9f6fd86351c440d25ef26115178e5247d8ccc73085331ecf449ec9cd952bcd9c31c7b6dc46bd25f11e93e4e6e0ec958f9d9d8509a9d6cc77ade3dc80027400dc51e9b3aaef90090abd7220b78be8da55ff1ec8c3bb8c0a5e39c4844506a70129c5532cca2a46a70ef80911cfc362db527762ff760e1f1168ba1535f9fdfa9419dc3dd87439625df2e103a1add43de92a6b6f5e40878417ac23ecc054461a38d558edf6fbe4c6790a4c0d0d434d53dcf3d0667c4706ae970c895498f6d459f3f627db98f27c416c103890a949a7e81a6d7fd769a7283456fb16d34c609d95f94dc99ddfd5d29e14c138f70c79064efdc30c4d4ff6eba91af051e67539c574ec95b16465cd61d048cb434751699b17a2b939eae53e4226cac9244ffb5cffe036ed00beccf7f02a2e15764921acaf828ec51dbc41a48c24c745d0778db617d04d4cec87fc2604a73131bf83276c6fbf7fb4c4614a396f1258598b652a2832d09519e24ff328afb0e312989c93e25c05d8b244732fff8236bd7ac7e851f33b423d1af31b886a054540cc32c8d85473a01e9ab6b4a79b0d2bb117fe0967a4ac6d3eb1223d5bfde54dcd762bb4cf77aff19bd5867afc958694845bea579e43d0e07928bc45ba75b29d058d0936ebbafcd4a539b5dac94827af841648a76dcdf1cdcd1f761310aa016ac6d9c753774467f3a61b44b162fda02846587b6706a2bcde861a93f3ddddb0af9ec7d904ea11a3c0f74b71c5f75cb220afb1de4c75b4cb7278172719784e614fc89b0e0c9fef2c95930b564ec7ac2455f98e9dfda7de148fe834306f1159f75c802e79dbabf7a1bb3a8c7ead01cb75bc026ab2ef04f4938696618f647635239b94370360e7cb46fd508e2c7469ce2a253950fd30bdb419c3b927f6c24b3f771adfcc8495215315de5cba171f35dfeebc3410f25ad0d12c502e805cd3645d57c34fcf10603a8330cbedaa08d7683bcde5ec8acc326069b01d876f3dfb79261467356133ab80c226e669f81149761c2262d5c46830b94a7f72afa6eae84696af6ea89c487c5612530d68c7cfa0313a735719b6839f8ead07f2db241e99d45cf29d71d0659132c635d3c9f2972beb9c9b116216f949d2595a4773b305acadfe408790db9b74d3bbd2277e91db56ddbc9a063e3131e47e5e0cf42489d1275cf6323eb756e05507713032c1a701d2cad915ea05890361aa1af38b907352222740f62b9ed5762cc993dc7483f6fb51e9059798bb24fca27286e1fa0ff1655456447de47c8b27324390fee2f2d406c10f3bbd290dd43b63d5e53ec24cd0d906e15c4bfb364ccd49fe3ed9202c5bd925a5ef28de65ab5f7a72eb518077c4abd276f1493e60e73ee04d0a83103db3efde526399f797605a2130c06aa442ff2d4769cc27980d61e6fb7ab95f1cd03088775a9b69b6503938cc0ab458db8f5acc8e219dcdd40141ea305896cfed21697f86669cb85c7af4a9a81849dba92e79f5d60dbab52e75c19ca7c93fb4164cf2429e5b9f00c0f83ed5f35cfc63c481c0b592d110c2ad42a19a903fc688712b1563d108ea8760d79c5040a6b974d8fffc4a40491a58ac60d536150f09d20a8b1733e086b5d5067b5162b32eb256686014a4039a9006ed3b0f56c1eabcf961276cc6837b09e3714f2c583a8f484c5a2e3d87bbee509924bb4cea2577cbd9cadc8c2dc77f8f8d19d15359730a084704a6b3c9836ac56c8dc046b2cfb63cce3d0b7f5d9cd7621f38f30c0b556103ea2c19217f0978e6f68b98c6c241bd514fb9355e3b61ffe10b5afde52d1f23536c381eca0d09e31b77ca189695958f71e30f2a8fa80c1cc0ce422292f0882543ddbe484ce804102d3e42484c5f606871748a93bec6c9e5fb101316232a384a50617094c1d5dfff161d2d484a535c6163777a92d2d8e9eaf3171821242f374f75818f9197a2a6adb2c0d5f4fa0000000000000000001322334701",
        "0035f7d9f00d4e332de4574b53f7f1e0180afa742d851512ac864a72a780659afe772603c4f65958189fbf3dc6c4777a15920a9c172ed5765e30a6fb39bb1a0ac3185b9d906b0c9daf05766c95782d1705ef5afbb16b82bb4de668892248e1e30c8be1415d58978ff8a0986b53c419b733eef31139cee86379fea9f30742f131ead5282be63647e08ad3a2d1db8f2c7828331105226ed239fffdb693ae6427bcd7c21ec239dffe6338b4aa94e8f41805ad82c01470dc7451de4d9a4484c8f04d5676a09a7d929bee61de127880032e9c6e9cf31db53eb5ae4c99bae958fd3ea728d0547b355f1813afe431b1078f8a2bb7956e86be2bb83a8bc00bbad15c71cd68b25ba9a1931bdd36212f2501c8fc87e8d02c57861a8ad9e2e426bbe7c151144fc964534e47cdec0926f6d90898df8cd6b677989449d9e019b209529ecc75f6f9e2975f5c9b893bf9c79ce762b954a93bd5abb2a4338fa21e8350d6807bb6b29a3a3b6a232e2ed4c9fd73c4beb6bbc87e6e6c980a16328527363f9c48a2da8953cfa36770a643ba8086c3abf94ab0b5a0ae1aa63e6d5c67f129b8662da96b8889dd002a91d077eb37ccb923c28dd3510a70ce42cbef1368642e8195c553d0e9f2527e0e13590c5099725946b5351276df9b0fc96daad748f2f434e9ec6f79876d5d390895c94711f0cfb1b9b1c8488aa60ea40be5195bd712189ef8d194918a371511a0dda76ce0a1228f5bb5924c2a64ea7a003894d3b5fec9dc39383bda2ca825fd253f3c452e55e80c78ea652290b99d2ae5e877b75a5e32ea37746152d29abe26ac33cf454a61a7c9dc10b1b6df695bae82c7dd396886762b4d4e52672d228cb61b8737a94e5ddc9292a732c111ae3ee1c0de7ba7493c385bfd5ec695ad6078c27f105e1ec70f2a168d17ef1785b9d89b53437113c70e30ddcaf6a622ccfccbfb5702f35c736e5c64a59923252ea0559f85eb2f3eeccdaa723eb1a3ebf6c5325a86bf39223c9472ababff5ac6b23063bd56941a98a55dd4cd0b67be7988ec8d0228bcf80b4db346786789188664c993aa74766252195a8080ab77d38e11a8684270fb48c671ecca0d73c760b7c39fb3b138c223e3979792f717f50d4edfc61585e4d655bb2fd195a2a6e42098eac70b8914c793def8a62944ce7199b2a68ee488bce168d37df0bad42050f6aee1e0c77848a7800ba6b8c88622347ec5c019a636354b823f4f3bc6cfb06f690c44c5261f18ce9a40ccc75917ea41dfd506f6dad4947ad96ac5ce903795522f8ddb46fc2560b6bee3d1c84b94f5277dffda49d1cb05e9adff9bd803a09a49330cdac6d0d413f9f09fca60ed08c55529aac77e99245d5367b5c57645e83c40c082abbc976b6a16899700b028165ef7c9ee25ebd1c6d4d7342effd51bc1c1463a1a82b40825a1f43a649701b34ca20a03609b19392113c2e34a518376fa61239d2f5c6b1dfc1d84063e8402ff5a5d9a6bb5d01c7cc822d9efbd3b73fd64d7e7b5dfe2cf688be29ca69c7241df96c7edaa3d8d13c4cd46322f35746a71bf66c4685692761f2be42b2c90ca33c694cdf589f0673b25e42c07b45c3211c3d779456c5e944fb42fbcbf5a4317628203d71bac2a79e01446b110fa8f0d94234f904724c51c20710979129d8b6e71094c8a473320329f535e0eb2299c415e8ec5a9119041dde90dff8d058d37f0b39f69b6f168377da7e82d60faca9bb06ee44f2c7413a05739a09c2529202e70d68d197a03ab46ab7e8d98b6417c86c22734ff75b0edee357efba23005a944615aff4c681797e285251d626a93ee2773e84aa3e60980d8e35df2a26628b780ae4c0cf5a8bc1dea1261"
      ],
      "sequence": 4294967294
    }
  ],
  "vout": [
    {
      "value": 1.0,
      "n": 0,
      "scriptPubKey": {
        "asm": "OP_RETURN 98fca8c6b6146cdf9924cf761439d11dd9a42853966b71cff759f56cfde3bc14 37891d61a4d1ee3822be5f02ca3e9762a5144fee32001c90f3a9e83bb48403fc17a93d4184f1ce18029e7f22ea1eb74285346fce12203cb0d389c81b94a423dc77c95d21e491ae7862fe1f428a7ed722e5540fae72405cd0b3e9a87bf4c443bc57e97d01c4b18e5842de3f62aa5ef702c5742f8e52607cf093c9885bd4e4639cb7099de124516eb8a23edf824abe17e22594cf6eb2809c10732968bb3404837c9729bdc104714e98821effa26a9e37c205b4ef4e92a0bc305309489b1424a35cf749dda164112ef8e27e9fc20afe57a265d48f2ef2c0dc50336928fb7444c33cd769fd8144310ed8c25ebfe22ade778245f4af0ed2e0fc70134908db5464e31c37891d61a4d1ee3822be5f02ca3e9762a5144fee32001c90f3a9e83bb48403fc17a93d4184f1ce18029e7f22ea1eb74285346fce12203cb0d389c81b94a423dc77c95d21e491ae7862fe1f428a7ed722e5540fae72405cd0b3e9a87bf4c443bc57e97d01c4b18e5842de3f62aa5ef702c5742f8e52607cf093c9885bd4e4639cb7099de124516eb8a23edf824abe17e22594cf6eb2809c10732968bb3404837c9729bdc104714e98821effa26a9e37c205b4ef4e92a0bc305309489b1424a35cf749dda164112ef8e27e9fc20afe57a265d48f2ef2c0dc50336928fb7444c33cd769fd8144310ed8c25ebfe22ade778245f4af0ed2e0fc70134908db5464e31c37891d61a4d1ee3822be5f02ca3e9762a5144fee32001c90f3a9e83bb48403fc17a93d4184f1ce18029e7f22ea1eb74285346fce12203cb0d389c81b94a423dc77c95d21e491ae7862fe1f428a7ed722e5540fae72405cd0b3e9a87bf4c443bc57e97d01c4b18e5842de3f62aa5ef702c5742f8e52607cf093c9885bd4e4639cb7099de124516eb8a23edf824abe17e22594cf6eb2809c10732968bb3404837c9729bdc104714e98821effa26a9e37c205b4ef4e92a0bc305309489b1424a35cf749dda164112ef8e27e9fc20afe57a265d48f2ef2c0dc50336928fb7444c33cd769fd8144310ed8c25ebfe22ade778245f4af0ed2e0fc70134908db5464e31c37891d61a4d1ee3822be5f02ca3e9762a5144fee32001c90f3a9e83bb48403fc17a93d4184f1ce18029e7f22ea1eb74285346fce12203cb0d389c81b94a423dc77c95d21e491ae7862fe1f428a7ed722e5540fae72405cd0b3e9a87bf4c443bc57e97d01c4b18e5842de3f62aa5ef702c5742f8e52607cf093c9885bd4e4639cb7099de124516eb8a23edf824abe17e22594cf6eb2809c10732968bb3404837c9729bdc104714e98821effa26a9e37c205b4ef4e92a0bc305309489b1424a35cf749dda164112ef8e27e9fc20afe57a265d48f2ef2c0dc50336928fb7444c33cd769fd8144310ed8c25ebfe22ade778245f4af0ed2e0fc70134908db5464e31c37891d61a4d1ee3822be5f02ca3e9762a5144fee32001c90f3a9e83bb48403fc17a93d4184f1ce18029e7f22ea1eb74285346fce12203cb0d389c81b94a423dc77c95d21e491ae7862fe1f428a7ed722e5540fae72405cd0b3e9a87bf4c443bc57e97d01c4b18e5842de3f62aa5ef702c5742f8e52607cf093c9885bd4e4639cb7099de124516eb8a23edf824abe17e229c495908bf58da4a6365abc0c624b94bc714344970d9f36687019fa16909a34",
        "hex": "6a2098fca8c6b6146cdf9924cf761439d11dd9a42853966b71cff759f56cfde3bc144db00437891d61a4d1ee3822be5f02ca3e9762a5144fee32001c90f3a9e83bb48403fc17a93d4184f1ce18029e7f22ea1eb74285346fce12203cb0d389c81b94a423dc77c95d21e491ae7862fe1f428a7ed722e5540fae72405cd0b3e9a87bf4c443bc57e97d01c4b18e5842de3f62aa5ef702c5742f8e52607cf093c9885bd4e4639cb7099de124516eb8a23edf824abe17e22594cf6eb2809c10732968bb3404837c9729bdc104714e98821effa26a9e37c205b4ef4e92a0bc305309489b1424a35cf749dda164112ef8e27e9fc20afe57a265d48f2ef2c0dc50336928fb7444c33cd769fd8144310ed8c25ebfe22ade778245f4af0ed2e0fc70134908db5464e31c37891d61a4d1ee3822be5f02ca3e9762a5144fee32001c90f3a9e83bb48403fc17a93d4184f1ce18029e7f22ea1eb74285346fce12203cb0d389c81b94a423dc77c95d21e491ae7862fe1f428a7ed722e5540fae72405cd0b3e9a87bf4c443bc57e97d01c4b18e5842de3f62aa5ef702c5742f8e52607cf093c9885bd4e4639cb7099de124516eb8a23edf824abe17e22594cf6eb2809c10732968bb3404837c9729bdc104714e98821effa26a9e37c205b4ef4e92a0bc305309489b1424a35cf749dda164112ef8e27e9fc20afe57a265d48f2ef2c0dc50336928fb7444c33cd769fd8144310ed8c25ebfe22ade778245f4af0ed2e0fc70134908db5464e31c37891d61a4d1ee3822be5f02ca3e9762a5144fee32001c90f3a9e83bb48403fc17a93d4184f1ce18029e7f22ea1eb74285346fce12203cb0d389c81b94a423dc77c95d21e491ae7862fe1f428a7ed722e5540fae72405cd0b3e9a87bf4c443bc57e97d01c4b18e5842de3f62aa5ef702c5742f8e52607cf093c9885bd4e4639cb7099de124516eb8a23edf824abe17e22594cf6eb2809c10732968bb3404837c9729bdc104714e98821effa26a9e37c205b4ef4e92a0bc305309489b1424a35cf749dda164112ef8e27e9fc20afe57a265d48f2ef2c0dc50336928fb7444c33cd769fd8144310ed8c25ebfe22ade778245f4af0ed2e0fc70134908db5464e31c37891d61a4d1ee3822be5f02ca3e9762a5144fee32001c90f3a9e83bb48403fc17a93d4184f1ce18029e7f22ea1eb74285346fce12203cb0d389c81b94a423dc77c95d21e491ae7862fe1f428a7ed722e5540fae72405cd0b3e9a87bf4c443bc57e97d01c4b18e5842de3f62aa5ef702c5742f8e52607cf093c9885bd4e4639cb7099de124516eb8a23edf824abe17e22594cf6eb2809c10732968bb3404837c9729bdc104714e98821effa26a9e37c205b4ef4e92a0bc305309489b1424a35cf749dda164112ef8e27e9fc20afe57a265d48f2ef2c0dc50336928fb7444c33cd769fd8144310ed8c25ebfe22ade778245f4af0ed2e0fc70134908db5464e31c37891d61a4d1ee3822be5f02ca3e9762a5144fee32001c90f3a9e83bb48403fc17a93d4184f1ce18029e7f22ea1eb74285346fce12203cb0d389c81b94a423dc77c95d21e491ae7862fe1f428a7ed722e5540fae72405cd0b3e9a87bf4c443bc57e97d01c4b18e5842de3f62aa5ef702c5742f8e52607cf093c9885bd4e4639cb7099de124516eb8a23edf824abe17e229c495908bf58da4a6365abc0c624b94bc714344970d9f36687019fa16909a34",
        "type": "nulldata"
      }
    },
    {
      "value": 499967.4592,
      "n": 1,
      "scriptPubKey": {
        "asm": "1 83bec523f5b713582f0b45af7f8c6ca3e65481be1bcea865a87859e929c1b9c4",
        "hex": "512083bec523f5b713582f0b45af7f8c6ca3e65481be1bcea865a87859e929c1b9c4",
        "reqSigs": 1,
        "type": "witness_v1_scripthash",
        "addresses": [
          "3QJmnh"
        ]
      }
    }
  ],
  "blockhash": "e950f66e7d48487e03ac7a1b4e7864aa28758accf0e3d98358cdf64a352531e0",
  "confirmations": 1,
  "time": 1764181937,
  "blocktime": 1764181937
}