{
  "hex": "01000000000101bce078cac48afdbcf0b5c8eeaf7aa988264cdc1312113931466c2fbdd64a0e670000000000feffffff029021522d792d000022512051d8e96ecd4bc4cdbf4461c95c4d50efee669881bbd3f9dca1aacf790379ed3100e1f50500000000fdd5046a202779e81cd39382ca33e5ab1381bade088734ba8bf8a21b8ae5916faea898a7f44db00415e6803c791ca055a529813726eef30c340776766cc3f33d51499704d60cc17e35c6a01c593c80758509a11706ced32c142756564ce3d31d7169b724f62ce15e55a6c07c395ce015e569c17766aeb34c744736362c83b37d1109d744964c813e7586e05c197cc035c549e157468e936c546716160ca3935d3129f764b66ca11e956600bcf99c20d525a901b7a66e738cb487f6f6ec4373bdd1c91784568c41feb546209cd9bc00f505892197864e53ac94a7d6d6cc63539df1e937a476ac61ded52640fcb9dc609565e941f7e62e33ccf4c7b6b6ac0333fd918957c416cc01bef50660dc99fc40b545c961d7c60e13ecd4e796968c2313ddb1a977e436ec219e15e6803c791ca055a529813726eef30c340776766cc3f33d51499704d60cc17e35c6a01c593c80758509a11706ced32c142756564ce3d31d7169b724f62ce15e55a6c07c395ce015e569c17766aeb34c744736362c83b37d1109d744964c813e7586e05c197cc035c549e157468e936c546716160ca3935d3129f764b66ca11e956600bcf99c20d525a901b7a66e738cb487f6f6ec4373bdd1c91784568c41feb546209cd9bc00f505892197864e53ac94a7d6d6cc63539df1e937a476ac61ded52640fcb9dc609565e941f7e62e33ccf4c7b6b6ac0333fd918957c416cc01bef50660dc99fc40b545c961d7c60e13ecd4e796968c2313ddb1a977e436ec219e15e6803c791ca055a529813726eef30c340776766cc3f33d51499704d60cc17e35c6a01c593c80758509a11706ced32c142756564ce3d31d7169b724f62ce15e55a6c07c395ce015e569c17766aeb34c744736362c83b37d1109d744964c813e7586e05c197cc035c549e157468e936c546716160ca3935d3129f764b66ca11e956600bcf99c20d525a901b7a66e738cb487f6f6ec4373bdd1c91784568c41feb546209cd9bc00f505892197864e53ac94a7d6d6cc63539df1e937a476ac61ded52640fcb9dc609565e941f7e62e33ccf4c7b6b6ac0333fd918957c416cc01bef50660dc99fc40b545c961d7c60e13ecd4e796968c2313ddb1a977e436ec219e15e6803c791ca055a529813726eef30c340776766cc3f33d51499704d60cc17e35c6a01c593c80758509a11706ced32c142756564ce3d31d7169b724f62ce15e55a6c07c395ce015e569c17766aeb34c744736362c83b37d1109d744964c813e7586e05c197cc035c549e157468e936c546716160ca3935d3129f764b66ca11e956600bcf99c20d525a901b7a66e738cb487f6f6ec4373bdd1c91784568c41feb546209cd9bc00f505892197864e53ac94a7d6d6cc63539df1e937a476ac61ded52640fcb9dc609565e941f7e62e33ccf4c7b6b6ac0333fd918957c416cc01bef50660dc99fc40b545c961d7c60e13ecd4e796968c2313ddb1a977e436ec219e15e6803c791ca055a529813726eef30c340776766cc3f33d51499704d60cc17e35c6a01c593c80758509a11706ced32c142756564ce3d31d7169b724f62ce15e55a6c07c395ce015e569c17766aeb34c744736362c83b37d1109d744964c813e7586e05c197cc035c549e157468e936c546716160ca3935d3129f764b66ca11e956600bcf99c20d525a901b7a66e738cd639b637a3f27eefdbc96e9816e8b9466b87c3cc08b3052720c768db4da64e7802fd7509ee2cf8ad06be8f45cdb9f7f7e56980dc515fbba44d2e14f163b3eda5b79f1b61f3f0be6dc434c111e5f551ee42f172f163cf405b4fa3e2fc4492a4fef0d44b10b4fd5efd69b55a90b89e392018acc4cc6051c6c55f38c8718e643732c46aa81df0cb85012cd7794e2f24f3ed2ac557d777b65226907649636c33db27762ed0e5d3f5a46464d8cb908a75f6c607ced737a40f6d5b1a7ca213c0df3dc5e3c93b665670ca404239f229b3c5789c2d2274956e999ce7ec8f5a97f7cb6e58fdd35a3718e6e1bee7ac7c2133264b4bafc71094c4492663719b272323b686c0df725d9dfaae59625e4b1b3abcef572432929403ae0b6db9eaccd888dc9e100a2aaa0b8b3632d8792ae2c5a5060e2b74af8829b8ee849be80ce8d4d845a6dd2b4afa2ab3f9fcf6a1aeba10c9e47660fca893fb25e2f98a219a14702e4b54d251113e35af785ccbfc6bbc6f64ca74be17e08ba3728708a77926af2053c368e301460eb9c470254bb6155bbab34df0fe8e7de6db464b78f2a5146652230e9a1a51f842ef7c5eb38e7e88a0c3bea9ffee6efbe51160f5aba5ab8882db5a7aeffbfba930d0a5fc93898479d96e85b770bd493c5513e4b45cb00f873f12b734e16b1af55901b5c42cd32814b13664367c74d8d65855812f9a7f0a0e9271dd4d6ac11581b5f34c0ab1461e71350af2761dfcef80569e0e0b3348ac2ea92aa772a7a107be7fbd992ec4daff6d0ba690de67a8c741a9a8b2a779049ea173f7d8e4520f9690016bc1270f2ce68d7ef0c51b9331adad1177104ea8a45310e561ecf34b2aa8c34b465b178f9567c90154726d8ec203928894cd702542da76d29de37a1e4d4549c98816120e3b187bec92a04b727b695d4ebf956516027ccd0771c646a5dbd556764bf8400cdef2ef6c9f717972b02af7834b4dda1cdf6a3e2abc7e68057e2f1b33f3e63cbd877c38f0c08c3792791437947c4b1d345814130bb0600ea5b3838e1d3036b79a573bdebfd95d8e8a77ee24de812133865e6b700adb4cb22256afd8b74abdcc6726239d367f413e5f64a7f485545b3f734e5517334384e7cb6431a66343438cdab2744e1ec9681ed7aa066386f72f0b89c9294ec2627c606619c5705048502529fefe7a37d2fb3d1fe4a04bec72c9291682a2a101e8a3fbfd9fba7fa5b526520b4b58e5a0d941b6f9a090a6ad617116fa9311bd7d95d99451d9b3976f0bee5d38f3dd3240037677bc8d84d8a28a080ed32eca54b856faeb10180fb3adff0991d635e73a26ba0cfed4bef0ba15e5b3593191728b29bf20b325e6da488aba982789ec79747a9a5384702222878a658adae27e02471ac08db22e0aa74fb790f53667e58ece31fce37daaee92e4dd9b5592af01b355735050b65537191cae02c71168ae3e8663fd323de88b5f46a167401cb4f10232240ea2c73ab4d3107832f8eb73791e152034ceaa37780483ab51e2362600e6d795a4b0e919951ca2055840ed569a0fb84ff48276131d5ecf9e4b5684cb30c9f93f56d6a859593e0f95e013e0503ee939620a5315c337f76f3c73983999c47b20ba438d664e5a2d2318d477facc91456b92cb1f5d5cd350c8c68049a31dd31578fe9cfd420c827d6ab000dfa02ed733f6b5fb7c0f80593bdbedd295976560911af8c0b09fe65a53250953a15da098feb519b11daed53bf1118890ce38cfa4802952b493cd23141831b2f05aa2290cbcac25605913e8fb04093ed377840e94e6717fa3b379d64676ee29a9b7863bb46d228a395516c9dd688c4579b9d2f42d9ddb19ce4d9385693dc9b7de8e1196aadb8ee2859edc6f1bc97f974ca451805b07d9371ff8a68a18b35fbb847863afba4edb66208111d37e18858c184592543f0f24b2d16820335d1f9312cad7c2f9e0369327228eff9e4f53d7763835139c9e11a8fa33af7b706140870ad5643ff318502522b9e7e9df4a4a5166b35511a165075b1e1669a8fee4331fcc9fb2a74c72c84498cc8f81ac0e0db1a22801b7c14651943b0e7b52aee7973d690ebb0c435f6ae2776ae27f0d06db3490806e67d98e52fc020f9e8ee58c9b6fb3087ba58e0be513d831f3b52af75277e69bdc7014d118ca2aa6c6b5fefd722d5ed4be2c43ecdbfef5a5ea7b90b1880242d44198a9f0ac560bf57ea73198d1c2097d4898803d44faf13d85840c3960cacba30644d008d2a0b5c2585fafb5df141c03e3d112c5bf21b181ada987b4ab12bbd8f8310bdba6f23e1239ad1805ca5502b6f6bc094a710ecf4fcb60ba2a3cfd4be2b810c3bfc17470888b3208bb3f7e46d514742b5d60b76ce2ec97a9c550eecaa76ee205982895d9d5911a4dc3c444801dd195065ec3179dfd6218e91e00524d93b77ab55cd3639d5da7ce4efe33f4c46a3771eb7163a55ad204c73971ad71b250da7ad2886347cd27c1a21be70c028a390538c5041271b65db84a67e2bb9b6a11a69e3294d29455a4d22916eea2ebd669dd3034e3b4091a9cf47f40fdb1c14fc1547cd0cc4829f2c316e7e6b8df9b63b1d6cf85826454569cc890542de0d87d147f18cce9dcee426bf5556fef6fcacbbb56bf06da743d544cc686eadcf44d7b8d98f686d1cee5223da33680ce806930593dc316617823b8ff682a7fd176b9ad90698ebd60c8970278f437db49e1b4b5158e1ff4731bccd73f14e32331a73ce5c447b6c337f990a7e638743fd7035a571c52cbcfa979dfe7887babf3561ba797ee8185ecac3d0d4d6d03b6fcecce2159e000fc67f48c0cb40601dbe88038607c4d16e5853f67483663a15eb6f6d4564c040140c9fc8d1210b3faec639ecd6bfcd8687c1d82b8da2055c917dc5293eca90fca3a8e65af4f6a142fb782fee09cf8cc6eb02d710a7d35d71355defa6730346536e731e3b93d1076e3af4a48037d4dcbf7f55f51ab212ee19a05ef982bb9c50782c8d387d16b129686ed325ccdc0b8401e403e7e1aece15a35325c1547fa1f17a5654c4e6f3f855d7eec9528f8a9e8272ec7efcd4c31ca3c6525766c73a879f9e1f84af6471c422ab718e510d4ae90f049ad4caf47bbab8d9eda79d061ada01ae310ad96e7c89f484e89eef1211a01d0057bbfc08c4819f13e32dba50799ded9064fe2d09eaf9c7373bed5851bc4c609ab32053d75dc023871cbdabe42b6a6bf2d370b4ff6070ff56fde6516e304a2346d0a06e8a0175e87160bfb1dfdba9f47dc20e6aa872aebdb2346ac173cfaedb4f82f1845823bcab83e6559d41ca3b1fd15b002b804f002cec0cc1c926ea82e5394f84bb579139a9bcaf7f32eaeedaa9d6e1c1f2132346671838788c3d80a282d373b3c4a8289a4e10617272c3e4b4c555676778084a9c0c3c4c9e0021c334c565f646b6d707c8891a6c5cfe9ff00000000000000000000000000000000000000000c172a3c01fd21050020d87331c1e1b15a9ce69395e521a8a6d3fce826c315ab37271d45d141d3028386fbbb3a686717d625ec37dac5f3d4251492d2c6e4ca9a69a5967a2603b2529df8d6cbeb1ae5b73c667bf97a2528b5186b91612e2143afe174f953f1070ab0c556c25a34b4fb9fa1a93aceee3ea40b3694b3c0162209c19af897a6321a6b086a4d8401ae69fc3aae8ffe93cb66097b22db5a8cb2b2802d90c7728bd887b70b000cf6bf78b573dc9759c8c744ef96d670534b0b831e895f2fedff48f7c85ed3d73bdb15c6852bb71fe704d6370431f85badcd50c08b93ed903017b074b288317eab96c8803306b06e254bb686f97110a42267a9a8fec3f1841056234e8d32c1a4bbd9f3dee48e94f00d6a6b9da539bb4cf2ba577fcdc0b52d8f457e47b90d4c7495434b5a7404da87f6cc4a15c58e33fe15294b345aa1593e092c5885eb6b3088247d610b10953ec49f7e4cb73390e95293d37cbbd877280a5f45a4999b93b72827a6371a2a5825e71b2d94b7fb7e5115dc0817f683a59424d37e3b84dd4d72f567677a3f4bce45c4db5eea2ca119c5143b5512911d9d8b6f11d97b5db2106858320ff1b884811ba059a8d9cdafcc371fb7e1aee33bea08ffb1a4f29394ec438a9f36393910b83d81e28b122408ee8e8d97007db00b2c257c5fc282b9d96cf1f69e7efde85bb52950f360914ce63802675222b10e7573929e5dbefd2d9930af5e608f44397cd7b95b531bd19b4063bc67bfe4e0c65b523ca70a67a636eedd5bc63c3e33d1a7ec0dc26475ab3d8b7eac411b85f67ea03963f240cb7f02c263bda5bdef4f2e6e1ee79f170e2b587050d5e57ab2e34b3710ce0bc368e7ea1ac7ac9a93174abe22b711d829c6ca98fb0d013bc1b8cd8607b28d63ae95f5107842d265222dffcf06315f00fa2ab9ab9cb2895b3229668e58caaa78aab5a82e820cb9569bb1590d50a62e20ec3c3fd38f3f8adce8a34a006be605918466c75d946984208907cb028ebdc5a29cacab02c3cc942e45fa4a9422fd24019c78e36c5cd29567615852b5d1f7f3eaaf94bdcf0c39e32d28ab8e519ece1825737f76317074dcd9da95cbf89fd9f004f2f045557d715154818e5f0400889a32412285a152354625a001be206db1497138d335b7e36e42d94dadf44ea35e975bb6b8dd0a0ae1aadaddf521610f862e4abe3fa6579c980a2c89892f56a8e81672bf3243892ce3d9f7066317e7a4b3ed9fad71be600781213ddeaa0b56e55b3a10038f8bd7e139fb5f9e621519f8a7630367737e705414ee1cd0f1c88a94a1a260e5578ce9c6b6237ce5fc8ba35d5dbb5fd6d03f450e20d0928ab54803f3f0b16319b8249579fdc623cf123613280c634c082910d8a0e1140d595bcb5dba87964001ee452653545331a8099cb1030e49ae31383c063dbf5877183b8458b6136c38426b70602f84574a937fe876d571cd8321cf2a75b99404f036700cbda267b467f57097c6c6b58a1ff44acfd7eb93cb815f7a053c367e958ea3d36518fe86c5ce56530248aa16005ee59b984143f35cc750ffcecddae03b919934a0be8e388ccff798d7a1d02b16dec830f08e9dd268c20bb621061fb4bb2d16b4bbb6fc81ca75d086e857f3fa3e837e58bd78f1a0d0d6918a1e58664e32bbed55ef2420d1c43569f22bc95901114b7cc0413df922632542805fd83420dd4cb85b09c309be5afd6c65ff082e733537294e6677b23a09355558f46ea4eaf359d12aa816fa71139a549941e884e3fa21019cc74401760df400527bcfcf62127b75762ef7737e328c10fc75e17cd59b01bde2b6c8a55800f3e07b3b30293cc393d517f5c03512f7f051f3f5d5123e1be77c000000",
  "txid": "aa7107b6dffd55fe3d678bae21c6673d64b15662b18e7d3792453e133f77a17c",
  "hash": "dfe09cfa06a9bbca2ee4b1e60409be67f518ffc6a55c299aef8da021bd13f510",
  "size": 5085,
  "vsize": 2278,
  "version": 1,
  "locktime": 124,
  "vin": [
    {
      "txid": "670e4ad6bd2f6c463139111213dc4c2688a97aafeec8b5f0bcfd8ac4ca78e0bc",
      "vout": 0,
      "scriptSig": {
        "asm": "",
        "hex": ""
      },
      "txinwitness": [
        "ee2cf8ad06be8f45cdb9f7f7e56980dc515fbba44d2e14f163b3eda5b79f1b61f3f0be6dc434c111e5f551ee42f172f163cf405b4fa3e2fc4492a4fef0d44b10b4fd5efd69b55a90b89e392018acc4cc6051c6c55f38c8718e643732c46aa81df0cb85012cd7794e2f24f3ed2ac557d777b65226907649636c33db27762ed0e5d3f5a46464d8cb908a75f6c607ced737a40f6d5b1a7ca213c0df3dc5e3c93b665670ca404239f229b3c5789c2d2274956e999ce7ec8f5a97f7cb6e58fdd35a3718e6e1bee7ac7c2133264b4bafc71094c4492663719b272323b686c0df725d9dfaae59625e4b1b3abcef572432929403ae0b6db9eaccd888dc9e100a2aaa0b8b3632d8792ae2c5a5060e2b74af8829b8ee849be80ce8d4d845a6dd2b4afa2ab3f9fcf6a1aeba10c9e47660fca893fb25e2f98a219a14702e4b54d251113e35af785ccbfc6bbc6f64ca74be17e08ba3728708a77926af2053c368e301460eb9c470254bb6155bbab34df0fe8e7de6db464b78f2a5146652230e9a1a51f842ef7c5eb38e7e88a0c3bea9ffee6efbe51160f5aba5ab8882db5a7aeffbfba930d0a5fc93898479d96e85b770bd493c5513e4b45cb00f873f12b734e16b1af55901b5c42cd32814b13664367c74d8d65855812f9a7f0a0e9271dd4d6ac11581b5f34c0ab1461e71350af2761dfcef80569e0e0b3348ac2ea92aa772a7a107be7fbd992ec4daff6d0ba690de67a8c741a9a8b2a779049ea173f7d8e4520f9690016bc1270f2ce68d7ef0c51b9331adad1177104ea8a45310e561ecf34b2aa8c34b465b178f9567c90154726d8ec203928894cd702542da76d29de37a1e4d4549c98816120e3b187bec92a04b727b695d4ebf956516027ccd0771c646a5dbd556764bf8400cdef2ef6c9f717972b02af7834b4dda1cdf6a3e2abc7e68057e2f1b33f3e63cbd877c38f0c08c3792791437947c4b1d345814130bb0600ea5b3838e1d3036b79a573bdebfd95d8e8a77ee24de812133865e6b700adb4cb22256afd8b74abdcc6726239d367f413e5f64a7f485545b3f734e5517334384e7cb6431a66343438cdab2744e1ec9681ed7aa066386f72f0b89c9294ec2627c606619c5705048502529fefe7a37d2fb3d1fe4a04bec72c9291682a2a101e8a3fbfd9fba7fa5b526520b4b58e5a0d941b6f9a090a6ad617116fa9311bd7d95d99451d9b3976f0bee5d38f3dd3240037677bc8d84d8a28a080ed32eca54b856faeb10180fb3adff0991d635e73a26ba0cfed4bef0ba15e5b3593191728b29bf20b325e6da488aba982789ec79747a9a5384702222878a658adae27e02471ac08db22e0aa74fb790f53667e58ece31fce37daaee92e4dd9b5592af01b355735050b65537191cae02c71168ae3e8663fd323de88b5f46a167401cb4f10232240ea2c73ab4d3107832f8eb73791e152034ceaa37780483ab51e2362600e6d795a4b0e919951ca2055840ed569a0fb84ff48276131d5ecf9e4b5684cb30c9f93f56d6a859593e0f95e013e0503ee939620a5315c337f76f3c73983999c47b20ba438d664e5a2d2318d477facc91456b92cb1f5d5cd350c8c68049a31dd31578fe9cfd420c827d6ab000dfa02ed733f6b5fb7c0f80593bdbedd295976560911af8c0b09fe65a53250953a15da098feb519b11daed53bf1118890ce38cfa4802952b493cd23141831b2f05aa2290cbcac25605913e8fb04093ed377840e94e6717fa3b379d64676ee29a9b7863bb46d228a395516c9dd688c4579b9d2f42d9ddb19ce4d9385693dc9b7de8e1196aadb8ee2859edc6f1bc97f974ca451805b07d9371ff8a68a18b35fbb847863afba4edb66208111d37e18858c184592543f0f24b2d16820335d1f9312cad7c2f9e0369327228eff9e4f53d7763835139c9e11a8fa33af7b706140870ad5643ff318502522b9e7e9df4a4a5166b35511a165075b1e1669a8fee4331fcc9fb2a74c72c84498cc8f81ac0e0db1a22801b7c14651943b0e7b52aee7973d690ebb0c435f6ae2776ae27f0d06db3490806e67d98e52fc020f9e8ee58c9b6fb3087ba58e0be513d831f3b52af75277e69bdc7014d118ca2aa6c6b5fefd722d5ed4be2c43ecdbfef5a5ea7b90b1880242d44198a9f0ac560bf57ea73198d1c2097d4898803d44faf13d85840c3960cacba30644d008d2a0b5c2585fafb5df141c03e3d112c5bf21b181ada987b4ab12bbd8f8310bdba6f23e1239ad1805ca5502b6f6bc094a710ecf4fcb60ba2a3cfd4be2b810c3bfc17470888b3208bb3f7e46d514742b5d60b76ce2ec97a9c550eecaa76ee205982895d9d5911a4dc3c444801dd195065ec3179dfd6218e91e00524d93b77ab55cd3639d5da7ce4efe33f4c46a3771eb7163a55ad204c73971ad71b250da7ad2886347cd27c1a21be70c028a390538c5041271b65db84a67e2bb9b6a11a69e3294d29455a4d22916eea2ebd669dd3034e3b4091a9cf47f40fdb1c14fc1547cd0cc4829f2c316e7e6b8df9b63b1d6cf85826454569cc890542de0d87d147f18cce9dcee426bf5556fef6fcacbbb56bf06da743d544cc686eadcf44d7b8d98f686d1cee5223da33680ce806930593dc316617823b8ff682a7fd176b9ad90698ebd60c8970278f437db49e1b4b5158e1ff4731bccd73f14e32331a73ce5c447b6c337f990a7e638743fd7035a571c52cbcfa979dfe7887babf3561ba797ee8185ecac3d0d4d6d03b6fcecce2159e000fc67f48c0cb40601dbe88038607c4d16e5853f67483663a15eb6f6d4564c040140c9fc8d1210b3faec639ecd6bfcd8687c1d82b8da2055c917dc5293eca90fca3a8e65af4f6a142fb782fee09cf8cc6eb02d710a7d35d71355defa6730346536e731e3b93d1076e3af4a48037d4dcbf7f55f51ab212ee19a05ef982bb9c50782c8d387d16b129686ed325ccdc0b8401e403e7e1aece15a35325c1547fa1f17a5654c4e6f3f855d7eec9528f8a9e8272ec7efcd4c31ca3c6525766c73a879f9e1f84af6471c422ab718e510d4ae90f049ad4caf47bbab8d9eda79d061ada01ae310ad96e7c89f484e89eef1211a01d0057bbfc08c4819f13e32dba50799ded9064fe2d09eaf9c7373bed5851bc4c609ab32053d75dc023871cbdabe42b6a6bf2d370b4ff6070ff56fde6516e304a2346d0a06e8a0175e87160bfb1dfdba9f47dc20e6aa872aebdb2346ac173cfaedb4f82f1845823bcab83e6559d41ca3b1fd15b002b804f002cec0cc1c926ea82e5394f84bb579139a9bcaf7f32eaeedaa9d6e1c1f2132346671838788c3d80a282d373b3c4a8289a4e10617272c3e4b4c555676778084a9c0c3c4c9e0021c334c565f646b6d707c8891a6c5cfe9ff00000000000000000000000000000000000000000c172a3c01",
        "0020d87331c1e1b15a9ce69395e521a8a6d3fce826c315ab37271d45d141d3028386fbbb3a686717d625ec37dac5f3d4251492d2c6e4ca9a69a5967a2603b2529df8d6cbeb1ae5b73c667bf97a2528b5186b91612e2143afe174f953f1070ab0c556c25a34b4fb9fa1a93aceee3ea40b3694b3c0162209c19af897a6321a6b086a4d8401ae69fc3aae8ffe93cb66097b22db5a8cb2b2802d90c7728bd887b70b000cf6bf78b573dc9759c8c744ef96d670534b0b831e895f2fedff48f7c85ed3d73bdb15c6852bb71fe704d6370431f85badcd50c08b93ed903017b074b288317eab96c8803306b06e254bb686f97110a42267a9a8fec3f1841056234e8d32c1a4bbd9f3dee48e94f00d6a6b9da539bb4cf2ba577fcdc0b52d8f457e47b90d4c7495434b5a7404da87f6cc4a15c58e33fe15294b345aa1593e092c5885eb6b3088247d610b10953ec49f7e4cb73390e95293d37cbbd877280a5f45a4999b93b72827a6371a2a5825e71b2d94b7fb7e5115dc0817f683a59424d37e3b84dd4d72f567677a3f4bce45c4db5eea2ca119c5143b5512911d9d8b6f11d97b5db2106858320ff1b884811ba059a8d9cdafcc371fb7e1aee33bea08ffb1a4f29394ec438a9f36393910b83d81e28b122408ee8e8d97007db00b2c257c5fc282b9d96cf1f69e7efde85bb52950f360914ce63802675222b10e7573929e5dbefd2d9930af5e608f44397cd7b95b531bd19b4063bc67bfe4e0c65b523ca70a67a636eedd5bc63c3e33d1a7ec0dc26475ab3d8b7eac411b85f67ea03963f240cb7f02c263bda5bdef4f2e6e1ee79f170e2b587050d5e57ab2e34b3710ce0bc368e7ea1ac7ac9a93174abe22b711d829c6ca98fb0d013bc1b8cd8607b28d63ae95f5107842d265222dffcf06315f00fa2ab9ab9cb2895b3229668e58caaa78aab5a82e820cb9569bb1590d50a62e20ec3c3fd38f3f8adce8a34a006be605918466c75d946984208907cb028ebdc5a29cacab02c3cc942e45fa4a9422fd24019c78e36c5cd29567615852b5d1f7f3eaaf94bdcf0c39e32d28ab8e519ece1825737f76317074dcd9da95cbf89fd9f004f2f045557d715154818e5f0400889a32412285a152354625a001be206db1497138d335b7e36e42d94dadf44ea35e975bb6b8dd0a0ae1aadaddf521610f862e4abe3fa6579c980a2c89892f56a8e81672bf3243892ce3d9f7066317e7a4b3ed9fad71be600781213ddeaa0b56e55b3a10038f8bd7e139fb5f9e621519f8a7630367737e705414ee1cd0f1c88a94a1a260e5578ce9c6b6237ce5fc8ba35d5dbb5fd6d03f450e20d0928ab54803f3f0b16319b8249579fdc623cf123613280c634c082910d8a0e1140d595bcb5dba87964001ee452653545331a8099cb1030e49ae31383c063dbf5877183b8458b6136c38426b70602f84574a937fe876d571cd8321cf2a75b99404f036700cbda267b467f57097c6c6b58a1ff44acfd7eb93cb815f7a053c367e958ea3d36518fe86c5ce56530248aa16005ee59b984143f35cc750ffcecddae03b919934a0be8e388ccff798d7a1d02b16dec830f08e9dd268c20bb621061fb4bb2d16b4bbb6fc81ca75d086e857f3fa3e837e58bd78f1a0d0d6918a1e58664e32bbed55ef2420d1c43569f22bc95901114b7cc0413df922632542805fd83420dd4cb85b09c309be5afd6c65ff082e733537294e6677b23a09355558f46ea4eaf359d12aa816fa71139a549941e884e3fa21019cc74401760df400527bcfcf62127b75762ef7737e328c10fc75e17cd59b01bde2b6c8a55800f3e07b3b30293cc393d517f5c03512f7f051f3f5d5123e1be7"
      ],
      "sequence": 4294967294
    }
  ],
  "vout": [
    {
      "value": 499984.7465,
      "n": 0,
      "scriptPubKey": {
        "asm": "1 51d8e96ecd4bc4cdbf4461c95c4d50efee669881bbd3f9dca1aacf790379ed31",
        "hex": "512051d8e96ecd4bc4cdbf4461c95c4d50efee669881bbd3f9dca1aacf790379ed31",
        "reqSigs": 1,
        "type": "witness_v1_scripthash",
        "addresses": [
          "3QJmnh"
        ]
      }
    },
    {
      "value": 1.0,
      "n": 1,
      "scriptPubKey": {
        "asm": "OP_RETURN 2779e81cd39382ca33e5ab1381bade088734ba8bf8a21b8ae5916faea898a7f4 15e6803c791ca055a529813726eef30c340776766cc3f33d51499704d60cc17e35c6a01c593c80758509a11706ced32c142756564ce3d31d7169b724f62ce15e55a6c07c395ce015e569c17766aeb34c744736362c83b37d1109d744964c813e7586e05c197cc035c549e157468e936c546716160ca3935d3129f764b66ca11e956600bcf99c20d525a901b7a66e738cb487f6f6ec4373bdd1c91784568c41feb546209cd9bc00f505892197864e53ac94a7d6d6cc63539df1e937a476ac61ded52640fcb9dc609565e941f7e62e33ccf4c7b6b6ac0333fd918957c416cc01bef50660dc99fc40b545c961d7c60e13ecd4e796968c2313ddb1a977e436ec219e15e6803c791ca055a529813726eef30c340776766cc3f33d51499704d60cc17e35c6a01c593c80758509a11706ced32c142756564ce3d31d7169b724f62ce15e55a6c07c395ce015e569c17766aeb34c744736362c83b37d1109d744964c813e7586e05c197cc035c549e157468e936c546716160ca3935d3129f764b66ca11e956600bcf99c20d525a901b7a66e738cb487f6f6ec4373bdd1c91784568c41feb546209cd9bc00f505892197864e53ac94a7d6d6cc63539df1e937a476ac61ded52640fcb9dc609565e941f7e62e33ccf4c7b6b6ac0333fd918957c416cc01bef50660dc99fc40b545c961d7c60e13ecd4e796968c2313ddb1a977e436ec219e15e6803c791ca055a529813726eef30c340776766cc3f33d51499704d60cc17e35c6a01c593c80758509a11706ced32c142756564ce3d31d7169b724f62ce15e55a6c07c395ce015e569c17766aeb34c744736362c83b37d1109d744964c813e7586e05c197cc035c549e157468e936c546716160ca3935d3129f764b66ca11e956600bcf99c20d525a901b7a66e738cb487f6f6ec4373bdd1c91784568c41feb546209cd9bc00f505892197864e53ac94a7d6d6cc63539df1e937a476ac61ded52640fcb9dc609565e941f7e62e33ccf4c7b6b6ac0333fd918957c416cc01bef50660dc99fc40b545c961d7c60e13ecd4e796968c2313ddb1a977e436ec219e15e6803c791ca055a529813726eef30c340776766cc3f33d51499704d60cc17e35c6a01c593c80758509a11706ced32c142756564ce3d31d7169b724f62ce15e55a6c07c395ce015e569c17766aeb34c744736362c83b37d1109d744964c813e7586e05c197cc035c549e157468e936c546716160ca3935d3129f764b66ca11e956600bcf99c20d525a901b7a66e738cb487f6f6ec4373bdd1c91784568c41feb546209cd9bc00f505892197864e53ac94a7d6d6cc63539df1e937a476ac61ded52640fcb9dc609565e941f7e62e33ccf4c7b6b6ac0333fd918957c416cc01bef50660dc99fc40b545c961d7c60e13ecd4e796968c2313ddb1a977e436ec219e15e6803c791ca055a529813726eef30c340776766cc3f33d51499704d60cc17e35c6a01c593c80758509a11706ced32c142756564ce3d31d7169b724f62ce15e55a6c07c395ce015e569c17766aeb34c744736362c83b37d1109d744964c813e7586e05c197cc035c549e157468e936c546716160ca3935d3129f764b66ca11e956600bcf99c20d525a901b7a66e738cd639b637a3f27eefdbc96e9816e8b9466b87c3cc08b3052720c768db4da64e78",
        "hex": "6a202779e81cd39382ca33e5ab1381bade088734ba8bf8a21b8ae5916faea898a7f44db00415e6803c791ca055a529813726eef30c340776766cc3f33d51499704d60cc17e35c6a01c593c80758509a11706ced32c142756564ce3d31d7169b724f62ce15e55a6c07c395ce015e569c17766aeb34c744736362c83b37d1109d744964c813e7586e05c197cc035c549e157468e936c546716160ca3935d3129f764b66ca11e956600bcf99c20d525a901b7a66e738cb487f6f6ec4373bdd1c91784568c41feb546209cd9bc00f505892197864e53ac94a7d6d6cc63539df1e937a476ac61ded52640fcb9dc609565e941f7e62e33ccf4c7b6b6ac0333fd918957c416cc01bef50660dc99fc40b545c961d7c60e13ecd4e796968c2313ddb1a977e436ec219e15e6803c791ca055a529813726eef30c340776766cc3f33d51499704d60cc17e35c6a01c593c80758509a11706ced32c142756564ce3d31d7169b724f62ce15e55a6c07c395ce015e569c17766aeb34c744736362c83b37d1109d744964c813e7586e05c197cc035c549e157468e936c546716160ca3935d3129f764b66ca11e956600bcf99c20d525a901b7a66e738cb487f6f6ec4373bdd1c91784568c41feb546209cd9bc00f505892197864e53ac94a7d6d6cc63539df1e937a476ac61ded52640fcb9dc609565e941f7e62e33ccf4c7b6b6ac0333fd918957c416cc01bef50660dc99fc40b545c961d7c60e13ecd4e796968c2313ddb1a977e436ec219e15e6803c791ca055a529813726eef30c340776766cc3f33d51499704d60cc17e35c6a01c593c80758509a11706ced32c142756564ce3d31d7169b724f62ce15e55a6c07c395ce015e569c17766aeb34c744736362c83b37d1109d744964c813e7586e05c197cc035c549e157468e936c546716160ca3935d3129f764b66ca11e956600bcf99c20d525a901b7a66e738cb487f6f6ec4373bdd1c91784568c41feb546209cd9bc00f505892197864e53ac94a7d6d6cc63539df1e937a476ac61ded52640fcb9dc609565e941f7e62e33ccf4c7b6b6ac0333fd918957c416cc01bef50660dc99fc40b545c961d7c60e13ecd4e796968c2313ddb1a977e436ec219e15e6803c791ca055a529813726eef30c340776766cc3f33d51499704d60cc17e35c6a01c593c80758509a11706ced32c142756564ce3d31d7169b724f62ce15e55a6c07c395ce015e569c17766aeb34c744736362c83b37d1109d744964c813e7586e05c197cc035c549e157468e936c546716160ca3935d3129f764b66ca11e956600bcf99c20d525a901b7a66e738cb487f6f6ec4373bdd1c91784568c41feb546209cd9bc00f505892197864e53ac94a7d6d6cc63539df1e937a476ac61ded52640fcb9dc609565e941f7e62e33ccf4c7b6b6ac0333fd918957c416cc01bef50660dc99fc40b545c961d7c60e13ecd4e796968c2313ddb1a977e436ec219e15e6803c791ca055a529813726eef30c340776766cc3f33d51499704d60cc17e35c6a01c593c80758509a11706ced32c142756564ce3d31d7169b724f62ce15e55a6c07c395ce015e569c17766aeb34c744736362c83b37d1109d744964c813e7586e05c197cc035c549e157468e936c546716160ca3935d3129f764b66ca11e956600bcf99c20d525a901b7a66e738cd639b637a3f27eefdbc96e9816e8b9466b87c3cc08b3052720c768db4da64e78",
        "type": "nulldata"
      }
    }
  ],
  "blockhash": "fe93069f37b49cfb15542a42b300d4e9dc573fdbbe6c5d081907ef62d551896a",
  "confirmations": 1,
  "time": 1764180962,
  "blocktime": 1764180962
}