{
  "hex": "0100000000010124c0dc714e669e5599f760e9e512ee8d36b4d607f6239ad0d72632fb5e86a8160000000000feffffff0200e1f50500000000fdd5046a207adcd2d9149022b90d651c797cbbe65db96eea2fe77407eedf6b072f08c133f04db00433fd1b49c6b3bb500e9fdfb99c97c815ae555a06be0d23b21c3404850d7b7b4b13dd3b69e6939b702ebfff99bcb7e8358e757a269e2d03923c1424a52d5b5b6b73bd5b0986f3fb104edf9ff9dcd78855ee151a46fe4d63f25c7444c54d3b3b0b539d7b29a6d3db306effbfd9fcf7a875ce353a66de6d43d27c5464e56d1b1b2bb37d9bc946333bd08e1f5f391c1748952ed5da863e8da3329cb484058dfbfbcb935dbbe966131bf0ae3f7f193c3768b50ef5faa61ead8312bc94a425addbdbebf33ddb8906737b90ce5f1f795c5708d56e959ac67ecde372dcf4c445cdbbbb8bd31dfba926535bb0ee7f3f597c7728f54eb5bae65eedc352fcd4e465ed9b9bab33fd1b49c6b3bb500e9fdfb99c97c815ae555a06be0d23b21c3404850d7b7b4b13dd3b69e6939b702ebfff99bcb7e8358e757a269e2d03923c1424a52d5b5b6b73bd5b0986f3fb104edf9ff9dcd78855ee151a46fe4d63f25c7444c54d3b3b0b539d7b29a6d3db306effbfd9fcf7a875ce353a66de6d43d27c5464e56d1b1b2bb37d9bc946333bd08e1f5f391c1748952ed5da863e8da3329cb484058dfbfbcb935dbbe966131bf0ae3f7f193c3768b50ef5faa61ead8312bc94a425addbdbebf33ddb8906737b90ce5f1f795c5708d56e959ac67ecde372dcf4c445cdbbbb8bd31dfba926535bb0ee7f3f597c7728f54eb5bae65eedc352fcd4e465ed9b9bab33fd1b49c6b3bb500e9fdfb99c97c815ae555a06be0d23b21c3404850d7b7b4b13dd3b69e6939b702ebfff99bcb7e8358e757a269e2d03923c1424a52d5b5b6b73bd5b0986f3fb104edf9ff9dcd78855ee151a46fe4d63f25c7444c54d3b3b0b539d7b29a6d3db306effbfd9fcf7a875ce353a66de6d43d27c5464e56d1b1b2bb37d9bc946333bd08e1f5f391c1748952ed5da863e8da3329cb484058dfbfbcb935dbbe966131bf0ae3f7f193c3768b50ef5faa61ead8312bc94a425addbdbebf33ddb8906737b90ce5f1f795c5708d56e959ac67ecde372dcf4c445cdbbbb8bd31dfba926535bb0ee7f3f597c7728f54eb5bae65eedc352fcd4e465ed9b9bab33fd1b49c6b3bb500e9fdfb99c97c815ae555a06be0d23b21c3404850d7b7b4b13dd3b69e6939b702ebfff99bcb7e8358e757a269e2d03923c1424a52d5b5b6b73bd5b0986f3fb104edf9ff9dcd78855ee151a46fe4d63f25c7444c54d3b3b0b539d7b29a6d3db306effbfd9fcf7a875ce353a66de6d43d27c5464e56d1b1b2bb37d9bc946333bd08e1f5f391c1748952ed5da863e8da3329cb484058dfbfbcb935dbbe966131bf0ae3f7f193c3768b50ef5faa61ead8312bc94a425addbdbebf33ddb8906737b90ce5f1f795c5708d56e959ac67ecde372dcf4c445cdbbbb8bd31dfba926535bb0ee7f3f597c7728f54eb5bae65eedc352fcd4e465ed9b9bab33fd1b49c6b3bb500e9fdfb99c97c815ae555a06be0d23b21c3404850d7b7b4b13dd3b69e6939b702ebfff99bcb7e8358e757a269e2d03923c1424a52d5b5b6b73bd5b0986f3fb104edf9ff9dcd78855ee151a46fe4d63f25c7444c54d3b3b0b539d7b29a6d3db306effbfd9fcf7a875ce353a66de6d43d27c5464e56d1b1b2bb37d9bc946333bd08e1f5f391c174895edacae74b816772d6d7913e54fc03868d50bf2918e5db1de56970057a72ef843c075fe6f792d00002251203d07efe23301081b269dbfb283d693ed2ee3e96ae6759e354ee97051a6ba3f0f02fd750954d70487a565e9ac7d79ac2de8c538f465e6dba3b39a0b6e0c406efe7010312a3d3e50910d6338e7f62cbff432ed6317f2bc5fff6ad881516fb358999cde8ad61fd26fccb1abeb0e7763b5b5f8c71165291106d393c751d4d83dc181d64645f894fd11a7aff771fad50b3fa861ba95711079085515082b2954e9e97dee611a02159253bf436e56cfe9657cfce382d4dcfec62fe3f28c7704f78d1cc612607279e3b1715027f7db5356d6a987cadfb8c07e4a6f2d6e4d34b5e058677f1890eed998b57a761dba18d032f117af6b7f334834d4949876faff5efd9b87582e059879df1a8e2a92e65072f5dec928946ba6c4a9848a407454e264c9cb97928540191da77a0a6b63a6aa551826e720511d572e2051448aaff1498542ce044064193e5397c24497a1de8ae9531ade6bcb5a138a03c07212c76c64b216d442702c3a719f82521f6947f61b84d3132028509d1c923cc298354b38f386d8ceaeeac8288698c05afbb00bdfd9c7f9c1cc5e5a0e7a717c6d45584321cf88c8fd541fe5bd838392d993292bf62286b22b1906b85ef1bb6ec16a753e502bb5c4bb3587357bffeb07c69088a87408eaea491c3c0624f10a6745af061553ec1c2b55e07843323e8898e08875c2154981a8c810f3b807909a5ae54f536d883c6b067b76ea54687d28f81e1c5553a983b7797b2777a70a52e6b1ab32e92d0331f73190ad10e85ca449b5cff859179ebd4c3a16780a993666e7192952150f00477c1b8b13e88fc5edb01798f345b1d33b0c273633a8f1b73d97175b4d869ad7c2451a7a1e2d4ecbaaf437dc6e57a3b53e55b2f9263a7cb6028d24305e63dca8e58d61992147eb9887ba793358243e3ced3c22dbfe572ed1188bdb3275c2b0d49d3b14cb14da10ee6a76d5b1caec47f9923d79087351f595ce8cbbd10cfd50589d11daf2c6aff42ef35fbee5a49672d9c5044b3c1270be9544cd59a569719dfeb31ff73e0b009d0f0b1a35986b0cb48f1e873e73417597ba03549db78153f883e75bc0659cd0961dcdb731980da43b1101c1e225c473b45d2f29df2d4fc27469b057ca94b32d4d696c1c74b14395098f632008b531270465926d7602d2b7c10b56e9fbc0932c43fab0657e85f1e123d5c93eef0ce87a2a2ad31d62d250357909da3c01e942fee06bf53bec77d0fd7939d8d4cfb347eea3eaf92587593ba022164ca0560b1c4d505a079984cf1ad147b31231ba5cad64e3875d840fc6e73a650675b91e270065c49d8f2e803c926340ce707038bf557372c307c432444805cb98bcd40a1385eead6e9823e84e660e6516174a2422a9c9565b57afc49aa1de43903fb8f5ca2f326dbb55b38cd3bd2a865e6ecfcf876079470c294d58713b2e8e79093bd7ec3c0717d77035f6c7f5effca5d3a9b315a57756459067c999834b881a98765693cb3316075999918f668d77dd645d78186c0fb43a2af3e76a94d3cdb7a57def1b781524dfee9ed5579283d2318dc39ee3047d3469fddcd03b5e05a310624089b016dd011940cdaf2474ce52b646ccf1b99fafe598bbadb0e8744bbc68f4ac66b7033c182b980935f25ca54cc962c3a41a9e0196f03e6410053246c65520b51863bdead1f41e827dc91eebccc431bc0a9e99d6d055f653caba751e49ce886ad0b3064ab3652ffef17ef917e33a42206883766f3ec338668d18b3cf2a4711f2f576b6ca69433ecc00a73d421d8bbddd58cc72f4b4db5188ba2d979f68e5b7ba4145dbefc3cb80d2527fb8bdf4efa75b41f5169296e4a083d2db0b0072d088815d74017776f4045d7b2b361c9fefc203f69a5678008cda3233dec4dfb81f4f5a5b334780c98caa147f5cad299bb90c5a3ca098912075aae3320e3d3bb0156dc2fd639b37beae9cbee1b52fad0db41ddefa7afc4dd19a2260a21a590aa8668d82b4cc3b7ab765ad60952eb43635a476c6a194a42521502cae4dc6b1677b88deb52cd94f4de6748d4311d879e3d375db5e2aa59cb81b8d4fde87849337276a375baf9ba758bbde748c7420161eda0da82f308d871ec1a7fda70d663acecdf4616cad70b4936469e44ad79176bd8679d146b43d9975273f2497db7b64751381fb4e250f6e31cce680950891aa73e74e37e762917bbc00441dfa2e9ef6a0c19462978d8d367e301b151e650a019cb9ef76db6b64f136e7fa749ccf54a31f60cc582646113c66c89eab2764c8d44dbe6200c80785e8847b366152337eeaeeaf4dd6455f88a1723fc4a29e196c6d7c1930631da89f99dacc252201ab19c4c31a6c6d39258d4f9a177d18dfb2f7a5d9600b0c81669fcb915452691ceb5f34126532bc377d8d03c9bce2f27a783391000fbdc7ef2e39376a9faac1ac4be5995f51840778a78a8624483080e01efd654d37a9af311b1784ddf9680540e1a31742ac813add6409a6306552e2db0d52c649f0603bc30f83439241282cb699cf9187929a1515f33c61ad37941895d78c67037ca1d2d062721e98a22762a26dce66adc006e7b2729b19b1a1657380e66f4c951e6a58f543447fe10217fad28cfad968dfffd1356e847963f0f3644591be1dc718eac434b9506d3bb70bf4212c4ec98a9d3c44b769402667d24f6c8bc60f1829a8434cc534690d5979fc3b496b9b99f6636fd25476ec8d6b7de8377de43a672261827462956485305e50fefcae8745046d08f53a8a59f520739b0d6ec910aaa11b7c7c22d78ce503ed8b2d8f2a983c2b5d918fe4ddf8ec82a9874724ffe1ed889f98721287b26e9e88152a7cdc41fd68b9df04275a0fccb35efee28df53215a54c397bb3469987283292d5bd8c72bbe33818813b1ea922536108a55ea5385d4dece8c2e9347913027e3e932e673549eff31b24fbeeaaa4c79f00fa9aef0fdb1c372c35701776ede5ab3f3ba3ea7d9c64805af95ad7aa3ee029e9f09c66f09995e8f0d79e0f899d0e0d3288098f229574012668fd18510abba645b561ea83cc89007cf46f1a732275494526676c37782b7def580ab77006a5ce557b4d669ee1f777554fdea9a9940caed665db2e88aee029c19b25195fe7f57f24c4a6a205e3b1730eefcdda1e9307b17eb8d632fd1b08747caa398b6ccaf3c11c851444da5f22b8cc520de52304c5ba930e2f705e7f54d20c028c5094fba08c7fd9c76c16f180c03674905b5fe369f3f3890e31d585a12e23a3a5d15c618c7aec41e2c292b31386cee868af6cb935499ce44fdf971eeb5081f53deae1c76297a5458436a9af2e235e9d0c84dc76d2fd8a2d812d3e7065fed9b5ab5724f371f34f86350a113146575863757c9baec9e1ebf81f20326077819ac7d0dae6e7e8eb09212533445f60656c7aa9adcdd5dcdde7ecf01a3a5b6570737d9092bcbecad2e30000000000000000000000000000000000000f1d303e01fd210500fc6e660ebe472c165871bce1e8f5ee083850ad47129e7d328fc9abb9bad4ec1417e6634cd8657fcc84199949001d5818e9448f036f53ae2457ed3307c3a8518c7b37d1153540b281561eb219c546587dc11554b35ea95865cd535c7272290dba3fdc30cc0fd18110405af2326cec42967a2380b596868b83cea14f1523763271e85c94963d629aeed5b013ae6745b310b246f08f6248b796c82cb1e3e83e12769e8fbf73d0519ce293744a1654a06d0ec846513e0ea7b44f71e0959613e91fd0de9bd3a6b247028a8d2a430ec535391f477a32a1c3f305803f315bc9c3d3928523807475eb5a89eee7e35afff1c8c1f376d8c96251e751980cb1e0b3eed6953fd9ee47f7ee9867267d3858cb397522585cf8a9bfe5e72eba04e817ad439b74edfbafacea7a445fc0a2ad627ee83d56b64fd11578d289ddd037a958d5260b4d6b21b5aceb4bdf548e180bc66a364cae9f50c6fdf5474105593e1d814c40be49fe9a5d96c17262634a93cc0ccd161041798dc5d173d495e8a76ce24270503d9f8d18e827ef65051bc18e8c4ade1af4a77121d1a080ceb9a7e9e6ae46e6cf735883eedae303a2f8c812ca54bb7e222d7447aec23c0c65916b5e6b01d75468612df75752a23a3ab9d79cecc6b1b22cc459d93ec6223a40f4a6c678cc209e105a0b24f155375a968820a9b511122cfb94a306d3f86fb2834efb9b7fd881a6a06a353fe5dc6b17b9073262bd70d3d1e8081855b82966977434e157ad31d6fd6abb0e3c5b63235ef55a6d13e889f8591af6f21d536a7b429356f30d94cb64fe93bc521838d193cc4689dd72a9c12c34a9da8536968d83c8ae013c59c283e8387e2bb31a8d1f2a1d773e018bfc46829a9ed3b0352ba0035451162074d23c8560e258ed6aa6598e8217d85e1203eaddac5a2de393f65a6ae609c55973fefa5091424ae27c97ab4e0478730db9598646f54468d4e6d02137912d5eb30069c5b9c425225f34b2caa71197616f778ebc4861b2e1007bb8239b2964d6ef589d62b3493f49b528f4b437cb3d9c89c5e4b886e0ecaa4dd336a24455cd6b427aa7576c5c006fe14634bdc2fc74366c2cf743303e684a77bba5526b98b2c2a81a4102b1847d70e7857359b0b56caded1e1dadf02d09d13b8ebf61d74a8fca72807159ac73af435819b2e686ee4c69383f0f4cf7aa2b06269bce41862971ada333d6c1640240273974209aef393cbccd6f7424a780701918d1176983d9b612086f0d581e0ac59b9f6ae1fbfce863f64dba5d66619be1b2604eddd08197c06fcb85b13af92705ca726999e0c67bb23d6f8a713f81c53968952c8bf242aae6eb46afe966e3f19e68a12b6121ba36c0a19a7f5e213fc449bf7cff17897d54d25fa1cc0afb0b2f57ea4bf458f5966446b9dc94ed9576c3aed5f0bdde457e58cd82d80fbbcba540f2053bccba8d5c898f57629143a09086dc0b1aae15d05c4de569f2359a6c7bda676b1fb4f6eeb75392ae3a684dff10b4f53cde6aa879295c35a9b4854f632f3f00e6ab40d27c4d8afec5037435beae8dc77c9d8cea832ecbcefbb720a16d3789bd7a89d2094c3fed5a00cd18f42d229628f0ad3106b47b1a7c9c324fc987a5b62957a0ef93babeb86b720d2584b2d40d2f9ec6e7d39d06c3c3aa398008a0f0956904f563c95cfd7c7b5e06a836bdc5711050dd0a5e60bf8b59b5960c9eed21e5c3aeab08301f660655fc22f3de900022700692724be3b91ff8f34275b4010123b50ed8a2b4c1079828b57e71c98c77a5561699dc5db4c4c1311d695239f477492b7bb2ee342cc02a2ca5dcd0f45eae7c44bc453d462c93d91db3d25eb81b1782d68e91db67000000",
  "txid": "a20b2c0c872cf447dc573ee90af6493d3dabfc150356891c8e516408d30431b2",
  "hash": "321fbe607fc46aa54dee6066a4df009f5671da51296e53850bab318042af56c7",
  "size": 5085,
  "vsize": 2278,
  "version": 1,
  "locktime": 103,
  "vin": [
    {
      "txid": "16a8865efb3226d7d09a23f607d6b4368dee12e5e960f799559e664e71dcc024",
      "vout": 0,
      "scriptSig": {
        "asm": "",
        "hex": ""
      },
      "txinwitness": [
        "54d70487a565e9ac7d79ac2de8c538f465e6dba3b39a0b6e0c406efe7010312a3d3e50910d6338e7f62cbff432ed6317f2bc5fff6ad881516fb358999cde8ad61fd26fccb1abeb0e7763b5b5f8c71165291106d393c751d4d83dc181d64645f894fd11a7aff771fad50b3fa861ba95711079085515082b2954e9e97dee611a02159253bf436e56cfe9657cfce382d4dcfec62fe3f28c7704f78d1cc612607279e3b1715027f7db5356d6a987cadfb8c07e4a6f2d6e4d34b5e058677f1890eed998b57a761dba18d032f117af6b7f334834d4949876faff5efd9b87582e059879df1a8e2a92e65072f5dec928946ba6c4a9848a407454e264c9cb97928540191da77a0a6b63a6aa551826e720511d572e2051448aaff1498542ce044064193e5397c24497a1de8ae9531ade6bcb5a138a03c07212c76c64b216d442702c3a719f82521f6947f61b84d3132028509d1c923cc298354b38f386d8ceaeeac8288698c05afbb00bdfd9c7f9c1cc5e5a0e7a717c6d45584321cf88c8fd541fe5bd838392d993292bf62286b22b1906b85ef1bb6ec16a753e502bb5c4bb3587357bffeb07c69088a87408eaea491c3c0624f10a6745af061553ec1c2b55e07843323e8898e08875c2154981a8c810f3b807909a5ae54f536d883c6b067b76ea54687d28f81e1c5553a983b7797b2777a70a52e6b1ab32e92d0331f73190ad10e85ca449b5cff859179ebd4c3a16780a993666e7192952150f00477c1b8b13e88fc5edb01798f345b1d33b0c273633a8f1b73d97175b4d869ad7c2451a7a1e2d4ecbaaf437dc6e57a3b53e55b2f9263a7cb6028d24305e63dca8e58d61992147eb9887ba793358243e3ced3c22dbfe572ed1188bdb3275c2b0d49d3b14cb14da10ee6a76d5b1caec47f9923d79087351f595ce8cbbd10cfd50589d11daf2c6aff42ef35fbee5a49672d9c5044b3c1270be9544cd59a569719dfeb31ff73e0b009d0f0b1a35986b0cb48f1e873e73417597ba03549db78153f883e75bc0659cd0961dcdb731980da43b1101c1e225c473b45d2f29df2d4fc27469b057ca94b32d4d696c1c74b14395098f632008b531270465926d7602d2b7c10b56e9fbc0932c43fab0657e85f1e123d5c93eef0ce87a2a2ad31d62d250357909da3c01e942fee06bf53bec77d0fd7939d8d4cfb347eea3eaf92587593ba022164ca0560b1c4d505a079984cf1ad147b31231ba5cad64e3875d840fc6e73a650675b91e270065c49d8f2e803c926340ce707038bf557372c307c432444805cb98bcd40a1385eead6e9823e84e660e6516174a2422a9c9565b57afc49aa1de43903fb8f5ca2f326dbb55b38cd3bd2a865e6ecfcf876079470c294d58713b2e8e79093bd7ec3c0717d77035f6c7f5effca5d3a9b315a57756459067c999834b881a98765693cb3316075999918f668d77dd645d78186c0fb43a2af3e76a94d3cdb7a57def1b781524dfee9ed5579283d2318dc39ee3047d3469fddcd03b5e05a310624089b016dd011940cdaf2474ce52b646ccf1b99fafe598bbadb0e8744bbc68f4ac66b7033c182b980935f25ca54cc962c3a41a9e0196f03e6410053246c65520b51863bdead1f41e827dc91eebccc431bc0a9e99d6d055f653caba751e49ce886ad0b3064ab3652ffef17ef917e33a42206883766f3ec338668d18b3cf2a4711f2f576b6ca69433ecc00a73d421d8bbddd58cc72f4b4db5188ba2d979f68e5b7ba4145dbefc3cb80d2527fb8bdf4efa75b41f5169296e4a083d2db0b0072d088815d74017776f4045d7b2b361c9fefc203f69a5678008cda3233dec4dfb81f4f5a5b334780c98caa147f5cad299bb90c5a3ca098912075aae3320e3d3bb0156dc2fd639b37beae9cbee1b52fad0db41ddefa7afc4dd19a2260a21a590aa8668d82b4cc3b7ab765ad60952eb43635a476c6a194a42521502cae4dc6b1677b88deb52cd94f4de6748d4311d879e3d375db5e2aa59cb81b8d4fde87849337276a375baf9ba758bbde748c7420161eda0da82f308d871ec1a7fda70d663acecdf4616cad70b4936469e44ad79176bd8679d146b43d9975273f2497db7b64751381fb4e250f6e31cce680950891aa73e74e37e762917bbc00441dfa2e9ef6a0c19462978d8d367e301b151e650a019cb9ef76db6b64f136e7fa749ccf54a31f60cc582646113c66c89eab2764c8d44dbe6200c80785e8847b366152337eeaeeaf4dd6455f88a1723fc4a29e196c6d7c1930631da89f99dacc252201ab19c4c31a6c6d39258d4f9a177d18dfb2f7a5d9600b0c81669fcb915452691ceb5f34126532bc377d8d03c9bce2f27a783391000fbdc7ef2e39376a9faac1ac4be5995f51840778a78a8624483080e01efd654d37a9af311b1784ddf9680540e1a31742ac813add6409a6306552e2db0d52c649f0603bc30f83439241282cb699cf9187929a1515f33c61ad37941895d78c67037ca1d2d062721e98a22762a26dce66adc006e7b2729b19b1a1657380e66f4c951e6a58f543447fe10217fad28cfad968dfffd1356e847963f0f3644591be1dc718eac434b9506d3bb70bf4212c4ec98a9d3c44b769402667d24f6c8bc60f1829a8434cc534690d5979fc3b496b9b99f6636fd25476ec8d6b7de8377de43a672261827462956485305e50fefcae8745046d08f53a8a59f520739b0d6ec910aaa11b7c7c22d78ce503ed8b2d8f2a983c2b5d918fe4ddf8ec82a9874724ffe1ed889f98721287b26e9e88152a7cdc41fd68b9df04275a0fccb35efee28df53215a54c397bb3469987283292d5bd8c72bbe33818813b1ea922536108a55ea5385d4dece8c2e9347913027e3e932e673549eff31b24fbeeaaa4c79f00fa9aef0fdb1c372c35701776ede5ab3f3ba3ea7d9c64805af95ad7aa3ee029e9f09c66f09995e8f0d79e0f899d0e0d3288098f229574012668fd18510abba645b561ea83cc89007cf46f1a732275494526676c37782b7def580ab77006a5ce557b4d669ee1f777554fdea9a9940caed665db2e88aee029c19b25195fe7f57f24c4a6a205e3b1730eefcdda1e9307b17eb8d632fd1b08747caa398b6ccaf3c11c851444da5f22b8cc520de52304c5ba930e2f705e7f54d20c028c5094fba08c7fd9c76c16f180c03674905b5fe369f3f3890e31d585a12e23a3a5d15c618c7aec41e2c292b31386cee868af6cb935499ce44fdf971eeb5081f53deae1c76297a5458436a9af2e235e9d0c84dc76d2fd8a2d812d3e7065fed9b5ab5724f371f34f86350a113146575863757c9baec9e1ebf81f20326077819ac7d0dae6e7e8eb09212533445f60656c7aa9adcdd5dcdde7ecf01a3a5b6570737d9092bcbecad2e30000000000000000000000000000000000000f1d303e01",
        "00fc6e660ebe472c165871bce1e8f5ee083850ad47129e7d328fc9abb9bad4ec1417e6634cd8657fcc84199949001d5818e9448f036f53ae2457ed3307c3a8518c7b37d1153540b281561eb219c546587dc11554b35ea95865cd535c7272290dba3fdc30cc0fd18110405af2326cec42967a2380b596868b83cea14f1523763271e85c94963d629aeed5b013ae6745b310b246f08f6248b796c82cb1e3e83e12769e8fbf73d0519ce293744a1654a06d0ec846513e0ea7b44f71e0959613e91fd0de9bd3a6b247028a8d2a430ec535391f477a32a1c3f305803f315bc9c3d3928523807475eb5a89eee7e35afff1c8c1f376d8c96251e751980cb1e0b3eed6953fd9ee47f7ee9867267d3858cb397522585cf8a9bfe5e72eba04e817ad439b74edfbafacea7a445fc0a2ad627ee83d56b64fd11578d289ddd037a958d5260b4d6b21b5aceb4bdf548e180bc66a364cae9f50c6fdf5474105593e1d814c40be49fe9a5d96c17262634a93cc0ccd161041798dc5d173d495e8a76ce24270503d9f8d18e827ef65051bc18e8c4ade1af4a77121d1a080ceb9a7e9e6ae46e6cf735883eedae303a2f8c812ca54bb7e222d7447aec23c0c65916b5e6b01d75468612df75752a23a3ab9d79cecc6b1b22cc459d93ec6223a40f4a6c678cc209e105a0b24f155375a968820a9b511122cfb94a306d3f86fb2834efb9b7fd881a6a06a353fe5dc6b17b9073262bd70d3d1e8081855b82966977434e157ad31d6fd6abb0e3c5b63235ef55a6d13e889f8591af6f21d536a7b429356f30d94cb64fe93bc521838d193cc4689dd72a9c12c34a9da8536968d83c8ae013c59c283e8387e2bb31a8d1f2a1d773e018bfc46829a9ed3b0352ba0035451162074d23c8560e258ed6aa6598e8217d85e1203eaddac5a2de393f65a6ae609c55973fefa5091424ae27c97ab4e0478730db9598646f54468d4e6d02137912d5eb30069c5b9c425225f34b2caa71197616f778ebc4861b2e1007bb8239b2964d6ef589d62b3493f49b528f4b437cb3d9c89c5e4b886e0ecaa4dd336a24455cd6b427aa7576c5c006fe14634bdc2fc74366c2cf743303e684a77bba5526b98b2c2a81a4102b1847d70e7857359b0b56caded1e1dadf02d09d13b8ebf61d74a8fca72807159ac73af435819b2e686ee4c69383f0f4cf7aa2b06269bce41862971ada333d6c1640240273974209aef393cbccd6f7424a780701918d1176983d9b612086f0d581e0ac59b9f6ae1fbfce863f64dba5d66619be1b2604eddd08197c06fcb85b13af92705ca726999e0c67bb23d6f8a713f81c53968952c8bf242aae6eb46afe966e3f19e68a12b6121ba36c0a19a7f5e213fc449bf7cff17897d54d25fa1cc0afb0b2f57ea4bf458f5966446b9dc94ed9576c3aed5f0bdde457e58cd82d80fbbcba540f2053bccba8d5c898f57629143a09086dc0b1aae15d05c4de569f2359a6c7bda676b1fb4f6eeb75392ae3a684dff10b4f53cde6aa879295c35a9b4854f632f3f00e6ab40d27c4d8afec5037435beae8dc77c9d8cea832ecbcefbb720a16d3789bd7a89d2094c3fed5a00cd18f42d229628f0ad3106b47b1a7c9c324fc987a5b62957a0ef93babeb86b720d2584b2d40d2f9ec6e7d39d06c3c3aa398008a0f0956904f563c95cfd7c7b5e06a836bdc5711050dd0a5e60bf8b59b5960c9eed21e5c3aeab08301f660655fc22f3de900022700692724be3b91ff8f34275b4010123b50ed8a2b4c1079828b57e71c98c77a5561699dc5db4c4c1311d695239f477492b7bb2ee342cc02a2ca5dcd0f45eae7c44bc453d462c93d91db3d25eb81b1782d68e91db"
      ],
      "sequence": 4294967294
    }
  ],
  "vout": [
    {
      "value": 1.0,
      "n": 0,
      "scriptPubKey": {
        "asm": "OP_RETURN 7adcd2d9149022b90d651c797cbbe65db96eea2fe77407eedf6b072f08c133f0 33fd1b49c6b3bb500e9fdfb99c97c815ae555a06be0d23b21c3404850d7b7b4b13dd3b69e6939b702ebfff99bcb7e8358e757a269e2d03923c1424a52d5b5b6b73bd5b0986f3fb104edf9ff9dcd78855ee151a46fe4d63f25c7444c54d3b3b0b539d7b29a6d3db306effbfd9fcf7a875ce353a66de6d43d27c5464e56d1b1b2bb37d9bc946333bd08e1f5f391c1748952ed5da863e8da3329cb484058dfbfbcb935dbbe966131bf0ae3f7f193c3768b50ef5faa61ead8312bc94a425addbdbebf33ddb8906737b90ce5f1f795c5708d56e959ac67ecde372dcf4c445cdbbbb8bd31dfba926535bb0ee7f3f597c7728f54eb5bae65eedc352fcd4e465ed9b9bab33fd1b49c6b3bb500e9fdfb99c97c815ae555a06be0d23b21c3404850d7b7b4b13dd3b69e6939b702ebfff99bcb7e8358e757a269e2d03923c1424a52d5b5b6b73bd5b0986f3fb104edf9ff9dcd78855ee151a46fe4d63f25c7444c54d3b3b0b539d7b29a6d3db306effbfd9fcf7a875ce353a66de6d43d27c5464e56d1b1b2bb37d9bc946333bd08e1f5f391c1748952ed5da863e8da3329cb484058dfbfbcb935dbbe966131bf0ae3f7f193c3768b50ef5faa61ead8312bc94a425addbdbebf33ddb8906737b90ce5f1f795c5708d56e959ac67ecde372dcf4c445cdbbbb8bd31dfba926535bb0ee7f3f597c7728f54eb5bae65eedc352fcd4e465ed9b9bab33fd1b49c6b3bb500e9fdfb99c97c815ae555a06be0d23b21c3404850d7b7b4b13dd3b69e6939b702ebfff99bcb7e8358e757a269e2d03923c1424a52d5b5b6b73bd5b0986f3fb104edf9ff9dcd78855ee151a46fe4d63f25c7444c54d3b3b0b539d7b29a6d3db306effbfd9fcf7a875ce353a66de6d43d27c5464e56d1b1b2bb37d9bc946333bd08e1f5f391c1748952ed5da863e8da3329cb484058dfbfbcb935dbbe966131bf0ae3f7f193c3768b50ef5faa61ead8312bc94a425addbdbebf33ddb8906737b90ce5f1f795c5708d56e959ac67ecde372dcf4c445cdbbbb8bd31dfba926535bb0ee7f3f597c7728f54eb5bae65eedc352fcd4e465ed9b9bab33fd1b49c6b3bb500e9fdfb99c97c815ae555a06be0d23b21c3404850d7b7b4b13dd3b69e6939b702ebfff99bcb7e8358e757a269e2d03923c1424a52d5b5b6b73bd5b0986f3fb104edf9ff9dcd78855ee151a46fe4d63f25c7444c54d3b3b0b539d7b29a6d3db306effbfd9fcf7a875ce353a66de6d43d27c5464e56d1b1b2bb37d9bc946333bd08e1f5f391c1748952ed5da863e8da3329cb484058dfbfbcb935dbbe966131bf0ae3f7f193c3768b50ef5faa61ead8312bc94a425addbdbebf33ddb8906737b90ce5f1f795c5708d56e959ac67ecde372dcf4c445cdbbbb8bd31dfba926535bb0ee7f3f597c7728f54eb5bae65eedc352fcd4e465ed9b9bab33fd1b49c6b3bb500e9fdfb99c97c815ae555a06be0d23b21c3404850d7b7b4b13dd3b69e6939b702ebfff99bcb7e8358e757a269e2d03923c1424a52d5b5b6b73bd5b0986f3fb104edf9ff9dcd78855ee151a46fe4d63f25c7444c54d3b3b0b539d7b29a6d3db306effbfd9fcf7a875ce353a66de6d43d27c5464e56d1b1b2bb37d9bc946333bd08e1f5f391c174895edacae74b816772d6d7913e54fc03868d50bf2918e5db1de56970057a72ef843",
        "hex": "6a207adcd2d9149022b90d651c797cbbe65db96eea2fe77407eedf6b072f08c133f04db00433fd1b49c6b3bb500e9fdfb99c97c815ae555a06be0d23b21c3404850d7b7b4b13dd3b69e6939b702ebfff99bcb7e8358e757a269e2d03923c1424a52d5b5b6b73bd5b0986f3fb104edf9ff9dcd78855ee151a46fe4d63f25c7444c54d3b3b0b539d7b29a6d3db306effbfd9fcf7a875ce353a66de6d43d27c5464e56d1b1b2bb37d9bc946333bd08e1f5f391c1748952ed5da863e8da3329cb484058dfbfbcb935dbbe966131bf0ae3f7f193c3768b50ef5faa61ead8312bc94a425addbdbebf33ddb8906737b90ce5f1f795c5708d56e959ac67ecde372dcf4c445cdbbbb8bd31dfba926535bb0ee7f3f597c7728f54eb5bae65eedc352fcd4e465ed9b9bab33fd1b49c6b3bb500e9fdfb99c97c815ae555a06be0d23b21c3404850d7b7b4b13dd3b69e6939b702ebfff99bcb7e8358e757a269e2d03923c1424a52d5b5b6b73bd5b0986f3fb104edf9ff9dcd78855ee151a46fe4d63f25c7444c54d3b3b0b539d7b29a6d3db306effbfd9fcf7a875ce353a66de6d43d27c5464e56d1b1b2bb37d9bc946333bd08e1f5f391c1748952ed5da863e8da3329cb484058dfbfbcb935dbbe966131bf0ae3f7f193c3768b50ef5faa61ead8312bc94a425addbdbebf33ddb8906737b90ce5f1f795c5708d56e959ac67ecde372dcf4c445cdbbbb8bd31dfba926535bb0ee7f3f597c7728f54eb5bae65eedc352fcd4e465ed9b9bab33fd1b49c6b3bb500e9fdfb99c97c815ae555a06be0d23b21c3404850d7b7b4b13dd3b69e6939b702ebfff99bcb7e8358e757a269e2d03923c1424a52d5b5b6b73bd5b0986f3fb104edf9ff9dcd78855ee151a46fe4d63f25c7444c54d3b3b0b539d7b29a6d3db306effbfd9fcf7a875ce353a66de6d43d27c5464e56d1b1b2bb37d9bc946333bd08e1f5f391c1748952ed5da863e8da3329cb484058dfbfbcb935dbbe966131bf0ae3f7f193c3768b50ef5faa61ead8312bc94a425addbdbebf33ddb8906737b90ce5f1f795c5708d56e959ac67ecde372dcf4c445cdbbbb8bd31dfba926535bb0ee7f3f597c7728f54eb5bae65eedc352fcd4e465ed9b9bab33fd1b49c6b3bb500e9fdfb99c97c815ae555a06be0d23b21c3404850d7b7b4b13dd3b69e6939b702ebfff99bcb7e8358e757a269e2d03923c1424a52d5b5b6b73bd5b0986f3fb104edf9ff9dcd78855ee151a46fe4d63f25c7444c54d3b3b0b539d7b29a6d3db306effbfd9fcf7a875ce353a66de6d43d27c5464e56d1b1b2bb37d9bc946333bd08e1f5f391c1748952ed5da863e8da3329cb484058dfbfbcb935dbbe966131bf0ae3f7f193c3768b50ef5faa61ead8312bc94a425addbdbebf33ddb8906737b90ce5f1f795c5708d56e959ac67ecde372dcf4c445cdbbbb8bd31dfba926535bb0ee7f3f597c7728f54eb5bae65eedc352fcd4e465ed9b9bab33fd1b49c6b3bb500e9fdfb99c97c815ae555a06be0d23b21c3404850d7b7b4b13dd3b69e6939b702ebfff99bcb7e8358e757a269e2d03923c1424a52d5b5b6b73bd5b0986f3fb104edf9ff9dcd78855ee151a46fe4d63f25c7444c54d3b3b0b539d7b29a6d3db306effbfd9fcf7a875ce353a66de6d43d27c5464e56d1b1b2bb37d9bc946333bd08e1f5f391c174895edacae74b816772d6d7913e54fc03868d50bf2918e5db1de56970057a72ef843",
        "type": "nulldata"
      }
    },
    {
      "value": 499995.9324,
      "n": 1,
      "scriptPubKey": {
        "asm": "1 3d07efe23301081b269dbfb283d693ed2ee3e96ae6759e354ee97051a6ba3f0f",
        "hex": "51203d07efe23301081b269dbfb283d693ed2ee3e96ae6759e354ee97051a6ba3f0f",
        "reqSigs": 1,
        "type": "witness_v1_scripthash",
        "addresses": [
          "3QJmnh"
        ]
      }
    }
  ],
  "blockhash": "15af9b025c636b87e0a10c18a1a8de0e5f3c2069ad563b293161176d75df89a4",
  "confirmations": 1,
  "time": 1764174659,
  "blocktime": 1764174659
}