{
  "hex": "01000000000101a664610638f05ae0162864d972d58946195c15af3bb9e9dcb080c21303faf6f20100000000feffffff02202367d2782d00002251201f2f8b4e02ff533306883cc9b342dd5ae987193dfb1837d0d0e92331ef1d817800e1f50500000000fdd5046a20475bf47c0905cea6b6aa65d85bf5e5e730d2225185cfa202371c724092cc4c914db004d874a0ee33ac13913caa8f1b504697d644565c5fdc6c6ec179e1ed8e6f8052ddf85480ce138c33b11c8aaf3b7066b7f664767c7ffc4c4ee159c1cdae4fa072fd9834e0ae73ec53d17ceacf5b1006d79604161c1f9c2c2e8139a1adce2fc0129db814c08e53cc73f15ccaef7b3026f7b624363c3fbc0c0ea119818dee0fe032bd58f4206eb32c9311bc2a0f9bd0c61756c4d6dcdf5cecee41f9616d0eef00d25d78d4004e930cb3319c0a2fbbf0e63776e4f6fcff7cccce61d9414d2ecf20f27d18b4602ef36cd351fc6a4fdb9086571684969c9f1cacae01b9212d4eaf40921d3894400ed34cf371dc4a6ffbb0a67736a4b6bcbf3c8c8e2199010d6e8f60b23dd874a0ee33ac13913caa8f1b504697d644565c5fdc6c6ec179e1ed8e6f8052ddf85480ce138c33b11c8aaf3b7066b7f664767c7ffc4c4ee159c1cdae4fa072fd9834e0ae73ec53d17ceacf5b1006d79604161c1f9c2c2e8139a1adce2fc0129db814c08e53cc73f15ccaef7b3026f7b624363c3fbc0c0ea119818dee0fe032bd58f4206eb32c9311bc2a0f9bd0c61756c4d6dcdf5cecee41f9616d0eef00d25d78d4004e930cb3319c0a2fbbf0e63776e4f6fcff7cccce61d9414d2ecf20f27d18b4602ef36cd351fc6a4fdb9086571684969c9f1cacae01b9212d4eaf40921d3894400ed34cf371dc4a6ffbb0a67736a4b6bcbf3c8c8e2199010d6e8f60b23dd874a0ee33ac13913caa8f1b504697d644565c5fdc6c6ec179e1ed8e6f8052ddf85480ce138c33b11c8aaf3b7066b7f664767c7ffc4c4ee159c1cdae4fa072fd9834e0ae73ec53d17ceacf5b1006d79604161c1f9c2c2e8139a1adce2fc0129db814c08e53cc73f15ccaef7b3026f7b624363c3fbc0c0ea119818dee0fe032bd58f4206eb32c9311bc2a0f9bd0c61756c4d6dcdf5cecee41f9616d0eef00d25d78d4004e930cb3319c0a2fbbf0e63776e4f6fcff7cccce61d9414d2ecf20f27d18b4602ef36cd351fc6a4fdb9086571684969c9f1cacae01b9212d4eaf40921d3894400ed34cf371dc4a6ffbb0a67736a4b6bcbf3c8c8e2199010d6e8f60b23dd874a0ee33ac13913caa8f1b504697d644565c5fdc6c6ec179e1ed8e6f8052ddf85480ce138c33b11c8aaf3b7066b7f664767c7ffc4c4ee159c1cdae4fa072fd9834e0ae73ec53d17ceacf5b1006d79604161c1f9c2c2e8139a1adce2fc0129db814c08e53cc73f15ccaef7b3026f7b624363c3fbc0c0ea119818dee0fe032bd58f4206eb32c9311bc2a0f9bd0c61756c4d6dcdf5cecee41f9616d0eef00d25d78d4004e930cb3319c0a2fbbf0e63776e4f6fcff7cccce61d9414d2ecf20f27d18b4602ef36cd351fc6a4fdb9086571684969c9f1cacae01b9212d4eaf40921d3894400ed34cf371dc4a6ffbb0a67736a4b6bcbf3c8c8e2199010d6e8f60b23dd874a0ee33ac13913caa8f1b504697d644565c5fdc6c6ec179e1ed8e6f8052ddf85480ce138c33b11c8aaf3b7066b7f664767c7ffc4c4ee159c1cdae4fa072fd9834e0ae73ec53d17ceacf5b1006d79604161c1f9c2c2e8139a1adce2fc0129db814c08e53cc73f15ccaef7b3026f7b624363c3fbc0c0ea119818dee0fe032bd58f4206eb32c9311bc2a0f9bd0c61756b6fa67c8c1e01116a27f8cd837343a23a979d4c1e939804b48c925d4349ee85902fd75093ca03028f42e61fd205aa74b2bd3a576bb8daf6873d93d6790d5f4629a6442ee673d4e33a3a5de977fd8b7797e437c5e63e8471cec423908ea9ee6c9038fb83cad0dd282c96f134045c49fa38d01ac4fc6c81901f8aee19ed2ca93ed49d92b68077f79995859462f65be04afb396a8853537b90f180d84215f56aae6401b15c5e6921bec9bf2bc5d034b9a5d6f45695c57c5251c6bfd8c718b64543b9b542c10a5ac837ceb3ceff6351572457cdd005514867a5a2bd15d554e579a035f02dc381486017ccc73804cf1f375e2ea21f924f2575c59a3b78e9028ee0e72e8d1363a4107eae056d1c0505603316a0951b6a26f83b6fa4d6ab15edab0b2322aa117220892f3921489c195adca6fdb5e8c8179052d50365d0186d54f1986b2cc4c0df9f2401ba19f893c1537662b3f51515a669837c5e9e370d0e1a9c9e084f260270dcc4b85971bb667806f0f6d24fda33a5cd41bc341509569fd96d2a30f89aac8ed8ea8261b8f784c0b894baf5b7427248558db96673adce3d0556b6c2633966d385b7c90b83d98500a9a94cc293f17093ffde5ef96fdd90cc29c890a45da2d1ecb7a88de9390991f32eadaf78f7bb05a22fd195e987f0cdd82d3b80bb071bbe2c909cd81f34f9c6edd2a1c2233e0bf3bc54509e7c08aabedb091131557fc9f68efeff37bb5e27b9978f99a82d3ddcb00e95e84c6053273571a8d81c25758ff4c65c36083870e0c8b8b3e568188934b2c0e48706d252d41ea4808e6a4431d49f489c86e6c06d71a7da45e7d555db04ffbc3a0e86a035c2b1e25868833200df35aa2d133b22cd9654e710752c8e1a04ca00f0d5b136094070187db38b9d6436640e171466ff29caf6c812afa91dfccfb721688d2acdfcde76ad973db6605692031b8b711fc1f51e8522064e8efac21eae6912a6d2c2465993fd3eb882eee9079e8f8e7521bc8dba1de9a29bd71ea1ff1a5e024553f59601f388aaf8054502749cc4830adad6f637622e6bc9e928d2e28eb3f3c6afd31c237d2d94ca5a0b2980afd1b57054d4413e8da0abbd2d2a2fd6993f11d46b00b05487bbf1b52bf857ff5b8bbc41e8d702d90667d3442443aa70eb6b126608aadc291063a700719ae69cd92f09a78a88b5ce6ca785ddc7203525117b9bf609f2d43453c0e26c28ffb07c9c6ea677b2a7eebbc62095084394ceb70fe4987d572fc722a9f4ca6ed1821263662bcd9dc055e5c6f122512e00c5b36d45918925e6e6ae8ebe15661e95903bbbc01e9c79ee45ba8642cd74f99795cc6e23518b57d111cf845e02206492a11893ece1576d0799f66ebbc0b52ee78229ab86b43e83cf8cf6952b9d90ff642482dca8d97598f068375011d782a1ccaeafcf735e64e22248b3cbc8cdd6f392439a0bb7959c0fc48d738565c273d6bed44bb80c8afea7327f8b50035020077583db5d4b33d177dc557fc24055ce36cb338239f73fb65ef371d5a573c603184f9a64cfbda4061d1132284e1fd5f3e07fb618448e7bf4f8f04ff543c07f92556218235778cacbbee57657f55a4374896e2c037f828f686be1841035a3271149187df89e19ecbc28e46f782388288a8a9c3c963e2e2165c62d8ffefa4563ec5a91eb08816c2caf2843550bcc8fe418ef8ab0d2465d8d13fd0fe99dae254fc1f29d259f2c96ca31ea0f1dbbf6d9806abcbb0eb5136c5261d2c1bd37ec3c16d4eb3de7dcbc1b78d15f5910e4c0bf690ba440f6bfad9eba3248ced3f9d7c58baf4f7f80c053cf56eecc0d150927bd1ec67629102970a2097b0727e4209b60797a518607f29085162d29bcf05bf75267d51a2e34bb0a004c9e568f98477df1ac58f743ac3f62d27b0f37251b924abac4d07d07ee857700854ca175150490a6922b24b39a5c4b829de4d7d7e5e1b0b33f250073436e8e431b47cb4e6fb5f58df41aaf47cfe75d855daa1f3a44561926de301a33cec66cdd6518a58bb5667596484e83a093b8e6f0bb2cc0a9014717c232f704c9327d6ec024a1618f13002b8bad20a8ce60e987150895d947c87b6efaf9da146297fc8f2a33a0c109e1fbf082b7963fc314d9f13f1260fcf6bb8b97009c0a0a19f04ecc4ad55f6e344d730830f38b142a3d8479b787dea9447dc6a0d17680cbd75fa83a8fdb444c48c9a356a069264d60315cba53f164319d1d4c65113a9b6529de85b84963ec1890848bda946c9666f51213a7d47c9fb4d3b7d596f417453a0a4a415a44ac7d5f0a8be5dde13bbaf71ea9dc905d40da5c04efaa05b69ac63fa14fd554b7f0d75d7931798f61e190491b0dc21c39bb2ee4abe07f9f384b3dc74fc296baa9e8984afc668620dd134e6fe5510704f49bf6761205cf9ab9645c06c104570005b09a633681c95ab2edebddca194b4cd2daef5ce7f9adb88db74889fec50c18fde85dd0bc5fbde9dec0093d2606fd3eeddb68ed7cef5302379d9b44c8cff5fd34b5fc418c65d81d9420bc5c776b45e4d7056049e6bdf45ef158687c264e10fec274832c76996330850c592f0e0f73109d2d6570f8db1a9eecca68021597a503eb5e7b0bdc3cab74dcc71a0e512e1272f2800b911abe46cb75431e185a048185a01e5ff5e7f2dc7cb7f09261aa7aed69094d3ce89048543921361f1c602991072b857c15759e216c578b4e0001e6f1978b0205a52dd775da5845d7c6680fe6edac7e22d5341bb077902a42404abd4906cc5c57ef690ba97469d2b9bfe88299c93dbac7b4f3c68c3496b284d84c8dbcb17836c112eb7d6a6165979faa3628b8643162c82642e236017b174216235c3caf46c123819dd261a6cda8784a0447d99b7731f4e60cd8d6eb0c4cb8019223f857e89f596e342df836d67c1a27e28622c51754067eaf92ea006911054c829ca84384c0b95513c8043f9c3f20283d19b8f4b1baf854a5612d386fd6e84032383e32775e71253e9106197581dced6287eb825b7ddd53dd4679ddc69b5fa89195a944dff16f710c7d7001f58fb20bcd0fd29ff6eeb7584bb27502376dd8761bf3f826c766b96cfb8264c4b5128e11ea1bbc8bab9ad9621d05b983294c6789258ddf485d6034e6a7e8d646a3b98ead6d3964472406337ceaec496e832f32968f2d90361126d1bdcd21792c5ce1e6da0218e482806664197d6089bb55829ebe0e9d899e30bd0a6848350f6c72743d32d5ffa4832a07d334b767cf121b574170e9cb8be45849b92cb6053ae3fb39b10bd3e93562573fd6133ff3b27ba3e847e3f3974c6810db48997480b887fdc1d5619763f0c929f136d61d3470678f7f7bb17cc36d594d63f071323296388a2b7bec2cde3eaeffc0a152b2e3139425e7176779bc0e1e4e7f51519475e626bb6bbca051750566572c2daeaeef9000000000000000000000000000000000000000000000000000000000f20293401fd210500b54161916f530ff0aa31e1e79b4565e4b8127cf2bcb0812f9771b76a07c74a05b54abc27457cbe8b04efb959b7564a9ff5622cf960a8cab430cf09a3123eac9c004c3c8924ac878182372256252d7d7d3a2712564bffe19769d254289bf51881f4f017d19bc144167670ed249fd06091bca6a6cacde2c847e4be3f13d11ae920bb4ef9af5602de82a5bd8b54032be96d32824a4634c2af1b7002ad9151db541edc787ff43723869ade7c74471e34fceda47898d62b3d7d00b9a4d0c55da8242a7b2062258993f3d2289b871c84c780e3abd8353aac96af63854fda73f6c8c9f9a7e3cea5d3be22ba4849d56eff67c56ff576f8ac37c89f9e68894fc0b049eb595326f65673026628523bfd10e3ddebda07c741a19042bf5025184fdad44c592eec3dda07c10bd96708912793132eeb0fa9c2dbb8a0993ba330d72aaf6c30e32e6df9dbc77df8eaeadc7a44157a9dd39299b09c55a9c87382e611a9e9a79e0a24c0bd6920d5b83f5d5456655349e412b7ee9ff039f8551e63cbb7d95db32b037f1e9881cebb52bc0b5461be7e0e366c406654a603b23a9289885beb41faa851e5817c68f31904221b788076ea5bc5a19493fbe76536d9a058aaf5694534f49fac320e2e59e937a4c1b523194adf02aaec1a7e3f5689865c683fd3cadf7645b4ca7c687a1c3b7488d0d9c4c5e1b4b2d7d3f168f0acb29bdb5e86c845db1ceb3317a112641e94a34aa8b5f2484ee3ff2350667039dd57a54c6064f3ff186fcd2ee9d5ad4ba016ae56c832bf0dee04c729587342e6741f897848b4765cf7978df3c31144ee9f72652ca3c02d30e742b98694e8d315a97fc0adafb0ad3523005bca6797a4496fdca0310a2e1f4bc530e185433516441609041a735226fd30576e4a78aae7f4af5fe9a7a454918ae2100c6fcf4dccf4a4c9e495b7975033dc1e91399c5187e3b55068bfdc96d10a6975b4910eb3a0be5c3abc19d200c19826529f8bfc57bb4493db4492c558562061e6c9d0a5a62caa9666e1c5103a6b1cf44e4941527b44e59ff414ba25a92b07b5cee72d7bb1976d27252e46929ca8ac7cde56a7aafc09864c929fa036c3ecd9263bbbbea7191e13161ff2cb6225fcb3e233a7f91ffa1b9c4b29890b356bff061f29a91415e9f2d4cf30820b05e9e792143ecb19da304e2502cfe99fb6b4de82bb59a08a2e6f8ef851b005ae73f1d69a23958e5665b42897b7e4ba07568a7c6e7729d9c206468a4402d1ba0ba75f45620dcf9dc8d826bfab91cbc7572407ff49a18c1557274279ee076d80acec38d6a3ef5e814ed5958a7547b54c43e1148714ae705d59e9a2c3719682f9b75075fc88972eca3a2bff5aae592b028f53782ba4f002219cf385445b334b5dd9297b33ab012d9552b006c2e1dd5aae9ba044a23cc700d365ca8376ebcddf6004ef486efdc3177ed0f316dd08392695f0ed4a7d225e4f397ccb16c6f8b813722d050d3cf57dbad06a5849051d21f2572033ae5a0c25f69efa32a80d89b4a85cee93f6f9dfdd51b8e81c6596fffe62433a0d6874962d8bd35cb66d71de969ab2c3df6f657f12e8219707e9a9b7d59d9873b121c7ab5ccf6b273ceb1e7613f0e307df107dca3641cc4dede6dfb108468e8fd4f7232aef6de11ae8536e7e8233554e9c7c9a9d7026b834d88cd7c20e74e8e0e4c0846e1d477ccf2af0d65551f8c2357b3603bd463c9416247f5de91efcc26d07feb67767a147ad70dbd30055d32c1add4641fbef87ca1accaf4b4b7407ddedddf332b3247db74163db5adb2b8025f39834a7d99250a04df9a5c0709597025115f10a2917d0511418935f357c2915e3595d52082bba25390b86000000",
  "txid": "b11efef89f95b180b319a1a34f320172e92dc01e4d3a78b23badcb9e791d4120",
  "hash": "55e16593fe34a4b3b826eadc280ddff0295ad345aa2bbdad980a04247cf55a85",
  "size": 5085,
  "vsize": 2278,
  "version": 1,
  "locktime": 134,
  "vin": [
    {
      "txid": "f2f6fa0313c280b0dce9b93baf155c194689d572d9642816e05af038066164a6",
      "vout": 1,
      "scriptSig": {
        "asm": "",
        "hex": ""
      },
      "txinwitness": [
        "3ca03028f42e61fd205aa74b2bd3a576bb8daf6873d93d6790d5f4629a6442ee673d4e33a3a5de977fd8b7797e437c5e63e8471cec423908ea9ee6c9038fb83cad0dd282c96f134045c49fa38d01ac4fc6c81901f8aee19ed2ca93ed49d92b68077f79995859462f65be04afb396a8853537b90f180d84215f56aae6401b15c5e6921bec9bf2bc5d034b9a5d6f45695c57c5251c6bfd8c718b64543b9b542c10a5ac837ceb3ceff6351572457cdd005514867a5a2bd15d554e579a035f02dc381486017ccc73804cf1f375e2ea21f924f2575c59a3b78e9028ee0e72e8d1363a4107eae056d1c0505603316a0951b6a26f83b6fa4d6ab15edab0b2322aa117220892f3921489c195adca6fdb5e8c8179052d50365d0186d54f1986b2cc4c0df9f2401ba19f893c1537662b3f51515a669837c5e9e370d0e1a9c9e084f260270dcc4b85971bb667806f0f6d24fda33a5cd41bc341509569fd96d2a30f89aac8ed8ea8261b8f784c0b894baf5b7427248558db96673adce3d0556b6c2633966d385b7c90b83d98500a9a94cc293f17093ffde5ef96fdd90cc29c890a45da2d1ecb7a88de9390991f32eadaf78f7bb05a22fd195e987f0cdd82d3b80bb071bbe2c909cd81f34f9c6edd2a1c2233e0bf3bc54509e7c08aabedb091131557fc9f68efeff37bb5e27b9978f99a82d3ddcb00e95e84c6053273571a8d81c25758ff4c65c36083870e0c8b8b3e568188934b2c0e48706d252d41ea4808e6a4431d49f489c86e6c06d71a7da45e7d555db04ffbc3a0e86a035c2b1e25868833200df35aa2d133b22cd9654e710752c8e1a04ca00f0d5b136094070187db38b9d6436640e171466ff29caf6c812afa91dfccfb721688d2acdfcde76ad973db6605692031b8b711fc1f51e8522064e8efac21eae6912a6d2c2465993fd3eb882eee9079e8f8e7521bc8dba1de9a29bd71ea1ff1a5e024553f59601f388aaf8054502749cc4830adad6f637622e6bc9e928d2e28eb3f3c6afd31c237d2d94ca5a0b2980afd1b57054d4413e8da0abbd2d2a2fd6993f11d46b00b05487bbf1b52bf857ff5b8bbc41e8d702d90667d3442443aa70eb6b126608aadc291063a700719ae69cd92f09a78a88b5ce6ca785ddc7203525117b9bf609f2d43453c0e26c28ffb07c9c6ea677b2a7eebbc62095084394ceb70fe4987d572fc722a9f4ca6ed1821263662bcd9dc055e5c6f122512e00c5b36d45918925e6e6ae8ebe15661e95903bbbc01e9c79ee45ba8642cd74f99795cc6e23518b57d111cf845e02206492a11893ece1576d0799f66ebbc0b52ee78229ab86b43e83cf8cf6952b9d90ff642482dca8d97598f068375011d782a1ccaeafcf735e64e22248b3cbc8cdd6f392439a0bb7959c0fc48d738565c273d6bed44bb80c8afea7327f8b50035020077583db5d4b33d177dc557fc24055ce36cb338239f73fb65ef371d5a573c603184f9a64cfbda4061d1132284e1fd5f3e07fb618448e7bf4f8f04ff543c07f92556218235778cacbbee57657f55a4374896e2c037f828f686be1841035a3271149187df89e19ecbc28e46f782388288a8a9c3c963e2e2165c62d8ffefa4563ec5a91eb08816c2caf2843550bcc8fe418ef8ab0d2465d8d13fd0fe99dae254fc1f29d259f2c96ca31ea0f1dbbf6d9806abcbb0eb5136c5261d2c1bd37ec3c16d4eb3de7dcbc1b78d15f5910e4c0bf690ba440f6bfad9eba3248ced3f9d7c58baf4f7f80c053cf56eecc0d150927bd1ec67629102970a2097b0727e4209b60797a518607f29085162d29bcf05bf75267d51a2e34bb0a004c9e568f98477df1ac58f743ac3f62d27b0f37251b924abac4d07d07ee857700854ca175150490a6922b24b39a5c4b829de4d7d7e5e1b0b33f250073436e8e431b47cb4e6fb5f58df41aaf47cfe75d855daa1f3a44561926de301a33cec66cdd6518a58bb5667596484e83a093b8e6f0bb2cc0a9014717c232f704c9327d6ec024a1618f13002b8bad20a8ce60e987150895d947c87b6efaf9da146297fc8f2a33a0c109e1fbf082b7963fc314d9f13f1260fcf6bb8b97009c0a0a19f04ecc4ad55f6e344d730830f38b142a3d8479b787dea9447dc6a0d17680cbd75fa83a8fdb444c48c9a356a069264d60315cba53f164319d1d4c65113a9b6529de85b84963ec1890848bda946c9666f51213a7d47c9fb4d3b7d596f417453a0a4a415a44ac7d5f0a8be5dde13bbaf71ea9dc905d40da5c04efaa05b69ac63fa14fd554b7f0d75d7931798f61e190491b0dc21c39bb2ee4abe07f9f384b3dc74fc296baa9e8984afc668620dd134e6fe5510704f49bf6761205cf9ab9645c06c104570005b09a633681c95ab2edebddca194b4cd2daef5ce7f9adb88db74889fec50c18fde85dd0bc5fbde9dec0093d2606fd3eeddb68ed7cef5302379d9b44c8cff5fd34b5fc418c65d81d9420bc5c776b45e4d7056049e6bdf45ef158687c264e10fec274832c76996330850c592f0e0f73109d2d6570f8db1a9eecca68021597a503eb5e7b0bdc3cab74dcc71a0e512e1272f2800b911abe46cb75431e185a048185a01e5ff5e7f2dc7cb7f09261aa7aed69094d3ce89048543921361f1c602991072b857c15759e216c578b4e0001e6f1978b0205a52dd775da5845d7c6680fe6edac7e22d5341bb077902a42404abd4906cc5c57ef690ba97469d2b9bfe88299c93dbac7b4f3c68c3496b284d84c8dbcb17836c112eb7d6a6165979faa3628b8643162c82642e236017b174216235c3caf46c123819dd261a6cda8784a0447d99b7731f4e60cd8d6eb0c4cb8019223f857e89f596e342df836d67c1a27e28622c51754067eaf92ea006911054c829ca84384c0b95513c8043f9c3f20283d19b8f4b1baf854a5612d386fd6e84032383e32775e71253e9106197581dced6287eb825b7ddd53dd4679ddc69b5fa89195a944dff16f710c7d7001f58fb20bcd0fd29ff6eeb7584bb27502376dd8761bf3f826c766b96cfb8264c4b5128e11ea1bbc8bab9ad9621d05b983294c6789258ddf485d6034e6a7e8d646a3b98ead6d3964472406337ceaec496e832f32968f2d90361126d1bdcd21792c5ce1e6da0218e482806664197d6089bb55829ebe0e9d899e30bd0a6848350f6c72743d32d5ffa4832a07d334b767cf121b574170e9cb8be45849b92cb6053ae3fb39b10bd3e93562573fd6133ff3b27ba3e847e3f3974c6810db48997480b887fdc1d5619763f0c929f136d61d3470678f7f7bb17cc36d594d63f071323296388a2b7bec2cde3eaeffc0a152b2e3139425e7176779bc0e1e4e7f51519475e626bb6bbca051750566572c2daeaeef9000000000000000000000000000000000000000000000000000000000f20293401",
        "00b54161916f530ff0aa31e1e79b4565e4b8127cf2bcb0812f9771b76a07c74a05b54abc27457cbe8b04efb959b7564a9ff5622cf960a8cab430cf09a3123eac9c004c3c8924ac878182372256252d7d7d3a2712564bffe19769d254289bf51881f4f017d19bc144167670ed249fd06091bca6a6cacde2c847e4be3f13d11ae920bb4ef9af5602de82a5bd8b54032be96d32824a4634c2af1b7002ad9151db541edc787ff43723869ade7c74471e34fceda47898d62b3d7d00b9a4d0c55da8242a7b2062258993f3d2289b871c84c780e3abd8353aac96af63854fda73f6c8c9f9a7e3cea5d3be22ba4849d56eff67c56ff576f8ac37c89f9e68894fc0b049eb595326f65673026628523bfd10e3ddebda07c741a19042bf5025184fdad44c592eec3dda07c10bd96708912793132eeb0fa9c2dbb8a0993ba330d72aaf6c30e32e6df9dbc77df8eaeadc7a44157a9dd39299b09c55a9c87382e611a9e9a79e0a24c0bd6920d5b83f5d5456655349e412b7ee9ff039f8551e63cbb7d95db32b037f1e9881cebb52bc0b5461be7e0e366c406654a603b23a9289885beb41faa851e5817c68f31904221b788076ea5bc5a19493fbe76536d9a058aaf5694534f49fac320e2e59e937a4c1b523194adf02aaec1a7e3f5689865c683fd3cadf7645b4ca7c687a1c3b7488d0d9c4c5e1b4b2d7d3f168f0acb29bdb5e86c845db1ceb3317a112641e94a34aa8b5f2484ee3ff2350667039dd57a54c6064f3ff186fcd2ee9d5ad4ba016ae56c832bf0dee04c729587342e6741f897848b4765cf7978df3c31144ee9f72652ca3c02d30e742b98694e8d315a97fc0adafb0ad3523005bca6797a4496fdca0310a2e1f4bc530e185433516441609041a735226fd30576e4a78aae7f4af5fe9a7a454918ae2100c6fcf4dccf4a4c9e495b7975033dc1e91399c5187e3b55068bfdc96d10a6975b4910eb3a0be5c3abc19d200c19826529f8bfc57bb4493db4492c558562061e6c9d0a5a62caa9666e1c5103a6b1cf44e4941527b44e59ff414ba25a92b07b5cee72d7bb1976d27252e46929ca8ac7cde56a7aafc09864c929fa036c3ecd9263bbbbea7191e13161ff2cb6225fcb3e233a7f91ffa1b9c4b29890b356bff061f29a91415e9f2d4cf30820b05e9e792143ecb19da304e2502cfe99fb6b4de82bb59a08a2e6f8ef851b005ae73f1d69a23958e5665b42897b7e4ba07568a7c6e7729d9c206468a4402d1ba0ba75f45620dcf9dc8d826bfab91cbc7572407ff49a18c1557274279ee076d80acec38d6a3ef5e814ed5958a7547b54c43e1148714ae705d59e9a2c3719682f9b75075fc88972eca3a2bff5aae592b028f53782ba4f002219cf385445b334b5dd9297b33ab012d9552b006c2e1dd5aae9ba044a23cc700d365ca8376ebcddf6004ef486efdc3177ed0f316dd08392695f0ed4a7d225e4f397ccb16c6f8b813722d050d3cf57dbad06a5849051d21f2572033ae5a0c25f69efa32a80d89b4a85cee93f6f9dfdd51b8e81c6596fffe62433a0d6874962d8bd35cb66d71de969ab2c3df6f657f12e8219707e9a9b7d59d9873b121c7ab5ccf6b273ceb1e7613f0e307df107dca3641cc4dede6dfb108468e8fd4f7232aef6de11ae8536e7e8233554e9c7c9a9d7026b834d88cd7c20e74e8e0e4c0846e1d477ccf2af0d65551f8c2357b3603bd463c9416247f5de91efcc26d07feb67767a147ad70dbd30055d32c1add4641fbef87ca1accaf4b4b7407ddedddf332b3247db74163db5adb2b8025f39834a7d99250a04df9a5c0709597025115f10a2917d0511418935f357c2915e3595d52082bba25390b"
      ],
      "sequence": 4294967294
    }
  ],
  "vout": [
    {
      "value": 499969.493,
      "n": 0,
      "scriptPubKey": {
        "asm": "1 1f2f8b4e02ff533306883cc9b342dd5ae987193dfb1837d0d0e92331ef1d8178",
        "hex": "51201f2f8b4e02ff533306883cc9b342dd5ae987193dfb1837d0d0e92331ef1d8178",
        "reqSigs": 1,
        "type": "witness_v1_scripthash",
        "addresses": [
          "3QJmnh"
        ]
      }
    },
    {
      "value": 1.0,
      "n": 1,
      "scriptPubKey": {
        "asm": "OP_RETURN 475bf47c0905cea6b6aa65d85bf5e5e730d2225185cfa202371c724092cc4c91 d874a0ee33ac13913caa8f1b504697d644565c5fdc6c6ec179e1ed8e6f8052ddf85480ce138c33b11c8aaf3b7066b7f664767c7ffc4c4ee159c1cdae4fa072fd9834e0ae73ec53d17ceacf5b1006d79604161c1f9c2c2e8139a1adce2fc0129db814c08e53cc73f15ccaef7b3026f7b624363c3fbc0c0ea119818dee0fe032bd58f4206eb32c9311bc2a0f9bd0c61756c4d6dcdf5cecee41f9616d0eef00d25d78d4004e930cb3319c0a2fbbf0e63776e4f6fcff7cccce61d9414d2ecf20f27d18b4602ef36cd351fc6a4fdb9086571684969c9f1cacae01b9212d4eaf40921d3894400ed34cf371dc4a6ffbb0a67736a4b6bcbf3c8c8e2199010d6e8f60b23dd874a0ee33ac13913caa8f1b504697d644565c5fdc6c6ec179e1ed8e6f8052ddf85480ce138c33b11c8aaf3b7066b7f664767c7ffc4c4ee159c1cdae4fa072fd9834e0ae73ec53d17ceacf5b1006d79604161c1f9c2c2e8139a1adce2fc0129db814c08e53cc73f15ccaef7b3026f7b624363c3fbc0c0ea119818dee0fe032bd58f4206eb32c9311bc2a0f9bd0c61756c4d6dcdf5cecee41f9616d0eef00d25d78d4004e930cb3319c0a2fbbf0e63776e4f6fcff7cccce61d9414d2ecf20f27d18b4602ef36cd351fc6a4fdb9086571684969c9f1cacae01b9212d4eaf40921d3894400ed34cf371dc4a6ffbb0a67736a4b6bcbf3c8c8e2199010d6e8f60b23dd874a0ee33ac13913caa8f1b504697d644565c5fdc6c6ec179e1ed8e6f8052ddf85480ce138c33b11c8aaf3b7066b7f664767c7ffc4c4ee159c1cdae4fa072fd9834e0ae73ec53d17ceacf5b1006d79604161c1f9c2c2e8139a1adce2fc0129db814c08e53cc73f15ccaef7b3026f7b624363c3fbc0c0ea119818dee0fe032bd58f4206eb32c9311bc2a0f9bd0c61756c4d6dcdf5cecee41f9616d0eef00d25d78d4004e930cb3319c0a2fbbf0e63776e4f6fcff7cccce61d9414d2ecf20f27d18b4602ef36cd351fc6a4fdb9086571684969c9f1cacae01b9212d4eaf40921d3894400ed34cf371dc4a6ffbb0a67736a4b6bcbf3c8c8e2199010d6e8f60b23dd874a0ee33ac13913caa8f1b504697d644565c5fdc6c6ec179e1ed8e6f8052ddf85480ce138c33b11c8aaf3b7066b7f664767c7ffc4c4ee159c1cdae4fa072fd9834e0ae73ec53d17ceacf5b1006d79604161c1f9c2c2e8139a1adce2fc0129db814c08e53cc73f15ccaef7b3026f7b624363c3fbc0c0ea119818dee0fe032bd58f4206eb32c9311bc2a0f9bd0c61756c4d6dcdf5cecee41f9616d0eef00d25d78d4004e930cb3319c0a2fbbf0e63776e4f6fcff7cccce61d9414d2ecf20f27d18b4602ef36cd351fc6a4fdb9086571684969c9f1cacae01b9212d4eaf40921d3894400ed34cf371dc4a6ffbb0a67736a4b6bcbf3c8c8e2199010d6e8f60b23dd874a0ee33ac13913caa8f1b504697d644565c5fdc6c6ec179e1ed8e6f8052ddf85480ce138c33b11c8aaf3b7066b7f664767c7ffc4c4ee159c1cdae4fa072fd9834e0ae73ec53d17ceacf5b1006d79604161c1f9c2c2e8139a1adce2fc0129db814c08e53cc73f15ccaef7b3026f7b624363c3fbc0c0ea119818dee0fe032bd58f4206eb32c9311bc2a0f9bd0c61756b6fa67c8c1e01116a27f8cd837343a23a979d4c1e939804b48c925d4349ee859",
        "hex": "6a20475bf47c0905cea6b6aa65d85bf5e5e730d2225185cfa202371c724092cc4c914db004d874a0ee33ac13913caa8f1b504697d644565c5fdc6c6ec179e1ed8e6f8052ddf85480ce138c33b11c8aaf3b7066b7f664767c7ffc4c4ee159c1cdae4fa072fd9834e0ae73ec53d17ceacf5b1006d79604161c1f9c2c2e8139a1adce2fc0129db814c08e53cc73f15ccaef7b3026f7b624363c3fbc0c0ea119818dee0fe032bd58f4206eb32c9311bc2a0f9bd0c61756c4d6dcdf5cecee41f9616d0eef00d25d78d4004e930cb3319c0a2fbbf0e63776e4f6fcff7cccce61d9414d2ecf20f27d18b4602ef36cd351fc6a4fdb9086571684969c9f1cacae01b9212d4eaf40921d3894400ed34cf371dc4a6ffbb0a67736a4b6bcbf3c8c8e2199010d6e8f60b23dd874a0ee33ac13913caa8f1b504697d644565c5fdc6c6ec179e1ed8e6f8052ddf85480ce138c33b11c8aaf3b7066b7f664767c7ffc4c4ee159c1cdae4fa072fd9834e0ae73ec53d17ceacf5b1006d79604161c1f9c2c2e8139a1adce2fc0129db814c08e53cc73f15ccaef7b3026f7b624363c3fbc0c0ea119818dee0fe032bd58f4206eb32c9311bc2a0f9bd0c61756c4d6dcdf5cecee41f9616d0eef00d25d78d4004e930cb3319c0a2fbbf0e63776e4f6fcff7cccce61d9414d2ecf20f27d18b4602ef36cd351fc6a4fdb9086571684969c9f1cacae01b9212d4eaf40921d3894400ed34cf371dc4a6ffbb0a67736a4b6bcbf3c8c8e2199010d6e8f60b23dd874a0ee33ac13913caa8f1b504697d644565c5fdc6c6ec179e1ed8e6f8052ddf85480ce138c33b11c8aaf3b7066b7f664767c7ffc4c4ee159c1cdae4fa072fd9834e0ae73ec53d17ceacf5b1006d79604161c1f9c2c2e8139a1adce2fc0129db814c08e53cc73f15ccaef7b3026f7b624363c3fbc0c0ea119818dee0fe032bd58f4206eb32c9311bc2a0f9bd0c61756c4d6dcdf5cecee41f9616d0eef00d25d78d4004e930cb3319c0a2fbbf0e63776e4f6fcff7cccce61d9414d2ecf20f27d18b4602ef36cd351fc6a4fdb9086571684969c9f1cacae01b9212d4eaf40921d3894400ed34cf371dc4a6ffbb0a67736a4b6bcbf3c8c8e2199010d6e8f60b23dd874a0ee33ac13913caa8f1b504697d644565c5fdc6c6ec179e1ed8e6f8052ddf85480ce138c33b11c8aaf3b7066b7f664767c7ffc4c4ee159c1cdae4fa072fd9834e0ae73ec53d17ceacf5b1006d79604161c1f9c2c2e8139a1adce2fc0129db814c08e53cc73f15ccaef7b3026f7b624363c3fbc0c0ea119818dee0fe032bd58f4206eb32c9311bc2a0f9bd0c61756c4d6dcdf5cecee41f9616d0eef00d25d78d4004e930cb3319c0a2fbbf0e63776e4f6fcff7cccce61d9414d2ecf20f27d18b4602ef36cd351fc6a4fdb9086571684969c9f1cacae01b9212d4eaf40921d3894400ed34cf371dc4a6ffbb0a67736a4b6bcbf3c8c8e2199010d6e8f60b23dd874a0ee33ac13913caa8f1b504697d644565c5fdc6c6ec179e1ed8e6f8052ddf85480ce138c33b11c8aaf3b7066b7f664767c7ffc4c4ee159c1cdae4fa072fd9834e0ae73ec53d17ceacf5b1006d79604161c1f9c2c2e8139a1adce2fc0129db814c08e53cc73f15ccaef7b3026f7b624363c3fbc0c0ea119818dee0fe032bd58f4206eb32c9311bc2a0f9bd0c61756b6fa67c8c1e01116a27f8cd837343a23a979d4c1e939804b48c925d4349ee859",
        "type": "nulldata"
      }
    }
  ],
  "blockhash": "74cd48d8c624c37e1fac27c00c19e94c48df61d3ca85b84b56360e4f6170fa6f",
  "confirmations": 1,
  "time": 1764182926,
  "blocktime": 1764182926
}