{
  "hex": "010000000001014e2e646c846552080891b23a7780545c8eaa7690c215da28887a429005f84a520000000000feffffff0270cc3221792d0000225120d8922999b18a75e89492bd36833cf70a4003d5741167d78cd243cfc8749d779500e1f50500000000fdd5046a2077470ba1889ac6f2b5b5c91aa3f26bb48c0ac5fb76a5f255dc8877280061f00a4db0044c09aa085e8909a07999a513706c64b91a26d5ca0aa49267df7f6b4aba6f82296c298a287ea9298059b98533504c44993a06f5ea2a84b247ff5f4b6a9a4fa2090c49ea481ec949e039d9e553302c24f95a66958a4ae4d2279f3f2b0afa2fc2692c69ca683ee969c019f9c573100c04d97a46b5aa6ac4f207bf1f0b2ada0fe249cc892a88de098920f9192593f0ece4399aa6554a8a2412e75fffebca3aef02a9eca90aa8fe29a900d93905b3d0ccc419ba86756aaa0432c77fdfcbea1acf22898cc96ac89e49c960b95965d3b0aca479dae6150aca6452a71fbfab8a7aaf42e9ace94ae8be69e940997945f3908c8459fac6352aea4472873f9f8baa5a8f62c94c09aa085e8909a07999a513706c64b91a26d5ca0aa49267df7f6b4aba6f82296c298a287ea9298059b98533504c44993a06f5ea2a84b247ff5f4b6a9a4fa2090c49ea481ec949e039d9e553302c24f95a66958a4ae4d2279f3f2b0afa2fc2692c69ca683ee969c019f9c573100c04d97a46b5aa6ac4f207bf1f0b2ada0fe249cc892a88de098920f9192593f0ece4399aa6554a8a2412e75fffebca3aef02a9eca90aa8fe29a900d93905b3d0ccc419ba86756aaa0432c77fdfcbea1acf22898cc96ac89e49c960b95965d3b0aca479dae6150aca6452a71fbfab8a7aaf42e9ace94ae8be69e940997945f3908c8459fac6352aea4472873f9f8baa5a8f62c94c09aa085e8909a07999a513706c64b91a26d5ca0aa49267df7f6b4aba6f82296c298a287ea9298059b98533504c44993a06f5ea2a84b247ff5f4b6a9a4fa2090c49ea481ec949e039d9e553302c24f95a66958a4ae4d2279f3f2b0afa2fc2692c69ca683ee969c019f9c573100c04d97a46b5aa6ac4f207bf1f0b2ada0fe249cc892a88de098920f9192593f0ece4399aa6554a8a2412e75fffebca3aef02a9eca90aa8fe29a900d93905b3d0ccc419ba86756aaa0432c77fdfcbea1acf22898cc96ac89e49c960b95965d3b0aca479dae6150aca6452a71fbfab8a7aaf42e9ace94ae8be69e940997945f3908c8459fac6352aea4472873f9f8baa5a8f62c94c09aa085e8909a07999a513706c64b91a26d5ca0aa49267df7f6b4aba6f82296c298a287ea9298059b98533504c44993a06f5ea2a84b247ff5f4b6a9a4fa2090c49ea481ec949e039d9e553302c24f95a66958a4ae4d2279f3f2b0afa2fc2692c69ca683ee969c019f9c573100c04d97a46b5aa6ac4f207bf1f0b2ada0fe249cc892a88de098920f9192593f0ece4399aa6554a8a2412e75fffebca3aef02a9eca90aa8fe29a900d93905b3d0ccc419ba86756aaa0432c77fdfcbea1acf22898cc96ac89e49c960b95965d3b0aca479dae6150aca6452a71fbfab8a7aaf42e9ace94ae8be69e940997945f3908c8459fac6352aea4472873f9f8baa5a8f62c94c09aa085e8909a07999a513706c64b91a26d5ca0aa49267df7f6b4aba6f82296c298a287ea9298059b98533504c44993a06f5ea2a84b247ff5f4b6a9a4fa2090c49ea481ec949e039d9e553302c24f95a66958a4ae4d2279f3f2b0afa2fc2692c69ca683ee969c019f9c573100c04d97a46b5aa6ac4f207bf1f0b2ada0fe249cc892a88de098920f9192593f0ece43942353cad7c02d7a1e36802addaa3df75179ab0eab716fc741bc60399a568e7ee02fd7509b8ef319cbfa8b530346acce72bf45d970b0e3adcbe056e1a4a86c80120909d34f79e68aef87038e37a64577fdf58cace3a4d33480add89553a60b1c042354b6f4d4bca6e799757c6b64b450cdf360580f274d780d63cd35901bc0967de6c2c8bfbd0521b745de82dcfc04393e1361dd8f3f55ff89f2b18cb83bc90a96d08d7b86d13804a3d1971e11f2e69fd113723cac71ecf939dffa0cb5472428666eca1a24e3210878392b6d075ca9c67ebf981300f4a40711d6e3e5240f2defd133de6fa9e55be6ec938f5be598d838ca86f1c2e3b30157316545af03c2a9217eecc7526ead673b96fa8857082f06b68967bffdb6fdc27b2728eea4669af122c0cb759b94c87db61f408c023024d35017605ca0809436948711135579710d04d160c74395ab1fd2db2466a9b6970b94d6cc1ac675b8b1551d954eff4cd237866e4659c96ad0b06f4807e5235f3be20717bf6f7b7af15698f5a431a5877cd5bad0d2090837d7a61fd1ba112e22baedd6f6c37c3e8d799486f560c7b0610307c4343f1a714e53fd53712ede7b5f46220b2bad62defb6617776efaa75c54560a9a9dab4f55462b6ee40eea74f34fb6a1157beff36a600bf8f4af514a2e4738f1439df69ce281a7d359c5bd2c9a9b336fe25bffb387b0a7b0b6cc72f26b230f047f6e319a252be20abd5ef96c9b2a9e398bcef21e49c6bddae5064a33463f1d582da450468029e8647ac2d3a3f837ca0be969a99e25e3c898809cc814860cb17561f8023d39a36671fcedafe72f52c3a860f5cdc6e770daf7fed4d58b50787623a702ae23fd75256127d7e7098ccd7e114da643d0ab1b86f4f91a818f7366c7d9f33ff3ae9197acc1f60c3a9ad8d556b62e3bc5e9c21aa7ac5b20a7f97dd6497cdfaf24fc19f96c4416f6956e10ab9146d905a8459de0ef94721d6b7eb8c92503f3078d2aa8bc9e11e1aa79affe61dcd8172c3def38c13893d87023a2952d24ded8c1d16324961250e50ae5d841c08131e8d96f66333136634dda2955325235fe6edf65b5d28f525abb03b2a5accf403f22469a4bdb310796de88df29db7237c29499166a3871d7d1115babbd7facbe1b9e0da354fb079e50bbda458d059a0d9acafd7da8b57b348b8cb09f7c773b03206c7cb6562c2be643c8e7d64c40a2248b4ae0a23a5d52177f3a6f8958e0647135fee247dbea824bd17860bca30b48699a300b2bb1c62af30181d4dbc251fb392ae2072724fdb3a58c1a07e52ae7d698db816b1e23cbf7f29b4793a583c308a772442916bc96e9373ecce001bffd1ee7d9c1e30f352d9bfdf186df4774b7130a71c1ca10cb7aa3ece0652804edd9f8a03b14dfa8b22302e525f0799782b4a1c1668d38b71769d19751a4cf541dc899753a8b6cdd51c0cb138f6e2a6aef6a9de55da875a580e0c8cc3dfd97be775441cc9afb33a4fc5d238470060c55cd033135755f84513101530946676c1f8deed968dd41d232138ff0f8d625800871b3be76bfffa0b9f2b38357f0c0c948bbbf41802760c90f99e92dcf23f750903bbe6837c902b8026bbea9c53bd938e60791099c7066109f8d1f4148dcc31092b849a9b527465e6adbd95caa1d55281614d00c910a53e76b1d8fd4601f7372f61294dc1cdda8873aa027a8c804817a67bac0de9ad9b0a2a35657c6f74c82697fd320347eb86fb662527e3437c08ce4b3c6eecbfc40b5beca15980a7c9f6ab2314230c8c24b3c40315640fa797b71e8beaca2c3ac09f0f8620208b66cb8045da442a1c26ed591ff9afe21d03bc2d8b46a812974535a7d9f451b339f1a7ca5d8cc79f7885c8ebc3fed66eb8277cc62b7796a0d7cc33458b7bbb0ee0122f388e12a37b6ccbae03949fd7f66d8f6b1bf9f983c8344965f4bd1e0b60a41b505509bd7875359f3cc61a000371c85c9712bbcb0e1df0d3db2428ecba68149bac2813ab4ec637f4ae1d604aa9264a9686a0b67bcf21f043aa7657694c1a76220bba33e17f3780394d9860bc03e80adc65bacbecb91763794a07949a64e2958f2b1b3a6f4c18aa0a295ee2d02cf52bca94e4a30e39b7d5eba88f03c20c04ed94b92d26f2c9ba99a5a492131d365f6994e1a6fbbf7c260953dd5e28aafba2ccabc3b64329b0a43114649a4334018f9d360ad512292d3b2110c9822a636a6c71c9f5e7f43ec84bae246e24db478c46e516eb5e9664a0059b5931a411f09571688acd24fb98a6dd7ccaccf617fd45ce6888707b7d90a7141b81fb45f76f7d01d38529b9fc93ccafb030f80c73b8c7bdd1e5a46bfd08ed60822f9c32db7cd272db634b5ac6687b9965e4077713bcaff1e434bc65b01ea471eb4bbe8a259609f1a500afbbce244bc53d6ebf1356f89763d20029e128a082d5d9e9d7fc2c3d7a2e5b328de6540b8dd60d7b69af24b453906c6439b904021e7a17a8c895af67afa64e84817fa6e01a0bcfdb8c434158fdde208ddcc5a5b93949137f6c8bebf1c495befc35f9c096786442ed1ac2e28d74b08f719d9f1b4d111007a5843ae797b81409c332d367551f3e6d3f3505348f1f1c45804da41f94a70aab52262e63c3d08691f05f124481d352d6b9c999ffb4c5d62229015ecea01db361e71a31edbf2ae93f0ab3f0de69730a8d0cd3a92ad324fa3b68e01b09978e3ddcb74f4e0b187f24af0d1a5c4602731ffd7a5c80640b8180fd9df53fd210b352fd065e5679fa7f708b14750db21d857f3bef9321144865e4798621b1e976e3ef20745371f1d1e1802d2487cdecb174f10845c2466ded4fff07f3aef7728615a4b0e82ad58e89ab979618e556c4226fd6695cd34c92300f2741adefcdcc2bad09e3ba0422be71925da573a3c8b785f7a2f6ba72e7187838c18a901236f9211854abc9f7a2d0edc743b81abe38376deb5a318216ced184b3ce819588c8c2378977fe4717ee6ca849b6a6900e1faa54001b22ba03708fd45573c754611f8aabdf75dbcdfdf48b3c09e4e510dfa566f6bcbe6003a352111d20df80f4b7bdbfedada89eafcc6b8b3f96690a6f69071505b02880395372e35a0bb948d3c37784407efe4299883b00bc063fb841dd6a737652b6fc3df0c2073c2cbe85b7c3479b35829b35999d98632ce5ee494901310e76fecdded9b28d546ba9e6641b2b4cbe2b547d2ea3dc53ae96180f9e25ab3787ee5613326e97dc46f6a01e77d78188158aea10fd4131155d683afb98f098a8fce89c988512f5fa9f48d6ff8e173c33b9340688ce6b4ed135dd0404001d3d84d35791aa9916b79f4704bacc9723d3ae91a9deb94844e8813352ff46cc050d17203540434b4c6265839da4a7eceef0f7214145666d747da6bac5defbff00060e1e2838465e617697a5c3cddde31112526f8eb2cfe90000000000000000000000000000000000000000000000001320303801fd210500a7e9daa1914f0feac11e8ed73171fcc37641f31c33a720f329a9b1fe7d7d02e102e096a0de3928801f4222eac2e71036bca3db1f8bd4f8ad67f329b9fdf4fed1cb2e48fc390c420c751ff9175635341a4ce4f109c2e6400edad10eb6218c19a91f1544154a16dc169ef91375775ff769c9621a2aeeb6274deb698fe9fecc87087ad8a592987d20b771945b1e509d9739eac6f1fbf08c9e75bbd3c1576fe27d47b03781586260f72d3285adfa1cf677f87f1b159625e5b61ec4c6419d2875375f15c06ee345078592bd6f0a75944a06d22924bd824bbed6f46e2cd6be922f70d65f4bfb56338ebd1952bf4be9e233357ebdf1ed2b77efdce745943df1dd6e37a495a49163e9a1b11f04e292448cf27cefcc5266aa6dfe906f51f95308580033c6dfdccbb65a43cf14ca3e3777f73f02eb069d9f116b11ba94e9b1866e4b59d55294a5d9f9c149f1a57a21d781cfc0a561e0a3423e1d02bbbd7113f82e6b8ff25f81d3cec7dd2c8ce91862e094efb9389f945b69b0ad4e83b78f3ef88ae038164fef46ceeb6568451ef4f45dc8e324717678a578130cf85a7eff9dfc8211972e36c7c7c5bd71d9f5cee2fa7c1435d9a686f77688544384626d14a2751276a8020ee382ec265090a1f83c40cf34a1efae1784f2396c83c9e772f4be5c995dd76f447a1bba6ff27bd736befb72c5f9845ffb2730e7344d3fdd6e8a3ef4aecdab7d672df9969f90c8bc831096b54ac43fb8d09abe38b5c23d98f5881c1dad5aa6fde5b62b057629606aa6dbbf7d008dfa11676bd54e32ac1f2fb579e9b1ca6202b20fbfee797f41ee04e60406ec7f26951c494d8d91aba4cbc86e0532f5e6f6ad5e729a55665c0de6265cccd2c7ebdb1be90ffaa9294141274e7ebea191976b74f030fca42817c9604161be00cf486b4c7450a425b8da4483f32597c60419be5141c24b2ce8776a175a7d470272d54f6e993faf78db05b7e14c7da0b5115886aeeeba376057b4ff107831110d5a82f329768d2cbc12108182e38ceb6782eadb56baec72ebb701f9dfbea37ea713c6a4cf1067765c4d5a88b884751401fee3a0acaa04fc6529352bbbe00c969b304a6b9a65e4eb95c8ac1e1d45365f56ba82254aa7836c4568dc2d6753290ede2912c422ecc62f3fdcfbc8ffe9d7c01916e3a94f7a1b62dc4a0ca1d0e1fe042ecde50f5b902f3c7fb4fe61095e1c9cafc5717ef37a3d78ab79d92ac0f96935690c9dc94f89bf4d531f3de20b608a22b63d5db0b7e7bf25a4e0c483d4608a50f59964ee7208a2e16fc2ffea79c2520aa44b5a38d9222fc342c069b0c12e00d7f808efb257c427728f34358bc4013eb3f405a75b412da44736e427462d3db02ef1d23dc47d81e3ee5bf1efb7d42669cbe34f857be35a21b9ef95b48fb04df743fba1e7546984b1c780215d9b1944fd325e4d41da88dd195e4c15c3be3adff0ae9488998a225a2cb6fff1d466e1cb0e35342dc9c6b811238112302a1a4e0bd32aabf02e5a4b3dbbb6607be8d7b766aa85abeb224f454a84b09b85af44d93cb2474d0e8e2636b73eea80753ea6fefee09eae9b7072e9208ef3241d7c2189b130f5de0ef9690a989626c75445829da96df7d02b94c98bd43c452614296ffbac0e282e6c37fc7f9d1a2412e0c494fd428723c8ae2068cd1553210137c22700143fd47ea242624d93b8cb1c37b77b619308b56f60584c910530a883baa5bd13db15fa9e1d6d26180e7c7dd0d5a4ceca055572da53e0399e219884b6d05b076fd28187b1aba0b1375a5564cee13b3dfa85b25798d549e300d4113784b4659fc9895b43d645142d1aecb202502f345a75a956bf845419ecbd0c6b52000000",
  "txid": "b99c7aef65740a3a7ff021658ec2f5d0427e08eb2017f9054b5bad5156bebf1e",
  "hash": "d7970334b075ea12839bfc30cc063a30396c09f95304ae243e437cc7f9525fe5",
  "size": 5085,
  "vsize": 2278,
  "version": 1,
  "locktime": 82,
  "vin": [
    {
      "txid": "524af80590427a8828da15c29076aa8e5c5480773ab29108085265846c642e4e",
      "vout": 0,
      "scriptSig": {
        "asm": "",
        "hex": ""
      },
      "txinwitness": [
        "b8ef319cbfa8b530346acce72bf45d970b0e3adcbe056e1a4a86c80120909d34f79e68aef87038e37a64577fdf58cace3a4d33480add89553a60b1c042354b6f4d4bca6e799757c6b64b450cdf360580f274d780d63cd35901bc0967de6c2c8bfbd0521b745de82dcfc04393e1361dd8f3f55ff89f2b18cb83bc90a96d08d7b86d13804a3d1971e11f2e69fd113723cac71ecf939dffa0cb5472428666eca1a24e3210878392b6d075ca9c67ebf981300f4a40711d6e3e5240f2defd133de6fa9e55be6ec938f5be598d838ca86f1c2e3b30157316545af03c2a9217eecc7526ead673b96fa8857082f06b68967bffdb6fdc27b2728eea4669af122c0cb759b94c87db61f408c023024d35017605ca0809436948711135579710d04d160c74395ab1fd2db2466a9b6970b94d6cc1ac675b8b1551d954eff4cd237866e4659c96ad0b06f4807e5235f3be20717bf6f7b7af15698f5a431a5877cd5bad0d2090837d7a61fd1ba112e22baedd6f6c37c3e8d799486f560c7b0610307c4343f1a714e53fd53712ede7b5f46220b2bad62defb6617776efaa75c54560a9a9dab4f55462b6ee40eea74f34fb6a1157beff36a600bf8f4af514a2e4738f1439df69ce281a7d359c5bd2c9a9b336fe25bffb387b0a7b0b6cc72f26b230f047f6e319a252be20abd5ef96c9b2a9e398bcef21e49c6bddae5064a33463f1d582da450468029e8647ac2d3a3f837ca0be969a99e25e3c898809cc814860cb17561f8023d39a36671fcedafe72f52c3a860f5cdc6e770daf7fed4d58b50787623a702ae23fd75256127d7e7098ccd7e114da643d0ab1b86f4f91a818f7366c7d9f33ff3ae9197acc1f60c3a9ad8d556b62e3bc5e9c21aa7ac5b20a7f97dd6497cdfaf24fc19f96c4416f6956e10ab9146d905a8459de0ef94721d6b7eb8c92503f3078d2aa8bc9e11e1aa79affe61dcd8172c3def38c13893d87023a2952d24ded8c1d16324961250e50ae5d841c08131e8d96f66333136634dda2955325235fe6edf65b5d28f525abb03b2a5accf403f22469a4bdb310796de88df29db7237c29499166a3871d7d1115babbd7facbe1b9e0da354fb079e50bbda458d059a0d9acafd7da8b57b348b8cb09f7c773b03206c7cb6562c2be643c8e7d64c40a2248b4ae0a23a5d52177f3a6f8958e0647135fee247dbea824bd17860bca30b48699a300b2bb1c62af30181d4dbc251fb392ae2072724fdb3a58c1a07e52ae7d698db816b1e23cbf7f29b4793a583c308a772442916bc96e9373ecce001bffd1ee7d9c1e30f352d9bfdf186df4774b7130a71c1ca10cb7aa3ece0652804edd9f8a03b14dfa8b22302e525f0799782b4a1c1668d38b71769d19751a4cf541dc899753a8b6cdd51c0cb138f6e2a6aef6a9de55da875a580e0c8cc3dfd97be775441cc9afb33a4fc5d238470060c55cd033135755f84513101530946676c1f8deed968dd41d232138ff0f8d625800871b3be76bfffa0b9f2b38357f0c0c948bbbf41802760c90f99e92dcf23f750903bbe6837c902b8026bbea9c53bd938e60791099c7066109f8d1f4148dcc31092b849a9b527465e6adbd95caa1d55281614d00c910a53e76b1d8fd4601f7372f61294dc1cdda8873aa027a8c804817a67bac0de9ad9b0a2a35657c6f74c82697fd320347eb86fb662527e3437c08ce4b3c6eecbfc40b5beca15980a7c9f6ab2314230c8c24b3c40315640fa797b71e8beaca2c3ac09f0f8620208b66cb8045da442a1c26ed591ff9afe21d03bc2d8b46a812974535a7d9f451b339f1a7ca5d8cc79f7885c8ebc3fed66eb8277cc62b7796a0d7cc33458b7bbb0ee0122f388e12a37b6ccbae03949fd7f66d8f6b1bf9f983c8344965f4bd1e0b60a41b505509bd7875359f3cc61a000371c85c9712bbcb0e1df0d3db2428ecba68149bac2813ab4ec637f4ae1d604aa9264a9686a0b67bcf21f043aa7657694c1a76220bba33e17f3780394d9860bc03e80adc65bacbecb91763794a07949a64e2958f2b1b3a6f4c18aa0a295ee2d02cf52bca94e4a30e39b7d5eba88f03c20c04ed94b92d26f2c9ba99a5a492131d365f6994e1a6fbbf7c260953dd5e28aafba2ccabc3b64329b0a43114649a4334018f9d360ad512292d3b2110c9822a636a6c71c9f5e7f43ec84bae246e24db478c46e516eb5e9664a0059b5931a411f09571688acd24fb98a6dd7ccaccf617fd45ce6888707b7d90a7141b81fb45f76f7d01d38529b9fc93ccafb030f80c73b8c7bdd1e5a46bfd08ed60822f9c32db7cd272db634b5ac6687b9965e4077713bcaff1e434bc65b01ea471eb4bbe8a259609f1a500afbbce244bc53d6ebf1356f89763d20029e128a082d5d9e9d7fc2c3d7a2e5b328de6540b8dd60d7b69af24b453906c6439b904021e7a17a8c895af67afa64e84817fa6e01a0bcfdb8c434158fdde208ddcc5a5b93949137f6c8bebf1c495befc35f9c096786442ed1ac2e28d74b08f719d9f1b4d111007a5843ae797b81409c332d367551f3e6d3f3505348f1f1c45804da41f94a70aab52262e63c3d08691f05f124481d352d6b9c999ffb4c5d62229015ecea01db361e71a31edbf2ae93f0ab3f0de69730a8d0cd3a92ad324fa3b68e01b09978e3ddcb74f4e0b187f24af0d1a5c4602731ffd7a5c80640b8180fd9df53fd210b352fd065e5679fa7f708b14750db21d857f3bef9321144865e4798621b1e976e3ef20745371f1d1e1802d2487cdecb174f10845c2466ded4fff07f3aef7728615a4b0e82ad58e89ab979618e556c4226fd6695cd34c92300f2741adefcdcc2bad09e3ba0422be71925da573a3c8b785f7a2f6ba72e7187838c18a901236f9211854abc9f7a2d0edc743b81abe38376deb5a318216ced184b3ce819588c8c2378977fe4717ee6ca849b6a6900e1faa54001b22ba03708fd45573c754611f8aabdf75dbcdfdf48b3c09e4e510dfa566f6bcbe6003a352111d20df80f4b7bdbfedada89eafcc6b8b3f96690a6f69071505b02880395372e35a0bb948d3c37784407efe4299883b00bc063fb841dd6a737652b6fc3df0c2073c2cbe85b7c3479b35829b35999d98632ce5ee494901310e76fecdded9b28d546ba9e6641b2b4cbe2b547d2ea3dc53ae96180f9e25ab3787ee5613326e97dc46f6a01e77d78188158aea10fd4131155d683afb98f098a8fce89c988512f5fa9f48d6ff8e173c33b9340688ce6b4ed135dd0404001d3d84d35791aa9916b79f4704bacc9723d3ae91a9deb94844e8813352ff46cc050d17203540434b4c6265839da4a7eceef0f7214145666d747da6bac5defbff00060e1e2838465e617697a5c3cddde31112526f8eb2cfe90000000000000000000000000000000000000000000000001320303801",
        "00a7e9daa1914f0feac11e8ed73171fcc37641f31c33a720f329a9b1fe7d7d02e102e096a0de3928801f4222eac2e71036bca3db1f8bd4f8ad67f329b9fdf4fed1cb2e48fc390c420c751ff9175635341a4ce4f109c2e6400edad10eb6218c19a91f1544154a16dc169ef91375775ff769c9621a2aeeb6274deb698fe9fecc87087ad8a592987d20b771945b1e509d9739eac6f1fbf08c9e75bbd3c1576fe27d47b03781586260f72d3285adfa1cf677f87f1b159625e5b61ec4c6419d2875375f15c06ee345078592bd6f0a75944a06d22924bd824bbed6f46e2cd6be922f70d65f4bfb56338ebd1952bf4be9e233357ebdf1ed2b77efdce745943df1dd6e37a495a49163e9a1b11f04e292448cf27cefcc5266aa6dfe906f51f95308580033c6dfdccbb65a43cf14ca3e3777f73f02eb069d9f116b11ba94e9b1866e4b59d55294a5d9f9c149f1a57a21d781cfc0a561e0a3423e1d02bbbd7113f82e6b8ff25f81d3cec7dd2c8ce91862e094efb9389f945b69b0ad4e83b78f3ef88ae038164fef46ceeb6568451ef4f45dc8e324717678a578130cf85a7eff9dfc8211972e36c7c7c5bd71d9f5cee2fa7c1435d9a686f77688544384626d14a2751276a8020ee382ec265090a1f83c40cf34a1efae1784f2396c83c9e772f4be5c995dd76f447a1bba6ff27bd736befb72c5f9845ffb2730e7344d3fdd6e8a3ef4aecdab7d672df9969f90c8bc831096b54ac43fb8d09abe38b5c23d98f5881c1dad5aa6fde5b62b057629606aa6dbbf7d008dfa11676bd54e32ac1f2fb579e9b1ca6202b20fbfee797f41ee04e60406ec7f26951c494d8d91aba4cbc86e0532f5e6f6ad5e729a55665c0de6265cccd2c7ebdb1be90ffaa9294141274e7ebea191976b74f030fca42817c9604161be00cf486b4c7450a425b8da4483f32597c60419be5141c24b2ce8776a175a7d470272d54f6e993faf78db05b7e14c7da0b5115886aeeeba376057b4ff107831110d5a82f329768d2cbc12108182e38ceb6782eadb56baec72ebb701f9dfbea37ea713c6a4cf1067765c4d5a88b884751401fee3a0acaa04fc6529352bbbe00c969b304a6b9a65e4eb95c8ac1e1d45365f56ba82254aa7836c4568dc2d6753290ede2912c422ecc62f3fdcfbc8ffe9d7c01916e3a94f7a1b62dc4a0ca1d0e1fe042ecde50f5b902f3c7fb4fe61095e1c9cafc5717ef37a3d78ab79d92ac0f96935690c9dc94f89bf4d531f3de20b608a22b63d5db0b7e7bf25a4e0c483d4608a50f59964ee7208a2e16fc2ffea79c2520aa44b5a38d9222fc342c069b0c12e00d7f808efb257c427728f34358bc4013eb3f405a75b412da44736e427462d3db02ef1d23dc47d81e3ee5bf1efb7d42669cbe34f857be35a21b9ef95b48fb04df743fba1e7546984b1c780215d9b1944fd325e4d41da88dd195e4c15c3be3adff0ae9488998a225a2cb6fff1d466e1cb0e35342dc9c6b811238112302a1a4e0bd32aabf02e5a4b3dbbb6607be8d7b766aa85abeb224f454a84b09b85af44d93cb2474d0e8e2636b73eea80753ea6fefee09eae9b7072e9208ef3241d7c2189b130f5de0ef9690a989626c75445829da96df7d02b94c98bd43c452614296ffbac0e282e6c37fc7f9d1a2412e0c494fd428723c8ae2068cd1553210137c22700143fd47ea242624d93b8cb1c37b77b619308b56f60584c910530a883baa5bd13db15fa9e1d6d26180e7c7dd0d5a4ceca055572da53e0399e219884b6d05b076fd28187b1aba0b1375a5564cee13b3dfa85b25798d549e300d4113784b4659fc9895b43d645142d1aecb202502f345a75a956bf845419ecbd0c6b"
      ],
      "sequence": 4294967294
    }
  ],
  "vout": [
    {
      "value": 499982.7127,
      "n": 0,
      "scriptPubKey": {
        "asm": "1 d8922999b18a75e89492bd36833cf70a4003d5741167d78cd243cfc8749d7795",
        "hex": "5120d8922999b18a75e89492bd36833cf70a4003d5741167d78cd243cfc8749d7795",
        "reqSigs": 1,
        "type": "witness_v1_scripthash",
        "addresses": [
          "3QJmnh"
        ]
      }
    },
    {
      "value": 1.0,
      "n": 1,
      "scriptPubKey": {
        "asm": "OP_RETURN 77470ba1889ac6f2b5b5c91aa3f26bb48c0ac5fb76a5f255dc8877280061f00a 4c09aa085e8909a07999a513706c64b91a26d5ca0aa49267df7f6b4aba6f82296c298a287ea9298059b98533504c44993a06f5ea2a84b247ff5f4b6a9a4fa2090c49ea481ec949e039d9e553302c24f95a66958a4ae4d2279f3f2b0afa2fc2692c69ca683ee969c019f9c573100c04d97a46b5aa6ac4f207bf1f0b2ada0fe249cc892a88de098920f9192593f0ece4399aa6554a8a2412e75fffebca3aef02a9eca90aa8fe29a900d93905b3d0ccc419ba86756aaa0432c77fdfcbea1acf22898cc96ac89e49c960b95965d3b0aca479dae6150aca6452a71fbfab8a7aaf42e9ace94ae8be69e940997945f3908c8459fac6352aea4472873f9f8baa5a8f62c94c09aa085e8909a07999a513706c64b91a26d5ca0aa49267df7f6b4aba6f82296c298a287ea9298059b98533504c44993a06f5ea2a84b247ff5f4b6a9a4fa2090c49ea481ec949e039d9e553302c24f95a66958a4ae4d2279f3f2b0afa2fc2692c69ca683ee969c019f9c573100c04d97a46b5aa6ac4f207bf1f0b2ada0fe249cc892a88de098920f9192593f0ece4399aa6554a8a2412e75fffebca3aef02a9eca90aa8fe29a900d93905b3d0ccc419ba86756aaa0432c77fdfcbea1acf22898cc96ac89e49c960b95965d3b0aca479dae6150aca6452a71fbfab8a7aaf42e9ace94ae8be69e940997945f3908c8459fac6352aea4472873f9f8baa5a8f62c94c09aa085e8909a07999a513706c64b91a26d5ca0aa49267df7f6b4aba6f82296c298a287ea9298059b98533504c44993a06f5ea2a84b247ff5f4b6a9a4fa2090c49ea481ec949e039d9e553302c24f95a66958a4ae4d2279f3f2b0afa2fc2692c69ca683ee969c019f9c573100c04d97a46b5aa6ac4f207bf1f0b2ada0fe249cc892a88de098920f9192593f0ece4399aa6554a8a2412e75fffebca3aef02a9eca90aa8fe29a900d93905b3d0ccc419ba86756aaa0432c77fdfcbea1acf22898cc96ac89e49c960b95965d3b0aca479dae6150aca6452a71fbfab8a7aaf42e9ace94ae8be69e940997945f3908c8459fac6352aea4472873f9f8baa5a8f62c94c09aa085e8909a07999a513706c64b91a26d5ca0aa49267df7f6b4aba6f82296c298a287ea9298059b98533504c44993a06f5ea2a84b247ff5f4b6a9a4fa2090c49ea481ec949e039d9e553302c24f95a66958a4ae4d2279f3f2b0afa2fc2692c69ca683ee969c019f9c573100c04d97a46b5aa6ac4f207bf1f0b2ada0fe249cc892a88de098920f9192593f0ece4399aa6554a8a2412e75fffebca3aef02a9eca90aa8fe29a900d93905b3d0ccc419ba86756aaa0432c77fdfcbea1acf22898cc96ac89e49c960b95965d3b0aca479dae6150aca6452a71fbfab8a7aaf42e9ace94ae8be69e940997945f3908c8459fac6352aea4472873f9f8baa5a8f62c94c09aa085e8909a07999a513706c64b91a26d5ca0aa49267df7f6b4aba6f82296c298a287ea9298059b98533504c44993a06f5ea2a84b247ff5f4b6a9a4fa2090c49ea481ec949e039d9e553302c24f95a66958a4ae4d2279f3f2b0afa2fc2692c69ca683ee969c019f9c573100c04d97a46b5aa6ac4f207bf1f0b2ada0fe249cc892a88de098920f9192593f0ece43942353cad7c02d7a1e36802addaa3df75179ab0eab716fc741bc60399a568e7ee",
        "hex": "6a2077470ba1889ac6f2b5b5c91aa3f26bb48c0ac5fb76a5f255dc8877280061f00a4db0044c09aa085e8909a07999a513706c64b91a26d5ca0aa49267df7f6b4aba6f82296c298a287ea9298059b98533504c44993a06f5ea2a84b247ff5f4b6a9a4fa2090c49ea481ec949e039d9e553302c24f95a66958a4ae4d2279f3f2b0afa2fc2692c69ca683ee969c019f9c573100c04d97a46b5aa6ac4f207bf1f0b2ada0fe249cc892a88de098920f9192593f0ece4399aa6554a8a2412e75fffebca3aef02a9eca90aa8fe29a900d93905b3d0ccc419ba86756aaa0432c77fdfcbea1acf22898cc96ac89e49c960b95965d3b0aca479dae6150aca6452a71fbfab8a7aaf42e9ace94ae8be69e940997945f3908c8459fac6352aea4472873f9f8baa5a8f62c94c09aa085e8909a07999a513706c64b91a26d5ca0aa49267df7f6b4aba6f82296c298a287ea9298059b98533504c44993a06f5ea2a84b247ff5f4b6a9a4fa2090c49ea481ec949e039d9e553302c24f95a66958a4ae4d2279f3f2b0afa2fc2692c69ca683ee969c019f9c573100c04d97a46b5aa6ac4f207bf1f0b2ada0fe249cc892a88de098920f9192593f0ece4399aa6554a8a2412e75fffebca3aef02a9eca90aa8fe29a900d93905b3d0ccc419ba86756aaa0432c77fdfcbea1acf22898cc96ac89e49c960b95965d3b0aca479dae6150aca6452a71fbfab8a7aaf42e9ace94ae8be69e940997945f3908c8459fac6352aea4472873f9f8baa5a8f62c94c09aa085e8909a07999a513706c64b91a26d5ca0aa49267df7f6b4aba6f82296c298a287ea9298059b98533504c44993a06f5ea2a84b247ff5f4b6a9a4fa2090c49ea481ec949e039d9e553302c24f95a66958a4ae4d2279f3f2b0afa2fc2692c69ca683ee969c019f9c573100c04d97a46b5aa6ac4f207bf1f0b2ada0fe249cc892a88de098920f9192593f0ece4399aa6554a8a2412e75fffebca3aef02a9eca90aa8fe29a900d93905b3d0ccc419ba86756aaa0432c77fdfcbea1acf22898cc96ac89e49c960b95965d3b0aca479dae6150aca6452a71fbfab8a7aaf42e9ace94ae8be69e940997945f3908c8459fac6352aea4472873f9f8baa5a8f62c94c09aa085e8909a07999a513706c64b91a26d5ca0aa49267df7f6b4aba6f82296c298a287ea9298059b98533504c44993a06f5ea2a84b247ff5f4b6a9a4fa2090c49ea481ec949e039d9e553302c24f95a66958a4ae4d2279f3f2b0afa2fc2692c69ca683ee969c019f9c573100c04d97a46b5aa6ac4f207bf1f0b2ada0fe249cc892a88de098920f9192593f0ece4399aa6554a8a2412e75fffebca3aef02a9eca90aa8fe29a900d93905b3d0ccc419ba86756aaa0432c77fdfcbea1acf22898cc96ac89e49c960b95965d3b0aca479dae6150aca6452a71fbfab8a7aaf42e9ace94ae8be69e940997945f3908c8459fac6352aea4472873f9f8baa5a8f62c94c09aa085e8909a07999a513706c64b91a26d5ca0aa49267df7f6b4aba6f82296c298a287ea9298059b98533504c44993a06f5ea2a84b247ff5f4b6a9a4fa2090c49ea481ec949e039d9e553302c24f95a66958a4ae4d2279f3f2b0afa2fc2692c69ca683ee969c019f9c573100c04d97a46b5aa6ac4f207bf1f0b2ada0fe249cc892a88de098920f9192593f0ece43942353cad7c02d7a1e36802addaa3df75179ab0eab716fc741bc60399a568e7ee",
        "type": "nulldata"
      }
    }
  ],
  "blockhash": "73359bfd0a4582986ffd1e7664419d7a0ef7b090643ab62685454f7a097cd719",
  "confirmations": 1,
  "time": 1764179247,
  "blocktime": 1764179247
}