{
  "hex": "010000000001017f8af6bd68499697503e91e4624032ef77942e2994a779a8c92f51484bd5c6530000000000feffffff0200e1f50500000000fdd5046a20222d03be42696d251e735522a3a004e30370048323c01645aac390c5010b55924db004cf0b8484ea39eadf1591bedce0810da328e01395bd77484c9984d688672e7014ef2ba4a4ca19caff35b19efcc0a12d8308c033b59d57686cb9a4f6a8470e50348f4bc4c4aa79aa9f55d1fe9ca0c14de368a053d5fd37080cd9c496c8276e3054af6be4e48a598abf75f1debc80e16dc3488073f5dd17282cf9e4b6e8074e10744f8b04046ab96a5f95113e5c60018d23a86093153df7c8cc19045608e7aef0946fab24244a994a7fb5311e7c4021ad038840b3351dd7e8ec39247628c78ed0b40fcb44442af92a1fd5517e1c2041cd63e820d3557db7888c59441648a7eeb0d42feb64640ad90a3ff5715e3c0061ed43c800f3755d97a8ac7964366887ce90f4cf0b8484ea39eadf1591bedce0810da328e01395bd77484c9984d688672e7014ef2ba4a4ca19caff35b19efcc0a12d8308c033b59d57686cb9a4f6a8470e50348f4bc4c4aa79aa9f55d1fe9ca0c14de368a053d5fd37080cd9c496c8276e3054af6be4e48a598abf75f1debc80e16dc3488073f5dd17282cf9e4b6e8074e10744f8b04046ab96a5f95113e5c60018d23a86093153df7c8cc19045608e7aef0946fab24244a994a7fb5311e7c4021ad038840b3351dd7e8ec39247628c78ed0b40fcb44442af92a1fd5517e1c2041cd63e820d3557db7888c59441648a7eeb0d42feb64640ad90a3ff5715e3c0061ed43c800f3755d97a8ac7964366887ce90f4cf0b8484ea39eadf1591bedce0810da328e01395bd77484c9984d688672e7014ef2ba4a4ca19caff35b19efcc0a12d8308c033b59d57686cb9a4f6a8470e50348f4bc4c4aa79aa9f55d1fe9ca0c14de368a053d5fd37080cd9c496c8276e3054af6be4e48a598abf75f1debc80e16dc3488073f5dd17282cf9e4b6e8074e10744f8b04046ab96a5f95113e5c60018d23a86093153df7c8cc19045608e7aef0946fab24244a994a7fb5311e7c4021ad038840b3351dd7e8ec39247628c78ed0b40fcb44442af92a1fd5517e1c2041cd63e820d3557db7888c59441648a7eeb0d42feb64640ad90a3ff5715e3c0061ed43c800f3755d97a8ac7964366887ce90f4cf0b8484ea39eadf1591bedce0810da328e01395bd77484c9984d688672e7014ef2ba4a4ca19caff35b19efcc0a12d8308c033b59d57686cb9a4f6a8470e50348f4bc4c4aa79aa9f55d1fe9ca0c14de368a053d5fd37080cd9c496c8276e3054af6be4e48a598abf75f1debc80e16dc3488073f5dd17282cf9e4b6e8074e10744f8b04046ab96a5f95113e5c60018d23a86093153df7c8cc19045608e7aef0946fab24244a994a7fb5311e7c4021ad038840b3351dd7e8ec39247628c78ed0b40fcb44442af92a1fd5517e1c2041cd63e820d3557db7888c59441648a7eeb0d42feb64640ad90a3ff5715e3c0061ed43c800f3755d97a8ac7964366887ce90f4cf0b8484ea39eadf1591bedce0810da328e01395bd77484c9984d688672e7014ef2ba4a4ca19caff35b19efcc0a12d8308c033b59d57686cb9a4f6a8470e50348f4bc4c4aa79aa9f55d1fe9ca0c14de368a053d5fd37080cd9c496c8276e3054af6be4e48a598abf75f1debc80e16dc3488073f5dd17282cf9e4b6e8074e10744f8b04046ab96a5f95113e5c60018d2372df5be366c153ca78d4350075231e7d132198089931dac651f72b43afd82a3cc075fe6f792d0000225120a6ed3a055f2aed9b86d837c1bedf0a1c383ccf1aacb5c7d484919a1cd3c0192e02fd75094f8e72f7a0ce37359b0ffb2843a15c47119ff24ca7f7a4ff415f436f235a31a9f39cc6c43e8babaed835aee014cf178b6ae3da5a4b081054221b4ec8f687912b596a68af39ed450a8f30678b558776e2467b0ce61343973a425ef3c5f272b76938d40b28b306432181d96cc610081316c78c76fc725eefb082652d151fad08685cc911f89294c3ad486b8b172a9f1d2b9252633742212f29427fea8b93bd7eb67f8eab52e191c6ceb33f298b2cf84425ab08be4a7365dade22640ca1e5dd7f2a6be7b4af9e6bcab197df421524f4d1bb740221f72fa22822d6c64a8db9bdd924fd5bc8b50b5784dcbd1c8860e8a209b91885f121dd6ab2e3493600090b75647e7fbdf27b3f1f9b26272743a54c0ae933b3271cd09fe3855bc8e8a1cd4f47d6b5130b8f817058f881adc48a96be7dc81e841588dbf1dba9c21fa6389cec3881953b0412ae4157fe387da3f93787177e3855ea238095f466d75a375fafda25d5e2eaf5ac7d8dc1e782bd95bada88dad48083387df84feeca0514307b55d7b235fadb6e9a74610ef62ee6469feeb32c6a35770a5826238f2f9b3c5425bb7399e38a85242df6e7d6cd13ead34044a41dcb27406204a624b6ef9b514b3ecc939b5fee5401b394d8e36aff1aa9b92a238121f703ed8b596e198d8f848fce0343ad6c226cf7f3d3a6668ed2f8e8922ecdb8a49f122cfa11700ed883e6e2eb919527a1fe0ac3158b7bede20de95c87c93696a2a2cf45a1f893c50130da60a1f26f6d5aec3bb602fb8873129b0dd465218475c88552d572841873412cd98d127e1ad914b41fef9c2bce9dfa7749d0f1b7d71997b2597ece56e7b5a23a3cb51844b23a20d9b694974dd86277f6c4849edd40c23469a98a632c907bfd502f00690dd82b66bcffeaf98745fdf02df989e2db311936b33bf507a30e25816f0b0e726bc8bdbeda2bfa57aa1253033fcc8fab369d6dfdc07d36549ed1cda731ce43b2df45123a785416ea89e703ebcf1b4e08d06fac65e776f20cd598aff31877da958eb9638ec31296dcec618a8abf86ecdc64f63f1439c51f08c554d993c4144b1b5b9cc4afb41b7cefeb39f0c38388a747144b1794532f362775dc74d3aa35aae6b560b59af720e3d5ca22dc09df8f849e47d366fc994f14de97813a7afed1fd657c080d4cfc9f52be241d48e750f1338dc378a4317e770d40b4f79b9464da81bed9d4c69db64e81ac4cb6f571d95253b61ee5ffd346b9aff7259881d8c89a8254932ce29afca8421c32c5b3b079659c85e83b8ac6b3913d48382c62b4516697748c9c880bc54bdfe4f2ae0d9e590724bdfda0086305a851f9383fe58589646f055a366f51c47ea712aa63d91ef216aa819d39d84f5dc79dec45d5935f5a7c6bacf4005622589f6755e26a212fd97fda97293ac7f113f64fc9e3e4a198028010eb4906e4ac4237d8e013e270abf5e18c8b9b54077da10262458259b297501fec03c053236e0a6af6243754ed586c2f65d06907a1012fa61ccc08d9696f0742f9463cec1601905fd0f18740d402fc68b20c8244304a896c84a952d99dce299dc50920519df56eb01f663560dbd468d50f30de014e445c217fbd9d658aaa57e52682c29a29a3cbe217d60abbdc04aa31d3d1bde45bdbe41d0a000aeb8d9a4ac680f1595c3fa5f9c8e44fb25c8e0b74dfc04725b192610032d0733058f875f7cca56715a71c82948ea16a8af224e4c248efb5b605819a9b4874e931dad62af239041d8fd1613ac4a8b92c46f3dbf2993dde8fa80d30aff233cac45c41ee65088f76a57be76e7014da1c8d28bc15383b0315efe3f241ec4b9b38dc3ba900905c7cfcb4ae9422a63b25b7607b13af8229adffefaadea0356a6d68e1092ed825fd5def7d5b67244f344f6f29a724f36d3c91d3ff125b966a81d68671e2d3670623f59a9367053a67d580d6bc1313779dcc809b767629bdc2ef45d081043ebb2fef66ecdb5de29bfec94b6e6598bd029ea0f10f6cbd03e7c301beb8416d5a1be368f66266b8ba2d3b3b0fc9d00f0300627901159df1e574a12d04946c54882f4545d4a993e8a221a7a76cf6441dcdcb44434094b948281851a09563d7175e3ecd6409f62e1f442b73922f3473f8a7878583cf414cd4840aac9c802e8ec27e57f7e3cd204d1dd34c87fda9b23ada078d7cccf350c32843988159b3b2dc0c43177feb6767ad5ae7bdcb8cc32e5ee32801f8d92327d35c453463f645c43f31a18bb1fa7f7085de740c4466a812a6975d18fb61bcaf57bd52f242c1bf58ddeaba842116e8df67497793e4aaafea14be195120b817ee2d0d5b9d31ed2b71560fd926d1fee3d6b1964e045a59085358d5119c0324fbb359f44b1e038e2c10edef59c0da2e66c79d41a2a7c3435487395379c44aef58c7fd3614847558c035d4e2aff3e9b8c4f46ffb1f9629776c0e09949b07d58f55bf9713b72c555209d60e701950bed0c3d10f9ed69248d670974ae5a5ea65a8e2ea7497b99519ef76698683784453bbb3e27208c0fa1220052de0338bdda1e6e8648f816e774b4c6943c76f055e839918a1dbad8bb54108c442c5146f5955402ad20afd64a063c2a10545e0704e62096b046216a4012d1c9af6b54dc3186ab6e4f75e79a94cafc4ba6093d814fe88bfef6cef6ee16aa860c430b67aebc064c8fa101a0c8590b66dcd3706c7b5d72b4a0211505bfbc6d6c2321c5bb4c7cbb798dd41ededb35b8e24d7cd3dd274bc761bbae0a7f38f8120ea8a56b689fb784f48c02370b641e106d5bf2fa70349dc599b4bcb4e381ed74e9ed116e596417c343324479aec912694fe36e4cabab455b5252c2ede52adf004905cba8a31663fe4c48f4aacfadc24946346f65bfb0619115b7751eb38b0403ca1f925bef130d1bc22a1dbe1bc61eb19ac1382511ef232864ddc04ff04653e798e264fa6d2e81e4edf3ba1c549aef3c1750a59ccd9993bc66308fc79f36fc9936bc143f0851d36801a9cb75863dc9f0df14b4ee4bb4333990b6f79adaf1f40d6e22027fd92c6dff30994a517c0ca7726e11ff2f06890bf7b4bbb1a045e4a0aa22867fad04b7602e07c24308c7a7bbfa096ca86a0198a1f6b77c027e07c0df419a80ee485abeb1838f161758fc4d18a71cf7b6fe9a331e4413b2bc1f6758512a44b7be5e2da03da6033575861b978f2c13b4ea5c8699196d249eb286cc9e77d183ff7e6f566121eb2a42d123ecf94427e640f1388beb71eabd1e4bf180654ccd33dd98b374cf8677578be6ca1433c49c0a3e890b51bfe46019a473837b4c4a466be1123282957737e808d8e97a0bbcae1f9fa192f3b3d4765686e717f8ba4abadb9c5e0f2ff1935495f696a838589a0a8d1e2e7ec08111226292b4965949ba7afd0dfe4f6f90000000000000000000000001124334401fd2105007a205fbecf137107cc27e741aec6e9ac6a927d15f86e04c9ed7fea1047b01af4510aa34c1fbde525eb37fea04bbed30ea096fe49558e1d2a499c51694721dd4a5e1f039e74b1e337d6c24ae6171f41f0a5ee24ace096ef1fc2a9009dd9c4399b70f18e242c43cada30628805ec23839ccda43c75aea2341fdf7d84ab61fccd3e2d802c7b6b83c45e9f93f8d3ec9e5dae8292a967804f9320018d62d20466004c10da1aec7d462a7c3e03e5cd58bf901eee8c4efaf6363352c0614585bc2a3a3b9cdb459ed1609a51f2c0adfe7bcd16d76774cecf0eb4f3186c0cb58df38bbe0900cebbab95dbe0f9f50ebc1b0d9bdeac5727af5ff574ac6e6b03d7db1de9c1b42d197dc88b45a73ec6528c2f2ec4a9aec11fdab16f506fdfdbf2f4a0523c2dd6abc834c83277f5fde6b68e10c3eed3917241d9f71a210ff9b05b8ea346c8d7accd495cf98a6f6441822ed06f77e8166d9396ceae0fe4db396c6a927819492461888c4facfa5b4ce4818171ce93ee99ed3f730190c5a52d795f8771bd74534ca6abd5e8f8c8b171ff6d0e79ac7b049c6dc510b0f39c764d81a0be9614200326acde45999dd8f53ee9731c9d42996ee2de275874c34b0f550e1c5f333205956ae1b37672329db6c746bcf4ae30d683dc201ec0b74780dc325ad4903165fe33d4f7baef096884562a43f77b68761e6916ed580ed9e0e82b533c1fc87aa386dbfa1fe5b834eaade899cb46b7067d79cfc0c600d2324bd5b56254ce7ca53dc51c9bf83bd80a93b15dc7ec8372d5fb8885cfd399c926f7c5e046b6386af952066cf2de0c0e34cfc032d5c3bc1b7ea68c6cca8652bb75d62ba2e826dc57c97fddbac02096bafb424f1609fb6607d76b2b645dfcd66c9821a07deb07ec6b6dea7d38cb6f4ab0debb5cf1052971a6a7bfbe227752b7b52bf0c6f6f9ff51eef113049ddcba4b2faedfae4d8f522d85e8e814725425e06e084d41d39e9aec40774dd621d8f34e6ab9e4c208885c4f508a92fa8a6f0577380bd9f2b64136b0670ea022d4e118a67bb8b5bf5cafa820d9a3abb59771927c9da1e66df1923fea25dc6211c15dcda34c297e5ac223ba938bd4f9e0718c023b884d8bff3738bb504e0accea9cb0f10fab478642d0b56a5953d193f3e591a0a3133c3efa8f7e42649fb5d44887a26dbd6fe18fa1d27ff490abdf2117cfb3a956393bdad201e25f68444b023e25bdf9e3f7dc473dc360c88d0f516ddc472b0f2304f6dc5abfa686ee9a07a1de34a325bef2801bccb0b893921d3c9499fae05ce02b45fbe2303383923601333e598c70b872bf0e1d4616d576a4e5fb6cd8bd9e1e3f916696dd5c690af6d178453d39bedc86195a19a8b543006527dbbc8e831b5a91116131aac90c751f35e884d640d27aab464935d028a6213f16b3e907bfc85007d295ea754a898d3d43bb8cd297396da95e9ad95da4038a6cf591b25e5cfafc11a315742c2aff7550d1ce98221bbb50f74518a0848a94df0774923843e6b79ced08594c8a7d909ddac98bf1ec8b04688967b67850fd9e02d033a8c3a82b7834bd7f62270e84a0cad5fe81d36e049b0cb91a122a6b3268ee17380cb628d42373c997fd9c1c141c7a4aa5e7fc431225f20b1e5a0f79c772591256362d4ecf0d830277db7c63354e2f835ebb5f08a245cd4dee1312ae29e9d5bd2d807e8114016567b9405133ec6159f0ea71580242af1e923037a3fa600b84c1027f2c453259ea374f0d6e9817b74e5799e7b6fda405ee09f5ed0a73f8fc18a9d9c700182c5e53287a8bd72a912e5b3ea694a21d2fa18f1f5e84e5f4468a08909e5c0e3a675a8ec6737f3a426ebb4aad8318074f50de67000000",
  "txid": "ba2801c3392ef674cd742eb2fd9d4553c9728c54de92b89d3c8f5bfbca975dee",
  "hash": "840d7361f627c56eefda76a6115643346c3137c47c0a86dd8ab6837cffa3d08e",
  "size": 5085,
  "vsize": 2278,
  "version": 1,
  "locktime": 103,
  "vin": [
    {
      "txid": "53c6d54b48512fc9a879a794292e9477ef324062e4913e5097964968bdf68a7f",
      "vout": 0,
      "scriptSig": {
        "asm": "",
        "hex": ""
      },
      "txinwitness": [
        "4f8e72f7a0ce37359b0ffb2843a15c47119ff24ca7f7a4ff415f436f235a31a9f39cc6c43e8babaed835aee014cf178b6ae3da5a4b081054221b4ec8f687912b596a68af39ed450a8f30678b558776e2467b0ce61343973a425ef3c5f272b76938d40b28b306432181d96cc610081316c78c76fc725eefb082652d151fad08685cc911f89294c3ad486b8b172a9f1d2b9252633742212f29427fea8b93bd7eb67f8eab52e191c6ceb33f298b2cf84425ab08be4a7365dade22640ca1e5dd7f2a6be7b4af9e6bcab197df421524f4d1bb740221f72fa22822d6c64a8db9bdd924fd5bc8b50b5784dcbd1c8860e8a209b91885f121dd6ab2e3493600090b75647e7fbdf27b3f1f9b26272743a54c0ae933b3271cd09fe3855bc8e8a1cd4f47d6b5130b8f817058f881adc48a96be7dc81e841588dbf1dba9c21fa6389cec3881953b0412ae4157fe387da3f93787177e3855ea238095f466d75a375fafda25d5e2eaf5ac7d8dc1e782bd95bada88dad48083387df84feeca0514307b55d7b235fadb6e9a74610ef62ee6469feeb32c6a35770a5826238f2f9b3c5425bb7399e38a85242df6e7d6cd13ead34044a41dcb27406204a624b6ef9b514b3ecc939b5fee5401b394d8e36aff1aa9b92a238121f703ed8b596e198d8f848fce0343ad6c226cf7f3d3a6668ed2f8e8922ecdb8a49f122cfa11700ed883e6e2eb919527a1fe0ac3158b7bede20de95c87c93696a2a2cf45a1f893c50130da60a1f26f6d5aec3bb602fb8873129b0dd465218475c88552d572841873412cd98d127e1ad914b41fef9c2bce9dfa7749d0f1b7d71997b2597ece56e7b5a23a3cb51844b23a20d9b694974dd86277f6c4849edd40c23469a98a632c907bfd502f00690dd82b66bcffeaf98745fdf02df989e2db311936b33bf507a30e25816f0b0e726bc8bdbeda2bfa57aa1253033fcc8fab369d6dfdc07d36549ed1cda731ce43b2df45123a785416ea89e703ebcf1b4e08d06fac65e776f20cd598aff31877da958eb9638ec31296dcec618a8abf86ecdc64f63f1439c51f08c554d993c4144b1b5b9cc4afb41b7cefeb39f0c38388a747144b1794532f362775dc74d3aa35aae6b560b59af720e3d5ca22dc09df8f849e47d366fc994f14de97813a7afed1fd657c080d4cfc9f52be241d48e750f1338dc378a4317e770d40b4f79b9464da81bed9d4c69db64e81ac4cb6f571d95253b61ee5ffd346b9aff7259881d8c89a8254932ce29afca8421c32c5b3b079659c85e83b8ac6b3913d48382c62b4516697748c9c880bc54bdfe4f2ae0d9e590724bdfda0086305a851f9383fe58589646f055a366f51c47ea712aa63d91ef216aa819d39d84f5dc79dec45d5935f5a7c6bacf4005622589f6755e26a212fd97fda97293ac7f113f64fc9e3e4a198028010eb4906e4ac4237d8e013e270abf5e18c8b9b54077da10262458259b297501fec03c053236e0a6af6243754ed586c2f65d06907a1012fa61ccc08d9696f0742f9463cec1601905fd0f18740d402fc68b20c8244304a896c84a952d99dce299dc50920519df56eb01f663560dbd468d50f30de014e445c217fbd9d658aaa57e52682c29a29a3cbe217d60abbdc04aa31d3d1bde45bdbe41d0a000aeb8d9a4ac680f1595c3fa5f9c8e44fb25c8e0b74dfc04725b192610032d0733058f875f7cca56715a71c82948ea16a8af224e4c248efb5b605819a9b4874e931dad62af239041d8fd1613ac4a8b92c46f3dbf2993dde8fa80d30aff233cac45c41ee65088f76a57be76e7014da1c8d28bc15383b0315efe3f241ec4b9b38dc3ba900905c7cfcb4ae9422a63b25b7607b13af8229adffefaadea0356a6d68e1092ed825fd5def7d5b67244f344f6f29a724f36d3c91d3ff125b966a81d68671e2d3670623f59a9367053a67d580d6bc1313779dcc809b767629bdc2ef45d081043ebb2fef66ecdb5de29bfec94b6e6598bd029ea0f10f6cbd03e7c301beb8416d5a1be368f66266b8ba2d3b3b0fc9d00f0300627901159df1e574a12d04946c54882f4545d4a993e8a221a7a76cf6441dcdcb44434094b948281851a09563d7175e3ecd6409f62e1f442b73922f3473f8a7878583cf414cd4840aac9c802e8ec27e57f7e3cd204d1dd34c87fda9b23ada078d7cccf350c32843988159b3b2dc0c43177feb6767ad5ae7bdcb8cc32e5ee32801f8d92327d35c453463f645c43f31a18bb1fa7f7085de740c4466a812a6975d18fb61bcaf57bd52f242c1bf58ddeaba842116e8df67497793e4aaafea14be195120b817ee2d0d5b9d31ed2b71560fd926d1fee3d6b1964e045a59085358d5119c0324fbb359f44b1e038e2c10edef59c0da2e66c79d41a2a7c3435487395379c44aef58c7fd3614847558c035d4e2aff3e9b8c4f46ffb1f9629776c0e09949b07d58f55bf9713b72c555209d60e701950bed0c3d10f9ed69248d670974ae5a5ea65a8e2ea7497b99519ef76698683784453bbb3e27208c0fa1220052de0338bdda1e6e8648f816e774b4c6943c76f055e839918a1dbad8bb54108c442c5146f5955402ad20afd64a063c2a10545e0704e62096b046216a4012d1c9af6b54dc3186ab6e4f75e79a94cafc4ba6093d814fe88bfef6cef6ee16aa860c430b67aebc064c8fa101a0c8590b66dcd3706c7b5d72b4a0211505bfbc6d6c2321c5bb4c7cbb798dd41ededb35b8e24d7cd3dd274bc761bbae0a7f38f8120ea8a56b689fb784f48c02370b641e106d5bf2fa70349dc599b4bcb4e381ed74e9ed116e596417c343324479aec912694fe36e4cabab455b5252c2ede52adf004905cba8a31663fe4c48f4aacfadc24946346f65bfb0619115b7751eb38b0403ca1f925bef130d1bc22a1dbe1bc61eb19ac1382511ef232864ddc04ff04653e798e264fa6d2e81e4edf3ba1c549aef3c1750a59ccd9993bc66308fc79f36fc9936bc143f0851d36801a9cb75863dc9f0df14b4ee4bb4333990b6f79adaf1f40d6e22027fd92c6dff30994a517c0ca7726e11ff2f06890bf7b4bbb1a045e4a0aa22867fad04b7602e07c24308c7a7bbfa096ca86a0198a1f6b77c027e07c0df419a80ee485abeb1838f161758fc4d18a71cf7b6fe9a331e4413b2bc1f6758512a44b7be5e2da03da6033575861b978f2c13b4ea5c8699196d249eb286cc9e77d183ff7e6f566121eb2a42d123ecf94427e640f1388beb71eabd1e4bf180654ccd33dd98b374cf8677578be6ca1433c49c0a3e890b51bfe46019a473837b4c4a466be1123282957737e808d8e97a0bbcae1f9fa192f3b3d4765686e717f8ba4abadb9c5e0f2ff1935495f696a838589a0a8d1e2e7ec08111226292b4965949ba7afd0dfe4f6f90000000000000000000000001124334401",
        "007a205fbecf137107cc27e741aec6e9ac6a927d15f86e04c9ed7fea1047b01af4510aa34c1fbde525eb37fea04bbed30ea096fe49558e1d2a499c51694721dd4a5e1f039e74b1e337d6c24ae6171f41f0a5ee24ace096ef1fc2a9009dd9c4399b70f18e242c43cada30628805ec23839ccda43c75aea2341fdf7d84ab61fccd3e2d802c7b6b83c45e9f93f8d3ec9e5dae8292a967804f9320018d62d20466004c10da1aec7d462a7c3e03e5cd58bf901eee8c4efaf6363352c0614585bc2a3a3b9cdb459ed1609a51f2c0adfe7bcd16d76774cecf0eb4f3186c0cb58df38bbe0900cebbab95dbe0f9f50ebc1b0d9bdeac5727af5ff574ac6e6b03d7db1de9c1b42d197dc88b45a73ec6528c2f2ec4a9aec11fdab16f506fdfdbf2f4a0523c2dd6abc834c83277f5fde6b68e10c3eed3917241d9f71a210ff9b05b8ea346c8d7accd495cf98a6f6441822ed06f77e8166d9396ceae0fe4db396c6a927819492461888c4facfa5b4ce4818171ce93ee99ed3f730190c5a52d795f8771bd74534ca6abd5e8f8c8b171ff6d0e79ac7b049c6dc510b0f39c764d81a0be9614200326acde45999dd8f53ee9731c9d42996ee2de275874c34b0f550e1c5f333205956ae1b37672329db6c746bcf4ae30d683dc201ec0b74780dc325ad4903165fe33d4f7baef096884562a43f77b68761e6916ed580ed9e0e82b533c1fc87aa386dbfa1fe5b834eaade899cb46b7067d79cfc0c600d2324bd5b56254ce7ca53dc51c9bf83bd80a93b15dc7ec8372d5fb8885cfd399c926f7c5e046b6386af952066cf2de0c0e34cfc032d5c3bc1b7ea68c6cca8652bb75d62ba2e826dc57c97fddbac02096bafb424f1609fb6607d76b2b645dfcd66c9821a07deb07ec6b6dea7d38cb6f4ab0debb5cf1052971a6a7bfbe227752b7b52bf0c6f6f9ff51eef113049ddcba4b2faedfae4d8f522d85e8e814725425e06e084d41d39e9aec40774dd621d8f34e6ab9e4c208885c4f508a92fa8a6f0577380bd9f2b64136b0670ea022d4e118a67bb8b5bf5cafa820d9a3abb59771927c9da1e66df1923fea25dc6211c15dcda34c297e5ac223ba938bd4f9e0718c023b884d8bff3738bb504e0accea9cb0f10fab478642d0b56a5953d193f3e591a0a3133c3efa8f7e42649fb5d44887a26dbd6fe18fa1d27ff490abdf2117cfb3a956393bdad201e25f68444b023e25bdf9e3f7dc473dc360c88d0f516ddc472b0f2304f6dc5abfa686ee9a07a1de34a325bef2801bccb0b893921d3c9499fae05ce02b45fbe2303383923601333e598c70b872bf0e1d4616d576a4e5fb6cd8bd9e1e3f916696dd5c690af6d178453d39bedc86195a19a8b543006527dbbc8e831b5a91116131aac90c751f35e884d640d27aab464935d028a6213f16b3e907bfc85007d295ea754a898d3d43bb8cd297396da95e9ad95da4038a6cf591b25e5cfafc11a315742c2aff7550d1ce98221bbb50f74518a0848a94df0774923843e6b79ced08594c8a7d909ddac98bf1ec8b04688967b67850fd9e02d033a8c3a82b7834bd7f62270e84a0cad5fe81d36e049b0cb91a122a6b3268ee17380cb628d42373c997fd9c1c141c7a4aa5e7fc431225f20b1e5a0f79c772591256362d4ecf0d830277db7c63354e2f835ebb5f08a245cd4dee1312ae29e9d5bd2d807e8114016567b9405133ec6159f0ea71580242af1e923037a3fa600b84c1027f2c453259ea374f0d6e9817b74e5799e7b6fda405ee09f5ed0a73f8fc18a9d9c700182c5e53287a8bd72a912e5b3ea694a21d2fa18f1f5e84e5f4468a08909e5c0e3a675a8ec6737f3a426ebb4aad8318074f50de"
      ],
      "sequence": 4294967294
    }
  ],
  "vout": [
    {
      "value": 1.0,
      "n": 0,
      "scriptPubKey": {
        "asm": "OP_RETURN 222d03be42696d251e735522a3a004e30370048323c01645aac390c5010b5592 cf0b8484ea39eadf1591bedce0810da328e01395bd77484c9984d688672e7014ef2ba4a4ca19caff35b19efcc0a12d8308c033b59d57686cb9a4f6a8470e50348f4bc4c4aa79aa9f55d1fe9ca0c14de368a053d5fd37080cd9c496c8276e3054af6be4e48a598abf75f1debc80e16dc3488073f5dd17282cf9e4b6e8074e10744f8b04046ab96a5f95113e5c60018d23a86093153df7c8cc19045608e7aef0946fab24244a994a7fb5311e7c4021ad038840b3351dd7e8ec39247628c78ed0b40fcb44442af92a1fd5517e1c2041cd63e820d3557db7888c59441648a7eeb0d42feb64640ad90a3ff5715e3c0061ed43c800f3755d97a8ac7964366887ce90f4cf0b8484ea39eadf1591bedce0810da328e01395bd77484c9984d688672e7014ef2ba4a4ca19caff35b19efcc0a12d8308c033b59d57686cb9a4f6a8470e50348f4bc4c4aa79aa9f55d1fe9ca0c14de368a053d5fd37080cd9c496c8276e3054af6be4e48a598abf75f1debc80e16dc3488073f5dd17282cf9e4b6e8074e10744f8b04046ab96a5f95113e5c60018d23a86093153df7c8cc19045608e7aef0946fab24244a994a7fb5311e7c4021ad038840b3351dd7e8ec39247628c78ed0b40fcb44442af92a1fd5517e1c2041cd63e820d3557db7888c59441648a7eeb0d42feb64640ad90a3ff5715e3c0061ed43c800f3755d97a8ac7964366887ce90f4cf0b8484ea39eadf1591bedce0810da328e01395bd77484c9984d688672e7014ef2ba4a4ca19caff35b19efcc0a12d8308c033b59d57686cb9a4f6a8470e50348f4bc4c4aa79aa9f55d1fe9ca0c14de368a053d5fd37080cd9c496c8276e3054af6be4e48a598abf75f1debc80e16dc3488073f5dd17282cf9e4b6e8074e10744f8b04046ab96a5f95113e5c60018d23a86093153df7c8cc19045608e7aef0946fab24244a994a7fb5311e7c4021ad038840b3351dd7e8ec39247628c78ed0b40fcb44442af92a1fd5517e1c2041cd63e820d3557db7888c59441648a7eeb0d42feb64640ad90a3ff5715e3c0061ed43c800f3755d97a8ac7964366887ce90f4cf0b8484ea39eadf1591bedce0810da328e01395bd77484c9984d688672e7014ef2ba4a4ca19caff35b19efcc0a12d8308c033b59d57686cb9a4f6a8470e50348f4bc4c4aa79aa9f55d1fe9ca0c14de368a053d5fd37080cd9c496c8276e3054af6be4e48a598abf75f1debc80e16dc3488073f5dd17282cf9e4b6e8074e10744f8b04046ab96a5f95113e5c60018d23a86093153df7c8cc19045608e7aef0946fab24244a994a7fb5311e7c4021ad038840b3351dd7e8ec39247628c78ed0b40fcb44442af92a1fd5517e1c2041cd63e820d3557db7888c59441648a7eeb0d42feb64640ad90a3ff5715e3c0061ed43c800f3755d97a8ac7964366887ce90f4cf0b8484ea39eadf1591bedce0810da328e01395bd77484c9984d688672e7014ef2ba4a4ca19caff35b19efcc0a12d8308c033b59d57686cb9a4f6a8470e50348f4bc4c4aa79aa9f55d1fe9ca0c14de368a053d5fd37080cd9c496c8276e3054af6be4e48a598abf75f1debc80e16dc3488073f5dd17282cf9e4b6e8074e10744f8b04046ab96a5f95113e5c60018d2372df5be366c153ca78d4350075231e7d132198089931dac651f72b43afd82a3c",
        "hex": "6a20222d03be42696d251e735522a3a004e30370048323c01645aac390c5010b55924db004cf0b8484ea39eadf1591bedce0810da328e01395bd77484c9984d688672e7014ef2ba4a4ca19caff35b19efcc0a12d8308c033b59d57686cb9a4f6a8470e50348f4bc4c4aa79aa9f55d1fe9ca0c14de368a053d5fd37080cd9c496c8276e3054af6be4e48a598abf75f1debc80e16dc3488073f5dd17282cf9e4b6e8074e10744f8b04046ab96a5f95113e5c60018d23a86093153df7c8cc19045608e7aef0946fab24244a994a7fb5311e7c4021ad038840b3351dd7e8ec39247628c78ed0b40fcb44442af92a1fd5517e1c2041cd63e820d3557db7888c59441648a7eeb0d42feb64640ad90a3ff5715e3c0061ed43c800f3755d97a8ac7964366887ce90f4cf0b8484ea39eadf1591bedce0810da328e01395bd77484c9984d688672e7014ef2ba4a4ca19caff35b19efcc0a12d8308c033b59d57686cb9a4f6a8470e50348f4bc4c4aa79aa9f55d1fe9ca0c14de368a053d5fd37080cd9c496c8276e3054af6be4e48a598abf75f1debc80e16dc3488073f5dd17282cf9e4b6e8074e10744f8b04046ab96a5f95113e5c60018d23a86093153df7c8cc19045608e7aef0946fab24244a994a7fb5311e7c4021ad038840b3351dd7e8ec39247628c78ed0b40fcb44442af92a1fd5517e1c2041cd63e820d3557db7888c59441648a7eeb0d42feb64640ad90a3ff5715e3c0061ed43c800f3755d97a8ac7964366887ce90f4cf0b8484ea39eadf1591bedce0810da328e01395bd77484c9984d688672e7014ef2ba4a4ca19caff35b19efcc0a12d8308c033b59d57686cb9a4f6a8470e50348f4bc4c4aa79aa9f55d1fe9ca0c14de368a053d5fd37080cd9c496c8276e3054af6be4e48a598abf75f1debc80e16dc3488073f5dd17282cf9e4b6e8074e10744f8b04046ab96a5f95113e5c60018d23a86093153df7c8cc19045608e7aef0946fab24244a994a7fb5311e7c4021ad038840b3351dd7e8ec39247628c78ed0b40fcb44442af92a1fd5517e1c2041cd63e820d3557db7888c59441648a7eeb0d42feb64640ad90a3ff5715e3c0061ed43c800f3755d97a8ac7964366887ce90f4cf0b8484ea39eadf1591bedce0810da328e01395bd77484c9984d688672e7014ef2ba4a4ca19caff35b19efcc0a12d8308c033b59d57686cb9a4f6a8470e50348f4bc4c4aa79aa9f55d1fe9ca0c14de368a053d5fd37080cd9c496c8276e3054af6be4e48a598abf75f1debc80e16dc3488073f5dd17282cf9e4b6e8074e10744f8b04046ab96a5f95113e5c60018d23a86093153df7c8cc19045608e7aef0946fab24244a994a7fb5311e7c4021ad038840b3351dd7e8ec39247628c78ed0b40fcb44442af92a1fd5517e1c2041cd63e820d3557db7888c59441648a7eeb0d42feb64640ad90a3ff5715e3c0061ed43c800f3755d97a8ac7964366887ce90f4cf0b8484ea39eadf1591bedce0810da328e01395bd77484c9984d688672e7014ef2ba4a4ca19caff35b19efcc0a12d8308c033b59d57686cb9a4f6a8470e50348f4bc4c4aa79aa9f55d1fe9ca0c14de368a053d5fd37080cd9c496c8276e3054af6be4e48a598abf75f1debc80e16dc3488073f5dd17282cf9e4b6e8074e10744f8b04046ab96a5f95113e5c60018d2372df5be366c153ca78d4350075231e7d132198089931dac651f72b43afd82a3c",
        "type": "nulldata"
      }
    },
    {
      "value": 499995.9324,
      "n": 1,
      "scriptPubKey": {
        "asm": "1 a6ed3a055f2aed9b86d837c1bedf0a1c383ccf1aacb5c7d484919a1cd3c0192e",
        "hex": "5120a6ed3a055f2aed9b86d837c1bedf0a1c383ccf1aacb5c7d484919a1cd3c0192e",
        "reqSigs": 1,
        "type": "witness_v1_scripthash",
        "addresses": [
          "3QJmnh"
        ]
      }
    }
  ],
  "blockhash": "15af9b025c636b87e0a10c18a1a8de0e5f3c2069ad563b293161176d75df89a4",
  "confirmations": 1,
  "time": 1764174659,
  "blocktime": 1764174659
}