{
  "hex": "010000000001010ee388ac0df3803b56ed5f976f6e1884f8f12799fcc947e71e347a44ec9487770100000000feffffff0200e1f50500000000fdd5046a2085019467ba36c98d8ee967422cae3cd0244dbfeaf5f6690cc0dfe930d46b30d74db004a7190d18670472823d9998cf0308a22d0797af3b596118151b86b0da2129e8f687392d38472452a21db9b8ef2328820d27b78f1b794138353ba690fa0109c8d6e7594d58274432c27dd9d88f4348e26d47d7ef7b192158555bc6f09a6169a8b6c7796d78076412e25df9f8af6368c24d67f7cf5b390178757be6d0ba4149889627998d98e784f202bd19184f838822ad87172fbbd9e198959b06305aa1a9687607b9adb8c7a4d2229d39386fa3a8028da7370f9bf9c1b8b5bb26107a8189485667d9cdd8a7c4b242fd59580fc3c862edc7576ffb99a1d8d5db46701ae1e9283647f9edf887e49262dd79782fe3e842cde7774fdbb981f8f5fb66503ac1c90816a7190d18670472823d9998cf0308a22d0797af3b596118151b86b0da2129e8f687392d38472452a21db9b8ef2328820d27b78f1b794138353ba690fa0109c8d6e7594d58274432c27dd9d88f4348e26d47d7ef7b192158555bc6f09a6169a8b6c7796d78076412e25df9f8af6368c24d67f7cf5b390178757be6d0ba4149889627998d98e784f202bd19184f838822ad87172fbbd9e198959b06305aa1a9687607b9adb8c7a4d2229d39386fa3a8028da7370f9bf9c1b8b5bb26107a8189485667d9cdd8a7c4b242fd59580fc3c862edc7576ffb99a1d8d5db46701ae1e9283647f9edf887e49262dd79782fe3e842cde7774fdbb981f8f5fb66503ac1c90816a7190d18670472823d9998cf0308a22d0797af3b596118151b86b0da2129e8f687392d38472452a21db9b8ef2328820d27b78f1b794138353ba690fa0109c8d6e7594d58274432c27dd9d88f4348e26d47d7ef7b192158555bc6f09a6169a8b6c7796d78076412e25df9f8af6368c24d67f7cf5b390178757be6d0ba4149889627998d98e784f202bd19184f838822ad87172fbbd9e198959b06305aa1a9687607b9adb8c7a4d2229d39386fa3a8028da7370f9bf9c1b8b5bb26107a8189485667d9cdd8a7c4b242fd59580fc3c862edc7576ffb99a1d8d5db46701ae1e9283647f9edf887e49262dd79782fe3e842cde7774fdbb981f8f5fb66503ac1c90816a7190d18670472823d9998cf0308a22d0797af3b596118151b86b0da2129e8f687392d38472452a21db9b8ef2328820d27b78f1b794138353ba690fa0109c8d6e7594d58274432c27dd9d88f4348e26d47d7ef7b192158555bc6f09a6169a8b6c7796d78076412e25df9f8af6368c24d67f7cf5b390178757be6d0ba4149889627998d98e784f202bd19184f838822ad87172fbbd9e198959b06305aa1a9687607b9adb8c7a4d2229d39386fa3a8028da7370f9bf9c1b8b5bb26107a8189485667d9cdd8a7c4b242fd59580fc3c862edc7576ffb99a1d8d5db46701ae1e9283647f9edf887e49262dd79782fe3e842cde7774fdbb981f8f5fb66503ac1c90816a7190d18670472823d9998cf0308a22d0797af3b596118151b86b0da2129e8f687392d38472452a21db9b8ef2328820d27b78f1b794138353ba690fa0109c8d6e7594d58274432c27dd9d88f4348e26d47d7ef7b192158555bc6f09a6169a8b6c7796d78076412e25df9f8af6368c24d67f7cf5b390178757be6d0ba4149889627998d98e784f202bd19184f838822ad5c88b30b97a6b68a7f65e57c9dcabc8a8779816ceb437c696cef208d7df09ead4021813f792d0000225120b31c076abbece9ca9a9bf7babfc28d3d28cda94eef6bb264fb7e19a3a3167a5902fd7509a1b30908abb63e84c1f1ef3f1711b919088aa79610720337c1c7491c117c9e98089c201ab3f7a9b30693cc188141407439aad34ab2902705af058dbc3da48896e7b72f927c54078e717c20b1ec60041400c4218db89a73af9f145271113279a94f54034e270c5a311b1ed38f4c85ef937c56d069b3a028fd4d198c488688392b541f70d77aa3b22c67fa30b0ae21260252c6d3c9cc6bbc4dd715ab80d43397d21103c9de8182224e4cadb6e34401140c9221775fe5a3e020c524c3d239349ce01f5272e519ed517640b1df6fef4c84a48a0019234bcfc9cfb8098d795287eef3cc7f96eda7c3a1e7bda71e835a610a3e84960c0202bbcf307272648c5a8793bbde624c3d0378813abb97881f98e1d46b4993bd3c06e66e76d5c80a911b5c077a17c138d1ee1597409613fb966f53d345c5ba58b051c46090859f49a0dd0dda42f377550514132a59a657ed93d63ddbfe7edeb308027cc9b2b30459f137f8537c72b78edf84be65d95b9b5810e937133e454a12871a033578d027896463c2770de82545fffa9735d7bb7e89cdb0e74caf752251dd9026e990e9fd139be91654ecba574c69e981e72ef3ed944f185a88a1f186318e7f9d8dbc4b91d5bbfdd14551f69b7362a5c33e8b5dc3d06e557f82d0d0ded4ec6e1fc68cfe1659c26cbdd3bdb72c93dea294b8c75f31fa31b95d74cdf124d693d25d36a3dd3f4763a84e7a8d4420c16bd2aba739cd08bedc4efb3b308a6f0d607411ba2662a73bd9f4dc5370adb21ca4253a2738c0a50bbd392d0615203a5833d44ca144e6d924fec522c74abcc7945566b633fc1aa880b93f8bd3ad696d22f037f5f00b98241c8d56fcd9819ccbce1571b53ec01785b1c2c20452ac8ebcb27d8a1b5297029c272ada2604355ce62c6e98661e4a2009b581441a6792b0138dc3df3522de02b698593614983d6a0769181cb77c8728bee861cfbb949b08c79001401c32ee6c5b280f9ede2493b1bf4808b50e92fb34c767771df8f8e5fc8650418291d5f59ef39a7dcd348d9f6b84e673f2f2bf24e90e836a11b53df3ce9ad162dd1a5106e863d60408a2c41b940d2c7217edb6c8dc3897af23ea964de8d14eb92a59b3a2f5b4b9e1b71e19e4e310a4d6a32378b0ae8551cccaf202d20797c6d0550cf6ad3cb5d7fb79625c917f43608fa523fedd6a8aebfa9f2aeaecf44dd2d805d48eb60f8ec82241efb4abf60f1d353d645c0dabc4c75c3f4a179f844defc71da559cd4f547f2d1c5deba88461efdbc4057e9630ab8406a6cb85f5adbfafea5c3a03f5ca021b55721bb222ff357c6d886b985483c8e6bed939dbeb8d3fd72448a9717c7ca560ef1fcc5f7b4f7370deffd6f3d733886fb4ef6f533d39d3aef61efe65a35a335c12bff46f4d93a7f71d299a7617d3f4424b077d70aedae9f3e5900caff11fb054cbbce6d77be035bcae64105fdb50e3867f3b73bbae1cd00a6096fda2b6fc4ec6611607e15170b71b11c908f42e103455c18ed462bd5b8dbf51eaed4869325846bd00cffb27ba4b8e63c4cba21669b095abd398a110aa7c4728148a73d25a6145249e37934432e7c726605c14fe142144d8d5d49973a39323c83b160b462fcb95af62bdd3b1639e752fb3df51316ed3935773855b7d563b4a2708817b58e4391a41870fa98d70bec89838c05a1ee6ef9c687814adc75af49a90e7a0d4cd3a049e7622ad212dbdb0c2015de3dc5143ca79aac6dd267a95d9f1c71db1cd90b24be11cf5bb73df1e2d40cdc91c78c7902e12e27d2be74e3b353387a5ce400add7a204ffdb22aec6d7e27f3542a35c84fde94a732905c3144ed100e1208315e1fc7fc640176330952fb223d2e6118a9cebc2d992471fa27ae208a0d5736563b340a47828941f6e74c058769fcbc89e23cf7e3a6a5da1f6fcc01594b49d7a9eb81da00cb6163487ceee1bff61294b79ac24235003726c82b1c994fec163b306ad94fd58a8f558898a1bbd48bb396ae980ab038a06e66994591b3da42f10af925f4fc311dbaf878bb1607cb6f86fe4512da8724d4fef7bcb0a8711b47338f3ee6d8c2b835ad10668c99117ab2b63fbfa7d6d7a06b4e335bc82b7827f1198d552cc6bbb80e6297273d1d83baba52f49baed2c45baadb908f4138cecf8149b988eefeaa512246930e08b3b3e7eea691402291df803e434ee603e7716d8a42447b72b687eb5196be779285797cd3f4abd194a4dce9359d3231578fb89b9b36324b4b1a92508572bbfeefa3acdd50a31b4f7d02008a77c57feb09a9d47c05ff03d9d4708cc6e1f4cd0a938cd12bbd1a74657352c48fca7811359b7386d274832fa1e1e6192c7da30be3bd7f38e8f96254560e545c4e84d3297c162d907067a2e86e2b91a68e6daecc52e8780ce092ce010dffaaf5ccf2d054e8f972732b04f19fe5d76b2a85b44a5e838102da62392ede9b5703e4600bcb51732205c530f8d772f9e188a9ff633fddec7b1eb9cd0d14964769966c751c5208742e34908fa311ca926f0d09e85e09a9e691816a833f61a9535f7669c3ca48dbb3a00585795d57f0ec9b902bf5a74fd73518c3b76e883a46689cd5120e30117d30c4e4e73d85a2acd86e30bc60d3eab3aaed74db5a2ac20bfb66c66e95502827601ce7164dcd837718c971c899a016ef91d12ceb2a10ac5522e345eebcb03242c5374bf0298972a79eeaa0b129429adcd82efeaad74a417ca24b13aca32c17547a830616a0db66d368a1b63c17b5497b836ed9ca01611cb607b8573584479896e706bfd06ce547373a048e58bde902551f2fddde7e248816ae3b5fd98d07d369a4fcc9fcf55733c6e2c4e9f4f8265a6173c1389262e7a3cd6e38f3870d7bf91873e240122efb5adaa685af7ba00cc4ccfdb2fedafa30ae7ec30dcc0d266570db278a806a4d745e5c629a3af4b08bc074d7189217992d58de9f6570c6a13ea98501e0ebc39aec4d987ced218b469c28f4012df2cef6ed3f7ecf951472eefa835cd424b598d501866772be1f66460815f0199569cd4ea2f2b9e30f824479ee38970c0c284490cb433aef9cd141c1907e70fd74d73f58c9ae15f30cdbf3a96bf8f0bfb44bc1fd52be053e49f1cafcd7ad1532b5cbfcc835ceab5b09e93ea49b8689b83fd0dbc320d13221691a1e64949c4fc88fba4626fb51e5c44d4a23812ec9152266fca27355924877e7cc95457801d8ce63ebae7a3e1d7e3f8e717b1c73d87944f4187bc16bc5e3c48a72b431ec1ac2abb95eeed5be8c46ce72d483be415f471efa8036e76d83a96d4e70f136cc2e43a4300b1546666e767f98cfd4dbf8fc0b161d44476163679eabb9bfdde4e9111628404d4e70748992979dafbac4c6cbcccecfd5f1f5f703060f2c3b4955757b7e8b96a2a6b9c6d0def70000000000000000000d1c344701fd21050066ceee6d3a909e8839f812b8f63673542caba5d01e24b4ab06d69365f83764625bbfb89c764482191e197ab74848e1367ea5f9bb6cead1da5f94bfbf888551a7006b63986a58f56799adff4563063932fa5a31c02cef527e66cc0436431ace6b79ec88b88ea36ad122d185194a537feb25eb6fa2c28833fae364a79ad65561d192c76f301a93f35710c7945d921b6769a7b261e58c94f6d8892dc136a9a062b97e039233f10bb94b2fdd4e2f0d7b374fedf8c12a4a4932ea7d5eae578f153e19406bae2d2cdcc7458d76832fc05e5a2fbcfd70e45482fb166e07db637085b29a42dde234936dd24d4f8c781c78d4a1bbc25cb6d755a357f257b4733f4676df2eba2ef1157ef104476657dd15ff9c90f580b47e0dcd70bb1a928152a70f1e9847e3ff3f126b1e1463b9044dd6a03e3a706b87ed1a97331ee93f6e217539df6970b24cb31a4ee968e5c8c70aeec486c43353881c2c3934a143dd6eda7ecd33a98aa04bc04ffcdc99f98c4f12d37de413a90c2fef755fed179570ead8369a3b74b139ed5c6f9277cd1e2656dc5a61a6e779ed025f38be1ffc9db2d5887ef8cb1f46ae741de24387a99c24f286b66871521914dd8d869eb57023f336645f81755b8043f97f5fea75a684c42951b8de37613f6f6922a6716b1410b1b2c481353631ef12db9490d96a24b8d9a9d65fb35e4a622c0c70a0d18dac1855a70e6d8c8238cff91fe93667457131e36d269eae5d9f48ab12ee339d8e4cec63bad2f04c9831ce76f5ac292a6fb10ef35f0675a6dabe258cad46d41a297961291813b15a63e3988057d92d7138653a05de9d030b1dcaa3352b08ff399567396a5e99cd68973a973e592f83f1f29e0772af8ce919076fe0818a3b42143b8ec60268e3c12203bc25808dc2a045eaf36ba2ba20dbe962af8159bb41bed7befe80c2a5f02247f0d269e875558b0e24c899bfecf4e245da5c01d2aa4617eb16ca33908465ad7203cb730695df315dc0bd1d0b60c0cddfbee44291daf70cba8d621ce9bd7ab944f4a3e0bb247ec934491a2aa5b6467beda49dd1a6509fc0c2dca42bf15c9a81ed09cb4d468298c9184373fad7fd4ddd2bb83d4e2b19f103db67638558b5f103e4a1ef8c2b7303fd57321d21974412e8ea19a54db8be0a99349fb054996ee44544403f52e2b413bf2419ccf033bdf9660119d78ba0b5c263c21b66c17272c58099c627118ab435deaf2923dfe9becbfac40dae100877a89a0019650f4f4014b42ca8e367f0b879462201a1b67e25d5503b337042f7196149b95a9ae75884bbb96d1d607a873d51387a90ef80b48f07e0ea9defea6c9c317d3e40de0b189e40a751f5d655291ffc025113ba359638478d8e1e7fb7de2454ce4c9a0b6cb8fcdb6b9feb781f68568dbc606a79b8d9e25fccfab710e5b77555b53c5bab996f9077b1c9577899e94aa5108a96b02ec9e5e14fd1f57f0153033d0abfc84c0ad34d7e91a2f731f6bf360517755ba2b2fa6ac03b96373d3053da0e981d9bc7639f7827a08a8c840e1f44968e017e9843fac333e4f7fca769337f046ce4ba4e31173c7236275dea33791ddc71ae5b00db276cc57b46103cca0b78771f7b8b1fab956dc935ced219485e5771f517184ea4bedd3fd55e8285a6585624d1e17ad7f216c20b62a2675d30224a587a1e7a0a071c891c4b220a57da6fceab0958cb99dfec0c393641f03e1c6ddcd86e851f64a1774fc2482fe6b908caa74d8cd32a5f271b6a2a11d629fa5e3d8bdc00b9db15d221b07df995ad4051e3e83fbbef22057aae282e609107fe0f3117e7b9c44c9a4fd4cefcd235b4962c374279bbaf42ee4645f70c23dd1f03336e000000",
  "txid": "bbecda4c5239b7f6b109000d29c394c434fc760861de341a89e0c40e44efe3d5",
  "hash": "2e59694697df46244affbf2388c9e9d358faf9e1a9a163a4bb09264ec146673c",
  "size": 5085,
  "vsize": 2278,
  "version": 1,
  "locktime": 110,
  "vin": [
    {
      "txid": "778794ec447a341ee747c9fc9927f1f884186e6f975fed563b80f30dac88e30e",
      "vout": 1,
      "scriptSig": {
        "asm": "",
        "hex": ""
      },
      "txinwitness": [
        "a1b30908abb63e84c1f1ef3f1711b919088aa79610720337c1c7491c117c9e98089c201ab3f7a9b30693cc188141407439aad34ab2902705af058dbc3da48896e7b72f927c54078e717c20b1ec60041400c4218db89a73af9f145271113279a94f54034e270c5a311b1ed38f4c85ef937c56d069b3a028fd4d198c488688392b541f70d77aa3b22c67fa30b0ae21260252c6d3c9cc6bbc4dd715ab80d43397d21103c9de8182224e4cadb6e34401140c9221775fe5a3e020c524c3d239349ce01f5272e519ed517640b1df6fef4c84a48a0019234bcfc9cfb8098d795287eef3cc7f96eda7c3a1e7bda71e835a610a3e84960c0202bbcf307272648c5a8793bbde624c3d0378813abb97881f98e1d46b4993bd3c06e66e76d5c80a911b5c077a17c138d1ee1597409613fb966f53d345c5ba58b051c46090859f49a0dd0dda42f377550514132a59a657ed93d63ddbfe7edeb308027cc9b2b30459f137f8537c72b78edf84be65d95b9b5810e937133e454a12871a033578d027896463c2770de82545fffa9735d7bb7e89cdb0e74caf752251dd9026e990e9fd139be91654ecba574c69e981e72ef3ed944f185a88a1f186318e7f9d8dbc4b91d5bbfdd14551f69b7362a5c33e8b5dc3d06e557f82d0d0ded4ec6e1fc68cfe1659c26cbdd3bdb72c93dea294b8c75f31fa31b95d74cdf124d693d25d36a3dd3f4763a84e7a8d4420c16bd2aba739cd08bedc4efb3b308a6f0d607411ba2662a73bd9f4dc5370adb21ca4253a2738c0a50bbd392d0615203a5833d44ca144e6d924fec522c74abcc7945566b633fc1aa880b93f8bd3ad696d22f037f5f00b98241c8d56fcd9819ccbce1571b53ec01785b1c2c20452ac8ebcb27d8a1b5297029c272ada2604355ce62c6e98661e4a2009b581441a6792b0138dc3df3522de02b698593614983d6a0769181cb77c8728bee861cfbb949b08c79001401c32ee6c5b280f9ede2493b1bf4808b50e92fb34c767771df8f8e5fc8650418291d5f59ef39a7dcd348d9f6b84e673f2f2bf24e90e836a11b53df3ce9ad162dd1a5106e863d60408a2c41b940d2c7217edb6c8dc3897af23ea964de8d14eb92a59b3a2f5b4b9e1b71e19e4e310a4d6a32378b0ae8551cccaf202d20797c6d0550cf6ad3cb5d7fb79625c917f43608fa523fedd6a8aebfa9f2aeaecf44dd2d805d48eb60f8ec82241efb4abf60f1d353d645c0dabc4c75c3f4a179f844defc71da559cd4f547f2d1c5deba88461efdbc4057e9630ab8406a6cb85f5adbfafea5c3a03f5ca021b55721bb222ff357c6d886b985483c8e6bed939dbeb8d3fd72448a9717c7ca560ef1fcc5f7b4f7370deffd6f3d733886fb4ef6f533d39d3aef61efe65a35a335c12bff46f4d93a7f71d299a7617d3f4424b077d70aedae9f3e5900caff11fb054cbbce6d77be035bcae64105fdb50e3867f3b73bbae1cd00a6096fda2b6fc4ec6611607e15170b71b11c908f42e103455c18ed462bd5b8dbf51eaed4869325846bd00cffb27ba4b8e63c4cba21669b095abd398a110aa7c4728148a73d25a6145249e37934432e7c726605c14fe142144d8d5d49973a39323c83b160b462fcb95af62bdd3b1639e752fb3df51316ed3935773855b7d563b4a2708817b58e4391a41870fa98d70bec89838c05a1ee6ef9c687814adc75af49a90e7a0d4cd3a049e7622ad212dbdb0c2015de3dc5143ca79aac6dd267a95d9f1c71db1cd90b24be11cf5bb73df1e2d40cdc91c78c7902e12e27d2be74e3b353387a5ce400add7a204ffdb22aec6d7e27f3542a35c84fde94a732905c3144ed100e1208315e1fc7fc640176330952fb223d2e6118a9cebc2d992471fa27ae208a0d5736563b340a47828941f6e74c058769fcbc89e23cf7e3a6a5da1f6fcc01594b49d7a9eb81da00cb6163487ceee1bff61294b79ac24235003726c82b1c994fec163b306ad94fd58a8f558898a1bbd48bb396ae980ab038a06e66994591b3da42f10af925f4fc311dbaf878bb1607cb6f86fe4512da8724d4fef7bcb0a8711b47338f3ee6d8c2b835ad10668c99117ab2b63fbfa7d6d7a06b4e335bc82b7827f1198d552cc6bbb80e6297273d1d83baba52f49baed2c45baadb908f4138cecf8149b988eefeaa512246930e08b3b3e7eea691402291df803e434ee603e7716d8a42447b72b687eb5196be779285797cd3f4abd194a4dce9359d3231578fb89b9b36324b4b1a92508572bbfeefa3acdd50a31b4f7d02008a77c57feb09a9d47c05ff03d9d4708cc6e1f4cd0a938cd12bbd1a74657352c48fca7811359b7386d274832fa1e1e6192c7da30be3bd7f38e8f96254560e545c4e84d3297c162d907067a2e86e2b91a68e6daecc52e8780ce092ce010dffaaf5ccf2d054e8f972732b04f19fe5d76b2a85b44a5e838102da62392ede9b5703e4600bcb51732205c530f8d772f9e188a9ff633fddec7b1eb9cd0d14964769966c751c5208742e34908fa311ca926f0d09e85e09a9e691816a833f61a9535f7669c3ca48dbb3a00585795d57f0ec9b902bf5a74fd73518c3b76e883a46689cd5120e30117d30c4e4e73d85a2acd86e30bc60d3eab3aaed74db5a2ac20bfb66c66e95502827601ce7164dcd837718c971c899a016ef91d12ceb2a10ac5522e345eebcb03242c5374bf0298972a79eeaa0b129429adcd82efeaad74a417ca24b13aca32c17547a830616a0db66d368a1b63c17b5497b836ed9ca01611cb607b8573584479896e706bfd06ce547373a048e58bde902551f2fddde7e248816ae3b5fd98d07d369a4fcc9fcf55733c6e2c4e9f4f8265a6173c1389262e7a3cd6e38f3870d7bf91873e240122efb5adaa685af7ba00cc4ccfdb2fedafa30ae7ec30dcc0d266570db278a806a4d745e5c629a3af4b08bc074d7189217992d58de9f6570c6a13ea98501e0ebc39aec4d987ced218b469c28f4012df2cef6ed3f7ecf951472eefa835cd424b598d501866772be1f66460815f0199569cd4ea2f2b9e30f824479ee38970c0c284490cb433aef9cd141c1907e70fd74d73f58c9ae15f30cdbf3a96bf8f0bfb44bc1fd52be053e49f1cafcd7ad1532b5cbfcc835ceab5b09e93ea49b8689b83fd0dbc320d13221691a1e64949c4fc88fba4626fb51e5c44d4a23812ec9152266fca27355924877e7cc95457801d8ce63ebae7a3e1d7e3f8e717b1c73d87944f4187bc16bc5e3c48a72b431ec1ac2abb95eeed5be8c46ce72d483be415f471efa8036e76d83a96d4e70f136cc2e43a4300b1546666e767f98cfd4dbf8fc0b161d44476163679eabb9bfdde4e9111628404d4e70748992979dafbac4c6cbcccecfd5f1f5f703060f2c3b4955757b7e8b96a2a6b9c6d0def70000000000000000000d1c344701",
        "0066ceee6d3a909e8839f812b8f63673542caba5d01e24b4ab06d69365f83764625bbfb89c764482191e197ab74848e1367ea5f9bb6cead1da5f94bfbf888551a7006b63986a58f56799adff4563063932fa5a31c02cef527e66cc0436431ace6b79ec88b88ea36ad122d185194a537feb25eb6fa2c28833fae364a79ad65561d192c76f301a93f35710c7945d921b6769a7b261e58c94f6d8892dc136a9a062b97e039233f10bb94b2fdd4e2f0d7b374fedf8c12a4a4932ea7d5eae578f153e19406bae2d2cdcc7458d76832fc05e5a2fbcfd70e45482fb166e07db637085b29a42dde234936dd24d4f8c781c78d4a1bbc25cb6d755a357f257b4733f4676df2eba2ef1157ef104476657dd15ff9c90f580b47e0dcd70bb1a928152a70f1e9847e3ff3f126b1e1463b9044dd6a03e3a706b87ed1a97331ee93f6e217539df6970b24cb31a4ee968e5c8c70aeec486c43353881c2c3934a143dd6eda7ecd33a98aa04bc04ffcdc99f98c4f12d37de413a90c2fef755fed179570ead8369a3b74b139ed5c6f9277cd1e2656dc5a61a6e779ed025f38be1ffc9db2d5887ef8cb1f46ae741de24387a99c24f286b66871521914dd8d869eb57023f336645f81755b8043f97f5fea75a684c42951b8de37613f6f6922a6716b1410b1b2c481353631ef12db9490d96a24b8d9a9d65fb35e4a622c0c70a0d18dac1855a70e6d8c8238cff91fe93667457131e36d269eae5d9f48ab12ee339d8e4cec63bad2f04c9831ce76f5ac292a6fb10ef35f0675a6dabe258cad46d41a297961291813b15a63e3988057d92d7138653a05de9d030b1dcaa3352b08ff399567396a5e99cd68973a973e592f83f1f29e0772af8ce919076fe0818a3b42143b8ec60268e3c12203bc25808dc2a045eaf36ba2ba20dbe962af8159bb41bed7befe80c2a5f02247f0d269e875558b0e24c899bfecf4e245da5c01d2aa4617eb16ca33908465ad7203cb730695df315dc0bd1d0b60c0cddfbee44291daf70cba8d621ce9bd7ab944f4a3e0bb247ec934491a2aa5b6467beda49dd1a6509fc0c2dca42bf15c9a81ed09cb4d468298c9184373fad7fd4ddd2bb83d4e2b19f103db67638558b5f103e4a1ef8c2b7303fd57321d21974412e8ea19a54db8be0a99349fb054996ee44544403f52e2b413bf2419ccf033bdf9660119d78ba0b5c263c21b66c17272c58099c627118ab435deaf2923dfe9becbfac40dae100877a89a0019650f4f4014b42ca8e367f0b879462201a1b67e25d5503b337042f7196149b95a9ae75884bbb96d1d607a873d51387a90ef80b48f07e0ea9defea6c9c317d3e40de0b189e40a751f5d655291ffc025113ba359638478d8e1e7fb7de2454ce4c9a0b6cb8fcdb6b9feb781f68568dbc606a79b8d9e25fccfab710e5b77555b53c5bab996f9077b1c9577899e94aa5108a96b02ec9e5e14fd1f57f0153033d0abfc84c0ad34d7e91a2f731f6bf360517755ba2b2fa6ac03b96373d3053da0e981d9bc7639f7827a08a8c840e1f44968e017e9843fac333e4f7fca769337f046ce4ba4e31173c7236275dea33791ddc71ae5b00db276cc57b46103cca0b78771f7b8b1fab956dc935ced219485e5771f517184ea4bedd3fd55e8285a6585624d1e17ad7f216c20b62a2675d30224a587a1e7a0a071c891c4b220a57da6fceab0958cb99dfec0c393641f03e1c6ddcd86e851f64a1774fc2482fe6b908caa74d8cd32a5f271b6a2a11d629fa5e3d8bdc00b9db15d221b07df995ad4051e3e83fbbef22057aae282e609107fe0f3117e7b9c44c9a4fd4cefcd235b4962c374279bbaf42ee4645f70c23dd1f0333"
      ],
      "sequence": 4294967294
    }
  ],
  "vout": [
    {
      "value": 1.0,
      "n": 0,
      "scriptPubKey": {
        "asm": "OP_RETURN 85019467ba36c98d8ee967422cae3cd0244dbfeaf5f6690cc0dfe930d46b30d7 a7190d18670472823d9998cf0308a22d0797af3b596118151b86b0da2129e8f687392d38472452a21db9b8ef2328820d27b78f1b794138353ba690fa0109c8d6e7594d58274432c27dd9d88f4348e26d47d7ef7b192158555bc6f09a6169a8b6c7796d78076412e25df9f8af6368c24d67f7cf5b390178757be6d0ba4149889627998d98e784f202bd19184f838822ad87172fbbd9e198959b06305aa1a9687607b9adb8c7a4d2229d39386fa3a8028da7370f9bf9c1b8b5bb26107a8189485667d9cdd8a7c4b242fd59580fc3c862edc7576ffb99a1d8d5db46701ae1e9283647f9edf887e49262dd79782fe3e842cde7774fdbb981f8f5fb66503ac1c90816a7190d18670472823d9998cf0308a22d0797af3b596118151b86b0da2129e8f687392d38472452a21db9b8ef2328820d27b78f1b794138353ba690fa0109c8d6e7594d58274432c27dd9d88f4348e26d47d7ef7b192158555bc6f09a6169a8b6c7796d78076412e25df9f8af6368c24d67f7cf5b390178757be6d0ba4149889627998d98e784f202bd19184f838822ad87172fbbd9e198959b06305aa1a9687607b9adb8c7a4d2229d39386fa3a8028da7370f9bf9c1b8b5bb26107a8189485667d9cdd8a7c4b242fd59580fc3c862edc7576ffb99a1d8d5db46701ae1e9283647f9edf887e49262dd79782fe3e842cde7774fdbb981f8f5fb66503ac1c90816a7190d18670472823d9998cf0308a22d0797af3b596118151b86b0da2129e8f687392d38472452a21db9b8ef2328820d27b78f1b794138353ba690fa0109c8d6e7594d58274432c27dd9d88f4348e26d47d7ef7b192158555bc6f09a6169a8b6c7796d78076412e25df9f8af6368c24d67f7cf5b390178757be6d0ba4149889627998d98e784f202bd19184f838822ad87172fbbd9e198959b06305aa1a9687607b9adb8c7a4d2229d39386fa3a8028da7370f9bf9c1b8b5bb26107a8189485667d9cdd8a7c4b242fd59580fc3c862edc7576ffb99a1d8d5db46701ae1e9283647f9edf887e49262dd79782fe3e842cde7774fdbb981f8f5fb66503ac1c90816a7190d18670472823d9998cf0308a22d0797af3b596118151b86b0da2129e8f687392d38472452a21db9b8ef2328820d27b78f1b794138353ba690fa0109c8d6e7594d58274432c27dd9d88f4348e26d47d7ef7b192158555bc6f09a6169a8b6c7796d78076412e25df9f8af6368c24d67f7cf5b390178757be6d0ba4149889627998d98e784f202bd19184f838822ad87172fbbd9e198959b06305aa1a9687607b9adb8c7a4d2229d39386fa3a8028da7370f9bf9c1b8b5bb26107a8189485667d9cdd8a7c4b242fd59580fc3c862edc7576ffb99a1d8d5db46701ae1e9283647f9edf887e49262dd79782fe3e842cde7774fdbb981f8f5fb66503ac1c90816a7190d18670472823d9998cf0308a22d0797af3b596118151b86b0da2129e8f687392d38472452a21db9b8ef2328820d27b78f1b794138353ba690fa0109c8d6e7594d58274432c27dd9d88f4348e26d47d7ef7b192158555bc6f09a6169a8b6c7796d78076412e25df9f8af6368c24d67f7cf5b390178757be6d0ba4149889627998d98e784f202bd19184f838822ad5c88b30b97a6b68a7f65e57c9dcabc8a8779816ceb437c696cef208d7df09ead",
        "hex": "6a2085019467ba36c98d8ee967422cae3cd0244dbfeaf5f6690cc0dfe930d46b30d74db004a7190d18670472823d9998cf0308a22d0797af3b596118151b86b0da2129e8f687392d38472452a21db9b8ef2328820d27b78f1b794138353ba690fa0109c8d6e7594d58274432c27dd9d88f4348e26d47d7ef7b192158555bc6f09a6169a8b6c7796d78076412e25df9f8af6368c24d67f7cf5b390178757be6d0ba4149889627998d98e784f202bd19184f838822ad87172fbbd9e198959b06305aa1a9687607b9adb8c7a4d2229d39386fa3a8028da7370f9bf9c1b8b5bb26107a8189485667d9cdd8a7c4b242fd59580fc3c862edc7576ffb99a1d8d5db46701ae1e9283647f9edf887e49262dd79782fe3e842cde7774fdbb981f8f5fb66503ac1c90816a7190d18670472823d9998cf0308a22d0797af3b596118151b86b0da2129e8f687392d38472452a21db9b8ef2328820d27b78f1b794138353ba690fa0109c8d6e7594d58274432c27dd9d88f4348e26d47d7ef7b192158555bc6f09a6169a8b6c7796d78076412e25df9f8af6368c24d67f7cf5b390178757be6d0ba4149889627998d98e784f202bd19184f838822ad87172fbbd9e198959b06305aa1a9687607b9adb8c7a4d2229d39386fa3a8028da7370f9bf9c1b8b5bb26107a8189485667d9cdd8a7c4b242fd59580fc3c862edc7576ffb99a1d8d5db46701ae1e9283647f9edf887e49262dd79782fe3e842cde7774fdbb981f8f5fb66503ac1c90816a7190d18670472823d9998cf0308a22d0797af3b596118151b86b0da2129e8f687392d38472452a21db9b8ef2328820d27b78f1b794138353ba690fa0109c8d6e7594d58274432c27dd9d88f4348e26d47d7ef7b192158555bc6f09a6169a8b6c7796d78076412e25df9f8af6368c24d67f7cf5b390178757be6d0ba4149889627998d98e784f202bd19184f838822ad87172fbbd9e198959b06305aa1a9687607b9adb8c7a4d2229d39386fa3a8028da7370f9bf9c1b8b5bb26107a8189485667d9cdd8a7c4b242fd59580fc3c862edc7576ffb99a1d8d5db46701ae1e9283647f9edf887e49262dd79782fe3e842cde7774fdbb981f8f5fb66503ac1c90816a7190d18670472823d9998cf0308a22d0797af3b596118151b86b0da2129e8f687392d38472452a21db9b8ef2328820d27b78f1b794138353ba690fa0109c8d6e7594d58274432c27dd9d88f4348e26d47d7ef7b192158555bc6f09a6169a8b6c7796d78076412e25df9f8af6368c24d67f7cf5b390178757be6d0ba4149889627998d98e784f202bd19184f838822ad87172fbbd9e198959b06305aa1a9687607b9adb8c7a4d2229d39386fa3a8028da7370f9bf9c1b8b5bb26107a8189485667d9cdd8a7c4b242fd59580fc3c862edc7576ffb99a1d8d5db46701ae1e9283647f9edf887e49262dd79782fe3e842cde7774fdbb981f8f5fb66503ac1c90816a7190d18670472823d9998cf0308a22d0797af3b596118151b86b0da2129e8f687392d38472452a21db9b8ef2328820d27b78f1b794138353ba690fa0109c8d6e7594d58274432c27dd9d88f4348e26d47d7ef7b192158555bc6f09a6169a8b6c7796d78076412e25df9f8af6368c24d67f7cf5b390178757be6d0ba4149889627998d98e784f202bd19184f838822ad5c88b30b97a6b68a7f65e57c9dcabc8a8779816ceb437c696cef208d7df09ead",
        "type": "nulldata"
      }
    },
    {
      "value": 499987.7972,
      "n": 1,
      "scriptPubKey": {
        "asm": "1 b31c076abbece9ca9a9bf7babfc28d3d28cda94eef6bb264fb7e19a3a3167a59",
        "hex": "5120b31c076abbece9ca9a9bf7babfc28d3d28cda94eef6bb264fb7e19a3a3167a59",
        "reqSigs": 1,
        "type": "witness_v1_scripthash",
        "addresses": [
          "3QJmnh"
        ]
      }
    }
  ],
  "blockhash": "2622e54cefe9d3081f6ac04e4c67f268d7c1e3313b2268ffede4439aafe1acd1",
  "confirmations": 1,
  "time": 1764177922,
  "blocktime": 1764177922
}