{
  "hex": "01000000000101d908aa376c571eedc68083f5131b8935ee1cafa8c2e96b45af333832c60e9a1f0000000000feffffff02a020df63792d000022512072dfaef7e95979829fafe833bb966c259b53676cb2acb88b9afa6cedbfbb93de00e1f50500000000fdd5046a20ce9d2e5ec3160e3ea734602c9d87b666ff7f74763f2b28ce144f513a172d5ef94db004c6bcc546c5ec4be59d905f572cdfa5847439b9afb8ed3ab80089dd9dc90cb6fce69ce566e5cc6bc5bdb07f770cff85a45419998f98cd1a9820a9fdbde92c96dc86fc850685ac0ba5ddd01f176c9fe5c43479f9eff8ad7af840c99ddd894cf6bca6dca526a58c2b85fdf03f374cbfc5e41459d9cfd88d5ad860e9bdfda96cd69c463c45c6456ccb651d10dfd7ac5f2504f4b9392f386dba3880095d1d498c367c661c65e6654ceb453d30fff78c7f0524d499190f184d9a18a0297d3d69ac165c067c0586052c8b255d509f97ec1f6544b4f9796f782dfa78c0491d5d09cc763c265c25a6250cab057d70bfb7cc3f456494d9594f580dda58e0693d7d29ec561cc6bcc546c5ec4be59d905f572cdfa5847439b9afb8ed3ab80089dd9dc90cb6fce69ce566e5cc6bc5bdb07f770cff85a45419998f98cd1a9820a9fdbde92c96dc86fc850685ac0ba5ddd01f176c9fe5c43479f9eff8ad7af840c99ddd894cf6bca6dca526a58c2b85fdf03f374cbfc5e41459d9cfd88d5ad860e9bdfda96cd69c463c45c6456ccb651d10dfd7ac5f2504f4b9392f386dba3880095d1d498c367c661c65e6654ceb453d30fff78c7f0524d499190f184d9a18a0297d3d69ac165c067c0586052c8b255d509f97ec1f6544b4f9796f782dfa78c0491d5d09cc763c265c25a6250cab057d70bfb7cc3f456494d9594f580dda58e0693d7d29ec561cc6bcc546c5ec4be59d905f572cdfa5847439b9afb8ed3ab80089dd9dc90cb6fce69ce566e5cc6bc5bdb07f770cff85a45419998f98cd1a9820a9fdbde92c96dc86fc850685ac0ba5ddd01f176c9fe5c43479f9eff8ad7af840c99ddd894cf6bca6dca526a58c2b85fdf03f374cbfc5e41459d9cfd88d5ad860e9bdfda96cd69c463c45c6456ccb651d10dfd7ac5f2504f4b9392f386dba3880095d1d498c367c661c65e6654ceb453d30fff78c7f0524d499190f184d9a18a0297d3d69ac165c067c0586052c8b255d509f97ec1f6544b4f9796f782dfa78c0491d5d09cc763c265c25a6250cab057d70bfb7cc3f456494d9594f580dda58e0693d7d29ec561cc6bcc546c5ec4be59d905f572cdfa5847439b9afb8ed3ab80089dd9dc90cb6fce69ce566e5cc6bc5bdb07f770cff85a45419998f98cd1a9820a9fdbde92c96dc86fc850685ac0ba5ddd01f176c9fe5c43479f9eff8ad7af840c99ddd894cf6bca6dca526a58c2b85fdf03f374cbfc5e41459d9cfd88d5ad860e9bdfda96cd69c463c45c6456ccb651d10dfd7ac5f2504f4b9392f386dba3880095d1d498c367c661c65e6654ceb453d30fff78c7f0524d499190f184d9a18a0297d3d69ac165c067c0586052c8b255d509f97ec1f6544b4f9796f782dfa78c0491d5d09cc763c265c25a6250cab057d70bfb7cc3f456494d9594f580dda58e0693d7d29ec561cc6bcc546c5ec4be59d905f572cdfa5847439b9afb8ed3ab80089dd9dc90cb6fce69ce566e5cc6bc5bdb07f770cff85a45419998f98cd1a9820a9fdbde92c96dc86fc850685ac0ba5ddd01f176c9fe5c43479f9eff8ad7af840c99ddd894cf6bca6dca526a58c2b85fdf03f374cbfc5e41459d9cfd88d5ad860e9bdfda96cd69c463c45c6456ccb651d10dfd7ac5f25040c327a0f67a6745981d9eb1e7c3a0f99d1a7a93cf2c4d372a2c5f727742d1e3102fd750924f8a5a27638ed7e908a9b8307c0fb3a4a02c99996ed8777137f68dbfb862e55fe571ae7277c49b1eac6803998812b93a149396f13dc7053ae3dff3ee0aa9500b39565021eee30a6631af4167326ddb3303ffc55f162bc5eda5b414807d01a59e4c783e12f442a7759e08a13ac4d087bf1c231727244d2435333d860be49593be76f189cdc0dedcc3701c4f145c0054a2d1927e89994ac246dee2c553485aead8d2d696cd8080ec9365f3c653a411a45620ea554a642748731f1481df40d65e9f300d98e7edc0ecd776431f32ab2a66ad4b27a88219adfe0dd4cb734b083479c609d4148ff32295b0b5c5b66a078629467468e9885b698e85873b019d7ccd39e87c75e52ae0a033b01f656ec205af91b5397e791cf23ca7d42ae380eb2b496d636c66b0d9733d0c0b73a74545ccefda457cd32636c75428d65be266eced908e3a08d1a7f0167c0d8f216e05ff3fa23d85a0b3d315fe5b68c59fa6354cef80ab1319a738119a038a08bfd61ec7a897b246958fc41f8b245758c208d80878bcd3cb29f46602087656df6f6d09083cc436bf6ea6017ec0104b617d0ee4aee6b739328e8255714e41f31a261a106810249c62a9c98f534634d8ad75b276dfd7832e7bdacf04d8ac1605586dbb6fec1dc7d43315f0ecac0803a16330cce59a3c70b7a71b4e4d4499a3f59db35741e8038bb6c7411e4c2260610df6ed1a0f9c9baa6507bf8229a545a40dc19c51f4d40ed61ee1a54c39021c53a038e59f06a34dda219bdd096ec7579e2be5bd6e324e748bd481a2b7701d19a39c84a9f246c119deddc725ba86006b187612fb77e87053f25e3fe1dc04ce1afb32f3f2537384148d949577371404279062d988730efe48f2fb38bd45c84ebfd8a926cab52edf48fce92421028af08b80f432ec75f5036e9b1109274fb6bd30a95e9bcb78530d6af102c3a99f1d01de1d49fe133b61459114ba8c4e5b26ae2f2cfa4cf9646c35ca4fe81aa4c8cf164b9fb6f7f2983d85d69ba7f97624e8c323322e59b918ca46b34bb67aefab0a3572ed7ef26cf77b9cd5dc940af839eb7ddb37e8c1c8532c78e8d8b6895c6fb0224bf7f37ab43b3cf93ce64431ebbe7342e6acfeb89b8d996a1356e5600eeb270b2ae8b42b0284977aed0369067a90fdaa08b717cfae22eebc4603f8b97631ff050255c18378b1295d35ae224913ce918e18096660de662ae642b7bda491362ca1fc5829c93f6685ae01799d9bb559f89101d9a49fe079a4bedb61daaad4b220720a1f2ce85bd87f142a0b9f8c2cacbcff5a640329ef22d2e5aaa3e2016b606b2c1e29a07df10223fbb4d45118d7c28601e994863e4d95c66ff016a16123d09ee6ee0e44b0151109fbb90633edccc70736c62399743865fb8dfe6e469fd426da87dfde64bf850fed04e99ecc6f408ce30f00031dc64f16b1e28a1534560ba0812b9318b32576fb8b04a86dac3aa78c31772a193a4e445fe14cb090cb2adf141b0146a409472462e25eaabd6ec157517bf5d7258b192d6cbaddece5c4946d1c6c273cc1316d08d0f72d3d0379881740add9f61466173fe7a3b5621b07e925c4e79ca01df5818e83f9ef79766107543ecdec4e9b533e8e26aa7b056971cafccd27b9842878902f5d262014f4820eef7aa0abe60c4110df571d40ae0c1f0b1b47172586600efb1a19c7a46b409d3d3fdf19ba23968b1ffccaa2e73176a8fdfd68adad56894c6868115d143f3414597fd1e5c958470fd71f47a43fb7977675ea9d6002e40ab3c81aa67c76d0aad65d6cdc30a09b988996c8a514b46d9acaa68065290b8d633374a9143901f31e036392f7427e84439e56499ed59780ede281d76622045971fc0068f6b072b795e38d73c58cfbfea8617c4be06ee27d8524c5c183434aed26df8180cfd61bf3261a6d7428e2c6b2e96b48950313608c0cb1fb1466dd5c8bab21b0395b316c17382afe88d0940188e4001bd52bb3e83ff7b5ac95dd6c30b75b73d90aafba5158d8dc5920704fbf5558c712e120caa549cb2358283811a189fae85348f4b429111684a26b0ea7aeef93278ca8c43a8e3ffba29edd17c2b505e27b3e629e89f81bc07d7c598eb9c94237c81f4dfaa99de21ca80c6f439bc17c666a11f53b53f5a6ad788dc2ae3b9106f1672f7e0998fdadcb7f2893d4f1614c6d571fad009222db4dbf1db5bd05562f4446345e47a897cf4ea7488205b77a64dbe52794fcfc172d2d6bc941dbfa124841aed2dc78da781dc10c47bee2d4d52f3cb2839c19f8583397d369ed3acdaf8c7a3ed46c86488f6eb6e197ec7f2d8aa8a8e21dd2dde7edf5f0644e043f83778740a84847f11c6019758e80190a85937e52253ea66f627af2a7d9fcb494b265b791195f95d61b7befb6e991270d9cc5b4d07e5c942450ca94032143432f86096bd6171d5ddad94ffb5038b949ee2ade9516747a6b9ecf9537f4067085768c7ed8766399dba866b4493c37f76fc50242d697e8d59390bc647daac51534f28d7e40a7d46f9347f373cbc45f6d44c6f0c74d12f3fc0fca25dbb4538919cac998ad9a3e8a75c1552933ca875c04da0982c3518deea01cd97272af3662d8a4d531fcb0a2082fa21241874d09d78724a8f31e3fcb15b5e0c534c112439082c6da36f4178ab65ad6ec1ac64871ce1b55fd8044369a075844f7f629d9d9ad1dc29eb9b8070a9ca6cbe3717cec40b2cb7c01ecc8ca285f62e7b06322960b471543a789d9754e69ae2957e7edf9ee5590cabb421c513d449ae8fb63463c04bc700f57e2593acd33e622dc3fdee0b073703a33b34643756dcb4610b6f5ac9f4ce6bf93271424291c26eb6ee3a4b00e32e6b7ed6b3681cbf641efdff21b8a332fd9ca32ffa882cf2fc6684f8c6a929fd80005a8a6378c2e1195455845fa3c0d8048a120d2bd298115ae6275b4ab5c763825a84f20b9324188ac674b0a4b5a90dea29bb53bad3840055d869fe67bda5efe46e51270ca3999924e478308ef2e33b5ebd2339c9478cebc84f5a3944e9c4ea9efa476321a88d44c76c50fcece545733e8f167a3adb0bdfcd11f2cb0ad2ec66fa46b29f0f70163c9a750c4a4a5646ea080bbee50fa268f1c494602bdc4e47d364760f0a13e5de4c9a669f640a91ea355c3b778039e4560e5dc26cc49363d80f859388b91b468fb2952bd6efdc061aefdc3d04d0be3e58ae0fd2188fdfad7d6f54f7eaab063669066b73e3a062ca2f9002454620eff2c28cd14fc470dc8a43e13216d08c8c30f23e9bd8b60dbeeb863eb41db8b92edc45ad6b4de283bc4b5c54d006111c505d898b92ccd2daeaf70615182f33434c565b5c6c92c5cefd020d12141d343d426678989fa8aeb8c4d8e700111b24256d818889959b9da4a9abb60000000000000000000000000000000000000d1c2e3e01fd210500a3b9a6c7f2d8190fe198a9f5043ae30bbf0ed921767e67079f992ce38ba462722993b9d01ec23d212c31be9384fd94105329628001c352cb10b3e6b699a574149b52e7ed797211840faf403848d7ab70aec46c57abc73aefa810b298f418b0635655725e75ac644908ec2a81482de353fdb94ac1badda74ab383f0bf4e9f40b516c3cc512fb8ab22b4541930dec81c77985af488e808ca07c32964a6e9591c5f2157c7f57fb322b38e2c4d4e8814a5a6d440c0d751023515e06cb2c94441d571d3e49236873566ead71bff31dfe54e4edf992b4fd560f00ff9bdf412df94a95c2824324683cab2223b73a24e0380a4b47ed0a2eaae3a0a684e843f95184354d58bd36331001d37c2ea93fcd0dbddc591388ab3f93ff6c67f599393e08992b96ccdebb60551d2e74c59114bfd5b337ba120490539f3c836824c7f9cf408b601efac59841ad4b9069a351a6142c89e474e95aef1176f6d6c917a87877e5951fd6841e538b5da9ca0b7ab562049665287b4ea5996dd06b0851028f38004bb2e22230e6d9c05fe12ffdb4455a255556b089c55e646e34e88969320395ca1eb021e084e32b504e481a2ebd96a2c1b6039b9eb448fd781ff0ff96ea628389e1ca8271db49756084e4a2236c9686cea0385476bd1d65cb714a44b42b2f6a37d5043dbb0d5d96aaa6710294dc20665ba561142a074892f092d7518d9567516fae6ee0f698b36a43e2f0365e1b7426f0830e94a37604fdda555c388e3d2eeba8cc4816d3af8c768530297bdb8ba4758ad346cea22c76c2a5c61d1e8488452d64438c8a4d200f4c62c92a1f6f17ee7b1d4f5fcc18726ad9d1c858a2f0ce06b0b4ac846d8d1871ae9b675d7e9a815251054d3de3c3888a2b8f1e74acabb0044e62eefc5718e08017845a81a10fe17e3e100197a242e77cc9ae034e1fd549fb82c14553fb15c89b984b7f30af116b3fc3395f9a3a59b2441baf94a5d26d168d9af36cc49ccc11c2a2f49f1df031406eef9f6482f06bedcdc1dfb94487764967076eb556b2d64b02358f6bd2a15791f7e6a79897ce3d10c1f35dbdeb49cb6a16880dd9df6c8399ddac88aabdb2508d7d9438851186fc7903de3005e722511d54fdcdf6ebe6050582a35e7c5111cb651266bc6f4080081dacd96726b4534141b7cbac6262eee2924d8dd6f8573a628d3f4e86ea7b6c116d630ce15b023054afbe7cf3bf2bcea2a7e87d0efe230f7ca16d3c34a97d64ce80171b6f584918355f0bfdbbe63e916860e174b637d5bb6d2faf5539641a6e6fc2dd02d85313fb7fe8c45eb5ee201b898fe32867df023bda025657c7f29c8282402dbb63516aa593dd628cf24020a81f2e627e1b8ca193753af13c9c5cc84eeb16990e714a7d64670d25026da8d44222cefbef38a2e7b8eb51fb2d14cf307a1792f8bb295f1702321006fa638185c1f48af0b8da59e239185bb87766dc5e605b54971153923a2bffeea24446222af5fe3e5e3e7acf3b29fe9a40abdd664b1fe08df06a002faf594067ed5bbb300bae81f7b0a3abb46c809810e13a3cbdd940b7fae4cfa389dc0afb7191efccfbbce8a1f243e76a980c21f486a9497a398652b757ac902b1c817fb9a0ba6472b0ea26017a0b76f4f6c99858a22bc70b56bd3b746ba897d7d78f2ffbb20983d85ad8d746ea0cfce3c44f059df351eba310ddfb3fe0087bb7eb284a0c22a68cafba67c8c0d4396fd9b31bb482e7b73b006e747d52b25cd85452b3b7844d9e097e7fdf6e78b1c7db8d705b9b4111347704784f1e4b1416c7c848b381d8996718bab1490fcb2d68e951e067ef3ad100373d228c39de6616140aa09c3fb00ea4df4f7c45476fb68000000",
  "txid": "b37850159ed9c74c2f4ee5206e09948a9e14c5821ecf660c634862950a8aa33a",
  "hash": "ea3b540921bf19ffb1df77ba419a5fe88d2a40787a5642f57097368337f99101",
  "size": 5085,
  "vsize": 2278,
  "version": 1,
  "locktime": 104,
  "vin": [
    {
      "txid": "1f9a0ec6323833af456be9c2a8af1cee35891b13f58380c6ed1e576c37aa08d9",
      "vout": 0,
      "scriptSig": {
        "asm": "",
        "hex": ""
      },
      "txinwitness": [
        "24f8a5a27638ed7e908a9b8307c0fb3a4a02c99996ed8777137f68dbfb862e55fe571ae7277c49b1eac6803998812b93a149396f13dc7053ae3dff3ee0aa9500b39565021eee30a6631af4167326ddb3303ffc55f162bc5eda5b414807d01a59e4c783e12f442a7759e08a13ac4d087bf1c231727244d2435333d860be49593be76f189cdc0dedcc3701c4f145c0054a2d1927e89994ac246dee2c553485aead8d2d696cd8080ec9365f3c653a411a45620ea554a642748731f1481df40d65e9f300d98e7edc0ecd776431f32ab2a66ad4b27a88219adfe0dd4cb734b083479c609d4148ff32295b0b5c5b66a078629467468e9885b698e85873b019d7ccd39e87c75e52ae0a033b01f656ec205af91b5397e791cf23ca7d42ae380eb2b496d636c66b0d9733d0c0b73a74545ccefda457cd32636c75428d65be266eced908e3a08d1a7f0167c0d8f216e05ff3fa23d85a0b3d315fe5b68c59fa6354cef80ab1319a738119a038a08bfd61ec7a897b246958fc41f8b245758c208d80878bcd3cb29f46602087656df6f6d09083cc436bf6ea6017ec0104b617d0ee4aee6b739328e8255714e41f31a261a106810249c62a9c98f534634d8ad75b276dfd7832e7bdacf04d8ac1605586dbb6fec1dc7d43315f0ecac0803a16330cce59a3c70b7a71b4e4d4499a3f59db35741e8038bb6c7411e4c2260610df6ed1a0f9c9baa6507bf8229a545a40dc19c51f4d40ed61ee1a54c39021c53a038e59f06a34dda219bdd096ec7579e2be5bd6e324e748bd481a2b7701d19a39c84a9f246c119deddc725ba86006b187612fb77e87053f25e3fe1dc04ce1afb32f3f2537384148d949577371404279062d988730efe48f2fb38bd45c84ebfd8a926cab52edf48fce92421028af08b80f432ec75f5036e9b1109274fb6bd30a95e9bcb78530d6af102c3a99f1d01de1d49fe133b61459114ba8c4e5b26ae2f2cfa4cf9646c35ca4fe81aa4c8cf164b9fb6f7f2983d85d69ba7f97624e8c323322e59b918ca46b34bb67aefab0a3572ed7ef26cf77b9cd5dc940af839eb7ddb37e8c1c8532c78e8d8b6895c6fb0224bf7f37ab43b3cf93ce64431ebbe7342e6acfeb89b8d996a1356e5600eeb270b2ae8b42b0284977aed0369067a90fdaa08b717cfae22eebc4603f8b97631ff050255c18378b1295d35ae224913ce918e18096660de662ae642b7bda491362ca1fc5829c93f6685ae01799d9bb559f89101d9a49fe079a4bedb61daaad4b220720a1f2ce85bd87f142a0b9f8c2cacbcff5a640329ef22d2e5aaa3e2016b606b2c1e29a07df10223fbb4d45118d7c28601e994863e4d95c66ff016a16123d09ee6ee0e44b0151109fbb90633edccc70736c62399743865fb8dfe6e469fd426da87dfde64bf850fed04e99ecc6f408ce30f00031dc64f16b1e28a1534560ba0812b9318b32576fb8b04a86dac3aa78c31772a193a4e445fe14cb090cb2adf141b0146a409472462e25eaabd6ec157517bf5d7258b192d6cbaddece5c4946d1c6c273cc1316d08d0f72d3d0379881740add9f61466173fe7a3b5621b07e925c4e79ca01df5818e83f9ef79766107543ecdec4e9b533e8e26aa7b056971cafccd27b9842878902f5d262014f4820eef7aa0abe60c4110df571d40ae0c1f0b1b47172586600efb1a19c7a46b409d3d3fdf19ba23968b1ffccaa2e73176a8fdfd68adad56894c6868115d143f3414597fd1e5c958470fd71f47a43fb7977675ea9d6002e40ab3c81aa67c76d0aad65d6cdc30a09b988996c8a514b46d9acaa68065290b8d633374a9143901f31e036392f7427e84439e56499ed59780ede281d76622045971fc0068f6b072b795e38d73c58cfbfea8617c4be06ee27d8524c5c183434aed26df8180cfd61bf3261a6d7428e2c6b2e96b48950313608c0cb1fb1466dd5c8bab21b0395b316c17382afe88d0940188e4001bd52bb3e83ff7b5ac95dd6c30b75b73d90aafba5158d8dc5920704fbf5558c712e120caa549cb2358283811a189fae85348f4b429111684a26b0ea7aeef93278ca8c43a8e3ffba29edd17c2b505e27b3e629e89f81bc07d7c598eb9c94237c81f4dfaa99de21ca80c6f439bc17c666a11f53b53f5a6ad788dc2ae3b9106f1672f7e0998fdadcb7f2893d4f1614c6d571fad009222db4dbf1db5bd05562f4446345e47a897cf4ea7488205b77a64dbe52794fcfc172d2d6bc941dbfa124841aed2dc78da781dc10c47bee2d4d52f3cb2839c19f8583397d369ed3acdaf8c7a3ed46c86488f6eb6e197ec7f2d8aa8a8e21dd2dde7edf5f0644e043f83778740a84847f11c6019758e80190a85937e52253ea66f627af2a7d9fcb494b265b791195f95d61b7befb6e991270d9cc5b4d07e5c942450ca94032143432f86096bd6171d5ddad94ffb5038b949ee2ade9516747a6b9ecf9537f4067085768c7ed8766399dba866b4493c37f76fc50242d697e8d59390bc647daac51534f28d7e40a7d46f9347f373cbc45f6d44c6f0c74d12f3fc0fca25dbb4538919cac998ad9a3e8a75c1552933ca875c04da0982c3518deea01cd97272af3662d8a4d531fcb0a2082fa21241874d09d78724a8f31e3fcb15b5e0c534c112439082c6da36f4178ab65ad6ec1ac64871ce1b55fd8044369a075844f7f629d9d9ad1dc29eb9b8070a9ca6cbe3717cec40b2cb7c01ecc8ca285f62e7b06322960b471543a789d9754e69ae2957e7edf9ee5590cabb421c513d449ae8fb63463c04bc700f57e2593acd33e622dc3fdee0b073703a33b34643756dcb4610b6f5ac9f4ce6bf93271424291c26eb6ee3a4b00e32e6b7ed6b3681cbf641efdff21b8a332fd9ca32ffa882cf2fc6684f8c6a929fd80005a8a6378c2e1195455845fa3c0d8048a120d2bd298115ae6275b4ab5c763825a84f20b9324188ac674b0a4b5a90dea29bb53bad3840055d869fe67bda5efe46e51270ca3999924e478308ef2e33b5ebd2339c9478cebc84f5a3944e9c4ea9efa476321a88d44c76c50fcece545733e8f167a3adb0bdfcd11f2cb0ad2ec66fa46b29f0f70163c9a750c4a4a5646ea080bbee50fa268f1c494602bdc4e47d364760f0a13e5de4c9a669f640a91ea355c3b778039e4560e5dc26cc49363d80f859388b91b468fb2952bd6efdc061aefdc3d04d0be3e58ae0fd2188fdfad7d6f54f7eaab063669066b73e3a062ca2f9002454620eff2c28cd14fc470dc8a43e13216d08c8c30f23e9bd8b60dbeeb863eb41db8b92edc45ad6b4de283bc4b5c54d006111c505d898b92ccd2daeaf70615182f33434c565b5c6c92c5cefd020d12141d343d426678989fa8aeb8c4d8e700111b24256d818889959b9da4a9abb60000000000000000000000000000000000000d1c2e3e01",
        "00a3b9a6c7f2d8190fe198a9f5043ae30bbf0ed921767e67079f992ce38ba462722993b9d01ec23d212c31be9384fd94105329628001c352cb10b3e6b699a574149b52e7ed797211840faf403848d7ab70aec46c57abc73aefa810b298f418b0635655725e75ac644908ec2a81482de353fdb94ac1badda74ab383f0bf4e9f40b516c3cc512fb8ab22b4541930dec81c77985af488e808ca07c32964a6e9591c5f2157c7f57fb322b38e2c4d4e8814a5a6d440c0d751023515e06cb2c94441d571d3e49236873566ead71bff31dfe54e4edf992b4fd560f00ff9bdf412df94a95c2824324683cab2223b73a24e0380a4b47ed0a2eaae3a0a684e843f95184354d58bd36331001d37c2ea93fcd0dbddc591388ab3f93ff6c67f599393e08992b96ccdebb60551d2e74c59114bfd5b337ba120490539f3c836824c7f9cf408b601efac59841ad4b9069a351a6142c89e474e95aef1176f6d6c917a87877e5951fd6841e538b5da9ca0b7ab562049665287b4ea5996dd06b0851028f38004bb2e22230e6d9c05fe12ffdb4455a255556b089c55e646e34e88969320395ca1eb021e084e32b504e481a2ebd96a2c1b6039b9eb448fd781ff0ff96ea628389e1ca8271db49756084e4a2236c9686cea0385476bd1d65cb714a44b42b2f6a37d5043dbb0d5d96aaa6710294dc20665ba561142a074892f092d7518d9567516fae6ee0f698b36a43e2f0365e1b7426f0830e94a37604fdda555c388e3d2eeba8cc4816d3af8c768530297bdb8ba4758ad346cea22c76c2a5c61d1e8488452d64438c8a4d200f4c62c92a1f6f17ee7b1d4f5fcc18726ad9d1c858a2f0ce06b0b4ac846d8d1871ae9b675d7e9a815251054d3de3c3888a2b8f1e74acabb0044e62eefc5718e08017845a81a10fe17e3e100197a242e77cc9ae034e1fd549fb82c14553fb15c89b984b7f30af116b3fc3395f9a3a59b2441baf94a5d26d168d9af36cc49ccc11c2a2f49f1df031406eef9f6482f06bedcdc1dfb94487764967076eb556b2d64b02358f6bd2a15791f7e6a79897ce3d10c1f35dbdeb49cb6a16880dd9df6c8399ddac88aabdb2508d7d9438851186fc7903de3005e722511d54fdcdf6ebe6050582a35e7c5111cb651266bc6f4080081dacd96726b4534141b7cbac6262eee2924d8dd6f8573a628d3f4e86ea7b6c116d630ce15b023054afbe7cf3bf2bcea2a7e87d0efe230f7ca16d3c34a97d64ce80171b6f584918355f0bfdbbe63e916860e174b637d5bb6d2faf5539641a6e6fc2dd02d85313fb7fe8c45eb5ee201b898fe32867df023bda025657c7f29c8282402dbb63516aa593dd628cf24020a81f2e627e1b8ca193753af13c9c5cc84eeb16990e714a7d64670d25026da8d44222cefbef38a2e7b8eb51fb2d14cf307a1792f8bb295f1702321006fa638185c1f48af0b8da59e239185bb87766dc5e605b54971153923a2bffeea24446222af5fe3e5e3e7acf3b29fe9a40abdd664b1fe08df06a002faf594067ed5bbb300bae81f7b0a3abb46c809810e13a3cbdd940b7fae4cfa389dc0afb7191efccfbbce8a1f243e76a980c21f486a9497a398652b757ac902b1c817fb9a0ba6472b0ea26017a0b76f4f6c99858a22bc70b56bd3b746ba897d7d78f2ffbb20983d85ad8d746ea0cfce3c44f059df351eba310ddfb3fe0087bb7eb284a0c22a68cafba67c8c0d4396fd9b31bb482e7b73b006e747d52b25cd85452b3b7844d9e097e7fdf6e78b1c7db8d705b9b4111347704784f1e4b1416c7c848b381d8996718bab1490fcb2d68e951e067ef3ad100373d228c39de6616140aa09c3fb00ea4df4f7c45476fb"
      ],
      "sequence": 4294967294
    }
  ],
  "vout": [
    {
      "value": 499993.8986,
      "n": 0,
      "scriptPubKey": {
        "asm": "1 72dfaef7e95979829fafe833bb966c259b53676cb2acb88b9afa6cedbfbb93de",
        "hex": "512072dfaef7e95979829fafe833bb966c259b53676cb2acb88b9afa6cedbfbb93de",
        "reqSigs": 1,
        "type": "witness_v1_scripthash",
        "addresses": [
          "3QJmnh"
        ]
      }
    },
    {
      "value": 1.0,
      "n": 1,
      "scriptPubKey": {
        "asm": "OP_RETURN ce9d2e5ec3160e3ea734602c9d87b666ff7f74763f2b28ce144f513a172d5ef9 c6bcc546c5ec4be59d905f572cdfa5847439b9afb8ed3ab80089dd9dc90cb6fce69ce566e5cc6bc5bdb07f770cff85a45419998f98cd1a9820a9fdbde92c96dc86fc850685ac0ba5ddd01f176c9fe5c43479f9eff8ad7af840c99ddd894cf6bca6dca526a58c2b85fdf03f374cbfc5e41459d9cfd88d5ad860e9bdfda96cd69c463c45c6456ccb651d10dfd7ac5f2504f4b9392f386dba3880095d1d498c367c661c65e6654ceb453d30fff78c7f0524d499190f184d9a18a0297d3d69ac165c067c0586052c8b255d509f97ec1f6544b4f9796f782dfa78c0491d5d09cc763c265c25a6250cab057d70bfb7cc3f456494d9594f580dda58e0693d7d29ec561cc6bcc546c5ec4be59d905f572cdfa5847439b9afb8ed3ab80089dd9dc90cb6fce69ce566e5cc6bc5bdb07f770cff85a45419998f98cd1a9820a9fdbde92c96dc86fc850685ac0ba5ddd01f176c9fe5c43479f9eff8ad7af840c99ddd894cf6bca6dca526a58c2b85fdf03f374cbfc5e41459d9cfd88d5ad860e9bdfda96cd69c463c45c6456ccb651d10dfd7ac5f2504f4b9392f386dba3880095d1d498c367c661c65e6654ceb453d30fff78c7f0524d499190f184d9a18a0297d3d69ac165c067c0586052c8b255d509f97ec1f6544b4f9796f782dfa78c0491d5d09cc763c265c25a6250cab057d70bfb7cc3f456494d9594f580dda58e0693d7d29ec561cc6bcc546c5ec4be59d905f572cdfa5847439b9afb8ed3ab80089dd9dc90cb6fce69ce566e5cc6bc5bdb07f770cff85a45419998f98cd1a9820a9fdbde92c96dc86fc850685ac0ba5ddd01f176c9fe5c43479f9eff8ad7af840c99ddd894cf6bca6dca526a58c2b85fdf03f374cbfc5e41459d9cfd88d5ad860e9bdfda96cd69c463c45c6456ccb651d10dfd7ac5f2504f4b9392f386dba3880095d1d498c367c661c65e6654ceb453d30fff78c7f0524d499190f184d9a18a0297d3d69ac165c067c0586052c8b255d509f97ec1f6544b4f9796f782dfa78c0491d5d09cc763c265c25a6250cab057d70bfb7cc3f456494d9594f580dda58e0693d7d29ec561cc6bcc546c5ec4be59d905f572cdfa5847439b9afb8ed3ab80089dd9dc90cb6fce69ce566e5cc6bc5bdb07f770cff85a45419998f98cd1a9820a9fdbde92c96dc86fc850685ac0ba5ddd01f176c9fe5c43479f9eff8ad7af840c99ddd894cf6bca6dca526a58c2b85fdf03f374cbfc5e41459d9cfd88d5ad860e9bdfda96cd69c463c45c6456ccb651d10dfd7ac5f2504f4b9392f386dba3880095d1d498c367c661c65e6654ceb453d30fff78c7f0524d499190f184d9a18a0297d3d69ac165c067c0586052c8b255d509f97ec1f6544b4f9796f782dfa78c0491d5d09cc763c265c25a6250cab057d70bfb7cc3f456494d9594f580dda58e0693d7d29ec561cc6bcc546c5ec4be59d905f572cdfa5847439b9afb8ed3ab80089dd9dc90cb6fce69ce566e5cc6bc5bdb07f770cff85a45419998f98cd1a9820a9fdbde92c96dc86fc850685ac0ba5ddd01f176c9fe5c43479f9eff8ad7af840c99ddd894cf6bca6dca526a58c2b85fdf03f374cbfc5e41459d9cfd88d5ad860e9bdfda96cd69c463c45c6456ccb651d10dfd7ac5f25040c327a0f67a6745981d9eb1e7c3a0f99d1a7a93cf2c4d372a2c5f727742d1e31",
        "hex": "6a20ce9d2e5ec3160e3ea734602c9d87b666ff7f74763f2b28ce144f513a172d5ef94db004c6bcc546c5ec4be59d905f572cdfa5847439b9afb8ed3ab80089dd9dc90cb6fce69ce566e5cc6bc5bdb07f770cff85a45419998f98cd1a9820a9fdbde92c96dc86fc850685ac0ba5ddd01f176c9fe5c43479f9eff8ad7af840c99ddd894cf6bca6dca526a58c2b85fdf03f374cbfc5e41459d9cfd88d5ad860e9bdfda96cd69c463c45c6456ccb651d10dfd7ac5f2504f4b9392f386dba3880095d1d498c367c661c65e6654ceb453d30fff78c7f0524d499190f184d9a18a0297d3d69ac165c067c0586052c8b255d509f97ec1f6544b4f9796f782dfa78c0491d5d09cc763c265c25a6250cab057d70bfb7cc3f456494d9594f580dda58e0693d7d29ec561cc6bcc546c5ec4be59d905f572cdfa5847439b9afb8ed3ab80089dd9dc90cb6fce69ce566e5cc6bc5bdb07f770cff85a45419998f98cd1a9820a9fdbde92c96dc86fc850685ac0ba5ddd01f176c9fe5c43479f9eff8ad7af840c99ddd894cf6bca6dca526a58c2b85fdf03f374cbfc5e41459d9cfd88d5ad860e9bdfda96cd69c463c45c6456ccb651d10dfd7ac5f2504f4b9392f386dba3880095d1d498c367c661c65e6654ceb453d30fff78c7f0524d499190f184d9a18a0297d3d69ac165c067c0586052c8b255d509f97ec1f6544b4f9796f782dfa78c0491d5d09cc763c265c25a6250cab057d70bfb7cc3f456494d9594f580dda58e0693d7d29ec561cc6bcc546c5ec4be59d905f572cdfa5847439b9afb8ed3ab80089dd9dc90cb6fce69ce566e5cc6bc5bdb07f770cff85a45419998f98cd1a9820a9fdbde92c96dc86fc850685ac0ba5ddd01f176c9fe5c43479f9eff8ad7af840c99ddd894cf6bca6dca526a58c2b85fdf03f374cbfc5e41459d9cfd88d5ad860e9bdfda96cd69c463c45c6456ccb651d10dfd7ac5f2504f4b9392f386dba3880095d1d498c367c661c65e6654ceb453d30fff78c7f0524d499190f184d9a18a0297d3d69ac165c067c0586052c8b255d509f97ec1f6544b4f9796f782dfa78c0491d5d09cc763c265c25a6250cab057d70bfb7cc3f456494d9594f580dda58e0693d7d29ec561cc6bcc546c5ec4be59d905f572cdfa5847439b9afb8ed3ab80089dd9dc90cb6fce69ce566e5cc6bc5bdb07f770cff85a45419998f98cd1a9820a9fdbde92c96dc86fc850685ac0ba5ddd01f176c9fe5c43479f9eff8ad7af840c99ddd894cf6bca6dca526a58c2b85fdf03f374cbfc5e41459d9cfd88d5ad860e9bdfda96cd69c463c45c6456ccb651d10dfd7ac5f2504f4b9392f386dba3880095d1d498c367c661c65e6654ceb453d30fff78c7f0524d499190f184d9a18a0297d3d69ac165c067c0586052c8b255d509f97ec1f6544b4f9796f782dfa78c0491d5d09cc763c265c25a6250cab057d70bfb7cc3f456494d9594f580dda58e0693d7d29ec561cc6bcc546c5ec4be59d905f572cdfa5847439b9afb8ed3ab80089dd9dc90cb6fce69ce566e5cc6bc5bdb07f770cff85a45419998f98cd1a9820a9fdbde92c96dc86fc850685ac0ba5ddd01f176c9fe5c43479f9eff8ad7af840c99ddd894cf6bca6dca526a58c2b85fdf03f374cbfc5e41459d9cfd88d5ad860e9bdfda96cd69c463c45c6456ccb651d10dfd7ac5f25040c327a0f67a6745981d9eb1e7c3a0f99d1a7a93cf2c4d372a2c5f727742d1e31",
        "type": "nulldata"
      }
    }
  ],
  "blockhash": "32a2d379a33ec88ae1cb3a8a1a44f2d12b76aebf574ecf7ac16b289397ed6cd9",
  "confirmations": 1,
  "time": 1764176557,
  "blocktime": 1764176557
}