{
  "hex": "01000000000101d85e0f1c35194eeb4092b8a2d6d1c632b06c597288f88a71e0718baf99774fd40100000000feffffff0200e1f50500000000fdd5046a2025f3b924a8b964d52581263909ccb833eedfab74b03c9b5aa0e48501259bf43c4db00409072616f4553b6123d7752e0897e5b7ef443deb5e8a496338cb1fdddb09f6f729270636d4751b4103f7550e28b7c597cf641dcb7eaa694318eb3ffdfb29d6d749476656b4157b216397356e48d7a5f7af047dab1eca0923788b5f9d9b49b6b76967467694355b0143b7154e68f785d78f245d8b3eea290358ab7fbdbb6996978987a69674d5bbe1a357f5ae881765376fc4bd6bde0ac9e3b84b9f5d5b897677a9a786b654f59bc18377d58ea83745174fe49d4bfe2ae9c3986bbf7d7ba95657c9c7e6d63495fba1e317b5eec85725772f84fd2b9e4a89a3f80bdf1d1bc93637e9e7c6f614b5db81c33795cee87705570fa4dd0bbe6aa983d82bff3d3be9161709072616f4553b6123d7752e0897e5b7ef443deb5e8a496338cb1fdddb09f6f729270636d4751b4103f7550e28b7c597cf641dcb7eaa694318eb3ffdfb29d6d749476656b4157b216397356e48d7a5f7af047dab1eca0923788b5f9d9b49b6b76967467694355b0143b7154e68f785d78f245d8b3eea290358ab7fbdbb6996978987a69674d5bbe1a357f5ae881765376fc4bd6bde0ac9e3b84b9f5d5b897677a9a786b654f59bc18377d58ea83745174fe49d4bfe2ae9c3986bbf7d7ba95657c9c7e6d63495fba1e317b5eec85725772f84fd2b9e4a89a3f80bdf1d1bc93637e9e7c6f614b5db81c33795cee87705570fa4dd0bbe6aa983d82bff3d3be9161709072616f4553b6123d7752e0897e5b7ef443deb5e8a496338cb1fdddb09f6f729270636d4751b4103f7550e28b7c597cf641dcb7eaa694318eb3ffdfb29d6d749476656b4157b216397356e48d7a5f7af047dab1eca0923788b5f9d9b49b6b76967467694355b0143b7154e68f785d78f245d8b3eea290358ab7fbdbb6996978987a69674d5bbe1a357f5ae881765376fc4bd6bde0ac9e3b84b9f5d5b897677a9a786b654f59bc18377d58ea83745174fe49d4bfe2ae9c3986bbf7d7ba95657c9c7e6d63495fba1e317b5eec85725772f84fd2b9e4a89a3f80bdf1d1bc93637e9e7c6f614b5db81c33795cee87705570fa4dd0bbe6aa983d82bff3d3be9161709072616f4553b6123d7752e0897e5b7ef443deb5e8a496338cb1fdddb09f6f729270636d4751b4103f7550e28b7c597cf641dcb7eaa694318eb3ffdfb29d6d749476656b4157b216397356e48d7a5f7af047dab1eca0923788b5f9d9b49b6b76967467694355b0143b7154e68f785d78f245d8b3eea290358ab7fbdbb6996978987a69674d5bbe1a357f5ae881765376fc4bd6bde0ac9e3b84b9f5d5b897677a9a786b654f59bc18377d58ea83745174fe49d4bfe2ae9c3986bbf7d7ba95657c9c7e6d63495fba1e317b5eec85725772f84fd2b9e4a89a3f80bdf1d1bc93637e9e7c6f614b5db81c33795cee87705570fa4dd0bbe6aa983d82bff3d3be9161709072616f4553b6123d7752e0897e5b7ef443deb5e8a496338cb1fdddb09f6f729270636d4751b4103f7550e28b7c597cf641dcb7eaa694318eb3ffdfb29d6d749476656b4157b216397356e48d7a5f7af047dab1eca0923788b5f9d9b49b6b76967467694355b0143b7154e68f785d78f245d8b3eea290358ab7fbdbb6996978987a69674d5bbe1a357f5ae8817653797bf89798fd9e48b77d8f6112f9cf2f267cc2c5047dbaacccd340c7ccd9da65c1076cf5d792d00002251201cd833f426991b39030afad3a4262d11d8e9d33b1bf63cf61f610c0d62dcbf6102fd7509a1098749b86ab18f5f6d24eb717aa82fdd865b6d345f4a1cbab4854fe6e0ce79062c9ce19b1593bf2ef6df7d7a93fe73d552f79b5b2e9808b6cd2c1b73d0f3bc89323a26e2e4fcc3a7d78cc07df412268f4202e4695a06c7334a94d76602e4f6fa1fec20fd3388ce18377eaea081946d6e77654eb8519df287f03c24b532227ce3548d2ce6734702ef777b60aa005f3b35e0e4b5ceca428b005e5aede6b31c9bb1e6b69d1debf77b5c74d17a303bef0848cc47008c6b14c25d1be175dcd44fd2342211611076c2cd74c3588a274e42d8e1f16adc9b4085feaac37931b02d1b9174e02e4584a72ad3c283b98c38c4fbcc6c0f354a88611183a42d978dc0ba6f6f9dcfb231fa9b15fbf9481b03e4d8bf0887a2ed100d6198304bbee59f449af5e6fec9da73361bd4e5c5b47ceda92ffb5a7d896ca45fdc9c86a5d712ffdfc1e9e43a93e53864e56c940f95cf908b29f1ac7b2d2e175d191fdf857ddcb13bfbc1faf29d61722159a141fad4e6ea3b527976b2fd59638f5791ad307fcd8f9e254607b2fa0df6cf60936c5d859d75c91879f7857270e3d786e4b581c8af1cfd8dd4c431314a909e4f4828388be05d549f101718700c1861ecbcbe028cc01b139200340906d3bb1185d6f8a9ebaee7e89f555c8adf86a6d7e9b0895b007dc74edaae7a56d006f1ddbd16e59f098eceaf29afd8a15a27a5e7531baef40b7dc1228e4e066d9108e37791844c1f886b1a3685b8fcb249740962adf7bad337eb1301e13f4ffea565fbb56e6fe160d2226b3ce044c553e0906a00dce1deaf36c40bbeedfd6b3d165ed4d8ae137a8882f2c33e00bfa54d3d62e7e2b0da98e905c8970691a1cc304ed12c1b8c6a2ce5fd873c36b13ddee4af84a220c956f6d1d911edc3a5d24503497b25c9ce4328d79425b8eabb461302ef9b059eaf6c1cc68333165cd61c6e5d88f7a90712e92baff7ebdcac3ddbb97422a29ef0fad2d78782d4e1d55b10651d0fa83cc481a5722153f759f16bd844df480fb069568ca1c606b2ce47f6eb05e3c6e13aef1fa5fd4c69939135eabd34add329cdb821ea0e0b2370186fee56dbcd1600b7f4d333e58e5699adb5176829f531f1a6d14cd1cff1a2daadf2bcc5c849745e0cac68fbc89b4d78d506eef42a2746f4273a5e57df3ff11e7df99a26a2ee5652b091633dd9ef6a5f19c5984fa95d7ac950b2034d3e2e6328184efdf9b370ee97c13b99529c482ecd4b1b02bd4ac6a4d60187fbd4933dce5bff61c32c5a0564eb952e52fdeb7bddb0b3f0baa407083f43d74030e23deb4b5c623631cef99ac7c66c0e1c2743895306ddce9c0963c1b812246f528fff465e8baa52579e9cd38ffe5c5e30e25061e78a6d88952254794d1eef5b8b1d787cfe25a6cce0f204ea5ed0813e7753f2e829416d2710d9ebbc4b343c7da1e59f637d5ada0a26b3b0e3ff28e77228df176d851f2b4196f06cc63560a1fdd4937d9a31cd4788a8b08562631bb44cd9ce63ed267db4e27b52d48ee4c97def0d9d8e331dbf29e644524b1e0d1dd87b002b58de1984caf8ac99285548566d5ab135cb6c09e679d27428cc865fbee8a66823871e51c62dac56bebf286e6d0bbb8d252af68fde6dd6bc740d313513e02f8b2b32cdfe37e16eef6b2fda169e2c35d3305a8428c0f3ebfacca77456763c986ca57f88ef4fcd637b9997e1629141a5b0fcb0278e34ef533fc8ffb767635ae4e90e5160d3f88eb9f5f47535eae6ff86609ac547cb58f855f7b619aeaac2a38e4031a6e4d3590f0508828d61efd224919c052ce43f0fdcd06289231232c24cf5506d19f26c19f2a5170f32e9f40bd6564460fb2d2d831dcaa265ebb9749ffdcb067a330e8b9667e387c6f5f11e0bb6d85b4a09743d14d1ed91cf48dc1f1b6fc210ea0b9df3501f4eef3d42a16a631199d8ac807ff93ad9576793cbf68aba2cff081563ee5d9432c5d2618fd7e0544b70d6c8943577b1603eb97bede565c78a03263207f871dcbae61dcbdce65dc50ee0fdeccc1a95f392b606c29b87c5bc8d29ccc806cf847449b91959a279e8206e8a79512b372a1359943960ac80c77339e50d20507f10083817769a4bb0a4ac56346d9474e8a31fa634fb3ef8e8a00f45ed66f2f0f43d790a32528063b82bfc2efc3cf5b533c2cea9543b5066e9865bcf9b9cac515860db111b447dc030c75a6f695a4dc6d15a210bfa9d3bbfb0ba2ae27e679f769aac80fc34e1c328a1c6a6d46d8f11b6bf072fe59185b714ae228fe2540a18f4dea9a58124ca158975a59825dfe676069ab0afb8dcec2bd799ad5df913be4b6ed568f44934de470dbae9523b89fcad18afaf50f4cd9d0311fb5de8eebdcdec753f9c674d78243460d3f2e4ced4ee2d9dcffe0980faf3cb160fe714cb19ffde4ec912d49574888e7dd8aee93bc91362ee7929a7b34b602b7ab877a5b4add0da604e621cafe25a4b647357a6736746a0f2c45658b266e67b98d635f3cad296c625be0845c8c4755e88099e6f9e261de9c522e51d0674ee44a32edc32596cf71bea82c2287d020ae6845c47183e4cddeec79b75bbb4e8effa5fd7c71ca11d8139f0d7a7d4049fa8e7013f7ba84280fe5cb750a7bbdbce7e91dca15cf02dedb7be8c0a9c1ad99fefaa08b69f95c1f3d74d747c6a2cafc63abe807463b417c48eb97365c0284eca99a7d5ed7692b7ecff6b802dbec32b89ba68bebf5d41bea24c75e6c5a9a1a461ab34ccbb4c4f01791fa22665a8abae49e7e42078e37a86442e7f0660ab8ab4a19c61c50577e870496bbe168331a9c10ce0371bb5398bd58a9b56116bc9962b4f8a54b42b2e799854994fd76a68e42157fb7c41bda14e7c339388488e42c9d4370b67b993a4698553306af7a5dab6cfc6dbe5b31dd2eaf8d548182c72657c7966f4e1e4a254283fb87dc3abf24b682b44b6d9b74b9b2931df9494bdf65229dbc1a8f3f281a5bbe1aa33b4d5c447570acf05fdc291ce42696f0be181f7647fb106e6564bfa4cb5aa1c1287871cae63263530a1f6fdfdaf3f8b68c57ac33f4dc32968087bec68c8c45dcce8d49eeab1357c90e2368a8d307303f37091ffcc82679547c158b25fb2b9a0ea538147c7858877fde92faa8afeb12a65fe2cf9ee4e2ca29c1664776628202054ad8307e77e150a1785121d1f316875de71287aa7906f57ac67088ba50671d0de538ac7eddc88c49b5ea62e867236de67006a059210eaf758063d366ecfb221374d00774fe8ad11c3812ad96956fb1b7650e2b100e0c269fd5d7e7ee119077da591a5c0d3f44ee53bce1b01070a2022303d4b5a76898d8fa0b7bccfd2ed1332354e4f585e73858d9095a8a9b3b4c2d3e3e5e8e90e1829303f575f68829ca4afb4bec9cfd1d2d3de131423253d476f718a9ab2b6bbf0f7f900000013293d4d01fd21050010d29080be3d74a01d43ac932c318d622633685d407d770ec8806a2c6c12042786c5ca8c746e9efc44a518357913571fb51d9f6664cb724a82d512e4254634ff26df75ad6f78ac66192ed2259169c7405706d2cf48de5958eef9cdd178617460f400330579cb8c6ddaffa2225640bba57a7a955e592b337aab24563e2743d7d9ad107fc214a0d0126ee86e2f754e3eddef3e5473452929392e3c76a299ce06cd3206e12d9d6644a1b9a1bff9a02628b91093e9bfed0ae9a5afcb0e738929c380a3f061660c93268c878c22f0fd50c8825ec61b5cfc883a1d7d242fd8340f0582e4640073732bc91ace982d75a4d45a452314b1a06c0f80070c87058fb02d46de69d87cf6fddc84113b5e2caaf98fdda1f05e23fbb5dfd8229f08a69d773eb90eb4db557ba089222a9f7e327da493ca32b79ffd1b2add47ae8738549bda7618c7c6693858467ebf44901da41bdca90d280f693b670f8b5b25a45ccdff5819a529ebcb577f5736eeb938baa4330319a32a14bffbcce5dcbfda667f75b423a7daf69684c949b7b3f3cf5e2345894acbcff81f90d39996e3619d7b9ea94b0b76d94c08aeecd154b6b631023b1a21855437589994802fa6ba2b8cb7a09d6fd3a1ceff008d406b81c1199edb2e1f5f15a4f1b82a16e9606e50704062fc27d4c307a6c9b780fb65a37240082f00239cf2ef59adb21aee05258521c2b26d8a1f59980461c2488427bc3fce70649f3912a5536cddf58f828000f3c04a89e44a99ff9848a2306aa2c90225525baef54dc82a6529c4c4aefd153c8f73d1425fdf2837f0f3b65584083c0a997606b9d57528d923469563f5498dddba179f3d2de843b1813a1eb17b91ea88d75f7dfe01e72a7373620e73b386fd7b967165803f14e17779386b3095955bc001e60227b27916ddcb763329f486bb2329402285af78ef977ebdef497ebe1e27352843c5a3c74d7db06ac276228642b136509bdcbf57c8295bebbf13e0b2bcb0e54d28e23997549019d56a7d69903877a224982678dc9a94894b00fefb78a01f973e051040431801fe2faf6535892732409cd8dceb9ed6791216598af707b194afbdd84557334399bcf409758e9cab6c229e348211c505e1d587ef8fce69623997bbfa3744045ec7a3737eee7bbb31b85d69f6433c9be286672b54e390fb72fe5ceb17d7669a485a084d3cc070866700aa04192c43570ebb063ed96ee2d09a39fd400a84df5108802328e47665a9481c52f1fa77ecae22e2bc3ee8dc3c582bccf26e70d15ec14f3eb1bc9fce1e4f536a8837fc6bb9c41ecf1a8eb1e49b080ea3acc7456a347b4178da4e7f6bfa2ada0c2342fe37145e3b7bad33619e50add7d8c905024b24540198e1860f747583f5c981ed95c5a39fa8adeaeed197f95d45fed4eac1d16812eb7d0560110534622ccbc03183bb56824694b9d124800a3e4c1c12c5773eb165d0ad7a87dba8317aa31d0dd7931cb6e4a25c50d105fe7548e686af082fd45b5152a21558e934324c867b2ce89976144af1fc1e13feccf24fbf4a9f9fddbd94110fc2c1c0abdefb39e9b411ab237fe90c56fa840ee1805050bb53d5b6bfec56a20ada23ce424ce779b59e4d91a40d77c00a5263f7942293e1cb395f4efe718e54f6836a2fb6fb5ea0c6cb34cecf22c1d7af7e10964c516ad3e6418057083baf84c99138280c1b1166987fd0248d9062c2fbcc2fe86fbbf3e04ad86715f74c04e7e2173b319dd477de6ac3f82f667ae980be62ad6d586189f339ccecfef8da1a25527c3b9880ef6be764d90918246218e3ee5914296a635c1373fd7ea469c8e461fc54724d138ad4cef5b0db617ac30b7a4ec821634569000000",
  "txid": "bef261a1466a010a11882916d8ed7f2a1a65cdced5e6e759852104de85f8e331",
  "hash": "569396a8305144e5defbda8b5371e52f5610dd1c095f4d61d7721c6ea8d28e0d",
  "size": 5085,
  "vsize": 2278,
  "version": 1,
  "locktime": 105,
  "vin": [
    {
      "txid": "d44f7799af8b71e0718af88872596cb032c6d1d6a2b89240eb4e19351c0f5ed8",
      "vout": 1,
      "scriptSig": {
        "asm": "",
        "hex": ""
      },
      "txinwitness": [
        "a1098749b86ab18f5f6d24eb717aa82fdd865b6d345f4a1cbab4854fe6e0ce79062c9ce19b1593bf2ef6df7d7a93fe73d552f79b5b2e9808b6cd2c1b73d0f3bc89323a26e2e4fcc3a7d78cc07df412268f4202e4695a06c7334a94d76602e4f6fa1fec20fd3388ce18377eaea081946d6e77654eb8519df287f03c24b532227ce3548d2ce6734702ef777b60aa005f3b35e0e4b5ceca428b005e5aede6b31c9bb1e6b69d1debf77b5c74d17a303bef0848cc47008c6b14c25d1be175dcd44fd2342211611076c2cd74c3588a274e42d8e1f16adc9b4085feaac37931b02d1b9174e02e4584a72ad3c283b98c38c4fbcc6c0f354a88611183a42d978dc0ba6f6f9dcfb231fa9b15fbf9481b03e4d8bf0887a2ed100d6198304bbee59f449af5e6fec9da73361bd4e5c5b47ceda92ffb5a7d896ca45fdc9c86a5d712ffdfc1e9e43a93e53864e56c940f95cf908b29f1ac7b2d2e175d191fdf857ddcb13bfbc1faf29d61722159a141fad4e6ea3b527976b2fd59638f5791ad307fcd8f9e254607b2fa0df6cf60936c5d859d75c91879f7857270e3d786e4b581c8af1cfd8dd4c431314a909e4f4828388be05d549f101718700c1861ecbcbe028cc01b139200340906d3bb1185d6f8a9ebaee7e89f555c8adf86a6d7e9b0895b007dc74edaae7a56d006f1ddbd16e59f098eceaf29afd8a15a27a5e7531baef40b7dc1228e4e066d9108e37791844c1f886b1a3685b8fcb249740962adf7bad337eb1301e13f4ffea565fbb56e6fe160d2226b3ce044c553e0906a00dce1deaf36c40bbeedfd6b3d165ed4d8ae137a8882f2c33e00bfa54d3d62e7e2b0da98e905c8970691a1cc304ed12c1b8c6a2ce5fd873c36b13ddee4af84a220c956f6d1d911edc3a5d24503497b25c9ce4328d79425b8eabb461302ef9b059eaf6c1cc68333165cd61c6e5d88f7a90712e92baff7ebdcac3ddbb97422a29ef0fad2d78782d4e1d55b10651d0fa83cc481a5722153f759f16bd844df480fb069568ca1c606b2ce47f6eb05e3c6e13aef1fa5fd4c69939135eabd34add329cdb821ea0e0b2370186fee56dbcd1600b7f4d333e58e5699adb5176829f531f1a6d14cd1cff1a2daadf2bcc5c849745e0cac68fbc89b4d78d506eef42a2746f4273a5e57df3ff11e7df99a26a2ee5652b091633dd9ef6a5f19c5984fa95d7ac950b2034d3e2e6328184efdf9b370ee97c13b99529c482ecd4b1b02bd4ac6a4d60187fbd4933dce5bff61c32c5a0564eb952e52fdeb7bddb0b3f0baa407083f43d74030e23deb4b5c623631cef99ac7c66c0e1c2743895306ddce9c0963c1b812246f528fff465e8baa52579e9cd38ffe5c5e30e25061e78a6d88952254794d1eef5b8b1d787cfe25a6cce0f204ea5ed0813e7753f2e829416d2710d9ebbc4b343c7da1e59f637d5ada0a26b3b0e3ff28e77228df176d851f2b4196f06cc63560a1fdd4937d9a31cd4788a8b08562631bb44cd9ce63ed267db4e27b52d48ee4c97def0d9d8e331dbf29e644524b1e0d1dd87b002b58de1984caf8ac99285548566d5ab135cb6c09e679d27428cc865fbee8a66823871e51c62dac56bebf286e6d0bbb8d252af68fde6dd6bc740d313513e02f8b2b32cdfe37e16eef6b2fda169e2c35d3305a8428c0f3ebfacca77456763c986ca57f88ef4fcd637b9997e1629141a5b0fcb0278e34ef533fc8ffb767635ae4e90e5160d3f88eb9f5f47535eae6ff86609ac547cb58f855f7b619aeaac2a38e4031a6e4d3590f0508828d61efd224919c052ce43f0fdcd06289231232c24cf5506d19f26c19f2a5170f32e9f40bd6564460fb2d2d831dcaa265ebb9749ffdcb067a330e8b9667e387c6f5f11e0bb6d85b4a09743d14d1ed91cf48dc1f1b6fc210ea0b9df3501f4eef3d42a16a631199d8ac807ff93ad9576793cbf68aba2cff081563ee5d9432c5d2618fd7e0544b70d6c8943577b1603eb97bede565c78a03263207f871dcbae61dcbdce65dc50ee0fdeccc1a95f392b606c29b87c5bc8d29ccc806cf847449b91959a279e8206e8a79512b372a1359943960ac80c77339e50d20507f10083817769a4bb0a4ac56346d9474e8a31fa634fb3ef8e8a00f45ed66f2f0f43d790a32528063b82bfc2efc3cf5b533c2cea9543b5066e9865bcf9b9cac515860db111b447dc030c75a6f695a4dc6d15a210bfa9d3bbfb0ba2ae27e679f769aac80fc34e1c328a1c6a6d46d8f11b6bf072fe59185b714ae228fe2540a18f4dea9a58124ca158975a59825dfe676069ab0afb8dcec2bd799ad5df913be4b6ed568f44934de470dbae9523b89fcad18afaf50f4cd9d0311fb5de8eebdcdec753f9c674d78243460d3f2e4ced4ee2d9dcffe0980faf3cb160fe714cb19ffde4ec912d49574888e7dd8aee93bc91362ee7929a7b34b602b7ab877a5b4add0da604e621cafe25a4b647357a6736746a0f2c45658b266e67b98d635f3cad296c625be0845c8c4755e88099e6f9e261de9c522e51d0674ee44a32edc32596cf71bea82c2287d020ae6845c47183e4cddeec79b75bbb4e8effa5fd7c71ca11d8139f0d7a7d4049fa8e7013f7ba84280fe5cb750a7bbdbce7e91dca15cf02dedb7be8c0a9c1ad99fefaa08b69f95c1f3d74d747c6a2cafc63abe807463b417c48eb97365c0284eca99a7d5ed7692b7ecff6b802dbec32b89ba68bebf5d41bea24c75e6c5a9a1a461ab34ccbb4c4f01791fa22665a8abae49e7e42078e37a86442e7f0660ab8ab4a19c61c50577e870496bbe168331a9c10ce0371bb5398bd58a9b56116bc9962b4f8a54b42b2e799854994fd76a68e42157fb7c41bda14e7c339388488e42c9d4370b67b993a4698553306af7a5dab6cfc6dbe5b31dd2eaf8d548182c72657c7966f4e1e4a254283fb87dc3abf24b682b44b6d9b74b9b2931df9494bdf65229dbc1a8f3f281a5bbe1aa33b4d5c447570acf05fdc291ce42696f0be181f7647fb106e6564bfa4cb5aa1c1287871cae63263530a1f6fdfdaf3f8b68c57ac33f4dc32968087bec68c8c45dcce8d49eeab1357c90e2368a8d307303f37091ffcc82679547c158b25fb2b9a0ea538147c7858877fde92faa8afeb12a65fe2cf9ee4e2ca29c1664776628202054ad8307e77e150a1785121d1f316875de71287aa7906f57ac67088ba50671d0de538ac7eddc88c49b5ea62e867236de67006a059210eaf758063d366ecfb221374d00774fe8ad11c3812ad96956fb1b7650e2b100e0c269fd5d7e7ee119077da591a5c0d3f44ee53bce1b01070a2022303d4b5a76898d8fa0b7bccfd2ed1332354e4f585e73858d9095a8a9b3b4c2d3e3e5e8e90e1829303f575f68829ca4afb4bec9cfd1d2d3de131423253d476f718a9ab2b6bbf0f7f900000013293d4d01",
        "0010d29080be3d74a01d43ac932c318d622633685d407d770ec8806a2c6c12042786c5ca8c746e9efc44a518357913571fb51d9f6664cb724a82d512e4254634ff26df75ad6f78ac66192ed2259169c7405706d2cf48de5958eef9cdd178617460f400330579cb8c6ddaffa2225640bba57a7a955e592b337aab24563e2743d7d9ad107fc214a0d0126ee86e2f754e3eddef3e5473452929392e3c76a299ce06cd3206e12d9d6644a1b9a1bff9a02628b91093e9bfed0ae9a5afcb0e738929c380a3f061660c93268c878c22f0fd50c8825ec61b5cfc883a1d7d242fd8340f0582e4640073732bc91ace982d75a4d45a452314b1a06c0f80070c87058fb02d46de69d87cf6fddc84113b5e2caaf98fdda1f05e23fbb5dfd8229f08a69d773eb90eb4db557ba089222a9f7e327da493ca32b79ffd1b2add47ae8738549bda7618c7c6693858467ebf44901da41bdca90d280f693b670f8b5b25a45ccdff5819a529ebcb577f5736eeb938baa4330319a32a14bffbcce5dcbfda667f75b423a7daf69684c949b7b3f3cf5e2345894acbcff81f90d39996e3619d7b9ea94b0b76d94c08aeecd154b6b631023b1a21855437589994802fa6ba2b8cb7a09d6fd3a1ceff008d406b81c1199edb2e1f5f15a4f1b82a16e9606e50704062fc27d4c307a6c9b780fb65a37240082f00239cf2ef59adb21aee05258521c2b26d8a1f59980461c2488427bc3fce70649f3912a5536cddf58f828000f3c04a89e44a99ff9848a2306aa2c90225525baef54dc82a6529c4c4aefd153c8f73d1425fdf2837f0f3b65584083c0a997606b9d57528d923469563f5498dddba179f3d2de843b1813a1eb17b91ea88d75f7dfe01e72a7373620e73b386fd7b967165803f14e17779386b3095955bc001e60227b27916ddcb763329f486bb2329402285af78ef977ebdef497ebe1e27352843c5a3c74d7db06ac276228642b136509bdcbf57c8295bebbf13e0b2bcb0e54d28e23997549019d56a7d69903877a224982678dc9a94894b00fefb78a01f973e051040431801fe2faf6535892732409cd8dceb9ed6791216598af707b194afbdd84557334399bcf409758e9cab6c229e348211c505e1d587ef8fce69623997bbfa3744045ec7a3737eee7bbb31b85d69f6433c9be286672b54e390fb72fe5ceb17d7669a485a084d3cc070866700aa04192c43570ebb063ed96ee2d09a39fd400a84df5108802328e47665a9481c52f1fa77ecae22e2bc3ee8dc3c582bccf26e70d15ec14f3eb1bc9fce1e4f536a8837fc6bb9c41ecf1a8eb1e49b080ea3acc7456a347b4178da4e7f6bfa2ada0c2342fe37145e3b7bad33619e50add7d8c905024b24540198e1860f747583f5c981ed95c5a39fa8adeaeed197f95d45fed4eac1d16812eb7d0560110534622ccbc03183bb56824694b9d124800a3e4c1c12c5773eb165d0ad7a87dba8317aa31d0dd7931cb6e4a25c50d105fe7548e686af082fd45b5152a21558e934324c867b2ce89976144af1fc1e13feccf24fbf4a9f9fddbd94110fc2c1c0abdefb39e9b411ab237fe90c56fa840ee1805050bb53d5b6bfec56a20ada23ce424ce779b59e4d91a40d77c00a5263f7942293e1cb395f4efe718e54f6836a2fb6fb5ea0c6cb34cecf22c1d7af7e10964c516ad3e6418057083baf84c99138280c1b1166987fd0248d9062c2fbcc2fe86fbbf3e04ad86715f74c04e7e2173b319dd477de6ac3f82f667ae980be62ad6d586189f339ccecfef8da1a25527c3b9880ef6be764d90918246218e3ee5914296a635c1373fd7ea469c8e461fc54724d138ad4cef5b0db617ac30b7a4ec8216345"
      ],
      "sequence": 4294967294
    }
  ],
  "vout": [
    {
      "value": 1.0,
      "n": 0,
      "scriptPubKey": {
        "asm": "OP_RETURN 25f3b924a8b964d52581263909ccb833eedfab74b03c9b5aa0e48501259bf43c 09072616f4553b6123d7752e0897e5b7ef443deb5e8a496338cb1fdddb09f6f729270636d4751b4103f7550e28b7c597cf641dcb7eaa694318eb3ffdfb29d6d749476656b4157b216397356e48d7a5f7af047dab1eca0923788b5f9d9b49b6b76967467694355b0143b7154e68f785d78f245d8b3eea290358ab7fbdbb6996978987a69674d5bbe1a357f5ae881765376fc4bd6bde0ac9e3b84b9f5d5b897677a9a786b654f59bc18377d58ea83745174fe49d4bfe2ae9c3986bbf7d7ba95657c9c7e6d63495fba1e317b5eec85725772f84fd2b9e4a89a3f80bdf1d1bc93637e9e7c6f614b5db81c33795cee87705570fa4dd0bbe6aa983d82bff3d3be9161709072616f4553b6123d7752e0897e5b7ef443deb5e8a496338cb1fdddb09f6f729270636d4751b4103f7550e28b7c597cf641dcb7eaa694318eb3ffdfb29d6d749476656b4157b216397356e48d7a5f7af047dab1eca0923788b5f9d9b49b6b76967467694355b0143b7154e68f785d78f245d8b3eea290358ab7fbdbb6996978987a69674d5bbe1a357f5ae881765376fc4bd6bde0ac9e3b84b9f5d5b897677a9a786b654f59bc18377d58ea83745174fe49d4bfe2ae9c3986bbf7d7ba95657c9c7e6d63495fba1e317b5eec85725772f84fd2b9e4a89a3f80bdf1d1bc93637e9e7c6f614b5db81c33795cee87705570fa4dd0bbe6aa983d82bff3d3be9161709072616f4553b6123d7752e0897e5b7ef443deb5e8a496338cb1fdddb09f6f729270636d4751b4103f7550e28b7c597cf641dcb7eaa694318eb3ffdfb29d6d749476656b4157b216397356e48d7a5f7af047dab1eca0923788b5f9d9b49b6b76967467694355b0143b7154e68f785d78f245d8b3eea290358ab7fbdbb6996978987a69674d5bbe1a357f5ae881765376fc4bd6bde0ac9e3b84b9f5d5b897677a9a786b654f59bc18377d58ea83745174fe49d4bfe2ae9c3986bbf7d7ba95657c9c7e6d63495fba1e317b5eec85725772f84fd2b9e4a89a3f80bdf1d1bc93637e9e7c6f614b5db81c33795cee87705570fa4dd0bbe6aa983d82bff3d3be9161709072616f4553b6123d7752e0897e5b7ef443deb5e8a496338cb1fdddb09f6f729270636d4751b4103f7550e28b7c597cf641dcb7eaa694318eb3ffdfb29d6d749476656b4157b216397356e48d7a5f7af047dab1eca0923788b5f9d9b49b6b76967467694355b0143b7154e68f785d78f245d8b3eea290358ab7fbdbb6996978987a69674d5bbe1a357f5ae881765376fc4bd6bde0ac9e3b84b9f5d5b897677a9a786b654f59bc18377d58ea83745174fe49d4bfe2ae9c3986bbf7d7ba95657c9c7e6d63495fba1e317b5eec85725772f84fd2b9e4a89a3f80bdf1d1bc93637e9e7c6f614b5db81c33795cee87705570fa4dd0bbe6aa983d82bff3d3be9161709072616f4553b6123d7752e0897e5b7ef443deb5e8a496338cb1fdddb09f6f729270636d4751b4103f7550e28b7c597cf641dcb7eaa694318eb3ffdfb29d6d749476656b4157b216397356e48d7a5f7af047dab1eca0923788b5f9d9b49b6b76967467694355b0143b7154e68f785d78f245d8b3eea290358ab7fbdbb6996978987a69674d5bbe1a357f5ae8817653797bf89798fd9e48b77d8f6112f9cf2f267cc2c5047dbaacccd340c7ccd9da65c",
        "hex": "6a2025f3b924a8b964d52581263909ccb833eedfab74b03c9b5aa0e48501259bf43c4db00409072616f4553b6123d7752e0897e5b7ef443deb5e8a496338cb1fdddb09f6f729270636d4751b4103f7550e28b7c597cf641dcb7eaa694318eb3ffdfb29d6d749476656b4157b216397356e48d7a5f7af047dab1eca0923788b5f9d9b49b6b76967467694355b0143b7154e68f785d78f245d8b3eea290358ab7fbdbb6996978987a69674d5bbe1a357f5ae881765376fc4bd6bde0ac9e3b84b9f5d5b897677a9a786b654f59bc18377d58ea83745174fe49d4bfe2ae9c3986bbf7d7ba95657c9c7e6d63495fba1e317b5eec85725772f84fd2b9e4a89a3f80bdf1d1bc93637e9e7c6f614b5db81c33795cee87705570fa4dd0bbe6aa983d82bff3d3be9161709072616f4553b6123d7752e0897e5b7ef443deb5e8a496338cb1fdddb09f6f729270636d4751b4103f7550e28b7c597cf641dcb7eaa694318eb3ffdfb29d6d749476656b4157b216397356e48d7a5f7af047dab1eca0923788b5f9d9b49b6b76967467694355b0143b7154e68f785d78f245d8b3eea290358ab7fbdbb6996978987a69674d5bbe1a357f5ae881765376fc4bd6bde0ac9e3b84b9f5d5b897677a9a786b654f59bc18377d58ea83745174fe49d4bfe2ae9c3986bbf7d7ba95657c9c7e6d63495fba1e317b5eec85725772f84fd2b9e4a89a3f80bdf1d1bc93637e9e7c6f614b5db81c33795cee87705570fa4dd0bbe6aa983d82bff3d3be9161709072616f4553b6123d7752e0897e5b7ef443deb5e8a496338cb1fdddb09f6f729270636d4751b4103f7550e28b7c597cf641dcb7eaa694318eb3ffdfb29d6d749476656b4157b216397356e48d7a5f7af047dab1eca0923788b5f9d9b49b6b76967467694355b0143b7154e68f785d78f245d8b3eea290358ab7fbdbb6996978987a69674d5bbe1a357f5ae881765376fc4bd6bde0ac9e3b84b9f5d5b897677a9a786b654f59bc18377d58ea83745174fe49d4bfe2ae9c3986bbf7d7ba95657c9c7e6d63495fba1e317b5eec85725772f84fd2b9e4a89a3f80bdf1d1bc93637e9e7c6f614b5db81c33795cee87705570fa4dd0bbe6aa983d82bff3d3be9161709072616f4553b6123d7752e0897e5b7ef443deb5e8a496338cb1fdddb09f6f729270636d4751b4103f7550e28b7c597cf641dcb7eaa694318eb3ffdfb29d6d749476656b4157b216397356e48d7a5f7af047dab1eca0923788b5f9d9b49b6b76967467694355b0143b7154e68f785d78f245d8b3eea290358ab7fbdbb6996978987a69674d5bbe1a357f5ae881765376fc4bd6bde0ac9e3b84b9f5d5b897677a9a786b654f59bc18377d58ea83745174fe49d4bfe2ae9c3986bbf7d7ba95657c9c7e6d63495fba1e317b5eec85725772f84fd2b9e4a89a3f80bdf1d1bc93637e9e7c6f614b5db81c33795cee87705570fa4dd0bbe6aa983d82bff3d3be9161709072616f4553b6123d7752e0897e5b7ef443deb5e8a496338cb1fdddb09f6f729270636d4751b4103f7550e28b7c597cf641dcb7eaa694318eb3ffdfb29d6d749476656b4157b216397356e48d7a5f7af047dab1eca0923788b5f9d9b49b6b76967467694355b0143b7154e68f785d78f245d8b3eea290358ab7fbdbb6996978987a69674d5bbe1a357f5ae8817653797bf89798fd9e48b77d8f6112f9cf2f267cc2c5047dbaacccd340c7ccd9da65c",
        "type": "nulldata"
      }
    },
    {
      "value": 499992.8817,
      "n": 1,
      "scriptPubKey": {
        "asm": "1 1cd833f426991b39030afad3a4262d11d8e9d33b1bf63cf61f610c0d62dcbf61",
        "hex": "51201cd833f426991b39030afad3a4262d11d8e9d33b1bf63cf61f610c0d62dcbf61",
        "reqSigs": 1,
        "type": "witness_v1_scripthash",
        "addresses": [
          "3QJmnh"
        ]
      }
    }
  ],
  "blockhash": "86d3aa2e412fd1c0ad7fd5d7d84b7ddcf41a8bf652344eaa49dd1e6444ae5dce",
  "confirmations": 1,
  "time": 1764176858,
  "blocktime": 1764176858
}