{
  "hex": "010000000001011713e34b727b6d2f485f1c4c538a80e8743275483797eabc8ebd9bd73e07341d0100000000feffffff0280cbbf57792d00002251209f80573950dedf9c72c9cb424befad0e84aa55966a12a4581e90b94762944a0100e1f50500000000fdd5046a202851d5624df8d707ba6c9239ad14cbc99ec4a4d99f22622dcecf9f25040270b64db004cc330aab616f3ae3557e2109f3d41a6a8cb8182ca41d3c0d09af541d484d6b0eec132a8b414f1ac3755e0129d3f43a4aac98380c843d1c2d298f743d686d4b2e8c734aeb212f7aa3153e6149b3945a2accf8586ce45d7c4d49ef145d080d2b4eac536acb010f5a83351e416993b47a0aecd8784cc47d5c6d69cf347d282d0b6e4cb38a2be1efba63d5fea18973549aea0c3898ac249dbc8d892fd49dc8cdeb8e6c93aa0bc1cf9a43f5de81a95374baca2c18b88c04bd9cada90ff4bde8edcbae0cf3ca6ba1affa2395bee1c93314daaa4c78d8ec64ddfccdc96f94dd888dabce2cd3ea4b818fda03b59ec1e91334fa8a6c58f8cc44fddcede94fb4fda8ad8beecc330aab616f3ae3557e2109f3d41a6a8cb8182ca41d3c0d09af541d484d6b0eec132a8b414f1ac3755e0129d3f43a4aac98380c843d1c2d298f743d686d4b2e8c734aeb212f7aa3153e6149b3945a2accf8586ce45d7c4d49ef145d080d2b4eac536acb010f5a83351e416993b47a0aecd8784cc47d5c6d69cf347d282d0b6e4cb38a2be1efba63d5fea18973549aea0c3898ac249dbc8d892fd49dc8cdeb8e6c93aa0bc1cf9a43f5de81a95374baca2c18b88c04bd9cada90ff4bde8edcbae0cf3ca6ba1affa2395bee1c93314daaa4c78d8ec64ddfccdc96f94dd888dabce2cd3ea4b818fda03b59ec1e91334fa8a6c58f8cc44fddcede94fb4fda8ad8beecc330aab616f3ae3557e2109f3d41a6a8cb8182ca41d3c0d09af541d484d6b0eec132a8b414f1ac3755e0129d3f43a4aac98380c843d1c2d298f743d686d4b2e8c734aeb212f7aa3153e6149b3945a2accf8586ce45d7c4d49ef145d080d2b4eac536acb010f5a83351e416993b47a0aecd8784cc47d5c6d69cf347d282d0b6e4cb38a2be1efba63d5fea18973549aea0c3898ac249dbc8d892fd49dc8cdeb8e6c93aa0bc1cf9a43f5de81a95374baca2c18b88c04bd9cada90ff4bde8edcbae0cf3ca6ba1affa2395bee1c93314daaa4c78d8ec64ddfccdc96f94dd888dabce2cd3ea4b818fda03b59ec1e91334fa8a6c58f8cc44fddcede94fb4fda8ad8beecc330aab616f3ae3557e2109f3d41a6a8cb8182ca41d3c0d09af541d484d6b0eec132a8b414f1ac3755e0129d3f43a4aac98380c843d1c2d298f743d686d4b2e8c734aeb212f7aa3153e6149b3945a2accf8586ce45d7c4d49ef145d080d2b4eac536acb010f5a83351e416993b47a0aecd8784cc47d5c6d69cf347d282d0b6e4cb38a2be1efba63d5fea18973549aea0c3898ac249dbc8d892fd49dc8cdeb8e6c93aa0bc1cf9a43f5de81a95374baca2c18b88c04bd9cada90ff4bde8edcbae0cf3ca6ba1affa2395bee1c93314daaa4c78d8ec64ddfccdc96f94dd888dabce2cd3ea4b818fda03b59ec1e91334fa8a6c58f8cc44fddcede94fb4fda8ad8beecc330aab616f3ae3557e2109f3d41a6a8cb8182ca41d3c0d09af541d484d6b0eec132a8b414f1ac3755e0129d3f43a4aac98380c843d1c2d298f743d686d4b2e8c734aeb212f7aa3153e6149b3945a2accf8586ce45d7c4d49ef145d080d2b4eac536acb010f5a83351e416993b47a0aecd8784cc47d5c6d69cf347d282d0b6e4cb38a2be1efba63d5fea18973549aea618d6162f370a8dfb31bfc3c4822b0b0f97f399230bd2b8f322721ab3d61fd7802fd7509a1b23f87ddcccf73cbf7b1c0b0b69fb168910cfc01b68152c5d6720be0da4784670870ec22b27b31c147048a5537f7c3ca374c51b1b20bc1324d2688f9180b8a459f936f4d81f4f09f6d8f54056c49e3aa5ac790b035fdeb0c3bcf7e33725bf6c1db602a084e5cd8a045e9dc78e89876df23fbab76b7bf7f0c7a7b99ab34d906692bb258aafc1dad23d33377532b070f2c85be0dd7a62bef0b68e4f329eacf0312629f21c700cb783cb0ed38bde7374e64877747e1d112a6dcf6962810dd7c0e48101589e2e4cdfead780a21585cbfe5718b5a3d8b071860d5132c54db72d184acf6b4efaadf6e5d25af12f46daefa81d165164ac4ea10f24e33c29aca5137e07d7e4e3ef9c75b14a0e8de325e347e2532cc05884a8fa21f9517a3d526e50c2ff8742e0952ad17733e118692fa39ce90fea24200076d402afeb0bc79cb0612e54b092700e7211455c47d935d69ae334996a49b27ffca7dc54e7d489d9923748c382467632582fa6f9f5d1fab447c58356608d5a532d929b9f12e82fb2a2607f5049e9dd5685ff91b36ab055e4389224daa8682a4179a68c07da3d107493be6acbeb6c84e22b243c55c73089b8dbe791ad41f7b8ac94807006eb9b0c599e42614433dc9688e69aa38bb1839ed8059575219bab65bb0680bad8074a77bbc4f6d93a686a01bc10eb9fa96a05828de51e9c423e3e7ca6a0ac50529f2e2f2568f4c6b056486000ac102890630d153ce32b6bcd22da2e7742f65246205501821b2422fd302d3fa9975f06ee244ca972682aeef1ef0b9f1435165112eb9bbe138099bdb0c1bfefc9fce7c036867df013c70bb3148f6a772370c1c0bbaa0832ef0b9b3864158b0d1548e6c2eeca50d08a6890828ff19db09976b135ae5e9b9f2fa055fb7978c6ad44584ba71e7352b6e02f008bab72e3e8aaea86b0ecdd2377e255f3fccbd99d3b2a80d9156d52cdf07adcbb03919cb2b750dec9307fbea3c5784accbfa3db421dca5452945ccf2a1043136557bb395f653485b365480bd67efcbc77cb9f6cafa706f7fd8238ac25651c2f5cacaafe3c3b6522b2fa8b0f548b29e60994e490388db4e694208a92e6daacac1eae852fedf4089daf64999d72ea85703426312856c170cfe4a0c1208bae2163e8b3be46d664c5a1ea79dac10c2e0dcc9ca68efece1427bab88ff4886264425de1722d52b63956674100d71d141275eaf0c70cb744bb7b94a5e67dad08d24b5f30e0a54800c401ecdc464fe8b0f07815197365538816cc6d6b14d5ca45ba2cbf25d21625138d11074677b1f3b08fe4930cf6f8d173d2f2bdce0e1c4247dbce960d60a0ffb5e21dad5281e0414bb0fd1293ecde7ebb19f9fbeb1d9a1f481a23ecfdb9f5963e2ecc9e252b40ac2ba23f4a645542b3da72f3f66cec8823e0345beb4c87d15b2d2126aaf009410b5592b381f2c6c128ad8564a38087a0b44b4d1900c66f75b294ba7c16fec4cb438e04bd571210fb586e6b4d573b51f0ecb3b760b5ef1568d1b6ac1a649291aae2cee74bd40306b917988ce1fcf05e5b8ccad739fc659238d52a68a95648c57e2f7850a15c392f59aab96f9de837cd2149ed65fd73e9e02835c7148681423f10dcfcb12053832b96456172c72fc2b69823ce7f7cb1a5ad0ddf907c7b14bb3297b9eefb263ee40ec67627796a79961722690f5d816d90c5892e4c0bbad1ef1aa5074e16fbde89287d2139e742a2247ba54fa8c58f97e77dbc965da03d04d46866740c0fb2fc737c34f8d61cc54a2737acc1395f6e169f2c7eb2acceb9274139211244d1fb0ee9e74820139cda56f7ba549db41ad8771ea8d27acd6c09366d5f6c278ad2d3e757ad4c37a2b755b63e1db7c69c793308045c33be2cf9cf44af44229131bc6718d71c3397807961f27f058ee2a07b36aeaff213d8f7c23f160b599f4cc972cfcd73b295ccfd701f9285f18ec201dc2ec6b949b65b9390c583a08b458b2b25bfc733a2a02bc626da804a68ece5012bd5cb2ad77394c41dbf9123ba182804a871fe2408e8f8e318ea30d9fecf2906e67a6043148745532bb82a589f82d7aab9e7c74828fcf026305354577890dd47568f3fee362e8c1aedee10cf7ffb0afdafade0cae2b72ea0d658b172db2b5e2bfe809a4e5dc16b46262fae44312c4c9a85ac6d871b14313d75c79a488e4324d63469d72c2566d2fe537279d30635de63ff57f1ce72b8f21018e830f64245b5d3483e19bccbe09584720460668b959db5b551f22e4c33c8e2be7a29da0b619b05c4e6b57d72cad4c14ac26993241105d6f9e503112523a2e48e44226807a888dc81f0a54b560682c648318b70e012dd9c78ac92c3b1e2ac1d1ce30578bfab4113b067fbae828ec94b8b67bf81a7eebc0ce7c291e33fa08d4dfe730f5a66915f315f66571b6522689c61054f468bba58994f506d34fe08c7b3048013d723f91d979f040196f025b6a5c89ff4fbc522d79e2566c2beb5205a5c36d1b0c63a73f10d361a1d6447e70bf55858d6c2e34a89043c21819a128775be8b255ceb13a54aedfdcc0a0d0d4fd0ef292f41829551fd602c6d9d7b140379ae5d9690229150690f6a275cd72b6a284c190303eb2db00c5a9ef297729249ca0b33085477e57794c1dea710d00ffa70d6d502bdd4d3fb8d71b3c7b48e08ef4b2db9066bd8fd3ad399e6836d301168b7d825910f929904f925d7de9fe8b9b0c732887879eca9358604b4acf1e6aba6bdb0226a7360291148a8ab0c75ca5ed5895bd2a4e463c61adf85cd9c8f2a66ca29896ce63b27c4bf8f0983c3327e5de1e249507bb04f8bd39de225c9a656b94aef87c4b7d17ea923161fa8564378caf70e6d0d38d17018870721ab7f04a57e89cac0c7c8f164f0fafbf2319e18f64e4f00b4666a5acfae89689a547f9048ce7535cbfaf0f79d547204e0089c7efc398f6b6f354d1c95059a470d4f2331a4292eed45761abb6025d41caa1e8500936c499f7e2f23c569c1ff0f384a25e3db8de7c90eaa078ee94c75cfd267359126a01037d42408a9866571b2649fad833fad56b5b43e07572987f0cc7f7b1a7077b35c2ad318f05be61d937e9ecc05a889db1ceafa0f3e4ec24a315ce5bd64ac35bee860c0db1f44a969eca566e9bf42d75d7c836d7fcdca1634f916b88257bd9f40959cc4bf34d1c50084deb6d6b1c1a72899ff9485687862f8743cf894f3e402242a2c3f6f432e93d6a8f260dc67dcf6fd27addc4d9122192b18e004b9f08c4e9b9134a74767341c27fb4c93ebbd1fbf440c096c6863b937b71b21bcc1de6b921b40a2337385764747576c1c9d4dde7191c212e63707f81848e96aeb4bbcdd0d6e5e9eef4f7f912202432565e77818d939dafb0b5d1dc0203252d2e2f38445a5d637c939cbec7cad1dbdde9eb00000000000e25354b01fd210500ac66e4d614a38f91abc40f127b04bd6b296dc507b22ae17b9fc95137cbd318baa9a0693c73a689e7d37931279dd2bba2a85bfb51f6e7ce0ab8b21d8e4838e2145bea0db1009ca00069ddd8e02bed2e48d5245370a34dd8347fa226ec016069db087c7ca2115686d4dd3971e5ce41dca05b87bd4ef41c1476e8aa12e0416c03f198d9e5b78ae8de5fbe48071e071ac44015e4317b63050d95cff75dff345c8ad183d1332048217a5f8d0f5409114294801172d508cdfba811206f16571998b8b424d4af6c4fa80009ac45a21676b900052394b4d8b13bcf961d76fdfb37905e13970ed7261980e795ad24f5ecfbfeafaa9d4de81b6d15f376e38a3f7bad2d5d1395bf94180adabf2d1a6598f1f89344e3aee04f6eb0226c15f0693869d3b601b514fc0552578fe40851fa0fe0cfe7e3e5396ff00c181d393e4d3d212acbb7d5b8b7e990ea31341886ba723714f006bdaf5ed89cb088420b7926dceae499a23303958ac27d46288069888ef71931be42616bc13f9ed73f1f223de68f71f8efa87b5b2521619aff63287e80e95f412e4fe361e81ba396b14f23852a71e0da558df93b5d35c9695e888714ca9e23e6f6b5bb22af809f5e76250885cb9ef48ee101353dad9613799f6acead7be541d4c6ed2848f5300d0e69cdee8cf07b003ba33422ce04906cc27f3ab9998fb6c8b59b489ca1b6334d298651742b0e0164ee07686c6c6a9a5aa94b5f39da2140bb6718d8fbce71595642e992529f31f1ceee2cecdf18f1f817b3a7047c751c68d9eed948ea9187a3e616cf3e0b54acad45e711bf35bd0ad6dbc32dff4d9e8d2fe137efabb354b5c30f589bed0be2b515d96eebab5447b2d8b2bd515646fb20215c83c6ba12d5466bfe8ae0485e13520664630905f2ee69110da35b16720e5f05cef137c295f4fa994f570583010d86266fadc2f62a4c1d159870bd34c383117b37aba5bdff6d51a39cb76c77aa23ba82790263e533e239383df49315f11aba748cce6a92dd4e76d660a4d3a40d9a2182f30597c9487619aac18cc29509add13c31ea87bd47e4775a665dbda06113dc6b851e4123788d50c1db3fe567a01131fa829f0bbd577057de45ad8c701b38b031da3454f8a101655a1963e5ed0295bdbd27a6896a6d9325d83b452951f5c152bd361e86b777588c4d88b134389c7f3769cd2d509120fdc526cabd7f1307ef1a3e2caa1810cd3ff29e8505bb8eef7497c8b3686dc41ae1ac2324af87536df2ca50cb2ff8851a757cf90bf9f2a470d95b124df86d562e70b4be759cccfdb44b70670b351b528523d287a587ed85f76ed41602028c3f19fc0e7b4de4079a7e45980d7c55486b13e877f52f829be4784ebfd4ce32f2f6b502600129cc44c6923395f84caf92006243a1d52e1db5e033723b0622c7b31cbeddcc6be9c9690a7783024a8916787add90817f90354aa440855bde25f086354301e7b03c69edcc15970a0cf5fc973ecd02b4fd069a6854fd9ac011633097adcf92d31812e3ce03efed672ffeaf04f22fd8460fdf8a84b4ede228234ed80521dfc67d15294dac80fcfd1bd575419c322674639825b48d6c2f943e50bc752055d5afd9a25bde65117d1920b66619f77031ace267d6cb4f534798bcafe8b4124d0c745e43e48a431c7f5ba7f597314aed6b8b11c4cb42e1663f19cf6e798b0e9dfcb45bf31a3991aecfe4b5bc41e3d9ca4f9ca37ddd0df1159131ab8c3a4b66e41462c85a17a014bfe1c694b5f81b4ababf2ea4d3e5d78ff5bce2a1cd28063729dd159be86ce7c0e9d08e281ea7bbc6ab5e0e5256434c70f76c1b6658ec78f8aa0e6ec8d42f44e3cf8d720db718a61a78bd6c000000",
  "txid": "b0e9d1f3858b7032ae561da702e7762ebdd3dfc59f5b12870adf72e11c3e5f4b",
  "hash": "0cfbc681205fbff3e726bace887ef59dd1a65ef10d9cbaf4d5cc05bc142bdff2",
  "size": 5085,
  "vsize": 2278,
  "version": 1,
  "locktime": 108,
  "vin": [
    {
      "txid": "1d34073ed79bbd8ebcea973748753274e8808a534c1c5f482f6d7b724be31317",
      "vout": 1,
      "scriptSig": {
        "asm": "",
        "hex": ""
      },
      "txinwitness": [
        "a1b23f87ddcccf73cbf7b1c0b0b69fb168910cfc01b68152c5d6720be0da4784670870ec22b27b31c147048a5537f7c3ca374c51b1b20bc1324d2688f9180b8a459f936f4d81f4f09f6d8f54056c49e3aa5ac790b035fdeb0c3bcf7e33725bf6c1db602a084e5cd8a045e9dc78e89876df23fbab76b7bf7f0c7a7b99ab34d906692bb258aafc1dad23d33377532b070f2c85be0dd7a62bef0b68e4f329eacf0312629f21c700cb783cb0ed38bde7374e64877747e1d112a6dcf6962810dd7c0e48101589e2e4cdfead780a21585cbfe5718b5a3d8b071860d5132c54db72d184acf6b4efaadf6e5d25af12f46daefa81d165164ac4ea10f24e33c29aca5137e07d7e4e3ef9c75b14a0e8de325e347e2532cc05884a8fa21f9517a3d526e50c2ff8742e0952ad17733e118692fa39ce90fea24200076d402afeb0bc79cb0612e54b092700e7211455c47d935d69ae334996a49b27ffca7dc54e7d489d9923748c382467632582fa6f9f5d1fab447c58356608d5a532d929b9f12e82fb2a2607f5049e9dd5685ff91b36ab055e4389224daa8682a4179a68c07da3d107493be6acbeb6c84e22b243c55c73089b8dbe791ad41f7b8ac94807006eb9b0c599e42614433dc9688e69aa38bb1839ed8059575219bab65bb0680bad8074a77bbc4f6d93a686a01bc10eb9fa96a05828de51e9c423e3e7ca6a0ac50529f2e2f2568f4c6b056486000ac102890630d153ce32b6bcd22da2e7742f65246205501821b2422fd302d3fa9975f06ee244ca972682aeef1ef0b9f1435165112eb9bbe138099bdb0c1bfefc9fce7c036867df013c70bb3148f6a772370c1c0bbaa0832ef0b9b3864158b0d1548e6c2eeca50d08a6890828ff19db09976b135ae5e9b9f2fa055fb7978c6ad44584ba71e7352b6e02f008bab72e3e8aaea86b0ecdd2377e255f3fccbd99d3b2a80d9156d52cdf07adcbb03919cb2b750dec9307fbea3c5784accbfa3db421dca5452945ccf2a1043136557bb395f653485b365480bd67efcbc77cb9f6cafa706f7fd8238ac25651c2f5cacaafe3c3b6522b2fa8b0f548b29e60994e490388db4e694208a92e6daacac1eae852fedf4089daf64999d72ea85703426312856c170cfe4a0c1208bae2163e8b3be46d664c5a1ea79dac10c2e0dcc9ca68efece1427bab88ff4886264425de1722d52b63956674100d71d141275eaf0c70cb744bb7b94a5e67dad08d24b5f30e0a54800c401ecdc464fe8b0f07815197365538816cc6d6b14d5ca45ba2cbf25d21625138d11074677b1f3b08fe4930cf6f8d173d2f2bdce0e1c4247dbce960d60a0ffb5e21dad5281e0414bb0fd1293ecde7ebb19f9fbeb1d9a1f481a23ecfdb9f5963e2ecc9e252b40ac2ba23f4a645542b3da72f3f66cec8823e0345beb4c87d15b2d2126aaf009410b5592b381f2c6c128ad8564a38087a0b44b4d1900c66f75b294ba7c16fec4cb438e04bd571210fb586e6b4d573b51f0ecb3b760b5ef1568d1b6ac1a649291aae2cee74bd40306b917988ce1fcf05e5b8ccad739fc659238d52a68a95648c57e2f7850a15c392f59aab96f9de837cd2149ed65fd73e9e02835c7148681423f10dcfcb12053832b96456172c72fc2b69823ce7f7cb1a5ad0ddf907c7b14bb3297b9eefb263ee40ec67627796a79961722690f5d816d90c5892e4c0bbad1ef1aa5074e16fbde89287d2139e742a2247ba54fa8c58f97e77dbc965da03d04d46866740c0fb2fc737c34f8d61cc54a2737acc1395f6e169f2c7eb2acceb9274139211244d1fb0ee9e74820139cda56f7ba549db41ad8771ea8d27acd6c09366d5f6c278ad2d3e757ad4c37a2b755b63e1db7c69c793308045c33be2cf9cf44af44229131bc6718d71c3397807961f27f058ee2a07b36aeaff213d8f7c23f160b599f4cc972cfcd73b295ccfd701f9285f18ec201dc2ec6b949b65b9390c583a08b458b2b25bfc733a2a02bc626da804a68ece5012bd5cb2ad77394c41dbf9123ba182804a871fe2408e8f8e318ea30d9fecf2906e67a6043148745532bb82a589f82d7aab9e7c74828fcf026305354577890dd47568f3fee362e8c1aedee10cf7ffb0afdafade0cae2b72ea0d658b172db2b5e2bfe809a4e5dc16b46262fae44312c4c9a85ac6d871b14313d75c79a488e4324d63469d72c2566d2fe537279d30635de63ff57f1ce72b8f21018e830f64245b5d3483e19bccbe09584720460668b959db5b551f22e4c33c8e2be7a29da0b619b05c4e6b57d72cad4c14ac26993241105d6f9e503112523a2e48e44226807a888dc81f0a54b560682c648318b70e012dd9c78ac92c3b1e2ac1d1ce30578bfab4113b067fbae828ec94b8b67bf81a7eebc0ce7c291e33fa08d4dfe730f5a66915f315f66571b6522689c61054f468bba58994f506d34fe08c7b3048013d723f91d979f040196f025b6a5c89ff4fbc522d79e2566c2beb5205a5c36d1b0c63a73f10d361a1d6447e70bf55858d6c2e34a89043c21819a128775be8b255ceb13a54aedfdcc0a0d0d4fd0ef292f41829551fd602c6d9d7b140379ae5d9690229150690f6a275cd72b6a284c190303eb2db00c5a9ef297729249ca0b33085477e57794c1dea710d00ffa70d6d502bdd4d3fb8d71b3c7b48e08ef4b2db9066bd8fd3ad399e6836d301168b7d825910f929904f925d7de9fe8b9b0c732887879eca9358604b4acf1e6aba6bdb0226a7360291148a8ab0c75ca5ed5895bd2a4e463c61adf85cd9c8f2a66ca29896ce63b27c4bf8f0983c3327e5de1e249507bb04f8bd39de225c9a656b94aef87c4b7d17ea923161fa8564378caf70e6d0d38d17018870721ab7f04a57e89cac0c7c8f164f0fafbf2319e18f64e4f00b4666a5acfae89689a547f9048ce7535cbfaf0f79d547204e0089c7efc398f6b6f354d1c95059a470d4f2331a4292eed45761abb6025d41caa1e8500936c499f7e2f23c569c1ff0f384a25e3db8de7c90eaa078ee94c75cfd267359126a01037d42408a9866571b2649fad833fad56b5b43e07572987f0cc7f7b1a7077b35c2ad318f05be61d937e9ecc05a889db1ceafa0f3e4ec24a315ce5bd64ac35bee860c0db1f44a969eca566e9bf42d75d7c836d7fcdca1634f916b88257bd9f40959cc4bf34d1c50084deb6d6b1c1a72899ff9485687862f8743cf894f3e402242a2c3f6f432e93d6a8f260dc67dcf6fd27addc4d9122192b18e004b9f08c4e9b9134a74767341c27fb4c93ebbd1fbf440c096c6863b937b71b21bcc1de6b921b40a2337385764747576c1c9d4dde7191c212e63707f81848e96aeb4bbcdd0d6e5e9eef4f7f912202432565e77818d939dafb0b5d1dc0203252d2e2f38445a5d637c939cbec7cad1dbdde9eb00000000000e25354b01",
        "00ac66e4d614a38f91abc40f127b04bd6b296dc507b22ae17b9fc95137cbd318baa9a0693c73a689e7d37931279dd2bba2a85bfb51f6e7ce0ab8b21d8e4838e2145bea0db1009ca00069ddd8e02bed2e48d5245370a34dd8347fa226ec016069db087c7ca2115686d4dd3971e5ce41dca05b87bd4ef41c1476e8aa12e0416c03f198d9e5b78ae8de5fbe48071e071ac44015e4317b63050d95cff75dff345c8ad183d1332048217a5f8d0f5409114294801172d508cdfba811206f16571998b8b424d4af6c4fa80009ac45a21676b900052394b4d8b13bcf961d76fdfb37905e13970ed7261980e795ad24f5ecfbfeafaa9d4de81b6d15f376e38a3f7bad2d5d1395bf94180adabf2d1a6598f1f89344e3aee04f6eb0226c15f0693869d3b601b514fc0552578fe40851fa0fe0cfe7e3e5396ff00c181d393e4d3d212acbb7d5b8b7e990ea31341886ba723714f006bdaf5ed89cb088420b7926dceae499a23303958ac27d46288069888ef71931be42616bc13f9ed73f1f223de68f71f8efa87b5b2521619aff63287e80e95f412e4fe361e81ba396b14f23852a71e0da558df93b5d35c9695e888714ca9e23e6f6b5bb22af809f5e76250885cb9ef48ee101353dad9613799f6acead7be541d4c6ed2848f5300d0e69cdee8cf07b003ba33422ce04906cc27f3ab9998fb6c8b59b489ca1b6334d298651742b0e0164ee07686c6c6a9a5aa94b5f39da2140bb6718d8fbce71595642e992529f31f1ceee2cecdf18f1f817b3a7047c751c68d9eed948ea9187a3e616cf3e0b54acad45e711bf35bd0ad6dbc32dff4d9e8d2fe137efabb354b5c30f589bed0be2b515d96eebab5447b2d8b2bd515646fb20215c83c6ba12d5466bfe8ae0485e13520664630905f2ee69110da35b16720e5f05cef137c295f4fa994f570583010d86266fadc2f62a4c1d159870bd34c383117b37aba5bdff6d51a39cb76c77aa23ba82790263e533e239383df49315f11aba748cce6a92dd4e76d660a4d3a40d9a2182f30597c9487619aac18cc29509add13c31ea87bd47e4775a665dbda06113dc6b851e4123788d50c1db3fe567a01131fa829f0bbd577057de45ad8c701b38b031da3454f8a101655a1963e5ed0295bdbd27a6896a6d9325d83b452951f5c152bd361e86b777588c4d88b134389c7f3769cd2d509120fdc526cabd7f1307ef1a3e2caa1810cd3ff29e8505bb8eef7497c8b3686dc41ae1ac2324af87536df2ca50cb2ff8851a757cf90bf9f2a470d95b124df86d562e70b4be759cccfdb44b70670b351b528523d287a587ed85f76ed41602028c3f19fc0e7b4de4079a7e45980d7c55486b13e877f52f829be4784ebfd4ce32f2f6b502600129cc44c6923395f84caf92006243a1d52e1db5e033723b0622c7b31cbeddcc6be9c9690a7783024a8916787add90817f90354aa440855bde25f086354301e7b03c69edcc15970a0cf5fc973ecd02b4fd069a6854fd9ac011633097adcf92d31812e3ce03efed672ffeaf04f22fd8460fdf8a84b4ede228234ed80521dfc67d15294dac80fcfd1bd575419c322674639825b48d6c2f943e50bc752055d5afd9a25bde65117d1920b66619f77031ace267d6cb4f534798bcafe8b4124d0c745e43e48a431c7f5ba7f597314aed6b8b11c4cb42e1663f19cf6e798b0e9dfcb45bf31a3991aecfe4b5bc41e3d9ca4f9ca37ddd0df1159131ab8c3a4b66e41462c85a17a014bfe1c694b5f81b4ababf2ea4d3e5d78ff5bce2a1cd28063729dd159be86ce7c0e9d08e281ea7bbc6ab5e0e5256434c70f76c1b6658ec78f8aa0e6ec8d42f44e3cf8d720db718a61a78bd"
      ],
      "sequence": 4294967294
    }
  ],
  "vout": [
    {
      "value": 499991.8648,
      "n": 0,
      "scriptPubKey": {
        "asm": "1 9f80573950dedf9c72c9cb424befad0e84aa55966a12a4581e90b94762944a01",
        "hex": "51209f80573950dedf9c72c9cb424befad0e84aa55966a12a4581e90b94762944a01",
        "reqSigs": 1,
        "type": "witness_v1_scripthash",
        "addresses": [
          "3QJmnh"
        ]
      }
    },
    {
      "value": 1.0,
      "n": 1,
      "scriptPubKey": {
        "asm": "OP_RETURN 2851d5624df8d707ba6c9239ad14cbc99ec4a4d99f22622dcecf9f25040270b6 cc330aab616f3ae3557e2109f3d41a6a8cb8182ca41d3c0d09af541d484d6b0eec132a8b414f1ac3755e0129d3f43a4aac98380c843d1c2d298f743d686d4b2e8c734aeb212f7aa3153e6149b3945a2accf8586ce45d7c4d49ef145d080d2b4eac536acb010f5a83351e416993b47a0aecd8784cc47d5c6d69cf347d282d0b6e4cb38a2be1efba63d5fea18973549aea0c3898ac249dbc8d892fd49dc8cdeb8e6c93aa0bc1cf9a43f5de81a95374baca2c18b88c04bd9cada90ff4bde8edcbae0cf3ca6ba1affa2395bee1c93314daaa4c78d8ec64ddfccdc96f94dd888dabce2cd3ea4b818fda03b59ec1e91334fa8a6c58f8cc44fddcede94fb4fda8ad8beecc330aab616f3ae3557e2109f3d41a6a8cb8182ca41d3c0d09af541d484d6b0eec132a8b414f1ac3755e0129d3f43a4aac98380c843d1c2d298f743d686d4b2e8c734aeb212f7aa3153e6149b3945a2accf8586ce45d7c4d49ef145d080d2b4eac536acb010f5a83351e416993b47a0aecd8784cc47d5c6d69cf347d282d0b6e4cb38a2be1efba63d5fea18973549aea0c3898ac249dbc8d892fd49dc8cdeb8e6c93aa0bc1cf9a43f5de81a95374baca2c18b88c04bd9cada90ff4bde8edcbae0cf3ca6ba1affa2395bee1c93314daaa4c78d8ec64ddfccdc96f94dd888dabce2cd3ea4b818fda03b59ec1e91334fa8a6c58f8cc44fddcede94fb4fda8ad8beecc330aab616f3ae3557e2109f3d41a6a8cb8182ca41d3c0d09af541d484d6b0eec132a8b414f1ac3755e0129d3f43a4aac98380c843d1c2d298f743d686d4b2e8c734aeb212f7aa3153e6149b3945a2accf8586ce45d7c4d49ef145d080d2b4eac536acb010f5a83351e416993b47a0aecd8784cc47d5c6d69cf347d282d0b6e4cb38a2be1efba63d5fea18973549aea0c3898ac249dbc8d892fd49dc8cdeb8e6c93aa0bc1cf9a43f5de81a95374baca2c18b88c04bd9cada90ff4bde8edcbae0cf3ca6ba1affa2395bee1c93314daaa4c78d8ec64ddfccdc96f94dd888dabce2cd3ea4b818fda03b59ec1e91334fa8a6c58f8cc44fddcede94fb4fda8ad8beecc330aab616f3ae3557e2109f3d41a6a8cb8182ca41d3c0d09af541d484d6b0eec132a8b414f1ac3755e0129d3f43a4aac98380c843d1c2d298f743d686d4b2e8c734aeb212f7aa3153e6149b3945a2accf8586ce45d7c4d49ef145d080d2b4eac536acb010f5a83351e416993b47a0aecd8784cc47d5c6d69cf347d282d0b6e4cb38a2be1efba63d5fea18973549aea0c3898ac249dbc8d892fd49dc8cdeb8e6c93aa0bc1cf9a43f5de81a95374baca2c18b88c04bd9cada90ff4bde8edcbae0cf3ca6ba1affa2395bee1c93314daaa4c78d8ec64ddfccdc96f94dd888dabce2cd3ea4b818fda03b59ec1e91334fa8a6c58f8cc44fddcede94fb4fda8ad8beecc330aab616f3ae3557e2109f3d41a6a8cb8182ca41d3c0d09af541d484d6b0eec132a8b414f1ac3755e0129d3f43a4aac98380c843d1c2d298f743d686d4b2e8c734aeb212f7aa3153e6149b3945a2accf8586ce45d7c4d49ef145d080d2b4eac536acb010f5a83351e416993b47a0aecd8784cc47d5c6d69cf347d282d0b6e4cb38a2be1efba63d5fea18973549aea618d6162f370a8dfb31bfc3c4822b0b0f97f399230bd2b8f322721ab3d61fd78",
        "hex": "6a202851d5624df8d707ba6c9239ad14cbc99ec4a4d99f22622dcecf9f25040270b64db004cc330aab616f3ae3557e2109f3d41a6a8cb8182ca41d3c0d09af541d484d6b0eec132a8b414f1ac3755e0129d3f43a4aac98380c843d1c2d298f743d686d4b2e8c734aeb212f7aa3153e6149b3945a2accf8586ce45d7c4d49ef145d080d2b4eac536acb010f5a83351e416993b47a0aecd8784cc47d5c6d69cf347d282d0b6e4cb38a2be1efba63d5fea18973549aea0c3898ac249dbc8d892fd49dc8cdeb8e6c93aa0bc1cf9a43f5de81a95374baca2c18b88c04bd9cada90ff4bde8edcbae0cf3ca6ba1affa2395bee1c93314daaa4c78d8ec64ddfccdc96f94dd888dabce2cd3ea4b818fda03b59ec1e91334fa8a6c58f8cc44fddcede94fb4fda8ad8beecc330aab616f3ae3557e2109f3d41a6a8cb8182ca41d3c0d09af541d484d6b0eec132a8b414f1ac3755e0129d3f43a4aac98380c843d1c2d298f743d686d4b2e8c734aeb212f7aa3153e6149b3945a2accf8586ce45d7c4d49ef145d080d2b4eac536acb010f5a83351e416993b47a0aecd8784cc47d5c6d69cf347d282d0b6e4cb38a2be1efba63d5fea18973549aea0c3898ac249dbc8d892fd49dc8cdeb8e6c93aa0bc1cf9a43f5de81a95374baca2c18b88c04bd9cada90ff4bde8edcbae0cf3ca6ba1affa2395bee1c93314daaa4c78d8ec64ddfccdc96f94dd888dabce2cd3ea4b818fda03b59ec1e91334fa8a6c58f8cc44fddcede94fb4fda8ad8beecc330aab616f3ae3557e2109f3d41a6a8cb8182ca41d3c0d09af541d484d6b0eec132a8b414f1ac3755e0129d3f43a4aac98380c843d1c2d298f743d686d4b2e8c734aeb212f7aa3153e6149b3945a2accf8586ce45d7c4d49ef145d080d2b4eac536acb010f5a83351e416993b47a0aecd8784cc47d5c6d69cf347d282d0b6e4cb38a2be1efba63d5fea18973549aea0c3898ac249dbc8d892fd49dc8cdeb8e6c93aa0bc1cf9a43f5de81a95374baca2c18b88c04bd9cada90ff4bde8edcbae0cf3ca6ba1affa2395bee1c93314daaa4c78d8ec64ddfccdc96f94dd888dabce2cd3ea4b818fda03b59ec1e91334fa8a6c58f8cc44fddcede94fb4fda8ad8beecc330aab616f3ae3557e2109f3d41a6a8cb8182ca41d3c0d09af541d484d6b0eec132a8b414f1ac3755e0129d3f43a4aac98380c843d1c2d298f743d686d4b2e8c734aeb212f7aa3153e6149b3945a2accf8586ce45d7c4d49ef145d080d2b4eac536acb010f5a83351e416993b47a0aecd8784cc47d5c6d69cf347d282d0b6e4cb38a2be1efba63d5fea18973549aea0c3898ac249dbc8d892fd49dc8cdeb8e6c93aa0bc1cf9a43f5de81a95374baca2c18b88c04bd9cada90ff4bde8edcbae0cf3ca6ba1affa2395bee1c93314daaa4c78d8ec64ddfccdc96f94dd888dabce2cd3ea4b818fda03b59ec1e91334fa8a6c58f8cc44fddcede94fb4fda8ad8beecc330aab616f3ae3557e2109f3d41a6a8cb8182ca41d3c0d09af541d484d6b0eec132a8b414f1ac3755e0129d3f43a4aac98380c843d1c2d298f743d686d4b2e8c734aeb212f7aa3153e6149b3945a2accf8586ce45d7c4d49ef145d080d2b4eac536acb010f5a83351e416993b47a0aecd8784cc47d5c6d69cf347d282d0b6e4cb38a2be1efba63d5fea18973549aea618d6162f370a8dfb31bfc3c4822b0b0f97f399230bd2b8f322721ab3d61fd78",
        "type": "nulldata"
      }
    }
  ],
  "blockhash": "fed18006ccdab590a9e00afae0c126c0756e5b686d02c0375b028c4c6af5cb31",
  "confirmations": 1,
  "time": 1764177489,
  "blocktime": 1764177489
}