{
  "hex": "01000000000101cf579ed34398fdac865090a1082de2d1468b9d273391e27ecc79d2406e499fc50000000000feffffff028022c5f6782d000022512073d1486056f9acbb1887fbf6fda36319628e278c9639c3fa0be54d2c51902b4300e1f50500000000fdd5046a200652a052687a1b2d4a7b26a18d39e091567fcf213f16fe0892966d5127be37434db0046e73830d9f952f31753eaaa653ae9e57302f122eb6f26f97d177ab31353e144f4e53a32dbfb50f11551e8a86738ebe77100f320e96d24fb7f1578b11151e346f2e33c34ddfd56f71357eeae613eede17706f526ef6b22fd79137eb71757e540f0e13e36dfff54f51155ecac633cefe37504f724ed6920ff7b117cb51555e742feef3038d1f15afb1f5be2a26d32e1ed7b0af92ae3672ef1751f72bb1b5be94cfced323ad3f358f91d59e0a06f30e3ef7908fb28e1652cf3771d70b91959eb4efaeb343cd5f55eff1b5fe6a66936e5e97f0efd2ee7632af5711b76bf1f5fed48f8e9363ed7f75cfd195de4a46b34e7eb7d0cff2ce56128f7731974bd1d5def4af6e73830d9f952f31753eaaa653ae9e57302f122eb6f26f97d177ab31353e144f4e53a32dbfb50f11551e8a86738ebe77100f320e96d24fb7f1578b11151e346f2e33c34ddfd56f71357eeae613eede17706f526ef6b22fd79137eb71757e540f0e13e36dfff54f51155ecac633cefe37504f724ed6920ff7b117cb51555e742feef3038d1f15afb1f5be2a26d32e1ed7b0af92ae3672ef1751f72bb1b5be94cfced323ad3f358f91d59e0a06f30e3ef7908fb28e1652cf3771d70b91959eb4efaeb343cd5f55eff1b5fe6a66936e5e97f0efd2ee7632af5711b76bf1f5fed48f8e9363ed7f75cfd195de4a46b34e7eb7d0cff2ce56128f7731974bd1d5def4af6e73830d9f952f31753eaaa653ae9e57302f122eb6f26f97d177ab31353e144f4e53a32dbfb50f11551e8a86738ebe77100f320e96d24fb7f1578b11151e346f2e33c34ddfd56f71357eeae613eede17706f526ef6b22fd79137eb71757e540f0e13e36dfff54f51155ecac633cefe37504f724ed6920ff7b117cb51555e742feef3038d1f15afb1f5be2a26d32e1ed7b0af92ae3672ef1751f72bb1b5be94cfced323ad3f358f91d59e0a06f30e3ef7908fb28e1652cf3771d70b91959eb4efaeb343cd5f55eff1b5fe6a66936e5e97f0efd2ee7632af5711b76bf1f5fed48f8e9363ed7f75cfd195de4a46b34e7eb7d0cff2ce56128f7731974bd1d5def4af6e73830d9f952f31753eaaa653ae9e57302f122eb6f26f97d177ab31353e144f4e53a32dbfb50f11551e8a86738ebe77100f320e96d24fb7f1578b11151e346f2e33c34ddfd56f71357eeae613eede17706f526ef6b22fd79137eb71757e540f0e13e36dfff54f51155ecac633cefe37504f724ed6920ff7b117cb51555e742feef3038d1f15afb1f5be2a26d32e1ed7b0af92ae3672ef1751f72bb1b5be94cfced323ad3f358f91d59e0a06f30e3ef7908fb28e1652cf3771d70b91959eb4efaeb343cd5f55eff1b5fe6a66936e5e97f0efd2ee7632af5711b76bf1f5fed48f8e9363ed7f75cfd195de4a46b34e7eb7d0cff2ce56128f7731974bd1d5def4af6e73830d9f952f31753eaaa653ae9e57302f122eb6f26f97d177ab31353e144f4e53a32dbfb50f11551e8a86738ebe77100f320e96d24fb7f1578b11151e346f2e33c34ddfd56f71357eeae613eede17706f526ef6b22fd79137eb71757e540f0e13e36dfff54f51155ecac633cefe37504f724ed6920ff7b117cb51555e742feef3038d1f15afb1f5be2a26d32e1ed7d0e50ae682edaf9abf274595259026c685fae48c2ea7b5c17e13720335e93f2902fd75096da4789eaa80ab614fca6cafecce841e2eed634cfde4074398b5d8cb7db7496d499f85d68b0b37b0abf57b4d5dbbf255f9eea7833c7172da63da6ddc9fc0c643915b6c2b6c1a7d11a56ea151bb156f5e22260853bfa414e34df652d64dff6e653ba57e1d0c881db957b917519116f4232f16835784e8e267674f96fb97abb9d3d753b25637c751c724ada39c7bc034b00ecd647688be9eb710d74eccdf39669db46a245edecde6f014f35807f0233f892d51bf2894415942de2c9845e6fe3a53ed4e31d7c7ae53098f67a7a2a915d144ebea72e8759b3329cc994a31b1b8c9bec9890248d9c543f4cd5465c0cc2bab0600d392063ca1fb37b30c102477e2632736e8868bb032e6ed286e498f9cd5ad2043243d63d5d8b412858480ce842822862e0527dfc70f14c6648f12e02d1c20d6ecb98ea128ab1891ca0df6fdee116e11e7c255187618702503b074f492792211ba0b4e03de9c3a21a40b69166dff29541a137dd85f42e0ad1a6e38d51450624906c9cf24d5921eda76f5b6e166a2e7e115251bebe50f593ec248929843f4f2124ff8afd1b8cf8ea9a736e85030e5ac56ee093d00a789cddc65e17b012e7e1be3976e95e35e263e4a270db9d61110b980dd36b0f290685d1a719827f4213de41850b9a9000497400d68afe363e393e15479802858cb6e6ef61fa2af0add468fd6a2d9a73c014d6b19f7624066f12dba022d87626a4c14bbc1e803fd499ab28829eeebd050f879de17dd9f6b5bfc343d5bf244836d6e38fe07dc489dc67ae98b49d0d500ac12874748ef3249593f4493ba9be6e3514614550b36154d642479a940896561a5088bdd6085f3415753020f103fef9a9106891156a0eb7f0d3cc2161a73e95f1403e8fb62d599429f8bc586f32998a48b386be8b7dc0cf534a66ad37197f49df7932b5eba99f473c871cff95dcfc47bc59b6e7bd4d4c00ca5c611d3698bcf974f299c918fc07b0af43a18e4d356ca95592c86579413efb473c430cbb304d8a009a26fa828f41e8cb638cafbf2d32234c70ab506dc487b08d9ab557520736db34d017eccdfe8dc9ef54cdf52822d0f1939dc3f254e1e2e78127d309221ad341b0c8606fbf8ee71929a09e1b2d904b3bae82bfa67884b2d95f9ce055179e6a4fb34b312a4649c9c43357d032852e93de9ab9e299988f7a72fb05f2e5f9e523177b82b526b4131efff9e2c3cce9cac2a885b5657f395d4a26454ba6b7c9495c26800e28c5b355a3ebe79a9406bf009877b2c1357a617301ecceb47d41c62bc621ad7b0ea72662ce3887690e4fc9156ac2daa9f8284f7957ea96b5393be6701e758b6a355532f7da555400b8df1c78ed3fe6da3246fb095bb9faa401086be704a0cbde27ef8c74a23513d9affb4d5b6fd9e8371e9b4441db1473ad57fb6c6cca982ddc2b34b9e7fe3016f058f070fa5f966005a5d7b234fe07fbcbba950b37cec3ee4d2acf0b731976b963dc7073240f6ca12b905fe4b5c79c76b4802b720e9e8596c77188ca5b151625938419efe7a820f95546511d46072c202bd449925422b00a38bf6f78d841bf7837da4f59fa025e12b2111651697ed517cc87fcca86ddf7575985e6e2a1ab70d2f39aef32456dfc5eaad0f2260a14374ac223c25994bb0c11637b3298c742e48795eb095ccba86f89e2bd4a177b274e6a823159f5ad7e07206169a1ef935eb50c10519c215af92f89eba78de0e55e603af837e4b53e33c8f08d344a9530019d7b24ac01c1fc468bcc8f1fc26b8e10939fd5d0a53fc91c1dc1e19fd94665d3211281663ad7c992dd390c9f4a0289fafa1f62715b6d60cf71ed133da7d73d7c17acf8f5befe85990c6c148ef72e3c0b5fe5e5444745de62467f691e8b616bcf7dee712024d9d788d4a2693134df8982d063eedffe6e3ddd259228e2161bf3553db4de0f100ffae1492bd78e48deb522a14167b6ffd0e81f4001969eb318cdeb2d138bdb3a60f46ac2f6075ab57e8e434d5de69fd14efedc37ce17480e01974d80f3025ccbf7568d0516b0d023146c8f3d3d6e1ea72c179e2d1077d267ab51f857af5441b0a3504f4814fadfdb760c57276737db633dab46098e07d1c8c63606ba303137b9f55afe678df1b6cbe34ec303c20e2873350df0b2191f9a7a19b8a36b6021712f9a42346048d362bc848d62c375d352f6e1413bdc54e1162502d60d4088596b0c00739c3eaa29b4b39aa8686da365e488de9e42aac03a05acd4a244773d52bf08a750d4dbeefa592dbe8ac35ac91a4d7570fd8c5d11ed597457ed890088f1bf2c16daf7729014568edfe501f6de735209cb5b362bb48d75b9a589ef86397fb746f44b8338d5422681cf45423f7cbde671cb26bea1e3ee251a3540eed836dd368ac978374d8fc49e83261c59f67173cda7ec876e8c40da7894f6bb79c007273795a5190f1b49a579e50ba661d96428b30ed079795a5e33799c3b0d9e266c6b336ecda29aafe4c16ef0c748eeb7b4acc74af823f776ff7c69133a145136afb1fa5dcf5b4c1a229a882bbda1057d1047e628357e6e988e9b0fec750ffe18e8336249d86fd59c478e4173fbd544ea4f22a61a8ef3b09336e1da0e3707bb3c99b4d76eded381f62c7bf1a7d4014411c40af4b0386c52f6b8c9366efdc8967bb460888454ad96084ff1dab9c64554637c90553fbf355568e79f9d9efe868787c477271e3ed353feb036b2d50b54997457bd9c0e11174aa1c1cdd7f68195d94d9d6c4ab045d93c0b1db455b021d1cd8bc488955f8f6ded950769206af525cba92136103ca4adf3abce121cdfd9e04aa395e670b6480404fce288eb8bb31a55867ebf6380db7af7ee5aea1a5dc569f27062cee5e5d9ba44c3603b158f3b13c31403e0828db8bcf3b7ca3cf1dfae37b6c516c59db2c07e0df8c224ef50a05588e6c8490ace118218b87f8f070684c610f60253faa3aff5241b052fb5c4d24ab7c557e1e78d80c376fd71fd49057dd2b2929bd9cd08cb95aef9f05396ec7725e8c751626b0679b9419de48af68206fd4ce82eb2cccba902a21697ade74ecab8b1e6352a0d2a0ae685f36ee2dd813b08207a53d9b3e5856ada8b2866010f9e29c78c5eff71ec2041893435bd1dcff30e37c7733dc6cfa529efde3719190c740f816e957416b51ea0b40924c0cd18c86527e43ebeed28b208e6e1c89486f535f1528572a0c0de8e4c20f6fb73ce773639fe66697661f3933a3d3d69f5c9fc8d52ff82b5a230e0300a62e6b6acff88aa922546ca2858f8295ac1e1e91eb72bc3021d59f8f73433787010e2f42456f899fb8d3e0e6113b474a585b62717e7f80a2a6a8aab0b3b4cdcecfd4dae2f2f6fbfc021a1d2a575a5c6165667c84929a9ca3adc4d5e0e5eaf4020910233d45474955569798a3c8d1d4f30c283f5001fd21050057b9d537883a8e38338e4f1cfcef3b94ed28b4415e256be15cc3977ff2c749f1c5b8e02e0c7e7434984d6391c3d67625cd90c7ba579dcceebb9f1372cd8b277fd789191dfc2dd0f725945ff6e46aa8025e7500182521a917e80005915b13bc334b36a61ba7daeea80043992d0b35e71e07ec1c76f50045ac9bf3e0d1cad0807f1f25c05ec31fcdbe0dc3a1a9c63cf91d95b50e83060e5226b5a79c3bd0b95a9e15a92d1bd15130944e99348ce9965e6235287c0804fbe7b9a88b174d540a84d99996519ab229ee5c508d71b244b1be474ad95899f4caa0e2d61560c35865240f5e1b922c6b009b5389709f3542f57550d8f647b737a80d470bbe405499560167069640ae2536ab7cc2f065cbbff4b35dfd4e2f0bd20c07729e877e894b5024901bf0e5d24f8746eac57b08f28bf07d088f54b71496907f721368fe41650a3bd1c68722212046f569e36970058060b0739dd02a86eefddd1be71ed067fbb091dbbce7571d7d8a8a3dd520f56f09992488cf67b1491003cf5a3744d5a207cb1f2ae76203ed5e8d6b1448fe396413b72de92985c0299aff0e29f56293d1e70d37cb9037f47e0a072995fdc574d8a4249c339fd36a65f790eee52d4ea819abeed6bb87e84dc466b03dc642d57b457dcf3fd008d59b5e08ff12d6fcaffa9d676cdfabb1ae7909974a8015db03916bf5c60906be7ec5765a3f447630a13364b195c68977b88a2f3a58da9184796af9fe3490985a0502a9f1eb7dceb1b7773b78c3d21b0ddea9a586b94deff38df4d991fd2d2fa3f9ce72a018233f9e2aa663d58bbe5b75c692aea733046d8d0037fe9012175a9f24d4ea34cbfebf79eed4e2a38d347538a5f3fc09d3a4ba7bb0072917faf19a3a38cde49f388fae0dc7d925f5368d3a653241dfc3d6f774c7bc841a1a41b0e484000159d0f5278158d68af225f9d9d9ed117f50889c094eac5dce10d698d8da5b6c3c976b136d61fe2fe7d1cf8eb2197e12fb71bb791b7aa9c7e775a1943120062b7cb85a6a0f0ee7d50cfc47d33116cc0f3dc555feb338733a10f188e67d9c767b9dae6e0e0cee2ff338cc0a284ac1c6066b22e2840b570c02b07d0be85ca5035cc41f284ca853822efa4769c31f73025d4b31b3409b1597556416ebe5fdf7a34ddc519718cd8e21a5fb84655df9d006f4f486b842c44cbc1e370a3370ae819f22db74a90489b3c1a7a7f841db6b3e005d6befae82f290da14bdba591c0a9f897a72924c83c82dd4219275fbcc3f11147754f910dddd115e06aed32f6d04b271ad88ec5cef50f5a41b557b16f7ee884097165c4ca4e94ef93d783bb27d0ad07304b17e3ddd0d3a9fb8848dae5ca3d31fc8d7e3af53441c3fe91a1b4bd0b0cce415d3c0a20bb3206325f2cdd0b05efca3edab5fefacda4c7c393b59b7aa11d3143d7aa9c97539a95c4bbf9aaf813a292f5621da34b7b7e23aecba54b1f7c67781cbd0180433af38aafdc4811eb0451e948e28edf4642c5d7a981906d0d89f369750a4125f5f9183fa21f076ce51409bd0f796a6aee2b4a0d46f0b71d275cec123ccccd8f4549a5945d7b8d27982efbbdcb546b038cf955a0385b1fba74a9c5206496a0697b6285cc61a1a561dc38b714106fc2bb0a896f1e3ede939e9a06114d24225b6d97c21a1722b2a032027c6304b25db9d06b0ba135e0db6a3e58c2fe1a23210db9c80e41393466c8e73ec3a876123fe92d48b2bbbb32acfd3c7db8bd40f82c4114b281fef53488954f16c9add161cad8dfa62e6a083eb428b4c3abbc99300da953bbad4ccc45b752fca2a9a18f43a9dfc58b98cedccbefc6b1484ed5af103639bf00abb28a7e553dbdc8284df7a000000",
  "txid": "bf5e854a115b14a5f017eeb2f8b81403b6c3dde9efe5bdf67e21086c7a2cdea6",
  "hash": "e357e71e1dc4f50ad5a3f1f6559979002b14830280266a39c455c17401b62339",
  "size": 5085,
  "vsize": 2278,
  "version": 1,
  "locktime": 122,
  "vin": [
    {
      "txid": "c59f496e40d279cc7ee29133279d8b46d1e22d08a1905086acfd9843d39e57cf",
      "vout": 0,
      "scriptSig": {
        "asm": "",
        "hex": ""
      },
      "txinwitness": [
        "6da4789eaa80ab614fca6cafecce841e2eed634cfde4074398b5d8cb7db7496d499f85d68b0b37b0abf57b4d5dbbf255f9eea7833c7172da63da6ddc9fc0c643915b6c2b6c1a7d11a56ea151bb156f5e22260853bfa414e34df652d64dff6e653ba57e1d0c881db957b917519116f4232f16835784e8e267674f96fb97abb9d3d753b25637c751c724ada39c7bc034b00ecd647688be9eb710d74eccdf39669db46a245edecde6f014f35807f0233f892d51bf2894415942de2c9845e6fe3a53ed4e31d7c7ae53098f67a7a2a915d144ebea72e8759b3329cc994a31b1b8c9bec9890248d9c543f4cd5465c0cc2bab0600d392063ca1fb37b30c102477e2632736e8868bb032e6ed286e498f9cd5ad2043243d63d5d8b412858480ce842822862e0527dfc70f14c6648f12e02d1c20d6ecb98ea128ab1891ca0df6fdee116e11e7c255187618702503b074f492792211ba0b4e03de9c3a21a40b69166dff29541a137dd85f42e0ad1a6e38d51450624906c9cf24d5921eda76f5b6e166a2e7e115251bebe50f593ec248929843f4f2124ff8afd1b8cf8ea9a736e85030e5ac56ee093d00a789cddc65e17b012e7e1be3976e95e35e263e4a270db9d61110b980dd36b0f290685d1a719827f4213de41850b9a9000497400d68afe363e393e15479802858cb6e6ef61fa2af0add468fd6a2d9a73c014d6b19f7624066f12dba022d87626a4c14bbc1e803fd499ab28829eeebd050f879de17dd9f6b5bfc343d5bf244836d6e38fe07dc489dc67ae98b49d0d500ac12874748ef3249593f4493ba9be6e3514614550b36154d642479a940896561a5088bdd6085f3415753020f103fef9a9106891156a0eb7f0d3cc2161a73e95f1403e8fb62d599429f8bc586f32998a48b386be8b7dc0cf534a66ad37197f49df7932b5eba99f473c871cff95dcfc47bc59b6e7bd4d4c00ca5c611d3698bcf974f299c918fc07b0af43a18e4d356ca95592c86579413efb473c430cbb304d8a009a26fa828f41e8cb638cafbf2d32234c70ab506dc487b08d9ab557520736db34d017eccdfe8dc9ef54cdf52822d0f1939dc3f254e1e2e78127d309221ad341b0c8606fbf8ee71929a09e1b2d904b3bae82bfa67884b2d95f9ce055179e6a4fb34b312a4649c9c43357d032852e93de9ab9e299988f7a72fb05f2e5f9e523177b82b526b4131efff9e2c3cce9cac2a885b5657f395d4a26454ba6b7c9495c26800e28c5b355a3ebe79a9406bf009877b2c1357a617301ecceb47d41c62bc621ad7b0ea72662ce3887690e4fc9156ac2daa9f8284f7957ea96b5393be6701e758b6a355532f7da555400b8df1c78ed3fe6da3246fb095bb9faa401086be704a0cbde27ef8c74a23513d9affb4d5b6fd9e8371e9b4441db1473ad57fb6c6cca982ddc2b34b9e7fe3016f058f070fa5f966005a5d7b234fe07fbcbba950b37cec3ee4d2acf0b731976b963dc7073240f6ca12b905fe4b5c79c76b4802b720e9e8596c77188ca5b151625938419efe7a820f95546511d46072c202bd449925422b00a38bf6f78d841bf7837da4f59fa025e12b2111651697ed517cc87fcca86ddf7575985e6e2a1ab70d2f39aef32456dfc5eaad0f2260a14374ac223c25994bb0c11637b3298c742e48795eb095ccba86f89e2bd4a177b274e6a823159f5ad7e07206169a1ef935eb50c10519c215af92f89eba78de0e55e603af837e4b53e33c8f08d344a9530019d7b24ac01c1fc468bcc8f1fc26b8e10939fd5d0a53fc91c1dc1e19fd94665d3211281663ad7c992dd390c9f4a0289fafa1f62715b6d60cf71ed133da7d73d7c17acf8f5befe85990c6c148ef72e3c0b5fe5e5444745de62467f691e8b616bcf7dee712024d9d788d4a2693134df8982d063eedffe6e3ddd259228e2161bf3553db4de0f100ffae1492bd78e48deb522a14167b6ffd0e81f4001969eb318cdeb2d138bdb3a60f46ac2f6075ab57e8e434d5de69fd14efedc37ce17480e01974d80f3025ccbf7568d0516b0d023146c8f3d3d6e1ea72c179e2d1077d267ab51f857af5441b0a3504f4814fadfdb760c57276737db633dab46098e07d1c8c63606ba303137b9f55afe678df1b6cbe34ec303c20e2873350df0b2191f9a7a19b8a36b6021712f9a42346048d362bc848d62c375d352f6e1413bdc54e1162502d60d4088596b0c00739c3eaa29b4b39aa8686da365e488de9e42aac03a05acd4a244773d52bf08a750d4dbeefa592dbe8ac35ac91a4d7570fd8c5d11ed597457ed890088f1bf2c16daf7729014568edfe501f6de735209cb5b362bb48d75b9a589ef86397fb746f44b8338d5422681cf45423f7cbde671cb26bea1e3ee251a3540eed836dd368ac978374d8fc49e83261c59f67173cda7ec876e8c40da7894f6bb79c007273795a5190f1b49a579e50ba661d96428b30ed079795a5e33799c3b0d9e266c6b336ecda29aafe4c16ef0c748eeb7b4acc74af823f776ff7c69133a145136afb1fa5dcf5b4c1a229a882bbda1057d1047e628357e6e988e9b0fec750ffe18e8336249d86fd59c478e4173fbd544ea4f22a61a8ef3b09336e1da0e3707bb3c99b4d76eded381f62c7bf1a7d4014411c40af4b0386c52f6b8c9366efdc8967bb460888454ad96084ff1dab9c64554637c90553fbf355568e79f9d9efe868787c477271e3ed353feb036b2d50b54997457bd9c0e11174aa1c1cdd7f68195d94d9d6c4ab045d93c0b1db455b021d1cd8bc488955f8f6ded950769206af525cba92136103ca4adf3abce121cdfd9e04aa395e670b6480404fce288eb8bb31a55867ebf6380db7af7ee5aea1a5dc569f27062cee5e5d9ba44c3603b158f3b13c31403e0828db8bcf3b7ca3cf1dfae37b6c516c59db2c07e0df8c224ef50a05588e6c8490ace118218b87f8f070684c610f60253faa3aff5241b052fb5c4d24ab7c557e1e78d80c376fd71fd49057dd2b2929bd9cd08cb95aef9f05396ec7725e8c751626b0679b9419de48af68206fd4ce82eb2cccba902a21697ade74ecab8b1e6352a0d2a0ae685f36ee2dd813b08207a53d9b3e5856ada8b2866010f9e29c78c5eff71ec2041893435bd1dcff30e37c7733dc6cfa529efde3719190c740f816e957416b51ea0b40924c0cd18c86527e43ebeed28b208e6e1c89486f535f1528572a0c0de8e4c20f6fb73ce773639fe66697661f3933a3d3d69f5c9fc8d52ff82b5a230e0300a62e6b6acff88aa922546ca2858f8295ac1e1e91eb72bc3021d59f8f73433787010e2f42456f899fb8d3e0e6113b474a585b62717e7f80a2a6a8aab0b3b4cdcecfd4dae2f2f6fbfc021a1d2a575a5c6165667c84929a9ca3adc4d5e0e5eaf4020910233d45474955569798a3c8d1d4f30c283f5001",
        "0057b9d537883a8e38338e4f1cfcef3b94ed28b4415e256be15cc3977ff2c749f1c5b8e02e0c7e7434984d6391c3d67625cd90c7ba579dcceebb9f1372cd8b277fd789191dfc2dd0f725945ff6e46aa8025e7500182521a917e80005915b13bc334b36a61ba7daeea80043992d0b35e71e07ec1c76f50045ac9bf3e0d1cad0807f1f25c05ec31fcdbe0dc3a1a9c63cf91d95b50e83060e5226b5a79c3bd0b95a9e15a92d1bd15130944e99348ce9965e6235287c0804fbe7b9a88b174d540a84d99996519ab229ee5c508d71b244b1be474ad95899f4caa0e2d61560c35865240f5e1b922c6b009b5389709f3542f57550d8f647b737a80d470bbe405499560167069640ae2536ab7cc2f065cbbff4b35dfd4e2f0bd20c07729e877e894b5024901bf0e5d24f8746eac57b08f28bf07d088f54b71496907f721368fe41650a3bd1c68722212046f569e36970058060b0739dd02a86eefddd1be71ed067fbb091dbbce7571d7d8a8a3dd520f56f09992488cf67b1491003cf5a3744d5a207cb1f2ae76203ed5e8d6b1448fe396413b72de92985c0299aff0e29f56293d1e70d37cb9037f47e0a072995fdc574d8a4249c339fd36a65f790eee52d4ea819abeed6bb87e84dc466b03dc642d57b457dcf3fd008d59b5e08ff12d6fcaffa9d676cdfabb1ae7909974a8015db03916bf5c60906be7ec5765a3f447630a13364b195c68977b88a2f3a58da9184796af9fe3490985a0502a9f1eb7dceb1b7773b78c3d21b0ddea9a586b94deff38df4d991fd2d2fa3f9ce72a018233f9e2aa663d58bbe5b75c692aea733046d8d0037fe9012175a9f24d4ea34cbfebf79eed4e2a38d347538a5f3fc09d3a4ba7bb0072917faf19a3a38cde49f388fae0dc7d925f5368d3a653241dfc3d6f774c7bc841a1a41b0e484000159d0f5278158d68af225f9d9d9ed117f50889c094eac5dce10d698d8da5b6c3c976b136d61fe2fe7d1cf8eb2197e12fb71bb791b7aa9c7e775a1943120062b7cb85a6a0f0ee7d50cfc47d33116cc0f3dc555feb338733a10f188e67d9c767b9dae6e0e0cee2ff338cc0a284ac1c6066b22e2840b570c02b07d0be85ca5035cc41f284ca853822efa4769c31f73025d4b31b3409b1597556416ebe5fdf7a34ddc519718cd8e21a5fb84655df9d006f4f486b842c44cbc1e370a3370ae819f22db74a90489b3c1a7a7f841db6b3e005d6befae82f290da14bdba591c0a9f897a72924c83c82dd4219275fbcc3f11147754f910dddd115e06aed32f6d04b271ad88ec5cef50f5a41b557b16f7ee884097165c4ca4e94ef93d783bb27d0ad07304b17e3ddd0d3a9fb8848dae5ca3d31fc8d7e3af53441c3fe91a1b4bd0b0cce415d3c0a20bb3206325f2cdd0b05efca3edab5fefacda4c7c393b59b7aa11d3143d7aa9c97539a95c4bbf9aaf813a292f5621da34b7b7e23aecba54b1f7c67781cbd0180433af38aafdc4811eb0451e948e28edf4642c5d7a981906d0d89f369750a4125f5f9183fa21f076ce51409bd0f796a6aee2b4a0d46f0b71d275cec123ccccd8f4549a5945d7b8d27982efbbdcb546b038cf955a0385b1fba74a9c5206496a0697b6285cc61a1a561dc38b714106fc2bb0a896f1e3ede939e9a06114d24225b6d97c21a1722b2a032027c6304b25db9d06b0ba135e0db6a3e58c2fe1a23210db9c80e41393466c8e73ec3a876123fe92d48b2bbbb32acfd3c7db8bd40f82c4114b281fef53488954f16c9add161cad8dfa62e6a083eb428b4c3abbc99300da953bbad4ccc45b752fca2a9a18f43a9dfc58b98cedccbefc6b1484ed5af103639bf00abb28a7e553dbdc8284df"
      ],
      "sequence": 4294967294
    }
  ],
  "vout": [
    {
      "value": 499975.5944,
      "n": 0,
      "scriptPubKey": {
        "asm": "1 73d1486056f9acbb1887fbf6fda36319628e278c9639c3fa0be54d2c51902b43",
        "hex": "512073d1486056f9acbb1887fbf6fda36319628e278c9639c3fa0be54d2c51902b43",
        "reqSigs": 1,
        "type": "witness_v1_scripthash",
        "addresses": [
          "3QJmnh"
        ]
      }
    },
    {
      "value": 1.0,
      "n": 1,
      "scriptPubKey": {
        "asm": "OP_RETURN 0652a052687a1b2d4a7b26a18d39e091567fcf213f16fe0892966d5127be3743 6e73830d9f952f31753eaaa653ae9e57302f122eb6f26f97d177ab31353e144f4e53a32dbfb50f11551e8a86738ebe77100f320e96d24fb7f1578b11151e346f2e33c34ddfd56f71357eeae613eede17706f526ef6b22fd79137eb71757e540f0e13e36dfff54f51155ecac633cefe37504f724ed6920ff7b117cb51555e742feef3038d1f15afb1f5be2a26d32e1ed7b0af92ae3672ef1751f72bb1b5be94cfced323ad3f358f91d59e0a06f30e3ef7908fb28e1652cf3771d70b91959eb4efaeb343cd5f55eff1b5fe6a66936e5e97f0efd2ee7632af5711b76bf1f5fed48f8e9363ed7f75cfd195de4a46b34e7eb7d0cff2ce56128f7731974bd1d5def4af6e73830d9f952f31753eaaa653ae9e57302f122eb6f26f97d177ab31353e144f4e53a32dbfb50f11551e8a86738ebe77100f320e96d24fb7f1578b11151e346f2e33c34ddfd56f71357eeae613eede17706f526ef6b22fd79137eb71757e540f0e13e36dfff54f51155ecac633cefe37504f724ed6920ff7b117cb51555e742feef3038d1f15afb1f5be2a26d32e1ed7b0af92ae3672ef1751f72bb1b5be94cfced323ad3f358f91d59e0a06f30e3ef7908fb28e1652cf3771d70b91959eb4efaeb343cd5f55eff1b5fe6a66936e5e97f0efd2ee7632af5711b76bf1f5fed48f8e9363ed7f75cfd195de4a46b34e7eb7d0cff2ce56128f7731974bd1d5def4af6e73830d9f952f31753eaaa653ae9e57302f122eb6f26f97d177ab31353e144f4e53a32dbfb50f11551e8a86738ebe77100f320e96d24fb7f1578b11151e346f2e33c34ddfd56f71357eeae613eede17706f526ef6b22fd79137eb71757e540f0e13e36dfff54f51155ecac633cefe37504f724ed6920ff7b117cb51555e742feef3038d1f15afb1f5be2a26d32e1ed7b0af92ae3672ef1751f72bb1b5be94cfced323ad3f358f91d59e0a06f30e3ef7908fb28e1652cf3771d70b91959eb4efaeb343cd5f55eff1b5fe6a66936e5e97f0efd2ee7632af5711b76bf1f5fed48f8e9363ed7f75cfd195de4a46b34e7eb7d0cff2ce56128f7731974bd1d5def4af6e73830d9f952f31753eaaa653ae9e57302f122eb6f26f97d177ab31353e144f4e53a32dbfb50f11551e8a86738ebe77100f320e96d24fb7f1578b11151e346f2e33c34ddfd56f71357eeae613eede17706f526ef6b22fd79137eb71757e540f0e13e36dfff54f51155ecac633cefe37504f724ed6920ff7b117cb51555e742feef3038d1f15afb1f5be2a26d32e1ed7b0af92ae3672ef1751f72bb1b5be94cfced323ad3f358f91d59e0a06f30e3ef7908fb28e1652cf3771d70b91959eb4efaeb343cd5f55eff1b5fe6a66936e5e97f0efd2ee7632af5711b76bf1f5fed48f8e9363ed7f75cfd195de4a46b34e7eb7d0cff2ce56128f7731974bd1d5def4af6e73830d9f952f31753eaaa653ae9e57302f122eb6f26f97d177ab31353e144f4e53a32dbfb50f11551e8a86738ebe77100f320e96d24fb7f1578b11151e346f2e33c34ddfd56f71357eeae613eede17706f526ef6b22fd79137eb71757e540f0e13e36dfff54f51155ecac633cefe37504f724ed6920ff7b117cb51555e742feef3038d1f15afb1f5be2a26d32e1ed7d0e50ae682edaf9abf274595259026c685fae48c2ea7b5c17e13720335e93f29",
        "hex": "6a200652a052687a1b2d4a7b26a18d39e091567fcf213f16fe0892966d5127be37434db0046e73830d9f952f31753eaaa653ae9e57302f122eb6f26f97d177ab31353e144f4e53a32dbfb50f11551e8a86738ebe77100f320e96d24fb7f1578b11151e346f2e33c34ddfd56f71357eeae613eede17706f526ef6b22fd79137eb71757e540f0e13e36dfff54f51155ecac633cefe37504f724ed6920ff7b117cb51555e742feef3038d1f15afb1f5be2a26d32e1ed7b0af92ae3672ef1751f72bb1b5be94cfced323ad3f358f91d59e0a06f30e3ef7908fb28e1652cf3771d70b91959eb4efaeb343cd5f55eff1b5fe6a66936e5e97f0efd2ee7632af5711b76bf1f5fed48f8e9363ed7f75cfd195de4a46b34e7eb7d0cff2ce56128f7731974bd1d5def4af6e73830d9f952f31753eaaa653ae9e57302f122eb6f26f97d177ab31353e144f4e53a32dbfb50f11551e8a86738ebe77100f320e96d24fb7f1578b11151e346f2e33c34ddfd56f71357eeae613eede17706f526ef6b22fd79137eb71757e540f0e13e36dfff54f51155ecac633cefe37504f724ed6920ff7b117cb51555e742feef3038d1f15afb1f5be2a26d32e1ed7b0af92ae3672ef1751f72bb1b5be94cfced323ad3f358f91d59e0a06f30e3ef7908fb28e1652cf3771d70b91959eb4efaeb343cd5f55eff1b5fe6a66936e5e97f0efd2ee7632af5711b76bf1f5fed48f8e9363ed7f75cfd195de4a46b34e7eb7d0cff2ce56128f7731974bd1d5def4af6e73830d9f952f31753eaaa653ae9e57302f122eb6f26f97d177ab31353e144f4e53a32dbfb50f11551e8a86738ebe77100f320e96d24fb7f1578b11151e346f2e33c34ddfd56f71357eeae613eede17706f526ef6b22fd79137eb71757e540f0e13e36dfff54f51155ecac633cefe37504f724ed6920ff7b117cb51555e742feef3038d1f15afb1f5be2a26d32e1ed7b0af92ae3672ef1751f72bb1b5be94cfced323ad3f358f91d59e0a06f30e3ef7908fb28e1652cf3771d70b91959eb4efaeb343cd5f55eff1b5fe6a66936e5e97f0efd2ee7632af5711b76bf1f5fed48f8e9363ed7f75cfd195de4a46b34e7eb7d0cff2ce56128f7731974bd1d5def4af6e73830d9f952f31753eaaa653ae9e57302f122eb6f26f97d177ab31353e144f4e53a32dbfb50f11551e8a86738ebe77100f320e96d24fb7f1578b11151e346f2e33c34ddfd56f71357eeae613eede17706f526ef6b22fd79137eb71757e540f0e13e36dfff54f51155ecac633cefe37504f724ed6920ff7b117cb51555e742feef3038d1f15afb1f5be2a26d32e1ed7b0af92ae3672ef1751f72bb1b5be94cfced323ad3f358f91d59e0a06f30e3ef7908fb28e1652cf3771d70b91959eb4efaeb343cd5f55eff1b5fe6a66936e5e97f0efd2ee7632af5711b76bf1f5fed48f8e9363ed7f75cfd195de4a46b34e7eb7d0cff2ce56128f7731974bd1d5def4af6e73830d9f952f31753eaaa653ae9e57302f122eb6f26f97d177ab31353e144f4e53a32dbfb50f11551e8a86738ebe77100f320e96d24fb7f1578b11151e346f2e33c34ddfd56f71357eeae613eede17706f526ef6b22fd79137eb71757e540f0e13e36dfff54f51155ecac633cefe37504f724ed6920ff7b117cb51555e742feef3038d1f15afb1f5be2a26d32e1ed7d0e50ae682edaf9abf274595259026c685fae48c2ea7b5c17e13720335e93f29",
        "type": "nulldata"
      }
    }
  ],
  "blockhash": "ccdcfedcff6ade259e7f17160cbcd6ff75249aea4f0a85a59e1a4fb3f710df5f",
  "confirmations": 1,
  "time": 1764180435,
  "blocktime": 1764180435
}