{
  "hex": "010000000001015a6e55a226c37cbb7bd1928d1602d8f9d2828b9ff96e666ce4ec32f4a36ebbae0100000000feffffff02d02296e4782d0000225120f67f73204c056eb40d3fe2328bba21f0ae51e6fdb5b913882fa1494133ec43e500e1f50500000000fdd5046a204dee7dd8fe1fedcbe76a3c564dbfffb270e132d2aec3d0bbdf6500cf02bb48044db004c2a5875b1693c050b04f0d57fa1fd351bb141791d1353844e7d41aaa43b48ec6e285a77b36b3e070906f2d77da3ff3719b3437b1f1151864c7f43a8a6394aee682e5c71b56d38010f00f4d17ba5f9311fb5457d191757804a7945aea03f4ce86a2c5e73b76f3a030d02f6d379a7fb331db7477f1b155582487b47aca23d4eea6422507db961340d030cf8dd77a9f53d13b94971151b5b8c467549a2ac3340e46620527fbb63360f010efadf75abf73f11bb4b731719598e44774ba0ae3142e660265479bd6530090708fcd973adf13917bd4d75111f5f8842714da6a83744e06224567bbf67320b050afedb71aff33b15bf4f77131d5d8a40734fa4aa3546e26c2a5875b1693c050b04f0d57fa1fd351bb141791d1353844e7d41aaa43b48ec6e285a77b36b3e070906f2d77da3ff3719b3437b1f1151864c7f43a8a6394aee682e5c71b56d38010f00f4d17ba5f9311fb5457d191757804a7945aea03f4ce86a2c5e73b76f3a030d02f6d379a7fb331db7477f1b155582487b47aca23d4eea6422507db961340d030cf8dd77a9f53d13b94971151b5b8c467549a2ac3340e46620527fbb63360f010efadf75abf73f11bb4b731719598e44774ba0ae3142e660265479bd6530090708fcd973adf13917bd4d75111f5f8842714da6a83744e06224567bbf67320b050afedb71aff33b15bf4f77131d5d8a40734fa4aa3546e26c2a5875b1693c050b04f0d57fa1fd351bb141791d1353844e7d41aaa43b48ec6e285a77b36b3e070906f2d77da3ff3719b3437b1f1151864c7f43a8a6394aee682e5c71b56d38010f00f4d17ba5f9311fb5457d191757804a7945aea03f4ce86a2c5e73b76f3a030d02f6d379a7fb331db7477f1b155582487b47aca23d4eea6422507db961340d030cf8dd77a9f53d13b94971151b5b8c467549a2ac3340e46620527fbb63360f010efadf75abf73f11bb4b731719598e44774ba0ae3142e660265479bd6530090708fcd973adf13917bd4d75111f5f8842714da6a83744e06224567bbf67320b050afedb71aff33b15bf4f77131d5d8a40734fa4aa3546e26c2a5875b1693c050b04f0d57fa1fd351bb141791d1353844e7d41aaa43b48ec6e285a77b36b3e070906f2d77da3ff3719b3437b1f1151864c7f43a8a6394aee682e5c71b56d38010f00f4d17ba5f9311fb5457d191757804a7945aea03f4ce86a2c5e73b76f3a030d02f6d379a7fb331db7477f1b155582487b47aca23d4eea6422507db961340d030cf8dd77a9f53d13b94971151b5b8c467549a2ac3340e46620527fbb63360f010efadf75abf73f11bb4b731719598e44774ba0ae3142e660265479bd6530090708fcd973adf13917bd4d75111f5f8842714da6a83744e06224567bbf67320b050afedb71aff33b15bf4f77131d5d8a40734fa4aa3546e26c2a5875b1693c050b04f0d57fa1fd351bb141791d1353844e7d41aaa43b48ec6e285a77b36b3e070906f2d77da3ff3719b3437b1f1151864c7f43a8a6394aee682e5c71b56d38010f00f4d17ba5f9311fb5457d191757804a7945aea03f4ce86a2c5e73b76f3a030d02f6d379a7fb331db7477f1b155582487b47aca23d4eea6422507db961340d030cf8dd77a9f53d1b4bf74d4c21ccba9e7ca132538340aa76a23aac09ccdc9939863f7da8891627d02fd7509ccc9e357fd21be82577c7b2fd1f720e8c897b14c1f0226aa9eced2fd1b000262c2b7973937901fc895179cf5e3dbd5fc23ef6ee87c533f9178de8fda88384aaf5f9ae83b77c8ef2d929ae3fb20f094120d7b0a64f7507c21c0d575b7ecd0450fe3a7f0aa1418f4c1366538d4b19c94ca007987c3a64b05af72400ad124fefd6b4d487f103ead027438c820c0e8600ccace9699c2ff949eaae8380202ef06c414b90322473cdfdb4c9776cdde19993dbea971682e8d54cea34ca20281322285b7527a0cd60329f4407ac670d80bff04c2ad6b5b36e356f47cadacf268c3c0c29a50e0488919b8e541dedea5399ffa43056865cebf9eb8d1ed365105d572fc3a7425b0337c4d004d8fd1be0aaa2c8107dfd5b2539307810b3738cbaa8cd36cd8bd77b73b9dd4cf228ac5d0b9cfe1893fd8aa3a3b23533516e7522f4fbbdd54b2db16af9ceb9d58b6fc9ff7f3243bdf9dfc97efd75119a97c71e1aa640cea457a3fdb37d8643b3e54594e56267a422161b3c218a8bb59e495c704a1797bf9dc453cf8c04220bcf21c94d0fb56a72c54be06c40245463608058560348e48a51d882e87faedf6f118d2842d9cef261759d4b59a155b64c116a048d72b6493f1b6e3406eee5c189d16a2b1085233edbe0a2c64069fc35ea770fc9cddbf7f4b36912e0fb7d6a67ae9d254ee7063edcb00afa0113807943242f47f7b21c6d12601f2743d267c78d448617d56250b9f76312e6490f10a5c5bdf8b9dbd7195108adb545c69aa6ea1f771ec39a9443aa2c541aedb7aaadd62c34f227314c83109437d45efe26c1e2281f01df7a429f557ad451a1887b5b4ce016b9a1266354335e256393c1f44fff9b382b4de24cf813e4cc61b091725cf415b84f79b846f6b41e57fb870977902fde8c9925c9e5e0f752021f2200a1677769b999e041c7fc97a73bd456d9463131abd4d3a448cacbab247a267c5d7b02893c9f03b4dc2dc55d4bf79fd8757d459e8a1fc52c18e8e214a2e3059cff8269de4b1975557b60f4a91f3393b0195aa93132d99abd34a9cc8e58b65d5a8738b69e9ea7fa33b8d2622540cb7529cafd3d22d3dc4c2d455eab5f8c8255a7541c6abfaf15410117a34d81e815797344b780e3e019e93ceaa5946ac095945d764193e03f90d450aa39455d816a2c300796c625e102a2d658b052c447b8a8b1007b541aae362d2c50217e67eb41002eb4481b52c5e78f1a92794d66165cd5b20c6f7a7176b7a9b5173e4fb1e41379dc708e54e9dae34659f2eed5a43c784d01ae2adb50375a1b192b980421ed99b81997dd59f662e65e73b6c86b3ff41c7e851acfe29ba1b12810abc78f1847ef6bb3305a98812e085398af1ba3f43b7bbb12f44e6e807ba35463936f09edff427937660c87e42a8442ba0a91b567bdcfdd374b98e1a21758d282ce94d04a3a9c09d0ac311061fa7a30760205ab4c63f3bf977259b9c092e3545a2540455a4b36c258139aa4244d1dc04d7dd79b07569e78b974a5472cf85ae70299049efc82f38a90416b6cc4ea7c76d396567b37d04623fa4f5582be589c7f279e2ad639f25c4a13221af78dc46e348f201366642e58515b0893e0bd4daa5000f73bf61bea1146b54b57c0969452b08349189fcf142035b6ee364d4d37f19ecf5409eda57213cc847e386fb256b1e5be9d947739dbb787c62d1c18db543eb17ca121f0620bdf6f2723dbb8eedcf8f45ae25c8d8e416996e83d1a9ee6809daabc77405feb097b27fc1713d6a029ef3ac23584dd513323be9094a7eafcd3e870c497b94abc0ee1cbeb30102ef8ffb7a46646467ef882a647049df26def86ac8e883b8e8f70076e1c7e39ebae08e70f88c5cd562f8ca7ca82cd8699e112bf5766fcae496ea2b4d2e1070cae9fe0f64d18db2c67b2256129a0fa2e6a18c54e2e55dbe329d586002e48cbf6b27483ee096cbeba7c558f4fb351453ad74b4828000da78b167114c252d6fc5ba278389b27de79537f41d21e111cf13e237b69cd54f42ed2155e3135299432dc914cbd3ce7242ef08bd524e7c682f3a405777db33e40f26df8338d5050a4cae26b05f2248b1abdbf796658b0a34a79922aad74a352fdf5cf336ae78748a124318dad1d6fd3f8f11866b4e1298d0db894fe2a2bcbd7a278f61cb3a9cd5255ad6848f14e9d715fb6f339c0b758a57b0c5d28ad9b8b1bdc43a5428cfc0edeab0662f211b36d2f79369dc1919d752234c429c34cd0de14a75ea5529ad00b90112f2b81b607308c99fb55875ba039e34ae9ba590bfe5b1e11f2157c0cfcc613e3a1d5d131831db513c69b23bbb689935b210bd10a5eb5c79fe8d9a57ee8e8ae201bd83a05eb91278a2100ec99ad6d1c7e3b7c71efe4ee0b747810b9504fcbe53a2af072ceaf1bd5d6f58a9e9ac5917ac35ded53a38fde71fe8b19a546eff120cea96520ba14a7db191ac1ea50b262f62b95689f2a4cb0b5b73a2b702aaf931e27a76af6ed0f783ab7d18b75affbdb54e48c430000bf4b1ce61d3ccad3f0fe2f1a01ca5f1b37cd779bd0bb96e38e5add84a3e98c562c784026f169f6ffbaa88db05908b436ade68b095dc4bfb813ffcbee75dd3028b839d9523e089d9e48f0b1442591243c15c73638323f04896790a536352fe6b3918abccfe788f3d3933e5ec215f84bf1988440f7383a902608487038b03b4927f7e997fdb5407e8455276d9a6624ea1d778b90cf0a3c359ed184fb811d8fec2844e6638dc09ee43338806e1c7c73396e865be6ef37e52b0fbe827bc2a447c4970b8bf701816c02319990111dba84c1b42ce0016222236ba4831cb498aa61a701bb7c6b0fc5db6e386dc651367092a79da0f889b72fa6bf5a720d47fea0b694f4a2ede0a5e3a71b1267dc0d447b651d31192bb2f3abc25eb908e1c1830c1986ca44d34a0db953e46003ad8242d2934db97c773264e31c730a70f47bbb0fe002ec89702396808b20347520344a095ed3cc3ca2e72476bab0b89ea67d664b04265fd8ebff7f722d3d42027c7e7501d9b2065a236a06d780a32a8d9973f8e1c9e3bc7bcec52fe4a4f821a3d03a47ec3df3e0d549839da8a6cbcf1219e8f82a56a7bd6331d67cf349bebad6e45dfc883cd2f82a7c492ca43c2abab4c8f55bcff3b7ce403c55668081b5d7c0c1955bfee8b8c314819b9ec276503d06169ca1b3a9cc38f98f34165d77948f00eae0d6b2340613a8094c2d5099902936ce0295bd5702447bbbcad05aa1afb4a127177ec074cc514db35c3b92c98afe729c38707996df51104f140b64edfe172c3b25b092289191d375b6064749395a8d1e0e5e9f0f2f40a194b7a819fd5d8dae4e6f4f9fa050e2d3b416c6f7f8b9fbbbdc2c7d5f30d16191c294d507276878d8f99cdd1d4e8f1fe0000000000000000000000000000111f2f4201fd21050048a515b9f47f954316d4a8108bbd02d652dcf09d17ea8c995a9d4e2d6e6c0c4be2820d47c58d9838ff6f12adfa400cc346d9c6a39de3f360428e97bebd9d1691e08b2728ad5e613ccb6d24fb2e836e46db234185a9c695f4b88a8f52c5d888d48df2e99f4e653467f908b86d02bc68c68a52a2e10089bfc04b209224563ad3227a009faa2c089b8b93b5eaa8dc91175ec5b2b2b04446b835812f1721feb3b3a0372a28ef4aaed804e3a7cdb14aa33448dd7b5e80499db787025eed56c9ce9036d18fc3db7cc3d44f9825b2dd763c375535dd2c410e36a8832063e307db5cfb213cedc44d88b36e46b21bca3208f6ba95ae377f02b006e022546f91e6de1dbd359e6b0c83136230a7e0cc7626bdf1c1ac78488632de0505ef67279b2149d4f4b246f7addd3623cd3e3ab0f851eb1ccf1502b5090a21964f33b255221f92decb850d0be0602dc8ca7c2286f028ba2224813adab709b0ab12aaccf8f68f831f78dd0769cb34a5ffdb48371e317ea6634818fb8bd1ecd41c00e8ce0234404002e5dd16accc5a8634edb81c5be6bb728dc7d4d57b436f2a9883d981e2d0399bad338cd84110b6badbabb647bb12695129a1843906ff694cdf5cb6295c52c3cd321b674a922945125fa566397a923d6b18d893f68b23e701c1ea2f67e864ac0be03ce19f8363394fa2755bd57ab565cf269d1607a84b89a64f0a972b46a935c2f086e812439b8bbde87ac30f5723eba41e9d2537303abdeb971a51077ef66f3e7c88d455ed9e8037bde85f26b113a5934572038111a4974f31b33098780b231f857a1ce278bf842f569d23b692436bf18e7bf94175d3c5b963965544e8c9da3e6e4f5d44a9917c4e5742a715359b1f27cb940cf63775ec4370947ea482de2aae6b9339b31832cb60ae27f68fbaa72229f5e3c5fd0d688d949c1a09f31fa662c5011169dc6cda7e4f0eeca2855286f3c61a093edf2711ec6ea65446b8a9e4db0b97063bb1961ccfb307b096db02af39a9b275c0e0d52acf433baf69873c9cd29c80f60475577037df224b3767e3f3fac8921d6d825dcdf39ac2cf1b27ae021b11635788831f8ca47333ac3395b160445c9a68f5c956f94072f38613ccbb1006d29efcce89fed9c977ece7192359ceb901ae56cb82aa16b51fd1ccb94d46551456b69f13da4a4875e6cf65c3a9bba9f27f0c6d58889e542e5899625ca4865ce427179d3f4bfd2012c42b94d019ff7e1daafe631f738ada0ccec474bd4b9186bfe08ac7e712213b93e761f23fd63006970363a40ff31e91154e013114f808c5f522d62d56a65dc80ee15837a2d4bdcca4d463809c1898763c5b151028fcb24a942759143c29c11422e30100a09c142dc413e197e709315a5945d0a072f0a8c7a00955b2c84dd5c924b0d086e7252143df3b2e515d01dc60a78769021a8ed522df969e0aef209a063ae6bce335f5db99e5c71d2a8785ed4f36210561bf3e57d5141408a3c66bde86f7c598632bd09d723b9e93d6351a5597f71ad6d0bb947b8f433e672c1733700b3271f93b0f6264427ce5a60978941af8a615d28eb4cda21c1399467739ba5b734cb9b14fabd3ae3053c54439465cd90c95aec2908b8caf9cc9ad334fae5a2aeadb8bbde67998a84663737e87ea98f67c94f7f9bf1e6329820d341d74471a8956c9d7d0b8d14f087709c970fc836f474280bd7582eaefb925a6d40e2e702b3cbe824409d337369b30688e8c240ff0c9b8d06d3b919b791f15461c5c9bbda86959b104d452124e12b829a0346e56f2f0350875c275742778ac2b89ab16bc19318223a01d526cafcec286bed248c10f066487ea7180ad0a6a273ad82a08bc81000000",
  "txid": "b652d1ce6d61bd2bfa214c00f9e846debc7cbad60cfca27ba6bc5d6f3fd6d948",
  "hash": "0feeb45e1cd2f8357707cc09e82afc456e13f92485d3b2210c063078007b8156",
  "size": 5085,
  "vsize": 2278,
  "version": 1,
  "locktime": 129,
  "vin": [
    {
      "txid": "aebb6ea3f432ece46c666ef99f8b82d2f9d802168d92d17bbb7cc326a2556e5a",
      "vout": 1,
      "scriptSig": {
        "asm": "",
        "hex": ""
      },
      "txinwitness": [
        "ccc9e357fd21be82577c7b2fd1f720e8c897b14c1f0226aa9eced2fd1b000262c2b7973937901fc895179cf5e3dbd5fc23ef6ee87c533f9178de8fda88384aaf5f9ae83b77c8ef2d929ae3fb20f094120d7b0a64f7507c21c0d575b7ecd0450fe3a7f0aa1418f4c1366538d4b19c94ca007987c3a64b05af72400ad124fefd6b4d487f103ead027438c820c0e8600ccace9699c2ff949eaae8380202ef06c414b90322473cdfdb4c9776cdde19993dbea971682e8d54cea34ca20281322285b7527a0cd60329f4407ac670d80bff04c2ad6b5b36e356f47cadacf268c3c0c29a50e0488919b8e541dedea5399ffa43056865cebf9eb8d1ed365105d572fc3a7425b0337c4d004d8fd1be0aaa2c8107dfd5b2539307810b3738cbaa8cd36cd8bd77b73b9dd4cf228ac5d0b9cfe1893fd8aa3a3b23533516e7522f4fbbdd54b2db16af9ceb9d58b6fc9ff7f3243bdf9dfc97efd75119a97c71e1aa640cea457a3fdb37d8643b3e54594e56267a422161b3c218a8bb59e495c704a1797bf9dc453cf8c04220bcf21c94d0fb56a72c54be06c40245463608058560348e48a51d882e87faedf6f118d2842d9cef261759d4b59a155b64c116a048d72b6493f1b6e3406eee5c189d16a2b1085233edbe0a2c64069fc35ea770fc9cddbf7f4b36912e0fb7d6a67ae9d254ee7063edcb00afa0113807943242f47f7b21c6d12601f2743d267c78d448617d56250b9f76312e6490f10a5c5bdf8b9dbd7195108adb545c69aa6ea1f771ec39a9443aa2c541aedb7aaadd62c34f227314c83109437d45efe26c1e2281f01df7a429f557ad451a1887b5b4ce016b9a1266354335e256393c1f44fff9b382b4de24cf813e4cc61b091725cf415b84f79b846f6b41e57fb870977902fde8c9925c9e5e0f752021f2200a1677769b999e041c7fc97a73bd456d9463131abd4d3a448cacbab247a267c5d7b02893c9f03b4dc2dc55d4bf79fd8757d459e8a1fc52c18e8e214a2e3059cff8269de4b1975557b60f4a91f3393b0195aa93132d99abd34a9cc8e58b65d5a8738b69e9ea7fa33b8d2622540cb7529cafd3d22d3dc4c2d455eab5f8c8255a7541c6abfaf15410117a34d81e815797344b780e3e019e93ceaa5946ac095945d764193e03f90d450aa39455d816a2c300796c625e102a2d658b052c447b8a8b1007b541aae362d2c50217e67eb41002eb4481b52c5e78f1a92794d66165cd5b20c6f7a7176b7a9b5173e4fb1e41379dc708e54e9dae34659f2eed5a43c784d01ae2adb50375a1b192b980421ed99b81997dd59f662e65e73b6c86b3ff41c7e851acfe29ba1b12810abc78f1847ef6bb3305a98812e085398af1ba3f43b7bbb12f44e6e807ba35463936f09edff427937660c87e42a8442ba0a91b567bdcfdd374b98e1a21758d282ce94d04a3a9c09d0ac311061fa7a30760205ab4c63f3bf977259b9c092e3545a2540455a4b36c258139aa4244d1dc04d7dd79b07569e78b974a5472cf85ae70299049efc82f38a90416b6cc4ea7c76d396567b37d04623fa4f5582be589c7f279e2ad639f25c4a13221af78dc46e348f201366642e58515b0893e0bd4daa5000f73bf61bea1146b54b57c0969452b08349189fcf142035b6ee364d4d37f19ecf5409eda57213cc847e386fb256b1e5be9d947739dbb787c62d1c18db543eb17ca121f0620bdf6f2723dbb8eedcf8f45ae25c8d8e416996e83d1a9ee6809daabc77405feb097b27fc1713d6a029ef3ac23584dd513323be9094a7eafcd3e870c497b94abc0ee1cbeb30102ef8ffb7a46646467ef882a647049df26def86ac8e883b8e8f70076e1c7e39ebae08e70f88c5cd562f8ca7ca82cd8699e112bf5766fcae496ea2b4d2e1070cae9fe0f64d18db2c67b2256129a0fa2e6a18c54e2e55dbe329d586002e48cbf6b27483ee096cbeba7c558f4fb351453ad74b4828000da78b167114c252d6fc5ba278389b27de79537f41d21e111cf13e237b69cd54f42ed2155e3135299432dc914cbd3ce7242ef08bd524e7c682f3a405777db33e40f26df8338d5050a4cae26b05f2248b1abdbf796658b0a34a79922aad74a352fdf5cf336ae78748a124318dad1d6fd3f8f11866b4e1298d0db894fe2a2bcbd7a278f61cb3a9cd5255ad6848f14e9d715fb6f339c0b758a57b0c5d28ad9b8b1bdc43a5428cfc0edeab0662f211b36d2f79369dc1919d752234c429c34cd0de14a75ea5529ad00b90112f2b81b607308c99fb55875ba039e34ae9ba590bfe5b1e11f2157c0cfcc613e3a1d5d131831db513c69b23bbb689935b210bd10a5eb5c79fe8d9a57ee8e8ae201bd83a05eb91278a2100ec99ad6d1c7e3b7c71efe4ee0b747810b9504fcbe53a2af072ceaf1bd5d6f58a9e9ac5917ac35ded53a38fde71fe8b19a546eff120cea96520ba14a7db191ac1ea50b262f62b95689f2a4cb0b5b73a2b702aaf931e27a76af6ed0f783ab7d18b75affbdb54e48c430000bf4b1ce61d3ccad3f0fe2f1a01ca5f1b37cd779bd0bb96e38e5add84a3e98c562c784026f169f6ffbaa88db05908b436ade68b095dc4bfb813ffcbee75dd3028b839d9523e089d9e48f0b1442591243c15c73638323f04896790a536352fe6b3918abccfe788f3d3933e5ec215f84bf1988440f7383a902608487038b03b4927f7e997fdb5407e8455276d9a6624ea1d778b90cf0a3c359ed184fb811d8fec2844e6638dc09ee43338806e1c7c73396e865be6ef37e52b0fbe827bc2a447c4970b8bf701816c02319990111dba84c1b42ce0016222236ba4831cb498aa61a701bb7c6b0fc5db6e386dc651367092a79da0f889b72fa6bf5a720d47fea0b694f4a2ede0a5e3a71b1267dc0d447b651d31192bb2f3abc25eb908e1c1830c1986ca44d34a0db953e46003ad8242d2934db97c773264e31c730a70f47bbb0fe002ec89702396808b20347520344a095ed3cc3ca2e72476bab0b89ea67d664b04265fd8ebff7f722d3d42027c7e7501d9b2065a236a06d780a32a8d9973f8e1c9e3bc7bcec52fe4a4f821a3d03a47ec3df3e0d549839da8a6cbcf1219e8f82a56a7bd6331d67cf349bebad6e45dfc883cd2f82a7c492ca43c2abab4c8f55bcff3b7ce403c55668081b5d7c0c1955bfee8b8c314819b9ec276503d06169ca1b3a9cc38f98f34165d77948f00eae0d6b2340613a8094c2d5099902936ce0295bd5702447bbbcad05aa1afb4a127177ec074cc514db35c3b92c98afe729c38707996df51104f140b64edfe172c3b25b092289191d375b6064749395a8d1e0e5e9f0f2f40a194b7a819fd5d8dae4e6f4f9fa050e2d3b416c6f7f8b9fbbbdc2c7d5f30d16191c294d507276878d8f99cdd1d4e8f1fe0000000000000000000000000000111f2f4201",
        "0048a515b9f47f954316d4a8108bbd02d652dcf09d17ea8c995a9d4e2d6e6c0c4be2820d47c58d9838ff6f12adfa400cc346d9c6a39de3f360428e97bebd9d1691e08b2728ad5e613ccb6d24fb2e836e46db234185a9c695f4b88a8f52c5d888d48df2e99f4e653467f908b86d02bc68c68a52a2e10089bfc04b209224563ad3227a009faa2c089b8b93b5eaa8dc91175ec5b2b2b04446b835812f1721feb3b3a0372a28ef4aaed804e3a7cdb14aa33448dd7b5e80499db787025eed56c9ce9036d18fc3db7cc3d44f9825b2dd763c375535dd2c410e36a8832063e307db5cfb213cedc44d88b36e46b21bca3208f6ba95ae377f02b006e022546f91e6de1dbd359e6b0c83136230a7e0cc7626bdf1c1ac78488632de0505ef67279b2149d4f4b246f7addd3623cd3e3ab0f851eb1ccf1502b5090a21964f33b255221f92decb850d0be0602dc8ca7c2286f028ba2224813adab709b0ab12aaccf8f68f831f78dd0769cb34a5ffdb48371e317ea6634818fb8bd1ecd41c00e8ce0234404002e5dd16accc5a8634edb81c5be6bb728dc7d4d57b436f2a9883d981e2d0399bad338cd84110b6badbabb647bb12695129a1843906ff694cdf5cb6295c52c3cd321b674a922945125fa566397a923d6b18d893f68b23e701c1ea2f67e864ac0be03ce19f8363394fa2755bd57ab565cf269d1607a84b89a64f0a972b46a935c2f086e812439b8bbde87ac30f5723eba41e9d2537303abdeb971a51077ef66f3e7c88d455ed9e8037bde85f26b113a5934572038111a4974f31b33098780b231f857a1ce278bf842f569d23b692436bf18e7bf94175d3c5b963965544e8c9da3e6e4f5d44a9917c4e5742a715359b1f27cb940cf63775ec4370947ea482de2aae6b9339b31832cb60ae27f68fbaa72229f5e3c5fd0d688d949c1a09f31fa662c5011169dc6cda7e4f0eeca2855286f3c61a093edf2711ec6ea65446b8a9e4db0b97063bb1961ccfb307b096db02af39a9b275c0e0d52acf433baf69873c9cd29c80f60475577037df224b3767e3f3fac8921d6d825dcdf39ac2cf1b27ae021b11635788831f8ca47333ac3395b160445c9a68f5c956f94072f38613ccbb1006d29efcce89fed9c977ece7192359ceb901ae56cb82aa16b51fd1ccb94d46551456b69f13da4a4875e6cf65c3a9bba9f27f0c6d58889e542e5899625ca4865ce427179d3f4bfd2012c42b94d019ff7e1daafe631f738ada0ccec474bd4b9186bfe08ac7e712213b93e761f23fd63006970363a40ff31e91154e013114f808c5f522d62d56a65dc80ee15837a2d4bdcca4d463809c1898763c5b151028fcb24a942759143c29c11422e30100a09c142dc413e197e709315a5945d0a072f0a8c7a00955b2c84dd5c924b0d086e7252143df3b2e515d01dc60a78769021a8ed522df969e0aef209a063ae6bce335f5db99e5c71d2a8785ed4f36210561bf3e57d5141408a3c66bde86f7c598632bd09d723b9e93d6351a5597f71ad6d0bb947b8f433e672c1733700b3271f93b0f6264427ce5a60978941af8a615d28eb4cda21c1399467739ba5b734cb9b14fabd3ae3053c54439465cd90c95aec2908b8caf9cc9ad334fae5a2aeadb8bbde67998a84663737e87ea98f67c94f7f9bf1e6329820d341d74471a8956c9d7d0b8d14f087709c970fc836f474280bd7582eaefb925a6d40e2e702b3cbe824409d337369b30688e8c240ff0c9b8d06d3b919b791f15461c5c9bbda86959b104d452124e12b829a0346e56f2f0350875c275742778ac2b89ab16bc19318223a01d526cafcec286bed248c10f066487ea7180ad0a6a273ad82a08bc"
      ],
      "sequence": 4294967294
    }
  ],
  "vout": [
    {
      "value": 499972.5437,
      "n": 0,
      "scriptPubKey": {
        "asm": "1 f67f73204c056eb40d3fe2328bba21f0ae51e6fdb5b913882fa1494133ec43e5",
        "hex": "5120f67f73204c056eb40d3fe2328bba21f0ae51e6fdb5b913882fa1494133ec43e5",
        "reqSigs": 1,
        "type": "witness_v1_scripthash",
        "addresses": [
          "3QJmnh"
        ]
      }
    },
    {
      "value": 1.0,
      "n": 1,
      "scriptPubKey": {
        "asm": "OP_RETURN 4dee7dd8fe1fedcbe76a3c564dbfffb270e132d2aec3d0bbdf6500cf02bb4804 c2a5875b1693c050b04f0d57fa1fd351bb141791d1353844e7d41aaa43b48ec6e285a77b36b3e070906f2d77da3ff3719b3437b1f1151864c7f43a8a6394aee682e5c71b56d38010f00f4d17ba5f9311fb5457d191757804a7945aea03f4ce86a2c5e73b76f3a030d02f6d379a7fb331db7477f1b155582487b47aca23d4eea6422507db961340d030cf8dd77a9f53d13b94971151b5b8c467549a2ac3340e46620527fbb63360f010efadf75abf73f11bb4b731719598e44774ba0ae3142e660265479bd6530090708fcd973adf13917bd4d75111f5f8842714da6a83744e06224567bbf67320b050afedb71aff33b15bf4f77131d5d8a40734fa4aa3546e26c2a5875b1693c050b04f0d57fa1fd351bb141791d1353844e7d41aaa43b48ec6e285a77b36b3e070906f2d77da3ff3719b3437b1f1151864c7f43a8a6394aee682e5c71b56d38010f00f4d17ba5f9311fb5457d191757804a7945aea03f4ce86a2c5e73b76f3a030d02f6d379a7fb331db7477f1b155582487b47aca23d4eea6422507db961340d030cf8dd77a9f53d13b94971151b5b8c467549a2ac3340e46620527fbb63360f010efadf75abf73f11bb4b731719598e44774ba0ae3142e660265479bd6530090708fcd973adf13917bd4d75111f5f8842714da6a83744e06224567bbf67320b050afedb71aff33b15bf4f77131d5d8a40734fa4aa3546e26c2a5875b1693c050b04f0d57fa1fd351bb141791d1353844e7d41aaa43b48ec6e285a77b36b3e070906f2d77da3ff3719b3437b1f1151864c7f43a8a6394aee682e5c71b56d38010f00f4d17ba5f9311fb5457d191757804a7945aea03f4ce86a2c5e73b76f3a030d02f6d379a7fb331db7477f1b155582487b47aca23d4eea6422507db961340d030cf8dd77a9f53d13b94971151b5b8c467549a2ac3340e46620527fbb63360f010efadf75abf73f11bb4b731719598e44774ba0ae3142e660265479bd6530090708fcd973adf13917bd4d75111f5f8842714da6a83744e06224567bbf67320b050afedb71aff33b15bf4f77131d5d8a40734fa4aa3546e26c2a5875b1693c050b04f0d57fa1fd351bb141791d1353844e7d41aaa43b48ec6e285a77b36b3e070906f2d77da3ff3719b3437b1f1151864c7f43a8a6394aee682e5c71b56d38010f00f4d17ba5f9311fb5457d191757804a7945aea03f4ce86a2c5e73b76f3a030d02f6d379a7fb331db7477f1b155582487b47aca23d4eea6422507db961340d030cf8dd77a9f53d13b94971151b5b8c467549a2ac3340e46620527fbb63360f010efadf75abf73f11bb4b731719598e44774ba0ae3142e660265479bd6530090708fcd973adf13917bd4d75111f5f8842714da6a83744e06224567bbf67320b050afedb71aff33b15bf4f77131d5d8a40734fa4aa3546e26c2a5875b1693c050b04f0d57fa1fd351bb141791d1353844e7d41aaa43b48ec6e285a77b36b3e070906f2d77da3ff3719b3437b1f1151864c7f43a8a6394aee682e5c71b56d38010f00f4d17ba5f9311fb5457d191757804a7945aea03f4ce86a2c5e73b76f3a030d02f6d379a7fb331db7477f1b155582487b47aca23d4eea6422507db961340d030cf8dd77a9f53d1b4bf74d4c21ccba9e7ca132538340aa76a23aac09ccdc9939863f7da8891627d",
        "hex": "6a204dee7dd8fe1fedcbe76a3c564dbfffb270e132d2aec3d0bbdf6500cf02bb48044db004c2a5875b1693c050b04f0d57fa1fd351bb141791d1353844e7d41aaa43b48ec6e285a77b36b3e070906f2d77da3ff3719b3437b1f1151864c7f43a8a6394aee682e5c71b56d38010f00f4d17ba5f9311fb5457d191757804a7945aea03f4ce86a2c5e73b76f3a030d02f6d379a7fb331db7477f1b155582487b47aca23d4eea6422507db961340d030cf8dd77a9f53d13b94971151b5b8c467549a2ac3340e46620527fbb63360f010efadf75abf73f11bb4b731719598e44774ba0ae3142e660265479bd6530090708fcd973adf13917bd4d75111f5f8842714da6a83744e06224567bbf67320b050afedb71aff33b15bf4f77131d5d8a40734fa4aa3546e26c2a5875b1693c050b04f0d57fa1fd351bb141791d1353844e7d41aaa43b48ec6e285a77b36b3e070906f2d77da3ff3719b3437b1f1151864c7f43a8a6394aee682e5c71b56d38010f00f4d17ba5f9311fb5457d191757804a7945aea03f4ce86a2c5e73b76f3a030d02f6d379a7fb331db7477f1b155582487b47aca23d4eea6422507db961340d030cf8dd77a9f53d13b94971151b5b8c467549a2ac3340e46620527fbb63360f010efadf75abf73f11bb4b731719598e44774ba0ae3142e660265479bd6530090708fcd973adf13917bd4d75111f5f8842714da6a83744e06224567bbf67320b050afedb71aff33b15bf4f77131d5d8a40734fa4aa3546e26c2a5875b1693c050b04f0d57fa1fd351bb141791d1353844e7d41aaa43b48ec6e285a77b36b3e070906f2d77da3ff3719b3437b1f1151864c7f43a8a6394aee682e5c71b56d38010f00f4d17ba5f9311fb5457d191757804a7945aea03f4ce86a2c5e73b76f3a030d02f6d379a7fb331db7477f1b155582487b47aca23d4eea6422507db961340d030cf8dd77a9f53d13b94971151b5b8c467549a2ac3340e46620527fbb63360f010efadf75abf73f11bb4b731719598e44774ba0ae3142e660265479bd6530090708fcd973adf13917bd4d75111f5f8842714da6a83744e06224567bbf67320b050afedb71aff33b15bf4f77131d5d8a40734fa4aa3546e26c2a5875b1693c050b04f0d57fa1fd351bb141791d1353844e7d41aaa43b48ec6e285a77b36b3e070906f2d77da3ff3719b3437b1f1151864c7f43a8a6394aee682e5c71b56d38010f00f4d17ba5f9311fb5457d191757804a7945aea03f4ce86a2c5e73b76f3a030d02f6d379a7fb331db7477f1b155582487b47aca23d4eea6422507db961340d030cf8dd77a9f53d13b94971151b5b8c467549a2ac3340e46620527fbb63360f010efadf75abf73f11bb4b731719598e44774ba0ae3142e660265479bd6530090708fcd973adf13917bd4d75111f5f8842714da6a83744e06224567bbf67320b050afedb71aff33b15bf4f77131d5d8a40734fa4aa3546e26c2a5875b1693c050b04f0d57fa1fd351bb141791d1353844e7d41aaa43b48ec6e285a77b36b3e070906f2d77da3ff3719b3437b1f1151864c7f43a8a6394aee682e5c71b56d38010f00f4d17ba5f9311fb5457d191757804a7945aea03f4ce86a2c5e73b76f3a030d02f6d379a7fb331db7477f1b155582487b47aca23d4eea6422507db961340d030cf8dd77a9f53d1b4bf74d4c21ccba9e7ca132538340aa76a23aac09ccdc9939863f7da8891627d",
        "type": "nulldata"
      }
    }
  ],
  "blockhash": "e950f66e7d48487e03ac7a1b4e7864aa28758accf0e3d98358cdf64a352531e0",
  "confirmations": 1,
  "time": 1764181937,
  "blocktime": 1764181937
}