{
  "hex": "01000000000101ebbf08da45d7a12667a048d82f1b0d4d14e894d23d2d1d18a0f52a4ef5a56d1f0000000000feffffff0200e1f50500000000fdd5046a20fb52669aeda4c9a780d0d38735dad1412c9cd2ad1c0fa9408d8bc32193df49a74db004b4af1a7c652134d29f10309ecc825345bf5d13f8daf37e78ff3c66edd936fb59948f3a5c450114f2bf3010beeca273659f7d33d8fad35e58df1c46cdf916db79f4ef5a3c25617492df5070de8cc21305ff1d53b89ab33e38bf7c26ad9976bb19d4cf7a1c054154b2ff7050feace23325df3d7398ba931e189f5c068db9569b39342f9afce5a1b4521f90b01e4c02d3c53fdd93785a73fef87fbce66d59b67bd9140fbadcc58194723fb0903e6c22f3e51ffdb3587a53ded85f9cc64d79965bf9746fdabca5e1f4125fd0f05e0c4293857f9dd3381a33beb83ffca62d19f63b99544ffa9c85c1d4327ff0d07e2c62b3a55fbdf3183a139e981fdc860d39d61bb9b4af1a7c652134d29f10309ecc825345bf5d13f8daf37e78ff3c66edd936fb59948f3a5c450114f2bf3010beeca273659f7d33d8fad35e58df1c46cdf916db79f4ef5a3c25617492df5070de8cc21305ff1d53b89ab33e38bf7c26ad9976bb19d4cf7a1c054154b2ff7050feace23325df3d7398ba931e189f5c068db9569b39342f9afce5a1b4521f90b01e4c02d3c53fdd93785a73fef87fbce66d59b67bd9140fbadcc58194723fb0903e6c22f3e51ffdb3587a53ded85f9cc64d79965bf9746fdabca5e1f4125fd0f05e0c4293857f9dd3381a33beb83ffca62d19f63b99544ffa9c85c1d4327ff0d07e2c62b3a55fbdf3183a139e981fdc860d39d61bb9b4af1a7c652134d29f10309ecc825345bf5d13f8daf37e78ff3c66edd936fb59948f3a5c450114f2bf3010beeca273659f7d33d8fad35e58df1c46cdf916db79f4ef5a3c25617492df5070de8cc21305ff1d53b89ab33e38bf7c26ad9976bb19d4cf7a1c054154b2ff7050feace23325df3d7398ba931e189f5c068db9569b39342f9afce5a1b4521f90b01e4c02d3c53fdd93785a73fef87fbce66d59b67bd9140fbadcc58194723fb0903e6c22f3e51ffdb3587a53ded85f9cc64d79965bf9746fdabca5e1f4125fd0f05e0c4293857f9dd3381a33beb83ffca62d19f63b99544ffa9c85c1d4327ff0d07e2c62b3a55fbdf3183a139e981fdc860d39d61bb9b4af1a7c652134d29f10309ecc825345bf5d13f8daf37e78ff3c66edd936fb59948f3a5c450114f2bf3010beeca273659f7d33d8fad35e58df1c46cdf916db79f4ef5a3c25617492df5070de8cc21305ff1d53b89ab33e38bf7c26ad9976bb19d4cf7a1c054154b2ff7050feace23325df3d7398ba931e189f5c068db9569b39342f9afce5a1b4521f90b01e4c02d3c53fdd93785a73fef87fbce66d59b67bd9140fbadcc58194723fb0903e6c22f3e51ffdb3587a53ded85f9cc64d79965bf9746fdabca5e1f4125fd0f05e0c4293857f9dd3381a33beb83ffca62d19f63b99544ffa9c85c1d4327ff0d07e2c62b3a55fbdf3183a139e981fdc860d39d61bb9b4af1a7c652134d29f10309ecc825345bf5d13f8daf37e78ff3c66edd936fb59948f3a5c450114f2bf3010beeca273659f7d33d8fad35e58df1c46cdf916db79f4ef5a3c25617492df5070de8cc21305ff1d53b89ab33e38bf7c26ad9976bb19d4cf7a1c054154b2ff7050feace23325df3d7398ba931e189f5c068db9569b39342f9afce5a1b4521f90b01e4c02d3c5aecd1cd11d2e9e7724bba7b1ea5e8ef30a3574308361e020846820906e37b49fc075fe6f792d00002251209e8636d0011de9aa4a04529a3cea06abcb161546d5114dff4d5534a13b90d89002fd7509f2961fe9e43efd16c122038234e5d564ed37da80c7f84109c14fa96b73e44772b32f51b2750bbb50ac43b27766c07b1854443726e2a7e0af37a8a2d829a9f073cd46e8661e3de8c247e476d75ecc63495039c67d3412315af0358ecd0a7b96535080483048b9f92fff083fd2e40bc5bb329071ab3b1ea13c208222d21afdb8a45e7f3df1fd263c3605c4bf793db7789a62467a3562aa9c8e221928d1ef0ddedeee5251d8c5aa0b32887959c447263a6cbf924823dcbc9cc93ec29de613c4b179daa8fd88f67ebb160847e1f835e151269b0c90abe7aa6bc982d9421a834f88ad4fd9d52fbf7e3666c71c7431a7a466d684292c2aacc5307ec637bc55d850f89b81adceaff9b323824b3155b622cd58c3b4e3711db7bb5f2e835763cf0ad3a049fdd88760dd39277518436e35deac097e588959d1b42449e0e1c07b4ded7ae529af560f0946c5c7a2c83cdf795ff8c74b51552126d5322cc6eee246340519b3cabff0e21cdc30c5abca9ad4c286a266453e6e629c0fc32c8ac92dfddd7ee716a201b5d72c4e14f4ddef504fa935bb5b5897ee21e7bc6daa51918c204615918616cd43d84b7d92c448403337e1e72e9f0e421a0c649067eaf6db8741112d65a3b1c1498d302037ce7e377260b5b1ff94671e9838ec9f0f6db31a94b3fb65437e9d0adeaa301f4e9126e09ca6f6cba130204d3c96bd4c463de8fb3166ddfd55d78dbb8c9e21bcbb5b0d09c7a65fd83ae6bc2f4be31a27b9772a6b4fe685733b9031fc0f130c644d34fe72da0cdc3d3332f941995fcd9584c712b179387775256a11e50b3d982da20ac64c7fe5dbf686948bfc085a5d89aa062d0f483669db068d218b996cb599128656cc600f6f5f5fdbcaafba3fdcd19ae23ad5b02892160dbc64d0e0a812a71277f11e0dccbe7b2428fb01dbbf2909407699a0e9d4c70add6c4c3969cd7b0c0bed0b3801c1fa9eda3e2dbc522f47d23e59bd9e2e1507455f95b01ed64b56fe7b5463025334f149fde9831e09cfdaad69ef4fc3a3a8db4d7c5a4591d953802d9ff53c7e73d0fe0cd9ef380da41e7867930390507fd5337e8e853979c863b189460701138f259d0b405d819c8d5ba2679e0f51fe4d05eaa58f9671a59dc214d57d47d26cf6b79c06e03c4e7d4898d042fa0489144f6c142fbb8c94f54c1eb82245d0a3dcc8fc79498674a07e94d7e40054f50ede737fdd88fa87c7a14faf8969d2766adddd8914842d74902d5bab99228fff5467ada3cf07d9138340a6b6b75a8a8e7961a51607c853dd3f52a9f2431d50b248ebdf6064a2711d72a7937f9bfd8e026ed33a32cb2c34b369e3aad220db77c34c702059543e12feef36484fc7b1f976ed795e8fe0e7c81f4a4bb58e6d846ac44a0c04bdfa7511a1bc0d5f2405012bdcfd3f1a388c60ea8229869ed0a723e1444e7f14fd4008fb5630e946db2673e8f2cd6ae470cd50d3a5d19963ad58483ab5008ef90f2e51811f1de3866402937dc12723b37c6709350df19a07b56a0ea25eedca1c0e33130e15ad93e60736aeed394e6f9cac84e48e751e69b4663453a2f1922603f5e016486a522bfd0be6951d32c3f46e4ceca34f7b446c5f574a5d691c8f9c67ec09d9505d89f3929c0f8df4474fe3b6bc0116d9d936d6aea3ba812abce4636211937d1163bf2a3a63dbedc3e6be1df9c4d8ff73c59d2e8c3cdb70a237b5ad86364a119a24005bb7aa22cd4e1e0983830f3a3941a107c1da721d797ec431c99c95d6d8bbd0d498166c58be8ed2e74aea8e0dc7d363be860845b635794799fcd946eaf9f7fb8524231a64ea23e3078a86aa5a4fb81dce011bf8dff72bcd0536821b9554444562da501f8840f1cd4db63ec66433c0e83cae54ed60aefadb53e2d1b27fa35d589c5dfb18932b3dcf94821c98b50e540bbafb9e4b6a635494b87d990a92a2f6c2c8be10892a2adfb2aeee1a2303fff8d3ae7885f76e35585ace2fbfd20667b454fe5bcfcf9ebf06d1b0b57463878c5497e059965d1686c717b72c039fac687a4aec76072af46058f33a3da04bb7aa2775c07b32ab1c2e988e377f6cf679edb433bd3f475a74ca297b388244e7944a14cd03bbd5714b2e7a4c772ecbd50d2c0adfd98ef8de1e961e5265742026eec3471ebf17a959c1bed23585a139f20b096e59ad0ab1291fb73d06facd6d3bedc326fd279e23a7301f20d08f956e2c18a0e60a4f8069f102c9651c3004613e255219d4cfbff46a30d5ab7a257dca916d7615628192ddbbf63ef4afc31ec080e856b9c81d94456a8aa3a1251f54b00e1ed0362312d66fa119f61e7f008c899e48000dcd0dba6ab1cc53c1cd3dc216cf4b9e881bfbeb61c5e0a058cf774dffac399d79ee71ad11fa4f97488d08083df97296898558413d3446e3a821387326eb73db045a12c85a998b0ead3270bd558688b1b6cfa061d699c94bc7fd671d2c4fdb5713a7200efefc4ae31fd7ca81cbcafc34c9f1fd56bc99f3e7c1166e2178df71cc3192542e399ff386b46cf71ddee5254221fb31848da77b9c49b2a9da532c2a882fcb81ae145cfaa63cb837291fed9ac35e019efd0594f24b5fe04374cbb15c208dd6a027b08bf7bb8cd633b749b831396d11b447670a40c9a9cb89ecf340f6fe256299161fcff31a2f0ee88d4689b00778839dd2821b12e5b0f90fad18e1163779d0ed42d20bcd5e0d370137b28600b8aaa66bcd486ba04b1c60f0291e1217dd413b55c394f84a0b2c634f36e8cc1e53a2a369987c534db0c7a39d03b5835acd779e3f6577be220de9366819f4a1d54540a50a23a241299a17093bab7a78104882ee3f18ef142d579b2064214f1e6c4a60e0815ba1a2451a95aaff798ccba59937c34df7d3817062a85366b7ae547b83aef5dc66492de15a6c283c915794655967bccf8fc6b958c8639ebf4df68420c5ffe2acfdf8bea3c3580ac4ba1b989ae89068651c4e71f759cd42bc81cd851ee599f6596a801cd3685b5ddd81ef618b5e8c78c1f1f273edec2772b3eed5606a94cb3979ca325581ba81da92ad243ca286bce7cb5e27a730f8db043f6624b320a3ee247931df6b5765b81f1b84aca2c96e81ae43de303cfe2def0946c528599ebfaf4736ed341289473cb61841a53f10b6d77c052d331a7cde362d6c3af58c0d7c94306247ae82b4beeea14b6a94147929c6348f694d4beec138aaf0e4d0ad3dd51ac7bae61f1239f0b9d4e6c905e4a87943ca6b928495cfde8c533ca199ce1db85b40aa096a2f498bef7860fddde6be19d79c707e2648d14501e91605e626871063cb6c27282f333b4344627273768ea4afb2b7c5cad0d4e5f0fa0e1639445b7077808385949babb9bbbec8ced3d4f2292c3b3e4a557095bcc3d2e1e33f5e77868a8b8faab2b8cacbcef6ff0000000000000000172c394801fd210500996bd8252a6ef04fdaadfe7190c4b95a34df33897ade61a861a7dfb7ab16fc66051d25a0c70f2988111e5913a654e876ada37674346db588783096b5da628eeaab31647a4aa09c280106b0bd95c792d25c735ee0087927e09cf3540d879dc714900eee7bb8adc6f58389e4f3975be4fddde06f7927b5f317b1d98409ec5f794d2efcc29c6554f0229529dcc1477a38770bc8ded800cba218ae52c392069d405cecc58aa576d8f590aedcfe4a02cc95989f3fc0dd9451dd38af6ef3990054ad3d8a0d0aebd3ed50402683a48e35c431d3708abf0d3ef06283c4489b3cf6b9f8cbe4811617230a63ed31866f4e766195195db8941d126f1f71e8e8ce67b33883e2dd762171d39df429167d0e5c5b5673bd838136a493eaae410b060745efa56468cc73d35d2c53036dce9384f40f7462e976db14a593f5e0bf6d6b534442a348f6d82f0ebb7701f58488d3b18771ed69ab47d26a5208c491a726099de52ee90b62fc0029b2f4504310c00f2e61fe171380d78ab34aff7e911276803db6975ce57702f58e6c9b08cc74eb45d7b43278d67ae9d468377f184d4d83489348394820a261e818bc41ba20e143c656cff30a2a11d83fe667466d49c7a876c3cfccfadfedaa4b185e30b3a4dfbdb604a7e7d86de609db0ac039206da09171dac782db1f468fc075f59f6768886c6f9753bfcedf51ee3c6e4dbbb0ab345ea6eab4b84da710ce02d87494a34186068876c0d9cdce85fe3741229372fef4908b7092315015dd81719ca4c4a581323317c48f2b7ec00432cadc451b1ff0d9ff1b5bdce0a67ff663040c0f858a1819459edf6b5ccbecabcc535206c9e4ae00f02d17794aa4631a0bfeb5db314e34edd20723b50fb77cedb352988a0583fcc77ffddc65bf9eae173ecff6200ff74cc6915541e657ebad32d3d764022ebe4e7e0a4ce0421c9a0e6090cd8206b963fe7a6a893e57098d75a5a70367c110dd0f9a4abc285d11607078d84602f16fcb1e7852f6db0911b23a87a5ba88eab0dc430a55766a497151fc2b84b1532ce1d3be357034963abc92fab05fc880e392efb687348fc83b83d49aae4ce998ea85783d5fd89aafee3b9b062c133a19a9e1db21dacedb1f6f34af00e30eb30ab984f0af8f70b1b4b749d028d605c168bd0677cb62bfc51d1cb3b6ac1c9c375f19a91c28cd4f921977461006b345c771c455bee02ae20e347d36de3e534e4a0009bf5ee686a7a9dfe5d536aa5ed3dfe5d3ca8c2b38e1dacde094d352b14d6531bee4ac62b9809956bc95264e5381f87a2ca42e4d35b99c40f19709a73523ac8e571f84bfd6b0bb5b538032f657077ec2c5e2c24e2ee0d4652610f11e1c6673739551ef4e2d6ac94dfdf3e95812a9d4d70bb776a36846e0dee3d9b37a42359723734c1fe1274a76b361c040ee1a1ade02561b37128fcff5c19130f87cf529bfd89a5eab15a0e920d32458af068c421f21f83b2a1571013e36273fb5fe9b7a8a8bc6a54d8818b93385b3979ebf116900018b226f494fc0066d7d8948309623957a199c0344612259ff44bd9bdb59fa3a132a6b7e0db2298816d66a21eebdabe57c2e715ebe1683c2ac603fb895fc7954a16f4929b38450a99800998db4bf60a2770e9ef27b5f188be05256fe60190f791bfe451d666976d713759a0e5b54c21a8622c38e585bcbd45c6673bcfb621e0ad8d4ae30a7712d9fdafcc6ab29f709810c1a00a2a555e7b1e5ebbe8f8662c65516e872e89d07ad778114c3c5c0094a22d86c73bd2f1da3b83ce6ebfe352ae6e6273d00b8270e58e119d7acd083be01f26c843da4de51e87babae0374fbd2d85aee70b9a40bcfcdaaa2afbd2aeaea67000000",
  "txid": "b309e5ad709b0e998b249c4fa1af9a5cd65f0842ccfae4d4cf51ed43b3cc9d43",
  "hash": "728f3e476acf7949de31f7f287f889e33bca5733d600b2abf6c35a8e4a5aa8d2",
  "size": 5085,
  "vsize": 2278,
  "version": 1,
  "locktime": 103,
  "vin": [
    {
      "txid": "1f6da5f54e2af5a0181d2d3dd294e8144d0d1b2fd848a06726a1d745da08bfeb",
      "vout": 0,
      "scriptSig": {
        "asm": "",
        "hex": ""
      },
      "txinwitness": [
        "f2961fe9e43efd16c122038234e5d564ed37da80c7f84109c14fa96b73e44772b32f51b2750bbb50ac43b27766c07b1854443726e2a7e0af37a8a2d829a9f073cd46e8661e3de8c247e476d75ecc63495039c67d3412315af0358ecd0a7b96535080483048b9f92fff083fd2e40bc5bb329071ab3b1ea13c208222d21afdb8a45e7f3df1fd263c3605c4bf793db7789a62467a3562aa9c8e221928d1ef0ddedeee5251d8c5aa0b32887959c447263a6cbf924823dcbc9cc93ec29de613c4b179daa8fd88f67ebb160847e1f835e151269b0c90abe7aa6bc982d9421a834f88ad4fd9d52fbf7e3666c71c7431a7a466d684292c2aacc5307ec637bc55d850f89b81adceaff9b323824b3155b622cd58c3b4e3711db7bb5f2e835763cf0ad3a049fdd88760dd39277518436e35deac097e588959d1b42449e0e1c07b4ded7ae529af560f0946c5c7a2c83cdf795ff8c74b51552126d5322cc6eee246340519b3cabff0e21cdc30c5abca9ad4c286a266453e6e629c0fc32c8ac92dfddd7ee716a201b5d72c4e14f4ddef504fa935bb5b5897ee21e7bc6daa51918c204615918616cd43d84b7d92c448403337e1e72e9f0e421a0c649067eaf6db8741112d65a3b1c1498d302037ce7e377260b5b1ff94671e9838ec9f0f6db31a94b3fb65437e9d0adeaa301f4e9126e09ca6f6cba130204d3c96bd4c463de8fb3166ddfd55d78dbb8c9e21bcbb5b0d09c7a65fd83ae6bc2f4be31a27b9772a6b4fe685733b9031fc0f130c644d34fe72da0cdc3d3332f941995fcd9584c712b179387775256a11e50b3d982da20ac64c7fe5dbf686948bfc085a5d89aa062d0f483669db068d218b996cb599128656cc600f6f5f5fdbcaafba3fdcd19ae23ad5b02892160dbc64d0e0a812a71277f11e0dccbe7b2428fb01dbbf2909407699a0e9d4c70add6c4c3969cd7b0c0bed0b3801c1fa9eda3e2dbc522f47d23e59bd9e2e1507455f95b01ed64b56fe7b5463025334f149fde9831e09cfdaad69ef4fc3a3a8db4d7c5a4591d953802d9ff53c7e73d0fe0cd9ef380da41e7867930390507fd5337e8e853979c863b189460701138f259d0b405d819c8d5ba2679e0f51fe4d05eaa58f9671a59dc214d57d47d26cf6b79c06e03c4e7d4898d042fa0489144f6c142fbb8c94f54c1eb82245d0a3dcc8fc79498674a07e94d7e40054f50ede737fdd88fa87c7a14faf8969d2766adddd8914842d74902d5bab99228fff5467ada3cf07d9138340a6b6b75a8a8e7961a51607c853dd3f52a9f2431d50b248ebdf6064a2711d72a7937f9bfd8e026ed33a32cb2c34b369e3aad220db77c34c702059543e12feef36484fc7b1f976ed795e8fe0e7c81f4a4bb58e6d846ac44a0c04bdfa7511a1bc0d5f2405012bdcfd3f1a388c60ea8229869ed0a723e1444e7f14fd4008fb5630e946db2673e8f2cd6ae470cd50d3a5d19963ad58483ab5008ef90f2e51811f1de3866402937dc12723b37c6709350df19a07b56a0ea25eedca1c0e33130e15ad93e60736aeed394e6f9cac84e48e751e69b4663453a2f1922603f5e016486a522bfd0be6951d32c3f46e4ceca34f7b446c5f574a5d691c8f9c67ec09d9505d89f3929c0f8df4474fe3b6bc0116d9d936d6aea3ba812abce4636211937d1163bf2a3a63dbedc3e6be1df9c4d8ff73c59d2e8c3cdb70a237b5ad86364a119a24005bb7aa22cd4e1e0983830f3a3941a107c1da721d797ec431c99c95d6d8bbd0d498166c58be8ed2e74aea8e0dc7d363be860845b635794799fcd946eaf9f7fb8524231a64ea23e3078a86aa5a4fb81dce011bf8dff72bcd0536821b9554444562da501f8840f1cd4db63ec66433c0e83cae54ed60aefadb53e2d1b27fa35d589c5dfb18932b3dcf94821c98b50e540bbafb9e4b6a635494b87d990a92a2f6c2c8be10892a2adfb2aeee1a2303fff8d3ae7885f76e35585ace2fbfd20667b454fe5bcfcf9ebf06d1b0b57463878c5497e059965d1686c717b72c039fac687a4aec76072af46058f33a3da04bb7aa2775c07b32ab1c2e988e377f6cf679edb433bd3f475a74ca297b388244e7944a14cd03bbd5714b2e7a4c772ecbd50d2c0adfd98ef8de1e961e5265742026eec3471ebf17a959c1bed23585a139f20b096e59ad0ab1291fb73d06facd6d3bedc326fd279e23a7301f20d08f956e2c18a0e60a4f8069f102c9651c3004613e255219d4cfbff46a30d5ab7a257dca916d7615628192ddbbf63ef4afc31ec080e856b9c81d94456a8aa3a1251f54b00e1ed0362312d66fa119f61e7f008c899e48000dcd0dba6ab1cc53c1cd3dc216cf4b9e881bfbeb61c5e0a058cf774dffac399d79ee71ad11fa4f97488d08083df97296898558413d3446e3a821387326eb73db045a12c85a998b0ead3270bd558688b1b6cfa061d699c94bc7fd671d2c4fdb5713a7200efefc4ae31fd7ca81cbcafc34c9f1fd56bc99f3e7c1166e2178df71cc3192542e399ff386b46cf71ddee5254221fb31848da77b9c49b2a9da532c2a882fcb81ae145cfaa63cb837291fed9ac35e019efd0594f24b5fe04374cbb15c208dd6a027b08bf7bb8cd633b749b831396d11b447670a40c9a9cb89ecf340f6fe256299161fcff31a2f0ee88d4689b00778839dd2821b12e5b0f90fad18e1163779d0ed42d20bcd5e0d370137b28600b8aaa66bcd486ba04b1c60f0291e1217dd413b55c394f84a0b2c634f36e8cc1e53a2a369987c534db0c7a39d03b5835acd779e3f6577be220de9366819f4a1d54540a50a23a241299a17093bab7a78104882ee3f18ef142d579b2064214f1e6c4a60e0815ba1a2451a95aaff798ccba59937c34df7d3817062a85366b7ae547b83aef5dc66492de15a6c283c915794655967bccf8fc6b958c8639ebf4df68420c5ffe2acfdf8bea3c3580ac4ba1b989ae89068651c4e71f759cd42bc81cd851ee599f6596a801cd3685b5ddd81ef618b5e8c78c1f1f273edec2772b3eed5606a94cb3979ca325581ba81da92ad243ca286bce7cb5e27a730f8db043f6624b320a3ee247931df6b5765b81f1b84aca2c96e81ae43de303cfe2def0946c528599ebfaf4736ed341289473cb61841a53f10b6d77c052d331a7cde362d6c3af58c0d7c94306247ae82b4beeea14b6a94147929c6348f694d4beec138aaf0e4d0ad3dd51ac7bae61f1239f0b9d4e6c905e4a87943ca6b928495cfde8c533ca199ce1db85b40aa096a2f498bef7860fddde6be19d79c707e2648d14501e91605e626871063cb6c27282f333b4344627273768ea4afb2b7c5cad0d4e5f0fa0e1639445b7077808385949babb9bbbec8ced3d4f2292c3b3e4a557095bcc3d2e1e33f5e77868a8b8faab2b8cacbcef6ff0000000000000000172c394801",
        "00996bd8252a6ef04fdaadfe7190c4b95a34df33897ade61a861a7dfb7ab16fc66051d25a0c70f2988111e5913a654e876ada37674346db588783096b5da628eeaab31647a4aa09c280106b0bd95c792d25c735ee0087927e09cf3540d879dc714900eee7bb8adc6f58389e4f3975be4fddde06f7927b5f317b1d98409ec5f794d2efcc29c6554f0229529dcc1477a38770bc8ded800cba218ae52c392069d405cecc58aa576d8f590aedcfe4a02cc95989f3fc0dd9451dd38af6ef3990054ad3d8a0d0aebd3ed50402683a48e35c431d3708abf0d3ef06283c4489b3cf6b9f8cbe4811617230a63ed31866f4e766195195db8941d126f1f71e8e8ce67b33883e2dd762171d39df429167d0e5c5b5673bd838136a493eaae410b060745efa56468cc73d35d2c53036dce9384f40f7462e976db14a593f5e0bf6d6b534442a348f6d82f0ebb7701f58488d3b18771ed69ab47d26a5208c491a726099de52ee90b62fc0029b2f4504310c00f2e61fe171380d78ab34aff7e911276803db6975ce57702f58e6c9b08cc74eb45d7b43278d67ae9d468377f184d4d83489348394820a261e818bc41ba20e143c656cff30a2a11d83fe667466d49c7a876c3cfccfadfedaa4b185e30b3a4dfbdb604a7e7d86de609db0ac039206da09171dac782db1f468fc075f59f6768886c6f9753bfcedf51ee3c6e4dbbb0ab345ea6eab4b84da710ce02d87494a34186068876c0d9cdce85fe3741229372fef4908b7092315015dd81719ca4c4a581323317c48f2b7ec00432cadc451b1ff0d9ff1b5bdce0a67ff663040c0f858a1819459edf6b5ccbecabcc535206c9e4ae00f02d17794aa4631a0bfeb5db314e34edd20723b50fb77cedb352988a0583fcc77ffddc65bf9eae173ecff6200ff74cc6915541e657ebad32d3d764022ebe4e7e0a4ce0421c9a0e6090cd8206b963fe7a6a893e57098d75a5a70367c110dd0f9a4abc285d11607078d84602f16fcb1e7852f6db0911b23a87a5ba88eab0dc430a55766a497151fc2b84b1532ce1d3be357034963abc92fab05fc880e392efb687348fc83b83d49aae4ce998ea85783d5fd89aafee3b9b062c133a19a9e1db21dacedb1f6f34af00e30eb30ab984f0af8f70b1b4b749d028d605c168bd0677cb62bfc51d1cb3b6ac1c9c375f19a91c28cd4f921977461006b345c771c455bee02ae20e347d36de3e534e4a0009bf5ee686a7a9dfe5d536aa5ed3dfe5d3ca8c2b38e1dacde094d352b14d6531bee4ac62b9809956bc95264e5381f87a2ca42e4d35b99c40f19709a73523ac8e571f84bfd6b0bb5b538032f657077ec2c5e2c24e2ee0d4652610f11e1c6673739551ef4e2d6ac94dfdf3e95812a9d4d70bb776a36846e0dee3d9b37a42359723734c1fe1274a76b361c040ee1a1ade02561b37128fcff5c19130f87cf529bfd89a5eab15a0e920d32458af068c421f21f83b2a1571013e36273fb5fe9b7a8a8bc6a54d8818b93385b3979ebf116900018b226f494fc0066d7d8948309623957a199c0344612259ff44bd9bdb59fa3a132a6b7e0db2298816d66a21eebdabe57c2e715ebe1683c2ac603fb895fc7954a16f4929b38450a99800998db4bf60a2770e9ef27b5f188be05256fe60190f791bfe451d666976d713759a0e5b54c21a8622c38e585bcbd45c6673bcfb621e0ad8d4ae30a7712d9fdafcc6ab29f709810c1a00a2a555e7b1e5ebbe8f8662c65516e872e89d07ad778114c3c5c0094a22d86c73bd2f1da3b83ce6ebfe352ae6e6273d00b8270e58e119d7acd083be01f26c843da4de51e87babae0374fbd2d85aee70b9a40bcfcdaaa2afbd2aeaea"
      ],
      "sequence": 4294967294
    }
  ],
  "vout": [
    {
      "value": 1.0,
      "n": 0,
      "scriptPubKey": {
        "asm": "OP_RETURN fb52669aeda4c9a780d0d38735dad1412c9cd2ad1c0fa9408d8bc32193df49a7 b4af1a7c652134d29f10309ecc825345bf5d13f8daf37e78ff3c66edd936fb59948f3a5c450114f2bf3010beeca273659f7d33d8fad35e58df1c46cdf916db79f4ef5a3c25617492df5070de8cc21305ff1d53b89ab33e38bf7c26ad9976bb19d4cf7a1c054154b2ff7050feace23325df3d7398ba931e189f5c068db9569b39342f9afce5a1b4521f90b01e4c02d3c53fdd93785a73fef87fbce66d59b67bd9140fbadcc58194723fb0903e6c22f3e51ffdb3587a53ded85f9cc64d79965bf9746fdabca5e1f4125fd0f05e0c4293857f9dd3381a33beb83ffca62d19f63b99544ffa9c85c1d4327ff0d07e2c62b3a55fbdf3183a139e981fdc860d39d61bb9b4af1a7c652134d29f10309ecc825345bf5d13f8daf37e78ff3c66edd936fb59948f3a5c450114f2bf3010beeca273659f7d33d8fad35e58df1c46cdf916db79f4ef5a3c25617492df5070de8cc21305ff1d53b89ab33e38bf7c26ad9976bb19d4cf7a1c054154b2ff7050feace23325df3d7398ba931e189f5c068db9569b39342f9afce5a1b4521f90b01e4c02d3c53fdd93785a73fef87fbce66d59b67bd9140fbadcc58194723fb0903e6c22f3e51ffdb3587a53ded85f9cc64d79965bf9746fdabca5e1f4125fd0f05e0c4293857f9dd3381a33beb83ffca62d19f63b99544ffa9c85c1d4327ff0d07e2c62b3a55fbdf3183a139e981fdc860d39d61bb9b4af1a7c652134d29f10309ecc825345bf5d13f8daf37e78ff3c66edd936fb59948f3a5c450114f2bf3010beeca273659f7d33d8fad35e58df1c46cdf916db79f4ef5a3c25617492df5070de8cc21305ff1d53b89ab33e38bf7c26ad9976bb19d4cf7a1c054154b2ff7050feace23325df3d7398ba931e189f5c068db9569b39342f9afce5a1b4521f90b01e4c02d3c53fdd93785a73fef87fbce66d59b67bd9140fbadcc58194723fb0903e6c22f3e51ffdb3587a53ded85f9cc64d79965bf9746fdabca5e1f4125fd0f05e0c4293857f9dd3381a33beb83ffca62d19f63b99544ffa9c85c1d4327ff0d07e2c62b3a55fbdf3183a139e981fdc860d39d61bb9b4af1a7c652134d29f10309ecc825345bf5d13f8daf37e78ff3c66edd936fb59948f3a5c450114f2bf3010beeca273659f7d33d8fad35e58df1c46cdf916db79f4ef5a3c25617492df5070de8cc21305ff1d53b89ab33e38bf7c26ad9976bb19d4cf7a1c054154b2ff7050feace23325df3d7398ba931e189f5c068db9569b39342f9afce5a1b4521f90b01e4c02d3c53fdd93785a73fef87fbce66d59b67bd9140fbadcc58194723fb0903e6c22f3e51ffdb3587a53ded85f9cc64d79965bf9746fdabca5e1f4125fd0f05e0c4293857f9dd3381a33beb83ffca62d19f63b99544ffa9c85c1d4327ff0d07e2c62b3a55fbdf3183a139e981fdc860d39d61bb9b4af1a7c652134d29f10309ecc825345bf5d13f8daf37e78ff3c66edd936fb59948f3a5c450114f2bf3010beeca273659f7d33d8fad35e58df1c46cdf916db79f4ef5a3c25617492df5070de8cc21305ff1d53b89ab33e38bf7c26ad9976bb19d4cf7a1c054154b2ff7050feace23325df3d7398ba931e189f5c068db9569b39342f9afce5a1b4521f90b01e4c02d3c5aecd1cd11d2e9e7724bba7b1ea5e8ef30a3574308361e020846820906e37b49f",
        "hex": "6a20fb52669aeda4c9a780d0d38735dad1412c9cd2ad1c0fa9408d8bc32193df49a74db004b4af1a7c652134d29f10309ecc825345bf5d13f8daf37e78ff3c66edd936fb59948f3a5c450114f2bf3010beeca273659f7d33d8fad35e58df1c46cdf916db79f4ef5a3c25617492df5070de8cc21305ff1d53b89ab33e38bf7c26ad9976bb19d4cf7a1c054154b2ff7050feace23325df3d7398ba931e189f5c068db9569b39342f9afce5a1b4521f90b01e4c02d3c53fdd93785a73fef87fbce66d59b67bd9140fbadcc58194723fb0903e6c22f3e51ffdb3587a53ded85f9cc64d79965bf9746fdabca5e1f4125fd0f05e0c4293857f9dd3381a33beb83ffca62d19f63b99544ffa9c85c1d4327ff0d07e2c62b3a55fbdf3183a139e981fdc860d39d61bb9b4af1a7c652134d29f10309ecc825345bf5d13f8daf37e78ff3c66edd936fb59948f3a5c450114f2bf3010beeca273659f7d33d8fad35e58df1c46cdf916db79f4ef5a3c25617492df5070de8cc21305ff1d53b89ab33e38bf7c26ad9976bb19d4cf7a1c054154b2ff7050feace23325df3d7398ba931e189f5c068db9569b39342f9afce5a1b4521f90b01e4c02d3c53fdd93785a73fef87fbce66d59b67bd9140fbadcc58194723fb0903e6c22f3e51ffdb3587a53ded85f9cc64d79965bf9746fdabca5e1f4125fd0f05e0c4293857f9dd3381a33beb83ffca62d19f63b99544ffa9c85c1d4327ff0d07e2c62b3a55fbdf3183a139e981fdc860d39d61bb9b4af1a7c652134d29f10309ecc825345bf5d13f8daf37e78ff3c66edd936fb59948f3a5c450114f2bf3010beeca273659f7d33d8fad35e58df1c46cdf916db79f4ef5a3c25617492df5070de8cc21305ff1d53b89ab33e38bf7c26ad9976bb19d4cf7a1c054154b2ff7050feace23325df3d7398ba931e189f5c068db9569b39342f9afce5a1b4521f90b01e4c02d3c53fdd93785a73fef87fbce66d59b67bd9140fbadcc58194723fb0903e6c22f3e51ffdb3587a53ded85f9cc64d79965bf9746fdabca5e1f4125fd0f05e0c4293857f9dd3381a33beb83ffca62d19f63b99544ffa9c85c1d4327ff0d07e2c62b3a55fbdf3183a139e981fdc860d39d61bb9b4af1a7c652134d29f10309ecc825345bf5d13f8daf37e78ff3c66edd936fb59948f3a5c450114f2bf3010beeca273659f7d33d8fad35e58df1c46cdf916db79f4ef5a3c25617492df5070de8cc21305ff1d53b89ab33e38bf7c26ad9976bb19d4cf7a1c054154b2ff7050feace23325df3d7398ba931e189f5c068db9569b39342f9afce5a1b4521f90b01e4c02d3c53fdd93785a73fef87fbce66d59b67bd9140fbadcc58194723fb0903e6c22f3e51ffdb3587a53ded85f9cc64d79965bf9746fdabca5e1f4125fd0f05e0c4293857f9dd3381a33beb83ffca62d19f63b99544ffa9c85c1d4327ff0d07e2c62b3a55fbdf3183a139e981fdc860d39d61bb9b4af1a7c652134d29f10309ecc825345bf5d13f8daf37e78ff3c66edd936fb59948f3a5c450114f2bf3010beeca273659f7d33d8fad35e58df1c46cdf916db79f4ef5a3c25617492df5070de8cc21305ff1d53b89ab33e38bf7c26ad9976bb19d4cf7a1c054154b2ff7050feace23325df3d7398ba931e189f5c068db9569b39342f9afce5a1b4521f90b01e4c02d3c5aecd1cd11d2e9e7724bba7b1ea5e8ef30a3574308361e020846820906e37b49f",
        "type": "nulldata"
      }
    },
    {
      "value": 499995.9324,
      "n": 1,
      "scriptPubKey": {
        "asm": "1 9e8636d0011de9aa4a04529a3cea06abcb161546d5114dff4d5534a13b90d890",
        "hex": "51209e8636d0011de9aa4a04529a3cea06abcb161546d5114dff4d5534a13b90d890",
        "reqSigs": 1,
        "type": "witness_v1_scripthash",
        "addresses": [
          "3QJmnh"
        ]
      }
    }
  ],
  "blockhash": "15af9b025c636b87e0a10c18a1a8de0e5f3c2069ad563b293161176d75df89a4",
  "confirmations": 1,
  "time": 1764174659,
  "blocktime": 1764174659
}