{
  "hex": "010000000001015b33b68a3c7cfebb94ef7cac6cb67a0a5fbe9aaf77201e24ab699f0f22a263d60000000000feffffff0200e1f50500000000fdd5046a207e699ca1165d15dea900ce56f698b526277c6a97c590eda1ebdcbc4fe4ba4a514db0045ae064ee7ca1f6800fcc33dfd1c03c8c274278b76bdf25a7c4995540bcfbbe627ac044ce5c81d6a02fec13fff1e01cac076258974bff0587e4b975609cdb9e421aa024ae3ce1b6c04f8c739f91807ccc670238f72b9f65e784d91500fcbbfe223a80048e1cc196e06fac53bfb1a05cec472218d70bbf45c7a4f93520dc9bde02da60e46efc2176008f4cb35f5140bc0ca7c2f837eb5fa5274419d5c03c7b3ee2fa40c44edc015620af6c937f71609c2c87e2d817cb7f85076439f5e01c5b1ec29a20a42ebc613640cf0cf31f1100fc4ce782b877ab1fe567045995807c3b7ea2ba00840e9c411660ef2cd33f3120dc6cc7a298578b3fc5472479b5a05c1b5e825ae064ee7ca1f6800fcc33dfd1c03c8c274278b76bdf25a7c4995540bcfbbe627ac044ce5c81d6a02fec13fff1e01cac076258974bff0587e4b975609cdb9e421aa024ae3ce1b6c04f8c739f91807ccc670238f72b9f65e784d91500fcbbfe223a80048e1cc196e06fac53bfb1a05cec472218d70bbf45c7a4f93520dc9bde02da60e46efc2176008f4cb35f5140bc0ca7c2f837eb5fa5274419d5c03c7b3ee2fa40c44edc015620af6c937f71609c2c87e2d817cb7f85076439f5e01c5b1ec29a20a42ebc613640cf0cf31f1100fc4ce782b877ab1fe567045995807c3b7ea2ba00840e9c411660ef2cd33f3120dc6cc7a298578b3fc5472479b5a05c1b5e825ae064ee7ca1f6800fcc33dfd1c03c8c274278b76bdf25a7c4995540bcfbbe627ac044ce5c81d6a02fec13fff1e01cac076258974bff0587e4b975609cdb9e421aa024ae3ce1b6c04f8c739f91807ccc670238f72b9f65e784d91500fcbbfe223a80048e1cc196e06fac53bfb1a05cec472218d70bbf45c7a4f93520dc9bde02da60e46efc2176008f4cb35f5140bc0ca7c2f837eb5fa5274419d5c03c7b3ee2fa40c44edc015620af6c937f71609c2c87e2d817cb7f85076439f5e01c5b1ec29a20a42ebc613640cf0cf31f1100fc4ce782b877ab1fe567045995807c3b7ea2ba00840e9c411660ef2cd33f3120dc6cc7a298578b3fc5472479b5a05c1b5e825ae064ee7ca1f6800fcc33dfd1c03c8c274278b76bdf25a7c4995540bcfbbe627ac044ce5c81d6a02fec13fff1e01cac076258974bff0587e4b975609cdb9e421aa024ae3ce1b6c04f8c739f91807ccc670238f72b9f65e784d91500fcbbfe223a80048e1cc196e06fac53bfb1a05cec472218d70bbf45c7a4f93520dc9bde02da60e46efc2176008f4cb35f5140bc0ca7c2f837eb5fa5274419d5c03c7b3ee2fa40c44edc015620af6c937f71609c2c87e2d817cb7f85076439f5e01c5b1ec29a20a42ebc613640cf0cf31f1100fc4ce782b877ab1fe567045995807c3b7ea2ba00840e9c411660ef2cd33f3120dc6cc7a298578b3fc5472479b5a05c1b5e825ae064ee7ca1f6800fcc33dfd1c03c8c274278b76bdf25a7c4995540bcfbbe627ac044ce5c81d6a02fec13fff1e01cac076258974bff0587e4b975609cdb9e421aa024ae3ce1b6c04f8c739f91807ccc670238f72b9f65e784d91500fcbbfe223a80048e1cc196e06fac53bfb1a05cec472218d70bbf45c7a4f93520dc9bde02da60e46efc2176008f4cb35f5140bc0c0397c1c7c923f6dff457d2ff8b04e9e38c2d76439a543fd207d56847a98feec94021813f792d0000225120412f17dddadcdd8bd9cb0f5e7e7cfc36c41deef9fa9b0c8608679a11d99abadf02fd75099d5a3edba941af05bd9ed04eeaded52cd99c8ed81efad7a790a1b6cc815ae192f6b77a145982b82ea7458a14cae0012579ed5b2875952be11ee6dcdf79e0e3945e006c786d96be0b48ca28532d46e5f7307c6fec7eab224e6c77f1a78f3ce7449e1c595e4113b660c28473c13a9cfa6da2e4551b9225894a7a3d4551a4e442d5e3e4987df272910acc37a6e13840a98a0815933e5e79c63cb87af6260b30154c3d89539b82fabec004fe6f7b39f235ff4825cbc1eedb7f00f91706159c1c3dfd8a9a5c1b1434ff367f4bc29e8688da5afa6887c879b0cd9533be3e69d961088d340e038b0cf79ea2944d5f59fc759bd029a5a8a25f0810d3189716638621c995e3fb99d9764a493bdbeebda8887a1e7d18b3087a80d5bee1e608b990f0b8d7838ee1dcdf1ba3f3a8c16cff9461754f7ab0bb0ffad2509983fe482a22e6a3db5e6952778a19d998b0af11a4e9806cafdaffd07211f40ba66501c0f6ab269cf8167e037595559adfdb8c2519e09f72d7b738aea25f44c321e2eb4e29536f8c53cc47fb3ac7044eed9eb1606ed42a718bbaf02b9eb6390edd6a702b81cc7c9cb1affbcbe1ddc8175f8b27408daa7f7dd9450f2dbb35b8f9858ebc1c9e901d11f646db4457cd4393149da9ef66db9b452949a22d6c5907ce7ee0e481482bf346aab846089d86e3fb37c384a71c172070ccbe6c715158849e1f404f7f0959bc786ba03f36b57ab9202f6db33bf328cf4629e889fd1c88b93a4ec24fb82b1f4baf770ee630e887f4707cfb087ceb61df3daa59dcc43823638cc1192bd667d86cde854d5659d544a116aa341358ba9adf322e95e11eb146efa9ce5d0e3a4ef2ec564ec7a45c7651c86a546c4081d6c7ad748e5e2e867d3a63516f34971daf780d4372c4d551c8cb3492ff27d15b6ddced22bb35166d45ec1497746e6d6d5f9944aa422eb1e7e39f885cfa98c43174e39a82c983440de25f29ea7367f4a6a9e4610f773f52b15d0c8f755838d569cb18e8537b9c782810cddc5ab84b99ee7f3301dadd049db103f0d1389d626e00c7cfb335ee5450c24e2fb9d44072af2745b0d586fe070a09930791615bc18a1497648dc0eff5ac96dfb773d2ca0d953bdcf21bddaa9db60de2b77d60821d9d03418965e56c116646d7b61cd3bcde4b0cd16209fc0ba960ac49f246f749c099dbdbf94413863b1072c7cc659066c92d6595c96fa3678d389175a31d1775b2ff776b1fbb957278dd2c01cc0d50efbe9aaac905c9ed5ae594635465117604abb6607c78212af28aa16c0250da4992931757089a55bed180ea490e4281cee92a9d67a20b82e1afa800a45a26115c170bb1750fd0973115baec4049e010df24f0e8b91bb14ae0bef30181ebc0ad555232e47937d94099fe6bb3ec10eb3d15f73430c06a23399315d232b9bb895fc3b059a6236be48c170d18d9ea6b830b7ec9110482466aec3befcb9c0cf0a641dda13acee9ded3500c0e0cd814cf048201b5ea0599ba66436d28e7f2705ba4a15d9b04bf786e65aec462e5bb18f5a7d1427bfdaee21e1192d017283219d05ac16a5986a6ccf4d750c5d82c28eb5e6f6412def72aada5ba1fd819319b6792abc8d0dabbc15e92e727462815fc6f9d7a5ddbe2a20e81848b48f6988ca4099cd29cea009fb6ea7993ba98a2e6ebfdd20eebf2de033a4181e58a39ccc4c59d07654282b6175fd4696e720732e036b55fd6f0fb640811be6936ca2d9685ce090932959ed7d447889e79552bee44eec50699d51b38af62ef0a6e5c4146bd8c9272a2c801c129421220e137229d47661331197f571711d5e463588469f34c56ec465f930df6f7e3f5d6c879801633ce7969b3e2687856c3bbe73edd1da9e6dc451d4277b3f73402f972b9b07e1a815c2b11cc46975ee2381b86b89055d04f3e58d2e588ec9a911f346281ec59706ea8e52cbf2e600a59e1a3407426c263a8f798b014e3f1b9f519e93da065290a508a7aeb13142eebfd8ce5a5dc61ecde602d231dcba5677f1e8f7eb19d3468af52c99c6582d57d3f0545e7a0809fe624b36bb36c709c6beb778d3b54ef883c1e37b14c6331b0d28ec5b8e820fe6a897257728f29e657dcb9e72a40155dcc0a56673c8c8158b5caec0f273cbfcaf985c4a4019db42fc994d14a3f752579833a622549c7d5cf0762429dbb98926ff2d481a8d9f2522068ec6e343b25d4f7001cc934742246ebdc911aef12b8f438f28bb8ad9ae5d00fd75f7481750568ad20cfffcf23497f148f8eb1276c0a2fddf86b6d7b96e22ac6830c56505be1aadab087fe583a3564fe192818e4c17c3fd0cd03eefcdd142cb54ac8d24b0092822fca63e59484fed310442b269d69d0746702dba82e0f7c700a527a902c3625ea1bcba655f4a4c7082d239d83c379280b0e6c12df66bb659fc68140ef5fc46f0652af99dec00c9cf7dab94d3f0e40caf425d6cfe1c681713bd5c07d6e34efbe763730384bfbddb7d50b39df782fdbb7bfe15775966bed8bb6c03365c9d7d5558833e08ac4038704999b61a613845e43416d22dfd6941460d6cedcdc19bf3f87744000f266f2c3ff50655a59bf0239939737d798b41a2d8c12d7840b30464657cc12212891973f8c3ac03c64b15d965dc77d5b5c921971bb4356da65e906ec6435f3e06fa70953e2d48a33b9c85342165caab8153ec8c0adf2cb66268cfafa05ff6f5074f50fdd810a580686a2f416891acc919a4bf705ec136605010e88eac70b034d3db10c720b535a4b8a3d306e018749d29829f1359998ad4e3334efa5d216cb928d2e075625233908ef47b5625f9ea7fedaee644e28ac61ede96901541230ba490fd3113dfa06f9e589471a24cad2b9c4fe24e7c11944f267d1ad3d0ef8f31ac5ff37b79ebcc216c5d8482fa7ac4acfa1990945aa53441ab654ae1c12686822fed2291e280ae6a7d8c19aadc47d86c1305ec204bdbd9fc4303acf444f24a0cd8b2cfeeafcc5ff411d7512041614fc43a4f822148c681781898700eac9a1402f3f33be487563776488425a5deb56cf3d70c67e48898ac2d8f86ebed923d70469e21ded44eb8de6f96fd8799597503d033570a15328c167bd879f9d7b77b9414457a9d3b62bc88897f64e50da54f8c7bbdf7eba7739a8fa183437863182dd041fc1d6b0735e0360e9f9dbb629155b7076d8555a775a834258a926275d88ac19124e680e3e6099292070c8f1bfddfd7d1e466e6d3c59ed6703cc853ebf7c41d5567b8b17445976ef21a244df558e8328d04da7887d72fb582d43b047f91274872889942d3606081a2533343a52595f8e929da9bbe9f3060e1b232e323c526470777b7d818598a1a5aaafbcd1e3e6edfc0f292a373f5359618fa0a7b0c3d3e4eff9121c23283d4051aeb7c8e1000000000000000000112b3c4701fd2105002c272874a05a637e63a63795d90af5ef84cdb96437df710fa148015d1622dfe240092b9884a8ff2ddb1ca18f3f81f8fcfe700ea17b587d83d902fa8f6691491fe17a365e46c3254fd52a7f0d09599fd1a34b54b99f6628ce1728899612f8509617997c44a0d14cc795d5bf8bb199ec06c6a098c1be4f6e7524861e76c856be308841b3a3168b852aa236da2aef14898182865d3cc99ad21bf87ca76dac6d4fd491e4832aa3fdb06f4b2cdb021e7e6a300bfe50e9d74f4be5b12b8c6ff2a7a515afed88558ec658bdc7fe16ce13bf4a73fdcfb8f1365aa14a8e6ea853b3295208aa9a277009f846da9f694ef011af69ae091c09f35c85f399f1f5ba36a27d4932a3a62969d75ef37554f21246b9a30bb81c133775e69a5b9bf9076227a37536e1a32a55520b708a30f55c80ca10117c4c9c993204548be08298b2e304fd559b00066897c36e68f81f2cd55b4fa6aa1056f91d2f206dda40f761f04f17de8125ea8ff13a8c61582473b013c1f673466846f6ba4ccd3dd2d0f598ad30525c782959f9b350ea4b5e9af74d7bf2fd9828be3162d58e5ccdc4fe4b532244bbca6e47f160806b1b4879ab5900b44be20a0606ef52e85a5fd9c61093432f07c7714de717b0e4141fca48d521b36e87838bd27a92a58115e076f99e88cb06756505fae4e2a7d523a8dcebe64d2ecf35c33a7610e19573cf909679df4b633a3eb1a1d955a89c2e7f53dbd1a1c70c343097534a56f17cfffdcc000148c9bb146d8d4ea9ae28e205909fc625f4398988e77bde45d0d55c231b9e300da8040e8c46645f7cf466dc6246be0035da7f4f64d56b9b97b9e588443b9c4ee7fa8b910e3e31fde2269fb1d269b38c2edcab276459f2cfde9382e82aa697a6984f762438c117b32083d6d28acdc657b3e52f02bcffd3f416df73c537378e8f7dbbeb3a18145a106b8d8d20c29c87e7b558a19546f727f379359008c89efd8d43c74415662439e4f4f03afd766af186766ebc131ed7dc1e9e8324c4266a99fbe31a585d2265fe2fa2b649ca74cccd018700543ccf1344a47324bd83d296510ed775a07108427033a9b4f7e411d0599055f824ebf925d4926089653a47f807b4c77855629c22856db121d4e520a62ad07408cc8e4f1f8511accee885ab039f6765ebadbd7f73a42d4ca16f68724bcdd6db99ae8e239b6c6cf416ab74876eed5bd4b7ab7a63d0bfde6d2b4b56808a14ef204ef7ffcc1a2b2b25d70fb03933dcddcb249a04747398159a208dc14ab284cc46f54e7886f3df8aab63f13e498162d107bec87b4266fdd1878dae24124e09b30070eb4df5b43390e6e21ea0c7c6ce57dbfe79be2a2d81e3960379d52783d53d374391c051fb14f66bf9f6c20ce29e84854f5fbeed1f19f5a16cf06d38ed9f1d74a25a387e609a5a749de74228f2116022d71893dd41fcb5ee6a11043fc941de146011852f6771556edf17680acba94bb0e8803ba71122374c68731fe616d6e186ee983dfaf5e9853ef0ae00fc62b25a296129e4d9aa1c0d89a800698bc824f34c3b56c8dd4528c23d3a1f22ee3f641035d0dc6d13368e37d7b5f01f9bddb4f93d4ad9ad699f8acb86f72ebb085ffb48892162c8bac079f37352831e961574f9408ce498717dd207fc1e7b0dec170941119a7f88498454936228b316431fb46fae4925df386226da75242c7ed77af7a0c346224e8578bb73275c774119ea43251bc17746bbe731b082bb0c1911017b03eb2f94f2facc922822a4d9d9b1d76f785f7d2cddeff370661de8491f71cf7a2ce17ec4bc4a909990e66c9917170bc269ddb07998307783d6a4fb95118594552ffe5a021070d74f07a844726b000000",
  "txid": "b09be656e9a90a82ab76da62ec365928f3be523a05c94bd4544c358753cc9252",
  "hash": "950307586fd15ba039215c3e0a185b2b11dcca08e326abbfe3bf0a3468031f78",
  "size": 5085,
  "vsize": 2278,
  "version": 1,
  "locktime": 107,
  "vin": [
    {
      "txid": "d663a2220f9f69ab241e2077af9abe5f0a7ab66cac7cef94bbfe7c3c8ab6335b",
      "vout": 0,
      "scriptSig": {
        "asm": "",
        "hex": ""
      },
      "txinwitness": [
        "9d5a3edba941af05bd9ed04eeaded52cd99c8ed81efad7a790a1b6cc815ae192f6b77a145982b82ea7458a14cae0012579ed5b2875952be11ee6dcdf79e0e3945e006c786d96be0b48ca28532d46e5f7307c6fec7eab224e6c77f1a78f3ce7449e1c595e4113b660c28473c13a9cfa6da2e4551b9225894a7a3d4551a4e442d5e3e4987df272910acc37a6e13840a98a0815933e5e79c63cb87af6260b30154c3d89539b82fabec004fe6f7b39f235ff4825cbc1eedb7f00f91706159c1c3dfd8a9a5c1b1434ff367f4bc29e8688da5afa6887c879b0cd9533be3e69d961088d340e038b0cf79ea2944d5f59fc759bd029a5a8a25f0810d3189716638621c995e3fb99d9764a493bdbeebda8887a1e7d18b3087a80d5bee1e608b990f0b8d7838ee1dcdf1ba3f3a8c16cff9461754f7ab0bb0ffad2509983fe482a22e6a3db5e6952778a19d998b0af11a4e9806cafdaffd07211f40ba66501c0f6ab269cf8167e037595559adfdb8c2519e09f72d7b738aea25f44c321e2eb4e29536f8c53cc47fb3ac7044eed9eb1606ed42a718bbaf02b9eb6390edd6a702b81cc7c9cb1affbcbe1ddc8175f8b27408daa7f7dd9450f2dbb35b8f9858ebc1c9e901d11f646db4457cd4393149da9ef66db9b452949a22d6c5907ce7ee0e481482bf346aab846089d86e3fb37c384a71c172070ccbe6c715158849e1f404f7f0959bc786ba03f36b57ab9202f6db33bf328cf4629e889fd1c88b93a4ec24fb82b1f4baf770ee630e887f4707cfb087ceb61df3daa59dcc43823638cc1192bd667d86cde854d5659d544a116aa341358ba9adf322e95e11eb146efa9ce5d0e3a4ef2ec564ec7a45c7651c86a546c4081d6c7ad748e5e2e867d3a63516f34971daf780d4372c4d551c8cb3492ff27d15b6ddced22bb35166d45ec1497746e6d6d5f9944aa422eb1e7e39f885cfa98c43174e39a82c983440de25f29ea7367f4a6a9e4610f773f52b15d0c8f755838d569cb18e8537b9c782810cddc5ab84b99ee7f3301dadd049db103f0d1389d626e00c7cfb335ee5450c24e2fb9d44072af2745b0d586fe070a09930791615bc18a1497648dc0eff5ac96dfb773d2ca0d953bdcf21bddaa9db60de2b77d60821d9d03418965e56c116646d7b61cd3bcde4b0cd16209fc0ba960ac49f246f749c099dbdbf94413863b1072c7cc659066c92d6595c96fa3678d389175a31d1775b2ff776b1fbb957278dd2c01cc0d50efbe9aaac905c9ed5ae594635465117604abb6607c78212af28aa16c0250da4992931757089a55bed180ea490e4281cee92a9d67a20b82e1afa800a45a26115c170bb1750fd0973115baec4049e010df24f0e8b91bb14ae0bef30181ebc0ad555232e47937d94099fe6bb3ec10eb3d15f73430c06a23399315d232b9bb895fc3b059a6236be48c170d18d9ea6b830b7ec9110482466aec3befcb9c0cf0a641dda13acee9ded3500c0e0cd814cf048201b5ea0599ba66436d28e7f2705ba4a15d9b04bf786e65aec462e5bb18f5a7d1427bfdaee21e1192d017283219d05ac16a5986a6ccf4d750c5d82c28eb5e6f6412def72aada5ba1fd819319b6792abc8d0dabbc15e92e727462815fc6f9d7a5ddbe2a20e81848b48f6988ca4099cd29cea009fb6ea7993ba98a2e6ebfdd20eebf2de033a4181e58a39ccc4c59d07654282b6175fd4696e720732e036b55fd6f0fb640811be6936ca2d9685ce090932959ed7d447889e79552bee44eec50699d51b38af62ef0a6e5c4146bd8c9272a2c801c129421220e137229d47661331197f571711d5e463588469f34c56ec465f930df6f7e3f5d6c879801633ce7969b3e2687856c3bbe73edd1da9e6dc451d4277b3f73402f972b9b07e1a815c2b11cc46975ee2381b86b89055d04f3e58d2e588ec9a911f346281ec59706ea8e52cbf2e600a59e1a3407426c263a8f798b014e3f1b9f519e93da065290a508a7aeb13142eebfd8ce5a5dc61ecde602d231dcba5677f1e8f7eb19d3468af52c99c6582d57d3f0545e7a0809fe624b36bb36c709c6beb778d3b54ef883c1e37b14c6331b0d28ec5b8e820fe6a897257728f29e657dcb9e72a40155dcc0a56673c8c8158b5caec0f273cbfcaf985c4a4019db42fc994d14a3f752579833a622549c7d5cf0762429dbb98926ff2d481a8d9f2522068ec6e343b25d4f7001cc934742246ebdc911aef12b8f438f28bb8ad9ae5d00fd75f7481750568ad20cfffcf23497f148f8eb1276c0a2fddf86b6d7b96e22ac6830c56505be1aadab087fe583a3564fe192818e4c17c3fd0cd03eefcdd142cb54ac8d24b0092822fca63e59484fed310442b269d69d0746702dba82e0f7c700a527a902c3625ea1bcba655f4a4c7082d239d83c379280b0e6c12df66bb659fc68140ef5fc46f0652af99dec00c9cf7dab94d3f0e40caf425d6cfe1c681713bd5c07d6e34efbe763730384bfbddb7d50b39df782fdbb7bfe15775966bed8bb6c03365c9d7d5558833e08ac4038704999b61a613845e43416d22dfd6941460d6cedcdc19bf3f87744000f266f2c3ff50655a59bf0239939737d798b41a2d8c12d7840b30464657cc12212891973f8c3ac03c64b15d965dc77d5b5c921971bb4356da65e906ec6435f3e06fa70953e2d48a33b9c85342165caab8153ec8c0adf2cb66268cfafa05ff6f5074f50fdd810a580686a2f416891acc919a4bf705ec136605010e88eac70b034d3db10c720b535a4b8a3d306e018749d29829f1359998ad4e3334efa5d216cb928d2e075625233908ef47b5625f9ea7fedaee644e28ac61ede96901541230ba490fd3113dfa06f9e589471a24cad2b9c4fe24e7c11944f267d1ad3d0ef8f31ac5ff37b79ebcc216c5d8482fa7ac4acfa1990945aa53441ab654ae1c12686822fed2291e280ae6a7d8c19aadc47d86c1305ec204bdbd9fc4303acf444f24a0cd8b2cfeeafcc5ff411d7512041614fc43a4f822148c681781898700eac9a1402f3f33be487563776488425a5deb56cf3d70c67e48898ac2d8f86ebed923d70469e21ded44eb8de6f96fd8799597503d033570a15328c167bd879f9d7b77b9414457a9d3b62bc88897f64e50da54f8c7bbdf7eba7739a8fa183437863182dd041fc1d6b0735e0360e9f9dbb629155b7076d8555a775a834258a926275d88ac19124e680e3e6099292070c8f1bfddfd7d1e466e6d3c59ed6703cc853ebf7c41d5567b8b17445976ef21a244df558e8328d04da7887d72fb582d43b047f91274872889942d3606081a2533343a52595f8e929da9bbe9f3060e1b232e323c526470777b7d818598a1a5aaafbcd1e3e6edfc0f292a373f5359618fa0a7b0c3d3e4eff9121c23283d4051aeb7c8e1000000000000000000112b3c4701",
        "002c272874a05a637e63a63795d90af5ef84cdb96437df710fa148015d1622dfe240092b9884a8ff2ddb1ca18f3f81f8fcfe700ea17b587d83d902fa8f6691491fe17a365e46c3254fd52a7f0d09599fd1a34b54b99f6628ce1728899612f8509617997c44a0d14cc795d5bf8bb199ec06c6a098c1be4f6e7524861e76c856be308841b3a3168b852aa236da2aef14898182865d3cc99ad21bf87ca76dac6d4fd491e4832aa3fdb06f4b2cdb021e7e6a300bfe50e9d74f4be5b12b8c6ff2a7a515afed88558ec658bdc7fe16ce13bf4a73fdcfb8f1365aa14a8e6ea853b3295208aa9a277009f846da9f694ef011af69ae091c09f35c85f399f1f5ba36a27d4932a3a62969d75ef37554f21246b9a30bb81c133775e69a5b9bf9076227a37536e1a32a55520b708a30f55c80ca10117c4c9c993204548be08298b2e304fd559b00066897c36e68f81f2cd55b4fa6aa1056f91d2f206dda40f761f04f17de8125ea8ff13a8c61582473b013c1f673466846f6ba4ccd3dd2d0f598ad30525c782959f9b350ea4b5e9af74d7bf2fd9828be3162d58e5ccdc4fe4b532244bbca6e47f160806b1b4879ab5900b44be20a0606ef52e85a5fd9c61093432f07c7714de717b0e4141fca48d521b36e87838bd27a92a58115e076f99e88cb06756505fae4e2a7d523a8dcebe64d2ecf35c33a7610e19573cf909679df4b633a3eb1a1d955a89c2e7f53dbd1a1c70c343097534a56f17cfffdcc000148c9bb146d8d4ea9ae28e205909fc625f4398988e77bde45d0d55c231b9e300da8040e8c46645f7cf466dc6246be0035da7f4f64d56b9b97b9e588443b9c4ee7fa8b910e3e31fde2269fb1d269b38c2edcab276459f2cfde9382e82aa697a6984f762438c117b32083d6d28acdc657b3e52f02bcffd3f416df73c537378e8f7dbbeb3a18145a106b8d8d20c29c87e7b558a19546f727f379359008c89efd8d43c74415662439e4f4f03afd766af186766ebc131ed7dc1e9e8324c4266a99fbe31a585d2265fe2fa2b649ca74cccd018700543ccf1344a47324bd83d296510ed775a07108427033a9b4f7e411d0599055f824ebf925d4926089653a47f807b4c77855629c22856db121d4e520a62ad07408cc8e4f1f8511accee885ab039f6765ebadbd7f73a42d4ca16f68724bcdd6db99ae8e239b6c6cf416ab74876eed5bd4b7ab7a63d0bfde6d2b4b56808a14ef204ef7ffcc1a2b2b25d70fb03933dcddcb249a04747398159a208dc14ab284cc46f54e7886f3df8aab63f13e498162d107bec87b4266fdd1878dae24124e09b30070eb4df5b43390e6e21ea0c7c6ce57dbfe79be2a2d81e3960379d52783d53d374391c051fb14f66bf9f6c20ce29e84854f5fbeed1f19f5a16cf06d38ed9f1d74a25a387e609a5a749de74228f2116022d71893dd41fcb5ee6a11043fc941de146011852f6771556edf17680acba94bb0e8803ba71122374c68731fe616d6e186ee983dfaf5e9853ef0ae00fc62b25a296129e4d9aa1c0d89a800698bc824f34c3b56c8dd4528c23d3a1f22ee3f641035d0dc6d13368e37d7b5f01f9bddb4f93d4ad9ad699f8acb86f72ebb085ffb48892162c8bac079f37352831e961574f9408ce498717dd207fc1e7b0dec170941119a7f88498454936228b316431fb46fae4925df386226da75242c7ed77af7a0c346224e8578bb73275c774119ea43251bc17746bbe731b082bb0c1911017b03eb2f94f2facc922822a4d9d9b1d76f785f7d2cddeff370661de8491f71cf7a2ce17ec4bc4a909990e66c9917170bc269ddb07998307783d6a4fb95118594552ffe5a021070d74f07a84472"
      ],
      "sequence": 4294967294
    }
  ],
  "vout": [
    {
      "value": 1.0,
      "n": 0,
      "scriptPubKey": {
        "asm": "OP_RETURN 7e699ca1165d15dea900ce56f698b526277c6a97c590eda1ebdcbc4fe4ba4a51 5ae064ee7ca1f6800fcc33dfd1c03c8c274278b76bdf25a7c4995540bcfbbe627ac044ce5c81d6a02fec13fff1e01cac076258974bff0587e4b975609cdb9e421aa024ae3ce1b6c04f8c739f91807ccc670238f72b9f65e784d91500fcbbfe223a80048e1cc196e06fac53bfb1a05cec472218d70bbf45c7a4f93520dc9bde02da60e46efc2176008f4cb35f5140bc0ca7c2f837eb5fa5274419d5c03c7b3ee2fa40c44edc015620af6c937f71609c2c87e2d817cb7f85076439f5e01c5b1ec29a20a42ebc613640cf0cf31f1100fc4ce782b877ab1fe567045995807c3b7ea2ba00840e9c411660ef2cd33f3120dc6cc7a298578b3fc5472479b5a05c1b5e825ae064ee7ca1f6800fcc33dfd1c03c8c274278b76bdf25a7c4995540bcfbbe627ac044ce5c81d6a02fec13fff1e01cac076258974bff0587e4b975609cdb9e421aa024ae3ce1b6c04f8c739f91807ccc670238f72b9f65e784d91500fcbbfe223a80048e1cc196e06fac53bfb1a05cec472218d70bbf45c7a4f93520dc9bde02da60e46efc2176008f4cb35f5140bc0ca7c2f837eb5fa5274419d5c03c7b3ee2fa40c44edc015620af6c937f71609c2c87e2d817cb7f85076439f5e01c5b1ec29a20a42ebc613640cf0cf31f1100fc4ce782b877ab1fe567045995807c3b7ea2ba00840e9c411660ef2cd33f3120dc6cc7a298578b3fc5472479b5a05c1b5e825ae064ee7ca1f6800fcc33dfd1c03c8c274278b76bdf25a7c4995540bcfbbe627ac044ce5c81d6a02fec13fff1e01cac076258974bff0587e4b975609cdb9e421aa024ae3ce1b6c04f8c739f91807ccc670238f72b9f65e784d91500fcbbfe223a80048e1cc196e06fac53bfb1a05cec472218d70bbf45c7a4f93520dc9bde02da60e46efc2176008f4cb35f5140bc0ca7c2f837eb5fa5274419d5c03c7b3ee2fa40c44edc015620af6c937f71609c2c87e2d817cb7f85076439f5e01c5b1ec29a20a42ebc613640cf0cf31f1100fc4ce782b877ab1fe567045995807c3b7ea2ba00840e9c411660ef2cd33f3120dc6cc7a298578b3fc5472479b5a05c1b5e825ae064ee7ca1f6800fcc33dfd1c03c8c274278b76bdf25a7c4995540bcfbbe627ac044ce5c81d6a02fec13fff1e01cac076258974bff0587e4b975609cdb9e421aa024ae3ce1b6c04f8c739f91807ccc670238f72b9f65e784d91500fcbbfe223a80048e1cc196e06fac53bfb1a05cec472218d70bbf45c7a4f93520dc9bde02da60e46efc2176008f4cb35f5140bc0ca7c2f837eb5fa5274419d5c03c7b3ee2fa40c44edc015620af6c937f71609c2c87e2d817cb7f85076439f5e01c5b1ec29a20a42ebc613640cf0cf31f1100fc4ce782b877ab1fe567045995807c3b7ea2ba00840e9c411660ef2cd33f3120dc6cc7a298578b3fc5472479b5a05c1b5e825ae064ee7ca1f6800fcc33dfd1c03c8c274278b76bdf25a7c4995540bcfbbe627ac044ce5c81d6a02fec13fff1e01cac076258974bff0587e4b975609cdb9e421aa024ae3ce1b6c04f8c739f91807ccc670238f72b9f65e784d91500fcbbfe223a80048e1cc196e06fac53bfb1a05cec472218d70bbf45c7a4f93520dc9bde02da60e46efc2176008f4cb35f5140bc0c0397c1c7c923f6dff457d2ff8b04e9e38c2d76439a543fd207d56847a98feec9",
        "hex": "6a207e699ca1165d15dea900ce56f698b526277c6a97c590eda1ebdcbc4fe4ba4a514db0045ae064ee7ca1f6800fcc33dfd1c03c8c274278b76bdf25a7c4995540bcfbbe627ac044ce5c81d6a02fec13fff1e01cac076258974bff0587e4b975609cdb9e421aa024ae3ce1b6c04f8c739f91807ccc670238f72b9f65e784d91500fcbbfe223a80048e1cc196e06fac53bfb1a05cec472218d70bbf45c7a4f93520dc9bde02da60e46efc2176008f4cb35f5140bc0ca7c2f837eb5fa5274419d5c03c7b3ee2fa40c44edc015620af6c937f71609c2c87e2d817cb7f85076439f5e01c5b1ec29a20a42ebc613640cf0cf31f1100fc4ce782b877ab1fe567045995807c3b7ea2ba00840e9c411660ef2cd33f3120dc6cc7a298578b3fc5472479b5a05c1b5e825ae064ee7ca1f6800fcc33dfd1c03c8c274278b76bdf25a7c4995540bcfbbe627ac044ce5c81d6a02fec13fff1e01cac076258974bff0587e4b975609cdb9e421aa024ae3ce1b6c04f8c739f91807ccc670238f72b9f65e784d91500fcbbfe223a80048e1cc196e06fac53bfb1a05cec472218d70bbf45c7a4f93520dc9bde02da60e46efc2176008f4cb35f5140bc0ca7c2f837eb5fa5274419d5c03c7b3ee2fa40c44edc015620af6c937f71609c2c87e2d817cb7f85076439f5e01c5b1ec29a20a42ebc613640cf0cf31f1100fc4ce782b877ab1fe567045995807c3b7ea2ba00840e9c411660ef2cd33f3120dc6cc7a298578b3fc5472479b5a05c1b5e825ae064ee7ca1f6800fcc33dfd1c03c8c274278b76bdf25a7c4995540bcfbbe627ac044ce5c81d6a02fec13fff1e01cac076258974bff0587e4b975609cdb9e421aa024ae3ce1b6c04f8c739f91807ccc670238f72b9f65e784d91500fcbbfe223a80048e1cc196e06fac53bfb1a05cec472218d70bbf45c7a4f93520dc9bde02da60e46efc2176008f4cb35f5140bc0ca7c2f837eb5fa5274419d5c03c7b3ee2fa40c44edc015620af6c937f71609c2c87e2d817cb7f85076439f5e01c5b1ec29a20a42ebc613640cf0cf31f1100fc4ce782b877ab1fe567045995807c3b7ea2ba00840e9c411660ef2cd33f3120dc6cc7a298578b3fc5472479b5a05c1b5e825ae064ee7ca1f6800fcc33dfd1c03c8c274278b76bdf25a7c4995540bcfbbe627ac044ce5c81d6a02fec13fff1e01cac076258974bff0587e4b975609cdb9e421aa024ae3ce1b6c04f8c739f91807ccc670238f72b9f65e784d91500fcbbfe223a80048e1cc196e06fac53bfb1a05cec472218d70bbf45c7a4f93520dc9bde02da60e46efc2176008f4cb35f5140bc0ca7c2f837eb5fa5274419d5c03c7b3ee2fa40c44edc015620af6c937f71609c2c87e2d817cb7f85076439f5e01c5b1ec29a20a42ebc613640cf0cf31f1100fc4ce782b877ab1fe567045995807c3b7ea2ba00840e9c411660ef2cd33f3120dc6cc7a298578b3fc5472479b5a05c1b5e825ae064ee7ca1f6800fcc33dfd1c03c8c274278b76bdf25a7c4995540bcfbbe627ac044ce5c81d6a02fec13fff1e01cac076258974bff0587e4b975609cdb9e421aa024ae3ce1b6c04f8c739f91807ccc670238f72b9f65e784d91500fcbbfe223a80048e1cc196e06fac53bfb1a05cec472218d70bbf45c7a4f93520dc9bde02da60e46efc2176008f4cb35f5140bc0c0397c1c7c923f6dff457d2ff8b04e9e38c2d76439a543fd207d56847a98feec9",
        "type": "nulldata"
      }
    },
    {
      "value": 499987.7972,
      "n": 1,
      "scriptPubKey": {
        "asm": "1 412f17dddadcdd8bd9cb0f5e7e7cfc36c41deef9fa9b0c8608679a11d99abadf",
        "hex": "5120412f17dddadcdd8bd9cb0f5e7e7cfc36c41deef9fa9b0c8608679a11d99abadf",
        "reqSigs": 1,
        "type": "witness_v1_scripthash",
        "addresses": [
          "3QJmnh"
        ]
      }
    }
  ],
  "blockhash": "70f7ec20af3843e0d144de9ce3637c8baa62723aad58289fd59c71fdb9075fdf",
  "confirmations": 1,
  "time": 1764177228,
  "blocktime": 1764177228
}