{
  "hex": "01000000000101243c6c16c696f41ad474ef35dc9a84984473b537e4780930bec28e8a9841456e0000000000feffffff02a077e402792d0000225120d7a3f67a337602a2db298276cbbaa149da1a2ef7b3afb43fb11ee93e098e491b00e1f50500000000fdd5046a2085690443d11acbfa3c5a443e59c9847f4707b5953dda10082c0aa33e444c68804db004da2c382488637ab3c05bb4a522188994412c36651f9ed30eae0a5e32df941301fa0c1804a8435a93e07b94850238a9b4610c16453fbef32e8e2a7e12ffb433219a6c7864c8233af3801bf4e56258c9d4016c76255fde934eee4a1e729fd45341ba4c5844e8031ad3a03bd4c54278e9f4214c56057ffeb36ece6a3e52bff473615aacb8a408e3fa3340db3425a2980914c1acb6e59f1e538e2e8adeb25f1493817a8c988428c3da1360fb140582b82934e18c96c5bf3e73ae0eaafe927f34b3a11aecf8e448a3ba73009b7465e2d8495481ecf6a5df5e13ce6eca9ef21f54d3c13accd8c468839a5320bb5445c2f86974a1ccd685ff7e33ee4eeabed23f74f3e1da2c382488637ab3c05bb4a522188994412c36651f9ed30eae0a5e32df941301fa0c1804a8435a93e07b94850238a9b4610c16453fbef32e8e2a7e12ffb433219a6c7864c8233af3801bf4e56258c9d4016c76255fde934eee4a1e729fd45341ba4c5844e8031ad3a03bd4c54278e9f4214c56057ffeb36ece6a3e52bff473615aacb8a408e3fa3340db3425a2980914c1acb6e59f1e538e2e8adeb25f1493817a8c988428c3da1360fb140582b82934e18c96c5bf3e73ae0eaafe927f34b3a11aecf8e448a3ba73009b7465e2d8495481ecf6a5df5e13ce6eca9ef21f54d3c13accd8c468839a5320bb5445c2f86974a1ccd685ff7e33ee4eeabed23f74f3e1da2c382488637ab3c05bb4a522188994412c36651f9ed30eae0a5e32df941301fa0c1804a8435a93e07b94850238a9b4610c16453fbef32e8e2a7e12ffb433219a6c7864c8233af3801bf4e56258c9d4016c76255fde934eee4a1e729fd45341ba4c5844e8031ad3a03bd4c54278e9f4214c56057ffeb36ece6a3e52bff473615aacb8a408e3fa3340db3425a2980914c1acb6e59f1e538e2e8adeb25f1493817a8c988428c3da1360fb140582b82934e18c96c5bf3e73ae0eaafe927f34b3a11aecf8e448a3ba73009b7465e2d8495481ecf6a5df5e13ce6eca9ef21f54d3c13accd8c468839a5320bb5445c2f86974a1ccd685ff7e33ee4eeabed23f74f3e1da2c382488637ab3c05bb4a522188994412c36651f9ed30eae0a5e32df941301fa0c1804a8435a93e07b94850238a9b4610c16453fbef32e8e2a7e12ffb433219a6c7864c8233af3801bf4e56258c9d4016c76255fde934eee4a1e729fd45341ba4c5844e8031ad3a03bd4c54278e9f4214c56057ffeb36ece6a3e52bff473615aacb8a408e3fa3340db3425a2980914c1acb6e59f1e538e2e8adeb25f1493817a8c988428c3da1360fb140582b82934e18c96c5bf3e73ae0eaafe927f34b3a11aecf8e448a3ba73009b7465e2d8495481ecf6a5df5e13ce6eca9ef21f54d3c13accd8c468839a5320bb5445c2f86974a1ccd685ff7e33ee4eeabed23f74f3e1da2c382488637ab3c05bb4a522188994412c36651f9ed30eae0a5e32df941301fa0c1804a8435a93e07b94850238a9b4610c16453fbef32e8e2a7e12ffb433219a6c7864c8233af3801bf4e56258c9d4016c76255fde934eee4a1e729fd45341ba4c5844e8031ad3a03bd4c54278e9f4214c56057ffeb36ece6a3e52bff473615aacb8a408e3fa3340db3425a2980914d1c6b5a30d9b8f56fb0c389db2fe2f550ffd0e0da47bdb4c710f6086623b472b02fd75092ad2e5220ecdc7690c46b76742f2da6613470d400a28adc28d9f874aad00ee25f11f867962fd28831c89fa04c0f64fcdea4249f0e796b101c21bcfd961a7dc9521ad5b951f7d76552611dc1dc5559985e86c8d52a6693bb4af67adc807ca25015def2eb91bb08dbc6a55bf1e2952b866b25bcff40ca76761139a5a072823584e2d66cb3d9a3bf06255c452c83174ee1cf2649ffdeac017528308f98a94160f0bf3e554857cd22f4b253a17332e0aa99dee2a82b9156115eadff0bc65698674611de0478690e6e97d0376e9d9899ecc4583d95d6e0eca88b66c77b9529509ae72acf1581dd2db1a9210e222a8cd6b1dc788728ed21708ce6188c4ce19eea5ba200546d9402bd94b8dd2f3ea0ffcc309e334481496dbec53c5b9805fd747fb217d34a6ef74237929e3a8e494cd8a399f1f4b9ed9e76b71304d70a2ea2c785db53081204380280403bbff6f95b2e6e0bcfafd9ea293414cfc176b4d31db419c92be93d2eb516ddebd8a5a325c78a42f6612d16d60d72d956b185aa5c489d83714cc8135c8ccf10dc18768c06b762cacb475738a76078b3c71b9ee412e0a2a0cfd046a5478c327d0d945871d6c8169d056a0dcd6faaefc087d2dea2032cdc0f11a611f9561cdaf4b2a7302b186fd88dbaaf599c643ea8946a1b0a8bd453ac71e42e394b7db981bc814d1d33b2b17bf632d51b660db2b31b494f23304cf3ee7ac5e1bbbaa34510a8d59d2c98b56f63612360ec49bd8b65d8125a10dafb9193ed5a90eb1367bbf9d62a24f5dc94b0947c37983e321acf4d1df8456d1aec07739291e7fc51a3ac44e2414cb4c0099abd8c74b21e8d6302826b00bf13cbaf03f3242bc0860378fcd81dd33e0e285f5f805d78295ade7f3eff68647963fdcd819f76fb472647c0c50ed0f2a21d907dcdba3a8fd000404bc33041806bc4dcca52c2d0f7ebc82b0f97842ecf6347d0b265abd0dbe7f86dbf0bc8643485b9415413f9b9e34034c1afd58c3b72636f3b4b72c667ab415245202a8529665a5ed0bae2c20a180e599380802e6ec1ff1296923f690f8abef65a61d97ffd1476912c103619d71eb56e41c201fb3225462114546c7f661e83fa63a2cdb35cfeb1abcc6859d55dff82d2ecbac6e3b4856135ffcf40de292a63306725a512d42f6315253f19e661a659a870988af98a602d084e2e1e2e74c88b0db082e15303b44553539c67e271262214e34d5b45bebb510d270eeca9b94798e55f65389e4a78e07d61290d3d96744363c82efed4dfb57028bd60c917baf587c97c2723607522869b8511536fffc0634f3e7065887e6648df5074d13d41e637b501913f049f00effb3c9d6e577815dba90ea5dd11862d71b9dc312699c193d1373c317aed055221233aae698921f646d7d3fa764ded125f257108d54759b49ca6723d9daa0150fef3e628a81609990439a72401d89d597ac330c2d77873baaeeba1654538bd97178a1b4c23c06046c893c306ec6e64948fdd999a2f0091ea4f50164dc007860eb8318d2ae4d4c9da032c32d184ec9fab8782d755a9700e5c4e286122e549ddf0f120861606bb7e95f837e58fb6bf59361a67fd864d88e286e2acc53b9919d45f344d6091d5216ad9b142f01ea789236d55ce77cb4bcd2e99b811fd8e5ce92178ef9a69f95860d20e37b62f31d68cfe86001fd5c560370ee4a9110197ca90285644258a1f679696316151323ecb13f32bae7e076d5c5c507845990f68c9b18b45da757414fcfcde734d5af479ad0cd2c342098ee4ba141af17562414f6fe24ab5a62cc0e1210eda7126c0232444465e18139195c705c88854f26af45ba1c04738f14231c555851ba8e58b04b9a87db6891ef49b354105ece77510430e19289020e2a9196ed684fc6960bd5d9f424c402415ff7aee3292e8be74d3581492a02268812c34fdbe0200fd4f54c5aa4591a9501f01629281258c1dfa37081acda8307f14dab60dcf7cf36d1ba97b4a427c62dabd8c0caef3b3ebdf0d653962385cfd4410f00ee8e9f57fefbcf275438201cd709e1c4db12eb291bb62843387ce3769f9c5a4f34abb8ff767746337662fd3dcfd6f11058638876fe0b3620f3beb19890ab10ad3477a0e85cf52baccc0529f20d467bebdcb91eb9b1d2b1b5370761b28e20e247a427856b74599fde043ac45d5de6d321d6786a3c390d4fbfbb76dbd78c396b9d6f5036de54c4b6dd7f5ffe79066ff24aab653a4b8213053ba0707bfef55ff5f762c6af93292b8acd2201c034a5168980585564def251d827815d38e6d026f0da9980188144073fdc33172d746e1c202a44986d4f8cbde48a60d3048bb68486007712cc4dd8b629ddf3bdfac8779cfc50af59ca82568742a2799e6a2ae452bef8894df349e118bc03d97db268a1051ba7595e6f5b2a52fcfe964921507c5b1e746c04e2b3023e1f7a878e18849e27ba5b8d47846531b1ba2776a746757e53d4d30d11beeba617e6907c5e8bc286db96b39ff0fd5761f1bd4aafe4f5e8fbd44d30b6047afc49d60726380bea53431be7b6c42141b3a896b8441345de86558c0c31e2f09db6c428d7bfe2a8ebcf67cd8bd9dc7a9def86607e47a712c27c2dde0e10476af87e25b4c53f3273031c047d013f358101761aa88acdff9c4d7f91991efe4d4851db3726da8fe505b995337fbdc2f5d0dc96e60b977532c48decddf97c0868692fdd081a8008cd8b9fbb3092c3276309942189d4a0a92ab2980954f41bee953e24fd67c198e62c14ce4ab19ce31b4a01f57bb951ae10e1c168e4392bae2f1fe0b01bd85604f7e7f94d5f89a13ca3a7564cc42818e1e6f7dae18fdc7c635797773e1854ffc25a8dfc23f77153504a82d43afeb68bd957cc60939012749ce47f225428c440fe93b1d08e1e504ebc82a111335ecf7580bdaac238b16aff28e411a30fcb16e133a8c67ff41b524d318ae109982d4252788e2a3c13aa2493ebbec910318ae714fead2291927d625d09ad794e4b10be42140a31bac4fc7055daec770060ba4271e427d9f90ff2c7b137a4ae9857f1a40434f5b963ad337166cecd896c70476a414d3a2fdb4cfd8d96551a9857956e5446bc0f2315243b0362a0a7b71b2c0a6f1b895ca324c7f584af3bdb0d67fd0515ac3ded421f93e5f49509db7c4eb22f688e46174889f1b46432e66516f38a4802436a54e9b94738d819799af36c682279fac1ce2c0c139d4c3332c6d0a927e192311e9b23b7d043595aa1e829f267d8aec45d91181357aa6159983aaeafd6f0b8be839fc4215c03bf2f5bdbebbc583d42a103263e3f6ea2afb7e2e3ebf9ff102c31343a47596a7386898ea1adbdc7d50820252f656872777f8492989dc3c4cdcfd1d3dbe7e8e9edf10914292a474a5a5b6796aab2bcc1c5cad1f500000000000000000c1d364801fd2105005556efdb991a6962ce38079ff52f404621b012d8305c9f104025b1b7723c4f69fe1473026b217d6e77b6b85c7a6a3c52f223015d3812da1f83fa01f0823c45c8f66e2318020f9ee799206c3ec5f8ed5b2cb45fff594898da96223212302a8750849c029dc5d45d0a516491f029d8855af0bc6a9bfb39d5342e1037b7f9a99ce80a3c287fa6a88df8788904b9604b4b25d2983a4d7953b8b6491f21a10ad1d96a8655d8d49e6fd87067ee15920bc1ea1357b0405e31b5363bcf5c607ecc9bc88468ac7c5a37e75fd416caa8fd50e567c9d77e585adfbf91f9156309324cc2cf688283914b5f5355b5d74b2231e9c3d59da070129a3471a3ba887b9d9ac2b82dc671cc7d99516bb0048d79d0318dbabbb33fabbe43df9c64189f7fd5c9fb052192ea648985f2f803fa99d6ae89ac871d7608f9a9cb60e98d73949d14b7e3d68a5a17425d28d01a266f1804051aa993da3d5a7d18fb92d88ddc7d56a37769ec5bcbb1e5f6d7fd385b782d70fa1d1759bc427521f2f7367102d53b6685067fa927116131f3f047dc4b97287842210cb670321357512cc18727d80098781b92563e37d90ea0d040b6071537e2ad0069c06b037e60ff1acfde4c7e2a7e1ca22af76b29534aa6219cce635a82fc9c48e31bae98c61a52251afdcf2fb007882adff0b8831c3a7e5dfe404bbb650cd4402cd865fa25b07fe95c6be4709cc02a0793bf8ab3e912fdd30b72b3a16d009385210c82a3cbed5a5475d8122c708aed5cc1fab7130d9d971c8dead7894e9bcd03eb0b629071f73774a750118b2264d8ef8ce6b1968a9494a76472c1ef732292d68e9975bf9d92eda975e4b1e5aa11e8ea17d34baf436616a4bf7c4a6f8d9e0898a0820fcb2062d0c528732e61fb1dbb8bb372aa7493fe3da4c25e8a6a582659c284d5b0cca054c00aa4c0882958b1f482d800166bca8585729950039cd8c16090a86a10682601833619076eec59efa1f5e164c7c4666c44a5d13ac551ee5b0d32fb57bb3623164b65f4ddf83933ad60e924ae853e8adb05f9d319f249a4de72fc04e7f66b38a5999cf939f75517ced455fa4287de6981e3d7930c322ba6a1caa4ee1cf6011d6fd9ae6812f1c80e302bacff8cf340d0b8a0cac7df480b1fa7ef61960362558aebec422a475111fe4fe9fd4c812f386ccd4a9203ab3b8e9ac94d1e4c4dd727a6f38d573e5d856d57971fecd32014f1e5c32af5b1856a90a64042d6644f2b8353c872ca326d20299604c005ffa530250609e84157c5883875bc1074e19f2bdf77fa981d5d16259f1c2b47232f3ab749d84f4cbc061a8a4b831d082297b00a9fe8599790f3a4b5230fb4d2a38e72eed2e355398164893c3ec4e5e34ebef9c0b2b80e9b8f10d489d2e71a06851c7daebfa0a3f49dd147c0629e8858340177fd8585b6b3f75ba859f87a1df9d0ea9cc9ac42af581dc0090bc79a6c4dd452fda429417fb173eaf2caf37caa1e61c0eca8fae0ecb9e1d940aebab9857a5f10fbbee2e6b0b88ff9473c68fe8af9e5c217e8627fa310b79362d08943cd88bb3fb9e9a4b6ebf03d36e3ee2cc016b008f9311bd29ba617edbf803079c6d6744ffc01190a9f221012191ce0831c9809cb87a5eab10dbf6dcb1fd21a5bf00c7edc875154642c84af8f68d01e7340cb0976ef6d4bf4942311b02a4fbd37ba875f30f2228dece8c34f4a8ced5c755a8035ed6fcc16c63c3fa57b4c28cc4deff49ae38a953a58ce6ce03c109ec0cdfceb5d8e0811e73e613080c7dc2e14636d10c09ccb70cc2a1a463d5e88db3262c37f56ef9ffe0f900ac5223d52f5523212156ecf0378eb2b142119a46db369cfc7cf18c60a96a52f78000000",
  "txid": "b46f1482951648300811aebe9e08b00e6dd667af7e7f42248fbc9ffbd58d2c46",
  "hash": "8397d104b1f9bd170b20593c3f19eeaffc17e11b27900edbe6da71ee1f6b8d85",
  "size": 5085,
  "vsize": 2278,
  "version": 1,
  "locktime": 120,
  "vin": [
    {
      "txid": "6e4541988a8ec2be300978e437b5734498849adc35ef74d41af496c6166c3c24",
      "vout": 0,
      "scriptSig": {
        "asm": "",
        "hex": ""
      },
      "txinwitness": [
        "2ad2e5220ecdc7690c46b76742f2da6613470d400a28adc28d9f874aad00ee25f11f867962fd28831c89fa04c0f64fcdea4249f0e796b101c21bcfd961a7dc9521ad5b951f7d76552611dc1dc5559985e86c8d52a6693bb4af67adc807ca25015def2eb91bb08dbc6a55bf1e2952b866b25bcff40ca76761139a5a072823584e2d66cb3d9a3bf06255c452c83174ee1cf2649ffdeac017528308f98a94160f0bf3e554857cd22f4b253a17332e0aa99dee2a82b9156115eadff0bc65698674611de0478690e6e97d0376e9d9899ecc4583d95d6e0eca88b66c77b9529509ae72acf1581dd2db1a9210e222a8cd6b1dc788728ed21708ce6188c4ce19eea5ba200546d9402bd94b8dd2f3ea0ffcc309e334481496dbec53c5b9805fd747fb217d34a6ef74237929e3a8e494cd8a399f1f4b9ed9e76b71304d70a2ea2c785db53081204380280403bbff6f95b2e6e0bcfafd9ea293414cfc176b4d31db419c92be93d2eb516ddebd8a5a325c78a42f6612d16d60d72d956b185aa5c489d83714cc8135c8ccf10dc18768c06b762cacb475738a76078b3c71b9ee412e0a2a0cfd046a5478c327d0d945871d6c8169d056a0dcd6faaefc087d2dea2032cdc0f11a611f9561cdaf4b2a7302b186fd88dbaaf599c643ea8946a1b0a8bd453ac71e42e394b7db981bc814d1d33b2b17bf632d51b660db2b31b494f23304cf3ee7ac5e1bbbaa34510a8d59d2c98b56f63612360ec49bd8b65d8125a10dafb9193ed5a90eb1367bbf9d62a24f5dc94b0947c37983e321acf4d1df8456d1aec07739291e7fc51a3ac44e2414cb4c0099abd8c74b21e8d6302826b00bf13cbaf03f3242bc0860378fcd81dd33e0e285f5f805d78295ade7f3eff68647963fdcd819f76fb472647c0c50ed0f2a21d907dcdba3a8fd000404bc33041806bc4dcca52c2d0f7ebc82b0f97842ecf6347d0b265abd0dbe7f86dbf0bc8643485b9415413f9b9e34034c1afd58c3b72636f3b4b72c667ab415245202a8529665a5ed0bae2c20a180e599380802e6ec1ff1296923f690f8abef65a61d97ffd1476912c103619d71eb56e41c201fb3225462114546c7f661e83fa63a2cdb35cfeb1abcc6859d55dff82d2ecbac6e3b4856135ffcf40de292a63306725a512d42f6315253f19e661a659a870988af98a602d084e2e1e2e74c88b0db082e15303b44553539c67e271262214e34d5b45bebb510d270eeca9b94798e55f65389e4a78e07d61290d3d96744363c82efed4dfb57028bd60c917baf587c97c2723607522869b8511536fffc0634f3e7065887e6648df5074d13d41e637b501913f049f00effb3c9d6e577815dba90ea5dd11862d71b9dc312699c193d1373c317aed055221233aae698921f646d7d3fa764ded125f257108d54759b49ca6723d9daa0150fef3e628a81609990439a72401d89d597ac330c2d77873baaeeba1654538bd97178a1b4c23c06046c893c306ec6e64948fdd999a2f0091ea4f50164dc007860eb8318d2ae4d4c9da032c32d184ec9fab8782d755a9700e5c4e286122e549ddf0f120861606bb7e95f837e58fb6bf59361a67fd864d88e286e2acc53b9919d45f344d6091d5216ad9b142f01ea789236d55ce77cb4bcd2e99b811fd8e5ce92178ef9a69f95860d20e37b62f31d68cfe86001fd5c560370ee4a9110197ca90285644258a1f679696316151323ecb13f32bae7e076d5c5c507845990f68c9b18b45da757414fcfcde734d5af479ad0cd2c342098ee4ba141af17562414f6fe24ab5a62cc0e1210eda7126c0232444465e18139195c705c88854f26af45ba1c04738f14231c555851ba8e58b04b9a87db6891ef49b354105ece77510430e19289020e2a9196ed684fc6960bd5d9f424c402415ff7aee3292e8be74d3581492a02268812c34fdbe0200fd4f54c5aa4591a9501f01629281258c1dfa37081acda8307f14dab60dcf7cf36d1ba97b4a427c62dabd8c0caef3b3ebdf0d653962385cfd4410f00ee8e9f57fefbcf275438201cd709e1c4db12eb291bb62843387ce3769f9c5a4f34abb8ff767746337662fd3dcfd6f11058638876fe0b3620f3beb19890ab10ad3477a0e85cf52baccc0529f20d467bebdcb91eb9b1d2b1b5370761b28e20e247a427856b74599fde043ac45d5de6d321d6786a3c390d4fbfbb76dbd78c396b9d6f5036de54c4b6dd7f5ffe79066ff24aab653a4b8213053ba0707bfef55ff5f762c6af93292b8acd2201c034a5168980585564def251d827815d38e6d026f0da9980188144073fdc33172d746e1c202a44986d4f8cbde48a60d3048bb68486007712cc4dd8b629ddf3bdfac8779cfc50af59ca82568742a2799e6a2ae452bef8894df349e118bc03d97db268a1051ba7595e6f5b2a52fcfe964921507c5b1e746c04e2b3023e1f7a878e18849e27ba5b8d47846531b1ba2776a746757e53d4d30d11beeba617e6907c5e8bc286db96b39ff0fd5761f1bd4aafe4f5e8fbd44d30b6047afc49d60726380bea53431be7b6c42141b3a896b8441345de86558c0c31e2f09db6c428d7bfe2a8ebcf67cd8bd9dc7a9def86607e47a712c27c2dde0e10476af87e25b4c53f3273031c047d013f358101761aa88acdff9c4d7f91991efe4d4851db3726da8fe505b995337fbdc2f5d0dc96e60b977532c48decddf97c0868692fdd081a8008cd8b9fbb3092c3276309942189d4a0a92ab2980954f41bee953e24fd67c198e62c14ce4ab19ce31b4a01f57bb951ae10e1c168e4392bae2f1fe0b01bd85604f7e7f94d5f89a13ca3a7564cc42818e1e6f7dae18fdc7c635797773e1854ffc25a8dfc23f77153504a82d43afeb68bd957cc60939012749ce47f225428c440fe93b1d08e1e504ebc82a111335ecf7580bdaac238b16aff28e411a30fcb16e133a8c67ff41b524d318ae109982d4252788e2a3c13aa2493ebbec910318ae714fead2291927d625d09ad794e4b10be42140a31bac4fc7055daec770060ba4271e427d9f90ff2c7b137a4ae9857f1a40434f5b963ad337166cecd896c70476a414d3a2fdb4cfd8d96551a9857956e5446bc0f2315243b0362a0a7b71b2c0a6f1b895ca324c7f584af3bdb0d67fd0515ac3ded421f93e5f49509db7c4eb22f688e46174889f1b46432e66516f38a4802436a54e9b94738d819799af36c682279fac1ce2c0c139d4c3332c6d0a927e192311e9b23b7d043595aa1e829f267d8aec45d91181357aa6159983aaeafd6f0b8be839fc4215c03bf2f5bdbebbc583d42a103263e3f6ea2afb7e2e3ebf9ff102c31343a47596a7386898ea1adbdc7d50820252f656872777f8492989dc3c4cdcfd1d3dbe7e8e9edf10914292a474a5a5b6796aab2bcc1c5cad1f500000000000000000c1d364801",
        "005556efdb991a6962ce38079ff52f404621b012d8305c9f104025b1b7723c4f69fe1473026b217d6e77b6b85c7a6a3c52f223015d3812da1f83fa01f0823c45c8f66e2318020f9ee799206c3ec5f8ed5b2cb45fff594898da96223212302a8750849c029dc5d45d0a516491f029d8855af0bc6a9bfb39d5342e1037b7f9a99ce80a3c287fa6a88df8788904b9604b4b25d2983a4d7953b8b6491f21a10ad1d96a8655d8d49e6fd87067ee15920bc1ea1357b0405e31b5363bcf5c607ecc9bc88468ac7c5a37e75fd416caa8fd50e567c9d77e585adfbf91f9156309324cc2cf688283914b5f5355b5d74b2231e9c3d59da070129a3471a3ba887b9d9ac2b82dc671cc7d99516bb0048d79d0318dbabbb33fabbe43df9c64189f7fd5c9fb052192ea648985f2f803fa99d6ae89ac871d7608f9a9cb60e98d73949d14b7e3d68a5a17425d28d01a266f1804051aa993da3d5a7d18fb92d88ddc7d56a37769ec5bcbb1e5f6d7fd385b782d70fa1d1759bc427521f2f7367102d53b6685067fa927116131f3f047dc4b97287842210cb670321357512cc18727d80098781b92563e37d90ea0d040b6071537e2ad0069c06b037e60ff1acfde4c7e2a7e1ca22af76b29534aa6219cce635a82fc9c48e31bae98c61a52251afdcf2fb007882adff0b8831c3a7e5dfe404bbb650cd4402cd865fa25b07fe95c6be4709cc02a0793bf8ab3e912fdd30b72b3a16d009385210c82a3cbed5a5475d8122c708aed5cc1fab7130d9d971c8dead7894e9bcd03eb0b629071f73774a750118b2264d8ef8ce6b1968a9494a76472c1ef732292d68e9975bf9d92eda975e4b1e5aa11e8ea17d34baf436616a4bf7c4a6f8d9e0898a0820fcb2062d0c528732e61fb1dbb8bb372aa7493fe3da4c25e8a6a582659c284d5b0cca054c00aa4c0882958b1f482d800166bca8585729950039cd8c16090a86a10682601833619076eec59efa1f5e164c7c4666c44a5d13ac551ee5b0d32fb57bb3623164b65f4ddf83933ad60e924ae853e8adb05f9d319f249a4de72fc04e7f66b38a5999cf939f75517ced455fa4287de6981e3d7930c322ba6a1caa4ee1cf6011d6fd9ae6812f1c80e302bacff8cf340d0b8a0cac7df480b1fa7ef61960362558aebec422a475111fe4fe9fd4c812f386ccd4a9203ab3b8e9ac94d1e4c4dd727a6f38d573e5d856d57971fecd32014f1e5c32af5b1856a90a64042d6644f2b8353c872ca326d20299604c005ffa530250609e84157c5883875bc1074e19f2bdf77fa981d5d16259f1c2b47232f3ab749d84f4cbc061a8a4b831d082297b00a9fe8599790f3a4b5230fb4d2a38e72eed2e355398164893c3ec4e5e34ebef9c0b2b80e9b8f10d489d2e71a06851c7daebfa0a3f49dd147c0629e8858340177fd8585b6b3f75ba859f87a1df9d0ea9cc9ac42af581dc0090bc79a6c4dd452fda429417fb173eaf2caf37caa1e61c0eca8fae0ecb9e1d940aebab9857a5f10fbbee2e6b0b88ff9473c68fe8af9e5c217e8627fa310b79362d08943cd88bb3fb9e9a4b6ebf03d36e3ee2cc016b008f9311bd29ba617edbf803079c6d6744ffc01190a9f221012191ce0831c9809cb87a5eab10dbf6dcb1fd21a5bf00c7edc875154642c84af8f68d01e7340cb0976ef6d4bf4942311b02a4fbd37ba875f30f2228dece8c34f4a8ced5c755a8035ed6fcc16c63c3fa57b4c28cc4deff49ae38a953a58ce6ce03c109ec0cdfceb5d8e0811e73e613080c7dc2e14636d10c09ccb70cc2a1a463d5e88db3262c37f56ef9ffe0f900ac5223d52f5523212156ecf0378eb2b142119a46db369cfc7cf18c60a96a52f"
      ],
      "sequence": 4294967294
    }
  ],
  "vout": [
    {
      "value": 499977.6282,
      "n": 0,
      "scriptPubKey": {
        "asm": "1 d7a3f67a337602a2db298276cbbaa149da1a2ef7b3afb43fb11ee93e098e491b",
        "hex": "5120d7a3f67a337602a2db298276cbbaa149da1a2ef7b3afb43fb11ee93e098e491b",
        "reqSigs": 1,
        "type": "witness_v1_scripthash",
        "addresses": [
          "3QJmnh"
        ]
      }
    },
    {
      "value": 1.0,
      "n": 1,
      "scriptPubKey": {
        "asm": "OP_RETURN 85690443d11acbfa3c5a443e59c9847f4707b5953dda10082c0aa33e444c6880 da2c382488637ab3c05bb4a522188994412c36651f9ed30eae0a5e32df941301fa0c1804a8435a93e07b94850238a9b4610c16453fbef32e8e2a7e12ffb433219a6c7864c8233af3801bf4e56258c9d4016c76255fde934eee4a1e729fd45341ba4c5844e8031ad3a03bd4c54278e9f4214c56057ffeb36ece6a3e52bff473615aacb8a408e3fa3340db3425a2980914c1acb6e59f1e538e2e8adeb25f1493817a8c988428c3da1360fb140582b82934e18c96c5bf3e73ae0eaafe927f34b3a11aecf8e448a3ba73009b7465e2d8495481ecf6a5df5e13ce6eca9ef21f54d3c13accd8c468839a5320bb5445c2f86974a1ccd685ff7e33ee4eeabed23f74f3e1da2c382488637ab3c05bb4a522188994412c36651f9ed30eae0a5e32df941301fa0c1804a8435a93e07b94850238a9b4610c16453fbef32e8e2a7e12ffb433219a6c7864c8233af3801bf4e56258c9d4016c76255fde934eee4a1e729fd45341ba4c5844e8031ad3a03bd4c54278e9f4214c56057ffeb36ece6a3e52bff473615aacb8a408e3fa3340db3425a2980914c1acb6e59f1e538e2e8adeb25f1493817a8c988428c3da1360fb140582b82934e18c96c5bf3e73ae0eaafe927f34b3a11aecf8e448a3ba73009b7465e2d8495481ecf6a5df5e13ce6eca9ef21f54d3c13accd8c468839a5320bb5445c2f86974a1ccd685ff7e33ee4eeabed23f74f3e1da2c382488637ab3c05bb4a522188994412c36651f9ed30eae0a5e32df941301fa0c1804a8435a93e07b94850238a9b4610c16453fbef32e8e2a7e12ffb433219a6c7864c8233af3801bf4e56258c9d4016c76255fde934eee4a1e729fd45341ba4c5844e8031ad3a03bd4c54278e9f4214c56057ffeb36ece6a3e52bff473615aacb8a408e3fa3340db3425a2980914c1acb6e59f1e538e2e8adeb25f1493817a8c988428c3da1360fb140582b82934e18c96c5bf3e73ae0eaafe927f34b3a11aecf8e448a3ba73009b7465e2d8495481ecf6a5df5e13ce6eca9ef21f54d3c13accd8c468839a5320bb5445c2f86974a1ccd685ff7e33ee4eeabed23f74f3e1da2c382488637ab3c05bb4a522188994412c36651f9ed30eae0a5e32df941301fa0c1804a8435a93e07b94850238a9b4610c16453fbef32e8e2a7e12ffb433219a6c7864c8233af3801bf4e56258c9d4016c76255fde934eee4a1e729fd45341ba4c5844e8031ad3a03bd4c54278e9f4214c56057ffeb36ece6a3e52bff473615aacb8a408e3fa3340db3425a2980914c1acb6e59f1e538e2e8adeb25f1493817a8c988428c3da1360fb140582b82934e18c96c5bf3e73ae0eaafe927f34b3a11aecf8e448a3ba73009b7465e2d8495481ecf6a5df5e13ce6eca9ef21f54d3c13accd8c468839a5320bb5445c2f86974a1ccd685ff7e33ee4eeabed23f74f3e1da2c382488637ab3c05bb4a522188994412c36651f9ed30eae0a5e32df941301fa0c1804a8435a93e07b94850238a9b4610c16453fbef32e8e2a7e12ffb433219a6c7864c8233af3801bf4e56258c9d4016c76255fde934eee4a1e729fd45341ba4c5844e8031ad3a03bd4c54278e9f4214c56057ffeb36ece6a3e52bff473615aacb8a408e3fa3340db3425a2980914d1c6b5a30d9b8f56fb0c389db2fe2f550ffd0e0da47bdb4c710f6086623b472b",
        "hex": "6a2085690443d11acbfa3c5a443e59c9847f4707b5953dda10082c0aa33e444c68804db004da2c382488637ab3c05bb4a522188994412c36651f9ed30eae0a5e32df941301fa0c1804a8435a93e07b94850238a9b4610c16453fbef32e8e2a7e12ffb433219a6c7864c8233af3801bf4e56258c9d4016c76255fde934eee4a1e729fd45341ba4c5844e8031ad3a03bd4c54278e9f4214c56057ffeb36ece6a3e52bff473615aacb8a408e3fa3340db3425a2980914c1acb6e59f1e538e2e8adeb25f1493817a8c988428c3da1360fb140582b82934e18c96c5bf3e73ae0eaafe927f34b3a11aecf8e448a3ba73009b7465e2d8495481ecf6a5df5e13ce6eca9ef21f54d3c13accd8c468839a5320bb5445c2f86974a1ccd685ff7e33ee4eeabed23f74f3e1da2c382488637ab3c05bb4a522188994412c36651f9ed30eae0a5e32df941301fa0c1804a8435a93e07b94850238a9b4610c16453fbef32e8e2a7e12ffb433219a6c7864c8233af3801bf4e56258c9d4016c76255fde934eee4a1e729fd45341ba4c5844e8031ad3a03bd4c54278e9f4214c56057ffeb36ece6a3e52bff473615aacb8a408e3fa3340db3425a2980914c1acb6e59f1e538e2e8adeb25f1493817a8c988428c3da1360fb140582b82934e18c96c5bf3e73ae0eaafe927f34b3a11aecf8e448a3ba73009b7465e2d8495481ecf6a5df5e13ce6eca9ef21f54d3c13accd8c468839a5320bb5445c2f86974a1ccd685ff7e33ee4eeabed23f74f3e1da2c382488637ab3c05bb4a522188994412c36651f9ed30eae0a5e32df941301fa0c1804a8435a93e07b94850238a9b4610c16453fbef32e8e2a7e12ffb433219a6c7864c8233af3801bf4e56258c9d4016c76255fde934eee4a1e729fd45341ba4c5844e8031ad3a03bd4c54278e9f4214c56057ffeb36ece6a3e52bff473615aacb8a408e3fa3340db3425a2980914c1acb6e59f1e538e2e8adeb25f1493817a8c988428c3da1360fb140582b82934e18c96c5bf3e73ae0eaafe927f34b3a11aecf8e448a3ba73009b7465e2d8495481ecf6a5df5e13ce6eca9ef21f54d3c13accd8c468839a5320bb5445c2f86974a1ccd685ff7e33ee4eeabed23f74f3e1da2c382488637ab3c05bb4a522188994412c36651f9ed30eae0a5e32df941301fa0c1804a8435a93e07b94850238a9b4610c16453fbef32e8e2a7e12ffb433219a6c7864c8233af3801bf4e56258c9d4016c76255fde934eee4a1e729fd45341ba4c5844e8031ad3a03bd4c54278e9f4214c56057ffeb36ece6a3e52bff473615aacb8a408e3fa3340db3425a2980914c1acb6e59f1e538e2e8adeb25f1493817a8c988428c3da1360fb140582b82934e18c96c5bf3e73ae0eaafe927f34b3a11aecf8e448a3ba73009b7465e2d8495481ecf6a5df5e13ce6eca9ef21f54d3c13accd8c468839a5320bb5445c2f86974a1ccd685ff7e33ee4eeabed23f74f3e1da2c382488637ab3c05bb4a522188994412c36651f9ed30eae0a5e32df941301fa0c1804a8435a93e07b94850238a9b4610c16453fbef32e8e2a7e12ffb433219a6c7864c8233af3801bf4e56258c9d4016c76255fde934eee4a1e729fd45341ba4c5844e8031ad3a03bd4c54278e9f4214c56057ffeb36ece6a3e52bff473615aacb8a408e3fa3340db3425a2980914d1c6b5a30d9b8f56fb0c389db2fe2f550ffd0e0da47bdb4c710f6086623b472b",
        "type": "nulldata"
      }
    }
  ],
  "blockhash": "0125d69e6984563ac74cb1b0b8601a67b424e71230e7918fa710584dbb11162a",
  "confirmations": 1,
  "time": 1764180090,
  "blocktime": 1764180090
}