{
  "hex": "01000000000101ae5204ef9b16dd082bac6858a43feddaa383a72adfbfcb24d922c8289b2c6c460000000000feffffff028022c5f6782d00002251206cb3dbdfe4a35ae98987eb2814d354a5159a30af6fd36fa38a1b898eed8da0e800e1f50500000000fdd5046a20d4307cbcaa63b8b9615e33901152f195b3d8a0a666ed97a61f4f23af0d2581a44db0045f9d2b19ebac4d0394eeca8ac2bd51efe34a411cd1a224da44bf0820a078d48e7fbd0b39cb8c6d23b4ceeaaae29d71cfc36a613cf18204fa649f28008058f4ae1fdd6b59abec0d43d4ae8aca82fd11afa30a015c91e2649a04ff4860e03894ce3ffd4b798bcc2d63f48eaaeaa2dd318f832a217cb1c244ba24df6840c018b4eedf1dab996b2ccd83146e4a0a423dd16f63cac19c5122a45ac43f88a020f8540eff3d8bb94b0ceda3344e6a2a621df14f43eae1bc7102847ae41fa88000d8742e9f5debd92b6c8dc3542e0a4a027d912f238a81dc1162e41a847fc8e060b8144ebf7dcbf90b4cade3740e2a6a225db10f03aaa1fc3142c43aa45fe8c04098346e5f9d2b19ebac4d0394eeca8ac2bd51efe34a411cd1a224da44bf0820a078d48e7fbd0b39cb8c6d23b4ceeaaae29d71cfc36a613cf18204fa649f28008058f4ae1fdd6b59abec0d43d4ae8aca82fd11afa30a015c91e2649a04ff4860e03894ce3ffd4b798bcc2d63f48eaaeaa2dd318f832a217cb1c244ba24df6840c018b4eedf1dab996b2ccd83146e4a0a423dd16f63cac19c5122a45ac43f88a020f8540eff3d8bb94b0ceda3344e6a2a621df14f43eae1bc7102847ae41fa88000d8742e9f5debd92b6c8dc3542e0a4a027d912f238a81dc1162e41a847fc8e060b8144ebf7dcbf90b4cade3740e2a6a225db10f03aaa1fc3142c43aa45fe8c04098346e5f9d2b19ebac4d0394eeca8ac2bd51efe34a411cd1a224da44bf0820a078d48e7fbd0b39cb8c6d23b4ceeaaae29d71cfc36a613cf18204fa649f28008058f4ae1fdd6b59abec0d43d4ae8aca82fd11afa30a015c91e2649a04ff4860e03894ce3ffd4b798bcc2d63f48eaaeaa2dd318f832a217cb1c244ba24df6840c018b4eedf1dab996b2ccd83146e4a0a423dd16f63cac19c5122a45ac43f88a020f8540eff3d8bb94b0ceda3344e6a2a621df14f43eae1bc7102847ae41fa88000d8742e9f5debd92b6c8dc3542e0a4a027d912f238a81dc1162e41a847fc8e060b8144ebf7dcbf90b4cade3740e2a6a225db10f03aaa1fc3142c43aa45fe8c04098346e5f9d2b19ebac4d0394eeca8ac2bd51efe34a411cd1a224da44bf0820a078d48e7fbd0b39cb8c6d23b4ceeaaae29d71cfc36a613cf18204fa649f28008058f4ae1fdd6b59abec0d43d4ae8aca82fd11afa30a015c91e2649a04ff4860e03894ce3ffd4b798bcc2d63f48eaaeaa2dd318f832a217cb1c244ba24df6840c018b4eedf1dab996b2ccd83146e4a0a423dd16f63cac19c5122a45ac43f88a020f8540eff3d8bb94b0ceda3344e6a2a621df14f43eae1bc7102847ae41fa88000d8742e9f5debd92b6c8dc3542e0a4a027d912f238a81dc1162e41a847fc8e060b8144ebf7dcbf90b4cade3740e2a6a225db10f03aaa1fc3142c43aa45fe8c04098346e5f9d2b19ebac4d0394eeca8ac2bd51efe34a411cd1a224da44bf0820a078d48e7fbd0b39cb8c6d23b4ceeaaae29d71cfc36a613cf18204fa649f28008058f4ae1fdd6b59abec0d43d4ae8aca82fd11afa30a015c91e2649a04ff4860e03894ce3ffd4b798bcc2d63f48eaaeaa2dd318f832a217cb1c244ba24df6840c018b4eedf1dab996b2ccd83146e4a0a423dd16f07ae29849f6a139f229d12d8c683594da1758ae4ee4ce33b4ceb678bbc83ab9002fd7509c77c546992051ad68432baf0f9874172875063acd28545b5ca2609601a561f8cd96894c8a1628d5e5c40057d080164e3b3bce82d07848cf2f579b59eb198ab619db06490e89fcd72894f2875d8761febf78e77f330571c5f2c3cbe875eeb6100a56b5a870533704318f8876fe4533bcfe52eef253d76fc7a1c2e75245a2895006b0abfe0a58225e3989cbd13fc4b807cb4c74b1e210db781c10d4b8f1280b87048573f0704596432f747f6aa5e53f6954ccbae3b822dd24ae9512eae6ce49084187257230f34eebd67e5d27164ba5652caf8533f30118ec93b1831f76d9b2f0b1e43c5322fa0026099ec6be18ec66e87e7971c1dc6c61f834b7579bca78e17ffa27ddd23a3c4dfcf3e5aeff71f8b259c8d73b2f8990a1fd7f629dbe7d019d51971c6684bab0e9b51f4853196d5640c8b62080a8232fd9987951b7adb564467797c633c3f2bf1b46a215f8da7eb649354f4b199c41635d14f2f74e4df5ed6db076c3351feee976a8c73aa4e9611932930a543beba23e39e8e2d12d7bdf573efca2b5ece75fa2ad1161cb6cc312fe5eafdae56b279f9af8a366c836b1c964474063a0d65090481ce4a13eef89a54941bc0621ac91cb64460f59236212af40d68a8f7692b82f5f6b3b805d05f7deb8549115dfd13eb2f22ec7fc9dd7cd79ccdc9ac4936028a1034fffd46def8900c39d5d7a00e6f8037cfa8282c80a29ed2d4aef8a5eeeaf6a1caa1bb3c06651381df6eb95d75311c283212a7450df6ea5775958b251a403348ff323cffef198eaa1dde16423c2ab9d61f9dc4206ee68585e5e69a33dcddf4827482b9b5923814ac7e71c9f76bda5046c3b424d1f2870ce799918f7ea212997fcea9d8bd63c3421c05687935f7d0b55f2800c32d4a2549bb1c35a46a4f9de0d0d54a805b371f4d75ffcacdcee24aebc3f017799e8e49c4e0d68a11bf2ec3d87e8cbdc2b78ddcf58011322e8cdd51ee6b3173a8ba6a4f6e088a4e9bb2197db13e749a8c35b4defc8c9049c758522690cbcdaf1eb67456479f4aa484680c54a0f38cb500d3b60ebc80d09e899a1f46e90084e0ee20f720f63928c688589fbc8cbbfd1fa5f7218237bed8c7945a7bb599da4264dacede58baa4d64c4d3f0e323a87f963465f4b99038bf329d602a0491ad7d6e97479827eff8d2295bf495c384d7df93d20385feb6543b01b094b19b495f29062cd733db61963d6ef030b617bce033dd66ba57b47f7419087fc50159836e73301d90103458e7fa7c92d3755bba54ef6d4de5b675017c900c8c20a182a3fe63908ec9ac795118884c22bf2d4a4a111e153c4a270ecb74b47d4ebf899645c1df069b31c5c7ee003233818d37397ac6a2ee559b160a675fb003b3682702626e1fb48b262cee01eb3e004dac664e3f1767473e859892cd4b9dd06f8dad9265741eb9f4c6b924a4b4dd1e59b98847670873346f8bff3038b061c14f41722e8e0a688f764cb2375e4294141b62132e8cc09ced09ac9cf4fc3c3939aef092aa2c120a7c32c8cb404f1258bfefc41b32b58a2424ca9f3334b3b531e5fb31abfe7b33d955580740e7df7b872151aa8b23a19f9c71ea48cc7494acdd04696435dd38213334329f09507dbb234c3514108533964356c3f2d46740c78a595d7f7f478f420f617f5fb6366af4fb43366c42a7d3c6b47abe471f7a6ac6863d31c409257a77807595b1a00e9bb64074ffd237b601057a0469aa8a838696b1be6da21826b0a2059bb3a0f73fdb93f5f9a8f940de639ee5997d0587572c25fc5e0e2c4e54559e06c280b8f1b1dbc016e63d3c8fd9fe7ec4ac6bd4d573cccc10a30d0b0bdc7d6a8c318b2ac3a02fd4b9dc22fbe740b057eca30922849af857c184896dfa099c8f98b64f67dab8b38f9efc2732a2863791cdf7b066c176c26e7ba796023af57e0c28fb23ec09405562ae52ff28dca106881d4b833c6cfa6ca6a71127bddfd41e85e1df0d1ec0dd802f3d55c6727de7f35f02fb1ff1a43d6d50ddde948a26600fffb25b97702c4c838a67b1eb4afed88d40e78758f3e7bdf8df0a5d07dd37d1a17a0c70f220145f490785f4b76afdf5bc61e637f09cb673cc791c8543715be25d08f8fb1cc6b9474251b23f54308f3c11f425d578261cad7808debd00defdd344f2ff22f7ba54ad353e93027b57fd19a611ab207268e567c1240cc8e2af5d34c34c21545ff7f6016ac14b683639304f867176aca2098302b5d4678d2d6df4849793df9c1ef9336535fd38effbd6de5864c204a9486cade562fa46d3b146c5ba440abb8bb630d5ef8db181e18e75c4ce70317359fb3ecd55f5af32fbe0de5f428fdbc0d475c2d5c5c2845b683671fdf9a1ca6677364731968610a8d0cb4812a3949e1304cad188eb1cb8f4e4e0fbc73a30022c391739779aeabe644f0df8a7d2540dd875a98b059d1f17f467a9b0ceba6652314c508370c3d874e889db1d96fd68801ce92c3597108cf278c30d18f478a5527ced3e68e154ce371a29d215615a7108aa2be622bff9429d37a3c62b52c8611f45b3ee8d570e7989fb5204329fe3262174df202117a1c0bf8a2b37e90581dcb776cc3e4fc18f1b14d6012ca5dd084e15d6b96204db2d913004efa9e0889f918ac480498bc93ddf5d81b6165d3ca462036ff76f0e4e1df267d014c55331dfc82916834d6aa349f02b731f32e71d495c8e226f63cd6737fd6733205b68ab0980fda97eb40e5670a0273270cbe271184f7d6510f5362bc3f09c790407a895716769fed22c71ab1941f7db32e2163d7ffa827d5930b5825d7431d9c998aca16e1280b3ceb9912e377b4ca6b397e21354cef2ed1bb4e2956f39de9a6491d4e896fd4aa35964fc4b7ac7de5070002910a937652ca2b5a774c0de68350fde1fcd9c6cbd015e88cdcc2ab5db511493db4994fc3135ec4e51d47ee465535d4f6df3f18930cb4b0b6bca77a0080d45d7fa5d7bbe388f57860b398b98ea8e5f87a90e34d08853683e21baeebc642bbab299ec5e7378238a59ac6e27e9f2f6e1d5309a446428e19ff08655257186478508f54507b7653ebb1794196080724e79f084c12e2e9dc0c60075082a715aa53a2d45384835b63d907d31c27f864ee122f8b0b1bf8562342262fc45ae833fc7c654d96bad9391aa9ad06c292570193ca0ef94040a4f9b8ec7d6f3f2b18bd31474266cb73b701c6b02685f6315e54b51ef3f1326f15ff74a279a730635ac512f4dcc6a1d0b50cabfdba31f3e33b0cf3efebb2079ad9d39e12cf986d9abc18478c8f665a566c72ec21e13af5ff7bb2c9716791031141528bb5c7dcdd0a252732394d4f5c6b869293b7b9c5cfd8ed1330383b495a5b626382b2b7bec3d5e2e9f8f90616192237484c5085a6b9bac8d3dfe8000000000000000000000000000000000000091b2e3e01fd21050069d55c4f41ddd714db4c7b87a783e400d69220f74d4e2d4f2e25d3fa28ad79f2bc30f609140945c565bbeb6d1295ee0c195f1d8e599e1f82fc3b05dda6f8c8aefa593a9cef3c88289a98261928790c6004f712072c43832a77e776bfe007c317df6f1d2b031527334df7155ff8d4f81cd8707817c57978d8dc5154d6a9bcb5db644f2ab5e6ea850bf8014d65ba9e62d2a21d24dbef774dee79ad7a8b262e50467263637259939f9d4a5f04a6918157c4145b1319aeafddddd7037e66bc483111a4e46cad4288738057d9edcb39e9e97cf9a7c15e3de0255055e71606fe2fec382fcb1629605e08f914ef99e7bcadd8d3313a18ab0fd2df7095c5ae22022b256c6afea9074ad11a6219edff2cdda4e832aecd8265c9efb640b818e330f652d10b127d113dc491e187790454a1ae8f6d84fd689ba26587bf49d0e3e6f4c26a08a87c52054b7dd4670cf9a3c2bdb06b483bd376523b394efdddf013e31206f4448b1a36f3d9afdc9fe52934e59a64a583af32eee81b1b6fac9a2dceefa8f4e8b91e892ceea82c049bd01dee500f0f700bf7c07abcfa5211b349823faf9b3e489e4939c503b141a8fc120db16b792c7b7e624579153f5e5f2fbf3410cc0b21782a768e3a3933affb39258f5ecb5184d5c182ef6cf9047b4736b1a8e1220b6c5aa5e462883ca2e8de0892500e559858acd0175b5f16b0aea0abb769ab7bf15ae76842601ce0feaa4dd045edf5cd09f99bf2120f2590ee55ddac487691245bdd92a5b9f3b75b19cf9a409ee53d825f7af6a13b6a18287d4817e6f4fae1bcc8df3f60f0557553281b982b51bec0fcf5bff6ad2e2e51fa9c1deca8fe473d3896fb281c5c25b288a682729bfce81884787a73101e988c457581da55a9cd7bcd4b5815d04f1f14891b57e629aa55b81bf4c7dce7657f6105ad7998e456546750ccffbe0c02704bd978a09195fa4f46cf278b9c2049c966cf95f8b2c8a3b494df294834bdeee197dc0b6c349a0d6f7c26a57b47cc293d9a4362e8add93e62c34d573ba5a741e169a07a28770e08dac57d7250cc7f250cb195827dc70d412dec0f0fad420ecd0676daf32be0174e3430a05648711f4272e5e63b237c346e4fcb24f3120554e3de113483b14311843ad3043e0c533d11345010844811bcd1d4c855674df1d03cf0fb18775a1054c509213f2172c391e44644692341939fd58dbf370570e88437770d571dafce98cd114c060910538d1346d0a485b5b2a88167526f886065da8730948cb4c978a47f344bf260d3b0d0720c6a22f4051a6d14a37fc2993df5fe83d1eec9c886629f2297ed36577b6f71dd7bac61d89f76b65425eb108a1de3396d91e7a6c2ed63cbb2589629e5f8af23bd21aeb434d177d08aac7f5e8c19b9e320525f21e6afadc1f53cf732736bbacadf6dcf2287b398170b777b7b958022bdccbce2ef3cdb9d3685d0b1a9f956c46e57dc2b5eb815867819fe29db551cae037fe48fa930a3adf3b33eda346c944fbaf5144e2de4aa0be67c4675d704807c687f247318ab01161f23a06726adb165086e920cc799ce0d37ff9cbc2cbf91b79c81dbdf2c7148d9b7c4d99d6da365671eff541c8a9a3581b82742fd7d606ea8ea1a2bdd123f316bb7a2b8dfcecb3832fc68ebf67d2da2a1c90feaf1da2d7a31319e0159dad0736fd87b65def84f6d46ec564c8aac22776c53e551c312d5479c7a0ec6d10091f160e0c49952845083650ca1a4499a2bf086a99eca20171b3dfa365bd6148435229d3d64f3e857242998e25956db85e2d210cd5a2e1afe0ffc2c146b641f5181d58991672f9ba752e99ee9f7dc94ae821d298a53330ea691025f63b08a000000",
  "txid": "b68ef8984e20724087232f2b411fff2c060d068c2e3557d7e7d4162e9ccdee4b",
  "hash": "2b3dc4f9226e809eb095bc63416c16e0d5a653382f8c3c753aabe08e2b9ec01e",
  "size": 5085,
  "vsize": 2278,
  "version": 1,
  "locktime": 138,
  "vin": [
    {
      "txid": "466c2c9b28c822d924cbbfdf2aa783a3daed3fa45868ac2b08dd169bef0452ae",
      "vout": 0,
      "scriptSig": {
        "asm": "",
        "hex": ""
      },
      "txinwitness": [
        "c77c546992051ad68432baf0f9874172875063acd28545b5ca2609601a561f8cd96894c8a1628d5e5c40057d080164e3b3bce82d07848cf2f579b59eb198ab619db06490e89fcd72894f2875d8761febf78e77f330571c5f2c3cbe875eeb6100a56b5a870533704318f8876fe4533bcfe52eef253d76fc7a1c2e75245a2895006b0abfe0a58225e3989cbd13fc4b807cb4c74b1e210db781c10d4b8f1280b87048573f0704596432f747f6aa5e53f6954ccbae3b822dd24ae9512eae6ce49084187257230f34eebd67e5d27164ba5652caf8533f30118ec93b1831f76d9b2f0b1e43c5322fa0026099ec6be18ec66e87e7971c1dc6c61f834b7579bca78e17ffa27ddd23a3c4dfcf3e5aeff71f8b259c8d73b2f8990a1fd7f629dbe7d019d51971c6684bab0e9b51f4853196d5640c8b62080a8232fd9987951b7adb564467797c633c3f2bf1b46a215f8da7eb649354f4b199c41635d14f2f74e4df5ed6db076c3351feee976a8c73aa4e9611932930a543beba23e39e8e2d12d7bdf573efca2b5ece75fa2ad1161cb6cc312fe5eafdae56b279f9af8a366c836b1c964474063a0d65090481ce4a13eef89a54941bc0621ac91cb64460f59236212af40d68a8f7692b82f5f6b3b805d05f7deb8549115dfd13eb2f22ec7fc9dd7cd79ccdc9ac4936028a1034fffd46def8900c39d5d7a00e6f8037cfa8282c80a29ed2d4aef8a5eeeaf6a1caa1bb3c06651381df6eb95d75311c283212a7450df6ea5775958b251a403348ff323cffef198eaa1dde16423c2ab9d61f9dc4206ee68585e5e69a33dcddf4827482b9b5923814ac7e71c9f76bda5046c3b424d1f2870ce799918f7ea212997fcea9d8bd63c3421c05687935f7d0b55f2800c32d4a2549bb1c35a46a4f9de0d0d54a805b371f4d75ffcacdcee24aebc3f017799e8e49c4e0d68a11bf2ec3d87e8cbdc2b78ddcf58011322e8cdd51ee6b3173a8ba6a4f6e088a4e9bb2197db13e749a8c35b4defc8c9049c758522690cbcdaf1eb67456479f4aa484680c54a0f38cb500d3b60ebc80d09e899a1f46e90084e0ee20f720f63928c688589fbc8cbbfd1fa5f7218237bed8c7945a7bb599da4264dacede58baa4d64c4d3f0e323a87f963465f4b99038bf329d602a0491ad7d6e97479827eff8d2295bf495c384d7df93d20385feb6543b01b094b19b495f29062cd733db61963d6ef030b617bce033dd66ba57b47f7419087fc50159836e73301d90103458e7fa7c92d3755bba54ef6d4de5b675017c900c8c20a182a3fe63908ec9ac795118884c22bf2d4a4a111e153c4a270ecb74b47d4ebf899645c1df069b31c5c7ee003233818d37397ac6a2ee559b160a675fb003b3682702626e1fb48b262cee01eb3e004dac664e3f1767473e859892cd4b9dd06f8dad9265741eb9f4c6b924a4b4dd1e59b98847670873346f8bff3038b061c14f41722e8e0a688f764cb2375e4294141b62132e8cc09ced09ac9cf4fc3c3939aef092aa2c120a7c32c8cb404f1258bfefc41b32b58a2424ca9f3334b3b531e5fb31abfe7b33d955580740e7df7b872151aa8b23a19f9c71ea48cc7494acdd04696435dd38213334329f09507dbb234c3514108533964356c3f2d46740c78a595d7f7f478f420f617f5fb6366af4fb43366c42a7d3c6b47abe471f7a6ac6863d31c409257a77807595b1a00e9bb64074ffd237b601057a0469aa8a838696b1be6da21826b0a2059bb3a0f73fdb93f5f9a8f940de639ee5997d0587572c25fc5e0e2c4e54559e06c280b8f1b1dbc016e63d3c8fd9fe7ec4ac6bd4d573cccc10a30d0b0bdc7d6a8c318b2ac3a02fd4b9dc22fbe740b057eca30922849af857c184896dfa099c8f98b64f67dab8b38f9efc2732a2863791cdf7b066c176c26e7ba796023af57e0c28fb23ec09405562ae52ff28dca106881d4b833c6cfa6ca6a71127bddfd41e85e1df0d1ec0dd802f3d55c6727de7f35f02fb1ff1a43d6d50ddde948a26600fffb25b97702c4c838a67b1eb4afed88d40e78758f3e7bdf8df0a5d07dd37d1a17a0c70f220145f490785f4b76afdf5bc61e637f09cb673cc791c8543715be25d08f8fb1cc6b9474251b23f54308f3c11f425d578261cad7808debd00defdd344f2ff22f7ba54ad353e93027b57fd19a611ab207268e567c1240cc8e2af5d34c34c21545ff7f6016ac14b683639304f867176aca2098302b5d4678d2d6df4849793df9c1ef9336535fd38effbd6de5864c204a9486cade562fa46d3b146c5ba440abb8bb630d5ef8db181e18e75c4ce70317359fb3ecd55f5af32fbe0de5f428fdbc0d475c2d5c5c2845b683671fdf9a1ca6677364731968610a8d0cb4812a3949e1304cad188eb1cb8f4e4e0fbc73a30022c391739779aeabe644f0df8a7d2540dd875a98b059d1f17f467a9b0ceba6652314c508370c3d874e889db1d96fd68801ce92c3597108cf278c30d18f478a5527ced3e68e154ce371a29d215615a7108aa2be622bff9429d37a3c62b52c8611f45b3ee8d570e7989fb5204329fe3262174df202117a1c0bf8a2b37e90581dcb776cc3e4fc18f1b14d6012ca5dd084e15d6b96204db2d913004efa9e0889f918ac480498bc93ddf5d81b6165d3ca462036ff76f0e4e1df267d014c55331dfc82916834d6aa349f02b731f32e71d495c8e226f63cd6737fd6733205b68ab0980fda97eb40e5670a0273270cbe271184f7d6510f5362bc3f09c790407a895716769fed22c71ab1941f7db32e2163d7ffa827d5930b5825d7431d9c998aca16e1280b3ceb9912e377b4ca6b397e21354cef2ed1bb4e2956f39de9a6491d4e896fd4aa35964fc4b7ac7de5070002910a937652ca2b5a774c0de68350fde1fcd9c6cbd015e88cdcc2ab5db511493db4994fc3135ec4e51d47ee465535d4f6df3f18930cb4b0b6bca77a0080d45d7fa5d7bbe388f57860b398b98ea8e5f87a90e34d08853683e21baeebc642bbab299ec5e7378238a59ac6e27e9f2f6e1d5309a446428e19ff08655257186478508f54507b7653ebb1794196080724e79f084c12e2e9dc0c60075082a715aa53a2d45384835b63d907d31c27f864ee122f8b0b1bf8562342262fc45ae833fc7c654d96bad9391aa9ad06c292570193ca0ef94040a4f9b8ec7d6f3f2b18bd31474266cb73b701c6b02685f6315e54b51ef3f1326f15ff74a279a730635ac512f4dcc6a1d0b50cabfdba31f3e33b0cf3efebb2079ad9d39e12cf986d9abc18478c8f665a566c72ec21e13af5ff7bb2c9716791031141528bb5c7dcdd0a252732394d4f5c6b869293b7b9c5cfd8ed1330383b495a5b626382b2b7bec3d5e2e9f8f90616192237484c5085a6b9bac8d3dfe8000000000000000000000000000000000000091b2e3e01",
        "0069d55c4f41ddd714db4c7b87a783e400d69220f74d4e2d4f2e25d3fa28ad79f2bc30f609140945c565bbeb6d1295ee0c195f1d8e599e1f82fc3b05dda6f8c8aefa593a9cef3c88289a98261928790c6004f712072c43832a77e776bfe007c317df6f1d2b031527334df7155ff8d4f81cd8707817c57978d8dc5154d6a9bcb5db644f2ab5e6ea850bf8014d65ba9e62d2a21d24dbef774dee79ad7a8b262e50467263637259939f9d4a5f04a6918157c4145b1319aeafddddd7037e66bc483111a4e46cad4288738057d9edcb39e9e97cf9a7c15e3de0255055e71606fe2fec382fcb1629605e08f914ef99e7bcadd8d3313a18ab0fd2df7095c5ae22022b256c6afea9074ad11a6219edff2cdda4e832aecd8265c9efb640b818e330f652d10b127d113dc491e187790454a1ae8f6d84fd689ba26587bf49d0e3e6f4c26a08a87c52054b7dd4670cf9a3c2bdb06b483bd376523b394efdddf013e31206f4448b1a36f3d9afdc9fe52934e59a64a583af32eee81b1b6fac9a2dceefa8f4e8b91e892ceea82c049bd01dee500f0f700bf7c07abcfa5211b349823faf9b3e489e4939c503b141a8fc120db16b792c7b7e624579153f5e5f2fbf3410cc0b21782a768e3a3933affb39258f5ecb5184d5c182ef6cf9047b4736b1a8e1220b6c5aa5e462883ca2e8de0892500e559858acd0175b5f16b0aea0abb769ab7bf15ae76842601ce0feaa4dd045edf5cd09f99bf2120f2590ee55ddac487691245bdd92a5b9f3b75b19cf9a409ee53d825f7af6a13b6a18287d4817e6f4fae1bcc8df3f60f0557553281b982b51bec0fcf5bff6ad2e2e51fa9c1deca8fe473d3896fb281c5c25b288a682729bfce81884787a73101e988c457581da55a9cd7bcd4b5815d04f1f14891b57e629aa55b81bf4c7dce7657f6105ad7998e456546750ccffbe0c02704bd978a09195fa4f46cf278b9c2049c966cf95f8b2c8a3b494df294834bdeee197dc0b6c349a0d6f7c26a57b47cc293d9a4362e8add93e62c34d573ba5a741e169a07a28770e08dac57d7250cc7f250cb195827dc70d412dec0f0fad420ecd0676daf32be0174e3430a05648711f4272e5e63b237c346e4fcb24f3120554e3de113483b14311843ad3043e0c533d11345010844811bcd1d4c855674df1d03cf0fb18775a1054c509213f2172c391e44644692341939fd58dbf370570e88437770d571dafce98cd114c060910538d1346d0a485b5b2a88167526f886065da8730948cb4c978a47f344bf260d3b0d0720c6a22f4051a6d14a37fc2993df5fe83d1eec9c886629f2297ed36577b6f71dd7bac61d89f76b65425eb108a1de3396d91e7a6c2ed63cbb2589629e5f8af23bd21aeb434d177d08aac7f5e8c19b9e320525f21e6afadc1f53cf732736bbacadf6dcf2287b398170b777b7b958022bdccbce2ef3cdb9d3685d0b1a9f956c46e57dc2b5eb815867819fe29db551cae037fe48fa930a3adf3b33eda346c944fbaf5144e2de4aa0be67c4675d704807c687f247318ab01161f23a06726adb165086e920cc799ce0d37ff9cbc2cbf91b79c81dbdf2c7148d9b7c4d99d6da365671eff541c8a9a3581b82742fd7d606ea8ea1a2bdd123f316bb7a2b8dfcecb3832fc68ebf67d2da2a1c90feaf1da2d7a31319e0159dad0736fd87b65def84f6d46ec564c8aac22776c53e551c312d5479c7a0ec6d10091f160e0c49952845083650ca1a4499a2bf086a99eca20171b3dfa365bd6148435229d3d64f3e857242998e25956db85e2d210cd5a2e1afe0ffc2c146b641f5181d58991672f9ba752e99ee9f7dc94ae821d298a53330ea691025f63b0"
      ],
      "sequence": 4294967294
    }
  ],
  "vout": [
    {
      "value": 499975.5944,
      "n": 0,
      "scriptPubKey": {
        "asm": "1 6cb3dbdfe4a35ae98987eb2814d354a5159a30af6fd36fa38a1b898eed8da0e8",
        "hex": "51206cb3dbdfe4a35ae98987eb2814d354a5159a30af6fd36fa38a1b898eed8da0e8",
        "reqSigs": 1,
        "type": "witness_v1_scripthash",
        "addresses": [
          "3QJmnh"
        ]
      }
    },
    {
      "value": 1.0,
      "n": 1,
      "scriptPubKey": {
        "asm": "OP_RETURN d4307cbcaa63b8b9615e33901152f195b3d8a0a666ed97a61f4f23af0d2581a4 5f9d2b19ebac4d0394eeca8ac2bd51efe34a411cd1a224da44bf0820a078d48e7fbd0b39cb8c6d23b4ceeaaae29d71cfc36a613cf18204fa649f28008058f4ae1fdd6b59abec0d43d4ae8aca82fd11afa30a015c91e2649a04ff4860e03894ce3ffd4b798bcc2d63f48eaaeaa2dd318f832a217cb1c244ba24df6840c018b4eedf1dab996b2ccd83146e4a0a423dd16f63cac19c5122a45ac43f88a020f8540eff3d8bb94b0ceda3344e6a2a621df14f43eae1bc7102847ae41fa88000d8742e9f5debd92b6c8dc3542e0a4a027d912f238a81dc1162e41a847fc8e060b8144ebf7dcbf90b4cade3740e2a6a225db10f03aaa1fc3142c43aa45fe8c04098346e5f9d2b19ebac4d0394eeca8ac2bd51efe34a411cd1a224da44bf0820a078d48e7fbd0b39cb8c6d23b4ceeaaae29d71cfc36a613cf18204fa649f28008058f4ae1fdd6b59abec0d43d4ae8aca82fd11afa30a015c91e2649a04ff4860e03894ce3ffd4b798bcc2d63f48eaaeaa2dd318f832a217cb1c244ba24df6840c018b4eedf1dab996b2ccd83146e4a0a423dd16f63cac19c5122a45ac43f88a020f8540eff3d8bb94b0ceda3344e6a2a621df14f43eae1bc7102847ae41fa88000d8742e9f5debd92b6c8dc3542e0a4a027d912f238a81dc1162e41a847fc8e060b8144ebf7dcbf90b4cade3740e2a6a225db10f03aaa1fc3142c43aa45fe8c04098346e5f9d2b19ebac4d0394eeca8ac2bd51efe34a411cd1a224da44bf0820a078d48e7fbd0b39cb8c6d23b4ceeaaae29d71cfc36a613cf18204fa649f28008058f4ae1fdd6b59abec0d43d4ae8aca82fd11afa30a015c91e2649a04ff4860e03894ce3ffd4b798bcc2d63f48eaaeaa2dd318f832a217cb1c244ba24df6840c018b4eedf1dab996b2ccd83146e4a0a423dd16f63cac19c5122a45ac43f88a020f8540eff3d8bb94b0ceda3344e6a2a621df14f43eae1bc7102847ae41fa88000d8742e9f5debd92b6c8dc3542e0a4a027d912f238a81dc1162e41a847fc8e060b8144ebf7dcbf90b4cade3740e2a6a225db10f03aaa1fc3142c43aa45fe8c04098346e5f9d2b19ebac4d0394eeca8ac2bd51efe34a411cd1a224da44bf0820a078d48e7fbd0b39cb8c6d23b4ceeaaae29d71cfc36a613cf18204fa649f28008058f4ae1fdd6b59abec0d43d4ae8aca82fd11afa30a015c91e2649a04ff4860e03894ce3ffd4b798bcc2d63f48eaaeaa2dd318f832a217cb1c244ba24df6840c018b4eedf1dab996b2ccd83146e4a0a423dd16f63cac19c5122a45ac43f88a020f8540eff3d8bb94b0ceda3344e6a2a621df14f43eae1bc7102847ae41fa88000d8742e9f5debd92b6c8dc3542e0a4a027d912f238a81dc1162e41a847fc8e060b8144ebf7dcbf90b4cade3740e2a6a225db10f03aaa1fc3142c43aa45fe8c04098346e5f9d2b19ebac4d0394eeca8ac2bd51efe34a411cd1a224da44bf0820a078d48e7fbd0b39cb8c6d23b4ceeaaae29d71cfc36a613cf18204fa649f28008058f4ae1fdd6b59abec0d43d4ae8aca82fd11afa30a015c91e2649a04ff4860e03894ce3ffd4b798bcc2d63f48eaaeaa2dd318f832a217cb1c244ba24df6840c018b4eedf1dab996b2ccd83146e4a0a423dd16f07ae29849f6a139f229d12d8c683594da1758ae4ee4ce33b4ceb678bbc83ab90",
        "hex": "6a20d4307cbcaa63b8b9615e33901152f195b3d8a0a666ed97a61f4f23af0d2581a44db0045f9d2b19ebac4d0394eeca8ac2bd51efe34a411cd1a224da44bf0820a078d48e7fbd0b39cb8c6d23b4ceeaaae29d71cfc36a613cf18204fa649f28008058f4ae1fdd6b59abec0d43d4ae8aca82fd11afa30a015c91e2649a04ff4860e03894ce3ffd4b798bcc2d63f48eaaeaa2dd318f832a217cb1c244ba24df6840c018b4eedf1dab996b2ccd83146e4a0a423dd16f63cac19c5122a45ac43f88a020f8540eff3d8bb94b0ceda3344e6a2a621df14f43eae1bc7102847ae41fa88000d8742e9f5debd92b6c8dc3542e0a4a027d912f238a81dc1162e41a847fc8e060b8144ebf7dcbf90b4cade3740e2a6a225db10f03aaa1fc3142c43aa45fe8c04098346e5f9d2b19ebac4d0394eeca8ac2bd51efe34a411cd1a224da44bf0820a078d48e7fbd0b39cb8c6d23b4ceeaaae29d71cfc36a613cf18204fa649f28008058f4ae1fdd6b59abec0d43d4ae8aca82fd11afa30a015c91e2649a04ff4860e03894ce3ffd4b798bcc2d63f48eaaeaa2dd318f832a217cb1c244ba24df6840c018b4eedf1dab996b2ccd83146e4a0a423dd16f63cac19c5122a45ac43f88a020f8540eff3d8bb94b0ceda3344e6a2a621df14f43eae1bc7102847ae41fa88000d8742e9f5debd92b6c8dc3542e0a4a027d912f238a81dc1162e41a847fc8e060b8144ebf7dcbf90b4cade3740e2a6a225db10f03aaa1fc3142c43aa45fe8c04098346e5f9d2b19ebac4d0394eeca8ac2bd51efe34a411cd1a224da44bf0820a078d48e7fbd0b39cb8c6d23b4ceeaaae29d71cfc36a613cf18204fa649f28008058f4ae1fdd6b59abec0d43d4ae8aca82fd11afa30a015c91e2649a04ff4860e03894ce3ffd4b798bcc2d63f48eaaeaa2dd318f832a217cb1c244ba24df6840c018b4eedf1dab996b2ccd83146e4a0a423dd16f63cac19c5122a45ac43f88a020f8540eff3d8bb94b0ceda3344e6a2a621df14f43eae1bc7102847ae41fa88000d8742e9f5debd92b6c8dc3542e0a4a027d912f238a81dc1162e41a847fc8e060b8144ebf7dcbf90b4cade3740e2a6a225db10f03aaa1fc3142c43aa45fe8c04098346e5f9d2b19ebac4d0394eeca8ac2bd51efe34a411cd1a224da44bf0820a078d48e7fbd0b39cb8c6d23b4ceeaaae29d71cfc36a613cf18204fa649f28008058f4ae1fdd6b59abec0d43d4ae8aca82fd11afa30a015c91e2649a04ff4860e03894ce3ffd4b798bcc2d63f48eaaeaa2dd318f832a217cb1c244ba24df6840c018b4eedf1dab996b2ccd83146e4a0a423dd16f63cac19c5122a45ac43f88a020f8540eff3d8bb94b0ceda3344e6a2a621df14f43eae1bc7102847ae41fa88000d8742e9f5debd92b6c8dc3542e0a4a027d912f238a81dc1162e41a847fc8e060b8144ebf7dcbf90b4cade3740e2a6a225db10f03aaa1fc3142c43aa45fe8c04098346e5f9d2b19ebac4d0394eeca8ac2bd51efe34a411cd1a224da44bf0820a078d48e7fbd0b39cb8c6d23b4ceeaaae29d71cfc36a613cf18204fa649f28008058f4ae1fdd6b59abec0d43d4ae8aca82fd11afa30a015c91e2649a04ff4860e03894ce3ffd4b798bcc2d63f48eaaeaa2dd318f832a217cb1c244ba24df6840c018b4eedf1dab996b2ccd83146e4a0a423dd16f07ae29849f6a139f229d12d8c683594da1758ae4ee4ce33b4ceb678bbc83ab90",
        "type": "nulldata"
      }
    }
  ],
  "blockhash": "394f302ff1829b8db869c98f7b64fb5f27cc2b50e933cff1e5bbeae34fa68a80",
  "confirmations": 1,
  "time": 1764183654,
  "blocktime": 1764183654
}