{
  "hex": "010000000001017751424c29f0a836e8af6d024f852ecb45307eee1ccb60d8e7c6aae6b7f717330100000000feffffff0200e1f50500000000fdd5046a20590aebc3b978df11ac901d28102772ba6284a57bce8f836cc23a10dd954f8cc44db004fb216f6c3a902f8ba6591a56c1a7b72c17bb515961d9a5d9bdb80bf19848a66bdb014f4c1ab00fab86793a76e187970c379b717941f985f99d982bd1b868864bbb612f2c7ad06fcbe6195a1681e7f76c57fb11192199e599fdf84bb1d808e62b9b410f0c5af04febc6397a36a1c7d74c77db313901b9c5b9ddd86b91f828c60b7ba1efecba10af0b26d99ad6412737ac973bd1d9e15925593d388b7118c826eb5b81cfcc9a308f2b06f9baf66107178cb71bf1f9c17905791d18ab5138e806cb3be1afacfa50ef4b6699da96016777ecd77b9199a11965197d78cb31588866ab1bc18f8cda70cf6b46b9fab6214757ccf75bb1b9813945395d58eb1178a8468bfb216f6c3a902f8ba6591a56c1a7b72c17bb515961d9a5d9bdb80bf19848a66bdb014f4c1ab00fab86793a76e187970c379b717941f985f99d982bd1b868864bbb612f2c7ad06fcbe6195a1681e7f76c57fb11192199e599fdf84bb1d808e62b9b410f0c5af04febc6397a36a1c7d74c77db313901b9c5b9ddd86b91f828c60b7ba1efecba10af0b26d99ad6412737ac973bd1d9e15925593d388b7118c826eb5b81cfcc9a308f2b06f9baf66107178cb71bf1f9c17905791d18ab5138e806cb3be1afacfa50ef4b6699da96016777ecd77b9199a11965197d78cb31588866ab1bc18f8cda70cf6b46b9fab6214757ccf75bb1b9813945395d58eb1178a8468bfb216f6c3a902f8ba6591a56c1a7b72c17bb515961d9a5d9bdb80bf19848a66bdb014f4c1ab00fab86793a76e187970c379b717941f985f99d982bd1b868864bbb612f2c7ad06fcbe6195a1681e7f76c57fb11192199e599fdf84bb1d808e62b9b410f0c5af04febc6397a36a1c7d74c77db313901b9c5b9ddd86b91f828c60b7ba1efecba10af0b26d99ad6412737ac973bd1d9e15925593d388b7118c826eb5b81cfcc9a308f2b06f9baf66107178cb71bf1f9c17905791d18ab5138e806cb3be1afacfa50ef4b6699da96016777ecd77b9199a11965197d78cb31588866ab1bc18f8cda70cf6b46b9fab6214757ccf75bb1b9813945395d58eb1178a8468bfb216f6c3a902f8ba6591a56c1a7b72c17bb515961d9a5d9bdb80bf19848a66bdb014f4c1ab00fab86793a76e187970c379b717941f985f99d982bd1b868864bbb612f2c7ad06fcbe6195a1681e7f76c57fb11192199e599fdf84bb1d808e62b9b410f0c5af04febc6397a36a1c7d74c77db313901b9c5b9ddd86b91f828c60b7ba1efecba10af0b26d99ad6412737ac973bd1d9e15925593d388b7118c826eb5b81cfcc9a308f2b06f9baf66107178cb71bf1f9c17905791d18ab5138e806cb3be1afacfa50ef4b6699da96016777ecd77b9199a11965197d78cb31588866ab1bc18f8cda70cf6b46b9fab6214757ccf75bb1b9813945395d58eb1178a8468bfb216f6c3a902f8ba6591a56c1a7b72c17bb515961d9a5d9bdb80bf19848a66bdb014f4c1ab00fab86793a76e187970c379b717941f985f99d982bd1b868864bbb612f2c7ad06fcbe6195a1681e7f76c57fb11192199e599fdf84bb1d808e62b9b410f0c5af04febc6397a36a1c7d74c77db313901b9c5b9ddd86b91f828c60b7ba1efecba10af0b26d99ad6412737ac7ae2e9b2c21d87cb4412541cd6fc7ba2cc9bd4e84add4cc1e8aae54a7da5d9a470cc3221792d00002251202d2b883f61ea6763c25c1ae012d0e4ddabb212141e3d3329fc0bb536f18e034a02fd7509d6542eadaec27c58d4f5549071eb03abc5b771f3c3306cfca51d5bce28faef40e7d910a4b453d86716e03fca92a888228feb31877e120ef1b9677e97fe706489ec08b9eb819ce52815db1867de5e265da62996b1216e7824dbf64136cd12241ad4717b14ed516bbd52ed5c5a48c1f2f1db0fb7d94749d2cacd52cbd204c388f48c71b03cff38195de9228eea426895f51c42fb61783dc5d7f64eccff0bcb08dc9d42860dd07fbd26949a99e2639ac3bb2f78b89cd57f1a687b5fb44f322b6bc066e659510395a1d4190eca9cc83a96b40e4c8e91639c49d7b8a1cef012bc006260e32f5e2c054a39db29c0a1d81b1257ee2f6b358269993d169c4c7ceeab412af3d2d1b6424147c655f49ae4d3801b3401da0505c5be55e0e65bffb918c7d9b58f1ff37ab44e5154beacc96dde64c8bf28ea8c60b19e126be4246ce7347b2a6b36649a46828419b12bc43219be182ffe02611b9976b840bbcd7f0c1db0966b45f5012d6a46f7ef9d92ecb0a6d9336788abd1bf87a07ac4bc4540ea4bed85385c07b80c8f267aad63bde035b694dbcfdc6d7e281f686f52083918aef0cbf30e49a1b1ad1916fdb2a39c896bd4d2c80eb3e96fa9b97fc87ff6c6efda945e86b37881b8f288bf1b10ca961b03b6ca1ec016631d7d433359548b6bd3b5392da91ed7bc472e2b6d7dfe30d202856a7f81b71c95fdbbca22f9cbc75006a24428c5aac26f74e3992eb76ec5e4245c758d68a15b6d7443c5eb5c80218dc40120cc1ed4173af5198e34c2695c9775d93253ab80c787fdd3db04f3b1ca8265da9c38cfc8f47d331d1502152e5907c2cb95cf59f5de7a1e93b96b1386f9e745f92621931e7bc4e06823a6df136b71ad6d4df67a50a1d9b006297c58209ef53cdbd1a14c8bc4d6e9a62d00609c0f688779713199c2d09fef15975ded7c2753096a0f1165d5d13fddd91cff50873762f903913739497f330dd0837612d128c48c55293204b15d0371b196831775b71c7a2c36d8a98e00ceb9217b44b8abc4872b9c944999a564a7be2d86f549a912213d94619cbade035f4b60cdd077fd7eb95b8ec233bcfd0ba420a61adaf25813697de9d549acd500bf8436d0cd78c5a4122de2ecf3092fff06b76b4224c5e5c6d96530c8f69bcf8fd699f9efaaab3eeb49f749f362e68ff53b700e382335559e7008bda531645c384ce492a85a766ff38b8faeb096ec4f962e16c9e45b6c69afb1d2224ba77bf76996ceb6c33e2e180c207797b742c96bec0098dd802ab2230d059153de6454002891622922401b8659a1e542be2396f57e1adf4c785b0ea51a8ed89684d0bd2905702f555f64d4295b731d967984cc23842790c8130293eef1031067cc784faaee386de1e91f6b2e738185f3327c84a05da75abf07a958bf861046b6cc38ae4842ede642be197807c3b086dc6fc8cf60a1b2b51b795d4ea22f68d4370f2ee6ce4d9905f24e4f21b0a67994e0c91e2efcdb7ea868312d88b34e2987ec80f3d15c6a8fd45c8138638d3b9f65d6b7880c2795df3f709d9bb650e238bdabc578a3bd466360ecd01ca613cd1cb22c44da3df8942093296db2537a6c3ff8f60fc7ff2370853f5480f481316634c6bcee48dc72e334ad3d5ef4cf11f809581f817dbf9bddeb7d50c495909274e07aeb49ad24493e02128a438d5ee109d90298164cb3aca8a9440fe9c37941b86b0abd204676cc2068788cd2f78de1691d5ccda69c22d0b194b31b3f100722bfb76afa7a02649ac3f973f0d7f8aafc1e6c0ed2e211a3d70886c0a6a1a906e86026457682c224c94fcd3daab27f102df0cdd257e17dcf7372def895d691b14d0b1078d9126de06d81dec7e16cf68a5ae13f936e3112c99a407b20b0edcda5f4602c55d9908a4b2fc44c1f4a30fb70bcf51a11ecf9f2c86486cdf74dfca93ba78ad72a5838c134e561d1d5f96724ab3e45627d1d3193ea963ebf1ea4cd953d81751f5396fc4f09d15a9a4decbbade7a0584bd6a14efc3f079884c5bd2e485ec188c395a01f46f11ea528f6154dae2f5dc72f26164dfc26cd584e7f4851b38d424c6d00ec75bf5351841e79d433af8c82c40daa42ba98c2caca648853fcc78c0ce83206f2f71b7a47a1b89f3a3d7f2ca4e90b310ad6f5ac79fee26b6c9f00ab531ad86950cb9fe3db9baf9076e5e3910a09334cb8385902a6fad616d9246fe23de6af5d1f2add79f83f4970bcb30d31bd6b110754a2fd9bce189d262862c69e675c29a74dcfb6ca2ab17b4d61c0b35614534abba874ac9745792154e27dee7fecdb1c89cb49a8b3ea07c33c14cb7639f4670df9c4d736f6046441b7d47512dc82ca3f7c28261e554052ad1734bcd656071007a0404a8d48767eb522f17132cddaf8457ae15af0a021a7c09602ea71d89b426264ba6c67966a9f4df8b4a8617bc378d3a8449b60f267f880f8a62e5c974e912ba58b09bb9fd7a0ef7f4ca468b4ac6ae18b29786eb2a1f3b4340818d22c33291153da97d279c694dc5ef0d2bb7b1b5b1e4b3d2b477232b94dae4bfe2db91782d615ccadf5d192b7b4cf3bf3d231683e409c9049611db093758bf99f66c7537c9c0c8ae3585617203b96f4296c217525cc0fa19158e4586eee1a08e341919d5446f844ab29b38ff9ac6f0c9cc0408ab6f09ab3b727dc23a2d91b96df586d3062efccd2588fe18c02aa8ac9cdb2c14243c251285b7506ad810f2a0d65ced4f06392459f086fbe61f75c59a812bcc859e371047245bb865bb90abda5933b54791e12bb9263832419da9767f47df7fc6f2dae0655314e8b6a577bedd0f41240326181f48ae6313a4b13465b8bdd039f68d88afaec161761ec057db8087ce2d0a149f4e90d7986055babeb9b565357843301a8ffece0f1cd685f8d3dde3d6f144f7921c5eedbd61a5c2edfe5d691f8abecbf7b5c4fa1feda305664fbc171f499375a3bdfe2d85dd5ac7dece07ff19cc1670c9e19a596a091429742039e0128512dbe1f8e1c58c404e84de5db5e1c92a695c45676736bb9a3dccb932a27022dd023dfb4d43556351bc9aca1da20bd6c8ffa9d589ec439047d15acd2df6099fdf43d8adce80bcb42f8e52f47ef42172c4e76a8b97ee95e95c490b19bf8e54e3065c96eb076576a28f5eadab97fc644b4266ea80fc61f81a901563aea990629574e24c276d2b62589e99e7e01da1cb499eeb9e564829105733cf075fc2cd3baea0c12726f9b25e5e7eb1988f1bb1fc2a32219dcc058983669f623ddfa3818b43c3337f6ade9c8873977fa779216a26de6ca905da1ef14c71e1f266e242c333a404a5b686eb4bbc7c9dbe3f2f4050b121f20323967687377a7a8d3d9e0e3edf200011119454f5e657092b0c2c3c9caf6fb162a2f7c8b8d8ebad2fd00000000000000000000000000000000001124353f01fd210500bb3631cc321da0dba178f9c05e6dc4407c085fb3648324973b2710f6af1222f765a484e85d344b5041dd0f4c96b273cadbea6bc2586b79e45f72144c87f81c497967c70195f83c5817045e6086b2a029957e685daadd25464edc440bb98c4d14a18014704f7663c0988e56fc42cf8864fb8544f15acd704e6d9ff030f0d4a181e98e020dee0b63f51ce701272037ec640c42a90cd34b6548e7e27d347bab720bfa410db65028552387b1b2e5227155ea21d68a4dc03455376329803b8db131506a265dcc777f39907f8a5251051ee359306a73d365a8d5699d4ba203719ed754d33c5c42edc72c7df4c82a77d6f495f54124b21f898d630d367d80bcf7456a454bc981c70bfe3899e9edaff8e8d658735a4100a08985a42594851a94722ad0c187c85fe3cdf1124e0468fae923a6ad6dd825a129bd9dba5709c71d33127568e77dc8af14f5db5038f19b3041a83f34a85512d9edbc361b4dbdfe91668eda4845b326e282cd9f7070bacf4dbbbbe457378043cf8c0fce504e581b67d7731f321bc47df3bcef6a4e3d8a81f22bd2cda80897e29e09222b3684a5d522107627630b91b86ac9fb1d5d0f2bffc36b8e67fec2f825c4234c62798ca31a757ee3c62e5ed9dd449320d0d964464c1df53e6674460827f1a49b66cb7cfe4b836796a14045b896d284d1ce600b8a21b6105847ac6b255729514ee3bc437c711226ce9454e5fe3c14368fa8df07e0fe1b130d75fd1e9b4f4ae351c3ec51b10a7ba42f019721329332215b96aacb5ec76a001890f14e6eab7e1c60b9a81e9a68c20514ba6e90f5fd17a00a84a0eb7112c0fabb27298dfa7f91864f4e23a4d072890e32c11250d786338d677503d01d80cc6cacaae222249862ce42c76629c30d2bc7bbd0a90e5e9c94bd0fe65a7c714b0a2a3af30a309bea67bd1b1beb06989f0ad4e1fe5c48085553fefbb34835a13c51bcedba4809de185932b570e6eb1567ccc35095175f6f251ac892d7588088713c78450561227b4e13b9cba319f7c7401a26847bbcd3c441c110ba435e26b3bd96420f0f6ebeaab32881aec1c1cbb78e6b16920c28e33e68001d9814ddd81d723851c67f2914f41346ff19cb7e1fc4e0cfbb621d5458efa6d767c34fe795cac5557f23c5ad82b2537d395ac5f3f5e4231c80de167ddefafa82fc07d84b2a2e27cc8951ef94c0875925b0ac2b1cf1820c6c01c43cb99d8a9ee50261cde69329c8d83ac6dd19a8d65b9c86f5610a863b1eee9400b1ad2d884b7b6c26fdea630127db78ee43d8eb5110dca510e39ede3aadf5f3adc6c5aa632d24ebc66ac2b0503b0e411828daa47c461dc33530d92836bee69a538b3bb0b4f741bc6403ac88ed302844e3b693347508e350b7f6d35651d2ef9a87fb53dc3eea8bfba07d95df247793d5c49be89dbabc40a6dc91f3602dabdd50895c102c34220f7751ae8f0e282308a9748704bb714fcb6f5442c3f306b6d720a38868cc0749b6f048e1293bcd73e3f72d935ee1a5aa785015dab45db4771731ad0342fe4c9d6bc16148758c714a6c4ecb6eeb54fe514b9315c01447fae38b9af80b53645e565ab09fd36a529fa0055282a01adf42010092617cebb19c6cb331039804299e6404ea1cfdb4e92eb1cadf44a6696bb43fc5cc9216f5618ced9513136357dc30677f147a8c8c51911466a0f6f934d94d58b2d2050415fc1b7205a4867e85e663efbe1326fb0bff1900638b83f75b07d2f21d771810bf60345032228e44258f87d6f04b7ff5ed0207eef19b7044b8a6b53cbc51c28539ef16aaaa6037130b94bd802cd60e576ccdc897b70d44adfbf53e579feda233bfe59d5b66d22b31ebd577000000",
  "txid": "ca35b442338a7ee4779011da307cb5aba1d29761afd6f5bf32cbf2ece8bcaab0",
  "hash": "ce084fa5a57490dca08a328dfc964720e226407171987c38103db8feed71994f",
  "size": 5085,
  "vsize": 2278,
  "version": 1,
  "locktime": 119,
  "vin": [
    {
      "txid": "3317f7b7e6aac6e7d860cb1cee7e3045cb2e854f026dafe836a8f0294c425177",
      "vout": 1,
      "scriptSig": {
        "asm": "",
        "hex": ""
      },
      "txinwitness": [
        "d6542eadaec27c58d4f5549071eb03abc5b771f3c3306cfca51d5bce28faef40e7d910a4b453d86716e03fca92a888228feb31877e120ef1b9677e97fe706489ec08b9eb819ce52815db1867de5e265da62996b1216e7824dbf64136cd12241ad4717b14ed516bbd52ed5c5a48c1f2f1db0fb7d94749d2cacd52cbd204c388f48c71b03cff38195de9228eea426895f51c42fb61783dc5d7f64eccff0bcb08dc9d42860dd07fbd26949a99e2639ac3bb2f78b89cd57f1a687b5fb44f322b6bc066e659510395a1d4190eca9cc83a96b40e4c8e91639c49d7b8a1cef012bc006260e32f5e2c054a39db29c0a1d81b1257ee2f6b358269993d169c4c7ceeab412af3d2d1b6424147c655f49ae4d3801b3401da0505c5be55e0e65bffb918c7d9b58f1ff37ab44e5154beacc96dde64c8bf28ea8c60b19e126be4246ce7347b2a6b36649a46828419b12bc43219be182ffe02611b9976b840bbcd7f0c1db0966b45f5012d6a46f7ef9d92ecb0a6d9336788abd1bf87a07ac4bc4540ea4bed85385c07b80c8f267aad63bde035b694dbcfdc6d7e281f686f52083918aef0cbf30e49a1b1ad1916fdb2a39c896bd4d2c80eb3e96fa9b97fc87ff6c6efda945e86b37881b8f288bf1b10ca961b03b6ca1ec016631d7d433359548b6bd3b5392da91ed7bc472e2b6d7dfe30d202856a7f81b71c95fdbbca22f9cbc75006a24428c5aac26f74e3992eb76ec5e4245c758d68a15b6d7443c5eb5c80218dc40120cc1ed4173af5198e34c2695c9775d93253ab80c787fdd3db04f3b1ca8265da9c38cfc8f47d331d1502152e5907c2cb95cf59f5de7a1e93b96b1386f9e745f92621931e7bc4e06823a6df136b71ad6d4df67a50a1d9b006297c58209ef53cdbd1a14c8bc4d6e9a62d00609c0f688779713199c2d09fef15975ded7c2753096a0f1165d5d13fddd91cff50873762f903913739497f330dd0837612d128c48c55293204b15d0371b196831775b71c7a2c36d8a98e00ceb9217b44b8abc4872b9c944999a564a7be2d86f549a912213d94619cbade035f4b60cdd077fd7eb95b8ec233bcfd0ba420a61adaf25813697de9d549acd500bf8436d0cd78c5a4122de2ecf3092fff06b76b4224c5e5c6d96530c8f69bcf8fd699f9efaaab3eeb49f749f362e68ff53b700e382335559e7008bda531645c384ce492a85a766ff38b8faeb096ec4f962e16c9e45b6c69afb1d2224ba77bf76996ceb6c33e2e180c207797b742c96bec0098dd802ab2230d059153de6454002891622922401b8659a1e542be2396f57e1adf4c785b0ea51a8ed89684d0bd2905702f555f64d4295b731d967984cc23842790c8130293eef1031067cc784faaee386de1e91f6b2e738185f3327c84a05da75abf07a958bf861046b6cc38ae4842ede642be197807c3b086dc6fc8cf60a1b2b51b795d4ea22f68d4370f2ee6ce4d9905f24e4f21b0a67994e0c91e2efcdb7ea868312d88b34e2987ec80f3d15c6a8fd45c8138638d3b9f65d6b7880c2795df3f709d9bb650e238bdabc578a3bd466360ecd01ca613cd1cb22c44da3df8942093296db2537a6c3ff8f60fc7ff2370853f5480f481316634c6bcee48dc72e334ad3d5ef4cf11f809581f817dbf9bddeb7d50c495909274e07aeb49ad24493e02128a438d5ee109d90298164cb3aca8a9440fe9c37941b86b0abd204676cc2068788cd2f78de1691d5ccda69c22d0b194b31b3f100722bfb76afa7a02649ac3f973f0d7f8aafc1e6c0ed2e211a3d70886c0a6a1a906e86026457682c224c94fcd3daab27f102df0cdd257e17dcf7372def895d691b14d0b1078d9126de06d81dec7e16cf68a5ae13f936e3112c99a407b20b0edcda5f4602c55d9908a4b2fc44c1f4a30fb70bcf51a11ecf9f2c86486cdf74dfca93ba78ad72a5838c134e561d1d5f96724ab3e45627d1d3193ea963ebf1ea4cd953d81751f5396fc4f09d15a9a4decbbade7a0584bd6a14efc3f079884c5bd2e485ec188c395a01f46f11ea528f6154dae2f5dc72f26164dfc26cd584e7f4851b38d424c6d00ec75bf5351841e79d433af8c82c40daa42ba98c2caca648853fcc78c0ce83206f2f71b7a47a1b89f3a3d7f2ca4e90b310ad6f5ac79fee26b6c9f00ab531ad86950cb9fe3db9baf9076e5e3910a09334cb8385902a6fad616d9246fe23de6af5d1f2add79f83f4970bcb30d31bd6b110754a2fd9bce189d262862c69e675c29a74dcfb6ca2ab17b4d61c0b35614534abba874ac9745792154e27dee7fecdb1c89cb49a8b3ea07c33c14cb7639f4670df9c4d736f6046441b7d47512dc82ca3f7c28261e554052ad1734bcd656071007a0404a8d48767eb522f17132cddaf8457ae15af0a021a7c09602ea71d89b426264ba6c67966a9f4df8b4a8617bc378d3a8449b60f267f880f8a62e5c974e912ba58b09bb9fd7a0ef7f4ca468b4ac6ae18b29786eb2a1f3b4340818d22c33291153da97d279c694dc5ef0d2bb7b1b5b1e4b3d2b477232b94dae4bfe2db91782d615ccadf5d192b7b4cf3bf3d231683e409c9049611db093758bf99f66c7537c9c0c8ae3585617203b96f4296c217525cc0fa19158e4586eee1a08e341919d5446f844ab29b38ff9ac6f0c9cc0408ab6f09ab3b727dc23a2d91b96df586d3062efccd2588fe18c02aa8ac9cdb2c14243c251285b7506ad810f2a0d65ced4f06392459f086fbe61f75c59a812bcc859e371047245bb865bb90abda5933b54791e12bb9263832419da9767f47df7fc6f2dae0655314e8b6a577bedd0f41240326181f48ae6313a4b13465b8bdd039f68d88afaec161761ec057db8087ce2d0a149f4e90d7986055babeb9b565357843301a8ffece0f1cd685f8d3dde3d6f144f7921c5eedbd61a5c2edfe5d691f8abecbf7b5c4fa1feda305664fbc171f499375a3bdfe2d85dd5ac7dece07ff19cc1670c9e19a596a091429742039e0128512dbe1f8e1c58c404e84de5db5e1c92a695c45676736bb9a3dccb932a27022dd023dfb4d43556351bc9aca1da20bd6c8ffa9d589ec439047d15acd2df6099fdf43d8adce80bcb42f8e52f47ef42172c4e76a8b97ee95e95c490b19bf8e54e3065c96eb076576a28f5eadab97fc644b4266ea80fc61f81a901563aea990629574e24c276d2b62589e99e7e01da1cb499eeb9e564829105733cf075fc2cd3baea0c12726f9b25e5e7eb1988f1bb1fc2a32219dcc058983669f623ddfa3818b43c3337f6ade9c8873977fa779216a26de6ca905da1ef14c71e1f266e242c333a404a5b686eb4bbc7c9dbe3f2f4050b121f20323967687377a7a8d3d9e0e3edf200011119454f5e657092b0c2c3c9caf6fb162a2f7c8b8d8ebad2fd00000000000000000000000000000000001124353f01",
        "00bb3631cc321da0dba178f9c05e6dc4407c085fb3648324973b2710f6af1222f765a484e85d344b5041dd0f4c96b273cadbea6bc2586b79e45f72144c87f81c497967c70195f83c5817045e6086b2a029957e685daadd25464edc440bb98c4d14a18014704f7663c0988e56fc42cf8864fb8544f15acd704e6d9ff030f0d4a181e98e020dee0b63f51ce701272037ec640c42a90cd34b6548e7e27d347bab720bfa410db65028552387b1b2e5227155ea21d68a4dc03455376329803b8db131506a265dcc777f39907f8a5251051ee359306a73d365a8d5699d4ba203719ed754d33c5c42edc72c7df4c82a77d6f495f54124b21f898d630d367d80bcf7456a454bc981c70bfe3899e9edaff8e8d658735a4100a08985a42594851a94722ad0c187c85fe3cdf1124e0468fae923a6ad6dd825a129bd9dba5709c71d33127568e77dc8af14f5db5038f19b3041a83f34a85512d9edbc361b4dbdfe91668eda4845b326e282cd9f7070bacf4dbbbbe457378043cf8c0fce504e581b67d7731f321bc47df3bcef6a4e3d8a81f22bd2cda80897e29e09222b3684a5d522107627630b91b86ac9fb1d5d0f2bffc36b8e67fec2f825c4234c62798ca31a757ee3c62e5ed9dd449320d0d964464c1df53e6674460827f1a49b66cb7cfe4b836796a14045b896d284d1ce600b8a21b6105847ac6b255729514ee3bc437c711226ce9454e5fe3c14368fa8df07e0fe1b130d75fd1e9b4f4ae351c3ec51b10a7ba42f019721329332215b96aacb5ec76a001890f14e6eab7e1c60b9a81e9a68c20514ba6e90f5fd17a00a84a0eb7112c0fabb27298dfa7f91864f4e23a4d072890e32c11250d786338d677503d01d80cc6cacaae222249862ce42c76629c30d2bc7bbd0a90e5e9c94bd0fe65a7c714b0a2a3af30a309bea67bd1b1beb06989f0ad4e1fe5c48085553fefbb34835a13c51bcedba4809de185932b570e6eb1567ccc35095175f6f251ac892d7588088713c78450561227b4e13b9cba319f7c7401a26847bbcd3c441c110ba435e26b3bd96420f0f6ebeaab32881aec1c1cbb78e6b16920c28e33e68001d9814ddd81d723851c67f2914f41346ff19cb7e1fc4e0cfbb621d5458efa6d767c34fe795cac5557f23c5ad82b2537d395ac5f3f5e4231c80de167ddefafa82fc07d84b2a2e27cc8951ef94c0875925b0ac2b1cf1820c6c01c43cb99d8a9ee50261cde69329c8d83ac6dd19a8d65b9c86f5610a863b1eee9400b1ad2d884b7b6c26fdea630127db78ee43d8eb5110dca510e39ede3aadf5f3adc6c5aa632d24ebc66ac2b0503b0e411828daa47c461dc33530d92836bee69a538b3bb0b4f741bc6403ac88ed302844e3b693347508e350b7f6d35651d2ef9a87fb53dc3eea8bfba07d95df247793d5c49be89dbabc40a6dc91f3602dabdd50895c102c34220f7751ae8f0e282308a9748704bb714fcb6f5442c3f306b6d720a38868cc0749b6f048e1293bcd73e3f72d935ee1a5aa785015dab45db4771731ad0342fe4c9d6bc16148758c714a6c4ecb6eeb54fe514b9315c01447fae38b9af80b53645e565ab09fd36a529fa0055282a01adf42010092617cebb19c6cb331039804299e6404ea1cfdb4e92eb1cadf44a6696bb43fc5cc9216f5618ced9513136357dc30677f147a8c8c51911466a0f6f934d94d58b2d2050415fc1b7205a4867e85e663efbe1326fb0bff1900638b83f75b07d2f21d771810bf60345032228e44258f87d6f04b7ff5ed0207eef19b7044b8a6b53cbc51c28539ef16aaaa6037130b94bd802cd60e576ccdc897b70d44adfbf53e579feda233bfe59d5b66d22b31ebd5"
      ],
      "sequence": 4294967294
    }
  ],
  "vout": [
    {
      "value": 1.0,
      "n": 0,
      "scriptPubKey": {
        "asm": "OP_RETURN 590aebc3b978df11ac901d28102772ba6284a57bce8f836cc23a10dd954f8cc4 fb216f6c3a902f8ba6591a56c1a7b72c17bb515961d9a5d9bdb80bf19848a66bdb014f4c1ab00fab86793a76e187970c379b717941f985f99d982bd1b868864bbb612f2c7ad06fcbe6195a1681e7f76c57fb11192199e599fdf84bb1d808e62b9b410f0c5af04febc6397a36a1c7d74c77db313901b9c5b9ddd86b91f828c60b7ba1efecba10af0b26d99ad6412737ac973bd1d9e15925593d388b7118c826eb5b81cfcc9a308f2b06f9baf66107178cb71bf1f9c17905791d18ab5138e806cb3be1afacfa50ef4b6699da96016777ecd77b9199a11965197d78cb31588866ab1bc18f8cda70cf6b46b9fab6214757ccf75bb1b9813945395d58eb1178a8468bfb216f6c3a902f8ba6591a56c1a7b72c17bb515961d9a5d9bdb80bf19848a66bdb014f4c1ab00fab86793a76e187970c379b717941f985f99d982bd1b868864bbb612f2c7ad06fcbe6195a1681e7f76c57fb11192199e599fdf84bb1d808e62b9b410f0c5af04febc6397a36a1c7d74c77db313901b9c5b9ddd86b91f828c60b7ba1efecba10af0b26d99ad6412737ac973bd1d9e15925593d388b7118c826eb5b81cfcc9a308f2b06f9baf66107178cb71bf1f9c17905791d18ab5138e806cb3be1afacfa50ef4b6699da96016777ecd77b9199a11965197d78cb31588866ab1bc18f8cda70cf6b46b9fab6214757ccf75bb1b9813945395d58eb1178a8468bfb216f6c3a902f8ba6591a56c1a7b72c17bb515961d9a5d9bdb80bf19848a66bdb014f4c1ab00fab86793a76e187970c379b717941f985f99d982bd1b868864bbb612f2c7ad06fcbe6195a1681e7f76c57fb11192199e599fdf84bb1d808e62b9b410f0c5af04febc6397a36a1c7d74c77db313901b9c5b9ddd86b91f828c60b7ba1efecba10af0b26d99ad6412737ac973bd1d9e15925593d388b7118c826eb5b81cfcc9a308f2b06f9baf66107178cb71bf1f9c17905791d18ab5138e806cb3be1afacfa50ef4b6699da96016777ecd77b9199a11965197d78cb31588866ab1bc18f8cda70cf6b46b9fab6214757ccf75bb1b9813945395d58eb1178a8468bfb216f6c3a902f8ba6591a56c1a7b72c17bb515961d9a5d9bdb80bf19848a66bdb014f4c1ab00fab86793a76e187970c379b717941f985f99d982bd1b868864bbb612f2c7ad06fcbe6195a1681e7f76c57fb11192199e599fdf84bb1d808e62b9b410f0c5af04febc6397a36a1c7d74c77db313901b9c5b9ddd86b91f828c60b7ba1efecba10af0b26d99ad6412737ac973bd1d9e15925593d388b7118c826eb5b81cfcc9a308f2b06f9baf66107178cb71bf1f9c17905791d18ab5138e806cb3be1afacfa50ef4b6699da96016777ecd77b9199a11965197d78cb31588866ab1bc18f8cda70cf6b46b9fab6214757ccf75bb1b9813945395d58eb1178a8468bfb216f6c3a902f8ba6591a56c1a7b72c17bb515961d9a5d9bdb80bf19848a66bdb014f4c1ab00fab86793a76e187970c379b717941f985f99d982bd1b868864bbb612f2c7ad06fcbe6195a1681e7f76c57fb11192199e599fdf84bb1d808e62b9b410f0c5af04febc6397a36a1c7d74c77db313901b9c5b9ddd86b91f828c60b7ba1efecba10af0b26d99ad6412737ac7ae2e9b2c21d87cb4412541cd6fc7ba2cc9bd4e84add4cc1e8aae54a7da5d9a4",
        "hex": "6a20590aebc3b978df11ac901d28102772ba6284a57bce8f836cc23a10dd954f8cc44db004fb216f6c3a902f8ba6591a56c1a7b72c17bb515961d9a5d9bdb80bf19848a66bdb014f4c1ab00fab86793a76e187970c379b717941f985f99d982bd1b868864bbb612f2c7ad06fcbe6195a1681e7f76c57fb11192199e599fdf84bb1d808e62b9b410f0c5af04febc6397a36a1c7d74c77db313901b9c5b9ddd86b91f828c60b7ba1efecba10af0b26d99ad6412737ac973bd1d9e15925593d388b7118c826eb5b81cfcc9a308f2b06f9baf66107178cb71bf1f9c17905791d18ab5138e806cb3be1afacfa50ef4b6699da96016777ecd77b9199a11965197d78cb31588866ab1bc18f8cda70cf6b46b9fab6214757ccf75bb1b9813945395d58eb1178a8468bfb216f6c3a902f8ba6591a56c1a7b72c17bb515961d9a5d9bdb80bf19848a66bdb014f4c1ab00fab86793a76e187970c379b717941f985f99d982bd1b868864bbb612f2c7ad06fcbe6195a1681e7f76c57fb11192199e599fdf84bb1d808e62b9b410f0c5af04febc6397a36a1c7d74c77db313901b9c5b9ddd86b91f828c60b7ba1efecba10af0b26d99ad6412737ac973bd1d9e15925593d388b7118c826eb5b81cfcc9a308f2b06f9baf66107178cb71bf1f9c17905791d18ab5138e806cb3be1afacfa50ef4b6699da96016777ecd77b9199a11965197d78cb31588866ab1bc18f8cda70cf6b46b9fab6214757ccf75bb1b9813945395d58eb1178a8468bfb216f6c3a902f8ba6591a56c1a7b72c17bb515961d9a5d9bdb80bf19848a66bdb014f4c1ab00fab86793a76e187970c379b717941f985f99d982bd1b868864bbb612f2c7ad06fcbe6195a1681e7f76c57fb11192199e599fdf84bb1d808e62b9b410f0c5af04febc6397a36a1c7d74c77db313901b9c5b9ddd86b91f828c60b7ba1efecba10af0b26d99ad6412737ac973bd1d9e15925593d388b7118c826eb5b81cfcc9a308f2b06f9baf66107178cb71bf1f9c17905791d18ab5138e806cb3be1afacfa50ef4b6699da96016777ecd77b9199a11965197d78cb31588866ab1bc18f8cda70cf6b46b9fab6214757ccf75bb1b9813945395d58eb1178a8468bfb216f6c3a902f8ba6591a56c1a7b72c17bb515961d9a5d9bdb80bf19848a66bdb014f4c1ab00fab86793a76e187970c379b717941f985f99d982bd1b868864bbb612f2c7ad06fcbe6195a1681e7f76c57fb11192199e599fdf84bb1d808e62b9b410f0c5af04febc6397a36a1c7d74c77db313901b9c5b9ddd86b91f828c60b7ba1efecba10af0b26d99ad6412737ac973bd1d9e15925593d388b7118c826eb5b81cfcc9a308f2b06f9baf66107178cb71bf1f9c17905791d18ab5138e806cb3be1afacfa50ef4b6699da96016777ecd77b9199a11965197d78cb31588866ab1bc18f8cda70cf6b46b9fab6214757ccf75bb1b9813945395d58eb1178a8468bfb216f6c3a902f8ba6591a56c1a7b72c17bb515961d9a5d9bdb80bf19848a66bdb014f4c1ab00fab86793a76e187970c379b717941f985f99d982bd1b868864bbb612f2c7ad06fcbe6195a1681e7f76c57fb11192199e599fdf84bb1d808e62b9b410f0c5af04febc6397a36a1c7d74c77db313901b9c5b9ddd86b91f828c60b7ba1efecba10af0b26d99ad6412737ac7ae2e9b2c21d87cb4412541cd6fc7ba2cc9bd4e84add4cc1e8aae54a7da5d9a4",
        "type": "nulldata"
      }
    },
    {
      "value": 499982.7127,
      "n": 1,
      "scriptPubKey": {
        "asm": "1 2d2b883f61ea6763c25c1ae012d0e4ddabb212141e3d3329fc0bb536f18e034a",
        "hex": "51202d2b883f61ea6763c25c1ae012d0e4ddabb212141e3d3329fc0bb536f18e034a",
        "reqSigs": 1,
        "type": "witness_v1_scripthash",
        "addresses": [
          "3QJmnh"
        ]
      }
    }
  ],
  "blockhash": "2c44072194b49e49486c87ae6b37abdd6c2c23e2c7b477f70371a1b5276080d1",
  "confirmations": 1,
  "time": 1764179865,
  "blocktime": 1764179865
}