{
  "hex": "01000000000101f162d74c89ab52b32448013a222b655598682e7a2cf43b2b03e94ed59e054c190100000000feffffff0200e1f50500000000fdd5046a20e698d7ca948c7f7e3bfcbee5f45e350eb736d5e2325795ff999a69a6bc7b2d9e4db004cf642aaca8b2a5e80f0679b90d6943351ab129ae77a01778fafb97ef98d0e64eef440a8c889285c82f2659992d4963153a91098e57803758dadbb7cfb8f0c66e8f246aece8f2e5a84f4639f94d2903755af169ee37e05738babbd7afd890a60eaf044accc8d2c5886f6619d96d0923557ad149ce17c077189a9bf78ff8b0862e4fe4aa2c283225688f86f9398de9c3b59a31a92ef72097f87a7b176f185066ce6fc48a0c08120548afa6d919adc9e395ba11890ed700b7d85a5b374f387046ee0fa4ea6c68726528cfc6b979cda983f5da71e96eb760d7b83a3b572f5810268e2f84ca4c48524508efe69959ed89a3d5fa51c94e9740f7981a1b770f783006aecf642aaca8b2a5e80f0679b90d6943351ab129ae77a01778fafb97ef98d0e64eef440a8c889285c82f2659992d4963153a91098e57803758dadbb7cfb8f0c66e8f246aece8f2e5a84f4639f94d2903755af169ee37e05738babbd7afd890a60eaf044accc8d2c5886f6619d96d0923557ad149ce17c077189a9bf78ff8b0862e4fe4aa2c283225688f86f9398de9c3b59a31a92ef72097f87a7b176f185066ce6fc48a0c08120548afa6d919adc9e395ba11890ed700b7d85a5b374f387046ee0fa4ea6c68726528cfc6b979cda983f5da71e96eb760d7b83a3b572f5810268e2f84ca4c48524508efe69959ed89a3d5fa51c94e9740f7981a1b770f783006aecf642aaca8b2a5e80f0679b90d6943351ab129ae77a01778fafb97ef98d0e64eef440a8c889285c82f2659992d4963153a91098e57803758dadbb7cfb8f0c66e8f246aece8f2e5a84f4639f94d2903755af169ee37e05738babbd7afd890a60eaf044accc8d2c5886f6619d96d0923557ad149ce17c077189a9bf78ff8b0862e4fe4aa2c283225688f86f9398de9c3b59a31a92ef72097f87a7b176f185066ce6fc48a0c08120548afa6d919adc9e395ba11890ed700b7d85a5b374f387046ee0fa4ea6c68726528cfc6b979cda983f5da71e96eb760d7b83a3b572f5810268e2f84ca4c48524508efe69959ed89a3d5fa51c94e9740f7981a1b770f783006aecf642aaca8b2a5e80f0679b90d6943351ab129ae77a01778fafb97ef98d0e64eef440a8c889285c82f2659992d4963153a91098e57803758dadbb7cfb8f0c66e8f246aece8f2e5a84f4639f94d2903755af169ee37e05738babbd7afd890a60eaf044accc8d2c5886f6619d96d0923557ad149ce17c077189a9bf78ff8b0862e4fe4aa2c283225688f86f9398de9c3b59a31a92ef72097f87a7b176f185066ce6fc48a0c08120548afa6d919adc9e395ba11890ed700b7d85a5b374f387046ee0fa4ea6c68726528cfc6b979cda983f5da71e96eb760d7b83a3b572f5810268e2f84ca4c48524508efe69959ed89a3d5fa51c94e9740f7981a1b770f783006aecf642aaca8b2a5e80f0679b90d6943351ab129ae77a01778fafb97ef98d0e64eef440a8c889285c82f2659992d4963153a91098e57803758dadbb7cfb8f0c66e8f246aece8f2e5a84f4639f94d2903755af169ee37e05738babbd7afd890a60eaf044accc8d2c5886f6619d96d0923557ad149ce17c077189a9bf78ff8b0862e4fe4aa2c283225688f86f9398de9c3b5903e6c43825dfd7a1150246f2497dcae83d5420559101951a7284f177f1b6a7100774227792d000022512024080028aa1ab0053a8ebe28996685a367f1fa76a5852cad3975bc773fffadca02fd750913481aa194da262871b1fe894d12ded25b04ccfe331094bfa8023f5a841fc120cb624fb8c35fb3fba21bc21b6d6b343d1fbba2a4fce97bee4c9f7a459358b73985ca141fa6572292756892735268404c8e9eee3c921b752427cab34a6116cd18f6675dc39671368d8d9656cf46679744d86dbae348f10448caedaa082563e59dba402cb8659da5e818e6c8b3b8891bad7c577da4b11be5bdbb25d1b82b3c9762d8b2e7defb7825196e22ba517a73270af0c4d462452e230fd1ea2cd62e4f46ced9d97b032e40a8202b7a1139b6b613ef9029140192afb995accb4e5f2d44129f519fc80e5028d1c9f3bdbcca039aa839e52c92e9c112797eb2eb4fbf805f8313967cd7c17c8d94442f113543a7f9b05699398230dc29ad5f4aa8a29deb52316be9700d0a0c778a050b6e7d8bcdee2d2d88f2e32884aff5e81e7fc796e22e5174ec6c702dafee14e109d6ffdac266801c020d12dbed93d571f042fa62843819848c233693e16b910f211031f1a0837e460f69bc943543559ea8042c7423cefeae560bb9a7354223ae66bc625579dd89d41c67ca7cd9315706fe01644b3c419e16dc399adb44a52327edac258fee97c34afcc5449ccc673e2a4235de3c1d0f962605a170ce5205b87b9850d482d20c5e8ef40c7f8244136bfd06b7a61f312da3f9d72e612dcac8893bae0338dc58909b06c49f8011f06142920b8554689ab0f889423f0f90ff2e6e63d66b290ded67d5f71d37d7e372e5bbdd62c6015fd77d291236a9afbaf6bd13d33bf5d4cbad7929250baa0d1db44c04f904947a8437f33baa44b6defd9d2ea77f29ead31e61f9db0ca99757ffdb8f8673bbb7e2832b18d22ddfe1a3d2fc814ec63771fd6dc3e0916a16ca95bbad8ac9914bb1ccede320caa2d3cc0407f2ec6b35016f755d36301b50300aba374d7240dd882afba87f83faa5b67bf189084b1cccae27f0514c1534b1738645e7adac6030909dbc800f20f44be781db19249c6c9fddb4d87f7fea723349c6fa45c2be9a1454eff2ea009305e0cc6351368e56a691a0984a33351377a7f4e75576d725b392b7c2cec6f2a34847391bf44fd01a23e1624109d3c6b193870a0f013de936f4ea423105697c2974434a0d9f195d9bec3ab7e5b417e58e6d043ccc73bc8a34f68568b85d1bab32b4c66caea77fc33416106f2fc60dac2f35170f3c50c5bd592333eae317135c05b086320bc3a96fce87bcb4e0165c3ccffa4521641cfa13d9a3683e279ef5ca83509c77c1e749232b53ee80784611198d46c5fec2b0a01c74353f36613c41cd695df9da30245c5eba3af45ff21fd3aeb4f99566ebc1e0d4918ec3b5ea1fe9950a1ef33c84efb07e78cf5ebadf2a3a4d605be56fc633ad739ce1bf199c70aa382b7a12698cf4cd1dc174fe350fdfb31f14a67129abbc6c70cff851b407758e72c76715e3a99fcc123999c955ba8dacaaaab188c086bef8efa1722062b85abd1326fdc033db63206f9cacd1cebbc6d1cadcedcc7c2435656a876b5c670fe751c9de971bd8745f62ed699aebdbb6e090d70292d14004088ebacdd54cf3696dd7eeb873ca7407f66ec200c9ab92d8704332ff94008e8a3506a1c310aae1e5414857483ed1a01c8d7cc6b54036b85de4b234e7868efa0e7e0ccb963a4176a9a748849f14dc6667d09a359e17f230f18e1d14c323296c2bd5ead1d3c1d39de9cbbf263958ea0b5070acdbe8e75565e388648c69b509fac547bd1b7dbd35bdaa7bedf0b330b8b88613fef351060e7f1595030274485b4f150f25c0098e5e3ec785352768c8cb0bc5bc13732a2d3437abcba912a361cba0720cedfbdf8922124edf0a069e50fab5be9c424b0ac7d5e84a4ec9d11e2715427a4c2f489e8340dad729f1a06f12ec4fa2cc4307e3060a1d46c90ac4114d61e69eb602291788697d02f3cec9c1a1773321c79485c83c35b70a8b7f1d5d356f314313e1138036f80aa963531c78db5c5d4367426d3447deb27676445864b98fc1f1a15b03991350b7de0ee3c53cd6db9402e3eb3d59a182480d157d17e137b1a7cfd7e0a14d593f0e8e722ecc951b56a3ff3f499b30312c51cab993fc1b6cc18e44fa20a7b78adc3f51d8b974b66cb5a8d86199c2d3bb2d6945eb1d00d78c438ffd1fe6af8ed468c69941d3f00ec8be391b75cc07b7c62adc150229eecd9970d339205c795a0b8bbf5ab2e994f6788cc722b5430337cbccdb61a83e42cd5a86e446ee165b9976e7cf47ea6bc9a85f8812e8e89a13964d66cd63017b564dce6c25e66f0ef0de929394aaed6cff59d63cccb5b7b2ec64db8969a141c32b70414a8151c456779127126e2045a1d67e1c1877d394d6d8faf4ec25293011ba68062a5908d84576e46b1387ad422ecb4590132e8cadd62e7790c34663af4ef4189a7617180d02f5366529a564fa4e0fd1a73ae4e433925d8b9206915b45166a80158e5d192fde7a6d61c5f057d98fe5909ee13a825ad38f91899ea011362b84502c06bf1784ee0e2f932eddb22638927f44a9d3ed7b52f72c2d9004106167b5fae7525d11183a889136ed831ef3a2d9eb67ebda4123fcd84f2cb6324de9065f395b6138ba5d9944ce798439717b6e05c0ebb833ace99d53431ea48b7c75529b4977d602469ebf053189c64ca5178d1604e6c218141efc656e5a3332bba08547d6eb6001d8c7620285db70b9b1ea301b1520bc237049ba19c7745cf13e3b7fb4ac554d506249f7c421dba584abf8a5b11635df060b94e89b2214b66fbe1dfa584431dee83c35d5741f778e3cc8b01f1fae6ffda71519a2f2d1b023215e9cbb29f02ace9b4a7b603b0bf83a4cf0b34f8e31ab3de5e0235f057e1021e517f14289f2f70488ba946050d0adffbb73c166001b245972563195724f9b5bb6d9b7b7095ab642677cf4d8f00e8116b469d2b6b8c97184bfa7636a0d14ace29d84d6ad5148db989c3e60d98af041b3ea133b9d9a9e7e93168fbd23af0825fbac97091f14632e45ab18a05b962c90b5514f419d3066b1f85a5b2c6d772436af3d7cc56299ce33e105a195deb10d86db740767ef36564f87228cb48a0e82e8da1cda3ad4904ee6773c35357b0bacfbe5f7303e8b7c084a7e20eeb522265621479bc64b019563e3f9e9e574b660c04888117e2a02ed1daecc3f1f08c3ccdeceb91800df8222dc3aa53d39e4e937c8492075ac70bd5e8561a24a9a0cc6663e97cda6482209a039b68557de7fdcc1fda1eb6d5d7e85b62640deeddc0ff211fc6b1e575bcd903ca34c0d6e11e22bef47349865d69e8eedf5513b01121a474a56797b818287bebfcbd3e1e2edf6021a5061767d828395979aaab8c1d2f6122958608c97a7aaadd3dbe3e5eefa05091315194f869ca3a6b6e3e7e9f90000000000000000000000000000001323324101fd210500d7258d23a537feb9d2e97cf6b0a33006efeaacf2d97787c0ea57b4a320e7fe0711aef8546842b47bfdaec6ff01f6af1c1184ee2003929b8accfdd16ed91d12a31dc954a0a3edd17e3d6753e9897de43693664d734a6e6309681fa84dd748b9e495250f152e2f66c6c412ed90145f148e7cdea9c89726599785c0ddbd02ac753f89c6c74eafffce391e242bde277475844c8cf7211479713b16b7c2f0be66aa1f92e6f460f2c97192e0cacc2d4e9e31fef04e69f9badd5c6a170d74df550c2af2f8bf20a4d7dcf8591367d6f89393c3681478b0060e9bfa9e84b1db98e434241e377f08c16d4294613c4e24a2163c9d1e71e9f88d7a37d84f2cbddb7536cce5e325143bc7f3b484371e566fc8a3fdd53f1eee76d1f2f79284417d2490218972378ea328f5a3248699eccfe822b1a9f8425af93c4fd118d1f3cb4d9fcab6b2116c867b165ab49181d4be809d543bb4558fff0771dfb1ae404e1202b696125f9bb6486f080e7171335493cfdea5da3f55e5c7b117f5520dacc9def232ec7de25fd9a2e0331d42e9175e1b91edf21f624e5175831ed31ab618b98be9f6635ce16b781fcc42ffea3772a609b344ca7e99f965b13d5502ea8b110df02d39ff78952db76c744a233ee81f6bf3602f824a1b16a5aa315f72eab438429b86b1ebf3d6096e27e048c08669cacfdc14e15671486cce331279386d4a7f89cf2c44f1633683f7147b798fd4c7bc339391f9e5b15cc7f9e91ed6f52efe77945a1ee18039bbdd0d1228a2537fe540d950699999e1212b200ec2141429eb274b6865466ee3f83f85ba8cf5c381fde53e211d81c94c0a34cd7b24bb2b66eadeb78483429e6db672a16c3e36452c2a06fc755ec7abcc8f2b26468cf2c4557ede27d86bc4c3bff058c05e45ec5564a583020111bb044f532816003383fd31b1645e12b7958cc5840a6de95bb6fc3bbdcaaf2f6f133ec7f94956833abe40e9a61cf1b478344940928e1652eca46f122db023b9104ef1b9b700a6c85a1b6c186d1b87b749826b8fa1927fca2ec46c99b5bbb018c35b74c376d828ea07d1d00f5a2324ea172b1300074797f57430b14d13e0963930314166e2cd395553b0d3cc3c8a96fd470de8d7b1de457048027f63f8c258dbe9a4e045b99a785107342be8d23e28feebb16058245cee7ddb10410847e302087b0155c00e1eda97cb7176b1f0b336586ce5358418c5d1daeb56a9270b5a8aa861b55726f4baf019346c07e2571bb945e2c36645e1d5c55914623bd98d31fc80de06b12cb5e41ca6fab5e8dbb2652cf4bad21f2e258ca85b8c41ea3f53eecfbdc66b9eead1d635fceb8371a5d9ca7f813c32798afc3c1bcbdbb7331abf1cbb24466d2d8c6c4deacf22a4b9cd22d10126422b926a9b652b1131c9a0d9d354e1b457dac7c11bf6a241cb8df9a972498f58fbf38e7d3b27170d812ff66608e886706b650f8ca531f1cf0e1527eb28ab3518be70fa70d9ba2ea85e50879055b6a149f5a9180a7ca1b52d42a977a7b0db8c68fb0d5c4c0eb6a80731f58db8f3f3a8231ced71eb3852bb3eb3373d0667c56a0dfe8b504bc7460bc8156b2df269909c9aeeba7fd2c0c8a276f0ac657dfa6b19f6a4bb3d45f4232224c23eedfdd5b9f8e84460c0e35fb1c0f636f58723d4dea14bf4a2fe988bf810c89a5afac927378107bb930b19704f7df83df7c761404d3a68293028e01acc9ce8d274789b491568a8070c71e11c8a02d5656a9b1c040f7b4dc94395a4f76450b4faf50e536375009fb5845d905ba38ec04f0f6368f9ff536ecd94e304309f8371996020be068457089b74253e201106829169c660bcf21eba11651b2b0242fd72000000",
  "txid": "cce54695e831f7b6d276b47ee74281b83cc4b0c49e60821eddbdc77646229781",
  "hash": "23231ebb9669284009794b7e5500bcc9e35ba145535c4420839a5c570cfe21f3",
  "size": 5085,
  "vsize": 2278,
  "version": 1,
  "locktime": 114,
  "vin": [
    {
      "txid": "194c059ed54ee9032b3bf42c7a2e689855652b223a014824b352ab894cd762f1",
      "vout": 1,
      "scriptSig": {
        "asm": "",
        "hex": ""
      },
      "txinwitness": [
        "13481aa194da262871b1fe894d12ded25b04ccfe331094bfa8023f5a841fc120cb624fb8c35fb3fba21bc21b6d6b343d1fbba2a4fce97bee4c9f7a459358b73985ca141fa6572292756892735268404c8e9eee3c921b752427cab34a6116cd18f6675dc39671368d8d9656cf46679744d86dbae348f10448caedaa082563e59dba402cb8659da5e818e6c8b3b8891bad7c577da4b11be5bdbb25d1b82b3c9762d8b2e7defb7825196e22ba517a73270af0c4d462452e230fd1ea2cd62e4f46ced9d97b032e40a8202b7a1139b6b613ef9029140192afb995accb4e5f2d44129f519fc80e5028d1c9f3bdbcca039aa839e52c92e9c112797eb2eb4fbf805f8313967cd7c17c8d94442f113543a7f9b05699398230dc29ad5f4aa8a29deb52316be9700d0a0c778a050b6e7d8bcdee2d2d88f2e32884aff5e81e7fc796e22e5174ec6c702dafee14e109d6ffdac266801c020d12dbed93d571f042fa62843819848c233693e16b910f211031f1a0837e460f69bc943543559ea8042c7423cefeae560bb9a7354223ae66bc625579dd89d41c67ca7cd9315706fe01644b3c419e16dc399adb44a52327edac258fee97c34afcc5449ccc673e2a4235de3c1d0f962605a170ce5205b87b9850d482d20c5e8ef40c7f8244136bfd06b7a61f312da3f9d72e612dcac8893bae0338dc58909b06c49f8011f06142920b8554689ab0f889423f0f90ff2e6e63d66b290ded67d5f71d37d7e372e5bbdd62c6015fd77d291236a9afbaf6bd13d33bf5d4cbad7929250baa0d1db44c04f904947a8437f33baa44b6defd9d2ea77f29ead31e61f9db0ca99757ffdb8f8673bbb7e2832b18d22ddfe1a3d2fc814ec63771fd6dc3e0916a16ca95bbad8ac9914bb1ccede320caa2d3cc0407f2ec6b35016f755d36301b50300aba374d7240dd882afba87f83faa5b67bf189084b1cccae27f0514c1534b1738645e7adac6030909dbc800f20f44be781db19249c6c9fddb4d87f7fea723349c6fa45c2be9a1454eff2ea009305e0cc6351368e56a691a0984a33351377a7f4e75576d725b392b7c2cec6f2a34847391bf44fd01a23e1624109d3c6b193870a0f013de936f4ea423105697c2974434a0d9f195d9bec3ab7e5b417e58e6d043ccc73bc8a34f68568b85d1bab32b4c66caea77fc33416106f2fc60dac2f35170f3c50c5bd592333eae317135c05b086320bc3a96fce87bcb4e0165c3ccffa4521641cfa13d9a3683e279ef5ca83509c77c1e749232b53ee80784611198d46c5fec2b0a01c74353f36613c41cd695df9da30245c5eba3af45ff21fd3aeb4f99566ebc1e0d4918ec3b5ea1fe9950a1ef33c84efb07e78cf5ebadf2a3a4d605be56fc633ad739ce1bf199c70aa382b7a12698cf4cd1dc174fe350fdfb31f14a67129abbc6c70cff851b407758e72c76715e3a99fcc123999c955ba8dacaaaab188c086bef8efa1722062b85abd1326fdc033db63206f9cacd1cebbc6d1cadcedcc7c2435656a876b5c670fe751c9de971bd8745f62ed699aebdbb6e090d70292d14004088ebacdd54cf3696dd7eeb873ca7407f66ec200c9ab92d8704332ff94008e8a3506a1c310aae1e5414857483ed1a01c8d7cc6b54036b85de4b234e7868efa0e7e0ccb963a4176a9a748849f14dc6667d09a359e17f230f18e1d14c323296c2bd5ead1d3c1d39de9cbbf263958ea0b5070acdbe8e75565e388648c69b509fac547bd1b7dbd35bdaa7bedf0b330b8b88613fef351060e7f1595030274485b4f150f25c0098e5e3ec785352768c8cb0bc5bc13732a2d3437abcba912a361cba0720cedfbdf8922124edf0a069e50fab5be9c424b0ac7d5e84a4ec9d11e2715427a4c2f489e8340dad729f1a06f12ec4fa2cc4307e3060a1d46c90ac4114d61e69eb602291788697d02f3cec9c1a1773321c79485c83c35b70a8b7f1d5d356f314313e1138036f80aa963531c78db5c5d4367426d3447deb27676445864b98fc1f1a15b03991350b7de0ee3c53cd6db9402e3eb3d59a182480d157d17e137b1a7cfd7e0a14d593f0e8e722ecc951b56a3ff3f499b30312c51cab993fc1b6cc18e44fa20a7b78adc3f51d8b974b66cb5a8d86199c2d3bb2d6945eb1d00d78c438ffd1fe6af8ed468c69941d3f00ec8be391b75cc07b7c62adc150229eecd9970d339205c795a0b8bbf5ab2e994f6788cc722b5430337cbccdb61a83e42cd5a86e446ee165b9976e7cf47ea6bc9a85f8812e8e89a13964d66cd63017b564dce6c25e66f0ef0de929394aaed6cff59d63cccb5b7b2ec64db8969a141c32b70414a8151c456779127126e2045a1d67e1c1877d394d6d8faf4ec25293011ba68062a5908d84576e46b1387ad422ecb4590132e8cadd62e7790c34663af4ef4189a7617180d02f5366529a564fa4e0fd1a73ae4e433925d8b9206915b45166a80158e5d192fde7a6d61c5f057d98fe5909ee13a825ad38f91899ea011362b84502c06bf1784ee0e2f932eddb22638927f44a9d3ed7b52f72c2d9004106167b5fae7525d11183a889136ed831ef3a2d9eb67ebda4123fcd84f2cb6324de9065f395b6138ba5d9944ce798439717b6e05c0ebb833ace99d53431ea48b7c75529b4977d602469ebf053189c64ca5178d1604e6c218141efc656e5a3332bba08547d6eb6001d8c7620285db70b9b1ea301b1520bc237049ba19c7745cf13e3b7fb4ac554d506249f7c421dba584abf8a5b11635df060b94e89b2214b66fbe1dfa584431dee83c35d5741f778e3cc8b01f1fae6ffda71519a2f2d1b023215e9cbb29f02ace9b4a7b603b0bf83a4cf0b34f8e31ab3de5e0235f057e1021e517f14289f2f70488ba946050d0adffbb73c166001b245972563195724f9b5bb6d9b7b7095ab642677cf4d8f00e8116b469d2b6b8c97184bfa7636a0d14ace29d84d6ad5148db989c3e60d98af041b3ea133b9d9a9e7e93168fbd23af0825fbac97091f14632e45ab18a05b962c90b5514f419d3066b1f85a5b2c6d772436af3d7cc56299ce33e105a195deb10d86db740767ef36564f87228cb48a0e82e8da1cda3ad4904ee6773c35357b0bacfbe5f7303e8b7c084a7e20eeb522265621479bc64b019563e3f9e9e574b660c04888117e2a02ed1daecc3f1f08c3ccdeceb91800df8222dc3aa53d39e4e937c8492075ac70bd5e8561a24a9a0cc6663e97cda6482209a039b68557de7fdcc1fda1eb6d5d7e85b62640deeddc0ff211fc6b1e575bcd903ca34c0d6e11e22bef47349865d69e8eedf5513b01121a474a56797b818287bebfcbd3e1e2edf6021a5061767d828395979aaab8c1d2f6122958608c97a7aaadd3dbe3e5eefa05091315194f869ca3a6b6e3e7e9f90000000000000000000000000000001323324101",
        "00d7258d23a537feb9d2e97cf6b0a33006efeaacf2d97787c0ea57b4a320e7fe0711aef8546842b47bfdaec6ff01f6af1c1184ee2003929b8accfdd16ed91d12a31dc954a0a3edd17e3d6753e9897de43693664d734a6e6309681fa84dd748b9e495250f152e2f66c6c412ed90145f148e7cdea9c89726599785c0ddbd02ac753f89c6c74eafffce391e242bde277475844c8cf7211479713b16b7c2f0be66aa1f92e6f460f2c97192e0cacc2d4e9e31fef04e69f9badd5c6a170d74df550c2af2f8bf20a4d7dcf8591367d6f89393c3681478b0060e9bfa9e84b1db98e434241e377f08c16d4294613c4e24a2163c9d1e71e9f88d7a37d84f2cbddb7536cce5e325143bc7f3b484371e566fc8a3fdd53f1eee76d1f2f79284417d2490218972378ea328f5a3248699eccfe822b1a9f8425af93c4fd118d1f3cb4d9fcab6b2116c867b165ab49181d4be809d543bb4558fff0771dfb1ae404e1202b696125f9bb6486f080e7171335493cfdea5da3f55e5c7b117f5520dacc9def232ec7de25fd9a2e0331d42e9175e1b91edf21f624e5175831ed31ab618b98be9f6635ce16b781fcc42ffea3772a609b344ca7e99f965b13d5502ea8b110df02d39ff78952db76c744a233ee81f6bf3602f824a1b16a5aa315f72eab438429b86b1ebf3d6096e27e048c08669cacfdc14e15671486cce331279386d4a7f89cf2c44f1633683f7147b798fd4c7bc339391f9e5b15cc7f9e91ed6f52efe77945a1ee18039bbdd0d1228a2537fe540d950699999e1212b200ec2141429eb274b6865466ee3f83f85ba8cf5c381fde53e211d81c94c0a34cd7b24bb2b66eadeb78483429e6db672a16c3e36452c2a06fc755ec7abcc8f2b26468cf2c4557ede27d86bc4c3bff058c05e45ec5564a583020111bb044f532816003383fd31b1645e12b7958cc5840a6de95bb6fc3bbdcaaf2f6f133ec7f94956833abe40e9a61cf1b478344940928e1652eca46f122db023b9104ef1b9b700a6c85a1b6c186d1b87b749826b8fa1927fca2ec46c99b5bbb018c35b74c376d828ea07d1d00f5a2324ea172b1300074797f57430b14d13e0963930314166e2cd395553b0d3cc3c8a96fd470de8d7b1de457048027f63f8c258dbe9a4e045b99a785107342be8d23e28feebb16058245cee7ddb10410847e302087b0155c00e1eda97cb7176b1f0b336586ce5358418c5d1daeb56a9270b5a8aa861b55726f4baf019346c07e2571bb945e2c36645e1d5c55914623bd98d31fc80de06b12cb5e41ca6fab5e8dbb2652cf4bad21f2e258ca85b8c41ea3f53eecfbdc66b9eead1d635fceb8371a5d9ca7f813c32798afc3c1bcbdbb7331abf1cbb24466d2d8c6c4deacf22a4b9cd22d10126422b926a9b652b1131c9a0d9d354e1b457dac7c11bf6a241cb8df9a972498f58fbf38e7d3b27170d812ff66608e886706b650f8ca531f1cf0e1527eb28ab3518be70fa70d9ba2ea85e50879055b6a149f5a9180a7ca1b52d42a977a7b0db8c68fb0d5c4c0eb6a80731f58db8f3f3a8231ced71eb3852bb3eb3373d0667c56a0dfe8b504bc7460bc8156b2df269909c9aeeba7fd2c0c8a276f0ac657dfa6b19f6a4bb3d45f4232224c23eedfdd5b9f8e84460c0e35fb1c0f636f58723d4dea14bf4a2fe988bf810c89a5afac927378107bb930b19704f7df83df7c761404d3a68293028e01acc9ce8d274789b491568a8070c71e11c8a02d5656a9b1c040f7b4dc94395a4f76450b4faf50e536375009fb5845d905ba38ec04f0f6368f9ff536ecd94e304309f8371996020be068457089b74253e201106829169c660bcf21eba11651b2b0242fd"
      ],
      "sequence": 4294967294
    }
  ],
  "vout": [
    {
      "value": 1.0,
      "n": 0,
      "scriptPubKey": {
        "asm": "OP_RETURN e698d7ca948c7f7e3bfcbee5f45e350eb736d5e2325795ff999a69a6bc7b2d9e cf642aaca8b2a5e80f0679b90d6943351ab129ae77a01778fafb97ef98d0e64eef440a8c889285c82f2659992d4963153a91098e57803758dadbb7cfb8f0c66e8f246aece8f2e5a84f4639f94d2903755af169ee37e05738babbd7afd890a60eaf044accc8d2c5886f6619d96d0923557ad149ce17c077189a9bf78ff8b0862e4fe4aa2c283225688f86f9398de9c3b59a31a92ef72097f87a7b176f185066ce6fc48a0c08120548afa6d919adc9e395ba11890ed700b7d85a5b374f387046ee0fa4ea6c68726528cfc6b979cda983f5da71e96eb760d7b83a3b572f5810268e2f84ca4c48524508efe69959ed89a3d5fa51c94e9740f7981a1b770f783006aecf642aaca8b2a5e80f0679b90d6943351ab129ae77a01778fafb97ef98d0e64eef440a8c889285c82f2659992d4963153a91098e57803758dadbb7cfb8f0c66e8f246aece8f2e5a84f4639f94d2903755af169ee37e05738babbd7afd890a60eaf044accc8d2c5886f6619d96d0923557ad149ce17c077189a9bf78ff8b0862e4fe4aa2c283225688f86f9398de9c3b59a31a92ef72097f87a7b176f185066ce6fc48a0c08120548afa6d919adc9e395ba11890ed700b7d85a5b374f387046ee0fa4ea6c68726528cfc6b979cda983f5da71e96eb760d7b83a3b572f5810268e2f84ca4c48524508efe69959ed89a3d5fa51c94e9740f7981a1b770f783006aecf642aaca8b2a5e80f0679b90d6943351ab129ae77a01778fafb97ef98d0e64eef440a8c889285c82f2659992d4963153a91098e57803758dadbb7cfb8f0c66e8f246aece8f2e5a84f4639f94d2903755af169ee37e05738babbd7afd890a60eaf044accc8d2c5886f6619d96d0923557ad149ce17c077189a9bf78ff8b0862e4fe4aa2c283225688f86f9398de9c3b59a31a92ef72097f87a7b176f185066ce6fc48a0c08120548afa6d919adc9e395ba11890ed700b7d85a5b374f387046ee0fa4ea6c68726528cfc6b979cda983f5da71e96eb760d7b83a3b572f5810268e2f84ca4c48524508efe69959ed89a3d5fa51c94e9740f7981a1b770f783006aecf642aaca8b2a5e80f0679b90d6943351ab129ae77a01778fafb97ef98d0e64eef440a8c889285c82f2659992d4963153a91098e57803758dadbb7cfb8f0c66e8f246aece8f2e5a84f4639f94d2903755af169ee37e05738babbd7afd890a60eaf044accc8d2c5886f6619d96d0923557ad149ce17c077189a9bf78ff8b0862e4fe4aa2c283225688f86f9398de9c3b59a31a92ef72097f87a7b176f185066ce6fc48a0c08120548afa6d919adc9e395ba11890ed700b7d85a5b374f387046ee0fa4ea6c68726528cfc6b979cda983f5da71e96eb760d7b83a3b572f5810268e2f84ca4c48524508efe69959ed89a3d5fa51c94e9740f7981a1b770f783006aecf642aaca8b2a5e80f0679b90d6943351ab129ae77a01778fafb97ef98d0e64eef440a8c889285c82f2659992d4963153a91098e57803758dadbb7cfb8f0c66e8f246aece8f2e5a84f4639f94d2903755af169ee37e05738babbd7afd890a60eaf044accc8d2c5886f6619d96d0923557ad149ce17c077189a9bf78ff8b0862e4fe4aa2c283225688f86f9398de9c3b5903e6c43825dfd7a1150246f2497dcae83d5420559101951a7284f177f1b6a71",
        "hex": "6a20e698d7ca948c7f7e3bfcbee5f45e350eb736d5e2325795ff999a69a6bc7b2d9e4db004cf642aaca8b2a5e80f0679b90d6943351ab129ae77a01778fafb97ef98d0e64eef440a8c889285c82f2659992d4963153a91098e57803758dadbb7cfb8f0c66e8f246aece8f2e5a84f4639f94d2903755af169ee37e05738babbd7afd890a60eaf044accc8d2c5886f6619d96d0923557ad149ce17c077189a9bf78ff8b0862e4fe4aa2c283225688f86f9398de9c3b59a31a92ef72097f87a7b176f185066ce6fc48a0c08120548afa6d919adc9e395ba11890ed700b7d85a5b374f387046ee0fa4ea6c68726528cfc6b979cda983f5da71e96eb760d7b83a3b572f5810268e2f84ca4c48524508efe69959ed89a3d5fa51c94e9740f7981a1b770f783006aecf642aaca8b2a5e80f0679b90d6943351ab129ae77a01778fafb97ef98d0e64eef440a8c889285c82f2659992d4963153a91098e57803758dadbb7cfb8f0c66e8f246aece8f2e5a84f4639f94d2903755af169ee37e05738babbd7afd890a60eaf044accc8d2c5886f6619d96d0923557ad149ce17c077189a9bf78ff8b0862e4fe4aa2c283225688f86f9398de9c3b59a31a92ef72097f87a7b176f185066ce6fc48a0c08120548afa6d919adc9e395ba11890ed700b7d85a5b374f387046ee0fa4ea6c68726528cfc6b979cda983f5da71e96eb760d7b83a3b572f5810268e2f84ca4c48524508efe69959ed89a3d5fa51c94e9740f7981a1b770f783006aecf642aaca8b2a5e80f0679b90d6943351ab129ae77a01778fafb97ef98d0e64eef440a8c889285c82f2659992d4963153a91098e57803758dadbb7cfb8f0c66e8f246aece8f2e5a84f4639f94d2903755af169ee37e05738babbd7afd890a60eaf044accc8d2c5886f6619d96d0923557ad149ce17c077189a9bf78ff8b0862e4fe4aa2c283225688f86f9398de9c3b59a31a92ef72097f87a7b176f185066ce6fc48a0c08120548afa6d919adc9e395ba11890ed700b7d85a5b374f387046ee0fa4ea6c68726528cfc6b979cda983f5da71e96eb760d7b83a3b572f5810268e2f84ca4c48524508efe69959ed89a3d5fa51c94e9740f7981a1b770f783006aecf642aaca8b2a5e80f0679b90d6943351ab129ae77a01778fafb97ef98d0e64eef440a8c889285c82f2659992d4963153a91098e57803758dadbb7cfb8f0c66e8f246aece8f2e5a84f4639f94d2903755af169ee37e05738babbd7afd890a60eaf044accc8d2c5886f6619d96d0923557ad149ce17c077189a9bf78ff8b0862e4fe4aa2c283225688f86f9398de9c3b59a31a92ef72097f87a7b176f185066ce6fc48a0c08120548afa6d919adc9e395ba11890ed700b7d85a5b374f387046ee0fa4ea6c68726528cfc6b979cda983f5da71e96eb760d7b83a3b572f5810268e2f84ca4c48524508efe69959ed89a3d5fa51c94e9740f7981a1b770f783006aecf642aaca8b2a5e80f0679b90d6943351ab129ae77a01778fafb97ef98d0e64eef440a8c889285c82f2659992d4963153a91098e57803758dadbb7cfb8f0c66e8f246aece8f2e5a84f4639f94d2903755af169ee37e05738babbd7afd890a60eaf044accc8d2c5886f6619d96d0923557ad149ce17c077189a9bf78ff8b0862e4fe4aa2c283225688f86f9398de9c3b5903e6c43825dfd7a1150246f2497dcae83d5420559101951a7284f177f1b6a71",
        "type": "nulldata"
      }
    },
    {
      "value": 499983.7296,
      "n": 1,
      "scriptPubKey": {
        "asm": "1 24080028aa1ab0053a8ebe28996685a367f1fa76a5852cad3975bc773fffadca",
        "hex": "512024080028aa1ab0053a8ebe28996685a367f1fa76a5852cad3975bc773fffadca",
        "reqSigs": 1,
        "type": "witness_v1_scripthash",
        "addresses": [
          "3QJmnh"
        ]
      }
    }
  ],
  "blockhash": "a404c97fd79b0f74ac8935f18e4afcd6ffd73e4b441b9f6bd67a7215b8c8499e",
  "confirmations": 1,
  "time": 1764178774,
  "blocktime": 1764178774
}