{
  "hex": "01000000000101f1f1ff2b7fb95b7f99b09ca700145f0d954091c6406e4e77776394714dbb99c90000000000feffffff0210cdd4fc782d00002251201104c48a1e07eb02f55d92878a5e6975f74038d2bc2f92b8e5f7f0a1eea8d10500e1f50500000000fdd5046a20dfedde47c67b8ab0b37bcf1c0e493f1abd477a40f9ef7b18024c4c64c3857ac24db004c74667fb8e3b813fe03d3329d38ef66c8930aebb429f325b0539fc25e775bdb2e76647dbae1ba11fc01d1309f3aed64ca9108e9b62bf127b2519dc05c7559d92870627bbce7bc17fa07d736993ceb62cc970eefb02df721b4579bc65a735fdf2a726079bee5be15f805d5349b3ee960ce950cedb22ff523b65599c458715ddd247c6e77b0ebb01bf60bdb3a9530e76ec09b02e3bc21fb2db85b97ca567f53d3267e6c75b2e9b219f409d9389732e56cc29900e1be23f92fba5995c8547d51d120786a73b4efb41ff20fdf3e9134e36ac49f06e7b825ff29bc5f93ce527b57d7227a6871b6edb61df00ddd3c9336e168c69d04e5ba27fd2bbe5d91cc507955d52c74667fb8e3b813fe03d3329d38ef66c8930aebb429f325b0539fc25e775bdb2e76647dbae1ba11fc01d1309f3aed64ca9108e9b62bf127b2519dc05c7559d92870627bbce7bc17fa07d736993ceb62cc970eefb02df721b4579bc65a735fdf2a726079bee5be15f805d5349b3ee960ce950cedb22ff523b65599c458715ddd247c6e77b0ebb01bf60bdb3a9530e76ec09b02e3bc21fb2db85b97ca567f53d3267e6c75b2e9b219f409d9389732e56cc29900e1be23f92fba5995c8547d51d120786a73b4efb41ff20fdf3e9134e36ac49f06e7b825ff29bc5f93ce527b57d7227a6871b6edb61df00ddd3c9336e168c69d04e5ba27fd2bbe5d91cc507955d52c74667fb8e3b813fe03d3329d38ef66c8930aebb429f325b0539fc25e775bdb2e76647dbae1ba11fc01d1309f3aed64ca9108e9b62bf127b2519dc05c7559d92870627bbce7bc17fa07d736993ceb62cc970eefb02df721b4579bc65a735fdf2a726079bee5be15f805d5349b3ee960ce950cedb22ff523b65599c458715ddd247c6e77b0ebb01bf60bdb3a9530e76ec09b02e3bc21fb2db85b97ca567f53d3267e6c75b2e9b219f409d9389732e56cc29900e1be23f92fba5995c8547d51d120786a73b4efb41ff20fdf3e9134e36ac49f06e7b825ff29bc5f93ce527b57d7227a6871b6edb61df00ddd3c9336e168c69d04e5ba27fd2bbe5d91cc507955d52c74667fb8e3b813fe03d3329d38ef66c8930aebb429f325b0539fc25e775bdb2e76647dbae1ba11fc01d1309f3aed64ca9108e9b62bf127b2519dc05c7559d92870627bbce7bc17fa07d736993ceb62cc970eefb02df721b4579bc65a735fdf2a726079bee5be15f805d5349b3ee960ce950cedb22ff523b65599c458715ddd247c6e77b0ebb01bf60bdb3a9530e76ec09b02e3bc21fb2db85b97ca567f53d3267e6c75b2e9b219f409d9389732e56cc29900e1be23f92fba5995c8547d51d120786a73b4efb41ff20fdf3e9134e36ac49f06e7b825ff29bc5f93ce527b57d7227a6871b6edb61df00ddd3c9336e168c69d04e5ba27fd2bbe5d91cc507955d52c74667fb8e3b813fe03d3329d38ef66c8930aebb429f325b0539fc25e775bdb2e76647dbae1ba11fc01d1309f3aed64ca9108e9b62bf127b2519dc05c7559d92870627bbce7bc17fa07d736993ceb62cc970eefb02df721b4579bc65a735fdf2a726079bee5be15f805d5349b3ee960ce950cedb22ff523b65599c458715ddd247c6e77b0ebb01bf60bdb3a9530e76ec37a801bd81661644024d009ccf2f8fac6e7d34e9fa7dbfe802ca06d40e593b5e02fd7509e93f9e3f1e8e656f33a94ce159854299e2216e58d5f63f3b5e3672b85672a7d78a1484caa426a427572cd10bbe3ecf483e58cca5947281f1fcf97ceee8b6e54e4f5aa4ab2b1b6ef74eb3c3c64fea5a020ee389f2473ccda30897ecc0f36561c764475f7bbb3275c7d3f20e64b0d2f51f1bf1b9bbb7ea1af9d1fb301acf8cc3dbe88137432c850e09d67ab116221f3381c89c119630b4dbce70eccfd496483c766b75c321ebfd5f112b2184002ea13cfedb14c2f7b37aa275b5071b26242697594318e89329d5299e14eab9bffd54178513699927841421602c3c113de38ae5a666faaccd147f75b171147e198b110808beb2c3ed2ac674b5f882d92c534c535fdcf3b089ae0526eced3d3c7d579efa61ff325606bd8b2a997307a8fa40d0a1b5204897d089441968177aa3a1714d0875cba5d776016d29b68c572903203c34157abcb7b21380f20a2702d1daf23169f82e7b5491f1abc1f7cedad3dc04e898806c4539b02b924ae7f86a75460e4a3276fe196bfb121b970801bee023bfc60136737c90f82514b20ce1d240abd912547d79d654ddfc5e57edfa2c4df266be5a1ca668954a9721116cdc39b0ec196f296cec86e85d6069815461a9ea32604cbb41dfc5cf1117d5e77f906eab608162f17d7256468d68ab56ac77f4ec9e3fb0c4985617cb5b9245e37b2d63a6a9b1a8f1c76fa0e9f6726db27e402a62e2794b0ac5de55952576fd2bc6425881755a3c0bd75f0fd64905fa69b087eea23edb5c8f751544a1adc962f742295cb76852652cf93241bd34282d587b87fc732e40a1d52e8e6e05f7f9967b4cf1a9fe61f625576cff502f26acd864cfb254cbf0e24e0aaf8191cd8c7ab60c917b2c3440e99bc9365fcc65189b170bc6e5e0d25901b09b3b9cf32acb6431c28d533c0755583494a0e068594a30c4760ee0182aab690723f12d41f97dec13e8ba99fb57e190592987d5509666e26734ab53adfa8d00e667f6512df8f1fe09c63d320ac7ba28d879a526ce86917b9da0e3b9fd3c56d7c8e9db65dff374507f6e30ff5dab142dae876a87a8c25a8a848389a5f8f7965380e1b92d03826be5587fad14292339b50c69a98ba2eefea18bc0ab30cbc7dc501ad1ec0bb1f9059eb7df7e83217a621715a57de04bb51900bb9781d95691ded2ccda789e65616612cb3522ded1c97791486b6cb0c70ebf4c205bcd0d8cff933082fa3ec54c94f5f076e1a30183df506b67051b1a008c4540d1b506966da184321d45c39421f04335621e0ef3e5b3842080fe284eb2370e94671db370469cb3e0a77665ebea498b69133b5909396e7ec59e51024cc60aac9c11d4bb12efdbf1626fe19b74618a6649c212ec5a50e1e8de815ffc0e2a0e09ae8145130f05dcab94c2f224f1994888da61038636b0217bd6021a9c5a80196f3741a9d2bac3526a8ad9cecac8551c74988dc0774ff690aabccd80ab0bc83a52eb8427d09f751edee9dd4ff9be152989072e392b88f14a1fe7ec6f98b85f277fe4583667b097d428c093aa9f0494cb9de69c69d5b0efa58e703d383b05839870faabf0bd69f9524f1893aa850079a002144b1b09f3da0b63c8c6d747ec4ed94266409a9937b6f1b206d4549e508fc885a87ecb02d4537de4b1ef4c370586b85b0bc31338ba4080d9b0dde9995c0792cab7fa2b6cad7aabbc06fab94bafba7f889e1f6aad4a375ccdaa283905ca0c5e0516ca80a2285d3cf6725f59bbdf0a0dda49c8fef2c13ad9b3392d4c8d076e98d86084ea7599f61be2c52bf19e8be714358ac947b8764c74a27f8cee327f67e2e08ec7ce4e6bbc22107edc6266fe5f0fa4c6a1491d880c917d3d010197fb626dd9cae9746886264d1b364c1ddeb5b5f50690049123b82094b913a84086c79d0c61dc3249005cca01238f41f2ffb60e4319e6f6e8ac54b1ddafbdbdf97e7842e1eb1306f6aaedde5eed501119b67a2ad30b41df9130c70861695227dacd8f7ad630e5bda3216ab50d142dafe8a99f696e168a0bc5d113f0c01b9d69e20967f1f256bad5c3832cd7af8065b718e4ed0f211d198f5e141312a5be6f966f3feb9bda4ebf02f9df1b376feefc2a5f0e1295ec2f6221d72d6d5f130c19db6401207c1750da1dcf039af35d36490fc8cc59e59b88b03dde20c4f15095af10f0f603b3df29f2a6ef90530223a376dd1b9b2edd71f0b938c0ca7118c4d2358e07c8c9a4002691574ea1e8cf06ce0f520378b0e68a088c7630d7ca53966dcfd03ed714e313a8454ba85ffd3782ef1609c7f48a7bad62c2e869f9f1aef5539ed8213c3c546877e2919097e195b9df60866bfeb1a19c730299197acce43f64d6fa3343cb51609e83218cd26c44fe5218634f982db9d2a5c4ff504e86d6d22f1c56dff7f20860d3ea42e7a92a856539b74f0265800af942a0d1e5e247e10e89bead2ce89bd45bd32cb4f9883fc21abe20a0a4a1d81cb74b74cf0278b983f52b67b99bc3e9574c0db161f412425d1f32071ae03f01d3988affc2b828e515c923578f9376da767af7b48a7f1113764cdb5e39e808bfbdaee27044e9a13540ff214f379f7e829fe035dad7c0a1720683c07be9de5d013f0dc0a3d853fd4e841bd3a4f13c11ed5ed47c2375df7a5e6f212df82a09d2f286f8b4e34f72755dba6531d10dd4d89e98be038ef08a8db89f459103cd3cb1d236a68fb5de3de6b6388b3ef1b8bcc12daa4a6fdddf33219a326a8aba7c089c09cbeaad7f853811b2fb8e448a61b73d10c9954f54f5113a52cf5256d62122648832e421e1b1415cb8c8135e466577f5abb6128631103cf7bdcf419808fbed620ce79132a702f9784241b027f6f81e7b54890db22ed150572345a3fbe53daa3ffc433a43fbcd25a38738aec6b3f307b1f6855de47b53335e1ec570c4a38195ad3a3ae8b83e70b0cdc82a39264253fed95510155d8e8ae5dc104b958bed7a40567b7ea636ee76a0e6032317d99c66924860c8fc7eb034ff9045f8caff47578b58de59d237eb20f813877fb7617e1559d500e0ea9a46bfe42229f5ba6d6e62d1c96bfeb5077109afdd46765708e3afb4de1a01ced9f4c7b90b3115f3fc253092ba1dfc3cc35e33cc0356b6ead8889df8be3dd7de2315c6910f5e3e044d3eb23c863532d51602c628e5a61f93e668541e201542943e3f25af871b0a7ec697f0b191db34907049d955bcc7a4a9a6ad5fe09f1f977e4d7e7e2f82aa4da4d4a1267d9d4487b45a505cc930f67fb33bc73d067ea7b6fb71f8eb56f862936164d708c7de6a3854a141758a21453d1ab839db3763090c222d34373e455f7e9ea2afb5bfdbe00a0c3a485658757f8190acc2c3c9dffa233642484e5e65707f848a909ea0b0bebfc1ccd4dae9ecff00021d202c3151597a8c9eafc7d3e900000000000000001121394801fd2105004d5df610e0251a7ea803e4bce3cdf17f05b0529bd0e269b3937d4a02c3b82fe7367d5eb50bb24c54a389cb94c01bc27a861ab54ce17098c159a477bb632f6390c4e0aece8ad8bea06c4975fcf0b91f8361655ef18c348c4a22e57b7042a7a23cd75da604513346f131317d0702353e61b3c3fc1d3e3f2decbdef2b6e9324d783ae62a7267f675874cdadf81199755602c98165bc6cf9f1637a5154a4b31be6bc34779252bc9204379e82b4de5a8f3e2780843e6c048c03ba9335bfc0a8dc68f7f0211eca2aab2beb62d91d1ecf5ed34b19348262e5ea59e533a4b43af386c2ad69e3419e26d28a0123ecfc5c8a5839d2aa3b62ba2f0095f52fa1650a3ff53f9993e2f62cb176a6a7a09e0b42c4f0a3edbebebaf904a4eeae556c6d76c244ab3d90449d4d5c8ab2a66a49db84b6c4957b08e48970e073a69da8a5f56fc4dc17844946ecdc97a90ab318a13b24415840fdd65026f54fb7691fe3e61519dbd686abf7fdd7676c4d6b6d982bbd4c54aec4f8839a7e578e37d7a7a270f6c8d75d2ec64d4f03839f015bf019e3db257c8e1c58f26f52ed705ed7944de701e9940b2f75079e40d9e70299316dab74237256bfd29900cda9b2eb91d4584aeae38ad56ceffce3f1d47e672c91d4719c8fb7da6370f02614baee85d3fcf2e7547ba17f869f3510ecaa7dc35328fab4d579101d93aa8af4025e9807187aa4991a677066c0eec0b4d398932aa7dc17320e791511bdf0d8e71cb5f8690ebc46ab4c0300981c2de60e52367e26aa47607b25a22bbb70ac303b3a12f48c3d286342718c7d0e901a0b33cb16839ea42746bdeae60868ac9924feba51d826467524fa0256b8f6daca02611435bda7d9116de01df14237a591d35113ca86ac8d50bc5c1dedefdab0c046d92dde97105292a0c8ce900dafabe312e7cee0577736f8e1d0e153bfb93e3fee7e69ade94cbe61f143d9397e0bd283f9ca5af1132f98887e39ae08554856c18baad076ba9528b6a7a68f8f8df255f057139cbd1140b65126b8185a953ffd1378ba12ead480cfca180381c78b5271c2989657a2e3f4d707484e1c23ae699342272005190a9b20a4c9a37b8f3172e017dfe1b695a3cc935b18c376ddcfa31e2547813ecd731c857b5cd9248162961f2d4d2ef20d5a7bb161e8b0c8993b76130c39d1bb2b0f86d126b27cc04ec157d358318f505860fd4b566f348c7feb085cd3ea937baa8354288488f42b2ece272128104442a1d86350011bc8118ecdad66faa7f35730e59c69fd9270ec66e12dd43e855e03e9f0a280f25c4d9b78abeab6131bc028b491bb4b2242ca2de6b17a49b49332d4c7d8d56bc16915deb70b94492fe52e24d065d41ed1ec8a12d3869325ccb46795e45014f0cef4a4a2a0dabdf12c9e52f185362764af4fedbb8eae025fd19a768a2396d5d6c179afe29bb996e01a2b374e26eb9921d8caf7ff711ff678229387be9020066e7fdcec42421bcdad3ec0a6af2a7695f277cd0d1a3799d6acf8c52f43c05dbbcfde258dd51ddd6260742382cc175299384035cf71d3d33ce22f91b8c98e1dfa1bd07e355b2d05dbd93fd844d4ee22fe209adc7fa3457f42046656944110a4af16f5d1c6170086dc173c7dbd03bd6bc27224fb5625c1a63db34db346b5ac220df59001c0db88e48f421918abcb379667ba207739bf0033d33b8f897d62ced154d06f91ba52413c59a7d26abe1ffd12373db8531009a5ce3e4dd0aa654410c73121f1ca02260d810a4272b49fef7a3d28b9015698f0190e796428e0d02870424979285e0f2f614c28a327abc4b994ae78624a5e0c0b6f53d7a5ace8323a417c2897243c1c0f6a1948796f79000000",
  "txid": "c59f496e40d279cc7ee29133279d8b46d1e22d08a1905086acfd9843d39e57cf",
  "hash": "5810afca2c9f7e896b003db8a5c6d3c09df87def7a13e8741bc0b2e60cec6a34",
  "size": 5085,
  "vsize": 2278,
  "version": 1,
  "locktime": 121,
  "vin": [
    {
      "txid": "c999bb4d71946377774e6e40c69140950d5f1400a79cb0997f5bb97f2bfff1f1",
      "vout": 0,
      "scriptSig": {
        "asm": "",
        "hex": ""
      },
      "txinwitness": [
        "e93f9e3f1e8e656f33a94ce159854299e2216e58d5f63f3b5e3672b85672a7d78a1484caa426a427572cd10bbe3ecf483e58cca5947281f1fcf97ceee8b6e54e4f5aa4ab2b1b6ef74eb3c3c64fea5a020ee389f2473ccda30897ecc0f36561c764475f7bbb3275c7d3f20e64b0d2f51f1bf1b9bbb7ea1af9d1fb301acf8cc3dbe88137432c850e09d67ab116221f3381c89c119630b4dbce70eccfd496483c766b75c321ebfd5f112b2184002ea13cfedb14c2f7b37aa275b5071b26242697594318e89329d5299e14eab9bffd54178513699927841421602c3c113de38ae5a666faaccd147f75b171147e198b110808beb2c3ed2ac674b5f882d92c534c535fdcf3b089ae0526eced3d3c7d579efa61ff325606bd8b2a997307a8fa40d0a1b5204897d089441968177aa3a1714d0875cba5d776016d29b68c572903203c34157abcb7b21380f20a2702d1daf23169f82e7b5491f1abc1f7cedad3dc04e898806c4539b02b924ae7f86a75460e4a3276fe196bfb121b970801bee023bfc60136737c90f82514b20ce1d240abd912547d79d654ddfc5e57edfa2c4df266be5a1ca668954a9721116cdc39b0ec196f296cec86e85d6069815461a9ea32604cbb41dfc5cf1117d5e77f906eab608162f17d7256468d68ab56ac77f4ec9e3fb0c4985617cb5b9245e37b2d63a6a9b1a8f1c76fa0e9f6726db27e402a62e2794b0ac5de55952576fd2bc6425881755a3c0bd75f0fd64905fa69b087eea23edb5c8f751544a1adc962f742295cb76852652cf93241bd34282d587b87fc732e40a1d52e8e6e05f7f9967b4cf1a9fe61f625576cff502f26acd864cfb254cbf0e24e0aaf8191cd8c7ab60c917b2c3440e99bc9365fcc65189b170bc6e5e0d25901b09b3b9cf32acb6431c28d533c0755583494a0e068594a30c4760ee0182aab690723f12d41f97dec13e8ba99fb57e190592987d5509666e26734ab53adfa8d00e667f6512df8f1fe09c63d320ac7ba28d879a526ce86917b9da0e3b9fd3c56d7c8e9db65dff374507f6e30ff5dab142dae876a87a8c25a8a848389a5f8f7965380e1b92d03826be5587fad14292339b50c69a98ba2eefea18bc0ab30cbc7dc501ad1ec0bb1f9059eb7df7e83217a621715a57de04bb51900bb9781d95691ded2ccda789e65616612cb3522ded1c97791486b6cb0c70ebf4c205bcd0d8cff933082fa3ec54c94f5f076e1a30183df506b67051b1a008c4540d1b506966da184321d45c39421f04335621e0ef3e5b3842080fe284eb2370e94671db370469cb3e0a77665ebea498b69133b5909396e7ec59e51024cc60aac9c11d4bb12efdbf1626fe19b74618a6649c212ec5a50e1e8de815ffc0e2a0e09ae8145130f05dcab94c2f224f1994888da61038636b0217bd6021a9c5a80196f3741a9d2bac3526a8ad9cecac8551c74988dc0774ff690aabccd80ab0bc83a52eb8427d09f751edee9dd4ff9be152989072e392b88f14a1fe7ec6f98b85f277fe4583667b097d428c093aa9f0494cb9de69c69d5b0efa58e703d383b05839870faabf0bd69f9524f1893aa850079a002144b1b09f3da0b63c8c6d747ec4ed94266409a9937b6f1b206d4549e508fc885a87ecb02d4537de4b1ef4c370586b85b0bc31338ba4080d9b0dde9995c0792cab7fa2b6cad7aabbc06fab94bafba7f889e1f6aad4a375ccdaa283905ca0c5e0516ca80a2285d3cf6725f59bbdf0a0dda49c8fef2c13ad9b3392d4c8d076e98d86084ea7599f61be2c52bf19e8be714358ac947b8764c74a27f8cee327f67e2e08ec7ce4e6bbc22107edc6266fe5f0fa4c6a1491d880c917d3d010197fb626dd9cae9746886264d1b364c1ddeb5b5f50690049123b82094b913a84086c79d0c61dc3249005cca01238f41f2ffb60e4319e6f6e8ac54b1ddafbdbdf97e7842e1eb1306f6aaedde5eed501119b67a2ad30b41df9130c70861695227dacd8f7ad630e5bda3216ab50d142dafe8a99f696e168a0bc5d113f0c01b9d69e20967f1f256bad5c3832cd7af8065b718e4ed0f211d198f5e141312a5be6f966f3feb9bda4ebf02f9df1b376feefc2a5f0e1295ec2f6221d72d6d5f130c19db6401207c1750da1dcf039af35d36490fc8cc59e59b88b03dde20c4f15095af10f0f603b3df29f2a6ef90530223a376dd1b9b2edd71f0b938c0ca7118c4d2358e07c8c9a4002691574ea1e8cf06ce0f520378b0e68a088c7630d7ca53966dcfd03ed714e313a8454ba85ffd3782ef1609c7f48a7bad62c2e869f9f1aef5539ed8213c3c546877e2919097e195b9df60866bfeb1a19c730299197acce43f64d6fa3343cb51609e83218cd26c44fe5218634f982db9d2a5c4ff504e86d6d22f1c56dff7f20860d3ea42e7a92a856539b74f0265800af942a0d1e5e247e10e89bead2ce89bd45bd32cb4f9883fc21abe20a0a4a1d81cb74b74cf0278b983f52b67b99bc3e9574c0db161f412425d1f32071ae03f01d3988affc2b828e515c923578f9376da767af7b48a7f1113764cdb5e39e808bfbdaee27044e9a13540ff214f379f7e829fe035dad7c0a1720683c07be9de5d013f0dc0a3d853fd4e841bd3a4f13c11ed5ed47c2375df7a5e6f212df82a09d2f286f8b4e34f72755dba6531d10dd4d89e98be038ef08a8db89f459103cd3cb1d236a68fb5de3de6b6388b3ef1b8bcc12daa4a6fdddf33219a326a8aba7c089c09cbeaad7f853811b2fb8e448a61b73d10c9954f54f5113a52cf5256d62122648832e421e1b1415cb8c8135e466577f5abb6128631103cf7bdcf419808fbed620ce79132a702f9784241b027f6f81e7b54890db22ed150572345a3fbe53daa3ffc433a43fbcd25a38738aec6b3f307b1f6855de47b53335e1ec570c4a38195ad3a3ae8b83e70b0cdc82a39264253fed95510155d8e8ae5dc104b958bed7a40567b7ea636ee76a0e6032317d99c66924860c8fc7eb034ff9045f8caff47578b58de59d237eb20f813877fb7617e1559d500e0ea9a46bfe42229f5ba6d6e62d1c96bfeb5077109afdd46765708e3afb4de1a01ced9f4c7b90b3115f3fc253092ba1dfc3cc35e33cc0356b6ead8889df8be3dd7de2315c6910f5e3e044d3eb23c863532d51602c628e5a61f93e668541e201542943e3f25af871b0a7ec697f0b191db34907049d955bcc7a4a9a6ad5fe09f1f977e4d7e7e2f82aa4da4d4a1267d9d4487b45a505cc930f67fb33bc73d067ea7b6fb71f8eb56f862936164d708c7de6a3854a141758a21453d1ab839db3763090c222d34373e455f7e9ea2afb5bfdbe00a0c3a485658757f8190acc2c3c9dffa233642484e5e65707f848a909ea0b0bebfc1ccd4dae9ecff00021d202c3151597a8c9eafc7d3e900000000000000001121394801",
        "004d5df610e0251a7ea803e4bce3cdf17f05b0529bd0e269b3937d4a02c3b82fe7367d5eb50bb24c54a389cb94c01bc27a861ab54ce17098c159a477bb632f6390c4e0aece8ad8bea06c4975fcf0b91f8361655ef18c348c4a22e57b7042a7a23cd75da604513346f131317d0702353e61b3c3fc1d3e3f2decbdef2b6e9324d783ae62a7267f675874cdadf81199755602c98165bc6cf9f1637a5154a4b31be6bc34779252bc9204379e82b4de5a8f3e2780843e6c048c03ba9335bfc0a8dc68f7f0211eca2aab2beb62d91d1ecf5ed34b19348262e5ea59e533a4b43af386c2ad69e3419e26d28a0123ecfc5c8a5839d2aa3b62ba2f0095f52fa1650a3ff53f9993e2f62cb176a6a7a09e0b42c4f0a3edbebebaf904a4eeae556c6d76c244ab3d90449d4d5c8ab2a66a49db84b6c4957b08e48970e073a69da8a5f56fc4dc17844946ecdc97a90ab318a13b24415840fdd65026f54fb7691fe3e61519dbd686abf7fdd7676c4d6b6d982bbd4c54aec4f8839a7e578e37d7a7a270f6c8d75d2ec64d4f03839f015bf019e3db257c8e1c58f26f52ed705ed7944de701e9940b2f75079e40d9e70299316dab74237256bfd29900cda9b2eb91d4584aeae38ad56ceffce3f1d47e672c91d4719c8fb7da6370f02614baee85d3fcf2e7547ba17f869f3510ecaa7dc35328fab4d579101d93aa8af4025e9807187aa4991a677066c0eec0b4d398932aa7dc17320e791511bdf0d8e71cb5f8690ebc46ab4c0300981c2de60e52367e26aa47607b25a22bbb70ac303b3a12f48c3d286342718c7d0e901a0b33cb16839ea42746bdeae60868ac9924feba51d826467524fa0256b8f6daca02611435bda7d9116de01df14237a591d35113ca86ac8d50bc5c1dedefdab0c046d92dde97105292a0c8ce900dafabe312e7cee0577736f8e1d0e153bfb93e3fee7e69ade94cbe61f143d9397e0bd283f9ca5af1132f98887e39ae08554856c18baad076ba9528b6a7a68f8f8df255f057139cbd1140b65126b8185a953ffd1378ba12ead480cfca180381c78b5271c2989657a2e3f4d707484e1c23ae699342272005190a9b20a4c9a37b8f3172e017dfe1b695a3cc935b18c376ddcfa31e2547813ecd731c857b5cd9248162961f2d4d2ef20d5a7bb161e8b0c8993b76130c39d1bb2b0f86d126b27cc04ec157d358318f505860fd4b566f348c7feb085cd3ea937baa8354288488f42b2ece272128104442a1d86350011bc8118ecdad66faa7f35730e59c69fd9270ec66e12dd43e855e03e9f0a280f25c4d9b78abeab6131bc028b491bb4b2242ca2de6b17a49b49332d4c7d8d56bc16915deb70b94492fe52e24d065d41ed1ec8a12d3869325ccb46795e45014f0cef4a4a2a0dabdf12c9e52f185362764af4fedbb8eae025fd19a768a2396d5d6c179afe29bb996e01a2b374e26eb9921d8caf7ff711ff678229387be9020066e7fdcec42421bcdad3ec0a6af2a7695f277cd0d1a3799d6acf8c52f43c05dbbcfde258dd51ddd6260742382cc175299384035cf71d3d33ce22f91b8c98e1dfa1bd07e355b2d05dbd93fd844d4ee22fe209adc7fa3457f42046656944110a4af16f5d1c6170086dc173c7dbd03bd6bc27224fb5625c1a63db34db346b5ac220df59001c0db88e48f421918abcb379667ba207739bf0033d33b8f897d62ced154d06f91ba52413c59a7d26abe1ffd12373db8531009a5ce3e4dd0aa654410c73121f1ca02260d810a4272b49fef7a3d28b9015698f0190e796428e0d02870424979285e0f2f614c28a327abc4b994ae78624a5e0c0b6f53d7a5ace8323a417c2897243c1c0f6a1948796f"
      ],
      "sequence": 4294967294
    }
  ],
  "vout": [
    {
      "value": 499976.6113,
      "n": 0,
      "scriptPubKey": {
        "asm": "1 1104c48a1e07eb02f55d92878a5e6975f74038d2bc2f92b8e5f7f0a1eea8d105",
        "hex": "51201104c48a1e07eb02f55d92878a5e6975f74038d2bc2f92b8e5f7f0a1eea8d105",
        "reqSigs": 1,
        "type": "witness_v1_scripthash",
        "addresses": [
          "3QJmnh"
        ]
      }
    },
    {
      "value": 1.0,
      "n": 1,
      "scriptPubKey": {
        "asm": "OP_RETURN dfedde47c67b8ab0b37bcf1c0e493f1abd477a40f9ef7b18024c4c64c3857ac2 c74667fb8e3b813fe03d3329d38ef66c8930aebb429f325b0539fc25e775bdb2e76647dbae1ba11fc01d1309f3aed64ca9108e9b62bf127b2519dc05c7559d92870627bbce7bc17fa07d736993ceb62cc970eefb02df721b4579bc65a735fdf2a726079bee5be15f805d5349b3ee960ce950cedb22ff523b65599c458715ddd247c6e77b0ebb01bf60bdb3a9530e76ec09b02e3bc21fb2db85b97ca567f53d3267e6c75b2e9b219f409d9389732e56cc29900e1be23f92fba5995c8547d51d120786a73b4efb41ff20fdf3e9134e36ac49f06e7b825ff29bc5f93ce527b57d7227a6871b6edb61df00ddd3c9336e168c69d04e5ba27fd2bbe5d91cc507955d52c74667fb8e3b813fe03d3329d38ef66c8930aebb429f325b0539fc25e775bdb2e76647dbae1ba11fc01d1309f3aed64ca9108e9b62bf127b2519dc05c7559d92870627bbce7bc17fa07d736993ceb62cc970eefb02df721b4579bc65a735fdf2a726079bee5be15f805d5349b3ee960ce950cedb22ff523b65599c458715ddd247c6e77b0ebb01bf60bdb3a9530e76ec09b02e3bc21fb2db85b97ca567f53d3267e6c75b2e9b219f409d9389732e56cc29900e1be23f92fba5995c8547d51d120786a73b4efb41ff20fdf3e9134e36ac49f06e7b825ff29bc5f93ce527b57d7227a6871b6edb61df00ddd3c9336e168c69d04e5ba27fd2bbe5d91cc507955d52c74667fb8e3b813fe03d3329d38ef66c8930aebb429f325b0539fc25e775bdb2e76647dbae1ba11fc01d1309f3aed64ca9108e9b62bf127b2519dc05c7559d92870627bbce7bc17fa07d736993ceb62cc970eefb02df721b4579bc65a735fdf2a726079bee5be15f805d5349b3ee960ce950cedb22ff523b65599c458715ddd247c6e77b0ebb01bf60bdb3a9530e76ec09b02e3bc21fb2db85b97ca567f53d3267e6c75b2e9b219f409d9389732e56cc29900e1be23f92fba5995c8547d51d120786a73b4efb41ff20fdf3e9134e36ac49f06e7b825ff29bc5f93ce527b57d7227a6871b6edb61df00ddd3c9336e168c69d04e5ba27fd2bbe5d91cc507955d52c74667fb8e3b813fe03d3329d38ef66c8930aebb429f325b0539fc25e775bdb2e76647dbae1ba11fc01d1309f3aed64ca9108e9b62bf127b2519dc05c7559d92870627bbce7bc17fa07d736993ceb62cc970eefb02df721b4579bc65a735fdf2a726079bee5be15f805d5349b3ee960ce950cedb22ff523b65599c458715ddd247c6e77b0ebb01bf60bdb3a9530e76ec09b02e3bc21fb2db85b97ca567f53d3267e6c75b2e9b219f409d9389732e56cc29900e1be23f92fba5995c8547d51d120786a73b4efb41ff20fdf3e9134e36ac49f06e7b825ff29bc5f93ce527b57d7227a6871b6edb61df00ddd3c9336e168c69d04e5ba27fd2bbe5d91cc507955d52c74667fb8e3b813fe03d3329d38ef66c8930aebb429f325b0539fc25e775bdb2e76647dbae1ba11fc01d1309f3aed64ca9108e9b62bf127b2519dc05c7559d92870627bbce7bc17fa07d736993ceb62cc970eefb02df721b4579bc65a735fdf2a726079bee5be15f805d5349b3ee960ce950cedb22ff523b65599c458715ddd247c6e77b0ebb01bf60bdb3a9530e76ec37a801bd81661644024d009ccf2f8fac6e7d34e9fa7dbfe802ca06d40e593b5e",
        "hex": "6a20dfedde47c67b8ab0b37bcf1c0e493f1abd477a40f9ef7b18024c4c64c3857ac24db004c74667fb8e3b813fe03d3329d38ef66c8930aebb429f325b0539fc25e775bdb2e76647dbae1ba11fc01d1309f3aed64ca9108e9b62bf127b2519dc05c7559d92870627bbce7bc17fa07d736993ceb62cc970eefb02df721b4579bc65a735fdf2a726079bee5be15f805d5349b3ee960ce950cedb22ff523b65599c458715ddd247c6e77b0ebb01bf60bdb3a9530e76ec09b02e3bc21fb2db85b97ca567f53d3267e6c75b2e9b219f409d9389732e56cc29900e1be23f92fba5995c8547d51d120786a73b4efb41ff20fdf3e9134e36ac49f06e7b825ff29bc5f93ce527b57d7227a6871b6edb61df00ddd3c9336e168c69d04e5ba27fd2bbe5d91cc507955d52c74667fb8e3b813fe03d3329d38ef66c8930aebb429f325b0539fc25e775bdb2e76647dbae1ba11fc01d1309f3aed64ca9108e9b62bf127b2519dc05c7559d92870627bbce7bc17fa07d736993ceb62cc970eefb02df721b4579bc65a735fdf2a726079bee5be15f805d5349b3ee960ce950cedb22ff523b65599c458715ddd247c6e77b0ebb01bf60bdb3a9530e76ec09b02e3bc21fb2db85b97ca567f53d3267e6c75b2e9b219f409d9389732e56cc29900e1be23f92fba5995c8547d51d120786a73b4efb41ff20fdf3e9134e36ac49f06e7b825ff29bc5f93ce527b57d7227a6871b6edb61df00ddd3c9336e168c69d04e5ba27fd2bbe5d91cc507955d52c74667fb8e3b813fe03d3329d38ef66c8930aebb429f325b0539fc25e775bdb2e76647dbae1ba11fc01d1309f3aed64ca9108e9b62bf127b2519dc05c7559d92870627bbce7bc17fa07d736993ceb62cc970eefb02df721b4579bc65a735fdf2a726079bee5be15f805d5349b3ee960ce950cedb22ff523b65599c458715ddd247c6e77b0ebb01bf60bdb3a9530e76ec09b02e3bc21fb2db85b97ca567f53d3267e6c75b2e9b219f409d9389732e56cc29900e1be23f92fba5995c8547d51d120786a73b4efb41ff20fdf3e9134e36ac49f06e7b825ff29bc5f93ce527b57d7227a6871b6edb61df00ddd3c9336e168c69d04e5ba27fd2bbe5d91cc507955d52c74667fb8e3b813fe03d3329d38ef66c8930aebb429f325b0539fc25e775bdb2e76647dbae1ba11fc01d1309f3aed64ca9108e9b62bf127b2519dc05c7559d92870627bbce7bc17fa07d736993ceb62cc970eefb02df721b4579bc65a735fdf2a726079bee5be15f805d5349b3ee960ce950cedb22ff523b65599c458715ddd247c6e77b0ebb01bf60bdb3a9530e76ec09b02e3bc21fb2db85b97ca567f53d3267e6c75b2e9b219f409d9389732e56cc29900e1be23f92fba5995c8547d51d120786a73b4efb41ff20fdf3e9134e36ac49f06e7b825ff29bc5f93ce527b57d7227a6871b6edb61df00ddd3c9336e168c69d04e5ba27fd2bbe5d91cc507955d52c74667fb8e3b813fe03d3329d38ef66c8930aebb429f325b0539fc25e775bdb2e76647dbae1ba11fc01d1309f3aed64ca9108e9b62bf127b2519dc05c7559d92870627bbce7bc17fa07d736993ceb62cc970eefb02df721b4579bc65a735fdf2a726079bee5be15f805d5349b3ee960ce950cedb22ff523b65599c458715ddd247c6e77b0ebb01bf60bdb3a9530e76ec37a801bd81661644024d009ccf2f8fac6e7d34e9fa7dbfe802ca06d40e593b5e",
        "type": "nulldata"
      }
    }
  ],
  "blockhash": "b00c1afcc726d07acf9b884f47bf06130e4cba196c4900690ef7405d42c36beb",
  "confirmations": 1,
  "time": 1764180257,
  "blocktime": 1764180257
}