{
  "hex": "010000000001014bc251e8afdeba7e20f33b0854de3de0caabf620cd626c5b3203e51d54d322da0100000000feffffff02c02309ae782d0000225120fe5d5ec2e9ee7ec1808d6ba91e8d24bc834c68da6424daa83ef93952ab22ca1000e1f50500000000fdd5046a20bff5a248a9d9c3d59ef93f1ad81d5d028733701f73531ae2f223181c9facdb204db00430dfff093fea89d1581599b34dba25689dd974666a81679c5141659ce13e514c10ffdf291fcaa9f17835b9936d9a0548bdf954464aa147bc716145bcc11e716c709fbf497faac9911855d9f30dfa6528dd9934262ac127dc110125dca17e110c50bf9f695f8ae9b13875f9d32dda4508fdb914060ae107fc312105fc815e312cb05f7f89bf6a0951d8951933cd3aa5e81d59f4e6ea01e71cd1c1e51c61bed1cc907f5fa99f4a2971f8b53913ed1a85c83d79d4c6ca21c73cf1e1c53c419ef1ecf01f3fc9ff2a491198d559738d7ae5a85d19b4a6aa41a75c9181a55c21fe918cd03f1fe9df0a6931b8f57953ad5ac5887d3994868a61877cb1a1857c01deb1ac30dfff093fea89d1581599b34dba25689dd974666a81679c5141659ce13e514c10ffdf291fcaa9f17835b9936d9a0548bdf954464aa147bc716145bcc11e716c709fbf497faac9911855d9f30dfa6528dd9934262ac127dc110125dca17e110c50bf9f695f8ae9b13875f9d32dda4508fdb914060ae107fc312105fc815e312cb05f7f89bf6a0951d8951933cd3aa5e81d59f4e6ea01e71cd1c1e51c61bed1cc907f5fa99f4a2971f8b53913ed1a85c83d79d4c6ca21c73cf1e1c53c419ef1ecf01f3fc9ff2a491198d559738d7ae5a85d19b4a6aa41a75c9181a55c21fe918cd03f1fe9df0a6931b8f57953ad5ac5887d3994868a61877cb1a1857c01deb1ac30dfff093fea89d1581599b34dba25689dd974666a81679c5141659ce13e514c10ffdf291fcaa9f17835b9936d9a0548bdf954464aa147bc716145bcc11e716c709fbf497faac9911855d9f30dfa6528dd9934262ac127dc110125dca17e110c50bf9f695f8ae9b13875f9d32dda4508fdb914060ae107fc312105fc815e312cb05f7f89bf6a0951d8951933cd3aa5e81d59f4e6ea01e71cd1c1e51c61bed1cc907f5fa99f4a2971f8b53913ed1a85c83d79d4c6ca21c73cf1e1c53c419ef1ecf01f3fc9ff2a491198d559738d7ae5a85d19b4a6aa41a75c9181a55c21fe918cd03f1fe9df0a6931b8f57953ad5ac5887d3994868a61877cb1a1857c01deb1ac30dfff093fea89d1581599b34dba25689dd974666a81679c5141659ce13e514c10ffdf291fcaa9f17835b9936d9a0548bdf954464aa147bc716145bcc11e716c709fbf497faac9911855d9f30dfa6528dd9934262ac127dc110125dca17e110c50bf9f695f8ae9b13875f9d32dda4508fdb914060ae107fc312105fc815e312cb05f7f89bf6a0951d8951933cd3aa5e81d59f4e6ea01e71cd1c1e51c61bed1cc907f5fa99f4a2971f8b53913ed1a85c83d79d4c6ca21c73cf1e1c53c419ef1ecf01f3fc9ff2a491198d559738d7ae5a85d19b4a6aa41a75c9181a55c21fe918cd03f1fe9df0a6931b8f57953ad5ac5887d3994868a61877cb1a1857c01deb1ac30dfff093fea89d1581599b34dba25689dd974666a81679c5141659ce13e514c10ffdf291fcaa9f17835b9936d9a0548bdf954464aa147bc716145bcc11e716c709fbf497faac9911855d9f30dfa6528dd9934262ac127dc110125dca17e110c50bf9f695f8ae9b13875f9d32dda4508fdb914060ae107fc312105fc815e312cb05f7f89bf6a0951d8951933cd3aa5e8d584b0dded7ba894851c75cac29c5daa688a19992abc8b51fefec2caadce0d7402fd750972426d21ed168bdc5459829b057fa91caab245cb689ff4e5af21f48676ce4a05c8b7dced37108fbaa63cc09b05c3aef2b50c65e88799b033502183c9127c4098a2c72721b1857fc27ae6614537d4801f469d2a1a5da1203922a7ff6b5e1b15cf3cc73727fd4bee59fca5ab8c6bf42fd70e691ca63ebe041ccddf15accd2b26a43169bb21a536259ec3e9d773f1d24a61dd375688062ded1b84bbe9978fbf69602358417ba3955fe31048c5e4fcc104b2f69a5f639a8691c1e470900087be9448f31e567a5d4d32f46ae193151bd30aacb567ab4ec9a0998915ce48226b5519a5840eb3e665761bf95217dae75d6b5980c1df74798c41887b13835198b90344144ecacbe2cea8532476a4cc02bfb86fd999dccf1c0822ca4b43c2d015a8da7a706779d678d89cc9a0393c5d799914ac2b5c81c09d870478f21360f173c468a5e95dd50546b7b0529a7477210a1b4e6acc1263a9b2738dc5578ef13b00eea232946c6a0c6bccd6651e8eb06936544625f53cec99d59299d6f24a33bfb58ab754feddc17b2ed74c49e53ec1c358e76f88fb2db0a62682cc8a833b6b38fc5d3744d5cf4fcdb5a86089205301f352805416f672d12e136a107666c68294d5b19666ffd565d3a7a724e4875986598267283a82e2c19489e55a89b40eca0fd8ee6c221180ab537a9c09548022babc0ed4c8fcf2872feb8fcb06a715042fb6259b9f32f6c7fe2d052bbfe4ae357410e3c7927cf015468d4b6acaed35814ec68947229c005ce542fe7deef7c72b8577b306ebdf990dee5578cc9c60668a81adef44d7a4dd240d4414abc8ae271fbbe29dfe3c8a4773bf7f12dc07787ab47542b40c2a2761106f87da287ebe3aeed0490780f6070b62757916667eeb119ae5d4da5b53404364eafa7acd232b2f08fd52e1ab8816cf9a74f739aaa3e20ad328875ddcdc62842747ee01e59ec1c7356bc219ce8c4d1733e957fc76e6d7255352ae465399d6eb47e83669ca18f57d465d60449eb5b1e023ac7788b7d90c88f4104f883a9fe691d92a00694c0d57be3d226f79e7734003b82459e0de6109f0293f213f1f11491ead98cb26d7b19681e97a07d59e79c37feb367b7fb2dce676451a49c0364a95e95151c510593a720de019a34904d88ee966f8d3f499bf01aa075d631c7c8d149353671351cdc638b053149edc5b7f671be43b185e10e830fbb146fd327c46923b1eac3e03b6b66aaa2f6f41f1f7c4f7f73dad6be8fec4d0ecb29a19d184c6678d9d720a52249ed1bc089e44e556735f76d4e26f6e3daa1b16deb54e2fbc84dca24da3ce124e5922b81a07499694a84cb6a7cae93bd5e832ba015646f0107f4e1f113926ba9abc065faed2e861a609d5ab7363f5352520ffa8c771abf01a1670665d768765ed765b14ccb758d231244c9cf11c0e11fd6c0ff9d046e4ecd7b90bdf8476d2829c813fc9fb8e8df105e283340f6abe41fb2d973abc4a40eee55d3318aa5b6b7af79fe5f01f6494f30e11730b30bf07af7a46ad5f02d41b8dabb70ac8018032ad4efaff5829136b5fff512e1029a4e15c146bdd11ada0f2f1851f7a0d741ab248338ee097eb0be82c689a324a40f9de5bf4ea0377f29818f701b476f7565d356a3baa12c93d2d252ffaf4e5a76d2273a4c2346316a317687373a133390642cff846d7b02218ecc6b5e7c4c576c41954bf79d184e0d023c0590b5e750c5c779d47feae325d4113b0218667a536df071b2563efe7e551211b08dd245d7c3245bc0f4a4cfe58241edd1d466c858e981b7343e1666e705f9547fab718fd49e1bb32efb6ffcd8aaf5140b2d83eb1668be70632a05522d11608bf7bec59cadfc3848d6124c281d9780a442a4f631b3a6ddbb7f84cc254d473661d9562518392bc36b86e74488af58061b8a101dbe8c6b1662f29fdfbc8d7fc942bf75442a8b241cb3c6aea412bcaa0c32b94eff1a39e901fd520055e37e1a4828a2e53723b51e0ff23c7dd5c1cedbffc08adc84e17f017dc12935e58bf1a862e4e256d988d71c822155343a093f0f774484c30a87cbd2ccf5c669fd7a5f01d71dda974110090a6da60b7f4b567b3d045a71eea0ab3759b9518cc30d97732cf9a6a1d85b474392d4704f3efd7cf6d9a87de3cfc1620094008134850363853f61a7baa7a89ee10a30eb8a796ebdf7e91c4c19630b619ba2be627cda3719f781c0cb05d4c4ab49a222e643a94d849eaa082635123de173b315ef0d8da5678f4e2ea2c4756b65cd2ac55273cc711e7390b3ad3675f68cf69bc543d4c022f4fbae849d341ec3acf19e9bed29f26143295bf92db00252903f68fabae80210bf6f40da359e305a749f0c4084242da1a57384b6423ddcdd5af737adead91d7c82b801cf9188a44d1c1ee0d8d97ffdbe45339e44435ccf620e8f6d0c4fcf5c2d0b948ada790145665d17e75ff0aeee58b2dffac2246057bf9141fa436467e2d54e3db91421711c14637592e187b4cb70540dc9a904a94cd65fa6a1cad5f3a72e1904b1b8d074113b54661c49af1bc35edf07c4073a60390769c62b6f3b33c666fb02b6294bbdd30245486289c481036ed4a76cf564aa6192e03b93b2060c8f7675c2fdc37533489e10136b4027b23acda4aed3ec26ad9124a92e23175059c7eb3dc4863169e74a1a7bf7251a8982f42aa929180cf3e7822beec06cfb4de61ef986e25cb14da4eb02f05c973bdb6b89363e78b87097befe4af7c98c86dfdf45feaeb38743a71751c987d4cfa7df6f02fb9a7aa50fc5a22a7a16342ff4bd17e3889ac6509f921198fadf427e9c5f098c768d5331774efc37f6b685e9fe6eb02cf35c1ad7352def238aa4692af7dcdab7e518786269667a9c1cab91ba22d6adafdbc06e0bef7d0ddc97226d79c24841052123467149d05c5e09b34c919ceafb894488b745c84b1af175ceff443d809d57e23526376be45150e0c87be9f448117bd293f0ec0a6c060e50c1d42892608e0f64d5d9745d6ca963d6b6f4d868024d5ebd9d1d05c7e927668097c8c4912613372f9ea0c9320de3f4f8ffad82da20944b58c9f45c0b9307b05335efdc35e10e188996f6052477c7bc7d35eeefcd9d1f0833959a5966044e5738391ac3443b0231fea10c147580079152e98ab6adbb49668cf0fc9a6c743c727952e4c7651a41c2d77787a768df5b6f0dc57b43596caa0506531e867bf15155094a1ea36e4ad0faf53923de3d4782211d71f0e56f1997a1ab0e1b3d5542925966dd25182fba4a8722f7729c7b67c558c8eb19ebf74f9609eefa304826f7a7267a4761d020f273536465766818b929aaab6d1dd00253f5ba5add1f0fa0d3342515f696b757f81a2acb3babcd62c4953646b720000000000000000000000000000000000000000000000000000000000000000001019292f01fd210500c34984ba3ad43fe86d90cb1070671ec833c79c79332755d0bc65aebcca753b0ab426506a28655d71b12236b9e77e2c11828c90cb1aa44dbf0fc40b98c5befc2fe423f0dd0cec6f9e3d61b4d972be42b438a4c47b43a4cd7f86c32ec5ac5b167836a2af91de493851bca5358597b26b03c74306f6933852be79db53440ec4fc0d6a5243b2cdfdfc9549afd2a926135ac7d8e48bc0e2d642dc111d8004faad37d6c975e947f2f1aff4522ac4f08f9de86d0f4797477921d70e41df974ce1ffe53de7d80f8513a69f6929b4f4241923c792035d687cde13424531fc021996fdc37647f7f96c16790764113e0371439e66beabb1c5b6cb25ad7317eeb9276e35c4e18b4efd75eb6a723b937c5db2967de0f3200b40a09bc1eaa771fa04a03e02d51c3baa17bc396ca0713539d6bc0f2c446d32329c77fb8b19485a4aef7f6a10d0380c94c523665919368629be3d2e03eed036602ebc212b46f741d3887fae52a9accdca51e35806cc29803efb2373829df016174f48151e74e8cbec4f8bca58d24033ef792099c4fb8efb55c2b9ebbdfd25ab45fbc65a390c1b6caf1c2a1615038e9dafd5449accaa153be635688def21af0a7032ffed9a67f18973aca837c5d366a29583b79a29a8566041f4c08a7b69832f324d8c9e8ad48ffe6856e1a6f4fca56324fb3417ad8ffc16cc406e4a23e0dc33062b75bd537e5da1ab43949adc107bc0057e3e69160b13d9a44a9c3e57d9a191e6dad846d2902f2c51b33e92790d2e11786ca3b7ecb2a5d552cc58baad2d91c4d2f9d95559d307f1204d3e3e555972d5beb66efa1d77afa93be6a82e3a555c33aab233a7118e00daaa0854d6d07e81034e3993c7da41d8547f30587476278fb4a5309c848efaea5ec97a963c85917296bbfcc4c8f267ef0c6595eefdf1e94e44f0ecaee898f46cf09163e8b18683bddc12676b7e6e235b72a0516ff4c9843abbcb06a37caf41e69aa0da024ace383bd5f8867d2fce1d3cf8cf41503f71f346006d6ca967da383dea7ed0d93899815c1f2db0a6ac2b9d1fa9b58fb3d591080f7bebc57138e095f7bc54bbe556c930ce49c8afeef0b98e592f19fed1739b31533f6f94dc7131879a1f7b6263d010492087d8d3602bc538a164fadd029092481e3c58a1341c3bd03c1461f621c9aff08168bb16d8c827e79ef8ac23109cb7cc01f426a07c4971abeb897361b5eb4487854c01a4ccbd8fc3666329b1a5587cb65d95b4c7b81d512c2da94ae8b021f4fad85ae78d159f658286999cb0c573ee65e4e357b349171e1f704c05df99f355343463e7b6866ec00d0f1a8997ee487c184e68d69d69da1b053aada386fc32b2b5c1ee5e69face121242476c57d9c0963dddb4878f5df7cc9f309aa420e21318e62bb660c9058ae1b0b6f50f2e95e81be16aaabc36236d8ad1200841882f93ab7199c9920a300639772718b4190eb1eaa8b9e2e5d1fb67dd2da88b25434abf3f2c5afafa3184b835876d1e4f310aae3c6dca937625d5c31bff686b1efe7691ed28de598e64308a57a824b4db960617112dc11e5c84c7dc11bb02ab477ddfd9751c65e5bbe0376d5a615b45c4505b92a8d9fd8f85d2c36a4a68f4817a560de96f2e5f4fffadbf2e9e03b9ab9b44f37e6c5af2714ef66a55fc960d451c4ad5e4db9cbd2f930e74b60108fe928c2261fc8bb2d7720337ea30e4bb941285468094f5502ef6c27f808ad9f97a73b08595b8b678c00ddfbdab185c7731e3e7446b98051a5a40c302018a5a5e7d735d910f12effe029d06bee8389c80d0b44006dd81b7dfb7e22e9292fd89caabdcc9c076254c9b8013d5446f3ac32a53c864a41fb05926de83000000",
  "txid": "ced8d06dce13cb5f76fe35c8eea944efb6c7d9f703e5c52521c7986a184a414b",
  "hash": "f5fd018ad6cc0b821606a970278c97680accd5f8056fe037436d3595e829d83b",
  "size": 5085,
  "vsize": 2278,
  "version": 1,
  "locktime": 131,
  "vin": [
    {
      "txid": "da22d3541de503325b6c62cd20f6abcae03dde54083bf3207ebadeafe851c24b",
      "vout": 1,
      "scriptSig": {
        "asm": "",
        "hex": ""
      },
      "txinwitness": [
        "72426d21ed168bdc5459829b057fa91caab245cb689ff4e5af21f48676ce4a05c8b7dced37108fbaa63cc09b05c3aef2b50c65e88799b033502183c9127c4098a2c72721b1857fc27ae6614537d4801f469d2a1a5da1203922a7ff6b5e1b15cf3cc73727fd4bee59fca5ab8c6bf42fd70e691ca63ebe041ccddf15accd2b26a43169bb21a536259ec3e9d773f1d24a61dd375688062ded1b84bbe9978fbf69602358417ba3955fe31048c5e4fcc104b2f69a5f639a8691c1e470900087be9448f31e567a5d4d32f46ae193151bd30aacb567ab4ec9a0998915ce48226b5519a5840eb3e665761bf95217dae75d6b5980c1df74798c41887b13835198b90344144ecacbe2cea8532476a4cc02bfb86fd999dccf1c0822ca4b43c2d015a8da7a706779d678d89cc9a0393c5d799914ac2b5c81c09d870478f21360f173c468a5e95dd50546b7b0529a7477210a1b4e6acc1263a9b2738dc5578ef13b00eea232946c6a0c6bccd6651e8eb06936544625f53cec99d59299d6f24a33bfb58ab754feddc17b2ed74c49e53ec1c358e76f88fb2db0a62682cc8a833b6b38fc5d3744d5cf4fcdb5a86089205301f352805416f672d12e136a107666c68294d5b19666ffd565d3a7a724e4875986598267283a82e2c19489e55a89b40eca0fd8ee6c221180ab537a9c09548022babc0ed4c8fcf2872feb8fcb06a715042fb6259b9f32f6c7fe2d052bbfe4ae357410e3c7927cf015468d4b6acaed35814ec68947229c005ce542fe7deef7c72b8577b306ebdf990dee5578cc9c60668a81adef44d7a4dd240d4414abc8ae271fbbe29dfe3c8a4773bf7f12dc07787ab47542b40c2a2761106f87da287ebe3aeed0490780f6070b62757916667eeb119ae5d4da5b53404364eafa7acd232b2f08fd52e1ab8816cf9a74f739aaa3e20ad328875ddcdc62842747ee01e59ec1c7356bc219ce8c4d1733e957fc76e6d7255352ae465399d6eb47e83669ca18f57d465d60449eb5b1e023ac7788b7d90c88f4104f883a9fe691d92a00694c0d57be3d226f79e7734003b82459e0de6109f0293f213f1f11491ead98cb26d7b19681e97a07d59e79c37feb367b7fb2dce676451a49c0364a95e95151c510593a720de019a34904d88ee966f8d3f499bf01aa075d631c7c8d149353671351cdc638b053149edc5b7f671be43b185e10e830fbb146fd327c46923b1eac3e03b6b66aaa2f6f41f1f7c4f7f73dad6be8fec4d0ecb29a19d184c6678d9d720a52249ed1bc089e44e556735f76d4e26f6e3daa1b16deb54e2fbc84dca24da3ce124e5922b81a07499694a84cb6a7cae93bd5e832ba015646f0107f4e1f113926ba9abc065faed2e861a609d5ab7363f5352520ffa8c771abf01a1670665d768765ed765b14ccb758d231244c9cf11c0e11fd6c0ff9d046e4ecd7b90bdf8476d2829c813fc9fb8e8df105e283340f6abe41fb2d973abc4a40eee55d3318aa5b6b7af79fe5f01f6494f30e11730b30bf07af7a46ad5f02d41b8dabb70ac8018032ad4efaff5829136b5fff512e1029a4e15c146bdd11ada0f2f1851f7a0d741ab248338ee097eb0be82c689a324a40f9de5bf4ea0377f29818f701b476f7565d356a3baa12c93d2d252ffaf4e5a76d2273a4c2346316a317687373a133390642cff846d7b02218ecc6b5e7c4c576c41954bf79d184e0d023c0590b5e750c5c779d47feae325d4113b0218667a536df071b2563efe7e551211b08dd245d7c3245bc0f4a4cfe58241edd1d466c858e981b7343e1666e705f9547fab718fd49e1bb32efb6ffcd8aaf5140b2d83eb1668be70632a05522d11608bf7bec59cadfc3848d6124c281d9780a442a4f631b3a6ddbb7f84cc254d473661d9562518392bc36b86e74488af58061b8a101dbe8c6b1662f29fdfbc8d7fc942bf75442a8b241cb3c6aea412bcaa0c32b94eff1a39e901fd520055e37e1a4828a2e53723b51e0ff23c7dd5c1cedbffc08adc84e17f017dc12935e58bf1a862e4e256d988d71c822155343a093f0f774484c30a87cbd2ccf5c669fd7a5f01d71dda974110090a6da60b7f4b567b3d045a71eea0ab3759b9518cc30d97732cf9a6a1d85b474392d4704f3efd7cf6d9a87de3cfc1620094008134850363853f61a7baa7a89ee10a30eb8a796ebdf7e91c4c19630b619ba2be627cda3719f781c0cb05d4c4ab49a222e643a94d849eaa082635123de173b315ef0d8da5678f4e2ea2c4756b65cd2ac55273cc711e7390b3ad3675f68cf69bc543d4c022f4fbae849d341ec3acf19e9bed29f26143295bf92db00252903f68fabae80210bf6f40da359e305a749f0c4084242da1a57384b6423ddcdd5af737adead91d7c82b801cf9188a44d1c1ee0d8d97ffdbe45339e44435ccf620e8f6d0c4fcf5c2d0b948ada790145665d17e75ff0aeee58b2dffac2246057bf9141fa436467e2d54e3db91421711c14637592e187b4cb70540dc9a904a94cd65fa6a1cad5f3a72e1904b1b8d074113b54661c49af1bc35edf07c4073a60390769c62b6f3b33c666fb02b6294bbdd30245486289c481036ed4a76cf564aa6192e03b93b2060c8f7675c2fdc37533489e10136b4027b23acda4aed3ec26ad9124a92e23175059c7eb3dc4863169e74a1a7bf7251a8982f42aa929180cf3e7822beec06cfb4de61ef986e25cb14da4eb02f05c973bdb6b89363e78b87097befe4af7c98c86dfdf45feaeb38743a71751c987d4cfa7df6f02fb9a7aa50fc5a22a7a16342ff4bd17e3889ac6509f921198fadf427e9c5f098c768d5331774efc37f6b685e9fe6eb02cf35c1ad7352def238aa4692af7dcdab7e518786269667a9c1cab91ba22d6adafdbc06e0bef7d0ddc97226d79c24841052123467149d05c5e09b34c919ceafb894488b745c84b1af175ceff443d809d57e23526376be45150e0c87be9f448117bd293f0ec0a6c060e50c1d42892608e0f64d5d9745d6ca963d6b6f4d868024d5ebd9d1d05c7e927668097c8c4912613372f9ea0c9320de3f4f8ffad82da20944b58c9f45c0b9307b05335efdc35e10e188996f6052477c7bc7d35eeefcd9d1f0833959a5966044e5738391ac3443b0231fea10c147580079152e98ab6adbb49668cf0fc9a6c743c727952e4c7651a41c2d77787a768df5b6f0dc57b43596caa0506531e867bf15155094a1ea36e4ad0faf53923de3d4782211d71f0e56f1997a1ab0e1b3d5542925966dd25182fba4a8722f7729c7b67c558c8eb19ebf74f9609eefa304826f7a7267a4761d020f273536465766818b929aaab6d1dd00253f5ba5add1f0fa0d3342515f696b757f81a2acb3babcd62c4953646b720000000000000000000000000000000000000000000000000000000000000000001019292f01",
        "00c34984ba3ad43fe86d90cb1070671ec833c79c79332755d0bc65aebcca753b0ab426506a28655d71b12236b9e77e2c11828c90cb1aa44dbf0fc40b98c5befc2fe423f0dd0cec6f9e3d61b4d972be42b438a4c47b43a4cd7f86c32ec5ac5b167836a2af91de493851bca5358597b26b03c74306f6933852be79db53440ec4fc0d6a5243b2cdfdfc9549afd2a926135ac7d8e48bc0e2d642dc111d8004faad37d6c975e947f2f1aff4522ac4f08f9de86d0f4797477921d70e41df974ce1ffe53de7d80f8513a69f6929b4f4241923c792035d687cde13424531fc021996fdc37647f7f96c16790764113e0371439e66beabb1c5b6cb25ad7317eeb9276e35c4e18b4efd75eb6a723b937c5db2967de0f3200b40a09bc1eaa771fa04a03e02d51c3baa17bc396ca0713539d6bc0f2c446d32329c77fb8b19485a4aef7f6a10d0380c94c523665919368629be3d2e03eed036602ebc212b46f741d3887fae52a9accdca51e35806cc29803efb2373829df016174f48151e74e8cbec4f8bca58d24033ef792099c4fb8efb55c2b9ebbdfd25ab45fbc65a390c1b6caf1c2a1615038e9dafd5449accaa153be635688def21af0a7032ffed9a67f18973aca837c5d366a29583b79a29a8566041f4c08a7b69832f324d8c9e8ad48ffe6856e1a6f4fca56324fb3417ad8ffc16cc406e4a23e0dc33062b75bd537e5da1ab43949adc107bc0057e3e69160b13d9a44a9c3e57d9a191e6dad846d2902f2c51b33e92790d2e11786ca3b7ecb2a5d552cc58baad2d91c4d2f9d95559d307f1204d3e3e555972d5beb66efa1d77afa93be6a82e3a555c33aab233a7118e00daaa0854d6d07e81034e3993c7da41d8547f30587476278fb4a5309c848efaea5ec97a963c85917296bbfcc4c8f267ef0c6595eefdf1e94e44f0ecaee898f46cf09163e8b18683bddc12676b7e6e235b72a0516ff4c9843abbcb06a37caf41e69aa0da024ace383bd5f8867d2fce1d3cf8cf41503f71f346006d6ca967da383dea7ed0d93899815c1f2db0a6ac2b9d1fa9b58fb3d591080f7bebc57138e095f7bc54bbe556c930ce49c8afeef0b98e592f19fed1739b31533f6f94dc7131879a1f7b6263d010492087d8d3602bc538a164fadd029092481e3c58a1341c3bd03c1461f621c9aff08168bb16d8c827e79ef8ac23109cb7cc01f426a07c4971abeb897361b5eb4487854c01a4ccbd8fc3666329b1a5587cb65d95b4c7b81d512c2da94ae8b021f4fad85ae78d159f658286999cb0c573ee65e4e357b349171e1f704c05df99f355343463e7b6866ec00d0f1a8997ee487c184e68d69d69da1b053aada386fc32b2b5c1ee5e69face121242476c57d9c0963dddb4878f5df7cc9f309aa420e21318e62bb660c9058ae1b0b6f50f2e95e81be16aaabc36236d8ad1200841882f93ab7199c9920a300639772718b4190eb1eaa8b9e2e5d1fb67dd2da88b25434abf3f2c5afafa3184b835876d1e4f310aae3c6dca937625d5c31bff686b1efe7691ed28de598e64308a57a824b4db960617112dc11e5c84c7dc11bb02ab477ddfd9751c65e5bbe0376d5a615b45c4505b92a8d9fd8f85d2c36a4a68f4817a560de96f2e5f4fffadbf2e9e03b9ab9b44f37e6c5af2714ef66a55fc960d451c4ad5e4db9cbd2f930e74b60108fe928c2261fc8bb2d7720337ea30e4bb941285468094f5502ef6c27f808ad9f97a73b08595b8b678c00ddfbdab185c7731e3e7446b98051a5a40c302018a5a5e7d735d910f12effe029d06bee8389c80d0b44006dd81b7dfb7e22e9292fd89caabdcc9c076254c9b8013d5446f3ac32a53c864a41fb05926de"
      ],
      "sequence": 4294967294
    }
  ],
  "vout": [
    {
      "value": 499963.3916,
      "n": 0,
      "scriptPubKey": {
        "asm": "1 fe5d5ec2e9ee7ec1808d6ba91e8d24bc834c68da6424daa83ef93952ab22ca10",
        "hex": "5120fe5d5ec2e9ee7ec1808d6ba91e8d24bc834c68da6424daa83ef93952ab22ca10",
        "reqSigs": 1,
        "type": "witness_v1_scripthash",
        "addresses": [
          "3QJmnh"
        ]
      }
    },
    {
      "value": 1.0,
      "n": 1,
      "scriptPubKey": {
        "asm": "OP_RETURN bff5a248a9d9c3d59ef93f1ad81d5d028733701f73531ae2f223181c9facdb20 30dfff093fea89d1581599b34dba25689dd974666a81679c5141659ce13e514c10ffdf291fcaa9f17835b9936d9a0548bdf954464aa147bc716145bcc11e716c709fbf497faac9911855d9f30dfa6528dd9934262ac127dc110125dca17e110c50bf9f695f8ae9b13875f9d32dda4508fdb914060ae107fc312105fc815e312cb05f7f89bf6a0951d8951933cd3aa5e81d59f4e6ea01e71cd1c1e51c61bed1cc907f5fa99f4a2971f8b53913ed1a85c83d79d4c6ca21c73cf1e1c53c419ef1ecf01f3fc9ff2a491198d559738d7ae5a85d19b4a6aa41a75c9181a55c21fe918cd03f1fe9df0a6931b8f57953ad5ac5887d3994868a61877cb1a1857c01deb1ac30dfff093fea89d1581599b34dba25689dd974666a81679c5141659ce13e514c10ffdf291fcaa9f17835b9936d9a0548bdf954464aa147bc716145bcc11e716c709fbf497faac9911855d9f30dfa6528dd9934262ac127dc110125dca17e110c50bf9f695f8ae9b13875f9d32dda4508fdb914060ae107fc312105fc815e312cb05f7f89bf6a0951d8951933cd3aa5e81d59f4e6ea01e71cd1c1e51c61bed1cc907f5fa99f4a2971f8b53913ed1a85c83d79d4c6ca21c73cf1e1c53c419ef1ecf01f3fc9ff2a491198d559738d7ae5a85d19b4a6aa41a75c9181a55c21fe918cd03f1fe9df0a6931b8f57953ad5ac5887d3994868a61877cb1a1857c01deb1ac30dfff093fea89d1581599b34dba25689dd974666a81679c5141659ce13e514c10ffdf291fcaa9f17835b9936d9a0548bdf954464aa147bc716145bcc11e716c709fbf497faac9911855d9f30dfa6528dd9934262ac127dc110125dca17e110c50bf9f695f8ae9b13875f9d32dda4508fdb914060ae107fc312105fc815e312cb05f7f89bf6a0951d8951933cd3aa5e81d59f4e6ea01e71cd1c1e51c61bed1cc907f5fa99f4a2971f8b53913ed1a85c83d79d4c6ca21c73cf1e1c53c419ef1ecf01f3fc9ff2a491198d559738d7ae5a85d19b4a6aa41a75c9181a55c21fe918cd03f1fe9df0a6931b8f57953ad5ac5887d3994868a61877cb1a1857c01deb1ac30dfff093fea89d1581599b34dba25689dd974666a81679c5141659ce13e514c10ffdf291fcaa9f17835b9936d9a0548bdf954464aa147bc716145bcc11e716c709fbf497faac9911855d9f30dfa6528dd9934262ac127dc110125dca17e110c50bf9f695f8ae9b13875f9d32dda4508fdb914060ae107fc312105fc815e312cb05f7f89bf6a0951d8951933cd3aa5e81d59f4e6ea01e71cd1c1e51c61bed1cc907f5fa99f4a2971f8b53913ed1a85c83d79d4c6ca21c73cf1e1c53c419ef1ecf01f3fc9ff2a491198d559738d7ae5a85d19b4a6aa41a75c9181a55c21fe918cd03f1fe9df0a6931b8f57953ad5ac5887d3994868a61877cb1a1857c01deb1ac30dfff093fea89d1581599b34dba25689dd974666a81679c5141659ce13e514c10ffdf291fcaa9f17835b9936d9a0548bdf954464aa147bc716145bcc11e716c709fbf497faac9911855d9f30dfa6528dd9934262ac127dc110125dca17e110c50bf9f695f8ae9b13875f9d32dda4508fdb914060ae107fc312105fc815e312cb05f7f89bf6a0951d8951933cd3aa5e8d584b0dded7ba894851c75cac29c5daa688a19992abc8b51fefec2caadce0d74",
        "hex": "6a20bff5a248a9d9c3d59ef93f1ad81d5d028733701f73531ae2f223181c9facdb204db00430dfff093fea89d1581599b34dba25689dd974666a81679c5141659ce13e514c10ffdf291fcaa9f17835b9936d9a0548bdf954464aa147bc716145bcc11e716c709fbf497faac9911855d9f30dfa6528dd9934262ac127dc110125dca17e110c50bf9f695f8ae9b13875f9d32dda4508fdb914060ae107fc312105fc815e312cb05f7f89bf6a0951d8951933cd3aa5e81d59f4e6ea01e71cd1c1e51c61bed1cc907f5fa99f4a2971f8b53913ed1a85c83d79d4c6ca21c73cf1e1c53c419ef1ecf01f3fc9ff2a491198d559738d7ae5a85d19b4a6aa41a75c9181a55c21fe918cd03f1fe9df0a6931b8f57953ad5ac5887d3994868a61877cb1a1857c01deb1ac30dfff093fea89d1581599b34dba25689dd974666a81679c5141659ce13e514c10ffdf291fcaa9f17835b9936d9a0548bdf954464aa147bc716145bcc11e716c709fbf497faac9911855d9f30dfa6528dd9934262ac127dc110125dca17e110c50bf9f695f8ae9b13875f9d32dda4508fdb914060ae107fc312105fc815e312cb05f7f89bf6a0951d8951933cd3aa5e81d59f4e6ea01e71cd1c1e51c61bed1cc907f5fa99f4a2971f8b53913ed1a85c83d79d4c6ca21c73cf1e1c53c419ef1ecf01f3fc9ff2a491198d559738d7ae5a85d19b4a6aa41a75c9181a55c21fe918cd03f1fe9df0a6931b8f57953ad5ac5887d3994868a61877cb1a1857c01deb1ac30dfff093fea89d1581599b34dba25689dd974666a81679c5141659ce13e514c10ffdf291fcaa9f17835b9936d9a0548bdf954464aa147bc716145bcc11e716c709fbf497faac9911855d9f30dfa6528dd9934262ac127dc110125dca17e110c50bf9f695f8ae9b13875f9d32dda4508fdb914060ae107fc312105fc815e312cb05f7f89bf6a0951d8951933cd3aa5e81d59f4e6ea01e71cd1c1e51c61bed1cc907f5fa99f4a2971f8b53913ed1a85c83d79d4c6ca21c73cf1e1c53c419ef1ecf01f3fc9ff2a491198d559738d7ae5a85d19b4a6aa41a75c9181a55c21fe918cd03f1fe9df0a6931b8f57953ad5ac5887d3994868a61877cb1a1857c01deb1ac30dfff093fea89d1581599b34dba25689dd974666a81679c5141659ce13e514c10ffdf291fcaa9f17835b9936d9a0548bdf954464aa147bc716145bcc11e716c709fbf497faac9911855d9f30dfa6528dd9934262ac127dc110125dca17e110c50bf9f695f8ae9b13875f9d32dda4508fdb914060ae107fc312105fc815e312cb05f7f89bf6a0951d8951933cd3aa5e81d59f4e6ea01e71cd1c1e51c61bed1cc907f5fa99f4a2971f8b53913ed1a85c83d79d4c6ca21c73cf1e1c53c419ef1ecf01f3fc9ff2a491198d559738d7ae5a85d19b4a6aa41a75c9181a55c21fe918cd03f1fe9df0a6931b8f57953ad5ac5887d3994868a61877cb1a1857c01deb1ac30dfff093fea89d1581599b34dba25689dd974666a81679c5141659ce13e514c10ffdf291fcaa9f17835b9936d9a0548bdf954464aa147bc716145bcc11e716c709fbf497faac9911855d9f30dfa6528dd9934262ac127dc110125dca17e110c50bf9f695f8ae9b13875f9d32dda4508fdb914060ae107fc312105fc815e312cb05f7f89bf6a0951d8951933cd3aa5e8d584b0dded7ba894851c75cac29c5daa688a19992abc8b51fefec2caadce0d74",
        "type": "nulldata"
      }
    }
  ],
  "blockhash": "3357cb4dc001b5acbac31fcce3a77df76b11eaba9a4d126a2528d529fe11213e",
  "confirmations": 1,
  "time": 1764182290,
  "blocktime": 1764182290
}