{
  "hex": "010000000001012abf40558b6183a4581fc7b57503bf3e3d66eb64c2c78502f358a59582ef5f670100000000feffffff0200e1f50500000000fdd5046a205eeb6e082ffdb3f31dbb515fd04708a4f85dacf5de80675c8ac8bf51f5c074804db0041f465a1f69afedec35ba22e4f9ec7b82ab8eda5515f6882cc772f021cd6e301b3f667a3f498fcdcc159a02c4d9cc5ba28baefa7535d6a80ce752d001ed4e103b5f061a5f29efadac75fa62a4b9ac3bc2ebce9a1555b6c86c8732b0618d2e705b7f263a7f09cf8d8c55da4284998c1be2cbeeba357596e84ca7129041ad0e507b9fc6da9fe92f6d6cb53aa264796cfb022b0e5ad5957608ac47f270a14deeb09bbfe6fabfc90f4d4c951a8244594cdb220b2e7af5b556288c67d250816dce90bbdf869adfa96f2d2cf57ae224392cbb426b4e1a95d53648ec07b230e10daef0dbffa6baff894f0d0cd55ac204190c9b624b6e3ab5f51668cc279210c12d8ed0fb1f465a1f69afedec35ba22e4f9ec7b82ab8eda5515f6882cc772f021cd6e301b3f667a3f498fcdcc159a02c4d9cc5ba28baefa7535d6a80ce752d001ed4e103b5f061a5f29efadac75fa62a4b9ac3bc2ebce9a1555b6c86c8732b0618d2e705b7f263a7f09cf8d8c55da4284998c1be2cbeeba357596e84ca7129041ad0e507b9fc6da9fe92f6d6cb53aa264796cfb022b0e5ad5957608ac47f270a14deeb09bbfe6fabfc90f4d4c951a8244594cdb220b2e7af5b556288c67d250816dce90bbdf869adfa96f2d2cf57ae224392cbb426b4e1a95d53648ec07b230e10daef0dbffa6baff894f0d0cd55ac204190c9b624b6e3ab5f51668cc279210c12d8ed0fb1f465a1f69afedec35ba22e4f9ec7b82ab8eda5515f6882cc772f021cd6e301b3f667a3f498fcdcc159a02c4d9cc5ba28baefa7535d6a80ce752d001ed4e103b5f061a5f29efadac75fa62a4b9ac3bc2ebce9a1555b6c86c8732b0618d2e705b7f263a7f09cf8d8c55da4284998c1be2cbeeba357596e84ca7129041ad0e507b9fc6da9fe92f6d6cb53aa264796cfb022b0e5ad5957608ac47f270a14deeb09bbfe6fabfc90f4d4c951a8244594cdb220b2e7af5b556288c67d250816dce90bbdf869adfa96f2d2cf57ae224392cbb426b4e1a95d53648ec07b230e10daef0dbffa6baff894f0d0cd55ac204190c9b624b6e3ab5f51668cc279210c12d8ed0fb1f465a1f69afedec35ba22e4f9ec7b82ab8eda5515f6882cc772f021cd6e301b3f667a3f498fcdcc159a02c4d9cc5ba28baefa7535d6a80ce752d001ed4e103b5f061a5f29efadac75fa62a4b9ac3bc2ebce9a1555b6c86c8732b0618d2e705b7f263a7f09cf8d8c55da4284998c1be2cbeeba357596e84ca7129041ad0e507b9fc6da9fe92f6d6cb53aa264796cfb022b0e5ad5957608ac47f270a14deeb09bbfe6fabfc90f4d4c951a8244594cdb220b2e7af5b556288c67d250816dce90bbdf869adfa96f2d2cf57ae224392cbb426b4e1a95d53648ec07b230e10daef0dbffa6baff894f0d0cd55ac204190c9b624b6e3ab5f51668cc279210c12d8ed0fb1f465a1f69afedec35ba22e4f9ec7b82ab8eda5515f6882cc772f021cd6e301b3f667a3f498fcdcc159a02c4d9cc5ba28baefa7535d6a80ce752d001ed4e103b5f061a5f29efadac75fa62a4b9ac3bc2ebce9a1555b6c86c8732b0618d2e705b7f263a7f09cf8d8c55da4284998c1be2cbeeba357596e84ca7129041ad0e507b9fc6da9fe92f6d6cb53aa264796cfb025d6da2f7d2b0c9b141fe84cf889a20e458d8eb2e1e076ef7ba18a6d3ed0419bea0cee9a1782d0000225120337ee069a35ce6ddba2b1b75fed48b4ae239e39628a7f8df2142ef47457699f202fd7509ad0d55a66c154d498a69cd090f2208cef946808b62b72120bb8b9ecea58b6fd77dc9788488005aa4a5904c5de0b770356fc52c860f35c59e129a18228317e9de047a9c5d8d80aefe08add995942ad885806c49b40956cd9f5c72bb8c6b9261c42dec86ad00f2c8de5705e7aec90714ae22685aeeec3a21114a650d54d5385c5319c9cc7c6c58755abbc73f3e3039416ca73dfafc8f8c95673d384b4df0696e830dadea7882aac0a03caf032a16b285ba7b61b6e2f7e9dfdca204b20fe73d3f28b47f8a91172783fe590632fb3d276368467dbf6b22ada3e3f50c9eb78b89dfb4de74d10d434bceab3118854ebc23e6f867f6b9796a30a39a0f7f410fb190e4679cd04342eccbbc7bdaaa38414bb2826a7940f6cf901dab0574d1ffc4f88ec5fbfe1e909df349708750c7fa0b28daf3ec372ad41d8f78539d061d883c70dae70ed65eb907819bf1f4d6739ce0c4bc84fcca9a25dcd737c4a6cdf4452f3ff309ac08d8962deb36faaf2f69ae42053c8ee263665667d300abdd0fdb9e0cf59e330d960a22ec29d4e5c48f074bab7473ae237b59931fd7a00740d84b3f76984a8b2db7f955b25f93172e86f03563a9de68f0d522ee29252ce62269ceff8b8e455d8c009da49d4227c1c8b2134d7479899be004ccf128ae12218d72b0241f1a335edc71279cc4335843526e3d0a801b1f86f0dcad09570d68aa62d37f62568772c6b2c6151e914b08479fdbd3528fa3c1d704330601caf7297a554205c7998174884303f4ba0f14382aa419a2d2d8f5b8c1052805341cf8a481e4c8455e8bc889fea1fc6afb4ba1c58075608ecf551bfa26ec16f60ee403b259b4b66b40da19a2864f2a801f8d69d3959ba6812ec61dce2fbae77a153d3f7736793f5f8355c06c871d5732f527e110882b43111286be64d640cf365fabb194dbc8f532a04ee4334443830037773b33dee08b7f738bd072325f75e298c140f39e1fb25ba313302c465a1d70ddf3d06436b396e6518601c59a2e1cdf7d1bd901a8799c86e901f78636914f236ccfa941eb044d0fce3bf60c625703962f6ec7dc58b2129793bf58cba4caf2b3e920adb6d56bd82a4d40d23f5e92657750a85e4a102060eeb4f4b8812e4d53b6800d08f1ce62a465668990ba9b37784c2115962f2db3f73fa18bae0fcd8c608c89dcd8b5c332d0bcb7c3a64cbb6a50e5c7d981ecf4e7984044bf5835ac1e50a4ef4dcb7aacc4773aa1213b64aa50d774df8245e6904e7f67e41f4f31311e1c4930a525f71d57be4bb9ee33bd20199e2a6c111cd2be82ab89dfa1e84f450aa8a546e4c250836faaf05c89f6a1d9949e0cf7901e50b36b7971a91ae45a8806b435f4d3a8c0ac8681e24427f4ea40ff364c9cba127c9e4818e8806d6fe74b4a2c7530e7eaf2a1ba54c3e7b2dd141969a0b1b502d82a702fc90cec2186299df75848f2567ddec99cb1bdddeff4b29899cf3a4708bd64525f959308394364712f37b25eeff98ccc5bcf4071e3503d13bade7850705381c0d79d49246e7db41f23837280a27934ac0d380ea21a0814718bb6cd11e4415f6be5cea5071f8f2c78eb0d7bdb5910fd84263ca6f704e3477165b3c561c6a59deea61c98fc738b7af088b2b1f72024cf561135cc96fce2dfd269e69dd74dab6c0038959aeadee87f459348f4614d25df1cd6986c99cd6fa3f7174256b4f9aa11076784e3365e8f4c6f8b4a1d8f35c02bb2fc9da384e648ad2dea375aedbd7ce841918d9ebc5137c56e71556742340278824320546656af99171080b4862d3243e0981fc8feb80435174b2a388664cd57983237ff3c9114c547d82b408c4f75b2ec234955603e060ff51e33d537725dc33d8d9c049b410bbe147f2bef79d7cbd0bb00a0156fe0eba08c177f9a6324763bcdb9f153c12813fb6cabb415404a30423bce0b0da1f2a06a1d33c2988f260026a21e96ca8895f6d2e96413643848e14a933b44694d500f7a63c9714ff206c92d52ed92e448e9f5a6d514f7576ec30b422fe9675773d17b049375d4f54d8ba174967495ae71154455ffff848b234ee8b68e4652c5d85f621b1d11decec8e1683c586ce4a73e9bee9deebbc61e64c94fcea9d8406e65c8229ee4eaa12aa3ab5ba1949a532ec622c4ed13f66685ba44b27a5a7810fac91d6bb32e012bae4405870710213ceef3459a69a14d7e3ecc1170d5c60d90298f5cc55e211564aef568afeb9b4074a4aaca8caf85fb6d46a4d1055a62a462fecee7ec6bbd0f829a17d359a00bf44d3744c53c4739c30c78195d419928a2be6ce8d7d5c031dbf6ab54dfc0eaf73cbce15cad82015fa4ca6c68c4a9a1df3083ae788a9a6b68223242c8b8174251e2103e0303da0822f7e3f57abf7907ab39f2d5403e7a434888588c0306847ecca9e703b96bd791e9c34a13eff21e45c99b58bc949e8c6eee81870e86d2b115fd67f2e9bb143f833d4b88e3b8b1a4753e653cae39d96225737d296fecce89a48f33d581c6f4ec09e8e18e3853a9e54333c07ef9b275a0db7ca706a8f7ca2c7d4f2250e73330da75dca3210078e3ba6e9c3bd98e352ee19394f5e6dbb15b085f19f6b533c709ab180084ddd14bc75d35d25dbfc9c7b3bc92f8160b87810f28cab7957aeca4704adbb5b34e8e9afd5615f67f395e2d34678865aaca78670e8396f2eeac38c7407c2324268d4b941e35c0b0f82229babecf7bf172921fab93209cf8bbfb048c2678625051568e8a568aa21b356e0153d3ca1a5527ee03401076c6911be962a87aeb281b70ccad8bda91f3cae72e792e4056956b819a4e0b0cfa097cf012ae11d6f12a2ca5c5259f67c33d50a3dc76541a2ddc21fdeceb7dd0f911d3e00a1604d19a348e2b1f66b76cf06d1a331bfa76a10d7018cc0a19197a40d04438933148d533a5764d42911793bb7492867f17a2aa59fbdf3044be2321295c4bfd7b3b00d5638f6d9c659e448d9b7625f9908b61c6732a407f794aee041468852268f3a75bd8f8fe4038f6ad2959bacb682f3bb28c61fa7f9aeafdc31ed162161e124468c4ee4c39d29377836fb94343895a496cb45b8dd6e5f832ac08f7c04ed25a7af27ebb7660b31fbdc73f1100e458520a33bb17961ad589ebc8b319c217e0b57d4e0abce798e96bd5da1ae3f64d1e016c78594d2b687b24c37f251cdce01fdf7e20e25811d692eab9649dfbca32756de89a5729f7a32bd6c1fbd6de1a045b9ba27eba3aa3526184332acd7d8c293726b155c5ac9f9f09fe22848f05f4cae76b13c79203cf005cc56d5b4be3a112aaa0f4d8e8f4d08f281e30747781898d8fd3e3f71012191a1b294c4f7b8593959aa9d2e2e5eaecf4020d1213495455646f868fa9b2c3c6c8d2d4d8dcf100044748525762698eacb0bdc5d2f7000000000000000000000000000b1f344301fd2105001056c189192a93a214849198821016cd8a83629e173bc1472ef55879223ae9a7b9fa0aaeeff845287624590e23df2b8de8af506b1958449e20bbebbef9b575c4f6ba57acdd06f0a2417b4703415c56193143ef4d62d3a66b0cdc88debeb0526ed9b266ca8fc066cd1289745184db1ee6f203440c7692e7001e8d394095861b127d631c9379cb7762c1b1c4a14138e5e76e15f34735cfa03b2c66e965098544ac1a31563336cc2ff364b3efd4a19b0260168e24283e96e635926be3b5048cf2157a3bffe26aaaea40687ebdc5540cee50ef69e6581815a0e74158fbcfc66996fa0d9ac992ed2d2362f9c6e86749d6c1a30f722e9795229ccecdbad4e8928c9c0e4b19857d5c310e8f2794b9aeb7de94e66d2c0aa4ae4a44069201dda9510b6f8b297b45596bfdb6f94d919fecfd07abcd5b30c630c4a313efd2e05608cb22aa1210ebe235b29dbda0647342de85f662ffe4a4dc9e8b74788faea654d8113400a0d6ee6d0fa463e9d4b00f7058e462a46eff48f2fbcde58451ccdd77cc1c0828b069be25ea7c2c57558ac3e451733286d5c497917e8a075bcc02eb2ac3aa12a7de2c7875475dcfacd715810ffab340f5e2e63d6968d2e835427058095166f97c5a93f72fcc813a8a5c78ad966ab3f2f97ffd7a3e8edd17fdb0cf059287736d3e325878d3798ef5ba0239ef47d904514e768da04c378851accefbcbb51c03f72160a38c0d23fcc5fdd0ba780aefd322bf457491ce88b88f7fbf7a4011d8d1deaa7f52b1cbefc7676efa58528f52ebca19d781d9c38400c2fb32a2aa1329c7cdf92791f64dca40114894189f55c3bf963fc96c890aadf79c04c3f0ba42df44568eca6ade4bc3efdbc4b9ac96b755e1a851d2e7cd39c693b6f2ad54f70c681cf997c5e1c8f717f6b38289d58ed6b6360b9aa8006d16ceb0bed63b0c4f687415849921f758472e8a7121abf15eaa89e7ea5a8b968fa18218ef0f0713398d50a4acfd97fa3ea1c2dae54d80df9d5a8c289bc22749851be9cad6afe9b60c8a55949351dc6156e713acc41b7425df210d0d3c38f5d467e9b8854baf858cfbe91b7b7ac47de0efb6e87394b78adb73212bec12f8c951f90246a431a1d3f562d258c7d3166f7d4ec3701dbca8b576cc30d80f49697c17cba1a4b0f5da0dd7fe5e6dd82c91b32ceb7b915911883a147aa7a0358699583efd09656702e30dc30a3a7cc7506e01fbd3875ca53061aec919bd64272b11b0178c8b3ca11d1065fee5b30bd2db9bdfc2e91eff88548601885ae0dcbbbaa3e6c7f7da589d2d3ce2bf50a3c2f54eee8c1319c791b4f0c3c39f0ac346fbf75ce6be21f3ad67403b4341d0ccb8b9cf6544295b8e7907b97dda34abec1d76de0a6bdb21784e55c8d5e0bd48cbd6f0f8927ac8f4f400bd491438afc3e40edfe4a9a8554ddf10c2102b5b9830c337f17a89dae36edbc5763190b0c29306138ab656c6ec93d68bb2399025a5ec55bd45dea63349ad667c58f23f60c86fa8076e489ba2ea9af55801e837fe0bb3723fcfeca1205acfe5546bb85b8e240cde252c190864641025a1ac18de19dcc7a74112b950c4afc25cb2f3c4a829ef7c06e490eaffae1f673b605b48c8e62b508d0d10cebea15da0ecf598f4c60e24f8ef6b5a18e165564b5bb9ccaa9babc17a5eb43f523913e15c7733b79dc6700d2324db9a81eb37c97462d21af54a69f7e90139d79f0448bdd6f18cb549eede84968062a3e8800589017cc8424eb191127deeabc9458dc6d44cb6668e32766d1ab94aa8d5e6bb1bdb591c6383da6609b86f49a3d5041809e737b3cc9d2c2c2ce8fb944013903b28e88cd8408bd55a47bb8d06193bf22b6385000000",
  "txid": "c5d76b23593dda39b208b95aa9e629b1cb109efd752559173522bab8839e0a1f",
  "hash": "399ae70c8b355030f39cfc961d70921a6ec12b4d9d35e7fcae5fe06e46012a03",
  "size": 5085,
  "vsize": 2278,
  "version": 1,
  "locktime": 133,
  "vin": [
    {
      "txid": "675fef8295a558f30285c7c264eb663d3ebf0375b5c71f58a483618b5540bf2a",
      "vout": 1,
      "scriptSig": {
        "asm": "",
        "hex": ""
      },
      "txinwitness": [
        "ad0d55a66c154d498a69cd090f2208cef946808b62b72120bb8b9ecea58b6fd77dc9788488005aa4a5904c5de0b770356fc52c860f35c59e129a18228317e9de047a9c5d8d80aefe08add995942ad885806c49b40956cd9f5c72bb8c6b9261c42dec86ad00f2c8de5705e7aec90714ae22685aeeec3a21114a650d54d5385c5319c9cc7c6c58755abbc73f3e3039416ca73dfafc8f8c95673d384b4df0696e830dadea7882aac0a03caf032a16b285ba7b61b6e2f7e9dfdca204b20fe73d3f28b47f8a91172783fe590632fb3d276368467dbf6b22ada3e3f50c9eb78b89dfb4de74d10d434bceab3118854ebc23e6f867f6b9796a30a39a0f7f410fb190e4679cd04342eccbbc7bdaaa38414bb2826a7940f6cf901dab0574d1ffc4f88ec5fbfe1e909df349708750c7fa0b28daf3ec372ad41d8f78539d061d883c70dae70ed65eb907819bf1f4d6739ce0c4bc84fcca9a25dcd737c4a6cdf4452f3ff309ac08d8962deb36faaf2f69ae42053c8ee263665667d300abdd0fdb9e0cf59e330d960a22ec29d4e5c48f074bab7473ae237b59931fd7a00740d84b3f76984a8b2db7f955b25f93172e86f03563a9de68f0d522ee29252ce62269ceff8b8e455d8c009da49d4227c1c8b2134d7479899be004ccf128ae12218d72b0241f1a335edc71279cc4335843526e3d0a801b1f86f0dcad09570d68aa62d37f62568772c6b2c6151e914b08479fdbd3528fa3c1d704330601caf7297a554205c7998174884303f4ba0f14382aa419a2d2d8f5b8c1052805341cf8a481e4c8455e8bc889fea1fc6afb4ba1c58075608ecf551bfa26ec16f60ee403b259b4b66b40da19a2864f2a801f8d69d3959ba6812ec61dce2fbae77a153d3f7736793f5f8355c06c871d5732f527e110882b43111286be64d640cf365fabb194dbc8f532a04ee4334443830037773b33dee08b7f738bd072325f75e298c140f39e1fb25ba313302c465a1d70ddf3d06436b396e6518601c59a2e1cdf7d1bd901a8799c86e901f78636914f236ccfa941eb044d0fce3bf60c625703962f6ec7dc58b2129793bf58cba4caf2b3e920adb6d56bd82a4d40d23f5e92657750a85e4a102060eeb4f4b8812e4d53b6800d08f1ce62a465668990ba9b37784c2115962f2db3f73fa18bae0fcd8c608c89dcd8b5c332d0bcb7c3a64cbb6a50e5c7d981ecf4e7984044bf5835ac1e50a4ef4dcb7aacc4773aa1213b64aa50d774df8245e6904e7f67e41f4f31311e1c4930a525f71d57be4bb9ee33bd20199e2a6c111cd2be82ab89dfa1e84f450aa8a546e4c250836faaf05c89f6a1d9949e0cf7901e50b36b7971a91ae45a8806b435f4d3a8c0ac8681e24427f4ea40ff364c9cba127c9e4818e8806d6fe74b4a2c7530e7eaf2a1ba54c3e7b2dd141969a0b1b502d82a702fc90cec2186299df75848f2567ddec99cb1bdddeff4b29899cf3a4708bd64525f959308394364712f37b25eeff98ccc5bcf4071e3503d13bade7850705381c0d79d49246e7db41f23837280a27934ac0d380ea21a0814718bb6cd11e4415f6be5cea5071f8f2c78eb0d7bdb5910fd84263ca6f704e3477165b3c561c6a59deea61c98fc738b7af088b2b1f72024cf561135cc96fce2dfd269e69dd74dab6c0038959aeadee87f459348f4614d25df1cd6986c99cd6fa3f7174256b4f9aa11076784e3365e8f4c6f8b4a1d8f35c02bb2fc9da384e648ad2dea375aedbd7ce841918d9ebc5137c56e71556742340278824320546656af99171080b4862d3243e0981fc8feb80435174b2a388664cd57983237ff3c9114c547d82b408c4f75b2ec234955603e060ff51e33d537725dc33d8d9c049b410bbe147f2bef79d7cbd0bb00a0156fe0eba08c177f9a6324763bcdb9f153c12813fb6cabb415404a30423bce0b0da1f2a06a1d33c2988f260026a21e96ca8895f6d2e96413643848e14a933b44694d500f7a63c9714ff206c92d52ed92e448e9f5a6d514f7576ec30b422fe9675773d17b049375d4f54d8ba174967495ae71154455ffff848b234ee8b68e4652c5d85f621b1d11decec8e1683c586ce4a73e9bee9deebbc61e64c94fcea9d8406e65c8229ee4eaa12aa3ab5ba1949a532ec622c4ed13f66685ba44b27a5a7810fac91d6bb32e012bae4405870710213ceef3459a69a14d7e3ecc1170d5c60d90298f5cc55e211564aef568afeb9b4074a4aaca8caf85fb6d46a4d1055a62a462fecee7ec6bbd0f829a17d359a00bf44d3744c53c4739c30c78195d419928a2be6ce8d7d5c031dbf6ab54dfc0eaf73cbce15cad82015fa4ca6c68c4a9a1df3083ae788a9a6b68223242c8b8174251e2103e0303da0822f7e3f57abf7907ab39f2d5403e7a434888588c0306847ecca9e703b96bd791e9c34a13eff21e45c99b58bc949e8c6eee81870e86d2b115fd67f2e9bb143f833d4b88e3b8b1a4753e653cae39d96225737d296fecce89a48f33d581c6f4ec09e8e18e3853a9e54333c07ef9b275a0db7ca706a8f7ca2c7d4f2250e73330da75dca3210078e3ba6e9c3bd98e352ee19394f5e6dbb15b085f19f6b533c709ab180084ddd14bc75d35d25dbfc9c7b3bc92f8160b87810f28cab7957aeca4704adbb5b34e8e9afd5615f67f395e2d34678865aaca78670e8396f2eeac38c7407c2324268d4b941e35c0b0f82229babecf7bf172921fab93209cf8bbfb048c2678625051568e8a568aa21b356e0153d3ca1a5527ee03401076c6911be962a87aeb281b70ccad8bda91f3cae72e792e4056956b819a4e0b0cfa097cf012ae11d6f12a2ca5c5259f67c33d50a3dc76541a2ddc21fdeceb7dd0f911d3e00a1604d19a348e2b1f66b76cf06d1a331bfa76a10d7018cc0a19197a40d04438933148d533a5764d42911793bb7492867f17a2aa59fbdf3044be2321295c4bfd7b3b00d5638f6d9c659e448d9b7625f9908b61c6732a407f794aee041468852268f3a75bd8f8fe4038f6ad2959bacb682f3bb28c61fa7f9aeafdc31ed162161e124468c4ee4c39d29377836fb94343895a496cb45b8dd6e5f832ac08f7c04ed25a7af27ebb7660b31fbdc73f1100e458520a33bb17961ad589ebc8b319c217e0b57d4e0abce798e96bd5da1ae3f64d1e016c78594d2b687b24c37f251cdce01fdf7e20e25811d692eab9649dfbca32756de89a5729f7a32bd6c1fbd6de1a045b9ba27eba3aa3526184332acd7d8c293726b155c5ac9f9f09fe22848f05f4cae76b13c79203cf005cc56d5b4be3a112aaa0f4d8e8f4d08f281e30747781898d8fd3e3f71012191a1b294c4f7b8593959aa9d2e2e5eaecf4020d1213495455646f868fa9b2c3c6c8d2d4d8dcf100044748525762698eacb0bdc5d2f7000000000000000000000000000b1f344301",
        "001056c189192a93a214849198821016cd8a83629e173bc1472ef55879223ae9a7b9fa0aaeeff845287624590e23df2b8de8af506b1958449e20bbebbef9b575c4f6ba57acdd06f0a2417b4703415c56193143ef4d62d3a66b0cdc88debeb0526ed9b266ca8fc066cd1289745184db1ee6f203440c7692e7001e8d394095861b127d631c9379cb7762c1b1c4a14138e5e76e15f34735cfa03b2c66e965098544ac1a31563336cc2ff364b3efd4a19b0260168e24283e96e635926be3b5048cf2157a3bffe26aaaea40687ebdc5540cee50ef69e6581815a0e74158fbcfc66996fa0d9ac992ed2d2362f9c6e86749d6c1a30f722e9795229ccecdbad4e8928c9c0e4b19857d5c310e8f2794b9aeb7de94e66d2c0aa4ae4a44069201dda9510b6f8b297b45596bfdb6f94d919fecfd07abcd5b30c630c4a313efd2e05608cb22aa1210ebe235b29dbda0647342de85f662ffe4a4dc9e8b74788faea654d8113400a0d6ee6d0fa463e9d4b00f7058e462a46eff48f2fbcde58451ccdd77cc1c0828b069be25ea7c2c57558ac3e451733286d5c497917e8a075bcc02eb2ac3aa12a7de2c7875475dcfacd715810ffab340f5e2e63d6968d2e835427058095166f97c5a93f72fcc813a8a5c78ad966ab3f2f97ffd7a3e8edd17fdb0cf059287736d3e325878d3798ef5ba0239ef47d904514e768da04c378851accefbcbb51c03f72160a38c0d23fcc5fdd0ba780aefd322bf457491ce88b88f7fbf7a4011d8d1deaa7f52b1cbefc7676efa58528f52ebca19d781d9c38400c2fb32a2aa1329c7cdf92791f64dca40114894189f55c3bf963fc96c890aadf79c04c3f0ba42df44568eca6ade4bc3efdbc4b9ac96b755e1a851d2e7cd39c693b6f2ad54f70c681cf997c5e1c8f717f6b38289d58ed6b6360b9aa8006d16ceb0bed63b0c4f687415849921f758472e8a7121abf15eaa89e7ea5a8b968fa18218ef0f0713398d50a4acfd97fa3ea1c2dae54d80df9d5a8c289bc22749851be9cad6afe9b60c8a55949351dc6156e713acc41b7425df210d0d3c38f5d467e9b8854baf858cfbe91b7b7ac47de0efb6e87394b78adb73212bec12f8c951f90246a431a1d3f562d258c7d3166f7d4ec3701dbca8b576cc30d80f49697c17cba1a4b0f5da0dd7fe5e6dd82c91b32ceb7b915911883a147aa7a0358699583efd09656702e30dc30a3a7cc7506e01fbd3875ca53061aec919bd64272b11b0178c8b3ca11d1065fee5b30bd2db9bdfc2e91eff88548601885ae0dcbbbaa3e6c7f7da589d2d3ce2bf50a3c2f54eee8c1319c791b4f0c3c39f0ac346fbf75ce6be21f3ad67403b4341d0ccb8b9cf6544295b8e7907b97dda34abec1d76de0a6bdb21784e55c8d5e0bd48cbd6f0f8927ac8f4f400bd491438afc3e40edfe4a9a8554ddf10c2102b5b9830c337f17a89dae36edbc5763190b0c29306138ab656c6ec93d68bb2399025a5ec55bd45dea63349ad667c58f23f60c86fa8076e489ba2ea9af55801e837fe0bb3723fcfeca1205acfe5546bb85b8e240cde252c190864641025a1ac18de19dcc7a74112b950c4afc25cb2f3c4a829ef7c06e490eaffae1f673b605b48c8e62b508d0d10cebea15da0ecf598f4c60e24f8ef6b5a18e165564b5bb9ccaa9babc17a5eb43f523913e15c7733b79dc6700d2324db9a81eb37c97462d21af54a69f7e90139d79f0448bdd6f18cb549eede84968062a3e8800589017cc8424eb191127deeabc9458dc6d44cb6668e32766d1ab94aa8d5e6bb1bdb591c6383da6609b86f49a3d5041809e737b3cc9d2c2c2ce8fb944013903b28e88cd8408bd55a47bb8d06193bf22b63"
      ],
      "sequence": 4294967294
    }
  ],
  "vout": [
    {
      "value": 1.0,
      "n": 0,
      "scriptPubKey": {
        "asm": "OP_RETURN 5eeb6e082ffdb3f31dbb515fd04708a4f85dacf5de80675c8ac8bf51f5c07480 1f465a1f69afedec35ba22e4f9ec7b82ab8eda5515f6882cc772f021cd6e301b3f667a3f498fcdcc159a02c4d9cc5ba28baefa7535d6a80ce752d001ed4e103b5f061a5f29efadac75fa62a4b9ac3bc2ebce9a1555b6c86c8732b0618d2e705b7f263a7f09cf8d8c55da4284998c1be2cbeeba357596e84ca7129041ad0e507b9fc6da9fe92f6d6cb53aa264796cfb022b0e5ad5957608ac47f270a14deeb09bbfe6fabfc90f4d4c951a8244594cdb220b2e7af5b556288c67d250816dce90bbdf869adfa96f2d2cf57ae224392cbb426b4e1a95d53648ec07b230e10daef0dbffa6baff894f0d0cd55ac204190c9b624b6e3ab5f51668cc279210c12d8ed0fb1f465a1f69afedec35ba22e4f9ec7b82ab8eda5515f6882cc772f021cd6e301b3f667a3f498fcdcc159a02c4d9cc5ba28baefa7535d6a80ce752d001ed4e103b5f061a5f29efadac75fa62a4b9ac3bc2ebce9a1555b6c86c8732b0618d2e705b7f263a7f09cf8d8c55da4284998c1be2cbeeba357596e84ca7129041ad0e507b9fc6da9fe92f6d6cb53aa264796cfb022b0e5ad5957608ac47f270a14deeb09bbfe6fabfc90f4d4c951a8244594cdb220b2e7af5b556288c67d250816dce90bbdf869adfa96f2d2cf57ae224392cbb426b4e1a95d53648ec07b230e10daef0dbffa6baff894f0d0cd55ac204190c9b624b6e3ab5f51668cc279210c12d8ed0fb1f465a1f69afedec35ba22e4f9ec7b82ab8eda5515f6882cc772f021cd6e301b3f667a3f498fcdcc159a02c4d9cc5ba28baefa7535d6a80ce752d001ed4e103b5f061a5f29efadac75fa62a4b9ac3bc2ebce9a1555b6c86c8732b0618d2e705b7f263a7f09cf8d8c55da4284998c1be2cbeeba357596e84ca7129041ad0e507b9fc6da9fe92f6d6cb53aa264796cfb022b0e5ad5957608ac47f270a14deeb09bbfe6fabfc90f4d4c951a8244594cdb220b2e7af5b556288c67d250816dce90bbdf869adfa96f2d2cf57ae224392cbb426b4e1a95d53648ec07b230e10daef0dbffa6baff894f0d0cd55ac204190c9b624b6e3ab5f51668cc279210c12d8ed0fb1f465a1f69afedec35ba22e4f9ec7b82ab8eda5515f6882cc772f021cd6e301b3f667a3f498fcdcc159a02c4d9cc5ba28baefa7535d6a80ce752d001ed4e103b5f061a5f29efadac75fa62a4b9ac3bc2ebce9a1555b6c86c8732b0618d2e705b7f263a7f09cf8d8c55da4284998c1be2cbeeba357596e84ca7129041ad0e507b9fc6da9fe92f6d6cb53aa264796cfb022b0e5ad5957608ac47f270a14deeb09bbfe6fabfc90f4d4c951a8244594cdb220b2e7af5b556288c67d250816dce90bbdf869adfa96f2d2cf57ae224392cbb426b4e1a95d53648ec07b230e10daef0dbffa6baff894f0d0cd55ac204190c9b624b6e3ab5f51668cc279210c12d8ed0fb1f465a1f69afedec35ba22e4f9ec7b82ab8eda5515f6882cc772f021cd6e301b3f667a3f498fcdcc159a02c4d9cc5ba28baefa7535d6a80ce752d001ed4e103b5f061a5f29efadac75fa62a4b9ac3bc2ebce9a1555b6c86c8732b0618d2e705b7f263a7f09cf8d8c55da4284998c1be2cbeeba357596e84ca7129041ad0e507b9fc6da9fe92f6d6cb53aa264796cfb025d6da2f7d2b0c9b141fe84cf889a20e458d8eb2e1e076ef7ba18a6d3ed0419be",
        "hex": "6a205eeb6e082ffdb3f31dbb515fd04708a4f85dacf5de80675c8ac8bf51f5c074804db0041f465a1f69afedec35ba22e4f9ec7b82ab8eda5515f6882cc772f021cd6e301b3f667a3f498fcdcc159a02c4d9cc5ba28baefa7535d6a80ce752d001ed4e103b5f061a5f29efadac75fa62a4b9ac3bc2ebce9a1555b6c86c8732b0618d2e705b7f263a7f09cf8d8c55da4284998c1be2cbeeba357596e84ca7129041ad0e507b9fc6da9fe92f6d6cb53aa264796cfb022b0e5ad5957608ac47f270a14deeb09bbfe6fabfc90f4d4c951a8244594cdb220b2e7af5b556288c67d250816dce90bbdf869adfa96f2d2cf57ae224392cbb426b4e1a95d53648ec07b230e10daef0dbffa6baff894f0d0cd55ac204190c9b624b6e3ab5f51668cc279210c12d8ed0fb1f465a1f69afedec35ba22e4f9ec7b82ab8eda5515f6882cc772f021cd6e301b3f667a3f498fcdcc159a02c4d9cc5ba28baefa7535d6a80ce752d001ed4e103b5f061a5f29efadac75fa62a4b9ac3bc2ebce9a1555b6c86c8732b0618d2e705b7f263a7f09cf8d8c55da4284998c1be2cbeeba357596e84ca7129041ad0e507b9fc6da9fe92f6d6cb53aa264796cfb022b0e5ad5957608ac47f270a14deeb09bbfe6fabfc90f4d4c951a8244594cdb220b2e7af5b556288c67d250816dce90bbdf869adfa96f2d2cf57ae224392cbb426b4e1a95d53648ec07b230e10daef0dbffa6baff894f0d0cd55ac204190c9b624b6e3ab5f51668cc279210c12d8ed0fb1f465a1f69afedec35ba22e4f9ec7b82ab8eda5515f6882cc772f021cd6e301b3f667a3f498fcdcc159a02c4d9cc5ba28baefa7535d6a80ce752d001ed4e103b5f061a5f29efadac75fa62a4b9ac3bc2ebce9a1555b6c86c8732b0618d2e705b7f263a7f09cf8d8c55da4284998c1be2cbeeba357596e84ca7129041ad0e507b9fc6da9fe92f6d6cb53aa264796cfb022b0e5ad5957608ac47f270a14deeb09bbfe6fabfc90f4d4c951a8244594cdb220b2e7af5b556288c67d250816dce90bbdf869adfa96f2d2cf57ae224392cbb426b4e1a95d53648ec07b230e10daef0dbffa6baff894f0d0cd55ac204190c9b624b6e3ab5f51668cc279210c12d8ed0fb1f465a1f69afedec35ba22e4f9ec7b82ab8eda5515f6882cc772f021cd6e301b3f667a3f498fcdcc159a02c4d9cc5ba28baefa7535d6a80ce752d001ed4e103b5f061a5f29efadac75fa62a4b9ac3bc2ebce9a1555b6c86c8732b0618d2e705b7f263a7f09cf8d8c55da4284998c1be2cbeeba357596e84ca7129041ad0e507b9fc6da9fe92f6d6cb53aa264796cfb022b0e5ad5957608ac47f270a14deeb09bbfe6fabfc90f4d4c951a8244594cdb220b2e7af5b556288c67d250816dce90bbdf869adfa96f2d2cf57ae224392cbb426b4e1a95d53648ec07b230e10daef0dbffa6baff894f0d0cd55ac204190c9b624b6e3ab5f51668cc279210c12d8ed0fb1f465a1f69afedec35ba22e4f9ec7b82ab8eda5515f6882cc772f021cd6e301b3f667a3f498fcdcc159a02c4d9cc5ba28baefa7535d6a80ce752d001ed4e103b5f061a5f29efadac75fa62a4b9ac3bc2ebce9a1555b6c86c8732b0618d2e705b7f263a7f09cf8d8c55da4284998c1be2cbeeba357596e84ca7129041ad0e507b9fc6da9fe92f6d6cb53aa264796cfb025d6da2f7d2b0c9b141fe84cf889a20e458d8eb2e1e076ef7ba18a6d3ed0419be",
        "type": "nulldata"
      }
    },
    {
      "value": 499961.3578,
      "n": 1,
      "scriptPubKey": {
        "asm": "1 337ee069a35ce6ddba2b1b75fed48b4ae239e39628a7f8df2142ef47457699f2",
        "hex": "5120337ee069a35ce6ddba2b1b75fed48b4ae239e39628a7f8df2142ef47457699f2",
        "reqSigs": 1,
        "type": "witness_v1_scripthash",
        "addresses": [
          "3QJmnh"
        ]
      }
    }
  ],
  "blockhash": "e83fb8d8eae63b54f6b1b3d1fbcbee555d4e910f42cfd1b5d97cc48d92172bc4",
  "confirmations": 1,
  "time": 1764182633,
  "blocktime": 1764182633
}