{
  "hex": "010000000001012e64969f7e15881ce1e0a66e486698dccd8a273a9dd4b707baa593029815ff530000000000feffffff0200e1f50500000000fdd5046a20ac56457451dc1c696c37a77684e10a1473cb86b65bcb07710a1666e69ea1fb374db004476a414b591398b3253551f9812cbdfce3a17486c3f39a2d1c07d46a3305912c674a616b7933b893051571d9a10c9ddcc38154a6e3d3ba0d3c27f44a1325b10c072a010b1953d8f3657511b9c16cfdbca3e134c683b3da6d5c47942a7345d16c270a212b3973f8d345553199e14cdd9c83c114e6a393fa4d7c67b40a5365f14cc7eac1cbd9931833a5b5d17901ac3d7c6321f40643731aad9c8754eab38511ace7cae1ebf9b338138595f159218c1d5c4301d42663533a8dbca774ca93a5318c87aa818b99d35873e5f5913941ec7d3c2361b44603335aeddcc714aaf3c551eca78aa1abb9f37853c5d5b11961cc5d1c0341946623137acdfce7348ad3e571cc476a414b591398b3253551f9812cbdfce3a17486c3f39a2d1c07d46a3305912c674a616b7933b893051571d9a10c9ddcc38154a6e3d3ba0d3c27f44a1325b10c072a010b1953d8f3657511b9c16cfdbca3e134c683b3da6d5c47942a7345d16c270a212b3973f8d345553199e14cdd9c83c114e6a393fa4d7c67b40a5365f14cc7eac1cbd9931833a5b5d17901ac3d7c6321f40643731aad9c8754eab38511ace7cae1ebf9b338138595f159218c1d5c4301d42663533a8dbca774ca93a5318c87aa818b99d35873e5f5913941ec7d3c2361b44603335aeddcc714aaf3c551eca78aa1abb9f37853c5d5b11961cc5d1c0341946623137acdfce7348ad3e571cc476a414b591398b3253551f9812cbdfce3a17486c3f39a2d1c07d46a3305912c674a616b7933b893051571d9a10c9ddcc38154a6e3d3ba0d3c27f44a1325b10c072a010b1953d8f3657511b9c16cfdbca3e134c683b3da6d5c47942a7345d16c270a212b3973f8d345553199e14cdd9c83c114e6a393fa4d7c67b40a5365f14cc7eac1cbd9931833a5b5d17901ac3d7c6321f40643731aad9c8754eab38511ace7cae1ebf9b338138595f159218c1d5c4301d42663533a8dbca774ca93a5318c87aa818b99d35873e5f5913941ec7d3c2361b44603335aeddcc714aaf3c551eca78aa1abb9f37853c5d5b11961cc5d1c0341946623137acdfce7348ad3e571cc476a414b591398b3253551f9812cbdfce3a17486c3f39a2d1c07d46a3305912c674a616b7933b893051571d9a10c9ddcc38154a6e3d3ba0d3c27f44a1325b10c072a010b1953d8f3657511b9c16cfdbca3e134c683b3da6d5c47942a7345d16c270a212b3973f8d345553199e14cdd9c83c114e6a393fa4d7c67b40a5365f14cc7eac1cbd9931833a5b5d17901ac3d7c6321f40643731aad9c8754eab38511ace7cae1ebf9b338138595f159218c1d5c4301d42663533a8dbca774ca93a5318c87aa818b99d35873e5f5913941ec7d3c2361b44603335aeddcc714aaf3c551eca78aa1abb9f37853c5d5b11961cc5d1c0341946623137acdfce7348ad3e571cc476a414b591398b3253551f9812cbdfce3a17486c3f39a2d1c07d46a3305912c674a616b7933b893051571d9a10c9ddcc38154a6e3d3ba0d3c27f44a1325b10c072a010b1953d8f3657511b9c16cfdbca3e134c683b3da6d5c47942a7345d16c270a212b3973f8d345553199e14cdd9c83c114e6a393fa4d7c67b40a5365f14cc7eac1cbd9931833a5b5d17901ac3d7c996a7f4ae68e7929d6cd0285a9466515310cd6b8c8b5608d01931a455b8ceef11024da9b782d000022512007023b0312fb8d54756b7520e07f5fbbf8d7390e538fa95271f6872b453832fc02fd7509b37d2048b9edc52d111bf6891cccebddcb69a529ca735b522b70211e191143bc66665f8079cf175728de31700348e26315da68209b23e5df0bbaa04287f631c51bfec5371223fab26c7a9433c2acc6dfc71d79d78c5271ab39340097ebdc7fbe215053dd1b9c5c7a5d908ebc1048ccab9b141b2a13af4b27332e6afa145ef48711f7a079f04f59ff9b010c2d5d3049a9136b8dccaa56c8de5941440a1bcbfeab65498789f3f0764a92be18905675d45117685c75cd05c8500b321e680aaa1b25b3bc7beb3cf9568b61842dfab004e221a0d136849e7fa14fe96116f6804f37d054d9d74be00f7af23ac244bc396ea4ae238ee4aa2a2c6498865dadf43845db3c43acca1934809cccc8ce435dde04c6ef181c085809b3155f3322912317147f1581d0d6c45df2295d9632b8813fa74561dfeea8054c45c783b08cae46d54fcc534cb742aea337e467cacf099861f156974d9343ad763c00e56451cd5c2a9538e84bbecf0a798d0e829880969bffad0caf21237997cac7f4f41ebf4acb3547aec03b474b5c4171c47c81fd58d145bae115f8df3434a188a090ce2802706370917aa1fc026e02ec7e2e3fbae8d238c207a1627a2df3f4027880b4801487c8cb5c8ec0967ba94753f5b0d9d8b65ead56369163225f6b897abf0475c4fc9bf9af5f56bd33641eeb2083240d5a9ad6a7834c195c82b91e1baa2aea4cfc8867ed8e091453db2155c2128919437af88bc787144e2f2219a45e70d9f24a6f4187eb906fe4b0d4b9cd908eb4e160e242e19aa99f3e2e61349da10b0ca28e970025337c7267384f450bb9bc9635ee527889f1fe8c11d982d5667d4202877bb8c59ce9455e1128be62b7c8008a0b8d9fcc6594a0a6256a819028553fa7017a5cffeec4793bbae852d1fd149fbab28399bcf0a62ff7a3f03120d107764f04072e7138eb65527e3b65976b2b1dc119cbe1275e30b3984ec3a312172398646391c56752d5841e0b0bd18374c515d9501d1ca9a423d07b70a6cf706829082076831a8f353a778b2a640063b249e4beeaa283e180b8d386a5d21112d4fdea1dbc637aae4729e900b775a1bc9ab6f0b6693e60c9acfd8ae78d169268bf8c71d5b95567d58bea5df3ee9d34e86b107e8adfe6bd88ca4e514f9c71430ed22f736ee7f9f2c3ea6fe9df430ec62c59fb139b4866f48277992ab0bd692fcc57b00706f2400238e6676b29192945b9ec4576a7a15d4541ef6f7f1c9456cc4e25c8927d9174cb5b458904591013b9ce57698ad4906d18492d2429fdca5b9dff1fe92283696a161ea294408af61761058f8155272a5d8444c6cae9c7473df6df53cc53d3eb2150629b0315409664840ae870fb2bad444a13c854ec74784f25c6b861f00925ff22dec0d907673517ebabf6d7a766f7ce0dfff8dfd0199a4ce77b3ee25a1bab4a7b9f3d7ab2e6cd5093766b21f1314370eaa1eec38db536c3922b934790dd96b8cbd4da1b0b0bcdbdb712484a20c1e7b5e9a090bd601a6e3f6cf628dd97e02aa6d5943178cb9fa3a9c4d8a7e8e9a588577a51f17220e4942db9973826ef81a3505de72af23ba150ed37e92c106eee835d981dc972fb3baa5d0e8e5dbd3f8eb14bea1290f1ea832fa762a48f7f9f1e1e50557cd1178fb3a765fc4fd00a06b2ef99fb5e08c66d18665752f1efe8a942915db0e5711e6d61900706053d8fc482e37546be7a59e621996ac887f6a2166bb3b0bfec9d968ee1e4e791bab64580ec9fb49ce77c1e7fce6f1b210e8a4ab9baf73b24da8d7688d0ebd23ff651b2516fba1fcf0aa2892456e6a6df9bbf1ce0487b6ae95b8783343c9cf1faef4122694851bb11c97f971a1dd698400ed241f8ecf07927b9e9ef87f1b9fa7e6e1a5de9c0585885358bc10a2e332bee021ee862742f8b12f05507f2538332730df8e87c8c447dd0a0e5978a12c8a321a6e23c014e93d6d02ddf5b90144d7a7835d27d3c86df8c4750c0cfaebe94eedfdbfa980f1981f6997d05c0469861e7307918a4ca771a2e126c69cd64d5dfa2071e2181ad5d5e06cc1cbb464b1d9aae5594855104c1583d2e7fda23610bd7a5c0bb1326591800f516d862365142bac8e24c9d095d6bad71988a4c5ee0ab3f1cb316eb29450efc9d35663cf7f3ddd46e5f0dad2a7ce27322d79e29e3fb51b5e6c8efc3896da1089b04850892e37a358fc91351438a93ef13ae451b38ac978e77146962f8177751d407d06c3111727ea5c058def9e0935e21dab73cb7bad99350213e34be2fc1e95f19f6f45267a35db790ecd7ec74824ea351382df0e7470f2dd622d5fad2b3ee074af61f8442d9d4b058c79de0fdf3abb54e057af2f9be974e2a4630c2781d967a98e12655653062750901d1c51426c51361dff4d84e00d061aaae22ab64db158d40c926b73f93e4b145bd752c78be50b799281768c89e11afaea7642c5368665f92b6fd732edd38c19438a1c501f03db78ea5dfcbaad92314e42c2492e606a7b48325a38595d62dc77464afd46058a9e0ea9e8202094391b3459007941069443eea74ae2d151f8a4d0bad29da44c4f505186a790c0eac44ebf74224197d917c87cef935d261d02546d0588ff5ba717c9be3ee665abde3e5f5e3855cf7441541d51fa06c0cb97a1cc7ca8a47054effbc0239d52a4dd3d3ad766ac0b185f72becfd9c6f70efb3bfb4c1bc0874141bb27d7abd442742d5c28fa2575ff5c7ed2e404d49c3eb49f3a5a5ff75fe0172db819e050dec8be1ae020881377a965c76e9a76b101839ee31ef35781318fa6f59e647a6d814b3c70c1f5c295069e1a0627a1c049aea041420f63fcc6948c4fb3543c30d0dfc68a9e5824b1bed026f9548859ad67b3e61e90f85d66c522f9ecd03d74521d76a5988d4ff866386289d644f4b60e7f9de920b60311547c1b34c53c7b5e0f482dfd38550df99c18790e1803ff8a64deeebdcc947e304c8cd64635a8f7de19316c37e570d45f4bd8022c4a63a9f0cfde97e337e6c1949a94172caf2e05c3606b15e0d346708505ef6edf48751046d580eae170933e7e077a0232e2def2e36918dbfa1f6d34e286c3a571f32e2817c755e2d0a9128a4161870654cc43706488458e385361b8e21e5eb51fb0f94e67e1e1835b1844daa0118e8e89b776f37448e28de41055c64b2c938d6adc771361bfae2ea07bcf8475e81533531a6b568cf3f21ad9e9b6c98379072c845c7c3244c7c59ed0bb367af1fffe891db61aff3f49d520f6dee7dc05999c2c9d1e0b88d0fd8497a1a81b0fd0afca25340fb7eb6d4a09f399c491bb50f245c72aec0dae6e8ebf3fe052d4453586572768a8bb6bcc7ccdb16223240516373749dadb4e3f4ff050f242a2d2f37638b99a7b4bac1c2ced2ecedf900000000000000000000000000000000000000000b1a283c01fd210500705c5c75851169e887b836cbb5950a65fad53ad47663e8d9a2ba31e86758b7a5fe8e3bcf31deb9cfa2ca35ee45967c181c56232c5f891c2d5562919afed80519a4a936474e6beaf8cae99182228bebaa98822b94d4c103615eeb11848e18c433559573e7ee73a45618eb4d7afb1375f0be98910580ecae5e85661417bdc6020ed0376079bccb47f9786d4ef538b0ed002a221c5fa5ec25ea146af1b7ed40995c5bd3a29c8dc89499e39a58981752c14a5905f515ac577efd221f70c34da3e5b5b4338a04b177472b68e3233090dc45092f310c7d9ee79c41c09b64a52a71d7bcbb58e7f807dc72f2a7df492646273bc5215b1e42d5405cee130507e2a6d2fb8af288205b87c99c688d1c4ed8c4513d94d7d7338ea65d9ac63f49d794655237c15121a6e28bd9b0c2c8afe58dc2967e938db3f2f9a4f6b337cf5c9e7f63b2e41e9027e71b0d692515d7743faf3af9874afb6857c1e5d68e1c9695cd5aef6aa2dd953d3792a0db158002944434c8c54720048c0599e5caa555555680c988f6ad6ff284ce76212000ebbc2553e9a6b1f3b4e2e19d8c7ae9df09a83bfd0052df6bb3ed0d6de65d24dbcf583efed0c61214449a151cdab6e3077708aeac19e2452ab5d68cbb554c7f4d0a02da4a8be32eeadde3e409a9d6dfd2012012cdb916e826d9ec95be7aa41681acda17bf16ae12f882531311c2185a38a803214bc4dec6a045a7db7ef39889694955b85d9af3edfe0487de9dd1a300cebade6f941875b43703d371fd0d2d60943a3d608632817f3fcb70ff101159d4ac087c33fca8a7e2cf4c8a994d096a62ca6d3e5ef342650c8672f07b9eba355e8e5d5fb5694c0fde8abacc5dfd6667dfa1cb56f33a6ca285fbe37f1d725c131784b8f414cccecc08a6c1bde8c6a048185d71649ffd1c35d76b81eaf73b4f2ffa1ceb2c3bd362cd11a49a39d4d081073c609d6f521d5c7937d9448b7564e713033c3f8c35ca29899b2ba0a2e3258d45e07a9465be048909b224ff44bc12cb6441307124d8d4a37572e90ba43c3b49dcd4d312055d2b5485c78950fc27962dd4d0e912851ee71a2d2f31e5940c21d78598cd3d4ef87b114652d68090dd04b1047d73a0dd36c59e172aeb1fceeecb9a29f310b4fa3ff3d32b39019eb3e7be51ae418602c77af848b160fc6ff086f5553a3aada89b93439a14dfa3c772d9618b63f0d472771d7a271998f371f5a54d2118aae551ba5e3c67f798f23253c51a934d435beaf538938fa73abd2008426c68e604c4aae012f54612003377843f08bdff65d73813a24c2e29ca4cf8dec087bfb5403a09f9e7cac33694bbb8e7e36aaf3f59744daf4763cf4aa20927e1c8f743fd04353e005a3b20027c190c470f5dc12c6a0c0995d382b99ccd0513407192b794021f1f5a57aa79c614671efa1b082ab0a9c5f759f2fae081802a273e77bd61a50c6fdaa749def2743025f6d33beb425f251e3b80089475044b2f412cedd4a61bf3b452935e762b7337fad3cba0a4e1335e9605a324251b2bcc86e118136a61c327b4bc56a8ff596862a04f772b050a68280bc812b692eadebcd1b77a5e87a39147a87af9a0f3a3f21c6c995a8733391c7fcf79a79a9ce945bc6182a9fdbb91be0d989c9ac37c94c5609a5cb7739e09d30d08dcd864970fc7eb120246ff2021342ec4338c1357a940d2e669dd2c87eb32a1ef5ede7fa44c1648f3b1fd57005345ebac0834c40c48a75a47f29be23967f66b909651d3416d9c5780bd28dd9c99c0af0b27d9da0e3b059ac803a491d6fd7f2858bb6d9a4f4d6b9a7556d99f1fdb2ba2f3b02fbe08a54b4dc7e327a5b89f451d23632ea7cbd5bbd367e08b000000",
  "txid": "ccdb7221b1ff7aff940f96ee8e6b2615eed7625fa0307b37d57556f9956eed54",
  "hash": "169aecdf5cb72ea05001747b04be2c455386d379403cf27a5a7ab3cbd0e9d3fe",
  "size": 5085,
  "vsize": 2278,
  "version": 1,
  "locktime": 139,
  "vin": [
    {
      "txid": "53ff15980293a5ba07b7d49d3a278acddc9866486ea6e0e11c88157e9f96642e",
      "vout": 0,
      "scriptSig": {
        "asm": "",
        "hex": ""
      },
      "txinwitness": [
        "b37d2048b9edc52d111bf6891cccebddcb69a529ca735b522b70211e191143bc66665f8079cf175728de31700348e26315da68209b23e5df0bbaa04287f631c51bfec5371223fab26c7a9433c2acc6dfc71d79d78c5271ab39340097ebdc7fbe215053dd1b9c5c7a5d908ebc1048ccab9b141b2a13af4b27332e6afa145ef48711f7a079f04f59ff9b010c2d5d3049a9136b8dccaa56c8de5941440a1bcbfeab65498789f3f0764a92be18905675d45117685c75cd05c8500b321e680aaa1b25b3bc7beb3cf9568b61842dfab004e221a0d136849e7fa14fe96116f6804f37d054d9d74be00f7af23ac244bc396ea4ae238ee4aa2a2c6498865dadf43845db3c43acca1934809cccc8ce435dde04c6ef181c085809b3155f3322912317147f1581d0d6c45df2295d9632b8813fa74561dfeea8054c45c783b08cae46d54fcc534cb742aea337e467cacf099861f156974d9343ad763c00e56451cd5c2a9538e84bbecf0a798d0e829880969bffad0caf21237997cac7f4f41ebf4acb3547aec03b474b5c4171c47c81fd58d145bae115f8df3434a188a090ce2802706370917aa1fc026e02ec7e2e3fbae8d238c207a1627a2df3f4027880b4801487c8cb5c8ec0967ba94753f5b0d9d8b65ead56369163225f6b897abf0475c4fc9bf9af5f56bd33641eeb2083240d5a9ad6a7834c195c82b91e1baa2aea4cfc8867ed8e091453db2155c2128919437af88bc787144e2f2219a45e70d9f24a6f4187eb906fe4b0d4b9cd908eb4e160e242e19aa99f3e2e61349da10b0ca28e970025337c7267384f450bb9bc9635ee527889f1fe8c11d982d5667d4202877bb8c59ce9455e1128be62b7c8008a0b8d9fcc6594a0a6256a819028553fa7017a5cffeec4793bbae852d1fd149fbab28399bcf0a62ff7a3f03120d107764f04072e7138eb65527e3b65976b2b1dc119cbe1275e30b3984ec3a312172398646391c56752d5841e0b0bd18374c515d9501d1ca9a423d07b70a6cf706829082076831a8f353a778b2a640063b249e4beeaa283e180b8d386a5d21112d4fdea1dbc637aae4729e900b775a1bc9ab6f0b6693e60c9acfd8ae78d169268bf8c71d5b95567d58bea5df3ee9d34e86b107e8adfe6bd88ca4e514f9c71430ed22f736ee7f9f2c3ea6fe9df430ec62c59fb139b4866f48277992ab0bd692fcc57b00706f2400238e6676b29192945b9ec4576a7a15d4541ef6f7f1c9456cc4e25c8927d9174cb5b458904591013b9ce57698ad4906d18492d2429fdca5b9dff1fe92283696a161ea294408af61761058f8155272a5d8444c6cae9c7473df6df53cc53d3eb2150629b0315409664840ae870fb2bad444a13c854ec74784f25c6b861f00925ff22dec0d907673517ebabf6d7a766f7ce0dfff8dfd0199a4ce77b3ee25a1bab4a7b9f3d7ab2e6cd5093766b21f1314370eaa1eec38db536c3922b934790dd96b8cbd4da1b0b0bcdbdb712484a20c1e7b5e9a090bd601a6e3f6cf628dd97e02aa6d5943178cb9fa3a9c4d8a7e8e9a588577a51f17220e4942db9973826ef81a3505de72af23ba150ed37e92c106eee835d981dc972fb3baa5d0e8e5dbd3f8eb14bea1290f1ea832fa762a48f7f9f1e1e50557cd1178fb3a765fc4fd00a06b2ef99fb5e08c66d18665752f1efe8a942915db0e5711e6d61900706053d8fc482e37546be7a59e621996ac887f6a2166bb3b0bfec9d968ee1e4e791bab64580ec9fb49ce77c1e7fce6f1b210e8a4ab9baf73b24da8d7688d0ebd23ff651b2516fba1fcf0aa2892456e6a6df9bbf1ce0487b6ae95b8783343c9cf1faef4122694851bb11c97f971a1dd698400ed241f8ecf07927b9e9ef87f1b9fa7e6e1a5de9c0585885358bc10a2e332bee021ee862742f8b12f05507f2538332730df8e87c8c447dd0a0e5978a12c8a321a6e23c014e93d6d02ddf5b90144d7a7835d27d3c86df8c4750c0cfaebe94eedfdbfa980f1981f6997d05c0469861e7307918a4ca771a2e126c69cd64d5dfa2071e2181ad5d5e06cc1cbb464b1d9aae5594855104c1583d2e7fda23610bd7a5c0bb1326591800f516d862365142bac8e24c9d095d6bad71988a4c5ee0ab3f1cb316eb29450efc9d35663cf7f3ddd46e5f0dad2a7ce27322d79e29e3fb51b5e6c8efc3896da1089b04850892e37a358fc91351438a93ef13ae451b38ac978e77146962f8177751d407d06c3111727ea5c058def9e0935e21dab73cb7bad99350213e34be2fc1e95f19f6f45267a35db790ecd7ec74824ea351382df0e7470f2dd622d5fad2b3ee074af61f8442d9d4b058c79de0fdf3abb54e057af2f9be974e2a4630c2781d967a98e12655653062750901d1c51426c51361dff4d84e00d061aaae22ab64db158d40c926b73f93e4b145bd752c78be50b799281768c89e11afaea7642c5368665f92b6fd732edd38c19438a1c501f03db78ea5dfcbaad92314e42c2492e606a7b48325a38595d62dc77464afd46058a9e0ea9e8202094391b3459007941069443eea74ae2d151f8a4d0bad29da44c4f505186a790c0eac44ebf74224197d917c87cef935d261d02546d0588ff5ba717c9be3ee665abde3e5f5e3855cf7441541d51fa06c0cb97a1cc7ca8a47054effbc0239d52a4dd3d3ad766ac0b185f72becfd9c6f70efb3bfb4c1bc0874141bb27d7abd442742d5c28fa2575ff5c7ed2e404d49c3eb49f3a5a5ff75fe0172db819e050dec8be1ae020881377a965c76e9a76b101839ee31ef35781318fa6f59e647a6d814b3c70c1f5c295069e1a0627a1c049aea041420f63fcc6948c4fb3543c30d0dfc68a9e5824b1bed026f9548859ad67b3e61e90f85d66c522f9ecd03d74521d76a5988d4ff866386289d644f4b60e7f9de920b60311547c1b34c53c7b5e0f482dfd38550df99c18790e1803ff8a64deeebdcc947e304c8cd64635a8f7de19316c37e570d45f4bd8022c4a63a9f0cfde97e337e6c1949a94172caf2e05c3606b15e0d346708505ef6edf48751046d580eae170933e7e077a0232e2def2e36918dbfa1f6d34e286c3a571f32e2817c755e2d0a9128a4161870654cc43706488458e385361b8e21e5eb51fb0f94e67e1e1835b1844daa0118e8e89b776f37448e28de41055c64b2c938d6adc771361bfae2ea07bcf8475e81533531a6b568cf3f21ad9e9b6c98379072c845c7c3244c7c59ed0bb367af1fffe891db61aff3f49d520f6dee7dc05999c2c9d1e0b88d0fd8497a1a81b0fd0afca25340fb7eb6d4a09f399c491bb50f245c72aec0dae6e8ebf3fe052d4453586572768a8bb6bcc7ccdb16223240516373749dadb4e3f4ff050f242a2d2f37638b99a7b4bac1c2ced2ecedf900000000000000000000000000000000000000000b1a283c01",
        "00705c5c75851169e887b836cbb5950a65fad53ad47663e8d9a2ba31e86758b7a5fe8e3bcf31deb9cfa2ca35ee45967c181c56232c5f891c2d5562919afed80519a4a936474e6beaf8cae99182228bebaa98822b94d4c103615eeb11848e18c433559573e7ee73a45618eb4d7afb1375f0be98910580ecae5e85661417bdc6020ed0376079bccb47f9786d4ef538b0ed002a221c5fa5ec25ea146af1b7ed40995c5bd3a29c8dc89499e39a58981752c14a5905f515ac577efd221f70c34da3e5b5b4338a04b177472b68e3233090dc45092f310c7d9ee79c41c09b64a52a71d7bcbb58e7f807dc72f2a7df492646273bc5215b1e42d5405cee130507e2a6d2fb8af288205b87c99c688d1c4ed8c4513d94d7d7338ea65d9ac63f49d794655237c15121a6e28bd9b0c2c8afe58dc2967e938db3f2f9a4f6b337cf5c9e7f63b2e41e9027e71b0d692515d7743faf3af9874afb6857c1e5d68e1c9695cd5aef6aa2dd953d3792a0db158002944434c8c54720048c0599e5caa555555680c988f6ad6ff284ce76212000ebbc2553e9a6b1f3b4e2e19d8c7ae9df09a83bfd0052df6bb3ed0d6de65d24dbcf583efed0c61214449a151cdab6e3077708aeac19e2452ab5d68cbb554c7f4d0a02da4a8be32eeadde3e409a9d6dfd2012012cdb916e826d9ec95be7aa41681acda17bf16ae12f882531311c2185a38a803214bc4dec6a045a7db7ef39889694955b85d9af3edfe0487de9dd1a300cebade6f941875b43703d371fd0d2d60943a3d608632817f3fcb70ff101159d4ac087c33fca8a7e2cf4c8a994d096a62ca6d3e5ef342650c8672f07b9eba355e8e5d5fb5694c0fde8abacc5dfd6667dfa1cb56f33a6ca285fbe37f1d725c131784b8f414cccecc08a6c1bde8c6a048185d71649ffd1c35d76b81eaf73b4f2ffa1ceb2c3bd362cd11a49a39d4d081073c609d6f521d5c7937d9448b7564e713033c3f8c35ca29899b2ba0a2e3258d45e07a9465be048909b224ff44bc12cb6441307124d8d4a37572e90ba43c3b49dcd4d312055d2b5485c78950fc27962dd4d0e912851ee71a2d2f31e5940c21d78598cd3d4ef87b114652d68090dd04b1047d73a0dd36c59e172aeb1fceeecb9a29f310b4fa3ff3d32b39019eb3e7be51ae418602c77af848b160fc6ff086f5553a3aada89b93439a14dfa3c772d9618b63f0d472771d7a271998f371f5a54d2118aae551ba5e3c67f798f23253c51a934d435beaf538938fa73abd2008426c68e604c4aae012f54612003377843f08bdff65d73813a24c2e29ca4cf8dec087bfb5403a09f9e7cac33694bbb8e7e36aaf3f59744daf4763cf4aa20927e1c8f743fd04353e005a3b20027c190c470f5dc12c6a0c0995d382b99ccd0513407192b794021f1f5a57aa79c614671efa1b082ab0a9c5f759f2fae081802a273e77bd61a50c6fdaa749def2743025f6d33beb425f251e3b80089475044b2f412cedd4a61bf3b452935e762b7337fad3cba0a4e1335e9605a324251b2bcc86e118136a61c327b4bc56a8ff596862a04f772b050a68280bc812b692eadebcd1b77a5e87a39147a87af9a0f3a3f21c6c995a8733391c7fcf79a79a9ce945bc6182a9fdbb91be0d989c9ac37c94c5609a5cb7739e09d30d08dcd864970fc7eb120246ff2021342ec4338c1357a940d2e669dd2c87eb32a1ef5ede7fa44c1648f3b1fd57005345ebac0834c40c48a75a47f29be23967f66b909651d3416d9c5780bd28dd9c99c0af0b27d9da0e3b059ac803a491d6fd7f2858bb6d9a4f4d6b9a7556d99f1fdb2ba2f3b02fbe08a54b4dc7e327a5b89f451d23632ea7cbd5bbd367e0"
      ],
      "sequence": 4294967294
    }
  ],
  "vout": [
    {
      "value": 1.0,
      "n": 0,
      "scriptPubKey": {
        "asm": "OP_RETURN ac56457451dc1c696c37a77684e10a1473cb86b65bcb07710a1666e69ea1fb37 476a414b591398b3253551f9812cbdfce3a17486c3f39a2d1c07d46a3305912c674a616b7933b893051571d9a10c9ddcc38154a6e3d3ba0d3c27f44a1325b10c072a010b1953d8f3657511b9c16cfdbca3e134c683b3da6d5c47942a7345d16c270a212b3973f8d345553199e14cdd9c83c114e6a393fa4d7c67b40a5365f14cc7eac1cbd9931833a5b5d17901ac3d7c6321f40643731aad9c8754eab38511ace7cae1ebf9b338138595f159218c1d5c4301d42663533a8dbca774ca93a5318c87aa818b99d35873e5f5913941ec7d3c2361b44603335aeddcc714aaf3c551eca78aa1abb9f37853c5d5b11961cc5d1c0341946623137acdfce7348ad3e571cc476a414b591398b3253551f9812cbdfce3a17486c3f39a2d1c07d46a3305912c674a616b7933b893051571d9a10c9ddcc38154a6e3d3ba0d3c27f44a1325b10c072a010b1953d8f3657511b9c16cfdbca3e134c683b3da6d5c47942a7345d16c270a212b3973f8d345553199e14cdd9c83c114e6a393fa4d7c67b40a5365f14cc7eac1cbd9931833a5b5d17901ac3d7c6321f40643731aad9c8754eab38511ace7cae1ebf9b338138595f159218c1d5c4301d42663533a8dbca774ca93a5318c87aa818b99d35873e5f5913941ec7d3c2361b44603335aeddcc714aaf3c551eca78aa1abb9f37853c5d5b11961cc5d1c0341946623137acdfce7348ad3e571cc476a414b591398b3253551f9812cbdfce3a17486c3f39a2d1c07d46a3305912c674a616b7933b893051571d9a10c9ddcc38154a6e3d3ba0d3c27f44a1325b10c072a010b1953d8f3657511b9c16cfdbca3e134c683b3da6d5c47942a7345d16c270a212b3973f8d345553199e14cdd9c83c114e6a393fa4d7c67b40a5365f14cc7eac1cbd9931833a5b5d17901ac3d7c6321f40643731aad9c8754eab38511ace7cae1ebf9b338138595f159218c1d5c4301d42663533a8dbca774ca93a5318c87aa818b99d35873e5f5913941ec7d3c2361b44603335aeddcc714aaf3c551eca78aa1abb9f37853c5d5b11961cc5d1c0341946623137acdfce7348ad3e571cc476a414b591398b3253551f9812cbdfce3a17486c3f39a2d1c07d46a3305912c674a616b7933b893051571d9a10c9ddcc38154a6e3d3ba0d3c27f44a1325b10c072a010b1953d8f3657511b9c16cfdbca3e134c683b3da6d5c47942a7345d16c270a212b3973f8d345553199e14cdd9c83c114e6a393fa4d7c67b40a5365f14cc7eac1cbd9931833a5b5d17901ac3d7c6321f40643731aad9c8754eab38511ace7cae1ebf9b338138595f159218c1d5c4301d42663533a8dbca774ca93a5318c87aa818b99d35873e5f5913941ec7d3c2361b44603335aeddcc714aaf3c551eca78aa1abb9f37853c5d5b11961cc5d1c0341946623137acdfce7348ad3e571cc476a414b591398b3253551f9812cbdfce3a17486c3f39a2d1c07d46a3305912c674a616b7933b893051571d9a10c9ddcc38154a6e3d3ba0d3c27f44a1325b10c072a010b1953d8f3657511b9c16cfdbca3e134c683b3da6d5c47942a7345d16c270a212b3973f8d345553199e14cdd9c83c114e6a393fa4d7c67b40a5365f14cc7eac1cbd9931833a5b5d17901ac3d7c996a7f4ae68e7929d6cd0285a9466515310cd6b8c8b5608d01931a455b8ceef1",
        "hex": "6a20ac56457451dc1c696c37a77684e10a1473cb86b65bcb07710a1666e69ea1fb374db004476a414b591398b3253551f9812cbdfce3a17486c3f39a2d1c07d46a3305912c674a616b7933b893051571d9a10c9ddcc38154a6e3d3ba0d3c27f44a1325b10c072a010b1953d8f3657511b9c16cfdbca3e134c683b3da6d5c47942a7345d16c270a212b3973f8d345553199e14cdd9c83c114e6a393fa4d7c67b40a5365f14cc7eac1cbd9931833a5b5d17901ac3d7c6321f40643731aad9c8754eab38511ace7cae1ebf9b338138595f159218c1d5c4301d42663533a8dbca774ca93a5318c87aa818b99d35873e5f5913941ec7d3c2361b44603335aeddcc714aaf3c551eca78aa1abb9f37853c5d5b11961cc5d1c0341946623137acdfce7348ad3e571cc476a414b591398b3253551f9812cbdfce3a17486c3f39a2d1c07d46a3305912c674a616b7933b893051571d9a10c9ddcc38154a6e3d3ba0d3c27f44a1325b10c072a010b1953d8f3657511b9c16cfdbca3e134c683b3da6d5c47942a7345d16c270a212b3973f8d345553199e14cdd9c83c114e6a393fa4d7c67b40a5365f14cc7eac1cbd9931833a5b5d17901ac3d7c6321f40643731aad9c8754eab38511ace7cae1ebf9b338138595f159218c1d5c4301d42663533a8dbca774ca93a5318c87aa818b99d35873e5f5913941ec7d3c2361b44603335aeddcc714aaf3c551eca78aa1abb9f37853c5d5b11961cc5d1c0341946623137acdfce7348ad3e571cc476a414b591398b3253551f9812cbdfce3a17486c3f39a2d1c07d46a3305912c674a616b7933b893051571d9a10c9ddcc38154a6e3d3ba0d3c27f44a1325b10c072a010b1953d8f3657511b9c16cfdbca3e134c683b3da6d5c47942a7345d16c270a212b3973f8d345553199e14cdd9c83c114e6a393fa4d7c67b40a5365f14cc7eac1cbd9931833a5b5d17901ac3d7c6321f40643731aad9c8754eab38511ace7cae1ebf9b338138595f159218c1d5c4301d42663533a8dbca774ca93a5318c87aa818b99d35873e5f5913941ec7d3c2361b44603335aeddcc714aaf3c551eca78aa1abb9f37853c5d5b11961cc5d1c0341946623137acdfce7348ad3e571cc476a414b591398b3253551f9812cbdfce3a17486c3f39a2d1c07d46a3305912c674a616b7933b893051571d9a10c9ddcc38154a6e3d3ba0d3c27f44a1325b10c072a010b1953d8f3657511b9c16cfdbca3e134c683b3da6d5c47942a7345d16c270a212b3973f8d345553199e14cdd9c83c114e6a393fa4d7c67b40a5365f14cc7eac1cbd9931833a5b5d17901ac3d7c6321f40643731aad9c8754eab38511ace7cae1ebf9b338138595f159218c1d5c4301d42663533a8dbca774ca93a5318c87aa818b99d35873e5f5913941ec7d3c2361b44603335aeddcc714aaf3c551eca78aa1abb9f37853c5d5b11961cc5d1c0341946623137acdfce7348ad3e571cc476a414b591398b3253551f9812cbdfce3a17486c3f39a2d1c07d46a3305912c674a616b7933b893051571d9a10c9ddcc38154a6e3d3ba0d3c27f44a1325b10c072a010b1953d8f3657511b9c16cfdbca3e134c683b3da6d5c47942a7345d16c270a212b3973f8d345553199e14cdd9c83c114e6a393fa4d7c67b40a5365f14cc7eac1cbd9931833a5b5d17901ac3d7c996a7f4ae68e7929d6cd0285a9466515310cd6b8c8b5608d01931a455b8ceef1",
        "type": "nulldata"
      }
    },
    {
      "value": 499960.3409,
      "n": 1,
      "scriptPubKey": {
        "asm": "1 07023b0312fb8d54756b7520e07f5fbbf8d7390e538fa95271f6872b453832fc",
        "hex": "512007023b0312fb8d54756b7520e07f5fbbf8d7390e538fa95271f6872b453832fc",
        "reqSigs": 1,
        "type": "witness_v1_scripthash",
        "addresses": [
          "3QJmnh"
        ]
      }
    }
  ],
  "blockhash": "fe774b47c0e88c04e0fb50de4979690042b0828e482e852985a1cce393f947a2",
  "confirmations": 1,
  "time": 1764183806,
  "blocktime": 1764183806
}