{
  "hex": "0100000000010176141b9d39a626a50bf89c23865d76b7770b3ec5c5536c0b47a33fdc1a394aa70000000000feffffff0200e1f50500000000fdd5046a200f23ecf703ae444fecebce51a3715a94c73ca5a09dc83560273e8267df8b10684db00470c03c151c360af7d573c73d6eeee7d27882158c2f3288c0f6abf99396e2930f50e01c353c162ad7f553e71d4ecec7f258a235ac0f12a8e0d68bd9b3b6c2b32f30807c555c764ab79533877d2eaea79238c255cc6f72c880b6ebb9d3d6a2d34f10a05c757c566a97b513a75d0e8e87b218e275ec4f52e8a096cb99f3f682f36ff040bc959cb68a7755f347bdee6e6752f802950cafb20840762b79131662138fd0609cb5bc96aa5775d3679dce4e4772d822b52c8f922860560b5933364233afb000fcd5dcf6ca3715b307fdae2e2712b842d54ceff24800366b3953562253cf9020dcf5fcd6ea17359327dd8e0e07329862f56ccfd26820164b1973760273ef70c03c151c360af7d573c73d6eeee7d27882158c2f3288c0f6abf99396e2930f50e01c353c162ad7f553e71d4ecec7f258a235ac0f12a8e0d68bd9b3b6c2b32f30807c555c764ab79533877d2eaea79238c255cc6f72c880b6ebb9d3d6a2d34f10a05c757c566a97b513a75d0e8e87b218e275ec4f52e8a096cb99f3f682f36ff040bc959cb68a7755f347bdee6e6752f802950cafb20840762b79131662138fd0609cb5bc96aa5775d3679dce4e4772d822b52c8f922860560b5933364233afb000fcd5dcf6ca3715b307fdae2e2712b842d54ceff24800366b3953562253cf9020dcf5fcd6ea17359327dd8e0e07329862f56ccfd26820164b1973760273ef70c03c151c360af7d573c73d6eeee7d27882158c2f3288c0f6abf99396e2930f50e01c353c162ad7f553e71d4ecec7f258a235ac0f12a8e0d68bd9b3b6c2b32f30807c555c764ab79533877d2eaea79238c255cc6f72c880b6ebb9d3d6a2d34f10a05c757c566a97b513a75d0e8e87b218e275ec4f52e8a096cb99f3f682f36ff040bc959cb68a7755f347bdee6e6752f802950cafb20840762b79131662138fd0609cb5bc96aa5775d3679dce4e4772d822b52c8f922860560b5933364233afb000fcd5dcf6ca3715b307fdae2e2712b842d54ceff24800366b3953562253cf9020dcf5fcd6ea17359327dd8e0e07329862f56ccfd26820164b1973760273ef70c03c151c360af7d573c73d6eeee7d27882158c2f3288c0f6abf99396e2930f50e01c353c162ad7f553e71d4ecec7f258a235ac0f12a8e0d68bd9b3b6c2b32f30807c555c764ab79533877d2eaea79238c255cc6f72c880b6ebb9d3d6a2d34f10a05c757c566a97b513a75d0e8e87b218e275ec4f52e8a096cb99f3f682f36ff040bc959cb68a7755f347bdee6e6752f802950cafb20840762b79131662138fd0609cb5bc96aa5775d3679dce4e4772d822b52c8f922860560b5933364233afb000fcd5dcf6ca3715b307fdae2e2712b842d54ceff24800366b3953562253cf9020dcf5fcd6ea17359327dd8e0e07329862f56ccfd26820164b1973760273ef70c03c151c360af7d573c73d6eeee7d27882158c2f3288c0f6abf99396e2930f50e01c353c162ad7f553e71d4ecec7f258a235ac0f12a8e0d68bd9b3b6c2b32f30807c555c764ab79533877d2eaea79238c255cc6f72c880b6ebb9d3d6a2d34f10a05c757c566a97b513a75d0e8e87b218e275ec4f52e8a096cb99f3f682f36ff040bc959cb68a7755f347bdee6e6752de1fba37829f790cb06892697f88dc5d49bd12b16f51d740a67224edcf7ac6f850ce18b4782d0000225120da40ea2aa2c2d9542af23ee11362916fe254c8b7acd5d0185d2218af1ec3204102fd7509aeabfb84ecdb4551d4c3d6785689299382d8834be7692424aab682f3ec913b9a88465f9323d4e7b760652739caa359306e260e92e5f99d4d443c019fc0bd5da615cd6d9deb22038d803bb524a37fc711670049615dfa33dc44b8c5cfa5944f05c265f3a82bb389a88045be56cdfab52fab2d8d9ebf1dc70f2c5a3cd8b37406df35edd68b512307aa1dff91c8820118b37e7534b611da946e8d7f26aac5196b210d844c3c8d24cf13e15452a5b5c2303aac80436cc96bb0d1dfe331a237b0ecccdd011aece95f8bba103d0615755aca7b7523b0801e017494074e2fcbe62b08ef1084dc5bd42f7f3e9e07aae6e02f4ba478a170d5c35e1fcbae896681d58426beb894624dfb85c33bf1a347a1168054859bd83d81eb9bb7b5939f5388da60ae4c550937ff04d9f918032113959c7ad6063a9a1205b81d6837f9bc723837232a39efb7ca23963f8917728b7c28f0a1fb978d91a686a02c3f8fd70c2256fed698ff6af3100382429a337a827d2d7bc39bb53a5ba7a3b48127616524cb768181f30a21e608cbce5be9146c5c22e949b882fa9cc0d6451127b9521f68cf9c149db28eaac1950e61acd0a1f842f2a51d6c63f7446aed72244418701e03e97bb1b1370cb5f6fe1d89bf7da95360ccf80ec4be23dd856ec191b7acf50207fd7ec7e28d66b7c8bf5b7f960ee84dda1772f926fd0abf0c6111d2848d84291c2b6f2d50277d98adaca0a05c8eda9524a3c9f7f9aae6d89ec1613e287a2f38bdfbbd8a7e1c023903452bc0c41d272dbe96fa1b7064c56327fa7aeb7616df86241a8d2af5dd1647e9cc1bd6d1b37e0dce1865570b50553e00f6875b6796166c81aa7b46a7dd4b9b3bfdb3f86e6128349240b1f8c7881940d720ffbeee5a0853ae3bb6e72b8abd59a45f063b0a582bd84338991d935a73c9e425ade267ad53a04005496e5aafc2c971d518c8df38b7b5a756b3a9a5d9fcfec1d9de2a645ec251706475254781461477b73d1a9e5ff4a85d122a61be94b415d5d11376db9057b3118f0885396d50e56fd90007a77eb639605b9633066b29b2f8a3a1a6e80a0fa57326720bd6248952991c2616ad65c9573199676352056620c734202240a075f306d570167709b812649c73859b83c84ecca50720a5d9f7179484ee087009a99a430316ce632b4715f9ed5dbfe4a1449ee4141f5c5c6f524f28050f2d06a51d7497f3a4f8c36e5cb0fe0996f3319579f92b57d52b9188f72429225559dd30deed665741aad42380558acc961d5d44f1377cb827eb738f2cd64268d22e13006cfa2aec9eebdacbff991c1b544359976c7a6c6034f48f91d34a531a2b73ce91cd9c41ce0ca98b1d85d22224a407cd177a503d8a7d994461b6ae44bb98a839879a6114a8f6f8eb43db9511ae6349cdf5c5c3bb425c6d435190041158935203e49ab122534c01125f5f7f415b29c81e9c88d0927d5e0de5eb4961de75c00c7770c7eec9a8f70777b058e30798bbf37c4d38710eb8744d03dff3f8b20e7541616bbed3037d5ca6226930c1db937edef652a2fb69fc578a5a54ed255a81436e824abe1e1d321098aaf014d05bc78e86595f4ebf79d202fd4f9fc3134e6a25b0973ea369fde940fa863788260ef5ff21e5bb6e7f2d6fbe79d0350c8f53f93d07bae2638616af38f132dcbb7ea3267d8158e584792f467c88c6fa2622a0d87be84aca17c6f4e41e2d833898b2a983098a74a9ca8863c65eecd7a9c6a4b069432f050d92ff7d3b0590cd809064da0021b407244927e98b4e2ba27473ca5873094be590ff5179af99e2d3a72da0f343e6e28a5db5a3dc62961d4357b69511bfa408aecd1f744ff682bb0d6009044912d4e3ba860a550e97714611f2192d6aa0c0d05592e70bfca850cbef1df542b0c33fb8c6283ab5058af6fbcf0627a53ca1e057c5bdeb526b0bf5bd051e841c727f1a5276d09af3759e877ba7a50a79df74264d5a573446f55a7baa331ab510f6ab83a20d072e7489babccf31e23d0c53f349290ee57d2ccc2400daf377f6ecb8920fbcf95ef1d7ee841a969392e046f98ead56fa6e788c493974157ef6486cc7f63696cbb1b92674288b3f6380d643005cf59c3877c6977a811803f52d48290d1e6bdf335f4c4278b03e34c38dd532860d2604fd5f37f1b59cb6b6f36ae094557a7e18637ecee7f6c2080ba107a5436478ff867057c12526c3eff98bc0968b5ae1a59bcb87b565717af6c952602fdc2ed37a6514a59ac1a5e05bd325105f6e092cf010fb2ae79ac8e09d40520e9554c226b05bada4d5c286f3d6fbc63b8deea55271d72f023de1ae5c5f811bf01ee5c142782a63f65e2c439ae2653e40a3cd5273a177c70aafea11971dff36e742ab072487c99fa1922bbef506fe60a8ec86225b3da8b7d15b059409bfd7423fd560ca205d0d716d350e9a02fca70db2af8ffd27c1c9fe7cff4504ec5822f99178b12c22bba8515f63a0e051677ec61991b6e67a0f23b391e6ad7e20b1e0592390ad472a4165b6daac48e85aae9f2346486b2c7240ee68f255fd250e0b330c781316feacdf60136146258542a82a50fb69df75af82e75f7161e36a091bed74b0b88e27b797d5e57dd1f18856fd4a666b8ae1b4bd20f30e4f4afd190a9968631ca14427b98c4dafe1165ed9bf1cc1ccf4175a3ee0e24fdec317adac5b5f02a9e0748e51512957da83a067584abc7f5ca92f05eac5e1d1291ea883f0462456f8e391405931650a5e8b0ce7d7720c6b4e301c53a87739d35cc8289ced4d917c44d75a85b865d4e28272223a0d686be1cd31bf1deb6bed64a2836323906a946e41f95d82d2928009313e7c08c218a5d0b6d3024382b93f167cf938d62612a0a746f539992df6b53d6c96e39a69cb1563f1fe40fb6963d0ef974b9ee686f76047437c75355b364391d3c7bfd6251d80e97c3d51686de02aa9cb8a443f57d6fbceb9c9a34e49b6e7b5caa7019ee88c06065fd440fede9516c5fbdafe651572a2a14ff9377b2a027149a7f2360aaf39e6a325c7944c393e70c7968a7bd649986e864b276832f7dbb7c0bb15a9da0fa6c70e631a18e7d1671d8c9a016720426f95e15df442e89b8290a1f56ef5d2e4c594917d20af6423032f8714199ba8f3170bca5ba4a00f3260c1f36c3c8be0d5bed414da9d22af4b796564ecd904da91c7b99226f737f81ebbe9d4e7266c1c0441619566ca6ba6bf42a8703fd3539b09370bf4ed372b3520efd964018cba7ad2a4823d62485d73ef3d95508e6758b244abf8a201799f67a9f878ccf14f27e2751e8a0836e5240304252a4345585b868b8e9eb2b6bfc6d1daf50c11131f5e63708186898fc0e10c102048535b8094a6abb6bee7e80b102328414d8a8fadb4c4e10000000000000000000000000000000000000000000013202e3a01fd210500e3444fe6a7adceef882c2a8ef126075bf08feb7ae964d496079c1d9a91f5c4cb8b89f73a996b4bd6b9026318b62c1a668236ac1be9716f67eeb50461376e0caae9de916d5a315781697b5fd83fc4c400429670970c4965ab134b7d156fb2b20c4d577e13811778dbc88a82f33cac08f483ee9391e7838de3a0b6312bfa8f77255a6f1d5c3f1ecfbf3f5e98b5f39761bad86978f879452bdaf3c9e1a0e2c267c09306d23ba67aec1012c3438ff9207594f66c4f08e7f3ec81d2ef29eb326da981f99c1ca1b04b6ea6a982c36d9983efaf92e4b75dac6c979d02e025803a75836689d85cc25dda95311e13e116097a1f00e9bae7a320d896540699a77dcf06125367159562e79f32423cb680080fb9f2b0ade9980a17a2eab6444b9bea306d36fee7b7f14b3a3fc5d15aedd7668233f0b7e1c1e9a7a7fa18246cca2e881ec63e6a23a9a796cf761e220b63c408509aebbb5455cf43a03d6c0186e680ba264f3017960e45f367f1dab1a659ca874af00d0a53c58f7e5816ec9e4db133616a9cf2acb24dc1cf41d24ceb51bc53a4816c626631fbf76fa168b78c5bcd48f5eeed9580c17cc110adcbbbe392a36e7abd11972d06f41c3ae032b699d8f1add2f9b833fc5f8f6aceaed40fecd6370e53a584aebd2a8e3b4e625e9bde2317c589b043dafc0cd0868285703a670800bdbc25fa53d7148cf07d90637846c3780a730632f2e414a42896073787f0c74f6dad4ef571f9868121c57246228e476d140db306a96f06e793636f41d7f0d56244776633acf62771019239552fca51f6289dc9c672e4093e0a10f7fe6ddae3ff5e659c4baf8c1ff86e5a157d6462570c66f1b9bff130496d1af6851191dad668d0e6bba0d4d77aaa5d24caef2fd267efcd88f72304a38a58f28b69c79ecf3bd2fe87ba5bbf0775274c5f19ab92c47bae4c61621d0347b68eb5e2bc5ca500b9fd37ae4d4495c73054687942cd8678f0ff9e341a77f394d7a1a8a7b4187013f03db59ddf4ff1e6dd94f6e491393ed86f6b1311b2c08e19f21d35d6440b2d4df81c2dae430faab4fdddd55b486c80b1cdb990cf15774a9eec43f138d92b9e77822fc3c6d9eecc83e4e69f51cde31b0d7b9e163afc3be507c9f1b4d073887be91ee03b45bf06b174d1845f26b503597043045403333bae93d313a6e23906f13b969b1e57d0d892156fb76aa1b954c18dc8bbafab96a0f6488e21569ce1d1122e026dc316cd8f8ecb36df2c87e9d0dbe27ab1aabcfb18ea072ab1051092818b944e8116dca2173e7551f8bffa36203f1d972608c403d7bccf2da25802046d06fc33f9bd2d7ae1f6a7a058c7146d63c50b3b2bace7cd641cf70aa52d73a62a13e99e483a88752faf8184ba89c1365492d9d2c1b953eab40352c41dc311281bb11131fdf6d802f16ca115b5c6bbde7b4c8eab914c12ed046cb911c353c533b69eec4b9abd027b81b528b2b38783f3dc8c9d7be5ba4b4ff00c64e7fe3c01ca619875c9172c896b8c89c5d08d9cd20c8c94baf030e3471778badbd8058e2dfd2cc31ae8c9efd16d73abe3648304a51b413556f1ce5f83cc2c4485aaaa727e48cceda10044101717fd8d004090b703a6620f30dc505ee017a7e96b9812348508d118dde13584b3d477c1c426ea7c2b507b6c7882676d38b5ab94bceda9b0b7a96bfa634de0a00042411d7d0e2e84348c1a39878ecfb00e8af6b810e2c560fca903100579d60d9b5e17f72c0fe4e992ff9c8ad77191bf5d5e671a4e71ab093105946874433c0e098c4a695424c9308ee8fd289ae183671d57ab35ae741ef2648e76dc356a529636373ce36e8fe339ca35eef8cc5dba9db14bc867bc85000000",
  "txid": "cf9459923ab9d1dcc6f6ef79b82a0acbd047fbcff25929cd49623d8feeb90bbd",
  "hash": "58d8504834a24e8cfe5b0b33c57d3c419676c8587cbea6851d412014b9b38fee",
  "size": 5085,
  "vsize": 2278,
  "version": 1,
  "locktime": 133,
  "vin": [
    {
      "txid": "a74a391adc3fa3470b6c53c5c53e0b77b7765d86239cf80ba526a6399d1b1476",
      "vout": 0,
      "scriptSig": {
        "asm": "",
        "hex": ""
      },
      "txinwitness": [
        "aeabfb84ecdb4551d4c3d6785689299382d8834be7692424aab682f3ec913b9a88465f9323d4e7b760652739caa359306e260e92e5f99d4d443c019fc0bd5da615cd6d9deb22038d803bb524a37fc711670049615dfa33dc44b8c5cfa5944f05c265f3a82bb389a88045be56cdfab52fab2d8d9ebf1dc70f2c5a3cd8b37406df35edd68b512307aa1dff91c8820118b37e7534b611da946e8d7f26aac5196b210d844c3c8d24cf13e15452a5b5c2303aac80436cc96bb0d1dfe331a237b0ecccdd011aece95f8bba103d0615755aca7b7523b0801e017494074e2fcbe62b08ef1084dc5bd42f7f3e9e07aae6e02f4ba478a170d5c35e1fcbae896681d58426beb894624dfb85c33bf1a347a1168054859bd83d81eb9bb7b5939f5388da60ae4c550937ff04d9f918032113959c7ad6063a9a1205b81d6837f9bc723837232a39efb7ca23963f8917728b7c28f0a1fb978d91a686a02c3f8fd70c2256fed698ff6af3100382429a337a827d2d7bc39bb53a5ba7a3b48127616524cb768181f30a21e608cbce5be9146c5c22e949b882fa9cc0d6451127b9521f68cf9c149db28eaac1950e61acd0a1f842f2a51d6c63f7446aed72244418701e03e97bb1b1370cb5f6fe1d89bf7da95360ccf80ec4be23dd856ec191b7acf50207fd7ec7e28d66b7c8bf5b7f960ee84dda1772f926fd0abf0c6111d2848d84291c2b6f2d50277d98adaca0a05c8eda9524a3c9f7f9aae6d89ec1613e287a2f38bdfbbd8a7e1c023903452bc0c41d272dbe96fa1b7064c56327fa7aeb7616df86241a8d2af5dd1647e9cc1bd6d1b37e0dce1865570b50553e00f6875b6796166c81aa7b46a7dd4b9b3bfdb3f86e6128349240b1f8c7881940d720ffbeee5a0853ae3bb6e72b8abd59a45f063b0a582bd84338991d935a73c9e425ade267ad53a04005496e5aafc2c971d518c8df38b7b5a756b3a9a5d9fcfec1d9de2a645ec251706475254781461477b73d1a9e5ff4a85d122a61be94b415d5d11376db9057b3118f0885396d50e56fd90007a77eb639605b9633066b29b2f8a3a1a6e80a0fa57326720bd6248952991c2616ad65c9573199676352056620c734202240a075f306d570167709b812649c73859b83c84ecca50720a5d9f7179484ee087009a99a430316ce632b4715f9ed5dbfe4a1449ee4141f5c5c6f524f28050f2d06a51d7497f3a4f8c36e5cb0fe0996f3319579f92b57d52b9188f72429225559dd30deed665741aad42380558acc961d5d44f1377cb827eb738f2cd64268d22e13006cfa2aec9eebdacbff991c1b544359976c7a6c6034f48f91d34a531a2b73ce91cd9c41ce0ca98b1d85d22224a407cd177a503d8a7d994461b6ae44bb98a839879a6114a8f6f8eb43db9511ae6349cdf5c5c3bb425c6d435190041158935203e49ab122534c01125f5f7f415b29c81e9c88d0927d5e0de5eb4961de75c00c7770c7eec9a8f70777b058e30798bbf37c4d38710eb8744d03dff3f8b20e7541616bbed3037d5ca6226930c1db937edef652a2fb69fc578a5a54ed255a81436e824abe1e1d321098aaf014d05bc78e86595f4ebf79d202fd4f9fc3134e6a25b0973ea369fde940fa863788260ef5ff21e5bb6e7f2d6fbe79d0350c8f53f93d07bae2638616af38f132dcbb7ea3267d8158e584792f467c88c6fa2622a0d87be84aca17c6f4e41e2d833898b2a983098a74a9ca8863c65eecd7a9c6a4b069432f050d92ff7d3b0590cd809064da0021b407244927e98b4e2ba27473ca5873094be590ff5179af99e2d3a72da0f343e6e28a5db5a3dc62961d4357b69511bfa408aecd1f744ff682bb0d6009044912d4e3ba860a550e97714611f2192d6aa0c0d05592e70bfca850cbef1df542b0c33fb8c6283ab5058af6fbcf0627a53ca1e057c5bdeb526b0bf5bd051e841c727f1a5276d09af3759e877ba7a50a79df74264d5a573446f55a7baa331ab510f6ab83a20d072e7489babccf31e23d0c53f349290ee57d2ccc2400daf377f6ecb8920fbcf95ef1d7ee841a969392e046f98ead56fa6e788c493974157ef6486cc7f63696cbb1b92674288b3f6380d643005cf59c3877c6977a811803f52d48290d1e6bdf335f4c4278b03e34c38dd532860d2604fd5f37f1b59cb6b6f36ae094557a7e18637ecee7f6c2080ba107a5436478ff867057c12526c3eff98bc0968b5ae1a59bcb87b565717af6c952602fdc2ed37a6514a59ac1a5e05bd325105f6e092cf010fb2ae79ac8e09d40520e9554c226b05bada4d5c286f3d6fbc63b8deea55271d72f023de1ae5c5f811bf01ee5c142782a63f65e2c439ae2653e40a3cd5273a177c70aafea11971dff36e742ab072487c99fa1922bbef506fe60a8ec86225b3da8b7d15b059409bfd7423fd560ca205d0d716d350e9a02fca70db2af8ffd27c1c9fe7cff4504ec5822f99178b12c22bba8515f63a0e051677ec61991b6e67a0f23b391e6ad7e20b1e0592390ad472a4165b6daac48e85aae9f2346486b2c7240ee68f255fd250e0b330c781316feacdf60136146258542a82a50fb69df75af82e75f7161e36a091bed74b0b88e27b797d5e57dd1f18856fd4a666b8ae1b4bd20f30e4f4afd190a9968631ca14427b98c4dafe1165ed9bf1cc1ccf4175a3ee0e24fdec317adac5b5f02a9e0748e51512957da83a067584abc7f5ca92f05eac5e1d1291ea883f0462456f8e391405931650a5e8b0ce7d7720c6b4e301c53a87739d35cc8289ced4d917c44d75a85b865d4e28272223a0d686be1cd31bf1deb6bed64a2836323906a946e41f95d82d2928009313e7c08c218a5d0b6d3024382b93f167cf938d62612a0a746f539992df6b53d6c96e39a69cb1563f1fe40fb6963d0ef974b9ee686f76047437c75355b364391d3c7bfd6251d80e97c3d51686de02aa9cb8a443f57d6fbceb9c9a34e49b6e7b5caa7019ee88c06065fd440fede9516c5fbdafe651572a2a14ff9377b2a027149a7f2360aaf39e6a325c7944c393e70c7968a7bd649986e864b276832f7dbb7c0bb15a9da0fa6c70e631a18e7d1671d8c9a016720426f95e15df442e89b8290a1f56ef5d2e4c594917d20af6423032f8714199ba8f3170bca5ba4a00f3260c1f36c3c8be0d5bed414da9d22af4b796564ecd904da91c7b99226f737f81ebbe9d4e7266c1c0441619566ca6ba6bf42a8703fd3539b09370bf4ed372b3520efd964018cba7ad2a4823d62485d73ef3d95508e6758b244abf8a201799f67a9f878ccf14f27e2751e8a0836e5240304252a4345585b868b8e9eb2b6bfc6d1daf50c11131f5e63708186898fc0e10c102048535b8094a6abb6bee7e80b102328414d8a8fadb4c4e10000000000000000000000000000000000000000000013202e3a01",
        "00e3444fe6a7adceef882c2a8ef126075bf08feb7ae964d496079c1d9a91f5c4cb8b89f73a996b4bd6b9026318b62c1a668236ac1be9716f67eeb50461376e0caae9de916d5a315781697b5fd83fc4c400429670970c4965ab134b7d156fb2b20c4d577e13811778dbc88a82f33cac08f483ee9391e7838de3a0b6312bfa8f77255a6f1d5c3f1ecfbf3f5e98b5f39761bad86978f879452bdaf3c9e1a0e2c267c09306d23ba67aec1012c3438ff9207594f66c4f08e7f3ec81d2ef29eb326da981f99c1ca1b04b6ea6a982c36d9983efaf92e4b75dac6c979d02e025803a75836689d85cc25dda95311e13e116097a1f00e9bae7a320d896540699a77dcf06125367159562e79f32423cb680080fb9f2b0ade9980a17a2eab6444b9bea306d36fee7b7f14b3a3fc5d15aedd7668233f0b7e1c1e9a7a7fa18246cca2e881ec63e6a23a9a796cf761e220b63c408509aebbb5455cf43a03d6c0186e680ba264f3017960e45f367f1dab1a659ca874af00d0a53c58f7e5816ec9e4db133616a9cf2acb24dc1cf41d24ceb51bc53a4816c626631fbf76fa168b78c5bcd48f5eeed9580c17cc110adcbbbe392a36e7abd11972d06f41c3ae032b699d8f1add2f9b833fc5f8f6aceaed40fecd6370e53a584aebd2a8e3b4e625e9bde2317c589b043dafc0cd0868285703a670800bdbc25fa53d7148cf07d90637846c3780a730632f2e414a42896073787f0c74f6dad4ef571f9868121c57246228e476d140db306a96f06e793636f41d7f0d56244776633acf62771019239552fca51f6289dc9c672e4093e0a10f7fe6ddae3ff5e659c4baf8c1ff86e5a157d6462570c66f1b9bff130496d1af6851191dad668d0e6bba0d4d77aaa5d24caef2fd267efcd88f72304a38a58f28b69c79ecf3bd2fe87ba5bbf0775274c5f19ab92c47bae4c61621d0347b68eb5e2bc5ca500b9fd37ae4d4495c73054687942cd8678f0ff9e341a77f394d7a1a8a7b4187013f03db59ddf4ff1e6dd94f6e491393ed86f6b1311b2c08e19f21d35d6440b2d4df81c2dae430faab4fdddd55b486c80b1cdb990cf15774a9eec43f138d92b9e77822fc3c6d9eecc83e4e69f51cde31b0d7b9e163afc3be507c9f1b4d073887be91ee03b45bf06b174d1845f26b503597043045403333bae93d313a6e23906f13b969b1e57d0d892156fb76aa1b954c18dc8bbafab96a0f6488e21569ce1d1122e026dc316cd8f8ecb36df2c87e9d0dbe27ab1aabcfb18ea072ab1051092818b944e8116dca2173e7551f8bffa36203f1d972608c403d7bccf2da25802046d06fc33f9bd2d7ae1f6a7a058c7146d63c50b3b2bace7cd641cf70aa52d73a62a13e99e483a88752faf8184ba89c1365492d9d2c1b953eab40352c41dc311281bb11131fdf6d802f16ca115b5c6bbde7b4c8eab914c12ed046cb911c353c533b69eec4b9abd027b81b528b2b38783f3dc8c9d7be5ba4b4ff00c64e7fe3c01ca619875c9172c896b8c89c5d08d9cd20c8c94baf030e3471778badbd8058e2dfd2cc31ae8c9efd16d73abe3648304a51b413556f1ce5f83cc2c4485aaaa727e48cceda10044101717fd8d004090b703a6620f30dc505ee017a7e96b9812348508d118dde13584b3d477c1c426ea7c2b507b6c7882676d38b5ab94bceda9b0b7a96bfa634de0a00042411d7d0e2e84348c1a39878ecfb00e8af6b810e2c560fca903100579d60d9b5e17f72c0fe4e992ff9c8ad77191bf5d5e671a4e71ab093105946874433c0e098c4a695424c9308ee8fd289ae183671d57ab35ae741ef2648e76dc356a529636373ce36e8fe339ca35eef8cc5dba9db14bc867bc"
      ],
      "sequence": 4294967294
    }
  ],
  "vout": [
    {
      "value": 1.0,
      "n": 0,
      "scriptPubKey": {
        "asm": "OP_RETURN 0f23ecf703ae444fecebce51a3715a94c73ca5a09dc83560273e8267df8b1068 70c03c151c360af7d573c73d6eeee7d27882158c2f3288c0f6abf99396e2930f50e01c353c162ad7f553e71d4ecec7f258a235ac0f12a8e0d68bd9b3b6c2b32f30807c555c764ab79533877d2eaea79238c255cc6f72c880b6ebb9d3d6a2d34f10a05c757c566a97b513a75d0e8e87b218e275ec4f52e8a096cb99f3f682f36ff040bc959cb68a7755f347bdee6e6752f802950cafb20840762b79131662138fd0609cb5bc96aa5775d3679dce4e4772d822b52c8f922860560b5933364233afb000fcd5dcf6ca3715b307fdae2e2712b842d54ceff24800366b3953562253cf9020dcf5fcd6ea17359327dd8e0e07329862f56ccfd26820164b1973760273ef70c03c151c360af7d573c73d6eeee7d27882158c2f3288c0f6abf99396e2930f50e01c353c162ad7f553e71d4ecec7f258a235ac0f12a8e0d68bd9b3b6c2b32f30807c555c764ab79533877d2eaea79238c255cc6f72c880b6ebb9d3d6a2d34f10a05c757c566a97b513a75d0e8e87b218e275ec4f52e8a096cb99f3f682f36ff040bc959cb68a7755f347bdee6e6752f802950cafb20840762b79131662138fd0609cb5bc96aa5775d3679dce4e4772d822b52c8f922860560b5933364233afb000fcd5dcf6ca3715b307fdae2e2712b842d54ceff24800366b3953562253cf9020dcf5fcd6ea17359327dd8e0e07329862f56ccfd26820164b1973760273ef70c03c151c360af7d573c73d6eeee7d27882158c2f3288c0f6abf99396e2930f50e01c353c162ad7f553e71d4ecec7f258a235ac0f12a8e0d68bd9b3b6c2b32f30807c555c764ab79533877d2eaea79238c255cc6f72c880b6ebb9d3d6a2d34f10a05c757c566a97b513a75d0e8e87b218e275ec4f52e8a096cb99f3f682f36ff040bc959cb68a7755f347bdee6e6752f802950cafb20840762b79131662138fd0609cb5bc96aa5775d3679dce4e4772d822b52c8f922860560b5933364233afb000fcd5dcf6ca3715b307fdae2e2712b842d54ceff24800366b3953562253cf9020dcf5fcd6ea17359327dd8e0e07329862f56ccfd26820164b1973760273ef70c03c151c360af7d573c73d6eeee7d27882158c2f3288c0f6abf99396e2930f50e01c353c162ad7f553e71d4ecec7f258a235ac0f12a8e0d68bd9b3b6c2b32f30807c555c764ab79533877d2eaea79238c255cc6f72c880b6ebb9d3d6a2d34f10a05c757c566a97b513a75d0e8e87b218e275ec4f52e8a096cb99f3f682f36ff040bc959cb68a7755f347bdee6e6752f802950cafb20840762b79131662138fd0609cb5bc96aa5775d3679dce4e4772d822b52c8f922860560b5933364233afb000fcd5dcf6ca3715b307fdae2e2712b842d54ceff24800366b3953562253cf9020dcf5fcd6ea17359327dd8e0e07329862f56ccfd26820164b1973760273ef70c03c151c360af7d573c73d6eeee7d27882158c2f3288c0f6abf99396e2930f50e01c353c162ad7f553e71d4ecec7f258a235ac0f12a8e0d68bd9b3b6c2b32f30807c555c764ab79533877d2eaea79238c255cc6f72c880b6ebb9d3d6a2d34f10a05c757c566a97b513a75d0e8e87b218e275ec4f52e8a096cb99f3f682f36ff040bc959cb68a7755f347bdee6e6752de1fba37829f790cb06892697f88dc5d49bd12b16f51d740a67224edcf7ac6f8",
        "hex": "6a200f23ecf703ae444fecebce51a3715a94c73ca5a09dc83560273e8267df8b10684db00470c03c151c360af7d573c73d6eeee7d27882158c2f3288c0f6abf99396e2930f50e01c353c162ad7f553e71d4ecec7f258a235ac0f12a8e0d68bd9b3b6c2b32f30807c555c764ab79533877d2eaea79238c255cc6f72c880b6ebb9d3d6a2d34f10a05c757c566a97b513a75d0e8e87b218e275ec4f52e8a096cb99f3f682f36ff040bc959cb68a7755f347bdee6e6752f802950cafb20840762b79131662138fd0609cb5bc96aa5775d3679dce4e4772d822b52c8f922860560b5933364233afb000fcd5dcf6ca3715b307fdae2e2712b842d54ceff24800366b3953562253cf9020dcf5fcd6ea17359327dd8e0e07329862f56ccfd26820164b1973760273ef70c03c151c360af7d573c73d6eeee7d27882158c2f3288c0f6abf99396e2930f50e01c353c162ad7f553e71d4ecec7f258a235ac0f12a8e0d68bd9b3b6c2b32f30807c555c764ab79533877d2eaea79238c255cc6f72c880b6ebb9d3d6a2d34f10a05c757c566a97b513a75d0e8e87b218e275ec4f52e8a096cb99f3f682f36ff040bc959cb68a7755f347bdee6e6752f802950cafb20840762b79131662138fd0609cb5bc96aa5775d3679dce4e4772d822b52c8f922860560b5933364233afb000fcd5dcf6ca3715b307fdae2e2712b842d54ceff24800366b3953562253cf9020dcf5fcd6ea17359327dd8e0e07329862f56ccfd26820164b1973760273ef70c03c151c360af7d573c73d6eeee7d27882158c2f3288c0f6abf99396e2930f50e01c353c162ad7f553e71d4ecec7f258a235ac0f12a8e0d68bd9b3b6c2b32f30807c555c764ab79533877d2eaea79238c255cc6f72c880b6ebb9d3d6a2d34f10a05c757c566a97b513a75d0e8e87b218e275ec4f52e8a096cb99f3f682f36ff040bc959cb68a7755f347bdee6e6752f802950cafb20840762b79131662138fd0609cb5bc96aa5775d3679dce4e4772d822b52c8f922860560b5933364233afb000fcd5dcf6ca3715b307fdae2e2712b842d54ceff24800366b3953562253cf9020dcf5fcd6ea17359327dd8e0e07329862f56ccfd26820164b1973760273ef70c03c151c360af7d573c73d6eeee7d27882158c2f3288c0f6abf99396e2930f50e01c353c162ad7f553e71d4ecec7f258a235ac0f12a8e0d68bd9b3b6c2b32f30807c555c764ab79533877d2eaea79238c255cc6f72c880b6ebb9d3d6a2d34f10a05c757c566a97b513a75d0e8e87b218e275ec4f52e8a096cb99f3f682f36ff040bc959cb68a7755f347bdee6e6752f802950cafb20840762b79131662138fd0609cb5bc96aa5775d3679dce4e4772d822b52c8f922860560b5933364233afb000fcd5dcf6ca3715b307fdae2e2712b842d54ceff24800366b3953562253cf9020dcf5fcd6ea17359327dd8e0e07329862f56ccfd26820164b1973760273ef70c03c151c360af7d573c73d6eeee7d27882158c2f3288c0f6abf99396e2930f50e01c353c162ad7f553e71d4ecec7f258a235ac0f12a8e0d68bd9b3b6c2b32f30807c555c764ab79533877d2eaea79238c255cc6f72c880b6ebb9d3d6a2d34f10a05c757c566a97b513a75d0e8e87b218e275ec4f52e8a096cb99f3f682f36ff040bc959cb68a7755f347bdee6e6752de1fba37829f790cb06892697f88dc5d49bd12b16f51d740a67224edcf7ac6f8",
        "type": "nulldata"
      }
    },
    {
      "value": 499964.4085,
      "n": 1,
      "scriptPubKey": {
        "asm": "1 da40ea2aa2c2d9542af23ee11362916fe254c8b7acd5d0185d2218af1ec32041",
        "hex": "5120da40ea2aa2c2d9542af23ee11362916fe254c8b7acd5d0185d2218af1ec32041",
        "reqSigs": 1,
        "type": "witness_v1_scripthash",
        "addresses": [
          "3QJmnh"
        ]
      }
    }
  ],
  "blockhash": "e83fb8d8eae63b54f6b1b3d1fbcbee555d4e910f42cfd1b5d97cc48d92172bc4",
  "confirmations": 1,
  "time": 1764182633,
  "blocktime": 1764182633
}