{
  "hex": "01000000000101e92229c99d73ac20218570175ceef091621cb4f8bed778b9184fa44e000aa76f0000000000feffffff02702338c0782d000022512015e9d27a93f29756a6ff920f38a4c03b188501728c82c41ac5ddfa9acf90694b00e1f50500000000fdd5046a20c81120008cdee6da6a9daa8a696a6a0cf0073d8a12cbecbe99a529559c3cfda74db0048be42c9d790dd35355f9906b0ce972941c6609e22b4968934f584f59d901a397abc40cbd592df37375d9b04b2cc952b43c4629c20b6948b36f786f79f92183b7cba46cdd394d931315b9d02b4ca932d45c2649a26b0928d30f180f199941e3d7eb844cfd196db3333599f00b6c8912f47c0669824b2908f32f382f39b961c3f70b64ac1df98d53d3d57910eb8c69f2149ce68962abc9e813cfd8cfd9598123172b448c3dd9ad73f3f55930cbac49d234bcc6a9428be9c833eff8eff979a103374b24ec5db9cd1393953950abcc29b254dca6c922eb89a8538f988f9919c163576b04cc7d99ed33b3b519708bec099274fc86e902cba98873afb8afb939e143778be42c9d790dd35355f9906b0ce972941c6609e22b4968934f584f59d901a397abc40cbd592df37375d9b04b2cc952b43c4629c20b6948b36f786f79f92183b7cba46cdd394d931315b9d02b4ca932d45c2649a26b0928d30f180f199941e3d7eb844cfd196db3333599f00b6c8912f47c0669824b2908f32f382f39b961c3f70b64ac1df98d53d3d57910eb8c69f2149ce68962abc9e813cfd8cfd9598123172b448c3dd9ad73f3f55930cbac49d234bcc6a9428be9c833eff8eff979a103374b24ec5db9cd1393953950abcc29b254dca6c922eb89a8538f988f9919c163576b04cc7d99ed33b3b519708bec099274fc86e902cba98873afb8afb939e143778be42c9d790dd35355f9906b0ce972941c6609e22b4968934f584f59d901a397abc40cbd592df37375d9b04b2cc952b43c4629c20b6948b36f786f79f92183b7cba46cdd394d931315b9d02b4ca932d45c2649a26b0928d30f180f199941e3d7eb844cfd196db3333599f00b6c8912f47c0669824b2908f32f382f39b961c3f70b64ac1df98d53d3d57910eb8c69f2149ce68962abc9e813cfd8cfd9598123172b448c3dd9ad73f3f55930cbac49d234bcc6a9428be9c833eff8eff979a103374b24ec5db9cd1393953950abcc29b254dca6c922eb89a8538f988f9919c163576b04cc7d99ed33b3b519708bec099274fc86e902cba98873afb8afb939e143778be42c9d790dd35355f9906b0ce972941c6609e22b4968934f584f59d901a397abc40cbd592df37375d9b04b2cc952b43c4629c20b6948b36f786f79f92183b7cba46cdd394d931315b9d02b4ca932d45c2649a26b0928d30f180f199941e3d7eb844cfd196db3333599f00b6c8912f47c0669824b2908f32f382f39b961c3f70b64ac1df98d53d3d57910eb8c69f2149ce68962abc9e813cfd8cfd9598123172b448c3dd9ad73f3f55930cbac49d234bcc6a9428be9c833eff8eff979a103374b24ec5db9cd1393953950abcc29b254dca6c922eb89a8538f988f9919c163576b04cc7d99ed33b3b519708bec099274fc86e902cba98873afb8afb939e143778be42c9d790dd35355f9906b0ce972941c6609e22b4968934f584f59d901a397abc40cbd592df37375d9b04b2cc952b43c4629c20b6948b36f786f79f92183b7cba46cdd394d931315b9d02b4ca932d45c2649a26b0928d30f180f199941e3d7eb844cfd196db3333599f00b6c8912f47c0669824b2908f32f382f39b961c3f70b64ac1df98d53d3d57910eb8c69f2145f1b3a92118b92f3d27339cca7a7635136e398d65c972058c7834c7922f687e802fd7509036005496cd85cf91f92f675780e7528141ed445361775d1d3392dc96a74409a824f24a66933988d7029739674bea0df6f3c005bcbb0808b8578bcacd753c6ae89072e694ce09881663fbdd2ec83b0d2e507c737f8554acaad2085175411733c9a5fe12b78b477946bb9e037e2feba5f8efb746338cc73a8678e63dbda57a7ea645054d6bb9efa1b0101436897f098a538222d414378f97b0beed8781dd13b50bb982433328b03d8c436d755c40acf59f57fcb42eb0a09ecc418ec38dfa7f30dcc36161873f3a0635ef11b5873fcfb00c6860af018bcda410300bb2676f46c4baf71aee9dfbc3d364d3076a8bbfa22378475c8233c4a5948a3d73317f669628a1a3bd64ea04f4d93ce5bff1c33cb7d5fc17d53ca360513c515d2361fa08734a731337ce5398bc36855f8adb8e4471ec8f594fcfcbc65f986413ffb727e50f73a05d0e3508e1728a8e8136dcdad718f6127f804b2acba8f8e403c86241b6ddb291e9e90a3819ef5bdf32f53536733ed2fa3b1f8eacaf121b4a6d53bc1b2b8b627dc4db88c414e88361f11f1351776aa25d6fd9292b2fe3db072aafc0961e6f23d3eb438ed71ba0529a5e7dcf61d0cf47584cd23bbe2f54f936005489382aa57dddddcc420e16a69f3f8f488c2f2d01831d82619882cbb296a68e52a75bc2bb0f37eb64162d0a2d9b9a7c31efb3f5140edba6fa63eb8ef616da7cf7922538cdfca97cf58468eb13f2ef38941cc04151f122ed3d9d6ce436cd12ba6a031030afccdf8875d9f71d7d61104b2803f9a29a4952d551c0cd4bfe41c8f717c48d418b48ef5b8a8faf90a8578a6224a117ca08a15e1c01401ab64ec60c3a289eed9fa99d1a8c4e62fe980993191861502343c1086004b25e7d152da2f5b95966fdcc7ee66a121390adb996e3ed03cddd793cc99ef1329c9bf92a708e7c803d06ccb09c12d2d3ced4f06b78a5c538ea89c33c2a2f9053b1a8e79410129250460fd369b1f32d8604da1fd32f04b373487872336b8484736179fd68119c86800c33e399a54ba47b430aa9f6b724eec8175b8fa95e0cd77b7daaff295a0c606a077097922489300261ab5fceaa6794472906587daca9ec85b853dfd57ae7d0eebf9b08abc766707cfe6c59b1a6c9dd543d3905514a605ff95be11ba23c2172f3f0b22195e01f2f2848bf5c7ce0663fc2660c60c3bcf7682f7621764e1f5ba0435a8f1c6080e64e160f819d490f8713ebd55b46bd131592f0ac7bc9c361bc61ce90d24c988d25d99676de1e5339bdcfd3b7b2e9fae4f86eeacbca05d9e291652a0a69ee579ca21e24c965dbfb0ae25f448738fe4756f45031fe617cd4cd98ebe506384d5421ca378bd0f6b8df6c83f9e5ffd119322949da2e73035eeff771fd575d476325eb77244713462d1f877830aa8f70a355f76944e9fa68cf00647c5cc98abb94629f350c080bdfcf14eb7241a1a6feced8abda2c652755d98a888859ca07785b550eb3c7210909bbf9ffd3fc4cb87300347ea39d9ed96f087f5b4076950827f6ada41bbe3cc68e44aa8ae17a969ca1f0f48b903800783f31953737c9b5d9d34687e89ad5255ceb5f4a8e1a96361899ed2164148b318eb853b82f8fa5fd3bb908ef02a8f1214bdc29abe0e427519bc7429afea604bc6f506b2f6e7c63c0ccd0d330f24a41db1ad5e07ddfe0d8b3e69ce7b570a317996b19ea44253f448cfe3e1d555321fdde326190a82f459dcbbf76cabcf1d9dcd6ade5d1e0c80d386cbbdaa87aa85c878b4210198efe3f3f21412b597e0d467180c3df97b885bb8e725cb8e2fdfce0bb47a91451edc3b0c693710720860133ee7857bb12a376c25cdca7f2c112a0a467bbec62b563d4c26a6999e0a8896bb66c85ab62ca81baac23531a1fb7ff6dabd9690adad8d1bd92cc35a4afdc975bfc541beaad6f2d46ef59b1bad7ab17042d99960e3c30b583200a92e5dae8d2744424ec3989ec2c875d2f30d046fef45336c92c1e62d9281c9eda6e8da04cc3f6c88c0f70124f0656a87d7270abfda057314bdfab370c9b4a7db117930c406b5f623fb62a4f04fd4d0e559afb7071b19ceefd14aca0b1dc6e7fe089cf54398e3c522cc5fe2cd0917e1a82e43e640bea7e1bb512d5303e84d12b27e525d3efff783a26063db832f22e9ff36fc7ee74f7645ed9440f9ca62fd396d2ca1dc91cdd3adc91a82cf25612a0f3a7e28f68861ac38fb308ea3f0ee5e78c1c519766cc92025d1c0d98f99284a1f61ae1547d225e720a4de334e69e0bd7d77f385872223dd653513e11a35c8d399e7f07d85f47b8c786641f21329d2ee247cb4822d37d29cc061f8ed5e6c79af205ece07f024a2b1ebc03285cbf577a8072e93bdf675d9e4b1d5af8ea285fdfe28be73ebddfd669ef4f26d82a5ba4781ddf2cff260ecde5a7a3f8e91c32b9cd275198d829f293262506f629315f7f6d46d353a28c60d07ea25f5752037b8f78e9b3f86e1e7426b22c9869ede5975f9ac3e7d9c78134f1d88094c2066ed40f08a74ad83c1e3ff2625ca6df8cae4408a59f186e699a25dec38870ff8a2989afdf839d16e936060cff5fdc3694382839626b3b09e31d317f00aa0bf44153f48112f48d508f7a972532334be1832b1d453383c74a9c433befe0cd313b4b3f21ea83d9611a35c4b00de59ec80b6c92107538437483c519f69d6c78eff21e5993a7cb7e1ed00083e4933c5f3450580464058300b12aabd93f3c01a58c027992877e695346853c90b9536e91e7e46c2f8a3a87dcb62eb94febc34621b062d269d08d54e7e158d0a83980ff5825ce23e8bf90f61e90c2e85864dd64a98308810cc3a5d3fef2bdddb05ace11b60b0f5ee8c0ee426cd82cf612f95dda1ea5753b7cd125ea2466dacc1ee2a7febeb98286da90e70299d21029d268c8b1aaadda053227d3b3c8e394783723f22320b92935dfdce5cae7744edfb5f3ad1df1f7dc1cca641c8e25778126b009a4bcf3faee3117a6a22a8fbf9ece1653b492f8306970b3cfe2b8ce13a91a109fe84f9f372f86b683b7bf3339d6506da0059945afc3809c683fce850fc8746f0d08363a92d6cc9745949657e60285b1bf7e5f8f8dfcf7f853e98c28d00248b04657ee7c781eb51c57cb1607ccb6792e057896ac380eb3153efd9a0c84802fa7af5cd6e2db61cd0967802903280602a9bfdf9bee9d21cd01ff40d32ebb14777f5c4baf70cd933c102a24266e407b64a46642a7b7ccf520df8abedd6f74a6652d82073a2ea0da6ddf7830c90dbbc82c70e0c266a351b1fad0027abf59cffd895ade8c5602eb9171d2325535781a5acafb8c6cf1c344647494f72757bb3b4b7babbccd7dd1014163c434754848b9096aaafc4cd0f111a28395559cdd7dbdce4f2f60000000000000000000000000000000000000000000d1e2d3b01fd210500b13887ee7dd979cac080222c333a9be465cff9fd3ab626cbd3f2e41040ba8a41aa6f967f6f7579fb6e05c7aa2d3de66826ac09b3325604e66b76dac86179e3294f7de11d7ee86ea44b682da1247be89cef17cf07e7ff798b2b7a86c260aee97b5825668b85f4313350e77c93dde268253c331b508a44d291662d9260ba41ed5513b9b29ab1e306a19ce448d90e7ef72c74ea292f9e1fe45890d5c7e57648d71c394b4af3c1d606f6f176207eff40694f3ba77e4c9b82be2a2cee39be7eca9b1b11f03496683d709c6d9a0308be869dde2b2c630c19b9bdf8288c8bc302c0f224767e582649282dc94f3a86ca4f22e1ab2c4e46a48533384a4e67f9918b73a647008417b93a10d8b6b6de84120473aeb1b3d81e266ae32dc28a40e8d3d55bd3fac2857a9aa2a58198fb2e2c27daa1f713a84efad18190f606f33e0cfc7590d780351e56cb095f662130d24974d95db4f7ad611d709e9baa53671da20612c50690065eef058baf296365ca6855a6497514aa8eda568d22bbcc6f05a8757ca54e77bd84fec1c13f6f182d597cbc1cfdb91b6fc627c3501dfbc9bc509497826bddeaabb2e2a0a4e36633d4b4da14a00df4ec407b1c464a55607940c24c37d647dde1ee40df8cfe0518ebfd2d36062f2f6b411d034e4675eac15d8323164e2a7d7612dafa54e5cfc4a9c5d46035ce675e9bdedacf9a6d5a8478df3c995e156369b96ed250866ce9ab3d07650b417ed6c354fda6b18aabd2cc4b222bac2ed8e83db95ea6b5191fd1db7bd6a381b0fdd595374fe1c3d9d61df55c00916fc98044829d6d58ebb0d717a6c6ba49787990dc149b13a99eb7016388d849cea3268da5448dc608e1a912731a3e85426061aedaaef4eb2922f64fa5aeb1e71f1464036bb3064dd6cd18059d20f12ab3dbf2f739e66acaf94cb3f9d367aa157349035bda337f116d3a53edb03bcee36a0a98bf2e7e31b6bc8c062f42899405a07644e3c392efcb67e6e43b636cbc869119dc0c016929d0b70b7cf8822ea49c0bac2d398ec0d6735f97d5a028ff0c72ff6ec38a4e8b6c0a2e968e6c982e39bb3b75533cccc9ada0a2355421ceadf0058dfc8ab7c51b349a9dcd37e1b1bb00838693eaed5b098eb4b22269a0e4d8f5d1e59ce64bbbdb280d594dbcc45828bb8150b3eda066d2ccdabb9b1481faf52fc238bcb7370beb184e03a7a96b3584607218a13660dec08b591ef3728e560e014ff4011abb1fa6ce84ec7ed3e00513cd0b9d9bcbfdccd0386653402ed9f6a79d400a6f0abdf5b1c4ec508da4f5ed5835d7bd235eb1a1d940f7aab3738d3a36bb526a22d7e9687c9d5959afca4943601b9641cf737223da15406e58f2e315653355bb9af43b22f106485950ad6c10309e4274af28bb23f1fda333a1f91c13a133dcdd32033c761c6b797d23ccdc4007b0b43193b65a113222798a5a669873f3baae3909314c04fbb5dd8cf849b062b98486f3d0a96b3259fa97fdd01f2b2cf875a43edc285ec7332e814d016dbb9bb1b5a99f7ba872de706dbc9d7377e095fffb82e9016c34f52ed4ee34b5bee0dc25718cc1c37a37bfcf6d988e006d18b13ef88f11abfde4a552b909ef70d7a1b249e59b4453c98e96f23b2b3b5b3479d3f0626b0177380c1553966bb4a2cd0791e163ae1ba027ac15d3fee12b17beecaaefffef8494e50689d0d965be0ebeff4bd3dcdb3289d3945e9ac8fd50537d8817cf472428bd7d0207944e8e160cc500d4392c4e15108d7312e649a0b345bb615fc2a957125bcf46522989960cbcb8dd6d6c35a3b56ee3ba68d42825665fefd91ae09c164d0b6f2917f7922aa5054ca7c9f99eae9a8ad85259922d2e83000000",
  "txid": "c8ff504d923335101217eac1b9a6520bd6984db062c46185ed137b41de484b2e",
  "hash": "cbddc60496260b8c902fc2347fdc83b837c7e805536767ba51e3ccf9a98b3b54",
  "size": 5085,
  "vsize": 2278,
  "version": 1,
  "locktime": 131,
  "vin": [
    {
      "txid": "6fa70a004ea44f18b978d7bef8b41c6291f0ee5c1770852120ac739dc92922e9",
      "vout": 0,
      "scriptSig": {
        "asm": "",
        "hex": ""
      },
      "txinwitness": [
        "036005496cd85cf91f92f675780e7528141ed445361775d1d3392dc96a74409a824f24a66933988d7029739674bea0df6f3c005bcbb0808b8578bcacd753c6ae89072e694ce09881663fbdd2ec83b0d2e507c737f8554acaad2085175411733c9a5fe12b78b477946bb9e037e2feba5f8efb746338cc73a8678e63dbda57a7ea645054d6bb9efa1b0101436897f098a538222d414378f97b0beed8781dd13b50bb982433328b03d8c436d755c40acf59f57fcb42eb0a09ecc418ec38dfa7f30dcc36161873f3a0635ef11b5873fcfb00c6860af018bcda410300bb2676f46c4baf71aee9dfbc3d364d3076a8bbfa22378475c8233c4a5948a3d73317f669628a1a3bd64ea04f4d93ce5bff1c33cb7d5fc17d53ca360513c515d2361fa08734a731337ce5398bc36855f8adb8e4471ec8f594fcfcbc65f986413ffb727e50f73a05d0e3508e1728a8e8136dcdad718f6127f804b2acba8f8e403c86241b6ddb291e9e90a3819ef5bdf32f53536733ed2fa3b1f8eacaf121b4a6d53bc1b2b8b627dc4db88c414e88361f11f1351776aa25d6fd9292b2fe3db072aafc0961e6f23d3eb438ed71ba0529a5e7dcf61d0cf47584cd23bbe2f54f936005489382aa57dddddcc420e16a69f3f8f488c2f2d01831d82619882cbb296a68e52a75bc2bb0f37eb64162d0a2d9b9a7c31efb3f5140edba6fa63eb8ef616da7cf7922538cdfca97cf58468eb13f2ef38941cc04151f122ed3d9d6ce436cd12ba6a031030afccdf8875d9f71d7d61104b2803f9a29a4952d551c0cd4bfe41c8f717c48d418b48ef5b8a8faf90a8578a6224a117ca08a15e1c01401ab64ec60c3a289eed9fa99d1a8c4e62fe980993191861502343c1086004b25e7d152da2f5b95966fdcc7ee66a121390adb996e3ed03cddd793cc99ef1329c9bf92a708e7c803d06ccb09c12d2d3ced4f06b78a5c538ea89c33c2a2f9053b1a8e79410129250460fd369b1f32d8604da1fd32f04b373487872336b8484736179fd68119c86800c33e399a54ba47b430aa9f6b724eec8175b8fa95e0cd77b7daaff295a0c606a077097922489300261ab5fceaa6794472906587daca9ec85b853dfd57ae7d0eebf9b08abc766707cfe6c59b1a6c9dd543d3905514a605ff95be11ba23c2172f3f0b22195e01f2f2848bf5c7ce0663fc2660c60c3bcf7682f7621764e1f5ba0435a8f1c6080e64e160f819d490f8713ebd55b46bd131592f0ac7bc9c361bc61ce90d24c988d25d99676de1e5339bdcfd3b7b2e9fae4f86eeacbca05d9e291652a0a69ee579ca21e24c965dbfb0ae25f448738fe4756f45031fe617cd4cd98ebe506384d5421ca378bd0f6b8df6c83f9e5ffd119322949da2e73035eeff771fd575d476325eb77244713462d1f877830aa8f70a355f76944e9fa68cf00647c5cc98abb94629f350c080bdfcf14eb7241a1a6feced8abda2c652755d98a888859ca07785b550eb3c7210909bbf9ffd3fc4cb87300347ea39d9ed96f087f5b4076950827f6ada41bbe3cc68e44aa8ae17a969ca1f0f48b903800783f31953737c9b5d9d34687e89ad5255ceb5f4a8e1a96361899ed2164148b318eb853b82f8fa5fd3bb908ef02a8f1214bdc29abe0e427519bc7429afea604bc6f506b2f6e7c63c0ccd0d330f24a41db1ad5e07ddfe0d8b3e69ce7b570a317996b19ea44253f448cfe3e1d555321fdde326190a82f459dcbbf76cabcf1d9dcd6ade5d1e0c80d386cbbdaa87aa85c878b4210198efe3f3f21412b597e0d467180c3df97b885bb8e725cb8e2fdfce0bb47a91451edc3b0c693710720860133ee7857bb12a376c25cdca7f2c112a0a467bbec62b563d4c26a6999e0a8896bb66c85ab62ca81baac23531a1fb7ff6dabd9690adad8d1bd92cc35a4afdc975bfc541beaad6f2d46ef59b1bad7ab17042d99960e3c30b583200a92e5dae8d2744424ec3989ec2c875d2f30d046fef45336c92c1e62d9281c9eda6e8da04cc3f6c88c0f70124f0656a87d7270abfda057314bdfab370c9b4a7db117930c406b5f623fb62a4f04fd4d0e559afb7071b19ceefd14aca0b1dc6e7fe089cf54398e3c522cc5fe2cd0917e1a82e43e640bea7e1bb512d5303e84d12b27e525d3efff783a26063db832f22e9ff36fc7ee74f7645ed9440f9ca62fd396d2ca1dc91cdd3adc91a82cf25612a0f3a7e28f68861ac38fb308ea3f0ee5e78c1c519766cc92025d1c0d98f99284a1f61ae1547d225e720a4de334e69e0bd7d77f385872223dd653513e11a35c8d399e7f07d85f47b8c786641f21329d2ee247cb4822d37d29cc061f8ed5e6c79af205ece07f024a2b1ebc03285cbf577a8072e93bdf675d9e4b1d5af8ea285fdfe28be73ebddfd669ef4f26d82a5ba4781ddf2cff260ecde5a7a3f8e91c32b9cd275198d829f293262506f629315f7f6d46d353a28c60d07ea25f5752037b8f78e9b3f86e1e7426b22c9869ede5975f9ac3e7d9c78134f1d88094c2066ed40f08a74ad83c1e3ff2625ca6df8cae4408a59f186e699a25dec38870ff8a2989afdf839d16e936060cff5fdc3694382839626b3b09e31d317f00aa0bf44153f48112f48d508f7a972532334be1832b1d453383c74a9c433befe0cd313b4b3f21ea83d9611a35c4b00de59ec80b6c92107538437483c519f69d6c78eff21e5993a7cb7e1ed00083e4933c5f3450580464058300b12aabd93f3c01a58c027992877e695346853c90b9536e91e7e46c2f8a3a87dcb62eb94febc34621b062d269d08d54e7e158d0a83980ff5825ce23e8bf90f61e90c2e85864dd64a98308810cc3a5d3fef2bdddb05ace11b60b0f5ee8c0ee426cd82cf612f95dda1ea5753b7cd125ea2466dacc1ee2a7febeb98286da90e70299d21029d268c8b1aaadda053227d3b3c8e394783723f22320b92935dfdce5cae7744edfb5f3ad1df1f7dc1cca641c8e25778126b009a4bcf3faee3117a6a22a8fbf9ece1653b492f8306970b3cfe2b8ce13a91a109fe84f9f372f86b683b7bf3339d6506da0059945afc3809c683fce850fc8746f0d08363a92d6cc9745949657e60285b1bf7e5f8f8dfcf7f853e98c28d00248b04657ee7c781eb51c57cb1607ccb6792e057896ac380eb3153efd9a0c84802fa7af5cd6e2db61cd0967802903280602a9bfdf9bee9d21cd01ff40d32ebb14777f5c4baf70cd933c102a24266e407b64a46642a7b7ccf520df8abedd6f74a6652d82073a2ea0da6ddf7830c90dbbc82c70e0c266a351b1fad0027abf59cffd895ade8c5602eb9171d2325535781a5acafb8c6cf1c344647494f72757bb3b4b7babbccd7dd1014163c434754848b9096aaafc4cd0f111a28395559cdd7dbdce4f2f60000000000000000000000000000000000000000000d1e2d3b01",
        "00b13887ee7dd979cac080222c333a9be465cff9fd3ab626cbd3f2e41040ba8a41aa6f967f6f7579fb6e05c7aa2d3de66826ac09b3325604e66b76dac86179e3294f7de11d7ee86ea44b682da1247be89cef17cf07e7ff798b2b7a86c260aee97b5825668b85f4313350e77c93dde268253c331b508a44d291662d9260ba41ed5513b9b29ab1e306a19ce448d90e7ef72c74ea292f9e1fe45890d5c7e57648d71c394b4af3c1d606f6f176207eff40694f3ba77e4c9b82be2a2cee39be7eca9b1b11f03496683d709c6d9a0308be869dde2b2c630c19b9bdf8288c8bc302c0f224767e582649282dc94f3a86ca4f22e1ab2c4e46a48533384a4e67f9918b73a647008417b93a10d8b6b6de84120473aeb1b3d81e266ae32dc28a40e8d3d55bd3fac2857a9aa2a58198fb2e2c27daa1f713a84efad18190f606f33e0cfc7590d780351e56cb095f662130d24974d95db4f7ad611d709e9baa53671da20612c50690065eef058baf296365ca6855a6497514aa8eda568d22bbcc6f05a8757ca54e77bd84fec1c13f6f182d597cbc1cfdb91b6fc627c3501dfbc9bc509497826bddeaabb2e2a0a4e36633d4b4da14a00df4ec407b1c464a55607940c24c37d647dde1ee40df8cfe0518ebfd2d36062f2f6b411d034e4675eac15d8323164e2a7d7612dafa54e5cfc4a9c5d46035ce675e9bdedacf9a6d5a8478df3c995e156369b96ed250866ce9ab3d07650b417ed6c354fda6b18aabd2cc4b222bac2ed8e83db95ea6b5191fd1db7bd6a381b0fdd595374fe1c3d9d61df55c00916fc98044829d6d58ebb0d717a6c6ba49787990dc149b13a99eb7016388d849cea3268da5448dc608e1a912731a3e85426061aedaaef4eb2922f64fa5aeb1e71f1464036bb3064dd6cd18059d20f12ab3dbf2f739e66acaf94cb3f9d367aa157349035bda337f116d3a53edb03bcee36a0a98bf2e7e31b6bc8c062f42899405a07644e3c392efcb67e6e43b636cbc869119dc0c016929d0b70b7cf8822ea49c0bac2d398ec0d6735f97d5a028ff0c72ff6ec38a4e8b6c0a2e968e6c982e39bb3b75533cccc9ada0a2355421ceadf0058dfc8ab7c51b349a9dcd37e1b1bb00838693eaed5b098eb4b22269a0e4d8f5d1e59ce64bbbdb280d594dbcc45828bb8150b3eda066d2ccdabb9b1481faf52fc238bcb7370beb184e03a7a96b3584607218a13660dec08b591ef3728e560e014ff4011abb1fa6ce84ec7ed3e00513cd0b9d9bcbfdccd0386653402ed9f6a79d400a6f0abdf5b1c4ec508da4f5ed5835d7bd235eb1a1d940f7aab3738d3a36bb526a22d7e9687c9d5959afca4943601b9641cf737223da15406e58f2e315653355bb9af43b22f106485950ad6c10309e4274af28bb23f1fda333a1f91c13a133dcdd32033c761c6b797d23ccdc4007b0b43193b65a113222798a5a669873f3baae3909314c04fbb5dd8cf849b062b98486f3d0a96b3259fa97fdd01f2b2cf875a43edc285ec7332e814d016dbb9bb1b5a99f7ba872de706dbc9d7377e095fffb82e9016c34f52ed4ee34b5bee0dc25718cc1c37a37bfcf6d988e006d18b13ef88f11abfde4a552b909ef70d7a1b249e59b4453c98e96f23b2b3b5b3479d3f0626b0177380c1553966bb4a2cd0791e163ae1ba027ac15d3fee12b17beecaaefffef8494e50689d0d965be0ebeff4bd3dcdb3289d3945e9ac8fd50537d8817cf472428bd7d0207944e8e160cc500d4392c4e15108d7312e649a0b345bb615fc2a957125bcf46522989960cbcb8dd6d6c35a3b56ee3ba68d42825665fefd91ae09c164d0b6f2917f7922aa5054ca7c9f99eae9a8ad85259922d2e"
      ],
      "sequence": 4294967294
    }
  ],
  "vout": [
    {
      "value": 499966.4423,
      "n": 0,
      "scriptPubKey": {
        "asm": "1 15e9d27a93f29756a6ff920f38a4c03b188501728c82c41ac5ddfa9acf90694b",
        "hex": "512015e9d27a93f29756a6ff920f38a4c03b188501728c82c41ac5ddfa9acf90694b",
        "reqSigs": 1,
        "type": "witness_v1_scripthash",
        "addresses": [
          "3QJmnh"
        ]
      }
    },
    {
      "value": 1.0,
      "n": 1,
      "scriptPubKey": {
        "asm": "OP_RETURN c81120008cdee6da6a9daa8a696a6a0cf0073d8a12cbecbe99a529559c3cfda7 8be42c9d790dd35355f9906b0ce972941c6609e22b4968934f584f59d901a397abc40cbd592df37375d9b04b2cc952b43c4629c20b6948b36f786f79f92183b7cba46cdd394d931315b9d02b4ca932d45c2649a26b0928d30f180f199941e3d7eb844cfd196db3333599f00b6c8912f47c0669824b2908f32f382f39b961c3f70b64ac1df98d53d3d57910eb8c69f2149ce68962abc9e813cfd8cfd9598123172b448c3dd9ad73f3f55930cbac49d234bcc6a9428be9c833eff8eff979a103374b24ec5db9cd1393953950abcc29b254dca6c922eb89a8538f988f9919c163576b04cc7d99ed33b3b519708bec099274fc86e902cba98873afb8afb939e143778be42c9d790dd35355f9906b0ce972941c6609e22b4968934f584f59d901a397abc40cbd592df37375d9b04b2cc952b43c4629c20b6948b36f786f79f92183b7cba46cdd394d931315b9d02b4ca932d45c2649a26b0928d30f180f199941e3d7eb844cfd196db3333599f00b6c8912f47c0669824b2908f32f382f39b961c3f70b64ac1df98d53d3d57910eb8c69f2149ce68962abc9e813cfd8cfd9598123172b448c3dd9ad73f3f55930cbac49d234bcc6a9428be9c833eff8eff979a103374b24ec5db9cd1393953950abcc29b254dca6c922eb89a8538f988f9919c163576b04cc7d99ed33b3b519708bec099274fc86e902cba98873afb8afb939e143778be42c9d790dd35355f9906b0ce972941c6609e22b4968934f584f59d901a397abc40cbd592df37375d9b04b2cc952b43c4629c20b6948b36f786f79f92183b7cba46cdd394d931315b9d02b4ca932d45c2649a26b0928d30f180f199941e3d7eb844cfd196db3333599f00b6c8912f47c0669824b2908f32f382f39b961c3f70b64ac1df98d53d3d57910eb8c69f2149ce68962abc9e813cfd8cfd9598123172b448c3dd9ad73f3f55930cbac49d234bcc6a9428be9c833eff8eff979a103374b24ec5db9cd1393953950abcc29b254dca6c922eb89a8538f988f9919c163576b04cc7d99ed33b3b519708bec099274fc86e902cba98873afb8afb939e143778be42c9d790dd35355f9906b0ce972941c6609e22b4968934f584f59d901a397abc40cbd592df37375d9b04b2cc952b43c4629c20b6948b36f786f79f92183b7cba46cdd394d931315b9d02b4ca932d45c2649a26b0928d30f180f199941e3d7eb844cfd196db3333599f00b6c8912f47c0669824b2908f32f382f39b961c3f70b64ac1df98d53d3d57910eb8c69f2149ce68962abc9e813cfd8cfd9598123172b448c3dd9ad73f3f55930cbac49d234bcc6a9428be9c833eff8eff979a103374b24ec5db9cd1393953950abcc29b254dca6c922eb89a8538f988f9919c163576b04cc7d99ed33b3b519708bec099274fc86e902cba98873afb8afb939e143778be42c9d790dd35355f9906b0ce972941c6609e22b4968934f584f59d901a397abc40cbd592df37375d9b04b2cc952b43c4629c20b6948b36f786f79f92183b7cba46cdd394d931315b9d02b4ca932d45c2649a26b0928d30f180f199941e3d7eb844cfd196db3333599f00b6c8912f47c0669824b2908f32f382f39b961c3f70b64ac1df98d53d3d57910eb8c69f2145f1b3a92118b92f3d27339cca7a7635136e398d65c972058c7834c7922f687e8",
        "hex": "6a20c81120008cdee6da6a9daa8a696a6a0cf0073d8a12cbecbe99a529559c3cfda74db0048be42c9d790dd35355f9906b0ce972941c6609e22b4968934f584f59d901a397abc40cbd592df37375d9b04b2cc952b43c4629c20b6948b36f786f79f92183b7cba46cdd394d931315b9d02b4ca932d45c2649a26b0928d30f180f199941e3d7eb844cfd196db3333599f00b6c8912f47c0669824b2908f32f382f39b961c3f70b64ac1df98d53d3d57910eb8c69f2149ce68962abc9e813cfd8cfd9598123172b448c3dd9ad73f3f55930cbac49d234bcc6a9428be9c833eff8eff979a103374b24ec5db9cd1393953950abcc29b254dca6c922eb89a8538f988f9919c163576b04cc7d99ed33b3b519708bec099274fc86e902cba98873afb8afb939e143778be42c9d790dd35355f9906b0ce972941c6609e22b4968934f584f59d901a397abc40cbd592df37375d9b04b2cc952b43c4629c20b6948b36f786f79f92183b7cba46cdd394d931315b9d02b4ca932d45c2649a26b0928d30f180f199941e3d7eb844cfd196db3333599f00b6c8912f47c0669824b2908f32f382f39b961c3f70b64ac1df98d53d3d57910eb8c69f2149ce68962abc9e813cfd8cfd9598123172b448c3dd9ad73f3f55930cbac49d234bcc6a9428be9c833eff8eff979a103374b24ec5db9cd1393953950abcc29b254dca6c922eb89a8538f988f9919c163576b04cc7d99ed33b3b519708bec099274fc86e902cba98873afb8afb939e143778be42c9d790dd35355f9906b0ce972941c6609e22b4968934f584f59d901a397abc40cbd592df37375d9b04b2cc952b43c4629c20b6948b36f786f79f92183b7cba46cdd394d931315b9d02b4ca932d45c2649a26b0928d30f180f199941e3d7eb844cfd196db3333599f00b6c8912f47c0669824b2908f32f382f39b961c3f70b64ac1df98d53d3d57910eb8c69f2149ce68962abc9e813cfd8cfd9598123172b448c3dd9ad73f3f55930cbac49d234bcc6a9428be9c833eff8eff979a103374b24ec5db9cd1393953950abcc29b254dca6c922eb89a8538f988f9919c163576b04cc7d99ed33b3b519708bec099274fc86e902cba98873afb8afb939e143778be42c9d790dd35355f9906b0ce972941c6609e22b4968934f584f59d901a397abc40cbd592df37375d9b04b2cc952b43c4629c20b6948b36f786f79f92183b7cba46cdd394d931315b9d02b4ca932d45c2649a26b0928d30f180f199941e3d7eb844cfd196db3333599f00b6c8912f47c0669824b2908f32f382f39b961c3f70b64ac1df98d53d3d57910eb8c69f2149ce68962abc9e813cfd8cfd9598123172b448c3dd9ad73f3f55930cbac49d234bcc6a9428be9c833eff8eff979a103374b24ec5db9cd1393953950abcc29b254dca6c922eb89a8538f988f9919c163576b04cc7d99ed33b3b519708bec099274fc86e902cba98873afb8afb939e143778be42c9d790dd35355f9906b0ce972941c6609e22b4968934f584f59d901a397abc40cbd592df37375d9b04b2cc952b43c4629c20b6948b36f786f79f92183b7cba46cdd394d931315b9d02b4ca932d45c2649a26b0928d30f180f199941e3d7eb844cfd196db3333599f00b6c8912f47c0669824b2908f32f382f39b961c3f70b64ac1df98d53d3d57910eb8c69f2145f1b3a92118b92f3d27339cca7a7635136e398d65c972058c7834c7922f687e8",
        "type": "nulldata"
      }
    }
  ],
  "blockhash": "3357cb4dc001b5acbac31fcce3a77df76b11eaba9a4d126a2528d529fe11213e",
  "confirmations": 1,
  "time": 1764182290,
  "blocktime": 1764182290
}