{
  "hex": "01000000000101bbc57d034174d635c2285560d2815b10eb686af6a3dc649f71026c85d2bdf3e80100000000feffffff0200e1f50500000000fdd5046a20db0a015764e91933a07d114251ad46e8e067f643300138e7a5c7b9dec6daab564db0043f131d55cd495de57929c5cbef20cee3589047635261cbd14f348c76703de73b1f333d75ed697dc55909e5ebcf00eec378b067437241ebf16f14ac56501dc71b7f535d158d091da53969858baf608ea318d0072312218b910f74cc36307da77b5f737d35ad293d851949a5ab8f40ae8338f027033201abb12f54ec16105d875bbf939dd54dc9dd65f9a9454b6fa04e63d810c7e3d2e14b51cfb40cf6f0bd67bb9fb3bdf56de9fd45d989656b4f806e43f830e7c3f2c16b71ef942cd6d09d479bffd3dd950d899d25b9e9050b2fe00e23985087a392a10b118ff44cb6b0fd27fbdff3fdb52da9bd0599c9252b0fc02e03b870a783b2812b31afd46c9690dd07db3f131d55cd495de57929c5cbef20cee3589047635261cbd14f348c76703de73b1f333d75ed697dc55909e5ebcf00eec378b067437241ebf16f14ac56501dc71b7f535d158d091da53969858baf608ea318d0072312218b910f74cc36307da77b5f737d35ad293d851949a5ab8f40ae8338f027033201abb12f54ec16105d875bbf939dd54dc9dd65f9a9454b6fa04e63d810c7e3d2e14b51cfb40cf6f0bd67bb9fb3bdf56de9fd45d989656b4f806e43f830e7c3f2c16b71ef942cd6d09d479bffd3dd950d899d25b9e9050b2fe00e23985087a392a10b118ff44cb6b0fd27fbdff3fdb52da9bd0599c9252b0fc02e03b870a783b2812b31afd46c9690dd07db3f131d55cd495de57929c5cbef20cee3589047635261cbd14f348c76703de73b1f333d75ed697dc55909e5ebcf00eec378b067437241ebf16f14ac56501dc71b7f535d158d091da53969858baf608ea318d0072312218b910f74cc36307da77b5f737d35ad293d851949a5ab8f40ae8338f027033201abb12f54ec16105d875bbf939dd54dc9dd65f9a9454b6fa04e63d810c7e3d2e14b51cfb40cf6f0bd67bb9fb3bdf56de9fd45d989656b4f806e43f830e7c3f2c16b71ef942cd6d09d479bffd3dd950d899d25b9e9050b2fe00e23985087a392a10b118ff44cb6b0fd27fbdff3fdb52da9bd0599c9252b0fc02e03b870a783b2812b31afd46c9690dd07db3f131d55cd495de57929c5cbef20cee3589047635261cbd14f348c76703de73b1f333d75ed697dc55909e5ebcf00eec378b067437241ebf16f14ac56501dc71b7f535d158d091da53969858baf608ea318d0072312218b910f74cc36307da77b5f737d35ad293d851949a5ab8f40ae8338f027033201abb12f54ec16105d875bbf939dd54dc9dd65f9a9454b6fa04e63d810c7e3d2e14b51cfb40cf6f0bd67bb9fb3bdf56de9fd45d989656b4f806e43f830e7c3f2c16b71ef942cd6d09d479bffd3dd950d899d25b9e9050b2fe00e23985087a392a10b118ff44cb6b0fd27fbdff3fdb52da9bd0599c9252b0fc02e03b870a783b2812b31afd46c9690dd07db3f131d55cd495de57929c5cbef20cee3589047635261cbd14f348c76703de73b1f333d75ed697dc55909e5ebcf00eec378b067437241ebf16f14ac56501dc71b7f535d158d091da53969858baf608ea318d0072312218b910f74cc36307da77b5f737d35ad293d851949a5ab8f40ae8338f027033201abb12f54ec16105d875bbf939dd54dc9dd65f9a9454b6fa04e63924f60a2aa762d1f60346991c2934d60bbb49d869035c9fb5b10bfb1328916aec075fe6f792d0000225120738c53a452a51ff509b3261409d32098238adb452b3a38d96d37dbaf044761d502fd7509b7dd5afd37fd0bce22116550e7f0f1b4b3c571a1b9acd375d43673d7410cdec53a0d6785132771f351c3c82c60140cfd6f86f39b6c52e831d1435032e786c7c229d2b4145a5384e164e60165853cceca02b6fcedc1589fb04c193c3a22da843dfbbd1ccfd320cbc0108070952d2336cfd76a0641212192bbfc1638be2d5197171227d5009a759a88548cccdf7288014fa4a2a6656650da61723951aa9394e14bde3e95b13505802a6b5407471dca18df286b287e308f649f3cde246b1be1b260bc0b53a3dec7f4f17501ed86f9fca2769fd0d6686afdcacfdc62d23370d41e6e51c2ec212db1b79995f96fe927a4741fd387a6b5ef6109e4324ce2273761ad40ed600298ce45399123f6fd4dc41ef0fa77d1263dacf8b938bbc5df6fee6e1bae124ec3e9ba5f0e6ed83022bbd8ef816a974a3cc83675e32f85da7d194047543cf94eb1318a7a1df73a5fc5a45839f669322ed6cce9fbf9816bde0639af70f94f93a5ddcd656b6b2ec8ee45118b2f662409df9182bd08146f1b002e28956b5a5e5a1854cc827af4fedbc7912145beeedb0cbc8e7948bd56723daa37ed2130709f0156eb66d5d87307d8eeaa19aa32312307a401624269763a3fd6ab80179a1e96fb69d4870f09ac2dfeac08be8c514335c97a47ad1481786f2b8f4546cb4b2e506e308719ccd2672352296fb3aaad265293f70d23032b2bb53f563919791f7e01acc9dd4b1563e0bfe816f8643715d6aa2351dd7dc52496013a7663a73b5894e88a6c2d6de13bbbfc15b48c871d878f88beb1aab8f79265a2d3eab7f64b8b57e84e2b6f2c596e0e9ed61fc140d49b89f339fa4ae5d72d5a37cd983aadc0d241de4404a0234f128d5fac5990c9d59fba747878f5370c26c1a7d2e3e16b6fec5c5a422fd4a8cd95d10f63dca44fbc645f79e6fa511fcb8b153dd55281df4211aa657839c3d2a877a0f4f685f70e0d77b1747689b9b4783e9a19e02db266e6b5cf956de832b2c46776e38fe90d9b1f6d147e4dc8d7bd0b06f95cacd99da1d5c144bcddbd1bb7ba455d9d195f18f65e3922eb3f6ca248c51d3183eca48dbe5958da75cd7f0fa04a4d5890c2e0bdfcab03a12b737852881b953149bb81e1d109835c979e89cae27ad240881a3ba52d67f22a9260a95f2843418226e5389313211929642bc07141dc88cef25a29a621f89691246f6a2ec23baeadb7fabf679c0cacb7b06959bc17768f0645a878cdcfbf5a0aa53d6c17a73ca9c292d91ecc7451cf9c573179b9549a9c0476e5c74faab8638612ad4d912072b9ca7bc9f4cfe5a488d61c0da263e3e89203402582eeaf16e05401d26cb38ef77bfc055b6aae56b513b3f5f40e5a31e3e500ded803d458886e62afd4e603331f7d4584cf729c813f704fb2056fbf977a44807a2573b157b0693ba5c4e8f34bd0ef72dd16990c31257ff410d8567fe98943acaf55a2f0360954c5225f75dc51315ad5f12c71787bb484f03e62bd4c55b4f09a63bda789e1258e63ddf14b1ed8e66bed4d963069a440bed0c2b98255e01eb07b46649e00e252af3ca045e57b28286dc8cb1e160c359b66e61b409218b0c2fd139bd9fcc9cf65647f47740747b45fae5d79aea9ee8fb82551b9b418a6c173a5d517731ce0d12d840386fd5e6a7ea993f016188bb665cbf1f48e6cefe03395018f8dd555dda65284b1670ed85dd8f6433c8df89f3dbee0cc6df4616bd722ac223f8224b360b3b7a2d0c900d1dfa4ff4df5427db1a08bc8d3015edf399fdbf65d39e50caa9ab4a32a9a1dfda71f83a1d076144c6bceef639148b1e86af1fdfdbd5e1405f456c3bc3f97fd8a44c0368728ddb1c66bde9f72386e710de6a6174a84026121992e917735e7b593482d25ca1ca8a09bc67d3f02d85b11614462e985e4447422c0076d49529a47c7216557b6cbf7299f1f7b8149c1fee32c22c37b48702a4122f3a2a0c62992afbb4249e19f91ee4629a14ebdb9e2b194aa5d4eb8d1788eebabe68d083ecdd4ffc5c11898d90d11c9bc480e382c4fd817b59677c0c09495fe8ecb0a38b050cb40f10eb5e849000841e442d43f9a6cbf9dbfbc8fdbc48f3c592c03c55b9a147d296b76fd4f583a736e99a9fdce60d751f4885c3f895be12b40c4aa0759aa38a047540e31cda1251174af243fc5dbb221463b82eb33dda0ee01f4332d9bd42d12debe0c498ea43edc2b24edb7f02dc5752c1e76db91f2973fa1f0a9a523dc8b2fb85fceebe9d9ee7ea84cdd4dbf42a7aa056a86a78e8955d0fa03e6e3baa56cce324a98445f980f7b7db2d3905479602302cda7bebfde2692a65c214d45e73ead7af75da5dac7b7fe99f9212bea8f2cd689f7fb7a92f4074e69e411be96f1ac7c52ba833f73488be7ed8a1852bb59715f092117b3c23d473ebfa87a547630e348cda6407c25d5ff0d9a75923f62130718b4407baf7ea3c9d40cbe90769ae77166a6a833870286ce1f516021db262e0e4d49062c4d1f3b998579ba84ea70981d55531b4345aea9d211f73563355f2ffc5f534594378d26d8ea8b4960ae299c8e865c297b6c5ff2e76b66cd1b8e6290ddd5a9c1eb01b54636aa0270c28bdcaef7cb288514111db03c33665faf3a8595f930cd0eaf70dda99280da1127b8a83fe8418ebf9e353bf1d9b2b7760b4565c06718662b6a8a4d27d5f266a97e0953d7951d1984e0a9447493bd5a225194c8e1bb07f5a3ae9820486ffe6b9a4061acda99317d2befb6853b938602ea949d775fdcd8b3b5535debf418b86f867055599866215b71f73d57c94c424969e6b72471512a9ece2b7b5ceebd41d77388cfe41cf9844ed970e07fcb976411a653a1e933c284c5580fa662ea4a3f0e215c1badba0275ec6f1068f152bb604b080e43250af890e6f6ca0eb9b4326fed17aa1d13521aa9c36c13c9afd78d937bf2d35010c8b952492096ccd7dda6d5927b80076bb3b5d368a74c979f4f0cdefe69f66dcb2ffe69b3271cd7d0aa82ecd1b74a6fcc3e0e44c9b1a756a74d733474f5deeb9f88f942be112ec94f67f509b48388690b5dcab2b659505aa250325b6a871572c9a601677461c789526a9aab3e81ee09daec7441ab2f3520d481367832faf1b18fc856fd47eac6c4a45f1286225ad8f01cd20992fbb3bb9f41a0aaa311c28916fee93e532305fd6c034ab256e33b0b26a7b21fee51be9be583e1d19e3f9715533c0f6a7be119259198bf27a8e6c28d793d919806b5fa3b327a943e97bc0a5039bd37231e164017ae5139ac0d31179e1e22371b62bc465adbad52071ff91f097243c7d548e505083147607d8196aeb9bac6d8e2e82628435c6382a1b9ebf0f1f70018203f459b9fb4b7bf010217202f3e59626e6f8ca1c9e3e6000000000000000000000000000000000000000000000000000000000f1b253401fd210500a259744fdfc6acb59340205904e5ed50bc2f8e81321d2e317b00d25d680259eb7947347b920c3c1995a63ef32da7fb88bbbb76d53f12c1e9cb592c0e8228d63c02f8a90494820560a2b455bbb2a8940f6012a109e952526c13375be14190306fabb1257acce098c7382c71b2b621d5a7708b4528ef1a95abcfbfe28ddb41876640a0dea18b3614db5ff15c0abaf9f022ad10fca25bc1514faf22cf24cb7dc1d003f389f6e4fa96f7ffc21d31b38f9409f6a2608fdc1cb554c8211df293be4692c782310fcfd175864579ef507df7fdef72edbeea432cad8143c3f22dbd31233a2920e713b94fb3abaa24f3b07c2147023c351c3197807eed3b32cb10a931c498f602422e851828d78b71f3939f887f4d24ae9967aa5423e858ce28dfb51d66f402bb9de5038c74b90b8a067804398709f2474e50bc1c1981a047d6782bd833ab7d2629034262ad8e56c50a54bf98ec1d67c79ef5f8ea35541df9c64589b297d64cd9f6588f66ba321f210f57b2f7cd1a07da2064dd475582b97513b96e80704cb4f5a9af35987a1000ba87d1d9e51757df0f4c133a66ff2011ea4ea191e93d47c62b2b9e1d2f9982143257e4e417b2b38f97c1b8b25e29705cacfbb31a17687ab00984dbc400b1c2fb949fe43277ebf6fb40dfbb0b7eebdae7da7d5922810bed71d0e1e09ac7a6642966a30fa5eae2d779961ef9dee46f01840ca0981a3b6b2933718a419faa233a57f1242bd612f5f928021f0d81bf5b2c5ee4ae9832cbc448599e530138ab6faccd918d82efad60402fbf0c01bdca8f3f3843bfde3c0f02a93c3ab532a1c8278ae25d98370ebfa92cead4011e9eb6e0d6331f3e2da57d778896f90e99f817343608d6a025158612de8ee117e6410c0b14f6fe4244a6a83ce3f1efd0b01d9250a9539c78fac865b0e756c5b0011a2c1d093fd6c2b76a730c200349c93a93555d53363995fcc2a9e2c677550741071d38626faeb3a94ea5954bc2dd976e91da2820b2e8a01bf829807d9524a3f7339afe0cbceff974ee00b574641e13224cf687ab405021dfbfbc472bb5db1083c1eeb555679d4ca0825aef93fd1a84193758d093177969b16073c756cc72d86dd324e212e8bf77ee35c7be0e927f448bd582c60adb68978f062c86dcf3b0fa150e97c764170b0bec7b22560ab8d720df1e9d5c224d921d7a4ae04aa7f177e1e39445682eefcbbadc390d1da82bccd8cd7e5adcdac98233f989c9895aa45b6aaa35f81f24e7923ee85b37ee20fb4449cb78898f5e05d710ae82def38f48d6f9903db8651f5f93c0a5b48df7d1d7d0ee7fd0d93f1d51296f420fea2751279e9f43356582c553d484a6bce87343187023de94ea40be091fd7923223aa7a30fe939c17ce93924e0c7f86c394d916287b70a74c526821d58a8f1498e207324c221d56758d463c9d69ce32f22687bdca74838ed6ec911cbe15859f4f47edcfe600fe819dcd4427d8effebb0f000d66867dcf38ac38a9164f1dbae7a02e970d888b0a84c71edfd9ae1f761ff1e5af9b354eb0e145fe72338a12e20105ab462532889cffd2d0dda626e41038339b210f7e91c99b69d23144d1d27fffab2fda775677eb2c587cc23dad1bbae50d052b1b12447f3b815ebf2842bdfeb56c8eba3eafbd42e90d63a3beca484efa1f0f2d4b61284a9556709ae912f7b7919278939e4062bb61b0e06beab4f381785351d17a33a26947d5dd8d5a1debd609d508325a575a46da0f4d436489c3ddad78e97685ad1b097bde396f2c6bdce3a2802875edda3ce345e8b1bc8d89d60256cce1d674fa7d6ead6eaaf88a2d069f2fdae3ae64c8b636264ca099a7a3e38b56118ef5ad3a000000",
  "txid": "cbbf10e5f139477e2b947013f66e0abba5a51caf70e58e08d55127b939388555",
  "hash": "8b27172953a34e0ee986c6a8311faeb4edb38794d1d73e6a2f17b18a84e034c5",
  "size": 5085,
  "vsize": 2278,
  "version": 1,
  "locktime": 58,
  "vin": [
    {
      "txid": "e8f3bdd2856c02719f64dca3f66a68eb105b81d2605528c235d67441037dc5bb",
      "vout": 1,
      "scriptSig": {
        "asm": "",
        "hex": ""
      },
      "txinwitness": [
        "b7dd5afd37fd0bce22116550e7f0f1b4b3c571a1b9acd375d43673d7410cdec53a0d6785132771f351c3c82c60140cfd6f86f39b6c52e831d1435032e786c7c229d2b4145a5384e164e60165853cceca02b6fcedc1589fb04c193c3a22da843dfbbd1ccfd320cbc0108070952d2336cfd76a0641212192bbfc1638be2d5197171227d5009a759a88548cccdf7288014fa4a2a6656650da61723951aa9394e14bde3e95b13505802a6b5407471dca18df286b287e308f649f3cde246b1be1b260bc0b53a3dec7f4f17501ed86f9fca2769fd0d6686afdcacfdc62d23370d41e6e51c2ec212db1b79995f96fe927a4741fd387a6b5ef6109e4324ce2273761ad40ed600298ce45399123f6fd4dc41ef0fa77d1263dacf8b938bbc5df6fee6e1bae124ec3e9ba5f0e6ed83022bbd8ef816a974a3cc83675e32f85da7d194047543cf94eb1318a7a1df73a5fc5a45839f669322ed6cce9fbf9816bde0639af70f94f93a5ddcd656b6b2ec8ee45118b2f662409df9182bd08146f1b002e28956b5a5e5a1854cc827af4fedbc7912145beeedb0cbc8e7948bd56723daa37ed2130709f0156eb66d5d87307d8eeaa19aa32312307a401624269763a3fd6ab80179a1e96fb69d4870f09ac2dfeac08be8c514335c97a47ad1481786f2b8f4546cb4b2e506e308719ccd2672352296fb3aaad265293f70d23032b2bb53f563919791f7e01acc9dd4b1563e0bfe816f8643715d6aa2351dd7dc52496013a7663a73b5894e88a6c2d6de13bbbfc15b48c871d878f88beb1aab8f79265a2d3eab7f64b8b57e84e2b6f2c596e0e9ed61fc140d49b89f339fa4ae5d72d5a37cd983aadc0d241de4404a0234f128d5fac5990c9d59fba747878f5370c26c1a7d2e3e16b6fec5c5a422fd4a8cd95d10f63dca44fbc645f79e6fa511fcb8b153dd55281df4211aa657839c3d2a877a0f4f685f70e0d77b1747689b9b4783e9a19e02db266e6b5cf956de832b2c46776e38fe90d9b1f6d147e4dc8d7bd0b06f95cacd99da1d5c144bcddbd1bb7ba455d9d195f18f65e3922eb3f6ca248c51d3183eca48dbe5958da75cd7f0fa04a4d5890c2e0bdfcab03a12b737852881b953149bb81e1d109835c979e89cae27ad240881a3ba52d67f22a9260a95f2843418226e5389313211929642bc07141dc88cef25a29a621f89691246f6a2ec23baeadb7fabf679c0cacb7b06959bc17768f0645a878cdcfbf5a0aa53d6c17a73ca9c292d91ecc7451cf9c573179b9549a9c0476e5c74faab8638612ad4d912072b9ca7bc9f4cfe5a488d61c0da263e3e89203402582eeaf16e05401d26cb38ef77bfc055b6aae56b513b3f5f40e5a31e3e500ded803d458886e62afd4e603331f7d4584cf729c813f704fb2056fbf977a44807a2573b157b0693ba5c4e8f34bd0ef72dd16990c31257ff410d8567fe98943acaf55a2f0360954c5225f75dc51315ad5f12c71787bb484f03e62bd4c55b4f09a63bda789e1258e63ddf14b1ed8e66bed4d963069a440bed0c2b98255e01eb07b46649e00e252af3ca045e57b28286dc8cb1e160c359b66e61b409218b0c2fd139bd9fcc9cf65647f47740747b45fae5d79aea9ee8fb82551b9b418a6c173a5d517731ce0d12d840386fd5e6a7ea993f016188bb665cbf1f48e6cefe03395018f8dd555dda65284b1670ed85dd8f6433c8df89f3dbee0cc6df4616bd722ac223f8224b360b3b7a2d0c900d1dfa4ff4df5427db1a08bc8d3015edf399fdbf65d39e50caa9ab4a32a9a1dfda71f83a1d076144c6bceef639148b1e86af1fdfdbd5e1405f456c3bc3f97fd8a44c0368728ddb1c66bde9f72386e710de6a6174a84026121992e917735e7b593482d25ca1ca8a09bc67d3f02d85b11614462e985e4447422c0076d49529a47c7216557b6cbf7299f1f7b8149c1fee32c22c37b48702a4122f3a2a0c62992afbb4249e19f91ee4629a14ebdb9e2b194aa5d4eb8d1788eebabe68d083ecdd4ffc5c11898d90d11c9bc480e382c4fd817b59677c0c09495fe8ecb0a38b050cb40f10eb5e849000841e442d43f9a6cbf9dbfbc8fdbc48f3c592c03c55b9a147d296b76fd4f583a736e99a9fdce60d751f4885c3f895be12b40c4aa0759aa38a047540e31cda1251174af243fc5dbb221463b82eb33dda0ee01f4332d9bd42d12debe0c498ea43edc2b24edb7f02dc5752c1e76db91f2973fa1f0a9a523dc8b2fb85fceebe9d9ee7ea84cdd4dbf42a7aa056a86a78e8955d0fa03e6e3baa56cce324a98445f980f7b7db2d3905479602302cda7bebfde2692a65c214d45e73ead7af75da5dac7b7fe99f9212bea8f2cd689f7fb7a92f4074e69e411be96f1ac7c52ba833f73488be7ed8a1852bb59715f092117b3c23d473ebfa87a547630e348cda6407c25d5ff0d9a75923f62130718b4407baf7ea3c9d40cbe90769ae77166a6a833870286ce1f516021db262e0e4d49062c4d1f3b998579ba84ea70981d55531b4345aea9d211f73563355f2ffc5f534594378d26d8ea8b4960ae299c8e865c297b6c5ff2e76b66cd1b8e6290ddd5a9c1eb01b54636aa0270c28bdcaef7cb288514111db03c33665faf3a8595f930cd0eaf70dda99280da1127b8a83fe8418ebf9e353bf1d9b2b7760b4565c06718662b6a8a4d27d5f266a97e0953d7951d1984e0a9447493bd5a225194c8e1bb07f5a3ae9820486ffe6b9a4061acda99317d2befb6853b938602ea949d775fdcd8b3b5535debf418b86f867055599866215b71f73d57c94c424969e6b72471512a9ece2b7b5ceebd41d77388cfe41cf9844ed970e07fcb976411a653a1e933c284c5580fa662ea4a3f0e215c1badba0275ec6f1068f152bb604b080e43250af890e6f6ca0eb9b4326fed17aa1d13521aa9c36c13c9afd78d937bf2d35010c8b952492096ccd7dda6d5927b80076bb3b5d368a74c979f4f0cdefe69f66dcb2ffe69b3271cd7d0aa82ecd1b74a6fcc3e0e44c9b1a756a74d733474f5deeb9f88f942be112ec94f67f509b48388690b5dcab2b659505aa250325b6a871572c9a601677461c789526a9aab3e81ee09daec7441ab2f3520d481367832faf1b18fc856fd47eac6c4a45f1286225ad8f01cd20992fbb3bb9f41a0aaa311c28916fee93e532305fd6c034ab256e33b0b26a7b21fee51be9be583e1d19e3f9715533c0f6a7be119259198bf27a8e6c28d793d919806b5fa3b327a943e97bc0a5039bd37231e164017ae5139ac0d31179e1e22371b62bc465adbad52071ff91f097243c7d548e505083147607d8196aeb9bac6d8e2e82628435c6382a1b9ebf0f1f70018203f459b9fb4b7bf010217202f3e59626e6f8ca1c9e3e6000000000000000000000000000000000000000000000000000000000f1b253401",
        "00a259744fdfc6acb59340205904e5ed50bc2f8e81321d2e317b00d25d680259eb7947347b920c3c1995a63ef32da7fb88bbbb76d53f12c1e9cb592c0e8228d63c02f8a90494820560a2b455bbb2a8940f6012a109e952526c13375be14190306fabb1257acce098c7382c71b2b621d5a7708b4528ef1a95abcfbfe28ddb41876640a0dea18b3614db5ff15c0abaf9f022ad10fca25bc1514faf22cf24cb7dc1d003f389f6e4fa96f7ffc21d31b38f9409f6a2608fdc1cb554c8211df293be4692c782310fcfd175864579ef507df7fdef72edbeea432cad8143c3f22dbd31233a2920e713b94fb3abaa24f3b07c2147023c351c3197807eed3b32cb10a931c498f602422e851828d78b71f3939f887f4d24ae9967aa5423e858ce28dfb51d66f402bb9de5038c74b90b8a067804398709f2474e50bc1c1981a047d6782bd833ab7d2629034262ad8e56c50a54bf98ec1d67c79ef5f8ea35541df9c64589b297d64cd9f6588f66ba321f210f57b2f7cd1a07da2064dd475582b97513b96e80704cb4f5a9af35987a1000ba87d1d9e51757df0f4c133a66ff2011ea4ea191e93d47c62b2b9e1d2f9982143257e4e417b2b38f97c1b8b25e29705cacfbb31a17687ab00984dbc400b1c2fb949fe43277ebf6fb40dfbb0b7eebdae7da7d5922810bed71d0e1e09ac7a6642966a30fa5eae2d779961ef9dee46f01840ca0981a3b6b2933718a419faa233a57f1242bd612f5f928021f0d81bf5b2c5ee4ae9832cbc448599e530138ab6faccd918d82efad60402fbf0c01bdca8f3f3843bfde3c0f02a93c3ab532a1c8278ae25d98370ebfa92cead4011e9eb6e0d6331f3e2da57d778896f90e99f817343608d6a025158612de8ee117e6410c0b14f6fe4244a6a83ce3f1efd0b01d9250a9539c78fac865b0e756c5b0011a2c1d093fd6c2b76a730c200349c93a93555d53363995fcc2a9e2c677550741071d38626faeb3a94ea5954bc2dd976e91da2820b2e8a01bf829807d9524a3f7339afe0cbceff974ee00b574641e13224cf687ab405021dfbfbc472bb5db1083c1eeb555679d4ca0825aef93fd1a84193758d093177969b16073c756cc72d86dd324e212e8bf77ee35c7be0e927f448bd582c60adb68978f062c86dcf3b0fa150e97c764170b0bec7b22560ab8d720df1e9d5c224d921d7a4ae04aa7f177e1e39445682eefcbbadc390d1da82bccd8cd7e5adcdac98233f989c9895aa45b6aaa35f81f24e7923ee85b37ee20fb4449cb78898f5e05d710ae82def38f48d6f9903db8651f5f93c0a5b48df7d1d7d0ee7fd0d93f1d51296f420fea2751279e9f43356582c553d484a6bce87343187023de94ea40be091fd7923223aa7a30fe939c17ce93924e0c7f86c394d916287b70a74c526821d58a8f1498e207324c221d56758d463c9d69ce32f22687bdca74838ed6ec911cbe15859f4f47edcfe600fe819dcd4427d8effebb0f000d66867dcf38ac38a9164f1dbae7a02e970d888b0a84c71edfd9ae1f761ff1e5af9b354eb0e145fe72338a12e20105ab462532889cffd2d0dda626e41038339b210f7e91c99b69d23144d1d27fffab2fda775677eb2c587cc23dad1bbae50d052b1b12447f3b815ebf2842bdfeb56c8eba3eafbd42e90d63a3beca484efa1f0f2d4b61284a9556709ae912f7b7919278939e4062bb61b0e06beab4f381785351d17a33a26947d5dd8d5a1debd609d508325a575a46da0f4d436489c3ddad78e97685ad1b097bde396f2c6bdce3a2802875edda3ce345e8b1bc8d89d60256cce1d674fa7d6ead6eaaf88a2d069f2fdae3ae64c8b636264ca099a7a3e38b56118ef5ad"
      ],
      "sequence": 4294967294
    }
  ],
  "vout": [
    {
      "value": 1.0,
      "n": 0,
      "scriptPubKey": {
        "asm": "OP_RETURN db0a015764e91933a07d114251ad46e8e067f643300138e7a5c7b9dec6daab56 3f131d55cd495de57929c5cbef20cee3589047635261cbd14f348c76703de73b1f333d75ed697dc55909e5ebcf00eec378b067437241ebf16f14ac56501dc71b7f535d158d091da53969858baf608ea318d0072312218b910f74cc36307da77b5f737d35ad293d851949a5ab8f40ae8338f027033201abb12f54ec16105d875bbf939dd54dc9dd65f9a9454b6fa04e63d810c7e3d2e14b51cfb40cf6f0bd67bb9fb3bdf56de9fd45d989656b4f806e43f830e7c3f2c16b71ef942cd6d09d479bffd3dd950d899d25b9e9050b2fe00e23985087a392a10b118ff44cb6b0fd27fbdff3fdb52da9bd0599c9252b0fc02e03b870a783b2812b31afd46c9690dd07db3f131d55cd495de57929c5cbef20cee3589047635261cbd14f348c76703de73b1f333d75ed697dc55909e5ebcf00eec378b067437241ebf16f14ac56501dc71b7f535d158d091da53969858baf608ea318d0072312218b910f74cc36307da77b5f737d35ad293d851949a5ab8f40ae8338f027033201abb12f54ec16105d875bbf939dd54dc9dd65f9a9454b6fa04e63d810c7e3d2e14b51cfb40cf6f0bd67bb9fb3bdf56de9fd45d989656b4f806e43f830e7c3f2c16b71ef942cd6d09d479bffd3dd950d899d25b9e9050b2fe00e23985087a392a10b118ff44cb6b0fd27fbdff3fdb52da9bd0599c9252b0fc02e03b870a783b2812b31afd46c9690dd07db3f131d55cd495de57929c5cbef20cee3589047635261cbd14f348c76703de73b1f333d75ed697dc55909e5ebcf00eec378b067437241ebf16f14ac56501dc71b7f535d158d091da53969858baf608ea318d0072312218b910f74cc36307da77b5f737d35ad293d851949a5ab8f40ae8338f027033201abb12f54ec16105d875bbf939dd54dc9dd65f9a9454b6fa04e63d810c7e3d2e14b51cfb40cf6f0bd67bb9fb3bdf56de9fd45d989656b4f806e43f830e7c3f2c16b71ef942cd6d09d479bffd3dd950d899d25b9e9050b2fe00e23985087a392a10b118ff44cb6b0fd27fbdff3fdb52da9bd0599c9252b0fc02e03b870a783b2812b31afd46c9690dd07db3f131d55cd495de57929c5cbef20cee3589047635261cbd14f348c76703de73b1f333d75ed697dc55909e5ebcf00eec378b067437241ebf16f14ac56501dc71b7f535d158d091da53969858baf608ea318d0072312218b910f74cc36307da77b5f737d35ad293d851949a5ab8f40ae8338f027033201abb12f54ec16105d875bbf939dd54dc9dd65f9a9454b6fa04e63d810c7e3d2e14b51cfb40cf6f0bd67bb9fb3bdf56de9fd45d989656b4f806e43f830e7c3f2c16b71ef942cd6d09d479bffd3dd950d899d25b9e9050b2fe00e23985087a392a10b118ff44cb6b0fd27fbdff3fdb52da9bd0599c9252b0fc02e03b870a783b2812b31afd46c9690dd07db3f131d55cd495de57929c5cbef20cee3589047635261cbd14f348c76703de73b1f333d75ed697dc55909e5ebcf00eec378b067437241ebf16f14ac56501dc71b7f535d158d091da53969858baf608ea318d0072312218b910f74cc36307da77b5f737d35ad293d851949a5ab8f40ae8338f027033201abb12f54ec16105d875bbf939dd54dc9dd65f9a9454b6fa04e63924f60a2aa762d1f60346991c2934d60bbb49d869035c9fb5b10bfb1328916ae",
        "hex": "6a20db0a015764e91933a07d114251ad46e8e067f643300138e7a5c7b9dec6daab564db0043f131d55cd495de57929c5cbef20cee3589047635261cbd14f348c76703de73b1f333d75ed697dc55909e5ebcf00eec378b067437241ebf16f14ac56501dc71b7f535d158d091da53969858baf608ea318d0072312218b910f74cc36307da77b5f737d35ad293d851949a5ab8f40ae8338f027033201abb12f54ec16105d875bbf939dd54dc9dd65f9a9454b6fa04e63d810c7e3d2e14b51cfb40cf6f0bd67bb9fb3bdf56de9fd45d989656b4f806e43f830e7c3f2c16b71ef942cd6d09d479bffd3dd950d899d25b9e9050b2fe00e23985087a392a10b118ff44cb6b0fd27fbdff3fdb52da9bd0599c9252b0fc02e03b870a783b2812b31afd46c9690dd07db3f131d55cd495de57929c5cbef20cee3589047635261cbd14f348c76703de73b1f333d75ed697dc55909e5ebcf00eec378b067437241ebf16f14ac56501dc71b7f535d158d091da53969858baf608ea318d0072312218b910f74cc36307da77b5f737d35ad293d851949a5ab8f40ae8338f027033201abb12f54ec16105d875bbf939dd54dc9dd65f9a9454b6fa04e63d810c7e3d2e14b51cfb40cf6f0bd67bb9fb3bdf56de9fd45d989656b4f806e43f830e7c3f2c16b71ef942cd6d09d479bffd3dd950d899d25b9e9050b2fe00e23985087a392a10b118ff44cb6b0fd27fbdff3fdb52da9bd0599c9252b0fc02e03b870a783b2812b31afd46c9690dd07db3f131d55cd495de57929c5cbef20cee3589047635261cbd14f348c76703de73b1f333d75ed697dc55909e5ebcf00eec378b067437241ebf16f14ac56501dc71b7f535d158d091da53969858baf608ea318d0072312218b910f74cc36307da77b5f737d35ad293d851949a5ab8f40ae8338f027033201abb12f54ec16105d875bbf939dd54dc9dd65f9a9454b6fa04e63d810c7e3d2e14b51cfb40cf6f0bd67bb9fb3bdf56de9fd45d989656b4f806e43f830e7c3f2c16b71ef942cd6d09d479bffd3dd950d899d25b9e9050b2fe00e23985087a392a10b118ff44cb6b0fd27fbdff3fdb52da9bd0599c9252b0fc02e03b870a783b2812b31afd46c9690dd07db3f131d55cd495de57929c5cbef20cee3589047635261cbd14f348c76703de73b1f333d75ed697dc55909e5ebcf00eec378b067437241ebf16f14ac56501dc71b7f535d158d091da53969858baf608ea318d0072312218b910f74cc36307da77b5f737d35ad293d851949a5ab8f40ae8338f027033201abb12f54ec16105d875bbf939dd54dc9dd65f9a9454b6fa04e63d810c7e3d2e14b51cfb40cf6f0bd67bb9fb3bdf56de9fd45d989656b4f806e43f830e7c3f2c16b71ef942cd6d09d479bffd3dd950d899d25b9e9050b2fe00e23985087a392a10b118ff44cb6b0fd27fbdff3fdb52da9bd0599c9252b0fc02e03b870a783b2812b31afd46c9690dd07db3f131d55cd495de57929c5cbef20cee3589047635261cbd14f348c76703de73b1f333d75ed697dc55909e5ebcf00eec378b067437241ebf16f14ac56501dc71b7f535d158d091da53969858baf608ea318d0072312218b910f74cc36307da77b5f737d35ad293d851949a5ab8f40ae8338f027033201abb12f54ec16105d875bbf939dd54dc9dd65f9a9454b6fa04e63924f60a2aa762d1f60346991c2934d60bbb49d869035c9fb5b10bfb1328916ae",
        "type": "nulldata"
      }
    },
    {
      "value": 499995.9324,
      "n": 1,
      "scriptPubKey": {
        "asm": "1 738c53a452a51ff509b3261409d32098238adb452b3a38d96d37dbaf044761d5",
        "hex": "5120738c53a452a51ff509b3261409d32098238adb452b3a38d96d37dbaf044761d5",
        "reqSigs": 1,
        "type": "witness_v1_scripthash",
        "addresses": [
          "3QJmnh"
        ]
      }
    }
  ],
  "blockhash": "15af9b025c636b87e0a10c18a1a8de0e5f3c2069ad563b293161176d75df89a4",
  "confirmations": 1,
  "time": 1764174659,
  "blocktime": 1764174659
}