{
  "hex": "01000000000101011a27386d519895e021515464c976be83b1273e34f498310ee71c8731ff82ba0100000000feffffff0200e1f50500000000fdd5046a2030eaf47a51ca6d474c86a416deedbf53902ee4602c63f9397e79dec22cb81ea54db0040f096bffe78abbc297d71d66e2b2e684919b04242889553e583c418d6eceefd52f294bdfc7aa9be2b7f73d46c292c6a4b1bb240408a9751e781c61ad4eeecff54f492bbfa7cafb82d7975d26a2f2a6c4d1db446468c9157e187c01cd2e8eaf956f690b9f87eadba2f7b77d0682d286e4f1fb644448e9355e385c21ed0eae8fb58f89eb7f670a3b4217579de662326604111b84a4a809d5bed8bcc10dee4e6f55afa9cb5f472a1b623777bdc642124624313ba4848829f59ef89ce12dce6e4f75cfc9ab3f274a7b025717dda622722644515bc4e4e84995fe98fc814dae0e2f15efe98b1f076a5b227737fd8602520664717be4c4c869b5deb8dca16d8e2e0f350f096bffe78abbc297d71d66e2b2e684919b04242889553e583c418d6eceefd52f294bdfc7aa9be2b7f73d46c292c6a4b1bb240408a9751e781c61ad4eeecff54f492bbfa7cafb82d7975d26a2f2a6c4d1db446468c9157e187c01cd2e8eaf956f690b9f87eadba2f7b77d0682d286e4f1fb644448e9355e385c21ed0eae8fb58f89eb7f670a3b4217579de662326604111b84a4a809d5bed8bcc10dee4e6f55afa9cb5f472a1b623777bdc642124624313ba4848829f59ef89ce12dce6e4f75cfc9ab3f274a7b025717dda622722644515bc4e4e84995fe98fc814dae0e2f15efe98b1f076a5b227737fd8602520664717be4c4c869b5deb8dca16d8e2e0f350f096bffe78abbc297d71d66e2b2e684919b04242889553e583c418d6eceefd52f294bdfc7aa9be2b7f73d46c292c6a4b1bb240408a9751e781c61ad4eeecff54f492bbfa7cafb82d7975d26a2f2a6c4d1db446468c9157e187c01cd2e8eaf956f690b9f87eadba2f7b77d0682d286e4f1fb644448e9355e385c21ed0eae8fb58f89eb7f670a3b4217579de662326604111b84a4a809d5bed8bcc10dee4e6f55afa9cb5f472a1b623777bdc642124624313ba4848829f59ef89ce12dce6e4f75cfc9ab3f274a7b025717dda622722644515bc4e4e84995fe98fc814dae0e2f15efe98b1f076a5b227737fd8602520664717be4c4c869b5deb8dca16d8e2e0f350f096bffe78abbc297d71d66e2b2e684919b04242889553e583c418d6eceefd52f294bdfc7aa9be2b7f73d46c292c6a4b1bb240408a9751e781c61ad4eeecff54f492bbfa7cafb82d7975d26a2f2a6c4d1db446468c9157e187c01cd2e8eaf956f690b9f87eadba2f7b77d0682d286e4f1fb644448e9355e385c21ed0eae8fb58f89eb7f670a3b4217579de662326604111b84a4a809d5bed8bcc10dee4e6f55afa9cb5f472a1b623777bdc642124624313ba4848829f59ef89ce12dce6e4f75cfc9ab3f274a7b025717dda622722644515bc4e4e84995fe98fc814dae0e2f15efe98b1f076a5b227737fd8602520664717be4c4c869b5deb8dca16d8e2e0f350f096bffe78abbc297d71d66e2b2e684919b04242889553e583c418d6eceefd52f294bdfc7aa9be2b7f73d46c292c6a4b1bb240408a9751e781c61ad4eeecff54f492bbfa7cafb82d7975d26a2f2a6c4d1db446468c9157e187c01cd2e8eaf956f690b9f87eadba2f7b77d0682d286e4f1fb644448e9355e385c21ed0eae8fb58f89eb7f670a3b4217579de66232660402fb49bd25c8fdd3e7f89c527585ebc4b450ca0e290cd211375acc05e891ca944021813f792d0000225120352dc732674f558de6cf63b918b0bc1d2aa3d898a38a34e771effce942453d7102fd75098af14af0a3dc6b714a84835d0adfd039a208058649dba2313f9c108ed34ad37b61afdfc60f5b781eeb7c5dc67c6ee04a7aa08dedfd01e4b06f8cc095ad2b291790fc273f06db727d57674c7a509b3488f0337ecbca525e062e23753bb8fe7d0d9ef44cf20a17362bd3d27b11757aeb2bd1c804555c952f8a24998d6ac31dc7dd9914fce1f47e4bf83c2f9ab59ab4393df5a2394a5ff49b662d5a8af5440ecf6b99c1e44152a9dd6c7ddb5d76adb7803a30e90118acdf0ecf50d445162068a76a3e545a798c79e4841cfbd1855240921fcafe1939af473db67c2361b515c5db955607c51c90a835f57e280032b99fb9e264ea474b089b69e5a6e8f9f6183dc6262d55124efb084b9f6ccadadfdc9f65e01e087e15d5cf64bea2c85b3e5aa5ff51cf55e0f67bee585549d791a9345f6de963e8a7232ea42ad3666a9d720acf43b43fcbdf63c28a754b1f06be2adbe22e30778f4edb7ad9ae465c187cabb376ea7ff939da56c4cae34408ab4b8b99442645016fd101dad0e45925dd1f11e1ee55e403075000912e4f84aa75664f26e507c8d225a64516a76c72c911b7752850f202ffbbf6b28573ad446ec02efcb05db5cdd3a5488473604132ca82f4e60d1e1920228895f6c1b4e0cb1141fac087f20e360cbfdf2b3acd729e1b61eaa77aa62d1dc8c82e3f5e849972635f49772234e437402ad3d81c77ad73b78ee1a32a96b21db15d8be764882c6db2d7b9d889188fad9d46e2c129dc637d70cecf008990f248aea92b0775ff0539c53fd995a1b975392df439e0a74407025dcaf8e155610d0c211598445d7c094a40ea5778a738041f603aef353178064813dc6e413c1f6312844fd766486a6111037a7284723ccdfa9f0cf220d8b9a49b6633df4e89563c87be279df75a155ddd37cf2e101728c3dc19755f9ed7a6150e1c38e7b8fbc9e56cb42e9465995d30b927f78323855848875bcbe2ef2815df77408b33e4981c861cddd07878b7384cc249f1970a406779888dee63c21306e751d0fc8efad5cfee4e560f6f6306c6b472f78238e207d68381c1b1979b61e33e75a9e6630f7d46d2fba40a8b3b25b3a12c8bcf366ecfd5c3ffdbbb1f0caec2841d6e6f2fd50b32dee7b7b0c3a9c9af4fa210876e088d3908e28ce8e40d3b6d031cedf8cde1accb13e3026672f342f753e60964fe3db2eff9554a2803f23900c42a5c21fe7dd37a49648adeb3e31f2bab38bee3cb712f1d8c6507a7c03c6b5b0cd64e70a85e661f9d965caa6629ddcd68b3113e1057683a2edeac438a22fdd3939c8b23a23afe92bdab0edefc0f61f1b981f3e5d540c26c52bf4082cc37696a6b376c194cd487abc9092c07cb9255fc764f78a72da1c0dcc1199005871fc83ba72f0da362d3bc4ed35141bfe3f21ce37b33f20b3d0e4e6880b8f167470add61532a7a0fa476dddd86b926eb4d75ee9db3b3ea9f24873724831b2b515bffbe12f7cf2be9bb619621e489cf405bdde710f8bb7294cfa00ebf669d5c364f4f0b65157d89ff5a7222c8a2e552694e4fe82d8ed109a83d62d01bb6e35ec55329c5a270641a1704e0e9805509283ae1f08a8f8272dd25172c57720bf7e98bd813af325972a64fe6af136977d2985bf23b632fdc8d11156271889125210aac7b04ca43ee967930b3939b46bc5418416d02a259fa4f5fcc4c92efca38c92794fba57695106975a3fec5b6c7e349176523ed89d3ae9c13ad725ce7759772d868b314628cc86db3d38cba2918d4dec1743035d3610c17d7f3126cdc673677fd6f58b89f698b0f517acfc272a82719d91e4b02293e3d3fab730318cbe3a7a73ecd095f32521c17c9788f5b1de7f3bc39e2ebf7a551ce153cb5647d2adebacd3a8fed27be17cd7f4c4e66b0084561209dd0a7a6725112e090cfdc73ac24aa3b7171c0d7edc695bec57283093648443452bb10e48cad571513b46e73cccfd5be804919b673ecf1cc3ea6b1048b0a19525c396e37bbc8dbed224a94007ce5b07bceaea0121b9b09b3336e66097684bea4c39489c72e769654be4dca7572c2d64841fc083fa78551bea9f887365aa41c63b51ef56822275d07eef4a9966575333caefa822caecd094ec48f7af1832f3cb90fb81134699014b5dbe832fed4eccc5427bf0c7ca0f8432ca5045fd18909d5b2ba8c86d0964c364c09fa9a5ba27cfaa6d188bb1dbb88cc76832be8bbeb300af3078a84a17c9ee7e5b14d2dffa7390a537643dae6f9d5483f3127415cdee3e8757c3f26cd68688b4154fb8f009a411b1c4250952b3e219f6b6ca2115182a31b27c9c572243de71247c07193d25942acf8439518ed4d5d2bc451105acefa6d3fc84a8359c9074bb0ac661a64e5cf1f48d235b30e2ed13dcf2945b16be84025d6f4126bc712e7aaf6bcfa658b728a152f13d2669265ba12da0f1d61f429c0ac4ed552cb7ad8b44cf33c8a80181cd6c5ef7f098727cdd8c187baa0e638e4c2707a4bc8dff53fef053af7783463ca82fda45bade9140735d561cdf16d9138dfc1858e906ae5959ad0d12b10a9ab9cd1b707c92a21acae1f0654ffd0a5fd20690e242c6734284219d29692ac83c4bcd8c4a440285fa282e19a9e2b51e56ec5c49af1d58d1d0fddfae970c8948f45c9700cfebd152582609598debcc58d6b727d95b628a896aa6799a5f7f8a33243c2bca7d5617c6c454c23ac2cacd37bf12d83d1e18661afa418da6590f8756b446d0a9e9798aafb8e1ddada415a9350764e93473d624c2599b125d249e3385c0e63fc3d24a720dece001f90661ed60dcaa5699d329977d1e3ab09a0950e1eebf4777f9d3170f113449b0c813a360a155fc28085671f284678908e90dfc0b93e0b21b9b86d2cc0b70002bc949528ff39530c2faa82407665e1c484258f79d0a986b60c829fdd53cd27ebda97e7205290cbed3c13cb63364c189ce6972162975a62fef6b89721ecc093b49bc36bac4ff77c8810218499da744ab9c6684791b965847a27315f6269097d2ff29103ca3a4c944869be4afcaa2687bd31da3275ecf5c3ae364179fa1a5f4d0971bc40172f0d2ecf815051f4b8002ac7de1b5fa82f2058cfb20a528c0f82120d7cd837c1b4c63d6874f4bb9a48965d79f823a13c42f2b68305654d478b17e3b510d29278ce2de8460f4a4eff52db9a6a5bd5a69a4ce103ee4c06337e33642d52a1413f858d841855f8c63f5e2936cb046b25c138788158b1475d0be55ea9ffc23e7f2c6b5eb93c4905d09311881a62f72a88e03f6aa369309509b541566fa216142476d039323276199f681a000507202326454b80abadbcc7c8d0dbdce6f2002236535668747a9ba4a5a8b4ccd5e2f6063d5165677c8c8e99b0c0dbec0610115a64668189adb0d3e4e6f4f7000000000000000000000000000000001324314001fd210500854646c02166eb6a7b135d79d9a64a4ad3affce31df8db5c9465f429e62eaabca4693aa2d7dcb417e9a1cb0b3d3f2b2ff53da3ef041d9cd3d7409c76752230355e73b310d72a3c3977f8893da2049512737480d15083f547f218e9df2bf8415e47218f552bf9a2ee2d67857f8d316eb6422060817ad6ccc4b2ae1c32f5a0f9f7e93332e416873eb02c0b364f2c56e3a5a8be634407aa64c1ece6cda58456950e797fc13fd3898105a745fea37a19405fd9584a36c34113f0ba7619427a299bf7ad0a2ac8b8dd3a795f6cccd312272b4e15f0e993c555ec6688e2ccea320bf97936df71e1bae68f53f0a0f8a21276d0a0f8ae4fcba66f6a32377d079efeef3a625b71c86c5bb5005fff89f6ec9a23bae53b5a8386beb75895a29c5cce147abf92ef7f5ab9ddae452164d8d6137dc515aa687002b89a88bc35cf0cab3f0b8b52f20bfb82a0c3ca5e17a6cd0da1042f1e3e6e405e97e6b8cb9edc78a1f0a074b3483bc9c45dda2d6c271ea97dffde0f7fc901b6607014ef382ed951846a82bf559252664076bbfdd7998a5fd6550986829e67b3a8d21226f5c49405dfe8de37a5486f51dc311fc640f0a41f1a09b9201cf745f8dec7996b2486e21937c1abc45accc9996866efc14a9bb95e206fdfb846259404d8f592b48e42c557cde5abbe20d9bfeab10947cfe2f3c5adf92955aa3617a06c808ff51f80a110d6173b9f38a97a8cceff36d7ede26d1968baeba471067278e69e68d9b02f6b24d39abf25d8b73536035f2eafb05a13161221cb418d204b553c56416381e725f125bcee4c1bb7245e88388a9cdec43b89e4130fc2242834726eea966ac4a823952e49b15bc93fab7518c3f31106aef59a732b561e7766af25eac160e065fe8e45b640715122364bbb5bbd48ba9241152c6a67e9b48d50752e9859c25d1d97a0c33ae34edb11ec00d90f2a9261ea0e9da867f776a020167983b4108c193d97bc4665dd2e6b569f23be9459f206064f88d181829dc89f2ad906201b1fad385d1949d1f6f0c0219a426efd82996d384bf2a2cc82fe00c49e88723d8f1d55dc4162419908cd1f742d25d61d1b6c16ec659ae97a1144e0b8a989b649f9c4b42171e49d48da913fbfb714e8a73e96a296c7decf7ffdeb0c13916e912bac618e56167269380237c39424784d60f9440318bd37b646ec1fbda6e3a9be66aef9265f24919cd37af48d49b482a98a7386ba8b3c2a2b882de521cfcab6d14c418c18e0f531b52fa97ef2feda90bf5d7c3e70b4c8b7be9305e33fe45df8517a05afc774bc6caa0dc6c4d6cc858c00e68d66930326a642e467026ddbdbb97fa83a77e6f35ee15b118128eda63a1f63cb1464ef5b8d3ae233d0c3d6cb9f9d1bc1a5d57080c0b658a15f1efc42fe9128c210ad853fec4c9aebf80661ef77b365c540ef4c225ec9dd99dd1cbf8954b50cbce589bba26b82079dba67e57e180086ea87f847466ac5b6f86aadd4290adf53a56a46b8b322bcf69680cbb178edcb6dbf14f9290acfe9227ac0bc83d987231ba281b75488135b530eff17a469cb85fe5bd4aa6f2fa158bf3a4f2740a2bcee236766a8a1c5ce2e058c0a1ada6a77fac93bd706a8093fa6489cf3b1f0192135b2c9197f965d8814871d3c50ab496e52411a00f30e1c23c9876995c9c724b56abe9a03c773d8050f2d002066c3a5d6fce049b93c1bb4a3d41c8e665a384776f0223012c9eaf33194e4782c8ab950fd7fad0569c745960ce91bb59b68c876c640daafcced190cb464dd2f93b0256a2f601be12fa426ec8e32c80c76536bbbe4a89ede44ccdb1193ab45c2a63262020416d9d3d7c657dbb8d1061a124c57407a7a6e000000",
  "txid": "c6f7c84d1f38e0e1477429974d6431b15e12dd7327abac45cb69d990318ab079",
  "hash": "a19445e11a730afb059756192073c225fcd3803e0734fd914e14adb5efa5f49d",
  "size": 5085,
  "vsize": 2278,
  "version": 1,
  "locktime": 110,
  "vin": [
    {
      "txid": "ba82ff31871ce70e3198f4343e27b183be76c964545121e09598516d38271a01",
      "vout": 1,
      "scriptSig": {
        "asm": "",
        "hex": ""
      },
      "txinwitness": [
        "8af14af0a3dc6b714a84835d0adfd039a208058649dba2313f9c108ed34ad37b61afdfc60f5b781eeb7c5dc67c6ee04a7aa08dedfd01e4b06f8cc095ad2b291790fc273f06db727d57674c7a509b3488f0337ecbca525e062e23753bb8fe7d0d9ef44cf20a17362bd3d27b11757aeb2bd1c804555c952f8a24998d6ac31dc7dd9914fce1f47e4bf83c2f9ab59ab4393df5a2394a5ff49b662d5a8af5440ecf6b99c1e44152a9dd6c7ddb5d76adb7803a30e90118acdf0ecf50d445162068a76a3e545a798c79e4841cfbd1855240921fcafe1939af473db67c2361b515c5db955607c51c90a835f57e280032b99fb9e264ea474b089b69e5a6e8f9f6183dc6262d55124efb084b9f6ccadadfdc9f65e01e087e15d5cf64bea2c85b3e5aa5ff51cf55e0f67bee585549d791a9345f6de963e8a7232ea42ad3666a9d720acf43b43fcbdf63c28a754b1f06be2adbe22e30778f4edb7ad9ae465c187cabb376ea7ff939da56c4cae34408ab4b8b99442645016fd101dad0e45925dd1f11e1ee55e403075000912e4f84aa75664f26e507c8d225a64516a76c72c911b7752850f202ffbbf6b28573ad446ec02efcb05db5cdd3a5488473604132ca82f4e60d1e1920228895f6c1b4e0cb1141fac087f20e360cbfdf2b3acd729e1b61eaa77aa62d1dc8c82e3f5e849972635f49772234e437402ad3d81c77ad73b78ee1a32a96b21db15d8be764882c6db2d7b9d889188fad9d46e2c129dc637d70cecf008990f248aea92b0775ff0539c53fd995a1b975392df439e0a74407025dcaf8e155610d0c211598445d7c094a40ea5778a738041f603aef353178064813dc6e413c1f6312844fd766486a6111037a7284723ccdfa9f0cf220d8b9a49b6633df4e89563c87be279df75a155ddd37cf2e101728c3dc19755f9ed7a6150e1c38e7b8fbc9e56cb42e9465995d30b927f78323855848875bcbe2ef2815df77408b33e4981c861cddd07878b7384cc249f1970a406779888dee63c21306e751d0fc8efad5cfee4e560f6f6306c6b472f78238e207d68381c1b1979b61e33e75a9e6630f7d46d2fba40a8b3b25b3a12c8bcf366ecfd5c3ffdbbb1f0caec2841d6e6f2fd50b32dee7b7b0c3a9c9af4fa210876e088d3908e28ce8e40d3b6d031cedf8cde1accb13e3026672f342f753e60964fe3db2eff9554a2803f23900c42a5c21fe7dd37a49648adeb3e31f2bab38bee3cb712f1d8c6507a7c03c6b5b0cd64e70a85e661f9d965caa6629ddcd68b3113e1057683a2edeac438a22fdd3939c8b23a23afe92bdab0edefc0f61f1b981f3e5d540c26c52bf4082cc37696a6b376c194cd487abc9092c07cb9255fc764f78a72da1c0dcc1199005871fc83ba72f0da362d3bc4ed35141bfe3f21ce37b33f20b3d0e4e6880b8f167470add61532a7a0fa476dddd86b926eb4d75ee9db3b3ea9f24873724831b2b515bffbe12f7cf2be9bb619621e489cf405bdde710f8bb7294cfa00ebf669d5c364f4f0b65157d89ff5a7222c8a2e552694e4fe82d8ed109a83d62d01bb6e35ec55329c5a270641a1704e0e9805509283ae1f08a8f8272dd25172c57720bf7e98bd813af325972a64fe6af136977d2985bf23b632fdc8d11156271889125210aac7b04ca43ee967930b3939b46bc5418416d02a259fa4f5fcc4c92efca38c92794fba57695106975a3fec5b6c7e349176523ed89d3ae9c13ad725ce7759772d868b314628cc86db3d38cba2918d4dec1743035d3610c17d7f3126cdc673677fd6f58b89f698b0f517acfc272a82719d91e4b02293e3d3fab730318cbe3a7a73ecd095f32521c17c9788f5b1de7f3bc39e2ebf7a551ce153cb5647d2adebacd3a8fed27be17cd7f4c4e66b0084561209dd0a7a6725112e090cfdc73ac24aa3b7171c0d7edc695bec57283093648443452bb10e48cad571513b46e73cccfd5be804919b673ecf1cc3ea6b1048b0a19525c396e37bbc8dbed224a94007ce5b07bceaea0121b9b09b3336e66097684bea4c39489c72e769654be4dca7572c2d64841fc083fa78551bea9f887365aa41c63b51ef56822275d07eef4a9966575333caefa822caecd094ec48f7af1832f3cb90fb81134699014b5dbe832fed4eccc5427bf0c7ca0f8432ca5045fd18909d5b2ba8c86d0964c364c09fa9a5ba27cfaa6d188bb1dbb88cc76832be8bbeb300af3078a84a17c9ee7e5b14d2dffa7390a537643dae6f9d5483f3127415cdee3e8757c3f26cd68688b4154fb8f009a411b1c4250952b3e219f6b6ca2115182a31b27c9c572243de71247c07193d25942acf8439518ed4d5d2bc451105acefa6d3fc84a8359c9074bb0ac661a64e5cf1f48d235b30e2ed13dcf2945b16be84025d6f4126bc712e7aaf6bcfa658b728a152f13d2669265ba12da0f1d61f429c0ac4ed552cb7ad8b44cf33c8a80181cd6c5ef7f098727cdd8c187baa0e638e4c2707a4bc8dff53fef053af7783463ca82fda45bade9140735d561cdf16d9138dfc1858e906ae5959ad0d12b10a9ab9cd1b707c92a21acae1f0654ffd0a5fd20690e242c6734284219d29692ac83c4bcd8c4a440285fa282e19a9e2b51e56ec5c49af1d58d1d0fddfae970c8948f45c9700cfebd152582609598debcc58d6b727d95b628a896aa6799a5f7f8a33243c2bca7d5617c6c454c23ac2cacd37bf12d83d1e18661afa418da6590f8756b446d0a9e9798aafb8e1ddada415a9350764e93473d624c2599b125d249e3385c0e63fc3d24a720dece001f90661ed60dcaa5699d329977d1e3ab09a0950e1eebf4777f9d3170f113449b0c813a360a155fc28085671f284678908e90dfc0b93e0b21b9b86d2cc0b70002bc949528ff39530c2faa82407665e1c484258f79d0a986b60c829fdd53cd27ebda97e7205290cbed3c13cb63364c189ce6972162975a62fef6b89721ecc093b49bc36bac4ff77c8810218499da744ab9c6684791b965847a27315f6269097d2ff29103ca3a4c944869be4afcaa2687bd31da3275ecf5c3ae364179fa1a5f4d0971bc40172f0d2ecf815051f4b8002ac7de1b5fa82f2058cfb20a528c0f82120d7cd837c1b4c63d6874f4bb9a48965d79f823a13c42f2b68305654d478b17e3b510d29278ce2de8460f4a4eff52db9a6a5bd5a69a4ce103ee4c06337e33642d52a1413f858d841855f8c63f5e2936cb046b25c138788158b1475d0be55ea9ffc23e7f2c6b5eb93c4905d09311881a62f72a88e03f6aa369309509b541566fa216142476d039323276199f681a000507202326454b80abadbcc7c8d0dbdce6f2002236535668747a9ba4a5a8b4ccd5e2f6063d5165677c8c8e99b0c0dbec0610115a64668189adb0d3e4e6f4f7000000000000000000000000000000001324314001",
        "00854646c02166eb6a7b135d79d9a64a4ad3affce31df8db5c9465f429e62eaabca4693aa2d7dcb417e9a1cb0b3d3f2b2ff53da3ef041d9cd3d7409c76752230355e73b310d72a3c3977f8893da2049512737480d15083f547f218e9df2bf8415e47218f552bf9a2ee2d67857f8d316eb6422060817ad6ccc4b2ae1c32f5a0f9f7e93332e416873eb02c0b364f2c56e3a5a8be634407aa64c1ece6cda58456950e797fc13fd3898105a745fea37a19405fd9584a36c34113f0ba7619427a299bf7ad0a2ac8b8dd3a795f6cccd312272b4e15f0e993c555ec6688e2ccea320bf97936df71e1bae68f53f0a0f8a21276d0a0f8ae4fcba66f6a32377d079efeef3a625b71c86c5bb5005fff89f6ec9a23bae53b5a8386beb75895a29c5cce147abf92ef7f5ab9ddae452164d8d6137dc515aa687002b89a88bc35cf0cab3f0b8b52f20bfb82a0c3ca5e17a6cd0da1042f1e3e6e405e97e6b8cb9edc78a1f0a074b3483bc9c45dda2d6c271ea97dffde0f7fc901b6607014ef382ed951846a82bf559252664076bbfdd7998a5fd6550986829e67b3a8d21226f5c49405dfe8de37a5486f51dc311fc640f0a41f1a09b9201cf745f8dec7996b2486e21937c1abc45accc9996866efc14a9bb95e206fdfb846259404d8f592b48e42c557cde5abbe20d9bfeab10947cfe2f3c5adf92955aa3617a06c808ff51f80a110d6173b9f38a97a8cceff36d7ede26d1968baeba471067278e69e68d9b02f6b24d39abf25d8b73536035f2eafb05a13161221cb418d204b553c56416381e725f125bcee4c1bb7245e88388a9cdec43b89e4130fc2242834726eea966ac4a823952e49b15bc93fab7518c3f31106aef59a732b561e7766af25eac160e065fe8e45b640715122364bbb5bbd48ba9241152c6a67e9b48d50752e9859c25d1d97a0c33ae34edb11ec00d90f2a9261ea0e9da867f776a020167983b4108c193d97bc4665dd2e6b569f23be9459f206064f88d181829dc89f2ad906201b1fad385d1949d1f6f0c0219a426efd82996d384bf2a2cc82fe00c49e88723d8f1d55dc4162419908cd1f742d25d61d1b6c16ec659ae97a1144e0b8a989b649f9c4b42171e49d48da913fbfb714e8a73e96a296c7decf7ffdeb0c13916e912bac618e56167269380237c39424784d60f9440318bd37b646ec1fbda6e3a9be66aef9265f24919cd37af48d49b482a98a7386ba8b3c2a2b882de521cfcab6d14c418c18e0f531b52fa97ef2feda90bf5d7c3e70b4c8b7be9305e33fe45df8517a05afc774bc6caa0dc6c4d6cc858c00e68d66930326a642e467026ddbdbb97fa83a77e6f35ee15b118128eda63a1f63cb1464ef5b8d3ae233d0c3d6cb9f9d1bc1a5d57080c0b658a15f1efc42fe9128c210ad853fec4c9aebf80661ef77b365c540ef4c225ec9dd99dd1cbf8954b50cbce589bba26b82079dba67e57e180086ea87f847466ac5b6f86aadd4290adf53a56a46b8b322bcf69680cbb178edcb6dbf14f9290acfe9227ac0bc83d987231ba281b75488135b530eff17a469cb85fe5bd4aa6f2fa158bf3a4f2740a2bcee236766a8a1c5ce2e058c0a1ada6a77fac93bd706a8093fa6489cf3b1f0192135b2c9197f965d8814871d3c50ab496e52411a00f30e1c23c9876995c9c724b56abe9a03c773d8050f2d002066c3a5d6fce049b93c1bb4a3d41c8e665a384776f0223012c9eaf33194e4782c8ab950fd7fad0569c745960ce91bb59b68c876c640daafcced190cb464dd2f93b0256a2f601be12fa426ec8e32c80c76536bbbe4a89ede44ccdb1193ab45c2a63262020416d9d3d7c657dbb8d1061a124c57407a7a"
      ],
      "sequence": 4294967294
    }
  ],
  "vout": [
    {
      "value": 1.0,
      "n": 0,
      "scriptPubKey": {
        "asm": "OP_RETURN 30eaf47a51ca6d474c86a416deedbf53902ee4602c63f9397e79dec22cb81ea5 0f096bffe78abbc297d71d66e2b2e684919b04242889553e583c418d6eceefd52f294bdfc7aa9be2b7f73d46c292c6a4b1bb240408a9751e781c61ad4eeecff54f492bbfa7cafb82d7975d26a2f2a6c4d1db446468c9157e187c01cd2e8eaf956f690b9f87eadba2f7b77d0682d286e4f1fb644448e9355e385c21ed0eae8fb58f89eb7f670a3b4217579de662326604111b84a4a809d5bed8bcc10dee4e6f55afa9cb5f472a1b623777bdc642124624313ba4848829f59ef89ce12dce6e4f75cfc9ab3f274a7b025717dda622722644515bc4e4e84995fe98fc814dae0e2f15efe98b1f076a5b227737fd8602520664717be4c4c869b5deb8dca16d8e2e0f350f096bffe78abbc297d71d66e2b2e684919b04242889553e583c418d6eceefd52f294bdfc7aa9be2b7f73d46c292c6a4b1bb240408a9751e781c61ad4eeecff54f492bbfa7cafb82d7975d26a2f2a6c4d1db446468c9157e187c01cd2e8eaf956f690b9f87eadba2f7b77d0682d286e4f1fb644448e9355e385c21ed0eae8fb58f89eb7f670a3b4217579de662326604111b84a4a809d5bed8bcc10dee4e6f55afa9cb5f472a1b623777bdc642124624313ba4848829f59ef89ce12dce6e4f75cfc9ab3f274a7b025717dda622722644515bc4e4e84995fe98fc814dae0e2f15efe98b1f076a5b227737fd8602520664717be4c4c869b5deb8dca16d8e2e0f350f096bffe78abbc297d71d66e2b2e684919b04242889553e583c418d6eceefd52f294bdfc7aa9be2b7f73d46c292c6a4b1bb240408a9751e781c61ad4eeecff54f492bbfa7cafb82d7975d26a2f2a6c4d1db446468c9157e187c01cd2e8eaf956f690b9f87eadba2f7b77d0682d286e4f1fb644448e9355e385c21ed0eae8fb58f89eb7f670a3b4217579de662326604111b84a4a809d5bed8bcc10dee4e6f55afa9cb5f472a1b623777bdc642124624313ba4848829f59ef89ce12dce6e4f75cfc9ab3f274a7b025717dda622722644515bc4e4e84995fe98fc814dae0e2f15efe98b1f076a5b227737fd8602520664717be4c4c869b5deb8dca16d8e2e0f350f096bffe78abbc297d71d66e2b2e684919b04242889553e583c418d6eceefd52f294bdfc7aa9be2b7f73d46c292c6a4b1bb240408a9751e781c61ad4eeecff54f492bbfa7cafb82d7975d26a2f2a6c4d1db446468c9157e187c01cd2e8eaf956f690b9f87eadba2f7b77d0682d286e4f1fb644448e9355e385c21ed0eae8fb58f89eb7f670a3b4217579de662326604111b84a4a809d5bed8bcc10dee4e6f55afa9cb5f472a1b623777bdc642124624313ba4848829f59ef89ce12dce6e4f75cfc9ab3f274a7b025717dda622722644515bc4e4e84995fe98fc814dae0e2f15efe98b1f076a5b227737fd8602520664717be4c4c869b5deb8dca16d8e2e0f350f096bffe78abbc297d71d66e2b2e684919b04242889553e583c418d6eceefd52f294bdfc7aa9be2b7f73d46c292c6a4b1bb240408a9751e781c61ad4eeecff54f492bbfa7cafb82d7975d26a2f2a6c4d1db446468c9157e187c01cd2e8eaf956f690b9f87eadba2f7b77d0682d286e4f1fb644448e9355e385c21ed0eae8fb58f89eb7f670a3b4217579de66232660402fb49bd25c8fdd3e7f89c527585ebc4b450ca0e290cd211375acc05e891ca94",
        "hex": "6a2030eaf47a51ca6d474c86a416deedbf53902ee4602c63f9397e79dec22cb81ea54db0040f096bffe78abbc297d71d66e2b2e684919b04242889553e583c418d6eceefd52f294bdfc7aa9be2b7f73d46c292c6a4b1bb240408a9751e781c61ad4eeecff54f492bbfa7cafb82d7975d26a2f2a6c4d1db446468c9157e187c01cd2e8eaf956f690b9f87eadba2f7b77d0682d286e4f1fb644448e9355e385c21ed0eae8fb58f89eb7f670a3b4217579de662326604111b84a4a809d5bed8bcc10dee4e6f55afa9cb5f472a1b623777bdc642124624313ba4848829f59ef89ce12dce6e4f75cfc9ab3f274a7b025717dda622722644515bc4e4e84995fe98fc814dae0e2f15efe98b1f076a5b227737fd8602520664717be4c4c869b5deb8dca16d8e2e0f350f096bffe78abbc297d71d66e2b2e684919b04242889553e583c418d6eceefd52f294bdfc7aa9be2b7f73d46c292c6a4b1bb240408a9751e781c61ad4eeecff54f492bbfa7cafb82d7975d26a2f2a6c4d1db446468c9157e187c01cd2e8eaf956f690b9f87eadba2f7b77d0682d286e4f1fb644448e9355e385c21ed0eae8fb58f89eb7f670a3b4217579de662326604111b84a4a809d5bed8bcc10dee4e6f55afa9cb5f472a1b623777bdc642124624313ba4848829f59ef89ce12dce6e4f75cfc9ab3f274a7b025717dda622722644515bc4e4e84995fe98fc814dae0e2f15efe98b1f076a5b227737fd8602520664717be4c4c869b5deb8dca16d8e2e0f350f096bffe78abbc297d71d66e2b2e684919b04242889553e583c418d6eceefd52f294bdfc7aa9be2b7f73d46c292c6a4b1bb240408a9751e781c61ad4eeecff54f492bbfa7cafb82d7975d26a2f2a6c4d1db446468c9157e187c01cd2e8eaf956f690b9f87eadba2f7b77d0682d286e4f1fb644448e9355e385c21ed0eae8fb58f89eb7f670a3b4217579de662326604111b84a4a809d5bed8bcc10dee4e6f55afa9cb5f472a1b623777bdc642124624313ba4848829f59ef89ce12dce6e4f75cfc9ab3f274a7b025717dda622722644515bc4e4e84995fe98fc814dae0e2f15efe98b1f076a5b227737fd8602520664717be4c4c869b5deb8dca16d8e2e0f350f096bffe78abbc297d71d66e2b2e684919b04242889553e583c418d6eceefd52f294bdfc7aa9be2b7f73d46c292c6a4b1bb240408a9751e781c61ad4eeecff54f492bbfa7cafb82d7975d26a2f2a6c4d1db446468c9157e187c01cd2e8eaf956f690b9f87eadba2f7b77d0682d286e4f1fb644448e9355e385c21ed0eae8fb58f89eb7f670a3b4217579de662326604111b84a4a809d5bed8bcc10dee4e6f55afa9cb5f472a1b623777bdc642124624313ba4848829f59ef89ce12dce6e4f75cfc9ab3f274a7b025717dda622722644515bc4e4e84995fe98fc814dae0e2f15efe98b1f076a5b227737fd8602520664717be4c4c869b5deb8dca16d8e2e0f350f096bffe78abbc297d71d66e2b2e684919b04242889553e583c418d6eceefd52f294bdfc7aa9be2b7f73d46c292c6a4b1bb240408a9751e781c61ad4eeecff54f492bbfa7cafb82d7975d26a2f2a6c4d1db446468c9157e187c01cd2e8eaf956f690b9f87eadba2f7b77d0682d286e4f1fb644448e9355e385c21ed0eae8fb58f89eb7f670a3b4217579de66232660402fb49bd25c8fdd3e7f89c527585ebc4b450ca0e290cd211375acc05e891ca94",
        "type": "nulldata"
      }
    },
    {
      "value": 499987.7972,
      "n": 1,
      "scriptPubKey": {
        "asm": "1 352dc732674f558de6cf63b918b0bc1d2aa3d898a38a34e771effce942453d71",
        "hex": "5120352dc732674f558de6cf63b918b0bc1d2aa3d898a38a34e771effce942453d71",
        "reqSigs": 1,
        "type": "witness_v1_scripthash",
        "addresses": [
          "3QJmnh"
        ]
      }
    }
  ],
  "blockhash": "2622e54cefe9d3081f6ac04e4c67f268d7c1e3313b2268ffede4439aafe1acd1",
  "confirmations": 1,
  "time": 1764177922,
  "blocktime": 1764177922
}