{
  "hex": "01000000000101fe3ac2b3d2b3073db198e6356f39897d23a820467f605490c5568fb448e9c13f0000000000feffffff0200e1f50500000000fdd5046a208ac25a91909d46caf775f0a104ad57fd756759d56a8c97c5b0a07a5a91d137594db004eae88a5a5ca3d507831e5ca9dbed8c4998e81d96de879fbe734f642ad3c2ec60cac8aa7a7c83f527a33e7c89fbcdac69b8c83db6fea7bf9e536f440af3e2cc40aaa8ca1a1ce39547c35e1ce99badcc09d8a85dd69ec7dffe330f246a9382ac208a88ea3a3cc3b567e37e3cc9bb8dec29f8887df6bee7ffde132f044ab3a28c006a680adadc235587039edc295b6d0cc918689d165e071f3ef3cfe4aa53426ce04a482afafc0375a723befc097b4d2ce93848bd367e273f1ed3efc48a73624cc02a284a9a9c6315c743de9c691b2d4c895828dd561e475f7eb38fa4ea13022ca00a086ababc4335e763febc493b0d6ca97808fd763e677f5e93af84ca33220c80eae88a5a5ca3d507831e5ca9dbed8c4998e81d96de879fbe734f642ad3c2ec60cac8aa7a7c83f527a33e7c89fbcdac69b8c83db6fea7bf9e536f440af3e2cc40aaa8ca1a1ce39547c35e1ce99badcc09d8a85dd69ec7dffe330f246a9382ac208a88ea3a3cc3b567e37e3cc9bb8dec29f8887df6bee7ffde132f044ab3a28c006a680adadc235587039edc295b6d0cc918689d165e071f3ef3cfe4aa53426ce04a482afafc0375a723befc097b4d2ce93848bd367e273f1ed3efc48a73624cc02a284a9a9c6315c743de9c691b2d4c895828dd561e475f7eb38fa4ea13022ca00a086ababc4335e763febc493b0d6ca97808fd763e677f5e93af84ca33220c80eae88a5a5ca3d507831e5ca9dbed8c4998e81d96de879fbe734f642ad3c2ec60cac8aa7a7c83f527a33e7c89fbcdac69b8c83db6fea7bf9e536f440af3e2cc40aaa8ca1a1ce39547c35e1ce99badcc09d8a85dd69ec7dffe330f246a9382ac208a88ea3a3cc3b567e37e3cc9bb8dec29f8887df6bee7ffde132f044ab3a28c006a680adadc235587039edc295b6d0cc918689d165e071f3ef3cfe4aa53426ce04a482afafc0375a723befc097b4d2ce93848bd367e273f1ed3efc48a73624cc02a284a9a9c6315c743de9c691b2d4c895828dd561e475f7eb38fa4ea13022ca00a086ababc4335e763febc493b0d6ca97808fd763e677f5e93af84ca33220c80eae88a5a5ca3d507831e5ca9dbed8c4998e81d96de879fbe734f642ad3c2ec60cac8aa7a7c83f527a33e7c89fbcdac69b8c83db6fea7bf9e536f440af3e2cc40aaa8ca1a1ce39547c35e1ce99badcc09d8a85dd69ec7dffe330f246a9382ac208a88ea3a3cc3b567e37e3cc9bb8dec29f8887df6bee7ffde132f044ab3a28c006a680adadc235587039edc295b6d0cc918689d165e071f3ef3cfe4aa53426ce04a482afafc0375a723befc097b4d2ce93848bd367e273f1ed3efc48a73624cc02a284a9a9c6315c743de9c691b2d4c895828dd561e475f7eb38fa4ea13022ca00a086ababc4335e763febc493b0d6ca97808fd763e677f5e93af84ca33220c80eae88a5a5ca3d507831e5ca9dbed8c4998e81d96de879fbe734f642ad3c2ec60cac8aa7a7c83f527a33e7c89fbcdac69b8c83db6fea7bf9e536f440af3e2cc40aaa8ca1a1ce39547c35e1ce99badcc09d8a85dd69ec7dffe330f246a9382ac208a88ea3a3cc3b567e37e3cc9bb8dec29f8887df6bee7ffde132f044ab3a28c006a680adadc235587039edc295b6d0cc94c3a625cd60b4ece0acd08093ff73a8ea645cbb2c2a8fbc85e408d8194a6efbfd0cb9045792d0000225120d4406f39e1ecac403541f92340c508f98727e3d9921b0a90d13a7fb980b13e0902fd7509fdfa1a593e0cf7e1a74b241fdd2dd1ed8641bbde87a8b385e04807f60399e08e531253d984c3de71ebe65b3b5a5e7cc46b8745a9e8c51b8d8c08234a82018216a03a81e5d7319eaa0c1f740135f5c7be23ab8e510f211247d33eca555fa2cd435659e60e3e340f7cb0566c92f04deed36b890b52945d4be73de2047c96dd608ad28628607a2bc3e00e055d0fb8eb7a622f4068d78d122d5b9772b44925ca8fdff1f365d11f558517b6a10c0cce39cef00321aadfe93b2c579897cad3d7c21da5ec6f93bc8fa1a3761e19238343be78925dbca99e8111bb08011ed6847a5e4ea66a00ee7cfdf0425f73f0456141ca21ccc3e60f92e17f2feb60416e966ea0a3e04cf59f5561d9922424bad784e22d9654861a5deeac80729625e064307235003d12bafe5f621cb55b53641fa0e0471444e8257ee8151845905dbc68886b526f5b55240ae5263e2a8e5ef6b06389ecb14ccfcf8f1a80055cae278e0625326c79bb79898958455cfe34c1423b9cea48a4fee1c0cc8c578c3928fdf438c83aada1521c3127f94539bb1a67cf37fd31d7fe04922de7fd1c641f6f9db0f4e72fa63dba94c6f29b2be4da0f8e5cabf70763d9ce8b094078e620b04c6bf65d1c75e68b8c0a1c64cb399ca63041229b6b449c7255b8d5209ef985d809a0a96f1a8db835f1ade013542bf7de2ac875fc33ae8f745a7a132c15453cb63ed1a2bfd230210d59cdaf981e98ffb7c66547f60abacc446dcdd1ac7586149a5479b88592f2cdb2f2a65e53823ce3268fb03a01a3a4163a2cbbd6c76657526271c7e097aa34b84dd69e34809b17ba17e3cfaf8a2e68c9cb1c2b182d27657c1018812050876af7211ad016aa88890f6c96887fd9448e0c61a0b35b03a629b90b28a6ff1dd426adf41ed28d7f6880beeb9446b90709564d9d94faf0b6fbedee4cb188dcfb00e387790477dc03b52e05226ba39c5585ad8423d352a6004c0f66eeef0a3530af60ea1fe8728b4456fee2dfcf0611c0d19ac26cf3c1bd14ecc6a0cf183066d479bae8b835e07c428bdb0698c76bb5b3c8046379cbe2cfe68e9c116db7e539d3eb2ed121788a5ec07aee204a5882d847b6ab0ae16a24cd30b7150565deeb9f46626ec99e3ab2fc396707583baab75edc9299f7a0e7888f0a749ff0110d37f102351523d4681b5e7bc8a0290d559de55a0b10d831a64f527b6da6d6ea02d17828507c9551b7516fd01dc8d3090cfa67815ff911a90f0c130fa9f212166fd5d9dd09c4be9075ee0a62616ae7435d9c99dd048079067589d51f1fbfc9655a30ad545cbc4e474c73d46d2624f6507d3abc2027bd6076a093516bf2b9566cdeafff2013e638ce818e3c037be04699c4322ff5db701daef07487dc225b81fc3635a2c9b794b325728574511120cb31515c06b3ffb13e236d9c8b544cdbce5b778bfe5ea6ca5c29a500e55d6d977103d25ba4e2cde91cd2b469b67ed14f607a9842f19e3060990a473118763cfcdfe5ffb08beb839de47993da93e275a9f37abc48dbef2fa04529dbf319c465fa8636e2c1582f26e636c68e5b80f884012d527e013a6dfbb6bc4e7d1420c07de7c411952e5a77b7fe2ed80984a8baff4aa1dce09ce45e63277a800839bba1edfadbfbd3cd57e0838a75deebc82837d3d59008d713cd4aae5a0ce58e30766d1d70c5edd96044ba787cca9b5d6f79130daa91ac14de21a238a0acc491affa8725cacd804d0aaa2fa65a9887d3e058aef0c5dc19c3dbe0c9d3b3a9643598b4c5d7ab4c224dec2e59a0c161f317269532bb3bdab395975377a6c98c7141c10a625e202063eaaddcc6719d5a6175b3597ddf657a597c36f09fe4822702dd6d07875fa932da36789b68c5ca70e3ccfa56c4e108234043cdd367ed2216930f769a9e8b7e21c071e45d016f56383335260dfcef939bde9b1ed1a23d17d4764354040d670d27a005fedc232e29c4d5202e4000453f415f948aa7f667876df8c020eee198765d0e6ff0671c0b24b510d583b78f18f881ce1ec49911b4a9ff5838f6d4e28271248b3351ab0833f0770e40bd811134c3240a7459aec7e67050a7e7d38359f6cb45dc71481fb041267f50dbc8fc17025b2b33ac596619b81171ff74b430a2bb92450dbfb28cfe62d86bcdba0c8b5fb924c62e9667dfde30a8dba02bc1a69df69ea10b5f5baf50697f06656c0fd07d8623d87deb80c212165c93b95af33afc5ddee865ce952947c74dc8e4b3b489bc00134367c053bed41ac4174fa4119c8ec7b1af4ae4060b12ff8728734de77d898e280ef6b01fe1fcf6206539df19b9ea48e4b43bea1fa81e966995449b86d32225ee2a50dd26b33614a626232075dda53907a7b6ba6e3f508cbdc783d27ffe1e2bc9c0e711529225540479712d44bfd647a868b1a2ddfe30af7cc717d2c4fdc3c2fdde9ac0ab4d8d4c5580872873983e5097dc115897ec94edd4a0a9db0b0134141f690d54c0acbfd9c39a897d6d45cce2d7092be9f9cf1a32402f4da66365c8c2e208b3cbc3fb6249db0f47c16469a146fab55a8d89cb94a960b2fbd5706a97e210e6da2febbcbc939004cc7031445b1d93c5145d990876ca1a97de374581341e5fef9891c1883afaa4534b22ed830339494eb8232aa4e7f00eed5c28c7d06f9dc75b7d3e9f5c20fcc1c1902e4664265fa8182410d8b5c0fcb32214df25465e1eb083efbc6b6900d7c118f76c369970714e79ad58463f4ba51c2014bad8cb0350247834251b9dc622a76dc763a3863bb8e4a008cb042e8d19b5cc393747c19efe979b3d7af1a20b769a0a4d9f27877baeb1708e8179d75470fdd861032de22c3f892e9bf3c2176041b36bec164d165019473db625a1b1c76c101223ff1c7f202697d615f7bbd981a207e534376f95eec5c92f528e65af205f5cca09ff8c88a3cccfa29beca375b7d0e502db143ba98989701e80dfeb7ea9011d014f40782e96d54bb43829a4dab29a8b78175ffaf0884e3cac67fb74cc96b404dbaa87d19a99167bc0b8524f5da1a0475f27259b25f0a40c3d7f88887bc4f70930d1587fadf6d93edae87d2d2da02e2252fe28414f8c3c7cb57373e283fd1901a5bf348c3f800c542f542d907695d67b2b33dbb20511370350815139e435bdb6379e62e45589a93eeb27c6659f20bcc754f519acdcca28fd3e75fbf99dc6c93cc2e0969979480747eea7301fa893e25b266b5095719a99b5014a4ea16cfd32958d0e390f9ba45b6a87f9113010e33691d90aab9c220236897a8e8677f1aab5eeaf53d3ba439445b7c7131545d71732edf05a2d03070d14203e40434f7c858ca0b1bacd1e1f2534747790939fc4caceecf428373e476fafb8cef910122f304a51566d7e969cabadb5c5fd00000000000000000000000000000000000000000000000000101e273701fd210500ea7359b9979c9fcf6e81c14402743e2c430f12e90b3f994b204431d0567a1a5146a1f9e4e78deaeef05922b0c5476a93a6b133abed93c3abe45f959422225065e767e594299b5f279279944627fc4357743c3ccf62015bb71c896b31b226a8d7cddbdde80b9fa9c11c64d4d8545030cc67ffba4073da204865c0d6dccd7976e46fdb17f0a7e456c082e11f4833ebaf5d667e8d3f28a256ca5c0e2187c26ef61d851a91eecb305ad3d60541407da68232383131260f678f077d37e178504ad8a6364ebb9628b1feed31cc392cd2486ba3a57417e5757ac8c215d73e7ee314869217bba7aaa0155ec708ae5ff080960ec07de5161ad743765550058b8ba1d0f10fe7cff74a10f9e1d66652005c504d8806d553f838ef2ab8f9445e12bece510c696a3e8d6027a2b2a41e83ebe254cca4ac6b3d8c24824f86f306f2271a75e6179eb6517ee56118f09d42477e3f6a345717bbcc81d80e8dc6ebbe878df3b1398592eaa3a86bd504218918a4a8846be9ea0ed0f44761a607bc2055f51858850bda95998077fd5a88aec9dcba6fe5aa4de6eb8052e5b03f160eb1be1e57d3eb0c3b9bbcf385a65a1bc3155fdd98f3df4ef6d37ea7c65574587f89d386a76959879c618a943552d5009d93b7aa677b0f74a7fd4b5c36d8654a46ff67d8ac2ffca95c6e06115b7d82bc6d8e56068ceb470d568aa47a785d9986d26076f946e3edd2973d369a7a7d24a1ef9f862151a7acd1ef619b28090ad207b0904e2fd841a6906c35d62ce9f083d295a681e3fbfbd92551b4cb4b442e511a11e164229f52dacac64a4cbb830a729d913eef283005496fb9b45ca880d3bd543ce39cc32cb9f68ac55df0a013969250594f5c47b42c5119c1fb42075e8063a189fbabf064885483a67901b785a92c7ee0aa3925dd41a99318f59fac848a0e4e91c1fbc205c4b2657ffee50f44cf8a9460c7378020a22c81b84cbf3f26a55eb3298a389ca7a4d047d5b1b1e13a8766653f3fea0e57d4c5f8285dbdea1d611818925e7a3788c25620ed3c4c484afbb0637276c2cde805c387214f7fc1a5afcd0cc619c92142a24b25e01e242c5cf6e62d74e50bf0c058b0379b87f9d0e31d3a44af1bb1fbef623c338b93e345929986658ef6ca13e2d6309deebca5af36f3d6c03f278f191719dd1d05b7ac03403b2abe8892d93e7bd744732064963857296810fa6fcab1c7a5547d123daab055410ddd4654cfe64269b1f90fbf65655416c9d314f9e5d36d22e6aefb788676bfaf44ff5a0542fb221fff9e8ea19094a66d49d6402da835894b7ed8e9fd55283d4ed2ad3606d8a393c895490774e0d49732eae13fd1404d405e4bab20dafbb4ef2e76379afd2c7b45af037e2d6e61c6f295265054590cc7115d52ce07799600b252c610c9617d9bafd7d291aa3306c55cb1653b2c84d03ffc32cdf6b9932a1660111f01b346f38729c098b4ad61cb83381eb187dbf749d5394b485d7f6cd9236a0fcaaa01ff2bdc1792d89989344ebbbba72a3b6e1d460cda1b2021c18eda6dec991f90e81e1d2ac9171b65a181b5675ed80971e549179347d209ea3371bff39b98eb94bd0b466bdd23f046cac45df6d41ba51af9cf2a8a1ce6e4cb181d802188434170a16b5c8b36b007218cef702044f73416ca3fab95f9a444d3c1fc2c3c7f037fb7a421478e1484dc55e6c83961ee7e0383c7e21abf99d6ee7238ac2cd148f1636a0d2a1dce94d1c6f830dc23ee050394dcf114b8961d8a9c04677988f90c8fdaa3400541d8026e8d157f30ae709c83d15fbee4cf325a7c80591b1ae0ac0f1ab73ab3ccd539ca26a766b59a23c3979b475d2c1c6b87d690793e66796d000000",
  "txid": "cc8e99dc040805db7e048f4724e1bf174a4334fac5734c4b9f21c80ee44c768a",
  "hash": "d2a95b5ad84ccbe2a9525c1a269da937c5441c32010d1c2906eb1565705c0785",
  "size": 5085,
  "vsize": 2278,
  "version": 1,
  "locktime": 109,
  "vin": [
    {
      "txid": "3fc1e948b48f56c59054607f4620a8237d89396f35e698b13d07b3d2b3c23afe",
      "vout": 0,
      "scriptSig": {
        "asm": "",
        "hex": ""
      },
      "txinwitness": [
        "fdfa1a593e0cf7e1a74b241fdd2dd1ed8641bbde87a8b385e04807f60399e08e531253d984c3de71ebe65b3b5a5e7cc46b8745a9e8c51b8d8c08234a82018216a03a81e5d7319eaa0c1f740135f5c7be23ab8e510f211247d33eca555fa2cd435659e60e3e340f7cb0566c92f04deed36b890b52945d4be73de2047c96dd608ad28628607a2bc3e00e055d0fb8eb7a622f4068d78d122d5b9772b44925ca8fdff1f365d11f558517b6a10c0cce39cef00321aadfe93b2c579897cad3d7c21da5ec6f93bc8fa1a3761e19238343be78925dbca99e8111bb08011ed6847a5e4ea66a00ee7cfdf0425f73f0456141ca21ccc3e60f92e17f2feb60416e966ea0a3e04cf59f5561d9922424bad784e22d9654861a5deeac80729625e064307235003d12bafe5f621cb55b53641fa0e0471444e8257ee8151845905dbc68886b526f5b55240ae5263e2a8e5ef6b06389ecb14ccfcf8f1a80055cae278e0625326c79bb79898958455cfe34c1423b9cea48a4fee1c0cc8c578c3928fdf438c83aada1521c3127f94539bb1a67cf37fd31d7fe04922de7fd1c641f6f9db0f4e72fa63dba94c6f29b2be4da0f8e5cabf70763d9ce8b094078e620b04c6bf65d1c75e68b8c0a1c64cb399ca63041229b6b449c7255b8d5209ef985d809a0a96f1a8db835f1ade013542bf7de2ac875fc33ae8f745a7a132c15453cb63ed1a2bfd230210d59cdaf981e98ffb7c66547f60abacc446dcdd1ac7586149a5479b88592f2cdb2f2a65e53823ce3268fb03a01a3a4163a2cbbd6c76657526271c7e097aa34b84dd69e34809b17ba17e3cfaf8a2e68c9cb1c2b182d27657c1018812050876af7211ad016aa88890f6c96887fd9448e0c61a0b35b03a629b90b28a6ff1dd426adf41ed28d7f6880beeb9446b90709564d9d94faf0b6fbedee4cb188dcfb00e387790477dc03b52e05226ba39c5585ad8423d352a6004c0f66eeef0a3530af60ea1fe8728b4456fee2dfcf0611c0d19ac26cf3c1bd14ecc6a0cf183066d479bae8b835e07c428bdb0698c76bb5b3c8046379cbe2cfe68e9c116db7e539d3eb2ed121788a5ec07aee204a5882d847b6ab0ae16a24cd30b7150565deeb9f46626ec99e3ab2fc396707583baab75edc9299f7a0e7888f0a749ff0110d37f102351523d4681b5e7bc8a0290d559de55a0b10d831a64f527b6da6d6ea02d17828507c9551b7516fd01dc8d3090cfa67815ff911a90f0c130fa9f212166fd5d9dd09c4be9075ee0a62616ae7435d9c99dd048079067589d51f1fbfc9655a30ad545cbc4e474c73d46d2624f6507d3abc2027bd6076a093516bf2b9566cdeafff2013e638ce818e3c037be04699c4322ff5db701daef07487dc225b81fc3635a2c9b794b325728574511120cb31515c06b3ffb13e236d9c8b544cdbce5b778bfe5ea6ca5c29a500e55d6d977103d25ba4e2cde91cd2b469b67ed14f607a9842f19e3060990a473118763cfcdfe5ffb08beb839de47993da93e275a9f37abc48dbef2fa04529dbf319c465fa8636e2c1582f26e636c68e5b80f884012d527e013a6dfbb6bc4e7d1420c07de7c411952e5a77b7fe2ed80984a8baff4aa1dce09ce45e63277a800839bba1edfadbfbd3cd57e0838a75deebc82837d3d59008d713cd4aae5a0ce58e30766d1d70c5edd96044ba787cca9b5d6f79130daa91ac14de21a238a0acc491affa8725cacd804d0aaa2fa65a9887d3e058aef0c5dc19c3dbe0c9d3b3a9643598b4c5d7ab4c224dec2e59a0c161f317269532bb3bdab395975377a6c98c7141c10a625e202063eaaddcc6719d5a6175b3597ddf657a597c36f09fe4822702dd6d07875fa932da36789b68c5ca70e3ccfa56c4e108234043cdd367ed2216930f769a9e8b7e21c071e45d016f56383335260dfcef939bde9b1ed1a23d17d4764354040d670d27a005fedc232e29c4d5202e4000453f415f948aa7f667876df8c020eee198765d0e6ff0671c0b24b510d583b78f18f881ce1ec49911b4a9ff5838f6d4e28271248b3351ab0833f0770e40bd811134c3240a7459aec7e67050a7e7d38359f6cb45dc71481fb041267f50dbc8fc17025b2b33ac596619b81171ff74b430a2bb92450dbfb28cfe62d86bcdba0c8b5fb924c62e9667dfde30a8dba02bc1a69df69ea10b5f5baf50697f06656c0fd07d8623d87deb80c212165c93b95af33afc5ddee865ce952947c74dc8e4b3b489bc00134367c053bed41ac4174fa4119c8ec7b1af4ae4060b12ff8728734de77d898e280ef6b01fe1fcf6206539df19b9ea48e4b43bea1fa81e966995449b86d32225ee2a50dd26b33614a626232075dda53907a7b6ba6e3f508cbdc783d27ffe1e2bc9c0e711529225540479712d44bfd647a868b1a2ddfe30af7cc717d2c4fdc3c2fdde9ac0ab4d8d4c5580872873983e5097dc115897ec94edd4a0a9db0b0134141f690d54c0acbfd9c39a897d6d45cce2d7092be9f9cf1a32402f4da66365c8c2e208b3cbc3fb6249db0f47c16469a146fab55a8d89cb94a960b2fbd5706a97e210e6da2febbcbc939004cc7031445b1d93c5145d990876ca1a97de374581341e5fef9891c1883afaa4534b22ed830339494eb8232aa4e7f00eed5c28c7d06f9dc75b7d3e9f5c20fcc1c1902e4664265fa8182410d8b5c0fcb32214df25465e1eb083efbc6b6900d7c118f76c369970714e79ad58463f4ba51c2014bad8cb0350247834251b9dc622a76dc763a3863bb8e4a008cb042e8d19b5cc393747c19efe979b3d7af1a20b769a0a4d9f27877baeb1708e8179d75470fdd861032de22c3f892e9bf3c2176041b36bec164d165019473db625a1b1c76c101223ff1c7f202697d615f7bbd981a207e534376f95eec5c92f528e65af205f5cca09ff8c88a3cccfa29beca375b7d0e502db143ba98989701e80dfeb7ea9011d014f40782e96d54bb43829a4dab29a8b78175ffaf0884e3cac67fb74cc96b404dbaa87d19a99167bc0b8524f5da1a0475f27259b25f0a40c3d7f88887bc4f70930d1587fadf6d93edae87d2d2da02e2252fe28414f8c3c7cb57373e283fd1901a5bf348c3f800c542f542d907695d67b2b33dbb20511370350815139e435bdb6379e62e45589a93eeb27c6659f20bcc754f519acdcca28fd3e75fbf99dc6c93cc2e0969979480747eea7301fa893e25b266b5095719a99b5014a4ea16cfd32958d0e390f9ba45b6a87f9113010e33691d90aab9c220236897a8e8677f1aab5eeaf53d3ba439445b7c7131545d71732edf05a2d03070d14203e40434f7c858ca0b1bacd1e1f2534747790939fc4caceecf428373e476fafb8cef910122f304a51566d7e969cabadb5c5fd00000000000000000000000000000000000000000000000000101e273701",
        "00ea7359b9979c9fcf6e81c14402743e2c430f12e90b3f994b204431d0567a1a5146a1f9e4e78deaeef05922b0c5476a93a6b133abed93c3abe45f959422225065e767e594299b5f279279944627fc4357743c3ccf62015bb71c896b31b226a8d7cddbdde80b9fa9c11c64d4d8545030cc67ffba4073da204865c0d6dccd7976e46fdb17f0a7e456c082e11f4833ebaf5d667e8d3f28a256ca5c0e2187c26ef61d851a91eecb305ad3d60541407da68232383131260f678f077d37e178504ad8a6364ebb9628b1feed31cc392cd2486ba3a57417e5757ac8c215d73e7ee314869217bba7aaa0155ec708ae5ff080960ec07de5161ad743765550058b8ba1d0f10fe7cff74a10f9e1d66652005c504d8806d553f838ef2ab8f9445e12bece510c696a3e8d6027a2b2a41e83ebe254cca4ac6b3d8c24824f86f306f2271a75e6179eb6517ee56118f09d42477e3f6a345717bbcc81d80e8dc6ebbe878df3b1398592eaa3a86bd504218918a4a8846be9ea0ed0f44761a607bc2055f51858850bda95998077fd5a88aec9dcba6fe5aa4de6eb8052e5b03f160eb1be1e57d3eb0c3b9bbcf385a65a1bc3155fdd98f3df4ef6d37ea7c65574587f89d386a76959879c618a943552d5009d93b7aa677b0f74a7fd4b5c36d8654a46ff67d8ac2ffca95c6e06115b7d82bc6d8e56068ceb470d568aa47a785d9986d26076f946e3edd2973d369a7a7d24a1ef9f862151a7acd1ef619b28090ad207b0904e2fd841a6906c35d62ce9f083d295a681e3fbfbd92551b4cb4b442e511a11e164229f52dacac64a4cbb830a729d913eef283005496fb9b45ca880d3bd543ce39cc32cb9f68ac55df0a013969250594f5c47b42c5119c1fb42075e8063a189fbabf064885483a67901b785a92c7ee0aa3925dd41a99318f59fac848a0e4e91c1fbc205c4b2657ffee50f44cf8a9460c7378020a22c81b84cbf3f26a55eb3298a389ca7a4d047d5b1b1e13a8766653f3fea0e57d4c5f8285dbdea1d611818925e7a3788c25620ed3c4c484afbb0637276c2cde805c387214f7fc1a5afcd0cc619c92142a24b25e01e242c5cf6e62d74e50bf0c058b0379b87f9d0e31d3a44af1bb1fbef623c338b93e345929986658ef6ca13e2d6309deebca5af36f3d6c03f278f191719dd1d05b7ac03403b2abe8892d93e7bd744732064963857296810fa6fcab1c7a5547d123daab055410ddd4654cfe64269b1f90fbf65655416c9d314f9e5d36d22e6aefb788676bfaf44ff5a0542fb221fff9e8ea19094a66d49d6402da835894b7ed8e9fd55283d4ed2ad3606d8a393c895490774e0d49732eae13fd1404d405e4bab20dafbb4ef2e76379afd2c7b45af037e2d6e61c6f295265054590cc7115d52ce07799600b252c610c9617d9bafd7d291aa3306c55cb1653b2c84d03ffc32cdf6b9932a1660111f01b346f38729c098b4ad61cb83381eb187dbf749d5394b485d7f6cd9236a0fcaaa01ff2bdc1792d89989344ebbbba72a3b6e1d460cda1b2021c18eda6dec991f90e81e1d2ac9171b65a181b5675ed80971e549179347d209ea3371bff39b98eb94bd0b466bdd23f046cac45df6d41ba51af9cf2a8a1ce6e4cb181d802188434170a16b5c8b36b007218cef702044f73416ca3fab95f9a444d3c1fc2c3c7f037fb7a421478e1484dc55e6c83961ee7e0383c7e21abf99d6ee7238ac2cd148f1636a0d2a1dce94d1c6f830dc23ee050394dcf114b8961d8a9c04677988f90c8fdaa3400541d8026e8d157f30ae709c83d15fbee4cf325a7c80591b1ae0ac0f1ab73ab3ccd539ca26a766b59a23c3979b475d2c1c6b87d690793e6679"
      ],
      "sequence": 4294967294
    }
  ],
  "vout": [
    {
      "value": 1.0,
      "n": 0,
      "scriptPubKey": {
        "asm": "OP_RETURN 8ac25a91909d46caf775f0a104ad57fd756759d56a8c97c5b0a07a5a91d13759 eae88a5a5ca3d507831e5ca9dbed8c4998e81d96de879fbe734f642ad3c2ec60cac8aa7a7c83f527a33e7c89fbcdac69b8c83db6fea7bf9e536f440af3e2cc40aaa8ca1a1ce39547c35e1ce99badcc09d8a85dd69ec7dffe330f246a9382ac208a88ea3a3cc3b567e37e3cc9bb8dec29f8887df6bee7ffde132f044ab3a28c006a680adadc235587039edc295b6d0cc918689d165e071f3ef3cfe4aa53426ce04a482afafc0375a723befc097b4d2ce93848bd367e273f1ed3efc48a73624cc02a284a9a9c6315c743de9c691b2d4c895828dd561e475f7eb38fa4ea13022ca00a086ababc4335e763febc493b0d6ca97808fd763e677f5e93af84ca33220c80eae88a5a5ca3d507831e5ca9dbed8c4998e81d96de879fbe734f642ad3c2ec60cac8aa7a7c83f527a33e7c89fbcdac69b8c83db6fea7bf9e536f440af3e2cc40aaa8ca1a1ce39547c35e1ce99badcc09d8a85dd69ec7dffe330f246a9382ac208a88ea3a3cc3b567e37e3cc9bb8dec29f8887df6bee7ffde132f044ab3a28c006a680adadc235587039edc295b6d0cc918689d165e071f3ef3cfe4aa53426ce04a482afafc0375a723befc097b4d2ce93848bd367e273f1ed3efc48a73624cc02a284a9a9c6315c743de9c691b2d4c895828dd561e475f7eb38fa4ea13022ca00a086ababc4335e763febc493b0d6ca97808fd763e677f5e93af84ca33220c80eae88a5a5ca3d507831e5ca9dbed8c4998e81d96de879fbe734f642ad3c2ec60cac8aa7a7c83f527a33e7c89fbcdac69b8c83db6fea7bf9e536f440af3e2cc40aaa8ca1a1ce39547c35e1ce99badcc09d8a85dd69ec7dffe330f246a9382ac208a88ea3a3cc3b567e37e3cc9bb8dec29f8887df6bee7ffde132f044ab3a28c006a680adadc235587039edc295b6d0cc918689d165e071f3ef3cfe4aa53426ce04a482afafc0375a723befc097b4d2ce93848bd367e273f1ed3efc48a73624cc02a284a9a9c6315c743de9c691b2d4c895828dd561e475f7eb38fa4ea13022ca00a086ababc4335e763febc493b0d6ca97808fd763e677f5e93af84ca33220c80eae88a5a5ca3d507831e5ca9dbed8c4998e81d96de879fbe734f642ad3c2ec60cac8aa7a7c83f527a33e7c89fbcdac69b8c83db6fea7bf9e536f440af3e2cc40aaa8ca1a1ce39547c35e1ce99badcc09d8a85dd69ec7dffe330f246a9382ac208a88ea3a3cc3b567e37e3cc9bb8dec29f8887df6bee7ffde132f044ab3a28c006a680adadc235587039edc295b6d0cc918689d165e071f3ef3cfe4aa53426ce04a482afafc0375a723befc097b4d2ce93848bd367e273f1ed3efc48a73624cc02a284a9a9c6315c743de9c691b2d4c895828dd561e475f7eb38fa4ea13022ca00a086ababc4335e763febc493b0d6ca97808fd763e677f5e93af84ca33220c80eae88a5a5ca3d507831e5ca9dbed8c4998e81d96de879fbe734f642ad3c2ec60cac8aa7a7c83f527a33e7c89fbcdac69b8c83db6fea7bf9e536f440af3e2cc40aaa8ca1a1ce39547c35e1ce99badcc09d8a85dd69ec7dffe330f246a9382ac208a88ea3a3cc3b567e37e3cc9bb8dec29f8887df6bee7ffde132f044ab3a28c006a680adadc235587039edc295b6d0cc94c3a625cd60b4ece0acd08093ff73a8ea645cbb2c2a8fbc85e408d8194a6efbf",
        "hex": "6a208ac25a91909d46caf775f0a104ad57fd756759d56a8c97c5b0a07a5a91d137594db004eae88a5a5ca3d507831e5ca9dbed8c4998e81d96de879fbe734f642ad3c2ec60cac8aa7a7c83f527a33e7c89fbcdac69b8c83db6fea7bf9e536f440af3e2cc40aaa8ca1a1ce39547c35e1ce99badcc09d8a85dd69ec7dffe330f246a9382ac208a88ea3a3cc3b567e37e3cc9bb8dec29f8887df6bee7ffde132f044ab3a28c006a680adadc235587039edc295b6d0cc918689d165e071f3ef3cfe4aa53426ce04a482afafc0375a723befc097b4d2ce93848bd367e273f1ed3efc48a73624cc02a284a9a9c6315c743de9c691b2d4c895828dd561e475f7eb38fa4ea13022ca00a086ababc4335e763febc493b0d6ca97808fd763e677f5e93af84ca33220c80eae88a5a5ca3d507831e5ca9dbed8c4998e81d96de879fbe734f642ad3c2ec60cac8aa7a7c83f527a33e7c89fbcdac69b8c83db6fea7bf9e536f440af3e2cc40aaa8ca1a1ce39547c35e1ce99badcc09d8a85dd69ec7dffe330f246a9382ac208a88ea3a3cc3b567e37e3cc9bb8dec29f8887df6bee7ffde132f044ab3a28c006a680adadc235587039edc295b6d0cc918689d165e071f3ef3cfe4aa53426ce04a482afafc0375a723befc097b4d2ce93848bd367e273f1ed3efc48a73624cc02a284a9a9c6315c743de9c691b2d4c895828dd561e475f7eb38fa4ea13022ca00a086ababc4335e763febc493b0d6ca97808fd763e677f5e93af84ca33220c80eae88a5a5ca3d507831e5ca9dbed8c4998e81d96de879fbe734f642ad3c2ec60cac8aa7a7c83f527a33e7c89fbcdac69b8c83db6fea7bf9e536f440af3e2cc40aaa8ca1a1ce39547c35e1ce99badcc09d8a85dd69ec7dffe330f246a9382ac208a88ea3a3cc3b567e37e3cc9bb8dec29f8887df6bee7ffde132f044ab3a28c006a680adadc235587039edc295b6d0cc918689d165e071f3ef3cfe4aa53426ce04a482afafc0375a723befc097b4d2ce93848bd367e273f1ed3efc48a73624cc02a284a9a9c6315c743de9c691b2d4c895828dd561e475f7eb38fa4ea13022ca00a086ababc4335e763febc493b0d6ca97808fd763e677f5e93af84ca33220c80eae88a5a5ca3d507831e5ca9dbed8c4998e81d96de879fbe734f642ad3c2ec60cac8aa7a7c83f527a33e7c89fbcdac69b8c83db6fea7bf9e536f440af3e2cc40aaa8ca1a1ce39547c35e1ce99badcc09d8a85dd69ec7dffe330f246a9382ac208a88ea3a3cc3b567e37e3cc9bb8dec29f8887df6bee7ffde132f044ab3a28c006a680adadc235587039edc295b6d0cc918689d165e071f3ef3cfe4aa53426ce04a482afafc0375a723befc097b4d2ce93848bd367e273f1ed3efc48a73624cc02a284a9a9c6315c743de9c691b2d4c895828dd561e475f7eb38fa4ea13022ca00a086ababc4335e763febc493b0d6ca97808fd763e677f5e93af84ca33220c80eae88a5a5ca3d507831e5ca9dbed8c4998e81d96de879fbe734f642ad3c2ec60cac8aa7a7c83f527a33e7c89fbcdac69b8c83db6fea7bf9e536f440af3e2cc40aaa8ca1a1ce39547c35e1ce99badcc09d8a85dd69ec7dffe330f246a9382ac208a88ea3a3cc3b567e37e3cc9bb8dec29f8887df6bee7ffde132f044ab3a28c006a680adadc235587039edc295b6d0cc94c3a625cd60b4ece0acd08093ff73a8ea645cbb2c2a8fbc85e408d8194a6efbf",
        "type": "nulldata"
      }
    },
    {
      "value": 499988.8141,
      "n": 1,
      "scriptPubKey": {
        "asm": "1 d4406f39e1ecac403541f92340c508f98727e3d9921b0a90d13a7fb980b13e09",
        "hex": "5120d4406f39e1ecac403541f92340c508f98727e3d9921b0a90d13a7fb980b13e09",
        "reqSigs": 1,
        "type": "witness_v1_scripthash",
        "addresses": [
          "3QJmnh"
        ]
      }
    }
  ],
  "blockhash": "9418e69333e129952491dcd6dc324ee50ca4a2e07f0678970cb85d951484494a",
  "confirmations": 1,
  "time": 1764177673,
  "blocktime": 1764177673
}