{
  "hex": "01000000000101184a51ccaef9f7352312f53be428b083e0a1b0522fa835423a03919f9a0a190e0100000000feffffff0200e1f50500000000fdd5046a20fe5bb72e0bbe0506b12d12718a6363ba5d0751679277cf014124778a14819a1a4db0043b8fd93149ecf0672503c5d648239e20d13db681af4340b02294e0938edcd2ff1baff91169ccd0470523e5f66803be00f11d96a18f63609002b4c0b3aefcf2df7bcf997109acb027654385960863de60917df6c1ef0300f062d4a0d3ce9c92bf5befb951298c90074563a5b62843fe40b15dd6e1cf2320d042f480f3eebcb29fbb0f59b1c96c70e7a5834556c8a31ea051bd36012fc3c030a21460130e5c527f9b2f7991e94c50c785a36576e8833e80719d16210fe3e010823440332e7c725ffb4f19f1892c30a7e5c3051688e35ee011fd76416f838070e25420534e1c123fdb6f39d1a90c1087c5e32536a8c37ec031dd56614fa3a050c27400736e3c321f3b8fd93149ecf0672503c5d648239e20d13db681af4340b02294e0938edcd2ff1baff91169ccd0470523e5f66803be00f11d96a18f63609002b4c0b3aefcf2df7bcf997109acb027654385960863de60917df6c1ef0300f062d4a0d3ce9c92bf5befb951298c90074563a5b62843fe40b15dd6e1cf2320d042f480f3eebcb29fbb0f59b1c96c70e7a5834556c8a31ea051bd36012fc3c030a21460130e5c527f9b2f7991e94c50c785a36576e8833e80719d16210fe3e010823440332e7c725ffb4f19f1892c30a7e5c3051688e35ee011fd76416f838070e25420534e1c123fdb6f39d1a90c1087c5e32536a8c37ec031dd56614fa3a050c27400736e3c321f3b8fd93149ecf0672503c5d648239e20d13db681af4340b02294e0938edcd2ff1baff91169ccd0470523e5f66803be00f11d96a18f63609002b4c0b3aefcf2df7bcf997109acb027654385960863de60917df6c1ef0300f062d4a0d3ce9c92bf5befb951298c90074563a5b62843fe40b15dd6e1cf2320d042f480f3eebcb29fbb0f59b1c96c70e7a5834556c8a31ea051bd36012fc3c030a21460130e5c527f9b2f7991e94c50c785a36576e8833e80719d16210fe3e010823440332e7c725ffb4f19f1892c30a7e5c3051688e35ee011fd76416f838070e25420534e1c123fdb6f39d1a90c1087c5e32536a8c37ec031dd56614fa3a050c27400736e3c321f3b8fd93149ecf0672503c5d648239e20d13db681af4340b02294e0938edcd2ff1baff91169ccd0470523e5f66803be00f11d96a18f63609002b4c0b3aefcf2df7bcf997109acb027654385960863de60917df6c1ef0300f062d4a0d3ce9c92bf5befb951298c90074563a5b62843fe40b15dd6e1cf2320d042f480f3eebcb29fbb0f59b1c96c70e7a5834556c8a31ea051bd36012fc3c030a21460130e5c527f9b2f7991e94c50c785a36576e8833e80719d16210fe3e010823440332e7c725ffb4f19f1892c30a7e5c3051688e35ee011fd76416f838070e25420534e1c123fdb6f39d1a90c1087c5e32536a8c37ec031dd56614fa3a050c27400736e3c321f3b8fd93149ecf0672503c5d648239e20d13db681af4340b02294e0938edcd2ff1baff91169ccd0470523e5f66803be00f11d96a18f63609002b4c0b3aefcf2df7bcf997109acb027654385960863de60917df6c1ef0300f062d4a0d3ce9c92bf5befb951298c90074563a5b62843fe40b15dd6e1cf2320d042f480f3eebcb29fbb0f59b1c96c70e7a5834556c8a31ea0f9665624d4865a269601c288145893652eeb3aa8b9ec6168ac1c93ec09399a91d0cb9045792d000022512002c991678b7a5a320966e46f3f044e841d8d9f1e887be1a73136953e85b496fa02fd75099e8ead79f55f4655e79799e3ac5370b9c19a82c4a9fad1692e46c913e9d0ef77f1969e86a26c5dc21ac416f45be3041d763cfb4a0434461744cc5f79bb436e9d4d8a6709bc63c587959eda36c4b5d5d25b192eaef1d5bd0e58bc285678e463b8dd6da3775df7efb46a9b76ace1b7a945b9065dff1d7f050b816147965e67c60954c2e96b7e4c02a4f33d7ee7b33f76825360270a81bd1d02240836fd622f5c8386ee87a8fc316e8031196688946d1518e86647973cfa5eea64c7a642c547a19ada728b51192a410c3c1d78f94d123d9081fe637ec26674a7ea18b444972bf2018a3b15be138e04c6f655860898f4a5ecf4b03904898476dd3ec9f74e68db2b829df18a729ecfdbb3be422c8274c4babc81e013eeadd830df7c1c5d0e49bbe607c3ccabf403c3431f7e41f5b81cd094bfc08575a501d66d10390ec8e78248c7f5a624a33aacc903b5fcddfbac96b9581110d408f1206ec6b2ce53103eb928f92be6e2d49bbba19e2a55211387c729b7b1187fb4363e597784c7e15a1f9e89e7ab714a2cf34e9fdbd053e986e0f7045cbc62a4bc61be0e5b0934d465e2d9d7fa0c8e28a4dbb2e3b269ec13d9a15778b33998fd81e4cf58da885a19da9da14d5d6f25171d4aab02dd11659a8a23718f9e4aecc4d1e114177bb94ae93550cea70a9e5059d73628420fb674d1f876b6b96b3c215b229fa50a661b060ba7a56dfd27fc8acc96e454962ae25378e6864dca5010e8749aa9f85c24fdef80429908da53a423d15160eefd5ed8e3aecfda968a84e258b69b2fd78b56c112cfc0797f33b9172ac4d931eb97e4b3a67b840c2f27e2e76c51679688dcffdcde5cbf09e5d07ea5c7a50c959ea8c2fa3b5837375a678edc9103e62f9800b7b4aded217684a8415807925f94e903fb5943b7367f491a0c1d5ddb7fb5df2ca0e281306c08fa620a2deb812c014e8c252bc745053194a663f44895109e12382a71abf21b730b4b82472a9122c97d2cbc47f7eacbb8e0ad1779d712251c78dba5266df6155682883e64c870ca037074a124e72500dfa08136e288ac96bfd96832cdff2e0ec0306588923f7cc59540be12bb4da2d970ecd92beed799c979daf78224d27b3e1e0e45aaae8b42a7e8a80c86fb44093f7d56e4fadd4ac014855ccef7bfda085e63e1c143bfbf6c5028a69d5238a431f73d1e1a3d05c7648aa1c7e374161e0766fc3e6bf4060e7c9a1105ec48c417942099ce6b255eccdf364a39d5e3115d6f9d6a6dea63745015161e1fc207bb71386952b6562a92292681f53a6e433fe5b051d59b03ddf03358a55523a75ccee4ffb8133be1d4d2b527d0b95f26bbac00bfe47b5181902fc4ff66e12b3fdb940c98b2151c48d354cb10d47487793f28068a23f6138e2c48480ada38df30321379abfb9c8969c7ca08a0735922b62ca6e02b7244fe226c10020b7e01d40d3f6b23f3faf75742e463fa1112c21517dc5925436e25f9317c097c2b406507ca6c4ecf4cb9d71fa1eec2fe5dba30c25bf0ee381c13ed52d9deb43b46a8f1ac7248b9ebe3d9747cc773348005eba6e3e3d34c376d0320f72ef780bcaa04281e6786846bf485c55e8a7aaff0eab7c4aa0b030e5cec74ce2834d06d5455bc7daab8da83553fa6a778b82173b17934f90db2316910514366dee47530da609dd51834fd52028d121771aecaeee6cc95ed98f8da954c5a7a137fab6f300afc95009c3b714e3f02f29c9604e7add7d429cfb58eadc96ff84c79263f6c17f9f0a1c6317c7e455326dcf95cec28b56562db19ed6859e95c5dc53980e9755d0052ae487112ce98a561097e4155b35d6be8eeb96d5760fe76fd802173b8ac1ac2011a5ab39e655fe9caf0051cab913ff973d76922e67e7ff2fa9f9ac999182c14ebaba0e6c5974047ba5abeaeb741b00ee21568fe99cca07676b7b8b0bc17858b6f1c3acb88559208d2dce8e04fa017ee4be68d8b3138cd3e1784f7307169b66318422b8d3f107d67dc93d0386ef13ec8474529a024517c31686612bd1cdc41d533a7d260a0f72864ca27c3b160eb929cc828ccbd21f6eb2d525508929878d2d0f3d407e44cb559045da7bc263c91bd4d4996320e1ebbb853802b52fecc769ad05dccdf36754cc86976480727e823b609723601ee11370109706e4abcc5bc6b3322ae65966d646aae756be1a48eae5bc24fa91886d97f24d51316955160af8902606f169ae7f9631dc1f95a69d3e988a45b78bc9655561c8f321900a1fd5bc68f06530414cea7bcd7b6cdfed02846aea961273f1504d5cdad01fca0114e6581c25218789abb696649d48aecd5ecc4ad422b036798d5701207ca79aaa706226108c5cddd11cb30a9eedbb9cf7781d70e4f439c49f747ee8b7303614acc3b6bf3dcfe40f024febb452e6cc2fbf8a453477406cf33892043da84f4763d696dc504446da4a169069e4381a6367d7af8e13e60d56c9b39218a304536067af0eca37636f17489eb1829ac02ca0592005c8d028b0f59658b95a9c8966316241defa10973d05f2115db69019484ec730319029499d7e2e7543be5d494fa9b523c1bd9cb5da69ca26bc79d7ae94052055f645dd21db16242d0be09f19205356c74ffb1889933537c06c5fc5b0d7ea8c61bbf94099bb50e6dc390f3827f118bc5422a3a05a6ced1a4589633191ca82596e11ecff34543a5c493e3ab580c9215148bf037d8137bc08b2b48bbaea0d2e804bf1b498a8e80c3384273b26d6c4f92683291436418e1325d9bd89fb1ac5f4c3184d0a71fe34d25c741ec2506b17f7c641d0fd64bf4435da4191de861076f53865797163a5baffadcbf4eee8526714aae2bb2744a6a51477d4e48189e4c27bf64f8b1840876d5253b0f861ab64b1ad661065ef8f95a5938340f183686db3406995ccce3b3913172815641bff3a4183e1eaa96eec3f0d6d03be2401d7e4f61ae2dd17c784bbdf2eb9895c7d0a2c34aa52822fd740bb10c85ef757d73f0744712f9b6ec91cd268c46ae3099856ffe6799168dc324e388fb6a2ee3255f1f27f8f5bcba631dd8f2f8b938087d8688850631ce04ac902a947248a0cdc791dcf063027e4e7bf7b3b7885d4796356e8467734388a3a6d795424989f9a05b6ebe0b5944ffec119ddcfcc9a3251583b3af85e556c97bfb022971f32dfcc80b494c13a9c93e96e91d8eeb399e0f555c140c933d68f8bfc8598d391c9a49485ccc62d28caac079d37443a83594bdaefda2b783cb2a682cd9adb0564ac1e36149262992ad21deeb7cba39d5ccf34a024bb21445da63249d9304c614161d31393d86c2cadbdef8151b1d242b37657382929496b1b4d1dee2ec0d1441454b6f7785878ea5cef809181c273a4e53555c7279808bc5eceff2ff000000000000000000000000000000000000000c1e2b3d01fd210500c448e9caad9a7f491929c02e27e932b4c353f8dafa4e3d7c13bf29c57274656b813fd0defe92224dac269deca659eb48310444fb629440e9985db7186496e6c6cbef3b1caec8a5803688761fa6ff99fd375ce849e7d37118c6decc817132672db34e27cd21893435dd24665e828720f80da2db6da4d3709a3a2690afae36c599768787a1aa50053edf1ba1afeff6ca219b02c58f52bf8b15e47f8e9d4142db26190691094a8f12bf1b89acba7fe41730e0c4aa6f6cc2b838e3986513b9f30a677da6ac354b5baa2a64952e23954549938002c7cac5a5ec018735e4501b7afd4286fb7a8877407137829cc62fb914a594c6c704879e053fe92964a6120c0e6d0b1dc059731d34fd84363503f123c3ddd5c07dfc70929f3b4ce50b81c0a95b181d4c363e914579b1f9fdb396f641e050f42ac83e9cdbb619efec25da664a216815feb6e94d89bb6c51c7118ec94a9ae9147f0be1cadd77bfe9f59199367995c7113f8cc1b5fc3e86da84507bd1acbfea69164f761d148d2ae424b5614b40d40b48b6d3aa9cf0bf7affffa2f21c8025dd4608c073e5b03d04dc10302bf87719ee20ca95216793bebad9729e0b6769a09f6b748581f538d030b777c07a4fb985b322856704b9e1df9b188224f278338366a5a97460f4b23aa090d7fad30699141fab43fe95134a860758456bfbec5f1397fba11c2c32266b391d1774c68644887d7ccf1a6476fdafc91ac61d885b8952e98407ff279111ef329a67bdcbb224a1bd836cfce03d6a7349ffeefbea893a12aa6631cae4af2cc7e495644ad565d66f1534e4009af81cc89e946391e0175c24285989951b30f4ec3f8011286267146af9cfc74ddc4c3c6237ddf8435f2ea5319ff58dacef4b56f112c9d17d432129223345b137a9edb5bd1478253140b584466da40e718c35910d610160634a786e0d93c2d3b433b39ddc184b954357517addb5faa7aed8c6fcab2ca7267ce906e880d092c8b126013bf420aaebf845985c24b1dd3b80d4c7c931b5e5af7d208c5bb2a99c82650a7a54141ead1d06357ae7f79c973b3be644b463a428c0c9e27e68d4020563e17bf6f91063b47edd4abb3ba36db70609d6786923aef783b19038259b6c296e748bb036f40fc87d8e590409bf4435b9694dfca4596aa57ca7e3e007ed84d37fac8bcc5ff9a92e746619e4fd2ba19fe35beebebfa1a6a0fc743fa529937e9e46ef778e19810285450c7033a8a7d2f8025f247b0b7bd60d12d8440fb4dbdf9415151a1e70f72e1b7759890af1d6830d529b7f9ef7f37613932e9caa39be96400ee59270678bc334e5e81914ca91bda2d114be340613c6af19c332d61959aa6b793f95904defa3061b4efcd906d3da5a38521381cc795a85b2887ded7ff674bd711ef4e433c2f9a7699f798b451803da108362c1a2287ca55bb611ddcc895f23b64803630b6f893872e90861219041735e81a978ccc025513c502f388996e98d6c9103ff9f27b0a17840a1ea64094dfa674b85b84e3f7ebbb36079e68e21f9a1360c78ed130d1240cec919a7e19e6e14cce51ac2460d1c590d444b563e8e5a091d2eac52b9bd7cfb0e8d0aabc0de1d154196f668852914fafe9c65aae78d35e9a72dac99196954d4ba6536ef60f927100c51c2cb224b1d4960aa6858f96bd80c877090303f7f4ac3f82795a842cf50525bdbd6d5da3df076f193a67930cd0153a4eba21e52ffd069bd3ec455dd663186785949c1ec964c73e4abc7c65df233f4d9b4c6d6e9e073844cac79bf6564807e9a8f6b1812ac7a5f93464108212471a9556a50cdb52672adbbba4b1ada4f5f14126476f55ee9b6b1b02f0e365938161c52000000",
  "txid": "c9b17c8aabfc2e9583eb566819be97f260b0103452ead78dc988e88622a5069e",
  "hash": "f17d352cd90357afc8ad9820ecaf914b316adae85288742bc2a3e51dd8dccbb7",
  "size": 5085,
  "vsize": 2278,
  "version": 1,
  "locktime": 82,
  "vin": [
    {
      "txid": "0e190a9a9f91033a4235a82f52b0a1e083b028e43bf5122335f7f9aecc514a18",
      "vout": 1,
      "scriptSig": {
        "asm": "",
        "hex": ""
      },
      "txinwitness": [
        "9e8ead79f55f4655e79799e3ac5370b9c19a82c4a9fad1692e46c913e9d0ef77f1969e86a26c5dc21ac416f45be3041d763cfb4a0434461744cc5f79bb436e9d4d8a6709bc63c587959eda36c4b5d5d25b192eaef1d5bd0e58bc285678e463b8dd6da3775df7efb46a9b76ace1b7a945b9065dff1d7f050b816147965e67c60954c2e96b7e4c02a4f33d7ee7b33f76825360270a81bd1d02240836fd622f5c8386ee87a8fc316e8031196688946d1518e86647973cfa5eea64c7a642c547a19ada728b51192a410c3c1d78f94d123d9081fe637ec26674a7ea18b444972bf2018a3b15be138e04c6f655860898f4a5ecf4b03904898476dd3ec9f74e68db2b829df18a729ecfdbb3be422c8274c4babc81e013eeadd830df7c1c5d0e49bbe607c3ccabf403c3431f7e41f5b81cd094bfc08575a501d66d10390ec8e78248c7f5a624a33aacc903b5fcddfbac96b9581110d408f1206ec6b2ce53103eb928f92be6e2d49bbba19e2a55211387c729b7b1187fb4363e597784c7e15a1f9e89e7ab714a2cf34e9fdbd053e986e0f7045cbc62a4bc61be0e5b0934d465e2d9d7fa0c8e28a4dbb2e3b269ec13d9a15778b33998fd81e4cf58da885a19da9da14d5d6f25171d4aab02dd11659a8a23718f9e4aecc4d1e114177bb94ae93550cea70a9e5059d73628420fb674d1f876b6b96b3c215b229fa50a661b060ba7a56dfd27fc8acc96e454962ae25378e6864dca5010e8749aa9f85c24fdef80429908da53a423d15160eefd5ed8e3aecfda968a84e258b69b2fd78b56c112cfc0797f33b9172ac4d931eb97e4b3a67b840c2f27e2e76c51679688dcffdcde5cbf09e5d07ea5c7a50c959ea8c2fa3b5837375a678edc9103e62f9800b7b4aded217684a8415807925f94e903fb5943b7367f491a0c1d5ddb7fb5df2ca0e281306c08fa620a2deb812c014e8c252bc745053194a663f44895109e12382a71abf21b730b4b82472a9122c97d2cbc47f7eacbb8e0ad1779d712251c78dba5266df6155682883e64c870ca037074a124e72500dfa08136e288ac96bfd96832cdff2e0ec0306588923f7cc59540be12bb4da2d970ecd92beed799c979daf78224d27b3e1e0e45aaae8b42a7e8a80c86fb44093f7d56e4fadd4ac014855ccef7bfda085e63e1c143bfbf6c5028a69d5238a431f73d1e1a3d05c7648aa1c7e374161e0766fc3e6bf4060e7c9a1105ec48c417942099ce6b255eccdf364a39d5e3115d6f9d6a6dea63745015161e1fc207bb71386952b6562a92292681f53a6e433fe5b051d59b03ddf03358a55523a75ccee4ffb8133be1d4d2b527d0b95f26bbac00bfe47b5181902fc4ff66e12b3fdb940c98b2151c48d354cb10d47487793f28068a23f6138e2c48480ada38df30321379abfb9c8969c7ca08a0735922b62ca6e02b7244fe226c10020b7e01d40d3f6b23f3faf75742e463fa1112c21517dc5925436e25f9317c097c2b406507ca6c4ecf4cb9d71fa1eec2fe5dba30c25bf0ee381c13ed52d9deb43b46a8f1ac7248b9ebe3d9747cc773348005eba6e3e3d34c376d0320f72ef780bcaa04281e6786846bf485c55e8a7aaff0eab7c4aa0b030e5cec74ce2834d06d5455bc7daab8da83553fa6a778b82173b17934f90db2316910514366dee47530da609dd51834fd52028d121771aecaeee6cc95ed98f8da954c5a7a137fab6f300afc95009c3b714e3f02f29c9604e7add7d429cfb58eadc96ff84c79263f6c17f9f0a1c6317c7e455326dcf95cec28b56562db19ed6859e95c5dc53980e9755d0052ae487112ce98a561097e4155b35d6be8eeb96d5760fe76fd802173b8ac1ac2011a5ab39e655fe9caf0051cab913ff973d76922e67e7ff2fa9f9ac999182c14ebaba0e6c5974047ba5abeaeb741b00ee21568fe99cca07676b7b8b0bc17858b6f1c3acb88559208d2dce8e04fa017ee4be68d8b3138cd3e1784f7307169b66318422b8d3f107d67dc93d0386ef13ec8474529a024517c31686612bd1cdc41d533a7d260a0f72864ca27c3b160eb929cc828ccbd21f6eb2d525508929878d2d0f3d407e44cb559045da7bc263c91bd4d4996320e1ebbb853802b52fecc769ad05dccdf36754cc86976480727e823b609723601ee11370109706e4abcc5bc6b3322ae65966d646aae756be1a48eae5bc24fa91886d97f24d51316955160af8902606f169ae7f9631dc1f95a69d3e988a45b78bc9655561c8f321900a1fd5bc68f06530414cea7bcd7b6cdfed02846aea961273f1504d5cdad01fca0114e6581c25218789abb696649d48aecd5ecc4ad422b036798d5701207ca79aaa706226108c5cddd11cb30a9eedbb9cf7781d70e4f439c49f747ee8b7303614acc3b6bf3dcfe40f024febb452e6cc2fbf8a453477406cf33892043da84f4763d696dc504446da4a169069e4381a6367d7af8e13e60d56c9b39218a304536067af0eca37636f17489eb1829ac02ca0592005c8d028b0f59658b95a9c8966316241defa10973d05f2115db69019484ec730319029499d7e2e7543be5d494fa9b523c1bd9cb5da69ca26bc79d7ae94052055f645dd21db16242d0be09f19205356c74ffb1889933537c06c5fc5b0d7ea8c61bbf94099bb50e6dc390f3827f118bc5422a3a05a6ced1a4589633191ca82596e11ecff34543a5c493e3ab580c9215148bf037d8137bc08b2b48bbaea0d2e804bf1b498a8e80c3384273b26d6c4f92683291436418e1325d9bd89fb1ac5f4c3184d0a71fe34d25c741ec2506b17f7c641d0fd64bf4435da4191de861076f53865797163a5baffadcbf4eee8526714aae2bb2744a6a51477d4e48189e4c27bf64f8b1840876d5253b0f861ab64b1ad661065ef8f95a5938340f183686db3406995ccce3b3913172815641bff3a4183e1eaa96eec3f0d6d03be2401d7e4f61ae2dd17c784bbdf2eb9895c7d0a2c34aa52822fd740bb10c85ef757d73f0744712f9b6ec91cd268c46ae3099856ffe6799168dc324e388fb6a2ee3255f1f27f8f5bcba631dd8f2f8b938087d8688850631ce04ac902a947248a0cdc791dcf063027e4e7bf7b3b7885d4796356e8467734388a3a6d795424989f9a05b6ebe0b5944ffec119ddcfcc9a3251583b3af85e556c97bfb022971f32dfcc80b494c13a9c93e96e91d8eeb399e0f555c140c933d68f8bfc8598d391c9a49485ccc62d28caac079d37443a83594bdaefda2b783cb2a682cd9adb0564ac1e36149262992ad21deeb7cba39d5ccf34a024bb21445da63249d9304c614161d31393d86c2cadbdef8151b1d242b37657382929496b1b4d1dee2ec0d1441454b6f7785878ea5cef809181c273a4e53555c7279808bc5eceff2ff000000000000000000000000000000000000000c1e2b3d01",
        "00c448e9caad9a7f491929c02e27e932b4c353f8dafa4e3d7c13bf29c57274656b813fd0defe92224dac269deca659eb48310444fb629440e9985db7186496e6c6cbef3b1caec8a5803688761fa6ff99fd375ce849e7d37118c6decc817132672db34e27cd21893435dd24665e828720f80da2db6da4d3709a3a2690afae36c599768787a1aa50053edf1ba1afeff6ca219b02c58f52bf8b15e47f8e9d4142db26190691094a8f12bf1b89acba7fe41730e0c4aa6f6cc2b838e3986513b9f30a677da6ac354b5baa2a64952e23954549938002c7cac5a5ec018735e4501b7afd4286fb7a8877407137829cc62fb914a594c6c704879e053fe92964a6120c0e6d0b1dc059731d34fd84363503f123c3ddd5c07dfc70929f3b4ce50b81c0a95b181d4c363e914579b1f9fdb396f641e050f42ac83e9cdbb619efec25da664a216815feb6e94d89bb6c51c7118ec94a9ae9147f0be1cadd77bfe9f59199367995c7113f8cc1b5fc3e86da84507bd1acbfea69164f761d148d2ae424b5614b40d40b48b6d3aa9cf0bf7affffa2f21c8025dd4608c073e5b03d04dc10302bf87719ee20ca95216793bebad9729e0b6769a09f6b748581f538d030b777c07a4fb985b322856704b9e1df9b188224f278338366a5a97460f4b23aa090d7fad30699141fab43fe95134a860758456bfbec5f1397fba11c2c32266b391d1774c68644887d7ccf1a6476fdafc91ac61d885b8952e98407ff279111ef329a67bdcbb224a1bd836cfce03d6a7349ffeefbea893a12aa6631cae4af2cc7e495644ad565d66f1534e4009af81cc89e946391e0175c24285989951b30f4ec3f8011286267146af9cfc74ddc4c3c6237ddf8435f2ea5319ff58dacef4b56f112c9d17d432129223345b137a9edb5bd1478253140b584466da40e718c35910d610160634a786e0d93c2d3b433b39ddc184b954357517addb5faa7aed8c6fcab2ca7267ce906e880d092c8b126013bf420aaebf845985c24b1dd3b80d4c7c931b5e5af7d208c5bb2a99c82650a7a54141ead1d06357ae7f79c973b3be644b463a428c0c9e27e68d4020563e17bf6f91063b47edd4abb3ba36db70609d6786923aef783b19038259b6c296e748bb036f40fc87d8e590409bf4435b9694dfca4596aa57ca7e3e007ed84d37fac8bcc5ff9a92e746619e4fd2ba19fe35beebebfa1a6a0fc743fa529937e9e46ef778e19810285450c7033a8a7d2f8025f247b0b7bd60d12d8440fb4dbdf9415151a1e70f72e1b7759890af1d6830d529b7f9ef7f37613932e9caa39be96400ee59270678bc334e5e81914ca91bda2d114be340613c6af19c332d61959aa6b793f95904defa3061b4efcd906d3da5a38521381cc795a85b2887ded7ff674bd711ef4e433c2f9a7699f798b451803da108362c1a2287ca55bb611ddcc895f23b64803630b6f893872e90861219041735e81a978ccc025513c502f388996e98d6c9103ff9f27b0a17840a1ea64094dfa674b85b84e3f7ebbb36079e68e21f9a1360c78ed130d1240cec919a7e19e6e14cce51ac2460d1c590d444b563e8e5a091d2eac52b9bd7cfb0e8d0aabc0de1d154196f668852914fafe9c65aae78d35e9a72dac99196954d4ba6536ef60f927100c51c2cb224b1d4960aa6858f96bd80c877090303f7f4ac3f82795a842cf50525bdbd6d5da3df076f193a67930cd0153a4eba21e52ffd069bd3ec455dd663186785949c1ec964c73e4abc7c65df233f4d9b4c6d6e9e073844cac79bf6564807e9a8f6b1812ac7a5f93464108212471a9556a50cdb52672adbbba4b1ada4f5f14126476f55ee9b6b1b02f0e365938161c"
      ],
      "sequence": 4294967294
    }
  ],
  "vout": [
    {
      "value": 1.0,
      "n": 0,
      "scriptPubKey": {
        "asm": "OP_RETURN fe5bb72e0bbe0506b12d12718a6363ba5d0751679277cf014124778a14819a1a 3b8fd93149ecf0672503c5d648239e20d13db681af4340b02294e0938edcd2ff1baff91169ccd0470523e5f66803be00f11d96a18f63609002b4c0b3aefcf2df7bcf997109acb027654385960863de60917df6c1ef0300f062d4a0d3ce9c92bf5befb951298c90074563a5b62843fe40b15dd6e1cf2320d042f480f3eebcb29fbb0f59b1c96c70e7a5834556c8a31ea051bd36012fc3c030a21460130e5c527f9b2f7991e94c50c785a36576e8833e80719d16210fe3e010823440332e7c725ffb4f19f1892c30a7e5c3051688e35ee011fd76416f838070e25420534e1c123fdb6f39d1a90c1087c5e32536a8c37ec031dd56614fa3a050c27400736e3c321f3b8fd93149ecf0672503c5d648239e20d13db681af4340b02294e0938edcd2ff1baff91169ccd0470523e5f66803be00f11d96a18f63609002b4c0b3aefcf2df7bcf997109acb027654385960863de60917df6c1ef0300f062d4a0d3ce9c92bf5befb951298c90074563a5b62843fe40b15dd6e1cf2320d042f480f3eebcb29fbb0f59b1c96c70e7a5834556c8a31ea051bd36012fc3c030a21460130e5c527f9b2f7991e94c50c785a36576e8833e80719d16210fe3e010823440332e7c725ffb4f19f1892c30a7e5c3051688e35ee011fd76416f838070e25420534e1c123fdb6f39d1a90c1087c5e32536a8c37ec031dd56614fa3a050c27400736e3c321f3b8fd93149ecf0672503c5d648239e20d13db681af4340b02294e0938edcd2ff1baff91169ccd0470523e5f66803be00f11d96a18f63609002b4c0b3aefcf2df7bcf997109acb027654385960863de60917df6c1ef0300f062d4a0d3ce9c92bf5befb951298c90074563a5b62843fe40b15dd6e1cf2320d042f480f3eebcb29fbb0f59b1c96c70e7a5834556c8a31ea051bd36012fc3c030a21460130e5c527f9b2f7991e94c50c785a36576e8833e80719d16210fe3e010823440332e7c725ffb4f19f1892c30a7e5c3051688e35ee011fd76416f838070e25420534e1c123fdb6f39d1a90c1087c5e32536a8c37ec031dd56614fa3a050c27400736e3c321f3b8fd93149ecf0672503c5d648239e20d13db681af4340b02294e0938edcd2ff1baff91169ccd0470523e5f66803be00f11d96a18f63609002b4c0b3aefcf2df7bcf997109acb027654385960863de60917df6c1ef0300f062d4a0d3ce9c92bf5befb951298c90074563a5b62843fe40b15dd6e1cf2320d042f480f3eebcb29fbb0f59b1c96c70e7a5834556c8a31ea051bd36012fc3c030a21460130e5c527f9b2f7991e94c50c785a36576e8833e80719d16210fe3e010823440332e7c725ffb4f19f1892c30a7e5c3051688e35ee011fd76416f838070e25420534e1c123fdb6f39d1a90c1087c5e32536a8c37ec031dd56614fa3a050c27400736e3c321f3b8fd93149ecf0672503c5d648239e20d13db681af4340b02294e0938edcd2ff1baff91169ccd0470523e5f66803be00f11d96a18f63609002b4c0b3aefcf2df7bcf997109acb027654385960863de60917df6c1ef0300f062d4a0d3ce9c92bf5befb951298c90074563a5b62843fe40b15dd6e1cf2320d042f480f3eebcb29fbb0f59b1c96c70e7a5834556c8a31ea0f9665624d4865a269601c288145893652eeb3aa8b9ec6168ac1c93ec09399a91",
        "hex": "6a20fe5bb72e0bbe0506b12d12718a6363ba5d0751679277cf014124778a14819a1a4db0043b8fd93149ecf0672503c5d648239e20d13db681af4340b02294e0938edcd2ff1baff91169ccd0470523e5f66803be00f11d96a18f63609002b4c0b3aefcf2df7bcf997109acb027654385960863de60917df6c1ef0300f062d4a0d3ce9c92bf5befb951298c90074563a5b62843fe40b15dd6e1cf2320d042f480f3eebcb29fbb0f59b1c96c70e7a5834556c8a31ea051bd36012fc3c030a21460130e5c527f9b2f7991e94c50c785a36576e8833e80719d16210fe3e010823440332e7c725ffb4f19f1892c30a7e5c3051688e35ee011fd76416f838070e25420534e1c123fdb6f39d1a90c1087c5e32536a8c37ec031dd56614fa3a050c27400736e3c321f3b8fd93149ecf0672503c5d648239e20d13db681af4340b02294e0938edcd2ff1baff91169ccd0470523e5f66803be00f11d96a18f63609002b4c0b3aefcf2df7bcf997109acb027654385960863de60917df6c1ef0300f062d4a0d3ce9c92bf5befb951298c90074563a5b62843fe40b15dd6e1cf2320d042f480f3eebcb29fbb0f59b1c96c70e7a5834556c8a31ea051bd36012fc3c030a21460130e5c527f9b2f7991e94c50c785a36576e8833e80719d16210fe3e010823440332e7c725ffb4f19f1892c30a7e5c3051688e35ee011fd76416f838070e25420534e1c123fdb6f39d1a90c1087c5e32536a8c37ec031dd56614fa3a050c27400736e3c321f3b8fd93149ecf0672503c5d648239e20d13db681af4340b02294e0938edcd2ff1baff91169ccd0470523e5f66803be00f11d96a18f63609002b4c0b3aefcf2df7bcf997109acb027654385960863de60917df6c1ef0300f062d4a0d3ce9c92bf5befb951298c90074563a5b62843fe40b15dd6e1cf2320d042f480f3eebcb29fbb0f59b1c96c70e7a5834556c8a31ea051bd36012fc3c030a21460130e5c527f9b2f7991e94c50c785a36576e8833e80719d16210fe3e010823440332e7c725ffb4f19f1892c30a7e5c3051688e35ee011fd76416f838070e25420534e1c123fdb6f39d1a90c1087c5e32536a8c37ec031dd56614fa3a050c27400736e3c321f3b8fd93149ecf0672503c5d648239e20d13db681af4340b02294e0938edcd2ff1baff91169ccd0470523e5f66803be00f11d96a18f63609002b4c0b3aefcf2df7bcf997109acb027654385960863de60917df6c1ef0300f062d4a0d3ce9c92bf5befb951298c90074563a5b62843fe40b15dd6e1cf2320d042f480f3eebcb29fbb0f59b1c96c70e7a5834556c8a31ea051bd36012fc3c030a21460130e5c527f9b2f7991e94c50c785a36576e8833e80719d16210fe3e010823440332e7c725ffb4f19f1892c30a7e5c3051688e35ee011fd76416f838070e25420534e1c123fdb6f39d1a90c1087c5e32536a8c37ec031dd56614fa3a050c27400736e3c321f3b8fd93149ecf0672503c5d648239e20d13db681af4340b02294e0938edcd2ff1baff91169ccd0470523e5f66803be00f11d96a18f63609002b4c0b3aefcf2df7bcf997109acb027654385960863de60917df6c1ef0300f062d4a0d3ce9c92bf5befb951298c90074563a5b62843fe40b15dd6e1cf2320d042f480f3eebcb29fbb0f59b1c96c70e7a5834556c8a31ea0f9665624d4865a269601c288145893652eeb3aa8b9ec6168ac1c93ec09399a91",
        "type": "nulldata"
      }
    },
    {
      "value": 499988.8141,
      "n": 1,
      "scriptPubKey": {
        "asm": "1 02c991678b7a5a320966e46f3f044e841d8d9f1e887be1a73136953e85b496fa",
        "hex": "512002c991678b7a5a320966e46f3f044e841d8d9f1e887be1a73136953e85b496fa",
        "reqSigs": 1,
        "type": "witness_v1_scripthash",
        "addresses": [
          "3QJmnh"
        ]
      }
    }
  ],
  "blockhash": "d7a7b9a6fa9b7eeca4ed3b292cd4c21f070551bfab2aaeca0619c41458c07723",
  "confirmations": 1,
  "time": 1764178593,
  "blocktime": 1764178593
}