{
  "hex": "0100000000010122dca024a79cb353aa4d81f13751cecca633071bcfd2ca7af4f51cc64d7d9a5a0100000000feffffff02a077e402792d00002251206471f127f37e51520efbd95c7a332392db4a4a5b327946bfa1d327050aefae4600e1f50500000000fdd5046a20fa3a8f7478dd0cd481ec5c859aeda5a73c3c46209e38e5d5dc818123405d36b04db0043e4cd34ab67d820454035d1447631fe6334605603a84132739f7649a1c717bd81e6cf36a965da22474237d3467433fc6136625401aa4330719d744ba3c515bf87e0c930af63dc24414431d5407235fa6730645207ac4536779b724da5c313b985e2cb32ad61de26434633d7427037f86532665005ae47347599704fa7c111bb8becc53ca36fd0284d483dd94c7e39f66b3c685e0ba0493a7b977e41a9cf1fb589eec73ea16dd22a4f4a3fdb4e7c3bf4693e6a5c09a24b3879957c43abcd1db78fe8c138a76bd42c494c39dd487a3df26f386c5a0fa44d3e7f937a45adcb1bb18deac33aa569d62e4b4e3bdf4a783ff06d3a6e580da64f3c7d917847afc919b383e4cd34ab67d820454035d1447631fe6334605603a84132739f7649a1c717bd81e6cf36a965da22474237d3467433fc6136625401aa4330719d744ba3c515bf87e0c930af63dc24414431d5407235fa6730645207ac4536779b724da5c313b985e2cb32ad61de26434633d7427037f86532665005ae47347599704fa7c111bb8becc53ca36fd0284d483dd94c7e39f66b3c685e0ba0493a7b977e41a9cf1fb589eec73ea16dd22a4f4a3fdb4e7c3bf4693e6a5c09a24b3879957c43abcd1db78fe8c138a76bd42c494c39dd487a3df26f386c5a0fa44d3e7f937a45adcb1bb18deac33aa569d62e4b4e3bdf4a783ff06d3a6e580da64f3c7d917847afc919b383e4cd34ab67d820454035d1447631fe6334605603a84132739f7649a1c717bd81e6cf36a965da22474237d3467433fc6136625401aa4330719d744ba3c515bf87e0c930af63dc24414431d5407235fa6730645207ac4536779b724da5c313b985e2cb32ad61de26434633d7427037f86532665005ae47347599704fa7c111bb8becc53ca36fd0284d483dd94c7e39f66b3c685e0ba0493a7b977e41a9cf1fb589eec73ea16dd22a4f4a3fdb4e7c3bf4693e6a5c09a24b3879957c43abcd1db78fe8c138a76bd42c494c39dd487a3df26f386c5a0fa44d3e7f937a45adcb1bb18deac33aa569d62e4b4e3bdf4a783ff06d3a6e580da64f3c7d917847afc919b383e4cd34ab67d820454035d1447631fe6334605603a84132739f7649a1c717bd81e6cf36a965da22474237d3467433fc6136625401aa4330719d744ba3c515bf87e0c930af63dc24414431d5407235fa6730645207ac4536779b724da5c313b985e2cb32ad61de26434633d7427037f86532665005ae47347599704fa7c111bb8becc53ca36fd0284d483dd94c7e39f66b3c685e0ba0493a7b977e41a9cf1fb589eec73ea16dd22a4f4a3fdb4e7c3bf4693e6a5c09a24b3879957c43abcd1db78fe8c138a76bd42c494c39dd487a3df26f386c5a0fa44d3e7f937a45adcb1bb18deac33aa569d62e4b4e3bdf4a783ff06d3a6e580da64f3c7d917847afc919b383e4cd34ab67d820454035d1447631fe6334605603a84132739f7649a1c717bd81e6cf36a965da22474237d3467433fc6136625401aa4330719d744ba3c515bf87e0c930af63dc24414431d5407235fa6730645207ac4536779b724da5c313b985e2cb32ad61de26434633d7427037f86532665005ae47347599704fa7c111bb8becc53ca36fd0284d483dd94c7e39f66ba54b77e3528714c94d11c77a33c1bd704a5baa45a28195a26d7e621a1cde38102fd7509f2df3ed59859f5bdb1faa405e41199848913de84cad41a16f452d4c9d0684083730e07517063d39c92d05e0bb3de0d28276f65a4c3f2c8ce3d81bf1ceaaac6a7d911cff9b8ab7d9cca8d2b9f061de9c5a0c3f3a20fe7c3452abd0250903d87f2cd8095afb68c990e604be0aa938ff148e648e3c4b029a6cfe28ed43d0079b43d1fb745c1ddc226acafe23a79dc126a0d228cb2c5efe4de62bb8bfac86488828b7d340894a60a204c44aa8046fee0ab4f8e7fbf5ce1a14695cbee1398d8a9309677dc81b9c5485616f28c56817ed529d075ebb3fb45f15e3b7892b2888956d374e664b071d40b71cb9c3bc04f98bfd4dcb0fbfaf7f264fcfe9d5c3c15a6fa38db158ce6195ee0748cb1274edd22b359a6144b191e8e352d8725b3f4fdcf3748ba4786fdb8d510cb3e323a9d64531a89090dd2792d8ac8842359fc1c9a95c185907e79195ca6ac6633bf1581bc52981305761d61da25e609149a8e2460d9608abdf7559f35a771e7d9052d27d5f1f7947572d97eec044ef2a99de89936b170b762920f31ced988272ef5c79831adb5f6a3554be092ebd0d98de57d7058ff9d8106cf0af184f709ff89447fc60030ca8bf3cdbc22e2629b79b69785c0f1456faa8b03fb6e55cea677d9e6795104225d33ffe3f09f9984ba53d9207c402d30d50984bad206df5df235f215b5dce96583b298d1b45f6629fb899c4993a87bd03723b5f9556194345d627cf8a589a58d3f6e0000a75edd6aa7e2cdb6a40f866cd824eabe9b8ed03ea3621fe37b07d32a9b585b69f7c8c43dd7d0131e9a09f2eaeb3a3c9af68305eb368fe09053833381a28ad1da7ed37e1537a309dc8500de04d30108c553cc9c77ce3df4de29d81f2993c4ce8f684d043e329fef63061dd9895e3712df19fb7619bfa1292939a7a52ce855becbea648927a6e6b53802cf29155e151a7bd88a4312e491ea232a7675351b8fa67f665f5b8cb81e3a07fa01332cc127aa3e85ee29471e35f6154bd5eab9c92c2bcf157e78f6375dde6e9883f970ed20a51c37f039730dbb669b17b8ef7e3968c83612eaefbea49abed2864cc2f6b5a885cf642f7bf3eaeb7df0bb0a410d09ab4651de7efcece0468ad3fdb2d5b55cde257bcf22d7f3f2f38db067aaf4f18d3fa4044008a67895682df799f096160ae3b2736c59cd1d1be28178b2be4ae588366e1f68303e0656ce66ea7cd169222f8a1ae8f7e125ec9d1468a948b9bcde3637ee443e7188498e8a813a0c77747c62674ed07432bfa034bce5a22d84bed1a285b2ba2c7853d9b101496ce5c011ee61c812391e2ac9e2a8bcf2c5643e7cd86c7b9d9093cef5420a0956823ad815190a4cdadc4e9dc1ca9b0c1caeeb3c9c6ea4d1c3bfb11fa44ffd6b40255e0de996011257dca55851b619a8ef8f66b16824a5107915265192dae91792f69e87226400e6883dc2e17af4bee386f4d14c260f1e32f977f7634b5d47d7c0c07e7046909e3c661bccefab69501bb9655703aa0edc3a7100c7875c1b3b1506cb46d33fd21aee8b7e2df5354e53881792e7e809e3e49ceda4dd7cef71b711a3eb8d3d563435ca06cc0569a2fe11cf593feddc46caf289de9e2a4dfb80f5b7126dd50743400196df4e6487f02a4e1bc3c8c5d61e39e5b82c0cfc9c4332d3441b4cf65062a52e8abbd854f8a130606d21a2106a0d70d546a13d557331d7fcfea4cc065aecb87199c755d9d0740a88723b5e758a3830d7ab0d76a226303175a12cc79d28665e28054a2f2ae8482ec17deabd29aae809687b34701b31e8e0dae1bfb2b3c66f5d65218cc268471af4a387cecd5d87d439770c50b5917cc325153c7024f0edea4934ba79d5a09b69211f940b138d387f741e03be7e3eda5fa9b1e51336c724bf59fc777682ef5976b7c7ac4f9ebc526042df406c0a4ae9bc5c8809dd67d60304e072eb2326143a3071e0859c6c4888849797f04c4513c639b67013b0e546872ce47ca702319a24c17dda7b867b3c5c89eea387fd0af80259a2cc2b7e2fbb908f87f34ed9c811e9e1a7099602fb10314fa25fb177a0c885cb5a1b29d6d962b86634a7f78b5e2177be3852b542452271f8a0d1664ab2f4a0ce88a61527b9d27b5eb8858d1dda4e15049fe8177fe8dba08a8430a0d7428e011c53e9df7a42e5ae5a73a2c37b66860931d6d8c2d76ceb6b59941d06e348855e4c365994b2fb0579e6c64feab9c15f7aed35bb28bf1d912e1b50e4b23b9a7bd18350a4e2300946b8d4681f1403a3ea2ca4006eb53b1c3c89b3870a1b57d62766e83218951690a5fd2a966cd463098125a9253a1d237a1897316f65b2f5d258571baa24784682faa96f0553737e4470303685a02c05461e4dba4da267e4ba4df89aa17a1eeaa9528e328ef6e24ac57767a22b7d2dffd9ea0f3a2c3ad2ec4c53cd321ad38f4b455ba23fa34723c669a6cdb87cde8724f3b6b1843c8202322e8c81aa1bf1fe17798d8d9652d3f5990a64e5df30a815877d0bf99011d0cab365840acef1a12471d85fe2d7d45ecc4f4a5ebc86889c0b73f3b55f67137675a4763322ad71d9c6caf6e489676a8b200b7960607c4a8e2c2bca58e120ff815d4afe783c565998dde5d01ffcbbed90cd9052b4857c4abb1569dd59e8194cd2441569c281ccc929979814663e847aae46a8c15acf03cad9691ee64e7eb4e550bc72a35c8dd5dbdb26a364752aa2a98f786fd8e589eafa4cff92f8ae841e74950a063893ab40991c57d1e641fec93720458beec2f7f02d312ea2131761f6b02404f8eb16e069936fea80ee2acdfebd27adf8f7a7988c2016631b329192ce68f2c8b96928bf405487142a8314e51728eeaaab562f6dfdd35afee9684d72169bacb1d143af7c3a00ddcc668898af8faa4e02c87b5029efd2f18aadd62ce013ac45ddcd69c2e882632a373cba64f1ebb1f5a9c8787130ef7608ca4dfd5c40c73dcb6daf4648370922dec6268e2ddda722007cf21e61410d84336f1b4d9391c90fb1e548f830555b92f9260e1f24519e2a58250b9eee82c7cba53a9273d7bb41c298a8d67612ca1be8036ce6cd6a797dccc93793b8b2e7258ec42d96bff71d9e6a3eff7878f738627d3c657fbc76cc2168a136869f2c287dc1555bd695b432547fb7e739d0d1f4bf4c75cb290efff6434ecceed4af5993daae7a34e60a516723cabe72f4e398e86f8cb042aa584b4b9e19a7a2dfb4c8fd6baf8e67e43392dccf42c3a7176ec446286df51076839919953daa1ac14ab7eeeafcc974673ed7e112e86e88299a10be3f49da4fde52fdd765db95cc68040f21293a495c5d5e6a717282aaacb6e7eaf805082c3e61636b78a0a5e1edf1f3fd02232d3a43444547485a5c64666e828395a1b0cdcfe1e7eb0e36454684898ea6d7dae4e5e7ff000000000000000013223a4801fd210500cb62b2039543236502f65606ad8c39c3232c1f40cd9bde30a9a0a280d53f39e8a64ee60f8bf37920dc1aff9c709c808c1601fce9fae8f3da24fab1665973b5035aeb07d80f44a9020c87b0764f9e48d8a42ad26ba997382b49bbd2c0376fe46834289018ef7346b804f96e42ba75c354ba01a543137ac9ffde65cb95a624dec28a94f1531c88e7ca22137339fc329f457cfee7dcc86edceb1234701ad0347019df0537ecce54917c505c58e9c0a8b420a68333556a1e1f779335cd56ba097141976fd78ad28f9889bbe59a7eda4aebe04fbac55df5797c2dd6b07441696e873545982d6a1a0ab4d4d9ce108cdc79633c5ac5d1c82513401252434b59b17359982da10041b509e65747c6088e8fbc4c258b0f6b826d6579ac25fd266100bace0777bb874beb59eb78f1028d93e60e9c0176acfabcbf083d5c282e4593d2307b2fd80bf8a513fa39fb4e64fd7c150c532aa09971397d2419a2e7b54c988882b9fd0f8192c3e91af51d4c3626063b5ea82bc79afc96c81d48cc8293f69f13d894d2e8268e73280671757f50c4e071af52bf288a0c7cbbc3efb7b842082cadddb1779953060309f2e6e4e56999bd28d47890e2a2088c643914f2c5213dbbcc0bc2ef9162061177eac1aa94f62d2bac738ba766fa7ce34a79391651e2a76631a178cf52ed366024c8c6bd4d92bea26389346c42040d0a0101929d58ccb208db5f803b162166d05b1967cd0f7953251ee6e590d281b8931594fc390527e946a1e08f267c63a0a4c285cdf0e95ac2a1ca146876e2cd2179622551df7a4556c186c7d05e5881bf56b86fe5eb5cebc9ba6dec2abe85162dfe4abae39cb6cd8796259e19df01571da53ec88caccc006d6c5fbfbbf0d9289f2f54d9b3519e6d0ae3109e589a78e96115a39f2ea7be1a15296d3b756e62e588b210e16af4e089dded04f2889068261a8b4ab6a5367b8610c8a4ddd805ba074422bb0d26ee6faf62a62771f041d28f08afc2d8feecb6fb20e29c6119cad22cb428fd482e09df0337a7ba5840a7a55f769199be13064c9ab84f967612bc497979425bc1bd91f0dbc8472828f87389efda48bf4a5419f072ca496aaf97c7c9acf50055e6df1b115496e6528c0f1797b06e14517e4265e78292a0c913859ecddccc07e737d1a386472561b33bd7adabd183d328fe48a58b375cc90dff0e992d3d064861c3a9b51093c8176d9c2ccb37fc306f0bffb5ad1122902f39462a52da998699d1472014b5f2e81f92a70786a1b84ec3582a1843138710c3631c12844799153b7de78598fba6bae16a2462766ebf9607cbfccd18a36dd47fb5970fb9e7dbf281b857dbd96aa22b74a37ede4fba7907f885102d2277f0085f7c3f5a24d15ed939b067fd1291a5044486bd032d4c6f2a6a2866a117580d1810f964424c9a8e941039c5c8be226cab5fdae50ef013c257b3537937e4a5a6f03717c7a6adc83fa50701985ee2081db7a2b7b3ad4e07c02f91b61702afca105adb30175e128b93a32f0cc91f7a836a925b29df3f438c32299e2090ce3149ff70cfe6772c250b49a51d051869f8eb60067c9cdba94076042a4d6a248924807dc072707e4423e0f8b6efacd66a46171a65934f6262d8b0751ad5d544e52d3036c5d4840bf85e7431dfc0b04073daccf9a3c7551aa5681b76580589836d09411365b0a4878e55165b7c0b8c669ee498f0de5d79317b5e8bbd945c9514661c9deade695a14646d6f71cf782a776bd5f7e65279c1421d0649acb9b877ccc18a55a293411eb73ab5e7f0fabd0a83c336b5b8a8149e18ee1c424ba47e4721601312fbb02acb66ebe46882d6164538e8c1e7eaa14a4be74f4a80000000",
  "txid": "c020896deba74041b332c5904e273bdd01376a7a1ff80a0c38a8c43f507ca2a8",
  "hash": "286928101ea703f9284fd947fb3ba90dc648c6ed5ffd0a6eee90f09cfb7c72cb",
  "size": 5085,
  "vsize": 2278,
  "version": 1,
  "locktime": 128,
  "vin": [
    {
      "txid": "5a9a7d4dc61cf5f47acad2cf1b0733a6ccce5137f1814daa53b39ca724a0dc22",
      "vout": 1,
      "scriptSig": {
        "asm": "",
        "hex": ""
      },
      "txinwitness": [
        "f2df3ed59859f5bdb1faa405e41199848913de84cad41a16f452d4c9d0684083730e07517063d39c92d05e0bb3de0d28276f65a4c3f2c8ce3d81bf1ceaaac6a7d911cff9b8ab7d9cca8d2b9f061de9c5a0c3f3a20fe7c3452abd0250903d87f2cd8095afb68c990e604be0aa938ff148e648e3c4b029a6cfe28ed43d0079b43d1fb745c1ddc226acafe23a79dc126a0d228cb2c5efe4de62bb8bfac86488828b7d340894a60a204c44aa8046fee0ab4f8e7fbf5ce1a14695cbee1398d8a9309677dc81b9c5485616f28c56817ed529d075ebb3fb45f15e3b7892b2888956d374e664b071d40b71cb9c3bc04f98bfd4dcb0fbfaf7f264fcfe9d5c3c15a6fa38db158ce6195ee0748cb1274edd22b359a6144b191e8e352d8725b3f4fdcf3748ba4786fdb8d510cb3e323a9d64531a89090dd2792d8ac8842359fc1c9a95c185907e79195ca6ac6633bf1581bc52981305761d61da25e609149a8e2460d9608abdf7559f35a771e7d9052d27d5f1f7947572d97eec044ef2a99de89936b170b762920f31ced988272ef5c79831adb5f6a3554be092ebd0d98de57d7058ff9d8106cf0af184f709ff89447fc60030ca8bf3cdbc22e2629b79b69785c0f1456faa8b03fb6e55cea677d9e6795104225d33ffe3f09f9984ba53d9207c402d30d50984bad206df5df235f215b5dce96583b298d1b45f6629fb899c4993a87bd03723b5f9556194345d627cf8a589a58d3f6e0000a75edd6aa7e2cdb6a40f866cd824eabe9b8ed03ea3621fe37b07d32a9b585b69f7c8c43dd7d0131e9a09f2eaeb3a3c9af68305eb368fe09053833381a28ad1da7ed37e1537a309dc8500de04d30108c553cc9c77ce3df4de29d81f2993c4ce8f684d043e329fef63061dd9895e3712df19fb7619bfa1292939a7a52ce855becbea648927a6e6b53802cf29155e151a7bd88a4312e491ea232a7675351b8fa67f665f5b8cb81e3a07fa01332cc127aa3e85ee29471e35f6154bd5eab9c92c2bcf157e78f6375dde6e9883f970ed20a51c37f039730dbb669b17b8ef7e3968c83612eaefbea49abed2864cc2f6b5a885cf642f7bf3eaeb7df0bb0a410d09ab4651de7efcece0468ad3fdb2d5b55cde257bcf22d7f3f2f38db067aaf4f18d3fa4044008a67895682df799f096160ae3b2736c59cd1d1be28178b2be4ae588366e1f68303e0656ce66ea7cd169222f8a1ae8f7e125ec9d1468a948b9bcde3637ee443e7188498e8a813a0c77747c62674ed07432bfa034bce5a22d84bed1a285b2ba2c7853d9b101496ce5c011ee61c812391e2ac9e2a8bcf2c5643e7cd86c7b9d9093cef5420a0956823ad815190a4cdadc4e9dc1ca9b0c1caeeb3c9c6ea4d1c3bfb11fa44ffd6b40255e0de996011257dca55851b619a8ef8f66b16824a5107915265192dae91792f69e87226400e6883dc2e17af4bee386f4d14c260f1e32f977f7634b5d47d7c0c07e7046909e3c661bccefab69501bb9655703aa0edc3a7100c7875c1b3b1506cb46d33fd21aee8b7e2df5354e53881792e7e809e3e49ceda4dd7cef71b711a3eb8d3d563435ca06cc0569a2fe11cf593feddc46caf289de9e2a4dfb80f5b7126dd50743400196df4e6487f02a4e1bc3c8c5d61e39e5b82c0cfc9c4332d3441b4cf65062a52e8abbd854f8a130606d21a2106a0d70d546a13d557331d7fcfea4cc065aecb87199c755d9d0740a88723b5e758a3830d7ab0d76a226303175a12cc79d28665e28054a2f2ae8482ec17deabd29aae809687b34701b31e8e0dae1bfb2b3c66f5d65218cc268471af4a387cecd5d87d439770c50b5917cc325153c7024f0edea4934ba79d5a09b69211f940b138d387f741e03be7e3eda5fa9b1e51336c724bf59fc777682ef5976b7c7ac4f9ebc526042df406c0a4ae9bc5c8809dd67d60304e072eb2326143a3071e0859c6c4888849797f04c4513c639b67013b0e546872ce47ca702319a24c17dda7b867b3c5c89eea387fd0af80259a2cc2b7e2fbb908f87f34ed9c811e9e1a7099602fb10314fa25fb177a0c885cb5a1b29d6d962b86634a7f78b5e2177be3852b542452271f8a0d1664ab2f4a0ce88a61527b9d27b5eb8858d1dda4e15049fe8177fe8dba08a8430a0d7428e011c53e9df7a42e5ae5a73a2c37b66860931d6d8c2d76ceb6b59941d06e348855e4c365994b2fb0579e6c64feab9c15f7aed35bb28bf1d912e1b50e4b23b9a7bd18350a4e2300946b8d4681f1403a3ea2ca4006eb53b1c3c89b3870a1b57d62766e83218951690a5fd2a966cd463098125a9253a1d237a1897316f65b2f5d258571baa24784682faa96f0553737e4470303685a02c05461e4dba4da267e4ba4df89aa17a1eeaa9528e328ef6e24ac57767a22b7d2dffd9ea0f3a2c3ad2ec4c53cd321ad38f4b455ba23fa34723c669a6cdb87cde8724f3b6b1843c8202322e8c81aa1bf1fe17798d8d9652d3f5990a64e5df30a815877d0bf99011d0cab365840acef1a12471d85fe2d7d45ecc4f4a5ebc86889c0b73f3b55f67137675a4763322ad71d9c6caf6e489676a8b200b7960607c4a8e2c2bca58e120ff815d4afe783c565998dde5d01ffcbbed90cd9052b4857c4abb1569dd59e8194cd2441569c281ccc929979814663e847aae46a8c15acf03cad9691ee64e7eb4e550bc72a35c8dd5dbdb26a364752aa2a98f786fd8e589eafa4cff92f8ae841e74950a063893ab40991c57d1e641fec93720458beec2f7f02d312ea2131761f6b02404f8eb16e069936fea80ee2acdfebd27adf8f7a7988c2016631b329192ce68f2c8b96928bf405487142a8314e51728eeaaab562f6dfdd35afee9684d72169bacb1d143af7c3a00ddcc668898af8faa4e02c87b5029efd2f18aadd62ce013ac45ddcd69c2e882632a373cba64f1ebb1f5a9c8787130ef7608ca4dfd5c40c73dcb6daf4648370922dec6268e2ddda722007cf21e61410d84336f1b4d9391c90fb1e548f830555b92f9260e1f24519e2a58250b9eee82c7cba53a9273d7bb41c298a8d67612ca1be8036ce6cd6a797dccc93793b8b2e7258ec42d96bff71d9e6a3eff7878f738627d3c657fbc76cc2168a136869f2c287dc1555bd695b432547fb7e739d0d1f4bf4c75cb290efff6434ecceed4af5993daae7a34e60a516723cabe72f4e398e86f8cb042aa584b4b9e19a7a2dfb4c8fd6baf8e67e43392dccf42c3a7176ec446286df51076839919953daa1ac14ab7eeeafcc974673ed7e112e86e88299a10be3f49da4fde52fdd765db95cc68040f21293a495c5d5e6a717282aaacb6e7eaf805082c3e61636b78a0a5e1edf1f3fd02232d3a43444547485a5c64666e828395a1b0cdcfe1e7eb0e36454684898ea6d7dae4e5e7ff000000000000000013223a4801",
        "00cb62b2039543236502f65606ad8c39c3232c1f40cd9bde30a9a0a280d53f39e8a64ee60f8bf37920dc1aff9c709c808c1601fce9fae8f3da24fab1665973b5035aeb07d80f44a9020c87b0764f9e48d8a42ad26ba997382b49bbd2c0376fe46834289018ef7346b804f96e42ba75c354ba01a543137ac9ffde65cb95a624dec28a94f1531c88e7ca22137339fc329f457cfee7dcc86edceb1234701ad0347019df0537ecce54917c505c58e9c0a8b420a68333556a1e1f779335cd56ba097141976fd78ad28f9889bbe59a7eda4aebe04fbac55df5797c2dd6b07441696e873545982d6a1a0ab4d4d9ce108cdc79633c5ac5d1c82513401252434b59b17359982da10041b509e65747c6088e8fbc4c258b0f6b826d6579ac25fd266100bace0777bb874beb59eb78f1028d93e60e9c0176acfabcbf083d5c282e4593d2307b2fd80bf8a513fa39fb4e64fd7c150c532aa09971397d2419a2e7b54c988882b9fd0f8192c3e91af51d4c3626063b5ea82bc79afc96c81d48cc8293f69f13d894d2e8268e73280671757f50c4e071af52bf288a0c7cbbc3efb7b842082cadddb1779953060309f2e6e4e56999bd28d47890e2a2088c643914f2c5213dbbcc0bc2ef9162061177eac1aa94f62d2bac738ba766fa7ce34a79391651e2a76631a178cf52ed366024c8c6bd4d92bea26389346c42040d0a0101929d58ccb208db5f803b162166d05b1967cd0f7953251ee6e590d281b8931594fc390527e946a1e08f267c63a0a4c285cdf0e95ac2a1ca146876e2cd2179622551df7a4556c186c7d05e5881bf56b86fe5eb5cebc9ba6dec2abe85162dfe4abae39cb6cd8796259e19df01571da53ec88caccc006d6c5fbfbbf0d9289f2f54d9b3519e6d0ae3109e589a78e96115a39f2ea7be1a15296d3b756e62e588b210e16af4e089dded04f2889068261a8b4ab6a5367b8610c8a4ddd805ba074422bb0d26ee6faf62a62771f041d28f08afc2d8feecb6fb20e29c6119cad22cb428fd482e09df0337a7ba5840a7a55f769199be13064c9ab84f967612bc497979425bc1bd91f0dbc8472828f87389efda48bf4a5419f072ca496aaf97c7c9acf50055e6df1b115496e6528c0f1797b06e14517e4265e78292a0c913859ecddccc07e737d1a386472561b33bd7adabd183d328fe48a58b375cc90dff0e992d3d064861c3a9b51093c8176d9c2ccb37fc306f0bffb5ad1122902f39462a52da998699d1472014b5f2e81f92a70786a1b84ec3582a1843138710c3631c12844799153b7de78598fba6bae16a2462766ebf9607cbfccd18a36dd47fb5970fb9e7dbf281b857dbd96aa22b74a37ede4fba7907f885102d2277f0085f7c3f5a24d15ed939b067fd1291a5044486bd032d4c6f2a6a2866a117580d1810f964424c9a8e941039c5c8be226cab5fdae50ef013c257b3537937e4a5a6f03717c7a6adc83fa50701985ee2081db7a2b7b3ad4e07c02f91b61702afca105adb30175e128b93a32f0cc91f7a836a925b29df3f438c32299e2090ce3149ff70cfe6772c250b49a51d051869f8eb60067c9cdba94076042a4d6a248924807dc072707e4423e0f8b6efacd66a46171a65934f6262d8b0751ad5d544e52d3036c5d4840bf85e7431dfc0b04073daccf9a3c7551aa5681b76580589836d09411365b0a4878e55165b7c0b8c669ee498f0de5d79317b5e8bbd945c9514661c9deade695a14646d6f71cf782a776bd5f7e65279c1421d0649acb9b877ccc18a55a293411eb73ab5e7f0fabd0a83c336b5b8a8149e18ee1c424ba47e4721601312fbb02acb66ebe46882d6164538e8c1e7eaa14a4be74f4a"
      ],
      "sequence": 4294967294
    }
  ],
  "vout": [
    {
      "value": 499977.6282,
      "n": 0,
      "scriptPubKey": {
        "asm": "1 6471f127f37e51520efbd95c7a332392db4a4a5b327946bfa1d327050aefae46",
        "hex": "51206471f127f37e51520efbd95c7a332392db4a4a5b327946bfa1d327050aefae46",
        "reqSigs": 1,
        "type": "witness_v1_scripthash",
        "addresses": [
          "3QJmnh"
        ]
      }
    },
    {
      "value": 1.0,
      "n": 1,
      "scriptPubKey": {
        "asm": "OP_RETURN fa3a8f7478dd0cd481ec5c859aeda5a73c3c46209e38e5d5dc818123405d36b0 3e4cd34ab67d820454035d1447631fe6334605603a84132739f7649a1c717bd81e6cf36a965da22474237d3467433fc6136625401aa4330719d744ba3c515bf87e0c930af63dc24414431d5407235fa6730645207ac4536779b724da5c313b985e2cb32ad61de26434633d7427037f86532665005ae47347599704fa7c111bb8becc53ca36fd0284d483dd94c7e39f66b3c685e0ba0493a7b977e41a9cf1fb589eec73ea16dd22a4f4a3fdb4e7c3bf4693e6a5c09a24b3879957c43abcd1db78fe8c138a76bd42c494c39dd487a3df26f386c5a0fa44d3e7f937a45adcb1bb18deac33aa569d62e4b4e3bdf4a783ff06d3a6e580da64f3c7d917847afc919b383e4cd34ab67d820454035d1447631fe6334605603a84132739f7649a1c717bd81e6cf36a965da22474237d3467433fc6136625401aa4330719d744ba3c515bf87e0c930af63dc24414431d5407235fa6730645207ac4536779b724da5c313b985e2cb32ad61de26434633d7427037f86532665005ae47347599704fa7c111bb8becc53ca36fd0284d483dd94c7e39f66b3c685e0ba0493a7b977e41a9cf1fb589eec73ea16dd22a4f4a3fdb4e7c3bf4693e6a5c09a24b3879957c43abcd1db78fe8c138a76bd42c494c39dd487a3df26f386c5a0fa44d3e7f937a45adcb1bb18deac33aa569d62e4b4e3bdf4a783ff06d3a6e580da64f3c7d917847afc919b383e4cd34ab67d820454035d1447631fe6334605603a84132739f7649a1c717bd81e6cf36a965da22474237d3467433fc6136625401aa4330719d744ba3c515bf87e0c930af63dc24414431d5407235fa6730645207ac4536779b724da5c313b985e2cb32ad61de26434633d7427037f86532665005ae47347599704fa7c111bb8becc53ca36fd0284d483dd94c7e39f66b3c685e0ba0493a7b977e41a9cf1fb589eec73ea16dd22a4f4a3fdb4e7c3bf4693e6a5c09a24b3879957c43abcd1db78fe8c138a76bd42c494c39dd487a3df26f386c5a0fa44d3e7f937a45adcb1bb18deac33aa569d62e4b4e3bdf4a783ff06d3a6e580da64f3c7d917847afc919b383e4cd34ab67d820454035d1447631fe6334605603a84132739f7649a1c717bd81e6cf36a965da22474237d3467433fc6136625401aa4330719d744ba3c515bf87e0c930af63dc24414431d5407235fa6730645207ac4536779b724da5c313b985e2cb32ad61de26434633d7427037f86532665005ae47347599704fa7c111bb8becc53ca36fd0284d483dd94c7e39f66b3c685e0ba0493a7b977e41a9cf1fb589eec73ea16dd22a4f4a3fdb4e7c3bf4693e6a5c09a24b3879957c43abcd1db78fe8c138a76bd42c494c39dd487a3df26f386c5a0fa44d3e7f937a45adcb1bb18deac33aa569d62e4b4e3bdf4a783ff06d3a6e580da64f3c7d917847afc919b383e4cd34ab67d820454035d1447631fe6334605603a84132739f7649a1c717bd81e6cf36a965da22474237d3467433fc6136625401aa4330719d744ba3c515bf87e0c930af63dc24414431d5407235fa6730645207ac4536779b724da5c313b985e2cb32ad61de26434633d7427037f86532665005ae47347599704fa7c111bb8becc53ca36fd0284d483dd94c7e39f66ba54b77e3528714c94d11c77a33c1bd704a5baa45a28195a26d7e621a1cde381",
        "hex": "6a20fa3a8f7478dd0cd481ec5c859aeda5a73c3c46209e38e5d5dc818123405d36b04db0043e4cd34ab67d820454035d1447631fe6334605603a84132739f7649a1c717bd81e6cf36a965da22474237d3467433fc6136625401aa4330719d744ba3c515bf87e0c930af63dc24414431d5407235fa6730645207ac4536779b724da5c313b985e2cb32ad61de26434633d7427037f86532665005ae47347599704fa7c111bb8becc53ca36fd0284d483dd94c7e39f66b3c685e0ba0493a7b977e41a9cf1fb589eec73ea16dd22a4f4a3fdb4e7c3bf4693e6a5c09a24b3879957c43abcd1db78fe8c138a76bd42c494c39dd487a3df26f386c5a0fa44d3e7f937a45adcb1bb18deac33aa569d62e4b4e3bdf4a783ff06d3a6e580da64f3c7d917847afc919b383e4cd34ab67d820454035d1447631fe6334605603a84132739f7649a1c717bd81e6cf36a965da22474237d3467433fc6136625401aa4330719d744ba3c515bf87e0c930af63dc24414431d5407235fa6730645207ac4536779b724da5c313b985e2cb32ad61de26434633d7427037f86532665005ae47347599704fa7c111bb8becc53ca36fd0284d483dd94c7e39f66b3c685e0ba0493a7b977e41a9cf1fb589eec73ea16dd22a4f4a3fdb4e7c3bf4693e6a5c09a24b3879957c43abcd1db78fe8c138a76bd42c494c39dd487a3df26f386c5a0fa44d3e7f937a45adcb1bb18deac33aa569d62e4b4e3bdf4a783ff06d3a6e580da64f3c7d917847afc919b383e4cd34ab67d820454035d1447631fe6334605603a84132739f7649a1c717bd81e6cf36a965da22474237d3467433fc6136625401aa4330719d744ba3c515bf87e0c930af63dc24414431d5407235fa6730645207ac4536779b724da5c313b985e2cb32ad61de26434633d7427037f86532665005ae47347599704fa7c111bb8becc53ca36fd0284d483dd94c7e39f66b3c685e0ba0493a7b977e41a9cf1fb589eec73ea16dd22a4f4a3fdb4e7c3bf4693e6a5c09a24b3879957c43abcd1db78fe8c138a76bd42c494c39dd487a3df26f386c5a0fa44d3e7f937a45adcb1bb18deac33aa569d62e4b4e3bdf4a783ff06d3a6e580da64f3c7d917847afc919b383e4cd34ab67d820454035d1447631fe6334605603a84132739f7649a1c717bd81e6cf36a965da22474237d3467433fc6136625401aa4330719d744ba3c515bf87e0c930af63dc24414431d5407235fa6730645207ac4536779b724da5c313b985e2cb32ad61de26434633d7427037f86532665005ae47347599704fa7c111bb8becc53ca36fd0284d483dd94c7e39f66b3c685e0ba0493a7b977e41a9cf1fb589eec73ea16dd22a4f4a3fdb4e7c3bf4693e6a5c09a24b3879957c43abcd1db78fe8c138a76bd42c494c39dd487a3df26f386c5a0fa44d3e7f937a45adcb1bb18deac33aa569d62e4b4e3bdf4a783ff06d3a6e580da64f3c7d917847afc919b383e4cd34ab67d820454035d1447631fe6334605603a84132739f7649a1c717bd81e6cf36a965da22474237d3467433fc6136625401aa4330719d744ba3c515bf87e0c930af63dc24414431d5407235fa6730645207ac4536779b724da5c313b985e2cb32ad61de26434633d7427037f86532665005ae47347599704fa7c111bb8becc53ca36fd0284d483dd94c7e39f66ba54b77e3528714c94d11c77a33c1bd704a5baa45a28195a26d7e621a1cde381",
        "type": "nulldata"
      }
    }
  ],
  "blockhash": "f0ff1fbaae405cadeb51abb379c93a956cf666ff613992ee95c2f945c1780bd2",
  "confirmations": 1,
  "time": 1764181685,
  "blocktime": 1764181685
}