{
  "hex": "0100000000010139921c9ec703ca2a0ba59efd03a2963af15fcc335c14fa2f644ce03860bc37020000000000feffffff02907857cc782d00002251208af191047f87896e66964d279c054101b9f65ca39abeff7f30d5bbd2fe3f0b6000e1f50500000000fdd5046a2038152ebbd5de22ddfab649c598230ef61255b3c70502a42d40aba5f33ef1a2784db0043cdea95ad6c2c377ca39cf0de77c825bca9c1259db296619f655f61d1a6e3fcb1cfe897af6e2e357ea19ef2dc75ca27beabc3279fb094639d675d63d3a4e1feb7c9ee91a968283378a798f4da73cc21b8adc52199b692659b615b65d5a2e7f8b5cbec93ab6a2a317aa59af6d871ce23baafc7239bb4906799635967d7a0e5fabbc5e29da564243f74ab94f8d67fc02db4a1c92d95ba9e69976d5769d9aeebf4b9c7e09fa766263d76a996fad47dc22fb6a3cb2f97b89c6b956f556bdbace9f6bfc1e699a160203b70af90fcd27bc429b0a5cd2991be9a6d9369536dddaaeff0bdc3e49ba362223972ad92fed079c62bb2a7cf2b93bc986f916b516fdfa8edf2b3cdea95ad6c2c377ca39cf0de77c825bca9c1259db296619f655f61d1a6e3fcb1cfe897af6e2e357ea19ef2dc75ca27beabc3279fb094639d675d63d3a4e1feb7c9ee91a968283378a798f4da73cc21b8adc52199b692659b615b65d5a2e7f8b5cbec93ab6a2a317aa59af6d871ce23baafc7239bb4906799635967d7a0e5fabbc5e29da564243f74ab94f8d67fc02db4a1c92d95ba9e69976d5769d9aeebf4b9c7e09fa766263d76a996fad47dc22fb6a3cb2f97b89c6b956f556bdbace9f6bfc1e699a160203b70af90fcd27bc429b0a5cd2991be9a6d9369536dddaaeff0bdc3e49ba362223972ad92fed079c62bb2a7cf2b93bc986f916b516fdfa8edf2b3cdea95ad6c2c377ca39cf0de77c825bca9c1259db296619f655f61d1a6e3fcb1cfe897af6e2e357ea19ef2dc75ca27beabc3279fb094639d675d63d3a4e1feb7c9ee91a968283378a798f4da73cc21b8adc52199b692659b615b65d5a2e7f8b5cbec93ab6a2a317aa59af6d871ce23baafc7239bb4906799635967d7a0e5fabbc5e29da564243f74ab94f8d67fc02db4a1c92d95ba9e69976d5769d9aeebf4b9c7e09fa766263d76a996fad47dc22fb6a3cb2f97b89c6b956f556bdbace9f6bfc1e699a160203b70af90fcd27bc429b0a5cd2991be9a6d9369536dddaaeff0bdc3e49ba362223972ad92fed079c62bb2a7cf2b93bc986f916b516fdfa8edf2b3cdea95ad6c2c377ca39cf0de77c825bca9c1259db296619f655f61d1a6e3fcb1cfe897af6e2e357ea19ef2dc75ca27beabc3279fb094639d675d63d3a4e1feb7c9ee91a968283378a798f4da73cc21b8adc52199b692659b615b65d5a2e7f8b5cbec93ab6a2a317aa59af6d871ce23baafc7239bb4906799635967d7a0e5fabbc5e29da564243f74ab94f8d67fc02db4a1c92d95ba9e69976d5769d9aeebf4b9c7e09fa766263d76a996fad47dc22fb6a3cb2f97b89c6b956f556bdbace9f6bfc1e699a160203b70af90fcd27bc429b0a5cd2991be9a6d9369536dddaaeff0bdc3e49ba362223972ad92fed079c62bb2a7cf2b93bc986f916b516fdfa8edf2b3cdea95ad6c2c377ca39cf0de77c825bca9c1259db296619f655f61d1a6e3fcb1cfe897af6e2e357ea19ef2dc75ca27beabc3279fb094639d675d63d3a4e1feb7c9ee91a968283378a798f4da73cc21b8adc52199b692659b615b65d5a2e7f8b5cbec93ab6a2a317aa59af6d871ce23baafc7239bb4906799635967d7a0e5fabbc5e29da564243f74ab94f8d67fc02dbce61504b9ab1e7ef60b248d1493e5881e0f7426f5d7b7c180c85473265ae4f4f02fd750917e4a5c5aceee18ff0b498a849c6a54ff6840fae2678620c865ef1e62d6b61a884aecbe791a69439c08d2cf71d7ebc7112815296f5a4db410e67a8f9b96c364aaea87596756485c439af19cf8e7d6941532656acef8a81110ca25052e56c140ebd80b761381bdd93f156ea3a9d24bca59681514150888ec1923cb6de936200dfdad3c6d5babcc1d3e172aed2187cb5e6cb67e71959548ac01a312106bbad45de1817ef72cbfc387c3a8357c2d66d1440f899c64340b205b8bb58711f06aa0d4caac72ffad33a3895cbb0f79876582f0dceebe8d537612a26af9a8b5a3f06cc451ef445eb9a0c0ea6275c779421718a190b2087f7d40c7aedd5422d4544bb7b3f623fe5032a416d2f4584bdb9c2fc5aa458f8a0dd654f2a13bdd8260e30d3fde26db77b81295cc0b1ba8340ce7769cac6762444b1048634b8be8e94a0b66814b122673a39fffdaeb247f1ea0d5301b7a267e558aa35b471eb81b1320d4ab0207f4543e1f97266ee7663e34b8ff7c4f8b5cf3e5c7e2be84f142d8d10821b02f44cf7ce0d4955ac755f056dba76c462810915e081a5d6e77c849e0f5848e26afa586b692e0d63e999972acf6fc223685b50574399ae4b5926c20362b910bfd8a2d157fc7f361b033aec04317c9b866dc12e668bd476cc2c8a227a36a3a1df7d8ef676b2f864df8b5cd0d449a63e6f4068714b685109d7e2598a0f4cd462562975a876024ca2a4cccc58734e2b0063f451f29d8ea71ef2518cfef37d9fbc9eb747aabb525ac75ff1fc4143e94eed081f0691baa8852c183b6dcf4029d18cc7f3ff591b99968fe8feb3cbeaead634e4778c8a58018f4464c8a274c8eaed5781f788d5ae8172068ab8257a491888d8d8b26fe8825e3c1684a5256481fc427232c5018cce99b91fb2f11e1af2d64f929f8c88505fdf58beae734e1ea33eca927f05fea9e2be5ec8da51ea896e3a2ef9778a35035514d248d43d2f52ea91d3a8cb6f520342069aa61a08255621effe2bbcd2110145abb1aa36a4c01a3e3d468585ceb204146d6c78fa5a1cabad88d4883f372ded83a9445b194685f6145424ad6400932a7dc73de1323d1c38d830c179fd2135d279ae9fb8b1c202d662e22e8c08b47f355eebfb2f8c2b684df0de97439656c7e25d786af63af114ff4bb2eaccd861fdc8b249f9268aa4371959e3109ca5d3465b72aa6951492f13f285462c3e097907dfd2c24c1b5c0b17ab043c6d90524d25a915efebbaae71b96adbbecc5bfc4968e5192a12be55fa001d83fd652502d2b4f462d45a0207a7970aa09b8a85a1ab479c8086fabd12443b46f5e2af6c31baa9cfe9b28e36dc06d6a2a5f5ea4f9ec14e2937b0c172393154aa3c46dc7092386fad5079f1f753caf01de25071032aaa7908fe67e946077e90293a60e2372cbb8e8f57f2418afa16ba28588b1f788376a2bd27efe82644cf8fbd008682422021ecf4a23608ac405bdda86bea19136df9e203d6f78c12cf544d333014b70f63e58f80c3bccb2776be4d4e701dd34a11766c158a9f7dd34e74c39c323c3841740389c0feb9920eb6ae281df8c472e7f753833b7ee5e796d97a7e3b303b3d476bed89407ceba5baa0e1b84a2c8d7dbaffd9798133f4322c144969c14c3f328b15ccfe7add73a781c023743fab7e6282eee10a2a4d322ce473b7dcdcc9126edcecb41c06431c3df668b4eb907222408011333e84dcc41b567a25232beba46eaaa32450651f460e96e2855d33ae219bbcf14aa85a4f9a4179250c641371b64c5c7a26daecd6fd8ebcb01bcffe6faa619b77b00b69bdcc7fe9589d89848ba5d72b7af6dab092df5bd98190ed4d18035aa223d066263b525600584df849fd6b892b2b29355e120981647c704808f6d8fb5e1fc158c1d2f762637b4c887bbe0907e240d95dbc2670b99214c29c50299fce3c445e1908050c12ef80fdfea05b7bfb0ed617252ecbecf85932c23807349ed2ed0f18fa261ba5bf9c4a39b48ca8da16847ae85907e1bc7fe7b9dcbf1c76dfc4b20fc6d165102babe35f6cb1e4ff0bf14832e7efe84caede372572711e54bfe713317588b868fd25eaef7db9100cfbc9f07232847bcfb58c23b588985499db529bccce01484cec2ef1f154185ed06b762eea87a79fda78521189bd8b6bd9d7eadf9143cb47c5557cc2ed0c8572a3c3149e4356890fd78ef47ec6244595cd55bc4672356fab219ea8c035aca9671b6d8cc7182d12e6c70eb41bd91435d994fafef41781bb96e46e399f6c63226514e3b7c0f9f0e3d72cd5f0b0581f35597ca9b1154c79265184c2b4c11483430e0f1fe0c6e5bb016ddc2f33d2513ef368bf4a62ea320a1d98ad95d8a2231937d9d14f6ae898540177e14f9fad2c59ab2f664eb57008065bee1975258ab104e11cb30817a7d82e04629333c65fef1f5de049647bc7014415bf99bd979d7ce055ea9e08499c06bc8af1631354ae84b5d42186c21cf2068cbc710374d5bdefbe4c9175dbed12431466f88b6eaa30ac37406388123c9811839a5751f805bf413d4188e235d951aef6603bba3256180f5a9ccd9de0953d4e7081341c0c8f6eb83e3a8e16f8d726a67cd31ceabcdfda3199d81f49503a695a09590fb2c10dd7a78ae89b512880ecaf7f2898b812dcff757dd0ef4bced220546ddbb23527d1c175630755c5f4ba7d87b113f57eab0ac2a19b1a1a3cb2ac9e6275865a2fae9f8a0fcb5173d752180fc84303e5617ca79d6d02857637e1039baa19152d4baaf1ee7b40ba9d519eabb29dc1eecce11685468042cc25c001cb8e5c01b8020777a29f7835c7b5c5e9962360f33b4fbf768f02e324cac34cf4570cbf83d8aac5e0623b3098bab4b3a8b03f8ca40558d879b31bba7bfa6077c9b340f3a4eff69778ab8b636166926788d98cc592b66a6ef7016ec6ac2284b4ed697022b4cfafdd8d30176f12d982e2df7b4a09d8d0fa89ad5bd56c43b40ddd8013b2420655cfdd3438381368ce946efa1fad76a67290fa3fc4783064aedca2b9aeb36775c4070ff0d679d35634af907a354d83a84268d88cd66afca5d9c7912c4414b7852b5344111eeef3ef5373b3c6e88d749135c144a00b346d933501b527cb515312d27930364bf87899260c96b9c1b8f2b7591fed0918b3cbb51471064a41f7dc1bfecb784ebb90de0ecbd3c727e6a3bb3793a7fc7f7c960c6d230bc466f3da2bc9a6f48e51417a965030b64d6718c3211727e1240ba7b5eae005161cfde26b90f2e496ba9c6da9546f52eca7888e8699898fe3a5d21f9b748ca645e2af1f573a3573d1101e204b52717c81acadb8c9d1ebf60b101631354f545a5b6872818a98a7b4bccdd3e2e4011013262d353a51607a9699bbd4d6dfe4e8f0f6fafb14334e5076abadbdcbe1eef3f80000000000000000000f243a4701fd210500fa01c15ce9ee45b2524e61f66dee53c4a6878be67bafd9c18dd9f2c5339b4b2514dcfeb837df59bff52309ccb7546266003500db6f7975dca71e603b6eb0e532c0efa1a37e125bbd6e220009cdc1c449d9b7778f3f92eb8d170238edd8f6c1b47c555991896ea4963a9676de9fa56341924c4a61877adbfadbd7314d2f0fa94d68dbf7b82bcf1e26ca21fea451d263749167689d57a5c57274a816c3d23542ed10a040a2dfc500c88452fb539e5f86b114cb1e820d4045b9c06de725ff5e5cceb6c766ea237b3ab9cf1ac6eceb80f0f9ac0dfe4b7a159941b8a3f3500810f2a27c383df387930668a8f80cb9dd07ee76e8862aa36a50262e6f65db5b5ece03ee6d506a0154f1f32ebd4cfbb12e45afdc9747509f6c54e087ac3fc23a604ac9d8145c6a1134b384ca3dc6166a0540b4536ae0226a2f5a6ec9b204beb0e4d954acf1f22db0b335f6a0fdcd5e87fd054104997a9b8c593df42e29280b76cad9754ef7d45362f383d1f498d8f1f20a36724fb2a1c5fbc3814a6daf1ff6471a64b0300224cc9e00032f04fd4b034a6763174faa10b1f58632fe09726ec9fef17cd970f7d3de398063e1494c55eb51038944c4195162fb30fb81231a2f681fdbd4e0f2d9cdb3b47e8d4f3f335938e4e1926b7830da3a82a7e47eb4f6ed7dcb8db1dcc4ec78a6ce4f1a305da74cdb93874a4aa8efe714d8e679065aa2ad405d4b31cb92f1f8954da4c4d14665f5022be71ace5b00cb86f44680805cdf1f5fed933fcb2b4c15ace20378d66f48a67111f404a2ae702548def2f69378d9ab1a23f768723ca1282b996ed4c6d76f9b5ec70a58d79dff84839d343bccc74ed02d5954ae92c619003e32da57da184b3f983c25d01f220c92b656932b00a41d6321789978f75f61c1ebe32c96697ec88a8ef80a45043b8a9ece4fe8c33023a5b2d6e7b1199ced4c3f53b3a3fe038a80a45720c96e5d07e7b282e2c1cec00b6d7a316780f2d7afa683bd881618b4b430801b3038c669602f6aac62931e136b73d1ccdb41b1f9c4a580d727058f16a21915bf40299071b1bd7f1a99816bd9db90df19eeabf0fdaee0d4562c8253ffe0c8b162321ad2eb28445a8e167535755a3cc5d894dd623b0b9c9ab9b2a636c1b2b370ec02ee248dd21b34f58092b3df8589f333bdc63f6b27faef09c36d063bd4033722ad1db6df96b96dd530082ef3b8f104cb7c2393ff2a45fe1ba06a059b0e33143753996585d85d32bbc44d8d8451619f3a5b15eb9a93c6ecd35e1f31493f59027d9d863fa0c5da44cd56942528fc7d8c6e53462d9ed6d4e6d85bffa7d7e8ddc49cce02a2408c1da0f14c4192a87b9b603718fd1b470602fcd25e4383420e30841cf10168603e285985ad4d5167d68da14c41fbc193a56e895923d1df586c9abbc1d7b04353bf52d6f73d3c151af3d282d20cb45406b36b6b5866c0721d71b2ceb7d90b936a5b1c83007d4c91b9393af85f0950629440d18987bd1418dd46edd344ff28c7a8958a85f744903b7d174381bc4ae3425b06211f47e596be1d9632d627408fbe4574c51b811e0bad5d6ee4d1c1cccf3a20ad7da579d4c4052353a89e5a4ec89746f944a10aa1dbc847b12acd85099e0a153b55d78017a7dfb5aa900cd998dee925b828ec3c9387a2cd648c91cd1cc4a5de84011acb25f92df434dd95080490f17c19763865fe6e9abe39b75e3acca69b73af0da7a6152f117e1dfbc3a3497293e24b173d0bcf72dc9f70d94b825550846635a4417a0cd2ac7646db07be3416f5945e49b849d7c7ebb4b740ada5c927ef413f68cc0fc787c43bbb9735253321c0dfc3a5328e5285b2743f112d6f3fd10e614288000000",
  "txid": "c5c5f6422e4af2f310ceb04d5400ce32eca38b58065da6701a8568fd64cd4830",
  "hash": "d8106aef32dd28d9e59a6df4265a575e2d006245d10076571e5021c016d625b8",
  "size": 5085,
  "vsize": 2278,
  "version": 1,
  "locktime": 136,
  "vin": [
    {
      "txid": "0237bc6038e04c642ffa145c33cc5ff13a96a203fd9ea50b2aca03c79e1c9239",
      "vout": 0,
      "scriptSig": {
        "asm": "",
        "hex": ""
      },
      "txinwitness": [
        "17e4a5c5aceee18ff0b498a849c6a54ff6840fae2678620c865ef1e62d6b61a884aecbe791a69439c08d2cf71d7ebc7112815296f5a4db410e67a8f9b96c364aaea87596756485c439af19cf8e7d6941532656acef8a81110ca25052e56c140ebd80b761381bdd93f156ea3a9d24bca59681514150888ec1923cb6de936200dfdad3c6d5babcc1d3e172aed2187cb5e6cb67e71959548ac01a312106bbad45de1817ef72cbfc387c3a8357c2d66d1440f899c64340b205b8bb58711f06aa0d4caac72ffad33a3895cbb0f79876582f0dceebe8d537612a26af9a8b5a3f06cc451ef445eb9a0c0ea6275c779421718a190b2087f7d40c7aedd5422d4544bb7b3f623fe5032a416d2f4584bdb9c2fc5aa458f8a0dd654f2a13bdd8260e30d3fde26db77b81295cc0b1ba8340ce7769cac6762444b1048634b8be8e94a0b66814b122673a39fffdaeb247f1ea0d5301b7a267e558aa35b471eb81b1320d4ab0207f4543e1f97266ee7663e34b8ff7c4f8b5cf3e5c7e2be84f142d8d10821b02f44cf7ce0d4955ac755f056dba76c462810915e081a5d6e77c849e0f5848e26afa586b692e0d63e999972acf6fc223685b50574399ae4b5926c20362b910bfd8a2d157fc7f361b033aec04317c9b866dc12e668bd476cc2c8a227a36a3a1df7d8ef676b2f864df8b5cd0d449a63e6f4068714b685109d7e2598a0f4cd462562975a876024ca2a4cccc58734e2b0063f451f29d8ea71ef2518cfef37d9fbc9eb747aabb525ac75ff1fc4143e94eed081f0691baa8852c183b6dcf4029d18cc7f3ff591b99968fe8feb3cbeaead634e4778c8a58018f4464c8a274c8eaed5781f788d5ae8172068ab8257a491888d8d8b26fe8825e3c1684a5256481fc427232c5018cce99b91fb2f11e1af2d64f929f8c88505fdf58beae734e1ea33eca927f05fea9e2be5ec8da51ea896e3a2ef9778a35035514d248d43d2f52ea91d3a8cb6f520342069aa61a08255621effe2bbcd2110145abb1aa36a4c01a3e3d468585ceb204146d6c78fa5a1cabad88d4883f372ded83a9445b194685f6145424ad6400932a7dc73de1323d1c38d830c179fd2135d279ae9fb8b1c202d662e22e8c08b47f355eebfb2f8c2b684df0de97439656c7e25d786af63af114ff4bb2eaccd861fdc8b249f9268aa4371959e3109ca5d3465b72aa6951492f13f285462c3e097907dfd2c24c1b5c0b17ab043c6d90524d25a915efebbaae71b96adbbecc5bfc4968e5192a12be55fa001d83fd652502d2b4f462d45a0207a7970aa09b8a85a1ab479c8086fabd12443b46f5e2af6c31baa9cfe9b28e36dc06d6a2a5f5ea4f9ec14e2937b0c172393154aa3c46dc7092386fad5079f1f753caf01de25071032aaa7908fe67e946077e90293a60e2372cbb8e8f57f2418afa16ba28588b1f788376a2bd27efe82644cf8fbd008682422021ecf4a23608ac405bdda86bea19136df9e203d6f78c12cf544d333014b70f63e58f80c3bccb2776be4d4e701dd34a11766c158a9f7dd34e74c39c323c3841740389c0feb9920eb6ae281df8c472e7f753833b7ee5e796d97a7e3b303b3d476bed89407ceba5baa0e1b84a2c8d7dbaffd9798133f4322c144969c14c3f328b15ccfe7add73a781c023743fab7e6282eee10a2a4d322ce473b7dcdcc9126edcecb41c06431c3df668b4eb907222408011333e84dcc41b567a25232beba46eaaa32450651f460e96e2855d33ae219bbcf14aa85a4f9a4179250c641371b64c5c7a26daecd6fd8ebcb01bcffe6faa619b77b00b69bdcc7fe9589d89848ba5d72b7af6dab092df5bd98190ed4d18035aa223d066263b525600584df849fd6b892b2b29355e120981647c704808f6d8fb5e1fc158c1d2f762637b4c887bbe0907e240d95dbc2670b99214c29c50299fce3c445e1908050c12ef80fdfea05b7bfb0ed617252ecbecf85932c23807349ed2ed0f18fa261ba5bf9c4a39b48ca8da16847ae85907e1bc7fe7b9dcbf1c76dfc4b20fc6d165102babe35f6cb1e4ff0bf14832e7efe84caede372572711e54bfe713317588b868fd25eaef7db9100cfbc9f07232847bcfb58c23b588985499db529bccce01484cec2ef1f154185ed06b762eea87a79fda78521189bd8b6bd9d7eadf9143cb47c5557cc2ed0c8572a3c3149e4356890fd78ef47ec6244595cd55bc4672356fab219ea8c035aca9671b6d8cc7182d12e6c70eb41bd91435d994fafef41781bb96e46e399f6c63226514e3b7c0f9f0e3d72cd5f0b0581f35597ca9b1154c79265184c2b4c11483430e0f1fe0c6e5bb016ddc2f33d2513ef368bf4a62ea320a1d98ad95d8a2231937d9d14f6ae898540177e14f9fad2c59ab2f664eb57008065bee1975258ab104e11cb30817a7d82e04629333c65fef1f5de049647bc7014415bf99bd979d7ce055ea9e08499c06bc8af1631354ae84b5d42186c21cf2068cbc710374d5bdefbe4c9175dbed12431466f88b6eaa30ac37406388123c9811839a5751f805bf413d4188e235d951aef6603bba3256180f5a9ccd9de0953d4e7081341c0c8f6eb83e3a8e16f8d726a67cd31ceabcdfda3199d81f49503a695a09590fb2c10dd7a78ae89b512880ecaf7f2898b812dcff757dd0ef4bced220546ddbb23527d1c175630755c5f4ba7d87b113f57eab0ac2a19b1a1a3cb2ac9e6275865a2fae9f8a0fcb5173d752180fc84303e5617ca79d6d02857637e1039baa19152d4baaf1ee7b40ba9d519eabb29dc1eecce11685468042cc25c001cb8e5c01b8020777a29f7835c7b5c5e9962360f33b4fbf768f02e324cac34cf4570cbf83d8aac5e0623b3098bab4b3a8b03f8ca40558d879b31bba7bfa6077c9b340f3a4eff69778ab8b636166926788d98cc592b66a6ef7016ec6ac2284b4ed697022b4cfafdd8d30176f12d982e2df7b4a09d8d0fa89ad5bd56c43b40ddd8013b2420655cfdd3438381368ce946efa1fad76a67290fa3fc4783064aedca2b9aeb36775c4070ff0d679d35634af907a354d83a84268d88cd66afca5d9c7912c4414b7852b5344111eeef3ef5373b3c6e88d749135c144a00b346d933501b527cb515312d27930364bf87899260c96b9c1b8f2b7591fed0918b3cbb51471064a41f7dc1bfecb784ebb90de0ecbd3c727e6a3bb3793a7fc7f7c960c6d230bc466f3da2bc9a6f48e51417a965030b64d6718c3211727e1240ba7b5eae005161cfde26b90f2e496ba9c6da9546f52eca7888e8699898fe3a5d21f9b748ca645e2af1f573a3573d1101e204b52717c81acadb8c9d1ebf60b101631354f545a5b6872818a98a7b4bccdd3e2e4011013262d353a51607a9699bbd4d6dfe4e8f0f6fafb14334e5076abadbdcbe1eef3f80000000000000000000f243a4701",
        "00fa01c15ce9ee45b2524e61f66dee53c4a6878be67bafd9c18dd9f2c5339b4b2514dcfeb837df59bff52309ccb7546266003500db6f7975dca71e603b6eb0e532c0efa1a37e125bbd6e220009cdc1c449d9b7778f3f92eb8d170238edd8f6c1b47c555991896ea4963a9676de9fa56341924c4a61877adbfadbd7314d2f0fa94d68dbf7b82bcf1e26ca21fea451d263749167689d57a5c57274a816c3d23542ed10a040a2dfc500c88452fb539e5f86b114cb1e820d4045b9c06de725ff5e5cceb6c766ea237b3ab9cf1ac6eceb80f0f9ac0dfe4b7a159941b8a3f3500810f2a27c383df387930668a8f80cb9dd07ee76e8862aa36a50262e6f65db5b5ece03ee6d506a0154f1f32ebd4cfbb12e45afdc9747509f6c54e087ac3fc23a604ac9d8145c6a1134b384ca3dc6166a0540b4536ae0226a2f5a6ec9b204beb0e4d954acf1f22db0b335f6a0fdcd5e87fd054104997a9b8c593df42e29280b76cad9754ef7d45362f383d1f498d8f1f20a36724fb2a1c5fbc3814a6daf1ff6471a64b0300224cc9e00032f04fd4b034a6763174faa10b1f58632fe09726ec9fef17cd970f7d3de398063e1494c55eb51038944c4195162fb30fb81231a2f681fdbd4e0f2d9cdb3b47e8d4f3f335938e4e1926b7830da3a82a7e47eb4f6ed7dcb8db1dcc4ec78a6ce4f1a305da74cdb93874a4aa8efe714d8e679065aa2ad405d4b31cb92f1f8954da4c4d14665f5022be71ace5b00cb86f44680805cdf1f5fed933fcb2b4c15ace20378d66f48a67111f404a2ae702548def2f69378d9ab1a23f768723ca1282b996ed4c6d76f9b5ec70a58d79dff84839d343bccc74ed02d5954ae92c619003e32da57da184b3f983c25d01f220c92b656932b00a41d6321789978f75f61c1ebe32c96697ec88a8ef80a45043b8a9ece4fe8c33023a5b2d6e7b1199ced4c3f53b3a3fe038a80a45720c96e5d07e7b282e2c1cec00b6d7a316780f2d7afa683bd881618b4b430801b3038c669602f6aac62931e136b73d1ccdb41b1f9c4a580d727058f16a21915bf40299071b1bd7f1a99816bd9db90df19eeabf0fdaee0d4562c8253ffe0c8b162321ad2eb28445a8e167535755a3cc5d894dd623b0b9c9ab9b2a636c1b2b370ec02ee248dd21b34f58092b3df8589f333bdc63f6b27faef09c36d063bd4033722ad1db6df96b96dd530082ef3b8f104cb7c2393ff2a45fe1ba06a059b0e33143753996585d85d32bbc44d8d8451619f3a5b15eb9a93c6ecd35e1f31493f59027d9d863fa0c5da44cd56942528fc7d8c6e53462d9ed6d4e6d85bffa7d7e8ddc49cce02a2408c1da0f14c4192a87b9b603718fd1b470602fcd25e4383420e30841cf10168603e285985ad4d5167d68da14c41fbc193a56e895923d1df586c9abbc1d7b04353bf52d6f73d3c151af3d282d20cb45406b36b6b5866c0721d71b2ceb7d90b936a5b1c83007d4c91b9393af85f0950629440d18987bd1418dd46edd344ff28c7a8958a85f744903b7d174381bc4ae3425b06211f47e596be1d9632d627408fbe4574c51b811e0bad5d6ee4d1c1cccf3a20ad7da579d4c4052353a89e5a4ec89746f944a10aa1dbc847b12acd85099e0a153b55d78017a7dfb5aa900cd998dee925b828ec3c9387a2cd648c91cd1cc4a5de84011acb25f92df434dd95080490f17c19763865fe6e9abe39b75e3acca69b73af0da7a6152f117e1dfbc3a3497293e24b173d0bcf72dc9f70d94b825550846635a4417a0cd2ac7646db07be3416f5945e49b849d7c7ebb4b740ada5c927ef413f68cc0fc787c43bbb9735253321c0dfc3a5328e5285b2743f112d6f3fd10e6142"
      ],
      "sequence": 4294967294
    }
  ],
  "vout": [
    {
      "value": 499968.4761,
      "n": 0,
      "scriptPubKey": {
        "asm": "1 8af191047f87896e66964d279c054101b9f65ca39abeff7f30d5bbd2fe3f0b60",
        "hex": "51208af191047f87896e66964d279c054101b9f65ca39abeff7f30d5bbd2fe3f0b60",
        "reqSigs": 1,
        "type": "witness_v1_scripthash",
        "addresses": [
          "3QJmnh"
        ]
      }
    },
    {
      "value": 1.0,
      "n": 1,
      "scriptPubKey": {
        "asm": "OP_RETURN 38152ebbd5de22ddfab649c598230ef61255b3c70502a42d40aba5f33ef1a278 3cdea95ad6c2c377ca39cf0de77c825bca9c1259db296619f655f61d1a6e3fcb1cfe897af6e2e357ea19ef2dc75ca27beabc3279fb094639d675d63d3a4e1feb7c9ee91a968283378a798f4da73cc21b8adc52199b692659b615b65d5a2e7f8b5cbec93ab6a2a317aa59af6d871ce23baafc7239bb4906799635967d7a0e5fabbc5e29da564243f74ab94f8d67fc02db4a1c92d95ba9e69976d5769d9aeebf4b9c7e09fa766263d76a996fad47dc22fb6a3cb2f97b89c6b956f556bdbace9f6bfc1e699a160203b70af90fcd27bc429b0a5cd2991be9a6d9369536dddaaeff0bdc3e49ba362223972ad92fed079c62bb2a7cf2b93bc986f916b516fdfa8edf2b3cdea95ad6c2c377ca39cf0de77c825bca9c1259db296619f655f61d1a6e3fcb1cfe897af6e2e357ea19ef2dc75ca27beabc3279fb094639d675d63d3a4e1feb7c9ee91a968283378a798f4da73cc21b8adc52199b692659b615b65d5a2e7f8b5cbec93ab6a2a317aa59af6d871ce23baafc7239bb4906799635967d7a0e5fabbc5e29da564243f74ab94f8d67fc02db4a1c92d95ba9e69976d5769d9aeebf4b9c7e09fa766263d76a996fad47dc22fb6a3cb2f97b89c6b956f556bdbace9f6bfc1e699a160203b70af90fcd27bc429b0a5cd2991be9a6d9369536dddaaeff0bdc3e49ba362223972ad92fed079c62bb2a7cf2b93bc986f916b516fdfa8edf2b3cdea95ad6c2c377ca39cf0de77c825bca9c1259db296619f655f61d1a6e3fcb1cfe897af6e2e357ea19ef2dc75ca27beabc3279fb094639d675d63d3a4e1feb7c9ee91a968283378a798f4da73cc21b8adc52199b692659b615b65d5a2e7f8b5cbec93ab6a2a317aa59af6d871ce23baafc7239bb4906799635967d7a0e5fabbc5e29da564243f74ab94f8d67fc02db4a1c92d95ba9e69976d5769d9aeebf4b9c7e09fa766263d76a996fad47dc22fb6a3cb2f97b89c6b956f556bdbace9f6bfc1e699a160203b70af90fcd27bc429b0a5cd2991be9a6d9369536dddaaeff0bdc3e49ba362223972ad92fed079c62bb2a7cf2b93bc986f916b516fdfa8edf2b3cdea95ad6c2c377ca39cf0de77c825bca9c1259db296619f655f61d1a6e3fcb1cfe897af6e2e357ea19ef2dc75ca27beabc3279fb094639d675d63d3a4e1feb7c9ee91a968283378a798f4da73cc21b8adc52199b692659b615b65d5a2e7f8b5cbec93ab6a2a317aa59af6d871ce23baafc7239bb4906799635967d7a0e5fabbc5e29da564243f74ab94f8d67fc02db4a1c92d95ba9e69976d5769d9aeebf4b9c7e09fa766263d76a996fad47dc22fb6a3cb2f97b89c6b956f556bdbace9f6bfc1e699a160203b70af90fcd27bc429b0a5cd2991be9a6d9369536dddaaeff0bdc3e49ba362223972ad92fed079c62bb2a7cf2b93bc986f916b516fdfa8edf2b3cdea95ad6c2c377ca39cf0de77c825bca9c1259db296619f655f61d1a6e3fcb1cfe897af6e2e357ea19ef2dc75ca27beabc3279fb094639d675d63d3a4e1feb7c9ee91a968283378a798f4da73cc21b8adc52199b692659b615b65d5a2e7f8b5cbec93ab6a2a317aa59af6d871ce23baafc7239bb4906799635967d7a0e5fabbc5e29da564243f74ab94f8d67fc02dbce61504b9ab1e7ef60b248d1493e5881e0f7426f5d7b7c180c85473265ae4f4f",
        "hex": "6a2038152ebbd5de22ddfab649c598230ef61255b3c70502a42d40aba5f33ef1a2784db0043cdea95ad6c2c377ca39cf0de77c825bca9c1259db296619f655f61d1a6e3fcb1cfe897af6e2e357ea19ef2dc75ca27beabc3279fb094639d675d63d3a4e1feb7c9ee91a968283378a798f4da73cc21b8adc52199b692659b615b65d5a2e7f8b5cbec93ab6a2a317aa59af6d871ce23baafc7239bb4906799635967d7a0e5fabbc5e29da564243f74ab94f8d67fc02db4a1c92d95ba9e69976d5769d9aeebf4b9c7e09fa766263d76a996fad47dc22fb6a3cb2f97b89c6b956f556bdbace9f6bfc1e699a160203b70af90fcd27bc429b0a5cd2991be9a6d9369536dddaaeff0bdc3e49ba362223972ad92fed079c62bb2a7cf2b93bc986f916b516fdfa8edf2b3cdea95ad6c2c377ca39cf0de77c825bca9c1259db296619f655f61d1a6e3fcb1cfe897af6e2e357ea19ef2dc75ca27beabc3279fb094639d675d63d3a4e1feb7c9ee91a968283378a798f4da73cc21b8adc52199b692659b615b65d5a2e7f8b5cbec93ab6a2a317aa59af6d871ce23baafc7239bb4906799635967d7a0e5fabbc5e29da564243f74ab94f8d67fc02db4a1c92d95ba9e69976d5769d9aeebf4b9c7e09fa766263d76a996fad47dc22fb6a3cb2f97b89c6b956f556bdbace9f6bfc1e699a160203b70af90fcd27bc429b0a5cd2991be9a6d9369536dddaaeff0bdc3e49ba362223972ad92fed079c62bb2a7cf2b93bc986f916b516fdfa8edf2b3cdea95ad6c2c377ca39cf0de77c825bca9c1259db296619f655f61d1a6e3fcb1cfe897af6e2e357ea19ef2dc75ca27beabc3279fb094639d675d63d3a4e1feb7c9ee91a968283378a798f4da73cc21b8adc52199b692659b615b65d5a2e7f8b5cbec93ab6a2a317aa59af6d871ce23baafc7239bb4906799635967d7a0e5fabbc5e29da564243f74ab94f8d67fc02db4a1c92d95ba9e69976d5769d9aeebf4b9c7e09fa766263d76a996fad47dc22fb6a3cb2f97b89c6b956f556bdbace9f6bfc1e699a160203b70af90fcd27bc429b0a5cd2991be9a6d9369536dddaaeff0bdc3e49ba362223972ad92fed079c62bb2a7cf2b93bc986f916b516fdfa8edf2b3cdea95ad6c2c377ca39cf0de77c825bca9c1259db296619f655f61d1a6e3fcb1cfe897af6e2e357ea19ef2dc75ca27beabc3279fb094639d675d63d3a4e1feb7c9ee91a968283378a798f4da73cc21b8adc52199b692659b615b65d5a2e7f8b5cbec93ab6a2a317aa59af6d871ce23baafc7239bb4906799635967d7a0e5fabbc5e29da564243f74ab94f8d67fc02db4a1c92d95ba9e69976d5769d9aeebf4b9c7e09fa766263d76a996fad47dc22fb6a3cb2f97b89c6b956f556bdbace9f6bfc1e699a160203b70af90fcd27bc429b0a5cd2991be9a6d9369536dddaaeff0bdc3e49ba362223972ad92fed079c62bb2a7cf2b93bc986f916b516fdfa8edf2b3cdea95ad6c2c377ca39cf0de77c825bca9c1259db296619f655f61d1a6e3fcb1cfe897af6e2e357ea19ef2dc75ca27beabc3279fb094639d675d63d3a4e1feb7c9ee91a968283378a798f4da73cc21b8adc52199b692659b615b65d5a2e7f8b5cbec93ab6a2a317aa59af6d871ce23baafc7239bb4906799635967d7a0e5fabbc5e29da564243f74ab94f8d67fc02dbce61504b9ab1e7ef60b248d1493e5881e0f7426f5d7b7c180c85473265ae4f4f",
        "type": "nulldata"
      }
    }
  ],
  "blockhash": "c0ea0e6b16ad20f35d4757cbcff39c3d199dbd7e252fa8e6bc9f3f36ee858c22",
  "confirmations": 1,
  "time": 1764183276,
  "blocktime": 1764183276
}