{
  "hex": "01000000000101f779fdf1def1efbf0bf30beb119e463875e35129e5ec9a2a10576d4a36cc2bf00100000000feffffff0250200e76792d0000225120aac4c8665359ed08f2ba69922b088dd7b4d8bbe4b5e4754ad59aba5e30a7ffb400e1f50500000000fdd5046a207eccf63dc2095176bc3573eec4ffe77a747b229e1b5808d709069a3f4f7abfa94db00437f440565c1bb935037185696d9da12cfc3f2ae9f2ad77b7ee3bc1b4ffeb93e517d460767c3b99152351a5494dbd810cdc1f0ac9d28d5797ce1be194dfcbb3c577b400161c5bf9754331c5292ddde16cbc7f6aa9b2ed37f7ae7b81f4bfabd3a5579420363c7bd9556311e5090dfdc14c9c5f4a8992cd17d78e5ba1d49f8bf385b774c0d6dc9b39b583f105e9ed1d21ac7cbfaa69722df7376ebb41347f6b13659754e0f6fcbb1995a3d125c9cd3d018c5c9f8a49520dd7174e9b61145f4b3345f73480969cdb79f5c3b145a9ad5d61ec3cffea29326db7772efb01743f2b5325d714a0b6bcfb59d5e39165898d7d41cc1cdfca09124d97570edb21541f0b730537f440565c1bb935037185696d9da12cfc3f2ae9f2ad77b7ee3bc1b4ffeb93e517d460767c3b99152351a5494dbd810cdc1f0ac9d28d5797ce1be194dfcbb3c577b400161c5bf9754331c5292ddde16cbc7f6aa9b2ed37f7ae7b81f4bfabd3a5579420363c7bd9556311e5090dfdc14c9c5f4a8992cd17d78e5ba1d49f8bf385b774c0d6dc9b39b583f105e9ed1d21ac7cbfaa69722df7376ebb41347f6b13659754e0f6fcbb1995a3d125c9cd3d018c5c9f8a49520dd7174e9b61145f4b3345f73480969cdb79f5c3b145a9ad5d61ec3cffea29326db7772efb01743f2b5325d714a0b6bcfb59d5e39165898d7d41cc1cdfca09124d97570edb21541f0b730537f440565c1bb935037185696d9da12cfc3f2ae9f2ad77b7ee3bc1b4ffeb93e517d460767c3b99152351a5494dbd810cdc1f0ac9d28d5797ce1be194dfcbb3c577b400161c5bf9754331c5292ddde16cbc7f6aa9b2ed37f7ae7b81f4bfabd3a5579420363c7bd9556311e5090dfdc14c9c5f4a8992cd17d78e5ba1d49f8bf385b774c0d6dc9b39b583f105e9ed1d21ac7cbfaa69722df7376ebb41347f6b13659754e0f6fcbb1995a3d125c9cd3d018c5c9f8a49520dd7174e9b61145f4b3345f73480969cdb79f5c3b145a9ad5d61ec3cffea29326db7772efb01743f2b5325d714a0b6bcfb59d5e39165898d7d41cc1cdfca09124d97570edb21541f0b730537f440565c1bb935037185696d9da12cfc3f2ae9f2ad77b7ee3bc1b4ffeb93e517d460767c3b99152351a5494dbd810cdc1f0ac9d28d5797ce1be194dfcbb3c577b400161c5bf9754331c5292ddde16cbc7f6aa9b2ed37f7ae7b81f4bfabd3a5579420363c7bd9556311e5090dfdc14c9c5f4a8992cd17d78e5ba1d49f8bf385b774c0d6dc9b39b583f105e9ed1d21ac7cbfaa69722df7376ebb41347f6b13659754e0f6fcbb1995a3d125c9cd3d018c5c9f8a49520dd7174e9b61145f4b3345f73480969cdb79f5c3b145a9ad5d61ec3cffea29326db7772efb01743f2b5325d714a0b6bcfb59d5e39165898d7d41cc1cdfca09124d97570edb21541f0b730537f440565c1bb935037185696d9da12cfc3f2ae9f2ad77b7ee3bc1b4ffeb93e517d460767c3b99152351a5494dbd810cdc1f0ac9d28d5797ce1be194dfcbb3c577b400161c5bf9754331c5292ddde16cbc7f6aa9b2ed37f7ae7b81f4bfabd3a5579420363c7bd9556311e5090dfdc14c9c5f4a8992cd17d78e5ba1d49f8bf385b774c0d6dc9b39b583f105e9ed1d21ac5dfacabd5aa546b36355161b6a1f64ba9a74dea800dc36a878ae184016a085ce02fd7509645cbe10df4f1532ab76db95e4db1954ebd3e5ab0651e94d2d29e640a88de0f9e22c3b993692804aec18b27a969242878a36136517dab542134df2d69ab93f762f38f5b1857823829f901fdeafd05b9cb121cd119e9aa5e0ab4421cde913f59b867742852bc916d45093820c8459ec403e5db8103beb2d00d730adc79cf85d7f93fdb6da4610c38e7d4ca88b96cfb03109ef3b90eec732efed36e68a3266715ff6cffce57c7aeca099c2a1cb2a4bbab8fd34436f9c1ad64b660983bcc97b32743d3b1e94a3e57314240a40d3587a270e81307fe35efb2fc973fbb90f57ce7c55a91fd76fc8599c034947cd3691a5ecaca84114c9caa4c533ff3c1c5645380abe2147bc1749c1c2a92e50193d387c2ca27363919f9a1bfe739ae1acf459e59b091cbc7e14a6dd2d252293e351fd057ca36f6f6cdd45847b79fe08d41bed716499c65d513e8468efbf4ec7020a481a4e316b2b0d3d2e79fc0f2052d0bb19b88812333f9054cfc069c4a4b930b9f9d62d85206b10e2721c622e7f1003aa3ac64c64f32d57a1131e5a9a80b0a843efde1e65ecbff23533ad797fec9fa0357850181049bab3dc17fc2acd3daf6b445863722ba9c04b47bcf89625a91ebc5331b73ff9adc5735d832370b679455f96d72984e6fa1f7fc5cfb7abf54382ed6215b0ba8ad0b1c880ad99464261439be1780a5c3c90bd46e22c5a436b97eb7a6925374c155ed7fdc3625332155cb4fa0d88f72d3e5364be4c619956ca8ad13ec8e28433930ad9dd6fb3b87097609cb1e46cd28c4114842e8e79c13dda23b32b41a86e1dc0dae51bc7582bc65e8083e31c25038ccc29a4cc04efd1198af48b313517ca09778a18ab5ee6f51e35ce163ba6a5dabc6eb5f67bf48402e637aae44ca1b3585e75bd8952fc7f940bae22f7ec08d27391a51a58e2cb7976061a13fcee1fc1aeede4d79527168d9f0bc80978d4c625df0dc53e7bf60465d0cde90ec282726caeeb417e602cb3b9c6d948e874aa0bd9c048700cd590000d409d0025a5151b72f3fa446597390e2a41d6a03306dc28302defba6171888b9e858384e2ec5c02f7710d1c692e07373dc7e0de9ed34b581b215e5b1bf05f716816001a916c51b6bdb847e082fc5dd950ebd6ef452b3da4a65c9b364a6d09226bbe25969706c5704493fe3c3413bf265d9f87e329bce2a8ac967fc1c7f3b212a0ba052a67dbf481ada6d19589aab4b04507775319fb2fc2ad9dd210bac8f5a94355fe9343c50d4b19ecd66b4b72e99cb276113665e55f6437a3e26a4a376c79e4f24d5b185c5cb1a74e95152edec0a4eea0b97c7156a662da9be959b6604c66beabafe1b9abfb33f71bd88d175dbc05868d31b22fd7661c5980861e8cecea46bff1bf4b877e7ce6f8446f313336b760ff2046e2f945eb0d69ca3111bc554a513edf866c5811b0a51b27f32504a1ec34c4206d64abd826e0e7014f0214cd62d57cd7245d43c23b109f635876bc326560788b98820d5d75b30951dff1d9cc691824cdd00baf5364fac4c68c8ee94eabb5fe9ac2038f26947980ce0ae6a1fd7582b56c84e578f3e8692018ecb1f462abeb534361f96547e5f98a74e529aed1ffcf80963b750c2708f7025cc0bb42fec42be386ea02e6a35e1e1a435fb0fa999147a62f460b27c8df1ccf438f20aafe734904747b928e938348d19c607ae0ee6ea7efe4c2d7e656e9576af79f9c1180beee685144cc188bdcd590055097047312a0bcbe60164213e24d4afb443249ff6243318f4ab8aefc2c38c49f6d9b0d31da304f1213f93d8d0fd6e84dc22164854fd5b9b72b3d958c32e6307c90d98b1adfb265c6473b927f36e44169b9ed167e90af9971dab3aede44c05394bb492f804116cb182200cd937dbae61e74830cf396f2b037fb9431f8dc4238d4ebade0d820837b922da25e465f40cc9796aea77be61ff47ea22b64dedf924f03e3bce2f1789265d43f7627777557f8a269dd5f6e2237f14d3ae7bfb749aa3b45143e470d99cc1fb624681454f67718ad497b2eacc2c54af37a238b09ef0cf2c94e11e90793546aaa5a02c916417a6ad9d271468ed17c4a776a174792c68e50db82d62519db24503889bf74e4e60a9fd937efd948d0f84079b75c6575aa58d768c6381ac95dffebdd3ece05ca803ef37efc02eb55f3afb89f9ae1d05c2cb3a7d1f42f1400200138fd6d448122c17f894d8acb644a14679c05c71b118d583f7ec92af253bea90afed5b7cd1a7f7e68b828c8629c279dcb14943479d1b7be4dbc3a0ddf4761fdc3dbc4e8f072baf620181518577b75a4e2abf065768b023d95a4e2a067d24a6e3cd93c29f1e9db4ea90d9a6c6988d1863d094ed4f54f8d6372b876773b939a34d281aa6e4df9b7381d5897acf48b41294827bf45d008fa181d346512d91e3cca70fbc759bb806bb46d36689cc0fd5b94f96e45990c1c6b164045f058c5553d8bc27bfa671fbdd8a05369c1536598ec79ecdc297cb3e58aa58f8a8240a0472612276ff83695431be856ad1112e340f83d9e85cd188b520d862b6569ebcd51b22ece6f0c1dac0528cd47c068797bf84a1e2b5dd223a28c832dd1914cdbffcbdb54da0aa301e9256424a4fca6e66b2c5c2ef20662d59769f82a37a595f9c08191a954b597451c2f98d01f8ccf1bc648982559749261eeaac5ef334b5599afab7ada61647d7309010fefbe48a6ec5652ab1ec24afc9929f531ba15f6a8a6f9d81054a1a521f7858444729e88dc2db21a2568b8fc409c5be205cfd2eb00513512466d66d9260437a97d43e8ca4fa9c6bc3db6da01d3c6231c9e4f5d894783bb7ff2347a109b096e961974f80e6e287e9f02847b5048449dfd6416128addc11b477c4668c748ef03680f1692cae93176b7a7ee7c6132af9631c792380ecb68e6b25a10c4a6d31984b331ceabe284de13f0ae0dd4c9943c499283d1f675ea3c29f50765accc50c58eeec5ffdecc73d09ea77cb33dc7ee2786091b7013696c5f48a101698d19ba443b445f542a78491be44bc0261f50f5fead06ec111147a99fefe12215f06c01bb76497e41d3a36e4fa300230ee73a8190cf8f745c417c491155c80f203d7237f42fe654c27a20adcc61306724c79a31b9d8875d6fb4a83fd314ea72987edeab4eeaac565b225e43144ae7d1574e21c0489640da5e4e6070f74ae85dab5acab21a7d6df4896da01c02b155dd5db8089d5189f01cecb802a5ab3f290770d00b55e7ec87a8566bfda13d927ce23202daa92bc37143a2d74bb03116933036e36268b0408150e1718243fd8b000e1536447c878894b6c3cae2f3010216232d33494d4e4f557274899397a5c6d9f3f6fc0624353c7283969ba8b5c2edf30a143547535c5e6f7c88929b9da8bdc0c9cacbe800000000000000000000000e24314501fd210500862084abbcddac105b69345d25d8d16c126247556f56da2dc8edf9e0a242b6f9d323f031919fbc6af77fece3c9d2ad866d8c8341ce1697bd2b416a016959ba5559fbe6736b0daa12d54ea0704c7cf1b12a7dd832c41ff463a481ce2eedc2f61a2873e12c1c877bb54f128f34f704e4e926d0576dee4d06df7b250f1467731e7c31406aff4475468c0de91a5034e9bfd02ba41b258231c912fbb8376881ae9a5eab76a6a4c537190566ae5d8c3dec55f2461840d2551f4837af9fc7ee8174f30727cbdedebbc900bb7efb1c5a756db4631101cfc312258a96a4f3b589b463974e50cddd40faa58e57dde80d1476704b62bfc9a0505df32b9e1ebbb0a4f6d224fe7c9e29c64459f846ad6a3cc6affbdbd7c29fb816c06929db24b611966fe4ad576e3a06640f4c87f83dcb30f7e8d57434a74c2182b13712e7f05167a4e8398724a3c7842170c58fed250ea17fb625358c508552b1e86dfc8bf16387502aa0dfc6d2bfdbbe4759a9bdbf13c169e36725f04edbdc2eeecefafd77f46574c05dfa52a41f6c7e6ae1a54b2533e42c11ebf20841afe473cffdab5c8bf530d265db3193d17f5e8bed3c2d79bc37a55db99652cf6c193dd729e3e9076bd2598421033c564de158bab0c9d25253434348145d42986068c96084bfb42ab3d0c47196942c50c75e2f1bdc1d07ec363e11472784fbf5e5db4b63ef7c57459083eef172eac6a12793d99eb11465ff448865c354a8f052a7494f2419f738be2ef8f2002126f038d917975effabc598845cd16f2a61e70df5f78ee706a14e1111e000fee29173407d216ea4942d3e450b7653a5cbd7b7f400f65f32eed0741aa8e5720159f0340099e36670b137c071100007e7f7d4303bb1981e976eba5bbdebf125588428d8777bcd17e04b3773d20e1aa12a7aa853e62128a47ae0e0810e0883ebb49ed6f7037cfba6b653fe70d6b2ca52e864c4134e7177f1236b2a3349e1ba538079948a2035506d69e376b9172d6e1f8d0cd2027c8bd105f96fef01870e2aa35a1ea5f5260f188f419228b93daeb281441b00f073747b0b5165449497312a00dbe0c2c5f6406f241bb66646ec218717f01964386739ebf281c69a267fa8af6403c414e105c664d956fb0048b820bc79f7a0e8b8a652cbb500a0628979d27195ab82cbb5bb768039581181032832e1f9ccd94ec2c89ab1da3d21c9e421d6ff87d4eaef1c03501823c917eca1777bc0641ed5d391cc880584fc4e50748bee20e062631be2c200e2bc28e9f113ce5449aa74815c9b7871e7a12d1a4cb7ff50bab33963ae9dfcf1672cac75a7f50a9e86fdb08fa7141a8bf0b1f5d15ed1342daf7624c13acafb495040a46d5a5d158c716c8ee63c4a722f515c5ac969f966fd94e69e8f62fe843e7c37b77c05cf4f0dfd93d60e867570f6e1411a3547a695087aea0e9e9beaac683f5c0f6f04899f3234c5f301d29451787ff3b720e9e5c2296f52b468921df51eb2b6229dcd6460880fd25bb8da8df1503918a843af1c092f89c0b0fb1b5c8896769a7dc72fc5e44b2cab71c0f89c58abde0e8312171d4f8707b942959325d6f47d202a7b591224d17efbd9aa5cbc997b110235fc9dad51818335bb2be84213659767447d5ec0c325f93c09a480023fd560c9c12f33c928fb1774cbfad42f94d7602569c375fb887bcb35e38e81e0217a74d69459ecba9deaaefd8ef3d723cf2f43495b9394fb033ad34477856fab957343443ef6a69a780675cec8d88270514123eda408f17c6311c2ccf77792b3040e118aafb9aeca88b89d03b3bf6db0d11935648ff8fb6b7019c7694a84986332484b71a39c5c0970a60ad8f68059c7aa68000000",
  "txid": "c233f977bd1d5a467b5d75ed840d8ba9440c2e03941bd2904f9e0ff79d288075",
  "hash": "5a93117f1c5c79f68a81a16be95d1421132f28b34b71865033b916ce7ef8c74b",
  "size": 5085,
  "vsize": 2278,
  "version": 1,
  "locktime": 104,
  "vin": [
    {
      "txid": "f02bcc364a6d57102a9aece52951e37538469e11eb0bf30bbfeff1def1fd79f7",
      "vout": 1,
      "scriptSig": {
        "asm": "",
        "hex": ""
      },
      "txinwitness": [
        "645cbe10df4f1532ab76db95e4db1954ebd3e5ab0651e94d2d29e640a88de0f9e22c3b993692804aec18b27a969242878a36136517dab542134df2d69ab93f762f38f5b1857823829f901fdeafd05b9cb121cd119e9aa5e0ab4421cde913f59b867742852bc916d45093820c8459ec403e5db8103beb2d00d730adc79cf85d7f93fdb6da4610c38e7d4ca88b96cfb03109ef3b90eec732efed36e68a3266715ff6cffce57c7aeca099c2a1cb2a4bbab8fd34436f9c1ad64b660983bcc97b32743d3b1e94a3e57314240a40d3587a270e81307fe35efb2fc973fbb90f57ce7c55a91fd76fc8599c034947cd3691a5ecaca84114c9caa4c533ff3c1c5645380abe2147bc1749c1c2a92e50193d387c2ca27363919f9a1bfe739ae1acf459e59b091cbc7e14a6dd2d252293e351fd057ca36f6f6cdd45847b79fe08d41bed716499c65d513e8468efbf4ec7020a481a4e316b2b0d3d2e79fc0f2052d0bb19b88812333f9054cfc069c4a4b930b9f9d62d85206b10e2721c622e7f1003aa3ac64c64f32d57a1131e5a9a80b0a843efde1e65ecbff23533ad797fec9fa0357850181049bab3dc17fc2acd3daf6b445863722ba9c04b47bcf89625a91ebc5331b73ff9adc5735d832370b679455f96d72984e6fa1f7fc5cfb7abf54382ed6215b0ba8ad0b1c880ad99464261439be1780a5c3c90bd46e22c5a436b97eb7a6925374c155ed7fdc3625332155cb4fa0d88f72d3e5364be4c619956ca8ad13ec8e28433930ad9dd6fb3b87097609cb1e46cd28c4114842e8e79c13dda23b32b41a86e1dc0dae51bc7582bc65e8083e31c25038ccc29a4cc04efd1198af48b313517ca09778a18ab5ee6f51e35ce163ba6a5dabc6eb5f67bf48402e637aae44ca1b3585e75bd8952fc7f940bae22f7ec08d27391a51a58e2cb7976061a13fcee1fc1aeede4d79527168d9f0bc80978d4c625df0dc53e7bf60465d0cde90ec282726caeeb417e602cb3b9c6d948e874aa0bd9c048700cd590000d409d0025a5151b72f3fa446597390e2a41d6a03306dc28302defba6171888b9e858384e2ec5c02f7710d1c692e07373dc7e0de9ed34b581b215e5b1bf05f716816001a916c51b6bdb847e082fc5dd950ebd6ef452b3da4a65c9b364a6d09226bbe25969706c5704493fe3c3413bf265d9f87e329bce2a8ac967fc1c7f3b212a0ba052a67dbf481ada6d19589aab4b04507775319fb2fc2ad9dd210bac8f5a94355fe9343c50d4b19ecd66b4b72e99cb276113665e55f6437a3e26a4a376c79e4f24d5b185c5cb1a74e95152edec0a4eea0b97c7156a662da9be959b6604c66beabafe1b9abfb33f71bd88d175dbc05868d31b22fd7661c5980861e8cecea46bff1bf4b877e7ce6f8446f313336b760ff2046e2f945eb0d69ca3111bc554a513edf866c5811b0a51b27f32504a1ec34c4206d64abd826e0e7014f0214cd62d57cd7245d43c23b109f635876bc326560788b98820d5d75b30951dff1d9cc691824cdd00baf5364fac4c68c8ee94eabb5fe9ac2038f26947980ce0ae6a1fd7582b56c84e578f3e8692018ecb1f462abeb534361f96547e5f98a74e529aed1ffcf80963b750c2708f7025cc0bb42fec42be386ea02e6a35e1e1a435fb0fa999147a62f460b27c8df1ccf438f20aafe734904747b928e938348d19c607ae0ee6ea7efe4c2d7e656e9576af79f9c1180beee685144cc188bdcd590055097047312a0bcbe60164213e24d4afb443249ff6243318f4ab8aefc2c38c49f6d9b0d31da304f1213f93d8d0fd6e84dc22164854fd5b9b72b3d958c32e6307c90d98b1adfb265c6473b927f36e44169b9ed167e90af9971dab3aede44c05394bb492f804116cb182200cd937dbae61e74830cf396f2b037fb9431f8dc4238d4ebade0d820837b922da25e465f40cc9796aea77be61ff47ea22b64dedf924f03e3bce2f1789265d43f7627777557f8a269dd5f6e2237f14d3ae7bfb749aa3b45143e470d99cc1fb624681454f67718ad497b2eacc2c54af37a238b09ef0cf2c94e11e90793546aaa5a02c916417a6ad9d271468ed17c4a776a174792c68e50db82d62519db24503889bf74e4e60a9fd937efd948d0f84079b75c6575aa58d768c6381ac95dffebdd3ece05ca803ef37efc02eb55f3afb89f9ae1d05c2cb3a7d1f42f1400200138fd6d448122c17f894d8acb644a14679c05c71b118d583f7ec92af253bea90afed5b7cd1a7f7e68b828c8629c279dcb14943479d1b7be4dbc3a0ddf4761fdc3dbc4e8f072baf620181518577b75a4e2abf065768b023d95a4e2a067d24a6e3cd93c29f1e9db4ea90d9a6c6988d1863d094ed4f54f8d6372b876773b939a34d281aa6e4df9b7381d5897acf48b41294827bf45d008fa181d346512d91e3cca70fbc759bb806bb46d36689cc0fd5b94f96e45990c1c6b164045f058c5553d8bc27bfa671fbdd8a05369c1536598ec79ecdc297cb3e58aa58f8a8240a0472612276ff83695431be856ad1112e340f83d9e85cd188b520d862b6569ebcd51b22ece6f0c1dac0528cd47c068797bf84a1e2b5dd223a28c832dd1914cdbffcbdb54da0aa301e9256424a4fca6e66b2c5c2ef20662d59769f82a37a595f9c08191a954b597451c2f98d01f8ccf1bc648982559749261eeaac5ef334b5599afab7ada61647d7309010fefbe48a6ec5652ab1ec24afc9929f531ba15f6a8a6f9d81054a1a521f7858444729e88dc2db21a2568b8fc409c5be205cfd2eb00513512466d66d9260437a97d43e8ca4fa9c6bc3db6da01d3c6231c9e4f5d894783bb7ff2347a109b096e961974f80e6e287e9f02847b5048449dfd6416128addc11b477c4668c748ef03680f1692cae93176b7a7ee7c6132af9631c792380ecb68e6b25a10c4a6d31984b331ceabe284de13f0ae0dd4c9943c499283d1f675ea3c29f50765accc50c58eeec5ffdecc73d09ea77cb33dc7ee2786091b7013696c5f48a101698d19ba443b445f542a78491be44bc0261f50f5fead06ec111147a99fefe12215f06c01bb76497e41d3a36e4fa300230ee73a8190cf8f745c417c491155c80f203d7237f42fe654c27a20adcc61306724c79a31b9d8875d6fb4a83fd314ea72987edeab4eeaac565b225e43144ae7d1574e21c0489640da5e4e6070f74ae85dab5acab21a7d6df4896da01c02b155dd5db8089d5189f01cecb802a5ab3f290770d00b55e7ec87a8566bfda13d927ce23202daa92bc37143a2d74bb03116933036e36268b0408150e1718243fd8b000e1536447c878894b6c3cae2f3010216232d33494d4e4f557274899397a5c6d9f3f6fc0624353c7283969ba8b5c2edf30a143547535c5e6f7c88929b9da8bdc0c9cacbe800000000000000000000000e24314501",
        "00862084abbcddac105b69345d25d8d16c126247556f56da2dc8edf9e0a242b6f9d323f031919fbc6af77fece3c9d2ad866d8c8341ce1697bd2b416a016959ba5559fbe6736b0daa12d54ea0704c7cf1b12a7dd832c41ff463a481ce2eedc2f61a2873e12c1c877bb54f128f34f704e4e926d0576dee4d06df7b250f1467731e7c31406aff4475468c0de91a5034e9bfd02ba41b258231c912fbb8376881ae9a5eab76a6a4c537190566ae5d8c3dec55f2461840d2551f4837af9fc7ee8174f30727cbdedebbc900bb7efb1c5a756db4631101cfc312258a96a4f3b589b463974e50cddd40faa58e57dde80d1476704b62bfc9a0505df32b9e1ebbb0a4f6d224fe7c9e29c64459f846ad6a3cc6affbdbd7c29fb816c06929db24b611966fe4ad576e3a06640f4c87f83dcb30f7e8d57434a74c2182b13712e7f05167a4e8398724a3c7842170c58fed250ea17fb625358c508552b1e86dfc8bf16387502aa0dfc6d2bfdbbe4759a9bdbf13c169e36725f04edbdc2eeecefafd77f46574c05dfa52a41f6c7e6ae1a54b2533e42c11ebf20841afe473cffdab5c8bf530d265db3193d17f5e8bed3c2d79bc37a55db99652cf6c193dd729e3e9076bd2598421033c564de158bab0c9d25253434348145d42986068c96084bfb42ab3d0c47196942c50c75e2f1bdc1d07ec363e11472784fbf5e5db4b63ef7c57459083eef172eac6a12793d99eb11465ff448865c354a8f052a7494f2419f738be2ef8f2002126f038d917975effabc598845cd16f2a61e70df5f78ee706a14e1111e000fee29173407d216ea4942d3e450b7653a5cbd7b7f400f65f32eed0741aa8e5720159f0340099e36670b137c071100007e7f7d4303bb1981e976eba5bbdebf125588428d8777bcd17e04b3773d20e1aa12a7aa853e62128a47ae0e0810e0883ebb49ed6f7037cfba6b653fe70d6b2ca52e864c4134e7177f1236b2a3349e1ba538079948a2035506d69e376b9172d6e1f8d0cd2027c8bd105f96fef01870e2aa35a1ea5f5260f188f419228b93daeb281441b00f073747b0b5165449497312a00dbe0c2c5f6406f241bb66646ec218717f01964386739ebf281c69a267fa8af6403c414e105c664d956fb0048b820bc79f7a0e8b8a652cbb500a0628979d27195ab82cbb5bb768039581181032832e1f9ccd94ec2c89ab1da3d21c9e421d6ff87d4eaef1c03501823c917eca1777bc0641ed5d391cc880584fc4e50748bee20e062631be2c200e2bc28e9f113ce5449aa74815c9b7871e7a12d1a4cb7ff50bab33963ae9dfcf1672cac75a7f50a9e86fdb08fa7141a8bf0b1f5d15ed1342daf7624c13acafb495040a46d5a5d158c716c8ee63c4a722f515c5ac969f966fd94e69e8f62fe843e7c37b77c05cf4f0dfd93d60e867570f6e1411a3547a695087aea0e9e9beaac683f5c0f6f04899f3234c5f301d29451787ff3b720e9e5c2296f52b468921df51eb2b6229dcd6460880fd25bb8da8df1503918a843af1c092f89c0b0fb1b5c8896769a7dc72fc5e44b2cab71c0f89c58abde0e8312171d4f8707b942959325d6f47d202a7b591224d17efbd9aa5cbc997b110235fc9dad51818335bb2be84213659767447d5ec0c325f93c09a480023fd560c9c12f33c928fb1774cbfad42f94d7602569c375fb887bcb35e38e81e0217a74d69459ecba9deaaefd8ef3d723cf2f43495b9394fb033ad34477856fab957343443ef6a69a780675cec8d88270514123eda408f17c6311c2ccf77792b3040e118aafb9aeca88b89d03b3bf6db0d11935648ff8fb6b7019c7694a84986332484b71a39c5c0970a60ad8f68059c7aa"
      ],
      "sequence": 4294967294
    }
  ],
  "vout": [
    {
      "value": 499996.9493,
      "n": 0,
      "scriptPubKey": {
        "asm": "1 aac4c8665359ed08f2ba69922b088dd7b4d8bbe4b5e4754ad59aba5e30a7ffb4",
        "hex": "5120aac4c8665359ed08f2ba69922b088dd7b4d8bbe4b5e4754ad59aba5e30a7ffb4",
        "reqSigs": 1,
        "type": "witness_v1_scripthash",
        "addresses": [
          "3QJmnh"
        ]
      }
    },
    {
      "value": 1.0,
      "n": 1,
      "scriptPubKey": {
        "asm": "OP_RETURN 7eccf63dc2095176bc3573eec4ffe77a747b229e1b5808d709069a3f4f7abfa9 37f440565c1bb935037185696d9da12cfc3f2ae9f2ad77b7ee3bc1b4ffeb93e517d460767c3b99152351a5494dbd810cdc1f0ac9d28d5797ce1be194dfcbb3c577b400161c5bf9754331c5292ddde16cbc7f6aa9b2ed37f7ae7b81f4bfabd3a5579420363c7bd9556311e5090dfdc14c9c5f4a8992cd17d78e5ba1d49f8bf385b774c0d6dc9b39b583f105e9ed1d21ac7cbfaa69722df7376ebb41347f6b13659754e0f6fcbb1995a3d125c9cd3d018c5c9f8a49520dd7174e9b61145f4b3345f73480969cdb79f5c3b145a9ad5d61ec3cffea29326db7772efb01743f2b5325d714a0b6bcfb59d5e39165898d7d41cc1cdfca09124d97570edb21541f0b730537f440565c1bb935037185696d9da12cfc3f2ae9f2ad77b7ee3bc1b4ffeb93e517d460767c3b99152351a5494dbd810cdc1f0ac9d28d5797ce1be194dfcbb3c577b400161c5bf9754331c5292ddde16cbc7f6aa9b2ed37f7ae7b81f4bfabd3a5579420363c7bd9556311e5090dfdc14c9c5f4a8992cd17d78e5ba1d49f8bf385b774c0d6dc9b39b583f105e9ed1d21ac7cbfaa69722df7376ebb41347f6b13659754e0f6fcbb1995a3d125c9cd3d018c5c9f8a49520dd7174e9b61145f4b3345f73480969cdb79f5c3b145a9ad5d61ec3cffea29326db7772efb01743f2b5325d714a0b6bcfb59d5e39165898d7d41cc1cdfca09124d97570edb21541f0b730537f440565c1bb935037185696d9da12cfc3f2ae9f2ad77b7ee3bc1b4ffeb93e517d460767c3b99152351a5494dbd810cdc1f0ac9d28d5797ce1be194dfcbb3c577b400161c5bf9754331c5292ddde16cbc7f6aa9b2ed37f7ae7b81f4bfabd3a5579420363c7bd9556311e5090dfdc14c9c5f4a8992cd17d78e5ba1d49f8bf385b774c0d6dc9b39b583f105e9ed1d21ac7cbfaa69722df7376ebb41347f6b13659754e0f6fcbb1995a3d125c9cd3d018c5c9f8a49520dd7174e9b61145f4b3345f73480969cdb79f5c3b145a9ad5d61ec3cffea29326db7772efb01743f2b5325d714a0b6bcfb59d5e39165898d7d41cc1cdfca09124d97570edb21541f0b730537f440565c1bb935037185696d9da12cfc3f2ae9f2ad77b7ee3bc1b4ffeb93e517d460767c3b99152351a5494dbd810cdc1f0ac9d28d5797ce1be194dfcbb3c577b400161c5bf9754331c5292ddde16cbc7f6aa9b2ed37f7ae7b81f4bfabd3a5579420363c7bd9556311e5090dfdc14c9c5f4a8992cd17d78e5ba1d49f8bf385b774c0d6dc9b39b583f105e9ed1d21ac7cbfaa69722df7376ebb41347f6b13659754e0f6fcbb1995a3d125c9cd3d018c5c9f8a49520dd7174e9b61145f4b3345f73480969cdb79f5c3b145a9ad5d61ec3cffea29326db7772efb01743f2b5325d714a0b6bcfb59d5e39165898d7d41cc1cdfca09124d97570edb21541f0b730537f440565c1bb935037185696d9da12cfc3f2ae9f2ad77b7ee3bc1b4ffeb93e517d460767c3b99152351a5494dbd810cdc1f0ac9d28d5797ce1be194dfcbb3c577b400161c5bf9754331c5292ddde16cbc7f6aa9b2ed37f7ae7b81f4bfabd3a5579420363c7bd9556311e5090dfdc14c9c5f4a8992cd17d78e5ba1d49f8bf385b774c0d6dc9b39b583f105e9ed1d21ac5dfacabd5aa546b36355161b6a1f64ba9a74dea800dc36a878ae184016a085ce",
        "hex": "6a207eccf63dc2095176bc3573eec4ffe77a747b229e1b5808d709069a3f4f7abfa94db00437f440565c1bb935037185696d9da12cfc3f2ae9f2ad77b7ee3bc1b4ffeb93e517d460767c3b99152351a5494dbd810cdc1f0ac9d28d5797ce1be194dfcbb3c577b400161c5bf9754331c5292ddde16cbc7f6aa9b2ed37f7ae7b81f4bfabd3a5579420363c7bd9556311e5090dfdc14c9c5f4a8992cd17d78e5ba1d49f8bf385b774c0d6dc9b39b583f105e9ed1d21ac7cbfaa69722df7376ebb41347f6b13659754e0f6fcbb1995a3d125c9cd3d018c5c9f8a49520dd7174e9b61145f4b3345f73480969cdb79f5c3b145a9ad5d61ec3cffea29326db7772efb01743f2b5325d714a0b6bcfb59d5e39165898d7d41cc1cdfca09124d97570edb21541f0b730537f440565c1bb935037185696d9da12cfc3f2ae9f2ad77b7ee3bc1b4ffeb93e517d460767c3b99152351a5494dbd810cdc1f0ac9d28d5797ce1be194dfcbb3c577b400161c5bf9754331c5292ddde16cbc7f6aa9b2ed37f7ae7b81f4bfabd3a5579420363c7bd9556311e5090dfdc14c9c5f4a8992cd17d78e5ba1d49f8bf385b774c0d6dc9b39b583f105e9ed1d21ac7cbfaa69722df7376ebb41347f6b13659754e0f6fcbb1995a3d125c9cd3d018c5c9f8a49520dd7174e9b61145f4b3345f73480969cdb79f5c3b145a9ad5d61ec3cffea29326db7772efb01743f2b5325d714a0b6bcfb59d5e39165898d7d41cc1cdfca09124d97570edb21541f0b730537f440565c1bb935037185696d9da12cfc3f2ae9f2ad77b7ee3bc1b4ffeb93e517d460767c3b99152351a5494dbd810cdc1f0ac9d28d5797ce1be194dfcbb3c577b400161c5bf9754331c5292ddde16cbc7f6aa9b2ed37f7ae7b81f4bfabd3a5579420363c7bd9556311e5090dfdc14c9c5f4a8992cd17d78e5ba1d49f8bf385b774c0d6dc9b39b583f105e9ed1d21ac7cbfaa69722df7376ebb41347f6b13659754e0f6fcbb1995a3d125c9cd3d018c5c9f8a49520dd7174e9b61145f4b3345f73480969cdb79f5c3b145a9ad5d61ec3cffea29326db7772efb01743f2b5325d714a0b6bcfb59d5e39165898d7d41cc1cdfca09124d97570edb21541f0b730537f440565c1bb935037185696d9da12cfc3f2ae9f2ad77b7ee3bc1b4ffeb93e517d460767c3b99152351a5494dbd810cdc1f0ac9d28d5797ce1be194dfcbb3c577b400161c5bf9754331c5292ddde16cbc7f6aa9b2ed37f7ae7b81f4bfabd3a5579420363c7bd9556311e5090dfdc14c9c5f4a8992cd17d78e5ba1d49f8bf385b774c0d6dc9b39b583f105e9ed1d21ac7cbfaa69722df7376ebb41347f6b13659754e0f6fcbb1995a3d125c9cd3d018c5c9f8a49520dd7174e9b61145f4b3345f73480969cdb79f5c3b145a9ad5d61ec3cffea29326db7772efb01743f2b5325d714a0b6bcfb59d5e39165898d7d41cc1cdfca09124d97570edb21541f0b730537f440565c1bb935037185696d9da12cfc3f2ae9f2ad77b7ee3bc1b4ffeb93e517d460767c3b99152351a5494dbd810cdc1f0ac9d28d5797ce1be194dfcbb3c577b400161c5bf9754331c5292ddde16cbc7f6aa9b2ed37f7ae7b81f4bfabd3a5579420363c7bd9556311e5090dfdc14c9c5f4a8992cd17d78e5ba1d49f8bf385b774c0d6dc9b39b583f105e9ed1d21ac5dfacabd5aa546b36355161b6a1f64ba9a74dea800dc36a878ae184016a085ce",
        "type": "nulldata"
      }
    }
  ],
  "blockhash": "32a2d379a33ec88ae1cb3a8a1a44f2d12b76aebf574ecf7ac16b289397ed6cd9",
  "confirmations": 1,
  "time": 1764176557,
  "blocktime": 1764176557
}