{
  "hex": "010000000001014bd13af45e4bc1030a5907bb8ea292b3a3bf3e18b2e91484ca0aa9cec23d90510100000000feffffff0200e1f50500000000fdd5046a20d66728336ce67c49253c2f754da6725ab7eff7c7c8c97c383c5eb2ddd732e5d14db004bdf12cf269e8bf1544c5736f66d9a851d5c13734aef9da459ad09666ec6a55489dd10cd249c89f3564e5534f46f98871f5e117148ed9fa65baf0b646cc4a7568fdb16cb229a8ff550485332f2699e81195817774eeb99a05da90d626ac2a1508dd914c920988df7524a5130f06b9c831b5a15754ce99ba25fab0f6068c0a35283d71ac72e9683f95c445f3efe65928d15541b7b42e795ac51a5016e66cead5c81d518c52c9481fb5e465d3cfc67908f1756197940e597ae53a7036c64ccaf5e87d31ec32a9287fd58405b3afa61968911501f7f46e391a855a1056a62caa95885d11cc1289085ff5a425938f863948b13521d7d44e193aa57a3076860c8ab5a8bdf12cf269e8bf1544c5736f66d9a851d5c13734aef9da459ad09666ec6a55489dd10cd249c89f3564e5534f46f98871f5e117148ed9fa65baf0b646cc4a7568fdb16cb229a8ff550485332f2699e81195817774eeb99a05da90d626ac2a1508dd914c920988df7524a5130f06b9c831b5a15754ce99ba25fab0f6068c0a35283d71ac72e9683f95c445f3efe65928d15541b7b42e795ac51a5016e66cead5c81d518c52c9481fb5e465d3cfc67908f1756197940e597ae53a7036c64ccaf5e87d31ec32a9287fd58405b3afa61968911501f7f46e391a855a1056a62caa95885d11cc1289085ff5a425938f863948b13521d7d44e193aa57a3076860c8ab5a8bdf12cf269e8bf1544c5736f66d9a851d5c13734aef9da459ad09666ec6a55489dd10cd249c89f3564e5534f46f98871f5e117148ed9fa65baf0b646cc4a7568fdb16cb229a8ff550485332f2699e81195817774eeb99a05da90d626ac2a1508dd914c920988df7524a5130f06b9c831b5a15754ce99ba25fab0f6068c0a35283d71ac72e9683f95c445f3efe65928d15541b7b42e795ac51a5016e66cead5c81d518c52c9481fb5e465d3cfc67908f1756197940e597ae53a7036c64ccaf5e87d31ec32a9287fd58405b3afa61968911501f7f46e391a855a1056a62caa95885d11cc1289085ff5a425938f863948b13521d7d44e193aa57a3076860c8ab5a8bdf12cf269e8bf1544c5736f66d9a851d5c13734aef9da459ad09666ec6a55489dd10cd249c89f3564e5534f46f98871f5e117148ed9fa65baf0b646cc4a7568fdb16cb229a8ff550485332f2699e81195817774eeb99a05da90d626ac2a1508dd914c920988df7524a5130f06b9c831b5a15754ce99ba25fab0f6068c0a35283d71ac72e9683f95c445f3efe65928d15541b7b42e795ac51a5016e66cead5c81d518c52c9481fb5e465d3cfc67908f1756197940e597ae53a7036c64ccaf5e87d31ec32a9287fd58405b3afa61968911501f7f46e391a855a1056a62caa95885d11cc1289085ff5a425938f863948b13521d7d44e193aa57a3076860c8ab5a8bdf12cf269e8bf1544c5736f66d9a851d5c13734aef9da459ad09666ec6a55489dd10cd249c89f3564e5534f46f98871f5e117148ed9fa65baf0b646cc4a7568fdb16cb229a8ff550485332f2699e81195817774eeb99a05da90d626ac2a1508dd914c920988df7524a5130f06b9c831b5a15754ce99ba25fab0f6068c0a35283d71ac72e9683f95c445f3efe65928d14e91b3d408b0f688469721aad21bcc64fe905a91098d4ac955e7bbe2adbbd8238022c5f6782d0000225120cf10464b9cba2748e07a75bd8eae81ac528af624c182e5ed7a6bcdbe96a65dff02fd7509e4dcd7c4dea3c053370a6f4eaeb093c69afbf95f4079b29b36cdb087d8bde1ebddaea3281c74258aa64b556b6187b4f51f6b4dbae1a9063cca43d5fb23fcfbcedf9ef2d5ba8c52ed7f6734a1502835848e6233c3b7f3dccf2a6f5481fcab30c72b8fa1a9cf607c29f5ef155f7c9ba38e2f63a5ddc3ffc14a4b9572bb3f6acc7341f9395f4aa5e3d59dc2e708f7c289ac16db946524f0db8877d5f48ab3443a7a287cae1ee9df0d106285ac3c0427e994a7367dabde2d07925995aa8f28735f142fbcb5ddd2ca72ac75947ac6f744f2f5734010e580a78fcd319a3d4b79c73c48b57ef45adfa72e1c446655bbcbe0b19d592a7a474fef13f8dabb033e91e8ddf83a2118fff96373e9b2e7e8f3b9e87d956e49f13497eecdbb77d238399668e606810fd906317e5e79cd07534108c4198fb3d3b3d624de125f387a6dd6c1186fafa263a450fbe0280e56c168dd2df450a1f0bbfee5c40807a27a3b2d534b999e124b08270b58d8ed6be5f4a62bef80099681c50b19ec6d23e26523d54f1e0a044ed957685d8cf8605ba751a6fc41be60cb97b73dc06e649304851e8a125de4b7a8594ce0777d1e56e21656549141546e30073d84fc720ebe48a2576dcaa1af1c27eaa6c12f9e85af9259287bc9626e9075a5b01e28ffea7ad951c02f01db93b56c2dbe9b9412d5c4af2560b3ad558a45af02059750109f2fa5ec0f4fa52ef4c25a175006be5dce23dee4ca2336d76e77310bc8f0f87953a1805b62e97ae63d006568373329d41c2fff8d7a44a1cbf31c5bc529609e61ef0f84a935ec2a9110c73d625a4461747761656c85d1f5d7542e1a97b21a5a1c1739b2ddfc5c486a7fb9e0c4616eea0aa0a0489f013eff8a69b179be270467066326e0dd25fb692d995e6450f383206d5ffbf050987ccb55ae7c3408aeec3cc2b1885ab2748dde88ec6a5ac5d59e1ff67ae2f6a11ccc8016a328ed22da84f900648a4be070b110130754a381a992411c48bd2839bd150c09e15f01c9f20e4e97f4496cc15af0dc94f524eaa73b1e5406b1028acd78c5443350f68f72e672222f761a5e781f399e446bc3c6364a0fa355c8b092115e1c585ad53c7ad7eb8c63c39878cae9cc716a8561553eeef3bbcc392801cfd12355da6e5ebe9593858b78e505c360a9f24b16ee2c85e96591727acb20f853a27a6c090ecbf990b80e3344cab71edc2aa8820601cf6d980035f221e80ca300679fff8cf377210c9a81dc39bd3bd000b1f2ea573d5ff717978d6b5876a157c90e866559f5dcdb4eebf0626d8acfcd4656de20a488739812054b41f90bf940a3ae3ecf0b6229b34f693ca3389939c232af34930e0b4c4c869f68d7c2937c7e6e1f62546738ccc1e43db0ac149c5f17c4b6ac5c51a714aab0e8634a69848949c1fd663624c139a057b1bbe59293c0691e18c9d0351de7aea3d6323769896a9363f23144f2993611665b57c28fa8a819a2c99701e233ef6794f08dddf26019350dc618915fdc9c7387a89044facc05a08d1af0f2f32de41bdb6a3e968ee5c5e6c02bc510a3aef43faaccc8131f973d9b63568edefcb3ca94fb4b05132819c176a60360a38a0ee1e3448cd5bfcb16135fb2a058a859c4ec3bccbc435b46c109b95f20dcca883f0b8680c50898dc2651c752c50557803fcc0f343a44099a8e71e9d323e0feb9421b6af24f673d796399bc09d9177e53f34cbf2f4ffb01395299d8000782f850dcad081a2538ed8d7a6cbf72a8ba6b22c86b35421522f66b100a4c46c49445a1aca61d4a165e68426de8d1b48de949676fa9cc1d247be99cd447de7e208ec7560136dc5f621f8feecc7deed9e8a1f3584a99c01c0655ab8016a7cfaeca239e851a3ea6ef7f3f921433582462dc76112428eb06abe1f383e6fb36d5f5ef2c2386d8e8e9a9ec52a86f264aec12f5f7349ef6fd5c04bf9b6c9fd5905c1d56f00a2fb36ad37afdbc67b8caa007f22979e820642531901b861d5b7d8c64e178a4f1d7bc6852c77098159cdb2511767389126318bc9bad816866365d42e41def37575779c6e7443c5ee04439f4e38a9a7213f3a8ee4327da5fe1be3dc5b99d5b7fa391033c662d0175afc20789cae7ccb52f1263f115b72efdc866ee4a563a8481e9c92a71df208ac553463739c72e49a3eadd379b06483956a807699d1d34dee636423ed58770f93582417ae8738e9f80b2702056fd9c46867add87bac2a6014bf0988ec2acb2ec571ce4c72d9a5b0638b009704fe9349a8b087a47e8ff0abdf1c6f38eee092ccc556a4753d900b9fe2cd238859f42e89453036537ac7832d45ab50fc589f84ad195290d3adea6426c84a7a84056afb2edc982ec9bdc6e45dbec2066f6183dda24e49e7dae18c57107b55ff2f9eef6b65ec55f12f2ce58a72b0d49497e675d9d96cc9047e7836f6e062407925bbe7ccddc3f8322d451f495fbd082244e203e3b55808dfd0611277bb0b564121d7fdaa96984cad3e7c2d99b0ed34d1a3971557854bf176b554475532ec1b7b97b3ccb9955017871ab456df959bd9525dfac6d29d1cf7c39f549e6a5b7370e3be775d6c6c7b090d32c3968b6a1df9c1d5ae8319db4f98d5642508d8f4f4b6abe90df62e2477bf836278a84c0f50dc73e433ace83ecfd29529d4b5792de370e89d0084f3943e5c6e006080c2886378d02b7564ed04a223f1bf944a0239fa03ed16d680da84c818ab98e5cc17e1e5a38c296b6f01953cc41bd86f36ab4b8b655d61c79cf1713188e81957d14453156221938d25a23e485a48f06f71e99d3dd5bbdfff165455d31a249e5279052c36fe812dca535d72e7dbb4bf28941d2ecc4545654d175d1b26816e3dc61d270f061dae174f156a014f2a6f29ca4d36995202818b64c9b00179b6c1ab66d7757d7250cb48b77015b2254ad5c0b71e787ab67ea79e35ef760636afe2a92e2ad9c0e71e7455ff12ba3bbfbc180e1ac8e55b4fe6467de477e45e4a6e98effa341137cdee7ae6ffceb7adbe411eaab358b39482870356071abd1e90d10ea1182bff2c6f311c63fed885b99f573d702a444822c19ac9edfe529bf169011e8ebd8e6db40bf6c3753b66ee17aa84665773604a06b6eb833fd1c5d4ee84693b295312ca75a9889a6dd936567ecceb85f2e0f1d176475095a216a50f0cae369a6bd8220622f0a756a6a77bf1b76d5fd3db54c7cbc7dd44e3070d8f796a61dc816f999f73edc0b842ec5bd7368f1fe7ec37f9f1e68dae9e42079096bc50426f3b5b7bbbcaffb3a64f41559b1c2cc78271f8b318cde1e625af8b7206fc10f1b1f202140456d8d8e98a2a3b2b8bad7e3f10a1b33415b64787d87acaeb7d2ed042c3a415960777c8f92a4b6c4c7ced3e0ecf8202527304262668c8e98afb4b8bccfd4f300000000000000000000001321344501fd210500e866bf9166500964413643656f8ba9f0d1f9fc2891f68723b87df7fe4e04597ce8963b350fa6fc6849c909a4ef3c2401364a907feb1351c39f91a3af60f5d83767624291c56a18aa10201cff315f99725e58cabbf685df9e8b18a765fd0a6150e7aeabf2dada4def79f8c13a34ea210ae486613616b8c0593388604e730d8e6f98518b57f36d2804120c3c25a67d93d0df4f2b0b8d37807c95664fa9c0c9a5d2709cf6ab660de0a3b68a6f697ecbb5812eca4cbe70d223cc7e9ad9485d419b6ac66c51f66874493771fa20f2c3c7643a16ba401d00592bc3e1f0522b5f9ede0f32f9b8d7151356f850c682f3c70c51adb41223d7fc5828b4c1b43dd41a4873faa89d22906e0b2c534c6a07d0bde9a082c134f97925625ba8b28beb862467f03367b783505aec461fb9bd5a3171f20f9446ad2e448794d07315247285c8e7028b16eff41ab34e2e0246ed24ba88abeb79f05621d6caae3c342592cb8591dbbe09f38c0cf82c48e003c542e28c356a2aff1c7c92f38b322e249afba84fca5627648e95e40155ceabeb7acc474951d972b593f711e1321565ce726bdc467d6980ddc4aa351b6469fa083f626c355270d2c2df57cc11b282fc0af1e9d809abdbfaf8758f6284aa22ed6bc2da079b1e65ced4e9474ac190bc31b5c212208c10a02c6fca80e82c7281675b0b83f2a294993bf53a8b35734c76d8aafe6b440df4452601625dc647a0e5eaac83b1569755bfd1b7dd0d21bf36e6ccef6d94b4b7ca3e9a2297fc5a17beb3d94923cac9b67ea1ae694c02edeb3830cd03fb525e30865f4dd58ba654420fabfc8e382178705ec729f95464faddd3845a14f6cda50eb0f311161982a0ef59cad89d05b9925b9f42f0434e16694823117c97fa2bef9d318ba7bbcbcdc844d23d2390c43a210be7215ed3787c9db3de65984bfe66addfb53870c12d705617f2819c842c740dd2abf5e8b04690e6cb9aad2d95f96a4ccd37e9d8d1fa8d598cc0a1b2b6ded61d3a56cf33ab451eb437eaf267c83d6bfa39df6aa8ad83fc82fa9bd918d99b62bcb2e7158663820f230b8e152230c3e6926665f537308fac7263d0330cc564ca29398a728a7c0b15b0de4890e1d74d42d21cac4fa51a3246d1c9e128ad97d4b8621a2ac45c4bfb9b590bd7e1a9c1e45a1f957600ca38f07813d3a291dee710cd9eecc509a8e902d25311571ce6962d36c943fdc6adf0c8347b7b6e09aed1fef520f849ea36b69d033b912c9d2984e97e3f4590399031248fce90c51f512eef5fd2ad63fe84075e27356268e4deab77c92db645cad08e6d24074fee55a5a714ecc24fed8b2cd2ddbef0b7978c95e9a667c16ce859aacf6ff5951bd593d483a6f33a142e2c190bcb7357aeeab5f8e4a1b519b88b480e19ae4262a10fdd573bc1b5bf2d9241c6c224576ace5529c592d99e3575cb1b5665ec9401d089555de87444aa1157e328eea56c16efa57a66ceecbfe9165bbf4c3fc1877aa62cd592ca9b5908632672863b7639e3167026faf4c13759ccd5ddc8d106decbf6e4ea309d7f7b634a1438ce7895873f8871bba3b373aad969251b20788704c085bb45d55c4a66b45920f5c15d75eb2e4c3dc7ada40cd66ffa966f6636b49a5299021aca5b0b41987c9bbe4c46952a90b021ae24bc30d3424eb447d1c5e34b9e3aaa791e9f88699d5ae43d7cb2df199d679d226d37e60a0b45a9b319630ea4a82f9b7a07e550af78fad906a9ea05dd908b7855efedc7af8efe74f18016abd72b7904abbb467d4b5fcf1daec5d29280281a16f105d3af3ca36a81db8df4319ee2126ff6e3774c93231ed23eafdfe5f7b4294b814ce554e1a97a173d29dc7a000000",
  "txid": "c22eb7cda66e5db5dbca7c33aa2e6f56fac16ac8b8e1469a52de76c57efa6d5d",
  "hash": "eed33f399f6904c30e7aa85ea6fc8d4ff270a8d46358b4bae3fa176c7043601c",
  "size": 5085,
  "vsize": 2278,
  "version": 1,
  "locktime": 122,
  "vin": [
    {
      "txid": "51903dc2cea90aca8414e9b2183ebfa3b392a28ebb07590a03c14b5ef43ad14b",
      "vout": 1,
      "scriptSig": {
        "asm": "",
        "hex": ""
      },
      "txinwitness": [
        "e4dcd7c4dea3c053370a6f4eaeb093c69afbf95f4079b29b36cdb087d8bde1ebddaea3281c74258aa64b556b6187b4f51f6b4dbae1a9063cca43d5fb23fcfbcedf9ef2d5ba8c52ed7f6734a1502835848e6233c3b7f3dccf2a6f5481fcab30c72b8fa1a9cf607c29f5ef155f7c9ba38e2f63a5ddc3ffc14a4b9572bb3f6acc7341f9395f4aa5e3d59dc2e708f7c289ac16db946524f0db8877d5f48ab3443a7a287cae1ee9df0d106285ac3c0427e994a7367dabde2d07925995aa8f28735f142fbcb5ddd2ca72ac75947ac6f744f2f5734010e580a78fcd319a3d4b79c73c48b57ef45adfa72e1c446655bbcbe0b19d592a7a474fef13f8dabb033e91e8ddf83a2118fff96373e9b2e7e8f3b9e87d956e49f13497eecdbb77d238399668e606810fd906317e5e79cd07534108c4198fb3d3b3d624de125f387a6dd6c1186fafa263a450fbe0280e56c168dd2df450a1f0bbfee5c40807a27a3b2d534b999e124b08270b58d8ed6be5f4a62bef80099681c50b19ec6d23e26523d54f1e0a044ed957685d8cf8605ba751a6fc41be60cb97b73dc06e649304851e8a125de4b7a8594ce0777d1e56e21656549141546e30073d84fc720ebe48a2576dcaa1af1c27eaa6c12f9e85af9259287bc9626e9075a5b01e28ffea7ad951c02f01db93b56c2dbe9b9412d5c4af2560b3ad558a45af02059750109f2fa5ec0f4fa52ef4c25a175006be5dce23dee4ca2336d76e77310bc8f0f87953a1805b62e97ae63d006568373329d41c2fff8d7a44a1cbf31c5bc529609e61ef0f84a935ec2a9110c73d625a4461747761656c85d1f5d7542e1a97b21a5a1c1739b2ddfc5c486a7fb9e0c4616eea0aa0a0489f013eff8a69b179be270467066326e0dd25fb692d995e6450f383206d5ffbf050987ccb55ae7c3408aeec3cc2b1885ab2748dde88ec6a5ac5d59e1ff67ae2f6a11ccc8016a328ed22da84f900648a4be070b110130754a381a992411c48bd2839bd150c09e15f01c9f20e4e97f4496cc15af0dc94f524eaa73b1e5406b1028acd78c5443350f68f72e672222f761a5e781f399e446bc3c6364a0fa355c8b092115e1c585ad53c7ad7eb8c63c39878cae9cc716a8561553eeef3bbcc392801cfd12355da6e5ebe9593858b78e505c360a9f24b16ee2c85e96591727acb20f853a27a6c090ecbf990b80e3344cab71edc2aa8820601cf6d980035f221e80ca300679fff8cf377210c9a81dc39bd3bd000b1f2ea573d5ff717978d6b5876a157c90e866559f5dcdb4eebf0626d8acfcd4656de20a488739812054b41f90bf940a3ae3ecf0b6229b34f693ca3389939c232af34930e0b4c4c869f68d7c2937c7e6e1f62546738ccc1e43db0ac149c5f17c4b6ac5c51a714aab0e8634a69848949c1fd663624c139a057b1bbe59293c0691e18c9d0351de7aea3d6323769896a9363f23144f2993611665b57c28fa8a819a2c99701e233ef6794f08dddf26019350dc618915fdc9c7387a89044facc05a08d1af0f2f32de41bdb6a3e968ee5c5e6c02bc510a3aef43faaccc8131f973d9b63568edefcb3ca94fb4b05132819c176a60360a38a0ee1e3448cd5bfcb16135fb2a058a859c4ec3bccbc435b46c109b95f20dcca883f0b8680c50898dc2651c752c50557803fcc0f343a44099a8e71e9d323e0feb9421b6af24f673d796399bc09d9177e53f34cbf2f4ffb01395299d8000782f850dcad081a2538ed8d7a6cbf72a8ba6b22c86b35421522f66b100a4c46c49445a1aca61d4a165e68426de8d1b48de949676fa9cc1d247be99cd447de7e208ec7560136dc5f621f8feecc7deed9e8a1f3584a99c01c0655ab8016a7cfaeca239e851a3ea6ef7f3f921433582462dc76112428eb06abe1f383e6fb36d5f5ef2c2386d8e8e9a9ec52a86f264aec12f5f7349ef6fd5c04bf9b6c9fd5905c1d56f00a2fb36ad37afdbc67b8caa007f22979e820642531901b861d5b7d8c64e178a4f1d7bc6852c77098159cdb2511767389126318bc9bad816866365d42e41def37575779c6e7443c5ee04439f4e38a9a7213f3a8ee4327da5fe1be3dc5b99d5b7fa391033c662d0175afc20789cae7ccb52f1263f115b72efdc866ee4a563a8481e9c92a71df208ac553463739c72e49a3eadd379b06483956a807699d1d34dee636423ed58770f93582417ae8738e9f80b2702056fd9c46867add87bac2a6014bf0988ec2acb2ec571ce4c72d9a5b0638b009704fe9349a8b087a47e8ff0abdf1c6f38eee092ccc556a4753d900b9fe2cd238859f42e89453036537ac7832d45ab50fc589f84ad195290d3adea6426c84a7a84056afb2edc982ec9bdc6e45dbec2066f6183dda24e49e7dae18c57107b55ff2f9eef6b65ec55f12f2ce58a72b0d49497e675d9d96cc9047e7836f6e062407925bbe7ccddc3f8322d451f495fbd082244e203e3b55808dfd0611277bb0b564121d7fdaa96984cad3e7c2d99b0ed34d1a3971557854bf176b554475532ec1b7b97b3ccb9955017871ab456df959bd9525dfac6d29d1cf7c39f549e6a5b7370e3be775d6c6c7b090d32c3968b6a1df9c1d5ae8319db4f98d5642508d8f4f4b6abe90df62e2477bf836278a84c0f50dc73e433ace83ecfd29529d4b5792de370e89d0084f3943e5c6e006080c2886378d02b7564ed04a223f1bf944a0239fa03ed16d680da84c818ab98e5cc17e1e5a38c296b6f01953cc41bd86f36ab4b8b655d61c79cf1713188e81957d14453156221938d25a23e485a48f06f71e99d3dd5bbdfff165455d31a249e5279052c36fe812dca535d72e7dbb4bf28941d2ecc4545654d175d1b26816e3dc61d270f061dae174f156a014f2a6f29ca4d36995202818b64c9b00179b6c1ab66d7757d7250cb48b77015b2254ad5c0b71e787ab67ea79e35ef760636afe2a92e2ad9c0e71e7455ff12ba3bbfbc180e1ac8e55b4fe6467de477e45e4a6e98effa341137cdee7ae6ffceb7adbe411eaab358b39482870356071abd1e90d10ea1182bff2c6f311c63fed885b99f573d702a444822c19ac9edfe529bf169011e8ebd8e6db40bf6c3753b66ee17aa84665773604a06b6eb833fd1c5d4ee84693b295312ca75a9889a6dd936567ecceb85f2e0f1d176475095a216a50f0cae369a6bd8220622f0a756a6a77bf1b76d5fd3db54c7cbc7dd44e3070d8f796a61dc816f999f73edc0b842ec5bd7368f1fe7ec37f9f1e68dae9e42079096bc50426f3b5b7bbbcaffb3a64f41559b1c2cc78271f8b318cde1e625af8b7206fc10f1b1f202140456d8d8e98a2a3b2b8bad7e3f10a1b33415b64787d87acaeb7d2ed042c3a415960777c8f92a4b6c4c7ced3e0ecf8202527304262668c8e98afb4b8bccfd4f300000000000000000000001321344501",
        "00e866bf9166500964413643656f8ba9f0d1f9fc2891f68723b87df7fe4e04597ce8963b350fa6fc6849c909a4ef3c2401364a907feb1351c39f91a3af60f5d83767624291c56a18aa10201cff315f99725e58cabbf685df9e8b18a765fd0a6150e7aeabf2dada4def79f8c13a34ea210ae486613616b8c0593388604e730d8e6f98518b57f36d2804120c3c25a67d93d0df4f2b0b8d37807c95664fa9c0c9a5d2709cf6ab660de0a3b68a6f697ecbb5812eca4cbe70d223cc7e9ad9485d419b6ac66c51f66874493771fa20f2c3c7643a16ba401d00592bc3e1f0522b5f9ede0f32f9b8d7151356f850c682f3c70c51adb41223d7fc5828b4c1b43dd41a4873faa89d22906e0b2c534c6a07d0bde9a082c134f97925625ba8b28beb862467f03367b783505aec461fb9bd5a3171f20f9446ad2e448794d07315247285c8e7028b16eff41ab34e2e0246ed24ba88abeb79f05621d6caae3c342592cb8591dbbe09f38c0cf82c48e003c542e28c356a2aff1c7c92f38b322e249afba84fca5627648e95e40155ceabeb7acc474951d972b593f711e1321565ce726bdc467d6980ddc4aa351b6469fa083f626c355270d2c2df57cc11b282fc0af1e9d809abdbfaf8758f6284aa22ed6bc2da079b1e65ced4e9474ac190bc31b5c212208c10a02c6fca80e82c7281675b0b83f2a294993bf53a8b35734c76d8aafe6b440df4452601625dc647a0e5eaac83b1569755bfd1b7dd0d21bf36e6ccef6d94b4b7ca3e9a2297fc5a17beb3d94923cac9b67ea1ae694c02edeb3830cd03fb525e30865f4dd58ba654420fabfc8e382178705ec729f95464faddd3845a14f6cda50eb0f311161982a0ef59cad89d05b9925b9f42f0434e16694823117c97fa2bef9d318ba7bbcbcdc844d23d2390c43a210be7215ed3787c9db3de65984bfe66addfb53870c12d705617f2819c842c740dd2abf5e8b04690e6cb9aad2d95f96a4ccd37e9d8d1fa8d598cc0a1b2b6ded61d3a56cf33ab451eb437eaf267c83d6bfa39df6aa8ad83fc82fa9bd918d99b62bcb2e7158663820f230b8e152230c3e6926665f537308fac7263d0330cc564ca29398a728a7c0b15b0de4890e1d74d42d21cac4fa51a3246d1c9e128ad97d4b8621a2ac45c4bfb9b590bd7e1a9c1e45a1f957600ca38f07813d3a291dee710cd9eecc509a8e902d25311571ce6962d36c943fdc6adf0c8347b7b6e09aed1fef520f849ea36b69d033b912c9d2984e97e3f4590399031248fce90c51f512eef5fd2ad63fe84075e27356268e4deab77c92db645cad08e6d24074fee55a5a714ecc24fed8b2cd2ddbef0b7978c95e9a667c16ce859aacf6ff5951bd593d483a6f33a142e2c190bcb7357aeeab5f8e4a1b519b88b480e19ae4262a10fdd573bc1b5bf2d9241c6c224576ace5529c592d99e3575cb1b5665ec9401d089555de87444aa1157e328eea56c16efa57a66ceecbfe9165bbf4c3fc1877aa62cd592ca9b5908632672863b7639e3167026faf4c13759ccd5ddc8d106decbf6e4ea309d7f7b634a1438ce7895873f8871bba3b373aad969251b20788704c085bb45d55c4a66b45920f5c15d75eb2e4c3dc7ada40cd66ffa966f6636b49a5299021aca5b0b41987c9bbe4c46952a90b021ae24bc30d3424eb447d1c5e34b9e3aaa791e9f88699d5ae43d7cb2df199d679d226d37e60a0b45a9b319630ea4a82f9b7a07e550af78fad906a9ea05dd908b7855efedc7af8efe74f18016abd72b7904abbb467d4b5fcf1daec5d29280281a16f105d3af3ca36a81db8df4319ee2126ff6e3774c93231ed23eafdfe5f7b4294b814ce554e1a97a173d29dc"
      ],
      "sequence": 4294967294
    }
  ],
  "vout": [
    {
      "value": 1.0,
      "n": 0,
      "scriptPubKey": {
        "asm": "OP_RETURN d66728336ce67c49253c2f754da6725ab7eff7c7c8c97c383c5eb2ddd732e5d1 bdf12cf269e8bf1544c5736f66d9a851d5c13734aef9da459ad09666ec6a55489dd10cd249c89f3564e5534f46f98871f5e117148ed9fa65baf0b646cc4a7568fdb16cb229a8ff550485332f2699e81195817774eeb99a05da90d626ac2a1508dd914c920988df7524a5130f06b9c831b5a15754ce99ba25fab0f6068c0a35283d71ac72e9683f95c445f3efe65928d15541b7b42e795ac51a5016e66cead5c81d518c52c9481fb5e465d3cfc67908f1756197940e597ae53a7036c64ccaf5e87d31ec32a9287fd58405b3afa61968911501f7f46e391a855a1056a62caa95885d11cc1289085ff5a425938f863948b13521d7d44e193aa57a3076860c8ab5a8bdf12cf269e8bf1544c5736f66d9a851d5c13734aef9da459ad09666ec6a55489dd10cd249c89f3564e5534f46f98871f5e117148ed9fa65baf0b646cc4a7568fdb16cb229a8ff550485332f2699e81195817774eeb99a05da90d626ac2a1508dd914c920988df7524a5130f06b9c831b5a15754ce99ba25fab0f6068c0a35283d71ac72e9683f95c445f3efe65928d15541b7b42e795ac51a5016e66cead5c81d518c52c9481fb5e465d3cfc67908f1756197940e597ae53a7036c64ccaf5e87d31ec32a9287fd58405b3afa61968911501f7f46e391a855a1056a62caa95885d11cc1289085ff5a425938f863948b13521d7d44e193aa57a3076860c8ab5a8bdf12cf269e8bf1544c5736f66d9a851d5c13734aef9da459ad09666ec6a55489dd10cd249c89f3564e5534f46f98871f5e117148ed9fa65baf0b646cc4a7568fdb16cb229a8ff550485332f2699e81195817774eeb99a05da90d626ac2a1508dd914c920988df7524a5130f06b9c831b5a15754ce99ba25fab0f6068c0a35283d71ac72e9683f95c445f3efe65928d15541b7b42e795ac51a5016e66cead5c81d518c52c9481fb5e465d3cfc67908f1756197940e597ae53a7036c64ccaf5e87d31ec32a9287fd58405b3afa61968911501f7f46e391a855a1056a62caa95885d11cc1289085ff5a425938f863948b13521d7d44e193aa57a3076860c8ab5a8bdf12cf269e8bf1544c5736f66d9a851d5c13734aef9da459ad09666ec6a55489dd10cd249c89f3564e5534f46f98871f5e117148ed9fa65baf0b646cc4a7568fdb16cb229a8ff550485332f2699e81195817774eeb99a05da90d626ac2a1508dd914c920988df7524a5130f06b9c831b5a15754ce99ba25fab0f6068c0a35283d71ac72e9683f95c445f3efe65928d15541b7b42e795ac51a5016e66cead5c81d518c52c9481fb5e465d3cfc67908f1756197940e597ae53a7036c64ccaf5e87d31ec32a9287fd58405b3afa61968911501f7f46e391a855a1056a62caa95885d11cc1289085ff5a425938f863948b13521d7d44e193aa57a3076860c8ab5a8bdf12cf269e8bf1544c5736f66d9a851d5c13734aef9da459ad09666ec6a55489dd10cd249c89f3564e5534f46f98871f5e117148ed9fa65baf0b646cc4a7568fdb16cb229a8ff550485332f2699e81195817774eeb99a05da90d626ac2a1508dd914c920988df7524a5130f06b9c831b5a15754ce99ba25fab0f6068c0a35283d71ac72e9683f95c445f3efe65928d14e91b3d408b0f688469721aad21bcc64fe905a91098d4ac955e7bbe2adbbd823",
        "hex": "6a20d66728336ce67c49253c2f754da6725ab7eff7c7c8c97c383c5eb2ddd732e5d14db004bdf12cf269e8bf1544c5736f66d9a851d5c13734aef9da459ad09666ec6a55489dd10cd249c89f3564e5534f46f98871f5e117148ed9fa65baf0b646cc4a7568fdb16cb229a8ff550485332f2699e81195817774eeb99a05da90d626ac2a1508dd914c920988df7524a5130f06b9c831b5a15754ce99ba25fab0f6068c0a35283d71ac72e9683f95c445f3efe65928d15541b7b42e795ac51a5016e66cead5c81d518c52c9481fb5e465d3cfc67908f1756197940e597ae53a7036c64ccaf5e87d31ec32a9287fd58405b3afa61968911501f7f46e391a855a1056a62caa95885d11cc1289085ff5a425938f863948b13521d7d44e193aa57a3076860c8ab5a8bdf12cf269e8bf1544c5736f66d9a851d5c13734aef9da459ad09666ec6a55489dd10cd249c89f3564e5534f46f98871f5e117148ed9fa65baf0b646cc4a7568fdb16cb229a8ff550485332f2699e81195817774eeb99a05da90d626ac2a1508dd914c920988df7524a5130f06b9c831b5a15754ce99ba25fab0f6068c0a35283d71ac72e9683f95c445f3efe65928d15541b7b42e795ac51a5016e66cead5c81d518c52c9481fb5e465d3cfc67908f1756197940e597ae53a7036c64ccaf5e87d31ec32a9287fd58405b3afa61968911501f7f46e391a855a1056a62caa95885d11cc1289085ff5a425938f863948b13521d7d44e193aa57a3076860c8ab5a8bdf12cf269e8bf1544c5736f66d9a851d5c13734aef9da459ad09666ec6a55489dd10cd249c89f3564e5534f46f98871f5e117148ed9fa65baf0b646cc4a7568fdb16cb229a8ff550485332f2699e81195817774eeb99a05da90d626ac2a1508dd914c920988df7524a5130f06b9c831b5a15754ce99ba25fab0f6068c0a35283d71ac72e9683f95c445f3efe65928d15541b7b42e795ac51a5016e66cead5c81d518c52c9481fb5e465d3cfc67908f1756197940e597ae53a7036c64ccaf5e87d31ec32a9287fd58405b3afa61968911501f7f46e391a855a1056a62caa95885d11cc1289085ff5a425938f863948b13521d7d44e193aa57a3076860c8ab5a8bdf12cf269e8bf1544c5736f66d9a851d5c13734aef9da459ad09666ec6a55489dd10cd249c89f3564e5534f46f98871f5e117148ed9fa65baf0b646cc4a7568fdb16cb229a8ff550485332f2699e81195817774eeb99a05da90d626ac2a1508dd914c920988df7524a5130f06b9c831b5a15754ce99ba25fab0f6068c0a35283d71ac72e9683f95c445f3efe65928d15541b7b42e795ac51a5016e66cead5c81d518c52c9481fb5e465d3cfc67908f1756197940e597ae53a7036c64ccaf5e87d31ec32a9287fd58405b3afa61968911501f7f46e391a855a1056a62caa95885d11cc1289085ff5a425938f863948b13521d7d44e193aa57a3076860c8ab5a8bdf12cf269e8bf1544c5736f66d9a851d5c13734aef9da459ad09666ec6a55489dd10cd249c89f3564e5534f46f98871f5e117148ed9fa65baf0b646cc4a7568fdb16cb229a8ff550485332f2699e81195817774eeb99a05da90d626ac2a1508dd914c920988df7524a5130f06b9c831b5a15754ce99ba25fab0f6068c0a35283d71ac72e9683f95c445f3efe65928d14e91b3d408b0f688469721aad21bcc64fe905a91098d4ac955e7bbe2adbbd823",
        "type": "nulldata"
      }
    },
    {
      "value": 499975.5944,
      "n": 1,
      "scriptPubKey": {
        "asm": "1 cf10464b9cba2748e07a75bd8eae81ac528af624c182e5ed7a6bcdbe96a65dff",
        "hex": "5120cf10464b9cba2748e07a75bd8eae81ac528af624c182e5ed7a6bcdbe96a65dff",
        "reqSigs": 1,
        "type": "witness_v1_scripthash",
        "addresses": [
          "3QJmnh"
        ]
      }
    }
  ],
  "blockhash": "ccdcfedcff6ade259e7f17160cbcd6ff75249aea4f0a85a59e1a4fb3f710df5f",
  "confirmations": 1,
  "time": 1764180435,
  "blocktime": 1764180435
}