{
  "hex": "010000000001017ae33fd5fb8aae37b12bf767bfe39fd8c5c08430a4d9aed71044f6e1c31c89470000000000feffffff02a077e402792d00002251205e6434fcb9fbac04fc0202a9d55010148610bdd191d7531ce36e336034c72b0000e1f50500000000fdd5046a20bafd65de0d5f84b710bf5f83c94fb97079df6b4b0b7dc80d8dabcffa971ed50c4db004fdea0481bb29f678d6045f640b57e1405efe3ea446b85f8ad0efe8819ff6c63bddca24a19b09d658f6247f442b77c1607ede1e8466987faaf0cfc8a1bfd6e61bbdaa44c1fb69b63896441f244b17a1001ebe7ee406f81fca90afa8c1dfb6867b9d8a64e1db499618b6643f046b3781203e9e5ec426d83feab08f88e1ff96a65b7d6a84013ba976f85684dfe48bd761c0de7ebe24c638df0a506f68011f7646bb5d4aa4211b8956d876a4ffc4abf741e0fe5e9e04e618ff2a704f48213f56669b3d2ac4417be936b816c49fa4cb9721809e3efe6486789f4a102f28415f3606fb1d0ae4615bc9169836e4bf84ebb701a0be1ede44a658bf6a300f08617f1626dbfdea0481bb29f678d6045f640b57e1405efe3ea446b85f8ad0efe8819ff6c63bddca24a19b09d658f6247f442b77c1607ede1e8466987faaf0cfc8a1bfd6e61bbdaa44c1fb69b63896441f244b17a1001ebe7ee406f81fca90afa8c1dfb6867b9d8a64e1db499618b6643f046b3781203e9e5ec426d83feab08f88e1ff96a65b7d6a84013ba976f85684dfe48bd761c0de7ebe24c638df0a506f68011f7646bb5d4aa4211b8956d876a4ffc4abf741e0fe5e9e04e618ff2a704f48213f56669b3d2ac4417be936b816c49fa4cb9721809e3efe6486789f4a102f28415f3606fb1d0ae4615bc9169836e4bf84ebb701a0be1ede44a658bf6a300f08617f1626dbfdea0481bb29f678d6045f640b57e1405efe3ea446b85f8ad0efe8819ff6c63bddca24a19b09d658f6247f442b77c1607ede1e8466987faaf0cfc8a1bfd6e61bbdaa44c1fb69b63896441f244b17a1001ebe7ee406f81fca90afa8c1dfb6867b9d8a64e1db499618b6643f046b3781203e9e5ec426d83feab08f88e1ff96a65b7d6a84013ba976f85684dfe48bd761c0de7ebe24c638df0a506f68011f7646bb5d4aa4211b8956d876a4ffc4abf741e0fe5e9e04e618ff2a704f48213f56669b3d2ac4417be936b816c49fa4cb9721809e3efe6486789f4a102f28415f3606fb1d0ae4615bc9169836e4bf84ebb701a0be1ede44a658bf6a300f08617f1626dbfdea0481bb29f678d6045f640b57e1405efe3ea446b85f8ad0efe8819ff6c63bddca24a19b09d658f6247f442b77c1607ede1e8466987faaf0cfc8a1bfd6e61bbdaa44c1fb69b63896441f244b17a1001ebe7ee406f81fca90afa8c1dfb6867b9d8a64e1db499618b6643f046b3781203e9e5ec426d83feab08f88e1ff96a65b7d6a84013ba976f85684dfe48bd761c0de7ebe24c638df0a506f68011f7646bb5d4aa4211b8956d876a4ffc4abf741e0fe5e9e04e618ff2a704f48213f56669b3d2ac4417be936b816c49fa4cb9721809e3efe6486789f4a102f28415f3606fb1d0ae4615bc9169836e4bf84ebb701a0be1ede44a658bf6a300f08617f1626dbfdea0481bb29f678d6045f640b57e1405efe3ea446b85f8ad0efe8819ff6c63bddca24a19b09d658f6247f442b77c1607ede1e8466987faaf0cfc8a1bfd6e61bbdaa44c1fb69b63896441f244b17a1001ebe7ee406f81fca90afa8c1dfb6867b9d8a64e1db499618b6643f046b3781203e9e5ec426d83feab08f88e1ff96a65b7d6a84013ba976f85684dfe48bd761c0f2f4b1a36c900c13052720b0d9bf65feba5e64e74d38c8c3fab9c53f44d3018502fd750913a2b315dd1dbeadf92b1f5ae4c862b8c9fd82d0d32a391c88d626b9657b017cb9d62dfa79de269a1a353533e127031bfd51eaec76e07f3e13d36f7993ca4de1d7746498210b16f2c38e12a5cbd0f3bfe63f8e7ea598fc701a93c356304e6905e5373090e3bcb86e8c6d9169820a9345c8614ccf538e0ed4095709a9c9062fc7d6f2f870301a7045d8fb5dfbe65c6b7fc0054165a62ede5a69260ea8186aa0e66c7e86549b06e3e65c2d4ea0d24e0b599a174a5fa606d175a9aa14ae5c0a05d8cf2838e8556eca26b0e5612a32a1064ee969c99cd071314067b5a3a106d764a900be95925a5ea0fb333cc4aeb2e2e8c36b20daf739e5c8e5019c58c6ea5c84a2a14c1d479cf45d337150362bb13578b5cf0ee602ff94f9e7f38628e6e10345a6e6bb7ec9844792f3361166d135c68b70f5f2167eedfbb7dfb53f9b1bc26f8fc4e6d4996092e0c57cd396b46cf3d6fd680bcdb460ed20cb510679e5f9fca2a71c5fb291a658f6960f801083c4cb97e3d884e064af124594fa61ecc91502d8cacd4bd1801176de455ee6909a9194a883725fe19c71b158bf80668b87890e6ec401b781eda501b7fb02ba30b084d092b84c0ef3f14a1fa156244d148c8d3759845630b1d1e7574e048d9e324ca98ed0b86210caefa598e1c9626576b6ce211992c6b7df12c3622717904ea6dbbc345d8d86a72ddefef62c24d9d7475b78e865d18426c1d195c1ecf4cfd3f68f3f00b92adf31a845c6e54865bf4c872fbe67bb030e5e1be5e320364fff9a67b4aafb12e53acb31e26497174920b216e857f3780ed0cf1337f31af8786386eb20032f5a94ca48a5c814d35cce1f0bc69853b84e3eecd325f3414d4e4f3d0a06e8759a473f7393672944211b5809c70c67b8e70932fe51216c127468a8247a5e1c9704d5dc08e5ada86b4fc23e5cbe2e82001878296db228118978526c00292e9d4dc76536a5de55c546113d9d37f66c8cc4c8ebbf6c0afcedd0afe9518bf502a6907a6b76e70f7c24284d451b0f854f9ca45247d418f24201547bca96763eaf443b5951688bd5ea7f2b4dfccbd7577de342ddfb4ed98ed88eae018497fb0731a20996fc1e9ca6bc4618c3b32a0cc0c4a54e6be60876d1986978164aae82f86ec47e17f71526524eafac22f0c0b50eddb519776908a2a0b1ee08444dbe8945b16bfefb60b55fa42abb12ab1fe33d7de626f890129b6ca88b55b96641575666fd72b019d7208f082e5eab96c64c9c17a7afbb55dbc293207567a82fcbf3d508373f0503671dc0408194a1b54be7cf883310e381a42471f1d77b80d199180c3b1fa035918ffc727996febd636878862492365cc18ad211d5729f99a9b39356fe9e6c336c643d5f6a547d60fbab35725ab0b0ec4c06af5867254ffae8100c779bbfeb1364cb8a90e666c32274997282419893bdd3cd2f933dd4d75572c51856241f884f8736bb7805bbeb3918895208731e076e5c6d498fd7a93804d91dd6f8526da9eb150d9c9258c6e51d3e866705025d5ab7dc5b39059b0238c967db4a1035657afae68ca79d3b5d06b4782e8f158fcc0e8884724e6b00e718f5355be06b5fe765c39510859108562dc573d071ed3ffba3fc3e5c063377dbd4583c5151d29730c997cb705529ecb12e9b60d1432da25dded53325feb325ab98b916278151f83f0fd8858cc7106bc5bd1ceabfac6c35e36c1dabb55b3b59bec0a26d0cfb3b4142f91c637aab46ab4f8d145268a573affa5607a67ba1b3f1061f99f79da2883f2b96d390ed444104408fd751ad464f4d61efa44807e2147acf4d0f7135744669aeb2ffefae7c11fd3fbb64e56304e29977888187092933ef34920a037d5f3420a36447edd00a4ec97275bf70a4f0aceb72d59af27170e929885c8584b0dab9b429f0b5a02c7982c4538b9b2ab71d1308aa203e7ae9040e61b778a1546525c3d27ceb46da37939b36cc203135f2b5cee2c1a8e4f211692f49a674af6a012d3ed76f76035e6b1586b6c0ab0ad87300061b31ee696768ce11d37714988f12f858d02029ba1971e629a14d5cb7be2f8089410720fdab3c83795e9fbf1dd8d82b928d423a438f5a46fa5f7ce54578947d2570da30fa402ef027e9677c9a84595f3a7b92a9c5d6c2063bcda101d1dc0486adf7d0f44fb9cb0c6949cd9f4d2a9d1a2fdb3ac3e837286f78fc66103f25992eaa264d6ffdfbc4c9a2b1bfdce39c002f58dd706f2f1bba62f6e266cd8b63d34c173f5b21d63e66788a0e72a83e058a57ed853e40fcd73a6d36b292e1c3ffa7710eafd62ae4f7bd7ebe32caf63ad6316548aa3e11e5f50e6066bc65d2e833351621e0c4f2ab76d0d3a05755d0ec70cf49d50ce4fa0077ef9b9f3b4a33089b373b70ffde4e79652d29e5d569585698e1f79f3638315949cff8c1319e123d7f92da4492a440d0022aa5657714c6ee52ff295652e4bf10bd2a6827f3fa8ba91b2d3f6c8a3181fb2802ec21e655753e66640f7543aeda10622616c0cd0c4a48ac926820ccf9fc95ba4d6efca3cf429535254aa5bf2d36c662739421b3155fac27b526e8b21e38c6951eecc3bd7082aab2804e688700cd2623d59ea70fd4f4fa64d4f0bae9275e5832c89bc6522a30aa66f16d9e486a9d9fa1f9c31c55d43eed32c8f2f3e1ba96a69035e738acac694c12ff275996b292a676c56ccaa4487650c29900f652a130659879b7dab5584191e9af9a53c298d9cc12412ffe602e3196d52ad4b5afbd481159c42138bf2044394bb727e13880255a7315256b34950aa2b2a4a7983c4a1fbe4afb895378e9118f4333c95b853024d3e342242f9f34c7a79a5a6abd88782bb03b285b904cc8be31452b2aca7f33d67ab91236f9d56e1667ba37eb7ac6dfe5cbefcf6d4f1b29c15f92ec8ed4544e95756fb1dd361501348d903e70f481eaf0041e37be9c62325b78862a7bfc1a26b55506e62635ec44c94f2e25062b4f5ff12b4c1fa8321c8fad9abf1ebf52c27d75220251b26f552d241117e84bc4a620698d5f195a64de804da5fe19382fdefd5772f0fae01a461a331a86f301a1078ddee736db23dbb7ba03bd1b019c7100304b4efc9472e972c87560f9e751308665c6427574b7c5deb5d4291da3ffd294a83dc2fde3030438ad2de31b30df3be91d665f77805a2cbe6a19967a497945430fcdab73d98b28d17a84c321323ff6474332d3ca2bc84f018f8fd086a31c5b76b9728f943cbb746e39fd2ba1b35164f271785360dca04ded45ebf14b73cc1f5a2adb1a1e5aabe5fcbc60cc58d33bca1ff9b8af036a09650013617a80858da6b5eaf4f7011535373c414d4e5055687090a1afd0d8f5172b2d7076858c939ba8b0b3ebf2f6002a363c6f8693acbfe7f90000000000000000000000000000000000000000000000000c1e2d3801fd210500d8eb1ed164d81db90f1601fd51eaff079b2108304d0470b38e853a00854eac0f9d5eee44536ba05109fc5f2711e8ad08ac5a8245dabff9478ab6127b569dc50376936464e374222b6d8c5e6ae9eaafd430479f8f7ccd9479277d3267d7b408fcf9f0b32a798cefd23783e1044be80729de9832ce40029622613faeee21d8d69e54b4e08a55c6cb70e39d39209a56286abc5b85475faf93e0008f8713dcb10b5a6d054b5097bf39123a58e0400c466af6b4c1d38e1ba01347e979054b493156d4dc5efe11c70f5bbb24a2c3f0dcba8b6577676bc331100b359f29104f5f39b14602d4d79452db429ac7e6a8db8a67ef4b63ed517a5c1ae5fcc36512df5cfe5de92e9ac21c43dd364354efb9308370ece38cee230ff7de4ca0741143a71c1645bf03f0b14ddb33eaed294150c1cf430ae8824b35ce97fe74a33532e8a7e863c2d10bb69a9b87cfe0258dee24b35b316eca46c2a98a5c3baee30ffdd8d1e7fd4df0ff4e9e417cdf62832ed00ad18c7044f68bbdd09ba5a6ba2652a7c19deab138850876b896c6918ac447cca86771dd6ebac559a84ac5940306b8433be88adcbf6f19502a94d6a210448a9790fd1174d2310c3a53420698b60358e11656d5ad7bf6cb909411a25b0a2acb229b7ef2b764f6a138a0f759bb2b26af7a53945f7be7f17a4b261b37b9c3424cd6075dc38bcdb13533ea4b06361909b7baa05134077e62b3c6664c58189fddc8a223c7f7d8dc2d804a4008cf86489f4b1bd9c2d2e93c329d9fc8ea5e00765785b7fb61879ab1fd89fbdbaccc5ab41a40df8ca372d61d1f89618fae33d32e125ad91177956deb75f55ac469359b2e1fee6c24d631f49f2ca3f793c1180437fc9c66a6c55849b3bb34a172f942b5763b7c1c93de9d51196a964c7eaeae709ccd65a51c1c04f6d3f82ea5c8416835ae264f51d25d2770a749d2d53855e21271b03baacd24b88ec8532d859b2c0c036ae610e76496029c259767abfb160262c2f48566e3ed5cbdbf13f0c313866665868c475f5f73ca713b97d376041d04794cc703af471e04eb492a0fc90663901bbecf7ec7bf8bfef9406f6e1a1ad86285af753463bbb82819ab0313ccd44890c19294c310c690e858a6a5037cd227dc7c62a1dd15468c7cc3090e75db4468ccd845aac2b3b44e2018cd091be5fe23d19e2c4a87b4595ec677d7f9f12e072466e05afa1d3977b6c6d7e1258f930eed99c0d311087a095bd081bb406ca3ee5c886b0ebf5eabfa40d008302cc920cc74a9fcf869c09dab6770899606f09a464db1eb10c168f1df69d9cc15e2f1027402b5ff19972308f5263b5f746401d9c5c95f4f694a879cd858fd682a0f24d416f62543cddb847c4cd1d528b775a914418fb0601173c933689217fe26d6387ff1f3cd17ecdf77e1088726d2d7f8f92e1b8d035a88b3b0e445850537d88e65c84135a56a2fa60b3a51ffa63af59dee491e0e021c3342242348634179e0b1a7ea8b7466cc81d952f54c565678953343fc104def2eeed1852088e0c307f5178805dd79d97e79db4caa262e7e575e585270118e4448159ddcff921aac8a1998a2ce0a4e36e1660a7fead0d582eecf16de87f8b6799a61f029fb713aeb340f65c941a526eea73fa05f59dfb58a81f143c056158ac6f745ffb4fdc15a163b7f32c3295499b56979249b625f319b90e4b0058b7b19368d3991a8765f76d8f90614fb603bf55a3b76e69d240203cbbf337db263981a3d24bdc2c40f3bf191216593b4d0f3c7459dc95c7c5431075b3728a4f72c2f961ea97ea0ca9c314544a0d8d91562bb53732bad75e389819fbbe07dda43dbcd4a0116c8b18be698f93089a5c678000000",
  "txid": "c999bb4d71946377774e6e40c69140950d5f1400a79cb0997f5bb97f2bfff1f1",
  "hash": "aa8f81cd7253fabbabd61c867e49ab4e1315e3f68ed3fea294e1ff3b9dae4767",
  "size": 5085,
  "vsize": 2278,
  "version": 1,
  "locktime": 120,
  "vin": [
    {
      "txid": "47891cc3e1f64410d7aed9a43084c0c5d89fe3bf67f72bb137ae8afbd53fe37a",
      "vout": 0,
      "scriptSig": {
        "asm": "",
        "hex": ""
      },
      "txinwitness": [
        "13a2b315dd1dbeadf92b1f5ae4c862b8c9fd82d0d32a391c88d626b9657b017cb9d62dfa79de269a1a353533e127031bfd51eaec76e07f3e13d36f7993ca4de1d7746498210b16f2c38e12a5cbd0f3bfe63f8e7ea598fc701a93c356304e6905e5373090e3bcb86e8c6d9169820a9345c8614ccf538e0ed4095709a9c9062fc7d6f2f870301a7045d8fb5dfbe65c6b7fc0054165a62ede5a69260ea8186aa0e66c7e86549b06e3e65c2d4ea0d24e0b599a174a5fa606d175a9aa14ae5c0a05d8cf2838e8556eca26b0e5612a32a1064ee969c99cd071314067b5a3a106d764a900be95925a5ea0fb333cc4aeb2e2e8c36b20daf739e5c8e5019c58c6ea5c84a2a14c1d479cf45d337150362bb13578b5cf0ee602ff94f9e7f38628e6e10345a6e6bb7ec9844792f3361166d135c68b70f5f2167eedfbb7dfb53f9b1bc26f8fc4e6d4996092e0c57cd396b46cf3d6fd680bcdb460ed20cb510679e5f9fca2a71c5fb291a658f6960f801083c4cb97e3d884e064af124594fa61ecc91502d8cacd4bd1801176de455ee6909a9194a883725fe19c71b158bf80668b87890e6ec401b781eda501b7fb02ba30b084d092b84c0ef3f14a1fa156244d148c8d3759845630b1d1e7574e048d9e324ca98ed0b86210caefa598e1c9626576b6ce211992c6b7df12c3622717904ea6dbbc345d8d86a72ddefef62c24d9d7475b78e865d18426c1d195c1ecf4cfd3f68f3f00b92adf31a845c6e54865bf4c872fbe67bb030e5e1be5e320364fff9a67b4aafb12e53acb31e26497174920b216e857f3780ed0cf1337f31af8786386eb20032f5a94ca48a5c814d35cce1f0bc69853b84e3eecd325f3414d4e4f3d0a06e8759a473f7393672944211b5809c70c67b8e70932fe51216c127468a8247a5e1c9704d5dc08e5ada86b4fc23e5cbe2e82001878296db228118978526c00292e9d4dc76536a5de55c546113d9d37f66c8cc4c8ebbf6c0afcedd0afe9518bf502a6907a6b76e70f7c24284d451b0f854f9ca45247d418f24201547bca96763eaf443b5951688bd5ea7f2b4dfccbd7577de342ddfb4ed98ed88eae018497fb0731a20996fc1e9ca6bc4618c3b32a0cc0c4a54e6be60876d1986978164aae82f86ec47e17f71526524eafac22f0c0b50eddb519776908a2a0b1ee08444dbe8945b16bfefb60b55fa42abb12ab1fe33d7de626f890129b6ca88b55b96641575666fd72b019d7208f082e5eab96c64c9c17a7afbb55dbc293207567a82fcbf3d508373f0503671dc0408194a1b54be7cf883310e381a42471f1d77b80d199180c3b1fa035918ffc727996febd636878862492365cc18ad211d5729f99a9b39356fe9e6c336c643d5f6a547d60fbab35725ab0b0ec4c06af5867254ffae8100c779bbfeb1364cb8a90e666c32274997282419893bdd3cd2f933dd4d75572c51856241f884f8736bb7805bbeb3918895208731e076e5c6d498fd7a93804d91dd6f8526da9eb150d9c9258c6e51d3e866705025d5ab7dc5b39059b0238c967db4a1035657afae68ca79d3b5d06b4782e8f158fcc0e8884724e6b00e718f5355be06b5fe765c39510859108562dc573d071ed3ffba3fc3e5c063377dbd4583c5151d29730c997cb705529ecb12e9b60d1432da25dded53325feb325ab98b916278151f83f0fd8858cc7106bc5bd1ceabfac6c35e36c1dabb55b3b59bec0a26d0cfb3b4142f91c637aab46ab4f8d145268a573affa5607a67ba1b3f1061f99f79da2883f2b96d390ed444104408fd751ad464f4d61efa44807e2147acf4d0f7135744669aeb2ffefae7c11fd3fbb64e56304e29977888187092933ef34920a037d5f3420a36447edd00a4ec97275bf70a4f0aceb72d59af27170e929885c8584b0dab9b429f0b5a02c7982c4538b9b2ab71d1308aa203e7ae9040e61b778a1546525c3d27ceb46da37939b36cc203135f2b5cee2c1a8e4f211692f49a674af6a012d3ed76f76035e6b1586b6c0ab0ad87300061b31ee696768ce11d37714988f12f858d02029ba1971e629a14d5cb7be2f8089410720fdab3c83795e9fbf1dd8d82b928d423a438f5a46fa5f7ce54578947d2570da30fa402ef027e9677c9a84595f3a7b92a9c5d6c2063bcda101d1dc0486adf7d0f44fb9cb0c6949cd9f4d2a9d1a2fdb3ac3e837286f78fc66103f25992eaa264d6ffdfbc4c9a2b1bfdce39c002f58dd706f2f1bba62f6e266cd8b63d34c173f5b21d63e66788a0e72a83e058a57ed853e40fcd73a6d36b292e1c3ffa7710eafd62ae4f7bd7ebe32caf63ad6316548aa3e11e5f50e6066bc65d2e833351621e0c4f2ab76d0d3a05755d0ec70cf49d50ce4fa0077ef9b9f3b4a33089b373b70ffde4e79652d29e5d569585698e1f79f3638315949cff8c1319e123d7f92da4492a440d0022aa5657714c6ee52ff295652e4bf10bd2a6827f3fa8ba91b2d3f6c8a3181fb2802ec21e655753e66640f7543aeda10622616c0cd0c4a48ac926820ccf9fc95ba4d6efca3cf429535254aa5bf2d36c662739421b3155fac27b526e8b21e38c6951eecc3bd7082aab2804e688700cd2623d59ea70fd4f4fa64d4f0bae9275e5832c89bc6522a30aa66f16d9e486a9d9fa1f9c31c55d43eed32c8f2f3e1ba96a69035e738acac694c12ff275996b292a676c56ccaa4487650c29900f652a130659879b7dab5584191e9af9a53c298d9cc12412ffe602e3196d52ad4b5afbd481159c42138bf2044394bb727e13880255a7315256b34950aa2b2a4a7983c4a1fbe4afb895378e9118f4333c95b853024d3e342242f9f34c7a79a5a6abd88782bb03b285b904cc8be31452b2aca7f33d67ab91236f9d56e1667ba37eb7ac6dfe5cbefcf6d4f1b29c15f92ec8ed4544e95756fb1dd361501348d903e70f481eaf0041e37be9c62325b78862a7bfc1a26b55506e62635ec44c94f2e25062b4f5ff12b4c1fa8321c8fad9abf1ebf52c27d75220251b26f552d241117e84bc4a620698d5f195a64de804da5fe19382fdefd5772f0fae01a461a331a86f301a1078ddee736db23dbb7ba03bd1b019c7100304b4efc9472e972c87560f9e751308665c6427574b7c5deb5d4291da3ffd294a83dc2fde3030438ad2de31b30df3be91d665f77805a2cbe6a19967a497945430fcdab73d98b28d17a84c321323ff6474332d3ca2bc84f018f8fd086a31c5b76b9728f943cbb746e39fd2ba1b35164f271785360dca04ded45ebf14b73cc1f5a2adb1a1e5aabe5fcbc60cc58d33bca1ff9b8af036a09650013617a80858da6b5eaf4f7011535373c414d4e5055687090a1afd0d8f5172b2d7076858c939ba8b0b3ebf2f6002a363c6f8693acbfe7f90000000000000000000000000000000000000000000000000c1e2d3801",
        "00d8eb1ed164d81db90f1601fd51eaff079b2108304d0470b38e853a00854eac0f9d5eee44536ba05109fc5f2711e8ad08ac5a8245dabff9478ab6127b569dc50376936464e374222b6d8c5e6ae9eaafd430479f8f7ccd9479277d3267d7b408fcf9f0b32a798cefd23783e1044be80729de9832ce40029622613faeee21d8d69e54b4e08a55c6cb70e39d39209a56286abc5b85475faf93e0008f8713dcb10b5a6d054b5097bf39123a58e0400c466af6b4c1d38e1ba01347e979054b493156d4dc5efe11c70f5bbb24a2c3f0dcba8b6577676bc331100b359f29104f5f39b14602d4d79452db429ac7e6a8db8a67ef4b63ed517a5c1ae5fcc36512df5cfe5de92e9ac21c43dd364354efb9308370ece38cee230ff7de4ca0741143a71c1645bf03f0b14ddb33eaed294150c1cf430ae8824b35ce97fe74a33532e8a7e863c2d10bb69a9b87cfe0258dee24b35b316eca46c2a98a5c3baee30ffdd8d1e7fd4df0ff4e9e417cdf62832ed00ad18c7044f68bbdd09ba5a6ba2652a7c19deab138850876b896c6918ac447cca86771dd6ebac559a84ac5940306b8433be88adcbf6f19502a94d6a210448a9790fd1174d2310c3a53420698b60358e11656d5ad7bf6cb909411a25b0a2acb229b7ef2b764f6a138a0f759bb2b26af7a53945f7be7f17a4b261b37b9c3424cd6075dc38bcdb13533ea4b06361909b7baa05134077e62b3c6664c58189fddc8a223c7f7d8dc2d804a4008cf86489f4b1bd9c2d2e93c329d9fc8ea5e00765785b7fb61879ab1fd89fbdbaccc5ab41a40df8ca372d61d1f89618fae33d32e125ad91177956deb75f55ac469359b2e1fee6c24d631f49f2ca3f793c1180437fc9c66a6c55849b3bb34a172f942b5763b7c1c93de9d51196a964c7eaeae709ccd65a51c1c04f6d3f82ea5c8416835ae264f51d25d2770a749d2d53855e21271b03baacd24b88ec8532d859b2c0c036ae610e76496029c259767abfb160262c2f48566e3ed5cbdbf13f0c313866665868c475f5f73ca713b97d376041d04794cc703af471e04eb492a0fc90663901bbecf7ec7bf8bfef9406f6e1a1ad86285af753463bbb82819ab0313ccd44890c19294c310c690e858a6a5037cd227dc7c62a1dd15468c7cc3090e75db4468ccd845aac2b3b44e2018cd091be5fe23d19e2c4a87b4595ec677d7f9f12e072466e05afa1d3977b6c6d7e1258f930eed99c0d311087a095bd081bb406ca3ee5c886b0ebf5eabfa40d008302cc920cc74a9fcf869c09dab6770899606f09a464db1eb10c168f1df69d9cc15e2f1027402b5ff19972308f5263b5f746401d9c5c95f4f694a879cd858fd682a0f24d416f62543cddb847c4cd1d528b775a914418fb0601173c933689217fe26d6387ff1f3cd17ecdf77e1088726d2d7f8f92e1b8d035a88b3b0e445850537d88e65c84135a56a2fa60b3a51ffa63af59dee491e0e021c3342242348634179e0b1a7ea8b7466cc81d952f54c565678953343fc104def2eeed1852088e0c307f5178805dd79d97e79db4caa262e7e575e585270118e4448159ddcff921aac8a1998a2ce0a4e36e1660a7fead0d582eecf16de87f8b6799a61f029fb713aeb340f65c941a526eea73fa05f59dfb58a81f143c056158ac6f745ffb4fdc15a163b7f32c3295499b56979249b625f319b90e4b0058b7b19368d3991a8765f76d8f90614fb603bf55a3b76e69d240203cbbf337db263981a3d24bdc2c40f3bf191216593b4d0f3c7459dc95c7c5431075b3728a4f72c2f961ea97ea0ca9c314544a0d8d91562bb53732bad75e389819fbbe07dda43dbcd4a0116c8b18be698f93089a5c6"
      ],
      "sequence": 4294967294
    }
  ],
  "vout": [
    {
      "value": 499977.6282,
      "n": 0,
      "scriptPubKey": {
        "asm": "1 5e6434fcb9fbac04fc0202a9d55010148610bdd191d7531ce36e336034c72b00",
        "hex": "51205e6434fcb9fbac04fc0202a9d55010148610bdd191d7531ce36e336034c72b00",
        "reqSigs": 1,
        "type": "witness_v1_scripthash",
        "addresses": [
          "3QJmnh"
        ]
      }
    },
    {
      "value": 1.0,
      "n": 1,
      "scriptPubKey": {
        "asm": "OP_RETURN bafd65de0d5f84b710bf5f83c94fb97079df6b4b0b7dc80d8dabcffa971ed50c fdea0481bb29f678d6045f640b57e1405efe3ea446b85f8ad0efe8819ff6c63bddca24a19b09d658f6247f442b77c1607ede1e8466987faaf0cfc8a1bfd6e61bbdaa44c1fb69b63896441f244b17a1001ebe7ee406f81fca90afa8c1dfb6867b9d8a64e1db499618b6643f046b3781203e9e5ec426d83feab08f88e1ff96a65b7d6a84013ba976f85684dfe48bd761c0de7ebe24c638df0a506f68011f7646bb5d4aa4211b8956d876a4ffc4abf741e0fe5e9e04e618ff2a704f48213f56669b3d2ac4417be936b816c49fa4cb9721809e3efe6486789f4a102f28415f3606fb1d0ae4615bc9169836e4bf84ebb701a0be1ede44a658bf6a300f08617f1626dbfdea0481bb29f678d6045f640b57e1405efe3ea446b85f8ad0efe8819ff6c63bddca24a19b09d658f6247f442b77c1607ede1e8466987faaf0cfc8a1bfd6e61bbdaa44c1fb69b63896441f244b17a1001ebe7ee406f81fca90afa8c1dfb6867b9d8a64e1db499618b6643f046b3781203e9e5ec426d83feab08f88e1ff96a65b7d6a84013ba976f85684dfe48bd761c0de7ebe24c638df0a506f68011f7646bb5d4aa4211b8956d876a4ffc4abf741e0fe5e9e04e618ff2a704f48213f56669b3d2ac4417be936b816c49fa4cb9721809e3efe6486789f4a102f28415f3606fb1d0ae4615bc9169836e4bf84ebb701a0be1ede44a658bf6a300f08617f1626dbfdea0481bb29f678d6045f640b57e1405efe3ea446b85f8ad0efe8819ff6c63bddca24a19b09d658f6247f442b77c1607ede1e8466987faaf0cfc8a1bfd6e61bbdaa44c1fb69b63896441f244b17a1001ebe7ee406f81fca90afa8c1dfb6867b9d8a64e1db499618b6643f046b3781203e9e5ec426d83feab08f88e1ff96a65b7d6a84013ba976f85684dfe48bd761c0de7ebe24c638df0a506f68011f7646bb5d4aa4211b8956d876a4ffc4abf741e0fe5e9e04e618ff2a704f48213f56669b3d2ac4417be936b816c49fa4cb9721809e3efe6486789f4a102f28415f3606fb1d0ae4615bc9169836e4bf84ebb701a0be1ede44a658bf6a300f08617f1626dbfdea0481bb29f678d6045f640b57e1405efe3ea446b85f8ad0efe8819ff6c63bddca24a19b09d658f6247f442b77c1607ede1e8466987faaf0cfc8a1bfd6e61bbdaa44c1fb69b63896441f244b17a1001ebe7ee406f81fca90afa8c1dfb6867b9d8a64e1db499618b6643f046b3781203e9e5ec426d83feab08f88e1ff96a65b7d6a84013ba976f85684dfe48bd761c0de7ebe24c638df0a506f68011f7646bb5d4aa4211b8956d876a4ffc4abf741e0fe5e9e04e618ff2a704f48213f56669b3d2ac4417be936b816c49fa4cb9721809e3efe6486789f4a102f28415f3606fb1d0ae4615bc9169836e4bf84ebb701a0be1ede44a658bf6a300f08617f1626dbfdea0481bb29f678d6045f640b57e1405efe3ea446b85f8ad0efe8819ff6c63bddca24a19b09d658f6247f442b77c1607ede1e8466987faaf0cfc8a1bfd6e61bbdaa44c1fb69b63896441f244b17a1001ebe7ee406f81fca90afa8c1dfb6867b9d8a64e1db499618b6643f046b3781203e9e5ec426d83feab08f88e1ff96a65b7d6a84013ba976f85684dfe48bd761c0f2f4b1a36c900c13052720b0d9bf65feba5e64e74d38c8c3fab9c53f44d30185",
        "hex": "6a20bafd65de0d5f84b710bf5f83c94fb97079df6b4b0b7dc80d8dabcffa971ed50c4db004fdea0481bb29f678d6045f640b57e1405efe3ea446b85f8ad0efe8819ff6c63bddca24a19b09d658f6247f442b77c1607ede1e8466987faaf0cfc8a1bfd6e61bbdaa44c1fb69b63896441f244b17a1001ebe7ee406f81fca90afa8c1dfb6867b9d8a64e1db499618b6643f046b3781203e9e5ec426d83feab08f88e1ff96a65b7d6a84013ba976f85684dfe48bd761c0de7ebe24c638df0a506f68011f7646bb5d4aa4211b8956d876a4ffc4abf741e0fe5e9e04e618ff2a704f48213f56669b3d2ac4417be936b816c49fa4cb9721809e3efe6486789f4a102f28415f3606fb1d0ae4615bc9169836e4bf84ebb701a0be1ede44a658bf6a300f08617f1626dbfdea0481bb29f678d6045f640b57e1405efe3ea446b85f8ad0efe8819ff6c63bddca24a19b09d658f6247f442b77c1607ede1e8466987faaf0cfc8a1bfd6e61bbdaa44c1fb69b63896441f244b17a1001ebe7ee406f81fca90afa8c1dfb6867b9d8a64e1db499618b6643f046b3781203e9e5ec426d83feab08f88e1ff96a65b7d6a84013ba976f85684dfe48bd761c0de7ebe24c638df0a506f68011f7646bb5d4aa4211b8956d876a4ffc4abf741e0fe5e9e04e618ff2a704f48213f56669b3d2ac4417be936b816c49fa4cb9721809e3efe6486789f4a102f28415f3606fb1d0ae4615bc9169836e4bf84ebb701a0be1ede44a658bf6a300f08617f1626dbfdea0481bb29f678d6045f640b57e1405efe3ea446b85f8ad0efe8819ff6c63bddca24a19b09d658f6247f442b77c1607ede1e8466987faaf0cfc8a1bfd6e61bbdaa44c1fb69b63896441f244b17a1001ebe7ee406f81fca90afa8c1dfb6867b9d8a64e1db499618b6643f046b3781203e9e5ec426d83feab08f88e1ff96a65b7d6a84013ba976f85684dfe48bd761c0de7ebe24c638df0a506f68011f7646bb5d4aa4211b8956d876a4ffc4abf741e0fe5e9e04e618ff2a704f48213f56669b3d2ac4417be936b816c49fa4cb9721809e3efe6486789f4a102f28415f3606fb1d0ae4615bc9169836e4bf84ebb701a0be1ede44a658bf6a300f08617f1626dbfdea0481bb29f678d6045f640b57e1405efe3ea446b85f8ad0efe8819ff6c63bddca24a19b09d658f6247f442b77c1607ede1e8466987faaf0cfc8a1bfd6e61bbdaa44c1fb69b63896441f244b17a1001ebe7ee406f81fca90afa8c1dfb6867b9d8a64e1db499618b6643f046b3781203e9e5ec426d83feab08f88e1ff96a65b7d6a84013ba976f85684dfe48bd761c0de7ebe24c638df0a506f68011f7646bb5d4aa4211b8956d876a4ffc4abf741e0fe5e9e04e618ff2a704f48213f56669b3d2ac4417be936b816c49fa4cb9721809e3efe6486789f4a102f28415f3606fb1d0ae4615bc9169836e4bf84ebb701a0be1ede44a658bf6a300f08617f1626dbfdea0481bb29f678d6045f640b57e1405efe3ea446b85f8ad0efe8819ff6c63bddca24a19b09d658f6247f442b77c1607ede1e8466987faaf0cfc8a1bfd6e61bbdaa44c1fb69b63896441f244b17a1001ebe7ee406f81fca90afa8c1dfb6867b9d8a64e1db499618b6643f046b3781203e9e5ec426d83feab08f88e1ff96a65b7d6a84013ba976f85684dfe48bd761c0f2f4b1a36c900c13052720b0d9bf65feba5e64e74d38c8c3fab9c53f44d30185",
        "type": "nulldata"
      }
    }
  ],
  "blockhash": "0125d69e6984563ac74cb1b0b8601a67b424e71230e7918fa710584dbb11162a",
  "confirmations": 1,
  "time": 1764180090,
  "blocktime": 1764180090
}