{
  "hex": "01000000000101f9a26f3ad41fc26db4342e74602142049c4d07b9b074843ffdb14bf0d88f81490000000000feffffff0200e1f50500000000fdd5046a205513b2967ef8cc1483b97831095ba96af29c9f7be51d66d3e3f20ffd96bd8ed74db00405c720a366222f7226ee24fe2017db1bf87a24c4526782f59c4935f62aa1fac425e7008346020f5206ce04de0037fb3bd85a04e47247a2d5bc6915d60a81dae4458760e326626f3266ae64be60579b5bb83a64841227c2b5dc0975b66ae1ba8465a740c306424f12468e449e4077bb7b981a44a43207e295fc2955964ac19aa48547a023e6a2aff2a66ea47ea0975b9b78faa444d2e702751cc9b576aa217a44a5678003c6828fd2864e845e80b77bbb58da8464f2c722553ce995568a015a64c507e063a6e2efb2e62ee43ee0d71bdb38bae40492a742355c89f536ea613a04e527c04386c2cf92c60ec41ec0f73bfb189ac424b28762157ca9d516ca411a2405c720a366222f7226ee24fe2017db1bf87a24c4526782f59c4935f62aa1fac425e7008346020f5206ce04de0037fb3bd85a04e47247a2d5bc6915d60a81dae4458760e326626f3266ae64be60579b5bb83a64841227c2b5dc0975b66ae1ba8465a740c306424f12468e449e4077bb7b981a44a43207e295fc2955964ac19aa48547a023e6a2aff2a66ea47ea0975b9b78faa444d2e702751cc9b576aa217a44a5678003c6828fd2864e845e80b77bbb58da8464f2c722553ce995568a015a64c507e063a6e2efb2e62ee43ee0d71bdb38bae40492a742355c89f536ea613a04e527c04386c2cf92c60ec41ec0f73bfb189ac424b28762157ca9d516ca411a2405c720a366222f7226ee24fe2017db1bf87a24c4526782f59c4935f62aa1fac425e7008346020f5206ce04de0037fb3bd85a04e47247a2d5bc6915d60a81dae4458760e326626f3266ae64be60579b5bb83a64841227c2b5dc0975b66ae1ba8465a740c306424f12468e449e4077bb7b981a44a43207e295fc2955964ac19aa48547a023e6a2aff2a66ea47ea0975b9b78faa444d2e702751cc9b576aa217a44a5678003c6828fd2864e845e80b77bbb58da8464f2c722553ce995568a015a64c507e063a6e2efb2e62ee43ee0d71bdb38bae40492a742355c89f536ea613a04e527c04386c2cf92c60ec41ec0f73bfb189ac424b28762157ca9d516ca411a2405c720a366222f7226ee24fe2017db1bf87a24c4526782f59c4935f62aa1fac425e7008346020f5206ce04de0037fb3bd85a04e47247a2d5bc6915d60a81dae4458760e326626f3266ae64be60579b5bb83a64841227c2b5dc0975b66ae1ba8465a740c306424f12468e449e4077bb7b981a44a43207e295fc2955964ac19aa48547a023e6a2aff2a66ea47ea0975b9b78faa444d2e702751cc9b576aa217a44a5678003c6828fd2864e845e80b77bbb58da8464f2c722553ce995568a015a64c507e063a6e2efb2e62ee43ee0d71bdb38bae40492a742355c89f536ea613a04e527c04386c2cf92c60ec41ec0f73bfb189ac424b28762157ca9d516ca411a2405c720a366222f7226ee24fe2017db1bf87a24c4526782f59c4935f62aa1fac425e7008346020f5206ce04de0037fb3bd85a04e47247a2d5bc6915d60a81dae4458760e326626f3266ae64be60579b5bb83a64841227c2b5dc0975b66ae1ba8465a740c306424f12468e449e4077bb7b981a44a43207e295fc2955964ac19aa48547a023e6a2aff2a66ea47ea0975b9b0ba8fcd0c1e6e89c6888e643632f746995ff71693611c63d6512ea3fe7a4392b50771315792d0000225120c80f40b782969b1f4924066392478e70c5040d8130ed0a49386c03311b56ddd402fd7509db9ccff74ae09dd7f547375b89bfa69c67b93dfe124d19969e4a15aab12ce103108a7c49a3cbc8236f445e84a6c1ad5b6a6e68064460cfadb1aa10f3c573f2d4773ad0c64085a62fbafd4a282183c7e5d04cf6cb4c9101139349ad22b956768d8b8562ffe15425428f74239bbf91817c7fd088d029c9328df0d4f6aea5152426a4d6bf5b57cc2492218572824524b279e6f9446adf4346f035d232e0c258bd2800762ed7d37ac1c8c5b5087dedb9b47732b49eaba3af330c28cd9c785d3a2a6c8bc0a46e5e82d5cd8ead1f334abc4dde86dcbf9e85afe1d27af3f844056b4b30e9f0791b3c08b0adea567419a703e9ffa34c53f2ebff2235cede3bd7a0b2c8c88b915781f7f0f43f4a7a3060296e949738249a7e7211c39ee4fd9b7895d96683a08d943bcd4c5d3ae38ba2ba42555e10c5f8b58d733c4d1554dfdb88d8bd105203122a277de22cf5d8df61edcafc569c5e33579ac60b131939bffbfc93a03a62a62e8c00d24c7d2bb12723f5e3614026ac1ef6d2b8ba0bc4f26276dd4266203c2a89c0764ebb30c98bafb8133afc6723eaffe6bbd6569bb0cf1994cba8903a760fd1c23f7e775ad7e3dc8ef5c506ac241f646c97bda9d6393d0a88c45df00f83c04c728342518e807b21d43319871d888cc18f13fff1ceebcec46e599d4ad234627257f6d8255acab8e176f82825c6b19307e743574880e10367b9e259233bea499a353bb06f892324426d4fde28f228df00a1f9b9d16470af28dcca5f7ae518c6cce1f64fcefb14a30838045bdc65d1fdef9d4a574bd221444ca1299dc4e967fb0578b7fa814b4f1d42869e39df7a851da516a4dd30ce3d5a004ccb93a8d1c05d9f2d5d58b220971843adb21abebe4c72fb80b7f6766f22d0c180889bf2c5b3248c88d028238f2e2b321ac9875eaf268b44f533b52189341e9488c6a5aede8f8dd69b4ae8165b2fa57fbc643b9d173289af7560b9bbd9c493c45e0d2fec811d495b5b3a6378295b3775cf49df714ee89d2bba77818243953a84620496d15ce797bdadc748718a5a903492790ad482393083eeb90abe6e8511ba8265f5f943344583c785316072cdc99b3294b058ea738f1bbc21d2be8e5d678982cf94896754a12294f5a240e6c4f8fc413c37e98b7c560b38d868e27817be03ff4b9cb0fe343e98449dcc02b4bf7e1bcc68623fbee4cee98fec40dd00c8c346be36d436651b2fda26cb51524c28754170dabc24a25ce426f8dd56578a30bdea6c6adadf00af58a01576620f1f3ffb81e9fe623a8c5cf74e88b27566ff0dd7406c6cce03530545f2baff25734dd5c799288e3da22a3b7f4447aff505d107afc5d6d45b876e1a34d716a911fc0e74f3bf3b9811bf2141e26cff340ceb11f116ba4626a1d8671313bde2fba112a727d4841ed8bac6765e9b998ec70d2b2a0e84f9d6ffae495f5260582986b81856b27b8a73889c8928c854554ca8513c492e239acc2a8ba3955056f0ee41910f47274b681bda0fd25faee5c5ce4a2b9792dddc44e2afc395a6ed243946907a4bc4029aa64f6ff729dec7d88bb50160b76b2bb3333ba70bd6412b059b534a169ef951998a63e32df4c973244deeffe13f5a48b5ceed3fc33b8934fbae51018f52512c34b24fa99d67bf7649d4cc793ca518058f7633648f55fc0dd11b06fb3f5278fec428f9cf8557d1a417b74e6378a8edd7332023933354628554b313ded89730ed1e230fa8bdae500791761d7b6de6533797f7d675f6ffd5158f829139cd7712a70499bf297368fbf851fee0254163b07ec66d8dcb6faced67ff4714ba5ea54b44fde7c1cc7a513ce41bcbb201263a8988bddb78b29c0fe3e914f4cc914dde2a8c01e6a4474740584da95d7644f9cc60da9d9fce49f0c743e079a6de3a23ef0abac49fc2023f1a730bcabca3d296a7bed390151faf5776089d5efe1cd29eb4ef24e0bb3bdc9b36247e73f513967ce1204e145321d691eef0840509adf230f6ec08470683abe492fc592c72b5d7c230eff415d85acff2a8a4c9e344d79a5e77ed15dea4f9a9da4deb3c808c3280ca94c2c4faccdf2b103c3b8b086244ec4827f7c32685039cbc8edb57f02e1486e778745ca18126892d646633583752b00da305dc9b00fa9cdc7f8f97782a095e5aef3d9ec2cbc560c026f784ae19d63a73b1444b63cfe395ac04510850c13e08685e0ec64509f5db0a4341b322f8784d03d6c0088c5306a2ce39d5c4549afa25db3d86b13a4851546bfba97dd640e0e838ccf0112e88567b8d2f972850bcffd35733ed915f708ebdb1fa68bec3d8e650cfd9678043eae214c36100c92f440deef656b2dc9a3959486dad02c5e31a539f22ba30a9ecdf13ef1a2772273ef8f6fe38d98a54bade53d809d53fc573141382a121d601e1c25d0f0823d2bce77a5dbb0e7abae8b0c5d0aedf9b2bcf0de2e5c56e64c558e3f9aa4513172ecb32354759af455250819905793c3985525445f7f1727b2c8d34e3b3d28236ca2f8832b0ca90567bfc0f18fafd7a35cd4294fc1568b7c11c7232126917566735a1f1bebec625f336a2681eebcc6df0440ac3dad4bab1ff4125d7982af5818a1bf36c2876a081bb34d3801d08c90911e3cdedc2be409dfab13958fa379e457401a8ec8b4b0222f91162af15f711ee976f2189543d428ca92f11f184128ec0a9d755032d6ed43e52871c183b36494924832517a28a6e02f4edd7ede561ea6d71848ee63065742aabfdbbbea4569ec8bec8717c8e1e89a1191a84f06c4e2afa54040fe5e2477fc07a2474076d3247873e07259ac763b500ce9ae46fe4de775f9de6eacbfca2fd05df4eca665ee3d3a879784aba96cc217db64540ab463de3ec9773f207710d38e828ee7c01b59020470d339d9e296f6da98a1ad05b466c437ad53567a723d4a2c030e83221d476af8e03aa3bff51dffba5c09794e25e4236b1f0a19cadb7793b9d25d07d36d5002f0a6028a69d89496da37518de6b5a85ddd7e1cbc76adc5ea2c0e2727ed9bf50a370af1606205e83c2cf03c99e84427d4ac88a975281367113969267952ab60e6ad1b4acadc1fbae557bd974226a207dadfc01ebf203f3ca74f77049120c6aa0bfd7113d28cb833d3685bebeba223ced6e869489caf428d5943f0c5b3585e7c9e4a9e6957ec597f25481889668946eb948dbc89fc8f91b98c5a08236ab8663d7f68f34fd1bc9564479afca8588cbe4f0677305817d3c7f555b904c96378471b2c9f1e889da50305d9e6149114bb30a07ba0f6a488fe91c381d59ead574ddf87683bc7e78271a203266697c93a7b7c1c8d5dff5040c20272f3a4c5d6065707f8a8b91939bb3d9e4f5132d35494a4f5067686a6b76a0d1dee2e3eaf7fb0e1c323b3c505e616a6f737d8b919b9ca6c1dcdfe4f5f800000e23374e01fd210500f2410870f24b749ae57a135a94ba0d5694e7877b424d3471e4ef5f22435864c0f5b9f68d6ebe3a301611ba33077cb1be8bf69b13764524e3ed3453da020815eef8bb8188d37ee115f720973e96888af66892cedd5dec93463057bafe4944da982a69642623bf1d506b53b9d02f6bdfd51cd710d7aa0399aa14e8a2c1f07e7e7240c9d96df379ce4dda923ce60da3c8d18cd5c442feed5f37fca72a70556c4b84938b8781a720c7d5a84058b50ec9742013a83c616216b105601d2759b0265698cad200c1fa023d54a04d86f76d75e37056b983e1b8d1e188415cdc59ccb491c4abafea72e7a47ea3be60410c2da372235ddfa9289888b99514e2e38e4b2e0bf5e3a63a463018026d3ac365e83ffc150659e593aeee718461084ac29609933afc96bfb48afe0c9851a920aff32d0a1566dc1bd2ed84cd0b591b13456c69f9d7fe512c91461c8d4a8d9f38511f9a544dd645822e9746a3783160acafe402dde43439bb58cca5050eaf26ffb4d7625a8e1e0f99e35c2ef72e02d847437e49dff4cefc41c6c6942bdb30c66aec5c9ee82fa437e9bc1086bb970ea22cda138097a36397b8d38fb45bbf45fc8fdcd9d43cd18b781f9e7de31dc449554742ee1e74f1530f1145ed3b6afcdbfde630cacacd6599d7290ebd121af199ef9c4fbc5464a843915a14fe4b7f9bbc815de566d0c33daade7c1ccdb68df27e27b58006f6c1504ada86738b76eab3870b0b662ffd120df02865ad761c44a5c52ebd7632b8ebe84ae85c2480b4de4b6c0e99340e42f6b4ea7267fec59edb45bf8c9ed4e1f4524aee6744b6389d2ae453953ac48aa1a58ff2b4bce139def2f6989d6dafb5356b2fad6b07db508ef7707a0ee57fa9edcd52364ffd9e916de4852b082017f3544f3f8dd7e1b138abab3d8034d1228ded6cc1a0da33cb903206c30bca159095097843291cde11cad97ce2fad50aa631197c25650c57ba19c6398f32ae7d35b700e8e4fc93fcae27923c74ba6c000cf277ffe416e3f794692f76847c1234bf25883dbfc8da0bf9a86bc19fc0b567305b1c03591888c254b7fc940d288c9d544a83ed27684beeee839b3aeb81cb45dff481ec9c7567e3d9c7d27bfeb2d7d13778f57facc82f1bf23bbd2ccc4cd9a072653cffbd0e452ed3863a4d38258f9dfe6ecca07fba16442e4981a07fb0854667a01da5f91673f8cc830dda4a8e4d3431efc3ebf7b9bd66a64886a336a8e5383768348feab19bed4d5d6186805e76edb29728cc08cee67a59fe1f44e27b71ee1dc2ac79685e48e4c646fb0f9152c8b77f81ae9b11e5276b2817e8b43f281427e7e9872aa847fa2a5483d85ee051208347c0d3114d4d5a25150085b33e07943c4bcf182d65c6498b4e4d901884b3ba3a61f1298b17106ddb2028eca45a7a1d860c19f00cde59d37faa86a200bfc5cce2626d9e2658a4c3aa3aab077e2be1ccadbafe47f90dacb361778fbbbd07acf8ae97294706e4e4a0ba0a3253081456b5e6cf22dc1f25cad5de10397ee81aeebb26297344ead7ab3971ea2fa90e1e3ecc525ef220a8143b48d21df2c8a25959cc03d168d4eabaa0e74c7fa697714f55ca5f0390b8e060204ca6f115b9c5387c6ce3d91e70a94b09864b7ed1775939cbb15e63651925d738f83e41d6498db5621767c3f9fe8d2fdfb7b2f8a176d2677cb97051f6c9dea580b827f1fdae4a99b54bb08fc9b20935822a8d06fabadf16c0f026a5442abd593a4efed9b68728c37404a86917f4b9bfcb07d3fd428555b4173ce922c0550455291f0edbe3ff46ad7790c6d58d791889f9576c1fbb77ab0adb9e6cae9aaade034dc47d27685ca809171312d89177de48976a000000",
  "txid": "d871dda2c1afe7ffa9c548e8acbdb10402bcb3955f8e763388b59ba385af5efe",
  "hash": "067e4d7e15268009ce31a482249fe9f8ada7b84a066d13fe1be560f8f447d211",
  "size": 5085,
  "vsize": 2278,
  "version": 1,
  "locktime": 106,
  "vin": [
    {
      "txid": "49818fd8f04bb1fd3f8474b0b9074d9c04422160742e34b46dc21fd43a6fa2f9",
      "vout": 0,
      "scriptSig": {
        "asm": "",
        "hex": ""
      },
      "txinwitness": [
        "db9ccff74ae09dd7f547375b89bfa69c67b93dfe124d19969e4a15aab12ce103108a7c49a3cbc8236f445e84a6c1ad5b6a6e68064460cfadb1aa10f3c573f2d4773ad0c64085a62fbafd4a282183c7e5d04cf6cb4c9101139349ad22b956768d8b8562ffe15425428f74239bbf91817c7fd088d029c9328df0d4f6aea5152426a4d6bf5b57cc2492218572824524b279e6f9446adf4346f035d232e0c258bd2800762ed7d37ac1c8c5b5087dedb9b47732b49eaba3af330c28cd9c785d3a2a6c8bc0a46e5e82d5cd8ead1f334abc4dde86dcbf9e85afe1d27af3f844056b4b30e9f0791b3c08b0adea567419a703e9ffa34c53f2ebff2235cede3bd7a0b2c8c88b915781f7f0f43f4a7a3060296e949738249a7e7211c39ee4fd9b7895d96683a08d943bcd4c5d3ae38ba2ba42555e10c5f8b58d733c4d1554dfdb88d8bd105203122a277de22cf5d8df61edcafc569c5e33579ac60b131939bffbfc93a03a62a62e8c00d24c7d2bb12723f5e3614026ac1ef6d2b8ba0bc4f26276dd4266203c2a89c0764ebb30c98bafb8133afc6723eaffe6bbd6569bb0cf1994cba8903a760fd1c23f7e775ad7e3dc8ef5c506ac241f646c97bda9d6393d0a88c45df00f83c04c728342518e807b21d43319871d888cc18f13fff1ceebcec46e599d4ad234627257f6d8255acab8e176f82825c6b19307e743574880e10367b9e259233bea499a353bb06f892324426d4fde28f228df00a1f9b9d16470af28dcca5f7ae518c6cce1f64fcefb14a30838045bdc65d1fdef9d4a574bd221444ca1299dc4e967fb0578b7fa814b4f1d42869e39df7a851da516a4dd30ce3d5a004ccb93a8d1c05d9f2d5d58b220971843adb21abebe4c72fb80b7f6766f22d0c180889bf2c5b3248c88d028238f2e2b321ac9875eaf268b44f533b52189341e9488c6a5aede8f8dd69b4ae8165b2fa57fbc643b9d173289af7560b9bbd9c493c45e0d2fec811d495b5b3a6378295b3775cf49df714ee89d2bba77818243953a84620496d15ce797bdadc748718a5a903492790ad482393083eeb90abe6e8511ba8265f5f943344583c785316072cdc99b3294b058ea738f1bbc21d2be8e5d678982cf94896754a12294f5a240e6c4f8fc413c37e98b7c560b38d868e27817be03ff4b9cb0fe343e98449dcc02b4bf7e1bcc68623fbee4cee98fec40dd00c8c346be36d436651b2fda26cb51524c28754170dabc24a25ce426f8dd56578a30bdea6c6adadf00af58a01576620f1f3ffb81e9fe623a8c5cf74e88b27566ff0dd7406c6cce03530545f2baff25734dd5c799288e3da22a3b7f4447aff505d107afc5d6d45b876e1a34d716a911fc0e74f3bf3b9811bf2141e26cff340ceb11f116ba4626a1d8671313bde2fba112a727d4841ed8bac6765e9b998ec70d2b2a0e84f9d6ffae495f5260582986b81856b27b8a73889c8928c854554ca8513c492e239acc2a8ba3955056f0ee41910f47274b681bda0fd25faee5c5ce4a2b9792dddc44e2afc395a6ed243946907a4bc4029aa64f6ff729dec7d88bb50160b76b2bb3333ba70bd6412b059b534a169ef951998a63e32df4c973244deeffe13f5a48b5ceed3fc33b8934fbae51018f52512c34b24fa99d67bf7649d4cc793ca518058f7633648f55fc0dd11b06fb3f5278fec428f9cf8557d1a417b74e6378a8edd7332023933354628554b313ded89730ed1e230fa8bdae500791761d7b6de6533797f7d675f6ffd5158f829139cd7712a70499bf297368fbf851fee0254163b07ec66d8dcb6faced67ff4714ba5ea54b44fde7c1cc7a513ce41bcbb201263a8988bddb78b29c0fe3e914f4cc914dde2a8c01e6a4474740584da95d7644f9cc60da9d9fce49f0c743e079a6de3a23ef0abac49fc2023f1a730bcabca3d296a7bed390151faf5776089d5efe1cd29eb4ef24e0bb3bdc9b36247e73f513967ce1204e145321d691eef0840509adf230f6ec08470683abe492fc592c72b5d7c230eff415d85acff2a8a4c9e344d79a5e77ed15dea4f9a9da4deb3c808c3280ca94c2c4faccdf2b103c3b8b086244ec4827f7c32685039cbc8edb57f02e1486e778745ca18126892d646633583752b00da305dc9b00fa9cdc7f8f97782a095e5aef3d9ec2cbc560c026f784ae19d63a73b1444b63cfe395ac04510850c13e08685e0ec64509f5db0a4341b322f8784d03d6c0088c5306a2ce39d5c4549afa25db3d86b13a4851546bfba97dd640e0e838ccf0112e88567b8d2f972850bcffd35733ed915f708ebdb1fa68bec3d8e650cfd9678043eae214c36100c92f440deef656b2dc9a3959486dad02c5e31a539f22ba30a9ecdf13ef1a2772273ef8f6fe38d98a54bade53d809d53fc573141382a121d601e1c25d0f0823d2bce77a5dbb0e7abae8b0c5d0aedf9b2bcf0de2e5c56e64c558e3f9aa4513172ecb32354759af455250819905793c3985525445f7f1727b2c8d34e3b3d28236ca2f8832b0ca90567bfc0f18fafd7a35cd4294fc1568b7c11c7232126917566735a1f1bebec625f336a2681eebcc6df0440ac3dad4bab1ff4125d7982af5818a1bf36c2876a081bb34d3801d08c90911e3cdedc2be409dfab13958fa379e457401a8ec8b4b0222f91162af15f711ee976f2189543d428ca92f11f184128ec0a9d755032d6ed43e52871c183b36494924832517a28a6e02f4edd7ede561ea6d71848ee63065742aabfdbbbea4569ec8bec8717c8e1e89a1191a84f06c4e2afa54040fe5e2477fc07a2474076d3247873e07259ac763b500ce9ae46fe4de775f9de6eacbfca2fd05df4eca665ee3d3a879784aba96cc217db64540ab463de3ec9773f207710d38e828ee7c01b59020470d339d9e296f6da98a1ad05b466c437ad53567a723d4a2c030e83221d476af8e03aa3bff51dffba5c09794e25e4236b1f0a19cadb7793b9d25d07d36d5002f0a6028a69d89496da37518de6b5a85ddd7e1cbc76adc5ea2c0e2727ed9bf50a370af1606205e83c2cf03c99e84427d4ac88a975281367113969267952ab60e6ad1b4acadc1fbae557bd974226a207dadfc01ebf203f3ca74f77049120c6aa0bfd7113d28cb833d3685bebeba223ced6e869489caf428d5943f0c5b3585e7c9e4a9e6957ec597f25481889668946eb948dbc89fc8f91b98c5a08236ab8663d7f68f34fd1bc9564479afca8588cbe4f0677305817d3c7f555b904c96378471b2c9f1e889da50305d9e6149114bb30a07ba0f6a488fe91c381d59ead574ddf87683bc7e78271a203266697c93a7b7c1c8d5dff5040c20272f3a4c5d6065707f8a8b91939bb3d9e4f5132d35494a4f5067686a6b76a0d1dee2e3eaf7fb0e1c323b3c505e616a6f737d8b919b9ca6c1dcdfe4f5f800000e23374e01",
        "00f2410870f24b749ae57a135a94ba0d5694e7877b424d3471e4ef5f22435864c0f5b9f68d6ebe3a301611ba33077cb1be8bf69b13764524e3ed3453da020815eef8bb8188d37ee115f720973e96888af66892cedd5dec93463057bafe4944da982a69642623bf1d506b53b9d02f6bdfd51cd710d7aa0399aa14e8a2c1f07e7e7240c9d96df379ce4dda923ce60da3c8d18cd5c442feed5f37fca72a70556c4b84938b8781a720c7d5a84058b50ec9742013a83c616216b105601d2759b0265698cad200c1fa023d54a04d86f76d75e37056b983e1b8d1e188415cdc59ccb491c4abafea72e7a47ea3be60410c2da372235ddfa9289888b99514e2e38e4b2e0bf5e3a63a463018026d3ac365e83ffc150659e593aeee718461084ac29609933afc96bfb48afe0c9851a920aff32d0a1566dc1bd2ed84cd0b591b13456c69f9d7fe512c91461c8d4a8d9f38511f9a544dd645822e9746a3783160acafe402dde43439bb58cca5050eaf26ffb4d7625a8e1e0f99e35c2ef72e02d847437e49dff4cefc41c6c6942bdb30c66aec5c9ee82fa437e9bc1086bb970ea22cda138097a36397b8d38fb45bbf45fc8fdcd9d43cd18b781f9e7de31dc449554742ee1e74f1530f1145ed3b6afcdbfde630cacacd6599d7290ebd121af199ef9c4fbc5464a843915a14fe4b7f9bbc815de566d0c33daade7c1ccdb68df27e27b58006f6c1504ada86738b76eab3870b0b662ffd120df02865ad761c44a5c52ebd7632b8ebe84ae85c2480b4de4b6c0e99340e42f6b4ea7267fec59edb45bf8c9ed4e1f4524aee6744b6389d2ae453953ac48aa1a58ff2b4bce139def2f6989d6dafb5356b2fad6b07db508ef7707a0ee57fa9edcd52364ffd9e916de4852b082017f3544f3f8dd7e1b138abab3d8034d1228ded6cc1a0da33cb903206c30bca159095097843291cde11cad97ce2fad50aa631197c25650c57ba19c6398f32ae7d35b700e8e4fc93fcae27923c74ba6c000cf277ffe416e3f794692f76847c1234bf25883dbfc8da0bf9a86bc19fc0b567305b1c03591888c254b7fc940d288c9d544a83ed27684beeee839b3aeb81cb45dff481ec9c7567e3d9c7d27bfeb2d7d13778f57facc82f1bf23bbd2ccc4cd9a072653cffbd0e452ed3863a4d38258f9dfe6ecca07fba16442e4981a07fb0854667a01da5f91673f8cc830dda4a8e4d3431efc3ebf7b9bd66a64886a336a8e5383768348feab19bed4d5d6186805e76edb29728cc08cee67a59fe1f44e27b71ee1dc2ac79685e48e4c646fb0f9152c8b77f81ae9b11e5276b2817e8b43f281427e7e9872aa847fa2a5483d85ee051208347c0d3114d4d5a25150085b33e07943c4bcf182d65c6498b4e4d901884b3ba3a61f1298b17106ddb2028eca45a7a1d860c19f00cde59d37faa86a200bfc5cce2626d9e2658a4c3aa3aab077e2be1ccadbafe47f90dacb361778fbbbd07acf8ae97294706e4e4a0ba0a3253081456b5e6cf22dc1f25cad5de10397ee81aeebb26297344ead7ab3971ea2fa90e1e3ecc525ef220a8143b48d21df2c8a25959cc03d168d4eabaa0e74c7fa697714f55ca5f0390b8e060204ca6f115b9c5387c6ce3d91e70a94b09864b7ed1775939cbb15e63651925d738f83e41d6498db5621767c3f9fe8d2fdfb7b2f8a176d2677cb97051f6c9dea580b827f1fdae4a99b54bb08fc9b20935822a8d06fabadf16c0f026a5442abd593a4efed9b68728c37404a86917f4b9bfcb07d3fd428555b4173ce922c0550455291f0edbe3ff46ad7790c6d58d791889f9576c1fbb77ab0adb9e6cae9aaade034dc47d27685ca809171312d89177de4897"
      ],
      "sequence": 4294967294
    }
  ],
  "vout": [
    {
      "value": 1.0,
      "n": 0,
      "scriptPubKey": {
        "asm": "OP_RETURN 5513b2967ef8cc1483b97831095ba96af29c9f7be51d66d3e3f20ffd96bd8ed7 05c720a366222f7226ee24fe2017db1bf87a24c4526782f59c4935f62aa1fac425e7008346020f5206ce04de0037fb3bd85a04e47247a2d5bc6915d60a81dae4458760e326626f3266ae64be60579b5bb83a64841227c2b5dc0975b66ae1ba8465a740c306424f12468e449e4077bb7b981a44a43207e295fc2955964ac19aa48547a023e6a2aff2a66ea47ea0975b9b78faa444d2e702751cc9b576aa217a44a5678003c6828fd2864e845e80b77bbb58da8464f2c722553ce995568a015a64c507e063a6e2efb2e62ee43ee0d71bdb38bae40492a742355c89f536ea613a04e527c04386c2cf92c60ec41ec0f73bfb189ac424b28762157ca9d516ca411a2405c720a366222f7226ee24fe2017db1bf87a24c4526782f59c4935f62aa1fac425e7008346020f5206ce04de0037fb3bd85a04e47247a2d5bc6915d60a81dae4458760e326626f3266ae64be60579b5bb83a64841227c2b5dc0975b66ae1ba8465a740c306424f12468e449e4077bb7b981a44a43207e295fc2955964ac19aa48547a023e6a2aff2a66ea47ea0975b9b78faa444d2e702751cc9b576aa217a44a5678003c6828fd2864e845e80b77bbb58da8464f2c722553ce995568a015a64c507e063a6e2efb2e62ee43ee0d71bdb38bae40492a742355c89f536ea613a04e527c04386c2cf92c60ec41ec0f73bfb189ac424b28762157ca9d516ca411a2405c720a366222f7226ee24fe2017db1bf87a24c4526782f59c4935f62aa1fac425e7008346020f5206ce04de0037fb3bd85a04e47247a2d5bc6915d60a81dae4458760e326626f3266ae64be60579b5bb83a64841227c2b5dc0975b66ae1ba8465a740c306424f12468e449e4077bb7b981a44a43207e295fc2955964ac19aa48547a023e6a2aff2a66ea47ea0975b9b78faa444d2e702751cc9b576aa217a44a5678003c6828fd2864e845e80b77bbb58da8464f2c722553ce995568a015a64c507e063a6e2efb2e62ee43ee0d71bdb38bae40492a742355c89f536ea613a04e527c04386c2cf92c60ec41ec0f73bfb189ac424b28762157ca9d516ca411a2405c720a366222f7226ee24fe2017db1bf87a24c4526782f59c4935f62aa1fac425e7008346020f5206ce04de0037fb3bd85a04e47247a2d5bc6915d60a81dae4458760e326626f3266ae64be60579b5bb83a64841227c2b5dc0975b66ae1ba8465a740c306424f12468e449e4077bb7b981a44a43207e295fc2955964ac19aa48547a023e6a2aff2a66ea47ea0975b9b78faa444d2e702751cc9b576aa217a44a5678003c6828fd2864e845e80b77bbb58da8464f2c722553ce995568a015a64c507e063a6e2efb2e62ee43ee0d71bdb38bae40492a742355c89f536ea613a04e527c04386c2cf92c60ec41ec0f73bfb189ac424b28762157ca9d516ca411a2405c720a366222f7226ee24fe2017db1bf87a24c4526782f59c4935f62aa1fac425e7008346020f5206ce04de0037fb3bd85a04e47247a2d5bc6915d60a81dae4458760e326626f3266ae64be60579b5bb83a64841227c2b5dc0975b66ae1ba8465a740c306424f12468e449e4077bb7b981a44a43207e295fc2955964ac19aa48547a023e6a2aff2a66ea47ea0975b9b0ba8fcd0c1e6e89c6888e643632f746995ff71693611c63d6512ea3fe7a4392b",
        "hex": "6a205513b2967ef8cc1483b97831095ba96af29c9f7be51d66d3e3f20ffd96bd8ed74db00405c720a366222f7226ee24fe2017db1bf87a24c4526782f59c4935f62aa1fac425e7008346020f5206ce04de0037fb3bd85a04e47247a2d5bc6915d60a81dae4458760e326626f3266ae64be60579b5bb83a64841227c2b5dc0975b66ae1ba8465a740c306424f12468e449e4077bb7b981a44a43207e295fc2955964ac19aa48547a023e6a2aff2a66ea47ea0975b9b78faa444d2e702751cc9b576aa217a44a5678003c6828fd2864e845e80b77bbb58da8464f2c722553ce995568a015a64c507e063a6e2efb2e62ee43ee0d71bdb38bae40492a742355c89f536ea613a04e527c04386c2cf92c60ec41ec0f73bfb189ac424b28762157ca9d516ca411a2405c720a366222f7226ee24fe2017db1bf87a24c4526782f59c4935f62aa1fac425e7008346020f5206ce04de0037fb3bd85a04e47247a2d5bc6915d60a81dae4458760e326626f3266ae64be60579b5bb83a64841227c2b5dc0975b66ae1ba8465a740c306424f12468e449e4077bb7b981a44a43207e295fc2955964ac19aa48547a023e6a2aff2a66ea47ea0975b9b78faa444d2e702751cc9b576aa217a44a5678003c6828fd2864e845e80b77bbb58da8464f2c722553ce995568a015a64c507e063a6e2efb2e62ee43ee0d71bdb38bae40492a742355c89f536ea613a04e527c04386c2cf92c60ec41ec0f73bfb189ac424b28762157ca9d516ca411a2405c720a366222f7226ee24fe2017db1bf87a24c4526782f59c4935f62aa1fac425e7008346020f5206ce04de0037fb3bd85a04e47247a2d5bc6915d60a81dae4458760e326626f3266ae64be60579b5bb83a64841227c2b5dc0975b66ae1ba8465a740c306424f12468e449e4077bb7b981a44a43207e295fc2955964ac19aa48547a023e6a2aff2a66ea47ea0975b9b78faa444d2e702751cc9b576aa217a44a5678003c6828fd2864e845e80b77bbb58da8464f2c722553ce995568a015a64c507e063a6e2efb2e62ee43ee0d71bdb38bae40492a742355c89f536ea613a04e527c04386c2cf92c60ec41ec0f73bfb189ac424b28762157ca9d516ca411a2405c720a366222f7226ee24fe2017db1bf87a24c4526782f59c4935f62aa1fac425e7008346020f5206ce04de0037fb3bd85a04e47247a2d5bc6915d60a81dae4458760e326626f3266ae64be60579b5bb83a64841227c2b5dc0975b66ae1ba8465a740c306424f12468e449e4077bb7b981a44a43207e295fc2955964ac19aa48547a023e6a2aff2a66ea47ea0975b9b78faa444d2e702751cc9b576aa217a44a5678003c6828fd2864e845e80b77bbb58da8464f2c722553ce995568a015a64c507e063a6e2efb2e62ee43ee0d71bdb38bae40492a742355c89f536ea613a04e527c04386c2cf92c60ec41ec0f73bfb189ac424b28762157ca9d516ca411a2405c720a366222f7226ee24fe2017db1bf87a24c4526782f59c4935f62aa1fac425e7008346020f5206ce04de0037fb3bd85a04e47247a2d5bc6915d60a81dae4458760e326626f3266ae64be60579b5bb83a64841227c2b5dc0975b66ae1ba8465a740c306424f12468e449e4077bb7b981a44a43207e295fc2955964ac19aa48547a023e6a2aff2a66ea47ea0975b9b0ba8fcd0c1e6e89c6888e643632f746995ff71693611c63d6512ea3fe7a4392b",
        "type": "nulldata"
      }
    },
    {
      "value": 499980.6789,
      "n": 1,
      "scriptPubKey": {
        "asm": "1 c80f40b782969b1f4924066392478e70c5040d8130ed0a49386c03311b56ddd4",
        "hex": "5120c80f40b782969b1f4924066392478e70c5040d8130ed0a49386c03311b56ddd4",
        "reqSigs": 1,
        "type": "witness_v1_scripthash",
        "addresses": [
          "3QJmnh"
        ]
      }
    }
  ],
  "blockhash": "443ef5589806c3570db60b1178f56898637f167918ce0f0236a27ac7d0512dc1",
  "confirmations": 1,
  "time": 1764179461,
  "blocktime": 1764179461
}