{
  "hex": "0100000000010152120a12a568f257958346992b7ee9264f60277dd19cfb8a8310d4c79c56290c0100000000feffffff0220cc6133792d0000225120f4727788bc079790ef5ee2e16c2077cf07bd83f76c9c725c0f38cb3f2cf7dfac00e1f50500000000fdd5046a20360da89c1871f4459398475c97e0cf5044b4d0374ade7f7b67604733e8aefcb94db00495bf9eda52e1cb86e1c8b91c72805ba34a464bf4bebb66eadd1e1eabc1701206b59fbefa72c1eba6c1e8993c52a07b836a666bd49e9b46cafd3e3e8be1503226d5ffde9a12a18bc6a188f95c32c01be30a060bb4fefb26aa9d5e5eeb81305246f5dffeba3281abe681a8d97c12e03bc32a262b94dedb068abd7e7ecba1107266153f1e5ad2614b066148399cf200db23cac6cb743e3be66a5d9e9e2b41f09286351f3e7af2416b26416819bcd220fb03eae6eb541e1bc64a7dbebe0b61d0b2a6557f5e1a92210b46210879dcb2409b638a868b347e7ba62a1ddede6b01b0d2c6755f7e3ab2012b66012859fc9260bb43aaa6ab145e5b860a3dfefe4b2190f2e695bf9eda52e1cb86e1c8b91c72805ba34a464bf4bebb66eadd1e1eabc1701206b59fbefa72c1eba6c1e8993c52a07b836a666bd49e9b46cafd3e3e8be1503226d5ffde9a12a18bc6a188f95c32c01be30a060bb4fefb26aa9d5e5eeb81305246f5dffeba3281abe681a8d97c12e03bc32a262b94dedb068abd7e7ecba1107266153f1e5ad2614b066148399cf200db23cac6cb743e3be66a5d9e9e2b41f09286351f3e7af2416b26416819bcd220fb03eae6eb541e1bc64a7dbebe0b61d0b2a6557f5e1a92210b46210879dcb2409b638a868b347e7ba62a1ddede6b01b0d2c6755f7e3ab2012b66012859fc9260bb43aaa6ab145e5b860a3dfefe4b2190f2e695bf9eda52e1cb86e1c8b91c72805ba34a464bf4bebb66eadd1e1eabc1701206b59fbefa72c1eba6c1e8993c52a07b836a666bd49e9b46cafd3e3e8be1503226d5ffde9a12a18bc6a188f95c32c01be30a060bb4fefb26aa9d5e5eeb81305246f5dffeba3281abe681a8d97c12e03bc32a262b94dedb068abd7e7ecba1107266153f1e5ad2614b066148399cf200db23cac6cb743e3be66a5d9e9e2b41f09286351f3e7af2416b26416819bcd220fb03eae6eb541e1bc64a7dbebe0b61d0b2a6557f5e1a92210b46210879dcb2409b638a868b347e7ba62a1ddede6b01b0d2c6755f7e3ab2012b66012859fc9260bb43aaa6ab145e5b860a3dfefe4b2190f2e695bf9eda52e1cb86e1c8b91c72805ba34a464bf4bebb66eadd1e1eabc1701206b59fbefa72c1eba6c1e8993c52a07b836a666bd49e9b46cafd3e3e8be1503226d5ffde9a12a18bc6a188f95c32c01be30a060bb4fefb26aa9d5e5eeb81305246f5dffeba3281abe681a8d97c12e03bc32a262b94dedb068abd7e7ecba1107266153f1e5ad2614b066148399cf200db23cac6cb743e3be66a5d9e9e2b41f09286351f3e7af2416b26416819bcd220fb03eae6eb541e1bc64a7dbebe0b61d0b2a6557f5e1a92210b46210879dcb2409b638a868b347e7ba62a1ddede6b01b0d2c6755f7e3ab2012b66012859fc9260bb43aaa6ab145e5b860a3dfefe4b2190f2e695bf9eda52e1cb86e1c8b91c72805ba34a464bf4bebb66eadd1e1eabc1701206b59fbefa72c1eba6c1e8993c52a07b836a666bd49e9b46cafd3e3e8be1503226d5ffde9a12a18bc6a188f95c32c01be30a060bb4fefb26aa9d5e5eeb81305246f5dffeba3281abe681a8d97c12e03bc32a262b94dedb068abd7e7ecba1107266153f1e5ad2614b066148399cf200db23e65ba27867e685ab8739aec137fcdcbf4b5e6f088540c48cfae4c819d210f6a402fd7509ff33e8171ecd55df6114a791dad206a16aa79e31957f6a58603cae2583ed0e5964b6f20bcc03ac58baceeb5d5a74dcfbe5ec72167ae0567069e17a23f31937771e52f994e267fa84eed1e3b5b03f8d7f8d29187a5f4869afc5ccf44466dafc2aba0296f04fe2530c1d830c09b09883d58e6cd039c18991d5abe314e36d352e034402f3184cb1537ca6567ef90b1a3ff18d6d9642aa5dce054f824f5e2c7f78934d7c3a722f10beb4430fa1db48d475ff3976b48d369789901538cf189a6efe734cf0d93977ef0c4a0f6cd4ec9521032d3f9f82dfa7644a26097267aa55254400aa35a13ac85de0dead145102c936a38716409a133ebbd3d1ded1e075ce21c3f886187c7ee705d49c2d4dba43294a204a29da0120d003478bd8079737775cf1dbe89603f11593fdf6655cfe41e68fe65f8454a62c6ba1ed486a061ed508479f734746a52ce3e00da2b1c6285cd3198c8b9ed18386c38fba64ac2a62fe18268420e2312ad40d776cfeceb81fc30ce9290abee82be6f23dae8973dea9852fd2d613aa61fd8d646149ea903a668ece82e99d967863c1be68714a5ef144ee6dd0122e6b4840170cb66dd18638b3e67371a3c374696a7feac424b05cb081c2e8a484c08fa3e71e497674710b3b7bb2ceeac2479f860655cb2464bbf2f7ada36258fa56e5d2f8e26c68ab587063b1e86174f74b28b5d56b18a44ce60de2d2f4dd009a4377c60e465b42d9e984ea5d2aea08ff36730a9f83e768c3b0166f761a2848ce431428782f985e522102c78504f4a5ec1d529bac852c6643f588ce7b3756fe26e3127717bf901184b57f3261bc156a8d27c9019d173d11714a99c478962f6c274112496b931a26ec62185eb4408eae8662f11afdbd6963b735d66abe2565250c813074baa113733039190119a07173aa87ec42ef2a93f98bb1d93e8d781440a26147bad563d5fb7c1cf422a0a6b7e995d514761dfcf76a877030836726351d3e3fc1d850c26ae1ef2e965d7e1407c6ac4f05cb23d75e36efd4d16d4d72aaab19845775f3d0164bc261a9662077a17f7e13093ca11f0a1623334de07bf181ac3f50b61cac8a2ddfa672293159a307e1a102fd07624f83fc8ff897fddedbf2f10ad7e7e17d4b38d2b6b9d55f364ee0256bf5bcb8273f9eaa8f30afb1adde5fc001c030cb168b0990ba231f98fa60f7ed64d3f96eafb1602e785b364d77f0665e2c33053f42d6ccc4460bb2106cb5ab0b69036441c0538cb3abbd8b71106c55225eab5c6a812f6f9815c5f6c890a4a426c58039dabbcf4b6ffca5154b66ddbebc164e00cfa999662d36ad64def4756855c561c17946adb0ac56840809ef9e96b6ab611f1d0a3f60e93f0b3331f666ddf9170e23fb69bb2a8338347b3a6080b5e4c29ef14332a2d59ec0e5f9d2d768d7abaeb928d0064a52ea817761b92196b87df0790865525eb663334fe7ff4d7db820f63da733c8fc8ff1308344062b26e4fe7b2e31bff04b75bbd63cd998a9588c0fdb537ff6ef0084ae1535caf33e0b16cbe7766550d2ec3398fc144acb1d4cadabf6ba0ad11b83fb781e9ad678051b37cffc750c2abc9921bf11ac3c643b71b757cdf5d773a2576bce6eba1a4db36de1f917fa9d15a06db9eed38698b8df299596f07e2befcd01e7e934b856cbbbc7a7040770f2ad5598efe1f175bef07d4c6269ccda7b9d113faec469546839b21f0131f0ca7ab384291a7671fdf62757880904684325dd5994ce8fc6fc8703e7fa4d9c40f85df013ccc88259873cbfca3b252329f9349a42fbe9e99481b34c8ab265e5f9a57ca4dfd9bdddb36140b3c2f4ebaca9826a8400c035fc3ba8c0763da271ed8e30c26a8df817ad18d256ffca0fc541bef136c262eaf9970d187168d90450bff05e2ee671080963dbfdb7616fc0653f137a46222396b222255f91e46156c5693675bc8830d2db1c52ac82f372988170257a87efc51fe71ee8d92b0a9369ecded3c727302c8b37df6c36ae4de85b8d8b3984370335ff1dca4c923dc53bd11e6e9933164033f0528b91b000df16e1ca3793c6912448ebcfbe4e857dcfa2f1aa5618c18bb11467e2f57d885afc32270dba26250230514bdaefd35b9849f33d8d103d14fdbcc0b0c89fbe1c3cc34aa6de579f6a480268d4f205adc97dbb4872ff43dba091002e157d60ab88a77989e493bcde029e7d8f6f2b6e63bdefbc2f9ef665f20e1d7e92a6c77a358e178323c9bee53568cb26015fd31b0201ffc22cdffc4007e2b39c86518f9dea02ca78c6156c8e5cfd84c660dab1fba89cbcf736f7549152543adb966b285165e6ef7e88db3bd7f0aae33e462ad0f9e30cc2f01f5eaa394b0c9496e2624f2777ef50a551a90f629a7288a6e9f1f1534f977097203a5e1ce94b47870a294048462024c3478410f24bcb10eadbda96a78a45f69bbb0038a6bd9e2393af08ac3b9b1b424e3aeb87137849d3513130ba9f046f85683fec69c9c2ccd944f236a07fc5d6297a42becd24a94f9f74613506f8eba63b6c997f8d14bc01e90bf88de19100888cd14511534a69053ced0a0ff7920eb92154c912aef0b28a15a7dec5d46fce2754c959513bdda0811b7dc24fee94c0922cc2cc970544b3cd95f335ba1511bc908938d00fffdd9b55532c1c7a8a8a143031a4b53f7857327b02e94121eb161dd03e8e3888f06ed6ea34f5ee4373360046ab751d513f5196d6829800b14aa22eb7c404cac96b71f6ed6c1a8da3b7d1721f394147fa00edd56d81402ade45b1cdeac61128ea1e4ab3d0241c941c95425aa4cf448ed7cc99155aa0468b83e62318e9cf246227fb005a2b90d11f5cb47d19ac06580fb00bdf11f2cf920f9f112bbbc6998c3bb8cc01f5f734659d7264eb492bd80e8a667f9949afba53c4e90c349eb1da918001605ad7e4c42a7fe10d6c7d05592045a5ea03dc0702d325f4fcda4f0a6b6959bf8fb5939e22dcdd32d84c5119f7cae984ea5b8d38fe150dc59d3e498b81b349c31f291a9739aa6aa0db1a8a6f37f591bc3c71f053addf74146d9d6e7c6c539904844b31f6e5af78b1e38d406556ac3d0ca5e9b25e5c7cb60354b003f311246d41585cca91b2305c080932502948a3360bd0b11980439e560cd962931426fd2e3598845f90991c353e8958fcce91acf50cf66e2584099af1952d672a980557915999a11bc457a7fd4272241c5d797e1083c9f9bf1e54bf892bc50e01b8c97cdc5e8a21ebfe4b4702cceeb6533da7c692c59dfba3267e0def6b604249a2bc7b07db9557a8fbc3108f5a86631aaf685f8c80e212c837070813191b28425b6367757b8788a4b5ccd7eeff0e2f3435455e5f646886b0b3b9bad3d705061341474e526883878891a1d9dadfe1ef121a222a45555a616e989fb2bac2c9d1dee0f9000000000000001424364901fd210500df033f722a7f0c957500996848dd8a6281dd8635facf024a1bab9c44dc656d2fa77364f9e5de3bb14b769b65d2f1360db9e072c84422e82c6f75541abff8046cb343f61083db9aab9feb4463b5e02af7506058bd3c779adbabd866b2cbfb42bfe366c03390d7f9853f07368736bb207d183d98026b5f17e3b3f31d983a3a64b6586719518c1c32e3c75ae1b5626747c626b0f83a6fcc797a346365deb9a905e1c5f01ff3d301e2fde4c774e9f8d19f98526f2522777b484390744817402adbcfcc1865ac76e2e3155ce0df3a0f143ed1370be96bfec2e7a6f81b36e7d56b85c5e78fbccaf37e26743159561befd75e5254a9899946cee9767aa7fcea2171808ba11c69b46cf93445f5b352e926e2f3c14b9557b6b316e2f757d363b6943a5defb1e07cb3b46ab43db37e141c234781b725e2630ba269beebf02fa55174ec16ed33cefa4744dcdda421a01082f4b3a26639fcdb5bafe9d86f08d8f0b7cab60b5453db6497f05436b65238097e7ea45ebce596a995fe46b5f8ff58202b54c106c7d997bf25fdcb64bcf0934a61a5c293821ed1d28b7dd5aa4e1e74934c55e48802474fca91ab95691934f665a409de3ecf7f6cb2ed8fb11aba7f1c02717998bc4ae26bfcba88fba632fa4d4b19aa56c165dde3fcd765a7e27543cbb3ef988db3e3d9bf2de0fd5b44c824ac3821787c5f3688f3fe181573cfa60e1e0eaae2d3495b2eb3561053c5bcbc157bf79aecbb12d09139f61f470df0f842cf01ae509dfd4fbfafeb23c7beec55544e69a375208696ea6af2e9f1d5f9dd5bc423ec5a258afb82f1ae9847f31ddb4de619c5a0163edc973b04daac437e4fa15650cdd092f53a6e72d3f4e305b1ac0f4c0be7f39bf13e2116cef869c41b943caac687158595f284a15c56dc8197fd158fdbd29eff30a1e3c45dd4848c3a0e00b54c28a9775cf62c4a6d7264c74a19fd57410c8213596d0da0858017cf2f889d35b7e67ab5d889ae73ea43fa0689c1c4e022a5ec764abefd8111356cf3bd967aee55eea429a83998808f64ad15cb8d98322b1bff502fa0005f5811bff83b39a1acdc36d97b1d2747fb8e07ba9efb2c235c0f698fcaea89147a3fa670490a3650167e7593dfe2e7fde5e9bf0f88e60283b1993d9c8a78e9c119966a12c40531d8d60115862ae85a91dbc6c6bc8e42f2d9b681ad27f43d26fa89ce7b553fa75290db3c82feb1dba9444b781463d2753f75084cae87145563fdf31339666421215a8fdb98ad3db3ed4cc251e6b2da4e31849d0d8822dbdb46ef03b39444c17b082cb481ea63c3a36c37c64fc6e17845a4c9863795861419971b8bb52f99bcf482c2369445debf1d131d72bf1fb3ebbd305eceb511545395daed1bc3d59167cb9dc7d47d127cf3633891471557252054f3ebf203d43248a7a676fc44c3046d4c322fa4422a2db7cbf788a9b51a01ab5023576d62536ed786505bcc83fceb12ae9ae4edb0f0be7239bea3cfaeb93c53fcc93558998c0b72ec66f83e8680cb7122758fcea11a7c0f2742716592d67e6b76e6eb1e0dfda3ad7fae1cd32238bbd21f30451c75ed16708b84cfb03e70cbee4af1f8febdc214af2a4f3b8e6596c01c184d289e78cee1c6ed7000511da5638f487266379d222a15933596b47d703c527d30bd7fd49235575f1395bdb1c857af8ea5b631138f7fe525e1734454418114c8f4b849446162e56c111573875b0ff2cb129e5f9dd8d6d7e67ffd44fc75dc45f20917415c0995a331bbf5da6725dc7ec867487d071d80c1cbc0b1540927ced9c2cdca78302bab501f0d4e081ffd4041c70759908f948e51af6481eaa85fd0176371f27b89d272d39e3a71000000",
  "txid": "dfd7360840b85308d0c087553d200b3d97907fb92fe735095d8745ee0e198d8c",
  "hash": "451a1fe2cf605217d5c024cdb291ef9365aca5ab0b85db66bdc9cb5db30f209e",
  "size": 5085,
  "vsize": 2278,
  "version": 1,
  "locktime": 113,
  "vin": [
    {
      "txid": "0c29569cc7d410838afb9cd17d27604f26e97e2b9946839557f268a5120a1252",
      "vout": 1,
      "scriptSig": {
        "asm": "",
        "hex": ""
      },
      "txinwitness": [
        "ff33e8171ecd55df6114a791dad206a16aa79e31957f6a58603cae2583ed0e5964b6f20bcc03ac58baceeb5d5a74dcfbe5ec72167ae0567069e17a23f31937771e52f994e267fa84eed1e3b5b03f8d7f8d29187a5f4869afc5ccf44466dafc2aba0296f04fe2530c1d830c09b09883d58e6cd039c18991d5abe314e36d352e034402f3184cb1537ca6567ef90b1a3ff18d6d9642aa5dce054f824f5e2c7f78934d7c3a722f10beb4430fa1db48d475ff3976b48d369789901538cf189a6efe734cf0d93977ef0c4a0f6cd4ec9521032d3f9f82dfa7644a26097267aa55254400aa35a13ac85de0dead145102c936a38716409a133ebbd3d1ded1e075ce21c3f886187c7ee705d49c2d4dba43294a204a29da0120d003478bd8079737775cf1dbe89603f11593fdf6655cfe41e68fe65f8454a62c6ba1ed486a061ed508479f734746a52ce3e00da2b1c6285cd3198c8b9ed18386c38fba64ac2a62fe18268420e2312ad40d776cfeceb81fc30ce9290abee82be6f23dae8973dea9852fd2d613aa61fd8d646149ea903a668ece82e99d967863c1be68714a5ef144ee6dd0122e6b4840170cb66dd18638b3e67371a3c374696a7feac424b05cb081c2e8a484c08fa3e71e497674710b3b7bb2ceeac2479f860655cb2464bbf2f7ada36258fa56e5d2f8e26c68ab587063b1e86174f74b28b5d56b18a44ce60de2d2f4dd009a4377c60e465b42d9e984ea5d2aea08ff36730a9f83e768c3b0166f761a2848ce431428782f985e522102c78504f4a5ec1d529bac852c6643f588ce7b3756fe26e3127717bf901184b57f3261bc156a8d27c9019d173d11714a99c478962f6c274112496b931a26ec62185eb4408eae8662f11afdbd6963b735d66abe2565250c813074baa113733039190119a07173aa87ec42ef2a93f98bb1d93e8d781440a26147bad563d5fb7c1cf422a0a6b7e995d514761dfcf76a877030836726351d3e3fc1d850c26ae1ef2e965d7e1407c6ac4f05cb23d75e36efd4d16d4d72aaab19845775f3d0164bc261a9662077a17f7e13093ca11f0a1623334de07bf181ac3f50b61cac8a2ddfa672293159a307e1a102fd07624f83fc8ff897fddedbf2f10ad7e7e17d4b38d2b6b9d55f364ee0256bf5bcb8273f9eaa8f30afb1adde5fc001c030cb168b0990ba231f98fa60f7ed64d3f96eafb1602e785b364d77f0665e2c33053f42d6ccc4460bb2106cb5ab0b69036441c0538cb3abbd8b71106c55225eab5c6a812f6f9815c5f6c890a4a426c58039dabbcf4b6ffca5154b66ddbebc164e00cfa999662d36ad64def4756855c561c17946adb0ac56840809ef9e96b6ab611f1d0a3f60e93f0b3331f666ddf9170e23fb69bb2a8338347b3a6080b5e4c29ef14332a2d59ec0e5f9d2d768d7abaeb928d0064a52ea817761b92196b87df0790865525eb663334fe7ff4d7db820f63da733c8fc8ff1308344062b26e4fe7b2e31bff04b75bbd63cd998a9588c0fdb537ff6ef0084ae1535caf33e0b16cbe7766550d2ec3398fc144acb1d4cadabf6ba0ad11b83fb781e9ad678051b37cffc750c2abc9921bf11ac3c643b71b757cdf5d773a2576bce6eba1a4db36de1f917fa9d15a06db9eed38698b8df299596f07e2befcd01e7e934b856cbbbc7a7040770f2ad5598efe1f175bef07d4c6269ccda7b9d113faec469546839b21f0131f0ca7ab384291a7671fdf62757880904684325dd5994ce8fc6fc8703e7fa4d9c40f85df013ccc88259873cbfca3b252329f9349a42fbe9e99481b34c8ab265e5f9a57ca4dfd9bdddb36140b3c2f4ebaca9826a8400c035fc3ba8c0763da271ed8e30c26a8df817ad18d256ffca0fc541bef136c262eaf9970d187168d90450bff05e2ee671080963dbfdb7616fc0653f137a46222396b222255f91e46156c5693675bc8830d2db1c52ac82f372988170257a87efc51fe71ee8d92b0a9369ecded3c727302c8b37df6c36ae4de85b8d8b3984370335ff1dca4c923dc53bd11e6e9933164033f0528b91b000df16e1ca3793c6912448ebcfbe4e857dcfa2f1aa5618c18bb11467e2f57d885afc32270dba26250230514bdaefd35b9849f33d8d103d14fdbcc0b0c89fbe1c3cc34aa6de579f6a480268d4f205adc97dbb4872ff43dba091002e157d60ab88a77989e493bcde029e7d8f6f2b6e63bdefbc2f9ef665f20e1d7e92a6c77a358e178323c9bee53568cb26015fd31b0201ffc22cdffc4007e2b39c86518f9dea02ca78c6156c8e5cfd84c660dab1fba89cbcf736f7549152543adb966b285165e6ef7e88db3bd7f0aae33e462ad0f9e30cc2f01f5eaa394b0c9496e2624f2777ef50a551a90f629a7288a6e9f1f1534f977097203a5e1ce94b47870a294048462024c3478410f24bcb10eadbda96a78a45f69bbb0038a6bd9e2393af08ac3b9b1b424e3aeb87137849d3513130ba9f046f85683fec69c9c2ccd944f236a07fc5d6297a42becd24a94f9f74613506f8eba63b6c997f8d14bc01e90bf88de19100888cd14511534a69053ced0a0ff7920eb92154c912aef0b28a15a7dec5d46fce2754c959513bdda0811b7dc24fee94c0922cc2cc970544b3cd95f335ba1511bc908938d00fffdd9b55532c1c7a8a8a143031a4b53f7857327b02e94121eb161dd03e8e3888f06ed6ea34f5ee4373360046ab751d513f5196d6829800b14aa22eb7c404cac96b71f6ed6c1a8da3b7d1721f394147fa00edd56d81402ade45b1cdeac61128ea1e4ab3d0241c941c95425aa4cf448ed7cc99155aa0468b83e62318e9cf246227fb005a2b90d11f5cb47d19ac06580fb00bdf11f2cf920f9f112bbbc6998c3bb8cc01f5f734659d7264eb492bd80e8a667f9949afba53c4e90c349eb1da918001605ad7e4c42a7fe10d6c7d05592045a5ea03dc0702d325f4fcda4f0a6b6959bf8fb5939e22dcdd32d84c5119f7cae984ea5b8d38fe150dc59d3e498b81b349c31f291a9739aa6aa0db1a8a6f37f591bc3c71f053addf74146d9d6e7c6c539904844b31f6e5af78b1e38d406556ac3d0ca5e9b25e5c7cb60354b003f311246d41585cca91b2305c080932502948a3360bd0b11980439e560cd962931426fd2e3598845f90991c353e8958fcce91acf50cf66e2584099af1952d672a980557915999a11bc457a7fd4272241c5d797e1083c9f9bf1e54bf892bc50e01b8c97cdc5e8a21ebfe4b4702cceeb6533da7c692c59dfba3267e0def6b604249a2bc7b07db9557a8fbc3108f5a86631aaf685f8c80e212c837070813191b28425b6367757b8788a4b5ccd7eeff0e2f3435455e5f646886b0b3b9bad3d705061341474e526883878891a1d9dadfe1ef121a222a45555a616e989fb2bac2c9d1dee0f9000000000000001424364901",
        "00df033f722a7f0c957500996848dd8a6281dd8635facf024a1bab9c44dc656d2fa77364f9e5de3bb14b769b65d2f1360db9e072c84422e82c6f75541abff8046cb343f61083db9aab9feb4463b5e02af7506058bd3c779adbabd866b2cbfb42bfe366c03390d7f9853f07368736bb207d183d98026b5f17e3b3f31d983a3a64b6586719518c1c32e3c75ae1b5626747c626b0f83a6fcc797a346365deb9a905e1c5f01ff3d301e2fde4c774e9f8d19f98526f2522777b484390744817402adbcfcc1865ac76e2e3155ce0df3a0f143ed1370be96bfec2e7a6f81b36e7d56b85c5e78fbccaf37e26743159561befd75e5254a9899946cee9767aa7fcea2171808ba11c69b46cf93445f5b352e926e2f3c14b9557b6b316e2f757d363b6943a5defb1e07cb3b46ab43db37e141c234781b725e2630ba269beebf02fa55174ec16ed33cefa4744dcdda421a01082f4b3a26639fcdb5bafe9d86f08d8f0b7cab60b5453db6497f05436b65238097e7ea45ebce596a995fe46b5f8ff58202b54c106c7d997bf25fdcb64bcf0934a61a5c293821ed1d28b7dd5aa4e1e74934c55e48802474fca91ab95691934f665a409de3ecf7f6cb2ed8fb11aba7f1c02717998bc4ae26bfcba88fba632fa4d4b19aa56c165dde3fcd765a7e27543cbb3ef988db3e3d9bf2de0fd5b44c824ac3821787c5f3688f3fe181573cfa60e1e0eaae2d3495b2eb3561053c5bcbc157bf79aecbb12d09139f61f470df0f842cf01ae509dfd4fbfafeb23c7beec55544e69a375208696ea6af2e9f1d5f9dd5bc423ec5a258afb82f1ae9847f31ddb4de619c5a0163edc973b04daac437e4fa15650cdd092f53a6e72d3f4e305b1ac0f4c0be7f39bf13e2116cef869c41b943caac687158595f284a15c56dc8197fd158fdbd29eff30a1e3c45dd4848c3a0e00b54c28a9775cf62c4a6d7264c74a19fd57410c8213596d0da0858017cf2f889d35b7e67ab5d889ae73ea43fa0689c1c4e022a5ec764abefd8111356cf3bd967aee55eea429a83998808f64ad15cb8d98322b1bff502fa0005f5811bff83b39a1acdc36d97b1d2747fb8e07ba9efb2c235c0f698fcaea89147a3fa670490a3650167e7593dfe2e7fde5e9bf0f88e60283b1993d9c8a78e9c119966a12c40531d8d60115862ae85a91dbc6c6bc8e42f2d9b681ad27f43d26fa89ce7b553fa75290db3c82feb1dba9444b781463d2753f75084cae87145563fdf31339666421215a8fdb98ad3db3ed4cc251e6b2da4e31849d0d8822dbdb46ef03b39444c17b082cb481ea63c3a36c37c64fc6e17845a4c9863795861419971b8bb52f99bcf482c2369445debf1d131d72bf1fb3ebbd305eceb511545395daed1bc3d59167cb9dc7d47d127cf3633891471557252054f3ebf203d43248a7a676fc44c3046d4c322fa4422a2db7cbf788a9b51a01ab5023576d62536ed786505bcc83fceb12ae9ae4edb0f0be7239bea3cfaeb93c53fcc93558998c0b72ec66f83e8680cb7122758fcea11a7c0f2742716592d67e6b76e6eb1e0dfda3ad7fae1cd32238bbd21f30451c75ed16708b84cfb03e70cbee4af1f8febdc214af2a4f3b8e6596c01c184d289e78cee1c6ed7000511da5638f487266379d222a15933596b47d703c527d30bd7fd49235575f1395bdb1c857af8ea5b631138f7fe525e1734454418114c8f4b849446162e56c111573875b0ff2cb129e5f9dd8d6d7e67ffd44fc75dc45f20917415c0995a331bbf5da6725dc7ec867487d071d80c1cbc0b1540927ced9c2cdca78302bab501f0d4e081ffd4041c70759908f948e51af6481eaa85fd0176371f27b89d272d39e3a"
      ],
      "sequence": 4294967294
    }
  ],
  "vout": [
    {
      "value": 499985.7634,
      "n": 0,
      "scriptPubKey": {
        "asm": "1 f4727788bc079790ef5ee2e16c2077cf07bd83f76c9c725c0f38cb3f2cf7dfac",
        "hex": "5120f4727788bc079790ef5ee2e16c2077cf07bd83f76c9c725c0f38cb3f2cf7dfac",
        "reqSigs": 1,
        "type": "witness_v1_scripthash",
        "addresses": [
          "3QJmnh"
        ]
      }
    },
    {
      "value": 1.0,
      "n": 1,
      "scriptPubKey": {
        "asm": "OP_RETURN 360da89c1871f4459398475c97e0cf5044b4d0374ade7f7b67604733e8aefcb9 95bf9eda52e1cb86e1c8b91c72805ba34a464bf4bebb66eadd1e1eabc1701206b59fbefa72c1eba6c1e8993c52a07b836a666bd49e9b46cafd3e3e8be1503226d5ffde9a12a18bc6a188f95c32c01be30a060bb4fefb26aa9d5e5eeb81305246f5dffeba3281abe681a8d97c12e03bc32a262b94dedb068abd7e7ecba1107266153f1e5ad2614b066148399cf200db23cac6cb743e3be66a5d9e9e2b41f09286351f3e7af2416b26416819bcd220fb03eae6eb541e1bc64a7dbebe0b61d0b2a6557f5e1a92210b46210879dcb2409b638a868b347e7ba62a1ddede6b01b0d2c6755f7e3ab2012b66012859fc9260bb43aaa6ab145e5b860a3dfefe4b2190f2e695bf9eda52e1cb86e1c8b91c72805ba34a464bf4bebb66eadd1e1eabc1701206b59fbefa72c1eba6c1e8993c52a07b836a666bd49e9b46cafd3e3e8be1503226d5ffde9a12a18bc6a188f95c32c01be30a060bb4fefb26aa9d5e5eeb81305246f5dffeba3281abe681a8d97c12e03bc32a262b94dedb068abd7e7ecba1107266153f1e5ad2614b066148399cf200db23cac6cb743e3be66a5d9e9e2b41f09286351f3e7af2416b26416819bcd220fb03eae6eb541e1bc64a7dbebe0b61d0b2a6557f5e1a92210b46210879dcb2409b638a868b347e7ba62a1ddede6b01b0d2c6755f7e3ab2012b66012859fc9260bb43aaa6ab145e5b860a3dfefe4b2190f2e695bf9eda52e1cb86e1c8b91c72805ba34a464bf4bebb66eadd1e1eabc1701206b59fbefa72c1eba6c1e8993c52a07b836a666bd49e9b46cafd3e3e8be1503226d5ffde9a12a18bc6a188f95c32c01be30a060bb4fefb26aa9d5e5eeb81305246f5dffeba3281abe681a8d97c12e03bc32a262b94dedb068abd7e7ecba1107266153f1e5ad2614b066148399cf200db23cac6cb743e3be66a5d9e9e2b41f09286351f3e7af2416b26416819bcd220fb03eae6eb541e1bc64a7dbebe0b61d0b2a6557f5e1a92210b46210879dcb2409b638a868b347e7ba62a1ddede6b01b0d2c6755f7e3ab2012b66012859fc9260bb43aaa6ab145e5b860a3dfefe4b2190f2e695bf9eda52e1cb86e1c8b91c72805ba34a464bf4bebb66eadd1e1eabc1701206b59fbefa72c1eba6c1e8993c52a07b836a666bd49e9b46cafd3e3e8be1503226d5ffde9a12a18bc6a188f95c32c01be30a060bb4fefb26aa9d5e5eeb81305246f5dffeba3281abe681a8d97c12e03bc32a262b94dedb068abd7e7ecba1107266153f1e5ad2614b066148399cf200db23cac6cb743e3be66a5d9e9e2b41f09286351f3e7af2416b26416819bcd220fb03eae6eb541e1bc64a7dbebe0b61d0b2a6557f5e1a92210b46210879dcb2409b638a868b347e7ba62a1ddede6b01b0d2c6755f7e3ab2012b66012859fc9260bb43aaa6ab145e5b860a3dfefe4b2190f2e695bf9eda52e1cb86e1c8b91c72805ba34a464bf4bebb66eadd1e1eabc1701206b59fbefa72c1eba6c1e8993c52a07b836a666bd49e9b46cafd3e3e8be1503226d5ffde9a12a18bc6a188f95c32c01be30a060bb4fefb26aa9d5e5eeb81305246f5dffeba3281abe681a8d97c12e03bc32a262b94dedb068abd7e7ecba1107266153f1e5ad2614b066148399cf200db23e65ba27867e685ab8739aec137fcdcbf4b5e6f088540c48cfae4c819d210f6a4",
        "hex": "6a20360da89c1871f4459398475c97e0cf5044b4d0374ade7f7b67604733e8aefcb94db00495bf9eda52e1cb86e1c8b91c72805ba34a464bf4bebb66eadd1e1eabc1701206b59fbefa72c1eba6c1e8993c52a07b836a666bd49e9b46cafd3e3e8be1503226d5ffde9a12a18bc6a188f95c32c01be30a060bb4fefb26aa9d5e5eeb81305246f5dffeba3281abe681a8d97c12e03bc32a262b94dedb068abd7e7ecba1107266153f1e5ad2614b066148399cf200db23cac6cb743e3be66a5d9e9e2b41f09286351f3e7af2416b26416819bcd220fb03eae6eb541e1bc64a7dbebe0b61d0b2a6557f5e1a92210b46210879dcb2409b638a868b347e7ba62a1ddede6b01b0d2c6755f7e3ab2012b66012859fc9260bb43aaa6ab145e5b860a3dfefe4b2190f2e695bf9eda52e1cb86e1c8b91c72805ba34a464bf4bebb66eadd1e1eabc1701206b59fbefa72c1eba6c1e8993c52a07b836a666bd49e9b46cafd3e3e8be1503226d5ffde9a12a18bc6a188f95c32c01be30a060bb4fefb26aa9d5e5eeb81305246f5dffeba3281abe681a8d97c12e03bc32a262b94dedb068abd7e7ecba1107266153f1e5ad2614b066148399cf200db23cac6cb743e3be66a5d9e9e2b41f09286351f3e7af2416b26416819bcd220fb03eae6eb541e1bc64a7dbebe0b61d0b2a6557f5e1a92210b46210879dcb2409b638a868b347e7ba62a1ddede6b01b0d2c6755f7e3ab2012b66012859fc9260bb43aaa6ab145e5b860a3dfefe4b2190f2e695bf9eda52e1cb86e1c8b91c72805ba34a464bf4bebb66eadd1e1eabc1701206b59fbefa72c1eba6c1e8993c52a07b836a666bd49e9b46cafd3e3e8be1503226d5ffde9a12a18bc6a188f95c32c01be30a060bb4fefb26aa9d5e5eeb81305246f5dffeba3281abe681a8d97c12e03bc32a262b94dedb068abd7e7ecba1107266153f1e5ad2614b066148399cf200db23cac6cb743e3be66a5d9e9e2b41f09286351f3e7af2416b26416819bcd220fb03eae6eb541e1bc64a7dbebe0b61d0b2a6557f5e1a92210b46210879dcb2409b638a868b347e7ba62a1ddede6b01b0d2c6755f7e3ab2012b66012859fc9260bb43aaa6ab145e5b860a3dfefe4b2190f2e695bf9eda52e1cb86e1c8b91c72805ba34a464bf4bebb66eadd1e1eabc1701206b59fbefa72c1eba6c1e8993c52a07b836a666bd49e9b46cafd3e3e8be1503226d5ffde9a12a18bc6a188f95c32c01be30a060bb4fefb26aa9d5e5eeb81305246f5dffeba3281abe681a8d97c12e03bc32a262b94dedb068abd7e7ecba1107266153f1e5ad2614b066148399cf200db23cac6cb743e3be66a5d9e9e2b41f09286351f3e7af2416b26416819bcd220fb03eae6eb541e1bc64a7dbebe0b61d0b2a6557f5e1a92210b46210879dcb2409b638a868b347e7ba62a1ddede6b01b0d2c6755f7e3ab2012b66012859fc9260bb43aaa6ab145e5b860a3dfefe4b2190f2e695bf9eda52e1cb86e1c8b91c72805ba34a464bf4bebb66eadd1e1eabc1701206b59fbefa72c1eba6c1e8993c52a07b836a666bd49e9b46cafd3e3e8be1503226d5ffde9a12a18bc6a188f95c32c01be30a060bb4fefb26aa9d5e5eeb81305246f5dffeba3281abe681a8d97c12e03bc32a262b94dedb068abd7e7ecba1107266153f1e5ad2614b066148399cf200db23e65ba27867e685ab8739aec137fcdcbf4b5e6f088540c48cfae4c819d210f6a4",
        "type": "nulldata"
      }
    }
  ],
  "blockhash": "d7a7b9a6fa9b7eeca4ed3b292cd4c21f070551bfab2aaeca0619c41458c07723",
  "confirmations": 1,
  "time": 1764178593,
  "blocktime": 1764178593
}