{
  "hex": "0100000000010108b961ce71653ad417386637c5df099c00655cadcce9fb0cfc91013125db9d750000000000feffffff02d0cb9045792d000022512059bb92f35ed4a1a9cad897bb75470438bddc560cea39745c4e30c9f1b72f6a8d00e1f50500000000fdd5046a20c463a5238ee2ddacbebfd851a3431434a7c1c5408097214ac4e317da59adedf44db004f96ae1bebd42c402959ddc6cc7d7f8b1dc54229fbe05d4a8efab27b02f06ef09d94ac19e9d62e422b5bdfc4ce7f7d891fc7402bf9e25f488cf8b07900f26cf29b92aa1fefd028442d5dd9c2c8797b8f19c1462dffe4594e8afeb67f06f46af49990a81dedd22a462f5fdbc0ca7b798d1bc3442ffde65b4c88fcb47d04f668f6979ea613e3dc24482151d5cec475778315cd4a21f3e8554286f2ba730af866f8959ca411e1de264a2353d7ccc677758117cf4823f1ea574084f0b87108fa64fa939aa217e7d8204c2555d1cac071738711c94e25f7ec514682f6be770efc62fc9198a015e5da224e2757d3c8c273718513cb4c27f5ee534480f4bc750cfe60fe9f96ae1bebd42c402959ddc6cc7d7f8b1dc54229fbe05d4a8efab27b02f06ef09d94ac19e9d62e422b5bdfc4ce7f7d891fc7402bf9e25f488cf8b07900f26cf29b92aa1fefd028442d5dd9c2c8797b8f19c1462dffe4594e8afeb67f06f46af49990a81dedd22a462f5fdbc0ca7b798d1bc3442ffde65b4c88fcb47d04f668f6979ea613e3dc24482151d5cec475778315cd4a21f3e8554286f2ba730af866f8959ca411e1de264a2353d7ccc677758117cf4823f1ea574084f0b87108fa64fa939aa217e7d8204c2555d1cac071738711c94e25f7ec514682f6be770efc62fc9198a015e5da224e2757d3c8c273718513cb4c27f5ee534480f4bc750cfe60fe9f96ae1bebd42c402959ddc6cc7d7f8b1dc54229fbe05d4a8efab27b02f06ef09d94ac19e9d62e422b5bdfc4ce7f7d891fc7402bf9e25f488cf8b07900f26cf29b92aa1fefd028442d5dd9c2c8797b8f19c1462dffe4594e8afeb67f06f46af49990a81dedd22a462f5fdbc0ca7b798d1bc3442ffde65b4c88fcb47d04f668f6979ea613e3dc24482151d5cec475778315cd4a21f3e8554286f2ba730af866f8959ca411e1de264a2353d7ccc677758117cf4823f1ea574084f0b87108fa64fa939aa217e7d8204c2555d1cac071738711c94e25f7ec514682f6be770efc62fc9198a015e5da224e2757d3c8c273718513cb4c27f5ee534480f4bc750cfe60fe9f96ae1bebd42c402959ddc6cc7d7f8b1dc54229fbe05d4a8efab27b02f06ef09d94ac19e9d62e422b5bdfc4ce7f7d891fc7402bf9e25f488cf8b07900f26cf29b92aa1fefd028442d5dd9c2c8797b8f19c1462dffe4594e8afeb67f06f46af49990a81dedd22a462f5fdbc0ca7b798d1bc3442ffde65b4c88fcb47d04f668f6979ea613e3dc24482151d5cec475778315cd4a21f3e8554286f2ba730af866f8959ca411e1de264a2353d7ccc677758117cf4823f1ea574084f0b87108fa64fa939aa217e7d8204c2555d1cac071738711c94e25f7ec514682f6be770efc62fc9198a015e5da224e2757d3c8c273718513cb4c27f5ee534480f4bc750cfe60fe9f96ae1bebd42c402959ddc6cc7d7f8b1dc54229fbe05d4a8efab27b02f06ef09d94ac19e9d62e422b5bdfc4ce7f7d891fc7402bf9e25f488cf8b07900f26cf29b92aa1fefd028442d5dd9c2c8797b8f19c1462dffe4594e8afeb67f06f46af49990a81dedd22a462f5fdbc0ca7b798d1bc3442ffde65b4c88fcb47d04f668f6979ea613e3dc24482151d5cec47577831286c9cfcd2284d90f3d0859e07d389883f8be1582b51dbb0abe2c42aa990ce2102fd7509453e0e430aeeef92a9c5dac255b564278772277bbddd04349fff7704a703acae7780a059fec40e158b1ccf1b15972af5a4c5a4fac6b6cf55f0a1ddb9ba2a92ade7c9b3b357fc936d2c397688822948dc9a0b39a09590c0006e29b52586a61a2c3439b41e395799644e73fc6da892bb1f18d0fb0ab24e41b02d5f56d003bdc52d045de90275b1985637b79841a631026cd6253bb28063dbf14908e97ad7722944572f79b490ab7182f9455f4c5f94b7f6bcee011444a81a8316b80ee6c436e79cb955513440b399c65276db0412ff4147d3071795434fbf2d68851dfabaac633bb209aa888e77ed20d70adc68fd780658486d03fa332ce5f39f32823e07bc633b7dce15c05022eb8637a0a618fb6a1af61471768f0b285759f162d448711cf0aba0453c6dc471f3191adf5b67452951e466992043619ee26526a7633bc6431092f163289c043990d32c3ac19710eac6d32e7d429e4935a60106c1ca4badfb4c0da4402a76fe770f40b5195757eca0a24c47b9c0963cf74a3bf73956684556489770a2c197a5ea5b7fc04329c93c72981136eb7c6f1cdfdbfdfca04a8639c05bf05887e68f61b1ae3a1dd7218af4a71095f142e9e59d8ceb5e50d433322f06deee4fd8a31bc95b4a3e1ab289bd284c76fcf51c1db2898f838286f03429a0698b31ba468c1aa5b1faa324e6236b57ef95c5e7088648fa761e91bd09807eec4b65498f040c73d2007e74d0a8f82357940582771c0f45e09aee68e61f22313da5ea4e25b16c091664a7ceb5a1c4a0a6c7c5ef408c2e5ec53603e1101e17f87ad5c62c62c8918831bac5362eafcba45e7d494400ab6644bd5370361053a4db4d864739cb4f6c1c90bd32bd544752dd090505a09051b983b5d994a8ef6edd10c1a7f4dcc8a70eafd614c11d1d5dbc8d557cb4b9f85146da5f1a668a284b649112779bd8c2dce2f7d0398890ae2fead7b06fa7a17e6eba6d9bfe6a5cb30d2c066f49a86396fa29f1f7600a091788d3e8e0d9c0c56297073a421dd8efd0d4f7a429a91f911a98ecb5e37379bb11dedebbcb1fcdc36792031dff7b3f6c874b2a2111294581f380ba8638adbd07e3013a2c3b3bffb7f380ec1f1f5aa18fa70b389d37d85aa03cacc8b96f1e0c74150717b9e352e5c97a9dbf4cc6f589dee2e62ddf0d60a14a7c9b80d622e9ca7ec135394cd6b465eb413877ac13a1b6c6e7ba1adc55dc6670bb822367fad9990a104c6d103ada26e35027559761666fb74d79c988a661345887b86e3f3dd4189cc6e3ac47eb88cfbf6b2ee8d576d7c5df09dfb8be6d862cfb613458abe23a883a36e90bf5cced83f9b70ff714d7977c56f4e604013504598e4927082d96807a6d383947d3b757739f81367211d1bffc2f8fc355756722964e0e2af5875202a5ade4d992729615efa8ead1a466966ba5322d3c648039ed78166bfc92890aa2ebca3ba67024ed10db401997be1c9353c06dffa1b27d061a9bbb51bde612c22e0791e03cbfe614b592cf447c006abf2805c9be5f601dff11283fddcbe2a16843c37fca74cbf4f1035294060f81f89bc95ca122d3bace495ba7a6605907a3f29ba8b964701f79c595e42278dc67370aaadf1f5ac9c412a40307a00a4d1830feefa524ca251627ee86b906409f8935b2edd57b33399b0966dc7cc948fb25dca9fda075c56f5cec05c28a5876f8874298468e65764f9aab6683070e9fa085dd8831b6423c8582d0c7535a781324da6faa84f0db25f8313fca36c1ad848e824f3ac944c7ec1f6341de504fa2ccf1f1f3ea99ab4c29b5b907e1c9376d501f0c628ffda40e3df0c9301eaca296b946de54a98785e2408ae58bbc43f83b870107809e12d9c6a8fb0acc912cd841783634272bf4a03848ecd568fa286d0b0a7bc0cafcc4b5548b147e63dd1af5da336159242d66e1890ed9351724451d774c3cef000164ea739a26cbaf8cb4cc96c17b896591ac70ffb543e0216c78c06caa2188cb259beef3b40658a3635da0134600aa282bae32fda2a6fbc049d9d1d6a8f7b2b2bbc676a99761978a05d0fb2ac054288f3369be21e78c9546ebc989b4fe601570e0ac6d48e1648396b88b25f33afcdf444cb9fe8f5c8152cb31fbd4d8e829bcd166bfed8d25bc77d52ce21be4c7ac9ab352a004588d9b3c4a83b16be4861a39ea4b068f08ad68623fce8ec1407a104da5819d799bf1da3401380592a09aa55c908b6ec9a82e2a67a853466398c4cce0979bc7b88f2bf2bf2619bc7cb190a2d9ff3172edcd1087cec21907418a4b0913491095233e3ad80779f0ed284f85fb2a147519d172e4edbd68f7f3e1a5949e160bb433ae55c89c8562dd175e9976dd634d4cfc4e6da222fe495e5fc969370b68d2e7c5bce53bb7e92232c74b1d0944c8e7b657811994dbd27319a3dbc1c527366c04826692051f56898e8066933d08813d9674051d7171ed2287642d85bf7fe465f397614d06fd6db2d1db40d9a2bc2e73719707dadae9eae23b112e7544025fe04002b8fd0260a7cd516c4c418755054460ce4abc937b43dfe2284b1290ef9a3c61d62dd5ac907731149f080335d3e651704d545896cdad5b6f10153b7b1138ec9b066c2cc60ce564e0d722c7e5c51c9e204b1488ea21462810e2673991221252d6632490941543e0c4c2bf59848d99b204b63583fa71d1e4ee30ae5a08491f7ba705246b7e1f426749ea1da32ec32c6ac9d1f2aae02aefd93446458669fafed2b82922e95f2f29871f65da51d1cd525e056099244f57d1b09c484a57223cd9a025bb11cd88236a2aeae55a43cb370a1065050e338de9208c669149b21ebb56c25dae1dca74c351512c4faea38d26a612365a33a021f59866835f2b1c28366a89f927cc21cfbdd0330fbe67147e8e26b13f0f3922b7be149960487f91d1f7863ffa867578b062555e8344415b8d44e4b879f1f6236f5cf7542f21803b8bddae660880a03d6409739d201ce9a06d78c7f0dec89bc71c230ee11e9eec2599f415ddde950b46b813aa4542537dcd151ef08a51a4af4d4f10c46081d7a4a7c7fe4c2a2a6ed4657fb16a0d5ae2e6765dc57e16c96dc6e0c164f81173dcc94206f36a5b5bf20a2c552bc850083b33fd9ee05cccf23552d42fc58c2c10aad4185a5d56e085a92f94c610d5ca93888f961e120ed3a92bff764970b3d36a331eaeeed308f8b726e51e9fd425a32798930d60febc48c051f41dc77e0d6ab3841a7b742f33fb1a5adfff55c99ea3a3aa83231e962bbfbd74fffa2c6c60a92e627e0789213f351d5ba62791b45e76294d097b0b223437383f414a4e5f6ea5aeba090e1e42596d9296a3a4a8aab4c5cad3d9191d3439494b50666a7a90949ab3bfc4d1dbf70211191f466395a2d7e6f0000000000000000000000000000000000000000e1f323d01fd210500d6b4cc7ea65c93a9bc65c5d408771d89dd6c76cf3fe8597c7ba549dd1583899f368964656b7631c7ceb8141dc377f3d9698de6e8b39c05a10650bb28c58c78e49fdeb7187fee8549345b1d9f9337485f9905d007459c78086d45282b11111e6e8221e37170f01cd6d3a9c7fae02dbcc6d15715ec7e98756173baeb4b4d3c375341f7fdcc7d70dbe68687b7e6a965a6ec3c4183de6d6f8d967f4cf2b91aa6ae543aef4096dc3cf9488ffd995a88464c4f2f84c0e337db972ee47845d00bceaaf950b6b92d4b017a8d04bcd5a93661ba5e5686461716dc58e2111f1bdb6e810db97eaae7fdf2524720e7b3d5d15c57fecfe30f25dc36018b47b561489a565c483d0da50e355507522467163ea6d36b5c87021b17ceb0ed299ee6a5a2ee2a12f225a4f2a901988d3af38d542795acbfff6b39addf73f5299d6236a04519359d07efe3689f2f1f656ec74a44797cd579dc78b69bd613e76e18a6ab4ed47df91ca9d8359d50b084f5762d03baacf3864d1089db52644c1bfd37004504c9f0bc91e84e2b3f7099afa0c35f5a2e94215232cc1e24c198f2c32fc63286b748d842ddc427827cf81521113981fef27aa38dc5a02c28af207e910ef877dc34ffc09023988ff43c8858cb5f21270a59d594ef94c7a4ca1d985d5bf6e58d6552e99d23a91a14539e8907ecbebcd779224082adf575e8b82b90f296fb291409750350c14fdb783738767414f19b204d8970b4ac608d948f1e23ec370c8958a7e4312d2a62631318d8406e2131ffa7b28c294894f1821194cc9b28d15a3bc13f9db5dd5ab121fbc4ee4694206a1dc0531388e27247976cfbc4e65e427336d26b1f195a3ce595916e32fd868fadee24f14c0574b76693a6cceaea2c5534575a008d5f6b81211ff4c1185d0112cb5d5d725a82859d9a40f4c64baaa9b6af5383d71a167751060ea18928dfe4853e9b95d17870a429c49e8fb43f1cd2cf9ef8b46519cae4551da32264e396ccca262403bb886bd2f9a1cddda97c7c2411537d95dce08d74c87184b3bf6c8cdfe88bd8d5ca1e88e7a1cf43883e29119500301d510eaede85ded50a2a62be28498c1559c0786a5382dc17caffc1873ed593477ddb8704ce42d5079ba94b570aec068bdf3d15df08926c0be4a1ef2c9946d1c6a5225b90d7cfa72725c5ea2778cdb24b5a7aae7be153a59a735a7fe07fb0e2ded44b07e760bd0e439fdccc7d2127c86a241cabf275ebb6756950402876676aae8e4415da08f2f31567a92b2db1967f31e14b773dfd9d0b81161d0155b649141632df38156741a22a78c15c0090c958f82208a70cf9b21c855679dc54ccd0ae54c303e34a9a29e9b75f0b063cc9da16b60f4e5033a0cc46817967bf96c839b0fdaa4e139714c1bae47bb2bbefb755817a9181d59c3a6ba8a9459a1698c1e13bc5625a41fb00e29cce31c6915e59cf241cf2507b5cb2fadcf61d9cd6f7846fb3f960d645393b049861bfdb365964f6ef7dd1b2a33bb4c6e67598c1949cfbb22b49fe18dce8618ec9fbb7b47a6a742ae63d019635f98d907baafa95da0b29a875e72a7514d6192836e12e1e228eb6b4f73541301b8854c1f745a0982ead579f98ac6aec54ce1702930cd16bcc8d07390a837f551b983ad7094f88edc6a6368223468b10cc78b2f7fbf6076aaf4c6c4636b98d0004c43cd97960344667f095e159ced36b80aeb68ecd201fcad13ad39c955fdcf2eef582af75fa47159c7e2c9f78486bf200767810868452db2b3e6472749a711289ae4aa9ccd2a0e58d5d6543c7ffd0db2e21719cf569d119ab8b49c5657c8f6866aeed909a182a47f88fb2ace42a6c225e6056d2cf84f2a16a000000",
  "txid": "d663a2220f9f69ab241e2077af9abe5f0a7ab66cac7cef94bbfe7c3c8ab6335b",
  "hash": "648f675bb6abb08d97bab349673cc9fa383d1ce7dfe3b495e090af04311984f6",
  "size": 5085,
  "vsize": 2278,
  "version": 1,
  "locktime": 106,
  "vin": [
    {
      "txid": "759ddb25310191fc0cfbe9ccad5c65009c09dfc537663817d43a6571ce61b908",
      "vout": 0,
      "scriptSig": {
        "asm": "",
        "hex": ""
      },
      "txinwitness": [
        "453e0e430aeeef92a9c5dac255b564278772277bbddd04349fff7704a703acae7780a059fec40e158b1ccf1b15972af5a4c5a4fac6b6cf55f0a1ddb9ba2a92ade7c9b3b357fc936d2c397688822948dc9a0b39a09590c0006e29b52586a61a2c3439b41e395799644e73fc6da892bb1f18d0fb0ab24e41b02d5f56d003bdc52d045de90275b1985637b79841a631026cd6253bb28063dbf14908e97ad7722944572f79b490ab7182f9455f4c5f94b7f6bcee011444a81a8316b80ee6c436e79cb955513440b399c65276db0412ff4147d3071795434fbf2d68851dfabaac633bb209aa888e77ed20d70adc68fd780658486d03fa332ce5f39f32823e07bc633b7dce15c05022eb8637a0a618fb6a1af61471768f0b285759f162d448711cf0aba0453c6dc471f3191adf5b67452951e466992043619ee26526a7633bc6431092f163289c043990d32c3ac19710eac6d32e7d429e4935a60106c1ca4badfb4c0da4402a76fe770f40b5195757eca0a24c47b9c0963cf74a3bf73956684556489770a2c197a5ea5b7fc04329c93c72981136eb7c6f1cdfdbfdfca04a8639c05bf05887e68f61b1ae3a1dd7218af4a71095f142e9e59d8ceb5e50d433322f06deee4fd8a31bc95b4a3e1ab289bd284c76fcf51c1db2898f838286f03429a0698b31ba468c1aa5b1faa324e6236b57ef95c5e7088648fa761e91bd09807eec4b65498f040c73d2007e74d0a8f82357940582771c0f45e09aee68e61f22313da5ea4e25b16c091664a7ceb5a1c4a0a6c7c5ef408c2e5ec53603e1101e17f87ad5c62c62c8918831bac5362eafcba45e7d494400ab6644bd5370361053a4db4d864739cb4f6c1c90bd32bd544752dd090505a09051b983b5d994a8ef6edd10c1a7f4dcc8a70eafd614c11d1d5dbc8d557cb4b9f85146da5f1a668a284b649112779bd8c2dce2f7d0398890ae2fead7b06fa7a17e6eba6d9bfe6a5cb30d2c066f49a86396fa29f1f7600a091788d3e8e0d9c0c56297073a421dd8efd0d4f7a429a91f911a98ecb5e37379bb11dedebbcb1fcdc36792031dff7b3f6c874b2a2111294581f380ba8638adbd07e3013a2c3b3bffb7f380ec1f1f5aa18fa70b389d37d85aa03cacc8b96f1e0c74150717b9e352e5c97a9dbf4cc6f589dee2e62ddf0d60a14a7c9b80d622e9ca7ec135394cd6b465eb413877ac13a1b6c6e7ba1adc55dc6670bb822367fad9990a104c6d103ada26e35027559761666fb74d79c988a661345887b86e3f3dd4189cc6e3ac47eb88cfbf6b2ee8d576d7c5df09dfb8be6d862cfb613458abe23a883a36e90bf5cced83f9b70ff714d7977c56f4e604013504598e4927082d96807a6d383947d3b757739f81367211d1bffc2f8fc355756722964e0e2af5875202a5ade4d992729615efa8ead1a466966ba5322d3c648039ed78166bfc92890aa2ebca3ba67024ed10db401997be1c9353c06dffa1b27d061a9bbb51bde612c22e0791e03cbfe614b592cf447c006abf2805c9be5f601dff11283fddcbe2a16843c37fca74cbf4f1035294060f81f89bc95ca122d3bace495ba7a6605907a3f29ba8b964701f79c595e42278dc67370aaadf1f5ac9c412a40307a00a4d1830feefa524ca251627ee86b906409f8935b2edd57b33399b0966dc7cc948fb25dca9fda075c56f5cec05c28a5876f8874298468e65764f9aab6683070e9fa085dd8831b6423c8582d0c7535a781324da6faa84f0db25f8313fca36c1ad848e824f3ac944c7ec1f6341de504fa2ccf1f1f3ea99ab4c29b5b907e1c9376d501f0c628ffda40e3df0c9301eaca296b946de54a98785e2408ae58bbc43f83b870107809e12d9c6a8fb0acc912cd841783634272bf4a03848ecd568fa286d0b0a7bc0cafcc4b5548b147e63dd1af5da336159242d66e1890ed9351724451d774c3cef000164ea739a26cbaf8cb4cc96c17b896591ac70ffb543e0216c78c06caa2188cb259beef3b40658a3635da0134600aa282bae32fda2a6fbc049d9d1d6a8f7b2b2bbc676a99761978a05d0fb2ac054288f3369be21e78c9546ebc989b4fe601570e0ac6d48e1648396b88b25f33afcdf444cb9fe8f5c8152cb31fbd4d8e829bcd166bfed8d25bc77d52ce21be4c7ac9ab352a004588d9b3c4a83b16be4861a39ea4b068f08ad68623fce8ec1407a104da5819d799bf1da3401380592a09aa55c908b6ec9a82e2a67a853466398c4cce0979bc7b88f2bf2bf2619bc7cb190a2d9ff3172edcd1087cec21907418a4b0913491095233e3ad80779f0ed284f85fb2a147519d172e4edbd68f7f3e1a5949e160bb433ae55c89c8562dd175e9976dd634d4cfc4e6da222fe495e5fc969370b68d2e7c5bce53bb7e92232c74b1d0944c8e7b657811994dbd27319a3dbc1c527366c04826692051f56898e8066933d08813d9674051d7171ed2287642d85bf7fe465f397614d06fd6db2d1db40d9a2bc2e73719707dadae9eae23b112e7544025fe04002b8fd0260a7cd516c4c418755054460ce4abc937b43dfe2284b1290ef9a3c61d62dd5ac907731149f080335d3e651704d545896cdad5b6f10153b7b1138ec9b066c2cc60ce564e0d722c7e5c51c9e204b1488ea21462810e2673991221252d6632490941543e0c4c2bf59848d99b204b63583fa71d1e4ee30ae5a08491f7ba705246b7e1f426749ea1da32ec32c6ac9d1f2aae02aefd93446458669fafed2b82922e95f2f29871f65da51d1cd525e056099244f57d1b09c484a57223cd9a025bb11cd88236a2aeae55a43cb370a1065050e338de9208c669149b21ebb56c25dae1dca74c351512c4faea38d26a612365a33a021f59866835f2b1c28366a89f927cc21cfbdd0330fbe67147e8e26b13f0f3922b7be149960487f91d1f7863ffa867578b062555e8344415b8d44e4b879f1f6236f5cf7542f21803b8bddae660880a03d6409739d201ce9a06d78c7f0dec89bc71c230ee11e9eec2599f415ddde950b46b813aa4542537dcd151ef08a51a4af4d4f10c46081d7a4a7c7fe4c2a2a6ed4657fb16a0d5ae2e6765dc57e16c96dc6e0c164f81173dcc94206f36a5b5bf20a2c552bc850083b33fd9ee05cccf23552d42fc58c2c10aad4185a5d56e085a92f94c610d5ca93888f961e120ed3a92bff764970b3d36a331eaeeed308f8b726e51e9fd425a32798930d60febc48c051f41dc77e0d6ab3841a7b742f33fb1a5adfff55c99ea3a3aa83231e962bbfbd74fffa2c6c60a92e627e0789213f351d5ba62791b45e76294d097b0b223437383f414a4e5f6ea5aeba090e1e42596d9296a3a4a8aab4c5cad3d9191d3439494b50666a7a90949ab3bfc4d1dbf70211191f466395a2d7e6f0000000000000000000000000000000000000000e1f323d01",
        "00d6b4cc7ea65c93a9bc65c5d408771d89dd6c76cf3fe8597c7ba549dd1583899f368964656b7631c7ceb8141dc377f3d9698de6e8b39c05a10650bb28c58c78e49fdeb7187fee8549345b1d9f9337485f9905d007459c78086d45282b11111e6e8221e37170f01cd6d3a9c7fae02dbcc6d15715ec7e98756173baeb4b4d3c375341f7fdcc7d70dbe68687b7e6a965a6ec3c4183de6d6f8d967f4cf2b91aa6ae543aef4096dc3cf9488ffd995a88464c4f2f84c0e337db972ee47845d00bceaaf950b6b92d4b017a8d04bcd5a93661ba5e5686461716dc58e2111f1bdb6e810db97eaae7fdf2524720e7b3d5d15c57fecfe30f25dc36018b47b561489a565c483d0da50e355507522467163ea6d36b5c87021b17ceb0ed299ee6a5a2ee2a12f225a4f2a901988d3af38d542795acbfff6b39addf73f5299d6236a04519359d07efe3689f2f1f656ec74a44797cd579dc78b69bd613e76e18a6ab4ed47df91ca9d8359d50b084f5762d03baacf3864d1089db52644c1bfd37004504c9f0bc91e84e2b3f7099afa0c35f5a2e94215232cc1e24c198f2c32fc63286b748d842ddc427827cf81521113981fef27aa38dc5a02c28af207e910ef877dc34ffc09023988ff43c8858cb5f21270a59d594ef94c7a4ca1d985d5bf6e58d6552e99d23a91a14539e8907ecbebcd779224082adf575e8b82b90f296fb291409750350c14fdb783738767414f19b204d8970b4ac608d948f1e23ec370c8958a7e4312d2a62631318d8406e2131ffa7b28c294894f1821194cc9b28d15a3bc13f9db5dd5ab121fbc4ee4694206a1dc0531388e27247976cfbc4e65e427336d26b1f195a3ce595916e32fd868fadee24f14c0574b76693a6cceaea2c5534575a008d5f6b81211ff4c1185d0112cb5d5d725a82859d9a40f4c64baaa9b6af5383d71a167751060ea18928dfe4853e9b95d17870a429c49e8fb43f1cd2cf9ef8b46519cae4551da32264e396ccca262403bb886bd2f9a1cddda97c7c2411537d95dce08d74c87184b3bf6c8cdfe88bd8d5ca1e88e7a1cf43883e29119500301d510eaede85ded50a2a62be28498c1559c0786a5382dc17caffc1873ed593477ddb8704ce42d5079ba94b570aec068bdf3d15df08926c0be4a1ef2c9946d1c6a5225b90d7cfa72725c5ea2778cdb24b5a7aae7be153a59a735a7fe07fb0e2ded44b07e760bd0e439fdccc7d2127c86a241cabf275ebb6756950402876676aae8e4415da08f2f31567a92b2db1967f31e14b773dfd9d0b81161d0155b649141632df38156741a22a78c15c0090c958f82208a70cf9b21c855679dc54ccd0ae54c303e34a9a29e9b75f0b063cc9da16b60f4e5033a0cc46817967bf96c839b0fdaa4e139714c1bae47bb2bbefb755817a9181d59c3a6ba8a9459a1698c1e13bc5625a41fb00e29cce31c6915e59cf241cf2507b5cb2fadcf61d9cd6f7846fb3f960d645393b049861bfdb365964f6ef7dd1b2a33bb4c6e67598c1949cfbb22b49fe18dce8618ec9fbb7b47a6a742ae63d019635f98d907baafa95da0b29a875e72a7514d6192836e12e1e228eb6b4f73541301b8854c1f745a0982ead579f98ac6aec54ce1702930cd16bcc8d07390a837f551b983ad7094f88edc6a6368223468b10cc78b2f7fbf6076aaf4c6c4636b98d0004c43cd97960344667f095e159ced36b80aeb68ecd201fcad13ad39c955fdcf2eef582af75fa47159c7e2c9f78486bf200767810868452db2b3e6472749a711289ae4aa9ccd2a0e58d5d6543c7ffd0db2e21719cf569d119ab8b49c5657c8f6866aeed909a182a47f88fb2ace42a6c225e6056d2cf84f2a1"
      ],
      "sequence": 4294967294
    }
  ],
  "vout": [
    {
      "value": 499988.8141,
      "n": 0,
      "scriptPubKey": {
        "asm": "1 59bb92f35ed4a1a9cad897bb75470438bddc560cea39745c4e30c9f1b72f6a8d",
        "hex": "512059bb92f35ed4a1a9cad897bb75470438bddc560cea39745c4e30c9f1b72f6a8d",
        "reqSigs": 1,
        "type": "witness_v1_scripthash",
        "addresses": [
          "3QJmnh"
        ]
      }
    },
    {
      "value": 1.0,
      "n": 1,
      "scriptPubKey": {
        "asm": "OP_RETURN c463a5238ee2ddacbebfd851a3431434a7c1c5408097214ac4e317da59adedf4 f96ae1bebd42c402959ddc6cc7d7f8b1dc54229fbe05d4a8efab27b02f06ef09d94ac19e9d62e422b5bdfc4ce7f7d891fc7402bf9e25f488cf8b07900f26cf29b92aa1fefd028442d5dd9c2c8797b8f19c1462dffe4594e8afeb67f06f46af49990a81dedd22a462f5fdbc0ca7b798d1bc3442ffde65b4c88fcb47d04f668f6979ea613e3dc24482151d5cec475778315cd4a21f3e8554286f2ba730af866f8959ca411e1de264a2353d7ccc677758117cf4823f1ea574084f0b87108fa64fa939aa217e7d8204c2555d1cac071738711c94e25f7ec514682f6be770efc62fc9198a015e5da224e2757d3c8c273718513cb4c27f5ee534480f4bc750cfe60fe9f96ae1bebd42c402959ddc6cc7d7f8b1dc54229fbe05d4a8efab27b02f06ef09d94ac19e9d62e422b5bdfc4ce7f7d891fc7402bf9e25f488cf8b07900f26cf29b92aa1fefd028442d5dd9c2c8797b8f19c1462dffe4594e8afeb67f06f46af49990a81dedd22a462f5fdbc0ca7b798d1bc3442ffde65b4c88fcb47d04f668f6979ea613e3dc24482151d5cec475778315cd4a21f3e8554286f2ba730af866f8959ca411e1de264a2353d7ccc677758117cf4823f1ea574084f0b87108fa64fa939aa217e7d8204c2555d1cac071738711c94e25f7ec514682f6be770efc62fc9198a015e5da224e2757d3c8c273718513cb4c27f5ee534480f4bc750cfe60fe9f96ae1bebd42c402959ddc6cc7d7f8b1dc54229fbe05d4a8efab27b02f06ef09d94ac19e9d62e422b5bdfc4ce7f7d891fc7402bf9e25f488cf8b07900f26cf29b92aa1fefd028442d5dd9c2c8797b8f19c1462dffe4594e8afeb67f06f46af49990a81dedd22a462f5fdbc0ca7b798d1bc3442ffde65b4c88fcb47d04f668f6979ea613e3dc24482151d5cec475778315cd4a21f3e8554286f2ba730af866f8959ca411e1de264a2353d7ccc677758117cf4823f1ea574084f0b87108fa64fa939aa217e7d8204c2555d1cac071738711c94e25f7ec514682f6be770efc62fc9198a015e5da224e2757d3c8c273718513cb4c27f5ee534480f4bc750cfe60fe9f96ae1bebd42c402959ddc6cc7d7f8b1dc54229fbe05d4a8efab27b02f06ef09d94ac19e9d62e422b5bdfc4ce7f7d891fc7402bf9e25f488cf8b07900f26cf29b92aa1fefd028442d5dd9c2c8797b8f19c1462dffe4594e8afeb67f06f46af49990a81dedd22a462f5fdbc0ca7b798d1bc3442ffde65b4c88fcb47d04f668f6979ea613e3dc24482151d5cec475778315cd4a21f3e8554286f2ba730af866f8959ca411e1de264a2353d7ccc677758117cf4823f1ea574084f0b87108fa64fa939aa217e7d8204c2555d1cac071738711c94e25f7ec514682f6be770efc62fc9198a015e5da224e2757d3c8c273718513cb4c27f5ee534480f4bc750cfe60fe9f96ae1bebd42c402959ddc6cc7d7f8b1dc54229fbe05d4a8efab27b02f06ef09d94ac19e9d62e422b5bdfc4ce7f7d891fc7402bf9e25f488cf8b07900f26cf29b92aa1fefd028442d5dd9c2c8797b8f19c1462dffe4594e8afeb67f06f46af49990a81dedd22a462f5fdbc0ca7b798d1bc3442ffde65b4c88fcb47d04f668f6979ea613e3dc24482151d5cec47577831286c9cfcd2284d90f3d0859e07d389883f8be1582b51dbb0abe2c42aa990ce21",
        "hex": "6a20c463a5238ee2ddacbebfd851a3431434a7c1c5408097214ac4e317da59adedf44db004f96ae1bebd42c402959ddc6cc7d7f8b1dc54229fbe05d4a8efab27b02f06ef09d94ac19e9d62e422b5bdfc4ce7f7d891fc7402bf9e25f488cf8b07900f26cf29b92aa1fefd028442d5dd9c2c8797b8f19c1462dffe4594e8afeb67f06f46af49990a81dedd22a462f5fdbc0ca7b798d1bc3442ffde65b4c88fcb47d04f668f6979ea613e3dc24482151d5cec475778315cd4a21f3e8554286f2ba730af866f8959ca411e1de264a2353d7ccc677758117cf4823f1ea574084f0b87108fa64fa939aa217e7d8204c2555d1cac071738711c94e25f7ec514682f6be770efc62fc9198a015e5da224e2757d3c8c273718513cb4c27f5ee534480f4bc750cfe60fe9f96ae1bebd42c402959ddc6cc7d7f8b1dc54229fbe05d4a8efab27b02f06ef09d94ac19e9d62e422b5bdfc4ce7f7d891fc7402bf9e25f488cf8b07900f26cf29b92aa1fefd028442d5dd9c2c8797b8f19c1462dffe4594e8afeb67f06f46af49990a81dedd22a462f5fdbc0ca7b798d1bc3442ffde65b4c88fcb47d04f668f6979ea613e3dc24482151d5cec475778315cd4a21f3e8554286f2ba730af866f8959ca411e1de264a2353d7ccc677758117cf4823f1ea574084f0b87108fa64fa939aa217e7d8204c2555d1cac071738711c94e25f7ec514682f6be770efc62fc9198a015e5da224e2757d3c8c273718513cb4c27f5ee534480f4bc750cfe60fe9f96ae1bebd42c402959ddc6cc7d7f8b1dc54229fbe05d4a8efab27b02f06ef09d94ac19e9d62e422b5bdfc4ce7f7d891fc7402bf9e25f488cf8b07900f26cf29b92aa1fefd028442d5dd9c2c8797b8f19c1462dffe4594e8afeb67f06f46af49990a81dedd22a462f5fdbc0ca7b798d1bc3442ffde65b4c88fcb47d04f668f6979ea613e3dc24482151d5cec475778315cd4a21f3e8554286f2ba730af866f8959ca411e1de264a2353d7ccc677758117cf4823f1ea574084f0b87108fa64fa939aa217e7d8204c2555d1cac071738711c94e25f7ec514682f6be770efc62fc9198a015e5da224e2757d3c8c273718513cb4c27f5ee534480f4bc750cfe60fe9f96ae1bebd42c402959ddc6cc7d7f8b1dc54229fbe05d4a8efab27b02f06ef09d94ac19e9d62e422b5bdfc4ce7f7d891fc7402bf9e25f488cf8b07900f26cf29b92aa1fefd028442d5dd9c2c8797b8f19c1462dffe4594e8afeb67f06f46af49990a81dedd22a462f5fdbc0ca7b798d1bc3442ffde65b4c88fcb47d04f668f6979ea613e3dc24482151d5cec475778315cd4a21f3e8554286f2ba730af866f8959ca411e1de264a2353d7ccc677758117cf4823f1ea574084f0b87108fa64fa939aa217e7d8204c2555d1cac071738711c94e25f7ec514682f6be770efc62fc9198a015e5da224e2757d3c8c273718513cb4c27f5ee534480f4bc750cfe60fe9f96ae1bebd42c402959ddc6cc7d7f8b1dc54229fbe05d4a8efab27b02f06ef09d94ac19e9d62e422b5bdfc4ce7f7d891fc7402bf9e25f488cf8b07900f26cf29b92aa1fefd028442d5dd9c2c8797b8f19c1462dffe4594e8afeb67f06f46af49990a81dedd22a462f5fdbc0ca7b798d1bc3442ffde65b4c88fcb47d04f668f6979ea613e3dc24482151d5cec47577831286c9cfcd2284d90f3d0859e07d389883f8be1582b51dbb0abe2c42aa990ce21",
        "type": "nulldata"
      }
    }
  ],
  "blockhash": "ed58b71ef50cb049f6fd5c1ad274bdeb3951d970e0a56ec51ef7152d34b6d8c5",
  "confirmations": 1,
  "time": 1764177054,
  "blocktime": 1764177054
}