{
  "hex": "01000000000101944e8b9ec77e9c1ff2497dc45961fe9a6ab742229a6ec3cabe10b8169f6e72270100000000feffffff0200e1f50500000000fdd5046a20b20a958ce1970cd58e5af03c1bbdab4d9c9a05acc7f42c9d5b899289cd6a01ca4db0044be99619fa33ac6e9b101e03967778a223baaa37bd76b99f9de7615b03d630466bc9b639da138c4ebb303e23b6575882039a8a179d5699bfbdc7417b23f610660ba9d659ba73ec2edb505e43d63738e263faea77fd36f9dfdda7211b439670062b89f6799a53cc0efb707e63f61718c243daca57dd16d9fffd87013b63b65026cb6916997ab32cee1b909e8316f7f822a33a2ab73df6391f1d67e1db8356b0c6eb4936b95a930cce3bb0bea336d7d802831a0a971dd6193f3d47c1fba37690e68b2956d93af36cae5bd0dec356b7b862e37a6af77db6795f5d27a19bc316f086ab0976f91ad34c8e7bf0fee376979842c35a4ad75d96597f7d0781bbe336d0a64be99619fa33ac6e9b101e03967778a223baaa37bd76b99f9de7615b03d630466bc9b639da138c4ebb303e23b6575882039a8a179d5699bfbdc7417b23f610660ba9d659ba73ec2edb505e43d63738e263faea77fd36f9dfdda7211b439670062b89f6799a53cc0efb707e63f61718c243daca57dd16d9fffd87013b63b65026cb6916997ab32cee1b909e8316f7f822a33a2ab73df6391f1d67e1db8356b0c6eb4936b95a930cce3bb0bea336d7d802831a0a971dd6193f3d47c1fba37690e68b2956d93af36cae5bd0dec356b7b862e37a6af77db6795f5d27a19bc316f086ab0976f91ad34c8e7bf0fee376979842c35a4ad75d96597f7d0781bbe336d0a64be99619fa33ac6e9b101e03967778a223baaa37bd76b99f9de7615b03d630466bc9b639da138c4ebb303e23b6575882039a8a179d5699bfbdc7417b23f610660ba9d659ba73ec2edb505e43d63738e263faea77fd36f9dfdda7211b439670062b89f6799a53cc0efb707e63f61718c243daca57dd16d9fffd87013b63b65026cb6916997ab32cee1b909e8316f7f822a33a2ab73df6391f1d67e1db8356b0c6eb4936b95a930cce3bb0bea336d7d802831a0a971dd6193f3d47c1fba37690e68b2956d93af36cae5bd0dec356b7b862e37a6af77db6795f5d27a19bc316f086ab0976f91ad34c8e7bf0fee376979842c35a4ad75d96597f7d0781bbe336d0a64be99619fa33ac6e9b101e03967778a223baaa37bd76b99f9de7615b03d630466bc9b639da138c4ebb303e23b6575882039a8a179d5699bfbdc7417b23f610660ba9d659ba73ec2edb505e43d63738e263faea77fd36f9dfdda7211b439670062b89f6799a53cc0efb707e63f61718c243daca57dd16d9fffd87013b63b65026cb6916997ab32cee1b909e8316f7f822a33a2ab73df6391f1d67e1db8356b0c6eb4936b95a930cce3bb0bea336d7d802831a0a971dd6193f3d47c1fba37690e68b2956d93af36cae5bd0dec356b7b862e37a6af77db6795f5d27a19bc316f086ab0976f91ad34c8e7bf0fee376979842c35a4ad75d96597f7d0781bbe336d0a64be99619fa33ac6e9b101e03967778a223baaa37bd76b99f9de7615b03d630466bc9b639da138c4ebb303e23b6575882039a8a179d5699bfbdc7417b23f610660ba9d659ba73ec2edb505e43d63738e263faea77fd36f9dfdda7211b439670062b89f6799a53cc0efb707e63f61718c243daca57dd16d9fffd87013b63b65026cb6916997ab32cee1b909e8316f7f822d166cb721f04a51449d55ca83b771e08347bd3b4f7b2180bcacd9e458a189e7bc02309ae782d00002251207665b2589f8fa11af1b08c6560f217fead57f62082377dcaab3ae0f86564426602fd7509047dfbe7b84c2b77f6918423301187f058769ddce74726e9c35032c9f3e95393e2a05ff80e27e47f6b89d8467b0a77e1d6866e73102342a23d42cddffe2e511536307c64280921c6e193ea75e6806770e121337e6c70a9bd8660613685251a435532abee8dac7b62f64aa67b62d1f40aa8ae3952e1595b227b5865aa842d080b3984231c4e87cff958d7a9a0aa6086d305e526e214c65ed71f607306a410e28dc15165b6994a55b04c5cdaa36a3da26bf4e83afdb060632a5e34259ec7f04d38fb9010502ab6d98b5616c44739454ea443745a1c2ab49c0cd539d04c1e320a4460c6446aee50db1b10335fecc89fbb8ef3152a9f13bccc9a15a5f796e0dc56adbc8f86f23428018b303bf7fcb99fb31ead0db8371445df6f4e8e3388ac7699373403d4100e836a5835a1e09a097913393547943fa675397266d6bf1157a737bff586310e2012090e9292ca9ee6745284542a00e5fb24ed2291be2a1fecc8a9fdd1502af37b3f433d5093f8286920a03ed2f6246f7d98097f10e312bfefe1e0045e973d5b004fb70baea32bf59e3adf1442c022f4f60fead1d06d9d5891cb4cb20e3abfb1b9ef188e9eb7549eb06b7eb2398f1835a9a0ffb22567a9e5eb250ba3fd994ead00ae73f0c59a3ec6120b9549fa6b1b61aea35928d313c1836ec217fc109d2d49448c7e4cf35e7140e0134cc0f71787ef1275482063b720190740fdae4e5917042263f3c546a982afef44477da637018676b375add2bde15bf30a64c34c2884b63876a0563aae6db5a99ffe7edf85a8678f5ab504f10a0b2405cf5e6b0177acf3342c8f1335117f72def93fbbb398719000b94da56ca30536779e40bc8901f60afa6b0ea5ce2d33c1df0122827bef88ab04ec17b6b6ca3e453a3cf30b5ce1cecdd6d95520f7d9cabf376c6eec2717baff34ce389cd51cd09f90f1bd451f3fe79d4a324096cb93649c0f8e9e4bf94cf5f01046e2ebadd1163cf7a0581db1b8f3a0d662b7208398cbaf651b8a2ce854870d93bc0587760dedb5a9828e0135f97e5dda76634dcbdcf779f1613592c830dd72c5cdd737e0db1e3139b9ac6fadda9f31e57f397fdfaf8c378163b9a271a9e19e3f5a242fcb1b48506122749e37a392c2faaddddf46ff8110a3d896402293bcf681b391f0b3a3bd544a7d673adf61ff8dfff09ed04fe3c57408fd3190716ffe2a9c8df4c9c7c3dcfbbe224f79377ba772806b5a87b151f527365fdaabef7cf025b6261c2f82b88091c7efc0abd1a350df9d651b536b56106b574c31eeee5b70e51396a598ddd3f6b477326f3062c963f9d5defef576c3043e2dce030e636a9e4291b2d76a4c6b4f97e2bb09d524e43f85412f588624aa2664de17cea6204787582359e4c092283fcc6773d2acd045450859c6d24e2a1e9263bc55625b39b78f2d61026e00432cf5ebc6b9ee5ff54917d4dad9955007390cbaaca6e89f830482bc81267361c9101a05a8045ec4284e0680a3dda525c18f1a18359ac23057fdf44faa0e4ca7e078d4f6711f935904af21c936e66ef18d11d4f1cac696e4b200923b5459c70e9981f25d3cefc4cf1ee6c1e5ea1f5d7548462ce0f757ff966a3035465e4fedb187d4c1f6c35703c8f6e251bba9bc34048899af2a43718ab2f3536f3c7cb1f9643d761557cee8aa5b729de7e0dc0f38aa6106badd39065c2617bcfa25284a034cecdae4a1362c8e073bc1cafadd8d8aa263f920fa6c378363bbfbe682612f906c579e4cb0c855ef84681cf8f2e7cba51ebfd2b53490d009a76887080419b04343ac42afbbb41ab271bb3b025998c4e0032fec6e5a18dff1e56b7b74337bf96b20d334f8b48073653239fd43a031b06b3e6fd18fb6dad8cf5be9d110c6d7eab01955815f1d3aaffaae28edb8d3e6051ced5e4b38284e83f11b270ee9c8331253d2e45460890ef857cd251a60c87abd8e022cca65b433180af1eea54f727e010253841e649a05f901bfd0756b9002c9b2881c612b99a3b13c485073e78cfb0c7747029aef1213f4517bc70dbc93b91981a0c1fca8b6ca3a7367a231ecb00787513b5a87b08fc9e8e13318a01dd112085bf9fb06379addb1de39c6e028e684ba717b34e436b0180416a60ca211b161249b55e8a1ed2ce32762045ffb491646895ff11c5a0ee191765667c0851df53867c04e7198e842c6e4446b606561698bac43a36136d2ad26288d25f19f5b93cab43b70969b51c79dae17ced2a7134835c30bb0794f10046d8e681265d74b72eb8a3d7485bf8a59908dae24e361ace402649517649b86a2e4913fd55337b71bf1b5ac41e000ae29816293bff7f280b2f5b9203c60140e28a8eeb03bbe240d6eb74e374eea1d89ce895a9b48c2b3410072e1e69af7b54148c49ccd62de922666beabd3790a62d6bfa11bab0bbe4a9fdf3a8360db0492f14304f10bdf473cd064aa565a8a3d6eb15a9e05b356e10106f3c966b664652b9acc53b11ddffffd70b22ccbd167fa64cc1f35d064d95b81e009e1d03dcbd3a6b249d1e71f68e09907352eb638ee976b5e7d7ae62b85d2e9b712f5072810497121d5e6c9483611ec9d9bb25b49af26471c698d680779c9d3c4313436f57364767095c5ccc6341280700d17c975db3f7c3ce6529ee8d343292735c55db513e7059426b095925eb39791bfbfbc240ad7da093fdcba1c5b26a8e5ade24c845e3187ecd25f3b5554faccf2a2dc07dd4e001901add80da856d89c075cae2cf1b6d393a362c4853e4b48328c7001dc7c26051cacd42665eee9ba1184cb6c8848d6f5e40ca66b4fe58353ad42edcecad57f1870ff176940946d6c40638a2285c7192c6efc2c304919df8b502e30e9c218ceeb421c9abb4f14584883db17d07ecc4994a28baec45663df51031d7c4154b4b0ef6d1dc2ce8908cc6060db6d48f457b1ed9afb5bb2d98b7eaf515c90bc4ec50b6f19b9925526c4d80f8e9ced6e3aecac2f55188bd6614c2d73f4d554295e98f7ff47861726320a4d6da32de6fc3c08cb30b0d1b8a61054b0f9b85489b08db58745ae57061d7022a278308a42f4cfa8bf8612784e2b247308f0318fc36b5a6b376210ae420547c68ca9d4a70e7b5207fad3031150177376323915e63649c3a755c0f8185283e89362efb8b30cf252c14915d5977dacf94b6d9dffb8e38f897f25dbd908c366661803b864e72ef25963a724c3821ae4ec3ca82dd3021099cfeffe0806982edc65083061dfac640970ae550ea3ad45b0d9ef746fe82051154c690649f45c890465664dd002fdd57d25f2fb17d38c1e3dc8b4bb005b698b9092c8ccdee5ef074c5e859db7bdd90d23315a6c83849a9eb5c9daddfcff050e222429303e42576871819bd5e5ef0000000000000000000000000000000000000000000000000000000000000b13223201fd2105003161313668962c618882e0da62ba3b6c6cc7b39b3e977410e982f0902e13d87b160d250152918359893261892a3e3f9f5f0ab6402151d2d24d027c78f851d89b3fe7814712e190cf7d19a44f9dc2c2f6a405d5d91294cc997702d458c3e9a6e91a5f2de90065e9ca4e4e435b555e248d3f7e09febafa7c2ac8ba6f59198108484856604fedea7bd87fbe6dec79efa13584a9bd0366887d331b618b1d645927ef956e86ecae2d2a56885aafc1355306fd3dedaa499b637339ea66289865c88b2c416101f5472c91a8080d29500c26c3d1348ef5568650818438d66dc290e1fae70cf520676390e72e82f84761970da93047a048d5f99207caac678239633b241e1a2762ae29da0c97be5bbc9e5eb710af2f6f8fa86133f4511c156ac51203401d2df5bc0a8ad4ffc277e18e4c46d9cf7a3f04839de4c1ddd969df1b27f981208ee9f260ee78a57e198fbe635860bfa0a782d8451ede057334bea30ca5c6e60d630d3b224cd8aefba463493cb4a2d171d3e55a1c1eafbf618b7232975b73ad741642c68a77c788da0f3f12736c40e6cfdd814eff30a4448b77eba8828044cfde341673f9afe40ba9db78d2be863af695342972ef2262ade6cd27da396beedec63fd3f29cd52848251f70e6beb608aca4e968caf5e0b1b010816a9cc506fadf432068ee6247fb2f6d41ef1225bbaf8b5cc95de54e2882e10c625ce09c7bcb1040fec9d0c5f7028c703433f5520b2ffe95adc9c58dd14f4cc68c7f571b845a3a985104481005263f9f04b3c5ce71149e9a8bfbdefd25d746f62ed0601ac52616e52eeeb966f3254fd90a80090c09f5baf8e934c7cc5943a5453c5451de5279d91780007539c4d60dc75cc9e6c8ddc37a175a95437b7b686496e8b774c914d0d9bfd77163e2e54e895ca4a9410b86c98784e983a4e179c990d80cf8b3c50e71825d317d66cd6c36656871eb249bff21819c0cf2e1d95dda8f0e3153b00debf49b70cdf129881f764d664519ec9cd40fa32d5b70bd3a911aef894156add6394b5be140f321944019d7db91b4062a5d9d44c827686c21b02f622a97766a3e5a809730af861b40802ff1e89eb446885553983e5026c41cea13672bda2cbfdb1f53a8314636a662279afd7d98226ef62fc2311e06c8a539a7118046276eefc00830b861b1e7f131750160b5c7148e715e6b0ab4568d2402d9e888ce8314bdd5ce829d5fbbcd5a93cc61283082c75e10ba37e2fafe9dd78b7db6680a3d657f37346f9d0c24d7d5fd0c608cb75e2af99b925315a76c8c85218e3c3344a3e554a2f4e556a63021cb9f1d2244ca864c4fe09aa985ac45fb85f9b6c327d59fb195cb40b3721ae37ed84df88eb00919e5b926d35bbaa7ba864a0f5ad8e38b3f0a5059b0c778878883c0241bed2b9a2c1203e9a21484e78fc93824fbf420d64aa1be9e5f77be881e349d2aaeb59ebf4cc4f32d0a0bc66d59fd548714a6fa761e1b9e205998579bdd17c0984d243ab98feeb00ab1bd6991b16b57c57ef5a81174f94799af538a48677cbca75211a644e1744f7dd94a16664703af842445167c49f829d8a220ca0dbaf89f85b89178afc10cd070ea7ba48859e0df528cc7c002b9c4340244c6f549cafc7bb5f512faf33ea76bb0106e8dfa4dc2e81da1bc2560014571e08404033a654a07e76b18b9c9d908ac66f4c1cba23ae4774641edf20809338ebca8ca2ad2a34fde5b217694a5efe7ecafd8dfddda8a784da966c46f3b99d3001abe8810ae558cecf58d76ba0ed1f6f21b8cea2985d9ce3e5225a30c108a29f9aca4bc46ce30b5fb9f6e195510c6649e3836f803d6bcb1e88ede380309219fef036d1494c94543000000",
  "txid": "d8aecc242469d90906e4a7acad906579c0ab7a78e5804b87679776ff7e3208db",
  "hash": "aee26fa4d77f73d715c6719f741114e456e158cfb880f84c4e813c45e06d2f6a",
  "size": 5085,
  "vsize": 2278,
  "version": 1,
  "locktime": 67,
  "vin": [
    {
      "txid": "27726e9f16b810becac36e9a2242b76a9afe6159c47d49f21f9c7ec79e8b4e94",
      "vout": 1,
      "scriptSig": {
        "asm": "",
        "hex": ""
      },
      "txinwitness": [
        "047dfbe7b84c2b77f6918423301187f058769ddce74726e9c35032c9f3e95393e2a05ff80e27e47f6b89d8467b0a77e1d6866e73102342a23d42cddffe2e511536307c64280921c6e193ea75e6806770e121337e6c70a9bd8660613685251a435532abee8dac7b62f64aa67b62d1f40aa8ae3952e1595b227b5865aa842d080b3984231c4e87cff958d7a9a0aa6086d305e526e214c65ed71f607306a410e28dc15165b6994a55b04c5cdaa36a3da26bf4e83afdb060632a5e34259ec7f04d38fb9010502ab6d98b5616c44739454ea443745a1c2ab49c0cd539d04c1e320a4460c6446aee50db1b10335fecc89fbb8ef3152a9f13bccc9a15a5f796e0dc56adbc8f86f23428018b303bf7fcb99fb31ead0db8371445df6f4e8e3388ac7699373403d4100e836a5835a1e09a097913393547943fa675397266d6bf1157a737bff586310e2012090e9292ca9ee6745284542a00e5fb24ed2291be2a1fecc8a9fdd1502af37b3f433d5093f8286920a03ed2f6246f7d98097f10e312bfefe1e0045e973d5b004fb70baea32bf59e3adf1442c022f4f60fead1d06d9d5891cb4cb20e3abfb1b9ef188e9eb7549eb06b7eb2398f1835a9a0ffb22567a9e5eb250ba3fd994ead00ae73f0c59a3ec6120b9549fa6b1b61aea35928d313c1836ec217fc109d2d49448c7e4cf35e7140e0134cc0f71787ef1275482063b720190740fdae4e5917042263f3c546a982afef44477da637018676b375add2bde15bf30a64c34c2884b63876a0563aae6db5a99ffe7edf85a8678f5ab504f10a0b2405cf5e6b0177acf3342c8f1335117f72def93fbbb398719000b94da56ca30536779e40bc8901f60afa6b0ea5ce2d33c1df0122827bef88ab04ec17b6b6ca3e453a3cf30b5ce1cecdd6d95520f7d9cabf376c6eec2717baff34ce389cd51cd09f90f1bd451f3fe79d4a324096cb93649c0f8e9e4bf94cf5f01046e2ebadd1163cf7a0581db1b8f3a0d662b7208398cbaf651b8a2ce854870d93bc0587760dedb5a9828e0135f97e5dda76634dcbdcf779f1613592c830dd72c5cdd737e0db1e3139b9ac6fadda9f31e57f397fdfaf8c378163b9a271a9e19e3f5a242fcb1b48506122749e37a392c2faaddddf46ff8110a3d896402293bcf681b391f0b3a3bd544a7d673adf61ff8dfff09ed04fe3c57408fd3190716ffe2a9c8df4c9c7c3dcfbbe224f79377ba772806b5a87b151f527365fdaabef7cf025b6261c2f82b88091c7efc0abd1a350df9d651b536b56106b574c31eeee5b70e51396a598ddd3f6b477326f3062c963f9d5defef576c3043e2dce030e636a9e4291b2d76a4c6b4f97e2bb09d524e43f85412f588624aa2664de17cea6204787582359e4c092283fcc6773d2acd045450859c6d24e2a1e9263bc55625b39b78f2d61026e00432cf5ebc6b9ee5ff54917d4dad9955007390cbaaca6e89f830482bc81267361c9101a05a8045ec4284e0680a3dda525c18f1a18359ac23057fdf44faa0e4ca7e078d4f6711f935904af21c936e66ef18d11d4f1cac696e4b200923b5459c70e9981f25d3cefc4cf1ee6c1e5ea1f5d7548462ce0f757ff966a3035465e4fedb187d4c1f6c35703c8f6e251bba9bc34048899af2a43718ab2f3536f3c7cb1f9643d761557cee8aa5b729de7e0dc0f38aa6106badd39065c2617bcfa25284a034cecdae4a1362c8e073bc1cafadd8d8aa263f920fa6c378363bbfbe682612f906c579e4cb0c855ef84681cf8f2e7cba51ebfd2b53490d009a76887080419b04343ac42afbbb41ab271bb3b025998c4e0032fec6e5a18dff1e56b7b74337bf96b20d334f8b48073653239fd43a031b06b3e6fd18fb6dad8cf5be9d110c6d7eab01955815f1d3aaffaae28edb8d3e6051ced5e4b38284e83f11b270ee9c8331253d2e45460890ef857cd251a60c87abd8e022cca65b433180af1eea54f727e010253841e649a05f901bfd0756b9002c9b2881c612b99a3b13c485073e78cfb0c7747029aef1213f4517bc70dbc93b91981a0c1fca8b6ca3a7367a231ecb00787513b5a87b08fc9e8e13318a01dd112085bf9fb06379addb1de39c6e028e684ba717b34e436b0180416a60ca211b161249b55e8a1ed2ce32762045ffb491646895ff11c5a0ee191765667c0851df53867c04e7198e842c6e4446b606561698bac43a36136d2ad26288d25f19f5b93cab43b70969b51c79dae17ced2a7134835c30bb0794f10046d8e681265d74b72eb8a3d7485bf8a59908dae24e361ace402649517649b86a2e4913fd55337b71bf1b5ac41e000ae29816293bff7f280b2f5b9203c60140e28a8eeb03bbe240d6eb74e374eea1d89ce895a9b48c2b3410072e1e69af7b54148c49ccd62de922666beabd3790a62d6bfa11bab0bbe4a9fdf3a8360db0492f14304f10bdf473cd064aa565a8a3d6eb15a9e05b356e10106f3c966b664652b9acc53b11ddffffd70b22ccbd167fa64cc1f35d064d95b81e009e1d03dcbd3a6b249d1e71f68e09907352eb638ee976b5e7d7ae62b85d2e9b712f5072810497121d5e6c9483611ec9d9bb25b49af26471c698d680779c9d3c4313436f57364767095c5ccc6341280700d17c975db3f7c3ce6529ee8d343292735c55db513e7059426b095925eb39791bfbfbc240ad7da093fdcba1c5b26a8e5ade24c845e3187ecd25f3b5554faccf2a2dc07dd4e001901add80da856d89c075cae2cf1b6d393a362c4853e4b48328c7001dc7c26051cacd42665eee9ba1184cb6c8848d6f5e40ca66b4fe58353ad42edcecad57f1870ff176940946d6c40638a2285c7192c6efc2c304919df8b502e30e9c218ceeb421c9abb4f14584883db17d07ecc4994a28baec45663df51031d7c4154b4b0ef6d1dc2ce8908cc6060db6d48f457b1ed9afb5bb2d98b7eaf515c90bc4ec50b6f19b9925526c4d80f8e9ced6e3aecac2f55188bd6614c2d73f4d554295e98f7ff47861726320a4d6da32de6fc3c08cb30b0d1b8a61054b0f9b85489b08db58745ae57061d7022a278308a42f4cfa8bf8612784e2b247308f0318fc36b5a6b376210ae420547c68ca9d4a70e7b5207fad3031150177376323915e63649c3a755c0f8185283e89362efb8b30cf252c14915d5977dacf94b6d9dffb8e38f897f25dbd908c366661803b864e72ef25963a724c3821ae4ec3ca82dd3021099cfeffe0806982edc65083061dfac640970ae550ea3ad45b0d9ef746fe82051154c690649f45c890465664dd002fdd57d25f2fb17d38c1e3dc8b4bb005b698b9092c8ccdee5ef074c5e859db7bdd90d23315a6c83849a9eb5c9daddfcff050e222429303e42576871819bd5e5ef0000000000000000000000000000000000000000000000000000000000000b13223201",
        "003161313668962c618882e0da62ba3b6c6cc7b39b3e977410e982f0902e13d87b160d250152918359893261892a3e3f9f5f0ab6402151d2d24d027c78f851d89b3fe7814712e190cf7d19a44f9dc2c2f6a405d5d91294cc997702d458c3e9a6e91a5f2de90065e9ca4e4e435b555e248d3f7e09febafa7c2ac8ba6f59198108484856604fedea7bd87fbe6dec79efa13584a9bd0366887d331b618b1d645927ef956e86ecae2d2a56885aafc1355306fd3dedaa499b637339ea66289865c88b2c416101f5472c91a8080d29500c26c3d1348ef5568650818438d66dc290e1fae70cf520676390e72e82f84761970da93047a048d5f99207caac678239633b241e1a2762ae29da0c97be5bbc9e5eb710af2f6f8fa86133f4511c156ac51203401d2df5bc0a8ad4ffc277e18e4c46d9cf7a3f04839de4c1ddd969df1b27f981208ee9f260ee78a57e198fbe635860bfa0a782d8451ede057334bea30ca5c6e60d630d3b224cd8aefba463493cb4a2d171d3e55a1c1eafbf618b7232975b73ad741642c68a77c788da0f3f12736c40e6cfdd814eff30a4448b77eba8828044cfde341673f9afe40ba9db78d2be863af695342972ef2262ade6cd27da396beedec63fd3f29cd52848251f70e6beb608aca4e968caf5e0b1b010816a9cc506fadf432068ee6247fb2f6d41ef1225bbaf8b5cc95de54e2882e10c625ce09c7bcb1040fec9d0c5f7028c703433f5520b2ffe95adc9c58dd14f4cc68c7f571b845a3a985104481005263f9f04b3c5ce71149e9a8bfbdefd25d746f62ed0601ac52616e52eeeb966f3254fd90a80090c09f5baf8e934c7cc5943a5453c5451de5279d91780007539c4d60dc75cc9e6c8ddc37a175a95437b7b686496e8b774c914d0d9bfd77163e2e54e895ca4a9410b86c98784e983a4e179c990d80cf8b3c50e71825d317d66cd6c36656871eb249bff21819c0cf2e1d95dda8f0e3153b00debf49b70cdf129881f764d664519ec9cd40fa32d5b70bd3a911aef894156add6394b5be140f321944019d7db91b4062a5d9d44c827686c21b02f622a97766a3e5a809730af861b40802ff1e89eb446885553983e5026c41cea13672bda2cbfdb1f53a8314636a662279afd7d98226ef62fc2311e06c8a539a7118046276eefc00830b861b1e7f131750160b5c7148e715e6b0ab4568d2402d9e888ce8314bdd5ce829d5fbbcd5a93cc61283082c75e10ba37e2fafe9dd78b7db6680a3d657f37346f9d0c24d7d5fd0c608cb75e2af99b925315a76c8c85218e3c3344a3e554a2f4e556a63021cb9f1d2244ca864c4fe09aa985ac45fb85f9b6c327d59fb195cb40b3721ae37ed84df88eb00919e5b926d35bbaa7ba864a0f5ad8e38b3f0a5059b0c778878883c0241bed2b9a2c1203e9a21484e78fc93824fbf420d64aa1be9e5f77be881e349d2aaeb59ebf4cc4f32d0a0bc66d59fd548714a6fa761e1b9e205998579bdd17c0984d243ab98feeb00ab1bd6991b16b57c57ef5a81174f94799af538a48677cbca75211a644e1744f7dd94a16664703af842445167c49f829d8a220ca0dbaf89f85b89178afc10cd070ea7ba48859e0df528cc7c002b9c4340244c6f549cafc7bb5f512faf33ea76bb0106e8dfa4dc2e81da1bc2560014571e08404033a654a07e76b18b9c9d908ac66f4c1cba23ae4774641edf20809338ebca8ca2ad2a34fde5b217694a5efe7ecafd8dfddda8a784da966c46f3b99d3001abe8810ae558cecf58d76ba0ed1f6f21b8cea2985d9ce3e5225a30c108a29f9aca4bc46ce30b5fb9f6e195510c6649e3836f803d6bcb1e88ede380309219fef036d1494c945"
      ],
      "sequence": 4294967294
    }
  ],
  "vout": [
    {
      "value": 1.0,
      "n": 0,
      "scriptPubKey": {
        "asm": "OP_RETURN b20a958ce1970cd58e5af03c1bbdab4d9c9a05acc7f42c9d5b899289cd6a01ca 4be99619fa33ac6e9b101e03967778a223baaa37bd76b99f9de7615b03d630466bc9b639da138c4ebb303e23b6575882039a8a179d5699bfbdc7417b23f610660ba9d659ba73ec2edb505e43d63738e263faea77fd36f9dfdda7211b439670062b89f6799a53cc0efb707e63f61718c243daca57dd16d9fffd87013b63b65026cb6916997ab32cee1b909e8316f7f822a33a2ab73df6391f1d67e1db8356b0c6eb4936b95a930cce3bb0bea336d7d802831a0a971dd6193f3d47c1fba37690e68b2956d93af36cae5bd0dec356b7b862e37a6af77db6795f5d27a19bc316f086ab0976f91ad34c8e7bf0fee376979842c35a4ad75d96597f7d0781bbe336d0a64be99619fa33ac6e9b101e03967778a223baaa37bd76b99f9de7615b03d630466bc9b639da138c4ebb303e23b6575882039a8a179d5699bfbdc7417b23f610660ba9d659ba73ec2edb505e43d63738e263faea77fd36f9dfdda7211b439670062b89f6799a53cc0efb707e63f61718c243daca57dd16d9fffd87013b63b65026cb6916997ab32cee1b909e8316f7f822a33a2ab73df6391f1d67e1db8356b0c6eb4936b95a930cce3bb0bea336d7d802831a0a971dd6193f3d47c1fba37690e68b2956d93af36cae5bd0dec356b7b862e37a6af77db6795f5d27a19bc316f086ab0976f91ad34c8e7bf0fee376979842c35a4ad75d96597f7d0781bbe336d0a64be99619fa33ac6e9b101e03967778a223baaa37bd76b99f9de7615b03d630466bc9b639da138c4ebb303e23b6575882039a8a179d5699bfbdc7417b23f610660ba9d659ba73ec2edb505e43d63738e263faea77fd36f9dfdda7211b439670062b89f6799a53cc0efb707e63f61718c243daca57dd16d9fffd87013b63b65026cb6916997ab32cee1b909e8316f7f822a33a2ab73df6391f1d67e1db8356b0c6eb4936b95a930cce3bb0bea336d7d802831a0a971dd6193f3d47c1fba37690e68b2956d93af36cae5bd0dec356b7b862e37a6af77db6795f5d27a19bc316f086ab0976f91ad34c8e7bf0fee376979842c35a4ad75d96597f7d0781bbe336d0a64be99619fa33ac6e9b101e03967778a223baaa37bd76b99f9de7615b03d630466bc9b639da138c4ebb303e23b6575882039a8a179d5699bfbdc7417b23f610660ba9d659ba73ec2edb505e43d63738e263faea77fd36f9dfdda7211b439670062b89f6799a53cc0efb707e63f61718c243daca57dd16d9fffd87013b63b65026cb6916997ab32cee1b909e8316f7f822a33a2ab73df6391f1d67e1db8356b0c6eb4936b95a930cce3bb0bea336d7d802831a0a971dd6193f3d47c1fba37690e68b2956d93af36cae5bd0dec356b7b862e37a6af77db6795f5d27a19bc316f086ab0976f91ad34c8e7bf0fee376979842c35a4ad75d96597f7d0781bbe336d0a64be99619fa33ac6e9b101e03967778a223baaa37bd76b99f9de7615b03d630466bc9b639da138c4ebb303e23b6575882039a8a179d5699bfbdc7417b23f610660ba9d659ba73ec2edb505e43d63738e263faea77fd36f9dfdda7211b439670062b89f6799a53cc0efb707e63f61718c243daca57dd16d9fffd87013b63b65026cb6916997ab32cee1b909e8316f7f822d166cb721f04a51449d55ca83b771e08347bd3b4f7b2180bcacd9e458a189e7b",
        "hex": "6a20b20a958ce1970cd58e5af03c1bbdab4d9c9a05acc7f42c9d5b899289cd6a01ca4db0044be99619fa33ac6e9b101e03967778a223baaa37bd76b99f9de7615b03d630466bc9b639da138c4ebb303e23b6575882039a8a179d5699bfbdc7417b23f610660ba9d659ba73ec2edb505e43d63738e263faea77fd36f9dfdda7211b439670062b89f6799a53cc0efb707e63f61718c243daca57dd16d9fffd87013b63b65026cb6916997ab32cee1b909e8316f7f822a33a2ab73df6391f1d67e1db8356b0c6eb4936b95a930cce3bb0bea336d7d802831a0a971dd6193f3d47c1fba37690e68b2956d93af36cae5bd0dec356b7b862e37a6af77db6795f5d27a19bc316f086ab0976f91ad34c8e7bf0fee376979842c35a4ad75d96597f7d0781bbe336d0a64be99619fa33ac6e9b101e03967778a223baaa37bd76b99f9de7615b03d630466bc9b639da138c4ebb303e23b6575882039a8a179d5699bfbdc7417b23f610660ba9d659ba73ec2edb505e43d63738e263faea77fd36f9dfdda7211b439670062b89f6799a53cc0efb707e63f61718c243daca57dd16d9fffd87013b63b65026cb6916997ab32cee1b909e8316f7f822a33a2ab73df6391f1d67e1db8356b0c6eb4936b95a930cce3bb0bea336d7d802831a0a971dd6193f3d47c1fba37690e68b2956d93af36cae5bd0dec356b7b862e37a6af77db6795f5d27a19bc316f086ab0976f91ad34c8e7bf0fee376979842c35a4ad75d96597f7d0781bbe336d0a64be99619fa33ac6e9b101e03967778a223baaa37bd76b99f9de7615b03d630466bc9b639da138c4ebb303e23b6575882039a8a179d5699bfbdc7417b23f610660ba9d659ba73ec2edb505e43d63738e263faea77fd36f9dfdda7211b439670062b89f6799a53cc0efb707e63f61718c243daca57dd16d9fffd87013b63b65026cb6916997ab32cee1b909e8316f7f822a33a2ab73df6391f1d67e1db8356b0c6eb4936b95a930cce3bb0bea336d7d802831a0a971dd6193f3d47c1fba37690e68b2956d93af36cae5bd0dec356b7b862e37a6af77db6795f5d27a19bc316f086ab0976f91ad34c8e7bf0fee376979842c35a4ad75d96597f7d0781bbe336d0a64be99619fa33ac6e9b101e03967778a223baaa37bd76b99f9de7615b03d630466bc9b639da138c4ebb303e23b6575882039a8a179d5699bfbdc7417b23f610660ba9d659ba73ec2edb505e43d63738e263faea77fd36f9dfdda7211b439670062b89f6799a53cc0efb707e63f61718c243daca57dd16d9fffd87013b63b65026cb6916997ab32cee1b909e8316f7f822a33a2ab73df6391f1d67e1db8356b0c6eb4936b95a930cce3bb0bea336d7d802831a0a971dd6193f3d47c1fba37690e68b2956d93af36cae5bd0dec356b7b862e37a6af77db6795f5d27a19bc316f086ab0976f91ad34c8e7bf0fee376979842c35a4ad75d96597f7d0781bbe336d0a64be99619fa33ac6e9b101e03967778a223baaa37bd76b99f9de7615b03d630466bc9b639da138c4ebb303e23b6575882039a8a179d5699bfbdc7417b23f610660ba9d659ba73ec2edb505e43d63738e263faea77fd36f9dfdda7211b439670062b89f6799a53cc0efb707e63f61718c243daca57dd16d9fffd87013b63b65026cb6916997ab32cee1b909e8316f7f822d166cb721f04a51449d55ca83b771e08347bd3b4f7b2180bcacd9e458a189e7b",
        "type": "nulldata"
      }
    },
    {
      "value": 499963.3916,
      "n": 1,
      "scriptPubKey": {
        "asm": "1 7665b2589f8fa11af1b08c6560f217fead57f62082377dcaab3ae0f865644266",
        "hex": "51207665b2589f8fa11af1b08c6560f217fead57f62082377dcaab3ae0f865644266",
        "reqSigs": 1,
        "type": "witness_v1_scripthash",
        "addresses": [
          "3QJmnh"
        ]
      }
    }
  ],
  "blockhash": "74cd48d8c624c37e1fac27c00c19e94c48df61d3ca85b84b56360e4f6170fa6f",
  "confirmations": 1,
  "time": 1764182926,
  "blocktime": 1764182926
}