{
  "hex": "01000000000101a794b765cb0f11dd1356e4de34f079296a82a5b6ea606b05b043161a9d48fd0f0100000000feffffff0200e1f50500000000fdd5046a20c0859b61a55d632b661f6412cb25283db8091faad58f691c6f49300ac7c4318e4db004a16544607e99c2467091ac5e6a64ca3b98881038744cdd19763c73ca2f29fe19814564405eb9e26650b18c7e4a44ea1bb8a83018546cfd39561c53ea0f09de39e12504203ed9820630d1ec1e2a248a7bd8c85078340c9d59367c338a6f69be59c10524001ef9a22610f1cc3e0a04aa5bf8e87058142cbd79165c13aa4f499e7921e5c4e0fe1942c6f0112cdeeae44abb180890b8f4cc5d99f6bcf34aafa97e9901c5e4c0de3962e6d0310cfecac46a9b3828b098d4ec7db9d69cd36a8f895eb961a584a0be590286b0516c9eaaa40afb5848d0f8b48c1dd9b6fcb30aefe93ed94185a4809e7922a690714cbe8a842adb7868f0d894ac3df996dc932acfc91ef9a16544607e99c2467091ac5e6a64ca3b98881038744cdd19763c73ca2f29fe19814564405eb9e26650b18c7e4a44ea1bb8a83018546cfd39561c53ea0f09de39e12504203ed9820630d1ec1e2a248a7bd8c85078340c9d59367c338a6f69be59c10524001ef9a22610f1cc3e0a04aa5bf8e87058142cbd79165c13aa4f499e7921e5c4e0fe1942c6f0112cdeeae44abb180890b8f4cc5d99f6bcf34aafa97e9901c5e4c0de3962e6d0310cfecac46a9b3828b098d4ec7db9d69cd36a8f895eb961a584a0be590286b0516c9eaaa40afb5848d0f8b48c1dd9b6fcb30aefe93ed94185a4809e7922a690714cbe8a842adb7868f0d894ac3df996dc932acfc91ef9a16544607e99c2467091ac5e6a64ca3b98881038744cdd19763c73ca2f29fe19814564405eb9e26650b18c7e4a44ea1bb8a83018546cfd39561c53ea0f09de39e12504203ed9820630d1ec1e2a248a7bd8c85078340c9d59367c338a6f69be59c10524001ef9a22610f1cc3e0a04aa5bf8e87058142cbd79165c13aa4f499e7921e5c4e0fe1942c6f0112cdeeae44abb180890b8f4cc5d99f6bcf34aafa97e9901c5e4c0de3962e6d0310cfecac46a9b3828b098d4ec7db9d69cd36a8f895eb961a584a0be590286b0516c9eaaa40afb5848d0f8b48c1dd9b6fcb30aefe93ed94185a4809e7922a690714cbe8a842adb7868f0d894ac3df996dc932acfc91ef9a16544607e99c2467091ac5e6a64ca3b98881038744cdd19763c73ca2f29fe19814564405eb9e26650b18c7e4a44ea1bb8a83018546cfd39561c53ea0f09de39e12504203ed9820630d1ec1e2a248a7bd8c85078340c9d59367c338a6f69be59c10524001ef9a22610f1cc3e0a04aa5bf8e87058142cbd79165c13aa4f499e7921e5c4e0fe1942c6f0112cdeeae44abb180890b8f4cc5d99f6bcf34aafa97e9901c5e4c0de3962e6d0310cfecac46a9b3828b098d4ec7db9d69cd36a8f895eb961a584a0be590286b0516c9eaaa40afb5848d0f8b48c1dd9b6fcb30aefe93ed94185a4809e7922a690714cbe8a842adb7868f0d894ac3df996dc932acfc91ef9a16544607e99c2467091ac5e6a64ca3b98881038744cdd19763c73ca2f29fe19814564405eb9e26650b18c7e4a44ea1bb8a83018546cfd39561c53ea0f09de39e12504203ed9820630d1ec1e2a248a7bd8c85078340c9d59367c338a6f69be59c10524001ef9a22610f1cc3e0a04aa5bf8e87058142cbd79165c13aa4f499e7921e5c4e0fe1942c6f0112cdeeae44abb0e27a5484326b4a2185c6beb8f501d27cd71a101152ab519b007412822fa86f73079f9a7782d00002251201507e1c89b966d51db1f0836a305649c9ad1fb55b4db64ea69669af7a00d593f02fd75095002b37e9f56baa7730793569e6c931473e0dd43557e5585cafb70d2399af472e937c5ded02307a31c124dfd391321ff0a570db4c1ef84d2a2a88a66b62b760f1dffe263e64843156205f847277a93cb6bb7cb82323a71b49c47adf26157f11250ae57aa23beb84d208f10f2c4c5155c615908ca8be693088cdf6b45b9d0dabeb0e23f8b8671567c30f81faa2513c52e2a3e19fa335083fcc5b3605792d029ad31740032e8c8f1e4d4bcacc6d4780940f221bf2375b7fe17e150b39d02662eaf799478e74077a72b2ec8f00edbd1da76ddfc0001008cf4f65b8bd9aed7745a5c916bee7846268f3b79e134a9376e64ef734b428f97fbe7f808e777116ea8b08a48be67cdcfa96acb26149c6a873bf73a1468c95b2433739a7ba0f545f27990371722ce1d04154f57ee98afb5cad7fcf73262e52ee22626a91328c0a32e3c9931b86e833d7db0b125fce7c38ac961ea63668133f14b5eb4d960d7bb011a487d8295cf64fb1b314b9159f09420aaa4a3bf20afb5e78ac20a2d0107a40e6315c0daaacefa5b9ad265780aa7424e478d34e888f770a5eab00bb278bef922877c9c0c471b01c1e49f3dbbf3b1803d11bd2a85f097b69a9a399e44b5e9beb2bb9d38775cb45350b7993b45a11340ce92a25ae09fdf077f6d4a18224fb244eb9c874e2dfa2e9851f0ac1217d5a8f85afe54a4fe19730921a6cbd9fe7d5ac4c1dc365367e2f680bf08b7a0ad62f2e91a9b24aab7ab1088a5e856f3efd9017913850540429abe01745bb763bcc068e999ea7416bb2c6d05b4e460724b87e38a2bf23a401049b14dbb4b4b1b7abc1f7cced208aae04ce65b2434992fb4535badeaf7a135cbdb61cd3925d031eb87fb9ed604cd626b20660406103f9da4b6d033e79767fb819ce62d16ef817d4bf40ba3a3ce202bf2a8f07ba445dbb89aff7ef6e03158241bd58ac4fe2b7621bef1c79a3d760d8512a2d034dae781feecdc33a7080a38f421de96ee33762d19c37fb79a3f5dafa7bad53b7c285d5f36dc97e61933b3771be8d6be7e80d95e03119637624767e88c141d28bb8125ca119b7f0b7eba9d1cde075e13f60e58045ffb87dcb2cedc2d87440a2f28be37c21418dc73087e1331c10c9267a42bcd48c1cf80604a445a318bbb77922af361958e92f10ee188ce568a951209cd43a159bf3ad6ad15f8c7e3a4f3902ef1d7bf24a61d3ee09587d591b157e794927d68249d83b7979e901d1d0ddc58ac76bdc6b71d2ac1de57fe33b1d9259b38c976adcf86ffd62b1806c2153eae285ff192e3d800770f486dc85427c496a416e9cc60156abf235f6f15f00955b93b72b2e311094222c2318099aadb34e4983a83bc65a1dd2898157e122d5d231b5380d68e71172ca727b5017c88f068ddbe6898e368f14d7e17ca202b9caedbc321090636d01144d5c3466ce4d9249135de3892c86c7a56185cdbdca86beaca413b75b2499bc85021708f419f36809e4a5cfadeb1ae141d29cc19bfc7c849ad44b6d2134fb9c2f8acf70e61f697f3c37891b7b711d55348d52bf422e946d64d5fbb72748789487a57e80f117a6fc25eaad9afee100bf3e79f1326230063ae4912304e4027ddbc28ee280176bf456559e0b5ba888d3beec56ad81eeb4850faa4a030fa5c0335e48ecc3551fab580ad56823df1ed356e830568cfb26fa9bdcd7c5149f4e3452fdb9e2bbce105eb2597ee67c164c1f8afb7cf0cfd29d0ab8bbc5f3202a7cfc61826f262b54034760c8dcc585e48233d1dfcbed1454d0e4f424d3349c7524292e317da878624e7d871e56cc6859d78c833cf6e4ae4edeed123c8768288e0aece540d7180fb1fbdc2c83a42401bbe80f1fc6357c4df2001e3bfd00801e6bfe079307c455a563977c332b4d184e2a57bdaa8ca6edf76cab7adbdaa31bf283b78874a2851d6548ac2c16725abf3f42721e2263b9b5d3a7818eb083a6171fdaffcf1570497ba7d1ba88415316d2f1e58496601f0692ef256c67df254c5f4cd44d7ba88ea015c88f3188050b6bbf01e76b85e4b592482bf62de127bd6546536930e382a9639ef6179c06f53439066224665f499210c364c655ff0e0edcbf1c4f80a2e56b97ae22d32d9a02171550d17b7b8509a98c9f4717d4be00c2631b76e3bbd60cb7c717ede81e1f7121c47de4f54efca7aeb7b68bc2674f6a4d222fc6189420a79babc713606fbf3fffc05191679ace7a78981deffabc4947d8dc0c7e90892496762760a051e202003356acba9c347b0e02825410b5c0455871120e8219b4f819f92cc4814a5bb29d92ee60a5e0ff686fef089aa0d9a0f15ce403b749bc3144046c59fc43bb5c4aa4073dd7b85a7f78ca508e31d004eebf89f817a5099b9b1b1f25399ce27eb268181121f6ae822f7748eecb8d7556e8371e21ca4e0a1a80fac8778510268436901d025fbb2523fde3fc6f20b5e1c24248eaad7ffb72b97481609eb79560e37c19e49985e66a3c8a40d6575239cc12494c57909e1ba34bbb94debddb4587b8ba00149ee29e8b2f497d3b67f7838a4b1341ac09c1a9d7d21f5de3d205a7ebbb971c512bc76c6cc259ed0632ee01bbe1e3afb6006de3c1bb1e3d6bdcb3e3bf52a7fa0833ad38626e8d09649ec65be8f5f510eafd5088a67eaf41e20524e09be74a52a7ba36d5cfd6a75014973cf04c7927fec39ab20299b63a7cbff66a8f282ae8d7ca49de0dcdb4a2489f60aa2c8adcc7ae183d6035c03564b4a883156e1ab54177e78d673cfb7982f769bc8bf82442cb4e68a5fbbdf95284e424443cc72d47b8c27e2212d5e188368b1e621d14c3c271007e337efc201a499c45496744e82bb59ea67887fd006e2301397554b1e559343e54fa8cabf20711329e2608a278329a6e804d100629d3e7555212aaae1e56cafc8d5f852a7279cde165e4739c74515f2cec0647b16efc2e8e0896ba55198fc3877a2ad5774c8683a0f772e15688b4e09b046714c87ee508fdd7c2cc50e8e426cf7c1e153b3c85ee25d24bf36d0a0a380288331af8cbbf212e2a2557d68f07822af5ad287de16c06cd90767e76d983e414fc2d478f3799b5e5f075a2f722341cbb5dcb2233840e4beb857f231163c42e1070d63c797f547c08c461b41922dc2d72fe00a2dc3d04862abfc7a68b318ec9b70b08e351f52448265a160f8ed07b0436950fe86671171a7c74ca988b56c5dd921c89172c03f28d2adc10b02e1cf7c22c9ef08a8f34005c42bb7afee56ae4c87c81c30a7007642187ad0c7d0efe6165e190ce46ca2d07d7c74ee37c0b888a2006a2394fdfa040e0f192e3a51575e6a707e80898fdfe1ea011b2c2e4d576a6f7b7f9edde3f40023596871737eabb7f5fb080f102a37414b4c51566f738ca3a5a9bdc7d4dcdef3f9fafd00000000000000000000000012202b4401fd2105005b5a23b570bc6375a22c1677431bb9dacedb6783e2dba39c828dc14b01cbf564c23289ba8e09cba712601a06af433e4a3b19ea3c006f1b4788a819c23b1347f568f583cfbc49d96416f5fe2a16924dbeb47cf92e9e0842ccb44096260c00766f1ffa1e840e6748ca2d59a330d80e4fb19aff0027bd6a3be2272b9de74f2fb217eb287930b9fff617e4f1eae9371da8d4d93429170e1cc2ca8f07e4d2deff18de15f046b21d14f465cf54b300f1514e97cba303dcda40360e1ff775d4d146bb1b24b634b69e2c3ef4125c4c310883281e11a5877e3417d08b0d97053c20bff79408efe4adcb2da524cc63e4a2a1adc7cdff158f40c67c6231d87a2f36ef0aaddea3efe54d903d526f0f7f6b8d128704967b02de83c2fddc1be243f9753b157ecfb7cda1ff1177b190c986654fa9308a5cef033525ff788cee13852ce88745c00088ba2ddb6c8c93ea9ea0b362178ef930fae9eb407d993445622a26ac510fe1cc33ad488c1ee9db3c7059457ab3b9d9db88f0888d5315bab1658a98f29d6df83482c8a978a2a967a7b40d88ba59bf81c95b331e4619ea623a3f32563cf8c637a2043dbea7033685095ee78aa6953e517db86f209c550f9c248b65b2dfa752bb814715f04468ae19c5c2d36dff08d18906d62b147a888c649353c19514850dfd5a4682a48cb8d3c44ece95eec4959a329eb48343d760250f3ff8db1a375d8f2caaafbeea97f1b788ae30176322766ec4c4db5d20eb7e08459b25136c611091a4bd48cdcca3022046e357bf0438fc53b2c1ae541a5bfe5a3f3acef56fe5f4520c65838cac26087734af4b3f2a9bc52828664c805d85b9a9389c2d3371376fe969407c07571601054ce9fbc1d781614aedf855acd0ea248bea8f3e724a0a3191539d02784d42ca221e6e0f9aa42da5b427d03fb1136ca45759544948bae7700e288b4fca16c75b3626d4495cd6c29ae04d7af1c17cf885f113b3ad5ed687b08a1beadb5e1f9c5152c9f8c7eab63ed89b2245890b700e4df1c7e0538ea0bcdd2e8d33593867fc2d94e649deb1086aa272f230494faf49561ce7b66f70b2d36ab78856bf1784a2e3a447415bb8908f0cc899748a81486767658f418c175cc7e08d8e55305e602c1fb2d0e6c0f56bf91507c793687ab647e5b638e1b3eaafce630b975a57a546ffac4156577d7b021ee25875fb4bbdaea6b374cb3f2dfdacedbe98a1593080927494bd2edd65244349a3c52d651382745558948d6af8e5e4bd0b3672137d25864732013dffbc84a047ffb11c1c496d7189873edb3634327d51ab94742f48b3157d223cc4393e7fc96e1e58aea22fc8b782d24a0e8829dbc2a898efba2c4724ed7ddd415431864b9d67935d6d87d9b4863fe5ce9174c4b91ce9140afb148ffc1f2bd70741756d5c6aa1e468ac900f2060cb504f24ceea46d394a178dfb10ac6aeb0640994d2b82594169f3fe5f3626ef59b97dc3271f1df3c36a6b715c1c2e97589388ec404ceb05f9e2b7e70433f2cf626e05c7be2cc136819c31dfb9bbb7fe4a86fed667a505957d5b9e129e0538eef3ba3a897c85a095a775edb1e3cb85325a8a5642bef119f3770498b89eea28f739796bdf3e7aabf7aaffd6a6a1e48d0772fe049c017bb87d7ceff900f0df132f3d955511da5f9a4f898e4fd4bd6f2d6d95a513acd8ea88ff37720bac3573ccc96ae9ecb532f2ded0510a4e08daa2f63c9336fed3094a19c3b0fed6860766148fa5d944ce81519eb3feb2f58e61b57d6e78c6a43c0d3869a2ef72f7720c522e844d2686e3f38d3690c11abe8abef1ac0a417e6df162b89be6da1ebe92ef2cc0484a86677e3d2fb9b780b26b0ca5b86000000",
  "txid": "d7b1df991ef3fe17c68944849371afefb857cbe1b5bb04f914eabda02a96df76",
  "hash": "01c772e32c6a3374dfc4b47487702b3015c04cf5548878b5a656b568d69dbef5",
  "size": 5085,
  "vsize": 2278,
  "version": 1,
  "locktime": 134,
  "vin": [
    {
      "txid": "0ffd489d1a1643b0056b60eab6a5826a2979f034dee45613dd110fcb65b794a7",
      "vout": 1,
      "scriptSig": {
        "asm": "",
        "hex": ""
      },
      "txinwitness": [
        "5002b37e9f56baa7730793569e6c931473e0dd43557e5585cafb70d2399af472e937c5ded02307a31c124dfd391321ff0a570db4c1ef84d2a2a88a66b62b760f1dffe263e64843156205f847277a93cb6bb7cb82323a71b49c47adf26157f11250ae57aa23beb84d208f10f2c4c5155c615908ca8be693088cdf6b45b9d0dabeb0e23f8b8671567c30f81faa2513c52e2a3e19fa335083fcc5b3605792d029ad31740032e8c8f1e4d4bcacc6d4780940f221bf2375b7fe17e150b39d02662eaf799478e74077a72b2ec8f00edbd1da76ddfc0001008cf4f65b8bd9aed7745a5c916bee7846268f3b79e134a9376e64ef734b428f97fbe7f808e777116ea8b08a48be67cdcfa96acb26149c6a873bf73a1468c95b2433739a7ba0f545f27990371722ce1d04154f57ee98afb5cad7fcf73262e52ee22626a91328c0a32e3c9931b86e833d7db0b125fce7c38ac961ea63668133f14b5eb4d960d7bb011a487d8295cf64fb1b314b9159f09420aaa4a3bf20afb5e78ac20a2d0107a40e6315c0daaacefa5b9ad265780aa7424e478d34e888f770a5eab00bb278bef922877c9c0c471b01c1e49f3dbbf3b1803d11bd2a85f097b69a9a399e44b5e9beb2bb9d38775cb45350b7993b45a11340ce92a25ae09fdf077f6d4a18224fb244eb9c874e2dfa2e9851f0ac1217d5a8f85afe54a4fe19730921a6cbd9fe7d5ac4c1dc365367e2f680bf08b7a0ad62f2e91a9b24aab7ab1088a5e856f3efd9017913850540429abe01745bb763bcc068e999ea7416bb2c6d05b4e460724b87e38a2bf23a401049b14dbb4b4b1b7abc1f7cced208aae04ce65b2434992fb4535badeaf7a135cbdb61cd3925d031eb87fb9ed604cd626b20660406103f9da4b6d033e79767fb819ce62d16ef817d4bf40ba3a3ce202bf2a8f07ba445dbb89aff7ef6e03158241bd58ac4fe2b7621bef1c79a3d760d8512a2d034dae781feecdc33a7080a38f421de96ee33762d19c37fb79a3f5dafa7bad53b7c285d5f36dc97e61933b3771be8d6be7e80d95e03119637624767e88c141d28bb8125ca119b7f0b7eba9d1cde075e13f60e58045ffb87dcb2cedc2d87440a2f28be37c21418dc73087e1331c10c9267a42bcd48c1cf80604a445a318bbb77922af361958e92f10ee188ce568a951209cd43a159bf3ad6ad15f8c7e3a4f3902ef1d7bf24a61d3ee09587d591b157e794927d68249d83b7979e901d1d0ddc58ac76bdc6b71d2ac1de57fe33b1d9259b38c976adcf86ffd62b1806c2153eae285ff192e3d800770f486dc85427c496a416e9cc60156abf235f6f15f00955b93b72b2e311094222c2318099aadb34e4983a83bc65a1dd2898157e122d5d231b5380d68e71172ca727b5017c88f068ddbe6898e368f14d7e17ca202b9caedbc321090636d01144d5c3466ce4d9249135de3892c86c7a56185cdbdca86beaca413b75b2499bc85021708f419f36809e4a5cfadeb1ae141d29cc19bfc7c849ad44b6d2134fb9c2f8acf70e61f697f3c37891b7b711d55348d52bf422e946d64d5fbb72748789487a57e80f117a6fc25eaad9afee100bf3e79f1326230063ae4912304e4027ddbc28ee280176bf456559e0b5ba888d3beec56ad81eeb4850faa4a030fa5c0335e48ecc3551fab580ad56823df1ed356e830568cfb26fa9bdcd7c5149f4e3452fdb9e2bbce105eb2597ee67c164c1f8afb7cf0cfd29d0ab8bbc5f3202a7cfc61826f262b54034760c8dcc585e48233d1dfcbed1454d0e4f424d3349c7524292e317da878624e7d871e56cc6859d78c833cf6e4ae4edeed123c8768288e0aece540d7180fb1fbdc2c83a42401bbe80f1fc6357c4df2001e3bfd00801e6bfe079307c455a563977c332b4d184e2a57bdaa8ca6edf76cab7adbdaa31bf283b78874a2851d6548ac2c16725abf3f42721e2263b9b5d3a7818eb083a6171fdaffcf1570497ba7d1ba88415316d2f1e58496601f0692ef256c67df254c5f4cd44d7ba88ea015c88f3188050b6bbf01e76b85e4b592482bf62de127bd6546536930e382a9639ef6179c06f53439066224665f499210c364c655ff0e0edcbf1c4f80a2e56b97ae22d32d9a02171550d17b7b8509a98c9f4717d4be00c2631b76e3bbd60cb7c717ede81e1f7121c47de4f54efca7aeb7b68bc2674f6a4d222fc6189420a79babc713606fbf3fffc05191679ace7a78981deffabc4947d8dc0c7e90892496762760a051e202003356acba9c347b0e02825410b5c0455871120e8219b4f819f92cc4814a5bb29d92ee60a5e0ff686fef089aa0d9a0f15ce403b749bc3144046c59fc43bb5c4aa4073dd7b85a7f78ca508e31d004eebf89f817a5099b9b1b1f25399ce27eb268181121f6ae822f7748eecb8d7556e8371e21ca4e0a1a80fac8778510268436901d025fbb2523fde3fc6f20b5e1c24248eaad7ffb72b97481609eb79560e37c19e49985e66a3c8a40d6575239cc12494c57909e1ba34bbb94debddb4587b8ba00149ee29e8b2f497d3b67f7838a4b1341ac09c1a9d7d21f5de3d205a7ebbb971c512bc76c6cc259ed0632ee01bbe1e3afb6006de3c1bb1e3d6bdcb3e3bf52a7fa0833ad38626e8d09649ec65be8f5f510eafd5088a67eaf41e20524e09be74a52a7ba36d5cfd6a75014973cf04c7927fec39ab20299b63a7cbff66a8f282ae8d7ca49de0dcdb4a2489f60aa2c8adcc7ae183d6035c03564b4a883156e1ab54177e78d673cfb7982f769bc8bf82442cb4e68a5fbbdf95284e424443cc72d47b8c27e2212d5e188368b1e621d14c3c271007e337efc201a499c45496744e82bb59ea67887fd006e2301397554b1e559343e54fa8cabf20711329e2608a278329a6e804d100629d3e7555212aaae1e56cafc8d5f852a7279cde165e4739c74515f2cec0647b16efc2e8e0896ba55198fc3877a2ad5774c8683a0f772e15688b4e09b046714c87ee508fdd7c2cc50e8e426cf7c1e153b3c85ee25d24bf36d0a0a380288331af8cbbf212e2a2557d68f07822af5ad287de16c06cd90767e76d983e414fc2d478f3799b5e5f075a2f722341cbb5dcb2233840e4beb857f231163c42e1070d63c797f547c08c461b41922dc2d72fe00a2dc3d04862abfc7a68b318ec9b70b08e351f52448265a160f8ed07b0436950fe86671171a7c74ca988b56c5dd921c89172c03f28d2adc10b02e1cf7c22c9ef08a8f34005c42bb7afee56ae4c87c81c30a7007642187ad0c7d0efe6165e190ce46ca2d07d7c74ee37c0b888a2006a2394fdfa040e0f192e3a51575e6a707e80898fdfe1ea011b2c2e4d576a6f7b7f9edde3f40023596871737eabb7f5fb080f102a37414b4c51566f738ca3a5a9bdc7d4dcdef3f9fafd00000000000000000000000012202b4401",
        "005b5a23b570bc6375a22c1677431bb9dacedb6783e2dba39c828dc14b01cbf564c23289ba8e09cba712601a06af433e4a3b19ea3c006f1b4788a819c23b1347f568f583cfbc49d96416f5fe2a16924dbeb47cf92e9e0842ccb44096260c00766f1ffa1e840e6748ca2d59a330d80e4fb19aff0027bd6a3be2272b9de74f2fb217eb287930b9fff617e4f1eae9371da8d4d93429170e1cc2ca8f07e4d2deff18de15f046b21d14f465cf54b300f1514e97cba303dcda40360e1ff775d4d146bb1b24b634b69e2c3ef4125c4c310883281e11a5877e3417d08b0d97053c20bff79408efe4adcb2da524cc63e4a2a1adc7cdff158f40c67c6231d87a2f36ef0aaddea3efe54d903d526f0f7f6b8d128704967b02de83c2fddc1be243f9753b157ecfb7cda1ff1177b190c986654fa9308a5cef033525ff788cee13852ce88745c00088ba2ddb6c8c93ea9ea0b362178ef930fae9eb407d993445622a26ac510fe1cc33ad488c1ee9db3c7059457ab3b9d9db88f0888d5315bab1658a98f29d6df83482c8a978a2a967a7b40d88ba59bf81c95b331e4619ea623a3f32563cf8c637a2043dbea7033685095ee78aa6953e517db86f209c550f9c248b65b2dfa752bb814715f04468ae19c5c2d36dff08d18906d62b147a888c649353c19514850dfd5a4682a48cb8d3c44ece95eec4959a329eb48343d760250f3ff8db1a375d8f2caaafbeea97f1b788ae30176322766ec4c4db5d20eb7e08459b25136c611091a4bd48cdcca3022046e357bf0438fc53b2c1ae541a5bfe5a3f3acef56fe5f4520c65838cac26087734af4b3f2a9bc52828664c805d85b9a9389c2d3371376fe969407c07571601054ce9fbc1d781614aedf855acd0ea248bea8f3e724a0a3191539d02784d42ca221e6e0f9aa42da5b427d03fb1136ca45759544948bae7700e288b4fca16c75b3626d4495cd6c29ae04d7af1c17cf885f113b3ad5ed687b08a1beadb5e1f9c5152c9f8c7eab63ed89b2245890b700e4df1c7e0538ea0bcdd2e8d33593867fc2d94e649deb1086aa272f230494faf49561ce7b66f70b2d36ab78856bf1784a2e3a447415bb8908f0cc899748a81486767658f418c175cc7e08d8e55305e602c1fb2d0e6c0f56bf91507c793687ab647e5b638e1b3eaafce630b975a57a546ffac4156577d7b021ee25875fb4bbdaea6b374cb3f2dfdacedbe98a1593080927494bd2edd65244349a3c52d651382745558948d6af8e5e4bd0b3672137d25864732013dffbc84a047ffb11c1c496d7189873edb3634327d51ab94742f48b3157d223cc4393e7fc96e1e58aea22fc8b782d24a0e8829dbc2a898efba2c4724ed7ddd415431864b9d67935d6d87d9b4863fe5ce9174c4b91ce9140afb148ffc1f2bd70741756d5c6aa1e468ac900f2060cb504f24ceea46d394a178dfb10ac6aeb0640994d2b82594169f3fe5f3626ef59b97dc3271f1df3c36a6b715c1c2e97589388ec404ceb05f9e2b7e70433f2cf626e05c7be2cc136819c31dfb9bbb7fe4a86fed667a505957d5b9e129e0538eef3ba3a897c85a095a775edb1e3cb85325a8a5642bef119f3770498b89eea28f739796bdf3e7aabf7aaffd6a6a1e48d0772fe049c017bb87d7ceff900f0df132f3d955511da5f9a4f898e4fd4bd6f2d6d95a513acd8ea88ff37720bac3573ccc96ae9ecb532f2ded0510a4e08daa2f63c9336fed3094a19c3b0fed6860766148fa5d944ce81519eb3feb2f58e61b57d6e78c6a43c0d3869a2ef72f7720c522e844d2686e3f38d3690c11abe8abef1ac0a417e6df162b89be6da1ebe92ef2cc0484a86677e3d2fb9b780b26b0ca5b"
      ],
      "sequence": 4294967294
    }
  ],
  "vout": [
    {
      "value": 1.0,
      "n": 0,
      "scriptPubKey": {
        "asm": "OP_RETURN c0859b61a55d632b661f6412cb25283db8091faad58f691c6f49300ac7c4318e a16544607e99c2467091ac5e6a64ca3b98881038744cdd19763c73ca2f29fe19814564405eb9e26650b18c7e4a44ea1bb8a83018546cfd39561c53ea0f09de39e12504203ed9820630d1ec1e2a248a7bd8c85078340c9d59367c338a6f69be59c10524001ef9a22610f1cc3e0a04aa5bf8e87058142cbd79165c13aa4f499e7921e5c4e0fe1942c6f0112cdeeae44abb180890b8f4cc5d99f6bcf34aafa97e9901c5e4c0de3962e6d0310cfecac46a9b3828b098d4ec7db9d69cd36a8f895eb961a584a0be590286b0516c9eaaa40afb5848d0f8b48c1dd9b6fcb30aefe93ed94185a4809e7922a690714cbe8a842adb7868f0d894ac3df996dc932acfc91ef9a16544607e99c2467091ac5e6a64ca3b98881038744cdd19763c73ca2f29fe19814564405eb9e26650b18c7e4a44ea1bb8a83018546cfd39561c53ea0f09de39e12504203ed9820630d1ec1e2a248a7bd8c85078340c9d59367c338a6f69be59c10524001ef9a22610f1cc3e0a04aa5bf8e87058142cbd79165c13aa4f499e7921e5c4e0fe1942c6f0112cdeeae44abb180890b8f4cc5d99f6bcf34aafa97e9901c5e4c0de3962e6d0310cfecac46a9b3828b098d4ec7db9d69cd36a8f895eb961a584a0be590286b0516c9eaaa40afb5848d0f8b48c1dd9b6fcb30aefe93ed94185a4809e7922a690714cbe8a842adb7868f0d894ac3df996dc932acfc91ef9a16544607e99c2467091ac5e6a64ca3b98881038744cdd19763c73ca2f29fe19814564405eb9e26650b18c7e4a44ea1bb8a83018546cfd39561c53ea0f09de39e12504203ed9820630d1ec1e2a248a7bd8c85078340c9d59367c338a6f69be59c10524001ef9a22610f1cc3e0a04aa5bf8e87058142cbd79165c13aa4f499e7921e5c4e0fe1942c6f0112cdeeae44abb180890b8f4cc5d99f6bcf34aafa97e9901c5e4c0de3962e6d0310cfecac46a9b3828b098d4ec7db9d69cd36a8f895eb961a584a0be590286b0516c9eaaa40afb5848d0f8b48c1dd9b6fcb30aefe93ed94185a4809e7922a690714cbe8a842adb7868f0d894ac3df996dc932acfc91ef9a16544607e99c2467091ac5e6a64ca3b98881038744cdd19763c73ca2f29fe19814564405eb9e26650b18c7e4a44ea1bb8a83018546cfd39561c53ea0f09de39e12504203ed9820630d1ec1e2a248a7bd8c85078340c9d59367c338a6f69be59c10524001ef9a22610f1cc3e0a04aa5bf8e87058142cbd79165c13aa4f499e7921e5c4e0fe1942c6f0112cdeeae44abb180890b8f4cc5d99f6bcf34aafa97e9901c5e4c0de3962e6d0310cfecac46a9b3828b098d4ec7db9d69cd36a8f895eb961a584a0be590286b0516c9eaaa40afb5848d0f8b48c1dd9b6fcb30aefe93ed94185a4809e7922a690714cbe8a842adb7868f0d894ac3df996dc932acfc91ef9a16544607e99c2467091ac5e6a64ca3b98881038744cdd19763c73ca2f29fe19814564405eb9e26650b18c7e4a44ea1bb8a83018546cfd39561c53ea0f09de39e12504203ed9820630d1ec1e2a248a7bd8c85078340c9d59367c338a6f69be59c10524001ef9a22610f1cc3e0a04aa5bf8e87058142cbd79165c13aa4f499e7921e5c4e0fe1942c6f0112cdeeae44abb0e27a5484326b4a2185c6beb8f501d27cd71a101152ab519b007412822fa86f7",
        "hex": "6a20c0859b61a55d632b661f6412cb25283db8091faad58f691c6f49300ac7c4318e4db004a16544607e99c2467091ac5e6a64ca3b98881038744cdd19763c73ca2f29fe19814564405eb9e26650b18c7e4a44ea1bb8a83018546cfd39561c53ea0f09de39e12504203ed9820630d1ec1e2a248a7bd8c85078340c9d59367c338a6f69be59c10524001ef9a22610f1cc3e0a04aa5bf8e87058142cbd79165c13aa4f499e7921e5c4e0fe1942c6f0112cdeeae44abb180890b8f4cc5d99f6bcf34aafa97e9901c5e4c0de3962e6d0310cfecac46a9b3828b098d4ec7db9d69cd36a8f895eb961a584a0be590286b0516c9eaaa40afb5848d0f8b48c1dd9b6fcb30aefe93ed94185a4809e7922a690714cbe8a842adb7868f0d894ac3df996dc932acfc91ef9a16544607e99c2467091ac5e6a64ca3b98881038744cdd19763c73ca2f29fe19814564405eb9e26650b18c7e4a44ea1bb8a83018546cfd39561c53ea0f09de39e12504203ed9820630d1ec1e2a248a7bd8c85078340c9d59367c338a6f69be59c10524001ef9a22610f1cc3e0a04aa5bf8e87058142cbd79165c13aa4f499e7921e5c4e0fe1942c6f0112cdeeae44abb180890b8f4cc5d99f6bcf34aafa97e9901c5e4c0de3962e6d0310cfecac46a9b3828b098d4ec7db9d69cd36a8f895eb961a584a0be590286b0516c9eaaa40afb5848d0f8b48c1dd9b6fcb30aefe93ed94185a4809e7922a690714cbe8a842adb7868f0d894ac3df996dc932acfc91ef9a16544607e99c2467091ac5e6a64ca3b98881038744cdd19763c73ca2f29fe19814564405eb9e26650b18c7e4a44ea1bb8a83018546cfd39561c53ea0f09de39e12504203ed9820630d1ec1e2a248a7bd8c85078340c9d59367c338a6f69be59c10524001ef9a22610f1cc3e0a04aa5bf8e87058142cbd79165c13aa4f499e7921e5c4e0fe1942c6f0112cdeeae44abb180890b8f4cc5d99f6bcf34aafa97e9901c5e4c0de3962e6d0310cfecac46a9b3828b098d4ec7db9d69cd36a8f895eb961a584a0be590286b0516c9eaaa40afb5848d0f8b48c1dd9b6fcb30aefe93ed94185a4809e7922a690714cbe8a842adb7868f0d894ac3df996dc932acfc91ef9a16544607e99c2467091ac5e6a64ca3b98881038744cdd19763c73ca2f29fe19814564405eb9e26650b18c7e4a44ea1bb8a83018546cfd39561c53ea0f09de39e12504203ed9820630d1ec1e2a248a7bd8c85078340c9d59367c338a6f69be59c10524001ef9a22610f1cc3e0a04aa5bf8e87058142cbd79165c13aa4f499e7921e5c4e0fe1942c6f0112cdeeae44abb180890b8f4cc5d99f6bcf34aafa97e9901c5e4c0de3962e6d0310cfecac46a9b3828b098d4ec7db9d69cd36a8f895eb961a584a0be590286b0516c9eaaa40afb5848d0f8b48c1dd9b6fcb30aefe93ed94185a4809e7922a690714cbe8a842adb7868f0d894ac3df996dc932acfc91ef9a16544607e99c2467091ac5e6a64ca3b98881038744cdd19763c73ca2f29fe19814564405eb9e26650b18c7e4a44ea1bb8a83018546cfd39561c53ea0f09de39e12504203ed9820630d1ec1e2a248a7bd8c85078340c9d59367c338a6f69be59c10524001ef9a22610f1cc3e0a04aa5bf8e87058142cbd79165c13aa4f499e7921e5c4e0fe1942c6f0112cdeeae44abb0e27a5484326b4a2185c6beb8f501d27cd71a101152ab519b007412822fa86f7",
        "type": "nulldata"
      }
    },
    {
      "value": 499962.3747,
      "n": 1,
      "scriptPubKey": {
        "asm": "1 1507e1c89b966d51db1f0836a305649c9ad1fb55b4db64ea69669af7a00d593f",
        "hex": "51201507e1c89b966d51db1f0836a305649c9ad1fb55b4db64ea69669af7a00d593f",
        "reqSigs": 1,
        "type": "witness_v1_scripthash",
        "addresses": [
          "3QJmnh"
        ]
      }
    }
  ],
  "blockhash": "74cd48d8c624c37e1fac27c00c19e94c48df61d3ca85b84b56360e4f6170fa6f",
  "confirmations": 1,
  "time": 1764182926,
  "blocktime": 1764182926
}