{
  "hex": "010000000001015ce6396fbbe1463086c375a5b8e7e75b8acaff10707762bc0234509b8c4f363c0100000000feffffff02c02309ae782d000022512019cd38b364eaf416a68fc353aba7e2c915298a0b8b31df51ae2aa20cd16e2eee00e1f50500000000fdd5046a20c330a3ef381e0b4b1fb8ca951ae59df28a3d347a7555a51ac85276cf81bf6abf4db00466fcf6439e6a73d510a08bef4e9ef267f63a6cbb11725beb20a87bb6fb59048f46dcd663be4a53f53080abcf6ebed247d61a4c9b31527bcb00885b96db7924af26bcb603de2a339550e0cbaf0edeb227b67a2cfb51321bab60e83bf6bb1944cf069c9623fe0a13b570c0eb8f2efe9207965a0cdb71123b8b40c81bd69b3964efe67c76c31eeaf35590200b6fce1e72e776baec3b91f2db6ba028fb367bd9840fc65c56e33ecad375b0002b4fee3e52c7569acc1bb1d2fb4b8008db165bf9a42fa63c36835eaab315d0604b2f8e5e32a736faac7bd1b29b2be068bb763b99c44f861c16a37e8a9335f0406b0fae7e128716da8c5bf192bb0bc0489b561bb9e46f66fcf6439e6a73d510a08bef4e9ef267f63a6cbb11725beb20a87bb6fb59048f46dcd663be4a53f53080abcf6ebed247d61a4c9b31527bcb00885b96db7924af26bcb603de2a339550e0cbaf0edeb227b67a2cfb51321bab60e83bf6bb1944cf069c9623fe0a13b570c0eb8f2efe9207965a0cdb71123b8b40c81bd69b3964efe67c76c31eeaf35590200b6fce1e72e776baec3b91f2db6ba028fb367bd9840fc65c56e33ecad375b0002b4fee3e52c7569acc1bb1d2fb4b8008db165bf9a42fa63c36835eaab315d0604b2f8e5e32a736faac7bd1b29b2be068bb763b99c44f861c16a37e8a9335f0406b0fae7e128716da8c5bf192bb0bc0489b561bb9e46f66fcf6439e6a73d510a08bef4e9ef267f63a6cbb11725beb20a87bb6fb59048f46dcd663be4a53f53080abcf6ebed247d61a4c9b31527bcb00885b96db7924af26bcb603de2a339550e0cbaf0edeb227b67a2cfb51321bab60e83bf6bb1944cf069c9623fe0a13b570c0eb8f2efe9207965a0cdb71123b8b40c81bd69b3964efe67c76c31eeaf35590200b6fce1e72e776baec3b91f2db6ba028fb367bd9840fc65c56e33ecad375b0002b4fee3e52c7569acc1bb1d2fb4b8008db165bf9a42fa63c36835eaab315d0604b2f8e5e32a736faac7bd1b29b2be068bb763b99c44f861c16a37e8a9335f0406b0fae7e128716da8c5bf192bb0bc0489b561bb9e46f66fcf6439e6a73d510a08bef4e9ef267f63a6cbb11725beb20a87bb6fb59048f46dcd663be4a53f53080abcf6ebed247d61a4c9b31527bcb00885b96db7924af26bcb603de2a339550e0cbaf0edeb227b67a2cfb51321bab60e83bf6bb1944cf069c9623fe0a13b570c0eb8f2efe9207965a0cdb71123b8b40c81bd69b3964efe67c76c31eeaf35590200b6fce1e72e776baec3b91f2db6ba028fb367bd9840fc65c56e33ecad375b0002b4fee3e52c7569acc1bb1d2fb4b8008db165bf9a42fa63c36835eaab315d0604b2f8e5e32a736faac7bd1b29b2be068bb763b99c44f861c16a37e8a9335f0406b0fae7e128716da8c5bf192bb0bc0489b561bb9e46f66fcf6439e6a73d510a08bef4e9ef267f63a6cbb11725beb20a87bb6fb59048f46dcd663be4a53f53080abcf6ebed247d61a4c9b31527bcb00885b96db7924af26bcb603de2a339550e0cbaf0edeb227b67a2cfb51321bab60e83bf6bb1944cf069c9623fe0a13b570c0eb8f2efe9207965a0cdb71123b8b40c81bd69b3964efe67c76c31eeaf35590200b6fce1e72e760d70e7bf8976bade93705c71bf3ea5126ae9755ef7bf6bd68c0872fbd77c8e702fd7509fd2302369b8cd1b9a421754af68eb99991bfd63fef54d35cc305bd6d9ffbfa7ba170c5f8aa372356b86857ad895a6f141d6054ed483d4eddc9c13d322f03e466e7a8763bf29d8d54a350cad2497da3e57faff911a8d94311df91f2d9496b7c59e96be3bd7c3b15753ea00ef50abee0995841f3cefb26d5eb5b3289098ba15d6daa0a82cd92622552765d6b7e5a60eebe6b5de0171460b7f5efea3c04e66c92eea7cf2a8eb41638f2cd94aaca0e9e0646b4ce255932249766008e1b1263a5d61d53b92186a2390fc9ae378bc918210c1cacc245203fd99b5bbe64c5e348a57dd83b0afc2ea47a60a354dc4f15cb7a855d09e4cfd974b15ed09b2172b3d69bfca85afd54a260a0bae89f6909a682e400d133c1c48143231fb9bc397b8a9175606fea726e56b6a5851cb37b0a57dc6ad3b7ddfb7d602373bf5889137aab036026af156bdb6bbbfeda8c6b38c32b10822476fdf498d7f3e28cb8eabd3ce9a3ba4b2fd1123d73111d18a566216ab206118e4ab97b38d9a053912bb667d2de7d0847d2af5b8856fcbaf107888236c383f20208cedc9da936cc6081eb7b2261a8a4e6f38b9b0bb404b94dcf80e6903540720bbd8e7c7efa8e864db43dd2f1a3f21095739621a613a15f0f47fb45e3a9bbff88e41596b83adf85d21379e7d9c126560793a8163643d3ccc9b7b8633b809104d5718d01c8658b1d5e01863fccb679fa1bb227b3f6374a972e145c65ef671fe3e5210959f4f913c693870474122b5e03410e31b3f9afa287570d79264386f5b08c15bc59bf9f955b59fcef91a4573f6d2276c1baa4e438179290f7fdea7b5b39f0b706befd30e4933fa62c1e8dbd248baab03d82a24b159c2add66c422311dede70032ae8fdf64094749c84f3343be87b51897e977d26f87453a43a40df27e7745cbe0d99e341c3c2ca9a22c0326de6f295cde744de28fccf402881559228c76e83d1b7cea6bf85d2ad307388108fd87111ee3cfe04d76c03f9af67b17e1855f710abd16eec06ddb4ca1708f05ce89f4d32de4255c847ce8b61ff453123050e5951351c3ebfed82be3536b623aca6bcb62d75c3fa7d05731d535cc7b3cecaa731758e983735605d660a5a15f6b842fb803d28bf88a75d229b68725ece5ef29ed13dd5fe09a80e33b4034816fbe2d804083ee2df4bfad6d21973cb5e29112197e685b040c9a3f2f6633ef2248269166fc067aa73fcfca47339c87eab2ad5559eeea2d08d5baf081839192733165608b1fe968e16750d1261eab33702ae2fb94271f0ec9deca14d724e48c20b33ab23643f7adff7648131d777542a9e9a7b43b1cf53460168ff40a44b190c2edb8d083b509cd4abafad484db3a08e46af940afe0af8c16a7bed5f8f4697f7e5dcf717058e9dc37f9cdc9a6d8f3e09604bd59b0cbc82f65c3d6afdc5c52b4c50afc4e1c9dfbb4b7e03765a8d4a8bdd52bb3d1aa010a0873b2756f0ea415910cfe37c99d67264b126b84e60f81e785e13709940a4006217fcc3e4de9e4674ce8ab55ab466a4a8847ecb423d615ba33c835a10a45d8d19ca2268707020cce8d1cccd08ff2af5577f04224ff8f592e4a35d0b46821591614a5754da4ea6c0275f14f64c245af1291c65ecfa185e41c8fa7d6e69ff1dd85ccd926aaadde0c97e99f484b4db8d74027d9b12eeed679cd46195a546f931df1417bd2abdc9de75da276ead5e9a18ec935d3bda299394fc7e6279d108914bbef5c77398239a250d656578e0f638bd400b3062a39b0b7b000f5075033439f93e6d5f5f4205d6b455463096438eef1132539f69bcb93a8360f7048c006115a2eb476a6e76699d392c2aece000b680111de57d973e6fa4b3cc4dc7c6d3af5fc59dc0f279884418168279225ee71d43ba6f6121ed5559227cc91d917cf1666ab3da2c5ba4ef832af870859232bb46e41f1cf68a3e48193c26895a1f6813f1a1cb30705de1e6a5ac8a6611b709bc929990cbe82f3a3b3b713137b0dc89f850d77df2ce02f9fc1d8131a4120652f68093c83c2dd73a440e4a9af49f5e5fa39d14caf9468a4053c8831ec28222f0f8849ec7245c33d05738d01b508771bbc712015ee24b0dc3a61d1dffdeb82ff1e21c532b657d35186770790ed0f6374ed73a7fc0513c9603456d58c7202a2ec5e3c16a831f8c3517dee5f6f17a620c892bde2c017017b3742f6828ee542706e8765322fd8709a24bc0532fed35d03697921e53826dd47f7f7d3688421ab3335269b1464ba14ed42bc3fb811ec9865bcbb095b47e67b860373b491e637f51e97d6b9b9d60d2fa76e192a4a181d9e23c502fdeea1db9769d8c516bc162acdddaebad6fcc9db2bef29e72b1dcfee4836d2581caec63a076377f460a808e117e91e57bc9e34d4cb9a493e9488b73b04026f8e851de081f2445c3c753fecbc8e6e62f6e52058d423d27e1873caa42124612e067252bc35cae53a5d9d286291c7bd7dcb244c40eca0ba5d90a0295f7c779d9e19c1fc419d63dd221c955575c1ab138bde55e9a377a4b752ab507543ebff91c5b2dd809141b360307fa652d9c7227b724e3907632e67334b5342582472f7dfeb67ef28d7e1733a3c7a42d681838872b9f6259c48a01d65bf666575006cf87dee3f498c07bdd3330dd521946a1c3bb221f710fdded1881b371bf592b73a8bba08916458ba52ed243539d8b2bbe86fd3884d91ea9668549fbaeaa8906a63acb40f86ef181a937899b24eec206f10af32c152a616456ec6c16cdf943db4ba2081b2ef79c824b4fcdade490d94016ba993d34c05f3d73d86c702cd103046619f30ed6e5b4d89f6b8866d9322bfa6ccd398e683b70d84c7f2c436533dc4628ef27c1d13796798570507a1b4f2bd7f39f8c2796433b27796a6421b462d6f0b23c36159d4ef35ea69b187f9bab35b4c16c34b080ab915910e2c433359e577a43d016e90463aa4e31277330535d10d1b5478b7939e2b2f7d4c5a041f2d81deca8edf90408d1692beb991352c165f09e3a2304962eaf92e6f5d90986fe7e13410c299d8766bbba7ff47a11cfd0d8e49f9c9669b75c70a27e695758eb3509cb811002878b45c748430c779dbd5fe89762b9fabdeb8fecf38eb0d099d4f8c66e7380ad20da1167a50bec65f95582d9b3c35ab8987a66c032113dd968ea48b1414bc4b3cd3bd77c9f5d93cfaa60ef9a316155ae9eb8185a47c131f8cd0caf0659d3faefe0263fefadbadc9c740e41c4a102339b020ddbc706f3a95667ca80cce2b36b722e54b37847512b653983e22f71238b3d3ae3d1bb616dd892477052f374c595e6b7f8991979fa4babcea1b2231353945606b84b0d5e6fe0c172c3f566d797b8e949a9d9ec2d8dce7e8f20a171c2a415867696e72898c999bc0cbccd7d9da000000000000000000000000101d304401fd21050080d450036be827cb9c6725bb276cf75bd952b29f4835fc513cb197478f3484ccf8e2393f9beeaebd124a95238680332fc6953f923d8747e8e59086b8330a56218901334c6164cfe3046376219e2cef5ec220dc7932fad85f845c08bef493ce6eef6e8b1e4ffafd1bb0cce947bf24434035b0c63aea4eff179c8a9d8dc3c95978890cfbd6c5e572190c3d36be7d5778d385ea33ce15c196ba5bf87ff31816b59802c7578d85880ad503c6e84158fd3c4c1f89ba1fc39afe3e1133e4800e3bee95f4e792b55ddccf5fd4cbe1b643659bafcc628f41fc358a1a0c16097744ef339ed28456084ab81231fa592b04323d7e1a8a693da86a2daccfd1a8021d40a0497ab78bcdc6b2651034c2d02bb01c9140551e96f10840b9889f4ddf0bf837255093ae56bb16cb1776228e532e95cc770be55c02d1ed461fecf0ec9887fe6d291f625dae5869d2e7855163e7ea03a4f958eabaf85bdca077e7ed07239a3528d04898163ed4f88e0ccb9ed1ce0c7adffb3131e0313354cc85e6cb8c184dc32e3acf884cd2b7cdb579f25bfdb0dfe0676eccfdca6723aa6411a8647cf06fb8c8c009c3663ff905f87a01deb2ba95d5716d76907fd943221a261324b28df55dd4e1906149a33bf6b28f9fd20cd4a8fcfc9b66fa4abebf670300148ac623ff2b100279e8587124f8c0f494e26fd326750cf5d2834bc0531c586034fb328faf01614fe0c4166d4de161cec98a58839dff423843984c010d57a6a80ca026386720768673564d70bace669a0ac04dd4e88159e76cc4153d69a5f2c956acf95fd68b13dde876368927c9fc0fa25574edcf9fc33dd6c4254958ba77d2a7d76d5addf12f9c86337638337568a874dc96358571c9f3b8d0a5d413f6f4b19d1d64fd47c69c7803ad713e1018ca8d649683bf2484a17bfe8ef68babda18f7541759f382b91ef95b3cef96883b9228f4fad9a50a7d965f280d307d6f81e3243c7ab6272cf0182e2ac20e7a567667b3c89f9530ae79345b24172fa5dedbba89af66e5a781d83abd925713af5ac3872dc634ce24f48b74ae63d4872028db0105b80d904282f2a38dec8e3e59c2f56a4658bb8e0126071b2d97bcc4d3de56e541439ba46da40d599b7392a009674935da934f37c8236447cb6bb4b6a0b067c5a8095ea690448082a6f457bf4d063a7548eeea3f3634b13515193f6342234a68bcf2ea26f294d49041926562160d1e3940897d3568222b857736cac4fddedc0616c4abab3a5377fe14f851df7e26237129db89e6bcb455f50d3e10804b411c33d3e5a26702858bf87062636b8ffa2c9fa17977d18b92266dcd688ae9a296b7b89ef7cb2936d8af0161ace054d9fdd75b218efaa5803473faee1da8713ba8fb02ff4fcd76bf056905df55a39a8f9f336786eca0499409100e2be4a8d52bdba7fef15fd7b90b8efaf9d63bbc15da89a46be6f4723df2f72ee35993f4823e756206b7948253cb5a1fb412d87f22a01c1559ce1cd5a2c6a38cfb448265c261972b8081349d11ae862d229b70ab04bbdfd632eda3e65ad5e8073715194befa0e300231e91dcc790679dd277a13bea4809fe94817fe876571ec490690f5b15d4edbcd067f4c8329c92546afde7a45db7025d23b43cf1ea199f1bb039b9c590e855de46adc1ebe21e8a1a115a9f255a442ffb27c66c387a0c830d375eddd0d0ce60256292c546af85bf8b2c261be93c9d0deb19c9b874a80213e3a2994d56b0966589a1894618adfdd5d4067ee364082908d8f687b05c6f0e65d4e6f1260f4a1bea0b10176e9fe81d961ab7ce2f51b1a89ccfa8084673841a44568cdc491e2e6267e298d9e0ea2abeaf51d5d2d3cc86000000",
  "txid": "d38e299318064fe052caa037836ae2f006a7a6e184be2dc3da70e074f00dc17e",
  "hash": "4629bc9596b9312eb44385658db9aa0ea9cb5e9d0971b4f2bb73a253dfe3a4cf",
  "size": 5085,
  "vsize": 2278,
  "version": 1,
  "locktime": 134,
  "vin": [
    {
      "txid": "3c364f8c9b503402bc62777010ffca8a5be7e7b8a575c3863046e1bb6f39e65c",
      "vout": 1,
      "scriptSig": {
        "asm": "",
        "hex": ""
      },
      "txinwitness": [
        "fd2302369b8cd1b9a421754af68eb99991bfd63fef54d35cc305bd6d9ffbfa7ba170c5f8aa372356b86857ad895a6f141d6054ed483d4eddc9c13d322f03e466e7a8763bf29d8d54a350cad2497da3e57faff911a8d94311df91f2d9496b7c59e96be3bd7c3b15753ea00ef50abee0995841f3cefb26d5eb5b3289098ba15d6daa0a82cd92622552765d6b7e5a60eebe6b5de0171460b7f5efea3c04e66c92eea7cf2a8eb41638f2cd94aaca0e9e0646b4ce255932249766008e1b1263a5d61d53b92186a2390fc9ae378bc918210c1cacc245203fd99b5bbe64c5e348a57dd83b0afc2ea47a60a354dc4f15cb7a855d09e4cfd974b15ed09b2172b3d69bfca85afd54a260a0bae89f6909a682e400d133c1c48143231fb9bc397b8a9175606fea726e56b6a5851cb37b0a57dc6ad3b7ddfb7d602373bf5889137aab036026af156bdb6bbbfeda8c6b38c32b10822476fdf498d7f3e28cb8eabd3ce9a3ba4b2fd1123d73111d18a566216ab206118e4ab97b38d9a053912bb667d2de7d0847d2af5b8856fcbaf107888236c383f20208cedc9da936cc6081eb7b2261a8a4e6f38b9b0bb404b94dcf80e6903540720bbd8e7c7efa8e864db43dd2f1a3f21095739621a613a15f0f47fb45e3a9bbff88e41596b83adf85d21379e7d9c126560793a8163643d3ccc9b7b8633b809104d5718d01c8658b1d5e01863fccb679fa1bb227b3f6374a972e145c65ef671fe3e5210959f4f913c693870474122b5e03410e31b3f9afa287570d79264386f5b08c15bc59bf9f955b59fcef91a4573f6d2276c1baa4e438179290f7fdea7b5b39f0b706befd30e4933fa62c1e8dbd248baab03d82a24b159c2add66c422311dede70032ae8fdf64094749c84f3343be87b51897e977d26f87453a43a40df27e7745cbe0d99e341c3c2ca9a22c0326de6f295cde744de28fccf402881559228c76e83d1b7cea6bf85d2ad307388108fd87111ee3cfe04d76c03f9af67b17e1855f710abd16eec06ddb4ca1708f05ce89f4d32de4255c847ce8b61ff453123050e5951351c3ebfed82be3536b623aca6bcb62d75c3fa7d05731d535cc7b3cecaa731758e983735605d660a5a15f6b842fb803d28bf88a75d229b68725ece5ef29ed13dd5fe09a80e33b4034816fbe2d804083ee2df4bfad6d21973cb5e29112197e685b040c9a3f2f6633ef2248269166fc067aa73fcfca47339c87eab2ad5559eeea2d08d5baf081839192733165608b1fe968e16750d1261eab33702ae2fb94271f0ec9deca14d724e48c20b33ab23643f7adff7648131d777542a9e9a7b43b1cf53460168ff40a44b190c2edb8d083b509cd4abafad484db3a08e46af940afe0af8c16a7bed5f8f4697f7e5dcf717058e9dc37f9cdc9a6d8f3e09604bd59b0cbc82f65c3d6afdc5c52b4c50afc4e1c9dfbb4b7e03765a8d4a8bdd52bb3d1aa010a0873b2756f0ea415910cfe37c99d67264b126b84e60f81e785e13709940a4006217fcc3e4de9e4674ce8ab55ab466a4a8847ecb423d615ba33c835a10a45d8d19ca2268707020cce8d1cccd08ff2af5577f04224ff8f592e4a35d0b46821591614a5754da4ea6c0275f14f64c245af1291c65ecfa185e41c8fa7d6e69ff1dd85ccd926aaadde0c97e99f484b4db8d74027d9b12eeed679cd46195a546f931df1417bd2abdc9de75da276ead5e9a18ec935d3bda299394fc7e6279d108914bbef5c77398239a250d656578e0f638bd400b3062a39b0b7b000f5075033439f93e6d5f5f4205d6b455463096438eef1132539f69bcb93a8360f7048c006115a2eb476a6e76699d392c2aece000b680111de57d973e6fa4b3cc4dc7c6d3af5fc59dc0f279884418168279225ee71d43ba6f6121ed5559227cc91d917cf1666ab3da2c5ba4ef832af870859232bb46e41f1cf68a3e48193c26895a1f6813f1a1cb30705de1e6a5ac8a6611b709bc929990cbe82f3a3b3b713137b0dc89f850d77df2ce02f9fc1d8131a4120652f68093c83c2dd73a440e4a9af49f5e5fa39d14caf9468a4053c8831ec28222f0f8849ec7245c33d05738d01b508771bbc712015ee24b0dc3a61d1dffdeb82ff1e21c532b657d35186770790ed0f6374ed73a7fc0513c9603456d58c7202a2ec5e3c16a831f8c3517dee5f6f17a620c892bde2c017017b3742f6828ee542706e8765322fd8709a24bc0532fed35d03697921e53826dd47f7f7d3688421ab3335269b1464ba14ed42bc3fb811ec9865bcbb095b47e67b860373b491e637f51e97d6b9b9d60d2fa76e192a4a181d9e23c502fdeea1db9769d8c516bc162acdddaebad6fcc9db2bef29e72b1dcfee4836d2581caec63a076377f460a808e117e91e57bc9e34d4cb9a493e9488b73b04026f8e851de081f2445c3c753fecbc8e6e62f6e52058d423d27e1873caa42124612e067252bc35cae53a5d9d286291c7bd7dcb244c40eca0ba5d90a0295f7c779d9e19c1fc419d63dd221c955575c1ab138bde55e9a377a4b752ab507543ebff91c5b2dd809141b360307fa652d9c7227b724e3907632e67334b5342582472f7dfeb67ef28d7e1733a3c7a42d681838872b9f6259c48a01d65bf666575006cf87dee3f498c07bdd3330dd521946a1c3bb221f710fdded1881b371bf592b73a8bba08916458ba52ed243539d8b2bbe86fd3884d91ea9668549fbaeaa8906a63acb40f86ef181a937899b24eec206f10af32c152a616456ec6c16cdf943db4ba2081b2ef79c824b4fcdade490d94016ba993d34c05f3d73d86c702cd103046619f30ed6e5b4d89f6b8866d9322bfa6ccd398e683b70d84c7f2c436533dc4628ef27c1d13796798570507a1b4f2bd7f39f8c2796433b27796a6421b462d6f0b23c36159d4ef35ea69b187f9bab35b4c16c34b080ab915910e2c433359e577a43d016e90463aa4e31277330535d10d1b5478b7939e2b2f7d4c5a041f2d81deca8edf90408d1692beb991352c165f09e3a2304962eaf92e6f5d90986fe7e13410c299d8766bbba7ff47a11cfd0d8e49f9c9669b75c70a27e695758eb3509cb811002878b45c748430c779dbd5fe89762b9fabdeb8fecf38eb0d099d4f8c66e7380ad20da1167a50bec65f95582d9b3c35ab8987a66c032113dd968ea48b1414bc4b3cd3bd77c9f5d93cfaa60ef9a316155ae9eb8185a47c131f8cd0caf0659d3faefe0263fefadbadc9c740e41c4a102339b020ddbc706f3a95667ca80cce2b36b722e54b37847512b653983e22f71238b3d3ae3d1bb616dd892477052f374c595e6b7f8991979fa4babcea1b2231353945606b84b0d5e6fe0c172c3f566d797b8e949a9d9ec2d8dce7e8f20a171c2a415867696e72898c999bc0cbccd7d9da000000000000000000000000101d304401",
        "0080d450036be827cb9c6725bb276cf75bd952b29f4835fc513cb197478f3484ccf8e2393f9beeaebd124a95238680332fc6953f923d8747e8e59086b8330a56218901334c6164cfe3046376219e2cef5ec220dc7932fad85f845c08bef493ce6eef6e8b1e4ffafd1bb0cce947bf24434035b0c63aea4eff179c8a9d8dc3c95978890cfbd6c5e572190c3d36be7d5778d385ea33ce15c196ba5bf87ff31816b59802c7578d85880ad503c6e84158fd3c4c1f89ba1fc39afe3e1133e4800e3bee95f4e792b55ddccf5fd4cbe1b643659bafcc628f41fc358a1a0c16097744ef339ed28456084ab81231fa592b04323d7e1a8a693da86a2daccfd1a8021d40a0497ab78bcdc6b2651034c2d02bb01c9140551e96f10840b9889f4ddf0bf837255093ae56bb16cb1776228e532e95cc770be55c02d1ed461fecf0ec9887fe6d291f625dae5869d2e7855163e7ea03a4f958eabaf85bdca077e7ed07239a3528d04898163ed4f88e0ccb9ed1ce0c7adffb3131e0313354cc85e6cb8c184dc32e3acf884cd2b7cdb579f25bfdb0dfe0676eccfdca6723aa6411a8647cf06fb8c8c009c3663ff905f87a01deb2ba95d5716d76907fd943221a261324b28df55dd4e1906149a33bf6b28f9fd20cd4a8fcfc9b66fa4abebf670300148ac623ff2b100279e8587124f8c0f494e26fd326750cf5d2834bc0531c586034fb328faf01614fe0c4166d4de161cec98a58839dff423843984c010d57a6a80ca026386720768673564d70bace669a0ac04dd4e88159e76cc4153d69a5f2c956acf95fd68b13dde876368927c9fc0fa25574edcf9fc33dd6c4254958ba77d2a7d76d5addf12f9c86337638337568a874dc96358571c9f3b8d0a5d413f6f4b19d1d64fd47c69c7803ad713e1018ca8d649683bf2484a17bfe8ef68babda18f7541759f382b91ef95b3cef96883b9228f4fad9a50a7d965f280d307d6f81e3243c7ab6272cf0182e2ac20e7a567667b3c89f9530ae79345b24172fa5dedbba89af66e5a781d83abd925713af5ac3872dc634ce24f48b74ae63d4872028db0105b80d904282f2a38dec8e3e59c2f56a4658bb8e0126071b2d97bcc4d3de56e541439ba46da40d599b7392a009674935da934f37c8236447cb6bb4b6a0b067c5a8095ea690448082a6f457bf4d063a7548eeea3f3634b13515193f6342234a68bcf2ea26f294d49041926562160d1e3940897d3568222b857736cac4fddedc0616c4abab3a5377fe14f851df7e26237129db89e6bcb455f50d3e10804b411c33d3e5a26702858bf87062636b8ffa2c9fa17977d18b92266dcd688ae9a296b7b89ef7cb2936d8af0161ace054d9fdd75b218efaa5803473faee1da8713ba8fb02ff4fcd76bf056905df55a39a8f9f336786eca0499409100e2be4a8d52bdba7fef15fd7b90b8efaf9d63bbc15da89a46be6f4723df2f72ee35993f4823e756206b7948253cb5a1fb412d87f22a01c1559ce1cd5a2c6a38cfb448265c261972b8081349d11ae862d229b70ab04bbdfd632eda3e65ad5e8073715194befa0e300231e91dcc790679dd277a13bea4809fe94817fe876571ec490690f5b15d4edbcd067f4c8329c92546afde7a45db7025d23b43cf1ea199f1bb039b9c590e855de46adc1ebe21e8a1a115a9f255a442ffb27c66c387a0c830d375eddd0d0ce60256292c546af85bf8b2c261be93c9d0deb19c9b874a80213e3a2994d56b0966589a1894618adfdd5d4067ee364082908d8f687b05c6f0e65d4e6f1260f4a1bea0b10176e9fe81d961ab7ce2f51b1a89ccfa8084673841a44568cdc491e2e6267e298d9e0ea2abeaf51d5d2d3cc"
      ],
      "sequence": 4294967294
    }
  ],
  "vout": [
    {
      "value": 499963.3916,
      "n": 0,
      "scriptPubKey": {
        "asm": "1 19cd38b364eaf416a68fc353aba7e2c915298a0b8b31df51ae2aa20cd16e2eee",
        "hex": "512019cd38b364eaf416a68fc353aba7e2c915298a0b8b31df51ae2aa20cd16e2eee",
        "reqSigs": 1,
        "type": "witness_v1_scripthash",
        "addresses": [
          "3QJmnh"
        ]
      }
    },
    {
      "value": 1.0,
      "n": 1,
      "scriptPubKey": {
        "asm": "OP_RETURN c330a3ef381e0b4b1fb8ca951ae59df28a3d347a7555a51ac85276cf81bf6abf 66fcf6439e6a73d510a08bef4e9ef267f63a6cbb11725beb20a87bb6fb59048f46dcd663be4a53f53080abcf6ebed247d61a4c9b31527bcb00885b96db7924af26bcb603de2a339550e0cbaf0edeb227b67a2cfb51321bab60e83bf6bb1944cf069c9623fe0a13b570c0eb8f2efe9207965a0cdb71123b8b40c81bd69b3964efe67c76c31eeaf35590200b6fce1e72e776baec3b91f2db6ba028fb367bd9840fc65c56e33ecad375b0002b4fee3e52c7569acc1bb1d2fb4b8008db165bf9a42fa63c36835eaab315d0604b2f8e5e32a736faac7bd1b29b2be068bb763b99c44f861c16a37e8a9335f0406b0fae7e128716da8c5bf192bb0bc0489b561bb9e46f66fcf6439e6a73d510a08bef4e9ef267f63a6cbb11725beb20a87bb6fb59048f46dcd663be4a53f53080abcf6ebed247d61a4c9b31527bcb00885b96db7924af26bcb603de2a339550e0cbaf0edeb227b67a2cfb51321bab60e83bf6bb1944cf069c9623fe0a13b570c0eb8f2efe9207965a0cdb71123b8b40c81bd69b3964efe67c76c31eeaf35590200b6fce1e72e776baec3b91f2db6ba028fb367bd9840fc65c56e33ecad375b0002b4fee3e52c7569acc1bb1d2fb4b8008db165bf9a42fa63c36835eaab315d0604b2f8e5e32a736faac7bd1b29b2be068bb763b99c44f861c16a37e8a9335f0406b0fae7e128716da8c5bf192bb0bc0489b561bb9e46f66fcf6439e6a73d510a08bef4e9ef267f63a6cbb11725beb20a87bb6fb59048f46dcd663be4a53f53080abcf6ebed247d61a4c9b31527bcb00885b96db7924af26bcb603de2a339550e0cbaf0edeb227b67a2cfb51321bab60e83bf6bb1944cf069c9623fe0a13b570c0eb8f2efe9207965a0cdb71123b8b40c81bd69b3964efe67c76c31eeaf35590200b6fce1e72e776baec3b91f2db6ba028fb367bd9840fc65c56e33ecad375b0002b4fee3e52c7569acc1bb1d2fb4b8008db165bf9a42fa63c36835eaab315d0604b2f8e5e32a736faac7bd1b29b2be068bb763b99c44f861c16a37e8a9335f0406b0fae7e128716da8c5bf192bb0bc0489b561bb9e46f66fcf6439e6a73d510a08bef4e9ef267f63a6cbb11725beb20a87bb6fb59048f46dcd663be4a53f53080abcf6ebed247d61a4c9b31527bcb00885b96db7924af26bcb603de2a339550e0cbaf0edeb227b67a2cfb51321bab60e83bf6bb1944cf069c9623fe0a13b570c0eb8f2efe9207965a0cdb71123b8b40c81bd69b3964efe67c76c31eeaf35590200b6fce1e72e776baec3b91f2db6ba028fb367bd9840fc65c56e33ecad375b0002b4fee3e52c7569acc1bb1d2fb4b8008db165bf9a42fa63c36835eaab315d0604b2f8e5e32a736faac7bd1b29b2be068bb763b99c44f861c16a37e8a9335f0406b0fae7e128716da8c5bf192bb0bc0489b561bb9e46f66fcf6439e6a73d510a08bef4e9ef267f63a6cbb11725beb20a87bb6fb59048f46dcd663be4a53f53080abcf6ebed247d61a4c9b31527bcb00885b96db7924af26bcb603de2a339550e0cbaf0edeb227b67a2cfb51321bab60e83bf6bb1944cf069c9623fe0a13b570c0eb8f2efe9207965a0cdb71123b8b40c81bd69b3964efe67c76c31eeaf35590200b6fce1e72e760d70e7bf8976bade93705c71bf3ea5126ae9755ef7bf6bd68c0872fbd77c8e7",
        "hex": "6a20c330a3ef381e0b4b1fb8ca951ae59df28a3d347a7555a51ac85276cf81bf6abf4db00466fcf6439e6a73d510a08bef4e9ef267f63a6cbb11725beb20a87bb6fb59048f46dcd663be4a53f53080abcf6ebed247d61a4c9b31527bcb00885b96db7924af26bcb603de2a339550e0cbaf0edeb227b67a2cfb51321bab60e83bf6bb1944cf069c9623fe0a13b570c0eb8f2efe9207965a0cdb71123b8b40c81bd69b3964efe67c76c31eeaf35590200b6fce1e72e776baec3b91f2db6ba028fb367bd9840fc65c56e33ecad375b0002b4fee3e52c7569acc1bb1d2fb4b8008db165bf9a42fa63c36835eaab315d0604b2f8e5e32a736faac7bd1b29b2be068bb763b99c44f861c16a37e8a9335f0406b0fae7e128716da8c5bf192bb0bc0489b561bb9e46f66fcf6439e6a73d510a08bef4e9ef267f63a6cbb11725beb20a87bb6fb59048f46dcd663be4a53f53080abcf6ebed247d61a4c9b31527bcb00885b96db7924af26bcb603de2a339550e0cbaf0edeb227b67a2cfb51321bab60e83bf6bb1944cf069c9623fe0a13b570c0eb8f2efe9207965a0cdb71123b8b40c81bd69b3964efe67c76c31eeaf35590200b6fce1e72e776baec3b91f2db6ba028fb367bd9840fc65c56e33ecad375b0002b4fee3e52c7569acc1bb1d2fb4b8008db165bf9a42fa63c36835eaab315d0604b2f8e5e32a736faac7bd1b29b2be068bb763b99c44f861c16a37e8a9335f0406b0fae7e128716da8c5bf192bb0bc0489b561bb9e46f66fcf6439e6a73d510a08bef4e9ef267f63a6cbb11725beb20a87bb6fb59048f46dcd663be4a53f53080abcf6ebed247d61a4c9b31527bcb00885b96db7924af26bcb603de2a339550e0cbaf0edeb227b67a2cfb51321bab60e83bf6bb1944cf069c9623fe0a13b570c0eb8f2efe9207965a0cdb71123b8b40c81bd69b3964efe67c76c31eeaf35590200b6fce1e72e776baec3b91f2db6ba028fb367bd9840fc65c56e33ecad375b0002b4fee3e52c7569acc1bb1d2fb4b8008db165bf9a42fa63c36835eaab315d0604b2f8e5e32a736faac7bd1b29b2be068bb763b99c44f861c16a37e8a9335f0406b0fae7e128716da8c5bf192bb0bc0489b561bb9e46f66fcf6439e6a73d510a08bef4e9ef267f63a6cbb11725beb20a87bb6fb59048f46dcd663be4a53f53080abcf6ebed247d61a4c9b31527bcb00885b96db7924af26bcb603de2a339550e0cbaf0edeb227b67a2cfb51321bab60e83bf6bb1944cf069c9623fe0a13b570c0eb8f2efe9207965a0cdb71123b8b40c81bd69b3964efe67c76c31eeaf35590200b6fce1e72e776baec3b91f2db6ba028fb367bd9840fc65c56e33ecad375b0002b4fee3e52c7569acc1bb1d2fb4b8008db165bf9a42fa63c36835eaab315d0604b2f8e5e32a736faac7bd1b29b2be068bb763b99c44f861c16a37e8a9335f0406b0fae7e128716da8c5bf192bb0bc0489b561bb9e46f66fcf6439e6a73d510a08bef4e9ef267f63a6cbb11725beb20a87bb6fb59048f46dcd663be4a53f53080abcf6ebed247d61a4c9b31527bcb00885b96db7924af26bcb603de2a339550e0cbaf0edeb227b67a2cfb51321bab60e83bf6bb1944cf069c9623fe0a13b570c0eb8f2efe9207965a0cdb71123b8b40c81bd69b3964efe67c76c31eeaf35590200b6fce1e72e760d70e7bf8976bade93705c71bf3ea5126ae9755ef7bf6bd68c0872fbd77c8e7",
        "type": "nulldata"
      }
    }
  ],
  "blockhash": "74cd48d8c624c37e1fac27c00c19e94c48df61d3ca85b84b56360e4f6170fa6f",
  "confirmations": 1,
  "time": 1764182926,
  "blocktime": 1764182926
}