{
  "hex": "010000000001016f99f748cce1c6b124cdbef29d0ee550578a52561473f453478fe459e4cd2a3c0000000000feffffff0260cda5ea782d00002251209fcf9f303eb22a05a227addf4f5f49d88a88c42ccef640df454cec3231732e0f00e1f50500000000fdd5046a20e9089b488cd9092e75273a2d2ed0a65a0282920eaa70aadb4c5bfd3958d5c7884db004a969f849b665546c4a043bbdc6660745a59ca6ac93cb5b9269d151d8757751ba8949d8699645744c6a241b9de646276585bc868cb3eb7bb249f171f85557719ae929b809f625142c0a447bfd86264705e5dce6ecd38b1bd229911198353711fac9099829d605340c2a645bdda6066725c5fcc6ccf3ab3bf209b131b8151731da29e978c936e5d4ecca84bb3d46e687c5251c262c134bdb12e951d158f5f7d13a09c958e916c5f4cceaa49b1d66c6a7e5053c060c336bfb32c971f178d5d7f11a69a9388976a594ac8ac4fb7d06a6c785655c666c530b9b52a9119118b5b7917a498918a95685b48caae4db5d2686e7a5457c464c732bbb728931b1389597b15aa969f849b665546c4a043bbdc6660745a59ca6ac93cb5b9269d151d8757751ba8949d8699645744c6a241b9de646276585bc868cb3eb7bb249f171f85557719ae929b809f625142c0a447bfd86264705e5dce6ecd38b1bd229911198353711fac9099829d605340c2a645bdda6066725c5fcc6ccf3ab3bf209b131b8151731da29e978c936e5d4ecca84bb3d46e687c5251c262c134bdb12e951d158f5f7d13a09c958e916c5f4cceaa49b1d66c6a7e5053c060c336bfb32c971f178d5d7f11a69a9388976a594ac8ac4fb7d06a6c785655c666c530b9b52a9119118b5b7917a498918a95685b48caae4db5d2686e7a5457c464c732bbb728931b1389597b15aa969f849b665546c4a043bbdc6660745a59ca6ac93cb5b9269d151d8757751ba8949d8699645744c6a241b9de646276585bc868cb3eb7bb249f171f85557719ae929b809f625142c0a447bfd86264705e5dce6ecd38b1bd229911198353711fac9099829d605340c2a645bdda6066725c5fcc6ccf3ab3bf209b131b8151731da29e978c936e5d4ecca84bb3d46e687c5251c262c134bdb12e951d158f5f7d13a09c958e916c5f4cceaa49b1d66c6a7e5053c060c336bfb32c971f178d5d7f11a69a9388976a594ac8ac4fb7d06a6c785655c666c530b9b52a9119118b5b7917a498918a95685b48caae4db5d2686e7a5457c464c732bbb728931b1389597b15aa969f849b665546c4a043bbdc6660745a59ca6ac93cb5b9269d151d8757751ba8949d8699645744c6a241b9de646276585bc868cb3eb7bb249f171f85557719ae929b809f625142c0a447bfd86264705e5dce6ecd38b1bd229911198353711fac9099829d605340c2a645bdda6066725c5fcc6ccf3ab3bf209b131b8151731da29e978c936e5d4ecca84bb3d46e687c5251c262c134bdb12e951d158f5f7d13a09c958e916c5f4cceaa49b1d66c6a7e5053c060c336bfb32c971f178d5d7f11a69a9388976a594ac8ac4fb7d06a6c785655c666c530b9b52a9119118b5b7917a498918a95685b48caae4db5d2686e7a5457c464c732bbb728931b1389597b15aa969f849b665546c4a043bbdc6660745a59ca6ac93cb5b9269d151d8757751ba8949d8699645744c6a241b9de646276585bc868cb3eb7bb249f171f85557719ae929b809f625142c0a447bfd86264705e5dce6ecd38b1bd229911198353711fac9099829d605340c2a645bdda6066725c5fcc6ccf3ab3bf209b131b8151731da29e978c936e5d4ecca84bb3d46e687c518d9aa2a3528e674f215bec303de054fd2103afd96ceee477a556257f7a47cdc02fd7509075df4d377ebd55449438bbc4b5c5c852ad8ee6cad82079d9ab5bc4afca892052f0a8d40a1b49870302f87f2105e402b8baf3e03cf3d14b1b1b419b28a3cf392492e58db67db44009712d3fa977b6dc7d45b52984c98070dbf9359438a773123a43eccf2ab02ddc5edc5c14300b9f6748813dde07437df324dd093c73b71e86ec2f02db4a5270518f099873dfcc3a3724fa895e0eb3ddfcc3b7f565bbcce10d108a3b9bcd906fe6571fa3e35457c4a633a21da3ce820d380f6579f3b0a6773baf42962ffa268f97f5068711c99ff26c3f0265358b07408eab66de8f51159367e240679fffea1c1ede93ec1cdf52c35a668eec452cef4f324d63dfaa7f27a21bac00ae8ca963f76c6822d42da06ceb8b474299bb2c0946408cc3b82a766a21a55641caadafd4b0e78621896c3c3787175270f269cca16882279aa7c841e4dc2e86cbf759a616fdf4847054aa2a8b61f3d2d54a0f125f70273c463e0594ac1397917c5f86f1d0b066e17afd532c79e20b094e8f912f065dec5587a9b4da2d716313ebda4e48b27a256cf970a17bbc58b09da9c18cddfdca055fe33f16c0cbebefc74ab31a8ddd5f5a7868e5cbac773ffa638f9120c84ad051d2b5391372c2741f54d763db472202e392306d9ef3133a0fab587aa46d38a5c82f13fba5c67d54b2f8b14616d167116f0c490b0aedbe45d7fb6723f0e539a08ebf06364a4d9472360c6e80e0cd630496fd74f4d390b4368d2fac7ef5549ea7a01fe22731acadbc14eab8ee868bda87a6218abe64a3bee54b865470b63b3ce4ceb940a7212a4915cf99dde587daea4f352d41fec32fcb6588470b993f9be12afe9f8a3be5eb6200bb7c3efbc0d859e3c814fe77778a4a5dc404e68cc0438033eceb573d7ec65e4de7a70d1be541de20154d5650a43b725e1da451a225909f174deb7c6529afa4d95c35c3b8020363069beb6b1382fd3f223bb23a8c9382dc6feb36a4148213ab7490aa8ba570e353cbfc3025cdae3d7e1da30c3b06203fb19ba085fd613d56b43791ca9b604dd31e256c7634adc3afefafb99011f5f2db1aa6198b2530968883bdfeb82508b4b8d5a62774eaa72edd35da261e2b42d4d61b6b022c4845514cb9527141cb442857a426cc199269c352e98110f4aa6ecea71b6ab04778af5d21354a899f89b9d0b143554381911e3b5322f56181c8a7960448b6a6d91446fc0f3a29332b0cd549a207e926dee398ee4bb1b8deec8dc8e93b6a9de9e491a3217750333c499dd5f86d02443a8cb41831ad2155c2f53ee8a80cc11e13d589088184b3d331ccd60eca36caf07969d201e4221b9ac2a93fff6f988f502de5d3fd1b2bf21527ad9d86e7487c6c868820e0bf14c0bbd40ff2e1c960abf4dff567274c9d57bd603fe58d86b4697be2d091bca5a6f3ac96079baab61f26c9f2e183827be5a18b5619804598d361a036e238a97395fcfa40ba9c4e8f557b113fa6e6c6b17b6bc23c5cb64810e9bf66bae89b8b278ad8d0a66b6137e48d60f786a29588cffec49f8d7503cc8f4515ee7042bb52a3b3a80a134dd8d527f5f83463efd64bea825dbdecb47da6f0ba66a5b11d24d5c47bb429ed049757755789a0ec2919f9e392171cdc1d7751209b9c7aad520c81be04083c535dd8f57fe81429c4cd18f2be74b3b77cf31a2bde059eb44ad91c0be89d3b9a8cadd8b6b75b623051be1ec6038d14b9b6fc1fc78f4b670180893eb1bf43b296d43610485e5ad90c19bc04c5ebd709779689d920ad5c71e2e5db1e3c43676f2d797abffc5f646972102bdb119d99b972af4b9ba8e8ea0ab8b05db343190f31e16c8e310f43d2ae615cd818c2c056c8013c79dde1b05d69829dd7315ee2a9b854e8a0f05e424e1fdb0f4416dadcafaa03af2889e3e9bef55726a405854908bdf6cf5722d9739cd41c48a8101305ae25545d16c6d8ee706f1973dfd765dc803b05ced8af6b85defd9752b257ccbc0b60bd5b5c2843d002d0833f34d834076d434c4db15a61c9e278e63a2a5103a2c63c6ef9d7e51e86f61192fb3ceb4c5728769274c10c039176ee11e7a513ebb70daf20afa26317c4aa8b553af6e3fe5382a9fbafd991f73b81796655dcf3cacc3aae534b84a53515cb099c2a52adb6aa7378e92634df851f7161af2541d58320084f1bdf2718ed773c890c82b64036c3af44a6ae3c6780da5038c6e0ab9084f71a89791165d2082ceed0f16b75adf5336472e1449d7351c0c3b41b351faebcc6b20f9686709c0e5823f5ced16935d99d1c02b07b6e58c4b9ccc4e2962bb5ed21c4cb3f43898fd9dd1cfc240206d7116fba10cbfa4e217771d49952e1fe094685a599c92db1f5031dd79d0e8c875b0cf6064fd885e8e55c9f788bd872d24b979b6452b20a829f38ea45d541512485179875421d3fc132595612e47d7392336d314abf6ec777204a24a7be1fac4123a19ea7e23297dc21b3f3a32e0c125cd791d4fd611eb295bf3edee0ed1abeb00b33aac33cdc1dd42d569ee3704005a33f61fd01bde6c7e0e5349a7355df181d98620b3d45d5d1ac8877b7d99aaa61203f7bb008cbaf4c84cd6514e3a309a1836cbd38750946278ddbbe969eb032b596d04be35f31b7692acd2ee6284025fc896816fce2048137b59606069204b3f405be0699a5e484bfb30d4f31b1a964dd4603749bf2debb9ba203cd07feb4263d8bbeb0cc879f4f3802a864a7b022bb212ed0fa61dea6edda3608a9575ae460945d4903699b970e6a9000a7f70a0f2ae4fa8c56514d7fe3be4788482e2b7bc7c96f0a05aad4a4a7755ab651aad534e550e618ad215724d9c8d334d52a2dd6d52eddb6d35582f682ed08a75fbce1a129c08fcfe983c8b8473a580c37cab25bbc7eb424af6909d850b245b04b5da2c906b230e658061068df4c50b54fd9bdfea08d3977ec1165cb6c3559c525ecd2c5b0a01f26f9de9bc840c7d576cb553bdbe1fc336a0051848e41170eb5848dc27b96cfb8fc8a00409a4565856a226c9c6b827e3f85e2b51f5f0cf113a0dc5d30a7cc677d4419bb1c96c49497d5c6ff8228050dcebdbd09b79ffbcb9691eb675767bb5843787fa309dbc4f6cba2ece5bce066469e10e063b752e2881a8e08803e1a32f60dd71ae8a548feb345f19e2e1b7a59c4c4a184449ee4cb0bc39032ddd85f43411c033a65e856181e67a23633f23ec2a68e57a5f03c7bafdf1434ded225a08f0af6084fceee397892a434f6ec7d6deedebc56c0dcb232b2c6f35c2658f8d99d375138d72c6deef0b0c6eb9a85a0ac19fae265b165f90f76101040b1429446b727fafc1cad3f5fd09283c43475b626871779597cdd0d6dbe608313c4054595b6d788a8fa5aeccd3dae22829606c8788b5bfdfed000000000000000000000000000000000000000000000e1f303a01fd210500fd3f1f1dd75e97372dfef95c7e7b0c72bc118836f144ae6ef8328608de7cf59f467224f71dbd83cf482381f3e0be7cadb346e3453cf982a393bacc3748a4ef05474242f172c69ed6dbe85c7fee23e91b4a8b0c60c3bc38556ccedda4b2ca16d2d8aa7446647737facbb331bcc99bbf72261d80d3341af6d850178e477414c35bd3f617ff709b3c6bdf06afc15a12304a31cdd7d2a918858897951b84c8faeb9b85210298c4b9a107642ff8c8b544aef3aad8dae73332a7245b336b0d36483d74e18d01b90817e45b48f589e158988d0ccb38f9f38c4388cd04e2692b2227e8095d533e71f021e39d21b024cba93d342c7b38092cbee53c757d80ca8581ce84ffc5a2e12c1ba8a79e3fff1b550deee1a660928f43641c699a638524da0e333e157d4c103504f10731af711c0aa8db8e9f67715c8f4387214c6f97a2229460448334c5b35b7cbc65c2c3f8ada04d4f96ddebf69b38abc0e16b81efd531e0629fbaa6392924b15cae6bceb06748f46299b7a1151870a5fb150c57e2303b28e6356bf77b954cd2d97b3aa8817a3b9008c802bf49b185edcb45b244fa92a6f9a8a5d08a84ab39c1b1ea87d9671fea8c81ebba6df3fe5204e225b4b629b22627c78a624e430d95750b9c48e3ed6080d4549d5dff64283aa2747b7beb7143b0e821f66bbd796ce17c7c65e7252eb0af22c40a8aec1dc3839ceb8176923765c38d72baa58d98f0feef11d34746864c46f663ee1a711e1640985283d1366ace5b50c41ece71b9ce73a6c51cedee9954a57fe0d6931dcc71c18709da51ec776d0854e3901ccb3d7f1dce11144bcc2058a44a047abd4c7e9ada4468bbd5c9e4f8342953514470a9f29d1387e0ef6bb04fee658219889935c08637b09aa9ca18b0d5a44f7212f88bf85457a9447804f70de4cc4a0e9d0209d8ed1facddde358923080d8e3c1ff2c03396f2aeece63bc50124cefea185ef7a477b1d5f522b1e5414ef8e021b9f41284f52a95e554db220b96a29f3c17d77ac775c681b2cb763fd913ebe9b186cce986a5f796878d79d4a06fd755549434766ff9494e688b03f936226643a1e0f9b0246afd2ad05f2eac97cef72c2b919d6dd23066bbc39ae8b48f93ce3652de09748eec27e24c44f2a35082bb7fca6a9d08ee799b79b7646b90d0aaa0014341e20a907425137142e80dd0154275ad1c9fd1f49fee8ece57cea6697f8cdeb1154501674d60f63e5ab0adbdcf030b3b4f375c48541f4011d0d7041bb0e876aaf12f00705d19388269107aad6897d97268ee70d38750624ba759bc98440e455d591e92635e1d8ee7c7ff2c62bf89336113724b351353a67b3f6337da386f5020f40428812b1363dcfabea7429abec3a10be4486a586feda9d6b1cd86b494fa8c595af7dd2e52c3f2de9e25afee787d6323d758c05fcc0665e610e5d8f6285e1e68671b4e22a90ea162df4f124128cc70c28278721efb494db3d7360ab93399a921eb3d5875bbb112132f494d302aa2ab8f9c6938ceeae72b5fab61b66881d043be3b6f8e07eb463f036a1dda33db6dd56b10a0b0b5f8b4e204daa932a55235a4474e2c9c5fb9ebc03ce0a314ee41ec9208cd6edc1532e6046ebb7096d7dc9b3ce6df31e398ef675b77a25d6e178b62e8f753f8b5251c90225239d52346dc55c124514b57c7fec5e0edcf4ab080ac43ae46c21c49ee3e11f6520a382c6c4a4cbce908b84cc1d5f8cd623322d12004db9a2160783d020f6d772c2ece9ed1921e1d6dece205cc5e9b5fc37924fc255277d4b69c6adb8d3434795ccbf17f3744a3e21a5de31928ba7e8fb0e7754804b79cf0f3c4588809fb78e52009f42968c2d91e19879000000",
  "txid": "d1dd0eb890ecdb20904d659e970c02c6afef63f4305271a2592ed510481e1102",
  "hash": "fc1547b7ca9c75732399b6bb96f8dcb91684cea9ab631a6318e7e9c29fcd79ad",
  "size": 5085,
  "vsize": 2278,
  "version": 1,
  "locktime": 121,
  "vin": [
    {
      "txid": "3c2acde459e48f4753f4731456528a5750e50e9df2becd24b1c6e1cc48f7996f",
      "vout": 0,
      "scriptSig": {
        "asm": "",
        "hex": ""
      },
      "txinwitness": [
        "075df4d377ebd55449438bbc4b5c5c852ad8ee6cad82079d9ab5bc4afca892052f0a8d40a1b49870302f87f2105e402b8baf3e03cf3d14b1b1b419b28a3cf392492e58db67db44009712d3fa977b6dc7d45b52984c98070dbf9359438a773123a43eccf2ab02ddc5edc5c14300b9f6748813dde07437df324dd093c73b71e86ec2f02db4a5270518f099873dfcc3a3724fa895e0eb3ddfcc3b7f565bbcce10d108a3b9bcd906fe6571fa3e35457c4a633a21da3ce820d380f6579f3b0a6773baf42962ffa268f97f5068711c99ff26c3f0265358b07408eab66de8f51159367e240679fffea1c1ede93ec1cdf52c35a668eec452cef4f324d63dfaa7f27a21bac00ae8ca963f76c6822d42da06ceb8b474299bb2c0946408cc3b82a766a21a55641caadafd4b0e78621896c3c3787175270f269cca16882279aa7c841e4dc2e86cbf759a616fdf4847054aa2a8b61f3d2d54a0f125f70273c463e0594ac1397917c5f86f1d0b066e17afd532c79e20b094e8f912f065dec5587a9b4da2d716313ebda4e48b27a256cf970a17bbc58b09da9c18cddfdca055fe33f16c0cbebefc74ab31a8ddd5f5a7868e5cbac773ffa638f9120c84ad051d2b5391372c2741f54d763db472202e392306d9ef3133a0fab587aa46d38a5c82f13fba5c67d54b2f8b14616d167116f0c490b0aedbe45d7fb6723f0e539a08ebf06364a4d9472360c6e80e0cd630496fd74f4d390b4368d2fac7ef5549ea7a01fe22731acadbc14eab8ee868bda87a6218abe64a3bee54b865470b63b3ce4ceb940a7212a4915cf99dde587daea4f352d41fec32fcb6588470b993f9be12afe9f8a3be5eb6200bb7c3efbc0d859e3c814fe77778a4a5dc404e68cc0438033eceb573d7ec65e4de7a70d1be541de20154d5650a43b725e1da451a225909f174deb7c6529afa4d95c35c3b8020363069beb6b1382fd3f223bb23a8c9382dc6feb36a4148213ab7490aa8ba570e353cbfc3025cdae3d7e1da30c3b06203fb19ba085fd613d56b43791ca9b604dd31e256c7634adc3afefafb99011f5f2db1aa6198b2530968883bdfeb82508b4b8d5a62774eaa72edd35da261e2b42d4d61b6b022c4845514cb9527141cb442857a426cc199269c352e98110f4aa6ecea71b6ab04778af5d21354a899f89b9d0b143554381911e3b5322f56181c8a7960448b6a6d91446fc0f3a29332b0cd549a207e926dee398ee4bb1b8deec8dc8e93b6a9de9e491a3217750333c499dd5f86d02443a8cb41831ad2155c2f53ee8a80cc11e13d589088184b3d331ccd60eca36caf07969d201e4221b9ac2a93fff6f988f502de5d3fd1b2bf21527ad9d86e7487c6c868820e0bf14c0bbd40ff2e1c960abf4dff567274c9d57bd603fe58d86b4697be2d091bca5a6f3ac96079baab61f26c9f2e183827be5a18b5619804598d361a036e238a97395fcfa40ba9c4e8f557b113fa6e6c6b17b6bc23c5cb64810e9bf66bae89b8b278ad8d0a66b6137e48d60f786a29588cffec49f8d7503cc8f4515ee7042bb52a3b3a80a134dd8d527f5f83463efd64bea825dbdecb47da6f0ba66a5b11d24d5c47bb429ed049757755789a0ec2919f9e392171cdc1d7751209b9c7aad520c81be04083c535dd8f57fe81429c4cd18f2be74b3b77cf31a2bde059eb44ad91c0be89d3b9a8cadd8b6b75b623051be1ec6038d14b9b6fc1fc78f4b670180893eb1bf43b296d43610485e5ad90c19bc04c5ebd709779689d920ad5c71e2e5db1e3c43676f2d797abffc5f646972102bdb119d99b972af4b9ba8e8ea0ab8b05db343190f31e16c8e310f43d2ae615cd818c2c056c8013c79dde1b05d69829dd7315ee2a9b854e8a0f05e424e1fdb0f4416dadcafaa03af2889e3e9bef55726a405854908bdf6cf5722d9739cd41c48a8101305ae25545d16c6d8ee706f1973dfd765dc803b05ced8af6b85defd9752b257ccbc0b60bd5b5c2843d002d0833f34d834076d434c4db15a61c9e278e63a2a5103a2c63c6ef9d7e51e86f61192fb3ceb4c5728769274c10c039176ee11e7a513ebb70daf20afa26317c4aa8b553af6e3fe5382a9fbafd991f73b81796655dcf3cacc3aae534b84a53515cb099c2a52adb6aa7378e92634df851f7161af2541d58320084f1bdf2718ed773c890c82b64036c3af44a6ae3c6780da5038c6e0ab9084f71a89791165d2082ceed0f16b75adf5336472e1449d7351c0c3b41b351faebcc6b20f9686709c0e5823f5ced16935d99d1c02b07b6e58c4b9ccc4e2962bb5ed21c4cb3f43898fd9dd1cfc240206d7116fba10cbfa4e217771d49952e1fe094685a599c92db1f5031dd79d0e8c875b0cf6064fd885e8e55c9f788bd872d24b979b6452b20a829f38ea45d541512485179875421d3fc132595612e47d7392336d314abf6ec777204a24a7be1fac4123a19ea7e23297dc21b3f3a32e0c125cd791d4fd611eb295bf3edee0ed1abeb00b33aac33cdc1dd42d569ee3704005a33f61fd01bde6c7e0e5349a7355df181d98620b3d45d5d1ac8877b7d99aaa61203f7bb008cbaf4c84cd6514e3a309a1836cbd38750946278ddbbe969eb032b596d04be35f31b7692acd2ee6284025fc896816fce2048137b59606069204b3f405be0699a5e484bfb30d4f31b1a964dd4603749bf2debb9ba203cd07feb4263d8bbeb0cc879f4f3802a864a7b022bb212ed0fa61dea6edda3608a9575ae460945d4903699b970e6a9000a7f70a0f2ae4fa8c56514d7fe3be4788482e2b7bc7c96f0a05aad4a4a7755ab651aad534e550e618ad215724d9c8d334d52a2dd6d52eddb6d35582f682ed08a75fbce1a129c08fcfe983c8b8473a580c37cab25bbc7eb424af6909d850b245b04b5da2c906b230e658061068df4c50b54fd9bdfea08d3977ec1165cb6c3559c525ecd2c5b0a01f26f9de9bc840c7d576cb553bdbe1fc336a0051848e41170eb5848dc27b96cfb8fc8a00409a4565856a226c9c6b827e3f85e2b51f5f0cf113a0dc5d30a7cc677d4419bb1c96c49497d5c6ff8228050dcebdbd09b79ffbcb9691eb675767bb5843787fa309dbc4f6cba2ece5bce066469e10e063b752e2881a8e08803e1a32f60dd71ae8a548feb345f19e2e1b7a59c4c4a184449ee4cb0bc39032ddd85f43411c033a65e856181e67a23633f23ec2a68e57a5f03c7bafdf1434ded225a08f0af6084fceee397892a434f6ec7d6deedebc56c0dcb232b2c6f35c2658f8d99d375138d72c6deef0b0c6eb9a85a0ac19fae265b165f90f76101040b1429446b727fafc1cad3f5fd09283c43475b626871779597cdd0d6dbe608313c4054595b6d788a8fa5aeccd3dae22829606c8788b5bfdfed000000000000000000000000000000000000000000000e1f303a01",
        "00fd3f1f1dd75e97372dfef95c7e7b0c72bc118836f144ae6ef8328608de7cf59f467224f71dbd83cf482381f3e0be7cadb346e3453cf982a393bacc3748a4ef05474242f172c69ed6dbe85c7fee23e91b4a8b0c60c3bc38556ccedda4b2ca16d2d8aa7446647737facbb331bcc99bbf72261d80d3341af6d850178e477414c35bd3f617ff709b3c6bdf06afc15a12304a31cdd7d2a918858897951b84c8faeb9b85210298c4b9a107642ff8c8b544aef3aad8dae73332a7245b336b0d36483d74e18d01b90817e45b48f589e158988d0ccb38f9f38c4388cd04e2692b2227e8095d533e71f021e39d21b024cba93d342c7b38092cbee53c757d80ca8581ce84ffc5a2e12c1ba8a79e3fff1b550deee1a660928f43641c699a638524da0e333e157d4c103504f10731af711c0aa8db8e9f67715c8f4387214c6f97a2229460448334c5b35b7cbc65c2c3f8ada04d4f96ddebf69b38abc0e16b81efd531e0629fbaa6392924b15cae6bceb06748f46299b7a1151870a5fb150c57e2303b28e6356bf77b954cd2d97b3aa8817a3b9008c802bf49b185edcb45b244fa92a6f9a8a5d08a84ab39c1b1ea87d9671fea8c81ebba6df3fe5204e225b4b629b22627c78a624e430d95750b9c48e3ed6080d4549d5dff64283aa2747b7beb7143b0e821f66bbd796ce17c7c65e7252eb0af22c40a8aec1dc3839ceb8176923765c38d72baa58d98f0feef11d34746864c46f663ee1a711e1640985283d1366ace5b50c41ece71b9ce73a6c51cedee9954a57fe0d6931dcc71c18709da51ec776d0854e3901ccb3d7f1dce11144bcc2058a44a047abd4c7e9ada4468bbd5c9e4f8342953514470a9f29d1387e0ef6bb04fee658219889935c08637b09aa9ca18b0d5a44f7212f88bf85457a9447804f70de4cc4a0e9d0209d8ed1facddde358923080d8e3c1ff2c03396f2aeece63bc50124cefea185ef7a477b1d5f522b1e5414ef8e021b9f41284f52a95e554db220b96a29f3c17d77ac775c681b2cb763fd913ebe9b186cce986a5f796878d79d4a06fd755549434766ff9494e688b03f936226643a1e0f9b0246afd2ad05f2eac97cef72c2b919d6dd23066bbc39ae8b48f93ce3652de09748eec27e24c44f2a35082bb7fca6a9d08ee799b79b7646b90d0aaa0014341e20a907425137142e80dd0154275ad1c9fd1f49fee8ece57cea6697f8cdeb1154501674d60f63e5ab0adbdcf030b3b4f375c48541f4011d0d7041bb0e876aaf12f00705d19388269107aad6897d97268ee70d38750624ba759bc98440e455d591e92635e1d8ee7c7ff2c62bf89336113724b351353a67b3f6337da386f5020f40428812b1363dcfabea7429abec3a10be4486a586feda9d6b1cd86b494fa8c595af7dd2e52c3f2de9e25afee787d6323d758c05fcc0665e610e5d8f6285e1e68671b4e22a90ea162df4f124128cc70c28278721efb494db3d7360ab93399a921eb3d5875bbb112132f494d302aa2ab8f9c6938ceeae72b5fab61b66881d043be3b6f8e07eb463f036a1dda33db6dd56b10a0b0b5f8b4e204daa932a55235a4474e2c9c5fb9ebc03ce0a314ee41ec9208cd6edc1532e6046ebb7096d7dc9b3ce6df31e398ef675b77a25d6e178b62e8f753f8b5251c90225239d52346dc55c124514b57c7fec5e0edcf4ab080ac43ae46c21c49ee3e11f6520a382c6c4a4cbce908b84cc1d5f8cd623322d12004db9a2160783d020f6d772c2ece9ed1921e1d6dece205cc5e9b5fc37924fc255277d4b69c6adb8d3434795ccbf17f3744a3e21a5de31928ba7e8fb0e7754804b79cf0f3c4588809fb78e52009f42968c2d91e198"
      ],
      "sequence": 4294967294
    }
  ],
  "vout": [
    {
      "value": 499973.5606,
      "n": 0,
      "scriptPubKey": {
        "asm": "1 9fcf9f303eb22a05a227addf4f5f49d88a88c42ccef640df454cec3231732e0f",
        "hex": "51209fcf9f303eb22a05a227addf4f5f49d88a88c42ccef640df454cec3231732e0f",
        "reqSigs": 1,
        "type": "witness_v1_scripthash",
        "addresses": [
          "3QJmnh"
        ]
      }
    },
    {
      "value": 1.0,
      "n": 1,
      "scriptPubKey": {
        "asm": "OP_RETURN e9089b488cd9092e75273a2d2ed0a65a0282920eaa70aadb4c5bfd3958d5c788 a969f849b665546c4a043bbdc6660745a59ca6ac93cb5b9269d151d8757751ba8949d8699645744c6a241b9de646276585bc868cb3eb7bb249f171f85557719ae929b809f625142c0a447bfd86264705e5dce6ecd38b1bd229911198353711fac9099829d605340c2a645bdda6066725c5fcc6ccf3ab3bf209b131b8151731da29e978c936e5d4ecca84bb3d46e687c5251c262c134bdb12e951d158f5f7d13a09c958e916c5f4cceaa49b1d66c6a7e5053c060c336bfb32c971f178d5d7f11a69a9388976a594ac8ac4fb7d06a6c785655c666c530b9b52a9119118b5b7917a498918a95685b48caae4db5d2686e7a5457c464c732bbb728931b1389597b15aa969f849b665546c4a043bbdc6660745a59ca6ac93cb5b9269d151d8757751ba8949d8699645744c6a241b9de646276585bc868cb3eb7bb249f171f85557719ae929b809f625142c0a447bfd86264705e5dce6ecd38b1bd229911198353711fac9099829d605340c2a645bdda6066725c5fcc6ccf3ab3bf209b131b8151731da29e978c936e5d4ecca84bb3d46e687c5251c262c134bdb12e951d158f5f7d13a09c958e916c5f4cceaa49b1d66c6a7e5053c060c336bfb32c971f178d5d7f11a69a9388976a594ac8ac4fb7d06a6c785655c666c530b9b52a9119118b5b7917a498918a95685b48caae4db5d2686e7a5457c464c732bbb728931b1389597b15aa969f849b665546c4a043bbdc6660745a59ca6ac93cb5b9269d151d8757751ba8949d8699645744c6a241b9de646276585bc868cb3eb7bb249f171f85557719ae929b809f625142c0a447bfd86264705e5dce6ecd38b1bd229911198353711fac9099829d605340c2a645bdda6066725c5fcc6ccf3ab3bf209b131b8151731da29e978c936e5d4ecca84bb3d46e687c5251c262c134bdb12e951d158f5f7d13a09c958e916c5f4cceaa49b1d66c6a7e5053c060c336bfb32c971f178d5d7f11a69a9388976a594ac8ac4fb7d06a6c785655c666c530b9b52a9119118b5b7917a498918a95685b48caae4db5d2686e7a5457c464c732bbb728931b1389597b15aa969f849b665546c4a043bbdc6660745a59ca6ac93cb5b9269d151d8757751ba8949d8699645744c6a241b9de646276585bc868cb3eb7bb249f171f85557719ae929b809f625142c0a447bfd86264705e5dce6ecd38b1bd229911198353711fac9099829d605340c2a645bdda6066725c5fcc6ccf3ab3bf209b131b8151731da29e978c936e5d4ecca84bb3d46e687c5251c262c134bdb12e951d158f5f7d13a09c958e916c5f4cceaa49b1d66c6a7e5053c060c336bfb32c971f178d5d7f11a69a9388976a594ac8ac4fb7d06a6c785655c666c530b9b52a9119118b5b7917a498918a95685b48caae4db5d2686e7a5457c464c732bbb728931b1389597b15aa969f849b665546c4a043bbdc6660745a59ca6ac93cb5b9269d151d8757751ba8949d8699645744c6a241b9de646276585bc868cb3eb7bb249f171f85557719ae929b809f625142c0a447bfd86264705e5dce6ecd38b1bd229911198353711fac9099829d605340c2a645bdda6066725c5fcc6ccf3ab3bf209b131b8151731da29e978c936e5d4ecca84bb3d46e687c518d9aa2a3528e674f215bec303de054fd2103afd96ceee477a556257f7a47cdc",
        "hex": "6a20e9089b488cd9092e75273a2d2ed0a65a0282920eaa70aadb4c5bfd3958d5c7884db004a969f849b665546c4a043bbdc6660745a59ca6ac93cb5b9269d151d8757751ba8949d8699645744c6a241b9de646276585bc868cb3eb7bb249f171f85557719ae929b809f625142c0a447bfd86264705e5dce6ecd38b1bd229911198353711fac9099829d605340c2a645bdda6066725c5fcc6ccf3ab3bf209b131b8151731da29e978c936e5d4ecca84bb3d46e687c5251c262c134bdb12e951d158f5f7d13a09c958e916c5f4cceaa49b1d66c6a7e5053c060c336bfb32c971f178d5d7f11a69a9388976a594ac8ac4fb7d06a6c785655c666c530b9b52a9119118b5b7917a498918a95685b48caae4db5d2686e7a5457c464c732bbb728931b1389597b15aa969f849b665546c4a043bbdc6660745a59ca6ac93cb5b9269d151d8757751ba8949d8699645744c6a241b9de646276585bc868cb3eb7bb249f171f85557719ae929b809f625142c0a447bfd86264705e5dce6ecd38b1bd229911198353711fac9099829d605340c2a645bdda6066725c5fcc6ccf3ab3bf209b131b8151731da29e978c936e5d4ecca84bb3d46e687c5251c262c134bdb12e951d158f5f7d13a09c958e916c5f4cceaa49b1d66c6a7e5053c060c336bfb32c971f178d5d7f11a69a9388976a594ac8ac4fb7d06a6c785655c666c530b9b52a9119118b5b7917a498918a95685b48caae4db5d2686e7a5457c464c732bbb728931b1389597b15aa969f849b665546c4a043bbdc6660745a59ca6ac93cb5b9269d151d8757751ba8949d8699645744c6a241b9de646276585bc868cb3eb7bb249f171f85557719ae929b809f625142c0a447bfd86264705e5dce6ecd38b1bd229911198353711fac9099829d605340c2a645bdda6066725c5fcc6ccf3ab3bf209b131b8151731da29e978c936e5d4ecca84bb3d46e687c5251c262c134bdb12e951d158f5f7d13a09c958e916c5f4cceaa49b1d66c6a7e5053c060c336bfb32c971f178d5d7f11a69a9388976a594ac8ac4fb7d06a6c785655c666c530b9b52a9119118b5b7917a498918a95685b48caae4db5d2686e7a5457c464c732bbb728931b1389597b15aa969f849b665546c4a043bbdc6660745a59ca6ac93cb5b9269d151d8757751ba8949d8699645744c6a241b9de646276585bc868cb3eb7bb249f171f85557719ae929b809f625142c0a447bfd86264705e5dce6ecd38b1bd229911198353711fac9099829d605340c2a645bdda6066725c5fcc6ccf3ab3bf209b131b8151731da29e978c936e5d4ecca84bb3d46e687c5251c262c134bdb12e951d158f5f7d13a09c958e916c5f4cceaa49b1d66c6a7e5053c060c336bfb32c971f178d5d7f11a69a9388976a594ac8ac4fb7d06a6c785655c666c530b9b52a9119118b5b7917a498918a95685b48caae4db5d2686e7a5457c464c732bbb728931b1389597b15aa969f849b665546c4a043bbdc6660745a59ca6ac93cb5b9269d151d8757751ba8949d8699645744c6a241b9de646276585bc868cb3eb7bb249f171f85557719ae929b809f625142c0a447bfd86264705e5dce6ecd38b1bd229911198353711fac9099829d605340c2a645bdda6066725c5fcc6ccf3ab3bf209b131b8151731da29e978c936e5d4ecca84bb3d46e687c518d9aa2a3528e674f215bec303de054fd2103afd96ceee477a556257f7a47cdc",
        "type": "nulldata"
      }
    }
  ],
  "blockhash": "b00c1afcc726d07acf9b884f47bf06130e4cba196c4900690ef7405d42c36beb",
  "confirmations": 1,
  "time": 1764180257,
  "blocktime": 1764180257
}