{
  "hex": "0100000000010167b74744ab63bd7293121920b582370212518fb29f62ed4d3cbc5c1c62c036870100000000feffffff02c075fe6f792d0000225120b8c73500727acbee81b8bc07ccc30c71afd4e92b390b60b0d167c67c1dd69e0300e1f50500000000fdd5046a203beef70f5ef56942c8e406e7fc6a8ea09ba6959e254568ba3a7fc8824ae221904db0049e8562862fbb685505edcabc5176e953ba24d6f1bd13b15592215425a768ec9bbea542a60f9b487525cdea9c7156c9739a04f6d19d339175b20174058748ccbbdec522c66ffb281545ad8afc1136a913fa6496b1fd53f115d2611465e728acdbfee502e64fdb0835658daadc31168933da44b691dd73d135f2413445c7088cfb1e05e206af3be8d5856d4a3cd1f669d33aa456713d9331d512a1d4a527e86c1b3e25c2268f1bc8f5a54d6a1cf1d649f31a8476511db311f53281f48507c84c3b5e45a246ef7ba895c52d0a7c91b629937ae416317dd3719552e194e567a82c5b7e658266cf5b88b5e50d2a5cb19609b35ac436115df351b572c1b4c547880c7b9e8562862fbb685505edcabc5176e953ba24d6f1bd13b15592215425a768ec9bbea542a60f9b487525cdea9c7156c9739a04f6d19d339175b20174058748ccbbdec522c66ffb281545ad8afc1136a913fa6496b1fd53f115d2611465e728acdbfee502e64fdb0835658daadc31168933da44b691dd73d135f2413445c7088cfb1e05e206af3be8d5856d4a3cd1f669d33aa456713d9331d512a1d4a527e86c1b3e25c2268f1bc8f5a54d6a1cf1d649f31a8476511db311f53281f48507c84c3b5e45a246ef7ba895c52d0a7c91b629937ae416317dd3719552e194e567a82c5b7e658266cf5b88b5e50d2a5cb19609b35ac436115df351b572c1b4c547880c7b9e8562862fbb685505edcabc5176e953ba24d6f1bd13b15592215425a768ec9bbea542a60f9b487525cdea9c7156c9739a04f6d19d339175b20174058748ccbbdec522c66ffb281545ad8afc1136a913fa6496b1fd53f115d2611465e728acdbfee502e64fdb0835658daadc31168933da44b691dd73d135f2413445c7088cfb1e05e206af3be8d5856d4a3cd1f669d33aa456713d9331d512a1d4a527e86c1b3e25c2268f1bc8f5a54d6a1cf1d649f31a8476511db311f53281f48507c84c3b5e45a246ef7ba895c52d0a7c91b629937ae416317dd3719552e194e567a82c5b7e658266cf5b88b5e50d2a5cb19609b35ac436115df351b572c1b4c547880c7b9e8562862fbb685505edcabc5176e953ba24d6f1bd13b15592215425a768ec9bbea542a60f9b487525cdea9c7156c9739a04f6d19d339175b20174058748ccbbdec522c66ffb281545ad8afc1136a913fa6496b1fd53f115d2611465e728acdbfee502e64fdb0835658daadc31168933da44b691dd73d135f2413445c7088cfb1e05e206af3be8d5856d4a3cd1f669d33aa456713d9331d512a1d4a527e86c1b3e25c2268f1bc8f5a54d6a1cf1d649f31a8476511db311f53281f48507c84c3b5e45a246ef7ba895c52d0a7c91b629937ae416317dd3719552e194e567a82c5b7e658266cf5b88b5e50d2a5cb19609b35ac436115df351b572c1b4c547880c7b9e8562862fbb685505edcabc5176e953ba24d6f1bd13b15592215425a768ec9bbea542a60f9b487525cdea9c7156c9739a04f6d19d339175b20174058748ccbbdec522c66ffb281545ad8afc1136a913fa6496b1fd53f115d2611465e728acdbfee502e64fdb0835658daadc31168933da44b691dd73d135f2413445c7088cfb1e05e206af3be8d5856d4a3cd1f669d3b80f88541c28fdb1871a7adc6588bb6eecc69fda9f9d4d5b05b194d0cf62f9a702fd75096e4e6e92d3821e578bc0f4660750bd6d86dd6874da3f580f706f0f1e694e3265ec48947816daa00f771fdd8f72b597ee6a71f3dfbbcdd7302ef187996b59129c9d8a23cf30d6af39a4954871806ee970ae7a2ecf438581b864e1f48a132d72ed2ed11af6c7b381f056c10ea7b81f219da4a4dde44490a741fa5c7d98f03547f5fb467e60d6bc09016dd611645b7151dc0c8777aa7d247eed3ce640968ee444c25d51333037d5f4f6b54b8f3349c99c123f8148bb0857c394fae25b0699e2f23eef43d924e1427f27fe40b12c26c045d72350973b83c601bb0e5f5c79971929be652b5a30dc99b37430b708727d3cd99cec71a27f4f79f897177895adf428b4fb71b709187e0cda3884c5a081c30e8f3c47cc6e91bcabbaaa26bdc0be835841199ebdf8e0cef7d961f48ac8b2bcb131db0997ee4ffd14f5a1c83575c6d1b0f172a4d0769d4f5195ffc0d6266d64569a989accb9ea8b2a3310ba84868cec2fedb131c2d0cb221149d989c40b2e57d220b1f4d99fb2132fd8d02e4733c58a00c9b2ddfa2c35029ee1b9993ac0711993f67ae49b022f7f406cc9c49a25632bc29aebad448fd9533b606772bf1a7f0d66bd112a32fc7e8b058d90e48c72bcf503058b7442f16cd38f4eba54edfe573f773c569de36429291cb9cfcd13b80b1a9e492a51bac6b36cb689c7564025de1a566ff4b1e948dc9366a910b247d6c3af4c86a062b64877a7de266376c92df3352964a7640032e5c5dbcaa8074f71630cb0365a28f706875180117c4b9625424151ed56fd3176a922d060442eec3085586aac2148bd704cebcd2b7f2b55fde75ac7928254bebbcfb6067e92c74df7fd125fab5fd04c119e958baf0230a1745d64cd20cedfb8c33d081e32fd201a6fc3c5d2a48a25cd18fee226855fdcaa5f572d2c95cd6ab48c15badde17675fa486aa408e14c0fe0a7d5793689c05c170d253eda8cf77e7349072f42cabaee2a11b4ec0a7538f7e22dccaf2bb00152deab0a0889ce39a01499bdc9009af2c5d9b53442c8d2f22cf3d36898b54288e7cb2e7fefe2ba88af8ab61ba87108e6a7f8a14aeb3f1db84c00f9116914b3f798fba8bce01cab68c19d545917ef5fc5adae6454b4933b03ce2867a0a488dd5c571f115e1adf2bef90ca7628f001e07a90234b4b93c67e643c7151e04d1b414797d6f3e46ca01db6dd761e68054803dd9427c05fcc17f36d514ddb308403ffdb42b74abac4164defa273779b6983158f7b0c6ff5d9dac45283dc73fdffd5e0c247f301239a5013e96b19049becdc6bc22724d2ad062dbea00d2b65abb3b8594f3c86023ffa9eeccadb67f6a84319932f3708cd8b9e4acb0984a47ec72667df1563942e93fc6bed09cf0c2938e85422212710e0885c95ea81545b70b85e6a3d9bda184da152534ffb648695c717d9a40156d5ac15e3707f49dd1a5210067cfee67862a7c66f69a559a17b099a7f20c6d16074983c8146682f5524ebf6697a19a1578975cecee51cec6cfdf1fd125d06db0a29f7e2b0cd87fa6a9bebdf265fcc9526ab5eee00cd92a373fc7ac0dad0ed71b18ae0e4fc75c66f2b66f9b8232874b8e03657c38c24ce840872e8b5b2ee3d2eae97479a7e219538ac675033656e591074ed90c6f445d4ab0d9195864af11c0c5ff00be8add1a21076882223384f9359aadef530b35b06314a9f7195dc06216008605f3e6df46d65cc1c0faff22708351a0d940ff471027ad602bb4ed329594c133235c9b0bc9337d21cbe23c2e21b54ccf49cffae450df227583af20309fca17f82440952df4bb81f0760a07ebe3c9b82d10b6d84228e682c782b93988f13df79a1302c3d2bbf4df606814992216151a20fca1199bf9b43028ae88587f0b9e73cdbb36137c7f1244c04747d81df2fe4e25fec7d74d32bb22d7844ed84a7605fbb033621ce124140fb2c84f307c65c0c2ed46d3a58b27633e65b906522cc1ffdd183aa9727d50eecae85f0e98e2e153768d27b4ad706a983f923874bd68b10ae7cacc955121541999154fd521029ad3f2e7abd2b3964f7c4f6338d07862ba34390bcc0419e51fb7e2ca045650ca596da2d0d1c1d84cd04c1c738a9b90d333d63edd5aeb94daa54cc6e6e52ad33c1242a71d2125ef8df05b3cf8b0622bad209e2b12567b30e8165c5daca6946170072c2306523c07b4f8b5dceb74a4d27a20215e6056a6547baa34fe637a6f98bc13ef5b9c060dadeba1c5352d75a1d0a10c5371609625d7038f44a23acf5d83951571e32b2889e2ebfa22321682da3c4b15c8fd739a4e4afd8b5d0df42ae5e5238596c940cd9b3de11f5dc618041d9d110c03861c090c60a1ff34b7a03219abbb5e51cbf72d068c11f69e35672be21b54043497cd11278595c501942956c7f6e0a37474a9aff7851605660071b67abd58749f3845bccf157064fe3937b3c761c24f39fc7989f4be72b41ce331c9fdbbeb655628d8eb101282492a72d7b822bce0b2bdbc018c98c9d8959b3a503b6e8177d784146fbbd6b2c8428463f60f1532cc829efa2e36cf193fcc561edca80540dae05459038765aca453a60165eb97b8a187c275bc2217f851e93240df73767631e69af9f50bb344529b2977f860d33501d857a527229220d527000ee7b40946a09959da389534aa287844a59685ae8c0562255facd18a6cfd6f6c393d4c4c3faa227dec6136884b50fdc544fae8fda9189c10205962dce097d35d24b030dff6284ae68154c83358ca0e653a6c3e557e4fa48a68b481836981a5a4b9f80e2ec0c1e8367bd7927bacd21732f5972e9c42ce56c58286443456f312bbf638e0213c2617c8d953d5c2f6df116e15e693f342a49ae1ba2eb925b902a4cdb18f06c05bef57042fbb0047aa6f953d1a211239932f10a55c18fe3f74f2f372c95e5d62dc2feae079a94028a43445a93f8f0f2b48a215efe4b2ea9faecb72e188a1c3e5ef4e13dd7ba725f493360693c3959ef4b76425b074312bf939c3505d0b25c4eb99b14c3539c3dd77ea2215a6ca98646cf876c59b061dd1e955550eb6c75555d3b5c167af14f2bc750409a1c38d2d8aefb94a384d9c45ab5368aa4ce92d46608a3103b447f2299e515f5281b46aa27c49574c7c2f3deb3b780e1ab57854c4d4f736865b25161ca8681542a28070bd65071fe18f78df74676c6d2915b6db723760f791d1120c920ffc2897578cf134e7c5490d63de971f446a4d54ceb8e9aaf6928d342896aea77ece7ce7c9014896f039463979aecf94c83a5cecfda7a4fb718d176d71101c9c1f8d89aad2e043e3f40444852566a757d879093b6b7b8bacafd091b213448575c6f799da5a9aec5e1f7191f2127353c424650595b699db0b5bdbfcfd2d8d9dee3f5f6f7071a3d3e5f747e8294a9b2b3b4b7bdc3caf00013233d4f01fd210500df7190ed85f6b010f240cace3dded112294574d4e7af5fec5c8973eccb65e5245c96a667a2a492309272f7ec06440b2f0f111c6be7316976bbba692f726266ec9c36ceee3eaf1eef03f18ed7563b09694a19cfb7e7dff76c2d6d24c5e90407381f28c94e1089db536a108f429de76cf9ee840ad782b989970ceae694e064220387989165fa20d13186511433022205e15e7cb8dc0c70cde05b8c426ad34f7551d2c22830c18670a733234bc1c31f663da7c61f95eb974845dcb90eb8141d8dcc9a6bcfcc1f085c90f227c1d3e5a74c46bece8301f30491a161b4820129cae7a53e23e6fc56bc956c7477848049bde706f4716f8ff35e0476352f11fa102803670ccb06ec605f05135c8e7cb7b77413d074798a650a07e34d4821d131a322db6c296fb599cd63b90e78cecb5ba28f108941020594111209a7e8e807cb0464afbf4a587b56fc0e95d956801a1f0995633adce47f3cfcc0b1a7bd7b4a6b0b94d312a6815b6d182089e4d368a8b0deff52fe377987ad919ec9a0ecabd22c5329cf525c256fd35deec7d07d07d57bf9e49b3bd47ce0d8af570ba903e38f39237635d377af758e75941ef8f494d4b0e8ef30e5c670e2f5a58050fca9aa3daf94e90b8ff9275b90338b2f778d785f0073538c00bd35a2330271d48d362237705126a39059551fd1121ef5b9f8b456eedbf006ce46a68d522395d7ca62b09673f44d6a9dbfdf4796082b0e977b6fdd930cbc9afe94b5f1060b3f303c774c5a0930d2d4e599e4c2b0259c58be4955ead9702d83f8e51c291060d1050a91e6d418ad25e3be4e0a214992958202dd940c985bc22b3f2c47bbd9140e63c08ba9169f548fecbfc0dfc90b94889c4831094df8f33233648b376f0a4f5edcb12e824a5ef8d86cfc3d9ffbfefdb8d21b1a81e73b99e0bf4ccd15f04b996ce25e1c9c62eabe242dc50922a1c065cedf6df212d7117aa1e2def5a2f3f604c04626ce1a42323f1d494e9f26617bd17ad1b7da727b590a878d944c2d4651b4b8c5b573981b13d24e417417fe80519203c4717aec679ad08dc519e8df7cba3c24153f9e8534d9a6b7311b2a169bdf7826815ceca3a1bf1876bee7e8789b7c1d4814a8b9498cc41655e9bf9fa14c7f84332b9c79fd028dfefc722e59d313bdb455a236ea77806c7021367920c68a0eeba0e646c5470eea2672d6600d1ab4755f50ebdca071be0075fc88b9e48f95ff59c208e356271bb707202ed8081dcdbc7ebc0fee0a81c98fdc9fa30970968d3950a48d9c00a43f413048c302d36a45af7378b143ff721e9ab1e2cc9757989a88441e25f945c2e8a4df505b47e59c842533a03fa35cd7abfee14e17ab329fc0b1bf93d3121e379c4d3ea7fe63657742c2b9be1633e706164577009c26bc98dddf61a5f815f47ddb9dbc9ad2541afe66cd8eac35173c361324b9cd792ded131dad8278407a23b783bd07082105abd295d895f6262854c5ab304a7c6afd88dd47f9c6b7d50d90d69c8fb4608a9d01ee128406b623ccc918920ff951b053c7ad12696ea3e6a69cc5f038666961f8c831e8767436200b4d78cd5f31e48815716938d942086e2dcfe117689d900c792a670acd4a5bbc38b18548f3117b1cceca66d6b6be361d70aa843dde8447b61a0915005c3b290763d5d519864ead445f42b556626973748d32a9b330f4425c24301bacfa285f419fc1706abfee77fd9187329f53b2c60106ef4c741b988101c433ae9655c7e7b00344cf28be828fbcf4447f4efb0c6d9e79604c1e8e096aa2479d9ab3f47022fbc637547ea28840abeb16a1b20eababf75fa2b331f215fc45a03a6c49ec5cbc29b74ceff0d0064d8bec67000000",
  "txid": "ddc6bc339c04242d11769fc678ef71daa52dbf65bc4e2cf23a80d6c2abbc9eae",
  "hash": "fb33efb6bc07f91fabdba1095aa06e721d7b9ce36ab478e3c85887ebce358f37",
  "size": 5085,
  "vsize": 2278,
  "version": 1,
  "locktime": 103,
  "vin": [
    {
      "txid": "8736c0621c5cbc3c4ded629fb28f5112023782b52019129372bd63ab4447b767",
      "vout": 1,
      "scriptSig": {
        "asm": "",
        "hex": ""
      },
      "txinwitness": [
        "6e4e6e92d3821e578bc0f4660750bd6d86dd6874da3f580f706f0f1e694e3265ec48947816daa00f771fdd8f72b597ee6a71f3dfbbcdd7302ef187996b59129c9d8a23cf30d6af39a4954871806ee970ae7a2ecf438581b864e1f48a132d72ed2ed11af6c7b381f056c10ea7b81f219da4a4dde44490a741fa5c7d98f03547f5fb467e60d6bc09016dd611645b7151dc0c8777aa7d247eed3ce640968ee444c25d51333037d5f4f6b54b8f3349c99c123f8148bb0857c394fae25b0699e2f23eef43d924e1427f27fe40b12c26c045d72350973b83c601bb0e5f5c79971929be652b5a30dc99b37430b708727d3cd99cec71a27f4f79f897177895adf428b4fb71b709187e0cda3884c5a081c30e8f3c47cc6e91bcabbaaa26bdc0be835841199ebdf8e0cef7d961f48ac8b2bcb131db0997ee4ffd14f5a1c83575c6d1b0f172a4d0769d4f5195ffc0d6266d64569a989accb9ea8b2a3310ba84868cec2fedb131c2d0cb221149d989c40b2e57d220b1f4d99fb2132fd8d02e4733c58a00c9b2ddfa2c35029ee1b9993ac0711993f67ae49b022f7f406cc9c49a25632bc29aebad448fd9533b606772bf1a7f0d66bd112a32fc7e8b058d90e48c72bcf503058b7442f16cd38f4eba54edfe573f773c569de36429291cb9cfcd13b80b1a9e492a51bac6b36cb689c7564025de1a566ff4b1e948dc9366a910b247d6c3af4c86a062b64877a7de266376c92df3352964a7640032e5c5dbcaa8074f71630cb0365a28f706875180117c4b9625424151ed56fd3176a922d060442eec3085586aac2148bd704cebcd2b7f2b55fde75ac7928254bebbcfb6067e92c74df7fd125fab5fd04c119e958baf0230a1745d64cd20cedfb8c33d081e32fd201a6fc3c5d2a48a25cd18fee226855fdcaa5f572d2c95cd6ab48c15badde17675fa486aa408e14c0fe0a7d5793689c05c170d253eda8cf77e7349072f42cabaee2a11b4ec0a7538f7e22dccaf2bb00152deab0a0889ce39a01499bdc9009af2c5d9b53442c8d2f22cf3d36898b54288e7cb2e7fefe2ba88af8ab61ba87108e6a7f8a14aeb3f1db84c00f9116914b3f798fba8bce01cab68c19d545917ef5fc5adae6454b4933b03ce2867a0a488dd5c571f115e1adf2bef90ca7628f001e07a90234b4b93c67e643c7151e04d1b414797d6f3e46ca01db6dd761e68054803dd9427c05fcc17f36d514ddb308403ffdb42b74abac4164defa273779b6983158f7b0c6ff5d9dac45283dc73fdffd5e0c247f301239a5013e96b19049becdc6bc22724d2ad062dbea00d2b65abb3b8594f3c86023ffa9eeccadb67f6a84319932f3708cd8b9e4acb0984a47ec72667df1563942e93fc6bed09cf0c2938e85422212710e0885c95ea81545b70b85e6a3d9bda184da152534ffb648695c717d9a40156d5ac15e3707f49dd1a5210067cfee67862a7c66f69a559a17b099a7f20c6d16074983c8146682f5524ebf6697a19a1578975cecee51cec6cfdf1fd125d06db0a29f7e2b0cd87fa6a9bebdf265fcc9526ab5eee00cd92a373fc7ac0dad0ed71b18ae0e4fc75c66f2b66f9b8232874b8e03657c38c24ce840872e8b5b2ee3d2eae97479a7e219538ac675033656e591074ed90c6f445d4ab0d9195864af11c0c5ff00be8add1a21076882223384f9359aadef530b35b06314a9f7195dc06216008605f3e6df46d65cc1c0faff22708351a0d940ff471027ad602bb4ed329594c133235c9b0bc9337d21cbe23c2e21b54ccf49cffae450df227583af20309fca17f82440952df4bb81f0760a07ebe3c9b82d10b6d84228e682c782b93988f13df79a1302c3d2bbf4df606814992216151a20fca1199bf9b43028ae88587f0b9e73cdbb36137c7f1244c04747d81df2fe4e25fec7d74d32bb22d7844ed84a7605fbb033621ce124140fb2c84f307c65c0c2ed46d3a58b27633e65b906522cc1ffdd183aa9727d50eecae85f0e98e2e153768d27b4ad706a983f923874bd68b10ae7cacc955121541999154fd521029ad3f2e7abd2b3964f7c4f6338d07862ba34390bcc0419e51fb7e2ca045650ca596da2d0d1c1d84cd04c1c738a9b90d333d63edd5aeb94daa54cc6e6e52ad33c1242a71d2125ef8df05b3cf8b0622bad209e2b12567b30e8165c5daca6946170072c2306523c07b4f8b5dceb74a4d27a20215e6056a6547baa34fe637a6f98bc13ef5b9c060dadeba1c5352d75a1d0a10c5371609625d7038f44a23acf5d83951571e32b2889e2ebfa22321682da3c4b15c8fd739a4e4afd8b5d0df42ae5e5238596c940cd9b3de11f5dc618041d9d110c03861c090c60a1ff34b7a03219abbb5e51cbf72d068c11f69e35672be21b54043497cd11278595c501942956c7f6e0a37474a9aff7851605660071b67abd58749f3845bccf157064fe3937b3c761c24f39fc7989f4be72b41ce331c9fdbbeb655628d8eb101282492a72d7b822bce0b2bdbc018c98c9d8959b3a503b6e8177d784146fbbd6b2c8428463f60f1532cc829efa2e36cf193fcc561edca80540dae05459038765aca453a60165eb97b8a187c275bc2217f851e93240df73767631e69af9f50bb344529b2977f860d33501d857a527229220d527000ee7b40946a09959da389534aa287844a59685ae8c0562255facd18a6cfd6f6c393d4c4c3faa227dec6136884b50fdc544fae8fda9189c10205962dce097d35d24b030dff6284ae68154c83358ca0e653a6c3e557e4fa48a68b481836981a5a4b9f80e2ec0c1e8367bd7927bacd21732f5972e9c42ce56c58286443456f312bbf638e0213c2617c8d953d5c2f6df116e15e693f342a49ae1ba2eb925b902a4cdb18f06c05bef57042fbb0047aa6f953d1a211239932f10a55c18fe3f74f2f372c95e5d62dc2feae079a94028a43445a93f8f0f2b48a215efe4b2ea9faecb72e188a1c3e5ef4e13dd7ba725f493360693c3959ef4b76425b074312bf939c3505d0b25c4eb99b14c3539c3dd77ea2215a6ca98646cf876c59b061dd1e955550eb6c75555d3b5c167af14f2bc750409a1c38d2d8aefb94a384d9c45ab5368aa4ce92d46608a3103b447f2299e515f5281b46aa27c49574c7c2f3deb3b780e1ab57854c4d4f736865b25161ca8681542a28070bd65071fe18f78df74676c6d2915b6db723760f791d1120c920ffc2897578cf134e7c5490d63de971f446a4d54ceb8e9aaf6928d342896aea77ece7ce7c9014896f039463979aecf94c83a5cecfda7a4fb718d176d71101c9c1f8d89aad2e043e3f40444852566a757d879093b6b7b8bacafd091b213448575c6f799da5a9aec5e1f7191f2127353c424650595b699db0b5bdbfcfd2d8d9dee3f5f6f7071a3d3e5f747e8294a9b2b3b4b7bdc3caf00013233d4f01",
        "00df7190ed85f6b010f240cace3dded112294574d4e7af5fec5c8973eccb65e5245c96a667a2a492309272f7ec06440b2f0f111c6be7316976bbba692f726266ec9c36ceee3eaf1eef03f18ed7563b09694a19cfb7e7dff76c2d6d24c5e90407381f28c94e1089db536a108f429de76cf9ee840ad782b989970ceae694e064220387989165fa20d13186511433022205e15e7cb8dc0c70cde05b8c426ad34f7551d2c22830c18670a733234bc1c31f663da7c61f95eb974845dcb90eb8141d8dcc9a6bcfcc1f085c90f227c1d3e5a74c46bece8301f30491a161b4820129cae7a53e23e6fc56bc956c7477848049bde706f4716f8ff35e0476352f11fa102803670ccb06ec605f05135c8e7cb7b77413d074798a650a07e34d4821d131a322db6c296fb599cd63b90e78cecb5ba28f108941020594111209a7e8e807cb0464afbf4a587b56fc0e95d956801a1f0995633adce47f3cfcc0b1a7bd7b4a6b0b94d312a6815b6d182089e4d368a8b0deff52fe377987ad919ec9a0ecabd22c5329cf525c256fd35deec7d07d07d57bf9e49b3bd47ce0d8af570ba903e38f39237635d377af758e75941ef8f494d4b0e8ef30e5c670e2f5a58050fca9aa3daf94e90b8ff9275b90338b2f778d785f0073538c00bd35a2330271d48d362237705126a39059551fd1121ef5b9f8b456eedbf006ce46a68d522395d7ca62b09673f44d6a9dbfdf4796082b0e977b6fdd930cbc9afe94b5f1060b3f303c774c5a0930d2d4e599e4c2b0259c58be4955ead9702d83f8e51c291060d1050a91e6d418ad25e3be4e0a214992958202dd940c985bc22b3f2c47bbd9140e63c08ba9169f548fecbfc0dfc90b94889c4831094df8f33233648b376f0a4f5edcb12e824a5ef8d86cfc3d9ffbfefdb8d21b1a81e73b99e0bf4ccd15f04b996ce25e1c9c62eabe242dc50922a1c065cedf6df212d7117aa1e2def5a2f3f604c04626ce1a42323f1d494e9f26617bd17ad1b7da727b590a878d944c2d4651b4b8c5b573981b13d24e417417fe80519203c4717aec679ad08dc519e8df7cba3c24153f9e8534d9a6b7311b2a169bdf7826815ceca3a1bf1876bee7e8789b7c1d4814a8b9498cc41655e9bf9fa14c7f84332b9c79fd028dfefc722e59d313bdb455a236ea77806c7021367920c68a0eeba0e646c5470eea2672d6600d1ab4755f50ebdca071be0075fc88b9e48f95ff59c208e356271bb707202ed8081dcdbc7ebc0fee0a81c98fdc9fa30970968d3950a48d9c00a43f413048c302d36a45af7378b143ff721e9ab1e2cc9757989a88441e25f945c2e8a4df505b47e59c842533a03fa35cd7abfee14e17ab329fc0b1bf93d3121e379c4d3ea7fe63657742c2b9be1633e706164577009c26bc98dddf61a5f815f47ddb9dbc9ad2541afe66cd8eac35173c361324b9cd792ded131dad8278407a23b783bd07082105abd295d895f6262854c5ab304a7c6afd88dd47f9c6b7d50d90d69c8fb4608a9d01ee128406b623ccc918920ff951b053c7ad12696ea3e6a69cc5f038666961f8c831e8767436200b4d78cd5f31e48815716938d942086e2dcfe117689d900c792a670acd4a5bbc38b18548f3117b1cceca66d6b6be361d70aa843dde8447b61a0915005c3b290763d5d519864ead445f42b556626973748d32a9b330f4425c24301bacfa285f419fc1706abfee77fd9187329f53b2c60106ef4c741b988101c433ae9655c7e7b00344cf28be828fbcf4447f4efb0c6d9e79604c1e8e096aa2479d9ab3f47022fbc637547ea28840abeb16a1b20eababf75fa2b331f215fc45a03a6c49ec5cbc29b74ceff0d0064d8bec"
      ],
      "sequence": 4294967294
    }
  ],
  "vout": [
    {
      "value": 499995.9324,
      "n": 0,
      "scriptPubKey": {
        "asm": "1 b8c73500727acbee81b8bc07ccc30c71afd4e92b390b60b0d167c67c1dd69e03",
        "hex": "5120b8c73500727acbee81b8bc07ccc30c71afd4e92b390b60b0d167c67c1dd69e03",
        "reqSigs": 1,
        "type": "witness_v1_scripthash",
        "addresses": [
          "3QJmnh"
        ]
      }
    },
    {
      "value": 1.0,
      "n": 1,
      "scriptPubKey": {
        "asm": "OP_RETURN 3beef70f5ef56942c8e406e7fc6a8ea09ba6959e254568ba3a7fc8824ae22190 9e8562862fbb685505edcabc5176e953ba24d6f1bd13b15592215425a768ec9bbea542a60f9b487525cdea9c7156c9739a04f6d19d339175b20174058748ccbbdec522c66ffb281545ad8afc1136a913fa6496b1fd53f115d2611465e728acdbfee502e64fdb0835658daadc31168933da44b691dd73d135f2413445c7088cfb1e05e206af3be8d5856d4a3cd1f669d33aa456713d9331d512a1d4a527e86c1b3e25c2268f1bc8f5a54d6a1cf1d649f31a8476511db311f53281f48507c84c3b5e45a246ef7ba895c52d0a7c91b629937ae416317dd3719552e194e567a82c5b7e658266cf5b88b5e50d2a5cb19609b35ac436115df351b572c1b4c547880c7b9e8562862fbb685505edcabc5176e953ba24d6f1bd13b15592215425a768ec9bbea542a60f9b487525cdea9c7156c9739a04f6d19d339175b20174058748ccbbdec522c66ffb281545ad8afc1136a913fa6496b1fd53f115d2611465e728acdbfee502e64fdb0835658daadc31168933da44b691dd73d135f2413445c7088cfb1e05e206af3be8d5856d4a3cd1f669d33aa456713d9331d512a1d4a527e86c1b3e25c2268f1bc8f5a54d6a1cf1d649f31a8476511db311f53281f48507c84c3b5e45a246ef7ba895c52d0a7c91b629937ae416317dd3719552e194e567a82c5b7e658266cf5b88b5e50d2a5cb19609b35ac436115df351b572c1b4c547880c7b9e8562862fbb685505edcabc5176e953ba24d6f1bd13b15592215425a768ec9bbea542a60f9b487525cdea9c7156c9739a04f6d19d339175b20174058748ccbbdec522c66ffb281545ad8afc1136a913fa6496b1fd53f115d2611465e728acdbfee502e64fdb0835658daadc31168933da44b691dd73d135f2413445c7088cfb1e05e206af3be8d5856d4a3cd1f669d33aa456713d9331d512a1d4a527e86c1b3e25c2268f1bc8f5a54d6a1cf1d649f31a8476511db311f53281f48507c84c3b5e45a246ef7ba895c52d0a7c91b629937ae416317dd3719552e194e567a82c5b7e658266cf5b88b5e50d2a5cb19609b35ac436115df351b572c1b4c547880c7b9e8562862fbb685505edcabc5176e953ba24d6f1bd13b15592215425a768ec9bbea542a60f9b487525cdea9c7156c9739a04f6d19d339175b20174058748ccbbdec522c66ffb281545ad8afc1136a913fa6496b1fd53f115d2611465e728acdbfee502e64fdb0835658daadc31168933da44b691dd73d135f2413445c7088cfb1e05e206af3be8d5856d4a3cd1f669d33aa456713d9331d512a1d4a527e86c1b3e25c2268f1bc8f5a54d6a1cf1d649f31a8476511db311f53281f48507c84c3b5e45a246ef7ba895c52d0a7c91b629937ae416317dd3719552e194e567a82c5b7e658266cf5b88b5e50d2a5cb19609b35ac436115df351b572c1b4c547880c7b9e8562862fbb685505edcabc5176e953ba24d6f1bd13b15592215425a768ec9bbea542a60f9b487525cdea9c7156c9739a04f6d19d339175b20174058748ccbbdec522c66ffb281545ad8afc1136a913fa6496b1fd53f115d2611465e728acdbfee502e64fdb0835658daadc31168933da44b691dd73d135f2413445c7088cfb1e05e206af3be8d5856d4a3cd1f669d3b80f88541c28fdb1871a7adc6588bb6eecc69fda9f9d4d5b05b194d0cf62f9a7",
        "hex": "6a203beef70f5ef56942c8e406e7fc6a8ea09ba6959e254568ba3a7fc8824ae221904db0049e8562862fbb685505edcabc5176e953ba24d6f1bd13b15592215425a768ec9bbea542a60f9b487525cdea9c7156c9739a04f6d19d339175b20174058748ccbbdec522c66ffb281545ad8afc1136a913fa6496b1fd53f115d2611465e728acdbfee502e64fdb0835658daadc31168933da44b691dd73d135f2413445c7088cfb1e05e206af3be8d5856d4a3cd1f669d33aa456713d9331d512a1d4a527e86c1b3e25c2268f1bc8f5a54d6a1cf1d649f31a8476511db311f53281f48507c84c3b5e45a246ef7ba895c52d0a7c91b629937ae416317dd3719552e194e567a82c5b7e658266cf5b88b5e50d2a5cb19609b35ac436115df351b572c1b4c547880c7b9e8562862fbb685505edcabc5176e953ba24d6f1bd13b15592215425a768ec9bbea542a60f9b487525cdea9c7156c9739a04f6d19d339175b20174058748ccbbdec522c66ffb281545ad8afc1136a913fa6496b1fd53f115d2611465e728acdbfee502e64fdb0835658daadc31168933da44b691dd73d135f2413445c7088cfb1e05e206af3be8d5856d4a3cd1f669d33aa456713d9331d512a1d4a527e86c1b3e25c2268f1bc8f5a54d6a1cf1d649f31a8476511db311f53281f48507c84c3b5e45a246ef7ba895c52d0a7c91b629937ae416317dd3719552e194e567a82c5b7e658266cf5b88b5e50d2a5cb19609b35ac436115df351b572c1b4c547880c7b9e8562862fbb685505edcabc5176e953ba24d6f1bd13b15592215425a768ec9bbea542a60f9b487525cdea9c7156c9739a04f6d19d339175b20174058748ccbbdec522c66ffb281545ad8afc1136a913fa6496b1fd53f115d2611465e728acdbfee502e64fdb0835658daadc31168933da44b691dd73d135f2413445c7088cfb1e05e206af3be8d5856d4a3cd1f669d33aa456713d9331d512a1d4a527e86c1b3e25c2268f1bc8f5a54d6a1cf1d649f31a8476511db311f53281f48507c84c3b5e45a246ef7ba895c52d0a7c91b629937ae416317dd3719552e194e567a82c5b7e658266cf5b88b5e50d2a5cb19609b35ac436115df351b572c1b4c547880c7b9e8562862fbb685505edcabc5176e953ba24d6f1bd13b15592215425a768ec9bbea542a60f9b487525cdea9c7156c9739a04f6d19d339175b20174058748ccbbdec522c66ffb281545ad8afc1136a913fa6496b1fd53f115d2611465e728acdbfee502e64fdb0835658daadc31168933da44b691dd73d135f2413445c7088cfb1e05e206af3be8d5856d4a3cd1f669d33aa456713d9331d512a1d4a527e86c1b3e25c2268f1bc8f5a54d6a1cf1d649f31a8476511db311f53281f48507c84c3b5e45a246ef7ba895c52d0a7c91b629937ae416317dd3719552e194e567a82c5b7e658266cf5b88b5e50d2a5cb19609b35ac436115df351b572c1b4c547880c7b9e8562862fbb685505edcabc5176e953ba24d6f1bd13b15592215425a768ec9bbea542a60f9b487525cdea9c7156c9739a04f6d19d339175b20174058748ccbbdec522c66ffb281545ad8afc1136a913fa6496b1fd53f115d2611465e728acdbfee502e64fdb0835658daadc31168933da44b691dd73d135f2413445c7088cfb1e05e206af3be8d5856d4a3cd1f669d3b80f88541c28fdb1871a7adc6588bb6eecc69fda9f9d4d5b05b194d0cf62f9a7",
        "type": "nulldata"
      }
    }
  ],
  "blockhash": "15af9b025c636b87e0a10c18a1a8de0e5f3c2069ad563b293161176d75df89a4",
  "confirmations": 1,
  "time": 1764174659,
  "blocktime": 1764174659
}