{
  "hex": "01000000000101a44e0566bc78dae3e883d09a088731cb85546d2e36cb8e878125eda226c092340000000000feffffff0250ce18b4782d0000225120ac2f47e8ea4551efc07b477dbb48e607874774fc42fe06b1e8432251d0c6581600e1f50500000000fdd5046a2064516a69adcab7dfe6fcfc1d58e979dd199221745e76627d9ae35cee2dae1b8a4db004a08930f77847571e0430e830060bb3781d8e7db9f3d29fe0e1db78c1f9c0694a80a910d75867773e2410c810262b93583dae5d99d3f2bfc0c1fb58e1d9e0496ae0c970b73807175e4470a870464bf3385dce3df9b392dfa0a19b3881b980290ac0e950971827377e64508850666bd3187dee1dd993b2ff8081bb18a199a0092a2009b077f8c7d79e84b068b0868b33f89d0efd3973521f60615bf8417940e9ca00299057d8e7f7bea4904890a6ab13d8bd2edd1953723f40417bd8615960c9ea6049f037b88797dec4f028f0c6cb73b8dd4ebd7933125f20211bb8013900a98a4069d01798a7b7fee4d008d0e6eb5398fd6e9d5913327f00013b9821192089aaa08930f77847571e0430e830060bb3781d8e7db9f3d29fe0e1db78c1f9c0694a80a910d75867773e2410c810262b93583dae5d99d3f2bfc0c1fb58e1d9e0496ae0c970b73807175e4470a870464bf3385dce3df9b392dfa0a19b3881b980290ac0e950971827377e64508850666bd3187dee1dd993b2ff8081bb18a199a0092a2009b077f8c7d79e84b068b0868b33f89d0efd3973521f60615bf8417940e9ca00299057d8e7f7bea4904890a6ab13d8bd2edd1953723f40417bd8615960c9ea6049f037b88797dec4f028f0c6cb73b8dd4ebd7933125f20211bb8013900a98a4069d01798a7b7fee4d008d0e6eb5398fd6e9d5913327f00013b9821192089aaa08930f77847571e0430e830060bb3781d8e7db9f3d29fe0e1db78c1f9c0694a80a910d75867773e2410c810262b93583dae5d99d3f2bfc0c1fb58e1d9e0496ae0c970b73807175e4470a870464bf3385dce3df9b392dfa0a19b3881b980290ac0e950971827377e64508850666bd3187dee1dd993b2ff8081bb18a199a0092a2009b077f8c7d79e84b068b0868b33f89d0efd3973521f60615bf8417940e9ca00299057d8e7f7bea4904890a6ab13d8bd2edd1953723f40417bd8615960c9ea6049f037b88797dec4f028f0c6cb73b8dd4ebd7933125f20211bb8013900a98a4069d01798a7b7fee4d008d0e6eb5398fd6e9d5913327f00013b9821192089aaa08930f77847571e0430e830060bb3781d8e7db9f3d29fe0e1db78c1f9c0694a80a910d75867773e2410c810262b93583dae5d99d3f2bfc0c1fb58e1d9e0496ae0c970b73807175e4470a870464bf3385dce3df9b392dfa0a19b3881b980290ac0e950971827377e64508850666bd3187dee1dd993b2ff8081bb18a199a0092a2009b077f8c7d79e84b068b0868b33f89d0efd3973521f60615bf8417940e9ca00299057d8e7f7bea4904890a6ab13d8bd2edd1953723f40417bd8615960c9ea6049f037b88797dec4f028f0c6cb73b8dd4ebd7933125f20211bb8013900a98a4069d01798a7b7fee4d008d0e6eb5398fd6e9d5913327f00013b9821192089aaa08930f77847571e0430e830060bb3781d8e7db9f3d29fe0e1db78c1f9c0694a80a910d75867773e2410c810262b93583dae5d99d3f2bfc0c1fb58e1d9e0496ae0c970b73807175e4470a870464bf3385dce3df9b392dfa0a19b3881b980290ac0e950971827377e64508850666bd3187dee1dd993b2ff8081bb18a199a0092a2009b077f8c7d79e84b068b0868b33f811e4ed79a2715ef498180666e01651ecdd08d8204d0abe40bea4de3be784643802fd7509f685c45ef0e590a6476c00657fa8f16544a01d37fab8caa10219b4cce0e22b7dd5eefb5095237bc89d54dc0e88154cbeceb28d82b252fa7c3dbb4e85e568db7af4cad12dafaf2fd54862083856fcaa17ad1a80379238565541a0fc3308ed9eab4450dbfa572f3723da116113f82a49b9942f85971670d4c4222937848e754f917fbf18f792441f4968e4af767f7584d5e766f5760fa3a737c5616fc9c2b9d81e84732f3f69eb29b8eda9a110d4757dbcb8e8b94ab1bac5d421b638b5fe150fc4cd6cc1c88b2cf3278977eb2915f07c3f530f06f0b638be0f0d4dc558717f9afb0639707b0db47dd21b27059dd0ab25de5bb14e51c22079ac3b2c881ca3d83e73ae9e2810159383b76a7d03e2e648a1d6afab8210fdf2b498ab0d3b01d0d08aa9e026a07b373e0eb9034868a9575de035601f26925d9c1bebf904ef25faa438d0f4f94db5bb2da6b66c9d4ffc87e1b74d969938c30c818321f197d92cb0176cb33175add56c942e1f00006e26f75da5ea95e55a9599e84ecb18fdf65df04d2227d16bd99d6ec5b0b0f700ea4683e373b0820e7cd29f8fb366d40a3630ab27d459034a50b99f2e5e0a25d7b9e0a1803da140213450f526ad3e67a58ea5f83063d70fc612b7c497c345092d7b5d4a4bcaabe601bd34c71cd03684378b8ae2d86faea906ff2981681028c12fc55b61e11458140ae933ccf2b5952d26db633cbdac02dd080207ddb61952d1c06c43c0757331df94a650c70796153bbe0f052fae96d9874c15a15146331bee5215543e7c4b2b7746de1b4f6e238e5a93089850934188c936a4f689102b4cd81febd9370cabd6e73a5c28012e63caa0576cbe5176cf6878910b43b6c675f3c9a32bb4f1f7e3e47eb2d876200031462c3f0f4521b302c6210e2f2e340303cad25122df6c70bdacf8b1f1ea146f3344681135898e7052f5af742b4fe9c5d8797276dff23a3ff6f975453867146c4704290ba9b2144afb53a4316ade14be4028e3114b3c780f2e4cb99a7bf3296f02b218cec904a680abdcbfef1a8f10541ff7253288c5513bafd6a1b454d011d08ba046abea0750d85f28dfc8f036ab286f5b1f8f1972d42bf39e717e2785550328ac521c3753eb64f77db74acd2ae38b4715d22cb44e3113974cfcdf559d745aa4ab40cd17b500ea05c20555d6a179ccf284b02ec168d8241beddd0d31c02764f2e5fd06c12ec124b6575937db611a38f130a2d60c4ed4602f31f8cc296c7f749fcb09fb1a94f4bae390dbb8432ea0dd8b4877a7ff5b2ce1ff2dcb6fe3050096324204be335a1114024ab8c93709c1a21020d811886e09b80bbb60848f59811c1a626790e43a9a8aa445a29431cde98de959a7ca27158be950221f28d191dae8e63fd0f82d4aa78317e58adbe7b654ad5abf9340f9830c86d39a0f107d524824ac41140f69903bdcf187f7fd326f2faf83bac86875189977648c85ec8e895cfb08e874ce3e8421efe0912addb02ec59fa807d51d8c6ecf9c36a0128aa25ae249f8226f88ea4bf326abd050f2eea01f977c233febee9d7e01e7cf535e80cbccbbd7f479c004d69aed3ed803bf4992c164a24af68852162f9196e97f59ac0f0fe1f26af6ed49af8cbbc86155f584c68873bf7a03d6ef6ca4cbdca85e2ffb7084111cfbd4d5fa47f6aa0b9e65989495473c83c28c9de7e79f393265b5a56fb9ddfef54668eced4fc32aac3333f770369c559e2fd8d8022d9eeccb3c7c60a865a6dc195c2a55dd5e3ab55c012185e7f0ac4985f679625f45d89e76094e5b0795410539b81932e4d9d4b500451015267f939740388d52f8bf0cae987b438286bce965baef161c500490e2bd147ca051585d5eac1f172f9f2456a6eea1e76b91435629bda4fbbed76be951e15cf56de0684d0b7b366aaa008f1ba374809d93d545058f08808e5d35d8198b98233a6cf196bbd080d26b50fcb4648e2ffaf83b229c3e5f688dcdcd4ec827a92cb634b7b33f74555f2f3aac2c9289d6eb2a2db3a8b4a9b733e408262864451848383274497771801950a4a77f53cdcf22a54af374c1384d2e20acbea8349ed94d205d82b2abfa73091c5c63f79ac91154b9e9a9ccd9ab2501b8704a6ece66f32f0553e2b71235f3bb3415557b54929de703952e092c8899a1ba16e68a48e41e71423196de4f480af2357a52c0ca051e1b9c80b21ade9f79959774ef43216d3dea2dd5f1327bc6e17a3c3094b484a0fb2ecfcda49b8a04657f0b46d40c2a5fcc2b1d12082c2a8c41ed75a7545c056ec4d692e6a9a82e668d56b60790e9093bb973b0efd3a177628103cd71de15626f56744ab8c6575cbdaa79ed9de35f5cf863a549b56a4b13f0b3f500f0e8ffdb8bf0e3c6706925081ecbcee4da9653c767954278e9bf73ae708de3d34f9dbffc8651bab2eb2e2cc1030ee651f0b6fb25b4f137145abd7d097873c006bb3a474c370f36acceaa4551c8bf788d303b6229fc4a1991cdf3569a2b35d53736b343774f9dab88812a32a2e438ace089b9b9c1082399db471adc90b24c22d4d9eb74aa9e8c048d3944c036bb547a5e3a5529689344b36171a4f4fc2c563c0158952d05a68e9032b012d4b7152d6a224b2593239345fa25876accc0997ad445c145136f58c17b9fd94de840e4267a0c5fb733a159fa3e0cd6235d5360daf3465f23bbdafd16952e15c7ff533666212b62768b77f4e828d28bde090e5a42efab3b8759698d767c8ce7c5b5363c3cb281d387f99455aeddb305f7ee3523731032ea6e56ae6e1f934eea977f8446c95ac3fe76a5ac500febcbe844053c00cf453995765d9424bc38615782eecbe6c1a436aaba565571b02f0f90b14eb7c120f2ef13cd520d4fba9ea8918a98e2b30c395f5f1cf8837aa9e4eeab35658481aa4924b32620f65010728fec00850474655cdf77ab1881c5cff21f793e451712c9b5d6835b0f48b87ae1a415b4afeefb5866c2f8a06a2171a55b97e6880686faf36c1cb060919843e4e4d154d682f9556298bccb74dbf76a4829b6ed148f07c197205165b0e5745ed8ed78c1db0fc4fe9a7cb22ea61fccab6458f150565825533e59c40720461f42bc931b8972bcb6570d36e2156a5ee7d7e0f90ede1f2ac782afc5f89ab4ac3e332da771c2ad84a3d399b07ab8332259e63060e1d1335527f637443436f9ee1519ce80bb60cd731278d05b7c2810b88c303cefd7ce1b7b9ef6d58624407c3b49f1010cee12db864d03c4143d6721cf8b32e21949eb526b83e5ca25be8f78bab7fc3c960f1be6f05c4828b14ea597768beeb5f6e21d2338474a626676afb0c4d9dadbdf2237444b80b8cbfeff060c151619303335748998b4b8cde3e5344d505c858798a0a7c4c5f4f7fafe000000000000000000000000000000000000000000000000000f18283701fd210500a957d80bde838608b4f7589f055cc54bfb1478b2dcb819168a06a9bc41c595e4e37264027b1512b53205d449451e8176b96330e1962a6d0c56a0660221a0d43381b103cb23f2a19685a4868bca064b0b92acd0702da7109080031ec5d36e9f57118f225f699dd067a3b04777a19780b7dd802fa002ca89a9a4fb0bf062c789eaf5b2c92fe667453245e79f7e8bf6116c00c6ab82d37c6b057d3b3f58d2f2e4eccd7f2fcfbe5026c98b95f6bb8e0b7e9dc9cf3e18f6c65a59264ae4cd72d44b8aa95c8bdf949bce25afe138405ee2d73618751ef5538171e709b6bb25b653dbc49a16bcaefec13579a29b54c01054a6335b6104371de8ac7ae94c340dfe0bff4d43789bf4b80249a08de6fc09e1f99ce13e46e12632184982282ea9f561fe5f7ba7a2d515b03e856d4cedae732babd6f9905d9598b1d40c621ae8d0c4cc08bab862973c2c1a18a5062dc7a65b52f88345eec3fb60ec2af558e977c51c8a0e5e32cbcb637734f2fbbf71edcc077902417f2c2bcc57f774fa3ea1299e101845cb229c5926eb6106dd4244918c68480043b193016b7b017fe420b6a668d27565f1a68fa71f685194c6e094dd6d26eef1318ebb9a09411343e4e66e2cd3a9e08678bd037a1de955f6db1be749a630d2aeffeeeafac462777ce14135f5b12365dfe1a3f0e5adf85709e63ab9ed90c818b9b0888af52a3bb7f355b4eaf0f5c1beddda1483962c1eb1243f4431803e95acdf65cd9f451cf42a83581e436832b41d54c793a74e88f72643a30f223660bfd71c14d258f675614009043b6037213bf0ab374bc1b610dc0e301b353bdca037553229c15599923506f32b0de18fb7b8988f7fd0ac3170373de87f5f80b0bb42eeb178f8d15ea1beb96336474e0f0ed2381c1d92485a8bc83e3332f1007dc18e6c3acee98dc1efa21658e5f6335fc7ae405c827ef47b7cc74612f5a57fdbdd17a5525bd988c7f45db44effd8949c8b4e456ff824c462333519cea97c9572b8aae57b8852aa753c5080938455d6a7205af5e61c32be50967134cac1cf2503fccd8a05ff1c5e95b5be42ac1f7815f66b449afa2c2d7c1c14fb16e1ccfc0e8ccbe1039140ec3589edb2d10e521f6209399456833e5fed891f43c7b59551bf20a49bc3e03523cb5ed9177a389521fef97c761ad7c75592589b1058a493f913585ec06e417fc82605e00949b4629589f6dc57d2e5bea7014f37ba329c88af57b73d9e7c682309a175e4e91f72f7f5a1aabb45e04ff956c2cd05ff7db3bbe03089661052b2e8894ff833b439ea23a4298313d19b88b3097a5ee8844323c5979feb480b10b23e1dc27c3a8820eb01fd2a45e9a6a16041e65f4d29f2eece0ee2de443fd3cc2c520df16da0e893525ffe6a34bde2f8c6397b440eb5bd0ea83589d0b3e1a6d9ff6aa26ef9defbc52ab350d6d1c8b89b48a8feda00b2630612ecda3d004c25f1f98eb06cf19734ba5c0f078a8b87eda65426c820f0c8cd7d42ea1a63abf0fc12f77b7f78a09c527c86a8907857fd19e59124bc80fc88eb01ddd45389e1e3e36870effd212a8f33253cc47334bfa34d80e25379ae7e263a02017c286511f35c01f483c44f2510f1248593887cf2261d9979f9be4c8afa237a1d240c8569d10acc664af4a4244fa9854f9f4613d834ec8e408e396cc9ec7fbf20dde4248adc37b6be9832f349218fd599acdd5ad44e22681fa4c080bfee1b7d5c77e3e0df6f90a21922fa3d4a0ebe540d6e3da0fae63bbf848c400c609bda5a3298c78bdc1867123747b0e7ab98268cebbcfea4ae37321c2a8fe0e45479f74c57a3ebcf25cec6fd27b8da7bf4cc98d27b4357c43b1ee08cabd72384000000",
  "txid": "d3fb5034143c1947154cc5a800b67718f21b4392985816aa94802ea21e4ae03b",
  "hash": "ed1472fe91ce691de5816cda181170472d2edc17b59de1769ab4e32a18bd657a",
  "size": 5085,
  "vsize": 2278,
  "version": 1,
  "locktime": 132,
  "vin": [
    {
      "txid": "3492c026a2ed2581878ecb362e6d5485cb3187089ad083e8e3da78bc66054ea4",
      "vout": 0,
      "scriptSig": {
        "asm": "",
        "hex": ""
      },
      "txinwitness": [
        "f685c45ef0e590a6476c00657fa8f16544a01d37fab8caa10219b4cce0e22b7dd5eefb5095237bc89d54dc0e88154cbeceb28d82b252fa7c3dbb4e85e568db7af4cad12dafaf2fd54862083856fcaa17ad1a80379238565541a0fc3308ed9eab4450dbfa572f3723da116113f82a49b9942f85971670d4c4222937848e754f917fbf18f792441f4968e4af767f7584d5e766f5760fa3a737c5616fc9c2b9d81e84732f3f69eb29b8eda9a110d4757dbcb8e8b94ab1bac5d421b638b5fe150fc4cd6cc1c88b2cf3278977eb2915f07c3f530f06f0b638be0f0d4dc558717f9afb0639707b0db47dd21b27059dd0ab25de5bb14e51c22079ac3b2c881ca3d83e73ae9e2810159383b76a7d03e2e648a1d6afab8210fdf2b498ab0d3b01d0d08aa9e026a07b373e0eb9034868a9575de035601f26925d9c1bebf904ef25faa438d0f4f94db5bb2da6b66c9d4ffc87e1b74d969938c30c818321f197d92cb0176cb33175add56c942e1f00006e26f75da5ea95e55a9599e84ecb18fdf65df04d2227d16bd99d6ec5b0b0f700ea4683e373b0820e7cd29f8fb366d40a3630ab27d459034a50b99f2e5e0a25d7b9e0a1803da140213450f526ad3e67a58ea5f83063d70fc612b7c497c345092d7b5d4a4bcaabe601bd34c71cd03684378b8ae2d86faea906ff2981681028c12fc55b61e11458140ae933ccf2b5952d26db633cbdac02dd080207ddb61952d1c06c43c0757331df94a650c70796153bbe0f052fae96d9874c15a15146331bee5215543e7c4b2b7746de1b4f6e238e5a93089850934188c936a4f689102b4cd81febd9370cabd6e73a5c28012e63caa0576cbe5176cf6878910b43b6c675f3c9a32bb4f1f7e3e47eb2d876200031462c3f0f4521b302c6210e2f2e340303cad25122df6c70bdacf8b1f1ea146f3344681135898e7052f5af742b4fe9c5d8797276dff23a3ff6f975453867146c4704290ba9b2144afb53a4316ade14be4028e3114b3c780f2e4cb99a7bf3296f02b218cec904a680abdcbfef1a8f10541ff7253288c5513bafd6a1b454d011d08ba046abea0750d85f28dfc8f036ab286f5b1f8f1972d42bf39e717e2785550328ac521c3753eb64f77db74acd2ae38b4715d22cb44e3113974cfcdf559d745aa4ab40cd17b500ea05c20555d6a179ccf284b02ec168d8241beddd0d31c02764f2e5fd06c12ec124b6575937db611a38f130a2d60c4ed4602f31f8cc296c7f749fcb09fb1a94f4bae390dbb8432ea0dd8b4877a7ff5b2ce1ff2dcb6fe3050096324204be335a1114024ab8c93709c1a21020d811886e09b80bbb60848f59811c1a626790e43a9a8aa445a29431cde98de959a7ca27158be950221f28d191dae8e63fd0f82d4aa78317e58adbe7b654ad5abf9340f9830c86d39a0f107d524824ac41140f69903bdcf187f7fd326f2faf83bac86875189977648c85ec8e895cfb08e874ce3e8421efe0912addb02ec59fa807d51d8c6ecf9c36a0128aa25ae249f8226f88ea4bf326abd050f2eea01f977c233febee9d7e01e7cf535e80cbccbbd7f479c004d69aed3ed803bf4992c164a24af68852162f9196e97f59ac0f0fe1f26af6ed49af8cbbc86155f584c68873bf7a03d6ef6ca4cbdca85e2ffb7084111cfbd4d5fa47f6aa0b9e65989495473c83c28c9de7e79f393265b5a56fb9ddfef54668eced4fc32aac3333f770369c559e2fd8d8022d9eeccb3c7c60a865a6dc195c2a55dd5e3ab55c012185e7f0ac4985f679625f45d89e76094e5b0795410539b81932e4d9d4b500451015267f939740388d52f8bf0cae987b438286bce965baef161c500490e2bd147ca051585d5eac1f172f9f2456a6eea1e76b91435629bda4fbbed76be951e15cf56de0684d0b7b366aaa008f1ba374809d93d545058f08808e5d35d8198b98233a6cf196bbd080d26b50fcb4648e2ffaf83b229c3e5f688dcdcd4ec827a92cb634b7b33f74555f2f3aac2c9289d6eb2a2db3a8b4a9b733e408262864451848383274497771801950a4a77f53cdcf22a54af374c1384d2e20acbea8349ed94d205d82b2abfa73091c5c63f79ac91154b9e9a9ccd9ab2501b8704a6ece66f32f0553e2b71235f3bb3415557b54929de703952e092c8899a1ba16e68a48e41e71423196de4f480af2357a52c0ca051e1b9c80b21ade9f79959774ef43216d3dea2dd5f1327bc6e17a3c3094b484a0fb2ecfcda49b8a04657f0b46d40c2a5fcc2b1d12082c2a8c41ed75a7545c056ec4d692e6a9a82e668d56b60790e9093bb973b0efd3a177628103cd71de15626f56744ab8c6575cbdaa79ed9de35f5cf863a549b56a4b13f0b3f500f0e8ffdb8bf0e3c6706925081ecbcee4da9653c767954278e9bf73ae708de3d34f9dbffc8651bab2eb2e2cc1030ee651f0b6fb25b4f137145abd7d097873c006bb3a474c370f36acceaa4551c8bf788d303b6229fc4a1991cdf3569a2b35d53736b343774f9dab88812a32a2e438ace089b9b9c1082399db471adc90b24c22d4d9eb74aa9e8c048d3944c036bb547a5e3a5529689344b36171a4f4fc2c563c0158952d05a68e9032b012d4b7152d6a224b2593239345fa25876accc0997ad445c145136f58c17b9fd94de840e4267a0c5fb733a159fa3e0cd6235d5360daf3465f23bbdafd16952e15c7ff533666212b62768b77f4e828d28bde090e5a42efab3b8759698d767c8ce7c5b5363c3cb281d387f99455aeddb305f7ee3523731032ea6e56ae6e1f934eea977f8446c95ac3fe76a5ac500febcbe844053c00cf453995765d9424bc38615782eecbe6c1a436aaba565571b02f0f90b14eb7c120f2ef13cd520d4fba9ea8918a98e2b30c395f5f1cf8837aa9e4eeab35658481aa4924b32620f65010728fec00850474655cdf77ab1881c5cff21f793e451712c9b5d6835b0f48b87ae1a415b4afeefb5866c2f8a06a2171a55b97e6880686faf36c1cb060919843e4e4d154d682f9556298bccb74dbf76a4829b6ed148f07c197205165b0e5745ed8ed78c1db0fc4fe9a7cb22ea61fccab6458f150565825533e59c40720461f42bc931b8972bcb6570d36e2156a5ee7d7e0f90ede1f2ac782afc5f89ab4ac3e332da771c2ad84a3d399b07ab8332259e63060e1d1335527f637443436f9ee1519ce80bb60cd731278d05b7c2810b88c303cefd7ce1b7b9ef6d58624407c3b49f1010cee12db864d03c4143d6721cf8b32e21949eb526b83e5ca25be8f78bab7fc3c960f1be6f05c4828b14ea597768beeb5f6e21d2338474a626676afb0c4d9dadbdf2237444b80b8cbfeff060c151619303335748998b4b8cde3e5344d505c858798a0a7c4c5f4f7fafe000000000000000000000000000000000000000000000000000f18283701",
        "00a957d80bde838608b4f7589f055cc54bfb1478b2dcb819168a06a9bc41c595e4e37264027b1512b53205d449451e8176b96330e1962a6d0c56a0660221a0d43381b103cb23f2a19685a4868bca064b0b92acd0702da7109080031ec5d36e9f57118f225f699dd067a3b04777a19780b7dd802fa002ca89a9a4fb0bf062c789eaf5b2c92fe667453245e79f7e8bf6116c00c6ab82d37c6b057d3b3f58d2f2e4eccd7f2fcfbe5026c98b95f6bb8e0b7e9dc9cf3e18f6c65a59264ae4cd72d44b8aa95c8bdf949bce25afe138405ee2d73618751ef5538171e709b6bb25b653dbc49a16bcaefec13579a29b54c01054a6335b6104371de8ac7ae94c340dfe0bff4d43789bf4b80249a08de6fc09e1f99ce13e46e12632184982282ea9f561fe5f7ba7a2d515b03e856d4cedae732babd6f9905d9598b1d40c621ae8d0c4cc08bab862973c2c1a18a5062dc7a65b52f88345eec3fb60ec2af558e977c51c8a0e5e32cbcb637734f2fbbf71edcc077902417f2c2bcc57f774fa3ea1299e101845cb229c5926eb6106dd4244918c68480043b193016b7b017fe420b6a668d27565f1a68fa71f685194c6e094dd6d26eef1318ebb9a09411343e4e66e2cd3a9e08678bd037a1de955f6db1be749a630d2aeffeeeafac462777ce14135f5b12365dfe1a3f0e5adf85709e63ab9ed90c818b9b0888af52a3bb7f355b4eaf0f5c1beddda1483962c1eb1243f4431803e95acdf65cd9f451cf42a83581e436832b41d54c793a74e88f72643a30f223660bfd71c14d258f675614009043b6037213bf0ab374bc1b610dc0e301b353bdca037553229c15599923506f32b0de18fb7b8988f7fd0ac3170373de87f5f80b0bb42eeb178f8d15ea1beb96336474e0f0ed2381c1d92485a8bc83e3332f1007dc18e6c3acee98dc1efa21658e5f6335fc7ae405c827ef47b7cc74612f5a57fdbdd17a5525bd988c7f45db44effd8949c8b4e456ff824c462333519cea97c9572b8aae57b8852aa753c5080938455d6a7205af5e61c32be50967134cac1cf2503fccd8a05ff1c5e95b5be42ac1f7815f66b449afa2c2d7c1c14fb16e1ccfc0e8ccbe1039140ec3589edb2d10e521f6209399456833e5fed891f43c7b59551bf20a49bc3e03523cb5ed9177a389521fef97c761ad7c75592589b1058a493f913585ec06e417fc82605e00949b4629589f6dc57d2e5bea7014f37ba329c88af57b73d9e7c682309a175e4e91f72f7f5a1aabb45e04ff956c2cd05ff7db3bbe03089661052b2e8894ff833b439ea23a4298313d19b88b3097a5ee8844323c5979feb480b10b23e1dc27c3a8820eb01fd2a45e9a6a16041e65f4d29f2eece0ee2de443fd3cc2c520df16da0e893525ffe6a34bde2f8c6397b440eb5bd0ea83589d0b3e1a6d9ff6aa26ef9defbc52ab350d6d1c8b89b48a8feda00b2630612ecda3d004c25f1f98eb06cf19734ba5c0f078a8b87eda65426c820f0c8cd7d42ea1a63abf0fc12f77b7f78a09c527c86a8907857fd19e59124bc80fc88eb01ddd45389e1e3e36870effd212a8f33253cc47334bfa34d80e25379ae7e263a02017c286511f35c01f483c44f2510f1248593887cf2261d9979f9be4c8afa237a1d240c8569d10acc664af4a4244fa9854f9f4613d834ec8e408e396cc9ec7fbf20dde4248adc37b6be9832f349218fd599acdd5ad44e22681fa4c080bfee1b7d5c77e3e0df6f90a21922fa3d4a0ebe540d6e3da0fae63bbf848c400c609bda5a3298c78bdc1867123747b0e7ab98268cebbcfea4ae37321c2a8fe0e45479f74c57a3ebcf25cec6fd27b8da7bf4cc98d27b4357c43b1ee08cabd723"
      ],
      "sequence": 4294967294
    }
  ],
  "vout": [
    {
      "value": 499964.4085,
      "n": 0,
      "scriptPubKey": {
        "asm": "1 ac2f47e8ea4551efc07b477dbb48e607874774fc42fe06b1e8432251d0c65816",
        "hex": "5120ac2f47e8ea4551efc07b477dbb48e607874774fc42fe06b1e8432251d0c65816",
        "reqSigs": 1,
        "type": "witness_v1_scripthash",
        "addresses": [
          "3QJmnh"
        ]
      }
    },
    {
      "value": 1.0,
      "n": 1,
      "scriptPubKey": {
        "asm": "OP_RETURN 64516a69adcab7dfe6fcfc1d58e979dd199221745e76627d9ae35cee2dae1b8a a08930f77847571e0430e830060bb3781d8e7db9f3d29fe0e1db78c1f9c0694a80a910d75867773e2410c810262b93583dae5d99d3f2bfc0c1fb58e1d9e0496ae0c970b73807175e4470a870464bf3385dce3df9b392dfa0a19b3881b980290ac0e950971827377e64508850666bd3187dee1dd993b2ff8081bb18a199a0092a2009b077f8c7d79e84b068b0868b33f89d0efd3973521f60615bf8417940e9ca00299057d8e7f7bea4904890a6ab13d8bd2edd1953723f40417bd8615960c9ea6049f037b88797dec4f028f0c6cb73b8dd4ebd7933125f20211bb8013900a98a4069d01798a7b7fee4d008d0e6eb5398fd6e9d5913327f00013b9821192089aaa08930f77847571e0430e830060bb3781d8e7db9f3d29fe0e1db78c1f9c0694a80a910d75867773e2410c810262b93583dae5d99d3f2bfc0c1fb58e1d9e0496ae0c970b73807175e4470a870464bf3385dce3df9b392dfa0a19b3881b980290ac0e950971827377e64508850666bd3187dee1dd993b2ff8081bb18a199a0092a2009b077f8c7d79e84b068b0868b33f89d0efd3973521f60615bf8417940e9ca00299057d8e7f7bea4904890a6ab13d8bd2edd1953723f40417bd8615960c9ea6049f037b88797dec4f028f0c6cb73b8dd4ebd7933125f20211bb8013900a98a4069d01798a7b7fee4d008d0e6eb5398fd6e9d5913327f00013b9821192089aaa08930f77847571e0430e830060bb3781d8e7db9f3d29fe0e1db78c1f9c0694a80a910d75867773e2410c810262b93583dae5d99d3f2bfc0c1fb58e1d9e0496ae0c970b73807175e4470a870464bf3385dce3df9b392dfa0a19b3881b980290ac0e950971827377e64508850666bd3187dee1dd993b2ff8081bb18a199a0092a2009b077f8c7d79e84b068b0868b33f89d0efd3973521f60615bf8417940e9ca00299057d8e7f7bea4904890a6ab13d8bd2edd1953723f40417bd8615960c9ea6049f037b88797dec4f028f0c6cb73b8dd4ebd7933125f20211bb8013900a98a4069d01798a7b7fee4d008d0e6eb5398fd6e9d5913327f00013b9821192089aaa08930f77847571e0430e830060bb3781d8e7db9f3d29fe0e1db78c1f9c0694a80a910d75867773e2410c810262b93583dae5d99d3f2bfc0c1fb58e1d9e0496ae0c970b73807175e4470a870464bf3385dce3df9b392dfa0a19b3881b980290ac0e950971827377e64508850666bd3187dee1dd993b2ff8081bb18a199a0092a2009b077f8c7d79e84b068b0868b33f89d0efd3973521f60615bf8417940e9ca00299057d8e7f7bea4904890a6ab13d8bd2edd1953723f40417bd8615960c9ea6049f037b88797dec4f028f0c6cb73b8dd4ebd7933125f20211bb8013900a98a4069d01798a7b7fee4d008d0e6eb5398fd6e9d5913327f00013b9821192089aaa08930f77847571e0430e830060bb3781d8e7db9f3d29fe0e1db78c1f9c0694a80a910d75867773e2410c810262b93583dae5d99d3f2bfc0c1fb58e1d9e0496ae0c970b73807175e4470a870464bf3385dce3df9b392dfa0a19b3881b980290ac0e950971827377e64508850666bd3187dee1dd993b2ff8081bb18a199a0092a2009b077f8c7d79e84b068b0868b33f811e4ed79a2715ef498180666e01651ecdd08d8204d0abe40bea4de3be7846438",
        "hex": "6a2064516a69adcab7dfe6fcfc1d58e979dd199221745e76627d9ae35cee2dae1b8a4db004a08930f77847571e0430e830060bb3781d8e7db9f3d29fe0e1db78c1f9c0694a80a910d75867773e2410c810262b93583dae5d99d3f2bfc0c1fb58e1d9e0496ae0c970b73807175e4470a870464bf3385dce3df9b392dfa0a19b3881b980290ac0e950971827377e64508850666bd3187dee1dd993b2ff8081bb18a199a0092a2009b077f8c7d79e84b068b0868b33f89d0efd3973521f60615bf8417940e9ca00299057d8e7f7bea4904890a6ab13d8bd2edd1953723f40417bd8615960c9ea6049f037b88797dec4f028f0c6cb73b8dd4ebd7933125f20211bb8013900a98a4069d01798a7b7fee4d008d0e6eb5398fd6e9d5913327f00013b9821192089aaa08930f77847571e0430e830060bb3781d8e7db9f3d29fe0e1db78c1f9c0694a80a910d75867773e2410c810262b93583dae5d99d3f2bfc0c1fb58e1d9e0496ae0c970b73807175e4470a870464bf3385dce3df9b392dfa0a19b3881b980290ac0e950971827377e64508850666bd3187dee1dd993b2ff8081bb18a199a0092a2009b077f8c7d79e84b068b0868b33f89d0efd3973521f60615bf8417940e9ca00299057d8e7f7bea4904890a6ab13d8bd2edd1953723f40417bd8615960c9ea6049f037b88797dec4f028f0c6cb73b8dd4ebd7933125f20211bb8013900a98a4069d01798a7b7fee4d008d0e6eb5398fd6e9d5913327f00013b9821192089aaa08930f77847571e0430e830060bb3781d8e7db9f3d29fe0e1db78c1f9c0694a80a910d75867773e2410c810262b93583dae5d99d3f2bfc0c1fb58e1d9e0496ae0c970b73807175e4470a870464bf3385dce3df9b392dfa0a19b3881b980290ac0e950971827377e64508850666bd3187dee1dd993b2ff8081bb18a199a0092a2009b077f8c7d79e84b068b0868b33f89d0efd3973521f60615bf8417940e9ca00299057d8e7f7bea4904890a6ab13d8bd2edd1953723f40417bd8615960c9ea6049f037b88797dec4f028f0c6cb73b8dd4ebd7933125f20211bb8013900a98a4069d01798a7b7fee4d008d0e6eb5398fd6e9d5913327f00013b9821192089aaa08930f77847571e0430e830060bb3781d8e7db9f3d29fe0e1db78c1f9c0694a80a910d75867773e2410c810262b93583dae5d99d3f2bfc0c1fb58e1d9e0496ae0c970b73807175e4470a870464bf3385dce3df9b392dfa0a19b3881b980290ac0e950971827377e64508850666bd3187dee1dd993b2ff8081bb18a199a0092a2009b077f8c7d79e84b068b0868b33f89d0efd3973521f60615bf8417940e9ca00299057d8e7f7bea4904890a6ab13d8bd2edd1953723f40417bd8615960c9ea6049f037b88797dec4f028f0c6cb73b8dd4ebd7933125f20211bb8013900a98a4069d01798a7b7fee4d008d0e6eb5398fd6e9d5913327f00013b9821192089aaa08930f77847571e0430e830060bb3781d8e7db9f3d29fe0e1db78c1f9c0694a80a910d75867773e2410c810262b93583dae5d99d3f2bfc0c1fb58e1d9e0496ae0c970b73807175e4470a870464bf3385dce3df9b392dfa0a19b3881b980290ac0e950971827377e64508850666bd3187dee1dd993b2ff8081bb18a199a0092a2009b077f8c7d79e84b068b0868b33f811e4ed79a2715ef498180666e01651ecdd08d8204d0abe40bea4de3be7846438",
        "type": "nulldata"
      }
    }
  ],
  "blockhash": "2dfbfbf9a9b6a37d5bbaa2d3fd41803f08650e7d63861427b8d0526132d1543b",
  "confirmations": 1,
  "time": 1764182436,
  "blocktime": 1764182436
}