{
  "hex": "010000000001011775dbabe53ad9d0cb016dcdba836edae687e2f69c3388714d80f0001449489d0100000000feffffff028022c5f6782d000022512066a2a4151e637db1b1a07cf8d894000fe7267e71b258cce592682e57bf30dd7100e1f50500000000fdd5046a2002d2b5885031d280252c3f36fff959069a5640370fc5583bf0bb64fad5ed55a34db004760452b311f8d889bd7954b0d8f875c6a1092ea2de49971bc9af0a266c474f015624729331d8f8a99d597490f8d855e681290e82fe69b73be98f2a064c676f21364412f351b898c9fd3914f098b83586e1496ee29e09d75b89ef4a662c070f41166432d37198b8e9dd1934d0b89815a6c1694ec2be29f77ba9cf6a460c272f61f684d233917858093df9d4305878f5462189ae225ec9179b492f8aa6ecc7cf81d6a4f213b15878291dd9f4107858d56601a98e027ee937bb690faa86cce7efa1b6c49273d13818497db994701838b50661c9ee621e8957db096fcae6ac878fc196e4b253f11838695d99b4503818952641e9ce423ea977fb294feac68ca7afe1760452b311f8d889bd7954b0d8f875c6a1092ea2de49971bc9af0a266c474f015624729331d8f8a99d597490f8d855e681290e82fe69b73be98f2a064c676f21364412f351b898c9fd3914f098b83586e1496ee29e09d75b89ef4a662c070f41166432d37198b8e9dd1934d0b89815a6c1694ec2be29f77ba9cf6a460c272f61f684d233917858093df9d4305878f5462189ae225ec9179b492f8aa6ecc7cf81d6a4f213b15878291dd9f4107858d56601a98e027ee937bb690faa86cce7efa1b6c49273d13818497db994701838b50661c9ee621e8957db096fcae6ac878fc196e4b253f11838695d99b4503818952641e9ce423ea977fb294feac68ca7afe1760452b311f8d889bd7954b0d8f875c6a1092ea2de49971bc9af0a266c474f015624729331d8f8a99d597490f8d855e681290e82fe69b73be98f2a064c676f21364412f351b898c9fd3914f098b83586e1496ee29e09d75b89ef4a662c070f41166432d37198b8e9dd1934d0b89815a6c1694ec2be29f77ba9cf6a460c272f61f684d233917858093df9d4305878f5462189ae225ec9179b492f8aa6ecc7cf81d6a4f213b15878291dd9f4107858d56601a98e027ee937bb690faa86cce7efa1b6c49273d13818497db994701838b50661c9ee621e8957db096fcae6ac878fc196e4b253f11838695d99b4503818952641e9ce423ea977fb294feac68ca7afe1760452b311f8d889bd7954b0d8f875c6a1092ea2de49971bc9af0a266c474f015624729331d8f8a99d597490f8d855e681290e82fe69b73be98f2a064c676f21364412f351b898c9fd3914f098b83586e1496ee29e09d75b89ef4a662c070f41166432d37198b8e9dd1934d0b89815a6c1694ec2be29f77ba9cf6a460c272f61f684d233917858093df9d4305878f5462189ae225ec9179b492f8aa6ecc7cf81d6a4f213b15878291dd9f4107858d56601a98e027ee937bb690faa86cce7efa1b6c49273d13818497db994701838b50661c9ee621e8957db096fcae6ac878fc196e4b253f11838695d99b4503818952641e9ce423ea977fb294feac68ca7afe1760452b311f8d889bd7954b0d8f875c6a1092ea2de49971bc9af0a266c474f015624729331d8f8a99d597490f8d855e681290e82fe69b73be98f2a064c676f21364412f351b898c9fd3914f098b83586e1496ee29e09d75b89ef4a662c070f41166432d37198b8e9dd1934d0b89815a6c1694ec2be29f77ba9cf6a460c272f61f684d233917858093df9d4305878f546ec1a2e3537b814802fe775e6628192dfcc839dd0af4c22e109f09983213819ea02fd7509f9ed338adbe2434f5c6e75af996d71d11088b14880e257e45c54901ae6998e36d6fff4d8e893806c0cbf6732922bafbe5659f1aba57ded25a7d7d5c97553b2e8b9bb3c21d2a2e4d8b2eb22f930b4938a726c8887ecc9f934a9a5a8dc50d65ed11bd97ffddde2c55dcf33be9686a0938439f1dd2fead3acd71ed67e022b953619ab4fef150a643e48912785f794b1dc54fcda957ec7b0a4bf3e3da4d5bd2ee9b3c96d752cd4e66b911fb7715fa17cb67ebc0124f488eae1bacf940380e962708da21ac65548cf40532cecff4c5c30708d3558a3378c5cf9190b6be751fa57228a73b5c09128397e29fb35a268e0a5a06c494578827b762ffcc852e587eda74057358d78011e91438f757872758f628b9c2f45b97f61f232afd14fd7ed0240836ad28a627f5282e43e3134dc73162a88522e93b325db36dc21e66b1dd75f7bac364604f762e0d35fd2aee56a587ae453b03f14e6fcfcc7a71ae3ef3a803e341538b5329410dae0379597b609ce0ad1df6933c05ef193c3a5a60c53e7d9d024bb2e616f34f933c7cf6cba5aebddad77d7f1525fe7b65e2c8cf6c2bf2d39c8b78371df80e943bc152ad697f72e509d3041710e07db521846c99e71c9017be9490c3303a3e95a3718a73fad14a5a76299e83b0f72196c88593b331a6eace989113d9711a6da32892047899ff18482d47236d26ab8de83284c0a4c8959bce594fa630bb6b38d2a18c3b063af61b9086ae6075501e7fb7ff0dce5eac03dfab7b51fbda9f3815fadfb5e35afb35c3657b7c679504aa6dc0d6aef4adfdb3a6df511e3c391fdb9f041047d1588d4745a3d4c1aeb18c197783e2415e740b774bc0a68b3e7487260cd50793a56dfd155d094091e210acaae09ec9a2aa378ef9383b769ff23468d171d0d5a8b233f07b79246d28650afb2b85b5e3bf22357abad63f273cf5cb2e7fbecf640ad1e63dac6c57436c27111f7c14f8d44dfb386e6fa13a8ae0451557d1486fecb8ac71ee1598db05aebe67db44f851f273535839ecc6984b53f7c230cfc1fe549851f0661c3d8c156266a80cfd8244eff2d929f4666e7885ba6efdbfee694ea8ec2416648e866c610f5d299313a6b27854b1c8a3ecc7808f68227a410af0ba1a0022140adb002214b8b162c9b3f02ec63acf2cc27f851436d2e8dfe9833fd2e0386079e92b18492ff8b5294edd85dabc717f7ae3556d0df33cab2d41f24c5b09e3c9ae7bd314a917b949b8d149293aaf29b33bbf6dcbbe62c7cd299870745051d94e31aa69537b01dcccdd8eb94452d4a3e2cfe5a5f92f7caa09aacf200750b9803d95f04c53217de1355b3feeb0a9755ae63876d5480004b53b0320f632f5ca327f1a0cedafd953948341bbc3a85579833f85efae4845f278e5329e587c0f2120e40c621e3aa881c9252ac03f56d54a743c792a5f8a1afb7f85d572e0d387b4bb66b5163e555d97838323196afaed1acd154c41c19ee626d2c256b5c3f409a29b97c7ad00d81a247a6a5b7071ad759441dc2e8842dbc949264fb8306206f4665f164aa71bd10353fcf7858ad999e9e773b1d55aecefdd3d8d64a1534daedf818268948a9bfda5cc1371b3263eae95a0698dac2cb752cab5e1ed9cf6e2468f6cc8d35ab75bcb7f8b3d6caee6314717940bd1b36e7211de17b192a9b95c392630a135e6d222f5ff23395dbbb51949f75afb4fbcc15bd207ebcdd28266e990f42c5fe256c2d0b8168a13e08c06f0f7e3deeaf379d943a1110aebfbb8d0e1ce44b6829f600dd487e6848ba566d07ee386b497693665195e5f44ad947531d9bbd0b41de41d7b4beb34f8efb6cc41374493ff2e0b38f9877391232e5d0e8f663ee440b8edf7101b586b42d130a722e9e021576a9c92b5e18e165b4a74be95da467771f28bd17c957a2c7efd0f8c6d8045dcc81c8b407ecdb037eafe9a334f3637a04ec1eeb92d8be68c5dc01c164b4b03d977edda87a72024d9fe93d1db12fda2257fe4a33c3f0436832454b5ce1da32ebc7814beaf92fa87dd2d1edab9836a713592d3982e09b4210ba99457e17f2f7c5c548b71f109100b9598c7a52788e8e5748853eae6de5b53f4619abe90ff3e61cf9f9c15b0218150977eecb835a54672cc1c66e8c495b0e62f2435ce97eeb22891668a95d27734e937e5f88a883b5cc47c00ae8931512ee860179512609d1fd2d8f35dfd959046a46d1115c1ec7993ec7f865c9b279038cf03f6f0551a903ef2610d0e645358fc28d738925b9f92127e45c3137564aa76d7825e927dd39c6eb9a68b9ddca6218e88b37e47d4d551e501284cda8c4ce14341935a3666e291f8133ac5214f8762f9fcbc78fecf3f0b8c1b1283b56321bbe23bbb39844de34fb5fa25cc0050b829d53507563a9050d471b4efe32726a222505cef9a6669863ea5ee40fb7ebb6a9fd5b583915c315564a2a4d11e741bd3f5840e1075e6cc6f4b42b333877d32c80f19175f1dac5744094b25a099a1d7b4f2a18e1980c9276292928ffc982dba0313e117279c03c48c848392ec7db9ea9f3de61d32ab601561e5d6a8dbafd63c9992791d028b1c37f4f30cb26b0763c3ad389bd614415721d0f332c051168f3a9e3b843fccf07249dc4cdd56dc79a068f790878fb220893105b55a36864e3e526cfc86bad00a7935ad2413e2e291f363537be7881a1e193ad5957938d09be67581a1ad16b6101d27c2ed1e76472b3cfd7a0df28fb4ad864fd61163aac3642e6708bcd172e17366b732084914cdfa9298f60974b033477bf4987b179e6ff3596e9ab2fc5ea67351e23ad7087969851b3c6497dccee28b980b42ec989b180d4090f1ce8a79736f22b45e813b33f315fbc6ce3e111c504ee7fa84c6679ea68b0b766375fe46c725e5db67053b41355180044517dd4d85c56188a9de4e6d407355c68efee63a465d9fb05809c8ed6c9f35200c54415952295f43f2947ae89a816f7b96ceb511a560be6f98641ad4efcb956187669ef9ee16da02a2cfa358c245d37f80cc0ebe127026d0a39739c9967ec69b3d877e812ad4933307ee7846bf28fe60d16236fdab1e7145662d7a5c9b93741e6904077ef3abc183127e4ffa9c0836f33a2a3fe97ea645facb5f487a73520db74ced590ff8cceda350f3f83590c2bcd7d00fe9e5ea8871cc6e7c2da6f654db35ea0e809b2c365f93f25ad02aec296416c154fec58c23c8f3eaaf66cd249a1d5ed53c94a7f17a19e7c3c5862a6d8e579645f09be4aa50717f21ff243f63505221958e190e76722b79d402d75ac7ec1d16fa2b2ff5d3db07068a00f1420323642464e555f6e787da2b4d7e4e7f1f6f7011e1f242c33374349595c85a0b4b6c4d5ff1c5d62686d8b9298a0bad1d3d9e5f1feff2a31495561858c95bac7cde9f4f9fc0000000000000000001527384701fd2105006fa6deb386e6a1beafe910fe5cf61b8a542a605a211e9be484177a494f2df9c9bf97ac169c3b61b67e56e44c2198226147f736ad60f1033dcc631a0175c075408831e2b440935d4f1fb4d446188d33557ff53756ec06c4755d872920e9c3eb00d9a253bfa64b6d0ace7a08ae05dce4b6d29be8f49e3b3ecbe8e98675b5f0108c8b96c88ffc2f03ad987dd7a1e9c28d57f70efb101ab9530d85e899c333d0ed1819bee03163ab105c525dc4072c335f1754dafa723eefb940158c9c690450039cb2997377901a7293ca2db0dbe0bf528888ba02f7dac6aa32eccd6ab8ae38c68f3cbb91a0b40924415b3d607dfd682456ed2725e8f38a27357aef49be36455fe5afcf349da6d8524759d5cb81d736ecc16958bbd95cf9bc5c5560839ffdbd30e1e3b84b1eab11ba1f9ee5857b46a5b48e22ea69c17b88c4d8c11fc4ce861bba0dd32ba634fa7f38446de4fa20f076cd9278456dc9fb0bdc69b19884df565ba91d71f0c5716a8c6263185f2351184060fd2eb2576a714745988661e4a13a2ca844eaba9f7b4b660f7406baf67259a24cd57d8fb643a570a523beef10b57ef7acc053310b2fc24d52cb9b0cd3339aa3c60e5de905525fe42f44257cc6ed3a0c6a6d75f1a51a37a05c3916c7f3cbd8ea42af9fa5474be522ee91fc8177acf43e42b4fbdacc201d3862c7bb639720ede0578b8396233d743547ed93657daccb88b73374d8b56a6fd6a8ba302f3aee24b3333d3c7467437e6d1b433ffbf7cc4c3e139249fe3cd8430f31b05a18eae328238e0ca5f98d450c45c720e731f8fe02074f520a16cd785d221f48eb436b6925832c08df4273fc2141a8ff3f1708ce49e5a93127e6001120a01f9438d53f5ab69f255b76aa222a50b0ba2076b1c757543ab11e94f8cb5c6622639f1ae67131594bd6e4a2f812f774fb802918d357ef6d145516a6f53f43fbdc65bef44a86d881c1035fa91f6bd5d8139f2ce9bbc52f2f3c4f544fcfd09ce4ef4036c006a87dd02c506ab02d4cb5005721be1a7431489c85d7385cf01acb803504aa02ceff53350aa726b00c11366c79234c082e77059e934151e6947c85af2f4f8e59c0e7a8dc63040580b8e84e6dc841b329491dc4e7433b1f8c63165de0a83dbd98745c268f38f28693b7e661ca1047970e5cf21396d3421ec310574dab3fc95a1ce4be6469476331d0cdea157c08d1bc7d615096b2a35a513ce54f19b09eff8ead9d2a3b698b8255dd58beff19117c4c33f2ffa46f29de3e1b6d63ce14afb49eb6f37e0d5b8676d67b97130f997fdfd285e5f635093fa895f1f73d503678c77137b1f0101ff1451b5bce910f402bc7af35cb30cdcdb1fa8d89cb4fe60ef9ee4c5e8cc2cc7f15b7dd1ccb5dcacdfc014281a4e6665fc0d3abdcb083062a9030327d529ab8f64f2d49efacbb2502b00e64b2fd037b39e11d47382cdaadbc6bb4577d30fc8a232412c9ebbd7c3b3983646d90036a52c6dc5c01c9e15c03f396111dec75380dac0f6ab1e9505e831a85cb3a6b6c82efc6c34dcf5e194d09ba2de83279d91082c96196cf024581518efa689eb66587412941ce0075a480199df8ae57218b03102861702e8b7373025eecd9713587179d6c43b4b3faad71b03c01b257cea6998e43426c1accd50aa1b199dac29a9b4b637f41fdb3bf8c055dc021a17204cbf2e162424e21022049f032f258870cbd8b6aff105aa82856bf9ac80054815924ecd16ab58cb9421de7bd3b3539489c5f5b88181d1458839d56dd6aef7b2cbd6e309325dc009e6bb0c35771a4c0bdb23e8c1961425d7d4444284cb6d54e4cf0d68da51fdf1251392104cb1f810e26e5dddd59a0d8e0267a000000",
  "txid": "da6c24b5148e64c6e1a80dfbead3000df9a8dcc478be72183791ba1822d946ca",
  "hash": "1106681e0c489d9d4419ddc13e7709bafd577fdde5ceeccb8aaeb7153714ae05",
  "size": 5085,
  "vsize": 2278,
  "version": 1,
  "locktime": 122,
  "vin": [
    {
      "txid": "9d48491400f0804d7188339cf6e287e6da6e83bacd6d01cbd0d93ae5abdb7517",
      "vout": 1,
      "scriptSig": {
        "asm": "",
        "hex": ""
      },
      "txinwitness": [
        "f9ed338adbe2434f5c6e75af996d71d11088b14880e257e45c54901ae6998e36d6fff4d8e893806c0cbf6732922bafbe5659f1aba57ded25a7d7d5c97553b2e8b9bb3c21d2a2e4d8b2eb22f930b4938a726c8887ecc9f934a9a5a8dc50d65ed11bd97ffddde2c55dcf33be9686a0938439f1dd2fead3acd71ed67e022b953619ab4fef150a643e48912785f794b1dc54fcda957ec7b0a4bf3e3da4d5bd2ee9b3c96d752cd4e66b911fb7715fa17cb67ebc0124f488eae1bacf940380e962708da21ac65548cf40532cecff4c5c30708d3558a3378c5cf9190b6be751fa57228a73b5c09128397e29fb35a268e0a5a06c494578827b762ffcc852e587eda74057358d78011e91438f757872758f628b9c2f45b97f61f232afd14fd7ed0240836ad28a627f5282e43e3134dc73162a88522e93b325db36dc21e66b1dd75f7bac364604f762e0d35fd2aee56a587ae453b03f14e6fcfcc7a71ae3ef3a803e341538b5329410dae0379597b609ce0ad1df6933c05ef193c3a5a60c53e7d9d024bb2e616f34f933c7cf6cba5aebddad77d7f1525fe7b65e2c8cf6c2bf2d39c8b78371df80e943bc152ad697f72e509d3041710e07db521846c99e71c9017be9490c3303a3e95a3718a73fad14a5a76299e83b0f72196c88593b331a6eace989113d9711a6da32892047899ff18482d47236d26ab8de83284c0a4c8959bce594fa630bb6b38d2a18c3b063af61b9086ae6075501e7fb7ff0dce5eac03dfab7b51fbda9f3815fadfb5e35afb35c3657b7c679504aa6dc0d6aef4adfdb3a6df511e3c391fdb9f041047d1588d4745a3d4c1aeb18c197783e2415e740b774bc0a68b3e7487260cd50793a56dfd155d094091e210acaae09ec9a2aa378ef9383b769ff23468d171d0d5a8b233f07b79246d28650afb2b85b5e3bf22357abad63f273cf5cb2e7fbecf640ad1e63dac6c57436c27111f7c14f8d44dfb386e6fa13a8ae0451557d1486fecb8ac71ee1598db05aebe67db44f851f273535839ecc6984b53f7c230cfc1fe549851f0661c3d8c156266a80cfd8244eff2d929f4666e7885ba6efdbfee694ea8ec2416648e866c610f5d299313a6b27854b1c8a3ecc7808f68227a410af0ba1a0022140adb002214b8b162c9b3f02ec63acf2cc27f851436d2e8dfe9833fd2e0386079e92b18492ff8b5294edd85dabc717f7ae3556d0df33cab2d41f24c5b09e3c9ae7bd314a917b949b8d149293aaf29b33bbf6dcbbe62c7cd299870745051d94e31aa69537b01dcccdd8eb94452d4a3e2cfe5a5f92f7caa09aacf200750b9803d95f04c53217de1355b3feeb0a9755ae63876d5480004b53b0320f632f5ca327f1a0cedafd953948341bbc3a85579833f85efae4845f278e5329e587c0f2120e40c621e3aa881c9252ac03f56d54a743c792a5f8a1afb7f85d572e0d387b4bb66b5163e555d97838323196afaed1acd154c41c19ee626d2c256b5c3f409a29b97c7ad00d81a247a6a5b7071ad759441dc2e8842dbc949264fb8306206f4665f164aa71bd10353fcf7858ad999e9e773b1d55aecefdd3d8d64a1534daedf818268948a9bfda5cc1371b3263eae95a0698dac2cb752cab5e1ed9cf6e2468f6cc8d35ab75bcb7f8b3d6caee6314717940bd1b36e7211de17b192a9b95c392630a135e6d222f5ff23395dbbb51949f75afb4fbcc15bd207ebcdd28266e990f42c5fe256c2d0b8168a13e08c06f0f7e3deeaf379d943a1110aebfbb8d0e1ce44b6829f600dd487e6848ba566d07ee386b497693665195e5f44ad947531d9bbd0b41de41d7b4beb34f8efb6cc41374493ff2e0b38f9877391232e5d0e8f663ee440b8edf7101b586b42d130a722e9e021576a9c92b5e18e165b4a74be95da467771f28bd17c957a2c7efd0f8c6d8045dcc81c8b407ecdb037eafe9a334f3637a04ec1eeb92d8be68c5dc01c164b4b03d977edda87a72024d9fe93d1db12fda2257fe4a33c3f0436832454b5ce1da32ebc7814beaf92fa87dd2d1edab9836a713592d3982e09b4210ba99457e17f2f7c5c548b71f109100b9598c7a52788e8e5748853eae6de5b53f4619abe90ff3e61cf9f9c15b0218150977eecb835a54672cc1c66e8c495b0e62f2435ce97eeb22891668a95d27734e937e5f88a883b5cc47c00ae8931512ee860179512609d1fd2d8f35dfd959046a46d1115c1ec7993ec7f865c9b279038cf03f6f0551a903ef2610d0e645358fc28d738925b9f92127e45c3137564aa76d7825e927dd39c6eb9a68b9ddca6218e88b37e47d4d551e501284cda8c4ce14341935a3666e291f8133ac5214f8762f9fcbc78fecf3f0b8c1b1283b56321bbe23bbb39844de34fb5fa25cc0050b829d53507563a9050d471b4efe32726a222505cef9a6669863ea5ee40fb7ebb6a9fd5b583915c315564a2a4d11e741bd3f5840e1075e6cc6f4b42b333877d32c80f19175f1dac5744094b25a099a1d7b4f2a18e1980c9276292928ffc982dba0313e117279c03c48c848392ec7db9ea9f3de61d32ab601561e5d6a8dbafd63c9992791d028b1c37f4f30cb26b0763c3ad389bd614415721d0f332c051168f3a9e3b843fccf07249dc4cdd56dc79a068f790878fb220893105b55a36864e3e526cfc86bad00a7935ad2413e2e291f363537be7881a1e193ad5957938d09be67581a1ad16b6101d27c2ed1e76472b3cfd7a0df28fb4ad864fd61163aac3642e6708bcd172e17366b732084914cdfa9298f60974b033477bf4987b179e6ff3596e9ab2fc5ea67351e23ad7087969851b3c6497dccee28b980b42ec989b180d4090f1ce8a79736f22b45e813b33f315fbc6ce3e111c504ee7fa84c6679ea68b0b766375fe46c725e5db67053b41355180044517dd4d85c56188a9de4e6d407355c68efee63a465d9fb05809c8ed6c9f35200c54415952295f43f2947ae89a816f7b96ceb511a560be6f98641ad4efcb956187669ef9ee16da02a2cfa358c245d37f80cc0ebe127026d0a39739c9967ec69b3d877e812ad4933307ee7846bf28fe60d16236fdab1e7145662d7a5c9b93741e6904077ef3abc183127e4ffa9c0836f33a2a3fe97ea645facb5f487a73520db74ced590ff8cceda350f3f83590c2bcd7d00fe9e5ea8871cc6e7c2da6f654db35ea0e809b2c365f93f25ad02aec296416c154fec58c23c8f3eaaf66cd249a1d5ed53c94a7f17a19e7c3c5862a6d8e579645f09be4aa50717f21ff243f63505221958e190e76722b79d402d75ac7ec1d16fa2b2ff5d3db07068a00f1420323642464e555f6e787da2b4d7e4e7f1f6f7011e1f242c33374349595c85a0b4b6c4d5ff1c5d62686d8b9298a0bad1d3d9e5f1feff2a31495561858c95bac7cde9f4f9fc0000000000000000001527384701",
        "006fa6deb386e6a1beafe910fe5cf61b8a542a605a211e9be484177a494f2df9c9bf97ac169c3b61b67e56e44c2198226147f736ad60f1033dcc631a0175c075408831e2b440935d4f1fb4d446188d33557ff53756ec06c4755d872920e9c3eb00d9a253bfa64b6d0ace7a08ae05dce4b6d29be8f49e3b3ecbe8e98675b5f0108c8b96c88ffc2f03ad987dd7a1e9c28d57f70efb101ab9530d85e899c333d0ed1819bee03163ab105c525dc4072c335f1754dafa723eefb940158c9c690450039cb2997377901a7293ca2db0dbe0bf528888ba02f7dac6aa32eccd6ab8ae38c68f3cbb91a0b40924415b3d607dfd682456ed2725e8f38a27357aef49be36455fe5afcf349da6d8524759d5cb81d736ecc16958bbd95cf9bc5c5560839ffdbd30e1e3b84b1eab11ba1f9ee5857b46a5b48e22ea69c17b88c4d8c11fc4ce861bba0dd32ba634fa7f38446de4fa20f076cd9278456dc9fb0bdc69b19884df565ba91d71f0c5716a8c6263185f2351184060fd2eb2576a714745988661e4a13a2ca844eaba9f7b4b660f7406baf67259a24cd57d8fb643a570a523beef10b57ef7acc053310b2fc24d52cb9b0cd3339aa3c60e5de905525fe42f44257cc6ed3a0c6a6d75f1a51a37a05c3916c7f3cbd8ea42af9fa5474be522ee91fc8177acf43e42b4fbdacc201d3862c7bb639720ede0578b8396233d743547ed93657daccb88b73374d8b56a6fd6a8ba302f3aee24b3333d3c7467437e6d1b433ffbf7cc4c3e139249fe3cd8430f31b05a18eae328238e0ca5f98d450c45c720e731f8fe02074f520a16cd785d221f48eb436b6925832c08df4273fc2141a8ff3f1708ce49e5a93127e6001120a01f9438d53f5ab69f255b76aa222a50b0ba2076b1c757543ab11e94f8cb5c6622639f1ae67131594bd6e4a2f812f774fb802918d357ef6d145516a6f53f43fbdc65bef44a86d881c1035fa91f6bd5d8139f2ce9bbc52f2f3c4f544fcfd09ce4ef4036c006a87dd02c506ab02d4cb5005721be1a7431489c85d7385cf01acb803504aa02ceff53350aa726b00c11366c79234c082e77059e934151e6947c85af2f4f8e59c0e7a8dc63040580b8e84e6dc841b329491dc4e7433b1f8c63165de0a83dbd98745c268f38f28693b7e661ca1047970e5cf21396d3421ec310574dab3fc95a1ce4be6469476331d0cdea157c08d1bc7d615096b2a35a513ce54f19b09eff8ead9d2a3b698b8255dd58beff19117c4c33f2ffa46f29de3e1b6d63ce14afb49eb6f37e0d5b8676d67b97130f997fdfd285e5f635093fa895f1f73d503678c77137b1f0101ff1451b5bce910f402bc7af35cb30cdcdb1fa8d89cb4fe60ef9ee4c5e8cc2cc7f15b7dd1ccb5dcacdfc014281a4e6665fc0d3abdcb083062a9030327d529ab8f64f2d49efacbb2502b00e64b2fd037b39e11d47382cdaadbc6bb4577d30fc8a232412c9ebbd7c3b3983646d90036a52c6dc5c01c9e15c03f396111dec75380dac0f6ab1e9505e831a85cb3a6b6c82efc6c34dcf5e194d09ba2de83279d91082c96196cf024581518efa689eb66587412941ce0075a480199df8ae57218b03102861702e8b7373025eecd9713587179d6c43b4b3faad71b03c01b257cea6998e43426c1accd50aa1b199dac29a9b4b637f41fdb3bf8c055dc021a17204cbf2e162424e21022049f032f258870cbd8b6aff105aa82856bf9ac80054815924ecd16ab58cb9421de7bd3b3539489c5f5b88181d1458839d56dd6aef7b2cbd6e309325dc009e6bb0c35771a4c0bdb23e8c1961425d7d4444284cb6d54e4cf0d68da51fdf1251392104cb1f810e26e5dddd59a0d8e026"
      ],
      "sequence": 4294967294
    }
  ],
  "vout": [
    {
      "value": 499975.5944,
      "n": 0,
      "scriptPubKey": {
        "asm": "1 66a2a4151e637db1b1a07cf8d894000fe7267e71b258cce592682e57bf30dd71",
        "hex": "512066a2a4151e637db1b1a07cf8d894000fe7267e71b258cce592682e57bf30dd71",
        "reqSigs": 1,
        "type": "witness_v1_scripthash",
        "addresses": [
          "3QJmnh"
        ]
      }
    },
    {
      "value": 1.0,
      "n": 1,
      "scriptPubKey": {
        "asm": "OP_RETURN 02d2b5885031d280252c3f36fff959069a5640370fc5583bf0bb64fad5ed55a3 760452b311f8d889bd7954b0d8f875c6a1092ea2de49971bc9af0a266c474f015624729331d8f8a99d597490f8d855e681290e82fe69b73be98f2a064c676f21364412f351b898c9fd3914f098b83586e1496ee29e09d75b89ef4a662c070f41166432d37198b8e9dd1934d0b89815a6c1694ec2be29f77ba9cf6a460c272f61f684d233917858093df9d4305878f5462189ae225ec9179b492f8aa6ecc7cf81d6a4f213b15878291dd9f4107858d56601a98e027ee937bb690faa86cce7efa1b6c49273d13818497db994701838b50661c9ee621e8957db096fcae6ac878fc196e4b253f11838695d99b4503818952641e9ce423ea977fb294feac68ca7afe1760452b311f8d889bd7954b0d8f875c6a1092ea2de49971bc9af0a266c474f015624729331d8f8a99d597490f8d855e681290e82fe69b73be98f2a064c676f21364412f351b898c9fd3914f098b83586e1496ee29e09d75b89ef4a662c070f41166432d37198b8e9dd1934d0b89815a6c1694ec2be29f77ba9cf6a460c272f61f684d233917858093df9d4305878f5462189ae225ec9179b492f8aa6ecc7cf81d6a4f213b15878291dd9f4107858d56601a98e027ee937bb690faa86cce7efa1b6c49273d13818497db994701838b50661c9ee621e8957db096fcae6ac878fc196e4b253f11838695d99b4503818952641e9ce423ea977fb294feac68ca7afe1760452b311f8d889bd7954b0d8f875c6a1092ea2de49971bc9af0a266c474f015624729331d8f8a99d597490f8d855e681290e82fe69b73be98f2a064c676f21364412f351b898c9fd3914f098b83586e1496ee29e09d75b89ef4a662c070f41166432d37198b8e9dd1934d0b89815a6c1694ec2be29f77ba9cf6a460c272f61f684d233917858093df9d4305878f5462189ae225ec9179b492f8aa6ecc7cf81d6a4f213b15878291dd9f4107858d56601a98e027ee937bb690faa86cce7efa1b6c49273d13818497db994701838b50661c9ee621e8957db096fcae6ac878fc196e4b253f11838695d99b4503818952641e9ce423ea977fb294feac68ca7afe1760452b311f8d889bd7954b0d8f875c6a1092ea2de49971bc9af0a266c474f015624729331d8f8a99d597490f8d855e681290e82fe69b73be98f2a064c676f21364412f351b898c9fd3914f098b83586e1496ee29e09d75b89ef4a662c070f41166432d37198b8e9dd1934d0b89815a6c1694ec2be29f77ba9cf6a460c272f61f684d233917858093df9d4305878f5462189ae225ec9179b492f8aa6ecc7cf81d6a4f213b15878291dd9f4107858d56601a98e027ee937bb690faa86cce7efa1b6c49273d13818497db994701838b50661c9ee621e8957db096fcae6ac878fc196e4b253f11838695d99b4503818952641e9ce423ea977fb294feac68ca7afe1760452b311f8d889bd7954b0d8f875c6a1092ea2de49971bc9af0a266c474f015624729331d8f8a99d597490f8d855e681290e82fe69b73be98f2a064c676f21364412f351b898c9fd3914f098b83586e1496ee29e09d75b89ef4a662c070f41166432d37198b8e9dd1934d0b89815a6c1694ec2be29f77ba9cf6a460c272f61f684d233917858093df9d4305878f546ec1a2e3537b814802fe775e6628192dfcc839dd0af4c22e109f09983213819ea",
        "hex": "6a2002d2b5885031d280252c3f36fff959069a5640370fc5583bf0bb64fad5ed55a34db004760452b311f8d889bd7954b0d8f875c6a1092ea2de49971bc9af0a266c474f015624729331d8f8a99d597490f8d855e681290e82fe69b73be98f2a064c676f21364412f351b898c9fd3914f098b83586e1496ee29e09d75b89ef4a662c070f41166432d37198b8e9dd1934d0b89815a6c1694ec2be29f77ba9cf6a460c272f61f684d233917858093df9d4305878f5462189ae225ec9179b492f8aa6ecc7cf81d6a4f213b15878291dd9f4107858d56601a98e027ee937bb690faa86cce7efa1b6c49273d13818497db994701838b50661c9ee621e8957db096fcae6ac878fc196e4b253f11838695d99b4503818952641e9ce423ea977fb294feac68ca7afe1760452b311f8d889bd7954b0d8f875c6a1092ea2de49971bc9af0a266c474f015624729331d8f8a99d597490f8d855e681290e82fe69b73be98f2a064c676f21364412f351b898c9fd3914f098b83586e1496ee29e09d75b89ef4a662c070f41166432d37198b8e9dd1934d0b89815a6c1694ec2be29f77ba9cf6a460c272f61f684d233917858093df9d4305878f5462189ae225ec9179b492f8aa6ecc7cf81d6a4f213b15878291dd9f4107858d56601a98e027ee937bb690faa86cce7efa1b6c49273d13818497db994701838b50661c9ee621e8957db096fcae6ac878fc196e4b253f11838695d99b4503818952641e9ce423ea977fb294feac68ca7afe1760452b311f8d889bd7954b0d8f875c6a1092ea2de49971bc9af0a266c474f015624729331d8f8a99d597490f8d855e681290e82fe69b73be98f2a064c676f21364412f351b898c9fd3914f098b83586e1496ee29e09d75b89ef4a662c070f41166432d37198b8e9dd1934d0b89815a6c1694ec2be29f77ba9cf6a460c272f61f684d233917858093df9d4305878f5462189ae225ec9179b492f8aa6ecc7cf81d6a4f213b15878291dd9f4107858d56601a98e027ee937bb690faa86cce7efa1b6c49273d13818497db994701838b50661c9ee621e8957db096fcae6ac878fc196e4b253f11838695d99b4503818952641e9ce423ea977fb294feac68ca7afe1760452b311f8d889bd7954b0d8f875c6a1092ea2de49971bc9af0a266c474f015624729331d8f8a99d597490f8d855e681290e82fe69b73be98f2a064c676f21364412f351b898c9fd3914f098b83586e1496ee29e09d75b89ef4a662c070f41166432d37198b8e9dd1934d0b89815a6c1694ec2be29f77ba9cf6a460c272f61f684d233917858093df9d4305878f5462189ae225ec9179b492f8aa6ecc7cf81d6a4f213b15878291dd9f4107858d56601a98e027ee937bb690faa86cce7efa1b6c49273d13818497db994701838b50661c9ee621e8957db096fcae6ac878fc196e4b253f11838695d99b4503818952641e9ce423ea977fb294feac68ca7afe1760452b311f8d889bd7954b0d8f875c6a1092ea2de49971bc9af0a266c474f015624729331d8f8a99d597490f8d855e681290e82fe69b73be98f2a064c676f21364412f351b898c9fd3914f098b83586e1496ee29e09d75b89ef4a662c070f41166432d37198b8e9dd1934d0b89815a6c1694ec2be29f77ba9cf6a460c272f61f684d233917858093df9d4305878f546ec1a2e3537b814802fe775e6628192dfcc839dd0af4c22e109f09983213819ea",
        "type": "nulldata"
      }
    }
  ],
  "blockhash": "ccdcfedcff6ade259e7f17160cbcd6ff75249aea4f0a85a59e1a4fb3f710df5f",
  "confirmations": 1,
  "time": 1764180435,
  "blocktime": 1764180435
}