{
  "hex": "01000000000101454cee639860231659dda92cef84455777c6da246ecc59095a1484bb2e90786c0000000000feffffff026076a04b792d000022512087b863032ab0fc0df49b9d40b049dc6c2dd6feeafefa02b70d62197dc783727a00e1f50500000000fdd5046a2016c44f63ccde73eb45ac680a6f2c56711b310b440035c39ad782641da756cd914db0042aa72c285a509c3039323650162646f9ee13eaa125cc30a476542da2b9cfe3900a870c087a70bc1019121670360666d9ce33ca8105ec108456740d8299efc3b06ae76c681a10dc7079727610566606b9ae53aae1658c70e436146de2f98fa3d04ac74c483a30fc5059525630764626998e738ac145ac50c416344dc2d9af83f0aa27aca8dad01cb0b9b2b6d096a6c6796e936a21a54cb024f6d4ad22394f63108a078c88faf03c90999296f0b686e6594eb34a01856c9004d6f48d02196f4330ea67ece89a905cf0f9f2f690d6e686392ed32a61e50cf064b694ed62790f2350ca47ccc8bab07cd0d9d2d6b0f6c6a6190ef30a41c52cd04496b4cd42592f03702aa72c285a509c3039323650162646f9ee13eaa125cc30a476542da2b9cfe3900a870c087a70bc1019121670360666d9ce33ca8105ec108456740d8299efc3b06ae76c681a10dc7079727610566606b9ae53aae1658c70e436146de2f98fa3d04ac74c483a30fc5059525630764626998e738ac145ac50c416344dc2d9af83f0aa27aca8dad01cb0b9b2b6d096a6c6796e936a21a54cb024f6d4ad22394f63108a078c88faf03c90999296f0b686e6594eb34a01856c9004d6f48d02196f4330ea67ece89a905cf0f9f2f690d6e686392ed32a61e50cf064b694ed62790f2350ca47ccc8bab07cd0d9d2d6b0f6c6a6190ef30a41c52cd04496b4cd42592f03702aa72c285a509c3039323650162646f9ee13eaa125cc30a476542da2b9cfe3900a870c087a70bc1019121670360666d9ce33ca8105ec108456740d8299efc3b06ae76c681a10dc7079727610566606b9ae53aae1658c70e436146de2f98fa3d04ac74c483a30fc5059525630764626998e738ac145ac50c416344dc2d9af83f0aa27aca8dad01cb0b9b2b6d096a6c6796e936a21a54cb024f6d4ad22394f63108a078c88faf03c90999296f0b686e6594eb34a01856c9004d6f48d02196f4330ea67ece89a905cf0f9f2f690d6e686392ed32a61e50cf064b694ed62790f2350ca47ccc8bab07cd0d9d2d6b0f6c6a6190ef30a41c52cd04496b4cd42592f03702aa72c285a509c3039323650162646f9ee13eaa125cc30a476542da2b9cfe3900a870c087a70bc1019121670360666d9ce33ca8105ec108456740d8299efc3b06ae76c681a10dc7079727610566606b9ae53aae1658c70e436146de2f98fa3d04ac74c483a30fc5059525630764626998e738ac145ac50c416344dc2d9af83f0aa27aca8dad01cb0b9b2b6d096a6c6796e936a21a54cb024f6d4ad22394f63108a078c88faf03c90999296f0b686e6594eb34a01856c9004d6f48d02196f4330ea67ece89a905cf0f9f2f690d6e686392ed32a61e50cf064b694ed62790f2350ca47ccc8bab07cd0d9d2d6b0f6c6a6190ef30a41c52cd04496b4cd42592f03702aa72c285a509c3039323650162646f9ee13eaa125cc30a476542da2b9cfe3900a870c087a70bc1019121670360666d9ce33ca8105ec108456740d8299efc3b06ae76c681a10dc7079727610566606b9ae53aae1658c70e436146de2f98fa3d04ac74c483a30fc5059525630764626998e738ac145ac50c416344dc2d9af83f0aa27aca8dad01cb0b9b2b6d096a6c6797195c3c04ece351b5d1d56ee1d1437f745251a828bcadb62442430425e544bd202fd750919bb8737c8cd9d3920cd868f401b6ab3dbfcffe898b5276ae9f2570804a528072815293c571c9bbf8f7045c6ce8e14a326a4e6dae5505428148d8c528b514d48cb6db84c3f4f414f1eb44475ad646aeff82852abb0290ba3085a73c188b29c6c4164b026c2644437faa85baba4c944bd22948479d409da54183ed23006bb5662593d359bc85b9dc0c1dc0d93f94e0db30f6146c57f92c6177a4d194e6579b59d6a808ee0996c58fb3afeca8ac81c43c3c8f3ea4a774423f1a93aea88a4c4b38788b45d7fa308e4083baf1a9e601acb9ce4ddf87353996442ef794cfe247d93331380c3fbb5f6c95566c243462950eb46c69ced2a8577c593f0fd226f25559f4b9f5fd3a30346e2ded68da672900cbd0b3ff5a92a22b16a0240931c95237c42ce2ff201e45638590da4f7a0a10731210c18c8df82525f15ebf4477b5222ee3e18377225ca8fd32db2e5d0184c46b4cd4dce713e4308e02ad337ca2e199b14013105bedbdcace6eab40db231d4c47c0decf26c9aee7ae8b44ca6d91a391dfa1a6187e69358e00f33da838b95f77fa6cdfd70c06a6bfbba1a138e86ff1d5ae34980ebf0534891672d7ebee7dd6cda31a423ef99af660da4f8f126c1f595914979b4cd9f1c097163788373aa2f1b356cf8009e9654d70711ab45f0e1e36d44a18a06fff555bb14621d93a2e0ef39b0176333f60079c9954c7fd885ab735ac303a808d3205aeb9dffd65f092b3f067e34e713aa57b8bf91180b44759b85bd1febee2235afc878b910c1ae3c521861af67b322caaec7e1b9b52d172c71c8cb3974819af111342b932950dc8aa76d41608ad27d142a3e611d1cde09aa3e273d330244855bdc0c1a9ce99385b74a09b83f2591e750eea9117964cd0af70d90159ef5095f8ece8935ab96c9b931fcd9e5dd1172351fa9198a0e97fd20050be74db6e4fdf99927377805b1a0e7be96d59478731fff71d936944481627ee43bf76d8ad2d9ae689eb9bcd9a490914d67b8c76286f634079869dbeaa054328da4860d0cfb65b102ff5cc8b282ebfd9bab2b008c1d2c02282557b2a1511a0052179437bfbc17eca3940efa350da1d3646a7a61491873ea02763461aa404b6fc95eb16939b11791eb37cf1e74d522c49c673591ad592dce1427800235162a8ebf4dff8490db94e13ab8de21b70460f3949aad2077e7874632c753158630d7b9d79be3d266d55a7840cfaec98ad298f8377cf11a43e19c22e481d94c7b418625875e5aab6cf4d371afd4c4a6ec307630338e62cfe32ccc2d73cad64307f0ecf1b9d9ff3e1a5fc49465e6674f7459d23c4b75257359bc7fb052080c01f70c6047ea49b12197d076edc5721fe00e89a32920d88a752f67e37544cc3b3dcd28fb7ebfda670d02c24d41db7e9e80b0fdaff587d4c2a11b6cbc9e986e12f6551cdfd5c6369472d7c604580f04a5e0e5f0347318a6d52ed78eafd3fa706ff71cc824e31119f43aca97e9a87ad14a79d92ac54c456cd6d340473d468f523d7b1633c198e33f940cb3bd501f4d78a502dad8137b90d564041253a50d528715b990b01d1597b07080c1f193f96e6b65eb99eb25e47440cc64290d4cfddd43aab702a5ad5663287604a752b3335edc200a96ac08d07586f86f10a11d8480d3e24c5ad28d6e400c69e51fad1d93a1021c81fda865465030eeb829c06cc4394702ffa426d59fd31387067d37df0ab54a046453b1fb16c2332de44022d1dac6586fed6c51f8d86b3f81a8c3709e6c47e18b1aa61cbf66fddad44f6e10941f4a46b7fcfc5eb15afb87cdc42c7c5fea2e247dfff8aba664921902add5bbac6b685d2c843f7a114150f87cb0ed4024289af10c33d430226cbf6abe30bea6889e96ee0957b31117527db7006eacde5523517af1de713390efb7af060bf7622137200193e44e3f61b3e585a7076a8d0a506c82b3ac2fb83473ea534632a58f21e3891121467c40851994527bdce0afbfa46daa8e57ac7471e358d52fd0a28b77f6b5c207c83ae3c06c970f10b0292f8324fc8e02b02c85945539de4038aa1af240d1910279013b8b0ccdfe859d4f36e88620ec2845006565737aab5f52b7947457b58c9dd38371c7e64db9965d5c8f8e0126af17c1a05b0b2fe929f0a27a49ad23bbef161eeffe85e729916380950a138d418851491372080880130738af3de4097169361041fb6328b5625d370d47ccc17d9a4cbe709749aeb0ba71c51adf5f7a8cd2f3c06657169269157837aa1d3c1d98766f3ffe15857b1e0fd44dc0251ac81d760d8553948ef760e73ef3936616c04bec5b49c61c903650a835c8ceee9544c7859d147c127cc6d7233b32434a6a5ab662caf1269f64b98cfbee8fc739bb9d07a9e2ae9098e5f9db0ccf66c2635afff932d7acc24895ad5b245154e5b94d5d7d43afb459001d58efd46f8e54aa7ad5f8d27a402a18fdc00692c44799dad47fa33326d1b750beccd523999507c2f1c201ab24e1fefd75786e994fdc2ebf90a9ae065bc9e08f82808c50da20344a01434a8e59c86e4b17acb8a95b6ead96d6defa25ab2c90e370077aff4e7f09ef334c13f21900d86c0fd647cd392ae7cda00f5e9b85ab3cdfb8b39011abcab6d26939e889e47f894ad68cbec39076eba5b2f4de52761e6039326d468e1f24c8d19a42fb362b77b4fe3abd849f8e9b5d01902f6ef8532cee7c05d0e20b040a27515980ab34e8919f597e2aa649d091d93ef9c46440079687b790935758e785860deec266df1346231f3215c4cb783a948d103a432a12b0ddd37a9da11665570325ec696c4a27b7248965bc8c5500d503be9164df9a6331a605549a63c8cf107b4817592c1be1d59cb32fc6e034b8d88bdb92481d1ecf6d6d7c7a33366e712f968f8edf445c87799cd2d83876bf84b7101ddd26eb090e148669bfce50bae6bc64985cbfb5fdfddd06e649ef8cb9d2c62c50de3a226eb60eb586eaf8745c8f261eb945b59f7908ffbe1ad8e9a47d2c05226949f56c6f518691dd9d0f4f0d20bb2c8b0bc9483874e7a7d1fb420f564d177053ecf06e135a8784dc7cfe80c594d642a6262d0eb95e4a86806b03c9d0679a8883f8ac6641c7373c1d0e16f5a6b37d668702ab056dcaeee7ba6ddc89586ce2f74b3bd2deb35c28234077250f313aba10ea601644c4930cee9573f34740253e940dc84a9da494cbd47f055e0af206d6621a178bea72dc211bcdf250a048e27230ce779dd2d591b98dfb1bf4f60018b3fe20625323afb4db990366c16e855adfc264db29c5e49ad5fe80503c65085d56f9539f620f121423465a8197d4dce801111b1c305768758288a6bad5d7dbeef9fe2153555b5d8687969da8afb4d2fa000d1a272a4292cadbddedf4000000000000000000000000000000000000000000000000000b1d2b3701fd21050070a540b8345308b67490238a44b45584ec4b3b3d8d074aa020a7936926bc8783321f46e906064e1c7c58d7b8b702fcfba6d4804aa60276b770c753c92110f926a36de158867a9a07635f92ea5fe54c8a651e0b16355372a7e6a1fd3786e87d9f73f6ea2f952f941fc127e6a1f3318ca365a183e89448319f44e794168c6824a773095d32a0a4bfaf88d08be5b10e6428007c400872623388af93b88ee7b736ea2dfea65a0ec83cd0cf58ff5525328824f53eb8984f8cc20755a9584f82f8212df85650a61f83537548c943608cb83e6160946e01aef88dd6721105d314e7d87c2033f9217a68045686d32e210bcdb28227d2d21581a61c89db4bc3e18c1c8062acbac1733b300db9023cc827225bdb0e344b536d7d13d8f3c81f5c60c4bd1e6064a41275c5a23741c0b651a7234d84013b1d7c85eb5a741b70d78dc10d98099ea2fe8b6ed96550d57c57f1f48ea1bf06c96d080ffd625d508829e23c6ccca98afbaacd810254343619b7c24ae67471205c727061dbc0d258df830eb0d903ed2ba5ee50510bdef881d084927bd7090b1c61bf0433d77b9621a7daaaf5ffe5c71408f3f5949d50326991d22089d769609bfbc5299591be6437f10dae45979fd75c25aa7d5bdc54f8db36776712acf0bf4c4aa3e6abf026e697183cad433d06707ecd93287b34630cbf524274021c52856c7d1489827269085d57d894ffbd45d1255c8992c161e1aa9de9bf10195cdffc3416d2942be973cc677f9f8e129eaeb2bf862af750194cb32cd293d9a8931e7bc987e912850a55d919c1777f9394f910591bcea71a6fb69cdfb04fcd84d81ccaf04a050edb15a03e319e91ddec1ade80c9a1034f6b3e282942e46bc011c5d0920884cf6de5571addfaa991ce43726e1190eff7200c3dab4974a45864b6b24b4c865a5146769ebd42d0498cf41a7b56c9facb6493202ff87f0ecd77e54d8f7bffc6a5f0b2bd3b02d81d3b16c71c322f6ebb8a5044134c6c8b5fd136984b1d5d50221336c2e4e8b7daf7a855190730182b0bd111fde2090d9a70a3ffa13999ff59732b22d70772dd754761ab7e82368e71e9e4ef5ac7b78975fe03476f15303405be2106c0435e9e9e64fd99791663d12ba480793ece9bded0f6971acf7c41ff36f0143ac1d195c4659bf7ea2ca12261fdd6b9d681b0748df55c9009fb023361d8ba41e70c9da74a1fd0c9a419a39853fed6ccf73dba426adff858e1de6c1610d9af19ce7cc60923a7ba5e3977e1b135dddcc317e2bfabde5d2783bf18ac41f6c34ce773ab20bd2d29e23da2462e9d3b771606e7c1cb3535104940bc96c6c57cbbd0cc0e7e96f62b4b3af6983c781ba82fe8a966bdaf661754c11164ab08a23f05255381239216cadbd91bd0dd2bedef437eeb6765bd94714e943d387597e5d2b86f725629f752d51bbd99ef6751cbd13f4126ffd5e1baadd93ba2ab8c82d1f5c0771b58cc970512e83d8ba84d322e53cf2301c8b3c78a2a278742858dedae91c4e4e5d2b54414c6ad2a8848e8a820d98f1d64a20fbee0ec5784b62dfdcc9ef78d1dbe44140a65eec930456b7522a11e6c7e50ee913fa10e61311e756043486286c1a1c3cefa636abbff9d9570c5ec2cdd900caab9a3b892b06e6004c24327ef9765e4f9542086180ec994f9d69091b2f2b38661eaf0cc8baf2024af3fa4ddac18a6af2790819e7b7bd5d5c372d89b85ffa8974947bd5a40ed9a38a6fcc266645071dbefd14be771019732d0c9c64e539b707bb232b27332f1ca2c42f344e1b360eba4665d5d8a3f935e1cd3a2e4161a505a04326c91eada8b582ef3620f33c6d798586569a3ba17e8d84d7ed1680fa109fa6c000000",
  "txid": "d18afb46ece5b26972a5eebb2d3cbf1f573bee9a3b6a0eba4ded92d693892354",
  "hash": "7444dd0576e16345ddfcef66f2f912102d81bf643a7780c1316d83a91ec95941",
  "size": 5085,
  "vsize": 2278,
  "version": 1,
  "locktime": 108,
  "vin": [
    {
      "txid": "6c78902ebb84145a0959cc6e24dac677574584ef2ca9dd591623609863ee4c45",
      "vout": 0,
      "scriptSig": {
        "asm": "",
        "hex": ""
      },
      "txinwitness": [
        "19bb8737c8cd9d3920cd868f401b6ab3dbfcffe898b5276ae9f2570804a528072815293c571c9bbf8f7045c6ce8e14a326a4e6dae5505428148d8c528b514d48cb6db84c3f4f414f1eb44475ad646aeff82852abb0290ba3085a73c188b29c6c4164b026c2644437faa85baba4c944bd22948479d409da54183ed23006bb5662593d359bc85b9dc0c1dc0d93f94e0db30f6146c57f92c6177a4d194e6579b59d6a808ee0996c58fb3afeca8ac81c43c3c8f3ea4a774423f1a93aea88a4c4b38788b45d7fa308e4083baf1a9e601acb9ce4ddf87353996442ef794cfe247d93331380c3fbb5f6c95566c243462950eb46c69ced2a8577c593f0fd226f25559f4b9f5fd3a30346e2ded68da672900cbd0b3ff5a92a22b16a0240931c95237c42ce2ff201e45638590da4f7a0a10731210c18c8df82525f15ebf4477b5222ee3e18377225ca8fd32db2e5d0184c46b4cd4dce713e4308e02ad337ca2e199b14013105bedbdcace6eab40db231d4c47c0decf26c9aee7ae8b44ca6d91a391dfa1a6187e69358e00f33da838b95f77fa6cdfd70c06a6bfbba1a138e86ff1d5ae34980ebf0534891672d7ebee7dd6cda31a423ef99af660da4f8f126c1f595914979b4cd9f1c097163788373aa2f1b356cf8009e9654d70711ab45f0e1e36d44a18a06fff555bb14621d93a2e0ef39b0176333f60079c9954c7fd885ab735ac303a808d3205aeb9dffd65f092b3f067e34e713aa57b8bf91180b44759b85bd1febee2235afc878b910c1ae3c521861af67b322caaec7e1b9b52d172c71c8cb3974819af111342b932950dc8aa76d41608ad27d142a3e611d1cde09aa3e273d330244855bdc0c1a9ce99385b74a09b83f2591e750eea9117964cd0af70d90159ef5095f8ece8935ab96c9b931fcd9e5dd1172351fa9198a0e97fd20050be74db6e4fdf99927377805b1a0e7be96d59478731fff71d936944481627ee43bf76d8ad2d9ae689eb9bcd9a490914d67b8c76286f634079869dbeaa054328da4860d0cfb65b102ff5cc8b282ebfd9bab2b008c1d2c02282557b2a1511a0052179437bfbc17eca3940efa350da1d3646a7a61491873ea02763461aa404b6fc95eb16939b11791eb37cf1e74d522c49c673591ad592dce1427800235162a8ebf4dff8490db94e13ab8de21b70460f3949aad2077e7874632c753158630d7b9d79be3d266d55a7840cfaec98ad298f8377cf11a43e19c22e481d94c7b418625875e5aab6cf4d371afd4c4a6ec307630338e62cfe32ccc2d73cad64307f0ecf1b9d9ff3e1a5fc49465e6674f7459d23c4b75257359bc7fb052080c01f70c6047ea49b12197d076edc5721fe00e89a32920d88a752f67e37544cc3b3dcd28fb7ebfda670d02c24d41db7e9e80b0fdaff587d4c2a11b6cbc9e986e12f6551cdfd5c6369472d7c604580f04a5e0e5f0347318a6d52ed78eafd3fa706ff71cc824e31119f43aca97e9a87ad14a79d92ac54c456cd6d340473d468f523d7b1633c198e33f940cb3bd501f4d78a502dad8137b90d564041253a50d528715b990b01d1597b07080c1f193f96e6b65eb99eb25e47440cc64290d4cfddd43aab702a5ad5663287604a752b3335edc200a96ac08d07586f86f10a11d8480d3e24c5ad28d6e400c69e51fad1d93a1021c81fda865465030eeb829c06cc4394702ffa426d59fd31387067d37df0ab54a046453b1fb16c2332de44022d1dac6586fed6c51f8d86b3f81a8c3709e6c47e18b1aa61cbf66fddad44f6e10941f4a46b7fcfc5eb15afb87cdc42c7c5fea2e247dfff8aba664921902add5bbac6b685d2c843f7a114150f87cb0ed4024289af10c33d430226cbf6abe30bea6889e96ee0957b31117527db7006eacde5523517af1de713390efb7af060bf7622137200193e44e3f61b3e585a7076a8d0a506c82b3ac2fb83473ea534632a58f21e3891121467c40851994527bdce0afbfa46daa8e57ac7471e358d52fd0a28b77f6b5c207c83ae3c06c970f10b0292f8324fc8e02b02c85945539de4038aa1af240d1910279013b8b0ccdfe859d4f36e88620ec2845006565737aab5f52b7947457b58c9dd38371c7e64db9965d5c8f8e0126af17c1a05b0b2fe929f0a27a49ad23bbef161eeffe85e729916380950a138d418851491372080880130738af3de4097169361041fb6328b5625d370d47ccc17d9a4cbe709749aeb0ba71c51adf5f7a8cd2f3c06657169269157837aa1d3c1d98766f3ffe15857b1e0fd44dc0251ac81d760d8553948ef760e73ef3936616c04bec5b49c61c903650a835c8ceee9544c7859d147c127cc6d7233b32434a6a5ab662caf1269f64b98cfbee8fc739bb9d07a9e2ae9098e5f9db0ccf66c2635afff932d7acc24895ad5b245154e5b94d5d7d43afb459001d58efd46f8e54aa7ad5f8d27a402a18fdc00692c44799dad47fa33326d1b750beccd523999507c2f1c201ab24e1fefd75786e994fdc2ebf90a9ae065bc9e08f82808c50da20344a01434a8e59c86e4b17acb8a95b6ead96d6defa25ab2c90e370077aff4e7f09ef334c13f21900d86c0fd647cd392ae7cda00f5e9b85ab3cdfb8b39011abcab6d26939e889e47f894ad68cbec39076eba5b2f4de52761e6039326d468e1f24c8d19a42fb362b77b4fe3abd849f8e9b5d01902f6ef8532cee7c05d0e20b040a27515980ab34e8919f597e2aa649d091d93ef9c46440079687b790935758e785860deec266df1346231f3215c4cb783a948d103a432a12b0ddd37a9da11665570325ec696c4a27b7248965bc8c5500d503be9164df9a6331a605549a63c8cf107b4817592c1be1d59cb32fc6e034b8d88bdb92481d1ecf6d6d7c7a33366e712f968f8edf445c87799cd2d83876bf84b7101ddd26eb090e148669bfce50bae6bc64985cbfb5fdfddd06e649ef8cb9d2c62c50de3a226eb60eb586eaf8745c8f261eb945b59f7908ffbe1ad8e9a47d2c05226949f56c6f518691dd9d0f4f0d20bb2c8b0bc9483874e7a7d1fb420f564d177053ecf06e135a8784dc7cfe80c594d642a6262d0eb95e4a86806b03c9d0679a8883f8ac6641c7373c1d0e16f5a6b37d668702ab056dcaeee7ba6ddc89586ce2f74b3bd2deb35c28234077250f313aba10ea601644c4930cee9573f34740253e940dc84a9da494cbd47f055e0af206d6621a178bea72dc211bcdf250a048e27230ce779dd2d591b98dfb1bf4f60018b3fe20625323afb4db990366c16e855adfc264db29c5e49ad5fe80503c65085d56f9539f620f121423465a8197d4dce801111b1c305768758288a6bad5d7dbeef9fe2153555b5d8687969da8afb4d2fa000d1a272a4292cadbddedf4000000000000000000000000000000000000000000000000000b1d2b3701",
        "0070a540b8345308b67490238a44b45584ec4b3b3d8d074aa020a7936926bc8783321f46e906064e1c7c58d7b8b702fcfba6d4804aa60276b770c753c92110f926a36de158867a9a07635f92ea5fe54c8a651e0b16355372a7e6a1fd3786e87d9f73f6ea2f952f941fc127e6a1f3318ca365a183e89448319f44e794168c6824a773095d32a0a4bfaf88d08be5b10e6428007c400872623388af93b88ee7b736ea2dfea65a0ec83cd0cf58ff5525328824f53eb8984f8cc20755a9584f82f8212df85650a61f83537548c943608cb83e6160946e01aef88dd6721105d314e7d87c2033f9217a68045686d32e210bcdb28227d2d21581a61c89db4bc3e18c1c8062acbac1733b300db9023cc827225bdb0e344b536d7d13d8f3c81f5c60c4bd1e6064a41275c5a23741c0b651a7234d84013b1d7c85eb5a741b70d78dc10d98099ea2fe8b6ed96550d57c57f1f48ea1bf06c96d080ffd625d508829e23c6ccca98afbaacd810254343619b7c24ae67471205c727061dbc0d258df830eb0d903ed2ba5ee50510bdef881d084927bd7090b1c61bf0433d77b9621a7daaaf5ffe5c71408f3f5949d50326991d22089d769609bfbc5299591be6437f10dae45979fd75c25aa7d5bdc54f8db36776712acf0bf4c4aa3e6abf026e697183cad433d06707ecd93287b34630cbf524274021c52856c7d1489827269085d57d894ffbd45d1255c8992c161e1aa9de9bf10195cdffc3416d2942be973cc677f9f8e129eaeb2bf862af750194cb32cd293d9a8931e7bc987e912850a55d919c1777f9394f910591bcea71a6fb69cdfb04fcd84d81ccaf04a050edb15a03e319e91ddec1ade80c9a1034f6b3e282942e46bc011c5d0920884cf6de5571addfaa991ce43726e1190eff7200c3dab4974a45864b6b24b4c865a5146769ebd42d0498cf41a7b56c9facb6493202ff87f0ecd77e54d8f7bffc6a5f0b2bd3b02d81d3b16c71c322f6ebb8a5044134c6c8b5fd136984b1d5d50221336c2e4e8b7daf7a855190730182b0bd111fde2090d9a70a3ffa13999ff59732b22d70772dd754761ab7e82368e71e9e4ef5ac7b78975fe03476f15303405be2106c0435e9e9e64fd99791663d12ba480793ece9bded0f6971acf7c41ff36f0143ac1d195c4659bf7ea2ca12261fdd6b9d681b0748df55c9009fb023361d8ba41e70c9da74a1fd0c9a419a39853fed6ccf73dba426adff858e1de6c1610d9af19ce7cc60923a7ba5e3977e1b135dddcc317e2bfabde5d2783bf18ac41f6c34ce773ab20bd2d29e23da2462e9d3b771606e7c1cb3535104940bc96c6c57cbbd0cc0e7e96f62b4b3af6983c781ba82fe8a966bdaf661754c11164ab08a23f05255381239216cadbd91bd0dd2bedef437eeb6765bd94714e943d387597e5d2b86f725629f752d51bbd99ef6751cbd13f4126ffd5e1baadd93ba2ab8c82d1f5c0771b58cc970512e83d8ba84d322e53cf2301c8b3c78a2a278742858dedae91c4e4e5d2b54414c6ad2a8848e8a820d98f1d64a20fbee0ec5784b62dfdcc9ef78d1dbe44140a65eec930456b7522a11e6c7e50ee913fa10e61311e756043486286c1a1c3cefa636abbff9d9570c5ec2cdd900caab9a3b892b06e6004c24327ef9765e4f9542086180ec994f9d69091b2f2b38661eaf0cc8baf2024af3fa4ddac18a6af2790819e7b7bd5d5c372d89b85ffa8974947bd5a40ed9a38a6fcc266645071dbefd14be771019732d0c9c64e539b707bb232b27332f1ca2c42f344e1b360eba4665d5d8a3f935e1cd3a2e4161a505a04326c91eada8b582ef3620f33c6d798586569a3ba17e8d84d7ed1680fa109fa"
      ],
      "sequence": 4294967294
    }
  ],
  "vout": [
    {
      "value": 499989.831,
      "n": 0,
      "scriptPubKey": {
        "asm": "1 87b863032ab0fc0df49b9d40b049dc6c2dd6feeafefa02b70d62197dc783727a",
        "hex": "512087b863032ab0fc0df49b9d40b049dc6c2dd6feeafefa02b70d62197dc783727a",
        "reqSigs": 1,
        "type": "witness_v1_scripthash",
        "addresses": [
          "3QJmnh"
        ]
      }
    },
    {
      "value": 1.0,
      "n": 1,
      "scriptPubKey": {
        "asm": "OP_RETURN 16c44f63ccde73eb45ac680a6f2c56711b310b440035c39ad782641da756cd91 2aa72c285a509c3039323650162646f9ee13eaa125cc30a476542da2b9cfe3900a870c087a70bc1019121670360666d9ce33ca8105ec108456740d8299efc3b06ae76c681a10dc7079727610566606b9ae53aae1658c70e436146de2f98fa3d04ac74c483a30fc5059525630764626998e738ac145ac50c416344dc2d9af83f0aa27aca8dad01cb0b9b2b6d096a6c6796e936a21a54cb024f6d4ad22394f63108a078c88faf03c90999296f0b686e6594eb34a01856c9004d6f48d02196f4330ea67ece89a905cf0f9f2f690d6e686392ed32a61e50cf064b694ed62790f2350ca47ccc8bab07cd0d9d2d6b0f6c6a6190ef30a41c52cd04496b4cd42592f03702aa72c285a509c3039323650162646f9ee13eaa125cc30a476542da2b9cfe3900a870c087a70bc1019121670360666d9ce33ca8105ec108456740d8299efc3b06ae76c681a10dc7079727610566606b9ae53aae1658c70e436146de2f98fa3d04ac74c483a30fc5059525630764626998e738ac145ac50c416344dc2d9af83f0aa27aca8dad01cb0b9b2b6d096a6c6796e936a21a54cb024f6d4ad22394f63108a078c88faf03c90999296f0b686e6594eb34a01856c9004d6f48d02196f4330ea67ece89a905cf0f9f2f690d6e686392ed32a61e50cf064b694ed62790f2350ca47ccc8bab07cd0d9d2d6b0f6c6a6190ef30a41c52cd04496b4cd42592f03702aa72c285a509c3039323650162646f9ee13eaa125cc30a476542da2b9cfe3900a870c087a70bc1019121670360666d9ce33ca8105ec108456740d8299efc3b06ae76c681a10dc7079727610566606b9ae53aae1658c70e436146de2f98fa3d04ac74c483a30fc5059525630764626998e738ac145ac50c416344dc2d9af83f0aa27aca8dad01cb0b9b2b6d096a6c6796e936a21a54cb024f6d4ad22394f63108a078c88faf03c90999296f0b686e6594eb34a01856c9004d6f48d02196f4330ea67ece89a905cf0f9f2f690d6e686392ed32a61e50cf064b694ed62790f2350ca47ccc8bab07cd0d9d2d6b0f6c6a6190ef30a41c52cd04496b4cd42592f03702aa72c285a509c3039323650162646f9ee13eaa125cc30a476542da2b9cfe3900a870c087a70bc1019121670360666d9ce33ca8105ec108456740d8299efc3b06ae76c681a10dc7079727610566606b9ae53aae1658c70e436146de2f98fa3d04ac74c483a30fc5059525630764626998e738ac145ac50c416344dc2d9af83f0aa27aca8dad01cb0b9b2b6d096a6c6796e936a21a54cb024f6d4ad22394f63108a078c88faf03c90999296f0b686e6594eb34a01856c9004d6f48d02196f4330ea67ece89a905cf0f9f2f690d6e686392ed32a61e50cf064b694ed62790f2350ca47ccc8bab07cd0d9d2d6b0f6c6a6190ef30a41c52cd04496b4cd42592f03702aa72c285a509c3039323650162646f9ee13eaa125cc30a476542da2b9cfe3900a870c087a70bc1019121670360666d9ce33ca8105ec108456740d8299efc3b06ae76c681a10dc7079727610566606b9ae53aae1658c70e436146de2f98fa3d04ac74c483a30fc5059525630764626998e738ac145ac50c416344dc2d9af83f0aa27aca8dad01cb0b9b2b6d096a6c6797195c3c04ece351b5d1d56ee1d1437f745251a828bcadb62442430425e544bd2",
        "hex": "6a2016c44f63ccde73eb45ac680a6f2c56711b310b440035c39ad782641da756cd914db0042aa72c285a509c3039323650162646f9ee13eaa125cc30a476542da2b9cfe3900a870c087a70bc1019121670360666d9ce33ca8105ec108456740d8299efc3b06ae76c681a10dc7079727610566606b9ae53aae1658c70e436146de2f98fa3d04ac74c483a30fc5059525630764626998e738ac145ac50c416344dc2d9af83f0aa27aca8dad01cb0b9b2b6d096a6c6796e936a21a54cb024f6d4ad22394f63108a078c88faf03c90999296f0b686e6594eb34a01856c9004d6f48d02196f4330ea67ece89a905cf0f9f2f690d6e686392ed32a61e50cf064b694ed62790f2350ca47ccc8bab07cd0d9d2d6b0f6c6a6190ef30a41c52cd04496b4cd42592f03702aa72c285a509c3039323650162646f9ee13eaa125cc30a476542da2b9cfe3900a870c087a70bc1019121670360666d9ce33ca8105ec108456740d8299efc3b06ae76c681a10dc7079727610566606b9ae53aae1658c70e436146de2f98fa3d04ac74c483a30fc5059525630764626998e738ac145ac50c416344dc2d9af83f0aa27aca8dad01cb0b9b2b6d096a6c6796e936a21a54cb024f6d4ad22394f63108a078c88faf03c90999296f0b686e6594eb34a01856c9004d6f48d02196f4330ea67ece89a905cf0f9f2f690d6e686392ed32a61e50cf064b694ed62790f2350ca47ccc8bab07cd0d9d2d6b0f6c6a6190ef30a41c52cd04496b4cd42592f03702aa72c285a509c3039323650162646f9ee13eaa125cc30a476542da2b9cfe3900a870c087a70bc1019121670360666d9ce33ca8105ec108456740d8299efc3b06ae76c681a10dc7079727610566606b9ae53aae1658c70e436146de2f98fa3d04ac74c483a30fc5059525630764626998e738ac145ac50c416344dc2d9af83f0aa27aca8dad01cb0b9b2b6d096a6c6796e936a21a54cb024f6d4ad22394f63108a078c88faf03c90999296f0b686e6594eb34a01856c9004d6f48d02196f4330ea67ece89a905cf0f9f2f690d6e686392ed32a61e50cf064b694ed62790f2350ca47ccc8bab07cd0d9d2d6b0f6c6a6190ef30a41c52cd04496b4cd42592f03702aa72c285a509c3039323650162646f9ee13eaa125cc30a476542da2b9cfe3900a870c087a70bc1019121670360666d9ce33ca8105ec108456740d8299efc3b06ae76c681a10dc7079727610566606b9ae53aae1658c70e436146de2f98fa3d04ac74c483a30fc5059525630764626998e738ac145ac50c416344dc2d9af83f0aa27aca8dad01cb0b9b2b6d096a6c6796e936a21a54cb024f6d4ad22394f63108a078c88faf03c90999296f0b686e6594eb34a01856c9004d6f48d02196f4330ea67ece89a905cf0f9f2f690d6e686392ed32a61e50cf064b694ed62790f2350ca47ccc8bab07cd0d9d2d6b0f6c6a6190ef30a41c52cd04496b4cd42592f03702aa72c285a509c3039323650162646f9ee13eaa125cc30a476542da2b9cfe3900a870c087a70bc1019121670360666d9ce33ca8105ec108456740d8299efc3b06ae76c681a10dc7079727610566606b9ae53aae1658c70e436146de2f98fa3d04ac74c483a30fc5059525630764626998e738ac145ac50c416344dc2d9af83f0aa27aca8dad01cb0b9b2b6d096a6c6797195c3c04ece351b5d1d56ee1d1437f745251a828bcadb62442430425e544bd2",
        "type": "nulldata"
      }
    }
  ],
  "blockhash": "fed18006ccdab590a9e00afae0c126c0756e5b686d02c0375b028c4c6af5cb31",
  "confirmations": 1,
  "time": 1764177489,
  "blocktime": 1764177489
}