{
  "hex": "0100000000010144108a058c908357c246e48e040e8186c9ee8902b798b19ce43250f1060bd0080000000000feffffff0200e1f50500000000fdd5046a200ddcee85303d207b2553a41b28162eaa4c16671bf261e1ebf952b9c9f8dfd9e54db0046f6ba57565abf82131f449a637877ed429b4882020d3443b8965b219b7da48f24f4b8555458bd80111d4698617a75ef40994a80000f3641ba945923997fa68d22f2be53525ebb86171b409e677c73e9469f4c8606093047bc925f259f79a08b20f0bc51505cb9841519429c657e71eb449d4e84040b3245be905d279d7ba2892efeb25f5e52b78a1b174c926b707fe54a93408a0a053c4bb09e53299375ac872cfcb05d5c50b58819154e9069727de74891428808073e49b29c512b9177ae852afab65b5a56b38e1f1348966f747be14e97448e0e01384fb49a572d9771a88328f8b4595854b18c1d114a946d7679e34c95468c0c033a4db698552f9573aa8126f6ba57565abf82131f449a637877ed429b4882020d3443b8965b219b7da48f24f4b8555458bd80111d4698617a75ef40994a80000f3641ba945923997fa68d22f2be53525ebb86171b409e677c73e9469f4c8606093047bc925f259f79a08b20f0bc51505cb9841519429c657e71eb449d4e84040b3245be905d279d7ba2892efeb25f5e52b78a1b174c926b707fe54a93408a0a053c4bb09e53299375ac872cfcb05d5c50b58819154e9069727de74891428808073e49b29c512b9177ae852afab65b5a56b38e1f1348966f747be14e97448e0e01384fb49a572d9771a88328f8b4595854b18c1d114a946d7679e34c95468c0c033a4db698552f9573aa8126f6ba57565abf82131f449a637877ed429b4882020d3443b8965b219b7da48f24f4b8555458bd80111d4698617a75ef40994a80000f3641ba945923997fa68d22f2be53525ebb86171b409e677c73e9469f4c8606093047bc925f259f79a08b20f0bc51505cb9841519429c657e71eb449d4e84040b3245be905d279d7ba2892efeb25f5e52b78a1b174c926b707fe54a93408a0a053c4bb09e53299375ac872cfcb05d5c50b58819154e9069727de74891428808073e49b29c512b9177ae852afab65b5a56b38e1f1348966f747be14e97448e0e01384fb49a572d9771a88328f8b4595854b18c1d114a946d7679e34c95468c0c033a4db698552f9573aa8126f6ba57565abf82131f449a637877ed429b4882020d3443b8965b219b7da48f24f4b8555458bd80111d4698617a75ef40994a80000f3641ba945923997fa68d22f2be53525ebb86171b409e677c73e9469f4c8606093047bc925f259f79a08b20f0bc51505cb9841519429c657e71eb449d4e84040b3245be905d279d7ba2892efeb25f5e52b78a1b174c926b707fe54a93408a0a053c4bb09e53299375ac872cfcb05d5c50b58819154e9069727de74891428808073e49b29c512b9177ae852afab65b5a56b38e1f1348966f747be14e97448e0e01384fb49a572d9771a88328f8b4595854b18c1d114a946d7679e34c95468c0c033a4db698552f9573aa8126f6ba57565abf82131f449a637877ed429b4882020d3443b8965b219b7da48f24f4b8555458bd80111d4698617a75ef40994a80000f3641ba945923997fa68d22f2be53525ebb86171b409e677c73e9469f4c8606093047bc925f259f79a08b20f0bc51505cb9841519429c657e71eb449d4e84040b3245be905d279d7ba2892efeb25f5e52b78a1b174c926b707fe54df0f6d7a131fef508c39621ef0aa1bc3b4e7b1b11edd116e5a13e6fb7bb54c8df020b051792d00002251204425c94d8233d82353813a5730056046e68ee50a95cf3fd9435556fa079ae5dd02fd7509c6e5a9685b0fc8eab10e14b3a92d717db14b57aee30dd6d173b9d111e5507bde374101e0e957076f38105cbbb4931a9013dd247dbed9c65e766e1d250a32209efcfa01630b140a6ca69cf4168c115870b5d4fbec22a4377b92f8c5737f37a64789ae63fd3708bf0927eabbb6135cb8f6e2dd6f1d5856c535a6d2b8428651c19a46e4e916f97552bc3b0f75c00d31f98952a323570d00e65006bf33290f9c0d77e822cdbb4543ea411e82746eefdcf0c7c5b3bc7b51f2aaf33b28edc5dc600161369e8168acdee1e6c533b293424994634550fd0132a6cbed2a987a16b3133fb396a091544015ea15d742db75442ac09e5ed19906da2aef81855ccaeebe03e5623ca1f9ac9082bfbb1afc2984a53c6b6b7de27c298621212615bae6922bee23ed181a995ab7577ea8224881b597db0d0ebe0671e12de07237cd02603d1be11e9396f0762badcaa01e6f3415c97d5b9abe197e5094fa5b7fbbeea48d6ad653502f05faefd65de11b34ef81e4a38b543a99065390dd74847daa5aa45bc0d5c482801ba0618dadd449acab84c41acecfb02ee47dc36dd5cf5febf44f5b6d92c55e317352bb5874715068bb8db6dad20790fa1fcc9267c494e147eba217f586054b25608b4b350a034e76df9df881bc409503fe07c99b1c177a5f1088001445c226b5528cf60e4f2a2e1ba38677d28067ac9759abc7c2240fc9af7d0b6ab344802c01f54db081bea1fd89314091f014c2febefb6092576309ee6ef76cd53466fa7e4ef6c4b41fb3e7515fee63bf5a7fbe9202d59748995d6b83f609fad0f7eaf38b9b748e57d01bfeeaec58517c9f3d1af39d795ab527c5d2f961ce1dcddf2e29262f1f3f10a07631d5fcdd436bb86743d6fcadd00e12f801803abfb0db2ede2fa0600cae86409ecebef8133a9d53e5fd29f76fa1fe065fde9dffcda2c0d13d92545da94a8b57bdfdaa9cd4c4b34db861e947838227b10123c4c26f4c967778b089995bd8f30ebacd42dc57c6b5578dc9d5f16169834086756a25fcad13ad443f13d506bd283fac5c65fd0a5eb8a649736c879e1ed0fe56c9524ae1db67dce9476da9f03456cf4b46b1e2c5aa9b961ae2221111287b2f161cb6ca528b24ff04a407ba927b001c0dcab5fa6c32f379481299e72441bf33984d2dc9ed5dafb62f6c704b06670c3e1f3d872f914e7c44f6e5d1e4a8643e1b4bc910a1739627280b8ea0f36a53da20c428b9c7863a2be7288121232b51f77cb3dae67c8467bce54963c416a45cfd54102e503dbefc72e591b342b1483065c51099dbfa02248058b985ccd9dcc0f8bb95b86e3fdef747de047635db479f548283a802c3bcf6bae8ddba6dc909c3803206998db90d7fdd89603a9fed36e49f1b3af436acb63c0205f85d0d838c5b5e0dd29dccef45c062b4e6c3266016f128236fa10259fe286da5eae26a5e3eaa61fb4673345d0835bbb6db8a987be7d4c334636ffe8cd3452f2398d96ea6bdd62aff99528962d1b8f8976ac659567a125247d39c3c333cfddeb20db4dc6c0b46e7f33a0eece0269eef117852f447b70dca9d8ad0384f414416da45b4fca4ed7687d6b30863d3b5388e1aad7eb6b48e0e8e041ab714d0738ea3a179e421990554b050b0e636e0922b02ed37b445dbf8262ddbf928a5399d8b03c5d5a108fc9fa9b076b34e51bf3c3ad73a9281921eaa9451fb914475b57ec1b51bb3e445e7462733cbf591401c38e4ba87631256ecef5da09f4e2836624b913032208ab20be4560dfb3b49989496d232326dbc150a3b38af6e190e4fd5ecb5c4b9222dc403fa935e2897ff371accc08496d0940619c9359eb1fcf9cb856615ae5115d3a6d526bb017c74f469116473cfedce83161ac60830f85e70e9553177dd38ad331501beddb0011c72f527886a2b747894b185a6695f56571622d792594a9b400db6a09f8c40e86d5ba5961e4fb4623ae7f25646ec3be91476bd5f0ce613d6af768063fc2783db8401f740704bb7baf832cfb701149c2f1a2e7e21cb565ecf71786dbaf56e388da7eca4c925c5bd752c0b9cc0375cc21928fc4f4a5108bb9fa9099c08b33f69003da89cc7559e72c047491d19f431838d4c63507248175a023d13389dd7ae47301503c7155ef474613d3cd20c982049edd72c1bac110daa30d51c2b9287a1f4a718ccd2981aba32d22d582f629f1043fb0997730ff26ec9f2f2ff26b09d22768ca4b733e79b6e439ccbea0c6964c429b352c180a11ebdc5f04bf1d67fbbeba9c164cccd31b9c7358de4ec24effd029854baa31fd85db91322b3e24c71395dd74deef6473ffaa347b7baef845c7ff7d8973efca528f25f259237271e3077dd497aaf1dc14f499f1da727dc757a2c7af1efa22ebebb064f94a6017d1d0807666a84407b1ccd6c38f678b47fa54eb9b76438ec281de08413ce12354dac62809fa05f48cf2f9d723b88a6f6da68729de4c64f65a2a6a602182e445219cc57eef6fc5db10627c43cb18f8a1117cc2418b5a44e40172dd4dc365dcc3af5f83be78b09326fcd809e79b9114e5c6c15478ad14759af557f385beff7d483601a9d5f09158087d4335477b001c5a21237c375fe5af054c979289a33d55f9e9a1ff7fbf65a75da74ca6a78e25c6d6b52a0675a0f6002da67a064f4c3ab044b5e6a3213af6f7831137c7905fd0404c2e63b379d3b3458e8bcb955c78b58c6c944b17f97e2b858a1d6c4929145dfcf0354734b6e9cb0d0fc5e7e1ffebe69701047060fd158ae6d546e129da3cc0d55cb723b671962e6c66ca4b64fbcbcb81533e6b693ef987ede597824b85a505215c7cb37f5dc4f3bfa2ef4f1f26645c7c40319c068a73b20bd8500399206ad60d4434151c04dcaf1c66eaaa048f5ab45cd976ec9f0db5b13d2a088b1f2557771b05d6829de8d29587d3d58e09a7f12db20941dbb71c58f9feae93460bb0bf8d662d3a5e2848ed187a92c53c7ae52b3a27ee306454c5c095462cd57ff53d4c021ad8984978b606393214ac46fc1accd12a8b37b464c85322e7daff48f97af7fb89bd4e9d948b4cbc601b246481453d2d9ba51b1c4ca4a50a124a36c3db1839f01fd49e50ebaa3fba0d498d2cea22f9a722463b76a40c3138105bce3a5de355a51b1cc30f7793526602c365d853658a7e16456169ced576a4cce80faf4ac9c1aa70a16affb20c1b8919eada0fb3c9511d7b625dc9cbdfba5c92ab2b5b105c210116937908a4ad1af2efd89e968a426cb9df432964503005b601c0b48b98eedf2c890c60e619285de09bbf62bd7d589c7e7638be9d3b53138437580829d9fa0bbd0defdfe050a1e243841525c64717992a1bccee1eaeb19313334376d777b87a60813373b3e5364737d9199bcc6cbd5daf00000000000000000000000000000000000000000000e202a3b01fd21050001589f3abe63217b6f8763e7ac803380745923cfc8d6b1acd6f09a3d6da2bbc919d8a858b1dbf9493815865117d8ccbe2b5e8cff03477b2ad2179c482747dda2fdefc2edcc8ed2a91e771b679fc5ab6fcc9a6d2d0461edb3c759f6a573a459c922d925df4caed5ee18c7176fdc132d2ef2eb9cd36ea4991d85843855540c065be203df84560a4be53309306d7fdd5fce76c2cc2310ac166bebc27ee109d38f6e192f110f4d5b5e4e1ea807ad18c906dd43b2dee8b8ab40457796514cf5c74cae852f4a3c67f3c3a63fdf1ae2be1ca59dc208f74c32b6ce5b436811131d8c2ca61f8e6c5a4aa531969717f19375ba759bb8eefaef3a028ac87c21390b8b0cdb3ea04887506939864962f30057497777481e9625e07933f72ceef530f166957dd7caaba54bb8f98545d376d08be48de6b57731f48760767624c3c938737aafbababf82c4b99a30c0709fab47f6603748185f0318b04be39faf90303403c6bb714c1804a765ea8bdeb7be3b65223087ba123b8de65da29551946f1af471d932472bb519c30bf01680a76f880e596fc56ba40a82362e4939179aec6128911ba7e1dfe864cfaf6ca276674ff667b8316f3cf7fe828d094f833ebcf54a8e2146a4740625a555d2c603e435a722e6fa097566bec7435ebf8ebd5205333ec3b75b9b16637555ab42751a58dd46c917695b785f3d799bd55c63c17e132b63b1cbe9c3c4fa73405180e1aad08b3ae12c0ddbad8c73fc570a7bba2739d738909d3013b72a2f35883363f45eb33ba33ca2c3dafeed0c8728baeec54c62a7124d33d5c619e4e75c78943bc2dc3e74e3969dc2360f6468ae4bc7c13114d256e515a5efd52a768158145a45f3cebdcdcab12740dd623249de0df26cb4cf585804ec9f033e8d5700957e8b50b2a0d7ab0a1da47d2f5859ac1d722abe58c10772cc144c1808941441634a6585dcbe004b94400f8a1c2a7d9c8ceb6ca5a40825ceb1cb878deb1304718dc3e6cc275fc9d07e0fd3ea0fe269d59f8c9b60317ab48ab3720878297bbf498e121ce559c9c8394e862324561032a3fbbd92a55a31ffa10dc4b960d034e62ec6fff4507ede5b4a6e7f3fad769ccfaa64e9c0f1061f4340f8d9811980ce035c913b1ff93bd7d2684c330b51844efa30b8d6070933e782381daaf910481740335b004f35e5ebcd2f8c3cd54df7d92dcebe827ddcc78df10ee1323b4ef0490b1bcc1f44d260d7664293a430e29defa420dfdf33b2dae55098f3aeee5621dc30fa14b85c64a80f01c7400f4daab664d5ed4b19070427c4fe1baf91f883d8dd38f25e3f88d83f6f34c9ef6f4802bb1c418561e4a462dc91be7e31d935b0afc297bd47b41f0c17ccc87c7441d6bd99f70cfb7b789009b63ea81a4863daef99ea1ff3fec57f0c97e37202914bcbf89f76db28b3ebeb905c93a075fd5a4a23962ed698be1692d949f2f15fbf2160174f5b39bc1dde1148b6d9e7711cfae17ed6d7c75537d22869c68976a286ab7b2c6df6ff87466e50099bb62b9d97331ddb06fd76be72324b9bbebc1239af22caae4c8f165983ecae9961840229f21869316206626f722644c8fbfceeed7103bf6b81b255f718230e264b7e2acd9a57d3a9cbd6d35422f4aaedf207518c06b7cd1b17f00663ebffd8807037d6066f5fe43b4e92011149728009b8b3fce13d0a9eebc479094c4c873c93f6e6247ca4eba9b80dc649cc885ec6ed8952f4f29594817849028ed5b454c22ad9f67944950f089c835013d174fe6313b0b0b215d8674e53512d06afc1703aaa0d55c2b9acb8821ecbbaf7726b98502cbc837979fa60869004c5edf5a2791bb034bc66cc06550dff14acf54973000000",
  "txid": "d919d98d162a86e38ebf12bc326479e6e3637194dac39869b114f74e5c309a69",
  "hash": "d584b3e9669ca58eac082db6171d5a89030036b372ee3b22a48b9d2515494273",
  "size": 5085,
  "vsize": 2278,
  "version": 1,
  "locktime": 115,
  "vin": [
    {
      "txid": "08d00b06f15032e49cb198b70289eec986810e048ee446c25783908c058a1044",
      "vout": 0,
      "scriptSig": {
        "asm": "",
        "hex": ""
      },
      "txinwitness": [
        "c6e5a9685b0fc8eab10e14b3a92d717db14b57aee30dd6d173b9d111e5507bde374101e0e957076f38105cbbb4931a9013dd247dbed9c65e766e1d250a32209efcfa01630b140a6ca69cf4168c115870b5d4fbec22a4377b92f8c5737f37a64789ae63fd3708bf0927eabbb6135cb8f6e2dd6f1d5856c535a6d2b8428651c19a46e4e916f97552bc3b0f75c00d31f98952a323570d00e65006bf33290f9c0d77e822cdbb4543ea411e82746eefdcf0c7c5b3bc7b51f2aaf33b28edc5dc600161369e8168acdee1e6c533b293424994634550fd0132a6cbed2a987a16b3133fb396a091544015ea15d742db75442ac09e5ed19906da2aef81855ccaeebe03e5623ca1f9ac9082bfbb1afc2984a53c6b6b7de27c298621212615bae6922bee23ed181a995ab7577ea8224881b597db0d0ebe0671e12de07237cd02603d1be11e9396f0762badcaa01e6f3415c97d5b9abe197e5094fa5b7fbbeea48d6ad653502f05faefd65de11b34ef81e4a38b543a99065390dd74847daa5aa45bc0d5c482801ba0618dadd449acab84c41acecfb02ee47dc36dd5cf5febf44f5b6d92c55e317352bb5874715068bb8db6dad20790fa1fcc9267c494e147eba217f586054b25608b4b350a034e76df9df881bc409503fe07c99b1c177a5f1088001445c226b5528cf60e4f2a2e1ba38677d28067ac9759abc7c2240fc9af7d0b6ab344802c01f54db081bea1fd89314091f014c2febefb6092576309ee6ef76cd53466fa7e4ef6c4b41fb3e7515fee63bf5a7fbe9202d59748995d6b83f609fad0f7eaf38b9b748e57d01bfeeaec58517c9f3d1af39d795ab527c5d2f961ce1dcddf2e29262f1f3f10a07631d5fcdd436bb86743d6fcadd00e12f801803abfb0db2ede2fa0600cae86409ecebef8133a9d53e5fd29f76fa1fe065fde9dffcda2c0d13d92545da94a8b57bdfdaa9cd4c4b34db861e947838227b10123c4c26f4c967778b089995bd8f30ebacd42dc57c6b5578dc9d5f16169834086756a25fcad13ad443f13d506bd283fac5c65fd0a5eb8a649736c879e1ed0fe56c9524ae1db67dce9476da9f03456cf4b46b1e2c5aa9b961ae2221111287b2f161cb6ca528b24ff04a407ba927b001c0dcab5fa6c32f379481299e72441bf33984d2dc9ed5dafb62f6c704b06670c3e1f3d872f914e7c44f6e5d1e4a8643e1b4bc910a1739627280b8ea0f36a53da20c428b9c7863a2be7288121232b51f77cb3dae67c8467bce54963c416a45cfd54102e503dbefc72e591b342b1483065c51099dbfa02248058b985ccd9dcc0f8bb95b86e3fdef747de047635db479f548283a802c3bcf6bae8ddba6dc909c3803206998db90d7fdd89603a9fed36e49f1b3af436acb63c0205f85d0d838c5b5e0dd29dccef45c062b4e6c3266016f128236fa10259fe286da5eae26a5e3eaa61fb4673345d0835bbb6db8a987be7d4c334636ffe8cd3452f2398d96ea6bdd62aff99528962d1b8f8976ac659567a125247d39c3c333cfddeb20db4dc6c0b46e7f33a0eece0269eef117852f447b70dca9d8ad0384f414416da45b4fca4ed7687d6b30863d3b5388e1aad7eb6b48e0e8e041ab714d0738ea3a179e421990554b050b0e636e0922b02ed37b445dbf8262ddbf928a5399d8b03c5d5a108fc9fa9b076b34e51bf3c3ad73a9281921eaa9451fb914475b57ec1b51bb3e445e7462733cbf591401c38e4ba87631256ecef5da09f4e2836624b913032208ab20be4560dfb3b49989496d232326dbc150a3b38af6e190e4fd5ecb5c4b9222dc403fa935e2897ff371accc08496d0940619c9359eb1fcf9cb856615ae5115d3a6d526bb017c74f469116473cfedce83161ac60830f85e70e9553177dd38ad331501beddb0011c72f527886a2b747894b185a6695f56571622d792594a9b400db6a09f8c40e86d5ba5961e4fb4623ae7f25646ec3be91476bd5f0ce613d6af768063fc2783db8401f740704bb7baf832cfb701149c2f1a2e7e21cb565ecf71786dbaf56e388da7eca4c925c5bd752c0b9cc0375cc21928fc4f4a5108bb9fa9099c08b33f69003da89cc7559e72c047491d19f431838d4c63507248175a023d13389dd7ae47301503c7155ef474613d3cd20c982049edd72c1bac110daa30d51c2b9287a1f4a718ccd2981aba32d22d582f629f1043fb0997730ff26ec9f2f2ff26b09d22768ca4b733e79b6e439ccbea0c6964c429b352c180a11ebdc5f04bf1d67fbbeba9c164cccd31b9c7358de4ec24effd029854baa31fd85db91322b3e24c71395dd74deef6473ffaa347b7baef845c7ff7d8973efca528f25f259237271e3077dd497aaf1dc14f499f1da727dc757a2c7af1efa22ebebb064f94a6017d1d0807666a84407b1ccd6c38f678b47fa54eb9b76438ec281de08413ce12354dac62809fa05f48cf2f9d723b88a6f6da68729de4c64f65a2a6a602182e445219cc57eef6fc5db10627c43cb18f8a1117cc2418b5a44e40172dd4dc365dcc3af5f83be78b09326fcd809e79b9114e5c6c15478ad14759af557f385beff7d483601a9d5f09158087d4335477b001c5a21237c375fe5af054c979289a33d55f9e9a1ff7fbf65a75da74ca6a78e25c6d6b52a0675a0f6002da67a064f4c3ab044b5e6a3213af6f7831137c7905fd0404c2e63b379d3b3458e8bcb955c78b58c6c944b17f97e2b858a1d6c4929145dfcf0354734b6e9cb0d0fc5e7e1ffebe69701047060fd158ae6d546e129da3cc0d55cb723b671962e6c66ca4b64fbcbcb81533e6b693ef987ede597824b85a505215c7cb37f5dc4f3bfa2ef4f1f26645c7c40319c068a73b20bd8500399206ad60d4434151c04dcaf1c66eaaa048f5ab45cd976ec9f0db5b13d2a088b1f2557771b05d6829de8d29587d3d58e09a7f12db20941dbb71c58f9feae93460bb0bf8d662d3a5e2848ed187a92c53c7ae52b3a27ee306454c5c095462cd57ff53d4c021ad8984978b606393214ac46fc1accd12a8b37b464c85322e7daff48f97af7fb89bd4e9d948b4cbc601b246481453d2d9ba51b1c4ca4a50a124a36c3db1839f01fd49e50ebaa3fba0d498d2cea22f9a722463b76a40c3138105bce3a5de355a51b1cc30f7793526602c365d853658a7e16456169ced576a4cce80faf4ac9c1aa70a16affb20c1b8919eada0fb3c9511d7b625dc9cbdfba5c92ab2b5b105c210116937908a4ad1af2efd89e968a426cb9df432964503005b601c0b48b98eedf2c890c60e619285de09bbf62bd7d589c7e7638be9d3b53138437580829d9fa0bbd0defdfe050a1e243841525c64717992a1bccee1eaeb19313334376d777b87a60813373b3e5364737d9199bcc6cbd5daf00000000000000000000000000000000000000000000e202a3b01",
        "0001589f3abe63217b6f8763e7ac803380745923cfc8d6b1acd6f09a3d6da2bbc919d8a858b1dbf9493815865117d8ccbe2b5e8cff03477b2ad2179c482747dda2fdefc2edcc8ed2a91e771b679fc5ab6fcc9a6d2d0461edb3c759f6a573a459c922d925df4caed5ee18c7176fdc132d2ef2eb9cd36ea4991d85843855540c065be203df84560a4be53309306d7fdd5fce76c2cc2310ac166bebc27ee109d38f6e192f110f4d5b5e4e1ea807ad18c906dd43b2dee8b8ab40457796514cf5c74cae852f4a3c67f3c3a63fdf1ae2be1ca59dc208f74c32b6ce5b436811131d8c2ca61f8e6c5a4aa531969717f19375ba759bb8eefaef3a028ac87c21390b8b0cdb3ea04887506939864962f30057497777481e9625e07933f72ceef530f166957dd7caaba54bb8f98545d376d08be48de6b57731f48760767624c3c938737aafbababf82c4b99a30c0709fab47f6603748185f0318b04be39faf90303403c6bb714c1804a765ea8bdeb7be3b65223087ba123b8de65da29551946f1af471d932472bb519c30bf01680a76f880e596fc56ba40a82362e4939179aec6128911ba7e1dfe864cfaf6ca276674ff667b8316f3cf7fe828d094f833ebcf54a8e2146a4740625a555d2c603e435a722e6fa097566bec7435ebf8ebd5205333ec3b75b9b16637555ab42751a58dd46c917695b785f3d799bd55c63c17e132b63b1cbe9c3c4fa73405180e1aad08b3ae12c0ddbad8c73fc570a7bba2739d738909d3013b72a2f35883363f45eb33ba33ca2c3dafeed0c8728baeec54c62a7124d33d5c619e4e75c78943bc2dc3e74e3969dc2360f6468ae4bc7c13114d256e515a5efd52a768158145a45f3cebdcdcab12740dd623249de0df26cb4cf585804ec9f033e8d5700957e8b50b2a0d7ab0a1da47d2f5859ac1d722abe58c10772cc144c1808941441634a6585dcbe004b94400f8a1c2a7d9c8ceb6ca5a40825ceb1cb878deb1304718dc3e6cc275fc9d07e0fd3ea0fe269d59f8c9b60317ab48ab3720878297bbf498e121ce559c9c8394e862324561032a3fbbd92a55a31ffa10dc4b960d034e62ec6fff4507ede5b4a6e7f3fad769ccfaa64e9c0f1061f4340f8d9811980ce035c913b1ff93bd7d2684c330b51844efa30b8d6070933e782381daaf910481740335b004f35e5ebcd2f8c3cd54df7d92dcebe827ddcc78df10ee1323b4ef0490b1bcc1f44d260d7664293a430e29defa420dfdf33b2dae55098f3aeee5621dc30fa14b85c64a80f01c7400f4daab664d5ed4b19070427c4fe1baf91f883d8dd38f25e3f88d83f6f34c9ef6f4802bb1c418561e4a462dc91be7e31d935b0afc297bd47b41f0c17ccc87c7441d6bd99f70cfb7b789009b63ea81a4863daef99ea1ff3fec57f0c97e37202914bcbf89f76db28b3ebeb905c93a075fd5a4a23962ed698be1692d949f2f15fbf2160174f5b39bc1dde1148b6d9e7711cfae17ed6d7c75537d22869c68976a286ab7b2c6df6ff87466e50099bb62b9d97331ddb06fd76be72324b9bbebc1239af22caae4c8f165983ecae9961840229f21869316206626f722644c8fbfceeed7103bf6b81b255f718230e264b7e2acd9a57d3a9cbd6d35422f4aaedf207518c06b7cd1b17f00663ebffd8807037d6066f5fe43b4e92011149728009b8b3fce13d0a9eebc479094c4c873c93f6e6247ca4eba9b80dc649cc885ec6ed8952f4f29594817849028ed5b454c22ad9f67944950f089c835013d174fe6313b0b0b215d8674e53512d06afc1703aaa0d55c2b9acb8821ecbbaf7726b98502cbc837979fa60869004c5edf5a2791bb034bc66cc06550dff14acf549"
      ],
      "sequence": 4294967294
    }
  ],
  "vout": [
    {
      "value": 1.0,
      "n": 0,
      "scriptPubKey": {
        "asm": "OP_RETURN 0ddcee85303d207b2553a41b28162eaa4c16671bf261e1ebf952b9c9f8dfd9e5 6f6ba57565abf82131f449a637877ed429b4882020d3443b8965b219b7da48f24f4b8555458bd80111d4698617a75ef40994a80000f3641ba945923997fa68d22f2be53525ebb86171b409e677c73e9469f4c8606093047bc925f259f79a08b20f0bc51505cb9841519429c657e71eb449d4e84040b3245be905d279d7ba2892efeb25f5e52b78a1b174c926b707fe54a93408a0a053c4bb09e53299375ac872cfcb05d5c50b58819154e9069727de74891428808073e49b29c512b9177ae852afab65b5a56b38e1f1348966f747be14e97448e0e01384fb49a572d9771a88328f8b4595854b18c1d114a946d7679e34c95468c0c033a4db698552f9573aa8126f6ba57565abf82131f449a637877ed429b4882020d3443b8965b219b7da48f24f4b8555458bd80111d4698617a75ef40994a80000f3641ba945923997fa68d22f2be53525ebb86171b409e677c73e9469f4c8606093047bc925f259f79a08b20f0bc51505cb9841519429c657e71eb449d4e84040b3245be905d279d7ba2892efeb25f5e52b78a1b174c926b707fe54a93408a0a053c4bb09e53299375ac872cfcb05d5c50b58819154e9069727de74891428808073e49b29c512b9177ae852afab65b5a56b38e1f1348966f747be14e97448e0e01384fb49a572d9771a88328f8b4595854b18c1d114a946d7679e34c95468c0c033a4db698552f9573aa8126f6ba57565abf82131f449a637877ed429b4882020d3443b8965b219b7da48f24f4b8555458bd80111d4698617a75ef40994a80000f3641ba945923997fa68d22f2be53525ebb86171b409e677c73e9469f4c8606093047bc925f259f79a08b20f0bc51505cb9841519429c657e71eb449d4e84040b3245be905d279d7ba2892efeb25f5e52b78a1b174c926b707fe54a93408a0a053c4bb09e53299375ac872cfcb05d5c50b58819154e9069727de74891428808073e49b29c512b9177ae852afab65b5a56b38e1f1348966f747be14e97448e0e01384fb49a572d9771a88328f8b4595854b18c1d114a946d7679e34c95468c0c033a4db698552f9573aa8126f6ba57565abf82131f449a637877ed429b4882020d3443b8965b219b7da48f24f4b8555458bd80111d4698617a75ef40994a80000f3641ba945923997fa68d22f2be53525ebb86171b409e677c73e9469f4c8606093047bc925f259f79a08b20f0bc51505cb9841519429c657e71eb449d4e84040b3245be905d279d7ba2892efeb25f5e52b78a1b174c926b707fe54a93408a0a053c4bb09e53299375ac872cfcb05d5c50b58819154e9069727de74891428808073e49b29c512b9177ae852afab65b5a56b38e1f1348966f747be14e97448e0e01384fb49a572d9771a88328f8b4595854b18c1d114a946d7679e34c95468c0c033a4db698552f9573aa8126f6ba57565abf82131f449a637877ed429b4882020d3443b8965b219b7da48f24f4b8555458bd80111d4698617a75ef40994a80000f3641ba945923997fa68d22f2be53525ebb86171b409e677c73e9469f4c8606093047bc925f259f79a08b20f0bc51505cb9841519429c657e71eb449d4e84040b3245be905d279d7ba2892efeb25f5e52b78a1b174c926b707fe54df0f6d7a131fef508c39621ef0aa1bc3b4e7b1b11edd116e5a13e6fb7bb54c8d",
        "hex": "6a200ddcee85303d207b2553a41b28162eaa4c16671bf261e1ebf952b9c9f8dfd9e54db0046f6ba57565abf82131f449a637877ed429b4882020d3443b8965b219b7da48f24f4b8555458bd80111d4698617a75ef40994a80000f3641ba945923997fa68d22f2be53525ebb86171b409e677c73e9469f4c8606093047bc925f259f79a08b20f0bc51505cb9841519429c657e71eb449d4e84040b3245be905d279d7ba2892efeb25f5e52b78a1b174c926b707fe54a93408a0a053c4bb09e53299375ac872cfcb05d5c50b58819154e9069727de74891428808073e49b29c512b9177ae852afab65b5a56b38e1f1348966f747be14e97448e0e01384fb49a572d9771a88328f8b4595854b18c1d114a946d7679e34c95468c0c033a4db698552f9573aa8126f6ba57565abf82131f449a637877ed429b4882020d3443b8965b219b7da48f24f4b8555458bd80111d4698617a75ef40994a80000f3641ba945923997fa68d22f2be53525ebb86171b409e677c73e9469f4c8606093047bc925f259f79a08b20f0bc51505cb9841519429c657e71eb449d4e84040b3245be905d279d7ba2892efeb25f5e52b78a1b174c926b707fe54a93408a0a053c4bb09e53299375ac872cfcb05d5c50b58819154e9069727de74891428808073e49b29c512b9177ae852afab65b5a56b38e1f1348966f747be14e97448e0e01384fb49a572d9771a88328f8b4595854b18c1d114a946d7679e34c95468c0c033a4db698552f9573aa8126f6ba57565abf82131f449a637877ed429b4882020d3443b8965b219b7da48f24f4b8555458bd80111d4698617a75ef40994a80000f3641ba945923997fa68d22f2be53525ebb86171b409e677c73e9469f4c8606093047bc925f259f79a08b20f0bc51505cb9841519429c657e71eb449d4e84040b3245be905d279d7ba2892efeb25f5e52b78a1b174c926b707fe54a93408a0a053c4bb09e53299375ac872cfcb05d5c50b58819154e9069727de74891428808073e49b29c512b9177ae852afab65b5a56b38e1f1348966f747be14e97448e0e01384fb49a572d9771a88328f8b4595854b18c1d114a946d7679e34c95468c0c033a4db698552f9573aa8126f6ba57565abf82131f449a637877ed429b4882020d3443b8965b219b7da48f24f4b8555458bd80111d4698617a75ef40994a80000f3641ba945923997fa68d22f2be53525ebb86171b409e677c73e9469f4c8606093047bc925f259f79a08b20f0bc51505cb9841519429c657e71eb449d4e84040b3245be905d279d7ba2892efeb25f5e52b78a1b174c926b707fe54a93408a0a053c4bb09e53299375ac872cfcb05d5c50b58819154e9069727de74891428808073e49b29c512b9177ae852afab65b5a56b38e1f1348966f747be14e97448e0e01384fb49a572d9771a88328f8b4595854b18c1d114a946d7679e34c95468c0c033a4db698552f9573aa8126f6ba57565abf82131f449a637877ed429b4882020d3443b8965b219b7da48f24f4b8555458bd80111d4698617a75ef40994a80000f3641ba945923997fa68d22f2be53525ebb86171b409e677c73e9469f4c8606093047bc925f259f79a08b20f0bc51505cb9841519429c657e71eb449d4e84040b3245be905d279d7ba2892efeb25f5e52b78a1b174c926b707fe54df0f6d7a131fef508c39621ef0aa1bc3b4e7b1b11edd116e5a13e6fb7bb54c8d",
        "type": "nulldata"
      }
    },
    {
      "value": 499990.8479,
      "n": 1,
      "scriptPubKey": {
        "asm": "1 4425c94d8233d82353813a5730056046e68ee50a95cf3fd9435556fa079ae5dd",
        "hex": "51204425c94d8233d82353813a5730056046e68ee50a95cf3fd9435556fa079ae5dd",
        "reqSigs": 1,
        "type": "witness_v1_scripthash",
        "addresses": [
          "3QJmnh"
        ]
      }
    }
  ],
  "blockhash": "b157fe5006ea74e3e2696296011f5383f171fa956e468cbbd84742f98a1af3af",
  "confirmations": 1,
  "time": 1764179051,
  "blocktime": 1764179051
}