{
  "hex": "01000000000101d9c158b56506881956a7db25d2db0c57c2e92d1820b18155d8d6c1bbe9c776460000000000feffffff02907857cc782d0000225120688bf1d800e44dda6157d22676ef1296d1582296d829d2e9465d59d6809a6e1d00e1f50500000000fdd5046a20f5a3d3a1cb97141a0791329f3a9230903dfbc560ab41e7cfcfa557a5d966f77c4db0042c71316732242b51bfdd720beb67eee1834ed38125b2bf0858c46979ba51c17b0c51114712040b719ffd522bcb47cec1a36ef3a105929f2878e449599a71e15b6c31712772646b11ff9d324bab27aea1c30e93c165f2ff4818842939fa11813b4c11510752444b31dfbd126b8b078e81e32eb3e145d2df6838a40919da31a11bacf1b1e7b2a4abd13f5df28b6be76e6103ce5301a5323f88d844e9f93ad141fb8cd191c792848bf11f7dd2ab4bc74e4123ee732185121fa8f864c9d91af161dbecb1f1a7f2e4eb917f1db2cb2ba72e21438e1341e5727fc89804a9b97a9101bbcc91d187d2c4cbb15f3d92eb0b870e0163ae3361c5525fe8b82489995ab1219b2c71316732242b51bfdd720beb67eee1834ed38125b2bf0858c46979ba51c17b0c51114712040b719ffd522bcb47cec1a36ef3a105929f2878e449599a71e15b6c31712772646b11ff9d324bab27aea1c30e93c165f2ff4818842939fa11813b4c11510752444b31dfbd126b8b078e81e32eb3e145d2df6838a40919da31a11bacf1b1e7b2a4abd13f5df28b6be76e6103ce5301a5323f88d844e9f93ad141fb8cd191c792848bf11f7dd2ab4bc74e4123ee732185121fa8f864c9d91af161dbecb1f1a7f2e4eb917f1db2cb2ba72e21438e1341e5727fc89804a9b97a9101bbcc91d187d2c4cbb15f3d92eb0b870e0163ae3361c5525fe8b82489995ab1219b2c71316732242b51bfdd720beb67eee1834ed38125b2bf0858c46979ba51c17b0c51114712040b719ffd522bcb47cec1a36ef3a105929f2878e449599a71e15b6c31712772646b11ff9d324bab27aea1c30e93c165f2ff4818842939fa11813b4c11510752444b31dfbd126b8b078e81e32eb3e145d2df6838a40919da31a11bacf1b1e7b2a4abd13f5df28b6be76e6103ce5301a5323f88d844e9f93ad141fb8cd191c792848bf11f7dd2ab4bc74e4123ee732185121fa8f864c9d91af161dbecb1f1a7f2e4eb917f1db2cb2ba72e21438e1341e5727fc89804a9b97a9101bbcc91d187d2c4cbb15f3d92eb0b870e0163ae3361c5525fe8b82489995ab1219b2c71316732242b51bfdd720beb67eee1834ed38125b2bf0858c46979ba51c17b0c51114712040b719ffd522bcb47cec1a36ef3a105929f2878e449599a71e15b6c31712772646b11ff9d324bab27aea1c30e93c165f2ff4818842939fa11813b4c11510752444b31dfbd126b8b078e81e32eb3e145d2df6838a40919da31a11bacf1b1e7b2a4abd13f5df28b6be76e6103ce5301a5323f88d844e9f93ad141fb8cd191c792848bf11f7dd2ab4bc74e4123ee732185121fa8f864c9d91af161dbecb1f1a7f2e4eb917f1db2cb2ba72e21438e1341e5727fc89804a9b97a9101bbcc91d187d2c4cbb15f3d92eb0b870e0163ae3361c5525fe8b82489995ab1219b2c71316732242b51bfdd720beb67eee1834ed38125b2bf0858c46979ba51c17b0c51114712040b719ffd522bcb47cec1a36ef3a105929f2878e449599a71e15b6c31712772646b11ff9d324bab27aea1c30e93c165f2ff4818842939fa11813b4c11510752444b31dfbd126b8b078e81e32eb3e145d2df6838a40919da31a11bacf1b1e7b2a4abd13f5df28b6be76e61d4ba209baac3a71e9f23cc5e18bbd608cf2a9cf82a0b3b8c79313143f71cbe9702fd750953ceb0886073474d11f04ee21957b8b729174c072338c2d56b5da2f73ce97d42765af58473902e3ae37ecf09e8ab29457a0abad61a1310d1f9201675ff4d6534511a687110044b9d5aab9e9bf2b09c15cf453d6c8d09571069cba5732b41e1c6233390f933979026a0c3d1a1bca73811d64dc73fab4c34784ac8ecc0775758a4e2f35a9858f15526c8cc2382573dc3c097fc0e0da814f1b6e0aa8c43a928a10b79b75c2a0229063d89027d7f1095ea3603a5fb5ab7da47213fb7f4e1835092aaf8e228f9c9fef2dc3d4a126055de0b7fc18bba888031f4fa2a29b79ce220f9c150adb159639b43ad4fa3cfd7839e708e046c57f28ce86424c3db885c05cfa850c37ce51dd7ecc3847113b7993507e00e376f4b47777ade29d27001320c9a574afd8e13897cd09d63a6a9473c2c0922c95799b4f4d29531c43b1c415ef42e086bbac260c78795a576a17a53a3b54ef62e7f23ad2cec03dc5833316a77f50a6128ff72686933a9b0cf484ca09a2f73eb768fef42262499ed1532220c2f80dee59edf7312504fdd30748e50ef4bb8b6e37a1e0e57bbbd419b2622ddf751590fa81c6c8343eccdd695818542140cf1b92419fcc1ebd4dd326ddc6c2acf12d81455bfa39d9ff3db91e8b3704a490b21ee6c0325193f2943f2909e87daee1a11c3e56f5005e68cce3a5fe9e01bbb4e8250b2807853c58e7d4b8fe00c4db0c24012e021411909c47362aa0a83b5b174470ececc803682e01c7f26659a3ef7131971fdffdd66b806a26bf72dcbbc56f97ab46595ccb2fe2a368e6eb40b27f819e00f71dc5299d8907e458533c3822fb930b6c1d88588ade90cf2c7b93b3e222c8033f7469dbe0001fef576ef3912bfdbe2cc4a12d2eeee8ea48cd5644f1a3b02afcd8e7f1e5422789e1dec272179e0bb2f76445f196f230572e66ed0c241bf518b07033e75744488b39bf8844b6f7f2093be0cbc28635226c2f8ad519e2a953f15b58339e3dc41d58718b4bb8a519710b37aa0ee98ae4a0f756852d1d9270a849b41bd3ff15ac63c2cbe06ed868d5a05e1e9facfde013d325f31f071911d2d8344acf13b1cc6eed5883ddc61e96d33d3318b8d99abf8c3db281a154cecae926f1e6bc9637cf8ce435c7a6780b336b036ce78bf9d3862972486ecbf537e8682e7f727b7d5256235940c4ca7b518c6fb5d60531d7e3196e5b67272c56bb4622b383f476a3fd2af2c8cd6153bf0df34603e391885b1e97c3a667362dc4388e15a752b36d843e069b9fd1fec16aa4447c01980c1448a9d4f366a9fe0af025bdc5c3d57c51d680e8895df5b6e7a4daf02562496a4aca6022097a21b30e25426e0fa54aa015a8db24a17914b4f82484b22d2c26f87bb24710e8ce708ff5a06be80cc78c391857dc75e3c9ac3e9ac25cd7163227d2831c26a0a9a221e298495e9726a470d620dcb2756c6b3c160523a5d94524d6889f7807add46af0921bc58a4002b0245e1857220352730357e0a65dfa506fdd3d2c12e4f215175433670aae5ea861b7b66c3a2a07ffcb9e08812533d77308315e02129c447e04ce1465337b46794d40d5c66dc9e9ad180548871c4bbf13d350391d09bed8e864c82e23c3b8cc153487f3815290d9bda634bcc04573319996d095451fda44ff72a2ab857d54d200656132a93f5c4491c079338c9d51b77257c3e5b409c31311e62da11d2d76453a1951f87a3654ce710548375dab1ceda2607500d6e1f02eb8daf08e3d7101548e57eb67e3310b94acd81cf295e0e1be9547f3eae2ce3097476b8e4f83cfd96195c5376781a9890fd013d02fb408f7fa5265dfcf2c987cd0ff5ca75f5c9f0f8965b8f791488163e406a1aa3595fadaf872837effd80c267f60398031a76a3b3cfc1d039a109b32cc4f832a7c0863e70dbc13aa1ad6e9c2bee3fc28ccd0df05bbd04b50ee8836091370573415b156b535b8c667d9a5cac16ea87d44b0ce496ccc0ccad35a01dff854520e09eebbe52e333c0f2b1493a3f3a52f25f704917f0b1a991207e6fd52abc450fd415e2f28cb11d224779dd11254e4b540a0ff9a389dc54de6b0e9fb07b5adf5e8df0737f6b0894bc016bef5e6984d687a087567ea17caa7166d289874e8ab8b319a12e0f6a534e77ea4b556f2b5d6343a36ecf8c90b34f175fcf40a6cbc85cece0665556ad9636993fecaaf4a154243f2a404591330b351d27f94df99e3fb71de6bef3ea249ee82bcbd255bd10c44ac22b4017129aa56d33fbe887d171a9f435a87abbdab03c87812b96b30d6c035d1a09f690af4da5521645ed487c876c10bddf5b2e9dcb35a1ed3ad6e7369e26334b3a94506442025cf58eed9ea10a08b1b6cfa46b8ec8311eae2bac0dc6c8a765f58aa5347fe797003888347466f7edf0eba9cd6065acb7e3dc9c933732c107caec8f26132e753944a716f86a3fe512f23dd95df3de9f1e8c3cdc35a09b848e8ccd4b0f88953bd442b216b43bef57a87a01ed22dcf59a2c3854f7040b917b0ae92bb484cdd499657418ac2471a0e1ac09d638e5021bdc965586964e26b37538145274631c684e983d7440ece5f7359205a501682a32d838343ac1a68383639d2fa50757ee8ecc2cb300299202bf3260777ad9ca13bc03f2bdd70be821d23b19cd035fe77d833650a99831940996358b8285ca8768dc7f9d90d8d04ee746af50727f541dc3cb300f0e7f1802abf582abda3e837819cf5702f6939230dbaacca252849d3edb3a20196095de4b256e71bca5effb38b9882a093bb754797cd2d369b80b885c7a013dc301c01f7c85068d04499d9a0405e667e87c6023a26fac281bcea29f36ea4074d0810065c2940f22ad2b65c5564b4c72b9040b48cfac1fe174012e7895453017bda6afc6af39c4b6eb68808af2f4ead036d3f72ba7ff16ea3edc8f2f3eae684c404f602bf45bc3faaea5134616c0afcecbc31735e6dcf87161d8c09f086a572ee9e0f4cddd11d96a950653288433088bf65e0cf8408304b7aa79a2261a6a6077e970be612730d718fb3e789693b27cf6442562630a0e36ca4839a68269a973831eebf87e679bd649c0ca8838bfb00dd15a7f9e0762cb7853bcb9cb8a9a03d64961800a8a0f047822f3e43036d6c7de0c34b52b1ec2c571997a2cf01434c91c708df29fe6746518f5d49d53e243e71df2a185a82acdaf4de36a2c91bcc3cc0ac53802a36e86300993aaf35098f276f40f385050a8dec67e7871d2c05b0107a95788da3711cc391778a2bae978110cb506a298410510eab7770261867ea1d6e5f1313aad305b4962a600030e677292a1a3a9b8bdccdee40126353e4249576061767995969aa7abee15184b555d6d72769ba0d0d12833343a6475838889b6c2ddf1f500000000000000000000000000000000000000000000000e1f2b3901fd21050011e24cb28c02cad48c606c9a6cff774e061184d30e943980ff4739a59d04fa9c6316874821fb9c4da6d7667be6ac4881740f12e9be9ac4771caef5fbccad3859ed1ebb8f1cc6875ea1465ff3cea272a00b1d45077b7bf33779c3a878dcb7ebd3934680af16ca29b146d2d9a89d68d2b5fe8bed5dca66a50d7c9e43b3c7de27ba0f1926ae247aab3e34306dc5835697885115c785121c763f1cf34efb4a819a13388afd40f64ba64c784e9cffd8d0260ec6140c82cbdd6435fcaf91577aeda0255197f379b6a86521627d8355073062a5de117af0a7d3cb53d89b136eacccf508f83797b8b407bceac376ea01cb870457717deebbf98fa2a430de13a39fe5c8ca716533312ef778bf728d43852ef9600e5dd68bd32c2055c07e2a71c73ccb90718ffb73151b3cb2a4a24e9fdcadf2ad95ee7ced0336f4b285d23b945ee6214c965c40d34e1037f4eaa381b63d5bf7ee9a026d707d6895f1488ceb86821531d6cf9b432f520a8cbebb61bdf7336002f200e28dd21dc0dfc48729e91a9cede48761217305cba76913340f013b06b6b82547a37181eaa7f62462165dab233bb810aaa555926c3c3a2896c5c9a08a89e1a05ce65ef2140ac337c7514493840a388c6677e934f9394e42b8d7ccbcccb51f9673ebb787af5a24a7ccbd0f19b76f29909dfb52c8b41b2681439dac96037cd7de9806d9db573e87a2796ba1c03a143ce44b9e16f7609ecdd9b131e38b60ca4748f59f3945c42fdb1724bc85130cee25e01803141805c61264e9e31defa1ae05ceb38f8ebd751e6301bb7575d5961e3551360ec51a59ff325903ddc263155d3ad1c2a3ca7c29a920468757b4789ed31381471e69716577849910b813d5fb000a1cf8bc834982ccb150d0d87dcc5897327f3b1dc3b4595d0dfd20a84b41929a8042f299c28e6671f35f67a0e0ebbae08b373c26e299bfdad189f2a1b3d10f5a4c5ce83a50300f76706ff037e41b1735fd91bae462b74015fb9babcfa93f6b97809fd47564839d9042bcafebaf6d2cfb4fa0daa51a9ba3693c718f6748d491fc543df9e2e5fef3bb366be3c50a95aa67d3aaad14ce1d2fd541ffa9a6f75612cfd3eadf527977ea488336f9959dcc363dd880c54dc6628d7e0948f6657bdf782316aaec667c98dd3ee4130bc562a0c3ea4569434a96917c0d7cc572a3e403aa9c168142f339e39a56a4de393f8ad0694e6ab99dc133723c5269596d09278066ab73b9cfc962133aac644c181de6e61b40a0eeaa6d74b663ef759175f1f5e92d663dcceeb0850fb159e4520eaf9106bbea5a2ee083327129d778393cdc6990b87101058d611aa404d5f9b06d30865fc9b7f993b51fb86a7043e414520f9e395f1d2b443e48d0f3f8a7e9a2681b19d539ad16cfccdd9dee92e666d7d21818823eee8eb205d379def0f9fca3c86ee9d2446931ddc4e401c9ab3673cf230a103a78db949c768e9952f292a4fcc3f54d6e381152460893c0c58ff03138e95b496f270232cf33eb88a88eca0a09989337fd6c5b77629df7fdbfd9858fb345df97c09792d42a9c34256fbbb472dff80f272a744dce47f9c67db6f76b31b686ea54a9ef970565fe470fbc1c9b363a76f74a71738ce58c34071f6d8369ad495d38b00f6bad2ce57a9afb508964d2fd5e4db3f78fc1855155cbe0e44b6ad9e1b18aaec9123c5fe8f5cc4e56ae6aa15eaf72dc8c0d3d72e90e6d4a12f4f3fce1f8d18d96c2d49784d934aaee3067d451a0c7029b1becbc15b5b6be5bf264eddc30c2b54ceb7232dc2edcbb0aee466a08dfd819e9d0b0298df46ec743190fbb426602a19a02971128acb1dd5c7164b112f11190f918f4bff7f481000000",
  "txid": "dddbae2bcf4e6c2609e8c37e76090f0aafc18fc271c7e9a892272e8cf0b2c66f",
  "hash": "e33a2c741c126033d39c3bfc4e3ee4a371162e1fe49e12888e274171417bfe7b",
  "size": 5085,
  "vsize": 2278,
  "version": 1,
  "locktime": 129,
  "vin": [
    {
      "txid": "4676c7e9bbc1d6d85581b120182de9c2570cdbd225dba75619880665b558c1d9",
      "vout": 0,
      "scriptSig": {
        "asm": "",
        "hex": ""
      },
      "txinwitness": [
        "53ceb0886073474d11f04ee21957b8b729174c072338c2d56b5da2f73ce97d42765af58473902e3ae37ecf09e8ab29457a0abad61a1310d1f9201675ff4d6534511a687110044b9d5aab9e9bf2b09c15cf453d6c8d09571069cba5732b41e1c6233390f933979026a0c3d1a1bca73811d64dc73fab4c34784ac8ecc0775758a4e2f35a9858f15526c8cc2382573dc3c097fc0e0da814f1b6e0aa8c43a928a10b79b75c2a0229063d89027d7f1095ea3603a5fb5ab7da47213fb7f4e1835092aaf8e228f9c9fef2dc3d4a126055de0b7fc18bba888031f4fa2a29b79ce220f9c150adb159639b43ad4fa3cfd7839e708e046c57f28ce86424c3db885c05cfa850c37ce51dd7ecc3847113b7993507e00e376f4b47777ade29d27001320c9a574afd8e13897cd09d63a6a9473c2c0922c95799b4f4d29531c43b1c415ef42e086bbac260c78795a576a17a53a3b54ef62e7f23ad2cec03dc5833316a77f50a6128ff72686933a9b0cf484ca09a2f73eb768fef42262499ed1532220c2f80dee59edf7312504fdd30748e50ef4bb8b6e37a1e0e57bbbd419b2622ddf751590fa81c6c8343eccdd695818542140cf1b92419fcc1ebd4dd326ddc6c2acf12d81455bfa39d9ff3db91e8b3704a490b21ee6c0325193f2943f2909e87daee1a11c3e56f5005e68cce3a5fe9e01bbb4e8250b2807853c58e7d4b8fe00c4db0c24012e021411909c47362aa0a83b5b174470ececc803682e01c7f26659a3ef7131971fdffdd66b806a26bf72dcbbc56f97ab46595ccb2fe2a368e6eb40b27f819e00f71dc5299d8907e458533c3822fb930b6c1d88588ade90cf2c7b93b3e222c8033f7469dbe0001fef576ef3912bfdbe2cc4a12d2eeee8ea48cd5644f1a3b02afcd8e7f1e5422789e1dec272179e0bb2f76445f196f230572e66ed0c241bf518b07033e75744488b39bf8844b6f7f2093be0cbc28635226c2f8ad519e2a953f15b58339e3dc41d58718b4bb8a519710b37aa0ee98ae4a0f756852d1d9270a849b41bd3ff15ac63c2cbe06ed868d5a05e1e9facfde013d325f31f071911d2d8344acf13b1cc6eed5883ddc61e96d33d3318b8d99abf8c3db281a154cecae926f1e6bc9637cf8ce435c7a6780b336b036ce78bf9d3862972486ecbf537e8682e7f727b7d5256235940c4ca7b518c6fb5d60531d7e3196e5b67272c56bb4622b383f476a3fd2af2c8cd6153bf0df34603e391885b1e97c3a667362dc4388e15a752b36d843e069b9fd1fec16aa4447c01980c1448a9d4f366a9fe0af025bdc5c3d57c51d680e8895df5b6e7a4daf02562496a4aca6022097a21b30e25426e0fa54aa015a8db24a17914b4f82484b22d2c26f87bb24710e8ce708ff5a06be80cc78c391857dc75e3c9ac3e9ac25cd7163227d2831c26a0a9a221e298495e9726a470d620dcb2756c6b3c160523a5d94524d6889f7807add46af0921bc58a4002b0245e1857220352730357e0a65dfa506fdd3d2c12e4f215175433670aae5ea861b7b66c3a2a07ffcb9e08812533d77308315e02129c447e04ce1465337b46794d40d5c66dc9e9ad180548871c4bbf13d350391d09bed8e864c82e23c3b8cc153487f3815290d9bda634bcc04573319996d095451fda44ff72a2ab857d54d200656132a93f5c4491c079338c9d51b77257c3e5b409c31311e62da11d2d76453a1951f87a3654ce710548375dab1ceda2607500d6e1f02eb8daf08e3d7101548e57eb67e3310b94acd81cf295e0e1be9547f3eae2ce3097476b8e4f83cfd96195c5376781a9890fd013d02fb408f7fa5265dfcf2c987cd0ff5ca75f5c9f0f8965b8f791488163e406a1aa3595fadaf872837effd80c267f60398031a76a3b3cfc1d039a109b32cc4f832a7c0863e70dbc13aa1ad6e9c2bee3fc28ccd0df05bbd04b50ee8836091370573415b156b535b8c667d9a5cac16ea87d44b0ce496ccc0ccad35a01dff854520e09eebbe52e333c0f2b1493a3f3a52f25f704917f0b1a991207e6fd52abc450fd415e2f28cb11d224779dd11254e4b540a0ff9a389dc54de6b0e9fb07b5adf5e8df0737f6b0894bc016bef5e6984d687a087567ea17caa7166d289874e8ab8b319a12e0f6a534e77ea4b556f2b5d6343a36ecf8c90b34f175fcf40a6cbc85cece0665556ad9636993fecaaf4a154243f2a404591330b351d27f94df99e3fb71de6bef3ea249ee82bcbd255bd10c44ac22b4017129aa56d33fbe887d171a9f435a87abbdab03c87812b96b30d6c035d1a09f690af4da5521645ed487c876c10bddf5b2e9dcb35a1ed3ad6e7369e26334b3a94506442025cf58eed9ea10a08b1b6cfa46b8ec8311eae2bac0dc6c8a765f58aa5347fe797003888347466f7edf0eba9cd6065acb7e3dc9c933732c107caec8f26132e753944a716f86a3fe512f23dd95df3de9f1e8c3cdc35a09b848e8ccd4b0f88953bd442b216b43bef57a87a01ed22dcf59a2c3854f7040b917b0ae92bb484cdd499657418ac2471a0e1ac09d638e5021bdc965586964e26b37538145274631c684e983d7440ece5f7359205a501682a32d838343ac1a68383639d2fa50757ee8ecc2cb300299202bf3260777ad9ca13bc03f2bdd70be821d23b19cd035fe77d833650a99831940996358b8285ca8768dc7f9d90d8d04ee746af50727f541dc3cb300f0e7f1802abf582abda3e837819cf5702f6939230dbaacca252849d3edb3a20196095de4b256e71bca5effb38b9882a093bb754797cd2d369b80b885c7a013dc301c01f7c85068d04499d9a0405e667e87c6023a26fac281bcea29f36ea4074d0810065c2940f22ad2b65c5564b4c72b9040b48cfac1fe174012e7895453017bda6afc6af39c4b6eb68808af2f4ead036d3f72ba7ff16ea3edc8f2f3eae684c404f602bf45bc3faaea5134616c0afcecbc31735e6dcf87161d8c09f086a572ee9e0f4cddd11d96a950653288433088bf65e0cf8408304b7aa79a2261a6a6077e970be612730d718fb3e789693b27cf6442562630a0e36ca4839a68269a973831eebf87e679bd649c0ca8838bfb00dd15a7f9e0762cb7853bcb9cb8a9a03d64961800a8a0f047822f3e43036d6c7de0c34b52b1ec2c571997a2cf01434c91c708df29fe6746518f5d49d53e243e71df2a185a82acdaf4de36a2c91bcc3cc0ac53802a36e86300993aaf35098f276f40f385050a8dec67e7871d2c05b0107a95788da3711cc391778a2bae978110cb506a298410510eab7770261867ea1d6e5f1313aad305b4962a600030e677292a1a3a9b8bdccdee40126353e4249576061767995969aa7abee15184b555d6d72769ba0d0d12833343a6475838889b6c2ddf1f500000000000000000000000000000000000000000000000e1f2b3901",
        "0011e24cb28c02cad48c606c9a6cff774e061184d30e943980ff4739a59d04fa9c6316874821fb9c4da6d7667be6ac4881740f12e9be9ac4771caef5fbccad3859ed1ebb8f1cc6875ea1465ff3cea272a00b1d45077b7bf33779c3a878dcb7ebd3934680af16ca29b146d2d9a89d68d2b5fe8bed5dca66a50d7c9e43b3c7de27ba0f1926ae247aab3e34306dc5835697885115c785121c763f1cf34efb4a819a13388afd40f64ba64c784e9cffd8d0260ec6140c82cbdd6435fcaf91577aeda0255197f379b6a86521627d8355073062a5de117af0a7d3cb53d89b136eacccf508f83797b8b407bceac376ea01cb870457717deebbf98fa2a430de13a39fe5c8ca716533312ef778bf728d43852ef9600e5dd68bd32c2055c07e2a71c73ccb90718ffb73151b3cb2a4a24e9fdcadf2ad95ee7ced0336f4b285d23b945ee6214c965c40d34e1037f4eaa381b63d5bf7ee9a026d707d6895f1488ceb86821531d6cf9b432f520a8cbebb61bdf7336002f200e28dd21dc0dfc48729e91a9cede48761217305cba76913340f013b06b6b82547a37181eaa7f62462165dab233bb810aaa555926c3c3a2896c5c9a08a89e1a05ce65ef2140ac337c7514493840a388c6677e934f9394e42b8d7ccbcccb51f9673ebb787af5a24a7ccbd0f19b76f29909dfb52c8b41b2681439dac96037cd7de9806d9db573e87a2796ba1c03a143ce44b9e16f7609ecdd9b131e38b60ca4748f59f3945c42fdb1724bc85130cee25e01803141805c61264e9e31defa1ae05ceb38f8ebd751e6301bb7575d5961e3551360ec51a59ff325903ddc263155d3ad1c2a3ca7c29a920468757b4789ed31381471e69716577849910b813d5fb000a1cf8bc834982ccb150d0d87dcc5897327f3b1dc3b4595d0dfd20a84b41929a8042f299c28e6671f35f67a0e0ebbae08b373c26e299bfdad189f2a1b3d10f5a4c5ce83a50300f76706ff037e41b1735fd91bae462b74015fb9babcfa93f6b97809fd47564839d9042bcafebaf6d2cfb4fa0daa51a9ba3693c718f6748d491fc543df9e2e5fef3bb366be3c50a95aa67d3aaad14ce1d2fd541ffa9a6f75612cfd3eadf527977ea488336f9959dcc363dd880c54dc6628d7e0948f6657bdf782316aaec667c98dd3ee4130bc562a0c3ea4569434a96917c0d7cc572a3e403aa9c168142f339e39a56a4de393f8ad0694e6ab99dc133723c5269596d09278066ab73b9cfc962133aac644c181de6e61b40a0eeaa6d74b663ef759175f1f5e92d663dcceeb0850fb159e4520eaf9106bbea5a2ee083327129d778393cdc6990b87101058d611aa404d5f9b06d30865fc9b7f993b51fb86a7043e414520f9e395f1d2b443e48d0f3f8a7e9a2681b19d539ad16cfccdd9dee92e666d7d21818823eee8eb205d379def0f9fca3c86ee9d2446931ddc4e401c9ab3673cf230a103a78db949c768e9952f292a4fcc3f54d6e381152460893c0c58ff03138e95b496f270232cf33eb88a88eca0a09989337fd6c5b77629df7fdbfd9858fb345df97c09792d42a9c34256fbbb472dff80f272a744dce47f9c67db6f76b31b686ea54a9ef970565fe470fbc1c9b363a76f74a71738ce58c34071f6d8369ad495d38b00f6bad2ce57a9afb508964d2fd5e4db3f78fc1855155cbe0e44b6ad9e1b18aaec9123c5fe8f5cc4e56ae6aa15eaf72dc8c0d3d72e90e6d4a12f4f3fce1f8d18d96c2d49784d934aaee3067d451a0c7029b1becbc15b5b6be5bf264eddc30c2b54ceb7232dc2edcbb0aee466a08dfd819e9d0b0298df46ec743190fbb426602a19a02971128acb1dd5c7164b112f11190f918f4bff7f4"
      ],
      "sequence": 4294967294
    }
  ],
  "vout": [
    {
      "value": 499968.4761,
      "n": 0,
      "scriptPubKey": {
        "asm": "1 688bf1d800e44dda6157d22676ef1296d1582296d829d2e9465d59d6809a6e1d",
        "hex": "5120688bf1d800e44dda6157d22676ef1296d1582296d829d2e9465d59d6809a6e1d",
        "reqSigs": 1,
        "type": "witness_v1_scripthash",
        "addresses": [
          "3QJmnh"
        ]
      }
    },
    {
      "value": 1.0,
      "n": 1,
      "scriptPubKey": {
        "asm": "OP_RETURN f5a3d3a1cb97141a0791329f3a9230903dfbc560ab41e7cfcfa557a5d966f77c 2c71316732242b51bfdd720beb67eee1834ed38125b2bf0858c46979ba51c17b0c51114712040b719ffd522bcb47cec1a36ef3a105929f2878e449599a71e15b6c31712772646b11ff9d324bab27aea1c30e93c165f2ff4818842939fa11813b4c11510752444b31dfbd126b8b078e81e32eb3e145d2df6838a40919da31a11bacf1b1e7b2a4abd13f5df28b6be76e6103ce5301a5323f88d844e9f93ad141fb8cd191c792848bf11f7dd2ab4bc74e4123ee732185121fa8f864c9d91af161dbecb1f1a7f2e4eb917f1db2cb2ba72e21438e1341e5727fc89804a9b97a9101bbcc91d187d2c4cbb15f3d92eb0b870e0163ae3361c5525fe8b82489995ab1219b2c71316732242b51bfdd720beb67eee1834ed38125b2bf0858c46979ba51c17b0c51114712040b719ffd522bcb47cec1a36ef3a105929f2878e449599a71e15b6c31712772646b11ff9d324bab27aea1c30e93c165f2ff4818842939fa11813b4c11510752444b31dfbd126b8b078e81e32eb3e145d2df6838a40919da31a11bacf1b1e7b2a4abd13f5df28b6be76e6103ce5301a5323f88d844e9f93ad141fb8cd191c792848bf11f7dd2ab4bc74e4123ee732185121fa8f864c9d91af161dbecb1f1a7f2e4eb917f1db2cb2ba72e21438e1341e5727fc89804a9b97a9101bbcc91d187d2c4cbb15f3d92eb0b870e0163ae3361c5525fe8b82489995ab1219b2c71316732242b51bfdd720beb67eee1834ed38125b2bf0858c46979ba51c17b0c51114712040b719ffd522bcb47cec1a36ef3a105929f2878e449599a71e15b6c31712772646b11ff9d324bab27aea1c30e93c165f2ff4818842939fa11813b4c11510752444b31dfbd126b8b078e81e32eb3e145d2df6838a40919da31a11bacf1b1e7b2a4abd13f5df28b6be76e6103ce5301a5323f88d844e9f93ad141fb8cd191c792848bf11f7dd2ab4bc74e4123ee732185121fa8f864c9d91af161dbecb1f1a7f2e4eb917f1db2cb2ba72e21438e1341e5727fc89804a9b97a9101bbcc91d187d2c4cbb15f3d92eb0b870e0163ae3361c5525fe8b82489995ab1219b2c71316732242b51bfdd720beb67eee1834ed38125b2bf0858c46979ba51c17b0c51114712040b719ffd522bcb47cec1a36ef3a105929f2878e449599a71e15b6c31712772646b11ff9d324bab27aea1c30e93c165f2ff4818842939fa11813b4c11510752444b31dfbd126b8b078e81e32eb3e145d2df6838a40919da31a11bacf1b1e7b2a4abd13f5df28b6be76e6103ce5301a5323f88d844e9f93ad141fb8cd191c792848bf11f7dd2ab4bc74e4123ee732185121fa8f864c9d91af161dbecb1f1a7f2e4eb917f1db2cb2ba72e21438e1341e5727fc89804a9b97a9101bbcc91d187d2c4cbb15f3d92eb0b870e0163ae3361c5525fe8b82489995ab1219b2c71316732242b51bfdd720beb67eee1834ed38125b2bf0858c46979ba51c17b0c51114712040b719ffd522bcb47cec1a36ef3a105929f2878e449599a71e15b6c31712772646b11ff9d324bab27aea1c30e93c165f2ff4818842939fa11813b4c11510752444b31dfbd126b8b078e81e32eb3e145d2df6838a40919da31a11bacf1b1e7b2a4abd13f5df28b6be76e61d4ba209baac3a71e9f23cc5e18bbd608cf2a9cf82a0b3b8c79313143f71cbe97",
        "hex": "6a20f5a3d3a1cb97141a0791329f3a9230903dfbc560ab41e7cfcfa557a5d966f77c4db0042c71316732242b51bfdd720beb67eee1834ed38125b2bf0858c46979ba51c17b0c51114712040b719ffd522bcb47cec1a36ef3a105929f2878e449599a71e15b6c31712772646b11ff9d324bab27aea1c30e93c165f2ff4818842939fa11813b4c11510752444b31dfbd126b8b078e81e32eb3e145d2df6838a40919da31a11bacf1b1e7b2a4abd13f5df28b6be76e6103ce5301a5323f88d844e9f93ad141fb8cd191c792848bf11f7dd2ab4bc74e4123ee732185121fa8f864c9d91af161dbecb1f1a7f2e4eb917f1db2cb2ba72e21438e1341e5727fc89804a9b97a9101bbcc91d187d2c4cbb15f3d92eb0b870e0163ae3361c5525fe8b82489995ab1219b2c71316732242b51bfdd720beb67eee1834ed38125b2bf0858c46979ba51c17b0c51114712040b719ffd522bcb47cec1a36ef3a105929f2878e449599a71e15b6c31712772646b11ff9d324bab27aea1c30e93c165f2ff4818842939fa11813b4c11510752444b31dfbd126b8b078e81e32eb3e145d2df6838a40919da31a11bacf1b1e7b2a4abd13f5df28b6be76e6103ce5301a5323f88d844e9f93ad141fb8cd191c792848bf11f7dd2ab4bc74e4123ee732185121fa8f864c9d91af161dbecb1f1a7f2e4eb917f1db2cb2ba72e21438e1341e5727fc89804a9b97a9101bbcc91d187d2c4cbb15f3d92eb0b870e0163ae3361c5525fe8b82489995ab1219b2c71316732242b51bfdd720beb67eee1834ed38125b2bf0858c46979ba51c17b0c51114712040b719ffd522bcb47cec1a36ef3a105929f2878e449599a71e15b6c31712772646b11ff9d324bab27aea1c30e93c165f2ff4818842939fa11813b4c11510752444b31dfbd126b8b078e81e32eb3e145d2df6838a40919da31a11bacf1b1e7b2a4abd13f5df28b6be76e6103ce5301a5323f88d844e9f93ad141fb8cd191c792848bf11f7dd2ab4bc74e4123ee732185121fa8f864c9d91af161dbecb1f1a7f2e4eb917f1db2cb2ba72e21438e1341e5727fc89804a9b97a9101bbcc91d187d2c4cbb15f3d92eb0b870e0163ae3361c5525fe8b82489995ab1219b2c71316732242b51bfdd720beb67eee1834ed38125b2bf0858c46979ba51c17b0c51114712040b719ffd522bcb47cec1a36ef3a105929f2878e449599a71e15b6c31712772646b11ff9d324bab27aea1c30e93c165f2ff4818842939fa11813b4c11510752444b31dfbd126b8b078e81e32eb3e145d2df6838a40919da31a11bacf1b1e7b2a4abd13f5df28b6be76e6103ce5301a5323f88d844e9f93ad141fb8cd191c792848bf11f7dd2ab4bc74e4123ee732185121fa8f864c9d91af161dbecb1f1a7f2e4eb917f1db2cb2ba72e21438e1341e5727fc89804a9b97a9101bbcc91d187d2c4cbb15f3d92eb0b870e0163ae3361c5525fe8b82489995ab1219b2c71316732242b51bfdd720beb67eee1834ed38125b2bf0858c46979ba51c17b0c51114712040b719ffd522bcb47cec1a36ef3a105929f2878e449599a71e15b6c31712772646b11ff9d324bab27aea1c30e93c165f2ff4818842939fa11813b4c11510752444b31dfbd126b8b078e81e32eb3e145d2df6838a40919da31a11bacf1b1e7b2a4abd13f5df28b6be76e61d4ba209baac3a71e9f23cc5e18bbd608cf2a9cf82a0b3b8c79313143f71cbe97",
        "type": "nulldata"
      }
    }
  ],
  "blockhash": "e950f66e7d48487e03ac7a1b4e7864aa28758accf0e3d98358cdf64a352531e0",
  "confirmations": 1,
  "time": 1764181937,
  "blocktime": 1764181937
}