{
  "hex": "01000000000101d025dd6d7369c4425a5957237a0f1cac45a8078afd213226ae5a7ec9228731470000000000feffffff02c0cc030f792d0000225120bf017d100631b5fbdcc66b7f460ff8e8c7cdc007cab2b4072df1f9361d09060a00e1f50500000000fdd5046a20ca9656367eba306e0081722b0260235d02f49955f4b24e0faecc2e475acf38894db00433d27d24f07ebad36dd8dbea45da8475b17137a497abdd48cc70eab9c815472213f25d04d05e9af34df8fbca65faa45591511784b78bfd68ec50ca99e835670273923d64b03efa932d989baa059ac435f13177e4d7eb9d088c30aaf98855076253b21d44901edab30db8bb8a25bae415d11157c4f7cbbd28ac108ad9a8752742b352fda470fe3a53ed585b6ac55a04f531f1b724172b5dc84cf06a394895c7a29372dd8450de1a73cd787b4ae57a24d511d19704370b7de86cd04a1968b5e782f312bde430be7a13ad181b2a851a44b571b1f764576b1d880cb02a7908d587e2d3329dc4109e5a338d383b0aa53a64955191d744774b3da82c900a5928f5a7c233d27d24f07ebad36dd8dbea45da8475b17137a497abdd48cc70eab9c815472213f25d04d05e9af34df8fbca65faa45591511784b78bfd68ec50ca99e835670273923d64b03efa932d989baa059ac435f13177e4d7eb9d088c30aaf98855076253b21d44901edab30db8bb8a25bae415d11157c4f7cbbd28ac108ad9a8752742b352fda470fe3a53ed585b6ac55a04f531f1b724172b5dc84cf06a394895c7a29372dd8450de1a73cd787b4ae57a24d511d19704370b7de86cd04a1968b5e782f312bde430be7a13ad181b2a851a44b571b1f764576b1d880cb02a7908d587e2d3329dc4109e5a338d383b0aa53a64955191d744774b3da82c900a5928f5a7c233d27d24f07ebad36dd8dbea45da8475b17137a497abdd48cc70eab9c815472213f25d04d05e9af34df8fbca65faa45591511784b78bfd68ec50ca99e835670273923d64b03efa932d989baa059ac435f13177e4d7eb9d088c30aaf98855076253b21d44901edab30db8bb8a25bae415d11157c4f7cbbd28ac108ad9a8752742b352fda470fe3a53ed585b6ac55a04f531f1b724172b5dc84cf06a394895c7a29372dd8450de1a73cd787b4ae57a24d511d19704370b7de86cd04a1968b5e782f312bde430be7a13ad181b2a851a44b571b1f764576b1d880cb02a7908d587e2d3329dc4109e5a338d383b0aa53a64955191d744774b3da82c900a5928f5a7c233d27d24f07ebad36dd8dbea45da8475b17137a497abdd48cc70eab9c815472213f25d04d05e9af34df8fbca65faa45591511784b78bfd68ec50ca99e835670273923d64b03efa932d989baa059ac435f13177e4d7eb9d088c30aaf98855076253b21d44901edab30db8bb8a25bae415d11157c4f7cbbd28ac108ad9a8752742b352fda470fe3a53ed585b6ac55a04f531f1b724172b5dc84cf06a394895c7a29372dd8450de1a73cd787b4ae57a24d511d19704370b7de86cd04a1968b5e782f312bde430be7a13ad181b2a851a44b571b1f764576b1d880cb02a7908d587e2d3329dc4109e5a338d383b0aa53a64955191d744774b3da82c900a5928f5a7c233d27d24f07ebad36dd8dbea45da8475b17137a497abdd48cc70eab9c815472213f25d04d05e9af34df8fbca65faa45591511784b78bfd68ec50ca99e835670273923d64b03efa932d989baa059ac435f13177e4d7eb9d088c30aaf98855076253b21d44901edab30db8bb8a25bae415d11157c4f7cbbd28ac108ad9a8752742b352fda470fe3a53ed585b6ac55a04f51ea418372d87cba237e9c0517b515dedef344bc4b108a5e7e1108ced0727d84a02fd750937155e41be36d7cf532f13fe1d3e5dba29620058fb26de8c065ca93ca983ff5b4270935dd3c8676796f9cd7ce6daf73f0736520c7c0ff522546870c5df3b3b5819ca81e0786be4ff465c4a64be40af6554fbd120dfbb508e9b00ec6349eaa62d73c72bcce178076c926c05abb36004e8db5c7ed6806ceb101167e868904e0c893cb6e56418bee916d119f03e3abba1e60ff62925ab3c849d42950db3eba757237dfd9c495e430b053d830143d36591b2fa9d9b2981d75e5826a876a9836036e315e2aaac417e73eafe033aeb24e5855b53f4994b6fecd51d530437312596f0f376a1eca6925594dbdc71b469f2c7995f42f625f18335ffc6077004cbd8db9c9b95f63993fa53d6d79f051744e2e1713e502d62c5cbbcb611cde99e3007cfebed2e0ed1fe632f91ebdf7b0af1d6d69f29328f9b5379893490f09d509b4b6c1e4939c6c566a149e5c3d41b3939752e7a82ec76198bc5f38b408b6c46d78925408906b90eb9fb17a01e094ec013c3cb79f2cbcb0206046859aefb39996d175d13cd4d0e2824f1f8a7ba39aa5bf1fb8227b7b3dd478be31cf39ad32576cdda1a0354cc863f9678cde3321b8e05dae5d63094499196b4a652fc67c41690e7cb4d0f571071aa6ba19f0f796339c35896548c4cda3bbc4843e67f72d6fa94b9f4c3646824749a4eddecd5789f22967b2aaf0bbb6b745e4d66fb34153af6d9a5b2c6d6aea29dc7aae95e6443dea36ded19d22c34739d886cedbe11cb3511c34b211971544a49d6f20fcde993a2e9adf18a570e5a2f5b07f6e3b75e91f6741a42884e847f49d59465d3d254ac9378f2b4cf422fadbc297de934b4ccc4d43f7d1f2b8e386f7727f031948f19ec1d9c2396c4e01ba2a240d7a424a8e1d988eb2fb050a068ceca876c75843caa79112a91a623cc9c81367980311c0728a239531efca7a5dbb960387232af14b4d1966055ff3266de45d0f6a5bd1c8403357937647799ba8f2382b3b471a66c97efcf91494de747df207b17ac0c0fc4494d445292e3d4b841d759984accf04e6c1a631587a4cddd768ce4c47c767d2e842dbc5a08fe4be23eef618d8807474e643e6560b186eb05f2d16267c84435e05b6ddca2554c689248aea84a577b64e568dfede58e91ded91c4cc4ac21f793b50c9be872d7f9cb7a53431056e907a571a18543cab716cc2eeeccfee0479b4cd7a8f16d0ea035e3b8d4ce989bbf2ac3dbbf73d8412d87170d686a1350634db33f99a8ae9e573c5f2679b288c9c7f8522461ec4d2e9200541aac0947992e26952e89831a6b4dd45b1eff4dc5214947369ae4cc9174b7730d3f759694b29e35a9286bf2b88bb2dede5cd0b7581512c557e7808d6a3283b94eeec1af4fd4d289df8d7316fe93dbf30c454191fab73ea3a3bba6a494fb73ce3390b715d5443c23b3f46c9f03c32f83807d511ba795e073b5eee11cb6de351d8691c9cef27554b60d554b26ceda9d00684443e303a7ccf47e3a80860c2f89b9eba9de952d5f3b31f998c06c88da12fd034a855311de2ac50b9ddd5cdd4a6b26324615ed443d3c31c3a8b4f24d27db884cdc118b1899bf985be0e8147571f6404500c1551ab13c41e1f7eb9d4a29b62b0bb9bd73c119945102c9f0f0da1868563b255e548e3f8c4b28d08a8e014c21110e985e30920c0d43165689104b9052a2517199311a8dc1c41f8f3945115cf8ce12b8c9b6729f4de7ddc2a847de3415f728171dbcb38bb84dedfee4e5cb75aea2b52e367faee6b406aaae52aa58d1cc86fb62880411dd04fec44a22e058d1d808301a1a3848f4a3dd19b1b7f6e16c8b2ce2342336d4ce44b7fb3c2896c429941ab845b328c7b0ce3573e50838959f0f9b019bdf83aebc52a63361da8695f1a6e861e32ee3d44584254423fb1254981636f66fadeb8dfdc7c85fe4dfe3ccb44c3a7e1ccd0672369dc09196b3d06c1ee2ea3db4bf22624b7684b1024576246802af1a792186a505d91d88ed02beadab32a860f5179683baeb99cf6718cef8e8bc144a92129806bed357c44cf76d03e8f346b306ea894aa3aa72c4a5a1b51b50ab5184aac64a506ddbd8c57490bd8cfbfdad095697c8c846cdb681c6cc2a07e4b5b7539cda596bcca555507b633402d4266978c1e160b62a2ccffd40a2e9c94af315efddf8868e1c976aa777d3695c0c1259ab713db28393eb417a7b17da347eee4846e7b63c4a5066d565885d9c57ffdd3f721c4b14f0cecca5e5e160ea9277d76e985d372457fe1fa15663e5f3f153df32a752c5224715dc8c6b0d176b33cf798fb3c68ee3de51622ac25e9cb633a39e55af5ca18c1df1f431577e889f9e809bb4dfb94c9195b42cc8d8f92fbe9946d0169c5d76edad22fead3cfb95466b16e605648787547c10d891efb53f089c64f5cef1542ec125d56c3eb3713f20cdada0b4f38c81b5e2267bfea80c5f9719c96e3b08129cbe365d4aa90f3f64c0a8fa3b86991c70dc0b0b818770892c60d69777f93952de2e7fdc228992fa56731e7c9678d65bbf1b6d5dae4114cc8205ebbfef90c3dc50a963a1a7fa3513ace9372c18e6c400cef1ee7a79fced180fbea953b672bdbaae4dade14210c4f0313ef6144a6084f2771c912e45158e31b4e999f62869ae11d4abb15752a99d012340f1e7b8b09b35395bd72b74deafdd5e1a8d854694299df065ae27d5418bc400d9e9ae386e6153cc470b7d9114e63d9e8503be12642cf2df2ec00c1867329e52b492347393fe2056b3009db726080c8af9b52cac0efbe8dba79fde30ded78e20313df9473bced61cba991598a1a8b3c7c48ef50c752386a6c1ef48978dd7a8dd640d8a2ac0c302b2088f78a9435305336f5d9a0a2b52d17c7a58e23b87e49b06136da565293d8315798f4790fe37cf500a29a48be42a65b96a006b930d1ca820c3ccbc8c16baa595e16583b52559e28e3cc5a0ca91c04deff0832d88e6a6ee68b4612a396d9c3f777aaa471331d47110c277a85a3cae6f11697250f5b17ef427e1e003fb7a0674ee90afaea90eff47206fdaddbfed57fd6ec05b23eb448bc7b8307339a19097881976f020a4786ab3edcda66dee80a2105981122ddf9de27a34e8e971194a08a7cc1f5600d8e79151e5b22dffd5a0b12c750005251d1258ce6aadcb27dc3643ae4e3bcbeb6140ff90a9486d78364b6dfa57496d65b849cfa4e963a8da113f8e85f0cfa0bcae3709d5e8c4bc4d04c4fa980763def762d48b8632bb79cba1cfbd486d2ffde7891af5668f8b4499071fe7d15cf4ad39532b420a5d6091edf301c2960358072f303c3e72879497a2adb6bdc1c8def51f212f394c576f7a9ab2b3b6bfc1c3c8d3e1ee0c2c314a697191a3d1d5f618262d3b3f505d68798ca9b0b6d0d6dfe3ed00000000000000000000000000000011242f4101fd210500c6416ed94e5eb9e96be1f259a22cd9a617556cee4f3732cafd4a16b3b4fe87899e80002421dc788d69995031eed3f6f91010559fbbf83aada9f8fe13e2bdc15872cbacde4673dd55d6bde558dcbcaabb1d183c5c596dc5f444b8cd4789d89250e7ac3e8d583a9ce6dd4b300520cfbb9c83001bb0fc6a414399320d13e87bf4945c3b0b8970afaa78b8e5be8cacaad820409e35c821beb5eed1cba8531b29d9d4e1bdacda12efbff262d73c3c7f11cd589356a529d8a73676a09cf093f90b8e4ba7f3414cfd717e8ef07f998536d9c23080409e818adb5a50d1a35927e74322884b5a8a0279f45ce106b8a9156ed82e504eaf0fb3c8dc20371c4d0cdee5ba0cadd4b86af22504d7dc177c75bf48468a3aba3f5988395d95587a4ca45af861fbcb502c41b6e76aae4f6dacc0a59a54bcc4fa40c42690531c1fbe7df50a59f84754e9a79a34af09318bdce9c2011b8cc09abba19684466188f6059b467e24d889ac957b740ec45bec4427826aca97e9931204ce7ba57fcae535f5138af95d118908b50701c9c67834681f4310ec376335891fd2412b4ad4bca8caf89cdbf4c489f181a7f161fb9b1ed2c9b1af5f410e6ff2bf5aa6cf7b667a081c56e68719f8399044c69127cff743bb9eb79d96c85ad5a4045341be844a88cc535a1891921aa451bea17c8a126fab7f3cd9b8c79e37f2a217368e3357e9adb0117288d664b24b04032870370928ddf9f22d100d0556e9cf877e6d303b479e272e9eac3fe00b509065430e45a1a439c43e816b661d6af50fd391a105423f5daff01ad69953adacb08e5b70611ae3f08eae822871bde414bc42074de646f9509927daaf6ee2e32244878359337db09480e35dc09fffd797eb80f5ee53a0ccd89c3c6e0be59e55107ffc4373edf0a8fcc00e71f1d8addf1910dd72c6301f6e814bd704b1888613010530c778f8bcaecfded4d8bd53d6f2b2459789c71ae9eeded3da3b44b574bd215c39664a41bacf4ea3ba48c7c29148eb0807ca4fcec42c4df36dfd9dc1d58a27e2720f3a34bc4a709834a9ebfdddc360444048c01b994844fb30a843ec7ff75b8d7f2100ef31ae66da7a0de2cf3368f6f6b700bdba9af391e832947ec798fa6e36fdbe01103e295eba1d75c6ea791d42aad12cc97ffcb0e861c78f66d530e9ecb59532848231a28f7d26f75a7e216941661562a682707e78ab5c4baa8b846288e8db63fa2dd9e4a10e1f0efaacea0b25fb23894deb91ee50260686060d755a7d80983fef61538a2a70e7aff35ef123c93557090e945addfde4856e850f5f6f74adbd5164960dbe4cbc97ddef1c2d94d34f04ac31ee744456714b7152c4d42b8bd32bb5711ac96e8c56d93291c8c7c1ef49ddafa76446484bd795479d1127eb6844b54bd92b9767f6787990a842dad2b9b4cc56d58cafc7984a344efe7f2f961d333aba142a995c584781453b45b279257c05b4175ebb010dcf7ef056c9b3a9cf491957cfc55e507732a2d5ee547434cf2c1ef17ff5631a192cabdb1329522b010993ea503e04f2e48245da2eeecdf223e98eca05749d3cddd8c0665b6e3ece45b60283dd99ce683d6e2723424725280ec69111d0bba344b7eac08f8fe22607d6c039d08651aa43216b241437da0c8d5753ad737595a599b82a6858a9a85c9c7589cdd3d74b5acd632e39449af39c7597a1003d527715b9fe457f011ab7c1fa78521620085166c8980d2ff62afebe42653232fdb0640987e24f4bb52b20b907cd373db8f7725d34aeffc2c2053e29f4e3cb4e9dfc983ff38294b898984be9537cbbb22c62315781de059211e9b39e3af74be220d72c1ca4e2796ddf6d33ecbebfe778000000",
  "txid": "da58c90d797c6bf1d4792fc9a9bd9c098005fc3e27d4e58dc7d067a9b1a403fe",
  "hash": "a979032096b17fa349e6989a5e1081676e2acf2ed3a0ddee6b54627798052988",
  "size": 5085,
  "vsize": 2278,
  "version": 1,
  "locktime": 120,
  "vin": [
    {
      "txid": "47318722c97e5aae263221fd8a07a845ac1c0f7a2357595a42c469736ddd25d0",
      "vout": 0,
      "scriptSig": {
        "asm": "",
        "hex": ""
      },
      "txinwitness": [
        "37155e41be36d7cf532f13fe1d3e5dba29620058fb26de8c065ca93ca983ff5b4270935dd3c8676796f9cd7ce6daf73f0736520c7c0ff522546870c5df3b3b5819ca81e0786be4ff465c4a64be40af6554fbd120dfbb508e9b00ec6349eaa62d73c72bcce178076c926c05abb36004e8db5c7ed6806ceb101167e868904e0c893cb6e56418bee916d119f03e3abba1e60ff62925ab3c849d42950db3eba757237dfd9c495e430b053d830143d36591b2fa9d9b2981d75e5826a876a9836036e315e2aaac417e73eafe033aeb24e5855b53f4994b6fecd51d530437312596f0f376a1eca6925594dbdc71b469f2c7995f42f625f18335ffc6077004cbd8db9c9b95f63993fa53d6d79f051744e2e1713e502d62c5cbbcb611cde99e3007cfebed2e0ed1fe632f91ebdf7b0af1d6d69f29328f9b5379893490f09d509b4b6c1e4939c6c566a149e5c3d41b3939752e7a82ec76198bc5f38b408b6c46d78925408906b90eb9fb17a01e094ec013c3cb79f2cbcb0206046859aefb39996d175d13cd4d0e2824f1f8a7ba39aa5bf1fb8227b7b3dd478be31cf39ad32576cdda1a0354cc863f9678cde3321b8e05dae5d63094499196b4a652fc67c41690e7cb4d0f571071aa6ba19f0f796339c35896548c4cda3bbc4843e67f72d6fa94b9f4c3646824749a4eddecd5789f22967b2aaf0bbb6b745e4d66fb34153af6d9a5b2c6d6aea29dc7aae95e6443dea36ded19d22c34739d886cedbe11cb3511c34b211971544a49d6f20fcde993a2e9adf18a570e5a2f5b07f6e3b75e91f6741a42884e847f49d59465d3d254ac9378f2b4cf422fadbc297de934b4ccc4d43f7d1f2b8e386f7727f031948f19ec1d9c2396c4e01ba2a240d7a424a8e1d988eb2fb050a068ceca876c75843caa79112a91a623cc9c81367980311c0728a239531efca7a5dbb960387232af14b4d1966055ff3266de45d0f6a5bd1c8403357937647799ba8f2382b3b471a66c97efcf91494de747df207b17ac0c0fc4494d445292e3d4b841d759984accf04e6c1a631587a4cddd768ce4c47c767d2e842dbc5a08fe4be23eef618d8807474e643e6560b186eb05f2d16267c84435e05b6ddca2554c689248aea84a577b64e568dfede58e91ded91c4cc4ac21f793b50c9be872d7f9cb7a53431056e907a571a18543cab716cc2eeeccfee0479b4cd7a8f16d0ea035e3b8d4ce989bbf2ac3dbbf73d8412d87170d686a1350634db33f99a8ae9e573c5f2679b288c9c7f8522461ec4d2e9200541aac0947992e26952e89831a6b4dd45b1eff4dc5214947369ae4cc9174b7730d3f759694b29e35a9286bf2b88bb2dede5cd0b7581512c557e7808d6a3283b94eeec1af4fd4d289df8d7316fe93dbf30c454191fab73ea3a3bba6a494fb73ce3390b715d5443c23b3f46c9f03c32f83807d511ba795e073b5eee11cb6de351d8691c9cef27554b60d554b26ceda9d00684443e303a7ccf47e3a80860c2f89b9eba9de952d5f3b31f998c06c88da12fd034a855311de2ac50b9ddd5cdd4a6b26324615ed443d3c31c3a8b4f24d27db884cdc118b1899bf985be0e8147571f6404500c1551ab13c41e1f7eb9d4a29b62b0bb9bd73c119945102c9f0f0da1868563b255e548e3f8c4b28d08a8e014c21110e985e30920c0d43165689104b9052a2517199311a8dc1c41f8f3945115cf8ce12b8c9b6729f4de7ddc2a847de3415f728171dbcb38bb84dedfee4e5cb75aea2b52e367faee6b406aaae52aa58d1cc86fb62880411dd04fec44a22e058d1d808301a1a3848f4a3dd19b1b7f6e16c8b2ce2342336d4ce44b7fb3c2896c429941ab845b328c7b0ce3573e50838959f0f9b019bdf83aebc52a63361da8695f1a6e861e32ee3d44584254423fb1254981636f66fadeb8dfdc7c85fe4dfe3ccb44c3a7e1ccd0672369dc09196b3d06c1ee2ea3db4bf22624b7684b1024576246802af1a792186a505d91d88ed02beadab32a860f5179683baeb99cf6718cef8e8bc144a92129806bed357c44cf76d03e8f346b306ea894aa3aa72c4a5a1b51b50ab5184aac64a506ddbd8c57490bd8cfbfdad095697c8c846cdb681c6cc2a07e4b5b7539cda596bcca555507b633402d4266978c1e160b62a2ccffd40a2e9c94af315efddf8868e1c976aa777d3695c0c1259ab713db28393eb417a7b17da347eee4846e7b63c4a5066d565885d9c57ffdd3f721c4b14f0cecca5e5e160ea9277d76e985d372457fe1fa15663e5f3f153df32a752c5224715dc8c6b0d176b33cf798fb3c68ee3de51622ac25e9cb633a39e55af5ca18c1df1f431577e889f9e809bb4dfb94c9195b42cc8d8f92fbe9946d0169c5d76edad22fead3cfb95466b16e605648787547c10d891efb53f089c64f5cef1542ec125d56c3eb3713f20cdada0b4f38c81b5e2267bfea80c5f9719c96e3b08129cbe365d4aa90f3f64c0a8fa3b86991c70dc0b0b818770892c60d69777f93952de2e7fdc228992fa56731e7c9678d65bbf1b6d5dae4114cc8205ebbfef90c3dc50a963a1a7fa3513ace9372c18e6c400cef1ee7a79fced180fbea953b672bdbaae4dade14210c4f0313ef6144a6084f2771c912e45158e31b4e999f62869ae11d4abb15752a99d012340f1e7b8b09b35395bd72b74deafdd5e1a8d854694299df065ae27d5418bc400d9e9ae386e6153cc470b7d9114e63d9e8503be12642cf2df2ec00c1867329e52b492347393fe2056b3009db726080c8af9b52cac0efbe8dba79fde30ded78e20313df9473bced61cba991598a1a8b3c7c48ef50c752386a6c1ef48978dd7a8dd640d8a2ac0c302b2088f78a9435305336f5d9a0a2b52d17c7a58e23b87e49b06136da565293d8315798f4790fe37cf500a29a48be42a65b96a006b930d1ca820c3ccbc8c16baa595e16583b52559e28e3cc5a0ca91c04deff0832d88e6a6ee68b4612a396d9c3f777aaa471331d47110c277a85a3cae6f11697250f5b17ef427e1e003fb7a0674ee90afaea90eff47206fdaddbfed57fd6ec05b23eb448bc7b8307339a19097881976f020a4786ab3edcda66dee80a2105981122ddf9de27a34e8e971194a08a7cc1f5600d8e79151e5b22dffd5a0b12c750005251d1258ce6aadcb27dc3643ae4e3bcbeb6140ff90a9486d78364b6dfa57496d65b849cfa4e963a8da113f8e85f0cfa0bcae3709d5e8c4bc4d04c4fa980763def762d48b8632bb79cba1cfbd486d2ffde7891af5668f8b4499071fe7d15cf4ad39532b420a5d6091edf301c2960358072f303c3e72879497a2adb6bdc1c8def51f212f394c576f7a9ab2b3b6bfc1c3c8d3e1ee0c2c314a697191a3d1d5f618262d3b3f505d68798ca9b0b6d0d6dfe3ed00000000000000000000000000000011242f4101",
        "00c6416ed94e5eb9e96be1f259a22cd9a617556cee4f3732cafd4a16b3b4fe87899e80002421dc788d69995031eed3f6f91010559fbbf83aada9f8fe13e2bdc15872cbacde4673dd55d6bde558dcbcaabb1d183c5c596dc5f444b8cd4789d89250e7ac3e8d583a9ce6dd4b300520cfbb9c83001bb0fc6a414399320d13e87bf4945c3b0b8970afaa78b8e5be8cacaad820409e35c821beb5eed1cba8531b29d9d4e1bdacda12efbff262d73c3c7f11cd589356a529d8a73676a09cf093f90b8e4ba7f3414cfd717e8ef07f998536d9c23080409e818adb5a50d1a35927e74322884b5a8a0279f45ce106b8a9156ed82e504eaf0fb3c8dc20371c4d0cdee5ba0cadd4b86af22504d7dc177c75bf48468a3aba3f5988395d95587a4ca45af861fbcb502c41b6e76aae4f6dacc0a59a54bcc4fa40c42690531c1fbe7df50a59f84754e9a79a34af09318bdce9c2011b8cc09abba19684466188f6059b467e24d889ac957b740ec45bec4427826aca97e9931204ce7ba57fcae535f5138af95d118908b50701c9c67834681f4310ec376335891fd2412b4ad4bca8caf89cdbf4c489f181a7f161fb9b1ed2c9b1af5f410e6ff2bf5aa6cf7b667a081c56e68719f8399044c69127cff743bb9eb79d96c85ad5a4045341be844a88cc535a1891921aa451bea17c8a126fab7f3cd9b8c79e37f2a217368e3357e9adb0117288d664b24b04032870370928ddf9f22d100d0556e9cf877e6d303b479e272e9eac3fe00b509065430e45a1a439c43e816b661d6af50fd391a105423f5daff01ad69953adacb08e5b70611ae3f08eae822871bde414bc42074de646f9509927daaf6ee2e32244878359337db09480e35dc09fffd797eb80f5ee53a0ccd89c3c6e0be59e55107ffc4373edf0a8fcc00e71f1d8addf1910dd72c6301f6e814bd704b1888613010530c778f8bcaecfded4d8bd53d6f2b2459789c71ae9eeded3da3b44b574bd215c39664a41bacf4ea3ba48c7c29148eb0807ca4fcec42c4df36dfd9dc1d58a27e2720f3a34bc4a709834a9ebfdddc360444048c01b994844fb30a843ec7ff75b8d7f2100ef31ae66da7a0de2cf3368f6f6b700bdba9af391e832947ec798fa6e36fdbe01103e295eba1d75c6ea791d42aad12cc97ffcb0e861c78f66d530e9ecb59532848231a28f7d26f75a7e216941661562a682707e78ab5c4baa8b846288e8db63fa2dd9e4a10e1f0efaacea0b25fb23894deb91ee50260686060d755a7d80983fef61538a2a70e7aff35ef123c93557090e945addfde4856e850f5f6f74adbd5164960dbe4cbc97ddef1c2d94d34f04ac31ee744456714b7152c4d42b8bd32bb5711ac96e8c56d93291c8c7c1ef49ddafa76446484bd795479d1127eb6844b54bd92b9767f6787990a842dad2b9b4cc56d58cafc7984a344efe7f2f961d333aba142a995c584781453b45b279257c05b4175ebb010dcf7ef056c9b3a9cf491957cfc55e507732a2d5ee547434cf2c1ef17ff5631a192cabdb1329522b010993ea503e04f2e48245da2eeecdf223e98eca05749d3cddd8c0665b6e3ece45b60283dd99ce683d6e2723424725280ec69111d0bba344b7eac08f8fe22607d6c039d08651aa43216b241437da0c8d5753ad737595a599b82a6858a9a85c9c7589cdd3d74b5acd632e39449af39c7597a1003d527715b9fe457f011ab7c1fa78521620085166c8980d2ff62afebe42653232fdb0640987e24f4bb52b20b907cd373db8f7725d34aeffc2c2053e29f4e3cb4e9dfc983ff38294b898984be9537cbbb22c62315781de059211e9b39e3af74be220d72c1ca4e2796ddf6d33ecbebfe7"
      ],
      "sequence": 4294967294
    }
  ],
  "vout": [
    {
      "value": 499979.662,
      "n": 0,
      "scriptPubKey": {
        "asm": "1 bf017d100631b5fbdcc66b7f460ff8e8c7cdc007cab2b4072df1f9361d09060a",
        "hex": "5120bf017d100631b5fbdcc66b7f460ff8e8c7cdc007cab2b4072df1f9361d09060a",
        "reqSigs": 1,
        "type": "witness_v1_scripthash",
        "addresses": [
          "3QJmnh"
        ]
      }
    },
    {
      "value": 1.0,
      "n": 1,
      "scriptPubKey": {
        "asm": "OP_RETURN ca9656367eba306e0081722b0260235d02f49955f4b24e0faecc2e475acf3889 33d27d24f07ebad36dd8dbea45da8475b17137a497abdd48cc70eab9c815472213f25d04d05e9af34df8fbca65faa45591511784b78bfd68ec50ca99e835670273923d64b03efa932d989baa059ac435f13177e4d7eb9d088c30aaf98855076253b21d44901edab30db8bb8a25bae415d11157c4f7cbbd28ac108ad9a8752742b352fda470fe3a53ed585b6ac55a04f531f1b724172b5dc84cf06a394895c7a29372dd8450de1a73cd787b4ae57a24d511d19704370b7de86cd04a1968b5e782f312bde430be7a13ad181b2a851a44b571b1f764576b1d880cb02a7908d587e2d3329dc4109e5a338d383b0aa53a64955191d744774b3da82c900a5928f5a7c233d27d24f07ebad36dd8dbea45da8475b17137a497abdd48cc70eab9c815472213f25d04d05e9af34df8fbca65faa45591511784b78bfd68ec50ca99e835670273923d64b03efa932d989baa059ac435f13177e4d7eb9d088c30aaf98855076253b21d44901edab30db8bb8a25bae415d11157c4f7cbbd28ac108ad9a8752742b352fda470fe3a53ed585b6ac55a04f531f1b724172b5dc84cf06a394895c7a29372dd8450de1a73cd787b4ae57a24d511d19704370b7de86cd04a1968b5e782f312bde430be7a13ad181b2a851a44b571b1f764576b1d880cb02a7908d587e2d3329dc4109e5a338d383b0aa53a64955191d744774b3da82c900a5928f5a7c233d27d24f07ebad36dd8dbea45da8475b17137a497abdd48cc70eab9c815472213f25d04d05e9af34df8fbca65faa45591511784b78bfd68ec50ca99e835670273923d64b03efa932d989baa059ac435f13177e4d7eb9d088c30aaf98855076253b21d44901edab30db8bb8a25bae415d11157c4f7cbbd28ac108ad9a8752742b352fda470fe3a53ed585b6ac55a04f531f1b724172b5dc84cf06a394895c7a29372dd8450de1a73cd787b4ae57a24d511d19704370b7de86cd04a1968b5e782f312bde430be7a13ad181b2a851a44b571b1f764576b1d880cb02a7908d587e2d3329dc4109e5a338d383b0aa53a64955191d744774b3da82c900a5928f5a7c233d27d24f07ebad36dd8dbea45da8475b17137a497abdd48cc70eab9c815472213f25d04d05e9af34df8fbca65faa45591511784b78bfd68ec50ca99e835670273923d64b03efa932d989baa059ac435f13177e4d7eb9d088c30aaf98855076253b21d44901edab30db8bb8a25bae415d11157c4f7cbbd28ac108ad9a8752742b352fda470fe3a53ed585b6ac55a04f531f1b724172b5dc84cf06a394895c7a29372dd8450de1a73cd787b4ae57a24d511d19704370b7de86cd04a1968b5e782f312bde430be7a13ad181b2a851a44b571b1f764576b1d880cb02a7908d587e2d3329dc4109e5a338d383b0aa53a64955191d744774b3da82c900a5928f5a7c233d27d24f07ebad36dd8dbea45da8475b17137a497abdd48cc70eab9c815472213f25d04d05e9af34df8fbca65faa45591511784b78bfd68ec50ca99e835670273923d64b03efa932d989baa059ac435f13177e4d7eb9d088c30aaf98855076253b21d44901edab30db8bb8a25bae415d11157c4f7cbbd28ac108ad9a8752742b352fda470fe3a53ed585b6ac55a04f51ea418372d87cba237e9c0517b515dedef344bc4b108a5e7e1108ced0727d84a",
        "hex": "6a20ca9656367eba306e0081722b0260235d02f49955f4b24e0faecc2e475acf38894db00433d27d24f07ebad36dd8dbea45da8475b17137a497abdd48cc70eab9c815472213f25d04d05e9af34df8fbca65faa45591511784b78bfd68ec50ca99e835670273923d64b03efa932d989baa059ac435f13177e4d7eb9d088c30aaf98855076253b21d44901edab30db8bb8a25bae415d11157c4f7cbbd28ac108ad9a8752742b352fda470fe3a53ed585b6ac55a04f531f1b724172b5dc84cf06a394895c7a29372dd8450de1a73cd787b4ae57a24d511d19704370b7de86cd04a1968b5e782f312bde430be7a13ad181b2a851a44b571b1f764576b1d880cb02a7908d587e2d3329dc4109e5a338d383b0aa53a64955191d744774b3da82c900a5928f5a7c233d27d24f07ebad36dd8dbea45da8475b17137a497abdd48cc70eab9c815472213f25d04d05e9af34df8fbca65faa45591511784b78bfd68ec50ca99e835670273923d64b03efa932d989baa059ac435f13177e4d7eb9d088c30aaf98855076253b21d44901edab30db8bb8a25bae415d11157c4f7cbbd28ac108ad9a8752742b352fda470fe3a53ed585b6ac55a04f531f1b724172b5dc84cf06a394895c7a29372dd8450de1a73cd787b4ae57a24d511d19704370b7de86cd04a1968b5e782f312bde430be7a13ad181b2a851a44b571b1f764576b1d880cb02a7908d587e2d3329dc4109e5a338d383b0aa53a64955191d744774b3da82c900a5928f5a7c233d27d24f07ebad36dd8dbea45da8475b17137a497abdd48cc70eab9c815472213f25d04d05e9af34df8fbca65faa45591511784b78bfd68ec50ca99e835670273923d64b03efa932d989baa059ac435f13177e4d7eb9d088c30aaf98855076253b21d44901edab30db8bb8a25bae415d11157c4f7cbbd28ac108ad9a8752742b352fda470fe3a53ed585b6ac55a04f531f1b724172b5dc84cf06a394895c7a29372dd8450de1a73cd787b4ae57a24d511d19704370b7de86cd04a1968b5e782f312bde430be7a13ad181b2a851a44b571b1f764576b1d880cb02a7908d587e2d3329dc4109e5a338d383b0aa53a64955191d744774b3da82c900a5928f5a7c233d27d24f07ebad36dd8dbea45da8475b17137a497abdd48cc70eab9c815472213f25d04d05e9af34df8fbca65faa45591511784b78bfd68ec50ca99e835670273923d64b03efa932d989baa059ac435f13177e4d7eb9d088c30aaf98855076253b21d44901edab30db8bb8a25bae415d11157c4f7cbbd28ac108ad9a8752742b352fda470fe3a53ed585b6ac55a04f531f1b724172b5dc84cf06a394895c7a29372dd8450de1a73cd787b4ae57a24d511d19704370b7de86cd04a1968b5e782f312bde430be7a13ad181b2a851a44b571b1f764576b1d880cb02a7908d587e2d3329dc4109e5a338d383b0aa53a64955191d744774b3da82c900a5928f5a7c233d27d24f07ebad36dd8dbea45da8475b17137a497abdd48cc70eab9c815472213f25d04d05e9af34df8fbca65faa45591511784b78bfd68ec50ca99e835670273923d64b03efa932d989baa059ac435f13177e4d7eb9d088c30aaf98855076253b21d44901edab30db8bb8a25bae415d11157c4f7cbbd28ac108ad9a8752742b352fda470fe3a53ed585b6ac55a04f51ea418372d87cba237e9c0517b515dedef344bc4b108a5e7e1108ced0727d84a",
        "type": "nulldata"
      }
    }
  ],
  "blockhash": "0125d69e6984563ac74cb1b0b8601a67b424e71230e7918fa710584dbb11162a",
  "confirmations": 1,
  "time": 1764180090,
  "blocktime": 1764180090
}