{
  "hex": "010000000001019d534418c9d1a9996d99e1e77872244344f389593b638135e5f13f8d16ced1400000000000feffffff0200e1f50500000000fdd5046a20aadab7927d4d332615ae43c97cbced6ad3f0a58c32d4df96927eeb4ad096ec604db00420ee93de97be36b8cea49069e49ca9c47f3ba844538d39035422c99ea287c13f00ceb3feb79e1698ee84b049c4bc89e45f1b886473ad19237402e9be82a7e11f60aed39ed7fe76f88ee4d029a4dce9843f7be80413cd7943146289dee2c7817f408ef3bef7de56d8aec4f00984fcc9a41f5bc82433ed59633442a9fec2e7a15fa06e135e173eb6384e2410e9641c2944ffbb28c4d30db983d4a2491e220741bf804e337e371e96186e0430c9443c0964df9b08e4f32d99a3f482693e0227619fe02e531e577ef6780e6450a9245c6904bffb6884934df9c394e2095e624701ffc00e733e775ed6582e447089047c49249fdb48a4b36dd9e3b4c2297e426721df20ee93de97be36b8cea49069e49ca9c47f3ba844538d39035422c99ea287c13f00ceb3feb79e1698ee84b049c4bc89e45f1b886473ad19237402e9be82a7e11f60aed39ed7fe76f88ee4d029a4dce9843f7be80413cd7943146289dee2c7817f408ef3bef7de56d8aec4f00984fcc9a41f5bc82433ed59633442a9fec2e7a15fa06e135e173eb6384e2410e9641c2944ffbb28c4d30db983d4a2491e220741bf804e337e371e96186e0430c9443c0964df9b08e4f32d99a3f482693e0227619fe02e531e577ef6780e6450a9245c6904bffb6884934df9c394e2095e624701ffc00e733e775ed6582e447089047c49249fdb48a4b36dd9e3b4c2297e426721df20ee93de97be36b8cea49069e49ca9c47f3ba844538d39035422c99ea287c13f00ceb3feb79e1698ee84b049c4bc89e45f1b886473ad19237402e9be82a7e11f60aed39ed7fe76f88ee4d029a4dce9843f7be80413cd7943146289dee2c7817f408ef3bef7de56d8aec4f00984fcc9a41f5bc82433ed59633442a9fec2e7a15fa06e135e173eb6384e2410e9641c2944ffbb28c4d30db983d4a2491e220741bf804e337e371e96186e0430c9443c0964df9b08e4f32d99a3f482693e0227619fe02e531e577ef6780e6450a9245c6904bffb6884934df9c394e2095e624701ffc00e733e775ed6582e447089047c49249fdb48a4b36dd9e3b4c2297e426721df20ee93de97be36b8cea49069e49ca9c47f3ba844538d39035422c99ea287c13f00ceb3feb79e1698ee84b049c4bc89e45f1b886473ad19237402e9be82a7e11f60aed39ed7fe76f88ee4d029a4dce9843f7be80413cd7943146289dee2c7817f408ef3bef7de56d8aec4f00984fcc9a41f5bc82433ed59633442a9fec2e7a15fa06e135e173eb6384e2410e9641c2944ffbb28c4d30db983d4a2491e220741bf804e337e371e96186e0430c9443c0964df9b08e4f32d99a3f482693e0227619fe02e531e577ef6780e6450a9245c6904bffb6884934df9c394e2095e624701ffc00e733e775ed6582e447089047c49249fdb48a4b36dd9e3b4c2297e426721df20ee93de97be36b8cea49069e49ca9c47f3ba844538d39035422c99ea287c13f00ceb3feb79e1698ee84b049c4bc89e45f1b886473ad19237402e9be82a7e11f60aed39ed7fe76f88ee4d029a4dce9843f7be80413cd7943146289dee2c7817f408ef3bef7de56d8aec4f00984fcc9a41f5bc82433ed59633442a9fec2e7a15fa06e135e173eb6384e2410e9641c2944a07513bc309ddae2653ade7ebbdc8e3703b36dfcae6a38849406c1581780d73c00774227792d0000225120198e972935c215de08d7f962cf9096036c2ca9b223a77a09343d76efdacd0f4e02fd75090cee55c4c67654d3ca41bc2cde4f9a74586b256d4df5013b6f71231b6cd6080581e782088652e056c6be5e31a7deda1b2c088f821860f94b7860dedd0ef324ebcaba9c45c77c73351dec634c1026e19d2f7e4182faaf6cd6e921c87dacaef1bd7c89332dd3d0e3c41c49445e51b3d97571ee317a750e5debfc211b325568841ea961d3a0b0e34b43f827e0a490c6e67172fed920806d5fce919dbdc453d51bcbd75a0bd674c2ff90833850b7adcb4c02594192ab1ee6d254ecd717d6c2cdeab7bca45b202475dd6b808650f326929a598890bcf7412cd52bc54bda7a28034982af7269cc460b344af7b538f8680979f74d516706131a5814051ddf21dd10b00bfbb55e305a964f8ac5bd58b45ba58a546a7439b0f4e071fa0447d9b7456201b941274e61705def34aab810385343b14df7c5585526726393a9d62b3e553ee1377540a6edac8de71f20e4cea24b0fdb6ac901ee6c98b4dce888379a3342c4cc31646781908ef2baecd8270d8a7d2125e0b7341eb1b6571b1c7454f95e87a1ef04b14665813fa835e12182cf025cb9f2e4bf73ff209184534fb0fe8b020da3edb400b875a40ca1ce78b3665727a79def7efb59a79cce119fe771d389e5a6ee72326bd2a64a0e8d0b947565ebe11806d03a147843250aefc5b86b16bb3141faa8d2d14cb486d5166a854e609b19cf84187949e47a6d4d9962ed7ce50b9cd851c68783709314cdfaba737c04b70bc80cca9974cc4919701b007842ed426c22ca50ff577cb22323f8b1b7ecc453e33fc264254371a00e6af0d3a30d874f5851f818bbc56d1d9ae435a5bafcc74f481a6aabccebba8c97a2db28e0e8fc21006b68f7c7d8bfc40d93e1f63f29ee0aa6fbabe423def7e9874c94c7609b13d33f39141878b630d9128801a2350a6dee90c64e5c0e2f5338b51c8e602897c559273bf9bebc700597f4ff6be2e2b672deff47f607318e9cafad50a270297122b008eacf9d79ba0e7abdb6f627074385081cdc184f385aa55f4cdca6b242c2bba651fda1c7f2ddd5a09fa2b50db3be4c9113d4972b48e35f8f1996ab1efa08c04eb42f4c0b0c85d7a2d2ac035719b26598d6620c4862a8ad5861c901c1e12a2a61ce0ffb7cb9881e2662cbb7783cc3b9d789827336063c3f26ac9f7f7014481b2a14873f91736f6bb5366f0a462487852cddc46100451b3d21452c3a8f7b94dcd3e2dedf40fb2778cbfe4fc3adfd3597dd78bbd468c2442b9c85999fd68b691ae314cfbd88a7540223637c298274dacc40f1be6cadffa7790b74f903a7ffebebd9ea1511536a0defd7a0c7f697726aad9b72b27169187f8e6387787ed27dddc2b1349bda9f0e783f61531a2dd678d3d9ff0f168b58f65f7000851edc7dfaa688e419aea9e53990c0f77deba46e262eaab9dd9936c3e43cf575c9dfc32cd2cf90339fd77dbe724bb1891d776d80392a3b18cfbfdfb1ea813ea0d3bfc4cc15e62f13475c5ffd21a524a7e74b36a14398351d33fa3cddb46396859877da438af2c3d1899e8ec3f45405e38c3c6ecf4bdfac0194d5b5f54bd2cb825d6f25edcb5d2add2ad23d35333dfcfd18864eb291250525c66d3b4213b36dd83b5c869acec9ebc886e057f646a6afe7d1a92ac47011806feeac00aa8def6cecb9a7f671bcf47283342f7da8b50e487b66149f4e343a561a8d14d7d24dd5e017623d435c9b293d7e7f2cf301feaa077e09296fa343479388bd381067c729f70c98b08ce262d346e1e247b618c2c981e53d7e81114295ccd25943aa3cf74ba81899792a444dc033110c549cc250d7a65fd045096a81ea43b3f46b47279c3c66b4f621e7224b5dfd41c446fc9aa624aa0b294ce427955a8a2fc2f2d2e04d22fe364c25fd30aa95febc4b8236d9f703d9987d17bab62d71cec75a293f1d435d89bb57107a4d6ddf6f8296d19eb57afd13b4f9587348ea4e8a40871b9098f907443b6c93b25dea9013e3e5fd5670f68bb3b5b986f17a962e8ee6f3d163d55cad865a2d974aaf1ca8f41ec7439088b43a903c43c741b4a97f59c7999f791339591013d98d792f5a51a37a68ab8806be0ef281ed823f87746cef3de5abb3d32bd96fa8fe96ae283795e571b4e38b2455b0bec8aeaf926a1852606f24af5c269c2d1e6b6eb2b7ee038c14e4aeb86f18b0db6dea5ad8c6208233f045a9ce7a38ac70f4fab0aa1612a40fd31346c213788504a02ef438abf814282173c2edc4b35098039a952dd1eae881071f47276d7e93e9a72891050cb6f306ad9e973d34b5906d695cd8154ce2e3eb57ea167dabc8e84fa745f7b612823ef590ac299b25070c38e247ba9a6073e9b1a35dcbf86f94108676b3679b782ef4d302eee3eaf169af422dc63b6ba8db6d06306a90d483453a0025f1957ac0b200b014f4f414e88c29e98a88b9475360322b861455c661305915da5c6b70cf045e74793e749eb160ec4ffc0c47157379d96c8e4e08e4e1cdf67dc6c491e54dd908012ca3b2ac6b2e63007cc306043a5413dee7376b77b128da82f6e24fbfe74bbdb52404623bc9e85eb941457c5f5a4fea27a220196d546769a0fc5d4e7f857856168173fcefd5bf112e597ef3bdd5ae63af8d0c1bc38cad75d17b397e7ce191d6bc948e31ec7e45d5177c6387063ad53ae9a5fe46ccca96b281d2e9f46c6ab608f02b5f722887730c556b5676bd5f0480f6a9bc7e427488f419bf17a41fffe84498b09595ccbba29ed2e15067979a7d1c360046ef28adf287e486adfaeb0212814726a9ab9ca009e8259f5b4afa7e6762e36774863637d4a736d135c430002bd5001c1c462590eaadb3ba461c95e5b8e23858c7871b6d7bf68ed3c94cce2f7f3302057a1fb1bce076ec5107754f02e71c2ef9fd2f04ad116e9c7a9534fa966b9f74436bbf3ad4e0b604f98f62aafbfeabe7d7d045062a5531575911a7a33e9523ac5db168517a44eae16b766a27aa07ff9ea6b692d10f1744cfb1c6ee4301c64525f5743bd90c7ffbe87c7c1ddee99e1b2abbc857ec6f79568cb2c7a35e2a3514a7dfdb7a63c4b6b27e858f99c68f6baa5d8514e8ca6731549fba9722c3f4c5788df54d42c5875b67fad350597812ebb80bca782c6d6fea9c2f3763dd818254b8ea6385463f8f5be27931274ebf35a28bafad6367d6cec330d414a69c881b2143e27d3fc754061c02e0cba4b0ff1a6ddcae8997c380229969a356ff24c34d344dc03a7ab22c1f51f2ada3a2ab51627c9b5bb6320c85376f912098c119c258850a2d9ba7ba18446795d6283d7f4b4990d5a6a1f4f59c0428c20a101b2023325f6a6b8caab8bfc0c4cff5030b12133e537c8a9598a9adbcc4c9f3f9fcff0022395b7c8b91a0a2c4e0030a181a1e23385a5e6193a0a2aed2dfe6eefa000000000000000000000000000011242f4201fd210500e6e05c3088185c394b7f2fb90356e1eb80aab511a23fa3202e2b79667fabb0ddd665312ce1306ec0651c422b336091f56e2486c06f93e69971ad1cf61c00e13f7584cc7e1226ff10c7b1f9111d68e874116a8fa853d4efd459b5cbdacae8d7cf067bd60a93c6855d5d29ec6ec6db6bac1f58b330754811a3ff2612ab1ecdd38e7e77b7fc3c68ef064df8f311cf1701d50b96d40282ab34a9f824beba7895f755fa8922c0625cdceafd4aec350a831a60252c7eb2d4c2048aabf8330850e3822f482d2ca403748a928bfafbf5cfcb2b69b9653acb6dac42890d83cbd9446bab9543588d4ade60f680604034b788c734a2b194bf3a1959dc8151f0a3b4a057d289a843efafed5583b96d2c8c89be7ef466625a6f44f47adfe3ae49d7521c533757364377cfa6654df4a02f6e70bbec72847927cb4fb2076bae78691ed4f6b8b277aac253004add5ee8652e5f12d5fad595189a583d492de50471d6e5c7e6e17b9947db134cac6a40e1d706559a7e44438b3a15e79d2c3dfcc5f71c297234a6b9fc206a6bb097eed8d9da4d6018328328a3c31afd7062d13173de1621f0bf5391cf31380e00a3068b95d9da088a2a04c4593689880b63db00b22e62e2b54443f16240d082d82683579742118644d0f9e46fd895cb6ac09416d6e14f0e753a13e9460fc1dd08e12eefd717ba617f200d6a296f9aadcae431ea6c5cccaddd131b74ea5baeed8daa890d09f75135c7dcc8c372ab32370a1aba6f0552cc8cc7cc705614dae9ce1d0e2f42bc786720d8e0808636f00e00eb9467d565c3b0b4bc3345ab43b02715f294209416123a70d62b16b599af3aabf6091c7bb390a031365f07b93ab82cb3ad96c57300c45b9dd1b58c4c3e6716441251a7c2ead244ae79c6db5777112e376e9c57fab2a82f749512ddcd179a95cd6a70082dc7e2c9230f03a8ffbe00c16f36eaf991da1c70c1f8eeb0c9ceedbb6562c0b25ba9271551e8b003b28d7395657d1cafa490075642bc8ef5032d01e6b962d28a59779d898a08128bdf864c60cb4f93996af6265b1640b909d88ac3b9785d889dbb244bc27a883575d41d8edb2af301f3efc3512d311d92cd033917740c92d182be8e32a2c2630597c097c9a50e6738746371151d93491a61b545e6b1ec705032fbebb31707790f720fdc678bfe51a55c6c8f0d2a94f571e2c3a1e33a98bbaeddcaa52af1ef7795cf564512fb932612f995c024080a1610d97caf2337491c6692940717a31922fb923e8f1f159ff0f1a3f4ea5f3dae531dd333e5960a7f494472ea7afae0b3a8fa0754567624d0e4b3b1914de13470cd4fdba2214a82d225e9a2f641367b57b87cd3dff42c536683a02e366e353fad1818ba1245a5daa78d9ce0c9fab4b5a9548392e0773cd31c28dd88adfabe70c4637e3020d9d0f4570232b7f11f72a7ebe0125a084cd55d2991b04e03192aa38485a9bacd32c49b27f751938c6d1d349842bce943a98e776a8cf2a59acdef6ff6cbc341c27e3e7bd5f4410321a378570ea979d5330e4fc3f51cc3665f168e35168934a29d8c4b88515a0495505075074c3d348c3188bb95f60ca4a6433d7f5be87eb7eb251ac761e2c68bc24b4d99b7ae68f02195097dd1b19759a305de6893bb93eb59bb36010dfd7b5df3fed8715e355f70725f51c627a7a167b0a1e2101586c6ce2d970c25dd2cc06768c4c6b7c81737c95243c9d25da052ab9a9308d72d77671f284dbcd0996cdc29baeb41deb629acbff78d34210126c520856fbdbcf7201d7fc9c9932934c3516bdf0c65d0c68da36275c3e585bf20a84b5e6ce0079e2da3a423b5fed4466413e042caf4791b8ad808723c8381000000",
  "txid": "df584bcc35ac7c08946b63f868de86f1c124b5e20d7a1fdc69c7a57c2df62cac",
  "hash": "7417ce40a9212513725a02bbd46502ed023c294b91f910f3de02a95ce4b4a360",
  "size": 5085,
  "vsize": 2278,
  "version": 1,
  "locktime": 129,
  "vin": [
    {
      "txid": "40d1ce168d3ff1e53581633b5989f34443247278e7e1996d99a9d1c91844539d",
      "vout": 0,
      "scriptSig": {
        "asm": "",
        "hex": ""
      },
      "txinwitness": [
        "0cee55c4c67654d3ca41bc2cde4f9a74586b256d4df5013b6f71231b6cd6080581e782088652e056c6be5e31a7deda1b2c088f821860f94b7860dedd0ef324ebcaba9c45c77c73351dec634c1026e19d2f7e4182faaf6cd6e921c87dacaef1bd7c89332dd3d0e3c41c49445e51b3d97571ee317a750e5debfc211b325568841ea961d3a0b0e34b43f827e0a490c6e67172fed920806d5fce919dbdc453d51bcbd75a0bd674c2ff90833850b7adcb4c02594192ab1ee6d254ecd717d6c2cdeab7bca45b202475dd6b808650f326929a598890bcf7412cd52bc54bda7a28034982af7269cc460b344af7b538f8680979f74d516706131a5814051ddf21dd10b00bfbb55e305a964f8ac5bd58b45ba58a546a7439b0f4e071fa0447d9b7456201b941274e61705def34aab810385343b14df7c5585526726393a9d62b3e553ee1377540a6edac8de71f20e4cea24b0fdb6ac901ee6c98b4dce888379a3342c4cc31646781908ef2baecd8270d8a7d2125e0b7341eb1b6571b1c7454f95e87a1ef04b14665813fa835e12182cf025cb9f2e4bf73ff209184534fb0fe8b020da3edb400b875a40ca1ce78b3665727a79def7efb59a79cce119fe771d389e5a6ee72326bd2a64a0e8d0b947565ebe11806d03a147843250aefc5b86b16bb3141faa8d2d14cb486d5166a854e609b19cf84187949e47a6d4d9962ed7ce50b9cd851c68783709314cdfaba737c04b70bc80cca9974cc4919701b007842ed426c22ca50ff577cb22323f8b1b7ecc453e33fc264254371a00e6af0d3a30d874f5851f818bbc56d1d9ae435a5bafcc74f481a6aabccebba8c97a2db28e0e8fc21006b68f7c7d8bfc40d93e1f63f29ee0aa6fbabe423def7e9874c94c7609b13d33f39141878b630d9128801a2350a6dee90c64e5c0e2f5338b51c8e602897c559273bf9bebc700597f4ff6be2e2b672deff47f607318e9cafad50a270297122b008eacf9d79ba0e7abdb6f627074385081cdc184f385aa55f4cdca6b242c2bba651fda1c7f2ddd5a09fa2b50db3be4c9113d4972b48e35f8f1996ab1efa08c04eb42f4c0b0c85d7a2d2ac035719b26598d6620c4862a8ad5861c901c1e12a2a61ce0ffb7cb9881e2662cbb7783cc3b9d789827336063c3f26ac9f7f7014481b2a14873f91736f6bb5366f0a462487852cddc46100451b3d21452c3a8f7b94dcd3e2dedf40fb2778cbfe4fc3adfd3597dd78bbd468c2442b9c85999fd68b691ae314cfbd88a7540223637c298274dacc40f1be6cadffa7790b74f903a7ffebebd9ea1511536a0defd7a0c7f697726aad9b72b27169187f8e6387787ed27dddc2b1349bda9f0e783f61531a2dd678d3d9ff0f168b58f65f7000851edc7dfaa688e419aea9e53990c0f77deba46e262eaab9dd9936c3e43cf575c9dfc32cd2cf90339fd77dbe724bb1891d776d80392a3b18cfbfdfb1ea813ea0d3bfc4cc15e62f13475c5ffd21a524a7e74b36a14398351d33fa3cddb46396859877da438af2c3d1899e8ec3f45405e38c3c6ecf4bdfac0194d5b5f54bd2cb825d6f25edcb5d2add2ad23d35333dfcfd18864eb291250525c66d3b4213b36dd83b5c869acec9ebc886e057f646a6afe7d1a92ac47011806feeac00aa8def6cecb9a7f671bcf47283342f7da8b50e487b66149f4e343a561a8d14d7d24dd5e017623d435c9b293d7e7f2cf301feaa077e09296fa343479388bd381067c729f70c98b08ce262d346e1e247b618c2c981e53d7e81114295ccd25943aa3cf74ba81899792a444dc033110c549cc250d7a65fd045096a81ea43b3f46b47279c3c66b4f621e7224b5dfd41c446fc9aa624aa0b294ce427955a8a2fc2f2d2e04d22fe364c25fd30aa95febc4b8236d9f703d9987d17bab62d71cec75a293f1d435d89bb57107a4d6ddf6f8296d19eb57afd13b4f9587348ea4e8a40871b9098f907443b6c93b25dea9013e3e5fd5670f68bb3b5b986f17a962e8ee6f3d163d55cad865a2d974aaf1ca8f41ec7439088b43a903c43c741b4a97f59c7999f791339591013d98d792f5a51a37a68ab8806be0ef281ed823f87746cef3de5abb3d32bd96fa8fe96ae283795e571b4e38b2455b0bec8aeaf926a1852606f24af5c269c2d1e6b6eb2b7ee038c14e4aeb86f18b0db6dea5ad8c6208233f045a9ce7a38ac70f4fab0aa1612a40fd31346c213788504a02ef438abf814282173c2edc4b35098039a952dd1eae881071f47276d7e93e9a72891050cb6f306ad9e973d34b5906d695cd8154ce2e3eb57ea167dabc8e84fa745f7b612823ef590ac299b25070c38e247ba9a6073e9b1a35dcbf86f94108676b3679b782ef4d302eee3eaf169af422dc63b6ba8db6d06306a90d483453a0025f1957ac0b200b014f4f414e88c29e98a88b9475360322b861455c661305915da5c6b70cf045e74793e749eb160ec4ffc0c47157379d96c8e4e08e4e1cdf67dc6c491e54dd908012ca3b2ac6b2e63007cc306043a5413dee7376b77b128da82f6e24fbfe74bbdb52404623bc9e85eb941457c5f5a4fea27a220196d546769a0fc5d4e7f857856168173fcefd5bf112e597ef3bdd5ae63af8d0c1bc38cad75d17b397e7ce191d6bc948e31ec7e45d5177c6387063ad53ae9a5fe46ccca96b281d2e9f46c6ab608f02b5f722887730c556b5676bd5f0480f6a9bc7e427488f419bf17a41fffe84498b09595ccbba29ed2e15067979a7d1c360046ef28adf287e486adfaeb0212814726a9ab9ca009e8259f5b4afa7e6762e36774863637d4a736d135c430002bd5001c1c462590eaadb3ba461c95e5b8e23858c7871b6d7bf68ed3c94cce2f7f3302057a1fb1bce076ec5107754f02e71c2ef9fd2f04ad116e9c7a9534fa966b9f74436bbf3ad4e0b604f98f62aafbfeabe7d7d045062a5531575911a7a33e9523ac5db168517a44eae16b766a27aa07ff9ea6b692d10f1744cfb1c6ee4301c64525f5743bd90c7ffbe87c7c1ddee99e1b2abbc857ec6f79568cb2c7a35e2a3514a7dfdb7a63c4b6b27e858f99c68f6baa5d8514e8ca6731549fba9722c3f4c5788df54d42c5875b67fad350597812ebb80bca782c6d6fea9c2f3763dd818254b8ea6385463f8f5be27931274ebf35a28bafad6367d6cec330d414a69c881b2143e27d3fc754061c02e0cba4b0ff1a6ddcae8997c380229969a356ff24c34d344dc03a7ab22c1f51f2ada3a2ab51627c9b5bb6320c85376f912098c119c258850a2d9ba7ba18446795d6283d7f4b4990d5a6a1f4f59c0428c20a101b2023325f6a6b8caab8bfc0c4cff5030b12133e537c8a9598a9adbcc4c9f3f9fcff0022395b7c8b91a0a2c4e0030a181a1e23385a5e6193a0a2aed2dfe6eefa000000000000000000000000000011242f4201",
        "00e6e05c3088185c394b7f2fb90356e1eb80aab511a23fa3202e2b79667fabb0ddd665312ce1306ec0651c422b336091f56e2486c06f93e69971ad1cf61c00e13f7584cc7e1226ff10c7b1f9111d68e874116a8fa853d4efd459b5cbdacae8d7cf067bd60a93c6855d5d29ec6ec6db6bac1f58b330754811a3ff2612ab1ecdd38e7e77b7fc3c68ef064df8f311cf1701d50b96d40282ab34a9f824beba7895f755fa8922c0625cdceafd4aec350a831a60252c7eb2d4c2048aabf8330850e3822f482d2ca403748a928bfafbf5cfcb2b69b9653acb6dac42890d83cbd9446bab9543588d4ade60f680604034b788c734a2b194bf3a1959dc8151f0a3b4a057d289a843efafed5583b96d2c8c89be7ef466625a6f44f47adfe3ae49d7521c533757364377cfa6654df4a02f6e70bbec72847927cb4fb2076bae78691ed4f6b8b277aac253004add5ee8652e5f12d5fad595189a583d492de50471d6e5c7e6e17b9947db134cac6a40e1d706559a7e44438b3a15e79d2c3dfcc5f71c297234a6b9fc206a6bb097eed8d9da4d6018328328a3c31afd7062d13173de1621f0bf5391cf31380e00a3068b95d9da088a2a04c4593689880b63db00b22e62e2b54443f16240d082d82683579742118644d0f9e46fd895cb6ac09416d6e14f0e753a13e9460fc1dd08e12eefd717ba617f200d6a296f9aadcae431ea6c5cccaddd131b74ea5baeed8daa890d09f75135c7dcc8c372ab32370a1aba6f0552cc8cc7cc705614dae9ce1d0e2f42bc786720d8e0808636f00e00eb9467d565c3b0b4bc3345ab43b02715f294209416123a70d62b16b599af3aabf6091c7bb390a031365f07b93ab82cb3ad96c57300c45b9dd1b58c4c3e6716441251a7c2ead244ae79c6db5777112e376e9c57fab2a82f749512ddcd179a95cd6a70082dc7e2c9230f03a8ffbe00c16f36eaf991da1c70c1f8eeb0c9ceedbb6562c0b25ba9271551e8b003b28d7395657d1cafa490075642bc8ef5032d01e6b962d28a59779d898a08128bdf864c60cb4f93996af6265b1640b909d88ac3b9785d889dbb244bc27a883575d41d8edb2af301f3efc3512d311d92cd033917740c92d182be8e32a2c2630597c097c9a50e6738746371151d93491a61b545e6b1ec705032fbebb31707790f720fdc678bfe51a55c6c8f0d2a94f571e2c3a1e33a98bbaeddcaa52af1ef7795cf564512fb932612f995c024080a1610d97caf2337491c6692940717a31922fb923e8f1f159ff0f1a3f4ea5f3dae531dd333e5960a7f494472ea7afae0b3a8fa0754567624d0e4b3b1914de13470cd4fdba2214a82d225e9a2f641367b57b87cd3dff42c536683a02e366e353fad1818ba1245a5daa78d9ce0c9fab4b5a9548392e0773cd31c28dd88adfabe70c4637e3020d9d0f4570232b7f11f72a7ebe0125a084cd55d2991b04e03192aa38485a9bacd32c49b27f751938c6d1d349842bce943a98e776a8cf2a59acdef6ff6cbc341c27e3e7bd5f4410321a378570ea979d5330e4fc3f51cc3665f168e35168934a29d8c4b88515a0495505075074c3d348c3188bb95f60ca4a6433d7f5be87eb7eb251ac761e2c68bc24b4d99b7ae68f02195097dd1b19759a305de6893bb93eb59bb36010dfd7b5df3fed8715e355f70725f51c627a7a167b0a1e2101586c6ce2d970c25dd2cc06768c4c6b7c81737c95243c9d25da052ab9a9308d72d77671f284dbcd0996cdc29baeb41deb629acbff78d34210126c520856fbdbcf7201d7fc9c9932934c3516bdf0c65d0c68da36275c3e585bf20a84b5e6ce0079e2da3a423b5fed4466413e042caf4791b8ad808723c83"
      ],
      "sequence": 4294967294
    }
  ],
  "vout": [
    {
      "value": 1.0,
      "n": 0,
      "scriptPubKey": {
        "asm": "OP_RETURN aadab7927d4d332615ae43c97cbced6ad3f0a58c32d4df96927eeb4ad096ec60 20ee93de97be36b8cea49069e49ca9c47f3ba844538d39035422c99ea287c13f00ceb3feb79e1698ee84b049c4bc89e45f1b886473ad19237402e9be82a7e11f60aed39ed7fe76f88ee4d029a4dce9843f7be80413cd7943146289dee2c7817f408ef3bef7de56d8aec4f00984fcc9a41f5bc82433ed59633442a9fec2e7a15fa06e135e173eb6384e2410e9641c2944ffbb28c4d30db983d4a2491e220741bf804e337e371e96186e0430c9443c0964df9b08e4f32d99a3f482693e0227619fe02e531e577ef6780e6450a9245c6904bffb6884934df9c394e2095e624701ffc00e733e775ed6582e447089047c49249fdb48a4b36dd9e3b4c2297e426721df20ee93de97be36b8cea49069e49ca9c47f3ba844538d39035422c99ea287c13f00ceb3feb79e1698ee84b049c4bc89e45f1b886473ad19237402e9be82a7e11f60aed39ed7fe76f88ee4d029a4dce9843f7be80413cd7943146289dee2c7817f408ef3bef7de56d8aec4f00984fcc9a41f5bc82433ed59633442a9fec2e7a15fa06e135e173eb6384e2410e9641c2944ffbb28c4d30db983d4a2491e220741bf804e337e371e96186e0430c9443c0964df9b08e4f32d99a3f482693e0227619fe02e531e577ef6780e6450a9245c6904bffb6884934df9c394e2095e624701ffc00e733e775ed6582e447089047c49249fdb48a4b36dd9e3b4c2297e426721df20ee93de97be36b8cea49069e49ca9c47f3ba844538d39035422c99ea287c13f00ceb3feb79e1698ee84b049c4bc89e45f1b886473ad19237402e9be82a7e11f60aed39ed7fe76f88ee4d029a4dce9843f7be80413cd7943146289dee2c7817f408ef3bef7de56d8aec4f00984fcc9a41f5bc82433ed59633442a9fec2e7a15fa06e135e173eb6384e2410e9641c2944ffbb28c4d30db983d4a2491e220741bf804e337e371e96186e0430c9443c0964df9b08e4f32d99a3f482693e0227619fe02e531e577ef6780e6450a9245c6904bffb6884934df9c394e2095e624701ffc00e733e775ed6582e447089047c49249fdb48a4b36dd9e3b4c2297e426721df20ee93de97be36b8cea49069e49ca9c47f3ba844538d39035422c99ea287c13f00ceb3feb79e1698ee84b049c4bc89e45f1b886473ad19237402e9be82a7e11f60aed39ed7fe76f88ee4d029a4dce9843f7be80413cd7943146289dee2c7817f408ef3bef7de56d8aec4f00984fcc9a41f5bc82433ed59633442a9fec2e7a15fa06e135e173eb6384e2410e9641c2944ffbb28c4d30db983d4a2491e220741bf804e337e371e96186e0430c9443c0964df9b08e4f32d99a3f482693e0227619fe02e531e577ef6780e6450a9245c6904bffb6884934df9c394e2095e624701ffc00e733e775ed6582e447089047c49249fdb48a4b36dd9e3b4c2297e426721df20ee93de97be36b8cea49069e49ca9c47f3ba844538d39035422c99ea287c13f00ceb3feb79e1698ee84b049c4bc89e45f1b886473ad19237402e9be82a7e11f60aed39ed7fe76f88ee4d029a4dce9843f7be80413cd7943146289dee2c7817f408ef3bef7de56d8aec4f00984fcc9a41f5bc82433ed59633442a9fec2e7a15fa06e135e173eb6384e2410e9641c2944a07513bc309ddae2653ade7ebbdc8e3703b36dfcae6a38849406c1581780d73c",
        "hex": "6a20aadab7927d4d332615ae43c97cbced6ad3f0a58c32d4df96927eeb4ad096ec604db00420ee93de97be36b8cea49069e49ca9c47f3ba844538d39035422c99ea287c13f00ceb3feb79e1698ee84b049c4bc89e45f1b886473ad19237402e9be82a7e11f60aed39ed7fe76f88ee4d029a4dce9843f7be80413cd7943146289dee2c7817f408ef3bef7de56d8aec4f00984fcc9a41f5bc82433ed59633442a9fec2e7a15fa06e135e173eb6384e2410e9641c2944ffbb28c4d30db983d4a2491e220741bf804e337e371e96186e0430c9443c0964df9b08e4f32d99a3f482693e0227619fe02e531e577ef6780e6450a9245c6904bffb6884934df9c394e2095e624701ffc00e733e775ed6582e447089047c49249fdb48a4b36dd9e3b4c2297e426721df20ee93de97be36b8cea49069e49ca9c47f3ba844538d39035422c99ea287c13f00ceb3feb79e1698ee84b049c4bc89e45f1b886473ad19237402e9be82a7e11f60aed39ed7fe76f88ee4d029a4dce9843f7be80413cd7943146289dee2c7817f408ef3bef7de56d8aec4f00984fcc9a41f5bc82433ed59633442a9fec2e7a15fa06e135e173eb6384e2410e9641c2944ffbb28c4d30db983d4a2491e220741bf804e337e371e96186e0430c9443c0964df9b08e4f32d99a3f482693e0227619fe02e531e577ef6780e6450a9245c6904bffb6884934df9c394e2095e624701ffc00e733e775ed6582e447089047c49249fdb48a4b36dd9e3b4c2297e426721df20ee93de97be36b8cea49069e49ca9c47f3ba844538d39035422c99ea287c13f00ceb3feb79e1698ee84b049c4bc89e45f1b886473ad19237402e9be82a7e11f60aed39ed7fe76f88ee4d029a4dce9843f7be80413cd7943146289dee2c7817f408ef3bef7de56d8aec4f00984fcc9a41f5bc82433ed59633442a9fec2e7a15fa06e135e173eb6384e2410e9641c2944ffbb28c4d30db983d4a2491e220741bf804e337e371e96186e0430c9443c0964df9b08e4f32d99a3f482693e0227619fe02e531e577ef6780e6450a9245c6904bffb6884934df9c394e2095e624701ffc00e733e775ed6582e447089047c49249fdb48a4b36dd9e3b4c2297e426721df20ee93de97be36b8cea49069e49ca9c47f3ba844538d39035422c99ea287c13f00ceb3feb79e1698ee84b049c4bc89e45f1b886473ad19237402e9be82a7e11f60aed39ed7fe76f88ee4d029a4dce9843f7be80413cd7943146289dee2c7817f408ef3bef7de56d8aec4f00984fcc9a41f5bc82433ed59633442a9fec2e7a15fa06e135e173eb6384e2410e9641c2944ffbb28c4d30db983d4a2491e220741bf804e337e371e96186e0430c9443c0964df9b08e4f32d99a3f482693e0227619fe02e531e577ef6780e6450a9245c6904bffb6884934df9c394e2095e624701ffc00e733e775ed6582e447089047c49249fdb48a4b36dd9e3b4c2297e426721df20ee93de97be36b8cea49069e49ca9c47f3ba844538d39035422c99ea287c13f00ceb3feb79e1698ee84b049c4bc89e45f1b886473ad19237402e9be82a7e11f60aed39ed7fe76f88ee4d029a4dce9843f7be80413cd7943146289dee2c7817f408ef3bef7de56d8aec4f00984fcc9a41f5bc82433ed59633442a9fec2e7a15fa06e135e173eb6384e2410e9641c2944a07513bc309ddae2653ade7ebbdc8e3703b36dfcae6a38849406c1581780d73c",
        "type": "nulldata"
      }
    },
    {
      "value": 499983.7296,
      "n": 1,
      "scriptPubKey": {
        "asm": "1 198e972935c215de08d7f962cf9096036c2ca9b223a77a09343d76efdacd0f4e",
        "hex": "5120198e972935c215de08d7f962cf9096036c2ca9b223a77a09343d76efdacd0f4e",
        "reqSigs": 1,
        "type": "witness_v1_scripthash",
        "addresses": [
          "3QJmnh"
        ]
      }
    }
  ],
  "blockhash": "e950f66e7d48487e03ac7a1b4e7864aa28758accf0e3d98358cdf64a352531e0",
  "confirmations": 1,
  "time": 1764181937,
  "blocktime": 1764181937
}