{
  "hex": "010000000001017a7955b98dd4eed8ba16bb102be1a59b28159c95f12f8541f57a01e5f66f3a770100000000feffffff023022f408792d00002251200bba5d745b15f242cece09d2e61a9938b27aaaa516d9fb69a24d1d750de921ce00e1f50500000000fdd5046a2071cb3f9c34611acdd9bdb712192ca97d83f8682b12ce5098bf6dc37708eb067d4db0040c55e5fb3b11aec299498cbe9878a47509e9fdbc2efd9a1785c84b5147b1563a2c75c5db1b318ee2b969ac9eb858845529c9dd9c0eddba37a5e86b716791761a4c15a5bb7b51ee82d909ccfed838e43549a9bdfc6ebdda57c5880b1107f1167a6c35859b5b71cea2f929ecdef818c41569899ddc4e9dfa77e5a82b3127d1365a8cd5657bbb912e4219c90c3e18f824f589697d3cae7d1a970548cbd1c731d6baacf5455b9bb10e6239e92c1e38d804d5a9495d1c8e5d3ab72568ebf1e711f69acc95253bfbd16e0259894c7e58b864b5c9293d7cee3d5ad745088b91877196faecb5051bdbf14e2279a96c5e78984495e9091d5cce1d7af76528abb1a751b6da0c55e5fb3b11aec299498cbe9878a47509e9fdbc2efd9a1785c84b5147b1563a2c75c5db1b318ee2b969ac9eb858845529c9dd9c0eddba37a5e86b716791761a4c15a5bb7b51ee82d909ccfed838e43549a9bdfc6ebdda57c5880b1107f1167a6c35859b5b71cea2f929ecdef818c41569899ddc4e9dfa77e5a82b3127d1365a8cd5657bbb912e4219c90c3e18f824f589697d3cae7d1a970548cbd1c731d6baacf5455b9bb10e6239e92c1e38d804d5a9495d1c8e5d3ab72568ebf1e711f69acc95253bfbd16e0259894c7e58b864b5c9293d7cee3d5ad745088b91877196faecb5051bdbf14e2279a96c5e78984495e9091d5cce1d7af76528abb1a751b6da0c55e5fb3b11aec299498cbe9878a47509e9fdbc2efd9a1785c84b5147b1563a2c75c5db1b318ee2b969ac9eb858845529c9dd9c0eddba37a5e86b716791761a4c15a5bb7b51ee82d909ccfed838e43549a9bdfc6ebdda57c5880b1107f1167a6c35859b5b71cea2f929ecdef818c41569899ddc4e9dfa77e5a82b3127d1365a8cd5657bbb912e4219c90c3e18f824f589697d3cae7d1a970548cbd1c731d6baacf5455b9bb10e6239e92c1e38d804d5a9495d1c8e5d3ab72568ebf1e711f69acc95253bfbd16e0259894c7e58b864b5c9293d7cee3d5ad745088b91877196faecb5051bdbf14e2279a96c5e78984495e9091d5cce1d7af76528abb1a751b6da0c55e5fb3b11aec299498cbe9878a47509e9fdbc2efd9a1785c84b5147b1563a2c75c5db1b318ee2b969ac9eb858845529c9dd9c0eddba37a5e86b716791761a4c15a5bb7b51ee82d909ccfed838e43549a9bdfc6ebdda57c5880b1107f1167a6c35859b5b71cea2f929ecdef818c41569899ddc4e9dfa77e5a82b3127d1365a8cd5657bbb912e4219c90c3e18f824f589697d3cae7d1a970548cbd1c731d6baacf5455b9bb10e6239e92c1e38d804d5a9495d1c8e5d3ab72568ebf1e711f69acc95253bfbd16e0259894c7e58b864b5c9293d7cee3d5ad745088b91877196faecb5051bdbf14e2279a96c5e78984495e9091d5cce1d7af76528abb1a751b6da0c55e5fb3b11aec299498cbe9878a47509e9fdbc2efd9a1785c84b5147b1563a2c75c5db1b318ee2b969ac9eb858845529c9dd9c0eddba37a5e86b716791761a4c15a5bb7b51ee82d909ccfed838e43549a9bdfc6ebdda57c5880b1107f1167a6c35859b5b71cea2f929ecdef818c41569899ddc4e9dfa77e5a82b3127d1365a8cd5657bbb912e4219c90c3e18f824f5c66ca8b80e87b299f916e185dddfb5d9f7d8ce6ad2a6cbe0286ae86b44db28dc02fd750910938722f05e71653cb72bb1fc25cc1cd2ff476ae0d41a3a5a305244870f547defbac6cd9503815cae1ec198c9d3b15ce858682b160f56e3ba9c33f7e222ed80e8f1058ff60fe02f648c765c3cdc21ccc2886a819cc4d5c274bd8b793a6b3ef1d2f1be05d4cd23121f23f9da57e2d3d0716aa51a26541b9bba68b147425a52dcaa1cdb79f9ef7848723a5c78281c0e8cd7cf8109e66db3b7a2ae334b9035e36efdb2ffb1977c8cb458828f61326e746f5c6772fa5071d9d4369c5e048ac53e4cbaf7425590b2c5cc53f08bb9fc1c97b963f0242728afafb37bb26f17e7bdf3d9d56a5c4701c74ea077654d468ecfe65d554a3be9643055fc5805ddc2e5d4e2deb9b6d6f6afabf06c8ea68606a9539de5f3a98ff6430e6395c5a4df0632acae7cb5ae3b0d92cd149f423913a9adaf61ae9ead3256f117e153648edf89cb61910cc0f99e4ae46ec60ec829a96a4fc4241f5c6d24023a37b5a7d9a4fd773edb1c97dcc9471661d60f312b9a14c5aa5efca006bae63c28156ca9497ca0f347f2ea2d6b63edf16be068aab2a0c9a018842bc624748c029ad8bac54a12c0e898675bd28c3903962ec7f8535a6682267d04e74653f3c1835f388c74614e99a17bdf59a9052997c4504c217baf33fb6d9577b5f490705f7bee32e586ac0718943278a3e3f0c21c33dd6b906f4fdae39d148ca2169037e3713c1f6f231139c3990a4eeaa2c6c971f91bad3b96bf71f4a8fb65f3314ad811aa5937e41f8286a0fe454015b0ec981a5b2ac418c0c5a6c28582e442f7a6285d3dfca3372e6ce6bfdeaa410356a0a4c95948e4933c89800752c410dfde19f72efe46723d8e5846b045f161a107e96cb81e0ccb6a6bd92e31b860df4dee1d4bd07679d289c079c303d7b39b217aca2f2739cfd56d33b89755ae0539cf0f02473461df309cd8317a695a992ffb322ef741ab057bec9ecdb07fee05003315fa2c76bc739d8cbcd35c4b61dee4a335a1dfa38b1826c704e1e430161c3fe6415eefb3d071895e6693d328dbf615f84efb1baa2cedfcecaa7010f5a1b4d3ee859f6f90dc32c70bee2231776fdcca11b3c47da6f56c150ad813635ef0438debfaccc2fb0cd75e9baf31f7ffbf3dcedc9d43f370db999ebf9e936bf8b675672f89d6dace737523e93cfdb8b04cb050acc68062b77221f31ee4d3a4f6b1f79b0ac83432d8f63cf41eb1807b61ddc88051de93027864a645a95cfeb8aee41e624b16accccb49863e4719314a5fa07c238f8503fe257070b4453abf729d0cb1f38fecb92de2c66e8394dbd544c6ec25d626416b2d2f8c7ff7f77453e954fa00832ab12f328e0b4417b886e65df6dc9071317da4cd8510e1381af7b4014a8815a385ee07c02acda43a7c6fcddf73b63e0a35ca1a449279331debbefb66ff121206bbdb954779811f4273d9fbfe68c664cac05caf5b8c3af2ba3be7f4763f51f19beed1efa3b326c8b36955c62185698d19183d9da0e844d13990f9d5ff97917f11dbda86281d1a25dc2dce24bffce023a3b6855648a36d6a1cb771e4d8658b884d7927f0cb927e73c4dd433e2a4ea5bc71961ca13f33f8b88c3c321b59b7eb544fbeeb0ea74e2600dac9c3d8cfc319f87df39965ff0566570b3508a41338901d9a22cb291dad301175a37f7e9b02ce745a953bb8201eee73d2b452b48220ef77b8af9589575cd29805acf75ac46cf4293b10f8afca7bcb5628bcf6ba2f59783224d8f156c7b333ce2ec48d9d60d52a810eb79bee53cf4c493dcf75cc958cb468a9b334b0fd04df79c2dcb4a9bb54863a1d5574dfa2158f7c7f6bf635980b19419dea32c929f57805123d5e6df226161ee9a647fefbee973dbc8ca82c36cfc86c77a405ba83d747c89a12bc7e2046acbc75d78f5572f0869146dffd6c94417c02acbe663abf25097b6db83867f9a64493ac06e9b7da23e7d963cdaded5aead000c7ef137f5247598a31a1201f15fedb4408a1d9747ed8d01d071950c669ea0054e53dcdd67edca5964b158e2ecd5e188239fc6ad4d53d4bc57cf5121b711257d4f71fb0037a5c8054a5634ab1e5444cf9d239745374d2ae125635ecfbcb5d8a28aca70b2e2aac72c3c8313dca8745908327126d4514512c89bea511d77edecf0928176555fe0afb9ae7c9ebf4439b4b52a0e0c216e85ed8321a6d71a7bea64804f50f9a1e76dd49ab108e2bf273699a77961bf56ea86067d93604f6d0e304f11f726e05bf85fdb531b2ba79e30a00a0b52e91a0444d1ed38ff4fbef5c03d32ae6346732c21f3beaf2b9aeb8d2e5491bb90604490ed80731caa5e5545902238592d31a7b47a15d4d00950ed39e00a062d07b0d9ab189ec59f9761ca8ee77d284d1eb062809bbb156601ccaea6888d9c7e4e1ebd8d7abb5c5cf3bf8b12ead2a3f271b7da87c8b3f3b7b9e15a96fa913fdd3dd0d3b3614b43e521a9627e2e0a6096687e5fc4768dbf1ebd8c6ca012053a5bf32a0e5da846a4f44356c5149a575001652988210fd2c52f517b6f2c481122d8d588e4db0a1ec37d338a983ba5bf77d70cfb794526c71f13528a69ad0406ac10771efdbf46456826d413ff3cb396971f076b13956847f28c6f7b4f9c7b04ce7a548468f37f0300635be3b0aa90141dd79340628cff2f5732aa15dbb1db8babf8a23cdf32185045e5f35fb8e26031ac00543353776968007d7d7c04a570586941b83689bd69bd7ab2ea6581fc092afb47a14d43d82be2cb629f8b8503dc8a2a95e62c6154a5703ef43dc1b3bb12cf690019badaab0476dce5f779cc274632d462be0e5fee14f4b61c1f5adeee2ff9ffa860b7611b7e7a74ddce67c23c14bbefb63445eff65ec95f9984a369ab0772a4c8e2cfd88d5b6ebaebf28d00b6a6b90b5f007d0942ac842c65998c53df8b4565ce88d134cdd3c4d24d3da08e831510ff8dd2ef220339693770a672feb7cd6367654e8bbc126adbac05aa62375021adfdef80da2fe66470042edeef6c59cddbe38a4868351ba1d1d454668cc4e372d0a061406f073de8d576f507ab0ab9e0f0eb6edc44d950d2578f761b202a8d1fb996dd9db15223f988fe3609d7a7257bf77a73107e5953b3b33b7580a325e768bbfa295fe8658e8a4e0d69735a27b3fb3d107748f4648a003083176c93ffb9d1c3fb106d0f6d4986589b8ab34eb857844b5534e63cfc002b60d867209a3a1819d1c3b312c63923a717afb630e0930893c018f1d90a84011f8245788d4dd1e164ef12534d9e8d4343a159e325c8efabba51915c68849886c57c300326ed8bc8acbd80c00c2cf0808121a293c3f6c717a888ba0afb3c1c7ddf4fb0e103958648e91a1b0c0daeaf20e1a2e333f474a5d696c93989ddcf01c1e2226545e696b6d7987a1b7bedfe4e8eaf5000000000000000000000000000013202f4201fd210500e3494555311d9a13ca2ffe7562cfbad5e35001069246e29148408cae7c729fbf83108b552cc290cd4d3332edcdf1a414ec35ed20ef7000dc1129fa81eb1751d9feb2fb8363cd24543bd38060a376c433d0d0635466d72f637939992b261b851870bedc6c685bcfc5b8e76e55857654935863fa0ae336ab4d3f99f1729e95b84a49d09b2441a2cd6a0f80972c8b3b07dccadbe66080e7619e172b8f092f520d2268c3c79f3a631bf67ef44067b93bd73e8b1f347e0a8575a27dd3c7717b290d35214c818c3120a0a37555724c0088d20d51c7e25e7774f200a972250e39357146f12bfe13add23fcfdd4808af687f3763fc07fb3212c6c407806e016671be0c8ca263fb4063d461e068fe674ad25b901350c00eb601d2c0a5f54715f6cefa1fa4dc038765f8c422150ad472ba9c5e76d76cfed4a1e261c7066a67761b48c39e3b33441d463f7a0582ea3690d6a6d94ac1d73879dcefd75573b0269da372a5d2cd46af17d8a4e9a78ddf5aeccfcb927ba04bfc77c7ea045ecae077ae989636c77a27450ab3134e637d5eee7670547c7f1ef9a0f789cba00a315d8a547457c8ee9f4eaca6527acbd9ab91c562151bfb87320effe7d22073c8e0abfd5bcea22b283df509a7e5266c6674110fa8e82e8407a8b298660bd3f837f5370062572f3e479f35c1739d6c7c59dc0841e5b90852fb74120a97ebe8b2acc273185b406295e1a86fc353cbc9ff65ab173ea45a2583dc0663a14c7405d7832b2b6a92a8aad83e6d167a15a873bfbf4582dd5a40c7c321efd5fa5a74f2adfa4ae7b01357c694036206af58ae2f67c670f1e8fabd35cc2ca125851ea45fefb6711d18a4f338be2f9ec48a847e489b9c994e5eca689451371870a1a0b9e05e9fca52a656309d63efb0850bed9d9f13d49ded4f179334e2fd71daab5f3ef9e6139b289281f7e5fbff4b24c4c219e6a4e46fcb64ec6e6c4659a92d2accb9d3d932c3c8e224ad6e3cedd2db7a8c79fe393cf30ea566ca20687974fbae55cefeb1b5d8fdaeda039356118ef2346c8c550565377353071a16ffde91f9e6606b8aec2073072bd66edb84de25ad2baeac2211b04f61e2248868a7a4b1e389626a5833fbf6cc2560572516db44dfed34dfcf0eb00aa9d143c4ec22956106a8474d7522128e1c778526a5e6371eba252b08a8d64902541fb7e2f7c48d8b7a0a05e3a9434f1da4689f9103f19017b98a35711d789d42ea5750b78b70923ca2b9019ac7726e21fe1c08256533f4ee3dd6ac5777db54b5dec3dd85efdd47c62e5b621d61cb6f0e99ae0fc9919577d2c2823780682a7e25bbc9d0bdae102301e207aeebe810b6797f1ce469ab4cbc3c4cef7a4d012e0d50b6a7a2a4791cbf333b5ed5bb145bc09abc50e9d5ea513ac084364b7a795e834dcc3c23480b6a3809184586432ad8e92349df4e7a4831f8c6aef99312c1ee22f16e48703d92709f813382d43097e4f022525034f7688ff0cfeabe2fbae2fd41b9a1befa0935fb1150e2fbea18399bf2ec11f776a6f885b6f1eea8c8178227a4113578c4029c8b4cfbe0f4e18e09e027bf083f901d536392f23d8b894a34541b1a189cc5aa8567237d5afc345f3272852558848c9d2b4513373fde8be88637d6219dd5e1766465020027817a06ac18df458a675a6b7fc0b62dfc6b169447a0690b142cf75dfb36afbd8f78d57d357711bebc47209ff4a14799cd9f811df9d08891944d93a122f08ad49b14a2527aeb1faab755078fcfa8fe1ce0c28c37f9808df81965d5e997a5dc41c08918620cc9d368c50ceafef648e30af9d04ab5724f660f4490680cbe12afeca411f412c8fdb97d0a8de65b1560d17d82000000",
  "txid": "d55158cfa345b8fda90f46e4cff29b26643c67d40a2cc5466e8afab66b754534",
  "hash": "27bc55d657fd9ffc7be1bce0c8d9197fdff29fff54e9efed0a4abc2cce6b2435",
  "size": 5085,
  "vsize": 2278,
  "version": 1,
  "locktime": 130,
  "vin": [
    {
      "txid": "773a6ff6e5017af541852ff1959c15289ba5e12b10bb16bad8eed48db955797a",
      "vout": 1,
      "scriptSig": {
        "asm": "",
        "hex": ""
      },
      "txinwitness": [
        "10938722f05e71653cb72bb1fc25cc1cd2ff476ae0d41a3a5a305244870f547defbac6cd9503815cae1ec198c9d3b15ce858682b160f56e3ba9c33f7e222ed80e8f1058ff60fe02f648c765c3cdc21ccc2886a819cc4d5c274bd8b793a6b3ef1d2f1be05d4cd23121f23f9da57e2d3d0716aa51a26541b9bba68b147425a52dcaa1cdb79f9ef7848723a5c78281c0e8cd7cf8109e66db3b7a2ae334b9035e36efdb2ffb1977c8cb458828f61326e746f5c6772fa5071d9d4369c5e048ac53e4cbaf7425590b2c5cc53f08bb9fc1c97b963f0242728afafb37bb26f17e7bdf3d9d56a5c4701c74ea077654d468ecfe65d554a3be9643055fc5805ddc2e5d4e2deb9b6d6f6afabf06c8ea68606a9539de5f3a98ff6430e6395c5a4df0632acae7cb5ae3b0d92cd149f423913a9adaf61ae9ead3256f117e153648edf89cb61910cc0f99e4ae46ec60ec829a96a4fc4241f5c6d24023a37b5a7d9a4fd773edb1c97dcc9471661d60f312b9a14c5aa5efca006bae63c28156ca9497ca0f347f2ea2d6b63edf16be068aab2a0c9a018842bc624748c029ad8bac54a12c0e898675bd28c3903962ec7f8535a6682267d04e74653f3c1835f388c74614e99a17bdf59a9052997c4504c217baf33fb6d9577b5f490705f7bee32e586ac0718943278a3e3f0c21c33dd6b906f4fdae39d148ca2169037e3713c1f6f231139c3990a4eeaa2c6c971f91bad3b96bf71f4a8fb65f3314ad811aa5937e41f8286a0fe454015b0ec981a5b2ac418c0c5a6c28582e442f7a6285d3dfca3372e6ce6bfdeaa410356a0a4c95948e4933c89800752c410dfde19f72efe46723d8e5846b045f161a107e96cb81e0ccb6a6bd92e31b860df4dee1d4bd07679d289c079c303d7b39b217aca2f2739cfd56d33b89755ae0539cf0f02473461df309cd8317a695a992ffb322ef741ab057bec9ecdb07fee05003315fa2c76bc739d8cbcd35c4b61dee4a335a1dfa38b1826c704e1e430161c3fe6415eefb3d071895e6693d328dbf615f84efb1baa2cedfcecaa7010f5a1b4d3ee859f6f90dc32c70bee2231776fdcca11b3c47da6f56c150ad813635ef0438debfaccc2fb0cd75e9baf31f7ffbf3dcedc9d43f370db999ebf9e936bf8b675672f89d6dace737523e93cfdb8b04cb050acc68062b77221f31ee4d3a4f6b1f79b0ac83432d8f63cf41eb1807b61ddc88051de93027864a645a95cfeb8aee41e624b16accccb49863e4719314a5fa07c238f8503fe257070b4453abf729d0cb1f38fecb92de2c66e8394dbd544c6ec25d626416b2d2f8c7ff7f77453e954fa00832ab12f328e0b4417b886e65df6dc9071317da4cd8510e1381af7b4014a8815a385ee07c02acda43a7c6fcddf73b63e0a35ca1a449279331debbefb66ff121206bbdb954779811f4273d9fbfe68c664cac05caf5b8c3af2ba3be7f4763f51f19beed1efa3b326c8b36955c62185698d19183d9da0e844d13990f9d5ff97917f11dbda86281d1a25dc2dce24bffce023a3b6855648a36d6a1cb771e4d8658b884d7927f0cb927e73c4dd433e2a4ea5bc71961ca13f33f8b88c3c321b59b7eb544fbeeb0ea74e2600dac9c3d8cfc319f87df39965ff0566570b3508a41338901d9a22cb291dad301175a37f7e9b02ce745a953bb8201eee73d2b452b48220ef77b8af9589575cd29805acf75ac46cf4293b10f8afca7bcb5628bcf6ba2f59783224d8f156c7b333ce2ec48d9d60d52a810eb79bee53cf4c493dcf75cc958cb468a9b334b0fd04df79c2dcb4a9bb54863a1d5574dfa2158f7c7f6bf635980b19419dea32c929f57805123d5e6df226161ee9a647fefbee973dbc8ca82c36cfc86c77a405ba83d747c89a12bc7e2046acbc75d78f5572f0869146dffd6c94417c02acbe663abf25097b6db83867f9a64493ac06e9b7da23e7d963cdaded5aead000c7ef137f5247598a31a1201f15fedb4408a1d9747ed8d01d071950c669ea0054e53dcdd67edca5964b158e2ecd5e188239fc6ad4d53d4bc57cf5121b711257d4f71fb0037a5c8054a5634ab1e5444cf9d239745374d2ae125635ecfbcb5d8a28aca70b2e2aac72c3c8313dca8745908327126d4514512c89bea511d77edecf0928176555fe0afb9ae7c9ebf4439b4b52a0e0c216e85ed8321a6d71a7bea64804f50f9a1e76dd49ab108e2bf273699a77961bf56ea86067d93604f6d0e304f11f726e05bf85fdb531b2ba79e30a00a0b52e91a0444d1ed38ff4fbef5c03d32ae6346732c21f3beaf2b9aeb8d2e5491bb90604490ed80731caa5e5545902238592d31a7b47a15d4d00950ed39e00a062d07b0d9ab189ec59f9761ca8ee77d284d1eb062809bbb156601ccaea6888d9c7e4e1ebd8d7abb5c5cf3bf8b12ead2a3f271b7da87c8b3f3b7b9e15a96fa913fdd3dd0d3b3614b43e521a9627e2e0a6096687e5fc4768dbf1ebd8c6ca012053a5bf32a0e5da846a4f44356c5149a575001652988210fd2c52f517b6f2c481122d8d588e4db0a1ec37d338a983ba5bf77d70cfb794526c71f13528a69ad0406ac10771efdbf46456826d413ff3cb396971f076b13956847f28c6f7b4f9c7b04ce7a548468f37f0300635be3b0aa90141dd79340628cff2f5732aa15dbb1db8babf8a23cdf32185045e5f35fb8e26031ac00543353776968007d7d7c04a570586941b83689bd69bd7ab2ea6581fc092afb47a14d43d82be2cb629f8b8503dc8a2a95e62c6154a5703ef43dc1b3bb12cf690019badaab0476dce5f779cc274632d462be0e5fee14f4b61c1f5adeee2ff9ffa860b7611b7e7a74ddce67c23c14bbefb63445eff65ec95f9984a369ab0772a4c8e2cfd88d5b6ebaebf28d00b6a6b90b5f007d0942ac842c65998c53df8b4565ce88d134cdd3c4d24d3da08e831510ff8dd2ef220339693770a672feb7cd6367654e8bbc126adbac05aa62375021adfdef80da2fe66470042edeef6c59cddbe38a4868351ba1d1d454668cc4e372d0a061406f073de8d576f507ab0ab9e0f0eb6edc44d950d2578f761b202a8d1fb996dd9db15223f988fe3609d7a7257bf77a73107e5953b3b33b7580a325e768bbfa295fe8658e8a4e0d69735a27b3fb3d107748f4648a003083176c93ffb9d1c3fb106d0f6d4986589b8ab34eb857844b5534e63cfc002b60d867209a3a1819d1c3b312c63923a717afb630e0930893c018f1d90a84011f8245788d4dd1e164ef12534d9e8d4343a159e325c8efabba51915c68849886c57c300326ed8bc8acbd80c00c2cf0808121a293c3f6c717a888ba0afb3c1c7ddf4fb0e103958648e91a1b0c0daeaf20e1a2e333f474a5d696c93989ddcf01c1e2226545e696b6d7987a1b7bedfe4e8eaf5000000000000000000000000000013202f4201",
        "00e3494555311d9a13ca2ffe7562cfbad5e35001069246e29148408cae7c729fbf83108b552cc290cd4d3332edcdf1a414ec35ed20ef7000dc1129fa81eb1751d9feb2fb8363cd24543bd38060a376c433d0d0635466d72f637939992b261b851870bedc6c685bcfc5b8e76e55857654935863fa0ae336ab4d3f99f1729e95b84a49d09b2441a2cd6a0f80972c8b3b07dccadbe66080e7619e172b8f092f520d2268c3c79f3a631bf67ef44067b93bd73e8b1f347e0a8575a27dd3c7717b290d35214c818c3120a0a37555724c0088d20d51c7e25e7774f200a972250e39357146f12bfe13add23fcfdd4808af687f3763fc07fb3212c6c407806e016671be0c8ca263fb4063d461e068fe674ad25b901350c00eb601d2c0a5f54715f6cefa1fa4dc038765f8c422150ad472ba9c5e76d76cfed4a1e261c7066a67761b48c39e3b33441d463f7a0582ea3690d6a6d94ac1d73879dcefd75573b0269da372a5d2cd46af17d8a4e9a78ddf5aeccfcb927ba04bfc77c7ea045ecae077ae989636c77a27450ab3134e637d5eee7670547c7f1ef9a0f789cba00a315d8a547457c8ee9f4eaca6527acbd9ab91c562151bfb87320effe7d22073c8e0abfd5bcea22b283df509a7e5266c6674110fa8e82e8407a8b298660bd3f837f5370062572f3e479f35c1739d6c7c59dc0841e5b90852fb74120a97ebe8b2acc273185b406295e1a86fc353cbc9ff65ab173ea45a2583dc0663a14c7405d7832b2b6a92a8aad83e6d167a15a873bfbf4582dd5a40c7c321efd5fa5a74f2adfa4ae7b01357c694036206af58ae2f67c670f1e8fabd35cc2ca125851ea45fefb6711d18a4f338be2f9ec48a847e489b9c994e5eca689451371870a1a0b9e05e9fca52a656309d63efb0850bed9d9f13d49ded4f179334e2fd71daab5f3ef9e6139b289281f7e5fbff4b24c4c219e6a4e46fcb64ec6e6c4659a92d2accb9d3d932c3c8e224ad6e3cedd2db7a8c79fe393cf30ea566ca20687974fbae55cefeb1b5d8fdaeda039356118ef2346c8c550565377353071a16ffde91f9e6606b8aec2073072bd66edb84de25ad2baeac2211b04f61e2248868a7a4b1e389626a5833fbf6cc2560572516db44dfed34dfcf0eb00aa9d143c4ec22956106a8474d7522128e1c778526a5e6371eba252b08a8d64902541fb7e2f7c48d8b7a0a05e3a9434f1da4689f9103f19017b98a35711d789d42ea5750b78b70923ca2b9019ac7726e21fe1c08256533f4ee3dd6ac5777db54b5dec3dd85efdd47c62e5b621d61cb6f0e99ae0fc9919577d2c2823780682a7e25bbc9d0bdae102301e207aeebe810b6797f1ce469ab4cbc3c4cef7a4d012e0d50b6a7a2a4791cbf333b5ed5bb145bc09abc50e9d5ea513ac084364b7a795e834dcc3c23480b6a3809184586432ad8e92349df4e7a4831f8c6aef99312c1ee22f16e48703d92709f813382d43097e4f022525034f7688ff0cfeabe2fbae2fd41b9a1befa0935fb1150e2fbea18399bf2ec11f776a6f885b6f1eea8c8178227a4113578c4029c8b4cfbe0f4e18e09e027bf083f901d536392f23d8b894a34541b1a189cc5aa8567237d5afc345f3272852558848c9d2b4513373fde8be88637d6219dd5e1766465020027817a06ac18df458a675a6b7fc0b62dfc6b169447a0690b142cf75dfb36afbd8f78d57d357711bebc47209ff4a14799cd9f811df9d08891944d93a122f08ad49b14a2527aeb1faab755078fcfa8fe1ce0c28c37f9808df81965d5e997a5dc41c08918620cc9d368c50ceafef648e30af9d04ab5724f660f4490680cbe12afeca411f412c8fdb97d0a8de65b1560d17d"
      ],
      "sequence": 4294967294
    }
  ],
  "vout": [
    {
      "value": 499978.6451,
      "n": 0,
      "scriptPubKey": {
        "asm": "1 0bba5d745b15f242cece09d2e61a9938b27aaaa516d9fb69a24d1d750de921ce",
        "hex": "51200bba5d745b15f242cece09d2e61a9938b27aaaa516d9fb69a24d1d750de921ce",
        "reqSigs": 1,
        "type": "witness_v1_scripthash",
        "addresses": [
          "3QJmnh"
        ]
      }
    },
    {
      "value": 1.0,
      "n": 1,
      "scriptPubKey": {
        "asm": "OP_RETURN 71cb3f9c34611acdd9bdb712192ca97d83f8682b12ce5098bf6dc37708eb067d 0c55e5fb3b11aec299498cbe9878a47509e9fdbc2efd9a1785c84b5147b1563a2c75c5db1b318ee2b969ac9eb858845529c9dd9c0eddba37a5e86b716791761a4c15a5bb7b51ee82d909ccfed838e43549a9bdfc6ebdda57c5880b1107f1167a6c35859b5b71cea2f929ecdef818c41569899ddc4e9dfa77e5a82b3127d1365a8cd5657bbb912e4219c90c3e18f824f589697d3cae7d1a970548cbd1c731d6baacf5455b9bb10e6239e92c1e38d804d5a9495d1c8e5d3ab72568ebf1e711f69acc95253bfbd16e0259894c7e58b864b5c9293d7cee3d5ad745088b91877196faecb5051bdbf14e2279a96c5e78984495e9091d5cce1d7af76528abb1a751b6da0c55e5fb3b11aec299498cbe9878a47509e9fdbc2efd9a1785c84b5147b1563a2c75c5db1b318ee2b969ac9eb858845529c9dd9c0eddba37a5e86b716791761a4c15a5bb7b51ee82d909ccfed838e43549a9bdfc6ebdda57c5880b1107f1167a6c35859b5b71cea2f929ecdef818c41569899ddc4e9dfa77e5a82b3127d1365a8cd5657bbb912e4219c90c3e18f824f589697d3cae7d1a970548cbd1c731d6baacf5455b9bb10e6239e92c1e38d804d5a9495d1c8e5d3ab72568ebf1e711f69acc95253bfbd16e0259894c7e58b864b5c9293d7cee3d5ad745088b91877196faecb5051bdbf14e2279a96c5e78984495e9091d5cce1d7af76528abb1a751b6da0c55e5fb3b11aec299498cbe9878a47509e9fdbc2efd9a1785c84b5147b1563a2c75c5db1b318ee2b969ac9eb858845529c9dd9c0eddba37a5e86b716791761a4c15a5bb7b51ee82d909ccfed838e43549a9bdfc6ebdda57c5880b1107f1167a6c35859b5b71cea2f929ecdef818c41569899ddc4e9dfa77e5a82b3127d1365a8cd5657bbb912e4219c90c3e18f824f589697d3cae7d1a970548cbd1c731d6baacf5455b9bb10e6239e92c1e38d804d5a9495d1c8e5d3ab72568ebf1e711f69acc95253bfbd16e0259894c7e58b864b5c9293d7cee3d5ad745088b91877196faecb5051bdbf14e2279a96c5e78984495e9091d5cce1d7af76528abb1a751b6da0c55e5fb3b11aec299498cbe9878a47509e9fdbc2efd9a1785c84b5147b1563a2c75c5db1b318ee2b969ac9eb858845529c9dd9c0eddba37a5e86b716791761a4c15a5bb7b51ee82d909ccfed838e43549a9bdfc6ebdda57c5880b1107f1167a6c35859b5b71cea2f929ecdef818c41569899ddc4e9dfa77e5a82b3127d1365a8cd5657bbb912e4219c90c3e18f824f589697d3cae7d1a970548cbd1c731d6baacf5455b9bb10e6239e92c1e38d804d5a9495d1c8e5d3ab72568ebf1e711f69acc95253bfbd16e0259894c7e58b864b5c9293d7cee3d5ad745088b91877196faecb5051bdbf14e2279a96c5e78984495e9091d5cce1d7af76528abb1a751b6da0c55e5fb3b11aec299498cbe9878a47509e9fdbc2efd9a1785c84b5147b1563a2c75c5db1b318ee2b969ac9eb858845529c9dd9c0eddba37a5e86b716791761a4c15a5bb7b51ee82d909ccfed838e43549a9bdfc6ebdda57c5880b1107f1167a6c35859b5b71cea2f929ecdef818c41569899ddc4e9dfa77e5a82b3127d1365a8cd5657bbb912e4219c90c3e18f824f5c66ca8b80e87b299f916e185dddfb5d9f7d8ce6ad2a6cbe0286ae86b44db28dc",
        "hex": "6a2071cb3f9c34611acdd9bdb712192ca97d83f8682b12ce5098bf6dc37708eb067d4db0040c55e5fb3b11aec299498cbe9878a47509e9fdbc2efd9a1785c84b5147b1563a2c75c5db1b318ee2b969ac9eb858845529c9dd9c0eddba37a5e86b716791761a4c15a5bb7b51ee82d909ccfed838e43549a9bdfc6ebdda57c5880b1107f1167a6c35859b5b71cea2f929ecdef818c41569899ddc4e9dfa77e5a82b3127d1365a8cd5657bbb912e4219c90c3e18f824f589697d3cae7d1a970548cbd1c731d6baacf5455b9bb10e6239e92c1e38d804d5a9495d1c8e5d3ab72568ebf1e711f69acc95253bfbd16e0259894c7e58b864b5c9293d7cee3d5ad745088b91877196faecb5051bdbf14e2279a96c5e78984495e9091d5cce1d7af76528abb1a751b6da0c55e5fb3b11aec299498cbe9878a47509e9fdbc2efd9a1785c84b5147b1563a2c75c5db1b318ee2b969ac9eb858845529c9dd9c0eddba37a5e86b716791761a4c15a5bb7b51ee82d909ccfed838e43549a9bdfc6ebdda57c5880b1107f1167a6c35859b5b71cea2f929ecdef818c41569899ddc4e9dfa77e5a82b3127d1365a8cd5657bbb912e4219c90c3e18f824f589697d3cae7d1a970548cbd1c731d6baacf5455b9bb10e6239e92c1e38d804d5a9495d1c8e5d3ab72568ebf1e711f69acc95253bfbd16e0259894c7e58b864b5c9293d7cee3d5ad745088b91877196faecb5051bdbf14e2279a96c5e78984495e9091d5cce1d7af76528abb1a751b6da0c55e5fb3b11aec299498cbe9878a47509e9fdbc2efd9a1785c84b5147b1563a2c75c5db1b318ee2b969ac9eb858845529c9dd9c0eddba37a5e86b716791761a4c15a5bb7b51ee82d909ccfed838e43549a9bdfc6ebdda57c5880b1107f1167a6c35859b5b71cea2f929ecdef818c41569899ddc4e9dfa77e5a82b3127d1365a8cd5657bbb912e4219c90c3e18f824f589697d3cae7d1a970548cbd1c731d6baacf5455b9bb10e6239e92c1e38d804d5a9495d1c8e5d3ab72568ebf1e711f69acc95253bfbd16e0259894c7e58b864b5c9293d7cee3d5ad745088b91877196faecb5051bdbf14e2279a96c5e78984495e9091d5cce1d7af76528abb1a751b6da0c55e5fb3b11aec299498cbe9878a47509e9fdbc2efd9a1785c84b5147b1563a2c75c5db1b318ee2b969ac9eb858845529c9dd9c0eddba37a5e86b716791761a4c15a5bb7b51ee82d909ccfed838e43549a9bdfc6ebdda57c5880b1107f1167a6c35859b5b71cea2f929ecdef818c41569899ddc4e9dfa77e5a82b3127d1365a8cd5657bbb912e4219c90c3e18f824f589697d3cae7d1a970548cbd1c731d6baacf5455b9bb10e6239e92c1e38d804d5a9495d1c8e5d3ab72568ebf1e711f69acc95253bfbd16e0259894c7e58b864b5c9293d7cee3d5ad745088b91877196faecb5051bdbf14e2279a96c5e78984495e9091d5cce1d7af76528abb1a751b6da0c55e5fb3b11aec299498cbe9878a47509e9fdbc2efd9a1785c84b5147b1563a2c75c5db1b318ee2b969ac9eb858845529c9dd9c0eddba37a5e86b716791761a4c15a5bb7b51ee82d909ccfed838e43549a9bdfc6ebdda57c5880b1107f1167a6c35859b5b71cea2f929ecdef818c41569899ddc4e9dfa77e5a82b3127d1365a8cd5657bbb912e4219c90c3e18f824f5c66ca8b80e87b299f916e185dddfb5d9f7d8ce6ad2a6cbe0286ae86b44db28dc",
        "type": "nulldata"
      }
    }
  ],
  "blockhash": "a9a7ce638639648c5b111e15e0d4489535a11a846f6b50fba3b7e2925471654c",
  "confirmations": 1,
  "time": 1764182153,
  "blocktime": 1764182153
}