{
  "hex": "01000000000101e11c71dfd941cac628a97626438dbc34ee68089d0d9ddb96697e600cfb24b8200000000000feffffff02202367d2782d0000225120295623b8c67fc5e2abab0720e49f159223865ab4313a6e15630f8a19b250d16e00e1f50500000000fdd5046a20224443271d227b282e463afce298486726d088e8d550f66d1da9b8e4986142ff4db004a75f5ada607a688d30e8deed7251b472a4369c00ff0b2f69c98e918a12502f77877f7afa405a48ad10c8fecd527194528416bc20df2b0f49e9aeb1aa32700f57e71f1a9a203a28cd70a89ead3211f432e476dc40bf4b6f2989ced1ca52106f37c73f3aba001a08ed5088be8d1231d412c456fc609f6b4f09a9eef1ea72304f1727dfda5ae0fae80db0685e6df2d134f224b61c807f8bafe9490e110a92d0aff707fffa7ac0dac82d90487e4dd2f114d204963ca05fab8fc9692e312ab2f08fd7679f9a1aa0baa84df0281e2db29174b264f65cc03fcbefa9094e514ad290efb747bfba3a809a886dd0083e0d92b1549244d67ce01febcf89296e716af2b0cf97a75f5ada607a688d30e8deed7251b472a4369c00ff0b2f69c98e918a12502f77877f7afa405a48ad10c8fecd527194528416bc20df2b0f49e9aeb1aa32700f57e71f1a9a203a28cd70a89ead3211f432e476dc40bf4b6f2989ced1ca52106f37c73f3aba001a08ed5088be8d1231d412c456fc609f6b4f09a9eef1ea72304f1727dfda5ae0fae80db0685e6df2d134f224b61c807f8bafe9490e110a92d0aff707fffa7ac0dac82d90487e4dd2f114d204963ca05fab8fc9692e312ab2f08fd7679f9a1aa0baa84df0281e2db29174b264f65cc03fcbefa9094e514ad290efb747bfba3a809a886dd0083e0d92b1549244d67ce01febcf89296e716af2b0cf97a75f5ada607a688d30e8deed7251b472a4369c00ff0b2f69c98e918a12502f77877f7afa405a48ad10c8fecd527194528416bc20df2b0f49e9aeb1aa32700f57e71f1a9a203a28cd70a89ead3211f432e476dc40bf4b6f2989ced1ca52106f37c73f3aba001a08ed5088be8d1231d412c456fc609f6b4f09a9eef1ea72304f1727dfda5ae0fae80db0685e6df2d134f224b61c807f8bafe9490e110a92d0aff707fffa7ac0dac82d90487e4dd2f114d204963ca05fab8fc9692e312ab2f08fd7679f9a1aa0baa84df0281e2db29174b264f65cc03fcbefa9094e514ad290efb747bfba3a809a886dd0083e0d92b1549244d67ce01febcf89296e716af2b0cf97a75f5ada607a688d30e8deed7251b472a4369c00ff0b2f69c98e918a12502f77877f7afa405a48ad10c8fecd527194528416bc20df2b0f49e9aeb1aa32700f57e71f1a9a203a28cd70a89ead3211f432e476dc40bf4b6f2989ced1ca52106f37c73f3aba001a08ed5088be8d1231d412c456fc609f6b4f09a9eef1ea72304f1727dfda5ae0fae80db0685e6df2d134f224b61c807f8bafe9490e110a92d0aff707fffa7ac0dac82d90487e4dd2f114d204963ca05fab8fc9692e312ab2f08fd7679f9a1aa0baa84df0281e2db29174b264f65cc03fcbefa9094e514ad290efb747bfba3a809a886dd0083e0d92b1549244d67ce01febcf89296e716af2b0cf97a75f5ada607a688d30e8deed7251b472a4369c00ff0b2f69c98e918a12502f77877f7afa405a48ad10c8fecd527194528416bc20df2b0f49e9aeb1aa32700f57e71f1a9a203a28cd70a89ead3211f432e476dc40bf4b6f2989ced1ca52106f37c73f3aba001a08ed5088be8d1231d412c456fc609f6b4f09a9eef1ea72304f1727dfda5ae0fae80db0685e6df2d134f2c3f4fd2b926fdec51aca4f07bd2c85560754daf3d84a297e09f1f63c46b86b1c02fd750941f134034dee2796e893a932c8793dcde0e5156fcbd07387016d85d241a44872e68304dac67dbd70ee0b176eb89091fbdfeddd1f64b1aa8989c7c5e53d56fb181c3da2657ab4576d516c5af43bd06103b7f9ebe253744e0d45a630f0b8f625392c676b45eef373f47ce74e8152d785230ac107caf4b1c8f06c0b3bd99bf3ae244cdada32c9f9da23d5a6479d17c0069d29fabf7830eacb1ae9beca234de414c3ca2f626c28fcc724dc8c359a9455cd4df0ea3c6f39e1cce52d92c7c49d849f4e94b82534f37aa127db6113625f6cfcbb8700540857ce74398d4507c2ab5b433ef65c36ae1af40d9e289005aa9f0c1b2f587c4ed4d51af2c72278a7d040077ce160700a659806026cb29ef101a1e1c4aa65a8467cd32c4dc3452711ed4bf084ee35c134257e48f4b1219f3d20abc58a6f04a18b2edccdd6c7f7283f769aab78187df114b432d174b0374828ba8ecc856fdbffebf93483b9a46ce5b5790d06a11fae1e8b80cee697f4940e72d8d56f8a5806fce11d7c8ab355064f69a923be838ba284e76d7c57976cdb2a24eeb0313ae1a9b6c4e7aef30a157089d6cf843fe30447c52aaa34e09548b2d449595c601cb1731f21d17ae0814b39d8d5db7440cd90f1952fccbd029bf0edbed10052edd5ba94620ddd459950a7a47db0b936a8c4607e8adf9b579e24d7c9ba0056ffe15ed83b35ed72027adee124ec647b1c1614fcfcce2f94f3c34a5b970d2261a56c69021d0a344a1c0737824f0330acc0c154c5fd83963414b45feaae4a1f6c67f0d4be127f1fd8455f1de3fbb0d438c69175162867b6f9383b794d9aed621bf75b050795636314111b65dbd186ddac79aa44cf3c9eff47c94bdb14f30d37de4f4415fb6988a53c64cd714f906d994d1de43decee4af32160cea1eb344c60a2304a4bb026d8d52fa36fc8507d6f23b418a5228f6f04c25bf1431e8403fbafa7e274b1bfab1018d5f58183e037ccaf968c2f6613fce7fa650af4ca2ebd4ac7e4634dc5092a2c89005fb0ba98f24238bfa08c6eaf94226d865e1a7f0b5b43ddec457ccb5442860bf6a23ef105b698fa057980bb5fa1f76675f61489510323a54b3c366043eaeb4f964b67be49a4c64a58c95c45c5f70a044e40006eb73e59fe63126f6be0895f78f32175d66c2336f0f2592061ad9072dfac5d8f27684b0f8d3c82f51165d6111e0504b53f28720a5ba2ebd979dfa9a9efa547c0c7d5279578a5d9c34f8110a76a6ddb19cb46e6062c0beebd535881ee5607adbf103478536c3abd97a477c58bb72ca2bd39668ef6259e0f2532c7aa579e34d496013ec77f6aa0377c2e1c78267c7fefa9623aa4f46775797d8183de37bfb37a946e90b406553e166b5684bcb9d8c2561a910d32c4440dd27eade43dfd3469324e622f2fd204c52c152e30e6aef5f0a3aeed1695a1ab18c3e5e0d245873f375871621c6bc5e6a06767930159068d575a538873d3249ffc2e5279f262c3073ddd6dfddd2ecf7036721b946c737dad7494095e99556a5107bc82d10c2ac1a8e9561a55816cb0b18a2792e747227d8fc50c98469b6075c12950f7e6508d4dd49ebfd33757ab0f87fdcf96c23fa04b7f17249c957a15227ec39b97e1e102417b6e494fd6aa03f2f66ade83c199607a02ea3ec94668b2682a619935627774316a87c5710ab29482d8adf4a324a13e9688f378d52f12712f6ff324a8f72c89757057a6a921b72c5e351739bf0586aa5ca27db0586cbfdc87fc69d51f58ac30f66ceff80f7824bf27e637ed79faa744799f8aadca0fd81a4838caefbf657a7bf709d807adce49700a01dfe5ddb54d54a703abfca6c963785017d1a4d70558820cec1a8a76c5b5569ac2178230c5ea3b793232a7ddc00e7433a9c44ccb65384c42082f86d7f02c0fdf118fabcdd80f1cac269d12ec6a7fbfb142ee34e3d49d9d85b1984accdba38bd957416be301759bff4babd9efe8b0c96c2017477c694a3845e65166444ec0f8dcbae2a2e211c8c72a90584308cab609b43c021a0388d7b90cf09ff0636fcc34b6afa7aaa665c462fee3badac88057ee0866f064bec1a791f0c04a705a617767b291b2adf5eee5dbe7cc8fb2a8e8a138595beeba16aea6a468371348603c5aba0ef45ae54b55e2c51a7ddb43df45f2defdf93e05e94864f4975fced0404da273b83d968ec9789bb18ecf9085fcc4fbd22fbb86f193da4947707bd80f84a7e44678669d1df25402c2c610a5901001115c22b6ba3e92f673159491d9b8522b2a348892a3077216e96309fdc444a507e87ef3a7f0ffc35434d79b7a85bcb66bfbbbb2698fda328b41010964168af8d8522f54e69ce3ec72bcc705c2a993e5f21a8793651c6479bfe8b974f5b73e6444d31088ce60728617f56856225a993b75e9416a590d21871bdeb109a15533780ac5fc4dd3bb5031cac3145cdc9efd89431f3fe8bac94d6f7dfc64165bbc66fff9db2dbdf11dd32c9b000188ea37f1a9442136ed9286c5875e1e2434993c7442330ddcc6c5cf727f40f62503315aa882b99d33fee0d22b1807d1ece370b6ec1b97791eae44809296b2e25eb2de6d12ed38dcee9052a78db5cc6b23bae0c19a86b0ed4a8ac38b38518741cfb2dd6b5f50c6595a4cb494401b10e3c9b0d3054e3860f63171b4903598e936d275bf4057d010e4a968418d5801622770540eed64a219ea1b81e63e5d0a09e4cd673d5e607aefb92b2863cc8fd9e7570eaeacc6345168b6d5e5eb3fb2b6ec5141351fcfc99616b4bbccb90f66ee7e935b18f4432ba88e4469039cbdacd165dbd6afb94ac6319641c6fd5654d8fc014bebe487e57a49a2a7bddcf8a3ff74bf253b626282fcf9fd888bedea2cc898ad92b5dbf5797918b1e5baefab09b87d11f134378763c10f2d289c7baa2ad94df73e31bfba19546d34c139fabe0594c537b3058d2f7468081a1fc9f1fa08fd894bf9603fb5dfeffa074f5776a4a940023e04d2aa4dd1effa40faa64f9180f8e945f23fc4a519a15afd31804556b8fe99510569f19048d629c85a0b5fd6b9914ec7e3f22fed74737f58d45db2d2c4b7bba27d9e8c63e63d18b5da6b693fef5e83f72a489ca708d504c1b11caf035d87460b21f3fe286552ad0c8896a60c2670361a90c91bf021bb2b06bfc793a7b81aa27110b709a4218c5665bb77ac9b98cc8aef8bc74b986d79ba883befbcbbcd04e48e195bc2706d9f3ccc547c1ee3737443a434525d7025f9eb54e0e2401b16f8a770ab098a512c2da7a4a52e0d5f44ed58542807af44e1feaee8404cec9e38b3d68f3c2a3b417b8497b4b7d2d7e1e4e6f60a173f4e505f697f83a2adb3c7d2dd060d28305c6c7186a1b9bff6fa1a363e4144494f536e95afc4d5000000000000000000000000000000000000000000000000000e1d2a3701fd210500e1462a45e048b3857a0099b9adc88f55d66960fe5ec56b96df6046842cf7d280dc566871cec472668fbd619b20a1647c488c52aed4644418ac9fe12bdc49473cd9586ec388db4783dcab3202fac5e7cff43d59abb922c2f9d337ce62a4c9f5ca03d5a62762a95db7eab0bc9281a6d32ef25ec8d5da408f96caee8dfe4e219faeddf257d107b9f009c6ffe4917dd919c5ad26094a67f681ad37b7ceee93a19391888065eddea3c9a701f95c977569ff836a4b64795ae88909858fc8f0c6023e15afe29f73c8ad7d698e896921d5f3b80bc417220e08c16a69b52c5e3b9afc0486dac4fcdc628cd070fd67808e080a6e257b019b0e5f3be68381768c8007ef6c3b992953931791795485a84319316250add7021ce3c157e9cbd31eeff0c687eb9324ec43f07acdfc9dbfdee72a298b107513a10d55a5012df7427777d4975fc1471767da19abad02b0e4fd26f270252b7112ae745854dc6172081aec8bbce31ddd379da2433e4adfea9ed2aca8f16035dbe91596fc821dccc303b6becd13ae61d273139eefbc0ac8907c8fccf651d93ca062c72318023befcc70eb64c6eae1b2b76f683963b4fb9a4763448ce02528b104f087fe04d23ecffd6900f306bccc58817bd8b0c35ac539a6b5433186f3b9f6db898e006a7ad2ec006ebba66ac7531fdd36be910a2f1d0c01cfccc4f2a50812145421cf076e8c254a939f865d34962af1e8a7c945c9b9a12268aae627130349a725479ababf7ba60baf333f10f388e895fe0558728e6e3acffb0ecc3b209721c8a5d1ed0c05510cf8cbf969e2f715c6f275ea2c00f0825512d8fc8f8aa4eaf919874ed90c90ec96cf17c29bbbcb3faf1a722f4837c01ff2337774eaa3c639290bb8686f9b363272733e16f0b540bea31def7125008e8832cd89518af1cb259c201c562bdd1c2dea9bc0dd2cc8a7671dc217ea9f6b9d49dd1557dcd0d9b75809a1cb941a1bd411a8d455d9cb871dd9a447ac02b2591a337f9f8ac339466508ae01b695dbdd90a00bcd81ab7c4a991742eba32417930043f8f110c2de3ce04ab7bfa684aef170da84a9650ebae58d2f066c25f4977f9adce5b5c566646b77907c3203d6b53ace96cafb619480fe89fa52f757cd84920b32dbc374a779eb6b7f568282d800d1a28c7ba4fa0f66d040766820478b9bcc0cd45b97a7055d5fab0291490a79c68e0f2b1eb2a6028f7724f8e1fdcc6f2df1edea93757b998400b28abd99784e273ed9b87a75e14931f76db82d70a375e6e9806d167b6a091857d890a9a58275e13e193ef67794362825489596f70754ae4f8c6cbbce36a3412b6d53dc89aebeb036fdf3964f6024e203d940b7cf1b1dbe655ef9eb34c565ef09ca010aaccce93656ebe27adc2b794c36f51bc67b7fff42ff5e3bf926278bf1fb972a8b982a97d97a32b3253e4928d40e6b09436695387c7c29df5d6c7af0163a991926c0d12a557e8ec0233eb52816712f7355cccc9f1e9bfd31fd3952f197a8b24dcca7f4493a1b860c405d4484eba01177fa4b9f50e6a689f377baaaf7d14f71fd8f3634799c15cfb4c544f5e1f1c75150325c3c603e6bae05720339fb052a32ecca1cd8f288aa8fb3fab9faa8ff99689c239cf1e21f0ecbcf9522e04f3fe67ed28447e40fc2446fb44bd456a0220e1bc2d76dd661a7b82a9786cc3b66f734859f0476e348aedb363e04387628a9b46bd12009efe28911e22ee37aca4d07004afa91edc754575e2c5226175486521db87ba4081a4ddfff4a02787c5dcae75f0bd414966c3f04a987082800bb11f641cfaf6ca17d6a1b6c8b965888c43810bed999f433909e95ed1c640d638963ff6c986a90b980000000",
  "txid": "d94bc6e26a2a480fd2625c8329edbc9944eec70b60679900aeb6608fc4150626",
  "hash": "2d2a2463ba8cc100f322016952ccb1c1615e3559aea31d79655207b1affd58c6",
  "size": 5085,
  "vsize": 2278,
  "version": 1,
  "locktime": 128,
  "vin": [
    {
      "txid": "20b824fb0c607e6996db9d0d9d0868ee34bc8d432676a928c6ca41d9df711ce1",
      "vout": 0,
      "scriptSig": {
        "asm": "",
        "hex": ""
      },
      "txinwitness": [
        "41f134034dee2796e893a932c8793dcde0e5156fcbd07387016d85d241a44872e68304dac67dbd70ee0b176eb89091fbdfeddd1f64b1aa8989c7c5e53d56fb181c3da2657ab4576d516c5af43bd06103b7f9ebe253744e0d45a630f0b8f625392c676b45eef373f47ce74e8152d785230ac107caf4b1c8f06c0b3bd99bf3ae244cdada32c9f9da23d5a6479d17c0069d29fabf7830eacb1ae9beca234de414c3ca2f626c28fcc724dc8c359a9455cd4df0ea3c6f39e1cce52d92c7c49d849f4e94b82534f37aa127db6113625f6cfcbb8700540857ce74398d4507c2ab5b433ef65c36ae1af40d9e289005aa9f0c1b2f587c4ed4d51af2c72278a7d040077ce160700a659806026cb29ef101a1e1c4aa65a8467cd32c4dc3452711ed4bf084ee35c134257e48f4b1219f3d20abc58a6f04a18b2edccdd6c7f7283f769aab78187df114b432d174b0374828ba8ecc856fdbffebf93483b9a46ce5b5790d06a11fae1e8b80cee697f4940e72d8d56f8a5806fce11d7c8ab355064f69a923be838ba284e76d7c57976cdb2a24eeb0313ae1a9b6c4e7aef30a157089d6cf843fe30447c52aaa34e09548b2d449595c601cb1731f21d17ae0814b39d8d5db7440cd90f1952fccbd029bf0edbed10052edd5ba94620ddd459950a7a47db0b936a8c4607e8adf9b579e24d7c9ba0056ffe15ed83b35ed72027adee124ec647b1c1614fcfcce2f94f3c34a5b970d2261a56c69021d0a344a1c0737824f0330acc0c154c5fd83963414b45feaae4a1f6c67f0d4be127f1fd8455f1de3fbb0d438c69175162867b6f9383b794d9aed621bf75b050795636314111b65dbd186ddac79aa44cf3c9eff47c94bdb14f30d37de4f4415fb6988a53c64cd714f906d994d1de43decee4af32160cea1eb344c60a2304a4bb026d8d52fa36fc8507d6f23b418a5228f6f04c25bf1431e8403fbafa7e274b1bfab1018d5f58183e037ccaf968c2f6613fce7fa650af4ca2ebd4ac7e4634dc5092a2c89005fb0ba98f24238bfa08c6eaf94226d865e1a7f0b5b43ddec457ccb5442860bf6a23ef105b698fa057980bb5fa1f76675f61489510323a54b3c366043eaeb4f964b67be49a4c64a58c95c45c5f70a044e40006eb73e59fe63126f6be0895f78f32175d66c2336f0f2592061ad9072dfac5d8f27684b0f8d3c82f51165d6111e0504b53f28720a5ba2ebd979dfa9a9efa547c0c7d5279578a5d9c34f8110a76a6ddb19cb46e6062c0beebd535881ee5607adbf103478536c3abd97a477c58bb72ca2bd39668ef6259e0f2532c7aa579e34d496013ec77f6aa0377c2e1c78267c7fefa9623aa4f46775797d8183de37bfb37a946e90b406553e166b5684bcb9d8c2561a910d32c4440dd27eade43dfd3469324e622f2fd204c52c152e30e6aef5f0a3aeed1695a1ab18c3e5e0d245873f375871621c6bc5e6a06767930159068d575a538873d3249ffc2e5279f262c3073ddd6dfddd2ecf7036721b946c737dad7494095e99556a5107bc82d10c2ac1a8e9561a55816cb0b18a2792e747227d8fc50c98469b6075c12950f7e6508d4dd49ebfd33757ab0f87fdcf96c23fa04b7f17249c957a15227ec39b97e1e102417b6e494fd6aa03f2f66ade83c199607a02ea3ec94668b2682a619935627774316a87c5710ab29482d8adf4a324a13e9688f378d52f12712f6ff324a8f72c89757057a6a921b72c5e351739bf0586aa5ca27db0586cbfdc87fc69d51f58ac30f66ceff80f7824bf27e637ed79faa744799f8aadca0fd81a4838caefbf657a7bf709d807adce49700a01dfe5ddb54d54a703abfca6c963785017d1a4d70558820cec1a8a76c5b5569ac2178230c5ea3b793232a7ddc00e7433a9c44ccb65384c42082f86d7f02c0fdf118fabcdd80f1cac269d12ec6a7fbfb142ee34e3d49d9d85b1984accdba38bd957416be301759bff4babd9efe8b0c96c2017477c694a3845e65166444ec0f8dcbae2a2e211c8c72a90584308cab609b43c021a0388d7b90cf09ff0636fcc34b6afa7aaa665c462fee3badac88057ee0866f064bec1a791f0c04a705a617767b291b2adf5eee5dbe7cc8fb2a8e8a138595beeba16aea6a468371348603c5aba0ef45ae54b55e2c51a7ddb43df45f2defdf93e05e94864f4975fced0404da273b83d968ec9789bb18ecf9085fcc4fbd22fbb86f193da4947707bd80f84a7e44678669d1df25402c2c610a5901001115c22b6ba3e92f673159491d9b8522b2a348892a3077216e96309fdc444a507e87ef3a7f0ffc35434d79b7a85bcb66bfbbbb2698fda328b41010964168af8d8522f54e69ce3ec72bcc705c2a993e5f21a8793651c6479bfe8b974f5b73e6444d31088ce60728617f56856225a993b75e9416a590d21871bdeb109a15533780ac5fc4dd3bb5031cac3145cdc9efd89431f3fe8bac94d6f7dfc64165bbc66fff9db2dbdf11dd32c9b000188ea37f1a9442136ed9286c5875e1e2434993c7442330ddcc6c5cf727f40f62503315aa882b99d33fee0d22b1807d1ece370b6ec1b97791eae44809296b2e25eb2de6d12ed38dcee9052a78db5cc6b23bae0c19a86b0ed4a8ac38b38518741cfb2dd6b5f50c6595a4cb494401b10e3c9b0d3054e3860f63171b4903598e936d275bf4057d010e4a968418d5801622770540eed64a219ea1b81e63e5d0a09e4cd673d5e607aefb92b2863cc8fd9e7570eaeacc6345168b6d5e5eb3fb2b6ec5141351fcfc99616b4bbccb90f66ee7e935b18f4432ba88e4469039cbdacd165dbd6afb94ac6319641c6fd5654d8fc014bebe487e57a49a2a7bddcf8a3ff74bf253b626282fcf9fd888bedea2cc898ad92b5dbf5797918b1e5baefab09b87d11f134378763c10f2d289c7baa2ad94df73e31bfba19546d34c139fabe0594c537b3058d2f7468081a1fc9f1fa08fd894bf9603fb5dfeffa074f5776a4a940023e04d2aa4dd1effa40faa64f9180f8e945f23fc4a519a15afd31804556b8fe99510569f19048d629c85a0b5fd6b9914ec7e3f22fed74737f58d45db2d2c4b7bba27d9e8c63e63d18b5da6b693fef5e83f72a489ca708d504c1b11caf035d87460b21f3fe286552ad0c8896a60c2670361a90c91bf021bb2b06bfc793a7b81aa27110b709a4218c5665bb77ac9b98cc8aef8bc74b986d79ba883befbcbbcd04e48e195bc2706d9f3ccc547c1ee3737443a434525d7025f9eb54e0e2401b16f8a770ab098a512c2da7a4a52e0d5f44ed58542807af44e1feaee8404cec9e38b3d68f3c2a3b417b8497b4b7d2d7e1e4e6f60a173f4e505f697f83a2adb3c7d2dd060d28305c6c7186a1b9bff6fa1a363e4144494f536e95afc4d5000000000000000000000000000000000000000000000000000e1d2a3701",
        "00e1462a45e048b3857a0099b9adc88f55d66960fe5ec56b96df6046842cf7d280dc566871cec472668fbd619b20a1647c488c52aed4644418ac9fe12bdc49473cd9586ec388db4783dcab3202fac5e7cff43d59abb922c2f9d337ce62a4c9f5ca03d5a62762a95db7eab0bc9281a6d32ef25ec8d5da408f96caee8dfe4e219faeddf257d107b9f009c6ffe4917dd919c5ad26094a67f681ad37b7ceee93a19391888065eddea3c9a701f95c977569ff836a4b64795ae88909858fc8f0c6023e15afe29f73c8ad7d698e896921d5f3b80bc417220e08c16a69b52c5e3b9afc0486dac4fcdc628cd070fd67808e080a6e257b019b0e5f3be68381768c8007ef6c3b992953931791795485a84319316250add7021ce3c157e9cbd31eeff0c687eb9324ec43f07acdfc9dbfdee72a298b107513a10d55a5012df7427777d4975fc1471767da19abad02b0e4fd26f270252b7112ae745854dc6172081aec8bbce31ddd379da2433e4adfea9ed2aca8f16035dbe91596fc821dccc303b6becd13ae61d273139eefbc0ac8907c8fccf651d93ca062c72318023befcc70eb64c6eae1b2b76f683963b4fb9a4763448ce02528b104f087fe04d23ecffd6900f306bccc58817bd8b0c35ac539a6b5433186f3b9f6db898e006a7ad2ec006ebba66ac7531fdd36be910a2f1d0c01cfccc4f2a50812145421cf076e8c254a939f865d34962af1e8a7c945c9b9a12268aae627130349a725479ababf7ba60baf333f10f388e895fe0558728e6e3acffb0ecc3b209721c8a5d1ed0c05510cf8cbf969e2f715c6f275ea2c00f0825512d8fc8f8aa4eaf919874ed90c90ec96cf17c29bbbcb3faf1a722f4837c01ff2337774eaa3c639290bb8686f9b363272733e16f0b540bea31def7125008e8832cd89518af1cb259c201c562bdd1c2dea9bc0dd2cc8a7671dc217ea9f6b9d49dd1557dcd0d9b75809a1cb941a1bd411a8d455d9cb871dd9a447ac02b2591a337f9f8ac339466508ae01b695dbdd90a00bcd81ab7c4a991742eba32417930043f8f110c2de3ce04ab7bfa684aef170da84a9650ebae58d2f066c25f4977f9adce5b5c566646b77907c3203d6b53ace96cafb619480fe89fa52f757cd84920b32dbc374a779eb6b7f568282d800d1a28c7ba4fa0f66d040766820478b9bcc0cd45b97a7055d5fab0291490a79c68e0f2b1eb2a6028f7724f8e1fdcc6f2df1edea93757b998400b28abd99784e273ed9b87a75e14931f76db82d70a375e6e9806d167b6a091857d890a9a58275e13e193ef67794362825489596f70754ae4f8c6cbbce36a3412b6d53dc89aebeb036fdf3964f6024e203d940b7cf1b1dbe655ef9eb34c565ef09ca010aaccce93656ebe27adc2b794c36f51bc67b7fff42ff5e3bf926278bf1fb972a8b982a97d97a32b3253e4928d40e6b09436695387c7c29df5d6c7af0163a991926c0d12a557e8ec0233eb52816712f7355cccc9f1e9bfd31fd3952f197a8b24dcca7f4493a1b860c405d4484eba01177fa4b9f50e6a689f377baaaf7d14f71fd8f3634799c15cfb4c544f5e1f1c75150325c3c603e6bae05720339fb052a32ecca1cd8f288aa8fb3fab9faa8ff99689c239cf1e21f0ecbcf9522e04f3fe67ed28447e40fc2446fb44bd456a0220e1bc2d76dd661a7b82a9786cc3b66f734859f0476e348aedb363e04387628a9b46bd12009efe28911e22ee37aca4d07004afa91edc754575e2c5226175486521db87ba4081a4ddfff4a02787c5dcae75f0bd414966c3f04a987082800bb11f641cfaf6ca17d6a1b6c8b965888c43810bed999f433909e95ed1c640d638963ff6c986a90b9"
      ],
      "sequence": 4294967294
    }
  ],
  "vout": [
    {
      "value": 499969.493,
      "n": 0,
      "scriptPubKey": {
        "asm": "1 295623b8c67fc5e2abab0720e49f159223865ab4313a6e15630f8a19b250d16e",
        "hex": "5120295623b8c67fc5e2abab0720e49f159223865ab4313a6e15630f8a19b250d16e",
        "reqSigs": 1,
        "type": "witness_v1_scripthash",
        "addresses": [
          "3QJmnh"
        ]
      }
    },
    {
      "value": 1.0,
      "n": 1,
      "scriptPubKey": {
        "asm": "OP_RETURN 224443271d227b282e463afce298486726d088e8d550f66d1da9b8e4986142ff a75f5ada607a688d30e8deed7251b472a4369c00ff0b2f69c98e918a12502f77877f7afa405a48ad10c8fecd527194528416bc20df2b0f49e9aeb1aa32700f57e71f1a9a203a28cd70a89ead3211f432e476dc40bf4b6f2989ced1ca52106f37c73f3aba001a08ed5088be8d1231d412c456fc609f6b4f09a9eef1ea72304f1727dfda5ae0fae80db0685e6df2d134f224b61c807f8bafe9490e110a92d0aff707fffa7ac0dac82d90487e4dd2f114d204963ca05fab8fc9692e312ab2f08fd7679f9a1aa0baa84df0281e2db29174b264f65cc03fcbefa9094e514ad290efb747bfba3a809a886dd0083e0d92b1549244d67ce01febcf89296e716af2b0cf97a75f5ada607a688d30e8deed7251b472a4369c00ff0b2f69c98e918a12502f77877f7afa405a48ad10c8fecd527194528416bc20df2b0f49e9aeb1aa32700f57e71f1a9a203a28cd70a89ead3211f432e476dc40bf4b6f2989ced1ca52106f37c73f3aba001a08ed5088be8d1231d412c456fc609f6b4f09a9eef1ea72304f1727dfda5ae0fae80db0685e6df2d134f224b61c807f8bafe9490e110a92d0aff707fffa7ac0dac82d90487e4dd2f114d204963ca05fab8fc9692e312ab2f08fd7679f9a1aa0baa84df0281e2db29174b264f65cc03fcbefa9094e514ad290efb747bfba3a809a886dd0083e0d92b1549244d67ce01febcf89296e716af2b0cf97a75f5ada607a688d30e8deed7251b472a4369c00ff0b2f69c98e918a12502f77877f7afa405a48ad10c8fecd527194528416bc20df2b0f49e9aeb1aa32700f57e71f1a9a203a28cd70a89ead3211f432e476dc40bf4b6f2989ced1ca52106f37c73f3aba001a08ed5088be8d1231d412c456fc609f6b4f09a9eef1ea72304f1727dfda5ae0fae80db0685e6df2d134f224b61c807f8bafe9490e110a92d0aff707fffa7ac0dac82d90487e4dd2f114d204963ca05fab8fc9692e312ab2f08fd7679f9a1aa0baa84df0281e2db29174b264f65cc03fcbefa9094e514ad290efb747bfba3a809a886dd0083e0d92b1549244d67ce01febcf89296e716af2b0cf97a75f5ada607a688d30e8deed7251b472a4369c00ff0b2f69c98e918a12502f77877f7afa405a48ad10c8fecd527194528416bc20df2b0f49e9aeb1aa32700f57e71f1a9a203a28cd70a89ead3211f432e476dc40bf4b6f2989ced1ca52106f37c73f3aba001a08ed5088be8d1231d412c456fc609f6b4f09a9eef1ea72304f1727dfda5ae0fae80db0685e6df2d134f224b61c807f8bafe9490e110a92d0aff707fffa7ac0dac82d90487e4dd2f114d204963ca05fab8fc9692e312ab2f08fd7679f9a1aa0baa84df0281e2db29174b264f65cc03fcbefa9094e514ad290efb747bfba3a809a886dd0083e0d92b1549244d67ce01febcf89296e716af2b0cf97a75f5ada607a688d30e8deed7251b472a4369c00ff0b2f69c98e918a12502f77877f7afa405a48ad10c8fecd527194528416bc20df2b0f49e9aeb1aa32700f57e71f1a9a203a28cd70a89ead3211f432e476dc40bf4b6f2989ced1ca52106f37c73f3aba001a08ed5088be8d1231d412c456fc609f6b4f09a9eef1ea72304f1727dfda5ae0fae80db0685e6df2d134f2c3f4fd2b926fdec51aca4f07bd2c85560754daf3d84a297e09f1f63c46b86b1c",
        "hex": "6a20224443271d227b282e463afce298486726d088e8d550f66d1da9b8e4986142ff4db004a75f5ada607a688d30e8deed7251b472a4369c00ff0b2f69c98e918a12502f77877f7afa405a48ad10c8fecd527194528416bc20df2b0f49e9aeb1aa32700f57e71f1a9a203a28cd70a89ead3211f432e476dc40bf4b6f2989ced1ca52106f37c73f3aba001a08ed5088be8d1231d412c456fc609f6b4f09a9eef1ea72304f1727dfda5ae0fae80db0685e6df2d134f224b61c807f8bafe9490e110a92d0aff707fffa7ac0dac82d90487e4dd2f114d204963ca05fab8fc9692e312ab2f08fd7679f9a1aa0baa84df0281e2db29174b264f65cc03fcbefa9094e514ad290efb747bfba3a809a886dd0083e0d92b1549244d67ce01febcf89296e716af2b0cf97a75f5ada607a688d30e8deed7251b472a4369c00ff0b2f69c98e918a12502f77877f7afa405a48ad10c8fecd527194528416bc20df2b0f49e9aeb1aa32700f57e71f1a9a203a28cd70a89ead3211f432e476dc40bf4b6f2989ced1ca52106f37c73f3aba001a08ed5088be8d1231d412c456fc609f6b4f09a9eef1ea72304f1727dfda5ae0fae80db0685e6df2d134f224b61c807f8bafe9490e110a92d0aff707fffa7ac0dac82d90487e4dd2f114d204963ca05fab8fc9692e312ab2f08fd7679f9a1aa0baa84df0281e2db29174b264f65cc03fcbefa9094e514ad290efb747bfba3a809a886dd0083e0d92b1549244d67ce01febcf89296e716af2b0cf97a75f5ada607a688d30e8deed7251b472a4369c00ff0b2f69c98e918a12502f77877f7afa405a48ad10c8fecd527194528416bc20df2b0f49e9aeb1aa32700f57e71f1a9a203a28cd70a89ead3211f432e476dc40bf4b6f2989ced1ca52106f37c73f3aba001a08ed5088be8d1231d412c456fc609f6b4f09a9eef1ea72304f1727dfda5ae0fae80db0685e6df2d134f224b61c807f8bafe9490e110a92d0aff707fffa7ac0dac82d90487e4dd2f114d204963ca05fab8fc9692e312ab2f08fd7679f9a1aa0baa84df0281e2db29174b264f65cc03fcbefa9094e514ad290efb747bfba3a809a886dd0083e0d92b1549244d67ce01febcf89296e716af2b0cf97a75f5ada607a688d30e8deed7251b472a4369c00ff0b2f69c98e918a12502f77877f7afa405a48ad10c8fecd527194528416bc20df2b0f49e9aeb1aa32700f57e71f1a9a203a28cd70a89ead3211f432e476dc40bf4b6f2989ced1ca52106f37c73f3aba001a08ed5088be8d1231d412c456fc609f6b4f09a9eef1ea72304f1727dfda5ae0fae80db0685e6df2d134f224b61c807f8bafe9490e110a92d0aff707fffa7ac0dac82d90487e4dd2f114d204963ca05fab8fc9692e312ab2f08fd7679f9a1aa0baa84df0281e2db29174b264f65cc03fcbefa9094e514ad290efb747bfba3a809a886dd0083e0d92b1549244d67ce01febcf89296e716af2b0cf97a75f5ada607a688d30e8deed7251b472a4369c00ff0b2f69c98e918a12502f77877f7afa405a48ad10c8fecd527194528416bc20df2b0f49e9aeb1aa32700f57e71f1a9a203a28cd70a89ead3211f432e476dc40bf4b6f2989ced1ca52106f37c73f3aba001a08ed5088be8d1231d412c456fc609f6b4f09a9eef1ea72304f1727dfda5ae0fae80db0685e6df2d134f2c3f4fd2b926fdec51aca4f07bd2c85560754daf3d84a297e09f1f63c46b86b1c",
        "type": "nulldata"
      }
    }
  ],
  "blockhash": "f0ff1fbaae405cadeb51abb379c93a956cf666ff613992ee95c2f945c1780bd2",
  "confirmations": 1,
  "time": 1764181685,
  "blocktime": 1764181685
}