{
  "hex": "01000000000101fa9af4a7842ba2f29111ec9b5d504bd8c1844053d40e36208b43ed68630d72f60000000000feffffff0200e1f50500000000fdd5046a2003e7c01089eb99d1c08612d8e7f8c32405d6655ed0de1720eb88840093afb02a4db0048caec9c4b1710d88cd533508d9190bbf3808e3d6debae88ef4da360c3c310156ac8ee9e491512da8ed731528f9392b9f1828c3f6fe9ac8aed4fa162c1c112176ccee8984f1314dc88d13754899594bff7848a3969efaa8ceb49a764c7c714116eccea9a4d1116de8ad335568b9796bdf586883b6beda88ee94ba566c5c5161360c2e494431f18d084dd3b58859998b3fb88863565e3a680e745ab68cbcb181d62c0e696411d1ad286df395a879b9ab1f98a843767e1a482e547a96ac9c91a1f64c6e090471b1cd480d93f5c819d9cb7ff8c823161e7a284e341af6ccfcf1c1966c4e29245191ed682db3d5e839f9eb5fd8e803363e5a086e143ad6ecdcd1e1b68caec9c4b1710d88cd533508d9190bbf3808e3d6debae88ef4da360c3c310156ac8ee9e491512da8ed731528f9392b9f1828c3f6fe9ac8aed4fa162c1c112176ccee8984f1314dc88d13754899594bff7848a3969efaa8ceb49a764c7c714116eccea9a4d1116de8ad335568b9796bdf586883b6beda88ee94ba566c5c5161360c2e494431f18d084dd3b58859998b3fb88863565e3a680e745ab68cbcb181d62c0e696411d1ad286df395a879b9ab1f98a843767e1a482e547a96ac9c91a1f64c6e090471b1cd480d93f5c819d9cb7ff8c823161e7a284e341af6ccfcf1c1966c4e29245191ed682db3d5e839f9eb5fd8e803363e5a086e143ad6ecdcd1e1b68caec9c4b1710d88cd533508d9190bbf3808e3d6debae88ef4da360c3c310156ac8ee9e491512da8ed731528f9392b9f1828c3f6fe9ac8aed4fa162c1c112176ccee8984f1314dc88d13754899594bff7848a3969efaa8ceb49a764c7c714116eccea9a4d1116de8ad335568b9796bdf586883b6beda88ee94ba566c5c5161360c2e494431f18d084dd3b58859998b3fb88863565e3a680e745ab68cbcb181d62c0e696411d1ad286df395a879b9ab1f98a843767e1a482e547a96ac9c91a1f64c6e090471b1cd480d93f5c819d9cb7ff8c823161e7a284e341af6ccfcf1c1966c4e29245191ed682db3d5e839f9eb5fd8e803363e5a086e143ad6ecdcd1e1b68caec9c4b1710d88cd533508d9190bbf3808e3d6debae88ef4da360c3c310156ac8ee9e491512da8ed731528f9392b9f1828c3f6fe9ac8aed4fa162c1c112176ccee8984f1314dc88d13754899594bff7848a3969efaa8ceb49a764c7c714116eccea9a4d1116de8ad335568b9796bdf586883b6beda88ee94ba566c5c5161360c2e494431f18d084dd3b58859998b3fb88863565e3a680e745ab68cbcb181d62c0e696411d1ad286df395a879b9ab1f98a843767e1a482e547a96ac9c91a1f64c6e090471b1cd480d93f5c819d9cb7ff8c823161e7a284e341af6ccfcf1c1966c4e29245191ed682db3d5e839f9eb5fd8e803363e5a086e143ad6ecdcd1e1b68caec9c4b1710d88cd533508d9190bbf3808e3d6debae88ef4da360c3c310156ac8ee9e491512da8ed731528f9392b9f1828c3f6fe9ac8aed4fa162c1c112176ccee8984f1314dc88d13754899594bff7848a3969efaa8ceb49a764c7c714116eccea9a4d1116de8ad335568b9796bdf586883b6beda88ee94ba566c5c5161360c2e494431f18d084dd3b58859998b3f1365600f58b04d34552088fced52f31d12aa0ed095ba4561981b3b38b70e60da50ce18b4782d0000225120a2849b4a98495ce23322f8a7872555c42c9ada91c991d8bfcc31e8a7080f0efa02fd750986105d1d590597243b64f68a975e54a8bae938b8f867debaab10ae1ea8954ab3c7ab898a6b16b9579cb83356f02d52c51e73123d7d21a3377eca6fcf7ed3f89425e3ca09143094c34068bdd7875175ee6d6873e593ecaf05e789fcba58209e46e33dc080874f9bc30c1276a50650ff15dd718ca67fe2ee360c5fc046fd1d212aed288faf60c7d8e2756544bc043a371930f380494b806b9a4b2f885887798288e286e7f05441b1e11f01d9fd2176d9455262ec21d56958121bc0bf441a4328a6ece74df5e6823e06ce22fa63aeccff025e46e4d5129d491b8ffbf0886eabac0e8f057a9f756086b01168a8950a555a9efa3b64a451a91c6a0739fcc9390fe40a7496247517c68aabafc2a4f4ac81936eddda048cb8e43f1c2b886fd18babe5ac99ae5cda712957d0618adffe6114a0c277902f086c1c2c10dca70e2f98b2a3f938f7abcca41d9d81aafa67387dbe9b3226859a85c537a419d4d01e0950a65cdb38923dc30ffa456056565403fc096d8cf6e55d1b6dba7407f97946307603071b2e6997d71947240d0411150b0b20c97eaf448b67f7cddce85ba1593012a78fa22d69726f6812d22720370d999ea3120da0574dcd7d0932626c76ab7b36fd08270e462220c99c4a381755bd312df221457f65837958e6dcca68cad32e09b0f6f0ef13a2f6ff1f6d787709ee61746657e6c282a9ab59be49635aef364719da637f4702991fa03780a1a4a12d4f9c7917360d34943d2975deeeef12ed4757a503bd7fb86b4ae5950a0211dae64965cdb048bcf91b558515f6e6aa8ff2bd1d87edf8fb37805314ff04a366d1c5e4ff5ecfddd3041ff5c4c2dec55b1c18ce34a2411427354ebeb5367f612b53cac7d4bd1ce58c742f97c74d7e15f794faf811fbdc0b9fb29f64c5f576b9034ea92f2b3087a45d52e259be9735d5190616579b8eda4c7b75a663a6e574d6b0c8b641fe368b4c2881586936aaffec8ac8bea0d7885fc3ff001e1c7629edef2a1be140654f3fadfc6b191b3b3fcb50b7b98f83dfe049b8d56c77d66032d7ccd9bd435dc79f19fe3c9152eb8ae74f35c5b66d1454187ce2b34f64a6dc604ae95da19490bd4d9c9f5c8d04f206265ca74a8eb392ecd5256f85a3e57a7fb52afc7eabb744669795735c37a56818102f6b3971f0a8c4beadaf8e35a32a5dad39316360261be25ba3ceb47ea8bf277f5a1da1800dec6c2189254dedcfd4386158e4a13b5ae95a3e4410218717639d78079d1b34e29c6099a3e5039afdc0a750b27940dd5633e33ff56b4230ddd6964fd4eac924db5b51148d858333f403488d94b7f1dbac6eedac883af3a1e448578444d183940f905f5b78e341ee7e1955576c1f792490d7c68b0c25e830dbd640a285ca5029acb94e2fadc4c492c6429ec34cc31c7b2104be5c20bb4f3ebfebcc9af39029b5b773a840153258c16e4cc64855b50cd5dabfb49ebedfe8e6b43af75a0e41c8fc66639231e04c5f5081ac033cd55f8dd15b620dbf651689cc20fdf15c69443da98e069bd68b40c699d27579d097e1a67ea6dbd6cfd16b6f5fbfff58b74e90e7ed28514cac764af507d0d9826b4f518f2b574ad09867ba26d15657a89ca64c923658864665183a1dc756c5dea7a7f25dc0e2eb2190f93f0b360bd75118b53f9b38f2453d46f9bfc0a39d6676c24088d635d2ea89c08940c4cc23811f2154a51bc7c19ff8247423fdfd13499ec7c967dafb03575caee239b5517f6bc0052ce31dfea3107be44e37c83fd97393e58b4b719986d8ca8371e8cd773f76df0f28900b82fdd5c3d31b200ce637da0b8f334d008f011b9551e0d171ef1c2a403c38756290db0b4ea9ef97cc868bf2d8c111117d58ee6b1a72b88ed3fe74cfda159faa028bd82f6e9305516708aac28a85bab50421a2d32a9d1f76376877788c6c13b674990ee33d118e60400c8e327bc2dce47c64ea633a4308612384eb35121aadb7d1f6516eb48ef595368e1f994f15154d6a26d8b43d33ae637d9618064dac27b58be00024404b502e5747ca8472fdb3bed6633a4c398d71014ecb37fec9843d20b36108ced3adb73ccfc79f71282a1414b36df0041de81e34e262f2d5e532fdfc73b354abd6a8a112c70f9e612ada973a36ade3487dff621a94c5f97f7211442ecad296aabd42a2d184b0299929250062b85c7ca89e9628fb56346914910613f8ac90756672e03dbea9f55797d17cc3c5efbe6d6bc6ca9705170dc93ec2907128b97c92de14c5909b91d1ac49dce2664055eb526d2c2a4b489c73536edbacd36c60334d7992fe7151d39613057fa58473264e5ad52acbfec936d028bab526252f43dd505e0b3d3b625a4ca8754f1ef4fb7b0db0d25dc305b1fe4a8f8e2270a5447397f34c8f9cee863d454607191856415328396fbf94c3449cabacdb8392e0a5ff0eb8e0d7b34077a343899ca3fd0eda07917b132189b2cae109283729a81e024873a811aea1b2367c9700839d14e8de4d571e0867cf7a2cadf42cc74b5b1d7a6983cb4d5bbf4b27138cb077a8ecda270f8cbf74806b68238106374cb417ed45d8e5d23dd28440c19a482e5ae24d3b4a82b17756ed4061b4852c4f1ca37843f024d92e0a3dd6180f62f5f0552ffe63d28d8861b554d590209f98b0df343c5fb118047cf49aa77e38c53a46b6b3ab40be5efd0dc223cb07bb18838297ec01359575181cc11681aa4b31f3b7a6e8db8aa4db867f3b6c2a992dc8fe8d3226843077eab5141cea5038908cf5fed77067dcbddb7ca0c2cd813bcf6e2b9ce122164216190fb20b72b81575b07a46d017bdba1a7dbbd8eab2df444c3264c3019d5391264c005003349094bfe8256e64cc620b4a6edc579183b60796c029f79504802587910e0071d523c94f194bad98e7fc3dd9dc304d87223cac3f6eb9fb72d6e83e73400e0595030270e3bdc480b563b353e9f28bbe88d99b6af059260004b21d15bfb48733d1de731dbdd28e2130f74f485586ee920069db292bdc7fd3d70d7daacceebb3200d176382422f273657d9db0d4e7142dbee892e46d2771ca663b2aea5ee639e1f2b8f77aa08f5fde49bc53e4cf7b8ae180e6eb83e82214c267e4a9f33d2d738f2c6843c272b39db8ba9156a1dd6b4f8bfe256660d5aa8e6ae3dbc029ba6772c11fb9d7a219d638d3674dc881d047eb69f3c933bf4d9767705df22f75463010255ed018991f595658d0b70044ad5c98e8b9031d78eae60df82e3e1c9309885dc2a1e2ec7a4127cf075e7966ff93e127727339663c3433eca3091efd41aa30645b2a45d0d50c002230385b6798abd2e0e6f2070c1b2f3c494c4d5fa0a2b3ceebf001082023263f474852628a91939da3b5bee0f0f1f7fd0306101e2334434758616377798792abb1c5cdfcfd000000000000000000000c1b314601fd21050011df41a5ee328793066bdfae8043293ba150a9f5dec77495259e0a385b18a23562e31bfa83a189d9737074584717fe6b157ee4163494d78af96e7780a815afba22285975686ed9b4a529136bce8de7ac6d10c8ae7ca669fe280cbf4bf2d7f34f5a355d3d1c2cd378fc1b621a5c711bd3d667dca2f8f7beac9953cddcd6316328566d9111420ed9e0e08613928e9388f4dfaf3cb950f259d7305d3f51386abf31d006e2cadb13c2d5e208a5d39223fee6f6c89ffd0230ecb935bb1503d9e20563f774a334b6587a745a7e5d4c84ed61f033ea4d95d4d0f40aa2fe231d06a012bafaa26cc70bc6a76584b2186afc0485524febd0074df44d268adc1d3b47bafa7fc37690e58e1d20c1d9f1c9d00b6ef80a3ef391465a84f8ef9d874af4bb5b01e1e1187be585287df5e0d57332385ca7189372cebbfa55c3354f312e935402e01d11aa954e3002463d9eec7cd19416d2a699202d1a4c00f5961e25138f10f8ad2bf41a5e8b23c04002c4a7008bfa4b76ed8c490fd6132b3739d3eaf9fc91534bc04db8183ba60dccec6966d997b0f0756cd00ef65213e92f1233a04f8f49ce81a4a3ab05ed9188a037c1c5b606928f821d5989843b7e90120d028f57515aca67cc9a1fd3e2e4afe49d9db33b5c1811e3494bcf32532ccf7f562d214cff83b5f516e35d29f75fdde6841cf7f5157c5bf5e6e41060698c3898f1af7e61b091820effe2135c546e253123a4a17ba41d9a0e9b6b234d51132e09ce4bcd37d1f7dd4926e6b1bc79a3ca8b9eb5e6355428ccb8081ddfebd59c63a5def026f5d0fff66a6e8cd23570fd4596183244cc2608e4fe9d76794bbf9a081f17da8ae93c893dc4c142ba670df99cc20b37b4d5f58b22b3e4cfb151aba3187a22425607f7cdf8aea3bce88820cbe25fc036fc19ef68fbbcac8eb9354e16065255c5fbd0632899d47703fba7ccfa968c1fd4e78d231dac635f666e4ce6146aa33c1657b96a5e8968ab443fd762e83c9b20d765e2296b5fc0587d51a9ce0db81804b7a7528d344cced974adc904253a00def4aff93915bf9847adcad2cc38fa28ec9b1cf450bab07c7063fadfa7b9d4d92368da18f1f7ff47c67c292e852e929cca70191a89d1e8ddc3c116a5fcb5216924464ec03d75cfb424110a5359035893c444a96ec75c3d9509a572a5c9d705e75f5e9efbbbe8a345142605d35956accb0d4398cafaf338cdfc556c911b14f72e221957b1236daed472a94cfa1724365f09b78aa84863ac151554f176f2f6b9bfd81c8a621780728a9eb5a92c19defefee26170bf9f0b089b7bf11d800702bd2718922e2e369108957ef68d04d7403d5d4220c99f46075fd839efaffc33120707ea2b2d6a297a6cff90815bf7cd4bef13d40f9c561b0af86f7b3caeb5724b18e58c4441c6a85089d4ae1b43ccdb597974f548de34d77f941a61f9b83907cd2541fa728b2138dc3f10e2ce5df2bd5bf7a5d7e852b61af340ae81b8f3f794cb04dd1f7f05f84a5d3db8a48951dfcf7e7fb836784e4dd9601f37befb100b0b8c28ae7f78452d06e54ff0b44373221e5f278d45565289f2305357882b2c20a79c09d1c6fbe363455d1e60419071da556859d79e38100a6dea637e134907653b32b4b6776c1467df5691d2788974f930469d2a3cd58e83dd5c0d45a965f50e46b1dd1b398560356f2d564de1ea4fe2547660eaa22ccefefa371180ed223ef2c8bb6c869b2ddb7b1b0999eb1bbbd2b8cd78d062a397ce17d173f3bda5654ab0127ddec9710d32c86ffe628fbfe153968f89f1bb0de91cd5391c2e9b9e677d547e5ba2f2f136660fa35a1dbbd4efe9594e78f7a84fea05fd9779ca84cd82000000",
  "txid": "da22d3541de503325b6c62cd20f6abcae03dde54083bf3207ebadeafe851c24b",
  "hash": "9c2613c86aa8aaa01eb3ffb5ac1c767763fda79fcf9f4c5781b4938912dcce11",
  "size": 5085,
  "vsize": 2278,
  "version": 1,
  "locktime": 130,
  "vin": [
    {
      "txid": "f6720d6368ed438b20360ed4534084c1d84b505d9bec1191f2a22b84a7f49afa",
      "vout": 0,
      "scriptSig": {
        "asm": "",
        "hex": ""
      },
      "txinwitness": [
        "86105d1d590597243b64f68a975e54a8bae938b8f867debaab10ae1ea8954ab3c7ab898a6b16b9579cb83356f02d52c51e73123d7d21a3377eca6fcf7ed3f89425e3ca09143094c34068bdd7875175ee6d6873e593ecaf05e789fcba58209e46e33dc080874f9bc30c1276a50650ff15dd718ca67fe2ee360c5fc046fd1d212aed288faf60c7d8e2756544bc043a371930f380494b806b9a4b2f885887798288e286e7f05441b1e11f01d9fd2176d9455262ec21d56958121bc0bf441a4328a6ece74df5e6823e06ce22fa63aeccff025e46e4d5129d491b8ffbf0886eabac0e8f057a9f756086b01168a8950a555a9efa3b64a451a91c6a0739fcc9390fe40a7496247517c68aabafc2a4f4ac81936eddda048cb8e43f1c2b886fd18babe5ac99ae5cda712957d0618adffe6114a0c277902f086c1c2c10dca70e2f98b2a3f938f7abcca41d9d81aafa67387dbe9b3226859a85c537a419d4d01e0950a65cdb38923dc30ffa456056565403fc096d8cf6e55d1b6dba7407f97946307603071b2e6997d71947240d0411150b0b20c97eaf448b67f7cddce85ba1593012a78fa22d69726f6812d22720370d999ea3120da0574dcd7d0932626c76ab7b36fd08270e462220c99c4a381755bd312df221457f65837958e6dcca68cad32e09b0f6f0ef13a2f6ff1f6d787709ee61746657e6c282a9ab59be49635aef364719da637f4702991fa03780a1a4a12d4f9c7917360d34943d2975deeeef12ed4757a503bd7fb86b4ae5950a0211dae64965cdb048bcf91b558515f6e6aa8ff2bd1d87edf8fb37805314ff04a366d1c5e4ff5ecfddd3041ff5c4c2dec55b1c18ce34a2411427354ebeb5367f612b53cac7d4bd1ce58c742f97c74d7e15f794faf811fbdc0b9fb29f64c5f576b9034ea92f2b3087a45d52e259be9735d5190616579b8eda4c7b75a663a6e574d6b0c8b641fe368b4c2881586936aaffec8ac8bea0d7885fc3ff001e1c7629edef2a1be140654f3fadfc6b191b3b3fcb50b7b98f83dfe049b8d56c77d66032d7ccd9bd435dc79f19fe3c9152eb8ae74f35c5b66d1454187ce2b34f64a6dc604ae95da19490bd4d9c9f5c8d04f206265ca74a8eb392ecd5256f85a3e57a7fb52afc7eabb744669795735c37a56818102f6b3971f0a8c4beadaf8e35a32a5dad39316360261be25ba3ceb47ea8bf277f5a1da1800dec6c2189254dedcfd4386158e4a13b5ae95a3e4410218717639d78079d1b34e29c6099a3e5039afdc0a750b27940dd5633e33ff56b4230ddd6964fd4eac924db5b51148d858333f403488d94b7f1dbac6eedac883af3a1e448578444d183940f905f5b78e341ee7e1955576c1f792490d7c68b0c25e830dbd640a285ca5029acb94e2fadc4c492c6429ec34cc31c7b2104be5c20bb4f3ebfebcc9af39029b5b773a840153258c16e4cc64855b50cd5dabfb49ebedfe8e6b43af75a0e41c8fc66639231e04c5f5081ac033cd55f8dd15b620dbf651689cc20fdf15c69443da98e069bd68b40c699d27579d097e1a67ea6dbd6cfd16b6f5fbfff58b74e90e7ed28514cac764af507d0d9826b4f518f2b574ad09867ba26d15657a89ca64c923658864665183a1dc756c5dea7a7f25dc0e2eb2190f93f0b360bd75118b53f9b38f2453d46f9bfc0a39d6676c24088d635d2ea89c08940c4cc23811f2154a51bc7c19ff8247423fdfd13499ec7c967dafb03575caee239b5517f6bc0052ce31dfea3107be44e37c83fd97393e58b4b719986d8ca8371e8cd773f76df0f28900b82fdd5c3d31b200ce637da0b8f334d008f011b9551e0d171ef1c2a403c38756290db0b4ea9ef97cc868bf2d8c111117d58ee6b1a72b88ed3fe74cfda159faa028bd82f6e9305516708aac28a85bab50421a2d32a9d1f76376877788c6c13b674990ee33d118e60400c8e327bc2dce47c64ea633a4308612384eb35121aadb7d1f6516eb48ef595368e1f994f15154d6a26d8b43d33ae637d9618064dac27b58be00024404b502e5747ca8472fdb3bed6633a4c398d71014ecb37fec9843d20b36108ced3adb73ccfc79f71282a1414b36df0041de81e34e262f2d5e532fdfc73b354abd6a8a112c70f9e612ada973a36ade3487dff621a94c5f97f7211442ecad296aabd42a2d184b0299929250062b85c7ca89e9628fb56346914910613f8ac90756672e03dbea9f55797d17cc3c5efbe6d6bc6ca9705170dc93ec2907128b97c92de14c5909b91d1ac49dce2664055eb526d2c2a4b489c73536edbacd36c60334d7992fe7151d39613057fa58473264e5ad52acbfec936d028bab526252f43dd505e0b3d3b625a4ca8754f1ef4fb7b0db0d25dc305b1fe4a8f8e2270a5447397f34c8f9cee863d454607191856415328396fbf94c3449cabacdb8392e0a5ff0eb8e0d7b34077a343899ca3fd0eda07917b132189b2cae109283729a81e024873a811aea1b2367c9700839d14e8de4d571e0867cf7a2cadf42cc74b5b1d7a6983cb4d5bbf4b27138cb077a8ecda270f8cbf74806b68238106374cb417ed45d8e5d23dd28440c19a482e5ae24d3b4a82b17756ed4061b4852c4f1ca37843f024d92e0a3dd6180f62f5f0552ffe63d28d8861b554d590209f98b0df343c5fb118047cf49aa77e38c53a46b6b3ab40be5efd0dc223cb07bb18838297ec01359575181cc11681aa4b31f3b7a6e8db8aa4db867f3b6c2a992dc8fe8d3226843077eab5141cea5038908cf5fed77067dcbddb7ca0c2cd813bcf6e2b9ce122164216190fb20b72b81575b07a46d017bdba1a7dbbd8eab2df444c3264c3019d5391264c005003349094bfe8256e64cc620b4a6edc579183b60796c029f79504802587910e0071d523c94f194bad98e7fc3dd9dc304d87223cac3f6eb9fb72d6e83e73400e0595030270e3bdc480b563b353e9f28bbe88d99b6af059260004b21d15bfb48733d1de731dbdd28e2130f74f485586ee920069db292bdc7fd3d70d7daacceebb3200d176382422f273657d9db0d4e7142dbee892e46d2771ca663b2aea5ee639e1f2b8f77aa08f5fde49bc53e4cf7b8ae180e6eb83e82214c267e4a9f33d2d738f2c6843c272b39db8ba9156a1dd6b4f8bfe256660d5aa8e6ae3dbc029ba6772c11fb9d7a219d638d3674dc881d047eb69f3c933bf4d9767705df22f75463010255ed018991f595658d0b70044ad5c98e8b9031d78eae60df82e3e1c9309885dc2a1e2ec7a4127cf075e7966ff93e127727339663c3433eca3091efd41aa30645b2a45d0d50c002230385b6798abd2e0e6f2070c1b2f3c494c4d5fa0a2b3ceebf001082023263f474852628a91939da3b5bee0f0f1f7fd0306101e2334434758616377798792abb1c5cdfcfd000000000000000000000c1b314601",
        "0011df41a5ee328793066bdfae8043293ba150a9f5dec77495259e0a385b18a23562e31bfa83a189d9737074584717fe6b157ee4163494d78af96e7780a815afba22285975686ed9b4a529136bce8de7ac6d10c8ae7ca669fe280cbf4bf2d7f34f5a355d3d1c2cd378fc1b621a5c711bd3d667dca2f8f7beac9953cddcd6316328566d9111420ed9e0e08613928e9388f4dfaf3cb950f259d7305d3f51386abf31d006e2cadb13c2d5e208a5d39223fee6f6c89ffd0230ecb935bb1503d9e20563f774a334b6587a745a7e5d4c84ed61f033ea4d95d4d0f40aa2fe231d06a012bafaa26cc70bc6a76584b2186afc0485524febd0074df44d268adc1d3b47bafa7fc37690e58e1d20c1d9f1c9d00b6ef80a3ef391465a84f8ef9d874af4bb5b01e1e1187be585287df5e0d57332385ca7189372cebbfa55c3354f312e935402e01d11aa954e3002463d9eec7cd19416d2a699202d1a4c00f5961e25138f10f8ad2bf41a5e8b23c04002c4a7008bfa4b76ed8c490fd6132b3739d3eaf9fc91534bc04db8183ba60dccec6966d997b0f0756cd00ef65213e92f1233a04f8f49ce81a4a3ab05ed9188a037c1c5b606928f821d5989843b7e90120d028f57515aca67cc9a1fd3e2e4afe49d9db33b5c1811e3494bcf32532ccf7f562d214cff83b5f516e35d29f75fdde6841cf7f5157c5bf5e6e41060698c3898f1af7e61b091820effe2135c546e253123a4a17ba41d9a0e9b6b234d51132e09ce4bcd37d1f7dd4926e6b1bc79a3ca8b9eb5e6355428ccb8081ddfebd59c63a5def026f5d0fff66a6e8cd23570fd4596183244cc2608e4fe9d76794bbf9a081f17da8ae93c893dc4c142ba670df99cc20b37b4d5f58b22b3e4cfb151aba3187a22425607f7cdf8aea3bce88820cbe25fc036fc19ef68fbbcac8eb9354e16065255c5fbd0632899d47703fba7ccfa968c1fd4e78d231dac635f666e4ce6146aa33c1657b96a5e8968ab443fd762e83c9b20d765e2296b5fc0587d51a9ce0db81804b7a7528d344cced974adc904253a00def4aff93915bf9847adcad2cc38fa28ec9b1cf450bab07c7063fadfa7b9d4d92368da18f1f7ff47c67c292e852e929cca70191a89d1e8ddc3c116a5fcb5216924464ec03d75cfb424110a5359035893c444a96ec75c3d9509a572a5c9d705e75f5e9efbbbe8a345142605d35956accb0d4398cafaf338cdfc556c911b14f72e221957b1236daed472a94cfa1724365f09b78aa84863ac151554f176f2f6b9bfd81c8a621780728a9eb5a92c19defefee26170bf9f0b089b7bf11d800702bd2718922e2e369108957ef68d04d7403d5d4220c99f46075fd839efaffc33120707ea2b2d6a297a6cff90815bf7cd4bef13d40f9c561b0af86f7b3caeb5724b18e58c4441c6a85089d4ae1b43ccdb597974f548de34d77f941a61f9b83907cd2541fa728b2138dc3f10e2ce5df2bd5bf7a5d7e852b61af340ae81b8f3f794cb04dd1f7f05f84a5d3db8a48951dfcf7e7fb836784e4dd9601f37befb100b0b8c28ae7f78452d06e54ff0b44373221e5f278d45565289f2305357882b2c20a79c09d1c6fbe363455d1e60419071da556859d79e38100a6dea637e134907653b32b4b6776c1467df5691d2788974f930469d2a3cd58e83dd5c0d45a965f50e46b1dd1b398560356f2d564de1ea4fe2547660eaa22ccefefa371180ed223ef2c8bb6c869b2ddb7b1b0999eb1bbbd2b8cd78d062a397ce17d173f3bda5654ab0127ddec9710d32c86ffe628fbfe153968f89f1bb0de91cd5391c2e9b9e677d547e5ba2f2f136660fa35a1dbbd4efe9594e78f7a84fea05fd9779ca84cd"
      ],
      "sequence": 4294967294
    }
  ],
  "vout": [
    {
      "value": 1.0,
      "n": 0,
      "scriptPubKey": {
        "asm": "OP_RETURN 03e7c01089eb99d1c08612d8e7f8c32405d6655ed0de1720eb88840093afb02a 8caec9c4b1710d88cd533508d9190bbf3808e3d6debae88ef4da360c3c310156ac8ee9e491512da8ed731528f9392b9f1828c3f6fe9ac8aed4fa162c1c112176ccee8984f1314dc88d13754899594bff7848a3969efaa8ceb49a764c7c714116eccea9a4d1116de8ad335568b9796bdf586883b6beda88ee94ba566c5c5161360c2e494431f18d084dd3b58859998b3fb88863565e3a680e745ab68cbcb181d62c0e696411d1ad286df395a879b9ab1f98a843767e1a482e547a96ac9c91a1f64c6e090471b1cd480d93f5c819d9cb7ff8c823161e7a284e341af6ccfcf1c1966c4e29245191ed682db3d5e839f9eb5fd8e803363e5a086e143ad6ecdcd1e1b68caec9c4b1710d88cd533508d9190bbf3808e3d6debae88ef4da360c3c310156ac8ee9e491512da8ed731528f9392b9f1828c3f6fe9ac8aed4fa162c1c112176ccee8984f1314dc88d13754899594bff7848a3969efaa8ceb49a764c7c714116eccea9a4d1116de8ad335568b9796bdf586883b6beda88ee94ba566c5c5161360c2e494431f18d084dd3b58859998b3fb88863565e3a680e745ab68cbcb181d62c0e696411d1ad286df395a879b9ab1f98a843767e1a482e547a96ac9c91a1f64c6e090471b1cd480d93f5c819d9cb7ff8c823161e7a284e341af6ccfcf1c1966c4e29245191ed682db3d5e839f9eb5fd8e803363e5a086e143ad6ecdcd1e1b68caec9c4b1710d88cd533508d9190bbf3808e3d6debae88ef4da360c3c310156ac8ee9e491512da8ed731528f9392b9f1828c3f6fe9ac8aed4fa162c1c112176ccee8984f1314dc88d13754899594bff7848a3969efaa8ceb49a764c7c714116eccea9a4d1116de8ad335568b9796bdf586883b6beda88ee94ba566c5c5161360c2e494431f18d084dd3b58859998b3fb88863565e3a680e745ab68cbcb181d62c0e696411d1ad286df395a879b9ab1f98a843767e1a482e547a96ac9c91a1f64c6e090471b1cd480d93f5c819d9cb7ff8c823161e7a284e341af6ccfcf1c1966c4e29245191ed682db3d5e839f9eb5fd8e803363e5a086e143ad6ecdcd1e1b68caec9c4b1710d88cd533508d9190bbf3808e3d6debae88ef4da360c3c310156ac8ee9e491512da8ed731528f9392b9f1828c3f6fe9ac8aed4fa162c1c112176ccee8984f1314dc88d13754899594bff7848a3969efaa8ceb49a764c7c714116eccea9a4d1116de8ad335568b9796bdf586883b6beda88ee94ba566c5c5161360c2e494431f18d084dd3b58859998b3fb88863565e3a680e745ab68cbcb181d62c0e696411d1ad286df395a879b9ab1f98a843767e1a482e547a96ac9c91a1f64c6e090471b1cd480d93f5c819d9cb7ff8c823161e7a284e341af6ccfcf1c1966c4e29245191ed682db3d5e839f9eb5fd8e803363e5a086e143ad6ecdcd1e1b68caec9c4b1710d88cd533508d9190bbf3808e3d6debae88ef4da360c3c310156ac8ee9e491512da8ed731528f9392b9f1828c3f6fe9ac8aed4fa162c1c112176ccee8984f1314dc88d13754899594bff7848a3969efaa8ceb49a764c7c714116eccea9a4d1116de8ad335568b9796bdf586883b6beda88ee94ba566c5c5161360c2e494431f18d084dd3b58859998b3f1365600f58b04d34552088fced52f31d12aa0ed095ba4561981b3b38b70e60da",
        "hex": "6a2003e7c01089eb99d1c08612d8e7f8c32405d6655ed0de1720eb88840093afb02a4db0048caec9c4b1710d88cd533508d9190bbf3808e3d6debae88ef4da360c3c310156ac8ee9e491512da8ed731528f9392b9f1828c3f6fe9ac8aed4fa162c1c112176ccee8984f1314dc88d13754899594bff7848a3969efaa8ceb49a764c7c714116eccea9a4d1116de8ad335568b9796bdf586883b6beda88ee94ba566c5c5161360c2e494431f18d084dd3b58859998b3fb88863565e3a680e745ab68cbcb181d62c0e696411d1ad286df395a879b9ab1f98a843767e1a482e547a96ac9c91a1f64c6e090471b1cd480d93f5c819d9cb7ff8c823161e7a284e341af6ccfcf1c1966c4e29245191ed682db3d5e839f9eb5fd8e803363e5a086e143ad6ecdcd1e1b68caec9c4b1710d88cd533508d9190bbf3808e3d6debae88ef4da360c3c310156ac8ee9e491512da8ed731528f9392b9f1828c3f6fe9ac8aed4fa162c1c112176ccee8984f1314dc88d13754899594bff7848a3969efaa8ceb49a764c7c714116eccea9a4d1116de8ad335568b9796bdf586883b6beda88ee94ba566c5c5161360c2e494431f18d084dd3b58859998b3fb88863565e3a680e745ab68cbcb181d62c0e696411d1ad286df395a879b9ab1f98a843767e1a482e547a96ac9c91a1f64c6e090471b1cd480d93f5c819d9cb7ff8c823161e7a284e341af6ccfcf1c1966c4e29245191ed682db3d5e839f9eb5fd8e803363e5a086e143ad6ecdcd1e1b68caec9c4b1710d88cd533508d9190bbf3808e3d6debae88ef4da360c3c310156ac8ee9e491512da8ed731528f9392b9f1828c3f6fe9ac8aed4fa162c1c112176ccee8984f1314dc88d13754899594bff7848a3969efaa8ceb49a764c7c714116eccea9a4d1116de8ad335568b9796bdf586883b6beda88ee94ba566c5c5161360c2e494431f18d084dd3b58859998b3fb88863565e3a680e745ab68cbcb181d62c0e696411d1ad286df395a879b9ab1f98a843767e1a482e547a96ac9c91a1f64c6e090471b1cd480d93f5c819d9cb7ff8c823161e7a284e341af6ccfcf1c1966c4e29245191ed682db3d5e839f9eb5fd8e803363e5a086e143ad6ecdcd1e1b68caec9c4b1710d88cd533508d9190bbf3808e3d6debae88ef4da360c3c310156ac8ee9e491512da8ed731528f9392b9f1828c3f6fe9ac8aed4fa162c1c112176ccee8984f1314dc88d13754899594bff7848a3969efaa8ceb49a764c7c714116eccea9a4d1116de8ad335568b9796bdf586883b6beda88ee94ba566c5c5161360c2e494431f18d084dd3b58859998b3fb88863565e3a680e745ab68cbcb181d62c0e696411d1ad286df395a879b9ab1f98a843767e1a482e547a96ac9c91a1f64c6e090471b1cd480d93f5c819d9cb7ff8c823161e7a284e341af6ccfcf1c1966c4e29245191ed682db3d5e839f9eb5fd8e803363e5a086e143ad6ecdcd1e1b68caec9c4b1710d88cd533508d9190bbf3808e3d6debae88ef4da360c3c310156ac8ee9e491512da8ed731528f9392b9f1828c3f6fe9ac8aed4fa162c1c112176ccee8984f1314dc88d13754899594bff7848a3969efaa8ceb49a764c7c714116eccea9a4d1116de8ad335568b9796bdf586883b6beda88ee94ba566c5c5161360c2e494431f18d084dd3b58859998b3f1365600f58b04d34552088fced52f31d12aa0ed095ba4561981b3b38b70e60da",
        "type": "nulldata"
      }
    },
    {
      "value": 499964.4085,
      "n": 1,
      "scriptPubKey": {
        "asm": "1 a2849b4a98495ce23322f8a7872555c42c9ada91c991d8bfcc31e8a7080f0efa",
        "hex": "5120a2849b4a98495ce23322f8a7872555c42c9ada91c991d8bfcc31e8a7080f0efa",
        "reqSigs": 1,
        "type": "witness_v1_scripthash",
        "addresses": [
          "3QJmnh"
        ]
      }
    }
  ],
  "blockhash": "a9a7ce638639648c5b111e15e0d4489535a11a846f6b50fba3b7e2925471654c",
  "confirmations": 1,
  "time": 1764182153,
  "blocktime": 1764182153
}