{
  "hex": "010000000001014ffeff99a54a3a5cf41bbf22afcf3ec9aec8ceebd4d03391b1609f7cb8cb2c8a0100000000feffffff0200e1f50500000000fdd5046a20923dbf3e0ff22b91529b2d482213b0373b2f29c97dc9bf14c9e1a3e855503fe04db004feb5fe7af3c2a01ef2cf4eb2faa74626023f9beeb8fcc07a62bd7fb8d03023a3de95de5ad3e2803ed2ef6e92da876606221fbbce98dce05a429d5f98f0100383bef5be3ab382e05eb28f0ef2bae70666427fdbaef8bc803a22fd3ff8907063e39ed59e1a93a2c07e92af2ed29ac72646625ffb8ed89ca01a02dd1fd8b05043c37e357efa7342209e724fce327a27c6a682bf1b6e387c40fae23dff3850b0a3235e155eda536200be526fee125a07e686a29f3b4e185c60dac21ddf18709083033e753eba330260de320f8e723a6786e6c2ff5b2e783c00baa27dbf7810f0e3631e551e9a132240fe122fae521a47a6c6e2df7b0e581c209a825d9f5830d0c343feb5fe7af3c2a01ef2cf4eb2faa74626023f9beeb8fcc07a62bd7fb8d03023a3de95de5ad3e2803ed2ef6e92da876606221fbbce98dce05a429d5f98f0100383bef5be3ab382e05eb28f0ef2bae70666427fdbaef8bc803a22fd3ff8907063e39ed59e1a93a2c07e92af2ed29ac72646625ffb8ed89ca01a02dd1fd8b05043c37e357efa7342209e724fce327a27c6a682bf1b6e387c40fae23dff3850b0a3235e155eda536200be526fee125a07e686a29f3b4e185c60dac21ddf18709083033e753eba330260de320f8e723a6786e6c2ff5b2e783c00baa27dbf7810f0e3631e551e9a132240fe122fae521a47a6c6e2df7b0e581c209a825d9f5830d0c343feb5fe7af3c2a01ef2cf4eb2faa74626023f9beeb8fcc07a62bd7fb8d03023a3de95de5ad3e2803ed2ef6e92da876606221fbbce98dce05a429d5f98f0100383bef5be3ab382e05eb28f0ef2bae70666427fdbaef8bc803a22fd3ff8907063e39ed59e1a93a2c07e92af2ed29ac72646625ffb8ed89ca01a02dd1fd8b05043c37e357efa7342209e724fce327a27c6a682bf1b6e387c40fae23dff3850b0a3235e155eda536200be526fee125a07e686a29f3b4e185c60dac21ddf18709083033e753eba330260de320f8e723a6786e6c2ff5b2e783c00baa27dbf7810f0e3631e551e9a132240fe122fae521a47a6c6e2df7b0e581c209a825d9f5830d0c343feb5fe7af3c2a01ef2cf4eb2faa74626023f9beeb8fcc07a62bd7fb8d03023a3de95de5ad3e2803ed2ef6e92da876606221fbbce98dce05a429d5f98f0100383bef5be3ab382e05eb28f0ef2bae70666427fdbaef8bc803a22fd3ff8907063e39ed59e1a93a2c07e92af2ed29ac72646625ffb8ed89ca01a02dd1fd8b05043c37e357efa7342209e724fce327a27c6a682bf1b6e387c40fae23dff3850b0a3235e155eda536200be526fee125a07e686a29f3b4e185c60dac21ddf18709083033e753eba330260de320f8e723a6786e6c2ff5b2e783c00baa27dbf7810f0e3631e551e9a132240fe122fae521a47a6c6e2df7b0e581c209a825d9f5830d0c343feb5fe7af3c2a01ef2cf4eb2faa74626023f9beeb8fcc07a62bd7fb8d03023a3de95de5ad3e2803ed2ef6e92da876606221fbbce98dce05a429d5f98f0100383bef5be3ab382e05eb28f0ef2bae70666427fdbaef8bc803a22fd3ff8907063e39ed59e1a93a2c07e92af2ed29ac72646625ffb8ed89ca01a02dd1fd8b05043c37e357efa7342209e724fce327a27c6a655e04997ea6eb2aaf022b09e32d7b58058833d32d59de7daca0cd5d2816f28f9407886de782d0000225120fd05c50d288f87ddd2b421fa0dd0ef2fb71a69b584cb50dd2fd7a73f9a79dafc02fd75095d519c792ea215a47ac8858c148372fc67d3f468732d65f1d68b8bffd37455f5540db6b1d68251fce76a177f7c54e406bd2d80eb0deaddd038b09065405757a687c33121348fa7c0e0ac78f96a44b08eb687bb471cda354e2591efe750627511383d0c2851426d9061b70f7d6713d35dd2e5d0989fa3bac10f55b9253e09fbd5b3c869cbe6be4e42432e7dac8e649d789dd924b574d9d63c1aab7d59f294df3b485b34822e835732e8f167d454c30477df3bf411cf5c354b1e40f2fb422d6bd75108f4f1c0997508f8e1989e351d3f1a3d3b149ce58110de0c9baf453a1d573c9dd8e01005900f1c06885436a266c9ec4f12b9119115052a415ca1fcf869d4b3ca151b59ea18b0a23937ccc208490ea94920799b7cd2be13d371b5b501f2296a79a524f064e3bdcb9d513ebad7d09632de97069ec3a9a73cea8a375fe28ed4678503f02135e2a24b46b7918d487e95c38b1f93778eb311b92bfbcc8b771c88acd9badcf63f800528e640e2b5c2274e001f4b838240908cc7a36a398c768a88df505f7cab8cd58ff1c99b5ef828ea3887c36f4f621741345cb803ff4074752916daffbc95ece62aa909f96af18aa3c13d60406721a5a7f5a821e07558a07e2ca931f293aa6318ec379fe5af47daed3e6cd00f6325b1378dc8f3f704f5d991ea87f9f0bb4e54b33c08109ffe2e8048ec648256b63b57be5b27c834aff41b4a6fd0163ead0a8c65a4916fcd943dd4a9b7db58e2aa9846433813b8a5881dbc7239899b40e503fe4a3fccedaf1d1a2714fa6d2a0bd301e28a2523bb20c83b5b6385f71d2e99c31a1d78f9d508381364cdb9ec8ac1417b450a55491760febbbdfebc630de7936bb661a9a1219d17718f57c9524315dfbb7d313aed6c3f572350459495fe570233f984a0141e9fa81fefd8c1788d917900f92c9b9ab3d5f8e37c4ce0b2c5e0de982d1f32de96c3ddac710d64455c09c30469f6e2ea8507184386714c80fad2adb40370959f1ad10b27545465d7b9e7d8701de58cf8b594fc4c3d9ef7a4845b52064b62231a7a9db3365c5f5bdc26583b68c5d3ef0ce294dac32c3ccff284212fd9e9b4a5def0db7ced4c8db24d7b060d60077e0b0ba30467c8510a4cba6364cb632e669cb7cdce7b45cc4e4b01da376c19906e67f3e44e840d6fcb928c784eea669f6bc9174778bc93fa11b2475d58b197170cd02a6339b0121ae88122207f05da42fa184bfc8248be264a59306843dac3a116ccb2b2acd035bce6d76df73397101b58ab74bf6dfd72bc346dec1134efe9d4352fa664dc1cab9c8cf58923f32ff04bff52367aefa0795e259b3016c62000799cb93021074fd7eecbae02fbd9079676b192c637e0320a5f5e73595a4b7b35d1a2d42d2436dcfcec1e8db3331746dd978342389c8ab4fc844865c8aeb45c8e814179dfc4afe7476c93a2a1cef806aba72a75ee8ed0b22f7801a7fe034c19b260df6f4db8d644812d7bf80c7b4b42315dc8acc3f2ed048a507ff42298ce91ec2ebd0cec540bed7be034115d652e80e2aece7e155ec886c4c17144fc22f45419aafad0f3226445002f7fea0811fb551de7a36c9ebbd161c34abb4ea3f1c03d8258b5d0fd4fc6619a56a251186354ecdbfd5a35afd8ed2f4e017236c185980f3bfd6f0a27f198a93465df75364a3c06d665e4541096845231948f704f118583446e96681084870218c75d4664876411afb1412bc313baaade66f6375d3268b8937628632407827c98632e2e28c6bc8219f572b1e0717e162f4dd78b6411113c982ea503b523754960eaee5c9a637dba562291860d1b7362b1eb36495bba5f357bd7e124d168ac9f447f5afdcaa854513cca9fcae4f8627840bb3a1dbebc0fafd87a46abd6578f7adaf425608caabcaf525ddf36a38028b8f991421822ac9778229fd28b966fccd8620f8b43dbd6649cc61725bfa1b2bdb103b8ab9a6a2cc36c0c866ef5da1731869e7fd0e0284a22dc453f94282c243a3bafef8813638e1be41a61ba3c870d1c63c9e6a902c35c73bc40a83bb63d74a68afadfe6d737e2d41b0df6a5078fb89ba109105b1f543d58161a0242099e983bafb98fa66abddefd022f348724f9dc76f896bb6539afd4e084bc07a90027fb81be8727a2b9687ab3c9dffd916c1c0cd48ad548e1dfe52865b90c59d5241f9b563fd151c92975f19ad37ca62c88f7454345f12fe596bb5d71c08ac9d6cad32076eb4b09421317e8f443657646f03cb57ac1bf83f0f39e195093f1a959a19328418465c83e163c72e194aa03397b29f646e90f292d529665e0e4edaeeb8564340881710262ec331ab6cfd71e7270a22627dd26e52522c5b35fe24875c7541d733551a8e4fa7e8524ec032d94ecf218f07d322a9fbb8496e0ac32daaf2655fa07e45f88d617482fb1d28a4a474c363ea19787ccb32a1f0d6564081ed2a3ae234017dec3c4eb0b89704c3a8de05a64aa8fc5ca7a268ee15416e887ae098771d3f02749e7eeb7e363ec5b3d0813d9eb31c66b6b80520075370ae84f8ad570a4d89ad51bbe530a862052222394a6ad0d53b672c6e6bb5d8a7eef1b88177003fd9e5ba3f606ba4c2adb15ddfc0902f158c47d9c734ea7711596a8c7a1034a72d3afaa3ab439972e915d84c0f54eddba2dcccd89daec4db5cd77afb7a575ba54483a2db1b000454b70106090724e03641ac18641185cd39badc52b281c7ed3385cdafb7622d8326f6f56a6bbcde27d402afe8da67ab7f1d79cdcea2d7b8eeb865ea1af1832525c2921f66ac5a65e21ab36f1fd0f4219314ecf8291d6a7b9c15a016351e7dc3a075044bea5fdd28ec9995bb2a4f774be446d8667ce72a58b1e9677457c040a5701e06beb8e0824ad73ca543fe12485405bd7bd5c0cb076a71c9f1be1d85343e8e16aa09e4232aa1e7edf6fa728bfbf019c3acfd58993c89c7b62c4418ecef5ca971a6d11f8cfea91fab36ab7cf1f0f1a62e2421b3bd6b8e6b173b251389e2dea1f0f386f7e4cf4714d59b115998ab06be793be80af3cb71a46f4ddb057f6a0a448153ceb11262cbdedd06723c5af2011488592fc5f60e73e4a8b1128674ea491062a87383aa7e07ae8e2a8328323e70d29454154778a1c8451916b6a5c3bde7cd2c84c11bc5fabc7296e8b5473ba0d428e75ea78046b37ff5b85893e839676efc4541265affd3550497fe554eb182d6a94f9f744496c6592782ff2bbfc3e9519983f7b9b83fee71983187e540ffd7a2a3b0c493e5d6ecf6aec1f07406f8bde35952512dcd1720afbbfb3c901af0e6b2d89a36839031a2132525f6d747c80d6de001336486289989fd8e4e9f70d316d718e96a9afb3d8e6f5f7fc0b0f51525d5f7e8996b2bcbecf00000000000000000000000000000000000000000000000000000000000c18263301fd210500a907b1859e04ea8f7db6f0d98b7408426d531e6ccb27df87f06aaeeffa0771162bb7634b0709d4f96e72867f54fc66c77996c97350c4979c6150254dec59159f4ef2f2e572f9bc4c284e8bb0ec2130b52af08873cf14c144ac4744c2eba6455aed33dd0c9304c23313b2bb418e0f49ad91042a86544c502ff2f9f8fc1329f957dde8fd718e69458f399317680ee66e3762835e004ac1fffe9ad8e0c2cccce516dffa4f113d503587678e544cf4cc597f2fadd661d6a912906263e5894848476eab403624236552148c23b14bdb8c4397d3349fd098874d359ad4b0e545947140e503d5d05997728c851c07d0f925d94ef2d89b9676034755058b74dac544044d4681b1df9f75c0d3506bc4fec580f8322c77bbe33f03550c0ccb96b81f788121706d3fcee32f66b59ac3376fcc2375e39457087d06900a7473e1482fb173aef93b96051f0ab34b62fa336f2a7279ccce9bbf26601529ff719da59335636464360a957066fe4f79dd57b7d6aacbb88c59c90fc1bf0c003a11a0f6623a96d9d95b307e7ac58863c0d44eb1a77c508ac84e11a2ea3827c7c39ddf2789381de21d33f2b185ab092090e3149cedd04b78d1e3a6b4da10f0dc2213bb158d85f7e762db86d89548f8c8f1f62339aed97413c38140eb249c4ed1aab2c21319f0dc33e40095a8a86c2d6b140cb6b5f1f074123013f4c765c60db4ac8014dd34abcccbbc80b1cfc78c918e24bcb27dcfe731e9574c4f3d2c2283aa9f90a78b49d32e323760df19426a35d69325a722495168dae54de31dbac124148e08e9b0804f0f760d872374aa3e3e2cc364b0fb9f193e1593c539e1a0770f16ff325158d78ab3cf7b18763d2e30ab87fe2f218ac589b5505fb928c967fc41132c90d5675b99629165668e1fd2ace39acc5cbb984af569781256d8d03aeb81c7e8a0660f531509f7e87e3e350b4b00272330cf31c3e13c834068b71bb25f8ed091d88205124082af0478af9ebad8a986ba186a67eab78bddbe1645fb818b7609473205a2429e2da240bad9d1578126c259260e7ae0d71f31cac3211198d4d3a17c57475f7d7bd30e9212f84fb7ccc81652f4222c75d66333833e9c9e27509d07c578b88093575fcacc798763a624fb114ae3340432dacbed7d17af8ab71a521a3433f56d3b075f1f530e0883c15a6ac7b2bebc3574e9e21a343caa45d8543600b0d66bf845df237376dd8d943e45fa37dcef4adb3dd51b6f9586c1dde0634fb0cd041a09e67d092c39a6f05791e139cc8033d35aacd5192f5980980e1c5606c9475583581bc9f499cf480f911c69381d9c08b7ecd9304ecfb370b888b562f3b8d5dcd3d28c8b906da17a8731e4e0c307cf54d00fb572ca37a7378fc99dcc90f9926a6c3b74f7bf061534c2b9babb708c35e6fc6746d54f8741a7f8f79a6878997dc59b7e904ab73be400d8ce9c3677c9b6924a978e688450a7554e439d0be8711e225d317456356126b90f6ef9a9a47928eb38e0f3a502c8054312adc14df624df65731d3c8ca51ddcc5090c7446f2c258493f181b9e532c8e715dfbe1d5e5727ff72fa90011d3d54eb3c71709d7216f1a7aae0c1044736d4785c37aef53533ba1c39c73dc959acb8935de7ab3911ba4ba746b2f554ef21e5c6d5fc8a6a028629b0d9213cf327237e30d216b1b49bb9947d17e67ef944ccaa1165a81e1ca89af3957877976a21d522a08ca308c8b865b8c7b8842049da1463f1bac540ab68a1aad9dd6a3c3d18f8ea6a3db3b8d833bd0ff16cf0fdaaa93c0847242818315fedd9c87b0b3a8a2f96d8b76a63134bda5a0989d804ebee30f5a33f7cd36420886b45ce8234a666b252218977e000000",
  "txid": "d057601e0cd46d275e58240201f4061357ee6b1fb73bca52103e6c28ab03d2fc",
  "hash": "8d09b11dd48d266b185a2bc9482580bf6880d09666786fdfebd0a5429d75cd47",
  "size": 5085,
  "vsize": 2278,
  "version": 1,
  "locktime": 126,
  "vin": [
    {
      "txid": "8a2ccbb87c9f60b19133d0d4ebcec8aec93ecfaf22bf1bf45c3a4aa599fffe4f",
      "vout": 1,
      "scriptSig": {
        "asm": "",
        "hex": ""
      },
      "txinwitness": [
        "5d519c792ea215a47ac8858c148372fc67d3f468732d65f1d68b8bffd37455f5540db6b1d68251fce76a177f7c54e406bd2d80eb0deaddd038b09065405757a687c33121348fa7c0e0ac78f96a44b08eb687bb471cda354e2591efe750627511383d0c2851426d9061b70f7d6713d35dd2e5d0989fa3bac10f55b9253e09fbd5b3c869cbe6be4e42432e7dac8e649d789dd924b574d9d63c1aab7d59f294df3b485b34822e835732e8f167d454c30477df3bf411cf5c354b1e40f2fb422d6bd75108f4f1c0997508f8e1989e351d3f1a3d3b149ce58110de0c9baf453a1d573c9dd8e01005900f1c06885436a266c9ec4f12b9119115052a415ca1fcf869d4b3ca151b59ea18b0a23937ccc208490ea94920799b7cd2be13d371b5b501f2296a79a524f064e3bdcb9d513ebad7d09632de97069ec3a9a73cea8a375fe28ed4678503f02135e2a24b46b7918d487e95c38b1f93778eb311b92bfbcc8b771c88acd9badcf63f800528e640e2b5c2274e001f4b838240908cc7a36a398c768a88df505f7cab8cd58ff1c99b5ef828ea3887c36f4f621741345cb803ff4074752916daffbc95ece62aa909f96af18aa3c13d60406721a5a7f5a821e07558a07e2ca931f293aa6318ec379fe5af47daed3e6cd00f6325b1378dc8f3f704f5d991ea87f9f0bb4e54b33c08109ffe2e8048ec648256b63b57be5b27c834aff41b4a6fd0163ead0a8c65a4916fcd943dd4a9b7db58e2aa9846433813b8a5881dbc7239899b40e503fe4a3fccedaf1d1a2714fa6d2a0bd301e28a2523bb20c83b5b6385f71d2e99c31a1d78f9d508381364cdb9ec8ac1417b450a55491760febbbdfebc630de7936bb661a9a1219d17718f57c9524315dfbb7d313aed6c3f572350459495fe570233f984a0141e9fa81fefd8c1788d917900f92c9b9ab3d5f8e37c4ce0b2c5e0de982d1f32de96c3ddac710d64455c09c30469f6e2ea8507184386714c80fad2adb40370959f1ad10b27545465d7b9e7d8701de58cf8b594fc4c3d9ef7a4845b52064b62231a7a9db3365c5f5bdc26583b68c5d3ef0ce294dac32c3ccff284212fd9e9b4a5def0db7ced4c8db24d7b060d60077e0b0ba30467c8510a4cba6364cb632e669cb7cdce7b45cc4e4b01da376c19906e67f3e44e840d6fcb928c784eea669f6bc9174778bc93fa11b2475d58b197170cd02a6339b0121ae88122207f05da42fa184bfc8248be264a59306843dac3a116ccb2b2acd035bce6d76df73397101b58ab74bf6dfd72bc346dec1134efe9d4352fa664dc1cab9c8cf58923f32ff04bff52367aefa0795e259b3016c62000799cb93021074fd7eecbae02fbd9079676b192c637e0320a5f5e73595a4b7b35d1a2d42d2436dcfcec1e8db3331746dd978342389c8ab4fc844865c8aeb45c8e814179dfc4afe7476c93a2a1cef806aba72a75ee8ed0b22f7801a7fe034c19b260df6f4db8d644812d7bf80c7b4b42315dc8acc3f2ed048a507ff42298ce91ec2ebd0cec540bed7be034115d652e80e2aece7e155ec886c4c17144fc22f45419aafad0f3226445002f7fea0811fb551de7a36c9ebbd161c34abb4ea3f1c03d8258b5d0fd4fc6619a56a251186354ecdbfd5a35afd8ed2f4e017236c185980f3bfd6f0a27f198a93465df75364a3c06d665e4541096845231948f704f118583446e96681084870218c75d4664876411afb1412bc313baaade66f6375d3268b8937628632407827c98632e2e28c6bc8219f572b1e0717e162f4dd78b6411113c982ea503b523754960eaee5c9a637dba562291860d1b7362b1eb36495bba5f357bd7e124d168ac9f447f5afdcaa854513cca9fcae4f8627840bb3a1dbebc0fafd87a46abd6578f7adaf425608caabcaf525ddf36a38028b8f991421822ac9778229fd28b966fccd8620f8b43dbd6649cc61725bfa1b2bdb103b8ab9a6a2cc36c0c866ef5da1731869e7fd0e0284a22dc453f94282c243a3bafef8813638e1be41a61ba3c870d1c63c9e6a902c35c73bc40a83bb63d74a68afadfe6d737e2d41b0df6a5078fb89ba109105b1f543d58161a0242099e983bafb98fa66abddefd022f348724f9dc76f896bb6539afd4e084bc07a90027fb81be8727a2b9687ab3c9dffd916c1c0cd48ad548e1dfe52865b90c59d5241f9b563fd151c92975f19ad37ca62c88f7454345f12fe596bb5d71c08ac9d6cad32076eb4b09421317e8f443657646f03cb57ac1bf83f0f39e195093f1a959a19328418465c83e163c72e194aa03397b29f646e90f292d529665e0e4edaeeb8564340881710262ec331ab6cfd71e7270a22627dd26e52522c5b35fe24875c7541d733551a8e4fa7e8524ec032d94ecf218f07d322a9fbb8496e0ac32daaf2655fa07e45f88d617482fb1d28a4a474c363ea19787ccb32a1f0d6564081ed2a3ae234017dec3c4eb0b89704c3a8de05a64aa8fc5ca7a268ee15416e887ae098771d3f02749e7eeb7e363ec5b3d0813d9eb31c66b6b80520075370ae84f8ad570a4d89ad51bbe530a862052222394a6ad0d53b672c6e6bb5d8a7eef1b88177003fd9e5ba3f606ba4c2adb15ddfc0902f158c47d9c734ea7711596a8c7a1034a72d3afaa3ab439972e915d84c0f54eddba2dcccd89daec4db5cd77afb7a575ba54483a2db1b000454b70106090724e03641ac18641185cd39badc52b281c7ed3385cdafb7622d8326f6f56a6bbcde27d402afe8da67ab7f1d79cdcea2d7b8eeb865ea1af1832525c2921f66ac5a65e21ab36f1fd0f4219314ecf8291d6a7b9c15a016351e7dc3a075044bea5fdd28ec9995bb2a4f774be446d8667ce72a58b1e9677457c040a5701e06beb8e0824ad73ca543fe12485405bd7bd5c0cb076a71c9f1be1d85343e8e16aa09e4232aa1e7edf6fa728bfbf019c3acfd58993c89c7b62c4418ecef5ca971a6d11f8cfea91fab36ab7cf1f0f1a62e2421b3bd6b8e6b173b251389e2dea1f0f386f7e4cf4714d59b115998ab06be793be80af3cb71a46f4ddb057f6a0a448153ceb11262cbdedd06723c5af2011488592fc5f60e73e4a8b1128674ea491062a87383aa7e07ae8e2a8328323e70d29454154778a1c8451916b6a5c3bde7cd2c84c11bc5fabc7296e8b5473ba0d428e75ea78046b37ff5b85893e839676efc4541265affd3550497fe554eb182d6a94f9f744496c6592782ff2bbfc3e9519983f7b9b83fee71983187e540ffd7a2a3b0c493e5d6ecf6aec1f07406f8bde35952512dcd1720afbbfb3c901af0e6b2d89a36839031a2132525f6d747c80d6de001336486289989fd8e4e9f70d316d718e96a9afb3d8e6f5f7fc0b0f51525d5f7e8996b2bcbecf00000000000000000000000000000000000000000000000000000000000c18263301",
        "00a907b1859e04ea8f7db6f0d98b7408426d531e6ccb27df87f06aaeeffa0771162bb7634b0709d4f96e72867f54fc66c77996c97350c4979c6150254dec59159f4ef2f2e572f9bc4c284e8bb0ec2130b52af08873cf14c144ac4744c2eba6455aed33dd0c9304c23313b2bb418e0f49ad91042a86544c502ff2f9f8fc1329f957dde8fd718e69458f399317680ee66e3762835e004ac1fffe9ad8e0c2cccce516dffa4f113d503587678e544cf4cc597f2fadd661d6a912906263e5894848476eab403624236552148c23b14bdb8c4397d3349fd098874d359ad4b0e545947140e503d5d05997728c851c07d0f925d94ef2d89b9676034755058b74dac544044d4681b1df9f75c0d3506bc4fec580f8322c77bbe33f03550c0ccb96b81f788121706d3fcee32f66b59ac3376fcc2375e39457087d06900a7473e1482fb173aef93b96051f0ab34b62fa336f2a7279ccce9bbf26601529ff719da59335636464360a957066fe4f79dd57b7d6aacbb88c59c90fc1bf0c003a11a0f6623a96d9d95b307e7ac58863c0d44eb1a77c508ac84e11a2ea3827c7c39ddf2789381de21d33f2b185ab092090e3149cedd04b78d1e3a6b4da10f0dc2213bb158d85f7e762db86d89548f8c8f1f62339aed97413c38140eb249c4ed1aab2c21319f0dc33e40095a8a86c2d6b140cb6b5f1f074123013f4c765c60db4ac8014dd34abcccbbc80b1cfc78c918e24bcb27dcfe731e9574c4f3d2c2283aa9f90a78b49d32e323760df19426a35d69325a722495168dae54de31dbac124148e08e9b0804f0f760d872374aa3e3e2cc364b0fb9f193e1593c539e1a0770f16ff325158d78ab3cf7b18763d2e30ab87fe2f218ac589b5505fb928c967fc41132c90d5675b99629165668e1fd2ace39acc5cbb984af569781256d8d03aeb81c7e8a0660f531509f7e87e3e350b4b00272330cf31c3e13c834068b71bb25f8ed091d88205124082af0478af9ebad8a986ba186a67eab78bddbe1645fb818b7609473205a2429e2da240bad9d1578126c259260e7ae0d71f31cac3211198d4d3a17c57475f7d7bd30e9212f84fb7ccc81652f4222c75d66333833e9c9e27509d07c578b88093575fcacc798763a624fb114ae3340432dacbed7d17af8ab71a521a3433f56d3b075f1f530e0883c15a6ac7b2bebc3574e9e21a343caa45d8543600b0d66bf845df237376dd8d943e45fa37dcef4adb3dd51b6f9586c1dde0634fb0cd041a09e67d092c39a6f05791e139cc8033d35aacd5192f5980980e1c5606c9475583581bc9f499cf480f911c69381d9c08b7ecd9304ecfb370b888b562f3b8d5dcd3d28c8b906da17a8731e4e0c307cf54d00fb572ca37a7378fc99dcc90f9926a6c3b74f7bf061534c2b9babb708c35e6fc6746d54f8741a7f8f79a6878997dc59b7e904ab73be400d8ce9c3677c9b6924a978e688450a7554e439d0be8711e225d317456356126b90f6ef9a9a47928eb38e0f3a502c8054312adc14df624df65731d3c8ca51ddcc5090c7446f2c258493f181b9e532c8e715dfbe1d5e5727ff72fa90011d3d54eb3c71709d7216f1a7aae0c1044736d4785c37aef53533ba1c39c73dc959acb8935de7ab3911ba4ba746b2f554ef21e5c6d5fc8a6a028629b0d9213cf327237e30d216b1b49bb9947d17e67ef944ccaa1165a81e1ca89af3957877976a21d522a08ca308c8b865b8c7b8842049da1463f1bac540ab68a1aad9dd6a3c3d18f8ea6a3db3b8d833bd0ff16cf0fdaaa93c0847242818315fedd9c87b0b3a8a2f96d8b76a63134bda5a0989d804ebee30f5a33f7cd36420886b45ce8234a666b25221897"
      ],
      "sequence": 4294967294
    }
  ],
  "vout": [
    {
      "value": 1.0,
      "n": 0,
      "scriptPubKey": {
        "asm": "OP_RETURN 923dbf3e0ff22b91529b2d482213b0373b2f29c97dc9bf14c9e1a3e855503fe0 feb5fe7af3c2a01ef2cf4eb2faa74626023f9beeb8fcc07a62bd7fb8d03023a3de95de5ad3e2803ed2ef6e92da876606221fbbce98dce05a429d5f98f0100383bef5be3ab382e05eb28f0ef2bae70666427fdbaef8bc803a22fd3ff8907063e39ed59e1a93a2c07e92af2ed29ac72646625ffb8ed89ca01a02dd1fd8b05043c37e357efa7342209e724fce327a27c6a682bf1b6e387c40fae23dff3850b0a3235e155eda536200be526fee125a07e686a29f3b4e185c60dac21ddf18709083033e753eba330260de320f8e723a6786e6c2ff5b2e783c00baa27dbf7810f0e3631e551e9a132240fe122fae521a47a6c6e2df7b0e581c209a825d9f5830d0c343feb5fe7af3c2a01ef2cf4eb2faa74626023f9beeb8fcc07a62bd7fb8d03023a3de95de5ad3e2803ed2ef6e92da876606221fbbce98dce05a429d5f98f0100383bef5be3ab382e05eb28f0ef2bae70666427fdbaef8bc803a22fd3ff8907063e39ed59e1a93a2c07e92af2ed29ac72646625ffb8ed89ca01a02dd1fd8b05043c37e357efa7342209e724fce327a27c6a682bf1b6e387c40fae23dff3850b0a3235e155eda536200be526fee125a07e686a29f3b4e185c60dac21ddf18709083033e753eba330260de320f8e723a6786e6c2ff5b2e783c00baa27dbf7810f0e3631e551e9a132240fe122fae521a47a6c6e2df7b0e581c209a825d9f5830d0c343feb5fe7af3c2a01ef2cf4eb2faa74626023f9beeb8fcc07a62bd7fb8d03023a3de95de5ad3e2803ed2ef6e92da876606221fbbce98dce05a429d5f98f0100383bef5be3ab382e05eb28f0ef2bae70666427fdbaef8bc803a22fd3ff8907063e39ed59e1a93a2c07e92af2ed29ac72646625ffb8ed89ca01a02dd1fd8b05043c37e357efa7342209e724fce327a27c6a682bf1b6e387c40fae23dff3850b0a3235e155eda536200be526fee125a07e686a29f3b4e185c60dac21ddf18709083033e753eba330260de320f8e723a6786e6c2ff5b2e783c00baa27dbf7810f0e3631e551e9a132240fe122fae521a47a6c6e2df7b0e581c209a825d9f5830d0c343feb5fe7af3c2a01ef2cf4eb2faa74626023f9beeb8fcc07a62bd7fb8d03023a3de95de5ad3e2803ed2ef6e92da876606221fbbce98dce05a429d5f98f0100383bef5be3ab382e05eb28f0ef2bae70666427fdbaef8bc803a22fd3ff8907063e39ed59e1a93a2c07e92af2ed29ac72646625ffb8ed89ca01a02dd1fd8b05043c37e357efa7342209e724fce327a27c6a682bf1b6e387c40fae23dff3850b0a3235e155eda536200be526fee125a07e686a29f3b4e185c60dac21ddf18709083033e753eba330260de320f8e723a6786e6c2ff5b2e783c00baa27dbf7810f0e3631e551e9a132240fe122fae521a47a6c6e2df7b0e581c209a825d9f5830d0c343feb5fe7af3c2a01ef2cf4eb2faa74626023f9beeb8fcc07a62bd7fb8d03023a3de95de5ad3e2803ed2ef6e92da876606221fbbce98dce05a429d5f98f0100383bef5be3ab382e05eb28f0ef2bae70666427fdbaef8bc803a22fd3ff8907063e39ed59e1a93a2c07e92af2ed29ac72646625ffb8ed89ca01a02dd1fd8b05043c37e357efa7342209e724fce327a27c6a655e04997ea6eb2aaf022b09e32d7b58058833d32d59de7daca0cd5d2816f28f9",
        "hex": "6a20923dbf3e0ff22b91529b2d482213b0373b2f29c97dc9bf14c9e1a3e855503fe04db004feb5fe7af3c2a01ef2cf4eb2faa74626023f9beeb8fcc07a62bd7fb8d03023a3de95de5ad3e2803ed2ef6e92da876606221fbbce98dce05a429d5f98f0100383bef5be3ab382e05eb28f0ef2bae70666427fdbaef8bc803a22fd3ff8907063e39ed59e1a93a2c07e92af2ed29ac72646625ffb8ed89ca01a02dd1fd8b05043c37e357efa7342209e724fce327a27c6a682bf1b6e387c40fae23dff3850b0a3235e155eda536200be526fee125a07e686a29f3b4e185c60dac21ddf18709083033e753eba330260de320f8e723a6786e6c2ff5b2e783c00baa27dbf7810f0e3631e551e9a132240fe122fae521a47a6c6e2df7b0e581c209a825d9f5830d0c343feb5fe7af3c2a01ef2cf4eb2faa74626023f9beeb8fcc07a62bd7fb8d03023a3de95de5ad3e2803ed2ef6e92da876606221fbbce98dce05a429d5f98f0100383bef5be3ab382e05eb28f0ef2bae70666427fdbaef8bc803a22fd3ff8907063e39ed59e1a93a2c07e92af2ed29ac72646625ffb8ed89ca01a02dd1fd8b05043c37e357efa7342209e724fce327a27c6a682bf1b6e387c40fae23dff3850b0a3235e155eda536200be526fee125a07e686a29f3b4e185c60dac21ddf18709083033e753eba330260de320f8e723a6786e6c2ff5b2e783c00baa27dbf7810f0e3631e551e9a132240fe122fae521a47a6c6e2df7b0e581c209a825d9f5830d0c343feb5fe7af3c2a01ef2cf4eb2faa74626023f9beeb8fcc07a62bd7fb8d03023a3de95de5ad3e2803ed2ef6e92da876606221fbbce98dce05a429d5f98f0100383bef5be3ab382e05eb28f0ef2bae70666427fdbaef8bc803a22fd3ff8907063e39ed59e1a93a2c07e92af2ed29ac72646625ffb8ed89ca01a02dd1fd8b05043c37e357efa7342209e724fce327a27c6a682bf1b6e387c40fae23dff3850b0a3235e155eda536200be526fee125a07e686a29f3b4e185c60dac21ddf18709083033e753eba330260de320f8e723a6786e6c2ff5b2e783c00baa27dbf7810f0e3631e551e9a132240fe122fae521a47a6c6e2df7b0e581c209a825d9f5830d0c343feb5fe7af3c2a01ef2cf4eb2faa74626023f9beeb8fcc07a62bd7fb8d03023a3de95de5ad3e2803ed2ef6e92da876606221fbbce98dce05a429d5f98f0100383bef5be3ab382e05eb28f0ef2bae70666427fdbaef8bc803a22fd3ff8907063e39ed59e1a93a2c07e92af2ed29ac72646625ffb8ed89ca01a02dd1fd8b05043c37e357efa7342209e724fce327a27c6a682bf1b6e387c40fae23dff3850b0a3235e155eda536200be526fee125a07e686a29f3b4e185c60dac21ddf18709083033e753eba330260de320f8e723a6786e6c2ff5b2e783c00baa27dbf7810f0e3631e551e9a132240fe122fae521a47a6c6e2df7b0e581c209a825d9f5830d0c343feb5fe7af3c2a01ef2cf4eb2faa74626023f9beeb8fcc07a62bd7fb8d03023a3de95de5ad3e2803ed2ef6e92da876606221fbbce98dce05a429d5f98f0100383bef5be3ab382e05eb28f0ef2bae70666427fdbaef8bc803a22fd3ff8907063e39ed59e1a93a2c07e92af2ed29ac72646625ffb8ed89ca01a02dd1fd8b05043c37e357efa7342209e724fce327a27c6a655e04997ea6eb2aaf022b09e32d7b58058833d32d59de7daca0cd5d2816f28f9",
        "type": "nulldata"
      }
    },
    {
      "value": 499971.5268,
      "n": 1,
      "scriptPubKey": {
        "asm": "1 fd05c50d288f87ddd2b421fa0dd0ef2fb71a69b584cb50dd2fd7a73f9a79dafc",
        "hex": "5120fd05c50d288f87ddd2b421fa0dd0ef2fb71a69b584cb50dd2fd7a73f9a79dafc",
        "reqSigs": 1,
        "type": "witness_v1_scripthash",
        "addresses": [
          "3QJmnh"
        ]
      }
    }
  ],
  "blockhash": "6d9c0c317b6a18c94c8dfa8ecf7920e3db1b4df4697afebc42d3fd28269e39fd",
  "confirmations": 1,
  "time": 1764181315,
  "blocktime": 1764181315
}