{
  "hex": "010000000001019fe9e2c9edd13e1d327d9cad5c4ac4554a77325823423f0e68e566a0bade55480100000000feffffff0200e1f50500000000fdd5046a209944c7c240850204a9ec544c8cd0b90df15a84a1af6948348664aca806996d624db00441d10e94a587c746992fa8061eaf6033ecd6b9ec042a8f20fa8310dcd957d23061f12eb485a7e766b90f88263e8f4013ccf699cc240aaf00daa330fcf977f21001914ed4e5c78706d96fe8465eef2073ac96f9ac446acf60bac3509c9917927021b16ef4c5e7a726f94fc8667ecf00538cb6d98c644aef409ae370bcb937b250c1518e14250747c619af28869e2fe0b36c56396c84aa0fa07a03905c59d752b0e171ae34052767e6398f08a6be0fc0934c76194ca48a2f805a23b07c79f772908111ce546547078659ef68c6de6fa0f32c16792cc4ea4fe03a43d01c199712f0a131ee74456727a679cf48e6fe4f80d30c36590ce4ca6fc01a63f03c39b732d041d10e94a587c746992fa8061eaf6033ecd6b9ec042a8f20fa8310dcd957d23061f12eb485a7e766b90f88263e8f4013ccf699cc240aaf00daa330fcf977f21001914ed4e5c78706d96fe8465eef2073ac96f9ac446acf60bac3509c9917927021b16ef4c5e7a726f94fc8667ecf00538cb6d98c644aef409ae370bcb937b250c1518e14250747c619af28869e2fe0b36c56396c84aa0fa07a03905c59d752b0e171ae34052767e6398f08a6be0fc0934c76194ca48a2f805a23b07c79f772908111ce546547078659ef68c6de6fa0f32c16792cc4ea4fe03a43d01c199712f0a131ee74456727a679cf48e6fe4f80d30c36590ce4ca6fc01a63f03c39b732d041d10e94a587c746992fa8061eaf6033ecd6b9ec042a8f20fa8310dcd957d23061f12eb485a7e766b90f88263e8f4013ccf699cc240aaf00daa330fcf977f21001914ed4e5c78706d96fe8465eef2073ac96f9ac446acf60bac3509c9917927021b16ef4c5e7a726f94fc8667ecf00538cb6d98c644aef409ae370bcb937b250c1518e14250747c619af28869e2fe0b36c56396c84aa0fa07a03905c59d752b0e171ae34052767e6398f08a6be0fc0934c76194ca48a2f805a23b07c79f772908111ce546547078659ef68c6de6fa0f32c16792cc4ea4fe03a43d01c199712f0a131ee74456727a679cf48e6fe4f80d30c36590ce4ca6fc01a63f03c39b732d041d10e94a587c746992fa8061eaf6033ecd6b9ec042a8f20fa8310dcd957d23061f12eb485a7e766b90f88263e8f4013ccf699cc240aaf00daa330fcf977f21001914ed4e5c78706d96fe8465eef2073ac96f9ac446acf60bac3509c9917927021b16ef4c5e7a726f94fc8667ecf00538cb6d98c644aef409ae370bcb937b250c1518e14250747c619af28869e2fe0b36c56396c84aa0fa07a03905c59d752b0e171ae34052767e6398f08a6be0fc0934c76194ca48a2f805a23b07c79f772908111ce546547078659ef68c6de6fa0f32c16792cc4ea4fe03a43d01c199712f0a131ee74456727a679cf48e6fe4f80d30c36590ce4ca6fc01a63f03c39b732d041d10e94a587c746992fa8061eaf6033ecd6b9ec042a8f20fa8310dcd957d23061f12eb485a7e766b90f88263e8f4013ccf699cc240aaf00daa330fcf977f21001914ed4e5c78706d96fe8465eef2073ac96f9ac446acf60bac3509c9917927021b16ef4c5e7a726f94fc8667ecf00538cb6d98c644aef409ae370bcb937b250c1518e14250747c619af28869e2fe0b3b0eb382e40aa7968db2a46ba2dc97126b8c06ca417c5cf70c9c6da03f40dbdcb1076cf5d792d0000225120c05735c0e59b561a17931649805ef70163cd19e26d7a9fcbfaf79dee5a27932202fd75095ea077e4fc74ff5eb0f146eab964ba2f23fdebcb4d2827542df97ce3b2df3e646e019308c8ca4a7d6a01a831e69341907f9c098533510ee001e120e60c9e404f08be430af6b50de11949f57b129a5dc3e9acd98a4bf24bf171c09cf66fe05b3b6dbb20639e1c624011eedc438c2358a54e747ecb076bbefae9234a6247ee495d1431b176e62ce88c191447825e329fd3f8ec76eff9b9482d34cb51675ef473d06fda95209c83d7a014bf17b1e3b4c3da38bf0321cd2f5d4aabd257607799a301d26e1e18b85ea4fdb34d847190fb0424a90a506da62ffabb79cd9a9aeb6fc600862b388becaa9a26a3bef9574c03c1a3b9c866d750644add1b48a51d8f44508d01eb4676d9a18ab3a3a047c81a26346671cb32f4538ed599821bfb9d6ebaa3c1ce59c97c9180156bf76c3657864e7c5763161dc04167862fdaa42388316f1312391d22d3e950f4a23892c776d6f1bd4765eadecd104a91865b66b46e458f18dc3fd03b28c5050d4f4e980414934bb9c3b74209d3a4264c3f49c7e5001c6175c4f733f38532a6b7b9b11d36f3ca98e46948467a153fc19be855e2e7f63d4d523a34ef321644d66c7c904a7d1b00cff4ec89224ec8a4dd203d2e787282445c62a4ac1bc6dfcfc4f2e2884632317789b35ecc18d6083111397cea3d2582f155ff77edd7f80a3139e736b99e3d559c2e6abdad8724d49603d7e7a7efd73058e878a8d77944e504ad563de30e2836a2a184e3b548be154956e43ace9985ecbbcf1005e95f96b1a8e1436a5dccf5d4d9db659ac4a95d4cae4a95a9711dba44a20d3eadb854ad23476cf57a435e70d64e3caa06592a816968da6f7b112f5da07292728d3b710ca28be1a8f0d78aa529afa702749070007aa1ce5afebcc57d2187dd3c473f28593e5a6b7cee0d868411d18d3811939ee64306878cceec37fb9cad7728b56cfaab3196a7fcb2a4b6d83376e4720e3b40cb608cd92466bd81628e3a9585beef3d1c3034d0c747223e148d47baad089b1b0bde389fb37ea77fd54251a684a0c64552698b5b1f8cbc65bb6b5d762f6b36e6668135925d02cd18783401da2c3b1042af992faafa0209a96ff1b00738b3e1c0ce880d01e0a576d1ac3c984741c9f9d57d480e78eece6debadd16aca96bfcbd323c7e367d22de45e9f8f8370e87f8d08910e8c4359743518664c1fff14e99aab5522102f30f90b6c7c3f4e92fc874db1c35e67bf025f15d500ac94057baba85134b57afc722aa8a9326e3c50ddfb860f56e2e3cde9fecc2e634d93bfdbb511193a22f34ab30592fc9f48228c7edb419212aaa8a4f81db2d23319605b8efb5369c2fa7303ae347496d5905a89d667d9c0a26968c0179f0b2d547d66a5d6e3651d2ad23c31e145d0bde5cec1841512019b25e71eb2cf14325f28b642cf0d9873cd4222a9fc25a141a48f2cd571948e088994d2e29bbf08fab54c68b927c06cc58ea3f83f3a60eeae0ee064f833513e3884809a4f5886e9a867c9421daa06003c7e3ad56c31673fa713b2fadc1027d49b91efa64f0aa8180211ea9995400c73b1dbee5d20b151789995570773a63e8943fadd6b7e69a5e95a7d48773a273bf794638390ecfc6d748de8bfaf9deb86136ce78f242c2d910860a7e7a044e3a78d4d9ea133aabc5daf546b9d6dbbe0b6c02573b469547f31e81a713008cd9d68233b6ad17b756ada7c1080dc1e2123adb2751d42a2b53c5f4b85a88797254e0ae15192fdc7a66aa1e5eb722e65801aaf9beb94a791c68e204a74fa124af7dcf5902ffd6597a134b94bcbbda4d9b42b8ddeb04476d79f39e019ffd9158c3dd7f57963dcf55cb738ea42e339a2401bb34a14a5ccf1b7b39c09b9c5d49f777015de522b180164855ca944a6c07b426fd477a0458acad965f1893992f9336e9c0759c365826dc2e364f4ff787cc9bc8af5d6823491c8d54633af6028afaee33ec51b986102caa2993a27c17fb445741282f8dbdf287301395b8fe75fc039ec727d78224bca242da7ce307898837c588f60f6560af8fcc782d2274a11a45e6ae0c675f31dda2dc8bd171c79a3209c51a60e980e1fcb03eb10b07a42a8036cab747526b739cf66ed89d66353650315febead3e5897f0ed767dff2cc1fc0e27a30e6059c034041f5890ec1c076d1da1e7eda7a17b8c51492ee310b906be0755dd7bfca3bcbe90ea190e5a0f7729d46f8f9d7be9b23bed2a796a39601bd4983c6512f216a002c9b7fda552f29204f7cb077d2d252f10a02c211d2ebe09cabe8100dc2eb4a346c9d67d6ec815600e3d5b477a82fbe3560d684c1bd32e3dcc0d2184660b02a425f17289ba35918a013b1034124a4cca95c3161b76ae424e12f75006986efa825e7e2f1501d2c9d7ae649c8263d04eaebacdcd154ad2b31f8d39004fe9625f30beb14bc52d83dd5de35d87667b29519ae769575a15d2ca08b31b4ffbe9dd3866c9cf9a95513944f4cee5ff046b371623eb16720eb98b115d77808ba0a78e29c8ff8571fbff55ece6f832c3f491ce2b07974b5104be97f671ba5ee1d6374fcd024af541faff1eabbf629dbbb657da02cb62afa10fedc1acf252e334a516e35111ff87111548d6975c2dd9f1a4ae96236402234c1290893d5d2085b632841366062da5c1e912a8e87523e62382dc7ec327760dc4cc403b6af157d486fa61004810807b4d6c4dd9f9ee085a054869c7cebab9b68d6001f1f9d75fba91e6e7b54006a31637175daf3a12d980881b351add46067b520cb5c68e311290c02f1d80fca12908261fab707a09f0eeb64c32c425af36ccac3e47c8956482e46e28890eb219987d40a1ae9210f29f7b2387bbb079e9c519de9e601f472cd670be3860bbf8335d4c01a7116ff37033a3c5be04f1c8acaa9fa26d8060d3c423d5da644b827248e0b71af5d6471ca9930271f9086554d5a3b2536e1427978f20330c34a2e0e98a7338ccaf52fc3a5dd7ab1a186fb28066ad76297fb8657c93d434999be0b2cda599f3d3dcb258340427959411382398027bc6b7492aeae5a0c773350f37fb49d53de525eb29af4844947586e070777d2d7890249c862f27cab413e41906b1b6b2563c2fab227f1b365a0464ee98540e23d8184617754aa1fc1d9c6cdba163dcf83dbfdf7ee717e321ce26eeb5625b9cf992fa29e2085da3669b6d1a688e84a02671694e669447390a8cb19ba01aadd76d41f677fd0b5410ffba7d9d7f318ca7d8592610622f529d53598caffc93805dd5fd396c219b806c119143b13aa2cb9bdcfb250f26391a9d65ec7255933a50f60e031c2f3c4950535b5e6a888a8c9091b5be00121622335e717279919ca4c6d0d2d3020a0b0d1d31353e44474950d4d5d7ff14252d444a5a61a7aec2d4d9f0f3fd000000000000000000000000000000001121314001fd21050091380016c1a145385dd56ec7005d6a2054ca2bedf6de60a0cbd84a7ec130dddd0a92dd2c8e8f561e58272a0965125cd81e59cd352041c23de3a797fb29763bc3731bb7df6fdda34a7a45107cab5b3eef4ff7e55883b079a298bbcfae3969ec76fbdef856d5b6625d234e26f759c3c4957118daaee179d513f89065cd05641a2e4275256e811471879efb381227ee19a71edd8246476b4e6f83c4590aecd693172f842022db36568eae4622d953361a8616aa287b0feea13ab3cdf6e95562531b47cc01f88127b1e06ae5f1e46ab40787febbb1392241be7282481a8995c4ef32777d99dc5b94a2fcb545f3be78c8f5b16c35c5df5c161ccaccdebf594235b24ca921a729bd71cb2f41a6683bc91a9560079826dd367e37595745e01befcf93d2a3d1f7d1d6bcb671b8cbed4cf1e8105477875d6c9f9cf078e8afc9ec83abf3bfc77612997315348bda9595ffa6f3173217e4a6ca9593ddaeb9d8c7233787b573be703b88ef6d75e60f1508fb1ecdcd9ba328aa986409ff7b574cc8d957f5793a1f78380be92bc5f9466a37815f8ff50fe50b995e0030499b7a1f40f1f364bb3d60d04daedb140d05fdbb5cbfec43802673d01561be606e2774d11ad521fdc90f284a2d987afb10afe71c2d5c46f1588cc84097199af122cd26d0be456224d280103cae4f187777c46ab5488b5f4fe3f556aa2bf5f02224b6d287c926950ffc5a60cc610d460309f1a4d920d3c74244f2d34ae296e5361abe5f841e7a78b78894ebf76b88a87d4a56ae17c5a99560bf365c4e30ce69bd4bccb3c283f22f1c5f46a392800ed7257f8a8dc876ceeae17e3b0228a9254d527fe68b0a32a12aef7a9064e38a82fd2ac1cd8fc39e8fb429eb48e2459f423ac0f5ac414683c0b594899de67b53a803c3b16ae1f66f96b90385a236d97543f7ce37af2d82c3981e6d83a9571e96a028394cf1be78e1104cc6d2e332ff094580d7e0e074f220e3beb4e6f4102bc4c1d0da67dc06d18c593851d17db21eb2c278bbcb88bac2db5b08b4196657bc1cd0b02e9bcd6fc6bdd634e6b0d0f99b5e86d7aad8bfeccfb830714e397b296d77357ab55a514bf439d01ebfb15b618afd215c0e903e3bbc98be1473a90534afe81be6706a40b08f36ef83998e127e6536d3519013a0b5c1ec8a66e70b98841293287b0821925c1e4f2d871faefe75970eab8b06cedf8d09cb0815661941d35adecbacddcc1b463d6c3880927dc9ea45b2e97728cd308e62185557071dc76f17e1c5160d9a47bc6ea467fcb49fe972624727fab50866b269fe5b43a2780e84fbd27e7d39313f1f2cd87bd27a8ae35a96530e1e3375846f4ebf1b9c5e3c58d81f509b6a72f823ebc4b33330417e4f8547cc167828caf359c88967e8449e203fc40005bc4f2bbb73bbb696be729a6b252054038172b19c5d17b8c19496f20d0fca7ff3df8f963fe0877cb8f4d636f8c9ff9202c54168060f4fdbf33c75a070b6a46246f43af8bb5bcf5149533af4708dca74a8d1d32fa70764610011beca3ea847a53e735bf422d5434053ba5d98fbe2d859be39910fce4b36fafc9a24fe419258682bf76f2bb0778710f5f589fec0c1d9a64f9e4ca8b2034cd876392c09626c33d0e3ae71ab80e0e635a2bd85ba6630b3557eb35693d71616a295e618582e54e8c717ab1a62d09d109fa9ea2d791494ecd3414581dc08500402bfec578c80ba9329fba2a849a283d6c6e0daaa5b650dd90571c6c4679ff85ac44fe3b3f263b4f7a8a8f3b16d1b39a3ac1985162e6084a83447d43447bfcf25ebf8cb42ee09301acde1c41fd0dafc70e98f4a595a79aa7926203b51844e85ed42d9533fb02269000000",
  "txid": "e3bfd3d4a0797c3bf3cdd7dcc3c2dd384b01158cfad841821f61a840a320d18e",
  "hash": "c5b968c47f00dbbc5b3df1afb460147fd337f8723078d94afacace6f03264019",
  "size": 5085,
  "vsize": 2278,
  "version": 1,
  "locktime": 105,
  "vin": [
    {
      "txid": "4855debaa066e5680e3f42235832774a55c44a5cad9c7d321d3ed1edc9e2e99f",
      "vout": 1,
      "scriptSig": {
        "asm": "",
        "hex": ""
      },
      "txinwitness": [
        "5ea077e4fc74ff5eb0f146eab964ba2f23fdebcb4d2827542df97ce3b2df3e646e019308c8ca4a7d6a01a831e69341907f9c098533510ee001e120e60c9e404f08be430af6b50de11949f57b129a5dc3e9acd98a4bf24bf171c09cf66fe05b3b6dbb20639e1c624011eedc438c2358a54e747ecb076bbefae9234a6247ee495d1431b176e62ce88c191447825e329fd3f8ec76eff9b9482d34cb51675ef473d06fda95209c83d7a014bf17b1e3b4c3da38bf0321cd2f5d4aabd257607799a301d26e1e18b85ea4fdb34d847190fb0424a90a506da62ffabb79cd9a9aeb6fc600862b388becaa9a26a3bef9574c03c1a3b9c866d750644add1b48a51d8f44508d01eb4676d9a18ab3a3a047c81a26346671cb32f4538ed599821bfb9d6ebaa3c1ce59c97c9180156bf76c3657864e7c5763161dc04167862fdaa42388316f1312391d22d3e950f4a23892c776d6f1bd4765eadecd104a91865b66b46e458f18dc3fd03b28c5050d4f4e980414934bb9c3b74209d3a4264c3f49c7e5001c6175c4f733f38532a6b7b9b11d36f3ca98e46948467a153fc19be855e2e7f63d4d523a34ef321644d66c7c904a7d1b00cff4ec89224ec8a4dd203d2e787282445c62a4ac1bc6dfcfc4f2e2884632317789b35ecc18d6083111397cea3d2582f155ff77edd7f80a3139e736b99e3d559c2e6abdad8724d49603d7e7a7efd73058e878a8d77944e504ad563de30e2836a2a184e3b548be154956e43ace9985ecbbcf1005e95f96b1a8e1436a5dccf5d4d9db659ac4a95d4cae4a95a9711dba44a20d3eadb854ad23476cf57a435e70d64e3caa06592a816968da6f7b112f5da07292728d3b710ca28be1a8f0d78aa529afa702749070007aa1ce5afebcc57d2187dd3c473f28593e5a6b7cee0d868411d18d3811939ee64306878cceec37fb9cad7728b56cfaab3196a7fcb2a4b6d83376e4720e3b40cb608cd92466bd81628e3a9585beef3d1c3034d0c747223e148d47baad089b1b0bde389fb37ea77fd54251a684a0c64552698b5b1f8cbc65bb6b5d762f6b36e6668135925d02cd18783401da2c3b1042af992faafa0209a96ff1b00738b3e1c0ce880d01e0a576d1ac3c984741c9f9d57d480e78eece6debadd16aca96bfcbd323c7e367d22de45e9f8f8370e87f8d08910e8c4359743518664c1fff14e99aab5522102f30f90b6c7c3f4e92fc874db1c35e67bf025f15d500ac94057baba85134b57afc722aa8a9326e3c50ddfb860f56e2e3cde9fecc2e634d93bfdbb511193a22f34ab30592fc9f48228c7edb419212aaa8a4f81db2d23319605b8efb5369c2fa7303ae347496d5905a89d667d9c0a26968c0179f0b2d547d66a5d6e3651d2ad23c31e145d0bde5cec1841512019b25e71eb2cf14325f28b642cf0d9873cd4222a9fc25a141a48f2cd571948e088994d2e29bbf08fab54c68b927c06cc58ea3f83f3a60eeae0ee064f833513e3884809a4f5886e9a867c9421daa06003c7e3ad56c31673fa713b2fadc1027d49b91efa64f0aa8180211ea9995400c73b1dbee5d20b151789995570773a63e8943fadd6b7e69a5e95a7d48773a273bf794638390ecfc6d748de8bfaf9deb86136ce78f242c2d910860a7e7a044e3a78d4d9ea133aabc5daf546b9d6dbbe0b6c02573b469547f31e81a713008cd9d68233b6ad17b756ada7c1080dc1e2123adb2751d42a2b53c5f4b85a88797254e0ae15192fdc7a66aa1e5eb722e65801aaf9beb94a791c68e204a74fa124af7dcf5902ffd6597a134b94bcbbda4d9b42b8ddeb04476d79f39e019ffd9158c3dd7f57963dcf55cb738ea42e339a2401bb34a14a5ccf1b7b39c09b9c5d49f777015de522b180164855ca944a6c07b426fd477a0458acad965f1893992f9336e9c0759c365826dc2e364f4ff787cc9bc8af5d6823491c8d54633af6028afaee33ec51b986102caa2993a27c17fb445741282f8dbdf287301395b8fe75fc039ec727d78224bca242da7ce307898837c588f60f6560af8fcc782d2274a11a45e6ae0c675f31dda2dc8bd171c79a3209c51a60e980e1fcb03eb10b07a42a8036cab747526b739cf66ed89d66353650315febead3e5897f0ed767dff2cc1fc0e27a30e6059c034041f5890ec1c076d1da1e7eda7a17b8c51492ee310b906be0755dd7bfca3bcbe90ea190e5a0f7729d46f8f9d7be9b23bed2a796a39601bd4983c6512f216a002c9b7fda552f29204f7cb077d2d252f10a02c211d2ebe09cabe8100dc2eb4a346c9d67d6ec815600e3d5b477a82fbe3560d684c1bd32e3dcc0d2184660b02a425f17289ba35918a013b1034124a4cca95c3161b76ae424e12f75006986efa825e7e2f1501d2c9d7ae649c8263d04eaebacdcd154ad2b31f8d39004fe9625f30beb14bc52d83dd5de35d87667b29519ae769575a15d2ca08b31b4ffbe9dd3866c9cf9a95513944f4cee5ff046b371623eb16720eb98b115d77808ba0a78e29c8ff8571fbff55ece6f832c3f491ce2b07974b5104be97f671ba5ee1d6374fcd024af541faff1eabbf629dbbb657da02cb62afa10fedc1acf252e334a516e35111ff87111548d6975c2dd9f1a4ae96236402234c1290893d5d2085b632841366062da5c1e912a8e87523e62382dc7ec327760dc4cc403b6af157d486fa61004810807b4d6c4dd9f9ee085a054869c7cebab9b68d6001f1f9d75fba91e6e7b54006a31637175daf3a12d980881b351add46067b520cb5c68e311290c02f1d80fca12908261fab707a09f0eeb64c32c425af36ccac3e47c8956482e46e28890eb219987d40a1ae9210f29f7b2387bbb079e9c519de9e601f472cd670be3860bbf8335d4c01a7116ff37033a3c5be04f1c8acaa9fa26d8060d3c423d5da644b827248e0b71af5d6471ca9930271f9086554d5a3b2536e1427978f20330c34a2e0e98a7338ccaf52fc3a5dd7ab1a186fb28066ad76297fb8657c93d434999be0b2cda599f3d3dcb258340427959411382398027bc6b7492aeae5a0c773350f37fb49d53de525eb29af4844947586e070777d2d7890249c862f27cab413e41906b1b6b2563c2fab227f1b365a0464ee98540e23d8184617754aa1fc1d9c6cdba163dcf83dbfdf7ee717e321ce26eeb5625b9cf992fa29e2085da3669b6d1a688e84a02671694e669447390a8cb19ba01aadd76d41f677fd0b5410ffba7d9d7f318ca7d8592610622f529d53598caffc93805dd5fd396c219b806c119143b13aa2cb9bdcfb250f26391a9d65ec7255933a50f60e031c2f3c4950535b5e6a888a8c9091b5be00121622335e717279919ca4c6d0d2d3020a0b0d1d31353e44474950d4d5d7ff14252d444a5a61a7aec2d4d9f0f3fd000000000000000000000000000000001121314001",
        "0091380016c1a145385dd56ec7005d6a2054ca2bedf6de60a0cbd84a7ec130dddd0a92dd2c8e8f561e58272a0965125cd81e59cd352041c23de3a797fb29763bc3731bb7df6fdda34a7a45107cab5b3eef4ff7e55883b079a298bbcfae3969ec76fbdef856d5b6625d234e26f759c3c4957118daaee179d513f89065cd05641a2e4275256e811471879efb381227ee19a71edd8246476b4e6f83c4590aecd693172f842022db36568eae4622d953361a8616aa287b0feea13ab3cdf6e95562531b47cc01f88127b1e06ae5f1e46ab40787febbb1392241be7282481a8995c4ef32777d99dc5b94a2fcb545f3be78c8f5b16c35c5df5c161ccaccdebf594235b24ca921a729bd71cb2f41a6683bc91a9560079826dd367e37595745e01befcf93d2a3d1f7d1d6bcb671b8cbed4cf1e8105477875d6c9f9cf078e8afc9ec83abf3bfc77612997315348bda9595ffa6f3173217e4a6ca9593ddaeb9d8c7233787b573be703b88ef6d75e60f1508fb1ecdcd9ba328aa986409ff7b574cc8d957f5793a1f78380be92bc5f9466a37815f8ff50fe50b995e0030499b7a1f40f1f364bb3d60d04daedb140d05fdbb5cbfec43802673d01561be606e2774d11ad521fdc90f284a2d987afb10afe71c2d5c46f1588cc84097199af122cd26d0be456224d280103cae4f187777c46ab5488b5f4fe3f556aa2bf5f02224b6d287c926950ffc5a60cc610d460309f1a4d920d3c74244f2d34ae296e5361abe5f841e7a78b78894ebf76b88a87d4a56ae17c5a99560bf365c4e30ce69bd4bccb3c283f22f1c5f46a392800ed7257f8a8dc876ceeae17e3b0228a9254d527fe68b0a32a12aef7a9064e38a82fd2ac1cd8fc39e8fb429eb48e2459f423ac0f5ac414683c0b594899de67b53a803c3b16ae1f66f96b90385a236d97543f7ce37af2d82c3981e6d83a9571e96a028394cf1be78e1104cc6d2e332ff094580d7e0e074f220e3beb4e6f4102bc4c1d0da67dc06d18c593851d17db21eb2c278bbcb88bac2db5b08b4196657bc1cd0b02e9bcd6fc6bdd634e6b0d0f99b5e86d7aad8bfeccfb830714e397b296d77357ab55a514bf439d01ebfb15b618afd215c0e903e3bbc98be1473a90534afe81be6706a40b08f36ef83998e127e6536d3519013a0b5c1ec8a66e70b98841293287b0821925c1e4f2d871faefe75970eab8b06cedf8d09cb0815661941d35adecbacddcc1b463d6c3880927dc9ea45b2e97728cd308e62185557071dc76f17e1c5160d9a47bc6ea467fcb49fe972624727fab50866b269fe5b43a2780e84fbd27e7d39313f1f2cd87bd27a8ae35a96530e1e3375846f4ebf1b9c5e3c58d81f509b6a72f823ebc4b33330417e4f8547cc167828caf359c88967e8449e203fc40005bc4f2bbb73bbb696be729a6b252054038172b19c5d17b8c19496f20d0fca7ff3df8f963fe0877cb8f4d636f8c9ff9202c54168060f4fdbf33c75a070b6a46246f43af8bb5bcf5149533af4708dca74a8d1d32fa70764610011beca3ea847a53e735bf422d5434053ba5d98fbe2d859be39910fce4b36fafc9a24fe419258682bf76f2bb0778710f5f589fec0c1d9a64f9e4ca8b2034cd876392c09626c33d0e3ae71ab80e0e635a2bd85ba6630b3557eb35693d71616a295e618582e54e8c717ab1a62d09d109fa9ea2d791494ecd3414581dc08500402bfec578c80ba9329fba2a849a283d6c6e0daaa5b650dd90571c6c4679ff85ac44fe3b3f263b4f7a8a8f3b16d1b39a3ac1985162e6084a83447d43447bfcf25ebf8cb42ee09301acde1c41fd0dafc70e98f4a595a79aa7926203b51844e85ed42d9533fb022"
      ],
      "sequence": 4294967294
    }
  ],
  "vout": [
    {
      "value": 1.0,
      "n": 0,
      "scriptPubKey": {
        "asm": "OP_RETURN 9944c7c240850204a9ec544c8cd0b90df15a84a1af6948348664aca806996d62 41d10e94a587c746992fa8061eaf6033ecd6b9ec042a8f20fa8310dcd957d23061f12eb485a7e766b90f88263e8f4013ccf699cc240aaf00daa330fcf977f21001914ed4e5c78706d96fe8465eef2073ac96f9ac446acf60bac3509c9917927021b16ef4c5e7a726f94fc8667ecf00538cb6d98c644aef409ae370bcb937b250c1518e14250747c619af28869e2fe0b36c56396c84aa0fa07a03905c59d752b0e171ae34052767e6398f08a6be0fc0934c76194ca48a2f805a23b07c79f772908111ce546547078659ef68c6de6fa0f32c16792cc4ea4fe03a43d01c199712f0a131ee74456727a679cf48e6fe4f80d30c36590ce4ca6fc01a63f03c39b732d041d10e94a587c746992fa8061eaf6033ecd6b9ec042a8f20fa8310dcd957d23061f12eb485a7e766b90f88263e8f4013ccf699cc240aaf00daa330fcf977f21001914ed4e5c78706d96fe8465eef2073ac96f9ac446acf60bac3509c9917927021b16ef4c5e7a726f94fc8667ecf00538cb6d98c644aef409ae370bcb937b250c1518e14250747c619af28869e2fe0b36c56396c84aa0fa07a03905c59d752b0e171ae34052767e6398f08a6be0fc0934c76194ca48a2f805a23b07c79f772908111ce546547078659ef68c6de6fa0f32c16792cc4ea4fe03a43d01c199712f0a131ee74456727a679cf48e6fe4f80d30c36590ce4ca6fc01a63f03c39b732d041d10e94a587c746992fa8061eaf6033ecd6b9ec042a8f20fa8310dcd957d23061f12eb485a7e766b90f88263e8f4013ccf699cc240aaf00daa330fcf977f21001914ed4e5c78706d96fe8465eef2073ac96f9ac446acf60bac3509c9917927021b16ef4c5e7a726f94fc8667ecf00538cb6d98c644aef409ae370bcb937b250c1518e14250747c619af28869e2fe0b36c56396c84aa0fa07a03905c59d752b0e171ae34052767e6398f08a6be0fc0934c76194ca48a2f805a23b07c79f772908111ce546547078659ef68c6de6fa0f32c16792cc4ea4fe03a43d01c199712f0a131ee74456727a679cf48e6fe4f80d30c36590ce4ca6fc01a63f03c39b732d041d10e94a587c746992fa8061eaf6033ecd6b9ec042a8f20fa8310dcd957d23061f12eb485a7e766b90f88263e8f4013ccf699cc240aaf00daa330fcf977f21001914ed4e5c78706d96fe8465eef2073ac96f9ac446acf60bac3509c9917927021b16ef4c5e7a726f94fc8667ecf00538cb6d98c644aef409ae370bcb937b250c1518e14250747c619af28869e2fe0b36c56396c84aa0fa07a03905c59d752b0e171ae34052767e6398f08a6be0fc0934c76194ca48a2f805a23b07c79f772908111ce546547078659ef68c6de6fa0f32c16792cc4ea4fe03a43d01c199712f0a131ee74456727a679cf48e6fe4f80d30c36590ce4ca6fc01a63f03c39b732d041d10e94a587c746992fa8061eaf6033ecd6b9ec042a8f20fa8310dcd957d23061f12eb485a7e766b90f88263e8f4013ccf699cc240aaf00daa330fcf977f21001914ed4e5c78706d96fe8465eef2073ac96f9ac446acf60bac3509c9917927021b16ef4c5e7a726f94fc8667ecf00538cb6d98c644aef409ae370bcb937b250c1518e14250747c619af28869e2fe0b3b0eb382e40aa7968db2a46ba2dc97126b8c06ca417c5cf70c9c6da03f40dbdcb",
        "hex": "6a209944c7c240850204a9ec544c8cd0b90df15a84a1af6948348664aca806996d624db00441d10e94a587c746992fa8061eaf6033ecd6b9ec042a8f20fa8310dcd957d23061f12eb485a7e766b90f88263e8f4013ccf699cc240aaf00daa330fcf977f21001914ed4e5c78706d96fe8465eef2073ac96f9ac446acf60bac3509c9917927021b16ef4c5e7a726f94fc8667ecf00538cb6d98c644aef409ae370bcb937b250c1518e14250747c619af28869e2fe0b36c56396c84aa0fa07a03905c59d752b0e171ae34052767e6398f08a6be0fc0934c76194ca48a2f805a23b07c79f772908111ce546547078659ef68c6de6fa0f32c16792cc4ea4fe03a43d01c199712f0a131ee74456727a679cf48e6fe4f80d30c36590ce4ca6fc01a63f03c39b732d041d10e94a587c746992fa8061eaf6033ecd6b9ec042a8f20fa8310dcd957d23061f12eb485a7e766b90f88263e8f4013ccf699cc240aaf00daa330fcf977f21001914ed4e5c78706d96fe8465eef2073ac96f9ac446acf60bac3509c9917927021b16ef4c5e7a726f94fc8667ecf00538cb6d98c644aef409ae370bcb937b250c1518e14250747c619af28869e2fe0b36c56396c84aa0fa07a03905c59d752b0e171ae34052767e6398f08a6be0fc0934c76194ca48a2f805a23b07c79f772908111ce546547078659ef68c6de6fa0f32c16792cc4ea4fe03a43d01c199712f0a131ee74456727a679cf48e6fe4f80d30c36590ce4ca6fc01a63f03c39b732d041d10e94a587c746992fa8061eaf6033ecd6b9ec042a8f20fa8310dcd957d23061f12eb485a7e766b90f88263e8f4013ccf699cc240aaf00daa330fcf977f21001914ed4e5c78706d96fe8465eef2073ac96f9ac446acf60bac3509c9917927021b16ef4c5e7a726f94fc8667ecf00538cb6d98c644aef409ae370bcb937b250c1518e14250747c619af28869e2fe0b36c56396c84aa0fa07a03905c59d752b0e171ae34052767e6398f08a6be0fc0934c76194ca48a2f805a23b07c79f772908111ce546547078659ef68c6de6fa0f32c16792cc4ea4fe03a43d01c199712f0a131ee74456727a679cf48e6fe4f80d30c36590ce4ca6fc01a63f03c39b732d041d10e94a587c746992fa8061eaf6033ecd6b9ec042a8f20fa8310dcd957d23061f12eb485a7e766b90f88263e8f4013ccf699cc240aaf00daa330fcf977f21001914ed4e5c78706d96fe8465eef2073ac96f9ac446acf60bac3509c9917927021b16ef4c5e7a726f94fc8667ecf00538cb6d98c644aef409ae370bcb937b250c1518e14250747c619af28869e2fe0b36c56396c84aa0fa07a03905c59d752b0e171ae34052767e6398f08a6be0fc0934c76194ca48a2f805a23b07c79f772908111ce546547078659ef68c6de6fa0f32c16792cc4ea4fe03a43d01c199712f0a131ee74456727a679cf48e6fe4f80d30c36590ce4ca6fc01a63f03c39b732d041d10e94a587c746992fa8061eaf6033ecd6b9ec042a8f20fa8310dcd957d23061f12eb485a7e766b90f88263e8f4013ccf699cc240aaf00daa330fcf977f21001914ed4e5c78706d96fe8465eef2073ac96f9ac446acf60bac3509c9917927021b16ef4c5e7a726f94fc8667ecf00538cb6d98c644aef409ae370bcb937b250c1518e14250747c619af28869e2fe0b3b0eb382e40aa7968db2a46ba2dc97126b8c06ca417c5cf70c9c6da03f40dbdcb",
        "type": "nulldata"
      }
    },
    {
      "value": 499992.8817,
      "n": 1,
      "scriptPubKey": {
        "asm": "1 c05735c0e59b561a17931649805ef70163cd19e26d7a9fcbfaf79dee5a279322",
        "hex": "5120c05735c0e59b561a17931649805ef70163cd19e26d7a9fcbfaf79dee5a279322",
        "reqSigs": 1,
        "type": "witness_v1_scripthash",
        "addresses": [
          "3QJmnh"
        ]
      }
    }
  ],
  "blockhash": "86d3aa2e412fd1c0ad7fd5d7d84b7ddcf41a8bf652344eaa49dd1e6444ae5dce",
  "confirmations": 1,
  "time": 1764176858,
  "blocktime": 1764176858
}