{
  "hex": "0100000000010153fa6fffa8f0296a1180892d4632183864803fa28aeac837b3cd683ec15a9dc00100000000feffffff0200ce47c6782d00002251204e8bfe93864887a719e11a46b94450d891a2e3dc5617c8cbbd78cad4e6e4185a00e1f50500000000fdd5046a20e0bb9f4593f292cfecef157fbb769aec093e29b66f98e5fa00e1d7801821db064db004b846494796202fe39b2c158700baefead522f7797820a0927abad7d0f40bfc7d98666967b6000fc3bb0c35a7209acfcaf502d759580080b25a9af7f0d42bdc5df8060907d6606fa3db6c55c740faafaa9562b7393860e0d23afa9790b44bbc3dd8262927f6404f83fb4c75e760da8f8ab54297191840c0f21adab7b0946b9c1d38c6c9c716a0af631bac9507803a6f6a55a277f9f8a02012fa3a5750748b7cfd18e6e9e736808f433b8cb527a01a4f4a758257d9d8800032da1a777054ab5cdd7886898756e0ef235becd547c07a2f2a15e237b9b8e06052ba7a171034cb3cbd58a6a9a776c0cf037bccf567e05a0f0a35c2179998c040729a5a373014eb1c9db846494796202fe39b2c158700baefead522f7797820a0927abad7d0f40bfc7d98666967b6000fc3bb0c35a7209acfcaf502d759580080b25a9af7f0d42bdc5df8060907d6606fa3db6c55c740faafaa9562b7393860e0d23afa9790b44bbc3dd8262927f6404f83fb4c75e760da8f8ab54297191840c0f21adab7b0946b9c1d38c6c9c716a0af631bac9507803a6f6a55a277f9f8a02012fa3a5750748b7cfd18e6e9e736808f433b8cb527a01a4f4a758257d9d8800032da1a777054ab5cdd7886898756e0ef235becd547c07a2f2a15e237b9b8e06052ba7a171034cb3cbd58a6a9a776c0cf037bccf567e05a0f0a35c2179998c040729a5a373014eb1c9db846494796202fe39b2c158700baefead522f7797820a0927abad7d0f40bfc7d98666967b6000fc3bb0c35a7209acfcaf502d759580080b25a9af7f0d42bdc5df8060907d6606fa3db6c55c740faafaa9562b7393860e0d23afa9790b44bbc3dd8262927f6404f83fb4c75e760da8f8ab54297191840c0f21adab7b0946b9c1d38c6c9c716a0af631bac9507803a6f6a55a277f9f8a02012fa3a5750748b7cfd18e6e9e736808f433b8cb527a01a4f4a758257d9d8800032da1a777054ab5cdd7886898756e0ef235becd547c07a2f2a15e237b9b8e06052ba7a171034cb3cbd58a6a9a776c0cf037bccf567e05a0f0a35c2179998c040729a5a373014eb1c9db846494796202fe39b2c158700baefead522f7797820a0927abad7d0f40bfc7d98666967b6000fc3bb0c35a7209acfcaf502d759580080b25a9af7f0d42bdc5df8060907d6606fa3db6c55c740faafaa9562b7393860e0d23afa9790b44bbc3dd8262927f6404f83fb4c75e760da8f8ab54297191840c0f21adab7b0946b9c1d38c6c9c716a0af631bac9507803a6f6a55a277f9f8a02012fa3a5750748b7cfd18e6e9e736808f433b8cb527a01a4f4a758257d9d8800032da1a777054ab5cdd7886898756e0ef235becd547c07a2f2a15e237b9b8e06052ba7a171034cb3cbd58a6a9a776c0cf037bccf567e05a0f0a35c2179998c040729a5a373014eb1c9db846494796202fe39b2c158700baefead522f7797820a0927abad7d0f40bfc7d98666967b6000fc3bb0c35a7209acfcaf502d759580080b25a9af7f0d42bdc5df8060907d6606fa3db6c55c740faafaa9562b7393860e0d23afa9790b44bbc3dd8262927f6404f83fb4c75e760da8f8ab54297191840c0f21adab7b0946b9c1d38c6c9c716a0af631bac9507803a6f6aed42a483ef279a16b58cde88278a12a25e9bafe66e41fa19ba18e2c11e0d6fd702fd7509e24c7a303dedce9c3525e3ce806b7738cccc1e314f6c62818e348ca3080ce6e77e23ab2a915d42ab8b4480901e6eb899151785d21869ec63a841192c5e94f457542caf8a4192475e9b24c280b1643780c2d612323e867114167a4cff31c22342099a44c9dbb524440621f6bd37bb11433c810942132de4dbcf674f6f46fdc901ed7769dd9a43c44451d9aeed8bec02cfb0b8082a02e01b828606ca438163ce1cb7ad772bfe3d45bf53f42bdc4352622124b96c44a6a1523d06354ee82ec5717f6ba03905aef7a43de98a36d991411800f14c283ddaa9f530c53c49de016ac5983f7c1d2afcb975d0686ead92f0052561bc81935c7cb9f3dd785574a6343d3d639f0d83b1a18ca74e214053ac61869242c6a6542e5954dbd17e0498c8eb36c66bdec8a75f87b529765c74ea489653e65cd33d30157971af5c0934014989daa94cda4f7c329c5a418568c7c8a48da847e457cbb08ec3df3fb30f4044f4df82ec27aaae1fcf8be38d632913656abdd924ac16412627633dd0cece75fce28d2d98a1b145b93864a66261091ec37f578d92f245b5982660106d3aa88c28a1df1826cb6925b071cc9d2d674338e2b66c50fa1149c8f5350619748aca2f5e03ad981e6ebcb414de8b8afd862a5ac84a8173827aeb67d068f471b69c1d01347cd0c70ee9ae717e21ca17cc25d5f05af6f1c700911a734b53c3d8879de2d46c587999265cf9c0292644bf1c68a7f8d043510b39ddad5a923eece0040cac32244746c3c3fc27af608285eff4d383550acd03d59bc1bf77935ec89a7e61999bfe07abd18ab58c2940cf4a05e6a0a65787720bea75ec6ab3bb45a030728efe91a5f775bbb4c7dd8ce3f70ce42e181677522b724c6f4310ac9ac5e42a5b5fe6103a1add63f0ac5c6c87a0753df01d0071b92b66ea24f9687b6e71011e99cf4807861bfadc3f1ea7fc03b729b32293ac6bd705918e431cc057e684b57776c3824459dcec4e6aa5298c8644b80adfabfb1da0653ab46498153857c25b357f3df6967c40848a2297940313db8ee9563389a43e640e44b984bf27049e9f282b7337bd34008c5e82beb57313233cd5badba01883a767dd7cf1635c23a60759ebc15737f9bf6b72d1b73b69d64962b5a65d48cb1db7cbf6a58239542191a09d25b7e21e48be8834d12fc93cfc06c11d8d6a12ddda51c14e296e74dc129917a8ca8665ab5a6741833cb75f332ed3f5dea0f8310977ccb06ae29c243b7408625aadd6fd35c0b0c58e19fdada615090d21fc7c9640af48e6f71f19ea4a0f280106e9e28a1770eccd94784f9b81a55378bfa44b50d1be96e0bccaf014b45d23a1133609e5039c85821df6e095a49645eb3bf78aa03e3cca6cdb2d93db7742dc2482b14c8f9bfb7f0eaae11dc6a532cd467116366072ca5d01a6fbfdf82e989fad4e90c06ab8bf0ac7ec4198fe44cbbf7f361a437646b95cc3d6caefcbe73ccb17857f35f00d0830130f8ce702884dbf2178a84896d889f4a9bf5491c745dbae40855902aa07af28a736974298ba09ba5a99eb87868ea0cf84ea7b006f01ab6c63bf18d8f3345b8c7d934c2148cc9b4b726b5486279e2fca02a9e401fb69693b21332c3950b707fe95f821d1eb305a532e695d267b8dfa34ef973d40e2bbc9ddebf87f0e9ec5b064e818943e3c56c181c9d3dcf543f22a0a31ad5a2a465766d8c5a9aa2fa99a72e7a091bcf9eabde3b33ee13b7fe0e04d900892402b09a46bd9d1543eb0ca7b9ec4dc22af66945b495f671df8f380c8a789462b89ae0dcb576a024855210742b2f0df101dccff7ddc44bc5175231552c560ff9a8a518ebad94a44567eab5075b249e46c5a9e71e70dd93392dee1b9b167ed725078a6a4b163d471f22f8462de0924945d768bbf1708170411d032bcaf0e8b986bfafc98a89c7ed42c92f3b21b7b9e02441d13bedf67330d8ad0f328f7d3850456f3bf06fb2a7fdd2558c8cd397b168c0c7fb2e5d38dc04621cec89a9d9672a8fcf6811ad012e41a9f4b08953f603ef2b11d37d61b48a0714fc72b9b255caeb32057d4714104c889a38255bce0ee39e80e70a498c0d9eec3cc4d38bc6620f56bbcb7b3795371475847137b89aaef5a96edacdd6824cef6760fb2f58a423c76d7b875740fcd51a7c0e9d34e00365b955b0884232515908ecea55f30ef565e08ae8c8e79663984caad31db2eee5571ae1416e8892fc153e8e955458d61e67fba30870aa4030b81150953f3b2180462ad16e062b09be575a8201322981b9454e9b3abcf71f5d4ba9a613eca15c5bca119f085ce13419ed41093b40338e24b53503041cc0424e5034b45c42abee45145f880d0edf8e4b97b225e2cb77416a826ded04817bb895f2561eb3362d03dc157cf3d85fadaa72665443f71d4b1df83879f0455aa6e0a1ee855ad6aaff1c0d7fccc93352200265ddd888e6fa780ccdbb434a6465a55c3fa819422082da75b02bed4a5bdb931c750473ae44cb7f028fe6b105df55f13487af9ff754b77c35cf8aef9768992728f064aa6b31531d94ac21ae0d7c9fec22b0104296ea6d09efbe9d289c9c24a2e0582e5626e84d99f4fc0ff46602de2929534c4a29dc40f32ce88f9996bbe05a795777c02b231c75c966a5ac6e5669daf11d6907b0fc26b583ca5f62ebc8e958ef8e39c6eae8b0fe83b5df4ea8c7100f5ed52f4b99e89151b1096be67a80fa67cd2c2d362ac02508a431abe91ef4a55d7cb767296f21622b413cd882407f9ecb81acaeeb2c5638593ebdf1ef1e02495778df4e6ebdfafb4ce15b980b0759979c59b09e10b7f4e56f9a48118c5491c2ae22731d226cff79a6c2fb403016053db8d207dd78900f51ac32d8a5f64f43ae44683598c2a3419f55ef3e654a6580a1308c9fb49d788f1f7a3ffde676423c8865c979b18626b3e5ee2ec64bf0fe6d303b7e148786648f1ba7cca28fea9614a829381e2dadcd508887dcf09551cf8b9439705d568855c19d8bb5fd8239a22a79a08685c5afa91a76ad4040f597104e0e3e5a1838114579a4278947fe7116497280d893fddef6db5b2f8f22f147a17b99c1d3d51309456c0035cfa70edb6548a5a9e69c336303c72de85a9cf45fb63e74fd516504e6bef9131b9cecd189aa2f55eb00fa657511354e37c7576d1f7aeaef4d4207dfcec88fc93f9a3998ccf59ad246957a462ffab9c4beea388f08cf8595c14dad8231c87c793164b6b7a7796fe74992a9d60c9f97fbaf23a5ddc6ce96251764b8e04ca5d8b6665039412bac57cc0c31092ca45da52a7407ab270a251ff6d8e07191c224748495052737d9dadbfc2cbd3e2e4e5edf9faff090f192a3c3d4a505d71798fa8aac8ccd7e4e7ef1a1b2f3b676f777b878e95a3a7b7bcc3fc001b25282e415058666a72758dc4d1e0e6f1f9182c3d5001fd210500fd2ad74aaa01988c192d91e17a274022506232761949f84c2553beba8d222cfcd7aaa339a88ed60c91a076aaf93e0f332a5f1608ad8f93ea142b9e53cb3e5070ffca6d8da43bf1ac226c3e05e397cab7a1999f1505af34175ad5fdc30db3f24132e8160561fbb57189c573cd81c742744a0b9568f8ae2d0dfd7fa7f1d9430dc8e230cc96ed8a450bd36fd8f765027fcd2c935e3efd2c2bd34a3ab5abc761cbf2c6b47612704e173ccb93495026980114575b0420218177e0b280de1e3c5faa839815a4dc51d3495ec01cde2a78389364e1c1c5a6c55055b47b0f737cfd927e4e01adfc4a7de91ec4e5b63a649d022c31352d8f8e2e263609036bacba1817ff4241f4ca8e582c837f3fde925844eaaa11ee767d8df9a6849fc2e87c9eebcd6453f1d99de835a1e4edc6962ef432cd23d1df84a4c9922245aefa8c4d4d20a71b012881a3d914d6d45c18ce9377dbdde5cc33403135ec10ba840272914065e077a968d290b73e5065713748474ad05d8734716fe587d88bf26cfe6d9c9c92a69c52ecd995984a0823ade6461d649baa98e175d59307be38db40a567d55375d3bef3872c8f11984a094ce490522b41e9f5ef0a1fd308bb5f349c6107b3dfc4b88ced12a73c811f2d8756f7b72195c807b3fa719e7d1379dcb13f9566b99aa7fc21a2186cded9540eee591cde7c28b9a9de3fef0f267451dcf58dad2e4b4850357efbe807fd6ad0da18f5f4af82f1e2a3fbe4765a71052502b823fe945d03a8f1be37d5ace39fb81489aff083b6e2def5b5eeaaa3be5d8ec8e86f82edc8dd71cd111345f15d07f18e88f738bc24ab514ad704c6b5a40afeb4df5d6706280d019af30589a1dda23b36884956966e2045919d2087761c783edcf6dbfc767533f6f721df9f5758c526caa5dd7f221b707e531362d20641337216e797c2d129b9a6a5d43c210ad53b0c8a05af9e0420a1c4c96168c9bdea09b65be17539a158f433481fd44a554fcc396c2a93c92410f1e03a309413a7cb968e2070ce8c3e473e36fe36fe99832fdad3e1ee08f7745cfa7d2b0bff73caaa3ec33d77aeea8fdca8379188ff64b3f3c93a3db8a33fe5a8a5f6967d715861759fa0a70067a8bbd1a6bb8fe923187a657115ed01362ad6841d472bc0887443c9b232e9f088d0c085ef75d191cf87abd2318181c33474e566f424e76119e2ad8b6cdab131481ff370051e45c0b2b5832bda6886ae2417f77264f3962b79f1f58f3093968c5f1e56dc79a198b004863b9f4bbdc833fb6a3bb391cf4a83d3c66007a30b242641996893338947b51aff20ecb5e54623b16122ca0d84c9ae1095d8607c98b249b00863e593b555daecb9df9bbdc672d5b1951f2313015ba63ea160fb7b1a88557fa76c92e1ffdbd74f7e7a52b8065c2ec530936562e92993b8477ff2711a3b6189f3d7ac6c3261c1750caf80fd1196cd07fd1be5a0546736fe1003e9303ddb1134d27342965c49b7b22e588846a022a6bb9706ca967ca1021f9db7070d8e980d8a09befbfd4a6d1ba93043acaf2120d80c68e9cb69ab66ddb3070e3396218989e8319adf2edf21d1b7d69ad73831ad94dd5cfcd4cd575a8045cc88a91484f56f170f68eb6929fd9ba1fb5f110afa9ce8df7ac22d479c23f2c5c83fe4e95b2b657c889a4e718ed973626fb7fd50d441ca4f91e7665d8eba16f95b11b0d40d4579eef6a8f6d04c85d120db0e74f12c8b3ce51b4d19c6f96c36067e78a558655cac84456fd5b821f3fff1147e3a66ba6ba635df1d98c730a73abe82ef0793504c7351c5becf2dcf38810d19d168a9469d04ec290ab9974d1a7ff4d5052cb6d56d846c20b3aa2ec2d4e35d82000000",
  "txid": "ee093191bde71d0e166c5d6b2cdb632ace6746ff1fe0eaaba4df1e4f91907425",
  "hash": "24205478dc134557ac7ee0ec3fef1a5f483e87e10c74458a2a028196c0866c47",
  "size": 5085,
  "vsize": 2278,
  "version": 1,
  "locktime": 130,
  "vin": [
    {
      "txid": "c09d5ac13e68cdb337c8ea8aa23f8064381832462d8980116a29f0a8ff6ffa53",
      "vout": 1,
      "scriptSig": {
        "asm": "",
        "hex": ""
      },
      "txinwitness": [
        "e24c7a303dedce9c3525e3ce806b7738cccc1e314f6c62818e348ca3080ce6e77e23ab2a915d42ab8b4480901e6eb899151785d21869ec63a841192c5e94f457542caf8a4192475e9b24c280b1643780c2d612323e867114167a4cff31c22342099a44c9dbb524440621f6bd37bb11433c810942132de4dbcf674f6f46fdc901ed7769dd9a43c44451d9aeed8bec02cfb0b8082a02e01b828606ca438163ce1cb7ad772bfe3d45bf53f42bdc4352622124b96c44a6a1523d06354ee82ec5717f6ba03905aef7a43de98a36d991411800f14c283ddaa9f530c53c49de016ac5983f7c1d2afcb975d0686ead92f0052561bc81935c7cb9f3dd785574a6343d3d639f0d83b1a18ca74e214053ac61869242c6a6542e5954dbd17e0498c8eb36c66bdec8a75f87b529765c74ea489653e65cd33d30157971af5c0934014989daa94cda4f7c329c5a418568c7c8a48da847e457cbb08ec3df3fb30f4044f4df82ec27aaae1fcf8be38d632913656abdd924ac16412627633dd0cece75fce28d2d98a1b145b93864a66261091ec37f578d92f245b5982660106d3aa88c28a1df1826cb6925b071cc9d2d674338e2b66c50fa1149c8f5350619748aca2f5e03ad981e6ebcb414de8b8afd862a5ac84a8173827aeb67d068f471b69c1d01347cd0c70ee9ae717e21ca17cc25d5f05af6f1c700911a734b53c3d8879de2d46c587999265cf9c0292644bf1c68a7f8d043510b39ddad5a923eece0040cac32244746c3c3fc27af608285eff4d383550acd03d59bc1bf77935ec89a7e61999bfe07abd18ab58c2940cf4a05e6a0a65787720bea75ec6ab3bb45a030728efe91a5f775bbb4c7dd8ce3f70ce42e181677522b724c6f4310ac9ac5e42a5b5fe6103a1add63f0ac5c6c87a0753df01d0071b92b66ea24f9687b6e71011e99cf4807861bfadc3f1ea7fc03b729b32293ac6bd705918e431cc057e684b57776c3824459dcec4e6aa5298c8644b80adfabfb1da0653ab46498153857c25b357f3df6967c40848a2297940313db8ee9563389a43e640e44b984bf27049e9f282b7337bd34008c5e82beb57313233cd5badba01883a767dd7cf1635c23a60759ebc15737f9bf6b72d1b73b69d64962b5a65d48cb1db7cbf6a58239542191a09d25b7e21e48be8834d12fc93cfc06c11d8d6a12ddda51c14e296e74dc129917a8ca8665ab5a6741833cb75f332ed3f5dea0f8310977ccb06ae29c243b7408625aadd6fd35c0b0c58e19fdada615090d21fc7c9640af48e6f71f19ea4a0f280106e9e28a1770eccd94784f9b81a55378bfa44b50d1be96e0bccaf014b45d23a1133609e5039c85821df6e095a49645eb3bf78aa03e3cca6cdb2d93db7742dc2482b14c8f9bfb7f0eaae11dc6a532cd467116366072ca5d01a6fbfdf82e989fad4e90c06ab8bf0ac7ec4198fe44cbbf7f361a437646b95cc3d6caefcbe73ccb17857f35f00d0830130f8ce702884dbf2178a84896d889f4a9bf5491c745dbae40855902aa07af28a736974298ba09ba5a99eb87868ea0cf84ea7b006f01ab6c63bf18d8f3345b8c7d934c2148cc9b4b726b5486279e2fca02a9e401fb69693b21332c3950b707fe95f821d1eb305a532e695d267b8dfa34ef973d40e2bbc9ddebf87f0e9ec5b064e818943e3c56c181c9d3dcf543f22a0a31ad5a2a465766d8c5a9aa2fa99a72e7a091bcf9eabde3b33ee13b7fe0e04d900892402b09a46bd9d1543eb0ca7b9ec4dc22af66945b495f671df8f380c8a789462b89ae0dcb576a024855210742b2f0df101dccff7ddc44bc5175231552c560ff9a8a518ebad94a44567eab5075b249e46c5a9e71e70dd93392dee1b9b167ed725078a6a4b163d471f22f8462de0924945d768bbf1708170411d032bcaf0e8b986bfafc98a89c7ed42c92f3b21b7b9e02441d13bedf67330d8ad0f328f7d3850456f3bf06fb2a7fdd2558c8cd397b168c0c7fb2e5d38dc04621cec89a9d9672a8fcf6811ad012e41a9f4b08953f603ef2b11d37d61b48a0714fc72b9b255caeb32057d4714104c889a38255bce0ee39e80e70a498c0d9eec3cc4d38bc6620f56bbcb7b3795371475847137b89aaef5a96edacdd6824cef6760fb2f58a423c76d7b875740fcd51a7c0e9d34e00365b955b0884232515908ecea55f30ef565e08ae8c8e79663984caad31db2eee5571ae1416e8892fc153e8e955458d61e67fba30870aa4030b81150953f3b2180462ad16e062b09be575a8201322981b9454e9b3abcf71f5d4ba9a613eca15c5bca119f085ce13419ed41093b40338e24b53503041cc0424e5034b45c42abee45145f880d0edf8e4b97b225e2cb77416a826ded04817bb895f2561eb3362d03dc157cf3d85fadaa72665443f71d4b1df83879f0455aa6e0a1ee855ad6aaff1c0d7fccc93352200265ddd888e6fa780ccdbb434a6465a55c3fa819422082da75b02bed4a5bdb931c750473ae44cb7f028fe6b105df55f13487af9ff754b77c35cf8aef9768992728f064aa6b31531d94ac21ae0d7c9fec22b0104296ea6d09efbe9d289c9c24a2e0582e5626e84d99f4fc0ff46602de2929534c4a29dc40f32ce88f9996bbe05a795777c02b231c75c966a5ac6e5669daf11d6907b0fc26b583ca5f62ebc8e958ef8e39c6eae8b0fe83b5df4ea8c7100f5ed52f4b99e89151b1096be67a80fa67cd2c2d362ac02508a431abe91ef4a55d7cb767296f21622b413cd882407f9ecb81acaeeb2c5638593ebdf1ef1e02495778df4e6ebdfafb4ce15b980b0759979c59b09e10b7f4e56f9a48118c5491c2ae22731d226cff79a6c2fb403016053db8d207dd78900f51ac32d8a5f64f43ae44683598c2a3419f55ef3e654a6580a1308c9fb49d788f1f7a3ffde676423c8865c979b18626b3e5ee2ec64bf0fe6d303b7e148786648f1ba7cca28fea9614a829381e2dadcd508887dcf09551cf8b9439705d568855c19d8bb5fd8239a22a79a08685c5afa91a76ad4040f597104e0e3e5a1838114579a4278947fe7116497280d893fddef6db5b2f8f22f147a17b99c1d3d51309456c0035cfa70edb6548a5a9e69c336303c72de85a9cf45fb63e74fd516504e6bef9131b9cecd189aa2f55eb00fa657511354e37c7576d1f7aeaef4d4207dfcec88fc93f9a3998ccf59ad246957a462ffab9c4beea388f08cf8595c14dad8231c87c793164b6b7a7796fe74992a9d60c9f97fbaf23a5ddc6ce96251764b8e04ca5d8b6665039412bac57cc0c31092ca45da52a7407ab270a251ff6d8e07191c224748495052737d9dadbfc2cbd3e2e4e5edf9faff090f192a3c3d4a505d71798fa8aac8ccd7e4e7ef1a1b2f3b676f777b878e95a3a7b7bcc3fc001b25282e415058666a72758dc4d1e0e6f1f9182c3d5001",
        "00fd2ad74aaa01988c192d91e17a274022506232761949f84c2553beba8d222cfcd7aaa339a88ed60c91a076aaf93e0f332a5f1608ad8f93ea142b9e53cb3e5070ffca6d8da43bf1ac226c3e05e397cab7a1999f1505af34175ad5fdc30db3f24132e8160561fbb57189c573cd81c742744a0b9568f8ae2d0dfd7fa7f1d9430dc8e230cc96ed8a450bd36fd8f765027fcd2c935e3efd2c2bd34a3ab5abc761cbf2c6b47612704e173ccb93495026980114575b0420218177e0b280de1e3c5faa839815a4dc51d3495ec01cde2a78389364e1c1c5a6c55055b47b0f737cfd927e4e01adfc4a7de91ec4e5b63a649d022c31352d8f8e2e263609036bacba1817ff4241f4ca8e582c837f3fde925844eaaa11ee767d8df9a6849fc2e87c9eebcd6453f1d99de835a1e4edc6962ef432cd23d1df84a4c9922245aefa8c4d4d20a71b012881a3d914d6d45c18ce9377dbdde5cc33403135ec10ba840272914065e077a968d290b73e5065713748474ad05d8734716fe587d88bf26cfe6d9c9c92a69c52ecd995984a0823ade6461d649baa98e175d59307be38db40a567d55375d3bef3872c8f11984a094ce490522b41e9f5ef0a1fd308bb5f349c6107b3dfc4b88ced12a73c811f2d8756f7b72195c807b3fa719e7d1379dcb13f9566b99aa7fc21a2186cded9540eee591cde7c28b9a9de3fef0f267451dcf58dad2e4b4850357efbe807fd6ad0da18f5f4af82f1e2a3fbe4765a71052502b823fe945d03a8f1be37d5ace39fb81489aff083b6e2def5b5eeaaa3be5d8ec8e86f82edc8dd71cd111345f15d07f18e88f738bc24ab514ad704c6b5a40afeb4df5d6706280d019af30589a1dda23b36884956966e2045919d2087761c783edcf6dbfc767533f6f721df9f5758c526caa5dd7f221b707e531362d20641337216e797c2d129b9a6a5d43c210ad53b0c8a05af9e0420a1c4c96168c9bdea09b65be17539a158f433481fd44a554fcc396c2a93c92410f1e03a309413a7cb968e2070ce8c3e473e36fe36fe99832fdad3e1ee08f7745cfa7d2b0bff73caaa3ec33d77aeea8fdca8379188ff64b3f3c93a3db8a33fe5a8a5f6967d715861759fa0a70067a8bbd1a6bb8fe923187a657115ed01362ad6841d472bc0887443c9b232e9f088d0c085ef75d191cf87abd2318181c33474e566f424e76119e2ad8b6cdab131481ff370051e45c0b2b5832bda6886ae2417f77264f3962b79f1f58f3093968c5f1e56dc79a198b004863b9f4bbdc833fb6a3bb391cf4a83d3c66007a30b242641996893338947b51aff20ecb5e54623b16122ca0d84c9ae1095d8607c98b249b00863e593b555daecb9df9bbdc672d5b1951f2313015ba63ea160fb7b1a88557fa76c92e1ffdbd74f7e7a52b8065c2ec530936562e92993b8477ff2711a3b6189f3d7ac6c3261c1750caf80fd1196cd07fd1be5a0546736fe1003e9303ddb1134d27342965c49b7b22e588846a022a6bb9706ca967ca1021f9db7070d8e980d8a09befbfd4a6d1ba93043acaf2120d80c68e9cb69ab66ddb3070e3396218989e8319adf2edf21d1b7d69ad73831ad94dd5cfcd4cd575a8045cc88a91484f56f170f68eb6929fd9ba1fb5f110afa9ce8df7ac22d479c23f2c5c83fe4e95b2b657c889a4e718ed973626fb7fd50d441ca4f91e7665d8eba16f95b11b0d40d4579eef6a8f6d04c85d120db0e74f12c8b3ce51b4d19c6f96c36067e78a558655cac84456fd5b821f3fff1147e3a66ba6ba635df1d98c730a73abe82ef0793504c7351c5becf2dcf38810d19d168a9469d04ec290ab9974d1a7ff4d5052cb6d56d846c20b3aa2ec2d4e35d"
      ],
      "sequence": 4294967294
    }
  ],
  "vout": [
    {
      "value": 499967.4592,
      "n": 0,
      "scriptPubKey": {
        "asm": "1 4e8bfe93864887a719e11a46b94450d891a2e3dc5617c8cbbd78cad4e6e4185a",
        "hex": "51204e8bfe93864887a719e11a46b94450d891a2e3dc5617c8cbbd78cad4e6e4185a",
        "reqSigs": 1,
        "type": "witness_v1_scripthash",
        "addresses": [
          "3QJmnh"
        ]
      }
    },
    {
      "value": 1.0,
      "n": 1,
      "scriptPubKey": {
        "asm": "OP_RETURN e0bb9f4593f292cfecef157fbb769aec093e29b66f98e5fa00e1d7801821db06 b846494796202fe39b2c158700baefead522f7797820a0927abad7d0f40bfc7d98666967b6000fc3bb0c35a7209acfcaf502d759580080b25a9af7f0d42bdc5df8060907d6606fa3db6c55c740faafaa9562b7393860e0d23afa9790b44bbc3dd8262927f6404f83fb4c75e760da8f8ab54297191840c0f21adab7b0946b9c1d38c6c9c716a0af631bac9507803a6f6a55a277f9f8a02012fa3a5750748b7cfd18e6e9e736808f433b8cb527a01a4f4a758257d9d8800032da1a777054ab5cdd7886898756e0ef235becd547c07a2f2a15e237b9b8e06052ba7a171034cb3cbd58a6a9a776c0cf037bccf567e05a0f0a35c2179998c040729a5a373014eb1c9db846494796202fe39b2c158700baefead522f7797820a0927abad7d0f40bfc7d98666967b6000fc3bb0c35a7209acfcaf502d759580080b25a9af7f0d42bdc5df8060907d6606fa3db6c55c740faafaa9562b7393860e0d23afa9790b44bbc3dd8262927f6404f83fb4c75e760da8f8ab54297191840c0f21adab7b0946b9c1d38c6c9c716a0af631bac9507803a6f6a55a277f9f8a02012fa3a5750748b7cfd18e6e9e736808f433b8cb527a01a4f4a758257d9d8800032da1a777054ab5cdd7886898756e0ef235becd547c07a2f2a15e237b9b8e06052ba7a171034cb3cbd58a6a9a776c0cf037bccf567e05a0f0a35c2179998c040729a5a373014eb1c9db846494796202fe39b2c158700baefead522f7797820a0927abad7d0f40bfc7d98666967b6000fc3bb0c35a7209acfcaf502d759580080b25a9af7f0d42bdc5df8060907d6606fa3db6c55c740faafaa9562b7393860e0d23afa9790b44bbc3dd8262927f6404f83fb4c75e760da8f8ab54297191840c0f21adab7b0946b9c1d38c6c9c716a0af631bac9507803a6f6a55a277f9f8a02012fa3a5750748b7cfd18e6e9e736808f433b8cb527a01a4f4a758257d9d8800032da1a777054ab5cdd7886898756e0ef235becd547c07a2f2a15e237b9b8e06052ba7a171034cb3cbd58a6a9a776c0cf037bccf567e05a0f0a35c2179998c040729a5a373014eb1c9db846494796202fe39b2c158700baefead522f7797820a0927abad7d0f40bfc7d98666967b6000fc3bb0c35a7209acfcaf502d759580080b25a9af7f0d42bdc5df8060907d6606fa3db6c55c740faafaa9562b7393860e0d23afa9790b44bbc3dd8262927f6404f83fb4c75e760da8f8ab54297191840c0f21adab7b0946b9c1d38c6c9c716a0af631bac9507803a6f6a55a277f9f8a02012fa3a5750748b7cfd18e6e9e736808f433b8cb527a01a4f4a758257d9d8800032da1a777054ab5cdd7886898756e0ef235becd547c07a2f2a15e237b9b8e06052ba7a171034cb3cbd58a6a9a776c0cf037bccf567e05a0f0a35c2179998c040729a5a373014eb1c9db846494796202fe39b2c158700baefead522f7797820a0927abad7d0f40bfc7d98666967b6000fc3bb0c35a7209acfcaf502d759580080b25a9af7f0d42bdc5df8060907d6606fa3db6c55c740faafaa9562b7393860e0d23afa9790b44bbc3dd8262927f6404f83fb4c75e760da8f8ab54297191840c0f21adab7b0946b9c1d38c6c9c716a0af631bac9507803a6f6aed42a483ef279a16b58cde88278a12a25e9bafe66e41fa19ba18e2c11e0d6fd7",
        "hex": "6a20e0bb9f4593f292cfecef157fbb769aec093e29b66f98e5fa00e1d7801821db064db004b846494796202fe39b2c158700baefead522f7797820a0927abad7d0f40bfc7d98666967b6000fc3bb0c35a7209acfcaf502d759580080b25a9af7f0d42bdc5df8060907d6606fa3db6c55c740faafaa9562b7393860e0d23afa9790b44bbc3dd8262927f6404f83fb4c75e760da8f8ab54297191840c0f21adab7b0946b9c1d38c6c9c716a0af631bac9507803a6f6a55a277f9f8a02012fa3a5750748b7cfd18e6e9e736808f433b8cb527a01a4f4a758257d9d8800032da1a777054ab5cdd7886898756e0ef235becd547c07a2f2a15e237b9b8e06052ba7a171034cb3cbd58a6a9a776c0cf037bccf567e05a0f0a35c2179998c040729a5a373014eb1c9db846494796202fe39b2c158700baefead522f7797820a0927abad7d0f40bfc7d98666967b6000fc3bb0c35a7209acfcaf502d759580080b25a9af7f0d42bdc5df8060907d6606fa3db6c55c740faafaa9562b7393860e0d23afa9790b44bbc3dd8262927f6404f83fb4c75e760da8f8ab54297191840c0f21adab7b0946b9c1d38c6c9c716a0af631bac9507803a6f6a55a277f9f8a02012fa3a5750748b7cfd18e6e9e736808f433b8cb527a01a4f4a758257d9d8800032da1a777054ab5cdd7886898756e0ef235becd547c07a2f2a15e237b9b8e06052ba7a171034cb3cbd58a6a9a776c0cf037bccf567e05a0f0a35c2179998c040729a5a373014eb1c9db846494796202fe39b2c158700baefead522f7797820a0927abad7d0f40bfc7d98666967b6000fc3bb0c35a7209acfcaf502d759580080b25a9af7f0d42bdc5df8060907d6606fa3db6c55c740faafaa9562b7393860e0d23afa9790b44bbc3dd8262927f6404f83fb4c75e760da8f8ab54297191840c0f21adab7b0946b9c1d38c6c9c716a0af631bac9507803a6f6a55a277f9f8a02012fa3a5750748b7cfd18e6e9e736808f433b8cb527a01a4f4a758257d9d8800032da1a777054ab5cdd7886898756e0ef235becd547c07a2f2a15e237b9b8e06052ba7a171034cb3cbd58a6a9a776c0cf037bccf567e05a0f0a35c2179998c040729a5a373014eb1c9db846494796202fe39b2c158700baefead522f7797820a0927abad7d0f40bfc7d98666967b6000fc3bb0c35a7209acfcaf502d759580080b25a9af7f0d42bdc5df8060907d6606fa3db6c55c740faafaa9562b7393860e0d23afa9790b44bbc3dd8262927f6404f83fb4c75e760da8f8ab54297191840c0f21adab7b0946b9c1d38c6c9c716a0af631bac9507803a6f6a55a277f9f8a02012fa3a5750748b7cfd18e6e9e736808f433b8cb527a01a4f4a758257d9d8800032da1a777054ab5cdd7886898756e0ef235becd547c07a2f2a15e237b9b8e06052ba7a171034cb3cbd58a6a9a776c0cf037bccf567e05a0f0a35c2179998c040729a5a373014eb1c9db846494796202fe39b2c158700baefead522f7797820a0927abad7d0f40bfc7d98666967b6000fc3bb0c35a7209acfcaf502d759580080b25a9af7f0d42bdc5df8060907d6606fa3db6c55c740faafaa9562b7393860e0d23afa9790b44bbc3dd8262927f6404f83fb4c75e760da8f8ab54297191840c0f21adab7b0946b9c1d38c6c9c716a0af631bac9507803a6f6aed42a483ef279a16b58cde88278a12a25e9bafe66e41fa19ba18e2c11e0d6fd7",
        "type": "nulldata"
      }
    }
  ],
  "blockhash": "a9a7ce638639648c5b111e15e0d4489535a11a846f6b50fba3b7e2925471654c",
  "confirmations": 1,
  "time": 1764182153,
  "blocktime": 1764182153
}