{
  "hex": "01000000000101d83fab75ddc81a44ce3884d40b64cb36ecddc78dd083e81ba651d53b3b85d6570100000000feffffff0260cda5ea782d0000225120f14c69d714c04742c3cc3eacba62b50e46ec0b1f9adf89d6b1c04018330f582900e1f50500000000fdd5046a2099bb825fee8c70e9a92a041abc7d46c5b941d27cc5c826e2edef5872567178dd4db0049514503e61d298fa0de2534676e4921f2ff8c05f9cd1f3ef90801c6116491f83b534701e41f2b8da2dc2736656c4b23f0fd8e07fbcf1d3cfb0a03c4136693fa3d554107e2192d8ba4da2130636a4d25f6fb8801fdc91b3afd0c05c2156095fc3f574305e01b2f89a6d8233261684f27f4f98a03ffcb1938ff0e07c0176297fe31594d0bee152187a8d62d3c6f664129faf7840df1c51736f10009ce196c99f0335b4f09ec172385aad42f3e6d64432bf8f5860ff3c71534f3020bcc1b6e9bf2355d490fea112583acd229386b62452dfef38009f5c11332f5040dca1d689df4375f4b0de8132781aed02b3a6960472ffcf1820bf7c31130f7060fc81f6a9ff639514503e61d298fa0de2534676e4921f2ff8c05f9cd1f3ef90801c6116491f83b534701e41f2b8da2dc2736656c4b23f0fd8e07fbcf1d3cfb0a03c4136693fa3d554107e2192d8ba4da2130636a4d25f6fb8801fdc91b3afd0c05c2156095fc3f574305e01b2f89a6d8233261684f27f4f98a03ffcb1938ff0e07c0176297fe31594d0bee152187a8d62d3c6f664129faf7840df1c51736f10009ce196c99f0335b4f09ec172385aad42f3e6d64432bf8f5860ff3c71534f3020bcc1b6e9bf2355d490fea112583acd229386b62452dfef38009f5c11332f5040dca1d689df4375f4b0de8132781aed02b3a6960472ffcf1820bf7c31130f7060fc81f6a9ff639514503e61d298fa0de2534676e4921f2ff8c05f9cd1f3ef90801c6116491f83b534701e41f2b8da2dc2736656c4b23f0fd8e07fbcf1d3cfb0a03c4136693fa3d554107e2192d8ba4da2130636a4d25f6fb8801fdc91b3afd0c05c2156095fc3f574305e01b2f89a6d8233261684f27f4f98a03ffcb1938ff0e07c0176297fe31594d0bee152187a8d62d3c6f664129faf7840df1c51736f10009ce196c99f0335b4f09ec172385aad42f3e6d64432bf8f5860ff3c71534f3020bcc1b6e9bf2355d490fea112583acd229386b62452dfef38009f5c11332f5040dca1d689df4375f4b0de8132781aed02b3a6960472ffcf1820bf7c31130f7060fc81f6a9ff639514503e61d298fa0de2534676e4921f2ff8c05f9cd1f3ef90801c6116491f83b534701e41f2b8da2dc2736656c4b23f0fd8e07fbcf1d3cfb0a03c4136693fa3d554107e2192d8ba4da2130636a4d25f6fb8801fdc91b3afd0c05c2156095fc3f574305e01b2f89a6d8233261684f27f4f98a03ffcb1938ff0e07c0176297fe31594d0bee152187a8d62d3c6f664129faf7840df1c51736f10009ce196c99f0335b4f09ec172385aad42f3e6d64432bf8f5860ff3c71534f3020bcc1b6e9bf2355d490fea112583acd229386b62452dfef38009f5c11332f5040dca1d689df4375f4b0de8132781aed02b3a6960472ffcf1820bf7c31130f7060fc81f6a9ff639514503e61d298fa0de2534676e4921f2ff8c05f9cd1f3ef90801c6116491f83b534701e41f2b8da2dc2736656c4b23f0fd8e07fbcf1d3cfb0a03c4136693fa3d554107e2192d8ba4da2130636a4d25f6fb8801fdc91b3afd0c05c2156095fc3f574305e01b2f89a6d8233261684f27f4f98a03ffcb1938ff0e07c0176297fe31594d0bee152187a8d62d3c6f664129fb3977291b08d2906f190aa8d5dbf38adeb01e14928ccc4c48527c541a5b5ed1e02fd75099c22871c3938aee8cc812d4b73797728e8fda6d1e60f308eb0429c624a9d77733754fa8253e87de1c904eb92f1071f18579ac5f8e6f6a74c4823cfa6a3fb91b5d460c853cdbcb369581248c6c8d86cb0ef842366dbf95b5e0697f2f51843166ddf1ab1cea1f3c7834115c5ffc9b22db50ff953a95589b0ce5854a2b311820d4c5c3c659a6296640dd317b581a5df9936a35880ac9d4c57f82bc584634fec85ffb9cd60a622c29b421e04267827b40044ca070dd5bc48c5e0c6dd46cf17c28dbd79a99140d1fe757c921fb2fcd770fba7cee661537cd93f4432e2969b8d009e9731af335b8eb056f7c4942bb4506ca98b0c89f7b8ad8f90f14615196bfb291710c548d498153018e6808b3af1d0ada4d9f0f936d965cdbb037286c3c3f77b08efecb1e016b478ef1d6f49397a659266cc7712cd794ade5a7f4e1d30e77bb67af314888459e350cfc438e7a3ce21ef1734377f004eead9ead8460c261849066889b13671a15f36335191caa74ffb0f6f01ce254cdd0aea312f78eb9e9e752f7d7268c6d30410c6d4698b9929953bec753c3e2e8a77192696958eead9f5d03c758d7dcb14241334988955bd37f0fdd5883be01e932cba68136487b719667a5993288a61fdd66b9cd015ae79eb5cad6c89ce801179a498b28a86c77b2e5de2c9c7344c4646d278b4c754b49869b76f6530cb219f1fb197675cbf6536c841da418209accb03cc974b35265a7df33474dcac11813e716e41645e38a1aa433cff7cc8e299ca6b76546e6e09b4db980a331fc8ae9b2cbb840b40d2e7c9c85d1c760a2b8985f61d252a8b9794f7590f2bdf0d06eb4998845ac6cf8e2c4319ecdf3520c68a4df2c4f7f7b2b37c295cc1d1c50bb95fa9ebe5e3202ce319da133466be936cf4ed3c2743ebd7d7f7a6eb1cf35ba8b22ebf8f43b2c45a05d2e280feca7dc8f5387607eb2608d4ffa3442389ccfd14855c0fb369e89668737266cf806ca9f045993baa388f01be8019b0bada995874cc47d7f14f7c27ba50921198eb8fdce6257672116ded1c2bfd9d63f307dafe096231f1067b57896fab3020d87e32dba1b75037f0803a6bac0e9ca7f9f0aaa6c99d56c0b48f80c8dc26da314cc0d108da6ca3d54135d08bfc4db8360f5a34f998997a4edbad7579d838c27a60661d112d1a96d3454bdfd3f5f040111dc77f279bdd41f13f9428eb15117a5019566a89327f1b627fffddfc050f88b7aa45bf410f538551ad8bdc17f8bc0dcf96087d5bbdea224ae8efb106a9a945b71e968b3e9f451bfbd48a37f8726c521410566965f96c47c07cc4ad643559a26dc85663deced1ef6772c6756c5989098dfbbe5975aaaa89407de8dc8e7b08e3d0e78a5ecfeed367161ff4259b655177d0acd30f02eac9bec5199871c225f06778896122c0069fa53f6e54ca5b7aa10fb9e3eaabc01f40fe8fe514df0d44ae28e56171439bde733e0912891baebab713f063f817538016aed57a043b2bc61871377595d467ceae8a19563b2ec7b454f6dab2382babfa69d1e7b6fd9e88fd61d6a6414a3e7c8f73a47c590a81072d06d5bc6d95e4ddac20e215572d602a4f38d99df0577ad5561cc507307f472cf9400223a0db59877d3f1a31815aec780967836a0fc3573c8929cf4999a62b5e09bfbdd27278e385d98f6a028f98aa8ea507a06a63a09d4796106129a637a97b1519ced94a25ec72a0673acc1a84bbb8b6b5d2c9bb5e8abf9853ddcc31c45fc6dc51bcce4460d7b3b91f17a0ff0002e05d91351b1b7751218763d11f143e52d46ead0f1463c4194e2be2c31cdd631f40f325f1310eb49e7a41d1ce135e383ac4320a7d21c12294b068346d8a3b0a2c7762850a8c607f3674b17cd592663414f5f83d5fca0ba5c975516ea3a7ce72c247f6dc95472d13e2a427f1772704409e283f9965ad0c66301d7cb7b8946d25eddbcac1824d52af9df173b58d705185915eb55652c0994ddb10933b357c4efb2b4612b7a25be2aabcf21e8bc370839540c12921b20bfaabe9c6000185512253f0e4c107ca2e51aceb41e3e507814c94720edb51cba1061c960af02e60d5355d663286c2679b546d61aa1b93067aa108d2e77f7301e77a76bfa1a889a0e683230fd8d130b4a3fceff1e798e2a84e39130194b1335db6e215b57b3939e28554eb1c3597e4152a5c07995209c9c6f6054828d3e1cdacba5ad51c05369b74beedae0391f4e6bcb1dcd5eb4300720a19e1256c19bff3d0e745c72862dd2c94c014eea25a15887379a0e79e4bc072c7743d61db90bab745399f0bba8f4ed9672d152012d0ebc2b06fe4b923ff1715fa58191fa00e8ace20fec6dac212dbc8d2d1324c38cd5345126b464b9d9578bb5ccb14fdba83e459a6d8dafccb5f6230917df26ba26c58c1b98d8e5e97013bf31665fe4b3b3ea479150a631509623ce134665f5f0dddc060271055f42083a05585d940e9481dbde7da3c606b88223326a4a3e3b578901a18f69eef1c34296594af7c38f86d5b375a23b1d6dd218aa7a723a44e9edd0c3a8843cd1994a3f778e8b47465c2d57f9335e60a1bf1f77468acaa3a9e085a019611a5b26f75b1a7bbec014610f9dffc93a52af93a36fb325b0a8480cc9948da2b7e90a0cb122354495b0963da56d9cb11548a9310a1f42be66140988a48e1f29a8049ceff536e7c9251fd2f472a85e788542eb88d1a9245d818d515ea7c779c713a6510684f9a44d809475b0127390679e9843548600be902a5a52b96cf3bb1c9ae559d12b306f78c04632fff78231dd3c66025c5673f3e260e1b82d716b2c957392d3b8310a3d2f4e7a25e3aab7461664ea1538e544912b5aecc7f491c26cf38cd81c7c0340c40715d34da4f8730f756383a3e62893b5f5dd4f534a13aa16a331c65b5f611f265a59a29155b521df165a7cbc02ddf2659d2126cf650667ae902b60c2f0777c14e23da796d41ccffb9bc639c43fd20a786266def16aaa9e4cc211f61c836696ec25cad11021ca0ee6cc41757e9eb1f3897da7a8d4ab04a068849009b3bfb36cc1de093dfa86a9f32eb52dbd424144ec0a4248e1c833d1f5939cae62b0afd535dbbaf3d8ff3e04a34d677862f2fc8787d1331c27d5c25f2e5eca3912bd80670896e7aa001fd5c280b51c7f1467db0852e8fec6a1f56b9085835c8529cda209479c7d62b78e35702c1dd00e110164a6b79bbecafcb3b0455ece318523fc779d1a40d831ef38e95ad5e36228f66f63dc1c32770c444491f26fd673b82522cbd8519d401ccc28cc8122ae1bb56ae972f96980a3fa9310620242c4e5c608189959c9ea7abb5c1ced2e0e507080939497aa0bcc5ccf70b0d0f1a262a2b3a5d8da2abafbbddedf00c0f192661749698a1b7cfd2d3d9e70000000000000000000000000000000000141f303f01fd2105006b6a9f8b3b3742d2534583da511d5baa3dc9e92370460f5bee6ae32b765592ba8163ccf8b98dc13c82bf1140adf8bc6639480697338952eb5a4c1d97159e0ac346936c10bc85c4d1f72bff782a7b57189a87cc89de9fe424d14a426e9788e8e76a539507b92a00ed007f16b383323300501d43056f32f41f270d6994c7626206c386ffb7092b88302ce0afa54aaec63d4a2534037a8ff9ee8d01593eb47aa51742419c6ca2a2a482d833bb67fc83c44c96453d8856705b8f605d4a95f3300df705454124a6a7907146773672aa3c734e819eb7e5ca782b805510c2228e430cb4fca730994db728bad3e600feb6af595789db68fc22f5d13af320f53d7e9fb8175fc90f5032f9d6d81de83da47ffe41a33339d328c717867a759b8e5e2e4b7a874f08d18a38aa026bb20c44bd8271adf06af129a32cbf0343ece91c40ddac8f8c28b5342f4af926bce304fef9b74b75eff9f722389ecbf9dbd1bbc841f2bee0cdcfdb0b1be61962719b60a952c492b5381997ebd04f06363caa5f17e0b899cd02b618e5c2326595b905b1a858e30076785136b27f50b08ec8033de6b2e6dd1c18ddacd655e8fcf2d6cca429b1cd3b91fcd39e48c04d8163bf5d0500e16f35a54ba0d4625269a3a8ffef95cdb1aaf48848181677a261b63eee4ac6bbc862fa17932ec0ba14b14587118ff6683490a375e46b19484d18e826489c63d55925714ae1b4347d387c7e7ee14b8c85d5ffb6d169eca74c7deb763728accdb1b74d6f9c40303d8866da1568138868c2846ac6d001dd66113a43e13d4a3166e2301172be7ed99d72378afa7bebe7a73375cf4fb64ae27bb6c0e1bbd4918217eb00baa9d0eb772097b8e797f82b509af5b984998a5f48071c036c49a0c6d704fe5c256b99a34ed44c288f5d6732ed8ba28353b632cf6086c92b3eaa72301d10f71abb169872a755f9e13cd44f4ebd91e6e6f81af768791e25339da2773c299a72be6db36dcf21280c461286f3655e59028c57a23c58c483101d2c95a7509d6b5654ef20ce0df23df079748a27a9c812b4cd58cae8572350df62a82c069b944ae8f0f9927fef1c53d23c88911ebdd81310159b6919df33fb21f4b0f965f36b4a4d32d47a97ef4706f3109d43d0239b0b6e3bcb9b63718764302731592f92ac29c6fdf6fb17666512ac540dd69b9562744d802772adfc9113b048f0abc4a845de164b6a535f86a27c709be6bc42fd5ab8bf4f413661a8b8543db397612cf627921793b675e83b2df5a3405dc03f02ec23e13ef17a0915fc70726685fee28053ad4566a11d68c7b6371694bf67f121002fc6ac1dabe94a3b1134bf230f9ada9019b03d7cb77dfcd75be49efc58be8e236773b843d486592c33af58858cbd70fc804b0ebbe93cde8d5c8ea8d5455f9f28ed7173851d5810d1b4d67f9571d39347238b0858deac3030e2822a17b84f06865ff0be6c4fd5a10f612b89600da2103bf3a5cd9c1d20a06f7b4ac63455638e2bc5463bd79b6e92704af91e4ccb94ea02a29270a10a485ad8a3393e58e0f5eebff12a7d01ab0883a541e1f38d400b891bfddc08ac261b3498877da93d409c2a19a2bcaa3a16b4829284ce1f8621ecd81972f72d13ccd6b95cfeb3f7efc339dcdcea48e01a95a8dd43cd1155a58267c3b25895fc08b35b11c122f331bc5298270e24a8ed5024ccc4cfaf03c648d57ac7c4fb6ed3d39dfcbe4cf8e7cd17ba7e9f7325c06295c13f90cceecc0b1f2eaaaa95db083f040c2ca5aeb77805588f41bcef4f14bdc1d1d975518348673cd2df9f2189e1ac8eaf721c1e28402a9525ce60f4a6eb12564b41452a32530a4718ac3770bc96c6ebfe07137c000000",
  "txid": "efb64d2ec4ef65e333afc0dcfd1abc0dcfce73aec414a7823cf7bc977ca3fd6b",
  "hash": "fceaad9920f4d638e4a0a5b34f56120d0776e9b3901e6bc5b97834fed69df0a7",
  "size": 5085,
  "vsize": 2278,
  "version": 1,
  "locktime": 124,
  "vin": [
    {
      "txid": "57d6853b3bd551a61be883d08dc7ddec36cb640bd48438ce441ac8dd75ab3fd8",
      "vout": 1,
      "scriptSig": {
        "asm": "",
        "hex": ""
      },
      "txinwitness": [
        "9c22871c3938aee8cc812d4b73797728e8fda6d1e60f308eb0429c624a9d77733754fa8253e87de1c904eb92f1071f18579ac5f8e6f6a74c4823cfa6a3fb91b5d460c853cdbcb369581248c6c8d86cb0ef842366dbf95b5e0697f2f51843166ddf1ab1cea1f3c7834115c5ffc9b22db50ff953a95589b0ce5854a2b311820d4c5c3c659a6296640dd317b581a5df9936a35880ac9d4c57f82bc584634fec85ffb9cd60a622c29b421e04267827b40044ca070dd5bc48c5e0c6dd46cf17c28dbd79a99140d1fe757c921fb2fcd770fba7cee661537cd93f4432e2969b8d009e9731af335b8eb056f7c4942bb4506ca98b0c89f7b8ad8f90f14615196bfb291710c548d498153018e6808b3af1d0ada4d9f0f936d965cdbb037286c3c3f77b08efecb1e016b478ef1d6f49397a659266cc7712cd794ade5a7f4e1d30e77bb67af314888459e350cfc438e7a3ce21ef1734377f004eead9ead8460c261849066889b13671a15f36335191caa74ffb0f6f01ce254cdd0aea312f78eb9e9e752f7d7268c6d30410c6d4698b9929953bec753c3e2e8a77192696958eead9f5d03c758d7dcb14241334988955bd37f0fdd5883be01e932cba68136487b719667a5993288a61fdd66b9cd015ae79eb5cad6c89ce801179a498b28a86c77b2e5de2c9c7344c4646d278b4c754b49869b76f6530cb219f1fb197675cbf6536c841da418209accb03cc974b35265a7df33474dcac11813e716e41645e38a1aa433cff7cc8e299ca6b76546e6e09b4db980a331fc8ae9b2cbb840b40d2e7c9c85d1c760a2b8985f61d252a8b9794f7590f2bdf0d06eb4998845ac6cf8e2c4319ecdf3520c68a4df2c4f7f7b2b37c295cc1d1c50bb95fa9ebe5e3202ce319da133466be936cf4ed3c2743ebd7d7f7a6eb1cf35ba8b22ebf8f43b2c45a05d2e280feca7dc8f5387607eb2608d4ffa3442389ccfd14855c0fb369e89668737266cf806ca9f045993baa388f01be8019b0bada995874cc47d7f14f7c27ba50921198eb8fdce6257672116ded1c2bfd9d63f307dafe096231f1067b57896fab3020d87e32dba1b75037f0803a6bac0e9ca7f9f0aaa6c99d56c0b48f80c8dc26da314cc0d108da6ca3d54135d08bfc4db8360f5a34f998997a4edbad7579d838c27a60661d112d1a96d3454bdfd3f5f040111dc77f279bdd41f13f9428eb15117a5019566a89327f1b627fffddfc050f88b7aa45bf410f538551ad8bdc17f8bc0dcf96087d5bbdea224ae8efb106a9a945b71e968b3e9f451bfbd48a37f8726c521410566965f96c47c07cc4ad643559a26dc85663deced1ef6772c6756c5989098dfbbe5975aaaa89407de8dc8e7b08e3d0e78a5ecfeed367161ff4259b655177d0acd30f02eac9bec5199871c225f06778896122c0069fa53f6e54ca5b7aa10fb9e3eaabc01f40fe8fe514df0d44ae28e56171439bde733e0912891baebab713f063f817538016aed57a043b2bc61871377595d467ceae8a19563b2ec7b454f6dab2382babfa69d1e7b6fd9e88fd61d6a6414a3e7c8f73a47c590a81072d06d5bc6d95e4ddac20e215572d602a4f38d99df0577ad5561cc507307f472cf9400223a0db59877d3f1a31815aec780967836a0fc3573c8929cf4999a62b5e09bfbdd27278e385d98f6a028f98aa8ea507a06a63a09d4796106129a637a97b1519ced94a25ec72a0673acc1a84bbb8b6b5d2c9bb5e8abf9853ddcc31c45fc6dc51bcce4460d7b3b91f17a0ff0002e05d91351b1b7751218763d11f143e52d46ead0f1463c4194e2be2c31cdd631f40f325f1310eb49e7a41d1ce135e383ac4320a7d21c12294b068346d8a3b0a2c7762850a8c607f3674b17cd592663414f5f83d5fca0ba5c975516ea3a7ce72c247f6dc95472d13e2a427f1772704409e283f9965ad0c66301d7cb7b8946d25eddbcac1824d52af9df173b58d705185915eb55652c0994ddb10933b357c4efb2b4612b7a25be2aabcf21e8bc370839540c12921b20bfaabe9c6000185512253f0e4c107ca2e51aceb41e3e507814c94720edb51cba1061c960af02e60d5355d663286c2679b546d61aa1b93067aa108d2e77f7301e77a76bfa1a889a0e683230fd8d130b4a3fceff1e798e2a84e39130194b1335db6e215b57b3939e28554eb1c3597e4152a5c07995209c9c6f6054828d3e1cdacba5ad51c05369b74beedae0391f4e6bcb1dcd5eb4300720a19e1256c19bff3d0e745c72862dd2c94c014eea25a15887379a0e79e4bc072c7743d61db90bab745399f0bba8f4ed9672d152012d0ebc2b06fe4b923ff1715fa58191fa00e8ace20fec6dac212dbc8d2d1324c38cd5345126b464b9d9578bb5ccb14fdba83e459a6d8dafccb5f6230917df26ba26c58c1b98d8e5e97013bf31665fe4b3b3ea479150a631509623ce134665f5f0dddc060271055f42083a05585d940e9481dbde7da3c606b88223326a4a3e3b578901a18f69eef1c34296594af7c38f86d5b375a23b1d6dd218aa7a723a44e9edd0c3a8843cd1994a3f778e8b47465c2d57f9335e60a1bf1f77468acaa3a9e085a019611a5b26f75b1a7bbec014610f9dffc93a52af93a36fb325b0a8480cc9948da2b7e90a0cb122354495b0963da56d9cb11548a9310a1f42be66140988a48e1f29a8049ceff536e7c9251fd2f472a85e788542eb88d1a9245d818d515ea7c779c713a6510684f9a44d809475b0127390679e9843548600be902a5a52b96cf3bb1c9ae559d12b306f78c04632fff78231dd3c66025c5673f3e260e1b82d716b2c957392d3b8310a3d2f4e7a25e3aab7461664ea1538e544912b5aecc7f491c26cf38cd81c7c0340c40715d34da4f8730f756383a3e62893b5f5dd4f534a13aa16a331c65b5f611f265a59a29155b521df165a7cbc02ddf2659d2126cf650667ae902b60c2f0777c14e23da796d41ccffb9bc639c43fd20a786266def16aaa9e4cc211f61c836696ec25cad11021ca0ee6cc41757e9eb1f3897da7a8d4ab04a068849009b3bfb36cc1de093dfa86a9f32eb52dbd424144ec0a4248e1c833d1f5939cae62b0afd535dbbaf3d8ff3e04a34d677862f2fc8787d1331c27d5c25f2e5eca3912bd80670896e7aa001fd5c280b51c7f1467db0852e8fec6a1f56b9085835c8529cda209479c7d62b78e35702c1dd00e110164a6b79bbecafcb3b0455ece318523fc779d1a40d831ef38e95ad5e36228f66f63dc1c32770c444491f26fd673b82522cbd8519d401ccc28cc8122ae1bb56ae972f96980a3fa9310620242c4e5c608189959c9ea7abb5c1ced2e0e507080939497aa0bcc5ccf70b0d0f1a262a2b3a5d8da2abafbbddedf00c0f192661749698a1b7cfd2d3d9e70000000000000000000000000000000000141f303f01",
        "006b6a9f8b3b3742d2534583da511d5baa3dc9e92370460f5bee6ae32b765592ba8163ccf8b98dc13c82bf1140adf8bc6639480697338952eb5a4c1d97159e0ac346936c10bc85c4d1f72bff782a7b57189a87cc89de9fe424d14a426e9788e8e76a539507b92a00ed007f16b383323300501d43056f32f41f270d6994c7626206c386ffb7092b88302ce0afa54aaec63d4a2534037a8ff9ee8d01593eb47aa51742419c6ca2a2a482d833bb67fc83c44c96453d8856705b8f605d4a95f3300df705454124a6a7907146773672aa3c734e819eb7e5ca782b805510c2228e430cb4fca730994db728bad3e600feb6af595789db68fc22f5d13af320f53d7e9fb8175fc90f5032f9d6d81de83da47ffe41a33339d328c717867a759b8e5e2e4b7a874f08d18a38aa026bb20c44bd8271adf06af129a32cbf0343ece91c40ddac8f8c28b5342f4af926bce304fef9b74b75eff9f722389ecbf9dbd1bbc841f2bee0cdcfdb0b1be61962719b60a952c492b5381997ebd04f06363caa5f17e0b899cd02b618e5c2326595b905b1a858e30076785136b27f50b08ec8033de6b2e6dd1c18ddacd655e8fcf2d6cca429b1cd3b91fcd39e48c04d8163bf5d0500e16f35a54ba0d4625269a3a8ffef95cdb1aaf48848181677a261b63eee4ac6bbc862fa17932ec0ba14b14587118ff6683490a375e46b19484d18e826489c63d55925714ae1b4347d387c7e7ee14b8c85d5ffb6d169eca74c7deb763728accdb1b74d6f9c40303d8866da1568138868c2846ac6d001dd66113a43e13d4a3166e2301172be7ed99d72378afa7bebe7a73375cf4fb64ae27bb6c0e1bbd4918217eb00baa9d0eb772097b8e797f82b509af5b984998a5f48071c036c49a0c6d704fe5c256b99a34ed44c288f5d6732ed8ba28353b632cf6086c92b3eaa72301d10f71abb169872a755f9e13cd44f4ebd91e6e6f81af768791e25339da2773c299a72be6db36dcf21280c461286f3655e59028c57a23c58c483101d2c95a7509d6b5654ef20ce0df23df079748a27a9c812b4cd58cae8572350df62a82c069b944ae8f0f9927fef1c53d23c88911ebdd81310159b6919df33fb21f4b0f965f36b4a4d32d47a97ef4706f3109d43d0239b0b6e3bcb9b63718764302731592f92ac29c6fdf6fb17666512ac540dd69b9562744d802772adfc9113b048f0abc4a845de164b6a535f86a27c709be6bc42fd5ab8bf4f413661a8b8543db397612cf627921793b675e83b2df5a3405dc03f02ec23e13ef17a0915fc70726685fee28053ad4566a11d68c7b6371694bf67f121002fc6ac1dabe94a3b1134bf230f9ada9019b03d7cb77dfcd75be49efc58be8e236773b843d486592c33af58858cbd70fc804b0ebbe93cde8d5c8ea8d5455f9f28ed7173851d5810d1b4d67f9571d39347238b0858deac3030e2822a17b84f06865ff0be6c4fd5a10f612b89600da2103bf3a5cd9c1d20a06f7b4ac63455638e2bc5463bd79b6e92704af91e4ccb94ea02a29270a10a485ad8a3393e58e0f5eebff12a7d01ab0883a541e1f38d400b891bfddc08ac261b3498877da93d409c2a19a2bcaa3a16b4829284ce1f8621ecd81972f72d13ccd6b95cfeb3f7efc339dcdcea48e01a95a8dd43cd1155a58267c3b25895fc08b35b11c122f331bc5298270e24a8ed5024ccc4cfaf03c648d57ac7c4fb6ed3d39dfcbe4cf8e7cd17ba7e9f7325c06295c13f90cceecc0b1f2eaaaa95db083f040c2ca5aeb77805588f41bcef4f14bdc1d1d975518348673cd2df9f2189e1ac8eaf721c1e28402a9525ce60f4a6eb12564b41452a32530a4718ac3770bc96c6ebfe0713"
      ],
      "sequence": 4294967294
    }
  ],
  "vout": [
    {
      "value": 499973.5606,
      "n": 0,
      "scriptPubKey": {
        "asm": "1 f14c69d714c04742c3cc3eacba62b50e46ec0b1f9adf89d6b1c04018330f5829",
        "hex": "5120f14c69d714c04742c3cc3eacba62b50e46ec0b1f9adf89d6b1c04018330f5829",
        "reqSigs": 1,
        "type": "witness_v1_scripthash",
        "addresses": [
          "3QJmnh"
        ]
      }
    },
    {
      "value": 1.0,
      "n": 1,
      "scriptPubKey": {
        "asm": "OP_RETURN 99bb825fee8c70e9a92a041abc7d46c5b941d27cc5c826e2edef5872567178dd 9514503e61d298fa0de2534676e4921f2ff8c05f9cd1f3ef90801c6116491f83b534701e41f2b8da2dc2736656c4b23f0fd8e07fbcf1d3cfb0a03c4136693fa3d554107e2192d8ba4da2130636a4d25f6fb8801fdc91b3afd0c05c2156095fc3f574305e01b2f89a6d8233261684f27f4f98a03ffcb1938ff0e07c0176297fe31594d0bee152187a8d62d3c6f664129faf7840df1c51736f10009ce196c99f0335b4f09ec172385aad42f3e6d64432bf8f5860ff3c71534f3020bcc1b6e9bf2355d490fea112583acd229386b62452dfef38009f5c11332f5040dca1d689df4375f4b0de8132781aed02b3a6960472ffcf1820bf7c31130f7060fc81f6a9ff639514503e61d298fa0de2534676e4921f2ff8c05f9cd1f3ef90801c6116491f83b534701e41f2b8da2dc2736656c4b23f0fd8e07fbcf1d3cfb0a03c4136693fa3d554107e2192d8ba4da2130636a4d25f6fb8801fdc91b3afd0c05c2156095fc3f574305e01b2f89a6d8233261684f27f4f98a03ffcb1938ff0e07c0176297fe31594d0bee152187a8d62d3c6f664129faf7840df1c51736f10009ce196c99f0335b4f09ec172385aad42f3e6d64432bf8f5860ff3c71534f3020bcc1b6e9bf2355d490fea112583acd229386b62452dfef38009f5c11332f5040dca1d689df4375f4b0de8132781aed02b3a6960472ffcf1820bf7c31130f7060fc81f6a9ff639514503e61d298fa0de2534676e4921f2ff8c05f9cd1f3ef90801c6116491f83b534701e41f2b8da2dc2736656c4b23f0fd8e07fbcf1d3cfb0a03c4136693fa3d554107e2192d8ba4da2130636a4d25f6fb8801fdc91b3afd0c05c2156095fc3f574305e01b2f89a6d8233261684f27f4f98a03ffcb1938ff0e07c0176297fe31594d0bee152187a8d62d3c6f664129faf7840df1c51736f10009ce196c99f0335b4f09ec172385aad42f3e6d64432bf8f5860ff3c71534f3020bcc1b6e9bf2355d490fea112583acd229386b62452dfef38009f5c11332f5040dca1d689df4375f4b0de8132781aed02b3a6960472ffcf1820bf7c31130f7060fc81f6a9ff639514503e61d298fa0de2534676e4921f2ff8c05f9cd1f3ef90801c6116491f83b534701e41f2b8da2dc2736656c4b23f0fd8e07fbcf1d3cfb0a03c4136693fa3d554107e2192d8ba4da2130636a4d25f6fb8801fdc91b3afd0c05c2156095fc3f574305e01b2f89a6d8233261684f27f4f98a03ffcb1938ff0e07c0176297fe31594d0bee152187a8d62d3c6f664129faf7840df1c51736f10009ce196c99f0335b4f09ec172385aad42f3e6d64432bf8f5860ff3c71534f3020bcc1b6e9bf2355d490fea112583acd229386b62452dfef38009f5c11332f5040dca1d689df4375f4b0de8132781aed02b3a6960472ffcf1820bf7c31130f7060fc81f6a9ff639514503e61d298fa0de2534676e4921f2ff8c05f9cd1f3ef90801c6116491f83b534701e41f2b8da2dc2736656c4b23f0fd8e07fbcf1d3cfb0a03c4136693fa3d554107e2192d8ba4da2130636a4d25f6fb8801fdc91b3afd0c05c2156095fc3f574305e01b2f89a6d8233261684f27f4f98a03ffcb1938ff0e07c0176297fe31594d0bee152187a8d62d3c6f664129fb3977291b08d2906f190aa8d5dbf38adeb01e14928ccc4c48527c541a5b5ed1e",
        "hex": "6a2099bb825fee8c70e9a92a041abc7d46c5b941d27cc5c826e2edef5872567178dd4db0049514503e61d298fa0de2534676e4921f2ff8c05f9cd1f3ef90801c6116491f83b534701e41f2b8da2dc2736656c4b23f0fd8e07fbcf1d3cfb0a03c4136693fa3d554107e2192d8ba4da2130636a4d25f6fb8801fdc91b3afd0c05c2156095fc3f574305e01b2f89a6d8233261684f27f4f98a03ffcb1938ff0e07c0176297fe31594d0bee152187a8d62d3c6f664129faf7840df1c51736f10009ce196c99f0335b4f09ec172385aad42f3e6d64432bf8f5860ff3c71534f3020bcc1b6e9bf2355d490fea112583acd229386b62452dfef38009f5c11332f5040dca1d689df4375f4b0de8132781aed02b3a6960472ffcf1820bf7c31130f7060fc81f6a9ff639514503e61d298fa0de2534676e4921f2ff8c05f9cd1f3ef90801c6116491f83b534701e41f2b8da2dc2736656c4b23f0fd8e07fbcf1d3cfb0a03c4136693fa3d554107e2192d8ba4da2130636a4d25f6fb8801fdc91b3afd0c05c2156095fc3f574305e01b2f89a6d8233261684f27f4f98a03ffcb1938ff0e07c0176297fe31594d0bee152187a8d62d3c6f664129faf7840df1c51736f10009ce196c99f0335b4f09ec172385aad42f3e6d64432bf8f5860ff3c71534f3020bcc1b6e9bf2355d490fea112583acd229386b62452dfef38009f5c11332f5040dca1d689df4375f4b0de8132781aed02b3a6960472ffcf1820bf7c31130f7060fc81f6a9ff639514503e61d298fa0de2534676e4921f2ff8c05f9cd1f3ef90801c6116491f83b534701e41f2b8da2dc2736656c4b23f0fd8e07fbcf1d3cfb0a03c4136693fa3d554107e2192d8ba4da2130636a4d25f6fb8801fdc91b3afd0c05c2156095fc3f574305e01b2f89a6d8233261684f27f4f98a03ffcb1938ff0e07c0176297fe31594d0bee152187a8d62d3c6f664129faf7840df1c51736f10009ce196c99f0335b4f09ec172385aad42f3e6d64432bf8f5860ff3c71534f3020bcc1b6e9bf2355d490fea112583acd229386b62452dfef38009f5c11332f5040dca1d689df4375f4b0de8132781aed02b3a6960472ffcf1820bf7c31130f7060fc81f6a9ff639514503e61d298fa0de2534676e4921f2ff8c05f9cd1f3ef90801c6116491f83b534701e41f2b8da2dc2736656c4b23f0fd8e07fbcf1d3cfb0a03c4136693fa3d554107e2192d8ba4da2130636a4d25f6fb8801fdc91b3afd0c05c2156095fc3f574305e01b2f89a6d8233261684f27f4f98a03ffcb1938ff0e07c0176297fe31594d0bee152187a8d62d3c6f664129faf7840df1c51736f10009ce196c99f0335b4f09ec172385aad42f3e6d64432bf8f5860ff3c71534f3020bcc1b6e9bf2355d490fea112583acd229386b62452dfef38009f5c11332f5040dca1d689df4375f4b0de8132781aed02b3a6960472ffcf1820bf7c31130f7060fc81f6a9ff639514503e61d298fa0de2534676e4921f2ff8c05f9cd1f3ef90801c6116491f83b534701e41f2b8da2dc2736656c4b23f0fd8e07fbcf1d3cfb0a03c4136693fa3d554107e2192d8ba4da2130636a4d25f6fb8801fdc91b3afd0c05c2156095fc3f574305e01b2f89a6d8233261684f27f4f98a03ffcb1938ff0e07c0176297fe31594d0bee152187a8d62d3c6f664129fb3977291b08d2906f190aa8d5dbf38adeb01e14928ccc4c48527c541a5b5ed1e",
        "type": "nulldata"
      }
    }
  ],
  "blockhash": "fe93069f37b49cfb15542a42b300d4e9dc573fdbbe6c5d081907ef62d551896a",
  "confirmations": 1,
  "time": 1764180962,
  "blocktime": 1764180962
}