{
  "hex": "01000000000101d5746e1fcbc10db42d313f9f5e2cc6859c6e53ce10e973d5b6410075037d95680100000000feffffff0200e1f50500000000fdd5046a205c5f0e161dead7e9655bd9881b33c9ce5f7b96aee53b27e74d1275bc09cf9c384db0047bced2572108a51c893ed923e67b57fc370553e08c707a49e2ffa100e9a2903d5beef2770128853ca91ef903c65b77dc172573c0ac505a69c2df8120c982b01d3b8e92176148e55cc97e9963a63b17bc774513a0cc303a09a2bfe140a9e2d07d1baeb2374168c57ce95eb943861b379c57653380ec101a29829fc16089c2f05dfb4e52d7a188259c09be59a366fbd77cb785d3600cf0fac9627f2180692210bddb6e72f781a805bc299e798346dbf75c97a5f3402cd0dae9425f01a04902309dbb0e1297e1c865dc49fe19e326bb973cf7c593204cb0ba89223f61c0296250fd9b2e32b7c1e845fc69de39c3069bb71cd7e5b3006c909aa9021f41e0094270dd7bced2572108a51c893ed923e67b57fc370553e08c707a49e2ffa100e9a2903d5beef2770128853ca91ef903c65b77dc172573c0ac505a69c2df8120c982b01d3b8e92176148e55cc97e9963a63b17bc774513a0cc303a09a2bfe140a9e2d07d1baeb2374168c57ce95eb943861b379c57653380ec101a29829fc16089c2f05dfb4e52d7a188259c09be59a366fbd77cb785d3600cf0fac9627f2180692210bddb6e72f781a805bc299e798346dbf75c97a5f3402cd0dae9425f01a04902309dbb0e1297e1c865dc49fe19e326bb973cf7c593204cb0ba89223f61c0296250fd9b2e32b7c1e845fc69de39c3069bb71cd7e5b3006c909aa9021f41e0094270dd7bced2572108a51c893ed923e67b57fc370553e08c707a49e2ffa100e9a2903d5beef2770128853ca91ef903c65b77dc172573c0ac505a69c2df8120c982b01d3b8e92176148e55cc97e9963a63b17bc774513a0cc303a09a2bfe140a9e2d07d1baeb2374168c57ce95eb943861b379c57653380ec101a29829fc16089c2f05dfb4e52d7a188259c09be59a366fbd77cb785d3600cf0fac9627f2180692210bddb6e72f781a805bc299e798346dbf75c97a5f3402cd0dae9425f01a04902309dbb0e1297e1c865dc49fe19e326bb973cf7c593204cb0ba89223f61c0296250fd9b2e32b7c1e845fc69de39c3069bb71cd7e5b3006c909aa9021f41e0094270dd7bced2572108a51c893ed923e67b57fc370553e08c707a49e2ffa100e9a2903d5beef2770128853ca91ef903c65b77dc172573c0ac505a69c2df8120c982b01d3b8e92176148e55cc97e9963a63b17bc774513a0cc303a09a2bfe140a9e2d07d1baeb2374168c57ce95eb943861b379c57653380ec101a29829fc16089c2f05dfb4e52d7a188259c09be59a366fbd77cb785d3600cf0fac9627f2180692210bddb6e72f781a805bc299e798346dbf75c97a5f3402cd0dae9425f01a04902309dbb0e1297e1c865dc49fe19e326bb973cf7c593204cb0ba89223f61c0296250fd9b2e32b7c1e845fc69de39c3069bb71cd7e5b3006c909aa9021f41e0094270dd7bced2572108a51c893ed923e67b57fc370553e08c707a49e2ffa100e9a2903d5beef2770128853ca91ef903c65b77dc172573c0ac505a69c2df8120c982b01d3b8e92176148e55cc97e9963a63b17bc774513a0cc303a09a2bfe140a9e2d07d1baeb2374168c57ce95eb943861b379c57653380ec101a29829fc16089c2f05dfb4e52d7a188259c09be59a366fbd77c7c3faa60d347fac72656bc190ae3583c345e342ae74f324e749eeb2474cb0c99e021231b792d0000225120d7740e9154e48ba20e085b972d0310d4176849a2dcb5adf6cebd2e665e04c92402fd75091883e21f2c6fae2a60cc1581c2648b0e66caa3a1efe5c38474eed9c3b4c7ff5c45eb6c09526c8a04a2cf4045f8b38c181d9c8a6b59824990fa97f9cfa894c3770cb4dd68d8067007a7ffb0bc29f507bd17f1ac0689b6c368894d0a9b87edeafd12e37d04efa04793940f4fd242a4e10139fd7432f8bbbcc4a36f27f9be224ece1350601596f0d1e62ec6c31f8fd3d6f0744564bdbe6c8619b205cf0c0971bc1a230275aeac96850ef053cb73ad452f39b9c339111cae1ec88ebc4d1f2a2e9c8509f2e0989b1806553566c024bd21b88240519b544a9c9221377a32cbef12c9b1695e3b76ed10ee6cc6c67b0c29faf16f48de6f81cdebf8cc3a284a52dc455db42d034d3019d9285a009304159aac93738003d0c5dd9429a3c957cb1bd500e1d658284fe0ac479a54da9b037683ee027f9d6f042f0a1f6c33659a1a0684702f6478b3c34f3c4721ee57093acb3ab873d269955def6f3f53d2bc2a89153ecef71e46647d48e573337830c532fb394ca381f5c6bb470eb5676f9e70eb3e1837a3aad1b2531bd3dd5167a2f617303d3c1f31f530ece95a76b8e37e8aa6c46332ea83a91e0444449b59435a85fbaf380c01091412c098e30402f566226d3bb8f0893427310003d762b75c5833223f7366e7888f312e3ecb24f347ba9c3212ef4d1ffda5c5e677b2928de045549ac2ba8dd4d611d30ac70ef575f751acc41e9e1d394364e6505ec71293d7c8035fd4ba3a4b5e108fe534a940ba858d0d8676ba3e1eb153f5945fcbb9b9ddb408906cae8e153468d830296dc0e8ec178b3665b760c1a0766f9f5cd7aa20a646340bad0199a21d5b58848b5c6a3a3c4223f910cbd8bd788cd6064cc5d68ad3eed2b69e9d4dd2b8a2bce8454f9a612ffe2263f71bee22098924fce0db6df5d0788d552e49320a3ebd20ebc74cee543c794476752b6982bd3b49cfe45f3a89205bb712bc0dc0503966874d60a2849afb0c8c5af22b139e282ac88b3cb6b95290d662c997de31f8f4697f4e70781a793c6ea6101fee1aa518172447b3086672d376edae713f5eb2289f4a7dcac8332c34a62dad0d2a1c4ad6364e78e24352833ae1377440532418147eb98d9d6ef9ef6386fc4d921333aa06e84fa11c152962f827295c2aa13f2a7089acf8c6488303731d03db456c52a43bbfd8da89987b1f90d3b6d3f8aac4a1dd477c32feb4d0f670395e1b6172f8dfa1a6387f3371a1995043cef85b1cacfaa3ab94d4c42658b58afebb2e76604874da5f933d13ac0b90b39fe9fcfb8b717308e67d6291ec2d6fc29f5339a662a9ebafca6084589d30592e8837a8243713c3585751a78c70296a220974edb173aaa5380c0e451ee20b65ad444c104aeb1ce9f316dd889723811ca1dd09db492342a471a47a65d1296aba14b7ef6e109f269b327d92e76fe2d37a04b399233b558e49294378ea27bf51397db60e268ee8dc8c082b29457eade5c9895a4fe9ea56c86a5f727615c564eac554a9e978c1e15b3df9ffdb963486b8931d51f33827fb93ef38bed4c074ecf7000773673c6dcefec002f54aca859a6d8189d6629b65f9883307820b538250cbee02747ebe38fc488d0cf2cce25e3e0aee8fbee2dcdef948351831d02af8e3e7d818882bf691c4e155b034f72edc2a8e5eb2e1c69880fbad817da4b7a3f9b12d69f07f7b92e31c6905aa5610e26296e2b8905c57067d6f97035898450a86898bcae04be2e38dbb95595f6e4301f1826887eed26ad831ad46aa414e6f4db1e3f3b695a5f3492161e334b7a718c436345ba8c36f8f5541c3e3d1e8a70fef87ebc590a48a4773320e8c1a132b6d272b225139bdac8c2e199284b89444dfe55649f3497c5b476e167d5f6d8807a6e4fc7e5f98756ec14c230a9b01b40167a48495292f3b01583dc685133595c19acf309154a40c55fd8c3da10857e123d99b0c4faa9e4d622d960418d19846b3187a4320c792f830fd090a2bcbedd00045f236b61c7754cb19bbef61ee1c499ab3d009b8377f5648e54f6a30766e74a59e174549f3b2346ca4c976941f0d11c2c60a77605ee8c0aa902c9c03e490ce87d4fada020f1c3b762fbc4befac8946525858fbfc639b730effeb8017604b7ed49bd820c92c8d4b1e360f701f75ac44bd39d992f744e61d8f961e4733625067c11692caf388b53954d6a8bbe0ed496af14849c94db725fd41c513e391f88b8a9a240a9570d21202aecf074adc17f274cd519a0d8f51d5a56218c010ca22c7752fb9cfa139fffd65bef832843b5fdad029bbdbd894e840ac50ce3064e4d22cc15420a888742d994e0f959a14b21b50749ec7ccd868626c75b54805981fe39a51e90d85a33c42aa2a54dea0f399408b4289c6e4a299a5fe3a1abd73ad50572b17dc13b7a7a62995c4312d16920197b501bdd1318e86a3a792ab84a3159fb2179ac1b35087e83374accdd513d32ebeaf469c2e00891b3138f3939d1bb106647a819ca1d79ef5b0eb97f08ea1053deed5c2aec821a913262968d4a4483f8ca5d2a43d7b286b125c8f52723f2968c53c175b0e01b519cf70f3c907d0d4927a8157bbc344ed51073566dbcd315d487928e23d1c7c2b55018a1c3fa48931cb4a17f65c0af24c9c3fc919af5c0619fd9a4097c233cf66c0e96880c187fac00994cd2e65338ba3351a6deec30a44a6dad9af5885c8ff760b48338ffbfa8747131f643a05213620ace3981fe72f2b3a6851002abeb43c8cfec70ff826c1896c4910ca651e50808ab6657fe3c91dd21bb41a2c153a945c9153d07036300e93581ba9fceff0063ee596103b50258c275261516025653eb1a385d2f9b18cef55ad94254bf651615b886ec36d621ed8e41b8de6c902e027bf6e9b74aadb297cfa19ce060f19e34dbe5b0c6f5d3487b410d4986bd61a4f973060060e7f74008b464b6c541a4f6fd79a255ac62fe2e2e3b2d0572107492c04683c258b0d7e2347ebacc7868437feef6dea6e1331c160db8b6252786bd112c10caad97ee90ed548e667ba5ffb31ce61dced95c52dbd8849b39ad2930010c664b2a0e12000e28675082a1c1d362bb51a0ebe427a6f2621a4a7f3ab3aa6bfd200b0db7a73882dfb7c357eeef2c1d2a5da9f3e075291bb422bfb6273e9df76b7ed1205a97c267f1fecad38f927a61ff4a2b259ecf3e184ea33765bd9b381ff4d71156ba9258f752cc53ebed19a6a8af47b32449d124c18edbd38b0f9d1a8ddc2503aa8cefa3cf1ee48a44068efdbf56cc29cec7fcfc8685d646051558d57f1d75cc3230bba1cfcd1d4a8e9d49acf7b252a414c4d78797e86a1b0bbcacd090f25374c546677797c838db3b8c9f0f1070c1a3452536c6f7477797b8198a4aaacdae1ee050b0f12131e27446f849096989cb0d9f9000000000000000000000000000d1e324301fd210500bc7da4cc59b3421ab76199c4a47a0dec02b37c111b07357a9d968c57034d355bb7928b5e549b7ef2c5d3d779a1789bff150be8e195604ad035a159900407a2b2a5d455aee906a47129988c823e4940a307567489b303dd750c41855b7e997678096b955306132e0bebb96a67b50f14e0a7ade81109a80d5690dc193404f55422827960670aa2e1456a0b69e68f1e5f07d55168fbbda31ba97e95e6c298248d46a390b628807863c0cd13e3fb06abaa28bb3bfa69261ea7d89fc94662f771d2d3fc4b029a3d8ae33157f880f2e602fd74e336d40bb4996c2fa351c4f57318fb84fc91ff01f117e063a7e6034e990ed4d3b088e882073db69dc1cd336f3e860ef38a9d67f2456a7d62215b9c14ec68d02fe91d8298749f2d6801c8f0cdb067ee84200110eba1f8032052d412a461a3823fe9d423da35b1051ec4687656af9b698c553a02029526b94f617e3050c4ebd60ed7aee5a44b8476694ace4f38f5e63636df3415f9b3408762b8e6082e83c494b437d76d9e6238d559cefe5be03bfed98dbb3c6943f9daa87e5cf78d1c60b6beea033c9555414e4ab9def5e15647bbe13cf570031a3244d794ddcc89f90aa286f68bdd4c7381906a3aed27d30b441600211bf412fcea05f6650a33dbc9ec9edf680ea8bedf7c8bd65f201b92d8c1dc2697f1207fda5bec42fa6fef9eec1538e7218449674fea78153c523f8f3da322f87b47842ddb0c857437dabc564fe00117dd2c17e8971c3af5963cb8a0f3038171c4a557d7d508c44fdfd5ba7c67656c0003b1572cac1685ff524471f58d53e0993c82ad61a993a3b3ed3cf85ff64b77b66ca24b22a2812a6c163d5e489c7597dba3ff0014433a0aff917bf934aa8c31b43e815262e4fcf7677aaacd861d6f7b9ccbb190883318dfe844dfb197f5e8d69350496e2097ccd23e2822150d0e2b98f33ea14fc8421c0c84ee67b542269479b252a204fd74d84c9d55275dbf476746b7569ec48af9de6086d37e4e89532655a97daf4d4d7859746820bce98b86548f3eefa34eca844f9357a42dda68dddcb803c95e2032d94b53060a44336cba356ae06f9306d0215b9b588b79e150fccfce304fbbea8f6a32fa47b6dba4729bac531fabdf5774a1a4d6e2914821ad0af644565a9feb6b6271f7d0eb82864bd6b10f5ace5929bac7c7cd288b29f4e7958412bbb7200a237f31cdea931d68c16bfc53ef797a32fccdd13d09f8f5c54cf63a79a6faa5eb26104cfa0cf8e560002220afb0d6e0fb339befb18e20ff166048b1585fe8261fa3ca5f1e1fd98fa0a35ed09ac2b618cf454f6a21f6db72c12500577cb8bc1c241d2c67d88d91b02bc9c976130491587030f6b4458639e9262951ad062577d48b7336949db58a6143743ce7dd84650d1e2be12a3947046440f1cfc51d855f639347279240c3af9fb0e667878e6a94f8fd030324cbefe6620c29b459bc6d0c732e3305b40c5896951d5575d97c615d9130dc975507ac311e57cffb7c1f7359c2be3aa557d02ac6b414b691d5f25bfe8d90819d77cc6b043a7a6e9be40a9521fa935b35d267b082ebb637910b79fca2499cf74562f55655854939c6e5547644d52fe42f5c84917faecf091b779b1d05f54acce468de5bcc6419b714215281a9992aa2bcbed86e87fde828d6a181318b47ffd6c9f06fa01e259f7d00b5ed9918be1bf7f535d69dfb00d5324c37bee242aeb68e6015066c5df22bb80796431f25ffc8c24db5f6d7a5a6da85a49a2c1528efc84d0813ec39a0dc45cc58f49891b84594771da94b5f083afde10c8159c2963037f679ffcf43941f0974be0e6a0a77b58aa8da966476c9ca91d7676833c3f774000000",
  "txid": "e120a2ba2cf94f0844c5331d41f666a91538165e381c150078f82326a86db862",
  "hash": "b0f548d5aeba6b29422b621bb0281fa02df969b1c8fb004b827c952f21665cc8",
  "size": 5085,
  "vsize": 2278,
  "version": 1,
  "locktime": 116,
  "vin": [
    {
      "txid": "68957d03750041b6d573e910ce536e9c85c62c5e9f3f312db40dc1cb1f6e74d5",
      "vout": 1,
      "scriptSig": {
        "asm": "",
        "hex": ""
      },
      "txinwitness": [
        "1883e21f2c6fae2a60cc1581c2648b0e66caa3a1efe5c38474eed9c3b4c7ff5c45eb6c09526c8a04a2cf4045f8b38c181d9c8a6b59824990fa97f9cfa894c3770cb4dd68d8067007a7ffb0bc29f507bd17f1ac0689b6c368894d0a9b87edeafd12e37d04efa04793940f4fd242a4e10139fd7432f8bbbcc4a36f27f9be224ece1350601596f0d1e62ec6c31f8fd3d6f0744564bdbe6c8619b205cf0c0971bc1a230275aeac96850ef053cb73ad452f39b9c339111cae1ec88ebc4d1f2a2e9c8509f2e0989b1806553566c024bd21b88240519b544a9c9221377a32cbef12c9b1695e3b76ed10ee6cc6c67b0c29faf16f48de6f81cdebf8cc3a284a52dc455db42d034d3019d9285a009304159aac93738003d0c5dd9429a3c957cb1bd500e1d658284fe0ac479a54da9b037683ee027f9d6f042f0a1f6c33659a1a0684702f6478b3c34f3c4721ee57093acb3ab873d269955def6f3f53d2bc2a89153ecef71e46647d48e573337830c532fb394ca381f5c6bb470eb5676f9e70eb3e1837a3aad1b2531bd3dd5167a2f617303d3c1f31f530ece95a76b8e37e8aa6c46332ea83a91e0444449b59435a85fbaf380c01091412c098e30402f566226d3bb8f0893427310003d762b75c5833223f7366e7888f312e3ecb24f347ba9c3212ef4d1ffda5c5e677b2928de045549ac2ba8dd4d611d30ac70ef575f751acc41e9e1d394364e6505ec71293d7c8035fd4ba3a4b5e108fe534a940ba858d0d8676ba3e1eb153f5945fcbb9b9ddb408906cae8e153468d830296dc0e8ec178b3665b760c1a0766f9f5cd7aa20a646340bad0199a21d5b58848b5c6a3a3c4223f910cbd8bd788cd6064cc5d68ad3eed2b69e9d4dd2b8a2bce8454f9a612ffe2263f71bee22098924fce0db6df5d0788d552e49320a3ebd20ebc74cee543c794476752b6982bd3b49cfe45f3a89205bb712bc0dc0503966874d60a2849afb0c8c5af22b139e282ac88b3cb6b95290d662c997de31f8f4697f4e70781a793c6ea6101fee1aa518172447b3086672d376edae713f5eb2289f4a7dcac8332c34a62dad0d2a1c4ad6364e78e24352833ae1377440532418147eb98d9d6ef9ef6386fc4d921333aa06e84fa11c152962f827295c2aa13f2a7089acf8c6488303731d03db456c52a43bbfd8da89987b1f90d3b6d3f8aac4a1dd477c32feb4d0f670395e1b6172f8dfa1a6387f3371a1995043cef85b1cacfaa3ab94d4c42658b58afebb2e76604874da5f933d13ac0b90b39fe9fcfb8b717308e67d6291ec2d6fc29f5339a662a9ebafca6084589d30592e8837a8243713c3585751a78c70296a220974edb173aaa5380c0e451ee20b65ad444c104aeb1ce9f316dd889723811ca1dd09db492342a471a47a65d1296aba14b7ef6e109f269b327d92e76fe2d37a04b399233b558e49294378ea27bf51397db60e268ee8dc8c082b29457eade5c9895a4fe9ea56c86a5f727615c564eac554a9e978c1e15b3df9ffdb963486b8931d51f33827fb93ef38bed4c074ecf7000773673c6dcefec002f54aca859a6d8189d6629b65f9883307820b538250cbee02747ebe38fc488d0cf2cce25e3e0aee8fbee2dcdef948351831d02af8e3e7d818882bf691c4e155b034f72edc2a8e5eb2e1c69880fbad817da4b7a3f9b12d69f07f7b92e31c6905aa5610e26296e2b8905c57067d6f97035898450a86898bcae04be2e38dbb95595f6e4301f1826887eed26ad831ad46aa414e6f4db1e3f3b695a5f3492161e334b7a718c436345ba8c36f8f5541c3e3d1e8a70fef87ebc590a48a4773320e8c1a132b6d272b225139bdac8c2e199284b89444dfe55649f3497c5b476e167d5f6d8807a6e4fc7e5f98756ec14c230a9b01b40167a48495292f3b01583dc685133595c19acf309154a40c55fd8c3da10857e123d99b0c4faa9e4d622d960418d19846b3187a4320c792f830fd090a2bcbedd00045f236b61c7754cb19bbef61ee1c499ab3d009b8377f5648e54f6a30766e74a59e174549f3b2346ca4c976941f0d11c2c60a77605ee8c0aa902c9c03e490ce87d4fada020f1c3b762fbc4befac8946525858fbfc639b730effeb8017604b7ed49bd820c92c8d4b1e360f701f75ac44bd39d992f744e61d8f961e4733625067c11692caf388b53954d6a8bbe0ed496af14849c94db725fd41c513e391f88b8a9a240a9570d21202aecf074adc17f274cd519a0d8f51d5a56218c010ca22c7752fb9cfa139fffd65bef832843b5fdad029bbdbd894e840ac50ce3064e4d22cc15420a888742d994e0f959a14b21b50749ec7ccd868626c75b54805981fe39a51e90d85a33c42aa2a54dea0f399408b4289c6e4a299a5fe3a1abd73ad50572b17dc13b7a7a62995c4312d16920197b501bdd1318e86a3a792ab84a3159fb2179ac1b35087e83374accdd513d32ebeaf469c2e00891b3138f3939d1bb106647a819ca1d79ef5b0eb97f08ea1053deed5c2aec821a913262968d4a4483f8ca5d2a43d7b286b125c8f52723f2968c53c175b0e01b519cf70f3c907d0d4927a8157bbc344ed51073566dbcd315d487928e23d1c7c2b55018a1c3fa48931cb4a17f65c0af24c9c3fc919af5c0619fd9a4097c233cf66c0e96880c187fac00994cd2e65338ba3351a6deec30a44a6dad9af5885c8ff760b48338ffbfa8747131f643a05213620ace3981fe72f2b3a6851002abeb43c8cfec70ff826c1896c4910ca651e50808ab6657fe3c91dd21bb41a2c153a945c9153d07036300e93581ba9fceff0063ee596103b50258c275261516025653eb1a385d2f9b18cef55ad94254bf651615b886ec36d621ed8e41b8de6c902e027bf6e9b74aadb297cfa19ce060f19e34dbe5b0c6f5d3487b410d4986bd61a4f973060060e7f74008b464b6c541a4f6fd79a255ac62fe2e2e3b2d0572107492c04683c258b0d7e2347ebacc7868437feef6dea6e1331c160db8b6252786bd112c10caad97ee90ed548e667ba5ffb31ce61dced95c52dbd8849b39ad2930010c664b2a0e12000e28675082a1c1d362bb51a0ebe427a6f2621a4a7f3ab3aa6bfd200b0db7a73882dfb7c357eeef2c1d2a5da9f3e075291bb422bfb6273e9df76b7ed1205a97c267f1fecad38f927a61ff4a2b259ecf3e184ea33765bd9b381ff4d71156ba9258f752cc53ebed19a6a8af47b32449d124c18edbd38b0f9d1a8ddc2503aa8cefa3cf1ee48a44068efdbf56cc29cec7fcfc8685d646051558d57f1d75cc3230bba1cfcd1d4a8e9d49acf7b252a414c4d78797e86a1b0bbcacd090f25374c546677797c838db3b8c9f0f1070c1a3452536c6f7477797b8198a4aaacdae1ee050b0f12131e27446f849096989cb0d9f9000000000000000000000000000d1e324301",
        "00bc7da4cc59b3421ab76199c4a47a0dec02b37c111b07357a9d968c57034d355bb7928b5e549b7ef2c5d3d779a1789bff150be8e195604ad035a159900407a2b2a5d455aee906a47129988c823e4940a307567489b303dd750c41855b7e997678096b955306132e0bebb96a67b50f14e0a7ade81109a80d5690dc193404f55422827960670aa2e1456a0b69e68f1e5f07d55168fbbda31ba97e95e6c298248d46a390b628807863c0cd13e3fb06abaa28bb3bfa69261ea7d89fc94662f771d2d3fc4b029a3d8ae33157f880f2e602fd74e336d40bb4996c2fa351c4f57318fb84fc91ff01f117e063a7e6034e990ed4d3b088e882073db69dc1cd336f3e860ef38a9d67f2456a7d62215b9c14ec68d02fe91d8298749f2d6801c8f0cdb067ee84200110eba1f8032052d412a461a3823fe9d423da35b1051ec4687656af9b698c553a02029526b94f617e3050c4ebd60ed7aee5a44b8476694ace4f38f5e63636df3415f9b3408762b8e6082e83c494b437d76d9e6238d559cefe5be03bfed98dbb3c6943f9daa87e5cf78d1c60b6beea033c9555414e4ab9def5e15647bbe13cf570031a3244d794ddcc89f90aa286f68bdd4c7381906a3aed27d30b441600211bf412fcea05f6650a33dbc9ec9edf680ea8bedf7c8bd65f201b92d8c1dc2697f1207fda5bec42fa6fef9eec1538e7218449674fea78153c523f8f3da322f87b47842ddb0c857437dabc564fe00117dd2c17e8971c3af5963cb8a0f3038171c4a557d7d508c44fdfd5ba7c67656c0003b1572cac1685ff524471f58d53e0993c82ad61a993a3b3ed3cf85ff64b77b66ca24b22a2812a6c163d5e489c7597dba3ff0014433a0aff917bf934aa8c31b43e815262e4fcf7677aaacd861d6f7b9ccbb190883318dfe844dfb197f5e8d69350496e2097ccd23e2822150d0e2b98f33ea14fc8421c0c84ee67b542269479b252a204fd74d84c9d55275dbf476746b7569ec48af9de6086d37e4e89532655a97daf4d4d7859746820bce98b86548f3eefa34eca844f9357a42dda68dddcb803c95e2032d94b53060a44336cba356ae06f9306d0215b9b588b79e150fccfce304fbbea8f6a32fa47b6dba4729bac531fabdf5774a1a4d6e2914821ad0af644565a9feb6b6271f7d0eb82864bd6b10f5ace5929bac7c7cd288b29f4e7958412bbb7200a237f31cdea931d68c16bfc53ef797a32fccdd13d09f8f5c54cf63a79a6faa5eb26104cfa0cf8e560002220afb0d6e0fb339befb18e20ff166048b1585fe8261fa3ca5f1e1fd98fa0a35ed09ac2b618cf454f6a21f6db72c12500577cb8bc1c241d2c67d88d91b02bc9c976130491587030f6b4458639e9262951ad062577d48b7336949db58a6143743ce7dd84650d1e2be12a3947046440f1cfc51d855f639347279240c3af9fb0e667878e6a94f8fd030324cbefe6620c29b459bc6d0c732e3305b40c5896951d5575d97c615d9130dc975507ac311e57cffb7c1f7359c2be3aa557d02ac6b414b691d5f25bfe8d90819d77cc6b043a7a6e9be40a9521fa935b35d267b082ebb637910b79fca2499cf74562f55655854939c6e5547644d52fe42f5c84917faecf091b779b1d05f54acce468de5bcc6419b714215281a9992aa2bcbed86e87fde828d6a181318b47ffd6c9f06fa01e259f7d00b5ed9918be1bf7f535d69dfb00d5324c37bee242aeb68e6015066c5df22bb80796431f25ffc8c24db5f6d7a5a6da85a49a2c1528efc84d0813ec39a0dc45cc58f49891b84594771da94b5f083afde10c8159c2963037f679ffcf43941f0974be0e6a0a77b58aa8da966476c9ca91d7676833c3f7"
      ],
      "sequence": 4294967294
    }
  ],
  "vout": [
    {
      "value": 1.0,
      "n": 0,
      "scriptPubKey": {
        "asm": "OP_RETURN 5c5f0e161dead7e9655bd9881b33c9ce5f7b96aee53b27e74d1275bc09cf9c38 7bced2572108a51c893ed923e67b57fc370553e08c707a49e2ffa100e9a2903d5beef2770128853ca91ef903c65b77dc172573c0ac505a69c2df8120c982b01d3b8e92176148e55cc97e9963a63b17bc774513a0cc303a09a2bfe140a9e2d07d1baeb2374168c57ce95eb943861b379c57653380ec101a29829fc16089c2f05dfb4e52d7a188259c09be59a366fbd77cb785d3600cf0fac9627f2180692210bddb6e72f781a805bc299e798346dbf75c97a5f3402cd0dae9425f01a04902309dbb0e1297e1c865dc49fe19e326bb973cf7c593204cb0ba89223f61c0296250fd9b2e32b7c1e845fc69de39c3069bb71cd7e5b3006c909aa9021f41e0094270dd7bced2572108a51c893ed923e67b57fc370553e08c707a49e2ffa100e9a2903d5beef2770128853ca91ef903c65b77dc172573c0ac505a69c2df8120c982b01d3b8e92176148e55cc97e9963a63b17bc774513a0cc303a09a2bfe140a9e2d07d1baeb2374168c57ce95eb943861b379c57653380ec101a29829fc16089c2f05dfb4e52d7a188259c09be59a366fbd77cb785d3600cf0fac9627f2180692210bddb6e72f781a805bc299e798346dbf75c97a5f3402cd0dae9425f01a04902309dbb0e1297e1c865dc49fe19e326bb973cf7c593204cb0ba89223f61c0296250fd9b2e32b7c1e845fc69de39c3069bb71cd7e5b3006c909aa9021f41e0094270dd7bced2572108a51c893ed923e67b57fc370553e08c707a49e2ffa100e9a2903d5beef2770128853ca91ef903c65b77dc172573c0ac505a69c2df8120c982b01d3b8e92176148e55cc97e9963a63b17bc774513a0cc303a09a2bfe140a9e2d07d1baeb2374168c57ce95eb943861b379c57653380ec101a29829fc16089c2f05dfb4e52d7a188259c09be59a366fbd77cb785d3600cf0fac9627f2180692210bddb6e72f781a805bc299e798346dbf75c97a5f3402cd0dae9425f01a04902309dbb0e1297e1c865dc49fe19e326bb973cf7c593204cb0ba89223f61c0296250fd9b2e32b7c1e845fc69de39c3069bb71cd7e5b3006c909aa9021f41e0094270dd7bced2572108a51c893ed923e67b57fc370553e08c707a49e2ffa100e9a2903d5beef2770128853ca91ef903c65b77dc172573c0ac505a69c2df8120c982b01d3b8e92176148e55cc97e9963a63b17bc774513a0cc303a09a2bfe140a9e2d07d1baeb2374168c57ce95eb943861b379c57653380ec101a29829fc16089c2f05dfb4e52d7a188259c09be59a366fbd77cb785d3600cf0fac9627f2180692210bddb6e72f781a805bc299e798346dbf75c97a5f3402cd0dae9425f01a04902309dbb0e1297e1c865dc49fe19e326bb973cf7c593204cb0ba89223f61c0296250fd9b2e32b7c1e845fc69de39c3069bb71cd7e5b3006c909aa9021f41e0094270dd7bced2572108a51c893ed923e67b57fc370553e08c707a49e2ffa100e9a2903d5beef2770128853ca91ef903c65b77dc172573c0ac505a69c2df8120c982b01d3b8e92176148e55cc97e9963a63b17bc774513a0cc303a09a2bfe140a9e2d07d1baeb2374168c57ce95eb943861b379c57653380ec101a29829fc16089c2f05dfb4e52d7a188259c09be59a366fbd77c7c3faa60d347fac72656bc190ae3583c345e342ae74f324e749eeb2474cb0c99",
        "hex": "6a205c5f0e161dead7e9655bd9881b33c9ce5f7b96aee53b27e74d1275bc09cf9c384db0047bced2572108a51c893ed923e67b57fc370553e08c707a49e2ffa100e9a2903d5beef2770128853ca91ef903c65b77dc172573c0ac505a69c2df8120c982b01d3b8e92176148e55cc97e9963a63b17bc774513a0cc303a09a2bfe140a9e2d07d1baeb2374168c57ce95eb943861b379c57653380ec101a29829fc16089c2f05dfb4e52d7a188259c09be59a366fbd77cb785d3600cf0fac9627f2180692210bddb6e72f781a805bc299e798346dbf75c97a5f3402cd0dae9425f01a04902309dbb0e1297e1c865dc49fe19e326bb973cf7c593204cb0ba89223f61c0296250fd9b2e32b7c1e845fc69de39c3069bb71cd7e5b3006c909aa9021f41e0094270dd7bced2572108a51c893ed923e67b57fc370553e08c707a49e2ffa100e9a2903d5beef2770128853ca91ef903c65b77dc172573c0ac505a69c2df8120c982b01d3b8e92176148e55cc97e9963a63b17bc774513a0cc303a09a2bfe140a9e2d07d1baeb2374168c57ce95eb943861b379c57653380ec101a29829fc16089c2f05dfb4e52d7a188259c09be59a366fbd77cb785d3600cf0fac9627f2180692210bddb6e72f781a805bc299e798346dbf75c97a5f3402cd0dae9425f01a04902309dbb0e1297e1c865dc49fe19e326bb973cf7c593204cb0ba89223f61c0296250fd9b2e32b7c1e845fc69de39c3069bb71cd7e5b3006c909aa9021f41e0094270dd7bced2572108a51c893ed923e67b57fc370553e08c707a49e2ffa100e9a2903d5beef2770128853ca91ef903c65b77dc172573c0ac505a69c2df8120c982b01d3b8e92176148e55cc97e9963a63b17bc774513a0cc303a09a2bfe140a9e2d07d1baeb2374168c57ce95eb943861b379c57653380ec101a29829fc16089c2f05dfb4e52d7a188259c09be59a366fbd77cb785d3600cf0fac9627f2180692210bddb6e72f781a805bc299e798346dbf75c97a5f3402cd0dae9425f01a04902309dbb0e1297e1c865dc49fe19e326bb973cf7c593204cb0ba89223f61c0296250fd9b2e32b7c1e845fc69de39c3069bb71cd7e5b3006c909aa9021f41e0094270dd7bced2572108a51c893ed923e67b57fc370553e08c707a49e2ffa100e9a2903d5beef2770128853ca91ef903c65b77dc172573c0ac505a69c2df8120c982b01d3b8e92176148e55cc97e9963a63b17bc774513a0cc303a09a2bfe140a9e2d07d1baeb2374168c57ce95eb943861b379c57653380ec101a29829fc16089c2f05dfb4e52d7a188259c09be59a366fbd77cb785d3600cf0fac9627f2180692210bddb6e72f781a805bc299e798346dbf75c97a5f3402cd0dae9425f01a04902309dbb0e1297e1c865dc49fe19e326bb973cf7c593204cb0ba89223f61c0296250fd9b2e32b7c1e845fc69de39c3069bb71cd7e5b3006c909aa9021f41e0094270dd7bced2572108a51c893ed923e67b57fc370553e08c707a49e2ffa100e9a2903d5beef2770128853ca91ef903c65b77dc172573c0ac505a69c2df8120c982b01d3b8e92176148e55cc97e9963a63b17bc774513a0cc303a09a2bfe140a9e2d07d1baeb2374168c57ce95eb943861b379c57653380ec101a29829fc16089c2f05dfb4e52d7a188259c09be59a366fbd77c7c3faa60d347fac72656bc190ae3583c345e342ae74f324e749eeb2474cb0c99",
        "type": "nulldata"
      }
    },
    {
      "value": 499981.6958,
      "n": 1,
      "scriptPubKey": {
        "asm": "1 d7740e9154e48ba20e085b972d0310d4176849a2dcb5adf6cebd2e665e04c924",
        "hex": "5120d7740e9154e48ba20e085b972d0310d4176849a2dcb5adf6cebd2e665e04c924",
        "reqSigs": 1,
        "type": "witness_v1_scripthash",
        "addresses": [
          "3QJmnh"
        ]
      }
    }
  ],
  "blockhash": "73359bfd0a4582986ffd1e7664419d7a0ef7b090643ab62685454f7a097cd719",
  "confirmations": 1,
  "time": 1764179247,
  "blocktime": 1764179247
}