{
  "hex": "010000000001015480629b57bc6948285bc2638f2c021ce290784b96a3136e0ab1b3190775823b0000000000feffffff026024ab89782d00002251209b969b698ff6805b8af31d9a75f370a9579fb8e23cb6e177c2a3372fa14abfca00e1f50500000000fdd5046a208b7a1b41341e614b849f9a6ade92565e1bae8996ef46e0aa64295e6f0ac26cb24db004efc61d1b36ff4f9e66f603c42c05c4cc203430c173ad466510dd217cb9c0a68ccfe63d3b16df6fbe46d623e40c25e4ec001410e1538d664530fd015c99e086acaf865d5b76bf0fde26b643846c45848c6074708133ed0625509d613cf980e6cc8fa67d7b569f2ffe069663a44c65a4ac405450a113cd260570bd411cd9a0c6ec6f469d9bb67fcf1ee6768344ac85444ca0b4b041f32dc6e5905da1fc3940260c4f66bdbb965fef3ec656a3648ca5646c80949061d30de6c5b07d81dc1960062c2f06dddbf63f8f5ea636c304ecc5040ce0f4f001b36d86a5d01de1bc7900664c0f26fdfbd61faf7e8616e324cce5242cc0d4d021934da685f03dc19c5920466cefc61d1b36ff4f9e66f603c42c05c4cc203430c173ad466510dd217cb9c0a68ccfe63d3b16df6fbe46d623e40c25e4ec001410e1538d664530fd015c99e086acaf865d5b76bf0fde26b643846c45848c6074708133ed0625509d613cf980e6cc8fa67d7b569f2ffe069663a44c65a4ac405450a113cd260570bd411cd9a0c6ec6f469d9bb67fcf1ee6768344ac85444ca0b4b041f32dc6e5905da1fc3940260c4f66bdbb965fef3ec656a3648ca5646c80949061d30de6c5b07d81dc1960062c2f06dddbf63f8f5ea636c304ecc5040ce0f4f001b36d86a5d01de1bc7900664c0f26fdfbd61faf7e8616e324cce5242cc0d4d021934da685f03dc19c5920466cefc61d1b36ff4f9e66f603c42c05c4cc203430c173ad466510dd217cb9c0a68ccfe63d3b16df6fbe46d623e40c25e4ec001410e1538d664530fd015c99e086acaf865d5b76bf0fde26b643846c45848c6074708133ed0625509d613cf980e6cc8fa67d7b569f2ffe069663a44c65a4ac405450a113cd260570bd411cd9a0c6ec6f469d9bb67fcf1ee6768344ac85444ca0b4b041f32dc6e5905da1fc3940260c4f66bdbb965fef3ec656a3648ca5646c80949061d30de6c5b07d81dc1960062c2f06dddbf63f8f5ea636c304ecc5040ce0f4f001b36d86a5d01de1bc7900664c0f26fdfbd61faf7e8616e324cce5242cc0d4d021934da685f03dc19c5920466cefc61d1b36ff4f9e66f603c42c05c4cc203430c173ad466510dd217cb9c0a68ccfe63d3b16df6fbe46d623e40c25e4ec001410e1538d664530fd015c99e086acaf865d5b76bf0fde26b643846c45848c6074708133ed0625509d613cf980e6cc8fa67d7b569f2ffe069663a44c65a4ac405450a113cd260570bd411cd9a0c6ec6f469d9bb67fcf1ee6768344ac85444ca0b4b041f32dc6e5905da1fc3940260c4f66bdbb965fef3ec656a3648ca5646c80949061d30de6c5b07d81dc1960062c2f06dddbf63f8f5ea636c304ecc5040ce0f4f001b36d86a5d01de1bc7900664c0f26fdfbd61faf7e8616e324cce5242cc0d4d021934da685f03dc19c5920466cefc61d1b36ff4f9e66f603c42c05c4cc203430c173ad466510dd217cb9c0a68ccfe63d3b16df6fbe46d623e40c25e4ec001410e1538d664530fd015c99e086acaf865d5b76bf0fde26b643846c45848c6074708133ed0625509d613cf980e6cc8fa67d7b569f2ffe069663a44c65a4ac405450a113cd260570bd411cd9a0c6ec6f469d9bb67fcf1ee6768344ac85444c51a623e07cb490fb2fb1cf23c396e5d18902d608e4887be176cb2226fe96d6a102fd7509ababb09615bab6974fe0e904f12e36c5becdb7687f694688a23d1a8b014c9ba8471632c67f88af577a74b42207ab0b38bc3863058709c2741aa3da22b8dcd0e992d02cbb97736d4cc87371bf966733db7d6a445ceba6e0ba1b8694ee209a7a6b16326ae775efeef7bd80e27b974fa3a20e4b87f4ea9025c1f62c4de839646d1167aa5f7664aebd36052c5c6185bb3247d23de500b9b40939dafb55844a524fac4b69fc279b31d5537329a166efbadadf93417cdd9921bb912b0ebe3f18864adf614b6be5b5b66171a98fc148b9a3ad534172369345d9974922f5d6f48a0d2a14ec0852da1d249a046b638a21774e9ffc51e7d3ef6cc6ecb5d0bb42f6adf776023471ff1003bc0b65f551e532c9a3fc37ed9c619c110a939b6e4e68344d52ee6f6b36c573ec439378972faee0504709820be04210b407d3a032e437a122805667a002dae11518d8ef33d3865613b6623d17d7a02603306ec03d9428f783960a25186a93b269bc5dc48ca6bfab1d93a4a26bd6d957efcfaad9eb7790287a66e85bd06c44ec6bfd00927007f5246185ec1f6f70247181da17ee84a3b843e825b83c1bcb10442aae948e681f14c60c2adbba0d925cd1e9ce846a54932fe318bc863b359981894548df3c6ff745ec118011fd1771cf6e20c1314c82c2f9d518a44b9ad50771a9331600fdf687ba1052ed9d07de0b10c9dac7349b24280c6e76f84a3cf5a582173d1bfc6fe3cd1ae2d8b200e843d54a3852db28dbfbbbccd00cb5b329bb1055001810a955290ed70bf4dece8bc80101c804f9af7437916f9ec95b7fc9a6943dbf8823f3adfdeda5706a6102a0a517f71b496ccf578255d8bedc28afe0560033afd9c91379ab1881a90149b86ba9674f7c73f16a50c6697f7899dbc467d4e11c2f4ae7f15ae5a8f179e58f5a6dbf5d5201274aede3bdecc57c3bdeb9033b3f6e93a6f7f1c648becb6a9661e5901e56c6aed48c1e7309cda7c7aab15bd64b869bd8aa01003125e3ff08c4f8d66b5eb4f64a95a87a5aa466a580598d527de2938c8850bf9ce95d5852c1e5ccb809c600ef4cb09568b6c7b33209de5a295970e430566fc9151a3b098080482011aee9f9d2803ea19193756e81abace1df4d071f42b5771a9821d75f20a2675178d5d3b970c691b85afd718d718492e0e742fb21c16d80041f3a54420ff745f0553c5d4c1cddc2585796285762c0fb5dabd5dfc0c50f6811dcbddabef54a53eb00516f36118c2e4d0e4a8aa05ff4876595df172db8ab540d2f2e5c1f49d60f3d38ff18684aadd99385f306d4bb8868a9d25cfba311a2a35c6236f61e4db3f302f9d37126b324f572e002df4500b6f7f2c1a8fa88fa98a71c6a42d92c5bdf3ab8d4cd514259d15a16c5939c0e23f1cea43ec21e57e6dfb2d46f07c05fc195cad65451e8c3b7be9a5ead8dc1d9c9ae81c63586a91b22e43b08f76a03430479806d29fa5316866c486a17094cb228f9156c46cc3cd8e7c872ca85a6e6b946d8c78c57a8b1626761fcc78bd864ecbbdff4402724f373f74996d4cd9eb5862a76862e563e8d3c3eaf60421dcf72f02192b7fc9a49c650437a60b9b78d334be9218fd4fae69a3a31607c19a041b2ce7229d343aee53808dfc76ad63156c1006e6b8d993bfabda22a4f33f989eebf7b0ab37232d645583e02ed48d44667cf6749ae623f720ffda61f0a3b8c8d7269d3d2f7952c49811d6ce70bfd8f04c727a950f935334a421d6f221784b977f0115fdfe5ee3fd530098f6b6091462179ddd23ea3c7bbdbfddc8b5f1705319d47ddd4f3ea18c459868a45853fcbbf582992f5b2bee7454024ecf135985de188678506df3223416b6586bd4bfcb17e46ce376041211d0284b7e170bc053648ac8723dc0e601e8ffa93ca7abf9af6f84dc01e3e8dfe091bdbbd79f810064641e58195ba05d4dbb87af2a66e153617439b4fa1d1a25c589cd3ed6e1ff70a1a051583ab130a66cf9a9c388ef389afe771226d5bb607809260165765570012ccdc118f4f683d6e5145d4e05ae4dbf0b4bbcd317c0400ff6ca02c9f655b8a0538738a36fcf6e1057fd5f90e363379fd060ef7226122e70573fb62898a3cc97cc284a83453cae6166a7ff529e6f21248e61f90fc1ab7aecaad26e17bf1098c2af9e124cc322d781da21d7cb45e4bcacfa3d938ada22673f37640b5340773a04225433fbb091c890951127d632ddc171e0b63b02e6b75fc7bca805035f2ba8d053536b2e77ea4dafa55ea042e01906debc4850ea00dcc2e6e3a1afaba74c549fdbba80ac3405971b4b793d4a7ad1a9cf5f5c37c2cdd80e613cb0da44982573a13b8d171726652e6336513d7417aa707d866538a81925fa00447bb1216e3e03abbb4999e4f924fec94b4c9e984ae60c673d9933ca8b8f09cfa82cf242db3725adc487bf1065aa13e1bff8d4f52894189ebdfd84889643bd655c38aa48922e1c81a0d21bbf6274bbf61608cbf5b8e0747fbf4f8e3eaa8c57c8dafeb0fd735b70b1c9d4cd490f195e5ea028cf5255338d51a0ca2be25d1d75d19eb9851d0e9311980f7e561b982f3fedecf29ac9205b0621b7493f00b016aa92ec54580be9f78b8e98ef712646a70552f1d6348a433aa3c231771d0e2fdd19df5dab2cc2e106db294d8220f6ad6aa406461437ca8c56dd2bcf7de46610da7ffc447f90206b94acc0b052b8e7500262f4da6e1af93ac6c0b829ab31f77289530dd3536d2b09edcebceaac6aba974d6a75c449d2cbd9aec468af1fa6d02fe49da9c6aa5435e613b524a895893fac67a429e48895754a680ff54e226d68fe4e253666fe67af21bc783a45cbfffb152178171b941527b2f6a9b4197a0972ba5d653557c152287cfba87f45ee283a76380bb50c226125cc070f747a75fc723e2f0b782f60e26b369cf7b4a3af7c48c799d0c9f4b055a2c44c792428ab402808b62b2e873ba363ef11618fe73aeb543517e2a7bf49d437951df40bbe2cd1fd290a0e0e6f8c23ea0dc263b0ad7033c73202be6a7cb6cec552c6d0c9cb4887d8b4254fd5f6dee9a99f309a6d70ad1528a7224f755fbc75b62d518a8d27c9a412e0aa4f5dfb3fce9671155ba510b9a9cdf0ed39bb71210489757a2e89c6d279587280e9559c22a4ae2af985472cf1c0df98dc73275982c890468c5b49ef94b4550b30a5f3a9b0b0789cc6ec24cd41bd7caaa4b33f1a3fa2e882611d808bb86913fe30d23ba38c689442eb5fb733b7722798cd6f84a1e44da40fcc5b74a188ce284607230f1d881c0be6baa0ffc53ae95e995b0dca2a74201451f7b869799afc3c80b0f232c383f657981858b8c949fb3bbe2161922242d3a888aadafb3b5bbc2c5e8f5fe2932353b45496c708b9baaafb3b9d2d7e1f6f800000000000000000000000000000000000008192b3e01fd210500e0a85e9efad6f3170761f605bfccd12a463d795596780b9eae860d8b234c16ebc1020aa90674d46ddca1dfee92fb788aaf3d88e5d9ddf8145f8a68168174a9727c2bf6b1e24e88b9d732b6f48a029dd380a6c512192fe272d64d61eeca514895fe4886e38c4d580d103284854fb963b687ea456a726d3b3dd8b65e1aa5cd6cbcc3bdb74f6831c8e7fce56e3c1d7f5589027d71c7e5933f4c2480d6c8eb0993573c502c86050abe5dfe6bf460c9b6f0a7244199bf76c68fe868e75a9d9129fc2d220008f6a83df2f537287ff8a0917d586dac3fe11a0d3226f5c6de2e899515f1573bc9120ba6b65b06b2750b4cc6cdc37c90b80610357e2524992f8ac5a6227d91036bb7cd8529e5d77509510ab1446dfe3809a4a5bfc65e8b13ef85abb84b235d229c736aeb3df7215aff517cd5c18c420f4fd3133d004170c7571c9e3a50d1089bdf584c94656983296e4ec862bb108ec0b56b563820bb1fa5eaf507f2c103d0039677832fac2b6ecc6362cf072b5afd0f4b5563109272869f695c79811f2abafd66836c71c59fa37f9b8a29da207265f221f21a255ba5d6f60859377babe39fc6ef26e8f1d740ed33c0489ba8bc7c542f10800bbbab9d57e442d85d3846d31644bf4a1e22d64507ec689edf04e97f681f66ba462f01276b7d5829883629680ea0e0f571f910ed15007eb64afd844c3e180da4baa06428f1e52f0c2c538f1ed1f7794f1b5eeef29fd04ce2af616bbeb0a69693174656a05bee55a2455d205aae60eb0504eeba700d1d9f3df7a565d32b4f19c222215d7503c6c7f99f2ca69ad37088e00b377ec030bc5d04f5badff464ac70e83f97cfd454b3974aa8b6aafa8a1bd36922efa63fdfe7e6de3b75381e8a833fa94a61bcf3cf674ef03bda33e22a014721b2243cdda1b122fc46fdb7d1a9fa84edb13593d0d84d1044acc10eb6a57b8c72d36ec0e4c00c68974cc7b78c6f04c11ee5cd33e666ebcfe09b5fc66bf9648fbb9e891e1b3dd370bb75f811ccb7e87180e95ffd545f1ed6f86d83277479aea4412a1560c607ed4e8b47e41f51ae0c7e6d56c4e1f005140231fac1349d71d2cac5f8a4141b13933c7f4739bf964d9a35fd1d3123b378699b15f95a2a16421106d74f381425e7afce86d752de09c96899f4fb0f1de4e7a13e79b66d0835f09534578f986eb317bf1085d1e5a3de9e80591334f33b2274e6218bbff57b04d60d4c1858374244ceb1a0709e3ea94b62bc4aee8207149d144f37e3f5ca11d783ef37f1b1c7e714072e26ff35ee32d449256ee956abc8c92491b2d5ca207b50b099c192439da2d567c1bc6065114e9be342a2488dec7d6a6567c8a16c1771198a7ff3685dce8e19ccb340493f45fdef792e8b8f06d897519b480f710befc3b0b3689ae0f0fb37119207e392d692b5c0e099cf4b0344934a72cec5bc199232b1f6ec315351f136ec3a1a0b18be75fb62478171a42af920a08113b46fdb9c59c8e88f8b693cd6b936706c9567674f1f3a9b0ee706881f2ec979a3aceb4f16401c7b5ff9af42b319953d86c59d08bb367c7a30ea3b8fc0af8db8c792a4d0175f87efd96d8ef91f1c8cb1a3c40a47588e8275e8ab7b80753792bcc997596cfde46d70f549f488180561546bca0376313ff0f9b71420ee6c93d20a7b37c67fb6b9e80cad4f1abf33436c38625b32ec6f5e0259a7192408d026d39d2720d6abd14f447ee54e761171e5082d5af5adeaba3b17480a1a2d2c18edeb251065c1f9ed39a966287f6123eb2766f5f7e04357c7b04d3cacef7c077e8252d76d4b5549153c11754f63af978411c60126275f08f43433d9536fb5cd7d82890c690494beb382868b000000",
  "txid": "ef37fae83215523deb281eaa443b25aa0783aed704de1ba49bb4b2ae43748a29",
  "hash": "16fb2940a056def3710d99ce74010b6afd0e1b4c58da7a7b468eff094ce26c01",
  "size": 5085,
  "vsize": 2278,
  "version": 1,
  "locktime": 139,
  "vin": [
    {
      "txid": "3b82750719b3b10a6e13a3964b7890e21c022c8f63c25b284869bc579b628054",
      "vout": 0,
      "scriptSig": {
        "asm": "",
        "hex": ""
      },
      "txinwitness": [
        "ababb09615bab6974fe0e904f12e36c5becdb7687f694688a23d1a8b014c9ba8471632c67f88af577a74b42207ab0b38bc3863058709c2741aa3da22b8dcd0e992d02cbb97736d4cc87371bf966733db7d6a445ceba6e0ba1b8694ee209a7a6b16326ae775efeef7bd80e27b974fa3a20e4b87f4ea9025c1f62c4de839646d1167aa5f7664aebd36052c5c6185bb3247d23de500b9b40939dafb55844a524fac4b69fc279b31d5537329a166efbadadf93417cdd9921bb912b0ebe3f18864adf614b6be5b5b66171a98fc148b9a3ad534172369345d9974922f5d6f48a0d2a14ec0852da1d249a046b638a21774e9ffc51e7d3ef6cc6ecb5d0bb42f6adf776023471ff1003bc0b65f551e532c9a3fc37ed9c619c110a939b6e4e68344d52ee6f6b36c573ec439378972faee0504709820be04210b407d3a032e437a122805667a002dae11518d8ef33d3865613b6623d17d7a02603306ec03d9428f783960a25186a93b269bc5dc48ca6bfab1d93a4a26bd6d957efcfaad9eb7790287a66e85bd06c44ec6bfd00927007f5246185ec1f6f70247181da17ee84a3b843e825b83c1bcb10442aae948e681f14c60c2adbba0d925cd1e9ce846a54932fe318bc863b359981894548df3c6ff745ec118011fd1771cf6e20c1314c82c2f9d518a44b9ad50771a9331600fdf687ba1052ed9d07de0b10c9dac7349b24280c6e76f84a3cf5a582173d1bfc6fe3cd1ae2d8b200e843d54a3852db28dbfbbbccd00cb5b329bb1055001810a955290ed70bf4dece8bc80101c804f9af7437916f9ec95b7fc9a6943dbf8823f3adfdeda5706a6102a0a517f71b496ccf578255d8bedc28afe0560033afd9c91379ab1881a90149b86ba9674f7c73f16a50c6697f7899dbc467d4e11c2f4ae7f15ae5a8f179e58f5a6dbf5d5201274aede3bdecc57c3bdeb9033b3f6e93a6f7f1c648becb6a9661e5901e56c6aed48c1e7309cda7c7aab15bd64b869bd8aa01003125e3ff08c4f8d66b5eb4f64a95a87a5aa466a580598d527de2938c8850bf9ce95d5852c1e5ccb809c600ef4cb09568b6c7b33209de5a295970e430566fc9151a3b098080482011aee9f9d2803ea19193756e81abace1df4d071f42b5771a9821d75f20a2675178d5d3b970c691b85afd718d718492e0e742fb21c16d80041f3a54420ff745f0553c5d4c1cddc2585796285762c0fb5dabd5dfc0c50f6811dcbddabef54a53eb00516f36118c2e4d0e4a8aa05ff4876595df172db8ab540d2f2e5c1f49d60f3d38ff18684aadd99385f306d4bb8868a9d25cfba311a2a35c6236f61e4db3f302f9d37126b324f572e002df4500b6f7f2c1a8fa88fa98a71c6a42d92c5bdf3ab8d4cd514259d15a16c5939c0e23f1cea43ec21e57e6dfb2d46f07c05fc195cad65451e8c3b7be9a5ead8dc1d9c9ae81c63586a91b22e43b08f76a03430479806d29fa5316866c486a17094cb228f9156c46cc3cd8e7c872ca85a6e6b946d8c78c57a8b1626761fcc78bd864ecbbdff4402724f373f74996d4cd9eb5862a76862e563e8d3c3eaf60421dcf72f02192b7fc9a49c650437a60b9b78d334be9218fd4fae69a3a31607c19a041b2ce7229d343aee53808dfc76ad63156c1006e6b8d993bfabda22a4f33f989eebf7b0ab37232d645583e02ed48d44667cf6749ae623f720ffda61f0a3b8c8d7269d3d2f7952c49811d6ce70bfd8f04c727a950f935334a421d6f221784b977f0115fdfe5ee3fd530098f6b6091462179ddd23ea3c7bbdbfddc8b5f1705319d47ddd4f3ea18c459868a45853fcbbf582992f5b2bee7454024ecf135985de188678506df3223416b6586bd4bfcb17e46ce376041211d0284b7e170bc053648ac8723dc0e601e8ffa93ca7abf9af6f84dc01e3e8dfe091bdbbd79f810064641e58195ba05d4dbb87af2a66e153617439b4fa1d1a25c589cd3ed6e1ff70a1a051583ab130a66cf9a9c388ef389afe771226d5bb607809260165765570012ccdc118f4f683d6e5145d4e05ae4dbf0b4bbcd317c0400ff6ca02c9f655b8a0538738a36fcf6e1057fd5f90e363379fd060ef7226122e70573fb62898a3cc97cc284a83453cae6166a7ff529e6f21248e61f90fc1ab7aecaad26e17bf1098c2af9e124cc322d781da21d7cb45e4bcacfa3d938ada22673f37640b5340773a04225433fbb091c890951127d632ddc171e0b63b02e6b75fc7bca805035f2ba8d053536b2e77ea4dafa55ea042e01906debc4850ea00dcc2e6e3a1afaba74c549fdbba80ac3405971b4b793d4a7ad1a9cf5f5c37c2cdd80e613cb0da44982573a13b8d171726652e6336513d7417aa707d866538a81925fa00447bb1216e3e03abbb4999e4f924fec94b4c9e984ae60c673d9933ca8b8f09cfa82cf242db3725adc487bf1065aa13e1bff8d4f52894189ebdfd84889643bd655c38aa48922e1c81a0d21bbf6274bbf61608cbf5b8e0747fbf4f8e3eaa8c57c8dafeb0fd735b70b1c9d4cd490f195e5ea028cf5255338d51a0ca2be25d1d75d19eb9851d0e9311980f7e561b982f3fedecf29ac9205b0621b7493f00b016aa92ec54580be9f78b8e98ef712646a70552f1d6348a433aa3c231771d0e2fdd19df5dab2cc2e106db294d8220f6ad6aa406461437ca8c56dd2bcf7de46610da7ffc447f90206b94acc0b052b8e7500262f4da6e1af93ac6c0b829ab31f77289530dd3536d2b09edcebceaac6aba974d6a75c449d2cbd9aec468af1fa6d02fe49da9c6aa5435e613b524a895893fac67a429e48895754a680ff54e226d68fe4e253666fe67af21bc783a45cbfffb152178171b941527b2f6a9b4197a0972ba5d653557c152287cfba87f45ee283a76380bb50c226125cc070f747a75fc723e2f0b782f60e26b369cf7b4a3af7c48c799d0c9f4b055a2c44c792428ab402808b62b2e873ba363ef11618fe73aeb543517e2a7bf49d437951df40bbe2cd1fd290a0e0e6f8c23ea0dc263b0ad7033c73202be6a7cb6cec552c6d0c9cb4887d8b4254fd5f6dee9a99f309a6d70ad1528a7224f755fbc75b62d518a8d27c9a412e0aa4f5dfb3fce9671155ba510b9a9cdf0ed39bb71210489757a2e89c6d279587280e9559c22a4ae2af985472cf1c0df98dc73275982c890468c5b49ef94b4550b30a5f3a9b0b0789cc6ec24cd41bd7caaa4b33f1a3fa2e882611d808bb86913fe30d23ba38c689442eb5fb733b7722798cd6f84a1e44da40fcc5b74a188ce284607230f1d881c0be6baa0ffc53ae95e995b0dca2a74201451f7b869799afc3c80b0f232c383f657981858b8c949fb3bbe2161922242d3a888aadafb3b5bbc2c5e8f5fe2932353b45496c708b9baaafb3b9d2d7e1f6f800000000000000000000000000000000000008192b3e01",
        "00e0a85e9efad6f3170761f605bfccd12a463d795596780b9eae860d8b234c16ebc1020aa90674d46ddca1dfee92fb788aaf3d88e5d9ddf8145f8a68168174a9727c2bf6b1e24e88b9d732b6f48a029dd380a6c512192fe272d64d61eeca514895fe4886e38c4d580d103284854fb963b687ea456a726d3b3dd8b65e1aa5cd6cbcc3bdb74f6831c8e7fce56e3c1d7f5589027d71c7e5933f4c2480d6c8eb0993573c502c86050abe5dfe6bf460c9b6f0a7244199bf76c68fe868e75a9d9129fc2d220008f6a83df2f537287ff8a0917d586dac3fe11a0d3226f5c6de2e899515f1573bc9120ba6b65b06b2750b4cc6cdc37c90b80610357e2524992f8ac5a6227d91036bb7cd8529e5d77509510ab1446dfe3809a4a5bfc65e8b13ef85abb84b235d229c736aeb3df7215aff517cd5c18c420f4fd3133d004170c7571c9e3a50d1089bdf584c94656983296e4ec862bb108ec0b56b563820bb1fa5eaf507f2c103d0039677832fac2b6ecc6362cf072b5afd0f4b5563109272869f695c79811f2abafd66836c71c59fa37f9b8a29da207265f221f21a255ba5d6f60859377babe39fc6ef26e8f1d740ed33c0489ba8bc7c542f10800bbbab9d57e442d85d3846d31644bf4a1e22d64507ec689edf04e97f681f66ba462f01276b7d5829883629680ea0e0f571f910ed15007eb64afd844c3e180da4baa06428f1e52f0c2c538f1ed1f7794f1b5eeef29fd04ce2af616bbeb0a69693174656a05bee55a2455d205aae60eb0504eeba700d1d9f3df7a565d32b4f19c222215d7503c6c7f99f2ca69ad37088e00b377ec030bc5d04f5badff464ac70e83f97cfd454b3974aa8b6aafa8a1bd36922efa63fdfe7e6de3b75381e8a833fa94a61bcf3cf674ef03bda33e22a014721b2243cdda1b122fc46fdb7d1a9fa84edb13593d0d84d1044acc10eb6a57b8c72d36ec0e4c00c68974cc7b78c6f04c11ee5cd33e666ebcfe09b5fc66bf9648fbb9e891e1b3dd370bb75f811ccb7e87180e95ffd545f1ed6f86d83277479aea4412a1560c607ed4e8b47e41f51ae0c7e6d56c4e1f005140231fac1349d71d2cac5f8a4141b13933c7f4739bf964d9a35fd1d3123b378699b15f95a2a16421106d74f381425e7afce86d752de09c96899f4fb0f1de4e7a13e79b66d0835f09534578f986eb317bf1085d1e5a3de9e80591334f33b2274e6218bbff57b04d60d4c1858374244ceb1a0709e3ea94b62bc4aee8207149d144f37e3f5ca11d783ef37f1b1c7e714072e26ff35ee32d449256ee956abc8c92491b2d5ca207b50b099c192439da2d567c1bc6065114e9be342a2488dec7d6a6567c8a16c1771198a7ff3685dce8e19ccb340493f45fdef792e8b8f06d897519b480f710befc3b0b3689ae0f0fb37119207e392d692b5c0e099cf4b0344934a72cec5bc199232b1f6ec315351f136ec3a1a0b18be75fb62478171a42af920a08113b46fdb9c59c8e88f8b693cd6b936706c9567674f1f3a9b0ee706881f2ec979a3aceb4f16401c7b5ff9af42b319953d86c59d08bb367c7a30ea3b8fc0af8db8c792a4d0175f87efd96d8ef91f1c8cb1a3c40a47588e8275e8ab7b80753792bcc997596cfde46d70f549f488180561546bca0376313ff0f9b71420ee6c93d20a7b37c67fb6b9e80cad4f1abf33436c38625b32ec6f5e0259a7192408d026d39d2720d6abd14f447ee54e761171e5082d5af5adeaba3b17480a1a2d2c18edeb251065c1f9ed39a966287f6123eb2766f5f7e04357c7b04d3cacef7c077e8252d76d4b5549153c11754f63af978411c60126275f08f43433d9536fb5cd7d82890c690494beb38286"
      ],
      "sequence": 4294967294
    }
  ],
  "vout": [
    {
      "value": 499957.2902,
      "n": 0,
      "scriptPubKey": {
        "asm": "1 9b969b698ff6805b8af31d9a75f370a9579fb8e23cb6e177c2a3372fa14abfca",
        "hex": "51209b969b698ff6805b8af31d9a75f370a9579fb8e23cb6e177c2a3372fa14abfca",
        "reqSigs": 1,
        "type": "witness_v1_scripthash",
        "addresses": [
          "3QJmnh"
        ]
      }
    },
    {
      "value": 1.0,
      "n": 1,
      "scriptPubKey": {
        "asm": "OP_RETURN 8b7a1b41341e614b849f9a6ade92565e1bae8996ef46e0aa64295e6f0ac26cb2 efc61d1b36ff4f9e66f603c42c05c4cc203430c173ad466510dd217cb9c0a68ccfe63d3b16df6fbe46d623e40c25e4ec001410e1538d664530fd015c99e086acaf865d5b76bf0fde26b643846c45848c6074708133ed0625509d613cf980e6cc8fa67d7b569f2ffe069663a44c65a4ac405450a113cd260570bd411cd9a0c6ec6f469d9bb67fcf1ee6768344ac85444ca0b4b041f32dc6e5905da1fc3940260c4f66bdbb965fef3ec656a3648ca5646c80949061d30de6c5b07d81dc1960062c2f06dddbf63f8f5ea636c304ecc5040ce0f4f001b36d86a5d01de1bc7900664c0f26fdfbd61faf7e8616e324cce5242cc0d4d021934da685f03dc19c5920466cefc61d1b36ff4f9e66f603c42c05c4cc203430c173ad466510dd217cb9c0a68ccfe63d3b16df6fbe46d623e40c25e4ec001410e1538d664530fd015c99e086acaf865d5b76bf0fde26b643846c45848c6074708133ed0625509d613cf980e6cc8fa67d7b569f2ffe069663a44c65a4ac405450a113cd260570bd411cd9a0c6ec6f469d9bb67fcf1ee6768344ac85444ca0b4b041f32dc6e5905da1fc3940260c4f66bdbb965fef3ec656a3648ca5646c80949061d30de6c5b07d81dc1960062c2f06dddbf63f8f5ea636c304ecc5040ce0f4f001b36d86a5d01de1bc7900664c0f26fdfbd61faf7e8616e324cce5242cc0d4d021934da685f03dc19c5920466cefc61d1b36ff4f9e66f603c42c05c4cc203430c173ad466510dd217cb9c0a68ccfe63d3b16df6fbe46d623e40c25e4ec001410e1538d664530fd015c99e086acaf865d5b76bf0fde26b643846c45848c6074708133ed0625509d613cf980e6cc8fa67d7b569f2ffe069663a44c65a4ac405450a113cd260570bd411cd9a0c6ec6f469d9bb67fcf1ee6768344ac85444ca0b4b041f32dc6e5905da1fc3940260c4f66bdbb965fef3ec656a3648ca5646c80949061d30de6c5b07d81dc1960062c2f06dddbf63f8f5ea636c304ecc5040ce0f4f001b36d86a5d01de1bc7900664c0f26fdfbd61faf7e8616e324cce5242cc0d4d021934da685f03dc19c5920466cefc61d1b36ff4f9e66f603c42c05c4cc203430c173ad466510dd217cb9c0a68ccfe63d3b16df6fbe46d623e40c25e4ec001410e1538d664530fd015c99e086acaf865d5b76bf0fde26b643846c45848c6074708133ed0625509d613cf980e6cc8fa67d7b569f2ffe069663a44c65a4ac405450a113cd260570bd411cd9a0c6ec6f469d9bb67fcf1ee6768344ac85444ca0b4b041f32dc6e5905da1fc3940260c4f66bdbb965fef3ec656a3648ca5646c80949061d30de6c5b07d81dc1960062c2f06dddbf63f8f5ea636c304ecc5040ce0f4f001b36d86a5d01de1bc7900664c0f26fdfbd61faf7e8616e324cce5242cc0d4d021934da685f03dc19c5920466cefc61d1b36ff4f9e66f603c42c05c4cc203430c173ad466510dd217cb9c0a68ccfe63d3b16df6fbe46d623e40c25e4ec001410e1538d664530fd015c99e086acaf865d5b76bf0fde26b643846c45848c6074708133ed0625509d613cf980e6cc8fa67d7b569f2ffe069663a44c65a4ac405450a113cd260570bd411cd9a0c6ec6f469d9bb67fcf1ee6768344ac85444c51a623e07cb490fb2fb1cf23c396e5d18902d608e4887be176cb2226fe96d6a1",
        "hex": "6a208b7a1b41341e614b849f9a6ade92565e1bae8996ef46e0aa64295e6f0ac26cb24db004efc61d1b36ff4f9e66f603c42c05c4cc203430c173ad466510dd217cb9c0a68ccfe63d3b16df6fbe46d623e40c25e4ec001410e1538d664530fd015c99e086acaf865d5b76bf0fde26b643846c45848c6074708133ed0625509d613cf980e6cc8fa67d7b569f2ffe069663a44c65a4ac405450a113cd260570bd411cd9a0c6ec6f469d9bb67fcf1ee6768344ac85444ca0b4b041f32dc6e5905da1fc3940260c4f66bdbb965fef3ec656a3648ca5646c80949061d30de6c5b07d81dc1960062c2f06dddbf63f8f5ea636c304ecc5040ce0f4f001b36d86a5d01de1bc7900664c0f26fdfbd61faf7e8616e324cce5242cc0d4d021934da685f03dc19c5920466cefc61d1b36ff4f9e66f603c42c05c4cc203430c173ad466510dd217cb9c0a68ccfe63d3b16df6fbe46d623e40c25e4ec001410e1538d664530fd015c99e086acaf865d5b76bf0fde26b643846c45848c6074708133ed0625509d613cf980e6cc8fa67d7b569f2ffe069663a44c65a4ac405450a113cd260570bd411cd9a0c6ec6f469d9bb67fcf1ee6768344ac85444ca0b4b041f32dc6e5905da1fc3940260c4f66bdbb965fef3ec656a3648ca5646c80949061d30de6c5b07d81dc1960062c2f06dddbf63f8f5ea636c304ecc5040ce0f4f001b36d86a5d01de1bc7900664c0f26fdfbd61faf7e8616e324cce5242cc0d4d021934da685f03dc19c5920466cefc61d1b36ff4f9e66f603c42c05c4cc203430c173ad466510dd217cb9c0a68ccfe63d3b16df6fbe46d623e40c25e4ec001410e1538d664530fd015c99e086acaf865d5b76bf0fde26b643846c45848c6074708133ed0625509d613cf980e6cc8fa67d7b569f2ffe069663a44c65a4ac405450a113cd260570bd411cd9a0c6ec6f469d9bb67fcf1ee6768344ac85444ca0b4b041f32dc6e5905da1fc3940260c4f66bdbb965fef3ec656a3648ca5646c80949061d30de6c5b07d81dc1960062c2f06dddbf63f8f5ea636c304ecc5040ce0f4f001b36d86a5d01de1bc7900664c0f26fdfbd61faf7e8616e324cce5242cc0d4d021934da685f03dc19c5920466cefc61d1b36ff4f9e66f603c42c05c4cc203430c173ad466510dd217cb9c0a68ccfe63d3b16df6fbe46d623e40c25e4ec001410e1538d664530fd015c99e086acaf865d5b76bf0fde26b643846c45848c6074708133ed0625509d613cf980e6cc8fa67d7b569f2ffe069663a44c65a4ac405450a113cd260570bd411cd9a0c6ec6f469d9bb67fcf1ee6768344ac85444ca0b4b041f32dc6e5905da1fc3940260c4f66bdbb965fef3ec656a3648ca5646c80949061d30de6c5b07d81dc1960062c2f06dddbf63f8f5ea636c304ecc5040ce0f4f001b36d86a5d01de1bc7900664c0f26fdfbd61faf7e8616e324cce5242cc0d4d021934da685f03dc19c5920466cefc61d1b36ff4f9e66f603c42c05c4cc203430c173ad466510dd217cb9c0a68ccfe63d3b16df6fbe46d623e40c25e4ec001410e1538d664530fd015c99e086acaf865d5b76bf0fde26b643846c45848c6074708133ed0625509d613cf980e6cc8fa67d7b569f2ffe069663a44c65a4ac405450a113cd260570bd411cd9a0c6ec6f469d9bb67fcf1ee6768344ac85444c51a623e07cb490fb2fb1cf23c396e5d18902d608e4887be176cb2226fe96d6a1",
        "type": "nulldata"
      }
    }
  ],
  "blockhash": "39d4bea9c9c25d41b43db6cdde5dd715e5d3be3597965cba0de2d48951f8c4e3",
  "confirmations": 1,
  "time": 1764183939,
  "blocktime": 1764183939
}