{
  "hex": "010000000001014e35483cc5123ee0e78eef30b71c3ce1b71b6d9af99a7d50ac620f216b1f7c370100000000feffffff02c075fe6f792d0000225120ea130eeb0c18182135f7be79d192c82fa83c33834c1b5f188d0a6218a1282f4c00e1f50500000000fdd5046a20884fdc64690d5b066a23263c3b6f83d7046219157e51aa0a4b73622657da4e174db0044e55689b12b82eb33d2c4e45ddf0ca03f2b06016a7474616d8b9af52cbf9d3dd6e7548bb32980e931d0c6e65fdd0ea23d290403687676636f8998f72ebd9f3fd0e1528db52f86ef37d6c0e059db08a43b2f02056e707065698f9ef128bb9939d2e3508fb72d84ed35d4c2e25bd90aa6392d00076c7272676b8d9cf32ab99b3bdced5e81b9238ae33bdaccec55d704a837230e09627c7c69658392fd24b79535deef5c83bb2188e139d8ceee57d506aa35210c0b607e7e6b678190ff26b59737d8e95a85bd278ee73fdec8e851d300ac33270a0d6678786d618796f920b39131daeb5887bf258ce53ddccaea53d102ae3125080f647a7a6f638594fb22b19333d4e55689b12b82eb33d2c4e45ddf0ca03f2b06016a7474616d8b9af52cbf9d3dd6e7548bb32980e931d0c6e65fdd0ea23d290403687676636f8998f72ebd9f3fd0e1528db52f86ef37d6c0e059db08a43b2f02056e707065698f9ef128bb9939d2e3508fb72d84ed35d4c2e25bd90aa6392d00076c7272676b8d9cf32ab99b3bdced5e81b9238ae33bdaccec55d704a837230e09627c7c69658392fd24b79535deef5c83bb2188e139d8ceee57d506aa35210c0b607e7e6b678190ff26b59737d8e95a85bd278ee73fdec8e851d300ac33270a0d6678786d618796f920b39131daeb5887bf258ce53ddccaea53d102ae3125080f647a7a6f638594fb22b19333d4e55689b12b82eb33d2c4e45ddf0ca03f2b06016a7474616d8b9af52cbf9d3dd6e7548bb32980e931d0c6e65fdd0ea23d290403687676636f8998f72ebd9f3fd0e1528db52f86ef37d6c0e059db08a43b2f02056e707065698f9ef128bb9939d2e3508fb72d84ed35d4c2e25bd90aa6392d00076c7272676b8d9cf32ab99b3bdced5e81b9238ae33bdaccec55d704a837230e09627c7c69658392fd24b79535deef5c83bb2188e139d8ceee57d506aa35210c0b607e7e6b678190ff26b59737d8e95a85bd278ee73fdec8e851d300ac33270a0d6678786d618796f920b39131daeb5887bf258ce53ddccaea53d102ae3125080f647a7a6f638594fb22b19333d4e55689b12b82eb33d2c4e45ddf0ca03f2b06016a7474616d8b9af52cbf9d3dd6e7548bb32980e931d0c6e65fdd0ea23d290403687676636f8998f72ebd9f3fd0e1528db52f86ef37d6c0e059db08a43b2f02056e707065698f9ef128bb9939d2e3508fb72d84ed35d4c2e25bd90aa6392d00076c7272676b8d9cf32ab99b3bdced5e81b9238ae33bdaccec55d704a837230e09627c7c69658392fd24b79535deef5c83bb2188e139d8ceee57d506aa35210c0b607e7e6b678190ff26b59737d8e95a85bd278ee73fdec8e851d300ac33270a0d6678786d618796f920b39131daeb5887bf258ce53ddccaea53d102ae3125080f647a7a6f638594fb22b19333d4e55689b12b82eb33d2c4e45ddf0ca03f2b06016a7474616d8b9af52cbf9d3dd6e7548bb32980e931d0c6e65fdd0ea23d290403687676636f8998f72ebd9f3fd0e1528db52f86ef37d6c0e059db08a43b2f02056e707065698f9ef128bb9939d2e3508fb72d84ed35d4c2e25bd90aa6392d00076c7272676b8d9cf32ab99b3bdced5e81b9238ae33bdaccec55d704a83a04cbdbb93b92db252e49f48e881d35eb734fb691717830891878364cdbf786702fd75096a1f5f1115ebcb9aca7c23004b2ce5ac3c36c5245859f712b448972ee2ee478ce3946f9801352bf595db520fc9f74f2e7bd6d1cfd9ba411b36f352bc922cfd397533ef299af432efa7559bb2226f2340fcfaacb6568398fa65d9f07bec0decc38d6335bd0dd6e38534d4b8f32a2f2aa6433a7ab150d808c6248f155d4999eab7ae895a30f43c050561069b5c40083d1fe6f0f8a2c620b319b9cd047453b61afe1d2c22a2667eff9648775503fe81bd97283f08047bfac1797752e16fe9d27682b33e428a07c6c5aea07a1049daf15c2764c16c0696435d29d126108a0c63bce000a80637d4ea5235aea0d663ff36f72d89fecea84c024312b9bad0bbed6ab881d3a034f2921f2c8d196e124b3f8b8c765d967033963111ebc71f6c8182ec90df4c211b7d07301840c17c58cb4c5769266cee0e9a1fb493af4ffd9af18915a884c836625ebc573ddb80ec13f29722e45667069d16a725362f94b3ff48a373fc908bc643a99adfdaafe3aadce9ff4a4aecba5b785b4c27d91952e78d46af30f7796d8efcaff8a4ab63158f2674f6c4361546fa2c5a75729222329ef24c936bdccb3167994f4c164ecbcfa1a81eb1270cf2d76689ac846679ae148d85d1a1a9926a9f167e5e9fd1959c6ed3ab0a4f99492bbfe654100abf7dc761b254741d9117a2d4fdf47f1a23a272da14328ccafccf38c977b7a3d8af2e063c0bf4f48426ee78ecaf4768465f630922c4dbd3155190fc36894664bf15923bd7eac55f6c8eecc20ba767b1b20ff939dab5d18a46e589965fd52629ff845c0868364326f22fd8c75035a33a3a72a17dd0adf9f9f0dcd3c2c4c166910d1607d5fe108c113a6c2c7637e3c15ff8eb6a832286bbb5e1706ffc8eeeb51f4d1ef631286743dda005926a60520e0cf2f44a00fb81155bb8c22020db137a99b7dab8497ed9ed4c436cf2ac5f1816d101a4d272eabd2761e11e4b6cf3fa5d50874d7bbc22db7d42c38871c0d7d18d2fc977b2726ae50047783972dcaabf4efeb36736c426107999cfff259bf28b62f8fbdc6beadd14eed67f854339ebf321b9d94abe75b5d1f01414d5d4e91cf057dd9c27efd45498066d2d433b284c210e78ee4184523517fd124a8c55637c7b042d3784013d966de1829eb8fd958f5360e02ca3e54cb500abe9d228eb02821e1fffc2b33e86255aaf7c10071e5ed6c64d3aeb1b0760e673b07613d1939aed53ed01465d62862acd431da9df315866c04544f9687e3aeceddc8832d9794002efbb6aeed6f8afb36667962df5c394384cff3b0872a395e7ddc696bf452b6733316e04376ddf36b043c1440549f820d3d9df5daf372a848488f2df6dbf848b06779abc13d95b7e6a79ab5f2cfbfade7689c7876d47eda87362f71138ec83ce12fe121f454c33215bd8a0104536ff0f69e6a6caae7c0745567dde5f0a9f0cc402dac5dd836e29463f55a79a332b0be24ea8b894b7bfe9dbfb27a59507e7034aa72abfa3770384a9c5c1907150cf09da69da3cc9710d0dbd1fe801a880c03d3008cdf5cf229f719b659dac684920b90cfcc2f0b3809a42171634e942a5c33dfbf898653c4f0ece9c9d94ea0c4f0bf6324439ccc748e04b2c945be59469cbd6114ad9af535298cf87dd2e0989282e930234f9e8152604257bb14e8297cbb9bdedecf6df054f07bc115dff28d3674d23ddae24990497aef67ccbc47b9894a8ab8aabf27009fc94117dfb1c3a1e2b335a92cab21dd08bf5835851b0e5a87f4e39011a03220ca96f3f1b78aa28e6a10b34badf3e2bcae450d2f714fc04a7e550563896b1952b8a93cb240812f022ab65133e2159e1c7ee909702c2144af464ed80de600a78d7b0e5efb7f1eaf729b7c7ac47989d8afb55de75a1fd91ff73ab8193fb2ec24c546a81663d68ea533422a1daa35d1f67207337ab80672e06ea90789b1ed2d78164d9cbc862c06f0a748762a83b7aba454d4ad7232753fe6e8fcd81ad5b44b5124bb833c03e6036d4d2e8724523e40d2051beef263c6244ea0e79d2a662ac517f52e1ef3623507852e8c271d3894cd61b9b5934883a04283c57edb0f162e39c299c28f385cc786a14930388abe1ea3efd835ad91b28e926b818a7bb429fdc2f792c82385c3efec309389a0fad145b24065f4aeb598abd4a10846401033b50fe1f9e959312ec7dfc53849d4c01450ee70a6540555985a9b1b5484cf9708bd0dc8920577d62c3056f7aa78f4309b34a8cab57493b67972696e69e2a097e25e3bd2ccaab8ad898e4991405cb6dc26541094a782db0c5fdef1f3e51df28fc1272ae3f006b02557a9c651ddf66594fceb9eb5ae7f13be5b4c7e806e35c31c610cd92f7ac4ec6c7958dd5a604b27aefb5259a4aba5c8734433802a233d10279f480e226f843a0168d2fedfd5513aac44ccb786f504f9faa5d327d80fc9d3b967f52a10d87fa01aacaf49cca91369ca413c3f54fbf8c128e2cbab1b6011b33af1b77fab7cd1db039ef863601a72f64d61ee8ca0f0f5e860355dbff09747bd5f733779107ceb45bd3f4bd7785d5a5b1de7e02683b6f589f1398b22fd5dd2dbce07b313017f95b1c9c06f89b624c30e45d5c7340ee1e5054d6c12ea32bf45e5218a205d00a8fcb7bda5d54e1108fd3267d27b2758105c97d4a142fea267c699cffb36975bbf79c5bef556ad886269e2d00c2f414bee06688e5c43f7d4abc76978b5b9461afb1247b51815ed88287fc320caa3b81d8e07d0621ad25b5fcedf726c92f8265442a79291a6dccae6720e22f71ef5c3faa6d8da02f6fc8b742ff39a65e487e3d668017bae8ed724b662f0c06b0716d0ab0597c40266d59b92730ce003ef2d2046ae7cbd930819dd923ab28ee05e1e75892539485d824511479a90d7601f591a4fba6189164452e204014d90d7a105509d4583f45758aaf26a9795c89c304067b1a646e24e86e16d3219c4cb077e0fa20c1a6e0574663047b5d05eff6eff68c0d2a4aea6bfe2c01b492fe7a7091bd95f75553449655594d7c4ceb45f18749faab6e35ece2220d05bee94d5c9ef6ce0d560a4418c2ba7a78d8cf99ebe427630a33fc074ab3abacde0569cad450645b7b2e6be4cfaf95263648ec3aa60743f32f06790802904788407cbf3e7569b60b41bd2ed4f6acf0e646ec164d95f1cfde3c58ad8de96670950c8ed2c0f4be1b95f99349beb97be1715e91dbbb383330dfdcf3e79da7c00d0300daec47e3782d20daf12a5bb49427c5498e02f638733280d12de7296d06afc14fb4f84c04e0e905454dd2ad18ab020483ecfab50e6c13671b1c1f3741686b6d76868fabc0c6dce0030c0f183134535a71979aa7aab0b7cce2eb1e25a7ced6dbe5f6101a48506f707894a6dee3f1fc0000000000000000000000000000000000000000000000000010222a3701fd2105003effb7e6d0fe70c2bb57507dd19879bce03671b90f8721c0792667fdfc570e7bdfbce7caa6a8be141624c34bbd89e236f43541fc9c8a0a9adc12eec0108438509424cfa2eb65d26febfd610dce7730425ff86040836b8b419dc88da2c629f50bf54558ca235699de9569b95194745e540019eff778845ed4bd4055e9e0f25a922948bc3d7af1847aacc39c3c6e6d4a9493919debf6dda5fbaba3d87dd384b7d91c33f7ac50fb8dae2a2d9851d49167d6b75d923abe58acc437d0e5000de0214df76749b758e51cdf58f5514710955c836dc76530443a158b3dab6918f26eee748bda324f0ccf1aeddef78e100eb7cc50bf142dc4b2f0fbc23981c80bc35007d79a2ad7d51f2f5f95344614c2b97a12df9f22264cb4484e842dd102c90ddfd77dc29b9a394f603b63b94b12c3257cb6170c54d4c791e5ee902a6a4143209f269bb528dcbe6ee09a24493f5e1491b6c7bb45d6bf22b34377f8b85a71cdbfb61e043ddb13a33cba1ce1392b064954539f0fff7e6480216e4ecaa6c3003fe5fac282b2cb0f1fc9ceccd84b0c5e825fe53bb403ec40780a2142864b20ad5b23fcb9445fd1f491091f8c8cf1a5786ee5bc3986e299754d7988d0ee691e8a7b555e6de49ff7ae25b875973be7261f0cbc8f999b44864a07bc98a3c31a69329bd3b6d398f77bf9bb09dc2c33165969c2904971845f0cdf3bc101f08c26624e9029c603b411f33314ad2d1be7c110fe12e66033a9c9a75ce484aa1c9ec61a423b482bf361df360a3120678460e1f43c0e0e4fe17b23214c9f35cf1efe6cb3ac6d61699fa6f1f83fb695932f012488c203bf36d2274bdac0dcad6badc467c510cf9b153c7ac4a8404efa28c36bec8c4d0f7d342ba86a67d9dc4b8547ac7275fea1bd8c97ed549545d1da2de205f24a8ec4bc00ca5faca06069e9cab4a14b23100035e5617346da4f05ee10485de53fbb2fe9f2b75adac56c3117de6961713f416e97f5f4bfb5fab0a39c1e9177af164b59996bf9d7ff9427058a5bf2aae324e1c04bf442a01845c25e975733a8fa52df4125789cd31a6787789cd58669476d7fd60eab89c91fb086553b770e02bcfb5131f81053c4b3926d9e0f36929f137239766c0dcbc20aaf95537e9c5bf828be0e0a7b2e9dd33ad7ade7b87a9c27ed3b17bd53a6be70ca0ff063a3c18c00a2e52c990a838cb1d5db50897206345eb84677b983d5db9bc09c857d38e8f52a176461fa1385d9dd4528316c0bfbf6b60dc87673163b4991d670fb649d1ef1f4654a54e84d579df0dec39b70ebeb45aba48ab3e17a63562f8d72eb6e75aa5790475c4f810c6ba4278a4e600e0d678a761f0dafa80c54159d174d931c62c1e5c733ec3f528d4d06c4a48968b0fad7ce9bf7432c3d5fd712415d325180fcb57c920bc2d995e1cd53f723cf06386552befb1b0d299f3038805aa670cab6ee7798905277c0fc50035b8304eee29412b73fc2ae2eef1c6c2d4bceae8d0c9bab91bffc06d84602c94c3488f02ece83c3017cf5e3fcc3552cc28f98b4ed844f5738b5f741e96bfbb9f29a5ea3cb59ac153da06aa5400dc0f11493bd7c49cd64ec1b333c26e9f8f057606373f295f1103488c351aeb41728f628b1ed75d5543bd6dddd114b7d5f7fef30292d54ff561d8a40a70d01d14df290c8d475726f4e5fc0072b93290a23b446e5b74d3acf1be15bddb95484c959521fc881a50597a3ed0907bff81ad18d0c83868fd62d13617a9613b3b79c50609d44f2bd65b30093c25b886d120c4209c4c388293ce355337df34637c496e077d9fa845999fb1bac42039f1defcacd0b05a9665e3e41a68b524b33d979961e3f0aa191e93e67000000",
  "txid": "eb965d75ea9332664eb208fc2051a9bb7e22d6ce7a304f2b5fad46e2f79c48de",
  "hash": "ab5452783dad6f40bfe0299e9e09aadcceb83cf8424a607c9d4dd0bdfff3c0bc",
  "size": 5085,
  "vsize": 2278,
  "version": 1,
  "locktime": 103,
  "vin": [
    {
      "txid": "377c1f6b210f62ac507d9af99a6d1bb7e13c1cb730ef8ee7e03e12c53c48354e",
      "vout": 1,
      "scriptSig": {
        "asm": "",
        "hex": ""
      },
      "txinwitness": [
        "6a1f5f1115ebcb9aca7c23004b2ce5ac3c36c5245859f712b448972ee2ee478ce3946f9801352bf595db520fc9f74f2e7bd6d1cfd9ba411b36f352bc922cfd397533ef299af432efa7559bb2226f2340fcfaacb6568398fa65d9f07bec0decc38d6335bd0dd6e38534d4b8f32a2f2aa6433a7ab150d808c6248f155d4999eab7ae895a30f43c050561069b5c40083d1fe6f0f8a2c620b319b9cd047453b61afe1d2c22a2667eff9648775503fe81bd97283f08047bfac1797752e16fe9d27682b33e428a07c6c5aea07a1049daf15c2764c16c0696435d29d126108a0c63bce000a80637d4ea5235aea0d663ff36f72d89fecea84c024312b9bad0bbed6ab881d3a034f2921f2c8d196e124b3f8b8c765d967033963111ebc71f6c8182ec90df4c211b7d07301840c17c58cb4c5769266cee0e9a1fb493af4ffd9af18915a884c836625ebc573ddb80ec13f29722e45667069d16a725362f94b3ff48a373fc908bc643a99adfdaafe3aadce9ff4a4aecba5b785b4c27d91952e78d46af30f7796d8efcaff8a4ab63158f2674f6c4361546fa2c5a75729222329ef24c936bdccb3167994f4c164ecbcfa1a81eb1270cf2d76689ac846679ae148d85d1a1a9926a9f167e5e9fd1959c6ed3ab0a4f99492bbfe654100abf7dc761b254741d9117a2d4fdf47f1a23a272da14328ccafccf38c977b7a3d8af2e063c0bf4f48426ee78ecaf4768465f630922c4dbd3155190fc36894664bf15923bd7eac55f6c8eecc20ba767b1b20ff939dab5d18a46e589965fd52629ff845c0868364326f22fd8c75035a33a3a72a17dd0adf9f9f0dcd3c2c4c166910d1607d5fe108c113a6c2c7637e3c15ff8eb6a832286bbb5e1706ffc8eeeb51f4d1ef631286743dda005926a60520e0cf2f44a00fb81155bb8c22020db137a99b7dab8497ed9ed4c436cf2ac5f1816d101a4d272eabd2761e11e4b6cf3fa5d50874d7bbc22db7d42c38871c0d7d18d2fc977b2726ae50047783972dcaabf4efeb36736c426107999cfff259bf28b62f8fbdc6beadd14eed67f854339ebf321b9d94abe75b5d1f01414d5d4e91cf057dd9c27efd45498066d2d433b284c210e78ee4184523517fd124a8c55637c7b042d3784013d966de1829eb8fd958f5360e02ca3e54cb500abe9d228eb02821e1fffc2b33e86255aaf7c10071e5ed6c64d3aeb1b0760e673b07613d1939aed53ed01465d62862acd431da9df315866c04544f9687e3aeceddc8832d9794002efbb6aeed6f8afb36667962df5c394384cff3b0872a395e7ddc696bf452b6733316e04376ddf36b043c1440549f820d3d9df5daf372a848488f2df6dbf848b06779abc13d95b7e6a79ab5f2cfbfade7689c7876d47eda87362f71138ec83ce12fe121f454c33215bd8a0104536ff0f69e6a6caae7c0745567dde5f0a9f0cc402dac5dd836e29463f55a79a332b0be24ea8b894b7bfe9dbfb27a59507e7034aa72abfa3770384a9c5c1907150cf09da69da3cc9710d0dbd1fe801a880c03d3008cdf5cf229f719b659dac684920b90cfcc2f0b3809a42171634e942a5c33dfbf898653c4f0ece9c9d94ea0c4f0bf6324439ccc748e04b2c945be59469cbd6114ad9af535298cf87dd2e0989282e930234f9e8152604257bb14e8297cbb9bdedecf6df054f07bc115dff28d3674d23ddae24990497aef67ccbc47b9894a8ab8aabf27009fc94117dfb1c3a1e2b335a92cab21dd08bf5835851b0e5a87f4e39011a03220ca96f3f1b78aa28e6a10b34badf3e2bcae450d2f714fc04a7e550563896b1952b8a93cb240812f022ab65133e2159e1c7ee909702c2144af464ed80de600a78d7b0e5efb7f1eaf729b7c7ac47989d8afb55de75a1fd91ff73ab8193fb2ec24c546a81663d68ea533422a1daa35d1f67207337ab80672e06ea90789b1ed2d78164d9cbc862c06f0a748762a83b7aba454d4ad7232753fe6e8fcd81ad5b44b5124bb833c03e6036d4d2e8724523e40d2051beef263c6244ea0e79d2a662ac517f52e1ef3623507852e8c271d3894cd61b9b5934883a04283c57edb0f162e39c299c28f385cc786a14930388abe1ea3efd835ad91b28e926b818a7bb429fdc2f792c82385c3efec309389a0fad145b24065f4aeb598abd4a10846401033b50fe1f9e959312ec7dfc53849d4c01450ee70a6540555985a9b1b5484cf9708bd0dc8920577d62c3056f7aa78f4309b34a8cab57493b67972696e69e2a097e25e3bd2ccaab8ad898e4991405cb6dc26541094a782db0c5fdef1f3e51df28fc1272ae3f006b02557a9c651ddf66594fceb9eb5ae7f13be5b4c7e806e35c31c610cd92f7ac4ec6c7958dd5a604b27aefb5259a4aba5c8734433802a233d10279f480e226f843a0168d2fedfd5513aac44ccb786f504f9faa5d327d80fc9d3b967f52a10d87fa01aacaf49cca91369ca413c3f54fbf8c128e2cbab1b6011b33af1b77fab7cd1db039ef863601a72f64d61ee8ca0f0f5e860355dbff09747bd5f733779107ceb45bd3f4bd7785d5a5b1de7e02683b6f589f1398b22fd5dd2dbce07b313017f95b1c9c06f89b624c30e45d5c7340ee1e5054d6c12ea32bf45e5218a205d00a8fcb7bda5d54e1108fd3267d27b2758105c97d4a142fea267c699cffb36975bbf79c5bef556ad886269e2d00c2f414bee06688e5c43f7d4abc76978b5b9461afb1247b51815ed88287fc320caa3b81d8e07d0621ad25b5fcedf726c92f8265442a79291a6dccae6720e22f71ef5c3faa6d8da02f6fc8b742ff39a65e487e3d668017bae8ed724b662f0c06b0716d0ab0597c40266d59b92730ce003ef2d2046ae7cbd930819dd923ab28ee05e1e75892539485d824511479a90d7601f591a4fba6189164452e204014d90d7a105509d4583f45758aaf26a9795c89c304067b1a646e24e86e16d3219c4cb077e0fa20c1a6e0574663047b5d05eff6eff68c0d2a4aea6bfe2c01b492fe7a7091bd95f75553449655594d7c4ceb45f18749faab6e35ece2220d05bee94d5c9ef6ce0d560a4418c2ba7a78d8cf99ebe427630a33fc074ab3abacde0569cad450645b7b2e6be4cfaf95263648ec3aa60743f32f06790802904788407cbf3e7569b60b41bd2ed4f6acf0e646ec164d95f1cfde3c58ad8de96670950c8ed2c0f4be1b95f99349beb97be1715e91dbbb383330dfdcf3e79da7c00d0300daec47e3782d20daf12a5bb49427c5498e02f638733280d12de7296d06afc14fb4f84c04e0e905454dd2ad18ab020483ecfab50e6c13671b1c1f3741686b6d76868fabc0c6dce0030c0f183134535a71979aa7aab0b7cce2eb1e25a7ced6dbe5f6101a48506f707894a6dee3f1fc0000000000000000000000000000000000000000000000000010222a3701",
        "003effb7e6d0fe70c2bb57507dd19879bce03671b90f8721c0792667fdfc570e7bdfbce7caa6a8be141624c34bbd89e236f43541fc9c8a0a9adc12eec0108438509424cfa2eb65d26febfd610dce7730425ff86040836b8b419dc88da2c629f50bf54558ca235699de9569b95194745e540019eff778845ed4bd4055e9e0f25a922948bc3d7af1847aacc39c3c6e6d4a9493919debf6dda5fbaba3d87dd384b7d91c33f7ac50fb8dae2a2d9851d49167d6b75d923abe58acc437d0e5000de0214df76749b758e51cdf58f5514710955c836dc76530443a158b3dab6918f26eee748bda324f0ccf1aeddef78e100eb7cc50bf142dc4b2f0fbc23981c80bc35007d79a2ad7d51f2f5f95344614c2b97a12df9f22264cb4484e842dd102c90ddfd77dc29b9a394f603b63b94b12c3257cb6170c54d4c791e5ee902a6a4143209f269bb528dcbe6ee09a24493f5e1491b6c7bb45d6bf22b34377f8b85a71cdbfb61e043ddb13a33cba1ce1392b064954539f0fff7e6480216e4ecaa6c3003fe5fac282b2cb0f1fc9ceccd84b0c5e825fe53bb403ec40780a2142864b20ad5b23fcb9445fd1f491091f8c8cf1a5786ee5bc3986e299754d7988d0ee691e8a7b555e6de49ff7ae25b875973be7261f0cbc8f999b44864a07bc98a3c31a69329bd3b6d398f77bf9bb09dc2c33165969c2904971845f0cdf3bc101f08c26624e9029c603b411f33314ad2d1be7c110fe12e66033a9c9a75ce484aa1c9ec61a423b482bf361df360a3120678460e1f43c0e0e4fe17b23214c9f35cf1efe6cb3ac6d61699fa6f1f83fb695932f012488c203bf36d2274bdac0dcad6badc467c510cf9b153c7ac4a8404efa28c36bec8c4d0f7d342ba86a67d9dc4b8547ac7275fea1bd8c97ed549545d1da2de205f24a8ec4bc00ca5faca06069e9cab4a14b23100035e5617346da4f05ee10485de53fbb2fe9f2b75adac56c3117de6961713f416e97f5f4bfb5fab0a39c1e9177af164b59996bf9d7ff9427058a5bf2aae324e1c04bf442a01845c25e975733a8fa52df4125789cd31a6787789cd58669476d7fd60eab89c91fb086553b770e02bcfb5131f81053c4b3926d9e0f36929f137239766c0dcbc20aaf95537e9c5bf828be0e0a7b2e9dd33ad7ade7b87a9c27ed3b17bd53a6be70ca0ff063a3c18c00a2e52c990a838cb1d5db50897206345eb84677b983d5db9bc09c857d38e8f52a176461fa1385d9dd4528316c0bfbf6b60dc87673163b4991d670fb649d1ef1f4654a54e84d579df0dec39b70ebeb45aba48ab3e17a63562f8d72eb6e75aa5790475c4f810c6ba4278a4e600e0d678a761f0dafa80c54159d174d931c62c1e5c733ec3f528d4d06c4a48968b0fad7ce9bf7432c3d5fd712415d325180fcb57c920bc2d995e1cd53f723cf06386552befb1b0d299f3038805aa670cab6ee7798905277c0fc50035b8304eee29412b73fc2ae2eef1c6c2d4bceae8d0c9bab91bffc06d84602c94c3488f02ece83c3017cf5e3fcc3552cc28f98b4ed844f5738b5f741e96bfbb9f29a5ea3cb59ac153da06aa5400dc0f11493bd7c49cd64ec1b333c26e9f8f057606373f295f1103488c351aeb41728f628b1ed75d5543bd6dddd114b7d5f7fef30292d54ff561d8a40a70d01d14df290c8d475726f4e5fc0072b93290a23b446e5b74d3acf1be15bddb95484c959521fc881a50597a3ed0907bff81ad18d0c83868fd62d13617a9613b3b79c50609d44f2bd65b30093c25b886d120c4209c4c388293ce355337df34637c496e077d9fa845999fb1bac42039f1defcacd0b05a9665e3e41a68b524b33d979961e3f0aa191e93e"
      ],
      "sequence": 4294967294
    }
  ],
  "vout": [
    {
      "value": 499995.9324,
      "n": 0,
      "scriptPubKey": {
        "asm": "1 ea130eeb0c18182135f7be79d192c82fa83c33834c1b5f188d0a6218a1282f4c",
        "hex": "5120ea130eeb0c18182135f7be79d192c82fa83c33834c1b5f188d0a6218a1282f4c",
        "reqSigs": 1,
        "type": "witness_v1_scripthash",
        "addresses": [
          "3QJmnh"
        ]
      }
    },
    {
      "value": 1.0,
      "n": 1,
      "scriptPubKey": {
        "asm": "OP_RETURN 884fdc64690d5b066a23263c3b6f83d7046219157e51aa0a4b73622657da4e17 4e55689b12b82eb33d2c4e45ddf0ca03f2b06016a7474616d8b9af52cbf9d3dd6e7548bb32980e931d0c6e65fdd0ea23d290403687676636f8998f72ebd9f3fd0e1528db52f86ef37d6c0e059db08a43b2f02056e707065698f9ef128bb9939d2e3508fb72d84ed35d4c2e25bd90aa6392d00076c7272676b8d9cf32ab99b3bdced5e81b9238ae33bdaccec55d704a837230e09627c7c69658392fd24b79535deef5c83bb2188e139d8ceee57d506aa35210c0b607e7e6b678190ff26b59737d8e95a85bd278ee73fdec8e851d300ac33270a0d6678786d618796f920b39131daeb5887bf258ce53ddccaea53d102ae3125080f647a7a6f638594fb22b19333d4e55689b12b82eb33d2c4e45ddf0ca03f2b06016a7474616d8b9af52cbf9d3dd6e7548bb32980e931d0c6e65fdd0ea23d290403687676636f8998f72ebd9f3fd0e1528db52f86ef37d6c0e059db08a43b2f02056e707065698f9ef128bb9939d2e3508fb72d84ed35d4c2e25bd90aa6392d00076c7272676b8d9cf32ab99b3bdced5e81b9238ae33bdaccec55d704a837230e09627c7c69658392fd24b79535deef5c83bb2188e139d8ceee57d506aa35210c0b607e7e6b678190ff26b59737d8e95a85bd278ee73fdec8e851d300ac33270a0d6678786d618796f920b39131daeb5887bf258ce53ddccaea53d102ae3125080f647a7a6f638594fb22b19333d4e55689b12b82eb33d2c4e45ddf0ca03f2b06016a7474616d8b9af52cbf9d3dd6e7548bb32980e931d0c6e65fdd0ea23d290403687676636f8998f72ebd9f3fd0e1528db52f86ef37d6c0e059db08a43b2f02056e707065698f9ef128bb9939d2e3508fb72d84ed35d4c2e25bd90aa6392d00076c7272676b8d9cf32ab99b3bdced5e81b9238ae33bdaccec55d704a837230e09627c7c69658392fd24b79535deef5c83bb2188e139d8ceee57d506aa35210c0b607e7e6b678190ff26b59737d8e95a85bd278ee73fdec8e851d300ac33270a0d6678786d618796f920b39131daeb5887bf258ce53ddccaea53d102ae3125080f647a7a6f638594fb22b19333d4e55689b12b82eb33d2c4e45ddf0ca03f2b06016a7474616d8b9af52cbf9d3dd6e7548bb32980e931d0c6e65fdd0ea23d290403687676636f8998f72ebd9f3fd0e1528db52f86ef37d6c0e059db08a43b2f02056e707065698f9ef128bb9939d2e3508fb72d84ed35d4c2e25bd90aa6392d00076c7272676b8d9cf32ab99b3bdced5e81b9238ae33bdaccec55d704a837230e09627c7c69658392fd24b79535deef5c83bb2188e139d8ceee57d506aa35210c0b607e7e6b678190ff26b59737d8e95a85bd278ee73fdec8e851d300ac33270a0d6678786d618796f920b39131daeb5887bf258ce53ddccaea53d102ae3125080f647a7a6f638594fb22b19333d4e55689b12b82eb33d2c4e45ddf0ca03f2b06016a7474616d8b9af52cbf9d3dd6e7548bb32980e931d0c6e65fdd0ea23d290403687676636f8998f72ebd9f3fd0e1528db52f86ef37d6c0e059db08a43b2f02056e707065698f9ef128bb9939d2e3508fb72d84ed35d4c2e25bd90aa6392d00076c7272676b8d9cf32ab99b3bdced5e81b9238ae33bdaccec55d704a83a04cbdbb93b92db252e49f48e881d35eb734fb691717830891878364cdbf7867",
        "hex": "6a20884fdc64690d5b066a23263c3b6f83d7046219157e51aa0a4b73622657da4e174db0044e55689b12b82eb33d2c4e45ddf0ca03f2b06016a7474616d8b9af52cbf9d3dd6e7548bb32980e931d0c6e65fdd0ea23d290403687676636f8998f72ebd9f3fd0e1528db52f86ef37d6c0e059db08a43b2f02056e707065698f9ef128bb9939d2e3508fb72d84ed35d4c2e25bd90aa6392d00076c7272676b8d9cf32ab99b3bdced5e81b9238ae33bdaccec55d704a837230e09627c7c69658392fd24b79535deef5c83bb2188e139d8ceee57d506aa35210c0b607e7e6b678190ff26b59737d8e95a85bd278ee73fdec8e851d300ac33270a0d6678786d618796f920b39131daeb5887bf258ce53ddccaea53d102ae3125080f647a7a6f638594fb22b19333d4e55689b12b82eb33d2c4e45ddf0ca03f2b06016a7474616d8b9af52cbf9d3dd6e7548bb32980e931d0c6e65fdd0ea23d290403687676636f8998f72ebd9f3fd0e1528db52f86ef37d6c0e059db08a43b2f02056e707065698f9ef128bb9939d2e3508fb72d84ed35d4c2e25bd90aa6392d00076c7272676b8d9cf32ab99b3bdced5e81b9238ae33bdaccec55d704a837230e09627c7c69658392fd24b79535deef5c83bb2188e139d8ceee57d506aa35210c0b607e7e6b678190ff26b59737d8e95a85bd278ee73fdec8e851d300ac33270a0d6678786d618796f920b39131daeb5887bf258ce53ddccaea53d102ae3125080f647a7a6f638594fb22b19333d4e55689b12b82eb33d2c4e45ddf0ca03f2b06016a7474616d8b9af52cbf9d3dd6e7548bb32980e931d0c6e65fdd0ea23d290403687676636f8998f72ebd9f3fd0e1528db52f86ef37d6c0e059db08a43b2f02056e707065698f9ef128bb9939d2e3508fb72d84ed35d4c2e25bd90aa6392d00076c7272676b8d9cf32ab99b3bdced5e81b9238ae33bdaccec55d704a837230e09627c7c69658392fd24b79535deef5c83bb2188e139d8ceee57d506aa35210c0b607e7e6b678190ff26b59737d8e95a85bd278ee73fdec8e851d300ac33270a0d6678786d618796f920b39131daeb5887bf258ce53ddccaea53d102ae3125080f647a7a6f638594fb22b19333d4e55689b12b82eb33d2c4e45ddf0ca03f2b06016a7474616d8b9af52cbf9d3dd6e7548bb32980e931d0c6e65fdd0ea23d290403687676636f8998f72ebd9f3fd0e1528db52f86ef37d6c0e059db08a43b2f02056e707065698f9ef128bb9939d2e3508fb72d84ed35d4c2e25bd90aa6392d00076c7272676b8d9cf32ab99b3bdced5e81b9238ae33bdaccec55d704a837230e09627c7c69658392fd24b79535deef5c83bb2188e139d8ceee57d506aa35210c0b607e7e6b678190ff26b59737d8e95a85bd278ee73fdec8e851d300ac33270a0d6678786d618796f920b39131daeb5887bf258ce53ddccaea53d102ae3125080f647a7a6f638594fb22b19333d4e55689b12b82eb33d2c4e45ddf0ca03f2b06016a7474616d8b9af52cbf9d3dd6e7548bb32980e931d0c6e65fdd0ea23d290403687676636f8998f72ebd9f3fd0e1528db52f86ef37d6c0e059db08a43b2f02056e707065698f9ef128bb9939d2e3508fb72d84ed35d4c2e25bd90aa6392d00076c7272676b8d9cf32ab99b3bdced5e81b9238ae33bdaccec55d704a83a04cbdbb93b92db252e49f48e881d35eb734fb691717830891878364cdbf7867",
        "type": "nulldata"
      }
    }
  ],
  "blockhash": "15af9b025c636b87e0a10c18a1a8de0e5f3c2069ad563b293161176d75df89a4",
  "confirmations": 1,
  "time": 1764174659,
  "blocktime": 1764174659
}