{
  "hex": "01000000000101f6ca7850e96df30bc95e5e0e5a5ffa3238848957bc17151a98ec59bad6df466f0000000000feffffff0260cda5ea782d0000225120d397b64b38edd2f0fd685e5cae94b794953f4769059c7cd6688765b683e5a18400e1f50500000000fdd5046a2020ef7914dc644dfb81d0b94c0342f2eb35910e3b2796adff6e4a1826699a866a4db0042477bf71f5dd6022e0f8c340fae413e1fff3651032d3fef81fc9daf04ee208c404579f51d5fd4002c0d8e360dac433c1dfd3453012f3ded83fe9fad06ec228e46437ff31b59d2062a0b88300baa453a1bfb325507293beb85f899ab00ea248844417df1195bd00428098a3209a8473819f93057052b39e987fa9ba902e8268a4a4f73ff1755de0a2607843c07a6493617f73e590b2537e789f495a70ce62884484d71fd1557dc082405863e05a44b3415f53c5b092735e58bf697a50ee42a864e4b77fb1351da0e2203803803a24d3213f33a5d0f2133e38df091a308e22c804c4975f91153d80c2001823a01a04f3011f1385f0d2331e18ff293a10ae02e8242477bf71f5dd6022e0f8c340fae413e1fff3651032d3fef81fc9daf04ee208c404579f51d5fd4002c0d8e360dac433c1dfd3453012f3ded83fe9fad06ec228e46437ff31b59d2062a0b88300baa453a1bfb325507293beb85f899ab00ea248844417df1195bd00428098a3209a8473819f93057052b39e987fa9ba902e8268a4a4f73ff1755de0a2607843c07a6493617f73e590b2537e789f495a70ce62884484d71fd1557dc082405863e05a44b3415f53c5b092735e58bf697a50ee42a864e4b77fb1351da0e2203803803a24d3213f33a5d0f2133e38df091a308e22c804c4975f91153d80c2001823a01a04f3011f1385f0d2331e18ff293a10ae02e8242477bf71f5dd6022e0f8c340fae413e1fff3651032d3fef81fc9daf04ee208c404579f51d5fd4002c0d8e360dac433c1dfd3453012f3ded83fe9fad06ec228e46437ff31b59d2062a0b88300baa453a1bfb325507293beb85f899ab00ea248844417df1195bd00428098a3209a8473819f93057052b39e987fa9ba902e8268a4a4f73ff1755de0a2607843c07a6493617f73e590b2537e789f495a70ce62884484d71fd1557dc082405863e05a44b3415f53c5b092735e58bf697a50ee42a864e4b77fb1351da0e2203803803a24d3213f33a5d0f2133e38df091a308e22c804c4975f91153d80c2001823a01a04f3011f1385f0d2331e18ff293a10ae02e8242477bf71f5dd6022e0f8c340fae413e1fff3651032d3fef81fc9daf04ee208c404579f51d5fd4002c0d8e360dac433c1dfd3453012f3ded83fe9fad06ec228e46437ff31b59d2062a0b88300baa453a1bfb325507293beb85f899ab00ea248844417df1195bd00428098a3209a8473819f93057052b39e987fa9ba902e8268a4a4f73ff1755de0a2607843c07a6493617f73e590b2537e789f495a70ce62884484d71fd1557dc082405863e05a44b3415f53c5b092735e58bf697a50ee42a864e4b77fb1351da0e2203803803a24d3213f33a5d0f2133e38df091a308e22c804c4975f91153d80c2001823a01a04f3011f1385f0d2331e18ff293a10ae02e8242477bf71f5dd6022e0f8c340fae413e1fff3651032d3fef81fc9daf04ee208c404579f51d5fd4002c0d8e360dac433c1dfd3453012f3ded83fe9fad06ec228e46437ff31b59d2062a0b88300baa453a1bfb325507293beb85f899ab00ea248844417df1195bd00428098a3209a8473819f93057052b39e987fa9ba902e8268a4a4f73ff1755de0a2607843c07a64936104ddbd00290bc469914cf8780204f6699a4ab79268240b5b3dd709fa21301a5502fd7509f4b5abbf3a02bd40d6b2b2a284ee6afbc8e01738f1376ff21c25ad38377d9c08f3ec5fee0574bbf027bccc8695a7b070c19787796abe6512c819c201f00ff68160d4fd1862307e6c14584ad0f4b9f162b8b87ce6dcf8cc5bc2af5096b69f245bd4ab09e442ea77e089d10d0a2a3d384f2b33e7567e04c45e9f8fb8b37fdf5fce928fda5d08fe63a9946eace1fefddb0cc954bfd1d59af3532c6ced81ba04ad9263214f7a5d73ccab267da7dfec260e6952ee41df19925853777a5134d280675488bc44aaf07a436515347e59acf179654bde81c50275a62bfbe60c74f3c0d0b0aab00286c63c7f47fab7533ba7caf5ae164dc3bf952cd0015fa875ddfd39e3d8f92821c426305fa26e0d9cbd7ea0152eb8f65a5f102c43cb28c8c504f189d4d3675289616082e1afbe8e6599192758fdf27ec7e0a76514975ed7acf98e16db6e7586b5b73f2d3a6cec90b4d7e4e03e563152dc5dce36794169812a9ccf070a1c8ff97301d1df758e458233cf5c7dd3c1c2bcf5637ea9020a603edcd31c1d38b2cc2db3a6885f6dec32f51b32b42d0786d0110b44721d28ec6ee1c963b5dcf8fd8d952c699ba61164a2f4797cd0da0b9720aab7e797c18d4dd6dd75022263f533fb054feb229b080566c72ccbab1abcdf1ec504f0596d78f9587f449c98d007c2b9ac8ec619aff5f340ab4d580dd12080202034dbcf33779d0c293dd2acced58d9f64fd08bdedde234081476a3bd96947c52ca3984741d0ad5f56b0ab3f086720cb6da542d8f4c890e93dce1d46f6517163cc8d9a2f3e64f59584a623579477f0b7eb5bfbeb79d38b48801cd15e044e5ce48a9a8f98abe00cbc83c15674bdd14786fe51d5e12af368a4fe2ea8d4e7c2e4e738609463eafe50630dd68d766f5b700cb41dccf2264d57abf4e896b9b02b73cbc06c8b5df61db9a31372e914b1edeb341ed1006f3a78542fe0342d9889c3d249c1f5927a91942fe83ca931f42f332220d89af5d631729f3d256d205065c132c3d06f0ccc2d42e662875e46b70eaf36a12c2b1fb2155f8331d876585c83d3ec68e02533fffbd2a7681254657eb096e3fea3a5a315971b4d5eeb9048a1a7482be6d5ba5fc856a51f17c1a129660ec1ec7f82781dd0c983591bf30fad390aa35e64e7c2043900a963371ea2f088cb7eb84616d5f18e373f5d482f9054b9ff184f99c6a30d7ba3a2a192937bc0d6980bb048a1274ad39cfc2affaa97d0ff6e141a2ed8fe943b64a87b33ac0aa964540577bc871bad7172aac39cd86569583b3ce2226db6f1823d57925fd51be1b8345bf044d83c8de1a0f36af6aee94eed057be5b87a291ba5bf17d9e5a7cddd1a0f3b4e5f6ef5dc4d123dd9d027b6eca9b08e16643962425ce2bf50b0314cb38cb9830031aa3ea07adf8453663cb5a5b87d74121e709243964c3ac1ec748b5ee27acd8fc21aaf15efa4d6bdf894b7845274a05eeebabc3d087d1e1e5928ddf26d4d143bc487eb7a005a34fc5209aa560549fe382c8a43ffb75564d0cd2232ded4323aada0b6a490253a375bbc8ea60d9fc8d13fecc8cf7b1c7c449336bec2ea950ca3f49ad8ee561c9b60e3cd9d75d6f481af472277b4accbabc44da7ce23e4ebfbcc674c8879922a2c3d4504ea3190850018b62bf74226c753e090232beeb9b3e1b8f0d7fc8dcd8656eff9475904e56478c6255a38dcd20f1001a65350a0efb3a15893953f2d151197897ec41da27122545f9741ce33cefa41526b98b3117b62dc15e5aa25e2479c091c33a872f205eb3bf5d6a8338b898e67f45cf1141d676ecbe4618d6e884e203efd6a637eed117b789e73c5d06448980bd0391a510ee358e248602a639cca0082b869e49f500d51989448bc3795c09276883b354b063ea3f4b85920371dc40d094528722dcbe577a8bd66f22d33cc6fafd7e0efd07d91a9141a5bb5e87c52a725df95972232b4bf5e85c018f66e5462d9e07b229be0808529353f50731c471cb015647494b54130619c0c4096f71d10d673a0464225800547f4a9840a1d07013e93fae272496ad90faea60e9d5663d692fb6cbbe448be3b287320f0ae1bbbdbbc62cab64e0909130d0f69117abad7ed0a13f3c2f63accaf0d6d7e2df634d4a55b47d6476be46ab935d5d4bf74f448c0530c3d8b634dbc53b867baeeb892a5286252b0ec01f07038884e045473e1d95c0f2ae66dc530422fb612e931b91ee2913e0195f0047aa40f18cb3f916eeebd28d03aad26de544bf388521b9f04d563951609a5812526baa62dbdfd15fc0d2004782ddc9fafeb16bfc2179ded9af69a4c637e8801d3224685c8683a7959b1e43a3bc417e21b2355482a5f1b1822be8c2241901a4ba4580b252cfb1db6c6a8be3fc09a6490db23b0ab46e20d516a6f41ede82820d1c5d98ed44090b10828acb99849df3163640e8639a5a1befe2f3c38cd7bedd7557f175f77d40636413c4ec982c78860584f777cca6783d3d90d4bef686bbc1351a8f172af5caf896389906effff80abc7d5c02a05be71e7aa5a10379bbb7af7e6ec9d51cfdff5d946681882599025fba5235ac7c75cad0a207a3b7ed018c29206ab9ddcaa91a0f6719de154c93c59d6979a17a3c0be54ebd1ed2cfa45f9660bd7c0be9ad28abeea8e5985d1e6e14252bd2098dd567263b193fbf6f9be0f0cba549b5db916e5a145e80d9f96bc0f607a178bee5cd48d8f89574fd7c2abeaec540b03aea943de97e8397130596c6b6c592335b6ecd4289cfa2b313b356f4a724e24affa70a121ffa756aff3a3f2cc795ec267794c9c139e53c09f73f45cb12ab09c1e4d42476b6afe08e98d50394d2d0021db5f2c22413661074ac25ed52e0433f6387cda8600ad5e8df0b7169f41f2bee0934078b22a40019f511033c94492de8be9e211192b2225e9e602d521d1c865d60c86f73a5770475265d21fbb0930b47969784944d0e72f528661d0f7d515a53c8eced63c2aa8c7964c5ac66610d21953abbc61d8110980516fc9fb73ff62178d5ec6eeae2d8c7055a2592cd1a92024497c30c878181f7736f42e6aba71c997a10645599b92cffee5925ee16b68828b25f3813e6f7a461839d47777f00bdcf5a6811f07c8a9fde2d8fa633f73802e9ce71d99a4e49e7cab29f1ec20faf9e66fb70f6172a0bfd5e608a883dd236c09e76707a710a9245ce23221a0c5e83d455e2be6f44b3c520dce35c79b28fc4153eec22f7a6612face325f18b56d9e49dc1942a563c31092bd7f73b953fe71274d061a52f43db56ac5daf36fa3289816d9474fa411848569b099080c0f151f282935454d52686d82a0afbec7c9ceeefc050f4f50555682c4f7131a242e313237404c606c8c9aacb9ecfa01080d194a658b8c999cc6c8d4dae6f600000000000000000000000000000000161f304001fd210500cf78f1fa1ee4d98670ffd27ef39df6c47dd2472c521c5bde7a9051cd26f824026f81a30e3d0a1240668eaac9fd2c0afeb5fbe9bcf7d7b3c858ae4c8cc365e7c57f98561988791dd247a48005d72639bc2275971bc47292d712a215f00bf16c5a10ed2e33f1b93bc238c392b9aa9b60098fab3668497c7a9b3a6b39e5e462a03e563711f2623a6b3e59dfbad52fc9a08722e4e138f960b45472d88354e7e67211076c8eae709ba17b1dc850c6df268d61684b35af220cc199a37302b8ceb8b9844b94c5b2b940ada2de67c39d24a4c128382f17f8aa4a7c9908cb1e15f0c6f86e7d1e70040daa05e1d4fc993c210ba84436910dd3c4139bc137c18eba15d82e8f16d173a7eb1f1d20a86842ac39efff1c43c95cd01bff7b51a008abaaaf4169787e9cd4b0388d7181d3cc49a81df6c580a7d85db4228e5b93c73465a821e1b373000547c7c1b21403ad369a065b949d84ad61d1c275a1240b2e6793d62a4a4bcbdd029d2bbc495b88155cd9f539f1b4567aed75d6e40ac6075b8c15bf81357777742d67f5e2d8964d1c21acee4ee9cec1c229e6e5c61d6f9a89eaf75d040605154f82bd79da8462a2939a3b2c8dc04ecaf8a9955a72e689c7ad1325d09ab77f2f41547f0130d7a88050369d29f1742d498c9c3eb76c065376c959b862373636d5f41f0b8ef148697ce8267767821cda1a674028a5c6cb35f14a0141c5eb4669473364fd1f72c02a44cd29db1de8a1c0f643352ab807d7d1af0ffca57864d0f6947ad86eb0c24bbbb5e8d988dba5d85aca78dffb1f8d8857ee7972360e04c704b544451b76ee0eb7b068fb21037dd9c3b1abf4c8b2cce147573621fbbaf9026b22ea00417b7a0a8b0ea9bc186f2d4de4c13070b00a1dfe035c0f7cc38d9234604d3eaaebd8d270e27c1dd4c3220db6c7fa7e735573c6427807b56b7dcae914253d9ca12d1f0df37fa5709a892cc3eb6d0212759bf098a56c09a95b2049b3ceab043cf6626ad31e45e8271c8a548bbe49b5da464b53ec9c9e5da1278bcc7e08d63beec030cfd8156a08882d05526ea7bb4f60f9f816e881c941a8d5dfd8fc074492c2a43f64a7af9d0a73a37304fee316ad1929cb349b74824232810c018b1d8c001d44c629d0b9dee82368da8d417a997f3747f3a1c5c818dfe12e6aab166185384cf07b61196f5d197f3bd44bb6db3cba7d0c2ce5eb6533f7d25b9cbf35fc4ddf3d463870f6238a88804204a80484dfc1e8a1bbd214e7976460c549741e82893d45b5d1fb6d79d21a9fdcc186934e5971b00fdf99b66cf08c2c86753587732c164ef0465d92afbf22dcd86140453ec681f3312f072a7e72d677339ea2e142239fdb2999d226a06454b2aee8bca2cd29a2bcebf2d5a5073c2e1ebe2dcdbd24a89e84e5902be77cf7c70a83fe44eecc2bfce3bcf0aeb700b6530fd2f190aa2acf24ca05b579d8d7b2ba83ded4573fba3b916123fb91c26039dabd2dc28749a09c62fb5018c62ca96df692896480b63ba18df211d3f34f70a591de58655f2edc2662d293fae936d9881e30f404745884b44b8eb325da16f42a6b260da19508863215e42ca5f08cc9b92b2cb552df2be3cf5424b666a45813e92536fe92c57032d7c1e1bf84ffd17d39088473d3f37d29e4b61f9caa4a9d75bc2d260d4f876436ed01b6a659d5d67e5e94f1ab2d34a274d20dc4398fde2ecb6732d631c89624916467e8cf0a82d8c097a733271af3e6afa93147660a227727c21151c2183fb4e276136f01f9b39cfcb8f8f4bde69e4991e34d020c24cf13879d5ece39675142e09f79b69c8299fa28392cd15e68094f7cead6d8aa975ff67234dd3b4e6b016ef058db7b000000",
  "txid": "e39918b17fa6de6657443f791140d9fb3a8446b1e836455e62f007d6af80b774",
  "hash": "99dcf4e9ac6464c81a4d08f70a45b3748240ecb8f1545a9a8788707272cb2f11",
  "size": 5085,
  "vsize": 2278,
  "version": 1,
  "locktime": 123,
  "vin": [
    {
      "txid": "6f46dfd6ba59ec981a1517bc5789843832fa5f5a0e5e5ec90bf36de95078caf6",
      "vout": 0,
      "scriptSig": {
        "asm": "",
        "hex": ""
      },
      "txinwitness": [
        "f4b5abbf3a02bd40d6b2b2a284ee6afbc8e01738f1376ff21c25ad38377d9c08f3ec5fee0574bbf027bccc8695a7b070c19787796abe6512c819c201f00ff68160d4fd1862307e6c14584ad0f4b9f162b8b87ce6dcf8cc5bc2af5096b69f245bd4ab09e442ea77e089d10d0a2a3d384f2b33e7567e04c45e9f8fb8b37fdf5fce928fda5d08fe63a9946eace1fefddb0cc954bfd1d59af3532c6ced81ba04ad9263214f7a5d73ccab267da7dfec260e6952ee41df19925853777a5134d280675488bc44aaf07a436515347e59acf179654bde81c50275a62bfbe60c74f3c0d0b0aab00286c63c7f47fab7533ba7caf5ae164dc3bf952cd0015fa875ddfd39e3d8f92821c426305fa26e0d9cbd7ea0152eb8f65a5f102c43cb28c8c504f189d4d3675289616082e1afbe8e6599192758fdf27ec7e0a76514975ed7acf98e16db6e7586b5b73f2d3a6cec90b4d7e4e03e563152dc5dce36794169812a9ccf070a1c8ff97301d1df758e458233cf5c7dd3c1c2bcf5637ea9020a603edcd31c1d38b2cc2db3a6885f6dec32f51b32b42d0786d0110b44721d28ec6ee1c963b5dcf8fd8d952c699ba61164a2f4797cd0da0b9720aab7e797c18d4dd6dd75022263f533fb054feb229b080566c72ccbab1abcdf1ec504f0596d78f9587f449c98d007c2b9ac8ec619aff5f340ab4d580dd12080202034dbcf33779d0c293dd2acced58d9f64fd08bdedde234081476a3bd96947c52ca3984741d0ad5f56b0ab3f086720cb6da542d8f4c890e93dce1d46f6517163cc8d9a2f3e64f59584a623579477f0b7eb5bfbeb79d38b48801cd15e044e5ce48a9a8f98abe00cbc83c15674bdd14786fe51d5e12af368a4fe2ea8d4e7c2e4e738609463eafe50630dd68d766f5b700cb41dccf2264d57abf4e896b9b02b73cbc06c8b5df61db9a31372e914b1edeb341ed1006f3a78542fe0342d9889c3d249c1f5927a91942fe83ca931f42f332220d89af5d631729f3d256d205065c132c3d06f0ccc2d42e662875e46b70eaf36a12c2b1fb2155f8331d876585c83d3ec68e02533fffbd2a7681254657eb096e3fea3a5a315971b4d5eeb9048a1a7482be6d5ba5fc856a51f17c1a129660ec1ec7f82781dd0c983591bf30fad390aa35e64e7c2043900a963371ea2f088cb7eb84616d5f18e373f5d482f9054b9ff184f99c6a30d7ba3a2a192937bc0d6980bb048a1274ad39cfc2affaa97d0ff6e141a2ed8fe943b64a87b33ac0aa964540577bc871bad7172aac39cd86569583b3ce2226db6f1823d57925fd51be1b8345bf044d83c8de1a0f36af6aee94eed057be5b87a291ba5bf17d9e5a7cddd1a0f3b4e5f6ef5dc4d123dd9d027b6eca9b08e16643962425ce2bf50b0314cb38cb9830031aa3ea07adf8453663cb5a5b87d74121e709243964c3ac1ec748b5ee27acd8fc21aaf15efa4d6bdf894b7845274a05eeebabc3d087d1e1e5928ddf26d4d143bc487eb7a005a34fc5209aa560549fe382c8a43ffb75564d0cd2232ded4323aada0b6a490253a375bbc8ea60d9fc8d13fecc8cf7b1c7c449336bec2ea950ca3f49ad8ee561c9b60e3cd9d75d6f481af472277b4accbabc44da7ce23e4ebfbcc674c8879922a2c3d4504ea3190850018b62bf74226c753e090232beeb9b3e1b8f0d7fc8dcd8656eff9475904e56478c6255a38dcd20f1001a65350a0efb3a15893953f2d151197897ec41da27122545f9741ce33cefa41526b98b3117b62dc15e5aa25e2479c091c33a872f205eb3bf5d6a8338b898e67f45cf1141d676ecbe4618d6e884e203efd6a637eed117b789e73c5d06448980bd0391a510ee358e248602a639cca0082b869e49f500d51989448bc3795c09276883b354b063ea3f4b85920371dc40d094528722dcbe577a8bd66f22d33cc6fafd7e0efd07d91a9141a5bb5e87c52a725df95972232b4bf5e85c018f66e5462d9e07b229be0808529353f50731c471cb015647494b54130619c0c4096f71d10d673a0464225800547f4a9840a1d07013e93fae272496ad90faea60e9d5663d692fb6cbbe448be3b287320f0ae1bbbdbbc62cab64e0909130d0f69117abad7ed0a13f3c2f63accaf0d6d7e2df634d4a55b47d6476be46ab935d5d4bf74f448c0530c3d8b634dbc53b867baeeb892a5286252b0ec01f07038884e045473e1d95c0f2ae66dc530422fb612e931b91ee2913e0195f0047aa40f18cb3f916eeebd28d03aad26de544bf388521b9f04d563951609a5812526baa62dbdfd15fc0d2004782ddc9fafeb16bfc2179ded9af69a4c637e8801d3224685c8683a7959b1e43a3bc417e21b2355482a5f1b1822be8c2241901a4ba4580b252cfb1db6c6a8be3fc09a6490db23b0ab46e20d516a6f41ede82820d1c5d98ed44090b10828acb99849df3163640e8639a5a1befe2f3c38cd7bedd7557f175f77d40636413c4ec982c78860584f777cca6783d3d90d4bef686bbc1351a8f172af5caf896389906effff80abc7d5c02a05be71e7aa5a10379bbb7af7e6ec9d51cfdff5d946681882599025fba5235ac7c75cad0a207a3b7ed018c29206ab9ddcaa91a0f6719de154c93c59d6979a17a3c0be54ebd1ed2cfa45f9660bd7c0be9ad28abeea8e5985d1e6e14252bd2098dd567263b193fbf6f9be0f0cba549b5db916e5a145e80d9f96bc0f607a178bee5cd48d8f89574fd7c2abeaec540b03aea943de97e8397130596c6b6c592335b6ecd4289cfa2b313b356f4a724e24affa70a121ffa756aff3a3f2cc795ec267794c9c139e53c09f73f45cb12ab09c1e4d42476b6afe08e98d50394d2d0021db5f2c22413661074ac25ed52e0433f6387cda8600ad5e8df0b7169f41f2bee0934078b22a40019f511033c94492de8be9e211192b2225e9e602d521d1c865d60c86f73a5770475265d21fbb0930b47969784944d0e72f528661d0f7d515a53c8eced63c2aa8c7964c5ac66610d21953abbc61d8110980516fc9fb73ff62178d5ec6eeae2d8c7055a2592cd1a92024497c30c878181f7736f42e6aba71c997a10645599b92cffee5925ee16b68828b25f3813e6f7a461839d47777f00bdcf5a6811f07c8a9fde2d8fa633f73802e9ce71d99a4e49e7cab29f1ec20faf9e66fb70f6172a0bfd5e608a883dd236c09e76707a710a9245ce23221a0c5e83d455e2be6f44b3c520dce35c79b28fc4153eec22f7a6612face325f18b56d9e49dc1942a563c31092bd7f73b953fe71274d061a52f43db56ac5daf36fa3289816d9474fa411848569b099080c0f151f282935454d52686d82a0afbec7c9ceeefc050f4f50555682c4f7131a242e313237404c606c8c9aacb9ecfa01080d194a658b8c999cc6c8d4dae6f600000000000000000000000000000000161f304001",
        "00cf78f1fa1ee4d98670ffd27ef39df6c47dd2472c521c5bde7a9051cd26f824026f81a30e3d0a1240668eaac9fd2c0afeb5fbe9bcf7d7b3c858ae4c8cc365e7c57f98561988791dd247a48005d72639bc2275971bc47292d712a215f00bf16c5a10ed2e33f1b93bc238c392b9aa9b60098fab3668497c7a9b3a6b39e5e462a03e563711f2623a6b3e59dfbad52fc9a08722e4e138f960b45472d88354e7e67211076c8eae709ba17b1dc850c6df268d61684b35af220cc199a37302b8ceb8b9844b94c5b2b940ada2de67c39d24a4c128382f17f8aa4a7c9908cb1e15f0c6f86e7d1e70040daa05e1d4fc993c210ba84436910dd3c4139bc137c18eba15d82e8f16d173a7eb1f1d20a86842ac39efff1c43c95cd01bff7b51a008abaaaf4169787e9cd4b0388d7181d3cc49a81df6c580a7d85db4228e5b93c73465a821e1b373000547c7c1b21403ad369a065b949d84ad61d1c275a1240b2e6793d62a4a4bcbdd029d2bbc495b88155cd9f539f1b4567aed75d6e40ac6075b8c15bf81357777742d67f5e2d8964d1c21acee4ee9cec1c229e6e5c61d6f9a89eaf75d040605154f82bd79da8462a2939a3b2c8dc04ecaf8a9955a72e689c7ad1325d09ab77f2f41547f0130d7a88050369d29f1742d498c9c3eb76c065376c959b862373636d5f41f0b8ef148697ce8267767821cda1a674028a5c6cb35f14a0141c5eb4669473364fd1f72c02a44cd29db1de8a1c0f643352ab807d7d1af0ffca57864d0f6947ad86eb0c24bbbb5e8d988dba5d85aca78dffb1f8d8857ee7972360e04c704b544451b76ee0eb7b068fb21037dd9c3b1abf4c8b2cce147573621fbbaf9026b22ea00417b7a0a8b0ea9bc186f2d4de4c13070b00a1dfe035c0f7cc38d9234604d3eaaebd8d270e27c1dd4c3220db6c7fa7e735573c6427807b56b7dcae914253d9ca12d1f0df37fa5709a892cc3eb6d0212759bf098a56c09a95b2049b3ceab043cf6626ad31e45e8271c8a548bbe49b5da464b53ec9c9e5da1278bcc7e08d63beec030cfd8156a08882d05526ea7bb4f60f9f816e881c941a8d5dfd8fc074492c2a43f64a7af9d0a73a37304fee316ad1929cb349b74824232810c018b1d8c001d44c629d0b9dee82368da8d417a997f3747f3a1c5c818dfe12e6aab166185384cf07b61196f5d197f3bd44bb6db3cba7d0c2ce5eb6533f7d25b9cbf35fc4ddf3d463870f6238a88804204a80484dfc1e8a1bbd214e7976460c549741e82893d45b5d1fb6d79d21a9fdcc186934e5971b00fdf99b66cf08c2c86753587732c164ef0465d92afbf22dcd86140453ec681f3312f072a7e72d677339ea2e142239fdb2999d226a06454b2aee8bca2cd29a2bcebf2d5a5073c2e1ebe2dcdbd24a89e84e5902be77cf7c70a83fe44eecc2bfce3bcf0aeb700b6530fd2f190aa2acf24ca05b579d8d7b2ba83ded4573fba3b916123fb91c26039dabd2dc28749a09c62fb5018c62ca96df692896480b63ba18df211d3f34f70a591de58655f2edc2662d293fae936d9881e30f404745884b44b8eb325da16f42a6b260da19508863215e42ca5f08cc9b92b2cb552df2be3cf5424b666a45813e92536fe92c57032d7c1e1bf84ffd17d39088473d3f37d29e4b61f9caa4a9d75bc2d260d4f876436ed01b6a659d5d67e5e94f1ab2d34a274d20dc4398fde2ecb6732d631c89624916467e8cf0a82d8c097a733271af3e6afa93147660a227727c21151c2183fb4e276136f01f9b39cfcb8f8f4bde69e4991e34d020c24cf13879d5ece39675142e09f79b69c8299fa28392cd15e68094f7cead6d8aa975ff67234dd3b4e6b016ef058db"
      ],
      "sequence": 4294967294
    }
  ],
  "vout": [
    {
      "value": 499973.5606,
      "n": 0,
      "scriptPubKey": {
        "asm": "1 d397b64b38edd2f0fd685e5cae94b794953f4769059c7cd6688765b683e5a184",
        "hex": "5120d397b64b38edd2f0fd685e5cae94b794953f4769059c7cd6688765b683e5a184",
        "reqSigs": 1,
        "type": "witness_v1_scripthash",
        "addresses": [
          "3QJmnh"
        ]
      }
    },
    {
      "value": 1.0,
      "n": 1,
      "scriptPubKey": {
        "asm": "OP_RETURN 20ef7914dc644dfb81d0b94c0342f2eb35910e3b2796adff6e4a1826699a866a 2477bf71f5dd6022e0f8c340fae413e1fff3651032d3fef81fc9daf04ee208c404579f51d5fd4002c0d8e360dac433c1dfd3453012f3ded83fe9fad06ec228e46437ff31b59d2062a0b88300baa453a1bfb325507293beb85f899ab00ea248844417df1195bd00428098a3209a8473819f93057052b39e987fa9ba902e8268a4a4f73ff1755de0a2607843c07a6493617f73e590b2537e789f495a70ce62884484d71fd1557dc082405863e05a44b3415f53c5b092735e58bf697a50ee42a864e4b77fb1351da0e2203803803a24d3213f33a5d0f2133e38df091a308e22c804c4975f91153d80c2001823a01a04f3011f1385f0d2331e18ff293a10ae02e8242477bf71f5dd6022e0f8c340fae413e1fff3651032d3fef81fc9daf04ee208c404579f51d5fd4002c0d8e360dac433c1dfd3453012f3ded83fe9fad06ec228e46437ff31b59d2062a0b88300baa453a1bfb325507293beb85f899ab00ea248844417df1195bd00428098a3209a8473819f93057052b39e987fa9ba902e8268a4a4f73ff1755de0a2607843c07a6493617f73e590b2537e789f495a70ce62884484d71fd1557dc082405863e05a44b3415f53c5b092735e58bf697a50ee42a864e4b77fb1351da0e2203803803a24d3213f33a5d0f2133e38df091a308e22c804c4975f91153d80c2001823a01a04f3011f1385f0d2331e18ff293a10ae02e8242477bf71f5dd6022e0f8c340fae413e1fff3651032d3fef81fc9daf04ee208c404579f51d5fd4002c0d8e360dac433c1dfd3453012f3ded83fe9fad06ec228e46437ff31b59d2062a0b88300baa453a1bfb325507293beb85f899ab00ea248844417df1195bd00428098a3209a8473819f93057052b39e987fa9ba902e8268a4a4f73ff1755de0a2607843c07a6493617f73e590b2537e789f495a70ce62884484d71fd1557dc082405863e05a44b3415f53c5b092735e58bf697a50ee42a864e4b77fb1351da0e2203803803a24d3213f33a5d0f2133e38df091a308e22c804c4975f91153d80c2001823a01a04f3011f1385f0d2331e18ff293a10ae02e8242477bf71f5dd6022e0f8c340fae413e1fff3651032d3fef81fc9daf04ee208c404579f51d5fd4002c0d8e360dac433c1dfd3453012f3ded83fe9fad06ec228e46437ff31b59d2062a0b88300baa453a1bfb325507293beb85f899ab00ea248844417df1195bd00428098a3209a8473819f93057052b39e987fa9ba902e8268a4a4f73ff1755de0a2607843c07a6493617f73e590b2537e789f495a70ce62884484d71fd1557dc082405863e05a44b3415f53c5b092735e58bf697a50ee42a864e4b77fb1351da0e2203803803a24d3213f33a5d0f2133e38df091a308e22c804c4975f91153d80c2001823a01a04f3011f1385f0d2331e18ff293a10ae02e8242477bf71f5dd6022e0f8c340fae413e1fff3651032d3fef81fc9daf04ee208c404579f51d5fd4002c0d8e360dac433c1dfd3453012f3ded83fe9fad06ec228e46437ff31b59d2062a0b88300baa453a1bfb325507293beb85f899ab00ea248844417df1195bd00428098a3209a8473819f93057052b39e987fa9ba902e8268a4a4f73ff1755de0a2607843c07a64936104ddbd00290bc469914cf8780204f6699a4ab79268240b5b3dd709fa21301a55",
        "hex": "6a2020ef7914dc644dfb81d0b94c0342f2eb35910e3b2796adff6e4a1826699a866a4db0042477bf71f5dd6022e0f8c340fae413e1fff3651032d3fef81fc9daf04ee208c404579f51d5fd4002c0d8e360dac433c1dfd3453012f3ded83fe9fad06ec228e46437ff31b59d2062a0b88300baa453a1bfb325507293beb85f899ab00ea248844417df1195bd00428098a3209a8473819f93057052b39e987fa9ba902e8268a4a4f73ff1755de0a2607843c07a6493617f73e590b2537e789f495a70ce62884484d71fd1557dc082405863e05a44b3415f53c5b092735e58bf697a50ee42a864e4b77fb1351da0e2203803803a24d3213f33a5d0f2133e38df091a308e22c804c4975f91153d80c2001823a01a04f3011f1385f0d2331e18ff293a10ae02e8242477bf71f5dd6022e0f8c340fae413e1fff3651032d3fef81fc9daf04ee208c404579f51d5fd4002c0d8e360dac433c1dfd3453012f3ded83fe9fad06ec228e46437ff31b59d2062a0b88300baa453a1bfb325507293beb85f899ab00ea248844417df1195bd00428098a3209a8473819f93057052b39e987fa9ba902e8268a4a4f73ff1755de0a2607843c07a6493617f73e590b2537e789f495a70ce62884484d71fd1557dc082405863e05a44b3415f53c5b092735e58bf697a50ee42a864e4b77fb1351da0e2203803803a24d3213f33a5d0f2133e38df091a308e22c804c4975f91153d80c2001823a01a04f3011f1385f0d2331e18ff293a10ae02e8242477bf71f5dd6022e0f8c340fae413e1fff3651032d3fef81fc9daf04ee208c404579f51d5fd4002c0d8e360dac433c1dfd3453012f3ded83fe9fad06ec228e46437ff31b59d2062a0b88300baa453a1bfb325507293beb85f899ab00ea248844417df1195bd00428098a3209a8473819f93057052b39e987fa9ba902e8268a4a4f73ff1755de0a2607843c07a6493617f73e590b2537e789f495a70ce62884484d71fd1557dc082405863e05a44b3415f53c5b092735e58bf697a50ee42a864e4b77fb1351da0e2203803803a24d3213f33a5d0f2133e38df091a308e22c804c4975f91153d80c2001823a01a04f3011f1385f0d2331e18ff293a10ae02e8242477bf71f5dd6022e0f8c340fae413e1fff3651032d3fef81fc9daf04ee208c404579f51d5fd4002c0d8e360dac433c1dfd3453012f3ded83fe9fad06ec228e46437ff31b59d2062a0b88300baa453a1bfb325507293beb85f899ab00ea248844417df1195bd00428098a3209a8473819f93057052b39e987fa9ba902e8268a4a4f73ff1755de0a2607843c07a6493617f73e590b2537e789f495a70ce62884484d71fd1557dc082405863e05a44b3415f53c5b092735e58bf697a50ee42a864e4b77fb1351da0e2203803803a24d3213f33a5d0f2133e38df091a308e22c804c4975f91153d80c2001823a01a04f3011f1385f0d2331e18ff293a10ae02e8242477bf71f5dd6022e0f8c340fae413e1fff3651032d3fef81fc9daf04ee208c404579f51d5fd4002c0d8e360dac433c1dfd3453012f3ded83fe9fad06ec228e46437ff31b59d2062a0b88300baa453a1bfb325507293beb85f899ab00ea248844417df1195bd00428098a3209a8473819f93057052b39e987fa9ba902e8268a4a4f73ff1755de0a2607843c07a64936104ddbd00290bc469914cf8780204f6699a4ab79268240b5b3dd709fa21301a55",
        "type": "nulldata"
      }
    }
  ],
  "blockhash": "3f7b66b34673dd56727b9b27d02dfa4f8333ff75e8b72ddccb546061f2a7d063",
  "confirmations": 1,
  "time": 1764180681,
  "blocktime": 1764180681
}