{
  "hex": "0100000000010152502f96cc45eb6c378b75a44e3250eeae0ceef533e08e6c12e2daa54078429b0000000000feffffff0200774227792d0000225120167c671e996636f7ecce34698fd37c58113c3a7744240758f683e51cdd65241c00e1f50500000000fdd5046a200aa54d886aa05765343fde7aab9d32b613648cd1b33e1fbf16d4b804a32e540f4db004b9575958e69d98500e7f68e062245e911e74e0cb6b7199d01e05ae5a53b4bb8999777978c6bdb8702e5f48c042047eb13e54c0eb4b51b9f03e258e7a73949ba9f9171918a6ddd8104e3f28a022641ed15e34a08b2b31d9905e45ee1a13f4fbc9d937393886fdf8306e1f088002443ef17e1480ab0b11f9b07e65ce3a33d4dbe939d7d9d8661d18d08effe860e2a4de119ef4604bebf119509e852edad3343b0919f7f9f8463d38f0aedfc840c284fe31bed4406bcbd13970bea50efaf3141b2979979998265d5890cebfa820a2e49e51deb4200babb15910dec56e9a93747b4959b7b9b8067d78b0ee9f880082c4be71fe94002b8b917930fee54ebab3545b69b9575958e69d98500e7f68e062245e911e74e0cb6b7199d01e05ae5a53b4bb8999777978c6bdb8702e5f48c042047eb13e54c0eb4b51b9f03e258e7a73949ba9f9171918a6ddd8104e3f28a022641ed15e34a08b2b31d9905e45ee1a13f4fbc9d937393886fdf8306e1f088002443ef17e1480ab0b11f9b07e65ce3a33d4dbe939d7d9d8661d18d08effe860e2a4de119ef4604bebf119509e852edad3343b0919f7f9f8463d38f0aedfc840c284fe31bed4406bcbd13970bea50efaf3141b2979979998265d5890cebfa820a2e49e51deb4200babb15910dec56e9a93747b4959b7b9b8067d78b0ee9f880082c4be71fe94002b8b917930fee54ebab3545b69b9575958e69d98500e7f68e062245e911e74e0cb6b7199d01e05ae5a53b4bb8999777978c6bdb8702e5f48c042047eb13e54c0eb4b51b9f03e258e7a73949ba9f9171918a6ddd8104e3f28a022641ed15e34a08b2b31d9905e45ee1a13f4fbc9d937393886fdf8306e1f088002443ef17e1480ab0b11f9b07e65ce3a33d4dbe939d7d9d8661d18d08effe860e2a4de119ef4604bebf119509e852edad3343b0919f7f9f8463d38f0aedfc840c284fe31bed4406bcbd13970bea50efaf3141b2979979998265d5890cebfa820a2e49e51deb4200babb15910dec56e9a93747b4959b7b9b8067d78b0ee9f880082c4be71fe94002b8b917930fee54ebab3545b69b9575958e69d98500e7f68e062245e911e74e0cb6b7199d01e05ae5a53b4bb8999777978c6bdb8702e5f48c042047eb13e54c0eb4b51b9f03e258e7a73949ba9f9171918a6ddd8104e3f28a022641ed15e34a08b2b31d9905e45ee1a13f4fbc9d937393886fdf8306e1f088002443ef17e1480ab0b11f9b07e65ce3a33d4dbe939d7d9d8661d18d08effe860e2a4de119ef4604bebf119509e852edad3343b0919f7f9f8463d38f0aedfc840c284fe31bed4406bcbd13970bea50efaf3141b2979979998265d5890cebfa820a2e49e51deb4200babb15910dec56e9a93747b4959b7b9b8067d78b0ee9f880082c4be71fe94002b8b917930fee54ebab3545b69b9575958e69d98500e7f68e062245e911e74e0cb6b7199d01e05ae5a53b4bb8999777978c6bdb8702e5f48c042047eb13e54c0eb4b51b9f03e258e7a73949ba9f9171918a6ddd8104e3f28a022641ed15e34a08b2b31d9905e45ee1a13f4fbc9d937393886fdf8306e1f088002443ef17e1480ab0b11f9b07e65ce3a33d4dbe939d7d9d8661d18d08effe860e2a4de110f0df83c45cf6ce7e5bd573053f932ea9b2c2ae0feefb3b9edd23610435308ca02fd7509c9bc1c9de245492f1f6b9abda57091eacfe217bd7802374e3f5c4d7c5f97de751448e3130e983190af27685085d102546f21ce963d09f601c1b47708f2bc5e19492db6173c90fdb6b1fb87899f084184ae580d9aa1ea7e9cbf8777acf87ece988616139773a1dfcaf9fd6d6bc3c2f3749b11315926cb71bd151c9a09b2a10c67fdc956fd2bb725b976141bdb2646bd88ac1b350f26238accb80e85fbd4f74ebb3091c90ebdd1ec975dd280307cc6862275a7468f572456b5b6ff6f482e66a9badbfe08988f20467eeb16e95e14ededcee6b80bb088139f76fe17960f339c65011d3fd5c8fe8f9ffa284ec9429dffef95b208dd80d5975a0b2f612e56373fe753f4b51449358890ddb665de1f75d8b58f88a7dcae8ceab01f0eeb14ab073718064d0b5a1727e3cfd03f6489a8f13e0ac3ded3a7f5b341aaa0c2baf2c8dbb8986ebf0cce1dd66ed4eeb55361a5fd4a07b0ed24906458cffc562800e0a69b4216af215941803062d45916e6cfdf092764be760ee009c23f8332276a07ca93d2d45f09b50f160c243b8ad97fc8c9f9b130f9fd29cefa2d8e31ff180c5fe8b7b69fcc01b7fefb05278829b3eef22f9d68a6f85f95ed5438594c162e73924e6ed85cd389db27d6e6108c5f7414f31c298e597159dba5ec5b47d4cf7b3463b88d8e6076d23dc9dcd71d1ba59a9eeae809d583527c3a598a7042a38259e4e502ef0ec1941b2c73d1970839e4cf47daf4903c461687902d0c3206bd6377a4f79af2fdd741871638c108d3d466ae4369773d59ecdc4fde2e0adfaf396df41941e941de2b732fe54699d5c582fc71a1ea3208991ea9bad2f8594b954dd35e4881256640368eadf761e77896c8521d4106eacd19dfc80a84da605f3f6f5293160bf7ecd055ef696c887d4d3270fbafdf425c410c13d2e6f1a5cbeedbff94876037e04df496f90d515018a5d22cbc38ca926dfa055e84e4e44391ab2036c5bc09c13cbdb4190b6a3b7601d750ec1a4a5e0587eca371b787f855bd534d90364214c121e3d6ac1704d3c21bbb9a3fcda3fcc87640b3cc98d7352fd4f67b33e4012f287058f4ba5a326e8320beb9a41efe344120e45de93d746cb4c46b8f4fc024f5978714c7804ca88a297cc99e0728c0825fad2505f2df0fcdf024c3887d7331119fbc825ee1130836733c7cf441ef8e266e14c6f2f247993a39015413569c3e397f66f47a3fadb472d604fc241090899ae3c8e20bb8d63556243cbefb97456aaf600ea43d89b101ba6cbcc62354663864658d405847fbe485208d3036bb418cd41f11dac7f4f20c5c7ffdfee87ff5c488ec796e4bef8f671c758b6166b615b4568e3becbe10e20b33f64c14c3042defc8586bddc52f8c29c3e922399c5603002511f16764c3518b5920948ec46329e85517d0cce07ac3b16d4845a92f4683029a5b0724302df0f2b4af5039ce141934a1f1fa8038f954670d783421977a815d814517306be24d9d54f3b30ffd51980c98c284af1c0d217a6301173749ff49db3ac4426639528f8fd7f37d4f1615794e852161c6f6eeba1c28aae26cdb08ed0eb11bec3829aa014f48e19142994febedb8d3d58975cf57b7cf7d4246f6a6517473c021883bf7a76c2132b07abe4c52dafe55ad11cb31c246b26e5e730038a8faf239f37b93dd3e3274e3ab86ec01e1c5ac9305afc8043c9788003d2aaba5b379cc167efaeb295d2349f3d997a612898343ea265ca8dfdfc51c38cc92223683c881e9e249a88d77fb4594ed7e47bc34619b5a64f3cb0841c4e51c4b58ac8f01b03fad2d2121a3ba533547f99365619037327395575820a3ce6d5611f11ed752265ed5c436411d9c79ef7527f1d9dc06d69aa8e76129966cee2b02b82fad0a082d566e29f314a5e91e5ab849717134b341279a288578e303961133931835c771522fdde35ea16ff1873537519564dcb48257af3512530ce02050618b336bf0dc5241376b384dba90635e36158787979952166ce6d7f2f5eb3f25172106bee4c314a67fd67a987a7e8c22b647993da7b5a0841643adae544c67dd504b6b1341b5df9c2a4adb5a97f9217ac425f18478cf465a7ec1f627ebef37d9cbd04669ab96174a8897a5a0cb37b990b6681a215dfa07725051254f8084859d95f856198798001216ec3024440b51d485be6a188018919b192e5043d411443dbfd64338db0aa5897779931fb0dbf08476f68ab8377f64eb06da1e94573b09f306519c2bb2de0e4be6e2f331a727a2c7064d2ab4cbfff73b1fab950220e215789ea96dd97e79c3f50c1d5419fe524d48601452c033f529de0e42bdbbaf03d8fabc98f9867cc2c8bbd4acb844f580a020fa258b16ee1f3948044adcaf156a3ec47101ac0cc80e9a9aac16454158cce13a8d11de5408bc5133ab4ad23aefb32c333d04caf14c86802d8b5dc277f1fd5ac817bdef246a34f9fe42579baa3e7eb728aefe3afc780502738ae0ffbd735f62672249ba387fc4cc25546e9075ddce51b2f77b99c8fb6f3871f0f968ed29d3731785a927007d291b8452b80a91f694f2affbc85de03af7125f1f59b71237f74502380cfc534b408a402fef8b3d6f5aa6ee7578f36eea0da8eb8ce957f18fc80a2c45c62dbf97b4ac2cb65c95bba297e43ffffa2694a687d894d79d484d030bbbaa1c8c652e46ecb386a5cdd9b9dc43408251bf7162385bf36fc3a24f81a69c402290632c0142188c0c9b11cbfc2fccaa76e6c4d7b5f80cbc0a0bd19780a444fe4428e0b02ff7bafea301f57bcb53e769ff1350c09e3c90bc8e8ab089d19804dbbe3ba4db8608388eaeb4970ee7ac4197cf3c5e5da542daf8bf21bcf43d2fbef1e780b87e74c41d961c76479df0b2259c4b32c6bf3d963ac5bb70e4bdb179421063a05f8983de32c76b5d80074d8992e512ddf7bd59556346f6c716fbc2f3f7778c4348f9c588113fc518cd83de7fff4af42999945dcbdd41dd7a17c8998437c65a674a47bcb6cc66327376f4d5949da7f4fc1130d8949875045fc1675103f5343e2af0e420056ea0fd1d69201da70175d18827458785203638198bb240a95c4cb1bbaca9d8329ddf62dc65e313fddc8f093ba8c5a00e74fe4d29dd7f2108d5f909012ee8898fb1a2f7d4212e231b018e44d44a4e6662aeb84e25ab2af614b68426701292a450dfd7ebf0de3c0ca136297839ff90d3a51e6e4b37caec6ad4882a5349c122a054572fb9831188d22b4159ec828c22e6f522491868bb4d3250a479acf4255aa176133f4d4d7e11288031f0fd22770e698a5280000488136c376c0103040713173e54575a689198999a9db7d6e7ebf402193b464c63697c7d828f969ab2c6d3e0e2191f465a5b5c607481879fa0a3a7b8bec6c8d3effb1d1f202e343b49616a719cd7eef400000000000015273c4a01fd21050090845fda2b7173ef395f904bbd99289202839e31811d285fed879d2817b32f8dd443d5f9505050afb9c41c0d917a60c95e175f5e9bf47d8e64714e2ea25c4d303ac5799c47a7c2daa286868f5ac16e87342f58db570de44c027cb7dec4a11530c63c2c54c601dc9f4450c495d77f9194c24afadc6bf053dc63aed2f4203d7c427da82262ac6196558e5f50a05014573c5f1d449ba8f2322ebf52f922d8b6b7ddddcc1bd6270a9b9bb0b7ab3be37da87cb9aa6e14d97eba94bbfded1a76921df3f7525cdbd48d55befef4acd10d0a1e51dc541f94916efb019d7d2a384db37e1def46791dc0663420052b9550abd65521db6080024c49b209aa59e02090a544c4ea44b42d405831be1ae2b6a445b0a3a0772e505139f64b0557d7c8a1c014f78f57c31270d5e0a8b08068999665793b5a466fbc89ab5ced7daf90754cd1aa7a1ce8ab4df1e17ec2c47198f952655777da2c777d6a20be7cea4ea374da8a581b8ed6124946b8be6e3e14cdba1e17a7d01621dc86fd8fd42b2ab327f84fc21f2f9e0135dd83284f9150caef0f5a7acbecab864ef9d1c424b56f507dc545307257dcd8465338f933a8767eb31ccd916d28780db69ea3cc28f9b85a04b91f710bcd0e75a4ae68bf920d078c7f429e48421f989555061f4536a8c6c7c5b9e67e0c7c19c0d85b7c2c3805943dc4543a9958ab6687cbf3068aa6d7b8e9c08aaf88e13f9f7f1a786072536c2fe551327507631181eef6e620be33f554c3fc9d56bea170f85aa8ba3dce278f0a53327b0b41cc70e5ccd67fd9c44b3e34ebda8c8ee8ae51202adf502ec6b6ca3466ab2af9cbe8649c3927efd1682261988b5d47815b71562e0066a9c7b672d6f5b55561654bbc2ae5e3c6ebf3d26f383497551a9d956ca8e17badde6e04ffb9ba1086eb3a4802f9d0c6c2ae6a58df924d33d89aeba8ca0ac465ab00546805fd3379909ae49addbc7626dd9d9fae09379c46a2396fb2c6c3dc50080f83ea585515007e49710ae003087adc516e49bc2cb2c463928650e06c97a13024efb265c786ce50afd6e42d6f552ee9d1730a64af7300ccac641396187c823f4d7ef160c9d8a200ab242f48689f4029d45914b19d39fd0fe3e0922a589b56e2975a59d0ec3b35b17e25b75d4fd10a2f69c454d9df3b247090b409a4fc19cbf51958b53ec793b7d67cc87f972817dd1496cbac3ab8db7474bba596678bef12d16cdcebf5e979682824421b44b45c28803ffa66bfef9e6bb928b2c31d1a05265fc5a191afbb986c874ff8973761267b193dd89cc22fac6e64b553f21171ce426e779cfa8fcca4ef2cd9ed3ea68a3f654fc23ff3a19d96d298abf15f5f7d051c6f34dce2d9d9438ee625dc21e42d19316254b01c773f0d8912c62385cbd4ce6cb83165ae34e4fa7138e145d3675919f2148b7804ac987fbc743efe753f77b044093185a3b23006b36a4c7c16eaae2e40748eb24370ff51698b9d951e3cb66f4c5f503e642dbe2519a3529fdef49f326e3b01471cad62856aa8719538ef7461adbf5f357f607ecef95aace2bfc32fc78b932d2e61185bf2ab01b318845650734ed6dda6493e5071bf84a7ee5fca2ca06c7b01eec88926aa01718bdb35f56aaed5042418feffe7c31886e684eda1121416630d72c395ec02b0fa976fb862dcf24b2c52ef9c976495fe1dbe9796f64937dcdc7c80e79398b279c8c948eebb009bab19d3796b8268fddda9404295010a322ef676055dd72cd53eae1396e757765d10a8005e7fed855270ae4f99454aa1007be30333303e5127e6e07b37e5b95660b5cf6e1b57cb137fbf74773317e5f8d577931dbaeafa7a67b9600c14be58788272000000",
  "txid": "eee093e778213eae98bc3fdb07d632e59cd9ade62f5a8544f3d7ddbeccd5e099",
  "hash": "65d89dc96548cab02dc5e54db48462561b44317215e5d31fb30b18770f6691a0",
  "size": 5085,
  "vsize": 2278,
  "version": 1,
  "locktime": 114,
  "vin": [
    {
      "txid": "9b427840a5dae2126c8ee033f5ee0caeee50324ea4758b376ceb45cc962f5052",
      "vout": 0,
      "scriptSig": {
        "asm": "",
        "hex": ""
      },
      "txinwitness": [
        "c9bc1c9de245492f1f6b9abda57091eacfe217bd7802374e3f5c4d7c5f97de751448e3130e983190af27685085d102546f21ce963d09f601c1b47708f2bc5e19492db6173c90fdb6b1fb87899f084184ae580d9aa1ea7e9cbf8777acf87ece988616139773a1dfcaf9fd6d6bc3c2f3749b11315926cb71bd151c9a09b2a10c67fdc956fd2bb725b976141bdb2646bd88ac1b350f26238accb80e85fbd4f74ebb3091c90ebdd1ec975dd280307cc6862275a7468f572456b5b6ff6f482e66a9badbfe08988f20467eeb16e95e14ededcee6b80bb088139f76fe17960f339c65011d3fd5c8fe8f9ffa284ec9429dffef95b208dd80d5975a0b2f612e56373fe753f4b51449358890ddb665de1f75d8b58f88a7dcae8ceab01f0eeb14ab073718064d0b5a1727e3cfd03f6489a8f13e0ac3ded3a7f5b341aaa0c2baf2c8dbb8986ebf0cce1dd66ed4eeb55361a5fd4a07b0ed24906458cffc562800e0a69b4216af215941803062d45916e6cfdf092764be760ee009c23f8332276a07ca93d2d45f09b50f160c243b8ad97fc8c9f9b130f9fd29cefa2d8e31ff180c5fe8b7b69fcc01b7fefb05278829b3eef22f9d68a6f85f95ed5438594c162e73924e6ed85cd389db27d6e6108c5f7414f31c298e597159dba5ec5b47d4cf7b3463b88d8e6076d23dc9dcd71d1ba59a9eeae809d583527c3a598a7042a38259e4e502ef0ec1941b2c73d1970839e4cf47daf4903c461687902d0c3206bd6377a4f79af2fdd741871638c108d3d466ae4369773d59ecdc4fde2e0adfaf396df41941e941de2b732fe54699d5c582fc71a1ea3208991ea9bad2f8594b954dd35e4881256640368eadf761e77896c8521d4106eacd19dfc80a84da605f3f6f5293160bf7ecd055ef696c887d4d3270fbafdf425c410c13d2e6f1a5cbeedbff94876037e04df496f90d515018a5d22cbc38ca926dfa055e84e4e44391ab2036c5bc09c13cbdb4190b6a3b7601d750ec1a4a5e0587eca371b787f855bd534d90364214c121e3d6ac1704d3c21bbb9a3fcda3fcc87640b3cc98d7352fd4f67b33e4012f287058f4ba5a326e8320beb9a41efe344120e45de93d746cb4c46b8f4fc024f5978714c7804ca88a297cc99e0728c0825fad2505f2df0fcdf024c3887d7331119fbc825ee1130836733c7cf441ef8e266e14c6f2f247993a39015413569c3e397f66f47a3fadb472d604fc241090899ae3c8e20bb8d63556243cbefb97456aaf600ea43d89b101ba6cbcc62354663864658d405847fbe485208d3036bb418cd41f11dac7f4f20c5c7ffdfee87ff5c488ec796e4bef8f671c758b6166b615b4568e3becbe10e20b33f64c14c3042defc8586bddc52f8c29c3e922399c5603002511f16764c3518b5920948ec46329e85517d0cce07ac3b16d4845a92f4683029a5b0724302df0f2b4af5039ce141934a1f1fa8038f954670d783421977a815d814517306be24d9d54f3b30ffd51980c98c284af1c0d217a6301173749ff49db3ac4426639528f8fd7f37d4f1615794e852161c6f6eeba1c28aae26cdb08ed0eb11bec3829aa014f48e19142994febedb8d3d58975cf57b7cf7d4246f6a6517473c021883bf7a76c2132b07abe4c52dafe55ad11cb31c246b26e5e730038a8faf239f37b93dd3e3274e3ab86ec01e1c5ac9305afc8043c9788003d2aaba5b379cc167efaeb295d2349f3d997a612898343ea265ca8dfdfc51c38cc92223683c881e9e249a88d77fb4594ed7e47bc34619b5a64f3cb0841c4e51c4b58ac8f01b03fad2d2121a3ba533547f99365619037327395575820a3ce6d5611f11ed752265ed5c436411d9c79ef7527f1d9dc06d69aa8e76129966cee2b02b82fad0a082d566e29f314a5e91e5ab849717134b341279a288578e303961133931835c771522fdde35ea16ff1873537519564dcb48257af3512530ce02050618b336bf0dc5241376b384dba90635e36158787979952166ce6d7f2f5eb3f25172106bee4c314a67fd67a987a7e8c22b647993da7b5a0841643adae544c67dd504b6b1341b5df9c2a4adb5a97f9217ac425f18478cf465a7ec1f627ebef37d9cbd04669ab96174a8897a5a0cb37b990b6681a215dfa07725051254f8084859d95f856198798001216ec3024440b51d485be6a188018919b192e5043d411443dbfd64338db0aa5897779931fb0dbf08476f68ab8377f64eb06da1e94573b09f306519c2bb2de0e4be6e2f331a727a2c7064d2ab4cbfff73b1fab950220e215789ea96dd97e79c3f50c1d5419fe524d48601452c033f529de0e42bdbbaf03d8fabc98f9867cc2c8bbd4acb844f580a020fa258b16ee1f3948044adcaf156a3ec47101ac0cc80e9a9aac16454158cce13a8d11de5408bc5133ab4ad23aefb32c333d04caf14c86802d8b5dc277f1fd5ac817bdef246a34f9fe42579baa3e7eb728aefe3afc780502738ae0ffbd735f62672249ba387fc4cc25546e9075ddce51b2f77b99c8fb6f3871f0f968ed29d3731785a927007d291b8452b80a91f694f2affbc85de03af7125f1f59b71237f74502380cfc534b408a402fef8b3d6f5aa6ee7578f36eea0da8eb8ce957f18fc80a2c45c62dbf97b4ac2cb65c95bba297e43ffffa2694a687d894d79d484d030bbbaa1c8c652e46ecb386a5cdd9b9dc43408251bf7162385bf36fc3a24f81a69c402290632c0142188c0c9b11cbfc2fccaa76e6c4d7b5f80cbc0a0bd19780a444fe4428e0b02ff7bafea301f57bcb53e769ff1350c09e3c90bc8e8ab089d19804dbbe3ba4db8608388eaeb4970ee7ac4197cf3c5e5da542daf8bf21bcf43d2fbef1e780b87e74c41d961c76479df0b2259c4b32c6bf3d963ac5bb70e4bdb179421063a05f8983de32c76b5d80074d8992e512ddf7bd59556346f6c716fbc2f3f7778c4348f9c588113fc518cd83de7fff4af42999945dcbdd41dd7a17c8998437c65a674a47bcb6cc66327376f4d5949da7f4fc1130d8949875045fc1675103f5343e2af0e420056ea0fd1d69201da70175d18827458785203638198bb240a95c4cb1bbaca9d8329ddf62dc65e313fddc8f093ba8c5a00e74fe4d29dd7f2108d5f909012ee8898fb1a2f7d4212e231b018e44d44a4e6662aeb84e25ab2af614b68426701292a450dfd7ebf0de3c0ca136297839ff90d3a51e6e4b37caec6ad4882a5349c122a054572fb9831188d22b4159ec828c22e6f522491868bb4d3250a479acf4255aa176133f4d4d7e11288031f0fd22770e698a5280000488136c376c0103040713173e54575a689198999a9db7d6e7ebf402193b464c63697c7d828f969ab2c6d3e0e2191f465a5b5c607481879fa0a3a7b8bec6c8d3effb1d1f202e343b49616a719cd7eef400000000000015273c4a01",
        "0090845fda2b7173ef395f904bbd99289202839e31811d285fed879d2817b32f8dd443d5f9505050afb9c41c0d917a60c95e175f5e9bf47d8e64714e2ea25c4d303ac5799c47a7c2daa286868f5ac16e87342f58db570de44c027cb7dec4a11530c63c2c54c601dc9f4450c495d77f9194c24afadc6bf053dc63aed2f4203d7c427da82262ac6196558e5f50a05014573c5f1d449ba8f2322ebf52f922d8b6b7ddddcc1bd6270a9b9bb0b7ab3be37da87cb9aa6e14d97eba94bbfded1a76921df3f7525cdbd48d55befef4acd10d0a1e51dc541f94916efb019d7d2a384db37e1def46791dc0663420052b9550abd65521db6080024c49b209aa59e02090a544c4ea44b42d405831be1ae2b6a445b0a3a0772e505139f64b0557d7c8a1c014f78f57c31270d5e0a8b08068999665793b5a466fbc89ab5ced7daf90754cd1aa7a1ce8ab4df1e17ec2c47198f952655777da2c777d6a20be7cea4ea374da8a581b8ed6124946b8be6e3e14cdba1e17a7d01621dc86fd8fd42b2ab327f84fc21f2f9e0135dd83284f9150caef0f5a7acbecab864ef9d1c424b56f507dc545307257dcd8465338f933a8767eb31ccd916d28780db69ea3cc28f9b85a04b91f710bcd0e75a4ae68bf920d078c7f429e48421f989555061f4536a8c6c7c5b9e67e0c7c19c0d85b7c2c3805943dc4543a9958ab6687cbf3068aa6d7b8e9c08aaf88e13f9f7f1a786072536c2fe551327507631181eef6e620be33f554c3fc9d56bea170f85aa8ba3dce278f0a53327b0b41cc70e5ccd67fd9c44b3e34ebda8c8ee8ae51202adf502ec6b6ca3466ab2af9cbe8649c3927efd1682261988b5d47815b71562e0066a9c7b672d6f5b55561654bbc2ae5e3c6ebf3d26f383497551a9d956ca8e17badde6e04ffb9ba1086eb3a4802f9d0c6c2ae6a58df924d33d89aeba8ca0ac465ab00546805fd3379909ae49addbc7626dd9d9fae09379c46a2396fb2c6c3dc50080f83ea585515007e49710ae003087adc516e49bc2cb2c463928650e06c97a13024efb265c786ce50afd6e42d6f552ee9d1730a64af7300ccac641396187c823f4d7ef160c9d8a200ab242f48689f4029d45914b19d39fd0fe3e0922a589b56e2975a59d0ec3b35b17e25b75d4fd10a2f69c454d9df3b247090b409a4fc19cbf51958b53ec793b7d67cc87f972817dd1496cbac3ab8db7474bba596678bef12d16cdcebf5e979682824421b44b45c28803ffa66bfef9e6bb928b2c31d1a05265fc5a191afbb986c874ff8973761267b193dd89cc22fac6e64b553f21171ce426e779cfa8fcca4ef2cd9ed3ea68a3f654fc23ff3a19d96d298abf15f5f7d051c6f34dce2d9d9438ee625dc21e42d19316254b01c773f0d8912c62385cbd4ce6cb83165ae34e4fa7138e145d3675919f2148b7804ac987fbc743efe753f77b044093185a3b23006b36a4c7c16eaae2e40748eb24370ff51698b9d951e3cb66f4c5f503e642dbe2519a3529fdef49f326e3b01471cad62856aa8719538ef7461adbf5f357f607ecef95aace2bfc32fc78b932d2e61185bf2ab01b318845650734ed6dda6493e5071bf84a7ee5fca2ca06c7b01eec88926aa01718bdb35f56aaed5042418feffe7c31886e684eda1121416630d72c395ec02b0fa976fb862dcf24b2c52ef9c976495fe1dbe9796f64937dcdc7c80e79398b279c8c948eebb009bab19d3796b8268fddda9404295010a322ef676055dd72cd53eae1396e757765d10a8005e7fed855270ae4f99454aa1007be30333303e5127e6e07b37e5b95660b5cf6e1b57cb137fbf74773317e5f8d577931dbaeafa7a67b9600c14be587882"
      ],
      "sequence": 4294967294
    }
  ],
  "vout": [
    {
      "value": 499983.7296,
      "n": 0,
      "scriptPubKey": {
        "asm": "1 167c671e996636f7ecce34698fd37c58113c3a7744240758f683e51cdd65241c",
        "hex": "5120167c671e996636f7ecce34698fd37c58113c3a7744240758f683e51cdd65241c",
        "reqSigs": 1,
        "type": "witness_v1_scripthash",
        "addresses": [
          "3QJmnh"
        ]
      }
    },
    {
      "value": 1.0,
      "n": 1,
      "scriptPubKey": {
        "asm": "OP_RETURN 0aa54d886aa05765343fde7aab9d32b613648cd1b33e1fbf16d4b804a32e540f b9575958e69d98500e7f68e062245e911e74e0cb6b7199d01e05ae5a53b4bb8999777978c6bdb8702e5f48c042047eb13e54c0eb4b51b9f03e258e7a73949ba9f9171918a6ddd8104e3f28a022641ed15e34a08b2b31d9905e45ee1a13f4fbc9d937393886fdf8306e1f088002443ef17e1480ab0b11f9b07e65ce3a33d4dbe939d7d9d8661d18d08effe860e2a4de119ef4604bebf119509e852edad3343b0919f7f9f8463d38f0aedfc840c284fe31bed4406bcbd13970bea50efaf3141b2979979998265d5890cebfa820a2e49e51deb4200babb15910dec56e9a93747b4959b7b9b8067d78b0ee9f880082c4be71fe94002b8b917930fee54ebab3545b69b9575958e69d98500e7f68e062245e911e74e0cb6b7199d01e05ae5a53b4bb8999777978c6bdb8702e5f48c042047eb13e54c0eb4b51b9f03e258e7a73949ba9f9171918a6ddd8104e3f28a022641ed15e34a08b2b31d9905e45ee1a13f4fbc9d937393886fdf8306e1f088002443ef17e1480ab0b11f9b07e65ce3a33d4dbe939d7d9d8661d18d08effe860e2a4de119ef4604bebf119509e852edad3343b0919f7f9f8463d38f0aedfc840c284fe31bed4406bcbd13970bea50efaf3141b2979979998265d5890cebfa820a2e49e51deb4200babb15910dec56e9a93747b4959b7b9b8067d78b0ee9f880082c4be71fe94002b8b917930fee54ebab3545b69b9575958e69d98500e7f68e062245e911e74e0cb6b7199d01e05ae5a53b4bb8999777978c6bdb8702e5f48c042047eb13e54c0eb4b51b9f03e258e7a73949ba9f9171918a6ddd8104e3f28a022641ed15e34a08b2b31d9905e45ee1a13f4fbc9d937393886fdf8306e1f088002443ef17e1480ab0b11f9b07e65ce3a33d4dbe939d7d9d8661d18d08effe860e2a4de119ef4604bebf119509e852edad3343b0919f7f9f8463d38f0aedfc840c284fe31bed4406bcbd13970bea50efaf3141b2979979998265d5890cebfa820a2e49e51deb4200babb15910dec56e9a93747b4959b7b9b8067d78b0ee9f880082c4be71fe94002b8b917930fee54ebab3545b69b9575958e69d98500e7f68e062245e911e74e0cb6b7199d01e05ae5a53b4bb8999777978c6bdb8702e5f48c042047eb13e54c0eb4b51b9f03e258e7a73949ba9f9171918a6ddd8104e3f28a022641ed15e34a08b2b31d9905e45ee1a13f4fbc9d937393886fdf8306e1f088002443ef17e1480ab0b11f9b07e65ce3a33d4dbe939d7d9d8661d18d08effe860e2a4de119ef4604bebf119509e852edad3343b0919f7f9f8463d38f0aedfc840c284fe31bed4406bcbd13970bea50efaf3141b2979979998265d5890cebfa820a2e49e51deb4200babb15910dec56e9a93747b4959b7b9b8067d78b0ee9f880082c4be71fe94002b8b917930fee54ebab3545b69b9575958e69d98500e7f68e062245e911e74e0cb6b7199d01e05ae5a53b4bb8999777978c6bdb8702e5f48c042047eb13e54c0eb4b51b9f03e258e7a73949ba9f9171918a6ddd8104e3f28a022641ed15e34a08b2b31d9905e45ee1a13f4fbc9d937393886fdf8306e1f088002443ef17e1480ab0b11f9b07e65ce3a33d4dbe939d7d9d8661d18d08effe860e2a4de110f0df83c45cf6ce7e5bd573053f932ea9b2c2ae0feefb3b9edd23610435308ca",
        "hex": "6a200aa54d886aa05765343fde7aab9d32b613648cd1b33e1fbf16d4b804a32e540f4db004b9575958e69d98500e7f68e062245e911e74e0cb6b7199d01e05ae5a53b4bb8999777978c6bdb8702e5f48c042047eb13e54c0eb4b51b9f03e258e7a73949ba9f9171918a6ddd8104e3f28a022641ed15e34a08b2b31d9905e45ee1a13f4fbc9d937393886fdf8306e1f088002443ef17e1480ab0b11f9b07e65ce3a33d4dbe939d7d9d8661d18d08effe860e2a4de119ef4604bebf119509e852edad3343b0919f7f9f8463d38f0aedfc840c284fe31bed4406bcbd13970bea50efaf3141b2979979998265d5890cebfa820a2e49e51deb4200babb15910dec56e9a93747b4959b7b9b8067d78b0ee9f880082c4be71fe94002b8b917930fee54ebab3545b69b9575958e69d98500e7f68e062245e911e74e0cb6b7199d01e05ae5a53b4bb8999777978c6bdb8702e5f48c042047eb13e54c0eb4b51b9f03e258e7a73949ba9f9171918a6ddd8104e3f28a022641ed15e34a08b2b31d9905e45ee1a13f4fbc9d937393886fdf8306e1f088002443ef17e1480ab0b11f9b07e65ce3a33d4dbe939d7d9d8661d18d08effe860e2a4de119ef4604bebf119509e852edad3343b0919f7f9f8463d38f0aedfc840c284fe31bed4406bcbd13970bea50efaf3141b2979979998265d5890cebfa820a2e49e51deb4200babb15910dec56e9a93747b4959b7b9b8067d78b0ee9f880082c4be71fe94002b8b917930fee54ebab3545b69b9575958e69d98500e7f68e062245e911e74e0cb6b7199d01e05ae5a53b4bb8999777978c6bdb8702e5f48c042047eb13e54c0eb4b51b9f03e258e7a73949ba9f9171918a6ddd8104e3f28a022641ed15e34a08b2b31d9905e45ee1a13f4fbc9d937393886fdf8306e1f088002443ef17e1480ab0b11f9b07e65ce3a33d4dbe939d7d9d8661d18d08effe860e2a4de119ef4604bebf119509e852edad3343b0919f7f9f8463d38f0aedfc840c284fe31bed4406bcbd13970bea50efaf3141b2979979998265d5890cebfa820a2e49e51deb4200babb15910dec56e9a93747b4959b7b9b8067d78b0ee9f880082c4be71fe94002b8b917930fee54ebab3545b69b9575958e69d98500e7f68e062245e911e74e0cb6b7199d01e05ae5a53b4bb8999777978c6bdb8702e5f48c042047eb13e54c0eb4b51b9f03e258e7a73949ba9f9171918a6ddd8104e3f28a022641ed15e34a08b2b31d9905e45ee1a13f4fbc9d937393886fdf8306e1f088002443ef17e1480ab0b11f9b07e65ce3a33d4dbe939d7d9d8661d18d08effe860e2a4de119ef4604bebf119509e852edad3343b0919f7f9f8463d38f0aedfc840c284fe31bed4406bcbd13970bea50efaf3141b2979979998265d5890cebfa820a2e49e51deb4200babb15910dec56e9a93747b4959b7b9b8067d78b0ee9f880082c4be71fe94002b8b917930fee54ebab3545b69b9575958e69d98500e7f68e062245e911e74e0cb6b7199d01e05ae5a53b4bb8999777978c6bdb8702e5f48c042047eb13e54c0eb4b51b9f03e258e7a73949ba9f9171918a6ddd8104e3f28a022641ed15e34a08b2b31d9905e45ee1a13f4fbc9d937393886fdf8306e1f088002443ef17e1480ab0b11f9b07e65ce3a33d4dbe939d7d9d8661d18d08effe860e2a4de110f0df83c45cf6ce7e5bd573053f932ea9b2c2ae0feefb3b9edd23610435308ca",
        "type": "nulldata"
      }
    }
  ],
  "blockhash": "a404c97fd79b0f74ac8935f18e4afcd6ffd73e4b441b9f6bd67a7215b8c8499e",
  "confirmations": 1,
  "time": 1764178774,
  "blocktime": 1764178774
}