{
  "hex": "010000000001019e06a52286e888c98dd7ea523410b060f297be196856eb83952efcab8a7cb1c90100000000feffffff0200e1f50500000000fdd5046a205f24be6f523661aba7b0459957c3f77a0c9f960950eab72fd209b836507be5794db004adbebc94ddd36122a38c98e892b011ae36af681d5c74cc2e035c510f563249b58d9e9cb4fdf3410283acb8c8b290318e168f483d7c54ec0e237c712f76126995edfefcd49d932162e3ccd8a8d2f051ee76ef285d1c348c6e431c114f167209f5cddedcf4bdb30142c3ecf888f2d071ce56cf087d3c14ac4e633c316f365229d52d3e3c145d53e1a2230c18681230912eb62fe89ddcf44cae83dcd18fd6b2c9350d1e1c347d73c182032c38483210b10e960fc8bdfcd46c8ea3fcf1aff692e9156d7e7c541d13a1e2634c58285270d16ef66fa8dd9cb40ceec39c91cf96f289754d5e5c743d3381c2436c78087250f14ed64f88fdbc942ccee3bcb1efb6d2a955adbebc94ddd36122a38c98e892b011ae36af681d5c74cc2e035c510f563249b58d9e9cb4fdf3410283acb8c8b290318e168f483d7c54ec0e237c712f76126995edfefcd49d932162e3ccd8a8d2f051ee76ef285d1c348c6e431c114f167209f5cddedcf4bdb30142c3ecf888f2d071ce56cf087d3c14ac4e633c316f365229d52d3e3c145d53e1a2230c18681230912eb62fe89ddcf44cae83dcd18fd6b2c9350d1e1c347d73c182032c38483210b10e960fc8bdfcd46c8ea3fcf1aff692e9156d7e7c541d13a1e2634c58285270d16ef66fa8dd9cb40ceec39c91cf96f289754d5e5c743d3381c2436c78087250f14ed64f88fdbc942ccee3bcb1efb6d2a955adbebc94ddd36122a38c98e892b011ae36af681d5c74cc2e035c510f563249b58d9e9cb4fdf3410283acb8c8b290318e168f483d7c54ec0e237c712f76126995edfefcd49d932162e3ccd8a8d2f051ee76ef285d1c348c6e431c114f167209f5cddedcf4bdb30142c3ecf888f2d071ce56cf087d3c14ac4e633c316f365229d52d3e3c145d53e1a2230c18681230912eb62fe89ddcf44cae83dcd18fd6b2c9350d1e1c347d73c182032c38483210b10e960fc8bdfcd46c8ea3fcf1aff692e9156d7e7c541d13a1e2634c58285270d16ef66fa8dd9cb40ceec39c91cf96f289754d5e5c743d3381c2436c78087250f14ed64f88fdbc942ccee3bcb1efb6d2a955adbebc94ddd36122a38c98e892b011ae36af681d5c74cc2e035c510f563249b58d9e9cb4fdf3410283acb8c8b290318e168f483d7c54ec0e237c712f76126995edfefcd49d932162e3ccd8a8d2f051ee76ef285d1c348c6e431c114f167209f5cddedcf4bdb30142c3ecf888f2d071ce56cf087d3c14ac4e633c316f365229d52d3e3c145d53e1a2230c18681230912eb62fe89ddcf44cae83dcd18fd6b2c9350d1e1c347d73c182032c38483210b10e960fc8bdfcd46c8ea3fcf1aff692e9156d7e7c541d13a1e2634c58285270d16ef66fa8dd9cb40ceec39c91cf96f289754d5e5c743d3381c2436c78087250f14ed64f88fdbc942ccee3bcb1efb6d2a955adbebc94ddd36122a38c98e892b011ae36af681d5c74cc2e035c510f563249b58d9e9cb4fdf3410283acb8c8b290318e168f483d7c54ec0e237c712f76126995edfefcd49d932162e3ccd8a8d2f051ee76ef285d1c348c6e431c114f167209f5cddedcf4bdb30142c3ecf888f2d071ce56cf087d3c14ac4e633c316f365229d52d3e3c145d53e1a2230c18681230912e8a9e844aa60fb1805c7a4e82c01f2d20e1ae53d16548736767ac9c9b906a16094021813f792d00002251204aacb09df64c07ffb1097599273e7c12b09487c5ce19303bfeb784e1e7d0904402fd7509de0c34614502fcd159a72f8876788ed3824e1c7329f496ab2ba8ddc7ed2e8d72d3f829fd594a766671aabacc9f8c158005cfaf2a2ded83f3f975ac7a0db3fc511410358acda45e1f324867f07ae19dab6ea68e1497375bf50e4671ef301de0bc2cd25a16656e0f8127864895ef9a7c68f2ff90824a51e2471654eba646f2881876cb86490d18d23c736728ab2afef41724c1197b0366469122eb2b0e59c23217ff42f918682a572083fa1a4b5779b3dfeaa49e951aa3ba9314da39b7ad328a39d810d53acee855c180cc6ca9a8348a5a2ddade3f315a089f56e34e19ae87784a325b4d4bab5ea0830dad4e1bb7b7cd23cec6032bba0db15b4f886a7bf4b0b3e89823f118f1a68b8e224c70ce2f7dab88158735995fb6756ea3bee1f185d8aed0194b871058dad27d12412f0b31fb73a9da547d6135ac64c3c7cc73f88349b7398fdf9f7de43c886fe2023670fa1fe4a85849082718096e8f23ae154dbf38953649110e8c4e0dcf59bdf4b1540a3bc85c122a4777ee1b53f2131aa3a88104ae2af772a8edab40e9cd675472e8826e8b7a91eb63df5ffa00c20501190c57712bc678c2a3ad84e0ee5bded23d04b047464034841cf94cf40f82d101d0aeba365b9796f3946d60669b4e73bb307444f31011a422c4452ff58b2a9b44a143de5910a11472339bfd9918a18ebfc9b826682c279a6ee64cb4a98e56627ae8de9efe2cd0496602e206f6f8d39dd6b63d6de5c9ccd5afd00efdf7aab10afbbbcefba6795cc4299cd966c99396e2a978e73b2594ab3f4f8d595c5c1345d3f5a61cd1f6951369a4d174ca9f0b70da0d2aaf6231952abb25d4143dcffee86f64065391e59876575df78a246073aa4ba13a4fd173005962b98d5dfac68b4dbb8b19ca48b1512a341bce0ae8cb40b8037beadc851873208f0d336430806026f2dfdef35e447005cd38567ea3d28344af3867bf4121ada17449a8573f2d34bbcb244cd2dde6d14b72572f844b589a19cfe619e461045c1bf7b8f9d69bf275a4e5c9c2dc62537b3ff56fe7c01477cc3c8a07102b06bb263513d04ef7a4111fa8199471c9c859c9b01ee0fe5c9854114d57c9bec4015d837504e6f5a921df8ffe7b5086c9e918d3ed199ab8c66bf55e63187b81e3ea99dbe89b34511884f5b7b80566c18aa4925157620d22cf4d6a1cf121aa43326db30df54f74fd48b07214eeaa55632408639162605b96f16fb6b9c3034fa5b7649895219b401048d6f7a48385e98756d8e9cc33aeb44af24302a06a70039a92c87be5a0626f55b6582d9a14d6f964c7f00a622c3ed7084ce6d40c7b87c7258b42c5420ac757ae69056a0e2af0aaefd9144c641ce944fa299124f0af480c7ab2d1d90604f74eac099c16080264ab0ad88d8b88cdb0852740ff3518033f305aa253ff7b7bb8c58f7e5db2153150f64d42ba81960a5e37ddd95edf1ca616a73f8c19b1fdd3675720c8679628ba6c9aa3952b6b926dd1676ee34693f6132ee52457e5b5ae744e96e83fe061c881691f992d4ebd4ec400c1c6129967ca5721346ad97f83825569de040bf4ba1f9f443430980493f255b3c4f12eff392909408c3243df2395c922cc357d55adae49dea07b341ead39bb0ca36674d98b41cc9d6f3e7dec2d745c5275b14ac285d463c34e17b8732e5ec8f0471c935e37b7ba13f6192a2b27af9be22ae01013e191f4d08cef7bc4bc55697c14dff87051ba42eb478972e9fefd8cea48ae4766e94969ed42b01e892c406149daf3ac490d396807924fc8ba03e99b6a89e9bf133c18901a1eadec685f1246dccec93756b34dc9f4d02da167b8aa2cb96bf7e8d699b7964adde59f8d0c3681085ae129051f962f1ad8240a3ae5820bc89d77b1c7b92e0f883c22c4ae72745955139be4c33efc660e358c1de187b28d89b797411d4ff22f3600bb0aab05e7bb87fa278f24bf4eff396a2093acfe693846918fba2d5606decd5a6eb0923831c7569377abaeb76665ef7cff94c614fd797797da53f5b5d1e244330d9b4b2fb94ad9c61e28350f71145c27bd8ffd11fa17454e88fcfdc6a4a9343cd9dceea6707a75992c1ae25be7c4741bca66b6032dd56d2f5f1044e930cd0a91010db4a40aa1ed06b7c903ab2077fd2143022ffaf76ab35336928a196d5517410296235ed75af316149d587f4e5ac94138cb86423f5164b23e31197abb95175c0367811d07368b3389cbd1c70ca8563cdd96e4bb253e51d57def2850d3cce0d03e3ef399565259fccd8453dec60f14e7dbfaccd481776385654168e810385e46e9a32b1830535e8bba63f80f848beaf08b3aeda2031c94027b58cbe2e86e98114a654b72a103ddc57de8e75815406ef36942854cb17bf347dba5ed9f92510d97c58fcc9cb9f8ebe719b6621fb968ae0635e1cabe6cf81cbf87f029c5f855315849a69e3881eea6888a3fc894d21e3d83d90a5206407eec7cf03f2b5b0af34bd869cacb328bd6deffe47f7050b684a54f5c82f8112f10cb3073e97f3e82fd5594f5159608a4cc284fc17276c872cc6c5eb9d93076e3ebbce8869a242c57f4843c3c4a979b9555ca0f8cf02d42429590a006e2e5c14c0399281147247af98b7e4294501f52b70895c8f47faeb73ae0a3cf3230bf5181b36403ccba1b7eba2637b3225fc463d80dd8f1beb5d949b6c9959d9c57a226fd73aa95885323dbe65a1e124e92f79710397f8a2296407bd6c1a6e1feaaa41b98247ef896044a8f9419cc5f8b1ffc46bc81b4c4168bca716dfe2cc1b335b16353ab9cdd050d67e2ee56e1fc59710c2689ea2de71948e44937d46c7c9a8a9bbaae3ceab508bd547559a8fcc9847a66ce5dbc97fb4cc1eb602b0573df76174683fdda195981e7d89aaceb499aaf3493fc3a580e121a7cacf463e03eead6da0991b670a48fd2da69e799dc8a62f1930b29201e19a9e8ac86105e64eb3a39961243776be97626349af16ffd478f23d854f80b29db00b01156a5639b91635a0bdebb19f01c2bcde0ef7e7316e54ee48cea0baac3588f30c9a310d65521b9ee35b57d6c80bb08f55bff586d884e5abbb7c27eee6f7265bcf2ca125a032d43418ee6bdf062ff0dbd4bd1684caad43c3915bcf7f31b0ece915ce5f51ea8525ebb98bba789e5034ae528a4e0e248fd5783612546a601e16b812d50928b3bf11b01025b2772cd11d66b1ab24d310d59f4f0b9ff86c8bc56b6e838e212e3e4be8fc1e2919371131aecf0351b7592d581e3f2b166673b09e6fdbd98c6689ad155ef17f3ea20b0b114ee71e4aab9213620463fa9a015f3380c222f32434b506e97cbf2030c184c4d5e787c91a3bfc4c8f1090c2c30394353768598a6acbabec1d8d9e1f7fa1d444c4f686a6f8d8ea2afd2dbdee5f4000000000000000000000000000000000000000b192d3d01fd210500ad1c825aa7756390f59ea778545cd3e5ebbb537a89f7fd6e8ab685baa83c61d1e1d547436d2c26d055c27dcf2e69637404bc0e0d8a01086c2304d400d46fedc8600601d53712bf4b6b054f2f5cf46eaaf238b2ecbf45a5a62c4f96401b416e02c6c00d2c295e3e1304029ecd126026c93d99c8f0afee0e9616c9cca653e5d815ab117e63ea40afc9d8b4f6555c676d83b545fc6ba0d28d1d6823d7c3aa56451214a36e40a45a4bc39b29d9368fc698ea052dccc5261f38beb7cbe6c7860e8d2a578991089edda55999b30c7d04b1f9e017c53a1925061c46e5bdf6e2ed5820056e7905043434549f2615fa1c72f7c36560afe4efa1d40db475124693decaf1e5f2207d06924d6145f02725966002bf97c869dee1af5d6c04f8067b191619b88cc6eb8e3eea781772a1d789c690ade6c6d5f6dd6c7f6ff93209f8d5b0f12b7a3254be338aaadc93496bb590951c25521b006722d2e3c8c428a3f4314cf449a78ab042425ea3f3737045d46b32a309d3e077c173e5d4c5ee71d4e335868b075985404e95d167897a2e3025614aea7f015ce052fc64fa0d9509fa96db0d744067c88c7042d0da9c377ffe6d8543733b80d56df167713bd1564f14677460a75ae766c215e1ac54e8da22162c59e9929f6f0234cd7d06531a207a705185f899d3f16f26f8ca01b351a5d8ffae4b182fa52b7577bedf4daebcce41f918d350abc5ef13b71f118fd0beab008e8d72a86a028f113675ced3e463a01e29f7f676d88c398020f1aa0dc5ed4ae9edd4d2b4d7aa8db122cde54f789ab724d5bed25e2b34fdd3c8db65276671eabb79698b24b5bb41eb62626a2be34180ca28c6cf68bce8f067b7ff31cc96df6695ef901afc4fb9df2a690534109070e3e3bc879bcd06e1457b1407fbd8310e373a3134fcbed763a075502f19f8e26a463b874915a0891e3dcfecd44eaccad380c32ecccb5f01ae6ec1ded659a76fd0384dae6352c4ba777cb09b3e7a0290e973dc86f6f0ad9f71e41d6fc6fe29aa8696752d27ad52a42dcbee3d389c0c5c39f58dee6ffd7cabf50724c5b3b67e46cf9513d90bd539f3228faea1e6da0302d8f8c58987d25cbbd41efcf64946a0c911e5817f5175b04e1eecbb1e8d1253e9de5fc902de6f44bf420ba42f21c3aa50a41a0d0fce825ae873c7bf8a806a6da78af5a56101dcf0821ede3db53d9f41cdac75cd0903d20db348201e416759fc354ed379ce00fe98adbb71e3ab845fa237d50c9d052c284e4c089a16b261d7d2a7b32545720ed819d0ed190ff7d4c05884b7f9e52f04daaa0ba7f9f7bd463d55e40922d71bf1fee16ed2f9e4a4d415270dc794be0e102ec84a7bae3dcf5506688e6723f7022cacb505e081f5df6a78407f861b6309aa63dfb3a4be89ff7cf6963284f105db7654d79f3e6f198db51631221ece14ecf14e8ca0dd7c46f3104536649f346ca1b1ec8c9a4289c42fa915b61561d9424c7df934995677b9df5f3a3bddcf3044cead4f5660a532383e71cb4a50af132064423aab1d023d9cde9d2efd4c10198279908d1a5215f52813806308be174e2491107f2c844fa6eb0a25831e946de41641d8d6050872b7be787b36edc7e9f1089362584937df5596b740c1384bef0a73cf24d021b541acd38df81d8728af93b795bbd5fbea90858549c7b1707c436cfe67a414003cdfe93e8529d67ba204f9caa3134f24bf7fd7141aba748b2d42efb653a89c87fb5bd30ee26a6cd58a01599f770a741f275f03a7a064b56f9b6e184ded04ff035ee1119be61ac20f684cd85760af43f320083b9adda9be3ef48332f9bab87d0622b071b8075e0438f4531e1483d95fc1b9199aa573000000",
  "txid": "ebbad7391c820208c33ff194db1cef8dcae4f74562873295a8e3f3184bf02fad",
  "hash": "7898d4625a97788ae0461f860c9358452031f4841b9320fd602beb457845eefc",
  "size": 5085,
  "vsize": 2278,
  "version": 1,
  "locktime": 115,
  "vin": [
    {
      "txid": "c9b17c8aabfc2e9583eb566819be97f260b0103452ead78dc988e88622a5069e",
      "vout": 1,
      "scriptSig": {
        "asm": "",
        "hex": ""
      },
      "txinwitness": [
        "de0c34614502fcd159a72f8876788ed3824e1c7329f496ab2ba8ddc7ed2e8d72d3f829fd594a766671aabacc9f8c158005cfaf2a2ded83f3f975ac7a0db3fc511410358acda45e1f324867f07ae19dab6ea68e1497375bf50e4671ef301de0bc2cd25a16656e0f8127864895ef9a7c68f2ff90824a51e2471654eba646f2881876cb86490d18d23c736728ab2afef41724c1197b0366469122eb2b0e59c23217ff42f918682a572083fa1a4b5779b3dfeaa49e951aa3ba9314da39b7ad328a39d810d53acee855c180cc6ca9a8348a5a2ddade3f315a089f56e34e19ae87784a325b4d4bab5ea0830dad4e1bb7b7cd23cec6032bba0db15b4f886a7bf4b0b3e89823f118f1a68b8e224c70ce2f7dab88158735995fb6756ea3bee1f185d8aed0194b871058dad27d12412f0b31fb73a9da547d6135ac64c3c7cc73f88349b7398fdf9f7de43c886fe2023670fa1fe4a85849082718096e8f23ae154dbf38953649110e8c4e0dcf59bdf4b1540a3bc85c122a4777ee1b53f2131aa3a88104ae2af772a8edab40e9cd675472e8826e8b7a91eb63df5ffa00c20501190c57712bc678c2a3ad84e0ee5bded23d04b047464034841cf94cf40f82d101d0aeba365b9796f3946d60669b4e73bb307444f31011a422c4452ff58b2a9b44a143de5910a11472339bfd9918a18ebfc9b826682c279a6ee64cb4a98e56627ae8de9efe2cd0496602e206f6f8d39dd6b63d6de5c9ccd5afd00efdf7aab10afbbbcefba6795cc4299cd966c99396e2a978e73b2594ab3f4f8d595c5c1345d3f5a61cd1f6951369a4d174ca9f0b70da0d2aaf6231952abb25d4143dcffee86f64065391e59876575df78a246073aa4ba13a4fd173005962b98d5dfac68b4dbb8b19ca48b1512a341bce0ae8cb40b8037beadc851873208f0d336430806026f2dfdef35e447005cd38567ea3d28344af3867bf4121ada17449a8573f2d34bbcb244cd2dde6d14b72572f844b589a19cfe619e461045c1bf7b8f9d69bf275a4e5c9c2dc62537b3ff56fe7c01477cc3c8a07102b06bb263513d04ef7a4111fa8199471c9c859c9b01ee0fe5c9854114d57c9bec4015d837504e6f5a921df8ffe7b5086c9e918d3ed199ab8c66bf55e63187b81e3ea99dbe89b34511884f5b7b80566c18aa4925157620d22cf4d6a1cf121aa43326db30df54f74fd48b07214eeaa55632408639162605b96f16fb6b9c3034fa5b7649895219b401048d6f7a48385e98756d8e9cc33aeb44af24302a06a70039a92c87be5a0626f55b6582d9a14d6f964c7f00a622c3ed7084ce6d40c7b87c7258b42c5420ac757ae69056a0e2af0aaefd9144c641ce944fa299124f0af480c7ab2d1d90604f74eac099c16080264ab0ad88d8b88cdb0852740ff3518033f305aa253ff7b7bb8c58f7e5db2153150f64d42ba81960a5e37ddd95edf1ca616a73f8c19b1fdd3675720c8679628ba6c9aa3952b6b926dd1676ee34693f6132ee52457e5b5ae744e96e83fe061c881691f992d4ebd4ec400c1c6129967ca5721346ad97f83825569de040bf4ba1f9f443430980493f255b3c4f12eff392909408c3243df2395c922cc357d55adae49dea07b341ead39bb0ca36674d98b41cc9d6f3e7dec2d745c5275b14ac285d463c34e17b8732e5ec8f0471c935e37b7ba13f6192a2b27af9be22ae01013e191f4d08cef7bc4bc55697c14dff87051ba42eb478972e9fefd8cea48ae4766e94969ed42b01e892c406149daf3ac490d396807924fc8ba03e99b6a89e9bf133c18901a1eadec685f1246dccec93756b34dc9f4d02da167b8aa2cb96bf7e8d699b7964adde59f8d0c3681085ae129051f962f1ad8240a3ae5820bc89d77b1c7b92e0f883c22c4ae72745955139be4c33efc660e358c1de187b28d89b797411d4ff22f3600bb0aab05e7bb87fa278f24bf4eff396a2093acfe693846918fba2d5606decd5a6eb0923831c7569377abaeb76665ef7cff94c614fd797797da53f5b5d1e244330d9b4b2fb94ad9c61e28350f71145c27bd8ffd11fa17454e88fcfdc6a4a9343cd9dceea6707a75992c1ae25be7c4741bca66b6032dd56d2f5f1044e930cd0a91010db4a40aa1ed06b7c903ab2077fd2143022ffaf76ab35336928a196d5517410296235ed75af316149d587f4e5ac94138cb86423f5164b23e31197abb95175c0367811d07368b3389cbd1c70ca8563cdd96e4bb253e51d57def2850d3cce0d03e3ef399565259fccd8453dec60f14e7dbfaccd481776385654168e810385e46e9a32b1830535e8bba63f80f848beaf08b3aeda2031c94027b58cbe2e86e98114a654b72a103ddc57de8e75815406ef36942854cb17bf347dba5ed9f92510d97c58fcc9cb9f8ebe719b6621fb968ae0635e1cabe6cf81cbf87f029c5f855315849a69e3881eea6888a3fc894d21e3d83d90a5206407eec7cf03f2b5b0af34bd869cacb328bd6deffe47f7050b684a54f5c82f8112f10cb3073e97f3e82fd5594f5159608a4cc284fc17276c872cc6c5eb9d93076e3ebbce8869a242c57f4843c3c4a979b9555ca0f8cf02d42429590a006e2e5c14c0399281147247af98b7e4294501f52b70895c8f47faeb73ae0a3cf3230bf5181b36403ccba1b7eba2637b3225fc463d80dd8f1beb5d949b6c9959d9c57a226fd73aa95885323dbe65a1e124e92f79710397f8a2296407bd6c1a6e1feaaa41b98247ef896044a8f9419cc5f8b1ffc46bc81b4c4168bca716dfe2cc1b335b16353ab9cdd050d67e2ee56e1fc59710c2689ea2de71948e44937d46c7c9a8a9bbaae3ceab508bd547559a8fcc9847a66ce5dbc97fb4cc1eb602b0573df76174683fdda195981e7d89aaceb499aaf3493fc3a580e121a7cacf463e03eead6da0991b670a48fd2da69e799dc8a62f1930b29201e19a9e8ac86105e64eb3a39961243776be97626349af16ffd478f23d854f80b29db00b01156a5639b91635a0bdebb19f01c2bcde0ef7e7316e54ee48cea0baac3588f30c9a310d65521b9ee35b57d6c80bb08f55bff586d884e5abbb7c27eee6f7265bcf2ca125a032d43418ee6bdf062ff0dbd4bd1684caad43c3915bcf7f31b0ece915ce5f51ea8525ebb98bba789e5034ae528a4e0e248fd5783612546a601e16b812d50928b3bf11b01025b2772cd11d66b1ab24d310d59f4f0b9ff86c8bc56b6e838e212e3e4be8fc1e2919371131aecf0351b7592d581e3f2b166673b09e6fdbd98c6689ad155ef17f3ea20b0b114ee71e4aab9213620463fa9a015f3380c222f32434b506e97cbf2030c184c4d5e787c91a3bfc4c8f1090c2c30394353768598a6acbabec1d8d9e1f7fa1d444c4f686a6f8d8ea2afd2dbdee5f4000000000000000000000000000000000000000b192d3d01",
        "00ad1c825aa7756390f59ea778545cd3e5ebbb537a89f7fd6e8ab685baa83c61d1e1d547436d2c26d055c27dcf2e69637404bc0e0d8a01086c2304d400d46fedc8600601d53712bf4b6b054f2f5cf46eaaf238b2ecbf45a5a62c4f96401b416e02c6c00d2c295e3e1304029ecd126026c93d99c8f0afee0e9616c9cca653e5d815ab117e63ea40afc9d8b4f6555c676d83b545fc6ba0d28d1d6823d7c3aa56451214a36e40a45a4bc39b29d9368fc698ea052dccc5261f38beb7cbe6c7860e8d2a578991089edda55999b30c7d04b1f9e017c53a1925061c46e5bdf6e2ed5820056e7905043434549f2615fa1c72f7c36560afe4efa1d40db475124693decaf1e5f2207d06924d6145f02725966002bf97c869dee1af5d6c04f8067b191619b88cc6eb8e3eea781772a1d789c690ade6c6d5f6dd6c7f6ff93209f8d5b0f12b7a3254be338aaadc93496bb590951c25521b006722d2e3c8c428a3f4314cf449a78ab042425ea3f3737045d46b32a309d3e077c173e5d4c5ee71d4e335868b075985404e95d167897a2e3025614aea7f015ce052fc64fa0d9509fa96db0d744067c88c7042d0da9c377ffe6d8543733b80d56df167713bd1564f14677460a75ae766c215e1ac54e8da22162c59e9929f6f0234cd7d06531a207a705185f899d3f16f26f8ca01b351a5d8ffae4b182fa52b7577bedf4daebcce41f918d350abc5ef13b71f118fd0beab008e8d72a86a028f113675ced3e463a01e29f7f676d88c398020f1aa0dc5ed4ae9edd4d2b4d7aa8db122cde54f789ab724d5bed25e2b34fdd3c8db65276671eabb79698b24b5bb41eb62626a2be34180ca28c6cf68bce8f067b7ff31cc96df6695ef901afc4fb9df2a690534109070e3e3bc879bcd06e1457b1407fbd8310e373a3134fcbed763a075502f19f8e26a463b874915a0891e3dcfecd44eaccad380c32ecccb5f01ae6ec1ded659a76fd0384dae6352c4ba777cb09b3e7a0290e973dc86f6f0ad9f71e41d6fc6fe29aa8696752d27ad52a42dcbee3d389c0c5c39f58dee6ffd7cabf50724c5b3b67e46cf9513d90bd539f3228faea1e6da0302d8f8c58987d25cbbd41efcf64946a0c911e5817f5175b04e1eecbb1e8d1253e9de5fc902de6f44bf420ba42f21c3aa50a41a0d0fce825ae873c7bf8a806a6da78af5a56101dcf0821ede3db53d9f41cdac75cd0903d20db348201e416759fc354ed379ce00fe98adbb71e3ab845fa237d50c9d052c284e4c089a16b261d7d2a7b32545720ed819d0ed190ff7d4c05884b7f9e52f04daaa0ba7f9f7bd463d55e40922d71bf1fee16ed2f9e4a4d415270dc794be0e102ec84a7bae3dcf5506688e6723f7022cacb505e081f5df6a78407f861b6309aa63dfb3a4be89ff7cf6963284f105db7654d79f3e6f198db51631221ece14ecf14e8ca0dd7c46f3104536649f346ca1b1ec8c9a4289c42fa915b61561d9424c7df934995677b9df5f3a3bddcf3044cead4f5660a532383e71cb4a50af132064423aab1d023d9cde9d2efd4c10198279908d1a5215f52813806308be174e2491107f2c844fa6eb0a25831e946de41641d8d6050872b7be787b36edc7e9f1089362584937df5596b740c1384bef0a73cf24d021b541acd38df81d8728af93b795bbd5fbea90858549c7b1707c436cfe67a414003cdfe93e8529d67ba204f9caa3134f24bf7fd7141aba748b2d42efb653a89c87fb5bd30ee26a6cd58a01599f770a741f275f03a7a064b56f9b6e184ded04ff035ee1119be61ac20f684cd85760af43f320083b9adda9be3ef48332f9bab87d0622b071b8075e0438f4531e1483d95fc1b9199aa5"
      ],
      "sequence": 4294967294
    }
  ],
  "vout": [
    {
      "value": 1.0,
      "n": 0,
      "scriptPubKey": {
        "asm": "OP_RETURN 5f24be6f523661aba7b0459957c3f77a0c9f960950eab72fd209b836507be579 adbebc94ddd36122a38c98e892b011ae36af681d5c74cc2e035c510f563249b58d9e9cb4fdf3410283acb8c8b290318e168f483d7c54ec0e237c712f76126995edfefcd49d932162e3ccd8a8d2f051ee76ef285d1c348c6e431c114f167209f5cddedcf4bdb30142c3ecf888f2d071ce56cf087d3c14ac4e633c316f365229d52d3e3c145d53e1a2230c18681230912eb62fe89ddcf44cae83dcd18fd6b2c9350d1e1c347d73c182032c38483210b10e960fc8bdfcd46c8ea3fcf1aff692e9156d7e7c541d13a1e2634c58285270d16ef66fa8dd9cb40ceec39c91cf96f289754d5e5c743d3381c2436c78087250f14ed64f88fdbc942ccee3bcb1efb6d2a955adbebc94ddd36122a38c98e892b011ae36af681d5c74cc2e035c510f563249b58d9e9cb4fdf3410283acb8c8b290318e168f483d7c54ec0e237c712f76126995edfefcd49d932162e3ccd8a8d2f051ee76ef285d1c348c6e431c114f167209f5cddedcf4bdb30142c3ecf888f2d071ce56cf087d3c14ac4e633c316f365229d52d3e3c145d53e1a2230c18681230912eb62fe89ddcf44cae83dcd18fd6b2c9350d1e1c347d73c182032c38483210b10e960fc8bdfcd46c8ea3fcf1aff692e9156d7e7c541d13a1e2634c58285270d16ef66fa8dd9cb40ceec39c91cf96f289754d5e5c743d3381c2436c78087250f14ed64f88fdbc942ccee3bcb1efb6d2a955adbebc94ddd36122a38c98e892b011ae36af681d5c74cc2e035c510f563249b58d9e9cb4fdf3410283acb8c8b290318e168f483d7c54ec0e237c712f76126995edfefcd49d932162e3ccd8a8d2f051ee76ef285d1c348c6e431c114f167209f5cddedcf4bdb30142c3ecf888f2d071ce56cf087d3c14ac4e633c316f365229d52d3e3c145d53e1a2230c18681230912eb62fe89ddcf44cae83dcd18fd6b2c9350d1e1c347d73c182032c38483210b10e960fc8bdfcd46c8ea3fcf1aff692e9156d7e7c541d13a1e2634c58285270d16ef66fa8dd9cb40ceec39c91cf96f289754d5e5c743d3381c2436c78087250f14ed64f88fdbc942ccee3bcb1efb6d2a955adbebc94ddd36122a38c98e892b011ae36af681d5c74cc2e035c510f563249b58d9e9cb4fdf3410283acb8c8b290318e168f483d7c54ec0e237c712f76126995edfefcd49d932162e3ccd8a8d2f051ee76ef285d1c348c6e431c114f167209f5cddedcf4bdb30142c3ecf888f2d071ce56cf087d3c14ac4e633c316f365229d52d3e3c145d53e1a2230c18681230912eb62fe89ddcf44cae83dcd18fd6b2c9350d1e1c347d73c182032c38483210b10e960fc8bdfcd46c8ea3fcf1aff692e9156d7e7c541d13a1e2634c58285270d16ef66fa8dd9cb40ceec39c91cf96f289754d5e5c743d3381c2436c78087250f14ed64f88fdbc942ccee3bcb1efb6d2a955adbebc94ddd36122a38c98e892b011ae36af681d5c74cc2e035c510f563249b58d9e9cb4fdf3410283acb8c8b290318e168f483d7c54ec0e237c712f76126995edfefcd49d932162e3ccd8a8d2f051ee76ef285d1c348c6e431c114f167209f5cddedcf4bdb30142c3ecf888f2d071ce56cf087d3c14ac4e633c316f365229d52d3e3c145d53e1a2230c18681230912e8a9e844aa60fb1805c7a4e82c01f2d20e1ae53d16548736767ac9c9b906a1609",
        "hex": "6a205f24be6f523661aba7b0459957c3f77a0c9f960950eab72fd209b836507be5794db004adbebc94ddd36122a38c98e892b011ae36af681d5c74cc2e035c510f563249b58d9e9cb4fdf3410283acb8c8b290318e168f483d7c54ec0e237c712f76126995edfefcd49d932162e3ccd8a8d2f051ee76ef285d1c348c6e431c114f167209f5cddedcf4bdb30142c3ecf888f2d071ce56cf087d3c14ac4e633c316f365229d52d3e3c145d53e1a2230c18681230912eb62fe89ddcf44cae83dcd18fd6b2c9350d1e1c347d73c182032c38483210b10e960fc8bdfcd46c8ea3fcf1aff692e9156d7e7c541d13a1e2634c58285270d16ef66fa8dd9cb40ceec39c91cf96f289754d5e5c743d3381c2436c78087250f14ed64f88fdbc942ccee3bcb1efb6d2a955adbebc94ddd36122a38c98e892b011ae36af681d5c74cc2e035c510f563249b58d9e9cb4fdf3410283acb8c8b290318e168f483d7c54ec0e237c712f76126995edfefcd49d932162e3ccd8a8d2f051ee76ef285d1c348c6e431c114f167209f5cddedcf4bdb30142c3ecf888f2d071ce56cf087d3c14ac4e633c316f365229d52d3e3c145d53e1a2230c18681230912eb62fe89ddcf44cae83dcd18fd6b2c9350d1e1c347d73c182032c38483210b10e960fc8bdfcd46c8ea3fcf1aff692e9156d7e7c541d13a1e2634c58285270d16ef66fa8dd9cb40ceec39c91cf96f289754d5e5c743d3381c2436c78087250f14ed64f88fdbc942ccee3bcb1efb6d2a955adbebc94ddd36122a38c98e892b011ae36af681d5c74cc2e035c510f563249b58d9e9cb4fdf3410283acb8c8b290318e168f483d7c54ec0e237c712f76126995edfefcd49d932162e3ccd8a8d2f051ee76ef285d1c348c6e431c114f167209f5cddedcf4bdb30142c3ecf888f2d071ce56cf087d3c14ac4e633c316f365229d52d3e3c145d53e1a2230c18681230912eb62fe89ddcf44cae83dcd18fd6b2c9350d1e1c347d73c182032c38483210b10e960fc8bdfcd46c8ea3fcf1aff692e9156d7e7c541d13a1e2634c58285270d16ef66fa8dd9cb40ceec39c91cf96f289754d5e5c743d3381c2436c78087250f14ed64f88fdbc942ccee3bcb1efb6d2a955adbebc94ddd36122a38c98e892b011ae36af681d5c74cc2e035c510f563249b58d9e9cb4fdf3410283acb8c8b290318e168f483d7c54ec0e237c712f76126995edfefcd49d932162e3ccd8a8d2f051ee76ef285d1c348c6e431c114f167209f5cddedcf4bdb30142c3ecf888f2d071ce56cf087d3c14ac4e633c316f365229d52d3e3c145d53e1a2230c18681230912eb62fe89ddcf44cae83dcd18fd6b2c9350d1e1c347d73c182032c38483210b10e960fc8bdfcd46c8ea3fcf1aff692e9156d7e7c541d13a1e2634c58285270d16ef66fa8dd9cb40ceec39c91cf96f289754d5e5c743d3381c2436c78087250f14ed64f88fdbc942ccee3bcb1efb6d2a955adbebc94ddd36122a38c98e892b011ae36af681d5c74cc2e035c510f563249b58d9e9cb4fdf3410283acb8c8b290318e168f483d7c54ec0e237c712f76126995edfefcd49d932162e3ccd8a8d2f051ee76ef285d1c348c6e431c114f167209f5cddedcf4bdb30142c3ecf888f2d071ce56cf087d3c14ac4e633c316f365229d52d3e3c145d53e1a2230c18681230912e8a9e844aa60fb1805c7a4e82c01f2d20e1ae53d16548736767ac9c9b906a1609",
        "type": "nulldata"
      }
    },
    {
      "value": 499987.7972,
      "n": 1,
      "scriptPubKey": {
        "asm": "1 4aacb09df64c07ffb1097599273e7c12b09487c5ce19303bfeb784e1e7d09044",
        "hex": "51204aacb09df64c07ffb1097599273e7c12b09487c5ce19303bfeb784e1e7d09044",
        "reqSigs": 1,
        "type": "witness_v1_scripthash",
        "addresses": [
          "3QJmnh"
        ]
      }
    }
  ],
  "blockhash": "b157fe5006ea74e3e2696296011f5383f171fa956e468cbbd84742f98a1af3af",
  "confirmations": 1,
  "time": 1764179051,
  "blocktime": 1764179051
}