{
  "hex": "01000000000101feacd1555988ede75400311858d2e4b98698e9f7c739accc5d4ebd6b782368ab0100000000feffffff0200e1f50500000000fdd5046a20aca4f4434614bdc9aebd1b5b50f8fb339b973fee94374e4b00f2041a8acb2a0a4db0048ce150ed3719246c41c92b4c9fc885ed28df5a6792bffc9ed6a599d90053ec74acc170cd1739044c61e90b6cbfe8a5cd08ff7a47b29fdcbef685b9f92073cc54cca110ad7759642c01896b0cdf88c5ad689f1a27d2ffbcde96e5d9994013ac34ec81308d5779440c21a94b2cffa8e58d48bf3a07f2df9cfeb6c5f9b960338c140c61d06db799a4ecc149abcc1f48056da85fdae7123f7c1e5625195980d36cf42c41f04d97b984cce1698bec3f68254d887ffac7321f5c3e76053979a0f34cd44c21902df7d9e4ac8109eb8c5f08452de81f9aa7527f3c5e16655919c0932cb46c01b00dd7f9c48ca129cbac7f28650dc83fba87725f1c7e36457939e0b30c948ce150ed3719246c41c92b4c9fc885ed28df5a6792bffc9ed6a599d90053ec74acc170cd1739044c61e90b6cbfe8a5cd08ff7a47b29fdcbef685b9f92073cc54cca110ad7759642c01896b0cdf88c5ad689f1a27d2ffbcde96e5d9994013ac34ec81308d5779440c21a94b2cffa8e58d48bf3a07f2df9cfeb6c5f9b960338c140c61d06db799a4ecc149abcc1f48056da85fdae7123f7c1e5625195980d36cf42c41f04d97b984cce1698bec3f68254d887ffac7321f5c3e76053979a0f34cd44c21902df7d9e4ac8109eb8c5f08452de81f9aa7527f3c5e16655919c0932cb46c01b00dd7f9c48ca129cbac7f28650dc83fba87725f1c7e36457939e0b30c948ce150ed3719246c41c92b4c9fc885ed28df5a6792bffc9ed6a599d90053ec74acc170cd1739044c61e90b6cbfe8a5cd08ff7a47b29fdcbef685b9f92073cc54cca110ad7759642c01896b0cdf88c5ad689f1a27d2ffbcde96e5d9994013ac34ec81308d5779440c21a94b2cffa8e58d48bf3a07f2df9cfeb6c5f9b960338c140c61d06db799a4ecc149abcc1f48056da85fdae7123f7c1e5625195980d36cf42c41f04d97b984cce1698bec3f68254d887ffac7321f5c3e76053979a0f34cd44c21902df7d9e4ac8109eb8c5f08452de81f9aa7527f3c5e16655919c0932cb46c01b00dd7f9c48ca129cbac7f28650dc83fba87725f1c7e36457939e0b30c948ce150ed3719246c41c92b4c9fc885ed28df5a6792bffc9ed6a599d90053ec74acc170cd1739044c61e90b6cbfe8a5cd08ff7a47b29fdcbef685b9f92073cc54cca110ad7759642c01896b0cdf88c5ad689f1a27d2ffbcde96e5d9994013ac34ec81308d5779440c21a94b2cffa8e58d48bf3a07f2df9cfeb6c5f9b960338c140c61d06db799a4ecc149abcc1f48056da85fdae7123f7c1e5625195980d36cf42c41f04d97b984cce1698bec3f68254d887ffac7321f5c3e76053979a0f34cd44c21902df7d9e4ac8109eb8c5f08452de81f9aa7527f3c5e16655919c0932cb46c01b00dd7f9c48ca129cbac7f28650dc83fba87725f1c7e36457939e0b30c948ce150ed3719246c41c92b4c9fc885ed28df5a6792bffc9ed6a599d90053ec74acc170cd1739044c61e90b6cbfe8a5cd08ff7a47b29fdcbef685b9f92073cc54cca110ad7759642c01896b0cdf88c5ad689f1a27d2ffbcde96e5d9994013ac34ec81308d5779440c21a94b2cffa8e58d48bf3a07f2df9cfeb6c5f9b960338c140c61d06db799a4ecc149abcc1f48056d0dcc437daaf119bad85b0b0ca29961e2e07f3d49794082c18e229b22dcc69ab0a0cee9a1782d00002251204a6a0899cdcecc5dc1c925602831d7130632942f80f3b69f0b713900ab8ec52502fd75093b998aa19942dc5e6e84a8f35574e5e10e68cb6f94c48a8beb114d64d05c168143b58f401719d55ef6df4dd03e517d4517eba25e5159ce4a1dee65cf21c5129f44e4327f80be3b81436e56019085be2c360366ca59038ef077d517de0fef15c1e1dcff720c0f3754a543ba582f03b608299aa0a870bd9813001f6ab7a5f3fb76c032e3df791398df887ad997d7483f7a686c8f798382d797f76d82df6fb9cee25df83090a5ab47fd72b17915a9944b0b57a069e5e367ff7e79e3d5ee2ed80b72b5191a63d7914565ab5cee87e1c6e2ca35a5a1d3d6b91237db459533c1b4592478a4ccf1a906f310ba410b95abace60a9d99295c338c9746187b3dffe9fa44c8ffb2a164a7857998266913a3528de436d02967e91b11a8661d10db736a544d2136e4a38fa98487fba36cd530ccd2a4fe96169e2692924787b5f19fe98be74cd5227c92d4dfe3c94cbb294127be367b4d7d41e363b6eba6e96b8ac5b9747d115f617ca279490cf285b4911a7871b3c93ab9a5148dece5aac321aaa669c35e1b26f050de5b564ccdba1d3520c1395cdbace1d9a2c5dce433caafaf545c2f47c5fc59e399fdbbff042b245ed6fa4f4e517cc516f609d6d147e08be2ebb8c9a105d22c1d3ea082865c2644bd52606db3c3202f48e29bde7f51feb368c3bc8ba55aee5fe3ddf8f13c7eee6bbd7105f847e60fa14fc146aa77459c930fe9a8db557204e74178aac9b7b90d26a1b653168bc2883229a3338c3bac1bd26c358d7ca4ef5d31a27e13f0eeda9da75d6d4b03e7cc1f4ed3df6c8d9813c45513f42e30206ef903de85d3959894413c0bff3348dcc808d244bb1f42a60a33d999054d35417364aa4c35808e4baf3ad1ae521ae3a2f51ae341d38e90a545b8a575e89f7cf62c04cb9d4975db9192310e087f0e29ae3ba22b74428dfa9a8211869e5d8dbdb1c776573265af770e3d3aa706014cecc6f9fb0cd2b6f4fee457cec084c62662f080b36266f91f89123062cb8d84f19d8fdafafd39e94aa13121813c55541afc4933f1afa264a77b8f5fdb3fcdca0979e63c5f3eb391384eeea0edb0e9dfa733346b713e57134651d570fe73e5d457d9ef652b5c33ed3ba99acbec990bd48878dad161e50e22ce1f57a485d1590de84a9d2ecfc03cfa80cac216c739a3dc3ecb5c78880c17fa490cfadb71962a7d741a597df275ba8f617c845f52dc028214dfd3acf5572728e11f5281ec2436a7667fd079b4088185d58b1c151b4d397ea9894189f22a5923b804ddac624d1bb1337908a33162fae44c567d32e339629865812e70a5c803c1f6db80a4610b0cb03a28176c5fc0c919dc6b95aa6d1dcfffa84377d62f4e7b32d2b1a1e370b3edb2fb06bb9cc4316a13576c35dd1054a7c96e020788e860d647d15336577ce22eb1cfad9eebacd57bdb5c07203b2fec77aace46c8346fa875dac1e2ca3aa2e3d7a790357dd005a103f94ccbc787c04d8d580515ebb5ed12bac181e6148ae862ade8883097905b0b9634c539af9bf7e8b1397671b95cce697f49cad80f492b949f29854e1ae196409ac60176a924e6dbfd46ffb8ef80d9ecbb139bef7ea46e25489e8115b9e4b9db9ac0ffec7c5adcb9a465a08612fa7b02614dc73a4c505a23ff6ffb1202d1109817487761462dbb9ff5b790905f5b23521e7b2b315557810b27903ca9723fbf184791c37b8ffb173499b7f148a218ed862c106ce58ebb5f535ea4acb39a493ac6b7561903d20bc6c8b2489878d0e758c65585d978d1a75c2d7f8f85af8f2bcf3be312e12f8806afe6425b11a60e3e4b342922185b2bf8aa1c21a80507dad8173a85e0d3f620d4276ab5bbadc6d9071d3313d073d4d936fdd2f38743d0598076cbb1f5f64e548738c3c1455fd44fc175baacc79d0fadbc749d9fec01cc3fa6a994241a4337670712acb89270f5d39796bba9685615aec35ef7107b57db9ae46a93a6bb75037f50a7b3970abdc4ba84dbfb752896eda4f52048e5e73aebc05545b1bf2634bb683afc588e4f8fa221a586ebd6534aa2e13856b1a4e5a6e6af59cd05e670cb796e86a954d5816fa6bce4c4337fac51947d80ade815082e9bf17fa0a774cd17714348e218aeafff3ac852402f6ede4bd82404ff5c6393cd4685018d5afa12c11fbfd37148a809ca50fc8b71452a8945736bf160cb1de56a593fc5dd110a1a744595ce4f14b0e83fe951f350a3eb59872c69b676ea5e5b4cfb402610560d6192c7d66d04bc1819f4bc0db18a9148318630009f50e11e6da3e011527c8ce5b0292abb4c009a4b04d1ad3a4004707c21e01fbe8727d40b726af734a5d7e95be28991e235ca68b3fb7d286c85c940ac1bea157ae15245763b0c0f5d6a24b7dfdedc898dd07e2a6e7ecaeb16fd48cc965f6431f495f69b2fabf4012ea930a829d855efce5533dfb7f2ed95c18eb5540b4defde304c293f1f6aa1b8dfbf44155b4e1f84fe4ad059ece5f368accb30f2f43d94c32ecc77ca34440ad23069e0a1505da438eba30980401c1276471bdbf83b84471b028192411e20ac63e825f0179bba9b9523a2d2e8c7ed27298b6df5e0214c7d04e1f1452097ea771e87c0e3d85de7d27dbd625a79f9cb8dadb50a28bdadb753cc8df8295c610102cb97a8fb31116ac33c2fc36b531dba58723c8afa864e6f3a5efa05bc22a397a36cc1fe4ffafe4a8a564ddc4ef8e2acf916b1b4cdafdfd25f468617f7b23aaa81be6e128dedb0180da78c743ea2ceeafb3c461e6f3606f3c746da069d965229f041ae9123300acc48e8786ab653e9e577cc37e96793eaa70cd20cd64a0052029a310ebdcac71edc0d84bb46968e2d3f46365f577ee9fef870571bc465aa7a931e99b23c2080f55f831bcfc61405b24a66af6553035cdfc9215c9b961c810d6b9d20cc8873b92f99f0fb28a00d05c86cb26ea205a27d67d52399d2e512dcdbac17edb65b6e6e7445ddc780f666b54fdb7811775229e4af6d07ef0efad85ec9179d52ee79f37bbf665fe056784734e0b10161b10ff50dae04575d143d54fcd7b0b3a794d2a6078ed5a1890da7da91fdf31977165f824b89b7b21141a0e789d5d5b0e7cda23e060ffd7de71e9bac190f7349eb94e16b7c9754093f5af5e21807f6528efe799456ce740367218cb61f552e50d4ffc44aa7a030b7bb85cf295be3cb94291bebdf124891aaa4ff7de5e589a446bb841cf5a4af1164b1ce42f68e11ac61d00ff761cd8b58ed0cadf5c23ee65a9155b56ca917e7842235ae365b0f7a26b7b33a9600c8d1a6ba2ba1612be3b4bb0d1cae5bc8060d0e1a1f34363f46496f7580a0aec0cfd2ebfb0113161c273b434e5258669697aab6b7bdf6f7ff03070f1c3335373a3d49535971747881828d95b1c3d7dee1061219679fa7a9d1dde3e4e7f50000001428404d01fd210500a2a333c837dd86c2551a762851498c43d23e2fb6d926056a8c026c0c3c6e0102034fdd5e3620efc4cf456cabdb67523fa961144997a77485b80163834ef606d7c106b6a90ec926758827b42fb1e37feaa38e10a913317be93a1b61784fda1066556d5b878dbbcaf57b3246202ac6cc5c46e38301bba6f17c7281ecd6b788c32438d940f6c6be365ef0fa1d4e4b4ac00dcebdab3497e16727999f837171eab90f9a840552ff7c5885d17c923d0d6e6251b5e9b6dab0532f4f1c86f44ce003f3b6b498570abd3585483f1b2c2b0f31179823bf7b609c6b5f1ad08b7529b23c5346402fb80045e1f6910b6fdf193efe220b909fb36dbcf3800b09aa08a17a301141d08e854e98c352548dadd5cf801f27e734c1bc3bdfc1fcfb76a7e3a2c957451dcaf17dac44a31e911a04333452bc738da1682c3850ddf4d87076b3f90cbd90de30b4b53a6c19c4d2a4a2cd9b7c5e141e8c247ef1bd476ef00acadc69c75699e545697f7c9d59de1bd3560b038ac4a7c75461c181516eef2264ea1fdc1e40f9490c0c6cf2afd51b94fd3f1e5a652f5edd97cd9763d8cacc190277c29594145b30505a25179daf1ca14d962c025361f36977b4ec8cbbafbb655051f529f011e3b6b83c3b2f31138268edd0c336c965899efb21a216b06f48899dc9863a4f4657b81192d134daee2e048ec99d796701f7ecaa4dc834815fe5e4d2373f314df189b014a2bf08f9f4942e76e4872cdb162935a8e347e2e1ec33d487597e0a548f74b1f9b0cda9ba5472b3dd303b276f724ce5709b212b0af211f4eb185864999483587a4f880dfbdbd66dff7c7c26d43232432e13d374a71b98d799bfafbb05fbdcce6f4fe78e6e6aba16508ff7f811cfcd0c55fe9715579cec9cd9fafbde816497db0d526de7503208c4e948669047ef18f7fab0ae3bcff3d4b152151aa2c1fd09558ff5d6d3c0453b229a85c6057d76fc558f065c45a9e5f659cb0cce2aa7b7d1dba7dc57e7778b1092d8e15041237f9bdaf53eac2d489158d03458a3f5e3c6a13d99ece884162176c5a1830d538ead86425f7d1496ab3b03d8b5d56819d612b72d44ea2a3bdac68c9bcc662f5addd46f7423c5bdc3ee449f96990b2aa4996f1b04711bbe2b5aa9c83103317e5cd1283ad4bece4b4239a071f3916e11e699fe8f3ecfd6c3b729bbfd91050208b5dcef3a42c52e561842ebea49a0ba9d7cf01f1a0c72e0831ee4c790fd2f733bc303a262d290716b593c1ff3ecf70faf7977e354c6882cc5ea496c16cbd9c84a864d8803df72ca8adb0e7405cd7c2fd4fb272e13c4aa23fbb21be6ce290c1b86b6e7fd1ff86715e4e1aa8a7436724af5f1cdae2e6b90ddd097696b126d734a47462d62978531a2e3ed11bd2e07a2803ab500ecac209a93b0da49f8b45810e04907768a5f1209ab6365b49f275e44300d91676fbf3d17f7aa3e99279798d431085bbca0825d10fe151a2189104d94dd76fffb86d26d96c053281d5eb797268620a902e4752a83fa8e22ed005b0bba3cbd1ea0b3a365f6433fed49abb13cdf0daad57fed86b3c9391e3c7b25811f4dd3d9e80f48c252197e0dac05ece51eacf6f85b8882e873dd81ee6c9d08035be93b84ed3b3c973d2c8aaed829e4e63cefd60a225dad72dd0ba652e1787085e9bf433f74f5f998a4301b77c750002400a8cb30e1136a85135e0d619b5bc1e4fce037195547509f6611caa425cad08cbb1747485c186c2575b825bcd511617bd094fa208c99603a6a964fd9f2ef931a603fbb6c4ddf14666cdbd9a6cb34be16e15104b221a0229ffd2b894d70113cf8c700889ce278bd0f5d7dd07e37a21acf7b819f99781395aa2788000000",
  "txid": "eec75b48392226327438a598d85dd299f48f9a4d58df49debd035e071d33ad0a",
  "hash": "ab1af9e10400baa3f523c1efd6f01e79cbc5072065e68fb9221dfbe1c7d30aaf",
  "size": 5085,
  "vsize": 2278,
  "version": 1,
  "locktime": 136,
  "vin": [
    {
      "txid": "ab6823786bbd4e5dccac39c7f7e99886b9e4d25818310054e7ed885955d1acfe",
      "vout": 1,
      "scriptSig": {
        "asm": "",
        "hex": ""
      },
      "txinwitness": [
        "3b998aa19942dc5e6e84a8f35574e5e10e68cb6f94c48a8beb114d64d05c168143b58f401719d55ef6df4dd03e517d4517eba25e5159ce4a1dee65cf21c5129f44e4327f80be3b81436e56019085be2c360366ca59038ef077d517de0fef15c1e1dcff720c0f3754a543ba582f03b608299aa0a870bd9813001f6ab7a5f3fb76c032e3df791398df887ad997d7483f7a686c8f798382d797f76d82df6fb9cee25df83090a5ab47fd72b17915a9944b0b57a069e5e367ff7e79e3d5ee2ed80b72b5191a63d7914565ab5cee87e1c6e2ca35a5a1d3d6b91237db459533c1b4592478a4ccf1a906f310ba410b95abace60a9d99295c338c9746187b3dffe9fa44c8ffb2a164a7857998266913a3528de436d02967e91b11a8661d10db736a544d2136e4a38fa98487fba36cd530ccd2a4fe96169e2692924787b5f19fe98be74cd5227c92d4dfe3c94cbb294127be367b4d7d41e363b6eba6e96b8ac5b9747d115f617ca279490cf285b4911a7871b3c93ab9a5148dece5aac321aaa669c35e1b26f050de5b564ccdba1d3520c1395cdbace1d9a2c5dce433caafaf545c2f47c5fc59e399fdbbff042b245ed6fa4f4e517cc516f609d6d147e08be2ebb8c9a105d22c1d3ea082865c2644bd52606db3c3202f48e29bde7f51feb368c3bc8ba55aee5fe3ddf8f13c7eee6bbd7105f847e60fa14fc146aa77459c930fe9a8db557204e74178aac9b7b90d26a1b653168bc2883229a3338c3bac1bd26c358d7ca4ef5d31a27e13f0eeda9da75d6d4b03e7cc1f4ed3df6c8d9813c45513f42e30206ef903de85d3959894413c0bff3348dcc808d244bb1f42a60a33d999054d35417364aa4c35808e4baf3ad1ae521ae3a2f51ae341d38e90a545b8a575e89f7cf62c04cb9d4975db9192310e087f0e29ae3ba22b74428dfa9a8211869e5d8dbdb1c776573265af770e3d3aa706014cecc6f9fb0cd2b6f4fee457cec084c62662f080b36266f91f89123062cb8d84f19d8fdafafd39e94aa13121813c55541afc4933f1afa264a77b8f5fdb3fcdca0979e63c5f3eb391384eeea0edb0e9dfa733346b713e57134651d570fe73e5d457d9ef652b5c33ed3ba99acbec990bd48878dad161e50e22ce1f57a485d1590de84a9d2ecfc03cfa80cac216c739a3dc3ecb5c78880c17fa490cfadb71962a7d741a597df275ba8f617c845f52dc028214dfd3acf5572728e11f5281ec2436a7667fd079b4088185d58b1c151b4d397ea9894189f22a5923b804ddac624d1bb1337908a33162fae44c567d32e339629865812e70a5c803c1f6db80a4610b0cb03a28176c5fc0c919dc6b95aa6d1dcfffa84377d62f4e7b32d2b1a1e370b3edb2fb06bb9cc4316a13576c35dd1054a7c96e020788e860d647d15336577ce22eb1cfad9eebacd57bdb5c07203b2fec77aace46c8346fa875dac1e2ca3aa2e3d7a790357dd005a103f94ccbc787c04d8d580515ebb5ed12bac181e6148ae862ade8883097905b0b9634c539af9bf7e8b1397671b95cce697f49cad80f492b949f29854e1ae196409ac60176a924e6dbfd46ffb8ef80d9ecbb139bef7ea46e25489e8115b9e4b9db9ac0ffec7c5adcb9a465a08612fa7b02614dc73a4c505a23ff6ffb1202d1109817487761462dbb9ff5b790905f5b23521e7b2b315557810b27903ca9723fbf184791c37b8ffb173499b7f148a218ed862c106ce58ebb5f535ea4acb39a493ac6b7561903d20bc6c8b2489878d0e758c65585d978d1a75c2d7f8f85af8f2bcf3be312e12f8806afe6425b11a60e3e4b342922185b2bf8aa1c21a80507dad8173a85e0d3f620d4276ab5bbadc6d9071d3313d073d4d936fdd2f38743d0598076cbb1f5f64e548738c3c1455fd44fc175baacc79d0fadbc749d9fec01cc3fa6a994241a4337670712acb89270f5d39796bba9685615aec35ef7107b57db9ae46a93a6bb75037f50a7b3970abdc4ba84dbfb752896eda4f52048e5e73aebc05545b1bf2634bb683afc588e4f8fa221a586ebd6534aa2e13856b1a4e5a6e6af59cd05e670cb796e86a954d5816fa6bce4c4337fac51947d80ade815082e9bf17fa0a774cd17714348e218aeafff3ac852402f6ede4bd82404ff5c6393cd4685018d5afa12c11fbfd37148a809ca50fc8b71452a8945736bf160cb1de56a593fc5dd110a1a744595ce4f14b0e83fe951f350a3eb59872c69b676ea5e5b4cfb402610560d6192c7d66d04bc1819f4bc0db18a9148318630009f50e11e6da3e011527c8ce5b0292abb4c009a4b04d1ad3a4004707c21e01fbe8727d40b726af734a5d7e95be28991e235ca68b3fb7d286c85c940ac1bea157ae15245763b0c0f5d6a24b7dfdedc898dd07e2a6e7ecaeb16fd48cc965f6431f495f69b2fabf4012ea930a829d855efce5533dfb7f2ed95c18eb5540b4defde304c293f1f6aa1b8dfbf44155b4e1f84fe4ad059ece5f368accb30f2f43d94c32ecc77ca34440ad23069e0a1505da438eba30980401c1276471bdbf83b84471b028192411e20ac63e825f0179bba9b9523a2d2e8c7ed27298b6df5e0214c7d04e1f1452097ea771e87c0e3d85de7d27dbd625a79f9cb8dadb50a28bdadb753cc8df8295c610102cb97a8fb31116ac33c2fc36b531dba58723c8afa864e6f3a5efa05bc22a397a36cc1fe4ffafe4a8a564ddc4ef8e2acf916b1b4cdafdfd25f468617f7b23aaa81be6e128dedb0180da78c743ea2ceeafb3c461e6f3606f3c746da069d965229f041ae9123300acc48e8786ab653e9e577cc37e96793eaa70cd20cd64a0052029a310ebdcac71edc0d84bb46968e2d3f46365f577ee9fef870571bc465aa7a931e99b23c2080f55f831bcfc61405b24a66af6553035cdfc9215c9b961c810d6b9d20cc8873b92f99f0fb28a00d05c86cb26ea205a27d67d52399d2e512dcdbac17edb65b6e6e7445ddc780f666b54fdb7811775229e4af6d07ef0efad85ec9179d52ee79f37bbf665fe056784734e0b10161b10ff50dae04575d143d54fcd7b0b3a794d2a6078ed5a1890da7da91fdf31977165f824b89b7b21141a0e789d5d5b0e7cda23e060ffd7de71e9bac190f7349eb94e16b7c9754093f5af5e21807f6528efe799456ce740367218cb61f552e50d4ffc44aa7a030b7bb85cf295be3cb94291bebdf124891aaa4ff7de5e589a446bb841cf5a4af1164b1ce42f68e11ac61d00ff761cd8b58ed0cadf5c23ee65a9155b56ca917e7842235ae365b0f7a26b7b33a9600c8d1a6ba2ba1612be3b4bb0d1cae5bc8060d0e1a1f34363f46496f7580a0aec0cfd2ebfb0113161c273b434e5258669697aab6b7bdf6f7ff03070f1c3335373a3d49535971747881828d95b1c3d7dee1061219679fa7a9d1dde3e4e7f50000001428404d01",
        "00a2a333c837dd86c2551a762851498c43d23e2fb6d926056a8c026c0c3c6e0102034fdd5e3620efc4cf456cabdb67523fa961144997a77485b80163834ef606d7c106b6a90ec926758827b42fb1e37feaa38e10a913317be93a1b61784fda1066556d5b878dbbcaf57b3246202ac6cc5c46e38301bba6f17c7281ecd6b788c32438d940f6c6be365ef0fa1d4e4b4ac00dcebdab3497e16727999f837171eab90f9a840552ff7c5885d17c923d0d6e6251b5e9b6dab0532f4f1c86f44ce003f3b6b498570abd3585483f1b2c2b0f31179823bf7b609c6b5f1ad08b7529b23c5346402fb80045e1f6910b6fdf193efe220b909fb36dbcf3800b09aa08a17a301141d08e854e98c352548dadd5cf801f27e734c1bc3bdfc1fcfb76a7e3a2c957451dcaf17dac44a31e911a04333452bc738da1682c3850ddf4d87076b3f90cbd90de30b4b53a6c19c4d2a4a2cd9b7c5e141e8c247ef1bd476ef00acadc69c75699e545697f7c9d59de1bd3560b038ac4a7c75461c181516eef2264ea1fdc1e40f9490c0c6cf2afd51b94fd3f1e5a652f5edd97cd9763d8cacc190277c29594145b30505a25179daf1ca14d962c025361f36977b4ec8cbbafbb655051f529f011e3b6b83c3b2f31138268edd0c336c965899efb21a216b06f48899dc9863a4f4657b81192d134daee2e048ec99d796701f7ecaa4dc834815fe5e4d2373f314df189b014a2bf08f9f4942e76e4872cdb162935a8e347e2e1ec33d487597e0a548f74b1f9b0cda9ba5472b3dd303b276f724ce5709b212b0af211f4eb185864999483587a4f880dfbdbd66dff7c7c26d43232432e13d374a71b98d799bfafbb05fbdcce6f4fe78e6e6aba16508ff7f811cfcd0c55fe9715579cec9cd9fafbde816497db0d526de7503208c4e948669047ef18f7fab0ae3bcff3d4b152151aa2c1fd09558ff5d6d3c0453b229a85c6057d76fc558f065c45a9e5f659cb0cce2aa7b7d1dba7dc57e7778b1092d8e15041237f9bdaf53eac2d489158d03458a3f5e3c6a13d99ece884162176c5a1830d538ead86425f7d1496ab3b03d8b5d56819d612b72d44ea2a3bdac68c9bcc662f5addd46f7423c5bdc3ee449f96990b2aa4996f1b04711bbe2b5aa9c83103317e5cd1283ad4bece4b4239a071f3916e11e699fe8f3ecfd6c3b729bbfd91050208b5dcef3a42c52e561842ebea49a0ba9d7cf01f1a0c72e0831ee4c790fd2f733bc303a262d290716b593c1ff3ecf70faf7977e354c6882cc5ea496c16cbd9c84a864d8803df72ca8adb0e7405cd7c2fd4fb272e13c4aa23fbb21be6ce290c1b86b6e7fd1ff86715e4e1aa8a7436724af5f1cdae2e6b90ddd097696b126d734a47462d62978531a2e3ed11bd2e07a2803ab500ecac209a93b0da49f8b45810e04907768a5f1209ab6365b49f275e44300d91676fbf3d17f7aa3e99279798d431085bbca0825d10fe151a2189104d94dd76fffb86d26d96c053281d5eb797268620a902e4752a83fa8e22ed005b0bba3cbd1ea0b3a365f6433fed49abb13cdf0daad57fed86b3c9391e3c7b25811f4dd3d9e80f48c252197e0dac05ece51eacf6f85b8882e873dd81ee6c9d08035be93b84ed3b3c973d2c8aaed829e4e63cefd60a225dad72dd0ba652e1787085e9bf433f74f5f998a4301b77c750002400a8cb30e1136a85135e0d619b5bc1e4fce037195547509f6611caa425cad08cbb1747485c186c2575b825bcd511617bd094fa208c99603a6a964fd9f2ef931a603fbb6c4ddf14666cdbd9a6cb34be16e15104b221a0229ffd2b894d70113cf8c700889ce278bd0f5d7dd07e37a21acf7b819f99781395aa27"
      ],
      "sequence": 4294967294
    }
  ],
  "vout": [
    {
      "value": 1.0,
      "n": 0,
      "scriptPubKey": {
        "asm": "OP_RETURN aca4f4434614bdc9aebd1b5b50f8fb339b973fee94374e4b00f2041a8acb2a0a 8ce150ed3719246c41c92b4c9fc885ed28df5a6792bffc9ed6a599d90053ec74acc170cd1739044c61e90b6cbfe8a5cd08ff7a47b29fdcbef685b9f92073cc54cca110ad7759642c01896b0cdf88c5ad689f1a27d2ffbcde96e5d9994013ac34ec81308d5779440c21a94b2cffa8e58d48bf3a07f2df9cfeb6c5f9b960338c140c61d06db799a4ecc149abcc1f48056da85fdae7123f7c1e5625195980d36cf42c41f04d97b984cce1698bec3f68254d887ffac7321f5c3e76053979a0f34cd44c21902df7d9e4ac8109eb8c5f08452de81f9aa7527f3c5e16655919c0932cb46c01b00dd7f9c48ca129cbac7f28650dc83fba87725f1c7e36457939e0b30c948ce150ed3719246c41c92b4c9fc885ed28df5a6792bffc9ed6a599d90053ec74acc170cd1739044c61e90b6cbfe8a5cd08ff7a47b29fdcbef685b9f92073cc54cca110ad7759642c01896b0cdf88c5ad689f1a27d2ffbcde96e5d9994013ac34ec81308d5779440c21a94b2cffa8e58d48bf3a07f2df9cfeb6c5f9b960338c140c61d06db799a4ecc149abcc1f48056da85fdae7123f7c1e5625195980d36cf42c41f04d97b984cce1698bec3f68254d887ffac7321f5c3e76053979a0f34cd44c21902df7d9e4ac8109eb8c5f08452de81f9aa7527f3c5e16655919c0932cb46c01b00dd7f9c48ca129cbac7f28650dc83fba87725f1c7e36457939e0b30c948ce150ed3719246c41c92b4c9fc885ed28df5a6792bffc9ed6a599d90053ec74acc170cd1739044c61e90b6cbfe8a5cd08ff7a47b29fdcbef685b9f92073cc54cca110ad7759642c01896b0cdf88c5ad689f1a27d2ffbcde96e5d9994013ac34ec81308d5779440c21a94b2cffa8e58d48bf3a07f2df9cfeb6c5f9b960338c140c61d06db799a4ecc149abcc1f48056da85fdae7123f7c1e5625195980d36cf42c41f04d97b984cce1698bec3f68254d887ffac7321f5c3e76053979a0f34cd44c21902df7d9e4ac8109eb8c5f08452de81f9aa7527f3c5e16655919c0932cb46c01b00dd7f9c48ca129cbac7f28650dc83fba87725f1c7e36457939e0b30c948ce150ed3719246c41c92b4c9fc885ed28df5a6792bffc9ed6a599d90053ec74acc170cd1739044c61e90b6cbfe8a5cd08ff7a47b29fdcbef685b9f92073cc54cca110ad7759642c01896b0cdf88c5ad689f1a27d2ffbcde96e5d9994013ac34ec81308d5779440c21a94b2cffa8e58d48bf3a07f2df9cfeb6c5f9b960338c140c61d06db799a4ecc149abcc1f48056da85fdae7123f7c1e5625195980d36cf42c41f04d97b984cce1698bec3f68254d887ffac7321f5c3e76053979a0f34cd44c21902df7d9e4ac8109eb8c5f08452de81f9aa7527f3c5e16655919c0932cb46c01b00dd7f9c48ca129cbac7f28650dc83fba87725f1c7e36457939e0b30c948ce150ed3719246c41c92b4c9fc885ed28df5a6792bffc9ed6a599d90053ec74acc170cd1739044c61e90b6cbfe8a5cd08ff7a47b29fdcbef685b9f92073cc54cca110ad7759642c01896b0cdf88c5ad689f1a27d2ffbcde96e5d9994013ac34ec81308d5779440c21a94b2cffa8e58d48bf3a07f2df9cfeb6c5f9b960338c140c61d06db799a4ecc149abcc1f48056d0dcc437daaf119bad85b0b0ca29961e2e07f3d49794082c18e229b22dcc69ab0",
        "hex": "6a20aca4f4434614bdc9aebd1b5b50f8fb339b973fee94374e4b00f2041a8acb2a0a4db0048ce150ed3719246c41c92b4c9fc885ed28df5a6792bffc9ed6a599d90053ec74acc170cd1739044c61e90b6cbfe8a5cd08ff7a47b29fdcbef685b9f92073cc54cca110ad7759642c01896b0cdf88c5ad689f1a27d2ffbcde96e5d9994013ac34ec81308d5779440c21a94b2cffa8e58d48bf3a07f2df9cfeb6c5f9b960338c140c61d06db799a4ecc149abcc1f48056da85fdae7123f7c1e5625195980d36cf42c41f04d97b984cce1698bec3f68254d887ffac7321f5c3e76053979a0f34cd44c21902df7d9e4ac8109eb8c5f08452de81f9aa7527f3c5e16655919c0932cb46c01b00dd7f9c48ca129cbac7f28650dc83fba87725f1c7e36457939e0b30c948ce150ed3719246c41c92b4c9fc885ed28df5a6792bffc9ed6a599d90053ec74acc170cd1739044c61e90b6cbfe8a5cd08ff7a47b29fdcbef685b9f92073cc54cca110ad7759642c01896b0cdf88c5ad689f1a27d2ffbcde96e5d9994013ac34ec81308d5779440c21a94b2cffa8e58d48bf3a07f2df9cfeb6c5f9b960338c140c61d06db799a4ecc149abcc1f48056da85fdae7123f7c1e5625195980d36cf42c41f04d97b984cce1698bec3f68254d887ffac7321f5c3e76053979a0f34cd44c21902df7d9e4ac8109eb8c5f08452de81f9aa7527f3c5e16655919c0932cb46c01b00dd7f9c48ca129cbac7f28650dc83fba87725f1c7e36457939e0b30c948ce150ed3719246c41c92b4c9fc885ed28df5a6792bffc9ed6a599d90053ec74acc170cd1739044c61e90b6cbfe8a5cd08ff7a47b29fdcbef685b9f92073cc54cca110ad7759642c01896b0cdf88c5ad689f1a27d2ffbcde96e5d9994013ac34ec81308d5779440c21a94b2cffa8e58d48bf3a07f2df9cfeb6c5f9b960338c140c61d06db799a4ecc149abcc1f48056da85fdae7123f7c1e5625195980d36cf42c41f04d97b984cce1698bec3f68254d887ffac7321f5c3e76053979a0f34cd44c21902df7d9e4ac8109eb8c5f08452de81f9aa7527f3c5e16655919c0932cb46c01b00dd7f9c48ca129cbac7f28650dc83fba87725f1c7e36457939e0b30c948ce150ed3719246c41c92b4c9fc885ed28df5a6792bffc9ed6a599d90053ec74acc170cd1739044c61e90b6cbfe8a5cd08ff7a47b29fdcbef685b9f92073cc54cca110ad7759642c01896b0cdf88c5ad689f1a27d2ffbcde96e5d9994013ac34ec81308d5779440c21a94b2cffa8e58d48bf3a07f2df9cfeb6c5f9b960338c140c61d06db799a4ecc149abcc1f48056da85fdae7123f7c1e5625195980d36cf42c41f04d97b984cce1698bec3f68254d887ffac7321f5c3e76053979a0f34cd44c21902df7d9e4ac8109eb8c5f08452de81f9aa7527f3c5e16655919c0932cb46c01b00dd7f9c48ca129cbac7f28650dc83fba87725f1c7e36457939e0b30c948ce150ed3719246c41c92b4c9fc885ed28df5a6792bffc9ed6a599d90053ec74acc170cd1739044c61e90b6cbfe8a5cd08ff7a47b29fdcbef685b9f92073cc54cca110ad7759642c01896b0cdf88c5ad689f1a27d2ffbcde96e5d9994013ac34ec81308d5779440c21a94b2cffa8e58d48bf3a07f2df9cfeb6c5f9b960338c140c61d06db799a4ecc149abcc1f48056d0dcc437daaf119bad85b0b0ca29961e2e07f3d49794082c18e229b22dcc69ab0",
        "type": "nulldata"
      }
    },
    {
      "value": 499961.3578,
      "n": 1,
      "scriptPubKey": {
        "asm": "1 4a6a0899cdcecc5dc1c925602831d7130632942f80f3b69f0b713900ab8ec525",
        "hex": "51204a6a0899cdcecc5dc1c925602831d7130632942f80f3b69f0b713900ab8ec525",
        "reqSigs": 1,
        "type": "witness_v1_scripthash",
        "addresses": [
          "3QJmnh"
        ]
      }
    }
  ],
  "blockhash": "c0ea0e6b16ad20f35d4757cbcff39c3d199dbd7e252fa8e6bc9f3f36ee858c22",
  "confirmations": 1,
  "time": 1764183276,
  "blocktime": 1764183276
}