{
  "hex": "01000000000101b9f4568649e87c287b70d17b7024404c8fd12ff01292cba1372f0c886b6776a20000000000feffffff0200e1f50500000000fdd5046a202b4bc2dfffd0326de0c0bf08297c6ad4b140ebcef13086c297219bed75c1da1e4db00486bc65d59112146bafdee2ec15c65a24acec018019a784ba968bf2d6cd3bc65ba69c45f5b132344b8ffec2cc35e67a048ccc21a03987a49ab6abd2f6ed1be67bc6fc2595d152542bef9ea2ac55861a64ecac41c059e7c4fad6cbb2968d7b861be6dc05b5f172740bcfbe828c75a63a44cc8c61e079c7e4daf6eb92b6ad5ba63b063ce555119294eb2f5e626c9546daa42c6c81009927043a160b72564dbb46db261cc57531b2b4cb0f7e424cb566fa840c4ca120b907241a362b52766d9b66fb467ca51551d2d4ab6f1e222cd5069ae46c2cc140d967447a564b32160dfb069b665c853571f2f48b4f3e020cf526bac44c0ce160f947645a766b12362ddb26bb86bc65d59112146bafdee2ec15c65a24acec018019a784ba968bf2d6cd3bc65ba69c45f5b132344b8ffec2cc35e67a048ccc21a03987a49ab6abd2f6ed1be67bc6fc2595d152542bef9ea2ac55861a64ecac41c059e7c4fad6cbb2968d7b861be6dc05b5f172740bcfbe828c75a63a44cc8c61e079c7e4daf6eb92b6ad5ba63b063ce555119294eb2f5e626c9546daa42c6c81009927043a160b72564dbb46db261cc57531b2b4cb0f7e424cb566fa840c4ca120b907241a362b52766d9b66fb467ca51551d2d4ab6f1e222cd5069ae46c2cc140d967447a564b32160dfb069b665c853571f2f48b4f3e020cf526bac44c0ce160f947645a766b12362ddb26bb86bc65d59112146bafdee2ec15c65a24acec018019a784ba968bf2d6cd3bc65ba69c45f5b132344b8ffec2cc35e67a048ccc21a03987a49ab6abd2f6ed1be67bc6fc2595d152542bef9ea2ac55861a64ecac41c059e7c4fad6cbb2968d7b861be6dc05b5f172740bcfbe828c75a63a44cc8c61e079c7e4daf6eb92b6ad5ba63b063ce555119294eb2f5e626c9546daa42c6c81009927043a160b72564dbb46db261cc57531b2b4cb0f7e424cb566fa840c4ca120b907241a362b52766d9b66fb467ca51551d2d4ab6f1e222cd5069ae46c2cc140d967447a564b32160dfb069b665c853571f2f48b4f3e020cf526bac44c0ce160f947645a766b12362ddb26bb86bc65d59112146bafdee2ec15c65a24acec018019a784ba968bf2d6cd3bc65ba69c45f5b132344b8ffec2cc35e67a048ccc21a03987a49ab6abd2f6ed1be67bc6fc2595d152542bef9ea2ac55861a64ecac41c059e7c4fad6cbb2968d7b861be6dc05b5f172740bcfbe828c75a63a44cc8c61e079c7e4daf6eb92b6ad5ba63b063ce555119294eb2f5e626c9546daa42c6c81009927043a160b72564dbb46db261cc57531b2b4cb0f7e424cb566fa840c4ca120b907241a362b52766d9b66fb467ca51551d2d4ab6f1e222cd5069ae46c2cc140d967447a564b32160dfb069b665c853571f2f48b4f3e020cf526bac44c0ce160f947645a766b12362ddb26bb86bc65d59112146bafdee2ec15c65a24acec018019a784ba968bf2d6cd3bc65ba69c45f5b132344b8ffec2cc35e67a048ccc21a03987a49ab6abd2f6ed1be67bc6fc2595d152542bef9ea2ac55861a64ecac41c059e7c4fad6cbb2968d7b861be6dc05b5f172740bcfbe828c75a63a44cc8c61e079c7e4daf6eb92b6ad5ba63b063ce555119294eb2f5e626c9546daa46e9ed6ce0aebf0938eb90ffc17923ee85f7798b67c297047b806c355c0c1c982d0cb9045792d00002251203e42257f37090b9478bce545aa0197c6aab7358527be93517b08a4d47005256902fd7509bac3e4fe68f03c4c1253a57fc719154df4c236f4c49bbb0ea2bd314ac20abab99a5350fb5709a7d1d7879d95fd616eeae635bd79b01f06baf3a2cd6f843b0bf8d0c6e95d4227fc8c700b5e4a609bebe3bf4e780acffdf5df36716e5bc16e327ee10e903c6fee5b0b8f25e45db900c70b80ccb7888a6422fb2c876e221ed39ce3d48959b33372e8f5b466096b88815d9448a4b930ea4aacaa3ed88dd58479f1c4c4ceedbc2143045e0a923214c8317a70e53a9452842957a1feb186a165d7551721b1c8d32897107d88488bb04c3983a827a29fa0dc71d099b30d70de997a6691c612a20334ce4fde12de8baa8dafecea4fb51f9c5e19ec172a50422ac1ac2814711eb005eced5411b27c20fa14fd93d62cbb71208148e7f5983d4d419a87190e02914f0cc275a8baf26064b5cc1ed819a29584d2e22c4ed49701f21e4e9d405843fa369d8441bdb586990e35abfebddead52de04e0d037c3cc20fa94e665fcca7e3c15c8b35c78b17e58d1c91bb358572885dc6fa0814bf0b42d8df6d459f9f3ed1db6a56a0e10c57254b6e5d4660a27674d822458d54e68fedda0e3ca8f45044b7debd864e5ea26dce241427d15d17248483395ff1ea8529635aafd1a44a2a0a02bdf03c72476b32e6ea633c8142dbb56dbea7c28ca5235e1231ef1fdf4b6482b561017c9b2470a92c416c9c1c048aa25c2f6d655056c17f2a901ba4804ab0b8076b46f1814278fda781d7200ec68b09ef2754ef2f9521b4c34d5e8082144c16d432b5c7351852602f50f372faa360882a77c96f6718d56cbd3c97583e5b6c2aaca31040e0389dbcaca134dc2ad22af33f1ee1de3a23937e7abcce8ff3d3319d6170cafeab11b0df88c72712aab57daf769e780d30cd16e088eb69324f0fc3436b62536aca0d895da52e7beaa3926e1204bf8f0f41ea1768906683c662ba4178a742d23fe0d6e2aa949182bb2695c59c2aff9a3712c65b3a3f425aff60a4b4c9b5121fb5736b80656693b16ce122f7a5013af9cc895e0c70b3d92becf7ba140359fb6a1ff15cfc17c84d273e170729d6d1b748781cf367dab984c4cf26434a3256ab95014838901237a6f33116b4431ec9d253833742b9e35126ed37330d988a6906458c69ddc2d31d65b23b47912e9476cd9f3dda1e6c9abac5d40a867f69d9527f51e4d26b528831ddfd5a321903ddc9aca8ba0b3a06f2f5d874341e76fcd31a7bdc1a482416b7ab16a5f9025e379b69d1419f9d5cf34455931f84450e724e975c54a572fe7ad227e26278a8d4cc97ffc9afcb6fcf9bc2b03dd6ed75efb0da8fb0bd0a62342417cf84ea8038ff737a603a74ec1027f74dcac0a6b16b0626f4bb1893593f26d90459d76f5793ad2d694a23087eac4fdd73d60bfa56da2bd50275f47bde6b40e7d79a475c765cdfcaaef6ca27dcb4804b0be94088b89d9b377dbfef3136679640945cb7050097a66a9a9d796762945a8745408f64f7da8c62999c780cb9a98c8dea2c87a7874601c6df0d5d4fd2e6b3fffda9f3f131a221259a02d76fc89b33221afadbfbc47b0c0e20f84d9282fc76943549e603a10c38786e7c358e2e7f9e3e3e237ef41a071838b6bf3592868409b116b36203af6d3bc3cac5a93f5c5cad3e8402c0432f460d603f395a3cbab7cca07b4fe8efcf29479389646e188a7ce22b30cfbaa39fa61d5063d308f129a5b8a77378173628336bd7e8c173c6133e14fb6cc97effc41b25f8fbc1ee5913e0ca89d48fd7b16ff7c86801384bdf5be5d750fde36426069f62a6cb008ab778dec86e30a3425a57de52ba53021ba1d102e06b1a73b271a97a024a0e0bcb854a002605cf795be40ebaf62a5d807f5cea6d091355104bf34128a1d30195497304df01229fc911e14b8eb1bbf3663d80659d86caae30e31ef082c629d2a2e6fb76794236f8b792bb7112fd66e2df9c60a49e0b05bc72c2bee4513928448926ec706bda758278d3f95d25ffb673a87d3bc67d7d2a0c0f05b5672ac3248558331fd1f950e6affa759795a0846a7e0343f387fd61e314317a2a9591beb3ef31d81308379fbeab00364b06dba4fba90d13a5a93f9a43d06ec23cda8b059fcd83e5555301f99cde1c405b92907c9be750902973fa9aa035b178dd46035181b3f210d053718f46e14b09a382213e1b72c292600182a7638ff1150880cd91eebe1b899847856c1212146025bc4760bad68f24a879bed13415e196c3d2bd3a0150c394245ab98511a6b00484670c3600462b0f9398b2d37921a95882e1cdac9284eecfd420c5df07ad8965509f38145fc63a1ed7af6ce30826fc64e9adcfece9b0a4d946cde8e082ec06e26ad5af61f7331edcb0e95b93a4c08bef0941652f76b1a91993bac2bd49f6c3fa11b188f75e4598c18a61b5b44f23dba434dac45264f0e1bd475ebc893520b26a2befe85743ea3285cbf31b796f49174a129e7933adb9ed9e1f06244aaefe5ff05c0b372bd0d21618ea2a23d24070cd75a879a21ad86131c0e0669b319502ee44b515d5c193d4391485a081aacbbc45da9aee4e1cc101e06a2370c5b95300004e2284b219da522195f5546abe9ef920718a8e8e12ca930ab7e9dd94f6384764aa6557a5266b7bd36117e53acc657318bcc1119c81008b726011d7e52272cdef4f4a12b68b425fbc819cc6716a9ba9e839422a28c5627483590c2430d76d2c5041496221f646ea6e45b01729a789e32df6bfa00effe0dfd876fa6a9ef11c5ed14c6171e9eaf87de8f0edc83349af7fdb8d3e4401ac8b7d454ceb5b4c54b90af23f44ca09b637bc0045193157e3bc5dba51dc7e2e00dd9f660bc8e9dba12ca365fad5ac0ae7db68e43a7a880111693b20d2d96ec5d2d7ff72845289ed9f322983cece428e034c602a3edbe0669eff15d00545c9a5e037480a899b8154b14a1fa7a35b5c1afb065410cdfe787226284e2012de04be560f6240752186359874e3daa501e6e22ce79d66f503f29963ec74b8385aadac2688f330284574e1f0b418624ab60b30027fafed05e79ec76d6b78468477b706b8e1b393af9de85ae1cb4033df017e15747dbdf76c800ad96c38b55688f597c1c980a9f90613f4bf7b5b6fd8292599af5f813234375749e7961626aa9d2f7f928187a8ef70aa1adbfa19b13d66f53de1051aa4174f51e6f16a3e74f9fb77b4ae539487bb1e8fc1624ba6a89b85b1aac3c087b66f2fa22cac1e4dacce67e3b24f52d5385ff34ac4a4358d80455a11e78edbe3b741e6b9ea951b0d83f6d56b4376da92244628a6e90edb9b7c07b9c220addaa991214222a3c494c535770747fa3a5c4e1f7fafd0f37455c5f6177a4a8acadcacdced1e6fa01050b0e1d2634494d4f50515a5d5e91c7d6e7fc0d0e1b2244585b5c5d8ca4ade6e8000000000000000000001324384601fd21050026e8e936f8dab65bec13c65ad175234281ed19b245059cc7b4d6badb167402e3572c61a1bf1336b31fab0ed3ac99ceed85f23859a5a9079a92e455cefbdf51367b58e68025cfdf593bb1901306b5a222abc42aedcddd74a823dc60f579d7914299438e2f541887951fbbb401de44daa6c8d3260de1f9ef4488271c44f43c3a285b9da7d7e402e3a0a0060b311d38ec46dff3d7bda0535dadbfabd63bfa3e28390146203095f48fe08e068e60bb0d5bba7cda9b801be41c409e837505f8c91cf73df9ed4efc440616ec4ae3367ca04ce85e5c24a35b71b78d87b96da21f29c7ece35547adea4f8e2905d266912b5c6284d124717f3611cc6fc929d61e84b9024103c04b0f41d03b6023410099ce9bed42793b7ac69cadc71c3fcbe5783d3ae0844565c5f1897e0475bceba7684de5356705822767b37a99815bb7a6a68e479b764247dbced8f2088b0bb81f19fef34c6bfc938f03a308554ded06019b351b74f7bc5b33e9ef33700a33a71bd54b73e0c7bd6b10e94a0207b3c2be59828a66f2a909dc3608616931e7f9d1dcf63ea38a4eb08e663342d09c1b72921690127116d90868e7ef15d9afba6d111f1cc3fee6f0cad82fac8d1cb10e97aa21721c7a6ee33f87deabca19ae2d91639c6bc7517a2faa877e5c17f98cf2915ac33b46623188ca2677c0c867d8b4c8ae96d85c47c9e6f3071fd2b995636d07f5531eaa82587b45408786613bc66c63f06311299ac63a2b38786bf52af6402438bfff1f1969ad74e5d5921b22b801944b625b009eb359f51455093c396f499bf954ff66b6e8d369fcffdd9a12c207e79990740a2266386a061fb307f53abd0787b983e15a945cd00435d10751f64bb98f5bfe432804f9fef206f07369a9650cf57b199476d2e97bf17fd29ca50d1854fbeb51593df6a773e870f8d0d54180b925274ceeb2bb3fca6c61662680f214219bebe5bfec3a4dfb3624ae3cf1432a47949b1ae74d0f86ffab6c1ec6f0bcf017b4cc96a37b097d75a1357ae214afbb4b35967e698b0709b490d38f261d4d35f91d19734ed78bb4adf2a554d8a1d9df241cb0f7f6816c8849816f1e74fd3cd46080eb82ec7f51ac23d26dc99a0ccd531482408e5bf51798d7b6b702bfe6dc1eb7d85707be1538bdb9f4739b80bece9c17e013b09a2f5ba8d98dd3b440920e30886b32406d759556758860fe158570808ff982097f8daace4bdde75e7ccf8fc9f731e2f92f2e7ef99ba10f8a3b9247ca4048c9d576987775b197fd85f81c92e5bc1c99a4ad31f46a4f073d3f48fe40cd898c1c75c3a8551d277f81dfdc475122d3565a4e1fdf1343b692e9ff09b02b5ca911437b13047c026ce8dc6445d096425d54a6cebc0364c0493b3204504d6ba1fcc0ed6904559d7f7ba9e767897de6ade71a7a5c83ebc44f8aead42e6bbd2c75d2b9e5d3f9275dbc107bb4cb8d8b21e43cc22fe3ac11b4c43cc3ded8294830e491fb317029b1a5b27367e2e816fe8c0e2d4261dd4569a5c171e50d15256bce6eee20befcaee58147e2f70984f3fa5158dd26b8f34d181bcf59f47bb6ff83564082853051dd0168be9baebdc69e5325099191886072de7fc8a86a81ded3486741bbd87f09a75ed80a206e7f5efdf31b4146a8879f436a60f3fe908c9cb11b962735d16b193b6f022ce72398bcc530ec196271a4df1a6e4f2ea6fadd17254a584c3ef91a89890161668e0c51ab41aaa18baa18b68629c5e166911be8d9a790a3fb1cd33f092d73b93d0b1d97768b6000df98f73a220bb9e16dce2dc6d84f3502dfae417805c5d739e4c935ee1c331cddfe3e71097a9acd0ac764817551d10f0903e22f511475041f4a6d000000",
  "txid": "e308ce2e64e65b99da6311bc1daa03e50fec68d5dc26e2b50bb867422922f227",
  "hash": "fbde6c2d2dad9b62182e055ba113a7d5b44e878871257fca1d4e445bbafb4a76",
  "size": 5085,
  "vsize": 2278,
  "version": 1,
  "locktime": 109,
  "vin": [
    {
      "txid": "a276676b880c2f37a1cb9212f02fd18f4c4024707bd1707b287ce8498656f4b9",
      "vout": 0,
      "scriptSig": {
        "asm": "",
        "hex": ""
      },
      "txinwitness": [
        "bac3e4fe68f03c4c1253a57fc719154df4c236f4c49bbb0ea2bd314ac20abab99a5350fb5709a7d1d7879d95fd616eeae635bd79b01f06baf3a2cd6f843b0bf8d0c6e95d4227fc8c700b5e4a609bebe3bf4e780acffdf5df36716e5bc16e327ee10e903c6fee5b0b8f25e45db900c70b80ccb7888a6422fb2c876e221ed39ce3d48959b33372e8f5b466096b88815d9448a4b930ea4aacaa3ed88dd58479f1c4c4ceedbc2143045e0a923214c8317a70e53a9452842957a1feb186a165d7551721b1c8d32897107d88488bb04c3983a827a29fa0dc71d099b30d70de997a6691c612a20334ce4fde12de8baa8dafecea4fb51f9c5e19ec172a50422ac1ac2814711eb005eced5411b27c20fa14fd93d62cbb71208148e7f5983d4d419a87190e02914f0cc275a8baf26064b5cc1ed819a29584d2e22c4ed49701f21e4e9d405843fa369d8441bdb586990e35abfebddead52de04e0d037c3cc20fa94e665fcca7e3c15c8b35c78b17e58d1c91bb358572885dc6fa0814bf0b42d8df6d459f9f3ed1db6a56a0e10c57254b6e5d4660a27674d822458d54e68fedda0e3ca8f45044b7debd864e5ea26dce241427d15d17248483395ff1ea8529635aafd1a44a2a0a02bdf03c72476b32e6ea633c8142dbb56dbea7c28ca5235e1231ef1fdf4b6482b561017c9b2470a92c416c9c1c048aa25c2f6d655056c17f2a901ba4804ab0b8076b46f1814278fda781d7200ec68b09ef2754ef2f9521b4c34d5e8082144c16d432b5c7351852602f50f372faa360882a77c96f6718d56cbd3c97583e5b6c2aaca31040e0389dbcaca134dc2ad22af33f1ee1de3a23937e7abcce8ff3d3319d6170cafeab11b0df88c72712aab57daf769e780d30cd16e088eb69324f0fc3436b62536aca0d895da52e7beaa3926e1204bf8f0f41ea1768906683c662ba4178a742d23fe0d6e2aa949182bb2695c59c2aff9a3712c65b3a3f425aff60a4b4c9b5121fb5736b80656693b16ce122f7a5013af9cc895e0c70b3d92becf7ba140359fb6a1ff15cfc17c84d273e170729d6d1b748781cf367dab984c4cf26434a3256ab95014838901237a6f33116b4431ec9d253833742b9e35126ed37330d988a6906458c69ddc2d31d65b23b47912e9476cd9f3dda1e6c9abac5d40a867f69d9527f51e4d26b528831ddfd5a321903ddc9aca8ba0b3a06f2f5d874341e76fcd31a7bdc1a482416b7ab16a5f9025e379b69d1419f9d5cf34455931f84450e724e975c54a572fe7ad227e26278a8d4cc97ffc9afcb6fcf9bc2b03dd6ed75efb0da8fb0bd0a62342417cf84ea8038ff737a603a74ec1027f74dcac0a6b16b0626f4bb1893593f26d90459d76f5793ad2d694a23087eac4fdd73d60bfa56da2bd50275f47bde6b40e7d79a475c765cdfcaaef6ca27dcb4804b0be94088b89d9b377dbfef3136679640945cb7050097a66a9a9d796762945a8745408f64f7da8c62999c780cb9a98c8dea2c87a7874601c6df0d5d4fd2e6b3fffda9f3f131a221259a02d76fc89b33221afadbfbc47b0c0e20f84d9282fc76943549e603a10c38786e7c358e2e7f9e3e3e237ef41a071838b6bf3592868409b116b36203af6d3bc3cac5a93f5c5cad3e8402c0432f460d603f395a3cbab7cca07b4fe8efcf29479389646e188a7ce22b30cfbaa39fa61d5063d308f129a5b8a77378173628336bd7e8c173c6133e14fb6cc97effc41b25f8fbc1ee5913e0ca89d48fd7b16ff7c86801384bdf5be5d750fde36426069f62a6cb008ab778dec86e30a3425a57de52ba53021ba1d102e06b1a73b271a97a024a0e0bcb854a002605cf795be40ebaf62a5d807f5cea6d091355104bf34128a1d30195497304df01229fc911e14b8eb1bbf3663d80659d86caae30e31ef082c629d2a2e6fb76794236f8b792bb7112fd66e2df9c60a49e0b05bc72c2bee4513928448926ec706bda758278d3f95d25ffb673a87d3bc67d7d2a0c0f05b5672ac3248558331fd1f950e6affa759795a0846a7e0343f387fd61e314317a2a9591beb3ef31d81308379fbeab00364b06dba4fba90d13a5a93f9a43d06ec23cda8b059fcd83e5555301f99cde1c405b92907c9be750902973fa9aa035b178dd46035181b3f210d053718f46e14b09a382213e1b72c292600182a7638ff1150880cd91eebe1b899847856c1212146025bc4760bad68f24a879bed13415e196c3d2bd3a0150c394245ab98511a6b00484670c3600462b0f9398b2d37921a95882e1cdac9284eecfd420c5df07ad8965509f38145fc63a1ed7af6ce30826fc64e9adcfece9b0a4d946cde8e082ec06e26ad5af61f7331edcb0e95b93a4c08bef0941652f76b1a91993bac2bd49f6c3fa11b188f75e4598c18a61b5b44f23dba434dac45264f0e1bd475ebc893520b26a2befe85743ea3285cbf31b796f49174a129e7933adb9ed9e1f06244aaefe5ff05c0b372bd0d21618ea2a23d24070cd75a879a21ad86131c0e0669b319502ee44b515d5c193d4391485a081aacbbc45da9aee4e1cc101e06a2370c5b95300004e2284b219da522195f5546abe9ef920718a8e8e12ca930ab7e9dd94f6384764aa6557a5266b7bd36117e53acc657318bcc1119c81008b726011d7e52272cdef4f4a12b68b425fbc819cc6716a9ba9e839422a28c5627483590c2430d76d2c5041496221f646ea6e45b01729a789e32df6bfa00effe0dfd876fa6a9ef11c5ed14c6171e9eaf87de8f0edc83349af7fdb8d3e4401ac8b7d454ceb5b4c54b90af23f44ca09b637bc0045193157e3bc5dba51dc7e2e00dd9f660bc8e9dba12ca365fad5ac0ae7db68e43a7a880111693b20d2d96ec5d2d7ff72845289ed9f322983cece428e034c602a3edbe0669eff15d00545c9a5e037480a899b8154b14a1fa7a35b5c1afb065410cdfe787226284e2012de04be560f6240752186359874e3daa501e6e22ce79d66f503f29963ec74b8385aadac2688f330284574e1f0b418624ab60b30027fafed05e79ec76d6b78468477b706b8e1b393af9de85ae1cb4033df017e15747dbdf76c800ad96c38b55688f597c1c980a9f90613f4bf7b5b6fd8292599af5f813234375749e7961626aa9d2f7f928187a8ef70aa1adbfa19b13d66f53de1051aa4174f51e6f16a3e74f9fb77b4ae539487bb1e8fc1624ba6a89b85b1aac3c087b66f2fa22cac1e4dacce67e3b24f52d5385ff34ac4a4358d80455a11e78edbe3b741e6b9ea951b0d83f6d56b4376da92244628a6e90edb9b7c07b9c220addaa991214222a3c494c535770747fa3a5c4e1f7fafd0f37455c5f6177a4a8acadcacdced1e6fa01050b0e1d2634494d4f50515a5d5e91c7d6e7fc0d0e1b2244585b5c5d8ca4ade6e8000000000000000000001324384601",
        "0026e8e936f8dab65bec13c65ad175234281ed19b245059cc7b4d6badb167402e3572c61a1bf1336b31fab0ed3ac99ceed85f23859a5a9079a92e455cefbdf51367b58e68025cfdf593bb1901306b5a222abc42aedcddd74a823dc60f579d7914299438e2f541887951fbbb401de44daa6c8d3260de1f9ef4488271c44f43c3a285b9da7d7e402e3a0a0060b311d38ec46dff3d7bda0535dadbfabd63bfa3e28390146203095f48fe08e068e60bb0d5bba7cda9b801be41c409e837505f8c91cf73df9ed4efc440616ec4ae3367ca04ce85e5c24a35b71b78d87b96da21f29c7ece35547adea4f8e2905d266912b5c6284d124717f3611cc6fc929d61e84b9024103c04b0f41d03b6023410099ce9bed42793b7ac69cadc71c3fcbe5783d3ae0844565c5f1897e0475bceba7684de5356705822767b37a99815bb7a6a68e479b764247dbced8f2088b0bb81f19fef34c6bfc938f03a308554ded06019b351b74f7bc5b33e9ef33700a33a71bd54b73e0c7bd6b10e94a0207b3c2be59828a66f2a909dc3608616931e7f9d1dcf63ea38a4eb08e663342d09c1b72921690127116d90868e7ef15d9afba6d111f1cc3fee6f0cad82fac8d1cb10e97aa21721c7a6ee33f87deabca19ae2d91639c6bc7517a2faa877e5c17f98cf2915ac33b46623188ca2677c0c867d8b4c8ae96d85c47c9e6f3071fd2b995636d07f5531eaa82587b45408786613bc66c63f06311299ac63a2b38786bf52af6402438bfff1f1969ad74e5d5921b22b801944b625b009eb359f51455093c396f499bf954ff66b6e8d369fcffdd9a12c207e79990740a2266386a061fb307f53abd0787b983e15a945cd00435d10751f64bb98f5bfe432804f9fef206f07369a9650cf57b199476d2e97bf17fd29ca50d1854fbeb51593df6a773e870f8d0d54180b925274ceeb2bb3fca6c61662680f214219bebe5bfec3a4dfb3624ae3cf1432a47949b1ae74d0f86ffab6c1ec6f0bcf017b4cc96a37b097d75a1357ae214afbb4b35967e698b0709b490d38f261d4d35f91d19734ed78bb4adf2a554d8a1d9df241cb0f7f6816c8849816f1e74fd3cd46080eb82ec7f51ac23d26dc99a0ccd531482408e5bf51798d7b6b702bfe6dc1eb7d85707be1538bdb9f4739b80bece9c17e013b09a2f5ba8d98dd3b440920e30886b32406d759556758860fe158570808ff982097f8daace4bdde75e7ccf8fc9f731e2f92f2e7ef99ba10f8a3b9247ca4048c9d576987775b197fd85f81c92e5bc1c99a4ad31f46a4f073d3f48fe40cd898c1c75c3a8551d277f81dfdc475122d3565a4e1fdf1343b692e9ff09b02b5ca911437b13047c026ce8dc6445d096425d54a6cebc0364c0493b3204504d6ba1fcc0ed6904559d7f7ba9e767897de6ade71a7a5c83ebc44f8aead42e6bbd2c75d2b9e5d3f9275dbc107bb4cb8d8b21e43cc22fe3ac11b4c43cc3ded8294830e491fb317029b1a5b27367e2e816fe8c0e2d4261dd4569a5c171e50d15256bce6eee20befcaee58147e2f70984f3fa5158dd26b8f34d181bcf59f47bb6ff83564082853051dd0168be9baebdc69e5325099191886072de7fc8a86a81ded3486741bbd87f09a75ed80a206e7f5efdf31b4146a8879f436a60f3fe908c9cb11b962735d16b193b6f022ce72398bcc530ec196271a4df1a6e4f2ea6fadd17254a584c3ef91a89890161668e0c51ab41aaa18baa18b68629c5e166911be8d9a790a3fb1cd33f092d73b93d0b1d97768b6000df98f73a220bb9e16dce2dc6d84f3502dfae417805c5d739e4c935ee1c331cddfe3e71097a9acd0ac764817551d10f0903e22f511475041f4a"
      ],
      "sequence": 4294967294
    }
  ],
  "vout": [
    {
      "value": 1.0,
      "n": 0,
      "scriptPubKey": {
        "asm": "OP_RETURN 2b4bc2dfffd0326de0c0bf08297c6ad4b140ebcef13086c297219bed75c1da1e 86bc65d59112146bafdee2ec15c65a24acec018019a784ba968bf2d6cd3bc65ba69c45f5b132344b8ffec2cc35e67a048ccc21a03987a49ab6abd2f6ed1be67bc6fc2595d152542bef9ea2ac55861a64ecac41c059e7c4fad6cbb2968d7b861be6dc05b5f172740bcfbe828c75a63a44cc8c61e079c7e4daf6eb92b6ad5ba63b063ce555119294eb2f5e626c9546daa42c6c81009927043a160b72564dbb46db261cc57531b2b4cb0f7e424cb566fa840c4ca120b907241a362b52766d9b66fb467ca51551d2d4ab6f1e222cd5069ae46c2cc140d967447a564b32160dfb069b665c853571f2f48b4f3e020cf526bac44c0ce160f947645a766b12362ddb26bb86bc65d59112146bafdee2ec15c65a24acec018019a784ba968bf2d6cd3bc65ba69c45f5b132344b8ffec2cc35e67a048ccc21a03987a49ab6abd2f6ed1be67bc6fc2595d152542bef9ea2ac55861a64ecac41c059e7c4fad6cbb2968d7b861be6dc05b5f172740bcfbe828c75a63a44cc8c61e079c7e4daf6eb92b6ad5ba63b063ce555119294eb2f5e626c9546daa42c6c81009927043a160b72564dbb46db261cc57531b2b4cb0f7e424cb566fa840c4ca120b907241a362b52766d9b66fb467ca51551d2d4ab6f1e222cd5069ae46c2cc140d967447a564b32160dfb069b665c853571f2f48b4f3e020cf526bac44c0ce160f947645a766b12362ddb26bb86bc65d59112146bafdee2ec15c65a24acec018019a784ba968bf2d6cd3bc65ba69c45f5b132344b8ffec2cc35e67a048ccc21a03987a49ab6abd2f6ed1be67bc6fc2595d152542bef9ea2ac55861a64ecac41c059e7c4fad6cbb2968d7b861be6dc05b5f172740bcfbe828c75a63a44cc8c61e079c7e4daf6eb92b6ad5ba63b063ce555119294eb2f5e626c9546daa42c6c81009927043a160b72564dbb46db261cc57531b2b4cb0f7e424cb566fa840c4ca120b907241a362b52766d9b66fb467ca51551d2d4ab6f1e222cd5069ae46c2cc140d967447a564b32160dfb069b665c853571f2f48b4f3e020cf526bac44c0ce160f947645a766b12362ddb26bb86bc65d59112146bafdee2ec15c65a24acec018019a784ba968bf2d6cd3bc65ba69c45f5b132344b8ffec2cc35e67a048ccc21a03987a49ab6abd2f6ed1be67bc6fc2595d152542bef9ea2ac55861a64ecac41c059e7c4fad6cbb2968d7b861be6dc05b5f172740bcfbe828c75a63a44cc8c61e079c7e4daf6eb92b6ad5ba63b063ce555119294eb2f5e626c9546daa42c6c81009927043a160b72564dbb46db261cc57531b2b4cb0f7e424cb566fa840c4ca120b907241a362b52766d9b66fb467ca51551d2d4ab6f1e222cd5069ae46c2cc140d967447a564b32160dfb069b665c853571f2f48b4f3e020cf526bac44c0ce160f947645a766b12362ddb26bb86bc65d59112146bafdee2ec15c65a24acec018019a784ba968bf2d6cd3bc65ba69c45f5b132344b8ffec2cc35e67a048ccc21a03987a49ab6abd2f6ed1be67bc6fc2595d152542bef9ea2ac55861a64ecac41c059e7c4fad6cbb2968d7b861be6dc05b5f172740bcfbe828c75a63a44cc8c61e079c7e4daf6eb92b6ad5ba63b063ce555119294eb2f5e626c9546daa46e9ed6ce0aebf0938eb90ffc17923ee85f7798b67c297047b806c355c0c1c982",
        "hex": "6a202b4bc2dfffd0326de0c0bf08297c6ad4b140ebcef13086c297219bed75c1da1e4db00486bc65d59112146bafdee2ec15c65a24acec018019a784ba968bf2d6cd3bc65ba69c45f5b132344b8ffec2cc35e67a048ccc21a03987a49ab6abd2f6ed1be67bc6fc2595d152542bef9ea2ac55861a64ecac41c059e7c4fad6cbb2968d7b861be6dc05b5f172740bcfbe828c75a63a44cc8c61e079c7e4daf6eb92b6ad5ba63b063ce555119294eb2f5e626c9546daa42c6c81009927043a160b72564dbb46db261cc57531b2b4cb0f7e424cb566fa840c4ca120b907241a362b52766d9b66fb467ca51551d2d4ab6f1e222cd5069ae46c2cc140d967447a564b32160dfb069b665c853571f2f48b4f3e020cf526bac44c0ce160f947645a766b12362ddb26bb86bc65d59112146bafdee2ec15c65a24acec018019a784ba968bf2d6cd3bc65ba69c45f5b132344b8ffec2cc35e67a048ccc21a03987a49ab6abd2f6ed1be67bc6fc2595d152542bef9ea2ac55861a64ecac41c059e7c4fad6cbb2968d7b861be6dc05b5f172740bcfbe828c75a63a44cc8c61e079c7e4daf6eb92b6ad5ba63b063ce555119294eb2f5e626c9546daa42c6c81009927043a160b72564dbb46db261cc57531b2b4cb0f7e424cb566fa840c4ca120b907241a362b52766d9b66fb467ca51551d2d4ab6f1e222cd5069ae46c2cc140d967447a564b32160dfb069b665c853571f2f48b4f3e020cf526bac44c0ce160f947645a766b12362ddb26bb86bc65d59112146bafdee2ec15c65a24acec018019a784ba968bf2d6cd3bc65ba69c45f5b132344b8ffec2cc35e67a048ccc21a03987a49ab6abd2f6ed1be67bc6fc2595d152542bef9ea2ac55861a64ecac41c059e7c4fad6cbb2968d7b861be6dc05b5f172740bcfbe828c75a63a44cc8c61e079c7e4daf6eb92b6ad5ba63b063ce555119294eb2f5e626c9546daa42c6c81009927043a160b72564dbb46db261cc57531b2b4cb0f7e424cb566fa840c4ca120b907241a362b52766d9b66fb467ca51551d2d4ab6f1e222cd5069ae46c2cc140d967447a564b32160dfb069b665c853571f2f48b4f3e020cf526bac44c0ce160f947645a766b12362ddb26bb86bc65d59112146bafdee2ec15c65a24acec018019a784ba968bf2d6cd3bc65ba69c45f5b132344b8ffec2cc35e67a048ccc21a03987a49ab6abd2f6ed1be67bc6fc2595d152542bef9ea2ac55861a64ecac41c059e7c4fad6cbb2968d7b861be6dc05b5f172740bcfbe828c75a63a44cc8c61e079c7e4daf6eb92b6ad5ba63b063ce555119294eb2f5e626c9546daa42c6c81009927043a160b72564dbb46db261cc57531b2b4cb0f7e424cb566fa840c4ca120b907241a362b52766d9b66fb467ca51551d2d4ab6f1e222cd5069ae46c2cc140d967447a564b32160dfb069b665c853571f2f48b4f3e020cf526bac44c0ce160f947645a766b12362ddb26bb86bc65d59112146bafdee2ec15c65a24acec018019a784ba968bf2d6cd3bc65ba69c45f5b132344b8ffec2cc35e67a048ccc21a03987a49ab6abd2f6ed1be67bc6fc2595d152542bef9ea2ac55861a64ecac41c059e7c4fad6cbb2968d7b861be6dc05b5f172740bcfbe828c75a63a44cc8c61e079c7e4daf6eb92b6ad5ba63b063ce555119294eb2f5e626c9546daa46e9ed6ce0aebf0938eb90ffc17923ee85f7798b67c297047b806c355c0c1c982",
        "type": "nulldata"
      }
    },
    {
      "value": 499988.8141,
      "n": 1,
      "scriptPubKey": {
        "asm": "1 3e42257f37090b9478bce545aa0197c6aab7358527be93517b08a4d470052569",
        "hex": "51203e42257f37090b9478bce545aa0197c6aab7358527be93517b08a4d470052569",
        "reqSigs": 1,
        "type": "witness_v1_scripthash",
        "addresses": [
          "3QJmnh"
        ]
      }
    }
  ],
  "blockhash": "9418e69333e129952491dcd6dc324ee50ca4a2e07f0678970cb85d951484494a",
  "confirmations": 1,
  "time": 1764177673,
  "blocktime": 1764177673
}