{
  "hex": "010000000001014340303c8a56fcf0d08628f22e2e21f29f25733c0579bd4afab08297e04655630100000000feffffff0200e1f50500000000fdd5046a20998ccabf12ad7ffd2234fae593dbedb10c8807f3b78809c9984e022b29ef4fc24db0045659f7d899bf4ea111181eeb496e5b1929f1cec91ee0d1b789513d5099337ce67679d7f8b99f6e8131383ecb694e7b3909d1eee93ec0f197a9711d70b9135cc61619b798d9ff0ee151585eab092e1b5969b18e895ea091f7c9117d10d9733ca6363997b8f9df2ec171787e8b290e3b794991aea97e80b1d7e9315d30f9531c86d6d97758193fce2191989e6bc9eedb99a9714e499e60513709d1bdd019b3fc66f6f95778391fee01b1b8be4be9cefbb989516e69be40711729f19df03993dc4696993718597f8e61d1d8de2b89ae9bd9e9310e09de2011774991fd9059f3bc26b6b91738795fae41f1f8fe0ba98ebbf9c9112e29fe00315769b1ddb079d39c065659f7d899bf4ea111181eeb496e5b1929f1cec91ee0d1b789513d5099337ce67679d7f8b99f6e8131383ecb694e7b3909d1eee93ec0f197a9711d70b9135cc61619b798d9ff0ee151585eab092e1b5969b18e895ea091f7c9117d10d9733ca6363997b8f9df2ec171787e8b290e3b794991aea97e80b1d7e9315d30f9531c86d6d97758193fce2191989e6bc9eedb99a9714e499e60513709d1bdd019b3fc66f6f95778391fee01b1b8be4be9cefbb989516e69be40711729f19df03993dc4696993718597f8e61d1d8de2b89ae9bd9e9310e09de2011774991fd9059f3bc26b6b91738795fae41f1f8fe0ba98ebbf9c9112e29fe00315769b1ddb079d39c065659f7d899bf4ea111181eeb496e5b1929f1cec91ee0d1b789513d5099337ce67679d7f8b99f6e8131383ecb694e7b3909d1eee93ec0f197a9711d70b9135cc61619b798d9ff0ee151585eab092e1b5969b18e895ea091f7c9117d10d9733ca6363997b8f9df2ec171787e8b290e3b794991aea97e80b1d7e9315d30f9531c86d6d97758193fce2191989e6bc9eedb99a9714e499e60513709d1bdd019b3fc66f6f95778391fee01b1b8be4be9cefbb989516e69be40711729f19df03993dc4696993718597f8e61d1d8de2b89ae9bd9e9310e09de2011774991fd9059f3bc26b6b91738795fae41f1f8fe0ba98ebbf9c9112e29fe00315769b1ddb079d39c065659f7d899bf4ea111181eeb496e5b1929f1cec91ee0d1b789513d5099337ce67679d7f8b99f6e8131383ecb694e7b3909d1eee93ec0f197a9711d70b9135cc61619b798d9ff0ee151585eab092e1b5969b18e895ea091f7c9117d10d9733ca6363997b8f9df2ec171787e8b290e3b794991aea97e80b1d7e9315d30f9531c86d6d97758193fce2191989e6bc9eedb99a9714e499e60513709d1bdd019b3fc66f6f95778391fee01b1b8be4be9cefbb989516e69be40711729f19df03993dc4696993718597f8e61d1d8de2b89ae9bd9e9310e09de2011774991fd9059f3bc26b6b91738795fae41f1f8fe0ba98ebbf9c9112e29fe00315769b1ddb079d39c065659f7d899bf4ea111181eeb496e5b1929f1cec91ee0d1b789513d5099337ce67679d7f8b99f6e8131383ecb694e7b3909d1eee93ec0f197a9711d70b9135cc61619b798d9ff0ee151585eab092e1b5969b18e895ea091f7c9117d10d9733ca6363997b8f9df2ec171787e8b290e3b794991aea97e80b1d7e9315d30f9531c86d6d97758193fce2191989e6bc9eedb9964e6e2a0cb58ea5fbb386cb0bfeb7f08d3daa5946de39264fa9ff43431986912f0ceba8f782d0000225120b0322ce54e7e5999c6a8836c6411d97d7d5555bc1d64a6359ff6c5f3fa28de2802fd75096551e4f64be5f1d5f6b4c2a8b95928866c59aaf83da1f11ba435aa2be22f381b9970e33dd530e624fe40f0e7a0d18b1712b71b6b18c6392582427143d2da4207e91177e9d7ac79e5402ae73cbb801b5f6d3356c07c14fcd94bc4a0c86d4f2b460839d0932de842bfb7d898898eb1cb980780efea6bda9b7651c0a02a4e81c673ae22db37429feba89cc0af3f5d0dcf61106352ff0df880c8971bd03d01f65b53749a6714f2a774f8aebe3945ba4f832b6c358969597f7bf109f9ad7f6e6518d4f284de36a8793f3d969e481423757d5193c18e7a750d386d045bd4e2287125b2ef4f63b52f8bc7dc3851a363bdd5b76cfda0150f3d2c4733f0ea9838d7afe048ad1d1145d8a4ddb56f31871711cf69e221f24ba87e5ef1ae446e5e4326c45d2dad25cc59fdc66093d15901a988d6685c4e8fe27dd92f91cd1d7fda592e9d02a087dce61f695e4fd13c8f6049bb02322d564f1136b6ed402f5adabbb49b505305a78424f66aff4b3b7ee456926bef53ec3be5a6450e46692358417b65e30317c0d0527c81ffc8b482027a85268554558d5a4fe8b92c3c6e2c07ff47110ba4ef3c2e699fdc8fe253117f3fd4b731e0303325af0cc3442333e72fffbc4d5b6492c64415144bc6e25dacc9249a2c5ff36db5f4932b717b833fe08dc869a3307cdfc641684463e756a3c24e45efdb2d534074de378b683a9757d75e6a9f85484ea1211eedf21e990220ff063a3b0be37dd4e66a849f2573b7bd30d78f98ca31e9a16422a29722ba1b648f1ad93e804bdd76f76160f77113ab3b9f95b32ce43b30813c61e6daf311df1dba474b83ee42fc4ef84de046ae2d03e074d80aa228fe5507134b6be58d75645264cab78a75b4e847d506f2894dbe885fbed01c55f3c4da6200ecfac29fa93d46f8f66290b27018b481fb696b23b1e5cd25dddc84e76f5d1d3792fbf7f458367a74c41012e5e63fa1d38dfc5dba9a9d59d3e48ef35845c6d19cd8d38d5cfd9d5b9e90ab8136c2b5f41615b525ac4b4d32a4bca4a5352572c06a64811c689b711947b49dd2ed58ce5f5143583a958a146be7e973b2ee38bbfa502cdbdcf3b1d289abc99b41cc8f83abd875adb7c2fb48f277eb99ee05b10af145023970fb276d7bb83de1bdc68efe50b492e7b00201ca952a144bc99101dff56de2e6826bd42e67dc71da0279c95f7154e231f7c8f711b962c884f7e04d2a50ed21a98979fabcdb335b7d2d36175c415f0d7f4380cffc39d70f5f1dfe3a2c59398fa9a67440a5968408bb8b850c95514eae3f7b061a307a7e1eff1a41f26ffd0ffb79803308451744d82e39a1a7abef980bb6c733a37bc368625af29a8f526168de7f3f9eb2ea0d18657a135b35b310975db4b5909daecc093d748b0e1d08388a82cace9fa4ce327db3d31b1315c8685f9f2cb7fb33fc7557fa97a48d44f85f3405e77bb106cdf08ee6ac791924c35c340dab08e584c4b9f14249640a1913e377fc3058e303670e51084da4bc037c0a1bc68decd7603823152a342eb1f087fb6caa60b1b48f6cba993a5d6243516dfe99fb3e61d331e425d2d089e3d8327ea7895af2e57aa678bfc4f4c2b8fdf2a4e77f713faa1d9858e16c4c0f88683fb44225c3731f8f6c5ce2db29a5e479c9c9910bd4e25d86d281c315511d214eb1e4dee38fb3c5ea5f9aeef7b62ff4bb1d8504e5ab9bacced44f03be975a625f11c992c3d81454724508ceff42a197cf249ad5f6a466fd8c2aeb29b82e82173aadcb3e66256c3d8dad7e4be15bec802b5ab6a75a7f8d4e84dee2f05537c62da390a25ca4f46100db796f839d87a84dc0d1cee51fae3955435840b4b429eceb3a9fda3f59a8c4e2342394f9049913bd0426dc550292343d32dcf88685a6708254d3e4b4d290f516e042dc45dac8ec02c20839c728db676bc9578cf011a2bbd1cf06af9d026cbd9fb0a4e3bb1ce2b8f64a89a3eb1a14716aee74ad97c102a6627e4241c24b2103ee62b49ff1b6bc4659b284da45df5697d7296895d268c791f909342822e0bf6bb1a36eadd6b63fc3fbf4de1a0b7aeb524a575d7babc75153be6af37b2435d5f78f42aebd5058de60ab8c76536f240b4abe1dc647fd9f8cb6a627d932e6a46bbfe242e71ee2060043b84362f1606fb6a7c82eddc1b68d49b1ce4cf63009c2588e27021f73e8b054e9bd6b38dc4c9669d88d44e1938764f5d655da5b193c4997c6068c6a0fc5bbfc6ccc5246835db9f2a83867d780c7b96faa2623fd9905af5fae6253b26c00c4e0adf9b4b8f51472e48a1c756d50b9479a56c075e953bbe9186f53aa388caee20e93429bf582a22baa9fb6a940b375f21775a6889474b81298408c21006e79d28590e3cace327288e2c641a97cd923e429862b7900efba6aa34076a20eb4d4bd6ae598f7f0ab06a1ea59f19f455ef58a6a4bf4649b3d45f70fc50d14107a22373e5e7157227eed45dbbaf0fae50acaaee65563c647550f08bb0b5ae5d1d910b94a75b7c22f6c65a1949f99eb3b2ad19ea01d56bd527b52fe9709c0ed124611519ba07b66c479d0ae1ac3abd5db048cc15f6d91b3946922100c1f1623146c7d24ba4b84ad45a8ead4e0f20d2c55d1bf5941c77bab9b3ae428e36a5fa9acd5277a531c041d5d74bccfd912028bb8611202e58bc22a2fd4b99aab73727bc3019a73c6d29ff79f0d347e0dcae569ec0e551924d976dd09606af80bdb4c4b89962365a10979a558d39819fbc7f172e2d217aa9caaf16fea3072fc51239913f9f308bd3ecd841513d6c173e39dbae21ccd58795af2bf784c182c1ea7fca837755173f27622941a62d650773b614bfed7e9922e03b25e9ba9ea3510a33984035a5e0131e62c9227bc0f5b43075ceff723bd00ea6ad4a8233064586bfdecf3acd103dd2e5dd8dfbe96ba8b37dfdcacf9ecafb5dd2a404b29d07e98dd9772e36e2c5f6d21fd1858d10318c00cdaedd2b07423c7c32235a8857682a2c3f473cef9d1a2681a1bd4312930202124abcb4f6e9bd242b54e272c4380a718a620875760ddc0d5da9b18bc72e222dccd75d26c608c30fe65a886386d176068df24db96027ba47cc0d2e7601b21695e71d50444f79fa20535e079b0175a35788a7ba4f2fa9b1c2493d4ddb17312ec87176b903cb39229335440d0d9d087283ed514b4979ada34424b008386fe1539dd3be50ace1ab29f06bc2424a3f21e0f972a718819f6077bd53eb7275a56eac1124aa6df6c9059d806cb2839a439042feb57523ba86f5c35526244bf66cb79bb900cd003b294d5c844377b442f5044fabef110142933373f536a7c819192afb7bfc2c9d3e9f60513153343818a95aad20a2e5c63898a959ca7bec3c8d0080f13242632343b3d44454d626e7d87a4b0fd000000000000000000000000000000000000141e2b3e01fd2105001619a5d0038be09b56ea4c5e10ab1132bc56870b47c87ad8f904b34bf13437e14aad5084405fe453cfcfd4795d1f36b130b718eb0d5b0841806d203df925ed89acb115480fce5dccc4125a3a6b43a05bf1b39207ab27d5663316a43e862a7877c55c4e08e3fbf896e0b621e3e408062ab40293572cbab53933e04c18b160b4d80c20938fcd2979f9af46a5ce2087d5edd8c1ed40bbd44da94c751409cda651a1cef7be5fd055c1fccb122bd7e1ec3a534afa251fd95efc29d091c4eaee3a80dc3cd72861f0ff2586fb535c5e13b64942b6b04b316f2a738ae3b3a06d578c0045bb8aa01f5c29935fbd07246d904c02f6d187e608a8678e837701a0abd569a4f799bafd69615c2ad2ce52691859fd050669fdd661aaf05f7687649dff3f3933071b28aec4cc2cce46a1e491fec38666add1d774e1c926988d87e8b27e169a3fbf7e34dc9316e75ecbdc34f7aaad696caead49d8f176eb6735665c781cddacfbed5ead9feb449f00bcc5aaf839963f4dbf4d1058379a9290ae347565eabfa6818c3409b4bb9b5caafa0872ce88c32f82ea2160da3469a51eeb2515bc1bb8b7fe2f3bd239538cc874f68681d5555f32d85ff04f131f551d87111c67f0503c91b3bbbbddbc41b908c730240e52aea9fe2205d272d7c4ec77320abde8e1bf19e3c78b367d58fcb026024937c8f15b86f60b735b6d777e1e346451239269cca747e94ddf91bc8747a26d59580320c9783b87419c17d6585fe656b0d1319e6efd85c8c22fc9a02acd52b424fb70d59ec97f1744d7ca6a7f2ce5c2f0e545631c099d58754bf2239c4689eb448a264be8976d91c905b41680f34abf797f830a86d7f2cec7062ff440de832eb27490104a2bf1f0241a53e4dab353abc33a6b20db844bfa7eaaae4de0fd450081754a7ec92a1fb57aec4f9330dc331055c3988da70d331017502eaf793bafe1980242e0aa7e4aaac510a33f6ea007b56b3e234ae6eaa4eee939658011806b7a268eb3360e32607dc63c0cf90d0e33f6d6f92d063d915a09820a4bb1fdeac10fba116fd26462fff8400aba1554d4c8488305931a25d0d020efbdb33a7393ba3882fff6e6a504a8620a8d918bc837717473504ef8f2950cb2511967fc7c398c8fe9bfabdc426821c087b651dc7fd279b4167ed70d24426f593ede094a3ac5cbb5a49c71518441fbeca2d6fb437755ecc20e020b824656560a26a243e71ad444cfcfa40b7d8130f60f8e831525e906370c838114ef4cb24b5e7c2bd8485123ddf6ae5f5ea885a4d08b982c4a0aafe7ded76b8ba1eff32380cdcebd6a1d21038a07ea228f8f7aeee24ab0c16c3d2fa3ffcabab23aa447b4250015fa93619700791b279e658cdb990315067d8eed0d283b33bb07bba5ec08123c2a433dd30bdbee8483c60a135aa658eda996eaa10643c77ee3291e4e853168f8b3bf7a20e81b15362f5105092a5c6d95107e213fae39c7669882f9128ce534b2ee93e8cc98da5caabca42b36a42ae8233764492c29b4976a6e52e19eac8eba919fb824375ea56402de32e654261eac507bb84f0887bb24c091e5df13545049ac88406d79f56e7d1c7f1baa0610ed166218fb6fd224f6be33e62a7b687efb2898184f50d19f49eb2ee7798b00ce97ba985ef3e8e1f33aa2cb0cf28c3fcbc0f45ba9079ceb94b4f922723be6d7f58ad6cf8f2bf485f01b50f3807aeafc4114e5331679dae8e9fe518b878b86776b01eaef914e7c66b1e583112311cd434128b13d3a7fe40d9f7ad4cf9230da049eb4d64bd71997ea6b66eacf8d369b9fd5b5e28cc31d8aedf24a84ced5b032ff8940da39bc56244edcf6f050d370a030835832896e8b000000",
  "txid": "e5f0faf056d28d1f9bd537cb08638a70d5013e88564f495d43a59db51d79196d",
  "hash": "a6badb0c166cea4a6a09952ce23b8d9e05cdbd25cce53a56eb793229f0daaff3",
  "size": 5085,
  "vsize": 2278,
  "version": 1,
  "locktime": 139,
  "vin": [
    {
      "txid": "635546e09782b0fa4abd79053c73259ff2212e2ef22886d0f0fc568a3c304043",
      "vout": 1,
      "scriptSig": {
        "asm": "",
        "hex": ""
      },
      "txinwitness": [
        "6551e4f64be5f1d5f6b4c2a8b95928866c59aaf83da1f11ba435aa2be22f381b9970e33dd530e624fe40f0e7a0d18b1712b71b6b18c6392582427143d2da4207e91177e9d7ac79e5402ae73cbb801b5f6d3356c07c14fcd94bc4a0c86d4f2b460839d0932de842bfb7d898898eb1cb980780efea6bda9b7651c0a02a4e81c673ae22db37429feba89cc0af3f5d0dcf61106352ff0df880c8971bd03d01f65b53749a6714f2a774f8aebe3945ba4f832b6c358969597f7bf109f9ad7f6e6518d4f284de36a8793f3d969e481423757d5193c18e7a750d386d045bd4e2287125b2ef4f63b52f8bc7dc3851a363bdd5b76cfda0150f3d2c4733f0ea9838d7afe048ad1d1145d8a4ddb56f31871711cf69e221f24ba87e5ef1ae446e5e4326c45d2dad25cc59fdc66093d15901a988d6685c4e8fe27dd92f91cd1d7fda592e9d02a087dce61f695e4fd13c8f6049bb02322d564f1136b6ed402f5adabbb49b505305a78424f66aff4b3b7ee456926bef53ec3be5a6450e46692358417b65e30317c0d0527c81ffc8b482027a85268554558d5a4fe8b92c3c6e2c07ff47110ba4ef3c2e699fdc8fe253117f3fd4b731e0303325af0cc3442333e72fffbc4d5b6492c64415144bc6e25dacc9249a2c5ff36db5f4932b717b833fe08dc869a3307cdfc641684463e756a3c24e45efdb2d534074de378b683a9757d75e6a9f85484ea1211eedf21e990220ff063a3b0be37dd4e66a849f2573b7bd30d78f98ca31e9a16422a29722ba1b648f1ad93e804bdd76f76160f77113ab3b9f95b32ce43b30813c61e6daf311df1dba474b83ee42fc4ef84de046ae2d03e074d80aa228fe5507134b6be58d75645264cab78a75b4e847d506f2894dbe885fbed01c55f3c4da6200ecfac29fa93d46f8f66290b27018b481fb696b23b1e5cd25dddc84e76f5d1d3792fbf7f458367a74c41012e5e63fa1d38dfc5dba9a9d59d3e48ef35845c6d19cd8d38d5cfd9d5b9e90ab8136c2b5f41615b525ac4b4d32a4bca4a5352572c06a64811c689b711947b49dd2ed58ce5f5143583a958a146be7e973b2ee38bbfa502cdbdcf3b1d289abc99b41cc8f83abd875adb7c2fb48f277eb99ee05b10af145023970fb276d7bb83de1bdc68efe50b492e7b00201ca952a144bc99101dff56de2e6826bd42e67dc71da0279c95f7154e231f7c8f711b962c884f7e04d2a50ed21a98979fabcdb335b7d2d36175c415f0d7f4380cffc39d70f5f1dfe3a2c59398fa9a67440a5968408bb8b850c95514eae3f7b061a307a7e1eff1a41f26ffd0ffb79803308451744d82e39a1a7abef980bb6c733a37bc368625af29a8f526168de7f3f9eb2ea0d18657a135b35b310975db4b5909daecc093d748b0e1d08388a82cace9fa4ce327db3d31b1315c8685f9f2cb7fb33fc7557fa97a48d44f85f3405e77bb106cdf08ee6ac791924c35c340dab08e584c4b9f14249640a1913e377fc3058e303670e51084da4bc037c0a1bc68decd7603823152a342eb1f087fb6caa60b1b48f6cba993a5d6243516dfe99fb3e61d331e425d2d089e3d8327ea7895af2e57aa678bfc4f4c2b8fdf2a4e77f713faa1d9858e16c4c0f88683fb44225c3731f8f6c5ce2db29a5e479c9c9910bd4e25d86d281c315511d214eb1e4dee38fb3c5ea5f9aeef7b62ff4bb1d8504e5ab9bacced44f03be975a625f11c992c3d81454724508ceff42a197cf249ad5f6a466fd8c2aeb29b82e82173aadcb3e66256c3d8dad7e4be15bec802b5ab6a75a7f8d4e84dee2f05537c62da390a25ca4f46100db796f839d87a84dc0d1cee51fae3955435840b4b429eceb3a9fda3f59a8c4e2342394f9049913bd0426dc550292343d32dcf88685a6708254d3e4b4d290f516e042dc45dac8ec02c20839c728db676bc9578cf011a2bbd1cf06af9d026cbd9fb0a4e3bb1ce2b8f64a89a3eb1a14716aee74ad97c102a6627e4241c24b2103ee62b49ff1b6bc4659b284da45df5697d7296895d268c791f909342822e0bf6bb1a36eadd6b63fc3fbf4de1a0b7aeb524a575d7babc75153be6af37b2435d5f78f42aebd5058de60ab8c76536f240b4abe1dc647fd9f8cb6a627d932e6a46bbfe242e71ee2060043b84362f1606fb6a7c82eddc1b68d49b1ce4cf63009c2588e27021f73e8b054e9bd6b38dc4c9669d88d44e1938764f5d655da5b193c4997c6068c6a0fc5bbfc6ccc5246835db9f2a83867d780c7b96faa2623fd9905af5fae6253b26c00c4e0adf9b4b8f51472e48a1c756d50b9479a56c075e953bbe9186f53aa388caee20e93429bf582a22baa9fb6a940b375f21775a6889474b81298408c21006e79d28590e3cace327288e2c641a97cd923e429862b7900efba6aa34076a20eb4d4bd6ae598f7f0ab06a1ea59f19f455ef58a6a4bf4649b3d45f70fc50d14107a22373e5e7157227eed45dbbaf0fae50acaaee65563c647550f08bb0b5ae5d1d910b94a75b7c22f6c65a1949f99eb3b2ad19ea01d56bd527b52fe9709c0ed124611519ba07b66c479d0ae1ac3abd5db048cc15f6d91b3946922100c1f1623146c7d24ba4b84ad45a8ead4e0f20d2c55d1bf5941c77bab9b3ae428e36a5fa9acd5277a531c041d5d74bccfd912028bb8611202e58bc22a2fd4b99aab73727bc3019a73c6d29ff79f0d347e0dcae569ec0e551924d976dd09606af80bdb4c4b89962365a10979a558d39819fbc7f172e2d217aa9caaf16fea3072fc51239913f9f308bd3ecd841513d6c173e39dbae21ccd58795af2bf784c182c1ea7fca837755173f27622941a62d650773b614bfed7e9922e03b25e9ba9ea3510a33984035a5e0131e62c9227bc0f5b43075ceff723bd00ea6ad4a8233064586bfdecf3acd103dd2e5dd8dfbe96ba8b37dfdcacf9ecafb5dd2a404b29d07e98dd9772e36e2c5f6d21fd1858d10318c00cdaedd2b07423c7c32235a8857682a2c3f473cef9d1a2681a1bd4312930202124abcb4f6e9bd242b54e272c4380a718a620875760ddc0d5da9b18bc72e222dccd75d26c608c30fe65a886386d176068df24db96027ba47cc0d2e7601b21695e71d50444f79fa20535e079b0175a35788a7ba4f2fa9b1c2493d4ddb17312ec87176b903cb39229335440d0d9d087283ed514b4979ada34424b008386fe1539dd3be50ace1ab29f06bc2424a3f21e0f972a718819f6077bd53eb7275a56eac1124aa6df6c9059d806cb2839a439042feb57523ba86f5c35526244bf66cb79bb900cd003b294d5c844377b442f5044fabef110142933373f536a7c819192afb7bfc2c9d3e9f60513153343818a95aad20a2e5c63898a959ca7bec3c8d0080f13242632343b3d44454d626e7d87a4b0fd000000000000000000000000000000000000141e2b3e01",
        "001619a5d0038be09b56ea4c5e10ab1132bc56870b47c87ad8f904b34bf13437e14aad5084405fe453cfcfd4795d1f36b130b718eb0d5b0841806d203df925ed89acb115480fce5dccc4125a3a6b43a05bf1b39207ab27d5663316a43e862a7877c55c4e08e3fbf896e0b621e3e408062ab40293572cbab53933e04c18b160b4d80c20938fcd2979f9af46a5ce2087d5edd8c1ed40bbd44da94c751409cda651a1cef7be5fd055c1fccb122bd7e1ec3a534afa251fd95efc29d091c4eaee3a80dc3cd72861f0ff2586fb535c5e13b64942b6b04b316f2a738ae3b3a06d578c0045bb8aa01f5c29935fbd07246d904c02f6d187e608a8678e837701a0abd569a4f799bafd69615c2ad2ce52691859fd050669fdd661aaf05f7687649dff3f3933071b28aec4cc2cce46a1e491fec38666add1d774e1c926988d87e8b27e169a3fbf7e34dc9316e75ecbdc34f7aaad696caead49d8f176eb6735665c781cddacfbed5ead9feb449f00bcc5aaf839963f4dbf4d1058379a9290ae347565eabfa6818c3409b4bb9b5caafa0872ce88c32f82ea2160da3469a51eeb2515bc1bb8b7fe2f3bd239538cc874f68681d5555f32d85ff04f131f551d87111c67f0503c91b3bbbbddbc41b908c730240e52aea9fe2205d272d7c4ec77320abde8e1bf19e3c78b367d58fcb026024937c8f15b86f60b735b6d777e1e346451239269cca747e94ddf91bc8747a26d59580320c9783b87419c17d6585fe656b0d1319e6efd85c8c22fc9a02acd52b424fb70d59ec97f1744d7ca6a7f2ce5c2f0e545631c099d58754bf2239c4689eb448a264be8976d91c905b41680f34abf797f830a86d7f2cec7062ff440de832eb27490104a2bf1f0241a53e4dab353abc33a6b20db844bfa7eaaae4de0fd450081754a7ec92a1fb57aec4f9330dc331055c3988da70d331017502eaf793bafe1980242e0aa7e4aaac510a33f6ea007b56b3e234ae6eaa4eee939658011806b7a268eb3360e32607dc63c0cf90d0e33f6d6f92d063d915a09820a4bb1fdeac10fba116fd26462fff8400aba1554d4c8488305931a25d0d020efbdb33a7393ba3882fff6e6a504a8620a8d918bc837717473504ef8f2950cb2511967fc7c398c8fe9bfabdc426821c087b651dc7fd279b4167ed70d24426f593ede094a3ac5cbb5a49c71518441fbeca2d6fb437755ecc20e020b824656560a26a243e71ad444cfcfa40b7d8130f60f8e831525e906370c838114ef4cb24b5e7c2bd8485123ddf6ae5f5ea885a4d08b982c4a0aafe7ded76b8ba1eff32380cdcebd6a1d21038a07ea228f8f7aeee24ab0c16c3d2fa3ffcabab23aa447b4250015fa93619700791b279e658cdb990315067d8eed0d283b33bb07bba5ec08123c2a433dd30bdbee8483c60a135aa658eda996eaa10643c77ee3291e4e853168f8b3bf7a20e81b15362f5105092a5c6d95107e213fae39c7669882f9128ce534b2ee93e8cc98da5caabca42b36a42ae8233764492c29b4976a6e52e19eac8eba919fb824375ea56402de32e654261eac507bb84f0887bb24c091e5df13545049ac88406d79f56e7d1c7f1baa0610ed166218fb6fd224f6be33e62a7b687efb2898184f50d19f49eb2ee7798b00ce97ba985ef3e8e1f33aa2cb0cf28c3fcbc0f45ba9079ceb94b4f922723be6d7f58ad6cf8f2bf485f01b50f3807aeafc4114e5331679dae8e9fe518b878b86776b01eaef914e7c66b1e583112311cd434128b13d3a7fe40d9f7ad4cf9230da049eb4d64bd71997ea6b66eacf8d369b9fd5b5e28cc31d8aedf24a84ced5b032ff8940da39bc56244edcf6f050d370a030835832896e"
      ],
      "sequence": 4294967294
    }
  ],
  "vout": [
    {
      "value": 1.0,
      "n": 0,
      "scriptPubKey": {
        "asm": "OP_RETURN 998ccabf12ad7ffd2234fae593dbedb10c8807f3b78809c9984e022b29ef4fc2 5659f7d899bf4ea111181eeb496e5b1929f1cec91ee0d1b789513d5099337ce67679d7f8b99f6e8131383ecb694e7b3909d1eee93ec0f197a9711d70b9135cc61619b798d9ff0ee151585eab092e1b5969b18e895ea091f7c9117d10d9733ca6363997b8f9df2ec171787e8b290e3b794991aea97e80b1d7e9315d30f9531c86d6d97758193fce2191989e6bc9eedb99a9714e499e60513709d1bdd019b3fc66f6f95778391fee01b1b8be4be9cefbb989516e69be40711729f19df03993dc4696993718597f8e61d1d8de2b89ae9bd9e9310e09de2011774991fd9059f3bc26b6b91738795fae41f1f8fe0ba98ebbf9c9112e29fe00315769b1ddb079d39c065659f7d899bf4ea111181eeb496e5b1929f1cec91ee0d1b789513d5099337ce67679d7f8b99f6e8131383ecb694e7b3909d1eee93ec0f197a9711d70b9135cc61619b798d9ff0ee151585eab092e1b5969b18e895ea091f7c9117d10d9733ca6363997b8f9df2ec171787e8b290e3b794991aea97e80b1d7e9315d30f9531c86d6d97758193fce2191989e6bc9eedb99a9714e499e60513709d1bdd019b3fc66f6f95778391fee01b1b8be4be9cefbb989516e69be40711729f19df03993dc4696993718597f8e61d1d8de2b89ae9bd9e9310e09de2011774991fd9059f3bc26b6b91738795fae41f1f8fe0ba98ebbf9c9112e29fe00315769b1ddb079d39c065659f7d899bf4ea111181eeb496e5b1929f1cec91ee0d1b789513d5099337ce67679d7f8b99f6e8131383ecb694e7b3909d1eee93ec0f197a9711d70b9135cc61619b798d9ff0ee151585eab092e1b5969b18e895ea091f7c9117d10d9733ca6363997b8f9df2ec171787e8b290e3b794991aea97e80b1d7e9315d30f9531c86d6d97758193fce2191989e6bc9eedb99a9714e499e60513709d1bdd019b3fc66f6f95778391fee01b1b8be4be9cefbb989516e69be40711729f19df03993dc4696993718597f8e61d1d8de2b89ae9bd9e9310e09de2011774991fd9059f3bc26b6b91738795fae41f1f8fe0ba98ebbf9c9112e29fe00315769b1ddb079d39c065659f7d899bf4ea111181eeb496e5b1929f1cec91ee0d1b789513d5099337ce67679d7f8b99f6e8131383ecb694e7b3909d1eee93ec0f197a9711d70b9135cc61619b798d9ff0ee151585eab092e1b5969b18e895ea091f7c9117d10d9733ca6363997b8f9df2ec171787e8b290e3b794991aea97e80b1d7e9315d30f9531c86d6d97758193fce2191989e6bc9eedb99a9714e499e60513709d1bdd019b3fc66f6f95778391fee01b1b8be4be9cefbb989516e69be40711729f19df03993dc4696993718597f8e61d1d8de2b89ae9bd9e9310e09de2011774991fd9059f3bc26b6b91738795fae41f1f8fe0ba98ebbf9c9112e29fe00315769b1ddb079d39c065659f7d899bf4ea111181eeb496e5b1929f1cec91ee0d1b789513d5099337ce67679d7f8b99f6e8131383ecb694e7b3909d1eee93ec0f197a9711d70b9135cc61619b798d9ff0ee151585eab092e1b5969b18e895ea091f7c9117d10d9733ca6363997b8f9df2ec171787e8b290e3b794991aea97e80b1d7e9315d30f9531c86d6d97758193fce2191989e6bc9eedb9964e6e2a0cb58ea5fbb386cb0bfeb7f08d3daa5946de39264fa9ff43431986912",
        "hex": "6a20998ccabf12ad7ffd2234fae593dbedb10c8807f3b78809c9984e022b29ef4fc24db0045659f7d899bf4ea111181eeb496e5b1929f1cec91ee0d1b789513d5099337ce67679d7f8b99f6e8131383ecb694e7b3909d1eee93ec0f197a9711d70b9135cc61619b798d9ff0ee151585eab092e1b5969b18e895ea091f7c9117d10d9733ca6363997b8f9df2ec171787e8b290e3b794991aea97e80b1d7e9315d30f9531c86d6d97758193fce2191989e6bc9eedb99a9714e499e60513709d1bdd019b3fc66f6f95778391fee01b1b8be4be9cefbb989516e69be40711729f19df03993dc4696993718597f8e61d1d8de2b89ae9bd9e9310e09de2011774991fd9059f3bc26b6b91738795fae41f1f8fe0ba98ebbf9c9112e29fe00315769b1ddb079d39c065659f7d899bf4ea111181eeb496e5b1929f1cec91ee0d1b789513d5099337ce67679d7f8b99f6e8131383ecb694e7b3909d1eee93ec0f197a9711d70b9135cc61619b798d9ff0ee151585eab092e1b5969b18e895ea091f7c9117d10d9733ca6363997b8f9df2ec171787e8b290e3b794991aea97e80b1d7e9315d30f9531c86d6d97758193fce2191989e6bc9eedb99a9714e499e60513709d1bdd019b3fc66f6f95778391fee01b1b8be4be9cefbb989516e69be40711729f19df03993dc4696993718597f8e61d1d8de2b89ae9bd9e9310e09de2011774991fd9059f3bc26b6b91738795fae41f1f8fe0ba98ebbf9c9112e29fe00315769b1ddb079d39c065659f7d899bf4ea111181eeb496e5b1929f1cec91ee0d1b789513d5099337ce67679d7f8b99f6e8131383ecb694e7b3909d1eee93ec0f197a9711d70b9135cc61619b798d9ff0ee151585eab092e1b5969b18e895ea091f7c9117d10d9733ca6363997b8f9df2ec171787e8b290e3b794991aea97e80b1d7e9315d30f9531c86d6d97758193fce2191989e6bc9eedb99a9714e499e60513709d1bdd019b3fc66f6f95778391fee01b1b8be4be9cefbb989516e69be40711729f19df03993dc4696993718597f8e61d1d8de2b89ae9bd9e9310e09de2011774991fd9059f3bc26b6b91738795fae41f1f8fe0ba98ebbf9c9112e29fe00315769b1ddb079d39c065659f7d899bf4ea111181eeb496e5b1929f1cec91ee0d1b789513d5099337ce67679d7f8b99f6e8131383ecb694e7b3909d1eee93ec0f197a9711d70b9135cc61619b798d9ff0ee151585eab092e1b5969b18e895ea091f7c9117d10d9733ca6363997b8f9df2ec171787e8b290e3b794991aea97e80b1d7e9315d30f9531c86d6d97758193fce2191989e6bc9eedb99a9714e499e60513709d1bdd019b3fc66f6f95778391fee01b1b8be4be9cefbb989516e69be40711729f19df03993dc4696993718597f8e61d1d8de2b89ae9bd9e9310e09de2011774991fd9059f3bc26b6b91738795fae41f1f8fe0ba98ebbf9c9112e29fe00315769b1ddb079d39c065659f7d899bf4ea111181eeb496e5b1929f1cec91ee0d1b789513d5099337ce67679d7f8b99f6e8131383ecb694e7b3909d1eee93ec0f197a9711d70b9135cc61619b798d9ff0ee151585eab092e1b5969b18e895ea091f7c9117d10d9733ca6363997b8f9df2ec171787e8b290e3b794991aea97e80b1d7e9315d30f9531c86d6d97758193fce2191989e6bc9eedb9964e6e2a0cb58ea5fbb386cb0bfeb7f08d3daa5946de39264fa9ff43431986912",
        "type": "nulldata"
      }
    },
    {
      "value": 499958.3071,
      "n": 1,
      "scriptPubKey": {
        "asm": "1 b0322ce54e7e5999c6a8836c6411d97d7d5555bc1d64a6359ff6c5f3fa28de28",
        "hex": "5120b0322ce54e7e5999c6a8836c6411d97d7d5555bc1d64a6359ff6c5f3fa28de28",
        "reqSigs": 1,
        "type": "witness_v1_scripthash",
        "addresses": [
          "3QJmnh"
        ]
      }
    }
  ],
  "blockhash": "fe774b47c0e88c04e0fb50de4979690042b0828e482e852985a1cce393f947a2",
  "confirmations": 1,
  "time": 1764183806,
  "blocktime": 1764183806
}