{
  "hex": "01000000000101bf9ff0d89f919f1c9259015eb45e9bd8348aaa16c93c203b3e5d2f9937e5dee70100000000feffffff02e021231b792d000022512077c2b7c811144745be094b4c24c55eef6ec940795ed7981bda7a5eecfd66d43900e1f50500000000fdd5046a20a8da10e94fa25b84f3ea3ed4b7c01a0d1164bea6b9d62f4d763b5bce2bc1d4744db004b3ba665aaba41aa73aaeed2cbd997dc54aee20f0fc491eb86792f00ebc35d5f9939a467a8b843a871a8ecd0c9db95de56ace00d0dc693e9847b2d02e9c15f5d9f3fa261aebe45ae77aeead6cfdd93d850aae60b0bc095ef827d2b04efc7595b9d3da063acbc47ac75ace8d4cddf91da52a8e40909c297ed807f2906edc55b599333ae6da2b249a27ba2e6dac3d19fd45ca6ea0707cc99e38e712708e3cb55579131ac6fa0b04ba079a0e4d8c1d39dd65ea4e80505ce9be18c73250ae1c957559737aa69a6b64da67fa6e2dec7d59bd058a2ee0303c89de78a75230ce7cf51539535a86ba4b44fa47da4e0dcc5d799d25aa0ec0101ca9fe58877210ee5cd53519b3ba665aaba41aa73aaeed2cbd997dc54aee20f0fc491eb86792f00ebc35d5f9939a467a8b843a871a8ecd0c9db95de56ace00d0dc693e9847b2d02e9c15f5d9f3fa261aebe45ae77aeead6cfdd93d850aae60b0bc095ef827d2b04efc7595b9d3da063acbc47ac75ace8d4cddf91da52a8e40909c297ed807f2906edc55b599333ae6da2b249a27ba2e6dac3d19fd45ca6ea0707cc99e38e712708e3cb55579131ac6fa0b04ba079a0e4d8c1d39dd65ea4e80505ce9be18c73250ae1c957559737aa69a6b64da67fa6e2dec7d59bd058a2ee0303c89de78a75230ce7cf51539535a86ba4b44fa47da4e0dcc5d799d25aa0ec0101ca9fe58877210ee5cd53519b3ba665aaba41aa73aaeed2cbd997dc54aee20f0fc491eb86792f00ebc35d5f9939a467a8b843a871a8ecd0c9db95de56ace00d0dc693e9847b2d02e9c15f5d9f3fa261aebe45ae77aeead6cfdd93d850aae60b0bc095ef827d2b04efc7595b9d3da063acbc47ac75ace8d4cddf91da52a8e40909c297ed807f2906edc55b599333ae6da2b249a27ba2e6dac3d19fd45ca6ea0707cc99e38e712708e3cb55579131ac6fa0b04ba079a0e4d8c1d39dd65ea4e80505ce9be18c73250ae1c957559737aa69a6b64da67fa6e2dec7d59bd058a2ee0303c89de78a75230ce7cf51539535a86ba4b44fa47da4e0dcc5d799d25aa0ec0101ca9fe58877210ee5cd53519b3ba665aaba41aa73aaeed2cbd997dc54aee20f0fc491eb86792f00ebc35d5f9939a467a8b843a871a8ecd0c9db95de56ace00d0dc693e9847b2d02e9c15f5d9f3fa261aebe45ae77aeead6cfdd93d850aae60b0bc095ef827d2b04efc7595b9d3da063acbc47ac75ace8d4cddf91da52a8e40909c297ed807f2906edc55b599333ae6da2b249a27ba2e6dac3d19fd45ca6ea0707cc99e38e712708e3cb55579131ac6fa0b04ba079a0e4d8c1d39dd65ea4e80505ce9be18c73250ae1c957559737aa69a6b64da67fa6e2dec7d59bd058a2ee0303c89de78a75230ce7cf51539535a86ba4b44fa47da4e0dcc5d799d25aa0ec0101ca9fe58877210ee5cd53519b3ba665aaba41aa73aaeed2cbd997dc54aee20f0fc491eb86792f00ebc35d5f9939a467a8b843a871a8ecd0c9db95de56ace00d0dc693e9847b2d02e9c15f5d9f3fa261aebe45ae77aeead6cfdd93d850aae60b0bc095ef827d2b04efc7595b9d3da063acbc47ac75ace8d4cddf91da52a8e40909c297ed807f2906edc55b599333ae6da2b249a27ba2e6dac3d19fd45ac5db990cee10d8bb528ff248a25f5e1543e08549743b1063431dc4d94082cee02fd7509ae52bbba4c0317a563837be46905c447f1a28befe3db51df2558f97e6ac72c3124d60195e12ed83b595483724ade67e662c9217ebe3b5b73c891a140298f9af4a7d19cc91e41ee42a66b74752e4bbea3d4410dc69588cf17201ae79d5e162c457f1ac720460c7dcd5b87c528710f4e353875b0186e5f1d2ca6fe511cbf8fe1b200dfec96d1161bdc18ec1712b996fe1c703684f3573aa4169c2a8a88b55c37c4fae8a94be2bb3ac04005a0b0d3b5c415c9632f74fed35380a9ff0445f4c291e1aaf9be634fdfd7185d9a19dd17d0e928d3901bc1f5adc92bca4d0db92d810019cf53c549ed737bc4cfa98115fa084b29f7dedd6634054e53d8ede9e70ca79ebd431d400bae34284eaa1c9669d5b2750f00ad9fd0b4c28260e177d20c536cd712315e62fda866303080fea803f20152da4c5173f65d7fc33e0c1ad0da33d407b6ca3c0ef94365ec1b20e958b470b36b343fb3739093df567ec6d52d0e324b2289055301dd6df830688e59030fc3d7518f55c6364f509af78487b9a4639cb648ece337f712fb82441c5834ff2b685167cbb3da99a704c81009dd92e8782e0e05f4e247bb84835f331878b42d8d845155d6fdb80d0038168e28f7fd355dd44547165ccdf4f74a65b79252d5a941b15893678c2f1c37b2b47756a7501954dffe5efbf34d731f9ce855d920e211d5c9aabe6a27e4a57a6832484cb5ef28722cca31452479574efcb45ff90dd8311d9b9cb652cacfc1cf514a5a70f27158ce4ea42a28750e7fe2dc7e2a96720d7352dc250addf2aeff7fe74aec2b64890398f4b5d8cbb324978e9358034f051ff47c6e6f9853c93111ea06b4e45e2470076e403cc2dbe7ee4446db46979cfb8d3b8edaad9a6c64fd0076a2229282a2bdc1a0bae04e62d4db4beb274c328e411192cb63d0f03ad099cb1d7dd150cd6d3055ed168a7c6e76d356f74b9bdc00dd623e2419e1ad05e711c1d5f6c47134cdc5dbe6b96b9b92ff5e738d368ca99e0c620f481ae3b2bb36527d5a3c14ca20be25230d0d9c72268cb5ca874ae725409ae8598c52827b9acbf7877bc026021f31b9cc0744a6d3febac43d7a032d6df3a677330bcf7cd68bc29006e030b7264af6a1a161c3d37df36e46d2ea7a7414578f034de209d8a90a420dbccf7e441314f17b440d0c41ca1e9e7405605ec3f10456ed1693694cc28ac55206d960e3685c63dbf91b189b270600bf5cf7d37eef6a5fc98a9988ed512b0006abb4323024e26b9f62cfdea9342a0b62f1e53e25da2b58cbe45a5b95ca1cbe1e8e7fbfb615fa592cbae6d0517c0cbead3d214c000e71addb84f345f929e6a5d5e17fd79bbaf371725919f19d8d2659972cacd09441cdf29ef1e3da0af1f15e5aa8d679a7abeb9ba8cd548530309110189b369e3ce4dbad1b96fa973f7789dfa2aff07c16c784b9cfc118f42841d2dd7f38d49a6d69edb831de733809e8d70f657559c53a5f44bb9357c63b5a3bf77d5ac4e2662b9f2d68f12d808cbfa40b09ef0ace06936c5ec5406a6c5409d3a30a3e1f641c66312ce7c8cdb17790c260920c029d180af59bf1f85411fd64e9f5be85bd6683f7dccedbe11044565dfe5139b46af9c554bf70b4c7849e54f7eb23e80e290208375d5c2263276d7133dd8e5bd9d83583426adff8c48e29d2a3804d304acc2b25f377b85c9e33b4862e93c5272f9438968c2f33b4fc2d0a691319091af4a31c6298aa9921e5d006540b3b3db72340a5edef1711f30798abef4f3dd3275b99af897dfb25effc4a737845c2cbfab0d9286d786f7261c2eec19569f757970b77481e42b3f9fa3657aad9ffc516523d425bf7f57309308f5451eaf87873d4b939b7b907e66d7030b7e0194d2ff38abd576da36bb7c6766db2510e0690b59fa6d0f347f9efcd93df29895c0d6eb4e8458fcca01c62231495bcdaf858d44d7f8f3bba23735ee46b74a38c7d26e01a9ff75c00333312d8538f77ed3ef55184aa101f4c04147b6ccf88c3128f1497446e70712ec28cfab1d5f57f858d2c38fded6bb57d747c8dd39681e257d79bdc9040ce057be2b0a904baaea5eb347577d32e4b6fc821a6735f28ec7e7c8dc1a932ba27238d07dc1b83912d01a700a30ba84445a8f142c169a37d4d4a04785cb58b212036424edefd6b3d2a458d8a5048a2e7e8ae2ee935ec67eca9202b84e823978b41743a91a41f15d1717c7ab79d4b8a688e72648e170269509fc2cf4d840e6df782f12d9043d4bf64ad60fd87fd9151a28c0d55b23df75df474b276b85b387903a1537cbffac0c53f1edea8896b6b75aa93e1151413c5a147d48b7fe207bb9ac8b7b173196561a5fc97811fa604d359d586130c83c091caec4c68828acf7b3b0a07cf8e3590ab40edffde67fa755387fda96b76c9b4c4d7d2561fec2c7d6d63a431c4e4ce547fef9e843e9b604d93e16498a8fe8bea526385ca03dbe59a92d69bd5fb53f0e79450c0ad802fbcfdbd4d9ca00f26e78d0c27ffa588ef5b3057458e3206f7483d277653aac6db40601b454cda97530fa2b03ca4c2b02ca7e2707c5ee69e513d65d3c4f1acab8868708b3e166c9db608bff7db3bc03e4125005b29bd81fbd896c17be26bc98345aeecc143ac0cf745880fc06b82157600f130b8b4781349590e7063f00c4f98a47cdbbdeac11a9e130dfc1b9276bcb6fb09db56ffcbe4daf6d012f48995318ab978a40d86acd844c26b066cd0d1392b60bd29a050e049de59b935683f00a8a6633adf27c01e5446e6f2da2179b99fb35ad59b876df02555681b94014c7306d720fa20b65371b18a23aed344cc256ee5e8432686e50bb7206b0ecc5934f82bebf46924a6b48f4b17762bde1328a70deb3bf867fe7be5be5b04ee1e482a71a07846edff9e315af2afbb9fcc5668a0b25dbf9b9d2d624fc5da12a4d2b1fd92930f4e4c7fbc6da7d54f113feff6992c2ccbf787f450bdc63c1056ec29618aff4ba89cdd07828cb142d36a0b4eb55b40bc1c27f113901fc2c9b6b55064a2e82fb4515b63b3580f2eace0b2195e9fd635d2cf24ccd385c78e1c95dcfde7f4c31ed3a0f7c6545362ad1b20bf1acbbb196b86d7f2b207de11bed1e33d21712b8bd4f473b1738b66b7df1111c1f237a52710cdc62b84657fcf61963b1ace6007d602501b2bdefdbfa69268331d03b3664976ef847991cd9379bf5df06439d4be826ed0a62aaf232f53bd60e3748723ab3bb0fa88eb8dd523d1ece9cbd21f23891a10851be390180348966e966dc7708429f3cd486fcb3e0fa3fe789580b838e132d81b98cc076064750d1218484a53626d6f7c8e979dbfc4d1d4d5d9e1e92d32353d4a4c555b6162677b898c9ca3aacde7e8f5f61317306975797a8c9a9ca5b5babbc2c4f70c1c40496373879296aab2b4dbdde2f000000000152b3c4c01fd210500a3a19d1ece9acac41623a98736eda326895c9bd09f57c8a3404559c2a49382eff4229c99e6ad26f5a7a64e7249c64365b2fd5bbd23d94a9e7be97b7d19355aa6045837f48755d021034657e335520b5fc0a4e494e7492e1676aa431fe7d771e4ea2ed448eb06608bbf60f0068301be6f5947e3c7c487fe5eb875ead1adbf4285108171af2d21bf836e8f7134822de1ae248fd5f2f8391e7777cb860d09a7a29ac20a31c6e171c3354b74b996a8673efe14fa88f1dbe867b6a068b9120f4a91024a043f53da82fd3ea53f70059789c7216f23df0a3cebee3815cd462f9d5c5263c547d00804aeb08dc39e98fab8d75b590fa78d3746c6a18d510add63835744bc6c04e17193bcd81f7949160eba2e4d8e8c654a6c853f4b882fbbaf55aacb80ad3b4dd93b0cdc1a2fbf35478adc624d57eefd13105e4677af1d12137052cecb831c7c44d2d12a4cc2bd5894c8f1fed5b2f45f60a216e9db57a139f1f21f07fa61d390a8b6d5177c61411d8aaa8abe174b437e5e4246a7e0a6ae3b8555621a695e3d36b907e3922c64f7e43b5834cc147c9381f9a9b78eeba03fdbebfa76f7c9b8ad6e97ef110368160ff5b3a636874b2d4072c1b6a357e748e352425a76b92e60791bcccc2753505f7b30e573d5c69ce191ef5418650c0018b871c555b33e2d5a48b323796333b9ea0905370dee52b6f53ed9e26b1dc63b2ff8b761ab1ab4c595a91ec908fa77d8ac05abe0c88162d6ab04e4a0296080246298f8a2b38c36a54900b1441c604f4fd2b7f78c86ab4513ca8932fc7af6721970bf39e234fae534484d6dcd871d45a77e853d6a53f3e979e94b8437cbd6b9dfd5da64832679d4992883fbbb9e5bf77c3d5d1c7f332691f633110bb4c707773ba19b60a70d362d2c76baec9aeadd4e4d936c8f6747866d147fe24d9b103a77c9a7673e7ff5719cce78da4ce6f3055cdaf601f04ad56a5023cd62cdae5a0330cc26eb647ab7db2ef078e24a7763018b460ab5f7f38aeddb43e5a39fb6e1680fb67d30a6fa5cf488ff31d5e3a19aee2fcedde942c847444bc03a0e7cabdb5f5586fa9b5876101dc007b95166fae1db56641ff31d097bf0303d22f4ed7b2ec072ab172f774591f87d10fde4d7274369136f2cd178eca8bddfc5f958d40e9ecabf3703000e149cdf444f70eaa420ec8a038b05a3d8689fafc7aabfeac45b050632b0c5940163c7cd987a24933aa98d4002060bcb08618b0fd34a33e69ddd1cc894188eb7a5c6151451a6180459adf09ea738fa1a5cb555cfa2b54e514689d54550b7e80d53babc7d20d603f17d8204d804aca73f71db12b09434ba66248cad78570de200b2985be54b937a6d2f54b201bef8857aeae31cf787040b3f3c7f60d66879ad7dcdf7f21ba650afc60d5493ac2061f51a2cb9791f16beb72ab2f2f5564f730287be7573b3c7dae122baa3625240872d67b1c65259f27fb319f85448462bbf17867dbc82d5c739bfb2c7e368c0a56a9e893a720332215fbf14c939dc215f5f80ec0608faf6f15597ec756f4014b85d356aeb4817ed985fa8794e556106cf6604ad684406d67b7972c428478d658acf846a2c2aff5ccf364132592731a2f76711026479b6bcca5af35aa97b90bad361ef98e113ae0b9bb9feb167c5a893d0c58d1f9176df0da52f881ef90ba8c29be0920c5e0b703df8b0236d1d55426cf948f7ae132583dbff86a4faefdf63b1292219f870145faa8c3465a93d38020ea6d52e9682a93df8c64d2efe5e8b4286629a8ba1f2ad27095d7e4a5c7719204d1d14b7b17135d5faee92204e6eca84b4271ab07219b555d0c7b11c5ec72b7ad6a7535672667bf6027bcbe071000000",
  "txid": "eddb93154316f30c84d822ceaf55d7b272fe5af83b5cc4845784585326557f67",
  "hash": "baad3cdb694383c6de18ab5bd17fe6c6294f69e38dc22809bfe34dee469bde1f",
  "size": 5085,
  "vsize": 2278,
  "version": 1,
  "locktime": 113,
  "vin": [
    {
      "txid": "e7dee537992f5d3e3b203cc916aa8a34d89b5eb45e0159921c9f919fd8f09fbf",
      "vout": 1,
      "scriptSig": {
        "asm": "",
        "hex": ""
      },
      "txinwitness": [
        "ae52bbba4c0317a563837be46905c447f1a28befe3db51df2558f97e6ac72c3124d60195e12ed83b595483724ade67e662c9217ebe3b5b73c891a140298f9af4a7d19cc91e41ee42a66b74752e4bbea3d4410dc69588cf17201ae79d5e162c457f1ac720460c7dcd5b87c528710f4e353875b0186e5f1d2ca6fe511cbf8fe1b200dfec96d1161bdc18ec1712b996fe1c703684f3573aa4169c2a8a88b55c37c4fae8a94be2bb3ac04005a0b0d3b5c415c9632f74fed35380a9ff0445f4c291e1aaf9be634fdfd7185d9a19dd17d0e928d3901bc1f5adc92bca4d0db92d810019cf53c549ed737bc4cfa98115fa084b29f7dedd6634054e53d8ede9e70ca79ebd431d400bae34284eaa1c9669d5b2750f00ad9fd0b4c28260e177d20c536cd712315e62fda866303080fea803f20152da4c5173f65d7fc33e0c1ad0da33d407b6ca3c0ef94365ec1b20e958b470b36b343fb3739093df567ec6d52d0e324b2289055301dd6df830688e59030fc3d7518f55c6364f509af78487b9a4639cb648ece337f712fb82441c5834ff2b685167cbb3da99a704c81009dd92e8782e0e05f4e247bb84835f331878b42d8d845155d6fdb80d0038168e28f7fd355dd44547165ccdf4f74a65b79252d5a941b15893678c2f1c37b2b47756a7501954dffe5efbf34d731f9ce855d920e211d5c9aabe6a27e4a57a6832484cb5ef28722cca31452479574efcb45ff90dd8311d9b9cb652cacfc1cf514a5a70f27158ce4ea42a28750e7fe2dc7e2a96720d7352dc250addf2aeff7fe74aec2b64890398f4b5d8cbb324978e9358034f051ff47c6e6f9853c93111ea06b4e45e2470076e403cc2dbe7ee4446db46979cfb8d3b8edaad9a6c64fd0076a2229282a2bdc1a0bae04e62d4db4beb274c328e411192cb63d0f03ad099cb1d7dd150cd6d3055ed168a7c6e76d356f74b9bdc00dd623e2419e1ad05e711c1d5f6c47134cdc5dbe6b96b9b92ff5e738d368ca99e0c620f481ae3b2bb36527d5a3c14ca20be25230d0d9c72268cb5ca874ae725409ae8598c52827b9acbf7877bc026021f31b9cc0744a6d3febac43d7a032d6df3a677330bcf7cd68bc29006e030b7264af6a1a161c3d37df36e46d2ea7a7414578f034de209d8a90a420dbccf7e441314f17b440d0c41ca1e9e7405605ec3f10456ed1693694cc28ac55206d960e3685c63dbf91b189b270600bf5cf7d37eef6a5fc98a9988ed512b0006abb4323024e26b9f62cfdea9342a0b62f1e53e25da2b58cbe45a5b95ca1cbe1e8e7fbfb615fa592cbae6d0517c0cbead3d214c000e71addb84f345f929e6a5d5e17fd79bbaf371725919f19d8d2659972cacd09441cdf29ef1e3da0af1f15e5aa8d679a7abeb9ba8cd548530309110189b369e3ce4dbad1b96fa973f7789dfa2aff07c16c784b9cfc118f42841d2dd7f38d49a6d69edb831de733809e8d70f657559c53a5f44bb9357c63b5a3bf77d5ac4e2662b9f2d68f12d808cbfa40b09ef0ace06936c5ec5406a6c5409d3a30a3e1f641c66312ce7c8cdb17790c260920c029d180af59bf1f85411fd64e9f5be85bd6683f7dccedbe11044565dfe5139b46af9c554bf70b4c7849e54f7eb23e80e290208375d5c2263276d7133dd8e5bd9d83583426adff8c48e29d2a3804d304acc2b25f377b85c9e33b4862e93c5272f9438968c2f33b4fc2d0a691319091af4a31c6298aa9921e5d006540b3b3db72340a5edef1711f30798abef4f3dd3275b99af897dfb25effc4a737845c2cbfab0d9286d786f7261c2eec19569f757970b77481e42b3f9fa3657aad9ffc516523d425bf7f57309308f5451eaf87873d4b939b7b907e66d7030b7e0194d2ff38abd576da36bb7c6766db2510e0690b59fa6d0f347f9efcd93df29895c0d6eb4e8458fcca01c62231495bcdaf858d44d7f8f3bba23735ee46b74a38c7d26e01a9ff75c00333312d8538f77ed3ef55184aa101f4c04147b6ccf88c3128f1497446e70712ec28cfab1d5f57f858d2c38fded6bb57d747c8dd39681e257d79bdc9040ce057be2b0a904baaea5eb347577d32e4b6fc821a6735f28ec7e7c8dc1a932ba27238d07dc1b83912d01a700a30ba84445a8f142c169a37d4d4a04785cb58b212036424edefd6b3d2a458d8a5048a2e7e8ae2ee935ec67eca9202b84e823978b41743a91a41f15d1717c7ab79d4b8a688e72648e170269509fc2cf4d840e6df782f12d9043d4bf64ad60fd87fd9151a28c0d55b23df75df474b276b85b387903a1537cbffac0c53f1edea8896b6b75aa93e1151413c5a147d48b7fe207bb9ac8b7b173196561a5fc97811fa604d359d586130c83c091caec4c68828acf7b3b0a07cf8e3590ab40edffde67fa755387fda96b76c9b4c4d7d2561fec2c7d6d63a431c4e4ce547fef9e843e9b604d93e16498a8fe8bea526385ca03dbe59a92d69bd5fb53f0e79450c0ad802fbcfdbd4d9ca00f26e78d0c27ffa588ef5b3057458e3206f7483d277653aac6db40601b454cda97530fa2b03ca4c2b02ca7e2707c5ee69e513d65d3c4f1acab8868708b3e166c9db608bff7db3bc03e4125005b29bd81fbd896c17be26bc98345aeecc143ac0cf745880fc06b82157600f130b8b4781349590e7063f00c4f98a47cdbbdeac11a9e130dfc1b9276bcb6fb09db56ffcbe4daf6d012f48995318ab978a40d86acd844c26b066cd0d1392b60bd29a050e049de59b935683f00a8a6633adf27c01e5446e6f2da2179b99fb35ad59b876df02555681b94014c7306d720fa20b65371b18a23aed344cc256ee5e8432686e50bb7206b0ecc5934f82bebf46924a6b48f4b17762bde1328a70deb3bf867fe7be5be5b04ee1e482a71a07846edff9e315af2afbb9fcc5668a0b25dbf9b9d2d624fc5da12a4d2b1fd92930f4e4c7fbc6da7d54f113feff6992c2ccbf787f450bdc63c1056ec29618aff4ba89cdd07828cb142d36a0b4eb55b40bc1c27f113901fc2c9b6b55064a2e82fb4515b63b3580f2eace0b2195e9fd635d2cf24ccd385c78e1c95dcfde7f4c31ed3a0f7c6545362ad1b20bf1acbbb196b86d7f2b207de11bed1e33d21712b8bd4f473b1738b66b7df1111c1f237a52710cdc62b84657fcf61963b1ace6007d602501b2bdefdbfa69268331d03b3664976ef847991cd9379bf5df06439d4be826ed0a62aaf232f53bd60e3748723ab3bb0fa88eb8dd523d1ece9cbd21f23891a10851be390180348966e966dc7708429f3cd486fcb3e0fa3fe789580b838e132d81b98cc076064750d1218484a53626d6f7c8e979dbfc4d1d4d5d9e1e92d32353d4a4c555b6162677b898c9ca3aacde7e8f5f61317306975797a8c9a9ca5b5babbc2c4f70c1c40496373879296aab2b4dbdde2f000000000152b3c4c01",
        "00a3a19d1ece9acac41623a98736eda326895c9bd09f57c8a3404559c2a49382eff4229c99e6ad26f5a7a64e7249c64365b2fd5bbd23d94a9e7be97b7d19355aa6045837f48755d021034657e335520b5fc0a4e494e7492e1676aa431fe7d771e4ea2ed448eb06608bbf60f0068301be6f5947e3c7c487fe5eb875ead1adbf4285108171af2d21bf836e8f7134822de1ae248fd5f2f8391e7777cb860d09a7a29ac20a31c6e171c3354b74b996a8673efe14fa88f1dbe867b6a068b9120f4a91024a043f53da82fd3ea53f70059789c7216f23df0a3cebee3815cd462f9d5c5263c547d00804aeb08dc39e98fab8d75b590fa78d3746c6a18d510add63835744bc6c04e17193bcd81f7949160eba2e4d8e8c654a6c853f4b882fbbaf55aacb80ad3b4dd93b0cdc1a2fbf35478adc624d57eefd13105e4677af1d12137052cecb831c7c44d2d12a4cc2bd5894c8f1fed5b2f45f60a216e9db57a139f1f21f07fa61d390a8b6d5177c61411d8aaa8abe174b437e5e4246a7e0a6ae3b8555621a695e3d36b907e3922c64f7e43b5834cc147c9381f9a9b78eeba03fdbebfa76f7c9b8ad6e97ef110368160ff5b3a636874b2d4072c1b6a357e748e352425a76b92e60791bcccc2753505f7b30e573d5c69ce191ef5418650c0018b871c555b33e2d5a48b323796333b9ea0905370dee52b6f53ed9e26b1dc63b2ff8b761ab1ab4c595a91ec908fa77d8ac05abe0c88162d6ab04e4a0296080246298f8a2b38c36a54900b1441c604f4fd2b7f78c86ab4513ca8932fc7af6721970bf39e234fae534484d6dcd871d45a77e853d6a53f3e979e94b8437cbd6b9dfd5da64832679d4992883fbbb9e5bf77c3d5d1c7f332691f633110bb4c707773ba19b60a70d362d2c76baec9aeadd4e4d936c8f6747866d147fe24d9b103a77c9a7673e7ff5719cce78da4ce6f3055cdaf601f04ad56a5023cd62cdae5a0330cc26eb647ab7db2ef078e24a7763018b460ab5f7f38aeddb43e5a39fb6e1680fb67d30a6fa5cf488ff31d5e3a19aee2fcedde942c847444bc03a0e7cabdb5f5586fa9b5876101dc007b95166fae1db56641ff31d097bf0303d22f4ed7b2ec072ab172f774591f87d10fde4d7274369136f2cd178eca8bddfc5f958d40e9ecabf3703000e149cdf444f70eaa420ec8a038b05a3d8689fafc7aabfeac45b050632b0c5940163c7cd987a24933aa98d4002060bcb08618b0fd34a33e69ddd1cc894188eb7a5c6151451a6180459adf09ea738fa1a5cb555cfa2b54e514689d54550b7e80d53babc7d20d603f17d8204d804aca73f71db12b09434ba66248cad78570de200b2985be54b937a6d2f54b201bef8857aeae31cf787040b3f3c7f60d66879ad7dcdf7f21ba650afc60d5493ac2061f51a2cb9791f16beb72ab2f2f5564f730287be7573b3c7dae122baa3625240872d67b1c65259f27fb319f85448462bbf17867dbc82d5c739bfb2c7e368c0a56a9e893a720332215fbf14c939dc215f5f80ec0608faf6f15597ec756f4014b85d356aeb4817ed985fa8794e556106cf6604ad684406d67b7972c428478d658acf846a2c2aff5ccf364132592731a2f76711026479b6bcca5af35aa97b90bad361ef98e113ae0b9bb9feb167c5a893d0c58d1f9176df0da52f881ef90ba8c29be0920c5e0b703df8b0236d1d55426cf948f7ae132583dbff86a4faefdf63b1292219f870145faa8c3465a93d38020ea6d52e9682a93df8c64d2efe5e8b4286629a8ba1f2ad27095d7e4a5c7719204d1d14b7b17135d5faee92204e6eca84b4271ab07219b555d0c7b11c5ec72b7ad6a7535672667bf6027bcbe0"
      ],
      "sequence": 4294967294
    }
  ],
  "vout": [
    {
      "value": 499981.6958,
      "n": 0,
      "scriptPubKey": {
        "asm": "1 77c2b7c811144745be094b4c24c55eef6ec940795ed7981bda7a5eecfd66d439",
        "hex": "512077c2b7c811144745be094b4c24c55eef6ec940795ed7981bda7a5eecfd66d439",
        "reqSigs": 1,
        "type": "witness_v1_scripthash",
        "addresses": [
          "3QJmnh"
        ]
      }
    },
    {
      "value": 1.0,
      "n": 1,
      "scriptPubKey": {
        "asm": "OP_RETURN a8da10e94fa25b84f3ea3ed4b7c01a0d1164bea6b9d62f4d763b5bce2bc1d474 b3ba665aaba41aa73aaeed2cbd997dc54aee20f0fc491eb86792f00ebc35d5f9939a467a8b843a871a8ecd0c9db95de56ace00d0dc693e9847b2d02e9c15f5d9f3fa261aebe45ae77aeead6cfdd93d850aae60b0bc095ef827d2b04efc7595b9d3da063acbc47ac75ace8d4cddf91da52a8e40909c297ed807f2906edc55b599333ae6da2b249a27ba2e6dac3d19fd45ca6ea0707cc99e38e712708e3cb55579131ac6fa0b04ba079a0e4d8c1d39dd65ea4e80505ce9be18c73250ae1c957559737aa69a6b64da67fa6e2dec7d59bd058a2ee0303c89de78a75230ce7cf51539535a86ba4b44fa47da4e0dcc5d799d25aa0ec0101ca9fe58877210ee5cd53519b3ba665aaba41aa73aaeed2cbd997dc54aee20f0fc491eb86792f00ebc35d5f9939a467a8b843a871a8ecd0c9db95de56ace00d0dc693e9847b2d02e9c15f5d9f3fa261aebe45ae77aeead6cfdd93d850aae60b0bc095ef827d2b04efc7595b9d3da063acbc47ac75ace8d4cddf91da52a8e40909c297ed807f2906edc55b599333ae6da2b249a27ba2e6dac3d19fd45ca6ea0707cc99e38e712708e3cb55579131ac6fa0b04ba079a0e4d8c1d39dd65ea4e80505ce9be18c73250ae1c957559737aa69a6b64da67fa6e2dec7d59bd058a2ee0303c89de78a75230ce7cf51539535a86ba4b44fa47da4e0dcc5d799d25aa0ec0101ca9fe58877210ee5cd53519b3ba665aaba41aa73aaeed2cbd997dc54aee20f0fc491eb86792f00ebc35d5f9939a467a8b843a871a8ecd0c9db95de56ace00d0dc693e9847b2d02e9c15f5d9f3fa261aebe45ae77aeead6cfdd93d850aae60b0bc095ef827d2b04efc7595b9d3da063acbc47ac75ace8d4cddf91da52a8e40909c297ed807f2906edc55b599333ae6da2b249a27ba2e6dac3d19fd45ca6ea0707cc99e38e712708e3cb55579131ac6fa0b04ba079a0e4d8c1d39dd65ea4e80505ce9be18c73250ae1c957559737aa69a6b64da67fa6e2dec7d59bd058a2ee0303c89de78a75230ce7cf51539535a86ba4b44fa47da4e0dcc5d799d25aa0ec0101ca9fe58877210ee5cd53519b3ba665aaba41aa73aaeed2cbd997dc54aee20f0fc491eb86792f00ebc35d5f9939a467a8b843a871a8ecd0c9db95de56ace00d0dc693e9847b2d02e9c15f5d9f3fa261aebe45ae77aeead6cfdd93d850aae60b0bc095ef827d2b04efc7595b9d3da063acbc47ac75ace8d4cddf91da52a8e40909c297ed807f2906edc55b599333ae6da2b249a27ba2e6dac3d19fd45ca6ea0707cc99e38e712708e3cb55579131ac6fa0b04ba079a0e4d8c1d39dd65ea4e80505ce9be18c73250ae1c957559737aa69a6b64da67fa6e2dec7d59bd058a2ee0303c89de78a75230ce7cf51539535a86ba4b44fa47da4e0dcc5d799d25aa0ec0101ca9fe58877210ee5cd53519b3ba665aaba41aa73aaeed2cbd997dc54aee20f0fc491eb86792f00ebc35d5f9939a467a8b843a871a8ecd0c9db95de56ace00d0dc693e9847b2d02e9c15f5d9f3fa261aebe45ae77aeead6cfdd93d850aae60b0bc095ef827d2b04efc7595b9d3da063acbc47ac75ace8d4cddf91da52a8e40909c297ed807f2906edc55b599333ae6da2b249a27ba2e6dac3d19fd45ac5db990cee10d8bb528ff248a25f5e1543e08549743b1063431dc4d94082cee",
        "hex": "6a20a8da10e94fa25b84f3ea3ed4b7c01a0d1164bea6b9d62f4d763b5bce2bc1d4744db004b3ba665aaba41aa73aaeed2cbd997dc54aee20f0fc491eb86792f00ebc35d5f9939a467a8b843a871a8ecd0c9db95de56ace00d0dc693e9847b2d02e9c15f5d9f3fa261aebe45ae77aeead6cfdd93d850aae60b0bc095ef827d2b04efc7595b9d3da063acbc47ac75ace8d4cddf91da52a8e40909c297ed807f2906edc55b599333ae6da2b249a27ba2e6dac3d19fd45ca6ea0707cc99e38e712708e3cb55579131ac6fa0b04ba079a0e4d8c1d39dd65ea4e80505ce9be18c73250ae1c957559737aa69a6b64da67fa6e2dec7d59bd058a2ee0303c89de78a75230ce7cf51539535a86ba4b44fa47da4e0dcc5d799d25aa0ec0101ca9fe58877210ee5cd53519b3ba665aaba41aa73aaeed2cbd997dc54aee20f0fc491eb86792f00ebc35d5f9939a467a8b843a871a8ecd0c9db95de56ace00d0dc693e9847b2d02e9c15f5d9f3fa261aebe45ae77aeead6cfdd93d850aae60b0bc095ef827d2b04efc7595b9d3da063acbc47ac75ace8d4cddf91da52a8e40909c297ed807f2906edc55b599333ae6da2b249a27ba2e6dac3d19fd45ca6ea0707cc99e38e712708e3cb55579131ac6fa0b04ba079a0e4d8c1d39dd65ea4e80505ce9be18c73250ae1c957559737aa69a6b64da67fa6e2dec7d59bd058a2ee0303c89de78a75230ce7cf51539535a86ba4b44fa47da4e0dcc5d799d25aa0ec0101ca9fe58877210ee5cd53519b3ba665aaba41aa73aaeed2cbd997dc54aee20f0fc491eb86792f00ebc35d5f9939a467a8b843a871a8ecd0c9db95de56ace00d0dc693e9847b2d02e9c15f5d9f3fa261aebe45ae77aeead6cfdd93d850aae60b0bc095ef827d2b04efc7595b9d3da063acbc47ac75ace8d4cddf91da52a8e40909c297ed807f2906edc55b599333ae6da2b249a27ba2e6dac3d19fd45ca6ea0707cc99e38e712708e3cb55579131ac6fa0b04ba079a0e4d8c1d39dd65ea4e80505ce9be18c73250ae1c957559737aa69a6b64da67fa6e2dec7d59bd058a2ee0303c89de78a75230ce7cf51539535a86ba4b44fa47da4e0dcc5d799d25aa0ec0101ca9fe58877210ee5cd53519b3ba665aaba41aa73aaeed2cbd997dc54aee20f0fc491eb86792f00ebc35d5f9939a467a8b843a871a8ecd0c9db95de56ace00d0dc693e9847b2d02e9c15f5d9f3fa261aebe45ae77aeead6cfdd93d850aae60b0bc095ef827d2b04efc7595b9d3da063acbc47ac75ace8d4cddf91da52a8e40909c297ed807f2906edc55b599333ae6da2b249a27ba2e6dac3d19fd45ca6ea0707cc99e38e712708e3cb55579131ac6fa0b04ba079a0e4d8c1d39dd65ea4e80505ce9be18c73250ae1c957559737aa69a6b64da67fa6e2dec7d59bd058a2ee0303c89de78a75230ce7cf51539535a86ba4b44fa47da4e0dcc5d799d25aa0ec0101ca9fe58877210ee5cd53519b3ba665aaba41aa73aaeed2cbd997dc54aee20f0fc491eb86792f00ebc35d5f9939a467a8b843a871a8ecd0c9db95de56ace00d0dc693e9847b2d02e9c15f5d9f3fa261aebe45ae77aeead6cfdd93d850aae60b0bc095ef827d2b04efc7595b9d3da063acbc47ac75ace8d4cddf91da52a8e40909c297ed807f2906edc55b599333ae6da2b249a27ba2e6dac3d19fd45ac5db990cee10d8bb528ff248a25f5e1543e08549743b1063431dc4d94082cee",
        "type": "nulldata"
      }
    }
  ],
  "blockhash": "d7a7b9a6fa9b7eeca4ed3b292cd4c21f070551bfab2aaeca0619c41458c07723",
  "confirmations": 1,
  "time": 1764178593,
  "blocktime": 1764178593
}