{
  "hex": "0100000000010182ed457721ed996b07146a0bc1c5bb96b61f8283dbf1043880d82eebbced7b490100000000feffffff0200e1f50500000000fdd5046a205cb86bb07b3e55d729e0975e87593bcb001b735f3a03184c7ed734edd84741ab4db00472b8305f455bf1430df532257b5901664de4fb2d2d393ea24b6929bed71864975298107f657bd1632dd512055b7921466dc4db0d0d191e826b49099ef73844b732f8701f051bb1034db572653b1941260da4bb6d6d797ee20b2969fe975824d712d8503f253b91236d9552451b3961062d849b4d4d595ec22b0949deb77804f7f238b0dfc5db71c38d75b2a5fbd981e6cd647badadb9be22cbe9a93e5798e417d21890ffe5fb51e3ad559285dbf9a1c6ed445b8d8d999e02ebc9891e77b8c437b278f09f859b3183cd35f2e5bb99c1a68d243bededf9fe628ba9e97e17d8a4579258d0bfa5bb11a3ed15d2c59bb9e186ad041bcdcdd9de42ab89c95e37f8847772b8305f455bf1430df532257b5901664de4fb2d2d393ea24b6929bed71864975298107f657bd1632dd512055b7921466dc4db0d0d191e826b49099ef73844b732f8701f051bb1034db572653b1941260da4bb6d6d797ee20b2969fe975824d712d8503f253b91236d9552451b3961062d849b4d4d595ec22b0949deb77804f7f238b0dfc5db71c38d75b2a5fbd981e6cd647badadb9be22cbe9a93e5798e417d21890ffe5fb51e3ad559285dbf9a1c6ed445b8d8d999e02ebc9891e77b8c437b278f09f859b3183cd35f2e5bb99c1a68d243bededf9fe628ba9e97e17d8a4579258d0bfa5bb11a3ed15d2c59bb9e186ad041bcdcdd9de42ab89c95e37f8847772b8305f455bf1430df532257b5901664de4fb2d2d393ea24b6929bed71864975298107f657bd1632dd512055b7921466dc4db0d0d191e826b49099ef73844b732f8701f051bb1034db572653b1941260da4bb6d6d797ee20b2969fe975824d712d8503f253b91236d9552451b3961062d849b4d4d595ec22b0949deb77804f7f238b0dfc5db71c38d75b2a5fbd981e6cd647badadb9be22cbe9a93e5798e417d21890ffe5fb51e3ad559285dbf9a1c6ed445b8d8d999e02ebc9891e77b8c437b278f09f859b3183cd35f2e5bb99c1a68d243bededf9fe628ba9e97e17d8a4579258d0bfa5bb11a3ed15d2c59bb9e186ad041bcdcdd9de42ab89c95e37f8847772b8305f455bf1430df532257b5901664de4fb2d2d393ea24b6929bed71864975298107f657bd1632dd512055b7921466dc4db0d0d191e826b49099ef73844b732f8701f051bb1034db572653b1941260da4bb6d6d797ee20b2969fe975824d712d8503f253b91236d9552451b3961062d849b4d4d595ec22b0949deb77804f7f238b0dfc5db71c38d75b2a5fbd981e6cd647badadb9be22cbe9a93e5798e417d21890ffe5fb51e3ad559285dbf9a1c6ed445b8d8d999e02ebc9891e77b8c437b278f09f859b3183cd35f2e5bb99c1a68d243bededf9fe628ba9e97e17d8a4579258d0bfa5bb11a3ed15d2c59bb9e186ad041bcdcdd9de42ab89c95e37f8847772b8305f455bf1430df532257b5901664de4fb2d2d393ea24b6929bed71864975298107f657bd1632dd512055b7921466dc4db0d0d191e826b49099ef73844b732f8701f051bb1034db572653b1941260da4bb6d6d797ee20b2969fe975824d712d8503f253b91236d9552451b3961062d849b4d4d595ec22b0949deb77804f7f238b0dfc5db71c38d75b2a5fbd981e62be3654e87014ed062ed66999c8f667bd6755203e41fad24a2bde4ce82223a7270cc3221792d0000225120325565d908b90cd43112f03c45f805d022b2d9464baf1bf2023dc8212f462b7402fd7509f124b6fe4df5c6fe916b544b2362ac8dcdf89f6f685a98f8614f2fe2867b6274e74f8cda7443095db8829a883413834a55169b58d439a2f765e034ca8cb0787648f417b0ab710c7fe456084e6c2af84591f006546b1c9dfad3ef0709b2708a616b59396b1323039a91872ae4e2a6db0760d12bc472137f9036f603d5583fe5e744224bbf5c61ef1aa2d35ac110e14183e55d87e91e443adc2c8639eaaf0c814cf9714240cee077b5f243ec04912b609489d3c7d6bc81113a0a5b138d41e06f4b977e02fb87215eb163ab381686071ba87cc409186f170d706fa0710fabc16114430b89817b0365165b5ee0c3d8fef1ea0e38643df882397f4a1f2e29281e7367f81e10679aa262387c4bea9bfdb3019869840cebfb4a554370f623a5bd960b001f6652f22a5c232d455d17f48bafa32636e60f9d8c7cbd94b93f99cfb98836676e00135711e385cf1983f2b97d6a087fe34cd2b61d58ec37d99fff95109a94a9b879c1b9dd9130bacaf935617053c0397c6def35bf51563cbd69f568249fd855d2b1d25a54868e34c6352711f692b9700351c75a8859592661abb9ffdeac30b6c17caf00de25026281bfbe7847720478df7bd04bf48117aaac52c1b8eaf6d8ae32973aae7510436e63417ad6d7a46522f0d1587a1ae7538d36503b0db1ab2774dcb9aeca366a372ac768e16fa6972c0c5623a47763e30e109d4c4fa6ad7207790d65467c2d17f1786b6d18c9e56c63e7124eaee81d9cec7473e0e693bd313fab3d329e2fe566fa198fc5bd27f5eb14715009c0786e9ef6c6c73a5915aa4294804ef927c3d394dd92f4c967d639c1b418a1fcd3ac9e77ccbc9c9d05b1fcacea7159cdd52ff19455d0636f129dff38a8cb6d575188ae7550cc419e10dbdd6ff79b0c939cb6622e7d92380eef3d1d08e9281f4fbcbaf5cb18df27178796b01cd29fc0350a2643cbc3950d0124a6dddc175b25a5636a81d26fdeb82f7d2239c1c86a8f3d6bb930bc3c2434f9be73e0947ad49affa5a24e9ea9b10498736966f7e74067976cc302940e319587fd6fa04d857d7a4e7b8af66f9f1ec4b146d20d19f1c23223a835f67adb37948fb2902078830e893a331bfd29c177ea9198da940a759a7171153cad1e20ceb5a8f08906178c1dfac78674353df95eb677136d3822998f843e5483d88908d1895a991d8667fd50ff0c40463b035f6c8998bf914ead38e0f1ab66ee15c75501d4e031ff6bbeda0fbe4a634164ce2b2876d28ab3bfa8cd10e190291d334e496d2c2676227bd935200a677e0a6dee1971934bc1ffd1ef1158e17450b804998bb712be53044a1091720f5728516437d917e5452196ec749c9d980840bf9efea22cfc6329347d0f9852318925a3915db89ef12050f74af52b6b92393e074a445a345ae31159e1daa2c132f6eba4c1ae99eccb1f17bb6af551a4e2ebb7c039ce2ecae53c16764fd40971cf923d2aec54042b2e440d79ca699e3ded642d1d2b304e1880f9ef201dcf9bf3cc1d906006e1275907b27790c7d65a9c4e679c0e5750a7333e1fdb6ff085fe9f78fad40757cb4d4b51237b4d3eeec28159b920231aa9cb6766d5c16249d29a2f9ad1093ea10bd0b655def1be44f61131b31fadd8587a51d865d4fe013f8245d80d69341cadd5bc3fd2230c415d50a43b6d0c44ac85303ca69e1b77b8695d9a75176dd472adb0234d8d5f841f15284c21e6b550145832c740075c8ec1db100659fa701db23bd884c0c6eeaa7f88987376f27f370bfc07421b86131a73c2d653096187f9176b1f17ea3cd49043e33d0c185e3bf7e9b5cfc61b14889de1c678695739da8aa11218dba7d89b1ce6824b5ac049c4fe6a650762cfd72b384c04cd452bf388089a09e36c22bbf221cfe5eba613707b23f4686ff30286570a8edeb3d14ff2e85a79612f49cb309a87a630f4e653a0ab6b2837b2e77fff8f75a0fe9c44aa57685219a44953652b95c475fc34cb0bac6321f18d6bfa3dbd777a3291764ddd47262218f4dbb6c7068be40ad98e0aebf75648d147efdd6b31a340dbda60da886646d74ff30cb0fc61ba58c4947d105697256d04c5a1dc0345d44f98e6018258208401167310220b6ffe8667d53ff659db8d9b92fb4f2071bdf1d91ab2bdcf4cd4da76057cad11a706fc9d85c5c3f0eac2cc6e7933e792b2e22a881c943d219d38ff1665243600ea4792eda858817688305270d23985680c80d65fdd68cff5c8a6bd0de81b68779dce11f10e2c81c955a37921b570ae69d3c178da9d60aa62b8c53c4298809ed55d4e8c975c33735f3f468dcbd69311b8fd72cab1594c1b2c5455501553e9f7f123c57facca3411bf130bd3e7380b19ad466625560eb4ea5c3419d2d3b7033d12d0babc0f6ef30866288e7cc78a91a4bfc65c46dc83d6d17e84d381b1f46be86d9f1c36c0ecc05d9c16df145dcd337bac0ef7cac496fdd443c20df1e46744c18c540b2a926415b1077a85837a4c8867ae9b9cd8899c5e69abca8124abd46c8edb1d13a8a8e740ac96f871d2b27e19c36ecf4a31579fa797c3ed783a35d4c8b2d52884fdd547090b7f3928857296adeec288f714da6c0a049d17eb4dbb45b66e11befccbab2bbbc672f5bccdfab839847b8ffb0a883413f804535d4417b2c4bf47e4e47cef3b1a01c722a166db739c9f450e06f9fda0a4a0fd23bd5386c83674b025573a8816382b0c9b843f5e7bc96cf1cc3fc7a0f69fd5edebbb29aa477b9bf113a6d035d2b153549233759388d0effec1ad4077c2fc741a9620451ddd19f4dbfc09dc9d86cacda1070f704af2188cd988f2a2a89cce2e85585edb50157481111ac294df1d5842c76de1fc437730ee7463614af398f418283f6c1d76f54eb067ab52cf7c5bafb72bbbaf5dbb545416e796e984903671288efdbc9f723b4156cc1c7317e1e94916a02b38b109a655e0a66e08d3d25e080d4aab5756ed3f36491fc75b1b2a86971ce72d1a9b4a0ce6cf3e6294969138997e997ec133268ca1128101371720635ae72cb260ca960c5ed5cbbd418fb3d89aa841cf6f938d414186237a05d1f95ed5e6127bd7448ee80662f27476fed7c48ed069bf9e9a941c4a63235be233704b502d0354fc85fbac72026db4dbe430e8dbd9705e624ebd42aaf113eee24b50596ae7447ac66a51a011ff531899576a38f543d781de26e4326983c82a15c7da686d51dae7cadd4f84eec35627ad87e1226288390044b542212c108f2eb75544e676568564585010f923c794a965cd1422f62fe01a51c8d25b5e7f1de297f2f8e52a449a68090e24363d4a5b646b72797f8c97b5b9d2e0e9ed1653767a8288cde2e4e7f3fc1b353e545a718487a1a3a5b0b3cde4e8e9ea08091a1f313c3d40464e60626369799095a5b1c2c3d5d8dee8ef000000001420324c01fd210500aef1fb93199de3865d71e911b8cf3ab14a0bddf9c0e550fb53da5f9171565319c1fce71ac8c54fe8803ef1b576e91091b49dcd78be29ca907b86ab549dad70e9b318900b1046654519704825b4bdcd2e9902b7391c025ff871b709069c61cc49bcb839c9bffe08a92b240f582225e2d5b452306f1f67ef5c551ed9407337ac09df4893e7f0f300a183be891d5df42f330bbd395705bc8a53bf95f2783202a87a0584046d8e73151d07cac6267d0fb66227389e4bab46da21b2bd439b5fa7c93a50a837b6d31a1d92aa3a8e7d3bb91531560287f4646321a7e058f4034119ea62f86c98bad24c6b96001d672b1dc13b2821a51d2c438ca46a906002a9d4c1e59dca8abc2ea94d854db8aeb24b0dcfdae9c8d5c57bb905c9e268fd4a72019efde39e9fad15f060876d5e37c0c12bcd10ca42284abf0ccb6b21a5834dc309f693ce218408fbed125dc76d9b0e9be0a2c770ad8c38d7fdca16e3080f4aebfeace368c9c69ca66fdb1c561390109d9e53b9393d840127ef5d589cf266d5c662050cde6e4fa65408ed8ae5f0421a1af0a4639d0da24dee2b7b4d4367935f4f62d1daa289a195c3efd365a2e93e4812a7dd6d333579a74743ec351d3b0e7243a1a8827e0c8407bd3bbdcaf62022cbb527993076413b8edf0f27b64b880b4ab0dc122438724a02e6af3f78356b5e7a67605fbb83f0de3dc66729b74df1d0edb954ee15e6dff59a65b3fe4366d2f7a53ce54aa26f0da772f8d563fa703becdfe2923b361da83d90a2c7401d33aa052b3280e212a48c6d0a1080860075f26751bdae75e16b25c09e556fc1e4c76ab3219e5dce863ef5d1adbbe592670e298f0466503b462450cfc644d0041c0882f71a789c4c8b6ab9d3322a780e84c513a47d59816fc9ba027f079c0ebba3adc3ac9a31e81b1b8669ba1d802a6d3d6b0e166f15b23b61e6abdaf52d8781d216dbb72e03c10651b88e0ae02fc19253c041ecd452d2ce45d12d74a2825f1c0b2e527eeddf3412bff0f790e9298e4ebb70cb5ff968c91b79d07bec3cca926c3666908d18e5d6f73a73d753ca39c2f35240fe817d20ab7142bacdb25e6842fc085cb5bcfb06395d81c10196cb1574cbb9f3d86f1dc4f8c8ad3fc53b93a9ae82cf3cbb820662ec6f5e05aac39e76adbc7f353c2375989aeae6664e28e671e3d51eee836e47bcb9e31e8d8080fb57f1c56c5160903caefdf224e2e316ba9f15e1124c178de4bd1dac1c101957eae8cef628e4eb241bd2ae1502ae11330d7ac42b283ac0a5c4c853360a168d6067c114364898c68eb859672b4ecd7ee1cebcdc3ec3ea65e21eb263907c97ca8ece6cfc011b2bc5987caff79c2b1e96509140073d3ef102bfec503ee8eaeab9770d33a099b093d796d54793083dbd09c96e11c9219e86c615612e058e4c53eb003ee1bafde019858f79dd7a370f99e0676b411e4a0f30c265b739298403957e83be25302bd0b3ea0f9c500c715dfea6175608ed8588f0a318b1e03246cfb4f704db23327d29fb12df3af20dae7aa2b2278e26af01e67b60a24bebe9562786e462c26647803b46c034d475674ff2583cf702816701f43289370a04b9b9b1b8ae118e96cd555a9409002a3e8b098b4894cc4fa9a2f0ee426179bef140fe706dc1c69ac4ef426a10a0275b4644d36a455812a74f77a1a32a067aa1eb57461c98ae7394aa10ac02bab2508f06641e35a3ceb3037f5dbe2e0883a45eba5f7896ec306142daee888552ce1b037b851172492b517462b68e41bd67fb2291474ee936542f7ba1baa80ded5f4a80e37d4ff9198873b343303daf426def029fef095f05b9caf35f57392ee6e9cf60f0069379ad70000000",
  "txid": "e7dee537992f5d3e3b203cc916aa8a34d89b5eb45e0159921c9f919fd8f09fbf",
  "hash": "bede3d3d51aa37730b10e8520f0cae3a337376f37a1989e96f5210fee46c1462",
  "size": 5085,
  "vsize": 2278,
  "version": 1,
  "locktime": 112,
  "vin": [
    {
      "txid": "497bedbceb2ed8803804f1db83821fb696bbc5c10b6a14076b99ed217745ed82",
      "vout": 1,
      "scriptSig": {
        "asm": "",
        "hex": ""
      },
      "txinwitness": [
        "f124b6fe4df5c6fe916b544b2362ac8dcdf89f6f685a98f8614f2fe2867b6274e74f8cda7443095db8829a883413834a55169b58d439a2f765e034ca8cb0787648f417b0ab710c7fe456084e6c2af84591f006546b1c9dfad3ef0709b2708a616b59396b1323039a91872ae4e2a6db0760d12bc472137f9036f603d5583fe5e744224bbf5c61ef1aa2d35ac110e14183e55d87e91e443adc2c8639eaaf0c814cf9714240cee077b5f243ec04912b609489d3c7d6bc81113a0a5b138d41e06f4b977e02fb87215eb163ab381686071ba87cc409186f170d706fa0710fabc16114430b89817b0365165b5ee0c3d8fef1ea0e38643df882397f4a1f2e29281e7367f81e10679aa262387c4bea9bfdb3019869840cebfb4a554370f623a5bd960b001f6652f22a5c232d455d17f48bafa32636e60f9d8c7cbd94b93f99cfb98836676e00135711e385cf1983f2b97d6a087fe34cd2b61d58ec37d99fff95109a94a9b879c1b9dd9130bacaf935617053c0397c6def35bf51563cbd69f568249fd855d2b1d25a54868e34c6352711f692b9700351c75a8859592661abb9ffdeac30b6c17caf00de25026281bfbe7847720478df7bd04bf48117aaac52c1b8eaf6d8ae32973aae7510436e63417ad6d7a46522f0d1587a1ae7538d36503b0db1ab2774dcb9aeca366a372ac768e16fa6972c0c5623a47763e30e109d4c4fa6ad7207790d65467c2d17f1786b6d18c9e56c63e7124eaee81d9cec7473e0e693bd313fab3d329e2fe566fa198fc5bd27f5eb14715009c0786e9ef6c6c73a5915aa4294804ef927c3d394dd92f4c967d639c1b418a1fcd3ac9e77ccbc9c9d05b1fcacea7159cdd52ff19455d0636f129dff38a8cb6d575188ae7550cc419e10dbdd6ff79b0c939cb6622e7d92380eef3d1d08e9281f4fbcbaf5cb18df27178796b01cd29fc0350a2643cbc3950d0124a6dddc175b25a5636a81d26fdeb82f7d2239c1c86a8f3d6bb930bc3c2434f9be73e0947ad49affa5a24e9ea9b10498736966f7e74067976cc302940e319587fd6fa04d857d7a4e7b8af66f9f1ec4b146d20d19f1c23223a835f67adb37948fb2902078830e893a331bfd29c177ea9198da940a759a7171153cad1e20ceb5a8f08906178c1dfac78674353df95eb677136d3822998f843e5483d88908d1895a991d8667fd50ff0c40463b035f6c8998bf914ead38e0f1ab66ee15c75501d4e031ff6bbeda0fbe4a634164ce2b2876d28ab3bfa8cd10e190291d334e496d2c2676227bd935200a677e0a6dee1971934bc1ffd1ef1158e17450b804998bb712be53044a1091720f5728516437d917e5452196ec749c9d980840bf9efea22cfc6329347d0f9852318925a3915db89ef12050f74af52b6b92393e074a445a345ae31159e1daa2c132f6eba4c1ae99eccb1f17bb6af551a4e2ebb7c039ce2ecae53c16764fd40971cf923d2aec54042b2e440d79ca699e3ded642d1d2b304e1880f9ef201dcf9bf3cc1d906006e1275907b27790c7d65a9c4e679c0e5750a7333e1fdb6ff085fe9f78fad40757cb4d4b51237b4d3eeec28159b920231aa9cb6766d5c16249d29a2f9ad1093ea10bd0b655def1be44f61131b31fadd8587a51d865d4fe013f8245d80d69341cadd5bc3fd2230c415d50a43b6d0c44ac85303ca69e1b77b8695d9a75176dd472adb0234d8d5f841f15284c21e6b550145832c740075c8ec1db100659fa701db23bd884c0c6eeaa7f88987376f27f370bfc07421b86131a73c2d653096187f9176b1f17ea3cd49043e33d0c185e3bf7e9b5cfc61b14889de1c678695739da8aa11218dba7d89b1ce6824b5ac049c4fe6a650762cfd72b384c04cd452bf388089a09e36c22bbf221cfe5eba613707b23f4686ff30286570a8edeb3d14ff2e85a79612f49cb309a87a630f4e653a0ab6b2837b2e77fff8f75a0fe9c44aa57685219a44953652b95c475fc34cb0bac6321f18d6bfa3dbd777a3291764ddd47262218f4dbb6c7068be40ad98e0aebf75648d147efdd6b31a340dbda60da886646d74ff30cb0fc61ba58c4947d105697256d04c5a1dc0345d44f98e6018258208401167310220b6ffe8667d53ff659db8d9b92fb4f2071bdf1d91ab2bdcf4cd4da76057cad11a706fc9d85c5c3f0eac2cc6e7933e792b2e22a881c943d219d38ff1665243600ea4792eda858817688305270d23985680c80d65fdd68cff5c8a6bd0de81b68779dce11f10e2c81c955a37921b570ae69d3c178da9d60aa62b8c53c4298809ed55d4e8c975c33735f3f468dcbd69311b8fd72cab1594c1b2c5455501553e9f7f123c57facca3411bf130bd3e7380b19ad466625560eb4ea5c3419d2d3b7033d12d0babc0f6ef30866288e7cc78a91a4bfc65c46dc83d6d17e84d381b1f46be86d9f1c36c0ecc05d9c16df145dcd337bac0ef7cac496fdd443c20df1e46744c18c540b2a926415b1077a85837a4c8867ae9b9cd8899c5e69abca8124abd46c8edb1d13a8a8e740ac96f871d2b27e19c36ecf4a31579fa797c3ed783a35d4c8b2d52884fdd547090b7f3928857296adeec288f714da6c0a049d17eb4dbb45b66e11befccbab2bbbc672f5bccdfab839847b8ffb0a883413f804535d4417b2c4bf47e4e47cef3b1a01c722a166db739c9f450e06f9fda0a4a0fd23bd5386c83674b025573a8816382b0c9b843f5e7bc96cf1cc3fc7a0f69fd5edebbb29aa477b9bf113a6d035d2b153549233759388d0effec1ad4077c2fc741a9620451ddd19f4dbfc09dc9d86cacda1070f704af2188cd988f2a2a89cce2e85585edb50157481111ac294df1d5842c76de1fc437730ee7463614af398f418283f6c1d76f54eb067ab52cf7c5bafb72bbbaf5dbb545416e796e984903671288efdbc9f723b4156cc1c7317e1e94916a02b38b109a655e0a66e08d3d25e080d4aab5756ed3f36491fc75b1b2a86971ce72d1a9b4a0ce6cf3e6294969138997e997ec133268ca1128101371720635ae72cb260ca960c5ed5cbbd418fb3d89aa841cf6f938d414186237a05d1f95ed5e6127bd7448ee80662f27476fed7c48ed069bf9e9a941c4a63235be233704b502d0354fc85fbac72026db4dbe430e8dbd9705e624ebd42aaf113eee24b50596ae7447ac66a51a011ff531899576a38f543d781de26e4326983c82a15c7da686d51dae7cadd4f84eec35627ad87e1226288390044b542212c108f2eb75544e676568564585010f923c794a965cd1422f62fe01a51c8d25b5e7f1de297f2f8e52a449a68090e24363d4a5b646b72797f8c97b5b9d2e0e9ed1653767a8288cde2e4e7f3fc1b353e545a718487a1a3a5b0b3cde4e8e9ea08091a1f313c3d40464e60626369799095a5b1c2c3d5d8dee8ef000000001420324c01",
        "00aef1fb93199de3865d71e911b8cf3ab14a0bddf9c0e550fb53da5f9171565319c1fce71ac8c54fe8803ef1b576e91091b49dcd78be29ca907b86ab549dad70e9b318900b1046654519704825b4bdcd2e9902b7391c025ff871b709069c61cc49bcb839c9bffe08a92b240f582225e2d5b452306f1f67ef5c551ed9407337ac09df4893e7f0f300a183be891d5df42f330bbd395705bc8a53bf95f2783202a87a0584046d8e73151d07cac6267d0fb66227389e4bab46da21b2bd439b5fa7c93a50a837b6d31a1d92aa3a8e7d3bb91531560287f4646321a7e058f4034119ea62f86c98bad24c6b96001d672b1dc13b2821a51d2c438ca46a906002a9d4c1e59dca8abc2ea94d854db8aeb24b0dcfdae9c8d5c57bb905c9e268fd4a72019efde39e9fad15f060876d5e37c0c12bcd10ca42284abf0ccb6b21a5834dc309f693ce218408fbed125dc76d9b0e9be0a2c770ad8c38d7fdca16e3080f4aebfeace368c9c69ca66fdb1c561390109d9e53b9393d840127ef5d589cf266d5c662050cde6e4fa65408ed8ae5f0421a1af0a4639d0da24dee2b7b4d4367935f4f62d1daa289a195c3efd365a2e93e4812a7dd6d333579a74743ec351d3b0e7243a1a8827e0c8407bd3bbdcaf62022cbb527993076413b8edf0f27b64b880b4ab0dc122438724a02e6af3f78356b5e7a67605fbb83f0de3dc66729b74df1d0edb954ee15e6dff59a65b3fe4366d2f7a53ce54aa26f0da772f8d563fa703becdfe2923b361da83d90a2c7401d33aa052b3280e212a48c6d0a1080860075f26751bdae75e16b25c09e556fc1e4c76ab3219e5dce863ef5d1adbbe592670e298f0466503b462450cfc644d0041c0882f71a789c4c8b6ab9d3322a780e84c513a47d59816fc9ba027f079c0ebba3adc3ac9a31e81b1b8669ba1d802a6d3d6b0e166f15b23b61e6abdaf52d8781d216dbb72e03c10651b88e0ae02fc19253c041ecd452d2ce45d12d74a2825f1c0b2e527eeddf3412bff0f790e9298e4ebb70cb5ff968c91b79d07bec3cca926c3666908d18e5d6f73a73d753ca39c2f35240fe817d20ab7142bacdb25e6842fc085cb5bcfb06395d81c10196cb1574cbb9f3d86f1dc4f8c8ad3fc53b93a9ae82cf3cbb820662ec6f5e05aac39e76adbc7f353c2375989aeae6664e28e671e3d51eee836e47bcb9e31e8d8080fb57f1c56c5160903caefdf224e2e316ba9f15e1124c178de4bd1dac1c101957eae8cef628e4eb241bd2ae1502ae11330d7ac42b283ac0a5c4c853360a168d6067c114364898c68eb859672b4ecd7ee1cebcdc3ec3ea65e21eb263907c97ca8ece6cfc011b2bc5987caff79c2b1e96509140073d3ef102bfec503ee8eaeab9770d33a099b093d796d54793083dbd09c96e11c9219e86c615612e058e4c53eb003ee1bafde019858f79dd7a370f99e0676b411e4a0f30c265b739298403957e83be25302bd0b3ea0f9c500c715dfea6175608ed8588f0a318b1e03246cfb4f704db23327d29fb12df3af20dae7aa2b2278e26af01e67b60a24bebe9562786e462c26647803b46c034d475674ff2583cf702816701f43289370a04b9b9b1b8ae118e96cd555a9409002a3e8b098b4894cc4fa9a2f0ee426179bef140fe706dc1c69ac4ef426a10a0275b4644d36a455812a74f77a1a32a067aa1eb57461c98ae7394aa10ac02bab2508f06641e35a3ceb3037f5dbe2e0883a45eba5f7896ec306142daee888552ce1b037b851172492b517462b68e41bd67fb2291474ee936542f7ba1baa80ded5f4a80e37d4ff9198873b343303daf426def029fef095f05b9caf35f57392ee6e9cf60f0069379ad"
      ],
      "sequence": 4294967294
    }
  ],
  "vout": [
    {
      "value": 1.0,
      "n": 0,
      "scriptPubKey": {
        "asm": "OP_RETURN 5cb86bb07b3e55d729e0975e87593bcb001b735f3a03184c7ed734edd84741ab 72b8305f455bf1430df532257b5901664de4fb2d2d393ea24b6929bed71864975298107f657bd1632dd512055b7921466dc4db0d0d191e826b49099ef73844b732f8701f051bb1034db572653b1941260da4bb6d6d797ee20b2969fe975824d712d8503f253b91236d9552451b3961062d849b4d4d595ec22b0949deb77804f7f238b0dfc5db71c38d75b2a5fbd981e6cd647badadb9be22cbe9a93e5798e417d21890ffe5fb51e3ad559285dbf9a1c6ed445b8d8d999e02ebc9891e77b8c437b278f09f859b3183cd35f2e5bb99c1a68d243bededf9fe628ba9e97e17d8a4579258d0bfa5bb11a3ed15d2c59bb9e186ad041bcdcdd9de42ab89c95e37f8847772b8305f455bf1430df532257b5901664de4fb2d2d393ea24b6929bed71864975298107f657bd1632dd512055b7921466dc4db0d0d191e826b49099ef73844b732f8701f051bb1034db572653b1941260da4bb6d6d797ee20b2969fe975824d712d8503f253b91236d9552451b3961062d849b4d4d595ec22b0949deb77804f7f238b0dfc5db71c38d75b2a5fbd981e6cd647badadb9be22cbe9a93e5798e417d21890ffe5fb51e3ad559285dbf9a1c6ed445b8d8d999e02ebc9891e77b8c437b278f09f859b3183cd35f2e5bb99c1a68d243bededf9fe628ba9e97e17d8a4579258d0bfa5bb11a3ed15d2c59bb9e186ad041bcdcdd9de42ab89c95e37f8847772b8305f455bf1430df532257b5901664de4fb2d2d393ea24b6929bed71864975298107f657bd1632dd512055b7921466dc4db0d0d191e826b49099ef73844b732f8701f051bb1034db572653b1941260da4bb6d6d797ee20b2969fe975824d712d8503f253b91236d9552451b3961062d849b4d4d595ec22b0949deb77804f7f238b0dfc5db71c38d75b2a5fbd981e6cd647badadb9be22cbe9a93e5798e417d21890ffe5fb51e3ad559285dbf9a1c6ed445b8d8d999e02ebc9891e77b8c437b278f09f859b3183cd35f2e5bb99c1a68d243bededf9fe628ba9e97e17d8a4579258d0bfa5bb11a3ed15d2c59bb9e186ad041bcdcdd9de42ab89c95e37f8847772b8305f455bf1430df532257b5901664de4fb2d2d393ea24b6929bed71864975298107f657bd1632dd512055b7921466dc4db0d0d191e826b49099ef73844b732f8701f051bb1034db572653b1941260da4bb6d6d797ee20b2969fe975824d712d8503f253b91236d9552451b3961062d849b4d4d595ec22b0949deb77804f7f238b0dfc5db71c38d75b2a5fbd981e6cd647badadb9be22cbe9a93e5798e417d21890ffe5fb51e3ad559285dbf9a1c6ed445b8d8d999e02ebc9891e77b8c437b278f09f859b3183cd35f2e5bb99c1a68d243bededf9fe628ba9e97e17d8a4579258d0bfa5bb11a3ed15d2c59bb9e186ad041bcdcdd9de42ab89c95e37f8847772b8305f455bf1430df532257b5901664de4fb2d2d393ea24b6929bed71864975298107f657bd1632dd512055b7921466dc4db0d0d191e826b49099ef73844b732f8701f051bb1034db572653b1941260da4bb6d6d797ee20b2969fe975824d712d8503f253b91236d9552451b3961062d849b4d4d595ec22b0949deb77804f7f238b0dfc5db71c38d75b2a5fbd981e62be3654e87014ed062ed66999c8f667bd6755203e41fad24a2bde4ce82223a72",
        "hex": "6a205cb86bb07b3e55d729e0975e87593bcb001b735f3a03184c7ed734edd84741ab4db00472b8305f455bf1430df532257b5901664de4fb2d2d393ea24b6929bed71864975298107f657bd1632dd512055b7921466dc4db0d0d191e826b49099ef73844b732f8701f051bb1034db572653b1941260da4bb6d6d797ee20b2969fe975824d712d8503f253b91236d9552451b3961062d849b4d4d595ec22b0949deb77804f7f238b0dfc5db71c38d75b2a5fbd981e6cd647badadb9be22cbe9a93e5798e417d21890ffe5fb51e3ad559285dbf9a1c6ed445b8d8d999e02ebc9891e77b8c437b278f09f859b3183cd35f2e5bb99c1a68d243bededf9fe628ba9e97e17d8a4579258d0bfa5bb11a3ed15d2c59bb9e186ad041bcdcdd9de42ab89c95e37f8847772b8305f455bf1430df532257b5901664de4fb2d2d393ea24b6929bed71864975298107f657bd1632dd512055b7921466dc4db0d0d191e826b49099ef73844b732f8701f051bb1034db572653b1941260da4bb6d6d797ee20b2969fe975824d712d8503f253b91236d9552451b3961062d849b4d4d595ec22b0949deb77804f7f238b0dfc5db71c38d75b2a5fbd981e6cd647badadb9be22cbe9a93e5798e417d21890ffe5fb51e3ad559285dbf9a1c6ed445b8d8d999e02ebc9891e77b8c437b278f09f859b3183cd35f2e5bb99c1a68d243bededf9fe628ba9e97e17d8a4579258d0bfa5bb11a3ed15d2c59bb9e186ad041bcdcdd9de42ab89c95e37f8847772b8305f455bf1430df532257b5901664de4fb2d2d393ea24b6929bed71864975298107f657bd1632dd512055b7921466dc4db0d0d191e826b49099ef73844b732f8701f051bb1034db572653b1941260da4bb6d6d797ee20b2969fe975824d712d8503f253b91236d9552451b3961062d849b4d4d595ec22b0949deb77804f7f238b0dfc5db71c38d75b2a5fbd981e6cd647badadb9be22cbe9a93e5798e417d21890ffe5fb51e3ad559285dbf9a1c6ed445b8d8d999e02ebc9891e77b8c437b278f09f859b3183cd35f2e5bb99c1a68d243bededf9fe628ba9e97e17d8a4579258d0bfa5bb11a3ed15d2c59bb9e186ad041bcdcdd9de42ab89c95e37f8847772b8305f455bf1430df532257b5901664de4fb2d2d393ea24b6929bed71864975298107f657bd1632dd512055b7921466dc4db0d0d191e826b49099ef73844b732f8701f051bb1034db572653b1941260da4bb6d6d797ee20b2969fe975824d712d8503f253b91236d9552451b3961062d849b4d4d595ec22b0949deb77804f7f238b0dfc5db71c38d75b2a5fbd981e6cd647badadb9be22cbe9a93e5798e417d21890ffe5fb51e3ad559285dbf9a1c6ed445b8d8d999e02ebc9891e77b8c437b278f09f859b3183cd35f2e5bb99c1a68d243bededf9fe628ba9e97e17d8a4579258d0bfa5bb11a3ed15d2c59bb9e186ad041bcdcdd9de42ab89c95e37f8847772b8305f455bf1430df532257b5901664de4fb2d2d393ea24b6929bed71864975298107f657bd1632dd512055b7921466dc4db0d0d191e826b49099ef73844b732f8701f051bb1034db572653b1941260da4bb6d6d797ee20b2969fe975824d712d8503f253b91236d9552451b3961062d849b4d4d595ec22b0949deb77804f7f238b0dfc5db71c38d75b2a5fbd981e62be3654e87014ed062ed66999c8f667bd6755203e41fad24a2bde4ce82223a72",
        "type": "nulldata"
      }
    },
    {
      "value": 499982.7127,
      "n": 1,
      "scriptPubKey": {
        "asm": "1 325565d908b90cd43112f03c45f805d022b2d9464baf1bf2023dc8212f462b74",
        "hex": "5120325565d908b90cd43112f03c45f805d022b2d9464baf1bf2023dc8212f462b74",
        "reqSigs": 1,
        "type": "witness_v1_scripthash",
        "addresses": [
          "3QJmnh"
        ]
      }
    }
  ],
  "blockhash": "0588000bb82f4b14ca9e4626330a5c84a7bb9e1c31fd2ade5c3732d80cc4fd85",
  "confirmations": 1,
  "time": 1764178356,
  "blocktime": 1764178356
}