{
  "hex": "0100000000010172ed59d02a590689a32608a97df35edeecae6d02fe7c4e7fe447a155e8fc624c0000000000feffffff0200e1f50500000000fdd5046a20c84447bc81b1bc97d5de6e5119e2f3490de19381a77039dc5e75ddbd262e7e5e4db004732536db9ae54c1d7782e9df828d39d471c00d781e389e3f390ff0aa9bddecbd530516fbbac56c3d57a2c9ffa2ad19f451e02d583e18be1f192fd08abbfdcc9d3365769bdaa50c5d37c2a99fc2cd799431804d385e78de7f794fb0eadb9dacfd134556bbfa852c7d17e289bfe2ed59b411a06d187e58fe5f596f90cafbbd8cddf3a5b65b1a65cc9df702695f020db954f1408df89eb81ebfb98f702a1b5d6c3dd385967b3a45ecbdd722497f222d9974d160add8be983e9f99af500a3b7d4c1db3e5f61b5a258cddb742291f424df914b100cdb8def85efff9cf306a5b1d2c7d93c5d63b7a05acfd9762093f626dd9349120ed98fed87edfd9ef104a7b3d0c5d732536db9ae54c1d7782e9df828d39d471c00d781e389e3f390ff0aa9bddecbd530516fbbac56c3d57a2c9ffa2ad19f451e02d583e18be1f192fd08abbfdcc9d3365769bdaa50c5d37c2a99fc2cd799431804d385e78de7f794fb0eadb9dacfd134556bbfa852c7d17e289bfe2ed59b411a06d187e58fe5f596f90cafbbd8cddf3a5b65b1a65cc9df702695f020db954f1408df89eb81ebfb98f702a1b5d6c3dd385967b3a45ecbdd722497f222d9974d160add8be983e9f99af500a3b7d4c1db3e5f61b5a258cddb742291f424df914b100cdb8def85efff9cf306a5b1d2c7d93c5d63b7a05acfd9762093f626dd9349120ed98fed87edfd9ef104a7b3d0c5d732536db9ae54c1d7782e9df828d39d471c00d781e389e3f390ff0aa9bddecbd530516fbbac56c3d57a2c9ffa2ad19f451e02d583e18be1f192fd08abbfdcc9d3365769bdaa50c5d37c2a99fc2cd799431804d385e78de7f794fb0eadb9dacfd134556bbfa852c7d17e289bfe2ed59b411a06d187e58fe5f596f90cafbbd8cddf3a5b65b1a65cc9df702695f020db954f1408df89eb81ebfb98f702a1b5d6c3dd385967b3a45ecbdd722497f222d9974d160add8be983e9f99af500a3b7d4c1db3e5f61b5a258cddb742291f424df914b100cdb8def85efff9cf306a5b1d2c7d93c5d63b7a05acfd9762093f626dd9349120ed98fed87edfd9ef104a7b3d0c5d732536db9ae54c1d7782e9df828d39d471c00d781e389e3f390ff0aa9bddecbd530516fbbac56c3d57a2c9ffa2ad19f451e02d583e18be1f192fd08abbfdcc9d3365769bdaa50c5d37c2a99fc2cd799431804d385e78de7f794fb0eadb9dacfd134556bbfa852c7d17e289bfe2ed59b411a06d187e58fe5f596f90cafbbd8cddf3a5b65b1a65cc9df702695f020db954f1408df89eb81ebfb98f702a1b5d6c3dd385967b3a45ecbdd722497f222d9974d160add8be983e9f99af500a3b7d4c1db3e5f61b5a258cddb742291f424df914b100cdb8def85efff9cf306a5b1d2c7d93c5d63b7a05acfd9762093f626dd9349120ed98fed87edfd9ef104a7b3d0c5d732536db9ae54c1d7782e9df828d39d471c00d781e389e3f390ff0aa9bddecbd530516fbbac56c3d57a2c9ffa2ad19f451e02d583e18be1f192fd08abbfdcc9d3365769bdaa50c5d37c2a99fc2cd799431804d385e78de7f794fb0eadb9dacfd134556bbfa852c7d17e289bfe2ed59b411a06d187e58fe5f596f90cafbbd8cddf3a5b65b1a65cc9df702695f020db9548c2c352c1efb92ce18c10ed3babfe9a5017cc6b24b33fb1e5802549dc5e2aef31076cf5d792d0000225120bb130ebfab6d11825ccd4c26b40cbd70b586d6b6e5fc205fa2015d7afbd204c402fd75099e9cf3b7951f6d5eacf5ed3d101233cc5137a321a972b6155744ac1a06d521667430afbbfd218b32c18d65a9cf0f337d1d6411d09eba3a1e0b5d1e25d2dd7c33231820cb9ccc709431133c2ce47ab9564a52216db279a7171d3a3a2419be3b73e0b7b53d6d56888c93ace8dd13dde3c463d1cd2655113534ed026914736deb0d367599df243e77b9ea98fb74dd510d640afe5f181b1015df487fb34b57742a3a16b814d8836e494eeb2f7189e140ada4d5b0aa9a68c1e07988f5babf24d85b4b353b2da6fc273d96cc6e9c3892edb6b5d21a526cc8350370780a71403b936e05a9c59fd7c430be5fc1573dd1a6f789416709963c268c14cab577b88e9e22f663d6d249bfb7b5b63eb983d567cab6f138426c951c9e7ff36bc4cfa205114e1c4052435151d12b576411a4247a0f2399da36aff9045e4055f73b1ab489de497e7f02e86e3a9fc5beb99e636045fd3b15e822d047cd22345513d586c53f72aa267548cee6a60e7346a6288f51dcebdaa6cf2a3c9363d214c77523d06ea50547a3a6bdcb076e783b148f6e09f5144b2d6f2ec510ee632c85aa63a5ddca17d95ac0cf864b38690deaf4c8b2a6c8450c92e33ddc097ae27ab2d0384c003ae51fb9271381de10a46ac0e206c8d47cff4c3362e942766ae176f6dea5f40d455fb689d7ac40a577ef8626d68bf8ec1da5170fcf14830276c520250b0863f52c4e0c4d3213809c39203a8baedac4d582c9c9c27b3b48ae9ab724c6e07444187f21889ade13cd09e190dbc59c0f0a71f631ae720ba433e52be4e164e44b6d64a1e0c749335c6797b5464783238f6741b858f62f0ef8a81b66f6e4b48cbc6cf44b2d48bf1fb122c479c264e85752a76fa4189e657e5faccf8370712c763782045608ac64059903383732f056cfa9ecc3c40f49b766ce2e9e438a20f47e3abbfc4390699e6aaf6c36f3553457684eed8c0309f7bd8030be2ddfa16834bfc76178bab6ba0e3b2f41e14d6bd65967e312ad2f49752121b5393fea77ecf97992554b24b4ce9bd12f39f20f22eaf68befe6ac5c1d5ccd94b4f057ea8e2888b4ad5356b18325030dfd884ab4bb3f92ed6732f5d32a6e2b67cca21182fdfa783d5747f873e43222d179ccf7e11af11a526b9fbfd0607ec1adfdd84961e40ba5698e3a51c35fee8c72550118834ca10d1eb192a2d01961d6301fc634bd0a16cc0c11420bf3d61841acda2b0ecf8de402762a5416b63618f3f2540d06d7ac514a4a0e53a67c526d6567e0dd1a34fb6efc2a1f3100feacf29270e42238b11a3f0e5049d11714a80caeefe37a5988ee0f6bc602f97e66c3a96047bfe1dd94ef8225e6ac6901dbeeabb235c21ca09b457fcc15f4b95967470f7b3442b3304303b010ec308f6e0df2030015d38400d3d5369714cbc18c8932338d527b80cb88970be5125ea85eac816fd76e7f9960eb810d49d94758808eb51454a7c33c3567179b6c9d7ea81b7dca64a6039456434fe47a4d4a5669b0fe39f81ff0f54773eebc4d9f4f49d75f8688103a6cd3321fd3f8262d7b0d24a6156d226c6b7e4f4756e1a1ff7d5f5568a1e585b843df1212bd876bb8c6373309dcd0517e1a1d0b66646f457ca012e281d373d368fef847f21ba4f6d91bf1668c7dda5b8d72e70a775fd0490e85221b1a6919b5559dc880119061d82ae662262e13cfacb80b945ad11f1712dff2f37df66d8cbbe9896b3ff11abe82d623e790617ee0d923d91e384aef73e68eaf428bda7c8cf164252cb2e0e396b025be1cb56101b560342e419c097f4caef5540f54d77f796df13af8f51227f615c063b57dac94ad8f9ff641714315f0c07afbfcb3798dfc18b01404f050fe62b167f1b793168ac2c3f4e717d1ae986d8de0cfd229aabe5dbc62a04715d30a4e98ef9ada0114e865fd0d2f85f2bd5af5e16327855e0a21e26d6910b9f4bdf62be8bbfa972fccf500286994234c46db0c811783cad6f7a769bbb61e6c72d3d968324a3adeea37c98aa60c8c5cb57523248397082c68e122a2a46013fec4bf5ab05592cadd156d1f43bffc1d7b24a519f3c9e17f67661b8b9886823d80152e65250daceeb3043091dfc84d1275975ec3fd4bbf22ca77043d1970e5827c6fc3bdfad9a988fa5833d7d8ae5fc545bd6b4a3aabd2d40c3a414b5af7c210e8de02fd2dc2f996f7b960c04bccd0148c5465afc62ec3e7723c2dc3c6759296b1692978e913a802a6b55a4ea82eb574d09564b93c8949907b57bcb95f86d5598ab2177ea9ce282181e26127baf0ad3bb853ccf8785356ad0801c317f347c831c4c7ec6a5404bab72ba46cfffd31f228356fa66fba73012981bd7f09fb5b3d85f141950865a36cfad43002ad0f5bd0ef45624ce77ac69dc2e472bcf7b44e30351f5297ce64d03b69b371f92a0e3adab464ae5473e23a01972adebe7bfcbcbcd1677711ab1083db054a110ebbe54046778c7c9f587698d355b7f72482ae09d3dcf3bb3f427398ca17aeed1f66a00f44501096ecaefbaaf8fc306b866336cd69a18746d64cf101a1102e7e8325ac17e7254d9d6ff6b16d0dde6e778dfc651c036235ba9e3ff6772a9579164f357392bab807ee131923e48f1f552bf660190afaada5e92445259adf76024c2ed2d4da685ff17f35a0c963a9d162d094b919e9d0bc02f99746ef5030ca7c322c0bafbda9a8d218638030584055693b9ff61f4deb3443b07077d9fce024be6c90fe02a023de11ef6fa30688249ae922c3c178e4693d483053a30f20465df2b8a488c24594641caa687015c7e53e38134358f4edf60ad3d20fbae23d0598cfb0861a4718269a6b0042645b408246cd06a3c54d1105abc0aa6bffd912b79ce90bdb0fdfa83152991f80c1aa3dee1b202721c3acc730b4394fad123ad83456806932f2cde0308d01a20424f4063000b94981538295a4ead25a93511456f27834ad175e55b1cb82225a0bf16ef64f5fdaa9c42554d8558658c040d6e17a4e0a7f81f45ffc22dae409b76a0082ea05d7783bd36c2d98c067ff53ce0082bc0d2e1d3205a5a19e6a0c6a8d5d7e2335655e88be7bd00aafd1eeecf72857b226a06d4d0d2d22a883252fba5c20edc18b9041689d5eb7436ea8a581fc4c838e1a9aae56a55c2a30e9a7db766f777170d0a412b9340eeece64e2f48fb461213ff3f61328f94f9ed34252b8cc7429b933b65f392724ab2d5f3e7a13192e91441701533ba1d3ab139092dffe94fc239de777602f99daceb03bddd7339100e21188851e2252bfb919a979cec5d2ff744be6665aba025d7138562f5c8cfc151a27292a2d515971737c80828bb8ccd5dae2fbfe0e12364046476271cdd5f5090a1935526fa3d7dfe6f0f1f2040c30475261636b72929398a3bbc2c7e7eaedf4f5000000000000000000000000000015202d4201fd210500547dd297e9e5df322544c62208375992523e6f41eb7901226ba632ada78cef8f9f3d9539b5d75ad1399de802505fd4fe09f73e9974fc56555e2ab61d778e2cf8fa4daccb400f9ea93bd99e316ae30f866eb69a5480c8a44e80703f56bcf969a033dd7d6fb770fcb3400c5e11376ec29fd9446dee2caff8987e34c7f2e36799a51f2e620dc1ab0374d51529b5ec74be73aac246b34174546a22b51c8e1a2830eda2af6d11d335be41db1cb0fd0fc0194277f8c6230f33623a28c94997100f638cac4dd010174074cb5c3037873c466f4c68fe13101970e5455b11e77714797e61e58c33d50e398644a739fe4013d1e2a84eaed38864058eaabf183a80f946256806d15fa08aef289c7bef17396158ec59fc8a3d98c7adbe1cefe2750dc4595b1bbac3850de21b69e5a038467bf352ada0c7b81b851832c173ab3de79edaa9629ea09d6ce70ca175a78bf64ff86e739ee18dd9d6e4fbded2b1a1fd7ee68eab99fc271ba98698b58a10e784dd8b879ccb2693e3ef499597ac0f93ad5eaa802c0293630b9b451014e462b5ae5afa5ad2c177529f686b6b05f999a06c85943106fcb9214cbc7eec8520331250ae7254456b053d9238e471d05ef6b9bf864e764a43d77ce070606202efabf8ae0723868f16db5f54711f0331974b34fc3111d8a658a88bb4a091efcc991730a49f8dfa227d9e1d24fd7cd310e87bb662ebcfbc46bae8dbcb1ef142bb3cc945cd4f80cebd236eb7e655150c8dcb6b858a420ca1ef34929143c3e6bb0932df4c2825293a49e3a289401d1d84a893e1b4713d58ddd8dc304a3daed238f90469ec0ec20b0d620446c0dc0b7c24b976b1298798b9e61d1029c4d93e8616737128ba671f60f3cea98273b965c8869b97b486f1b0c50a9b9da76b77760237fc5c9224b0605fe8c3f7279f3566499e2e10c4e4c72c9a7f71b89a1a605fea59e1ef8a8f4da5c2a73158c8a268b74b203ca09cf0e93e114c3d75600536d8a9c692282318d4979aa33eb6829a83580e75d7b5121126e78255365a248e1c817be366607d7615a2c288ea5c982165e3f9f852329c52c05070e897e72c85d28ff3076ae208879ebc89be84bb6d52128260b9420ceba5b779e5af10213a61b74b9eb37aad7c4ed9d80b30c55eac5dc0c61a1681c86b376a199161892d58e428dbaf11cd5189a0f27748cb37039db9b2e6b9be41afa9f7fd862ce95402f9a277a9329b1102b11cbe821456c4e3eaec626d482976671f8e20833a83557384e9ae2b6ad386cec6776ef597670a18fc4abedcaa8b4e5dc142c23462ed42363a38d369a70e941dfebf2f842bf23c2137416f6ed977776e3785e46c1389d02a194e91fd581d2c8b53cc38961fdf9e93a1848d27a01baa53285f48018bf887e14f4d37b0a62554e7abed50d1312ac21d5d7e34e6814b189d0d94a789a2b9deb21c080bbd8b30ec5856ee7dc08ae4c7bd579e12530d3f9ad9e8b46405dca58600b2cb6455e2495b54673332dad13cb1e344ba38a6480f8f3882069934ffc1b6da5cae46fc364412b42a105732e09d620c961a5553ef11f27085f9f885f987b7a9a37b6cea843e3a76b79695f94fdf655ba23c87eceaebb6ba50333671a2060b25da8ee2e276d172c05c687bc331911f67ac42364e055bc70b37aa585e6c5151dec8dea517bcffea6def6363ef5e5dcd94a98e135bb28d373a73c4fabab373219ba691c2e8fa514ca7bae7839bd4e344bd06966bbab9993b4690e59bca4d5595fc5d8de170d13a1ff90ac1a33e7fb30a582f270f8a9f0668ba2eb7773faf245f73124f0d2625770a35193a521ed33d3ac08efa6eab8b12ae873ec50e106b0fa3174169000000",
  "txid": "eec1bc3be2dba185a483dc40702f695edd464fadfb21fa62b2b900bbb0239b52",
  "hash": "afc0877a46ae949558c06df938d3b3b40e74b529f7917427b91a36a2b57794fe",
  "size": 5085,
  "vsize": 2278,
  "version": 1,
  "locktime": 105,
  "vin": [
    {
      "txid": "4c62fce855a147e47f4e7cfe026daeecde5ef37da90826a38906592ad059ed72",
      "vout": 0,
      "scriptSig": {
        "asm": "",
        "hex": ""
      },
      "txinwitness": [
        "9e9cf3b7951f6d5eacf5ed3d101233cc5137a321a972b6155744ac1a06d521667430afbbfd218b32c18d65a9cf0f337d1d6411d09eba3a1e0b5d1e25d2dd7c33231820cb9ccc709431133c2ce47ab9564a52216db279a7171d3a3a2419be3b73e0b7b53d6d56888c93ace8dd13dde3c463d1cd2655113534ed026914736deb0d367599df243e77b9ea98fb74dd510d640afe5f181b1015df487fb34b57742a3a16b814d8836e494eeb2f7189e140ada4d5b0aa9a68c1e07988f5babf24d85b4b353b2da6fc273d96cc6e9c3892edb6b5d21a526cc8350370780a71403b936e05a9c59fd7c430be5fc1573dd1a6f789416709963c268c14cab577b88e9e22f663d6d249bfb7b5b63eb983d567cab6f138426c951c9e7ff36bc4cfa205114e1c4052435151d12b576411a4247a0f2399da36aff9045e4055f73b1ab489de497e7f02e86e3a9fc5beb99e636045fd3b15e822d047cd22345513d586c53f72aa267548cee6a60e7346a6288f51dcebdaa6cf2a3c9363d214c77523d06ea50547a3a6bdcb076e783b148f6e09f5144b2d6f2ec510ee632c85aa63a5ddca17d95ac0cf864b38690deaf4c8b2a6c8450c92e33ddc097ae27ab2d0384c003ae51fb9271381de10a46ac0e206c8d47cff4c3362e942766ae176f6dea5f40d455fb689d7ac40a577ef8626d68bf8ec1da5170fcf14830276c520250b0863f52c4e0c4d3213809c39203a8baedac4d582c9c9c27b3b48ae9ab724c6e07444187f21889ade13cd09e190dbc59c0f0a71f631ae720ba433e52be4e164e44b6d64a1e0c749335c6797b5464783238f6741b858f62f0ef8a81b66f6e4b48cbc6cf44b2d48bf1fb122c479c264e85752a76fa4189e657e5faccf8370712c763782045608ac64059903383732f056cfa9ecc3c40f49b766ce2e9e438a20f47e3abbfc4390699e6aaf6c36f3553457684eed8c0309f7bd8030be2ddfa16834bfc76178bab6ba0e3b2f41e14d6bd65967e312ad2f49752121b5393fea77ecf97992554b24b4ce9bd12f39f20f22eaf68befe6ac5c1d5ccd94b4f057ea8e2888b4ad5356b18325030dfd884ab4bb3f92ed6732f5d32a6e2b67cca21182fdfa783d5747f873e43222d179ccf7e11af11a526b9fbfd0607ec1adfdd84961e40ba5698e3a51c35fee8c72550118834ca10d1eb192a2d01961d6301fc634bd0a16cc0c11420bf3d61841acda2b0ecf8de402762a5416b63618f3f2540d06d7ac514a4a0e53a67c526d6567e0dd1a34fb6efc2a1f3100feacf29270e42238b11a3f0e5049d11714a80caeefe37a5988ee0f6bc602f97e66c3a96047bfe1dd94ef8225e6ac6901dbeeabb235c21ca09b457fcc15f4b95967470f7b3442b3304303b010ec308f6e0df2030015d38400d3d5369714cbc18c8932338d527b80cb88970be5125ea85eac816fd76e7f9960eb810d49d94758808eb51454a7c33c3567179b6c9d7ea81b7dca64a6039456434fe47a4d4a5669b0fe39f81ff0f54773eebc4d9f4f49d75f8688103a6cd3321fd3f8262d7b0d24a6156d226c6b7e4f4756e1a1ff7d5f5568a1e585b843df1212bd876bb8c6373309dcd0517e1a1d0b66646f457ca012e281d373d368fef847f21ba4f6d91bf1668c7dda5b8d72e70a775fd0490e85221b1a6919b5559dc880119061d82ae662262e13cfacb80b945ad11f1712dff2f37df66d8cbbe9896b3ff11abe82d623e790617ee0d923d91e384aef73e68eaf428bda7c8cf164252cb2e0e396b025be1cb56101b560342e419c097f4caef5540f54d77f796df13af8f51227f615c063b57dac94ad8f9ff641714315f0c07afbfcb3798dfc18b01404f050fe62b167f1b793168ac2c3f4e717d1ae986d8de0cfd229aabe5dbc62a04715d30a4e98ef9ada0114e865fd0d2f85f2bd5af5e16327855e0a21e26d6910b9f4bdf62be8bbfa972fccf500286994234c46db0c811783cad6f7a769bbb61e6c72d3d968324a3adeea37c98aa60c8c5cb57523248397082c68e122a2a46013fec4bf5ab05592cadd156d1f43bffc1d7b24a519f3c9e17f67661b8b9886823d80152e65250daceeb3043091dfc84d1275975ec3fd4bbf22ca77043d1970e5827c6fc3bdfad9a988fa5833d7d8ae5fc545bd6b4a3aabd2d40c3a414b5af7c210e8de02fd2dc2f996f7b960c04bccd0148c5465afc62ec3e7723c2dc3c6759296b1692978e913a802a6b55a4ea82eb574d09564b93c8949907b57bcb95f86d5598ab2177ea9ce282181e26127baf0ad3bb853ccf8785356ad0801c317f347c831c4c7ec6a5404bab72ba46cfffd31f228356fa66fba73012981bd7f09fb5b3d85f141950865a36cfad43002ad0f5bd0ef45624ce77ac69dc2e472bcf7b44e30351f5297ce64d03b69b371f92a0e3adab464ae5473e23a01972adebe7bfcbcbcd1677711ab1083db054a110ebbe54046778c7c9f587698d355b7f72482ae09d3dcf3bb3f427398ca17aeed1f66a00f44501096ecaefbaaf8fc306b866336cd69a18746d64cf101a1102e7e8325ac17e7254d9d6ff6b16d0dde6e778dfc651c036235ba9e3ff6772a9579164f357392bab807ee131923e48f1f552bf660190afaada5e92445259adf76024c2ed2d4da685ff17f35a0c963a9d162d094b919e9d0bc02f99746ef5030ca7c322c0bafbda9a8d218638030584055693b9ff61f4deb3443b07077d9fce024be6c90fe02a023de11ef6fa30688249ae922c3c178e4693d483053a30f20465df2b8a488c24594641caa687015c7e53e38134358f4edf60ad3d20fbae23d0598cfb0861a4718269a6b0042645b408246cd06a3c54d1105abc0aa6bffd912b79ce90bdb0fdfa83152991f80c1aa3dee1b202721c3acc730b4394fad123ad83456806932f2cde0308d01a20424f4063000b94981538295a4ead25a93511456f27834ad175e55b1cb82225a0bf16ef64f5fdaa9c42554d8558658c040d6e17a4e0a7f81f45ffc22dae409b76a0082ea05d7783bd36c2d98c067ff53ce0082bc0d2e1d3205a5a19e6a0c6a8d5d7e2335655e88be7bd00aafd1eeecf72857b226a06d4d0d2d22a883252fba5c20edc18b9041689d5eb7436ea8a581fc4c838e1a9aae56a55c2a30e9a7db766f777170d0a412b9340eeece64e2f48fb461213ff3f61328f94f9ed34252b8cc7429b933b65f392724ab2d5f3e7a13192e91441701533ba1d3ab139092dffe94fc239de777602f99daceb03bddd7339100e21188851e2252bfb919a979cec5d2ff744be6665aba025d7138562f5c8cfc151a27292a2d515971737c80828bb8ccd5dae2fbfe0e12364046476271cdd5f5090a1935526fa3d7dfe6f0f1f2040c30475261636b72929398a3bbc2c7e7eaedf4f5000000000000000000000000000015202d4201",
        "00547dd297e9e5df322544c62208375992523e6f41eb7901226ba632ada78cef8f9f3d9539b5d75ad1399de802505fd4fe09f73e9974fc56555e2ab61d778e2cf8fa4daccb400f9ea93bd99e316ae30f866eb69a5480c8a44e80703f56bcf969a033dd7d6fb770fcb3400c5e11376ec29fd9446dee2caff8987e34c7f2e36799a51f2e620dc1ab0374d51529b5ec74be73aac246b34174546a22b51c8e1a2830eda2af6d11d335be41db1cb0fd0fc0194277f8c6230f33623a28c94997100f638cac4dd010174074cb5c3037873c466f4c68fe13101970e5455b11e77714797e61e58c33d50e398644a739fe4013d1e2a84eaed38864058eaabf183a80f946256806d15fa08aef289c7bef17396158ec59fc8a3d98c7adbe1cefe2750dc4595b1bbac3850de21b69e5a038467bf352ada0c7b81b851832c173ab3de79edaa9629ea09d6ce70ca175a78bf64ff86e739ee18dd9d6e4fbded2b1a1fd7ee68eab99fc271ba98698b58a10e784dd8b879ccb2693e3ef499597ac0f93ad5eaa802c0293630b9b451014e462b5ae5afa5ad2c177529f686b6b05f999a06c85943106fcb9214cbc7eec8520331250ae7254456b053d9238e471d05ef6b9bf864e764a43d77ce070606202efabf8ae0723868f16db5f54711f0331974b34fc3111d8a658a88bb4a091efcc991730a49f8dfa227d9e1d24fd7cd310e87bb662ebcfbc46bae8dbcb1ef142bb3cc945cd4f80cebd236eb7e655150c8dcb6b858a420ca1ef34929143c3e6bb0932df4c2825293a49e3a289401d1d84a893e1b4713d58ddd8dc304a3daed238f90469ec0ec20b0d620446c0dc0b7c24b976b1298798b9e61d1029c4d93e8616737128ba671f60f3cea98273b965c8869b97b486f1b0c50a9b9da76b77760237fc5c9224b0605fe8c3f7279f3566499e2e10c4e4c72c9a7f71b89a1a605fea59e1ef8a8f4da5c2a73158c8a268b74b203ca09cf0e93e114c3d75600536d8a9c692282318d4979aa33eb6829a83580e75d7b5121126e78255365a248e1c817be366607d7615a2c288ea5c982165e3f9f852329c52c05070e897e72c85d28ff3076ae208879ebc89be84bb6d52128260b9420ceba5b779e5af10213a61b74b9eb37aad7c4ed9d80b30c55eac5dc0c61a1681c86b376a199161892d58e428dbaf11cd5189a0f27748cb37039db9b2e6b9be41afa9f7fd862ce95402f9a277a9329b1102b11cbe821456c4e3eaec626d482976671f8e20833a83557384e9ae2b6ad386cec6776ef597670a18fc4abedcaa8b4e5dc142c23462ed42363a38d369a70e941dfebf2f842bf23c2137416f6ed977776e3785e46c1389d02a194e91fd581d2c8b53cc38961fdf9e93a1848d27a01baa53285f48018bf887e14f4d37b0a62554e7abed50d1312ac21d5d7e34e6814b189d0d94a789a2b9deb21c080bbd8b30ec5856ee7dc08ae4c7bd579e12530d3f9ad9e8b46405dca58600b2cb6455e2495b54673332dad13cb1e344ba38a6480f8f3882069934ffc1b6da5cae46fc364412b42a105732e09d620c961a5553ef11f27085f9f885f987b7a9a37b6cea843e3a76b79695f94fdf655ba23c87eceaebb6ba50333671a2060b25da8ee2e276d172c05c687bc331911f67ac42364e055bc70b37aa585e6c5151dec8dea517bcffea6def6363ef5e5dcd94a98e135bb28d373a73c4fabab373219ba691c2e8fa514ca7bae7839bd4e344bd06966bbab9993b4690e59bca4d5595fc5d8de170d13a1ff90ac1a33e7fb30a582f270f8a9f0668ba2eb7773faf245f73124f0d2625770a35193a521ed33d3ac08efa6eab8b12ae873ec50e106b0fa31741"
      ],
      "sequence": 4294967294
    }
  ],
  "vout": [
    {
      "value": 1.0,
      "n": 0,
      "scriptPubKey": {
        "asm": "OP_RETURN c84447bc81b1bc97d5de6e5119e2f3490de19381a77039dc5e75ddbd262e7e5e 732536db9ae54c1d7782e9df828d39d471c00d781e389e3f390ff0aa9bddecbd530516fbbac56c3d57a2c9ffa2ad19f451e02d583e18be1f192fd08abbfdcc9d3365769bdaa50c5d37c2a99fc2cd799431804d385e78de7f794fb0eadb9dacfd134556bbfa852c7d17e289bfe2ed59b411a06d187e58fe5f596f90cafbbd8cddf3a5b65b1a65cc9df702695f020db954f1408df89eb81ebfb98f702a1b5d6c3dd385967b3a45ecbdd722497f222d9974d160add8be983e9f99af500a3b7d4c1db3e5f61b5a258cddb742291f424df914b100cdb8def85efff9cf306a5b1d2c7d93c5d63b7a05acfd9762093f626dd9349120ed98fed87edfd9ef104a7b3d0c5d732536db9ae54c1d7782e9df828d39d471c00d781e389e3f390ff0aa9bddecbd530516fbbac56c3d57a2c9ffa2ad19f451e02d583e18be1f192fd08abbfdcc9d3365769bdaa50c5d37c2a99fc2cd799431804d385e78de7f794fb0eadb9dacfd134556bbfa852c7d17e289bfe2ed59b411a06d187e58fe5f596f90cafbbd8cddf3a5b65b1a65cc9df702695f020db954f1408df89eb81ebfb98f702a1b5d6c3dd385967b3a45ecbdd722497f222d9974d160add8be983e9f99af500a3b7d4c1db3e5f61b5a258cddb742291f424df914b100cdb8def85efff9cf306a5b1d2c7d93c5d63b7a05acfd9762093f626dd9349120ed98fed87edfd9ef104a7b3d0c5d732536db9ae54c1d7782e9df828d39d471c00d781e389e3f390ff0aa9bddecbd530516fbbac56c3d57a2c9ffa2ad19f451e02d583e18be1f192fd08abbfdcc9d3365769bdaa50c5d37c2a99fc2cd799431804d385e78de7f794fb0eadb9dacfd134556bbfa852c7d17e289bfe2ed59b411a06d187e58fe5f596f90cafbbd8cddf3a5b65b1a65cc9df702695f020db954f1408df89eb81ebfb98f702a1b5d6c3dd385967b3a45ecbdd722497f222d9974d160add8be983e9f99af500a3b7d4c1db3e5f61b5a258cddb742291f424df914b100cdb8def85efff9cf306a5b1d2c7d93c5d63b7a05acfd9762093f626dd9349120ed98fed87edfd9ef104a7b3d0c5d732536db9ae54c1d7782e9df828d39d471c00d781e389e3f390ff0aa9bddecbd530516fbbac56c3d57a2c9ffa2ad19f451e02d583e18be1f192fd08abbfdcc9d3365769bdaa50c5d37c2a99fc2cd799431804d385e78de7f794fb0eadb9dacfd134556bbfa852c7d17e289bfe2ed59b411a06d187e58fe5f596f90cafbbd8cddf3a5b65b1a65cc9df702695f020db954f1408df89eb81ebfb98f702a1b5d6c3dd385967b3a45ecbdd722497f222d9974d160add8be983e9f99af500a3b7d4c1db3e5f61b5a258cddb742291f424df914b100cdb8def85efff9cf306a5b1d2c7d93c5d63b7a05acfd9762093f626dd9349120ed98fed87edfd9ef104a7b3d0c5d732536db9ae54c1d7782e9df828d39d471c00d781e389e3f390ff0aa9bddecbd530516fbbac56c3d57a2c9ffa2ad19f451e02d583e18be1f192fd08abbfdcc9d3365769bdaa50c5d37c2a99fc2cd799431804d385e78de7f794fb0eadb9dacfd134556bbfa852c7d17e289bfe2ed59b411a06d187e58fe5f596f90cafbbd8cddf3a5b65b1a65cc9df702695f020db9548c2c352c1efb92ce18c10ed3babfe9a5017cc6b24b33fb1e5802549dc5e2aef3",
        "hex": "6a20c84447bc81b1bc97d5de6e5119e2f3490de19381a77039dc5e75ddbd262e7e5e4db004732536db9ae54c1d7782e9df828d39d471c00d781e389e3f390ff0aa9bddecbd530516fbbac56c3d57a2c9ffa2ad19f451e02d583e18be1f192fd08abbfdcc9d3365769bdaa50c5d37c2a99fc2cd799431804d385e78de7f794fb0eadb9dacfd134556bbfa852c7d17e289bfe2ed59b411a06d187e58fe5f596f90cafbbd8cddf3a5b65b1a65cc9df702695f020db954f1408df89eb81ebfb98f702a1b5d6c3dd385967b3a45ecbdd722497f222d9974d160add8be983e9f99af500a3b7d4c1db3e5f61b5a258cddb742291f424df914b100cdb8def85efff9cf306a5b1d2c7d93c5d63b7a05acfd9762093f626dd9349120ed98fed87edfd9ef104a7b3d0c5d732536db9ae54c1d7782e9df828d39d471c00d781e389e3f390ff0aa9bddecbd530516fbbac56c3d57a2c9ffa2ad19f451e02d583e18be1f192fd08abbfdcc9d3365769bdaa50c5d37c2a99fc2cd799431804d385e78de7f794fb0eadb9dacfd134556bbfa852c7d17e289bfe2ed59b411a06d187e58fe5f596f90cafbbd8cddf3a5b65b1a65cc9df702695f020db954f1408df89eb81ebfb98f702a1b5d6c3dd385967b3a45ecbdd722497f222d9974d160add8be983e9f99af500a3b7d4c1db3e5f61b5a258cddb742291f424df914b100cdb8def85efff9cf306a5b1d2c7d93c5d63b7a05acfd9762093f626dd9349120ed98fed87edfd9ef104a7b3d0c5d732536db9ae54c1d7782e9df828d39d471c00d781e389e3f390ff0aa9bddecbd530516fbbac56c3d57a2c9ffa2ad19f451e02d583e18be1f192fd08abbfdcc9d3365769bdaa50c5d37c2a99fc2cd799431804d385e78de7f794fb0eadb9dacfd134556bbfa852c7d17e289bfe2ed59b411a06d187e58fe5f596f90cafbbd8cddf3a5b65b1a65cc9df702695f020db954f1408df89eb81ebfb98f702a1b5d6c3dd385967b3a45ecbdd722497f222d9974d160add8be983e9f99af500a3b7d4c1db3e5f61b5a258cddb742291f424df914b100cdb8def85efff9cf306a5b1d2c7d93c5d63b7a05acfd9762093f626dd9349120ed98fed87edfd9ef104a7b3d0c5d732536db9ae54c1d7782e9df828d39d471c00d781e389e3f390ff0aa9bddecbd530516fbbac56c3d57a2c9ffa2ad19f451e02d583e18be1f192fd08abbfdcc9d3365769bdaa50c5d37c2a99fc2cd799431804d385e78de7f794fb0eadb9dacfd134556bbfa852c7d17e289bfe2ed59b411a06d187e58fe5f596f90cafbbd8cddf3a5b65b1a65cc9df702695f020db954f1408df89eb81ebfb98f702a1b5d6c3dd385967b3a45ecbdd722497f222d9974d160add8be983e9f99af500a3b7d4c1db3e5f61b5a258cddb742291f424df914b100cdb8def85efff9cf306a5b1d2c7d93c5d63b7a05acfd9762093f626dd9349120ed98fed87edfd9ef104a7b3d0c5d732536db9ae54c1d7782e9df828d39d471c00d781e389e3f390ff0aa9bddecbd530516fbbac56c3d57a2c9ffa2ad19f451e02d583e18be1f192fd08abbfdcc9d3365769bdaa50c5d37c2a99fc2cd799431804d385e78de7f794fb0eadb9dacfd134556bbfa852c7d17e289bfe2ed59b411a06d187e58fe5f596f90cafbbd8cddf3a5b65b1a65cc9df702695f020db9548c2c352c1efb92ce18c10ed3babfe9a5017cc6b24b33fb1e5802549dc5e2aef3",
        "type": "nulldata"
      }
    },
    {
      "value": 499992.8817,
      "n": 1,
      "scriptPubKey": {
        "asm": "1 bb130ebfab6d11825ccd4c26b40cbd70b586d6b6e5fc205fa2015d7afbd204c4",
        "hex": "5120bb130ebfab6d11825ccd4c26b40cbd70b586d6b6e5fc205fa2015d7afbd204c4",
        "reqSigs": 1,
        "type": "witness_v1_scripthash",
        "addresses": [
          "3QJmnh"
        ]
      }
    }
  ],
  "blockhash": "86d3aa2e412fd1c0ad7fd5d7d84b7ddcf41a8bf652344eaa49dd1e6444ae5dce",
  "confirmations": 1,
  "time": 1764176858,
  "blocktime": 1764176858
}