{
  "hex": "010000000001018248dc63ba5fd906973c3a1be127747547b096ed4807f6fa61b1f97a3cb62c660100000000feffffff0200e1f50500000000fdd5046a20dbf87c2b7639579229e3bd425a6f0ad561b18e2aa3cd50834250f9d0d53ddc7d4db0044ba66115293ac30832bfaa746c1e054c90becef586d4ef991ed530a2d718edc66b864135091ae328129f8a544c3e256cb09eeed5a6f4cfb93ef51082f738cde60be62155697a834872ffea342c5e450cd0fe8eb5c694afd95e9570e29758ad862bc60175495aa36852dfca140c7e652cf0deae95e6b48ff97eb550c2b7788da6cb26e195a9ba4388b23f2af4ec9e85cc103e4e7506546f199e55b02257986d46eb06c1b5899a63a8921f0ad4ccbea5ec301e6e5526744f39be75900277b84d668b66a1d5e9fa03c8f27f6ab4acdec58c507e0e3546142f59de15f06217d82d06ab4681f5c9da23e8d25f4a948cfee5ac705e2e1566340f79fe35d04237f80d264ba66115293ac30832bfaa746c1e054c90becef586d4ef991ed530a2d718edc66b864135091ae328129f8a544c3e256cb09eeed5a6f4cfb93ef51082f738cde60be62155697a834872ffea342c5e450cd0fe8eb5c694afd95e9570e29758ad862bc60175495aa36852dfca140c7e652cf0deae95e6b48ff97eb550c2b7788da6cb26e195a9ba4388b23f2af4ec9e85cc103e4e7506546f199e55b02257986d46eb06c1b5899a63a8921f0ad4ccbea5ec301e6e5526744f39be75900277b84d668b66a1d5e9fa03c8f27f6ab4acdec58c507e0e3546142f59de15f06217d82d06ab4681f5c9da23e8d25f4a948cfee5ac705e2e1566340f79fe35d04237f80d264ba66115293ac30832bfaa746c1e054c90becef586d4ef991ed530a2d718edc66b864135091ae328129f8a544c3e256cb09eeed5a6f4cfb93ef51082f738cde60be62155697a834872ffea342c5e450cd0fe8eb5c694afd95e9570e29758ad862bc60175495aa36852dfca140c7e652cf0deae95e6b48ff97eb550c2b7788da6cb26e195a9ba4388b23f2af4ec9e85cc103e4e7506546f199e55b02257986d46eb06c1b5899a63a8921f0ad4ccbea5ec301e6e5526744f39be75900277b84d668b66a1d5e9fa03c8f27f6ab4acdec58c507e0e3546142f59de15f06217d82d06ab4681f5c9da23e8d25f4a948cfee5ac705e2e1566340f79fe35d04237f80d264ba66115293ac30832bfaa746c1e054c90becef586d4ef991ed530a2d718edc66b864135091ae328129f8a544c3e256cb09eeed5a6f4cfb93ef51082f738cde60be62155697a834872ffea342c5e450cd0fe8eb5c694afd95e9570e29758ad862bc60175495aa36852dfca140c7e652cf0deae95e6b48ff97eb550c2b7788da6cb26e195a9ba4388b23f2af4ec9e85cc103e4e7506546f199e55b02257986d46eb06c1b5899a63a8921f0ad4ccbea5ec301e6e5526744f39be75900277b84d668b66a1d5e9fa03c8f27f6ab4acdec58c507e0e3546142f59de15f06217d82d06ab4681f5c9da23e8d25f4a948cfee5ac705e2e1566340f79fe35d04237f80d264ba66115293ac30832bfaa746c1e054c90becef586d4ef991ed530a2d718edc66b864135091ae328129f8a544c3e256cb09eeed5a6f4cfb93ef51082f738cde60be62155697a834872ffea342c5e450cd0fe8eb5c694afd95e9570e29758ad862bc60175495aa36852dfca140c7e652cf0deae95e6b48ff97eb550c2b7788da6cb26e195a9ba4388b23f2af4ec9e85cc3b4e802f32bedc5fc949087fa77d03d351d7ee69e92f6c1ce3c9e0489569ac21b0767139792d0000225120b9a08def22f9f4270dc919958a9a6331a45a60dde1f4b3d7864d0e1fba106f5a02fd75097b5c031882520b14a17d5f4e9db60f075d9a9b10ce00396025168ac25849c05a17e45478a726073a60780f0344eb2a76cda19649e8b1b03870952460f2db2479c40b2459a39e9e8097d0e20d72aebb86e16ab53a8ed3f4b21b536665b8ae7976f42212e895bb302fcec20699e2a904177e705e64fc9e51ec9082ae5a9225a327d8776d4cb1253b229ea40335acc5666624b5486d732213eaf3ede7306338f289e8a2893583e514b8e4baf22c350a31c0e9ad958035d8c10b5d849a49fd353933abb83838aaf265244a7cf956e27e5bc54fcae05daa253a48ac43f0341381792f383d25e36b7d02e17865c62ec47353f37ba347c56bd382bc1d9ecbca0ba10ca0bcb3170f6fa8dfe5508af3d6b16bfcb30e40ad9693f18158fb853eb2a95aded181ea9b430b3c6779bd982bc00128b9500b8d5f76db52af536b763641ea92198622f7c50a2d048bafe77eb48a7c0933949c9a6347c370f5dc195b98a7b116463b14de610bd97b17ec44eb6faa8bb4b0964cbd46669aef6042e7358c8064bf3b704225ecd3bee7b14c1df5d5663412e53ee39763f37cf6fd742fc9f9467f887ca30cde5e55844950fba8f1acac67ccd1c7c2e0ee892635d866c661cd39b0ce4548116c64ba5f782d746b865b46db7c836e7f56d80a5dea84a5aebed88a615bba53eeea8d8548449248a5ce08f72cb7cca899538e3e0045b205ce5a6f6704e58ec4a1b2bfb6c05c73d0fdf12f4c6bf66c4b3e8d03d2fddf46f4481da7a7e09a6fe02bbfa67fcc3ee42fd83522729b5aa312b838256fbdcfefb59acfaec6a47bfd4e22e8afe1a11c8b0ade265122fd26b8f2be5f0dee5d6246dc455364fd87192e61dd8e5cad0091b4831dbf43dec96525e403e5da429cafdb286e42f1fc277a8fa93235ed0f18cea7b081248213fefb62c4d12888f0ac01922df16d07a045698d095bad48220c2016ee1d7d166625831b38a1a892328ac6a99cb1b5721f58a9b1c53ecebcab7f9c3ad90410fbd3fa0d88800b0e81655899ccd1f01553b74f27c2665638c7aff851d34c1c51f61f58b6cd38308904dea7b9112884dab0ddca562f8303f6065ee2427658d21095a1067ff91b129b3d50eab495e1a6609a13d80bb0f3fe53a3c65f7680babab983266e0316a09399e7106dd79404560a2188d2e042253a4d6f53b689ff6180322375e7c6af912aab786a981d2a403bf4a7955c907ccbf7ba7f5fcf0c44fc499f4f5aa86997910acce81313525275fa33a0115307b4e79bc08c5574a015b7b6d91cac18f8baa7542e763d17e6eb1487970036003b10cc309f34d89bf86ccfb2c37763c695bf92fe4eae144c8dabc16b9347709ece169f7430625c514ee7583efbc324e69a5b40de1db144a397c9c616a0bc352ff2b8f7d931486516db5f20def7b7862601cf78035709b3571fe42c40c44a6aa14a064f2593bae4fb27785e7bcb636eedffc44d6d1f5286a3c6e82f1a8f247b44a4538031b8d0b1761f4b455d0e82185551c4fdc28cd98ce9728fc6294cb73c6f5953a3681aa6ff0b43619da448638e5ef34ba0e2443feecafbcba81e58b2388e802c65f16df0de242bd89a2a466bf840c47f9511743ae825c0ee5f42bba1c0e50aac450b1ca71903f53c0ba6c6e4245627cd74f8ba25dabc37e76db3bd84fac4a8cd639712fba4402e3da9c0cbf94f1152eed5964c22f27b56fca06a99920b0c0c4c06f19c2338cc7c319d9460c1504a3bce8d240f408077d5cde48a1492ae6eeb80f737cb39958111a9f82e7563f4f8217faa6f402f450b950dd8e3da10fd509064fca3c0d09578aa60ccb8363d82bcaab4c9a2a830e67cf5f5de923435d0bd206964f9a0f4932b7b786c89bbbf393b8237a50d0ba87ee4525290e8b0a7316f474784a57ed668ea43658e2da8e540f0741de27034243c63a624d2708bab4681dfd850f9dab67f2cb360eae6caf44077bc1e5bf8a7f21d14436365b39cbf0cb202439e247c85cf7f7198fb266e06b85f65b4b95e2081e928302b416d224d44e1806844d8d6cca3e6e3148e419c05ded4265ec4519916def238861fc184efbf9218e88a1f8eb483d3bc32ad218865f82fccc25a566f251279cf766c2575d2aa9894a7a937ebea98f2eddf33621014f50414342410a47be9798906c4890b597ac2b9140e8c06857b21c84a0a202fc0f2f4a90bdd02a0ed9b228fe42a5a9913a15f5d759b153fed9eee27f482dd6d568dee3363fc247abe13f13249f01b0c38139043f24053d36c6afa064900e3803aa7b4a9ecc8edd0315086d74acad64bb8146049badbcac644df6f58f8a777d96aaddcc1670df56c04c975f5b8062dbb2dcfcbe5c8853b6943054691cac1e769f76a16417acba32eaec44f43e32f7eb42d121815671ce5fd1d879d1bc0506e46309d49a630c0046dba1d3d244dec090f7ef5e79eaa9e1a1111dc83ee281166b192173ceaa97017a7b9471d2c4a50712e764111d205c6a46b1429560ab1ff59d9e5e041509d9072f71be29ebc4e5a902e08af826d5e71644902ecbdcd09025f1c3db499587f427d7da35047fbf0327c68b7ee1ca25ac68c72cefadd618f308a19e539c22249ef127dbfc0297d7f9a1ad8e5d28ff83be904af0e1fe877e450fdf824f43e8e0d0cecbb8448526b0bcb64174a08aa85344abeb8fbce50e3e7a010415e489226579c824154a030a7a456094a5662c126251654bdf9dfafaee24aef979e5efb555fa89df398cca8d3056cfcb15085689460f310153c24cee906af476b5c5aeb4552452954d54bd165039720b370b0b8d0b10e6115b8c56741f41ea6b1725a545c6529c29cd9efefc86380f4b98da4da31446640993466ea47089575748ea8370b07c64a6f2dfe7c9fda38195e2fe9d4864e313191bdd838033a2042c9e93222963b83be391fe1e49690b45701a821e76a1e5bbc74df9ba067dc0261cb50733643cede736b739218e68318a1397e5944c007dde27b54636d3a5786f65c584276ed71e2cbec26dbd445b0664215b53fc19a0d06c7dc36b03f17def0b8e3f1d1c9d9bf0190ae5038aae503b0395cb0c9df6be258bcd2e6bb36f562dccef7893b5d11197211238c00db94e643f0c700e54e60e932d74e29aa4873f173eb58051afd09c1d5e1cbf8e6122ae920ac4bc76d69d8f1ba88881043233bf911cf642a5ab229ee2be85aac37025a4f40de034ffedea52153bf81de3469f05b5fb42b2e52086c499053bdc741cec92dec73a3035686c8c889f3dfb0c282d3139afeeac58367c5ebb3dd62d3299654ea2bbd2a281231350bd92c33393c414c536a8690a0aab1b4daddeaf204373a42466c8183a6a9b1bebfc8cacbe0ebf925396a737c91bcc2c7cfe6e7eb0b1d393f4b5055566d85889aa8e7ecee00000000000000000000000000001225324201fd210500d84bbd469bc845aac0dad1c663ee457157540214c07ca71577dac1ae3fbbcd08126e425a0f9cb67a47ccc98d633368fa10fed77b8c224dbe936b326a448f7611765f61a50cb565d5a1f61100d6d6a5eda984b8c89f50ab0968ecbb6fdc2bcdd15d0a44d6d00899f3dbddf46e9092e62dab42484bfe31ae20ffa233a0c5075ccb0f1fd6389b297b8ccb0bee0c50f4e965c2234fed27679e40b812e5122d01e69dce9bc474b309650a2dfd63a607f39c45ca436de8adffd4ac9f5802d821fa1392bd2261d85de0597a0ce99bfaea51113469fe7582dda7b7b5835b2f95685188f2dd8fd40a78cea2ea72b071b2d358de2777853655a3aa89bd99c24a827f8acfae83222b4224f97ee49896d189d68dc68a8162dd8b0255bbb615f4f12f29df9c8df2b4117c9c4910a10fe3b21940589b69b8bb72499c7f6c4d9fbce617b72a88a42e976f09024d3d08b0a809bd2e32534c141a92297661a8ede26753103aa9feeb7b24d04d4169ca1c674b330961ff297f3a4223327187556f0d6f32966c2a65ca3f2b8ef09396086526e7538f75cd98e25dd12a935fedbfaa6957c76e703298f42d1661452a7c8a0fc4f49aee57cdcb7fd507e11f18921408be7810472e3489b11381fd9f1caa049c8cca5aaf940f674f8da4874ae2b07d5efb8cd586d783011dd3525659ffe60b7aadf98795e529f0961685f3fba45a9acd33dfed0d770b27f03e20be00d936b6ee125b85f2bac22a7329127a7dfdbb8a46c035f9ceb9a16451382a8b766f6f57f1e220dc76c7f5eeb2ccd372c456d5394b505ce49201e49709d41f4c94899b69d9fd5457c29b4cf6fb38068282559c5ed445dad1e745a827c2b1634f4576e560757dd84aad215d83a4a51b9df7c74739e977a38aa72d0eb620871943251ddaae4ee2d8ce6239d694ea5009e204602e507741dd303286b09e7d92f77723141406ba1b4ab9f1dc5820c1b6dc6b029147a834ad911bcd603fb8d7d74a5b3444967c3f2d24f7561c60e6eb801a89a23a726059a842823603f2efb51c1a219bc6ebda785b5f0f85b8f58b7a7a528c7601e6b41d1848730a8e4cd18e545b9b56b027f1778fd582d2b69f4cdf16470c61d38c42fdb80db205050bb1bace2a62a2e4be3c1fb7aeee40db6d885e9074e73b62008f2a39f1a271e532f1b55c39fa5ac302cd3c188eacd22e355938a27bd45ad25d625d989b3f23a19ff70b9c8ac7ce2e2b6552b3d5dc6fcdf7dd8568e81ee466538dfdb30aef15b2850fc195fdf5aca340b285c0926f6eeb1562567dcc95dcfc8dfd9a434bbae5520dbd0c5050603212d4d605d7a0f5310a91a020e6a56da9a6b2d5946d869e37e33e79870a3568d6fdd4c471bdcdb2287baf6eb09f9023e2830b8c5b77358ac3220a9ccb45c9c033931972bb072c62d6d3048812760c34413fa0e15c5f29b7a742714a3ecacc51d42e301412a00e2534c32165319506a0c90a2f6797a2d0c2a5d07735d54251cb5958fdebd4ae6fdbe73258b90d2c4db58f4475244999806d9246d7f14091c38f565fd8a793c623ae3e339be7ae7f776f691b4071bc7c270b0a4930a8c06907358c030f74e39cd15ec126dda3ddfb013c221ad6f421cd4b9b1d35e545b85abfb22def1eaf09c90e86eca87d645ad736585533a29130cf908de34565eaa7cb34c527b2753c9235ec2218de3bcbcecf577af10bd40fec8adb97b159bf1c849d9e0e6a14eac0a2713353776b5a57d4f010f69225abd7d56c3faf2e7dbbaa3e9a4f0f246922cf800707ceba5cf7927cebb7151d02ae5c7003f753b07243d61f46e43dc10ebe01e5614f88c66882e9dd3b26e62b07b4d550e0698d667ee083196f000000",
  "txid": "e5d2990d3c296947340a2d0c06fbb8b8454b192201bbdb7feab543188498e37b",
  "hash": "62062107a236418551bd368cc166592a7ea6a52d107b35fa096de3e0b5624ba3",
  "size": 5085,
  "vsize": 2278,
  "version": 1,
  "locktime": 111,
  "vin": [
    {
      "txid": "662cb63c7af9b161faf60748ed96b047757427e11b3a3c9706d95fba63dc4882",
      "vout": 1,
      "scriptSig": {
        "asm": "",
        "hex": ""
      },
      "txinwitness": [
        "7b5c031882520b14a17d5f4e9db60f075d9a9b10ce00396025168ac25849c05a17e45478a726073a60780f0344eb2a76cda19649e8b1b03870952460f2db2479c40b2459a39e9e8097d0e20d72aebb86e16ab53a8ed3f4b21b536665b8ae7976f42212e895bb302fcec20699e2a904177e705e64fc9e51ec9082ae5a9225a327d8776d4cb1253b229ea40335acc5666624b5486d732213eaf3ede7306338f289e8a2893583e514b8e4baf22c350a31c0e9ad958035d8c10b5d849a49fd353933abb83838aaf265244a7cf956e27e5bc54fcae05daa253a48ac43f0341381792f383d25e36b7d02e17865c62ec47353f37ba347c56bd382bc1d9ecbca0ba10ca0bcb3170f6fa8dfe5508af3d6b16bfcb30e40ad9693f18158fb853eb2a95aded181ea9b430b3c6779bd982bc00128b9500b8d5f76db52af536b763641ea92198622f7c50a2d048bafe77eb48a7c0933949c9a6347c370f5dc195b98a7b116463b14de610bd97b17ec44eb6faa8bb4b0964cbd46669aef6042e7358c8064bf3b704225ecd3bee7b14c1df5d5663412e53ee39763f37cf6fd742fc9f9467f887ca30cde5e55844950fba8f1acac67ccd1c7c2e0ee892635d866c661cd39b0ce4548116c64ba5f782d746b865b46db7c836e7f56d80a5dea84a5aebed88a615bba53eeea8d8548449248a5ce08f72cb7cca899538e3e0045b205ce5a6f6704e58ec4a1b2bfb6c05c73d0fdf12f4c6bf66c4b3e8d03d2fddf46f4481da7a7e09a6fe02bbfa67fcc3ee42fd83522729b5aa312b838256fbdcfefb59acfaec6a47bfd4e22e8afe1a11c8b0ade265122fd26b8f2be5f0dee5d6246dc455364fd87192e61dd8e5cad0091b4831dbf43dec96525e403e5da429cafdb286e42f1fc277a8fa93235ed0f18cea7b081248213fefb62c4d12888f0ac01922df16d07a045698d095bad48220c2016ee1d7d166625831b38a1a892328ac6a99cb1b5721f58a9b1c53ecebcab7f9c3ad90410fbd3fa0d88800b0e81655899ccd1f01553b74f27c2665638c7aff851d34c1c51f61f58b6cd38308904dea7b9112884dab0ddca562f8303f6065ee2427658d21095a1067ff91b129b3d50eab495e1a6609a13d80bb0f3fe53a3c65f7680babab983266e0316a09399e7106dd79404560a2188d2e042253a4d6f53b689ff6180322375e7c6af912aab786a981d2a403bf4a7955c907ccbf7ba7f5fcf0c44fc499f4f5aa86997910acce81313525275fa33a0115307b4e79bc08c5574a015b7b6d91cac18f8baa7542e763d17e6eb1487970036003b10cc309f34d89bf86ccfb2c37763c695bf92fe4eae144c8dabc16b9347709ece169f7430625c514ee7583efbc324e69a5b40de1db144a397c9c616a0bc352ff2b8f7d931486516db5f20def7b7862601cf78035709b3571fe42c40c44a6aa14a064f2593bae4fb27785e7bcb636eedffc44d6d1f5286a3c6e82f1a8f247b44a4538031b8d0b1761f4b455d0e82185551c4fdc28cd98ce9728fc6294cb73c6f5953a3681aa6ff0b43619da448638e5ef34ba0e2443feecafbcba81e58b2388e802c65f16df0de242bd89a2a466bf840c47f9511743ae825c0ee5f42bba1c0e50aac450b1ca71903f53c0ba6c6e4245627cd74f8ba25dabc37e76db3bd84fac4a8cd639712fba4402e3da9c0cbf94f1152eed5964c22f27b56fca06a99920b0c0c4c06f19c2338cc7c319d9460c1504a3bce8d240f408077d5cde48a1492ae6eeb80f737cb39958111a9f82e7563f4f8217faa6f402f450b950dd8e3da10fd509064fca3c0d09578aa60ccb8363d82bcaab4c9a2a830e67cf5f5de923435d0bd206964f9a0f4932b7b786c89bbbf393b8237a50d0ba87ee4525290e8b0a7316f474784a57ed668ea43658e2da8e540f0741de27034243c63a624d2708bab4681dfd850f9dab67f2cb360eae6caf44077bc1e5bf8a7f21d14436365b39cbf0cb202439e247c85cf7f7198fb266e06b85f65b4b95e2081e928302b416d224d44e1806844d8d6cca3e6e3148e419c05ded4265ec4519916def238861fc184efbf9218e88a1f8eb483d3bc32ad218865f82fccc25a566f251279cf766c2575d2aa9894a7a937ebea98f2eddf33621014f50414342410a47be9798906c4890b597ac2b9140e8c06857b21c84a0a202fc0f2f4a90bdd02a0ed9b228fe42a5a9913a15f5d759b153fed9eee27f482dd6d568dee3363fc247abe13f13249f01b0c38139043f24053d36c6afa064900e3803aa7b4a9ecc8edd0315086d74acad64bb8146049badbcac644df6f58f8a777d96aaddcc1670df56c04c975f5b8062dbb2dcfcbe5c8853b6943054691cac1e769f76a16417acba32eaec44f43e32f7eb42d121815671ce5fd1d879d1bc0506e46309d49a630c0046dba1d3d244dec090f7ef5e79eaa9e1a1111dc83ee281166b192173ceaa97017a7b9471d2c4a50712e764111d205c6a46b1429560ab1ff59d9e5e041509d9072f71be29ebc4e5a902e08af826d5e71644902ecbdcd09025f1c3db499587f427d7da35047fbf0327c68b7ee1ca25ac68c72cefadd618f308a19e539c22249ef127dbfc0297d7f9a1ad8e5d28ff83be904af0e1fe877e450fdf824f43e8e0d0cecbb8448526b0bcb64174a08aa85344abeb8fbce50e3e7a010415e489226579c824154a030a7a456094a5662c126251654bdf9dfafaee24aef979e5efb555fa89df398cca8d3056cfcb15085689460f310153c24cee906af476b5c5aeb4552452954d54bd165039720b370b0b8d0b10e6115b8c56741f41ea6b1725a545c6529c29cd9efefc86380f4b98da4da31446640993466ea47089575748ea8370b07c64a6f2dfe7c9fda38195e2fe9d4864e313191bdd838033a2042c9e93222963b83be391fe1e49690b45701a821e76a1e5bbc74df9ba067dc0261cb50733643cede736b739218e68318a1397e5944c007dde27b54636d3a5786f65c584276ed71e2cbec26dbd445b0664215b53fc19a0d06c7dc36b03f17def0b8e3f1d1c9d9bf0190ae5038aae503b0395cb0c9df6be258bcd2e6bb36f562dccef7893b5d11197211238c00db94e643f0c700e54e60e932d74e29aa4873f173eb58051afd09c1d5e1cbf8e6122ae920ac4bc76d69d8f1ba88881043233bf911cf642a5ab229ee2be85aac37025a4f40de034ffedea52153bf81de3469f05b5fb42b2e52086c499053bdc741cec92dec73a3035686c8c889f3dfb0c282d3139afeeac58367c5ebb3dd62d3299654ea2bbd2a281231350bd92c33393c414c536a8690a0aab1b4daddeaf204373a42466c8183a6a9b1bebfc8cacbe0ebf925396a737c91bcc2c7cfe6e7eb0b1d393f4b5055566d85889aa8e7ecee00000000000000000000000000001225324201",
        "00d84bbd469bc845aac0dad1c663ee457157540214c07ca71577dac1ae3fbbcd08126e425a0f9cb67a47ccc98d633368fa10fed77b8c224dbe936b326a448f7611765f61a50cb565d5a1f61100d6d6a5eda984b8c89f50ab0968ecbb6fdc2bcdd15d0a44d6d00899f3dbddf46e9092e62dab42484bfe31ae20ffa233a0c5075ccb0f1fd6389b297b8ccb0bee0c50f4e965c2234fed27679e40b812e5122d01e69dce9bc474b309650a2dfd63a607f39c45ca436de8adffd4ac9f5802d821fa1392bd2261d85de0597a0ce99bfaea51113469fe7582dda7b7b5835b2f95685188f2dd8fd40a78cea2ea72b071b2d358de2777853655a3aa89bd99c24a827f8acfae83222b4224f97ee49896d189d68dc68a8162dd8b0255bbb615f4f12f29df9c8df2b4117c9c4910a10fe3b21940589b69b8bb72499c7f6c4d9fbce617b72a88a42e976f09024d3d08b0a809bd2e32534c141a92297661a8ede26753103aa9feeb7b24d04d4169ca1c674b330961ff297f3a4223327187556f0d6f32966c2a65ca3f2b8ef09396086526e7538f75cd98e25dd12a935fedbfaa6957c76e703298f42d1661452a7c8a0fc4f49aee57cdcb7fd507e11f18921408be7810472e3489b11381fd9f1caa049c8cca5aaf940f674f8da4874ae2b07d5efb8cd586d783011dd3525659ffe60b7aadf98795e529f0961685f3fba45a9acd33dfed0d770b27f03e20be00d936b6ee125b85f2bac22a7329127a7dfdbb8a46c035f9ceb9a16451382a8b766f6f57f1e220dc76c7f5eeb2ccd372c456d5394b505ce49201e49709d41f4c94899b69d9fd5457c29b4cf6fb38068282559c5ed445dad1e745a827c2b1634f4576e560757dd84aad215d83a4a51b9df7c74739e977a38aa72d0eb620871943251ddaae4ee2d8ce6239d694ea5009e204602e507741dd303286b09e7d92f77723141406ba1b4ab9f1dc5820c1b6dc6b029147a834ad911bcd603fb8d7d74a5b3444967c3f2d24f7561c60e6eb801a89a23a726059a842823603f2efb51c1a219bc6ebda785b5f0f85b8f58b7a7a528c7601e6b41d1848730a8e4cd18e545b9b56b027f1778fd582d2b69f4cdf16470c61d38c42fdb80db205050bb1bace2a62a2e4be3c1fb7aeee40db6d885e9074e73b62008f2a39f1a271e532f1b55c39fa5ac302cd3c188eacd22e355938a27bd45ad25d625d989b3f23a19ff70b9c8ac7ce2e2b6552b3d5dc6fcdf7dd8568e81ee466538dfdb30aef15b2850fc195fdf5aca340b285c0926f6eeb1562567dcc95dcfc8dfd9a434bbae5520dbd0c5050603212d4d605d7a0f5310a91a020e6a56da9a6b2d5946d869e37e33e79870a3568d6fdd4c471bdcdb2287baf6eb09f9023e2830b8c5b77358ac3220a9ccb45c9c033931972bb072c62d6d3048812760c34413fa0e15c5f29b7a742714a3ecacc51d42e301412a00e2534c32165319506a0c90a2f6797a2d0c2a5d07735d54251cb5958fdebd4ae6fdbe73258b90d2c4db58f4475244999806d9246d7f14091c38f565fd8a793c623ae3e339be7ae7f776f691b4071bc7c270b0a4930a8c06907358c030f74e39cd15ec126dda3ddfb013c221ad6f421cd4b9b1d35e545b85abfb22def1eaf09c90e86eca87d645ad736585533a29130cf908de34565eaa7cb34c527b2753c9235ec2218de3bcbcecf577af10bd40fec8adb97b159bf1c849d9e0e6a14eac0a2713353776b5a57d4f010f69225abd7d56c3faf2e7dbbaa3e9a4f0f246922cf800707ceba5cf7927cebb7151d02ae5c7003f753b07243d61f46e43dc10ebe01e5614f88c66882e9dd3b26e62b07b4d550e0698d667ee08319"
      ],
      "sequence": 4294967294
    }
  ],
  "vout": [
    {
      "value": 1.0,
      "n": 0,
      "scriptPubKey": {
        "asm": "OP_RETURN dbf87c2b7639579229e3bd425a6f0ad561b18e2aa3cd50834250f9d0d53ddc7d 4ba66115293ac30832bfaa746c1e054c90becef586d4ef991ed530a2d718edc66b864135091ae328129f8a544c3e256cb09eeed5a6f4cfb93ef51082f738cde60be62155697a834872ffea342c5e450cd0fe8eb5c694afd95e9570e29758ad862bc60175495aa36852dfca140c7e652cf0deae95e6b48ff97eb550c2b7788da6cb26e195a9ba4388b23f2af4ec9e85cc103e4e7506546f199e55b02257986d46eb06c1b5899a63a8921f0ad4ccbea5ec301e6e5526744f39be75900277b84d668b66a1d5e9fa03c8f27f6ab4acdec58c507e0e3546142f59de15f06217d82d06ab4681f5c9da23e8d25f4a948cfee5ac705e2e1566340f79fe35d04237f80d264ba66115293ac30832bfaa746c1e054c90becef586d4ef991ed530a2d718edc66b864135091ae328129f8a544c3e256cb09eeed5a6f4cfb93ef51082f738cde60be62155697a834872ffea342c5e450cd0fe8eb5c694afd95e9570e29758ad862bc60175495aa36852dfca140c7e652cf0deae95e6b48ff97eb550c2b7788da6cb26e195a9ba4388b23f2af4ec9e85cc103e4e7506546f199e55b02257986d46eb06c1b5899a63a8921f0ad4ccbea5ec301e6e5526744f39be75900277b84d668b66a1d5e9fa03c8f27f6ab4acdec58c507e0e3546142f59de15f06217d82d06ab4681f5c9da23e8d25f4a948cfee5ac705e2e1566340f79fe35d04237f80d264ba66115293ac30832bfaa746c1e054c90becef586d4ef991ed530a2d718edc66b864135091ae328129f8a544c3e256cb09eeed5a6f4cfb93ef51082f738cde60be62155697a834872ffea342c5e450cd0fe8eb5c694afd95e9570e29758ad862bc60175495aa36852dfca140c7e652cf0deae95e6b48ff97eb550c2b7788da6cb26e195a9ba4388b23f2af4ec9e85cc103e4e7506546f199e55b02257986d46eb06c1b5899a63a8921f0ad4ccbea5ec301e6e5526744f39be75900277b84d668b66a1d5e9fa03c8f27f6ab4acdec58c507e0e3546142f59de15f06217d82d06ab4681f5c9da23e8d25f4a948cfee5ac705e2e1566340f79fe35d04237f80d264ba66115293ac30832bfaa746c1e054c90becef586d4ef991ed530a2d718edc66b864135091ae328129f8a544c3e256cb09eeed5a6f4cfb93ef51082f738cde60be62155697a834872ffea342c5e450cd0fe8eb5c694afd95e9570e29758ad862bc60175495aa36852dfca140c7e652cf0deae95e6b48ff97eb550c2b7788da6cb26e195a9ba4388b23f2af4ec9e85cc103e4e7506546f199e55b02257986d46eb06c1b5899a63a8921f0ad4ccbea5ec301e6e5526744f39be75900277b84d668b66a1d5e9fa03c8f27f6ab4acdec58c507e0e3546142f59de15f06217d82d06ab4681f5c9da23e8d25f4a948cfee5ac705e2e1566340f79fe35d04237f80d264ba66115293ac30832bfaa746c1e054c90becef586d4ef991ed530a2d718edc66b864135091ae328129f8a544c3e256cb09eeed5a6f4cfb93ef51082f738cde60be62155697a834872ffea342c5e450cd0fe8eb5c694afd95e9570e29758ad862bc60175495aa36852dfca140c7e652cf0deae95e6b48ff97eb550c2b7788da6cb26e195a9ba4388b23f2af4ec9e85cc3b4e802f32bedc5fc949087fa77d03d351d7ee69e92f6c1ce3c9e0489569ac21",
        "hex": "6a20dbf87c2b7639579229e3bd425a6f0ad561b18e2aa3cd50834250f9d0d53ddc7d4db0044ba66115293ac30832bfaa746c1e054c90becef586d4ef991ed530a2d718edc66b864135091ae328129f8a544c3e256cb09eeed5a6f4cfb93ef51082f738cde60be62155697a834872ffea342c5e450cd0fe8eb5c694afd95e9570e29758ad862bc60175495aa36852dfca140c7e652cf0deae95e6b48ff97eb550c2b7788da6cb26e195a9ba4388b23f2af4ec9e85cc103e4e7506546f199e55b02257986d46eb06c1b5899a63a8921f0ad4ccbea5ec301e6e5526744f39be75900277b84d668b66a1d5e9fa03c8f27f6ab4acdec58c507e0e3546142f59de15f06217d82d06ab4681f5c9da23e8d25f4a948cfee5ac705e2e1566340f79fe35d04237f80d264ba66115293ac30832bfaa746c1e054c90becef586d4ef991ed530a2d718edc66b864135091ae328129f8a544c3e256cb09eeed5a6f4cfb93ef51082f738cde60be62155697a834872ffea342c5e450cd0fe8eb5c694afd95e9570e29758ad862bc60175495aa36852dfca140c7e652cf0deae95e6b48ff97eb550c2b7788da6cb26e195a9ba4388b23f2af4ec9e85cc103e4e7506546f199e55b02257986d46eb06c1b5899a63a8921f0ad4ccbea5ec301e6e5526744f39be75900277b84d668b66a1d5e9fa03c8f27f6ab4acdec58c507e0e3546142f59de15f06217d82d06ab4681f5c9da23e8d25f4a948cfee5ac705e2e1566340f79fe35d04237f80d264ba66115293ac30832bfaa746c1e054c90becef586d4ef991ed530a2d718edc66b864135091ae328129f8a544c3e256cb09eeed5a6f4cfb93ef51082f738cde60be62155697a834872ffea342c5e450cd0fe8eb5c694afd95e9570e29758ad862bc60175495aa36852dfca140c7e652cf0deae95e6b48ff97eb550c2b7788da6cb26e195a9ba4388b23f2af4ec9e85cc103e4e7506546f199e55b02257986d46eb06c1b5899a63a8921f0ad4ccbea5ec301e6e5526744f39be75900277b84d668b66a1d5e9fa03c8f27f6ab4acdec58c507e0e3546142f59de15f06217d82d06ab4681f5c9da23e8d25f4a948cfee5ac705e2e1566340f79fe35d04237f80d264ba66115293ac30832bfaa746c1e054c90becef586d4ef991ed530a2d718edc66b864135091ae328129f8a544c3e256cb09eeed5a6f4cfb93ef51082f738cde60be62155697a834872ffea342c5e450cd0fe8eb5c694afd95e9570e29758ad862bc60175495aa36852dfca140c7e652cf0deae95e6b48ff97eb550c2b7788da6cb26e195a9ba4388b23f2af4ec9e85cc103e4e7506546f199e55b02257986d46eb06c1b5899a63a8921f0ad4ccbea5ec301e6e5526744f39be75900277b84d668b66a1d5e9fa03c8f27f6ab4acdec58c507e0e3546142f59de15f06217d82d06ab4681f5c9da23e8d25f4a948cfee5ac705e2e1566340f79fe35d04237f80d264ba66115293ac30832bfaa746c1e054c90becef586d4ef991ed530a2d718edc66b864135091ae328129f8a544c3e256cb09eeed5a6f4cfb93ef51082f738cde60be62155697a834872ffea342c5e450cd0fe8eb5c694afd95e9570e29758ad862bc60175495aa36852dfca140c7e652cf0deae95e6b48ff97eb550c2b7788da6cb26e195a9ba4388b23f2af4ec9e85cc3b4e802f32bedc5fc949087fa77d03d351d7ee69e92f6c1ce3c9e0489569ac21",
        "type": "nulldata"
      }
    },
    {
      "value": 499986.7803,
      "n": 1,
      "scriptPubKey": {
        "asm": "1 b9a08def22f9f4270dc919958a9a6331a45a60dde1f4b3d7864d0e1fba106f5a",
        "hex": "5120b9a08def22f9f4270dc919958a9a6331a45a60dde1f4b3d7864d0e1fba106f5a",
        "reqSigs": 1,
        "type": "witness_v1_scripthash",
        "addresses": [
          "3QJmnh"
        ]
      }
    }
  ],
  "blockhash": "a1887b0a0b2991e806ccea2240d48d15dc99191e60c31f7623b06398d7a984df",
  "confirmations": 1,
  "time": 1764178092,
  "blocktime": 1764178092
}