{
  "hex": "010000000001017f628cf2fd53b3f41c2366afbd92965ca4007056b9b90980fe50f64ff6c0c38b0000000000feffffff0200e1f50500000000fdd5046a20a7cafa1fcb70e5fcab8a8e68aad435b63e61998891d0ad9ea5808942bc1c714d4db004139bd39c3897326d15322e593320cdc0439c564c1dac759f549e80b22f00a83633bbf3bc18b7124d35120e791300ede063bc766c3d8c55bf74bea0920f20881653db93dc78d7722d55726e1973608d8003dc160c5dec35df14dec0f26f40e87673fbb3fc58f7520d75524e395340ada023fc362c7dcc15ff34fee0d24f60c856931b531cb817b2ed95b2aed9b3a04d40c31cd6cc9d2cf51fd41e0032af8028b6b33b733c983792cdb5928ef993806d60e33cf6ecbd0cd53ff43e20128fa00896d35b135cf857f2add5f2ee99f3e00d00835c968cdd6cb55f945e4072efc068f6f37b337cd877d28df5d2ceb9d3c02d20a37cb6acfd4c957fb47e6052cfe048d6139bd39c3897326d15322e593320cdc0439c564c1dac759f549e80b22f00a83633bbf3bc18b7124d35120e791300ede063bc766c3d8c55bf74bea0920f20881653db93dc78d7722d55726e1973608d8003dc160c5dec35df14dec0f26f40e87673fbb3fc58f7520d75524e395340ada023fc362c7dcc15ff34fee0d24f60c856931b531cb817b2ed95b2aed9b3a04d40c31cd6cc9d2cf51fd41e0032af8028b6b33b733c983792cdb5928ef993806d60e33cf6ecbd0cd53ff43e20128fa00896d35b135cf857f2add5f2ee99f3e00d00835c968cdd6cb55f945e4072efc068f6f37b337cd877d28df5d2ceb9d3c02d20a37cb6acfd4c957fb47e6052cfe048d6139bd39c3897326d15322e593320cdc0439c564c1dac759f549e80b22f00a83633bbf3bc18b7124d35120e791300ede063bc766c3d8c55bf74bea0920f20881653db93dc78d7722d55726e1973608d8003dc160c5dec35df14dec0f26f40e87673fbb3fc58f7520d75524e395340ada023fc362c7dcc15ff34fee0d24f60c856931b531cb817b2ed95b2aed9b3a04d40c31cd6cc9d2cf51fd41e0032af8028b6b33b733c983792cdb5928ef993806d60e33cf6ecbd0cd53ff43e20128fa00896d35b135cf857f2add5f2ee99f3e00d00835c968cdd6cb55f945e4072efc068f6f37b337cd877d28df5d2ceb9d3c02d20a37cb6acfd4c957fb47e6052cfe048d6139bd39c3897326d15322e593320cdc0439c564c1dac759f549e80b22f00a83633bbf3bc18b7124d35120e791300ede063bc766c3d8c55bf74bea0920f20881653db93dc78d7722d55726e1973608d8003dc160c5dec35df14dec0f26f40e87673fbb3fc58f7520d75524e395340ada023fc362c7dcc15ff34fee0d24f60c856931b531cb817b2ed95b2aed9b3a04d40c31cd6cc9d2cf51fd41e0032af8028b6b33b733c983792cdb5928ef993806d60e33cf6ecbd0cd53ff43e20128fa00896d35b135cf857f2add5f2ee99f3e00d00835c968cdd6cb55f945e4072efc068f6f37b337cd877d28df5d2ceb9d3c02d20a37cb6acfd4c957fb47e6052cfe048d6139bd39c3897326d15322e593320cdc0439c564c1dac759f549e80b22f00a83633bbf3bc18b7124d35120e791300ede063bc766c3d8c55bf74bea0920f20881653db93dc78d7722d55726e1973608d8003dc160c5dec35df14dec0f26f40e87673fbb3fc58f7520d75524e395340ada023fc362c7dcc15ff34fee0d24f60c856931b531cb817b2ed95b2aed9b3a04d40def71cdf69cda30e029acba796913857240d3a821b73cc9da6ce62b3b390c4634021813f792d00002251200357fb085ff2c2993a769fb66e8dca73ff1802015559e8fb16942a7b03836ed502fd750987321f0cfba0065b27d7d8954908bfaa188c368070241d62e01591eaf4477f746156cd6bc905c880a828651e3437d1bef7f7543235f6ae1be47a0e2d12e8f00443e2bdd6181f8b548cbeabb93f31cb61045e720efb2aae470e552a7339678cafee1dd7ab21aed126842544cbbac723ba83f9c645df4bc28e896728dbafa744b9cc364ae087b8a5a0de8ff379b0b530f0fec3a4c1f6e08a8725e9056650fd9d2cab4f202d3ceb571a1d25f88d71fcb95862eac0017a6bc33db3a9ab018114465ff2a378d7c4f5596722561cd258489ec5d2f6441bb5e35f3a0ed17cc52ae7f959afe742a388a8aa590860d9d7dd5837ad1686447eedae0374bf19b9689a45f12412fc488ff4f427551bc7937a541d334c35efe48438831aba77bdf9aed1b87d7c27a9f91dfd38938514558804d21f89be70b138aebf3f8ed64c85f1928e50c3cd720028ac7ffcd58828c4298f3fefe75e364b227c56a7d3416112545fffcf58ccbd966e94ae21d5bea89c2717c10c7b37db405a1cc834202e7efc0641b4877c2ee19426b0e0c4004d63ec94cd583a3475b43b3fc30cf6572b1733dbe903609a5e8e8babb8072949d041205c791b9e2d773235df68b9af3ff086b41709ff9963cfe68654be9a6ad0d69766ccaf90b39530c7321dcac2f9cba011158dca957e68a4cf9f81f39614adb0111cf29102287b676526c527ec9c4d822f2bf5e3c992f4f058c57e906547fbffb989689f8245dad518a911b444e105f1e81db4f0f30075c9be435852c4846adfab0b0bd33a9f2bb6d6f8f1ea61efde1557162d4e46ccc962e1b1a9afaa5175b6f73548b21b245825de0b8ff4ac65dbf7d2bb65a29cdf93ff0bb5b036388e05506af0ca05b1c73696b2b9d94f8e8ccb9deabb75f51e8c57884cd5046999e533dd622a7e74e56b78e26b773c39a47f10d74910b05e1ec9780e44bf38aeeb5adb72e65b01658591957b917d96580e63d995aa0e35252d70a36d5039f5f7b8554c051b2f40956e92e2891977248346c7312b281b24e98a4e542df246048c9dbf54e7f70197237d6ee151dee23b767cf2fa95cd5c7af48abe9ddd49059a8eb315861f0e8a2da208b95845e5a0a7f1b82e09fd1a592afd44073530d04de5f68f076abf04ba60dc8e5dec9a73e343446234cd11bb24b966109b5620937c13b878f5cb906ac2dd7a0aadcc9a7db987a7a94b2c1439194c53b69460b4b843391562ba01beedbc8ed41bb132989fa3b817f2257599fa852621b22ccc61f597721483bdf02809373b414bf6fb36a3ab9035a167af105a94606b9b06819e0b4b9b82e0dc68718a4c19d2d7738b2083aff0df5ace11aa87978f0c8f1fdef9d8d8d92128b8f7757bb5e1327d68f1fc04034c1623af416d7f0fbd7bb6916701ada151a2250fdcfb14793d7eb64f6c208e72a4da3ef6606fc1db5dad47fe28caa601b123bd8ffc6284fe4ae4f4c9e40f8249414d67057555e30af87e35f5d56fa8c021dce53171ededfba85fd6e49aa47ddf90031e165ad130f979e59fcb30bfc75bcbf50fc76e6ea0cf11e70caa03e3d05aa3b20ff2036a9ca52b676470df27f3f659b6232247116539d05af5a794eba3848afac7443efe816d84e66b062924e7510184cb709d741c40087a233e9a784bb29fcee01dd300f611accd6da2160de794319e42e9e3dd281287778c2c18745fe18268ae361057da505a94bd5db8e4f77e8d498d37eb72344ad087503feab4c50a82491bc290add97360562e9b15030cd8dad78097effafc58085eae1451180012429c5c899f9640863f0a2833537bca8f0b8709ba095ab49aac1264792bc06361f3e8a79a5590566f80a83ddd17a099189f2fa773d7265aeb71e1861cecd1503902d72a706c490ce65942b39103987b77f6d36aa1054bb178a0cc2c8a44077f1058cc2bf773a63fe87a6126d59db5d002e499a472845eab6a6671a274697829cd964ecd3e7bc6dc26f508ef9c7222619c2587e579b52c1215f6cc9dc2dac2d7fd96506bba02024c7919fbdee76a47b3840816db892ebdbcb32b2b4584deec55a41a32f42b30847614ca59d809fc34547565355221da2880bbddca14860d8da92447d0707154d78cc29a4af00f2180e8d6de400edb5ad22f5aca8b99263ca0aaaa7911c40836c1bcbe0584c04e09c38fcc25ca51906fdb70bb49698521708689594b00e583008a80c5276f0661e183768c6cdcac3b164530f9678d83d1c65d1b125675bc100f6001890db976ef62bc3a1405e751180b9cc0f468a6252f162dca6a0dce054dc4673708b458f8aa90cb04c4638280fe2dc7fc88f73206617060bc186e1f64f0c5cdd29c642ba41c3a6f51749e3fd5c6668b968f3e8f5d639290b966ea7e4cb44fdb3b48b8ba51c92829727dff3f794bb8c09229643097d6c71e6c27690ca806e9dba111c140628915a8d046e9e9f1f9559bf553ea9443af14527d1e9712b5ac4cc281bcec60c872bb2e7d1e452dff41fa9898fd94a1350dcb529c008eda2273e10d7248169e24221404c0f5f27fdb8100c0b1c66604a9e00eded3601f674fb49649c576f61077c12c0b9fb86d413e15adb97cea43b64ee79caf0f3a92c098ee8337c8d0f11b4bc8aa95f38d499d5f8604f9d6c258b5407b53b6e6e24f2ef38e4b55c2af072aef494b9ec4c3c9ff82317cf73b42b322bed0056c42229b6a470c9de0e04f70d1ec5d8a43fe781140ecd8ca8576c63acce2d86f132ca78bf29f197305868e52a5abdb25f7b6d5e55e310ec4a434a53c69c6910c651c7376ba314772ad9e7920d092c40aac779d6859582100a8c1e2e55226dd0d4af0b1ee3c9556deb59b1a14bbbe606201ea3b50954ade978c617155cb4b5f6f2cf76ba257fa93ebb6ce0d854bdc3819119259a8602d2b8670e8e5f06010353d84906c520329d2a094c6b963ab27c406ab760961060312ff6f49239a46c0b42cf151445e8fa886646a5954aae189fe9a4632d048bed4e995a8bf14dbedb7c4bd706a5c9b556ffe932b1c91e1bb14bf6a9478843331641fcfb47c7b066cd184c36040fee50c01f8f16d4b3ec853a4ba3053c2655ae8932f01543264b8356bcfc34df168a4b33b407a5470da89484e147304756009f7d71dd53e60142c65ad5b8554a521e971fbe9ceab028f267ad98f8b5961f3c4323ca972e421a75665b24c18fef8adc4b875fc828484287a5179f083c6b2cefc1a58e19c108ff3fdb19462439f86eccdea764fc37d805e1607d87e207d56760a0abeb3c7cbe80a7862c02479aa62fac33882493135ab40e9d98115c4300810111b41585c8a8ea3babdcce0f00c1538484d516373747c90a3b2cacde1edf312474c607880878cb1b5d0d5e7f91d1e23293b4b50515b606d7e839faac2c7cdced2d4e900000000000000000000000f212f4501fd21050046f8e684ad50a8140b89f2202a964f290144cdf9991819068cb8e540a35cc661279b8525ff241e5c53e9b07f9430a619e23fba4f026fbd9aa59e64b248dafd6da289cb484df33136f38c19822cd0fb9fee045c8d88b0855eaa7aa0901fa8705b5edeb9bddb2b41b409c6ba1d6a9ddf767375d49507f93b7f4af75afa6c3c259060e89a6be65dce87195fa169aaf62624c233e60332c9adde2d8ffddb721b2b300b45beb7cbc7c0082c873f019f45100a14243574e109cfc22bb626e3f4929e5a1cd0b279a9934c8396d512f380943753d5ff2b97cefa633e9c50e41bc10bd195832e7e34f23b46999a43e3e0719f714edd8cf38a50035aac9286ff2edf6f57b881754bda65296ad4b9fffae0c9e6cdc5d7d69d4a3c43751b643b351498f17ba52b39ea6fa4bd496efea729f847272043386422b306f7a39552bd04d6339c68ec7276e04985f8d5a8c41c72c65ffa7b14d8d960213ba2fc505cff6cd2f655c89128e67022ca1f626d5d0e56ace7c081bbdce57c4f849c0bf7f4ab3e018e26fe44521106e1fac5dbac9ae322816ac18827c19121cfa2f3d68a3a731d06c69a668887d452c03633888aa0e4083e7607453adcb05b7d6da1f5b8705a54bb11ebad896d056ad2a461242afd6776cddabcd337b9c78d0f2a0f818aa316db26b5d45566f902a6bc212ae6fa55a146c47ba5f4eb58f954a6a24734dd996710f09049dd4e2a1ef058897a866e11c69afb314e79bb0b244f1632c60ee4ec8505b49f31f17350ea7f4136229e5c36b4ab0694c17b14373cc7f08d73c14ba1ac19bcde64bb89d59d983ca06530aba9101899288234600164c7d20f0ca7f517edec15468e6454449f7e7a3666bb624d6ee9519abcc82457803fb6645cdb60c7fab69c082753f2fe8e10a3b1583df3b27729818618789bbe8e29112b4cb482383b910c9b77615e7a2cbd219dadc5015b805ecb936683234573e644db0c966b940a67322271e714cbb7f7fa179b92f3e4e256be2533c319f63c9c83448d9106cdfae9c6ab2ada1d1eccd6e029876623db991183547e7bd551ded531815ca1912568bbe970f48267e287f031de032326858280213737287d8acabe5041538dfcc748e6a40c9ed6517285cb86f613e8bd8193cdc42b02c0d06e916c78df472190d2310be60a227ff18d2fad21092a4c808e803a68b5931d6ae21a7601999a37c9e29654d9554e5c7d888e3f2a22ce053b14fa728cee441cc818235e7f079b9dfb341ad0824f0ab4797b76895c422ec0576d89afb81dba1d7e941bf73832a64ecbb9d2a3649d4808b3212ee5ca72f07537314268f911d792b7d0341c0fb4dc74ca7c18913da7ca1ce4cdee824b9214a5444a4d73c37daabc2d4da697ddcaae53c13fb59e022cda411b1be31c5961845ae5e6feb28b6b97c4a18e692f8d54e73d432c11a0b8ba0df35826b433026c944a7fd3dce7ce685dfe9400f3494a6723661f47aedb571a525a74518f5a38212a3bf5650f0b83f7928696341268e29cff1a47946de8ecdadb9372969398890bb2dac74b19d88f8d054420edeae295772e9056dce9d526d4ba7ca3cde69d8b08a4e1e4032f38db80e4ab820a4c19749983d7c53e9ba76dc72ee35452dd5faf785505a9db0ae8d61da97abf8fe4a7d6575542af2b99efa75c007a3f219a86d01924b65946ad63967c4615e4a93c0b06313404cb653f2636c4214d1e53108c7691eece56f7068a075fa0ce30203d8e1d177726f9d399bf970c8669f95fb06ef54f7baea6aca396ba920531126df63a9054661cea14de712233c16d27ff3b34889a45e7ab50a8693021426fb42150b80967acdfdf98b363bef570b17e73000000",
  "txid": "fa30061c6684eaebcf2ee98928b6b361fcdf37d4b0e174c31049d1f67824e86f",
  "hash": "0a2fb64cd5eb3b47024ad5e29d1371c3ba278fdb4172c74a6f6ef3842b9d30a8",
  "size": 5085,
  "vsize": 2278,
  "version": 1,
  "locktime": 115,
  "vin": [
    {
      "txid": "8bc3c0f64ff650fe8009b9b9567000a45c9692bdaf66231cf4b353fdf28c627f",
      "vout": 0,
      "scriptSig": {
        "asm": "",
        "hex": ""
      },
      "txinwitness": [
        "87321f0cfba0065b27d7d8954908bfaa188c368070241d62e01591eaf4477f746156cd6bc905c880a828651e3437d1bef7f7543235f6ae1be47a0e2d12e8f00443e2bdd6181f8b548cbeabb93f31cb61045e720efb2aae470e552a7339678cafee1dd7ab21aed126842544cbbac723ba83f9c645df4bc28e896728dbafa744b9cc364ae087b8a5a0de8ff379b0b530f0fec3a4c1f6e08a8725e9056650fd9d2cab4f202d3ceb571a1d25f88d71fcb95862eac0017a6bc33db3a9ab018114465ff2a378d7c4f5596722561cd258489ec5d2f6441bb5e35f3a0ed17cc52ae7f959afe742a388a8aa590860d9d7dd5837ad1686447eedae0374bf19b9689a45f12412fc488ff4f427551bc7937a541d334c35efe48438831aba77bdf9aed1b87d7c27a9f91dfd38938514558804d21f89be70b138aebf3f8ed64c85f1928e50c3cd720028ac7ffcd58828c4298f3fefe75e364b227c56a7d3416112545fffcf58ccbd966e94ae21d5bea89c2717c10c7b37db405a1cc834202e7efc0641b4877c2ee19426b0e0c4004d63ec94cd583a3475b43b3fc30cf6572b1733dbe903609a5e8e8babb8072949d041205c791b9e2d773235df68b9af3ff086b41709ff9963cfe68654be9a6ad0d69766ccaf90b39530c7321dcac2f9cba011158dca957e68a4cf9f81f39614adb0111cf29102287b676526c527ec9c4d822f2bf5e3c992f4f058c57e906547fbffb989689f8245dad518a911b444e105f1e81db4f0f30075c9be435852c4846adfab0b0bd33a9f2bb6d6f8f1ea61efde1557162d4e46ccc962e1b1a9afaa5175b6f73548b21b245825de0b8ff4ac65dbf7d2bb65a29cdf93ff0bb5b036388e05506af0ca05b1c73696b2b9d94f8e8ccb9deabb75f51e8c57884cd5046999e533dd622a7e74e56b78e26b773c39a47f10d74910b05e1ec9780e44bf38aeeb5adb72e65b01658591957b917d96580e63d995aa0e35252d70a36d5039f5f7b8554c051b2f40956e92e2891977248346c7312b281b24e98a4e542df246048c9dbf54e7f70197237d6ee151dee23b767cf2fa95cd5c7af48abe9ddd49059a8eb315861f0e8a2da208b95845e5a0a7f1b82e09fd1a592afd44073530d04de5f68f076abf04ba60dc8e5dec9a73e343446234cd11bb24b966109b5620937c13b878f5cb906ac2dd7a0aadcc9a7db987a7a94b2c1439194c53b69460b4b843391562ba01beedbc8ed41bb132989fa3b817f2257599fa852621b22ccc61f597721483bdf02809373b414bf6fb36a3ab9035a167af105a94606b9b06819e0b4b9b82e0dc68718a4c19d2d7738b2083aff0df5ace11aa87978f0c8f1fdef9d8d8d92128b8f7757bb5e1327d68f1fc04034c1623af416d7f0fbd7bb6916701ada151a2250fdcfb14793d7eb64f6c208e72a4da3ef6606fc1db5dad47fe28caa601b123bd8ffc6284fe4ae4f4c9e40f8249414d67057555e30af87e35f5d56fa8c021dce53171ededfba85fd6e49aa47ddf90031e165ad130f979e59fcb30bfc75bcbf50fc76e6ea0cf11e70caa03e3d05aa3b20ff2036a9ca52b676470df27f3f659b6232247116539d05af5a794eba3848afac7443efe816d84e66b062924e7510184cb709d741c40087a233e9a784bb29fcee01dd300f611accd6da2160de794319e42e9e3dd281287778c2c18745fe18268ae361057da505a94bd5db8e4f77e8d498d37eb72344ad087503feab4c50a82491bc290add97360562e9b15030cd8dad78097effafc58085eae1451180012429c5c899f9640863f0a2833537bca8f0b8709ba095ab49aac1264792bc06361f3e8a79a5590566f80a83ddd17a099189f2fa773d7265aeb71e1861cecd1503902d72a706c490ce65942b39103987b77f6d36aa1054bb178a0cc2c8a44077f1058cc2bf773a63fe87a6126d59db5d002e499a472845eab6a6671a274697829cd964ecd3e7bc6dc26f508ef9c7222619c2587e579b52c1215f6cc9dc2dac2d7fd96506bba02024c7919fbdee76a47b3840816db892ebdbcb32b2b4584deec55a41a32f42b30847614ca59d809fc34547565355221da2880bbddca14860d8da92447d0707154d78cc29a4af00f2180e8d6de400edb5ad22f5aca8b99263ca0aaaa7911c40836c1bcbe0584c04e09c38fcc25ca51906fdb70bb49698521708689594b00e583008a80c5276f0661e183768c6cdcac3b164530f9678d83d1c65d1b125675bc100f6001890db976ef62bc3a1405e751180b9cc0f468a6252f162dca6a0dce054dc4673708b458f8aa90cb04c4638280fe2dc7fc88f73206617060bc186e1f64f0c5cdd29c642ba41c3a6f51749e3fd5c6668b968f3e8f5d639290b966ea7e4cb44fdb3b48b8ba51c92829727dff3f794bb8c09229643097d6c71e6c27690ca806e9dba111c140628915a8d046e9e9f1f9559bf553ea9443af14527d1e9712b5ac4cc281bcec60c872bb2e7d1e452dff41fa9898fd94a1350dcb529c008eda2273e10d7248169e24221404c0f5f27fdb8100c0b1c66604a9e00eded3601f674fb49649c576f61077c12c0b9fb86d413e15adb97cea43b64ee79caf0f3a92c098ee8337c8d0f11b4bc8aa95f38d499d5f8604f9d6c258b5407b53b6e6e24f2ef38e4b55c2af072aef494b9ec4c3c9ff82317cf73b42b322bed0056c42229b6a470c9de0e04f70d1ec5d8a43fe781140ecd8ca8576c63acce2d86f132ca78bf29f197305868e52a5abdb25f7b6d5e55e310ec4a434a53c69c6910c651c7376ba314772ad9e7920d092c40aac779d6859582100a8c1e2e55226dd0d4af0b1ee3c9556deb59b1a14bbbe606201ea3b50954ade978c617155cb4b5f6f2cf76ba257fa93ebb6ce0d854bdc3819119259a8602d2b8670e8e5f06010353d84906c520329d2a094c6b963ab27c406ab760961060312ff6f49239a46c0b42cf151445e8fa886646a5954aae189fe9a4632d048bed4e995a8bf14dbedb7c4bd706a5c9b556ffe932b1c91e1bb14bf6a9478843331641fcfb47c7b066cd184c36040fee50c01f8f16d4b3ec853a4ba3053c2655ae8932f01543264b8356bcfc34df168a4b33b407a5470da89484e147304756009f7d71dd53e60142c65ad5b8554a521e971fbe9ceab028f267ad98f8b5961f3c4323ca972e421a75665b24c18fef8adc4b875fc828484287a5179f083c6b2cefc1a58e19c108ff3fdb19462439f86eccdea764fc37d805e1607d87e207d56760a0abeb3c7cbe80a7862c02479aa62fac33882493135ab40e9d98115c4300810111b41585c8a8ea3babdcce0f00c1538484d516373747c90a3b2cacde1edf312474c607880878cb1b5d0d5e7f91d1e23293b4b50515b606d7e839faac2c7cdced2d4e900000000000000000000000f212f4501",
        "0046f8e684ad50a8140b89f2202a964f290144cdf9991819068cb8e540a35cc661279b8525ff241e5c53e9b07f9430a619e23fba4f026fbd9aa59e64b248dafd6da289cb484df33136f38c19822cd0fb9fee045c8d88b0855eaa7aa0901fa8705b5edeb9bddb2b41b409c6ba1d6a9ddf767375d49507f93b7f4af75afa6c3c259060e89a6be65dce87195fa169aaf62624c233e60332c9adde2d8ffddb721b2b300b45beb7cbc7c0082c873f019f45100a14243574e109cfc22bb626e3f4929e5a1cd0b279a9934c8396d512f380943753d5ff2b97cefa633e9c50e41bc10bd195832e7e34f23b46999a43e3e0719f714edd8cf38a50035aac9286ff2edf6f57b881754bda65296ad4b9fffae0c9e6cdc5d7d69d4a3c43751b643b351498f17ba52b39ea6fa4bd496efea729f847272043386422b306f7a39552bd04d6339c68ec7276e04985f8d5a8c41c72c65ffa7b14d8d960213ba2fc505cff6cd2f655c89128e67022ca1f626d5d0e56ace7c081bbdce57c4f849c0bf7f4ab3e018e26fe44521106e1fac5dbac9ae322816ac18827c19121cfa2f3d68a3a731d06c69a668887d452c03633888aa0e4083e7607453adcb05b7d6da1f5b8705a54bb11ebad896d056ad2a461242afd6776cddabcd337b9c78d0f2a0f818aa316db26b5d45566f902a6bc212ae6fa55a146c47ba5f4eb58f954a6a24734dd996710f09049dd4e2a1ef058897a866e11c69afb314e79bb0b244f1632c60ee4ec8505b49f31f17350ea7f4136229e5c36b4ab0694c17b14373cc7f08d73c14ba1ac19bcde64bb89d59d983ca06530aba9101899288234600164c7d20f0ca7f517edec15468e6454449f7e7a3666bb624d6ee9519abcc82457803fb6645cdb60c7fab69c082753f2fe8e10a3b1583df3b27729818618789bbe8e29112b4cb482383b910c9b77615e7a2cbd219dadc5015b805ecb936683234573e644db0c966b940a67322271e714cbb7f7fa179b92f3e4e256be2533c319f63c9c83448d9106cdfae9c6ab2ada1d1eccd6e029876623db991183547e7bd551ded531815ca1912568bbe970f48267e287f031de032326858280213737287d8acabe5041538dfcc748e6a40c9ed6517285cb86f613e8bd8193cdc42b02c0d06e916c78df472190d2310be60a227ff18d2fad21092a4c808e803a68b5931d6ae21a7601999a37c9e29654d9554e5c7d888e3f2a22ce053b14fa728cee441cc818235e7f079b9dfb341ad0824f0ab4797b76895c422ec0576d89afb81dba1d7e941bf73832a64ecbb9d2a3649d4808b3212ee5ca72f07537314268f911d792b7d0341c0fb4dc74ca7c18913da7ca1ce4cdee824b9214a5444a4d73c37daabc2d4da697ddcaae53c13fb59e022cda411b1be31c5961845ae5e6feb28b6b97c4a18e692f8d54e73d432c11a0b8ba0df35826b433026c944a7fd3dce7ce685dfe9400f3494a6723661f47aedb571a525a74518f5a38212a3bf5650f0b83f7928696341268e29cff1a47946de8ecdadb9372969398890bb2dac74b19d88f8d054420edeae295772e9056dce9d526d4ba7ca3cde69d8b08a4e1e4032f38db80e4ab820a4c19749983d7c53e9ba76dc72ee35452dd5faf785505a9db0ae8d61da97abf8fe4a7d6575542af2b99efa75c007a3f219a86d01924b65946ad63967c4615e4a93c0b06313404cb653f2636c4214d1e53108c7691eece56f7068a075fa0ce30203d8e1d177726f9d399bf970c8669f95fb06ef54f7baea6aca396ba920531126df63a9054661cea14de712233c16d27ff3b34889a45e7ab50a8693021426fb42150b80967acdfdf98b363bef570b17e"
      ],
      "sequence": 4294967294
    }
  ],
  "vout": [
    {
      "value": 1.0,
      "n": 0,
      "scriptPubKey": {
        "asm": "OP_RETURN a7cafa1fcb70e5fcab8a8e68aad435b63e61998891d0ad9ea5808942bc1c714d 139bd39c3897326d15322e593320cdc0439c564c1dac759f549e80b22f00a83633bbf3bc18b7124d35120e791300ede063bc766c3d8c55bf74bea0920f20881653db93dc78d7722d55726e1973608d8003dc160c5dec35df14dec0f26f40e87673fbb3fc58f7520d75524e395340ada023fc362c7dcc15ff34fee0d24f60c856931b531cb817b2ed95b2aed9b3a04d40c31cd6cc9d2cf51fd41e0032af8028b6b33b733c983792cdb5928ef993806d60e33cf6ecbd0cd53ff43e20128fa00896d35b135cf857f2add5f2ee99f3e00d00835c968cdd6cb55f945e4072efc068f6f37b337cd877d28df5d2ceb9d3c02d20a37cb6acfd4c957fb47e6052cfe048d6139bd39c3897326d15322e593320cdc0439c564c1dac759f549e80b22f00a83633bbf3bc18b7124d35120e791300ede063bc766c3d8c55bf74bea0920f20881653db93dc78d7722d55726e1973608d8003dc160c5dec35df14dec0f26f40e87673fbb3fc58f7520d75524e395340ada023fc362c7dcc15ff34fee0d24f60c856931b531cb817b2ed95b2aed9b3a04d40c31cd6cc9d2cf51fd41e0032af8028b6b33b733c983792cdb5928ef993806d60e33cf6ecbd0cd53ff43e20128fa00896d35b135cf857f2add5f2ee99f3e00d00835c968cdd6cb55f945e4072efc068f6f37b337cd877d28df5d2ceb9d3c02d20a37cb6acfd4c957fb47e6052cfe048d6139bd39c3897326d15322e593320cdc0439c564c1dac759f549e80b22f00a83633bbf3bc18b7124d35120e791300ede063bc766c3d8c55bf74bea0920f20881653db93dc78d7722d55726e1973608d8003dc160c5dec35df14dec0f26f40e87673fbb3fc58f7520d75524e395340ada023fc362c7dcc15ff34fee0d24f60c856931b531cb817b2ed95b2aed9b3a04d40c31cd6cc9d2cf51fd41e0032af8028b6b33b733c983792cdb5928ef993806d60e33cf6ecbd0cd53ff43e20128fa00896d35b135cf857f2add5f2ee99f3e00d00835c968cdd6cb55f945e4072efc068f6f37b337cd877d28df5d2ceb9d3c02d20a37cb6acfd4c957fb47e6052cfe048d6139bd39c3897326d15322e593320cdc0439c564c1dac759f549e80b22f00a83633bbf3bc18b7124d35120e791300ede063bc766c3d8c55bf74bea0920f20881653db93dc78d7722d55726e1973608d8003dc160c5dec35df14dec0f26f40e87673fbb3fc58f7520d75524e395340ada023fc362c7dcc15ff34fee0d24f60c856931b531cb817b2ed95b2aed9b3a04d40c31cd6cc9d2cf51fd41e0032af8028b6b33b733c983792cdb5928ef993806d60e33cf6ecbd0cd53ff43e20128fa00896d35b135cf857f2add5f2ee99f3e00d00835c968cdd6cb55f945e4072efc068f6f37b337cd877d28df5d2ceb9d3c02d20a37cb6acfd4c957fb47e6052cfe048d6139bd39c3897326d15322e593320cdc0439c564c1dac759f549e80b22f00a83633bbf3bc18b7124d35120e791300ede063bc766c3d8c55bf74bea0920f20881653db93dc78d7722d55726e1973608d8003dc160c5dec35df14dec0f26f40e87673fbb3fc58f7520d75524e395340ada023fc362c7dcc15ff34fee0d24f60c856931b531cb817b2ed95b2aed9b3a04d40def71cdf69cda30e029acba796913857240d3a821b73cc9da6ce62b3b390c463",
        "hex": "6a20a7cafa1fcb70e5fcab8a8e68aad435b63e61998891d0ad9ea5808942bc1c714d4db004139bd39c3897326d15322e593320cdc0439c564c1dac759f549e80b22f00a83633bbf3bc18b7124d35120e791300ede063bc766c3d8c55bf74bea0920f20881653db93dc78d7722d55726e1973608d8003dc160c5dec35df14dec0f26f40e87673fbb3fc58f7520d75524e395340ada023fc362c7dcc15ff34fee0d24f60c856931b531cb817b2ed95b2aed9b3a04d40c31cd6cc9d2cf51fd41e0032af8028b6b33b733c983792cdb5928ef993806d60e33cf6ecbd0cd53ff43e20128fa00896d35b135cf857f2add5f2ee99f3e00d00835c968cdd6cb55f945e4072efc068f6f37b337cd877d28df5d2ceb9d3c02d20a37cb6acfd4c957fb47e6052cfe048d6139bd39c3897326d15322e593320cdc0439c564c1dac759f549e80b22f00a83633bbf3bc18b7124d35120e791300ede063bc766c3d8c55bf74bea0920f20881653db93dc78d7722d55726e1973608d8003dc160c5dec35df14dec0f26f40e87673fbb3fc58f7520d75524e395340ada023fc362c7dcc15ff34fee0d24f60c856931b531cb817b2ed95b2aed9b3a04d40c31cd6cc9d2cf51fd41e0032af8028b6b33b733c983792cdb5928ef993806d60e33cf6ecbd0cd53ff43e20128fa00896d35b135cf857f2add5f2ee99f3e00d00835c968cdd6cb55f945e4072efc068f6f37b337cd877d28df5d2ceb9d3c02d20a37cb6acfd4c957fb47e6052cfe048d6139bd39c3897326d15322e593320cdc0439c564c1dac759f549e80b22f00a83633bbf3bc18b7124d35120e791300ede063bc766c3d8c55bf74bea0920f20881653db93dc78d7722d55726e1973608d8003dc160c5dec35df14dec0f26f40e87673fbb3fc58f7520d75524e395340ada023fc362c7dcc15ff34fee0d24f60c856931b531cb817b2ed95b2aed9b3a04d40c31cd6cc9d2cf51fd41e0032af8028b6b33b733c983792cdb5928ef993806d60e33cf6ecbd0cd53ff43e20128fa00896d35b135cf857f2add5f2ee99f3e00d00835c968cdd6cb55f945e4072efc068f6f37b337cd877d28df5d2ceb9d3c02d20a37cb6acfd4c957fb47e6052cfe048d6139bd39c3897326d15322e593320cdc0439c564c1dac759f549e80b22f00a83633bbf3bc18b7124d35120e791300ede063bc766c3d8c55bf74bea0920f20881653db93dc78d7722d55726e1973608d8003dc160c5dec35df14dec0f26f40e87673fbb3fc58f7520d75524e395340ada023fc362c7dcc15ff34fee0d24f60c856931b531cb817b2ed95b2aed9b3a04d40c31cd6cc9d2cf51fd41e0032af8028b6b33b733c983792cdb5928ef993806d60e33cf6ecbd0cd53ff43e20128fa00896d35b135cf857f2add5f2ee99f3e00d00835c968cdd6cb55f945e4072efc068f6f37b337cd877d28df5d2ceb9d3c02d20a37cb6acfd4c957fb47e6052cfe048d6139bd39c3897326d15322e593320cdc0439c564c1dac759f549e80b22f00a83633bbf3bc18b7124d35120e791300ede063bc766c3d8c55bf74bea0920f20881653db93dc78d7722d55726e1973608d8003dc160c5dec35df14dec0f26f40e87673fbb3fc58f7520d75524e395340ada023fc362c7dcc15ff34fee0d24f60c856931b531cb817b2ed95b2aed9b3a04d40def71cdf69cda30e029acba796913857240d3a821b73cc9da6ce62b3b390c463",
        "type": "nulldata"
      }
    },
    {
      "value": 499987.7972,
      "n": 1,
      "scriptPubKey": {
        "asm": "1 0357fb085ff2c2993a769fb66e8dca73ff1802015559e8fb16942a7b03836ed5",
        "hex": "51200357fb085ff2c2993a769fb66e8dca73ff1802015559e8fb16942a7b03836ed5",
        "reqSigs": 1,
        "type": "witness_v1_scripthash",
        "addresses": [
          "3QJmnh"
        ]
      }
    }
  ],
  "blockhash": "b157fe5006ea74e3e2696296011f5383f171fa956e468cbbd84742f98a1af3af",
  "confirmations": 1,
  "time": 1764179051,
  "blocktime": 1764179051
}