{
  "hex": "01000000000101f0f9c7bcb48a0d76a7eabda006f75e829c6dec36ee05a1af54c217030d6c24f30100000000feffffff02c02309ae782d0000225120b2ed0dc30ae30e62f665bf9fe5d4a673301eb746d26d09cce424120dc691b05300e1f50500000000fdd5046a20d012c874fc44c60a47b743cac4842823e86ed5ea49eb564f48883968568ebdfb4db0042a326a53f8869d097fd6dbe0e6eb15a3e7f4fbe4ccf3c91931d9a4e9dcd3be0f0a124a73d8a6bd295ff6fbc0c6cb3583c7d4dbc4ecd3e93911f984c9fcf39e2f6a722a13b8c6dd493f969ba0a6ab55e3a7b4bba48cb389597199e4a99c93fe4f4a520a3398e6fd691fb6bb80868b75c387949b84ac93a97951b9c489bcb3de6faab2ead378061d89ff565b60666b952367747b644c734999b15924695c533e8f8a92caf358263da9df767b40464bb50347545b446c5369b9917904497c731eafeaf2aa9338465dc9bf161b20262bd56327343b240c3309d9f11964291c137ecfcad28ab318667de99f363b00060bf54307141b042c1329f9d13944093c335eef2a326a53f8869d097fd6dbe0e6eb15a3e7f4fbe4ccf3c91931d9a4e9dcd3be0f0a124a73d8a6bd295ff6fbc0c6cb3583c7d4dbc4ecd3e93911f984c9fcf39e2f6a722a13b8c6dd493f969ba0a6ab55e3a7b4bba48cb389597199e4a99c93fe4f4a520a3398e6fd691fb6bb80868b75c387949b84ac93a97951b9c489bcb3de6faab2ead378061d89ff565b60666b952367747b644c734999b15924695c533e8f8a92caf358263da9df767b40464bb50347545b446c5369b9917904497c731eafeaf2aa9338465dc9bf161b20262bd56327343b240c3309d9f11964291c137ecfcad28ab318667de99f363b00060bf54307141b042c1329f9d13944093c335eef2a326a53f8869d097fd6dbe0e6eb15a3e7f4fbe4ccf3c91931d9a4e9dcd3be0f0a124a73d8a6bd295ff6fbc0c6cb3583c7d4dbc4ecd3e93911f984c9fcf39e2f6a722a13b8c6dd493f969ba0a6ab55e3a7b4bba48cb389597199e4a99c93fe4f4a520a3398e6fd691fb6bb80868b75c387949b84ac93a97951b9c489bcb3de6faab2ead378061d89ff565b60666b952367747b644c734999b15924695c533e8f8a92caf358263da9df767b40464bb50347545b446c5369b9917904497c731eafeaf2aa9338465dc9bf161b20262bd56327343b240c3309d9f11964291c137ecfcad28ab318667de99f363b00060bf54307141b042c1329f9d13944093c335eef2a326a53f8869d097fd6dbe0e6eb15a3e7f4fbe4ccf3c91931d9a4e9dcd3be0f0a124a73d8a6bd295ff6fbc0c6cb3583c7d4dbc4ecd3e93911f984c9fcf39e2f6a722a13b8c6dd493f969ba0a6ab55e3a7b4bba48cb389597199e4a99c93fe4f4a520a3398e6fd691fb6bb80868b75c387949b84ac93a97951b9c489bcb3de6faab2ead378061d89ff565b60666b952367747b644c734999b15924695c533e8f8a92caf358263da9df767b40464bb50347545b446c5369b9917904497c731eafeaf2aa9338465dc9bf161b20262bd56327343b240c3309d9f11964291c137ecfcad28ab318667de99f363b00060bf54307141b042c1329f9d13944093c335eef2a326a53f8869d097fd6dbe0e6eb15a3e7f4fbe4ccf3c91931d9a4e9dcd3be0f0a124a73d8a6bd295ff6fbc0c6cb3583c7d4dbc4ecd3e93911f984c9fcf39e2f6a722a13b8c6dd493f969ba0a6ab55e3a7b4bba48cb389597199e4a99c93fe4f4a520a3398e6fd691fb6bb80868b75c387949b84ac93a97951b9c489bcb3de6faab2ead378061d89ff565b60666b95231d44e2dd875e98aa2da70b1b3a7c8cff5640607db51a3e40c82b9a09e463f23b02fd7509e5848175dfd2c382a9ff03e53e882d3f03b40fc56be7b48cf7221fa658efbe85eab9e5cbf216b6990a3dd4b23dbdfabe99f5ab06922b550fbaee6f6e564ec0dd8e88981237cc10187183a44a76dd3a83ec94d8beef67ea31f3104275938b00b9e230dc296efdd09c627bf87f9c98c1d3925517a146d130da280a5e71e48cb86bcf55b560fe321f9900bb30da01a38915d41403fc020822e75e5f47ac5981405b2a9d4e5171ea26b8564368cc231cfc086c7d3564210d76371bd6eafd2e423244ec9398c42b72d4ed6c99cf7338df1cdc65de224ce1f1c049c2e2ffc4f1a39a8ae296ea430e3e8ac856ccaee35072996ca97a1ba3156e2dbf6746f78627cd494b592c2ea45c2f441aa86e4ef5d899cc2f6ef0296f2d160ecf3da046cd7d5d6b24f00f6805887c61f01a4bd2a42de04bcce76a498085d2c9f14a10909a3c750b2a55b5130323a34505925b2bb1eac9c2e603d52822352fee55de645c9afe522df4ba4732fbf8d6755db7bf78f3ae07d5b4405036716fbe94ec83a75d88a503f803b1b5a91a5fa327e1b1a1f22c8190353934a6f1c86965bbf47aca88d8a5addba92cb5f92cf6a2307d6de3fa5e97321be7041d7ed149b269f8adaae0ff79da9e602905bb6f9cfe8ba78a85da85f2b5dfc077bd89d0e11480fd090a8c3e1bbdad55d7cd2158c8454cf11f040d0257ba641ae06f6fb6d20df977e941dcae67585d5e6a56585bf3bb6f16d0f33165261e0fab55922d97e320145add8e5b78af02ea9733b2359d963e93004d8750dcb3fde71ed446c6334e35e4aace0d3b4ee1e9449da9635d69aea3299cda6196574021460a1de3c72c97a75d52a9fff2c515c89acb216fce2de9fbf55d828d8629843b5b9365c07cfe00b9f4e36c82bbd48e5de086efe83bcc138212104dfc26a5359a6b5c56f11805567ea2e530330c7db949ae20de602a4791533bf7506483ab3aa838fca2fdc78351d26fd1fd6bb928f32a8ae160d4a6c79e28bb89e1d823e098d8724ecdcc82a22260b5600ba63ff04fef20e310a58533370d4a3455a1b39825845fb57f5e86f33b309d59940879a7f9eb3894c0a81783116a7a428efe37a8360ee003a474ceab43a7241158e1f947bfb108741a9eb9113acde66f41c0acde56f1476094ef7fbcb3dffc2a1bcc6f6800f7e1f4e2d2cf63137a3dd0e85d66cff7526c3c9fa688fd53e5da7ccf09b997ee2471bc785c647a89ca40dde3a6a949eccbd71e507dfe2cc40041b8264fffd0282e3a7f966d47dc56707831aacae2b2a58ee4dfe651c45fbb561168d56c70e96567a8bccb0513f75b8342fbe901e12e069a03de8dd5b7aeb0a86d33ff79c6c19b536da7a35bd8573b2b3f2282108c563720df40ec6531bbc188ef3b548851a953c89c5456e5c97dd04fc0036d7c6666b18c714c0983abd5859b53bd6ab345b84bf2e97554b5d5f6cfb708705f7f0609372871563e63776f921e2c5c701b9879287760fe9f7962a14b23381cd87acc2930faf824b984faf37e96f889138f7b33da59fec53507fe361920b67a37e52d5323783f2d1287de6edc038f4ac7e17feebf099c7b9888b9940844f03c8e1a27b8438b66ec1012c978f56d2f03a6bc73dc7464698693cd41974344fd97623fce9017c12171907e31ee5f03af134e204998d7b66924f7eacb935b919e6728d004790deb3b5887945db2e07776426a40161e9d106fe1c04415ceea901a9c5aa76e0b11bb08184e04d026937461c541e04343faa2892c3cf012d23d7b9fcff1ece495cc6ab2f342e8d71d8f42e1df20d9afda35600808d6f6c89be208a25555e500648603f2d0b057bb18b95787fb558abd3c1c36756c561b3c411b8ece251728224112fcb248a6d39f070148d7f4d30ebd360f2173e91256a126e9db1cb7e695ea886ee45aeeb7da0b030cda375104da90632ac1cf82143ad688c7c2936a903436c17f1cd05973426bd9beeff1ecd48c77a9df5ef82232e2eb62282382546b471490833a0daaa31cb0c1b23bcc9c1f422fed0058833a04c3bcd059177061191d59def0c4522b91e956ee36940de71e9bb48c2eda0050bdbf9b3b8305fab017716e81e0746a170b5ad76c37fe04a6ca8a927b7e120c671c1f73361a14e6fca733a9e07fac4cf6484a04a5d98d3a7fbffa344bdb4b53ae9efef68bba9f74502033a2cdfae4400e75504d42439deb19919e79e2d97eb86fadbeaf00d9ee0cf6840bcc8763842f0999e509b8e20452781d650c51e505e2b81930868a29f751e4aadc69366142131ee671f6adf611f8e2cbb64393f59acd8f036fe701d3f8b80db05a767cdce87c5d02508ab150fef084cf0427404f7d4f8fc40e7af3f7d72f2e19d4e9f0b26208c72d0bad8080741523362363ead390686a3a610c3a92248ea031f4c793d26d953c7cb82f1b3f6bafb90aee2d5993f1914f0d851266e2c138e2734a0302b627d41c6199d048253d7e1f6ae896ca87a4df40a335b09614c13facc12a1c1fd8f46f62e6612350a9d6a60256a6f8ffb5239baca41f7dce426c18eb9301b7585b5583fa85b2791919bf031ce1dd4178f432364bbe7d7ed4d258d76b991baf9e2f39b84750bc7fc2944efbbd9e5606b15b7ab582c3ba3962acd2a1ae6691d77edf3cafa88c96999b59f0eb5c058e5a451863a42a424654b1911e26f0f72329145cce916376e4827c298ea9fbdd6a1e4ea38c76d47366e734b5a2555ebf8c8c57402bc49c106b2873e774d01e54c9ae7f92dd5cf207c2d3f607774020d39655703a40cca802a565da3a7eb88183ede5d634cd67cdc9ada33a964a55e322f551dae0a90f77488f1ca4df085077977f99b774fe23d8751208df100f7b976c8e270f4cebcf0006045328f491d007bf274acb51675116b3a424aa1088345ecc17c3fae1329884f3923cc423f889b85e3e38f4989d28ab98b668c128a6d9a1c9c3acc866dfaedc4435119da9b68d5ba0e59ccabaaccf2cfde995e829ecdb4c52ffe976beb5974f6a69764922867f7ccf7c0f8de35444fab17eeb3bb54a6e3d0205c5e7c2aa79744674dd54eb79bc43d6eca53e8f1f1ac96d3c55e0a71a33458fbcbf23bb4e44a5d39b8ab54bef61a1c79396265e19e21b21b921fa5431ff16ec2429ba67384c524f77eaf5dc8a4726037379e5a9dbe8c6113e71667513e33a456475cba21024401081099717ddd9cc105d0a3c70a231954631b006507875153b4202af0856aa4e5d422bdefb4081529cbd484723287cb6e9b60a5aa300f8c266225779e7b611fb6e20403f67a0c4bb0e195e69c71dc7fd0e2a415051576b86979ba6bec5eef3081025353c3e464e6e7579878e9cb6c7d4e7f1061f75939cabc5c7cad9e8111822233f4963a1c0c8ccd5dae1f0fafc0000000000000000000000000000000000000f222d3e01fd210500a079e947c3f4099181a3498983e18cba4318f7368ecebfc6c43f6d888ea30a500a9273f263b10a0778d1bd90aaa00527975fd5d97b92b8824d462bd72ee52db35bc6de6851af97fd98298262080dc6eb6536b64f2f4f67b54c49f93860dc277bc9ea6c4a0f1c707b4dd4e524c82c80f7ba9058ec76f9024f4b421742ec7c19cadc81202b1dd2414c4bcc7d5e51630718c53567af3bf6f24b260701717bd32e24451f657cb75b9ee5db9b5388e4e292203e3814e2a2142816b9ba0a440fec4aed2b6eedfc00d3fc2e0463c6111b2b80f757ca9a333132987359ef7410c36db2a82cc169ab77bd18122c1863e90ac3b396deb639ed50112620875620e10275012604c0c334b3e392aa84f47fd965933427b7164ae423806df25102d10c72c9555d6d7e00f34c992281fe41d2b66458402eababc5bc75fe26306763f346c72eb826cfb052e0e0617d27ce50d35a3a6dd3590bd058677fc7f445e1a570a0003dfc9573a5ee17ca23a13317d5c87a9c478b1e9862578bbf2320c4ec241ffcafa4ec36380fdef28010e03246f6a1c9901efd0c27f72fda239b8e42419176a2582fe58fe589dc3b96fbb0071565d4956734cd52aeead233e6916967ddfa321a7d8a896e10823cbcfd9a8e050df1d9edf8e9a67393023dfe163456f4b47617b2c9ce6ed66bdcd64a7579db304bb7a860a8fc45273a2efdff1e5bdeec41bb7517fc8cde724d04a756c7c927035cb01fe6c78468c07ef856d7da03091c9d84dd0f83fad56573d84e87c7d8d52bf17e618b494ba65cc12390a6685275c5c7e96ccea5b280e07eb140128d684fe32bb6cd74e5e26b2df6ed0bc94c9537f64f8c1bcf60e45aad37365afe41d87676773a1f236d4b2cc738c2e7fdd31339d4455129bb13fe10eeed9642622e20a47cc25495bae33232e60489073ef9ffaddd6e3209077ebfd44e5fd8ec1cab22e81cca6367a3b1965c9eb56680dd86b732a6e2643caf1af05948f78a53dc0675c169db998da2717985aa888f34338bbb90b230be557884eb8fc96c0e000585d2fea0cca9625da741dc8f5f5a077bca3037e57db74ec44c0c22ca7863de5d8c0828b0043185d237e5d6b2425f56a9eec5a781534d652408386594ba673a03db6831711921654049bf865fbe813f177c79bfec81150dc556c3f0e9a923c7c8ba9dedaf9b56e1e855d040257c53b288964c1f59201b6a9c89526f5428ef84979ba68384887a7ea8c30739f007ae87dea02c642ad1a9aca3c2aacee66e1fe5db7ed8df4b3c7ed789e3291168992cd079c07e0d920ba653ea45953b0a8e1691c465c86349fa31aa7559c33f8ffd1a0dae1eaef8f469f8474270b67a201082f94e93909bf2a4fe05753184fd04cfa8d4cfe284b1fd62134ca70cac09d5ac99a2bab52e5d3f9510865f0b9ae0c2cfc28f2b35832b8da884524bddfb61d300182846ce376502444b2528405b90dd68eef4908955dba82e3edef4e46c206dae7ab55f88bd18663718436726012e6e30e5a459dc340040fe31508db7bb87cc02482ec4f2c659f30c9048ee3c6faf8d492b30c917c9bf651e475dc45bbb4344b6082408ccb54588fb285071e331676030880a8be26021cc0db6a964cd588ac798279dfdb70772390b65f81ad93f20cfa4eb9c913b248e67f4a96a88d892fa4e835752e3aacd1c1a02960ea68760fe208c6e4b50b9b495bf4670b25252ef12beb0e393b623e44bbbdf8c19a5811fabd2fc9d16266775695c58141e97d4bceaf6c1fdeb243424b3bc9cf851e53fd5575a7839a9fb8fb19eff1ace30fb8e38a4faf336707e181bec075d394efefbafe7631e3dcb4e9361027dac3334569956e71988000000",
  "txid": "fdde39b43c4d6e9d1d22c2dd09dc60c8db81de03606f0cf94087446c16bf2ece",
  "hash": "0e09977502d76ddb97b40742fa84391cc2b93da91be649ebdca81849227d53b9",
  "size": 5085,
  "vsize": 2278,
  "version": 1,
  "locktime": 136,
  "vin": [
    {
      "txid": "f3246c0d0317c254afa105ee36ec6d9c825ef706a0bdeaa7760d8ab4bcc7f9f0",
      "vout": 1,
      "scriptSig": {
        "asm": "",
        "hex": ""
      },
      "txinwitness": [
        "e5848175dfd2c382a9ff03e53e882d3f03b40fc56be7b48cf7221fa658efbe85eab9e5cbf216b6990a3dd4b23dbdfabe99f5ab06922b550fbaee6f6e564ec0dd8e88981237cc10187183a44a76dd3a83ec94d8beef67ea31f3104275938b00b9e230dc296efdd09c627bf87f9c98c1d3925517a146d130da280a5e71e48cb86bcf55b560fe321f9900bb30da01a38915d41403fc020822e75e5f47ac5981405b2a9d4e5171ea26b8564368cc231cfc086c7d3564210d76371bd6eafd2e423244ec9398c42b72d4ed6c99cf7338df1cdc65de224ce1f1c049c2e2ffc4f1a39a8ae296ea430e3e8ac856ccaee35072996ca97a1ba3156e2dbf6746f78627cd494b592c2ea45c2f441aa86e4ef5d899cc2f6ef0296f2d160ecf3da046cd7d5d6b24f00f6805887c61f01a4bd2a42de04bcce76a498085d2c9f14a10909a3c750b2a55b5130323a34505925b2bb1eac9c2e603d52822352fee55de645c9afe522df4ba4732fbf8d6755db7bf78f3ae07d5b4405036716fbe94ec83a75d88a503f803b1b5a91a5fa327e1b1a1f22c8190353934a6f1c86965bbf47aca88d8a5addba92cb5f92cf6a2307d6de3fa5e97321be7041d7ed149b269f8adaae0ff79da9e602905bb6f9cfe8ba78a85da85f2b5dfc077bd89d0e11480fd090a8c3e1bbdad55d7cd2158c8454cf11f040d0257ba641ae06f6fb6d20df977e941dcae67585d5e6a56585bf3bb6f16d0f33165261e0fab55922d97e320145add8e5b78af02ea9733b2359d963e93004d8750dcb3fde71ed446c6334e35e4aace0d3b4ee1e9449da9635d69aea3299cda6196574021460a1de3c72c97a75d52a9fff2c515c89acb216fce2de9fbf55d828d8629843b5b9365c07cfe00b9f4e36c82bbd48e5de086efe83bcc138212104dfc26a5359a6b5c56f11805567ea2e530330c7db949ae20de602a4791533bf7506483ab3aa838fca2fdc78351d26fd1fd6bb928f32a8ae160d4a6c79e28bb89e1d823e098d8724ecdcc82a22260b5600ba63ff04fef20e310a58533370d4a3455a1b39825845fb57f5e86f33b309d59940879a7f9eb3894c0a81783116a7a428efe37a8360ee003a474ceab43a7241158e1f947bfb108741a9eb9113acde66f41c0acde56f1476094ef7fbcb3dffc2a1bcc6f6800f7e1f4e2d2cf63137a3dd0e85d66cff7526c3c9fa688fd53e5da7ccf09b997ee2471bc785c647a89ca40dde3a6a949eccbd71e507dfe2cc40041b8264fffd0282e3a7f966d47dc56707831aacae2b2a58ee4dfe651c45fbb561168d56c70e96567a8bccb0513f75b8342fbe901e12e069a03de8dd5b7aeb0a86d33ff79c6c19b536da7a35bd8573b2b3f2282108c563720df40ec6531bbc188ef3b548851a953c89c5456e5c97dd04fc0036d7c6666b18c714c0983abd5859b53bd6ab345b84bf2e97554b5d5f6cfb708705f7f0609372871563e63776f921e2c5c701b9879287760fe9f7962a14b23381cd87acc2930faf824b984faf37e96f889138f7b33da59fec53507fe361920b67a37e52d5323783f2d1287de6edc038f4ac7e17feebf099c7b9888b9940844f03c8e1a27b8438b66ec1012c978f56d2f03a6bc73dc7464698693cd41974344fd97623fce9017c12171907e31ee5f03af134e204998d7b66924f7eacb935b919e6728d004790deb3b5887945db2e07776426a40161e9d106fe1c04415ceea901a9c5aa76e0b11bb08184e04d026937461c541e04343faa2892c3cf012d23d7b9fcff1ece495cc6ab2f342e8d71d8f42e1df20d9afda35600808d6f6c89be208a25555e500648603f2d0b057bb18b95787fb558abd3c1c36756c561b3c411b8ece251728224112fcb248a6d39f070148d7f4d30ebd360f2173e91256a126e9db1cb7e695ea886ee45aeeb7da0b030cda375104da90632ac1cf82143ad688c7c2936a903436c17f1cd05973426bd9beeff1ecd48c77a9df5ef82232e2eb62282382546b471490833a0daaa31cb0c1b23bcc9c1f422fed0058833a04c3bcd059177061191d59def0c4522b91e956ee36940de71e9bb48c2eda0050bdbf9b3b8305fab017716e81e0746a170b5ad76c37fe04a6ca8a927b7e120c671c1f73361a14e6fca733a9e07fac4cf6484a04a5d98d3a7fbffa344bdb4b53ae9efef68bba9f74502033a2cdfae4400e75504d42439deb19919e79e2d97eb86fadbeaf00d9ee0cf6840bcc8763842f0999e509b8e20452781d650c51e505e2b81930868a29f751e4aadc69366142131ee671f6adf611f8e2cbb64393f59acd8f036fe701d3f8b80db05a767cdce87c5d02508ab150fef084cf0427404f7d4f8fc40e7af3f7d72f2e19d4e9f0b26208c72d0bad8080741523362363ead390686a3a610c3a92248ea031f4c793d26d953c7cb82f1b3f6bafb90aee2d5993f1914f0d851266e2c138e2734a0302b627d41c6199d048253d7e1f6ae896ca87a4df40a335b09614c13facc12a1c1fd8f46f62e6612350a9d6a60256a6f8ffb5239baca41f7dce426c18eb9301b7585b5583fa85b2791919bf031ce1dd4178f432364bbe7d7ed4d258d76b991baf9e2f39b84750bc7fc2944efbbd9e5606b15b7ab582c3ba3962acd2a1ae6691d77edf3cafa88c96999b59f0eb5c058e5a451863a42a424654b1911e26f0f72329145cce916376e4827c298ea9fbdd6a1e4ea38c76d47366e734b5a2555ebf8c8c57402bc49c106b2873e774d01e54c9ae7f92dd5cf207c2d3f607774020d39655703a40cca802a565da3a7eb88183ede5d634cd67cdc9ada33a964a55e322f551dae0a90f77488f1ca4df085077977f99b774fe23d8751208df100f7b976c8e270f4cebcf0006045328f491d007bf274acb51675116b3a424aa1088345ecc17c3fae1329884f3923cc423f889b85e3e38f4989d28ab98b668c128a6d9a1c9c3acc866dfaedc4435119da9b68d5ba0e59ccabaaccf2cfde995e829ecdb4c52ffe976beb5974f6a69764922867f7ccf7c0f8de35444fab17eeb3bb54a6e3d0205c5e7c2aa79744674dd54eb79bc43d6eca53e8f1f1ac96d3c55e0a71a33458fbcbf23bb4e44a5d39b8ab54bef61a1c79396265e19e21b21b921fa5431ff16ec2429ba67384c524f77eaf5dc8a4726037379e5a9dbe8c6113e71667513e33a456475cba21024401081099717ddd9cc105d0a3c70a231954631b006507875153b4202af0856aa4e5d422bdefb4081529cbd484723287cb6e9b60a5aa300f8c266225779e7b611fb6e20403f67a0c4bb0e195e69c71dc7fd0e2a415051576b86979ba6bec5eef3081025353c3e464e6e7579878e9cb6c7d4e7f1061f75939cabc5c7cad9e8111822233f4963a1c0c8ccd5dae1f0fafc0000000000000000000000000000000000000f222d3e01",
        "00a079e947c3f4099181a3498983e18cba4318f7368ecebfc6c43f6d888ea30a500a9273f263b10a0778d1bd90aaa00527975fd5d97b92b8824d462bd72ee52db35bc6de6851af97fd98298262080dc6eb6536b64f2f4f67b54c49f93860dc277bc9ea6c4a0f1c707b4dd4e524c82c80f7ba9058ec76f9024f4b421742ec7c19cadc81202b1dd2414c4bcc7d5e51630718c53567af3bf6f24b260701717bd32e24451f657cb75b9ee5db9b5388e4e292203e3814e2a2142816b9ba0a440fec4aed2b6eedfc00d3fc2e0463c6111b2b80f757ca9a333132987359ef7410c36db2a82cc169ab77bd18122c1863e90ac3b396deb639ed50112620875620e10275012604c0c334b3e392aa84f47fd965933427b7164ae423806df25102d10c72c9555d6d7e00f34c992281fe41d2b66458402eababc5bc75fe26306763f346c72eb826cfb052e0e0617d27ce50d35a3a6dd3590bd058677fc7f445e1a570a0003dfc9573a5ee17ca23a13317d5c87a9c478b1e9862578bbf2320c4ec241ffcafa4ec36380fdef28010e03246f6a1c9901efd0c27f72fda239b8e42419176a2582fe58fe589dc3b96fbb0071565d4956734cd52aeead233e6916967ddfa321a7d8a896e10823cbcfd9a8e050df1d9edf8e9a67393023dfe163456f4b47617b2c9ce6ed66bdcd64a7579db304bb7a860a8fc45273a2efdff1e5bdeec41bb7517fc8cde724d04a756c7c927035cb01fe6c78468c07ef856d7da03091c9d84dd0f83fad56573d84e87c7d8d52bf17e618b494ba65cc12390a6685275c5c7e96ccea5b280e07eb140128d684fe32bb6cd74e5e26b2df6ed0bc94c9537f64f8c1bcf60e45aad37365afe41d87676773a1f236d4b2cc738c2e7fdd31339d4455129bb13fe10eeed9642622e20a47cc25495bae33232e60489073ef9ffaddd6e3209077ebfd44e5fd8ec1cab22e81cca6367a3b1965c9eb56680dd86b732a6e2643caf1af05948f78a53dc0675c169db998da2717985aa888f34338bbb90b230be557884eb8fc96c0e000585d2fea0cca9625da741dc8f5f5a077bca3037e57db74ec44c0c22ca7863de5d8c0828b0043185d237e5d6b2425f56a9eec5a781534d652408386594ba673a03db6831711921654049bf865fbe813f177c79bfec81150dc556c3f0e9a923c7c8ba9dedaf9b56e1e855d040257c53b288964c1f59201b6a9c89526f5428ef84979ba68384887a7ea8c30739f007ae87dea02c642ad1a9aca3c2aacee66e1fe5db7ed8df4b3c7ed789e3291168992cd079c07e0d920ba653ea45953b0a8e1691c465c86349fa31aa7559c33f8ffd1a0dae1eaef8f469f8474270b67a201082f94e93909bf2a4fe05753184fd04cfa8d4cfe284b1fd62134ca70cac09d5ac99a2bab52e5d3f9510865f0b9ae0c2cfc28f2b35832b8da884524bddfb61d300182846ce376502444b2528405b90dd68eef4908955dba82e3edef4e46c206dae7ab55f88bd18663718436726012e6e30e5a459dc340040fe31508db7bb87cc02482ec4f2c659f30c9048ee3c6faf8d492b30c917c9bf651e475dc45bbb4344b6082408ccb54588fb285071e331676030880a8be26021cc0db6a964cd588ac798279dfdb70772390b65f81ad93f20cfa4eb9c913b248e67f4a96a88d892fa4e835752e3aacd1c1a02960ea68760fe208c6e4b50b9b495bf4670b25252ef12beb0e393b623e44bbbdf8c19a5811fabd2fc9d16266775695c58141e97d4bceaf6c1fdeb243424b3bc9cf851e53fd5575a7839a9fb8fb19eff1ace30fb8e38a4faf336707e181bec075d394efefbafe7631e3dcb4e9361027dac3334569956e719"
      ],
      "sequence": 4294967294
    }
  ],
  "vout": [
    {
      "value": 499963.3916,
      "n": 0,
      "scriptPubKey": {
        "asm": "1 b2ed0dc30ae30e62f665bf9fe5d4a673301eb746d26d09cce424120dc691b053",
        "hex": "5120b2ed0dc30ae30e62f665bf9fe5d4a673301eb746d26d09cce424120dc691b053",
        "reqSigs": 1,
        "type": "witness_v1_scripthash",
        "addresses": [
          "3QJmnh"
        ]
      }
    },
    {
      "value": 1.0,
      "n": 1,
      "scriptPubKey": {
        "asm": "OP_RETURN d012c874fc44c60a47b743cac4842823e86ed5ea49eb564f48883968568ebdfb 2a326a53f8869d097fd6dbe0e6eb15a3e7f4fbe4ccf3c91931d9a4e9dcd3be0f0a124a73d8a6bd295ff6fbc0c6cb3583c7d4dbc4ecd3e93911f984c9fcf39e2f6a722a13b8c6dd493f969ba0a6ab55e3a7b4bba48cb389597199e4a99c93fe4f4a520a3398e6fd691fb6bb80868b75c387949b84ac93a97951b9c489bcb3de6faab2ead378061d89ff565b60666b952367747b644c734999b15924695c533e8f8a92caf358263da9df767b40464bb50347545b446c5369b9917904497c731eafeaf2aa9338465dc9bf161b20262bd56327343b240c3309d9f11964291c137ecfcad28ab318667de99f363b00060bf54307141b042c1329f9d13944093c335eef2a326a53f8869d097fd6dbe0e6eb15a3e7f4fbe4ccf3c91931d9a4e9dcd3be0f0a124a73d8a6bd295ff6fbc0c6cb3583c7d4dbc4ecd3e93911f984c9fcf39e2f6a722a13b8c6dd493f969ba0a6ab55e3a7b4bba48cb389597199e4a99c93fe4f4a520a3398e6fd691fb6bb80868b75c387949b84ac93a97951b9c489bcb3de6faab2ead378061d89ff565b60666b952367747b644c734999b15924695c533e8f8a92caf358263da9df767b40464bb50347545b446c5369b9917904497c731eafeaf2aa9338465dc9bf161b20262bd56327343b240c3309d9f11964291c137ecfcad28ab318667de99f363b00060bf54307141b042c1329f9d13944093c335eef2a326a53f8869d097fd6dbe0e6eb15a3e7f4fbe4ccf3c91931d9a4e9dcd3be0f0a124a73d8a6bd295ff6fbc0c6cb3583c7d4dbc4ecd3e93911f984c9fcf39e2f6a722a13b8c6dd493f969ba0a6ab55e3a7b4bba48cb389597199e4a99c93fe4f4a520a3398e6fd691fb6bb80868b75c387949b84ac93a97951b9c489bcb3de6faab2ead378061d89ff565b60666b952367747b644c734999b15924695c533e8f8a92caf358263da9df767b40464bb50347545b446c5369b9917904497c731eafeaf2aa9338465dc9bf161b20262bd56327343b240c3309d9f11964291c137ecfcad28ab318667de99f363b00060bf54307141b042c1329f9d13944093c335eef2a326a53f8869d097fd6dbe0e6eb15a3e7f4fbe4ccf3c91931d9a4e9dcd3be0f0a124a73d8a6bd295ff6fbc0c6cb3583c7d4dbc4ecd3e93911f984c9fcf39e2f6a722a13b8c6dd493f969ba0a6ab55e3a7b4bba48cb389597199e4a99c93fe4f4a520a3398e6fd691fb6bb80868b75c387949b84ac93a97951b9c489bcb3de6faab2ead378061d89ff565b60666b952367747b644c734999b15924695c533e8f8a92caf358263da9df767b40464bb50347545b446c5369b9917904497c731eafeaf2aa9338465dc9bf161b20262bd56327343b240c3309d9f11964291c137ecfcad28ab318667de99f363b00060bf54307141b042c1329f9d13944093c335eef2a326a53f8869d097fd6dbe0e6eb15a3e7f4fbe4ccf3c91931d9a4e9dcd3be0f0a124a73d8a6bd295ff6fbc0c6cb3583c7d4dbc4ecd3e93911f984c9fcf39e2f6a722a13b8c6dd493f969ba0a6ab55e3a7b4bba48cb389597199e4a99c93fe4f4a520a3398e6fd691fb6bb80868b75c387949b84ac93a97951b9c489bcb3de6faab2ead378061d89ff565b60666b95231d44e2dd875e98aa2da70b1b3a7c8cff5640607db51a3e40c82b9a09e463f23b",
        "hex": "6a20d012c874fc44c60a47b743cac4842823e86ed5ea49eb564f48883968568ebdfb4db0042a326a53f8869d097fd6dbe0e6eb15a3e7f4fbe4ccf3c91931d9a4e9dcd3be0f0a124a73d8a6bd295ff6fbc0c6cb3583c7d4dbc4ecd3e93911f984c9fcf39e2f6a722a13b8c6dd493f969ba0a6ab55e3a7b4bba48cb389597199e4a99c93fe4f4a520a3398e6fd691fb6bb80868b75c387949b84ac93a97951b9c489bcb3de6faab2ead378061d89ff565b60666b952367747b644c734999b15924695c533e8f8a92caf358263da9df767b40464bb50347545b446c5369b9917904497c731eafeaf2aa9338465dc9bf161b20262bd56327343b240c3309d9f11964291c137ecfcad28ab318667de99f363b00060bf54307141b042c1329f9d13944093c335eef2a326a53f8869d097fd6dbe0e6eb15a3e7f4fbe4ccf3c91931d9a4e9dcd3be0f0a124a73d8a6bd295ff6fbc0c6cb3583c7d4dbc4ecd3e93911f984c9fcf39e2f6a722a13b8c6dd493f969ba0a6ab55e3a7b4bba48cb389597199e4a99c93fe4f4a520a3398e6fd691fb6bb80868b75c387949b84ac93a97951b9c489bcb3de6faab2ead378061d89ff565b60666b952367747b644c734999b15924695c533e8f8a92caf358263da9df767b40464bb50347545b446c5369b9917904497c731eafeaf2aa9338465dc9bf161b20262bd56327343b240c3309d9f11964291c137ecfcad28ab318667de99f363b00060bf54307141b042c1329f9d13944093c335eef2a326a53f8869d097fd6dbe0e6eb15a3e7f4fbe4ccf3c91931d9a4e9dcd3be0f0a124a73d8a6bd295ff6fbc0c6cb3583c7d4dbc4ecd3e93911f984c9fcf39e2f6a722a13b8c6dd493f969ba0a6ab55e3a7b4bba48cb389597199e4a99c93fe4f4a520a3398e6fd691fb6bb80868b75c387949b84ac93a97951b9c489bcb3de6faab2ead378061d89ff565b60666b952367747b644c734999b15924695c533e8f8a92caf358263da9df767b40464bb50347545b446c5369b9917904497c731eafeaf2aa9338465dc9bf161b20262bd56327343b240c3309d9f11964291c137ecfcad28ab318667de99f363b00060bf54307141b042c1329f9d13944093c335eef2a326a53f8869d097fd6dbe0e6eb15a3e7f4fbe4ccf3c91931d9a4e9dcd3be0f0a124a73d8a6bd295ff6fbc0c6cb3583c7d4dbc4ecd3e93911f984c9fcf39e2f6a722a13b8c6dd493f969ba0a6ab55e3a7b4bba48cb389597199e4a99c93fe4f4a520a3398e6fd691fb6bb80868b75c387949b84ac93a97951b9c489bcb3de6faab2ead378061d89ff565b60666b952367747b644c734999b15924695c533e8f8a92caf358263da9df767b40464bb50347545b446c5369b9917904497c731eafeaf2aa9338465dc9bf161b20262bd56327343b240c3309d9f11964291c137ecfcad28ab318667de99f363b00060bf54307141b042c1329f9d13944093c335eef2a326a53f8869d097fd6dbe0e6eb15a3e7f4fbe4ccf3c91931d9a4e9dcd3be0f0a124a73d8a6bd295ff6fbc0c6cb3583c7d4dbc4ecd3e93911f984c9fcf39e2f6a722a13b8c6dd493f969ba0a6ab55e3a7b4bba48cb389597199e4a99c93fe4f4a520a3398e6fd691fb6bb80868b75c387949b84ac93a97951b9c489bcb3de6faab2ead378061d89ff565b60666b95231d44e2dd875e98aa2da70b1b3a7c8cff5640607db51a3e40c82b9a09e463f23b",
        "type": "nulldata"
      }
    }
  ],
  "blockhash": "c0ea0e6b16ad20f35d4757cbcff39c3d199dbd7e252fa8e6bc9f3f36ee858c22",
  "confirmations": 1,
  "time": 1764183276,
  "blocktime": 1764183276
}