{
  "hex": "010000000001014b09d10cd0c5ee9e12d6237f67a19a3225b11cb3ac3d7c35b83f30504facea2e0000000000feffffff02c075fe6f792d0000225120660b2ff2a627f4032f455b83ce46cfd5402272ad21e81b0fa64830f95589e77300e1f50500000000fdd5046a20107354da6328d242d629799b9d477818377e83f27fd334a474df30cc065949194db004a44c320947aeed0dab8cacfc916ca3585175493f28ffc1b8a991f2f1f382dc90846c1229678ecd2d8bac8cdcb14c83787155691f08dfe19889b1d2d1d3a2fcb0e40c724907eead4debccecbcd12ce3181135097f68bf81f8e9d1b2b1b3c29cd0c42c526927ce8d6dcbeccc9cf10cc3383115295f489fa1d8c9f1929193e2bcf024ccb289c72e6d8d2b0c2c7c11ec23d8d1f5c9bfa87f41382911727173025c1004ec92a9e70e4dad0b2c0c5c31cc03f8f1d5e99f885f61180931525153227c30648cf2c9876e2dcd6b4c6c3c51ac639891b589ffe83f01786951323133421c5044acd2e9a74e0ded4b6c4c1c718c43b8b195a9dfc81f21584971121113623c70a44c320947aeed0dab8cacfc916ca3585175493f28ffc1b8a991f2f1f382dc90846c1229678ecd2d8bac8cdcb14c83787155691f08dfe19889b1d2d1d3a2fcb0e40c724907eead4debccecbcd12ce3181135097f68bf81f8e9d1b2b1b3c29cd0c42c526927ce8d6dcbeccc9cf10cc3383115295f489fa1d8c9f1929193e2bcf024ccb289c72e6d8d2b0c2c7c11ec23d8d1f5c9bfa87f41382911727173025c1004ec92a9e70e4dad0b2c0c5c31cc03f8f1d5e99f885f61180931525153227c30648cf2c9876e2dcd6b4c6c3c51ac639891b589ffe83f01786951323133421c5044acd2e9a74e0ded4b6c4c1c718c43b8b195a9dfc81f21584971121113623c70a44c320947aeed0dab8cacfc916ca3585175493f28ffc1b8a991f2f1f382dc90846c1229678ecd2d8bac8cdcb14c83787155691f08dfe19889b1d2d1d3a2fcb0e40c724907eead4debccecbcd12ce3181135097f68bf81f8e9d1b2b1b3c29cd0c42c526927ce8d6dcbeccc9cf10cc3383115295f489fa1d8c9f1929193e2bcf024ccb289c72e6d8d2b0c2c7c11ec23d8d1f5c9bfa87f41382911727173025c1004ec92a9e70e4dad0b2c0c5c31cc03f8f1d5e99f885f61180931525153227c30648cf2c9876e2dcd6b4c6c3c51ac639891b589ffe83f01786951323133421c5044acd2e9a74e0ded4b6c4c1c718c43b8b195a9dfc81f21584971121113623c70a44c320947aeed0dab8cacfc916ca3585175493f28ffc1b8a991f2f1f382dc90846c1229678ecd2d8bac8cdcb14c83787155691f08dfe19889b1d2d1d3a2fcb0e40c724907eead4debccecbcd12ce3181135097f68bf81f8e9d1b2b1b3c29cd0c42c526927ce8d6dcbeccc9cf10cc3383115295f489fa1d8c9f1929193e2bcf024ccb289c72e6d8d2b0c2c7c11ec23d8d1f5c9bfa87f41382911727173025c1004ec92a9e70e4dad0b2c0c5c31cc03f8f1d5e99f885f61180931525153227c30648cf2c9876e2dcd6b4c6c3c51ac639891b589ffe83f01786951323133421c5044acd2e9a74e0ded4b6c4c1c718c43b8b195a9dfc81f21584971121113623c70a44c320947aeed0dab8cacfc916ca3585175493f28ffc1b8a991f2f1f382dc90846c1229678ecd2d8bac8cdcb14c83787155691f08dfe19889b1d2d1d3a2fcb0e40c724907eead4debccecbcd12ce3181135097f68bf81f8e9d1b2b1b3c29cd0c42c526927ce8d6dcbeccc9cf10cc3383115295f489fa1d8c9f1929193e2bcf024ccb289c72e6d8d2b0c2c7c11ec23d8eb344eabfeb135b58c0181de4278b843accc3faadd9498d62450863429a8731b02fd7509aa11300631c3e39e346bc58c95a450b14675b8fa7d067b1846a30466f49b8381293edf07d3262403332bc2e442c5e76713ebaa669b93d7d81f204c98a8d2dd6f761e28ae9a5490ef810861d5cfb7e08c324740ca0fd7ddb35af4a699ad3f833329243e0b27d17beb30224ad695a50fb68837d8a105d4c1b792e9ceb7182bcbb5f16e2679e930ab89caf80b8802ecfe399d4453a80262ba33b96c9871deff8f0241836327e908a9af105e6203607ce7daf149976f734b8dea8d20f35e5db602df756eff79b72ff1e711d7f6a9cb1d687a59527f092059635bc052d5567572acfb6652b315a8378c08196062b6dd1c419d57f3c33b51ce890a313fdd339358608ca1cf3edc6d5166d6e7acb97fe69a8885a6ef4180529793bf58293247cf4b4be44264a704bd7540e31c76a73c91a8862f728c0fbff19f05c8ef52f159b407022ffe771305202f5e37115b8c71ce578cc425b7f341265b048c73478542cc3e4230f23463ae86f6be5562e41f4ef8feb132a8641a6be63d3668e821a20cd18307ce3a2d434275b8af668da14e1ca24073d1ffb1e89f8286bc9f8e263c56db1b5073a1c64447671b99975ba14b016d9f4946ccaa1c78047ea781c5f29edd951b3be253583a788cbf96647b0a19ae5d9492d9362b44996645330c21ad4fa9ecfc4e5bf150ed6f2080eb9ff366988fe45db38064e686de81b41e5993cf6aee6e043723dbcee8fa96443e945d4f3479acf2e9e2013872206cf61e2017e80b69a895b668a1347c3769c93bbf6c66f31e0b6993539f2fed440148533478f1cf7ae18878dcac57111f914299abd862d3feec32fc50a01ba28b62bf8bcb25f06f040c371cc55f4d975da9560f3aacf36976bfa47e86974bf0ad5213e73c5f13438ef4ec87cdb81923526c305f903f668951892836659889ef49def61493643c74358becb800ac06c85adac26170a560f5974fd6c86918c85364387eac0305a9d24c9589ff236f641e265af743a25ddb7d2220994a1494d891fecb34c54ccdb42c878ff77c36794b155e8d0e9f49a3045d17a2a89cf26e6d90e6031b4183cb90c59541b2a217ab13d910ac982e7d7da1dcd44215784b7e8f7c0b82502241c774b5cce8db9c461ffc85ca873f752ab6ad22a58c88a50834c9cc0895c4d98e9e9f87fddf527cbf2db3f13d25dc3884b38ccb3426db6bdcdc2612aacb7225654c369357e27552b48307e8cedda183bd823e10d2ba524576d0acd8ff485b28b09c70439677f6f71c5e860670ecaf0dbb94c1df76c4e57e0f81cc11a097e4ced2c2f89af1420e5b953252b92168ea4a8da7790a019668a23c6b64bf001cc1ef84cbff0b552adfa64c2e55c9d7eea5c891d0a2221d34bc1f14cd1e7f1e8860431dbd0146a643d64cd37ba9ec4891129e5f754f7a5cb42196f195d8449b6e5af7d35d5130452c9628aadb07f945a0a035df9c2c99ec34181bc15332dc116edea590fcbf201791849946678b84045294f5ac464360ea81d21ea9e329816fdd3f9f870c4498bedd839c4e0b974965967c6946506f9cdd6b0d6315edd642e02d5cccff503cb4848d68e95d5e4e2611b9083376c1db9e81768d9ffec2467c83c5ddb862f082fbd50289dcec19bcebc81e4eb18204c9f11a89086a877692e68e0583ce3af8f473e6267d523257de7898029e0c9c19e8426fec37e3dc913836b0a645ad316def80047850f5924edca6c2051fbd8c6247df0015de74599ed1941ccbe634318773684fa62cfa8e07fe0e3920b52cedb5099e50b8c8c2ac1141abd250b4c22cb4e37066679a14de1e3c1a7763adc41c0437f0a9797fd72c5e196f41e591dc2832f75f4c940fad5abf8d90754ab15d1a845da3b8a778acf460a485853d1351429434eee98b729a23c9d719fb5289d58f1600b69067fcb11facd759dec9050f4e6752ff1b7bcb1827cba3d73a10eb07ecc8f12d535da98ef35591f1cf38043aacc5a8364abb5e83c0b0bac129157ecc564f0887ca1844be9e56b2c83f581081529ce1f8ae4e6663e6cf2340bc654fc91609567fcba8caeb16f63f3ddb7d5ba2e6f8133adbff4f43015d815b8d46e91a48bd9a55e027abd0ac53a7bcb7212d31df3ef4d914a392bf1cf46f6133228e995c7771f673f7614a3cb42317bf0495f9555802b2d6fa284acefb871d83495d0ee13c6a1f916f2c741f57eb7ca5c207fa318afd6f4784912cbf4c6b0f831f4ef05485f18e05bda43b19360c4fda75838e75ad73bac38c884111f4d461dc616d748894073b1571feb9da38154a7c424896fa56ad6932a6e1df0d9f54b0d25d464ba1554429869c813a19cef5f731e909ff12b8f037599eceb861254a8d37651ce1497b78c1d7062b9b215ba12aa235b75fe66e3ae20da40e718ccc50b9c1604fe913cd012016918b7ba6eaafb98b18161e9b9452907394cdce42406a02cc508bff7db38d60f554e6ad4791d99355564f6a92ccb40dd9bee953a999d013cb6f8267cfdee65b6e9cfe5905df904e03f05ce9e098589561fe472c13c1b2ff2d256989bf77f6dcf253c3396e61045ba56c08eca713b45bf513b31fcff362feacc19c55dddb29aa492d99b06ca6c2fcdd66386fab6ea745e342a2a884b241e1fa640a949f21531427339228fe8ff4a4e2c44749c719fb97538e693dc4b5d837e571ca39ad2a623f08f6c4e96ece364bf466270f0bc95d96401ae7e752ac704f4223a13ff67b639372e49ff6ff6c071e78ce6614bc4c1faf0312af80758e9503ddc88470ddbd7a7d304d23b888b96adb2d81c3783fbab999f74005b417283201eb9d6240c33d86fc81751c8663123c4ef44748a23b5ea4311fc169c7b4d048cae9723be92cec1a1dfa429ef737eec31aee28090fdc45c04ef38003ca3ac25b14535053778ea929765e0f011d72837d53d6ded8d394c74f3c67b77ca1be1ca711c07442c64b0fef1b5693c73f8ffce92d1888aaf2156e1feec710d22c5717b7e1b102b5fba5911052d88ebcc09ccf9603bb02e10221b0968face807e1604684aa473d50637b33f0aceed8c91d4550585fc381686c7bb98d40a83e358facae8810e9173395a6056e081a2e38bc5d3c4c0f9adc7435399b75ce81c7d999b2a830f190a504c159574e99c37c8afd51061cbdbcbd8b87447f8f680646c8d07668af998213ab3a1fd7e12b6e498eef78fddad20542fa756fd812d6a90d83e1d926c52fea4f1ccd72220fcabc8a686bd2ca94867862fef3371d2ac6cdcb8d612daf9042e65d3d6ddb01b8e5fcd1462a3cbdbb370454b8b31bdc09fb72008f593816244043444a4b626667717886889192abd6e3f3060e10313f424368748f9098a7abaeafb1bfc0e9f7fdfe0022272c2e5565729c9ea6c3ebecf7fd04123c4d58677d868894c4c5c8dee1f3f700000000142b3b4c01fd210500e5e73471435c096565d4de3e2d979d873c28bc30ee2504b72e1bedfba2314b488b312fb77aec3be2dfd2b504d87345fb074b02740f2924b62802cd0fcbad1d2fd6fd9d8a51cccf941f9e349a2b24e60862aaf433c248ce877b43cd4f4f28192f91a5cdba24de5c221757c71bc9280f47946b3363679c99e877005270c7dca12579ea3cfd034d49294a5c152c852795c59ef65f8cb677a96a76199f9c72e84149e0c245c2fd936135a627ca3e69448285dc407d1df745a403b1243c1176be336ca3a3247d5e88524c178a5365a06560711157c889d56e29608c1d19cf1fc47c75f01d5617895ad1d9f7a41a931975d882140fbd3f4adc808f329735138f4808d5f16cf4790fe769d8d54f2a6bc10454384c1a0ee6112442b323b104d5c0ef79ac124190d635df279f413253237b12cd1a25f21f2510cfaca643cf99faad49648e0ddce1ec8316d553718cae42338bbfe0e757964b59042a2da982ae988ebc073b8c4b9345129612d58c9f6ff2b8320ce47110b7bd98d590f0282bfc0f550b0e190255a3c70df1a2a592d07b51c069de6da6f825959fd9e3993ad57b835bbfd108aeea8ad53f0a437400dde3a30567cc9ae28b02d9249a72d5e504135a0aaade57c001cec96828a20aed328bce7bdbc5726440f969c81b8aace8cf11246307bd9c6096337dce4fe0894f83bfe24cfb8f44cd94beae6c187922d3aeb5f5026c35c31783bff26fd58344cb6fa838efd5438b3ee1cb38c66b43d04edd20636d8ea7aba1bc574069ab04f068368e333e847be39cebe2e19ac04d9ccef3491498170a9146d360a5a13ef3a7e92e6c0aa54614734a7388c57c93ee6db149d6705be8eaa62df065e146e860cb908f2655e1cfb1d58363739c590b1ef7c93b3f0356860a9da1f788b48d5e120ddd1e7adbca5adfb35610cfa21a766ca189a9e815d8301db9dcfb33f9928d0d79824d0259e1bdef88d03ab987825a304fb1f7d045608b9392739044b7738038416e00396d624ee58c098c9e145706e8d0e2a244ec91af72144f9049b254c52937c6db341249fb63ae72d8667aa36524b4529ac73c1bc9ee02ae94b643a6b5b0777bc6c8abf7661dab9fd01fe05965d48530be3b603850cd565c695a57ddd0e825880317b6743b8e23a2c039b1bc5725db943a59ddb03e5319bf011110e9a1172e9c3d5f39e0455f4f8dd22d05de49e69328f6d4120df736ab7788909a6e5041a7fda834f6d12cbf1c4c54aae43c7ec4c0cf794fa6abfec129086ac579b9df6d79118388a15d00dd46b31be94e96419ed5f03a64cbdad0607ede631a26b64968242e5d859dd760c8e5b692fdff4ddf7f720b31b92e65d22458ba1d1039972fe6f1f0aa75a00f76e6412f9546438a7dd83222e00ad446033f93ab875d58b23f46129979d489dc9708ba0ea54c48bfd58ba561c6cda34e71d5649e3da7eb801ea85284295537da779628ca0bce221532aaa6ca079645e2825a743ce278bb453e358f889e3cf75fb91a2e746a35e80b4a6f2632e2a701bdcbec6147d86e96079f7642baa13abd92e405e06d3a5fbe3a995b31e05f3989caa28fc3f632f5ef56d20981c118edf21625acac0ae493967d1e9445ddce54ffd9ed2078bf32f049b71a4be5c7211502119c1a0773dae442a24d582a7701b075ca52a40ac9c4ca7715ad7b765850fad71adf62416c33fd0d6750fdc4a0fd9815b1b19cad9d9d4a84a63dd962575381cf6a8476185466d49b786211bdd491790ce3ff79fc52cff6de8920e2578e64b67cacea2a8cbaf348ef1dc1085063e7672dab171b1b886beedcbf3b896db133f47c3a57be7b8286265c66ea7c0d43cf3d8290096dbd68000000",
  "txid": "faa599ef4222892f0798bc1776a35cb1cc0b8eaf8f31ae001a91d50fb251590b",
  "hash": "f021ad8d1255a81b937ea253824ccbaf07b9b0eac0d4f76034b9accfaa32e6f5",
  "size": 5085,
  "vsize": 2278,
  "version": 1,
  "locktime": 104,
  "vin": [
    {
      "txid": "2eeaac4f50303fb8357c3dacb31cb125329aa1677f23d6129eeec5d00cd1094b",
      "vout": 0,
      "scriptSig": {
        "asm": "",
        "hex": ""
      },
      "txinwitness": [
        "aa11300631c3e39e346bc58c95a450b14675b8fa7d067b1846a30466f49b8381293edf07d3262403332bc2e442c5e76713ebaa669b93d7d81f204c98a8d2dd6f761e28ae9a5490ef810861d5cfb7e08c324740ca0fd7ddb35af4a699ad3f833329243e0b27d17beb30224ad695a50fb68837d8a105d4c1b792e9ceb7182bcbb5f16e2679e930ab89caf80b8802ecfe399d4453a80262ba33b96c9871deff8f0241836327e908a9af105e6203607ce7daf149976f734b8dea8d20f35e5db602df756eff79b72ff1e711d7f6a9cb1d687a59527f092059635bc052d5567572acfb6652b315a8378c08196062b6dd1c419d57f3c33b51ce890a313fdd339358608ca1cf3edc6d5166d6e7acb97fe69a8885a6ef4180529793bf58293247cf4b4be44264a704bd7540e31c76a73c91a8862f728c0fbff19f05c8ef52f159b407022ffe771305202f5e37115b8c71ce578cc425b7f341265b048c73478542cc3e4230f23463ae86f6be5562e41f4ef8feb132a8641a6be63d3668e821a20cd18307ce3a2d434275b8af668da14e1ca24073d1ffb1e89f8286bc9f8e263c56db1b5073a1c64447671b99975ba14b016d9f4946ccaa1c78047ea781c5f29edd951b3be253583a788cbf96647b0a19ae5d9492d9362b44996645330c21ad4fa9ecfc4e5bf150ed6f2080eb9ff366988fe45db38064e686de81b41e5993cf6aee6e043723dbcee8fa96443e945d4f3479acf2e9e2013872206cf61e2017e80b69a895b668a1347c3769c93bbf6c66f31e0b6993539f2fed440148533478f1cf7ae18878dcac57111f914299abd862d3feec32fc50a01ba28b62bf8bcb25f06f040c371cc55f4d975da9560f3aacf36976bfa47e86974bf0ad5213e73c5f13438ef4ec87cdb81923526c305f903f668951892836659889ef49def61493643c74358becb800ac06c85adac26170a560f5974fd6c86918c85364387eac0305a9d24c9589ff236f641e265af743a25ddb7d2220994a1494d891fecb34c54ccdb42c878ff77c36794b155e8d0e9f49a3045d17a2a89cf26e6d90e6031b4183cb90c59541b2a217ab13d910ac982e7d7da1dcd44215784b7e8f7c0b82502241c774b5cce8db9c461ffc85ca873f752ab6ad22a58c88a50834c9cc0895c4d98e9e9f87fddf527cbf2db3f13d25dc3884b38ccb3426db6bdcdc2612aacb7225654c369357e27552b48307e8cedda183bd823e10d2ba524576d0acd8ff485b28b09c70439677f6f71c5e860670ecaf0dbb94c1df76c4e57e0f81cc11a097e4ced2c2f89af1420e5b953252b92168ea4a8da7790a019668a23c6b64bf001cc1ef84cbff0b552adfa64c2e55c9d7eea5c891d0a2221d34bc1f14cd1e7f1e8860431dbd0146a643d64cd37ba9ec4891129e5f754f7a5cb42196f195d8449b6e5af7d35d5130452c9628aadb07f945a0a035df9c2c99ec34181bc15332dc116edea590fcbf201791849946678b84045294f5ac464360ea81d21ea9e329816fdd3f9f870c4498bedd839c4e0b974965967c6946506f9cdd6b0d6315edd642e02d5cccff503cb4848d68e95d5e4e2611b9083376c1db9e81768d9ffec2467c83c5ddb862f082fbd50289dcec19bcebc81e4eb18204c9f11a89086a877692e68e0583ce3af8f473e6267d523257de7898029e0c9c19e8426fec37e3dc913836b0a645ad316def80047850f5924edca6c2051fbd8c6247df0015de74599ed1941ccbe634318773684fa62cfa8e07fe0e3920b52cedb5099e50b8c8c2ac1141abd250b4c22cb4e37066679a14de1e3c1a7763adc41c0437f0a9797fd72c5e196f41e591dc2832f75f4c940fad5abf8d90754ab15d1a845da3b8a778acf460a485853d1351429434eee98b729a23c9d719fb5289d58f1600b69067fcb11facd759dec9050f4e6752ff1b7bcb1827cba3d73a10eb07ecc8f12d535da98ef35591f1cf38043aacc5a8364abb5e83c0b0bac129157ecc564f0887ca1844be9e56b2c83f581081529ce1f8ae4e6663e6cf2340bc654fc91609567fcba8caeb16f63f3ddb7d5ba2e6f8133adbff4f43015d815b8d46e91a48bd9a55e027abd0ac53a7bcb7212d31df3ef4d914a392bf1cf46f6133228e995c7771f673f7614a3cb42317bf0495f9555802b2d6fa284acefb871d83495d0ee13c6a1f916f2c741f57eb7ca5c207fa318afd6f4784912cbf4c6b0f831f4ef05485f18e05bda43b19360c4fda75838e75ad73bac38c884111f4d461dc616d748894073b1571feb9da38154a7c424896fa56ad6932a6e1df0d9f54b0d25d464ba1554429869c813a19cef5f731e909ff12b8f037599eceb861254a8d37651ce1497b78c1d7062b9b215ba12aa235b75fe66e3ae20da40e718ccc50b9c1604fe913cd012016918b7ba6eaafb98b18161e9b9452907394cdce42406a02cc508bff7db38d60f554e6ad4791d99355564f6a92ccb40dd9bee953a999d013cb6f8267cfdee65b6e9cfe5905df904e03f05ce9e098589561fe472c13c1b2ff2d256989bf77f6dcf253c3396e61045ba56c08eca713b45bf513b31fcff362feacc19c55dddb29aa492d99b06ca6c2fcdd66386fab6ea745e342a2a884b241e1fa640a949f21531427339228fe8ff4a4e2c44749c719fb97538e693dc4b5d837e571ca39ad2a623f08f6c4e96ece364bf466270f0bc95d96401ae7e752ac704f4223a13ff67b639372e49ff6ff6c071e78ce6614bc4c1faf0312af80758e9503ddc88470ddbd7a7d304d23b888b96adb2d81c3783fbab999f74005b417283201eb9d6240c33d86fc81751c8663123c4ef44748a23b5ea4311fc169c7b4d048cae9723be92cec1a1dfa429ef737eec31aee28090fdc45c04ef38003ca3ac25b14535053778ea929765e0f011d72837d53d6ded8d394c74f3c67b77ca1be1ca711c07442c64b0fef1b5693c73f8ffce92d1888aaf2156e1feec710d22c5717b7e1b102b5fba5911052d88ebcc09ccf9603bb02e10221b0968face807e1604684aa473d50637b33f0aceed8c91d4550585fc381686c7bb98d40a83e358facae8810e9173395a6056e081a2e38bc5d3c4c0f9adc7435399b75ce81c7d999b2a830f190a504c159574e99c37c8afd51061cbdbcbd8b87447f8f680646c8d07668af998213ab3a1fd7e12b6e498eef78fddad20542fa756fd812d6a90d83e1d926c52fea4f1ccd72220fcabc8a686bd2ca94867862fef3371d2ac6cdcb8d612daf9042e65d3d6ddb01b8e5fcd1462a3cbdbb370454b8b31bdc09fb72008f593816244043444a4b626667717886889192abd6e3f3060e10313f424368748f9098a7abaeafb1bfc0e9f7fdfe0022272c2e5565729c9ea6c3ebecf7fd04123c4d58677d868894c4c5c8dee1f3f700000000142b3b4c01",
        "00e5e73471435c096565d4de3e2d979d873c28bc30ee2504b72e1bedfba2314b488b312fb77aec3be2dfd2b504d87345fb074b02740f2924b62802cd0fcbad1d2fd6fd9d8a51cccf941f9e349a2b24e60862aaf433c248ce877b43cd4f4f28192f91a5cdba24de5c221757c71bc9280f47946b3363679c99e877005270c7dca12579ea3cfd034d49294a5c152c852795c59ef65f8cb677a96a76199f9c72e84149e0c245c2fd936135a627ca3e69448285dc407d1df745a403b1243c1176be336ca3a3247d5e88524c178a5365a06560711157c889d56e29608c1d19cf1fc47c75f01d5617895ad1d9f7a41a931975d882140fbd3f4adc808f329735138f4808d5f16cf4790fe769d8d54f2a6bc10454384c1a0ee6112442b323b104d5c0ef79ac124190d635df279f413253237b12cd1a25f21f2510cfaca643cf99faad49648e0ddce1ec8316d553718cae42338bbfe0e757964b59042a2da982ae988ebc073b8c4b9345129612d58c9f6ff2b8320ce47110b7bd98d590f0282bfc0f550b0e190255a3c70df1a2a592d07b51c069de6da6f825959fd9e3993ad57b835bbfd108aeea8ad53f0a437400dde3a30567cc9ae28b02d9249a72d5e504135a0aaade57c001cec96828a20aed328bce7bdbc5726440f969c81b8aace8cf11246307bd9c6096337dce4fe0894f83bfe24cfb8f44cd94beae6c187922d3aeb5f5026c35c31783bff26fd58344cb6fa838efd5438b3ee1cb38c66b43d04edd20636d8ea7aba1bc574069ab04f068368e333e847be39cebe2e19ac04d9ccef3491498170a9146d360a5a13ef3a7e92e6c0aa54614734a7388c57c93ee6db149d6705be8eaa62df065e146e860cb908f2655e1cfb1d58363739c590b1ef7c93b3f0356860a9da1f788b48d5e120ddd1e7adbca5adfb35610cfa21a766ca189a9e815d8301db9dcfb33f9928d0d79824d0259e1bdef88d03ab987825a304fb1f7d045608b9392739044b7738038416e00396d624ee58c098c9e145706e8d0e2a244ec91af72144f9049b254c52937c6db341249fb63ae72d8667aa36524b4529ac73c1bc9ee02ae94b643a6b5b0777bc6c8abf7661dab9fd01fe05965d48530be3b603850cd565c695a57ddd0e825880317b6743b8e23a2c039b1bc5725db943a59ddb03e5319bf011110e9a1172e9c3d5f39e0455f4f8dd22d05de49e69328f6d4120df736ab7788909a6e5041a7fda834f6d12cbf1c4c54aae43c7ec4c0cf794fa6abfec129086ac579b9df6d79118388a15d00dd46b31be94e96419ed5f03a64cbdad0607ede631a26b64968242e5d859dd760c8e5b692fdff4ddf7f720b31b92e65d22458ba1d1039972fe6f1f0aa75a00f76e6412f9546438a7dd83222e00ad446033f93ab875d58b23f46129979d489dc9708ba0ea54c48bfd58ba561c6cda34e71d5649e3da7eb801ea85284295537da779628ca0bce221532aaa6ca079645e2825a743ce278bb453e358f889e3cf75fb91a2e746a35e80b4a6f2632e2a701bdcbec6147d86e96079f7642baa13abd92e405e06d3a5fbe3a995b31e05f3989caa28fc3f632f5ef56d20981c118edf21625acac0ae493967d1e9445ddce54ffd9ed2078bf32f049b71a4be5c7211502119c1a0773dae442a24d582a7701b075ca52a40ac9c4ca7715ad7b765850fad71adf62416c33fd0d6750fdc4a0fd9815b1b19cad9d9d4a84a63dd962575381cf6a8476185466d49b786211bdd491790ce3ff79fc52cff6de8920e2578e64b67cacea2a8cbaf348ef1dc1085063e7672dab171b1b886beedcbf3b896db133f47c3a57be7b8286265c66ea7c0d43cf3d8290096dbd"
      ],
      "sequence": 4294967294
    }
  ],
  "vout": [
    {
      "value": 499995.9324,
      "n": 0,
      "scriptPubKey": {
        "asm": "1 660b2ff2a627f4032f455b83ce46cfd5402272ad21e81b0fa64830f95589e773",
        "hex": "5120660b2ff2a627f4032f455b83ce46cfd5402272ad21e81b0fa64830f95589e773",
        "reqSigs": 1,
        "type": "witness_v1_scripthash",
        "addresses": [
          "3QJmnh"
        ]
      }
    },
    {
      "value": 1.0,
      "n": 1,
      "scriptPubKey": {
        "asm": "OP_RETURN 107354da6328d242d629799b9d477818377e83f27fd334a474df30cc06594919 a44c320947aeed0dab8cacfc916ca3585175493f28ffc1b8a991f2f1f382dc90846c1229678ecd2d8bac8cdcb14c83787155691f08dfe19889b1d2d1d3a2fcb0e40c724907eead4debccecbcd12ce3181135097f68bf81f8e9d1b2b1b3c29cd0c42c526927ce8d6dcbeccc9cf10cc3383115295f489fa1d8c9f1929193e2bcf024ccb289c72e6d8d2b0c2c7c11ec23d8d1f5c9bfa87f41382911727173025c1004ec92a9e70e4dad0b2c0c5c31cc03f8f1d5e99f885f61180931525153227c30648cf2c9876e2dcd6b4c6c3c51ac639891b589ffe83f01786951323133421c5044acd2e9a74e0ded4b6c4c1c718c43b8b195a9dfc81f21584971121113623c70a44c320947aeed0dab8cacfc916ca3585175493f28ffc1b8a991f2f1f382dc90846c1229678ecd2d8bac8cdcb14c83787155691f08dfe19889b1d2d1d3a2fcb0e40c724907eead4debccecbcd12ce3181135097f68bf81f8e9d1b2b1b3c29cd0c42c526927ce8d6dcbeccc9cf10cc3383115295f489fa1d8c9f1929193e2bcf024ccb289c72e6d8d2b0c2c7c11ec23d8d1f5c9bfa87f41382911727173025c1004ec92a9e70e4dad0b2c0c5c31cc03f8f1d5e99f885f61180931525153227c30648cf2c9876e2dcd6b4c6c3c51ac639891b589ffe83f01786951323133421c5044acd2e9a74e0ded4b6c4c1c718c43b8b195a9dfc81f21584971121113623c70a44c320947aeed0dab8cacfc916ca3585175493f28ffc1b8a991f2f1f382dc90846c1229678ecd2d8bac8cdcb14c83787155691f08dfe19889b1d2d1d3a2fcb0e40c724907eead4debccecbcd12ce3181135097f68bf81f8e9d1b2b1b3c29cd0c42c526927ce8d6dcbeccc9cf10cc3383115295f489fa1d8c9f1929193e2bcf024ccb289c72e6d8d2b0c2c7c11ec23d8d1f5c9bfa87f41382911727173025c1004ec92a9e70e4dad0b2c0c5c31cc03f8f1d5e99f885f61180931525153227c30648cf2c9876e2dcd6b4c6c3c51ac639891b589ffe83f01786951323133421c5044acd2e9a74e0ded4b6c4c1c718c43b8b195a9dfc81f21584971121113623c70a44c320947aeed0dab8cacfc916ca3585175493f28ffc1b8a991f2f1f382dc90846c1229678ecd2d8bac8cdcb14c83787155691f08dfe19889b1d2d1d3a2fcb0e40c724907eead4debccecbcd12ce3181135097f68bf81f8e9d1b2b1b3c29cd0c42c526927ce8d6dcbeccc9cf10cc3383115295f489fa1d8c9f1929193e2bcf024ccb289c72e6d8d2b0c2c7c11ec23d8d1f5c9bfa87f41382911727173025c1004ec92a9e70e4dad0b2c0c5c31cc03f8f1d5e99f885f61180931525153227c30648cf2c9876e2dcd6b4c6c3c51ac639891b589ffe83f01786951323133421c5044acd2e9a74e0ded4b6c4c1c718c43b8b195a9dfc81f21584971121113623c70a44c320947aeed0dab8cacfc916ca3585175493f28ffc1b8a991f2f1f382dc90846c1229678ecd2d8bac8cdcb14c83787155691f08dfe19889b1d2d1d3a2fcb0e40c724907eead4debccecbcd12ce3181135097f68bf81f8e9d1b2b1b3c29cd0c42c526927ce8d6dcbeccc9cf10cc3383115295f489fa1d8c9f1929193e2bcf024ccb289c72e6d8d2b0c2c7c11ec23d8eb344eabfeb135b58c0181de4278b843accc3faadd9498d62450863429a8731b",
        "hex": "6a20107354da6328d242d629799b9d477818377e83f27fd334a474df30cc065949194db004a44c320947aeed0dab8cacfc916ca3585175493f28ffc1b8a991f2f1f382dc90846c1229678ecd2d8bac8cdcb14c83787155691f08dfe19889b1d2d1d3a2fcb0e40c724907eead4debccecbcd12ce3181135097f68bf81f8e9d1b2b1b3c29cd0c42c526927ce8d6dcbeccc9cf10cc3383115295f489fa1d8c9f1929193e2bcf024ccb289c72e6d8d2b0c2c7c11ec23d8d1f5c9bfa87f41382911727173025c1004ec92a9e70e4dad0b2c0c5c31cc03f8f1d5e99f885f61180931525153227c30648cf2c9876e2dcd6b4c6c3c51ac639891b589ffe83f01786951323133421c5044acd2e9a74e0ded4b6c4c1c718c43b8b195a9dfc81f21584971121113623c70a44c320947aeed0dab8cacfc916ca3585175493f28ffc1b8a991f2f1f382dc90846c1229678ecd2d8bac8cdcb14c83787155691f08dfe19889b1d2d1d3a2fcb0e40c724907eead4debccecbcd12ce3181135097f68bf81f8e9d1b2b1b3c29cd0c42c526927ce8d6dcbeccc9cf10cc3383115295f489fa1d8c9f1929193e2bcf024ccb289c72e6d8d2b0c2c7c11ec23d8d1f5c9bfa87f41382911727173025c1004ec92a9e70e4dad0b2c0c5c31cc03f8f1d5e99f885f61180931525153227c30648cf2c9876e2dcd6b4c6c3c51ac639891b589ffe83f01786951323133421c5044acd2e9a74e0ded4b6c4c1c718c43b8b195a9dfc81f21584971121113623c70a44c320947aeed0dab8cacfc916ca3585175493f28ffc1b8a991f2f1f382dc90846c1229678ecd2d8bac8cdcb14c83787155691f08dfe19889b1d2d1d3a2fcb0e40c724907eead4debccecbcd12ce3181135097f68bf81f8e9d1b2b1b3c29cd0c42c526927ce8d6dcbeccc9cf10cc3383115295f489fa1d8c9f1929193e2bcf024ccb289c72e6d8d2b0c2c7c11ec23d8d1f5c9bfa87f41382911727173025c1004ec92a9e70e4dad0b2c0c5c31cc03f8f1d5e99f885f61180931525153227c30648cf2c9876e2dcd6b4c6c3c51ac639891b589ffe83f01786951323133421c5044acd2e9a74e0ded4b6c4c1c718c43b8b195a9dfc81f21584971121113623c70a44c320947aeed0dab8cacfc916ca3585175493f28ffc1b8a991f2f1f382dc90846c1229678ecd2d8bac8cdcb14c83787155691f08dfe19889b1d2d1d3a2fcb0e40c724907eead4debccecbcd12ce3181135097f68bf81f8e9d1b2b1b3c29cd0c42c526927ce8d6dcbeccc9cf10cc3383115295f489fa1d8c9f1929193e2bcf024ccb289c72e6d8d2b0c2c7c11ec23d8d1f5c9bfa87f41382911727173025c1004ec92a9e70e4dad0b2c0c5c31cc03f8f1d5e99f885f61180931525153227c30648cf2c9876e2dcd6b4c6c3c51ac639891b589ffe83f01786951323133421c5044acd2e9a74e0ded4b6c4c1c718c43b8b195a9dfc81f21584971121113623c70a44c320947aeed0dab8cacfc916ca3585175493f28ffc1b8a991f2f1f382dc90846c1229678ecd2d8bac8cdcb14c83787155691f08dfe19889b1d2d1d3a2fcb0e40c724907eead4debccecbcd12ce3181135097f68bf81f8e9d1b2b1b3c29cd0c42c526927ce8d6dcbeccc9cf10cc3383115295f489fa1d8c9f1929193e2bcf024ccb289c72e6d8d2b0c2c7c11ec23d8eb344eabfeb135b58c0181de4278b843accc3faadd9498d62450863429a8731b",
        "type": "nulldata"
      }
    }
  ],
  "blockhash": "32a2d379a33ec88ae1cb3a8a1a44f2d12b76aebf574ecf7ac16b289397ed6cd9",
  "confirmations": 1,
  "time": 1764176557,
  "blocktime": 1764176557
}