{
  "hex": "01000000000101d7b124b17dea674645b60f0a35bc40f2a0f7a89bd4f73175187079c71d4841830100000000feffffff0260cda5ea782d0000225120333710b4ccbec11e4fcad077b0977e0f70d17f0fa80f3684cdf64b03db36110c00e1f50500000000fdd5046a203640f1b923f20af8d69ade95d4034763489761d9365321a4cdc508c11d55ce734db00472d7ad2053f62b56a8d8828d1c718f54b44a92a300cd8100b1a78f50ffd0bc0652f78d0073d60b7688f8a2ad3c51af74946ab28320eda1209187af70dff09c263297ed6013b66b16e898c2cd5c31cf14f40ad2e3408dc140f1e7cf10bf90fc4612b7cd4033964b36c8b8e2ed7c11ef34d42af2c360ade160d1c7ef309fb0dc66f2572da0d376abd62858020d9cf10fd434ca1223804d018031270fd07f503c86d2770d80f3568bf60878222dbcd12ff414ea3203a06d21a011072ff05f701ca6b2176de09336eb966818424ddcb14f94748a5263c00d41c071674f903f107cc692374dc0b316cbb64838626dfc916fb454aa7243e02d61e051476fb01f305ce672d7ad2053f62b56a8d8828d1c718f54b44a92a300cd8100b1a78f50ffd0bc0652f78d0073d60b7688f8a2ad3c51af74946ab28320eda1209187af70dff09c263297ed6013b66b16e898c2cd5c31cf14f40ad2e3408dc140f1e7cf10bf90fc4612b7cd4033964b36c8b8e2ed7c11ef34d42af2c360ade160d1c7ef309fb0dc66f2572da0d376abd62858020d9cf10fd434ca1223804d018031270fd07f503c86d2770d80f3568bf60878222dbcd12ff414ea3203a06d21a011072ff05f701ca6b2176de09336eb966818424ddcb14f94748a5263c00d41c071674f903f107cc692374dc0b316cbb64838626dfc916fb454aa7243e02d61e051476fb01f305ce672d7ad2053f62b56a8d8828d1c718f54b44a92a300cd8100b1a78f50ffd0bc0652f78d0073d60b7688f8a2ad3c51af74946ab28320eda1209187af70dff09c263297ed6013b66b16e898c2cd5c31cf14f40ad2e3408dc140f1e7cf10bf90fc4612b7cd4033964b36c8b8e2ed7c11ef34d42af2c360ade160d1c7ef309fb0dc66f2572da0d376abd62858020d9cf10fd434ca1223804d018031270fd07f503c86d2770d80f3568bf60878222dbcd12ff414ea3203a06d21a011072ff05f701ca6b2176de09336eb966818424ddcb14f94748a5263c00d41c071674f903f107cc692374dc0b316cbb64838626dfc916fb454aa7243e02d61e051476fb01f305ce672d7ad2053f62b56a8d8828d1c718f54b44a92a300cd8100b1a78f50ffd0bc0652f78d0073d60b7688f8a2ad3c51af74946ab28320eda1209187af70dff09c263297ed6013b66b16e898c2cd5c31cf14f40ad2e3408dc140f1e7cf10bf90fc4612b7cd4033964b36c8b8e2ed7c11ef34d42af2c360ade160d1c7ef309fb0dc66f2572da0d376abd62858020d9cf10fd434ca1223804d018031270fd07f503c86d2770d80f3568bf60878222dbcd12ff414ea3203a06d21a011072ff05f701ca6b2176de09336eb966818424ddcb14f94748a5263c00d41c071674f903f107cc692374dc0b316cbb64838626dfc916fb454aa7243e02d61e051476fb01f305ce672d7ad2053f62b56a8d8828d1c718f54b44a92a300cd8100b1a78f50ffd0bc0652f78d0073d60b7688f8a2ad3c51af74946ab28320eda1209187af70dff09c263297ed6013b66b16e898c2cd5c31cf14f40ad2e3408dc140f1e7cf10bf90fc4612b7cd4033964b36c8b8e2ed7c11ef34d42af2c360ade160d1c7ef309fb0dc66f2572da0d376abd62858020d9cf10fd4f3b1f3c76633179ae8f55e70956ea0762b0d1fc629561f4a41c4e6b303f6040f02fd750997d5166d57de708ac5ea9a65ff5ae256223bea5347b239b8615b5ba27b9d220b99a94ba54cd92650b2653bc22649545a35c326d9d7fb94f5107e373a95db6ec1b1468c174f7aae648407a91728a193c02d9257a35e1e5709a2e2c2d1a5e1e9653b1c5f57e3390d06b77fd2074e114a2bf97089aaa28fc1d4871c85a9e0fc3d74a0dd2e986070327f876e5f6e9887cb252546f73532f751a6b13701a584f94e12a79ab94aba8378147fa1bdc3b253b3502b9025b2cba4f52b3dbaacaf0a87fb7a557daaa6140fc79fe5cb9d659e94383cb435a9ce82a4fcf799d3dca83aad3b98b15ba8eae5c8fab9f25e8226664a09bb3ea46302f777ef214c448ba1e36efacdce2b903c139516fd76a18b60d7505b6fabac276beb961f12c1932618aa4b7a72404767133f74d0cf7404f69cf754015ba740c47a672ba85a3d6f446edf002ec2bca626db1eb89993bc276c967efcefe9f58177434bdd2cad14adc573d0e2ecfca12c3e962d582e3a9fa1bda563d6f726f97af3755e95e7a1d62cb96af9c34729667b2fdc0a5a9da7611f8f5a4d22c322077e0857c1c804a6b99798410833fc32adfc3fd0ba47a6555dcd7110ba772d885d2eea0532929efd406fa6c4be0e2db25c41fa4dc7cb872f37eedf935f8b3c77a96b240f97ab2bbfc5d2a0078f368f7e071ea561d158948049d042be9a4bbe8741dbb7aa97404c3e9f61e37654acd7f0fae9daf187450b9a7ceb68deb4aaaf84c46ffd1fab36b7fb2a7d119f990ab6b7ec9c9783318f8fe8747b1e1adadf50b276d88947b60610132740fe9e2834d658e8fc540a78a5a75853de10cff88a9fe00b39257f4fc9252199458eab4c8e3edbcb086f7a312e29ed105d35179327857a925340c18d0bacf1e6825dc8e100b623436b391679639b46daa2a9dc60af1bb3193e518a379f5463da0419111f850145ce92ad5f60b6c888d7f28b60dbf39b22ecded6934c88026899dbd619d73813082abad43afadf16e1eab57f314c32907d6d885127e82ce8dcdcaf35f6edf9598cac1017222ec8069bb21dd697aa844e6902b071ef8c5a2118b03c79b816053e2a2dd2e655fb08cb525d753c76c53d6c57c895f10612733b4368e79cc033d628313c4e8c516e4c754dbe21f17e3f9d2d25c660da12def0d8393d46ebdf4e43bcc092a43c3111b7ba932b8cdd77544aeaff2acf3cc71bfa3d8ac163f8afd86539a0b41a7ad11e2caff8ec691ee485880d2671a86b3fbaf98009befe470c7dbeac2f86a4843c96762570bbea8944a5ccfcb587ebe369c667dc81b148137eca5857b9521687361619c580613acd5dbdcc413f720f5f9754861a8e43711f6e559d1f2753fb067d4ecd50e22eb53e6f51b2fd609222aa324b2ed78249d7dfef455d6c0f958337294b3ad8bf58b24ff6766644d77f92c76b7b886d61961692eef4e3dc7fb780a2f510f37f357cd21de0a8f984a18a1e73cfc9c167967cbfe934126a2309b9c8695f1c38b31e80eb569e635a55f4334fb8f43b42fc91280bfb24c4886b6efa159ed7e055cc9fd76fb9eb743515b2a93f6003d06d09bd111521a856c2ce1bfa4c0920c3f60fd7223d762c11cb821636793b9b3f06594170d5f61fc393346617225baea74f8e97a640e8853a42a363ad2ad9da886b5fdf6f454346e8928b44e3a7d29ec427f69a4bb70c35e6281c7c55ede64de9f4130c3db7aa63df2beeda895da980d4f463218f35a255e4dff53234aedea022a5c9000fda85552d7deca491e4f93cabc634449e2bad08b45d420642736441e1c2479904ca8c45dafcb8cb63fff7ee156eda6a2e5c5c0479eea853a0aed5f513df11e75f49e22211e33491344c8d5f123af459bf5f102f90cdd0f3abda4c7207965a86dba9d74cd8330f31eaf676eea4d3318e9bf6ca9a73813a9cf17fc36548d4f496117937ceaf044f08d2f572f5325b0a761864656eee2658487d225f30287f9e5e7d8de981858a80f7f36c067b00d453785229ea38b2bbd40a75268e3f5339b94d5c8e72eed64237ecf2cdf82d2bee4cadaeaf611d8780c8336018c882690d0880bb1d234ec1d5f2890ba84c61a92449f8b000b90f130fcd361b10b3a2ce9d4512a436c5797476810c7077456d00e01b9fd9e681d75318260d80825019af2edd73747f4b26add092c539eeed0ac78b62db556bd8d81ff0bfe6aa02bee4f32db7567b88e252837b15b422c3b12549ca0e16c977f3e212b73373eec9840f17c9f9e956fde0f0ca4b66dc4946110bc681a6b19554d3d53c1a0cf392115f0e1d55625a198f0b85ea6b69b3d7e9616ad9bb44e784657aebf8a25724186a099337540ec85b9601034e50868e9a28be2bce54eec4cdbb9acc29588b57148ba5dce79ede9013f0646b728f693722b4e629ec92fc0f6ef664f49b6a142e235a2d5ced67985be813498be8aebe28b01c2165179a758d657bb5ec5c1debc7db1b685b260195cffb18ce65c2c9bda5d6d16800efa08a445a0cddf8b2f7d1290afb0e56133e97e72780098919f3dafe43f0b41c77422832caa7f6f212b4b810d24500a3675fd4018a977759f2505d7def0df41c0201cc71d98c3ac4d375b0466504dc12654a0ea90d802800ddf2f49fe0698445f9abde4f26e611ca40d65433231afb9335265a50013bcbb2c16d9669a92be96ba49598cad069d9dc70dfe060effee4e675f6203f9c0ce9c6548ac24bfc587339b63afbf0b50306496a8efa948aeef5da8f1be6bdf293995d2cff7d65baf9bed80b6c8030beb8bd3ce569707be19fdbce577e6b73f960a844717f4929564c8c5e6ac80e0b49906b7fc7080cb0c4285ce307e3d37e8e49d86650fdc1262939d8af99ceb1b92a74c2a12ec41fb54462296740636130be8f0586fc431a4f734677721904ad5b7ba9062cf304fb602a71eea62e55004a5a6024cb4c8d91905a9e01201410ad79a4bef38dfe370ec8fdd332fbe7b4d5a6b92d5bffd2de94d71326408e4777e307788989d661c5dab275da3fc03f1ae382555b77d235df08e34435531262e4a0f4ef3cf9655d39238c849f691b2744a081630b8d7378de4c44112ea7a107a0208151a0d920d4126fd87a0abe5b3a92773a10e055d9512a1522b83fdbc8d5165d663612d4b8acf961df60277adde20860143a8c2889654f54d4c7219c7cbb831fba816430848bda4f0a6345c6748dcc2088963ebba658e7236f32991350e7140a4ec35623521291f5269a32752e74dd49cc60eb50679b673947ca41fd56238e8efaf9644894d96635bc0cb507f087e700089d822ec01e9e22ea2a3b3e485e658295a8b0c7cfd2db13153336393d424d5284b0b2bec3c8fd0b0f1b21252b36575a6e727cbcc9d1e1f4fdff0c255a7a849aa6b3b6c1c4cdd80000000000000000000000000000000000000e1e313e01fd210500ada7638d66deaf53751c3a8ef7b4acfac7631f253f0d68ea9606456e22dc85811dc3a64281582f61b3483c7bb58103623fd6d6b9aa5c7a2481169eb905784f68c494961aee5dc3d50845786ac5255254dbb9e9777d81c4846a2c968933d1867579376856c6b8a86d45dc634075e753ecdb1507e528bfe0367751ea31768a3ec02df6a13aa23a06f09b8b16e4e1e28611e374e318f12968b93d5d0d2156de606325d11548ac33bc9021512d88ca9eea2eba435ac24ecdd90e256ed02a5f367782df7b1798a10cbabbe820fe6fdb15e5d31f9badf852de90b523bdd199f995608ee10444e9b785e291a1adce32828f1c035d0c4293e30f61ed39eef185d26ec1a6e54a8c0d54bbdce2eb8b4c920b1ff9ec37e647a96587f1a5ffa5d8163c94fb5aaf7cae7ca90a8a9474a1adcacd8771a9761fa325cfc41f96734c3ce7ac78abea380f2feac1fa0c510d7e333d8c472979d35756a1a3b917ae685daa7854621c29bb85c39cda84710f6effb2aa36895526f75c288f2a3907c3ba31dd5307d55d58a4108054f5420753ca3cc2f5caaa1bc0d6c5ad941ef173d69bc5b7c908f1ea0865eb7248ac69d7e14322f4919c2b71858635df58e13bb3568b0969c05f1d57912181cff3b95f6f29820afb7ec996e5c77346a5fc29df86d4b4919008caffbc478aea12c0e3dff443818dcfabccc4ae5446404c4ba140475a434340b0d75b9c0cb6b84bbb2320609b89120612b5912bf0e1f91e1da1119cb1cc567ee6477f1c0c76742eb1b788208e3660a92c0da912124847a29f1cfe37c67dcda2d9f3ed16fb3e7e4a462db5e2b85ccbfaceee7fb47726eb687e5921ca6c4df8fe802f27aa3bbe658cada0a5fe85404f538dc677b701eb3ebe2c9ca299e9e25b9c1d6f719d2b5ebe206b5eaab746b9112b64678700e685e9239ba9bce9939e6fe88d60182150c94ae8c8752bce7a407d57083bb4e87f200a56b9e8a22ba07eb88daecae24fffc85c94bcf2f52c749fd47da654f087d5248b92044f1e37b3c17201d15b7656f421201f8f3c6551941862e7d4dbb30e6bd0ce85f6f88ba8b07099a04206330483b41706d5cf99f099b90b51c914ff2f04e42dcb6bff2186d659e438fd477a0e03bc88b7d791cbb794c0ffad778f601aae2dffbcae11c38b944d90dbcf3d85f424ab46ccee68fc2e29863948d572949ab47b73388933764c763c850ce4ff191e214aea53cbb106fe8d25af26e732d14a4da59b450454cfa4b9566f84066b04b132bbe11c2c0b8c6daf5a7e5f8165af8ef28e02dc7df5166f5b712a51446508930555a6874df42107fbb2c1528828f52c9dfc50b54201fac4e216f1940b5bf77b52a6fd46e975f20019946f5c6376088e1b312fac5281dbaa66654ce98c4b366c592bdb9045ab15e3755ebf1438ec03586d4723adad9c1d306e973c7f766cc1d0d27d4c3b2d636a03ba62dc5accf4b8ddaa49c2621968826e2fc5d1bcc7325e956cc66c8baf636f879a134765ed1d7f394a61ecd0832769f0cbcabe1ee85f286b83960783ca2cdac1c6592027035d000cd4bbfe43ed83a5c0a8b506ccc9eee8194078b03f4b28a31cf5976f31450b14a871e2ce9e866bcd6a7ca1112f496d7caff4c67c76aac793f4369e362f5eec863982e7788e367731b67f9d47f406bc749d25fcf89fcc983c2084df255fcf551e9aa359a4e637c7049c6b38f411694072a056b3779a0264ed7b99a9a146992f1c05767281714730e29da5b2d50501119030ef8c6f89197730e2e2eb9767401201fe9aab07bb22141802435b08d99cc206bcd588f8b3a16211b20439d5dd0d15d94a07f84e6a84dc2de1c05713b3c951f42a8b7c000000",
  "txid": "f24e03880999fa755ed896608faff97e25f378e0700cf79b3aa6977c94b6f3eb",
  "hash": "778236fba6bf03631903e5e27298cef6d98adcc1007ecfbbb55938199e2b80ab",
  "size": 5085,
  "vsize": 2278,
  "version": 1,
  "locktime": 124,
  "vin": [
    {
      "txid": "8341481dc77970187531f7d49ba8f7a0f240bc350a0fb6454667ea7db124b1d7",
      "vout": 1,
      "scriptSig": {
        "asm": "",
        "hex": ""
      },
      "txinwitness": [
        "97d5166d57de708ac5ea9a65ff5ae256223bea5347b239b8615b5ba27b9d220b99a94ba54cd92650b2653bc22649545a35c326d9d7fb94f5107e373a95db6ec1b1468c174f7aae648407a91728a193c02d9257a35e1e5709a2e2c2d1a5e1e9653b1c5f57e3390d06b77fd2074e114a2bf97089aaa28fc1d4871c85a9e0fc3d74a0dd2e986070327f876e5f6e9887cb252546f73532f751a6b13701a584f94e12a79ab94aba8378147fa1bdc3b253b3502b9025b2cba4f52b3dbaacaf0a87fb7a557daaa6140fc79fe5cb9d659e94383cb435a9ce82a4fcf799d3dca83aad3b98b15ba8eae5c8fab9f25e8226664a09bb3ea46302f777ef214c448ba1e36efacdce2b903c139516fd76a18b60d7505b6fabac276beb961f12c1932618aa4b7a72404767133f74d0cf7404f69cf754015ba740c47a672ba85a3d6f446edf002ec2bca626db1eb89993bc276c967efcefe9f58177434bdd2cad14adc573d0e2ecfca12c3e962d582e3a9fa1bda563d6f726f97af3755e95e7a1d62cb96af9c34729667b2fdc0a5a9da7611f8f5a4d22c322077e0857c1c804a6b99798410833fc32adfc3fd0ba47a6555dcd7110ba772d885d2eea0532929efd406fa6c4be0e2db25c41fa4dc7cb872f37eedf935f8b3c77a96b240f97ab2bbfc5d2a0078f368f7e071ea561d158948049d042be9a4bbe8741dbb7aa97404c3e9f61e37654acd7f0fae9daf187450b9a7ceb68deb4aaaf84c46ffd1fab36b7fb2a7d119f990ab6b7ec9c9783318f8fe8747b1e1adadf50b276d88947b60610132740fe9e2834d658e8fc540a78a5a75853de10cff88a9fe00b39257f4fc9252199458eab4c8e3edbcb086f7a312e29ed105d35179327857a925340c18d0bacf1e6825dc8e100b623436b391679639b46daa2a9dc60af1bb3193e518a379f5463da0419111f850145ce92ad5f60b6c888d7f28b60dbf39b22ecded6934c88026899dbd619d73813082abad43afadf16e1eab57f314c32907d6d885127e82ce8dcdcaf35f6edf9598cac1017222ec8069bb21dd697aa844e6902b071ef8c5a2118b03c79b816053e2a2dd2e655fb08cb525d753c76c53d6c57c895f10612733b4368e79cc033d628313c4e8c516e4c754dbe21f17e3f9d2d25c660da12def0d8393d46ebdf4e43bcc092a43c3111b7ba932b8cdd77544aeaff2acf3cc71bfa3d8ac163f8afd86539a0b41a7ad11e2caff8ec691ee485880d2671a86b3fbaf98009befe470c7dbeac2f86a4843c96762570bbea8944a5ccfcb587ebe369c667dc81b148137eca5857b9521687361619c580613acd5dbdcc413f720f5f9754861a8e43711f6e559d1f2753fb067d4ecd50e22eb53e6f51b2fd609222aa324b2ed78249d7dfef455d6c0f958337294b3ad8bf58b24ff6766644d77f92c76b7b886d61961692eef4e3dc7fb780a2f510f37f357cd21de0a8f984a18a1e73cfc9c167967cbfe934126a2309b9c8695f1c38b31e80eb569e635a55f4334fb8f43b42fc91280bfb24c4886b6efa159ed7e055cc9fd76fb9eb743515b2a93f6003d06d09bd111521a856c2ce1bfa4c0920c3f60fd7223d762c11cb821636793b9b3f06594170d5f61fc393346617225baea74f8e97a640e8853a42a363ad2ad9da886b5fdf6f454346e8928b44e3a7d29ec427f69a4bb70c35e6281c7c55ede64de9f4130c3db7aa63df2beeda895da980d4f463218f35a255e4dff53234aedea022a5c9000fda85552d7deca491e4f93cabc634449e2bad08b45d420642736441e1c2479904ca8c45dafcb8cb63fff7ee156eda6a2e5c5c0479eea853a0aed5f513df11e75f49e22211e33491344c8d5f123af459bf5f102f90cdd0f3abda4c7207965a86dba9d74cd8330f31eaf676eea4d3318e9bf6ca9a73813a9cf17fc36548d4f496117937ceaf044f08d2f572f5325b0a761864656eee2658487d225f30287f9e5e7d8de981858a80f7f36c067b00d453785229ea38b2bbd40a75268e3f5339b94d5c8e72eed64237ecf2cdf82d2bee4cadaeaf611d8780c8336018c882690d0880bb1d234ec1d5f2890ba84c61a92449f8b000b90f130fcd361b10b3a2ce9d4512a436c5797476810c7077456d00e01b9fd9e681d75318260d80825019af2edd73747f4b26add092c539eeed0ac78b62db556bd8d81ff0bfe6aa02bee4f32db7567b88e252837b15b422c3b12549ca0e16c977f3e212b73373eec9840f17c9f9e956fde0f0ca4b66dc4946110bc681a6b19554d3d53c1a0cf392115f0e1d55625a198f0b85ea6b69b3d7e9616ad9bb44e784657aebf8a25724186a099337540ec85b9601034e50868e9a28be2bce54eec4cdbb9acc29588b57148ba5dce79ede9013f0646b728f693722b4e629ec92fc0f6ef664f49b6a142e235a2d5ced67985be813498be8aebe28b01c2165179a758d657bb5ec5c1debc7db1b685b260195cffb18ce65c2c9bda5d6d16800efa08a445a0cddf8b2f7d1290afb0e56133e97e72780098919f3dafe43f0b41c77422832caa7f6f212b4b810d24500a3675fd4018a977759f2505d7def0df41c0201cc71d98c3ac4d375b0466504dc12654a0ea90d802800ddf2f49fe0698445f9abde4f26e611ca40d65433231afb9335265a50013bcbb2c16d9669a92be96ba49598cad069d9dc70dfe060effee4e675f6203f9c0ce9c6548ac24bfc587339b63afbf0b50306496a8efa948aeef5da8f1be6bdf293995d2cff7d65baf9bed80b6c8030beb8bd3ce569707be19fdbce577e6b73f960a844717f4929564c8c5e6ac80e0b49906b7fc7080cb0c4285ce307e3d37e8e49d86650fdc1262939d8af99ceb1b92a74c2a12ec41fb54462296740636130be8f0586fc431a4f734677721904ad5b7ba9062cf304fb602a71eea62e55004a5a6024cb4c8d91905a9e01201410ad79a4bef38dfe370ec8fdd332fbe7b4d5a6b92d5bffd2de94d71326408e4777e307788989d661c5dab275da3fc03f1ae382555b77d235df08e34435531262e4a0f4ef3cf9655d39238c849f691b2744a081630b8d7378de4c44112ea7a107a0208151a0d920d4126fd87a0abe5b3a92773a10e055d9512a1522b83fdbc8d5165d663612d4b8acf961df60277adde20860143a8c2889654f54d4c7219c7cbb831fba816430848bda4f0a6345c6748dcc2088963ebba658e7236f32991350e7140a4ec35623521291f5269a32752e74dd49cc60eb50679b673947ca41fd56238e8efaf9644894d96635bc0cb507f087e700089d822ec01e9e22ea2a3b3e485e658295a8b0c7cfd2db13153336393d424d5284b0b2bec3c8fd0b0f1b21252b36575a6e727cbcc9d1e1f4fdff0c255a7a849aa6b3b6c1c4cdd80000000000000000000000000000000000000e1e313e01",
        "00ada7638d66deaf53751c3a8ef7b4acfac7631f253f0d68ea9606456e22dc85811dc3a64281582f61b3483c7bb58103623fd6d6b9aa5c7a2481169eb905784f68c494961aee5dc3d50845786ac5255254dbb9e9777d81c4846a2c968933d1867579376856c6b8a86d45dc634075e753ecdb1507e528bfe0367751ea31768a3ec02df6a13aa23a06f09b8b16e4e1e28611e374e318f12968b93d5d0d2156de606325d11548ac33bc9021512d88ca9eea2eba435ac24ecdd90e256ed02a5f367782df7b1798a10cbabbe820fe6fdb15e5d31f9badf852de90b523bdd199f995608ee10444e9b785e291a1adce32828f1c035d0c4293e30f61ed39eef185d26ec1a6e54a8c0d54bbdce2eb8b4c920b1ff9ec37e647a96587f1a5ffa5d8163c94fb5aaf7cae7ca90a8a9474a1adcacd8771a9761fa325cfc41f96734c3ce7ac78abea380f2feac1fa0c510d7e333d8c472979d35756a1a3b917ae685daa7854621c29bb85c39cda84710f6effb2aa36895526f75c288f2a3907c3ba31dd5307d55d58a4108054f5420753ca3cc2f5caaa1bc0d6c5ad941ef173d69bc5b7c908f1ea0865eb7248ac69d7e14322f4919c2b71858635df58e13bb3568b0969c05f1d57912181cff3b95f6f29820afb7ec996e5c77346a5fc29df86d4b4919008caffbc478aea12c0e3dff443818dcfabccc4ae5446404c4ba140475a434340b0d75b9c0cb6b84bbb2320609b89120612b5912bf0e1f91e1da1119cb1cc567ee6477f1c0c76742eb1b788208e3660a92c0da912124847a29f1cfe37c67dcda2d9f3ed16fb3e7e4a462db5e2b85ccbfaceee7fb47726eb687e5921ca6c4df8fe802f27aa3bbe658cada0a5fe85404f538dc677b701eb3ebe2c9ca299e9e25b9c1d6f719d2b5ebe206b5eaab746b9112b64678700e685e9239ba9bce9939e6fe88d60182150c94ae8c8752bce7a407d57083bb4e87f200a56b9e8a22ba07eb88daecae24fffc85c94bcf2f52c749fd47da654f087d5248b92044f1e37b3c17201d15b7656f421201f8f3c6551941862e7d4dbb30e6bd0ce85f6f88ba8b07099a04206330483b41706d5cf99f099b90b51c914ff2f04e42dcb6bff2186d659e438fd477a0e03bc88b7d791cbb794c0ffad778f601aae2dffbcae11c38b944d90dbcf3d85f424ab46ccee68fc2e29863948d572949ab47b73388933764c763c850ce4ff191e214aea53cbb106fe8d25af26e732d14a4da59b450454cfa4b9566f84066b04b132bbe11c2c0b8c6daf5a7e5f8165af8ef28e02dc7df5166f5b712a51446508930555a6874df42107fbb2c1528828f52c9dfc50b54201fac4e216f1940b5bf77b52a6fd46e975f20019946f5c6376088e1b312fac5281dbaa66654ce98c4b366c592bdb9045ab15e3755ebf1438ec03586d4723adad9c1d306e973c7f766cc1d0d27d4c3b2d636a03ba62dc5accf4b8ddaa49c2621968826e2fc5d1bcc7325e956cc66c8baf636f879a134765ed1d7f394a61ecd0832769f0cbcabe1ee85f286b83960783ca2cdac1c6592027035d000cd4bbfe43ed83a5c0a8b506ccc9eee8194078b03f4b28a31cf5976f31450b14a871e2ce9e866bcd6a7ca1112f496d7caff4c67c76aac793f4369e362f5eec863982e7788e367731b67f9d47f406bc749d25fcf89fcc983c2084df255fcf551e9aa359a4e637c7049c6b38f411694072a056b3779a0264ed7b99a9a146992f1c05767281714730e29da5b2d50501119030ef8c6f89197730e2e2eb9767401201fe9aab07bb22141802435b08d99cc206bcd588f8b3a16211b20439d5dd0d15d94a07f84e6a84dc2de1c05713b3c951f42a8b"
      ],
      "sequence": 4294967294
    }
  ],
  "vout": [
    {
      "value": 499973.5606,
      "n": 0,
      "scriptPubKey": {
        "asm": "1 333710b4ccbec11e4fcad077b0977e0f70d17f0fa80f3684cdf64b03db36110c",
        "hex": "5120333710b4ccbec11e4fcad077b0977e0f70d17f0fa80f3684cdf64b03db36110c",
        "reqSigs": 1,
        "type": "witness_v1_scripthash",
        "addresses": [
          "3QJmnh"
        ]
      }
    },
    {
      "value": 1.0,
      "n": 1,
      "scriptPubKey": {
        "asm": "OP_RETURN 3640f1b923f20af8d69ade95d4034763489761d9365321a4cdc508c11d55ce73 72d7ad2053f62b56a8d8828d1c718f54b44a92a300cd8100b1a78f50ffd0bc0652f78d0073d60b7688f8a2ad3c51af74946ab28320eda1209187af70dff09c263297ed6013b66b16e898c2cd5c31cf14f40ad2e3408dc140f1e7cf10bf90fc4612b7cd4033964b36c8b8e2ed7c11ef34d42af2c360ade160d1c7ef309fb0dc66f2572da0d376abd62858020d9cf10fd434ca1223804d018031270fd07f503c86d2770d80f3568bf60878222dbcd12ff414ea3203a06d21a011072ff05f701ca6b2176de09336eb966818424ddcb14f94748a5263c00d41c071674f903f107cc692374dc0b316cbb64838626dfc916fb454aa7243e02d61e051476fb01f305ce672d7ad2053f62b56a8d8828d1c718f54b44a92a300cd8100b1a78f50ffd0bc0652f78d0073d60b7688f8a2ad3c51af74946ab28320eda1209187af70dff09c263297ed6013b66b16e898c2cd5c31cf14f40ad2e3408dc140f1e7cf10bf90fc4612b7cd4033964b36c8b8e2ed7c11ef34d42af2c360ade160d1c7ef309fb0dc66f2572da0d376abd62858020d9cf10fd434ca1223804d018031270fd07f503c86d2770d80f3568bf60878222dbcd12ff414ea3203a06d21a011072ff05f701ca6b2176de09336eb966818424ddcb14f94748a5263c00d41c071674f903f107cc692374dc0b316cbb64838626dfc916fb454aa7243e02d61e051476fb01f305ce672d7ad2053f62b56a8d8828d1c718f54b44a92a300cd8100b1a78f50ffd0bc0652f78d0073d60b7688f8a2ad3c51af74946ab28320eda1209187af70dff09c263297ed6013b66b16e898c2cd5c31cf14f40ad2e3408dc140f1e7cf10bf90fc4612b7cd4033964b36c8b8e2ed7c11ef34d42af2c360ade160d1c7ef309fb0dc66f2572da0d376abd62858020d9cf10fd434ca1223804d018031270fd07f503c86d2770d80f3568bf60878222dbcd12ff414ea3203a06d21a011072ff05f701ca6b2176de09336eb966818424ddcb14f94748a5263c00d41c071674f903f107cc692374dc0b316cbb64838626dfc916fb454aa7243e02d61e051476fb01f305ce672d7ad2053f62b56a8d8828d1c718f54b44a92a300cd8100b1a78f50ffd0bc0652f78d0073d60b7688f8a2ad3c51af74946ab28320eda1209187af70dff09c263297ed6013b66b16e898c2cd5c31cf14f40ad2e3408dc140f1e7cf10bf90fc4612b7cd4033964b36c8b8e2ed7c11ef34d42af2c360ade160d1c7ef309fb0dc66f2572da0d376abd62858020d9cf10fd434ca1223804d018031270fd07f503c86d2770d80f3568bf60878222dbcd12ff414ea3203a06d21a011072ff05f701ca6b2176de09336eb966818424ddcb14f94748a5263c00d41c071674f903f107cc692374dc0b316cbb64838626dfc916fb454aa7243e02d61e051476fb01f305ce672d7ad2053f62b56a8d8828d1c718f54b44a92a300cd8100b1a78f50ffd0bc0652f78d0073d60b7688f8a2ad3c51af74946ab28320eda1209187af70dff09c263297ed6013b66b16e898c2cd5c31cf14f40ad2e3408dc140f1e7cf10bf90fc4612b7cd4033964b36c8b8e2ed7c11ef34d42af2c360ade160d1c7ef309fb0dc66f2572da0d376abd62858020d9cf10fd4f3b1f3c76633179ae8f55e70956ea0762b0d1fc629561f4a41c4e6b303f6040f",
        "hex": "6a203640f1b923f20af8d69ade95d4034763489761d9365321a4cdc508c11d55ce734db00472d7ad2053f62b56a8d8828d1c718f54b44a92a300cd8100b1a78f50ffd0bc0652f78d0073d60b7688f8a2ad3c51af74946ab28320eda1209187af70dff09c263297ed6013b66b16e898c2cd5c31cf14f40ad2e3408dc140f1e7cf10bf90fc4612b7cd4033964b36c8b8e2ed7c11ef34d42af2c360ade160d1c7ef309fb0dc66f2572da0d376abd62858020d9cf10fd434ca1223804d018031270fd07f503c86d2770d80f3568bf60878222dbcd12ff414ea3203a06d21a011072ff05f701ca6b2176de09336eb966818424ddcb14f94748a5263c00d41c071674f903f107cc692374dc0b316cbb64838626dfc916fb454aa7243e02d61e051476fb01f305ce672d7ad2053f62b56a8d8828d1c718f54b44a92a300cd8100b1a78f50ffd0bc0652f78d0073d60b7688f8a2ad3c51af74946ab28320eda1209187af70dff09c263297ed6013b66b16e898c2cd5c31cf14f40ad2e3408dc140f1e7cf10bf90fc4612b7cd4033964b36c8b8e2ed7c11ef34d42af2c360ade160d1c7ef309fb0dc66f2572da0d376abd62858020d9cf10fd434ca1223804d018031270fd07f503c86d2770d80f3568bf60878222dbcd12ff414ea3203a06d21a011072ff05f701ca6b2176de09336eb966818424ddcb14f94748a5263c00d41c071674f903f107cc692374dc0b316cbb64838626dfc916fb454aa7243e02d61e051476fb01f305ce672d7ad2053f62b56a8d8828d1c718f54b44a92a300cd8100b1a78f50ffd0bc0652f78d0073d60b7688f8a2ad3c51af74946ab28320eda1209187af70dff09c263297ed6013b66b16e898c2cd5c31cf14f40ad2e3408dc140f1e7cf10bf90fc4612b7cd4033964b36c8b8e2ed7c11ef34d42af2c360ade160d1c7ef309fb0dc66f2572da0d376abd62858020d9cf10fd434ca1223804d018031270fd07f503c86d2770d80f3568bf60878222dbcd12ff414ea3203a06d21a011072ff05f701ca6b2176de09336eb966818424ddcb14f94748a5263c00d41c071674f903f107cc692374dc0b316cbb64838626dfc916fb454aa7243e02d61e051476fb01f305ce672d7ad2053f62b56a8d8828d1c718f54b44a92a300cd8100b1a78f50ffd0bc0652f78d0073d60b7688f8a2ad3c51af74946ab28320eda1209187af70dff09c263297ed6013b66b16e898c2cd5c31cf14f40ad2e3408dc140f1e7cf10bf90fc4612b7cd4033964b36c8b8e2ed7c11ef34d42af2c360ade160d1c7ef309fb0dc66f2572da0d376abd62858020d9cf10fd434ca1223804d018031270fd07f503c86d2770d80f3568bf60878222dbcd12ff414ea3203a06d21a011072ff05f701ca6b2176de09336eb966818424ddcb14f94748a5263c00d41c071674f903f107cc692374dc0b316cbb64838626dfc916fb454aa7243e02d61e051476fb01f305ce672d7ad2053f62b56a8d8828d1c718f54b44a92a300cd8100b1a78f50ffd0bc0652f78d0073d60b7688f8a2ad3c51af74946ab28320eda1209187af70dff09c263297ed6013b66b16e898c2cd5c31cf14f40ad2e3408dc140f1e7cf10bf90fc4612b7cd4033964b36c8b8e2ed7c11ef34d42af2c360ade160d1c7ef309fb0dc66f2572da0d376abd62858020d9cf10fd4f3b1f3c76633179ae8f55e70956ea0762b0d1fc629561f4a41c4e6b303f6040f",
        "type": "nulldata"
      }
    }
  ],
  "blockhash": "fe93069f37b49cfb15542a42b300d4e9dc573fdbbe6c5d081907ef62d551896a",
  "confirmations": 1,
  "time": 1764180962,
  "blocktime": 1764180962
}