{
  "hex": "0100000000010161b157770aca1a4153953276bc06fbb33636cb71d03c4935e06f9cae2a4a0b740000000000feffffff0200e1f50500000000fdd5046a2064c9f55f5214700ab6181a8e922d1819f46f8f84f5743cefc0f902606df5f4674db004266e74369a004de5eda2b41e85f3f564888313933ce01ba45096ae6d66fb7058064e5416ba206dc5cd82943ea5d3d544a8a333b31cc03b8470b68e4d46db5078662e3476da400da5ade2f45ec5b3b524c8c353d37ca05be410d6ee2d26bb3018460e1456fa602d858dc2d47ee5939504e8e373f35c807bc430f6ce0d069b1038a6eef4b61a80cd656d22349e057375e408039313bc609b24d0162eede67bf0d886ced4963aa0ed454d0214be255355c42823b3339c40bb04f0360ecdc65bd0f8e6aeb4f65ac08d252d6274de453335a44843d353fc20db6490566eada63bb098c68e94d67ae0ad050d4254fe651315846863f373dc00fb44b0764e8d861b90b8266e74369a004de5eda2b41e85f3f564888313933ce01ba45096ae6d66fb7058064e5416ba206dc5cd82943ea5d3d544a8a333b31cc03b8470b68e4d46db5078662e3476da400da5ade2f45ec5b3b524c8c353d37ca05be410d6ee2d26bb3018460e1456fa602d858dc2d47ee5939504e8e373f35c807bc430f6ce0d069b1038a6eef4b61a80cd656d22349e057375e408039313bc609b24d0162eede67bf0d886ced4963aa0ed454d0214be255355c42823b3339c40bb04f0360ecdc65bd0f8e6aeb4f65ac08d252d6274de453335a44843d353fc20db6490566eada63bb098c68e94d67ae0ad050d4254fe651315846863f373dc00fb44b0764e8d861b90b8266e74369a004de5eda2b41e85f3f564888313933ce01ba45096ae6d66fb7058064e5416ba206dc5cd82943ea5d3d544a8a333b31cc03b8470b68e4d46db5078662e3476da400da5ade2f45ec5b3b524c8c353d37ca05be410d6ee2d26bb3018460e1456fa602d858dc2d47ee5939504e8e373f35c807bc430f6ce0d069b1038a6eef4b61a80cd656d22349e057375e408039313bc609b24d0162eede67bf0d886ced4963aa0ed454d0214be255355c42823b3339c40bb04f0360ecdc65bd0f8e6aeb4f65ac08d252d6274de453335a44843d353fc20db6490566eada63bb098c68e94d67ae0ad050d4254fe651315846863f373dc00fb44b0764e8d861b90b8266e74369a004de5eda2b41e85f3f564888313933ce01ba45096ae6d66fb7058064e5416ba206dc5cd82943ea5d3d544a8a333b31cc03b8470b68e4d46db5078662e3476da400da5ade2f45ec5b3b524c8c353d37ca05be410d6ee2d26bb3018460e1456fa602d858dc2d47ee5939504e8e373f35c807bc430f6ce0d069b1038a6eef4b61a80cd656d22349e057375e408039313bc609b24d0162eede67bf0d886ced4963aa0ed454d0214be255355c42823b3339c40bb04f0360ecdc65bd0f8e6aeb4f65ac08d252d6274de453335a44843d353fc20db6490566eada63bb098c68e94d67ae0ad050d4254fe651315846863f373dc00fb44b0764e8d861b90b8266e74369a004de5eda2b41e85f3f564888313933ce01ba45096ae6d66fb7058064e5416ba206dc5cd82943ea5d3d544a8a333b31cc03b8470b68e4d46db5078662e3476da400da5ade2f45ec5b3b524c8c353d37ca05be410d6ee2d26bb3018460e1456fa602d858dc2d47ee5939504e8e373f35c807bc430f6ce0d069b1038a6eef4b61a80cd656d22349e057375e42a9e45468a50d7e0d627f2763358704f14f66eac0fc0984186d4910331a0172c3079f9a7782d000022512073c7e8cced863ff4d8d01c5761ff23d65b3538f434ff92382f7b31edb74477fa02fd7509ee6a5e97f1ec4323f74a2c8fc3754ee594c58be0c00bcdecfb81ec9e35e83cfa1443da941de6f262edc3568c7f75c4ef32c1f0b12875e2a4aa20a27f526369dde6a7a3511418bb9a674b51e82b662967931b9b362cfa967df67aed22c68bcb2f93f85ff46f61125d3fb19451323b3da024c03909a4c9047365e9bfba8f78b185007a232050a42668514b57fac97aa03a26a4aaa7db5275808239af130eead43155dc133b1f5ce31d904cfbf6bddc8d6fbbab461aeea2df6573c8badde9f5d0f3725fa81d0f1378aee720abd5edd077a53152a8860a8e56f23a62b00f91ff5080eec74964b07d89cd8e6968e262d12a3c91352ca472b82c4585c32d44d827c3448baab97276c2ee7924de072195c58a61258b7be9b04b4601145b26bdb9fed8060de1061289f5bcfddc89cd021f29e7fd64d994e94a9f83de41c33e1f9ecd4506cbe34b58efa782d0dc06547085f6d434b8db25035fd7bacbf6dfd18206f0b701042a48838b97d2426ac9a0eacf262cfc8121ff87deaf6eab62df2157f756812ef901ff6535f29787ae2048e2e4f17239517dc90223bd684c45658b5df8d91c73b6ead128f4265da587dffd969e6ac3f59e0512f86cb873c3d5a02858d4a90afde5fafa55ddb37b5445c7a66707b0341b2491edb34c6aeb1ae6aec45d757f0d90e6e68c111c7aed0359f61d2c1611c9196eb82556330ee59d25abe412d35659dd84d815f7202656865e02185d78a6f106a7f171f2822137f6f6c7dde51b58cfaa0340839187065abf3d2c2f8dedb2e98192caca060bad2012e866839f6caf0ff22a4c082f60d4159eda1345dcfd9750840b8b5921d4ebd6839b61f05f9ce03e296dc7aabba98c5adc18279bae36291dc18cc689e626ad16c558cfa6775fc758cf0fa777bc0631ae8fc69e6e35c8eeb1b8fe6db5cbc68e8bc0bf780eb4edf898de071a96902c0e658ba07eef282821ec8137ad8536c7ae479aa14a784531f59bee10c1f2464d80b93224fa9bec22a023ea18eb6d54e07f0e99a67a35617b96b75a01467942cfce12d436bdf452f06b8ff567af0d2319add719c853825d566be2e0a92ba2221b26b0392f0ef5e47659608d388fc8e46fd34531df3e7a6951b7d9303c69a97c9500010ce37542767d6dcc5d36bc3f163b661fe0e668f8e9d8519ec0b29c508a9344cebdc7817eb40c128b2b551c4ba71f7e25feea75b79f3446a4c2b84b323f371f0cfbdf3cdd5cc4932a8f420ed205817a1f59eb961f9815ca9673e615d206809a77950337685e2fc76af168c17d315bded196981c2390a55798333349a15d53d2fec0ca414a24b35b07a5d1874f8418722f95b0261ce4f35b732b4a412661fcb346a122fb5d203fdac36b0f58580166ee897b42660a0b464a4e0875c7eedac68643a8a41e80dba3ff2e94479d55e06956aa51b506de9a11656711d30dfe74d97372d089620556c1f500d8d23184bdb9c836cdf550c6e7ea48865a3c9cf81b7d61ac32404e2d19149fd50f831f2b20c0679b1ce3ffc2a23b0b6197422d354c79ba01c338909debcc5dc868272869dfe04f28183e50242250220589441547961b8c1023bcfd5cf08b122402933368e68ebd3500fc5102cb6f58701512345354b20f63a6028270ca07ef05ffe75888c6021b12b8607e0337940b4b6f0d4b1888b7bd466c586319a9c02ed0355f1084a14eb6bc28b6892c34ffe382a6bb7e6483cdb82fcc26f78c810f76c1d56aac61b094d8cc7a00fcf4f3b9764ad3f057b1860877f4abe9ea949f3f4090050ca3d40d124852420dcd1c8b656d56aba38b28a8412482381f413b93448321dfbd98d5baacc976613028a3c339f32a6e4a91616f5c7784db46a9bc66db309f3b00eda03901494188c42d1937a4ad483177ffc754380b2241abd2aca72e27140a32c5b65b1e1be666cb55defbe51095c4a66c327fa93e1473f41fe3fd70a4dca278bc92c78f47bc3a89c1b50df10f726456d8de8f7d6e10dd180370f5cf1606e43563e368ddf674dcc61573e23dab38f5ea92391d3ea4e7ac5d1c5a628aca1d99fa73c24a28699029d18d80b0fe1ec711722d585be40f61ec04c3f909ad9d612f65141f3598d38cf41305e9cd57399ba26b76087165380b9839f9700cc2311aff86f35acc808342d2c468f1362c1f9577bad4f91f1a12102219024bc8b6b096e1ab3dae19c403d844ab47b3e793155279c94cc756fd92ee709b048a4272984b7840a67f0ea065729d7c819ebece1bf4941a2aeaa2edd90f54e92dc1c05db5f2289273fd4b2f15e8ca93477e60c537f1e40c33b26e108bbab0cc8010d0eac6eaa62f547532a87c3f8226d251e9e8dece6a434205dda29a5b61aa931941d421d54b0586070e263ad2ebb5cef757be726e68702aa51645df5cbdb1b5737d94d91b8384f132f22b4db86aff50dbcb901394b92ceb8467b342b47a2cd92d7f28d380b4935d4133df6275cb67fd381877f9f0b718df3f1ee42eb5686c0a39bdfcc75202d8702a086760e969fb7e36dfc0dc69e24a7fa09aa113fedc5cae6aeaec953917553e557851f8afa239b454d180df3126150c0cb411765f819e93fa5f446b73ef350818b2216e48903f79f0b13ed04f2f2b320710d3ce3d921a2b48bcfdcc5beaa7957db818b8abe2a3fe45d45ccab3f2f894b202241983b72683f6802d4031438bd74edf4245c2c92f4d90f9ec6eaf331fe6a79714dc11697a4d9696d1643b24c0c561da91a8d20224b9a1fa84511c3a0675065e5d1567a2e025eda44be58e604a28c0b9b173e611d2ff0117a57c48f785966215447fa81c3f06bfe0f27c516002d2a53af1a1be078ab1f81c083d391a9c805702ba1b4ff46882700a2d7d9ee8323eb08b59c759c2787caeebda132cc3bc57693e380f39f89db89443897b9d222e85fa79f3b8b1d6d840a6ba39b131f5957e28a853d19a519fca72eef8f829808e5b1c1d16ed17aec1824de688e9f5ba0a447f785be88f36c9a898095f9b60c282ce6b98b802e181e6c7aacb7c4faf92403f848b34b9d31e82797e9ea99fcfef2db7f6b0cfca4b204f5682cb6e7b292b0acb9c2e5b5459bd8e5e5e478b5f98686f43d7c8408623322c5b49526ff3ca98f8e17ace58d2effdd81359273b1781a400eb1c4cac6ff4365c036238885eb8dbe7e3141659c0204e50e41448e5f55a13fc2a2775cfb0d9a664805439f567da69dd98e0ea523aa6950edebba0cf874b0170701827e52acd60c292c15c7fa0f8126ba2a5ca427cfffa9e053521811e61115200f1561567a824b80cb6d6d7eb205907122f395970717e8090969fafb4bfc1c3c5d3e3eaf2fe021a3e3f5a5c6167686d72768fadd0d3d6f1050f181c1f42444e6c73787d808c909da6ccdaecf9fc0408353740474d7d86bbc1cdf60000000017293f4c01fd2105004dddfcaef57f8f30b11cb86ea19d4754d680d98e97159a3e6fa7350cafd618c1adf31008c1b3827819f5d47fb2443c5328e643b4891b059be409405ba7497e278bd46418d584363161ca17af1f3eb305fec7a30f9ff095872ce38ec7bb3bce794acdaee798525cb14fa28b2ce2909fe7521fdd940b8561428347cbbb8d3dae4fd0e84bcde03c456b0628959b5eb69bcb70006e252e1d6b96542f643af65f77d95efaba60ace75d1c07c05e9f5e06663346dd3cda0802e03bd9e7db3a18879731169ebe35c998612b7ec7a1d6c1b4e960fc5b5150c6223546a7ef8721fd62bcb269e3ab84f72ae08a020c862d6dcc895370f5dbc6f2f0917565fba479839bfe6cc72429ec61d320cb51e4045437fec675a57a41249d718a255493e6edc503758feb222c26bd0df7f2d65f60d762a6bd222c7bdf317ca4d06b1bc3eb12ee9cbeab601a01d7685760783b8780b85ac7fd99de50f5827eaaef2a8e4b579d092d07e251746a655812dc1f6e4b2d571cb3d4139a9c39f13d170dcc876e5458f37ad64a15dfb8bcf6270fd52166206fec9812f9fea0edf0898dc495bd4a6c48428d519ffbba71bee7280e6de038c70b0510bb13a18198fec76df1b03a46d28876d8daf8cdea84bfee98cd966336e297429a542256d6005b1b010b8d1c0865c5a6f7a9cc6b298544f970557b8453eda4648e6c2bd301a628f3b9d918507a920d18d401fe555f66ab893ad50df6f479c87083bb63a0ec9c30c2d6fb8ad24c5cc5682cdbc329dd102bc92ed7756db62413a1307aa2e654ae0c5448bb0d190abc697af692538a541b502edecff5b08de24e3470b35c681962277cb51debb6451166fd1471b173bd37cb1b71d45862bde5b4a6ed4b86c1c79f07bccdb813ba88f7fcad694fd9b51657ad093b5a98875031139adc47a31fc92bf5c5d5edb83e6bb9a791e653631926b3b449ef1f512106a8298bdd134ca753a9b348d0a677fb215b5600f658b87132813be2aff2b5998685ffdfad2eb2b650acd72177bcde4083f5ea1c87ec967a3e41fb57322aca29d05533b92ce46929130c9bb17aa569ddcef81803acfc5ebd2b693be66638edaf4f86a1b54f1c88f427638eb2d7eb41e6a638496f9d64db3f1689574b65f20432b51fb17993774c8bf631fe9d82c612a9e72067edeb2c0c3bf0d926c4745d4120bf75aa7d8a8581ced0bbebb94bbb7e6b0ab9e3398a97fb9d2f150ad8616ebbbf70a12dd7d954c82f5b7df4faf9ce387b9b99b52ed8f32f53a870337d9c98826091f4bf04440a258e77eae71be0cce14f72491f3cde76da0f41aff93eb03d261786d98c460b5aec11c7383f757b5dd63808731c1dcefbd6bcb1fa04ea61f3e2e409ccac96999abe140d6f153d7b6065f707b9044527e12c2a5bbd66ec48fc0da06dadf39d410fb374792ddfbddfd08147c9d0607bf7db4b8dacbc161b40dac0c9276e16c844270d98c926204685e7dd62cf55aed22830e457fe753d6076caa7fa55eea65d599aeaa375e7e63e8c13b516fbbd707f7dc096eda66ee8174b5bc666574dc98b98058017f26f72624ac140fc8e9e2734d0920e10ad9e32833b4af8dcffca78f997e0d760dc9d6dbe89382264cbff89a50855193bb546b1fdde6ad76bc9c9e6dc25ea3632fe9b1eef207bc5fb6f923f93a2dbd95adf841d1196f482557d1bf6d1cf9e5419652793eeb12223db47479529dac02c3296f6f6971cea68e385ccdc682d55d04d5a60ddd1f8943056635a0def0b01a9b0faa11c82e65cf3b8e8e2929816148c9d8d17f0084ba126479bcfed4f17640417baaeea91f382541096643fa431003250d10ad0d023163944a9e14c02534c4f87000000",
  "txid": "f451719620d67d415c6f9665105c8a1fa2342849190af8083afbe5cbe563e316",
  "hash": "f3189e59968b160cb6260aeba8cabece236a84ee75511afdc90e4e745f5837aa",
  "size": 5085,
  "vsize": 2278,
  "version": 1,
  "locktime": 135,
  "vin": [
    {
      "txid": "740b4a2aae9c6fe035493cd071cb3636b3fb06bc76329553411aca0a7757b161",
      "vout": 0,
      "scriptSig": {
        "asm": "",
        "hex": ""
      },
      "txinwitness": [
        "ee6a5e97f1ec4323f74a2c8fc3754ee594c58be0c00bcdecfb81ec9e35e83cfa1443da941de6f262edc3568c7f75c4ef32c1f0b12875e2a4aa20a27f526369dde6a7a3511418bb9a674b51e82b662967931b9b362cfa967df67aed22c68bcb2f93f85ff46f61125d3fb19451323b3da024c03909a4c9047365e9bfba8f78b185007a232050a42668514b57fac97aa03a26a4aaa7db5275808239af130eead43155dc133b1f5ce31d904cfbf6bddc8d6fbbab461aeea2df6573c8badde9f5d0f3725fa81d0f1378aee720abd5edd077a53152a8860a8e56f23a62b00f91ff5080eec74964b07d89cd8e6968e262d12a3c91352ca472b82c4585c32d44d827c3448baab97276c2ee7924de072195c58a61258b7be9b04b4601145b26bdb9fed8060de1061289f5bcfddc89cd021f29e7fd64d994e94a9f83de41c33e1f9ecd4506cbe34b58efa782d0dc06547085f6d434b8db25035fd7bacbf6dfd18206f0b701042a48838b97d2426ac9a0eacf262cfc8121ff87deaf6eab62df2157f756812ef901ff6535f29787ae2048e2e4f17239517dc90223bd684c45658b5df8d91c73b6ead128f4265da587dffd969e6ac3f59e0512f86cb873c3d5a02858d4a90afde5fafa55ddb37b5445c7a66707b0341b2491edb34c6aeb1ae6aec45d757f0d90e6e68c111c7aed0359f61d2c1611c9196eb82556330ee59d25abe412d35659dd84d815f7202656865e02185d78a6f106a7f171f2822137f6f6c7dde51b58cfaa0340839187065abf3d2c2f8dedb2e98192caca060bad2012e866839f6caf0ff22a4c082f60d4159eda1345dcfd9750840b8b5921d4ebd6839b61f05f9ce03e296dc7aabba98c5adc18279bae36291dc18cc689e626ad16c558cfa6775fc758cf0fa777bc0631ae8fc69e6e35c8eeb1b8fe6db5cbc68e8bc0bf780eb4edf898de071a96902c0e658ba07eef282821ec8137ad8536c7ae479aa14a784531f59bee10c1f2464d80b93224fa9bec22a023ea18eb6d54e07f0e99a67a35617b96b75a01467942cfce12d436bdf452f06b8ff567af0d2319add719c853825d566be2e0a92ba2221b26b0392f0ef5e47659608d388fc8e46fd34531df3e7a6951b7d9303c69a97c9500010ce37542767d6dcc5d36bc3f163b661fe0e668f8e9d8519ec0b29c508a9344cebdc7817eb40c128b2b551c4ba71f7e25feea75b79f3446a4c2b84b323f371f0cfbdf3cdd5cc4932a8f420ed205817a1f59eb961f9815ca9673e615d206809a77950337685e2fc76af168c17d315bded196981c2390a55798333349a15d53d2fec0ca414a24b35b07a5d1874f8418722f95b0261ce4f35b732b4a412661fcb346a122fb5d203fdac36b0f58580166ee897b42660a0b464a4e0875c7eedac68643a8a41e80dba3ff2e94479d55e06956aa51b506de9a11656711d30dfe74d97372d089620556c1f500d8d23184bdb9c836cdf550c6e7ea48865a3c9cf81b7d61ac32404e2d19149fd50f831f2b20c0679b1ce3ffc2a23b0b6197422d354c79ba01c338909debcc5dc868272869dfe04f28183e50242250220589441547961b8c1023bcfd5cf08b122402933368e68ebd3500fc5102cb6f58701512345354b20f63a6028270ca07ef05ffe75888c6021b12b8607e0337940b4b6f0d4b1888b7bd466c586319a9c02ed0355f1084a14eb6bc28b6892c34ffe382a6bb7e6483cdb82fcc26f78c810f76c1d56aac61b094d8cc7a00fcf4f3b9764ad3f057b1860877f4abe9ea949f3f4090050ca3d40d124852420dcd1c8b656d56aba38b28a8412482381f413b93448321dfbd98d5baacc976613028a3c339f32a6e4a91616f5c7784db46a9bc66db309f3b00eda03901494188c42d1937a4ad483177ffc754380b2241abd2aca72e27140a32c5b65b1e1be666cb55defbe51095c4a66c327fa93e1473f41fe3fd70a4dca278bc92c78f47bc3a89c1b50df10f726456d8de8f7d6e10dd180370f5cf1606e43563e368ddf674dcc61573e23dab38f5ea92391d3ea4e7ac5d1c5a628aca1d99fa73c24a28699029d18d80b0fe1ec711722d585be40f61ec04c3f909ad9d612f65141f3598d38cf41305e9cd57399ba26b76087165380b9839f9700cc2311aff86f35acc808342d2c468f1362c1f9577bad4f91f1a12102219024bc8b6b096e1ab3dae19c403d844ab47b3e793155279c94cc756fd92ee709b048a4272984b7840a67f0ea065729d7c819ebece1bf4941a2aeaa2edd90f54e92dc1c05db5f2289273fd4b2f15e8ca93477e60c537f1e40c33b26e108bbab0cc8010d0eac6eaa62f547532a87c3f8226d251e9e8dece6a434205dda29a5b61aa931941d421d54b0586070e263ad2ebb5cef757be726e68702aa51645df5cbdb1b5737d94d91b8384f132f22b4db86aff50dbcb901394b92ceb8467b342b47a2cd92d7f28d380b4935d4133df6275cb67fd381877f9f0b718df3f1ee42eb5686c0a39bdfcc75202d8702a086760e969fb7e36dfc0dc69e24a7fa09aa113fedc5cae6aeaec953917553e557851f8afa239b454d180df3126150c0cb411765f819e93fa5f446b73ef350818b2216e48903f79f0b13ed04f2f2b320710d3ce3d921a2b48bcfdcc5beaa7957db818b8abe2a3fe45d45ccab3f2f894b202241983b72683f6802d4031438bd74edf4245c2c92f4d90f9ec6eaf331fe6a79714dc11697a4d9696d1643b24c0c561da91a8d20224b9a1fa84511c3a0675065e5d1567a2e025eda44be58e604a28c0b9b173e611d2ff0117a57c48f785966215447fa81c3f06bfe0f27c516002d2a53af1a1be078ab1f81c083d391a9c805702ba1b4ff46882700a2d7d9ee8323eb08b59c759c2787caeebda132cc3bc57693e380f39f89db89443897b9d222e85fa79f3b8b1d6d840a6ba39b131f5957e28a853d19a519fca72eef8f829808e5b1c1d16ed17aec1824de688e9f5ba0a447f785be88f36c9a898095f9b60c282ce6b98b802e181e6c7aacb7c4faf92403f848b34b9d31e82797e9ea99fcfef2db7f6b0cfca4b204f5682cb6e7b292b0acb9c2e5b5459bd8e5e5e478b5f98686f43d7c8408623322c5b49526ff3ca98f8e17ace58d2effdd81359273b1781a400eb1c4cac6ff4365c036238885eb8dbe7e3141659c0204e50e41448e5f55a13fc2a2775cfb0d9a664805439f567da69dd98e0ea523aa6950edebba0cf874b0170701827e52acd60c292c15c7fa0f8126ba2a5ca427cfffa9e053521811e61115200f1561567a824b80cb6d6d7eb205907122f395970717e8090969fafb4bfc1c3c5d3e3eaf2fe021a3e3f5a5c6167686d72768fadd0d3d6f1050f181c1f42444e6c73787d808c909da6ccdaecf9fc0408353740474d7d86bbc1cdf60000000017293f4c01",
        "004dddfcaef57f8f30b11cb86ea19d4754d680d98e97159a3e6fa7350cafd618c1adf31008c1b3827819f5d47fb2443c5328e643b4891b059be409405ba7497e278bd46418d584363161ca17af1f3eb305fec7a30f9ff095872ce38ec7bb3bce794acdaee798525cb14fa28b2ce2909fe7521fdd940b8561428347cbbb8d3dae4fd0e84bcde03c456b0628959b5eb69bcb70006e252e1d6b96542f643af65f77d95efaba60ace75d1c07c05e9f5e06663346dd3cda0802e03bd9e7db3a18879731169ebe35c998612b7ec7a1d6c1b4e960fc5b5150c6223546a7ef8721fd62bcb269e3ab84f72ae08a020c862d6dcc895370f5dbc6f2f0917565fba479839bfe6cc72429ec61d320cb51e4045437fec675a57a41249d718a255493e6edc503758feb222c26bd0df7f2d65f60d762a6bd222c7bdf317ca4d06b1bc3eb12ee9cbeab601a01d7685760783b8780b85ac7fd99de50f5827eaaef2a8e4b579d092d07e251746a655812dc1f6e4b2d571cb3d4139a9c39f13d170dcc876e5458f37ad64a15dfb8bcf6270fd52166206fec9812f9fea0edf0898dc495bd4a6c48428d519ffbba71bee7280e6de038c70b0510bb13a18198fec76df1b03a46d28876d8daf8cdea84bfee98cd966336e297429a542256d6005b1b010b8d1c0865c5a6f7a9cc6b298544f970557b8453eda4648e6c2bd301a628f3b9d918507a920d18d401fe555f66ab893ad50df6f479c87083bb63a0ec9c30c2d6fb8ad24c5cc5682cdbc329dd102bc92ed7756db62413a1307aa2e654ae0c5448bb0d190abc697af692538a541b502edecff5b08de24e3470b35c681962277cb51debb6451166fd1471b173bd37cb1b71d45862bde5b4a6ed4b86c1c79f07bccdb813ba88f7fcad694fd9b51657ad093b5a98875031139adc47a31fc92bf5c5d5edb83e6bb9a791e653631926b3b449ef1f512106a8298bdd134ca753a9b348d0a677fb215b5600f658b87132813be2aff2b5998685ffdfad2eb2b650acd72177bcde4083f5ea1c87ec967a3e41fb57322aca29d05533b92ce46929130c9bb17aa569ddcef81803acfc5ebd2b693be66638edaf4f86a1b54f1c88f427638eb2d7eb41e6a638496f9d64db3f1689574b65f20432b51fb17993774c8bf631fe9d82c612a9e72067edeb2c0c3bf0d926c4745d4120bf75aa7d8a8581ced0bbebb94bbb7e6b0ab9e3398a97fb9d2f150ad8616ebbbf70a12dd7d954c82f5b7df4faf9ce387b9b99b52ed8f32f53a870337d9c98826091f4bf04440a258e77eae71be0cce14f72491f3cde76da0f41aff93eb03d261786d98c460b5aec11c7383f757b5dd63808731c1dcefbd6bcb1fa04ea61f3e2e409ccac96999abe140d6f153d7b6065f707b9044527e12c2a5bbd66ec48fc0da06dadf39d410fb374792ddfbddfd08147c9d0607bf7db4b8dacbc161b40dac0c9276e16c844270d98c926204685e7dd62cf55aed22830e457fe753d6076caa7fa55eea65d599aeaa375e7e63e8c13b516fbbd707f7dc096eda66ee8174b5bc666574dc98b98058017f26f72624ac140fc8e9e2734d0920e10ad9e32833b4af8dcffca78f997e0d760dc9d6dbe89382264cbff89a50855193bb546b1fdde6ad76bc9c9e6dc25ea3632fe9b1eef207bc5fb6f923f93a2dbd95adf841d1196f482557d1bf6d1cf9e5419652793eeb12223db47479529dac02c3296f6f6971cea68e385ccdc682d55d04d5a60ddd1f8943056635a0def0b01a9b0faa11c82e65cf3b8e8e2929816148c9d8d17f0084ba126479bcfed4f17640417baaeea91f382541096643fa431003250d10ad0d023163944a9e14c02534c4f"
      ],
      "sequence": 4294967294
    }
  ],
  "vout": [
    {
      "value": 1.0,
      "n": 0,
      "scriptPubKey": {
        "asm": "OP_RETURN 64c9f55f5214700ab6181a8e922d1819f46f8f84f5743cefc0f902606df5f467 266e74369a004de5eda2b41e85f3f564888313933ce01ba45096ae6d66fb7058064e5416ba206dc5cd82943ea5d3d544a8a333b31cc03b8470b68e4d46db5078662e3476da400da5ade2f45ec5b3b524c8c353d37ca05be410d6ee2d26bb3018460e1456fa602d858dc2d47ee5939504e8e373f35c807bc430f6ce0d069b1038a6eef4b61a80cd656d22349e057375e408039313bc609b24d0162eede67bf0d886ced4963aa0ed454d0214be255355c42823b3339c40bb04f0360ecdc65bd0f8e6aeb4f65ac08d252d6274de453335a44843d353fc20db6490566eada63bb098c68e94d67ae0ad050d4254fe651315846863f373dc00fb44b0764e8d861b90b8266e74369a004de5eda2b41e85f3f564888313933ce01ba45096ae6d66fb7058064e5416ba206dc5cd82943ea5d3d544a8a333b31cc03b8470b68e4d46db5078662e3476da400da5ade2f45ec5b3b524c8c353d37ca05be410d6ee2d26bb3018460e1456fa602d858dc2d47ee5939504e8e373f35c807bc430f6ce0d069b1038a6eef4b61a80cd656d22349e057375e408039313bc609b24d0162eede67bf0d886ced4963aa0ed454d0214be255355c42823b3339c40bb04f0360ecdc65bd0f8e6aeb4f65ac08d252d6274de453335a44843d353fc20db6490566eada63bb098c68e94d67ae0ad050d4254fe651315846863f373dc00fb44b0764e8d861b90b8266e74369a004de5eda2b41e85f3f564888313933ce01ba45096ae6d66fb7058064e5416ba206dc5cd82943ea5d3d544a8a333b31cc03b8470b68e4d46db5078662e3476da400da5ade2f45ec5b3b524c8c353d37ca05be410d6ee2d26bb3018460e1456fa602d858dc2d47ee5939504e8e373f35c807bc430f6ce0d069b1038a6eef4b61a80cd656d22349e057375e408039313bc609b24d0162eede67bf0d886ced4963aa0ed454d0214be255355c42823b3339c40bb04f0360ecdc65bd0f8e6aeb4f65ac08d252d6274de453335a44843d353fc20db6490566eada63bb098c68e94d67ae0ad050d4254fe651315846863f373dc00fb44b0764e8d861b90b8266e74369a004de5eda2b41e85f3f564888313933ce01ba45096ae6d66fb7058064e5416ba206dc5cd82943ea5d3d544a8a333b31cc03b8470b68e4d46db5078662e3476da400da5ade2f45ec5b3b524c8c353d37ca05be410d6ee2d26bb3018460e1456fa602d858dc2d47ee5939504e8e373f35c807bc430f6ce0d069b1038a6eef4b61a80cd656d22349e057375e408039313bc609b24d0162eede67bf0d886ced4963aa0ed454d0214be255355c42823b3339c40bb04f0360ecdc65bd0f8e6aeb4f65ac08d252d6274de453335a44843d353fc20db6490566eada63bb098c68e94d67ae0ad050d4254fe651315846863f373dc00fb44b0764e8d861b90b8266e74369a004de5eda2b41e85f3f564888313933ce01ba45096ae6d66fb7058064e5416ba206dc5cd82943ea5d3d544a8a333b31cc03b8470b68e4d46db5078662e3476da400da5ade2f45ec5b3b524c8c353d37ca05be410d6ee2d26bb3018460e1456fa602d858dc2d47ee5939504e8e373f35c807bc430f6ce0d069b1038a6eef4b61a80cd656d22349e057375e42a9e45468a50d7e0d627f2763358704f14f66eac0fc0984186d4910331a0172c",
        "hex": "6a2064c9f55f5214700ab6181a8e922d1819f46f8f84f5743cefc0f902606df5f4674db004266e74369a004de5eda2b41e85f3f564888313933ce01ba45096ae6d66fb7058064e5416ba206dc5cd82943ea5d3d544a8a333b31cc03b8470b68e4d46db5078662e3476da400da5ade2f45ec5b3b524c8c353d37ca05be410d6ee2d26bb3018460e1456fa602d858dc2d47ee5939504e8e373f35c807bc430f6ce0d069b1038a6eef4b61a80cd656d22349e057375e408039313bc609b24d0162eede67bf0d886ced4963aa0ed454d0214be255355c42823b3339c40bb04f0360ecdc65bd0f8e6aeb4f65ac08d252d6274de453335a44843d353fc20db6490566eada63bb098c68e94d67ae0ad050d4254fe651315846863f373dc00fb44b0764e8d861b90b8266e74369a004de5eda2b41e85f3f564888313933ce01ba45096ae6d66fb7058064e5416ba206dc5cd82943ea5d3d544a8a333b31cc03b8470b68e4d46db5078662e3476da400da5ade2f45ec5b3b524c8c353d37ca05be410d6ee2d26bb3018460e1456fa602d858dc2d47ee5939504e8e373f35c807bc430f6ce0d069b1038a6eef4b61a80cd656d22349e057375e408039313bc609b24d0162eede67bf0d886ced4963aa0ed454d0214be255355c42823b3339c40bb04f0360ecdc65bd0f8e6aeb4f65ac08d252d6274de453335a44843d353fc20db6490566eada63bb098c68e94d67ae0ad050d4254fe651315846863f373dc00fb44b0764e8d861b90b8266e74369a004de5eda2b41e85f3f564888313933ce01ba45096ae6d66fb7058064e5416ba206dc5cd82943ea5d3d544a8a333b31cc03b8470b68e4d46db5078662e3476da400da5ade2f45ec5b3b524c8c353d37ca05be410d6ee2d26bb3018460e1456fa602d858dc2d47ee5939504e8e373f35c807bc430f6ce0d069b1038a6eef4b61a80cd656d22349e057375e408039313bc609b24d0162eede67bf0d886ced4963aa0ed454d0214be255355c42823b3339c40bb04f0360ecdc65bd0f8e6aeb4f65ac08d252d6274de453335a44843d353fc20db6490566eada63bb098c68e94d67ae0ad050d4254fe651315846863f373dc00fb44b0764e8d861b90b8266e74369a004de5eda2b41e85f3f564888313933ce01ba45096ae6d66fb7058064e5416ba206dc5cd82943ea5d3d544a8a333b31cc03b8470b68e4d46db5078662e3476da400da5ade2f45ec5b3b524c8c353d37ca05be410d6ee2d26bb3018460e1456fa602d858dc2d47ee5939504e8e373f35c807bc430f6ce0d069b1038a6eef4b61a80cd656d22349e057375e408039313bc609b24d0162eede67bf0d886ced4963aa0ed454d0214be255355c42823b3339c40bb04f0360ecdc65bd0f8e6aeb4f65ac08d252d6274de453335a44843d353fc20db6490566eada63bb098c68e94d67ae0ad050d4254fe651315846863f373dc00fb44b0764e8d861b90b8266e74369a004de5eda2b41e85f3f564888313933ce01ba45096ae6d66fb7058064e5416ba206dc5cd82943ea5d3d544a8a333b31cc03b8470b68e4d46db5078662e3476da400da5ade2f45ec5b3b524c8c353d37ca05be410d6ee2d26bb3018460e1456fa602d858dc2d47ee5939504e8e373f35c807bc430f6ce0d069b1038a6eef4b61a80cd656d22349e057375e42a9e45468a50d7e0d627f2763358704f14f66eac0fc0984186d4910331a0172c",
        "type": "nulldata"
      }
    },
    {
      "value": 499962.3747,
      "n": 1,
      "scriptPubKey": {
        "asm": "1 73c7e8cced863ff4d8d01c5761ff23d65b3538f434ff92382f7b31edb74477fa",
        "hex": "512073c7e8cced863ff4d8d01c5761ff23d65b3538f434ff92382f7b31edb74477fa",
        "reqSigs": 1,
        "type": "witness_v1_scripthash",
        "addresses": [
          "3QJmnh"
        ]
      }
    }
  ],
  "blockhash": "04b08afa406522d4605e5542ad480440adf33b25b306f33fff8225e2cbbf4733",
  "confirmations": 1,
  "time": 1764183055,
  "blocktime": 1764183055
}