{
  "hex": "010000000001014788dc23103705613414881503993f91ef278adef283c2a2bdaaab1186d7430d0000000000feffffff02c02309ae782d0000225120c5d28de49ed24de82195dba98e10f6027893615f30fb816a4c689fb0108b747400e1f50500000000fdd5046a2084886f632570b684237f75496599b9a1290da24df615ef845760ef6dcc0a8fcd4db00492bce0962d508d994df7cae5a54ce8093f24f67cbca1e16c7f814f8eeaa03432b29cc0b60d70adb96dd7eac5856cc8291f04d65c9c81c14c5fa16faeca801412d2fca0d66d10cdd90db78aa5e50ca8497f64b63cfce1a12c3fc10fceaae07472f2dc80f64d30edf92d97aa85c52c88695f44961cdcc1810c1fe12fee8ac05452123c6016add00d19cd774a6525cc6889bfa476fc3c2161ecff01cf0e6a20b4b2321c40368df02d39ed576a4505ec48a99f8456dc1c0141ccdf21ef2e4a009492527c2056ed904d598d370a25658c28c9ffe436bc7c6121acbf418f4e2a60f4f2725c0076cdb06d79ad172a0545ac08e9dfc4169c5c41018c9f61af6e0a40d4d292bce0962d508d994df7cae5a54ce8093f24f67cbca1e16c7f814f8eeaa03432b29cc0b60d70adb96dd7eac5856cc8291f04d65c9c81c14c5fa16faeca801412d2fca0d66d10cdd90db78aa5e50ca8497f64b63cfce1a12c3fc10fceaae07472f2dc80f64d30edf92d97aa85c52c88695f44961cdcc1810c1fe12fee8ac05452123c6016add00d19cd774a6525cc6889bfa476fc3c2161ecff01cf0e6a20b4b2321c40368df02d39ed576a4505ec48a99f8456dc1c0141ccdf21ef2e4a009492527c2056ed904d598d370a25658c28c9ffe436bc7c6121acbf418f4e2a60f4f2725c0076cdb06d79ad172a0545ac08e9dfc4169c5c41018c9f61af6e0a40d4d292bce0962d508d994df7cae5a54ce8093f24f67cbca1e16c7f814f8eeaa03432b29cc0b60d70adb96dd7eac5856cc8291f04d65c9c81c14c5fa16faeca801412d2fca0d66d10cdd90db78aa5e50ca8497f64b63cfce1a12c3fc10fceaae07472f2dc80f64d30edf92d97aa85c52c88695f44961cdcc1810c1fe12fee8ac05452123c6016add00d19cd774a6525cc6889bfa476fc3c2161ecff01cf0e6a20b4b2321c40368df02d39ed576a4505ec48a99f8456dc1c0141ccdf21ef2e4a009492527c2056ed904d598d370a25658c28c9ffe436bc7c6121acbf418f4e2a60f4f2725c0076cdb06d79ad172a0545ac08e9dfc4169c5c41018c9f61af6e0a40d4d292bce0962d508d994df7cae5a54ce8093f24f67cbca1e16c7f814f8eeaa03432b29cc0b60d70adb96dd7eac5856cc8291f04d65c9c81c14c5fa16faeca801412d2fca0d66d10cdd90db78aa5e50ca8497f64b63cfce1a12c3fc10fceaae07472f2dc80f64d30edf92d97aa85c52c88695f44961cdcc1810c1fe12fee8ac05452123c6016add00d19cd774a6525cc6889bfa476fc3c2161ecff01cf0e6a20b4b2321c40368df02d39ed576a4505ec48a99f8456dc1c0141ccdf21ef2e4a009492527c2056ed904d598d370a25658c28c9ffe436bc7c6121acbf418f4e2a60f4f2725c0076cdb06d79ad172a0545ac08e9dfc4169c5c41018c9f61af6e0a40d4d292bce0962d508d994df7cae5a54ce8093f24f67cbca1e16c7f814f8eeaa03432b29cc0b60d70adb96dd7eac5856cc8291f04d65c9c81c14c5fa16faeca801412d2fca0d66d10cdd90db78aa5e50ca8497f64b63cfce1a12c3fc10fceaae07472f2dc80f64d30edf92d97aa85c52c88695f44961cdcc1810c1fe12fee8ac05452123c6016add00d19cd774a6525cc6889931fb8f4ed138fbf6a906c96f7ccb26cf15899a253e8075b6765f1e4667b18db02fd75093fce15781e871507936fd42bb2d8f338cee0690753590eb2b44f7778277342316310b0aecf6c54bed1bd9517f527aaaa43b8de0b50954ce23551e22708ad8e3595caddd8ae481739e36886599daab399f023b3fad477bce125b518cb489bf1353f36c767210f0a69073286f590052d679273dcbbbb4cc9f61ea855878a439614749e78a0265717731fd924752dabef42e63eff4b0408c85a41b10676eea1f5820c85fee28fbb053615bba8bbc8067a9a0f4cb4c5b73e7fa00281b4de38a81b7560e503528a8f0ae37fdbe1a1985b44c281c6f8c5fcb7e58a9bd2f99f0dc7989e8fd5944e4acd2ac6e09989bf6cde3a6c832dd10d91dce678b26ac5cb26544cf05a3d0e5b2ad77ea6afedf94b49cc2995da29ec368fdcfd69e3d294d057945065f43516199874ce012d837bc37c3f3847ccff7b49ecacec42a7db3a5395ae233de96224cd6e49fb6760f0e4d1289bd38089c62570240bfd1b1b83040128653963371446608bb7b2ea39d021f660b4245ff7570be1a7d92b23cb18579b758f372c0ec803d088c55ff1dab9fd3f01742b02bcccfe7554573922d31b6608064c50f86851357fc4e865a44f7d43190e292220fe9f91ebda545422e9bbed21d1c7d4019505069560f6adf5210823daab288c86628549b7230c1560cfa30768953b6f30b63cb21372f425c5c2e95b7b908ec6e61d65ad9b015c9fa389d24c9e347c86c9b9b5d39fc93383718ca212f409d5309ec3d35bd87f378afd1141723ba24020c5c31f323c4407eb1b612604337452227974abb6996a8ff59225c95df800b1501633a54249182f79b7a2c4eead388344b780023fe3f2e6d676d294d500de2d8222f0206f4e80dc13b528a02b164d0c5a79291d6b2d5f4b540aa16d6ea817bab129331d71504562b2ff7e26f42119018a6e10b3577afad2a6d57b2b5a6b4e5e9a1fce28d7d323547876b3520b4f0804f0adb37b3c32fdc1ae42a926afc7664c1bb8288cb235892b9bed214b662c20596ed1ade99695e88b63824d697989945550deeb2a4a69b3242a01f6ec0fb29f4a11f96922a768fc257d15de9033550f253a6cf9e5bd6e15448616982dc13aaae8f420c882fd78260ba720efe16068f5e40336faf21f6bd5a2956d5e39727c9a0d50f1d832be6af1ccdef89af8ca98dd7c844f6839e6be28b4ae16c0e0884f550e6ec89f47521083bd7e30f06821d34984d38c313972419d6c5b60bb99a4670304890015945c3f766863cba3c0186f0c1efb2c21d15c712a0591529868eb18db49828579dd028a9c3fb0545716fb8340392b9b78574ce1d4367b0513c9886c6c9da12ebe5fb58e6445735f2fc19b0f27ecf4cbd82141ec1db9c7462acc291c33c5909d43462d7bec185d880bd8e2c0cc3e33cf844ab571c63004c28250bd6cc58a93d24465c0769b9bb34d2fbe94d50de7a01cd3363bedbc6e4447e28f01910fc09b3304ddb519cb846c5f7cd35e9fccf232061fa18a34baaa212cb4a384604fa10df58bd2f97d80b11453bf36e0234a2604d911925f1cd01160969c8816bc7dc740d8e3c662f0c371cd0437ac66c37b663c14abb3f5c2a21ee562e462d6d2e92d886ed8acbea46d5d0c35a8e07e927a08f7f565021476be50ce33e3d68edf0d7b7652ca67faff90c9cfdc119dead9e094a9833557db6b6130182891ecde59fdcbe03fdc9dd1e8bf117a1150b615701ea0cf0737bc327cc68927fc1f2e508609f66807ba67859d2aeef82a1aeb963213654277c6fd446ec520174aeba4de59e31db35e7d97cdc8bd77166f48b10f50f531adfbe5a82ac6063e109492c3b27b87243025611c1bcbe6069f960bf3bfacb342161f2c613bf63f8a4d7e4f276f06fd727a9b57f379bb08ad2c28426e7dd8799c0da657dc9184ee382a33e7e3f3fb1a1c9e7bb8653faffd0627eab7bd56e1c0de52fbb4e2327c7e8967dc5225cc9ff9f00f5f28337afb89ba9b9c949c30e548fbdd02730800b1957ff9325b260a01d6605ced9aee5cd6cc62c7324fe902e7f59e7625a9d1030edb7084605f1233563b70a2b56848c7f375e29f26276064d54108956a31e165ca382a74cf670b8f32b95defcf08094b74b35cae14aad4d943191f4b40ad6bbe54c0c7affce4c664346108fd7cc7677ce33cf3d02447c54572ad516e7f25bd5dc648dc6bdbac81e2163ab8d69b886eeaac32ccdbb8b49fb9c7a94bf99e489792e64631353fdaac47ec01393b03abf8df5d174e5fde6c12d2be88581e8aa5fb574be37f61bd53814217cf3d398e18adeb68b5795610c5512f2ce416adee5dfa6e0347031ce0e19c5a39be9f39bb8b21cf210f9e248c1993ed7fb464f77a9add2b96c0213f416ba18136507b7afb6a2b8910e229741b1678168b2b69083d95a6829ae6a45b5cb4982c7c489ccc6eacd55d4f9959276626b9c9a91134e81d9fa20b922e990e182f5cfd90ce4a38df621dd90b13b51761932c2c52519d6c3bda2f7b094dee61d1eead0255ece8b0bf8c28e2f8f1c024fa1d93d67c0b9a34b7964075db415bb8a2cc2c59089a7bdcb3c0806c63b9984fe62bdbdbb2e86cdf8e5e00ed2c0ada51b45546646e2673b35d927564c58261333c89154e0f9ac15eba12fabc7eb429c791895c498c481f045391247dc2b94b27a7aaeafbe602ec3749553f52672abf271bddd76f72d32702551d24b0c87e2dba936306ae617c7256e0fc4086759c64727c363adcff56836bf97554d7887e51e85f6044e5353ab3a6418af649d9072ba110885f87f21b2aa5eff35aedc7a9dc615e7b57a54e2deb6475f2cfc2260700b5c31c2715c840045e25c5f6672a7b2240c463b0735363cf94b0a36971ae73a62bc91a539d390cbc071b3cb8ef07a08f831f359aa4ca2d73a77a38bbb5a33526b0225a3687c6a559ac12b81bf823f6d3ff1f8ba3b9a98a4af2fc34387490f8fafc5f3d9a597b3bf60bbf53654e97cdb871a3427a23bffce7835ad03b3ae0bd58f81bfeb8014c66bb68941d9a7d6c30563477535c4559edaee48c38355806d16a97b4df094573ac79b63d5b4397de13425391be9fb672dc8f9a91ea1cea49b76b264f06df6a89751dde8f66c5aab313af8a5a49d566db6bcd66a25b7dca443594ab88051f8353b306f8d9605efea950dff9a5d1e49e312e7bc87381436201fcdc323b9b062e1d139073b3c9a891c36e3f797b1a5f5012ed1ca3fa05116cc7db0412517c84bee64579c541d9263ea9a5a9c1b4f69051fd2e4754aacf41468d544d926b0ff1c1bfd738ac70073982b9bac9505be3eca2105081ca730d174d4f61657172839799ccd3da0b0c1e2a2b32464a5c69779399a6a7bcdfe2e8f1f2f7050d1c233446545963778fbad4ddf00a1e20495e606d7a96a2a4a8b5bdc3cfdcec00000000000000000000000e24334501fd2105000b996d6095018c63bee7db38dd5ea559115aa63f7c8e188f982d03f5956537fe559848296eda2c96efc12d282af9d46de53a003e2b90661404c6ec7b3986fa08cd26bac0205f717a3b7ae55ec9cf1fd60ee9227c20359df9f4b9aa352211f115090b3eee1284371d9a9c19c9ca141bdc539ce8b1e523fb93d48a77baf242359dfae8d55796bdc632308a4dab5c0c9e1bcd02bf93c133f7be7513096dc4b5ec5a8605cf99c3f747545ef76a3c8d63e16e2355143b30dd7f58b59722718679d9d1c314a1e086242492d2a43d7f481e02c0a1ee93eb2cf958251623ac93e8c7fbbb3ff8a0760ff4984020cde30869891bc5d2d9aa67960884a8d0cd9b3a357ff62dbebe2839da27308944a309c2263ad8876cd9e4dfec8c3c38146c56a71c705997716c460cc765e6430ffb490074139e6ec31fae024438172cf2a94a5d31b13c88cccde060c90e26cfea3e3c5f4cb69408ae12a7f2a742938d1a3afc2d426a8e52db8c4b095030713e3d7eacb68540f909a12fa7f98275d3cf383b33d95ad1211008411f5b31df0c1f9de2e4de5a8629b689a2d9eed1158080e0367b2d2d150e23a1df07eee7082fdce755cfee0c841ea07ce3cd72450704d9e3b16b44bbbfed8d90e2237dc6c8e7db449acce747ae1906bcc292a30d575edbce1fe1982e90b856a6bf689819f4c1fb1a64921da25a03fd33ac15b4a07bb33658b728e17666549e80bd7c4e7c71f7d30855fbf3934192cc96919e339dcf9cd99906e9917098685187da12e584b6a5a0884dc6b8a0ca5669f62956bab53fa7ed681f8858416dd87de930544081beb25477b7cf112de5ab82897b659914e8ffd457ea41219ac18e1f9800f2e944b36d012bec857c2ade484eb0eecf9ac0bc73027e13569b1952c87a6f14a57dfefc9e1c56712ee08e7274cc4d7c40387d1ad944c3e37022dfce0b62c49517e7224ead46706801446d66c2db92fffffb74a045721f99b23944e74a3baac181dd625e3ecacf900bd0cfa1dabbe2a2a84907ad4adab4292843530aeccdefc93001a1d986869281e09cde7c447fd17b0104dab2b5b1e44f3eef2ebd87c7053b09aa5e22b218227ec06d26f12347cdf772c66344c125f02d3a130ffa59d4b57782b486fdf1d859b118ffc94a7ed1a1ad35b2e5f7e8167363d2511ead5753c6f3805747994f7dca694d95b4514aa1e8ba93031808a00a7f746c6faa0238ed0c19064a8d4ad2a8fabfd02d4f234046efbdf23d19296725e8c3ee3d6cf98c6944700c7a81c7849641f2fa989a1248535ae2640ddbe8cc5ead5ce7c5447c216d06ecb87b2344d29d45caaa14aca4fa73ac2c64510fc6835f08769258208cd37cdb77661779a106083633f884390a78db4607af37c5521b45ae5aa0f6ddfca605860798de619fe09bfc6974a6835a2902d43cac8dd7b3a4d79107199c86dcdf3fdb568abf6cdd60836cc9f0245df793a60bfce1aa6d652014ae7d3de0105335941cc1395ab070533a09ae3a246f0981165bc10d8c63d4e94cc41b6410bb3d3ae3abedc9001e012563f082e571a2d8b8745287274e732ec3a633f520ce7f1f85813d2c80e40522784790f22860ae266f4854107c7b425e6b02b87d20f71c07ec3f11969d89589b0cac61884d2294777436f1653b03f137dd21fa058d7c9c4ac1adf7c5c79c35fc0a4e1a146421aae558fcdeb9d3efcce1960bf6bf3156e92706e6405743177d1178a533834d10c217a89bbb7e2d06ce618860c45a34654cab88e9bb6c1b22eadc63488784a58631c0d93ba28c05e21f477f961ff1bc5c5b0d45a134c9e82c88c66512d011d0e4f3969b2d61ab86ae685610997ce49febfb3c7eff86000000",
  "txid": "fc49dab4696eb9300bbf11f5dcaac3600eee7e31c1a7c03263b9952b60ddcbe8",
  "hash": "255b429fde89ea4444b10e24ac46f4f90e654343fab48c4c6a83f604ce07ea73",
  "size": 5085,
  "vsize": 2278,
  "version": 1,
  "locktime": 134,
  "vin": [
    {
      "txid": "0d43d78611abaabda2c283f2de8a27ef913f9903158814346105371023dc8847",
      "vout": 0,
      "scriptSig": {
        "asm": "",
        "hex": ""
      },
      "txinwitness": [
        "3fce15781e871507936fd42bb2d8f338cee0690753590eb2b44f7778277342316310b0aecf6c54bed1bd9517f527aaaa43b8de0b50954ce23551e22708ad8e3595caddd8ae481739e36886599daab399f023b3fad477bce125b518cb489bf1353f36c767210f0a69073286f590052d679273dcbbbb4cc9f61ea855878a439614749e78a0265717731fd924752dabef42e63eff4b0408c85a41b10676eea1f5820c85fee28fbb053615bba8bbc8067a9a0f4cb4c5b73e7fa00281b4de38a81b7560e503528a8f0ae37fdbe1a1985b44c281c6f8c5fcb7e58a9bd2f99f0dc7989e8fd5944e4acd2ac6e09989bf6cde3a6c832dd10d91dce678b26ac5cb26544cf05a3d0e5b2ad77ea6afedf94b49cc2995da29ec368fdcfd69e3d294d057945065f43516199874ce012d837bc37c3f3847ccff7b49ecacec42a7db3a5395ae233de96224cd6e49fb6760f0e4d1289bd38089c62570240bfd1b1b83040128653963371446608bb7b2ea39d021f660b4245ff7570be1a7d92b23cb18579b758f372c0ec803d088c55ff1dab9fd3f01742b02bcccfe7554573922d31b6608064c50f86851357fc4e865a44f7d43190e292220fe9f91ebda545422e9bbed21d1c7d4019505069560f6adf5210823daab288c86628549b7230c1560cfa30768953b6f30b63cb21372f425c5c2e95b7b908ec6e61d65ad9b015c9fa389d24c9e347c86c9b9b5d39fc93383718ca212f409d5309ec3d35bd87f378afd1141723ba24020c5c31f323c4407eb1b612604337452227974abb6996a8ff59225c95df800b1501633a54249182f79b7a2c4eead388344b780023fe3f2e6d676d294d500de2d8222f0206f4e80dc13b528a02b164d0c5a79291d6b2d5f4b540aa16d6ea817bab129331d71504562b2ff7e26f42119018a6e10b3577afad2a6d57b2b5a6b4e5e9a1fce28d7d323547876b3520b4f0804f0adb37b3c32fdc1ae42a926afc7664c1bb8288cb235892b9bed214b662c20596ed1ade99695e88b63824d697989945550deeb2a4a69b3242a01f6ec0fb29f4a11f96922a768fc257d15de9033550f253a6cf9e5bd6e15448616982dc13aaae8f420c882fd78260ba720efe16068f5e40336faf21f6bd5a2956d5e39727c9a0d50f1d832be6af1ccdef89af8ca98dd7c844f6839e6be28b4ae16c0e0884f550e6ec89f47521083bd7e30f06821d34984d38c313972419d6c5b60bb99a4670304890015945c3f766863cba3c0186f0c1efb2c21d15c712a0591529868eb18db49828579dd028a9c3fb0545716fb8340392b9b78574ce1d4367b0513c9886c6c9da12ebe5fb58e6445735f2fc19b0f27ecf4cbd82141ec1db9c7462acc291c33c5909d43462d7bec185d880bd8e2c0cc3e33cf844ab571c63004c28250bd6cc58a93d24465c0769b9bb34d2fbe94d50de7a01cd3363bedbc6e4447e28f01910fc09b3304ddb519cb846c5f7cd35e9fccf232061fa18a34baaa212cb4a384604fa10df58bd2f97d80b11453bf36e0234a2604d911925f1cd01160969c8816bc7dc740d8e3c662f0c371cd0437ac66c37b663c14abb3f5c2a21ee562e462d6d2e92d886ed8acbea46d5d0c35a8e07e927a08f7f565021476be50ce33e3d68edf0d7b7652ca67faff90c9cfdc119dead9e094a9833557db6b6130182891ecde59fdcbe03fdc9dd1e8bf117a1150b615701ea0cf0737bc327cc68927fc1f2e508609f66807ba67859d2aeef82a1aeb963213654277c6fd446ec520174aeba4de59e31db35e7d97cdc8bd77166f48b10f50f531adfbe5a82ac6063e109492c3b27b87243025611c1bcbe6069f960bf3bfacb342161f2c613bf63f8a4d7e4f276f06fd727a9b57f379bb08ad2c28426e7dd8799c0da657dc9184ee382a33e7e3f3fb1a1c9e7bb8653faffd0627eab7bd56e1c0de52fbb4e2327c7e8967dc5225cc9ff9f00f5f28337afb89ba9b9c949c30e548fbdd02730800b1957ff9325b260a01d6605ced9aee5cd6cc62c7324fe902e7f59e7625a9d1030edb7084605f1233563b70a2b56848c7f375e29f26276064d54108956a31e165ca382a74cf670b8f32b95defcf08094b74b35cae14aad4d943191f4b40ad6bbe54c0c7affce4c664346108fd7cc7677ce33cf3d02447c54572ad516e7f25bd5dc648dc6bdbac81e2163ab8d69b886eeaac32ccdbb8b49fb9c7a94bf99e489792e64631353fdaac47ec01393b03abf8df5d174e5fde6c12d2be88581e8aa5fb574be37f61bd53814217cf3d398e18adeb68b5795610c5512f2ce416adee5dfa6e0347031ce0e19c5a39be9f39bb8b21cf210f9e248c1993ed7fb464f77a9add2b96c0213f416ba18136507b7afb6a2b8910e229741b1678168b2b69083d95a6829ae6a45b5cb4982c7c489ccc6eacd55d4f9959276626b9c9a91134e81d9fa20b922e990e182f5cfd90ce4a38df621dd90b13b51761932c2c52519d6c3bda2f7b094dee61d1eead0255ece8b0bf8c28e2f8f1c024fa1d93d67c0b9a34b7964075db415bb8a2cc2c59089a7bdcb3c0806c63b9984fe62bdbdbb2e86cdf8e5e00ed2c0ada51b45546646e2673b35d927564c58261333c89154e0f9ac15eba12fabc7eb429c791895c498c481f045391247dc2b94b27a7aaeafbe602ec3749553f52672abf271bddd76f72d32702551d24b0c87e2dba936306ae617c7256e0fc4086759c64727c363adcff56836bf97554d7887e51e85f6044e5353ab3a6418af649d9072ba110885f87f21b2aa5eff35aedc7a9dc615e7b57a54e2deb6475f2cfc2260700b5c31c2715c840045e25c5f6672a7b2240c463b0735363cf94b0a36971ae73a62bc91a539d390cbc071b3cb8ef07a08f831f359aa4ca2d73a77a38bbb5a33526b0225a3687c6a559ac12b81bf823f6d3ff1f8ba3b9a98a4af2fc34387490f8fafc5f3d9a597b3bf60bbf53654e97cdb871a3427a23bffce7835ad03b3ae0bd58f81bfeb8014c66bb68941d9a7d6c30563477535c4559edaee48c38355806d16a97b4df094573ac79b63d5b4397de13425391be9fb672dc8f9a91ea1cea49b76b264f06df6a89751dde8f66c5aab313af8a5a49d566db6bcd66a25b7dca443594ab88051f8353b306f8d9605efea950dff9a5d1e49e312e7bc87381436201fcdc323b9b062e1d139073b3c9a891c36e3f797b1a5f5012ed1ca3fa05116cc7db0412517c84bee64579c541d9263ea9a5a9c1b4f69051fd2e4754aacf41468d544d926b0ff1c1bfd738ac70073982b9bac9505be3eca2105081ca730d174d4f61657172839799ccd3da0b0c1e2a2b32464a5c69779399a6a7bcdfe2e8f1f2f7050d1c233446545963778fbad4ddf00a1e20495e606d7a96a2a4a8b5bdc3cfdcec00000000000000000000000e24334501",
        "000b996d6095018c63bee7db38dd5ea559115aa63f7c8e188f982d03f5956537fe559848296eda2c96efc12d282af9d46de53a003e2b90661404c6ec7b3986fa08cd26bac0205f717a3b7ae55ec9cf1fd60ee9227c20359df9f4b9aa352211f115090b3eee1284371d9a9c19c9ca141bdc539ce8b1e523fb93d48a77baf242359dfae8d55796bdc632308a4dab5c0c9e1bcd02bf93c133f7be7513096dc4b5ec5a8605cf99c3f747545ef76a3c8d63e16e2355143b30dd7f58b59722718679d9d1c314a1e086242492d2a43d7f481e02c0a1ee93eb2cf958251623ac93e8c7fbbb3ff8a0760ff4984020cde30869891bc5d2d9aa67960884a8d0cd9b3a357ff62dbebe2839da27308944a309c2263ad8876cd9e4dfec8c3c38146c56a71c705997716c460cc765e6430ffb490074139e6ec31fae024438172cf2a94a5d31b13c88cccde060c90e26cfea3e3c5f4cb69408ae12a7f2a742938d1a3afc2d426a8e52db8c4b095030713e3d7eacb68540f909a12fa7f98275d3cf383b33d95ad1211008411f5b31df0c1f9de2e4de5a8629b689a2d9eed1158080e0367b2d2d150e23a1df07eee7082fdce755cfee0c841ea07ce3cd72450704d9e3b16b44bbbfed8d90e2237dc6c8e7db449acce747ae1906bcc292a30d575edbce1fe1982e90b856a6bf689819f4c1fb1a64921da25a03fd33ac15b4a07bb33658b728e17666549e80bd7c4e7c71f7d30855fbf3934192cc96919e339dcf9cd99906e9917098685187da12e584b6a5a0884dc6b8a0ca5669f62956bab53fa7ed681f8858416dd87de930544081beb25477b7cf112de5ab82897b659914e8ffd457ea41219ac18e1f9800f2e944b36d012bec857c2ade484eb0eecf9ac0bc73027e13569b1952c87a6f14a57dfefc9e1c56712ee08e7274cc4d7c40387d1ad944c3e37022dfce0b62c49517e7224ead46706801446d66c2db92fffffb74a045721f99b23944e74a3baac181dd625e3ecacf900bd0cfa1dabbe2a2a84907ad4adab4292843530aeccdefc93001a1d986869281e09cde7c447fd17b0104dab2b5b1e44f3eef2ebd87c7053b09aa5e22b218227ec06d26f12347cdf772c66344c125f02d3a130ffa59d4b57782b486fdf1d859b118ffc94a7ed1a1ad35b2e5f7e8167363d2511ead5753c6f3805747994f7dca694d95b4514aa1e8ba93031808a00a7f746c6faa0238ed0c19064a8d4ad2a8fabfd02d4f234046efbdf23d19296725e8c3ee3d6cf98c6944700c7a81c7849641f2fa989a1248535ae2640ddbe8cc5ead5ce7c5447c216d06ecb87b2344d29d45caaa14aca4fa73ac2c64510fc6835f08769258208cd37cdb77661779a106083633f884390a78db4607af37c5521b45ae5aa0f6ddfca605860798de619fe09bfc6974a6835a2902d43cac8dd7b3a4d79107199c86dcdf3fdb568abf6cdd60836cc9f0245df793a60bfce1aa6d652014ae7d3de0105335941cc1395ab070533a09ae3a246f0981165bc10d8c63d4e94cc41b6410bb3d3ae3abedc9001e012563f082e571a2d8b8745287274e732ec3a633f520ce7f1f85813d2c80e40522784790f22860ae266f4854107c7b425e6b02b87d20f71c07ec3f11969d89589b0cac61884d2294777436f1653b03f137dd21fa058d7c9c4ac1adf7c5c79c35fc0a4e1a146421aae558fcdeb9d3efcce1960bf6bf3156e92706e6405743177d1178a533834d10c217a89bbb7e2d06ce618860c45a34654cab88e9bb6c1b22eadc63488784a58631c0d93ba28c05e21f477f961ff1bc5c5b0d45a134c9e82c88c66512d011d0e4f3969b2d61ab86ae685610997ce49febfb3c7eff"
      ],
      "sequence": 4294967294
    }
  ],
  "vout": [
    {
      "value": 499963.3916,
      "n": 0,
      "scriptPubKey": {
        "asm": "1 c5d28de49ed24de82195dba98e10f6027893615f30fb816a4c689fb0108b7474",
        "hex": "5120c5d28de49ed24de82195dba98e10f6027893615f30fb816a4c689fb0108b7474",
        "reqSigs": 1,
        "type": "witness_v1_scripthash",
        "addresses": [
          "3QJmnh"
        ]
      }
    },
    {
      "value": 1.0,
      "n": 1,
      "scriptPubKey": {
        "asm": "OP_RETURN 84886f632570b684237f75496599b9a1290da24df615ef845760ef6dcc0a8fcd 92bce0962d508d994df7cae5a54ce8093f24f67cbca1e16c7f814f8eeaa03432b29cc0b60d70adb96dd7eac5856cc8291f04d65c9c81c14c5fa16faeca801412d2fca0d66d10cdd90db78aa5e50ca8497f64b63cfce1a12c3fc10fceaae07472f2dc80f64d30edf92d97aa85c52c88695f44961cdcc1810c1fe12fee8ac05452123c6016add00d19cd774a6525cc6889bfa476fc3c2161ecff01cf0e6a20b4b2321c40368df02d39ed576a4505ec48a99f8456dc1c0141ccdf21ef2e4a009492527c2056ed904d598d370a25658c28c9ffe436bc7c6121acbf418f4e2a60f4f2725c0076cdb06d79ad172a0545ac08e9dfc4169c5c41018c9f61af6e0a40d4d292bce0962d508d994df7cae5a54ce8093f24f67cbca1e16c7f814f8eeaa03432b29cc0b60d70adb96dd7eac5856cc8291f04d65c9c81c14c5fa16faeca801412d2fca0d66d10cdd90db78aa5e50ca8497f64b63cfce1a12c3fc10fceaae07472f2dc80f64d30edf92d97aa85c52c88695f44961cdcc1810c1fe12fee8ac05452123c6016add00d19cd774a6525cc6889bfa476fc3c2161ecff01cf0e6a20b4b2321c40368df02d39ed576a4505ec48a99f8456dc1c0141ccdf21ef2e4a009492527c2056ed904d598d370a25658c28c9ffe436bc7c6121acbf418f4e2a60f4f2725c0076cdb06d79ad172a0545ac08e9dfc4169c5c41018c9f61af6e0a40d4d292bce0962d508d994df7cae5a54ce8093f24f67cbca1e16c7f814f8eeaa03432b29cc0b60d70adb96dd7eac5856cc8291f04d65c9c81c14c5fa16faeca801412d2fca0d66d10cdd90db78aa5e50ca8497f64b63cfce1a12c3fc10fceaae07472f2dc80f64d30edf92d97aa85c52c88695f44961cdcc1810c1fe12fee8ac05452123c6016add00d19cd774a6525cc6889bfa476fc3c2161ecff01cf0e6a20b4b2321c40368df02d39ed576a4505ec48a99f8456dc1c0141ccdf21ef2e4a009492527c2056ed904d598d370a25658c28c9ffe436bc7c6121acbf418f4e2a60f4f2725c0076cdb06d79ad172a0545ac08e9dfc4169c5c41018c9f61af6e0a40d4d292bce0962d508d994df7cae5a54ce8093f24f67cbca1e16c7f814f8eeaa03432b29cc0b60d70adb96dd7eac5856cc8291f04d65c9c81c14c5fa16faeca801412d2fca0d66d10cdd90db78aa5e50ca8497f64b63cfce1a12c3fc10fceaae07472f2dc80f64d30edf92d97aa85c52c88695f44961cdcc1810c1fe12fee8ac05452123c6016add00d19cd774a6525cc6889bfa476fc3c2161ecff01cf0e6a20b4b2321c40368df02d39ed576a4505ec48a99f8456dc1c0141ccdf21ef2e4a009492527c2056ed904d598d370a25658c28c9ffe436bc7c6121acbf418f4e2a60f4f2725c0076cdb06d79ad172a0545ac08e9dfc4169c5c41018c9f61af6e0a40d4d292bce0962d508d994df7cae5a54ce8093f24f67cbca1e16c7f814f8eeaa03432b29cc0b60d70adb96dd7eac5856cc8291f04d65c9c81c14c5fa16faeca801412d2fca0d66d10cdd90db78aa5e50ca8497f64b63cfce1a12c3fc10fceaae07472f2dc80f64d30edf92d97aa85c52c88695f44961cdcc1810c1fe12fee8ac05452123c6016add00d19cd774a6525cc6889931fb8f4ed138fbf6a906c96f7ccb26cf15899a253e8075b6765f1e4667b18db",
        "hex": "6a2084886f632570b684237f75496599b9a1290da24df615ef845760ef6dcc0a8fcd4db00492bce0962d508d994df7cae5a54ce8093f24f67cbca1e16c7f814f8eeaa03432b29cc0b60d70adb96dd7eac5856cc8291f04d65c9c81c14c5fa16faeca801412d2fca0d66d10cdd90db78aa5e50ca8497f64b63cfce1a12c3fc10fceaae07472f2dc80f64d30edf92d97aa85c52c88695f44961cdcc1810c1fe12fee8ac05452123c6016add00d19cd774a6525cc6889bfa476fc3c2161ecff01cf0e6a20b4b2321c40368df02d39ed576a4505ec48a99f8456dc1c0141ccdf21ef2e4a009492527c2056ed904d598d370a25658c28c9ffe436bc7c6121acbf418f4e2a60f4f2725c0076cdb06d79ad172a0545ac08e9dfc4169c5c41018c9f61af6e0a40d4d292bce0962d508d994df7cae5a54ce8093f24f67cbca1e16c7f814f8eeaa03432b29cc0b60d70adb96dd7eac5856cc8291f04d65c9c81c14c5fa16faeca801412d2fca0d66d10cdd90db78aa5e50ca8497f64b63cfce1a12c3fc10fceaae07472f2dc80f64d30edf92d97aa85c52c88695f44961cdcc1810c1fe12fee8ac05452123c6016add00d19cd774a6525cc6889bfa476fc3c2161ecff01cf0e6a20b4b2321c40368df02d39ed576a4505ec48a99f8456dc1c0141ccdf21ef2e4a009492527c2056ed904d598d370a25658c28c9ffe436bc7c6121acbf418f4e2a60f4f2725c0076cdb06d79ad172a0545ac08e9dfc4169c5c41018c9f61af6e0a40d4d292bce0962d508d994df7cae5a54ce8093f24f67cbca1e16c7f814f8eeaa03432b29cc0b60d70adb96dd7eac5856cc8291f04d65c9c81c14c5fa16faeca801412d2fca0d66d10cdd90db78aa5e50ca8497f64b63cfce1a12c3fc10fceaae07472f2dc80f64d30edf92d97aa85c52c88695f44961cdcc1810c1fe12fee8ac05452123c6016add00d19cd774a6525cc6889bfa476fc3c2161ecff01cf0e6a20b4b2321c40368df02d39ed576a4505ec48a99f8456dc1c0141ccdf21ef2e4a009492527c2056ed904d598d370a25658c28c9ffe436bc7c6121acbf418f4e2a60f4f2725c0076cdb06d79ad172a0545ac08e9dfc4169c5c41018c9f61af6e0a40d4d292bce0962d508d994df7cae5a54ce8093f24f67cbca1e16c7f814f8eeaa03432b29cc0b60d70adb96dd7eac5856cc8291f04d65c9c81c14c5fa16faeca801412d2fca0d66d10cdd90db78aa5e50ca8497f64b63cfce1a12c3fc10fceaae07472f2dc80f64d30edf92d97aa85c52c88695f44961cdcc1810c1fe12fee8ac05452123c6016add00d19cd774a6525cc6889bfa476fc3c2161ecff01cf0e6a20b4b2321c40368df02d39ed576a4505ec48a99f8456dc1c0141ccdf21ef2e4a009492527c2056ed904d598d370a25658c28c9ffe436bc7c6121acbf418f4e2a60f4f2725c0076cdb06d79ad172a0545ac08e9dfc4169c5c41018c9f61af6e0a40d4d292bce0962d508d994df7cae5a54ce8093f24f67cbca1e16c7f814f8eeaa03432b29cc0b60d70adb96dd7eac5856cc8291f04d65c9c81c14c5fa16faeca801412d2fca0d66d10cdd90db78aa5e50ca8497f64b63cfce1a12c3fc10fceaae07472f2dc80f64d30edf92d97aa85c52c88695f44961cdcc1810c1fe12fee8ac05452123c6016add00d19cd774a6525cc6889931fb8f4ed138fbf6a906c96f7ccb26cf15899a253e8075b6765f1e4667b18db",
        "type": "nulldata"
      }
    }
  ],
  "blockhash": "74cd48d8c624c37e1fac27c00c19e94c48df61d3ca85b84b56360e4f6170fa6f",
  "confirmations": 1,
  "time": 1764182926,
  "blocktime": 1764182926
}