{
  "hex": "010000000001018cff76fd4766dad1592e79920afb28f3cfbfb363e407d1b8801e9cb381065d7f0000000000feffffff0200e1f50500000000fdd5046a20b5ddc5721c525478d30f4a7913fe9faddda9832af9084ea8401552f6d17e3c9b4db00414ba9bf220ae87ae15c5ae73f94105e3052269dd47bda700de5e852a8a253494349abbd2008ea78e35e58e53d96125c3250249fd679d8720fe7ea50aaa0514b454fadbb260eec7ee5585ee33b90145a34562299d07fde7409e1ec56aca6574d474dafb9240cee7ce75a5ce1399216583654209bd27ddc760be3ee54aea4554f4943a1b72a02e072e95452ef379c1856385a2e95dc73d27805ede05aa0aa5b414b41a3b52800e270eb5650ed359e1a543a582c97de71d07a07efe258a2a859434d47a5b32e06e476ed5056eb33981c523c5e2a91d877d67c01e9e45ea4ae5f454f45a7b12c04e674ef5254e9319a1e503e5c2893da75d47e03ebe65ca6ac5d47414ba9bf220ae87ae15c5ae73f94105e3052269dd47bda700de5e852a8a253494349abbd2008ea78e35e58e53d96125c3250249fd679d8720fe7ea50aaa0514b454fadbb260eec7ee5585ee33b90145a34562299d07fde7409e1ec56aca6574d474dafb9240cee7ce75a5ce1399216583654209bd27ddc760be3ee54aea4554f4943a1b72a02e072e95452ef379c1856385a2e95dc73d27805ede05aa0aa5b414b41a3b52800e270eb5650ed359e1a543a582c97de71d07a07efe258a2a859434d47a5b32e06e476ed5056eb33981c523c5e2a91d877d67c01e9e45ea4ae5f454f45a7b12c04e674ef5254e9319a1e503e5c2893da75d47e03ebe65ca6ac5d47414ba9bf220ae87ae15c5ae73f94105e3052269dd47bda700de5e852a8a253494349abbd2008ea78e35e58e53d96125c3250249fd679d8720fe7ea50aaa0514b454fadbb260eec7ee5585ee33b90145a34562299d07fde7409e1ec56aca6574d474dafb9240cee7ce75a5ce1399216583654209bd27ddc760be3ee54aea4554f4943a1b72a02e072e95452ef379c1856385a2e95dc73d27805ede05aa0aa5b414b41a3b52800e270eb5650ed359e1a543a582c97de71d07a07efe258a2a859434d47a5b32e06e476ed5056eb33981c523c5e2a91d877d67c01e9e45ea4ae5f454f45a7b12c04e674ef5254e9319a1e503e5c2893da75d47e03ebe65ca6ac5d47414ba9bf220ae87ae15c5ae73f94105e3052269dd47bda700de5e852a8a253494349abbd2008ea78e35e58e53d96125c3250249fd679d8720fe7ea50aaa0514b454fadbb260eec7ee5585ee33b90145a34562299d07fde7409e1ec56aca6574d474dafb9240cee7ce75a5ce1399216583654209bd27ddc760be3ee54aea4554f4943a1b72a02e072e95452ef379c1856385a2e95dc73d27805ede05aa0aa5b414b41a3b52800e270eb5650ed359e1a543a582c97de71d07a07efe258a2a859434d47a5b32e06e476ed5056eb33981c523c5e2a91d877d67c01e9e45ea4ae5f454f45a7b12c04e674ef5254e9319a1e503e5c2893da75d47e03ebe65ca6ac5d47414ba9bf220ae87ae15c5ae73f94105e3052269dd47bda700de5e852a8a253494349abbd2008ea78e35e58e53d96125c3250249fd679d8720fe7ea50aaa0514b454fadbb260eec7ee5585ee33b90145a34562299d07fde7409e1ec56aca6574d474dafb9240cee7ce75a5ce1399216583654209bd27ddc760be3ee54aea4554f4943a1b72a02e072e95452ef379c185638c2b4339d2369e76a9542fb6ebea0c4d10e59bd7ea90aceddc7eccaa6a19016080cbbf57792d00002251202d2ad8fdd1afe18f12f1dca6bc54b8cdac92d169a372da137cd24b8b41e170fa02fd75096d68e1b822e5b3caf32c53db2fb590e24c20f8c075f142ba48772a68bc713d76002995a379fd74d50d6b542d1cc531a4e6b17b6f4e68a3ea6e1203e8a85d79ce0d05435506f15cae34532938c197267b1831c6c88efadc0188381f448e3a24244fc5ee67401cee2f227b99b7c2d84a80ecf6da6d1d9f527e125be17e009a970506a1ad49d093b36d9f54260001bf3c812b8ee3dea9e7c89c08d146bbc31ff3b55eccb33df4488944bf4e772d3019fd41ad8d457a06691538424159c1512324e852754faa37eb0d6178f79fa22e7a907570a283e01a0864cfe87896a5beb55158b3b2eec7b6e61107678898f5b00a74d659b4cdffed5ac009ec90da0d98937da4fae57fcf50cb743616daf6ffb941e03eb3e2cc773800db6e9e0393b3b5cd7a4e96214d57172f5e8a263e0c367addd889bf7973fdf32eb5e1f838832d91bf06ad1bab8ed1fe61529328b843cc3b44bbde9a00500b3a499a37767c079f289dec35be36be720547f8c4e5df2861750d9084851783dbf8ec358164b18336c25646b18226beb24e79b45fc9ace659577b61fef08625b2f890fe7631509de0471103f76901be9e2aa8b64cc96243b527edb354ed849ef8de92da70907020b15bab18e5a183a9ed53e8fad8b3e6c6a296dd9f53e1c9fadc484c83fd10200de0931c31192e210fdc129a2ffcbd98921beed3fa14b17d88d64778f8368c0e5775bbbfa4714be7e75a7cb8201315337f644ca2bb5089a42b415c093237b4349b86302559628b794420fb46e01ac3af315e23dfc0315ac31aa58b8841f091d4cd1cd72b227d52930e4f18f24b3835d3bce143eb9bbd5a779308bcefdf298da4098ab3d28db5e8983944b0983bd34966b18d021cc8e36b1e7b033917c7331743a696c51ee9880b8ab001fced30ce4f2c28c61fefd08bf6acf908ac2e5846262f0fa928ccb7c58de0aa8da78f31b6202f625e8fd12cf42ccb63ae7f33022548ca9150a9590cbfe2f7292df92ad12442cb034a4f68e7830fe4507113d6b5fab971f45d5ad49992520cb5a93453644fe65f16a4b78d11bfd6e03dd4ce34b617c69593c4c21eab8129455f6bdc1c361b455e1f0fd65986c19bbc127b419c9aa041cfa1e9459b5bb2f2428c5c46f153559f6f581bb43bbacd4663c8cfc5421f881b2cdcda2bc05704f8846c3cd338e9874930abd10a925b40e1e9a5eec99d3b3c39907b1d477cc1b69b80f57d3c58734b95a407a9b28438d312dcd585d3e55bc53efd29006c5649259b1a33c3dda56187e43b28b514569615b271c96979d9b22e114f06da1c7c2e55cd7a80e011e64985569546640430cf092cb90b5c3b792c0ede86ad247ecf5af033007bd15a7c38af10c8db97691ed99367ea8c70f1565b325e6b77be38f94c9330e8992dbf5fdefbe8df5e8bd7a1b3843895c804c9fc69f7bea9907ce0c19b51fab5c330adec6f4d2f6fd0b4f96e0cead34f79a3bd1220280a096c1e4942880e0f1cb054e7ebe63701111126072982a274c92ced3290ff98937c4c885e18c80f8ff107f9f7dd7c88a160d1e65342b8ef1f5c53ba0031137513820fd1f5501961709a3915f62720a0bee13d99d28bf2412533dacac344533e268cd5316d4cf218f09bfafbc26c84f8ec44adc532f6d0d6318f8345dbdc36225cffc4b6ccdba309ee54d330890c4e3bab9289e72bf7f0bba0974768d3389565ead08c0ed5811a0a09d51e54a91e4a776c952f255f07291d60fb31a05485fdfc40c01564ffeb1d01cf543c30d80ba384c09bbbb4aed3de8c7ec54aafc579c11f8194fb202baaeac10df3e0d75db0cf4fb11c041285b9333773f93fdc371c1e024bf3aad967adb571b0a0006564c2a80c86ee1f8da5a309cf3512af0febd14e848123134f390117a177c382cdff8c0862fa0069e4b3b49178c34d9ad690423d69f903161959190747eb7eb19a3a316b37ba7ec2e3b680ac40585e4f8dec11112c05dbff3d45cf9e8419b4809b80c8d9eed0480c52ff93a6112297570641135d46a59a681fe0bc30c411593c61914d8eee963da1ec788709c1924e1b65011ece5e757aa372df3c553f323b51c1aff7f214f653d57a184eb0198ed05fd512805b6418132119a03e7c69ac4c757aab92255adf28140c4432747ad3912f81474077d33c2026a312696fcb53503dbc5b4bafdb28efe48107305797c83ae2e6d2a20e326d5655ec73d102433c144a46cebd4601bd050ed35e644986db6d02c210052d254eeaefa4a8c6ebec0ffc8d9eb873f43ccb2b243af6e82cefd22f236f77f9821ce414fe29601577e3c2de877022ca12ad2936dd06b14e4c9870671e48bf5085b7e370dcb4ea59222f8dbb47e6d375e2ba1d8cc3b41d96bd1a041b49ed81b34d36af4295f7eaa68e93b2fdf5f4d2aabe3e611e0dd42364b9c74282654cc5897a187e37f5db1adf20273f97119d91c0d31008e7406eede29e49f986d3697416bda0a4154b3e466459d1b7b152096709465bf33b30454dd01832a7922ade4b140abde6233bf99e78de384e95203adfde8a90d36a6dab41d2ccacb17662b50cae9d613ddfaaebca14c2d4b86affb5587b0b5b96554886336c783d635cf5585582b40f14a04dc88b2900a284a87db1fa15656ee841564813ab5b58a6dcfdeb362f116d4154218a6da4d651453120c743bd5810a58a1ec3b536f69e758e5baff188e4b0e0efac412c3288ea719f2ec30f50f9eb023ea5141538eb0fd40d656e6342dbcd68c0f6280f52c752cfd71a646ec11919a391e9028a67ec95ebe106a072a857986c97f4111bb3a4be505256538daf7603c206e75ae016a8c08797077cdcd2cfd73d19c2f5d3f8474fc1e894f857253fcf8b4f069547e9692943183c5cb7c1bc8de71b40147e9fb1dafb7a0da9be6380c2ef14d628b6819a27976524c22d7a67dec13bb53ad292f0a71786f034c69a57dad0091ea1a63ae8995dcc695b5a6ef5b60d7926a986691769eba8de5fce6cd373d28d69d62c5d6a75628b7c6a03a1f1bdbc58616d62c7aedfb3da9a54c4c85cf62630edc86ed6cadff5c9e0fd5378f764e77c183e45892fe3cafdd329f9cc89a48118ef916503912363ff32f1b705f33a6d739b431f19019cede6b31f462eaf77d789c5a1b1950fd98a5f4b2d0817f615403484f36969d851dd28611eeef0b95f657fef9f2f190e3035efdc97d1d59abf8156e1939fb8663edcab861749be88c9eaa74700873fdf5a37b9c51bd9b586114dfe61bebcdc098f2ef408a63058113768a659a9e43e88452948a4c958f929b1144b565c2199a153232c3458677d888a9abfc0c2d5dadd0102054c54567e85b0c1d7d8e0e6f1f2f3fb081f2b2c5b626ac3d1dde3ee14242a4b7d8ebcbecbe0ec0000000000000000000000000000000000000000000000000f212d3801fd210500a9e92e07c77e01e3e7a842f649e8d844a3cd44246dd0afdb6748605cf06b35493fa46d58b11ae204b9f83d43f8b58ca4ebb0bec3d269ea54f29faacce2a7e8e93606b5fcd743acebb4a1010f4c53a78e7bb3221ee155105a595ba1dbe3ec6fed58e3ed31829f7dc0ced590d2fea6af9dc6a5cc16db4de412f814b01b6e6c5f4d77798de334e939b5a73f6c33c343276c68650abd30982918caf9c2532f73bac4bf41e24a853778c3783a7a8083a9bb316ef7602711edaa8b52e78a788d0c72322b53ff0e6ae3cf4c33efba5727bbb03f24c1c102039aee192dbe4fc14e0b4c6a42c22bdb0480458b6606b9bb71a68e3b0aa94d9ac3018ab20d8db3a5c6b83ee833e78e058e4d1662a7a666e2227e090bdaf3306abeb94ed4f3060e089d7e9b314c9c3ae6ac9021e4b5360f98e190205a27a57a7b741ff4ae7b32977d2b1585eb655c88f2d6b2122b40c0aede368ec57b30d11e0aa306eb512444c097e1dd620a5c30634cb3b6a55d6c62e8e0aaa3d46c8d43e678eb6d73d17b20b407c0c5f12f2456f8b2e59b6c11f39e3936d3c95e437034ec78abd33a2b92c11e2bea284a503d0daa47bb02564bbe66406d8b13d4f41207ac3c04060e51947e75c76b38ef352bc89b63de44eb9d2a66e2ae3500f2df463e2f05c64dc47c478527fc445c05d13d530d7d56710fdd10cb5325f03a862692f32c6c1b13d5f405cda038ec516e0a1ca84945aa6a76bc7bb169990f0f7e3560295279499dc0bf089b55487a2257f4a9ba7099bb0afe8b1cb289d28dfaf8277e7d2f4f1b5b6097a161b22dd6fdb0227169016a61d5bc7136caf5aaf1010b1d1af57f154e45c3e63dfb41a41963bc9f22803eb38b25c56956e47ee2fbcc498a152318e02b2a6c37f2050cbb125d171418114a5279597588c72abbcb5ba8b159b8d0c5dc18b10e5c18e3bc73bcfe0e08b70d66b46f9251105609a9b655f8328e4181399959f39fafbda18580822a0d1fe3641e6e9086e36f423e4f698aa8c8e8eddb5bf4124f01d89d4555a42eb6394f362a3e61b065ca0c270476a88acbcebacaeabd387563dd8cd01f31e4aef89bb50c66b4bdee02eaeecdf298ceecf699dd05bdb42af83eedb79ba179443c99a15b2f90727d6a7617082fb7ae9f682e89c2e77881fb4eb039f5a3a5b86491fd83384eb43b7a9cf2b700a1ae3ed0dd67209b589c395f83afd19c4b3fa6f9b83ed9921c9b5dbfa0f08d83a54da1293ad36616c35d6a81b16701a8eafbe3fb552a2af0946bfdfef4fc1e08c9355e83ce54ecc00b1dc1bcf0af8de5fdbf102f742ebb36d0bccd6e9ec4b076e54bded7e859ddd392b91db98714787762b1d17956b0e755a7e2287a27b12a2872b040e8740acb8ac2611bd761ad7020139e95be2456311aa54f0b5e3cc4b93561011c3636090d70f5a9fa0a682de45e512a27b8ab697675974b47952b9d78ee1d9aaa03d3fe9099e5762647ea0c6a9dfca80f0818061b8f52184370f8f0ed7c7c7b9c1f24af02b2d8d4f1b8087fec0f9e13f774421756e0a21230ea6e041d4bda2f47b20afd4082c8b2294e22339d7bfc215b5e04c4062162b3e7bd995059a554cdac4155da84edef46c901920135de900fdb1e86da1dc5105f5c08e0fbebd890e06ee0ded3e87e8f95f741596113e00f5d1834ac6ffc7efe843cb9294181ea35663f3155947db2dd5392a9a9823c291005552e0e1019ff9752decc8aa5bc26cdff3c807634dc27f455979f0970951c7d34bf1b6bb19a90211b1ae39d278d82ed7b9ee3a182e45f259d4edb68c2cfb17ab941ec44306a54d94ee1b5c856fef598d5d23191ef80f7a4c43f7e45edc37ba6bcd0004d2094e36a000000",
  "txid": "faf1cbc6aa82d3ceb16be9be19fdf1939b4130e945e05cd3f117bbb8e01cbce1",
  "hash": "c727c283b4d3b939486668cbab7ee579c0873c8a808a71da3039d68935ba90be",
  "size": 5085,
  "vsize": 2278,
  "version": 1,
  "locktime": 106,
  "vin": [
    {
      "txid": "7f5d0681b39c1e80b8d107e463b3bfcff328fb0a92792e59d1da6647fd76ff8c",
      "vout": 0,
      "scriptSig": {
        "asm": "",
        "hex": ""
      },
      "txinwitness": [
        "6d68e1b822e5b3caf32c53db2fb590e24c20f8c075f142ba48772a68bc713d76002995a379fd74d50d6b542d1cc531a4e6b17b6f4e68a3ea6e1203e8a85d79ce0d05435506f15cae34532938c197267b1831c6c88efadc0188381f448e3a24244fc5ee67401cee2f227b99b7c2d84a80ecf6da6d1d9f527e125be17e009a970506a1ad49d093b36d9f54260001bf3c812b8ee3dea9e7c89c08d146bbc31ff3b55eccb33df4488944bf4e772d3019fd41ad8d457a06691538424159c1512324e852754faa37eb0d6178f79fa22e7a907570a283e01a0864cfe87896a5beb55158b3b2eec7b6e61107678898f5b00a74d659b4cdffed5ac009ec90da0d98937da4fae57fcf50cb743616daf6ffb941e03eb3e2cc773800db6e9e0393b3b5cd7a4e96214d57172f5e8a263e0c367addd889bf7973fdf32eb5e1f838832d91bf06ad1bab8ed1fe61529328b843cc3b44bbde9a00500b3a499a37767c079f289dec35be36be720547f8c4e5df2861750d9084851783dbf8ec358164b18336c25646b18226beb24e79b45fc9ace659577b61fef08625b2f890fe7631509de0471103f76901be9e2aa8b64cc96243b527edb354ed849ef8de92da70907020b15bab18e5a183a9ed53e8fad8b3e6c6a296dd9f53e1c9fadc484c83fd10200de0931c31192e210fdc129a2ffcbd98921beed3fa14b17d88d64778f8368c0e5775bbbfa4714be7e75a7cb8201315337f644ca2bb5089a42b415c093237b4349b86302559628b794420fb46e01ac3af315e23dfc0315ac31aa58b8841f091d4cd1cd72b227d52930e4f18f24b3835d3bce143eb9bbd5a779308bcefdf298da4098ab3d28db5e8983944b0983bd34966b18d021cc8e36b1e7b033917c7331743a696c51ee9880b8ab001fced30ce4f2c28c61fefd08bf6acf908ac2e5846262f0fa928ccb7c58de0aa8da78f31b6202f625e8fd12cf42ccb63ae7f33022548ca9150a9590cbfe2f7292df92ad12442cb034a4f68e7830fe4507113d6b5fab971f45d5ad49992520cb5a93453644fe65f16a4b78d11bfd6e03dd4ce34b617c69593c4c21eab8129455f6bdc1c361b455e1f0fd65986c19bbc127b419c9aa041cfa1e9459b5bb2f2428c5c46f153559f6f581bb43bbacd4663c8cfc5421f881b2cdcda2bc05704f8846c3cd338e9874930abd10a925b40e1e9a5eec99d3b3c39907b1d477cc1b69b80f57d3c58734b95a407a9b28438d312dcd585d3e55bc53efd29006c5649259b1a33c3dda56187e43b28b514569615b271c96979d9b22e114f06da1c7c2e55cd7a80e011e64985569546640430cf092cb90b5c3b792c0ede86ad247ecf5af033007bd15a7c38af10c8db97691ed99367ea8c70f1565b325e6b77be38f94c9330e8992dbf5fdefbe8df5e8bd7a1b3843895c804c9fc69f7bea9907ce0c19b51fab5c330adec6f4d2f6fd0b4f96e0cead34f79a3bd1220280a096c1e4942880e0f1cb054e7ebe63701111126072982a274c92ced3290ff98937c4c885e18c80f8ff107f9f7dd7c88a160d1e65342b8ef1f5c53ba0031137513820fd1f5501961709a3915f62720a0bee13d99d28bf2412533dacac344533e268cd5316d4cf218f09bfafbc26c84f8ec44adc532f6d0d6318f8345dbdc36225cffc4b6ccdba309ee54d330890c4e3bab9289e72bf7f0bba0974768d3389565ead08c0ed5811a0a09d51e54a91e4a776c952f255f07291d60fb31a05485fdfc40c01564ffeb1d01cf543c30d80ba384c09bbbb4aed3de8c7ec54aafc579c11f8194fb202baaeac10df3e0d75db0cf4fb11c041285b9333773f93fdc371c1e024bf3aad967adb571b0a0006564c2a80c86ee1f8da5a309cf3512af0febd14e848123134f390117a177c382cdff8c0862fa0069e4b3b49178c34d9ad690423d69f903161959190747eb7eb19a3a316b37ba7ec2e3b680ac40585e4f8dec11112c05dbff3d45cf9e8419b4809b80c8d9eed0480c52ff93a6112297570641135d46a59a681fe0bc30c411593c61914d8eee963da1ec788709c1924e1b65011ece5e757aa372df3c553f323b51c1aff7f214f653d57a184eb0198ed05fd512805b6418132119a03e7c69ac4c757aab92255adf28140c4432747ad3912f81474077d33c2026a312696fcb53503dbc5b4bafdb28efe48107305797c83ae2e6d2a20e326d5655ec73d102433c144a46cebd4601bd050ed35e644986db6d02c210052d254eeaefa4a8c6ebec0ffc8d9eb873f43ccb2b243af6e82cefd22f236f77f9821ce414fe29601577e3c2de877022ca12ad2936dd06b14e4c9870671e48bf5085b7e370dcb4ea59222f8dbb47e6d375e2ba1d8cc3b41d96bd1a041b49ed81b34d36af4295f7eaa68e93b2fdf5f4d2aabe3e611e0dd42364b9c74282654cc5897a187e37f5db1adf20273f97119d91c0d31008e7406eede29e49f986d3697416bda0a4154b3e466459d1b7b152096709465bf33b30454dd01832a7922ade4b140abde6233bf99e78de384e95203adfde8a90d36a6dab41d2ccacb17662b50cae9d613ddfaaebca14c2d4b86affb5587b0b5b96554886336c783d635cf5585582b40f14a04dc88b2900a284a87db1fa15656ee841564813ab5b58a6dcfdeb362f116d4154218a6da4d651453120c743bd5810a58a1ec3b536f69e758e5baff188e4b0e0efac412c3288ea719f2ec30f50f9eb023ea5141538eb0fd40d656e6342dbcd68c0f6280f52c752cfd71a646ec11919a391e9028a67ec95ebe106a072a857986c97f4111bb3a4be505256538daf7603c206e75ae016a8c08797077cdcd2cfd73d19c2f5d3f8474fc1e894f857253fcf8b4f069547e9692943183c5cb7c1bc8de71b40147e9fb1dafb7a0da9be6380c2ef14d628b6819a27976524c22d7a67dec13bb53ad292f0a71786f034c69a57dad0091ea1a63ae8995dcc695b5a6ef5b60d7926a986691769eba8de5fce6cd373d28d69d62c5d6a75628b7c6a03a1f1bdbc58616d62c7aedfb3da9a54c4c85cf62630edc86ed6cadff5c9e0fd5378f764e77c183e45892fe3cafdd329f9cc89a48118ef916503912363ff32f1b705f33a6d739b431f19019cede6b31f462eaf77d789c5a1b1950fd98a5f4b2d0817f615403484f36969d851dd28611eeef0b95f657fef9f2f190e3035efdc97d1d59abf8156e1939fb8663edcab861749be88c9eaa74700873fdf5a37b9c51bd9b586114dfe61bebcdc098f2ef408a63058113768a659a9e43e88452948a4c958f929b1144b565c2199a153232c3458677d888a9abfc0c2d5dadd0102054c54567e85b0c1d7d8e0e6f1f2f3fb081f2b2c5b626ac3d1dde3ee14242a4b7d8ebcbecbe0ec0000000000000000000000000000000000000000000000000f212d3801",
        "00a9e92e07c77e01e3e7a842f649e8d844a3cd44246dd0afdb6748605cf06b35493fa46d58b11ae204b9f83d43f8b58ca4ebb0bec3d269ea54f29faacce2a7e8e93606b5fcd743acebb4a1010f4c53a78e7bb3221ee155105a595ba1dbe3ec6fed58e3ed31829f7dc0ced590d2fea6af9dc6a5cc16db4de412f814b01b6e6c5f4d77798de334e939b5a73f6c33c343276c68650abd30982918caf9c2532f73bac4bf41e24a853778c3783a7a8083a9bb316ef7602711edaa8b52e78a788d0c72322b53ff0e6ae3cf4c33efba5727bbb03f24c1c102039aee192dbe4fc14e0b4c6a42c22bdb0480458b6606b9bb71a68e3b0aa94d9ac3018ab20d8db3a5c6b83ee833e78e058e4d1662a7a666e2227e090bdaf3306abeb94ed4f3060e089d7e9b314c9c3ae6ac9021e4b5360f98e190205a27a57a7b741ff4ae7b32977d2b1585eb655c88f2d6b2122b40c0aede368ec57b30d11e0aa306eb512444c097e1dd620a5c30634cb3b6a55d6c62e8e0aaa3d46c8d43e678eb6d73d17b20b407c0c5f12f2456f8b2e59b6c11f39e3936d3c95e437034ec78abd33a2b92c11e2bea284a503d0daa47bb02564bbe66406d8b13d4f41207ac3c04060e51947e75c76b38ef352bc89b63de44eb9d2a66e2ae3500f2df463e2f05c64dc47c478527fc445c05d13d530d7d56710fdd10cb5325f03a862692f32c6c1b13d5f405cda038ec516e0a1ca84945aa6a76bc7bb169990f0f7e3560295279499dc0bf089b55487a2257f4a9ba7099bb0afe8b1cb289d28dfaf8277e7d2f4f1b5b6097a161b22dd6fdb0227169016a61d5bc7136caf5aaf1010b1d1af57f154e45c3e63dfb41a41963bc9f22803eb38b25c56956e47ee2fbcc498a152318e02b2a6c37f2050cbb125d171418114a5279597588c72abbcb5ba8b159b8d0c5dc18b10e5c18e3bc73bcfe0e08b70d66b46f9251105609a9b655f8328e4181399959f39fafbda18580822a0d1fe3641e6e9086e36f423e4f698aa8c8e8eddb5bf4124f01d89d4555a42eb6394f362a3e61b065ca0c270476a88acbcebacaeabd387563dd8cd01f31e4aef89bb50c66b4bdee02eaeecdf298ceecf699dd05bdb42af83eedb79ba179443c99a15b2f90727d6a7617082fb7ae9f682e89c2e77881fb4eb039f5a3a5b86491fd83384eb43b7a9cf2b700a1ae3ed0dd67209b589c395f83afd19c4b3fa6f9b83ed9921c9b5dbfa0f08d83a54da1293ad36616c35d6a81b16701a8eafbe3fb552a2af0946bfdfef4fc1e08c9355e83ce54ecc00b1dc1bcf0af8de5fdbf102f742ebb36d0bccd6e9ec4b076e54bded7e859ddd392b91db98714787762b1d17956b0e755a7e2287a27b12a2872b040e8740acb8ac2611bd761ad7020139e95be2456311aa54f0b5e3cc4b93561011c3636090d70f5a9fa0a682de45e512a27b8ab697675974b47952b9d78ee1d9aaa03d3fe9099e5762647ea0c6a9dfca80f0818061b8f52184370f8f0ed7c7c7b9c1f24af02b2d8d4f1b8087fec0f9e13f774421756e0a21230ea6e041d4bda2f47b20afd4082c8b2294e22339d7bfc215b5e04c4062162b3e7bd995059a554cdac4155da84edef46c901920135de900fdb1e86da1dc5105f5c08e0fbebd890e06ee0ded3e87e8f95f741596113e00f5d1834ac6ffc7efe843cb9294181ea35663f3155947db2dd5392a9a9823c291005552e0e1019ff9752decc8aa5bc26cdff3c807634dc27f455979f0970951c7d34bf1b6bb19a90211b1ae39d278d82ed7b9ee3a182e45f259d4edb68c2cfb17ab941ec44306a54d94ee1b5c856fef598d5d23191ef80f7a4c43f7e45edc37ba6bcd0004d2094e3"
      ],
      "sequence": 4294967294
    }
  ],
  "vout": [
    {
      "value": 1.0,
      "n": 0,
      "scriptPubKey": {
        "asm": "OP_RETURN b5ddc5721c525478d30f4a7913fe9faddda9832af9084ea8401552f6d17e3c9b 14ba9bf220ae87ae15c5ae73f94105e3052269dd47bda700de5e852a8a253494349abbd2008ea78e35e58e53d96125c3250249fd679d8720fe7ea50aaa0514b454fadbb260eec7ee5585ee33b90145a34562299d07fde7409e1ec56aca6574d474dafb9240cee7ce75a5ce1399216583654209bd27ddc760be3ee54aea4554f4943a1b72a02e072e95452ef379c1856385a2e95dc73d27805ede05aa0aa5b414b41a3b52800e270eb5650ed359e1a543a582c97de71d07a07efe258a2a859434d47a5b32e06e476ed5056eb33981c523c5e2a91d877d67c01e9e45ea4ae5f454f45a7b12c04e674ef5254e9319a1e503e5c2893da75d47e03ebe65ca6ac5d47414ba9bf220ae87ae15c5ae73f94105e3052269dd47bda700de5e852a8a253494349abbd2008ea78e35e58e53d96125c3250249fd679d8720fe7ea50aaa0514b454fadbb260eec7ee5585ee33b90145a34562299d07fde7409e1ec56aca6574d474dafb9240cee7ce75a5ce1399216583654209bd27ddc760be3ee54aea4554f4943a1b72a02e072e95452ef379c1856385a2e95dc73d27805ede05aa0aa5b414b41a3b52800e270eb5650ed359e1a543a582c97de71d07a07efe258a2a859434d47a5b32e06e476ed5056eb33981c523c5e2a91d877d67c01e9e45ea4ae5f454f45a7b12c04e674ef5254e9319a1e503e5c2893da75d47e03ebe65ca6ac5d47414ba9bf220ae87ae15c5ae73f94105e3052269dd47bda700de5e852a8a253494349abbd2008ea78e35e58e53d96125c3250249fd679d8720fe7ea50aaa0514b454fadbb260eec7ee5585ee33b90145a34562299d07fde7409e1ec56aca6574d474dafb9240cee7ce75a5ce1399216583654209bd27ddc760be3ee54aea4554f4943a1b72a02e072e95452ef379c1856385a2e95dc73d27805ede05aa0aa5b414b41a3b52800e270eb5650ed359e1a543a582c97de71d07a07efe258a2a859434d47a5b32e06e476ed5056eb33981c523c5e2a91d877d67c01e9e45ea4ae5f454f45a7b12c04e674ef5254e9319a1e503e5c2893da75d47e03ebe65ca6ac5d47414ba9bf220ae87ae15c5ae73f94105e3052269dd47bda700de5e852a8a253494349abbd2008ea78e35e58e53d96125c3250249fd679d8720fe7ea50aaa0514b454fadbb260eec7ee5585ee33b90145a34562299d07fde7409e1ec56aca6574d474dafb9240cee7ce75a5ce1399216583654209bd27ddc760be3ee54aea4554f4943a1b72a02e072e95452ef379c1856385a2e95dc73d27805ede05aa0aa5b414b41a3b52800e270eb5650ed359e1a543a582c97de71d07a07efe258a2a859434d47a5b32e06e476ed5056eb33981c523c5e2a91d877d67c01e9e45ea4ae5f454f45a7b12c04e674ef5254e9319a1e503e5c2893da75d47e03ebe65ca6ac5d47414ba9bf220ae87ae15c5ae73f94105e3052269dd47bda700de5e852a8a253494349abbd2008ea78e35e58e53d96125c3250249fd679d8720fe7ea50aaa0514b454fadbb260eec7ee5585ee33b90145a34562299d07fde7409e1ec56aca6574d474dafb9240cee7ce75a5ce1399216583654209bd27ddc760be3ee54aea4554f4943a1b72a02e072e95452ef379c185638c2b4339d2369e76a9542fb6ebea0c4d10e59bd7ea90aceddc7eccaa6a190160",
        "hex": "6a20b5ddc5721c525478d30f4a7913fe9faddda9832af9084ea8401552f6d17e3c9b4db00414ba9bf220ae87ae15c5ae73f94105e3052269dd47bda700de5e852a8a253494349abbd2008ea78e35e58e53d96125c3250249fd679d8720fe7ea50aaa0514b454fadbb260eec7ee5585ee33b90145a34562299d07fde7409e1ec56aca6574d474dafb9240cee7ce75a5ce1399216583654209bd27ddc760be3ee54aea4554f4943a1b72a02e072e95452ef379c1856385a2e95dc73d27805ede05aa0aa5b414b41a3b52800e270eb5650ed359e1a543a582c97de71d07a07efe258a2a859434d47a5b32e06e476ed5056eb33981c523c5e2a91d877d67c01e9e45ea4ae5f454f45a7b12c04e674ef5254e9319a1e503e5c2893da75d47e03ebe65ca6ac5d47414ba9bf220ae87ae15c5ae73f94105e3052269dd47bda700de5e852a8a253494349abbd2008ea78e35e58e53d96125c3250249fd679d8720fe7ea50aaa0514b454fadbb260eec7ee5585ee33b90145a34562299d07fde7409e1ec56aca6574d474dafb9240cee7ce75a5ce1399216583654209bd27ddc760be3ee54aea4554f4943a1b72a02e072e95452ef379c1856385a2e95dc73d27805ede05aa0aa5b414b41a3b52800e270eb5650ed359e1a543a582c97de71d07a07efe258a2a859434d47a5b32e06e476ed5056eb33981c523c5e2a91d877d67c01e9e45ea4ae5f454f45a7b12c04e674ef5254e9319a1e503e5c2893da75d47e03ebe65ca6ac5d47414ba9bf220ae87ae15c5ae73f94105e3052269dd47bda700de5e852a8a253494349abbd2008ea78e35e58e53d96125c3250249fd679d8720fe7ea50aaa0514b454fadbb260eec7ee5585ee33b90145a34562299d07fde7409e1ec56aca6574d474dafb9240cee7ce75a5ce1399216583654209bd27ddc760be3ee54aea4554f4943a1b72a02e072e95452ef379c1856385a2e95dc73d27805ede05aa0aa5b414b41a3b52800e270eb5650ed359e1a543a582c97de71d07a07efe258a2a859434d47a5b32e06e476ed5056eb33981c523c5e2a91d877d67c01e9e45ea4ae5f454f45a7b12c04e674ef5254e9319a1e503e5c2893da75d47e03ebe65ca6ac5d47414ba9bf220ae87ae15c5ae73f94105e3052269dd47bda700de5e852a8a253494349abbd2008ea78e35e58e53d96125c3250249fd679d8720fe7ea50aaa0514b454fadbb260eec7ee5585ee33b90145a34562299d07fde7409e1ec56aca6574d474dafb9240cee7ce75a5ce1399216583654209bd27ddc760be3ee54aea4554f4943a1b72a02e072e95452ef379c1856385a2e95dc73d27805ede05aa0aa5b414b41a3b52800e270eb5650ed359e1a543a582c97de71d07a07efe258a2a859434d47a5b32e06e476ed5056eb33981c523c5e2a91d877d67c01e9e45ea4ae5f454f45a7b12c04e674ef5254e9319a1e503e5c2893da75d47e03ebe65ca6ac5d47414ba9bf220ae87ae15c5ae73f94105e3052269dd47bda700de5e852a8a253494349abbd2008ea78e35e58e53d96125c3250249fd679d8720fe7ea50aaa0514b454fadbb260eec7ee5585ee33b90145a34562299d07fde7409e1ec56aca6574d474dafb9240cee7ce75a5ce1399216583654209bd27ddc760be3ee54aea4554f4943a1b72a02e072e95452ef379c185638c2b4339d2369e76a9542fb6ebea0c4d10e59bd7ea90aceddc7eccaa6a190160",
        "type": "nulldata"
      }
    },
    {
      "value": 499991.8648,
      "n": 1,
      "scriptPubKey": {
        "asm": "1 2d2ad8fdd1afe18f12f1dca6bc54b8cdac92d169a372da137cd24b8b41e170fa",
        "hex": "51202d2ad8fdd1afe18f12f1dca6bc54b8cdac92d169a372da137cd24b8b41e170fa",
        "reqSigs": 1,
        "type": "witness_v1_scripthash",
        "addresses": [
          "3QJmnh"
        ]
      }
    }
  ],
  "blockhash": "ed58b71ef50cb049f6fd5c1ad274bdeb3951d970e0a56ec51ef7152d34b6d8c5",
  "confirmations": 1,
  "time": 1764177054,
  "blocktime": 1764177054
}