{
  "hex": "0100000000010186508c482fefec20fed6b2df317ba330019c9f5989796f122554af5bf1b4aa400000000000feffffff0220cc6133792d0000225120ff45810b696854864751fed959b4f5442892556427d988f16a79cacb57fb35cf00e1f50500000000fdd5046a205291f5b0d388bedab4d3872f5446a95ed086f0e7b83d212b3c895869781e2bc74db0045c446032618b32f043190ca59bb29038d3df7f555413053c3c8b492d39d07b257c64401241ab12d063392c85bb92b018f3ff5f757433251c1cab690d19f05b051c04207221cb72b003594ce5dbf2d078939f3f151453457c7ccb096d79903b653c24005201eb529023796cc5fbd2f058b3bf1f353473655c5ceb294d59b01b45dcc4e0b2e10bb270c3998c251b3210b8535fffd5d49385bcbc0bc9adb950fba5fce4c092c12b9250e3b9ac053b123098737fdff5f4b3a59c9c2be98d9970db859c84a0f2a14bf23083d9cc655b7250f8131fbf9594d3c5fcfc4b89edf910bbe5bca480d2816bd210a3f9ec457b5270d8333f9fb5b4f3e5dcdc6ba9cdd9309bc55c446032618b32f043190ca59bb29038d3df7f555413053c3c8b492d39d07b257c64401241ab12d063392c85bb92b018f3ff5f757433251c1cab690d19f05b051c04207221cb72b003594ce5dbf2d078939f3f151453457c7ccb096d79903b653c24005201eb529023796cc5fbd2f058b3bf1f353473655c5ceb294d59b01b45dcc4e0b2e10bb270c3998c251b3210b8535fffd5d49385bcbc0bc9adb950fba5fce4c092c12b9250e3b9ac053b123098737fdff5f4b3a59c9c2be98d9970db859c84a0f2a14bf23083d9cc655b7250f8131fbf9594d3c5fcfc4b89edf910bbe5bca480d2816bd210a3f9ec457b5270d8333f9fb5b4f3e5dcdc6ba9cdd9309bc55c446032618b32f043190ca59bb29038d3df7f555413053c3c8b492d39d07b257c64401241ab12d063392c85bb92b018f3ff5f757433251c1cab690d19f05b051c04207221cb72b003594ce5dbf2d078939f3f151453457c7ccb096d79903b653c24005201eb529023796cc5fbd2f058b3bf1f353473655c5ceb294d59b01b45dcc4e0b2e10bb270c3998c251b3210b8535fffd5d49385bcbc0bc9adb950fba5fce4c092c12b9250e3b9ac053b123098737fdff5f4b3a59c9c2be98d9970db859c84a0f2a14bf23083d9cc655b7250f8131fbf9594d3c5fcfc4b89edf910bbe5bca480d2816bd210a3f9ec457b5270d8333f9fb5b4f3e5dcdc6ba9cdd9309bc55c446032618b32f043190ca59bb29038d3df7f555413053c3c8b492d39d07b257c64401241ab12d063392c85bb92b018f3ff5f757433251c1cab690d19f05b051c04207221cb72b003594ce5dbf2d078939f3f151453457c7ccb096d79903b653c24005201eb529023796cc5fbd2f058b3bf1f353473655c5ceb294d59b01b45dcc4e0b2e10bb270c3998c251b3210b8535fffd5d49385bcbc0bc9adb950fba5fce4c092c12b9250e3b9ac053b123098737fdff5f4b3a59c9c2be98d9970db859c84a0f2a14bf23083d9cc655b7250f8131fbf9594d3c5fcfc4b89edf910bbe5bca480d2816bd210a3f9ec457b5270d8333f9fb5b4f3e5dcdc6ba9cdd9309bc55c446032618b32f043190ca59bb29038d3df7f555413053c3c8b492d39d07b257c64401241ab12d063392c85bb92b018f3ff5f757433251c1cab690d19f05b051c04207221cb72b003594ce5dbf2d078939f3f151453457c7ccb096d79903b653c24005201eb529023796cc5fbd2f058b3bf1f353473655c5ceb294d59b01b45dcc4e0b2e10bb270c3998c251b3210b8abebf4d17e0fe063693dd861f9800bdcd8eb4714e1cf8547e43ce4ce8562620502fd75095acd8ed76bedfbb10ee6b897dc1d25512b0ba2d7f35ff3e118587329c751f07fbc9f30137bbf026506e06fbd1a565f311f9d686e64bcfa23f91329f554bf9f3d79ddd4f328eb573f49c6cd5a47ce257c2ff8f476c672fa073c09faabfa62df8066d4bb8132d9d9e4e528bd66f586c991c2a947e8dc0b87bf80ab11171102dbb41df4bc9a75c289dd684c81e6b654100178e3eeb1ca48887d927d40b9151b487d54d505bdd1d33eb74853fac56febdbd6a51c20d0cec53f3461a52ee14c1cc32b466ecac03778b19134c8f38295e9ee95b792c039269e3c5020a60e71ee7b6b8f676385dca92ac94dc31acdf92986bc5612163a69c3006619e1b95dee1a58a89655d90afff955a8c64134be92d4095ea7e7dcac7d77747f3fbc28db2f994ee48021edb8fdf69f7a83906bc51191bfde319a11847496ce8b3c8fd6fa74366cde2d7ce041d1c90a83e6cc24a5049b55998e9907bab358edb393d25723042c5f2a91b833a3c946c4e9c9b0cafec10b90e9345b9e9bfaa342242b54d08144057c8771a5c6f7c94755d128de553e2e6396502d0848b93b897da635106d843e88f261eb4a1c957ee8f328a4961bd25215dcb465448552623ad6c9f8220b5d5cb3d1f08e9a6d24257b7aeddfa53850463d68c5b278a0f536a85e46fb0b61218466efd55aadece9ec5bdf7b33798f1f542eef86a796ca429e0ff71d4dfdd70fcfa3f4e7c6bc62a42be2b8adc9852bfd06510453e1d3667e7cdbc270cf5eb797bb534f6265e75755d69f900e9ff428d82abc0dbfb8fd5758a7a174c1fdade9c5361cef98a9c6338d1e49bc8b65b7e31b4a55921a7de41db8101af18c6a7ca2d2fc166452d37ad6c130313a4298144f3664dc4f257896397db7ba3eec322cf068e056b83e1eedf7a4e393e1b16afcfa60b0384819bcb9b4c77676e3040b08e56de3b9406bf43fb63002cb5a122d979e8d5b2ab24481a9fcbde122e1efd5a22f4e289ae267ae56cb330b6c5c97035b349366329a39be39d295de2f173a9f33771d35c0821f00cd0d6f247988521ffd7944bc2486583a692b9dc8ffad0e3d5e977cb7a5fcc69d30a5a734128796a2a5a41c6369388d19d37ad07def61b00b9832cdb84ba7cdbfa58b04b8a3362533ef360ca591c63019bd791e5d40373ce8f23751613b60bd2ae7291c85188bc3df29a7e5895bbdab223f8977bbb67f9cdd5a0a6b119f8563c5ea1634fbc70744c55024c8871e5d73c3c4534606482eb172c6d3d51c5fdf03b5cf8601276f6952f0bd46ea889e6e1daa19c57eef31afbe74f84780539189fc8c75866c8d494b80a2abd38323b56db0b8c0bf4a8da374ac3fad7c26e7708f4dec051ab2ed1b73d9e61bd16009a11c2518c3ef99faa03c89939bb0636f99aa68b39800be4d9053e895354debca4ee8f9e8446b5f3f6857c22b90569e89f053850773e62e3262ca80652ad4830be1c6a5c24cbd8880617074d2a78923402fa84e688804347586395d9cd61691010fe784d560cba1d746f640aacdc11d35db4b9e796894ad7aeae4fbabd7f7ca3b224b85d379d9dd260725f633a32fe609df245d81f6b10c10ba323679ba09f8bcd4ee78660612a8c357031f7bef71418e0b971b2fcb3dafef978362cd6c47fdc7e175421f607831b0f7d1dcf3404e3ade39762241d94d85c6045e6ef7dde960c0ecff6f92c1712a2cae5f8a61ac851439bc5b3603add87d8655c0a6da4230a05b2b68b1d57e45a48d52ee7a54f2b93e0d47e88046a757bb97caec8d74ddc46d493c1e589028e6e1184d2c9ad3991f808cd3d588c618d6b3888d4f9b9b405d919acac8a405c7fa01e7644fce6a86ded5943b96d62c2dbe3d0854db02fcc0f5d0e754e03625e36440193e90e15d7a32429af8f87225bf708a923dfcbcb99c09da30d928fd936fc08cfd2aceee9f8f7ff78809506c3347a5deac1ca425d5192dd932b29981049df67e6fa33451c2dadd0670bb1f6812b33b8148c53b0a283219d79eb31cf0cd89273032c5b4df04c280aa44f6e2958c1782cd899e5da5e029287c3e99baebd2d1b29fbbfc33e5f8dca38339f957d802dcc6bf6629725ca40e3b1ff08f6b942260f65ff599288496410d534f98bf367c0c336891e1b3cc874493c8add6c2595ef3b9e39929bbd44a802b262d09e0659b3d059099433ab7303cbf6a047dafa24535fae2e24d4097cd6be7feacaf6e8b7de613ceb24931dd70aa3ad16ce4a84843430738abe226fca14673f329d256eea153f0454284611c7ea2da2806d5bbd4b7e487c3a8bcf7ee630ad6b9f3fc76d1eca7b4e826e4b44d15fb0d64c45fec14d6e225c4baf8e55225e95f3a93e5e6148a655b23b5599afabc8bc684520aad4a10f5a8a1d8ef11641143761c6b9e9586d78c90f05327499132f83694a49b0588d082ab0f0475ee3caa3ba72d08ba0baad0dc621840a7657055806fc4f816d8e1995be69865bcfdf93d3c7602f7e1506f0979eff4fae8d5e502fb4ec4d61fa75f045b9098ea920eb77b21577f06fbe6f7b2dd754dccd816ffdd18b2fbf3efac0f2c3a790b640d834fbee1928406dbd6b2ede6f99949e0ab4b2e3f04c78a2e4ab9c771aa7ddcd64b34e757aee15bf06db2183f8768aa705803a9e9742259e43b088ba7aa993c3eb61228da395f6eaef2157ef93e9468947a297b4e296e663bc9523e2643c67a87f2711b859b2f5f9e371f40e828ac89532ef9e196adae81c024acc34f6d7ea21992750fea9ad360cdd184292eab54c5a02d7ded94bea12b11a8291652c298ddf77761a3182da2f5e9a50eb8d0db26cc57c41890603279dcd3fa9adf64ffe833f74f1a91c12e919903fcd6429f4bc393184d4bd8a232d046765ca2f9ad3d3860bec4ac456bf3dbfc937ae92f2167bc20296f5ece7ba1879325c088d7265f43bec631e37ab3a1e1a2f704f9018fcf1ded9a6a430a5d5b168c6bfb16b4cb45e04f27b69864b127aad9df7595a9310b8f37dd1124d6409e243f4f087882f80c685fb8c0d06fa2f487f7681e622c3226fe90e681c968cf770b556229048a84e7091d3ceb4edb961b66ec2b777857963a3c810f431a69e10eea158432b095ecd878ef3865a833d98b99e3fe179a2e93cff22fa815c3d0e414179605b0851af5ad2d7df8c8224d3c28228cb6d934f0a63799e03563d59721d184c03808d513665416f7c92b3709793eb251c0362869e70c53741331f5adc07f90154f9652783ab5a05ed33d93c1d8537bb70cf0279980ef130f8c741609c0f0c55288af41a4b614360bda8c494d71f137efbfa0c262020d0e213a434f5b5e6a72aabee5010d13155e699fc2f1050a0c15259193a6aab0b4bbdde01120272f4353575e6b6eabaec7cce8eaff00000000000000000000000000000000000000000000000000000e17253601fd210500eb56fb617cfd7f494b9ac6922eda9eae6c952487e01779f2ef1b4e565cbbd4a09a52e2f543b6e572e8468dced1ffe29dc941547e175edf7efaaec8cfe87cf031108b073979dfddfff178411af34d3d7fbb7a92c0248b50587e527a67396a462e836aef61487bc72d4a74b3118ed0a8095912161cfd8d2f711ac1da5b6d2965dac61d0bfc27f583e83e4fef2c7a32ff1a47ab9f494a8b4e782d74b1632af55133e2dd370410996ef85692f48131ba611c9e0618bef9de0df55d26c4fda3c123c875305def6851fd0aadcc94274a8fcb97faedfe896095ea69bbd12ee6364c3383bcc64aa5269298515745fdafb9e1f240208041cbc99d729c5b1b9222d7c8c792a62e2615fe39f4f31ecac2a9f14854f418b1671a66479499946410a621e366c629742785e16eea688e5bd611f62d78f39ba4e482a9ea2dd8b9dd740747326206b6fbe3a21c999213ac0aa236f3c632b65b4a804f9178b82b81921927b22d75427509697a6f455649c26f41450b692f1aff20aa0dfeb5b180fd532eb081d59b589e688691072b3c25d7cd247b6a6a65ebf0d2ce43710b3b5b1d6bb7fca347883508f9d2b7f4ad2eeb6d4a1b01d90cdf97a0c240d790fc8793b1d9dfa61708e7d5da4fc20154aaee07ebb4ad5bd6d206858798730c35c4d7739638402f44be55dd809aef42a85d4bc51d65d7896a0cc91e7a6793f8d23ff8116ea91c3e8b52be7ab3a9954b442e5ab8dbd23a1217834d3308bd4fcb37c0ca6dd974302668b913d5262149be4f5a626fa3a832ff5b2e7c1d1c9769c00ef62a9ab8719201eaa712eaa0bca14d4b347dba883d1f35294d128b61bfaa3f8c24d5196e4de455a7e8ac7198981d6f5df6417201b4fe61e678e7684e13b4b2bcebec28a7d0cc3748c448ed34275301979f7e291f507031f70a4fcf76801ede5dd5a25008e1bb9bdd0441cbe400368ae86fdb0e270cdf70ef180f5479ed93f00263f3d6d0e7ac43c2ecd07a8443189f1df8ee23300a52b252b0675889a21ba3a1e8ceb0aefb08d7ced18154996bb16c8a0285c2ff41d7f0d6304a13b8cc77c4c73d7e149e7107a5c2af3d436b4615b830f51144cbf3e8a8d82534b35f97fe52907bb5e439f43b38f568e1897211c2cba2f6d27512884c263549a543d93b25ca42c1a1097f0a5be15576ee18909b5130e1973bd871962b29397859afad430835ac275499a85b8e8edd2c85186d852de818ebbf9d0ea42def2123a7fc55bf3409655b80754fbd12927f69434ce2b2de62a7f8130fcb451d89f1719852791b4088a3bee1edc61de551fd68566b4a2f775a935d4e502f6763a4630e693d1ab2d7f3d6e4f3edcb2ab2682b57a16cdaead871f9590041d7e880553a62d2936dae8c4f5d1cdf806a99840d0f1f7be7470b3ece4b8dee8f19ff740bd40614d2cf23714a307b0d68356b949857c09cc65eb1a5b9192d7cdcbb7940539bc8749506a416cb4859e13754c644ae1d3b7477af3733ed845e862d81d5fac83bc2c23b9473731ffa64ee0dcdfe6d7e00ed8500c61512e4cce786a9dc9bbb36fbc0da258c13e5aa71bc784880b9de6528114ce730ed0853657bbb854ea4da183dac034b9b10bbe7ad0f20fa6dd32a37cf21a83b4d00b655df47f1da6da0ed634971ed0b9326110eff13ad8afc15e6f74d7a852e23249a89505971cf865ac6a6d476958b84d2baca32325346c719269444229ab5585ffd15b53b1ed321f9e3eabf7956537d508bf2e603cb4fc0df8e1a7ab3d2281a10afca0c3925ca7cae5b3fe1dde2e4b2812a197d7baaa7193e906a5215a9ccb024d9e04a89dc2f68345a2e0fe30ed218201d0703a310dc77ed86749ac7476470000000",
  "txid": "fc3b34f9721678001f45fc9bd336281064d92a2d5f200656aa0a4d7dff6d2a50",
  "hash": "3a4510e2deb75a5a62eb850e28d26bcfe40eaa0c75e326797ef96a93d0660913",
  "size": 5085,
  "vsize": 2278,
  "version": 1,
  "locktime": 112,
  "vin": [
    {
      "txid": "40aab4f15baf5425126f7989599f9c0130a37b31dfb2d6fe20ecef2f488c5086",
      "vout": 0,
      "scriptSig": {
        "asm": "",
        "hex": ""
      },
      "txinwitness": [
        "5acd8ed76bedfbb10ee6b897dc1d25512b0ba2d7f35ff3e118587329c751f07fbc9f30137bbf026506e06fbd1a565f311f9d686e64bcfa23f91329f554bf9f3d79ddd4f328eb573f49c6cd5a47ce257c2ff8f476c672fa073c09faabfa62df8066d4bb8132d9d9e4e528bd66f586c991c2a947e8dc0b87bf80ab11171102dbb41df4bc9a75c289dd684c81e6b654100178e3eeb1ca48887d927d40b9151b487d54d505bdd1d33eb74853fac56febdbd6a51c20d0cec53f3461a52ee14c1cc32b466ecac03778b19134c8f38295e9ee95b792c039269e3c5020a60e71ee7b6b8f676385dca92ac94dc31acdf92986bc5612163a69c3006619e1b95dee1a58a89655d90afff955a8c64134be92d4095ea7e7dcac7d77747f3fbc28db2f994ee48021edb8fdf69f7a83906bc51191bfde319a11847496ce8b3c8fd6fa74366cde2d7ce041d1c90a83e6cc24a5049b55998e9907bab358edb393d25723042c5f2a91b833a3c946c4e9c9b0cafec10b90e9345b9e9bfaa342242b54d08144057c8771a5c6f7c94755d128de553e2e6396502d0848b93b897da635106d843e88f261eb4a1c957ee8f328a4961bd25215dcb465448552623ad6c9f8220b5d5cb3d1f08e9a6d24257b7aeddfa53850463d68c5b278a0f536a85e46fb0b61218466efd55aadece9ec5bdf7b33798f1f542eef86a796ca429e0ff71d4dfdd70fcfa3f4e7c6bc62a42be2b8adc9852bfd06510453e1d3667e7cdbc270cf5eb797bb534f6265e75755d69f900e9ff428d82abc0dbfb8fd5758a7a174c1fdade9c5361cef98a9c6338d1e49bc8b65b7e31b4a55921a7de41db8101af18c6a7ca2d2fc166452d37ad6c130313a4298144f3664dc4f257896397db7ba3eec322cf068e056b83e1eedf7a4e393e1b16afcfa60b0384819bcb9b4c77676e3040b08e56de3b9406bf43fb63002cb5a122d979e8d5b2ab24481a9fcbde122e1efd5a22f4e289ae267ae56cb330b6c5c97035b349366329a39be39d295de2f173a9f33771d35c0821f00cd0d6f247988521ffd7944bc2486583a692b9dc8ffad0e3d5e977cb7a5fcc69d30a5a734128796a2a5a41c6369388d19d37ad07def61b00b9832cdb84ba7cdbfa58b04b8a3362533ef360ca591c63019bd791e5d40373ce8f23751613b60bd2ae7291c85188bc3df29a7e5895bbdab223f8977bbb67f9cdd5a0a6b119f8563c5ea1634fbc70744c55024c8871e5d73c3c4534606482eb172c6d3d51c5fdf03b5cf8601276f6952f0bd46ea889e6e1daa19c57eef31afbe74f84780539189fc8c75866c8d494b80a2abd38323b56db0b8c0bf4a8da374ac3fad7c26e7708f4dec051ab2ed1b73d9e61bd16009a11c2518c3ef99faa03c89939bb0636f99aa68b39800be4d9053e895354debca4ee8f9e8446b5f3f6857c22b90569e89f053850773e62e3262ca80652ad4830be1c6a5c24cbd8880617074d2a78923402fa84e688804347586395d9cd61691010fe784d560cba1d746f640aacdc11d35db4b9e796894ad7aeae4fbabd7f7ca3b224b85d379d9dd260725f633a32fe609df245d81f6b10c10ba323679ba09f8bcd4ee78660612a8c357031f7bef71418e0b971b2fcb3dafef978362cd6c47fdc7e175421f607831b0f7d1dcf3404e3ade39762241d94d85c6045e6ef7dde960c0ecff6f92c1712a2cae5f8a61ac851439bc5b3603add87d8655c0a6da4230a05b2b68b1d57e45a48d52ee7a54f2b93e0d47e88046a757bb97caec8d74ddc46d493c1e589028e6e1184d2c9ad3991f808cd3d588c618d6b3888d4f9b9b405d919acac8a405c7fa01e7644fce6a86ded5943b96d62c2dbe3d0854db02fcc0f5d0e754e03625e36440193e90e15d7a32429af8f87225bf708a923dfcbcb99c09da30d928fd936fc08cfd2aceee9f8f7ff78809506c3347a5deac1ca425d5192dd932b29981049df67e6fa33451c2dadd0670bb1f6812b33b8148c53b0a283219d79eb31cf0cd89273032c5b4df04c280aa44f6e2958c1782cd899e5da5e029287c3e99baebd2d1b29fbbfc33e5f8dca38339f957d802dcc6bf6629725ca40e3b1ff08f6b942260f65ff599288496410d534f98bf367c0c336891e1b3cc874493c8add6c2595ef3b9e39929bbd44a802b262d09e0659b3d059099433ab7303cbf6a047dafa24535fae2e24d4097cd6be7feacaf6e8b7de613ceb24931dd70aa3ad16ce4a84843430738abe226fca14673f329d256eea153f0454284611c7ea2da2806d5bbd4b7e487c3a8bcf7ee630ad6b9f3fc76d1eca7b4e826e4b44d15fb0d64c45fec14d6e225c4baf8e55225e95f3a93e5e6148a655b23b5599afabc8bc684520aad4a10f5a8a1d8ef11641143761c6b9e9586d78c90f05327499132f83694a49b0588d082ab0f0475ee3caa3ba72d08ba0baad0dc621840a7657055806fc4f816d8e1995be69865bcfdf93d3c7602f7e1506f0979eff4fae8d5e502fb4ec4d61fa75f045b9098ea920eb77b21577f06fbe6f7b2dd754dccd816ffdd18b2fbf3efac0f2c3a790b640d834fbee1928406dbd6b2ede6f99949e0ab4b2e3f04c78a2e4ab9c771aa7ddcd64b34e757aee15bf06db2183f8768aa705803a9e9742259e43b088ba7aa993c3eb61228da395f6eaef2157ef93e9468947a297b4e296e663bc9523e2643c67a87f2711b859b2f5f9e371f40e828ac89532ef9e196adae81c024acc34f6d7ea21992750fea9ad360cdd184292eab54c5a02d7ded94bea12b11a8291652c298ddf77761a3182da2f5e9a50eb8d0db26cc57c41890603279dcd3fa9adf64ffe833f74f1a91c12e919903fcd6429f4bc393184d4bd8a232d046765ca2f9ad3d3860bec4ac456bf3dbfc937ae92f2167bc20296f5ece7ba1879325c088d7265f43bec631e37ab3a1e1a2f704f9018fcf1ded9a6a430a5d5b168c6bfb16b4cb45e04f27b69864b127aad9df7595a9310b8f37dd1124d6409e243f4f087882f80c685fb8c0d06fa2f487f7681e622c3226fe90e681c968cf770b556229048a84e7091d3ceb4edb961b66ec2b777857963a3c810f431a69e10eea158432b095ecd878ef3865a833d98b99e3fe179a2e93cff22fa815c3d0e414179605b0851af5ad2d7df8c8224d3c28228cb6d934f0a63799e03563d59721d184c03808d513665416f7c92b3709793eb251c0362869e70c53741331f5adc07f90154f9652783ab5a05ed33d93c1d8537bb70cf0279980ef130f8c741609c0f0c55288af41a4b614360bda8c494d71f137efbfa0c262020d0e213a434f5b5e6a72aabee5010d13155e699fc2f1050a0c15259193a6aab0b4bbdde01120272f4353575e6b6eabaec7cce8eaff00000000000000000000000000000000000000000000000000000e17253601",
        "00eb56fb617cfd7f494b9ac6922eda9eae6c952487e01779f2ef1b4e565cbbd4a09a52e2f543b6e572e8468dced1ffe29dc941547e175edf7efaaec8cfe87cf031108b073979dfddfff178411af34d3d7fbb7a92c0248b50587e527a67396a462e836aef61487bc72d4a74b3118ed0a8095912161cfd8d2f711ac1da5b6d2965dac61d0bfc27f583e83e4fef2c7a32ff1a47ab9f494a8b4e782d74b1632af55133e2dd370410996ef85692f48131ba611c9e0618bef9de0df55d26c4fda3c123c875305def6851fd0aadcc94274a8fcb97faedfe896095ea69bbd12ee6364c3383bcc64aa5269298515745fdafb9e1f240208041cbc99d729c5b1b9222d7c8c792a62e2615fe39f4f31ecac2a9f14854f418b1671a66479499946410a621e366c629742785e16eea688e5bd611f62d78f39ba4e482a9ea2dd8b9dd740747326206b6fbe3a21c999213ac0aa236f3c632b65b4a804f9178b82b81921927b22d75427509697a6f455649c26f41450b692f1aff20aa0dfeb5b180fd532eb081d59b589e688691072b3c25d7cd247b6a6a65ebf0d2ce43710b3b5b1d6bb7fca347883508f9d2b7f4ad2eeb6d4a1b01d90cdf97a0c240d790fc8793b1d9dfa61708e7d5da4fc20154aaee07ebb4ad5bd6d206858798730c35c4d7739638402f44be55dd809aef42a85d4bc51d65d7896a0cc91e7a6793f8d23ff8116ea91c3e8b52be7ab3a9954b442e5ab8dbd23a1217834d3308bd4fcb37c0ca6dd974302668b913d5262149be4f5a626fa3a832ff5b2e7c1d1c9769c00ef62a9ab8719201eaa712eaa0bca14d4b347dba883d1f35294d128b61bfaa3f8c24d5196e4de455a7e8ac7198981d6f5df6417201b4fe61e678e7684e13b4b2bcebec28a7d0cc3748c448ed34275301979f7e291f507031f70a4fcf76801ede5dd5a25008e1bb9bdd0441cbe400368ae86fdb0e270cdf70ef180f5479ed93f00263f3d6d0e7ac43c2ecd07a8443189f1df8ee23300a52b252b0675889a21ba3a1e8ceb0aefb08d7ced18154996bb16c8a0285c2ff41d7f0d6304a13b8cc77c4c73d7e149e7107a5c2af3d436b4615b830f51144cbf3e8a8d82534b35f97fe52907bb5e439f43b38f568e1897211c2cba2f6d27512884c263549a543d93b25ca42c1a1097f0a5be15576ee18909b5130e1973bd871962b29397859afad430835ac275499a85b8e8edd2c85186d852de818ebbf9d0ea42def2123a7fc55bf3409655b80754fbd12927f69434ce2b2de62a7f8130fcb451d89f1719852791b4088a3bee1edc61de551fd68566b4a2f775a935d4e502f6763a4630e693d1ab2d7f3d6e4f3edcb2ab2682b57a16cdaead871f9590041d7e880553a62d2936dae8c4f5d1cdf806a99840d0f1f7be7470b3ece4b8dee8f19ff740bd40614d2cf23714a307b0d68356b949857c09cc65eb1a5b9192d7cdcbb7940539bc8749506a416cb4859e13754c644ae1d3b7477af3733ed845e862d81d5fac83bc2c23b9473731ffa64ee0dcdfe6d7e00ed8500c61512e4cce786a9dc9bbb36fbc0da258c13e5aa71bc784880b9de6528114ce730ed0853657bbb854ea4da183dac034b9b10bbe7ad0f20fa6dd32a37cf21a83b4d00b655df47f1da6da0ed634971ed0b9326110eff13ad8afc15e6f74d7a852e23249a89505971cf865ac6a6d476958b84d2baca32325346c719269444229ab5585ffd15b53b1ed321f9e3eabf7956537d508bf2e603cb4fc0df8e1a7ab3d2281a10afca0c3925ca7cae5b3fe1dde2e4b2812a197d7baaa7193e906a5215a9ccb024d9e04a89dc2f68345a2e0fe30ed218201d0703a310dc77ed86749ac74764"
      ],
      "sequence": 4294967294
    }
  ],
  "vout": [
    {
      "value": 499985.7634,
      "n": 0,
      "scriptPubKey": {
        "asm": "1 ff45810b696854864751fed959b4f5442892556427d988f16a79cacb57fb35cf",
        "hex": "5120ff45810b696854864751fed959b4f5442892556427d988f16a79cacb57fb35cf",
        "reqSigs": 1,
        "type": "witness_v1_scripthash",
        "addresses": [
          "3QJmnh"
        ]
      }
    },
    {
      "value": 1.0,
      "n": 1,
      "scriptPubKey": {
        "asm": "OP_RETURN 5291f5b0d388bedab4d3872f5446a95ed086f0e7b83d212b3c895869781e2bc7 5c446032618b32f043190ca59bb29038d3df7f555413053c3c8b492d39d07b257c64401241ab12d063392c85bb92b018f3ff5f757433251c1cab690d19f05b051c04207221cb72b003594ce5dbf2d078939f3f151453457c7ccb096d79903b653c24005201eb529023796cc5fbd2f058b3bf1f353473655c5ceb294d59b01b45dcc4e0b2e10bb270c3998c251b3210b8535fffd5d49385bcbc0bc9adb950fba5fce4c092c12b9250e3b9ac053b123098737fdff5f4b3a59c9c2be98d9970db859c84a0f2a14bf23083d9cc655b7250f8131fbf9594d3c5fcfc4b89edf910bbe5bca480d2816bd210a3f9ec457b5270d8333f9fb5b4f3e5dcdc6ba9cdd9309bc55c446032618b32f043190ca59bb29038d3df7f555413053c3c8b492d39d07b257c64401241ab12d063392c85bb92b018f3ff5f757433251c1cab690d19f05b051c04207221cb72b003594ce5dbf2d078939f3f151453457c7ccb096d79903b653c24005201eb529023796cc5fbd2f058b3bf1f353473655c5ceb294d59b01b45dcc4e0b2e10bb270c3998c251b3210b8535fffd5d49385bcbc0bc9adb950fba5fce4c092c12b9250e3b9ac053b123098737fdff5f4b3a59c9c2be98d9970db859c84a0f2a14bf23083d9cc655b7250f8131fbf9594d3c5fcfc4b89edf910bbe5bca480d2816bd210a3f9ec457b5270d8333f9fb5b4f3e5dcdc6ba9cdd9309bc55c446032618b32f043190ca59bb29038d3df7f555413053c3c8b492d39d07b257c64401241ab12d063392c85bb92b018f3ff5f757433251c1cab690d19f05b051c04207221cb72b003594ce5dbf2d078939f3f151453457c7ccb096d79903b653c24005201eb529023796cc5fbd2f058b3bf1f353473655c5ceb294d59b01b45dcc4e0b2e10bb270c3998c251b3210b8535fffd5d49385bcbc0bc9adb950fba5fce4c092c12b9250e3b9ac053b123098737fdff5f4b3a59c9c2be98d9970db859c84a0f2a14bf23083d9cc655b7250f8131fbf9594d3c5fcfc4b89edf910bbe5bca480d2816bd210a3f9ec457b5270d8333f9fb5b4f3e5dcdc6ba9cdd9309bc55c446032618b32f043190ca59bb29038d3df7f555413053c3c8b492d39d07b257c64401241ab12d063392c85bb92b018f3ff5f757433251c1cab690d19f05b051c04207221cb72b003594ce5dbf2d078939f3f151453457c7ccb096d79903b653c24005201eb529023796cc5fbd2f058b3bf1f353473655c5ceb294d59b01b45dcc4e0b2e10bb270c3998c251b3210b8535fffd5d49385bcbc0bc9adb950fba5fce4c092c12b9250e3b9ac053b123098737fdff5f4b3a59c9c2be98d9970db859c84a0f2a14bf23083d9cc655b7250f8131fbf9594d3c5fcfc4b89edf910bbe5bca480d2816bd210a3f9ec457b5270d8333f9fb5b4f3e5dcdc6ba9cdd9309bc55c446032618b32f043190ca59bb29038d3df7f555413053c3c8b492d39d07b257c64401241ab12d063392c85bb92b018f3ff5f757433251c1cab690d19f05b051c04207221cb72b003594ce5dbf2d078939f3f151453457c7ccb096d79903b653c24005201eb529023796cc5fbd2f058b3bf1f353473655c5ceb294d59b01b45dcc4e0b2e10bb270c3998c251b3210b8abebf4d17e0fe063693dd861f9800bdcd8eb4714e1cf8547e43ce4ce85626205",
        "hex": "6a205291f5b0d388bedab4d3872f5446a95ed086f0e7b83d212b3c895869781e2bc74db0045c446032618b32f043190ca59bb29038d3df7f555413053c3c8b492d39d07b257c64401241ab12d063392c85bb92b018f3ff5f757433251c1cab690d19f05b051c04207221cb72b003594ce5dbf2d078939f3f151453457c7ccb096d79903b653c24005201eb529023796cc5fbd2f058b3bf1f353473655c5ceb294d59b01b45dcc4e0b2e10bb270c3998c251b3210b8535fffd5d49385bcbc0bc9adb950fba5fce4c092c12b9250e3b9ac053b123098737fdff5f4b3a59c9c2be98d9970db859c84a0f2a14bf23083d9cc655b7250f8131fbf9594d3c5fcfc4b89edf910bbe5bca480d2816bd210a3f9ec457b5270d8333f9fb5b4f3e5dcdc6ba9cdd9309bc55c446032618b32f043190ca59bb29038d3df7f555413053c3c8b492d39d07b257c64401241ab12d063392c85bb92b018f3ff5f757433251c1cab690d19f05b051c04207221cb72b003594ce5dbf2d078939f3f151453457c7ccb096d79903b653c24005201eb529023796cc5fbd2f058b3bf1f353473655c5ceb294d59b01b45dcc4e0b2e10bb270c3998c251b3210b8535fffd5d49385bcbc0bc9adb950fba5fce4c092c12b9250e3b9ac053b123098737fdff5f4b3a59c9c2be98d9970db859c84a0f2a14bf23083d9cc655b7250f8131fbf9594d3c5fcfc4b89edf910bbe5bca480d2816bd210a3f9ec457b5270d8333f9fb5b4f3e5dcdc6ba9cdd9309bc55c446032618b32f043190ca59bb29038d3df7f555413053c3c8b492d39d07b257c64401241ab12d063392c85bb92b018f3ff5f757433251c1cab690d19f05b051c04207221cb72b003594ce5dbf2d078939f3f151453457c7ccb096d79903b653c24005201eb529023796cc5fbd2f058b3bf1f353473655c5ceb294d59b01b45dcc4e0b2e10bb270c3998c251b3210b8535fffd5d49385bcbc0bc9adb950fba5fce4c092c12b9250e3b9ac053b123098737fdff5f4b3a59c9c2be98d9970db859c84a0f2a14bf23083d9cc655b7250f8131fbf9594d3c5fcfc4b89edf910bbe5bca480d2816bd210a3f9ec457b5270d8333f9fb5b4f3e5dcdc6ba9cdd9309bc55c446032618b32f043190ca59bb29038d3df7f555413053c3c8b492d39d07b257c64401241ab12d063392c85bb92b018f3ff5f757433251c1cab690d19f05b051c04207221cb72b003594ce5dbf2d078939f3f151453457c7ccb096d79903b653c24005201eb529023796cc5fbd2f058b3bf1f353473655c5ceb294d59b01b45dcc4e0b2e10bb270c3998c251b3210b8535fffd5d49385bcbc0bc9adb950fba5fce4c092c12b9250e3b9ac053b123098737fdff5f4b3a59c9c2be98d9970db859c84a0f2a14bf23083d9cc655b7250f8131fbf9594d3c5fcfc4b89edf910bbe5bca480d2816bd210a3f9ec457b5270d8333f9fb5b4f3e5dcdc6ba9cdd9309bc55c446032618b32f043190ca59bb29038d3df7f555413053c3c8b492d39d07b257c64401241ab12d063392c85bb92b018f3ff5f757433251c1cab690d19f05b051c04207221cb72b003594ce5dbf2d078939f3f151453457c7ccb096d79903b653c24005201eb529023796cc5fbd2f058b3bf1f353473655c5ceb294d59b01b45dcc4e0b2e10bb270c3998c251b3210b8abebf4d17e0fe063693dd861f9800bdcd8eb4714e1cf8547e43ce4ce85626205",
        "type": "nulldata"
      }
    }
  ],
  "blockhash": "0588000bb82f4b14ca9e4626330a5c84a7bb9e1c31fd2ade5c3732d80cc4fd85",
  "confirmations": 1,
  "time": 1764178356,
  "blocktime": 1764178356
}