{
  "hex": "01000000000101c03afad423169e36600995119784d7a2473569c2bd51045eac1b10feeca46a8c0100000000feffffff0200e1f50500000000fdd5046a20c36844d203a32d96f4dbe895d4d51d2a8a7af380fe407d3dc3f1aa8e604e3eb14db004e36dac9e1d04f6c3360d01f6e94b171cc15823bec787fbfbba141f81e2b428f2c34d8cbe3d24d6e3162d21d6c96b373ce178039ee7a7dbdb9a343fa1c29408d2a32decde5d44b683764d41b6a90b575c811863fe87c7bbbbfa545fc1a2f468b2830dccfe7d6496a3566d6196892b777ca13843dea7e79b9bda747fe182d4489263ed2c1e9d847643b68d817669cb979c41d8a33e47077b7b3a949f016234a87243cd0c3ebda4566396ada15649ebb7bc61f8831e67275b5b1ab4bf214214885223ad6c5eddc43603f6cdc136298bd7dc0198e37e07473b3b7ad4df412274e832038d4c7efde41623d6ede11609abf7fc21b8c35e27671b1b5af4ff610254c812e36dac9e1d04f6c3360d01f6e94b171cc15823bec787fbfbba141f81e2b428f2c34d8cbe3d24d6e3162d21d6c96b373ce178039ee7a7dbdb9a343fa1c29408d2a32decde5d44b683764d41b6a90b575c811863fe87c7bbbbfa545fc1a2f468b2830dccfe7d6496a3566d6196892b777ca13843dea7e79b9bda747fe182d4489263ed2c1e9d847643b68d817669cb979c41d8a33e47077b7b3a949f016234a87243cd0c3ebda4566396ada15649ebb7bc61f8831e67275b5b1ab4bf214214885223ad6c5eddc43603f6cdc136298bd7dc0198e37e07473b3b7ad4df412274e832038d4c7efde41623d6ede11609abf7fc21b8c35e27671b1b5af4ff610254c812e36dac9e1d04f6c3360d01f6e94b171cc15823bec787fbfbba141f81e2b428f2c34d8cbe3d24d6e3162d21d6c96b373ce178039ee7a7dbdb9a343fa1c29408d2a32decde5d44b683764d41b6a90b575c811863fe87c7bbbbfa545fc1a2f468b2830dccfe7d6496a3566d6196892b777ca13843dea7e79b9bda747fe182d4489263ed2c1e9d847643b68d817669cb979c41d8a33e47077b7b3a949f016234a87243cd0c3ebda4566396ada15649ebb7bc61f8831e67275b5b1ab4bf214214885223ad6c5eddc43603f6cdc136298bd7dc0198e37e07473b3b7ad4df412274e832038d4c7efde41623d6ede11609abf7fc21b8c35e27671b1b5af4ff610254c812e36dac9e1d04f6c3360d01f6e94b171cc15823bec787fbfbba141f81e2b428f2c34d8cbe3d24d6e3162d21d6c96b373ce178039ee7a7dbdb9a343fa1c29408d2a32decde5d44b683764d41b6a90b575c811863fe87c7bbbbfa545fc1a2f468b2830dccfe7d6496a3566d6196892b777ca13843dea7e79b9bda747fe182d4489263ed2c1e9d847643b68d817669cb979c41d8a33e47077b7b3a949f016234a87243cd0c3ebda4566396ada15649ebb7bc61f8831e67275b5b1ab4bf214214885223ad6c5eddc43603f6cdc136298bd7dc0198e37e07473b3b7ad4df412274e832038d4c7efde41623d6ede11609abf7fc21b8c35e27671b1b5af4ff610254c812e36dac9e1d04f6c3360d01f6e94b171cc15823bec787fbfbba141f81e2b428f2c34d8cbe3d24d6e3162d21d6c96b373ce178039ee7a7dbdb9a343fa1c29408d2a32decde5d44b683764d41b6a90b575c811863fe87c7bbbbfa545fc1a2f468b2830dccfe7d6496a3566d6196892b777ca13843dea7e79b9bda747fe182d4489263ed2c1e9d847643b68d817669cb979ce8c8bc651fc951d4b3eeaa5beb46ae5ba78a7cd41057763e268e0015f7d89ab06076a04b792d0000225120f6378d794478fcec6e69903d419bcbc712f09f0f77c196d429f5bc066a15b7e902fd75097541b19e7594cbc7fc454c1ac2f9435ecad82d13f8b214d2dea4fa6e92459f6ee5aaf64822d84ba4b642a97dd65de3f6b9b73e229886e7ceb9341b0a794c7b3fc775b06c567691c11802646e0e935bedbab6310209d53e41c585f540e59a677f88f85c2f6e248cb0c94c08bd21d4b5369aaa1eef23aa4fd1db8aedacb2c405b39026ad395904deefb2ae178f933f46d10724c13ac915cf107ebb84681af53d10dc166be5de759b86984464ba7a6dcf1eb33d27ba4eccce18d7d3c0778016997bd002778ac2cd9d95a2093ecee4bbec1a05ceab6f39a50f96c5912378c0fd833eaa087b693f3fb2cd3dfdf480b63bdb6a0f7016c50151c3048dbdbb3424a1bb3764ed2cc8b6eb3a3f2efb02b415fc75049b8a92022d309413b98b0b30d27c6268defe7cf85fb161078b8585c1e8e6c7d22d9fdea36a4c67916f066c9b572a033b3d75a798f3dccc23acc26824617527903ae6b0706e15a83dafba511da1e22864fc2b64c35352ac93910045673533727141e5cb3d2d5a34fca1e18fa5c628d58856db852140dd6de7a88ec20464f6a3bcc28851c9a8e37553695b11d40fcb419ff580d3b644552f0395dab75f7eed69d42f5652d253d30df521c731e71d4f3967df0bcac0de9da04bb02c450649f4c2764d758c9b3aadfe58a8445b6f5134f22bb6350e36d0c6e65051e5914f34b1cf890c5f45e640bd5d37a3501a62f015a5353c8072118b1c5afc19f28e1f4eee090bfe5d23d1d2affa0538d07a2f4e765608956c9d9cd8c7eb2192c8865cd95978fad9ac6861024be0b5b7469fc7ef9249d59a228f1dec4ca22f612a4b2d0398f94bc8dddffb54c82341ae8ee43805c2f3efa75a44ef67aeb2bc50d334f42cce26a4ee4ff64bc6961a46d098b8974e0dbdc7dd93b044393986726f22cec8bcbcc8e8b7531b877a4d1d95469e893ceff5ca3b62e8790f6665bf63ccad5909204fa55476f7ba6d681af3acb6a12f8543524797790e1145037a936172640d94a710921df48fd4ad9ac2904b0fb9bab5ecc07301f3c964191751d5ed910edf2ae2dd07c64dd6e7b3e7c44cb63bb22ecd1adc394758af37b4d2b3eab37abae32b2cb776f3c7a050510b2193fb00d66d6692bbccdfd64a6e54cb002dc1ebf8be41dcbd7624cec5553995b61afc4377b02f6140b2bfd2fcac2c56cf72108f3419801cf39435632b674308376fb6f442e7182ca459c90f528c0f3a9fdd89bd65ff405143ece8c13b2675b67567aa02a1810c39ddc514630dc9cb2bc1f48b1693f6388ca5e372337a8374697589ff8cee7b959f492ed7b41f2a919f2ed6bfd4b2f46b3a87969ad5df561d578d10b83ca41e54dcfd09d419b4569d3b6044a04dc0b0a4f6a59a6ed07d8b76cb27911ed6c0d875b53b6e1cb5c535e826f57856fc325067f551adee58795abc73370420c975afe766a7262684e9e6d299c5b92f3d1b4c816a932e965d0fd61f7422d94769203831fe1205aa3d736a329632bfaae11fa420104a72f5ef9107a49eac16a87ebf3b86930786fce7b3447e0485bcaebab5a0031e0ae367ebdd5951abad29b6b2a8d5caea98bd3328561d902e37c309f96163fb1afc07be0809b2aef401949220e9b7ba6b8e38a3cee1105a3f5f5246498270822b0c62df89f9728ba1df12a75d07fc9e52a5c7536bcaa9c31bae22c83974a89feaeae5a2c3052989d0186c44f91dd32a5fb895121d4c1c475de37cb6359c6f304b3f464243f569ff479a089d4d7d77d2455a1b44d400d6354ab577b60260fdbf1a3daa8a725680120fbb8c50d01e2637963964aea3ef919832bd3dae85e0e63e10b235433e99bf7ae57c75208b89a3ffdc63ca6c072174bf17b416c270cc3c139931100cebc9697e0dfcb768705eabd397274b08612044874716d9dec56005db27d2b62aec96823a44e0d8edc3bcc954f0974e337c1258b48a93fe29927001ce65bb9feb2b63a70286122ae0c51e3edcb3a82343f48131b26e4e4f51234d0f658210c9396867c50d0fab1f552dcc7801e7ae914f349f5de5db96e49244e548a855b51b4c85fe4b90aafd507e705fdef0cc97c5e46e027abbf953752cc951b154beab656163962f666390dcd1cb36cb92d5b0f4ef9ad4363a950f8d2a6385ffb58f51c2c3b0f54d6df2c8c1c880151590607e01654e79d39487b0cf1954b039d55bda4eda78179ac70a879876baf1a99a0c29f1824bc3d2d76b8c31676aa1f6644ce4907873e5fd5372c4cfc03149759ebefb4c73c665bde90a7b8908f48aaa1a2d603f4f9f64e1b235c4ee5bc88a7e0a664769e17da73361461b96f1a6b23d5137083b083a449bfc1e9b0b0b8b096143fb4531c1078d1dee57d2effd860f0d5824b89be957976b60862bbdd0929598143261398cf9f62760805ef05377aee04c222c7bc50eb6d0c3d63165b203bf214c863f5afe92e856f85b990e250ade9865db466d8e8b7e83a0088fab1823bd1849d9709cb3c247cb817bbc24b70447fe0706827f44c1bddaa03fed3b2477385ddbacefc22fbc7a84e8b5a0779aadac8f943022d6ef16ff65c38a0c3f83bfd83f9fefb57e222fb40ba2e6515e2c0eeef86307b06a0c9ad3aac382e084639911904bf636beff3705d3389f1e5dc79ea3852cabc059c354a20527b0cbf8db36fe8808523327728c83b2c717533ded6a459623f88660dd6f6993ed0adb09c5eb8b9fd6a312a230f1dd5da032c6828279f58ed895c4b57bf7cacf57d25a189bd25063125a7a6e5fe6a70fc6903bcb566b4477be8681e7411c05db22b4bd59f3657f5a7319071d57ce922c19f555de98d9a5c949e83124718c05307006a89e8a50403b3ffe20007cea2e003fb7442840ed25f764c30636298b71ee4d66dcaa1138773567444d09a49ac64a343a161cc55320020e6b8a09fc2a151bbdbb52479131e9bb67b4848d7892b19eb31d189af5da1636f92443b5ec3200e9d105e5482a5d28f08b346ce2cda6a6ac26f5ccbd6c686235c00b5fceb2c4ed70375a46c7329a5c2a27a7b21803157298d47873b71d2f956355aebf829a4ba7edade91a8936cd1d71cef6183619e22cabdc318fa0cd33288ed835c97960db7457643d9282ae9d1492902eb2e4a44973754719d9a69572bdcfcf1301f550884357868fb57d23ff9af79880fbd3bd911f829fd9712eb57bd2f37468b9955c45e6c54c4f9a91eb292d6cc68d40a04533dca82eff72b798bf35a516df1075767a395435ef6b4396694cf7a4f286b1c2a5c26a6ca58d1833b68745e45a5a005951a889f8af15cdba09ed2f26c4457ad2162e505b7e839cb2bfd2d9090d2365758eaac8cbcfdde2e7eb101f246b7e7f9abbc6d3e3ef1113485562696c8ea3a9afc1c9cddb000000000000000000000000000000000000000000000000000000000b19253401fd210500e2a6f4c3b651994071cf11f4ff50be9b1b9adc837630a63071f1390ead24cef7cd3d98d7eefcfa105541aad3c98eea10ad441342712dfdb8770236d110de7816a0a765bed976ae4588a12947a8132d6617c832e3986b9643233a26840a8b59156db334964f9baa55ce68a107aa2dd5a34645827e7c7a14b342a6715b0b0b1d983f178710132a9ebb08aabcb8808bd31839af1479746b733dc02ebb0f6151ed1386c3511fef782ba9f8f24d4643b2c20dc6f866031e9b774d62e500ac58f4776e5c827da55b6cd3bc139346de65752faa6c61aa7ec7da029dc74d29bdd433eb7aaed9cb3de65a6cb3205a2904ed1d11b86ff29a7b5cb74b180024bf09dc966d695a2afdf6911ffdd26d766de6415c4b1215d8f3507e4e5472c1aeb1ced06ff4630b6eea63b3d2291495de2defa9342b38126089f500c28ea9dc155c52c36cce0e51e53214b2092bc62a6cddc3412a9b3ca1846e7bdbb4e3c8bf744bd5e008554ae7db56bc6bee9d52624e201fc2bac8c9b004f53f2582ad85e9fb0edb5b23341df9e1e6372bc960b75783215fcadeeb1040e835870ca50bb0c56bb91217bffa286cf9509b1a808d4dcf3a1f525c65a02f7115d4f66c9442a3732abc2244d4905af76b638f8bf047b67316fcde98b7809e1b4977cf31df9f9887ed8384073f2240e04a69e3d28094d6cff44135ad8c0e299156fe55cba275c4456ba93dd7fd1592195a48b305da5522ca43266cfb3d2542d95ff3c8652cd8798c6d3982ca732b89ed9e00ccb6c83440f513d44bc2a49d9d6bfd95cf79b2f0784578ac1bbc9f8d3b3623653729c09c4b2fe5fa033d52830d31b26274bd505ba4e19e3b6483a1bc79a311ca00e729e0cc8dc18526cf8964cb0b1eabbc657f66a1bdeb97928259db07af75106132e973826a5b3e50b324d7d3a6f83b50460664d74e2ad47d9ca27fdd3fd3f361c78e6fb4bc1ec609a6b314861cf874a21da2b243365db611cca22bbe4a271ef97d63d0ddd76064a7e951136d11010d7f7c33043ade4aada8a735384354f0e10ddcd6eb35f0592544816d44dcb0368967ce29d051aad2f3ed93466f620763541f6730c4c01107b1a64a4da669bab26b464c0751432bb6d2f97ddb0d6e1021bd583bc8918cdde2a96fb96f74b1d69f78cba95717b7a6770530cc8b1320aee69ec61b849ed65376d61145eed73b0c487aa49364773a1f0088445014ecce64908ac289bad8b82aed80bc3f6e54dbf83a8a10fb30bf612baf0c6733765c7ff02dc7e6e0118598ce38de54db84070f0ea564af61f2708ed94e3aed850b8f65212029355e1eafe8b30b6d88cc40db34f543361c7114b76531466e171c06d1e7a8e022b0484d0c71230f789e74b600e54900a9f49d839fb425d60ee654379346335d98993025f6a25a70c7bc8016f9656a6bf6668ce8d7aff315be6cdb83d8ac5b8fb4b110d027af91ed2dba68bd7c0f2787101a19e869db6f22cbc870d151ab922bd8867d89ef7e3461ef9db83d3713352d11e7847de44ba419acd2f1409d310e90ea2fdfc883c62f80112e1613de3cc1827675b8a8e4ef4ad05ecdc3848ca7280f4527422a71802df20365ac04727184b3d744792568bb87dde3d9f38a35ed2733c0fb6d88eb4cc9709f6ce6268ec9702f04ae8a195d659d4e87bdf979ecd00b5456018c55239bad13f3d08366fe79015580e1740a4b6e1c4288f27029d03db64df8ffd93f629a1e50f2ddd700926289bd52732bd577c6f9419d5685ca344022583db6153d3ad71a92aee30ad8b790b64d5fa29e4bb76abfe2108216364383f7a1d3a4b66c0fdf2401c45757d20f7f987276446e9173928da3af3f076781d06c000000",
  "txid": "f7280464201622cf2dc3fe52b3a66d4c596ecd7d4cfb78224de04b55337aa2e0",
  "hash": "ea39eb42af60b789ea13a4f6fce197a11e98c2bd9cbdb274b31f3e9095b37bd8",
  "size": 5085,
  "vsize": 2278,
  "version": 1,
  "locktime": 108,
  "vin": [
    {
      "txid": "8c6aa4ecfe101bac5e0451bdc2693547a2d7849711950960369e1623d4fa3ac0",
      "vout": 1,
      "scriptSig": {
        "asm": "",
        "hex": ""
      },
      "txinwitness": [
        "7541b19e7594cbc7fc454c1ac2f9435ecad82d13f8b214d2dea4fa6e92459f6ee5aaf64822d84ba4b642a97dd65de3f6b9b73e229886e7ceb9341b0a794c7b3fc775b06c567691c11802646e0e935bedbab6310209d53e41c585f540e59a677f88f85c2f6e248cb0c94c08bd21d4b5369aaa1eef23aa4fd1db8aedacb2c405b39026ad395904deefb2ae178f933f46d10724c13ac915cf107ebb84681af53d10dc166be5de759b86984464ba7a6dcf1eb33d27ba4eccce18d7d3c0778016997bd002778ac2cd9d95a2093ecee4bbec1a05ceab6f39a50f96c5912378c0fd833eaa087b693f3fb2cd3dfdf480b63bdb6a0f7016c50151c3048dbdbb3424a1bb3764ed2cc8b6eb3a3f2efb02b415fc75049b8a92022d309413b98b0b30d27c6268defe7cf85fb161078b8585c1e8e6c7d22d9fdea36a4c67916f066c9b572a033b3d75a798f3dccc23acc26824617527903ae6b0706e15a83dafba511da1e22864fc2b64c35352ac93910045673533727141e5cb3d2d5a34fca1e18fa5c628d58856db852140dd6de7a88ec20464f6a3bcc28851c9a8e37553695b11d40fcb419ff580d3b644552f0395dab75f7eed69d42f5652d253d30df521c731e71d4f3967df0bcac0de9da04bb02c450649f4c2764d758c9b3aadfe58a8445b6f5134f22bb6350e36d0c6e65051e5914f34b1cf890c5f45e640bd5d37a3501a62f015a5353c8072118b1c5afc19f28e1f4eee090bfe5d23d1d2affa0538d07a2f4e765608956c9d9cd8c7eb2192c8865cd95978fad9ac6861024be0b5b7469fc7ef9249d59a228f1dec4ca22f612a4b2d0398f94bc8dddffb54c82341ae8ee43805c2f3efa75a44ef67aeb2bc50d334f42cce26a4ee4ff64bc6961a46d098b8974e0dbdc7dd93b044393986726f22cec8bcbcc8e8b7531b877a4d1d95469e893ceff5ca3b62e8790f6665bf63ccad5909204fa55476f7ba6d681af3acb6a12f8543524797790e1145037a936172640d94a710921df48fd4ad9ac2904b0fb9bab5ecc07301f3c964191751d5ed910edf2ae2dd07c64dd6e7b3e7c44cb63bb22ecd1adc394758af37b4d2b3eab37abae32b2cb776f3c7a050510b2193fb00d66d6692bbccdfd64a6e54cb002dc1ebf8be41dcbd7624cec5553995b61afc4377b02f6140b2bfd2fcac2c56cf72108f3419801cf39435632b674308376fb6f442e7182ca459c90f528c0f3a9fdd89bd65ff405143ece8c13b2675b67567aa02a1810c39ddc514630dc9cb2bc1f48b1693f6388ca5e372337a8374697589ff8cee7b959f492ed7b41f2a919f2ed6bfd4b2f46b3a87969ad5df561d578d10b83ca41e54dcfd09d419b4569d3b6044a04dc0b0a4f6a59a6ed07d8b76cb27911ed6c0d875b53b6e1cb5c535e826f57856fc325067f551adee58795abc73370420c975afe766a7262684e9e6d299c5b92f3d1b4c816a932e965d0fd61f7422d94769203831fe1205aa3d736a329632bfaae11fa420104a72f5ef9107a49eac16a87ebf3b86930786fce7b3447e0485bcaebab5a0031e0ae367ebdd5951abad29b6b2a8d5caea98bd3328561d902e37c309f96163fb1afc07be0809b2aef401949220e9b7ba6b8e38a3cee1105a3f5f5246498270822b0c62df89f9728ba1df12a75d07fc9e52a5c7536bcaa9c31bae22c83974a89feaeae5a2c3052989d0186c44f91dd32a5fb895121d4c1c475de37cb6359c6f304b3f464243f569ff479a089d4d7d77d2455a1b44d400d6354ab577b60260fdbf1a3daa8a725680120fbb8c50d01e2637963964aea3ef919832bd3dae85e0e63e10b235433e99bf7ae57c75208b89a3ffdc63ca6c072174bf17b416c270cc3c139931100cebc9697e0dfcb768705eabd397274b08612044874716d9dec56005db27d2b62aec96823a44e0d8edc3bcc954f0974e337c1258b48a93fe29927001ce65bb9feb2b63a70286122ae0c51e3edcb3a82343f48131b26e4e4f51234d0f658210c9396867c50d0fab1f552dcc7801e7ae914f349f5de5db96e49244e548a855b51b4c85fe4b90aafd507e705fdef0cc97c5e46e027abbf953752cc951b154beab656163962f666390dcd1cb36cb92d5b0f4ef9ad4363a950f8d2a6385ffb58f51c2c3b0f54d6df2c8c1c880151590607e01654e79d39487b0cf1954b039d55bda4eda78179ac70a879876baf1a99a0c29f1824bc3d2d76b8c31676aa1f6644ce4907873e5fd5372c4cfc03149759ebefb4c73c665bde90a7b8908f48aaa1a2d603f4f9f64e1b235c4ee5bc88a7e0a664769e17da73361461b96f1a6b23d5137083b083a449bfc1e9b0b0b8b096143fb4531c1078d1dee57d2effd860f0d5824b89be957976b60862bbdd0929598143261398cf9f62760805ef05377aee04c222c7bc50eb6d0c3d63165b203bf214c863f5afe92e856f85b990e250ade9865db466d8e8b7e83a0088fab1823bd1849d9709cb3c247cb817bbc24b70447fe0706827f44c1bddaa03fed3b2477385ddbacefc22fbc7a84e8b5a0779aadac8f943022d6ef16ff65c38a0c3f83bfd83f9fefb57e222fb40ba2e6515e2c0eeef86307b06a0c9ad3aac382e084639911904bf636beff3705d3389f1e5dc79ea3852cabc059c354a20527b0cbf8db36fe8808523327728c83b2c717533ded6a459623f88660dd6f6993ed0adb09c5eb8b9fd6a312a230f1dd5da032c6828279f58ed895c4b57bf7cacf57d25a189bd25063125a7a6e5fe6a70fc6903bcb566b4477be8681e7411c05db22b4bd59f3657f5a7319071d57ce922c19f555de98d9a5c949e83124718c05307006a89e8a50403b3ffe20007cea2e003fb7442840ed25f764c30636298b71ee4d66dcaa1138773567444d09a49ac64a343a161cc55320020e6b8a09fc2a151bbdbb52479131e9bb67b4848d7892b19eb31d189af5da1636f92443b5ec3200e9d105e5482a5d28f08b346ce2cda6a6ac26f5ccbd6c686235c00b5fceb2c4ed70375a46c7329a5c2a27a7b21803157298d47873b71d2f956355aebf829a4ba7edade91a8936cd1d71cef6183619e22cabdc318fa0cd33288ed835c97960db7457643d9282ae9d1492902eb2e4a44973754719d9a69572bdcfcf1301f550884357868fb57d23ff9af79880fbd3bd911f829fd9712eb57bd2f37468b9955c45e6c54c4f9a91eb292d6cc68d40a04533dca82eff72b798bf35a516df1075767a395435ef6b4396694cf7a4f286b1c2a5c26a6ca58d1833b68745e45a5a005951a889f8af15cdba09ed2f26c4457ad2162e505b7e839cb2bfd2d9090d2365758eaac8cbcfdde2e7eb101f246b7e7f9abbc6d3e3ef1113485562696c8ea3a9afc1c9cddb000000000000000000000000000000000000000000000000000000000b19253401",
        "00e2a6f4c3b651994071cf11f4ff50be9b1b9adc837630a63071f1390ead24cef7cd3d98d7eefcfa105541aad3c98eea10ad441342712dfdb8770236d110de7816a0a765bed976ae4588a12947a8132d6617c832e3986b9643233a26840a8b59156db334964f9baa55ce68a107aa2dd5a34645827e7c7a14b342a6715b0b0b1d983f178710132a9ebb08aabcb8808bd31839af1479746b733dc02ebb0f6151ed1386c3511fef782ba9f8f24d4643b2c20dc6f866031e9b774d62e500ac58f4776e5c827da55b6cd3bc139346de65752faa6c61aa7ec7da029dc74d29bdd433eb7aaed9cb3de65a6cb3205a2904ed1d11b86ff29a7b5cb74b180024bf09dc966d695a2afdf6911ffdd26d766de6415c4b1215d8f3507e4e5472c1aeb1ced06ff4630b6eea63b3d2291495de2defa9342b38126089f500c28ea9dc155c52c36cce0e51e53214b2092bc62a6cddc3412a9b3ca1846e7bdbb4e3c8bf744bd5e008554ae7db56bc6bee9d52624e201fc2bac8c9b004f53f2582ad85e9fb0edb5b23341df9e1e6372bc960b75783215fcadeeb1040e835870ca50bb0c56bb91217bffa286cf9509b1a808d4dcf3a1f525c65a02f7115d4f66c9442a3732abc2244d4905af76b638f8bf047b67316fcde98b7809e1b4977cf31df9f9887ed8384073f2240e04a69e3d28094d6cff44135ad8c0e299156fe55cba275c4456ba93dd7fd1592195a48b305da5522ca43266cfb3d2542d95ff3c8652cd8798c6d3982ca732b89ed9e00ccb6c83440f513d44bc2a49d9d6bfd95cf79b2f0784578ac1bbc9f8d3b3623653729c09c4b2fe5fa033d52830d31b26274bd505ba4e19e3b6483a1bc79a311ca00e729e0cc8dc18526cf8964cb0b1eabbc657f66a1bdeb97928259db07af75106132e973826a5b3e50b324d7d3a6f83b50460664d74e2ad47d9ca27fdd3fd3f361c78e6fb4bc1ec609a6b314861cf874a21da2b243365db611cca22bbe4a271ef97d63d0ddd76064a7e951136d11010d7f7c33043ade4aada8a735384354f0e10ddcd6eb35f0592544816d44dcb0368967ce29d051aad2f3ed93466f620763541f6730c4c01107b1a64a4da669bab26b464c0751432bb6d2f97ddb0d6e1021bd583bc8918cdde2a96fb96f74b1d69f78cba95717b7a6770530cc8b1320aee69ec61b849ed65376d61145eed73b0c487aa49364773a1f0088445014ecce64908ac289bad8b82aed80bc3f6e54dbf83a8a10fb30bf612baf0c6733765c7ff02dc7e6e0118598ce38de54db84070f0ea564af61f2708ed94e3aed850b8f65212029355e1eafe8b30b6d88cc40db34f543361c7114b76531466e171c06d1e7a8e022b0484d0c71230f789e74b600e54900a9f49d839fb425d60ee654379346335d98993025f6a25a70c7bc8016f9656a6bf6668ce8d7aff315be6cdb83d8ac5b8fb4b110d027af91ed2dba68bd7c0f2787101a19e869db6f22cbc870d151ab922bd8867d89ef7e3461ef9db83d3713352d11e7847de44ba419acd2f1409d310e90ea2fdfc883c62f80112e1613de3cc1827675b8a8e4ef4ad05ecdc3848ca7280f4527422a71802df20365ac04727184b3d744792568bb87dde3d9f38a35ed2733c0fb6d88eb4cc9709f6ce6268ec9702f04ae8a195d659d4e87bdf979ecd00b5456018c55239bad13f3d08366fe79015580e1740a4b6e1c4288f27029d03db64df8ffd93f629a1e50f2ddd700926289bd52732bd577c6f9419d5685ca344022583db6153d3ad71a92aee30ad8b790b64d5fa29e4bb76abfe2108216364383f7a1d3a4b66c0fdf2401c45757d20f7f987276446e9173928da3af3f076781d0"
      ],
      "sequence": 4294967294
    }
  ],
  "vout": [
    {
      "value": 1.0,
      "n": 0,
      "scriptPubKey": {
        "asm": "OP_RETURN c36844d203a32d96f4dbe895d4d51d2a8a7af380fe407d3dc3f1aa8e604e3eb1 e36dac9e1d04f6c3360d01f6e94b171cc15823bec787fbfbba141f81e2b428f2c34d8cbe3d24d6e3162d21d6c96b373ce178039ee7a7dbdb9a343fa1c29408d2a32decde5d44b683764d41b6a90b575c811863fe87c7bbbbfa545fc1a2f468b2830dccfe7d6496a3566d6196892b777ca13843dea7e79b9bda747fe182d4489263ed2c1e9d847643b68d817669cb979c41d8a33e47077b7b3a949f016234a87243cd0c3ebda4566396ada15649ebb7bc61f8831e67275b5b1ab4bf214214885223ad6c5eddc43603f6cdc136298bd7dc0198e37e07473b3b7ad4df412274e832038d4c7efde41623d6ede11609abf7fc21b8c35e27671b1b5af4ff610254c812e36dac9e1d04f6c3360d01f6e94b171cc15823bec787fbfbba141f81e2b428f2c34d8cbe3d24d6e3162d21d6c96b373ce178039ee7a7dbdb9a343fa1c29408d2a32decde5d44b683764d41b6a90b575c811863fe87c7bbbbfa545fc1a2f468b2830dccfe7d6496a3566d6196892b777ca13843dea7e79b9bda747fe182d4489263ed2c1e9d847643b68d817669cb979c41d8a33e47077b7b3a949f016234a87243cd0c3ebda4566396ada15649ebb7bc61f8831e67275b5b1ab4bf214214885223ad6c5eddc43603f6cdc136298bd7dc0198e37e07473b3b7ad4df412274e832038d4c7efde41623d6ede11609abf7fc21b8c35e27671b1b5af4ff610254c812e36dac9e1d04f6c3360d01f6e94b171cc15823bec787fbfbba141f81e2b428f2c34d8cbe3d24d6e3162d21d6c96b373ce178039ee7a7dbdb9a343fa1c29408d2a32decde5d44b683764d41b6a90b575c811863fe87c7bbbbfa545fc1a2f468b2830dccfe7d6496a3566d6196892b777ca13843dea7e79b9bda747fe182d4489263ed2c1e9d847643b68d817669cb979c41d8a33e47077b7b3a949f016234a87243cd0c3ebda4566396ada15649ebb7bc61f8831e67275b5b1ab4bf214214885223ad6c5eddc43603f6cdc136298bd7dc0198e37e07473b3b7ad4df412274e832038d4c7efde41623d6ede11609abf7fc21b8c35e27671b1b5af4ff610254c812e36dac9e1d04f6c3360d01f6e94b171cc15823bec787fbfbba141f81e2b428f2c34d8cbe3d24d6e3162d21d6c96b373ce178039ee7a7dbdb9a343fa1c29408d2a32decde5d44b683764d41b6a90b575c811863fe87c7bbbbfa545fc1a2f468b2830dccfe7d6496a3566d6196892b777ca13843dea7e79b9bda747fe182d4489263ed2c1e9d847643b68d817669cb979c41d8a33e47077b7b3a949f016234a87243cd0c3ebda4566396ada15649ebb7bc61f8831e67275b5b1ab4bf214214885223ad6c5eddc43603f6cdc136298bd7dc0198e37e07473b3b7ad4df412274e832038d4c7efde41623d6ede11609abf7fc21b8c35e27671b1b5af4ff610254c812e36dac9e1d04f6c3360d01f6e94b171cc15823bec787fbfbba141f81e2b428f2c34d8cbe3d24d6e3162d21d6c96b373ce178039ee7a7dbdb9a343fa1c29408d2a32decde5d44b683764d41b6a90b575c811863fe87c7bbbbfa545fc1a2f468b2830dccfe7d6496a3566d6196892b777ca13843dea7e79b9bda747fe182d4489263ed2c1e9d847643b68d817669cb979ce8c8bc651fc951d4b3eeaa5beb46ae5ba78a7cd41057763e268e0015f7d89ab0",
        "hex": "6a20c36844d203a32d96f4dbe895d4d51d2a8a7af380fe407d3dc3f1aa8e604e3eb14db004e36dac9e1d04f6c3360d01f6e94b171cc15823bec787fbfbba141f81e2b428f2c34d8cbe3d24d6e3162d21d6c96b373ce178039ee7a7dbdb9a343fa1c29408d2a32decde5d44b683764d41b6a90b575c811863fe87c7bbbbfa545fc1a2f468b2830dccfe7d6496a3566d6196892b777ca13843dea7e79b9bda747fe182d4489263ed2c1e9d847643b68d817669cb979c41d8a33e47077b7b3a949f016234a87243cd0c3ebda4566396ada15649ebb7bc61f8831e67275b5b1ab4bf214214885223ad6c5eddc43603f6cdc136298bd7dc0198e37e07473b3b7ad4df412274e832038d4c7efde41623d6ede11609abf7fc21b8c35e27671b1b5af4ff610254c812e36dac9e1d04f6c3360d01f6e94b171cc15823bec787fbfbba141f81e2b428f2c34d8cbe3d24d6e3162d21d6c96b373ce178039ee7a7dbdb9a343fa1c29408d2a32decde5d44b683764d41b6a90b575c811863fe87c7bbbbfa545fc1a2f468b2830dccfe7d6496a3566d6196892b777ca13843dea7e79b9bda747fe182d4489263ed2c1e9d847643b68d817669cb979c41d8a33e47077b7b3a949f016234a87243cd0c3ebda4566396ada15649ebb7bc61f8831e67275b5b1ab4bf214214885223ad6c5eddc43603f6cdc136298bd7dc0198e37e07473b3b7ad4df412274e832038d4c7efde41623d6ede11609abf7fc21b8c35e27671b1b5af4ff610254c812e36dac9e1d04f6c3360d01f6e94b171cc15823bec787fbfbba141f81e2b428f2c34d8cbe3d24d6e3162d21d6c96b373ce178039ee7a7dbdb9a343fa1c29408d2a32decde5d44b683764d41b6a90b575c811863fe87c7bbbbfa545fc1a2f468b2830dccfe7d6496a3566d6196892b777ca13843dea7e79b9bda747fe182d4489263ed2c1e9d847643b68d817669cb979c41d8a33e47077b7b3a949f016234a87243cd0c3ebda4566396ada15649ebb7bc61f8831e67275b5b1ab4bf214214885223ad6c5eddc43603f6cdc136298bd7dc0198e37e07473b3b7ad4df412274e832038d4c7efde41623d6ede11609abf7fc21b8c35e27671b1b5af4ff610254c812e36dac9e1d04f6c3360d01f6e94b171cc15823bec787fbfbba141f81e2b428f2c34d8cbe3d24d6e3162d21d6c96b373ce178039ee7a7dbdb9a343fa1c29408d2a32decde5d44b683764d41b6a90b575c811863fe87c7bbbbfa545fc1a2f468b2830dccfe7d6496a3566d6196892b777ca13843dea7e79b9bda747fe182d4489263ed2c1e9d847643b68d817669cb979c41d8a33e47077b7b3a949f016234a87243cd0c3ebda4566396ada15649ebb7bc61f8831e67275b5b1ab4bf214214885223ad6c5eddc43603f6cdc136298bd7dc0198e37e07473b3b7ad4df412274e832038d4c7efde41623d6ede11609abf7fc21b8c35e27671b1b5af4ff610254c812e36dac9e1d04f6c3360d01f6e94b171cc15823bec787fbfbba141f81e2b428f2c34d8cbe3d24d6e3162d21d6c96b373ce178039ee7a7dbdb9a343fa1c29408d2a32decde5d44b683764d41b6a90b575c811863fe87c7bbbbfa545fc1a2f468b2830dccfe7d6496a3566d6196892b777ca13843dea7e79b9bda747fe182d4489263ed2c1e9d847643b68d817669cb979ce8c8bc651fc951d4b3eeaa5beb46ae5ba78a7cd41057763e268e0015f7d89ab0",
        "type": "nulldata"
      }
    },
    {
      "value": 499989.831,
      "n": 1,
      "scriptPubKey": {
        "asm": "1 f6378d794478fcec6e69903d419bcbc712f09f0f77c196d429f5bc066a15b7e9",
        "hex": "5120f6378d794478fcec6e69903d419bcbc712f09f0f77c196d429f5bc066a15b7e9",
        "reqSigs": 1,
        "type": "witness_v1_scripthash",
        "addresses": [
          "3QJmnh"
        ]
      }
    }
  ],
  "blockhash": "fed18006ccdab590a9e00afae0c126c0756e5b686d02c0375b028c4c6af5cb31",
  "confirmations": 1,
  "time": 1764177489,
  "blocktime": 1764177489
}