{
  "hex": "01000000000101bbfc52f4780821aa8d306ab88a0cd8a13b9d07269d64fc8f0aa7ed7bbfb03c410000000000feffffff0200774227792d0000225120a82d39822006f0cdb4b2af775ff68c7caadec728aba9971d51ea61230bb3987f00e1f50500000000fdd5046a20f4d275630cd859e6af637e6b9a367bdec46465ead8f55b6fe4f0eed9fa57c6c64db0049510c5d2cc69681da7126b137fb9ba5302ab79d4074208557ab85a460a761f09b530e5f2ec49483d87324b335f999a73228b59f4276228755a987a662a563f29d55085928c29285de7522b533ff9fa1342eb3994470248153af81a064a365f49f570a5b2ac09087dc7720b731fd9da3362cb19b4672268351ad83a266a167f69159045524ce9e89d2792eb93ff393ad3822bf95487c288d5fa38dac68af69f8935b065726cc9c8bd07b2cbb3df191af3a20bd974a7e2a8f5da18fae6aad6bfa955d005120ca9a8dd67d2abd3bf797a93c26bb914c782c895ba789a86cab6dfc975f025322c8988fd47f28bf39f595ab3e24b9934e7a2e8b59a58baa6ea96ffe99510c5d2cc69681da7126b137fb9ba5302ab79d4074208557ab85a460a761f09b530e5f2ec49483d87324b335f999a73228b59f4276228755a987a662a563f29d55085928c29285de7522b533ff9fa1342eb3994470248153af81a064a365f49f570a5b2ac09087dc7720b731fd9da3362cb19b4672268351ad83a266a167f69159045524ce9e89d2792eb93ff393ad3822bf95487c288d5fa38dac68af69f8935b065726cc9c8bd07b2cbb3df191af3a20bd974a7e2a8f5da18fae6aad6bfa955d005120ca9a8dd67d2abd3bf797a93c26bb914c782c895ba789a86cab6dfc975f025322c8988fd47f28bf39f595ab3e24b9934e7a2e8b59a58baa6ea96ffe99510c5d2cc69681da7126b137fb9ba5302ab79d4074208557ab85a460a761f09b530e5f2ec49483d87324b335f999a73228b59f4276228755a987a662a563f29d55085928c29285de7522b533ff9fa1342eb3994470248153af81a064a365f49f570a5b2ac09087dc7720b731fd9da3362cb19b4672268351ad83a266a167f69159045524ce9e89d2792eb93ff393ad3822bf95487c288d5fa38dac68af69f8935b065726cc9c8bd07b2cbb3df191af3a20bd974a7e2a8f5da18fae6aad6bfa955d005120ca9a8dd67d2abd3bf797a93c26bb914c782c895ba789a86cab6dfc975f025322c8988fd47f28bf39f595ab3e24b9934e7a2e8b59a58baa6ea96ffe99510c5d2cc69681da7126b137fb9ba5302ab79d4074208557ab85a460a761f09b530e5f2ec49483d87324b335f999a73228b59f4276228755a987a662a563f29d55085928c29285de7522b533ff9fa1342eb3994470248153af81a064a365f49f570a5b2ac09087dc7720b731fd9da3362cb19b4672268351ad83a266a167f69159045524ce9e89d2792eb93ff393ad3822bf95487c288d5fa38dac68af69f8935b065726cc9c8bd07b2cbb3df191af3a20bd974a7e2a8f5da18fae6aad6bfa955d005120ca9a8dd67d2abd3bf797a93c26bb914c782c895ba789a86cab6dfc975f025322c8988fd47f28bf39f595ab3e24b9934e7a2e8b59a58baa6ea96ffe99510c5d2cc69681da7126b137fb9ba5302ab79d4074208557ab85a460a761f09b530e5f2ec49483d87324b335f999a73228b59f4276228755a987a662a563f29d55085928c29285de7522b533ff9fa1342eb3994470248153af81a064a365f49f570a5b2ac09087dc7720b731fd9da3362cb19b4672268351ad83a266a167f69159045524ce9e89d2792eb93ff393ad3e7df87c106713413dc23d1021d8e365767ef1e9874db90e6ad222cd57a56d46802fd7509797ec614251b5ccc6c92264370f6b9d86b1da2317233dd19ce7f8746fb6c03e7d68d2d197b49e352626d8ecc453b2e4fb2e27566b37317dc2570f720869e6758bc2f1e87b39923f76158da27039b7c570e084259499dcde62cab6958791f245779724d43bfa3a847b2a8128febabafe5162b613fcb25b680e930ed7c5c50e69832958f69675c13c179a058986ddbbce207acb0388e5b2eb4bf4687e6eb198fe2ec5f76090def7c7f45403b25e42aa16df13c769611d048ed9fed2f711248b718c4b13e01f1665ea365c024a3249a1b34c2c31704d83d3bc5ceb643173e10b4b900dfe3ff5fab9259c1837f0e016adb2f01888f0cbddf42ad8d4f698666125db099997cfa513952efc087df806bc86b63a43e07c0810a8b825d14d32179210a0edafee74b167aa75cd2166f4142f77f9a70709fe8989b6e5b28f294ba2675b9672e1d2a8eff60af9b7d6c750946d325ae3725385c3960afc7c5940508b033937e647ea706bbfc63a3eba10e67df525afe9e4313bbc21f555207135b6d9e3a5043cc2a2557d47ccc996e261ba9c7d38923249561d6fefaabac7e55146080a7de6f63e44a6c42dac8ae4f3f539b2f81cc19c6b91572cbd755e9f73ed6781fec1645f406cf90a5194fe73b6094f1a2c2bdee459167c41ecf5ebcc9fcb513a2c11590fc9a046b26f2e99de189cd6245dc9930a2afec527bb1add84bf965dc960ee2c4f77684d3b58aab8097be424481302fb971cef326be451afede12867781c238d9e91f3c102c1c836d368e6b890333c6d7d0b6d8922cef9bd2c4dd5ba3de1050cdeb8a08a9d3dec4a25ec99719afb69ccdcd3f65eff73fbd350cccdbe7198dfc1cf6124706443016f6ddc35281020eca23746e896946bd95c03659ee6b389f86e208f1ef7f0d172676dbf51feec7a42df6906ff3121c4fee61b8a571f0f5aee2831458cc10e24a89e39025de2efd4dea83b6aa494bbf783667899425fcd44b76459252ecb2731f509d75a00b898a5647635a10be870b700a710ecab1affffab91610b646e336e0020d524e0c41ea0dec9e066345a53cbbdc56c07a25c4b2c12826fe824b14b20614052d5740ada1a89616a4859d178d5b5023281e78afb9918190953e00fc8e84fd20e8909dd5d5d4960a5deb09423b3a1e9d53d75dc6dab8bef98273d2179f2fc709651d5eb92389794a1f9d686626835e667cf76c53c2393553bcb2105f339760942b6564d2cec35942a3abaaf58331bc29319a4409f06f8c44658a407e0f185d3c5b7302d03e9ed67fa22d03ea678e9716e936a762bd5bf354ce9ac1534559314da23e120104104354d711009ada5f054df37b5baf3140cc2724578e66851165eb7d7a5464e480c274b8546b2eb54323777e5a16a2e4e950727c93ac8a1189af67f24a70707438bc60bc8e7dc799d1804a877c19f0aeef6d803d62a67f08696ac99da5b1cf024c91f88036ab06b8058d9df4566a67d53a7cf316f289c30c39c295eda906c2f4fafeb95664c4d55478fc64de093e96d025629044eb37c3069ba60178e9eb2b9dd81dabada79678b253ffce9a3dc99476d92cff0b1eeda11696eef8cb9773bdd3ba19a3e0bd7c20e09d9486dc9118d29d47dfa9c62490c5cf5201a03952ff6bd991b3d020caddb1d248bfa7c795de2dc6cfe69e31b3a6e24f319f41362b922e86dddca5d6e4f7ba36e7bf5d418fc4674f7620fa887f360b5ff8a0a3b3c667a12af17e438258e1f4aef293b816d7a1ad9b5d30aa5b388c820b77ed8f490f6fcaa55176f18140f3993bb796e474fe7f2feffc8bfc4312f877307ec7892203d7a83a5a53c7bea5564649044caa6fe405e3851af731f71da0ebb8bcb5370d735fbabea5898dd032d95bfe7812a3b3c6c260fae72d13bcd3bc7e898d45b54b54f763bfc9dc1458f9f099b2d391d570f94a117f10c1e1d73e3dd98c592b4be995c43d820834ebcf1ef2abc0542f9ba621c4fbd7dc968e749d06a66f777940ddfe83dce8ab2ae2cfaf3d8e88488562d5cafe8bd44488742fef7806515127f244f44fe2bf404b5b27c94434bfe7fed466a9947891120769fcd3c97d1f7a14064d925d9c8990e7570d5b94d25e3947490a40642caf7c55d457372848c0600b0b3d4da983a78d307a1023f4b344c2859626616ecae2c192873f63f070d1725333a2e2961cef708f59b7d72e8bee8ed0b386a81ffddeb34c02cac043fe02c63379b4e0a34e4f89dacdffce887a0b4f41dd5184254cd59f2968cbb3e5715e3f7fff27f1dc3a1566a9169eb6184e5ea12733e6e1cd93e1390c63f99756e8b4382df2af8a531987636c0191376e7d7fb2327161b44cc24b13700350839a18561b53c6c909a18fb010c1bde177d1f4437c1ac3294b21f4013987e43a8346951a39cc8a9c5d3501fdb7b60414f23fe76ef381edddbda5e9bbb58d75548fdf423020bd8463f3886102d6056b333d9a4ce3a8b9f2f815605ffb31d1bc8c39df78afa787ea44510b61bc94d51f90fa6362295e6496cc82cf50b6c155eed049d3fa215c3487a7bc034f11cb4dcbf52e0d783aa93dbc68c3da601fd68704fe7456a7ac8ac2ba608a7adafc4d9dc140fcad75567679b95a29a1e4a49eaa8a0716f685de91e669451fe781ce888bd587f1adee859bfce3910174f800a3f073c3c57151a4a6b4de7cde1a2d97778290dd95f298a68338997815409f636f19ed972c73c04f0c54a516e13c1889c1f635af131d481f665e40f3de404c76f1da8a2ebdf287d3f7323ba4434392d6feb9ef900fc7d31a806fc9b40f91118fd095769b2ecf11c7c9496f3bc2cd2e7c8c38f4a3682d84337dead98613899799e6fc46e6ec5a78177175592d7b45d8a87dba34df18057853ec31052f4a3da5fc34c2300f51b793411075902517670a48ce55d84a779272347f3894ee7b43743b975915850a4c10297ebf15009489f3795efb57b4325cdbf7b474353586e609e75bec7195b0883bdace3e400d069acc5d465b737b7ebe2e221f2821bf426aa723035fad46c23db453f21e1b669769f278e698b09577335399550696257f76030713b7b5af6ffc1102fc69076a916a861b3aa7f8ad9e636a0c6b5217ab515aa89dd14afb8a3061f959dcd79f9da45983947afbc82eb54a91262c5c284baa080c1386ca225deb73d15a033a1f6e4db9e057c386251591ada0512783b85949330003103ade8217a34d1b12ebf8e460a1df15287003c88f1e25090a208bb1de013b51cffeacdc66a6b2ccf7edbfa873493806b5472a59757abc840001afcdb6645e495c8f75082c4455585f64686c7c80889ba3b7c7f3fc09101f232a3f5e5f90a7cfdfeaf5021f243d444550545e7a808fa2bec3fa0b141d3e505d7cb8c3d2dbdeeff40000000000000000000000000000000000001220303e01fd2105004500a3b52d6f798d0c9e3949b0f04ad09d89ea7532f4e3be9e97fdf63972674a4dc5b28b5945c652b161132d9a437bc927a879dcff033644a30e31749ed9b318ad50c425caf99ce244983fb87e2fa38ff60f820a8cad7313cab565ff35428e69cee30671e3ca6029f8d3740616b044f90446b4b85ca927a27e2f0aa45be2d8e0256d7a421691c5bde4e6d556ca60f9441f9ce401618e585b53cd0f0d6e6d35f1533da0c952fb13524568c2fb3c1638ad56a2382d5646389f4229dcf056f93096e211d9be47e721de87adb72fa32f5c8ff33556244e6da5d8640dc7625ab948252a91583551ffe4ce8842c89dcf6d937608ec809fa75c3558be7bf4db9b96ee2132f64096a5a187eafe63a954fdbdc316347cac8eb23e375244beebeebf3ef18f0922fab4c36c05e3ffaf9a446cccc5ea45317e3d2ab1e890dddb519afbc37824d578c19945053aa74240affb556cf5fc4905b0374db2d27bcb33b3f2f400ac8796a1075bbd27c937df2a558357ffaec13a0b7955c44d47317d484775af43dad55a1597a64397e3ad92bdf08c36148247d7e029b015c3ee3c4f8daecc3d33f9fd44b98777acfcb1980b8e8a1b74c3d050010c041630d723770466aea0902724a091f876648597af76fd91dd9e02088fafc4be51b450db62f3c6e86cd99354ae9070944b650a7f211da0022ed02cabfb70dffac96bca1a637f1683f31dd3e8d6e32b02dee1479084883dcb97b019bb0eb64e1a5eecdf7b81c4c2066c549cdfca7e7bf5351e356c5a0b1a21c8ce9c1545e92442160f9c908b10f7fe6a13b3ff2235480e4db010d085fe13a257d0e814bd917507d2d7e50fcac2270f625d41dc3677899d65020814e5dc33de8aa207ee5b75e7c6d5f47e8ac82cbd3397eaeca7f8cbc24476cc25c1bbc0a75ec815ae141ece7c12757d4f7437a4c006713f2a2d250f80192f57a5aeb84370df34e2ebf797eaa04b1bdf7190251fd1fccd73c885a43e8f74ee9da466e17c5225212acefcf36e15724d628e4cde3b185c880786e6dd9cf2ee5ea01e4589fa38b6d0e2ec652ad42dc64d0802cf6790322340f8fb1f440cb197d77911c7fb7b903939ece20d186f914c567d48d60a84305597d2765816a2cbf36ad341d1fb322e1cd0311f774f2b97bfda7c05518a8815793b5fbe172d294d5ae99c41ec57185c5287c6510996ccc22f237def08318e2e8271e81cc260db30dd86f6334ca44f590632b0737a54810c8e15ebcccb3d61fe0d832944621487e55f9a2b14b7df82a845fb84eb1dbf81d36979e35ee8e96168126b4d8c2b95ab5ad8fbb6501a31e3659a05bd77200f3ecf1ddb0582c205bb4375f66f7acb08dbdafd00982e0ec8f8688a783f9f81369e010c1011fc2b5117f766c99f080c7d31e987cf1cdaf8bc43c3dd0abfc67df142876b32885c12800d55f86e3c063a3d7700610f8e0615dd83004aa11094e90c70bd0b5ed526fdef8b84710652c9c556234d19cff5503559a6801d03c7fad5883360d2599cba2755267fa4582ea5a39519dfdc00876b98ee49444c6acd51f6b32ea15c0e0145f6c1ebddd755a72b8636c9d3edd25f10a51d29538182697e863de13a6893e56da5839c0b282327b8b27d830eb6ef9853c21b31e35abb0514ab68dd21de1f3a28f193f8470a1673e3dadbff2a3a724ff0b2525cffd708fd603686da55b2eb88a8164dfe90f549a1073ba7e700d50e26376dd608488e6f56c10b68a6ffb6533290c05f870f3851fef47611d746b5d2daf7f57aaa66e56a9f52f3ef887af7c0ed997b5ba0548c98b49f3e5bf8b33740384db7535fa1c911556eadca7d4bd3b2b0109ac6c7fceb5cbfc903a67871000000",
  "txid": "fea420a0607837d776c57016171b2f23a667993fb1e72ea770b6c9d7706921bf",
  "hash": "74e8f1d3d718a341d54ff47465bb15612c9e4e12932f6b6d44f28a2eeb3a20bc",
  "size": 5085,
  "vsize": 2278,
  "version": 1,
  "locktime": 113,
  "vin": [
    {
      "txid": "413cb0bf7beda70a8ffc649d26079d3ba1d80c8ab86a308daa210878f452fcbb",
      "vout": 0,
      "scriptSig": {
        "asm": "",
        "hex": ""
      },
      "txinwitness": [
        "797ec614251b5ccc6c92264370f6b9d86b1da2317233dd19ce7f8746fb6c03e7d68d2d197b49e352626d8ecc453b2e4fb2e27566b37317dc2570f720869e6758bc2f1e87b39923f76158da27039b7c570e084259499dcde62cab6958791f245779724d43bfa3a847b2a8128febabafe5162b613fcb25b680e930ed7c5c50e69832958f69675c13c179a058986ddbbce207acb0388e5b2eb4bf4687e6eb198fe2ec5f76090def7c7f45403b25e42aa16df13c769611d048ed9fed2f711248b718c4b13e01f1665ea365c024a3249a1b34c2c31704d83d3bc5ceb643173e10b4b900dfe3ff5fab9259c1837f0e016adb2f01888f0cbddf42ad8d4f698666125db099997cfa513952efc087df806bc86b63a43e07c0810a8b825d14d32179210a0edafee74b167aa75cd2166f4142f77f9a70709fe8989b6e5b28f294ba2675b9672e1d2a8eff60af9b7d6c750946d325ae3725385c3960afc7c5940508b033937e647ea706bbfc63a3eba10e67df525afe9e4313bbc21f555207135b6d9e3a5043cc2a2557d47ccc996e261ba9c7d38923249561d6fefaabac7e55146080a7de6f63e44a6c42dac8ae4f3f539b2f81cc19c6b91572cbd755e9f73ed6781fec1645f406cf90a5194fe73b6094f1a2c2bdee459167c41ecf5ebcc9fcb513a2c11590fc9a046b26f2e99de189cd6245dc9930a2afec527bb1add84bf965dc960ee2c4f77684d3b58aab8097be424481302fb971cef326be451afede12867781c238d9e91f3c102c1c836d368e6b890333c6d7d0b6d8922cef9bd2c4dd5ba3de1050cdeb8a08a9d3dec4a25ec99719afb69ccdcd3f65eff73fbd350cccdbe7198dfc1cf6124706443016f6ddc35281020eca23746e896946bd95c03659ee6b389f86e208f1ef7f0d172676dbf51feec7a42df6906ff3121c4fee61b8a571f0f5aee2831458cc10e24a89e39025de2efd4dea83b6aa494bbf783667899425fcd44b76459252ecb2731f509d75a00b898a5647635a10be870b700a710ecab1affffab91610b646e336e0020d524e0c41ea0dec9e066345a53cbbdc56c07a25c4b2c12826fe824b14b20614052d5740ada1a89616a4859d178d5b5023281e78afb9918190953e00fc8e84fd20e8909dd5d5d4960a5deb09423b3a1e9d53d75dc6dab8bef98273d2179f2fc709651d5eb92389794a1f9d686626835e667cf76c53c2393553bcb2105f339760942b6564d2cec35942a3abaaf58331bc29319a4409f06f8c44658a407e0f185d3c5b7302d03e9ed67fa22d03ea678e9716e936a762bd5bf354ce9ac1534559314da23e120104104354d711009ada5f054df37b5baf3140cc2724578e66851165eb7d7a5464e480c274b8546b2eb54323777e5a16a2e4e950727c93ac8a1189af67f24a70707438bc60bc8e7dc799d1804a877c19f0aeef6d803d62a67f08696ac99da5b1cf024c91f88036ab06b8058d9df4566a67d53a7cf316f289c30c39c295eda906c2f4fafeb95664c4d55478fc64de093e96d025629044eb37c3069ba60178e9eb2b9dd81dabada79678b253ffce9a3dc99476d92cff0b1eeda11696eef8cb9773bdd3ba19a3e0bd7c20e09d9486dc9118d29d47dfa9c62490c5cf5201a03952ff6bd991b3d020caddb1d248bfa7c795de2dc6cfe69e31b3a6e24f319f41362b922e86dddca5d6e4f7ba36e7bf5d418fc4674f7620fa887f360b5ff8a0a3b3c667a12af17e438258e1f4aef293b816d7a1ad9b5d30aa5b388c820b77ed8f490f6fcaa55176f18140f3993bb796e474fe7f2feffc8bfc4312f877307ec7892203d7a83a5a53c7bea5564649044caa6fe405e3851af731f71da0ebb8bcb5370d735fbabea5898dd032d95bfe7812a3b3c6c260fae72d13bcd3bc7e898d45b54b54f763bfc9dc1458f9f099b2d391d570f94a117f10c1e1d73e3dd98c592b4be995c43d820834ebcf1ef2abc0542f9ba621c4fbd7dc968e749d06a66f777940ddfe83dce8ab2ae2cfaf3d8e88488562d5cafe8bd44488742fef7806515127f244f44fe2bf404b5b27c94434bfe7fed466a9947891120769fcd3c97d1f7a14064d925d9c8990e7570d5b94d25e3947490a40642caf7c55d457372848c0600b0b3d4da983a78d307a1023f4b344c2859626616ecae2c192873f63f070d1725333a2e2961cef708f59b7d72e8bee8ed0b386a81ffddeb34c02cac043fe02c63379b4e0a34e4f89dacdffce887a0b4f41dd5184254cd59f2968cbb3e5715e3f7fff27f1dc3a1566a9169eb6184e5ea12733e6e1cd93e1390c63f99756e8b4382df2af8a531987636c0191376e7d7fb2327161b44cc24b13700350839a18561b53c6c909a18fb010c1bde177d1f4437c1ac3294b21f4013987e43a8346951a39cc8a9c5d3501fdb7b60414f23fe76ef381edddbda5e9bbb58d75548fdf423020bd8463f3886102d6056b333d9a4ce3a8b9f2f815605ffb31d1bc8c39df78afa787ea44510b61bc94d51f90fa6362295e6496cc82cf50b6c155eed049d3fa215c3487a7bc034f11cb4dcbf52e0d783aa93dbc68c3da601fd68704fe7456a7ac8ac2ba608a7adafc4d9dc140fcad75567679b95a29a1e4a49eaa8a0716f685de91e669451fe781ce888bd587f1adee859bfce3910174f800a3f073c3c57151a4a6b4de7cde1a2d97778290dd95f298a68338997815409f636f19ed972c73c04f0c54a516e13c1889c1f635af131d481f665e40f3de404c76f1da8a2ebdf287d3f7323ba4434392d6feb9ef900fc7d31a806fc9b40f91118fd095769b2ecf11c7c9496f3bc2cd2e7c8c38f4a3682d84337dead98613899799e6fc46e6ec5a78177175592d7b45d8a87dba34df18057853ec31052f4a3da5fc34c2300f51b793411075902517670a48ce55d84a779272347f3894ee7b43743b975915850a4c10297ebf15009489f3795efb57b4325cdbf7b474353586e609e75bec7195b0883bdace3e400d069acc5d465b737b7ebe2e221f2821bf426aa723035fad46c23db453f21e1b669769f278e698b09577335399550696257f76030713b7b5af6ffc1102fc69076a916a861b3aa7f8ad9e636a0c6b5217ab515aa89dd14afb8a3061f959dcd79f9da45983947afbc82eb54a91262c5c284baa080c1386ca225deb73d15a033a1f6e4db9e057c386251591ada0512783b85949330003103ade8217a34d1b12ebf8e460a1df15287003c88f1e25090a208bb1de013b51cffeacdc66a6b2ccf7edbfa873493806b5472a59757abc840001afcdb6645e495c8f75082c4455585f64686c7c80889ba3b7c7f3fc09101f232a3f5e5f90a7cfdfeaf5021f243d444550545e7a808fa2bec3fa0b141d3e505d7cb8c3d2dbdeeff40000000000000000000000000000000000001220303e01",
        "004500a3b52d6f798d0c9e3949b0f04ad09d89ea7532f4e3be9e97fdf63972674a4dc5b28b5945c652b161132d9a437bc927a879dcff033644a30e31749ed9b318ad50c425caf99ce244983fb87e2fa38ff60f820a8cad7313cab565ff35428e69cee30671e3ca6029f8d3740616b044f90446b4b85ca927a27e2f0aa45be2d8e0256d7a421691c5bde4e6d556ca60f9441f9ce401618e585b53cd0f0d6e6d35f1533da0c952fb13524568c2fb3c1638ad56a2382d5646389f4229dcf056f93096e211d9be47e721de87adb72fa32f5c8ff33556244e6da5d8640dc7625ab948252a91583551ffe4ce8842c89dcf6d937608ec809fa75c3558be7bf4db9b96ee2132f64096a5a187eafe63a954fdbdc316347cac8eb23e375244beebeebf3ef18f0922fab4c36c05e3ffaf9a446cccc5ea45317e3d2ab1e890dddb519afbc37824d578c19945053aa74240affb556cf5fc4905b0374db2d27bcb33b3f2f400ac8796a1075bbd27c937df2a558357ffaec13a0b7955c44d47317d484775af43dad55a1597a64397e3ad92bdf08c36148247d7e029b015c3ee3c4f8daecc3d33f9fd44b98777acfcb1980b8e8a1b74c3d050010c041630d723770466aea0902724a091f876648597af76fd91dd9e02088fafc4be51b450db62f3c6e86cd99354ae9070944b650a7f211da0022ed02cabfb70dffac96bca1a637f1683f31dd3e8d6e32b02dee1479084883dcb97b019bb0eb64e1a5eecdf7b81c4c2066c549cdfca7e7bf5351e356c5a0b1a21c8ce9c1545e92442160f9c908b10f7fe6a13b3ff2235480e4db010d085fe13a257d0e814bd917507d2d7e50fcac2270f625d41dc3677899d65020814e5dc33de8aa207ee5b75e7c6d5f47e8ac82cbd3397eaeca7f8cbc24476cc25c1bbc0a75ec815ae141ece7c12757d4f7437a4c006713f2a2d250f80192f57a5aeb84370df34e2ebf797eaa04b1bdf7190251fd1fccd73c885a43e8f74ee9da466e17c5225212acefcf36e15724d628e4cde3b185c880786e6dd9cf2ee5ea01e4589fa38b6d0e2ec652ad42dc64d0802cf6790322340f8fb1f440cb197d77911c7fb7b903939ece20d186f914c567d48d60a84305597d2765816a2cbf36ad341d1fb322e1cd0311f774f2b97bfda7c05518a8815793b5fbe172d294d5ae99c41ec57185c5287c6510996ccc22f237def08318e2e8271e81cc260db30dd86f6334ca44f590632b0737a54810c8e15ebcccb3d61fe0d832944621487e55f9a2b14b7df82a845fb84eb1dbf81d36979e35ee8e96168126b4d8c2b95ab5ad8fbb6501a31e3659a05bd77200f3ecf1ddb0582c205bb4375f66f7acb08dbdafd00982e0ec8f8688a783f9f81369e010c1011fc2b5117f766c99f080c7d31e987cf1cdaf8bc43c3dd0abfc67df142876b32885c12800d55f86e3c063a3d7700610f8e0615dd83004aa11094e90c70bd0b5ed526fdef8b84710652c9c556234d19cff5503559a6801d03c7fad5883360d2599cba2755267fa4582ea5a39519dfdc00876b98ee49444c6acd51f6b32ea15c0e0145f6c1ebddd755a72b8636c9d3edd25f10a51d29538182697e863de13a6893e56da5839c0b282327b8b27d830eb6ef9853c21b31e35abb0514ab68dd21de1f3a28f193f8470a1673e3dadbff2a3a724ff0b2525cffd708fd603686da55b2eb88a8164dfe90f549a1073ba7e700d50e26376dd608488e6f56c10b68a6ffb6533290c05f870f3851fef47611d746b5d2daf7f57aaa66e56a9f52f3ef887af7c0ed997b5ba0548c98b49f3e5bf8b33740384db7535fa1c911556eadca7d4bd3b2b0109ac6c7fceb5cbfc903a678"
      ],
      "sequence": 4294967294
    }
  ],
  "vout": [
    {
      "value": 499983.7296,
      "n": 0,
      "scriptPubKey": {
        "asm": "1 a82d39822006f0cdb4b2af775ff68c7caadec728aba9971d51ea61230bb3987f",
        "hex": "5120a82d39822006f0cdb4b2af775ff68c7caadec728aba9971d51ea61230bb3987f",
        "reqSigs": 1,
        "type": "witness_v1_scripthash",
        "addresses": [
          "3QJmnh"
        ]
      }
    },
    {
      "value": 1.0,
      "n": 1,
      "scriptPubKey": {
        "asm": "OP_RETURN f4d275630cd859e6af637e6b9a367bdec46465ead8f55b6fe4f0eed9fa57c6c6 9510c5d2cc69681da7126b137fb9ba5302ab79d4074208557ab85a460a761f09b530e5f2ec49483d87324b335f999a73228b59f4276228755a987a662a563f29d55085928c29285de7522b533ff9fa1342eb3994470248153af81a064a365f49f570a5b2ac09087dc7720b731fd9da3362cb19b4672268351ad83a266a167f69159045524ce9e89d2792eb93ff393ad3822bf95487c288d5fa38dac68af69f8935b065726cc9c8bd07b2cbb3df191af3a20bd974a7e2a8f5da18fae6aad6bfa955d005120ca9a8dd67d2abd3bf797a93c26bb914c782c895ba789a86cab6dfc975f025322c8988fd47f28bf39f595ab3e24b9934e7a2e8b59a58baa6ea96ffe99510c5d2cc69681da7126b137fb9ba5302ab79d4074208557ab85a460a761f09b530e5f2ec49483d87324b335f999a73228b59f4276228755a987a662a563f29d55085928c29285de7522b533ff9fa1342eb3994470248153af81a064a365f49f570a5b2ac09087dc7720b731fd9da3362cb19b4672268351ad83a266a167f69159045524ce9e89d2792eb93ff393ad3822bf95487c288d5fa38dac68af69f8935b065726cc9c8bd07b2cbb3df191af3a20bd974a7e2a8f5da18fae6aad6bfa955d005120ca9a8dd67d2abd3bf797a93c26bb914c782c895ba789a86cab6dfc975f025322c8988fd47f28bf39f595ab3e24b9934e7a2e8b59a58baa6ea96ffe99510c5d2cc69681da7126b137fb9ba5302ab79d4074208557ab85a460a761f09b530e5f2ec49483d87324b335f999a73228b59f4276228755a987a662a563f29d55085928c29285de7522b533ff9fa1342eb3994470248153af81a064a365f49f570a5b2ac09087dc7720b731fd9da3362cb19b4672268351ad83a266a167f69159045524ce9e89d2792eb93ff393ad3822bf95487c288d5fa38dac68af69f8935b065726cc9c8bd07b2cbb3df191af3a20bd974a7e2a8f5da18fae6aad6bfa955d005120ca9a8dd67d2abd3bf797a93c26bb914c782c895ba789a86cab6dfc975f025322c8988fd47f28bf39f595ab3e24b9934e7a2e8b59a58baa6ea96ffe99510c5d2cc69681da7126b137fb9ba5302ab79d4074208557ab85a460a761f09b530e5f2ec49483d87324b335f999a73228b59f4276228755a987a662a563f29d55085928c29285de7522b533ff9fa1342eb3994470248153af81a064a365f49f570a5b2ac09087dc7720b731fd9da3362cb19b4672268351ad83a266a167f69159045524ce9e89d2792eb93ff393ad3822bf95487c288d5fa38dac68af69f8935b065726cc9c8bd07b2cbb3df191af3a20bd974a7e2a8f5da18fae6aad6bfa955d005120ca9a8dd67d2abd3bf797a93c26bb914c782c895ba789a86cab6dfc975f025322c8988fd47f28bf39f595ab3e24b9934e7a2e8b59a58baa6ea96ffe99510c5d2cc69681da7126b137fb9ba5302ab79d4074208557ab85a460a761f09b530e5f2ec49483d87324b335f999a73228b59f4276228755a987a662a563f29d55085928c29285de7522b533ff9fa1342eb3994470248153af81a064a365f49f570a5b2ac09087dc7720b731fd9da3362cb19b4672268351ad83a266a167f69159045524ce9e89d2792eb93ff393ad3e7df87c106713413dc23d1021d8e365767ef1e9874db90e6ad222cd57a56d468",
        "hex": "6a20f4d275630cd859e6af637e6b9a367bdec46465ead8f55b6fe4f0eed9fa57c6c64db0049510c5d2cc69681da7126b137fb9ba5302ab79d4074208557ab85a460a761f09b530e5f2ec49483d87324b335f999a73228b59f4276228755a987a662a563f29d55085928c29285de7522b533ff9fa1342eb3994470248153af81a064a365f49f570a5b2ac09087dc7720b731fd9da3362cb19b4672268351ad83a266a167f69159045524ce9e89d2792eb93ff393ad3822bf95487c288d5fa38dac68af69f8935b065726cc9c8bd07b2cbb3df191af3a20bd974a7e2a8f5da18fae6aad6bfa955d005120ca9a8dd67d2abd3bf797a93c26bb914c782c895ba789a86cab6dfc975f025322c8988fd47f28bf39f595ab3e24b9934e7a2e8b59a58baa6ea96ffe99510c5d2cc69681da7126b137fb9ba5302ab79d4074208557ab85a460a761f09b530e5f2ec49483d87324b335f999a73228b59f4276228755a987a662a563f29d55085928c29285de7522b533ff9fa1342eb3994470248153af81a064a365f49f570a5b2ac09087dc7720b731fd9da3362cb19b4672268351ad83a266a167f69159045524ce9e89d2792eb93ff393ad3822bf95487c288d5fa38dac68af69f8935b065726cc9c8bd07b2cbb3df191af3a20bd974a7e2a8f5da18fae6aad6bfa955d005120ca9a8dd67d2abd3bf797a93c26bb914c782c895ba789a86cab6dfc975f025322c8988fd47f28bf39f595ab3e24b9934e7a2e8b59a58baa6ea96ffe99510c5d2cc69681da7126b137fb9ba5302ab79d4074208557ab85a460a761f09b530e5f2ec49483d87324b335f999a73228b59f4276228755a987a662a563f29d55085928c29285de7522b533ff9fa1342eb3994470248153af81a064a365f49f570a5b2ac09087dc7720b731fd9da3362cb19b4672268351ad83a266a167f69159045524ce9e89d2792eb93ff393ad3822bf95487c288d5fa38dac68af69f8935b065726cc9c8bd07b2cbb3df191af3a20bd974a7e2a8f5da18fae6aad6bfa955d005120ca9a8dd67d2abd3bf797a93c26bb914c782c895ba789a86cab6dfc975f025322c8988fd47f28bf39f595ab3e24b9934e7a2e8b59a58baa6ea96ffe99510c5d2cc69681da7126b137fb9ba5302ab79d4074208557ab85a460a761f09b530e5f2ec49483d87324b335f999a73228b59f4276228755a987a662a563f29d55085928c29285de7522b533ff9fa1342eb3994470248153af81a064a365f49f570a5b2ac09087dc7720b731fd9da3362cb19b4672268351ad83a266a167f69159045524ce9e89d2792eb93ff393ad3822bf95487c288d5fa38dac68af69f8935b065726cc9c8bd07b2cbb3df191af3a20bd974a7e2a8f5da18fae6aad6bfa955d005120ca9a8dd67d2abd3bf797a93c26bb914c782c895ba789a86cab6dfc975f025322c8988fd47f28bf39f595ab3e24b9934e7a2e8b59a58baa6ea96ffe99510c5d2cc69681da7126b137fb9ba5302ab79d4074208557ab85a460a761f09b530e5f2ec49483d87324b335f999a73228b59f4276228755a987a662a563f29d55085928c29285de7522b533ff9fa1342eb3994470248153af81a064a365f49f570a5b2ac09087dc7720b731fd9da3362cb19b4672268351ad83a266a167f69159045524ce9e89d2792eb93ff393ad3e7df87c106713413dc23d1021d8e365767ef1e9874db90e6ad222cd57a56d468",
        "type": "nulldata"
      }
    }
  ],
  "blockhash": "d7a7b9a6fa9b7eeca4ed3b292cd4c21f070551bfab2aaeca0619c41458c07723",
  "confirmations": 1,
  "time": 1764178593,
  "blocktime": 1764178593
}