{
  "hex": "01000000000101aca84d01e820fc53269e87d8d61a0698ac0339d4d5dd64425ea74953b7c8f42b0000000000feffffff0200e1f50500000000fdd5046a20e20f7d6bde37f63f1c6d1052df84b3279591048086c19fed51e24f4d123f59734db00472e4e63460eb7a3be74f43e0a806705705acccd877003816951d8e7cc17069a352c4c61440cb5a1bc76f63c088265077258cecf857201836b53dae5ce150498332a4a67420ab3a7ba70f03a0e846301745ec8c9837407856d55dce3c813029e312848654008b1a5b872f2380c866103765ccacb817605876f57dee1ca11009c3f26466b4e06bfabb67cfc3602886f0d7852c4c58f780b896159d0efc41f0e923d2444694c04bda9b47efe34008a6d0f7a50c6c78d7a098b635bd2edc61d0c903b22426f4a02bbafb278f832068c6b097c56c0c18b7c0f8d655dd4ebc01b0a963920406d4800b9adb07afa30048e690b7e54c2c3897e0d8f675fd6e9c2190894372e4e63460eb7a3be74f43e0a806705705acccd877003816951d8e7cc17069a352c4c61440cb5a1bc76f63c088265077258cecf857201836b53dae5ce150498332a4a67420ab3a7ba70f03a0e846301745ec8c9837407856d55dce3c813029e312848654008b1a5b872f2380c866103765ccacb817605876f57dee1ca11009c3f26466b4e06bfabb67cfc3602886f0d7852c4c58f780b896159d0efc41f0e923d2444694c04bda9b47efe34008a6d0f7a50c6c78d7a098b635bd2edc61d0c903b22426f4a02bbafb278f832068c6b097c56c0c18b7c0f8d655dd4ebc01b0a963920406d4800b9adb07afa30048e690b7e54c2c3897e0d8f675fd6e9c2190894372e4e63460eb7a3be74f43e0a806705705acccd877003816951d8e7cc17069a352c4c61440cb5a1bc76f63c088265077258cecf857201836b53dae5ce150498332a4a67420ab3a7ba70f03a0e846301745ec8c9837407856d55dce3c813029e312848654008b1a5b872f2380c866103765ccacb817605876f57dee1ca11009c3f26466b4e06bfabb67cfc3602886f0d7852c4c58f780b896159d0efc41f0e923d2444694c04bda9b47efe34008a6d0f7a50c6c78d7a098b635bd2edc61d0c903b22426f4a02bbafb278f832068c6b097c56c0c18b7c0f8d655dd4ebc01b0a963920406d4800b9adb07afa30048e690b7e54c2c3897e0d8f675fd6e9c2190894372e4e63460eb7a3be74f43e0a806705705acccd877003816951d8e7cc17069a352c4c61440cb5a1bc76f63c088265077258cecf857201836b53dae5ce150498332a4a67420ab3a7ba70f03a0e846301745ec8c9837407856d55dce3c813029e312848654008b1a5b872f2380c866103765ccacb817605876f57dee1ca11009c3f26466b4e06bfabb67cfc3602886f0d7852c4c58f780b896159d0efc41f0e923d2444694c04bda9b47efe34008a6d0f7a50c6c78d7a098b635bd2edc61d0c903b22426f4a02bbafb278f832068c6b097c56c0c18b7c0f8d655dd4ebc01b0a963920406d4800b9adb07afa30048e690b7e54c2c3897e0d8f675fd6e9c2190894372e4e63460eb7a3be74f43e0a806705705acccd877003816951d8e7cc17069a352c4c61440cb5a1bc76f63c088265077258cecf857201836b53dae5ce150498332a4a67420ab3a7ba70f03a0e846301745ec8c9837407856d55dce3c813029e312848654008b1a5b872f2380c866103765ccacb817605876f57dee1ca11009c3f26466b4e06bfabb67cfc3602886f0d7013294c3bf54f8d1ccaeccaa3a15cb7b8a35d0409d844aa0c954fba87f4a5a3d202367d2782d0000225120b2689d15da28bbe712c134c9542eae3a235747a7c956e7b1fee890cdf9e83c4e02fd7509545eb89936bbff172532c1c3daa08a27fe8b1fdaa86991e7f4523db1794c32e273fe1b2ad81acfb63685a8982ff2739e2f0b554f7d4ff72d84b87ac4f1833fb5030a7706372aa93ae7652a3bebc0361973eeab8e114c66aa2e8e8b5e1b99d752b4749df4955a0afedff5385f45c6884e658c63ddcb2e7826fa64c12851c672fe96f7cec2dd1095e095cdd62cc08b3cb19b530fd3b8056357fb62e86cf0491f458fc9cbba3232c18cce180fc6e4a6bf4ec8bb474e2f4ed088e962c7c1ecd10fc94d09ede905fcd9bc73530f57da7b8062a109aa1ed024c1cb80d7d8de0746df343d6f188e68c98855f92fed4516acc673b8cab5d9305e34d4931c47190cd709ade1f093ac8e51917c54d543ee54195ea689505f385ca4e7a672187ad59efba1556e6d5fa19b34c63235e9b04534fe24d90a5c4e2467e1a919105ef3d23c1e161ccb7c47d4e0e1062924497247286ef29d071dc055c14732aaaa22a4538dafd5602c859e3f656799950b7c80598429b18d3fe00750ae817094a880defbcade5f1450fd45c6cce786ffb7770a7651ffa60761e43a45ac5a612174656de3442cc2b16ed899b835bb4fa36164b4f5a0b378a9cffe5c3e50e85ca4e5ed56840bc1549e06d72a328197518335839d97fda35845aa369ff57bfa4593cb27b3ff0fa542125949d9631cdfce4ed0bcaa23513c8b6cfb5585ddb9dff086a59f160b6c50aa6bb621156f5b1e0087b7573f023242a912e63f26d0dd270a893e8817a981a31641fdc58892c343219e8916cfcc6d1165cf4886b66c60da64c19af00609d866d0321a0ea02832e20220dfca2b1b86652e7bd85735737802b71637eb3e96b741c7d8a1a916624f9606deb1d0a7e33cdffdaafd5407f32a6512ba808dfa039d772c70117c420d4523bb01032a809c269342b0f24269a87bb1a8b827f06a8db2c1faf12022b01316d29d80d8c84247aaa156ffe2e44b95475938b78d20ab1d966edc6fab8a18f6405e2407b65d8467bd75e90e825ea9710a9074838ba6cca9d33a59090256c5a1bb4214f3ae22ce468aaeb25c10713725c0e7511d356edd7c5e876a372145fdae121914264d926ffa02cfb031e935ec3e5c69dad620198d9099f166fcbfe8c78a2b7a0f389f40a466ea90ae6f1af65f853f5d0ef1bf2887cb875f5787d8253da421978491375bdf58ba877d6069db2c1b7a2e309fb510f3d6b40ba2c200a5937e0dfb972cf19d320654ec31d31bb9741d33b7842e830e77f306b9d75c32f065ce0b78c3cd2d98801b573b66d12eee2b6c82599ea81189782c2fa775292e037f1c8d65f6339ecaee0a0505a1988df3200780d90f4a5696f4fe036425d5b4fe36dfc94b74c22a56125849224e1816aa0f77fa2d4e23d07dd890fa67224063bbd6f97d5ba316d8d1b9f3876851fd1945cd0e8f94ab20dad3ab6abbbe5d10136130edb583e8b18929c257286154e81f4ce5e1abd6b41a98d52e5e04717beb4c8c09eaf263921cfc13f0e751167bf26a366ef867b6842816218c54b21f09e877c13c791bd0f3972b8b0ffe9dd5e92bcdec7be9718d34b8d28a91411efe4670a59e0fa935875279cef88e3bc9a9c99b23d93d3204ff0c24c3d2986938af33205952244758947b6e053d4b14d34f32410c311d936855771e8d707ed5fde18c83a66aa8a752e1c4da859fec315c15e71c5bff3dbac3e4562f60dcd354e4f00c2a874da42e9171dbda24e406abcd900fa72e2dfec9eff13463e751db8f11632c3dc31e0b83cdcd7a75839e68051539fcaf85021a0874b7919349ddd51382bfd1aceb95daae949abed2a3b54a2b4ca9d6466495015d66708e2d2c780e735438c554804fe6eaaf4695e1febbeeb8f1e722e99394e0b51857d2b8ce3a2efaa9861123c5444810587c39f8c549679e66df307938e01de36959cbd8dd5db55dd4e339c49daf68ad4e39c5903d033cf5824a0440f2bef02933b3e3504aab8f0f7e271e38f5eea771d40a6fe2f61dd1d435c1e7a12e516e3f9fb4aeecb05c235ee9db31a848d50479bd8b92a887cc3d842e8dc73066dbc5b288965ed36fa7fbfaaab83810ac56c9ad9ad8d662c0d2b7e32ddaf3069d69b4446f637e842da4ca2f186b288b938ed17973b5d07f89205128be4beb7c455bef4cc0e0021aabe004ba7d62cbe1e7e426cf3a87a3d81f1032731d10a42a1ad107795558ff340bedfd61e2df12760501c80568f87f39c63be6671809546457e668e2198e74197045ec126c120594d122cc63b9ef68020cd71a8269e0495233bbd196c6acddd1f3390562d61bd1e1acfefcc60642a9ddc76bde7ef188ff2da29b6599a29b4a822b457a4a0d16c856f80fe9793946983dc0181cd5d21e9f1dc5a5ca3fbdd0beba508cc14fe8123638a61f62de26507d4aea218f9e25d0ac688a996910601a0428fb85a5462f31e4bed3fd5226dcf92f8802f7b528ee48f823d8700db9b45cb678fb4d366053b7b3e0a2b037b7174c51efc39c263fa249fd800a95823cc3901ed7767442a23be67c0e75555a412ae09d317b7b21bd1775bb254a980e601625f1de70c8dc11b004ae07d480be1531d55c2977806d0f40111d99f819928d8a9f422406f79e7c2c87f3334f6cc93e55cc84a71b6e61bfd784d4d2d8029af92de769ab1028293b461d75c3f3ffd693abc720a4e46534a4bfee6e530de52ac919f81418f420ac629779a54d8eee03dae2432798c630dec65eef545a4ba70f6116ac0c4451424bbf00776f518ad8d9d0d66bff7f77b309d16d2cea55060ff1bda0a418eefa1852d03a41b12c8413e20888fea242f84358cea1804bd3d2d435033101592c9d39011c4b81564e244445642a90dba868996971664a3516cbd541598ad4abfe6f096c92d4d73ee1e7e23e16bfbdda0943e2676a34d58e0fd1c8610f717683b1b18b4cb390ec3854c906346ff74986d9fd4f45d9b4f97b08148d8b57fad46db6db724c629ff4c8dd2d3d4de864b7fef47e1bb5a2c043bae33ef492dc1852b95a4e5acf633bc655e24b4e353c051b3bd5d66ac2bf29f7ba010c5069dd4b55e4906b63a9902620426bbf5800e2a7475b27ff76c9ea5eaa6a8f023d105dd43040211f90557c57d8fd0b1f55d6c37e84a922a329ff55dc69842d2e401b97a8e79ce2cb9157f31364e25dcf0efe8275cf29bf09c5ca0764e8da0b99e67f296734b0d2bdd33371c2d7fad40d92b9f4738633692654c94f0c0257c1f081b23018416ec5bf38b50b419f35b06eeee8f78212511c64aa87b0504ed38811ecc4534a7990dfa7041c3eeb0bde0c0c3b48585b5d8c98d3d6daed2c38484958696a9ed31c212c353e484f55575a5b6b6f7880868a8b92a0a3a8a9b7d4d7e4f4041b3652535c70979eb9ccced2d8f2000000000000000000000000000000000c15314001fd210500b2acc02dd940bdd2a5443e850842848cf5829491ed611de0dded0fc0eeefbef9b7eda84da4cbe444a4e5914eabb409fb2968b068a68fc083a88e8f36549fa8dc098030160cd220e00e14d732e5fbab1c14b12b1de3f991f307ded674c6e14de98a38cc9babdda08f5b9941e78e363789e03f7293e588ae8164c7c75970b217a5c87b13b7757142a45c3b5e9bca02d8d0243949262d1521baa942ec873342cf6804bfa7ed8c122efc045fc025a5600206cbfd364fd5b84aff429fe881999ffbe930ac0929e081803814cd7234070d9af77521435873c65ff3c51cd39bc3e45d38660e7de1adbf92dc0e8e6b2bc1579fa8b2c8bfe1833741e0022c6cf68894b63f232bb3376875a8c0186ef12a7356b93ae0b48e8a82adb722184a1cb62183d96982c7ea9524e5f02e0b249172d58ebc67ed219bfc63da5300975aca02db4a2858f0d139af64a19f96ef76aead603263b1f665f34eefc3b8cad3de51565f6dd07ee7773ca02afc1f03c483a82c527aec24f6ba358ebd4c53e653b10b84586dccb7c9a04959aa8d7a33bae08c948a30e732286b4cf49f0ddb84fe94288cf7303b622435032f6fd3fd9c99f968b9c8cf39452ea498a1765aa7635e256e553ccaad942ac83c0711b7501bdeb64ecc29280b15a873291cab3321aa92edbacce884da43d014522fe4ccfdee808ce12735838cd157d81d8f6aa1e8055255898367300e58124ba1ad855aafcf6bc6f79446283136dc50bf9ad9d036639d86202fc37fe8ad3805f3621973d17a468afe65d5f5b7f71cb176fa895c25f67ca2f20ad99b7fed09f11051206560c26ca4ff02c17f9dda18f2984d96aed824391b1eec8aaf825ede50860f3a687857bf5c8a92f5f40268adc98b137e2026c4eebe923928c3ddda8f99e8bfa21daa287a71b846289a09691062485f95f1439af46bba3d99e53773697b425a2976ae64a5924d27bc09dc8397aba936b0e4b78696729b518c003e86294d169c8d6d35b1af71412dca48b386667cdd1663ea95e3d05886bd73ccb67f424cce3d00e1735af6ba308acb2ee67186d0a5dfb3afa837e0723aaf84596e40bcb3100bf78c0c58095b9e8f1580c6cc5f5995b159c44af393a14569b4581ace1306e20fa091fde0b407872835959373c03d6c94c0a9905907df0fb4d37d9314b02a73b802abb49df69d74004834c930c73054acafaf4f411bd5aa991b76326b5f4464baab1bb55fd1ad006f0b9d3f90de484096b6a32f2355a65d4ed795d7f8a0fb46a027431de6f4b67df7bbf3daf774ce16b8d03cf4ce702c1216ee156f4cbc870d60314b4419984893f087138c9aae36936b5deda49a161da43a6c3e322ddd6cabcf7a0cad762b1d103d5ebf74bb90523fc1573c936c1cc28f6810b18c3bb07291d4c7940b8130ac069cd5eba62e9460934ffb5a1171c6f25c2e769fabd82058d8c2f654fc5f9d61662c474901c26d0768ba60ca90d661789d01ede9a825ec39c688d9c99f07b1f9fd1e0c470871de486d17eece2daa0f44c44f4ab3e1aa644337dc20d38531fd1c81dad2838ea5f3514c3e68835120e6774044497712b59aa610b3b5faf9b8a25b08cec989dfd41b08819200f51b6569bf01456fe2ee25bebb6152c4a5362437ed3ce1c0e204c3eddebace9c4e2a370df33c8e7bfa999667a7004d3f093f89ea153a6cf169d3f717ce0f1ee7d9e35fabf357c9e8af48e2cd5c5246af2a13610cd0b9b294373a4ab7ac2728c1f6458be13610f091d50a464d427abf4e14f4f48b280fb1149fd7a0888038c7afbd60d898b951a7a7853da35482d222b6639c2b8bb667899bc40e137e3e83d316e8675c0873383a190209cc80000000",
  "txid": "f399daf806ec54438c70e4fbeac84005ad67f324d4a116603aef6e8ec6e441e4",
  "hash": "ad8c18d226fd79f4388983d196084e31b01b4fb973326d3b13dcbfc4902be2ad",
  "size": 5085,
  "vsize": 2278,
  "version": 1,
  "locktime": 128,
  "vin": [
    {
      "txid": "2bf4c8b75349a75e4264ddd5d43903ac98061ad6d8879e2653fc20e8014da8ac",
      "vout": 0,
      "scriptSig": {
        "asm": "",
        "hex": ""
      },
      "txinwitness": [
        "545eb89936bbff172532c1c3daa08a27fe8b1fdaa86991e7f4523db1794c32e273fe1b2ad81acfb63685a8982ff2739e2f0b554f7d4ff72d84b87ac4f1833fb5030a7706372aa93ae7652a3bebc0361973eeab8e114c66aa2e8e8b5e1b99d752b4749df4955a0afedff5385f45c6884e658c63ddcb2e7826fa64c12851c672fe96f7cec2dd1095e095cdd62cc08b3cb19b530fd3b8056357fb62e86cf0491f458fc9cbba3232c18cce180fc6e4a6bf4ec8bb474e2f4ed088e962c7c1ecd10fc94d09ede905fcd9bc73530f57da7b8062a109aa1ed024c1cb80d7d8de0746df343d6f188e68c98855f92fed4516acc673b8cab5d9305e34d4931c47190cd709ade1f093ac8e51917c54d543ee54195ea689505f385ca4e7a672187ad59efba1556e6d5fa19b34c63235e9b04534fe24d90a5c4e2467e1a919105ef3d23c1e161ccb7c47d4e0e1062924497247286ef29d071dc055c14732aaaa22a4538dafd5602c859e3f656799950b7c80598429b18d3fe00750ae817094a880defbcade5f1450fd45c6cce786ffb7770a7651ffa60761e43a45ac5a612174656de3442cc2b16ed899b835bb4fa36164b4f5a0b378a9cffe5c3e50e85ca4e5ed56840bc1549e06d72a328197518335839d97fda35845aa369ff57bfa4593cb27b3ff0fa542125949d9631cdfce4ed0bcaa23513c8b6cfb5585ddb9dff086a59f160b6c50aa6bb621156f5b1e0087b7573f023242a912e63f26d0dd270a893e8817a981a31641fdc58892c343219e8916cfcc6d1165cf4886b66c60da64c19af00609d866d0321a0ea02832e20220dfca2b1b86652e7bd85735737802b71637eb3e96b741c7d8a1a916624f9606deb1d0a7e33cdffdaafd5407f32a6512ba808dfa039d772c70117c420d4523bb01032a809c269342b0f24269a87bb1a8b827f06a8db2c1faf12022b01316d29d80d8c84247aaa156ffe2e44b95475938b78d20ab1d966edc6fab8a18f6405e2407b65d8467bd75e90e825ea9710a9074838ba6cca9d33a59090256c5a1bb4214f3ae22ce468aaeb25c10713725c0e7511d356edd7c5e876a372145fdae121914264d926ffa02cfb031e935ec3e5c69dad620198d9099f166fcbfe8c78a2b7a0f389f40a466ea90ae6f1af65f853f5d0ef1bf2887cb875f5787d8253da421978491375bdf58ba877d6069db2c1b7a2e309fb510f3d6b40ba2c200a5937e0dfb972cf19d320654ec31d31bb9741d33b7842e830e77f306b9d75c32f065ce0b78c3cd2d98801b573b66d12eee2b6c82599ea81189782c2fa775292e037f1c8d65f6339ecaee0a0505a1988df3200780d90f4a5696f4fe036425d5b4fe36dfc94b74c22a56125849224e1816aa0f77fa2d4e23d07dd890fa67224063bbd6f97d5ba316d8d1b9f3876851fd1945cd0e8f94ab20dad3ab6abbbe5d10136130edb583e8b18929c257286154e81f4ce5e1abd6b41a98d52e5e04717beb4c8c09eaf263921cfc13f0e751167bf26a366ef867b6842816218c54b21f09e877c13c791bd0f3972b8b0ffe9dd5e92bcdec7be9718d34b8d28a91411efe4670a59e0fa935875279cef88e3bc9a9c99b23d93d3204ff0c24c3d2986938af33205952244758947b6e053d4b14d34f32410c311d936855771e8d707ed5fde18c83a66aa8a752e1c4da859fec315c15e71c5bff3dbac3e4562f60dcd354e4f00c2a874da42e9171dbda24e406abcd900fa72e2dfec9eff13463e751db8f11632c3dc31e0b83cdcd7a75839e68051539fcaf85021a0874b7919349ddd51382bfd1aceb95daae949abed2a3b54a2b4ca9d6466495015d66708e2d2c780e735438c554804fe6eaaf4695e1febbeeb8f1e722e99394e0b51857d2b8ce3a2efaa9861123c5444810587c39f8c549679e66df307938e01de36959cbd8dd5db55dd4e339c49daf68ad4e39c5903d033cf5824a0440f2bef02933b3e3504aab8f0f7e271e38f5eea771d40a6fe2f61dd1d435c1e7a12e516e3f9fb4aeecb05c235ee9db31a848d50479bd8b92a887cc3d842e8dc73066dbc5b288965ed36fa7fbfaaab83810ac56c9ad9ad8d662c0d2b7e32ddaf3069d69b4446f637e842da4ca2f186b288b938ed17973b5d07f89205128be4beb7c455bef4cc0e0021aabe004ba7d62cbe1e7e426cf3a87a3d81f1032731d10a42a1ad107795558ff340bedfd61e2df12760501c80568f87f39c63be6671809546457e668e2198e74197045ec126c120594d122cc63b9ef68020cd71a8269e0495233bbd196c6acddd1f3390562d61bd1e1acfefcc60642a9ddc76bde7ef188ff2da29b6599a29b4a822b457a4a0d16c856f80fe9793946983dc0181cd5d21e9f1dc5a5ca3fbdd0beba508cc14fe8123638a61f62de26507d4aea218f9e25d0ac688a996910601a0428fb85a5462f31e4bed3fd5226dcf92f8802f7b528ee48f823d8700db9b45cb678fb4d366053b7b3e0a2b037b7174c51efc39c263fa249fd800a95823cc3901ed7767442a23be67c0e75555a412ae09d317b7b21bd1775bb254a980e601625f1de70c8dc11b004ae07d480be1531d55c2977806d0f40111d99f819928d8a9f422406f79e7c2c87f3334f6cc93e55cc84a71b6e61bfd784d4d2d8029af92de769ab1028293b461d75c3f3ffd693abc720a4e46534a4bfee6e530de52ac919f81418f420ac629779a54d8eee03dae2432798c630dec65eef545a4ba70f6116ac0c4451424bbf00776f518ad8d9d0d66bff7f77b309d16d2cea55060ff1bda0a418eefa1852d03a41b12c8413e20888fea242f84358cea1804bd3d2d435033101592c9d39011c4b81564e244445642a90dba868996971664a3516cbd541598ad4abfe6f096c92d4d73ee1e7e23e16bfbdda0943e2676a34d58e0fd1c8610f717683b1b18b4cb390ec3854c906346ff74986d9fd4f45d9b4f97b08148d8b57fad46db6db724c629ff4c8dd2d3d4de864b7fef47e1bb5a2c043bae33ef492dc1852b95a4e5acf633bc655e24b4e353c051b3bd5d66ac2bf29f7ba010c5069dd4b55e4906b63a9902620426bbf5800e2a7475b27ff76c9ea5eaa6a8f023d105dd43040211f90557c57d8fd0b1f55d6c37e84a922a329ff55dc69842d2e401b97a8e79ce2cb9157f31364e25dcf0efe8275cf29bf09c5ca0764e8da0b99e67f296734b0d2bdd33371c2d7fad40d92b9f4738633692654c94f0c0257c1f081b23018416ec5bf38b50b419f35b06eeee8f78212511c64aa87b0504ed38811ecc4534a7990dfa7041c3eeb0bde0c0c3b48585b5d8c98d3d6daed2c38484958696a9ed31c212c353e484f55575a5b6b6f7880868a8b92a0a3a8a9b7d4d7e4f4041b3652535c70979eb9ccced2d8f2000000000000000000000000000000000c15314001",
        "00b2acc02dd940bdd2a5443e850842848cf5829491ed611de0dded0fc0eeefbef9b7eda84da4cbe444a4e5914eabb409fb2968b068a68fc083a88e8f36549fa8dc098030160cd220e00e14d732e5fbab1c14b12b1de3f991f307ded674c6e14de98a38cc9babdda08f5b9941e78e363789e03f7293e588ae8164c7c75970b217a5c87b13b7757142a45c3b5e9bca02d8d0243949262d1521baa942ec873342cf6804bfa7ed8c122efc045fc025a5600206cbfd364fd5b84aff429fe881999ffbe930ac0929e081803814cd7234070d9af77521435873c65ff3c51cd39bc3e45d38660e7de1adbf92dc0e8e6b2bc1579fa8b2c8bfe1833741e0022c6cf68894b63f232bb3376875a8c0186ef12a7356b93ae0b48e8a82adb722184a1cb62183d96982c7ea9524e5f02e0b249172d58ebc67ed219bfc63da5300975aca02db4a2858f0d139af64a19f96ef76aead603263b1f665f34eefc3b8cad3de51565f6dd07ee7773ca02afc1f03c483a82c527aec24f6ba358ebd4c53e653b10b84586dccb7c9a04959aa8d7a33bae08c948a30e732286b4cf49f0ddb84fe94288cf7303b622435032f6fd3fd9c99f968b9c8cf39452ea498a1765aa7635e256e553ccaad942ac83c0711b7501bdeb64ecc29280b15a873291cab3321aa92edbacce884da43d014522fe4ccfdee808ce12735838cd157d81d8f6aa1e8055255898367300e58124ba1ad855aafcf6bc6f79446283136dc50bf9ad9d036639d86202fc37fe8ad3805f3621973d17a468afe65d5f5b7f71cb176fa895c25f67ca2f20ad99b7fed09f11051206560c26ca4ff02c17f9dda18f2984d96aed824391b1eec8aaf825ede50860f3a687857bf5c8a92f5f40268adc98b137e2026c4eebe923928c3ddda8f99e8bfa21daa287a71b846289a09691062485f95f1439af46bba3d99e53773697b425a2976ae64a5924d27bc09dc8397aba936b0e4b78696729b518c003e86294d169c8d6d35b1af71412dca48b386667cdd1663ea95e3d05886bd73ccb67f424cce3d00e1735af6ba308acb2ee67186d0a5dfb3afa837e0723aaf84596e40bcb3100bf78c0c58095b9e8f1580c6cc5f5995b159c44af393a14569b4581ace1306e20fa091fde0b407872835959373c03d6c94c0a9905907df0fb4d37d9314b02a73b802abb49df69d74004834c930c73054acafaf4f411bd5aa991b76326b5f4464baab1bb55fd1ad006f0b9d3f90de484096b6a32f2355a65d4ed795d7f8a0fb46a027431de6f4b67df7bbf3daf774ce16b8d03cf4ce702c1216ee156f4cbc870d60314b4419984893f087138c9aae36936b5deda49a161da43a6c3e322ddd6cabcf7a0cad762b1d103d5ebf74bb90523fc1573c936c1cc28f6810b18c3bb07291d4c7940b8130ac069cd5eba62e9460934ffb5a1171c6f25c2e769fabd82058d8c2f654fc5f9d61662c474901c26d0768ba60ca90d661789d01ede9a825ec39c688d9c99f07b1f9fd1e0c470871de486d17eece2daa0f44c44f4ab3e1aa644337dc20d38531fd1c81dad2838ea5f3514c3e68835120e6774044497712b59aa610b3b5faf9b8a25b08cec989dfd41b08819200f51b6569bf01456fe2ee25bebb6152c4a5362437ed3ce1c0e204c3eddebace9c4e2a370df33c8e7bfa999667a7004d3f093f89ea153a6cf169d3f717ce0f1ee7d9e35fabf357c9e8af48e2cd5c5246af2a13610cd0b9b294373a4ab7ac2728c1f6458be13610f091d50a464d427abf4e14f4f48b280fb1149fd7a0888038c7afbd60d898b951a7a7853da35482d222b6639c2b8bb667899bc40e137e3e83d316e8675c0873383a190209cc"
      ],
      "sequence": 4294967294
    }
  ],
  "vout": [
    {
      "value": 1.0,
      "n": 0,
      "scriptPubKey": {
        "asm": "OP_RETURN e20f7d6bde37f63f1c6d1052df84b3279591048086c19fed51e24f4d123f5973 72e4e63460eb7a3be74f43e0a806705705acccd877003816951d8e7cc17069a352c4c61440cb5a1bc76f63c088265077258cecf857201836b53dae5ce150498332a4a67420ab3a7ba70f03a0e846301745ec8c9837407856d55dce3c813029e312848654008b1a5b872f2380c866103765ccacb817605876f57dee1ca11009c3f26466b4e06bfabb67cfc3602886f0d7852c4c58f780b896159d0efc41f0e923d2444694c04bda9b47efe34008a6d0f7a50c6c78d7a098b635bd2edc61d0c903b22426f4a02bbafb278f832068c6b097c56c0c18b7c0f8d655dd4ebc01b0a963920406d4800b9adb07afa30048e690b7e54c2c3897e0d8f675fd6e9c2190894372e4e63460eb7a3be74f43e0a806705705acccd877003816951d8e7cc17069a352c4c61440cb5a1bc76f63c088265077258cecf857201836b53dae5ce150498332a4a67420ab3a7ba70f03a0e846301745ec8c9837407856d55dce3c813029e312848654008b1a5b872f2380c866103765ccacb817605876f57dee1ca11009c3f26466b4e06bfabb67cfc3602886f0d7852c4c58f780b896159d0efc41f0e923d2444694c04bda9b47efe34008a6d0f7a50c6c78d7a098b635bd2edc61d0c903b22426f4a02bbafb278f832068c6b097c56c0c18b7c0f8d655dd4ebc01b0a963920406d4800b9adb07afa30048e690b7e54c2c3897e0d8f675fd6e9c2190894372e4e63460eb7a3be74f43e0a806705705acccd877003816951d8e7cc17069a352c4c61440cb5a1bc76f63c088265077258cecf857201836b53dae5ce150498332a4a67420ab3a7ba70f03a0e846301745ec8c9837407856d55dce3c813029e312848654008b1a5b872f2380c866103765ccacb817605876f57dee1ca11009c3f26466b4e06bfabb67cfc3602886f0d7852c4c58f780b896159d0efc41f0e923d2444694c04bda9b47efe34008a6d0f7a50c6c78d7a098b635bd2edc61d0c903b22426f4a02bbafb278f832068c6b097c56c0c18b7c0f8d655dd4ebc01b0a963920406d4800b9adb07afa30048e690b7e54c2c3897e0d8f675fd6e9c2190894372e4e63460eb7a3be74f43e0a806705705acccd877003816951d8e7cc17069a352c4c61440cb5a1bc76f63c088265077258cecf857201836b53dae5ce150498332a4a67420ab3a7ba70f03a0e846301745ec8c9837407856d55dce3c813029e312848654008b1a5b872f2380c866103765ccacb817605876f57dee1ca11009c3f26466b4e06bfabb67cfc3602886f0d7852c4c58f780b896159d0efc41f0e923d2444694c04bda9b47efe34008a6d0f7a50c6c78d7a098b635bd2edc61d0c903b22426f4a02bbafb278f832068c6b097c56c0c18b7c0f8d655dd4ebc01b0a963920406d4800b9adb07afa30048e690b7e54c2c3897e0d8f675fd6e9c2190894372e4e63460eb7a3be74f43e0a806705705acccd877003816951d8e7cc17069a352c4c61440cb5a1bc76f63c088265077258cecf857201836b53dae5ce150498332a4a67420ab3a7ba70f03a0e846301745ec8c9837407856d55dce3c813029e312848654008b1a5b872f2380c866103765ccacb817605876f57dee1ca11009c3f26466b4e06bfabb67cfc3602886f0d7013294c3bf54f8d1ccaeccaa3a15cb7b8a35d0409d844aa0c954fba87f4a5a3d",
        "hex": "6a20e20f7d6bde37f63f1c6d1052df84b3279591048086c19fed51e24f4d123f59734db00472e4e63460eb7a3be74f43e0a806705705acccd877003816951d8e7cc17069a352c4c61440cb5a1bc76f63c088265077258cecf857201836b53dae5ce150498332a4a67420ab3a7ba70f03a0e846301745ec8c9837407856d55dce3c813029e312848654008b1a5b872f2380c866103765ccacb817605876f57dee1ca11009c3f26466b4e06bfabb67cfc3602886f0d7852c4c58f780b896159d0efc41f0e923d2444694c04bda9b47efe34008a6d0f7a50c6c78d7a098b635bd2edc61d0c903b22426f4a02bbafb278f832068c6b097c56c0c18b7c0f8d655dd4ebc01b0a963920406d4800b9adb07afa30048e690b7e54c2c3897e0d8f675fd6e9c2190894372e4e63460eb7a3be74f43e0a806705705acccd877003816951d8e7cc17069a352c4c61440cb5a1bc76f63c088265077258cecf857201836b53dae5ce150498332a4a67420ab3a7ba70f03a0e846301745ec8c9837407856d55dce3c813029e312848654008b1a5b872f2380c866103765ccacb817605876f57dee1ca11009c3f26466b4e06bfabb67cfc3602886f0d7852c4c58f780b896159d0efc41f0e923d2444694c04bda9b47efe34008a6d0f7a50c6c78d7a098b635bd2edc61d0c903b22426f4a02bbafb278f832068c6b097c56c0c18b7c0f8d655dd4ebc01b0a963920406d4800b9adb07afa30048e690b7e54c2c3897e0d8f675fd6e9c2190894372e4e63460eb7a3be74f43e0a806705705acccd877003816951d8e7cc17069a352c4c61440cb5a1bc76f63c088265077258cecf857201836b53dae5ce150498332a4a67420ab3a7ba70f03a0e846301745ec8c9837407856d55dce3c813029e312848654008b1a5b872f2380c866103765ccacb817605876f57dee1ca11009c3f26466b4e06bfabb67cfc3602886f0d7852c4c58f780b896159d0efc41f0e923d2444694c04bda9b47efe34008a6d0f7a50c6c78d7a098b635bd2edc61d0c903b22426f4a02bbafb278f832068c6b097c56c0c18b7c0f8d655dd4ebc01b0a963920406d4800b9adb07afa30048e690b7e54c2c3897e0d8f675fd6e9c2190894372e4e63460eb7a3be74f43e0a806705705acccd877003816951d8e7cc17069a352c4c61440cb5a1bc76f63c088265077258cecf857201836b53dae5ce150498332a4a67420ab3a7ba70f03a0e846301745ec8c9837407856d55dce3c813029e312848654008b1a5b872f2380c866103765ccacb817605876f57dee1ca11009c3f26466b4e06bfabb67cfc3602886f0d7852c4c58f780b896159d0efc41f0e923d2444694c04bda9b47efe34008a6d0f7a50c6c78d7a098b635bd2edc61d0c903b22426f4a02bbafb278f832068c6b097c56c0c18b7c0f8d655dd4ebc01b0a963920406d4800b9adb07afa30048e690b7e54c2c3897e0d8f675fd6e9c2190894372e4e63460eb7a3be74f43e0a806705705acccd877003816951d8e7cc17069a352c4c61440cb5a1bc76f63c088265077258cecf857201836b53dae5ce150498332a4a67420ab3a7ba70f03a0e846301745ec8c9837407856d55dce3c813029e312848654008b1a5b872f2380c866103765ccacb817605876f57dee1ca11009c3f26466b4e06bfabb67cfc3602886f0d7013294c3bf54f8d1ccaeccaa3a15cb7b8a35d0409d844aa0c954fba87f4a5a3d",
        "type": "nulldata"
      }
    },
    {
      "value": 499969.493,
      "n": 1,
      "scriptPubKey": {
        "asm": "1 b2689d15da28bbe712c134c9542eae3a235747a7c956e7b1fee890cdf9e83c4e",
        "hex": "5120b2689d15da28bbe712c134c9542eae3a235747a7c956e7b1fee890cdf9e83c4e",
        "reqSigs": 1,
        "type": "witness_v1_scripthash",
        "addresses": [
          "3QJmnh"
        ]
      }
    }
  ],
  "blockhash": "f0ff1fbaae405cadeb51abb379c93a956cf666ff613992ee95c2f945c1780bd2",
  "confirmations": 1,
  "time": 1764181685,
  "blocktime": 1764181685
}