{
  "hex": "01000000000101c77ed6cd2bd3e441670a50fe059fef8ce9ae5fdde83a1a330f70b7b09f8ffe920000000000feffffff0200774227792d0000225120b67733ce1641b90df312adab73efbd2981422f29593649e6db8ae249cd09947700e1f50500000000fdd5046a20a8222747af82c724590a0ae15baa45f62b944375822badfb5c0d800f5b1aa75d4db004d5aa9153b52ca314730a3ed2c8ba38a2cdc260c2c028b2694d48872a466777c8f58ab173950c8334532a1ef2e89a1882ede240e2e00892496d68a70a664757e895ead113f56ce354334a7e9288fa78e28d8220828068f2290d08c76a06273788b5caf133d54cc374136a5eb2a8da58c2ada200a2a048d2092d28e74a260717a8552a11d335ac2394f38abe52483ab8224d42e04240a832e9cdc807aac6e7f748750a31f3158c03b4d3aa9e72681a98026d62c062608812c9ede8278ae6c7d768156a519375ec63d4b3cafe12087af8620d02a00200e872a98d8847ea86a7b708354a71b355cc43f493eade32285ad8422d22802220c85289ada867caa6879728d5aa9153b52ca314730a3ed2c8ba38a2cdc260c2c028b2694d48872a466777c8f58ab173950c8334532a1ef2e89a1882ede240e2e00892496d68a70a664757e895ead113f56ce354334a7e9288fa78e28d8220828068f2290d08c76a06273788b5caf133d54cc374136a5eb2a8da58c2ada200a2a048d2092d28e74a260717a8552a11d335ac2394f38abe52483ab8224d42e04240a832e9cdc807aac6e7f748750a31f3158c03b4d3aa9e72681a98026d62c062608812c9ede8278ae6c7d768156a519375ec63d4b3cafe12087af8620d02a00200e872a98d8847ea86a7b708354a71b355cc43f493eade32285ad8422d22802220c85289ada867caa6879728d5aa9153b52ca314730a3ed2c8ba38a2cdc260c2c028b2694d48872a466777c8f58ab173950c8334532a1ef2e89a1882ede240e2e00892496d68a70a664757e895ead113f56ce354334a7e9288fa78e28d8220828068f2290d08c76a06273788b5caf133d54cc374136a5eb2a8da58c2ada200a2a048d2092d28e74a260717a8552a11d335ac2394f38abe52483ab8224d42e04240a832e9cdc807aac6e7f748750a31f3158c03b4d3aa9e72681a98026d62c062608812c9ede8278ae6c7d768156a519375ec63d4b3cafe12087af8620d02a00200e872a98d8847ea86a7b708354a71b355cc43f493eade32285ad8422d22802220c85289ada867caa6879728d5aa9153b52ca314730a3ed2c8ba38a2cdc260c2c028b2694d48872a466777c8f58ab173950c8334532a1ef2e89a1882ede240e2e00892496d68a70a664757e895ead113f56ce354334a7e9288fa78e28d8220828068f2290d08c76a06273788b5caf133d54cc374136a5eb2a8da58c2ada200a2a048d2092d28e74a260717a8552a11d335ac2394f38abe52483ab8224d42e04240a832e9cdc807aac6e7f748750a31f3158c03b4d3aa9e72681a98026d62c062608812c9ede8278ae6c7d768156a519375ec63d4b3cafe12087af8620d02a00200e872a98d8847ea86a7b708354a71b355cc43f493eade32285ad8422d22802220c85289ada867caa6879728d5aa9153b52ca314730a3ed2c8ba38a2cdc260c2c028b2694d48872a466777c8f58ab173950c8334532a1ef2e89a1882ede240e2e00892496d68a70a664757e895ead113f56ce354334a7e9288fa78e28d8220828068f2290d08c76a06273788b5caf133d54cc374136a5eb2a8da58c2ada200a2a048d2092d28e74a260717a8552a11d335ac2394f38abe52483ab8223aadd9ee2cba99498161f0f1700c30b34272558ae14ddfd20e71972e2fa7dbfd02fd75095e6e008274407a84b4d74d45908e525c4b0fb6840c83e37e67913dfdcb92c48c45e33a822ecb092dba4eaecf9e8ae75d21a11b64d71fc56dbae07e028fd05954414922e7e8f55b1711ef96495ec8b013b7c4bd824850cb6b8bfcde78d7c8d9118e2fd8252f1887d5fc9b63bbba7d24714644c4c9b4b2c1b1aea1a7d0fe7cc1a5c13c625cfdb3b9a550b16d4b7b04af73c3f58347137afacbf53dcadf030304373c62a073d89d4551fdaf9e83287fdf65d32b28f233dd481393508cd4caa67e6240da97c52736e4cdfc75a3dd0af703e5dd82aad8c303066974162d5d02cdd3383a07c82dae4e2c2af7af92b2ae22cf210dbec2cf23178e6f6572f62ec6a4fa45ff4e08036de9faad36aedae28b180a8107bd5e1e031f0b60c5f7a5fb8ea1c6db569efb4c1f350a3894d3846c239dd63de4d50f5641dd44040191f8685b3c0d5ba0ff52e6f382b3c0772cf70a613f8d8c44e419a26d44fcfbc9b018fd3bb5560a294a961c38e967ce253fc31cc274e2be893b8824780ae990e7464b9d3151537a58b956dc3059cce2d4e2f2f747924efd9a3798672e50cebf0b9fb877819b6ff0f4fa05f3bacf504c710a28d84c04e829c7e3a200944eff484fc3829f6161e4ce9ef5a1b4811c226a2ff1952c36617af07d134c5afd65b9b34676b438d942037bc462a903186df8e94654c04c62675830f7bff4da11fbc11ebade0eb8dd7bb024de15711ec013ed2f03d25ce4ca9c5c1e9fc8b59bbaaf269461deb1f1ee69ff94dd2fd68bc02d87dd5ac04b2d8e14d74a86cc3e4925a685b08252efc03e9f7b5ccd63d67d50fd92b50f51a776e9e0529d96fa9f0900fb76ad178000aa73c9566aef56c2df9b8e9df0d53ad2c123cf66d7e0efbc2978ee48f8b904eed26ea0293dededdd9eb7090ef2dea2938b09e6b2f139bd15df8ec844c8fbbc134af72030f42a6207a1f009b4105274cbd6f454f44a2169d1aace94b13f56462447026a15978118bcbc8eab6b8ba6d2cf2ba9497897ea69965d0957d12fddc90ea1584e08d6aad340ad8b0b751655a1431e03f3f93218d1ca0255c73f4a96107ee50e12d4c67670a9a863e72fe8b5c211ae175323444e5d324e6ff375fd19e8b7bdf8936d7234f998290e89ddb672b196b7d51e802933bddeaac358fef3f1cfc6ed092eead67ff63b8337b25cb013719a55161823939cc0281597e6bca2a936f3c2995f5d1ef3cb9ebbd4e0934026b3c68ee3a05a125969d736969e14a76939b79693b4cc6585acbbccd756136e1435d88031005b86784cf47419137dce8f7198717d01225013c31e90cf4759261173c4afbfba0cf488238d5e691296c653721b926d5f6131fc1a76bf63a98b5217bc49683d6a0ff6a3a3d154f1b41aaa08c904a06157fdb072cac15c963ab5ddcbb4f50dc1409989e06803936e1bc165359c9daa19a246387a87d7a243f6860f4b5efc41e3f03889d9bf2b9b369e9acc64a3205808798cb12848c4f60d12f3e547fadafe6cda51050ced002ca737743c5d71c09da3e46787868b0070cea9d3590e95092f1e1d41ccbf218d3a778e4aeb99ad0e805df6ef8b4f14db482c200edd72e0107f45d5be74928797e616d873a10e7a64d79cbe815cce9c292869255c6b1178e9e8359131de3833038b0c2f23ac43c28261f022a748688a3b0254998335fc56757033b74353ab8d61963cac7043cd9e43eeeb793fb0e0b55caa2255f002074796a26c9587b3596aad49447d512e0597f60a4c277c531c4f3caf406b76c9be78711e7120b03f11c9ae520dc8dca00f248fb85b82247930aa8520c74fe15a276e8eedcb4fb9e2467b223bacc82792153bb0a9d918455e3b83ad5bfe6ac1f9f63d2f2058c5a58c3646302de63014cc12a8d586949a19031afae3c0d7020f3620148511929d8c50bc5a71805b4ef4078711392c4dc355209198694b46ed813c9f531aaa7c35b3eab85d5b7591b98da25d764b0b10f63623950cef48f366c9480c373093ca8422dd0cd42c7ddaf7914e516f66786a3ef52c1183fb21ac421733a217f9909dcc79e1e105feb14e4848c0a5830936a6f37c72b40544e3e20e744592ad5382c988fbb863dc0b1ddbc21a54ad42655da855b629edaf96379d77c9a5de7d2872a5588488af8040e8ce53efea7aad3c96fca7aa909b16347a62dc27363f45f6f1b41e71ee6cc55069b3499b3f8a426e89d39733cf7310c89a278b6218353bee8cf345bb72cee3b39b9fcf455b6e636b61aaa580a9e2cf8f8381ee3bdf191d90f93f2a2b337a5e33374611b2a2920f7b0c6a84426b94d38c74bace64ea0d4fbca104c08fc5827ff65831fcf1ee0f2e1e5b1f23bc732f6729ab53fe2a04b2a8d2303460ec4b362ca142d5848680e18f81acdb12018a24d93f11f2dc0d54d4444d03a8192ac617b3bec0d4f504d13056886ebdda50d9f8d5204ffe143bcb68b7aa4e6c8b69c9cee10faaabf9626a4cf3535ebf93742d8edacf950a2c292c556ee17dc2ff5878856f2953129d6eeacb9f88861debe0743f002a967b571069e68946aaad9e0f63a1569d26ed53e5babaddafc8447cbc071115d59dbd45d306f5b1cfbfe1fce7f92b488445ba715fc4494ec43494384ba67cac12bfee5ac18989f0418872df404facb29742d8a40b0efc00c82b284a715d0a07a2af3a571dccbc7d59990214fb4e731cb24d413a9701d9a925091d99a736c0143ad35e29725b104bd9697caf4103ff6147ce52e4514dd27efb4526b8ef849da973c5e482f0fd2538ad8872b1a588e0af800988139b16acb50b6ccfa084327571c82e4f1cd57f0e7b0d3bc00ced94e34ac36806d15d123df96e43bf612200d444bfd7b69297fce763a85967c23d541d2816c2bfc5844ebd75bad1884c1ed804f29fa48d64ef5c6955458df939fade3e5a065d3f6136b134217119808eea8a86208db8861a8a58e9a7b5d33fddbbdd98bca1e0fcf057b3026400a1f7e69037b46f0e658d3f511cbab5c1b9c72f34352d63e17a3956a9c7433342123effa5cb1d6a6641ee430dcf92f3b033a3e67dc36dd6980b5b418729f200c054cf781b79a02d3417381f5a3f18c61beabf0b7b87abfbe394d4939a98fa0db4416d14ba51cabe4c5d07cc3817202901f30ab8240f0116624ed3b09f09b7bfa53fb65dd33b0b81ce88b85e5f90f5c1fae9068a9b11e2280726ab5d3cfdbca94ffef8aae9b06a6c7260bb433de4c4fca8a620f330b825ea38af790796e4c925a5eb5c63f4ccbfcf58c5881c5fe679289181f4e0584379998e110ba3f988acaab2ce974e9a89080922292a30313b5a5f70717b86b4cbdcf2f822233a3e454b4f505a6f788182cdeceef3071314517a8d9da0a2c9ccd7e2223b56606394a6b3eef50000000000000000000000000000000000000000001324313b01fd2105002e24be9fba0cdb2f03fac9aefd9323c5a264db92360c9957ed188a27aece5c6bfb12cf28789697c4a7b74988c5b4ef2f2d37ca62733a7a450e25df41a6876d81853248aecf6d4870cbad4842c4ccceee84dd98c9ae86ab19c6781de6b828167969e752babc548cfa77ddcd5709212ffc6bf754941ea978ee44422e7cf2c4739f87de8fc478fad54c6143f7df2d2770695dc6f4f7bb5af2881c83c97c92a273e6e4b5c8ae066ca6d1ec8f995c5d2fe23309faade17682f8932b6dfa9ea80704b1b761e9348025b4adcfe8c23553e82932de6cd4e0ddfd531677e232d68468fc5aaf4ec1205a68e674882270b1070ee86dc1a4692aba0082f64091b23c2691a5ae20304daa3859e5ab0638cca0385785831a39c2fbb23ebcfd15f91774578c6d01698746675357ca7205de2284868a3d93abaccb37f05e922872af016bc4f348ef092a97fcfb2781bd20d23876997d9d0b60376e35c11aef8ef2c778d5a9db2aee2f7c6fa3d4030088a7917d5d2aac3e4a25ea11dd1185c1b0c23ec7b95e1a2ae524dc1fc9562ce178852f734486acfa65ef755458f883bb2295429bfbc50a8275046e1eb5401bf060474cdc2fe5162d202162974fd3fb98a6f8d82a85aa7292ebe41b52cf2c66b77f4e711af07b98e084d285bb0364f78736c5e86dea44ddd0ce8c3aa4985c05acf5a6407c8bd0f2978b6c177a6c08199cab805312602072a520c41f46ec9f70d35051bf9ed5407ac7619df07e526f1af7023fab9fe62eee973c554e45e3c3ff4e444d98955f72bf4b2a45f7a757309958ccf530dc2f556912d297d9b39638deae86ab51f6c92a481f5b510a3cadc1d9eeea1b5d5652821c8163089e858589b810e64ef60c2d5a66ffb1dbfdeea435bad3f3b22561576ae46a8cab51265792c4755b93f226a03eff45984501e1911f08a6b1dfc28845808182cfe5e7d91a4580cb87a320c549d0f90f319661643582c01f2752a2cc37d52ecfe2fefb7aa98bbfeb09cbf0e70862ee50e18703b933e45133bf0a1ea093208829d3be9f51406c923db8a1cd16c14d073b7e43f7826928d3d4f01c3ee4599ef052bfde91d9f14b8dceb027289faabc0cf63c95db0d874dcfdf0155dce0e5a97ff9301e7d978ed3774f15597710ac529a8e2b77dfebb15834158caf90f5816afbf9d65a06e0a6ef1ba923a97284d5ad2bd240f3783bcfb81c8b98a9d1873b67fee38b9accc8e0e1e8726c2ce0c8ebb5a3480da4d8d12ef852eec7dd5ca3a0f9d3d6d141f1692718179c39a36564d6253bde23265e44f69be060bb689fa420b2e881daed331d76598c57d416d79bf81c94f0941a01a768a4a851c0acc9bb05c17275dc122eab7f088e3ef077d02ec0b9b90a51545024c5abcd86afd783e570a9ed4a252b8de3bb5ed9623a6dc0fd8d6a614fc53e78be7239315121e63043126c2b9d10dfc689a6eb000a6a18401599dae3b6b59b71c12267c86433bcf70bcdf4315c28487b07842ba45e0830e513117d24d8a1ee279937716604df0b3667de036c7f94b6c9057c215290c8e6640a953ff2a62e748aab1deeb84af1c88816703b84324b463a3ba35490f0921209c9f26cd6aed91f1d6b6a4c196c44f5e544fee172afbebb02154eb2964c84d0ebf09575f99aff6845a6996e58608768e371a28efc90ed2c02651033549c961c8dff5c0801e8399aa7525a9d7fada07f29f51b25e32ffa4405ca219a0072653620936e5dd0f00bdd54c4e477c4e1bc7977e72d8f3a09d13aa02900147baf750e772d60a6ec397220520e533614daae210f0434c4013a2a05d878f9b6119aa1b70dbb0b036ffc4583ff30a101b285ea344f75030aeb45f572000000",
  "txid": "f8cc5f4dd342abd13682547fa627e27e2f00ae4260747784856ae986d56946c1",
  "hash": "dbfbc4f4488707c5f522d7bf2cf8cba1d4b41693e4704119118e954e0cef8262",
  "size": 5085,
  "vsize": 2278,
  "version": 1,
  "locktime": 114,
  "vin": [
    {
      "txid": "92fe8f9fb0b7700f331a3ae8dd5faee98cef9f05fe500a6741e4d32bcdd67ec7",
      "vout": 0,
      "scriptSig": {
        "asm": "",
        "hex": ""
      },
      "txinwitness": [
        "5e6e008274407a84b4d74d45908e525c4b0fb6840c83e37e67913dfdcb92c48c45e33a822ecb092dba4eaecf9e8ae75d21a11b64d71fc56dbae07e028fd05954414922e7e8f55b1711ef96495ec8b013b7c4bd824850cb6b8bfcde78d7c8d9118e2fd8252f1887d5fc9b63bbba7d24714644c4c9b4b2c1b1aea1a7d0fe7cc1a5c13c625cfdb3b9a550b16d4b7b04af73c3f58347137afacbf53dcadf030304373c62a073d89d4551fdaf9e83287fdf65d32b28f233dd481393508cd4caa67e6240da97c52736e4cdfc75a3dd0af703e5dd82aad8c303066974162d5d02cdd3383a07c82dae4e2c2af7af92b2ae22cf210dbec2cf23178e6f6572f62ec6a4fa45ff4e08036de9faad36aedae28b180a8107bd5e1e031f0b60c5f7a5fb8ea1c6db569efb4c1f350a3894d3846c239dd63de4d50f5641dd44040191f8685b3c0d5ba0ff52e6f382b3c0772cf70a613f8d8c44e419a26d44fcfbc9b018fd3bb5560a294a961c38e967ce253fc31cc274e2be893b8824780ae990e7464b9d3151537a58b956dc3059cce2d4e2f2f747924efd9a3798672e50cebf0b9fb877819b6ff0f4fa05f3bacf504c710a28d84c04e829c7e3a200944eff484fc3829f6161e4ce9ef5a1b4811c226a2ff1952c36617af07d134c5afd65b9b34676b438d942037bc462a903186df8e94654c04c62675830f7bff4da11fbc11ebade0eb8dd7bb024de15711ec013ed2f03d25ce4ca9c5c1e9fc8b59bbaaf269461deb1f1ee69ff94dd2fd68bc02d87dd5ac04b2d8e14d74a86cc3e4925a685b08252efc03e9f7b5ccd63d67d50fd92b50f51a776e9e0529d96fa9f0900fb76ad178000aa73c9566aef56c2df9b8e9df0d53ad2c123cf66d7e0efbc2978ee48f8b904eed26ea0293dededdd9eb7090ef2dea2938b09e6b2f139bd15df8ec844c8fbbc134af72030f42a6207a1f009b4105274cbd6f454f44a2169d1aace94b13f56462447026a15978118bcbc8eab6b8ba6d2cf2ba9497897ea69965d0957d12fddc90ea1584e08d6aad340ad8b0b751655a1431e03f3f93218d1ca0255c73f4a96107ee50e12d4c67670a9a863e72fe8b5c211ae175323444e5d324e6ff375fd19e8b7bdf8936d7234f998290e89ddb672b196b7d51e802933bddeaac358fef3f1cfc6ed092eead67ff63b8337b25cb013719a55161823939cc0281597e6bca2a936f3c2995f5d1ef3cb9ebbd4e0934026b3c68ee3a05a125969d736969e14a76939b79693b4cc6585acbbccd756136e1435d88031005b86784cf47419137dce8f7198717d01225013c31e90cf4759261173c4afbfba0cf488238d5e691296c653721b926d5f6131fc1a76bf63a98b5217bc49683d6a0ff6a3a3d154f1b41aaa08c904a06157fdb072cac15c963ab5ddcbb4f50dc1409989e06803936e1bc165359c9daa19a246387a87d7a243f6860f4b5efc41e3f03889d9bf2b9b369e9acc64a3205808798cb12848c4f60d12f3e547fadafe6cda51050ced002ca737743c5d71c09da3e46787868b0070cea9d3590e95092f1e1d41ccbf218d3a778e4aeb99ad0e805df6ef8b4f14db482c200edd72e0107f45d5be74928797e616d873a10e7a64d79cbe815cce9c292869255c6b1178e9e8359131de3833038b0c2f23ac43c28261f022a748688a3b0254998335fc56757033b74353ab8d61963cac7043cd9e43eeeb793fb0e0b55caa2255f002074796a26c9587b3596aad49447d512e0597f60a4c277c531c4f3caf406b76c9be78711e7120b03f11c9ae520dc8dca00f248fb85b82247930aa8520c74fe15a276e8eedcb4fb9e2467b223bacc82792153bb0a9d918455e3b83ad5bfe6ac1f9f63d2f2058c5a58c3646302de63014cc12a8d586949a19031afae3c0d7020f3620148511929d8c50bc5a71805b4ef4078711392c4dc355209198694b46ed813c9f531aaa7c35b3eab85d5b7591b98da25d764b0b10f63623950cef48f366c9480c373093ca8422dd0cd42c7ddaf7914e516f66786a3ef52c1183fb21ac421733a217f9909dcc79e1e105feb14e4848c0a5830936a6f37c72b40544e3e20e744592ad5382c988fbb863dc0b1ddbc21a54ad42655da855b629edaf96379d77c9a5de7d2872a5588488af8040e8ce53efea7aad3c96fca7aa909b16347a62dc27363f45f6f1b41e71ee6cc55069b3499b3f8a426e89d39733cf7310c89a278b6218353bee8cf345bb72cee3b39b9fcf455b6e636b61aaa580a9e2cf8f8381ee3bdf191d90f93f2a2b337a5e33374611b2a2920f7b0c6a84426b94d38c74bace64ea0d4fbca104c08fc5827ff65831fcf1ee0f2e1e5b1f23bc732f6729ab53fe2a04b2a8d2303460ec4b362ca142d5848680e18f81acdb12018a24d93f11f2dc0d54d4444d03a8192ac617b3bec0d4f504d13056886ebdda50d9f8d5204ffe143bcb68b7aa4e6c8b69c9cee10faaabf9626a4cf3535ebf93742d8edacf950a2c292c556ee17dc2ff5878856f2953129d6eeacb9f88861debe0743f002a967b571069e68946aaad9e0f63a1569d26ed53e5babaddafc8447cbc071115d59dbd45d306f5b1cfbfe1fce7f92b488445ba715fc4494ec43494384ba67cac12bfee5ac18989f0418872df404facb29742d8a40b0efc00c82b284a715d0a07a2af3a571dccbc7d59990214fb4e731cb24d413a9701d9a925091d99a736c0143ad35e29725b104bd9697caf4103ff6147ce52e4514dd27efb4526b8ef849da973c5e482f0fd2538ad8872b1a588e0af800988139b16acb50b6ccfa084327571c82e4f1cd57f0e7b0d3bc00ced94e34ac36806d15d123df96e43bf612200d444bfd7b69297fce763a85967c23d541d2816c2bfc5844ebd75bad1884c1ed804f29fa48d64ef5c6955458df939fade3e5a065d3f6136b134217119808eea8a86208db8861a8a58e9a7b5d33fddbbdd98bca1e0fcf057b3026400a1f7e69037b46f0e658d3f511cbab5c1b9c72f34352d63e17a3956a9c7433342123effa5cb1d6a6641ee430dcf92f3b033a3e67dc36dd6980b5b418729f200c054cf781b79a02d3417381f5a3f18c61beabf0b7b87abfbe394d4939a98fa0db4416d14ba51cabe4c5d07cc3817202901f30ab8240f0116624ed3b09f09b7bfa53fb65dd33b0b81ce88b85e5f90f5c1fae9068a9b11e2280726ab5d3cfdbca94ffef8aae9b06a6c7260bb433de4c4fca8a620f330b825ea38af790796e4c925a5eb5c63f4ccbfcf58c5881c5fe679289181f4e0584379998e110ba3f988acaab2ce974e9a89080922292a30313b5a5f70717b86b4cbdcf2f822233a3e454b4f505a6f788182cdeceef3071314517a8d9da0a2c9ccd7e2223b56606394a6b3eef50000000000000000000000000000000000000000001324313b01",
        "002e24be9fba0cdb2f03fac9aefd9323c5a264db92360c9957ed188a27aece5c6bfb12cf28789697c4a7b74988c5b4ef2f2d37ca62733a7a450e25df41a6876d81853248aecf6d4870cbad4842c4ccceee84dd98c9ae86ab19c6781de6b828167969e752babc548cfa77ddcd5709212ffc6bf754941ea978ee44422e7cf2c4739f87de8fc478fad54c6143f7df2d2770695dc6f4f7bb5af2881c83c97c92a273e6e4b5c8ae066ca6d1ec8f995c5d2fe23309faade17682f8932b6dfa9ea80704b1b761e9348025b4adcfe8c23553e82932de6cd4e0ddfd531677e232d68468fc5aaf4ec1205a68e674882270b1070ee86dc1a4692aba0082f64091b23c2691a5ae20304daa3859e5ab0638cca0385785831a39c2fbb23ebcfd15f91774578c6d01698746675357ca7205de2284868a3d93abaccb37f05e922872af016bc4f348ef092a97fcfb2781bd20d23876997d9d0b60376e35c11aef8ef2c778d5a9db2aee2f7c6fa3d4030088a7917d5d2aac3e4a25ea11dd1185c1b0c23ec7b95e1a2ae524dc1fc9562ce178852f734486acfa65ef755458f883bb2295429bfbc50a8275046e1eb5401bf060474cdc2fe5162d202162974fd3fb98a6f8d82a85aa7292ebe41b52cf2c66b77f4e711af07b98e084d285bb0364f78736c5e86dea44ddd0ce8c3aa4985c05acf5a6407c8bd0f2978b6c177a6c08199cab805312602072a520c41f46ec9f70d35051bf9ed5407ac7619df07e526f1af7023fab9fe62eee973c554e45e3c3ff4e444d98955f72bf4b2a45f7a757309958ccf530dc2f556912d297d9b39638deae86ab51f6c92a481f5b510a3cadc1d9eeea1b5d5652821c8163089e858589b810e64ef60c2d5a66ffb1dbfdeea435bad3f3b22561576ae46a8cab51265792c4755b93f226a03eff45984501e1911f08a6b1dfc28845808182cfe5e7d91a4580cb87a320c549d0f90f319661643582c01f2752a2cc37d52ecfe2fefb7aa98bbfeb09cbf0e70862ee50e18703b933e45133bf0a1ea093208829d3be9f51406c923db8a1cd16c14d073b7e43f7826928d3d4f01c3ee4599ef052bfde91d9f14b8dceb027289faabc0cf63c95db0d874dcfdf0155dce0e5a97ff9301e7d978ed3774f15597710ac529a8e2b77dfebb15834158caf90f5816afbf9d65a06e0a6ef1ba923a97284d5ad2bd240f3783bcfb81c8b98a9d1873b67fee38b9accc8e0e1e8726c2ce0c8ebb5a3480da4d8d12ef852eec7dd5ca3a0f9d3d6d141f1692718179c39a36564d6253bde23265e44f69be060bb689fa420b2e881daed331d76598c57d416d79bf81c94f0941a01a768a4a851c0acc9bb05c17275dc122eab7f088e3ef077d02ec0b9b90a51545024c5abcd86afd783e570a9ed4a252b8de3bb5ed9623a6dc0fd8d6a614fc53e78be7239315121e63043126c2b9d10dfc689a6eb000a6a18401599dae3b6b59b71c12267c86433bcf70bcdf4315c28487b07842ba45e0830e513117d24d8a1ee279937716604df0b3667de036c7f94b6c9057c215290c8e6640a953ff2a62e748aab1deeb84af1c88816703b84324b463a3ba35490f0921209c9f26cd6aed91f1d6b6a4c196c44f5e544fee172afbebb02154eb2964c84d0ebf09575f99aff6845a6996e58608768e371a28efc90ed2c02651033549c961c8dff5c0801e8399aa7525a9d7fada07f29f51b25e32ffa4405ca219a0072653620936e5dd0f00bdd54c4e477c4e1bc7977e72d8f3a09d13aa02900147baf750e772d60a6ec397220520e533614daae210f0434c4013a2a05d878f9b6119aa1b70dbb0b036ffc4583ff30a101b285ea344f75030aeb45f5"
      ],
      "sequence": 4294967294
    }
  ],
  "vout": [
    {
      "value": 499983.7296,
      "n": 0,
      "scriptPubKey": {
        "asm": "1 b67733ce1641b90df312adab73efbd2981422f29593649e6db8ae249cd099477",
        "hex": "5120b67733ce1641b90df312adab73efbd2981422f29593649e6db8ae249cd099477",
        "reqSigs": 1,
        "type": "witness_v1_scripthash",
        "addresses": [
          "3QJmnh"
        ]
      }
    },
    {
      "value": 1.0,
      "n": 1,
      "scriptPubKey": {
        "asm": "OP_RETURN a8222747af82c724590a0ae15baa45f62b944375822badfb5c0d800f5b1aa75d d5aa9153b52ca314730a3ed2c8ba38a2cdc260c2c028b2694d48872a466777c8f58ab173950c8334532a1ef2e89a1882ede240e2e00892496d68a70a664757e895ead113f56ce354334a7e9288fa78e28d8220828068f2290d08c76a06273788b5caf133d54cc374136a5eb2a8da58c2ada200a2a048d2092d28e74a260717a8552a11d335ac2394f38abe52483ab8224d42e04240a832e9cdc807aac6e7f748750a31f3158c03b4d3aa9e72681a98026d62c062608812c9ede8278ae6c7d768156a519375ec63d4b3cafe12087af8620d02a00200e872a98d8847ea86a7b708354a71b355cc43f493eade32285ad8422d22802220c85289ada867caa6879728d5aa9153b52ca314730a3ed2c8ba38a2cdc260c2c028b2694d48872a466777c8f58ab173950c8334532a1ef2e89a1882ede240e2e00892496d68a70a664757e895ead113f56ce354334a7e9288fa78e28d8220828068f2290d08c76a06273788b5caf133d54cc374136a5eb2a8da58c2ada200a2a048d2092d28e74a260717a8552a11d335ac2394f38abe52483ab8224d42e04240a832e9cdc807aac6e7f748750a31f3158c03b4d3aa9e72681a98026d62c062608812c9ede8278ae6c7d768156a519375ec63d4b3cafe12087af8620d02a00200e872a98d8847ea86a7b708354a71b355cc43f493eade32285ad8422d22802220c85289ada867caa6879728d5aa9153b52ca314730a3ed2c8ba38a2cdc260c2c028b2694d48872a466777c8f58ab173950c8334532a1ef2e89a1882ede240e2e00892496d68a70a664757e895ead113f56ce354334a7e9288fa78e28d8220828068f2290d08c76a06273788b5caf133d54cc374136a5eb2a8da58c2ada200a2a048d2092d28e74a260717a8552a11d335ac2394f38abe52483ab8224d42e04240a832e9cdc807aac6e7f748750a31f3158c03b4d3aa9e72681a98026d62c062608812c9ede8278ae6c7d768156a519375ec63d4b3cafe12087af8620d02a00200e872a98d8847ea86a7b708354a71b355cc43f493eade32285ad8422d22802220c85289ada867caa6879728d5aa9153b52ca314730a3ed2c8ba38a2cdc260c2c028b2694d48872a466777c8f58ab173950c8334532a1ef2e89a1882ede240e2e00892496d68a70a664757e895ead113f56ce354334a7e9288fa78e28d8220828068f2290d08c76a06273788b5caf133d54cc374136a5eb2a8da58c2ada200a2a048d2092d28e74a260717a8552a11d335ac2394f38abe52483ab8224d42e04240a832e9cdc807aac6e7f748750a31f3158c03b4d3aa9e72681a98026d62c062608812c9ede8278ae6c7d768156a519375ec63d4b3cafe12087af8620d02a00200e872a98d8847ea86a7b708354a71b355cc43f493eade32285ad8422d22802220c85289ada867caa6879728d5aa9153b52ca314730a3ed2c8ba38a2cdc260c2c028b2694d48872a466777c8f58ab173950c8334532a1ef2e89a1882ede240e2e00892496d68a70a664757e895ead113f56ce354334a7e9288fa78e28d8220828068f2290d08c76a06273788b5caf133d54cc374136a5eb2a8da58c2ada200a2a048d2092d28e74a260717a8552a11d335ac2394f38abe52483ab8223aadd9ee2cba99498161f0f1700c30b34272558ae14ddfd20e71972e2fa7dbfd",
        "hex": "6a20a8222747af82c724590a0ae15baa45f62b944375822badfb5c0d800f5b1aa75d4db004d5aa9153b52ca314730a3ed2c8ba38a2cdc260c2c028b2694d48872a466777c8f58ab173950c8334532a1ef2e89a1882ede240e2e00892496d68a70a664757e895ead113f56ce354334a7e9288fa78e28d8220828068f2290d08c76a06273788b5caf133d54cc374136a5eb2a8da58c2ada200a2a048d2092d28e74a260717a8552a11d335ac2394f38abe52483ab8224d42e04240a832e9cdc807aac6e7f748750a31f3158c03b4d3aa9e72681a98026d62c062608812c9ede8278ae6c7d768156a519375ec63d4b3cafe12087af8620d02a00200e872a98d8847ea86a7b708354a71b355cc43f493eade32285ad8422d22802220c85289ada867caa6879728d5aa9153b52ca314730a3ed2c8ba38a2cdc260c2c028b2694d48872a466777c8f58ab173950c8334532a1ef2e89a1882ede240e2e00892496d68a70a664757e895ead113f56ce354334a7e9288fa78e28d8220828068f2290d08c76a06273788b5caf133d54cc374136a5eb2a8da58c2ada200a2a048d2092d28e74a260717a8552a11d335ac2394f38abe52483ab8224d42e04240a832e9cdc807aac6e7f748750a31f3158c03b4d3aa9e72681a98026d62c062608812c9ede8278ae6c7d768156a519375ec63d4b3cafe12087af8620d02a00200e872a98d8847ea86a7b708354a71b355cc43f493eade32285ad8422d22802220c85289ada867caa6879728d5aa9153b52ca314730a3ed2c8ba38a2cdc260c2c028b2694d48872a466777c8f58ab173950c8334532a1ef2e89a1882ede240e2e00892496d68a70a664757e895ead113f56ce354334a7e9288fa78e28d8220828068f2290d08c76a06273788b5caf133d54cc374136a5eb2a8da58c2ada200a2a048d2092d28e74a260717a8552a11d335ac2394f38abe52483ab8224d42e04240a832e9cdc807aac6e7f748750a31f3158c03b4d3aa9e72681a98026d62c062608812c9ede8278ae6c7d768156a519375ec63d4b3cafe12087af8620d02a00200e872a98d8847ea86a7b708354a71b355cc43f493eade32285ad8422d22802220c85289ada867caa6879728d5aa9153b52ca314730a3ed2c8ba38a2cdc260c2c028b2694d48872a466777c8f58ab173950c8334532a1ef2e89a1882ede240e2e00892496d68a70a664757e895ead113f56ce354334a7e9288fa78e28d8220828068f2290d08c76a06273788b5caf133d54cc374136a5eb2a8da58c2ada200a2a048d2092d28e74a260717a8552a11d335ac2394f38abe52483ab8224d42e04240a832e9cdc807aac6e7f748750a31f3158c03b4d3aa9e72681a98026d62c062608812c9ede8278ae6c7d768156a519375ec63d4b3cafe12087af8620d02a00200e872a98d8847ea86a7b708354a71b355cc43f493eade32285ad8422d22802220c85289ada867caa6879728d5aa9153b52ca314730a3ed2c8ba38a2cdc260c2c028b2694d48872a466777c8f58ab173950c8334532a1ef2e89a1882ede240e2e00892496d68a70a664757e895ead113f56ce354334a7e9288fa78e28d8220828068f2290d08c76a06273788b5caf133d54cc374136a5eb2a8da58c2ada200a2a048d2092d28e74a260717a8552a11d335ac2394f38abe52483ab8223aadd9ee2cba99498161f0f1700c30b34272558ae14ddfd20e71972e2fa7dbfd",
        "type": "nulldata"
      }
    }
  ],
  "blockhash": "a404c97fd79b0f74ac8935f18e4afcd6ffd73e4b441b9f6bd67a7215b8c8499e",
  "confirmations": 1,
  "time": 1764178774,
  "blocktime": 1764178774
}