{
  "hex": "010000000001013212fc0db8986450c56a8b8d712810739c5741cb160d5148b33325edd9c6d70a0000000000feffffff0200e1f50500000000fdd5046a20de144d8d84741731bceacb0e98fe10497b604106d9e159b5a619a6fe794aa9fe4db00467cb33031e4e5c5b82c60e27bd1d18e1c0e03b14f6ddacfbf5fc3a6ab9a2a64247eb13233e6e7c7ba2e62e079d3d38c1e0c01b34d6fd8cdbd5dc1a4a99828662278b73435e0e1c1bc2864e67fd5d58a180a07b54b69decbbb5bc7a2af9e2e60207ab53637e2e3c3be2a66e47dd7d7881a0805b7496bdcc9b959c5a0ad9c2c622e74bb3839ecedcdb02468ea73d9d98614060bb94765d2c7b757cbaea392226c2c76b93a3beeefcfb2266ae871dbdb84160409bb4567d0c5b555c9aca190206e2a70bf3c3de8e9c9b4206cee77dddd8210020fbd4361d6c3b353cfaaa79626682872bd3e3feaebcbb6226eec75dfdf8012000dbf4163d4c1b151cda8a594246a267cb33031e4e5c5b82c60e27bd1d18e1c0e03b14f6ddacfbf5fc3a6ab9a2a64247eb13233e6e7c7ba2e62e079d3d38c1e0c01b34d6fd8cdbd5dc1a4a99828662278b73435e0e1c1bc2864e67fd5d58a180a07b54b69decbbb5bc7a2af9e2e60207ab53637e2e3c3be2a66e47dd7d7881a0805b7496bdcc9b959c5a0ad9c2c622e74bb3839ecedcdb02468ea73d9d98614060bb94765d2c7b757cbaea392226c2c76b93a3beeefcfb2266ae871dbdb84160409bb4567d0c5b555c9aca190206e2a70bf3c3de8e9c9b4206cee77dddd8210020fbd4361d6c3b353cfaaa79626682872bd3e3feaebcbb6226eec75dfdf8012000dbf4163d4c1b151cda8a594246a267cb33031e4e5c5b82c60e27bd1d18e1c0e03b14f6ddacfbf5fc3a6ab9a2a64247eb13233e6e7c7ba2e62e079d3d38c1e0c01b34d6fd8cdbd5dc1a4a99828662278b73435e0e1c1bc2864e67fd5d58a180a07b54b69decbbb5bc7a2af9e2e60207ab53637e2e3c3be2a66e47dd7d7881a0805b7496bdcc9b959c5a0ad9c2c622e74bb3839ecedcdb02468ea73d9d98614060bb94765d2c7b757cbaea392226c2c76b93a3beeefcfb2266ae871dbdb84160409bb4567d0c5b555c9aca190206e2a70bf3c3de8e9c9b4206cee77dddd8210020fbd4361d6c3b353cfaaa79626682872bd3e3feaebcbb6226eec75dfdf8012000dbf4163d4c1b151cda8a594246a267cb33031e4e5c5b82c60e27bd1d18e1c0e03b14f6ddacfbf5fc3a6ab9a2a64247eb13233e6e7c7ba2e62e079d3d38c1e0c01b34d6fd8cdbd5dc1a4a99828662278b73435e0e1c1bc2864e67fd5d58a180a07b54b69decbbb5bc7a2af9e2e60207ab53637e2e3c3be2a66e47dd7d7881a0805b7496bdcc9b959c5a0ad9c2c622e74bb3839ecedcdb02468ea73d9d98614060bb94765d2c7b757cbaea392226c2c76b93a3beeefcfb2266ae871dbdb84160409bb4567d0c5b555c9aca190206e2a70bf3c3de8e9c9b4206cee77dddd8210020fbd4361d6c3b353cfaaa79626682872bd3e3feaebcbb6226eec75dfdf8012000dbf4163d4c1b151cda8a594246a267cb33031e4e5c5b82c60e27bd1d18e1c0e03b14f6ddacfbf5fc3a6ab9a2a64247eb13233e6e7c7ba2e62e079d3d38c1e0c01b34d6fd8cdbd5dc1a4a99828662278b73435e0e1c1bc2864e67fd5d58a180a07b54b69decbbb5bc7a2af9e2e60207ab53637e2e3c3be2a66e47dd7d7881a0805b7496bdcc9b959c5a0ad9c2c622e74bb3839ecedcdb02468ea73d9d986198a61eab14e3b4c37559d4b77616b4a441a3eac58aa3a737fcaae80bd7636633c075fe6f792d000022512032c9b6e26bfd5bde0ad65ebb0ba4fcec365ff57205f2677c840c9a568c32fcce02fd750986e0719d70a45e4ed290dfd228b5df185e9a36bf26eaac0a77161196fd444c2f5ab02ee5567bc2d969445be17828352c3c6ab5ac57c7390cb3e711234f6bf09cfbf8510baa06f689fe4be4e1dcbacfcac9e5fd058af64a7636105628c83ed82b8d977a843735db087b4c37830f284d97680eb75e277313a02458ef5a13318737530d15a24747cdb5e02467dd305fc1d6eef4591a90b2d7d2140fad7b1abfc1f486cb7f542eef85b45759b50b4d4dc92287f211df55bc73704af574154a621e88e476fc1236d2f8eb3b8eb23d9593b4bc770a97cf76e210945b8da63051c605bc903158f03147f2d3cbd937a32096e321368172675f33914018c7b1a9546db18f44edd95131cb24a2201e645dace33014ac2ce6dd550d17d5c9e47524bbfade7248808ac35455363af51c69b0a1ee546770b22eec6a7e2c49d263470c0a744baf71edb007c38f2fff645e172fa5eed54401a548e0f3656699adb820dca808c22d052f8d37d6a105fd03a1122b67a7997e03d65d09d9878de8c3d92db458a09148e2ab19588c754ce61a187c8faaffddf5d9a3d9085032a8794292e8e60430c56d85065e0061edc2172f048144a232be9c1415b27ad6ac1d3adf32fc0ddf5d44dd9841208bbb71e98fec4d1f3969100f826877807b6f2c66e22d54fc7642d47270ba37efe5034c4a112de70fd5d785acc1c8b0f4f7f5f73f5c6e1b229c0c3872e6ab1821aac7846543e0b506da0a9f56206604d5350a0d461fb225ec5c2388bd5e92df29ceb33acddeeaab77cc6814180ef532ef9feb9ae2cad6be3ae28ae490e8f2890883b0839bbaa5391d199e4a9de0cbf893e8fc5dbcbce5d05d639ef794863608def9371886607ba46180e33b1dd17deb053ae4d24c92af58dc7d84ff2094c207a8de04833a62f6b43169bce872d799924177c95655c25903280e0197d470fbeb5011f46751e8c1de7369e2fbd958dfd4bdb3380f71b79e0330b9a203ec9069fd29c0ae6571b40c503b12beecc1e0bf55d6b325ab25835592c378e869ec1d112094fd344b090a051b1fc1aba06a27c596d80a5f2a4c8fb7d96105ba2b0ab0d6d95a6ed611777874f3c2f0aa61076a723936147495b9a3569caa316ac0863dbd39adb5d1b7de4bd341d4b5a696c6d745db701d8c48c1aebf39b5400d4d06c9106438aefc8a01c627dda6b6c85db36cc7f8f5b8e25c31ce10bc8e3837c35b35f8a406558cde47d65683886eb51b862a714f42bc5d3f6de8d97d99bc6ba8d181710ef3e9b1d53c280a007767aaf028d26a124c8228336c287615848948b235c12bd8795aadf8eb8237263114bbbc0d110f0f7c2687232e8405b0a3b2999a20718b5194789bd77e2a8d8632642b1ed8088eb8be545931369b17dcf0951dc97f8d106328a35d95731ffd006855c2921e891f3b3a45bb00c3deb6d3af831a6fbf3d3e285c5b6090a0eff6ccb600e540e89686303137cd2a153a599b92962792171270147d26ef0e6f3611119ec797bde0d4b413eda510ed9e5cadb67c1c312e0f559317a2b89f7a055e4c9ff2df4fa6fb49ed87b7d9a5533f04c0090ca64d0014f9df95ca5da9cc8be9c22b2d97b43e355ace44d1dd7b033cdf8ade062c82cfb83b5be2773f37b6e76ecb14a3d574bd7c33ba8d73ad7b69bf24436b8fd6177880e576c2168f68527411f6bc2d3531d4055753c2a555c70071ea069e903985690d71d54b94735571e4671f5e49296b1edac4de6e8fb841291f3f4a6b534ad6b5fc2f318def05732e63c1665577adcdcc2ec593d02a28e29130031cb0c2c75da3c26c0070969f4473c4c82ed6b88af961695b1e0752e147f62cf2ca651e20c386227a03f8938ef09e27daf589be6dc68052b431f045fa4b2fd92c1d2625e3a4e6db24d646187829f6a333177daadf77f6a5cff369d574f2f9106b3699e4951c7e368bc642f9a93d8d543be54006e3c710f71fd4a2e930b34bd74abff3a004ca6a89f4d598c9d0679e64d0da612409a397e6eef039371606a4249cd64455824402d6901ff8caae29afc483151438a7feb4939ec2c74481938609fc77e6eeb01b5c3369704ae467c709a5043cd358c63db0e6c970e3218ab83030999292ef1e4a1ff92ce8f80c4173c4f815a0691e7a11862943353154f226c39e8882ac27cd3d7c00ab432ca3ae603e94edcf3426b20b336e33d9ad56b62d27258c7338cc06e8dfd4a2c95da000aa257916bc33d4e0cb876674075bccf090fd7114b9d218e65628505228afcb91890f78cc911a1fb3f8c0f127f84d233ea5cc9e512854fdc64fa991aa4acb6bcbbb34f6e582fadc012114d5cc45e702f0dd9406b471b677deff94d82fef573cf4d77db9abd5d00298c5b46665f73300626894d13c3f18af3f4a5fd813932fdfbd561a2eab5c2402b97606d18a95958b14a68c93612f4c479b7f9221d252b49731147ac9f8cbbea6af4a1bb728326937d3235b256057ab86fdc1e394d073742732301f63b7d49eaf29a29f5b1898d0dac984f4e73f18cdbd45da5064cdc89a227ef49826adce3abdea550b6d8a486c8e10647fc58246a95d13fbb000679b7feaf02b6f4268cbc36596155ee3b0abf5db04c0d9131f0dd418ba371edd091ded8ddaeb626c9ea3328e44fe16a43bfb38007e9c806e881c66b7b7414d07ee1605c8fa55b95d7303d1616ccd91ee56bca237e4301a394657365e710907d465fb0cc720f9117cb57d354a703db1a33ff740d2695ad0c4cd1c01450b2748066b05010ccf10268a69e0b7d4b635ad8153dce3bab512fd8ac7605844d97cd1055d4b9ce8e00658e6daca508416a97252fb6495cf053df2126fd065079ce1dc3c2fd238842629a4cee16a5f20c86f0ba058ac39459b568bddde69c8530a53764431b50f9e6e27c800944b4532d2fe59eb2760d4d8f221269317fc6ad63eb251f8642ef53fd1e49c996779b3ba829b7d48252a252b5a4b6e47eb0013eda8e774f18e25465aad4c7d855e3e427df25c18226e6ad3339c0302e4646eedb1b403af34cda128dbdcf36cdf9f0887e7628f82c0692dd86799931ba585cf16eb02ee7530a1814a2a056135bc646337f5d36fe86916095d1bf3b445bf2d456a799cbe7e80d3bca3cb58ade667a1f5f9d9175cf8c31e6190fc5239e4a541fd16d82cd7724affd33817887d3b29c3264e47e0c69a320989ebba7cdaac9af3d7b5a4be4cd089b1e35fd8fbb7f85b5e70c51373b77ab4632cdccf34192cedc41eb62a7d813bd37a98faf65b98ce1469602d7b13c0061663a0b9c0a7490d844626354cd0023a824e10111f24252c393b687893bce3f1f2fdfe0103040f1926436f757ae50c3a595d616270727374768b989da8c0c4d1dcf0f60f33606d719598adb4b8bbbfc1c2c4ef000000000000000000000000000000111c314101fd21050020c7550db1231c0f0974498b9972920bc4cf8b69f20c20283de4f9568cfb04a5c489f34b887c0b42528adf543008d802cd5ceac9a67ead24bc6daf0f48559c6a7ee69effa7a80a7ff613fd1fba64e4914b15c9c3f1f8e6da1a4420de66113dadd4e259dd032554b92d8aea22d00a9e9410d7e60c74d12abdcffe2c73793c55c097583c5163ab84285ba0dcde5172114e286136b8082c3aeda0bf5e5c1ddcd42e9478c8897d0a429f9243aa20637043698be13555f79619c1b1cf6b1e466a565689bb382ab8d4c66cb7d7c84fea090c545a90b443d5b176d247730eaa35d13be7c598d3170c8cc092171ff2dae92da4ea5136bf9e76e8211f0a9f4d346dcbb2b52c004d873a1a1b864cbd93a26e88d50186525e61938a173c301bd054a1b06be666f350e2c5f1f65b9d26001d14403a582e5b688afecba32e54379ac32cf2bda3dfab8aa3c6feb458ff60c1a1057b3c7213297ce1b5c40b200fc1a3041f74f7fbb6653b1029a40f2e5dcd4e7dfea27ca94fe28b6d507d430f0c173b24a1cb16ab1bb772c2d9d5c1bfc398c72d7f506b46a31063128c0c506bbeae751499c5dd11660c73c284173f5939dfd7e8e4627e661c468082d97683fd483bdcd84d88686726885a789d7daf43940a11b0a1405310da8abe5bea0d0a720a99551f74ba17c7b0ade7b72925b7e68880c05ab9a23d0fbf935de75907750b0cc7f60e85e152661c423dbec36028680c79d255ca16629eee679c67505eb5c57071e0369c5173a2c4292791df9d4c9e74a167c1c5eb2bfa01cdc85ee2f3fecb62c5a8e422275106341c0111335c97622af99cd8ab9162f675bbc636163a253f39a3b52a9341a3e8ece2a4846aaeb74849609d4fda275a4069132e93b07aa14724b77dc2971aabbbe22240d05f7b295a70cc2fb0e93a66ba838f866298e50277e0bb90d42f682c100eae2308077557e8b1833fce2a8e42541a0ecc4e2a7ab1ffe475cc112367c769b87d29bf399eb1735aa60672520be13848152443e24cc6ab8ab6c99b9aa3d876e20be9431f31a99878841368e25325df3ae57075524058304f78a06bdd9b0e15c5cac037336ac7a3fcb4e4d34be2e825b97d1b1cf71d72e5c8942ab0325292768a68be4bf23bbc7f5f092d7a754294f3c9c90a662a4b1eabf6a3d4557a5d67bdfdd875df9e16ed22c8e31f0dc7239beda33bdca15807be5682eecc60742032ae5e2b2cb63bd7ebb0ada115f473509e6123f3d4dd697bed67c65dcddaf3e1877e5ef20feed8b71c45726df519e203636f3960fd6ff1371b173b3302232d56ce9f30e77cccbc1de3d7d30710f2f8ea4a463aca6297ba190385c78169acbc2514533970abc20e653254a176f664789df20d3f14f6b612ad4fcf56290a06835a773f8aececdfdd8c9e1f838c0424f200bd6d5012256fe32f7a1c474ebc139a9d062e49eca41a9a90cd09bb3f104547d08b43b2b7ff09dc1a4c2a0b2d66c8131caec69db30d4f6e021983be6f023bfb39e18c3ddcb217800afa222a0aef9a7f2e36fbde42150bf3ff028d51b3bb5ec716c46578d69cb846a031a9ca5156d8ee8466be19287bde077fdbfe134123db398af60634ee4eafc6b4706498145527bbb7ae01c27fcb604e983d15209d571fecd50d3d50581878bd5279042ee2e63d05dcc26b8de99c175ab9064f6977b64674b2f68359a727107c32a772a4e2634645e72ab52ac437f6881d3a3cc446227c583f70d23925887efdfc5c44671dd7b1cd92b84f060a202e4c2347ddb42f3a176635cc698b380b1c9f62a5c82c9aff4d8d128abe81613be714d9831349cc08158cd7ed497c7ee8caef6a1e969a2409e6cddaaff868000000",
  "txid": "feb3a6f53c4ab2a36de06371bd0f4828399581fc3480ef98c2215a7ce74eee6c",
  "hash": "7f44921ef0893e1df4078187d56a1c5147353a9eb0a634975e1160df7ba175f3",
  "size": 5085,
  "vsize": 2278,
  "version": 1,
  "locktime": 104,
  "vin": [
    {
      "txid": "0ad7c6d9ed2533b348510d16cb41579c731028718d8b6ac5506498b80dfc1232",
      "vout": 0,
      "scriptSig": {
        "asm": "",
        "hex": ""
      },
      "txinwitness": [
        "86e0719d70a45e4ed290dfd228b5df185e9a36bf26eaac0a77161196fd444c2f5ab02ee5567bc2d969445be17828352c3c6ab5ac57c7390cb3e711234f6bf09cfbf8510baa06f689fe4be4e1dcbacfcac9e5fd058af64a7636105628c83ed82b8d977a843735db087b4c37830f284d97680eb75e277313a02458ef5a13318737530d15a24747cdb5e02467dd305fc1d6eef4591a90b2d7d2140fad7b1abfc1f486cb7f542eef85b45759b50b4d4dc92287f211df55bc73704af574154a621e88e476fc1236d2f8eb3b8eb23d9593b4bc770a97cf76e210945b8da63051c605bc903158f03147f2d3cbd937a32096e321368172675f33914018c7b1a9546db18f44edd95131cb24a2201e645dace33014ac2ce6dd550d17d5c9e47524bbfade7248808ac35455363af51c69b0a1ee546770b22eec6a7e2c49d263470c0a744baf71edb007c38f2fff645e172fa5eed54401a548e0f3656699adb820dca808c22d052f8d37d6a105fd03a1122b67a7997e03d65d09d9878de8c3d92db458a09148e2ab19588c754ce61a187c8faaffddf5d9a3d9085032a8794292e8e60430c56d85065e0061edc2172f048144a232be9c1415b27ad6ac1d3adf32fc0ddf5d44dd9841208bbb71e98fec4d1f3969100f826877807b6f2c66e22d54fc7642d47270ba37efe5034c4a112de70fd5d785acc1c8b0f4f7f5f73f5c6e1b229c0c3872e6ab1821aac7846543e0b506da0a9f56206604d5350a0d461fb225ec5c2388bd5e92df29ceb33acddeeaab77cc6814180ef532ef9feb9ae2cad6be3ae28ae490e8f2890883b0839bbaa5391d199e4a9de0cbf893e8fc5dbcbce5d05d639ef794863608def9371886607ba46180e33b1dd17deb053ae4d24c92af58dc7d84ff2094c207a8de04833a62f6b43169bce872d799924177c95655c25903280e0197d470fbeb5011f46751e8c1de7369e2fbd958dfd4bdb3380f71b79e0330b9a203ec9069fd29c0ae6571b40c503b12beecc1e0bf55d6b325ab25835592c378e869ec1d112094fd344b090a051b1fc1aba06a27c596d80a5f2a4c8fb7d96105ba2b0ab0d6d95a6ed611777874f3c2f0aa61076a723936147495b9a3569caa316ac0863dbd39adb5d1b7de4bd341d4b5a696c6d745db701d8c48c1aebf39b5400d4d06c9106438aefc8a01c627dda6b6c85db36cc7f8f5b8e25c31ce10bc8e3837c35b35f8a406558cde47d65683886eb51b862a714f42bc5d3f6de8d97d99bc6ba8d181710ef3e9b1d53c280a007767aaf028d26a124c8228336c287615848948b235c12bd8795aadf8eb8237263114bbbc0d110f0f7c2687232e8405b0a3b2999a20718b5194789bd77e2a8d8632642b1ed8088eb8be545931369b17dcf0951dc97f8d106328a35d95731ffd006855c2921e891f3b3a45bb00c3deb6d3af831a6fbf3d3e285c5b6090a0eff6ccb600e540e89686303137cd2a153a599b92962792171270147d26ef0e6f3611119ec797bde0d4b413eda510ed9e5cadb67c1c312e0f559317a2b89f7a055e4c9ff2df4fa6fb49ed87b7d9a5533f04c0090ca64d0014f9df95ca5da9cc8be9c22b2d97b43e355ace44d1dd7b033cdf8ade062c82cfb83b5be2773f37b6e76ecb14a3d574bd7c33ba8d73ad7b69bf24436b8fd6177880e576c2168f68527411f6bc2d3531d4055753c2a555c70071ea069e903985690d71d54b94735571e4671f5e49296b1edac4de6e8fb841291f3f4a6b534ad6b5fc2f318def05732e63c1665577adcdcc2ec593d02a28e29130031cb0c2c75da3c26c0070969f4473c4c82ed6b88af961695b1e0752e147f62cf2ca651e20c386227a03f8938ef09e27daf589be6dc68052b431f045fa4b2fd92c1d2625e3a4e6db24d646187829f6a333177daadf77f6a5cff369d574f2f9106b3699e4951c7e368bc642f9a93d8d543be54006e3c710f71fd4a2e930b34bd74abff3a004ca6a89f4d598c9d0679e64d0da612409a397e6eef039371606a4249cd64455824402d6901ff8caae29afc483151438a7feb4939ec2c74481938609fc77e6eeb01b5c3369704ae467c709a5043cd358c63db0e6c970e3218ab83030999292ef1e4a1ff92ce8f80c4173c4f815a0691e7a11862943353154f226c39e8882ac27cd3d7c00ab432ca3ae603e94edcf3426b20b336e33d9ad56b62d27258c7338cc06e8dfd4a2c95da000aa257916bc33d4e0cb876674075bccf090fd7114b9d218e65628505228afcb91890f78cc911a1fb3f8c0f127f84d233ea5cc9e512854fdc64fa991aa4acb6bcbbb34f6e582fadc012114d5cc45e702f0dd9406b471b677deff94d82fef573cf4d77db9abd5d00298c5b46665f73300626894d13c3f18af3f4a5fd813932fdfbd561a2eab5c2402b97606d18a95958b14a68c93612f4c479b7f9221d252b49731147ac9f8cbbea6af4a1bb728326937d3235b256057ab86fdc1e394d073742732301f63b7d49eaf29a29f5b1898d0dac984f4e73f18cdbd45da5064cdc89a227ef49826adce3abdea550b6d8a486c8e10647fc58246a95d13fbb000679b7feaf02b6f4268cbc36596155ee3b0abf5db04c0d9131f0dd418ba371edd091ded8ddaeb626c9ea3328e44fe16a43bfb38007e9c806e881c66b7b7414d07ee1605c8fa55b95d7303d1616ccd91ee56bca237e4301a394657365e710907d465fb0cc720f9117cb57d354a703db1a33ff740d2695ad0c4cd1c01450b2748066b05010ccf10268a69e0b7d4b635ad8153dce3bab512fd8ac7605844d97cd1055d4b9ce8e00658e6daca508416a97252fb6495cf053df2126fd065079ce1dc3c2fd238842629a4cee16a5f20c86f0ba058ac39459b568bddde69c8530a53764431b50f9e6e27c800944b4532d2fe59eb2760d4d8f221269317fc6ad63eb251f8642ef53fd1e49c996779b3ba829b7d48252a252b5a4b6e47eb0013eda8e774f18e25465aad4c7d855e3e427df25c18226e6ad3339c0302e4646eedb1b403af34cda128dbdcf36cdf9f0887e7628f82c0692dd86799931ba585cf16eb02ee7530a1814a2a056135bc646337f5d36fe86916095d1bf3b445bf2d456a799cbe7e80d3bca3cb58ade667a1f5f9d9175cf8c31e6190fc5239e4a541fd16d82cd7724affd33817887d3b29c3264e47e0c69a320989ebba7cdaac9af3d7b5a4be4cd089b1e35fd8fbb7f85b5e70c51373b77ab4632cdccf34192cedc41eb62a7d813bd37a98faf65b98ce1469602d7b13c0061663a0b9c0a7490d844626354cd0023a824e10111f24252c393b687893bce3f1f2fdfe0103040f1926436f757ae50c3a595d616270727374768b989da8c0c4d1dcf0f60f33606d719598adb4b8bbbfc1c2c4ef000000000000000000000000000000111c314101",
        "0020c7550db1231c0f0974498b9972920bc4cf8b69f20c20283de4f9568cfb04a5c489f34b887c0b42528adf543008d802cd5ceac9a67ead24bc6daf0f48559c6a7ee69effa7a80a7ff613fd1fba64e4914b15c9c3f1f8e6da1a4420de66113dadd4e259dd032554b92d8aea22d00a9e9410d7e60c74d12abdcffe2c73793c55c097583c5163ab84285ba0dcde5172114e286136b8082c3aeda0bf5e5c1ddcd42e9478c8897d0a429f9243aa20637043698be13555f79619c1b1cf6b1e466a565689bb382ab8d4c66cb7d7c84fea090c545a90b443d5b176d247730eaa35d13be7c598d3170c8cc092171ff2dae92da4ea5136bf9e76e8211f0a9f4d346dcbb2b52c004d873a1a1b864cbd93a26e88d50186525e61938a173c301bd054a1b06be666f350e2c5f1f65b9d26001d14403a582e5b688afecba32e54379ac32cf2bda3dfab8aa3c6feb458ff60c1a1057b3c7213297ce1b5c40b200fc1a3041f74f7fbb6653b1029a40f2e5dcd4e7dfea27ca94fe28b6d507d430f0c173b24a1cb16ab1bb772c2d9d5c1bfc398c72d7f506b46a31063128c0c506bbeae751499c5dd11660c73c284173f5939dfd7e8e4627e661c468082d97683fd483bdcd84d88686726885a789d7daf43940a11b0a1405310da8abe5bea0d0a720a99551f74ba17c7b0ade7b72925b7e68880c05ab9a23d0fbf935de75907750b0cc7f60e85e152661c423dbec36028680c79d255ca16629eee679c67505eb5c57071e0369c5173a2c4292791df9d4c9e74a167c1c5eb2bfa01cdc85ee2f3fecb62c5a8e422275106341c0111335c97622af99cd8ab9162f675bbc636163a253f39a3b52a9341a3e8ece2a4846aaeb74849609d4fda275a4069132e93b07aa14724b77dc2971aabbbe22240d05f7b295a70cc2fb0e93a66ba838f866298e50277e0bb90d42f682c100eae2308077557e8b1833fce2a8e42541a0ecc4e2a7ab1ffe475cc112367c769b87d29bf399eb1735aa60672520be13848152443e24cc6ab8ab6c99b9aa3d876e20be9431f31a99878841368e25325df3ae57075524058304f78a06bdd9b0e15c5cac037336ac7a3fcb4e4d34be2e825b97d1b1cf71d72e5c8942ab0325292768a68be4bf23bbc7f5f092d7a754294f3c9c90a662a4b1eabf6a3d4557a5d67bdfdd875df9e16ed22c8e31f0dc7239beda33bdca15807be5682eecc60742032ae5e2b2cb63bd7ebb0ada115f473509e6123f3d4dd697bed67c65dcddaf3e1877e5ef20feed8b71c45726df519e203636f3960fd6ff1371b173b3302232d56ce9f30e77cccbc1de3d7d30710f2f8ea4a463aca6297ba190385c78169acbc2514533970abc20e653254a176f664789df20d3f14f6b612ad4fcf56290a06835a773f8aececdfdd8c9e1f838c0424f200bd6d5012256fe32f7a1c474ebc139a9d062e49eca41a9a90cd09bb3f104547d08b43b2b7ff09dc1a4c2a0b2d66c8131caec69db30d4f6e021983be6f023bfb39e18c3ddcb217800afa222a0aef9a7f2e36fbde42150bf3ff028d51b3bb5ec716c46578d69cb846a031a9ca5156d8ee8466be19287bde077fdbfe134123db398af60634ee4eafc6b4706498145527bbb7ae01c27fcb604e983d15209d571fecd50d3d50581878bd5279042ee2e63d05dcc26b8de99c175ab9064f6977b64674b2f68359a727107c32a772a4e2634645e72ab52ac437f6881d3a3cc446227c583f70d23925887efdfc5c44671dd7b1cd92b84f060a202e4c2347ddb42f3a176635cc698b380b1c9f62a5c82c9aff4d8d128abe81613be714d9831349cc08158cd7ed497c7ee8caef6a1e969a2409e6cddaaff8"
      ],
      "sequence": 4294967294
    }
  ],
  "vout": [
    {
      "value": 1.0,
      "n": 0,
      "scriptPubKey": {
        "asm": "OP_RETURN de144d8d84741731bceacb0e98fe10497b604106d9e159b5a619a6fe794aa9fe 67cb33031e4e5c5b82c60e27bd1d18e1c0e03b14f6ddacfbf5fc3a6ab9a2a64247eb13233e6e7c7ba2e62e079d3d38c1e0c01b34d6fd8cdbd5dc1a4a99828662278b73435e0e1c1bc2864e67fd5d58a180a07b54b69decbbb5bc7a2af9e2e60207ab53637e2e3c3be2a66e47dd7d7881a0805b7496bdcc9b959c5a0ad9c2c622e74bb3839ecedcdb02468ea73d9d98614060bb94765d2c7b757cbaea392226c2c76b93a3beeefcfb2266ae871dbdb84160409bb4567d0c5b555c9aca190206e2a70bf3c3de8e9c9b4206cee77dddd8210020fbd4361d6c3b353cfaaa79626682872bd3e3feaebcbb6226eec75dfdf8012000dbf4163d4c1b151cda8a594246a267cb33031e4e5c5b82c60e27bd1d18e1c0e03b14f6ddacfbf5fc3a6ab9a2a64247eb13233e6e7c7ba2e62e079d3d38c1e0c01b34d6fd8cdbd5dc1a4a99828662278b73435e0e1c1bc2864e67fd5d58a180a07b54b69decbbb5bc7a2af9e2e60207ab53637e2e3c3be2a66e47dd7d7881a0805b7496bdcc9b959c5a0ad9c2c622e74bb3839ecedcdb02468ea73d9d98614060bb94765d2c7b757cbaea392226c2c76b93a3beeefcfb2266ae871dbdb84160409bb4567d0c5b555c9aca190206e2a70bf3c3de8e9c9b4206cee77dddd8210020fbd4361d6c3b353cfaaa79626682872bd3e3feaebcbb6226eec75dfdf8012000dbf4163d4c1b151cda8a594246a267cb33031e4e5c5b82c60e27bd1d18e1c0e03b14f6ddacfbf5fc3a6ab9a2a64247eb13233e6e7c7ba2e62e079d3d38c1e0c01b34d6fd8cdbd5dc1a4a99828662278b73435e0e1c1bc2864e67fd5d58a180a07b54b69decbbb5bc7a2af9e2e60207ab53637e2e3c3be2a66e47dd7d7881a0805b7496bdcc9b959c5a0ad9c2c622e74bb3839ecedcdb02468ea73d9d98614060bb94765d2c7b757cbaea392226c2c76b93a3beeefcfb2266ae871dbdb84160409bb4567d0c5b555c9aca190206e2a70bf3c3de8e9c9b4206cee77dddd8210020fbd4361d6c3b353cfaaa79626682872bd3e3feaebcbb6226eec75dfdf8012000dbf4163d4c1b151cda8a594246a267cb33031e4e5c5b82c60e27bd1d18e1c0e03b14f6ddacfbf5fc3a6ab9a2a64247eb13233e6e7c7ba2e62e079d3d38c1e0c01b34d6fd8cdbd5dc1a4a99828662278b73435e0e1c1bc2864e67fd5d58a180a07b54b69decbbb5bc7a2af9e2e60207ab53637e2e3c3be2a66e47dd7d7881a0805b7496bdcc9b959c5a0ad9c2c622e74bb3839ecedcdb02468ea73d9d98614060bb94765d2c7b757cbaea392226c2c76b93a3beeefcfb2266ae871dbdb84160409bb4567d0c5b555c9aca190206e2a70bf3c3de8e9c9b4206cee77dddd8210020fbd4361d6c3b353cfaaa79626682872bd3e3feaebcbb6226eec75dfdf8012000dbf4163d4c1b151cda8a594246a267cb33031e4e5c5b82c60e27bd1d18e1c0e03b14f6ddacfbf5fc3a6ab9a2a64247eb13233e6e7c7ba2e62e079d3d38c1e0c01b34d6fd8cdbd5dc1a4a99828662278b73435e0e1c1bc2864e67fd5d58a180a07b54b69decbbb5bc7a2af9e2e60207ab53637e2e3c3be2a66e47dd7d7881a0805b7496bdcc9b959c5a0ad9c2c622e74bb3839ecedcdb02468ea73d9d986198a61eab14e3b4c37559d4b77616b4a441a3eac58aa3a737fcaae80bd7636633",
        "hex": "6a20de144d8d84741731bceacb0e98fe10497b604106d9e159b5a619a6fe794aa9fe4db00467cb33031e4e5c5b82c60e27bd1d18e1c0e03b14f6ddacfbf5fc3a6ab9a2a64247eb13233e6e7c7ba2e62e079d3d38c1e0c01b34d6fd8cdbd5dc1a4a99828662278b73435e0e1c1bc2864e67fd5d58a180a07b54b69decbbb5bc7a2af9e2e60207ab53637e2e3c3be2a66e47dd7d7881a0805b7496bdcc9b959c5a0ad9c2c622e74bb3839ecedcdb02468ea73d9d98614060bb94765d2c7b757cbaea392226c2c76b93a3beeefcfb2266ae871dbdb84160409bb4567d0c5b555c9aca190206e2a70bf3c3de8e9c9b4206cee77dddd8210020fbd4361d6c3b353cfaaa79626682872bd3e3feaebcbb6226eec75dfdf8012000dbf4163d4c1b151cda8a594246a267cb33031e4e5c5b82c60e27bd1d18e1c0e03b14f6ddacfbf5fc3a6ab9a2a64247eb13233e6e7c7ba2e62e079d3d38c1e0c01b34d6fd8cdbd5dc1a4a99828662278b73435e0e1c1bc2864e67fd5d58a180a07b54b69decbbb5bc7a2af9e2e60207ab53637e2e3c3be2a66e47dd7d7881a0805b7496bdcc9b959c5a0ad9c2c622e74bb3839ecedcdb02468ea73d9d98614060bb94765d2c7b757cbaea392226c2c76b93a3beeefcfb2266ae871dbdb84160409bb4567d0c5b555c9aca190206e2a70bf3c3de8e9c9b4206cee77dddd8210020fbd4361d6c3b353cfaaa79626682872bd3e3feaebcbb6226eec75dfdf8012000dbf4163d4c1b151cda8a594246a267cb33031e4e5c5b82c60e27bd1d18e1c0e03b14f6ddacfbf5fc3a6ab9a2a64247eb13233e6e7c7ba2e62e079d3d38c1e0c01b34d6fd8cdbd5dc1a4a99828662278b73435e0e1c1bc2864e67fd5d58a180a07b54b69decbbb5bc7a2af9e2e60207ab53637e2e3c3be2a66e47dd7d7881a0805b7496bdcc9b959c5a0ad9c2c622e74bb3839ecedcdb02468ea73d9d98614060bb94765d2c7b757cbaea392226c2c76b93a3beeefcfb2266ae871dbdb84160409bb4567d0c5b555c9aca190206e2a70bf3c3de8e9c9b4206cee77dddd8210020fbd4361d6c3b353cfaaa79626682872bd3e3feaebcbb6226eec75dfdf8012000dbf4163d4c1b151cda8a594246a267cb33031e4e5c5b82c60e27bd1d18e1c0e03b14f6ddacfbf5fc3a6ab9a2a64247eb13233e6e7c7ba2e62e079d3d38c1e0c01b34d6fd8cdbd5dc1a4a99828662278b73435e0e1c1bc2864e67fd5d58a180a07b54b69decbbb5bc7a2af9e2e60207ab53637e2e3c3be2a66e47dd7d7881a0805b7496bdcc9b959c5a0ad9c2c622e74bb3839ecedcdb02468ea73d9d98614060bb94765d2c7b757cbaea392226c2c76b93a3beeefcfb2266ae871dbdb84160409bb4567d0c5b555c9aca190206e2a70bf3c3de8e9c9b4206cee77dddd8210020fbd4361d6c3b353cfaaa79626682872bd3e3feaebcbb6226eec75dfdf8012000dbf4163d4c1b151cda8a594246a267cb33031e4e5c5b82c60e27bd1d18e1c0e03b14f6ddacfbf5fc3a6ab9a2a64247eb13233e6e7c7ba2e62e079d3d38c1e0c01b34d6fd8cdbd5dc1a4a99828662278b73435e0e1c1bc2864e67fd5d58a180a07b54b69decbbb5bc7a2af9e2e60207ab53637e2e3c3be2a66e47dd7d7881a0805b7496bdcc9b959c5a0ad9c2c622e74bb3839ecedcdb02468ea73d9d986198a61eab14e3b4c37559d4b77616b4a441a3eac58aa3a737fcaae80bd7636633",
        "type": "nulldata"
      }
    },
    {
      "value": 499995.9324,
      "n": 1,
      "scriptPubKey": {
        "asm": "1 32c9b6e26bfd5bde0ad65ebb0ba4fcec365ff57205f2677c840c9a568c32fcce",
        "hex": "512032c9b6e26bfd5bde0ad65ebb0ba4fcec365ff57205f2677c840c9a568c32fcce",
        "reqSigs": 1,
        "type": "witness_v1_scripthash",
        "addresses": [
          "3QJmnh"
        ]
      }
    }
  ],
  "blockhash": "32a2d379a33ec88ae1cb3a8a1a44f2d12b76aebf574ecf7ac16b289397ed6cd9",
  "confirmations": 1,
  "time": 1764176557,
  "blocktime": 1764176557
}