{
  "hex": "010000000001017e72001cd7cf2fe4372bda51b4695bf720a659fe24cefa1e53a9290629ebeb240100000000feffffff0200e1f50500000000fdd5046a20279d380b6d9c28e10bc9373fad6aeb474f6961e9002dc1e08a38035bfd0fb6f34db00404edf2e419d92d09ca2bea0b5ea861769da9d0c7fab3287d2c72411b3e3424e124cdd2c439f90d29ea0bca2b7e884156bd89f0e7da93085d0c52613b1e1404c144adb2a459996d498a6baa4b1ee82136dde99087baf3683d6c32015b7e7464a1648d928479b94d69aa4b8a6b3ec80116fdc9b0a79ad3481d4c12217b5e544481846d72649959ad894aab6a8bde28e1f61d2950477a33a8fdacf2c19bbeb4a461a44d5244b9798da96a8b4aabfe08c1d63d0970675a1388dd8cd2e1bb9e948441c42d3224d919edc90aeb2acb9e68a1b65d6910073a73e8bdecb281dbfef4e421e40d1204f939cde92acb0aebbe4881967d4930271a53c89dcc92a1fbded4c40104edf2e419d92d09ca2bea0b5ea861769da9d0c7fab3287d2c72411b3e3424e124cdd2c439f90d29ea0bca2b7e884156bd89f0e7da93085d0c52613b1e1404c144adb2a459996d498a6baa4b1ee82136dde99087baf3683d6c32015b7e7464a1648d928479b94d69aa4b8a6b3ec80116fdc9b0a79ad3481d4c12217b5e544481846d72649959ad894aab6a8bde28e1f61d2950477a33a8fdacf2c19bbeb4a461a44d5244b9798da96a8b4aabfe08c1d63d0970675a1388dd8cd2e1bb9e948441c42d3224d919edc90aeb2acb9e68a1b65d6910073a73e8bdecb281dbfef4e421e40d1204f939cde92acb0aebbe4881967d4930271a53c89dcc92a1fbded4c40104edf2e419d92d09ca2bea0b5ea861769da9d0c7fab3287d2c72411b3e3424e124cdd2c439f90d29ea0bca2b7e884156bd89f0e7da93085d0c52613b1e1404c144adb2a459996d498a6baa4b1ee82136dde99087baf3683d6c32015b7e7464a1648d928479b94d69aa4b8a6b3ec80116fdc9b0a79ad3481d4c12217b5e544481846d72649959ad894aab6a8bde28e1f61d2950477a33a8fdacf2c19bbeb4a461a44d5244b9798da96a8b4aabfe08c1d63d0970675a1388dd8cd2e1bb9e948441c42d3224d919edc90aeb2acb9e68a1b65d6910073a73e8bdecb281dbfef4e421e40d1204f939cde92acb0aebbe4881967d4930271a53c89dcc92a1fbded4c40104edf2e419d92d09ca2bea0b5ea861769da9d0c7fab3287d2c72411b3e3424e124cdd2c439f90d29ea0bca2b7e884156bd89f0e7da93085d0c52613b1e1404c144adb2a459996d498a6baa4b1ee82136dde99087baf3683d6c32015b7e7464a1648d928479b94d69aa4b8a6b3ec80116fdc9b0a79ad3481d4c12217b5e544481846d72649959ad894aab6a8bde28e1f61d2950477a33a8fdacf2c19bbeb4a461a44d5244b9798da96a8b4aabfe08c1d63d0970675a1388dd8cd2e1bb9e948441c42d3224d919edc90aeb2acb9e68a1b65d6910073a73e8bdecb281dbfef4e421e40d1204f939cde92acb0aebbe4881967d4930271a53c89dcc92a1fbded4c40104edf2e419d92d09ca2bea0b5ea861769da9d0c7fab3287d2c72411b3e3424e124cdd2c439f90d29ea0bca2b7e884156bd89f0e7da93085d0c52613b1e1404c144adb2a459996d498a6baa4b1ee82136dde99087baf3683d6c32015b7e7464a1648d928479b94d69aa4b8a6b3ec80116fdc9b0a79ad3481d4c12217b5e544481846d72649959ad894aab6a8bde28e1f6ed610c26a89d290578622ec06509adf8dee6d3861fa21377a7f4216e5f6ae79450ce18b4782d00002251205a587e41417fe28465a3a45840e7e63186ad3d8435e8ca306393c21624d5168402fd7509292b9dc17899545b89c263b8c7abef9bc57df9d79b196a409a962b5efe45a453c6b5bbb009c485bc93386868a3495ece689fa97348f3a7fb5158ae5738eedcd92eae2a3eb5b32b7885f5cc0d979743849f614245faa09885bf8df9f30289594a2b919aa5bd1180f649bb2364ae96346b2583a27aea635610ad99342cad478423c8aa168534db041451b7ef1594e89b0818461ad437b72a5cde649cd8d73a7d3124f9292ee97b933910d3e882e75785746546e2e9e529de6af7951e8d185debe299a28a9b9027217a70dcd616966bb8a20a3c2e3282168ce727610dc688796c4235efb850d63698ae73f0961b3a23c776ba04fda7a216530a5a278671074f11df1bf4bbd6165cccf4361d9d3d76966e52b4b20c09a1395a891fbe36fe220be18acb344c41de108ea7700ec94f81d3a1b208945d8f9723b8de5d3b40209655cd420cf5c8a814ec2e31875c1458e700b00fb66228eac79db76a9f203cbbc1084d5c63c1554ad94ed371f5253903d57c43b031382505abd6d9ce7bf67528789f0a42bc7e97ae86b8ebf708ea86622436a9ea3f2aaf70df9cc7d32e3b1ef145e47bbcb280c0c1ab5541671c67b22c86cbc89ab43127870c115bf114c579e4f3983f12a58abfc70856a3706fd55c85f63b06db403cae19cd18a6f75086c7349febe1449375ec8504005d5e55649fa7cb95c1a3237eaf3a42a3d7649326edd44c7bb10ede6cbab9490c2a8f0ddb4f94cb4000e01261f96a15b3eefd87aae78d8661cc2330a2bbbe27ea7ce876ca55ac05d13c062d65c5740dafb78332d0457923e413589f6bad2920d4ef5a6011c1cad858a1655b46de5405b28abd607e79c0655ef1b01489bd625f14e7a9d129e5d47c9adddf3b80994e02cd99d946d91ced250773d6cf660c443e25391518d757e71c747cf3ca304ccc74162a0fb0181892124db2bfb978469b42f0f91989340c7f1c634c5cbd2ce2e83b729b9bbc27519e3a3c5c2616fe66507204dd7b1702a0711dbff1b8f5605ad1359c92c9e8e9ff11c0aa697075028c4688e53b6418fa31bc7a041dfb88ad66d2888f85fc449a338c5b8fd0986df28f6118e8135b06b39921865ee177d9a08bb0ff0872ea817ea4fb34131cbe20fc72361ac4d5446ae393deeefc5e3ba38acd5c33a8daa7bdce743b0be042ecdb0ac3c57b7d133f808cb44bf1f04c7dce3f5a489a07eeb474d8f86367ff04fa17ee854a3dbef70067399c0f5be37db40892bcf62763028dcf7d81255bf199238ca882438e9d66ad91882cf3cfc3cb9852d02e0c231776cfaa96f7ea78845f16638db0d1bedbf9cf2ef318eba09f4155317827e13c4558b33e85dc88bf69d09ea60e804fa926d0c7e74fd2bb3364b3c36a799706d8425cd94dafd78047628864e92e4c3ca0ca8a809c57a8d2b535e7db7d10cf2f6e5e177bd0224356d3fb1a7e3067a2a549a38ea10efac15d9905450c9f584f285bce8eaf92df86a0347dfba052ccffdba6c3eaf5ebe9dd282cf46a1865a24e61d72de43824e7dde9fb72ccffc5e4356e3c547411591f934e5f8bf18bfa44a877fb84724df8600ce95080c78bce9713239c56b7e928e703e1973e3253f315cd5fba0c705bb37573607645fca7c89b7f5ec4f09e839c3d37a5e40b6aeea0b2b7166cde173a5105abdcaaea4c6574357936effcad2181fb52c18baf76cf79b35b186b64ea2d1c156e8b2995df38f4e218ebb25d348dd86fb2e0bec23089623497ee7731db7552e172e71925cbb446800b2414da43925625d66b6cf26eb21e35a99bccf8618807b6ce26131e5742d0631b5da30f8466f28f10b463e60bb3d701fa6ff2adb058969a62c5f33bc3316d4da5f3134db6c83048147af5327f6923085014310951e657a3a0f84c9ebca6156a1ac5457f401b1b6c34ee8b3716164baf163cef1fdad348707e59f0f9a8d2e0ab43ea82c5699fa17460ed69265a0b29b826fc0f3c8494109d66ade8dcc77c50e46116c23dfc74049903c25b31e8e7eb9445572b33ecf53377cc1e131fd7b3d97b98ae1a27d1bce8c6f56955524ae9c07f4dc058e8cc9639178b1fdb4421427d642b497c968137887383a5b92fe284317d62fd186a949941560f813880b7db22e8ed5b5d27cb744441091c29f86aac4b6b34614d5f622bf688e92e2018b2ea6039c6451c8e560300389a3aec0e1cde169f2cd5f9a01caa2b4f497068e1cbadb1bd165551cead71bd770ee971430978b2ba7e4cc83ef691aa1f20e36addb24dd4a17153bc5f08ec65f171141d12fb9b40d7207235e955a8e0a979d17c1fc80fb825004b312922019c31174e110c178a2efbc14f7bddf2021ff1018b784bd5aa2fa766aabc63ddd72946e13c7b07bdd0912cc1ee01aa91e32570a7e355e03b8a435aa1f7ac7911d5acda8871905106a5c4bc1dd0b7418c2c784f98e9c97c652453c139f9310c4fec81f1478cac83dca70014442302d809543995c0e6c991be0df10943df535ed6ff3df91a73092b3b3db1fa5f590346f1b4d42f880f34324326dddc88e346b81954e4ea544f6eec7f726cbd302f7a24db1c0c22d4b530cc0a4434d96b5802f680ed3ebd25670d6941f45421ec762491ddd55a48faccfecafedfeaf257c80fb4074673a213190358e89c2b5e46de109710b73fd96884f2bf6540d1dbc2fa70f02a6a154f44e9071328f56c92413931e123d8125f4d02dc71fa8a1d1a99e5c2feaca0597d19c0ec46e0b272f84a755cde7957be8dc66db5470b10ad4cbeec681df6cde29720fc0566680f4e28bb5324efa36b3861d77c2fc215c44dbe14c8d61f5995ee3952f51d319569643bb84af59257acff0c0bd1197847ca703fbe7309a13907884c2ddc663350e3767278c18328aac477e1203fb5da3a084f2c8d99f360c8fdb4dcf1b72c7b06f2ccf1835a7ba12fbadbf6bda128eeec5dda8e3e72542a2bd0f07d2410db13351ce2524802543d4f9a38fe87a99280c640539b7d8fb52632089007787029218bd16ccb5411790d0dbb9674c76a7f05354d1d82d12ca8f704df4ac0ba5e91873911baeaa87daf1bcd755b7aa77dae732525b1a9d8646299bb7f5bdba1f5a2799b63efb8fdea8cb9ac638f865e75e99ca4fc37d000e3fb02274d2d7ccd13d340f995c93a851f061890f23a86abee09bd842e15ff87a2df22532f9ff7f91e12402afb0d69eb0209055b905f3276d4535f8af23ac2ad369e46189630e0a877e43ef8b7824e0178edf2962b8536198c3aa740b0a41f3dd61888f42fa50673a8bfe65915d54c4ad59ea2063d07bc22cbf352a2b93646494c5c607b80afd511205e7f939da8e2ea0d161b38444c5f6569739ea1a3b6c6cdd3eaf50e1018384a4b7576838f909ab0b1b7c900000000000000000000000000000000000000000000000000000a13263601fd210500a953019a7ea6a0f7ff4e8a8ac171952cfac6a73cec156a1b1b002a4242b8752b5adbb3619bd04e20d3e6994b57aec61a1ec3e946294f45e87103351b360b6611a1a6b120126b10b9a7305e9482333cda660f4fd02d5606a9cd3c93f0dd6e6527f8a8e79700975544f1d984fcf36a2d0f4dee202fa4aa3ac28459916e3833c7912633abdc943a926f5ac45369e06038f4a2693279659bb1b8ccd5d1e9e0ee4732b60654368e9c42a8bd0dc08784eb196076adfb0ce6336e59d57d5ac294177162acc7ee72a07c080d7559a033d01c919f37bccfcc5905a8ce269ff9b251b9bd8885c42d2a4490e1dab4f2187be093fa79f77eae423427a6e147dc84d691907255e56fbe2fd566c9b64558efaf8bfebb330fe8b0e68dd6a2ad327883d2c72bc722424d8b81dce37d722764f66369d5f70578cca2042ab9d3bf2916a100b33cbc89dce8bce58eb94e5d2bc99d43e18067c0ea8893c97a78e7a23797624896262fd0bc474f55399b1e7770bb697373079f2c12e0fb8285ec41da8dd50beecacd69f9332da591bffa33c7d482f10c1dc77ad51e68b2974a7f776d543a6ec5ac0f4c1888d130016f00aa864c2c93df2d5c7b4d0dad7ecc3791e40fd9c8128730c62c53e2e7eb47b9a69355236c0032e1d4b4252deeebbf5dbcb82ba9a9abb139f1762d9bc801e1e25999c3bee389e8acbb743461677207daa69cd0b722af8eb27e2e11cda4c1a2d5b9240543f9da1d3944a70c880ee3f36db625783bed0fc7a75f371f0034a7746bd21b7c4b2898e5e5fc007cb629d908a877666601bb29ad45a021324c2a6bc65c1ac1a3517c3d3d9ee76a0c2996aeae2a13bbd6d7e3b227157d0bd298913e3301ebeebd228d0ac9a88d5b03d11622f378d6806bc2c637e658c2b37f45a1c8af645a879fe08f3b85dae5a896555e6e566abdefa3e8114ebea6708bfbcc5c602325193d5144ca884b2ef4dc6df39585ff7c66198185e11018b2df0eead01c96301a592039b89602c1ff963818a4db625a8332edc2fb96117d71065727e5d017b555068028f76036097160e109fdf467396f251bc3427ad7d29836366cb66dc48e3b0ae8a07365c1c896efe3677a3fa57aea786b4eb4360d9b2ed32309fddb5e58d7a2f07cb835f11f3b6d797cd3be74f6675ff19d51e222c6663b7e5c524c382d7749b4093c8e682e33c82d3d26cf75a8bac746d1836c4bc89aa14ca70c5807cc804441e9db33e1306e4119025558a4e40eca898e3f195464300a40beedb13eb4d726eebcc60a4383bf4934456464c97abcd95080fa70d6f723c7c2b24b96c36e0fcfb05f2b4241b017d4d9d32cf1d88fc06312584437f82d8a79f23e794b924dd0186471f21c543e03ab0b69781b1acf1b49e5fad2f351a07cdff091d35853da2394f404ac58ee5776a9dadc931b61d186d050328c6923397e81d7d788d6e576802880555db2dbe78b92d94f4658eed3a87f3d06bdfc42081dc8233e68511b155dd47741f6eff9ba8eb2427f2f6aa67805410d01d649f269786cc445baee6833ca04c9b5e01cd9dd77c1fb6a47778bfafd703e7042fbd5b7d794cc1515c3d26ea2c83410662b0404603249e8c0c0739c1d94ba2d87d34b3201cb90311584571cb2143e4ede7be5e773c5170faaae5a8f50f9a0a175afd8038b466ad6926d6468c37f5b88db72f1600a4602d5020bc194ed5b93e1c8f7e23e7065d46bc6944fe64782b74be4d982d2ece0d2b6d025da3cde10ea15baa6a30a2d2dbd1835151b5eec62659156cd19656a1687e04081671f307b16f021233bcd00a15af812288984cee0b587cde2ec0e78f28fd269422dc78da2283376dec51c4842e11c59000000",
  "txid": "f3246c0d0317c254afa105ee36ec6d9c825ef706a0bdeaa7760d8ab4bcc7f9f0",
  "hash": "a35ae085d8f2073f7cb3ba884b32c680ddd156307de33351a4c3cecd3d7dc4d2",
  "size": 5085,
  "vsize": 2278,
  "version": 1,
  "locktime": 89,
  "vin": [
    {
      "txid": "24ebeb290629a9531eface24fe59a620f75b69b451da2b37e42fcfd71c00727e",
      "vout": 1,
      "scriptSig": {
        "asm": "",
        "hex": ""
      },
      "txinwitness": [
        "292b9dc17899545b89c263b8c7abef9bc57df9d79b196a409a962b5efe45a453c6b5bbb009c485bc93386868a3495ece689fa97348f3a7fb5158ae5738eedcd92eae2a3eb5b32b7885f5cc0d979743849f614245faa09885bf8df9f30289594a2b919aa5bd1180f649bb2364ae96346b2583a27aea635610ad99342cad478423c8aa168534db041451b7ef1594e89b0818461ad437b72a5cde649cd8d73a7d3124f9292ee97b933910d3e882e75785746546e2e9e529de6af7951e8d185debe299a28a9b9027217a70dcd616966bb8a20a3c2e3282168ce727610dc688796c4235efb850d63698ae73f0961b3a23c776ba04fda7a216530a5a278671074f11df1bf4bbd6165cccf4361d9d3d76966e52b4b20c09a1395a891fbe36fe220be18acb344c41de108ea7700ec94f81d3a1b208945d8f9723b8de5d3b40209655cd420cf5c8a814ec2e31875c1458e700b00fb66228eac79db76a9f203cbbc1084d5c63c1554ad94ed371f5253903d57c43b031382505abd6d9ce7bf67528789f0a42bc7e97ae86b8ebf708ea86622436a9ea3f2aaf70df9cc7d32e3b1ef145e47bbcb280c0c1ab5541671c67b22c86cbc89ab43127870c115bf114c579e4f3983f12a58abfc70856a3706fd55c85f63b06db403cae19cd18a6f75086c7349febe1449375ec8504005d5e55649fa7cb95c1a3237eaf3a42a3d7649326edd44c7bb10ede6cbab9490c2a8f0ddb4f94cb4000e01261f96a15b3eefd87aae78d8661cc2330a2bbbe27ea7ce876ca55ac05d13c062d65c5740dafb78332d0457923e413589f6bad2920d4ef5a6011c1cad858a1655b46de5405b28abd607e79c0655ef1b01489bd625f14e7a9d129e5d47c9adddf3b80994e02cd99d946d91ced250773d6cf660c443e25391518d757e71c747cf3ca304ccc74162a0fb0181892124db2bfb978469b42f0f91989340c7f1c634c5cbd2ce2e83b729b9bbc27519e3a3c5c2616fe66507204dd7b1702a0711dbff1b8f5605ad1359c92c9e8e9ff11c0aa697075028c4688e53b6418fa31bc7a041dfb88ad66d2888f85fc449a338c5b8fd0986df28f6118e8135b06b39921865ee177d9a08bb0ff0872ea817ea4fb34131cbe20fc72361ac4d5446ae393deeefc5e3ba38acd5c33a8daa7bdce743b0be042ecdb0ac3c57b7d133f808cb44bf1f04c7dce3f5a489a07eeb474d8f86367ff04fa17ee854a3dbef70067399c0f5be37db40892bcf62763028dcf7d81255bf199238ca882438e9d66ad91882cf3cfc3cb9852d02e0c231776cfaa96f7ea78845f16638db0d1bedbf9cf2ef318eba09f4155317827e13c4558b33e85dc88bf69d09ea60e804fa926d0c7e74fd2bb3364b3c36a799706d8425cd94dafd78047628864e92e4c3ca0ca8a809c57a8d2b535e7db7d10cf2f6e5e177bd0224356d3fb1a7e3067a2a549a38ea10efac15d9905450c9f584f285bce8eaf92df86a0347dfba052ccffdba6c3eaf5ebe9dd282cf46a1865a24e61d72de43824e7dde9fb72ccffc5e4356e3c547411591f934e5f8bf18bfa44a877fb84724df8600ce95080c78bce9713239c56b7e928e703e1973e3253f315cd5fba0c705bb37573607645fca7c89b7f5ec4f09e839c3d37a5e40b6aeea0b2b7166cde173a5105abdcaaea4c6574357936effcad2181fb52c18baf76cf79b35b186b64ea2d1c156e8b2995df38f4e218ebb25d348dd86fb2e0bec23089623497ee7731db7552e172e71925cbb446800b2414da43925625d66b6cf26eb21e35a99bccf8618807b6ce26131e5742d0631b5da30f8466f28f10b463e60bb3d701fa6ff2adb058969a62c5f33bc3316d4da5f3134db6c83048147af5327f6923085014310951e657a3a0f84c9ebca6156a1ac5457f401b1b6c34ee8b3716164baf163cef1fdad348707e59f0f9a8d2e0ab43ea82c5699fa17460ed69265a0b29b826fc0f3c8494109d66ade8dcc77c50e46116c23dfc74049903c25b31e8e7eb9445572b33ecf53377cc1e131fd7b3d97b98ae1a27d1bce8c6f56955524ae9c07f4dc058e8cc9639178b1fdb4421427d642b497c968137887383a5b92fe284317d62fd186a949941560f813880b7db22e8ed5b5d27cb744441091c29f86aac4b6b34614d5f622bf688e92e2018b2ea6039c6451c8e560300389a3aec0e1cde169f2cd5f9a01caa2b4f497068e1cbadb1bd165551cead71bd770ee971430978b2ba7e4cc83ef691aa1f20e36addb24dd4a17153bc5f08ec65f171141d12fb9b40d7207235e955a8e0a979d17c1fc80fb825004b312922019c31174e110c178a2efbc14f7bddf2021ff1018b784bd5aa2fa766aabc63ddd72946e13c7b07bdd0912cc1ee01aa91e32570a7e355e03b8a435aa1f7ac7911d5acda8871905106a5c4bc1dd0b7418c2c784f98e9c97c652453c139f9310c4fec81f1478cac83dca70014442302d809543995c0e6c991be0df10943df535ed6ff3df91a73092b3b3db1fa5f590346f1b4d42f880f34324326dddc88e346b81954e4ea544f6eec7f726cbd302f7a24db1c0c22d4b530cc0a4434d96b5802f680ed3ebd25670d6941f45421ec762491ddd55a48faccfecafedfeaf257c80fb4074673a213190358e89c2b5e46de109710b73fd96884f2bf6540d1dbc2fa70f02a6a154f44e9071328f56c92413931e123d8125f4d02dc71fa8a1d1a99e5c2feaca0597d19c0ec46e0b272f84a755cde7957be8dc66db5470b10ad4cbeec681df6cde29720fc0566680f4e28bb5324efa36b3861d77c2fc215c44dbe14c8d61f5995ee3952f51d319569643bb84af59257acff0c0bd1197847ca703fbe7309a13907884c2ddc663350e3767278c18328aac477e1203fb5da3a084f2c8d99f360c8fdb4dcf1b72c7b06f2ccf1835a7ba12fbadbf6bda128eeec5dda8e3e72542a2bd0f07d2410db13351ce2524802543d4f9a38fe87a99280c640539b7d8fb52632089007787029218bd16ccb5411790d0dbb9674c76a7f05354d1d82d12ca8f704df4ac0ba5e91873911baeaa87daf1bcd755b7aa77dae732525b1a9d8646299bb7f5bdba1f5a2799b63efb8fdea8cb9ac638f865e75e99ca4fc37d000e3fb02274d2d7ccd13d340f995c93a851f061890f23a86abee09bd842e15ff87a2df22532f9ff7f91e12402afb0d69eb0209055b905f3276d4535f8af23ac2ad369e46189630e0a877e43ef8b7824e0178edf2962b8536198c3aa740b0a41f3dd61888f42fa50673a8bfe65915d54c4ad59ea2063d07bc22cbf352a2b93646494c5c607b80afd511205e7f939da8e2ea0d161b38444c5f6569739ea1a3b6c6cdd3eaf50e1018384a4b7576838f909ab0b1b7c900000000000000000000000000000000000000000000000000000a13263601",
        "00a953019a7ea6a0f7ff4e8a8ac171952cfac6a73cec156a1b1b002a4242b8752b5adbb3619bd04e20d3e6994b57aec61a1ec3e946294f45e87103351b360b6611a1a6b120126b10b9a7305e9482333cda660f4fd02d5606a9cd3c93f0dd6e6527f8a8e79700975544f1d984fcf36a2d0f4dee202fa4aa3ac28459916e3833c7912633abdc943a926f5ac45369e06038f4a2693279659bb1b8ccd5d1e9e0ee4732b60654368e9c42a8bd0dc08784eb196076adfb0ce6336e59d57d5ac294177162acc7ee72a07c080d7559a033d01c919f37bccfcc5905a8ce269ff9b251b9bd8885c42d2a4490e1dab4f2187be093fa79f77eae423427a6e147dc84d691907255e56fbe2fd566c9b64558efaf8bfebb330fe8b0e68dd6a2ad327883d2c72bc722424d8b81dce37d722764f66369d5f70578cca2042ab9d3bf2916a100b33cbc89dce8bce58eb94e5d2bc99d43e18067c0ea8893c97a78e7a23797624896262fd0bc474f55399b1e7770bb697373079f2c12e0fb8285ec41da8dd50beecacd69f9332da591bffa33c7d482f10c1dc77ad51e68b2974a7f776d543a6ec5ac0f4c1888d130016f00aa864c2c93df2d5c7b4d0dad7ecc3791e40fd9c8128730c62c53e2e7eb47b9a69355236c0032e1d4b4252deeebbf5dbcb82ba9a9abb139f1762d9bc801e1e25999c3bee389e8acbb743461677207daa69cd0b722af8eb27e2e11cda4c1a2d5b9240543f9da1d3944a70c880ee3f36db625783bed0fc7a75f371f0034a7746bd21b7c4b2898e5e5fc007cb629d908a877666601bb29ad45a021324c2a6bc65c1ac1a3517c3d3d9ee76a0c2996aeae2a13bbd6d7e3b227157d0bd298913e3301ebeebd228d0ac9a88d5b03d11622f378d6806bc2c637e658c2b37f45a1c8af645a879fe08f3b85dae5a896555e6e566abdefa3e8114ebea6708bfbcc5c602325193d5144ca884b2ef4dc6df39585ff7c66198185e11018b2df0eead01c96301a592039b89602c1ff963818a4db625a8332edc2fb96117d71065727e5d017b555068028f76036097160e109fdf467396f251bc3427ad7d29836366cb66dc48e3b0ae8a07365c1c896efe3677a3fa57aea786b4eb4360d9b2ed32309fddb5e58d7a2f07cb835f11f3b6d797cd3be74f6675ff19d51e222c6663b7e5c524c382d7749b4093c8e682e33c82d3d26cf75a8bac746d1836c4bc89aa14ca70c5807cc804441e9db33e1306e4119025558a4e40eca898e3f195464300a40beedb13eb4d726eebcc60a4383bf4934456464c97abcd95080fa70d6f723c7c2b24b96c36e0fcfb05f2b4241b017d4d9d32cf1d88fc06312584437f82d8a79f23e794b924dd0186471f21c543e03ab0b69781b1acf1b49e5fad2f351a07cdff091d35853da2394f404ac58ee5776a9dadc931b61d186d050328c6923397e81d7d788d6e576802880555db2dbe78b92d94f4658eed3a87f3d06bdfc42081dc8233e68511b155dd47741f6eff9ba8eb2427f2f6aa67805410d01d649f269786cc445baee6833ca04c9b5e01cd9dd77c1fb6a47778bfafd703e7042fbd5b7d794cc1515c3d26ea2c83410662b0404603249e8c0c0739c1d94ba2d87d34b3201cb90311584571cb2143e4ede7be5e773c5170faaae5a8f50f9a0a175afd8038b466ad6926d6468c37f5b88db72f1600a4602d5020bc194ed5b93e1c8f7e23e7065d46bc6944fe64782b74be4d982d2ece0d2b6d025da3cde10ea15baa6a30a2d2dbd1835151b5eec62659156cd19656a1687e04081671f307b16f021233bcd00a15af812288984cee0b587cde2ec0e78f28fd269422dc78da2283376dec51c4842e11c"
      ],
      "sequence": 4294967294
    }
  ],
  "vout": [
    {
      "value": 1.0,
      "n": 0,
      "scriptPubKey": {
        "asm": "OP_RETURN 279d380b6d9c28e10bc9373fad6aeb474f6961e9002dc1e08a38035bfd0fb6f3 04edf2e419d92d09ca2bea0b5ea861769da9d0c7fab3287d2c72411b3e3424e124cdd2c439f90d29ea0bca2b7e884156bd89f0e7da93085d0c52613b1e1404c144adb2a459996d498a6baa4b1ee82136dde99087baf3683d6c32015b7e7464a1648d928479b94d69aa4b8a6b3ec80116fdc9b0a79ad3481d4c12217b5e544481846d72649959ad894aab6a8bde28e1f61d2950477a33a8fdacf2c19bbeb4a461a44d5244b9798da96a8b4aabfe08c1d63d0970675a1388dd8cd2e1bb9e948441c42d3224d919edc90aeb2acb9e68a1b65d6910073a73e8bdecb281dbfef4e421e40d1204f939cde92acb0aebbe4881967d4930271a53c89dcc92a1fbded4c40104edf2e419d92d09ca2bea0b5ea861769da9d0c7fab3287d2c72411b3e3424e124cdd2c439f90d29ea0bca2b7e884156bd89f0e7da93085d0c52613b1e1404c144adb2a459996d498a6baa4b1ee82136dde99087baf3683d6c32015b7e7464a1648d928479b94d69aa4b8a6b3ec80116fdc9b0a79ad3481d4c12217b5e544481846d72649959ad894aab6a8bde28e1f61d2950477a33a8fdacf2c19bbeb4a461a44d5244b9798da96a8b4aabfe08c1d63d0970675a1388dd8cd2e1bb9e948441c42d3224d919edc90aeb2acb9e68a1b65d6910073a73e8bdecb281dbfef4e421e40d1204f939cde92acb0aebbe4881967d4930271a53c89dcc92a1fbded4c40104edf2e419d92d09ca2bea0b5ea861769da9d0c7fab3287d2c72411b3e3424e124cdd2c439f90d29ea0bca2b7e884156bd89f0e7da93085d0c52613b1e1404c144adb2a459996d498a6baa4b1ee82136dde99087baf3683d6c32015b7e7464a1648d928479b94d69aa4b8a6b3ec80116fdc9b0a79ad3481d4c12217b5e544481846d72649959ad894aab6a8bde28e1f61d2950477a33a8fdacf2c19bbeb4a461a44d5244b9798da96a8b4aabfe08c1d63d0970675a1388dd8cd2e1bb9e948441c42d3224d919edc90aeb2acb9e68a1b65d6910073a73e8bdecb281dbfef4e421e40d1204f939cde92acb0aebbe4881967d4930271a53c89dcc92a1fbded4c40104edf2e419d92d09ca2bea0b5ea861769da9d0c7fab3287d2c72411b3e3424e124cdd2c439f90d29ea0bca2b7e884156bd89f0e7da93085d0c52613b1e1404c144adb2a459996d498a6baa4b1ee82136dde99087baf3683d6c32015b7e7464a1648d928479b94d69aa4b8a6b3ec80116fdc9b0a79ad3481d4c12217b5e544481846d72649959ad894aab6a8bde28e1f61d2950477a33a8fdacf2c19bbeb4a461a44d5244b9798da96a8b4aabfe08c1d63d0970675a1388dd8cd2e1bb9e948441c42d3224d919edc90aeb2acb9e68a1b65d6910073a73e8bdecb281dbfef4e421e40d1204f939cde92acb0aebbe4881967d4930271a53c89dcc92a1fbded4c40104edf2e419d92d09ca2bea0b5ea861769da9d0c7fab3287d2c72411b3e3424e124cdd2c439f90d29ea0bca2b7e884156bd89f0e7da93085d0c52613b1e1404c144adb2a459996d498a6baa4b1ee82136dde99087baf3683d6c32015b7e7464a1648d928479b94d69aa4b8a6b3ec80116fdc9b0a79ad3481d4c12217b5e544481846d72649959ad894aab6a8bde28e1f6ed610c26a89d290578622ec06509adf8dee6d3861fa21377a7f4216e5f6ae794",
        "hex": "6a20279d380b6d9c28e10bc9373fad6aeb474f6961e9002dc1e08a38035bfd0fb6f34db00404edf2e419d92d09ca2bea0b5ea861769da9d0c7fab3287d2c72411b3e3424e124cdd2c439f90d29ea0bca2b7e884156bd89f0e7da93085d0c52613b1e1404c144adb2a459996d498a6baa4b1ee82136dde99087baf3683d6c32015b7e7464a1648d928479b94d69aa4b8a6b3ec80116fdc9b0a79ad3481d4c12217b5e544481846d72649959ad894aab6a8bde28e1f61d2950477a33a8fdacf2c19bbeb4a461a44d5244b9798da96a8b4aabfe08c1d63d0970675a1388dd8cd2e1bb9e948441c42d3224d919edc90aeb2acb9e68a1b65d6910073a73e8bdecb281dbfef4e421e40d1204f939cde92acb0aebbe4881967d4930271a53c89dcc92a1fbded4c40104edf2e419d92d09ca2bea0b5ea861769da9d0c7fab3287d2c72411b3e3424e124cdd2c439f90d29ea0bca2b7e884156bd89f0e7da93085d0c52613b1e1404c144adb2a459996d498a6baa4b1ee82136dde99087baf3683d6c32015b7e7464a1648d928479b94d69aa4b8a6b3ec80116fdc9b0a79ad3481d4c12217b5e544481846d72649959ad894aab6a8bde28e1f61d2950477a33a8fdacf2c19bbeb4a461a44d5244b9798da96a8b4aabfe08c1d63d0970675a1388dd8cd2e1bb9e948441c42d3224d919edc90aeb2acb9e68a1b65d6910073a73e8bdecb281dbfef4e421e40d1204f939cde92acb0aebbe4881967d4930271a53c89dcc92a1fbded4c40104edf2e419d92d09ca2bea0b5ea861769da9d0c7fab3287d2c72411b3e3424e124cdd2c439f90d29ea0bca2b7e884156bd89f0e7da93085d0c52613b1e1404c144adb2a459996d498a6baa4b1ee82136dde99087baf3683d6c32015b7e7464a1648d928479b94d69aa4b8a6b3ec80116fdc9b0a79ad3481d4c12217b5e544481846d72649959ad894aab6a8bde28e1f61d2950477a33a8fdacf2c19bbeb4a461a44d5244b9798da96a8b4aabfe08c1d63d0970675a1388dd8cd2e1bb9e948441c42d3224d919edc90aeb2acb9e68a1b65d6910073a73e8bdecb281dbfef4e421e40d1204f939cde92acb0aebbe4881967d4930271a53c89dcc92a1fbded4c40104edf2e419d92d09ca2bea0b5ea861769da9d0c7fab3287d2c72411b3e3424e124cdd2c439f90d29ea0bca2b7e884156bd89f0e7da93085d0c52613b1e1404c144adb2a459996d498a6baa4b1ee82136dde99087baf3683d6c32015b7e7464a1648d928479b94d69aa4b8a6b3ec80116fdc9b0a79ad3481d4c12217b5e544481846d72649959ad894aab6a8bde28e1f61d2950477a33a8fdacf2c19bbeb4a461a44d5244b9798da96a8b4aabfe08c1d63d0970675a1388dd8cd2e1bb9e948441c42d3224d919edc90aeb2acb9e68a1b65d6910073a73e8bdecb281dbfef4e421e40d1204f939cde92acb0aebbe4881967d4930271a53c89dcc92a1fbded4c40104edf2e419d92d09ca2bea0b5ea861769da9d0c7fab3287d2c72411b3e3424e124cdd2c439f90d29ea0bca2b7e884156bd89f0e7da93085d0c52613b1e1404c144adb2a459996d498a6baa4b1ee82136dde99087baf3683d6c32015b7e7464a1648d928479b94d69aa4b8a6b3ec80116fdc9b0a79ad3481d4c12217b5e544481846d72649959ad894aab6a8bde28e1f6ed610c26a89d290578622ec06509adf8dee6d3861fa21377a7f4216e5f6ae794",
        "type": "nulldata"
      }
    },
    {
      "value": 499964.4085,
      "n": 1,
      "scriptPubKey": {
        "asm": "1 5a587e41417fe28465a3a45840e7e63186ad3d8435e8ca306393c21624d51684",
        "hex": "51205a587e41417fe28465a3a45840e7e63186ad3d8435e8ca306393c21624d51684",
        "reqSigs": 1,
        "type": "witness_v1_scripthash",
        "addresses": [
          "3QJmnh"
        ]
      }
    }
  ],
  "blockhash": "74cd48d8c624c37e1fac27c00c19e94c48df61d3ca85b84b56360e4f6170fa6f",
  "confirmations": 1,
  "time": 1764182926,
  "blocktime": 1764182926
}