{
  "hex": "01000000000101e441e4c68e6eef3a6016a1d424f367ad0540c8eafbe4708c4354ec06f8da99f30100000000feffffff02907857cc782d00002251205032e6689e58960d8818a93df536ee352b1b5ce67cf4d1e06dbc0027efdc6f2f00e1f50500000000fdd5046a205cfb1cbf5483645c02b8e72e33c831f3fc550157b4baa5cffb77c1c76539b6f74db004e014c57d04711ac900b110cbc4b59e6268e5ee4ad525475549e478a5e97dde2bc034e55d24513ae9209130ebe495be4248c5ce6af505677569c45885c95dfe0ba054853d44315a8940f1508b84f5de2228a5ae0a9565071509a438e5a93d9e6b8074a51d64117aa960d170aba4d5fe0208858e2ab5452735298418c5891dbe4b609445fd84f19a498031904b44351ee2e8656eca55a5c7d5c964f82569fd5eab40b465dda4d1ba69a011b06b64153ec2c8454eea7585e7f5e944d80549dd7e8b20d405bdc4b1da09c071d00b04755ea2a8252e8a15e587958924b86529bd1eeb00f4259de491fa29e051f02b24557e8288050eaa35c5a7b5a9049845099d3ecbe014c57d04711ac900b110cbc4b59e6268e5ee4ad525475549e478a5e97dde2bc034e55d24513ae9209130ebe495be4248c5ce6af505677569c45885c95dfe0ba054853d44315a8940f1508b84f5de2228a5ae0a9565071509a438e5a93d9e6b8074a51d64117aa960d170aba4d5fe0208858e2ab5452735298418c5891dbe4b609445fd84f19a498031904b44351ee2e8656eca55a5c7d5c964f82569fd5eab40b465dda4d1ba69a011b06b64153ec2c8454eea7585e7f5e944d80549dd7e8b20d405bdc4b1da09c071d00b04755ea2a8252e8a15e587958924b86529bd1eeb00f4259de491fa29e051f02b24557e8288050eaa35c5a7b5a9049845099d3ecbe014c57d04711ac900b110cbc4b59e6268e5ee4ad525475549e478a5e97dde2bc034e55d24513ae9209130ebe495be4248c5ce6af505677569c45885c95dfe0ba054853d44315a8940f1508b84f5de2228a5ae0a9565071509a438e5a93d9e6b8074a51d64117aa960d170aba4d5fe0208858e2ab5452735298418c5891dbe4b609445fd84f19a498031904b44351ee2e8656eca55a5c7d5c964f82569fd5eab40b465dda4d1ba69a011b06b64153ec2c8454eea7585e7f5e944d80549dd7e8b20d405bdc4b1da09c071d00b04755ea2a8252e8a15e587958924b86529bd1eeb00f4259de491fa29e051f02b24557e8288050eaa35c5a7b5a9049845099d3ecbe014c57d04711ac900b110cbc4b59e6268e5ee4ad525475549e478a5e97dde2bc034e55d24513ae9209130ebe495be4248c5ce6af505677569c45885c95dfe0ba054853d44315a8940f1508b84f5de2228a5ae0a9565071509a438e5a93d9e6b8074a51d64117aa960d170aba4d5fe0208858e2ab5452735298418c5891dbe4b609445fd84f19a498031904b44351ee2e8656eca55a5c7d5c964f82569fd5eab40b465dda4d1ba69a011b06b64153ec2c8454eea7585e7f5e944d80549dd7e8b20d405bdc4b1da09c071d00b04755ea2a8252e8a15e587958924b86529bd1eeb00f4259de491fa29e051f02b24557e8288050eaa35c5a7b5a9049845099d3ecbe014c57d04711ac900b110cbc4b59e6268e5ee4ad525475549e478a5e97dde2bc034e55d24513ae9209130ebe495be4248c5ce6af505677569c45885c95dfe0ba054853d44315a8940f1508b84f5de2228a5ae0a9565071509a438e5a93d9e6b8074a51d64117aa960d170aba4d5fe0208858e2ab5452735298418c5891dbe4b609445fd84f19a498031904b44351ee249f9174c2ee24c7d7c00de6bd8994b2c7a26b7b59e0aa828d2a68cf8476d4d9f02fd750967f86c31c031c53af8680cb2b453f8e949b59eef9126ca7fecda9ae087330cb3f2674c9ca6e42ebe86e8a373e94137d18ddd438bf251161412a775ee7d727ce23c7e2a44ec7c57b368b554f852d98c818a3cf218fc773bf7a88c03a01eb5ea050ccb970f83c75261efac45109622142efaf5c2879ba24c73d3396f7d4bc622a9bdebd6429fd6a62a729c74307ba196266a7200c427162dbc572f9fd4547ee10dc979b2f6fcf4dab02edb636c4d69aae832cba693a9fce814febdc92b300e7c35cc5e3b08aeca5bae035ff1fb1b6382c4a86f94bf08c3d3b8669c380f265399af1d57c8964b0f087507843141525ff1c2117bebf38bac8ff1a2baa30d0ef46ebdafdd6eb7c66fb43060438077165fda197a52b0b10f9dd222b970879e7da7d542ddbe460253622598e423c2b3678be44291b18fd4b939a05e5d3b8beecaba40a6955324fc38d5fbf406b65a0737da2828d89f879fd0cf3a36a295b69682c4890dd901ad0bffaa61863200cea78d5daf26015e41dd86dc38c27a8bd453c7e2c4f51236fd0c36e228804b7a870ffdaf25d16c7e602b5ca8bad558a27969315823d6275b6e57221bb6d6c7f3baff08acac54d75b52c9ff73e4505e803227e5f883fed17c383c1bb7b90002943439b6b6890ec6200a488d58d9915b3bb74298f20e1b4d1b52ba35f619b45ee46546d390c16dadbaa72be7544cd51be4ff6a58f06a47adbf89bcf22b65d31f402698e53ceda0590ff507c0ccb22704398e249edeaaededb0149286ab7b7370c8a29c9187d75d119db47d378ac2740f70c940ac28b2547f6728cb0ea18209880fb2d44ce59356d6398b441322c0bdded2aa656d112b19a006e49935891673cad7c75baaa859667bce3a544fb86ca3f0bf99e27c43f1f0116054539daa4c1884a5940c049a10bd61f514e95108149974948ef6b1b9b5313110d3daab9b39ec4a06041b2cca2bff6e4548fbc13c6bb33cabfec721ae26dfb50bfd0fbf62af328162ea0348a5b6f5fc40a6570d8a5f820295110517cb5c011d3b6682d94186a14473314699859a157c199fb0793bfd693becac27c411fd595562cc92fb362212103ab3df0921bc5d6c6eb7584a748e39b9b0f1c97f96352091ac681fafea7494f5f5ab833b1cb605f6057e6596cc822fba50e5799c100607cb8ad90fa58711b0925ab1887eb4285615813df42340c509436c29da9365b3f02d5311774bb78daa4d89551345b18a37ee1267ce91a8a79847a614b4baf84b5dd1b91fae8afaca6687e21f9b5617236fb59abef1ced4487f65692a5e14229cb07ada69bc17de375cb4f4374714d2ae3b17b0120e128d6f06e608e369182fcb64d9e02f864f75c4363337b0b5ebfd696d8edfaff884b8734f3d6503795e87a623b39a02a57ec8ec0c4a9123427aee6254ee8f0e2edc5c546b023a79fe65a0dde35e0116f03aa2139f5b7bfa7dfd971b5f32315d2f54a1d12ff5e8fe4e200ab530ca5729705ec882a848def95fb54726c640a19e2d113932fb983d6ea344d8f6d663191c20f3a5622f19585c744aa0f256b47669cda666f07de11ac5c46648d2dd96d7319ceaf21ff8202e28aeb4b3841e3f68bd77aca1671984b537e1cdbf39b86db3b836a9018e16ab6fa64ec6bea4d93d7ec64b0b2fca5c91165237d54049cdb8f561274e56f7fd8cd9b653c72d8700c5e4f7cdbf8506493456fb56b16f11fc3ee12479c794d250df1a39d7dd94ccd1e856a2da184a64d6110e4d110fcf21508c48d9d4ce9f46ebfc19e6902533629a0783799f863bcea31074f22e276fa2ab56c90394bbc70eaf423852b4dcf3e717c8f1b87d6175dc11e563edc2401b84d6b0e2f253c6a62c4d67f9b75c971fe7ad5c26a2ec64d90ed34a28a86de512de751bdd1a4c19ecf2019a9e11b4fdb440c9f9fe2bc9256501d31d246b9103a2ea6569eb8a60a7b751e4e3ccd245b6d86c0586c81cc8a03cabcae90a1208b080158034fc64636c80fd195879900034b0a535e1470ae35f4e5663f35ce5581ef62aea99ea45653f153e81c84e820620b47bed0c8fc559081e46167fe39a2853c56824f741b74582982a9ec6fef53f00f1bd0b9acd85c1819272e63026a54c6b259a455feb813e28384f43ed9c585713dc8b8dc78af77b1530a45a413a0ae9ce12bbfea334d47097c009e74458563f126b37a85bd5c3422e0c94dafab2ed7033fcfd38ba62d4b43faa7c78d890a3f3cd31d15b0306ee24841f869a137f035038a44e2818970b8f696a4f7759c72276b0bbef462c8b28ebddade2b7a1aa5eba39ee39a521bb6c2deccfc66cdd7f70026c9c13dbd6fd084ef8a8a6a77971a6345aaaab6c90aae8cbe863189d40a73109ef5d0b051990e818b2bdde5b61b3d07d65c15c8dc224613abb9462f0d0c5db32565ff31c4ced62827ace926c370cd2b3fb06640471cadfb0ec3e7e14e6abb7015518619be5080bad50e6e8bd5092c4f3d863bb078be146d31fcc2dcc53243ae0fc59a89bb42d73a39aa87d8f2307150ecad7ab9c7c7e0608f99f7d5055e10071e5af3c01ee4d0f0dc67fb0283ce2e1b0a3fadccc9c890d45e8680349f4f89da937dc0201564da74bffc29d8c67ea9d537c4b883ca6b505264727a2347c8c9f6351141694d741080bba931192bed18592e47ae6ac2ada041561a16f257f9916e91f75c15581aac935fe6adea1db2b23069a14d4d3fd2f4d31e0efb89f6bbc12e4ca448570c08e8ec626154914ca6e0db7435cf9d6f46522c97295cafaf872c8cbc4225ac15a1d831c0cc18b9a6733e317dd1decabb00f748f222149d884abd82835a7e14675ec154a0721fce11d266c50748084f99b35ec95b9c6225ff6097c99a3616f3bb10fd9c1e822566e5dc1d64736c4b0966c1c69df9306355fe66d7be45f944677fd0536120262b328dfa13c931d3d0528c14a99fee235dd9a52a56002494d55c3e35752dcf48eb559d10ae0bc377e65f5d584a21f33ce4f480387bbc3802320b84a4a2d5e1db4784c4188ea7914e105a2beacc3412696a8b3871b3b3616890b6655ecc271ad41a49cd489a89e1bd41003c410236d202be366d5e7d7b2ac0a0ba3654aada0d76e452f3d48686b1c9dde5531b1d3f3ff3a95e3478b84ae58f2ee4c1be9a1afc9275aa391b68e86077cd5b9d3751e2e97479d81b8472493e827e5461187e8f0c7c9af7562b5ff6aefe8501474f596736f8bd77785c5339065463c97afd200561c55e90918f46fe4a269afb404c23b53a0e8560d076f70baab10e1c318b21ab3d6383a953ac7bd33269ec31604414f64667b888f959aa8ebfa121e21263c476285889bb4c6d2ddec07191d333f526870acb5d4f500123b41494c545667738c9fa2b3b7b9bce3f8fbff000000000000000000000000000000000000000d1c283d01fd210500db108fbf0be71b4bc2b52145189db25b4e5dc4da8fbcf462cc2250c2a175d451a483d3fafc7cff2dfbb5704bc12ccbb3257365b83bdfe6a4740d7d7014885c528d4299941024da26ad69fd69800b03a37b104ebf60b6649163745b99193d083529eabded1ab2bc712823178d88b72afa9dcdf71413e593191d2be50570ac6d894a58cef6a2556b3183094b79f52df4cfedd45766e1d857b3d33df63b9ab69c32b228676e2016d66d6d3fb7af5c38dfa687d77b307984f23c19460077d4630f46e7a18d96198382d08319cf18c50dd19cbbdfba1e210c88b2296b1f6e6aa9737eff8c2e18ad479cab472c94d0b1231b7d544b77c67399bf919f5876b1ef64f68405da47e250039a5e1f429a78e63c238173861f1fd43d2f71f38b6f32d63a6defc1f5d1c2066b252f80986fbbdbe58b75050e837ee17fd1ebcf592733f066b38f297f4b14524b818d37695d7c3b1448336bb937fa6756a8127249e6c59ea3b5eaef493e18082a4b91d25ef1efd510629cb86899fa5fe3ba7ee60562be7852d5a72e4398997d51cb51fcb106e909756b546e68af340f87686c63d4933ba9dab7d884be7d9ba0658cf4424c228581c0d5b9293e594fd8aa1a99eba205da2e54d84909fde0f519f4f93f9dc3a7cd637b70647e5fdbadc5d1c534aa6140d2c01b9352cbd65844aba7fa93eea57eefb81b7962ae8972aaf0653b3e457cdb7dd2a80242e64b5aa794d77522d4e92be2417ff002cfd68b13d8ae684aca7849846c8fb52ccfd6eac17d0d0222ba16538be7e95a677aa63180725edff1461a158e8c36472738943039e7aa02f95945fbfae0237208ab5d40ef98ff9125c1632b6c423aa9d5a0538b36a1adb44303156052c1a4872c469c55eb13378298c45d68a7d40671ba40594d66b1f51be27fbe46c48f1df714e2733f9a8edcba6c48ef03d0e777684699f8f617d9eb9b6951add37427827a5ddfac83699169d712068674a42af9c2cc5c3a447688ac6f2f354e8ea2479243636386fb10b755ec397c2cd7877048b99fec784dd21bdbcd89e9491ad59aca7d62a9ee79a8610e8657598fb2a30defc72f1d0f67563b4fbc830465804754dbcc1ff28257d0c5d4e75a9c0efaaed915cdf6800a3c7cb4565ee93e5af95838a59510cca322eff7afbf9648b61e02b508e41302058754006c1b8b6f586e6df0e3671668f42938edac0b97e4a0a61853d7bdfb1892dd227e059bc5bb7320255b7ea69d93ab91edf96d8bf3a83e2cdf440669f4ab01bd3f2fb78d9d0528a5db2689c03aa3576be5dcfc18954d192ea17ea592ca90fd6fcc04b50cf2378c3c626e1d5982aa3786a6c623f0185870bbcaf2b6fc690f0c341ee0f3fa8f686e2d484ea0474b85f71a343e5ca3d384ea81d42c2261bb8e1333f9e70c4e59e865da8ac599648640d97fbc53a045ac01903105cf01433897c04ef220cda9fee3c6373d1bd00f98c082b2e2c88bb5b1b339e9c14339e6e1449b5e999e1c488d1154839f910717b34ac339728278469a40759149fadba72cfb2e0ba70da2f5e442de7a57ab1121b74076fa9d4899d21bbf010c5ba770271bc210bc32246ef8bf0013a3877cb0a2f47dde22647a6cd7e262c4b0a0160e127bf81c7f7d691dac056a9defb26492bca31e5fdcb61e2bbcedbe5d8feb7a272845051d19e1d4596b7132fab80a041748138bbed27bd1fa1f16f3d4970c655f3a82118885f48a176b20c61741c8ee5ba8c4effc9604787ec18b4218cefc6a84a1c940aa0496a76eb40f475a55145f00b02d2fdf38783077fe5ef1cc0898745d2971e636bbb719b12fa7c567f0af1fde42c138d482a819ae6a5f483e0d81bb64f0d876000000",
  "txid": "fb79a8bec88966649664f1650395a068ddf23806b89ac418301f3908003c7194",
  "hash": "330d58c0176bc224ec7a4e97db9d98ee7d01dfe0cd412297e6dd20227b347dcc",
  "size": 5085,
  "vsize": 2278,
  "version": 1,
  "locktime": 118,
  "vin": [
    {
      "txid": "f399daf806ec54438c70e4fbeac84005ad67f324d4a116603aef6e8ec6e441e4",
      "vout": 1,
      "scriptSig": {
        "asm": "",
        "hex": ""
      },
      "txinwitness": [
        "67f86c31c031c53af8680cb2b453f8e949b59eef9126ca7fecda9ae087330cb3f2674c9ca6e42ebe86e8a373e94137d18ddd438bf251161412a775ee7d727ce23c7e2a44ec7c57b368b554f852d98c818a3cf218fc773bf7a88c03a01eb5ea050ccb970f83c75261efac45109622142efaf5c2879ba24c73d3396f7d4bc622a9bdebd6429fd6a62a729c74307ba196266a7200c427162dbc572f9fd4547ee10dc979b2f6fcf4dab02edb636c4d69aae832cba693a9fce814febdc92b300e7c35cc5e3b08aeca5bae035ff1fb1b6382c4a86f94bf08c3d3b8669c380f265399af1d57c8964b0f087507843141525ff1c2117bebf38bac8ff1a2baa30d0ef46ebdafdd6eb7c66fb43060438077165fda197a52b0b10f9dd222b970879e7da7d542ddbe460253622598e423c2b3678be44291b18fd4b939a05e5d3b8beecaba40a6955324fc38d5fbf406b65a0737da2828d89f879fd0cf3a36a295b69682c4890dd901ad0bffaa61863200cea78d5daf26015e41dd86dc38c27a8bd453c7e2c4f51236fd0c36e228804b7a870ffdaf25d16c7e602b5ca8bad558a27969315823d6275b6e57221bb6d6c7f3baff08acac54d75b52c9ff73e4505e803227e5f883fed17c383c1bb7b90002943439b6b6890ec6200a488d58d9915b3bb74298f20e1b4d1b52ba35f619b45ee46546d390c16dadbaa72be7544cd51be4ff6a58f06a47adbf89bcf22b65d31f402698e53ceda0590ff507c0ccb22704398e249edeaaededb0149286ab7b7370c8a29c9187d75d119db47d378ac2740f70c940ac28b2547f6728cb0ea18209880fb2d44ce59356d6398b441322c0bdded2aa656d112b19a006e49935891673cad7c75baaa859667bce3a544fb86ca3f0bf99e27c43f1f0116054539daa4c1884a5940c049a10bd61f514e95108149974948ef6b1b9b5313110d3daab9b39ec4a06041b2cca2bff6e4548fbc13c6bb33cabfec721ae26dfb50bfd0fbf62af328162ea0348a5b6f5fc40a6570d8a5f820295110517cb5c011d3b6682d94186a14473314699859a157c199fb0793bfd693becac27c411fd595562cc92fb362212103ab3df0921bc5d6c6eb7584a748e39b9b0f1c97f96352091ac681fafea7494f5f5ab833b1cb605f6057e6596cc822fba50e5799c100607cb8ad90fa58711b0925ab1887eb4285615813df42340c509436c29da9365b3f02d5311774bb78daa4d89551345b18a37ee1267ce91a8a79847a614b4baf84b5dd1b91fae8afaca6687e21f9b5617236fb59abef1ced4487f65692a5e14229cb07ada69bc17de375cb4f4374714d2ae3b17b0120e128d6f06e608e369182fcb64d9e02f864f75c4363337b0b5ebfd696d8edfaff884b8734f3d6503795e87a623b39a02a57ec8ec0c4a9123427aee6254ee8f0e2edc5c546b023a79fe65a0dde35e0116f03aa2139f5b7bfa7dfd971b5f32315d2f54a1d12ff5e8fe4e200ab530ca5729705ec882a848def95fb54726c640a19e2d113932fb983d6ea344d8f6d663191c20f3a5622f19585c744aa0f256b47669cda666f07de11ac5c46648d2dd96d7319ceaf21ff8202e28aeb4b3841e3f68bd77aca1671984b537e1cdbf39b86db3b836a9018e16ab6fa64ec6bea4d93d7ec64b0b2fca5c91165237d54049cdb8f561274e56f7fd8cd9b653c72d8700c5e4f7cdbf8506493456fb56b16f11fc3ee12479c794d250df1a39d7dd94ccd1e856a2da184a64d6110e4d110fcf21508c48d9d4ce9f46ebfc19e6902533629a0783799f863bcea31074f22e276fa2ab56c90394bbc70eaf423852b4dcf3e717c8f1b87d6175dc11e563edc2401b84d6b0e2f253c6a62c4d67f9b75c971fe7ad5c26a2ec64d90ed34a28a86de512de751bdd1a4c19ecf2019a9e11b4fdb440c9f9fe2bc9256501d31d246b9103a2ea6569eb8a60a7b751e4e3ccd245b6d86c0586c81cc8a03cabcae90a1208b080158034fc64636c80fd195879900034b0a535e1470ae35f4e5663f35ce5581ef62aea99ea45653f153e81c84e820620b47bed0c8fc559081e46167fe39a2853c56824f741b74582982a9ec6fef53f00f1bd0b9acd85c1819272e63026a54c6b259a455feb813e28384f43ed9c585713dc8b8dc78af77b1530a45a413a0ae9ce12bbfea334d47097c009e74458563f126b37a85bd5c3422e0c94dafab2ed7033fcfd38ba62d4b43faa7c78d890a3f3cd31d15b0306ee24841f869a137f035038a44e2818970b8f696a4f7759c72276b0bbef462c8b28ebddade2b7a1aa5eba39ee39a521bb6c2deccfc66cdd7f70026c9c13dbd6fd084ef8a8a6a77971a6345aaaab6c90aae8cbe863189d40a73109ef5d0b051990e818b2bdde5b61b3d07d65c15c8dc224613abb9462f0d0c5db32565ff31c4ced62827ace926c370cd2b3fb06640471cadfb0ec3e7e14e6abb7015518619be5080bad50e6e8bd5092c4f3d863bb078be146d31fcc2dcc53243ae0fc59a89bb42d73a39aa87d8f2307150ecad7ab9c7c7e0608f99f7d5055e10071e5af3c01ee4d0f0dc67fb0283ce2e1b0a3fadccc9c890d45e8680349f4f89da937dc0201564da74bffc29d8c67ea9d537c4b883ca6b505264727a2347c8c9f6351141694d741080bba931192bed18592e47ae6ac2ada041561a16f257f9916e91f75c15581aac935fe6adea1db2b23069a14d4d3fd2f4d31e0efb89f6bbc12e4ca448570c08e8ec626154914ca6e0db7435cf9d6f46522c97295cafaf872c8cbc4225ac15a1d831c0cc18b9a6733e317dd1decabb00f748f222149d884abd82835a7e14675ec154a0721fce11d266c50748084f99b35ec95b9c6225ff6097c99a3616f3bb10fd9c1e822566e5dc1d64736c4b0966c1c69df9306355fe66d7be45f944677fd0536120262b328dfa13c931d3d0528c14a99fee235dd9a52a56002494d55c3e35752dcf48eb559d10ae0bc377e65f5d584a21f33ce4f480387bbc3802320b84a4a2d5e1db4784c4188ea7914e105a2beacc3412696a8b3871b3b3616890b6655ecc271ad41a49cd489a89e1bd41003c410236d202be366d5e7d7b2ac0a0ba3654aada0d76e452f3d48686b1c9dde5531b1d3f3ff3a95e3478b84ae58f2ee4c1be9a1afc9275aa391b68e86077cd5b9d3751e2e97479d81b8472493e827e5461187e8f0c7c9af7562b5ff6aefe8501474f596736f8bd77785c5339065463c97afd200561c55e90918f46fe4a269afb404c23b53a0e8560d076f70baab10e1c318b21ab3d6383a953ac7bd33269ec31604414f64667b888f959aa8ebfa121e21263c476285889bb4c6d2ddec07191d333f526870acb5d4f500123b41494c545667738c9fa2b3b7b9bce3f8fbff000000000000000000000000000000000000000d1c283d01",
        "00db108fbf0be71b4bc2b52145189db25b4e5dc4da8fbcf462cc2250c2a175d451a483d3fafc7cff2dfbb5704bc12ccbb3257365b83bdfe6a4740d7d7014885c528d4299941024da26ad69fd69800b03a37b104ebf60b6649163745b99193d083529eabded1ab2bc712823178d88b72afa9dcdf71413e593191d2be50570ac6d894a58cef6a2556b3183094b79f52df4cfedd45766e1d857b3d33df63b9ab69c32b228676e2016d66d6d3fb7af5c38dfa687d77b307984f23c19460077d4630f46e7a18d96198382d08319cf18c50dd19cbbdfba1e210c88b2296b1f6e6aa9737eff8c2e18ad479cab472c94d0b1231b7d544b77c67399bf919f5876b1ef64f68405da47e250039a5e1f429a78e63c238173861f1fd43d2f71f38b6f32d63a6defc1f5d1c2066b252f80986fbbdbe58b75050e837ee17fd1ebcf592733f066b38f297f4b14524b818d37695d7c3b1448336bb937fa6756a8127249e6c59ea3b5eaef493e18082a4b91d25ef1efd510629cb86899fa5fe3ba7ee60562be7852d5a72e4398997d51cb51fcb106e909756b546e68af340f87686c63d4933ba9dab7d884be7d9ba0658cf4424c228581c0d5b9293e594fd8aa1a99eba205da2e54d84909fde0f519f4f93f9dc3a7cd637b70647e5fdbadc5d1c534aa6140d2c01b9352cbd65844aba7fa93eea57eefb81b7962ae8972aaf0653b3e457cdb7dd2a80242e64b5aa794d77522d4e92be2417ff002cfd68b13d8ae684aca7849846c8fb52ccfd6eac17d0d0222ba16538be7e95a677aa63180725edff1461a158e8c36472738943039e7aa02f95945fbfae0237208ab5d40ef98ff9125c1632b6c423aa9d5a0538b36a1adb44303156052c1a4872c469c55eb13378298c45d68a7d40671ba40594d66b1f51be27fbe46c48f1df714e2733f9a8edcba6c48ef03d0e777684699f8f617d9eb9b6951add37427827a5ddfac83699169d712068674a42af9c2cc5c3a447688ac6f2f354e8ea2479243636386fb10b755ec397c2cd7877048b99fec784dd21bdbcd89e9491ad59aca7d62a9ee79a8610e8657598fb2a30defc72f1d0f67563b4fbc830465804754dbcc1ff28257d0c5d4e75a9c0efaaed915cdf6800a3c7cb4565ee93e5af95838a59510cca322eff7afbf9648b61e02b508e41302058754006c1b8b6f586e6df0e3671668f42938edac0b97e4a0a61853d7bdfb1892dd227e059bc5bb7320255b7ea69d93ab91edf96d8bf3a83e2cdf440669f4ab01bd3f2fb78d9d0528a5db2689c03aa3576be5dcfc18954d192ea17ea592ca90fd6fcc04b50cf2378c3c626e1d5982aa3786a6c623f0185870bbcaf2b6fc690f0c341ee0f3fa8f686e2d484ea0474b85f71a343e5ca3d384ea81d42c2261bb8e1333f9e70c4e59e865da8ac599648640d97fbc53a045ac01903105cf01433897c04ef220cda9fee3c6373d1bd00f98c082b2e2c88bb5b1b339e9c14339e6e1449b5e999e1c488d1154839f910717b34ac339728278469a40759149fadba72cfb2e0ba70da2f5e442de7a57ab1121b74076fa9d4899d21bbf010c5ba770271bc210bc32246ef8bf0013a3877cb0a2f47dde22647a6cd7e262c4b0a0160e127bf81c7f7d691dac056a9defb26492bca31e5fdcb61e2bbcedbe5d8feb7a272845051d19e1d4596b7132fab80a041748138bbed27bd1fa1f16f3d4970c655f3a82118885f48a176b20c61741c8ee5ba8c4effc9604787ec18b4218cefc6a84a1c940aa0496a76eb40f475a55145f00b02d2fdf38783077fe5ef1cc0898745d2971e636bbb719b12fa7c567f0af1fde42c138d482a819ae6a5f483e0d81bb64f0d8"
      ],
      "sequence": 4294967294
    }
  ],
  "vout": [
    {
      "value": 499968.4761,
      "n": 0,
      "scriptPubKey": {
        "asm": "1 5032e6689e58960d8818a93df536ee352b1b5ce67cf4d1e06dbc0027efdc6f2f",
        "hex": "51205032e6689e58960d8818a93df536ee352b1b5ce67cf4d1e06dbc0027efdc6f2f",
        "reqSigs": 1,
        "type": "witness_v1_scripthash",
        "addresses": [
          "3QJmnh"
        ]
      }
    },
    {
      "value": 1.0,
      "n": 1,
      "scriptPubKey": {
        "asm": "OP_RETURN 5cfb1cbf5483645c02b8e72e33c831f3fc550157b4baa5cffb77c1c76539b6f7 e014c57d04711ac900b110cbc4b59e6268e5ee4ad525475549e478a5e97dde2bc034e55d24513ae9209130ebe495be4248c5ce6af505677569c45885c95dfe0ba054853d44315a8940f1508b84f5de2228a5ae0a9565071509a438e5a93d9e6b8074a51d64117aa960d170aba4d5fe0208858e2ab5452735298418c5891dbe4b609445fd84f19a498031904b44351ee2e8656eca55a5c7d5c964f82569fd5eab40b465dda4d1ba69a011b06b64153ec2c8454eea7585e7f5e944d80549dd7e8b20d405bdc4b1da09c071d00b04755ea2a8252e8a15e587958924b86529bd1eeb00f4259de491fa29e051f02b24557e8288050eaa35c5a7b5a9049845099d3ecbe014c57d04711ac900b110cbc4b59e6268e5ee4ad525475549e478a5e97dde2bc034e55d24513ae9209130ebe495be4248c5ce6af505677569c45885c95dfe0ba054853d44315a8940f1508b84f5de2228a5ae0a9565071509a438e5a93d9e6b8074a51d64117aa960d170aba4d5fe0208858e2ab5452735298418c5891dbe4b609445fd84f19a498031904b44351ee2e8656eca55a5c7d5c964f82569fd5eab40b465dda4d1ba69a011b06b64153ec2c8454eea7585e7f5e944d80549dd7e8b20d405bdc4b1da09c071d00b04755ea2a8252e8a15e587958924b86529bd1eeb00f4259de491fa29e051f02b24557e8288050eaa35c5a7b5a9049845099d3ecbe014c57d04711ac900b110cbc4b59e6268e5ee4ad525475549e478a5e97dde2bc034e55d24513ae9209130ebe495be4248c5ce6af505677569c45885c95dfe0ba054853d44315a8940f1508b84f5de2228a5ae0a9565071509a438e5a93d9e6b8074a51d64117aa960d170aba4d5fe0208858e2ab5452735298418c5891dbe4b609445fd84f19a498031904b44351ee2e8656eca55a5c7d5c964f82569fd5eab40b465dda4d1ba69a011b06b64153ec2c8454eea7585e7f5e944d80549dd7e8b20d405bdc4b1da09c071d00b04755ea2a8252e8a15e587958924b86529bd1eeb00f4259de491fa29e051f02b24557e8288050eaa35c5a7b5a9049845099d3ecbe014c57d04711ac900b110cbc4b59e6268e5ee4ad525475549e478a5e97dde2bc034e55d24513ae9209130ebe495be4248c5ce6af505677569c45885c95dfe0ba054853d44315a8940f1508b84f5de2228a5ae0a9565071509a438e5a93d9e6b8074a51d64117aa960d170aba4d5fe0208858e2ab5452735298418c5891dbe4b609445fd84f19a498031904b44351ee2e8656eca55a5c7d5c964f82569fd5eab40b465dda4d1ba69a011b06b64153ec2c8454eea7585e7f5e944d80549dd7e8b20d405bdc4b1da09c071d00b04755ea2a8252e8a15e587958924b86529bd1eeb00f4259de491fa29e051f02b24557e8288050eaa35c5a7b5a9049845099d3ecbe014c57d04711ac900b110cbc4b59e6268e5ee4ad525475549e478a5e97dde2bc034e55d24513ae9209130ebe495be4248c5ce6af505677569c45885c95dfe0ba054853d44315a8940f1508b84f5de2228a5ae0a9565071509a438e5a93d9e6b8074a51d64117aa960d170aba4d5fe0208858e2ab5452735298418c5891dbe4b609445fd84f19a498031904b44351ee249f9174c2ee24c7d7c00de6bd8994b2c7a26b7b59e0aa828d2a68cf8476d4d9f",
        "hex": "6a205cfb1cbf5483645c02b8e72e33c831f3fc550157b4baa5cffb77c1c76539b6f74db004e014c57d04711ac900b110cbc4b59e6268e5ee4ad525475549e478a5e97dde2bc034e55d24513ae9209130ebe495be4248c5ce6af505677569c45885c95dfe0ba054853d44315a8940f1508b84f5de2228a5ae0a9565071509a438e5a93d9e6b8074a51d64117aa960d170aba4d5fe0208858e2ab5452735298418c5891dbe4b609445fd84f19a498031904b44351ee2e8656eca55a5c7d5c964f82569fd5eab40b465dda4d1ba69a011b06b64153ec2c8454eea7585e7f5e944d80549dd7e8b20d405bdc4b1da09c071d00b04755ea2a8252e8a15e587958924b86529bd1eeb00f4259de491fa29e051f02b24557e8288050eaa35c5a7b5a9049845099d3ecbe014c57d04711ac900b110cbc4b59e6268e5ee4ad525475549e478a5e97dde2bc034e55d24513ae9209130ebe495be4248c5ce6af505677569c45885c95dfe0ba054853d44315a8940f1508b84f5de2228a5ae0a9565071509a438e5a93d9e6b8074a51d64117aa960d170aba4d5fe0208858e2ab5452735298418c5891dbe4b609445fd84f19a498031904b44351ee2e8656eca55a5c7d5c964f82569fd5eab40b465dda4d1ba69a011b06b64153ec2c8454eea7585e7f5e944d80549dd7e8b20d405bdc4b1da09c071d00b04755ea2a8252e8a15e587958924b86529bd1eeb00f4259de491fa29e051f02b24557e8288050eaa35c5a7b5a9049845099d3ecbe014c57d04711ac900b110cbc4b59e6268e5ee4ad525475549e478a5e97dde2bc034e55d24513ae9209130ebe495be4248c5ce6af505677569c45885c95dfe0ba054853d44315a8940f1508b84f5de2228a5ae0a9565071509a438e5a93d9e6b8074a51d64117aa960d170aba4d5fe0208858e2ab5452735298418c5891dbe4b609445fd84f19a498031904b44351ee2e8656eca55a5c7d5c964f82569fd5eab40b465dda4d1ba69a011b06b64153ec2c8454eea7585e7f5e944d80549dd7e8b20d405bdc4b1da09c071d00b04755ea2a8252e8a15e587958924b86529bd1eeb00f4259de491fa29e051f02b24557e8288050eaa35c5a7b5a9049845099d3ecbe014c57d04711ac900b110cbc4b59e6268e5ee4ad525475549e478a5e97dde2bc034e55d24513ae9209130ebe495be4248c5ce6af505677569c45885c95dfe0ba054853d44315a8940f1508b84f5de2228a5ae0a9565071509a438e5a93d9e6b8074a51d64117aa960d170aba4d5fe0208858e2ab5452735298418c5891dbe4b609445fd84f19a498031904b44351ee2e8656eca55a5c7d5c964f82569fd5eab40b465dda4d1ba69a011b06b64153ec2c8454eea7585e7f5e944d80549dd7e8b20d405bdc4b1da09c071d00b04755ea2a8252e8a15e587958924b86529bd1eeb00f4259de491fa29e051f02b24557e8288050eaa35c5a7b5a9049845099d3ecbe014c57d04711ac900b110cbc4b59e6268e5ee4ad525475549e478a5e97dde2bc034e55d24513ae9209130ebe495be4248c5ce6af505677569c45885c95dfe0ba054853d44315a8940f1508b84f5de2228a5ae0a9565071509a438e5a93d9e6b8074a51d64117aa960d170aba4d5fe0208858e2ab5452735298418c5891dbe4b609445fd84f19a498031904b44351ee249f9174c2ee24c7d7c00de6bd8994b2c7a26b7b59e0aa828d2a68cf8476d4d9f",
        "type": "nulldata"
      }
    }
  ],
  "blockhash": "e950f66e7d48487e03ac7a1b4e7864aa28758accf0e3d98358cdf64a352531e0",
  "confirmations": 1,
  "time": 1764181937,
  "blocktime": 1764181937
}