{
  "hex": "01000000000101dfb3201cd38e97f890d85bef3079786d24e720e031cf4cc3f6fca809544196280000000000feffffff0200e1f50500000000fdd5046a20b27632ea362e334d40290beaa8251292440b6a70ba142025075bcf6c518dec7b4db00487b6a59ae1e9c61c1df586325de08c7dc79cda95f741b31982763e09ff743e20a79685bac1c9e63c3dd5a6127dc0ac5de7bcfab5d7619339a2561e29df541e00c7f6e5daa1a9865c5db5c6721da0cc3d87dc9ad5b701f359c2367e49bf347e60e7d6c5fa8189a67c7d95e6523d80ec1da7fcbaf59721d379e2165e699f145e400736251a6169469c9d7506b2dd600cfd471c5a1577c1339902f6be897ff4bea02716053a414966bcbd552692fd402cdd673c7a3557e113b922d69ea95fd49e804776655a212906dcdd3546f29d204cbd075c1a55378173d942b6fec93fb4fee06756457a010926fcfd1566d2bd006c9d277c3a7517a153f96296dee91f94dec087b6a59ae1e9c61c1df586325de08c7dc79cda95f741b31982763e09ff743e20a79685bac1c9e63c3dd5a6127dc0ac5de7bcfab5d7619339a2561e29df541e00c7f6e5daa1a9865c5db5c6721da0cc3d87dc9ad5b701f359c2367e49bf347e60e7d6c5fa8189a67c7d95e6523d80ec1da7fcbaf59721d379e2165e699f145e400736251a6169469c9d7506b2dd600cfd471c5a1577c1339902f6be897ff4bea02716053a414966bcbd552692fd402cdd673c7a3557e113b922d69ea95fd49e804776655a212906dcdd3546f29d204cbd075c1a55378173d942b6fec93fb4fee06756457a010926fcfd1566d2bd006c9d277c3a7517a153f96296dee91f94dec087b6a59ae1e9c61c1df586325de08c7dc79cda95f741b31982763e09ff743e20a79685bac1c9e63c3dd5a6127dc0ac5de7bcfab5d7619339a2561e29df541e00c7f6e5daa1a9865c5db5c6721da0cc3d87dc9ad5b701f359c2367e49bf347e60e7d6c5fa8189a67c7d95e6523d80ec1da7fcbaf59721d379e2165e699f145e400736251a6169469c9d7506b2dd600cfd471c5a1577c1339902f6be897ff4bea02716053a414966bcbd552692fd402cdd673c7a3557e113b922d69ea95fd49e804776655a212906dcdd3546f29d204cbd075c1a55378173d942b6fec93fb4fee06756457a010926fcfd1566d2bd006c9d277c3a7517a153f96296dee91f94dec087b6a59ae1e9c61c1df586325de08c7dc79cda95f741b31982763e09ff743e20a79685bac1c9e63c3dd5a6127dc0ac5de7bcfab5d7619339a2561e29df541e00c7f6e5daa1a9865c5db5c6721da0cc3d87dc9ad5b701f359c2367e49bf347e60e7d6c5fa8189a67c7d95e6523d80ec1da7fcbaf59721d379e2165e699f145e400736251a6169469c9d7506b2dd600cfd471c5a1577c1339902f6be897ff4bea02716053a414966bcbd552692fd402cdd673c7a3557e113b922d69ea95fd49e804776655a212906dcdd3546f29d204cbd075c1a55378173d942b6fec93fb4fee06756457a010926fcfd1566d2bd006c9d277c3a7517a153f96296dee91f94dec087b6a59ae1e9c61c1df586325de08c7dc79cda95f741b31982763e09ff743e20a79685bac1c9e63c3dd5a6127dc0ac5de7bcfab5d7619339a2561e29df541e00c7f6e5daa1a9865c5db5c6721da0cc3d87dc9ad5b701f359c2367e49bf347e60e7d6c5fa8189a67c7d95e6523d80ec1da7fcbaf59721d379e2165e699f145e400736251a6169469c9d7506b2dd600cfdb0dbbf2ad49862878b17dfabfd30160b0db49bf5819390c7edc506e404fbb7af907857cc782d0000225120ea49074a83a24f03e5d1970e73edbe275bd6da44b740773dd7e7d6b5c421d6c402fd7509fcfb0263bbb24fa43ff1b4be300ae9c83190162db60a44e51a74864b41146067565a7a98701e68a46707b68b45c8310d2201986da371d465aa5ed197ad9f9402466f5681fca333001b77200cf4d65de861220f6460409c13d448ef4a45d6c18b5f3cf7669a3494f7a69a931d2d0165771dd37ed45b7b0195d09c8a943efa5633ae4a8c4efd1fd8c34e41da8289a6db4eb1752ce0da67690cafd6c80c753350163dde3843c53a70ffd37d72b5339e1cc16cb54f568c79867cbb0e328d260426d8cb4ce909d2767329cf65d14ec17cd28ecf18bde8d17c1bfd0d4a8fa6739e933c4f2bf4fe5a6e6ad6c25e11da28084dcb51d53f352a933f6a0d60f0d5093820afc30aa148abf8bd04017575e8516085f7e607c0e346bd6bfcbc75bc8a03626a36f889937e6b3cfc1e4f374de8d1c6c586591a289b824a9f70c143e6ce141d48e9195a5426892b34e37848c38b9e4a2ae453b22a0b3a604c3bbff8316a1dff13b02796d64a2f70e307f3748599cb714ad6232d612bda72ab76f7cb0f11a467639394091a004ed0d51a36fc68645f25fcbaddc22965ef05b75ae7d85bed8aaa9483a84cac22d135a0cff0159b5fe9062edb812c6b773152bb5ccde05a691384c68e25ad097e95e8721eadda3f77dfccd16a9ced03b6ce0a91662a59d469282003eb69f1267f0e2be80aac89419cd26483b0d9ec2140bd9469baf8ebb7a88678320c8741833cd17ca0047208266e20c77eca77ae54236499b27716f47925899093f204cf3e5acbb8575ff694eb62626dc59b7aa1b2e295761d5123ef64d05f66be73835aeb3f705b40bb48b04bb670c3feed2fd0f2604c659a95986950f6c6d5b8cee98069649dcee226b46414bc0782a7bdfe50961b10c66a64ae97e51584f16393e5dea6c5dff0b40bee05e2d23eaf57f6991fe722fb291bf2dee318dada484f2d4ed11a5d00a04097814b5d23a41d6fd53039377fe6481f499e4e43e0aff5afc5a34bf11e9afe13fa421a0277af6c2857aaefb01ce5773eec02d39beb6167211e11483d57ef6fd54844ab7657d975b2f85adfea504d71764bb070d10a6d8ffc1872692b9df22772288a3fc2995cf212b0ac636cd484efa92f299e41a1dc6fd483a5f1deb4eea738c6b9e6139035725965bd84c28287c0d8eda0b9b85c763c0d296398203b6ebc872ccf1d3a238251e5ce90d7d9845581313f0e3484aa302ddcf2aaa4b1627a1fdfc5c0d63ee953a014881d14e77e2c806a8ad5067cefbcfe40cc5574757d252a5c5a44edb48751fcd25434aa78c768e169bd8dcd9c9cbaee593d49fc171063c64460be2903465de4533739a642ca0a726ff4937c1f5055122aa54297f404167a55c54836c74b82235082d6017a01fcb9057defa584e06ed1cbd67ad978909860bb64273ff4a6dfd60a79a770d4f5b01acb8369f3c28caf89e5efef49e1bd50045ce6f79678956651b39bb78d0ff29abef7517dbdac99c426f5fca65aa02165c025d266b0359291213fe2a8a472c6996c2f49b807b00c1ddcec214ac53413a47b02dc0223e6f71af5a36dfbb49e8658c84075d8585d5f38db7180ef72b46f00bde3a7edf48337e8591c03c624f0af00e6dcd79e3df62a282053ef9d3e2ccb741479ee1fbcc43ef1881053aec6c1de580b9556ec95e47ac33f78025674c205c2f1dbcab8ccfa350cb3a990d8f854ff988a23726a6a0d0df128a9080d28cb33af60e1b5d54cb3d723eea5adb236d89900bf4e95f0e80694efe699bf1f584975157593282b0774a1db14ee501ba9e182cc8c166d913ed14efe8906cf402660a199e4c571110f563d969acc4518b3bd038f5b2dce3237a63dbf9661017c6bdb66e1a661bd57f175c8a0ed8c776022a89a52ec40075e09adea6f7552477747e3bd72fd9bf7a4c86f4b1f20522a852aa813ce799f0821f5563f497a671f987ceb83494748a67dd9235df632ec7333880b1b97c250d74b6a750fe333c16fd4b8333f4cb7308267b0b2989c53ec66bcc384fb1a75df145a53c2b9b3b2e7b25a8bca69f129339950d89cf60bb78ca3ff7907387713f6e81d1441f6bc577f8fe4dab355bd6cf171ad13500fcedca499a2325b0a53ff856c1485b84b4533440a27c405b4ac67ea4cdea11d0187c853c151f4b9019439d7a6d6b9b6994d0b7226112f89c5cc6163f601f62196607594353b6484b63c46bf1d2badbaeb981829f16438f0eaf1e84cd4cae6de9b53d4e9792ccd5d7bc31372a0212e0bf61919e5166d44aa5de99dcae17f8165a0020416730bfc1cf381b9e4fa58f322bb70c5ca597f4bc6885f6fb62024622a7bdfeaf80a442047e2ece7c63c986d9b06d2e8b9b72272ad0604bcef15fb477592be31e77f07328e8885e0e8ddb0d16a58bf57ed4048db32317cbec5bdcab53118c1b2e98ca3032e4475761c54a5b429b10d5eb3947bc603877d1e80b833c94694ecc05c2c3a1883330be0683f56d0998ae10c0702d720a6ab8168442be872f2ae45828dd09b4291c9589f1c4b82b7e0b98c755be1b3d60887fcac8688ca74937687ac0977e91c68a1073e4c95e6c1a9ab49313c9dc1baef362e82be7746c7e62ce9612f937cf36cb3fd90f69e2f5956435f09f0d40b159690322dca4bb55335200e16598cdbdda25c8a199e7515bca086c241dbdd24fc805b1f2e4c15dcc28c1a488dc22eb592bfa610b0fee0dee24abcae545c362ee6720e2813954980bac03c8c4c1b25c8023f9ff3010b8a268a6587bd610b6d6f1dce1d92d6c087f2e11ae39e0a239587df2905a5876e36648fd3cf649e02243ddd0f5481343d5a75e450808714e2a0c0da3a2c9e5d8f78143f34366292d0fe7beed4ef85db106eba90321d6c3f33c344d0eadd52f8844047fa0360940e75957cf5295f1af1227313f00b4f9e3e48ae85c3adc4818e3c92cac62ceaa7f4819a408ed623625fe18c674b0c02079f317adf439067e3e1017ceb4525c3bca5c9fa1b0c8c923821392dcc1d2a951450c1e98a3c34f801bf84c4fc116cdb677a8750fe4d85673023fbc3bee405948ab3f6595a8f6f1b0c74c5c9116963d1aedd0deca7a663fba9ef45696ad23ef1a8fd525745fbfa3a35505d8788ca1801d5173ff622939a2473519fa6436948f4b7d4861aebb95ef2fbd7b7bf805ec8f9e675db596756dc691879cdc66f03212bddf7ba41f5b134891f9944b0aa67e0ac87c0be708d876039499720226de22b29cf77e9a132ad1956bd6f9682c6a020405c54e993299d6982e906cb16780e160faaddf04d8c37e47e2c32a6db9ece6d81d0c93aaf1517314d4e56609ba4c5df121432394b5b5d658fa5b7c2ddf7020c222c505c7079888ba0a2b6b7babed0d6f10614202b55595a60646a8297c3cee4e7e8ef0000000000000000000000000000000000000b192c3e01fd2105005d9bcc186961f35760651ce33af8066e525e5033a7bbad3464631671e65e74662006edbabe23ea0af2f3dc9a40097d9b2a8ef5a32d7dcc8a60e7f3925a3b69464d221e521100aaf8b5b6ef9044bf8845ed014b78172d6703f51dc8fd3e78dba98a3f31aab5fbfd042ad76f200306da8cb1321c0f7feee00b280de111780db132d1d35e9d08bdc88073fb9a641b6bb2d498d6a6cd5de6ebf7c34351ec42c965f0415800cd798411812aefd293038500111c197814e387d378a7e4247896ae534498e9ed33895275e02e3a87204268dfcb240f361f4665e1b2080352beeabdc57da03f7a8ba2e4170c65043455599b5806b0c7d9a1302752054fcb941023c66e594d011c6b142cd7048e46d1fbe71d1f406d7bc07a98bb4c055363624dc4b3c121c87932707fa2394a309601d0416b590d92b613bedfa01eb76fe7741cef81d54d72ccbdb95cbdb2df466b187a56bd65457ac3eea71c416095d9a9aa25eff9ca0669f4676d9bd53c340a819151dc19c58cfe04ee63270702dcfcb7da187abf0562f168a7d8baa66824c6175f0d999f4dee64ed05795c7e8439b1e1118a9150108288b8722a583cf3d3e320478c8e72a277ba7c276a0267677848cd241a37486a70a3909e27a0e90ad561a5df8fc3729e69fd6dd19ea3036bdb9e9101c762f3520f38527a205924dd059e6be9a6b46622c0254fdcfb003538d24af4d4af185da5abb45484f195c95347e23427d5ba21edf4f4899215b8cb8ad7267220413aebca42fd03e044c872a161caae267909f9d7d1446f2c5146552dec31c9717998ffd57b10e3cefcee458cdf4118c6654680411f8be9ceba04952f1359495a890e1db07d36b63ae7413789ecc64530b61cf6a4ad86d7eec816da0f4c3a16d91b549e00c17a0ef52da84a07d1fbf69de9248bb66ced33b7ea35fb8d5ec4910350da4c18513bc4c8e65e80145d156f898ea94220c076456cb489fb38c38c6479529bc028fe19e5b2bd3318dbeb495ee790a350af11c5c105d2a280906548813e3531021511de0ec737a103052c087957d2be6dfcbb4da863faa01761295801b0d599e7c9e36f00af77883c046e169624948d38276e02f59a16d54c42bce0b9688ec0aa6877d33d7702ffa95425f73c006422f4eff19cd364646113b37adc349605536d0bd36165457ff7b73e4f92a6ae4eb9f1b6456e3c1e83c86c1ff9718eca7a4cc095279e194bb195b17ed1210e1ec0f2eb878e335dd07e62a134b6026c420075f1e68beb4dc80d0f0430f4eb463885583a51c0350e41c7969b4d4292c8a78f46c14ade7ed29af246f84d2863769d9ada75a556852bd90a3d095f9fabbe27771dd54a5e1eb80e5ca2be3e8e2664e6c843169bfc50d98c430b305f0c8236bd4e2c061d3dfbdecb05088894048ac10b64636111840419626aebd7e09852f8203492063ceaa259cc25aadbde8b76fc9e4e6c0d2a6aadd02350d95d0a22fbe0abff35993ec51ab66f0ac3822a1704d47bd25488bf0e03eae97fa05e85438e4661c211c48531ee3301d0ecdbc971558f849ab6ecd3c16e9c713fce61f22f6778fac2ac2785e23d55a37ac82728f01b8d066b52a446b2322254e2f983ef581b54d2b67c03e88690c9814de462bb194cf70670a457d7e2579a1063ff977c49172f7692ab470855c49ff7feca2466e0f2e96bfcec03acda7bda6d80d9a59da19467047d3fe2ba52beaadb24b89c301fe375b00c00ed12fb7c53c700cbb714250ab33fd2d7e3d10f6d661d2cf0617d7e2f45017fd2a4b7ea6d7c8d6f4206789fb9dd401839325b12af207b515b97303e2d8e9d9b8d4b383230d6ce014ad770dc97ae14f9857ab80180000000",
  "txid": "f8c8530e779f3ded05541542b2c963504c2132510a05fa58788d184d145c77fe",
  "hash": "e3a86865f26dc21cad7546b2ed2863a2b86d63fdbfa5a32d71027416a64e1e04",
  "size": 5085,
  "vsize": 2278,
  "version": 1,
  "locktime": 128,
  "vin": [
    {
      "txid": "2896415409a8fcf6c34ccf31e020e7246d787930ef5bd890f8978ed31c20b3df",
      "vout": 0,
      "scriptSig": {
        "asm": "",
        "hex": ""
      },
      "txinwitness": [
        "fcfb0263bbb24fa43ff1b4be300ae9c83190162db60a44e51a74864b41146067565a7a98701e68a46707b68b45c8310d2201986da371d465aa5ed197ad9f9402466f5681fca333001b77200cf4d65de861220f6460409c13d448ef4a45d6c18b5f3cf7669a3494f7a69a931d2d0165771dd37ed45b7b0195d09c8a943efa5633ae4a8c4efd1fd8c34e41da8289a6db4eb1752ce0da67690cafd6c80c753350163dde3843c53a70ffd37d72b5339e1cc16cb54f568c79867cbb0e328d260426d8cb4ce909d2767329cf65d14ec17cd28ecf18bde8d17c1bfd0d4a8fa6739e933c4f2bf4fe5a6e6ad6c25e11da28084dcb51d53f352a933f6a0d60f0d5093820afc30aa148abf8bd04017575e8516085f7e607c0e346bd6bfcbc75bc8a03626a36f889937e6b3cfc1e4f374de8d1c6c586591a289b824a9f70c143e6ce141d48e9195a5426892b34e37848c38b9e4a2ae453b22a0b3a604c3bbff8316a1dff13b02796d64a2f70e307f3748599cb714ad6232d612bda72ab76f7cb0f11a467639394091a004ed0d51a36fc68645f25fcbaddc22965ef05b75ae7d85bed8aaa9483a84cac22d135a0cff0159b5fe9062edb812c6b773152bb5ccde05a691384c68e25ad097e95e8721eadda3f77dfccd16a9ced03b6ce0a91662a59d469282003eb69f1267f0e2be80aac89419cd26483b0d9ec2140bd9469baf8ebb7a88678320c8741833cd17ca0047208266e20c77eca77ae54236499b27716f47925899093f204cf3e5acbb8575ff694eb62626dc59b7aa1b2e295761d5123ef64d05f66be73835aeb3f705b40bb48b04bb670c3feed2fd0f2604c659a95986950f6c6d5b8cee98069649dcee226b46414bc0782a7bdfe50961b10c66a64ae97e51584f16393e5dea6c5dff0b40bee05e2d23eaf57f6991fe722fb291bf2dee318dada484f2d4ed11a5d00a04097814b5d23a41d6fd53039377fe6481f499e4e43e0aff5afc5a34bf11e9afe13fa421a0277af6c2857aaefb01ce5773eec02d39beb6167211e11483d57ef6fd54844ab7657d975b2f85adfea504d71764bb070d10a6d8ffc1872692b9df22772288a3fc2995cf212b0ac636cd484efa92f299e41a1dc6fd483a5f1deb4eea738c6b9e6139035725965bd84c28287c0d8eda0b9b85c763c0d296398203b6ebc872ccf1d3a238251e5ce90d7d9845581313f0e3484aa302ddcf2aaa4b1627a1fdfc5c0d63ee953a014881d14e77e2c806a8ad5067cefbcfe40cc5574757d252a5c5a44edb48751fcd25434aa78c768e169bd8dcd9c9cbaee593d49fc171063c64460be2903465de4533739a642ca0a726ff4937c1f5055122aa54297f404167a55c54836c74b82235082d6017a01fcb9057defa584e06ed1cbd67ad978909860bb64273ff4a6dfd60a79a770d4f5b01acb8369f3c28caf89e5efef49e1bd50045ce6f79678956651b39bb78d0ff29abef7517dbdac99c426f5fca65aa02165c025d266b0359291213fe2a8a472c6996c2f49b807b00c1ddcec214ac53413a47b02dc0223e6f71af5a36dfbb49e8658c84075d8585d5f38db7180ef72b46f00bde3a7edf48337e8591c03c624f0af00e6dcd79e3df62a282053ef9d3e2ccb741479ee1fbcc43ef1881053aec6c1de580b9556ec95e47ac33f78025674c205c2f1dbcab8ccfa350cb3a990d8f854ff988a23726a6a0d0df128a9080d28cb33af60e1b5d54cb3d723eea5adb236d89900bf4e95f0e80694efe699bf1f584975157593282b0774a1db14ee501ba9e182cc8c166d913ed14efe8906cf402660a199e4c571110f563d969acc4518b3bd038f5b2dce3237a63dbf9661017c6bdb66e1a661bd57f175c8a0ed8c776022a89a52ec40075e09adea6f7552477747e3bd72fd9bf7a4c86f4b1f20522a852aa813ce799f0821f5563f497a671f987ceb83494748a67dd9235df632ec7333880b1b97c250d74b6a750fe333c16fd4b8333f4cb7308267b0b2989c53ec66bcc384fb1a75df145a53c2b9b3b2e7b25a8bca69f129339950d89cf60bb78ca3ff7907387713f6e81d1441f6bc577f8fe4dab355bd6cf171ad13500fcedca499a2325b0a53ff856c1485b84b4533440a27c405b4ac67ea4cdea11d0187c853c151f4b9019439d7a6d6b9b6994d0b7226112f89c5cc6163f601f62196607594353b6484b63c46bf1d2badbaeb981829f16438f0eaf1e84cd4cae6de9b53d4e9792ccd5d7bc31372a0212e0bf61919e5166d44aa5de99dcae17f8165a0020416730bfc1cf381b9e4fa58f322bb70c5ca597f4bc6885f6fb62024622a7bdfeaf80a442047e2ece7c63c986d9b06d2e8b9b72272ad0604bcef15fb477592be31e77f07328e8885e0e8ddb0d16a58bf57ed4048db32317cbec5bdcab53118c1b2e98ca3032e4475761c54a5b429b10d5eb3947bc603877d1e80b833c94694ecc05c2c3a1883330be0683f56d0998ae10c0702d720a6ab8168442be872f2ae45828dd09b4291c9589f1c4b82b7e0b98c755be1b3d60887fcac8688ca74937687ac0977e91c68a1073e4c95e6c1a9ab49313c9dc1baef362e82be7746c7e62ce9612f937cf36cb3fd90f69e2f5956435f09f0d40b159690322dca4bb55335200e16598cdbdda25c8a199e7515bca086c241dbdd24fc805b1f2e4c15dcc28c1a488dc22eb592bfa610b0fee0dee24abcae545c362ee6720e2813954980bac03c8c4c1b25c8023f9ff3010b8a268a6587bd610b6d6f1dce1d92d6c087f2e11ae39e0a239587df2905a5876e36648fd3cf649e02243ddd0f5481343d5a75e450808714e2a0c0da3a2c9e5d8f78143f34366292d0fe7beed4ef85db106eba90321d6c3f33c344d0eadd52f8844047fa0360940e75957cf5295f1af1227313f00b4f9e3e48ae85c3adc4818e3c92cac62ceaa7f4819a408ed623625fe18c674b0c02079f317adf439067e3e1017ceb4525c3bca5c9fa1b0c8c923821392dcc1d2a951450c1e98a3c34f801bf84c4fc116cdb677a8750fe4d85673023fbc3bee405948ab3f6595a8f6f1b0c74c5c9116963d1aedd0deca7a663fba9ef45696ad23ef1a8fd525745fbfa3a35505d8788ca1801d5173ff622939a2473519fa6436948f4b7d4861aebb95ef2fbd7b7bf805ec8f9e675db596756dc691879cdc66f03212bddf7ba41f5b134891f9944b0aa67e0ac87c0be708d876039499720226de22b29cf77e9a132ad1956bd6f9682c6a020405c54e993299d6982e906cb16780e160faaddf04d8c37e47e2c32a6db9ece6d81d0c93aaf1517314d4e56609ba4c5df121432394b5b5d658fa5b7c2ddf7020c222c505c7079888ba0a2b6b7babed0d6f10614202b55595a60646a8297c3cee4e7e8ef0000000000000000000000000000000000000b192c3e01",
        "005d9bcc186961f35760651ce33af8066e525e5033a7bbad3464631671e65e74662006edbabe23ea0af2f3dc9a40097d9b2a8ef5a32d7dcc8a60e7f3925a3b69464d221e521100aaf8b5b6ef9044bf8845ed014b78172d6703f51dc8fd3e78dba98a3f31aab5fbfd042ad76f200306da8cb1321c0f7feee00b280de111780db132d1d35e9d08bdc88073fb9a641b6bb2d498d6a6cd5de6ebf7c34351ec42c965f0415800cd798411812aefd293038500111c197814e387d378a7e4247896ae534498e9ed33895275e02e3a87204268dfcb240f361f4665e1b2080352beeabdc57da03f7a8ba2e4170c65043455599b5806b0c7d9a1302752054fcb941023c66e594d011c6b142cd7048e46d1fbe71d1f406d7bc07a98bb4c055363624dc4b3c121c87932707fa2394a309601d0416b590d92b613bedfa01eb76fe7741cef81d54d72ccbdb95cbdb2df466b187a56bd65457ac3eea71c416095d9a9aa25eff9ca0669f4676d9bd53c340a819151dc19c58cfe04ee63270702dcfcb7da187abf0562f168a7d8baa66824c6175f0d999f4dee64ed05795c7e8439b1e1118a9150108288b8722a583cf3d3e320478c8e72a277ba7c276a0267677848cd241a37486a70a3909e27a0e90ad561a5df8fc3729e69fd6dd19ea3036bdb9e9101c762f3520f38527a205924dd059e6be9a6b46622c0254fdcfb003538d24af4d4af185da5abb45484f195c95347e23427d5ba21edf4f4899215b8cb8ad7267220413aebca42fd03e044c872a161caae267909f9d7d1446f2c5146552dec31c9717998ffd57b10e3cefcee458cdf4118c6654680411f8be9ceba04952f1359495a890e1db07d36b63ae7413789ecc64530b61cf6a4ad86d7eec816da0f4c3a16d91b549e00c17a0ef52da84a07d1fbf69de9248bb66ced33b7ea35fb8d5ec4910350da4c18513bc4c8e65e80145d156f898ea94220c076456cb489fb38c38c6479529bc028fe19e5b2bd3318dbeb495ee790a350af11c5c105d2a280906548813e3531021511de0ec737a103052c087957d2be6dfcbb4da863faa01761295801b0d599e7c9e36f00af77883c046e169624948d38276e02f59a16d54c42bce0b9688ec0aa6877d33d7702ffa95425f73c006422f4eff19cd364646113b37adc349605536d0bd36165457ff7b73e4f92a6ae4eb9f1b6456e3c1e83c86c1ff9718eca7a4cc095279e194bb195b17ed1210e1ec0f2eb878e335dd07e62a134b6026c420075f1e68beb4dc80d0f0430f4eb463885583a51c0350e41c7969b4d4292c8a78f46c14ade7ed29af246f84d2863769d9ada75a556852bd90a3d095f9fabbe27771dd54a5e1eb80e5ca2be3e8e2664e6c843169bfc50d98c430b305f0c8236bd4e2c061d3dfbdecb05088894048ac10b64636111840419626aebd7e09852f8203492063ceaa259cc25aadbde8b76fc9e4e6c0d2a6aadd02350d95d0a22fbe0abff35993ec51ab66f0ac3822a1704d47bd25488bf0e03eae97fa05e85438e4661c211c48531ee3301d0ecdbc971558f849ab6ecd3c16e9c713fce61f22f6778fac2ac2785e23d55a37ac82728f01b8d066b52a446b2322254e2f983ef581b54d2b67c03e88690c9814de462bb194cf70670a457d7e2579a1063ff977c49172f7692ab470855c49ff7feca2466e0f2e96bfcec03acda7bda6d80d9a59da19467047d3fe2ba52beaadb24b89c301fe375b00c00ed12fb7c53c700cbb714250ab33fd2d7e3d10f6d661d2cf0617d7e2f45017fd2a4b7ea6d7c8d6f4206789fb9dd401839325b12af207b515b97303e2d8e9d9b8d4b383230d6ce014ad770dc97ae14f9857ab801"
      ],
      "sequence": 4294967294
    }
  ],
  "vout": [
    {
      "value": 1.0,
      "n": 0,
      "scriptPubKey": {
        "asm": "OP_RETURN b27632ea362e334d40290beaa8251292440b6a70ba142025075bcf6c518dec7b 87b6a59ae1e9c61c1df586325de08c7dc79cda95f741b31982763e09ff743e20a79685bac1c9e63c3dd5a6127dc0ac5de7bcfab5d7619339a2561e29df541e00c7f6e5daa1a9865c5db5c6721da0cc3d87dc9ad5b701f359c2367e49bf347e60e7d6c5fa8189a67c7d95e6523d80ec1da7fcbaf59721d379e2165e699f145e400736251a6169469c9d7506b2dd600cfd471c5a1577c1339902f6be897ff4bea02716053a414966bcbd552692fd402cdd673c7a3557e113b922d69ea95fd49e804776655a212906dcdd3546f29d204cbd075c1a55378173d942b6fec93fb4fee06756457a010926fcfd1566d2bd006c9d277c3a7517a153f96296dee91f94dec087b6a59ae1e9c61c1df586325de08c7dc79cda95f741b31982763e09ff743e20a79685bac1c9e63c3dd5a6127dc0ac5de7bcfab5d7619339a2561e29df541e00c7f6e5daa1a9865c5db5c6721da0cc3d87dc9ad5b701f359c2367e49bf347e60e7d6c5fa8189a67c7d95e6523d80ec1da7fcbaf59721d379e2165e699f145e400736251a6169469c9d7506b2dd600cfd471c5a1577c1339902f6be897ff4bea02716053a414966bcbd552692fd402cdd673c7a3557e113b922d69ea95fd49e804776655a212906dcdd3546f29d204cbd075c1a55378173d942b6fec93fb4fee06756457a010926fcfd1566d2bd006c9d277c3a7517a153f96296dee91f94dec087b6a59ae1e9c61c1df586325de08c7dc79cda95f741b31982763e09ff743e20a79685bac1c9e63c3dd5a6127dc0ac5de7bcfab5d7619339a2561e29df541e00c7f6e5daa1a9865c5db5c6721da0cc3d87dc9ad5b701f359c2367e49bf347e60e7d6c5fa8189a67c7d95e6523d80ec1da7fcbaf59721d379e2165e699f145e400736251a6169469c9d7506b2dd600cfd471c5a1577c1339902f6be897ff4bea02716053a414966bcbd552692fd402cdd673c7a3557e113b922d69ea95fd49e804776655a212906dcdd3546f29d204cbd075c1a55378173d942b6fec93fb4fee06756457a010926fcfd1566d2bd006c9d277c3a7517a153f96296dee91f94dec087b6a59ae1e9c61c1df586325de08c7dc79cda95f741b31982763e09ff743e20a79685bac1c9e63c3dd5a6127dc0ac5de7bcfab5d7619339a2561e29df541e00c7f6e5daa1a9865c5db5c6721da0cc3d87dc9ad5b701f359c2367e49bf347e60e7d6c5fa8189a67c7d95e6523d80ec1da7fcbaf59721d379e2165e699f145e400736251a6169469c9d7506b2dd600cfd471c5a1577c1339902f6be897ff4bea02716053a414966bcbd552692fd402cdd673c7a3557e113b922d69ea95fd49e804776655a212906dcdd3546f29d204cbd075c1a55378173d942b6fec93fb4fee06756457a010926fcfd1566d2bd006c9d277c3a7517a153f96296dee91f94dec087b6a59ae1e9c61c1df586325de08c7dc79cda95f741b31982763e09ff743e20a79685bac1c9e63c3dd5a6127dc0ac5de7bcfab5d7619339a2561e29df541e00c7f6e5daa1a9865c5db5c6721da0cc3d87dc9ad5b701f359c2367e49bf347e60e7d6c5fa8189a67c7d95e6523d80ec1da7fcbaf59721d379e2165e699f145e400736251a6169469c9d7506b2dd600cfdb0dbbf2ad49862878b17dfabfd30160b0db49bf5819390c7edc506e404fbb7af",
        "hex": "6a20b27632ea362e334d40290beaa8251292440b6a70ba142025075bcf6c518dec7b4db00487b6a59ae1e9c61c1df586325de08c7dc79cda95f741b31982763e09ff743e20a79685bac1c9e63c3dd5a6127dc0ac5de7bcfab5d7619339a2561e29df541e00c7f6e5daa1a9865c5db5c6721da0cc3d87dc9ad5b701f359c2367e49bf347e60e7d6c5fa8189a67c7d95e6523d80ec1da7fcbaf59721d379e2165e699f145e400736251a6169469c9d7506b2dd600cfd471c5a1577c1339902f6be897ff4bea02716053a414966bcbd552692fd402cdd673c7a3557e113b922d69ea95fd49e804776655a212906dcdd3546f29d204cbd075c1a55378173d942b6fec93fb4fee06756457a010926fcfd1566d2bd006c9d277c3a7517a153f96296dee91f94dec087b6a59ae1e9c61c1df586325de08c7dc79cda95f741b31982763e09ff743e20a79685bac1c9e63c3dd5a6127dc0ac5de7bcfab5d7619339a2561e29df541e00c7f6e5daa1a9865c5db5c6721da0cc3d87dc9ad5b701f359c2367e49bf347e60e7d6c5fa8189a67c7d95e6523d80ec1da7fcbaf59721d379e2165e699f145e400736251a6169469c9d7506b2dd600cfd471c5a1577c1339902f6be897ff4bea02716053a414966bcbd552692fd402cdd673c7a3557e113b922d69ea95fd49e804776655a212906dcdd3546f29d204cbd075c1a55378173d942b6fec93fb4fee06756457a010926fcfd1566d2bd006c9d277c3a7517a153f96296dee91f94dec087b6a59ae1e9c61c1df586325de08c7dc79cda95f741b31982763e09ff743e20a79685bac1c9e63c3dd5a6127dc0ac5de7bcfab5d7619339a2561e29df541e00c7f6e5daa1a9865c5db5c6721da0cc3d87dc9ad5b701f359c2367e49bf347e60e7d6c5fa8189a67c7d95e6523d80ec1da7fcbaf59721d379e2165e699f145e400736251a6169469c9d7506b2dd600cfd471c5a1577c1339902f6be897ff4bea02716053a414966bcbd552692fd402cdd673c7a3557e113b922d69ea95fd49e804776655a212906dcdd3546f29d204cbd075c1a55378173d942b6fec93fb4fee06756457a010926fcfd1566d2bd006c9d277c3a7517a153f96296dee91f94dec087b6a59ae1e9c61c1df586325de08c7dc79cda95f741b31982763e09ff743e20a79685bac1c9e63c3dd5a6127dc0ac5de7bcfab5d7619339a2561e29df541e00c7f6e5daa1a9865c5db5c6721da0cc3d87dc9ad5b701f359c2367e49bf347e60e7d6c5fa8189a67c7d95e6523d80ec1da7fcbaf59721d379e2165e699f145e400736251a6169469c9d7506b2dd600cfd471c5a1577c1339902f6be897ff4bea02716053a414966bcbd552692fd402cdd673c7a3557e113b922d69ea95fd49e804776655a212906dcdd3546f29d204cbd075c1a55378173d942b6fec93fb4fee06756457a010926fcfd1566d2bd006c9d277c3a7517a153f96296dee91f94dec087b6a59ae1e9c61c1df586325de08c7dc79cda95f741b31982763e09ff743e20a79685bac1c9e63c3dd5a6127dc0ac5de7bcfab5d7619339a2561e29df541e00c7f6e5daa1a9865c5db5c6721da0cc3d87dc9ad5b701f359c2367e49bf347e60e7d6c5fa8189a67c7d95e6523d80ec1da7fcbaf59721d379e2165e699f145e400736251a6169469c9d7506b2dd600cfdb0dbbf2ad49862878b17dfabfd30160b0db49bf5819390c7edc506e404fbb7af",
        "type": "nulldata"
      }
    },
    {
      "value": 499968.4761,
      "n": 1,
      "scriptPubKey": {
        "asm": "1 ea49074a83a24f03e5d1970e73edbe275bd6da44b740773dd7e7d6b5c421d6c4",
        "hex": "5120ea49074a83a24f03e5d1970e73edbe275bd6da44b740773dd7e7d6b5c421d6c4",
        "reqSigs": 1,
        "type": "witness_v1_scripthash",
        "addresses": [
          "3QJmnh"
        ]
      }
    }
  ],
  "blockhash": "f0ff1fbaae405cadeb51abb379c93a956cf666ff613992ee95c2f945c1780bd2",
  "confirmations": 1,
  "time": 1764181685,
  "blocktime": 1764181685
}