{
  "hex": "0100000000010156e5a3d9dc873486c94a651ab74a004bbb2e59c670d8db5ea6743083e49f152a0000000000feffffff02e07828ba782d00002251206d1124e91c95230379df7d4bce083900270ecade91c62b40f49d500d7986755100e1f50500000000fdd5046a2051d94351ea1ddc0bed21c85ec1ff9a04f435fd1219aca3530c82c2d9464c23da4db0046cf3c3e97f8bdc5374be39b91075bd96c5284670f99711759cce66739d0babed4cd3e3c95fabfc73549e199930559db6e5086650d9b73155bcee4653bd2b8bcd2cb383a93fcb9c1334fe79f95035fdd685680630b9d75135dc8e2633dd4bebad0c93a3891febbc3314de59d97015ddf6a548261099f77115fcae0613fd6bcb8dec734369ff0b5cd3f43eb93990f53d1645a8c6f0791791f51c4ee6f31d8b2b6dcc536349df2b7cf3d41e9919b0d51d366588e6d05937b1d53c6ec6d33dab0b4dac330329bf4b1c93b47ef979d0b57d5605e886b03957d1b55c0ea6b35dcb6b2d8c1323099f6b3cb3945ed959f0955d7625c8a6901977f1957c2e86937deb4b0d6cf3c3e97f8bdc5374be39b91075bd96c5284670f99711759cce66739d0babed4cd3e3c95fabfc73549e199930559db6e5086650d9b73155bcee4653bd2b8bcd2cb383a93fcb9c1334fe79f95035fdd685680630b9d75135dc8e2633dd4bebad0c93a3891febbc3314de59d97015ddf6a548261099f77115fcae0613fd6bcb8dec734369ff0b5cd3f43eb93990f53d1645a8c6f0791791f51c4ee6f31d8b2b6dcc536349df2b7cf3d41e9919b0d51d366588e6d05937b1d53c6ec6d33dab0b4dac330329bf4b1c93b47ef979d0b57d5605e886b03957d1b55c0ea6b35dcb6b2d8c1323099f6b3cb3945ed959f0955d7625c8a6901977f1957c2e86937deb4b0d6cf3c3e97f8bdc5374be39b91075bd96c5284670f99711759cce66739d0babed4cd3e3c95fabfc73549e199930559db6e5086650d9b73155bcee4653bd2b8bcd2cb383a93fcb9c1334fe79f95035fdd685680630b9d75135dc8e2633dd4bebad0c93a3891febbc3314de59d97015ddf6a548261099f77115fcae0613fd6bcb8dec734369ff0b5cd3f43eb93990f53d1645a8c6f0791791f51c4ee6f31d8b2b6dcc536349df2b7cf3d41e9919b0d51d366588e6d05937b1d53c6ec6d33dab0b4dac330329bf4b1c93b47ef979d0b57d5605e886b03957d1b55c0ea6b35dcb6b2d8c1323099f6b3cb3945ed959f0955d7625c8a6901977f1957c2e86937deb4b0d6cf3c3e97f8bdc5374be39b91075bd96c5284670f99711759cce66739d0babed4cd3e3c95fabfc73549e199930559db6e5086650d9b73155bcee4653bd2b8bcd2cb383a93fcb9c1334fe79f95035fdd685680630b9d75135dc8e2633dd4bebad0c93a3891febbc3314de59d97015ddf6a548261099f77115fcae0613fd6bcb8dec734369ff0b5cd3f43eb93990f53d1645a8c6f0791791f51c4ee6f31d8b2b6dcc536349df2b7cf3d41e9919b0d51d366588e6d05937b1d53c6ec6d33dab0b4dac330329bf4b1c93b47ef979d0b57d5605e886b03957d1b55c0ea6b35dcb6b2d8c1323099f6b3cb3945ed959f0955d7625c8a6901977f1957c2e86937deb4b0d6cf3c3e97f8bdc5374be39b91075bd96c5284670f99711759cce66739d0babed4cd3e3c95fabfc73549e199930559db6e5086650d9b73155bcee4653bd2b8bcd2cb383a93fcb9c1334fe79f95035fdd685680630b9d75135dc8e2633dd4bebad0c93a3891febbc3314de59d97015ddf6a548261099f77115fcae0613fd6bcb8dec734369ff0b5cd3f43eb93990f53d1663e48228b13313bbd99a0aef749db8cc7336e9d6174661221ea0d56985931ed302fd750987e04f31c2218afd88bb67a3bde5c3d37b760bbf55f7f94b5f9e0eb25e6cfdcc43af05334a3e77d33ade31fd4814e295e2ba979c399e9a277ba43be5c821ff32d05383cb47b36d72e64d0a98b5202042b1ae6d839e8c7cf4db9d781f53404eb428e03c12f8de3f7ca00a7b6e7794c83e0e803e228cd9672bc6f1186011ae8e4c908cd2da1dfb9b3bae2395853e834e88f0c67b4cdb0aa7a8d64c00965f4c306f51e4e681c7185bb74a27eebcce8b37fc9b1a4f1c2e3f19e5be2d1cc9b732f76d9823ae892597bca55e05a2411e3b7d95ffe37f5b459001034eb970ac4367546d10203f5039a04d313ed07fc6970130b61d2d334e40c04db2ca69ff95e3089270f60c522e03853c5297e61cca627ededb1457c635216797c86695913d6eaf1d2e70eb0abee55cf2771763d7560077035eef832d913b99f31aff1c7e08c5c5f87d47011bc9139d89b27ab81a701fcbf78e293c4afa1f1c5aa8821a40a75d922d469113ea4adfc5a1356cc2e8155da1861a651b2670a148e209cacedfd24e93baa469f352f7e0c1d0ea21d756724f52ac4c083441dec99dc72a9fbe7cafebb8b47584c17b0f3ca121fef256ec89a446ed94319b3fd3b77c71952af482a121394fc026048bbb266f3dcd537d8529953cd99c00c65f93a0dd510dc9bcdb84c04b54cd98a6cf4e0f7d899a261b5a70723e9d417481a3ce0d17e5f453115cd1d63806507607c330421d59c46298b324fd2c51ac4569291008269f6453217df90ce1521f6724694a154bdaed915914c09e428045cce2508d1935b04660449be0683ab2280a0595f5a19203cc88ce30603e639ae9d3967ec397037fc152e60a7109874c60505b9d332504c32bb8036b50f2c23c1a224ada9aa8f8ba9e5ae81516353f495c64380f5741375c90fe1ecbdcd71818d30bf540aacdbd0a80cf4dc89ba8ac6a7f56f07ccb871b200c367d83e977351e8e54f49a6061e1d41deb9320ba72efb4487da3e377ee967f008faa014c21cfa94a2389ba8b6b7aa13171519fb8db10fe93e7dbba2e9295c85baab8b22ac574de27a7307d82ed051ee5db7b18ab1d631f3283173c86f9592c6411857b5d626064b886ed3caddd01224d4cbd67f33e2dbdbad6a6e4d887300a9fb61f8cc1b25bc6d6b30877589f65832c750fdea71c7657b9872df32adc08152444b073c57e19982c4dc08134d42dcd1548972bb2a9eef5464d328646f2a6ecc146fce3b4be02d9d09b1e37caac5264098aadf1a595f03d5a1b0bec37f2c1629677e7e9f364bf6cba2e3c965ee123fcb2854568724e2f07e8c5e5b8f5106ee93563364805b6a5960113904ab9e45f6a28ffc0ed8551fccab1b4331f4b8102518d4d081033f21c61136dcb2ad527863db244fe51f4c5dc60f9b938bb215f1437b1a5df174789d422d9e7bafb5ea7b754e75a418072e6dc7e7b96945cb7681832b189641a748ef99ea2c7e8f41b0a8c929be0cd2b72d643a92b8bde5fe4f1012ecfc62cc6518d31b6c6d56fdb3f5a57edd3c2eeaab7b20b43480ae1c92579db5703502cf3824ed9d6deb3f57ec9b9353477bbe38964df4b8c68ad324dd2aae898a38dd01024c2179550ba0a691b0b094d1f7c28b03575c89d7df100f6318f04ab07c387a6eb471321d9127d62f4472767083eadf5eaf88409023b1eb1cc78aae832357168e5d922261c9695dedba71e8bf7e122d221a47946eff28b69352c6f52c4e3d03a834e680930ca2ecb5b9367572960f943494a96d4ded0676d671a2849142bff273a939d8891217594fcc216d75ddeba09c62e97746d4a77430634c800f2fb18453a85bebfb43f852959b6947230ec7df6c57c98114f702964d7786f2bf224e585235f5f30829d043de82d2f72e16f5e4541ca8d5b9288304f1c700f42331b6996de3de7b538bc33032d25c1864cbc99b292aaa53188673308679d1e4f61058a12c3a8acd02c46defa519733784bae723515884694c99d85238031e422955f6765d7e9d701fc97031225435ff3f59f7212cffb887aa1c7320019e7c077b42516b80032f0675cb214294bdb7abbb72e1bd6bc1a259568492e7d66c80935e1abb2146d71f85ace36ae675883eaf8a515d20c91afcacd8aeeb87f1339c76670b67d8000dddd53713a903be8d3fa437dcea08e05b0994a03a086f2d2a6a6cc8017dbb2b6aa3d5ce512c59ac107e68f82828591f9147b584968809a268359b84eac22722128512a2d144de91d3bfabe0ca0d49e8f34616323e585fc8035ee0d36cffd76886dae040f7418933f57b98967211682b933fea47ddf722f3fa3fad37df0c58a5fa3f2ab5e0e39b407c8361f37298c778d6a9eeac593373278b9410abfb99adedd75af7f2eeff7766339d977b3854d037b962672399ed51a5045d805540797bfef07953bfb6e9cb1875fb069a7243506fa596afced3041f08578ed28600b56eaf76d6a5a679bca65ae36458de8f6d9bc4e2832ad0f03176ec9ebf5657b2a561abbb4c49dff1570b8bad1d9896ca0fe19436e06d9286c740de76be3ae8fbdaf0817760de38c024217faec0760043dff4852d16094b79c5c0763ff2c9c25bb8fb36f27abfb63330dd323fa41341f21ef0de6e57a4317a065f16b0669907c55a60767a40c423de42f234bfb70bab9fba534b2cc07664cc260744d03dbec232e2a7b9ecc7f036a03e73f80738dd04af92ea0e159c6652bd37c25800c1610719bc0cb183c87c7eb2d28b2d2b252256eee3e07b24d5e4db21a377e49e11c526519a599c8d6c620dd033e2b81384e2dd7f667e4d42a31fb3aed63651dd52047fba8a466e9b13f8b2c88cda95d3eff6e603640e1c0f485fa75eda3d420e43330795ed8cf3acd5b83ce698f83f76f54365479f80f431fc30ea2d0712c4c233170b7f24330d1b530fbdd031035972a548b4dbecd1b003aa32d9ee6373ec2ce580fa4ad0b5b8f5cf6b62add007674fb875f181d8f2e7016fa76da752a6461acc3cb075ab7ddda2212de65daf1f7c56074c79b2acdc40de5c186f3c8ed2fc5c606a4490ed623e62710591b218a7596adfaa19bd95740d6b5c4c875ae7ba185ef2d40cd9ba8ed6edf8c47ef94d2690bce3715c891d9a178c76258c7f9901f461b50d6151489cca0351107af875fa124e1dc6a6972a44a8640c64b386e9d59978c99f4e50f3fc1e561cfee7a28d88a246ce6795a01a6d358f09d073ae9e93114a75020fb8e23b7327b9ae3e937fb6ae750376ccaed873ddaae1e661eb7ec5dc4b1efaf25aff1d2b5e4297bae6c5005501955d5f1719d8048b0ab7e924051868a939fabacc1c3c5e2fc0330475f676f9dafc5c9e8f41e3d416165676a78929da7a8abbec6cbe4f411253b427274767b8389bbbcc6edee000000000000000000000000000000000000000000000d192b3a01fd210500cffe0fcdc09747fe7671de1e363ce012cbb42ffa50ae2edbf69810999a9aa38562a27f40c1a9df685438b370ecdcd901b8e7a8aa00392adffc1a4856b38b7160e2e4dc8bbd2982230d3ad3b9eaaebffd60d2a6d21935801ea3c73cbefdb2c1746f0659292a467fa06fa097fa2a6af7883eaeef66c4b323adab4041d20dc1a9fb55de632ba63a8fd3f2f9d7b823a49097e257248b18f4dadabef437c98d0fcf172ba3a96d226fcbca56d496dd31cb852423b36582bccce35d2a5ac0deb326cf171ba32ae04999d9d9a905f16ab48aad48af8e17d4a2a9297cf5783defcb346f6bab378765f5244e1e7fce4e5b97161ae3bfb8873b578572819f39ae7565dadbba844b4c6b37298cf94642ec16936e74778b1be6aec9023cb97538abb6fa1fa7440695e05a33e78034870747f8d26d585a631c052fff827fc80b320dc207750bbd64bfc0f8bc1c88c3ff4913cbad09b8003d31e1a0092712fd703ed20e131f98a7a301eaf07d9fd2b779f26a79e4214925fa490a1de986a0b0efea2d14ca78542e6495e0e91b107072b7fbbe7e02029fc6cd5925428556bdb6da1c6adef78a2f0120c794ee5e09b25e0398267c792b2301dbff178c987b504930979d1bd5fcd48e651fd5d00f059b8da7f0310799131ddcf3606cc541f7b46e55e8b27ed0df81813d81b955c020de2573095a7b3d55cf3ea7ca493d2ff538e56b493354036b2c259543a8cc9f655b5863fa2c4a93dee1f169d9639d5e16984fc01f1ba0d9be4d866a829299c02f8e9e6ab1c64b6933ac186d965f360c93762f493ae799ebea162f9fe1d1bf3d26676c453cf6b95d2d8aa563c76a0ce8c38b3af5b5c61478e1729bc3a542c121664d215f642d8db111e791e900a3aa5cf83c8d75760b6ee5be3e63c68652ca2fcccf3826d1a4d4c4b98ee36efb58ee06683b0d6a0500bdd87d85af85244fa28c26c9853af92b49c4cb3d0b9f80308a86b6fc2da6b5b1c3c55769f93d5060e44d303e343e4fda3906235214e1c96d13325f95fa33d511688cad60fe1f9c904eb59224d66d7e25159ed8a771e147cefcc65214c911ff8f80c3aacb2fdba0cf66d1c411c311d478aaeb51e2d0218ec2a98aa242145b8f96a062bf62ff75dafd962046c75502915aab4c1d8d22ce3ee66ff5c9bfcb34fe40a085da90188f1354beab0cdd5854e871c5ce346002013c06e1af53b997209541085b83d0ed47b9a70485e4c11fb99cdf1a867cc074324674f5848a00a8ca78911edd89ac4399f8daeead00bcd79a7a2f385c0173e7a76dea59863df0ecac2ccb9c596b76b7be7f6359cad71bfef3d7e9f7f99ceb13a56a63562f1dd92fb22bee6a6130b1f3df58d740f94ad57257838d62cab29390f95850d27e657e4336ba72dd3db2956ad1cf45278fc7134fb0b52ed630762588b6c1735936d897d21c0420910a29c3a4a7eae1476f0ad3fed1436d4a7810841699be81c469aafd3f3b9bc06617c028ff057d68a30196f76e5a681cbd372718785014727d29c725c9e257c623aae00d05db343b1f84e9941ecb68ec037b3006aba2d572ad66b966ccc66fb992de73f64697a75a96e5645bdd55e7226bc976f748100400d6743dd7bbcd3fd63c4a6ccb780ce56ffc82369ec555f4e2b79689fa39119718570428e3a0ba09c9737fb55c5f86e4f6f5fe4a8bc83d9ab60da84a781530352185c92838d5c4b307c59a2369be2c26c481fb5102df8340c7fd46702a76bb9d4b411d522bd03d54c62e8b1d1701a851890c3a165bded536b7bbe9fc0155ae30cd1b5f209d5554785a1e82903f86be11c35b1c6a4389faaca5d7847cc69096864e6f8e52c8cf6a0c30f09fe4d20581000000",
  "txid": "f6720d6368ed438b20360ed4534084c1d84b505d9bec1191f2a22b84a7f49afa",
  "hash": "e277f43fda315e144bea917f2f025d209421608fd3521bdab8d81d8d1397f2a4",
  "size": 5085,
  "vsize": 2278,
  "version": 1,
  "locktime": 129,
  "vin": [
    {
      "txid": "2a159fe4833074a65edbd870c6592ebb4b004ab71a654ac9863487dcd9a3e556",
      "vout": 0,
      "scriptSig": {
        "asm": "",
        "hex": ""
      },
      "txinwitness": [
        "87e04f31c2218afd88bb67a3bde5c3d37b760bbf55f7f94b5f9e0eb25e6cfdcc43af05334a3e77d33ade31fd4814e295e2ba979c399e9a277ba43be5c821ff32d05383cb47b36d72e64d0a98b5202042b1ae6d839e8c7cf4db9d781f53404eb428e03c12f8de3f7ca00a7b6e7794c83e0e803e228cd9672bc6f1186011ae8e4c908cd2da1dfb9b3bae2395853e834e88f0c67b4cdb0aa7a8d64c00965f4c306f51e4e681c7185bb74a27eebcce8b37fc9b1a4f1c2e3f19e5be2d1cc9b732f76d9823ae892597bca55e05a2411e3b7d95ffe37f5b459001034eb970ac4367546d10203f5039a04d313ed07fc6970130b61d2d334e40c04db2ca69ff95e3089270f60c522e03853c5297e61cca627ededb1457c635216797c86695913d6eaf1d2e70eb0abee55cf2771763d7560077035eef832d913b99f31aff1c7e08c5c5f87d47011bc9139d89b27ab81a701fcbf78e293c4afa1f1c5aa8821a40a75d922d469113ea4adfc5a1356cc2e8155da1861a651b2670a148e209cacedfd24e93baa469f352f7e0c1d0ea21d756724f52ac4c083441dec99dc72a9fbe7cafebb8b47584c17b0f3ca121fef256ec89a446ed94319b3fd3b77c71952af482a121394fc026048bbb266f3dcd537d8529953cd99c00c65f93a0dd510dc9bcdb84c04b54cd98a6cf4e0f7d899a261b5a70723e9d417481a3ce0d17e5f453115cd1d63806507607c330421d59c46298b324fd2c51ac4569291008269f6453217df90ce1521f6724694a154bdaed915914c09e428045cce2508d1935b04660449be0683ab2280a0595f5a19203cc88ce30603e639ae9d3967ec397037fc152e60a7109874c60505b9d332504c32bb8036b50f2c23c1a224ada9aa8f8ba9e5ae81516353f495c64380f5741375c90fe1ecbdcd71818d30bf540aacdbd0a80cf4dc89ba8ac6a7f56f07ccb871b200c367d83e977351e8e54f49a6061e1d41deb9320ba72efb4487da3e377ee967f008faa014c21cfa94a2389ba8b6b7aa13171519fb8db10fe93e7dbba2e9295c85baab8b22ac574de27a7307d82ed051ee5db7b18ab1d631f3283173c86f9592c6411857b5d626064b886ed3caddd01224d4cbd67f33e2dbdbad6a6e4d887300a9fb61f8cc1b25bc6d6b30877589f65832c750fdea71c7657b9872df32adc08152444b073c57e19982c4dc08134d42dcd1548972bb2a9eef5464d328646f2a6ecc146fce3b4be02d9d09b1e37caac5264098aadf1a595f03d5a1b0bec37f2c1629677e7e9f364bf6cba2e3c965ee123fcb2854568724e2f07e8c5e5b8f5106ee93563364805b6a5960113904ab9e45f6a28ffc0ed8551fccab1b4331f4b8102518d4d081033f21c61136dcb2ad527863db244fe51f4c5dc60f9b938bb215f1437b1a5df174789d422d9e7bafb5ea7b754e75a418072e6dc7e7b96945cb7681832b189641a748ef99ea2c7e8f41b0a8c929be0cd2b72d643a92b8bde5fe4f1012ecfc62cc6518d31b6c6d56fdb3f5a57edd3c2eeaab7b20b43480ae1c92579db5703502cf3824ed9d6deb3f57ec9b9353477bbe38964df4b8c68ad324dd2aae898a38dd01024c2179550ba0a691b0b094d1f7c28b03575c89d7df100f6318f04ab07c387a6eb471321d9127d62f4472767083eadf5eaf88409023b1eb1cc78aae832357168e5d922261c9695dedba71e8bf7e122d221a47946eff28b69352c6f52c4e3d03a834e680930ca2ecb5b9367572960f943494a96d4ded0676d671a2849142bff273a939d8891217594fcc216d75ddeba09c62e97746d4a77430634c800f2fb18453a85bebfb43f852959b6947230ec7df6c57c98114f702964d7786f2bf224e585235f5f30829d043de82d2f72e16f5e4541ca8d5b9288304f1c700f42331b6996de3de7b538bc33032d25c1864cbc99b292aaa53188673308679d1e4f61058a12c3a8acd02c46defa519733784bae723515884694c99d85238031e422955f6765d7e9d701fc97031225435ff3f59f7212cffb887aa1c7320019e7c077b42516b80032f0675cb214294bdb7abbb72e1bd6bc1a259568492e7d66c80935e1abb2146d71f85ace36ae675883eaf8a515d20c91afcacd8aeeb87f1339c76670b67d8000dddd53713a903be8d3fa437dcea08e05b0994a03a086f2d2a6a6cc8017dbb2b6aa3d5ce512c59ac107e68f82828591f9147b584968809a268359b84eac22722128512a2d144de91d3bfabe0ca0d49e8f34616323e585fc8035ee0d36cffd76886dae040f7418933f57b98967211682b933fea47ddf722f3fa3fad37df0c58a5fa3f2ab5e0e39b407c8361f37298c778d6a9eeac593373278b9410abfb99adedd75af7f2eeff7766339d977b3854d037b962672399ed51a5045d805540797bfef07953bfb6e9cb1875fb069a7243506fa596afced3041f08578ed28600b56eaf76d6a5a679bca65ae36458de8f6d9bc4e2832ad0f03176ec9ebf5657b2a561abbb4c49dff1570b8bad1d9896ca0fe19436e06d9286c740de76be3ae8fbdaf0817760de38c024217faec0760043dff4852d16094b79c5c0763ff2c9c25bb8fb36f27abfb63330dd323fa41341f21ef0de6e57a4317a065f16b0669907c55a60767a40c423de42f234bfb70bab9fba534b2cc07664cc260744d03dbec232e2a7b9ecc7f036a03e73f80738dd04af92ea0e159c6652bd37c25800c1610719bc0cb183c87c7eb2d28b2d2b252256eee3e07b24d5e4db21a377e49e11c526519a599c8d6c620dd033e2b81384e2dd7f667e4d42a31fb3aed63651dd52047fba8a466e9b13f8b2c88cda95d3eff6e603640e1c0f485fa75eda3d420e43330795ed8cf3acd5b83ce698f83f76f54365479f80f431fc30ea2d0712c4c233170b7f24330d1b530fbdd031035972a548b4dbecd1b003aa32d9ee6373ec2ce580fa4ad0b5b8f5cf6b62add007674fb875f181d8f2e7016fa76da752a6461acc3cb075ab7ddda2212de65daf1f7c56074c79b2acdc40de5c186f3c8ed2fc5c606a4490ed623e62710591b218a7596adfaa19bd95740d6b5c4c875ae7ba185ef2d40cd9ba8ed6edf8c47ef94d2690bce3715c891d9a178c76258c7f9901f461b50d6151489cca0351107af875fa124e1dc6a6972a44a8640c64b386e9d59978c99f4e50f3fc1e561cfee7a28d88a246ce6795a01a6d358f09d073ae9e93114a75020fb8e23b7327b9ae3e937fb6ae750376ccaed873ddaae1e661eb7ec5dc4b1efaf25aff1d2b5e4297bae6c5005501955d5f1719d8048b0ab7e924051868a939fabacc1c3c5e2fc0330475f676f9dafc5c9e8f41e3d416165676a78929da7a8abbec6cbe4f411253b427274767b8389bbbcc6edee000000000000000000000000000000000000000000000d192b3a01",
        "00cffe0fcdc09747fe7671de1e363ce012cbb42ffa50ae2edbf69810999a9aa38562a27f40c1a9df685438b370ecdcd901b8e7a8aa00392adffc1a4856b38b7160e2e4dc8bbd2982230d3ad3b9eaaebffd60d2a6d21935801ea3c73cbefdb2c1746f0659292a467fa06fa097fa2a6af7883eaeef66c4b323adab4041d20dc1a9fb55de632ba63a8fd3f2f9d7b823a49097e257248b18f4dadabef437c98d0fcf172ba3a96d226fcbca56d496dd31cb852423b36582bccce35d2a5ac0deb326cf171ba32ae04999d9d9a905f16ab48aad48af8e17d4a2a9297cf5783defcb346f6bab378765f5244e1e7fce4e5b97161ae3bfb8873b578572819f39ae7565dadbba844b4c6b37298cf94642ec16936e74778b1be6aec9023cb97538abb6fa1fa7440695e05a33e78034870747f8d26d585a631c052fff827fc80b320dc207750bbd64bfc0f8bc1c88c3ff4913cbad09b8003d31e1a0092712fd703ed20e131f98a7a301eaf07d9fd2b779f26a79e4214925fa490a1de986a0b0efea2d14ca78542e6495e0e91b107072b7fbbe7e02029fc6cd5925428556bdb6da1c6adef78a2f0120c794ee5e09b25e0398267c792b2301dbff178c987b504930979d1bd5fcd48e651fd5d00f059b8da7f0310799131ddcf3606cc541f7b46e55e8b27ed0df81813d81b955c020de2573095a7b3d55cf3ea7ca493d2ff538e56b493354036b2c259543a8cc9f655b5863fa2c4a93dee1f169d9639d5e16984fc01f1ba0d9be4d866a829299c02f8e9e6ab1c64b6933ac186d965f360c93762f493ae799ebea162f9fe1d1bf3d26676c453cf6b95d2d8aa563c76a0ce8c38b3af5b5c61478e1729bc3a542c121664d215f642d8db111e791e900a3aa5cf83c8d75760b6ee5be3e63c68652ca2fcccf3826d1a4d4c4b98ee36efb58ee06683b0d6a0500bdd87d85af85244fa28c26c9853af92b49c4cb3d0b9f80308a86b6fc2da6b5b1c3c55769f93d5060e44d303e343e4fda3906235214e1c96d13325f95fa33d511688cad60fe1f9c904eb59224d66d7e25159ed8a771e147cefcc65214c911ff8f80c3aacb2fdba0cf66d1c411c311d478aaeb51e2d0218ec2a98aa242145b8f96a062bf62ff75dafd962046c75502915aab4c1d8d22ce3ee66ff5c9bfcb34fe40a085da90188f1354beab0cdd5854e871c5ce346002013c06e1af53b997209541085b83d0ed47b9a70485e4c11fb99cdf1a867cc074324674f5848a00a8ca78911edd89ac4399f8daeead00bcd79a7a2f385c0173e7a76dea59863df0ecac2ccb9c596b76b7be7f6359cad71bfef3d7e9f7f99ceb13a56a63562f1dd92fb22bee6a6130b1f3df58d740f94ad57257838d62cab29390f95850d27e657e4336ba72dd3db2956ad1cf45278fc7134fb0b52ed630762588b6c1735936d897d21c0420910a29c3a4a7eae1476f0ad3fed1436d4a7810841699be81c469aafd3f3b9bc06617c028ff057d68a30196f76e5a681cbd372718785014727d29c725c9e257c623aae00d05db343b1f84e9941ecb68ec037b3006aba2d572ad66b966ccc66fb992de73f64697a75a96e5645bdd55e7226bc976f748100400d6743dd7bbcd3fd63c4a6ccb780ce56ffc82369ec555f4e2b79689fa39119718570428e3a0ba09c9737fb55c5f86e4f6f5fe4a8bc83d9ab60da84a781530352185c92838d5c4b307c59a2369be2c26c481fb5102df8340c7fd46702a76bb9d4b411d522bd03d54c62e8b1d1701a851890c3a165bded536b7bbe9fc0155ae30cd1b5f209d5554785a1e82903f86be11c35b1c6a4389faaca5d7847cc69096864e6f8e52c8cf6a0c30f09fe4d205"
      ],
      "sequence": 4294967294
    }
  ],
  "vout": [
    {
      "value": 499965.4254,
      "n": 0,
      "scriptPubKey": {
        "asm": "1 6d1124e91c95230379df7d4bce083900270ecade91c62b40f49d500d79867551",
        "hex": "51206d1124e91c95230379df7d4bce083900270ecade91c62b40f49d500d79867551",
        "reqSigs": 1,
        "type": "witness_v1_scripthash",
        "addresses": [
          "3QJmnh"
        ]
      }
    },
    {
      "value": 1.0,
      "n": 1,
      "scriptPubKey": {
        "asm": "OP_RETURN 51d94351ea1ddc0bed21c85ec1ff9a04f435fd1219aca3530c82c2d9464c23da 6cf3c3e97f8bdc5374be39b91075bd96c5284670f99711759cce66739d0babed4cd3e3c95fabfc73549e199930559db6e5086650d9b73155bcee4653bd2b8bcd2cb383a93fcb9c1334fe79f95035fdd685680630b9d75135dc8e2633dd4bebad0c93a3891febbc3314de59d97015ddf6a548261099f77115fcae0613fd6bcb8dec734369ff0b5cd3f43eb93990f53d1645a8c6f0791791f51c4ee6f31d8b2b6dcc536349df2b7cf3d41e9919b0d51d366588e6d05937b1d53c6ec6d33dab0b4dac330329bf4b1c93b47ef979d0b57d5605e886b03957d1b55c0ea6b35dcb6b2d8c1323099f6b3cb3945ed959f0955d7625c8a6901977f1957c2e86937deb4b0d6cf3c3e97f8bdc5374be39b91075bd96c5284670f99711759cce66739d0babed4cd3e3c95fabfc73549e199930559db6e5086650d9b73155bcee4653bd2b8bcd2cb383a93fcb9c1334fe79f95035fdd685680630b9d75135dc8e2633dd4bebad0c93a3891febbc3314de59d97015ddf6a548261099f77115fcae0613fd6bcb8dec734369ff0b5cd3f43eb93990f53d1645a8c6f0791791f51c4ee6f31d8b2b6dcc536349df2b7cf3d41e9919b0d51d366588e6d05937b1d53c6ec6d33dab0b4dac330329bf4b1c93b47ef979d0b57d5605e886b03957d1b55c0ea6b35dcb6b2d8c1323099f6b3cb3945ed959f0955d7625c8a6901977f1957c2e86937deb4b0d6cf3c3e97f8bdc5374be39b91075bd96c5284670f99711759cce66739d0babed4cd3e3c95fabfc73549e199930559db6e5086650d9b73155bcee4653bd2b8bcd2cb383a93fcb9c1334fe79f95035fdd685680630b9d75135dc8e2633dd4bebad0c93a3891febbc3314de59d97015ddf6a548261099f77115fcae0613fd6bcb8dec734369ff0b5cd3f43eb93990f53d1645a8c6f0791791f51c4ee6f31d8b2b6dcc536349df2b7cf3d41e9919b0d51d366588e6d05937b1d53c6ec6d33dab0b4dac330329bf4b1c93b47ef979d0b57d5605e886b03957d1b55c0ea6b35dcb6b2d8c1323099f6b3cb3945ed959f0955d7625c8a6901977f1957c2e86937deb4b0d6cf3c3e97f8bdc5374be39b91075bd96c5284670f99711759cce66739d0babed4cd3e3c95fabfc73549e199930559db6e5086650d9b73155bcee4653bd2b8bcd2cb383a93fcb9c1334fe79f95035fdd685680630b9d75135dc8e2633dd4bebad0c93a3891febbc3314de59d97015ddf6a548261099f77115fcae0613fd6bcb8dec734369ff0b5cd3f43eb93990f53d1645a8c6f0791791f51c4ee6f31d8b2b6dcc536349df2b7cf3d41e9919b0d51d366588e6d05937b1d53c6ec6d33dab0b4dac330329bf4b1c93b47ef979d0b57d5605e886b03957d1b55c0ea6b35dcb6b2d8c1323099f6b3cb3945ed959f0955d7625c8a6901977f1957c2e86937deb4b0d6cf3c3e97f8bdc5374be39b91075bd96c5284670f99711759cce66739d0babed4cd3e3c95fabfc73549e199930559db6e5086650d9b73155bcee4653bd2b8bcd2cb383a93fcb9c1334fe79f95035fdd685680630b9d75135dc8e2633dd4bebad0c93a3891febbc3314de59d97015ddf6a548261099f77115fcae0613fd6bcb8dec734369ff0b5cd3f43eb93990f53d1663e48228b13313bbd99a0aef749db8cc7336e9d6174661221ea0d56985931ed3",
        "hex": "6a2051d94351ea1ddc0bed21c85ec1ff9a04f435fd1219aca3530c82c2d9464c23da4db0046cf3c3e97f8bdc5374be39b91075bd96c5284670f99711759cce66739d0babed4cd3e3c95fabfc73549e199930559db6e5086650d9b73155bcee4653bd2b8bcd2cb383a93fcb9c1334fe79f95035fdd685680630b9d75135dc8e2633dd4bebad0c93a3891febbc3314de59d97015ddf6a548261099f77115fcae0613fd6bcb8dec734369ff0b5cd3f43eb93990f53d1645a8c6f0791791f51c4ee6f31d8b2b6dcc536349df2b7cf3d41e9919b0d51d366588e6d05937b1d53c6ec6d33dab0b4dac330329bf4b1c93b47ef979d0b57d5605e886b03957d1b55c0ea6b35dcb6b2d8c1323099f6b3cb3945ed959f0955d7625c8a6901977f1957c2e86937deb4b0d6cf3c3e97f8bdc5374be39b91075bd96c5284670f99711759cce66739d0babed4cd3e3c95fabfc73549e199930559db6e5086650d9b73155bcee4653bd2b8bcd2cb383a93fcb9c1334fe79f95035fdd685680630b9d75135dc8e2633dd4bebad0c93a3891febbc3314de59d97015ddf6a548261099f77115fcae0613fd6bcb8dec734369ff0b5cd3f43eb93990f53d1645a8c6f0791791f51c4ee6f31d8b2b6dcc536349df2b7cf3d41e9919b0d51d366588e6d05937b1d53c6ec6d33dab0b4dac330329bf4b1c93b47ef979d0b57d5605e886b03957d1b55c0ea6b35dcb6b2d8c1323099f6b3cb3945ed959f0955d7625c8a6901977f1957c2e86937deb4b0d6cf3c3e97f8bdc5374be39b91075bd96c5284670f99711759cce66739d0babed4cd3e3c95fabfc73549e199930559db6e5086650d9b73155bcee4653bd2b8bcd2cb383a93fcb9c1334fe79f95035fdd685680630b9d75135dc8e2633dd4bebad0c93a3891febbc3314de59d97015ddf6a548261099f77115fcae0613fd6bcb8dec734369ff0b5cd3f43eb93990f53d1645a8c6f0791791f51c4ee6f31d8b2b6dcc536349df2b7cf3d41e9919b0d51d366588e6d05937b1d53c6ec6d33dab0b4dac330329bf4b1c93b47ef979d0b57d5605e886b03957d1b55c0ea6b35dcb6b2d8c1323099f6b3cb3945ed959f0955d7625c8a6901977f1957c2e86937deb4b0d6cf3c3e97f8bdc5374be39b91075bd96c5284670f99711759cce66739d0babed4cd3e3c95fabfc73549e199930559db6e5086650d9b73155bcee4653bd2b8bcd2cb383a93fcb9c1334fe79f95035fdd685680630b9d75135dc8e2633dd4bebad0c93a3891febbc3314de59d97015ddf6a548261099f77115fcae0613fd6bcb8dec734369ff0b5cd3f43eb93990f53d1645a8c6f0791791f51c4ee6f31d8b2b6dcc536349df2b7cf3d41e9919b0d51d366588e6d05937b1d53c6ec6d33dab0b4dac330329bf4b1c93b47ef979d0b57d5605e886b03957d1b55c0ea6b35dcb6b2d8c1323099f6b3cb3945ed959f0955d7625c8a6901977f1957c2e86937deb4b0d6cf3c3e97f8bdc5374be39b91075bd96c5284670f99711759cce66739d0babed4cd3e3c95fabfc73549e199930559db6e5086650d9b73155bcee4653bd2b8bcd2cb383a93fcb9c1334fe79f95035fdd685680630b9d75135dc8e2633dd4bebad0c93a3891febbc3314de59d97015ddf6a548261099f77115fcae0613fd6bcb8dec734369ff0b5cd3f43eb93990f53d1663e48228b13313bbd99a0aef749db8cc7336e9d6174661221ea0d56985931ed3",
        "type": "nulldata"
      }
    }
  ],
  "blockhash": "e950f66e7d48487e03ac7a1b4e7864aa28758accf0e3d98358cdf64a352531e0",
  "confirmations": 1,
  "time": 1764181937,
  "blocktime": 1764181937
}