{
  "hex": "010000000001012c83ae3a78a1de8754a87c8198668a884833c00f488dabc8fff10b28e6adafc60100000000feffffff021076cf5d792d0000225120681c21bfa732261c7bc678cf086cfe533cbb8a14f1f87806d2e664dc2f51d64600e1f50500000000fdd5046a200ea67a4adfb6164abf2ad4f5bdae823664cd4da74e1a9126c44de9a0c29040584db004485a11d2e649a19df673bc9cfebd8321bafae6d8ddcaa932e18e7ee0bbbbf26f687a31f2c66981bdd6539cbcde9da3019adac6f8fdea8912c1ae5ec09b9bd24f081a5192a609e1ddb633fcdcbefdc361fabaa6989d8ae972a1ce3ea0fbfbb22f283a71b28629c1fd9613dcfc9edde341da9a86b8bdaac95281ee1e80dbdb920fc8da915266c9211d76f33c1c7e3d03a13a7a66585d4a29b2610efe603b3b72efe8fab17246e9013d56d31c3c5e1d23811a5a46787d6a0992412ede401b1b52cf889ad1122689615d36b37c5c3e7d43e17a3a26181d0a69f2214ebe207b7b32afa8baf13206a9417d16935c7c1e5d63c15a1a06383d2a49d2016e9e005b5b128f485a11d2e649a19df673bc9cfebd8321bafae6d8ddcaa932e18e7ee0bbbbf26f687a31f2c66981bdd6539cbcde9da3019adac6f8fdea8912c1ae5ec09b9bd24f081a5192a609e1ddb633fcdcbefdc361fabaa6989d8ae972a1ce3ea0fbfbb22f283a71b28629c1fd9613dcfc9edde341da9a86b8bdaac95281ee1e80dbdb920fc8da915266c9211d76f33c1c7e3d03a13a7a66585d4a29b2610efe603b3b72efe8fab17246e9013d56d31c3c5e1d23811a5a46787d6a0992412ede401b1b52cf889ad1122689615d36b37c5c3e7d43e17a3a26181d0a69f2214ebe207b7b32afa8baf13206a9417d16935c7c1e5d63c15a1a06383d2a49d2016e9e005b5b128f485a11d2e649a19df673bc9cfebd8321bafae6d8ddcaa932e18e7ee0bbbbf26f687a31f2c66981bdd6539cbcde9da3019adac6f8fdea8912c1ae5ec09b9bd24f081a5192a609e1ddb633fcdcbefdc361fabaa6989d8ae972a1ce3ea0fbfbb22f283a71b28629c1fd9613dcfc9edde341da9a86b8bdaac95281ee1e80dbdb920fc8da915266c9211d76f33c1c7e3d03a13a7a66585d4a29b2610efe603b3b72efe8fab17246e9013d56d31c3c5e1d23811a5a46787d6a0992412ede401b1b52cf889ad1122689615d36b37c5c3e7d43e17a3a26181d0a69f2214ebe207b7b32afa8baf13206a9417d16935c7c1e5d63c15a1a06383d2a49d2016e9e005b5b128f485a11d2e649a19df673bc9cfebd8321bafae6d8ddcaa932e18e7ee0bbbbf26f687a31f2c66981bdd6539cbcde9da3019adac6f8fdea8912c1ae5ec09b9bd24f081a5192a609e1ddb633fcdcbefdc361fabaa6989d8ae972a1ce3ea0fbfbb22f283a71b28629c1fd9613dcfc9edde341da9a86b8bdaac95281ee1e80dbdb920fc8da915266c9211d76f33c1c7e3d03a13a7a66585d4a29b2610efe603b3b72efe8fab17246e9013d56d31c3c5e1d23811a5a46787d6a0992412ede401b1b52cf889ad1122689615d36b37c5c3e7d43e17a3a26181d0a69f2214ebe207b7b32afa8baf13206a9417d16935c7c1e5d63c15a1a06383d2a49d2016e9e005b5b128f485a11d2e649a19df673bc9cfebd8321bafae6d8ddcaa932e18e7ee0bbbbf26f687a31f2c66981bdd6539cbcde9da3019adac6f8fdea8912c1ae5ec09b9bd24f081a5192a609e1ddb633fcdcbefdc361fabaa6989d8ae972a1ce3ea0fbfbb22f283a71b28629c1fd9613dcfc9edde341da9a86b8bdaac95281ee1e80dbdb920fc8da915266c9211d76f33c1c7e3d03a1220af503f520f6c164218c18ce928b4a7af2c816f39e88f73091f710b2219c9302fd750989bf855ae9251bfef61a38551f4c4f322665227d4d3981105f45e2f83f0698f072d6268ab9191ee831723266463bcc8533ba6ec5a1bcf7ced5363d5fe4d28b614ba2317b5f4656443f1114d34ccfaeade1a95e7efc4d2b12cd4a6e3b1c23a6fb5bc987c442d56897d122ed944c8c04749d71bacb6094ef9114d597d65668b64c7dc6e20861c32493386c32a01d14da3592e2ea3a798914e875033d36e03acb2a7f4870e9ba5c3e97b04e6cd8d669ce0f9be7a572327b4e700149ff60a4fac3f76cb0518e39d98bf6cafd160b6841136c2de9225f53b7486b9fdc1ee26026d8ec468f00f7fe6ecc06328ed8a65795ae68a8ae8ec393b0a5c7c2488cdac816e3cf49001882593f797ce50c77da6afdf9b08db893d5316f48c00a07540a515310707503cb083bb62feac703a0233da77e45272a3e1e982b3542ed4fffa321c2e553efb3421e977888b37415402f923270c30355721160ef8e6b3991585edb9133bef46c11fd27c9243d1480779d2a4be0a19440fde7d678ae7387b1b0310ede1ecc34cd9fff50448ea5c2211a4a7d2d5775eb65d0e00b8550e0abdfdbb03c705991d02f315e24b4182c12e171723fd4370d0634a2ec1f22e834638a0cedcc21bb364be7795d29d12b52a9e16eca8e152758ff7749ec3f0777078cfb4a71ecee0c786a27055f86e6e753c6c954cf6908f10256b7a28c9ef86417de5dfb09cdda096075c33976d037414981f353fc794d486b7cb6a2df142447c0ae41ed8db59476ce98f9fc816113b11f73d96e8843d5a09ca04cf686459f60f9ba3263f5cf0bf063539724022b95d533f602ba3ea68f8c45a8d4bc3d3620ac2928f770084e739de2c2712309d2d4f0206db6dd489a9f522e851d37f61c9ffedb73c22a2260a98a3078fefe0629e96a866a39567c7d6c0015884761105a558738a36e63bdf3764b7adeaf82cbf2ed7ed9410e4282b51dfc0d9963be870751ff03e02ac02587d0a066f0ad80fb7d74268269e1d77e5f96049266b9b05c65133f304f581e2572882a6c158d67d08e408e9ad4d0bf572c9cd65a9f5161993c6d6b83c134fb89a5b0251cbf15528ec950e7ca5d8651db30f3bee07eb0dcb4e614df5ebac7e0196b95f8b4fe2ec0929a6d4d2d0e9e6e4cf314ed818bddc4a53332340a929fbaf01a1034ff989f1c6c76de1e9d66cc10077205e7a4ac3f81767d3c15617288a6db4a43b07baa6dd8aebef18c8125cf3a03773820333b3bd22ab810e3e6f06e4afb2705e2055bc45f46e626686c1d0c6e8a8080f113509245ad5db408ea76aa8d09e2579888f5bf6f34ccc4061d551a06524fcca24b19d2b9e24b20913f31e1ab5849ba2bfbd472bb01dd355657cf77fb026d3de541e19633609ba08a493b2a5d06c0fa2c05d935fe1936526f7f4c979e7293df90529889d36682d9862b748566fb2fef6a36791742e78f415e2ed092d31c3bb4b6e5e4b2a7c8d1165189fb134ea502d2cb0b9cb859c485081d9a572aa7d9da651b889e3a8ba81d8c28bc9fde7464c3968f0a66a17659fc1351ce6daf75b1056cc96bb4a8470ab0f1db4a55f81042a5ca4250012ffa8acf8f530536d6a371ec248c2cf03b07ade2a85f72e83f9db432c3f68a74b4f5f1637ed8ef3f2212dfa7d72db2e6b2f29ff0b4f9f67294e115f0fe1f9f73179465004901bb16f5214d1b7f941f91309956a16bf8cd15eca062b58ed6515eb15b8351a26e061ff1b02d6d9ab5f513f926ae02936b668f6c805276c636b8be48fa62c61f799eed10f5cfd3c63724104ca8279f06656aee9c4ec187924e13d3323f56fa7a413bb142fba698a80d95694ea7d11e2b0f4bb82ecdb4ead8446dfd813c65b549a468495973a3245f0b45f77b949a111170fb801c66d00cc8059210bfe2effc0f72d0a6d2878139309d30def000af8a30456e3306cfc635e91d79a9a9f3b1a7928fe016acb1214a5cfb1c36103446648df088016ae52a7f63adc2ff14424d381cf9b88aaebb0125680a0ed8c3c034dc3244fffc91f96ddb73a75d564156765b3c72adc4a806fbc4b3d6d9314c6709ab9a5dd233eac128eb2b325e4c92f2474758ceae60c45e78fafceffe30758b10505157380e5869d50e95fc4a6f849b557b902651e321bc85902c59763293505adf210de466f16c231fd6aba61c0fddd5e3bd70266c6f3a7ec9cc73033cef88f2fed4e8bb0e26d3bdb51b16f2479bd95915754b1d47aed93750bd35e7620da8d41557ac8ce8a47eccfe59bcc00c68747a2d2f65d213449c8274952d0249042329e54c93324cbf2d0466542a0cf1a2436bdafc7db6c1a630cbafad71222a0b726e6e3f7a8b4466fe7e452b2b84e1bcacea8a629c986c25aa017eff36e591783a4ebf468c871a0003c4cb91ec8fd4348c65d3fa4ae960112bf3fd02fcc85f43273ee685e3988e1c26099835508ca98ec5bf0aae327e0d511b79f89ac154b725cd59509dbc06aa46626d9c1531b13e5c1ca9f258122006d161ef2b562e27067d49d3e42331a4a6d3f13c03304e7c690eddda186c0c07db3bcfe01e93219d1c1ad81cfcb393e72d428d023c29c408e825a7a6c69161173758ee1380516569b6ab02b5dd210b4a1d3c760717cc49d1391b9b74770af772a3a813cfc247001312f49118732bb9c3894dde09739063d7411368eef869e1007cde15a3d5479f2b0ae1fa783e955a44fee169ebd002dccf98eecfbabfb29cb5b871bc237451a5919bfc3034b4f2b25d90a1c0c8779fa3d629f61ddb0013e6fe945ca98ad6d1ec6922cd61dc3889db7236600041ec39ab012d823ec88ddf7446a897b31c68fd56d7b41cc8860b2f74855325c9289ee7052f83e0677dfd2cd84be2d5e9171aec9a59c399f514fda11d3e93a8840585dd9bfdddfc9fdfae9ac7aceede19dd1207c9be489e8bf2f6a6a77506d8d05060b9481852b04d302d165cfc024f78597d7c0498a6a4eac3164801b63ccd3f1df1477ed5295d09a5655eba139ea2c589538f93f91a0972c16ec3257592dcf9b65d03cbd4af30843a754857b63738fba880b1d15f4f83b5790a74dd58cbf17f005f925d910374dba333ec4b8db0488e0d9fa6fc797c860360a886ac8726d53fb5f334b08969917e7234dfa08cc719121eb28739b37c4649890d10094abb5fd4832602cc64e3223921e262a30bf7a401c3b8a5040842b5b62341854d097884e2adc126f4dbae405deae4a86c594769991331fa13afad5dfc13961f695c22b8f37e58827062b67af087722ad1d723e53e4883dab80d13e99e638bef62ff5cf6f4169465697b45484f546a6d739ab8c8d3d5d9da010a0d191f2731333d6d8a91a3c9d2d4ddeff4ff0b2143457c808f929fc6d4f1f2fafe0c222a35484b5355595a66728288d1d9e5ef000000000000000000000000000e22314301fd210500844c6fa749780c779f8b3aafe7abeaa041349a8d8dfea39f27ccb5c98d107f8ce7af9985f6d12b5374775950fcc3e42c1c3f74d85b9a70b6624f5814a8ca778798106c694ec2b1af18e842f36b8c6f837b2ee6c98ed6644a59c36cba29b1e53178c7a2a96053be4a9b0c27ad861cdba6cde63b700f99b3556fc3bc5cd344316e1f136ad7162991b6babd899ed0bfb69074708b3019c910b4a84c46410ed29f32d27c16418589e88d3b2e08610df74582950b6ba6590049059e0b66db6c05bce66e3cbdab1212ff0e4c51ec6ad4683eab4e32b24cb602f16eb572d5fb2118794ccdf979ba1c488a4df34e307b4db6aa0e0dfbe70c43d0ee0d82a503dfe45840c764a8f4370b3965e33aac48eafbdd81454064d1fa49817418adba4ccefe8419306e94f4e9b3726f8a50037ecaa11166aa51d4b8c97c7a1347050739c668d8e97003f4096c9a5a399cc4df14a04eeb4c2d9890d948d59a0b794b622bedf4c94eeb067dd1d0763feea3854db0421094beb00f8bb5acf9476e919d60906454d458203cdd5ff3e2849c8a538bce3d80db398f63ffc4c1782a5fb13a07a0d0ee0a296bf89fbb3d711ce5333385f346b9ee2e375fd9842be27fe667c849998e6aca454e7de0749cb1e68ff20c740fd3d18607b925dda504f1adc3025458096ffdf9dc5923d5db4ee8e0cb3b3cef0b93966badaf2501b58d2b02e27b65e8ced4086c94cf1bbe0687b2fc9ec76e1913f1bdeb180d4bcbc416635c36f7318895eb482605a39debd9f367238f30b93c4a35a6ee905340e7e0ef8ba9ad465fb20f92bbf2ebcf78f46a07d6f64e8800e38b4b4185cf3d0be0c460992dcc0d635a31d64b389ae97b75b08f303ee3dc3f56f7be6d1ad47b3f0fc852b9f0e1ff4ac8b76be3c347ba626c0224c2cf570e65cedbf5ef1b1614a07a183bccf9b791b2b1df38e443007119f5d70077cc387a7ed06fb6181771cd79abc00fea8926db819dfda5a2e4a997eaa047263a1413ab0b034342ba321406534daf6c1cf33cd7f323bc24a348292f7c8e510abe5bb5a487bffe4e7f71451a920a62e327af747d25407238e1cd1f28ba796d0eb88a50fe66dec4293bf57ec3e1d49a8d7875f7a669a18a3cc326b7e341e1722c64ddb078bc9ff25faa1468adf18f27dde25af711ed92ecfacfff51424a762da89f681632d22dafffed24eba052520c435c53bc05dba97cc1b7fd9384ed6e5a81c265ee86f1f0a3a0a4bdd6495409c9b3b9d6b34fc2c9ffd4144bf598aadd2e9ebcf5b842a09ca39c612697c33425d4091a376bffa139510866b5f5a89f6eac228f2f5bfbe477a303a8b711c70c0b88a567598d4452f6ebd84d4bfc51680d41902144fe9f3b0660a5fe64f6a1d6162fe788b579065f918826a845e227291518723eabbd5f8e09b50b8d4991d17f203ad4ed579c34f6c8a072c53aa62712a85f5ed4fc25c93018eefdbce5257fdab20e12db85240fcc75070bc75ad1fd8b63615997bdf30aec4e257a744cf464a547f0aa5b7b5ec9ddef90cdb5ecfa210e5d9aaab6abce1ff141c1b45eea8e38a6f15f0c60df04853943bfa29d9d6471386e0768a05bcb8873ea41b88a17edf8279f895b96f62650d881f89c1729e99b68e05aaa15d12c58fc2d4d82c7295b5452486e6559c598a6f3e62328075d07420a8d8e183ccc5f5562c2c8fd28230c1675c7c8a53aeebabb2de63b4cc304f20be31a4219db70a34801171430dca3906a1a536a2df7de65cd5c0ff283c5147c80e3fb47639dcb7cdb99d08305c33f15271a2206637287c2c11acddbdbec64f2208aa29ba01fe8388d029b021ed4d3760920d238dd778a6e5a7dd4637a1d5e0df662000000",
  "txid": "f16e9d260c8d699525f5d01cae937d8ac60ea8f58157b5d09c3ff7027f4ea5fe",
  "hash": "60f39e0cf86ba2a14b6def228a0398d8618e46198a67262a30ae7c4341978f54",
  "size": 5085,
  "vsize": 2278,
  "version": 1,
  "locktime": 98,
  "vin": [
    {
      "txid": "c6afade6280bf1ffc8ab8d480fc03348888a6698817ca85487dea1783aae832c",
      "vout": 1,
      "scriptSig": {
        "asm": "",
        "hex": ""
      },
      "txinwitness": [
        "89bf855ae9251bfef61a38551f4c4f322665227d4d3981105f45e2f83f0698f072d6268ab9191ee831723266463bcc8533ba6ec5a1bcf7ced5363d5fe4d28b614ba2317b5f4656443f1114d34ccfaeade1a95e7efc4d2b12cd4a6e3b1c23a6fb5bc987c442d56897d122ed944c8c04749d71bacb6094ef9114d597d65668b64c7dc6e20861c32493386c32a01d14da3592e2ea3a798914e875033d36e03acb2a7f4870e9ba5c3e97b04e6cd8d669ce0f9be7a572327b4e700149ff60a4fac3f76cb0518e39d98bf6cafd160b6841136c2de9225f53b7486b9fdc1ee26026d8ec468f00f7fe6ecc06328ed8a65795ae68a8ae8ec393b0a5c7c2488cdac816e3cf49001882593f797ce50c77da6afdf9b08db893d5316f48c00a07540a515310707503cb083bb62feac703a0233da77e45272a3e1e982b3542ed4fffa321c2e553efb3421e977888b37415402f923270c30355721160ef8e6b3991585edb9133bef46c11fd27c9243d1480779d2a4be0a19440fde7d678ae7387b1b0310ede1ecc34cd9fff50448ea5c2211a4a7d2d5775eb65d0e00b8550e0abdfdbb03c705991d02f315e24b4182c12e171723fd4370d0634a2ec1f22e834638a0cedcc21bb364be7795d29d12b52a9e16eca8e152758ff7749ec3f0777078cfb4a71ecee0c786a27055f86e6e753c6c954cf6908f10256b7a28c9ef86417de5dfb09cdda096075c33976d037414981f353fc794d486b7cb6a2df142447c0ae41ed8db59476ce98f9fc816113b11f73d96e8843d5a09ca04cf686459f60f9ba3263f5cf0bf063539724022b95d533f602ba3ea68f8c45a8d4bc3d3620ac2928f770084e739de2c2712309d2d4f0206db6dd489a9f522e851d37f61c9ffedb73c22a2260a98a3078fefe0629e96a866a39567c7d6c0015884761105a558738a36e63bdf3764b7adeaf82cbf2ed7ed9410e4282b51dfc0d9963be870751ff03e02ac02587d0a066f0ad80fb7d74268269e1d77e5f96049266b9b05c65133f304f581e2572882a6c158d67d08e408e9ad4d0bf572c9cd65a9f5161993c6d6b83c134fb89a5b0251cbf15528ec950e7ca5d8651db30f3bee07eb0dcb4e614df5ebac7e0196b95f8b4fe2ec0929a6d4d2d0e9e6e4cf314ed818bddc4a53332340a929fbaf01a1034ff989f1c6c76de1e9d66cc10077205e7a4ac3f81767d3c15617288a6db4a43b07baa6dd8aebef18c8125cf3a03773820333b3bd22ab810e3e6f06e4afb2705e2055bc45f46e626686c1d0c6e8a8080f113509245ad5db408ea76aa8d09e2579888f5bf6f34ccc4061d551a06524fcca24b19d2b9e24b20913f31e1ab5849ba2bfbd472bb01dd355657cf77fb026d3de541e19633609ba08a493b2a5d06c0fa2c05d935fe1936526f7f4c979e7293df90529889d36682d9862b748566fb2fef6a36791742e78f415e2ed092d31c3bb4b6e5e4b2a7c8d1165189fb134ea502d2cb0b9cb859c485081d9a572aa7d9da651b889e3a8ba81d8c28bc9fde7464c3968f0a66a17659fc1351ce6daf75b1056cc96bb4a8470ab0f1db4a55f81042a5ca4250012ffa8acf8f530536d6a371ec248c2cf03b07ade2a85f72e83f9db432c3f68a74b4f5f1637ed8ef3f2212dfa7d72db2e6b2f29ff0b4f9f67294e115f0fe1f9f73179465004901bb16f5214d1b7f941f91309956a16bf8cd15eca062b58ed6515eb15b8351a26e061ff1b02d6d9ab5f513f926ae02936b668f6c805276c636b8be48fa62c61f799eed10f5cfd3c63724104ca8279f06656aee9c4ec187924e13d3323f56fa7a413bb142fba698a80d95694ea7d11e2b0f4bb82ecdb4ead8446dfd813c65b549a468495973a3245f0b45f77b949a111170fb801c66d00cc8059210bfe2effc0f72d0a6d2878139309d30def000af8a30456e3306cfc635e91d79a9a9f3b1a7928fe016acb1214a5cfb1c36103446648df088016ae52a7f63adc2ff14424d381cf9b88aaebb0125680a0ed8c3c034dc3244fffc91f96ddb73a75d564156765b3c72adc4a806fbc4b3d6d9314c6709ab9a5dd233eac128eb2b325e4c92f2474758ceae60c45e78fafceffe30758b10505157380e5869d50e95fc4a6f849b557b902651e321bc85902c59763293505adf210de466f16c231fd6aba61c0fddd5e3bd70266c6f3a7ec9cc73033cef88f2fed4e8bb0e26d3bdb51b16f2479bd95915754b1d47aed93750bd35e7620da8d41557ac8ce8a47eccfe59bcc00c68747a2d2f65d213449c8274952d0249042329e54c93324cbf2d0466542a0cf1a2436bdafc7db6c1a630cbafad71222a0b726e6e3f7a8b4466fe7e452b2b84e1bcacea8a629c986c25aa017eff36e591783a4ebf468c871a0003c4cb91ec8fd4348c65d3fa4ae960112bf3fd02fcc85f43273ee685e3988e1c26099835508ca98ec5bf0aae327e0d511b79f89ac154b725cd59509dbc06aa46626d9c1531b13e5c1ca9f258122006d161ef2b562e27067d49d3e42331a4a6d3f13c03304e7c690eddda186c0c07db3bcfe01e93219d1c1ad81cfcb393e72d428d023c29c408e825a7a6c69161173758ee1380516569b6ab02b5dd210b4a1d3c760717cc49d1391b9b74770af772a3a813cfc247001312f49118732bb9c3894dde09739063d7411368eef869e1007cde15a3d5479f2b0ae1fa783e955a44fee169ebd002dccf98eecfbabfb29cb5b871bc237451a5919bfc3034b4f2b25d90a1c0c8779fa3d629f61ddb0013e6fe945ca98ad6d1ec6922cd61dc3889db7236600041ec39ab012d823ec88ddf7446a897b31c68fd56d7b41cc8860b2f74855325c9289ee7052f83e0677dfd2cd84be2d5e9171aec9a59c399f514fda11d3e93a8840585dd9bfdddfc9fdfae9ac7aceede19dd1207c9be489e8bf2f6a6a77506d8d05060b9481852b04d302d165cfc024f78597d7c0498a6a4eac3164801b63ccd3f1df1477ed5295d09a5655eba139ea2c589538f93f91a0972c16ec3257592dcf9b65d03cbd4af30843a754857b63738fba880b1d15f4f83b5790a74dd58cbf17f005f925d910374dba333ec4b8db0488e0d9fa6fc797c860360a886ac8726d53fb5f334b08969917e7234dfa08cc719121eb28739b37c4649890d10094abb5fd4832602cc64e3223921e262a30bf7a401c3b8a5040842b5b62341854d097884e2adc126f4dbae405deae4a86c594769991331fa13afad5dfc13961f695c22b8f37e58827062b67af087722ad1d723e53e4883dab80d13e99e638bef62ff5cf6f4169465697b45484f546a6d739ab8c8d3d5d9da010a0d191f2731333d6d8a91a3c9d2d4ddeff4ff0b2143457c808f929fc6d4f1f2fafe0c222a35484b5355595a66728288d1d9e5ef000000000000000000000000000e22314301",
        "00844c6fa749780c779f8b3aafe7abeaa041349a8d8dfea39f27ccb5c98d107f8ce7af9985f6d12b5374775950fcc3e42c1c3f74d85b9a70b6624f5814a8ca778798106c694ec2b1af18e842f36b8c6f837b2ee6c98ed6644a59c36cba29b1e53178c7a2a96053be4a9b0c27ad861cdba6cde63b700f99b3556fc3bc5cd344316e1f136ad7162991b6babd899ed0bfb69074708b3019c910b4a84c46410ed29f32d27c16418589e88d3b2e08610df74582950b6ba6590049059e0b66db6c05bce66e3cbdab1212ff0e4c51ec6ad4683eab4e32b24cb602f16eb572d5fb2118794ccdf979ba1c488a4df34e307b4db6aa0e0dfbe70c43d0ee0d82a503dfe45840c764a8f4370b3965e33aac48eafbdd81454064d1fa49817418adba4ccefe8419306e94f4e9b3726f8a50037ecaa11166aa51d4b8c97c7a1347050739c668d8e97003f4096c9a5a399cc4df14a04eeb4c2d9890d948d59a0b794b622bedf4c94eeb067dd1d0763feea3854db0421094beb00f8bb5acf9476e919d60906454d458203cdd5ff3e2849c8a538bce3d80db398f63ffc4c1782a5fb13a07a0d0ee0a296bf89fbb3d711ce5333385f346b9ee2e375fd9842be27fe667c849998e6aca454e7de0749cb1e68ff20c740fd3d18607b925dda504f1adc3025458096ffdf9dc5923d5db4ee8e0cb3b3cef0b93966badaf2501b58d2b02e27b65e8ced4086c94cf1bbe0687b2fc9ec76e1913f1bdeb180d4bcbc416635c36f7318895eb482605a39debd9f367238f30b93c4a35a6ee905340e7e0ef8ba9ad465fb20f92bbf2ebcf78f46a07d6f64e8800e38b4b4185cf3d0be0c460992dcc0d635a31d64b389ae97b75b08f303ee3dc3f56f7be6d1ad47b3f0fc852b9f0e1ff4ac8b76be3c347ba626c0224c2cf570e65cedbf5ef1b1614a07a183bccf9b791b2b1df38e443007119f5d70077cc387a7ed06fb6181771cd79abc00fea8926db819dfda5a2e4a997eaa047263a1413ab0b034342ba321406534daf6c1cf33cd7f323bc24a348292f7c8e510abe5bb5a487bffe4e7f71451a920a62e327af747d25407238e1cd1f28ba796d0eb88a50fe66dec4293bf57ec3e1d49a8d7875f7a669a18a3cc326b7e341e1722c64ddb078bc9ff25faa1468adf18f27dde25af711ed92ecfacfff51424a762da89f681632d22dafffed24eba052520c435c53bc05dba97cc1b7fd9384ed6e5a81c265ee86f1f0a3a0a4bdd6495409c9b3b9d6b34fc2c9ffd4144bf598aadd2e9ebcf5b842a09ca39c612697c33425d4091a376bffa139510866b5f5a89f6eac228f2f5bfbe477a303a8b711c70c0b88a567598d4452f6ebd84d4bfc51680d41902144fe9f3b0660a5fe64f6a1d6162fe788b579065f918826a845e227291518723eabbd5f8e09b50b8d4991d17f203ad4ed579c34f6c8a072c53aa62712a85f5ed4fc25c93018eefdbce5257fdab20e12db85240fcc75070bc75ad1fd8b63615997bdf30aec4e257a744cf464a547f0aa5b7b5ec9ddef90cdb5ecfa210e5d9aaab6abce1ff141c1b45eea8e38a6f15f0c60df04853943bfa29d9d6471386e0768a05bcb8873ea41b88a17edf8279f895b96f62650d881f89c1729e99b68e05aaa15d12c58fc2d4d82c7295b5452486e6559c598a6f3e62328075d07420a8d8e183ccc5f5562c2c8fd28230c1675c7c8a53aeebabb2de63b4cc304f20be31a4219db70a34801171430dca3906a1a536a2df7de65cd5c0ff283c5147c80e3fb47639dcb7cdb99d08305c33f15271a2206637287c2c11acddbdbec64f2208aa29ba01fe8388d029b021ed4d3760920d238dd778a6e5a7dd4637a1d5e0df6"
      ],
      "sequence": 4294967294
    }
  ],
  "vout": [
    {
      "value": 499992.8817,
      "n": 0,
      "scriptPubKey": {
        "asm": "1 681c21bfa732261c7bc678cf086cfe533cbb8a14f1f87806d2e664dc2f51d646",
        "hex": "5120681c21bfa732261c7bc678cf086cfe533cbb8a14f1f87806d2e664dc2f51d646",
        "reqSigs": 1,
        "type": "witness_v1_scripthash",
        "addresses": [
          "3QJmnh"
        ]
      }
    },
    {
      "value": 1.0,
      "n": 1,
      "scriptPubKey": {
        "asm": "OP_RETURN 0ea67a4adfb6164abf2ad4f5bdae823664cd4da74e1a9126c44de9a0c2904058 485a11d2e649a19df673bc9cfebd8321bafae6d8ddcaa932e18e7ee0bbbbf26f687a31f2c66981bdd6539cbcde9da3019adac6f8fdea8912c1ae5ec09b9bd24f081a5192a609e1ddb633fcdcbefdc361fabaa6989d8ae972a1ce3ea0fbfbb22f283a71b28629c1fd9613dcfc9edde341da9a86b8bdaac95281ee1e80dbdb920fc8da915266c9211d76f33c1c7e3d03a13a7a66585d4a29b2610efe603b3b72efe8fab17246e9013d56d31c3c5e1d23811a5a46787d6a0992412ede401b1b52cf889ad1122689615d36b37c5c3e7d43e17a3a26181d0a69f2214ebe207b7b32afa8baf13206a9417d16935c7c1e5d63c15a1a06383d2a49d2016e9e005b5b128f485a11d2e649a19df673bc9cfebd8321bafae6d8ddcaa932e18e7ee0bbbbf26f687a31f2c66981bdd6539cbcde9da3019adac6f8fdea8912c1ae5ec09b9bd24f081a5192a609e1ddb633fcdcbefdc361fabaa6989d8ae972a1ce3ea0fbfbb22f283a71b28629c1fd9613dcfc9edde341da9a86b8bdaac95281ee1e80dbdb920fc8da915266c9211d76f33c1c7e3d03a13a7a66585d4a29b2610efe603b3b72efe8fab17246e9013d56d31c3c5e1d23811a5a46787d6a0992412ede401b1b52cf889ad1122689615d36b37c5c3e7d43e17a3a26181d0a69f2214ebe207b7b32afa8baf13206a9417d16935c7c1e5d63c15a1a06383d2a49d2016e9e005b5b128f485a11d2e649a19df673bc9cfebd8321bafae6d8ddcaa932e18e7ee0bbbbf26f687a31f2c66981bdd6539cbcde9da3019adac6f8fdea8912c1ae5ec09b9bd24f081a5192a609e1ddb633fcdcbefdc361fabaa6989d8ae972a1ce3ea0fbfbb22f283a71b28629c1fd9613dcfc9edde341da9a86b8bdaac95281ee1e80dbdb920fc8da915266c9211d76f33c1c7e3d03a13a7a66585d4a29b2610efe603b3b72efe8fab17246e9013d56d31c3c5e1d23811a5a46787d6a0992412ede401b1b52cf889ad1122689615d36b37c5c3e7d43e17a3a26181d0a69f2214ebe207b7b32afa8baf13206a9417d16935c7c1e5d63c15a1a06383d2a49d2016e9e005b5b128f485a11d2e649a19df673bc9cfebd8321bafae6d8ddcaa932e18e7ee0bbbbf26f687a31f2c66981bdd6539cbcde9da3019adac6f8fdea8912c1ae5ec09b9bd24f081a5192a609e1ddb633fcdcbefdc361fabaa6989d8ae972a1ce3ea0fbfbb22f283a71b28629c1fd9613dcfc9edde341da9a86b8bdaac95281ee1e80dbdb920fc8da915266c9211d76f33c1c7e3d03a13a7a66585d4a29b2610efe603b3b72efe8fab17246e9013d56d31c3c5e1d23811a5a46787d6a0992412ede401b1b52cf889ad1122689615d36b37c5c3e7d43e17a3a26181d0a69f2214ebe207b7b32afa8baf13206a9417d16935c7c1e5d63c15a1a06383d2a49d2016e9e005b5b128f485a11d2e649a19df673bc9cfebd8321bafae6d8ddcaa932e18e7ee0bbbbf26f687a31f2c66981bdd6539cbcde9da3019adac6f8fdea8912c1ae5ec09b9bd24f081a5192a609e1ddb633fcdcbefdc361fabaa6989d8ae972a1ce3ea0fbfbb22f283a71b28629c1fd9613dcfc9edde341da9a86b8bdaac95281ee1e80dbdb920fc8da915266c9211d76f33c1c7e3d03a1220af503f520f6c164218c18ce928b4a7af2c816f39e88f73091f710b2219c93",
        "hex": "6a200ea67a4adfb6164abf2ad4f5bdae823664cd4da74e1a9126c44de9a0c29040584db004485a11d2e649a19df673bc9cfebd8321bafae6d8ddcaa932e18e7ee0bbbbf26f687a31f2c66981bdd6539cbcde9da3019adac6f8fdea8912c1ae5ec09b9bd24f081a5192a609e1ddb633fcdcbefdc361fabaa6989d8ae972a1ce3ea0fbfbb22f283a71b28629c1fd9613dcfc9edde341da9a86b8bdaac95281ee1e80dbdb920fc8da915266c9211d76f33c1c7e3d03a13a7a66585d4a29b2610efe603b3b72efe8fab17246e9013d56d31c3c5e1d23811a5a46787d6a0992412ede401b1b52cf889ad1122689615d36b37c5c3e7d43e17a3a26181d0a69f2214ebe207b7b32afa8baf13206a9417d16935c7c1e5d63c15a1a06383d2a49d2016e9e005b5b128f485a11d2e649a19df673bc9cfebd8321bafae6d8ddcaa932e18e7ee0bbbbf26f687a31f2c66981bdd6539cbcde9da3019adac6f8fdea8912c1ae5ec09b9bd24f081a5192a609e1ddb633fcdcbefdc361fabaa6989d8ae972a1ce3ea0fbfbb22f283a71b28629c1fd9613dcfc9edde341da9a86b8bdaac95281ee1e80dbdb920fc8da915266c9211d76f33c1c7e3d03a13a7a66585d4a29b2610efe603b3b72efe8fab17246e9013d56d31c3c5e1d23811a5a46787d6a0992412ede401b1b52cf889ad1122689615d36b37c5c3e7d43e17a3a26181d0a69f2214ebe207b7b32afa8baf13206a9417d16935c7c1e5d63c15a1a06383d2a49d2016e9e005b5b128f485a11d2e649a19df673bc9cfebd8321bafae6d8ddcaa932e18e7ee0bbbbf26f687a31f2c66981bdd6539cbcde9da3019adac6f8fdea8912c1ae5ec09b9bd24f081a5192a609e1ddb633fcdcbefdc361fabaa6989d8ae972a1ce3ea0fbfbb22f283a71b28629c1fd9613dcfc9edde341da9a86b8bdaac95281ee1e80dbdb920fc8da915266c9211d76f33c1c7e3d03a13a7a66585d4a29b2610efe603b3b72efe8fab17246e9013d56d31c3c5e1d23811a5a46787d6a0992412ede401b1b52cf889ad1122689615d36b37c5c3e7d43e17a3a26181d0a69f2214ebe207b7b32afa8baf13206a9417d16935c7c1e5d63c15a1a06383d2a49d2016e9e005b5b128f485a11d2e649a19df673bc9cfebd8321bafae6d8ddcaa932e18e7ee0bbbbf26f687a31f2c66981bdd6539cbcde9da3019adac6f8fdea8912c1ae5ec09b9bd24f081a5192a609e1ddb633fcdcbefdc361fabaa6989d8ae972a1ce3ea0fbfbb22f283a71b28629c1fd9613dcfc9edde341da9a86b8bdaac95281ee1e80dbdb920fc8da915266c9211d76f33c1c7e3d03a13a7a66585d4a29b2610efe603b3b72efe8fab17246e9013d56d31c3c5e1d23811a5a46787d6a0992412ede401b1b52cf889ad1122689615d36b37c5c3e7d43e17a3a26181d0a69f2214ebe207b7b32afa8baf13206a9417d16935c7c1e5d63c15a1a06383d2a49d2016e9e005b5b128f485a11d2e649a19df673bc9cfebd8321bafae6d8ddcaa932e18e7ee0bbbbf26f687a31f2c66981bdd6539cbcde9da3019adac6f8fdea8912c1ae5ec09b9bd24f081a5192a609e1ddb633fcdcbefdc361fabaa6989d8ae972a1ce3ea0fbfbb22f283a71b28629c1fd9613dcfc9edde341da9a86b8bdaac95281ee1e80dbdb920fc8da915266c9211d76f33c1c7e3d03a1220af503f520f6c164218c18ce928b4a7af2c816f39e88f73091f710b2219c93",
        "type": "nulldata"
      }
    }
  ],
  "blockhash": "86d3aa2e412fd1c0ad7fd5d7d84b7ddcf41a8bf652344eaa49dd1e6444ae5dce",
  "confirmations": 1,
  "time": 1764176858,
  "blocktime": 1764176858
}