{
  "hex": "01000000000101de7dbc3e0ca1a959244d73ada1bb64f493cc4c864a0f81237ba57098c687e5420100000000feffffff02a020df63792d000022512023371bfaa6e6b372eed1afadcaade8d6980cba4a048a15878d16f7803c6a8c0c00e1f50500000000fdd5046a20d2b63b17a4c7dea331275920caee4dccc64173448076c408346fa7752b320a334db004d4c19d0716938efa6844d9608b27ac4e534c7162a4efb644baf5e54a36b4ddd7f4e1bd2736b3aeda4864f940ab078c6e736c514284cf96649ad5c56a1694fdf79481dd4756d3ceba28049920cb67ec0e130c3122e4aff604fab5a50a76f49d97b4a1fd6776f3ee9a0824b900eb47cc2e332c1102c48fd624da95852a56d4bdb754411d8796130e7ae8c459e00ba72cced3ccf1e2246f36c43a7565cab6345d5774613da7b6332e5ac8e479c02b870ceef3ecd1c2044f16e41a5545ea96147d7714015dc7d6534e3aa88419a04be76c8e938cb1a2642f76847a35258af6741d1734217de7f6736e1a88a439806bc74caeb3ac9182440f56a45a1505aad6543d37d4c19d0716938efa6844d9608b27ac4e534c7162a4efb644baf5e54a36b4ddd7f4e1bd2736b3aeda4864f940ab078c6e736c514284cf96649ad5c56a1694fdf79481dd4756d3ceba28049920cb67ec0e130c3122e4aff604fab5a50a76f49d97b4a1fd6776f3ee9a0824b900eb47cc2e332c1102c48fd624da95852a56d4bdb754411d8796130e7ae8c459e00ba72cced3ccf1e2246f36c43a7565cab6345d5774613da7b6332e5ac8e479c02b870ceef3ecd1c2044f16e41a5545ea96147d7714015dc7d6534e3aa88419a04be76c8e938cb1a2642f76847a35258af6741d1734217de7f6736e1a88a439806bc74caeb3ac9182440f56a45a1505aad6543d37d4c19d0716938efa6844d9608b27ac4e534c7162a4efb644baf5e54a36b4ddd7f4e1bd2736b3aeda4864f940ab078c6e736c514284cf96649ad5c56a1694fdf79481dd4756d3ceba28049920cb67ec0e130c3122e4aff604fab5a50a76f49d97b4a1fd6776f3ee9a0824b900eb47cc2e332c1102c48fd624da95852a56d4bdb754411d8796130e7ae8c459e00ba72cced3ccf1e2246f36c43a7565cab6345d5774613da7b6332e5ac8e479c02b870ceef3ecd1c2044f16e41a5545ea96147d7714015dc7d6534e3aa88419a04be76c8e938cb1a2642f76847a35258af6741d1734217de7f6736e1a88a439806bc74caeb3ac9182440f56a45a1505aad6543d37d4c19d0716938efa6844d9608b27ac4e534c7162a4efb644baf5e54a36b4ddd7f4e1bd2736b3aeda4864f940ab078c6e736c514284cf96649ad5c56a1694fdf79481dd4756d3ceba28049920cb67ec0e130c3122e4aff604fab5a50a76f49d97b4a1fd6776f3ee9a0824b900eb47cc2e332c1102c48fd624da95852a56d4bdb754411d8796130e7ae8c459e00ba72cced3ccf1e2246f36c43a7565cab6345d5774613da7b6332e5ac8e479c02b870ceef3ecd1c2044f16e41a5545ea96147d7714015dc7d6534e3aa88419a04be76c8e938cb1a2642f76847a35258af6741d1734217de7f6736e1a88a439806bc74caeb3ac9182440f56a45a1505aad6543d37d4c19d0716938efa6844d9608b27ac4e534c7162a4efb644baf5e54a36b4ddd7f4e1bd2736b3aeda4864f940ab078c6e736c514284cf96649ad5c56a1694fdf79481dd4756d3ceba28049920cb67ec0e130c3122e4aff604fab5a50a76f49d97b4a1fd6776f3ee9a0824b900eb47cc2e332c1102c48fd624da95852a56d4bdb754411d8796130e7ae8c459e00ba72cce4b0f32bf279c0613791f63b5366552ead9a37f7d9745dd93704170567f819eea02fd750924f6e3f7849a41157e9abe1a003e36959503673b26d786c8b24fa7b1febbf6f8964f199965485dafb4cbb4bb6ffc88ff9438f67ff2cc0c2dcb4c29e69130e84e52dcc7b6aa6973f4afde19dafa7184cd4deb5f6046d540f865a78b605a3a87bf78815dc36b78c991f8540f581157b98bcdca5cc29d6942c3075a556fc6aac783d15e99318e8b1c19577b1f27beb26df0846f510d430a1e93b204c9332ecbcfc0dfef9f52186547ad009680ec755e1f16728a195fb64d926771c6983c631e11c2c9e762b0b3130060065452fb870874cbad19bf7ab505aeab4801d4858956656c804e751f8e0631c77fdf80437bef8d8caddd890834cceaa7ee854282e1e0dec98736386e9103c63c7fbfb8e14ce46217da368deab26f27af1471dbaff2280ac17a33377322e5c3038b1005410593bc98c6cb949379e96dd40fc2742488ba0e94558ff0bfd97c20e4059abe4409afd3d0831b62d6de5da4545d483992c497a1d49600b98cc03d7d939290f0cc1c2d0e99b2021deb923754c41a54fa6fbeba6bca90d6b2b37e07d34b1342767191498652a705800b60ec49eea598be7d56a51efeb3ff45697bcd04325716dbba72598e243bc573fe42c88b7fd1a6bade6c759959df8c111d21ae161845d838afdb152f66a42243c9167898b12021f9b4bfef01d7772d7dcba503fabe2f1abd0413622878e4d8cb1841ae9da89a445b71c13cac01470d7070a9c5565c72f2c9d7f59f8ea38248151ae8bc120a82ab2aaf2602c6ee965c1eaa79c0089f8ebc3342b7a2481133a461aeb79110b8059c9ca7554af13388c01ba54b527caa5a08fb0bc0cedf46e56cc53e81009b84fdaab8ea5a9379031d722121349111419cc7573942d143fe979c1a8c7535cfbd6ee7967f1b3a4a158c38ec5dfdc31b04aafaaed2dcbf1aecef84ab617f535142fb0f6676bb88ad0f5bd4d345ddbca57b74413115b66812bf445917907ec8701c751d70317316ed3a43d124437bfc627e7043d5164ef028ba1c9fab8fd699abbb016b3c5120eec2ba387752bc00173e03dc0d8b7f665abb6924218b95daa246cf2953cd24a9e08325bfea139025a2c19c1d8f7c07a7297b954f87c635c8f2020ed10507220e2d4d95f7292910ee0a39fa67be824db85c9bfb940eba4b1bceff67ec76de14687db02f3e30cce1d56dd80813d3dccda17deade4505ccfa324963d3d6935a6f8c34ebaabdf9f1a17badcbf224efe242751b0aa1706c3aa0e0792ee59159fc7845472253b147fd5008bd7740a0f6713b2dfb39dbac29c0dd8cadf270a1ae7c68af54d4f8f2eae74544545922597af238174d36ba596603aa03637053463ea1fcbba92874c7a3d3899922943830f434acb1eb2d858ff3ceacb2511390422ffb8494168b0612240a2bdf354f8b584a645b5b58ddd26e1c44c927f7277ecd169c3db6e8d7694926d88aef4f5c99f2aa2a2d07c3b7ddd0bde40e73a70961880ef8b5b31d61dc80a02aa8fdf8197cffa47e1d63feb28e5bc7d81919fea05751aa6f3c96e65879900479ff2e6861575274643d0d9a74a9c17160505ba356b428136f562f3ae48185413a90a6455e5c090872707ecff8333f9f249982d7e2f66f5368f89fd97da0898c20c9920bdcc7e54a9266ce0ad521a60a509a9f0dabba3729215d1343591c7ba88fe9df7f5c3f918fa5ca81ef2b313fcda72144450fcbac0a3f0cdad9442b996f7e82a2f652c7438d152786410af954edb1c7b14059d5ab996e5df0aa4188022c8a4735440e487ec0f358f5dc6773db667484137fb25c231160db4df6daa19143ccf7cdcc50d0347d9b6f9d17270aa2fd2afdd9e6cb7107746419d989a4430b49058b2074054a62c2d29a0245e9c0f76c60f14792c52c236b30a2ee90f5131ec65baf1839120b3c30adcbd248417fa8fb488933b97516a94dd9bc79e2d91333d3606af31251d51e10aa042589c47fdce85c95776bb961cd926b3c2872c55cbf9be672b90d3b86b58c69f4394e7fa7048cec33fba3cb5347b7b81b875f5d508f2e749f3a598a5a9a9bf07980aa8034bddbc3885ad9e34ceed0883d4e9387c97221c0c76e9ebb0a77e686d229f590c951c35419e152861559fc502cfff816614ec47114d2667b51729b75f5319ee5f1072bbac08895b1f232cc85294d60c13ccb2c96bda8b47cfd7ddab226d30722c754fed6ce781069f7439d9e9da82931f0f1f00ceba279d3d7e5b4556c9772009e82075ea62d79a4de5c692ecade7bd693e5f6bb330b74b927733bf1ca1a18981d27dc2d3154cd55d4a1d4d5185f06cbca87decaee6e4899c0e52606d53e76bf67c5ce139585dfffacdd6d60f16ebe866f7f597fc814a2c08fcc1a05103082b87699beb685bb9a63781ff7ad6eabfcb6175c5ee9f00cfd66883038bee145d40bcdb2f3bc6003da083ce68b307195d92313e1f0c5b1f72487d533c3ee246e822fd448974a7ba0e57a1cc9607a3f607221dd77ecd9bed0abb4e1b89f46f95d0174e08ae54bb93b44b1278e98a67544d2f6ca0f1a30821615f5be33950e05e2418b7bb4a0b48deccb07d8d5b642f2683b68e68263f7fae07730261a73ad9aba28de861ed036980d3107f727672f351ebfc8fb27dae418cf41dc433a32e612317073dc104af592e894192724efc9af460f9f1f1f7b7e00d629c62adb37d8b3b7cf52248769905dae47405ef6c1cb483139eea2039e764626d33c4a25588c93c785cf1251e6fe4775171e79ae59f89b718ef237f8ac5c8d075c8abc8cce7e95a3e03a26ad718cedd59ce131192a3b6c1de6c8781455ad1795491cf8a51952e4d0bffe335f5bebac147f5abc429a85dddc02d53f026da2fb5cf937a5ae4500a08443f8b47d00d9cf54339a091f9aad2489b5451961f694811b39ee6b4591379f46df2f759aab72e27cc2cb8c75e15e87b6b1f09b9a8704073bddebfc16ecb9376ae11fcea181eb3588f4c7059a6fdab255699ef070697cce98c915dd52912bd684127e5b6275138255a50531572d0513e33a5af7372400c679f97c27228887c7e08275773e8a7e469c7c6422306ad4feeeb4092e7d4823531643b33385eb967daa4461d6b6b9b625a84230e226945a34f21973eaa26fbb0c5bf7c349a1c29677ea970fedcd1841eb7e49595029f4ebb79d94368cd4fa8f06c04c13d6582f8381c91c994c278ac7b10b36d90a8880b41963558449d17707a045aee64153d3078a05aca019efa78cb03f6c7dad148ac58fb9da82cc5e0e7f3246f17a020c212b538144cfcc048e192a8de249d7699a7d52b0e47cb11118414660637a9aa2a4b4c9cfd4d9daeff5f600212a32404154679ca0b0b3b7c5eaed171c2a475d799fa2a9b7d5dc104d666a728fa1bdd7f8000000000000000000000000000000000000000000000013232f3901fd21050016c1db3765b30c2997686f12103deed73ae7e144b7ee1c55b1cc9e4aa85e5d56e64e53543923b7ed219bc14c646549245417db6a5d54add66ada6df041c4d4a9768e2de7367900dcdb99b539338cbe9875b89fbfba63c889f8c12da32ca66334d7e0edfac240246109e4b9edbed2d06982660689cdad73616d871fcdd93c3b408c8121986f3298147881ecafbf62c640a554df95529fb74d21f909e6328cadaa11e3713cde5d19dd9ab567aac342ae4019a1fb8a2296bc6b1a55fc538f459ce25e8c67713c268c978f25974ee74d2af74583a33d8caa7461f2d20e155b1facfa168005b4f29dda1f9e90c8b6a6b0fb127aec3fc518a7489860a8c678fdd805ffb459d8a590efdae77c8c9e4a03d16a49351ee7555e8f7b318e718ac099eb024cf674a9ff4e25ef5265c7f9b542127d40324327c81ea15dbe99483799fb224912497754bf20a75865844e3acb9f7e4048a3fdd2aa5f2e09d54cec4404db1f122dbcffa1476209fea198315b7ab1c8f11887a47240ba68eb7bb882c5a9bafc233f3609480fd54875ad218cd3966e6458d0c87775b0de2b66699cdc7f22774b192f11858eca91a499ea5aa00c8013566ac460788ab47343fd237133c972b6235d14cb8f8bb909c74480d2fa10279f8e10add6d7cd9ef48e4754631ac8f94cbe58e12eb81b81a808043c0db7438ca1df77a87f76efcf7419ea667950518d3b7aeb2fc509f227d676d5d6d3075690748937f43418c03473d783751e96601bea5d05ec6162fface5e3e441db620de8b2550961bbff547831a4af299028708d7854ae025b5714f81fd49edd0f9d9777f7ae9e6f46e251b490df6422561b84e5588697039fa1271cb0938d2af8ba1e525df0598ef62a6bec1f4521ef56125e9b3111c836736d7c8bcfd157b2208178d1f3040ccba30f308644160bf0410a2bcd27378f922851925d136d621789ab60cf428ac685f14b4726aadbd3f48f7348e58180d997beb55d15be65f4d20972f19323a611782ef9cba674c17bedfb735d351ebe699f5ada4f59db5ce134b8fd208496dd08cf26788b7f2282dd7bf4542c6bb08ed8775be4c8921a1b9df8ee4c9088c44d3d39c4a1cf9a5cfd2cd05afd3712f6b78bb23daf797c35a043e2eb0fae9b40acb08b4dc4b3afab80f52b43053f52e0ae1305c7ffb1309e4df03093ef9da02095f4a8d052da7c32e72baf056ff12d660fce8c46bf1e008f729eecebca43f2dedb11bb10f5ee05eae560b7c6ccd8d06e9c851a800209648ebecd604d77350d8dcceaa0909cec32f4cbe1471aeaff892825d2235e01a45a4d872671fcdf07bf7e422485cf08d321037f3b5ba56c6fb15365968f3dc1656501ccbac6ff6b79e3d6547f40be6cb0e491af5372a53e1130d76bea4d745db778364f4f6491b91d87ed5947aaf219e9e1afeaa86b51c8b41af16370fa1bdace06b81924c51fcb07ccb58d2924b06d51a103ee0fed3a0b604182dd1702db622c8615f1ed1cd707d1864c6b15b0da5499fa38e8f0375db87b313ace173cbe4a30fded4a84b5ce57e914087a2105cb8e5cccc3472d334635dd8cd73513edb673c93e3f35e74b959bffb870f4d3430bb5d50257c6498db280e87957b24a370c8df868ea2136ddd44a6d5aaafe750c5afc648d6ec7b0d26af261293a27814f1a2b635ee48986364c76a108e59edf1670fd0f3881b030caccf27c1dc9e5b3651db45f365c856ac540500969f19fca9723d70ac6cbe78b32839f6f1427592a1d5bfbfb974fb62498a216b2e1feda22d1f29de0786745f4e010c47955b5354c57071ba20c2f424e52b9b65b42a1059b68e0bf1b37cebe77e1f09e74e3bc8aa3dd68000000",
  "txid": "0db40838d18f5ec4926045e9babfdee961a29e0b0324f72bf4f85f6e3bc4435e",
  "hash": "49746c7d8474763cb8750097de069c57eff3fc63ea54ed90e66243c55f54d4a7",
  "size": 5085,
  "vsize": 2278,
  "version": 1,
  "locktime": 104,
  "vin": [
    {
      "txid": "42e587c69870a57b23810f4a864ccc93f464bba1ad734d2459a9a10c3ebc7dde",
      "vout": 1,
      "scriptSig": {
        "asm": "",
        "hex": ""
      },
      "txinwitness": [
        "24f6e3f7849a41157e9abe1a003e36959503673b26d786c8b24fa7b1febbf6f8964f199965485dafb4cbb4bb6ffc88ff9438f67ff2cc0c2dcb4c29e69130e84e52dcc7b6aa6973f4afde19dafa7184cd4deb5f6046d540f865a78b605a3a87bf78815dc36b78c991f8540f581157b98bcdca5cc29d6942c3075a556fc6aac783d15e99318e8b1c19577b1f27beb26df0846f510d430a1e93b204c9332ecbcfc0dfef9f52186547ad009680ec755e1f16728a195fb64d926771c6983c631e11c2c9e762b0b3130060065452fb870874cbad19bf7ab505aeab4801d4858956656c804e751f8e0631c77fdf80437bef8d8caddd890834cceaa7ee854282e1e0dec98736386e9103c63c7fbfb8e14ce46217da368deab26f27af1471dbaff2280ac17a33377322e5c3038b1005410593bc98c6cb949379e96dd40fc2742488ba0e94558ff0bfd97c20e4059abe4409afd3d0831b62d6de5da4545d483992c497a1d49600b98cc03d7d939290f0cc1c2d0e99b2021deb923754c41a54fa6fbeba6bca90d6b2b37e07d34b1342767191498652a705800b60ec49eea598be7d56a51efeb3ff45697bcd04325716dbba72598e243bc573fe42c88b7fd1a6bade6c759959df8c111d21ae161845d838afdb152f66a42243c9167898b12021f9b4bfef01d7772d7dcba503fabe2f1abd0413622878e4d8cb1841ae9da89a445b71c13cac01470d7070a9c5565c72f2c9d7f59f8ea38248151ae8bc120a82ab2aaf2602c6ee965c1eaa79c0089f8ebc3342b7a2481133a461aeb79110b8059c9ca7554af13388c01ba54b527caa5a08fb0bc0cedf46e56cc53e81009b84fdaab8ea5a9379031d722121349111419cc7573942d143fe979c1a8c7535cfbd6ee7967f1b3a4a158c38ec5dfdc31b04aafaaed2dcbf1aecef84ab617f535142fb0f6676bb88ad0f5bd4d345ddbca57b74413115b66812bf445917907ec8701c751d70317316ed3a43d124437bfc627e7043d5164ef028ba1c9fab8fd699abbb016b3c5120eec2ba387752bc00173e03dc0d8b7f665abb6924218b95daa246cf2953cd24a9e08325bfea139025a2c19c1d8f7c07a7297b954f87c635c8f2020ed10507220e2d4d95f7292910ee0a39fa67be824db85c9bfb940eba4b1bceff67ec76de14687db02f3e30cce1d56dd80813d3dccda17deade4505ccfa324963d3d6935a6f8c34ebaabdf9f1a17badcbf224efe242751b0aa1706c3aa0e0792ee59159fc7845472253b147fd5008bd7740a0f6713b2dfb39dbac29c0dd8cadf270a1ae7c68af54d4f8f2eae74544545922597af238174d36ba596603aa03637053463ea1fcbba92874c7a3d3899922943830f434acb1eb2d858ff3ceacb2511390422ffb8494168b0612240a2bdf354f8b584a645b5b58ddd26e1c44c927f7277ecd169c3db6e8d7694926d88aef4f5c99f2aa2a2d07c3b7ddd0bde40e73a70961880ef8b5b31d61dc80a02aa8fdf8197cffa47e1d63feb28e5bc7d81919fea05751aa6f3c96e65879900479ff2e6861575274643d0d9a74a9c17160505ba356b428136f562f3ae48185413a90a6455e5c090872707ecff8333f9f249982d7e2f66f5368f89fd97da0898c20c9920bdcc7e54a9266ce0ad521a60a509a9f0dabba3729215d1343591c7ba88fe9df7f5c3f918fa5ca81ef2b313fcda72144450fcbac0a3f0cdad9442b996f7e82a2f652c7438d152786410af954edb1c7b14059d5ab996e5df0aa4188022c8a4735440e487ec0f358f5dc6773db667484137fb25c231160db4df6daa19143ccf7cdcc50d0347d9b6f9d17270aa2fd2afdd9e6cb7107746419d989a4430b49058b2074054a62c2d29a0245e9c0f76c60f14792c52c236b30a2ee90f5131ec65baf1839120b3c30adcbd248417fa8fb488933b97516a94dd9bc79e2d91333d3606af31251d51e10aa042589c47fdce85c95776bb961cd926b3c2872c55cbf9be672b90d3b86b58c69f4394e7fa7048cec33fba3cb5347b7b81b875f5d508f2e749f3a598a5a9a9bf07980aa8034bddbc3885ad9e34ceed0883d4e9387c97221c0c76e9ebb0a77e686d229f590c951c35419e152861559fc502cfff816614ec47114d2667b51729b75f5319ee5f1072bbac08895b1f232cc85294d60c13ccb2c96bda8b47cfd7ddab226d30722c754fed6ce781069f7439d9e9da82931f0f1f00ceba279d3d7e5b4556c9772009e82075ea62d79a4de5c692ecade7bd693e5f6bb330b74b927733bf1ca1a18981d27dc2d3154cd55d4a1d4d5185f06cbca87decaee6e4899c0e52606d53e76bf67c5ce139585dfffacdd6d60f16ebe866f7f597fc814a2c08fcc1a05103082b87699beb685bb9a63781ff7ad6eabfcb6175c5ee9f00cfd66883038bee145d40bcdb2f3bc6003da083ce68b307195d92313e1f0c5b1f72487d533c3ee246e822fd448974a7ba0e57a1cc9607a3f607221dd77ecd9bed0abb4e1b89f46f95d0174e08ae54bb93b44b1278e98a67544d2f6ca0f1a30821615f5be33950e05e2418b7bb4a0b48deccb07d8d5b642f2683b68e68263f7fae07730261a73ad9aba28de861ed036980d3107f727672f351ebfc8fb27dae418cf41dc433a32e612317073dc104af592e894192724efc9af460f9f1f1f7b7e00d629c62adb37d8b3b7cf52248769905dae47405ef6c1cb483139eea2039e764626d33c4a25588c93c785cf1251e6fe4775171e79ae59f89b718ef237f8ac5c8d075c8abc8cce7e95a3e03a26ad718cedd59ce131192a3b6c1de6c8781455ad1795491cf8a51952e4d0bffe335f5bebac147f5abc429a85dddc02d53f026da2fb5cf937a5ae4500a08443f8b47d00d9cf54339a091f9aad2489b5451961f694811b39ee6b4591379f46df2f759aab72e27cc2cb8c75e15e87b6b1f09b9a8704073bddebfc16ecb9376ae11fcea181eb3588f4c7059a6fdab255699ef070697cce98c915dd52912bd684127e5b6275138255a50531572d0513e33a5af7372400c679f97c27228887c7e08275773e8a7e469c7c6422306ad4feeeb4092e7d4823531643b33385eb967daa4461d6b6b9b625a84230e226945a34f21973eaa26fbb0c5bf7c349a1c29677ea970fedcd1841eb7e49595029f4ebb79d94368cd4fa8f06c04c13d6582f8381c91c994c278ac7b10b36d90a8880b41963558449d17707a045aee64153d3078a05aca019efa78cb03f6c7dad148ac58fb9da82cc5e0e7f3246f17a020c212b538144cfcc048e192a8de249d7699a7d52b0e47cb11118414660637a9aa2a4b4c9cfd4d9daeff5f600212a32404154679ca0b0b3b7c5eaed171c2a475d799fa2a9b7d5dc104d666a728fa1bdd7f8000000000000000000000000000000000000000000000013232f3901",
        "0016c1db3765b30c2997686f12103deed73ae7e144b7ee1c55b1cc9e4aa85e5d56e64e53543923b7ed219bc14c646549245417db6a5d54add66ada6df041c4d4a9768e2de7367900dcdb99b539338cbe9875b89fbfba63c889f8c12da32ca66334d7e0edfac240246109e4b9edbed2d06982660689cdad73616d871fcdd93c3b408c8121986f3298147881ecafbf62c640a554df95529fb74d21f909e6328cadaa11e3713cde5d19dd9ab567aac342ae4019a1fb8a2296bc6b1a55fc538f459ce25e8c67713c268c978f25974ee74d2af74583a33d8caa7461f2d20e155b1facfa168005b4f29dda1f9e90c8b6a6b0fb127aec3fc518a7489860a8c678fdd805ffb459d8a590efdae77c8c9e4a03d16a49351ee7555e8f7b318e718ac099eb024cf674a9ff4e25ef5265c7f9b542127d40324327c81ea15dbe99483799fb224912497754bf20a75865844e3acb9f7e4048a3fdd2aa5f2e09d54cec4404db1f122dbcffa1476209fea198315b7ab1c8f11887a47240ba68eb7bb882c5a9bafc233f3609480fd54875ad218cd3966e6458d0c87775b0de2b66699cdc7f22774b192f11858eca91a499ea5aa00c8013566ac460788ab47343fd237133c972b6235d14cb8f8bb909c74480d2fa10279f8e10add6d7cd9ef48e4754631ac8f94cbe58e12eb81b81a808043c0db7438ca1df77a87f76efcf7419ea667950518d3b7aeb2fc509f227d676d5d6d3075690748937f43418c03473d783751e96601bea5d05ec6162fface5e3e441db620de8b2550961bbff547831a4af299028708d7854ae025b5714f81fd49edd0f9d9777f7ae9e6f46e251b490df6422561b84e5588697039fa1271cb0938d2af8ba1e525df0598ef62a6bec1f4521ef56125e9b3111c836736d7c8bcfd157b2208178d1f3040ccba30f308644160bf0410a2bcd27378f922851925d136d621789ab60cf428ac685f14b4726aadbd3f48f7348e58180d997beb55d15be65f4d20972f19323a611782ef9cba674c17bedfb735d351ebe699f5ada4f59db5ce134b8fd208496dd08cf26788b7f2282dd7bf4542c6bb08ed8775be4c8921a1b9df8ee4c9088c44d3d39c4a1cf9a5cfd2cd05afd3712f6b78bb23daf797c35a043e2eb0fae9b40acb08b4dc4b3afab80f52b43053f52e0ae1305c7ffb1309e4df03093ef9da02095f4a8d052da7c32e72baf056ff12d660fce8c46bf1e008f729eecebca43f2dedb11bb10f5ee05eae560b7c6ccd8d06e9c851a800209648ebecd604d77350d8dcceaa0909cec32f4cbe1471aeaff892825d2235e01a45a4d872671fcdf07bf7e422485cf08d321037f3b5ba56c6fb15365968f3dc1656501ccbac6ff6b79e3d6547f40be6cb0e491af5372a53e1130d76bea4d745db778364f4f6491b91d87ed5947aaf219e9e1afeaa86b51c8b41af16370fa1bdace06b81924c51fcb07ccb58d2924b06d51a103ee0fed3a0b604182dd1702db622c8615f1ed1cd707d1864c6b15b0da5499fa38e8f0375db87b313ace173cbe4a30fded4a84b5ce57e914087a2105cb8e5cccc3472d334635dd8cd73513edb673c93e3f35e74b959bffb870f4d3430bb5d50257c6498db280e87957b24a370c8df868ea2136ddd44a6d5aaafe750c5afc648d6ec7b0d26af261293a27814f1a2b635ee48986364c76a108e59edf1670fd0f3881b030caccf27c1dc9e5b3651db45f365c856ac540500969f19fca9723d70ac6cbe78b32839f6f1427592a1d5bfbfb974fb62498a216b2e1feda22d1f29de0786745f4e010c47955b5354c57071ba20c2f424e52b9b65b42a1059b68e0bf1b37cebe77e1f09e74e3bc8aa3dd"
      ],
      "sequence": 4294967294
    }
  ],
  "vout": [
    {
      "value": 499993.8986,
      "n": 0,
      "scriptPubKey": {
        "asm": "1 23371bfaa6e6b372eed1afadcaade8d6980cba4a048a15878d16f7803c6a8c0c",
        "hex": "512023371bfaa6e6b372eed1afadcaade8d6980cba4a048a15878d16f7803c6a8c0c",
        "reqSigs": 1,
        "type": "witness_v1_scripthash",
        "addresses": [
          "3QJmnh"
        ]
      }
    },
    {
      "value": 1.0,
      "n": 1,
      "scriptPubKey": {
        "asm": "OP_RETURN d2b63b17a4c7dea331275920caee4dccc64173448076c408346fa7752b320a33 d4c19d0716938efa6844d9608b27ac4e534c7162a4efb644baf5e54a36b4ddd7f4e1bd2736b3aeda4864f940ab078c6e736c514284cf96649ad5c56a1694fdf79481dd4756d3ceba28049920cb67ec0e130c3122e4aff604fab5a50a76f49d97b4a1fd6776f3ee9a0824b900eb47cc2e332c1102c48fd624da95852a56d4bdb754411d8796130e7ae8c459e00ba72cced3ccf1e2246f36c43a7565cab6345d5774613da7b6332e5ac8e479c02b870ceef3ecd1c2044f16e41a5545ea96147d7714015dc7d6534e3aa88419a04be76c8e938cb1a2642f76847a35258af6741d1734217de7f6736e1a88a439806bc74caeb3ac9182440f56a45a1505aad6543d37d4c19d0716938efa6844d9608b27ac4e534c7162a4efb644baf5e54a36b4ddd7f4e1bd2736b3aeda4864f940ab078c6e736c514284cf96649ad5c56a1694fdf79481dd4756d3ceba28049920cb67ec0e130c3122e4aff604fab5a50a76f49d97b4a1fd6776f3ee9a0824b900eb47cc2e332c1102c48fd624da95852a56d4bdb754411d8796130e7ae8c459e00ba72cced3ccf1e2246f36c43a7565cab6345d5774613da7b6332e5ac8e479c02b870ceef3ecd1c2044f16e41a5545ea96147d7714015dc7d6534e3aa88419a04be76c8e938cb1a2642f76847a35258af6741d1734217de7f6736e1a88a439806bc74caeb3ac9182440f56a45a1505aad6543d37d4c19d0716938efa6844d9608b27ac4e534c7162a4efb644baf5e54a36b4ddd7f4e1bd2736b3aeda4864f940ab078c6e736c514284cf96649ad5c56a1694fdf79481dd4756d3ceba28049920cb67ec0e130c3122e4aff604fab5a50a76f49d97b4a1fd6776f3ee9a0824b900eb47cc2e332c1102c48fd624da95852a56d4bdb754411d8796130e7ae8c459e00ba72cced3ccf1e2246f36c43a7565cab6345d5774613da7b6332e5ac8e479c02b870ceef3ecd1c2044f16e41a5545ea96147d7714015dc7d6534e3aa88419a04be76c8e938cb1a2642f76847a35258af6741d1734217de7f6736e1a88a439806bc74caeb3ac9182440f56a45a1505aad6543d37d4c19d0716938efa6844d9608b27ac4e534c7162a4efb644baf5e54a36b4ddd7f4e1bd2736b3aeda4864f940ab078c6e736c514284cf96649ad5c56a1694fdf79481dd4756d3ceba28049920cb67ec0e130c3122e4aff604fab5a50a76f49d97b4a1fd6776f3ee9a0824b900eb47cc2e332c1102c48fd624da95852a56d4bdb754411d8796130e7ae8c459e00ba72cced3ccf1e2246f36c43a7565cab6345d5774613da7b6332e5ac8e479c02b870ceef3ecd1c2044f16e41a5545ea96147d7714015dc7d6534e3aa88419a04be76c8e938cb1a2642f76847a35258af6741d1734217de7f6736e1a88a439806bc74caeb3ac9182440f56a45a1505aad6543d37d4c19d0716938efa6844d9608b27ac4e534c7162a4efb644baf5e54a36b4ddd7f4e1bd2736b3aeda4864f940ab078c6e736c514284cf96649ad5c56a1694fdf79481dd4756d3ceba28049920cb67ec0e130c3122e4aff604fab5a50a76f49d97b4a1fd6776f3ee9a0824b900eb47cc2e332c1102c48fd624da95852a56d4bdb754411d8796130e7ae8c459e00ba72cce4b0f32bf279c0613791f63b5366552ead9a37f7d9745dd93704170567f819eea",
        "hex": "6a20d2b63b17a4c7dea331275920caee4dccc64173448076c408346fa7752b320a334db004d4c19d0716938efa6844d9608b27ac4e534c7162a4efb644baf5e54a36b4ddd7f4e1bd2736b3aeda4864f940ab078c6e736c514284cf96649ad5c56a1694fdf79481dd4756d3ceba28049920cb67ec0e130c3122e4aff604fab5a50a76f49d97b4a1fd6776f3ee9a0824b900eb47cc2e332c1102c48fd624da95852a56d4bdb754411d8796130e7ae8c459e00ba72cced3ccf1e2246f36c43a7565cab6345d5774613da7b6332e5ac8e479c02b870ceef3ecd1c2044f16e41a5545ea96147d7714015dc7d6534e3aa88419a04be76c8e938cb1a2642f76847a35258af6741d1734217de7f6736e1a88a439806bc74caeb3ac9182440f56a45a1505aad6543d37d4c19d0716938efa6844d9608b27ac4e534c7162a4efb644baf5e54a36b4ddd7f4e1bd2736b3aeda4864f940ab078c6e736c514284cf96649ad5c56a1694fdf79481dd4756d3ceba28049920cb67ec0e130c3122e4aff604fab5a50a76f49d97b4a1fd6776f3ee9a0824b900eb47cc2e332c1102c48fd624da95852a56d4bdb754411d8796130e7ae8c459e00ba72cced3ccf1e2246f36c43a7565cab6345d5774613da7b6332e5ac8e479c02b870ceef3ecd1c2044f16e41a5545ea96147d7714015dc7d6534e3aa88419a04be76c8e938cb1a2642f76847a35258af6741d1734217de7f6736e1a88a439806bc74caeb3ac9182440f56a45a1505aad6543d37d4c19d0716938efa6844d9608b27ac4e534c7162a4efb644baf5e54a36b4ddd7f4e1bd2736b3aeda4864f940ab078c6e736c514284cf96649ad5c56a1694fdf79481dd4756d3ceba28049920cb67ec0e130c3122e4aff604fab5a50a76f49d97b4a1fd6776f3ee9a0824b900eb47cc2e332c1102c48fd624da95852a56d4bdb754411d8796130e7ae8c459e00ba72cced3ccf1e2246f36c43a7565cab6345d5774613da7b6332e5ac8e479c02b870ceef3ecd1c2044f16e41a5545ea96147d7714015dc7d6534e3aa88419a04be76c8e938cb1a2642f76847a35258af6741d1734217de7f6736e1a88a439806bc74caeb3ac9182440f56a45a1505aad6543d37d4c19d0716938efa6844d9608b27ac4e534c7162a4efb644baf5e54a36b4ddd7f4e1bd2736b3aeda4864f940ab078c6e736c514284cf96649ad5c56a1694fdf79481dd4756d3ceba28049920cb67ec0e130c3122e4aff604fab5a50a76f49d97b4a1fd6776f3ee9a0824b900eb47cc2e332c1102c48fd624da95852a56d4bdb754411d8796130e7ae8c459e00ba72cced3ccf1e2246f36c43a7565cab6345d5774613da7b6332e5ac8e479c02b870ceef3ecd1c2044f16e41a5545ea96147d7714015dc7d6534e3aa88419a04be76c8e938cb1a2642f76847a35258af6741d1734217de7f6736e1a88a439806bc74caeb3ac9182440f56a45a1505aad6543d37d4c19d0716938efa6844d9608b27ac4e534c7162a4efb644baf5e54a36b4ddd7f4e1bd2736b3aeda4864f940ab078c6e736c514284cf96649ad5c56a1694fdf79481dd4756d3ceba28049920cb67ec0e130c3122e4aff604fab5a50a76f49d97b4a1fd6776f3ee9a0824b900eb47cc2e332c1102c48fd624da95852a56d4bdb754411d8796130e7ae8c459e00ba72cce4b0f32bf279c0613791f63b5366552ead9a37f7d9745dd93704170567f819eea",
        "type": "nulldata"
      }
    }
  ],
  "blockhash": "32a2d379a33ec88ae1cb3a8a1a44f2d12b76aebf574ecf7ac16b289397ed6cd9",
  "confirmations": 1,
  "time": 1764176557,
  "blocktime": 1764176557
}