{
  "hex": "01000000000101bce50b08839155ea92a1a3692689337f05785c4fbbb44d910c438f1ab06f60780100000000feffffff02f077b5f0782d000022512026b49aa2153061faee4fc852cc63bfa99c29ebba1cb627e4b5b216a3069a4de500e1f50500000000fdd5046a2005858c7225ba1d959e93ee3dd49f8ea2363338a21333c3d8142e0e80b0365baa4db004ef162b437725f9825a6479e6d22a3f8a4243ac43d71a8a93b56aacb8f314db32cf360b635705d9a27a4459c6f20a1faa62638c63f73aaab3954a8c98d334fb12af566b033765b9c21a2439a6926a7fca0203ec03975acad3f52aecf8b3549b728f764b23174599e23a041986b24a5fea2223cc23b77aeaf3d50accd89374bb526f96abc3f7a57902dae4f96652aabf0ac2c32cc3579a0a1335ea2c3873945bb24fb68be3d7855922fac4d946728a9f2ae2e30ce377ba2a3315ca0c1853b47b922fd6eb83b7e539429aa4b92612eaff4a82836c8317da4a5375aa6c7833d41bf20ff6cba397c51962ba84990632cadf6aa2a34ca337fa6a73558a4c5813f43bd2ef162b437725f9825a6479e6d22a3f8a4243ac43d71a8a93b56aacb8f314db32cf360b635705d9a27a4459c6f20a1faa62638c63f73aaab3954a8c98d334fb12af566b033765b9c21a2439a6926a7fca0203ec03975acad3f52aecf8b3549b728f764b23174599e23a041986b24a5fea2223cc23b77aeaf3d50accd89374bb526f96abc3f7a57902dae4f96652aabf0ac2c32cc3579a0a1335ea2c3873945bb24fb68be3d7855922fac4d946728a9f2ae2e30ce377ba2a3315ca0c1853b47b922fd6eb83b7e539429aa4b92612eaff4a82836c8317da4a5375aa6c7833d41bf20ff6cba397c51962ba84990632cadf6aa2a34ca337fa6a73558a4c5813f43bd2ef162b437725f9825a6479e6d22a3f8a4243ac43d71a8a93b56aacb8f314db32cf360b635705d9a27a4459c6f20a1faa62638c63f73aaab3954a8c98d334fb12af566b033765b9c21a2439a6926a7fca0203ec03975acad3f52aecf8b3549b728f764b23174599e23a041986b24a5fea2223cc23b77aeaf3d50accd89374bb526f96abc3f7a57902dae4f96652aabf0ac2c32cc3579a0a1335ea2c3873945bb24fb68be3d7855922fac4d946728a9f2ae2e30ce377ba2a3315ca0c1853b47b922fd6eb83b7e539429aa4b92612eaff4a82836c8317da4a5375aa6c7833d41bf20ff6cba397c51962ba84990632cadf6aa2a34ca337fa6a73558a4c5813f43bd2ef162b437725f9825a6479e6d22a3f8a4243ac43d71a8a93b56aacb8f314db32cf360b635705d9a27a4459c6f20a1faa62638c63f73aaab3954a8c98d334fb12af566b033765b9c21a2439a6926a7fca0203ec03975acad3f52aecf8b3549b728f764b23174599e23a041986b24a5fea2223cc23b77aeaf3d50accd89374bb526f96abc3f7a57902dae4f96652aabf0ac2c32cc3579a0a1335ea2c3873945bb24fb68be3d7855922fac4d946728a9f2ae2e30ce377ba2a3315ca0c1853b47b922fd6eb83b7e539429aa4b92612eaff4a82836c8317da4a5375aa6c7833d41bf20ff6cba397c51962ba84990632cadf6aa2a34ca337fa6a73558a4c5813f43bd2ef162b437725f9825a6479e6d22a3f8a4243ac43d71a8a93b56aacb8f314db32cf360b635705d9a27a4459c6f20a1faa62638c63f73aaab3954a8c98d334fb12af566b033765b9c21a2439a6926a7fca0203ec03975acad3f52aecf8b3549b728f764b23174599e23a041986b24a5fea2223cc23b77aeaf3d50accd89374bb526f96abc3f7a57902dae4f96652aabf0aaff5acbe00425e5e78e178b48979af28cddb368209e9a12c7abd04bb3881c73a02fd750936de96fecf4e1aeb0f138090ef640e28ca41aa68aaa73c7d175641914acad2c7967a1efc09dd2727073b892c2b392ece865d8411fb3010f6da33a1ab1c7a5136942258a1316a1baba046506a8f19f2664caf4d555d800d228b4044e45bb9f7761d774b80d925a49c9d9f25fbc1dfd9b886cd219cce2682a62024fbcec02ce21347b1ef66107728366a3ed09bf0fd1e252f96a2a371bb61231f6457da023ecfb73f11e218f904099edf625c045d3fa96221f18bd520d87fea681263944617fd03ca04928e95921b1ce5f020f016924e0abbb0f2b7a48824703c93af28303169686100f8766943fc3bb34a5507bd284a060f81e586cb37df990ff96d5cfe8be515dacb29edfbaa281bedadd5f9b333117940ff6b5c47d1705f3f4b99eaef7cac07a0a1ceab828bc5aad5a2aa9b23e69530e3e262e1ec82b7c5ddc615b49ba6b989c8f2576ed7cbfc4e7737e1610310c0cb5d872eb13ab039c934cd1251fa2891a929232530892ce757ec78d8aa6b5ac49e96b2da53d183377105798901503dc5223bb7dd724525a5a00a1deb0779a19f5eccf9e3e85ebabb9431293d8d0616d381062f8954d275bc264149f884c1244c12d637d6c3ca06fa823e5fab07c6104a9ab75ad84890d7f8f65655a2c996695d664914e9ad52e6d4c4021da18c57b6f5b8039705dea55ea1b3e1de4020bf11184c13779e48e233f769f83ce757e5f062c9b674c3d605378781116bc11c315de7d52fe9e19a0f6231982b63f93ccb1bcdc0aea675a5e1cb1e738213b133ee08044640fae389d14e8a091f3a807a87c1362dfc814554ac8695ce047eee4fb6fb7903ef52a58a97bcf3e703f3336733e5dc40dd0dfa57c4bba14f7e67471fad2b74367872092f8fe75f20008d013a3ad30d495a49f83a38e65bb630c8a32de259e1b4fe9a495207ea1329030d0c3ab0a2ace09e2859568e543e96ace5f687504475f090c96e0d09bf5833707db4bf5190c4e87644c70482d3fc7a8295a05e07179fd961af6585b88fd08e551d933cc66d88ea759a94452b94f8bc86722937f1a273220724679e502b973ce3977bb0a3819b20f210bbada657159396921e3ff3f09ed542b82051271437d909efa14e2d6214477366b9b349ebb8323b54b2e8d33898e3738e6f9259ebcf1c53bfb1d5a0a5d8bcd7c38c19ee2660a48c7432dacd289966b9345fe3d5c411b1f17f72cfa6b952414556638d4542d8ed3bd5c8581e242a1cc614c38986a1dce1e958173c95c34719966bb876cdd3540c28013407b6cfb3f644e40fb57d6801ffbdc39cfc075b9a46f99f058047cac92e8c6f005eaff1f6e738a920380682438c83747d932d7b7ec8c9b02960b34c37060b50ebe2cc5688f407797afcda50f271814a0215694c916e3ee651b1036c58cbb6c4f2cf4fbf5e0de97d61a7727b9b72c463689a82aa64a47273527805769ef44a18b83e9003a314faf0ee82b06300d8bb0d84770b0aed7d74c6445cdad4bc30f56c1988026e37722b51b0970cf041598af9b2491ff056fc83f8f93baf119f30afff384951c6964604dfc72aa5f05cd4e65d08ebe7fa2a2fe5d6bae2de4d9f0e2f7225a450ce9a376a76ce069b1ea50ba1cc5b2994195f26ea6b3e85be1901d85d6033e28a53a8f08f7ab52d94c18f3f391df90fa44d3f2a7bd4094083fb63c1c41877af4912877567ef7d154404a1c98394e3332039c8af21146108d87ee781eaa681d617c5515904a418fd93b80470a893f805c7af69a39ac80e75e0ae69516f637eb578b3abea2359f65be43d891a4fb6d5fe396871f2ea13e7a679b2df3edb6f0018586b59c92e5c511502ca7f232787ce964617b19065ce23f5b5e87eb152ef2bb9b79dbb2effcffb8be347da7c2ff3321d18673c1aecd8dce9e7b4485bdd2174fff9a8c3ff4a79935f04c7d9d904d9ec604ab367527a4a318474eddeb172ce7e93af8322c9e880a24ad0584c6276a568d2b08845f6ebb38fd9ffe001869abe38df8c0ff74959cce348d4502dfc4cdd861feef9cfd095bdf00eca7a043e46002a550b7fc1d2e49826310fe7b2615904f0a8cdc700f9da7e48fe063ed8c2f5bc7101e916f189664c0397b6e25a46c38e564c9fa50333d80e997a7e17dde1da40e9b59baf4228898d6440f6b7fc5f06fdfed5f22ec42389369836748b381c161202c5843788f80e30296d9c9b837289fd5e904f71b9b6ab3f1b78964e725ff0e50c628c18d2c3393970b68adbf6cc0b604a23692eec086c8413d416b302c6243465bc7be64b9ebc2cbc728d6e7f61c6614e4e1c7ff0da10b5d667251fea76652fa736a5e032d19e2b1697cde0eeb2c55d6759db76872d9e2632c84545cc7c0985a7e97a42e439452027be9eb1eed7b488c943344d3d0893b5b26b80a9ca4ec04766378afd77e32fbc379796fcfdaa98fccfabbfc8763fc0a3fce04f368b51b843096ff8847ba912195c602f1e9f50ac261ee4d45a1ef89b9dce2d085d27196a205ee3185b2e5c3bc4984fbd87684892a9948c9d0ed5fa00c89e1a93535d309565984109dd272ae42f4d1cecca782381594125336be5536a81c8bcf0f9f7f05b0d34bed7e5a4ab49ddfa78628f156e6a6b32d51d221d347768740e0d17218e4f7f84e475adbeb4c1934831275f6dc71f5bf344584cad2f00fa3363b2a69136869d83b6118a9ef0f111b969ebde25078f08b5c5f405333ad4efb759d99c5630fc0e6f0d18d65a929e2572cef92129285b92e117728232fec87c39bc201b51b7111a195a3e1d07b8ae6375d08a61704c577cd1486ab1bdd66b577c96eb93442d9e6522197b6772d942e6806f15bcc475563c7cf5190315757ce3ecbfe707f053f3fcacc1d1f65e0c0bcc87efedd3b08f63b821e4b74c068a0c63058b3c492346d672ed736b6db1c4a77c11ca1c255b91c0d0126a8919d522adffbb7697f8a44d91008a2e2d6435f4d58e59df249415c23b7e7a59882e434c0bc53ed60ea3d9cfcf293c9672877732c0a05281b8dd24d9b172f3c651e29617bebd7274b0f36d6dd362155ceb2e9e9f838e7b40fa21c4cd01db1dd6df024ffd13490e3394e6c03d5367b6004692e7a8ab4a2c4634cf3f5e21e2a4b4e90d17de18be97e32491d344b22bf9c7a7af92e12532e1c20b49b332a0ee0456fb4f7588dbcf6446129f3b1fcfe4a4f84ce8302e60be7f01157deff2860bf95faf31ff3cf601990b3aa0d3c35ccfdc870416b522892ad43c752958b768bec4837a77614f60d87a0208c1625c17c6942df169d70d3094d2430d7c821f29bf511c618c676d0d171e1f363b40546381888999acbabfc7d906263e3f436876858da7adb0b3f3f509102e4e55a9c6e5fa0a101a2f384650a3afb7b8baee0000000000000000000000000000000000000000000000000012212a3701fd2105003460ccb9f330aa4b6a926c0f32ad77d07843d9250592005e353616e25e7c8a54f4d500fac3a38ccfd7474928d276b6e7d22002d7bfd76781279ea1d600e0d770ca1eee652538506607f521676707b45cb66428080ef77d47274b1942741fd2d2b117b63c770c4fa0964461d5aa3af1cb46283a635715980d00ca33824e6609d41b53ad4215fbd61cb5607e0f236e298d9539f1c54e59da2eb04733b54febfd2c09b1cd1dfbc334d2c0dbe10507da56ded1d40a5b3df0eec66c82c26ee1e048aff66ed305f17088f0f9ab427feb5a56f91b968d99ba3ee1fb2ee8c8784aeab5970055e56010fc468c5a8bdc486f648d774b8f47f3a2014de3017ae6051e48000b43c1ef66df04632d8c701fa7cc3f52b2b9ca62b7368a7dccc90050d7882fe55ba797e981ac5561471673ca8ff8d0cc268237a7bf04f9fc8ade09edf9824cad560bb1a11dba2e1e5d79a6154412e43170a26fd36dee0862ebb818a053f328874e534cf2a6c53bf6db9b8204ceef5ac2f30d8937935c29792a35f849b2386c12fc9ba1a9075d1d5b15504cc20d6800b5cddde611f350a9bf640137b541231a9cfc3b85904fa6d54a4a8e7033a531a7eb7222540f03097e815dd5429f2227a7c7eeeb182e7934f0fd888c99faccc173848214ecea9ea526a7d6f54f3240e3b8ade28f077a9acd488402095b1336db6e3535c75b78665dbe41dc3adbae9250528ef505d3e9daa8b755a7b5e5cf1c28c88caf83a09a73fa84c313cb4c20aaba750e09b44c79658b42daeae2e6d4d823eee7147b2f926e915a727ec9b1a2c12b88ecf63d5c52f338c83f2567bb1cafec3080ac7c0255a56e1a555917f44cec731d38adb0cb100cca3fcf887775e8526d0e1e6f3e16543776171f72ae6e07adc7be179233d331eebf68c2b1d69ce2ba59939f4142b20c5fa589515698e7b65755a339b9104fc7e383e944defd3b430ca0417c8b1c665726cd31c189485a433e8a6a5c0078d7460147b8b9dee884d7c0d033f2f37a0b6b2f7f4cadb0e1bbf51436c366bd00afee6efdf7fac85c8e6fdf7a14ffb606e3b88fa1a3e2a8d86849dca5598866e7619ec266ec7106f60ca60fa9fbd370c4edb19d80e17414c26c251553560b3b5e9f4d37303c038a4e3178bbf5b2b15154019919974dab234f2511d29ea799d03f6c0eb241078e3cde50624de9b809c3e2083bbbddf161672d6edfd9b5fb3a8e1035f2640ed8df910a6d3a191edd523f57f47b2030c3c1afc7424715034872d7c05a740e82babeed6bfff2bbc8109484410f51841a2216652e1841ccbf9d5fdb0e1b056ccba624ba222bcab2d673c9fa2a0dd918e53f6f1ed2a0efc4426556fe4eeca88205660028d257af5300aa19f5307738307f93fb9efb79d1fa136165490e9ba75e7cc259c3c9f47dc96958aa15fdc0d70af4cd8d440249b63cb1cc10db6ab471407c380a524f096280ea82336093c6a7b13a91192e0747866ecab4686bcfaa174faa1ce5662af8a0ec7b4009054af01604f72b83e607e29657945850ff774d638783f578d0667927c247c41dce0e2595a7d51f1cb5bcac55756d2d7ea737048b76bf919b1fbb6d72b2ae86d700b28d30b538aff2a6e4403fa630ece11e592e5c5311ecc50e397c9188260f120d01ecec33b1c059e4371638fbcee760db46f5ab3131cf31667b62b94d13286039e0ab26372a0a27b03f32ab580d0962836151366784b7d23c926d811036762b8d96d28799256f5947aeca38a8176cf82fa76295864ffd05640d65f2904635f6dbadea17cfe0a4804c07c8982c6efdc0a3d0701a8b1d279e4e596f1d7592445174eb6547d5025db6146ab4eee749965e457e000000",
  "txid": "0fc9cca609b75966743d795a1b717a22f59a55837867a8f759021febb8c44984",
  "hash": "12cf442c116ed121fce31036228ee993414697e1285c41b291841477a57cb0ad",
  "size": 5085,
  "vsize": 2278,
  "version": 1,
  "locktime": 126,
  "vin": [
    {
      "txid": "78606fb01a8f430c914db4bb4f5c78057f33892669a3a192ea559183080be5bc",
      "vout": 1,
      "scriptSig": {
        "asm": "",
        "hex": ""
      },
      "txinwitness": [
        "36de96fecf4e1aeb0f138090ef640e28ca41aa68aaa73c7d175641914acad2c7967a1efc09dd2727073b892c2b392ece865d8411fb3010f6da33a1ab1c7a5136942258a1316a1baba046506a8f19f2664caf4d555d800d228b4044e45bb9f7761d774b80d925a49c9d9f25fbc1dfd9b886cd219cce2682a62024fbcec02ce21347b1ef66107728366a3ed09bf0fd1e252f96a2a371bb61231f6457da023ecfb73f11e218f904099edf625c045d3fa96221f18bd520d87fea681263944617fd03ca04928e95921b1ce5f020f016924e0abbb0f2b7a48824703c93af28303169686100f8766943fc3bb34a5507bd284a060f81e586cb37df990ff96d5cfe8be515dacb29edfbaa281bedadd5f9b333117940ff6b5c47d1705f3f4b99eaef7cac07a0a1ceab828bc5aad5a2aa9b23e69530e3e262e1ec82b7c5ddc615b49ba6b989c8f2576ed7cbfc4e7737e1610310c0cb5d872eb13ab039c934cd1251fa2891a929232530892ce757ec78d8aa6b5ac49e96b2da53d183377105798901503dc5223bb7dd724525a5a00a1deb0779a19f5eccf9e3e85ebabb9431293d8d0616d381062f8954d275bc264149f884c1244c12d637d6c3ca06fa823e5fab07c6104a9ab75ad84890d7f8f65655a2c996695d664914e9ad52e6d4c4021da18c57b6f5b8039705dea55ea1b3e1de4020bf11184c13779e48e233f769f83ce757e5f062c9b674c3d605378781116bc11c315de7d52fe9e19a0f6231982b63f93ccb1bcdc0aea675a5e1cb1e738213b133ee08044640fae389d14e8a091f3a807a87c1362dfc814554ac8695ce047eee4fb6fb7903ef52a58a97bcf3e703f3336733e5dc40dd0dfa57c4bba14f7e67471fad2b74367872092f8fe75f20008d013a3ad30d495a49f83a38e65bb630c8a32de259e1b4fe9a495207ea1329030d0c3ab0a2ace09e2859568e543e96ace5f687504475f090c96e0d09bf5833707db4bf5190c4e87644c70482d3fc7a8295a05e07179fd961af6585b88fd08e551d933cc66d88ea759a94452b94f8bc86722937f1a273220724679e502b973ce3977bb0a3819b20f210bbada657159396921e3ff3f09ed542b82051271437d909efa14e2d6214477366b9b349ebb8323b54b2e8d33898e3738e6f9259ebcf1c53bfb1d5a0a5d8bcd7c38c19ee2660a48c7432dacd289966b9345fe3d5c411b1f17f72cfa6b952414556638d4542d8ed3bd5c8581e242a1cc614c38986a1dce1e958173c95c34719966bb876cdd3540c28013407b6cfb3f644e40fb57d6801ffbdc39cfc075b9a46f99f058047cac92e8c6f005eaff1f6e738a920380682438c83747d932d7b7ec8c9b02960b34c37060b50ebe2cc5688f407797afcda50f271814a0215694c916e3ee651b1036c58cbb6c4f2cf4fbf5e0de97d61a7727b9b72c463689a82aa64a47273527805769ef44a18b83e9003a314faf0ee82b06300d8bb0d84770b0aed7d74c6445cdad4bc30f56c1988026e37722b51b0970cf041598af9b2491ff056fc83f8f93baf119f30afff384951c6964604dfc72aa5f05cd4e65d08ebe7fa2a2fe5d6bae2de4d9f0e2f7225a450ce9a376a76ce069b1ea50ba1cc5b2994195f26ea6b3e85be1901d85d6033e28a53a8f08f7ab52d94c18f3f391df90fa44d3f2a7bd4094083fb63c1c41877af4912877567ef7d154404a1c98394e3332039c8af21146108d87ee781eaa681d617c5515904a418fd93b80470a893f805c7af69a39ac80e75e0ae69516f637eb578b3abea2359f65be43d891a4fb6d5fe396871f2ea13e7a679b2df3edb6f0018586b59c92e5c511502ca7f232787ce964617b19065ce23f5b5e87eb152ef2bb9b79dbb2effcffb8be347da7c2ff3321d18673c1aecd8dce9e7b4485bdd2174fff9a8c3ff4a79935f04c7d9d904d9ec604ab367527a4a318474eddeb172ce7e93af8322c9e880a24ad0584c6276a568d2b08845f6ebb38fd9ffe001869abe38df8c0ff74959cce348d4502dfc4cdd861feef9cfd095bdf00eca7a043e46002a550b7fc1d2e49826310fe7b2615904f0a8cdc700f9da7e48fe063ed8c2f5bc7101e916f189664c0397b6e25a46c38e564c9fa50333d80e997a7e17dde1da40e9b59baf4228898d6440f6b7fc5f06fdfed5f22ec42389369836748b381c161202c5843788f80e30296d9c9b837289fd5e904f71b9b6ab3f1b78964e725ff0e50c628c18d2c3393970b68adbf6cc0b604a23692eec086c8413d416b302c6243465bc7be64b9ebc2cbc728d6e7f61c6614e4e1c7ff0da10b5d667251fea76652fa736a5e032d19e2b1697cde0eeb2c55d6759db76872d9e2632c84545cc7c0985a7e97a42e439452027be9eb1eed7b488c943344d3d0893b5b26b80a9ca4ec04766378afd77e32fbc379796fcfdaa98fccfabbfc8763fc0a3fce04f368b51b843096ff8847ba912195c602f1e9f50ac261ee4d45a1ef89b9dce2d085d27196a205ee3185b2e5c3bc4984fbd87684892a9948c9d0ed5fa00c89e1a93535d309565984109dd272ae42f4d1cecca782381594125336be5536a81c8bcf0f9f7f05b0d34bed7e5a4ab49ddfa78628f156e6a6b32d51d221d347768740e0d17218e4f7f84e475adbeb4c1934831275f6dc71f5bf344584cad2f00fa3363b2a69136869d83b6118a9ef0f111b969ebde25078f08b5c5f405333ad4efb759d99c5630fc0e6f0d18d65a929e2572cef92129285b92e117728232fec87c39bc201b51b7111a195a3e1d07b8ae6375d08a61704c577cd1486ab1bdd66b577c96eb93442d9e6522197b6772d942e6806f15bcc475563c7cf5190315757ce3ecbfe707f053f3fcacc1d1f65e0c0bcc87efedd3b08f63b821e4b74c068a0c63058b3c492346d672ed736b6db1c4a77c11ca1c255b91c0d0126a8919d522adffbb7697f8a44d91008a2e2d6435f4d58e59df249415c23b7e7a59882e434c0bc53ed60ea3d9cfcf293c9672877732c0a05281b8dd24d9b172f3c651e29617bebd7274b0f36d6dd362155ceb2e9e9f838e7b40fa21c4cd01db1dd6df024ffd13490e3394e6c03d5367b6004692e7a8ab4a2c4634cf3f5e21e2a4b4e90d17de18be97e32491d344b22bf9c7a7af92e12532e1c20b49b332a0ee0456fb4f7588dbcf6446129f3b1fcfe4a4f84ce8302e60be7f01157deff2860bf95faf31ff3cf601990b3aa0d3c35ccfdc870416b522892ad43c752958b768bec4837a77614f60d87a0208c1625c17c6942df169d70d3094d2430d7c821f29bf511c618c676d0d171e1f363b40546381888999acbabfc7d906263e3f436876858da7adb0b3f3f509102e4e55a9c6e5fa0a101a2f384650a3afb7b8baee0000000000000000000000000000000000000000000000000012212a3701",
        "003460ccb9f330aa4b6a926c0f32ad77d07843d9250592005e353616e25e7c8a54f4d500fac3a38ccfd7474928d276b6e7d22002d7bfd76781279ea1d600e0d770ca1eee652538506607f521676707b45cb66428080ef77d47274b1942741fd2d2b117b63c770c4fa0964461d5aa3af1cb46283a635715980d00ca33824e6609d41b53ad4215fbd61cb5607e0f236e298d9539f1c54e59da2eb04733b54febfd2c09b1cd1dfbc334d2c0dbe10507da56ded1d40a5b3df0eec66c82c26ee1e048aff66ed305f17088f0f9ab427feb5a56f91b968d99ba3ee1fb2ee8c8784aeab5970055e56010fc468c5a8bdc486f648d774b8f47f3a2014de3017ae6051e48000b43c1ef66df04632d8c701fa7cc3f52b2b9ca62b7368a7dccc90050d7882fe55ba797e981ac5561471673ca8ff8d0cc268237a7bf04f9fc8ade09edf9824cad560bb1a11dba2e1e5d79a6154412e43170a26fd36dee0862ebb818a053f328874e534cf2a6c53bf6db9b8204ceef5ac2f30d8937935c29792a35f849b2386c12fc9ba1a9075d1d5b15504cc20d6800b5cddde611f350a9bf640137b541231a9cfc3b85904fa6d54a4a8e7033a531a7eb7222540f03097e815dd5429f2227a7c7eeeb182e7934f0fd888c99faccc173848214ecea9ea526a7d6f54f3240e3b8ade28f077a9acd488402095b1336db6e3535c75b78665dbe41dc3adbae9250528ef505d3e9daa8b755a7b5e5cf1c28c88caf83a09a73fa84c313cb4c20aaba750e09b44c79658b42daeae2e6d4d823eee7147b2f926e915a727ec9b1a2c12b88ecf63d5c52f338c83f2567bb1cafec3080ac7c0255a56e1a555917f44cec731d38adb0cb100cca3fcf887775e8526d0e1e6f3e16543776171f72ae6e07adc7be179233d331eebf68c2b1d69ce2ba59939f4142b20c5fa589515698e7b65755a339b9104fc7e383e944defd3b430ca0417c8b1c665726cd31c189485a433e8a6a5c0078d7460147b8b9dee884d7c0d033f2f37a0b6b2f7f4cadb0e1bbf51436c366bd00afee6efdf7fac85c8e6fdf7a14ffb606e3b88fa1a3e2a8d86849dca5598866e7619ec266ec7106f60ca60fa9fbd370c4edb19d80e17414c26c251553560b3b5e9f4d37303c038a4e3178bbf5b2b15154019919974dab234f2511d29ea799d03f6c0eb241078e3cde50624de9b809c3e2083bbbddf161672d6edfd9b5fb3a8e1035f2640ed8df910a6d3a191edd523f57f47b2030c3c1afc7424715034872d7c05a740e82babeed6bfff2bbc8109484410f51841a2216652e1841ccbf9d5fdb0e1b056ccba624ba222bcab2d673c9fa2a0dd918e53f6f1ed2a0efc4426556fe4eeca88205660028d257af5300aa19f5307738307f93fb9efb79d1fa136165490e9ba75e7cc259c3c9f47dc96958aa15fdc0d70af4cd8d440249b63cb1cc10db6ab471407c380a524f096280ea82336093c6a7b13a91192e0747866ecab4686bcfaa174faa1ce5662af8a0ec7b4009054af01604f72b83e607e29657945850ff774d638783f578d0667927c247c41dce0e2595a7d51f1cb5bcac55756d2d7ea737048b76bf919b1fbb6d72b2ae86d700b28d30b538aff2a6e4403fa630ece11e592e5c5311ecc50e397c9188260f120d01ecec33b1c059e4371638fbcee760db46f5ab3131cf31667b62b94d13286039e0ab26372a0a27b03f32ab580d0962836151366784b7d23c926d811036762b8d96d28799256f5947aeca38a8176cf82fa76295864ffd05640d65f2904635f6dbadea17cfe0a4804c07c8982c6efdc0a3d0701a8b1d279e4e596f1d7592445174eb6547d5025db6146ab4eee749965e45"
      ],
      "sequence": 4294967294
    }
  ],
  "vout": [
    {
      "value": 499974.5775,
      "n": 0,
      "scriptPubKey": {
        "asm": "1 26b49aa2153061faee4fc852cc63bfa99c29ebba1cb627e4b5b216a3069a4de5",
        "hex": "512026b49aa2153061faee4fc852cc63bfa99c29ebba1cb627e4b5b216a3069a4de5",
        "reqSigs": 1,
        "type": "witness_v1_scripthash",
        "addresses": [
          "3QJmnh"
        ]
      }
    },
    {
      "value": 1.0,
      "n": 1,
      "scriptPubKey": {
        "asm": "OP_RETURN 05858c7225ba1d959e93ee3dd49f8ea2363338a21333c3d8142e0e80b0365baa ef162b437725f9825a6479e6d22a3f8a4243ac43d71a8a93b56aacb8f314db32cf360b635705d9a27a4459c6f20a1faa62638c63f73aaab3954a8c98d334fb12af566b033765b9c21a2439a6926a7fca0203ec03975acad3f52aecf8b3549b728f764b23174599e23a041986b24a5fea2223cc23b77aeaf3d50accd89374bb526f96abc3f7a57902dae4f96652aabf0ac2c32cc3579a0a1335ea2c3873945bb24fb68be3d7855922fac4d946728a9f2ae2e30ce377ba2a3315ca0c1853b47b922fd6eb83b7e539429aa4b92612eaff4a82836c8317da4a5375aa6c7833d41bf20ff6cba397c51962ba84990632cadf6aa2a34ca337fa6a73558a4c5813f43bd2ef162b437725f9825a6479e6d22a3f8a4243ac43d71a8a93b56aacb8f314db32cf360b635705d9a27a4459c6f20a1faa62638c63f73aaab3954a8c98d334fb12af566b033765b9c21a2439a6926a7fca0203ec03975acad3f52aecf8b3549b728f764b23174599e23a041986b24a5fea2223cc23b77aeaf3d50accd89374bb526f96abc3f7a57902dae4f96652aabf0ac2c32cc3579a0a1335ea2c3873945bb24fb68be3d7855922fac4d946728a9f2ae2e30ce377ba2a3315ca0c1853b47b922fd6eb83b7e539429aa4b92612eaff4a82836c8317da4a5375aa6c7833d41bf20ff6cba397c51962ba84990632cadf6aa2a34ca337fa6a73558a4c5813f43bd2ef162b437725f9825a6479e6d22a3f8a4243ac43d71a8a93b56aacb8f314db32cf360b635705d9a27a4459c6f20a1faa62638c63f73aaab3954a8c98d334fb12af566b033765b9c21a2439a6926a7fca0203ec03975acad3f52aecf8b3549b728f764b23174599e23a041986b24a5fea2223cc23b77aeaf3d50accd89374bb526f96abc3f7a57902dae4f96652aabf0ac2c32cc3579a0a1335ea2c3873945bb24fb68be3d7855922fac4d946728a9f2ae2e30ce377ba2a3315ca0c1853b47b922fd6eb83b7e539429aa4b92612eaff4a82836c8317da4a5375aa6c7833d41bf20ff6cba397c51962ba84990632cadf6aa2a34ca337fa6a73558a4c5813f43bd2ef162b437725f9825a6479e6d22a3f8a4243ac43d71a8a93b56aacb8f314db32cf360b635705d9a27a4459c6f20a1faa62638c63f73aaab3954a8c98d334fb12af566b033765b9c21a2439a6926a7fca0203ec03975acad3f52aecf8b3549b728f764b23174599e23a041986b24a5fea2223cc23b77aeaf3d50accd89374bb526f96abc3f7a57902dae4f96652aabf0ac2c32cc3579a0a1335ea2c3873945bb24fb68be3d7855922fac4d946728a9f2ae2e30ce377ba2a3315ca0c1853b47b922fd6eb83b7e539429aa4b92612eaff4a82836c8317da4a5375aa6c7833d41bf20ff6cba397c51962ba84990632cadf6aa2a34ca337fa6a73558a4c5813f43bd2ef162b437725f9825a6479e6d22a3f8a4243ac43d71a8a93b56aacb8f314db32cf360b635705d9a27a4459c6f20a1faa62638c63f73aaab3954a8c98d334fb12af566b033765b9c21a2439a6926a7fca0203ec03975acad3f52aecf8b3549b728f764b23174599e23a041986b24a5fea2223cc23b77aeaf3d50accd89374bb526f96abc3f7a57902dae4f96652aabf0aaff5acbe00425e5e78e178b48979af28cddb368209e9a12c7abd04bb3881c73a",
        "hex": "6a2005858c7225ba1d959e93ee3dd49f8ea2363338a21333c3d8142e0e80b0365baa4db004ef162b437725f9825a6479e6d22a3f8a4243ac43d71a8a93b56aacb8f314db32cf360b635705d9a27a4459c6f20a1faa62638c63f73aaab3954a8c98d334fb12af566b033765b9c21a2439a6926a7fca0203ec03975acad3f52aecf8b3549b728f764b23174599e23a041986b24a5fea2223cc23b77aeaf3d50accd89374bb526f96abc3f7a57902dae4f96652aabf0ac2c32cc3579a0a1335ea2c3873945bb24fb68be3d7855922fac4d946728a9f2ae2e30ce377ba2a3315ca0c1853b47b922fd6eb83b7e539429aa4b92612eaff4a82836c8317da4a5375aa6c7833d41bf20ff6cba397c51962ba84990632cadf6aa2a34ca337fa6a73558a4c5813f43bd2ef162b437725f9825a6479e6d22a3f8a4243ac43d71a8a93b56aacb8f314db32cf360b635705d9a27a4459c6f20a1faa62638c63f73aaab3954a8c98d334fb12af566b033765b9c21a2439a6926a7fca0203ec03975acad3f52aecf8b3549b728f764b23174599e23a041986b24a5fea2223cc23b77aeaf3d50accd89374bb526f96abc3f7a57902dae4f96652aabf0ac2c32cc3579a0a1335ea2c3873945bb24fb68be3d7855922fac4d946728a9f2ae2e30ce377ba2a3315ca0c1853b47b922fd6eb83b7e539429aa4b92612eaff4a82836c8317da4a5375aa6c7833d41bf20ff6cba397c51962ba84990632cadf6aa2a34ca337fa6a73558a4c5813f43bd2ef162b437725f9825a6479e6d22a3f8a4243ac43d71a8a93b56aacb8f314db32cf360b635705d9a27a4459c6f20a1faa62638c63f73aaab3954a8c98d334fb12af566b033765b9c21a2439a6926a7fca0203ec03975acad3f52aecf8b3549b728f764b23174599e23a041986b24a5fea2223cc23b77aeaf3d50accd89374bb526f96abc3f7a57902dae4f96652aabf0ac2c32cc3579a0a1335ea2c3873945bb24fb68be3d7855922fac4d946728a9f2ae2e30ce377ba2a3315ca0c1853b47b922fd6eb83b7e539429aa4b92612eaff4a82836c8317da4a5375aa6c7833d41bf20ff6cba397c51962ba84990632cadf6aa2a34ca337fa6a73558a4c5813f43bd2ef162b437725f9825a6479e6d22a3f8a4243ac43d71a8a93b56aacb8f314db32cf360b635705d9a27a4459c6f20a1faa62638c63f73aaab3954a8c98d334fb12af566b033765b9c21a2439a6926a7fca0203ec03975acad3f52aecf8b3549b728f764b23174599e23a041986b24a5fea2223cc23b77aeaf3d50accd89374bb526f96abc3f7a57902dae4f96652aabf0ac2c32cc3579a0a1335ea2c3873945bb24fb68be3d7855922fac4d946728a9f2ae2e30ce377ba2a3315ca0c1853b47b922fd6eb83b7e539429aa4b92612eaff4a82836c8317da4a5375aa6c7833d41bf20ff6cba397c51962ba84990632cadf6aa2a34ca337fa6a73558a4c5813f43bd2ef162b437725f9825a6479e6d22a3f8a4243ac43d71a8a93b56aacb8f314db32cf360b635705d9a27a4459c6f20a1faa62638c63f73aaab3954a8c98d334fb12af566b033765b9c21a2439a6926a7fca0203ec03975acad3f52aecf8b3549b728f764b23174599e23a041986b24a5fea2223cc23b77aeaf3d50accd89374bb526f96abc3f7a57902dae4f96652aabf0aaff5acbe00425e5e78e178b48979af28cddb368209e9a12c7abd04bb3881c73a",
        "type": "nulldata"
      }
    }
  ],
  "blockhash": "6d9c0c317b6a18c94c8dfa8ecf7920e3db1b4df4697afebc42d3fd28269e39fd",
  "confirmations": 1,
  "time": 1764181315,
  "blocktime": 1764181315
}