{
  "hex": "01000000000101cf5f0b23902acd1f96d66759289d09c3c550df6fa1ba29fcf802d1d0840fd02b0100000000feffffff0200e1f50500000000fdd5046a2038222cc30832542bfc64c05c0a8d424b89e70b15a754af719ffc4f785fc01b304db004b45ea42d80bd7db760ced3dee9b903a2c284a61edc6a9e280f4e5193dd7950f1947e840da09d5d9740eef3fec9992382e2a4863efc4abe082f6e71b3fd5970d1f41ee46dc0fd3df7208e939ea9f943e282c4e65e9c2ade684f0e11d39d3910b1d43ec44de0dd1dd700aeb3be89d963c2a2e4c67ebc0afe486f2e31f3bd19309134de24ad003dfd37e04e535e693983224204269e5cea1ea88fced1135df9d07114fe048d201ddd17c06e737e4919a302622406be7cca3e88afeef1337dd9f051749e64ed407dbd77a00e131e2979c362024466de1caa5ee8cf8e91531db9903154be44cd605d9d57802e333e0959e342226446fe3c8a7ec8efaeb1733d99b011b45ea42d80bd7db760ced3dee9b903a2c284a61edc6a9e280f4e5193dd7950f1947e840da09d5d9740eef3fec9992382e2a4863efc4abe082f6e71b3fd5970d1f41ee46dc0fd3df7208e939ea9f943e282c4e65e9c2ade684f0e11d39d3910b1d43ec44de0dd1dd700aeb3be89d963c2a2e4c67ebc0afe486f2e31f3bd19309134de24ad003dfd37e04e535e693983224204269e5cea1ea88fced1135df9d07114fe048d201ddd17c06e737e4919a302622406be7cca3e88afeef1337dd9f051749e64ed407dbd77a00e131e2979c362024466de1caa5ee8cf8e91531db9903154be44cd605d9d57802e333e0959e342226446fe3c8a7ec8efaeb1733d99b011b45ea42d80bd7db760ced3dee9b903a2c284a61edc6a9e280f4e5193dd7950f1947e840da09d5d9740eef3fec9992382e2a4863efc4abe082f6e71b3fd5970d1f41ee46dc0fd3df7208e939ea9f943e282c4e65e9c2ade684f0e11d39d3910b1d43ec44de0dd1dd700aeb3be89d963c2a2e4c67ebc0afe486f2e31f3bd19309134de24ad003dfd37e04e535e693983224204269e5cea1ea88fced1135df9d07114fe048d201ddd17c06e737e4919a302622406be7cca3e88afeef1337dd9f051749e64ed407dbd77a00e131e2979c362024466de1caa5ee8cf8e91531db9903154be44cd605d9d57802e333e0959e342226446fe3c8a7ec8efaeb1733d99b011b45ea42d80bd7db760ced3dee9b903a2c284a61edc6a9e280f4e5193dd7950f1947e840da09d5d9740eef3fec9992382e2a4863efc4abe082f6e71b3fd5970d1f41ee46dc0fd3df7208e939ea9f943e282c4e65e9c2ade684f0e11d39d3910b1d43ec44de0dd1dd700aeb3be89d963c2a2e4c67ebc0afe486f2e31f3bd19309134de24ad003dfd37e04e535e693983224204269e5cea1ea88fced1135df9d07114fe048d201ddd17c06e737e4919a302622406be7cca3e88afeef1337dd9f051749e64ed407dbd77a00e131e2979c362024466de1caa5ee8cf8e91531db9903154be44cd605d9d57802e333e0959e342226446fe3c8a7ec8efaeb1733d99b011b45ea42d80bd7db760ced3dee9b903a2c284a61edc6a9e280f4e5193dd7950f1947e840da09d5d9740eef3fec9992382e2a4863efc4abe082f6e71b3fd5970d1f41ee46dc0fd3df7208e939ea9f943e282c4e65e9c2ade684f0e11d39d3910b1d43ec44de0dd1dd700aeb3be89d963c2a2e4c67ebc0afe486f2e31f3bd19309134de24ad003dfd37e04e535e69398322e991d9dbf605fe7ebeeecafae522087b1b97478811d5cd851fae7b29c74a73719021522d792d0000225120155de6b20ba3ebf2bf4ed56dc3c98c3173f2459f2951babcd8f05ba77f09fe6902fd75099289b3a9edc2921143dafa636280236cf71bea22346125bf26bcb6ad32055e20d3d3a7ae9bac518b5710bd879669dd5b4c1565f478028b8b0c4f85b3ae0f8a9568ce1765892a7e232f1cd2da5ccf8052015eafdbaef89d1aad36d386658d800e6cd567de16862f4310d93a96be1127d412b56527d1ee816ee10fdd06d1457416954aeb28423fef54a33333cae48672c1e2254264d2ba7aeb2ffc9eaf39e40a7ee14a4f5b8b431215a9fc77f010cea6cf79b2c20bb9b9c3183f46205dba4f33cc58260d8ed2d239a8564357dd8d0ae603c4993a87e5f14ac34acdbbd7ce09780bdded76972db2dc914be65c305ad92d7c9077e0309dbe654d134304914dac9d07ded71fedd94de67e78195f65e0b151dd1eba6c36923b1b33629f0c716842ae3f412c07e952d8697f1fccde7c330669186ffb2e78a48c551b830e2f973c0a64bf7766e180c9851e1759f9621f406a26667e8796374d3b40f3c856e42fb16fda715b7955108a32b6728d3966fe393ad409bf40c6ca254bf995556b58a069f09e103e1ea4b0906dcdea4d83957b2eb34f5a840c5a5d8bbdc2ce28fe74f670be4788c97f17db64aeca224c0ef8f004430ac22926c615e1cd53f0c234797660f55b54423bf8b9dc7cd0bb3c747bcd483ecf2e9c5813900f01d9f7a1e34881a20f61dcbd3772b93d26a5b3791f64f03a4a89b7dac9b772149d8601b1380b869d3200a711d2f11dc44a30d7dae4175728d4760657a25dd46ea7a41f34155ef580acc77faa583b495d13d3e0cd3c50b158259e008b61f090302b7f4bf91f25c61d1ef9a62d7f997a991d1cbb6b3961e73b385d9fde3b7a61ac74af498b5a53e182d15e63f911887eba95a0ca61af672fd4ae8fcb1bc06ae1af3590d3be0ad9722a4472d6eb458c8131ad6033872c35a6a32e2b821e983e4139355e6d0871c21bf3eb3845282bc227ed150e6f96893528ba815280379dc60e8a0c6064616fa697f81433362cfb11caa3d105d76ad87e796cca8f5316a7699e4b9f40abecf2865fdd2ee47691c80efad153e60e19d3b54292082e7fe3af7fec82c04be8bc5a34b7a86f125822e89ea1f84720a08e37f7b95ea76bc4aaa2f2f177a17f9bdac1aa7a1769be4e9a22729578417664735331a66035d91873e92a8e6a69618503ef0bf6a43193195133180daf8afd5684523455188a2cee4e1e3bb694149062fc63b6175a5597ec47e70d69562acc4957d6d42d7928ec03bafa524a2de2cf06d8f53cd09fd91157d48326518ad3a8e1fb7a2e1e361d7f0f2c0dc709b0345c1ad67bdc4c3521cb90d419621c4edd1de68f596220335ae41593bfdb90c1faaa744604f3a99324d623b2a8857fe34bd729c9766dc8ca01f59f330f05e47fd7feda6eaf5e8a592a24fdf812efc889e05593acf9ecfa5f02c129d295b73165608de9f74d6d34c06e38a7c04cc9f882cf8408a37fce84795771f28913c43da3d36e5d4aa9185e89b7c441e32e3d00df98beae9e5f9a1c1b76ee4f08722978317644af22416d73a2d20489b856724335956a7a9d16dfa4fdc9e255fc328eccc3389af0b149c08ce09017a3efd6c71e16d3b8a1f6a00352181fbcb34f43c3a536aaa792a86b2cd3fa52f7ae2f1adca39ced66b4309c3f6d12bc94b3710fb1200b46673e8c20eb77d28b0722e2bf1bba4c7ea97a2d6813127be6f512ebad6c93c72e4abee33febb8e8d6f0040b585d46cbdc6e48148af1bdba51f235a0ff594899b2e7511fb7f0252edbef7eb52fab157e329fdae5c8c3d20a794f7e8bb45867892beefe98001ab81a2552d8be16a8502ba56a7510577d48a15c4e441abb6678deb2d20834be71804d6d787490d1f68e679534419c20d6526c328385ff4a55a7c64db2376b60103b8f9605d870e8fef497263907d004cb617b17b7c1b58d7031f17a30d9f069490cec35f9c29f3eaec835ffc410aef4d23e7ba7f149b1fcb5e7a8cc0f945f242222715cbfbdeb7c6430575b531bbe2da8d28525d70bcbd55750f681e7d7e26074d2e70577b2c1cfa77611e1aebe47449c4275d2347f85c8702be2fa72f39a1a3c2a65299ebc066a9ef95a2ab6b6cb6c467f4a907a6fdda64340f02fee375f29c55cefd2994e5c82d59b2976a2e538dd214ea9b760579b8c713e5a098e2d5aa972c750abd09bb1f8bf8f73029875bf8f0124b1479867e26057fe92474ee73b12b24c5321c6831f0f4612aaf8a6f635e6ea005c189b1ff97f47e3c924d245cf314cac652f6d015576d26edc48d6930dc28702d9ece847ae885d348b31d54da27bb73fa6a96176aebd044283c887b5393a407ae5f110cacaab403103a051c58623988101e0f4bccff4f5f1823c51e503d2324d28ac4930730ad9350c627734746f0cfc9173181dc5876ef125e568d526e609c7af064cf9b654728200fc25aaa647e716ca4a5f80012eb4ac28122277d1378f2aa2420fd77bd493339ceedf41d0c30e7d085dd66dbe7ee64650a2b2e0d48ecac69cf57b34a77939512086a3d108e64e1500ed24c76dc73390b9792fcbde2d11414b2fb472bd1d599faaf5e541fbb637749808b0dc2a6f60a0ca3ca575d376e2e36bd808834b5017141d0be52d3ecf419307d6a47414d5cc0a53e07dc75425e94947eb746e7328cc5cf2ff2494fabddc1165c3131eb4c64287013b21409d7f055969a82e3e85bb3aab591f3f0c9ff24e1392ebe77f87749cea5b5e45058bbaa861827dd1a0755c760518e60bc39ce26fb2c50b29e8dc129e006158e8fdfae10fa437e524a4c6f480afbd66bed535d783b158cd189778dd0356129bdec2f20c30f70bb5a5d4018136926f0354731fd386af48e4b0744c6fa0c8b2e6c64c8feff5a970201b0640040fe94b11f706920719f5a94884a31f8636a6bc113d79c789c2e061f69ff16d9c861d8ebf0d2f213a22c4d3370bbdb819eb01c480364325224df4b12d2a5efee25a7db8f7265f61cf893ce63387365b1723d0f0cf8728bf2f244f41754cf8275ad52eec26c9a7a1165f18b7f0520d2ba07ab3969db8604a18391bf091eeccb022ba159affd9098ba117b8549e69a760e0de45a2b35c9b635f52c9bcdf00b5f8e4fdb2e7567178e84ede5ff3c7a281bc6c7de2963df23e9b1dc8ee072d0918af89e16ef6eac3ccae69349dcc90eae03c8d0af125a5844cdb5b5791810cf4314ccafeb4a5636524f5579a28a7eafd55a4c81002b5d3460fafbd79084939f1b067d0f06ad7b695dfb9909b268c9376adbe5d2e71b0947ddb3f89f496000c4ffeb5c715d84e0261a104636e7da1bc6b9c0a0c0f528498a4bac7f3f802112f494b4f607d7e89a2bbc0c3e2ebfe0c242f3345547b91a4adb0b1b2b3bfc3c7c8cfd2dcdd060720253c434850718b9ba9de00000000000000000000000000000000000b1c323f01fd2105005e3eb0d8c8d83c9cf68d0cdec4ee97f168bbbde152ca45934cce9b268254fc8e9e4325e8492734e8ff68184e862ae6a0612193687d07434315348b6e1cf88233bb1e76dad7a5ce7978345f0c7de173a30a68ea4dc3eb3eafb8fca84b69b9445e877579f52cc798ababd2c4b6303672ea180d5c1574bb63919e2e3c1f70b4eb3ce4d3b4811d3cdffef31278b7fa7e211df35481a8e22061007e87cf538148a1d145a1d8d6276db8658836356e5958657d8ffbb542aad4562e48f3c57867924bb8897ef9b5c6aef61146952ce46da50bf171f68b9f1016f1c6a2ed3a39fd8be4617b738bc9ac571bdaf5d205d72229f4d464efa02946e28102e44a65f8207ca9dbe9fad01f0a1b597fd0321ac4acb395d5b621712897e55395a85cda03f48db014095e09b6f444f28b0d5eab0af9a0a867d8a22aa8dd3bee0e9c773d7eff4a1a3c86a1e3ed2462ec80f4608a23e3ce4647b7b3528c24e5681202d3011383e23639631a0caacf3316b8eec56fc7fe2306772c44b6295c5abb1a9d60be9ee23d60495b2a6581fe78b39fa5a473dfd06873394cedcd9a167b8019213092011e5dafb7db20a603b36df8d3b88e5ff31e24361b75b04dff534069999636894c110a82749f0d53614915f4aad8b9d6a975fd59afd41efe9965f0d93adcfcaec5d945e4649d3f40850605c97672351114a1c524ccc3586022d893fa1d06e5aebe1f562f103fefac3c353269badb78b53dae080e004234babc603611fa9ccd557642d4194f0543451c6aa1a38843e38884e8e16b140eb69aeb5b87bc7fd8f977ef5bb514fe50d4c768fd8a1fc45ef7770852abbe0f184835929c10dce35114e53c7d263c2056d3a7a9480d81c357c1c2e1f8aa9f146d619731017bd205bd8338221ccd20c80075ba917681ea020d1cddd6425662c091a7ab2e6e7fa310e3da94cb16ab6a874cb576e68650c4e86c8f2487bec26cdd2dbfc2c8bd55329257ffa6a39ee1b26ccc32ec930666d9639affc87e82a623ddaf665e2ba3dcffff485415816aae13df27f10fd50a128f05088d2cd50d2fc4fad892a2bfb100aeb3a1a81ed904b9b23a6b6322c021d115c0bb181de5e3c3ada9e8f3fd3de5524482c1cf6c765b710b6460c81f78030430a354d270a9314b04b5a58ce71808890f4f03e06b84271b9d87628b82a96f15fd02f5cdb630b5288aa83e8b8ffdd99e8cc6eff7458765158c2bcf35fa15bddecf2d686e00b4929336d867aa113e909800a128515a19b55049d7e4959e0dc2f6a04390c5a91cddf046251b51b77b50bc5d642befc1cd54a90ee5e7b828eaacae3d53ed60be2236b8361364df678d09716a681699d4c4bca1717e8ccc695d8197dfab6d93670238da3b9fb8516b3991d7d6b040be5197aee8494c3597b0e278f02641e75bf9633e13fc82148a763d8e18dd3503021423771d442d08108e9ff03f631aee159fe42e8542918326ebc69402fecaf886e702577afff51fe9d710e339a99fb702b7d0b909c98786607ce47321047d1ed540649cd8b0ca00e397e2ac7932ba92ca4a665219a79a1d558b19f569361035622e36d392b041cfdac61b7df9892da246ec274929c22a3e8362d81bfb1ee93ec32a79b9d58085a186cd11d8d63e5694eda2f0b985259b7cf66fa99ca1f2b8270ec455065c689d1da6f92fd2d2f1fec5acd3945842ab329a4b70ba39ab55680175e5c3efcbf6d1f03e8eaf313419c3203e9153f6ef049c71a5f59706d24b846bda762366640efe5dbf1d11501d0faea89ce08be75214ca4ee820de6194da150f082fa86d9d4faed37b2b1d2798394d48b47a50d83ec2276e559ba321ba70ac7afe23774b2d352c71000000",
  "txid": "0e38ed45467bdaa36487c34147195b7035058f4ad4a56a2ef320583c6322b29b",
  "hash": "b3a4662b5cd79b543ef53627898f9327c6516625608abf81df3debc8aed5220a",
  "size": 5085,
  "vsize": 2278,
  "version": 1,
  "locktime": 113,
  "vin": [
    {
      "txid": "2bd00f84d0d102f8fc29baa16fdf50c5c3099d285967d6961fcd2a90230b5fcf",
      "vout": 1,
      "scriptSig": {
        "asm": "",
        "hex": ""
      },
      "txinwitness": [
        "9289b3a9edc2921143dafa636280236cf71bea22346125bf26bcb6ad32055e20d3d3a7ae9bac518b5710bd879669dd5b4c1565f478028b8b0c4f85b3ae0f8a9568ce1765892a7e232f1cd2da5ccf8052015eafdbaef89d1aad36d386658d800e6cd567de16862f4310d93a96be1127d412b56527d1ee816ee10fdd06d1457416954aeb28423fef54a33333cae48672c1e2254264d2ba7aeb2ffc9eaf39e40a7ee14a4f5b8b431215a9fc77f010cea6cf79b2c20bb9b9c3183f46205dba4f33cc58260d8ed2d239a8564357dd8d0ae603c4993a87e5f14ac34acdbbd7ce09780bdded76972db2dc914be65c305ad92d7c9077e0309dbe654d134304914dac9d07ded71fedd94de67e78195f65e0b151dd1eba6c36923b1b33629f0c716842ae3f412c07e952d8697f1fccde7c330669186ffb2e78a48c551b830e2f973c0a64bf7766e180c9851e1759f9621f406a26667e8796374d3b40f3c856e42fb16fda715b7955108a32b6728d3966fe393ad409bf40c6ca254bf995556b58a069f09e103e1ea4b0906dcdea4d83957b2eb34f5a840c5a5d8bbdc2ce28fe74f670be4788c97f17db64aeca224c0ef8f004430ac22926c615e1cd53f0c234797660f55b54423bf8b9dc7cd0bb3c747bcd483ecf2e9c5813900f01d9f7a1e34881a20f61dcbd3772b93d26a5b3791f64f03a4a89b7dac9b772149d8601b1380b869d3200a711d2f11dc44a30d7dae4175728d4760657a25dd46ea7a41f34155ef580acc77faa583b495d13d3e0cd3c50b158259e008b61f090302b7f4bf91f25c61d1ef9a62d7f997a991d1cbb6b3961e73b385d9fde3b7a61ac74af498b5a53e182d15e63f911887eba95a0ca61af672fd4ae8fcb1bc06ae1af3590d3be0ad9722a4472d6eb458c8131ad6033872c35a6a32e2b821e983e4139355e6d0871c21bf3eb3845282bc227ed150e6f96893528ba815280379dc60e8a0c6064616fa697f81433362cfb11caa3d105d76ad87e796cca8f5316a7699e4b9f40abecf2865fdd2ee47691c80efad153e60e19d3b54292082e7fe3af7fec82c04be8bc5a34b7a86f125822e89ea1f84720a08e37f7b95ea76bc4aaa2f2f177a17f9bdac1aa7a1769be4e9a22729578417664735331a66035d91873e92a8e6a69618503ef0bf6a43193195133180daf8afd5684523455188a2cee4e1e3bb694149062fc63b6175a5597ec47e70d69562acc4957d6d42d7928ec03bafa524a2de2cf06d8f53cd09fd91157d48326518ad3a8e1fb7a2e1e361d7f0f2c0dc709b0345c1ad67bdc4c3521cb90d419621c4edd1de68f596220335ae41593bfdb90c1faaa744604f3a99324d623b2a8857fe34bd729c9766dc8ca01f59f330f05e47fd7feda6eaf5e8a592a24fdf812efc889e05593acf9ecfa5f02c129d295b73165608de9f74d6d34c06e38a7c04cc9f882cf8408a37fce84795771f28913c43da3d36e5d4aa9185e89b7c441e32e3d00df98beae9e5f9a1c1b76ee4f08722978317644af22416d73a2d20489b856724335956a7a9d16dfa4fdc9e255fc328eccc3389af0b149c08ce09017a3efd6c71e16d3b8a1f6a00352181fbcb34f43c3a536aaa792a86b2cd3fa52f7ae2f1adca39ced66b4309c3f6d12bc94b3710fb1200b46673e8c20eb77d28b0722e2bf1bba4c7ea97a2d6813127be6f512ebad6c93c72e4abee33febb8e8d6f0040b585d46cbdc6e48148af1bdba51f235a0ff594899b2e7511fb7f0252edbef7eb52fab157e329fdae5c8c3d20a794f7e8bb45867892beefe98001ab81a2552d8be16a8502ba56a7510577d48a15c4e441abb6678deb2d20834be71804d6d787490d1f68e679534419c20d6526c328385ff4a55a7c64db2376b60103b8f9605d870e8fef497263907d004cb617b17b7c1b58d7031f17a30d9f069490cec35f9c29f3eaec835ffc410aef4d23e7ba7f149b1fcb5e7a8cc0f945f242222715cbfbdeb7c6430575b531bbe2da8d28525d70bcbd55750f681e7d7e26074d2e70577b2c1cfa77611e1aebe47449c4275d2347f85c8702be2fa72f39a1a3c2a65299ebc066a9ef95a2ab6b6cb6c467f4a907a6fdda64340f02fee375f29c55cefd2994e5c82d59b2976a2e538dd214ea9b760579b8c713e5a098e2d5aa972c750abd09bb1f8bf8f73029875bf8f0124b1479867e26057fe92474ee73b12b24c5321c6831f0f4612aaf8a6f635e6ea005c189b1ff97f47e3c924d245cf314cac652f6d015576d26edc48d6930dc28702d9ece847ae885d348b31d54da27bb73fa6a96176aebd044283c887b5393a407ae5f110cacaab403103a051c58623988101e0f4bccff4f5f1823c51e503d2324d28ac4930730ad9350c627734746f0cfc9173181dc5876ef125e568d526e609c7af064cf9b654728200fc25aaa647e716ca4a5f80012eb4ac28122277d1378f2aa2420fd77bd493339ceedf41d0c30e7d085dd66dbe7ee64650a2b2e0d48ecac69cf57b34a77939512086a3d108e64e1500ed24c76dc73390b9792fcbde2d11414b2fb472bd1d599faaf5e541fbb637749808b0dc2a6f60a0ca3ca575d376e2e36bd808834b5017141d0be52d3ecf419307d6a47414d5cc0a53e07dc75425e94947eb746e7328cc5cf2ff2494fabddc1165c3131eb4c64287013b21409d7f055969a82e3e85bb3aab591f3f0c9ff24e1392ebe77f87749cea5b5e45058bbaa861827dd1a0755c760518e60bc39ce26fb2c50b29e8dc129e006158e8fdfae10fa437e524a4c6f480afbd66bed535d783b158cd189778dd0356129bdec2f20c30f70bb5a5d4018136926f0354731fd386af48e4b0744c6fa0c8b2e6c64c8feff5a970201b0640040fe94b11f706920719f5a94884a31f8636a6bc113d79c789c2e061f69ff16d9c861d8ebf0d2f213a22c4d3370bbdb819eb01c480364325224df4b12d2a5efee25a7db8f7265f61cf893ce63387365b1723d0f0cf8728bf2f244f41754cf8275ad52eec26c9a7a1165f18b7f0520d2ba07ab3969db8604a18391bf091eeccb022ba159affd9098ba117b8549e69a760e0de45a2b35c9b635f52c9bcdf00b5f8e4fdb2e7567178e84ede5ff3c7a281bc6c7de2963df23e9b1dc8ee072d0918af89e16ef6eac3ccae69349dcc90eae03c8d0af125a5844cdb5b5791810cf4314ccafeb4a5636524f5579a28a7eafd55a4c81002b5d3460fafbd79084939f1b067d0f06ad7b695dfb9909b268c9376adbe5d2e71b0947ddb3f89f496000c4ffeb5c715d84e0261a104636e7da1bc6b9c0a0c0f528498a4bac7f3f802112f494b4f607d7e89a2bbc0c3e2ebfe0c242f3345547b91a4adb0b1b2b3bfc3c7c8cfd2dcdd060720253c434850718b9ba9de00000000000000000000000000000000000b1c323f01",
        "005e3eb0d8c8d83c9cf68d0cdec4ee97f168bbbde152ca45934cce9b268254fc8e9e4325e8492734e8ff68184e862ae6a0612193687d07434315348b6e1cf88233bb1e76dad7a5ce7978345f0c7de173a30a68ea4dc3eb3eafb8fca84b69b9445e877579f52cc798ababd2c4b6303672ea180d5c1574bb63919e2e3c1f70b4eb3ce4d3b4811d3cdffef31278b7fa7e211df35481a8e22061007e87cf538148a1d145a1d8d6276db8658836356e5958657d8ffbb542aad4562e48f3c57867924bb8897ef9b5c6aef61146952ce46da50bf171f68b9f1016f1c6a2ed3a39fd8be4617b738bc9ac571bdaf5d205d72229f4d464efa02946e28102e44a65f8207ca9dbe9fad01f0a1b597fd0321ac4acb395d5b621712897e55395a85cda03f48db014095e09b6f444f28b0d5eab0af9a0a867d8a22aa8dd3bee0e9c773d7eff4a1a3c86a1e3ed2462ec80f4608a23e3ce4647b7b3528c24e5681202d3011383e23639631a0caacf3316b8eec56fc7fe2306772c44b6295c5abb1a9d60be9ee23d60495b2a6581fe78b39fa5a473dfd06873394cedcd9a167b8019213092011e5dafb7db20a603b36df8d3b88e5ff31e24361b75b04dff534069999636894c110a82749f0d53614915f4aad8b9d6a975fd59afd41efe9965f0d93adcfcaec5d945e4649d3f40850605c97672351114a1c524ccc3586022d893fa1d06e5aebe1f562f103fefac3c353269badb78b53dae080e004234babc603611fa9ccd557642d4194f0543451c6aa1a38843e38884e8e16b140eb69aeb5b87bc7fd8f977ef5bb514fe50d4c768fd8a1fc45ef7770852abbe0f184835929c10dce35114e53c7d263c2056d3a7a9480d81c357c1c2e1f8aa9f146d619731017bd205bd8338221ccd20c80075ba917681ea020d1cddd6425662c091a7ab2e6e7fa310e3da94cb16ab6a874cb576e68650c4e86c8f2487bec26cdd2dbfc2c8bd55329257ffa6a39ee1b26ccc32ec930666d9639affc87e82a623ddaf665e2ba3dcffff485415816aae13df27f10fd50a128f05088d2cd50d2fc4fad892a2bfb100aeb3a1a81ed904b9b23a6b6322c021d115c0bb181de5e3c3ada9e8f3fd3de5524482c1cf6c765b710b6460c81f78030430a354d270a9314b04b5a58ce71808890f4f03e06b84271b9d87628b82a96f15fd02f5cdb630b5288aa83e8b8ffdd99e8cc6eff7458765158c2bcf35fa15bddecf2d686e00b4929336d867aa113e909800a128515a19b55049d7e4959e0dc2f6a04390c5a91cddf046251b51b77b50bc5d642befc1cd54a90ee5e7b828eaacae3d53ed60be2236b8361364df678d09716a681699d4c4bca1717e8ccc695d8197dfab6d93670238da3b9fb8516b3991d7d6b040be5197aee8494c3597b0e278f02641e75bf9633e13fc82148a763d8e18dd3503021423771d442d08108e9ff03f631aee159fe42e8542918326ebc69402fecaf886e702577afff51fe9d710e339a99fb702b7d0b909c98786607ce47321047d1ed540649cd8b0ca00e397e2ac7932ba92ca4a665219a79a1d558b19f569361035622e36d392b041cfdac61b7df9892da246ec274929c22a3e8362d81bfb1ee93ec32a79b9d58085a186cd11d8d63e5694eda2f0b985259b7cf66fa99ca1f2b8270ec455065c689d1da6f92fd2d2f1fec5acd3945842ab329a4b70ba39ab55680175e5c3efcbf6d1f03e8eaf313419c3203e9153f6ef049c71a5f59706d24b846bda762366640efe5dbf1d11501d0faea89ce08be75214ca4ee820de6194da150f082fa86d9d4faed37b2b1d2798394d48b47a50d83ec2276e559ba321ba70ac7afe23774b2d352c"
      ],
      "sequence": 4294967294
    }
  ],
  "vout": [
    {
      "value": 1.0,
      "n": 0,
      "scriptPubKey": {
        "asm": "OP_RETURN 38222cc30832542bfc64c05c0a8d424b89e70b15a754af719ffc4f785fc01b30 b45ea42d80bd7db760ced3dee9b903a2c284a61edc6a9e280f4e5193dd7950f1947e840da09d5d9740eef3fec9992382e2a4863efc4abe082f6e71b3fd5970d1f41ee46dc0fd3df7208e939ea9f943e282c4e65e9c2ade684f0e11d39d3910b1d43ec44de0dd1dd700aeb3be89d963c2a2e4c67ebc0afe486f2e31f3bd19309134de24ad003dfd37e04e535e693983224204269e5cea1ea88fced1135df9d07114fe048d201ddd17c06e737e4919a302622406be7cca3e88afeef1337dd9f051749e64ed407dbd77a00e131e2979c362024466de1caa5ee8cf8e91531db9903154be44cd605d9d57802e333e0959e342226446fe3c8a7ec8efaeb1733d99b011b45ea42d80bd7db760ced3dee9b903a2c284a61edc6a9e280f4e5193dd7950f1947e840da09d5d9740eef3fec9992382e2a4863efc4abe082f6e71b3fd5970d1f41ee46dc0fd3df7208e939ea9f943e282c4e65e9c2ade684f0e11d39d3910b1d43ec44de0dd1dd700aeb3be89d963c2a2e4c67ebc0afe486f2e31f3bd19309134de24ad003dfd37e04e535e693983224204269e5cea1ea88fced1135df9d07114fe048d201ddd17c06e737e4919a302622406be7cca3e88afeef1337dd9f051749e64ed407dbd77a00e131e2979c362024466de1caa5ee8cf8e91531db9903154be44cd605d9d57802e333e0959e342226446fe3c8a7ec8efaeb1733d99b011b45ea42d80bd7db760ced3dee9b903a2c284a61edc6a9e280f4e5193dd7950f1947e840da09d5d9740eef3fec9992382e2a4863efc4abe082f6e71b3fd5970d1f41ee46dc0fd3df7208e939ea9f943e282c4e65e9c2ade684f0e11d39d3910b1d43ec44de0dd1dd700aeb3be89d963c2a2e4c67ebc0afe486f2e31f3bd19309134de24ad003dfd37e04e535e693983224204269e5cea1ea88fced1135df9d07114fe048d201ddd17c06e737e4919a302622406be7cca3e88afeef1337dd9f051749e64ed407dbd77a00e131e2979c362024466de1caa5ee8cf8e91531db9903154be44cd605d9d57802e333e0959e342226446fe3c8a7ec8efaeb1733d99b011b45ea42d80bd7db760ced3dee9b903a2c284a61edc6a9e280f4e5193dd7950f1947e840da09d5d9740eef3fec9992382e2a4863efc4abe082f6e71b3fd5970d1f41ee46dc0fd3df7208e939ea9f943e282c4e65e9c2ade684f0e11d39d3910b1d43ec44de0dd1dd700aeb3be89d963c2a2e4c67ebc0afe486f2e31f3bd19309134de24ad003dfd37e04e535e693983224204269e5cea1ea88fced1135df9d07114fe048d201ddd17c06e737e4919a302622406be7cca3e88afeef1337dd9f051749e64ed407dbd77a00e131e2979c362024466de1caa5ee8cf8e91531db9903154be44cd605d9d57802e333e0959e342226446fe3c8a7ec8efaeb1733d99b011b45ea42d80bd7db760ced3dee9b903a2c284a61edc6a9e280f4e5193dd7950f1947e840da09d5d9740eef3fec9992382e2a4863efc4abe082f6e71b3fd5970d1f41ee46dc0fd3df7208e939ea9f943e282c4e65e9c2ade684f0e11d39d3910b1d43ec44de0dd1dd700aeb3be89d963c2a2e4c67ebc0afe486f2e31f3bd19309134de24ad003dfd37e04e535e69398322e991d9dbf605fe7ebeeecafae522087b1b97478811d5cd851fae7b29c74a7371",
        "hex": "6a2038222cc30832542bfc64c05c0a8d424b89e70b15a754af719ffc4f785fc01b304db004b45ea42d80bd7db760ced3dee9b903a2c284a61edc6a9e280f4e5193dd7950f1947e840da09d5d9740eef3fec9992382e2a4863efc4abe082f6e71b3fd5970d1f41ee46dc0fd3df7208e939ea9f943e282c4e65e9c2ade684f0e11d39d3910b1d43ec44de0dd1dd700aeb3be89d963c2a2e4c67ebc0afe486f2e31f3bd19309134de24ad003dfd37e04e535e693983224204269e5cea1ea88fced1135df9d07114fe048d201ddd17c06e737e4919a302622406be7cca3e88afeef1337dd9f051749e64ed407dbd77a00e131e2979c362024466de1caa5ee8cf8e91531db9903154be44cd605d9d57802e333e0959e342226446fe3c8a7ec8efaeb1733d99b011b45ea42d80bd7db760ced3dee9b903a2c284a61edc6a9e280f4e5193dd7950f1947e840da09d5d9740eef3fec9992382e2a4863efc4abe082f6e71b3fd5970d1f41ee46dc0fd3df7208e939ea9f943e282c4e65e9c2ade684f0e11d39d3910b1d43ec44de0dd1dd700aeb3be89d963c2a2e4c67ebc0afe486f2e31f3bd19309134de24ad003dfd37e04e535e693983224204269e5cea1ea88fced1135df9d07114fe048d201ddd17c06e737e4919a302622406be7cca3e88afeef1337dd9f051749e64ed407dbd77a00e131e2979c362024466de1caa5ee8cf8e91531db9903154be44cd605d9d57802e333e0959e342226446fe3c8a7ec8efaeb1733d99b011b45ea42d80bd7db760ced3dee9b903a2c284a61edc6a9e280f4e5193dd7950f1947e840da09d5d9740eef3fec9992382e2a4863efc4abe082f6e71b3fd5970d1f41ee46dc0fd3df7208e939ea9f943e282c4e65e9c2ade684f0e11d39d3910b1d43ec44de0dd1dd700aeb3be89d963c2a2e4c67ebc0afe486f2e31f3bd19309134de24ad003dfd37e04e535e693983224204269e5cea1ea88fced1135df9d07114fe048d201ddd17c06e737e4919a302622406be7cca3e88afeef1337dd9f051749e64ed407dbd77a00e131e2979c362024466de1caa5ee8cf8e91531db9903154be44cd605d9d57802e333e0959e342226446fe3c8a7ec8efaeb1733d99b011b45ea42d80bd7db760ced3dee9b903a2c284a61edc6a9e280f4e5193dd7950f1947e840da09d5d9740eef3fec9992382e2a4863efc4abe082f6e71b3fd5970d1f41ee46dc0fd3df7208e939ea9f943e282c4e65e9c2ade684f0e11d39d3910b1d43ec44de0dd1dd700aeb3be89d963c2a2e4c67ebc0afe486f2e31f3bd19309134de24ad003dfd37e04e535e693983224204269e5cea1ea88fced1135df9d07114fe048d201ddd17c06e737e4919a302622406be7cca3e88afeef1337dd9f051749e64ed407dbd77a00e131e2979c362024466de1caa5ee8cf8e91531db9903154be44cd605d9d57802e333e0959e342226446fe3c8a7ec8efaeb1733d99b011b45ea42d80bd7db760ced3dee9b903a2c284a61edc6a9e280f4e5193dd7950f1947e840da09d5d9740eef3fec9992382e2a4863efc4abe082f6e71b3fd5970d1f41ee46dc0fd3df7208e939ea9f943e282c4e65e9c2ade684f0e11d39d3910b1d43ec44de0dd1dd700aeb3be89d963c2a2e4c67ebc0afe486f2e31f3bd19309134de24ad003dfd37e04e535e69398322e991d9dbf605fe7ebeeecafae522087b1b97478811d5cd851fae7b29c74a7371",
        "type": "nulldata"
      }
    },
    {
      "value": 499984.7465,
      "n": 1,
      "scriptPubKey": {
        "asm": "1 155de6b20ba3ebf2bf4ed56dc3c98c3173f2459f2951babcd8f05ba77f09fe69",
        "hex": "5120155de6b20ba3ebf2bf4ed56dc3c98c3173f2459f2951babcd8f05ba77f09fe69",
        "reqSigs": 1,
        "type": "witness_v1_scripthash",
        "addresses": [
          "3QJmnh"
        ]
      }
    }
  ],
  "blockhash": "d7a7b9a6fa9b7eeca4ed3b292cd4c21f070551bfab2aaeca0619c41458c07723",
  "confirmations": 1,
  "time": 1764178593,
  "blocktime": 1764178593
}