{
  "hex": "01000000000101075a397bcf25d4547855f42d32f55047feff88ca74fba6317f5c7a9c46ccc4590100000000feffffff0220cc6133792d000022512083661b643805125d94012ed4cb850b62358b7573441976404ccc86e65ef81cb200e1f50500000000fdd5046a20667e2a29b267e20020e67bbcd498618145dcca1a53be0808f6441549f7a301f04db0048f0bd7ec6ed037300057b1785ae4828dea8ca387870a7376713a297485a5df60af2bf7cc4ef01710207791587ac4a2adcaac83a7a72a5356511a0954a585ff40cf4b97ac2e9077704017f1381aa4c2cdaacce3c7c74a3336317a6934c5e59f20ef6bb78c0eb057506037d1183a84e2ed8aecc3e7e76a1316115a4914e5c5bf000f8b576cee50b7b080d731f8da64020d6a0c2307078af3f6f1baa9f405255fe02fab774cce709790a0f711d8fa44222d4a2c032727aad3d6d19a89d425057fc04fcb172cae10f7f0c09771b89a24424d2a4c634747cab3b6b1fae9b445651fa06feb370c8e30d7d0e0b75198ba04626d0a6c436767ea939691dac99465453f808f0bd7ec6ed037300057b1785ae4828dea8ca387870a7376713a297485a5df60af2bf7cc4ef01710207791587ac4a2adcaac83a7a72a5356511a0954a585ff40cf4b97ac2e9077704017f1381aa4c2cdaacce3c7c74a3336317a6934c5e59f20ef6bb78c0eb057506037d1183a84e2ed8aecc3e7e76a1316115a4914e5c5bf000f8b576cee50b7b080d731f8da64020d6a0c2307078af3f6f1baa9f405255fe02fab774cce709790a0f711d8fa44222d4a2c032727aad3d6d19a89d425057fc04fcb172cae10f7f0c09771b89a24424d2a4c634747cab3b6b1fae9b445651fa06feb370c8e30d7d0e0b75198ba04626d0a6c436767ea939691dac99465453f808f0bd7ec6ed037300057b1785ae4828dea8ca387870a7376713a297485a5df60af2bf7cc4ef01710207791587ac4a2adcaac83a7a72a5356511a0954a585ff40cf4b97ac2e9077704017f1381aa4c2cdaacce3c7c74a3336317a6934c5e59f20ef6bb78c0eb057506037d1183a84e2ed8aecc3e7e76a1316115a4914e5c5bf000f8b576cee50b7b080d731f8da64020d6a0c2307078af3f6f1baa9f405255fe02fab774cce709790a0f711d8fa44222d4a2c032727aad3d6d19a89d425057fc04fcb172cae10f7f0c09771b89a24424d2a4c634747cab3b6b1fae9b445651fa06feb370c8e30d7d0e0b75198ba04626d0a6c436767ea939691dac99465453f808f0bd7ec6ed037300057b1785ae4828dea8ca387870a7376713a297485a5df60af2bf7cc4ef01710207791587ac4a2adcaac83a7a72a5356511a0954a585ff40cf4b97ac2e9077704017f1381aa4c2cdaacce3c7c74a3336317a6934c5e59f20ef6bb78c0eb057506037d1183a84e2ed8aecc3e7e76a1316115a4914e5c5bf000f8b576cee50b7b080d731f8da64020d6a0c2307078af3f6f1baa9f405255fe02fab774cce709790a0f711d8fa44222d4a2c032727aad3d6d19a89d425057fc04fcb172cae10f7f0c09771b89a24424d2a4c634747cab3b6b1fae9b445651fa06feb370c8e30d7d0e0b75198ba04626d0a6c436767ea939691dac99465453f808f0bd7ec6ed037300057b1785ae4828dea8ca387870a7376713a297485a5df60af2bf7cc4ef01710207791587ac4a2adcaac83a7a72a5356511a0954a585ff40cf4b97ac2e9077704017f1381aa4c2cdaacce3c7c74a3336317a6934c5e59f20ef6bb78c0eb057506037d1183a84e2ed8aecc3e7e76a1316115a4914e5c5bf000f8b576cee50b7b080d731f8da64020d666837f1d4dee270f7ae7011dfb28adef827baa31156e5f5ebbe7a2a4cede3ab02fd7509a9de598174fad6fed07aa1aa5c17c341895b85edcff08845ab69e4de24b8c9e513cf43be922c395dd5b081a1150f626e2ed5c44f623d8a115d6f96a5d65789ff11ad692669241e0e0339708058a350cdd3fee600e10cf20e43fa6912e1762cd115e32804dc19fcdebdc31af4852e411cd72e75d7e226b879d175f758f709b1930c1067c54da98c977596988ee02517ad864b0bf6a3b89ccdfbb6aac2a567ecbe267b02a1480bdb9392b7513d9147d2159163046e125aeb8e08be3f0920f336bf32dbeb33e4f5bd40b609b3900928d6f6160fdfd5ab0926b65d6a2530d962ae962f1d59fd17ec33b2254c08a464742699fbf09f3d2bc0f2a620c315131bb6472f840966f616fd8f4271a0015bf1a2c8abbca971c4ca5defb689f3f6571af17162163aafe21f241653eb61848619e417376e5d7ac88155ac2dee591dcf711e7928668fe9a8d81692b9af8d1e8f964d7278fb297449cd7e931cbb16066125d30c6ac55164f8427f3bbb4db598866aea6665447eb147075dc2aec9c2446f0fbe6c595b45f09d1382024dd116a47ef8b394d1ef70e48e63a813911d5ade4995d0c5ac69d4f184daaa31312f649cff5de8914e3bf8f200479122d3e542aa5f565038bc2a3f4cd9af2f190ff57427f55e4a5474dce725cad6664a3ea10de3916bc717ea735bc3417bde8587dd52635e78060d2d4634c3baba213f926983f55b2c35a569da21507c87a858a9ba52b74edb94e537f4272e639adc48e661c17d8cd889b2e860fd27cf10539a2d12cff1b572f85c6b9916441a8a6eccc171aaee02847090fa2243f38ff69096d8caa1713a681a91bb83850425cd06cf0bd145702361b68a1331df88048ba838b7e8028a65fb20275538d77c63539d4743cfb56bc7db95743bd20dd112fb344242c31d4521085733dd1d218737da4ea88985f4284d7c8370415b13b5f30152de20edf48cd1faac32b43384ee20b2ee157516d8db7b522caec29bdfda7c25fc322c8f474673131ae8bb5456d653ed36c59fd94e70d3d05b7e763c7fc02da32556fbbd6e89235ecb3dfa9a5acb0e6a2b071a21fcb2e1aaf108c4cb52ec2f30c26f68e9c1cd78a550c98dc43058598240e563c314962b019e17d651e2246af4edb40230847d77d75d9e894884c09a977afe18adddae5e0cea4a5fe639976f648eedb7fa23901a5a78ed97971ad05201bad3a8fdd7b082e1a1f4e2050caea231df4cbeed84e3e92639b57b294fa243a0b36da7d3aec077382aae5a3d1d7793368dd0f03ada795c68872cbd67c675c083755ab99124e9c884eedfabfe20b1f63dc1ed661258e632216a9392cb26b03ab2d0a0bb7bd24e925b9295e0b53c7cfac4db1e81320a0f41b9cd2923a162cb552a8ba182c1c3a7bd5a906bf4f0c309d44c478afb996c1b9526b75cedc381ff744ec4ee4e7e68dc06de6d6214b466cee13e32574c876d0c8c075b865bd94a92f719aa03de6696b5a1736677fdd67e910f17b95d67b7a5b7891e88f97143cb93b0bb956dab3c626066199c9d3e3193acef9e7d5c5a1471c0ed11da4fc42e941ad53d37983a74ddea8f2310c067475baadac4303ee1a19884ed192e78936568ea2c47e5a7cea6307066a75433c7bb44af8a973e108ada5d2463f7014c05bd3225110ad32983b2ba11d634d533b5cd7cf1240aeb7f3b6df5a4b95a7b16019aeae8a7a80e31555124fb53283f96464802fa8cc3a95052bdc6f5b6ed73e92c205b49a2006745f8d84430a755453166802cc17bb08fd54797dbf87be00d9831492e021ae746aa1b40f7f487eb0dc6b345f0e990d08daa7abaae0dfcf92da08338dabbd348abd8899ac94652e72d60352a927dee92cd93e286c5d90a6aec62aa33e77e1626b335ecf345c2e79e27724dee303ddf4a127ba8e353116ad3ea836bb070b3c53e492753eb3248a7fe41e2c8a54659e8800dbb434efd800da1465daa9f676563ac5c72c7e5fe682a1bb385afa866880254b70d38a992c6c7aa1a82aed4af27219fd8514117ceaa12d91ab7edf4b200389346fd1fb89b1d5b2dfbb4efb49b14648310caab251cc21b0d891a48f733db7565284c990de78f3240207247c73904c9ef50bb19bad2b70a77a88225d2376a0ab26251e69c15a13aa5f9504c5eb524ec317518db5a28170e69e625f8d656315f8dadbe0797da897563b2017c5ee250b72684415592eb2b0d974e62cec002ea65a6443d30385ee7bfa131769709aeb0315018af66b9e1c99b5f378597be4b7376cfc2577181626ca2292e2c88ab700ce5d11e81c4024d3ea94863b67f00fe07e23d475dd951907f9f18055fdfa22b50cccf1ca73f439742c2d57c182976ee9367e9934fefca8e0a7e1a54977180a2db36cb93c40f4af333a01b8c0f79691996a7a0991a2a8d4fb8a9abd522dfbeb5d193242d27b7723bed0201e026f28a033e44207362ebb9ba3fd1def23a46ce57cb70a097fc2e75575dc3b7eff43f5f0a9b99a41b535700727ab31a4031a130eafa3495452ddfe19a73ac9354a13046327e719ddf3cea13403c31476e963694f8cc64285b7fa7a6c1699896e8a3e9e2e23d7475b69b24ccb38f4c1fb58a9a9f1ec5aa850c47bed8bd3801522a8ad812c754053ecada28bc46931c8043e1fbd987d00f88b122c1f34ff0ffa0b0650bbdd9fa6d9d2e0ba825565fa12424a4b719c40f8396caffbd9907affde9c78712f5e405716910eff8841fd5a7b449912ed4ab27d56f25cefe58c1e55a3d3eab8c40e2e0f961414579761c98cb7826889b70ce6c3df40ba26f246b2db4dabea17f72b50ef2ed6f2b84244aef0c522156aea349fd830d19f0dd8764a896722118d3074aba6c0be013d6dbbe0481c59eccb2bfce3c3b0950557ecbcbbeda657d64f6b393e3ed1c9965969a7fa27acec597553e57c5e904ef6648cb70aa95d974ab28fbd9e83c796d0ac4f22ff90e7386d2512d2003ace063f298e404564935e42bc18a8d815d8835924a3a3383a7a5da9e74ef6a9c35b359480396086d6f735a702bfaa578d75f8b2f48e70d34029cc150fba13904103a3158560ec85f3f5b10ccfef4447437684b59f17818fa042ab599bbeb79b89f88aba04f4f8dc814e5ee23f3d4e479f085b62dbf74a40e3e242d70bed2970ed76689309a730867e4520c53d58451a1f257a213ff8debdf15b92ee2478c57097ae5cf42d6947b4b64bee44d77046541f1c7fcd497727e1ccf70c6d2b396794f4444b3ad34d3a23fb21bee90a079c7f34e84ebd4848b0193750b42141104e078d97bae99a59ec085b581e31c7f1c2a2b36617780819dced9f0f30522455a5e798d909bb4becdd6171b1e1f355c63949daab2c9f5fb07151c1f52617187a6e1eff6000000000000000000000000000000000000000000000000000000000d1a283401fd210500765d7efae3d28ec8306576baa89338d0ee86ef55b05e132002295086b95dbb36c048c2cdeb751895e16dd50ca8018a7ab15daa69f10680272067da5f84ed294a63cd3917405f63d79ae5bb33625911c7dfd613449cb11ff8601424922690d3ba2b93a2521ac696050b65578e8c8be231c16fa4b8f548dd7e964c9e74dee23676b7b40e9a6813a7ec6fd622849a72c90cf213aaa173f8eb3ae3a9c61ee3d9885687e2bb9d5cbcc35fc56446810df8a63aff44da5864c686f8e573fa5423efe06c7bfae3cdb746517bbaf53e7c7d6413bee5c1f75dc58f326cb1030748e20ae669027f23d8f6d53b538a0122841bdb529e1b340bbf1567edc35078a3c7a8fcc1d255310324a557c2ceab2b8489aee5e86e0d4493b05f31306514fc5f0200b8ca27615f9df8948647e3731e61e2545402de2822e815be477550b82e62570e2bcabd44e999ab205c9f99ad3323acbd4744bd282090cadd2bfdc1b578b06b82c3a827b4065e35ff36656fb27e45cdeaf0d462f8765aad23d727cfbefb220cb9b22782f0d1cab58786169c3d89f1eebecbcb9263b0d93ab22a931371a68fa30eaec1de97c15511681695c0b663deec25b73337329e4c55cc9c6a605cd4c55d1d25c051d02bd305d39d79d6f18e251d1ff852c951f91606834df1c6c9afe1872588ef07af36b61823b2cae1256cbb7b384aac64862edeb377173b02b4689c69d15fefab567677c5be7265f6444a942096f3cbd9a40d87dd8018dfcd857134334417ad46dc79e5a0eb109fef994ab0ba17d1253ca4d300fb7ff49422b609f3cef32c6a25c43462f169db00ef245491038a0abf58dbae0825bb2e83ae4149a84ea2bbd12d68da5da0f7412830fb0e2186d0b8738f378a28626d6aba21309c751cd9d3a4f2371bbe51fa8ff27b705b7fdcb3bb9f49085bafdbf1e13ef02cacd0249deedded1e5511962b90858609d74fbcefb1140cc6e6ae5eb352a47418f34ef0ee446416a9cc071715ad37af6aa3d617df97a70d189e1818f1687f993226aed7be092ab72b96c26f4b03420441b26d652525aa32db7f3f24c96f571255ff8c0cfb972f2820207690df7c84e6d4dc63378bdc05c4d605dc5cb1c1353dc8a54d44c0ffd988bf28a801b0127e37f43f387618f8d5e0fd0615b5f676ff45d459b6742a7b8e2d3d4800f8402255c8d26b951a9f13d8f324c4b71e7f069bd4e68815fc4970541992488d473e78c1fdc5040f301113c4ba6c09f49a7b9b94c342745434ebb5fa97d61c010bf12f850b62e725d0b5fb76746d4b7caa4c63985e8bedc4c5391c9e97bf0361e1beb9fac259dc73926a099af2ffbb3a0a6a5d94ee1781dfcaa645f15077e464c4f7e983cb73a72a300287d5812d22374a8aafdf4e6f5d0bce9fc7f0d31bfe07ed34bcda6678d9082ec5a3a6424e42e7fd637d6bb98c1fab680c86c96521f7db865b2175613a9c6b67c552da082b8f08bc338013a727f33b5f5c9ef1db85bb722f5f79792a00dd18612a120910ff426c2044b11288be16910528daa1fd192fb94bdb6d140825872227672f619c40ca90414f8b5d62c192f0ecb3c70b7a344a23689d1f58ccd5e4dd38c267f0940229f196cca676891831cefb3d69f3b8bc373c6291d761695758792ebff88f08c4466b29e161f121a5e0901d1894a97e4bb3c86209b31231373ed2e77fd488731e7fb599eda9643eb1669ca60ad09838751098993f71ccdddead0cd03bb05c1c9063b2d95503363a4d6f51b7452477ab5b93faf06f5a54f6fcd0d76853319bae4341f56461a33ec2dec17f3fbf64ce8d89b339321545222f120821a05f2ebdc7b0641e276414746bf860fa6b482a42a571000000",
  "txid": "09dd4eca366906410df03a08a53c5448bda25248981d48eca73eac870f3551e1",
  "hash": "420f729da4e99a7a5ed05ac70ea154425595967a501576377f8d33268cc9eac4",
  "size": 5085,
  "vsize": 2278,
  "version": 1,
  "locktime": 113,
  "vin": [
    {
      "txid": "59c4cc469c7a5c7f31a6fb74ca88fffe4750f5322df4557854d425cf7b395a07",
      "vout": 1,
      "scriptSig": {
        "asm": "",
        "hex": ""
      },
      "txinwitness": [
        "a9de598174fad6fed07aa1aa5c17c341895b85edcff08845ab69e4de24b8c9e513cf43be922c395dd5b081a1150f626e2ed5c44f623d8a115d6f96a5d65789ff11ad692669241e0e0339708058a350cdd3fee600e10cf20e43fa6912e1762cd115e32804dc19fcdebdc31af4852e411cd72e75d7e226b879d175f758f709b1930c1067c54da98c977596988ee02517ad864b0bf6a3b89ccdfbb6aac2a567ecbe267b02a1480bdb9392b7513d9147d2159163046e125aeb8e08be3f0920f336bf32dbeb33e4f5bd40b609b3900928d6f6160fdfd5ab0926b65d6a2530d962ae962f1d59fd17ec33b2254c08a464742699fbf09f3d2bc0f2a620c315131bb6472f840966f616fd8f4271a0015bf1a2c8abbca971c4ca5defb689f3f6571af17162163aafe21f241653eb61848619e417376e5d7ac88155ac2dee591dcf711e7928668fe9a8d81692b9af8d1e8f964d7278fb297449cd7e931cbb16066125d30c6ac55164f8427f3bbb4db598866aea6665447eb147075dc2aec9c2446f0fbe6c595b45f09d1382024dd116a47ef8b394d1ef70e48e63a813911d5ade4995d0c5ac69d4f184daaa31312f649cff5de8914e3bf8f200479122d3e542aa5f565038bc2a3f4cd9af2f190ff57427f55e4a5474dce725cad6664a3ea10de3916bc717ea735bc3417bde8587dd52635e78060d2d4634c3baba213f926983f55b2c35a569da21507c87a858a9ba52b74edb94e537f4272e639adc48e661c17d8cd889b2e860fd27cf10539a2d12cff1b572f85c6b9916441a8a6eccc171aaee02847090fa2243f38ff69096d8caa1713a681a91bb83850425cd06cf0bd145702361b68a1331df88048ba838b7e8028a65fb20275538d77c63539d4743cfb56bc7db95743bd20dd112fb344242c31d4521085733dd1d218737da4ea88985f4284d7c8370415b13b5f30152de20edf48cd1faac32b43384ee20b2ee157516d8db7b522caec29bdfda7c25fc322c8f474673131ae8bb5456d653ed36c59fd94e70d3d05b7e763c7fc02da32556fbbd6e89235ecb3dfa9a5acb0e6a2b071a21fcb2e1aaf108c4cb52ec2f30c26f68e9c1cd78a550c98dc43058598240e563c314962b019e17d651e2246af4edb40230847d77d75d9e894884c09a977afe18adddae5e0cea4a5fe639976f648eedb7fa23901a5a78ed97971ad05201bad3a8fdd7b082e1a1f4e2050caea231df4cbeed84e3e92639b57b294fa243a0b36da7d3aec077382aae5a3d1d7793368dd0f03ada795c68872cbd67c675c083755ab99124e9c884eedfabfe20b1f63dc1ed661258e632216a9392cb26b03ab2d0a0bb7bd24e925b9295e0b53c7cfac4db1e81320a0f41b9cd2923a162cb552a8ba182c1c3a7bd5a906bf4f0c309d44c478afb996c1b9526b75cedc381ff744ec4ee4e7e68dc06de6d6214b466cee13e32574c876d0c8c075b865bd94a92f719aa03de6696b5a1736677fdd67e910f17b95d67b7a5b7891e88f97143cb93b0bb956dab3c626066199c9d3e3193acef9e7d5c5a1471c0ed11da4fc42e941ad53d37983a74ddea8f2310c067475baadac4303ee1a19884ed192e78936568ea2c47e5a7cea6307066a75433c7bb44af8a973e108ada5d2463f7014c05bd3225110ad32983b2ba11d634d533b5cd7cf1240aeb7f3b6df5a4b95a7b16019aeae8a7a80e31555124fb53283f96464802fa8cc3a95052bdc6f5b6ed73e92c205b49a2006745f8d84430a755453166802cc17bb08fd54797dbf87be00d9831492e021ae746aa1b40f7f487eb0dc6b345f0e990d08daa7abaae0dfcf92da08338dabbd348abd8899ac94652e72d60352a927dee92cd93e286c5d90a6aec62aa33e77e1626b335ecf345c2e79e27724dee303ddf4a127ba8e353116ad3ea836bb070b3c53e492753eb3248a7fe41e2c8a54659e8800dbb434efd800da1465daa9f676563ac5c72c7e5fe682a1bb385afa866880254b70d38a992c6c7aa1a82aed4af27219fd8514117ceaa12d91ab7edf4b200389346fd1fb89b1d5b2dfbb4efb49b14648310caab251cc21b0d891a48f733db7565284c990de78f3240207247c73904c9ef50bb19bad2b70a77a88225d2376a0ab26251e69c15a13aa5f9504c5eb524ec317518db5a28170e69e625f8d656315f8dadbe0797da897563b2017c5ee250b72684415592eb2b0d974e62cec002ea65a6443d30385ee7bfa131769709aeb0315018af66b9e1c99b5f378597be4b7376cfc2577181626ca2292e2c88ab700ce5d11e81c4024d3ea94863b67f00fe07e23d475dd951907f9f18055fdfa22b50cccf1ca73f439742c2d57c182976ee9367e9934fefca8e0a7e1a54977180a2db36cb93c40f4af333a01b8c0f79691996a7a0991a2a8d4fb8a9abd522dfbeb5d193242d27b7723bed0201e026f28a033e44207362ebb9ba3fd1def23a46ce57cb70a097fc2e75575dc3b7eff43f5f0a9b99a41b535700727ab31a4031a130eafa3495452ddfe19a73ac9354a13046327e719ddf3cea13403c31476e963694f8cc64285b7fa7a6c1699896e8a3e9e2e23d7475b69b24ccb38f4c1fb58a9a9f1ec5aa850c47bed8bd3801522a8ad812c754053ecada28bc46931c8043e1fbd987d00f88b122c1f34ff0ffa0b0650bbdd9fa6d9d2e0ba825565fa12424a4b719c40f8396caffbd9907affde9c78712f5e405716910eff8841fd5a7b449912ed4ab27d56f25cefe58c1e55a3d3eab8c40e2e0f961414579761c98cb7826889b70ce6c3df40ba26f246b2db4dabea17f72b50ef2ed6f2b84244aef0c522156aea349fd830d19f0dd8764a896722118d3074aba6c0be013d6dbbe0481c59eccb2bfce3c3b0950557ecbcbbeda657d64f6b393e3ed1c9965969a7fa27acec597553e57c5e904ef6648cb70aa95d974ab28fbd9e83c796d0ac4f22ff90e7386d2512d2003ace063f298e404564935e42bc18a8d815d8835924a3a3383a7a5da9e74ef6a9c35b359480396086d6f735a702bfaa578d75f8b2f48e70d34029cc150fba13904103a3158560ec85f3f5b10ccfef4447437684b59f17818fa042ab599bbeb79b89f88aba04f4f8dc814e5ee23f3d4e479f085b62dbf74a40e3e242d70bed2970ed76689309a730867e4520c53d58451a1f257a213ff8debdf15b92ee2478c57097ae5cf42d6947b4b64bee44d77046541f1c7fcd497727e1ccf70c6d2b396794f4444b3ad34d3a23fb21bee90a079c7f34e84ebd4848b0193750b42141104e078d97bae99a59ec085b581e31c7f1c2a2b36617780819dced9f0f30522455a5e798d909bb4becdd6171b1e1f355c63949daab2c9f5fb07151c1f52617187a6e1eff6000000000000000000000000000000000000000000000000000000000d1a283401",
        "00765d7efae3d28ec8306576baa89338d0ee86ef55b05e132002295086b95dbb36c048c2cdeb751895e16dd50ca8018a7ab15daa69f10680272067da5f84ed294a63cd3917405f63d79ae5bb33625911c7dfd613449cb11ff8601424922690d3ba2b93a2521ac696050b65578e8c8be231c16fa4b8f548dd7e964c9e74dee23676b7b40e9a6813a7ec6fd622849a72c90cf213aaa173f8eb3ae3a9c61ee3d9885687e2bb9d5cbcc35fc56446810df8a63aff44da5864c686f8e573fa5423efe06c7bfae3cdb746517bbaf53e7c7d6413bee5c1f75dc58f326cb1030748e20ae669027f23d8f6d53b538a0122841bdb529e1b340bbf1567edc35078a3c7a8fcc1d255310324a557c2ceab2b8489aee5e86e0d4493b05f31306514fc5f0200b8ca27615f9df8948647e3731e61e2545402de2822e815be477550b82e62570e2bcabd44e999ab205c9f99ad3323acbd4744bd282090cadd2bfdc1b578b06b82c3a827b4065e35ff36656fb27e45cdeaf0d462f8765aad23d727cfbefb220cb9b22782f0d1cab58786169c3d89f1eebecbcb9263b0d93ab22a931371a68fa30eaec1de97c15511681695c0b663deec25b73337329e4c55cc9c6a605cd4c55d1d25c051d02bd305d39d79d6f18e251d1ff852c951f91606834df1c6c9afe1872588ef07af36b61823b2cae1256cbb7b384aac64862edeb377173b02b4689c69d15fefab567677c5be7265f6444a942096f3cbd9a40d87dd8018dfcd857134334417ad46dc79e5a0eb109fef994ab0ba17d1253ca4d300fb7ff49422b609f3cef32c6a25c43462f169db00ef245491038a0abf58dbae0825bb2e83ae4149a84ea2bbd12d68da5da0f7412830fb0e2186d0b8738f378a28626d6aba21309c751cd9d3a4f2371bbe51fa8ff27b705b7fdcb3bb9f49085bafdbf1e13ef02cacd0249deedded1e5511962b90858609d74fbcefb1140cc6e6ae5eb352a47418f34ef0ee446416a9cc071715ad37af6aa3d617df97a70d189e1818f1687f993226aed7be092ab72b96c26f4b03420441b26d652525aa32db7f3f24c96f571255ff8c0cfb972f2820207690df7c84e6d4dc63378bdc05c4d605dc5cb1c1353dc8a54d44c0ffd988bf28a801b0127e37f43f387618f8d5e0fd0615b5f676ff45d459b6742a7b8e2d3d4800f8402255c8d26b951a9f13d8f324c4b71e7f069bd4e68815fc4970541992488d473e78c1fdc5040f301113c4ba6c09f49a7b9b94c342745434ebb5fa97d61c010bf12f850b62e725d0b5fb76746d4b7caa4c63985e8bedc4c5391c9e97bf0361e1beb9fac259dc73926a099af2ffbb3a0a6a5d94ee1781dfcaa645f15077e464c4f7e983cb73a72a300287d5812d22374a8aafdf4e6f5d0bce9fc7f0d31bfe07ed34bcda6678d9082ec5a3a6424e42e7fd637d6bb98c1fab680c86c96521f7db865b2175613a9c6b67c552da082b8f08bc338013a727f33b5f5c9ef1db85bb722f5f79792a00dd18612a120910ff426c2044b11288be16910528daa1fd192fb94bdb6d140825872227672f619c40ca90414f8b5d62c192f0ecb3c70b7a344a23689d1f58ccd5e4dd38c267f0940229f196cca676891831cefb3d69f3b8bc373c6291d761695758792ebff88f08c4466b29e161f121a5e0901d1894a97e4bb3c86209b31231373ed2e77fd488731e7fb599eda9643eb1669ca60ad09838751098993f71ccdddead0cd03bb05c1c9063b2d95503363a4d6f51b7452477ab5b93faf06f5a54f6fcd0d76853319bae4341f56461a33ec2dec17f3fbf64ce8d89b339321545222f120821a05f2ebdc7b0641e276414746bf860fa6b482a42a5"
      ],
      "sequence": 4294967294
    }
  ],
  "vout": [
    {
      "value": 499985.7634,
      "n": 0,
      "scriptPubKey": {
        "asm": "1 83661b643805125d94012ed4cb850b62358b7573441976404ccc86e65ef81cb2",
        "hex": "512083661b643805125d94012ed4cb850b62358b7573441976404ccc86e65ef81cb2",
        "reqSigs": 1,
        "type": "witness_v1_scripthash",
        "addresses": [
          "3QJmnh"
        ]
      }
    },
    {
      "value": 1.0,
      "n": 1,
      "scriptPubKey": {
        "asm": "OP_RETURN 667e2a29b267e20020e67bbcd498618145dcca1a53be0808f6441549f7a301f0 8f0bd7ec6ed037300057b1785ae4828dea8ca387870a7376713a297485a5df60af2bf7cc4ef01710207791587ac4a2adcaac83a7a72a5356511a0954a585ff40cf4b97ac2e9077704017f1381aa4c2cdaacce3c7c74a3336317a6934c5e59f20ef6bb78c0eb057506037d1183a84e2ed8aecc3e7e76a1316115a4914e5c5bf000f8b576cee50b7b080d731f8da64020d6a0c2307078af3f6f1baa9f405255fe02fab774cce709790a0f711d8fa44222d4a2c032727aad3d6d19a89d425057fc04fcb172cae10f7f0c09771b89a24424d2a4c634747cab3b6b1fae9b445651fa06feb370c8e30d7d0e0b75198ba04626d0a6c436767ea939691dac99465453f808f0bd7ec6ed037300057b1785ae4828dea8ca387870a7376713a297485a5df60af2bf7cc4ef01710207791587ac4a2adcaac83a7a72a5356511a0954a585ff40cf4b97ac2e9077704017f1381aa4c2cdaacce3c7c74a3336317a6934c5e59f20ef6bb78c0eb057506037d1183a84e2ed8aecc3e7e76a1316115a4914e5c5bf000f8b576cee50b7b080d731f8da64020d6a0c2307078af3f6f1baa9f405255fe02fab774cce709790a0f711d8fa44222d4a2c032727aad3d6d19a89d425057fc04fcb172cae10f7f0c09771b89a24424d2a4c634747cab3b6b1fae9b445651fa06feb370c8e30d7d0e0b75198ba04626d0a6c436767ea939691dac99465453f808f0bd7ec6ed037300057b1785ae4828dea8ca387870a7376713a297485a5df60af2bf7cc4ef01710207791587ac4a2adcaac83a7a72a5356511a0954a585ff40cf4b97ac2e9077704017f1381aa4c2cdaacce3c7c74a3336317a6934c5e59f20ef6bb78c0eb057506037d1183a84e2ed8aecc3e7e76a1316115a4914e5c5bf000f8b576cee50b7b080d731f8da64020d6a0c2307078af3f6f1baa9f405255fe02fab774cce709790a0f711d8fa44222d4a2c032727aad3d6d19a89d425057fc04fcb172cae10f7f0c09771b89a24424d2a4c634747cab3b6b1fae9b445651fa06feb370c8e30d7d0e0b75198ba04626d0a6c436767ea939691dac99465453f808f0bd7ec6ed037300057b1785ae4828dea8ca387870a7376713a297485a5df60af2bf7cc4ef01710207791587ac4a2adcaac83a7a72a5356511a0954a585ff40cf4b97ac2e9077704017f1381aa4c2cdaacce3c7c74a3336317a6934c5e59f20ef6bb78c0eb057506037d1183a84e2ed8aecc3e7e76a1316115a4914e5c5bf000f8b576cee50b7b080d731f8da64020d6a0c2307078af3f6f1baa9f405255fe02fab774cce709790a0f711d8fa44222d4a2c032727aad3d6d19a89d425057fc04fcb172cae10f7f0c09771b89a24424d2a4c634747cab3b6b1fae9b445651fa06feb370c8e30d7d0e0b75198ba04626d0a6c436767ea939691dac99465453f808f0bd7ec6ed037300057b1785ae4828dea8ca387870a7376713a297485a5df60af2bf7cc4ef01710207791587ac4a2adcaac83a7a72a5356511a0954a585ff40cf4b97ac2e9077704017f1381aa4c2cdaacce3c7c74a3336317a6934c5e59f20ef6bb78c0eb057506037d1183a84e2ed8aecc3e7e76a1316115a4914e5c5bf000f8b576cee50b7b080d731f8da64020d666837f1d4dee270f7ae7011dfb28adef827baa31156e5f5ebbe7a2a4cede3ab",
        "hex": "6a20667e2a29b267e20020e67bbcd498618145dcca1a53be0808f6441549f7a301f04db0048f0bd7ec6ed037300057b1785ae4828dea8ca387870a7376713a297485a5df60af2bf7cc4ef01710207791587ac4a2adcaac83a7a72a5356511a0954a585ff40cf4b97ac2e9077704017f1381aa4c2cdaacce3c7c74a3336317a6934c5e59f20ef6bb78c0eb057506037d1183a84e2ed8aecc3e7e76a1316115a4914e5c5bf000f8b576cee50b7b080d731f8da64020d6a0c2307078af3f6f1baa9f405255fe02fab774cce709790a0f711d8fa44222d4a2c032727aad3d6d19a89d425057fc04fcb172cae10f7f0c09771b89a24424d2a4c634747cab3b6b1fae9b445651fa06feb370c8e30d7d0e0b75198ba04626d0a6c436767ea939691dac99465453f808f0bd7ec6ed037300057b1785ae4828dea8ca387870a7376713a297485a5df60af2bf7cc4ef01710207791587ac4a2adcaac83a7a72a5356511a0954a585ff40cf4b97ac2e9077704017f1381aa4c2cdaacce3c7c74a3336317a6934c5e59f20ef6bb78c0eb057506037d1183a84e2ed8aecc3e7e76a1316115a4914e5c5bf000f8b576cee50b7b080d731f8da64020d6a0c2307078af3f6f1baa9f405255fe02fab774cce709790a0f711d8fa44222d4a2c032727aad3d6d19a89d425057fc04fcb172cae10f7f0c09771b89a24424d2a4c634747cab3b6b1fae9b445651fa06feb370c8e30d7d0e0b75198ba04626d0a6c436767ea939691dac99465453f808f0bd7ec6ed037300057b1785ae4828dea8ca387870a7376713a297485a5df60af2bf7cc4ef01710207791587ac4a2adcaac83a7a72a5356511a0954a585ff40cf4b97ac2e9077704017f1381aa4c2cdaacce3c7c74a3336317a6934c5e59f20ef6bb78c0eb057506037d1183a84e2ed8aecc3e7e76a1316115a4914e5c5bf000f8b576cee50b7b080d731f8da64020d6a0c2307078af3f6f1baa9f405255fe02fab774cce709790a0f711d8fa44222d4a2c032727aad3d6d19a89d425057fc04fcb172cae10f7f0c09771b89a24424d2a4c634747cab3b6b1fae9b445651fa06feb370c8e30d7d0e0b75198ba04626d0a6c436767ea939691dac99465453f808f0bd7ec6ed037300057b1785ae4828dea8ca387870a7376713a297485a5df60af2bf7cc4ef01710207791587ac4a2adcaac83a7a72a5356511a0954a585ff40cf4b97ac2e9077704017f1381aa4c2cdaacce3c7c74a3336317a6934c5e59f20ef6bb78c0eb057506037d1183a84e2ed8aecc3e7e76a1316115a4914e5c5bf000f8b576cee50b7b080d731f8da64020d6a0c2307078af3f6f1baa9f405255fe02fab774cce709790a0f711d8fa44222d4a2c032727aad3d6d19a89d425057fc04fcb172cae10f7f0c09771b89a24424d2a4c634747cab3b6b1fae9b445651fa06feb370c8e30d7d0e0b75198ba04626d0a6c436767ea939691dac99465453f808f0bd7ec6ed037300057b1785ae4828dea8ca387870a7376713a297485a5df60af2bf7cc4ef01710207791587ac4a2adcaac83a7a72a5356511a0954a585ff40cf4b97ac2e9077704017f1381aa4c2cdaacce3c7c74a3336317a6934c5e59f20ef6bb78c0eb057506037d1183a84e2ed8aecc3e7e76a1316115a4914e5c5bf000f8b576cee50b7b080d731f8da64020d666837f1d4dee270f7ae7011dfb28adef827baa31156e5f5ebbe7a2a4cede3ab",
        "type": "nulldata"
      }
    }
  ],
  "blockhash": "d7a7b9a6fa9b7eeca4ed3b292cd4c21f070551bfab2aaeca0619c41458c07723",
  "confirmations": 1,
  "time": 1764178593,
  "blocktime": 1764178593
}