{
  "hex": "0100000000010156617661f69a5fe67c838fe425c368917bafd91d83895e66c80f6d53b71d6ecc0100000000feffffff0200e1f50500000000fdd5046a20b0dd8d05faeae55297557194d55ceb2b724c0eb0cfa401aa7a9055c92c005a024db004bf04f142c00d32c8af43c8803efd05a75646dffaa0455f6518adfaacc274f8059f24d162e02d12e88f63e8a01edd25877666ffda80657f45388dda8ce254d825ff44b102804d7288ef0388c07ebd45e716069fbae0051f2558edbaec8234b845df649122a06d52a8cf23a8e05e9d65c73626bf9ac0253f0578cd9acca21498653f8471c2408db2482fc34800be7d8527d6c65f7a20c5dfe5982d7a2c42f478851fa451e260ad92680fe368209e5da507f6e67f5a00e5ffc5b80d5a0c62d458a57fc4318200cdf2086f830840fe3dc56796861f3a60859fa5d86d3a6c02b438c55fe411a220edd2284fa32860de1de547b6a63f1a40a5bf85f84d1a4c229418e5bf04f142c00d32c8af43c8803efd05a75646dffaa0455f6518adfaacc274f8059f24d162e02d12e88f63e8a01edd25877666ffda80657f45388dda8ce254d825ff44b102804d7288ef0388c07ebd45e716069fbae0051f2558edbaec8234b845df649122a06d52a8cf23a8e05e9d65c73626bf9ac0253f0578cd9acca21498653f8471c2408db2482fc34800be7d8527d6c65f7a20c5dfe5982d7a2c42f478851fa451e260ad92680fe368209e5da507f6e67f5a00e5ffc5b80d5a0c62d458a57fc4318200cdf2086f830840fe3dc56796861f3a60859fa5d86d3a6c02b438c55fe411a220edd2284fa32860de1de547b6a63f1a40a5bf85f84d1a4c229418e5bf04f142c00d32c8af43c8803efd05a75646dffaa0455f6518adfaacc274f8059f24d162e02d12e88f63e8a01edd25877666ffda80657f45388dda8ce254d825ff44b102804d7288ef0388c07ebd45e716069fbae0051f2558edbaec8234b845df649122a06d52a8cf23a8e05e9d65c73626bf9ac0253f0578cd9acca21498653f8471c2408db2482fc34800be7d8527d6c65f7a20c5dfe5982d7a2c42f478851fa451e260ad92680fe368209e5da507f6e67f5a00e5ffc5b80d5a0c62d458a57fc4318200cdf2086f830840fe3dc56796861f3a60859fa5d86d3a6c02b438c55fe411a220edd2284fa32860de1de547b6a63f1a40a5bf85f84d1a4c229418e5bf04f142c00d32c8af43c8803efd05a75646dffaa0455f6518adfaacc274f8059f24d162e02d12e88f63e8a01edd25877666ffda80657f45388dda8ce254d825ff44b102804d7288ef0388c07ebd45e716069fbae0051f2558edbaec8234b845df649122a06d52a8cf23a8e05e9d65c73626bf9ac0253f0578cd9acca21498653f8471c2408db2482fc34800be7d8527d6c65f7a20c5dfe5982d7a2c42f478851fa451e260ad92680fe368209e5da507f6e67f5a00e5ffc5b80d5a0c62d458a57fc4318200cdf2086f830840fe3dc56796861f3a60859fa5d86d3a6c02b438c55fe411a220edd2284fa32860de1de547b6a63f1a40a5bf85f84d1a4c229418e5bf04f142c00d32c8af43c8803efd05a75646dffaa0455f6518adfaacc274f8059f24d162e02d12e88f63e8a01edd25877666ffda80657f45388dda8ce254d825ff44b102804d7288ef0388c07ebd45e716069fbae0051f2558edbaec8234b845df649122a06d52a8cf23a8e05e9d65c73626bf9ac0253f0578cd9acca21498653f8471c2408db2482fc34800be7d85278527c1a5d1993dd3c387f7f6107afd2cd0d4ed03f016f66586a1a4e5568f56a3b0767139792d0000225120ff5bdd8b91b5985d09ec2f72610a9f522e8ae09c02c0b752b0b4530bd516c69302fd75091b9cbef05de8e1612ad3a46fe5a44215278cd2e7be7ab5e7ff28c18cad7ed480282b2ac7b6579ae7e5a516ab5a7c619227b35179d5ca12fc620e2d011f5006a0bf69eb006c5bbe798f060aefb4d28c32772ed3eaa0384bf50f4ddae8f0d8e2a337d98167c96806fe4f7c16970589da4dabe13ee71fa3dfe3f41b0d3b2a7f26834332bdd3c4fade28bd133fe6949573f2c1a74b599440d680391f0821e95d9110dd1388c17e803c5668b86433b4a29533ad1f8d764db6237c69b7981e5ed0cac63be30eda796542af640dd862ebe8fbbc97bb29e071e7160b93922faf9788ebd35ab94af52706e427d109be283afefc7036cc409c33d36dc088fa4e4b37789979c7e924148a57259b7c2ecff4c96352862d4718f5eca6e8836da20b1406e08dd9c617de2ecca9ed0201357a59634acfdc215235c8e74b3297374a25c5e5af2ab660c1612623b84f141dd0749ecd6824e4be53ea5c62e1e6f17c5f825630f442572cca5348cff854ba2fafa4e4ab4d612052743a4c07f31f93a4cb98eee16b8a2e8053588d17a9a0fae4fc97e4aaaac6c235ef0ecdb2cf9f3608a0e99d4f549231b61ad5d5bda63fd8a5f48dd0aa96c7ec8484e1199898d0ee2eafaf276d8456d4af0eab939e1d709f567e75b5015935577785c57706a2c514c4b17cbedc4b8d477261eadee024b1c9ac6f6acff5ac1c2be21f9566415b39e02d547956210403733eb2925ca3dca4910dbfbe45829e38a6c69af2b0c47aeefb471b2bd70ec41ec7864f5ed0fe5dcf8fa056a360a8feb6c87e7d2eaae88cfa014db8b5b7bec6abade0959b84e9098c80be61dd4d1db793654e02892efc91c11ef299febded125e296d5ef8455a77440950a79248309f5b8d8406051cff005647f2025f36282fed1a54ca1358e5a12859930b566da6df1c288bb424b63df091de3fc5d56bc5282f36f18f9f6b56486a005c63f81e022c27cffa7e459cbfe073e61c1743df5c431f39e60af2e9acd6a4fc625f823005ee1180644fa3e2ee356e432ae264c71384cadea1b33034b524bc1e6d50ab62449083a7447c0485ad55fc13f2433aaf2cc0374ec9a09042fb6842bf97397ee04170e715078f8d0940be68a32c333a45e5626378c1e0210f24a3aaf35bcdbccd335ec108ab384698158503051833e10e40a6f0af3c95f61107f4ea86ab21bbea17fdf1b46e521509e0a19b4e247564a0038618cde8bbe2ac9e533f2b25625b4e4ebf576e7f5634e9c5b1b95d6421195cae474b7cbf736f15583a5c9e6da4566bab9c0e1516f4745a8f1e54def196fc58932b46694e6913527f3eb3b32050d9e7dfb12f29ed6a87e56d926b6b243aabbd9464d09ecb3759d5483ed1ca190cdbcfd084bb54243eace805fa1e530d1df85e56363fa66263274452248847f0bc85282ae85a2c87af00f96085431576494af0750659f64a565dcc9e02787b63b9b9cd29399e9f178cfc5a3faf34288e1bfae854fc17d0273629a525d849a79c7165be8972a30a1002c43b773dd2f10c2cc84ed51b568175e932b16d54553db2a80a7e49afd4262aabbb4dbb97738133b1fc16f4e964dc0c7ecdd6582e3613519924f157ed745f93eee9b42510c0995c03c00bffc294fbaa8a0313626744acbe1b3c103b8f32d7e70bbf3e7dad6230199942877b5381b576f1e09c80cc4401fe37b8ff8bff7bf1c27846dbf28b1e32f17790902378c7c2f274d65f6665df5ca68c11a7373def62b9a8f13876330413e883a408aa74463c622740f6bd8c05911b31d072a3bebd9507f6ebd9aea2a0886bef806528722cb6c539dc459c82cca8963dfaac6061244b82a3deca294e2f3fe9afa7556b8157553aa4bc0167a7966524cb490a8762ff6cd2f5e7a838b9530d4f20b9d212a28fd4f2faaa0118ed7a03030606b70cc23d06f10a6ac442c0ae6916fb498c01089cf8db491a28cf0cf82e32fcc54015d53ea932912601d79df42a8ef30cec7210716b1aa4e2c094b0c40cdfb14596bd57dfc98918b01ea3fba57c1796b562713a166ddc04411e861eeaaaa446ea54b4dc2164fe142af056f28c4b63cbc5bab61ee116d417686dcdf87466dd34aa89c43b041b8b6a6ccae8a74962958249596f892373a413bd0d11e01746a8c6d800e70295be07f6e1e14f3825f4f2eeafa1a65a5e874a3d35388c6af7df6c6aa3d84ef8d7659304fb8a6712353603ef3b31952f8b7eda54f4bd34c243fca10da3cb75b7106e02a55085308795940537eb18d49ee82f53cc4e59012fa8fa8b478c8be2d3d5d63f01c2bef06c0716407c840d80dcca754f619a0d97e41a22672c6249a0d11634f00d38baae92238fb086734c3213f794cf813ffcce552d390f9a1b1c02eeb2c4f2b652154c1e7f3cdacc43258736233a746589fec171fac2fb9806c58e10460450c4c420dea9057972c3bf51bfadcd71ff65638e26c830be696cb47d80f3c5b869e0d66bdab05d4df2f7a298e899aa8ff18213e5ea3dac5fd8f95d3da5d47e350a2eef719537001a44440df865496bd1f7b872c7a6045be49a96cf8bab09e13d99c9690e9f1c596b50e87f1e8846e1e2aa496bd6617e89fe2ded7a5dae1f01f9485907517c443d075e6cad50f888256aa5f815fdf6332c3c50a6f2e8d252fcdfc0f3538805edc9480b93e1ee27047ad34a2f372a6b60ebbf37c051ebb48fb027ded744a82827fe7f0a591b79b30dcb273d9f91f8dea077c433f46fceaa5661f03e05e6c54801aa3f56822c32e2f6655c369adf065cab649497297205fa0294c3b4bc411b641815ca6db0c33b1cb79ff2d29dc65762a70dfbb0797b00abb2d90135b3c37c17137c84d2a77ec0f587e56130396b68426c54af338fa616754a80af9c16611ef55c43b7ac6f86b9eaee22fd3a41e14d26e73a56e5e63eb948bcf97c756e7dd5088a3d4e2373d1cfa83aa1e788ad769ba30229c252e74a9c90865a38f8b1ecd6504158ed996acb2982bf449bed26a6b23fbd9c5409dedb11ae0460cdead8f71648d4f59e77ff10a054e2239e078c8cadba8010878ea77b4227f1774366a5e510e01272e87bdf0285c237d1e4f7c1cebb1d6fe01742e8d4edc928a7d4b0ea20bda8f68abd44db54a9a5a94bc79cb450796d141269eed3482cfd622beb49ca2b6f8a7df158c2b3b4028b0642e785e94fd82d381902f73bde32d73c923b4eebb03039ea96375da0325bf240df62b80de53e9706bb4c59568d82ab2b92542d388f1b3ddf9066295181565df577f0f12a89a898dcc74d0896e9d7eb089cddfc00bc6195279ab40a7c676dea129f98021b2628424550898e93a2abbdd0d8e4e5e62123273c43464d525f70757f92aebcc3d0d1dfe1e6effe07090b182125343f668aa7a8bbcad0e60d31484d5d6466676982a4a7a9cfdbff000000000000001229394901fd2105004a47c7f81cc21537362938fdedfbe5953a3b2252684247d0426a076a7eb7947b50f0a3ada09c6253a4e9b4c4b17cdbb30dae0ae6bf6261f010c9cdd48f7e1808b6cb58f420f3f6d7974b66291843c161134a85172156e73e10b4dcaa950351e0cab9d8dac4b50ceaa4b9cd9c8346ba45c32f5dd2a3830c28f7eb2abbe44a0e3c5149a4056c54e641d64fa6ee2710ebf7d6203c6213cff874f4e9918216b13d03900b263f8a8434517447b6647aeb355866f2c0e0a27065473869ff5a12fe35f10c20832ede85b1e9bfa03b6279a670de27baaee21cb35ec0153a327499ef4dd390b28ed45e375093a685e5ffc5fc98e92618713face42cddfcf242a291b79d6a77dbb0d1b1848c7d4f16ad00783d34d1acc1cfca0ea8d126577e7316c7681b815ce46350fe7d179b48931df8fa92a13fb304d73079828ccd32211e53bcc274a671e287e2fd40550511a4f72df1caeb0c614f2e22e8985ea10ed25dd0853b38d614438e7be1bcf94bdc915c26d0ebc03a422d0cbef5ac86101804b9d1a878985cc0de320d03827148f95c6240175c378bee1344e0ad5ca56492fa8a9b3b3998342d20f6a54c822fba7a4ce902ba226f334abf54c666f0f4e6b7fb9228fe008db97528c67f6fb2fdcc4d13f2ce6dc4b6d9a7af1a11fe740e2545c14e7068297d0bc934142892aea6e789a5b5cfca4e124426c8917e2d93daf270e7e3d5947da16b4974e7665394f633d8e8ee153308657453237b488df62a8119ec7696f67c21ac7cc34f2b29de6f8f9e7a1a922967aa167eea87654d2feae8e46df6db01590e420ed86399b60f61980e692fd8491cc7fb1738e9b65414e5a78fce50518fad2402049c98e5e0ac98e1de652489144055d9ea3f8375e01f0beeef3516c27a780e3aaf1f1a9b24d1a86ed1743c0ad1a4ef2223059824fc5a5ea5fc93a07609770bce60a389c19a28e9bfd4684cf21775fabb4e144740edf496f85ebb9ea65f9a235465046ed0d94dcb98bd55dbd0471d072f74245d928fe5877b74405dde93066754af7dde7dbb2519a1f9629e79f0deead4a0aafa7fd7a07d66bfaf90d0d5b1811489311a01a52175dab33fe89a94817571588a872a228fa2a46650a77543796c0479c6f40fcd8405907f69960146c34e4326f86b044fc4d8130240ee9ee90a6bae94e6cf07209d654482d00a13999fbe2f654fd0a3c9ba1b61ac3f1719570b9de464a27d26bf3ca8c204b2f912639915cba9602e5ee8868113419936e76774b353ef7d674ce0a2b7df07cb171f92d5faea1fe1d20316ece872b3c9526bd9fdc845a13eeb4e0cea9bc6eb26ea4e4c7c9d81068f4da1e634dfb494dfd79b41a5e59511830222f8eb6656a49e56b82e62ce0c363119a24a5d9e686a984d7232266cd4bb0beffdff2c7e60f47231c229cffb392750e354629cb884b514292623e3bb241813bf9b41947f331a0a53838f80abd2dce5722666afc7dd40460e2363bd114a258fb5e695c056a1d727cd9552e19aa10447624900c04a88dcf751bde58b70b20ec5f52e6601b98e204308f98e3ee0c90389baa7c0bfd80f0907a8648b0b5a4ce1a5ed274f1acd21aa32d4b946d1192eac44242b1e733eb4fc2809de9ed60dd05f2b62802062740341bf61fa956d9e446ca96e4d82b98646634040c71dccdfa38a49caa6bcbbf750f1358afbdf2f882410ee3370ab82f8a4791d0af48bb46e37a0c1d1757e032dd7e8b3ffc95e0387767b8df68b12c22401a43e4128cf6553dc13bb635006270f464c6e2ff590c5654bc3c8dd62a30d79c45dc37d5631f523ee5a24a2aafc7cbbb6dde28bbd9ad4e0d0d55cad08482216a7b0f9ba1430c4d6ba70000000",
  "txid": "0c29569cc7d410838afb9cd17d27604f26e97e2b9946839557f268a5120a1252",
  "hash": "9b4cb4a44b4b9fbe031720d159cdbf650876825a7326e324344a9d81d37f23be",
  "size": 5085,
  "vsize": 2278,
  "version": 1,
  "locktime": 112,
  "vin": [
    {
      "txid": "cc6e1db7536d0fc8665e89831dd9af7b9168c325e48f837ce65f9af661766156",
      "vout": 1,
      "scriptSig": {
        "asm": "",
        "hex": ""
      },
      "txinwitness": [
        "1b9cbef05de8e1612ad3a46fe5a44215278cd2e7be7ab5e7ff28c18cad7ed480282b2ac7b6579ae7e5a516ab5a7c619227b35179d5ca12fc620e2d011f5006a0bf69eb006c5bbe798f060aefb4d28c32772ed3eaa0384bf50f4ddae8f0d8e2a337d98167c96806fe4f7c16970589da4dabe13ee71fa3dfe3f41b0d3b2a7f26834332bdd3c4fade28bd133fe6949573f2c1a74b599440d680391f0821e95d9110dd1388c17e803c5668b86433b4a29533ad1f8d764db6237c69b7981e5ed0cac63be30eda796542af640dd862ebe8fbbc97bb29e071e7160b93922faf9788ebd35ab94af52706e427d109be283afefc7036cc409c33d36dc088fa4e4b37789979c7e924148a57259b7c2ecff4c96352862d4718f5eca6e8836da20b1406e08dd9c617de2ecca9ed0201357a59634acfdc215235c8e74b3297374a25c5e5af2ab660c1612623b84f141dd0749ecd6824e4be53ea5c62e1e6f17c5f825630f442572cca5348cff854ba2fafa4e4ab4d612052743a4c07f31f93a4cb98eee16b8a2e8053588d17a9a0fae4fc97e4aaaac6c235ef0ecdb2cf9f3608a0e99d4f549231b61ad5d5bda63fd8a5f48dd0aa96c7ec8484e1199898d0ee2eafaf276d8456d4af0eab939e1d709f567e75b5015935577785c57706a2c514c4b17cbedc4b8d477261eadee024b1c9ac6f6acff5ac1c2be21f9566415b39e02d547956210403733eb2925ca3dca4910dbfbe45829e38a6c69af2b0c47aeefb471b2bd70ec41ec7864f5ed0fe5dcf8fa056a360a8feb6c87e7d2eaae88cfa014db8b5b7bec6abade0959b84e9098c80be61dd4d1db793654e02892efc91c11ef299febded125e296d5ef8455a77440950a79248309f5b8d8406051cff005647f2025f36282fed1a54ca1358e5a12859930b566da6df1c288bb424b63df091de3fc5d56bc5282f36f18f9f6b56486a005c63f81e022c27cffa7e459cbfe073e61c1743df5c431f39e60af2e9acd6a4fc625f823005ee1180644fa3e2ee356e432ae264c71384cadea1b33034b524bc1e6d50ab62449083a7447c0485ad55fc13f2433aaf2cc0374ec9a09042fb6842bf97397ee04170e715078f8d0940be68a32c333a45e5626378c1e0210f24a3aaf35bcdbccd335ec108ab384698158503051833e10e40a6f0af3c95f61107f4ea86ab21bbea17fdf1b46e521509e0a19b4e247564a0038618cde8bbe2ac9e533f2b25625b4e4ebf576e7f5634e9c5b1b95d6421195cae474b7cbf736f15583a5c9e6da4566bab9c0e1516f4745a8f1e54def196fc58932b46694e6913527f3eb3b32050d9e7dfb12f29ed6a87e56d926b6b243aabbd9464d09ecb3759d5483ed1ca190cdbcfd084bb54243eace805fa1e530d1df85e56363fa66263274452248847f0bc85282ae85a2c87af00f96085431576494af0750659f64a565dcc9e02787b63b9b9cd29399e9f178cfc5a3faf34288e1bfae854fc17d0273629a525d849a79c7165be8972a30a1002c43b773dd2f10c2cc84ed51b568175e932b16d54553db2a80a7e49afd4262aabbb4dbb97738133b1fc16f4e964dc0c7ecdd6582e3613519924f157ed745f93eee9b42510c0995c03c00bffc294fbaa8a0313626744acbe1b3c103b8f32d7e70bbf3e7dad6230199942877b5381b576f1e09c80cc4401fe37b8ff8bff7bf1c27846dbf28b1e32f17790902378c7c2f274d65f6665df5ca68c11a7373def62b9a8f13876330413e883a408aa74463c622740f6bd8c05911b31d072a3bebd9507f6ebd9aea2a0886bef806528722cb6c539dc459c82cca8963dfaac6061244b82a3deca294e2f3fe9afa7556b8157553aa4bc0167a7966524cb490a8762ff6cd2f5e7a838b9530d4f20b9d212a28fd4f2faaa0118ed7a03030606b70cc23d06f10a6ac442c0ae6916fb498c01089cf8db491a28cf0cf82e32fcc54015d53ea932912601d79df42a8ef30cec7210716b1aa4e2c094b0c40cdfb14596bd57dfc98918b01ea3fba57c1796b562713a166ddc04411e861eeaaaa446ea54b4dc2164fe142af056f28c4b63cbc5bab61ee116d417686dcdf87466dd34aa89c43b041b8b6a6ccae8a74962958249596f892373a413bd0d11e01746a8c6d800e70295be07f6e1e14f3825f4f2eeafa1a65a5e874a3d35388c6af7df6c6aa3d84ef8d7659304fb8a6712353603ef3b31952f8b7eda54f4bd34c243fca10da3cb75b7106e02a55085308795940537eb18d49ee82f53cc4e59012fa8fa8b478c8be2d3d5d63f01c2bef06c0716407c840d80dcca754f619a0d97e41a22672c6249a0d11634f00d38baae92238fb086734c3213f794cf813ffcce552d390f9a1b1c02eeb2c4f2b652154c1e7f3cdacc43258736233a746589fec171fac2fb9806c58e10460450c4c420dea9057972c3bf51bfadcd71ff65638e26c830be696cb47d80f3c5b869e0d66bdab05d4df2f7a298e899aa8ff18213e5ea3dac5fd8f95d3da5d47e350a2eef719537001a44440df865496bd1f7b872c7a6045be49a96cf8bab09e13d99c9690e9f1c596b50e87f1e8846e1e2aa496bd6617e89fe2ded7a5dae1f01f9485907517c443d075e6cad50f888256aa5f815fdf6332c3c50a6f2e8d252fcdfc0f3538805edc9480b93e1ee27047ad34a2f372a6b60ebbf37c051ebb48fb027ded744a82827fe7f0a591b79b30dcb273d9f91f8dea077c433f46fceaa5661f03e05e6c54801aa3f56822c32e2f6655c369adf065cab649497297205fa0294c3b4bc411b641815ca6db0c33b1cb79ff2d29dc65762a70dfbb0797b00abb2d90135b3c37c17137c84d2a77ec0f587e56130396b68426c54af338fa616754a80af9c16611ef55c43b7ac6f86b9eaee22fd3a41e14d26e73a56e5e63eb948bcf97c756e7dd5088a3d4e2373d1cfa83aa1e788ad769ba30229c252e74a9c90865a38f8b1ecd6504158ed996acb2982bf449bed26a6b23fbd9c5409dedb11ae0460cdead8f71648d4f59e77ff10a054e2239e078c8cadba8010878ea77b4227f1774366a5e510e01272e87bdf0285c237d1e4f7c1cebb1d6fe01742e8d4edc928a7d4b0ea20bda8f68abd44db54a9a5a94bc79cb450796d141269eed3482cfd622beb49ca2b6f8a7df158c2b3b4028b0642e785e94fd82d381902f73bde32d73c923b4eebb03039ea96375da0325bf240df62b80de53e9706bb4c59568d82ab2b92542d388f1b3ddf9066295181565df577f0f12a89a898dcc74d0896e9d7eb089cddfc00bc6195279ab40a7c676dea129f98021b2628424550898e93a2abbdd0d8e4e5e62123273c43464d525f70757f92aebcc3d0d1dfe1e6effe07090b182125343f668aa7a8bbcad0e60d31484d5d6466676982a4a7a9cfdbff000000000000001229394901",
        "004a47c7f81cc21537362938fdedfbe5953a3b2252684247d0426a076a7eb7947b50f0a3ada09c6253a4e9b4c4b17cdbb30dae0ae6bf6261f010c9cdd48f7e1808b6cb58f420f3f6d7974b66291843c161134a85172156e73e10b4dcaa950351e0cab9d8dac4b50ceaa4b9cd9c8346ba45c32f5dd2a3830c28f7eb2abbe44a0e3c5149a4056c54e641d64fa6ee2710ebf7d6203c6213cff874f4e9918216b13d03900b263f8a8434517447b6647aeb355866f2c0e0a27065473869ff5a12fe35f10c20832ede85b1e9bfa03b6279a670de27baaee21cb35ec0153a327499ef4dd390b28ed45e375093a685e5ffc5fc98e92618713face42cddfcf242a291b79d6a77dbb0d1b1848c7d4f16ad00783d34d1acc1cfca0ea8d126577e7316c7681b815ce46350fe7d179b48931df8fa92a13fb304d73079828ccd32211e53bcc274a671e287e2fd40550511a4f72df1caeb0c614f2e22e8985ea10ed25dd0853b38d614438e7be1bcf94bdc915c26d0ebc03a422d0cbef5ac86101804b9d1a878985cc0de320d03827148f95c6240175c378bee1344e0ad5ca56492fa8a9b3b3998342d20f6a54c822fba7a4ce902ba226f334abf54c666f0f4e6b7fb9228fe008db97528c67f6fb2fdcc4d13f2ce6dc4b6d9a7af1a11fe740e2545c14e7068297d0bc934142892aea6e789a5b5cfca4e124426c8917e2d93daf270e7e3d5947da16b4974e7665394f633d8e8ee153308657453237b488df62a8119ec7696f67c21ac7cc34f2b29de6f8f9e7a1a922967aa167eea87654d2feae8e46df6db01590e420ed86399b60f61980e692fd8491cc7fb1738e9b65414e5a78fce50518fad2402049c98e5e0ac98e1de652489144055d9ea3f8375e01f0beeef3516c27a780e3aaf1f1a9b24d1a86ed1743c0ad1a4ef2223059824fc5a5ea5fc93a07609770bce60a389c19a28e9bfd4684cf21775fabb4e144740edf496f85ebb9ea65f9a235465046ed0d94dcb98bd55dbd0471d072f74245d928fe5877b74405dde93066754af7dde7dbb2519a1f9629e79f0deead4a0aafa7fd7a07d66bfaf90d0d5b1811489311a01a52175dab33fe89a94817571588a872a228fa2a46650a77543796c0479c6f40fcd8405907f69960146c34e4326f86b044fc4d8130240ee9ee90a6bae94e6cf07209d654482d00a13999fbe2f654fd0a3c9ba1b61ac3f1719570b9de464a27d26bf3ca8c204b2f912639915cba9602e5ee8868113419936e76774b353ef7d674ce0a2b7df07cb171f92d5faea1fe1d20316ece872b3c9526bd9fdc845a13eeb4e0cea9bc6eb26ea4e4c7c9d81068f4da1e634dfb494dfd79b41a5e59511830222f8eb6656a49e56b82e62ce0c363119a24a5d9e686a984d7232266cd4bb0beffdff2c7e60f47231c229cffb392750e354629cb884b514292623e3bb241813bf9b41947f331a0a53838f80abd2dce5722666afc7dd40460e2363bd114a258fb5e695c056a1d727cd9552e19aa10447624900c04a88dcf751bde58b70b20ec5f52e6601b98e204308f98e3ee0c90389baa7c0bfd80f0907a8648b0b5a4ce1a5ed274f1acd21aa32d4b946d1192eac44242b1e733eb4fc2809de9ed60dd05f2b62802062740341bf61fa956d9e446ca96e4d82b98646634040c71dccdfa38a49caa6bcbbf750f1358afbdf2f882410ee3370ab82f8a4791d0af48bb46e37a0c1d1757e032dd7e8b3ffc95e0387767b8df68b12c22401a43e4128cf6553dc13bb635006270f464c6e2ff590c5654bc3c8dd62a30d79c45dc37d5631f523ee5a24a2aafc7cbbb6dde28bbd9ad4e0d0d55cad08482216a7b0f9ba1430c4d6ba"
      ],
      "sequence": 4294967294
    }
  ],
  "vout": [
    {
      "value": 1.0,
      "n": 0,
      "scriptPubKey": {
        "asm": "OP_RETURN b0dd8d05faeae55297557194d55ceb2b724c0eb0cfa401aa7a9055c92c005a02 bf04f142c00d32c8af43c8803efd05a75646dffaa0455f6518adfaacc274f8059f24d162e02d12e88f63e8a01edd25877666ffda80657f45388dda8ce254d825ff44b102804d7288ef0388c07ebd45e716069fbae0051f2558edbaec8234b845df649122a06d52a8cf23a8e05e9d65c73626bf9ac0253f0578cd9acca21498653f8471c2408db2482fc34800be7d8527d6c65f7a20c5dfe5982d7a2c42f478851fa451e260ad92680fe368209e5da507f6e67f5a00e5ffc5b80d5a0c62d458a57fc4318200cdf2086f830840fe3dc56796861f3a60859fa5d86d3a6c02b438c55fe411a220edd2284fa32860de1de547b6a63f1a40a5bf85f84d1a4c229418e5bf04f142c00d32c8af43c8803efd05a75646dffaa0455f6518adfaacc274f8059f24d162e02d12e88f63e8a01edd25877666ffda80657f45388dda8ce254d825ff44b102804d7288ef0388c07ebd45e716069fbae0051f2558edbaec8234b845df649122a06d52a8cf23a8e05e9d65c73626bf9ac0253f0578cd9acca21498653f8471c2408db2482fc34800be7d8527d6c65f7a20c5dfe5982d7a2c42f478851fa451e260ad92680fe368209e5da507f6e67f5a00e5ffc5b80d5a0c62d458a57fc4318200cdf2086f830840fe3dc56796861f3a60859fa5d86d3a6c02b438c55fe411a220edd2284fa32860de1de547b6a63f1a40a5bf85f84d1a4c229418e5bf04f142c00d32c8af43c8803efd05a75646dffaa0455f6518adfaacc274f8059f24d162e02d12e88f63e8a01edd25877666ffda80657f45388dda8ce254d825ff44b102804d7288ef0388c07ebd45e716069fbae0051f2558edbaec8234b845df649122a06d52a8cf23a8e05e9d65c73626bf9ac0253f0578cd9acca21498653f8471c2408db2482fc34800be7d8527d6c65f7a20c5dfe5982d7a2c42f478851fa451e260ad92680fe368209e5da507f6e67f5a00e5ffc5b80d5a0c62d458a57fc4318200cdf2086f830840fe3dc56796861f3a60859fa5d86d3a6c02b438c55fe411a220edd2284fa32860de1de547b6a63f1a40a5bf85f84d1a4c229418e5bf04f142c00d32c8af43c8803efd05a75646dffaa0455f6518adfaacc274f8059f24d162e02d12e88f63e8a01edd25877666ffda80657f45388dda8ce254d825ff44b102804d7288ef0388c07ebd45e716069fbae0051f2558edbaec8234b845df649122a06d52a8cf23a8e05e9d65c73626bf9ac0253f0578cd9acca21498653f8471c2408db2482fc34800be7d8527d6c65f7a20c5dfe5982d7a2c42f478851fa451e260ad92680fe368209e5da507f6e67f5a00e5ffc5b80d5a0c62d458a57fc4318200cdf2086f830840fe3dc56796861f3a60859fa5d86d3a6c02b438c55fe411a220edd2284fa32860de1de547b6a63f1a40a5bf85f84d1a4c229418e5bf04f142c00d32c8af43c8803efd05a75646dffaa0455f6518adfaacc274f8059f24d162e02d12e88f63e8a01edd25877666ffda80657f45388dda8ce254d825ff44b102804d7288ef0388c07ebd45e716069fbae0051f2558edbaec8234b845df649122a06d52a8cf23a8e05e9d65c73626bf9ac0253f0578cd9acca21498653f8471c2408db2482fc34800be7d85278527c1a5d1993dd3c387f7f6107afd2cd0d4ed03f016f66586a1a4e5568f56a3",
        "hex": "6a20b0dd8d05faeae55297557194d55ceb2b724c0eb0cfa401aa7a9055c92c005a024db004bf04f142c00d32c8af43c8803efd05a75646dffaa0455f6518adfaacc274f8059f24d162e02d12e88f63e8a01edd25877666ffda80657f45388dda8ce254d825ff44b102804d7288ef0388c07ebd45e716069fbae0051f2558edbaec8234b845df649122a06d52a8cf23a8e05e9d65c73626bf9ac0253f0578cd9acca21498653f8471c2408db2482fc34800be7d8527d6c65f7a20c5dfe5982d7a2c42f478851fa451e260ad92680fe368209e5da507f6e67f5a00e5ffc5b80d5a0c62d458a57fc4318200cdf2086f830840fe3dc56796861f3a60859fa5d86d3a6c02b438c55fe411a220edd2284fa32860de1de547b6a63f1a40a5bf85f84d1a4c229418e5bf04f142c00d32c8af43c8803efd05a75646dffaa0455f6518adfaacc274f8059f24d162e02d12e88f63e8a01edd25877666ffda80657f45388dda8ce254d825ff44b102804d7288ef0388c07ebd45e716069fbae0051f2558edbaec8234b845df649122a06d52a8cf23a8e05e9d65c73626bf9ac0253f0578cd9acca21498653f8471c2408db2482fc34800be7d8527d6c65f7a20c5dfe5982d7a2c42f478851fa451e260ad92680fe368209e5da507f6e67f5a00e5ffc5b80d5a0c62d458a57fc4318200cdf2086f830840fe3dc56796861f3a60859fa5d86d3a6c02b438c55fe411a220edd2284fa32860de1de547b6a63f1a40a5bf85f84d1a4c229418e5bf04f142c00d32c8af43c8803efd05a75646dffaa0455f6518adfaacc274f8059f24d162e02d12e88f63e8a01edd25877666ffda80657f45388dda8ce254d825ff44b102804d7288ef0388c07ebd45e716069fbae0051f2558edbaec8234b845df649122a06d52a8cf23a8e05e9d65c73626bf9ac0253f0578cd9acca21498653f8471c2408db2482fc34800be7d8527d6c65f7a20c5dfe5982d7a2c42f478851fa451e260ad92680fe368209e5da507f6e67f5a00e5ffc5b80d5a0c62d458a57fc4318200cdf2086f830840fe3dc56796861f3a60859fa5d86d3a6c02b438c55fe411a220edd2284fa32860de1de547b6a63f1a40a5bf85f84d1a4c229418e5bf04f142c00d32c8af43c8803efd05a75646dffaa0455f6518adfaacc274f8059f24d162e02d12e88f63e8a01edd25877666ffda80657f45388dda8ce254d825ff44b102804d7288ef0388c07ebd45e716069fbae0051f2558edbaec8234b845df649122a06d52a8cf23a8e05e9d65c73626bf9ac0253f0578cd9acca21498653f8471c2408db2482fc34800be7d8527d6c65f7a20c5dfe5982d7a2c42f478851fa451e260ad92680fe368209e5da507f6e67f5a00e5ffc5b80d5a0c62d458a57fc4318200cdf2086f830840fe3dc56796861f3a60859fa5d86d3a6c02b438c55fe411a220edd2284fa32860de1de547b6a63f1a40a5bf85f84d1a4c229418e5bf04f142c00d32c8af43c8803efd05a75646dffaa0455f6518adfaacc274f8059f24d162e02d12e88f63e8a01edd25877666ffda80657f45388dda8ce254d825ff44b102804d7288ef0388c07ebd45e716069fbae0051f2558edbaec8234b845df649122a06d52a8cf23a8e05e9d65c73626bf9ac0253f0578cd9acca21498653f8471c2408db2482fc34800be7d85278527c1a5d1993dd3c387f7f6107afd2cd0d4ed03f016f66586a1a4e5568f56a3",
        "type": "nulldata"
      }
    },
    {
      "value": 499986.7803,
      "n": 1,
      "scriptPubKey": {
        "asm": "1 ff5bdd8b91b5985d09ec2f72610a9f522e8ae09c02c0b752b0b4530bd516c693",
        "hex": "5120ff5bdd8b91b5985d09ec2f72610a9f522e8ae09c02c0b752b0b4530bd516c693",
        "reqSigs": 1,
        "type": "witness_v1_scripthash",
        "addresses": [
          "3QJmnh"
        ]
      }
    }
  ],
  "blockhash": "0588000bb82f4b14ca9e4626330a5c84a7bb9e1c31fd2ade5c3732d80cc4fd85",
  "confirmations": 1,
  "time": 1764178356,
  "blocktime": 1764178356
}