{
  "hex": "01000000000101fd11b159ab0dccabb3b59826b3f69028e77cbf356c1bd7c4258462dca4795dd00000000000feffffff0230cbee69792d0000225120ad36019bb9ea343218be5a1d7518067ee7a4a087dd0b8ff555465dcb05279ada00e1f50500000000fdd5046a20c8327eb2ba18d79fe95b3f9ef465f78dc1990da4fd74c6c6d1cc4e37a9710ea94db00456013d0fa0de86a504c7280ad1282e4cd06bd261ff4cbb110afc9ffb693f3cb876211d2f80fea68524e7082af1080e6cf04bf241df6c9b312adcbfdb491f1c9816417d4fe09ec6e54487684a91686e0c902b9221bf0cfb514abcdfbb297f7cf836615d6fc0bee6c564a7486ab1484e2cb00bb2019f2cdb716a9cff9b095f5cd8d681bd8f205e06258447a88a51a8aecc50eb52e17fcc3b918a7c1f7be9bfbc38f6a19daf007e2605a46788aa71888eec70cb72c15fec1bb1aa5c3f5bc99f9c1896c1fdcf601e4665c407e8ca11e8ee8c10ab12a13f8c7bd1ca3c5f3ba9fffc78b6e1ddef403e6645e427c8ea31c8ceac308b32811fac5bf1ea1c7f1b89dfdc5856013d0fa0de86a504c7280ad1282e4cd06bd261ff4cbb110afc9ffb693f3cb876211d2f80fea68524e7082af1080e6cf04bf241df6c9b312adcbfdb491f1c9816417d4fe09ec6e54487684a91686e0c902b9221bf0cfb514abcdfbb297f7cf836615d6fc0bee6c564a7486ab1484e2cb00bb2019f2cdb716a9cff9b095f5cd8d681bd8f205e06258447a88a51a8aecc50eb52e17fcc3b918a7c1f7be9bfbc38f6a19daf007e2605a46788aa71888eec70cb72c15fec1bb1aa5c3f5bc99f9c1896c1fdcf601e4665c407e8ca11e8ee8c10ab12a13f8c7bd1ca3c5f3ba9fffc78b6e1ddef403e6645e427c8ea31c8ceac308b32811fac5bf1ea1c7f1b89dfdc5856013d0fa0de86a504c7280ad1282e4cd06bd261ff4cbb110afc9ffb693f3cb876211d2f80fea68524e7082af1080e6cf04bf241df6c9b312adcbfdb491f1c9816417d4fe09ec6e54487684a91686e0c902b9221bf0cfb514abcdfbb297f7cf836615d6fc0bee6c564a7486ab1484e2cb00bb2019f2cdb716a9cff9b095f5cd8d681bd8f205e06258447a88a51a8aecc50eb52e17fcc3b918a7c1f7be9bfbc38f6a19daf007e2605a46788aa71888eec70cb72c15fec1bb1aa5c3f5bc99f9c1896c1fdcf601e4665c407e8ca11e8ee8c10ab12a13f8c7bd1ca3c5f3ba9fffc78b6e1ddef403e6645e427c8ea31c8ceac308b32811fac5bf1ea1c7f1b89dfdc5856013d0fa0de86a504c7280ad1282e4cd06bd261ff4cbb110afc9ffb693f3cb876211d2f80fea68524e7082af1080e6cf04bf241df6c9b312adcbfdb491f1c9816417d4fe09ec6e54487684a91686e0c902b9221bf0cfb514abcdfbb297f7cf836615d6fc0bee6c564a7486ab1484e2cb00bb2019f2cdb716a9cff9b095f5cd8d681bd8f205e06258447a88a51a8aecc50eb52e17fcc3b918a7c1f7be9bfbc38f6a19daf007e2605a46788aa71888eec70cb72c15fec1bb1aa5c3f5bc99f9c1896c1fdcf601e4665c407e8ca11e8ee8c10ab12a13f8c7bd1ca3c5f3ba9fffc78b6e1ddef403e6645e427c8ea31c8ceac308b32811fac5bf1ea1c7f1b89dfdc5856013d0fa0de86a504c7280ad1282e4cd06bd261ff4cbb110afc9ffb693f3cb876211d2f80fea68524e7082af1080e6cf04bf241df6c9b312adcbfdb491f1c9816417d4fe09ec6e54487684a91686e0c902b9221bf0cfb514abcdfbb297f7cf836615d6fc0bee6c564a7486ab1484e2cb00bb2019f2cdb716a9cff9b095f5cd8d681bd8f205e06258447a88a51a8aeccde55affe1186738378ff1eb296a6230d518372743a0d61e59e930eda0eb55dfa02fd75094bf48f2b27439357049ed2c2ff3f31af5f1f5f9617a91236a750c9768f7e6b74407744bfa71645ef3a93d236b364544fa01a575914e6656a644a8212d15c7bef35f6274322b3aa4e48f3ffdfbdd4e7bb4ca5b7aa71a8bd05f3fd3bb882c2a9f12401be6031ceedc56f1aa4fc702b0af34906cb60ca3b2570eeef3dbfdfb167adaf34ee6678e0d845a7abe4568cc6e5057b15fc805faa0f864259fd101ffaba3e6f124a0e9f8cf5bb8960897a80bb57372f0610a80a88279320e695940a8740441108d677c03e3f59d6bd871b068a418e07d925801b016e69c670f39fd2b267b44ca7947077695d344690105270cebaad3524f973b74956639c5ebf42964951685501bf3cdeaf57892a76c9648ece795519a2870474b81f1eeff7f97d7f23eec2aa1820cc0d03834cb3ed52ddffaf87a80b63bb9cfef5cee75aada2509d5b693259f8444ecc270d7ab8f2a0634ff9c16df431dfa34c4eb893e34ade6ff6b3e0f54756727557cc00090aad3a1bedcb54dd46c36be6b6b81bfba7e4fd30899f41fb008a5cf7e0068f74d593fde2f88cc5353b72cf199e90a8114cfc3a24e0ec209cb6aa8a82f3da210f27a9643cdacf5fe627c6cfb96a275481c50c9ae6299b9f320974f6a13a115b81217569a61c33e31f48e4bb7a974a1e8d2304a0930336fa222f442f7354ce29f7d767e0b8605156aab8a527ea37e17c1f673f30555f2654f90d485098691e49e2c49792e2335c1a2b8e008cdd1f935b247357b919e4693c0ca013c1c4320499a8829cec36ef3ed50fb65404d4db6f29443d8b23abd213f37f9e1198ed2bb5d3e1933f9e4afbdb838aa33855df282e0aec55c5aad1ea7881536890c568e488912e66e9833b48430672cf8869d69fa1b2db48515c27be54091da10d2b3c853f9d0316df49229b33b2d82b37d95f6289d112defb04c360d2958b560e732fe123ea5ed4d33def8865b8b882c87f4fafc158707d25faadbab5b9ed00b64e490c40fd2a000e37910c97894f87db7704c049f5003d9fbdfc894ff91ee1be823cf6b7d3bdf557027b3c5306f0ca651686770d637f4cf24ed07848091386e5a3875a26eb319a5c4aca10fa9855e090b5fe3443cd4795f38171748562b368e127c1694500d751a9ad5ff131922b81829812a9cd02996b184ccc5da038e1907cbb1f736eb3d679969d84d53b0f5be4a9296648c1c57db4a9616431b633f27f8d4cd8ac1f3d546e052112b57a920beff32ce62c031bfcc2f08dcb9950775e701721d6a74340101bed71080ded4dd4d796cf74f8e3a4babb46f45fe029157f055f576dc5a6b24a30007135810fd2e610ebaafdcb5b367a1ccaf3241d09de5360f815994dc2af791556bd9c209095410092be3b5316e2ee1e89d830d3fbc356ca6bdbfb35f3f69da809d796301389685a1cda065377a14cd36d93c7b7a11d6c5954ab60fa27c9cc09b0d21375f90e319926937c2636a3b74fb455f328dae501dfedea140491c0528cbc4d6b7d33e5603f060d747253b3057287e242dccbf86d450b442b3c29697d5a05d159dfa97f50a75ba42b073a0c02aeffaaa1aba0baf6117116e05503cbd73dfc0506eae14da46902f229c334e9ea7997f9fa3412891950dd78d7ba15f202e773318bdb19525b67083eefe69f17d9c33643244f922d8a696de8de9d411efd8407e5ef44f0ab34210316bdf1a5192e88048877f0884efd6fed7a84f0e06772d73d2242f9902f3e4979b72f4c18e6e45ccda5bb808e2099da02d8de677606b28f944216aed28e62e4cd97bf1a160da67d81625e6b41356c11b2fc153959a780f9edbcfad5448e04fe187a4bfb7359a22977f086afdb795b26b51674503171316f8070694f27a4eb59d9c23d8fcdcd5e259ef95b867d3643607a545dd8074837c3806c955f5c791a13c330746ea52a63f301d7ea99d244b22a0d223db299f54f93e436dcc879b4af7f18dd42d2db111396e877ecb79dd4b7618b9ba9fc9b2b56b47c1c3d90a4b507ed528127b1fda89b3858d82bad426717db8ef8a4cc8b22a5587f0d6a21c459e160a688362f9aa3ca68a81b7c11871071acab8dd19efbafb1967d41066ea48b429cdc9f371e8bf051094f91862b0fa983e7162427e718afe6f8ca41fc2df850a397e3c05a137aa26f430368ceef997079c377ede2652a097b51e52f8c664e23489cb135fa0719ddcc599f17dd7e83fffa179feb8d4503b24dd83457500e9de18b1b90e8b48a877f77640320b2ced2a3843bc58c25c7e3b640606f096ad75c8f0dac2a8ecdfed8190f7cff3ef41b73ff78b6a24103d96fa2d95e0bae55cb863b421ab871fe5af8f81ef694d5b701c94562b55f4afa167b177e592fee94043acf207c7ec223f17c7c693244ca43e84f1863269e61a77e2e2f2027ccef23f7cc1320dcedce66f0897a1c25939fcb714b15d185376596748dba1660d11a8b30b2cf34edbb4dbf5722f5caed7c9c14f0748a8a29b22ecced2c34166ac25c6e2cbe68b5934cd731ad80e2708c29734b177d9d34a9767d900b529d02fce0471e654dc8a9586e505eb3503f9ff46c7be65aaf2e679d2077bfd3f386a0ac671413b09dd2526c7b47f2e54df18c1273e50cee099142d3fa8f3a74d6d070054254cf40e127d79dad61be66dd7483a126b2607be52a29f4155e57c8630a497209593f0256fc08446811720204c7ddecb63cfc2fdef4b4150ae45d1a707b9d11788a3ea664c2e862fa9dec8708b38e86d3c412c26c963b7651d6351d7bd5f702d7d8a54f265ca315dde18063756b0e8e1bd886e7b53658c93dfd6a2d8d1b708ab7ef4c21e1fe185587c21114086e1715f3f35c4483c28158c6322ca2c48cf1d7d0a125db3bfb6dce0832902b8e0c91631050691341bd7095ecb8977c457633a5fa8745ba61b3ab27892ee8793efb29e95ac93558fe72a2805d33a28f2eba218f187727a2331a669e0ad1a90fc339e3c200c7c985a941d8c4f098a3af57f21783e101ef7bd8de359221982cce67e9f0692d47c990dc87f2a4e6769d6ac230f397cb2ee6375c79071bf6b4f97f995f29c809ba5f34dfb5cadaeb06e87f301b30d70da2a1bd26ff5b00f56cc8dbbd8a5c29a5dd5a659061b19733cf8bd650d8a8d72cb05900ca7681dba4ad377e73b2028ba4d17450a7c9fe8091fed0fb3ec7ec4baa25ca91f30fbe408a9270e17caca227d9bafaa24cba10a19bbda15f0552b0a619897ffd0e6122c9125a8729989321701d97233bf0d620b4647a6f155ba9661888c945f7ef0969224a28fbb99b64cf55c19ffbfa4f96350d18234453606d889c9daac7d7dae4e8fd000610123e41649faadde2e5effa040b0d2e39829ec4ecff0b1b1f345892989da0b3ee00000000000000000000000000000000000000000000000000000000111f293401fd210500d5469578cc49944d2aadfc39100cac59ec999ac1979937c405586e37718c8034dff0675436a6face661b640dd6939ae2d7cd9e8b36ec615b2d07d33daeb0d39d2b74f91f72ce855871fd3a149aa55ff6b37fe01f1404d393b45914eba7ee2dd09de63798d90c1df12df0eb0f4edbd40dda7f4ee10e353d32fda75d0c171e211ad5ef6399ccf16d6f1145fe6df2927bbbf9be93e8586782054c8504f4d5151eb101d08bfac3dee4acb65d7f2137d99de21703add633b40bd1d9643a66cbd20ac154f78db57d590fd61baf13213e10d1962d9c0b26a24770e5585c8483e4b66cbaf58a99da054e2ec398967a47a4cba2f17b163a22e93ca6754548c3c9c208d54d5a04c622b3f36d1261d137f925b1ff1fb35c0b5f71e6e92b67a1459bd9bd00f743fb66e4d8bc2eff55e67eab2f66f2572e24607472d903e9151e79379b3b1438372e7c9768a60de99d8f10248d150dc0cfc3ccffef5a16fa0503dda32bab8936329c826de7597aa2a89e92bba044d4bcac5b9259a77d92cf5a399ea7d969d75f71c5424382a1b88558aa5a27397eacc2fdef6949c993b5cf7cf55fa3571ac31fa011fe585a1e5fdcad06a73fb35b8d68e8ed1e518c8b1ea61ef0750ad3cca998beb9a161e8fd5d7a12666167d5bf7b3844a503e2c1c30a44a8741e0439456d6246b81ec6037afe2e7661c3071f2a59f5cf254be1aa31ca97a95662aeb9b30756dd11559d9689bd007f7cb7ac5d30a9c92aaa1cf6951b8f72d65013d77a7ffc5ed73167ed06617671d2687cc94f9715ef1c09a63e901a1df210312921de668b1c09144fcc7757a03b8203220b096019bb47a4bba359a20218d955914ba10fba6da64b7364312aa0914b6702651e1f54d018857d9486ab7ce196d46f52fe706a8a09d558f53be52c23fd5bf3ea41e93367485e763cb9f7012e83da721abc0b91c398c830c6bc37ea31dd96d632658c99774203f1a413b62e0a1fdf41b3898cd9aefd34f51aa04c9132d6a50075f44f180f69c2d14c639b938153f0ca27eba9a33f0e2d6e909a7bb4b2ece354c9438f3dda7c24f3ab1c26e42171bb8a96de03278c94dc8caf71497ec6e8ad450ea4eaef848e1394621e5da62218ee0d562604f570610453df2ea36c5c8faa5fd900e904e1cd07b40ae69ee2d55272d41b1fe68d7d099ab51e09c73dbce0a2bbf19aba8aa1330d5db065c0cfe7c40c2c5fd97de81d15b1f68e2b1885d0c1ba2a56b4309e2813ea33d087f8d9dad27c38ff8f17426499aeecca3bd71c9144736ca6e3932302b88760f2733fe4777c76b74664ccfa6159bf8d00e03d4f4f6d6137c55e749c59b75f0498955d5ac3845b2c321da16fc552b4c8316446fb34b848d505ad6c306c7a52bda3e828eb32f4d1d20551b14fd7832166bb93c84cee230218eeae7a6a084196ef7fefda16c5bbe181cabaa37d7a47d29bc1a1833f4d618b7d7414356da3637cd5b9aaee8ba4966d9738dbd2e9f57eee7a328a3b498945e3e26605bbb9380150d4fd3ff5f5fb48cfb55eacd2a793625e1349e1fd6bdcd0b676829b156ec9c1b8fa2868f2ef9740ddb7c60557210b6c0ff020fdcaf6014f2b4758db5cffe7776e61a629e79975b3c9c0c8460c7721d4bef0dda011dae9d41da85a812e6659722f731b80730e2b6ecb60ccd293c2f1ab5ea4dba95777da02095b40354e58719dd3761783071921b68958a99b7bd1c09b27cd339fc9e266cb07c4f557b69775449ee4f86fa49224d98f66431f99d9d3809a760c48eb30a3eaefbe0a26ac06005d28e24847e4f7229cdaa66223b902a9471330f9020d3c241c8ca87977e1a646a38a19d7cd4fe2ba3aa5fc6f27b0771768000000",
  "txid": "0c5af56614276a9fdc0a326a0dad114622d90a600c176f845ca005f8a87ac2a1",
  "hash": "bb818455278bb94f58e50f9f8eb371efac7b68808e58922d6175c876309480d0",
  "size": 5085,
  "vsize": 2278,
  "version": 1,
  "locktime": 104,
  "vin": [
    {
      "txid": "d05d79a4dc628425c4d71b6c35bf7ce72890f6b32698b5b3abcc0dab59b111fd",
      "vout": 0,
      "scriptSig": {
        "asm": "",
        "hex": ""
      },
      "txinwitness": [
        "4bf48f2b27439357049ed2c2ff3f31af5f1f5f9617a91236a750c9768f7e6b74407744bfa71645ef3a93d236b364544fa01a575914e6656a644a8212d15c7bef35f6274322b3aa4e48f3ffdfbdd4e7bb4ca5b7aa71a8bd05f3fd3bb882c2a9f12401be6031ceedc56f1aa4fc702b0af34906cb60ca3b2570eeef3dbfdfb167adaf34ee6678e0d845a7abe4568cc6e5057b15fc805faa0f864259fd101ffaba3e6f124a0e9f8cf5bb8960897a80bb57372f0610a80a88279320e695940a8740441108d677c03e3f59d6bd871b068a418e07d925801b016e69c670f39fd2b267b44ca7947077695d344690105270cebaad3524f973b74956639c5ebf42964951685501bf3cdeaf57892a76c9648ece795519a2870474b81f1eeff7f97d7f23eec2aa1820cc0d03834cb3ed52ddffaf87a80b63bb9cfef5cee75aada2509d5b693259f8444ecc270d7ab8f2a0634ff9c16df431dfa34c4eb893e34ade6ff6b3e0f54756727557cc00090aad3a1bedcb54dd46c36be6b6b81bfba7e4fd30899f41fb008a5cf7e0068f74d593fde2f88cc5353b72cf199e90a8114cfc3a24e0ec209cb6aa8a82f3da210f27a9643cdacf5fe627c6cfb96a275481c50c9ae6299b9f320974f6a13a115b81217569a61c33e31f48e4bb7a974a1e8d2304a0930336fa222f442f7354ce29f7d767e0b8605156aab8a527ea37e17c1f673f30555f2654f90d485098691e49e2c49792e2335c1a2b8e008cdd1f935b247357b919e4693c0ca013c1c4320499a8829cec36ef3ed50fb65404d4db6f29443d8b23abd213f37f9e1198ed2bb5d3e1933f9e4afbdb838aa33855df282e0aec55c5aad1ea7881536890c568e488912e66e9833b48430672cf8869d69fa1b2db48515c27be54091da10d2b3c853f9d0316df49229b33b2d82b37d95f6289d112defb04c360d2958b560e732fe123ea5ed4d33def8865b8b882c87f4fafc158707d25faadbab5b9ed00b64e490c40fd2a000e37910c97894f87db7704c049f5003d9fbdfc894ff91ee1be823cf6b7d3bdf557027b3c5306f0ca651686770d637f4cf24ed07848091386e5a3875a26eb319a5c4aca10fa9855e090b5fe3443cd4795f38171748562b368e127c1694500d751a9ad5ff131922b81829812a9cd02996b184ccc5da038e1907cbb1f736eb3d679969d84d53b0f5be4a9296648c1c57db4a9616431b633f27f8d4cd8ac1f3d546e052112b57a920beff32ce62c031bfcc2f08dcb9950775e701721d6a74340101bed71080ded4dd4d796cf74f8e3a4babb46f45fe029157f055f576dc5a6b24a30007135810fd2e610ebaafdcb5b367a1ccaf3241d09de5360f815994dc2af791556bd9c209095410092be3b5316e2ee1e89d830d3fbc356ca6bdbfb35f3f69da809d796301389685a1cda065377a14cd36d93c7b7a11d6c5954ab60fa27c9cc09b0d21375f90e319926937c2636a3b74fb455f328dae501dfedea140491c0528cbc4d6b7d33e5603f060d747253b3057287e242dccbf86d450b442b3c29697d5a05d159dfa97f50a75ba42b073a0c02aeffaaa1aba0baf6117116e05503cbd73dfc0506eae14da46902f229c334e9ea7997f9fa3412891950dd78d7ba15f202e773318bdb19525b67083eefe69f17d9c33643244f922d8a696de8de9d411efd8407e5ef44f0ab34210316bdf1a5192e88048877f0884efd6fed7a84f0e06772d73d2242f9902f3e4979b72f4c18e6e45ccda5bb808e2099da02d8de677606b28f944216aed28e62e4cd97bf1a160da67d81625e6b41356c11b2fc153959a780f9edbcfad5448e04fe187a4bfb7359a22977f086afdb795b26b51674503171316f8070694f27a4eb59d9c23d8fcdcd5e259ef95b867d3643607a545dd8074837c3806c955f5c791a13c330746ea52a63f301d7ea99d244b22a0d223db299f54f93e436dcc879b4af7f18dd42d2db111396e877ecb79dd4b7618b9ba9fc9b2b56b47c1c3d90a4b507ed528127b1fda89b3858d82bad426717db8ef8a4cc8b22a5587f0d6a21c459e160a688362f9aa3ca68a81b7c11871071acab8dd19efbafb1967d41066ea48b429cdc9f371e8bf051094f91862b0fa983e7162427e718afe6f8ca41fc2df850a397e3c05a137aa26f430368ceef997079c377ede2652a097b51e52f8c664e23489cb135fa0719ddcc599f17dd7e83fffa179feb8d4503b24dd83457500e9de18b1b90e8b48a877f77640320b2ced2a3843bc58c25c7e3b640606f096ad75c8f0dac2a8ecdfed8190f7cff3ef41b73ff78b6a24103d96fa2d95e0bae55cb863b421ab871fe5af8f81ef694d5b701c94562b55f4afa167b177e592fee94043acf207c7ec223f17c7c693244ca43e84f1863269e61a77e2e2f2027ccef23f7cc1320dcedce66f0897a1c25939fcb714b15d185376596748dba1660d11a8b30b2cf34edbb4dbf5722f5caed7c9c14f0748a8a29b22ecced2c34166ac25c6e2cbe68b5934cd731ad80e2708c29734b177d9d34a9767d900b529d02fce0471e654dc8a9586e505eb3503f9ff46c7be65aaf2e679d2077bfd3f386a0ac671413b09dd2526c7b47f2e54df18c1273e50cee099142d3fa8f3a74d6d070054254cf40e127d79dad61be66dd7483a126b2607be52a29f4155e57c8630a497209593f0256fc08446811720204c7ddecb63cfc2fdef4b4150ae45d1a707b9d11788a3ea664c2e862fa9dec8708b38e86d3c412c26c963b7651d6351d7bd5f702d7d8a54f265ca315dde18063756b0e8e1bd886e7b53658c93dfd6a2d8d1b708ab7ef4c21e1fe185587c21114086e1715f3f35c4483c28158c6322ca2c48cf1d7d0a125db3bfb6dce0832902b8e0c91631050691341bd7095ecb8977c457633a5fa8745ba61b3ab27892ee8793efb29e95ac93558fe72a2805d33a28f2eba218f187727a2331a669e0ad1a90fc339e3c200c7c985a941d8c4f098a3af57f21783e101ef7bd8de359221982cce67e9f0692d47c990dc87f2a4e6769d6ac230f397cb2ee6375c79071bf6b4f97f995f29c809ba5f34dfb5cadaeb06e87f301b30d70da2a1bd26ff5b00f56cc8dbbd8a5c29a5dd5a659061b19733cf8bd650d8a8d72cb05900ca7681dba4ad377e73b2028ba4d17450a7c9fe8091fed0fb3ec7ec4baa25ca91f30fbe408a9270e17caca227d9bafaa24cba10a19bbda15f0552b0a619897ffd0e6122c9125a8729989321701d97233bf0d620b4647a6f155ba9661888c945f7ef0969224a28fbb99b64cf55c19ffbfa4f96350d18234453606d889c9daac7d7dae4e8fd000610123e41649faadde2e5effa040b0d2e39829ec4ecff0b1b1f345892989da0b3ee00000000000000000000000000000000000000000000000000000000111f293401",
        "00d5469578cc49944d2aadfc39100cac59ec999ac1979937c405586e37718c8034dff0675436a6face661b640dd6939ae2d7cd9e8b36ec615b2d07d33daeb0d39d2b74f91f72ce855871fd3a149aa55ff6b37fe01f1404d393b45914eba7ee2dd09de63798d90c1df12df0eb0f4edbd40dda7f4ee10e353d32fda75d0c171e211ad5ef6399ccf16d6f1145fe6df2927bbbf9be93e8586782054c8504f4d5151eb101d08bfac3dee4acb65d7f2137d99de21703add633b40bd1d9643a66cbd20ac154f78db57d590fd61baf13213e10d1962d9c0b26a24770e5585c8483e4b66cbaf58a99da054e2ec398967a47a4cba2f17b163a22e93ca6754548c3c9c208d54d5a04c622b3f36d1261d137f925b1ff1fb35c0b5f71e6e92b67a1459bd9bd00f743fb66e4d8bc2eff55e67eab2f66f2572e24607472d903e9151e79379b3b1438372e7c9768a60de99d8f10248d150dc0cfc3ccffef5a16fa0503dda32bab8936329c826de7597aa2a89e92bba044d4bcac5b9259a77d92cf5a399ea7d969d75f71c5424382a1b88558aa5a27397eacc2fdef6949c993b5cf7cf55fa3571ac31fa011fe585a1e5fdcad06a73fb35b8d68e8ed1e518c8b1ea61ef0750ad3cca998beb9a161e8fd5d7a12666167d5bf7b3844a503e2c1c30a44a8741e0439456d6246b81ec6037afe2e7661c3071f2a59f5cf254be1aa31ca97a95662aeb9b30756dd11559d9689bd007f7cb7ac5d30a9c92aaa1cf6951b8f72d65013d77a7ffc5ed73167ed06617671d2687cc94f9715ef1c09a63e901a1df210312921de668b1c09144fcc7757a03b8203220b096019bb47a4bba359a20218d955914ba10fba6da64b7364312aa0914b6702651e1f54d018857d9486ab7ce196d46f52fe706a8a09d558f53be52c23fd5bf3ea41e93367485e763cb9f7012e83da721abc0b91c398c830c6bc37ea31dd96d632658c99774203f1a413b62e0a1fdf41b3898cd9aefd34f51aa04c9132d6a50075f44f180f69c2d14c639b938153f0ca27eba9a33f0e2d6e909a7bb4b2ece354c9438f3dda7c24f3ab1c26e42171bb8a96de03278c94dc8caf71497ec6e8ad450ea4eaef848e1394621e5da62218ee0d562604f570610453df2ea36c5c8faa5fd900e904e1cd07b40ae69ee2d55272d41b1fe68d7d099ab51e09c73dbce0a2bbf19aba8aa1330d5db065c0cfe7c40c2c5fd97de81d15b1f68e2b1885d0c1ba2a56b4309e2813ea33d087f8d9dad27c38ff8f17426499aeecca3bd71c9144736ca6e3932302b88760f2733fe4777c76b74664ccfa6159bf8d00e03d4f4f6d6137c55e749c59b75f0498955d5ac3845b2c321da16fc552b4c8316446fb34b848d505ad6c306c7a52bda3e828eb32f4d1d20551b14fd7832166bb93c84cee230218eeae7a6a084196ef7fefda16c5bbe181cabaa37d7a47d29bc1a1833f4d618b7d7414356da3637cd5b9aaee8ba4966d9738dbd2e9f57eee7a328a3b498945e3e26605bbb9380150d4fd3ff5f5fb48cfb55eacd2a793625e1349e1fd6bdcd0b676829b156ec9c1b8fa2868f2ef9740ddb7c60557210b6c0ff020fdcaf6014f2b4758db5cffe7776e61a629e79975b3c9c0c8460c7721d4bef0dda011dae9d41da85a812e6659722f731b80730e2b6ecb60ccd293c2f1ab5ea4dba95777da02095b40354e58719dd3761783071921b68958a99b7bd1c09b27cd339fc9e266cb07c4f557b69775449ee4f86fa49224d98f66431f99d9d3809a760c48eb30a3eaefbe0a26ac06005d28e24847e4f7229cdaa66223b902a9471330f9020d3c241c8ca87977e1a646a38a19d7cd4fe2ba3aa5fc6f27b07717"
      ],
      "sequence": 4294967294
    }
  ],
  "vout": [
    {
      "value": 499994.9155,
      "n": 0,
      "scriptPubKey": {
        "asm": "1 ad36019bb9ea343218be5a1d7518067ee7a4a087dd0b8ff555465dcb05279ada",
        "hex": "5120ad36019bb9ea343218be5a1d7518067ee7a4a087dd0b8ff555465dcb05279ada",
        "reqSigs": 1,
        "type": "witness_v1_scripthash",
        "addresses": [
          "3QJmnh"
        ]
      }
    },
    {
      "value": 1.0,
      "n": 1,
      "scriptPubKey": {
        "asm": "OP_RETURN c8327eb2ba18d79fe95b3f9ef465f78dc1990da4fd74c6c6d1cc4e37a9710ea9 56013d0fa0de86a504c7280ad1282e4cd06bd261ff4cbb110afc9ffb693f3cb876211d2f80fea68524e7082af1080e6cf04bf241df6c9b312adcbfdb491f1c9816417d4fe09ec6e54487684a91686e0c902b9221bf0cfb514abcdfbb297f7cf836615d6fc0bee6c564a7486ab1484e2cb00bb2019f2cdb716a9cff9b095f5cd8d681bd8f205e06258447a88a51a8aecc50eb52e17fcc3b918a7c1f7be9bfbc38f6a19daf007e2605a46788aa71888eec70cb72c15fec1bb1aa5c3f5bc99f9c1896c1fdcf601e4665c407e8ca11e8ee8c10ab12a13f8c7bd1ca3c5f3ba9fffc78b6e1ddef403e6645e427c8ea31c8ceac308b32811fac5bf1ea1c7f1b89dfdc5856013d0fa0de86a504c7280ad1282e4cd06bd261ff4cbb110afc9ffb693f3cb876211d2f80fea68524e7082af1080e6cf04bf241df6c9b312adcbfdb491f1c9816417d4fe09ec6e54487684a91686e0c902b9221bf0cfb514abcdfbb297f7cf836615d6fc0bee6c564a7486ab1484e2cb00bb2019f2cdb716a9cff9b095f5cd8d681bd8f205e06258447a88a51a8aecc50eb52e17fcc3b918a7c1f7be9bfbc38f6a19daf007e2605a46788aa71888eec70cb72c15fec1bb1aa5c3f5bc99f9c1896c1fdcf601e4665c407e8ca11e8ee8c10ab12a13f8c7bd1ca3c5f3ba9fffc78b6e1ddef403e6645e427c8ea31c8ceac308b32811fac5bf1ea1c7f1b89dfdc5856013d0fa0de86a504c7280ad1282e4cd06bd261ff4cbb110afc9ffb693f3cb876211d2f80fea68524e7082af1080e6cf04bf241df6c9b312adcbfdb491f1c9816417d4fe09ec6e54487684a91686e0c902b9221bf0cfb514abcdfbb297f7cf836615d6fc0bee6c564a7486ab1484e2cb00bb2019f2cdb716a9cff9b095f5cd8d681bd8f205e06258447a88a51a8aecc50eb52e17fcc3b918a7c1f7be9bfbc38f6a19daf007e2605a46788aa71888eec70cb72c15fec1bb1aa5c3f5bc99f9c1896c1fdcf601e4665c407e8ca11e8ee8c10ab12a13f8c7bd1ca3c5f3ba9fffc78b6e1ddef403e6645e427c8ea31c8ceac308b32811fac5bf1ea1c7f1b89dfdc5856013d0fa0de86a504c7280ad1282e4cd06bd261ff4cbb110afc9ffb693f3cb876211d2f80fea68524e7082af1080e6cf04bf241df6c9b312adcbfdb491f1c9816417d4fe09ec6e54487684a91686e0c902b9221bf0cfb514abcdfbb297f7cf836615d6fc0bee6c564a7486ab1484e2cb00bb2019f2cdb716a9cff9b095f5cd8d681bd8f205e06258447a88a51a8aecc50eb52e17fcc3b918a7c1f7be9bfbc38f6a19daf007e2605a46788aa71888eec70cb72c15fec1bb1aa5c3f5bc99f9c1896c1fdcf601e4665c407e8ca11e8ee8c10ab12a13f8c7bd1ca3c5f3ba9fffc78b6e1ddef403e6645e427c8ea31c8ceac308b32811fac5bf1ea1c7f1b89dfdc5856013d0fa0de86a504c7280ad1282e4cd06bd261ff4cbb110afc9ffb693f3cb876211d2f80fea68524e7082af1080e6cf04bf241df6c9b312adcbfdb491f1c9816417d4fe09ec6e54487684a91686e0c902b9221bf0cfb514abcdfbb297f7cf836615d6fc0bee6c564a7486ab1484e2cb00bb2019f2cdb716a9cff9b095f5cd8d681bd8f205e06258447a88a51a8aeccde55affe1186738378ff1eb296a6230d518372743a0d61e59e930eda0eb55dfa",
        "hex": "6a20c8327eb2ba18d79fe95b3f9ef465f78dc1990da4fd74c6c6d1cc4e37a9710ea94db00456013d0fa0de86a504c7280ad1282e4cd06bd261ff4cbb110afc9ffb693f3cb876211d2f80fea68524e7082af1080e6cf04bf241df6c9b312adcbfdb491f1c9816417d4fe09ec6e54487684a91686e0c902b9221bf0cfb514abcdfbb297f7cf836615d6fc0bee6c564a7486ab1484e2cb00bb2019f2cdb716a9cff9b095f5cd8d681bd8f205e06258447a88a51a8aecc50eb52e17fcc3b918a7c1f7be9bfbc38f6a19daf007e2605a46788aa71888eec70cb72c15fec1bb1aa5c3f5bc99f9c1896c1fdcf601e4665c407e8ca11e8ee8c10ab12a13f8c7bd1ca3c5f3ba9fffc78b6e1ddef403e6645e427c8ea31c8ceac308b32811fac5bf1ea1c7f1b89dfdc5856013d0fa0de86a504c7280ad1282e4cd06bd261ff4cbb110afc9ffb693f3cb876211d2f80fea68524e7082af1080e6cf04bf241df6c9b312adcbfdb491f1c9816417d4fe09ec6e54487684a91686e0c902b9221bf0cfb514abcdfbb297f7cf836615d6fc0bee6c564a7486ab1484e2cb00bb2019f2cdb716a9cff9b095f5cd8d681bd8f205e06258447a88a51a8aecc50eb52e17fcc3b918a7c1f7be9bfbc38f6a19daf007e2605a46788aa71888eec70cb72c15fec1bb1aa5c3f5bc99f9c1896c1fdcf601e4665c407e8ca11e8ee8c10ab12a13f8c7bd1ca3c5f3ba9fffc78b6e1ddef403e6645e427c8ea31c8ceac308b32811fac5bf1ea1c7f1b89dfdc5856013d0fa0de86a504c7280ad1282e4cd06bd261ff4cbb110afc9ffb693f3cb876211d2f80fea68524e7082af1080e6cf04bf241df6c9b312adcbfdb491f1c9816417d4fe09ec6e54487684a91686e0c902b9221bf0cfb514abcdfbb297f7cf836615d6fc0bee6c564a7486ab1484e2cb00bb2019f2cdb716a9cff9b095f5cd8d681bd8f205e06258447a88a51a8aecc50eb52e17fcc3b918a7c1f7be9bfbc38f6a19daf007e2605a46788aa71888eec70cb72c15fec1bb1aa5c3f5bc99f9c1896c1fdcf601e4665c407e8ca11e8ee8c10ab12a13f8c7bd1ca3c5f3ba9fffc78b6e1ddef403e6645e427c8ea31c8ceac308b32811fac5bf1ea1c7f1b89dfdc5856013d0fa0de86a504c7280ad1282e4cd06bd261ff4cbb110afc9ffb693f3cb876211d2f80fea68524e7082af1080e6cf04bf241df6c9b312adcbfdb491f1c9816417d4fe09ec6e54487684a91686e0c902b9221bf0cfb514abcdfbb297f7cf836615d6fc0bee6c564a7486ab1484e2cb00bb2019f2cdb716a9cff9b095f5cd8d681bd8f205e06258447a88a51a8aecc50eb52e17fcc3b918a7c1f7be9bfbc38f6a19daf007e2605a46788aa71888eec70cb72c15fec1bb1aa5c3f5bc99f9c1896c1fdcf601e4665c407e8ca11e8ee8c10ab12a13f8c7bd1ca3c5f3ba9fffc78b6e1ddef403e6645e427c8ea31c8ceac308b32811fac5bf1ea1c7f1b89dfdc5856013d0fa0de86a504c7280ad1282e4cd06bd261ff4cbb110afc9ffb693f3cb876211d2f80fea68524e7082af1080e6cf04bf241df6c9b312adcbfdb491f1c9816417d4fe09ec6e54487684a91686e0c902b9221bf0cfb514abcdfbb297f7cf836615d6fc0bee6c564a7486ab1484e2cb00bb2019f2cdb716a9cff9b095f5cd8d681bd8f205e06258447a88a51a8aeccde55affe1186738378ff1eb296a6230d518372743a0d61e59e930eda0eb55dfa",
        "type": "nulldata"
      }
    }
  ],
  "blockhash": "32a2d379a33ec88ae1cb3a8a1a44f2d12b76aebf574ecf7ac16b289397ed6cd9",
  "confirmations": 1,
  "time": 1764176557,
  "blocktime": 1764176557
}