{
  "hex": "01000000000101b08321d66d71c6aecf59ed5a30014567298a6beca7dd5f487809b62fe63296390000000000feffffff0200ce47c6782d000022512090be7de8b2ee8de8facca9c59678c090cdd3e76364eb4909043e687c1676cafa00e1f50500000000fdd5046a20a852b77391b390b9791fe599f89647722c35c6d0700768c8f5392352b07bfbac4db00494b782371793826a11bbc6697462f4f60d8379a047400015313c51360dea502fb497a21737b3a24a319be6495442d4d62da3598067602035111c71162dca700fd4f7c27757d3c22a51fb86293422b4b64dc339e007004055717c11764daa106ff4d7e25777f3e20a71dba609140294966de319c027206075515c31566d8a304f143702b7971302ea913b46e9f4e274768d03f920c7c08095b1bcd1b68d6ad0af34172297b73322cab11b66c9d4c25456ad23d900e7e0a0b5919cf196ad4af08f547742f7d75342aad17b06a9b4a23436cd43b9608780c0d5f1fc91f6cd2a90ef745762d7f773628af15b268994821416ed639940a7a0e0f5d1dcb1d6ed0ab0cf94b782371793826a11bbc6697462f4f60d8379a047400015313c51360dea502fb497a21737b3a24a319be6495442d4d62da3598067602035111c71162dca700fd4f7c27757d3c22a51fb86293422b4b64dc339e007004055717c11764daa106ff4d7e25777f3e20a71dba609140294966de319c027206075515c31566d8a304f143702b7971302ea913b46e9f4e274768d03f920c7c08095b1bcd1b68d6ad0af34172297b73322cab11b66c9d4c25456ad23d900e7e0a0b5919cf196ad4af08f547742f7d75342aad17b06a9b4a23436cd43b9608780c0d5f1fc91f6cd2a90ef745762d7f773628af15b268994821416ed639940a7a0e0f5d1dcb1d6ed0ab0cf94b782371793826a11bbc6697462f4f60d8379a047400015313c51360dea502fb497a21737b3a24a319be6495442d4d62da3598067602035111c71162dca700fd4f7c27757d3c22a51fb86293422b4b64dc339e007004055717c11764daa106ff4d7e25777f3e20a71dba609140294966de319c027206075515c31566d8a304f143702b7971302ea913b46e9f4e274768d03f920c7c08095b1bcd1b68d6ad0af34172297b73322cab11b66c9d4c25456ad23d900e7e0a0b5919cf196ad4af08f547742f7d75342aad17b06a9b4a23436cd43b9608780c0d5f1fc91f6cd2a90ef745762d7f773628af15b268994821416ed639940a7a0e0f5d1dcb1d6ed0ab0cf94b782371793826a11bbc6697462f4f60d8379a047400015313c51360dea502fb497a21737b3a24a319be6495442d4d62da3598067602035111c71162dca700fd4f7c27757d3c22a51fb86293422b4b64dc339e007004055717c11764daa106ff4d7e25777f3e20a71dba609140294966de319c027206075515c31566d8a304f143702b7971302ea913b46e9f4e274768d03f920c7c08095b1bcd1b68d6ad0af34172297b73322cab11b66c9d4c25456ad23d900e7e0a0b5919cf196ad4af08f547742f7d75342aad17b06a9b4a23436cd43b9608780c0d5f1fc91f6cd2a90ef745762d7f773628af15b268994821416ed639940a7a0e0f5d1dcb1d6ed0ab0cf94b782371793826a11bbc6697462f4f60d8379a047400015313c51360dea502fb497a21737b3a24a319be6495442d4d62da3598067602035111c71162dca700fd4f7c27757d3c22a51fb86293422b4b64dc339e007004055717c11764daa106ff4d7e25777f3e20a71dba609140294966de319c027206075515c31566d8a304f143702b7971302ea913b46e9f4e27476bea2ebc855dc890d293b95f0be0a0a047274e3d2c7027f8ead28f2283a2de30d02fd7509942d44a00dd3e19de86b63bfb0bd56c87afe8f122bd765771e0113958477ecd9b861e6f0c7bf30b1a2b7e533857b6a65bc57cd9819ac9d23a12c75921ea3176985c6266a31fbbaa6f6349d0ad560ff9fef7661a3e75268fbc2049c06796b1f7e8a97000b88986f1d9e6577abf2d9b4c3c7a8a6a13cfe685d753f49b92cb9c0a5e910ed9cfcde5a877b3a89cd70a30e3723705d1fe8366dcb595ad4ff283a8d8788ffdc3b6faaf709b7c6b765f3871baad474196dcd8be1ea0ff511849e2557672d9c1bff8bf5ffe55669dd0751561f7a948e30b3b1299f2588cb4f0e4110bd302e4f5245a0cc2a4156288bd3d703286ceba6dc367dab406069e1cd1afeefa74fede113bdae5f68352195ff5c38cf9ff86c83ebd979cad8996af030bc0a7d8a148090eecb33c757df3a8c2f64b6b5ecb62d72dafdd73ea5052d69e4e2c78f941a0f1db934e14c699adae4aa93d206733079ec50902b4376fd0ffce3a1e24fc2217cb03e8794e99cb740c22afdb1a50b35840bbc6a722992174905bb99a6e778dae3a365863ce851d1bdc0dd755d8cbeac546cb1d9575f068724d643ecf15f5e0bfc4bb1d7a79509e487a13c2b7e543241c7e07c4269a7a3b25cf70500db33aeb638612756d85cd44ca1169b7736b63f76be16925a9ec967478f12b89d9be01907a6dc03a50858d214421632165cae8fadb8ee6448c03271d691cba21094629a19bfb73f2e9056d0522b5fee8351bb21b907c0607cf6b68b56b068b368c1a8c97b765f39ebf8e9f3922fa515f900ed4d52fafb323c3d67b33990769ce42236462b6ece239fd69aa68e5546bc793d4b36222717c3db7eaa5de3ea1a6627ef5808b4bfc1b4337e3f4b31cd81de42f22e21b24be60c30567465d0d5d6811ec1f3288f194431c77a4a6416a8e6ed5e0a0358a7c8ce0803f35258316ddfd13932138aa3685c7b8cc824d06ce499e6c51c3c3af03f05c39de88a22587102825285767dd132317833c1a44716cc14dce91dbc0b8c37ea60d2003b897d90b0f1e856470aa95d32d1a0d0fa2f0ecafb28d043319c0a9f1f44b4d68f8564d1fc785a7ac2d3f62d00a1ee79a9b3b9e6f94a3048d799c9615bbda1b93703e61d0de68a56e628ee87d0084e2b3dff7904604a918e8a4e93257047da8e617f652805d74a4e851d51233235eb44a29153fc0b6576bdf3deccab81ea380409417269c8f400826035cc7ef49a664ab602d60e2676c3c19c857c37f73393a7029363bf86d490dc3649e2267a14a3ccb5e782fb14c3f6a8952549f970c4a00bfdead0bb90e8b7bdff79dbc9738187d2f58e5f35a532d988d6cdb0b7ce9d9b9097a1a10590fbf210b37c3cf0635573bd3aa989e44852a1efd116215d82ab16dc995669f0a62aab803d01b5da4f5151758ec36cc2c386aa70325f6bb4cda94dcb4feeb6b53277044ee867f4a5530dab36636c32bcd7dbe72d0a87df6630c3b9044ac3df4b349cac6f1ec091a0318fefd65f21515e03b964749f70249de8ea539c7be15dfbc9bf5dd749270355782ef1d159e674dd4ab3dbacd29f000224aae0f0f56cfafce4048d64e7f54e8c5dc8ed8330b2d8e023a792e88d1147c4b710343396d12592412661e23342debc757a8f263ce2511aa2020a7d0768e25470261bd09803d96d0516f55b372de2caac8ce55f58792041aa1c83c79f73640555279bcc74423d53c12a5abd4a8415756a79f2a9559d3176a301ca95c652b119201c1abb6d53bd5e8f6ef44fe94503ff5d14475a0c5e7318bb753c1378c0271deee4c09b1089cc35b80149bf9f1150e1a6645c21fbdbe175dd5651c2281fbe57dd71f3c6aeebe0d40ae38cd584f3201fb1cada22a39123f1aff91c9c65b65db792229fdc0c44a81c367eca4ab7f9f596526cee408403ec61e30a0e106f20eef3bc78170d54fa51c08da204ce854009429ab862053fcaf83e9b57bf60526bfa124bf89394e5ceab0615f5a53b822eb7014817618b72624770a83bb700f7cc822ef4937b747290408fca0df834007a839f60f86a79056e6711d5f9748e9d7854cd742dec7220bd4f8f3a3fa1ac9bd056d54e68d2347cbfb9ac0ce8816f4f49857a97f29e6947f47fa4929fb25363a7133eee833c0d72a1b7971c883d58364bc68158d638c0f4b5bd40000b907110ddd82f095cee4f3d0c89a05b2b700fa7ba0816342043cdf51fd2f3b643a130aebab51d8a8c65f70b55d24771e97190bd734f42f2e6540f1333d54fb2ba228b43137768d3b7f2ba6c46ba9d990bb4e2f85f9f9d58da59e9e1dba35fcb0a3295f95b61b077cd40c5cfb84475bb456887e7346b4ffd9d71d59debf356fbdce720e3942c7c1b7545f97f759a48bc0d00d38f251bfe968d3f7d6bac99026a3390f1296a07d6dfbc3b58c946d85b9fc1035b41122a8107843bed944dc4b538aca853be8c22f5231df74b87aa3b8c880e8bf77ece1bba0e0421e116463c1b2f00184cac87dc844ede56eec6600909e899386081de8f4a259c052c4d9418aa9bc9c89d069fd16f5a93fc6b1cf8d741d4fe3b1b743b27c534f1069dde923de9293c32d15ce515eb06d8f0d906462c9d49013b9ac270778200376a441eafe42b2378e5faccb3cb7da21778731b2636b90678370218ce343f93086e4099c08931410082f7b94eebaecc91b13a8067b44672a0a975cf5a9725f8c2ef1a28febfc9a9537809bb3122ce4526cc70d9860a91932d8624eb828e6170e24189d698be95359a4408ed5bfca10892a84b167e369cb3f19f55f6ce971424c618ade8025062dbbd6bbb0a5fc6cbf63a3de91cc377bd6308e3faf94d98e4d4d2ef3eadab191f00f3fdcb89821c026aeac1dbd6a4241b62fcef3e219082142aaaf05ff2ce6843172cd2604fa14349228da68ef046527f622205b48cf375616d9e342035cb86152e3edbbb404a626f799e86109191ce266273c020b18ace0d8de77798f4d1d1b25c5d04208d47c66645c9f2a0ba30b8e9d2aa18087851278def40863c85ffca09259a4059f3876dca6df38f794c623cdcb72d7c0f463d3feb0f74f0c245952c23bfa61e3fc93829fb5c15e33e28f65be66fb4430fc30445a1840ae17586080eb58943bdf11c1aba3a729e664bc924204772960f94709833b264d88e56f831ead93e4d9bd4029afbc0fdc78ee25928c17caad6fd5f21fb2a419503ceb477fc07ee2c0e091308d9bc30f48cf011fd95e31aabc7d851729d4ad33fc6611a27b2b29186c692ff0a2c7dce10af69cafa9569f79844476d6c952dad77a2cd282a1fe25120dfef9b203526070a13193336374f57586176a6adb9c7dc1719333c5060687d8294bec2e0eeff182629354046494b6478b1babdd1ecedee02080e13193e4662757c95ccd7d800000000000000000000000000000000001120313f01fd2105006f5603dd1830986acc9db90c7bc973989239633d9f392c8e2ded59b84adb6ed2b2715dbf3ee9d956600934875a30d366bc83e6e6015938fa19b7647b0d1cb8d77975268a4f9261495a3396734f0200f3c7add6615ab38467c1d745363d2ce1cf249d2b369f6dba2ea4d8b8af28cf57a66c0f04ede152045265d108542b4bf1b4a0808d7e55b234b580eefac524f788665d2e8b24a9da2d0c4426b0a07b71237db07a2b3c4689f6cea566ed1b660ff51a0fdac8b5d18d745c151bdc55f692264540e935e104515b6b84e1875d969b1e51f9aaa232034e5131607b9cfd8f567009afc8c1a3d9eb95bbce408a40995c174bff350d5a29039116e57a2af2b606a1e947a8549b5b8c8b9252be6686cd09644785eec071c2748d3b20a12fd8f66ce55b746b2abae8511c3fb311714df0372161e8d53340f9c741f9a1b9b322ef184bd89d40dd7542a00e995a58482f3506c1455d14d34f40755da7fd4c996bf4e073297a4e02b9be96624dafab24a09922c89d9162a25074154aef7118db2699717d61d97337b58bd91289b70def2b5e5cf9ffa37e5972595bb651ce727857dd6feec6bf7e7ed4fa2093a66280313b4a3442b12611edc2435ddcb1dd1cdf418c0fcb7a8c9514f4d903594ed1c261f858a81849a0fce688b7bb6b912dc0ee97cbc2ed00af035937f141d94945231af36b75968cad804af99091a0cb6767308d1880bec3d8bb88373c54277353b9b121d932d613d5cea78872af424125834d19458f9838e20dd095b346425882ad038e6a54818ef33da21d51a38ff8ec4290f9818a2fd1ab0af1db476ec86364177fd995334f5ffbbd7ff29aaa029bb5cf16597a226c3add7385a166dd2bbc681ef0c1b71c74181f20e8ac9ec997a4222780f748a414ea6ea0c96b8812805b6ca5fa2506e48c82048419d4f82e762d27877b53a401c4d4d996f1dd760dd82f002a01b55f552bb03d069132f1d6e5584b63a10df4b02087d183832316ba7d7f60cde8edee334907fc91c121796c3b287328ba54cf0d2dc3d6d6a08e18342aa0748a8d94fceaf75745444211c978684356a722f983a53162b41a68b90f26db96a625b26e590d530662082826ec6d4e0058af70a15103fd3d5e6da8121c501a7697b575b2ececbb07818161ead0f63afe39a110bc7d4060e4b5e64a4ad9022332a14231cd683f3505706a9a64a9eae5fff38cb0417e3041954d47b99b5a04c46af8511b70e7aac45f14938739ba4c8373793c19c0558918293f3e4ef64f43859724d61271f0d38d8bce720fe5fa69c0a5646c6c7fcee92ef85612e33ab3d568cef82fe8f801b9607165135074a1ef2fbff720c4a0c3b1f056f3dc6cafcf4141f7afc5ce65b5a74bb12193342c3a6534cdb5f73ea5ba89992ab64f7542f1bf20148e55eb79b1904757f45055b7c59104382515df22e5de6510ecf128f0a36556b423e449e34fe1daf47a9d5d3ccac9cc62ca9d40d2ae4039242dda6161334616878cc98aec26dbf658e664abd201b2bc062c2c980cf0074469da21702a9cc938bd91afab127117be5d1758b88ed3743045d5b043cd8a1aa590f982cf457b0e3cd73f2083134486647401847a48fc2e24daf22b884d41884718438997b80ba2bff24b928d24121723f4d482b3bfec34bd41b04e2753bb2cfec8525515cff4e4d41a0915d3cf2d1dd0220d1a2505f3b2e68fb49aeb481d7985700e91bef5f3c54ec2b360c13cc23b596c7f61f0e01dee9d36514df581d71b2925276920a331bfc711f57553c051c1566dcd08ea2f069451abc23fa54b12928034a9e0e21cbe01e785cecf36d47ddd73a894c68e108be701a611e1e1617e7568b782000000",
  "txid": "05df2b19606ecc8635c6a80a8bf175d184482b6d81d1f8c4eec89f273aecb9ab",
  "hash": "b0b6b464d58c1dc02857d7d1e010481f81f0c2f5951106cb3072b11e5448075e",
  "size": 5085,
  "vsize": 2278,
  "version": 1,
  "locktime": 130,
  "vin": [
    {
      "txid": "399632e62fb60978485fdda7ec6b8a29674501305aed59cfaec6716dd62183b0",
      "vout": 0,
      "scriptSig": {
        "asm": "",
        "hex": ""
      },
      "txinwitness": [
        "942d44a00dd3e19de86b63bfb0bd56c87afe8f122bd765771e0113958477ecd9b861e6f0c7bf30b1a2b7e533857b6a65bc57cd9819ac9d23a12c75921ea3176985c6266a31fbbaa6f6349d0ad560ff9fef7661a3e75268fbc2049c06796b1f7e8a97000b88986f1d9e6577abf2d9b4c3c7a8a6a13cfe685d753f49b92cb9c0a5e910ed9cfcde5a877b3a89cd70a30e3723705d1fe8366dcb595ad4ff283a8d8788ffdc3b6faaf709b7c6b765f3871baad474196dcd8be1ea0ff511849e2557672d9c1bff8bf5ffe55669dd0751561f7a948e30b3b1299f2588cb4f0e4110bd302e4f5245a0cc2a4156288bd3d703286ceba6dc367dab406069e1cd1afeefa74fede113bdae5f68352195ff5c38cf9ff86c83ebd979cad8996af030bc0a7d8a148090eecb33c757df3a8c2f64b6b5ecb62d72dafdd73ea5052d69e4e2c78f941a0f1db934e14c699adae4aa93d206733079ec50902b4376fd0ffce3a1e24fc2217cb03e8794e99cb740c22afdb1a50b35840bbc6a722992174905bb99a6e778dae3a365863ce851d1bdc0dd755d8cbeac546cb1d9575f068724d643ecf15f5e0bfc4bb1d7a79509e487a13c2b7e543241c7e07c4269a7a3b25cf70500db33aeb638612756d85cd44ca1169b7736b63f76be16925a9ec967478f12b89d9be01907a6dc03a50858d214421632165cae8fadb8ee6448c03271d691cba21094629a19bfb73f2e9056d0522b5fee8351bb21b907c0607cf6b68b56b068b368c1a8c97b765f39ebf8e9f3922fa515f900ed4d52fafb323c3d67b33990769ce42236462b6ece239fd69aa68e5546bc793d4b36222717c3db7eaa5de3ea1a6627ef5808b4bfc1b4337e3f4b31cd81de42f22e21b24be60c30567465d0d5d6811ec1f3288f194431c77a4a6416a8e6ed5e0a0358a7c8ce0803f35258316ddfd13932138aa3685c7b8cc824d06ce499e6c51c3c3af03f05c39de88a22587102825285767dd132317833c1a44716cc14dce91dbc0b8c37ea60d2003b897d90b0f1e856470aa95d32d1a0d0fa2f0ecafb28d043319c0a9f1f44b4d68f8564d1fc785a7ac2d3f62d00a1ee79a9b3b9e6f94a3048d799c9615bbda1b93703e61d0de68a56e628ee87d0084e2b3dff7904604a918e8a4e93257047da8e617f652805d74a4e851d51233235eb44a29153fc0b6576bdf3deccab81ea380409417269c8f400826035cc7ef49a664ab602d60e2676c3c19c857c37f73393a7029363bf86d490dc3649e2267a14a3ccb5e782fb14c3f6a8952549f970c4a00bfdead0bb90e8b7bdff79dbc9738187d2f58e5f35a532d988d6cdb0b7ce9d9b9097a1a10590fbf210b37c3cf0635573bd3aa989e44852a1efd116215d82ab16dc995669f0a62aab803d01b5da4f5151758ec36cc2c386aa70325f6bb4cda94dcb4feeb6b53277044ee867f4a5530dab36636c32bcd7dbe72d0a87df6630c3b9044ac3df4b349cac6f1ec091a0318fefd65f21515e03b964749f70249de8ea539c7be15dfbc9bf5dd749270355782ef1d159e674dd4ab3dbacd29f000224aae0f0f56cfafce4048d64e7f54e8c5dc8ed8330b2d8e023a792e88d1147c4b710343396d12592412661e23342debc757a8f263ce2511aa2020a7d0768e25470261bd09803d96d0516f55b372de2caac8ce55f58792041aa1c83c79f73640555279bcc74423d53c12a5abd4a8415756a79f2a9559d3176a301ca95c652b119201c1abb6d53bd5e8f6ef44fe94503ff5d14475a0c5e7318bb753c1378c0271deee4c09b1089cc35b80149bf9f1150e1a6645c21fbdbe175dd5651c2281fbe57dd71f3c6aeebe0d40ae38cd584f3201fb1cada22a39123f1aff91c9c65b65db792229fdc0c44a81c367eca4ab7f9f596526cee408403ec61e30a0e106f20eef3bc78170d54fa51c08da204ce854009429ab862053fcaf83e9b57bf60526bfa124bf89394e5ceab0615f5a53b822eb7014817618b72624770a83bb700f7cc822ef4937b747290408fca0df834007a839f60f86a79056e6711d5f9748e9d7854cd742dec7220bd4f8f3a3fa1ac9bd056d54e68d2347cbfb9ac0ce8816f4f49857a97f29e6947f47fa4929fb25363a7133eee833c0d72a1b7971c883d58364bc68158d638c0f4b5bd40000b907110ddd82f095cee4f3d0c89a05b2b700fa7ba0816342043cdf51fd2f3b643a130aebab51d8a8c65f70b55d24771e97190bd734f42f2e6540f1333d54fb2ba228b43137768d3b7f2ba6c46ba9d990bb4e2f85f9f9d58da59e9e1dba35fcb0a3295f95b61b077cd40c5cfb84475bb456887e7346b4ffd9d71d59debf356fbdce720e3942c7c1b7545f97f759a48bc0d00d38f251bfe968d3f7d6bac99026a3390f1296a07d6dfbc3b58c946d85b9fc1035b41122a8107843bed944dc4b538aca853be8c22f5231df74b87aa3b8c880e8bf77ece1bba0e0421e116463c1b2f00184cac87dc844ede56eec6600909e899386081de8f4a259c052c4d9418aa9bc9c89d069fd16f5a93fc6b1cf8d741d4fe3b1b743b27c534f1069dde923de9293c32d15ce515eb06d8f0d906462c9d49013b9ac270778200376a441eafe42b2378e5faccb3cb7da21778731b2636b90678370218ce343f93086e4099c08931410082f7b94eebaecc91b13a8067b44672a0a975cf5a9725f8c2ef1a28febfc9a9537809bb3122ce4526cc70d9860a91932d8624eb828e6170e24189d698be95359a4408ed5bfca10892a84b167e369cb3f19f55f6ce971424c618ade8025062dbbd6bbb0a5fc6cbf63a3de91cc377bd6308e3faf94d98e4d4d2ef3eadab191f00f3fdcb89821c026aeac1dbd6a4241b62fcef3e219082142aaaf05ff2ce6843172cd2604fa14349228da68ef046527f622205b48cf375616d9e342035cb86152e3edbbb404a626f799e86109191ce266273c020b18ace0d8de77798f4d1d1b25c5d04208d47c66645c9f2a0ba30b8e9d2aa18087851278def40863c85ffca09259a4059f3876dca6df38f794c623cdcb72d7c0f463d3feb0f74f0c245952c23bfa61e3fc93829fb5c15e33e28f65be66fb4430fc30445a1840ae17586080eb58943bdf11c1aba3a729e664bc924204772960f94709833b264d88e56f831ead93e4d9bd4029afbc0fdc78ee25928c17caad6fd5f21fb2a419503ceb477fc07ee2c0e091308d9bc30f48cf011fd95e31aabc7d851729d4ad33fc6611a27b2b29186c692ff0a2c7dce10af69cafa9569f79844476d6c952dad77a2cd282a1fe25120dfef9b203526070a13193336374f57586176a6adb9c7dc1719333c5060687d8294bec2e0eeff182629354046494b6478b1babdd1ecedee02080e13193e4662757c95ccd7d800000000000000000000000000000000001120313f01",
        "006f5603dd1830986acc9db90c7bc973989239633d9f392c8e2ded59b84adb6ed2b2715dbf3ee9d956600934875a30d366bc83e6e6015938fa19b7647b0d1cb8d77975268a4f9261495a3396734f0200f3c7add6615ab38467c1d745363d2ce1cf249d2b369f6dba2ea4d8b8af28cf57a66c0f04ede152045265d108542b4bf1b4a0808d7e55b234b580eefac524f788665d2e8b24a9da2d0c4426b0a07b71237db07a2b3c4689f6cea566ed1b660ff51a0fdac8b5d18d745c151bdc55f692264540e935e104515b6b84e1875d969b1e51f9aaa232034e5131607b9cfd8f567009afc8c1a3d9eb95bbce408a40995c174bff350d5a29039116e57a2af2b606a1e947a8549b5b8c8b9252be6686cd09644785eec071c2748d3b20a12fd8f66ce55b746b2abae8511c3fb311714df0372161e8d53340f9c741f9a1b9b322ef184bd89d40dd7542a00e995a58482f3506c1455d14d34f40755da7fd4c996bf4e073297a4e02b9be96624dafab24a09922c89d9162a25074154aef7118db2699717d61d97337b58bd91289b70def2b5e5cf9ffa37e5972595bb651ce727857dd6feec6bf7e7ed4fa2093a66280313b4a3442b12611edc2435ddcb1dd1cdf418c0fcb7a8c9514f4d903594ed1c261f858a81849a0fce688b7bb6b912dc0ee97cbc2ed00af035937f141d94945231af36b75968cad804af99091a0cb6767308d1880bec3d8bb88373c54277353b9b121d932d613d5cea78872af424125834d19458f9838e20dd095b346425882ad038e6a54818ef33da21d51a38ff8ec4290f9818a2fd1ab0af1db476ec86364177fd995334f5ffbbd7ff29aaa029bb5cf16597a226c3add7385a166dd2bbc681ef0c1b71c74181f20e8ac9ec997a4222780f748a414ea6ea0c96b8812805b6ca5fa2506e48c82048419d4f82e762d27877b53a401c4d4d996f1dd760dd82f002a01b55f552bb03d069132f1d6e5584b63a10df4b02087d183832316ba7d7f60cde8edee334907fc91c121796c3b287328ba54cf0d2dc3d6d6a08e18342aa0748a8d94fceaf75745444211c978684356a722f983a53162b41a68b90f26db96a625b26e590d530662082826ec6d4e0058af70a15103fd3d5e6da8121c501a7697b575b2ececbb07818161ead0f63afe39a110bc7d4060e4b5e64a4ad9022332a14231cd683f3505706a9a64a9eae5fff38cb0417e3041954d47b99b5a04c46af8511b70e7aac45f14938739ba4c8373793c19c0558918293f3e4ef64f43859724d61271f0d38d8bce720fe5fa69c0a5646c6c7fcee92ef85612e33ab3d568cef82fe8f801b9607165135074a1ef2fbff720c4a0c3b1f056f3dc6cafcf4141f7afc5ce65b5a74bb12193342c3a6534cdb5f73ea5ba89992ab64f7542f1bf20148e55eb79b1904757f45055b7c59104382515df22e5de6510ecf128f0a36556b423e449e34fe1daf47a9d5d3ccac9cc62ca9d40d2ae4039242dda6161334616878cc98aec26dbf658e664abd201b2bc062c2c980cf0074469da21702a9cc938bd91afab127117be5d1758b88ed3743045d5b043cd8a1aa590f982cf457b0e3cd73f2083134486647401847a48fc2e24daf22b884d41884718438997b80ba2bff24b928d24121723f4d482b3bfec34bd41b04e2753bb2cfec8525515cff4e4d41a0915d3cf2d1dd0220d1a2505f3b2e68fb49aeb481d7985700e91bef5f3c54ec2b360c13cc23b596c7f61f0e01dee9d36514df581d71b2925276920a331bfc711f57553c051c1566dcd08ea2f069451abc23fa54b12928034a9e0e21cbe01e785cecf36d47ddd73a894c68e108be701a611e1e1617e7568b7"
      ],
      "sequence": 4294967294
    }
  ],
  "vout": [
    {
      "value": 499967.4592,
      "n": 0,
      "scriptPubKey": {
        "asm": "1 90be7de8b2ee8de8facca9c59678c090cdd3e76364eb4909043e687c1676cafa",
        "hex": "512090be7de8b2ee8de8facca9c59678c090cdd3e76364eb4909043e687c1676cafa",
        "reqSigs": 1,
        "type": "witness_v1_scripthash",
        "addresses": [
          "3QJmnh"
        ]
      }
    },
    {
      "value": 1.0,
      "n": 1,
      "scriptPubKey": {
        "asm": "OP_RETURN a852b77391b390b9791fe599f89647722c35c6d0700768c8f5392352b07bfbac 94b782371793826a11bbc6697462f4f60d8379a047400015313c51360dea502fb497a21737b3a24a319be6495442d4d62da3598067602035111c71162dca700fd4f7c27757d3c22a51fb86293422b4b64dc339e007004055717c11764daa106ff4d7e25777f3e20a71dba609140294966de319c027206075515c31566d8a304f143702b7971302ea913b46e9f4e274768d03f920c7c08095b1bcd1b68d6ad0af34172297b73322cab11b66c9d4c25456ad23d900e7e0a0b5919cf196ad4af08f547742f7d75342aad17b06a9b4a23436cd43b9608780c0d5f1fc91f6cd2a90ef745762d7f773628af15b268994821416ed639940a7a0e0f5d1dcb1d6ed0ab0cf94b782371793826a11bbc6697462f4f60d8379a047400015313c51360dea502fb497a21737b3a24a319be6495442d4d62da3598067602035111c71162dca700fd4f7c27757d3c22a51fb86293422b4b64dc339e007004055717c11764daa106ff4d7e25777f3e20a71dba609140294966de319c027206075515c31566d8a304f143702b7971302ea913b46e9f4e274768d03f920c7c08095b1bcd1b68d6ad0af34172297b73322cab11b66c9d4c25456ad23d900e7e0a0b5919cf196ad4af08f547742f7d75342aad17b06a9b4a23436cd43b9608780c0d5f1fc91f6cd2a90ef745762d7f773628af15b268994821416ed639940a7a0e0f5d1dcb1d6ed0ab0cf94b782371793826a11bbc6697462f4f60d8379a047400015313c51360dea502fb497a21737b3a24a319be6495442d4d62da3598067602035111c71162dca700fd4f7c27757d3c22a51fb86293422b4b64dc339e007004055717c11764daa106ff4d7e25777f3e20a71dba609140294966de319c027206075515c31566d8a304f143702b7971302ea913b46e9f4e274768d03f920c7c08095b1bcd1b68d6ad0af34172297b73322cab11b66c9d4c25456ad23d900e7e0a0b5919cf196ad4af08f547742f7d75342aad17b06a9b4a23436cd43b9608780c0d5f1fc91f6cd2a90ef745762d7f773628af15b268994821416ed639940a7a0e0f5d1dcb1d6ed0ab0cf94b782371793826a11bbc6697462f4f60d8379a047400015313c51360dea502fb497a21737b3a24a319be6495442d4d62da3598067602035111c71162dca700fd4f7c27757d3c22a51fb86293422b4b64dc339e007004055717c11764daa106ff4d7e25777f3e20a71dba609140294966de319c027206075515c31566d8a304f143702b7971302ea913b46e9f4e274768d03f920c7c08095b1bcd1b68d6ad0af34172297b73322cab11b66c9d4c25456ad23d900e7e0a0b5919cf196ad4af08f547742f7d75342aad17b06a9b4a23436cd43b9608780c0d5f1fc91f6cd2a90ef745762d7f773628af15b268994821416ed639940a7a0e0f5d1dcb1d6ed0ab0cf94b782371793826a11bbc6697462f4f60d8379a047400015313c51360dea502fb497a21737b3a24a319be6495442d4d62da3598067602035111c71162dca700fd4f7c27757d3c22a51fb86293422b4b64dc339e007004055717c11764daa106ff4d7e25777f3e20a71dba609140294966de319c027206075515c31566d8a304f143702b7971302ea913b46e9f4e27476bea2ebc855dc890d293b95f0be0a0a047274e3d2c7027f8ead28f2283a2de30d",
        "hex": "6a20a852b77391b390b9791fe599f89647722c35c6d0700768c8f5392352b07bfbac4db00494b782371793826a11bbc6697462f4f60d8379a047400015313c51360dea502fb497a21737b3a24a319be6495442d4d62da3598067602035111c71162dca700fd4f7c27757d3c22a51fb86293422b4b64dc339e007004055717c11764daa106ff4d7e25777f3e20a71dba609140294966de319c027206075515c31566d8a304f143702b7971302ea913b46e9f4e274768d03f920c7c08095b1bcd1b68d6ad0af34172297b73322cab11b66c9d4c25456ad23d900e7e0a0b5919cf196ad4af08f547742f7d75342aad17b06a9b4a23436cd43b9608780c0d5f1fc91f6cd2a90ef745762d7f773628af15b268994821416ed639940a7a0e0f5d1dcb1d6ed0ab0cf94b782371793826a11bbc6697462f4f60d8379a047400015313c51360dea502fb497a21737b3a24a319be6495442d4d62da3598067602035111c71162dca700fd4f7c27757d3c22a51fb86293422b4b64dc339e007004055717c11764daa106ff4d7e25777f3e20a71dba609140294966de319c027206075515c31566d8a304f143702b7971302ea913b46e9f4e274768d03f920c7c08095b1bcd1b68d6ad0af34172297b73322cab11b66c9d4c25456ad23d900e7e0a0b5919cf196ad4af08f547742f7d75342aad17b06a9b4a23436cd43b9608780c0d5f1fc91f6cd2a90ef745762d7f773628af15b268994821416ed639940a7a0e0f5d1dcb1d6ed0ab0cf94b782371793826a11bbc6697462f4f60d8379a047400015313c51360dea502fb497a21737b3a24a319be6495442d4d62da3598067602035111c71162dca700fd4f7c27757d3c22a51fb86293422b4b64dc339e007004055717c11764daa106ff4d7e25777f3e20a71dba609140294966de319c027206075515c31566d8a304f143702b7971302ea913b46e9f4e274768d03f920c7c08095b1bcd1b68d6ad0af34172297b73322cab11b66c9d4c25456ad23d900e7e0a0b5919cf196ad4af08f547742f7d75342aad17b06a9b4a23436cd43b9608780c0d5f1fc91f6cd2a90ef745762d7f773628af15b268994821416ed639940a7a0e0f5d1dcb1d6ed0ab0cf94b782371793826a11bbc6697462f4f60d8379a047400015313c51360dea502fb497a21737b3a24a319be6495442d4d62da3598067602035111c71162dca700fd4f7c27757d3c22a51fb86293422b4b64dc339e007004055717c11764daa106ff4d7e25777f3e20a71dba609140294966de319c027206075515c31566d8a304f143702b7971302ea913b46e9f4e274768d03f920c7c08095b1bcd1b68d6ad0af34172297b73322cab11b66c9d4c25456ad23d900e7e0a0b5919cf196ad4af08f547742f7d75342aad17b06a9b4a23436cd43b9608780c0d5f1fc91f6cd2a90ef745762d7f773628af15b268994821416ed639940a7a0e0f5d1dcb1d6ed0ab0cf94b782371793826a11bbc6697462f4f60d8379a047400015313c51360dea502fb497a21737b3a24a319be6495442d4d62da3598067602035111c71162dca700fd4f7c27757d3c22a51fb86293422b4b64dc339e007004055717c11764daa106ff4d7e25777f3e20a71dba609140294966de319c027206075515c31566d8a304f143702b7971302ea913b46e9f4e27476bea2ebc855dc890d293b95f0be0a0a047274e3d2c7027f8ead28f2283a2de30d",
        "type": "nulldata"
      }
    }
  ],
  "blockhash": "a9a7ce638639648c5b111e15e0d4489535a11a846f6b50fba3b7e2925471654c",
  "confirmations": 1,
  "time": 1764182153,
  "blocktime": 1764182153
}