{
  "hex": "010000000001013be04a1ea22e8094aa16589892431bf21877b600a8c54c1547193c143450fbd30000000000feffffff0200e1f50500000000fdd5046a20a03998441c590246b712432e424338a4c2d247573d3c269029015189be97cd084db004c4542f1afa980b194217ab0c9689ca1b93171ab29a15d18151565a1ee5c388d7e4740f3adab82b3962378b2cb6a9ea3bb3373a92ba35f1a171767a3ec5e3a8f784146f5abad84b590257eb4cd6c98a5bd3575af2da5591c111161a5ea583c897a4344f7a9af86b792277cb6cf6e9aa7bf3777ad2fa75b1e131363a7e85a3e8b744d4af9a7a188b99c2972b8c16094a9b13979a321a955101d1d6da9e6543085764f48fba5a38abb9e2b70bac36296abb33b7ba123ab57121f1f6fabe456328770494efda3a58cbd982d76bcc56490adb53d7da725ad5114191969ade2503481724b4cffa1a78ebf9a2f74bec76692afb73f7fa527af53161b1b6bafe05236837c4542f1afa980b194217ab0c9689ca1b93171ab29a15d18151565a1ee5c388d7e4740f3adab82b3962378b2cb6a9ea3bb3373a92ba35f1a171767a3ec5e3a8f784146f5abad84b590257eb4cd6c98a5bd3575af2da5591c111161a5ea583c897a4344f7a9af86b792277cb6cf6e9aa7bf3777ad2fa75b1e131363a7e85a3e8b744d4af9a7a188b99c2972b8c16094a9b13979a321a955101d1d6da9e6543085764f48fba5a38abb9e2b70bac36296abb33b7ba123ab57121f1f6fabe456328770494efda3a58cbd982d76bcc56490adb53d7da725ad5114191969ade2503481724b4cffa1a78ebf9a2f74bec76692afb73f7fa527af53161b1b6bafe05236837c4542f1afa980b194217ab0c9689ca1b93171ab29a15d18151565a1ee5c388d7e4740f3adab82b3962378b2cb6a9ea3bb3373a92ba35f1a171767a3ec5e3a8f784146f5abad84b590257eb4cd6c98a5bd3575af2da5591c111161a5ea583c897a4344f7a9af86b792277cb6cf6e9aa7bf3777ad2fa75b1e131363a7e85a3e8b744d4af9a7a188b99c2972b8c16094a9b13979a321a955101d1d6da9e6543085764f48fba5a38abb9e2b70bac36296abb33b7ba123ab57121f1f6fabe456328770494efda3a58cbd982d76bcc56490adb53d7da725ad5114191969ade2503481724b4cffa1a78ebf9a2f74bec76692afb73f7fa527af53161b1b6bafe05236837c4542f1afa980b194217ab0c9689ca1b93171ab29a15d18151565a1ee5c388d7e4740f3adab82b3962378b2cb6a9ea3bb3373a92ba35f1a171767a3ec5e3a8f784146f5abad84b590257eb4cd6c98a5bd3575af2da5591c111161a5ea583c897a4344f7a9af86b792277cb6cf6e9aa7bf3777ad2fa75b1e131363a7e85a3e8b744d4af9a7a188b99c2972b8c16094a9b13979a321a955101d1d6da9e6543085764f48fba5a38abb9e2b70bac36296abb33b7ba123ab57121f1f6fabe456328770494efda3a58cbd982d76bcc56490adb53d7da725ad5114191969ade2503481724b4cffa1a78ebf9a2f74bec76692afb73f7fa527af53161b1b6bafe05236837c4542f1afa980b194217ab0c9689ca1b93171ab29a15d18151565a1ee5c388d7e4740f3adab82b3962378b2cb6a9ea3bb3373a92ba35f1a171767a3ec5e3a8f784146f5abad84b590257eb4cd6c98a5bd3575af2da5591c111161a5ea583c897a4344f7a9af86b792277cb6cf6e9aa7bf3777ad2fa75b1e131363a7e85a3e8b744d4af9a7a188b99c2972b8c16094a9bdba5cc8853b3ccaa0dffde90b8a896aee82529aeea414a8b035aa49ba170001bc02309ae782d00002251204efe1dba8499e5c1c63b336085643baded22ebe8b19f661eb8767b8424af738802fd7509e2253b86aeb3896dca8e7ff984d5eac15fbb3011a9638c794900483d3dac6345b4e57c6395686948ff1241b2550e4491653e65f1d2f6441019e4935298e45c64909f6b68c24a5a44b536b8a072f978f2bc3ad941df72598c6d89ef71bb13b647a2a9fac97bce0d647ed1818e885656124e3340d8ee56b368fa12aa7ec16e23a74a3e360cf0be729742c75aaa4402f5d7c2ee099d595cd98205b5b18172e4b22735db38c1256a11f2590b4bd3c06daefb3a0f01cf8313414ea1c1341bd9ab42deb1e4cecd1f85bd85582c23d2e9fbebc4ff1ab9f52be2b0f9d90e644e58dec81f28fa9f618fb1f0cdff42d34b7f6d393dc2efa0db2e2d20fc084177a3bb24c1b0387d9e44bb812c185f90f18c3adc553b066f68ab74e8ef9ac61f9ba66998a2de1aa7ff920d650ad342e2e776e3e5719f12681c53b74400bda71af0967971d13c0bab36f57203204fb276f6f5951a75a427e35f5bb083ec847bbd5a65a6efed98425da76dbaf59a8fb3e3996bbfa3464271af7bcfaa107c2c6c13e7cec2c8b5707b1d98120f791fab803fe03f4a6398defc643ff24af32b5d5c4cdfa421c28dde916af6d0b92177aa0168e5db506456853eca418e167db337bd143a81674a6be6248d3d5274ecbc4245168de3fc1925f336a6dd59124971222cbf0c98f827c72bae3307a4a9318f680c7e4dbc46ef60b61612cda5da0bb6d49c1bcee15524c1c853175747a4a8f20dc7f3540e7d70def6a5f7e60ed019bd6e17e29b7b5fb41c8d9ea8310319581e322b373046aad0f090967d41ebf7be30d0c79c2dc537d5302a9249c04ffaa8827403705adf87c0dcf910cb1ac1feec4c5fafcadcb8e4944f0d76275106907b043483bb66b104e44bf43ce24373e397bbebd68343d7602fc863db637cb5010c97651f7fd3a63b87cf37ffec9e8006def66d9a2ee378f4b45529591a0488037b10c6d567857645ab94e8657e332f55d17293abc6f7e9644f2753920049b627171c97e9a2d04c34e400ba2a50a89fc548d90544e2540da2ae6d0e5761f3ef45af755aad5749191ee28bf6d8e9cf10e0f51a5c80251288c87d703b67390418e2dd91952e16a246641ddf296c08e908361a10b4f891ab92b7fd5c3aee7da292987b2c0c48621a3cc696c4c05618071fc6ececf9e9e966203c8b05b097c2f962fcf5a305e7f3e906498e138882b54890ede7546a6b81f73ccce7ffa400b41446522911561cb76224fe7ebd6c65b707ab82fd0b862f80cec787e95b96b769ddaaefd746c10a687f69da8a95ad34c6e11e4b7bc530a1412c7dcf0c34924324b2ce286c7c39a3d177b0adce5d96dc21e1e69ffc766708e2e8a6a59fcf98e24b7655148c210d0f1adc8a8fdd4619dd993ad3cfb710b87d8fb700b29beeee7a7a1b8f2291836860b654b0a0696b4d046e1b7b0c3a10d9dc1052a489438a22a18ab57b5b312913098ce9d06a63fa7fc7669d1a91b91da11898b4654d987a0de733add812bff76526085c85bb3ce702e3947b6147a042d0348d1f85db421d5edf8d06904bd64acd543d3255a07e9fb4d918245c7602a94a4cf23eccb66703052e2ba493e4375f706813ba504501fec178e7a41e297f6b6af18da1f0013dcf616e056ec50019418639ac355f55bee57b108c480290416487898059ecb28ebff5fb62cfb423c3c00cf75acccc8b3711bd2be1c1c8edc3fe6fc056b52313635a6768f90bd6e248d9ae9434c5e766402f459c49b84ad1ca8e2dcc47b9e891a196c1a499cd353bffb8e96199572f22751de60b507486e1a1389fa6456bb41a373a46601246a70c6e9dbc2c6785ae49f88f97b4a17980da351c63e9b976f550a8d023e1c536868863836c34c718e3d170e0140f6ccd8450f137d2ad1130aef19c7b391b812a66563a374afa5bbd8157b0202e37fb7f6eba21603fbd536443775c7e343c15804aef7e98fbbede05c32ea7255140a45f25ebece8b5dac5999d65e66ea2a67ad66b5ee0aad8cdc14296b813169713704008209dda8efb9850f8cd9b3ed1653fb841ba3188b0a2ccd8e2394782427da9b2a70cb8b1231ccbd62acfc53177c30c1d981daaaf814eaa8d7ae3a6a2f086beb84530d5878096cd75a76b48c11dad604e0b7fe68def4fd0a01d6452e7e8b474abce09be6bdfa47dcea09e634cdb86907b7b7865be15996c869bd949e8d172b1fb8ad448a35a5d1465da92dd82c72bf0d21ce2416b882ee21f0e2929393f72c9f60174bb1f698e3d3690778e35527453e4e6a0b36c4e80d315ddd16acb05928ada73d15b5ccfcc1bd31d04436289015aec25ba3915e790100abcdc3b3ff8bcfd120a0d476257d34dda75c51780a1ff16df0c94bd1f97c4858320e847c06de3ee1a9859b1da6da8dba10b58c6a97590fd3c8c1f1030044f825f0a3280e72bfb5790c9bb38958a4c612977673811b326cdff27cfab7b2ebb384e100fb50231ac57ee0a73e60276a87b831b87247d5a5acbb290df5fbdc0e9084a612ea29c7aa77beb3f8eaa32685592e74e462d5908f764baf88dccc44e8025b6bb3578dff5aeb563c87c0eac34876fbbdd1b01fdcd10e7c3280ef2d02222e312786ab4e8380e08edc89bef99530e1a93bcdb0ae90d1eb0d3e8ba62a32dcad44f007c38090424dab1a21549b085b269cd3914db808082d59da6ad34b0901c4a69c6be0f6a43ade9f4c3c837508e59f5fa25b23dcb84548657466ae5085f5e2f344e96c914c32331b701628bd77b78853eeef949520a7461427496cceb224aa20ac0d0b331507176116fec66fa34f43fc8d1113832b5a2a0fd8e6652fd3633960fcb0de35c638ed15879c5f9e2ad7fc9014f89d92ccecb6ba9a43c56d9b972440ca3a4f50cb21a2cfdaef9123dd6d4727164af8d0d91852fb3ea90b0bf75a245d24391b971f1e81112faaeb6afb220120f9b67c573bd7fe67a192815dc866fd7288f6e6ecbe369dc3e98da5de5e6c4d35a33f340eb36de0c19f91ab47bd8e468e2639fdd2e3e4759216d2d5d07c8bd372b333cdeddca78ee6c48a1423e7d698cd3f783a133fe2a95a1ce305c1b1498e5bfbe68f46b804d4762b877b10080563ace40af424bef7f4b9e7f0fa2249f561d1c2c3b690ba478f69c532d0a291c2326c6cde203c21ed4a1f7f98e260adfaffa458605970aded30179ac8490e9789b01327d48b6d62462bcac84fea42c1f738d894f138db674853154ac5c83e583adfed936048c7f21a5fff96fb86872c25cb48b1fb1027cee5907e405f76fcefec853e24ce93062e563bb8a35e21f58f4eead267f8027acbb20293c3f535a62647073a6b0b4cad1def40c0e1c1d393b464a57628098c5caeaef000a101824393c3e42484f687aa2a5acaecfdde5f9fb2430363b5f61648f90a0a2b8cae4e9fa0000000000000000001121374701fd210500fdfc93993a2bdae0b93cd65cd34c953dc8cd89445ab481badc1daf56901b8e603cb48a276f218be490eccf802638d8067db9b74935ed4c7a6f921d939d57beebde0db6f9ba5d1985c3ac2fcafe8ddd27dc6122f10b807c6a96b169035f56ff4fe831e7d38f7b9439e24a968526e97618431aed0c2dd19d922c8bcc445e219d5a3e8b7e5e6c55fa8d2bd1133f4e0e766187429b638a8de93e9f3812f5fc2b6b6ce56643c17b112f45a09d93b64fc34620f6921c82caf5a09ec3f1a5dafb8757214fa7230e690cad1b5956b28817866d35f79bd08244819287dad1d1eb856d3e66525d1a9c94bbee70053c0ed04542ea21fb7849336d2e8638a66992951b8dfb470b549d5534934a382abfea3afcd00dfcbe281dbb9cdc6add17f7f65be78be66de9fde7eaf9beac349b2f48c89eb052c5c1ae3c5f2e5fc3c56a128be17b5883529efcd1789fcb9672618741fae5723d993cbdb5570e9696472a2d86813b0530380a4a10d0a175eeb351307bcce603bfa95e564786e9e70597b866a981a815c6df6e96e95797613526fa7ca12b2c59dedab0cd66fa2c7651a976e284e6dd7fa7581711638345fd0fff8f8e92eda508b31fa60531f2599c68c5492b9dd61e7c9dc2459f032eae72d34c83c6f4fa58b5ae0c50d7be6336223103718e84756642f4a30c92680df3dfe9e5b44eb0b6367bf35b670b56d2ef0b5070f8f7191b87e567f146f3bc752f8e63d7814a57e4290a91931648c3cdfdbb8fee16002ea0c039fb016bafaadb6bf5236abf68424327bcf6ea76ac13633ba6557d5fae8a744073baec29e0c4bdeabbebafddad3c0a7acdb4f773bd87c1c2a42e822b348ca1b2fdab60125103196b1cdceb91d287565be7e9800b8d97ea7e7750dc3510521152038a375d6d381e945cbdbb58231043632929c5cff92631d5f19a2c21ef930a5230ebcf0a5fd023abd844dbb7e50dbfc1ce055bbec2e12841b340c35d8e0549ca8fa06960a8f34651175c95e77f00da2f537f7c2a56664fc0431b62a7a4e0af678849c2251eee77b47ead1839e5521ef9537176ad389b572cefa23c16074efa764471e7632485319a3bec2ff9b6294abfc60731272f4948d7039da3ad88f3e2e2fa476aafc2303c4d5be7e39047a50a15e5138e2cd330db436f483d35a8e698ed8ebdbcb80c196691b104e46bccc893af92811263ff48c78e568143bc9b993ebd59b4108804a70d2954536851b218147453cf89dc4da96f903a9e507150736b73f483dde68db9ec10688963a968d40b1ce8f72ddbfe8ba2001ebf335d6ea6140e54035a28c24f9d13038919723ddeb98eaf7c1c3ac8cb80cfcb741213eaf651c5a194c4de27e6ec059dd8a8a94dd261e40ba9a44bda2d20b49813322730b5f92fd9a6b7f284e9976ddfc3bc345910cc3527baa2fd257921a29a5e3ffa2e9b642938d0dbd38edcbe036ce03d9900cf7a84c8b3a4eed5016b8afc7396c90919426118c6eeed2c05117323a4c76ef9866c728192a0ba88a2f2749905074659666240cf12d02f05504387f264d60c3c6743e51c0f2807f7761d77c97a468e687c4fcb7d0db47e7b8fde747034630e2b56e86d49175509763bcf8d9d9e8125dc45af41cff56c56074e42d772c72a74d78dba1b3729d6dc08223072d2c27c2c125c5da5133fc6b07e3c43a8045d1411c9916d4d1e8ea80d02c1176b23f0026f8e99d0eaf992f387b3b027e7fb5130c97ee8b03a38dffb53c3ca2342ab4361d5ff671609be9fd1fc13012c3d651c96d0c89b94e35e30fb03d30c65097a24dfdd4424a0308a1dfb0b71274421a6045c95f0e84d72895b60637c1e2c6fe0b06d7931be77a9f262ea85000000",
  "txid": "0ffd489d1a1643b0056b60eab6a5826a2979f034dee45613dd110fcb65b794a7",
  "hash": "fa74190e6293136b2392c71bc0a03e253f8e8f8ea678d7954772418678eea3fc",
  "size": 5085,
  "vsize": 2278,
  "version": 1,
  "locktime": 133,
  "vin": [
    {
      "txid": "d3fb5034143c1947154cc5a800b67718f21b4392985816aa94802ea21e4ae03b",
      "vout": 0,
      "scriptSig": {
        "asm": "",
        "hex": ""
      },
      "txinwitness": [
        "e2253b86aeb3896dca8e7ff984d5eac15fbb3011a9638c794900483d3dac6345b4e57c6395686948ff1241b2550e4491653e65f1d2f6441019e4935298e45c64909f6b68c24a5a44b536b8a072f978f2bc3ad941df72598c6d89ef71bb13b647a2a9fac97bce0d647ed1818e885656124e3340d8ee56b368fa12aa7ec16e23a74a3e360cf0be729742c75aaa4402f5d7c2ee099d595cd98205b5b18172e4b22735db38c1256a11f2590b4bd3c06daefb3a0f01cf8313414ea1c1341bd9ab42deb1e4cecd1f85bd85582c23d2e9fbebc4ff1ab9f52be2b0f9d90e644e58dec81f28fa9f618fb1f0cdff42d34b7f6d393dc2efa0db2e2d20fc084177a3bb24c1b0387d9e44bb812c185f90f18c3adc553b066f68ab74e8ef9ac61f9ba66998a2de1aa7ff920d650ad342e2e776e3e5719f12681c53b74400bda71af0967971d13c0bab36f57203204fb276f6f5951a75a427e35f5bb083ec847bbd5a65a6efed98425da76dbaf59a8fb3e3996bbfa3464271af7bcfaa107c2c6c13e7cec2c8b5707b1d98120f791fab803fe03f4a6398defc643ff24af32b5d5c4cdfa421c28dde916af6d0b92177aa0168e5db506456853eca418e167db337bd143a81674a6be6248d3d5274ecbc4245168de3fc1925f336a6dd59124971222cbf0c98f827c72bae3307a4a9318f680c7e4dbc46ef60b61612cda5da0bb6d49c1bcee15524c1c853175747a4a8f20dc7f3540e7d70def6a5f7e60ed019bd6e17e29b7b5fb41c8d9ea8310319581e322b373046aad0f090967d41ebf7be30d0c79c2dc537d5302a9249c04ffaa8827403705adf87c0dcf910cb1ac1feec4c5fafcadcb8e4944f0d76275106907b043483bb66b104e44bf43ce24373e397bbebd68343d7602fc863db637cb5010c97651f7fd3a63b87cf37ffec9e8006def66d9a2ee378f4b45529591a0488037b10c6d567857645ab94e8657e332f55d17293abc6f7e9644f2753920049b627171c97e9a2d04c34e400ba2a50a89fc548d90544e2540da2ae6d0e5761f3ef45af755aad5749191ee28bf6d8e9cf10e0f51a5c80251288c87d703b67390418e2dd91952e16a246641ddf296c08e908361a10b4f891ab92b7fd5c3aee7da292987b2c0c48621a3cc696c4c05618071fc6ececf9e9e966203c8b05b097c2f962fcf5a305e7f3e906498e138882b54890ede7546a6b81f73ccce7ffa400b41446522911561cb76224fe7ebd6c65b707ab82fd0b862f80cec787e95b96b769ddaaefd746c10a687f69da8a95ad34c6e11e4b7bc530a1412c7dcf0c34924324b2ce286c7c39a3d177b0adce5d96dc21e1e69ffc766708e2e8a6a59fcf98e24b7655148c210d0f1adc8a8fdd4619dd993ad3cfb710b87d8fb700b29beeee7a7a1b8f2291836860b654b0a0696b4d046e1b7b0c3a10d9dc1052a489438a22a18ab57b5b312913098ce9d06a63fa7fc7669d1a91b91da11898b4654d987a0de733add812bff76526085c85bb3ce702e3947b6147a042d0348d1f85db421d5edf8d06904bd64acd543d3255a07e9fb4d918245c7602a94a4cf23eccb66703052e2ba493e4375f706813ba504501fec178e7a41e297f6b6af18da1f0013dcf616e056ec50019418639ac355f55bee57b108c480290416487898059ecb28ebff5fb62cfb423c3c00cf75acccc8b3711bd2be1c1c8edc3fe6fc056b52313635a6768f90bd6e248d9ae9434c5e766402f459c49b84ad1ca8e2dcc47b9e891a196c1a499cd353bffb8e96199572f22751de60b507486e1a1389fa6456bb41a373a46601246a70c6e9dbc2c6785ae49f88f97b4a17980da351c63e9b976f550a8d023e1c536868863836c34c718e3d170e0140f6ccd8450f137d2ad1130aef19c7b391b812a66563a374afa5bbd8157b0202e37fb7f6eba21603fbd536443775c7e343c15804aef7e98fbbede05c32ea7255140a45f25ebece8b5dac5999d65e66ea2a67ad66b5ee0aad8cdc14296b813169713704008209dda8efb9850f8cd9b3ed1653fb841ba3188b0a2ccd8e2394782427da9b2a70cb8b1231ccbd62acfc53177c30c1d981daaaf814eaa8d7ae3a6a2f086beb84530d5878096cd75a76b48c11dad604e0b7fe68def4fd0a01d6452e7e8b474abce09be6bdfa47dcea09e634cdb86907b7b7865be15996c869bd949e8d172b1fb8ad448a35a5d1465da92dd82c72bf0d21ce2416b882ee21f0e2929393f72c9f60174bb1f698e3d3690778e35527453e4e6a0b36c4e80d315ddd16acb05928ada73d15b5ccfcc1bd31d04436289015aec25ba3915e790100abcdc3b3ff8bcfd120a0d476257d34dda75c51780a1ff16df0c94bd1f97c4858320e847c06de3ee1a9859b1da6da8dba10b58c6a97590fd3c8c1f1030044f825f0a3280e72bfb5790c9bb38958a4c612977673811b326cdff27cfab7b2ebb384e100fb50231ac57ee0a73e60276a87b831b87247d5a5acbb290df5fbdc0e9084a612ea29c7aa77beb3f8eaa32685592e74e462d5908f764baf88dccc44e8025b6bb3578dff5aeb563c87c0eac34876fbbdd1b01fdcd10e7c3280ef2d02222e312786ab4e8380e08edc89bef99530e1a93bcdb0ae90d1eb0d3e8ba62a32dcad44f007c38090424dab1a21549b085b269cd3914db808082d59da6ad34b0901c4a69c6be0f6a43ade9f4c3c837508e59f5fa25b23dcb84548657466ae5085f5e2f344e96c914c32331b701628bd77b78853eeef949520a7461427496cceb224aa20ac0d0b331507176116fec66fa34f43fc8d1113832b5a2a0fd8e6652fd3633960fcb0de35c638ed15879c5f9e2ad7fc9014f89d92ccecb6ba9a43c56d9b972440ca3a4f50cb21a2cfdaef9123dd6d4727164af8d0d91852fb3ea90b0bf75a245d24391b971f1e81112faaeb6afb220120f9b67c573bd7fe67a192815dc866fd7288f6e6ecbe369dc3e98da5de5e6c4d35a33f340eb36de0c19f91ab47bd8e468e2639fdd2e3e4759216d2d5d07c8bd372b333cdeddca78ee6c48a1423e7d698cd3f783a133fe2a95a1ce305c1b1498e5bfbe68f46b804d4762b877b10080563ace40af424bef7f4b9e7f0fa2249f561d1c2c3b690ba478f69c532d0a291c2326c6cde203c21ed4a1f7f98e260adfaffa458605970aded30179ac8490e9789b01327d48b6d62462bcac84fea42c1f738d894f138db674853154ac5c83e583adfed936048c7f21a5fff96fb86872c25cb48b1fb1027cee5907e405f76fcefec853e24ce93062e563bb8a35e21f58f4eead267f8027acbb20293c3f535a62647073a6b0b4cad1def40c0e1c1d393b464a57628098c5caeaef000a101824393c3e42484f687aa2a5acaecfdde5f9fb2430363b5f61648f90a0a2b8cae4e9fa0000000000000000001121374701",
        "00fdfc93993a2bdae0b93cd65cd34c953dc8cd89445ab481badc1daf56901b8e603cb48a276f218be490eccf802638d8067db9b74935ed4c7a6f921d939d57beebde0db6f9ba5d1985c3ac2fcafe8ddd27dc6122f10b807c6a96b169035f56ff4fe831e7d38f7b9439e24a968526e97618431aed0c2dd19d922c8bcc445e219d5a3e8b7e5e6c55fa8d2bd1133f4e0e766187429b638a8de93e9f3812f5fc2b6b6ce56643c17b112f45a09d93b64fc34620f6921c82caf5a09ec3f1a5dafb8757214fa7230e690cad1b5956b28817866d35f79bd08244819287dad1d1eb856d3e66525d1a9c94bbee70053c0ed04542ea21fb7849336d2e8638a66992951b8dfb470b549d5534934a382abfea3afcd00dfcbe281dbb9cdc6add17f7f65be78be66de9fde7eaf9beac349b2f48c89eb052c5c1ae3c5f2e5fc3c56a128be17b5883529efcd1789fcb9672618741fae5723d993cbdb5570e9696472a2d86813b0530380a4a10d0a175eeb351307bcce603bfa95e564786e9e70597b866a981a815c6df6e96e95797613526fa7ca12b2c59dedab0cd66fa2c7651a976e284e6dd7fa7581711638345fd0fff8f8e92eda508b31fa60531f2599c68c5492b9dd61e7c9dc2459f032eae72d34c83c6f4fa58b5ae0c50d7be6336223103718e84756642f4a30c92680df3dfe9e5b44eb0b6367bf35b670b56d2ef0b5070f8f7191b87e567f146f3bc752f8e63d7814a57e4290a91931648c3cdfdbb8fee16002ea0c039fb016bafaadb6bf5236abf68424327bcf6ea76ac13633ba6557d5fae8a744073baec29e0c4bdeabbebafddad3c0a7acdb4f773bd87c1c2a42e822b348ca1b2fdab60125103196b1cdceb91d287565be7e9800b8d97ea7e7750dc3510521152038a375d6d381e945cbdbb58231043632929c5cff92631d5f19a2c21ef930a5230ebcf0a5fd023abd844dbb7e50dbfc1ce055bbec2e12841b340c35d8e0549ca8fa06960a8f34651175c95e77f00da2f537f7c2a56664fc0431b62a7a4e0af678849c2251eee77b47ead1839e5521ef9537176ad389b572cefa23c16074efa764471e7632485319a3bec2ff9b6294abfc60731272f4948d7039da3ad88f3e2e2fa476aafc2303c4d5be7e39047a50a15e5138e2cd330db436f483d35a8e698ed8ebdbcb80c196691b104e46bccc893af92811263ff48c78e568143bc9b993ebd59b4108804a70d2954536851b218147453cf89dc4da96f903a9e507150736b73f483dde68db9ec10688963a968d40b1ce8f72ddbfe8ba2001ebf335d6ea6140e54035a28c24f9d13038919723ddeb98eaf7c1c3ac8cb80cfcb741213eaf651c5a194c4de27e6ec059dd8a8a94dd261e40ba9a44bda2d20b49813322730b5f92fd9a6b7f284e9976ddfc3bc345910cc3527baa2fd257921a29a5e3ffa2e9b642938d0dbd38edcbe036ce03d9900cf7a84c8b3a4eed5016b8afc7396c90919426118c6eeed2c05117323a4c76ef9866c728192a0ba88a2f2749905074659666240cf12d02f05504387f264d60c3c6743e51c0f2807f7761d77c97a468e687c4fcb7d0db47e7b8fde747034630e2b56e86d49175509763bcf8d9d9e8125dc45af41cff56c56074e42d772c72a74d78dba1b3729d6dc08223072d2c27c2c125c5da5133fc6b07e3c43a8045d1411c9916d4d1e8ea80d02c1176b23f0026f8e99d0eaf992f387b3b027e7fb5130c97ee8b03a38dffb53c3ca2342ab4361d5ff671609be9fd1fc13012c3d651c96d0c89b94e35e30fb03d30c65097a24dfdd4424a0308a1dfb0b71274421a6045c95f0e84d72895b60637c1e2c6fe0b06d7931be77a9f262ea"
      ],
      "sequence": 4294967294
    }
  ],
  "vout": [
    {
      "value": 1.0,
      "n": 0,
      "scriptPubKey": {
        "asm": "OP_RETURN a03998441c590246b712432e424338a4c2d247573d3c269029015189be97cd08 c4542f1afa980b194217ab0c9689ca1b93171ab29a15d18151565a1ee5c388d7e4740f3adab82b3962378b2cb6a9ea3bb3373a92ba35f1a171767a3ec5e3a8f784146f5abad84b590257eb4cd6c98a5bd3575af2da5591c111161a5ea583c897a4344f7a9af86b792277cb6cf6e9aa7bf3777ad2fa75b1e131363a7e85a3e8b744d4af9a7a188b99c2972b8c16094a9b13979a321a955101d1d6da9e6543085764f48fba5a38abb9e2b70bac36296abb33b7ba123ab57121f1f6fabe456328770494efda3a58cbd982d76bcc56490adb53d7da725ad5114191969ade2503481724b4cffa1a78ebf9a2f74bec76692afb73f7fa527af53161b1b6bafe05236837c4542f1afa980b194217ab0c9689ca1b93171ab29a15d18151565a1ee5c388d7e4740f3adab82b3962378b2cb6a9ea3bb3373a92ba35f1a171767a3ec5e3a8f784146f5abad84b590257eb4cd6c98a5bd3575af2da5591c111161a5ea583c897a4344f7a9af86b792277cb6cf6e9aa7bf3777ad2fa75b1e131363a7e85a3e8b744d4af9a7a188b99c2972b8c16094a9b13979a321a955101d1d6da9e6543085764f48fba5a38abb9e2b70bac36296abb33b7ba123ab57121f1f6fabe456328770494efda3a58cbd982d76bcc56490adb53d7da725ad5114191969ade2503481724b4cffa1a78ebf9a2f74bec76692afb73f7fa527af53161b1b6bafe05236837c4542f1afa980b194217ab0c9689ca1b93171ab29a15d18151565a1ee5c388d7e4740f3adab82b3962378b2cb6a9ea3bb3373a92ba35f1a171767a3ec5e3a8f784146f5abad84b590257eb4cd6c98a5bd3575af2da5591c111161a5ea583c897a4344f7a9af86b792277cb6cf6e9aa7bf3777ad2fa75b1e131363a7e85a3e8b744d4af9a7a188b99c2972b8c16094a9b13979a321a955101d1d6da9e6543085764f48fba5a38abb9e2b70bac36296abb33b7ba123ab57121f1f6fabe456328770494efda3a58cbd982d76bcc56490adb53d7da725ad5114191969ade2503481724b4cffa1a78ebf9a2f74bec76692afb73f7fa527af53161b1b6bafe05236837c4542f1afa980b194217ab0c9689ca1b93171ab29a15d18151565a1ee5c388d7e4740f3adab82b3962378b2cb6a9ea3bb3373a92ba35f1a171767a3ec5e3a8f784146f5abad84b590257eb4cd6c98a5bd3575af2da5591c111161a5ea583c897a4344f7a9af86b792277cb6cf6e9aa7bf3777ad2fa75b1e131363a7e85a3e8b744d4af9a7a188b99c2972b8c16094a9b13979a321a955101d1d6da9e6543085764f48fba5a38abb9e2b70bac36296abb33b7ba123ab57121f1f6fabe456328770494efda3a58cbd982d76bcc56490adb53d7da725ad5114191969ade2503481724b4cffa1a78ebf9a2f74bec76692afb73f7fa527af53161b1b6bafe05236837c4542f1afa980b194217ab0c9689ca1b93171ab29a15d18151565a1ee5c388d7e4740f3adab82b3962378b2cb6a9ea3bb3373a92ba35f1a171767a3ec5e3a8f784146f5abad84b590257eb4cd6c98a5bd3575af2da5591c111161a5ea583c897a4344f7a9af86b792277cb6cf6e9aa7bf3777ad2fa75b1e131363a7e85a3e8b744d4af9a7a188b99c2972b8c16094a9bdba5cc8853b3ccaa0dffde90b8a896aee82529aeea414a8b035aa49ba170001b",
        "hex": "6a20a03998441c590246b712432e424338a4c2d247573d3c269029015189be97cd084db004c4542f1afa980b194217ab0c9689ca1b93171ab29a15d18151565a1ee5c388d7e4740f3adab82b3962378b2cb6a9ea3bb3373a92ba35f1a171767a3ec5e3a8f784146f5abad84b590257eb4cd6c98a5bd3575af2da5591c111161a5ea583c897a4344f7a9af86b792277cb6cf6e9aa7bf3777ad2fa75b1e131363a7e85a3e8b744d4af9a7a188b99c2972b8c16094a9b13979a321a955101d1d6da9e6543085764f48fba5a38abb9e2b70bac36296abb33b7ba123ab57121f1f6fabe456328770494efda3a58cbd982d76bcc56490adb53d7da725ad5114191969ade2503481724b4cffa1a78ebf9a2f74bec76692afb73f7fa527af53161b1b6bafe05236837c4542f1afa980b194217ab0c9689ca1b93171ab29a15d18151565a1ee5c388d7e4740f3adab82b3962378b2cb6a9ea3bb3373a92ba35f1a171767a3ec5e3a8f784146f5abad84b590257eb4cd6c98a5bd3575af2da5591c111161a5ea583c897a4344f7a9af86b792277cb6cf6e9aa7bf3777ad2fa75b1e131363a7e85a3e8b744d4af9a7a188b99c2972b8c16094a9b13979a321a955101d1d6da9e6543085764f48fba5a38abb9e2b70bac36296abb33b7ba123ab57121f1f6fabe456328770494efda3a58cbd982d76bcc56490adb53d7da725ad5114191969ade2503481724b4cffa1a78ebf9a2f74bec76692afb73f7fa527af53161b1b6bafe05236837c4542f1afa980b194217ab0c9689ca1b93171ab29a15d18151565a1ee5c388d7e4740f3adab82b3962378b2cb6a9ea3bb3373a92ba35f1a171767a3ec5e3a8f784146f5abad84b590257eb4cd6c98a5bd3575af2da5591c111161a5ea583c897a4344f7a9af86b792277cb6cf6e9aa7bf3777ad2fa75b1e131363a7e85a3e8b744d4af9a7a188b99c2972b8c16094a9b13979a321a955101d1d6da9e6543085764f48fba5a38abb9e2b70bac36296abb33b7ba123ab57121f1f6fabe456328770494efda3a58cbd982d76bcc56490adb53d7da725ad5114191969ade2503481724b4cffa1a78ebf9a2f74bec76692afb73f7fa527af53161b1b6bafe05236837c4542f1afa980b194217ab0c9689ca1b93171ab29a15d18151565a1ee5c388d7e4740f3adab82b3962378b2cb6a9ea3bb3373a92ba35f1a171767a3ec5e3a8f784146f5abad84b590257eb4cd6c98a5bd3575af2da5591c111161a5ea583c897a4344f7a9af86b792277cb6cf6e9aa7bf3777ad2fa75b1e131363a7e85a3e8b744d4af9a7a188b99c2972b8c16094a9b13979a321a955101d1d6da9e6543085764f48fba5a38abb9e2b70bac36296abb33b7ba123ab57121f1f6fabe456328770494efda3a58cbd982d76bcc56490adb53d7da725ad5114191969ade2503481724b4cffa1a78ebf9a2f74bec76692afb73f7fa527af53161b1b6bafe05236837c4542f1afa980b194217ab0c9689ca1b93171ab29a15d18151565a1ee5c388d7e4740f3adab82b3962378b2cb6a9ea3bb3373a92ba35f1a171767a3ec5e3a8f784146f5abad84b590257eb4cd6c98a5bd3575af2da5591c111161a5ea583c897a4344f7a9af86b792277cb6cf6e9aa7bf3777ad2fa75b1e131363a7e85a3e8b744d4af9a7a188b99c2972b8c16094a9bdba5cc8853b3ccaa0dffde90b8a896aee82529aeea414a8b035aa49ba170001b",
        "type": "nulldata"
      }
    },
    {
      "value": 499963.3916,
      "n": 1,
      "scriptPubKey": {
        "asm": "1 4efe1dba8499e5c1c63b336085643baded22ebe8b19f661eb8767b8424af7388",
        "hex": "51204efe1dba8499e5c1c63b336085643baded22ebe8b19f661eb8767b8424af7388",
        "reqSigs": 1,
        "type": "witness_v1_scripthash",
        "addresses": [
          "3QJmnh"
        ]
      }
    }
  ],
  "blockhash": "e83fb8d8eae63b54f6b1b3d1fbcbee555d4e910f42cfd1b5d97cc48d92172bc4",
  "confirmations": 1,
  "time": 1764182633,
  "blocktime": 1764182633
}