{
  "hex": "01000000000101f125f900454d134cd6ea65e440b2deddb5574ef717318bef93ce6e08e393a5370000000000feffffff0280cbbf57792d0000225120e608e822f6dc96287b3d415b197747cfd3890cedab587cde286e245d5c38554d00e1f50500000000fdd5046a20a055ddb24e76697d06adf69db37fe54a2c6c30579527af72f6754c05e4f2666c4db00467e5548938a615d2a45a8af150370c681ba0ca934a42f8462f558188430c379f47c574a9188635f2847aaad170172c483b80eab36a62d8660f75a1a8632c17bf27a514c978e65592e41acab110774c285be08ad30a02b8066f15c1c8034c77df078534e958c675b2c43aea9130576c087bc0aaf32a2298264f35e1e8236c57ffe765d409b826955224da0a71d0b78ce89b204a13cac278c6afd50108c38cb71fc745f4299806b57204fa2a51f097acc8bb006a33eae258e68ff52128e3ac973fa7259449f866d512649a4a3190f7cca8db600a538a823886ef95414883ccf75f8705b469d846f53244ba6a11b0d7ec88fb402a73aaa218a6cfb56168a3ecd77f67e5548938a615d2a45a8af150370c681ba0ca934a42f8462f558188430c379f47c574a9188635f2847aaad170172c483b80eab36a62d8660f75a1a8632c17bf27a514c978e65592e41acab110774c285be08ad30a02b8066f15c1c8034c77df078534e958c675b2c43aea9130576c087bc0aaf32a2298264f35e1e8236c57ffe765d409b826955224da0a71d0b78ce89b204a13cac278c6afd50108c38cb71fc745f4299806b57204fa2a51f097acc8bb006a33eae258e68ff52128e3ac973fa7259449f866d512649a4a3190f7cca8db600a538a823886ef95414883ccf75f8705b469d846f53244ba6a11b0d7ec88fb402a73aaa218a6cfb56168a3ecd77f67e5548938a615d2a45a8af150370c681ba0ca934a42f8462f558188430c379f47c574a9188635f2847aaad170172c483b80eab36a62d8660f75a1a8632c17bf27a514c978e65592e41acab110774c285be08ad30a02b8066f15c1c8034c77df078534e958c675b2c43aea9130576c087bc0aaf32a2298264f35e1e8236c57ffe765d409b826955224da0a71d0b78ce89b204a13cac278c6afd50108c38cb71fc745f4299806b57204fa2a51f097acc8bb006a33eae258e68ff52128e3ac973fa7259449f866d512649a4a3190f7cca8db600a538a823886ef95414883ccf75f8705b469d846f53244ba6a11b0d7ec88fb402a73aaa218a6cfb56168a3ecd77f67e5548938a615d2a45a8af150370c681ba0ca934a42f8462f558188430c379f47c574a9188635f2847aaad170172c483b80eab36a62d8660f75a1a8632c17bf27a514c978e65592e41acab110774c285be08ad30a02b8066f15c1c8034c77df078534e958c675b2c43aea9130576c087bc0aaf32a2298264f35e1e8236c57ffe765d409b826955224da0a71d0b78ce89b204a13cac278c6afd50108c38cb71fc745f4299806b57204fa2a51f097acc8bb006a33eae258e68ff52128e3ac973fa7259449f866d512649a4a3190f7cca8db600a538a823886ef95414883ccf75f8705b469d846f53244ba6a11b0d7ec88fb402a73aaa218a6cfb56168a3ecd77f67e5548938a615d2a45a8af150370c681ba0ca934a42f8462f558188430c379f47c574a9188635f2847aaad170172c483b80eab36a62d8660f75a1a8632c17bf27a514c978e65592e41acab110774c285be08ad30a02b8066f15c1c8034c77df078534e958c675b2c43aea9130576c087bc0aaf32a2298264f35e1e8236c57ffe765d409b826955224da0a71d0b78ce8daa187bf8d6117e699d4082793a8763989777897850d2ba6c0dd31a8283c5c2e02fd75099347c8c5463f461e0035b94b1fbb825a1518f1baab3ee0695d8e3fa79b161093f8e041c8cdee4907ce8d59cbbf626f1acdb4212116f3003ad0c74f3a875a54cdd23b085631740a11128402e67f4917c4af825e895b318c2a0f0407128b4b4c3f2c68f7919d14b4c994f507a8c4c75a6c0b20c9b34876a1d406dffdda9379dc42a4bf83281fce691c6f04a553286c6efec21da4217533904489b35130bc0dc222296df2022ccebecc0689eba7a405f57dbd9fd17a7ac4f261441a207f74c79b20977b190d858fd07cf35023a85e2b12344a41bd0503126d6ac484afef0ac9bcb7a07c8f50cc70c499189d146e0df6cb1a4f7130b8fd25aca2a075cbcf265e49e872280dba606eec1637a4fc55883c2a283dca82211f9c6e31799c17afdf9992b0a9ed94b37ac5ee53e73918c2320ae9c8ab49cde7513f91e0dd580cf8993a66c546e44ef51d9f89021df6223bb7b590f6516dba3fa583c77422683c1513eb1aa69c9f43ba5adac391e65cd70f398f670658eecf955320972388e8a3b5f8b7d6124423d666754725ce3f6daa0ec871d93173828de061540a630ccc2b49d58ae332a002d9a0bf9a9337d3041a06b710545b9a6d6464a2e4bf3ab0a8b3211a112fa606ef06a827c336317aaa826489ac8a160d3d6edb83bb399f919fa9e52fd5b1711890dd68cd25cbc184db5052245c1c0f734db9c783e7004deba2d1817bc4d1d97838896e68bc71cf00c5159ce4d6824a65d2212c2a80e936c0ecd272937f412269e5a03d9d0f99560e58a2ec5cfbdba1037cce0559d40a18cc26604aa891c04f62408e04fada2b5a7954d31b24c9326983d49fcfde3540880ab18e0a1c7edc3b1ce1f3128c60cd7b0cd70531829b569effd8aacf960c4197d928ecd32d8c0ade5c297080dc1f08f83c2fd63f9c69d0ee8c249e520fbce1a6b382f359eba5ba3c439701d0b2e552ffb9785e613d438a9b84e113023e00ebcc51babdcbc202666808286531156f744e500e7059ccfa13503326bc2f02381b3378e3a8921a1dfad936b921add78366190e148d49f54bb28532370840ef85b0075c7ff08f3a66b92346157b50c43a282429ae1967e2f9d08bdbdfd4a9c5a76940c91ffac41c4ee8af97a674c5defae566841ee0f12d6071b308a8a5d327af9a85f3f09eb1d85316f17d35762c6d76d014d27b9061163990728396f74eae48680a117b77c39ea88c4ba7f5a4b708c464c616926c5c570f5cc92eb8eca9d7fadd9e16ef1f4de4705524a49967f70fab9082428748e4846a0f081c4ce75ed3560eedfa4e3cac7c48cab9638329c70b2f151fe7e577ee6367dd7e6acdbb7034602f6641bde995bd12a358931d717921de8a4bb119f85e40a2650cd468edde3352c1f62ff214774ca0d140d5f86d2510b86ac471fb0680c2946614006f0b0aa01ece68548302aa954c4bb78aa5f250da96cf0588209bf8907b9ecba22d8a3693523f31261d2cc2d570a189835351965f635c29a19032dec88dc3b8e3aac19323acc8776ad7125ba5f67edc9b201b5688f5eba09a1d864358d8517b15980ca94bc0ef090a263595ddec673577ef92cc52954937418b7b469a5f36210a807ac7f546b2b7d751eda813c24f75c851839c740e98c78b03f43f1c126748156b739a27f14d59f97452be699febc5174c3f98e61686fefd8fdeb47e27d20036f455dd379289eb4e0e49c821ef7a37f81b8af2f1ff59a318f347c264b663554521560add27d6616bf3fd2b2def6771334b96bc073807263fba99f2666e5bbd32d690c7bd7a4bda98ef02da440f9521f46f2937b788bf3e0146ee680ca349fa5ea968d1e7e15bd7ff53532e85b271426ba5e8ab1c96276459d02b37508a6826d620cb2e7b2fae0d188c94e152b10af080e845d7261278be469fe2df637eefee9a9dd8f5836aa3f70432451f133901a57dc9ce8f8e808ca869332dcafdbb8ff47ce3412f432d80a5740d103c26f17ca3bfa85a39e42cd80ce6ad72d480d5a23d322df435e1af47cbaffee58d0c33ba088278729637ae44b08a1bb6f4be10c6b39bcd4b83861530b96b2b24f8dcce55ef8511c15cab607b385c5fc731e184db03d941089df02b2bba6b11be7ce7c0f971de233961bfb5857fcbedb5e2b6acb568408c7e0651901eaf700c4e0db56a49d054d3ae584363a1e47b49eaf703aa282e4347fa2beca08cb6e04bbdc4ef5abb9bbadb78dc2015e1fde17f42455907efad375fc2611a6e3b7628dc3fdfe5272b8dcffa124c1a8ba272635474b38087555c99b8f6a66666a87c79e441e181506d33de4e67fa03a1a6958e92dc612309260e328302c1ad39a30caffceda4a5f00ac15ee641e55dfb91ba8fc1e6a540efe31f2304b2d595e7d50218a205ddd00e012ebae628911144d8180e354b86a2f430160e4c60e0e13a12a06ec204b0d667457c9350344e367300ddea6a459807334c8b3c1f466d2ab50aa4729e7d099bfde6e3a586c7a5fbb153dd4599bb591912d42d3083f50fac4ac51d20876de73e2920a3025802b4f6661f1ab70eb452399ab227af5738f17aaa02da8cedf171c96cd212a7d7e17497670e8e0cc660f93951da57b6f79079f48ec28c01464ea85f52962c02a64b12a418df0c3023924d74d84456a2f7f6980652ad60ce29c2da0592abef41599a4ed14aee8e43bc211a55b0aeda8d4521c0a9ab074c64619eb84d273942cc0fa2e92dda07da42813372a08a85b7e034469140205f718bdb14995f7bd4313b643f85192f6601e38566190ff7367159c53a749c9a78c008113cda38040bbafdd1ccb07af409e9ca13c0b2d2f42495b204c280117dbd145e9d2178c4247ffe2e5131dc681cc582107e9d5f1d6ba4bb5d69cb43e27dc8f75e54e6f03ff415ee4fcab175af77315b5f36c238523fc72496fb6b657c245e512cccae205da9554b19c1663ca28c51a45d279bcb852a2c285d9213271c0259e77a3556e380af4b4bd5e94ccee407e3770e6cd27439520df99f04d28defdfa9782fd130eaa9896a8304ac93c15c1db5d81893730c9e03c7d193287af1c9bd7634fb20ee7f7938ce5f9c5e5ae8d5bf6053841ab51d5206a0f1b2d8b9fbf771927e147e45e7769096670bfe9de15d64131482e12ae727fcd838f86e53ae41810b991bfd74248d5be26e1d13656c35d8a7ff819859eaeb22c5bf04bbd5f7c2dbdcc86c2ad307db94695a63faa836beaf17d3b2d894cfcd51287d204fb9ad1532e2c105c210f6dd62e481d34aff6beaff952b6b9a8ae1ebba7ddedd1a5aa12e102102f77aa7ea679b53b202222639494a8597b4b6c4cc14676f708c9ac9ccd9161f2a383e475773778d99b3c2c80c2a2c393d3e737c8790aab0b3b6b9bbcadd0000000000000000000000000000000000000000000000000000000c15233501fd2105009ec0788ed44272c73148b0ae1ae7a110999bf8508fff81b60e15ccb487c274cfe0acc3281060bbfefd5adc7f3dd6bd29474af40c90da661187c79e12174f515b9cd34670910dc4eb676a922826effef7aad97cd4a8c496cf680196c932590e49d04d8855034442a324a30e59876d884901589a71699b222d76f63b99be19c9a429ec7d226a5c31a081cd672b312938285047ad0f3c88e317020e94e441fe0f84e2358518eadd464559c3a70db2274cd0a3fb86bc997cc7fad2dece53665dafa4c9c121f511afeec7d9cbbf2f19a3e20e1a2b8960c6c3de122d344fd20bd71e5ce2a68ddfb2e59bc2254ede7810f8e2be6196b31c2ec9415672bb61d79a74cbb31f33945ccbce36021664e25321891ac52092aec666c67bce9264f179eedb624a6c1e35e7c52d74648b1def47c0e8bc3a15627a74081bfaeb7f9d2e7e6f4538725ac0c351b4546839af7a0649ecf35857d0081fc99c7da1362898a4b96c2695e4f420ccfb947a59e59be2401f725af68f6615dd50c0b90dada00bf684ca4cf97fe9b5a995beb537dd186f19430ba082e2033d471025669aa3eb7bf1fdc0f14b46d74e75ab40267e87519f6e350394c4c105c59ce73a85999fe1aa0bd030e36f72155105c34b63e82eff86a3b68f12a794c0f7713137d9c562b393d855b3c5961207baca532485a6cad0ec459b2e04e7f274da43ef0adab941f725fd5a0f728fb1935e19dda22cd01fcfa52f017c416e028d06ece09390b1393f7952dd06848a9b773168aa3762931b0776990287ce064002452f5d183c944b55dbc9e2878e56e578af754345f7421d49838e65bd7c5f704f31f132b7ae6008141474ff0e1472f0368ef101608fe730ad3057fad99ca9c2dd698b48a19451b4b60951769442f0e343370b0524cebfb84b9bc83db2131ea1e2cbb16c111eb63598df2dcc6f877c92df8f7ce6b3bd8a5142a53aafdfa9c0683cafa327fa684e95788fd4815a04bae5e4e1d7c6dba676e0f6d716d9c19f63069948cca8aa96168e419fd3c0f9aaecbd63e402a2049af5c263094d8a57bddba72d30d1266d790cd45278a0a2dc834d6061ff5b607d600a4c8ca5ce2c2d2779b6df61e8b457c185ac58454a1a6d448091b9a230c927bf36d1fdbc5ff0f6c54ed9b9d957ea74bf125d539163862fd71525d770d4ef374218f8f0778531e308d19777e9667ee11d7a47d476a1cef99df0b6d49a99d126528ab4be3a2393a0cfa65ee95338e76cbb13696cb22c16fd1818a5ee51568c872c76e148b0f028a4c00c4d9d67b957784e7b68d121bb334590224478e61f3da34274e8ad2e6d6e2eb3bce811a727b9300e69bb77a88562bd8af8ed5a607ccb24b8a3bd2953ace68be508e8d9d3d6895feecf0b2b80fa63f79de25ab849a8458aaca0699f93ae937178e2233616323f9548975db61e97b06035a4fd237fa8913dba11c3d2dd83260ec216923bf71d3ce8ce9337098b3eedcfa3e828fbbd7871817fd03184b5412fd738ea27727546c5760f35998b90c4514fc63fc7ed3aae6c208ca8eb2068a9ff67c38eaba68b32c8a65cf28fc19a431a2434c89d2c31833d8bae6716e33eaf09ce04f41c991df9fad6a59600287c24b27930b400faf0bcfb12e473388cdb7b78fe783980d62362bfecde4fb614efbd3b9c5c0b18192a7575bcfd59c0c4494a65f1e24331796f9ad6835ed5669a563fc746162b90df82bf33f9ed60f6df483ea0fa1878ca7b5f92143a7961197df625d492fe68165710ba9e0ee02f2bd3babc52692d20798082bdeb91747df7997ec8486ecb5c89ee56fe7d306c4962e9ea80b2b71bed32d2a0bf29177f4e2812d285e64db5152b70000000",
  "txid": "08d00b06f15032e49cb198b70289eec986810e048ee446c25783908c058a1044",
  "hash": "cc5f230c46d56210761170a8f07eb60e1dfb684d89fdaff028485e3c56390699",
  "size": 5085,
  "vsize": 2278,
  "version": 1,
  "locktime": 112,
  "vin": [
    {
      "txid": "37a593e3086ece93ef8b3117f74e57b5dddeb240e465ead64c134d4500f925f1",
      "vout": 0,
      "scriptSig": {
        "asm": "",
        "hex": ""
      },
      "txinwitness": [
        "9347c8c5463f461e0035b94b1fbb825a1518f1baab3ee0695d8e3fa79b161093f8e041c8cdee4907ce8d59cbbf626f1acdb4212116f3003ad0c74f3a875a54cdd23b085631740a11128402e67f4917c4af825e895b318c2a0f0407128b4b4c3f2c68f7919d14b4c994f507a8c4c75a6c0b20c9b34876a1d406dffdda9379dc42a4bf83281fce691c6f04a553286c6efec21da4217533904489b35130bc0dc222296df2022ccebecc0689eba7a405f57dbd9fd17a7ac4f261441a207f74c79b20977b190d858fd07cf35023a85e2b12344a41bd0503126d6ac484afef0ac9bcb7a07c8f50cc70c499189d146e0df6cb1a4f7130b8fd25aca2a075cbcf265e49e872280dba606eec1637a4fc55883c2a283dca82211f9c6e31799c17afdf9992b0a9ed94b37ac5ee53e73918c2320ae9c8ab49cde7513f91e0dd580cf8993a66c546e44ef51d9f89021df6223bb7b590f6516dba3fa583c77422683c1513eb1aa69c9f43ba5adac391e65cd70f398f670658eecf955320972388e8a3b5f8b7d6124423d666754725ce3f6daa0ec871d93173828de061540a630ccc2b49d58ae332a002d9a0bf9a9337d3041a06b710545b9a6d6464a2e4bf3ab0a8b3211a112fa606ef06a827c336317aaa826489ac8a160d3d6edb83bb399f919fa9e52fd5b1711890dd68cd25cbc184db5052245c1c0f734db9c783e7004deba2d1817bc4d1d97838896e68bc71cf00c5159ce4d6824a65d2212c2a80e936c0ecd272937f412269e5a03d9d0f99560e58a2ec5cfbdba1037cce0559d40a18cc26604aa891c04f62408e04fada2b5a7954d31b24c9326983d49fcfde3540880ab18e0a1c7edc3b1ce1f3128c60cd7b0cd70531829b569effd8aacf960c4197d928ecd32d8c0ade5c297080dc1f08f83c2fd63f9c69d0ee8c249e520fbce1a6b382f359eba5ba3c439701d0b2e552ffb9785e613d438a9b84e113023e00ebcc51babdcbc202666808286531156f744e500e7059ccfa13503326bc2f02381b3378e3a8921a1dfad936b921add78366190e148d49f54bb28532370840ef85b0075c7ff08f3a66b92346157b50c43a282429ae1967e2f9d08bdbdfd4a9c5a76940c91ffac41c4ee8af97a674c5defae566841ee0f12d6071b308a8a5d327af9a85f3f09eb1d85316f17d35762c6d76d014d27b9061163990728396f74eae48680a117b77c39ea88c4ba7f5a4b708c464c616926c5c570f5cc92eb8eca9d7fadd9e16ef1f4de4705524a49967f70fab9082428748e4846a0f081c4ce75ed3560eedfa4e3cac7c48cab9638329c70b2f151fe7e577ee6367dd7e6acdbb7034602f6641bde995bd12a358931d717921de8a4bb119f85e40a2650cd468edde3352c1f62ff214774ca0d140d5f86d2510b86ac471fb0680c2946614006f0b0aa01ece68548302aa954c4bb78aa5f250da96cf0588209bf8907b9ecba22d8a3693523f31261d2cc2d570a189835351965f635c29a19032dec88dc3b8e3aac19323acc8776ad7125ba5f67edc9b201b5688f5eba09a1d864358d8517b15980ca94bc0ef090a263595ddec673577ef92cc52954937418b7b469a5f36210a807ac7f546b2b7d751eda813c24f75c851839c740e98c78b03f43f1c126748156b739a27f14d59f97452be699febc5174c3f98e61686fefd8fdeb47e27d20036f455dd379289eb4e0e49c821ef7a37f81b8af2f1ff59a318f347c264b663554521560add27d6616bf3fd2b2def6771334b96bc073807263fba99f2666e5bbd32d690c7bd7a4bda98ef02da440f9521f46f2937b788bf3e0146ee680ca349fa5ea968d1e7e15bd7ff53532e85b271426ba5e8ab1c96276459d02b37508a6826d620cb2e7b2fae0d188c94e152b10af080e845d7261278be469fe2df637eefee9a9dd8f5836aa3f70432451f133901a57dc9ce8f8e808ca869332dcafdbb8ff47ce3412f432d80a5740d103c26f17ca3bfa85a39e42cd80ce6ad72d480d5a23d322df435e1af47cbaffee58d0c33ba088278729637ae44b08a1bb6f4be10c6b39bcd4b83861530b96b2b24f8dcce55ef8511c15cab607b385c5fc731e184db03d941089df02b2bba6b11be7ce7c0f971de233961bfb5857fcbedb5e2b6acb568408c7e0651901eaf700c4e0db56a49d054d3ae584363a1e47b49eaf703aa282e4347fa2beca08cb6e04bbdc4ef5abb9bbadb78dc2015e1fde17f42455907efad375fc2611a6e3b7628dc3fdfe5272b8dcffa124c1a8ba272635474b38087555c99b8f6a66666a87c79e441e181506d33de4e67fa03a1a6958e92dc612309260e328302c1ad39a30caffceda4a5f00ac15ee641e55dfb91ba8fc1e6a540efe31f2304b2d595e7d50218a205ddd00e012ebae628911144d8180e354b86a2f430160e4c60e0e13a12a06ec204b0d667457c9350344e367300ddea6a459807334c8b3c1f466d2ab50aa4729e7d099bfde6e3a586c7a5fbb153dd4599bb591912d42d3083f50fac4ac51d20876de73e2920a3025802b4f6661f1ab70eb452399ab227af5738f17aaa02da8cedf171c96cd212a7d7e17497670e8e0cc660f93951da57b6f79079f48ec28c01464ea85f52962c02a64b12a418df0c3023924d74d84456a2f7f6980652ad60ce29c2da0592abef41599a4ed14aee8e43bc211a55b0aeda8d4521c0a9ab074c64619eb84d273942cc0fa2e92dda07da42813372a08a85b7e034469140205f718bdb14995f7bd4313b643f85192f6601e38566190ff7367159c53a749c9a78c008113cda38040bbafdd1ccb07af409e9ca13c0b2d2f42495b204c280117dbd145e9d2178c4247ffe2e5131dc681cc582107e9d5f1d6ba4bb5d69cb43e27dc8f75e54e6f03ff415ee4fcab175af77315b5f36c238523fc72496fb6b657c245e512cccae205da9554b19c1663ca28c51a45d279bcb852a2c285d9213271c0259e77a3556e380af4b4bd5e94ccee407e3770e6cd27439520df99f04d28defdfa9782fd130eaa9896a8304ac93c15c1db5d81893730c9e03c7d193287af1c9bd7634fb20ee7f7938ce5f9c5e5ae8d5bf6053841ab51d5206a0f1b2d8b9fbf771927e147e45e7769096670bfe9de15d64131482e12ae727fcd838f86e53ae41810b991bfd74248d5be26e1d13656c35d8a7ff819859eaeb22c5bf04bbd5f7c2dbdcc86c2ad307db94695a63faa836beaf17d3b2d894cfcd51287d204fb9ad1532e2c105c210f6dd62e481d34aff6beaff952b6b9a8ae1ebba7ddedd1a5aa12e102102f77aa7ea679b53b202222639494a8597b4b6c4cc14676f708c9ac9ccd9161f2a383e475773778d99b3c2c80c2a2c393d3e737c8790aab0b3b6b9bbcadd0000000000000000000000000000000000000000000000000000000c15233501",
        "009ec0788ed44272c73148b0ae1ae7a110999bf8508fff81b60e15ccb487c274cfe0acc3281060bbfefd5adc7f3dd6bd29474af40c90da661187c79e12174f515b9cd34670910dc4eb676a922826effef7aad97cd4a8c496cf680196c932590e49d04d8855034442a324a30e59876d884901589a71699b222d76f63b99be19c9a429ec7d226a5c31a081cd672b312938285047ad0f3c88e317020e94e441fe0f84e2358518eadd464559c3a70db2274cd0a3fb86bc997cc7fad2dece53665dafa4c9c121f511afeec7d9cbbf2f19a3e20e1a2b8960c6c3de122d344fd20bd71e5ce2a68ddfb2e59bc2254ede7810f8e2be6196b31c2ec9415672bb61d79a74cbb31f33945ccbce36021664e25321891ac52092aec666c67bce9264f179eedb624a6c1e35e7c52d74648b1def47c0e8bc3a15627a74081bfaeb7f9d2e7e6f4538725ac0c351b4546839af7a0649ecf35857d0081fc99c7da1362898a4b96c2695e4f420ccfb947a59e59be2401f725af68f6615dd50c0b90dada00bf684ca4cf97fe9b5a995beb537dd186f19430ba082e2033d471025669aa3eb7bf1fdc0f14b46d74e75ab40267e87519f6e350394c4c105c59ce73a85999fe1aa0bd030e36f72155105c34b63e82eff86a3b68f12a794c0f7713137d9c562b393d855b3c5961207baca532485a6cad0ec459b2e04e7f274da43ef0adab941f725fd5a0f728fb1935e19dda22cd01fcfa52f017c416e028d06ece09390b1393f7952dd06848a9b773168aa3762931b0776990287ce064002452f5d183c944b55dbc9e2878e56e578af754345f7421d49838e65bd7c5f704f31f132b7ae6008141474ff0e1472f0368ef101608fe730ad3057fad99ca9c2dd698b48a19451b4b60951769442f0e343370b0524cebfb84b9bc83db2131ea1e2cbb16c111eb63598df2dcc6f877c92df8f7ce6b3bd8a5142a53aafdfa9c0683cafa327fa684e95788fd4815a04bae5e4e1d7c6dba676e0f6d716d9c19f63069948cca8aa96168e419fd3c0f9aaecbd63e402a2049af5c263094d8a57bddba72d30d1266d790cd45278a0a2dc834d6061ff5b607d600a4c8ca5ce2c2d2779b6df61e8b457c185ac58454a1a6d448091b9a230c927bf36d1fdbc5ff0f6c54ed9b9d957ea74bf125d539163862fd71525d770d4ef374218f8f0778531e308d19777e9667ee11d7a47d476a1cef99df0b6d49a99d126528ab4be3a2393a0cfa65ee95338e76cbb13696cb22c16fd1818a5ee51568c872c76e148b0f028a4c00c4d9d67b957784e7b68d121bb334590224478e61f3da34274e8ad2e6d6e2eb3bce811a727b9300e69bb77a88562bd8af8ed5a607ccb24b8a3bd2953ace68be508e8d9d3d6895feecf0b2b80fa63f79de25ab849a8458aaca0699f93ae937178e2233616323f9548975db61e97b06035a4fd237fa8913dba11c3d2dd83260ec216923bf71d3ce8ce9337098b3eedcfa3e828fbbd7871817fd03184b5412fd738ea27727546c5760f35998b90c4514fc63fc7ed3aae6c208ca8eb2068a9ff67c38eaba68b32c8a65cf28fc19a431a2434c89d2c31833d8bae6716e33eaf09ce04f41c991df9fad6a59600287c24b27930b400faf0bcfb12e473388cdb7b78fe783980d62362bfecde4fb614efbd3b9c5c0b18192a7575bcfd59c0c4494a65f1e24331796f9ad6835ed5669a563fc746162b90df82bf33f9ed60f6df483ea0fa1878ca7b5f92143a7961197df625d492fe68165710ba9e0ee02f2bd3babc52692d20798082bdeb91747df7997ec8486ecb5c89ee56fe7d306c4962e9ea80b2b71bed32d2a0bf29177f4e2812d285e64db5152b"
      ],
      "sequence": 4294967294
    }
  ],
  "vout": [
    {
      "value": 499991.8648,
      "n": 0,
      "scriptPubKey": {
        "asm": "1 e608e822f6dc96287b3d415b197747cfd3890cedab587cde286e245d5c38554d",
        "hex": "5120e608e822f6dc96287b3d415b197747cfd3890cedab587cde286e245d5c38554d",
        "reqSigs": 1,
        "type": "witness_v1_scripthash",
        "addresses": [
          "3QJmnh"
        ]
      }
    },
    {
      "value": 1.0,
      "n": 1,
      "scriptPubKey": {
        "asm": "OP_RETURN a055ddb24e76697d06adf69db37fe54a2c6c30579527af72f6754c05e4f2666c 67e5548938a615d2a45a8af150370c681ba0ca934a42f8462f558188430c379f47c574a9188635f2847aaad170172c483b80eab36a62d8660f75a1a8632c17bf27a514c978e65592e41acab110774c285be08ad30a02b8066f15c1c8034c77df078534e958c675b2c43aea9130576c087bc0aaf32a2298264f35e1e8236c57ffe765d409b826955224da0a71d0b78ce89b204a13cac278c6afd50108c38cb71fc745f4299806b57204fa2a51f097acc8bb006a33eae258e68ff52128e3ac973fa7259449f866d512649a4a3190f7cca8db600a538a823886ef95414883ccf75f8705b469d846f53244ba6a11b0d7ec88fb402a73aaa218a6cfb56168a3ecd77f67e5548938a615d2a45a8af150370c681ba0ca934a42f8462f558188430c379f47c574a9188635f2847aaad170172c483b80eab36a62d8660f75a1a8632c17bf27a514c978e65592e41acab110774c285be08ad30a02b8066f15c1c8034c77df078534e958c675b2c43aea9130576c087bc0aaf32a2298264f35e1e8236c57ffe765d409b826955224da0a71d0b78ce89b204a13cac278c6afd50108c38cb71fc745f4299806b57204fa2a51f097acc8bb006a33eae258e68ff52128e3ac973fa7259449f866d512649a4a3190f7cca8db600a538a823886ef95414883ccf75f8705b469d846f53244ba6a11b0d7ec88fb402a73aaa218a6cfb56168a3ecd77f67e5548938a615d2a45a8af150370c681ba0ca934a42f8462f558188430c379f47c574a9188635f2847aaad170172c483b80eab36a62d8660f75a1a8632c17bf27a514c978e65592e41acab110774c285be08ad30a02b8066f15c1c8034c77df078534e958c675b2c43aea9130576c087bc0aaf32a2298264f35e1e8236c57ffe765d409b826955224da0a71d0b78ce89b204a13cac278c6afd50108c38cb71fc745f4299806b57204fa2a51f097acc8bb006a33eae258e68ff52128e3ac973fa7259449f866d512649a4a3190f7cca8db600a538a823886ef95414883ccf75f8705b469d846f53244ba6a11b0d7ec88fb402a73aaa218a6cfb56168a3ecd77f67e5548938a615d2a45a8af150370c681ba0ca934a42f8462f558188430c379f47c574a9188635f2847aaad170172c483b80eab36a62d8660f75a1a8632c17bf27a514c978e65592e41acab110774c285be08ad30a02b8066f15c1c8034c77df078534e958c675b2c43aea9130576c087bc0aaf32a2298264f35e1e8236c57ffe765d409b826955224da0a71d0b78ce89b204a13cac278c6afd50108c38cb71fc745f4299806b57204fa2a51f097acc8bb006a33eae258e68ff52128e3ac973fa7259449f866d512649a4a3190f7cca8db600a538a823886ef95414883ccf75f8705b469d846f53244ba6a11b0d7ec88fb402a73aaa218a6cfb56168a3ecd77f67e5548938a615d2a45a8af150370c681ba0ca934a42f8462f558188430c379f47c574a9188635f2847aaad170172c483b80eab36a62d8660f75a1a8632c17bf27a514c978e65592e41acab110774c285be08ad30a02b8066f15c1c8034c77df078534e958c675b2c43aea9130576c087bc0aaf32a2298264f35e1e8236c57ffe765d409b826955224da0a71d0b78ce8daa187bf8d6117e699d4082793a8763989777897850d2ba6c0dd31a8283c5c2e",
        "hex": "6a20a055ddb24e76697d06adf69db37fe54a2c6c30579527af72f6754c05e4f2666c4db00467e5548938a615d2a45a8af150370c681ba0ca934a42f8462f558188430c379f47c574a9188635f2847aaad170172c483b80eab36a62d8660f75a1a8632c17bf27a514c978e65592e41acab110774c285be08ad30a02b8066f15c1c8034c77df078534e958c675b2c43aea9130576c087bc0aaf32a2298264f35e1e8236c57ffe765d409b826955224da0a71d0b78ce89b204a13cac278c6afd50108c38cb71fc745f4299806b57204fa2a51f097acc8bb006a33eae258e68ff52128e3ac973fa7259449f866d512649a4a3190f7cca8db600a538a823886ef95414883ccf75f8705b469d846f53244ba6a11b0d7ec88fb402a73aaa218a6cfb56168a3ecd77f67e5548938a615d2a45a8af150370c681ba0ca934a42f8462f558188430c379f47c574a9188635f2847aaad170172c483b80eab36a62d8660f75a1a8632c17bf27a514c978e65592e41acab110774c285be08ad30a02b8066f15c1c8034c77df078534e958c675b2c43aea9130576c087bc0aaf32a2298264f35e1e8236c57ffe765d409b826955224da0a71d0b78ce89b204a13cac278c6afd50108c38cb71fc745f4299806b57204fa2a51f097acc8bb006a33eae258e68ff52128e3ac973fa7259449f866d512649a4a3190f7cca8db600a538a823886ef95414883ccf75f8705b469d846f53244ba6a11b0d7ec88fb402a73aaa218a6cfb56168a3ecd77f67e5548938a615d2a45a8af150370c681ba0ca934a42f8462f558188430c379f47c574a9188635f2847aaad170172c483b80eab36a62d8660f75a1a8632c17bf27a514c978e65592e41acab110774c285be08ad30a02b8066f15c1c8034c77df078534e958c675b2c43aea9130576c087bc0aaf32a2298264f35e1e8236c57ffe765d409b826955224da0a71d0b78ce89b204a13cac278c6afd50108c38cb71fc745f4299806b57204fa2a51f097acc8bb006a33eae258e68ff52128e3ac973fa7259449f866d512649a4a3190f7cca8db600a538a823886ef95414883ccf75f8705b469d846f53244ba6a11b0d7ec88fb402a73aaa218a6cfb56168a3ecd77f67e5548938a615d2a45a8af150370c681ba0ca934a42f8462f558188430c379f47c574a9188635f2847aaad170172c483b80eab36a62d8660f75a1a8632c17bf27a514c978e65592e41acab110774c285be08ad30a02b8066f15c1c8034c77df078534e958c675b2c43aea9130576c087bc0aaf32a2298264f35e1e8236c57ffe765d409b826955224da0a71d0b78ce89b204a13cac278c6afd50108c38cb71fc745f4299806b57204fa2a51f097acc8bb006a33eae258e68ff52128e3ac973fa7259449f866d512649a4a3190f7cca8db600a538a823886ef95414883ccf75f8705b469d846f53244ba6a11b0d7ec88fb402a73aaa218a6cfb56168a3ecd77f67e5548938a615d2a45a8af150370c681ba0ca934a42f8462f558188430c379f47c574a9188635f2847aaad170172c483b80eab36a62d8660f75a1a8632c17bf27a514c978e65592e41acab110774c285be08ad30a02b8066f15c1c8034c77df078534e958c675b2c43aea9130576c087bc0aaf32a2298264f35e1e8236c57ffe765d409b826955224da0a71d0b78ce8daa187bf8d6117e699d4082793a8763989777897850d2ba6c0dd31a8283c5c2e",
        "type": "nulldata"
      }
    }
  ],
  "blockhash": "0588000bb82f4b14ca9e4626330a5c84a7bb9e1c31fd2ade5c3732d80cc4fd85",
  "confirmations": 1,
  "time": 1764178356,
  "blocktime": 1764178356
}