{
  "hex": "01000000000101a549c786d859af3740656c35bf7c68d06ce904ccb5e800a608fc7005a1d9a7aa0100000000feffffff028022c5f6782d000022512023c545e2cfaa1dfe7c0b17b0ae34c3eb0bd112b318a8422985b2e6fbc8b6199500e1f50500000000fdd5046a20ee435312ab4de4213ed36d65f1eb90dc91726ff0c3446c4a280ddd74dad2ba534db0040974e7ed9895d0c6f428771cb7a59877907af42782704ac8ab6b966f610323d72954c7cdb8b5f0e6d408573c9785b857b05ad407a2506ae88b4bb64f412303f74934a7add8d59086b468375cf7e5d837d03ab467c2300a88eb2bd62f214363976914878df8f5b0a69448177cd7c5f817f01a9447e2102aa8cb0bf60f016343b789f4676d1815504674a8f79c372518f710fa74a702f0ca482beb16efe183a357a9d4474d383570665488d7bc170538d730da548722d0ea680bcb36cfc1a38377c9b4272d5855100634e8b7dc776558b750ba34e742b08a086bab56afa1c3e317e994070d7875302614c897fc57457897709a14c76290aa284b8b768f81e3c3370974e7ed9895d0c6f428771cb7a59877907af42782704ac8ab6b966f610323d72954c7cdb8b5f0e6d408573c9785b857b05ad407a2506ae88b4bb64f412303f74934a7add8d59086b468375cf7e5d837d03ab467c2300a88eb2bd62f214363976914878df8f5b0a69448177cd7c5f817f01a9447e2102aa8cb0bf60f016343b789f4676d1815504674a8f79c372518f710fa74a702f0ca482beb16efe183a357a9d4474d383570665488d7bc170538d730da548722d0ea680bcb36cfc1a38377c9b4272d5855100634e8b7dc776558b750ba34e742b08a086bab56afa1c3e317e994070d7875302614c897fc57457897709a14c76290aa284b8b768f81e3c3370974e7ed9895d0c6f428771cb7a59877907af42782704ac8ab6b966f610323d72954c7cdb8b5f0e6d408573c9785b857b05ad407a2506ae88b4bb64f412303f74934a7add8d59086b468375cf7e5d837d03ab467c2300a88eb2bd62f214363976914878df8f5b0a69448177cd7c5f817f01a9447e2102aa8cb0bf60f016343b789f4676d1815504674a8f79c372518f710fa74a702f0ca482beb16efe183a357a9d4474d383570665488d7bc170538d730da548722d0ea680bcb36cfc1a38377c9b4272d5855100634e8b7dc776558b750ba34e742b08a086bab56afa1c3e317e994070d7875302614c897fc57457897709a14c76290aa284b8b768f81e3c3370974e7ed9895d0c6f428771cb7a59877907af42782704ac8ab6b966f610323d72954c7cdb8b5f0e6d408573c9785b857b05ad407a2506ae88b4bb64f412303f74934a7add8d59086b468375cf7e5d837d03ab467c2300a88eb2bd62f214363976914878df8f5b0a69448177cd7c5f817f01a9447e2102aa8cb0bf60f016343b789f4676d1815504674a8f79c372518f710fa74a702f0ca482beb16efe183a357a9d4474d383570665488d7bc170538d730da548722d0ea680bcb36cfc1a38377c9b4272d5855100634e8b7dc776558b750ba34e742b08a086bab56afa1c3e317e994070d7875302614c897fc57457897709a14c76290aa284b8b768f81e3c3370974e7ed9895d0c6f428771cb7a59877907af42782704ac8ab6b966f610323d72954c7cdb8b5f0e6d408573c9785b857b05ad407a2506ae88b4bb64f412303f74934a7add8d59086b468375cf7e5d837d03ab467c2300a88eb2bd62f214363976914878df8f5b0a69448177cd7c5f817f01a9447e2102aa8cb0bf60f016343b789f4676d1815504674a8f79c372518f708d336f1dd45e72fd71217f74655a72844208b5e5a55337ffa4d2f190f64f8cd02fd75093a1bc1ee64ad6fd61476059c9c9736c3d57ce2dcfba981ca1ea7809891b39d009810a107a5b6d1a17edb74534b5b1c1c2417ed756fee11a85e1641bd0c538f25d9ac90bcf9d2564bfc0ddd36854484192f2a2914ff6f239563c1f4ce8d4b1d3d6c3681d9b3a53360965764dcf8e53569a8b9f70f1c5f9bf8868d8d4cc3f03da248c206190918b4227d31f0077d58328181e494800721b6991b9d0c5ca5bca328f251cc8092e15fe45b36255a54c777a1c0eaade1f47b44f41b0a7aba276abdd7742d777e1fb4be85c87f7f4cd06d802bc6b85d2db687acf0e485b7a4de237a381734c22b8ccf06984443e89b4012cf58944e3298160b4affe77683cbf206957b2780bb1648908975a97d8d9a5e55bb4a97af003188b9d0884555f5927c5482541cd7802bab5a2c2d1120c8170f22bba81357b9eba139e7db26ee4b29b02d8d0c7c156aeb82427c24d1ef404836f7b10196abf01190e3b2c28e9f36e6ae73d493453bb2ce45c6bb968362766b8e87b7c55d7875ce3a70d9c81ce99c5eb83c5dd4b68eacea19726820ba3468bc8ddae089888487198a6d39b6e6cb3ba5933e2a6d166b66e3cdf1aa8ac67a94c44b9979aaad146bdec8f4697939652bb9963e2af3d43e1eba430ce329846551c7079273fcfc64d77b853b10a23424a799722fe730e18790708c081889153e0220815082b3682c41487400f5be962558507e7451fdd1d4d6110d8893ba2042d7a9604823a28d5c63cf9cf34d1f46e3d12d852da24e7ae696aa257b772d54dcba4ad7a185766c9a05234223b52f146f881c758ed7a92061a018b95726ddac0e59c8bb4465c9e665abffdf3006dee86685c5058b6888d409a94584561b96bcb35306b333dbb94bab1f1a0dbbc646fbc7ed9051c392d2d7bd7abe6802a931c460273cb17a2bbb7b4bf80a5d93eb36abc826b1f702f070ef1021b2fedf5ebd34f77493aa3490fb7424a91690032708c0f35c28a0fa8e48d20add76ff997bf86f00188f75b75b6202f8a9e6ff1962ad901507bc4f14759938e83639c3df9d2138d2f6be6bb3a5be9ac07532f7f612aaa6296d786c4fc2498ff5f2f8eea760a0836c75da1ef01fc57ed7af36e7e6c9198d01d2d8d26e7fd81c1509db134897fa1d6dc9a21ac63d266d884cfe16ad1c3bd753eadb8d524f6b272ee66abb71f5a28f0f341d9e66ebc16dfab98b1f218dd41f1958edaa098fd3619b769dde2d675a6e5e3199b91a4c2fd5d167d51ea61ad26decbe97aadd53fe3f3c1444ae9a47d690abf9dc7e574adb9c16f926f45402f04ba153561dcfcd93dcb1a253b975aea9fba141bd03fac1c027a35ab8cd502de8e12ba9594e3884864b9c059e53cc989249907d6b750f083cd435341c8449b4cf64e715c444a921a654bb729c2480a61bd4cb38387fea4d530848c79255b148188a2976f14266ea1ef7353a1d9dbf76454a9ac119dcd016ac2094d0f08ae739f456490717c23607a45e1d485d57f6e4456e7606f8703e55e85551c23537da282054f839a04b0acf28e5820260465920f29b0ea5a285f4bd017a089dca94f184aa4a2006a581ba5451abf42d44287a2b045457c14885e03c2246440e48fbd739076d23939e746ad1353c976825dd145a1f5872711afc05b54c41ce63e89730c288699413eda8277e01a5a50239c631de17d4a2b4650b5d37f201f4e980e5ea50c5e07931bfcdc7c5c489b4fb4cdac3c255a7b4d6520b5002ed1efc749dd0f25e1099ac3db4a17dad46ecafc469e05089cef61308c47888949a94f49730ef4f815a4c76a0afb74cc806f596ae61d6de56e720d25f14ff086adb0d604fab88aec1dea8fa06d7f0d0f59ddafa964c745c76104e86bed4a9915acf90adfe89106c1858e8a72c39d74f86b2c30187e5a16190c13443b35c0fb6047a80ce0d0a23baee052183eb1253ae76573bfd1ba0377a6860cd029cb8256c456dd2529cfe6bc3ffcb4269a08e31f6b789dd66ac75f5689607369bc7ec890c3951e4dce7a4ca3bb888b078cb68d5b20e3bbd5fbb3ca150ca99f34b00f90c6e55c50f49893bdfc7fbddf42887d70cfaa4c0e72d5c677343670281c2f07cabd8b2b06b7d4de257b5bfdfb3c6e0cb4cfcf093d67a9e878c5089d318eb4070b04dc1d217257d22f234cd71bc622353ac41deb4506594cb343218bb86e8d161bc2c7c1915a22b159ecba5965d091725c2c6586c3359966e911a777a28710bbca501c18495d6bef92a742f6e073ad3fe5037f056ad765ef87b3032f645f5c1767c128cd3b9538d7b6c1b368b7e60503f7305f9f2ae0f6b55eb096f50c38a9506623a1f7023c5de805828aeff04995206d44f497abdfc154259cb89ffe5eb39e5fa0195dba483bd24d1e8cf6d9ce31e1f9ae04bf08930edab2c81117d62f0a340973b9b5b631d0889766d735abdf48f41087364a819d1531a3c6ba74c84b239784cc1fb3974f67e324bdbf7788926768e61c2e5bbc7ff20e8a4cbb7c77d58d5d9d1f8cfda3c40eeef5c18a4ea6b1e35c195446bf948804d700ac2b0600325720a14f24af22bea3367f7a29b8a750aab22730dff9a5e896f8148483dbe670f0ba5bcc475866e7f980d0e3f9846909604d6ee64a85dbb9889005fb43f88b5f0458e203ef8067202771338e130615efbffd3a36bddf56bd16499228a1a212bdcd43efaa0562f05fe12889b2d373c7076001805526c423f0fa320f54a749beff47b05cc87d3650e56e6f7a8a4ba8de3c166603b57cb6ede7eec9e48efa8e9a0d1c401077605d214908139c2f8eaaf693aded57c2bddaaa06713de71460535b1fbef6c6bcea2ba4aef0684b4e2605e2f64c64112bb2153fd1145209bb0b555fd8b82d5c1dca3ae446324a74058053ce60b7f55a2cfc6a71bd95cfb3f39302b5f44e204ebfdaaed58cb4cce1c1426a7a97d960e089e7271fc38f0d68b0088f39117e19f5a8dfd9c864d84b5d4d657449b5a17c8c0a1444c962c251e6fc83aa4ee21798d6a1d7235fd7116cfa18b1f3242cd80453569093eb4bb484f07436513f86bc188a1e5fb98095af25ac51f74ff87809d37d9548f9339356bee9ac4fb60d90914a745277d9c97b5083a64a9263b156d1b9062dd38d8d1e84761877a25f9c9f27780085b2fb3ee6ef3b4796ab572370f7225d077629e880fe15c41cefe8f20151aaf37b81102e4a524f3a333b8888237e5b69008f2c85c294a05149862e9357eaab7b2b66215c2d740e14446debb0fa22f86584c16f07b0c1639442c975bc1dd26dcfc42e5f03210959e4ee77e2666026bb00e52e4ea043032494a7a7d88b6c6c7c9d0eff104182e3e4b58616369829fdce9f630384853696e7d89a3a8b0d3d7dde4f4f5f7f9fe0f2444626c8081949fa0aeb2b3b400000000000000000000000000000000000f1d313f01fd210500c9a3d2b638d00a9c28a0f07b3eeadd7ffd6221c8691f51d5f138b81866be51176b5589c27ecdeffa1efecf51a74dd0b73415e3c1f04b3f46da56407fe935ca1484cd48142aab054930fe57263647f909c159c66aeb6a3c8b134ce6c43b2705c086a09063d95357106510f6e17144704dfa9ca2b08ee8ff198a9ad2a5157fde8c1717a10ffca45579cc0cb0ac0304f93ca7093d57d1af5774c7bbc82e0b692bb25544690d828d65389abbf8dc23582825e2f36cbb419bdd0cf425bf1f373c09bf80b27129ade68e9fc055daff342a37fd486afb0ad503166f7cfce4f92932820e0e383203783976e8231472a27c946a111ef70d3ea954fc2ad930211974ca23209231615615c389b2893db224a4a1171f1a7be7d5a5bc37e9d541b8ab594cccac1c41ac12f6d3b212dcd871e7de251e54c20f09f38c361bcc38b7f7931edbbad0cf07fd9d4ff68c2cc525141357ba45bc19877a209ebd55ea330a217606d3f71fecff043661bc78acca6f22323efc6e55e29012550efcf48a495a698b48dd26b217e67ecdd8597f1a21e0f1db266e67f268a38add9336eaf159f2c273c16c4699f5d8822b5c08b3c4cf577ddfdd6375f88fc5f6e795f69fda4746080a4971b80b4d2f2d5d9defaf68d3bd78683caba23c246e4f17005f301e47bdb59c4b62c418247c4c9dec2b1e0ebf959094a237b1a3e23e79cd320986a260c69d2058aa7cf5486de85257effe993617f598c1c532b14408ac6976702cd730b5fe618b021245aebc21a976635dccc8cd4029d998dfa911b2ca13c94c8cabe8acebaf0c2a1607c7a007b3417e6e58be8540935b71b717e840ddba90465fdf4c5916bfeda40788c5a657a72c1b00be287240c5810c2f47218b3da73486c5f02e8102ae402d119b5ffb79c65335bc083bd3ffeef47e997bf523b099830fbbaa9a0b6fb1b962a65d1135d7c05e97d9d186291adb8a18079dfdbad10362da25dfe0fc3d12ef7d18a9b6aab7f784b55aa7cd81f6a501f3268c374724a58fec885b595a8bbfedfa9e12f90916ff237c6c6effa8f08e144da884cb64ac75c632206862cadff16961978356d710b4d23c5ad53c7c9dc692150451560f524a5e8cf220068472f40e06e2d6ce9fa545c530080ae87512504d1b4019774ae6a50b1d44cc17a16da36b410dae1f9ed8b1f45909e4f9c6375d8217780e991d72c0d25cf48a2899c111c0f9f69a6b0a02a74cc8074bbc5c880a23ed7a2683d9e584b1af28e92476d8bf1d1d79280476d38195bb5a3e03a10a6a35a26df6b858ffe69187ce350cd22e192916fe56ec8fe8e5be51900a3b1bb8410b4cfafb8b7e5ae838f874a94e7aeabe4cc180c540f0c4835c5b45f0c180843a8c041db8a683e5821bd7bdb5842f248dc5f39c275f8021431173c5ec74b1de0f3b1565cb482f41da34c19de3dd91310f5ceb13a8321247d5a22f5ae42b63bea1c4483b973405fb5fb82b9c2b895222416bfaf57127cfb7ed3947de104c85cdbe98ad4a008c87cf9fc98ca86396d47fd02d29901206a1433ddc64b678a75c55807ec6d12a586f56a7b2b8a6c4f67e8306ed8920d814123a011f54f8458a81c2324cfa3636765c04d18ee4c531d84db25e8d1bad9d34101e7c892338cbe49ff8db4a256a6b9fc6f1052a25a86cfc0ab7ed6e2c514cc1bdc8917997ce819ad97b7340c16478a5a2d202e2a2a0318ff5ff70a0dd983c5c29198ba5d78bef2f2162aef64ea08ed9754cc1f5c7c2de655c4b6578ddc88b66d5a8f5021713205a0f5120f99f982e44425ae37a26b20dbf746a6a98ed1570da03c1e2a1c53bdf6957158851499860e2243dc2fe8edfb12dd247dd51d83c947a000000",
  "txid": "01d9a14620767718e61deb8a3d421ccdc4c420f664bf599df4b3fa92522452e7",
  "hash": "f8421d3b4764f737902e1028c6c2cf9c68971577ca9841497fd7531a37b50537",
  "size": 5085,
  "vsize": 2278,
  "version": 1,
  "locktime": 122,
  "vin": [
    {
      "txid": "aaa7d9a10570fc08a600e8b5cc04e96cd0687cbf356c654037af59d886c749a5",
      "vout": 1,
      "scriptSig": {
        "asm": "",
        "hex": ""
      },
      "txinwitness": [
        "3a1bc1ee64ad6fd61476059c9c9736c3d57ce2dcfba981ca1ea7809891b39d009810a107a5b6d1a17edb74534b5b1c1c2417ed756fee11a85e1641bd0c538f25d9ac90bcf9d2564bfc0ddd36854484192f2a2914ff6f239563c1f4ce8d4b1d3d6c3681d9b3a53360965764dcf8e53569a8b9f70f1c5f9bf8868d8d4cc3f03da248c206190918b4227d31f0077d58328181e494800721b6991b9d0c5ca5bca328f251cc8092e15fe45b36255a54c777a1c0eaade1f47b44f41b0a7aba276abdd7742d777e1fb4be85c87f7f4cd06d802bc6b85d2db687acf0e485b7a4de237a381734c22b8ccf06984443e89b4012cf58944e3298160b4affe77683cbf206957b2780bb1648908975a97d8d9a5e55bb4a97af003188b9d0884555f5927c5482541cd7802bab5a2c2d1120c8170f22bba81357b9eba139e7db26ee4b29b02d8d0c7c156aeb82427c24d1ef404836f7b10196abf01190e3b2c28e9f36e6ae73d493453bb2ce45c6bb968362766b8e87b7c55d7875ce3a70d9c81ce99c5eb83c5dd4b68eacea19726820ba3468bc8ddae089888487198a6d39b6e6cb3ba5933e2a6d166b66e3cdf1aa8ac67a94c44b9979aaad146bdec8f4697939652bb9963e2af3d43e1eba430ce329846551c7079273fcfc64d77b853b10a23424a799722fe730e18790708c081889153e0220815082b3682c41487400f5be962558507e7451fdd1d4d6110d8893ba2042d7a9604823a28d5c63cf9cf34d1f46e3d12d852da24e7ae696aa257b772d54dcba4ad7a185766c9a05234223b52f146f881c758ed7a92061a018b95726ddac0e59c8bb4465c9e665abffdf3006dee86685c5058b6888d409a94584561b96bcb35306b333dbb94bab1f1a0dbbc646fbc7ed9051c392d2d7bd7abe6802a931c460273cb17a2bbb7b4bf80a5d93eb36abc826b1f702f070ef1021b2fedf5ebd34f77493aa3490fb7424a91690032708c0f35c28a0fa8e48d20add76ff997bf86f00188f75b75b6202f8a9e6ff1962ad901507bc4f14759938e83639c3df9d2138d2f6be6bb3a5be9ac07532f7f612aaa6296d786c4fc2498ff5f2f8eea760a0836c75da1ef01fc57ed7af36e7e6c9198d01d2d8d26e7fd81c1509db134897fa1d6dc9a21ac63d266d884cfe16ad1c3bd753eadb8d524f6b272ee66abb71f5a28f0f341d9e66ebc16dfab98b1f218dd41f1958edaa098fd3619b769dde2d675a6e5e3199b91a4c2fd5d167d51ea61ad26decbe97aadd53fe3f3c1444ae9a47d690abf9dc7e574adb9c16f926f45402f04ba153561dcfcd93dcb1a253b975aea9fba141bd03fac1c027a35ab8cd502de8e12ba9594e3884864b9c059e53cc989249907d6b750f083cd435341c8449b4cf64e715c444a921a654bb729c2480a61bd4cb38387fea4d530848c79255b148188a2976f14266ea1ef7353a1d9dbf76454a9ac119dcd016ac2094d0f08ae739f456490717c23607a45e1d485d57f6e4456e7606f8703e55e85551c23537da282054f839a04b0acf28e5820260465920f29b0ea5a285f4bd017a089dca94f184aa4a2006a581ba5451abf42d44287a2b045457c14885e03c2246440e48fbd739076d23939e746ad1353c976825dd145a1f5872711afc05b54c41ce63e89730c288699413eda8277e01a5a50239c631de17d4a2b4650b5d37f201f4e980e5ea50c5e07931bfcdc7c5c489b4fb4cdac3c255a7b4d6520b5002ed1efc749dd0f25e1099ac3db4a17dad46ecafc469e05089cef61308c47888949a94f49730ef4f815a4c76a0afb74cc806f596ae61d6de56e720d25f14ff086adb0d604fab88aec1dea8fa06d7f0d0f59ddafa964c745c76104e86bed4a9915acf90adfe89106c1858e8a72c39d74f86b2c30187e5a16190c13443b35c0fb6047a80ce0d0a23baee052183eb1253ae76573bfd1ba0377a6860cd029cb8256c456dd2529cfe6bc3ffcb4269a08e31f6b789dd66ac75f5689607369bc7ec890c3951e4dce7a4ca3bb888b078cb68d5b20e3bbd5fbb3ca150ca99f34b00f90c6e55c50f49893bdfc7fbddf42887d70cfaa4c0e72d5c677343670281c2f07cabd8b2b06b7d4de257b5bfdfb3c6e0cb4cfcf093d67a9e878c5089d318eb4070b04dc1d217257d22f234cd71bc622353ac41deb4506594cb343218bb86e8d161bc2c7c1915a22b159ecba5965d091725c2c6586c3359966e911a777a28710bbca501c18495d6bef92a742f6e073ad3fe5037f056ad765ef87b3032f645f5c1767c128cd3b9538d7b6c1b368b7e60503f7305f9f2ae0f6b55eb096f50c38a9506623a1f7023c5de805828aeff04995206d44f497abdfc154259cb89ffe5eb39e5fa0195dba483bd24d1e8cf6d9ce31e1f9ae04bf08930edab2c81117d62f0a340973b9b5b631d0889766d735abdf48f41087364a819d1531a3c6ba74c84b239784cc1fb3974f67e324bdbf7788926768e61c2e5bbc7ff20e8a4cbb7c77d58d5d9d1f8cfda3c40eeef5c18a4ea6b1e35c195446bf948804d700ac2b0600325720a14f24af22bea3367f7a29b8a750aab22730dff9a5e896f8148483dbe670f0ba5bcc475866e7f980d0e3f9846909604d6ee64a85dbb9889005fb43f88b5f0458e203ef8067202771338e130615efbffd3a36bddf56bd16499228a1a212bdcd43efaa0562f05fe12889b2d373c7076001805526c423f0fa320f54a749beff47b05cc87d3650e56e6f7a8a4ba8de3c166603b57cb6ede7eec9e48efa8e9a0d1c401077605d214908139c2f8eaaf693aded57c2bddaaa06713de71460535b1fbef6c6bcea2ba4aef0684b4e2605e2f64c64112bb2153fd1145209bb0b555fd8b82d5c1dca3ae446324a74058053ce60b7f55a2cfc6a71bd95cfb3f39302b5f44e204ebfdaaed58cb4cce1c1426a7a97d960e089e7271fc38f0d68b0088f39117e19f5a8dfd9c864d84b5d4d657449b5a17c8c0a1444c962c251e6fc83aa4ee21798d6a1d7235fd7116cfa18b1f3242cd80453569093eb4bb484f07436513f86bc188a1e5fb98095af25ac51f74ff87809d37d9548f9339356bee9ac4fb60d90914a745277d9c97b5083a64a9263b156d1b9062dd38d8d1e84761877a25f9c9f27780085b2fb3ee6ef3b4796ab572370f7225d077629e880fe15c41cefe8f20151aaf37b81102e4a524f3a333b8888237e5b69008f2c85c294a05149862e9357eaab7b2b66215c2d740e14446debb0fa22f86584c16f07b0c1639442c975bc1dd26dcfc42e5f03210959e4ee77e2666026bb00e52e4ea043032494a7a7d88b6c6c7c9d0eff104182e3e4b58616369829fdce9f630384853696e7d89a3a8b0d3d7dde4f4f5f7f9fe0f2444626c8081949fa0aeb2b3b400000000000000000000000000000000000f1d313f01",
        "00c9a3d2b638d00a9c28a0f07b3eeadd7ffd6221c8691f51d5f138b81866be51176b5589c27ecdeffa1efecf51a74dd0b73415e3c1f04b3f46da56407fe935ca1484cd48142aab054930fe57263647f909c159c66aeb6a3c8b134ce6c43b2705c086a09063d95357106510f6e17144704dfa9ca2b08ee8ff198a9ad2a5157fde8c1717a10ffca45579cc0cb0ac0304f93ca7093d57d1af5774c7bbc82e0b692bb25544690d828d65389abbf8dc23582825e2f36cbb419bdd0cf425bf1f373c09bf80b27129ade68e9fc055daff342a37fd486afb0ad503166f7cfce4f92932820e0e383203783976e8231472a27c946a111ef70d3ea954fc2ad930211974ca23209231615615c389b2893db224a4a1171f1a7be7d5a5bc37e9d541b8ab594cccac1c41ac12f6d3b212dcd871e7de251e54c20f09f38c361bcc38b7f7931edbbad0cf07fd9d4ff68c2cc525141357ba45bc19877a209ebd55ea330a217606d3f71fecff043661bc78acca6f22323efc6e55e29012550efcf48a495a698b48dd26b217e67ecdd8597f1a21e0f1db266e67f268a38add9336eaf159f2c273c16c4699f5d8822b5c08b3c4cf577ddfdd6375f88fc5f6e795f69fda4746080a4971b80b4d2f2d5d9defaf68d3bd78683caba23c246e4f17005f301e47bdb59c4b62c418247c4c9dec2b1e0ebf959094a237b1a3e23e79cd320986a260c69d2058aa7cf5486de85257effe993617f598c1c532b14408ac6976702cd730b5fe618b021245aebc21a976635dccc8cd4029d998dfa911b2ca13c94c8cabe8acebaf0c2a1607c7a007b3417e6e58be8540935b71b717e840ddba90465fdf4c5916bfeda40788c5a657a72c1b00be287240c5810c2f47218b3da73486c5f02e8102ae402d119b5ffb79c65335bc083bd3ffeef47e997bf523b099830fbbaa9a0b6fb1b962a65d1135d7c05e97d9d186291adb8a18079dfdbad10362da25dfe0fc3d12ef7d18a9b6aab7f784b55aa7cd81f6a501f3268c374724a58fec885b595a8bbfedfa9e12f90916ff237c6c6effa8f08e144da884cb64ac75c632206862cadff16961978356d710b4d23c5ad53c7c9dc692150451560f524a5e8cf220068472f40e06e2d6ce9fa545c530080ae87512504d1b4019774ae6a50b1d44cc17a16da36b410dae1f9ed8b1f45909e4f9c6375d8217780e991d72c0d25cf48a2899c111c0f9f69a6b0a02a74cc8074bbc5c880a23ed7a2683d9e584b1af28e92476d8bf1d1d79280476d38195bb5a3e03a10a6a35a26df6b858ffe69187ce350cd22e192916fe56ec8fe8e5be51900a3b1bb8410b4cfafb8b7e5ae838f874a94e7aeabe4cc180c540f0c4835c5b45f0c180843a8c041db8a683e5821bd7bdb5842f248dc5f39c275f8021431173c5ec74b1de0f3b1565cb482f41da34c19de3dd91310f5ceb13a8321247d5a22f5ae42b63bea1c4483b973405fb5fb82b9c2b895222416bfaf57127cfb7ed3947de104c85cdbe98ad4a008c87cf9fc98ca86396d47fd02d29901206a1433ddc64b678a75c55807ec6d12a586f56a7b2b8a6c4f67e8306ed8920d814123a011f54f8458a81c2324cfa3636765c04d18ee4c531d84db25e8d1bad9d34101e7c892338cbe49ff8db4a256a6b9fc6f1052a25a86cfc0ab7ed6e2c514cc1bdc8917997ce819ad97b7340c16478a5a2d202e2a2a0318ff5ff70a0dd983c5c29198ba5d78bef2f2162aef64ea08ed9754cc1f5c7c2de655c4b6578ddc88b66d5a8f5021713205a0f5120f99f982e44425ae37a26b20dbf746a6a98ed1570da03c1e2a1c53bdf6957158851499860e2243dc2fe8edfb12dd247dd51d83c94"
      ],
      "sequence": 4294967294
    }
  ],
  "vout": [
    {
      "value": 499975.5944,
      "n": 0,
      "scriptPubKey": {
        "asm": "1 23c545e2cfaa1dfe7c0b17b0ae34c3eb0bd112b318a8422985b2e6fbc8b61995",
        "hex": "512023c545e2cfaa1dfe7c0b17b0ae34c3eb0bd112b318a8422985b2e6fbc8b61995",
        "reqSigs": 1,
        "type": "witness_v1_scripthash",
        "addresses": [
          "3QJmnh"
        ]
      }
    },
    {
      "value": 1.0,
      "n": 1,
      "scriptPubKey": {
        "asm": "OP_RETURN ee435312ab4de4213ed36d65f1eb90dc91726ff0c3446c4a280ddd74dad2ba53 0974e7ed9895d0c6f428771cb7a59877907af42782704ac8ab6b966f610323d72954c7cdb8b5f0e6d408573c9785b857b05ad407a2506ae88b4bb64f412303f74934a7add8d59086b468375cf7e5d837d03ab467c2300a88eb2bd62f214363976914878df8f5b0a69448177cd7c5f817f01a9447e2102aa8cb0bf60f016343b789f4676d1815504674a8f79c372518f710fa74a702f0ca482beb16efe183a357a9d4474d383570665488d7bc170538d730da548722d0ea680bcb36cfc1a38377c9b4272d5855100634e8b7dc776558b750ba34e742b08a086bab56afa1c3e317e994070d7875302614c897fc57457897709a14c76290aa284b8b768f81e3c3370974e7ed9895d0c6f428771cb7a59877907af42782704ac8ab6b966f610323d72954c7cdb8b5f0e6d408573c9785b857b05ad407a2506ae88b4bb64f412303f74934a7add8d59086b468375cf7e5d837d03ab467c2300a88eb2bd62f214363976914878df8f5b0a69448177cd7c5f817f01a9447e2102aa8cb0bf60f016343b789f4676d1815504674a8f79c372518f710fa74a702f0ca482beb16efe183a357a9d4474d383570665488d7bc170538d730da548722d0ea680bcb36cfc1a38377c9b4272d5855100634e8b7dc776558b750ba34e742b08a086bab56afa1c3e317e994070d7875302614c897fc57457897709a14c76290aa284b8b768f81e3c3370974e7ed9895d0c6f428771cb7a59877907af42782704ac8ab6b966f610323d72954c7cdb8b5f0e6d408573c9785b857b05ad407a2506ae88b4bb64f412303f74934a7add8d59086b468375cf7e5d837d03ab467c2300a88eb2bd62f214363976914878df8f5b0a69448177cd7c5f817f01a9447e2102aa8cb0bf60f016343b789f4676d1815504674a8f79c372518f710fa74a702f0ca482beb16efe183a357a9d4474d383570665488d7bc170538d730da548722d0ea680bcb36cfc1a38377c9b4272d5855100634e8b7dc776558b750ba34e742b08a086bab56afa1c3e317e994070d7875302614c897fc57457897709a14c76290aa284b8b768f81e3c3370974e7ed9895d0c6f428771cb7a59877907af42782704ac8ab6b966f610323d72954c7cdb8b5f0e6d408573c9785b857b05ad407a2506ae88b4bb64f412303f74934a7add8d59086b468375cf7e5d837d03ab467c2300a88eb2bd62f214363976914878df8f5b0a69448177cd7c5f817f01a9447e2102aa8cb0bf60f016343b789f4676d1815504674a8f79c372518f710fa74a702f0ca482beb16efe183a357a9d4474d383570665488d7bc170538d730da548722d0ea680bcb36cfc1a38377c9b4272d5855100634e8b7dc776558b750ba34e742b08a086bab56afa1c3e317e994070d7875302614c897fc57457897709a14c76290aa284b8b768f81e3c3370974e7ed9895d0c6f428771cb7a59877907af42782704ac8ab6b966f610323d72954c7cdb8b5f0e6d408573c9785b857b05ad407a2506ae88b4bb64f412303f74934a7add8d59086b468375cf7e5d837d03ab467c2300a88eb2bd62f214363976914878df8f5b0a69448177cd7c5f817f01a9447e2102aa8cb0bf60f016343b789f4676d1815504674a8f79c372518f708d336f1dd45e72fd71217f74655a72844208b5e5a55337ffa4d2f190f64f8cd",
        "hex": "6a20ee435312ab4de4213ed36d65f1eb90dc91726ff0c3446c4a280ddd74dad2ba534db0040974e7ed9895d0c6f428771cb7a59877907af42782704ac8ab6b966f610323d72954c7cdb8b5f0e6d408573c9785b857b05ad407a2506ae88b4bb64f412303f74934a7add8d59086b468375cf7e5d837d03ab467c2300a88eb2bd62f214363976914878df8f5b0a69448177cd7c5f817f01a9447e2102aa8cb0bf60f016343b789f4676d1815504674a8f79c372518f710fa74a702f0ca482beb16efe183a357a9d4474d383570665488d7bc170538d730da548722d0ea680bcb36cfc1a38377c9b4272d5855100634e8b7dc776558b750ba34e742b08a086bab56afa1c3e317e994070d7875302614c897fc57457897709a14c76290aa284b8b768f81e3c3370974e7ed9895d0c6f428771cb7a59877907af42782704ac8ab6b966f610323d72954c7cdb8b5f0e6d408573c9785b857b05ad407a2506ae88b4bb64f412303f74934a7add8d59086b468375cf7e5d837d03ab467c2300a88eb2bd62f214363976914878df8f5b0a69448177cd7c5f817f01a9447e2102aa8cb0bf60f016343b789f4676d1815504674a8f79c372518f710fa74a702f0ca482beb16efe183a357a9d4474d383570665488d7bc170538d730da548722d0ea680bcb36cfc1a38377c9b4272d5855100634e8b7dc776558b750ba34e742b08a086bab56afa1c3e317e994070d7875302614c897fc57457897709a14c76290aa284b8b768f81e3c3370974e7ed9895d0c6f428771cb7a59877907af42782704ac8ab6b966f610323d72954c7cdb8b5f0e6d408573c9785b857b05ad407a2506ae88b4bb64f412303f74934a7add8d59086b468375cf7e5d837d03ab467c2300a88eb2bd62f214363976914878df8f5b0a69448177cd7c5f817f01a9447e2102aa8cb0bf60f016343b789f4676d1815504674a8f79c372518f710fa74a702f0ca482beb16efe183a357a9d4474d383570665488d7bc170538d730da548722d0ea680bcb36cfc1a38377c9b4272d5855100634e8b7dc776558b750ba34e742b08a086bab56afa1c3e317e994070d7875302614c897fc57457897709a14c76290aa284b8b768f81e3c3370974e7ed9895d0c6f428771cb7a59877907af42782704ac8ab6b966f610323d72954c7cdb8b5f0e6d408573c9785b857b05ad407a2506ae88b4bb64f412303f74934a7add8d59086b468375cf7e5d837d03ab467c2300a88eb2bd62f214363976914878df8f5b0a69448177cd7c5f817f01a9447e2102aa8cb0bf60f016343b789f4676d1815504674a8f79c372518f710fa74a702f0ca482beb16efe183a357a9d4474d383570665488d7bc170538d730da548722d0ea680bcb36cfc1a38377c9b4272d5855100634e8b7dc776558b750ba34e742b08a086bab56afa1c3e317e994070d7875302614c897fc57457897709a14c76290aa284b8b768f81e3c3370974e7ed9895d0c6f428771cb7a59877907af42782704ac8ab6b966f610323d72954c7cdb8b5f0e6d408573c9785b857b05ad407a2506ae88b4bb64f412303f74934a7add8d59086b468375cf7e5d837d03ab467c2300a88eb2bd62f214363976914878df8f5b0a69448177cd7c5f817f01a9447e2102aa8cb0bf60f016343b789f4676d1815504674a8f79c372518f708d336f1dd45e72fd71217f74655a72844208b5e5a55337ffa4d2f190f64f8cd",
        "type": "nulldata"
      }
    }
  ],
  "blockhash": "ccdcfedcff6ade259e7f17160cbcd6ff75249aea4f0a85a59e1a4fb3f710df5f",
  "confirmations": 1,
  "time": 1764180435,
  "blocktime": 1764180435
}