{
  "hex": "01000000000101cfc79886d68f74e10f3d3ea0610da58c0ffa83fd28556d07f9de24f4abe4b7b90000000000feffffff0200e1f50500000000fdd5046a205ba71635e93e15d7d5df3e60b357d65faa175789e8923165f8ff26a87460c2fd4db00409f28b3ec69a34651d6b4d92923e69a7ec5f552a42352eeb03842af434d3f17529d2ab1ee6ba14453d4b6db2b21e4987cc7f750a62150ecb23a40ad414f3d15549b2cb7e86da74255d2b0dd2d27e29e7ac1f156a02756eab43c46ab47493b1356992eb5ea6fa54057d0b2df2f25e09c78c3f354a22554e8b63e44a9454b3911589720bbe461ab4e59debcd1212bee9276cdfd5aac2b5ae6b8304aa74b45371f5a9522b9e663a94c5bdcbed32329ec9074cfff58ae2958e4ba3248a54947351d5c9324bfe065af4a5ddab8d5252fea9672c9f95ea82f5ee2bc344ea34f41331b5e9126bde267ad485fd8bad7272de89470cbfb5caa2d5ce0be364ca14d433119509f28b3ec69a34651d6b4d92923e69a7ec5f552a42352eeb03842af434d3f17529d2ab1ee6ba14453d4b6db2b21e4987cc7f750a62150ecb23a40ad414f3d15549b2cb7e86da74255d2b0dd2d27e29e7ac1f156a02756eab43c46ab47493b1356992eb5ea6fa54057d0b2df2f25e09c78c3f354a22554e8b63e44a9454b3911589720bbe461ab4e59debcd1212bee9276cdfd5aac2b5ae6b8304aa74b45371f5a9522b9e663a94c5bdcbed32329ec9074cfff58ae2958e4ba3248a54947351d5c9324bfe065af4a5ddab8d5252fea9672c9f95ea82f5ee2bc344ea34f41331b5e9126bde267ad485fd8bad7272de89470cbfb5caa2d5ce0be364ca14d433119509f28b3ec69a34651d6b4d92923e69a7ec5f552a42352eeb03842af434d3f17529d2ab1ee6ba14453d4b6db2b21e4987cc7f750a62150ecb23a40ad414f3d15549b2cb7e86da74255d2b0dd2d27e29e7ac1f156a02756eab43c46ab47493b1356992eb5ea6fa54057d0b2df2f25e09c78c3f354a22554e8b63e44a9454b3911589720bbe461ab4e59debcd1212bee9276cdfd5aac2b5ae6b8304aa74b45371f5a9522b9e663a94c5bdcbed32329ec9074cfff58ae2958e4ba3248a54947351d5c9324bfe065af4a5ddab8d5252fea9672c9f95ea82f5ee2bc344ea34f41331b5e9126bde267ad485fd8bad7272de89470cbfb5caa2d5ce0be364ca14d433119509f28b3ec69a34651d6b4d92923e69a7ec5f552a42352eeb03842af434d3f17529d2ab1ee6ba14453d4b6db2b21e4987cc7f750a62150ecb23a40ad414f3d15549b2cb7e86da74255d2b0dd2d27e29e7ac1f156a02756eab43c46ab47493b1356992eb5ea6fa54057d0b2df2f25e09c78c3f354a22554e8b63e44a9454b3911589720bbe461ab4e59debcd1212bee9276cdfd5aac2b5ae6b8304aa74b45371f5a9522b9e663a94c5bdcbed32329ec9074cfff58ae2958e4ba3248a54947351d5c9324bfe065af4a5ddab8d5252fea9672c9f95ea82f5ee2bc344ea34f41331b5e9126bde267ad485fd8bad7272de89470cbfb5caa2d5ce0be364ca14d433119509f28b3ec69a34651d6b4d92923e69a7ec5f552a42352eeb03842af434d3f17529d2ab1ee6ba14453d4b6db2b21e4987cc7f750a62150ecb23a40ad414f3d15549b2cb7e86da74255d2b0dd2d27e29e7ac1f156a02756eab43c46ab47493b1356992eb5ea6fa54057d0b2df2f25e09c78c3f354a22554e8b63e44a9454b3911589720bbe461ab4e59debcd1212bee9272aa96a60ee74c9e5e30620c78776cd5e03a658bf19ecfb316e62259b965bd76cd02296e4782d0000225120c62d606249d6505c3bae8e2915761844843f995b0d839a6b9205377037d1fee102fd750946c97d2f6d2523e239e38a10ef0e0ff864172ad876c6f6c7bd0bb1658fea312a0f73cef258770616acc2fdb09d56c36379a2193dd52177dff433b0e811fc9dfa6d35abc347101ce4b5712477c250d875941aefe9e603c2cd4ad8535782c26baaa76d71b514a8a4393f40b1fe59f4ab4cae2dbfcd8068630a3d812d019fe475bd246eb92c796e5b2e54b5793e2485f6772e7276ba82e6b65a96c62dae7d6e27c7033b14694853d17059b8961388f87ac21bbba30a34002caf60a939932da71c59eb8ab77a8e08ce6ba9cbbfef42493f141f70304389cdf3423f5f8a5a68b993f31bd13d292660636797b32af74389d876579e6a89e6e555cf72def80542825e4fb887aeb924f9c53aa241ffd0d1f85070b29e40d926b28713b3d7a9b36b2a7663d212f7d64feb97dedd006468dc9c20cc23d3757f82c315ed37872214f92f8feff932b89e89b4adb47c2fdee673ccc1b5dd635691b6ef2a9a351475338781e867e8541c8baabd52957a4ba58331540f26ef89bef06b269942ce43468d175a4e8116eff7125fb707ee8d25b44b21a212a59e01036532d58fa3eecb00f73ba68caf29cc5d5c31d8ab530a49370f1bac3b61cc0f3a1820e6cfa4fd17069edb0d318bf2bf79e825c6cf16cd03f6e236005308fd708a453f6dd9db0f7aaebc469e8851500610c571864b0b26ea2febf8f3fc2f273a0c970a43ec29ddc7d94abb959767eca94e820ae90196cd0f2206aa2c5ca699481648f52ccfbba681b617e73276d70210dbca870c0c792ce23f8eb96c38154af90c73014552f826989933b0f21f63bf0f170a9d4e1d27d84ab957cd39bad36bb10621d96d2eaf6e40d274bdbff65c6acd77651c0483d66e3a67533807be914ba836388a1a82ca0761bf5a026645657bdbfbad9a912e30d3915bfe64fee9e7ce7962336e89d282cf964dfa496ec745fd35d287f3821994a4f23a037a5fcca286de1aebe22081907cc69ade1c1c310f1b34a5bd86e4b11948e0faaf2b83d93f59f88d3b71a4e82af6f00fc38ff36f9032ef9b5234e7d849d9abcb3a1e470c27332662f3e7616d9ea914297c531541c8ff8f56379ffa141f59445a159be61a420114ad9079c2ee18e1b370c9cb503ca1898e58737bb9d527b3250c93d7168ce6340bb72cc8dce04c0c8ecbe3c91601a2e3e99401eb75ec0fd6c74e3f9445b81e81d7d7e996c25f6f1cb8f2ec88e17f81d00ddb0c3fdf7b44cd65c6dda535a11336cdbd11a775ecf1d6d2b92758cf1ba1d93f45b7d42fe9ac08896c06534eb09541c4c1d012a787cfaa2d42afba767e793e7cd615867900f7c84d8b9d20941b23fa37cb894c9bc914ddea2c75a47629985d9440de10efff9713c402898dbc08067c910e3b84dc7a290009098547b6c33cb6206704d7c9b815f5fdaa6ce995bc8b4964fb80b77272b3c7986be3b67a03b2895da6af13d82b7625b668f5ab62c8fde5968730afa6e28ec5c86bc8432e056a6947cff23364266742ae216a382b9f40abd67b2a24a4894dac3f2dc2600ff931d41c033ee78f5f59dce44b98dd4b143a3269c9a6e8b9095b7bbb2707cabe2f353b1d02aa5162aa9993f29906af5ee26950ac05d892eb0cd127d744888cf2319a20cfc57c92f928161bb1ff8e008213a7d1bc381d650fea766023af08bfeb2d539f46c38bc9e54d9dd39dd5d141b0c1b9ed55804862d05c2b83e387586878da8810e7acef502e006dbc15f3952b1920e13e4ebf8f43621efef04c961ced3c8801280cb4c7f2a3e52bc786e3fefe0913bfd69ea66bf6dab63255253b70f1e8131249008a2498f4f9225321489c324e74d61f47c8ddbe6e8b07c9fa6aa51cdc4e98a8dcaeaebaf31600f155c63566dd542877ce2e2bf8e97a46f6acd8a1dd2aa20127f3c51b0ec9203bf0de68e3c98ea50320b2009c339c141583f15bb48fb774de3e3d068e52bcd716acba34bf726e42dc603b07a9507ae4b06699e4be06862e1120215f78bf31f51d08943ec013dd5c034bc2b746a231405f6756d37ac8a1c6abb6510d612c65c17994160c3697f8e40b75d60f750922be8835c10b5fb63fe2183284c7ac6c2c10070a54b214a5a268e56e489159fa01e022940193748ac1aee91f63a21a5391ccce093dd309129876aa1ba9ad7c691dc7acc0534daa7370d1522a802e742a4a62d67249227ad1e420ab3869a6edaba602359f47253c97f39f3d0f6506f0a8f79543fc27145dea49e15c2493fc6343bc3a69c085171f355d10517a67ca5d7648bb8c7c61edd99cdfb73ea262234ac6aff0871c0d83570d70de2f985098ce49e02ad0e8cc12cf53d1b0a22ae4d998a285c9194038c14742b3cb240e167aba2c937105f0b315f79a48d1be4a59412d71563a12b1ffdc0248f8b4c75ebd265b176b606044a4f11d1bb9cda9e885256166dd3cdd1299d1e89d4f92a9b8fb8860f90b0ae471a5264409f22eda8a3b832f1da37fe7d0c1fa14d3baec679f1b9373b64a61ffaea075af5b81e08e92b7e95f2b0eaf059fc8e4631590ddc3138e7a12d09f738a475190acf884b1de6406ac98120ff914039ff3e8d7d18e84aa7c2d4fea5755264bc35d4cdb4e785c27dd6d291c266e2b6a5038badfc4747c9db03a3a0fb85aaf9e5da484ef79dd457d038726f527ef0a76b90ce1ade57b1d475da58c6bfcf1d28ef1a8a96a90bbe40d105003c3cde5cc1cc8c0645d254bf0d18dc72fdf58ad65e90ec9ca3fccd4aa18f29acff9f4e1da74bda3490e8bdb7b5896212e741877199cb37348c52dff0429e01b4ba2c91586f42f91d987c4e8485936a3cb9c01687b534f6b9db4d5e7af2e79cc572f3e723ae4cf394f5c81b5129dc3fd0634da95c8ad9eaf0214fec524cbdc936ed9a9e94094bfa84579334c323dd38ef5406cdfe12f95e9a8b17d9a3b62c9271a4e74d6b0014c2ebc04ddc12edb34575a97bec2b800638f97b5d39d497986ff6f5b2a27cd94a645be8b7d43ecd97c75524601db24a19670fba799b713e20be37c2aee1baead1763a8d4da671dfd4e4e131f846f644aaeca778a7ab76a5f8f8eb175f9c03aea732365b72ce4f393af22d131a36c2a61405b2451ea92d989e936acf880f4d05a889542447219ba5dc2e9773e642ca039a82938e983ff82b2d11a0c90eebdc7c3073ad188756cd1ee475275de720d5debefec2d7553eb98232cf06939181194f75fb8a6f8bb0e26f28499e64327de51534b41653ab373fd6b09652619c2f443217388adb2af896e12125848de98087b8396fa7d088a8e3bfc2bf472beaf962f44f7461866064ccb161b1f36606983858b9ea7afb2b7c2c6d0fa0e2c677f8f909597b8bfc5ddf9132836575e6a707a8396a6b0b5b8ccd4dae5f51d234142467982858a8b9ea5bfdee2ed0000000000000000000000000000121f324201fd21050046bbfe5f76dd700647ad27da4c9bd3e4deb69fafe595150538650d9d067f53047c3a90baaebe16f619fe5bbd6f8f8f9fd7ad597e8483f57703d0c5476d631184faac45baba83173935e2c04de748e4e8e157679c3b057f3812c7ad612bddbda32f1d2f3242c1ffbd563d37d66c7eac1919becc045133232465df29588f78d6dd2690702dbd3cf5b3178b697d453ecab829e5ce73b733d3b1030f9d04dc81ab7591dd34ecdbadff7c8e4882f60492b4ee8b84e8244224b6b5ef4e1bec3b896eea46937b2ce73d71b3e3b18804a418431ade5aaaffc64934787a776994f659ee37932e4ef2c10d88efbef70be3009b21c05ae2c1ceab45f5ca637184aab86d89d330203cfc1470fb50fe3b16ffaa5964c650812ac24bc608f5c0be0bf491215c5ab87d9c7aa530ab073a84fde77baa203ca9c1d5798f1b5fd50472631b45591e0d3812513923f3899326d63e01a1345e7916a6bf141718d3dcb75ae60cc2ea66562d869657209e0fdde43b76044b91e02b443f44a4820dcf62afc9c855511e7a4e31737d92bd5b807d11249ffb5d94c498b2fff57629c8aaf9ddc8db84cad1ed425287808f041649590606bc503bc643b07f351a5c3a334f47099201524390f5fb8474ced2c8f8e181649d12de0dd752f17a9e98cff8fc2976d0ea407d67a611a8ec1a57777c74b0a47a7f59a62a3537f5f20b97de1ab884cf7340186656c87573fc77097594c825d387f1d9ad8c1ff8f62245cc789172ea548dfb2c1b8cdc7236e4dbbd43aeeadf77244c97ae683eaf2e71bea9e84c0071e6bec17e8e8444a0b5d4c68ae7c2615d72b0b74c43320f55b643a2dae6cc604deb7cd497b8164e4fb57f6608b4a754cfa55ac229e5737fe0ce1947a0e00d8628efff28f78ee2ddeafaa283eb61c67699ef8423bb1dfde194758e4eabfd0c99e2953f5ff1d94b1ce8f4ae529fbb0cd645e8db69c92757ea26a383322a3b5fc0cf44726fdc04324d04d2a928f010409751b00cf1a9dc9b2a9cdddd2b298b7b5154c27ea88cb0cca3dd49518057a1eab3d3b98df8a11459b9c91b59366b44232f2fb18a8e52379877c6b68770e56e6784d2b072b99fd740e5c0b496249b6c5b026a791416862ecc32f14556e61fa1e812c07493f2efd4ab99306bd363918557aeea5fe8593ae08fc55d0013cfab5b3dbc6372cefa4196f1d29dbe1ed5f890789860c5bea032719f90c3b8df1493e6e318a776d23ce83ec2ef8fc732e33452be788f31d835942b607953066c0e4471a76816079fc008768c34b88df9046180fce30f248145db9486b1a099754555ae989d8f4ef6f9099882ef506ef32ea2161dcb87b1db85bfe0792a8c24057c2dd89d6572b17283da34dc5bfcd7ad339972ac0419197cd9b2140a607536ccbd3d2c5da5560364e06921fc6cdaed8e03493b28eb613c3425f942af507081d6d6ddbb409540c88f7c961c7fb9b1b26eb4e3f793d6de7ee2577b8f462d0cf78c9336ba75a6719467ac9df0f4eb0880795c7a9b4d830a263550e97c99c23f8b90e60e3507924ec5d1a4db50b182b34f6525b52d42523c8187161fc16a0961420f74b19ce4bf62882c644c074e021b63976856100f0f030b9fc2e1a853e9c756ea2afca3a7d2891a5ed9b3f01de606a8fc5e0901611389dc4a81e96ec488b81c26905243e125fd5dc2af394fb9cee0dede7415c997f773c93abef20fbc2b9fb119233bf9e6c81110f3c318dbbaa0aca956f6cde570555683643c841a9425a706fd217896369ceb34b0130fcf8172aa395607815f178fd7ef779e6d619a85d2cc533843466934314dd3a696af3d468340e85433c6dc0709cbce3838954a1f67f481000000",
  "txid": "0984ebc877455a96f1eb3ce98827dd6332c9c4c12033a82c45915484bf470090",
  "hash": "e7ddb57e6b2588947dc90de3617f178ee70024bb3052082b0f026984926e102a",
  "size": 5085,
  "vsize": 2278,
  "version": 1,
  "locktime": 129,
  "vin": [
    {
      "txid": "b9b7e4abf424def9076d5528fd83fa0f8ca50d61a03e3d0fe1748fd68698c7cf",
      "vout": 0,
      "scriptSig": {
        "asm": "",
        "hex": ""
      },
      "txinwitness": [
        "46c97d2f6d2523e239e38a10ef0e0ff864172ad876c6f6c7bd0bb1658fea312a0f73cef258770616acc2fdb09d56c36379a2193dd52177dff433b0e811fc9dfa6d35abc347101ce4b5712477c250d875941aefe9e603c2cd4ad8535782c26baaa76d71b514a8a4393f40b1fe59f4ab4cae2dbfcd8068630a3d812d019fe475bd246eb92c796e5b2e54b5793e2485f6772e7276ba82e6b65a96c62dae7d6e27c7033b14694853d17059b8961388f87ac21bbba30a34002caf60a939932da71c59eb8ab77a8e08ce6ba9cbbfef42493f141f70304389cdf3423f5f8a5a68b993f31bd13d292660636797b32af74389d876579e6a89e6e555cf72def80542825e4fb887aeb924f9c53aa241ffd0d1f85070b29e40d926b28713b3d7a9b36b2a7663d212f7d64feb97dedd006468dc9c20cc23d3757f82c315ed37872214f92f8feff932b89e89b4adb47c2fdee673ccc1b5dd635691b6ef2a9a351475338781e867e8541c8baabd52957a4ba58331540f26ef89bef06b269942ce43468d175a4e8116eff7125fb707ee8d25b44b21a212a59e01036532d58fa3eecb00f73ba68caf29cc5d5c31d8ab530a49370f1bac3b61cc0f3a1820e6cfa4fd17069edb0d318bf2bf79e825c6cf16cd03f6e236005308fd708a453f6dd9db0f7aaebc469e8851500610c571864b0b26ea2febf8f3fc2f273a0c970a43ec29ddc7d94abb959767eca94e820ae90196cd0f2206aa2c5ca699481648f52ccfbba681b617e73276d70210dbca870c0c792ce23f8eb96c38154af90c73014552f826989933b0f21f63bf0f170a9d4e1d27d84ab957cd39bad36bb10621d96d2eaf6e40d274bdbff65c6acd77651c0483d66e3a67533807be914ba836388a1a82ca0761bf5a026645657bdbfbad9a912e30d3915bfe64fee9e7ce7962336e89d282cf964dfa496ec745fd35d287f3821994a4f23a037a5fcca286de1aebe22081907cc69ade1c1c310f1b34a5bd86e4b11948e0faaf2b83d93f59f88d3b71a4e82af6f00fc38ff36f9032ef9b5234e7d849d9abcb3a1e470c27332662f3e7616d9ea914297c531541c8ff8f56379ffa141f59445a159be61a420114ad9079c2ee18e1b370c9cb503ca1898e58737bb9d527b3250c93d7168ce6340bb72cc8dce04c0c8ecbe3c91601a2e3e99401eb75ec0fd6c74e3f9445b81e81d7d7e996c25f6f1cb8f2ec88e17f81d00ddb0c3fdf7b44cd65c6dda535a11336cdbd11a775ecf1d6d2b92758cf1ba1d93f45b7d42fe9ac08896c06534eb09541c4c1d012a787cfaa2d42afba767e793e7cd615867900f7c84d8b9d20941b23fa37cb894c9bc914ddea2c75a47629985d9440de10efff9713c402898dbc08067c910e3b84dc7a290009098547b6c33cb6206704d7c9b815f5fdaa6ce995bc8b4964fb80b77272b3c7986be3b67a03b2895da6af13d82b7625b668f5ab62c8fde5968730afa6e28ec5c86bc8432e056a6947cff23364266742ae216a382b9f40abd67b2a24a4894dac3f2dc2600ff931d41c033ee78f5f59dce44b98dd4b143a3269c9a6e8b9095b7bbb2707cabe2f353b1d02aa5162aa9993f29906af5ee26950ac05d892eb0cd127d744888cf2319a20cfc57c92f928161bb1ff8e008213a7d1bc381d650fea766023af08bfeb2d539f46c38bc9e54d9dd39dd5d141b0c1b9ed55804862d05c2b83e387586878da8810e7acef502e006dbc15f3952b1920e13e4ebf8f43621efef04c961ced3c8801280cb4c7f2a3e52bc786e3fefe0913bfd69ea66bf6dab63255253b70f1e8131249008a2498f4f9225321489c324e74d61f47c8ddbe6e8b07c9fa6aa51cdc4e98a8dcaeaebaf31600f155c63566dd542877ce2e2bf8e97a46f6acd8a1dd2aa20127f3c51b0ec9203bf0de68e3c98ea50320b2009c339c141583f15bb48fb774de3e3d068e52bcd716acba34bf726e42dc603b07a9507ae4b06699e4be06862e1120215f78bf31f51d08943ec013dd5c034bc2b746a231405f6756d37ac8a1c6abb6510d612c65c17994160c3697f8e40b75d60f750922be8835c10b5fb63fe2183284c7ac6c2c10070a54b214a5a268e56e489159fa01e022940193748ac1aee91f63a21a5391ccce093dd309129876aa1ba9ad7c691dc7acc0534daa7370d1522a802e742a4a62d67249227ad1e420ab3869a6edaba602359f47253c97f39f3d0f6506f0a8f79543fc27145dea49e15c2493fc6343bc3a69c085171f355d10517a67ca5d7648bb8c7c61edd99cdfb73ea262234ac6aff0871c0d83570d70de2f985098ce49e02ad0e8cc12cf53d1b0a22ae4d998a285c9194038c14742b3cb240e167aba2c937105f0b315f79a48d1be4a59412d71563a12b1ffdc0248f8b4c75ebd265b176b606044a4f11d1bb9cda9e885256166dd3cdd1299d1e89d4f92a9b8fb8860f90b0ae471a5264409f22eda8a3b832f1da37fe7d0c1fa14d3baec679f1b9373b64a61ffaea075af5b81e08e92b7e95f2b0eaf059fc8e4631590ddc3138e7a12d09f738a475190acf884b1de6406ac98120ff914039ff3e8d7d18e84aa7c2d4fea5755264bc35d4cdb4e785c27dd6d291c266e2b6a5038badfc4747c9db03a3a0fb85aaf9e5da484ef79dd457d038726f527ef0a76b90ce1ade57b1d475da58c6bfcf1d28ef1a8a96a90bbe40d105003c3cde5cc1cc8c0645d254bf0d18dc72fdf58ad65e90ec9ca3fccd4aa18f29acff9f4e1da74bda3490e8bdb7b5896212e741877199cb37348c52dff0429e01b4ba2c91586f42f91d987c4e8485936a3cb9c01687b534f6b9db4d5e7af2e79cc572f3e723ae4cf394f5c81b5129dc3fd0634da95c8ad9eaf0214fec524cbdc936ed9a9e94094bfa84579334c323dd38ef5406cdfe12f95e9a8b17d9a3b62c9271a4e74d6b0014c2ebc04ddc12edb34575a97bec2b800638f97b5d39d497986ff6f5b2a27cd94a645be8b7d43ecd97c75524601db24a19670fba799b713e20be37c2aee1baead1763a8d4da671dfd4e4e131f846f644aaeca778a7ab76a5f8f8eb175f9c03aea732365b72ce4f393af22d131a36c2a61405b2451ea92d989e936acf880f4d05a889542447219ba5dc2e9773e642ca039a82938e983ff82b2d11a0c90eebdc7c3073ad188756cd1ee475275de720d5debefec2d7553eb98232cf06939181194f75fb8a6f8bb0e26f28499e64327de51534b41653ab373fd6b09652619c2f443217388adb2af896e12125848de98087b8396fa7d088a8e3bfc2bf472beaf962f44f7461866064ccb161b1f36606983858b9ea7afb2b7c2c6d0fa0e2c677f8f909597b8bfc5ddf9132836575e6a707a8396a6b0b5b8ccd4dae5f51d234142467982858a8b9ea5bfdee2ed0000000000000000000000000000121f324201",
        "0046bbfe5f76dd700647ad27da4c9bd3e4deb69fafe595150538650d9d067f53047c3a90baaebe16f619fe5bbd6f8f8f9fd7ad597e8483f57703d0c5476d631184faac45baba83173935e2c04de748e4e8e157679c3b057f3812c7ad612bddbda32f1d2f3242c1ffbd563d37d66c7eac1919becc045133232465df29588f78d6dd2690702dbd3cf5b3178b697d453ecab829e5ce73b733d3b1030f9d04dc81ab7591dd34ecdbadff7c8e4882f60492b4ee8b84e8244224b6b5ef4e1bec3b896eea46937b2ce73d71b3e3b18804a418431ade5aaaffc64934787a776994f659ee37932e4ef2c10d88efbef70be3009b21c05ae2c1ceab45f5ca637184aab86d89d330203cfc1470fb50fe3b16ffaa5964c650812ac24bc608f5c0be0bf491215c5ab87d9c7aa530ab073a84fde77baa203ca9c1d5798f1b5fd50472631b45591e0d3812513923f3899326d63e01a1345e7916a6bf141718d3dcb75ae60cc2ea66562d869657209e0fdde43b76044b91e02b443f44a4820dcf62afc9c855511e7a4e31737d92bd5b807d11249ffb5d94c498b2fff57629c8aaf9ddc8db84cad1ed425287808f041649590606bc503bc643b07f351a5c3a334f47099201524390f5fb8474ced2c8f8e181649d12de0dd752f17a9e98cff8fc2976d0ea407d67a611a8ec1a57777c74b0a47a7f59a62a3537f5f20b97de1ab884cf7340186656c87573fc77097594c825d387f1d9ad8c1ff8f62245cc789172ea548dfb2c1b8cdc7236e4dbbd43aeeadf77244c97ae683eaf2e71bea9e84c0071e6bec17e8e8444a0b5d4c68ae7c2615d72b0b74c43320f55b643a2dae6cc604deb7cd497b8164e4fb57f6608b4a754cfa55ac229e5737fe0ce1947a0e00d8628efff28f78ee2ddeafaa283eb61c67699ef8423bb1dfde194758e4eabfd0c99e2953f5ff1d94b1ce8f4ae529fbb0cd645e8db69c92757ea26a383322a3b5fc0cf44726fdc04324d04d2a928f010409751b00cf1a9dc9b2a9cdddd2b298b7b5154c27ea88cb0cca3dd49518057a1eab3d3b98df8a11459b9c91b59366b44232f2fb18a8e52379877c6b68770e56e6784d2b072b99fd740e5c0b496249b6c5b026a791416862ecc32f14556e61fa1e812c07493f2efd4ab99306bd363918557aeea5fe8593ae08fc55d0013cfab5b3dbc6372cefa4196f1d29dbe1ed5f890789860c5bea032719f90c3b8df1493e6e318a776d23ce83ec2ef8fc732e33452be788f31d835942b607953066c0e4471a76816079fc008768c34b88df9046180fce30f248145db9486b1a099754555ae989d8f4ef6f9099882ef506ef32ea2161dcb87b1db85bfe0792a8c24057c2dd89d6572b17283da34dc5bfcd7ad339972ac0419197cd9b2140a607536ccbd3d2c5da5560364e06921fc6cdaed8e03493b28eb613c3425f942af507081d6d6ddbb409540c88f7c961c7fb9b1b26eb4e3f793d6de7ee2577b8f462d0cf78c9336ba75a6719467ac9df0f4eb0880795c7a9b4d830a263550e97c99c23f8b90e60e3507924ec5d1a4db50b182b34f6525b52d42523c8187161fc16a0961420f74b19ce4bf62882c644c074e021b63976856100f0f030b9fc2e1a853e9c756ea2afca3a7d2891a5ed9b3f01de606a8fc5e0901611389dc4a81e96ec488b81c26905243e125fd5dc2af394fb9cee0dede7415c997f773c93abef20fbc2b9fb119233bf9e6c81110f3c318dbbaa0aca956f6cde570555683643c841a9425a706fd217896369ceb34b0130fcf8172aa395607815f178fd7ef779e6d619a85d2cc533843466934314dd3a696af3d468340e85433c6dc0709cbce3838954a1f67f4"
      ],
      "sequence": 4294967294
    }
  ],
  "vout": [
    {
      "value": 1.0,
      "n": 0,
      "scriptPubKey": {
        "asm": "OP_RETURN 5ba71635e93e15d7d5df3e60b357d65faa175789e8923165f8ff26a87460c2fd 09f28b3ec69a34651d6b4d92923e69a7ec5f552a42352eeb03842af434d3f17529d2ab1ee6ba14453d4b6db2b21e4987cc7f750a62150ecb23a40ad414f3d15549b2cb7e86da74255d2b0dd2d27e29e7ac1f156a02756eab43c46ab47493b1356992eb5ea6fa54057d0b2df2f25e09c78c3f354a22554e8b63e44a9454b3911589720bbe461ab4e59debcd1212bee9276cdfd5aac2b5ae6b8304aa74b45371f5a9522b9e663a94c5bdcbed32329ec9074cfff58ae2958e4ba3248a54947351d5c9324bfe065af4a5ddab8d5252fea9672c9f95ea82f5ee2bc344ea34f41331b5e9126bde267ad485fd8bad7272de89470cbfb5caa2d5ce0be364ca14d433119509f28b3ec69a34651d6b4d92923e69a7ec5f552a42352eeb03842af434d3f17529d2ab1ee6ba14453d4b6db2b21e4987cc7f750a62150ecb23a40ad414f3d15549b2cb7e86da74255d2b0dd2d27e29e7ac1f156a02756eab43c46ab47493b1356992eb5ea6fa54057d0b2df2f25e09c78c3f354a22554e8b63e44a9454b3911589720bbe461ab4e59debcd1212bee9276cdfd5aac2b5ae6b8304aa74b45371f5a9522b9e663a94c5bdcbed32329ec9074cfff58ae2958e4ba3248a54947351d5c9324bfe065af4a5ddab8d5252fea9672c9f95ea82f5ee2bc344ea34f41331b5e9126bde267ad485fd8bad7272de89470cbfb5caa2d5ce0be364ca14d433119509f28b3ec69a34651d6b4d92923e69a7ec5f552a42352eeb03842af434d3f17529d2ab1ee6ba14453d4b6db2b21e4987cc7f750a62150ecb23a40ad414f3d15549b2cb7e86da74255d2b0dd2d27e29e7ac1f156a02756eab43c46ab47493b1356992eb5ea6fa54057d0b2df2f25e09c78c3f354a22554e8b63e44a9454b3911589720bbe461ab4e59debcd1212bee9276cdfd5aac2b5ae6b8304aa74b45371f5a9522b9e663a94c5bdcbed32329ec9074cfff58ae2958e4ba3248a54947351d5c9324bfe065af4a5ddab8d5252fea9672c9f95ea82f5ee2bc344ea34f41331b5e9126bde267ad485fd8bad7272de89470cbfb5caa2d5ce0be364ca14d433119509f28b3ec69a34651d6b4d92923e69a7ec5f552a42352eeb03842af434d3f17529d2ab1ee6ba14453d4b6db2b21e4987cc7f750a62150ecb23a40ad414f3d15549b2cb7e86da74255d2b0dd2d27e29e7ac1f156a02756eab43c46ab47493b1356992eb5ea6fa54057d0b2df2f25e09c78c3f354a22554e8b63e44a9454b3911589720bbe461ab4e59debcd1212bee9276cdfd5aac2b5ae6b8304aa74b45371f5a9522b9e663a94c5bdcbed32329ec9074cfff58ae2958e4ba3248a54947351d5c9324bfe065af4a5ddab8d5252fea9672c9f95ea82f5ee2bc344ea34f41331b5e9126bde267ad485fd8bad7272de89470cbfb5caa2d5ce0be364ca14d433119509f28b3ec69a34651d6b4d92923e69a7ec5f552a42352eeb03842af434d3f17529d2ab1ee6ba14453d4b6db2b21e4987cc7f750a62150ecb23a40ad414f3d15549b2cb7e86da74255d2b0dd2d27e29e7ac1f156a02756eab43c46ab47493b1356992eb5ea6fa54057d0b2df2f25e09c78c3f354a22554e8b63e44a9454b3911589720bbe461ab4e59debcd1212bee9272aa96a60ee74c9e5e30620c78776cd5e03a658bf19ecfb316e62259b965bd76c",
        "hex": "6a205ba71635e93e15d7d5df3e60b357d65faa175789e8923165f8ff26a87460c2fd4db00409f28b3ec69a34651d6b4d92923e69a7ec5f552a42352eeb03842af434d3f17529d2ab1ee6ba14453d4b6db2b21e4987cc7f750a62150ecb23a40ad414f3d15549b2cb7e86da74255d2b0dd2d27e29e7ac1f156a02756eab43c46ab47493b1356992eb5ea6fa54057d0b2df2f25e09c78c3f354a22554e8b63e44a9454b3911589720bbe461ab4e59debcd1212bee9276cdfd5aac2b5ae6b8304aa74b45371f5a9522b9e663a94c5bdcbed32329ec9074cfff58ae2958e4ba3248a54947351d5c9324bfe065af4a5ddab8d5252fea9672c9f95ea82f5ee2bc344ea34f41331b5e9126bde267ad485fd8bad7272de89470cbfb5caa2d5ce0be364ca14d433119509f28b3ec69a34651d6b4d92923e69a7ec5f552a42352eeb03842af434d3f17529d2ab1ee6ba14453d4b6db2b21e4987cc7f750a62150ecb23a40ad414f3d15549b2cb7e86da74255d2b0dd2d27e29e7ac1f156a02756eab43c46ab47493b1356992eb5ea6fa54057d0b2df2f25e09c78c3f354a22554e8b63e44a9454b3911589720bbe461ab4e59debcd1212bee9276cdfd5aac2b5ae6b8304aa74b45371f5a9522b9e663a94c5bdcbed32329ec9074cfff58ae2958e4ba3248a54947351d5c9324bfe065af4a5ddab8d5252fea9672c9f95ea82f5ee2bc344ea34f41331b5e9126bde267ad485fd8bad7272de89470cbfb5caa2d5ce0be364ca14d433119509f28b3ec69a34651d6b4d92923e69a7ec5f552a42352eeb03842af434d3f17529d2ab1ee6ba14453d4b6db2b21e4987cc7f750a62150ecb23a40ad414f3d15549b2cb7e86da74255d2b0dd2d27e29e7ac1f156a02756eab43c46ab47493b1356992eb5ea6fa54057d0b2df2f25e09c78c3f354a22554e8b63e44a9454b3911589720bbe461ab4e59debcd1212bee9276cdfd5aac2b5ae6b8304aa74b45371f5a9522b9e663a94c5bdcbed32329ec9074cfff58ae2958e4ba3248a54947351d5c9324bfe065af4a5ddab8d5252fea9672c9f95ea82f5ee2bc344ea34f41331b5e9126bde267ad485fd8bad7272de89470cbfb5caa2d5ce0be364ca14d433119509f28b3ec69a34651d6b4d92923e69a7ec5f552a42352eeb03842af434d3f17529d2ab1ee6ba14453d4b6db2b21e4987cc7f750a62150ecb23a40ad414f3d15549b2cb7e86da74255d2b0dd2d27e29e7ac1f156a02756eab43c46ab47493b1356992eb5ea6fa54057d0b2df2f25e09c78c3f354a22554e8b63e44a9454b3911589720bbe461ab4e59debcd1212bee9276cdfd5aac2b5ae6b8304aa74b45371f5a9522b9e663a94c5bdcbed32329ec9074cfff58ae2958e4ba3248a54947351d5c9324bfe065af4a5ddab8d5252fea9672c9f95ea82f5ee2bc344ea34f41331b5e9126bde267ad485fd8bad7272de89470cbfb5caa2d5ce0be364ca14d433119509f28b3ec69a34651d6b4d92923e69a7ec5f552a42352eeb03842af434d3f17529d2ab1ee6ba14453d4b6db2b21e4987cc7f750a62150ecb23a40ad414f3d15549b2cb7e86da74255d2b0dd2d27e29e7ac1f156a02756eab43c46ab47493b1356992eb5ea6fa54057d0b2df2f25e09c78c3f354a22554e8b63e44a9454b3911589720bbe461ab4e59debcd1212bee9272aa96a60ee74c9e5e30620c78776cd5e03a658bf19ecfb316e62259b965bd76c",
        "type": "nulldata"
      }
    },
    {
      "value": 499972.5437,
      "n": 1,
      "scriptPubKey": {
        "asm": "1 c62d606249d6505c3bae8e2915761844843f995b0d839a6b9205377037d1fee1",
        "hex": "5120c62d606249d6505c3bae8e2915761844843f995b0d839a6b9205377037d1fee1",
        "reqSigs": 1,
        "type": "witness_v1_scripthash",
        "addresses": [
          "3QJmnh"
        ]
      }
    }
  ],
  "blockhash": "e950f66e7d48487e03ac7a1b4e7864aa28758accf0e3d98358cdf64a352531e0",
  "confirmations": 1,
  "time": 1764181937,
  "blocktime": 1764181937
}