{
  "hex": "01000000000101b09a5921abc2046d7364180f22a64f014b47aae068bfef862cfd5c2e4e3438740000000000feffffff0200e1f50500000000fdd5046a2026d283915d340d0b722e7ef6e2a5cbb05abf5c7863272dd228751ef4115fe4c24db004a12b5be561e8ca8f4d1c94ebd431b3975d07e01b62cbbddc492831a5194af068810b7bc541c8eaaf6d3cb4cbf41193b77d27c03b42eb9dfc69081185396ad048e16b1ba521a88acf0d5cd4ab9471f3d71d47a05b228bfd9c096871e5590ab028c14b3b850188aaef2d7cf48bb451d3f73d67807b02abddbc294851c5792a900821abdb65e1684a0fcd9c146b54b13317dd87609be24b3d5cc9a8b12599ca70e8018bfb45c1486a2fedbc344b74911337fda740bbc26b1d7ce9889105b9ea50c861eb9b25a1280a4f8ddc542b14f173579dc720dba20b7d1c89e8f165d98a30a841cbbb0581082a6fadfc740b34d15377bde700fb822b5d3ca9c8d145f9aa1088a12b5be561e8ca8f4d1c94ebd431b3975d07e01b62cbbddc492831a5194af068810b7bc541c8eaaf6d3cb4cbf41193b77d27c03b42eb9dfc69081185396ad048e16b1ba521a88acf0d5cd4ab9471f3d71d47a05b228bfd9c096871e5590ab028c14b3b850188aaef2d7cf48bb451d3f73d67807b02abddbc294851c5792a900821abdb65e1684a0fcd9c146b54b13317dd87609be24b3d5cc9a8b12599ca70e8018bfb45c1486a2fedbc344b74911337fda740bbc26b1d7ce9889105b9ea50c861eb9b25a1280a4f8ddc542b14f173579dc720dba20b7d1c89e8f165d98a30a841cbbb0581082a6fadfc740b34d15377bde700fb822b5d3ca9c8d145f9aa1088a12b5be561e8ca8f4d1c94ebd431b3975d07e01b62cbbddc492831a5194af068810b7bc541c8eaaf6d3cb4cbf41193b77d27c03b42eb9dfc69081185396ad048e16b1ba521a88acf0d5cd4ab9471f3d71d47a05b228bfd9c096871e5590ab028c14b3b850188aaef2d7cf48bb451d3f73d67807b02abddbc294851c5792a900821abdb65e1684a0fcd9c146b54b13317dd87609be24b3d5cc9a8b12599ca70e8018bfb45c1486a2fedbc344b74911337fda740bbc26b1d7ce9889105b9ea50c861eb9b25a1280a4f8ddc542b14f173579dc720dba20b7d1c89e8f165d98a30a841cbbb0581082a6fadfc740b34d15377bde700fb822b5d3ca9c8d145f9aa1088a12b5be561e8ca8f4d1c94ebd431b3975d07e01b62cbbddc492831a5194af068810b7bc541c8eaaf6d3cb4cbf41193b77d27c03b42eb9dfc69081185396ad048e16b1ba521a88acf0d5cd4ab9471f3d71d47a05b228bfd9c096871e5590ab028c14b3b850188aaef2d7cf48bb451d3f73d67807b02abddbc294851c5792a900821abdb65e1684a0fcd9c146b54b13317dd87609be24b3d5cc9a8b12599ca70e8018bfb45c1486a2fedbc344b74911337fda740bbc26b1d7ce9889105b9ea50c861eb9b25a1280a4f8ddc542b14f173579dc720dba20b7d1c89e8f165d98a30a841cbbb0581082a6fadfc740b34d15377bde700fb822b5d3ca9c8d145f9aa1088a12b5be561e8ca8f4d1c94ebd431b3975d07e01b62cbbddc492831a5194af068810b7bc541c8eaaf6d3cb4cbf41193b77d27c03b42eb9dfc69081185396ad048e16b1ba521a88acf0d5cd4ab9471f3d71d47a05b228bfd9c096871e5590ab028c14b3b850188aaef2d7cf48bb451d3f73d67807b02abddbc294851c5792a900821abdb65e1684a0fcd9c146b54b133177e8c716f5b81ac287b43033468e6448cbcbd5ad12fdb9c687a25517794f1d31710cdd4fc782d0000225120767b20b9142543b4c459f5e658c3c2b81336a1891cd31b2bcf8954234568c67402fd75098d81270ce8ace461bdabdf587ecec6f429120208ba2607a7abd0c1fe06e1e1a5ca0e93964c445ff7bbc1ead8746523d44be1195c2abc7b730dda706e6e691b31942a21eb09cacf1348b214875dfe1a086c9b5c4ec24ba24dff3e1570f3473f9dab03ea7d1ab107fecba9c74f8fb93051168e5ffa4cc7d495499560b68cbbb5339c9df96a48c5900465050eff7e4247c83f9f8a23cf295d4c754268d80bf5d9ac5bb02b07f1ee0a5a47809269b3071299a59505f3a0384eb7f4f68f4c96414aaa6772c5aa242840a1161c649849bd79a97b7bc9fabecdb48f92b3eeb700b074f261ab16e7f0f810147f5d6243b3120717fb711bdd39cd6c6c35bdb15cb8fd6ab5ad0da843737fe5c995a3f754144c6a8d89e65086dda5794365abb0aec5ae59d6ec4c7b8a7105e3377d9af6317c10e51c42fe505435015fe30f22656cfbb1709b471c331e633b1f2ea7a5a72b42f8c2ae40acd5044f88f23f81d5f9def1e68d78417032db9cc4a25962926a853bedbbea0a05a97abb14607ffaa1bfc2bdbb600e48f8213003a6966487ddaf05dc88d95eb56d63de47ada95f9fbb368c625acd412d2445c8c9b39b3d4206acab672639d457a6f91f57cbc7c08a0a5d93bed9872867664ad351baae0c6d62fff7a23491a2e0c0682265dcddb971a42016bf7f8c6a59e351d171643e840edf385c9c72b8bb3cfbc8a6b81337d6081efae75fb7f4c827f72a744b9277412472be692662b1b998e852f038555a527207c7abf18aa86682d858817182677b5752e93ed568a320e93465935a581a9a2c9c14321d81b69e618c51832743a01f36fb8eb14c40c2b85e2ca2d8b12b043090afd51cf9a0fcb35adf51f33c2a0b98d70707ee3a764c0823569f262c66cf2c216d80d8b29a2704c21bf2c37bcea247f1efd0d6a013ac94ddb91982577439dfa98e6ef805c0527105e83095f5bfd1386d36bd172c7fde66d24e9ac7d6fd65fa93039bc1a740417ead389757426809cf5a99cd31856582b7503b51f5dcf5155611ccd206eee8e047cf909658e1cc8873bd4b6055f7214d0cb0912f94ed66cdf0efd52c967a921b272fe0d331ad6bfc3d365127d930a51591c3c64e01dbd0490cee4d3f3b35b595820aa7e710ad91af0f26ab9e4d25d68c4cc48acde64d1366df1ef372c7a41752d522eab043ba6bac77a834efa51a5cfacc773a5748ed951574a746d76489d3f4f902cde325fc5f09c88773ab5c76ae1210c1c2757e6d76e129503eb322e3ccc3a838bd5928d1652836cf4e725a4079ea189688fe4ec57a55bb0e18f862cab656136f493bf06511ffcd2303701cab9a1b9203db777baca4f077247a9af32fa2bc281f6fb0639a3a4abf19fa834b44f9a889f3fe1e96bc203de15f1233699a9df6e25e81d358877fcf80c3e7415cceae12527852afc5eaaa65193c94eb917f8693b97ef8a8e9e74b29ec92b3802d10b42d42a8563d93bfebe6ffefe31bff75410a1b4ebe9111440c4e231eaf5b8af829c66bbbf1ae79207dd7111dbe51b9a825f8e2eebfa44e6d596ba9eca79504ed53aa6ce48dd8e762c81002bc7a000c273af85072de54b29c7c8d50073f4de0ef0fdb5a9db1d9786bb88613a998b96404feb34fcedc3fe6846676eec63813289a4523fb07aa2200330fb6acf199395527259f478eb7b4f4244bc863fd2dc91cc519d8ec9a8eb711b0838dd8a4243f3fbe775665cf060ff1f41a1bed708963c2fc29c1c03c34e0db1421e393424f6cac174096963819241f9e62df56567892669e3eeaf79b144a08b5fb987c31e6b7c3fc6add6b6ec4d997f52c4f77c672b3dd3e1b7acbdeb6b6048dc1542962356322f5775613b237bd1c2f0bf50b2959c291a0f919b765e8610b15823ec6ed89df64d42b8f0532613751eb5bf915f254a07855117f211975d85a25ba9b21fb82181c75a316631590e00098bf962481625ef380fcfad89f4aa799082e4e7f13aea02a21ebf76a0b4534cd58111462d18fb57dd8b4d84017aa525e3f3675b6795a304100e6c672e9278f3ef644928a1b6ed4114a32b9c98700ed83449f0ec9f709ac30b93c5c1afbeb17c30dfc69740a6b6de9222dc27abfd6b2113ea25e82ed720a2e39dcf5f85af8b99b84354d6a7c55710190add90c4b131b9da33a393710b22da3cf208aff4e4ea9734f5b6418663ef0babf6664e93412ddaf9512b1b1abd7cc10dea94abf5697c102c8cbfbcd9b30f19fa769ee697a0c37f7789a382bb33fb8cc54845de0b0e000fbd3771b5f219ea682a89b6046398861e90fe3ae7e03eaf1bd75d023bf10598e34838aa340c62a6d51caf6da88aa3f8afd8dae1fe3bb9240587f4b303aad4ecc4ecbd3992bf73100ec30ac8da25844c83949154dab728fd8a3fdc9157f65233b851a555ae486c45f28b39901fe3e1aed3aa79f42f02fe785e0bf8c976340487792dd6bce99d922ba505a28d8cd391e3923ffb03032cb3195355e86070f9079f7c2690a84483abb7d821c0398d2e8e0636b969ee8a5060fbdc16cc338ea9ba57db6ad4a8d0d5a380159cc1be23d10200ae6b927683469eb0813107cf69dcc07172c629d1cc8e5a83b8d0cc4b3381fd66a995e7cd090577ef92aa9bdca56b2e9dc900341e069c0209543dc6fc5185727dd1fc04944a2297cc734bf2a44cfcc55598d9d288bf239f487f6d7d99a1288d6b2ae19c1fbaa725076cddb68f51b1de94603086b4952e42ea7024fde8328bdc5cb928e54ca53f357a4b1157bbd68fc8cdf19626e381b5718d2d885b12c7b078aa4eeabeb9cdf330dd1e2bde4b07ec2a09204144677858c17eb801f597f250c30f112b0d12d12a492d4273844e637d67b31fe72b5ee69be2eb06cb0392915a99b9bf182c72789d31f8c8c1648bb40f7353b7c6e4c4aaae9f6d58c9f2046350de2ad97386f67c724c48cef83db967f8a283d1aa78199e988e167d6ef4b6c3cacd8df1d2f3fd96ac66108c17f26e3ae7b1a8b570b62f6486f43e9c8e1276cdace519135ee3d173f162330e62a015974903546ea24b7a98579fd58bf655bfa000266f5b5cc5a5607f302099281c37599eba9240e257d16658b0656abcadc2a97ac03ae00449f7a81597533e2be490ba67460c7b209ebc92ffb3f00ae7fa4c64d6c2b493f9a2ff795a29f9319fe29d651f7236c7df1e04be65dc636649da641ef822b3a5b7e69f2565381006e6de117d62dad1282c5aef449bf6669f4437065891d816e71a28fd55b55fc439961f532128dfa20ec2f5fa4464d13ba73e46062b33f0793973c622ec65085c51483e611ee212d313b3d707f808fd4dae6ecf1f9fc0b20233c4b596070767e949ba2b8dde1ebff2931455481838eafb6dfe4e7f80927394047b4bfd5d9e5f60000000000000000000000000000000000000000000010222f3a01fd210500551509317ddeb1a2dc23f3a26cfe214b194743d976fe5a6e119280193d013752463e3d5f9c9c84c8577c2b2ec1fbd269aa8c9365c3b7b5aab763c213d1e41cf3988984fc7f92a030752ec74b89307a11ef93aff3d51b28b834ebd88508a28535b6974c56d1e5281493f6e19a7f1eee1afaea7aafaa7861ce40e9d40640325b0abbeab0a9af6866ec5be5ab7d91d4f1e4c14cd752266006ac8b932f422f4209913ee88e79f19e99b31651849e750ba5c34d6a7290ae9efb0b27ecbc3fe63018de94a5dc1c9e99dc347fdc57b4ea84305700e92717c3de6cd6ba49177bce4d23d3d07782c007e994a726d4429915bc33f9ccf0ac21a3e2732377089125c8371d8d46a77c8513962983f7f39e23f9cafe6d942962cd449beda0ac81a3e35ad4e60e705ef3f39494e5ab4580d90ab44c33ebadf8d8eb1c68ad53d1182aa0f52dc10622501a50cf95ce5f242c5189cf4057caf01258cf4956b7822486fe644ef98bb747f8410be9d5bbf09bf32c5907f552612e26a10f54099bd9c6e4f82e164e1289954049d2409952bfadf267ddb4ef491b3fc0b54c807711e2af5d56d7a954cfe820d768b450b1935ef186bb2350ade1ba8395d6c0a73a7bc4592db0a91dcf17540ebbaaa3237d0eb8d5ea75776c8f6c92f13f8eff641ede15fad19176d3452f83a7f52d5b30151020866ca5d911f48a341a3e61fade14dfd7cdc1c18e67fb690e89d322e86af440c0a958abb24c038c811c7b9fe4d4feedaeed35e6994748f6b0a91adc00edfb579ea2c3833eeece5a8c7a868ea08e1bb448d270e543e82a2268b94751ab9955b444e48967478b58019c681d5deea1d9aa3e823ad84408bab157c5df1f0ed7aa737e0c9e424901064960a50bac5f54efc1fbbecd271d1f61966e427b4743ed86254dfeb0034034804f5a50043e391115f18daf452714e69e46cb109bb4c0c2b464fff8f6aa688e6667bf56ec121d452403c50a4aeecd4b3cd20b0d26c23e4e79ddf682e1886c6df5f304c9c8caf0347bf2d955fca83531d4439b83558e8c1cfa685ec9ce2dfcb75e01c52dde529ea2bd540c5b6bd898aaa112be3142b580531c69988b54a140816b62f70ac73380549d0299136c89b77b8aed4129e5ba85920905eb6265a1809e183f9e76a55bb730013caf2b63be70fb8c68860e377a6853e1c0bba2eae798840795145630227109ce7747eea31ac8633f09cd28c2092d9c878963e276cfc94da155d82cb6e0d2457b8b6c32ead5dbfc2be29d0236675a3e67082d79d74e4a506b7ad516a8a62c0d0abbc6e7122489a3d627f5a7590009f8cee31bda120189f0d8068e47526c425cb5c0beebaee8f2efe4a9f24f49e952ca02b48ca9cd0e6877e20f2a30ea5cffb9c829b3ca16fab34834842380a172ba892b96d82dc0c747b4ad6bd1bc979b334059f616c2ab79dce11ceedf904dee0d22c829596e90f145add6a8bdbc48a3ef6821df885fe1aed7ad1c05c6d3aa2eb1a4fe031ded06ea9fd2dc45d4517c55c145fd3acb99aa7323fac58f660c6b986684b2047d14c6f77a5479ee5b18a6b7d2c7af966a636276a1fc3e99e9b2080e23e666052d15d80b9a05447546567434a57c9420f4ce962e50165c34980361c304a4fad25d45a4437fa19307593fd2f6567b1ba77fae035282560e531bf09f7d46e2f8f5eac06bfaea93257e43655cb40f2c739757e02d278c7c0044898ce9c917aa77cd928602b4e4718ad263b4367441415c797b4e1ef67a944227039cfb9522b234d9a5f16202b697f9e08044d0d2548e2b5578192f3a416833f48f91eb7907f6813875616851f551f2833993bbd273d4d6956b537a33daf63c15e779000000",
  "txid": "029f65ffc47b08d0cde89737e930161e3f5e3ee33c5add263eb343eeef343ee4",
  "hash": "14d7910028d762d2144f66ce3a19542fe747fa9d305d958e06515d82564ee666",
  "size": 5085,
  "vsize": 2278,
  "version": 1,
  "locktime": 121,
  "vin": [
    {
      "txid": "7438344e2e5cfd2c86efbf68e0aa474b014fa6220f1864736d04c2ab21599ab0",
      "vout": 0,
      "scriptSig": {
        "asm": "",
        "hex": ""
      },
      "txinwitness": [
        "8d81270ce8ace461bdabdf587ecec6f429120208ba2607a7abd0c1fe06e1e1a5ca0e93964c445ff7bbc1ead8746523d44be1195c2abc7b730dda706e6e691b31942a21eb09cacf1348b214875dfe1a086c9b5c4ec24ba24dff3e1570f3473f9dab03ea7d1ab107fecba9c74f8fb93051168e5ffa4cc7d495499560b68cbbb5339c9df96a48c5900465050eff7e4247c83f9f8a23cf295d4c754268d80bf5d9ac5bb02b07f1ee0a5a47809269b3071299a59505f3a0384eb7f4f68f4c96414aaa6772c5aa242840a1161c649849bd79a97b7bc9fabecdb48f92b3eeb700b074f261ab16e7f0f810147f5d6243b3120717fb711bdd39cd6c6c35bdb15cb8fd6ab5ad0da843737fe5c995a3f754144c6a8d89e65086dda5794365abb0aec5ae59d6ec4c7b8a7105e3377d9af6317c10e51c42fe505435015fe30f22656cfbb1709b471c331e633b1f2ea7a5a72b42f8c2ae40acd5044f88f23f81d5f9def1e68d78417032db9cc4a25962926a853bedbbea0a05a97abb14607ffaa1bfc2bdbb600e48f8213003a6966487ddaf05dc88d95eb56d63de47ada95f9fbb368c625acd412d2445c8c9b39b3d4206acab672639d457a6f91f57cbc7c08a0a5d93bed9872867664ad351baae0c6d62fff7a23491a2e0c0682265dcddb971a42016bf7f8c6a59e351d171643e840edf385c9c72b8bb3cfbc8a6b81337d6081efae75fb7f4c827f72a744b9277412472be692662b1b998e852f038555a527207c7abf18aa86682d858817182677b5752e93ed568a320e93465935a581a9a2c9c14321d81b69e618c51832743a01f36fb8eb14c40c2b85e2ca2d8b12b043090afd51cf9a0fcb35adf51f33c2a0b98d70707ee3a764c0823569f262c66cf2c216d80d8b29a2704c21bf2c37bcea247f1efd0d6a013ac94ddb91982577439dfa98e6ef805c0527105e83095f5bfd1386d36bd172c7fde66d24e9ac7d6fd65fa93039bc1a740417ead389757426809cf5a99cd31856582b7503b51f5dcf5155611ccd206eee8e047cf909658e1cc8873bd4b6055f7214d0cb0912f94ed66cdf0efd52c967a921b272fe0d331ad6bfc3d365127d930a51591c3c64e01dbd0490cee4d3f3b35b595820aa7e710ad91af0f26ab9e4d25d68c4cc48acde64d1366df1ef372c7a41752d522eab043ba6bac77a834efa51a5cfacc773a5748ed951574a746d76489d3f4f902cde325fc5f09c88773ab5c76ae1210c1c2757e6d76e129503eb322e3ccc3a838bd5928d1652836cf4e725a4079ea189688fe4ec57a55bb0e18f862cab656136f493bf06511ffcd2303701cab9a1b9203db777baca4f077247a9af32fa2bc281f6fb0639a3a4abf19fa834b44f9a889f3fe1e96bc203de15f1233699a9df6e25e81d358877fcf80c3e7415cceae12527852afc5eaaa65193c94eb917f8693b97ef8a8e9e74b29ec92b3802d10b42d42a8563d93bfebe6ffefe31bff75410a1b4ebe9111440c4e231eaf5b8af829c66bbbf1ae79207dd7111dbe51b9a825f8e2eebfa44e6d596ba9eca79504ed53aa6ce48dd8e762c81002bc7a000c273af85072de54b29c7c8d50073f4de0ef0fdb5a9db1d9786bb88613a998b96404feb34fcedc3fe6846676eec63813289a4523fb07aa2200330fb6acf199395527259f478eb7b4f4244bc863fd2dc91cc519d8ec9a8eb711b0838dd8a4243f3fbe775665cf060ff1f41a1bed708963c2fc29c1c03c34e0db1421e393424f6cac174096963819241f9e62df56567892669e3eeaf79b144a08b5fb987c31e6b7c3fc6add6b6ec4d997f52c4f77c672b3dd3e1b7acbdeb6b6048dc1542962356322f5775613b237bd1c2f0bf50b2959c291a0f919b765e8610b15823ec6ed89df64d42b8f0532613751eb5bf915f254a07855117f211975d85a25ba9b21fb82181c75a316631590e00098bf962481625ef380fcfad89f4aa799082e4e7f13aea02a21ebf76a0b4534cd58111462d18fb57dd8b4d84017aa525e3f3675b6795a304100e6c672e9278f3ef644928a1b6ed4114a32b9c98700ed83449f0ec9f709ac30b93c5c1afbeb17c30dfc69740a6b6de9222dc27abfd6b2113ea25e82ed720a2e39dcf5f85af8b99b84354d6a7c55710190add90c4b131b9da33a393710b22da3cf208aff4e4ea9734f5b6418663ef0babf6664e93412ddaf9512b1b1abd7cc10dea94abf5697c102c8cbfbcd9b30f19fa769ee697a0c37f7789a382bb33fb8cc54845de0b0e000fbd3771b5f219ea682a89b6046398861e90fe3ae7e03eaf1bd75d023bf10598e34838aa340c62a6d51caf6da88aa3f8afd8dae1fe3bb9240587f4b303aad4ecc4ecbd3992bf73100ec30ac8da25844c83949154dab728fd8a3fdc9157f65233b851a555ae486c45f28b39901fe3e1aed3aa79f42f02fe785e0bf8c976340487792dd6bce99d922ba505a28d8cd391e3923ffb03032cb3195355e86070f9079f7c2690a84483abb7d821c0398d2e8e0636b969ee8a5060fbdc16cc338ea9ba57db6ad4a8d0d5a380159cc1be23d10200ae6b927683469eb0813107cf69dcc07172c629d1cc8e5a83b8d0cc4b3381fd66a995e7cd090577ef92aa9bdca56b2e9dc900341e069c0209543dc6fc5185727dd1fc04944a2297cc734bf2a44cfcc55598d9d288bf239f487f6d7d99a1288d6b2ae19c1fbaa725076cddb68f51b1de94603086b4952e42ea7024fde8328bdc5cb928e54ca53f357a4b1157bbd68fc8cdf19626e381b5718d2d885b12c7b078aa4eeabeb9cdf330dd1e2bde4b07ec2a09204144677858c17eb801f597f250c30f112b0d12d12a492d4273844e637d67b31fe72b5ee69be2eb06cb0392915a99b9bf182c72789d31f8c8c1648bb40f7353b7c6e4c4aaae9f6d58c9f2046350de2ad97386f67c724c48cef83db967f8a283d1aa78199e988e167d6ef4b6c3cacd8df1d2f3fd96ac66108c17f26e3ae7b1a8b570b62f6486f43e9c8e1276cdace519135ee3d173f162330e62a015974903546ea24b7a98579fd58bf655bfa000266f5b5cc5a5607f302099281c37599eba9240e257d16658b0656abcadc2a97ac03ae00449f7a81597533e2be490ba67460c7b209ebc92ffb3f00ae7fa4c64d6c2b493f9a2ff795a29f9319fe29d651f7236c7df1e04be65dc636649da641ef822b3a5b7e69f2565381006e6de117d62dad1282c5aef449bf6669f4437065891d816e71a28fd55b55fc439961f532128dfa20ec2f5fa4464d13ba73e46062b33f0793973c622ec65085c51483e611ee212d313b3d707f808fd4dae6ecf1f9fc0b20233c4b596070767e949ba2b8dde1ebff2931455481838eafb6dfe4e7f80927394047b4bfd5d9e5f60000000000000000000000000000000000000000000010222f3a01",
        "00551509317ddeb1a2dc23f3a26cfe214b194743d976fe5a6e119280193d013752463e3d5f9c9c84c8577c2b2ec1fbd269aa8c9365c3b7b5aab763c213d1e41cf3988984fc7f92a030752ec74b89307a11ef93aff3d51b28b834ebd88508a28535b6974c56d1e5281493f6e19a7f1eee1afaea7aafaa7861ce40e9d40640325b0abbeab0a9af6866ec5be5ab7d91d4f1e4c14cd752266006ac8b932f422f4209913ee88e79f19e99b31651849e750ba5c34d6a7290ae9efb0b27ecbc3fe63018de94a5dc1c9e99dc347fdc57b4ea84305700e92717c3de6cd6ba49177bce4d23d3d07782c007e994a726d4429915bc33f9ccf0ac21a3e2732377089125c8371d8d46a77c8513962983f7f39e23f9cafe6d942962cd449beda0ac81a3e35ad4e60e705ef3f39494e5ab4580d90ab44c33ebadf8d8eb1c68ad53d1182aa0f52dc10622501a50cf95ce5f242c5189cf4057caf01258cf4956b7822486fe644ef98bb747f8410be9d5bbf09bf32c5907f552612e26a10f54099bd9c6e4f82e164e1289954049d2409952bfadf267ddb4ef491b3fc0b54c807711e2af5d56d7a954cfe820d768b450b1935ef186bb2350ade1ba8395d6c0a73a7bc4592db0a91dcf17540ebbaaa3237d0eb8d5ea75776c8f6c92f13f8eff641ede15fad19176d3452f83a7f52d5b30151020866ca5d911f48a341a3e61fade14dfd7cdc1c18e67fb690e89d322e86af440c0a958abb24c038c811c7b9fe4d4feedaeed35e6994748f6b0a91adc00edfb579ea2c3833eeece5a8c7a868ea08e1bb448d270e543e82a2268b94751ab9955b444e48967478b58019c681d5deea1d9aa3e823ad84408bab157c5df1f0ed7aa737e0c9e424901064960a50bac5f54efc1fbbecd271d1f61966e427b4743ed86254dfeb0034034804f5a50043e391115f18daf452714e69e46cb109bb4c0c2b464fff8f6aa688e6667bf56ec121d452403c50a4aeecd4b3cd20b0d26c23e4e79ddf682e1886c6df5f304c9c8caf0347bf2d955fca83531d4439b83558e8c1cfa685ec9ce2dfcb75e01c52dde529ea2bd540c5b6bd898aaa112be3142b580531c69988b54a140816b62f70ac73380549d0299136c89b77b8aed4129e5ba85920905eb6265a1809e183f9e76a55bb730013caf2b63be70fb8c68860e377a6853e1c0bba2eae798840795145630227109ce7747eea31ac8633f09cd28c2092d9c878963e276cfc94da155d82cb6e0d2457b8b6c32ead5dbfc2be29d0236675a3e67082d79d74e4a506b7ad516a8a62c0d0abbc6e7122489a3d627f5a7590009f8cee31bda120189f0d8068e47526c425cb5c0beebaee8f2efe4a9f24f49e952ca02b48ca9cd0e6877e20f2a30ea5cffb9c829b3ca16fab34834842380a172ba892b96d82dc0c747b4ad6bd1bc979b334059f616c2ab79dce11ceedf904dee0d22c829596e90f145add6a8bdbc48a3ef6821df885fe1aed7ad1c05c6d3aa2eb1a4fe031ded06ea9fd2dc45d4517c55c145fd3acb99aa7323fac58f660c6b986684b2047d14c6f77a5479ee5b18a6b7d2c7af966a636276a1fc3e99e9b2080e23e666052d15d80b9a05447546567434a57c9420f4ce962e50165c34980361c304a4fad25d45a4437fa19307593fd2f6567b1ba77fae035282560e531bf09f7d46e2f8f5eac06bfaea93257e43655cb40f2c739757e02d278c7c0044898ce9c917aa77cd928602b4e4718ad263b4367441415c797b4e1ef67a944227039cfb9522b234d9a5f16202b697f9e08044d0d2548e2b5578192f3a416833f48f91eb7907f6813875616851f551f2833993bbd273d4d6956b537a33daf63c15e7"
      ],
      "sequence": 4294967294
    }
  ],
  "vout": [
    {
      "value": 1.0,
      "n": 0,
      "scriptPubKey": {
        "asm": "OP_RETURN 26d283915d340d0b722e7ef6e2a5cbb05abf5c7863272dd228751ef4115fe4c2 a12b5be561e8ca8f4d1c94ebd431b3975d07e01b62cbbddc492831a5194af068810b7bc541c8eaaf6d3cb4cbf41193b77d27c03b42eb9dfc69081185396ad048e16b1ba521a88acf0d5cd4ab9471f3d71d47a05b228bfd9c096871e5590ab028c14b3b850188aaef2d7cf48bb451d3f73d67807b02abddbc294851c5792a900821abdb65e1684a0fcd9c146b54b13317dd87609be24b3d5cc9a8b12599ca70e8018bfb45c1486a2fedbc344b74911337fda740bbc26b1d7ce9889105b9ea50c861eb9b25a1280a4f8ddc542b14f173579dc720dba20b7d1c89e8f165d98a30a841cbbb0581082a6fadfc740b34d15377bde700fb822b5d3ca9c8d145f9aa1088a12b5be561e8ca8f4d1c94ebd431b3975d07e01b62cbbddc492831a5194af068810b7bc541c8eaaf6d3cb4cbf41193b77d27c03b42eb9dfc69081185396ad048e16b1ba521a88acf0d5cd4ab9471f3d71d47a05b228bfd9c096871e5590ab028c14b3b850188aaef2d7cf48bb451d3f73d67807b02abddbc294851c5792a900821abdb65e1684a0fcd9c146b54b13317dd87609be24b3d5cc9a8b12599ca70e8018bfb45c1486a2fedbc344b74911337fda740bbc26b1d7ce9889105b9ea50c861eb9b25a1280a4f8ddc542b14f173579dc720dba20b7d1c89e8f165d98a30a841cbbb0581082a6fadfc740b34d15377bde700fb822b5d3ca9c8d145f9aa1088a12b5be561e8ca8f4d1c94ebd431b3975d07e01b62cbbddc492831a5194af068810b7bc541c8eaaf6d3cb4cbf41193b77d27c03b42eb9dfc69081185396ad048e16b1ba521a88acf0d5cd4ab9471f3d71d47a05b228bfd9c096871e5590ab028c14b3b850188aaef2d7cf48bb451d3f73d67807b02abddbc294851c5792a900821abdb65e1684a0fcd9c146b54b13317dd87609be24b3d5cc9a8b12599ca70e8018bfb45c1486a2fedbc344b74911337fda740bbc26b1d7ce9889105b9ea50c861eb9b25a1280a4f8ddc542b14f173579dc720dba20b7d1c89e8f165d98a30a841cbbb0581082a6fadfc740b34d15377bde700fb822b5d3ca9c8d145f9aa1088a12b5be561e8ca8f4d1c94ebd431b3975d07e01b62cbbddc492831a5194af068810b7bc541c8eaaf6d3cb4cbf41193b77d27c03b42eb9dfc69081185396ad048e16b1ba521a88acf0d5cd4ab9471f3d71d47a05b228bfd9c096871e5590ab028c14b3b850188aaef2d7cf48bb451d3f73d67807b02abddbc294851c5792a900821abdb65e1684a0fcd9c146b54b13317dd87609be24b3d5cc9a8b12599ca70e8018bfb45c1486a2fedbc344b74911337fda740bbc26b1d7ce9889105b9ea50c861eb9b25a1280a4f8ddc542b14f173579dc720dba20b7d1c89e8f165d98a30a841cbbb0581082a6fadfc740b34d15377bde700fb822b5d3ca9c8d145f9aa1088a12b5be561e8ca8f4d1c94ebd431b3975d07e01b62cbbddc492831a5194af068810b7bc541c8eaaf6d3cb4cbf41193b77d27c03b42eb9dfc69081185396ad048e16b1ba521a88acf0d5cd4ab9471f3d71d47a05b228bfd9c096871e5590ab028c14b3b850188aaef2d7cf48bb451d3f73d67807b02abddbc294851c5792a900821abdb65e1684a0fcd9c146b54b133177e8c716f5b81ac287b43033468e6448cbcbd5ad12fdb9c687a25517794f1d317",
        "hex": "6a2026d283915d340d0b722e7ef6e2a5cbb05abf5c7863272dd228751ef4115fe4c24db004a12b5be561e8ca8f4d1c94ebd431b3975d07e01b62cbbddc492831a5194af068810b7bc541c8eaaf6d3cb4cbf41193b77d27c03b42eb9dfc69081185396ad048e16b1ba521a88acf0d5cd4ab9471f3d71d47a05b228bfd9c096871e5590ab028c14b3b850188aaef2d7cf48bb451d3f73d67807b02abddbc294851c5792a900821abdb65e1684a0fcd9c146b54b13317dd87609be24b3d5cc9a8b12599ca70e8018bfb45c1486a2fedbc344b74911337fda740bbc26b1d7ce9889105b9ea50c861eb9b25a1280a4f8ddc542b14f173579dc720dba20b7d1c89e8f165d98a30a841cbbb0581082a6fadfc740b34d15377bde700fb822b5d3ca9c8d145f9aa1088a12b5be561e8ca8f4d1c94ebd431b3975d07e01b62cbbddc492831a5194af068810b7bc541c8eaaf6d3cb4cbf41193b77d27c03b42eb9dfc69081185396ad048e16b1ba521a88acf0d5cd4ab9471f3d71d47a05b228bfd9c096871e5590ab028c14b3b850188aaef2d7cf48bb451d3f73d67807b02abddbc294851c5792a900821abdb65e1684a0fcd9c146b54b13317dd87609be24b3d5cc9a8b12599ca70e8018bfb45c1486a2fedbc344b74911337fda740bbc26b1d7ce9889105b9ea50c861eb9b25a1280a4f8ddc542b14f173579dc720dba20b7d1c89e8f165d98a30a841cbbb0581082a6fadfc740b34d15377bde700fb822b5d3ca9c8d145f9aa1088a12b5be561e8ca8f4d1c94ebd431b3975d07e01b62cbbddc492831a5194af068810b7bc541c8eaaf6d3cb4cbf41193b77d27c03b42eb9dfc69081185396ad048e16b1ba521a88acf0d5cd4ab9471f3d71d47a05b228bfd9c096871e5590ab028c14b3b850188aaef2d7cf48bb451d3f73d67807b02abddbc294851c5792a900821abdb65e1684a0fcd9c146b54b13317dd87609be24b3d5cc9a8b12599ca70e8018bfb45c1486a2fedbc344b74911337fda740bbc26b1d7ce9889105b9ea50c861eb9b25a1280a4f8ddc542b14f173579dc720dba20b7d1c89e8f165d98a30a841cbbb0581082a6fadfc740b34d15377bde700fb822b5d3ca9c8d145f9aa1088a12b5be561e8ca8f4d1c94ebd431b3975d07e01b62cbbddc492831a5194af068810b7bc541c8eaaf6d3cb4cbf41193b77d27c03b42eb9dfc69081185396ad048e16b1ba521a88acf0d5cd4ab9471f3d71d47a05b228bfd9c096871e5590ab028c14b3b850188aaef2d7cf48bb451d3f73d67807b02abddbc294851c5792a900821abdb65e1684a0fcd9c146b54b13317dd87609be24b3d5cc9a8b12599ca70e8018bfb45c1486a2fedbc344b74911337fda740bbc26b1d7ce9889105b9ea50c861eb9b25a1280a4f8ddc542b14f173579dc720dba20b7d1c89e8f165d98a30a841cbbb0581082a6fadfc740b34d15377bde700fb822b5d3ca9c8d145f9aa1088a12b5be561e8ca8f4d1c94ebd431b3975d07e01b62cbbddc492831a5194af068810b7bc541c8eaaf6d3cb4cbf41193b77d27c03b42eb9dfc69081185396ad048e16b1ba521a88acf0d5cd4ab9471f3d71d47a05b228bfd9c096871e5590ab028c14b3b850188aaef2d7cf48bb451d3f73d67807b02abddbc294851c5792a900821abdb65e1684a0fcd9c146b54b133177e8c716f5b81ac287b43033468e6448cbcbd5ad12fdb9c687a25517794f1d317",
        "type": "nulldata"
      }
    },
    {
      "value": 499976.6113,
      "n": 1,
      "scriptPubKey": {
        "asm": "1 767b20b9142543b4c459f5e658c3c2b81336a1891cd31b2bcf8954234568c674",
        "hex": "5120767b20b9142543b4c459f5e658c3c2b81336a1891cd31b2bcf8954234568c674",
        "reqSigs": 1,
        "type": "witness_v1_scripthash",
        "addresses": [
          "3QJmnh"
        ]
      }
    }
  ],
  "blockhash": "b00c1afcc726d07acf9b884f47bf06130e4cba196c4900690ef7405d42c36beb",
  "confirmations": 1,
  "time": 1764180257,
  "blocktime": 1764180257
}