{
  "hex": "01000000000101fe03a4b1a967d0c78de5d4273efc0580099cbda9c92f79d4f16b7c790dc958da0000000000feffffff023022f408792d00002251203a6c1b9fa1b16047317cd4564f0c1824621cee14aacb0c091ea780a77660e81100e1f50500000000fdd5046a2007f1cf6ff874034cbbef39ef2986b503866d1ceadd8f01812b789d8e4a6ba4214db00407ab57ed54d6912e87a5259c035a69e79bbee9994b78fd1677cd27dafc8501e2278b77cd74f6b10ea78505bc237a49c7bb9ec9b96b58dd3657ed07fadca521c247eb17ad1496d16ec7e565dc431a29a7dbfea9d90b38bd56378d679abcc541a267cb378d34b6f14ee7c545fc633a0987fbde89f92b189d7617ad47ba9ce56182872bd76dd45611ae0725a51c83dae9671b3e6919cbf87d96f74da75a7c058162a70bf74df476318e2705853ca3fac9473b1e4939ebd85db6d76d877a5c25a142c76b972d941651ee4765e55cc39aa9275b7e29598bb83dd6b70de71a3c45c122e74bb70db43671ce6745c57ce3ba89077b5e0979ab981df6972dc73a1c65e10207ab57ed54d6912e87a5259c035a69e79bbee9994b78fd1677cd27dafc8501e2278b77cd74f6b10ea78505bc237a49c7bb9ec9b96b58dd3657ed07fadca521c247eb17ad1496d16ec7e565dc431a29a7dbfea9d90b38bd56378d679abcc541a267cb378d34b6f14ee7c545fc633a0987fbde89f92b189d7617ad47ba9ce56182872bd76dd45611ae0725a51c83dae9671b3e6919cbf87d96f74da75a7c058162a70bf74df476318e2705853ca3fac9473b1e4939ebd85db6d76d877a5c25a142c76b972d941651ee4765e55cc39aa9275b7e29598bb83dd6b70de71a3c45c122e74bb70db43671ce6745c57ce3ba89077b5e0979ab981df6972dc73a1c65e10207ab57ed54d6912e87a5259c035a69e79bbee9994b78fd1677cd27dafc8501e2278b77cd74f6b10ea78505bc237a49c7bb9ec9b96b58dd3657ed07fadca521c247eb17ad1496d16ec7e565dc431a29a7dbfea9d90b38bd56378d679abcc541a267cb378d34b6f14ee7c545fc633a0987fbde89f92b189d7617ad47ba9ce56182872bd76dd45611ae0725a51c83dae9671b3e6919cbf87d96f74da75a7c058162a70bf74df476318e2705853ca3fac9473b1e4939ebd85db6d76d877a5c25a142c76b972d941651ee4765e55cc39aa9275b7e29598bb83dd6b70de71a3c45c122e74bb70db43671ce6745c57ce3ba89077b5e0979ab981df6972dc73a1c65e10207ab57ed54d6912e87a5259c035a69e79bbee9994b78fd1677cd27dafc8501e2278b77cd74f6b10ea78505bc237a49c7bb9ec9b96b58dd3657ed07fadca521c247eb17ad1496d16ec7e565dc431a29a7dbfea9d90b38bd56378d679abcc541a267cb378d34b6f14ee7c545fc633a0987fbde89f92b189d7617ad47ba9ce56182872bd76dd45611ae0725a51c83dae9671b3e6919cbf87d96f74da75a7c058162a70bf74df476318e2705853ca3fac9473b1e4939ebd85db6d76d877a5c25a142c76b972d941651ee4765e55cc39aa9275b7e29598bb83dd6b70de71a3c45c122e74bb70db43671ce6745c57ce3ba89077b5e0979ab981df6972dc73a1c65e10207ab57ed54d6912e87a5259c035a69e79bbee9994b78fd1677cd27dafc8501e2278b77cd74f6b10ea78505bc237a49c7bb9ec9b96b58dd3657ed07fadca521c247eb17ad1496d16ec7e565dc431a29a7dbfea9d90b38bd56378d679abcc541a267cb378d34b6f14ee7c545fc633a0987fbde89f92b189d7617ad47ba9ce56182872bd76dd45611ae0725a51c83dae9679c1e7d76add2fb23e06d90b247633e37feab268b209f7ceb8c74e28ba45b006102fd75098fc57d757f133cdc01427b8e2f2c566a1b6cfa21864a9baffe8c090e5f23c8e47c2ec4b165d47782c4649718da5fd5ca13d9a22b784b8b956d83329d3978178bb697ade276ac4b1f5bc0069e7c969250e171347aae54ac90105f5e26182d0b96e99757b1d33f50a5e92914da567e8f82433f4cb8ff82cc3334da732c7edc36151af13f8474165b678bcc95654781545cdab3b37932279c324b04e093a2ad424d0c449e06ae04468b73095589d2b4a307326b41810aa5e59b9fa8f825d40b3fe56a96c6dfd1cb98e292a35f2fab523827b06ac3cbc5dc343f9f3bcfbaaea8473732508e84ad570882094063d87898e3c7613ce859fc8d2e108692311fa30f7fe12e4490c33d8b9368bc49b8f173c375fc99aca2e515c94f804b393b6f191ecca9656f6244c117d844577ffa70239df46b8915792f8c4aa65c45aa9f5bb7e7c111aefc99d9dec3a6dbf3e7f94868ff9d58ccb8dcc580d85947050b23bb6298ac12b4fcee4d8650d406bb057b13854eb7a23e202e699cb455cfd69e423f4b8e234ec38afad7ff41868448af879c60953d56e4da74a1ec05c880622aeeaa23c981bc4b1413acb098ebcea0fd91b25e76df2fe836419a652896e92aacdebdc0e33aaa3d7b3918ad1bee3de976e81fd3b35889745ba4e43d2cdde3387d50e221c01aec236c1bd7fe5110596b37d71297cf7a999a920675d155b862672674a221141abcfc289f888144dfdbf2d6a98677ec476a226162932d2ed0bb0507a71a8881093857e6939801ccaa406d65b99801aef988aaa0ccb7ebf2cd5da981b451b4c3d2c4b5e6e989f09a8998e525e46883bef716f953d7afb91d31305ae2570503578425bc3dbee0f44e5c401faae291b302a1901aaf152b48634f78a6cdcdef591278cd1634c14c55b523f233884eabe64cdc7f99b71756005ae381f0e0618bdc2a7d385df934d243813ebc58bfbc3a247e09d246ce9796ec87ef7338df84234bbfd85bc58019ae7419a48ffa25fa17f0997c45940bed2825395f175af98307beced4862c13ad850a99173f3c1af9ec5e835d35a03e7d8ad2c1cf5b307f8fd06adaa3d8d6e143505c7f98ccc5f4769e166bc4f0a21974f466804ad09e105951f0077799ec8cd6d4b9ee8f19bdc2fb21cc59df7e11274396a846211b55d5e009021e0a7f3ec1cc4d02b1b6be0e09e40b96ed1c7092dfbb16805bd089e9c4c2c3cd92307bd4ddbc7abe37337b84d4d17a5e46ca906012dd7153d6fb474c313543a6525cd2b79f9b94d5cfcdba782e0bd47fcb689805f3aa8fe83f9ed4375b095c54c8b26275ae967603ce144f32f603e1cd5bb5e4186bbd1555d774160b649c7f9e6900df6b06500a80d575dab654dc90540156c71dbf4335091ab87a5bb143c3e2d3274445d21f1d62bcb8b9dda9d1e7207444db3006ab4e83bed7347f8201cb6b7c21ef252c0f0afb67984619eb71706e547d976f240678d9b3f5fce910a0c7309f3ffe3c887253f519f239ea8ec9cb87b8f5f536c0cf13d40b09445939dc61251505c960d42fadaceacc822985957dfb30445cb41fc34b92c249aa8257916267f92f2a043b7820ea98603278b66f8b5fc77f07e21e4eadb9ba6aed3c902c8150f207b578d078eabcfeaae27782126f81857adfd691ee94101c35acab64b84f4623dd11f3fd33b06c0982d5f66ed34ce49bbdda9956079db701e8a999b947f9858d53bcd2461a2b2097213965abd1b1a07c30657ec2d8db99283f3c010f0b099fc8045b8a8d6af74c19aa27d08a2bb8d571a9369627a44969332818a5006a826f92aa63b03842d993e85784989dbaa2287062361294d6819aeba7d342001268ea5589b9c56d5e17581d1c8404a4266d82ec5b66062e6932a47dc96904589105072bc7d9193a46aeac9e552ec74c56889e02ec7dba47c6b519e16fe45abc02c4f98d879a5d6128926bf82ffab4d55ff85b3cc9be21f95aba231b8198a27a1333e10f4a84b0b38cf16092ccca05087d2be26e5609dd8a8a1a0d5777feb7a5a08b2b0b8e5116a088bcacfeefed3e83b34818db13efa9d5808ba5345e23cd0c6df412f2dfe596e238bfe5f77769a5b1d574bb6803cbab64f30f48f046e32d749887dc45329e50cd891901be837aa2ca0ea414d952e9ca2ef8a61367081862754304bbbd09f704f4ddceefebdbef2ba514a958ef0c54b1376a34818a0ade2765dfafb1f5a8ca51a911e629fde4840fbf1e06eebcab4ba3d0402d856f75a4ee15001d2e3776420ddd2e7d9636fb7951e8e335f4ec44d4bc3730799c9ac6f67999aa6aad2a33d4eefcf4e09f82120ae0eb2699f38996df4e7cc1cdf0584cbefc556c80d10af089ff73275bcc7cfc53ed69b6c6f670ad2b0f361cacb5465458d2afcdea55da7756f52ec53b06fce237dec364e30032b4d1bf6bbbdc7e09cf20a0016d14964c01106619853c754fe8c86fe0c13eded819a8bd65529df60769b9314ac5ef156b5db13a04a76e08d9028cc63447aa3a8324311218429d0873014c76ffd956c543541ed48fec59bf75a5b879cb09450246047dc25237282ba586335e2805b639b03f83ec0d0194105dbb54776a03eb42f38526f9bd40a3868391fef4cf252df72fb56d1657df66813197ab7f3738ed17d5c912d5e3a0bfbec4ca1f69c7407eb7c5b7f40f84c2ee26308ed75c878132cdf53cd2a0ef2d87714184328e178159c72519ea816b28eaa1f06e54833f5e63d5526744bdd52dcc93151f560ab7e40b6285a64922b57d5f94d329a1c7709e67f504ad58eb260e95e4c5e62936385f6dcf7f1a012caf48b79f28c4fc2cad325b327ad1b8595613791467af442f9b273a1d18c70d5b58bc37fcd75d51d6b58470b9488b744af4a5753456d625d9a4fa540d8355df014c12829c1469c8779dccb668f940410bca751f6d76a035a6d929c60032539ba45382b49386e41f6fa0ae47b0bf0715668d00fb02176a0632e758ef0b08a1a7b04069461e8f9154da40510e1fc805016ec747af11829d97bbebd11737115905f216cfd34a5509ed95f5138e6a768ee89baad495cab3257d6a5ae8d98f8a8390baf4572f0b325ce0a64fc49fe24a220013375d4e2cc2f609b41ffb6c8a5095582ffa2fc5cfe888adbc2868a904149255b3aafeac55e3baf07dcc9a883be5054c23436b64fb9b93201e1695d4ab8cf524363375079e30fb07395f1b0213b6672679d5416764a7d75d5f269c471e712d4b647ce96b106398807670de932e96ae9b88dc630f5992bc24c53a27195092d7a80fc378cbdbeedb4b659b63e7a8f3f8e50b192e35373f495f679c9dadcad009162448606a7183849ba2aed0d9dbe72b404a5363669697a3cccee0eefd0d334a4b5c79858e9cafc9d6defe000000000000000000000000000000000000000000000e1e2c3a01fd21050047df5ee7d55ad9f879aa8ac88a50671f001e120f8b27d713521408ca89daa683c969223b765a942df02b833831028e2e5686eb89b4a1115e42d5c3fc33369c9aa5e6565bc6112d710e84a08413573bd4736adeb070c1d5e37751db4223683793ee34337f825c8445b4a4c3abbf4b7bee7af9061699bf9b5087febd46cceb5aaef895a74b2bc700516d576359e8fc414f9eabf17cfc77aeae2aec108f1b2aab83c9c8742e8c2e4a79ce78bd5bc3507d5c84aa3c5a7de58a05326dad0f3bc38944aab0113794f334b4b50852082daeea66d022b1648787638cd1dc17dfd5585eb1a6393dcadf6080b58600494f04fb288fa787951ae7137c7ff5df00f6d871e68dc2890b6aab66c0e57d3d56a362516c24b62d64f69c029015450d225e2814c88404b07f831141da33b0776b25bd61cb019c66a273112ace5660953f7a255295bc413f01758da003c7f9a349cf91fe4273bcc29c541e4847c7f5bc37e937a97810305036fcd912da95a64c16933e3082278e82fbe427c2347678626557ce7f8c711ea028a187087e0ecd12d0c8fcdd63157c1b2e50d6c7611b9d84b0f54ed75281b394e9c7f90be225c1d1a1163b9dc77f3d5457155a6d948f49f12e73731c938a9211d7e7b983ee4c6637ec3633c17226d8e679cf7d76f4b7fffab75276573505153b4446e2ffa215a105d60c5743dbafd07ff80e81f4a6474484512630309c5b7ede80af737e24fbcba1721165ea37fcbadda62a6b0f67fb0184d793546fa4ec025f92f1b7533c6fb32fca8cd58487b403df70035a85f74b9176d62f49c479ce513dc3835e507f96c162b3c037764adcde8aacd39e1fd8cb6730ab4e451bc224b3df5d544f7ad48c5d3b333ec1b00a1bb2226ce31d30d9abfb9e977a3c6ffd5401ce9bcc504dd519d3611253a75fe7a041a5aacee53f3849b758b1c06e683f2697e834bd3569a897dd9b6335269d3bdf62680a41b9bada4c3a768b1128b19ce8c91468489b1e715d7c2048749c9654c28831cac88be5659751590a09e00b1bcf1f9a9867bc16ee521f16b8c5de80a13d414eeffe64da723bb76fe91c1bcb681c3220d49e2c81323ec3f681fce2594880ea47e7ebb24844c1ad9730d003a6485fd30fcb4c74dcd26dbb3a15cb0c825bfedff41af0d51cd48099f7ace162469eea00e27c7df5aba41156e727f4d0df43be4e80fc9d31c8eb2819b25d1b5a59242a7d3a5234e35f9551b8c7d0467b29f45cd93866a135c66c59d58e5d177701952842b231f495be0b96c24501ac3d490eeb377c33db9bd6b62035e0bab178b207f961aa6fa86582e299f6c7cb87d4696c911683073e523ee01337e7f2006c0fc8cc1ca06e156d0be73b82399454cbaccd519cc214598499ad5b780e5054ba6687c9b33c7331346a468cc2bb7cda85a7eb4f5e9a4fab8c94a470ffdca4d0ffedc32d4d66768f3ebd00ebf8d13ea41e1f44eea503edee3625c835120c42d327afcb697be2e556f29f1b1cd8b2c35e9987ecce24a6ce3c0a702e39ed59a79b73821180021b7f026bce727d8bc2bb94cabca19c36e9cd70fcb707873b12890c033024636bbada424b70de3d69ec24204f31a0aba8059260dcb254017924bc04ade8ce34905dcfc1a869cf111eb5dc2fbad51042fa3b39c4a787f1e0a120cef9f67e8a2384406a94b456f2c6e096e9c4df3e73222b46e9e7c05127324cc3fbda187f6c0d9904d8e703c78a5b870026faa9a0cab81f576e34a6bf5a8da6be5edbaaf2743c1d7002208e808fff3c27addf20edad7ac8c007b5397e02754e4255d610476c2b2f3eee4423b3b15f115dd9425b66b82cbd5452564dc3d4f1377d9c5ae5092da679000000",
  "txid": "0d94541081b0596c409d7436f4a10f2a9908b95e8c0a38ce497be2bfa6f94b5e",
  "hash": "9f3ae92c38f0ec3cc55693abecec532f9cb9329333f83d129b641066bff8e880",
  "size": 5085,
  "vsize": 2278,
  "version": 1,
  "locktime": 121,
  "vin": [
    {
      "txid": "da58c90d797c6bf1d4792fc9a9bd9c098005fc3e27d4e58dc7d067a9b1a403fe",
      "vout": 0,
      "scriptSig": {
        "asm": "",
        "hex": ""
      },
      "txinwitness": [
        "8fc57d757f133cdc01427b8e2f2c566a1b6cfa21864a9baffe8c090e5f23c8e47c2ec4b165d47782c4649718da5fd5ca13d9a22b784b8b956d83329d3978178bb697ade276ac4b1f5bc0069e7c969250e171347aae54ac90105f5e26182d0b96e99757b1d33f50a5e92914da567e8f82433f4cb8ff82cc3334da732c7edc36151af13f8474165b678bcc95654781545cdab3b37932279c324b04e093a2ad424d0c449e06ae04468b73095589d2b4a307326b41810aa5e59b9fa8f825d40b3fe56a96c6dfd1cb98e292a35f2fab523827b06ac3cbc5dc343f9f3bcfbaaea8473732508e84ad570882094063d87898e3c7613ce859fc8d2e108692311fa30f7fe12e4490c33d8b9368bc49b8f173c375fc99aca2e515c94f804b393b6f191ecca9656f6244c117d844577ffa70239df46b8915792f8c4aa65c45aa9f5bb7e7c111aefc99d9dec3a6dbf3e7f94868ff9d58ccb8dcc580d85947050b23bb6298ac12b4fcee4d8650d406bb057b13854eb7a23e202e699cb455cfd69e423f4b8e234ec38afad7ff41868448af879c60953d56e4da74a1ec05c880622aeeaa23c981bc4b1413acb098ebcea0fd91b25e76df2fe836419a652896e92aacdebdc0e33aaa3d7b3918ad1bee3de976e81fd3b35889745ba4e43d2cdde3387d50e221c01aec236c1bd7fe5110596b37d71297cf7a999a920675d155b862672674a221141abcfc289f888144dfdbf2d6a98677ec476a226162932d2ed0bb0507a71a8881093857e6939801ccaa406d65b99801aef988aaa0ccb7ebf2cd5da981b451b4c3d2c4b5e6e989f09a8998e525e46883bef716f953d7afb91d31305ae2570503578425bc3dbee0f44e5c401faae291b302a1901aaf152b48634f78a6cdcdef591278cd1634c14c55b523f233884eabe64cdc7f99b71756005ae381f0e0618bdc2a7d385df934d243813ebc58bfbc3a247e09d246ce9796ec87ef7338df84234bbfd85bc58019ae7419a48ffa25fa17f0997c45940bed2825395f175af98307beced4862c13ad850a99173f3c1af9ec5e835d35a03e7d8ad2c1cf5b307f8fd06adaa3d8d6e143505c7f98ccc5f4769e166bc4f0a21974f466804ad09e105951f0077799ec8cd6d4b9ee8f19bdc2fb21cc59df7e11274396a846211b55d5e009021e0a7f3ec1cc4d02b1b6be0e09e40b96ed1c7092dfbb16805bd089e9c4c2c3cd92307bd4ddbc7abe37337b84d4d17a5e46ca906012dd7153d6fb474c313543a6525cd2b79f9b94d5cfcdba782e0bd47fcb689805f3aa8fe83f9ed4375b095c54c8b26275ae967603ce144f32f603e1cd5bb5e4186bbd1555d774160b649c7f9e6900df6b06500a80d575dab654dc90540156c71dbf4335091ab87a5bb143c3e2d3274445d21f1d62bcb8b9dda9d1e7207444db3006ab4e83bed7347f8201cb6b7c21ef252c0f0afb67984619eb71706e547d976f240678d9b3f5fce910a0c7309f3ffe3c887253f519f239ea8ec9cb87b8f5f536c0cf13d40b09445939dc61251505c960d42fadaceacc822985957dfb30445cb41fc34b92c249aa8257916267f92f2a043b7820ea98603278b66f8b5fc77f07e21e4eadb9ba6aed3c902c8150f207b578d078eabcfeaae27782126f81857adfd691ee94101c35acab64b84f4623dd11f3fd33b06c0982d5f66ed34ce49bbdda9956079db701e8a999b947f9858d53bcd2461a2b2097213965abd1b1a07c30657ec2d8db99283f3c010f0b099fc8045b8a8d6af74c19aa27d08a2bb8d571a9369627a44969332818a5006a826f92aa63b03842d993e85784989dbaa2287062361294d6819aeba7d342001268ea5589b9c56d5e17581d1c8404a4266d82ec5b66062e6932a47dc96904589105072bc7d9193a46aeac9e552ec74c56889e02ec7dba47c6b519e16fe45abc02c4f98d879a5d6128926bf82ffab4d55ff85b3cc9be21f95aba231b8198a27a1333e10f4a84b0b38cf16092ccca05087d2be26e5609dd8a8a1a0d5777feb7a5a08b2b0b8e5116a088bcacfeefed3e83b34818db13efa9d5808ba5345e23cd0c6df412f2dfe596e238bfe5f77769a5b1d574bb6803cbab64f30f48f046e32d749887dc45329e50cd891901be837aa2ca0ea414d952e9ca2ef8a61367081862754304bbbd09f704f4ddceefebdbef2ba514a958ef0c54b1376a34818a0ade2765dfafb1f5a8ca51a911e629fde4840fbf1e06eebcab4ba3d0402d856f75a4ee15001d2e3776420ddd2e7d9636fb7951e8e335f4ec44d4bc3730799c9ac6f67999aa6aad2a33d4eefcf4e09f82120ae0eb2699f38996df4e7cc1cdf0584cbefc556c80d10af089ff73275bcc7cfc53ed69b6c6f670ad2b0f361cacb5465458d2afcdea55da7756f52ec53b06fce237dec364e30032b4d1bf6bbbdc7e09cf20a0016d14964c01106619853c754fe8c86fe0c13eded819a8bd65529df60769b9314ac5ef156b5db13a04a76e08d9028cc63447aa3a8324311218429d0873014c76ffd956c543541ed48fec59bf75a5b879cb09450246047dc25237282ba586335e2805b639b03f83ec0d0194105dbb54776a03eb42f38526f9bd40a3868391fef4cf252df72fb56d1657df66813197ab7f3738ed17d5c912d5e3a0bfbec4ca1f69c7407eb7c5b7f40f84c2ee26308ed75c878132cdf53cd2a0ef2d87714184328e178159c72519ea816b28eaa1f06e54833f5e63d5526744bdd52dcc93151f560ab7e40b6285a64922b57d5f94d329a1c7709e67f504ad58eb260e95e4c5e62936385f6dcf7f1a012caf48b79f28c4fc2cad325b327ad1b8595613791467af442f9b273a1d18c70d5b58bc37fcd75d51d6b58470b9488b744af4a5753456d625d9a4fa540d8355df014c12829c1469c8779dccb668f940410bca751f6d76a035a6d929c60032539ba45382b49386e41f6fa0ae47b0bf0715668d00fb02176a0632e758ef0b08a1a7b04069461e8f9154da40510e1fc805016ec747af11829d97bbebd11737115905f216cfd34a5509ed95f5138e6a768ee89baad495cab3257d6a5ae8d98f8a8390baf4572f0b325ce0a64fc49fe24a220013375d4e2cc2f609b41ffb6c8a5095582ffa2fc5cfe888adbc2868a904149255b3aafeac55e3baf07dcc9a883be5054c23436b64fb9b93201e1695d4ab8cf524363375079e30fb07395f1b0213b6672679d5416764a7d75d5f269c471e712d4b647ce96b106398807670de932e96ae9b88dc630f5992bc24c53a27195092d7a80fc378cbdbeedb4b659b63e7a8f3f8e50b192e35373f495f679c9dadcad009162448606a7183849ba2aed0d9dbe72b404a5363669697a3cccee0eefd0d334a4b5c79858e9cafc9d6defe000000000000000000000000000000000000000000000e1e2c3a01",
        "0047df5ee7d55ad9f879aa8ac88a50671f001e120f8b27d713521408ca89daa683c969223b765a942df02b833831028e2e5686eb89b4a1115e42d5c3fc33369c9aa5e6565bc6112d710e84a08413573bd4736adeb070c1d5e37751db4223683793ee34337f825c8445b4a4c3abbf4b7bee7af9061699bf9b5087febd46cceb5aaef895a74b2bc700516d576359e8fc414f9eabf17cfc77aeae2aec108f1b2aab83c9c8742e8c2e4a79ce78bd5bc3507d5c84aa3c5a7de58a05326dad0f3bc38944aab0113794f334b4b50852082daeea66d022b1648787638cd1dc17dfd5585eb1a6393dcadf6080b58600494f04fb288fa787951ae7137c7ff5df00f6d871e68dc2890b6aab66c0e57d3d56a362516c24b62d64f69c029015450d225e2814c88404b07f831141da33b0776b25bd61cb019c66a273112ace5660953f7a255295bc413f01758da003c7f9a349cf91fe4273bcc29c541e4847c7f5bc37e937a97810305036fcd912da95a64c16933e3082278e82fbe427c2347678626557ce7f8c711ea028a187087e0ecd12d0c8fcdd63157c1b2e50d6c7611b9d84b0f54ed75281b394e9c7f90be225c1d1a1163b9dc77f3d5457155a6d948f49f12e73731c938a9211d7e7b983ee4c6637ec3633c17226d8e679cf7d76f4b7fffab75276573505153b4446e2ffa215a105d60c5743dbafd07ff80e81f4a6474484512630309c5b7ede80af737e24fbcba1721165ea37fcbadda62a6b0f67fb0184d793546fa4ec025f92f1b7533c6fb32fca8cd58487b403df70035a85f74b9176d62f49c479ce513dc3835e507f96c162b3c037764adcde8aacd39e1fd8cb6730ab4e451bc224b3df5d544f7ad48c5d3b333ec1b00a1bb2226ce31d30d9abfb9e977a3c6ffd5401ce9bcc504dd519d3611253a75fe7a041a5aacee53f3849b758b1c06e683f2697e834bd3569a897dd9b6335269d3bdf62680a41b9bada4c3a768b1128b19ce8c91468489b1e715d7c2048749c9654c28831cac88be5659751590a09e00b1bcf1f9a9867bc16ee521f16b8c5de80a13d414eeffe64da723bb76fe91c1bcb681c3220d49e2c81323ec3f681fce2594880ea47e7ebb24844c1ad9730d003a6485fd30fcb4c74dcd26dbb3a15cb0c825bfedff41af0d51cd48099f7ace162469eea00e27c7df5aba41156e727f4d0df43be4e80fc9d31c8eb2819b25d1b5a59242a7d3a5234e35f9551b8c7d0467b29f45cd93866a135c66c59d58e5d177701952842b231f495be0b96c24501ac3d490eeb377c33db9bd6b62035e0bab178b207f961aa6fa86582e299f6c7cb87d4696c911683073e523ee01337e7f2006c0fc8cc1ca06e156d0be73b82399454cbaccd519cc214598499ad5b780e5054ba6687c9b33c7331346a468cc2bb7cda85a7eb4f5e9a4fab8c94a470ffdca4d0ffedc32d4d66768f3ebd00ebf8d13ea41e1f44eea503edee3625c835120c42d327afcb697be2e556f29f1b1cd8b2c35e9987ecce24a6ce3c0a702e39ed59a79b73821180021b7f026bce727d8bc2bb94cabca19c36e9cd70fcb707873b12890c033024636bbada424b70de3d69ec24204f31a0aba8059260dcb254017924bc04ade8ce34905dcfc1a869cf111eb5dc2fbad51042fa3b39c4a787f1e0a120cef9f67e8a2384406a94b456f2c6e096e9c4df3e73222b46e9e7c05127324cc3fbda187f6c0d9904d8e703c78a5b870026faa9a0cab81f576e34a6bf5a8da6be5edbaaf2743c1d7002208e808fff3c27addf20edad7ac8c007b5397e02754e4255d610476c2b2f3eee4423b3b15f115dd9425b66b82cbd5452564dc3d4f1377d9c5ae5092da6"
      ],
      "sequence": 4294967294
    }
  ],
  "vout": [
    {
      "value": 499978.6451,
      "n": 0,
      "scriptPubKey": {
        "asm": "1 3a6c1b9fa1b16047317cd4564f0c1824621cee14aacb0c091ea780a77660e811",
        "hex": "51203a6c1b9fa1b16047317cd4564f0c1824621cee14aacb0c091ea780a77660e811",
        "reqSigs": 1,
        "type": "witness_v1_scripthash",
        "addresses": [
          "3QJmnh"
        ]
      }
    },
    {
      "value": 1.0,
      "n": 1,
      "scriptPubKey": {
        "asm": "OP_RETURN 07f1cf6ff874034cbbef39ef2986b503866d1ceadd8f01812b789d8e4a6ba421 07ab57ed54d6912e87a5259c035a69e79bbee9994b78fd1677cd27dafc8501e2278b77cd74f6b10ea78505bc237a49c7bb9ec9b96b58dd3657ed07fadca521c247eb17ad1496d16ec7e565dc431a29a7dbfea9d90b38bd56378d679abcc541a267cb378d34b6f14ee7c545fc633a0987fbde89f92b189d7617ad47ba9ce56182872bd76dd45611ae0725a51c83dae9671b3e6919cbf87d96f74da75a7c058162a70bf74df476318e2705853ca3fac9473b1e4939ebd85db6d76d877a5c25a142c76b972d941651ee4765e55cc39aa9275b7e29598bb83dd6b70de71a3c45c122e74bb70db43671ce6745c57ce3ba89077b5e0979ab981df6972dc73a1c65e10207ab57ed54d6912e87a5259c035a69e79bbee9994b78fd1677cd27dafc8501e2278b77cd74f6b10ea78505bc237a49c7bb9ec9b96b58dd3657ed07fadca521c247eb17ad1496d16ec7e565dc431a29a7dbfea9d90b38bd56378d679abcc541a267cb378d34b6f14ee7c545fc633a0987fbde89f92b189d7617ad47ba9ce56182872bd76dd45611ae0725a51c83dae9671b3e6919cbf87d96f74da75a7c058162a70bf74df476318e2705853ca3fac9473b1e4939ebd85db6d76d877a5c25a142c76b972d941651ee4765e55cc39aa9275b7e29598bb83dd6b70de71a3c45c122e74bb70db43671ce6745c57ce3ba89077b5e0979ab981df6972dc73a1c65e10207ab57ed54d6912e87a5259c035a69e79bbee9994b78fd1677cd27dafc8501e2278b77cd74f6b10ea78505bc237a49c7bb9ec9b96b58dd3657ed07fadca521c247eb17ad1496d16ec7e565dc431a29a7dbfea9d90b38bd56378d679abcc541a267cb378d34b6f14ee7c545fc633a0987fbde89f92b189d7617ad47ba9ce56182872bd76dd45611ae0725a51c83dae9671b3e6919cbf87d96f74da75a7c058162a70bf74df476318e2705853ca3fac9473b1e4939ebd85db6d76d877a5c25a142c76b972d941651ee4765e55cc39aa9275b7e29598bb83dd6b70de71a3c45c122e74bb70db43671ce6745c57ce3ba89077b5e0979ab981df6972dc73a1c65e10207ab57ed54d6912e87a5259c035a69e79bbee9994b78fd1677cd27dafc8501e2278b77cd74f6b10ea78505bc237a49c7bb9ec9b96b58dd3657ed07fadca521c247eb17ad1496d16ec7e565dc431a29a7dbfea9d90b38bd56378d679abcc541a267cb378d34b6f14ee7c545fc633a0987fbde89f92b189d7617ad47ba9ce56182872bd76dd45611ae0725a51c83dae9671b3e6919cbf87d96f74da75a7c058162a70bf74df476318e2705853ca3fac9473b1e4939ebd85db6d76d877a5c25a142c76b972d941651ee4765e55cc39aa9275b7e29598bb83dd6b70de71a3c45c122e74bb70db43671ce6745c57ce3ba89077b5e0979ab981df6972dc73a1c65e10207ab57ed54d6912e87a5259c035a69e79bbee9994b78fd1677cd27dafc8501e2278b77cd74f6b10ea78505bc237a49c7bb9ec9b96b58dd3657ed07fadca521c247eb17ad1496d16ec7e565dc431a29a7dbfea9d90b38bd56378d679abcc541a267cb378d34b6f14ee7c545fc633a0987fbde89f92b189d7617ad47ba9ce56182872bd76dd45611ae0725a51c83dae9679c1e7d76add2fb23e06d90b247633e37feab268b209f7ceb8c74e28ba45b0061",
        "hex": "6a2007f1cf6ff874034cbbef39ef2986b503866d1ceadd8f01812b789d8e4a6ba4214db00407ab57ed54d6912e87a5259c035a69e79bbee9994b78fd1677cd27dafc8501e2278b77cd74f6b10ea78505bc237a49c7bb9ec9b96b58dd3657ed07fadca521c247eb17ad1496d16ec7e565dc431a29a7dbfea9d90b38bd56378d679abcc541a267cb378d34b6f14ee7c545fc633a0987fbde89f92b189d7617ad47ba9ce56182872bd76dd45611ae0725a51c83dae9671b3e6919cbf87d96f74da75a7c058162a70bf74df476318e2705853ca3fac9473b1e4939ebd85db6d76d877a5c25a142c76b972d941651ee4765e55cc39aa9275b7e29598bb83dd6b70de71a3c45c122e74bb70db43671ce6745c57ce3ba89077b5e0979ab981df6972dc73a1c65e10207ab57ed54d6912e87a5259c035a69e79bbee9994b78fd1677cd27dafc8501e2278b77cd74f6b10ea78505bc237a49c7bb9ec9b96b58dd3657ed07fadca521c247eb17ad1496d16ec7e565dc431a29a7dbfea9d90b38bd56378d679abcc541a267cb378d34b6f14ee7c545fc633a0987fbde89f92b189d7617ad47ba9ce56182872bd76dd45611ae0725a51c83dae9671b3e6919cbf87d96f74da75a7c058162a70bf74df476318e2705853ca3fac9473b1e4939ebd85db6d76d877a5c25a142c76b972d941651ee4765e55cc39aa9275b7e29598bb83dd6b70de71a3c45c122e74bb70db43671ce6745c57ce3ba89077b5e0979ab981df6972dc73a1c65e10207ab57ed54d6912e87a5259c035a69e79bbee9994b78fd1677cd27dafc8501e2278b77cd74f6b10ea78505bc237a49c7bb9ec9b96b58dd3657ed07fadca521c247eb17ad1496d16ec7e565dc431a29a7dbfea9d90b38bd56378d679abcc541a267cb378d34b6f14ee7c545fc633a0987fbde89f92b189d7617ad47ba9ce56182872bd76dd45611ae0725a51c83dae9671b3e6919cbf87d96f74da75a7c058162a70bf74df476318e2705853ca3fac9473b1e4939ebd85db6d76d877a5c25a142c76b972d941651ee4765e55cc39aa9275b7e29598bb83dd6b70de71a3c45c122e74bb70db43671ce6745c57ce3ba89077b5e0979ab981df6972dc73a1c65e10207ab57ed54d6912e87a5259c035a69e79bbee9994b78fd1677cd27dafc8501e2278b77cd74f6b10ea78505bc237a49c7bb9ec9b96b58dd3657ed07fadca521c247eb17ad1496d16ec7e565dc431a29a7dbfea9d90b38bd56378d679abcc541a267cb378d34b6f14ee7c545fc633a0987fbde89f92b189d7617ad47ba9ce56182872bd76dd45611ae0725a51c83dae9671b3e6919cbf87d96f74da75a7c058162a70bf74df476318e2705853ca3fac9473b1e4939ebd85db6d76d877a5c25a142c76b972d941651ee4765e55cc39aa9275b7e29598bb83dd6b70de71a3c45c122e74bb70db43671ce6745c57ce3ba89077b5e0979ab981df6972dc73a1c65e10207ab57ed54d6912e87a5259c035a69e79bbee9994b78fd1677cd27dafc8501e2278b77cd74f6b10ea78505bc237a49c7bb9ec9b96b58dd3657ed07fadca521c247eb17ad1496d16ec7e565dc431a29a7dbfea9d90b38bd56378d679abcc541a267cb378d34b6f14ee7c545fc633a0987fbde89f92b189d7617ad47ba9ce56182872bd76dd45611ae0725a51c83dae9679c1e7d76add2fb23e06d90b247633e37feab268b209f7ceb8c74e28ba45b0061",
        "type": "nulldata"
      }
    }
  ],
  "blockhash": "b00c1afcc726d07acf9b884f47bf06130e4cba196c4900690ef7405d42c36beb",
  "confirmations": 1,
  "time": 1764180257,
  "blocktime": 1764180257
}