{
  "hex": "01000000000101775ce7a868c389d20278e253088824d01746de355dcc98c79014464a44d497840100000000feffffff0200e1f50500000000fdd5046a20d9a190a9a703abe0229933b701be18ca2fe1b3eda3f98d411509b009a3bd33434db004ded3f38c0f27c71bbcf37e0ca45549f0b3faa3aafdad62e2de2cf776eae3ae16fef3d3ac2f07e73b9cd35e2c847569d093da838add8d42c2fe0cd756cac38e369e93b3cc4f67875bfcb33e4ce41509b0f3bae3eabded22a29e6cb736aaa3ee56beb393ec6f47a77bdc931e6cc4352990d39ac3ca9dcd0282be4c97168a83ce765e53730c8fa7479b3c73fe8c24d5c970337a232a7d2de2625eac77f66a632e967e73532caf8767bb1c53deac04f5e950135a030a5d0dc2427e8c57d64a430eb61e13334ccfe707db7c33becc64958930733a636a3d6da2221eec37b62a236ed63e33136cefc727fb5c139eec44b5a910531a434a1d4d82023ecc17960a034ef6ded3f38c0f27c71bbcf37e0ca45549f0b3faa3aafdad62e2de2cf776eae3ae16fef3d3ac2f07e73b9cd35e2c847569d093da838add8d42c2fe0cd756cac38e369e93b3cc4f67875bfcb33e4ce41509b0f3bae3eabded22a29e6cb736aaa3ee56beb393ec6f47a77bdc931e6cc4352990d39ac3ca9dcd0282be4c97168a83ce765e53730c8fa7479b3c73fe8c24d5c970337a232a7d2de2625eac77f66a632e967e73532caf8767bb1c53deac04f5e950135a030a5d0dc2427e8c57d64a430eb61e13334ccfe707db7c33becc64958930733a636a3d6da2221eec37b62a236ed63e33136cefc727fb5c139eec44b5a910531a434a1d4d82023ecc17960a034ef6ded3f38c0f27c71bbcf37e0ca45549f0b3faa3aafdad62e2de2cf776eae3ae16fef3d3ac2f07e73b9cd35e2c847569d093da838add8d42c2fe0cd756cac38e369e93b3cc4f67875bfcb33e4ce41509b0f3bae3eabded22a29e6cb736aaa3ee56beb393ec6f47a77bdc931e6cc4352990d39ac3ca9dcd0282be4c97168a83ce765e53730c8fa7479b3c73fe8c24d5c970337a232a7d2de2625eac77f66a632e967e73532caf8767bb1c53deac04f5e950135a030a5d0dc2427e8c57d64a430eb61e13334ccfe707db7c33becc64958930733a636a3d6da2221eec37b62a236ed63e33136cefc727fb5c139eec44b5a910531a434a1d4d82023ecc17960a034ef6ded3f38c0f27c71bbcf37e0ca45549f0b3faa3aafdad62e2de2cf776eae3ae16fef3d3ac2f07e73b9cd35e2c847569d093da838add8d42c2fe0cd756cac38e369e93b3cc4f67875bfcb33e4ce41509b0f3bae3eabded22a29e6cb736aaa3ee56beb393ec6f47a77bdc931e6cc4352990d39ac3ca9dcd0282be4c97168a83ce765e53730c8fa7479b3c73fe8c24d5c970337a232a7d2de2625eac77f66a632e967e73532caf8767bb1c53deac04f5e950135a030a5d0dc2427e8c57d64a430eb61e13334ccfe707db7c33becc64958930733a636a3d6da2221eec37b62a236ed63e33136cefc727fb5c139eec44b5a910531a434a1d4d82023ecc17960a034ef6ded3f38c0f27c71bbcf37e0ca45549f0b3faa3aafdad62e2de2cf776eae3ae16fef3d3ac2f07e73b9cd35e2c847569d093da838add8d42c2fe0cd756cac38e369e93b3cc4f67875bfcb33e4ce41509b0f3bae3eabded22a29e6cb736aaa3ee56beb393ec6f47a77bdc931e6cc4352990d39ac3ca9dcd0282be4c97168a83ce765e53730c8fa7479b3c73fe8c24d5c9706e1147af80b1f174aa8e079b6f81392791edbb2b039ea28156ef875a17284cbca077e402792d00002251208bd7a0471c87f72bb986a2abebb28c26365f7c6dee5720113e14e9ada1de932502fd7509877b63e8de3a1b0e6702e9852297300b568e42d1ae5ed2a30a2269d034d16807c5b17e1dac49888eaf79a413baf9126d038955393925cdd95774a0948dc5d6e4c95c35bea8eaa01c36815ce50f3d743b292179a459572be30e7c25b305480ef22ccc900b126344de65d796773b876869cffeb5a7d447a321656065e430beae83d7bcec9d82720d3c761c71015b4fdf2cbd1f5e0114800c69b855b1808a1b7b0ef3bc5b3f2e2c5e64c740fc4ea12fe1d44f8ba73556276b99605b91ee9335ec374aa3ecc13a7c5edd58b6ba4e1cef4120df076d1c67618d91a982f615fdbc3221029595f0d641129cf8df7da11d0f346dbf81c63d9333df12c7eb87db1d688471674de83816156d4ff5453311126ca524365e7450e73dcdcdf8da557f44aa67ee08a057a8fbbd17717e5a36e3e6358fedd6c7e3df1b69661a94e60a90fbc28c0f3172007b16e89992f7cb6eafc3086c3a1c6c7fda9986dc431bd6e55e46f3a9548618839f91f8941527b980ce7d805386984b3a6261557e27594868ff220b9dd9f261cb29080ff032873f419b9c8e2891152c11675696b6270248ea7bdb59a2ce96e653ab35f2f4bae7cc303e73762927355e520bc77ea59795766d6fb878a3d25496faf9ec53ca4371ed6e6991ffd1b9e72e4a852bdd2f4e24d919652770ac945be31c4637083bcf918933ac3b0a5f12a0ac13506bf895d017ce1b24fab771882b3da4e0c9c0eb70e6ce84fe174392e9f6a51dace359ea3567a45cf6c9d29c645f4c841f3c08b5e4cd2a1bab5dd6aec8ddfa6aa03ff1e792c3dec1a2721305fd8aa317a6d7408b6ffdadba14a6722210d042f1bd951b838cc4021c353bd4f472235e43f8e8f75696fa622372493ca2d91dc7a81fb56661646e664aa59a89e7776b3a96428609cedda73d50c237fd1cd23f0071391e4b574966a6ea480a8eff9826246cbaa7c292d5c5e9c2c4c960fa691da309d79f8debc7595dc92a73eca242068d65a7122077f317f00351ba98c6f0e4c182b6d23c7b9754ee36feb30c523d628d322748d542bbbdb3933dabde34a76ed7b458afd6ff3de5c97cdb272168aa0a5692ba0e712187e0150009e816251c2f41a39005ac7f8dd953d0adfc893b99f3f262d08c904b83b093e935fe8ed3ef426dd9cd4cad14544b2e2a34950e2f79ea0b820affa106a52ab890d0293a6764e89c09e15a3274d2bb6d2ce550fb28d781eafe3975c5f2cd341563c4324a5c7d0a8dfc3f7490751de0b5a6d9abea653684fc7662ae1839facbd998b8946e06a65585d5157183820558748f0bf6578f566409318ef35a30960b7c7431a1f103644592c59d87ad1c27c70abbc40315947971588fff4fffdb2dab5b724de112269738f1bab5abe98a03a6071692b296f9083a2cbd99b00d9fdc9b661183b13cd5e714453419d3221f418e24e9c15875c57c76bfe4daf17d5a65a52e699af8c547b05316ff4304a97dea45d5d31f368d7c3d2a1f9ce275e82696ebd33df3d4b17e05d8c7db1c6551ea8a2a16230bebc979623a996b0025f693ce384c63eebcde9529bbb774d7d7e9858937d8edeee48ebed7069fda3df47b64e5e4dd36ffeaabecf7499f7c9d8960d34495376198c65a7d9f13c548da41a44b8d6a567db169f8f30fc2dab604fc633ed6995098f4254a7bfaa2396a0fd669e6ba6b35f4f67af982f04cbf9fdc5bf784af84fa05211e376d036110717dcda93f72d7e24f9b4930f64846f98293db1c9d2dafb8e7a57760d5e868b18ee19dca40c918d1f722d4e5f3400694b43259f58950d0e5f4560e6d1e2c076b67b8f15097e39b9c50c8524ad1f3a43a8303602f5750390ca2b441e9a40648734f0b1aa0298a6d3372caa4448cd886bf63836657191f8d2e81b25cc820b9a5f254d0ccfa7bbea4ec8555da3bb033094cfcdcdc9ddc392552e4d61202d1f2f24ca08eea300e64431129868a9b292b63fba927f8b2249c4f1969b2b2db17a5ec54bea83a7ba8dd079fd7dd1f1d29ee07911249c2716dbbab8bd4eab2e5b5468481c6407d1538147637400fcaeebb0ceafd63794298e240b50889d0c5cd38aa18796945bc72aa9684bcab13d5d002d368eed0b86075fa5e3cb84d7b4d5452f1752aa755036ce7d3839f661067e48275297b65f237e60597e3d9103f12496b204d0a85429deb44b776415786634ca3df08285161cab45ee8f7100a2f9b721cb644b2d11a6f882ddd767f01a1a8664952ffe4731e31e2a1590577a08e398ce9d51f5cc9f07e555780e718df851f0dba0d421c330820dae40e95863cdaa8bf66a76857b3b1c2d9a42f451d6b0cf21b68ea774aea7c5067ee92dcb54e5eb324229b71e7c449444d58c4c5ae50b6eb26685c81af1bb5b5e127c13cd1aa2e7eb00af61abb22aa2a1a9348cdc3ab1f59dfcbba20033618eaf162697533ca341423cc33cbd0e66e15f07d7d489da33f335625df1c2783785ba581d4cfc0c51bc8fc969aa890e70c908f00e2c4bf38e103bfe956a7bc89e0ca25fb8e0d66dc8a1c6fa5f56c8ff0562200c620c0594826fff0475a18d5107d92d44d503698d2c3acbd816595d1cbef6ddf04aad88df0e3a49de98a4ab6d5db471ebc5b5cb2a8dd5895e7abca0a40a0e5e908b9ecbc265a70efb155a4bbee10c21bb96accde7137752f1d3017e5c496043faab3ced653f50e2ad602bb88610ca1a8af603047329ad5dd2ee98b61648ef239cf6145888f351340826044bfed21c871d3ff07e1a9ce699cef1ebee45934d9e4fc8671084e2e548be1a86a2f042d59808e9169267675d3fc29a196661b41ad24713a70e33ac3760e0752ace45a640e94b94d1a8508e580031059e5eec59bc1d7ffcc0d8d9385bacd778ace87a7752381a2cfb9231e0dbcb3aa1acd4fb64639c7d52caae6d3bf3a4d1e9679f93429487fcb1d9d661e8e59e081641226f94bdeb6274f0afe0e9497e2216f1bef4211b7fa7ac22c4129cbcdc21de7be28cbf06a02ddb20d08029e57caca38df6b825ea1b69e4dbc7fad0f1ca170cba431759992aa319f7cd51ab651269cfc8be9599a08dbf55b94e51836f5d321acbd032d48d3daed74be7aaae478197ab84219071be5fbbead854f0b48183d8adeb04939248967e77607c3bde4bb2fd4e9c4fa85a6563339223969b7c8e64bf349bfa29f21cbe7cd3883c3de306c0e63bead56b83313722670ec71720e2f35f3091ac3fa858a44314b1f2f7ee5ec3bd0ff1b5aa0c514084884cdbe2ed9e81349559405a0b4fd5a297b0f3f4a270d4db0244eb0626e90bce51927ce0f3c997d6def04404d585e658b9699b5bee0f7045663737779a8b5b6bfc9ddf48c8d9eafc0c1c5c9d804090f25334f58758b8c93a5bdc4c8d5dbe7f900000000000000000000000000000000000000000000000000000d1a233601fd21050078e37b836355eb8bd4e1083c48ac4c51090f6022d7e2edc53614f1100da1ae1537806ba1e119d5d69ffb4ce470157c2d9bce41cf6de364e77767ce0dbbd7afc4587b7f0f3046cb5c778984c7d88627410f57f107ea2892aebd3d17415113acdc89d866eaf2fadd54cb872a3acac8e221b021cb3fa5550795ae77fdeb1bb99c6177f5f5604ae8c1f6536a88402cbb42f278a00dca2cd0d9aca7a310c33426a86087b4260b843db456c93bee7a0dbecb725746a4928a56f8e832e9311ff5ed8f56d3c62b64098ba2f2de7d5b345e92b0a762238b4894ec61583adc38602ec0bf5038985dd851cb75b91092b0b1020ce1fe77b4291d2f81a6a3159e3ac8b26ed7b2a25b4833e9295b3a157a2c1512ab4ca7d45bbf70f56d28f93cfdba640d1047868a67f9af26e71be9a9665f2d36f3d5fb14afc5ea85de7ca3e76a83f033b7f09d612f457aeb176e2f8ca8f62184a2dddae7f904132f7c7d65e3ea96c57228011bd6da64a31720498202add18d0e419e30313131f7f1de1bdddaac38bc0dece8a54fa1e6bc9243be06ee70a2d0f039b209be0c4b4315b0622542754f7d1ed08ad7406493f3bec06555f33dab7b0fe6ea5071ab8562e10a96318a5fc21ceb9bde5e3e1977c591c6d7aba94161418415224635ef11dff6b8f8331147617501f331fa4b96431677b4d4924c17bb170724aac623d544f52f82ecb99dc5ae43b58a9ffe175f1d26ea7e109802f9a4948a76dc4c50aaaa6c15a3c4c08ba43606fe37a467f11b22cc23ef95df22ac4fba99e510b713ef46d91327fa9ae816a3acf98344fcd3f7f40867f768c9e50b139d8d63fc252d95e3410bbb4b17a7d07b96b3e5b1c5423aa71aa01e6a965a40c5df411fcc7ca9d8945268bc271bb462601695d678cd57cba3e37d2c8429b75ea2c62ff2d39f06ff517cfea975dc002791a980b8bd4f78ef629befd4c1b81d162b8cbe4af96811d45cfcbfc3f1998ed4d303fcb012200dde97e2dee4abef87b4545ea3549d73e2231a7c699fd6cc2fc8e034e39c513fd4644f647838a89168def35439d05300f5df3557f9cc30b5620511dde25dac588c8ad385d9bad29718f0c59f17752248103d4cbf3e8b2b24d6c6217f9b5447135add85c2046ffbbec8e8e9f316cb1214ace97dab3f5118f7a7aa8319e18a2ca8ac6a73a87a27ae87e6d23755312cfad0937808f033d99007fd3d88c099f6c076f3a1d50e6e084ffde4b763063c9df0675c7128001d2c77e8ca6612b1cce451746aad32551ca9f1b57fe5e84bcc9779249cb254b1785d4cb1a1cac2277adca5bef9f64782743a7a8854877eea6c506e45f73a72dce9b3e8ff17816da9b049824e887db2477af2170a9ad16cd7f0f74220309093dd6a50414143dc7d31a88b4006f2f66e6dc45d08a27e39314e61484c4199115ecf8c82d1f4b135a0fe25c4fa5bc17b8e18323688fa2a1ab60a90ccdcc12c6361893dff0d5d4588d0777ab073176a21cbcbe3b9771f23d1d640aef1209c0f2a1e1275e6a37697f067801a4b21e1521fdc49725246e5129cee705d4660da35dac16d049b8397e4742f450c0fdd091a8f0a92e7b50a1cb955e3f909fd4e49432557e2b3f7eef7660d1c1315f7b0407879225c0258ca7e571b5e310d17551085daaf9b29f41eab300a0f2c36249ec570a9aa95ada2b473fdf005b764e2ab8826454954c5abb4a955802c86b461e64c217bf88d0c602421c27887259056bcb0f7dbcf7ba44c40c4c1db8ed0da0d45b5b40c7f2142f94dfc50f5f0802874ee51c1c649fc85d3624398d97e0c5af74fc33bd0a259b82f6f94bfbd1e6b3edda70f9446e1cae29d6bbf8cdf2d767ddfa1f275000000",
  "txid": "0408ae71f50b0fbe5076f79b0bfc9206193b2db64ee1c2ecbebc96c6eb0efcdd",
  "hash": "b5f4eae524d837b95154622973be0dc73a8ad4b9c25ccb5c1bd02a2c2e35de49",
  "size": 5085,
  "vsize": 2278,
  "version": 1,
  "locktime": 117,
  "vin": [
    {
      "txid": "8497d4444a461490c798cc5d35de4617d024880853e27802d289c368a8e75c77",
      "vout": 1,
      "scriptSig": {
        "asm": "",
        "hex": ""
      },
      "txinwitness": [
        "877b63e8de3a1b0e6702e9852297300b568e42d1ae5ed2a30a2269d034d16807c5b17e1dac49888eaf79a413baf9126d038955393925cdd95774a0948dc5d6e4c95c35bea8eaa01c36815ce50f3d743b292179a459572be30e7c25b305480ef22ccc900b126344de65d796773b876869cffeb5a7d447a321656065e430beae83d7bcec9d82720d3c761c71015b4fdf2cbd1f5e0114800c69b855b1808a1b7b0ef3bc5b3f2e2c5e64c740fc4ea12fe1d44f8ba73556276b99605b91ee9335ec374aa3ecc13a7c5edd58b6ba4e1cef4120df076d1c67618d91a982f615fdbc3221029595f0d641129cf8df7da11d0f346dbf81c63d9333df12c7eb87db1d688471674de83816156d4ff5453311126ca524365e7450e73dcdcdf8da557f44aa67ee08a057a8fbbd17717e5a36e3e6358fedd6c7e3df1b69661a94e60a90fbc28c0f3172007b16e89992f7cb6eafc3086c3a1c6c7fda9986dc431bd6e55e46f3a9548618839f91f8941527b980ce7d805386984b3a6261557e27594868ff220b9dd9f261cb29080ff032873f419b9c8e2891152c11675696b6270248ea7bdb59a2ce96e653ab35f2f4bae7cc303e73762927355e520bc77ea59795766d6fb878a3d25496faf9ec53ca4371ed6e6991ffd1b9e72e4a852bdd2f4e24d919652770ac945be31c4637083bcf918933ac3b0a5f12a0ac13506bf895d017ce1b24fab771882b3da4e0c9c0eb70e6ce84fe174392e9f6a51dace359ea3567a45cf6c9d29c645f4c841f3c08b5e4cd2a1bab5dd6aec8ddfa6aa03ff1e792c3dec1a2721305fd8aa317a6d7408b6ffdadba14a6722210d042f1bd951b838cc4021c353bd4f472235e43f8e8f75696fa622372493ca2d91dc7a81fb56661646e664aa59a89e7776b3a96428609cedda73d50c237fd1cd23f0071391e4b574966a6ea480a8eff9826246cbaa7c292d5c5e9c2c4c960fa691da309d79f8debc7595dc92a73eca242068d65a7122077f317f00351ba98c6f0e4c182b6d23c7b9754ee36feb30c523d628d322748d542bbbdb3933dabde34a76ed7b458afd6ff3de5c97cdb272168aa0a5692ba0e712187e0150009e816251c2f41a39005ac7f8dd953d0adfc893b99f3f262d08c904b83b093e935fe8ed3ef426dd9cd4cad14544b2e2a34950e2f79ea0b820affa106a52ab890d0293a6764e89c09e15a3274d2bb6d2ce550fb28d781eafe3975c5f2cd341563c4324a5c7d0a8dfc3f7490751de0b5a6d9abea653684fc7662ae1839facbd998b8946e06a65585d5157183820558748f0bf6578f566409318ef35a30960b7c7431a1f103644592c59d87ad1c27c70abbc40315947971588fff4fffdb2dab5b724de112269738f1bab5abe98a03a6071692b296f9083a2cbd99b00d9fdc9b661183b13cd5e714453419d3221f418e24e9c15875c57c76bfe4daf17d5a65a52e699af8c547b05316ff4304a97dea45d5d31f368d7c3d2a1f9ce275e82696ebd33df3d4b17e05d8c7db1c6551ea8a2a16230bebc979623a996b0025f693ce384c63eebcde9529bbb774d7d7e9858937d8edeee48ebed7069fda3df47b64e5e4dd36ffeaabecf7499f7c9d8960d34495376198c65a7d9f13c548da41a44b8d6a567db169f8f30fc2dab604fc633ed6995098f4254a7bfaa2396a0fd669e6ba6b35f4f67af982f04cbf9fdc5bf784af84fa05211e376d036110717dcda93f72d7e24f9b4930f64846f98293db1c9d2dafb8e7a57760d5e868b18ee19dca40c918d1f722d4e5f3400694b43259f58950d0e5f4560e6d1e2c076b67b8f15097e39b9c50c8524ad1f3a43a8303602f5750390ca2b441e9a40648734f0b1aa0298a6d3372caa4448cd886bf63836657191f8d2e81b25cc820b9a5f254d0ccfa7bbea4ec8555da3bb033094cfcdcdc9ddc392552e4d61202d1f2f24ca08eea300e64431129868a9b292b63fba927f8b2249c4f1969b2b2db17a5ec54bea83a7ba8dd079fd7dd1f1d29ee07911249c2716dbbab8bd4eab2e5b5468481c6407d1538147637400fcaeebb0ceafd63794298e240b50889d0c5cd38aa18796945bc72aa9684bcab13d5d002d368eed0b86075fa5e3cb84d7b4d5452f1752aa755036ce7d3839f661067e48275297b65f237e60597e3d9103f12496b204d0a85429deb44b776415786634ca3df08285161cab45ee8f7100a2f9b721cb644b2d11a6f882ddd767f01a1a8664952ffe4731e31e2a1590577a08e398ce9d51f5cc9f07e555780e718df851f0dba0d421c330820dae40e95863cdaa8bf66a76857b3b1c2d9a42f451d6b0cf21b68ea774aea7c5067ee92dcb54e5eb324229b71e7c449444d58c4c5ae50b6eb26685c81af1bb5b5e127c13cd1aa2e7eb00af61abb22aa2a1a9348cdc3ab1f59dfcbba20033618eaf162697533ca341423cc33cbd0e66e15f07d7d489da33f335625df1c2783785ba581d4cfc0c51bc8fc969aa890e70c908f00e2c4bf38e103bfe956a7bc89e0ca25fb8e0d66dc8a1c6fa5f56c8ff0562200c620c0594826fff0475a18d5107d92d44d503698d2c3acbd816595d1cbef6ddf04aad88df0e3a49de98a4ab6d5db471ebc5b5cb2a8dd5895e7abca0a40a0e5e908b9ecbc265a70efb155a4bbee10c21bb96accde7137752f1d3017e5c496043faab3ced653f50e2ad602bb88610ca1a8af603047329ad5dd2ee98b61648ef239cf6145888f351340826044bfed21c871d3ff07e1a9ce699cef1ebee45934d9e4fc8671084e2e548be1a86a2f042d59808e9169267675d3fc29a196661b41ad24713a70e33ac3760e0752ace45a640e94b94d1a8508e580031059e5eec59bc1d7ffcc0d8d9385bacd778ace87a7752381a2cfb9231e0dbcb3aa1acd4fb64639c7d52caae6d3bf3a4d1e9679f93429487fcb1d9d661e8e59e081641226f94bdeb6274f0afe0e9497e2216f1bef4211b7fa7ac22c4129cbcdc21de7be28cbf06a02ddb20d08029e57caca38df6b825ea1b69e4dbc7fad0f1ca170cba431759992aa319f7cd51ab651269cfc8be9599a08dbf55b94e51836f5d321acbd032d48d3daed74be7aaae478197ab84219071be5fbbead854f0b48183d8adeb04939248967e77607c3bde4bb2fd4e9c4fa85a6563339223969b7c8e64bf349bfa29f21cbe7cd3883c3de306c0e63bead56b83313722670ec71720e2f35f3091ac3fa858a44314b1f2f7ee5ec3bd0ff1b5aa0c514084884cdbe2ed9e81349559405a0b4fd5a297b0f3f4a270d4db0244eb0626e90bce51927ce0f3c997d6def04404d585e658b9699b5bee0f7045663737779a8b5b6bfc9ddf48c8d9eafc0c1c5c9d804090f25334f58758b8c93a5bdc4c8d5dbe7f900000000000000000000000000000000000000000000000000000d1a233601",
        "0078e37b836355eb8bd4e1083c48ac4c51090f6022d7e2edc53614f1100da1ae1537806ba1e119d5d69ffb4ce470157c2d9bce41cf6de364e77767ce0dbbd7afc4587b7f0f3046cb5c778984c7d88627410f57f107ea2892aebd3d17415113acdc89d866eaf2fadd54cb872a3acac8e221b021cb3fa5550795ae77fdeb1bb99c6177f5f5604ae8c1f6536a88402cbb42f278a00dca2cd0d9aca7a310c33426a86087b4260b843db456c93bee7a0dbecb725746a4928a56f8e832e9311ff5ed8f56d3c62b64098ba2f2de7d5b345e92b0a762238b4894ec61583adc38602ec0bf5038985dd851cb75b91092b0b1020ce1fe77b4291d2f81a6a3159e3ac8b26ed7b2a25b4833e9295b3a157a2c1512ab4ca7d45bbf70f56d28f93cfdba640d1047868a67f9af26e71be9a9665f2d36f3d5fb14afc5ea85de7ca3e76a83f033b7f09d612f457aeb176e2f8ca8f62184a2dddae7f904132f7c7d65e3ea96c57228011bd6da64a31720498202add18d0e419e30313131f7f1de1bdddaac38bc0dece8a54fa1e6bc9243be06ee70a2d0f039b209be0c4b4315b0622542754f7d1ed08ad7406493f3bec06555f33dab7b0fe6ea5071ab8562e10a96318a5fc21ceb9bde5e3e1977c591c6d7aba94161418415224635ef11dff6b8f8331147617501f331fa4b96431677b4d4924c17bb170724aac623d544f52f82ecb99dc5ae43b58a9ffe175f1d26ea7e109802f9a4948a76dc4c50aaaa6c15a3c4c08ba43606fe37a467f11b22cc23ef95df22ac4fba99e510b713ef46d91327fa9ae816a3acf98344fcd3f7f40867f768c9e50b139d8d63fc252d95e3410bbb4b17a7d07b96b3e5b1c5423aa71aa01e6a965a40c5df411fcc7ca9d8945268bc271bb462601695d678cd57cba3e37d2c8429b75ea2c62ff2d39f06ff517cfea975dc002791a980b8bd4f78ef629befd4c1b81d162b8cbe4af96811d45cfcbfc3f1998ed4d303fcb012200dde97e2dee4abef87b4545ea3549d73e2231a7c699fd6cc2fc8e034e39c513fd4644f647838a89168def35439d05300f5df3557f9cc30b5620511dde25dac588c8ad385d9bad29718f0c59f17752248103d4cbf3e8b2b24d6c6217f9b5447135add85c2046ffbbec8e8e9f316cb1214ace97dab3f5118f7a7aa8319e18a2ca8ac6a73a87a27ae87e6d23755312cfad0937808f033d99007fd3d88c099f6c076f3a1d50e6e084ffde4b763063c9df0675c7128001d2c77e8ca6612b1cce451746aad32551ca9f1b57fe5e84bcc9779249cb254b1785d4cb1a1cac2277adca5bef9f64782743a7a8854877eea6c506e45f73a72dce9b3e8ff17816da9b049824e887db2477af2170a9ad16cd7f0f74220309093dd6a50414143dc7d31a88b4006f2f66e6dc45d08a27e39314e61484c4199115ecf8c82d1f4b135a0fe25c4fa5bc17b8e18323688fa2a1ab60a90ccdcc12c6361893dff0d5d4588d0777ab073176a21cbcbe3b9771f23d1d640aef1209c0f2a1e1275e6a37697f067801a4b21e1521fdc49725246e5129cee705d4660da35dac16d049b8397e4742f450c0fdd091a8f0a92e7b50a1cb955e3f909fd4e49432557e2b3f7eef7660d1c1315f7b0407879225c0258ca7e571b5e310d17551085daaf9b29f41eab300a0f2c36249ec570a9aa95ada2b473fdf005b764e2ab8826454954c5abb4a955802c86b461e64c217bf88d0c602421c27887259056bcb0f7dbcf7ba44c40c4c1db8ed0da0d45b5b40c7f2142f94dfc50f5f0802874ee51c1c649fc85d3624398d97e0c5af74fc33bd0a259b82f6f94bfbd1e6b3edda70f9446e1cae29d6bbf8cdf2d767ddfa1f2"
      ],
      "sequence": 4294967294
    }
  ],
  "vout": [
    {
      "value": 1.0,
      "n": 0,
      "scriptPubKey": {
        "asm": "OP_RETURN d9a190a9a703abe0229933b701be18ca2fe1b3eda3f98d411509b009a3bd3343 ded3f38c0f27c71bbcf37e0ca45549f0b3faa3aafdad62e2de2cf776eae3ae16fef3d3ac2f07e73b9cd35e2c847569d093da838add8d42c2fe0cd756cac38e369e93b3cc4f67875bfcb33e4ce41509b0f3bae3eabded22a29e6cb736aaa3ee56beb393ec6f47a77bdc931e6cc4352990d39ac3ca9dcd0282be4c97168a83ce765e53730c8fa7479b3c73fe8c24d5c970337a232a7d2de2625eac77f66a632e967e73532caf8767bb1c53deac04f5e950135a030a5d0dc2427e8c57d64a430eb61e13334ccfe707db7c33becc64958930733a636a3d6da2221eec37b62a236ed63e33136cefc727fb5c139eec44b5a910531a434a1d4d82023ecc17960a034ef6ded3f38c0f27c71bbcf37e0ca45549f0b3faa3aafdad62e2de2cf776eae3ae16fef3d3ac2f07e73b9cd35e2c847569d093da838add8d42c2fe0cd756cac38e369e93b3cc4f67875bfcb33e4ce41509b0f3bae3eabded22a29e6cb736aaa3ee56beb393ec6f47a77bdc931e6cc4352990d39ac3ca9dcd0282be4c97168a83ce765e53730c8fa7479b3c73fe8c24d5c970337a232a7d2de2625eac77f66a632e967e73532caf8767bb1c53deac04f5e950135a030a5d0dc2427e8c57d64a430eb61e13334ccfe707db7c33becc64958930733a636a3d6da2221eec37b62a236ed63e33136cefc727fb5c139eec44b5a910531a434a1d4d82023ecc17960a034ef6ded3f38c0f27c71bbcf37e0ca45549f0b3faa3aafdad62e2de2cf776eae3ae16fef3d3ac2f07e73b9cd35e2c847569d093da838add8d42c2fe0cd756cac38e369e93b3cc4f67875bfcb33e4ce41509b0f3bae3eabded22a29e6cb736aaa3ee56beb393ec6f47a77bdc931e6cc4352990d39ac3ca9dcd0282be4c97168a83ce765e53730c8fa7479b3c73fe8c24d5c970337a232a7d2de2625eac77f66a632e967e73532caf8767bb1c53deac04f5e950135a030a5d0dc2427e8c57d64a430eb61e13334ccfe707db7c33becc64958930733a636a3d6da2221eec37b62a236ed63e33136cefc727fb5c139eec44b5a910531a434a1d4d82023ecc17960a034ef6ded3f38c0f27c71bbcf37e0ca45549f0b3faa3aafdad62e2de2cf776eae3ae16fef3d3ac2f07e73b9cd35e2c847569d093da838add8d42c2fe0cd756cac38e369e93b3cc4f67875bfcb33e4ce41509b0f3bae3eabded22a29e6cb736aaa3ee56beb393ec6f47a77bdc931e6cc4352990d39ac3ca9dcd0282be4c97168a83ce765e53730c8fa7479b3c73fe8c24d5c970337a232a7d2de2625eac77f66a632e967e73532caf8767bb1c53deac04f5e950135a030a5d0dc2427e8c57d64a430eb61e13334ccfe707db7c33becc64958930733a636a3d6da2221eec37b62a236ed63e33136cefc727fb5c139eec44b5a910531a434a1d4d82023ecc17960a034ef6ded3f38c0f27c71bbcf37e0ca45549f0b3faa3aafdad62e2de2cf776eae3ae16fef3d3ac2f07e73b9cd35e2c847569d093da838add8d42c2fe0cd756cac38e369e93b3cc4f67875bfcb33e4ce41509b0f3bae3eabded22a29e6cb736aaa3ee56beb393ec6f47a77bdc931e6cc4352990d39ac3ca9dcd0282be4c97168a83ce765e53730c8fa7479b3c73fe8c24d5c9706e1147af80b1f174aa8e079b6f81392791edbb2b039ea28156ef875a17284cbc",
        "hex": "6a20d9a190a9a703abe0229933b701be18ca2fe1b3eda3f98d411509b009a3bd33434db004ded3f38c0f27c71bbcf37e0ca45549f0b3faa3aafdad62e2de2cf776eae3ae16fef3d3ac2f07e73b9cd35e2c847569d093da838add8d42c2fe0cd756cac38e369e93b3cc4f67875bfcb33e4ce41509b0f3bae3eabded22a29e6cb736aaa3ee56beb393ec6f47a77bdc931e6cc4352990d39ac3ca9dcd0282be4c97168a83ce765e53730c8fa7479b3c73fe8c24d5c970337a232a7d2de2625eac77f66a632e967e73532caf8767bb1c53deac04f5e950135a030a5d0dc2427e8c57d64a430eb61e13334ccfe707db7c33becc64958930733a636a3d6da2221eec37b62a236ed63e33136cefc727fb5c139eec44b5a910531a434a1d4d82023ecc17960a034ef6ded3f38c0f27c71bbcf37e0ca45549f0b3faa3aafdad62e2de2cf776eae3ae16fef3d3ac2f07e73b9cd35e2c847569d093da838add8d42c2fe0cd756cac38e369e93b3cc4f67875bfcb33e4ce41509b0f3bae3eabded22a29e6cb736aaa3ee56beb393ec6f47a77bdc931e6cc4352990d39ac3ca9dcd0282be4c97168a83ce765e53730c8fa7479b3c73fe8c24d5c970337a232a7d2de2625eac77f66a632e967e73532caf8767bb1c53deac04f5e950135a030a5d0dc2427e8c57d64a430eb61e13334ccfe707db7c33becc64958930733a636a3d6da2221eec37b62a236ed63e33136cefc727fb5c139eec44b5a910531a434a1d4d82023ecc17960a034ef6ded3f38c0f27c71bbcf37e0ca45549f0b3faa3aafdad62e2de2cf776eae3ae16fef3d3ac2f07e73b9cd35e2c847569d093da838add8d42c2fe0cd756cac38e369e93b3cc4f67875bfcb33e4ce41509b0f3bae3eabded22a29e6cb736aaa3ee56beb393ec6f47a77bdc931e6cc4352990d39ac3ca9dcd0282be4c97168a83ce765e53730c8fa7479b3c73fe8c24d5c970337a232a7d2de2625eac77f66a632e967e73532caf8767bb1c53deac04f5e950135a030a5d0dc2427e8c57d64a430eb61e13334ccfe707db7c33becc64958930733a636a3d6da2221eec37b62a236ed63e33136cefc727fb5c139eec44b5a910531a434a1d4d82023ecc17960a034ef6ded3f38c0f27c71bbcf37e0ca45549f0b3faa3aafdad62e2de2cf776eae3ae16fef3d3ac2f07e73b9cd35e2c847569d093da838add8d42c2fe0cd756cac38e369e93b3cc4f67875bfcb33e4ce41509b0f3bae3eabded22a29e6cb736aaa3ee56beb393ec6f47a77bdc931e6cc4352990d39ac3ca9dcd0282be4c97168a83ce765e53730c8fa7479b3c73fe8c24d5c970337a232a7d2de2625eac77f66a632e967e73532caf8767bb1c53deac04f5e950135a030a5d0dc2427e8c57d64a430eb61e13334ccfe707db7c33becc64958930733a636a3d6da2221eec37b62a236ed63e33136cefc727fb5c139eec44b5a910531a434a1d4d82023ecc17960a034ef6ded3f38c0f27c71bbcf37e0ca45549f0b3faa3aafdad62e2de2cf776eae3ae16fef3d3ac2f07e73b9cd35e2c847569d093da838add8d42c2fe0cd756cac38e369e93b3cc4f67875bfcb33e4ce41509b0f3bae3eabded22a29e6cb736aaa3ee56beb393ec6f47a77bdc931e6cc4352990d39ac3ca9dcd0282be4c97168a83ce765e53730c8fa7479b3c73fe8c24d5c9706e1147af80b1f174aa8e079b6f81392791edbb2b039ea28156ef875a17284cbc",
        "type": "nulldata"
      }
    },
    {
      "value": 499977.6282,
      "n": 1,
      "scriptPubKey": {
        "asm": "1 8bd7a0471c87f72bb986a2abebb28c26365f7c6dee5720113e14e9ada1de9325",
        "hex": "51208bd7a0471c87f72bb986a2abebb28c26365f7c6dee5720113e14e9ada1de9325",
        "reqSigs": 1,
        "type": "witness_v1_scripthash",
        "addresses": [
          "3QJmnh"
        ]
      }
    }
  ],
  "blockhash": "443ef5589806c3570db60b1178f56898637f167918ce0f0236a27ac7d0512dc1",
  "confirmations": 1,
  "time": 1764179461,
  "blocktime": 1764179461
}