{
  "hex": "010000000001017b90fa872e14fee176f10c51bdb96301a77f804307515e4bc499e1806c1b36550100000000feffffff0250ce18b4782d00002251200c4c006e5138da8a75ab5f97a2b2d1ab2bc4402fbd9eaf2805970c290253e20300e1f50500000000fdd5046a20aebb5551e5e55f7a90da39079362210ed0a25c5e7658c33cd5d634f30a74b0db4db004db08f3d2cca1f50256561890e63e4c6d45d0497066ca0b478fd881fcd3671792fb28d3f2ec81d522767638b0c61e6c4d65f0695046ea2b67aff8a1dcf34737b29b48b3928ce1b542161658d0a67e0c2d05900930268a4b07cf98c1bc932757d2bb6893b2acc19562363678f0865e2c0d25b0291006aa6b27efb8e19cb30777f25b8873524c217582d6d6981066beccedc550c9f0e64a8bc70f58017c53e797127ba853726c0155a2f6f6b830469eeccde570e9d0c66aabe72f78215c73c7b7321bc833120c6135c29696d85026fe8cad851089b0a60acb874f18413c13a7d7523be813322c4115e2b6b6f87006deac8da530a990862aeba76f38611c3387f772db08f3d2cca1f50256561890e63e4c6d45d0497066ca0b478fd881fcd3671792fb28d3f2ec81d522767638b0c61e6c4d65f0695046ea2b67aff8a1dcf34737b29b48b3928ce1b542161658d0a67e0c2d05900930268a4b07cf98c1bc932757d2bb6893b2acc19562363678f0865e2c0d25b0291006aa6b27efb8e19cb30777f25b8873524c217582d6d6981066beccedc550c9f0e64a8bc70f58017c53e797127ba853726c0155a2f6f6b830469eeccde570e9d0c66aabe72f78215c73c7b7321bc833120c6135c29696d85026fe8cad851089b0a60acb874f18413c13a7d7523be813322c4115e2b6b6f87006deac8da530a990862aeba76f38611c3387f772db08f3d2cca1f50256561890e63e4c6d45d0497066ca0b478fd881fcd3671792fb28d3f2ec81d522767638b0c61e6c4d65f0695046ea2b67aff8a1dcf34737b29b48b3928ce1b542161658d0a67e0c2d05900930268a4b07cf98c1bc932757d2bb6893b2acc19562363678f0865e2c0d25b0291006aa6b27efb8e19cb30777f25b8873524c217582d6d6981066beccedc550c9f0e64a8bc70f58017c53e797127ba853726c0155a2f6f6b830469eeccde570e9d0c66aabe72f78215c73c7b7321bc833120c6135c29696d85026fe8cad851089b0a60acb874f18413c13a7d7523be813322c4115e2b6b6f87006deac8da530a990862aeba76f38611c3387f772db08f3d2cca1f50256561890e63e4c6d45d0497066ca0b478fd881fcd3671792fb28d3f2ec81d522767638b0c61e6c4d65f0695046ea2b67aff8a1dcf34737b29b48b3928ce1b542161658d0a67e0c2d05900930268a4b07cf98c1bc932757d2bb6893b2acc19562363678f0865e2c0d25b0291006aa6b27efb8e19cb30777f25b8873524c217582d6d6981066beccedc550c9f0e64a8bc70f58017c53e797127ba853726c0155a2f6f6b830469eeccde570e9d0c66aabe72f78215c73c7b7321bc833120c6135c29696d85026fe8cad851089b0a60acb874f18413c13a7d7523be813322c4115e2b6b6f87006deac8da530a990862aeba76f38611c3387f772db08f3d2cca1f50256561890e63e4c6d45d0497066ca0b478fd881fcd3671792fb28d3f2ec81d522767638b0c61e6c4d65f0695046ea2b67aff8a1dcf34737b29b48b3928ce1b542161658d0a67e0c2d05900930268a4b07cf98c1bc932757d2bb6893b2acc19562363678f0865e2c0d25b0291006aa6b27efb8e19cb30777f25b8873524c217582d6d6981066becced350f8fbdb8909b2d8b9beb30bd3584916baaf7b09036fd7ab962ebe6c7e2097002fd7509da9bfea2be03d9112e9b38240f5b26f1ec50c3bb8753531891a81db5275987233b821f89127975c1ec112b379c9d300865f9db464696403e9707969620ce9e48fef5a496d098f973971d7ae4587e1b65fcaf4e40ba12f5d5a346636dc435c19436245357c3317563dbb45b401448de9062cd95b439194efca298132f83ecce20ca1e16da796ffd24566df3d3c7822f86b656c411e77d02878515f7da918f9a27b6fc8bb6b7dd450de12e5a6eded12df12d0b24594ab17fe6143549346ea4bb055bd210d646f4b16db8bfbfb1e30cbe2739a6197e0b475c7bc9c7ec9865472ae2ad7606ccdf2452b9542672dfeea52f9e310d8883bef5d5ad8799ad3f5164c82ef857e7e740e60c0a55719f957e0f146f9c8b92dcdee41876b1aba7b07636bf0828556e00367e8c095fd9b38e130fdda4138840d467996aead2b0dbb256721180682140cba19b96637035edc0e2b35401bb9fb16e7784d04569c9d3e60960c6bc2f0a906b9afd46de94285e31b18073dca5c15afc957a506930972b7a2d3080c240437632290796fb598b9d6477130eaa2f193ae3ef215e8c87ce6c8f5962438b6146a4bc840202af43179511ceb2a6dbc65f0dcd477e973a76f14ea53878be5421992bc1e957a959fadb00db1735f6684db67984e96aa0c0c909bbc3fbb3323a6fc477a483a4178b00caa74f646821c5b4f990c7ce2b58ba208f7836d3d101b37fd194857c8ad4d1078f783e74ae53f900d23407499ed326839a4e0428aaaf1230ee16dd08c7fbe050218a907e4e7983fdd2c90640f56a44a734ee95ae9ee7ee67c47795cf710bf341a574425a78423743bdc34cf661ee5cfe46579e74dbe153e6751a4a77d59050c0fe1a956fdba683525780d0d2909421b97ce7cdf6a15a046c050ceedab2d4213cb15df1bd501d9509b87e78e1f215e74c16cde4c4ee5c78d542c28b8dccf7fb88481c72be1f7251dd14c98499afcff28665258159fdc795c582827c0b34dcecf9e9c7bef72e495efb0a009eac1c474b693433ab6c233a6f7b9db7e8b88dc83ea4c42000175fee53c8ec92eb2c86a85935b9f1e05bab9404081cbaefc7bb22685173d42e72199ae64aea0c6946b538ebf98feb1b439631e2ed0a777d19e19eb73b53209f3a4c4a27d5d97ef3c2702ff9e9089d54ab417b9b11dbf0adab4f14866505e02e07a374814fbb1887fab6e2d77c05c0e852daaf269a18691128c797c2f1035d6f6fc9126b6a7c46422db3a479ecea61bd705c1aabcfb5db4c483fa2d2add5e6ba6aef5f9b1b73bb28d45d2560fddb63ce609c99c237530bba258d9e48eda0bd6b27aa77a46181c979e64b807e22dd2503678f59c606e55a7e8c823e612bb66a2a3fa5ef0992f5aea16b14d6a70a46e101f98e5a1da097bf31319015980ceec325d4d0180cb0f24b9244f13af9578ae04ad0a554e916b7833b7b2dfcfd98ab1d9f89eeca03659f819d0cd29496f5fe03c0ec11463efcfc84c6244f75a6cf5fae1301e19cad5365dab50b0e526c784560df84c5bc0cdc6306836a565e479160b7e9f0783b5dab15f5ecf501fb88441b4b656dc7704e0deee5eb18ed51b50eaaac59fb0b339cf4f5890fad0d2e6302fb962866907e8f1af66584b48a25a5851c6f75939cc25c8cebbd41ea909dd023a28cb3fb9597be531e850a8f4f512a5b99616d03362941ef32ff6044b549af9fe8c694a7c296718f777b669d847bf2cc4f5d9f19281619a3be6bd13c874258975f3015c35b9807ea3fb0471848c8a3ecc27c107654c80ee5656e93a572d1d245f9debf671fce7af7d52c6307aeb47fe027a11fab5313db4ab4b0c626527a81bb52265603c619e39cab1a3bf7cb39e5cec74143ddc9c130091c67e34ed5012ed613fff06067123c30592cae28d27598170e1e8d50ef395469a002c84683aad42559c928ba68fd9208628eef00c9bf599398525abbf349c742a1656414c1f7b879b838b3b4febabddab8e018298e117726cbf23ba17f5301d4491aed726c41329a9e41d499d0eccc5c729ad0a5f7c331b8814221d6cfcdea9cb7f1d0201266ec21ddeecc2115309e90aba496cf8a7f860f267c3b51e22e43e97229f35c05bd0a8b8ffb20a7973183e8deb3c1e2812a4b02d01c836608d6a6b6b043832748ea7ed2dde20ef373d81fdb9896d4626f30d1d1bf31e703ef268c2547e819033aa5fae2b64ac343a4666a2b1c7bacf7a1f9322c92b70067e060fbca8a77fb11df12340942c5b53b30cf0411418c16197c84572ac252ad9e44ab3dd55cd71e3d7111b092d1391b4d3174d8eaab42006904488052dc9ec23539f82f6d3b208f51cf673402c436ad8ff6e8f98473dc139c5652d815e81943bf3565a1e246df65e41d543db7062da9326f80dfc32e206f642be6f3bddcc8b0441313a0d3e83a341dd18b7510b8f867cc0b00ada8caa83bba1f9f5ea6967b65b3e42b1c1fe6f0cc7595f9d4f20c2e038d3eafc8da70512cd144fe452250a607de83826edbfb6262522ba69bf0f9c68460a5ae245a74dfc1370393452870c5991159c7d8f993748058f34a05d204fafcb2c07d5a77bc4a251b02457757224bd7aa7b84b49e81ce027a5d27ba5cced5b0165363d8d0ac94743a213e06de041ced6aa933e181a0ae644916fd18e4cfde04a62fa7e29e99c7d60aedd2a977cf68cff487184853375cbaf4ad679a81b6ccbd77cd239d5794cda59ef39903c8463c07a006c2ed9181051a6afe8d1e8a42087d723a7d73007e1b29d70201d1e4584262f0058203034f2694bb3743b276b0d0436bbb709185d4dcc5e75c3e362496e1463d13eddcd13be581b11a8f9a6d1316159b64d2f50db7e9fc4e8c9fe54bd0dc7969753d519a3b982ea278439df269be012941b9a852b45bdc3b61790f96709f1e386bfe48708ba6ff74541b7b933687e425219920052a29debc285535b681ade33b8a0ccafb176c09abb699186f7609aa143924b9fcc29e003f1fc675b2fc9cc48f7d95c9cbfb34359af7e9cc9eedca0744686e22dd3a6eb355ecc9461275e1e87b2bff47ad2be112e849e1e6223c7774d1aa49c68c720643cad5f84e388eedc02ed7582aa29d46e35d5d7fa20a56bb9544b6f8e8f4748fcf9361963302bece264a98de916e154a0c37e233b0abdcd51a3f4e9895ab5c8d7d6121583b72a678e90f4e6d568a18551407339acf432918841f9d5af64a2aa0b898e79adc0eda62d2e5f034bc552c28d4a9b1ac7f9b2bbccf7f3f7b84660b322e45884799887d3e808ef320b76317ce6443aede9a5a224c6e8633b30315163536393d3f4e60868aa8aed1e5eff80f181b1f252f3c5968727895a9b0b1f90b1d2938515b627782a5c5d3d6dadcf40310172d4245555e879ea2afe60000000000000000000000000000000000001121313e01fd2105000e179663962ac43b6013445510c2cf85a46740f8e55cdc0eef92ae2d94742cdadf8b61d08ae3beadc19e13759c24e6f213c7cb482c9202813716a6ce44c7833a3b331e2ec19dad326273204edaa25dbccb2e9fa2b00ae1e84a85f7dbd1a3d4904d4199867ec8f05d1a6b841dc4b1655011cfcd2db91f59ae7864a2227abf9427fcdfd33712c6148e7377460f9bcc1185ba84567edace20f357395809c6e81d44cf8942c41efde8f7769fe126eb6a04eb013a72a9f25dc53c177ea753a1da82ca5f4cca5ea7a535d4ddbfa67b5490206597fb327ce8bf347eeedb8019395fdbae05501bd1cbc2601fe2e87fb8ac36b275d56aeb88eb3ec823ba147306ad0cbb47251cb65d4cab6195dc8d57c2844ae6dc0869c812823b4246e0f28fdd04f1bee8c8f4ae7af4aff7dd1d2761b4ef2e3557f19392170a506cccd3c64b1886c945da1f661d142bf8f457a3fd77ac5db0ec483f19e009a23921d54486c5a8f1b7f78c72c4c65280102bd8f5fa7b0acfa71719e7d66a058b9ad55524e1996c5c51776366053ee714c2a2e80d9bbd90d8961f94bb90daee1690b37a1764874f55d4440f8e2409dfa4c468d0787fa2aef25cdc2f60b5aee716b514c988cfbe328f329adc17a9ab15bdac7bab41ab5e1377e82c21a03d6e1bd7482cba70661c1a9b593cb8730f5c144e5f2d356b11ff756d62e94def3bcc357fe9dfe70c478431dcdc63add5b551c9112bee229f56deee64d38494be0e5ee06aba0997dad18c3db420126e419921989a242d5cf71019fcda335e81bf0cf085d03956aa5b216dda796b559dcd51a90b99891dbeee9acabbd61f3ec14c9aad849478f223f8ff46a1723bcb7f083bda93f78a0758c349f8d4c5b85d25dfc8b7028b4809aa887d2763999d5e974c8779ef321bc286074bc3c7b8deed803b43f600cce19e158cec5dbbabc7fcb885169585b199d8ed6ed813e7e11c82d7321de8a4545a93d72b3aff1af74ae4ee4bc646de2a84f12123a921cea1d3b6d56bee27c0d275c58d2f233c0610c0a995bcfee9e55fd65bc2c3eeda05b04aff8e6a32e395b01552232291b020f2f5b20c70d2c6e7fe2c306c1db859f94ecd09985f6179e358c41f0ca8c869e0ef09db1fbe67b26ffd28a919a74ba3e06be08a34e8834b3f696a20169702fe98c75292c6fa6e202af073cdaf8b7d3b3ff1b085b7f420ce4f87d71cc80308dc0ac593572569ff1e1daa6697a5d6959ca1d116a97666e6ce060e7730d8cdf98052c4c504ad2140c63024eb8c736d3d62c4ffb339392f6488a20730f2cabd15680d4cd9dde7cf2864d3526f1c5e0c8a1e11040ecb0e9909bc4559828a49930e62c9c0df4dd18696c38c6cc813bb8184ecb5f4b04f8acdc23889d97d1f9ab137d3709f78dec6ceb5534810e50341f7069ec76a0f1399da2836ae2fb8763c523b9ce0173db58e623c8243742503cdc1d337e3de03451eed30602c88670eadc6a9cf9f049880673bc6baf4b4fb917dee4cd1f259c5f7027af4ca0290a7238f224de55138ac5d2b0839355175e2bfada334abcc9b8b8041a4f8688d5ced5d2b865c06e72da687b019aceae31a3b3d6d88192caa144076fa446b38d33413f5602e38203671348ea6ce9bda0f1de466e524f1d786e40d3b8e04a765fe14c17b6494cdc4f90f2f7e91c28db5df9640c95cce2e6dee54990a18d4fd5335ae168f76ae7820d5374245c679643aa0f87a09970b098bb6ec6b8bc8c55c63cf574d2d4e9e9a8410a7a271f2438650cda69a4ffa2e8ab9492818f5acb8be4f7e5b7b0d2fd0111a550873d9ab50d3172195229f5e83b1a5fa0c9c0665f42ed18096a1f531d984b33791459e2f85000000",
  "txid": "0d4da8ee5c8f23fa8fce4c4d6d4d99e568e8352db021bd5d89cacedfac405a64",
  "hash": "dfe98b8f676985d4113327ddd5a58acb271e58611320787651e9cd6524d28c2e",
  "size": 5085,
  "vsize": 2278,
  "version": 1,
  "locktime": 133,
  "vin": [
    {
      "txid": "55361b6c80e199c44b5e510743807fa70163b9bd510cf176e1fe142e87fa907b",
      "vout": 1,
      "scriptSig": {
        "asm": "",
        "hex": ""
      },
      "txinwitness": [
        "da9bfea2be03d9112e9b38240f5b26f1ec50c3bb8753531891a81db5275987233b821f89127975c1ec112b379c9d300865f9db464696403e9707969620ce9e48fef5a496d098f973971d7ae4587e1b65fcaf4e40ba12f5d5a346636dc435c19436245357c3317563dbb45b401448de9062cd95b439194efca298132f83ecce20ca1e16da796ffd24566df3d3c7822f86b656c411e77d02878515f7da918f9a27b6fc8bb6b7dd450de12e5a6eded12df12d0b24594ab17fe6143549346ea4bb055bd210d646f4b16db8bfbfb1e30cbe2739a6197e0b475c7bc9c7ec9865472ae2ad7606ccdf2452b9542672dfeea52f9e310d8883bef5d5ad8799ad3f5164c82ef857e7e740e60c0a55719f957e0f146f9c8b92dcdee41876b1aba7b07636bf0828556e00367e8c095fd9b38e130fdda4138840d467996aead2b0dbb256721180682140cba19b96637035edc0e2b35401bb9fb16e7784d04569c9d3e60960c6bc2f0a906b9afd46de94285e31b18073dca5c15afc957a506930972b7a2d3080c240437632290796fb598b9d6477130eaa2f193ae3ef215e8c87ce6c8f5962438b6146a4bc840202af43179511ceb2a6dbc65f0dcd477e973a76f14ea53878be5421992bc1e957a959fadb00db1735f6684db67984e96aa0c0c909bbc3fbb3323a6fc477a483a4178b00caa74f646821c5b4f990c7ce2b58ba208f7836d3d101b37fd194857c8ad4d1078f783e74ae53f900d23407499ed326839a4e0428aaaf1230ee16dd08c7fbe050218a907e4e7983fdd2c90640f56a44a734ee95ae9ee7ee67c47795cf710bf341a574425a78423743bdc34cf661ee5cfe46579e74dbe153e6751a4a77d59050c0fe1a956fdba683525780d0d2909421b97ce7cdf6a15a046c050ceedab2d4213cb15df1bd501d9509b87e78e1f215e74c16cde4c4ee5c78d542c28b8dccf7fb88481c72be1f7251dd14c98499afcff28665258159fdc795c582827c0b34dcecf9e9c7bef72e495efb0a009eac1c474b693433ab6c233a6f7b9db7e8b88dc83ea4c42000175fee53c8ec92eb2c86a85935b9f1e05bab9404081cbaefc7bb22685173d42e72199ae64aea0c6946b538ebf98feb1b439631e2ed0a777d19e19eb73b53209f3a4c4a27d5d97ef3c2702ff9e9089d54ab417b9b11dbf0adab4f14866505e02e07a374814fbb1887fab6e2d77c05c0e852daaf269a18691128c797c2f1035d6f6fc9126b6a7c46422db3a479ecea61bd705c1aabcfb5db4c483fa2d2add5e6ba6aef5f9b1b73bb28d45d2560fddb63ce609c99c237530bba258d9e48eda0bd6b27aa77a46181c979e64b807e22dd2503678f59c606e55a7e8c823e612bb66a2a3fa5ef0992f5aea16b14d6a70a46e101f98e5a1da097bf31319015980ceec325d4d0180cb0f24b9244f13af9578ae04ad0a554e916b7833b7b2dfcfd98ab1d9f89eeca03659f819d0cd29496f5fe03c0ec11463efcfc84c6244f75a6cf5fae1301e19cad5365dab50b0e526c784560df84c5bc0cdc6306836a565e479160b7e9f0783b5dab15f5ecf501fb88441b4b656dc7704e0deee5eb18ed51b50eaaac59fb0b339cf4f5890fad0d2e6302fb962866907e8f1af66584b48a25a5851c6f75939cc25c8cebbd41ea909dd023a28cb3fb9597be531e850a8f4f512a5b99616d03362941ef32ff6044b549af9fe8c694a7c296718f777b669d847bf2cc4f5d9f19281619a3be6bd13c874258975f3015c35b9807ea3fb0471848c8a3ecc27c107654c80ee5656e93a572d1d245f9debf671fce7af7d52c6307aeb47fe027a11fab5313db4ab4b0c626527a81bb52265603c619e39cab1a3bf7cb39e5cec74143ddc9c130091c67e34ed5012ed613fff06067123c30592cae28d27598170e1e8d50ef395469a002c84683aad42559c928ba68fd9208628eef00c9bf599398525abbf349c742a1656414c1f7b879b838b3b4febabddab8e018298e117726cbf23ba17f5301d4491aed726c41329a9e41d499d0eccc5c729ad0a5f7c331b8814221d6cfcdea9cb7f1d0201266ec21ddeecc2115309e90aba496cf8a7f860f267c3b51e22e43e97229f35c05bd0a8b8ffb20a7973183e8deb3c1e2812a4b02d01c836608d6a6b6b043832748ea7ed2dde20ef373d81fdb9896d4626f30d1d1bf31e703ef268c2547e819033aa5fae2b64ac343a4666a2b1c7bacf7a1f9322c92b70067e060fbca8a77fb11df12340942c5b53b30cf0411418c16197c84572ac252ad9e44ab3dd55cd71e3d7111b092d1391b4d3174d8eaab42006904488052dc9ec23539f82f6d3b208f51cf673402c436ad8ff6e8f98473dc139c5652d815e81943bf3565a1e246df65e41d543db7062da9326f80dfc32e206f642be6f3bddcc8b0441313a0d3e83a341dd18b7510b8f867cc0b00ada8caa83bba1f9f5ea6967b65b3e42b1c1fe6f0cc7595f9d4f20c2e038d3eafc8da70512cd144fe452250a607de83826edbfb6262522ba69bf0f9c68460a5ae245a74dfc1370393452870c5991159c7d8f993748058f34a05d204fafcb2c07d5a77bc4a251b02457757224bd7aa7b84b49e81ce027a5d27ba5cced5b0165363d8d0ac94743a213e06de041ced6aa933e181a0ae644916fd18e4cfde04a62fa7e29e99c7d60aedd2a977cf68cff487184853375cbaf4ad679a81b6ccbd77cd239d5794cda59ef39903c8463c07a006c2ed9181051a6afe8d1e8a42087d723a7d73007e1b29d70201d1e4584262f0058203034f2694bb3743b276b0d0436bbb709185d4dcc5e75c3e362496e1463d13eddcd13be581b11a8f9a6d1316159b64d2f50db7e9fc4e8c9fe54bd0dc7969753d519a3b982ea278439df269be012941b9a852b45bdc3b61790f96709f1e386bfe48708ba6ff74541b7b933687e425219920052a29debc285535b681ade33b8a0ccafb176c09abb699186f7609aa143924b9fcc29e003f1fc675b2fc9cc48f7d95c9cbfb34359af7e9cc9eedca0744686e22dd3a6eb355ecc9461275e1e87b2bff47ad2be112e849e1e6223c7774d1aa49c68c720643cad5f84e388eedc02ed7582aa29d46e35d5d7fa20a56bb9544b6f8e8f4748fcf9361963302bece264a98de916e154a0c37e233b0abdcd51a3f4e9895ab5c8d7d6121583b72a678e90f4e6d568a18551407339acf432918841f9d5af64a2aa0b898e79adc0eda62d2e5f034bc552c28d4a9b1ac7f9b2bbccf7f3f7b84660b322e45884799887d3e808ef320b76317ce6443aede9a5a224c6e8633b30315163536393d3f4e60868aa8aed1e5eff80f181b1f252f3c5968727895a9b0b1f90b1d2938515b627782a5c5d3d6dadcf40310172d4245555e879ea2afe60000000000000000000000000000000000001121313e01",
        "000e179663962ac43b6013445510c2cf85a46740f8e55cdc0eef92ae2d94742cdadf8b61d08ae3beadc19e13759c24e6f213c7cb482c9202813716a6ce44c7833a3b331e2ec19dad326273204edaa25dbccb2e9fa2b00ae1e84a85f7dbd1a3d4904d4199867ec8f05d1a6b841dc4b1655011cfcd2db91f59ae7864a2227abf9427fcdfd33712c6148e7377460f9bcc1185ba84567edace20f357395809c6e81d44cf8942c41efde8f7769fe126eb6a04eb013a72a9f25dc53c177ea753a1da82ca5f4cca5ea7a535d4ddbfa67b5490206597fb327ce8bf347eeedb8019395fdbae05501bd1cbc2601fe2e87fb8ac36b275d56aeb88eb3ec823ba147306ad0cbb47251cb65d4cab6195dc8d57c2844ae6dc0869c812823b4246e0f28fdd04f1bee8c8f4ae7af4aff7dd1d2761b4ef2e3557f19392170a506cccd3c64b1886c945da1f661d142bf8f457a3fd77ac5db0ec483f19e009a23921d54486c5a8f1b7f78c72c4c65280102bd8f5fa7b0acfa71719e7d66a058b9ad55524e1996c5c51776366053ee714c2a2e80d9bbd90d8961f94bb90daee1690b37a1764874f55d4440f8e2409dfa4c468d0787fa2aef25cdc2f60b5aee716b514c988cfbe328f329adc17a9ab15bdac7bab41ab5e1377e82c21a03d6e1bd7482cba70661c1a9b593cb8730f5c144e5f2d356b11ff756d62e94def3bcc357fe9dfe70c478431dcdc63add5b551c9112bee229f56deee64d38494be0e5ee06aba0997dad18c3db420126e419921989a242d5cf71019fcda335e81bf0cf085d03956aa5b216dda796b559dcd51a90b99891dbeee9acabbd61f3ec14c9aad849478f223f8ff46a1723bcb7f083bda93f78a0758c349f8d4c5b85d25dfc8b7028b4809aa887d2763999d5e974c8779ef321bc286074bc3c7b8deed803b43f600cce19e158cec5dbbabc7fcb885169585b199d8ed6ed813e7e11c82d7321de8a4545a93d72b3aff1af74ae4ee4bc646de2a84f12123a921cea1d3b6d56bee27c0d275c58d2f233c0610c0a995bcfee9e55fd65bc2c3eeda05b04aff8e6a32e395b01552232291b020f2f5b20c70d2c6e7fe2c306c1db859f94ecd09985f6179e358c41f0ca8c869e0ef09db1fbe67b26ffd28a919a74ba3e06be08a34e8834b3f696a20169702fe98c75292c6fa6e202af073cdaf8b7d3b3ff1b085b7f420ce4f87d71cc80308dc0ac593572569ff1e1daa6697a5d6959ca1d116a97666e6ce060e7730d8cdf98052c4c504ad2140c63024eb8c736d3d62c4ffb339392f6488a20730f2cabd15680d4cd9dde7cf2864d3526f1c5e0c8a1e11040ecb0e9909bc4559828a49930e62c9c0df4dd18696c38c6cc813bb8184ecb5f4b04f8acdc23889d97d1f9ab137d3709f78dec6ceb5534810e50341f7069ec76a0f1399da2836ae2fb8763c523b9ce0173db58e623c8243742503cdc1d337e3de03451eed30602c88670eadc6a9cf9f049880673bc6baf4b4fb917dee4cd1f259c5f7027af4ca0290a7238f224de55138ac5d2b0839355175e2bfada334abcc9b8b8041a4f8688d5ced5d2b865c06e72da687b019aceae31a3b3d6d88192caa144076fa446b38d33413f5602e38203671348ea6ce9bda0f1de466e524f1d786e40d3b8e04a765fe14c17b6494cdc4f90f2f7e91c28db5df9640c95cce2e6dee54990a18d4fd5335ae168f76ae7820d5374245c679643aa0f87a09970b098bb6ec6b8bc8c55c63cf574d2d4e9e9a8410a7a271f2438650cda69a4ffa2e8ab9492818f5acb8be4f7e5b7b0d2fd0111a550873d9ab50d3172195229f5e83b1a5fa0c9c0665f42ed18096a1f531d984b33791459e2f"
      ],
      "sequence": 4294967294
    }
  ],
  "vout": [
    {
      "value": 499964.4085,
      "n": 0,
      "scriptPubKey": {
        "asm": "1 0c4c006e5138da8a75ab5f97a2b2d1ab2bc4402fbd9eaf2805970c290253e203",
        "hex": "51200c4c006e5138da8a75ab5f97a2b2d1ab2bc4402fbd9eaf2805970c290253e203",
        "reqSigs": 1,
        "type": "witness_v1_scripthash",
        "addresses": [
          "3QJmnh"
        ]
      }
    },
    {
      "value": 1.0,
      "n": 1,
      "scriptPubKey": {
        "asm": "OP_RETURN aebb5551e5e55f7a90da39079362210ed0a25c5e7658c33cd5d634f30a74b0db db08f3d2cca1f50256561890e63e4c6d45d0497066ca0b478fd881fcd3671792fb28d3f2ec81d522767638b0c61e6c4d65f0695046ea2b67aff8a1dcf34737b29b48b3928ce1b542161658d0a67e0c2d05900930268a4b07cf98c1bc932757d2bb6893b2acc19562363678f0865e2c0d25b0291006aa6b27efb8e19cb30777f25b8873524c217582d6d6981066beccedc550c9f0e64a8bc70f58017c53e797127ba853726c0155a2f6f6b830469eeccde570e9d0c66aabe72f78215c73c7b7321bc833120c6135c29696d85026fe8cad851089b0a60acb874f18413c13a7d7523be813322c4115e2b6b6f87006deac8da530a990862aeba76f38611c3387f772db08f3d2cca1f50256561890e63e4c6d45d0497066ca0b478fd881fcd3671792fb28d3f2ec81d522767638b0c61e6c4d65f0695046ea2b67aff8a1dcf34737b29b48b3928ce1b542161658d0a67e0c2d05900930268a4b07cf98c1bc932757d2bb6893b2acc19562363678f0865e2c0d25b0291006aa6b27efb8e19cb30777f25b8873524c217582d6d6981066beccedc550c9f0e64a8bc70f58017c53e797127ba853726c0155a2f6f6b830469eeccde570e9d0c66aabe72f78215c73c7b7321bc833120c6135c29696d85026fe8cad851089b0a60acb874f18413c13a7d7523be813322c4115e2b6b6f87006deac8da530a990862aeba76f38611c3387f772db08f3d2cca1f50256561890e63e4c6d45d0497066ca0b478fd881fcd3671792fb28d3f2ec81d522767638b0c61e6c4d65f0695046ea2b67aff8a1dcf34737b29b48b3928ce1b542161658d0a67e0c2d05900930268a4b07cf98c1bc932757d2bb6893b2acc19562363678f0865e2c0d25b0291006aa6b27efb8e19cb30777f25b8873524c217582d6d6981066beccedc550c9f0e64a8bc70f58017c53e797127ba853726c0155a2f6f6b830469eeccde570e9d0c66aabe72f78215c73c7b7321bc833120c6135c29696d85026fe8cad851089b0a60acb874f18413c13a7d7523be813322c4115e2b6b6f87006deac8da530a990862aeba76f38611c3387f772db08f3d2cca1f50256561890e63e4c6d45d0497066ca0b478fd881fcd3671792fb28d3f2ec81d522767638b0c61e6c4d65f0695046ea2b67aff8a1dcf34737b29b48b3928ce1b542161658d0a67e0c2d05900930268a4b07cf98c1bc932757d2bb6893b2acc19562363678f0865e2c0d25b0291006aa6b27efb8e19cb30777f25b8873524c217582d6d6981066beccedc550c9f0e64a8bc70f58017c53e797127ba853726c0155a2f6f6b830469eeccde570e9d0c66aabe72f78215c73c7b7321bc833120c6135c29696d85026fe8cad851089b0a60acb874f18413c13a7d7523be813322c4115e2b6b6f87006deac8da530a990862aeba76f38611c3387f772db08f3d2cca1f50256561890e63e4c6d45d0497066ca0b478fd881fcd3671792fb28d3f2ec81d522767638b0c61e6c4d65f0695046ea2b67aff8a1dcf34737b29b48b3928ce1b542161658d0a67e0c2d05900930268a4b07cf98c1bc932757d2bb6893b2acc19562363678f0865e2c0d25b0291006aa6b27efb8e19cb30777f25b8873524c217582d6d6981066becced350f8fbdb8909b2d8b9beb30bd3584916baaf7b09036fd7ab962ebe6c7e20970",
        "hex": "6a20aebb5551e5e55f7a90da39079362210ed0a25c5e7658c33cd5d634f30a74b0db4db004db08f3d2cca1f50256561890e63e4c6d45d0497066ca0b478fd881fcd3671792fb28d3f2ec81d522767638b0c61e6c4d65f0695046ea2b67aff8a1dcf34737b29b48b3928ce1b542161658d0a67e0c2d05900930268a4b07cf98c1bc932757d2bb6893b2acc19562363678f0865e2c0d25b0291006aa6b27efb8e19cb30777f25b8873524c217582d6d6981066beccedc550c9f0e64a8bc70f58017c53e797127ba853726c0155a2f6f6b830469eeccde570e9d0c66aabe72f78215c73c7b7321bc833120c6135c29696d85026fe8cad851089b0a60acb874f18413c13a7d7523be813322c4115e2b6b6f87006deac8da530a990862aeba76f38611c3387f772db08f3d2cca1f50256561890e63e4c6d45d0497066ca0b478fd881fcd3671792fb28d3f2ec81d522767638b0c61e6c4d65f0695046ea2b67aff8a1dcf34737b29b48b3928ce1b542161658d0a67e0c2d05900930268a4b07cf98c1bc932757d2bb6893b2acc19562363678f0865e2c0d25b0291006aa6b27efb8e19cb30777f25b8873524c217582d6d6981066beccedc550c9f0e64a8bc70f58017c53e797127ba853726c0155a2f6f6b830469eeccde570e9d0c66aabe72f78215c73c7b7321bc833120c6135c29696d85026fe8cad851089b0a60acb874f18413c13a7d7523be813322c4115e2b6b6f87006deac8da530a990862aeba76f38611c3387f772db08f3d2cca1f50256561890e63e4c6d45d0497066ca0b478fd881fcd3671792fb28d3f2ec81d522767638b0c61e6c4d65f0695046ea2b67aff8a1dcf34737b29b48b3928ce1b542161658d0a67e0c2d05900930268a4b07cf98c1bc932757d2bb6893b2acc19562363678f0865e2c0d25b0291006aa6b27efb8e19cb30777f25b8873524c217582d6d6981066beccedc550c9f0e64a8bc70f58017c53e797127ba853726c0155a2f6f6b830469eeccde570e9d0c66aabe72f78215c73c7b7321bc833120c6135c29696d85026fe8cad851089b0a60acb874f18413c13a7d7523be813322c4115e2b6b6f87006deac8da530a990862aeba76f38611c3387f772db08f3d2cca1f50256561890e63e4c6d45d0497066ca0b478fd881fcd3671792fb28d3f2ec81d522767638b0c61e6c4d65f0695046ea2b67aff8a1dcf34737b29b48b3928ce1b542161658d0a67e0c2d05900930268a4b07cf98c1bc932757d2bb6893b2acc19562363678f0865e2c0d25b0291006aa6b27efb8e19cb30777f25b8873524c217582d6d6981066beccedc550c9f0e64a8bc70f58017c53e797127ba853726c0155a2f6f6b830469eeccde570e9d0c66aabe72f78215c73c7b7321bc833120c6135c29696d85026fe8cad851089b0a60acb874f18413c13a7d7523be813322c4115e2b6b6f87006deac8da530a990862aeba76f38611c3387f772db08f3d2cca1f50256561890e63e4c6d45d0497066ca0b478fd881fcd3671792fb28d3f2ec81d522767638b0c61e6c4d65f0695046ea2b67aff8a1dcf34737b29b48b3928ce1b542161658d0a67e0c2d05900930268a4b07cf98c1bc932757d2bb6893b2acc19562363678f0865e2c0d25b0291006aa6b27efb8e19cb30777f25b8873524c217582d6d6981066becced350f8fbdb8909b2d8b9beb30bd3584916baaf7b09036fd7ab962ebe6c7e20970",
        "type": "nulldata"
      }
    }
  ],
  "blockhash": "e83fb8d8eae63b54f6b1b3d1fbcbee555d4e910f42cfd1b5d97cc48d92172bc4",
  "confirmations": 1,
  "time": 1764182633,
  "blocktime": 1764182633
}