{
  "hex": "01000000000101ca0a7e30d1ae31ca628426523696b92debcf5214fe81d46b8fd9f8e670ebd82b0100000000feffffff026024ab89782d000022512024f2bf87d7cd13de8102dfca29e2217f15f8fb54c4954abe0c07ff7f324c176d00e1f50500000000fdd5046a2073ba9e76bde7cc01a3e03abb2d26f78668515e5fbdbf296338b7a5f7f9b95fda4db00430d346bc876c77ec79326b5729a6dae96430636602eea2f55a7cdaca4712f47510f3669ca74c57cc59124b770986fac94410434622ce82d57a5cfaea6732d455709306fcc72c37ac39722b1769e69aa92470232642aee2b51a3c9a8a0752b43550b326dce70c178c19520b3749c6ba8904500306628ec2953a1cbaaa27729415b053c63c07ecf76cf9b2ebd7a9265a69e4b0e3e6826e2275dafc5a4ac79274f59073e61c27ccd74cd992cbf789067a49c490c3c6a24e0255fadc7a6ae7b254d5f013867c47acb72cb9f2ab97e9661a29a4f0a3a6c22e62359abc1a0a87d234b5d033a65c678c970c99d28bb7c9463a0984d08386e20e4215ba9c3a2aa7f2149530d346bc876c77ec79326b5729a6dae96430636602eea2f55a7cdaca4712f47510f3669ca74c57cc59124b770986fac94410434622ce82d57a5cfaea6732d455709306fcc72c37ac39722b1769e69aa92470232642aee2b51a3c9a8a0752b43550b326dce70c178c19520b3749c6ba8904500306628ec2953a1cbaaa27729415b053c63c07ecf76cf9b2ebd7a9265a69e4b0e3e6826e2275dafc5a4ac79274f59073e61c27ccd74cd992cbf789067a49c490c3c6a24e0255fadc7a6ae7b254d5f013867c47acb72cb9f2ab97e9661a29a4f0a3a6c22e62359abc1a0a87d234b5d033a65c678c970c99d28bb7c9463a0984d08386e20e4215ba9c3a2aa7f2149530d346bc876c77ec79326b5729a6dae96430636602eea2f55a7cdaca4712f47510f3669ca74c57cc59124b770986fac94410434622ce82d57a5cfaea6732d455709306fcc72c37ac39722b1769e69aa92470232642aee2b51a3c9a8a0752b43550b326dce70c178c19520b3749c6ba8904500306628ec2953a1cbaaa27729415b053c63c07ecf76cf9b2ebd7a9265a69e4b0e3e6826e2275dafc5a4ac79274f59073e61c27ccd74cd992cbf789067a49c490c3c6a24e0255fadc7a6ae7b254d5f013867c47acb72cb9f2ab97e9661a29a4f0a3a6c22e62359abc1a0a87d234b5d033a65c678c970c99d28bb7c9463a0984d08386e20e4215ba9c3a2aa7f2149530d346bc876c77ec79326b5729a6dae96430636602eea2f55a7cdaca4712f47510f3669ca74c57cc59124b770986fac94410434622ce82d57a5cfaea6732d455709306fcc72c37ac39722b1769e69aa92470232642aee2b51a3c9a8a0752b43550b326dce70c178c19520b3749c6ba8904500306628ec2953a1cbaaa27729415b053c63c07ecf76cf9b2ebd7a9265a69e4b0e3e6826e2275dafc5a4ac79274f59073e61c27ccd74cd992cbf789067a49c490c3c6a24e0255fadc7a6ae7b254d5f013867c47acb72cb9f2ab97e9661a29a4f0a3a6c22e62359abc1a0a87d234b5d033a65c678c970c99d28bb7c9463a0984d08386e20e4215ba9c3a2aa7f2149530d346bc876c77ec79326b5729a6dae96430636602eea2f55a7cdaca4712f47510f3669ca74c57cc59124b770986fac94410434622ce82d57a5cfaea6732d455709306fcc72c37ac39722b1769e69aa92470232642aee2b51a3c9a8a0752b43550b326dce70c178c19520b3749c6ba8904500306628ec2953a1cbaaa27729415b053c63c07ecf76cf9b2ebd7a9265a690da5cae6f568f625f0f1b7bdaabb27eab86156d3c42c4cf51141d278b409579102fd75095aab91283c98a52a1038f952d620b1061f860fc691de053dc57fac0ad5929e95f007b90c36735604c5e578dd3839d85b2c9c471181619d5aaaeb99794d841a1c43b74960d94774abe76e1cfdf7e3dbb2dc5a9327213901512025891aa2922e7cafcc2c88d49a6aad3e877fc1e2c785ed1b538df837a9a6dcad6d3644e7f9b0b2af0d7c146036366d52490e5ca3e9b3b783ccbb022b4a97cdf5ac513bd7172e6ccda53bd89d6fae417977cf6b4950086d8abdcb8b1f110a90306ab2706f8922ad77d4e275d375a997e99318633433322febad5027efeb60dc9639a7184f02e838f4bff7b0f486d1b8f2b7a3adcb0e52bda80704127a57947bfe49dc1a1a225dbf486e590e6b54bbc38b437a9fa3b72ff7c567ad19f83cadf908fac0142f41ca6753b837332e114056878c44d2f8d1ddda0dc052c37c152f38214cc8b35e65f7b1bb8da0a62f21561540bd745c722ebb0e93f3c548af697f8b70eadd3dbd6d97f169ccbb879f8a43ce060e98ee590e2b072da3d0c8afdbad4b8c4ae7d298b79a9fdc1da7b4eebc8d4d8d9f5b0be546313e6c29e84f7b5eec7b5857d1d1f1c6baabfddcb45ece30fe3f0ff7844e2094690f1d01cb3f6436e326b69aa4c8be4a8bbaf3e52b90166baac6e43c68aaddaae299a82d632f4cb21aeaafe89ef47626c60f698a2062d317ed39b9c820196cfe5662c2cc0f9c1074001b1364ab50de44de8cfb870c2891d86cb2e81c9d1b9e1a35e6e5721a12ee1d3c4fe0ae16130a0bbd0ade53526556306d89120beca1ccd1b242faa06a30ea5eb7427779ad7344f5c2fb8cfa5be3057d8c9a6263a670e5a92e56cac0926a3a4de2da0a36b63b9299fa1175bcc6827111743ef86e9cb7614f5cfca1390d2f29a2b2a4014507d175827620a1f2e8931ad4680e3ba4f1acd4906ef72038542ca34f00ebd7292737c5f0497fe25e5c7a338e59543a017b9dd1cf2e8d9a28fe7e51b79f56261ea30a5ea07095bda779850b3972144661f34dfea54328aa20a305f36aba730b14c6482a7cec70bab3b23896912ed3d87ae6ed7cb4cb6de96fa7f2fb8753d0ab9a935abb5d76ebc1a5a6f36dba8ed90af3161d87c66aa6d5a2099c13be4d4177bd10b8e368a9d674c68a78d762acf6b9f6b74a57bb23ffc73c023c214ab629d326125041695e0b387081e20cc9ae78a6eb5e078d9418db000701debd9a860fc337d79aba2398d77cd51b21608d896673708d3dd55ffd163fb8a12b36d32d266dbd8efba8bc634c7da8001b20d12e3104d49b059dc6c82f75dfa8bc5c7bb75f73ff3e08dc23a2b634b7d1bfc49aef939a8766d3086a0be0aaaf7dafd9c6448063c9bfbaf621eee699cc544ae1eb4e739b3df5d7b54604880a4f59be1dfa0889ba35d6f30ef1d26fd121c11ddf06fbd1f2ee67b4afd547420fbfead6bba346adba0dcdea532056d4c1141493291c4eacc77390b390e42c4f46a5b8d970beba93617e3476cb53f372e07d89bcad3d30186bf23c42b0ec84be69b6f35df1575a16e530fa0e46ba13936ae66d84e64c3c00e58df47dee9b448e8519783998f48c8b15594cfd5434a3ee240da2a588e7d7f09ea702cfeb0197d260d8a3f7a0d0ca2920f28c94d350ec517773c8fc41bdec314e9e7dd1aa2f3dba725f42c7c50cef9911443d0c4c6bf6217be445a7809688b7f41a6a676ea45bbb5e542a942f3e073cb4553caae06d55f25b79bc4bc858d2eb23e1bd5e18395da0af2bbb2b58e7c0bb0f40f32bc28beade7520a71ea7809a7d30f48d232c9a64449c3eb6ff9417ade59f5d1a0d234fa988257d2eddf9edf0597231094f7d66941141d519317c73ca861a57aefbe851163c581010e06f492f1abed9399b4b8e1b2da1bea7910f1c524b6658bf6b3ceec407feb9b54fcb620e6d0633c3a5da5081bbe48ec1f0a101f4acf759b216be860da5236394edff6cc98eb420102bf8979708a1c4e00caee07a9f525856459853a2efd37daa5dc57ffc1a88a4affeb7f657a922438fe8803ad83c4f602f40d14ee4b203703e0533d403feb45207df7d791541290afd043ae10d2e37c285e593b4c2cbdcfe4f36e7be165919fc7f2a4f8af973949adde68d3f849e65d687d04e517cc233afe5e3301d9c7411105a188cef66b22539024891b86f60d067817342c2c722af0ac6930f514fce2e3f848d049bfaecf6da9acd2e374762ae49b5950428a2d2edbb445678816425e44640efdf927791b6d1f8403e63d60b331918a43a532ef2b75cc2fc03a3e217788d2695f413c4472a6ff76bf5c6419d1d982e5bfac4192ed7b03b5be9dfd18012984d0729de76bb86325c104715e42c7ba09645268a7f79c64100deeb42bf46a777554e1502916097789f2b7ececdefd22e297784be4389707d341f84f45b711e88d22ed7864972dbc6e78e8fbd9124700bef402961a215e07af3b949335759fd136da53c315b0fbbe0363137faa1950b1b8321f92f624fe20e8876775d871f63d8780b1fb377b8c41d156d86d6016cae656ee6a1835bff8fd32d39592a835ff91f50a8a1b3f6b2f34586b72407c1f6be87130c2aacd073b9dd48fde6a93780b385e63bef2d07ace41a7cc989eee21807e467d6685dfea5b2f134040d5c7090ebdabef81ad22074f0792ce495048fd62ad4ca215a87e93da7bd61364232f6eddf1f02443fbff9dc8ee4d898f8a59764ac39d6c66d16a9e8a400450d938606030233760e5be7e098313956daa9984c1f4c4d7828b1a3952de529dcf8087d59282a44f65700863344a3c9f5f802561e736e7231555e1feab8543fb1287506157fc00fe8954589cf3bb7f2a6e1ce5c1a296eb10c96b252d80ba044254e20d742248b7d3417e8fafd9b7f9a605f518b9eb4559fbdbd0154767ad0e2860fba8ec5ab31f72c398a0f83a11c4786940e4223b56764580ce7367491b7324c71e23562cea8ad3b7cd87fb19678b24f7cb317df9b38cdaf95df46d7155612266818db62bbadbf46c49e34bd8e13452db17d61e5b201010d8d908943f1434af8a9c6ee4c5958e46f175ff2fb64c93ba009e3a2cf16326bcc1eb822b11e36c78e083bf5880d6ba9ed50c8cdaa68e3f503d3429e2ff4232e1cbbbd5e6b37ad4f8b282be884437eefb5e9089f11d2d4c6f391b9ef1d3336085a03ce2b5454eec9ae957808e34e0299ddeaf51fad3ea89f2fc0838cd10a41f6a22389a7bdc74c9a2709f02f9b336d2d3e3dd5b5d853876522abb303476451eee0e1d67093c041d4c49f8c80bb4c438b88a466697bdb5f445de44a83b0c8aa6ccb9269fb148201161b2d2e343e8197999aa7b3b7c0c8cbd8e702060933494d5e6e83898eb4ddeaf92f3b476472767f84878e919ba4aaadafecfe0d10242d4e4f5d6695a7b1d8dfe5fd000000000000000000000000001322344301fd210500f8a0407c2cd36a4619fbefa949a9a62d1746a0093badf6ac44cf9bfcf34ff75b2a7f45372ce3e3368983fb5e5920508b70d9bfcc9e399c9a37201909c4b8441d44efedf7a4e25ce9645ec0f0c379cb8284323fcbca83ee4211595047be051134c475249bcc30ae5671b990141d3379798ab45ace4afb532b449b64233bb59ac87fc78b3dc70f2c31bda0c10c206b6ebbcad1851489223014401e4f7e466d644f220f1d5a8108b058504e2081e2b0052899742489817f23a3d1687018a1a4cead7028a818defc7259c4fadb9a808dbcdd7be98e703c957e8428480739c3446bbf5e54ee1c25d42f9ff836c0b9399308bd420b1e1e6e39949e99645830f3c9a5cdd0b14b43a916f7c3619ba8ecb86057ce011ebfaa4ea2220d64384a82a618173b6ebf1db0fc1302ac4ef8db0d500701ba8cb229c241dd81a6e345149fc6249ef45282adadb523ebc285366e2acdcadf6b108c34d5feefe92b5840f360cfdbde96853833103c4d8959295faececee32fac0524a404d1962fae39c4793d48b620d92a0fdc7ad23cad397f71210bdb032cb4bd6d6998c22e6596aed0cc3c3d1c96d3996492b7d846ca7766e14cffa868f2acd23ca33e4049a74a5c82955731bd0796dfa5334c2593882dc8675dec21695356d777590e3dc09ad0428dc9c22702765d1cb42850eca556f1d7c73a7f5f048bcb2b620e3e96d354dd5a8ee335ca846ca207ec5704ecff448ae5478344ec88c4c186e9da35b5817033e44f2b238ce2f580a41987fa4e9cd11f91501ae34d1088c6a5facf5b4238aa4c7b907777ee4a2f8b40999457f8790331bc8e50d94acf24408c2b850c7d782a8eeef7c8dc12fa8bc51ef331b558c9c263c4c89fba5aea389936135a5e7cc091661af49f0c029e43d3e326fa33fef0ce763722944f4483e63f33171245919d76759735f2e38f309cea20b0154547bcfc7d95ba72e97a248e79784a3a59344ce5e27b7dc0492eb86bc56e689dd1a1eb73dfd61f39f2d962b6a00410d282f7acb93b89adbe0224afbf9f6ac268f69ddee20aa4f639e310e961599025b7a1144947cb631599699bb5b33ff478a9de70a8604b43e921aa243e408e1254d8616010132279052c43d0a344a5c86f06160539983795cbaabbe38f117930c9be368fb27af76b22ac60f421010cb01918c0d3e3912df6caa0dac0fafdc621f4d9646bd64c4f92a9442d82be2f427a489ffb05fa86be2fdc28cfb5e496337038fd5dac351741904eb792c22640db59a3fa6bdd0440d7b65ed8d8b52ac9a621acd6cabcf61e119732d2a70f7c327716b9bfaec40d788cb61b69f024ae2ced340ea13867b324dba4ec4c91435d5230bfeefdb646c4ccf5bd7a9318f0e2f8fb4e1fb6454a0ba1994369359f5f0c71b15a0a449f0eb31983743b6f8166418d8810df89d3af0c318c1251cc0c9b17a062a3bbc876d86a02abf0ce0f08d5c8c5d40a6f0929b58a447817c33ddd969614ad4f90c9d506b36d58834ecb3d9f8e618a917300ac83f4ec2da97d6d9c7a92374eeb5f3233d905bb67a822960023c59c14681933d50d88c23439e8012ceff63bac948f6ba210fd12578d7284e61f8a18bb731c2ab85f1c6469485c5f1c8b7d436a22caa2065b32af9b0fff1dc53a0ce59f5646fb1e37a4afd88cc2549906f549e68c8371328cfc3ae2bedc7b671a15bccddb02d58580c894fd37c2d012ed3f9d90a0d367e170fae750d5ae12e630c72fe0cbdb5f016642254f67e292d559872859983be020a4ed2ba20dc33ee1601153189a2366d7bff01d1e5c79e8c033d7fcca0a5cd86f57f46f41070e1bb32c66a29d13ff12ed1c3d8e6efe4826606f0c658e89000000",
  "txid": "0504348a08674e33cf5af80122d4ab7fa9fe3d5559d1f952b80f6ffe3dda112e",
  "hash": "e90ef1ea91724a0b9c883ab17affb2ae40c74e6ff84f5039488b9b868e7e9d6a",
  "size": 5085,
  "vsize": 2278,
  "version": 1,
  "locktime": 137,
  "vin": [
    {
      "txid": "2bd8eb70e6f8d98f6bd481fe1452cfeb2db9963652268462ca31aed1307e0aca",
      "vout": 1,
      "scriptSig": {
        "asm": "",
        "hex": ""
      },
      "txinwitness": [
        "5aab91283c98a52a1038f952d620b1061f860fc691de053dc57fac0ad5929e95f007b90c36735604c5e578dd3839d85b2c9c471181619d5aaaeb99794d841a1c43b74960d94774abe76e1cfdf7e3dbb2dc5a9327213901512025891aa2922e7cafcc2c88d49a6aad3e877fc1e2c785ed1b538df837a9a6dcad6d3644e7f9b0b2af0d7c146036366d52490e5ca3e9b3b783ccbb022b4a97cdf5ac513bd7172e6ccda53bd89d6fae417977cf6b4950086d8abdcb8b1f110a90306ab2706f8922ad77d4e275d375a997e99318633433322febad5027efeb60dc9639a7184f02e838f4bff7b0f486d1b8f2b7a3adcb0e52bda80704127a57947bfe49dc1a1a225dbf486e590e6b54bbc38b437a9fa3b72ff7c567ad19f83cadf908fac0142f41ca6753b837332e114056878c44d2f8d1ddda0dc052c37c152f38214cc8b35e65f7b1bb8da0a62f21561540bd745c722ebb0e93f3c548af697f8b70eadd3dbd6d97f169ccbb879f8a43ce060e98ee590e2b072da3d0c8afdbad4b8c4ae7d298b79a9fdc1da7b4eebc8d4d8d9f5b0be546313e6c29e84f7b5eec7b5857d1d1f1c6baabfddcb45ece30fe3f0ff7844e2094690f1d01cb3f6436e326b69aa4c8be4a8bbaf3e52b90166baac6e43c68aaddaae299a82d632f4cb21aeaafe89ef47626c60f698a2062d317ed39b9c820196cfe5662c2cc0f9c1074001b1364ab50de44de8cfb870c2891d86cb2e81c9d1b9e1a35e6e5721a12ee1d3c4fe0ae16130a0bbd0ade53526556306d89120beca1ccd1b242faa06a30ea5eb7427779ad7344f5c2fb8cfa5be3057d8c9a6263a670e5a92e56cac0926a3a4de2da0a36b63b9299fa1175bcc6827111743ef86e9cb7614f5cfca1390d2f29a2b2a4014507d175827620a1f2e8931ad4680e3ba4f1acd4906ef72038542ca34f00ebd7292737c5f0497fe25e5c7a338e59543a017b9dd1cf2e8d9a28fe7e51b79f56261ea30a5ea07095bda779850b3972144661f34dfea54328aa20a305f36aba730b14c6482a7cec70bab3b23896912ed3d87ae6ed7cb4cb6de96fa7f2fb8753d0ab9a935abb5d76ebc1a5a6f36dba8ed90af3161d87c66aa6d5a2099c13be4d4177bd10b8e368a9d674c68a78d762acf6b9f6b74a57bb23ffc73c023c214ab629d326125041695e0b387081e20cc9ae78a6eb5e078d9418db000701debd9a860fc337d79aba2398d77cd51b21608d896673708d3dd55ffd163fb8a12b36d32d266dbd8efba8bc634c7da8001b20d12e3104d49b059dc6c82f75dfa8bc5c7bb75f73ff3e08dc23a2b634b7d1bfc49aef939a8766d3086a0be0aaaf7dafd9c6448063c9bfbaf621eee699cc544ae1eb4e739b3df5d7b54604880a4f59be1dfa0889ba35d6f30ef1d26fd121c11ddf06fbd1f2ee67b4afd547420fbfead6bba346adba0dcdea532056d4c1141493291c4eacc77390b390e42c4f46a5b8d970beba93617e3476cb53f372e07d89bcad3d30186bf23c42b0ec84be69b6f35df1575a16e530fa0e46ba13936ae66d84e64c3c00e58df47dee9b448e8519783998f48c8b15594cfd5434a3ee240da2a588e7d7f09ea702cfeb0197d260d8a3f7a0d0ca2920f28c94d350ec517773c8fc41bdec314e9e7dd1aa2f3dba725f42c7c50cef9911443d0c4c6bf6217be445a7809688b7f41a6a676ea45bbb5e542a942f3e073cb4553caae06d55f25b79bc4bc858d2eb23e1bd5e18395da0af2bbb2b58e7c0bb0f40f32bc28beade7520a71ea7809a7d30f48d232c9a64449c3eb6ff9417ade59f5d1a0d234fa988257d2eddf9edf0597231094f7d66941141d519317c73ca861a57aefbe851163c581010e06f492f1abed9399b4b8e1b2da1bea7910f1c524b6658bf6b3ceec407feb9b54fcb620e6d0633c3a5da5081bbe48ec1f0a101f4acf759b216be860da5236394edff6cc98eb420102bf8979708a1c4e00caee07a9f525856459853a2efd37daa5dc57ffc1a88a4affeb7f657a922438fe8803ad83c4f602f40d14ee4b203703e0533d403feb45207df7d791541290afd043ae10d2e37c285e593b4c2cbdcfe4f36e7be165919fc7f2a4f8af973949adde68d3f849e65d687d04e517cc233afe5e3301d9c7411105a188cef66b22539024891b86f60d067817342c2c722af0ac6930f514fce2e3f848d049bfaecf6da9acd2e374762ae49b5950428a2d2edbb445678816425e44640efdf927791b6d1f8403e63d60b331918a43a532ef2b75cc2fc03a3e217788d2695f413c4472a6ff76bf5c6419d1d982e5bfac4192ed7b03b5be9dfd18012984d0729de76bb86325c104715e42c7ba09645268a7f79c64100deeb42bf46a777554e1502916097789f2b7ececdefd22e297784be4389707d341f84f45b711e88d22ed7864972dbc6e78e8fbd9124700bef402961a215e07af3b949335759fd136da53c315b0fbbe0363137faa1950b1b8321f92f624fe20e8876775d871f63d8780b1fb377b8c41d156d86d6016cae656ee6a1835bff8fd32d39592a835ff91f50a8a1b3f6b2f34586b72407c1f6be87130c2aacd073b9dd48fde6a93780b385e63bef2d07ace41a7cc989eee21807e467d6685dfea5b2f134040d5c7090ebdabef81ad22074f0792ce495048fd62ad4ca215a87e93da7bd61364232f6eddf1f02443fbff9dc8ee4d898f8a59764ac39d6c66d16a9e8a400450d938606030233760e5be7e098313956daa9984c1f4c4d7828b1a3952de529dcf8087d59282a44f65700863344a3c9f5f802561e736e7231555e1feab8543fb1287506157fc00fe8954589cf3bb7f2a6e1ce5c1a296eb10c96b252d80ba044254e20d742248b7d3417e8fafd9b7f9a605f518b9eb4559fbdbd0154767ad0e2860fba8ec5ab31f72c398a0f83a11c4786940e4223b56764580ce7367491b7324c71e23562cea8ad3b7cd87fb19678b24f7cb317df9b38cdaf95df46d7155612266818db62bbadbf46c49e34bd8e13452db17d61e5b201010d8d908943f1434af8a9c6ee4c5958e46f175ff2fb64c93ba009e3a2cf16326bcc1eb822b11e36c78e083bf5880d6ba9ed50c8cdaa68e3f503d3429e2ff4232e1cbbbd5e6b37ad4f8b282be884437eefb5e9089f11d2d4c6f391b9ef1d3336085a03ce2b5454eec9ae957808e34e0299ddeaf51fad3ea89f2fc0838cd10a41f6a22389a7bdc74c9a2709f02f9b336d2d3e3dd5b5d853876522abb303476451eee0e1d67093c041d4c49f8c80bb4c438b88a466697bdb5f445de44a83b0c8aa6ccb9269fb148201161b2d2e343e8197999aa7b3b7c0c8cbd8e702060933494d5e6e83898eb4ddeaf92f3b476472767f84878e919ba4aaadafecfe0d10242d4e4f5d6695a7b1d8dfe5fd000000000000000000000000001322344301",
        "00f8a0407c2cd36a4619fbefa949a9a62d1746a0093badf6ac44cf9bfcf34ff75b2a7f45372ce3e3368983fb5e5920508b70d9bfcc9e399c9a37201909c4b8441d44efedf7a4e25ce9645ec0f0c379cb8284323fcbca83ee4211595047be051134c475249bcc30ae5671b990141d3379798ab45ace4afb532b449b64233bb59ac87fc78b3dc70f2c31bda0c10c206b6ebbcad1851489223014401e4f7e466d644f220f1d5a8108b058504e2081e2b0052899742489817f23a3d1687018a1a4cead7028a818defc7259c4fadb9a808dbcdd7be98e703c957e8428480739c3446bbf5e54ee1c25d42f9ff836c0b9399308bd420b1e1e6e39949e99645830f3c9a5cdd0b14b43a916f7c3619ba8ecb86057ce011ebfaa4ea2220d64384a82a618173b6ebf1db0fc1302ac4ef8db0d500701ba8cb229c241dd81a6e345149fc6249ef45282adadb523ebc285366e2acdcadf6b108c34d5feefe92b5840f360cfdbde96853833103c4d8959295faececee32fac0524a404d1962fae39c4793d48b620d92a0fdc7ad23cad397f71210bdb032cb4bd6d6998c22e6596aed0cc3c3d1c96d3996492b7d846ca7766e14cffa868f2acd23ca33e4049a74a5c82955731bd0796dfa5334c2593882dc8675dec21695356d777590e3dc09ad0428dc9c22702765d1cb42850eca556f1d7c73a7f5f048bcb2b620e3e96d354dd5a8ee335ca846ca207ec5704ecff448ae5478344ec88c4c186e9da35b5817033e44f2b238ce2f580a41987fa4e9cd11f91501ae34d1088c6a5facf5b4238aa4c7b907777ee4a2f8b40999457f8790331bc8e50d94acf24408c2b850c7d782a8eeef7c8dc12fa8bc51ef331b558c9c263c4c89fba5aea389936135a5e7cc091661af49f0c029e43d3e326fa33fef0ce763722944f4483e63f33171245919d76759735f2e38f309cea20b0154547bcfc7d95ba72e97a248e79784a3a59344ce5e27b7dc0492eb86bc56e689dd1a1eb73dfd61f39f2d962b6a00410d282f7acb93b89adbe0224afbf9f6ac268f69ddee20aa4f639e310e961599025b7a1144947cb631599699bb5b33ff478a9de70a8604b43e921aa243e408e1254d8616010132279052c43d0a344a5c86f06160539983795cbaabbe38f117930c9be368fb27af76b22ac60f421010cb01918c0d3e3912df6caa0dac0fafdc621f4d9646bd64c4f92a9442d82be2f427a489ffb05fa86be2fdc28cfb5e496337038fd5dac351741904eb792c22640db59a3fa6bdd0440d7b65ed8d8b52ac9a621acd6cabcf61e119732d2a70f7c327716b9bfaec40d788cb61b69f024ae2ced340ea13867b324dba4ec4c91435d5230bfeefdb646c4ccf5bd7a9318f0e2f8fb4e1fb6454a0ba1994369359f5f0c71b15a0a449f0eb31983743b6f8166418d8810df89d3af0c318c1251cc0c9b17a062a3bbc876d86a02abf0ce0f08d5c8c5d40a6f0929b58a447817c33ddd969614ad4f90c9d506b36d58834ecb3d9f8e618a917300ac83f4ec2da97d6d9c7a92374eeb5f3233d905bb67a822960023c59c14681933d50d88c23439e8012ceff63bac948f6ba210fd12578d7284e61f8a18bb731c2ab85f1c6469485c5f1c8b7d436a22caa2065b32af9b0fff1dc53a0ce59f5646fb1e37a4afd88cc2549906f549e68c8371328cfc3ae2bedc7b671a15bccddb02d58580c894fd37c2d012ed3f9d90a0d367e170fae750d5ae12e630c72fe0cbdb5f016642254f67e292d559872859983be020a4ed2ba20dc33ee1601153189a2366d7bff01d1e5c79e8c033d7fcca0a5cd86f57f46f41070e1bb32c66a29d13ff12ed1c3d8e6efe4826606f0c658e"
      ],
      "sequence": 4294967294
    }
  ],
  "vout": [
    {
      "value": 499957.2902,
      "n": 0,
      "scriptPubKey": {
        "asm": "1 24f2bf87d7cd13de8102dfca29e2217f15f8fb54c4954abe0c07ff7f324c176d",
        "hex": "512024f2bf87d7cd13de8102dfca29e2217f15f8fb54c4954abe0c07ff7f324c176d",
        "reqSigs": 1,
        "type": "witness_v1_scripthash",
        "addresses": [
          "3QJmnh"
        ]
      }
    },
    {
      "value": 1.0,
      "n": 1,
      "scriptPubKey": {
        "asm": "OP_RETURN 73ba9e76bde7cc01a3e03abb2d26f78668515e5fbdbf296338b7a5f7f9b95fda 30d346bc876c77ec79326b5729a6dae96430636602eea2f55a7cdaca4712f47510f3669ca74c57cc59124b770986fac94410434622ce82d57a5cfaea6732d455709306fcc72c37ac39722b1769e69aa92470232642aee2b51a3c9a8a0752b43550b326dce70c178c19520b3749c6ba8904500306628ec2953a1cbaaa27729415b053c63c07ecf76cf9b2ebd7a9265a69e4b0e3e6826e2275dafc5a4ac79274f59073e61c27ccd74cd992cbf789067a49c490c3c6a24e0255fadc7a6ae7b254d5f013867c47acb72cb9f2ab97e9661a29a4f0a3a6c22e62359abc1a0a87d234b5d033a65c678c970c99d28bb7c9463a0984d08386e20e4215ba9c3a2aa7f2149530d346bc876c77ec79326b5729a6dae96430636602eea2f55a7cdaca4712f47510f3669ca74c57cc59124b770986fac94410434622ce82d57a5cfaea6732d455709306fcc72c37ac39722b1769e69aa92470232642aee2b51a3c9a8a0752b43550b326dce70c178c19520b3749c6ba8904500306628ec2953a1cbaaa27729415b053c63c07ecf76cf9b2ebd7a9265a69e4b0e3e6826e2275dafc5a4ac79274f59073e61c27ccd74cd992cbf789067a49c490c3c6a24e0255fadc7a6ae7b254d5f013867c47acb72cb9f2ab97e9661a29a4f0a3a6c22e62359abc1a0a87d234b5d033a65c678c970c99d28bb7c9463a0984d08386e20e4215ba9c3a2aa7f2149530d346bc876c77ec79326b5729a6dae96430636602eea2f55a7cdaca4712f47510f3669ca74c57cc59124b770986fac94410434622ce82d57a5cfaea6732d455709306fcc72c37ac39722b1769e69aa92470232642aee2b51a3c9a8a0752b43550b326dce70c178c19520b3749c6ba8904500306628ec2953a1cbaaa27729415b053c63c07ecf76cf9b2ebd7a9265a69e4b0e3e6826e2275dafc5a4ac79274f59073e61c27ccd74cd992cbf789067a49c490c3c6a24e0255fadc7a6ae7b254d5f013867c47acb72cb9f2ab97e9661a29a4f0a3a6c22e62359abc1a0a87d234b5d033a65c678c970c99d28bb7c9463a0984d08386e20e4215ba9c3a2aa7f2149530d346bc876c77ec79326b5729a6dae96430636602eea2f55a7cdaca4712f47510f3669ca74c57cc59124b770986fac94410434622ce82d57a5cfaea6732d455709306fcc72c37ac39722b1769e69aa92470232642aee2b51a3c9a8a0752b43550b326dce70c178c19520b3749c6ba8904500306628ec2953a1cbaaa27729415b053c63c07ecf76cf9b2ebd7a9265a69e4b0e3e6826e2275dafc5a4ac79274f59073e61c27ccd74cd992cbf789067a49c490c3c6a24e0255fadc7a6ae7b254d5f013867c47acb72cb9f2ab97e9661a29a4f0a3a6c22e62359abc1a0a87d234b5d033a65c678c970c99d28bb7c9463a0984d08386e20e4215ba9c3a2aa7f2149530d346bc876c77ec79326b5729a6dae96430636602eea2f55a7cdaca4712f47510f3669ca74c57cc59124b770986fac94410434622ce82d57a5cfaea6732d455709306fcc72c37ac39722b1769e69aa92470232642aee2b51a3c9a8a0752b43550b326dce70c178c19520b3749c6ba8904500306628ec2953a1cbaaa27729415b053c63c07ecf76cf9b2ebd7a9265a690da5cae6f568f625f0f1b7bdaabb27eab86156d3c42c4cf51141d278b4095791",
        "hex": "6a2073ba9e76bde7cc01a3e03abb2d26f78668515e5fbdbf296338b7a5f7f9b95fda4db00430d346bc876c77ec79326b5729a6dae96430636602eea2f55a7cdaca4712f47510f3669ca74c57cc59124b770986fac94410434622ce82d57a5cfaea6732d455709306fcc72c37ac39722b1769e69aa92470232642aee2b51a3c9a8a0752b43550b326dce70c178c19520b3749c6ba8904500306628ec2953a1cbaaa27729415b053c63c07ecf76cf9b2ebd7a9265a69e4b0e3e6826e2275dafc5a4ac79274f59073e61c27ccd74cd992cbf789067a49c490c3c6a24e0255fadc7a6ae7b254d5f013867c47acb72cb9f2ab97e9661a29a4f0a3a6c22e62359abc1a0a87d234b5d033a65c678c970c99d28bb7c9463a0984d08386e20e4215ba9c3a2aa7f2149530d346bc876c77ec79326b5729a6dae96430636602eea2f55a7cdaca4712f47510f3669ca74c57cc59124b770986fac94410434622ce82d57a5cfaea6732d455709306fcc72c37ac39722b1769e69aa92470232642aee2b51a3c9a8a0752b43550b326dce70c178c19520b3749c6ba8904500306628ec2953a1cbaaa27729415b053c63c07ecf76cf9b2ebd7a9265a69e4b0e3e6826e2275dafc5a4ac79274f59073e61c27ccd74cd992cbf789067a49c490c3c6a24e0255fadc7a6ae7b254d5f013867c47acb72cb9f2ab97e9661a29a4f0a3a6c22e62359abc1a0a87d234b5d033a65c678c970c99d28bb7c9463a0984d08386e20e4215ba9c3a2aa7f2149530d346bc876c77ec79326b5729a6dae96430636602eea2f55a7cdaca4712f47510f3669ca74c57cc59124b770986fac94410434622ce82d57a5cfaea6732d455709306fcc72c37ac39722b1769e69aa92470232642aee2b51a3c9a8a0752b43550b326dce70c178c19520b3749c6ba8904500306628ec2953a1cbaaa27729415b053c63c07ecf76cf9b2ebd7a9265a69e4b0e3e6826e2275dafc5a4ac79274f59073e61c27ccd74cd992cbf789067a49c490c3c6a24e0255fadc7a6ae7b254d5f013867c47acb72cb9f2ab97e9661a29a4f0a3a6c22e62359abc1a0a87d234b5d033a65c678c970c99d28bb7c9463a0984d08386e20e4215ba9c3a2aa7f2149530d346bc876c77ec79326b5729a6dae96430636602eea2f55a7cdaca4712f47510f3669ca74c57cc59124b770986fac94410434622ce82d57a5cfaea6732d455709306fcc72c37ac39722b1769e69aa92470232642aee2b51a3c9a8a0752b43550b326dce70c178c19520b3749c6ba8904500306628ec2953a1cbaaa27729415b053c63c07ecf76cf9b2ebd7a9265a69e4b0e3e6826e2275dafc5a4ac79274f59073e61c27ccd74cd992cbf789067a49c490c3c6a24e0255fadc7a6ae7b254d5f013867c47acb72cb9f2ab97e9661a29a4f0a3a6c22e62359abc1a0a87d234b5d033a65c678c970c99d28bb7c9463a0984d08386e20e4215ba9c3a2aa7f2149530d346bc876c77ec79326b5729a6dae96430636602eea2f55a7cdaca4712f47510f3669ca74c57cc59124b770986fac94410434622ce82d57a5cfaea6732d455709306fcc72c37ac39722b1769e69aa92470232642aee2b51a3c9a8a0752b43550b326dce70c178c19520b3749c6ba8904500306628ec2953a1cbaaa27729415b053c63c07ecf76cf9b2ebd7a9265a690da5cae6f568f625f0f1b7bdaabb27eab86156d3c42c4cf51141d278b4095791",
        "type": "nulldata"
      }
    }
  ],
  "blockhash": "9c49f121af07ca043271baff5049446c1aadf74400091ff8de6bf4087ac8778e",
  "confirmations": 1,
  "time": 1764183425,
  "blocktime": 1764183425
}