{
  "hex": "01000000000101b434b9d18e3660e2c9981c52f7574a3a84a2fc5fc1b197d3df232e081d38c0ea0000000000feffffff0200e1f50500000000fdd5046a2070633c7672cfc4e302c9402eed04a925a7fadb1f963d9f09529f3fd65794cdbc4db004f13c38bd9403acfd789ea4ddcfff442f9feb3ab60b911635da7055b1e34c36cfd11c189db4238cdd58be84fdefdf640fbfcb1a962bb13615fa507591c36c16efb17c78fdd443ecbd38dee49d8fbf046fdfab7af64bd156759a3015f1a30c768f915c58ddf463cc9d18fec4bdaf9f244fff8b5ad66bf17655ba1035d1832c56af71bcb83d14832c7df81e245d4f7fc4af1f6bba368b1196b55af0d53163ccb64f519c981d34a30c5dd83e047d6f5fe48f3f4b9a16ab31b6957ad0f51143ec966f31fcf87d54c36c3db85e641d0f3f84ef5f2bfa76cb51d6f51ab09571238cf60f11dcd85d74e34c1d987e443d2f1fa4cf7f0bda56eb71f6d53a90b55103acd62ff13c38bd9403acfd789ea4ddcfff442f9feb3ab60b911635da7055b1e34c36cfd11c189db4238cdd58be84fdefdf640fbfcb1a962bb13615fa507591c36c16efb17c78fdd443ecbd38dee49d8fbf046fdfab7af64bd156759a3015f1a30c768f915c58ddf463cc9d18fec4bdaf9f244fff8b5ad66bf17655ba1035d1832c56af71bcb83d14832c7df81e245d4f7fc4af1f6bba368b1196b55af0d53163ccb64f519c981d34a30c5dd83e047d6f5fe48f3f4b9a16ab31b6957ad0f51143ec966f31fcf87d54c36c3db85e641d0f3f84ef5f2bfa76cb51d6f51ab09571238cf60f11dcd85d74e34c1d987e443d2f1fa4cf7f0bda56eb71f6d53a90b55103acd62ff13c38bd9403acfd789ea4ddcfff442f9feb3ab60b911635da7055b1e34c36cfd11c189db4238cdd58be84fdefdf640fbfcb1a962bb13615fa507591c36c16efb17c78fdd443ecbd38dee49d8fbf046fdfab7af64bd156759a3015f1a30c768f915c58ddf463cc9d18fec4bdaf9f244fff8b5ad66bf17655ba1035d1832c56af71bcb83d14832c7df81e245d4f7fc4af1f6bba368b1196b55af0d53163ccb64f519c981d34a30c5dd83e047d6f5fe48f3f4b9a16ab31b6957ad0f51143ec966f31fcf87d54c36c3db85e641d0f3f84ef5f2bfa76cb51d6f51ab09571238cf60f11dcd85d74e34c1d987e443d2f1fa4cf7f0bda56eb71f6d53a90b55103acd62ff13c38bd9403acfd789ea4ddcfff442f9feb3ab60b911635da7055b1e34c36cfd11c189db4238cdd58be84fdefdf640fbfcb1a962bb13615fa507591c36c16efb17c78fdd443ecbd38dee49d8fbf046fdfab7af64bd156759a3015f1a30c768f915c58ddf463cc9d18fec4bdaf9f244fff8b5ad66bf17655ba1035d1832c56af71bcb83d14832c7df81e245d4f7fc4af1f6bba368b1196b55af0d53163ccb64f519c981d34a30c5dd83e047d6f5fe48f3f4b9a16ab31b6957ad0f51143ec966f31fcf87d54c36c3db85e641d0f3f84ef5f2bfa76cb51d6f51ab09571238cf60f11dcd85d74e34c1d987e443d2f1fa4cf7f0bda56eb71f6d53a90b55103acd62ff13c38bd9403acfd789ea4ddcfff442f9feb3ab60b911635da7055b1e34c36cfd11c189db4238cdd58be84fdefdf640fbfcb1a962bb13615fa507591c36c16efb17c78fdd443ecbd38dee49d8fbf046fdfab7af64bd156759a3015f1a30c768f915c58ddf463cc9d18fec4bdaf9f244fff8b5ad66bf17655ba1035d1832c56af71bcb83d14832c7df81e245d4f7fc4af350e9a95cb878b82f28b48af38e04b0aec241855458ed3d9f073eee3e03985e8c0cc030f792d0000225120bfe5012f559ab8ec1c2e5360912ff33ee074d6e41cc536bc96339893e275ea6802fd7509fd3fb068edfe34d3e6c9b01d7a2ad0af33e99cb02d9a608d95f64e075c7fd1246fd716dbc6d67de37ca869f8adfd5ccace62b87ca87a28aa080e042b485b9d74e6d7d87f8f9884050838f5fe805b46c50b92fee65001f27fba3efbef15d6f46dfafe6c043aa18c947a84e783947c523a0b44bb7d10084c2d9e662b2a10185f9c79de4b7d6a4cead4130be8d7dfdf1054aaf04b3dbc499bb6409fdf662f37b9856ca16aef5c9021c3d5ef09abcf67735a76bfa73a50d576a2630906106950f7ad92b5a66a2d162e3e7bc99cbb903b52ed00212d05c0d79c5407e2073243cbd889e48c99b37f10f4201be6214c388056ae1a6a2923b840320f3641468a66a2c8e242cc669bac21235abd8602bdacdf5c46ee91b425bfdae95b29e783b1d6a70aaf45c8957578937db7b0908a27f4d8d6943ca068e1c71fcbcb06815448c98b450f784edc34f0db9edfea83a520fb4c7c839fbf2fd955a54c82062c7e921585608da4baa6fd91965dc99766d6c71776c8f19da3e7e4ff8d340d27192b5337a87f2fa6b47787b0ccc9c581392b51cf6b6e072516ac8a02ee2c6d0fbdd67a44c363c21b832a5ee7a77f81656bb7071cd1fde92fee9838c777c6aaf8775c115f8908b679f93c4e49cd661d533979ef2a3b7732413a0d58c0b0a2b70814968e1bcd7f2013d0f5b30e81a2b5b461b484ef2595b59323ff59e5c841d184886a35021907fad1cc50de675a483eb171e3a85c21440d8827652614b3868daaabc9119f0c43244c468b108d1feb8224ab3e94d76c140050a3c4571f4e847eb6acc2d021c1c44d85fe65a14988854a1bb71aa7d38f1fb4796805537c34459dad0d929f75a5f7fb83a3eb883d125dd3a62afdc517bac639d50672aaff04de1ced88e682ab0fb821851a367e12c4488dad2cbaef0890ba66135d2ed37cf1c7cc3a11564a54cf1d3bccf30adff6c44ea64dff2881948bdec4bd8d0a59a31d3e22de4a56af8259a91a460cc9c2455c60ff75d587df7084e12d17dd31ffde021e82e0dd64159718c94cc3438c6a366a4d51eec81e2b590ba03bcc86fca15e074a6ab7356b48212a1d5658b1e4b4c39a471b91338edb75984e0188e02e99cc9f56f28f144a88e6375c7046c44b0c453acc40f76b78e5da1e82f137ec5fb487c0a41b0eee4858214dddd7c83d1b4dc01dd6bd8fe07f76411d0098f868c27c7d16ee3d7442f1029afaa30acfffe4d0fd6875c2e1c40b1b2642e9b0d5397c8fdebeab0e93f35d1a0868ccbae3894e3f6ba359cf2bf98b8e021a9232e2ead5db8cc04e500f1ddb51650167adfe33bda3b0196a8382f2eb8f997aab79b2a5ccadedee3687efa20f90435a9bf38db99e0e77feae4f7ff6d5298c7587509c85a87977b985a2c385900f6c2ad0dbc8b9d143a3e6e33f10b982671c64e1a08425f5a47b9db3f71cb5663b109504492f2b303040a178c40e7162ec2a7712a69ed1382035f0cac95072006ce8ffe4766d7e8232124a6fda292529ef5cc93e55b84f81b152b62a40a25cb342beeb8398f993a15c3445629de90687ea5ee3c23fb8f564f9aa61131f1298b5f4244b0c621c1ad43c2b049d534d803557c78a012912d783d2f5af848f634acce527d381e255c1b5821b13503b8a60213055c2ee6e72adc345025fbd43360e4a260b8caf0aea2303cdaf8f1b96dea275c8d54eb5e98e6bb42ba4ecd1dc7e4a493d511d97b58588c0bfca797d75665d506a23d923414d2b8c076b7be30fed10a61c04dd68e965f49bc5ebd8f0d08b56465e006ff6be1d23bfc8ecfe9b0e617a5c23c37a2f191584e538e6679f7cfe0841a1ac59fdbf51f4c10f3d23c26b5006c1e2bf90e75218a771030e2b40b0c93e94cb313302465fca401daa329b91f35f84fb9399cd8cdbe1fb99f06c080a7440e2d2ea6b3905be5e686283fc66044b9b063bdac2a72b72ed2d099b55944563c96347a7333d6845fc682eb68581c42fd4067899d72869cae4a5ca74f1420c3a5516ac75953352e04ab8f74aceeddb3c03f6e23d8268a929723ecb43cf0d4026f2a5951c63c3c72bc78296926a889444a3b23f384358b5d26447d6a63f7f607e4df33ad814a9889186686fdce7d596ab52afe161b4d58e2e0339cbb11dbb701fe3c3d4744faf12ebfce544fe00438d9ec0075b6a10302d90bcb0fb4597de1297b432a20ea320053b087520adc7e4a347e804414ddabbc22cfa2ccc2ea341eccb131fa75a9e16a09af6915d2e22d65c9f44f7e58ae76776027a81217d1ce073de04e7d960c78a8408e1cf9ceca3964fded6b9ad1d620a0515ca7589367421ffee2a5565b10ba6746d6e50d541891a0e6cdc7d33e0b04b9a2f5109b0a40dca20a9df7b495de783da7f535716dc14112887a3495a20184ef8c95469552c1b591bd5dad1f643c767d039e0eed89499f4f8824e5a0675a485e5b118d425596f5a88fe75d81ac25e16295f9dbfa4252e24b4cf33d8e7683c4eb553944b5f8283a2ec6cd27b2933b059725f38dd59cf863274e6dc9d629a78a81f90db14e8b822620a94cc6ab2b26e8750d19628acae667f17fabdabea16e5ebdb917e794bface6589d33055d1b88a268ca3f7e24e4534ba4e028831cea20c5bb24114c72b09ec1e87c50dfad4cdbf596b06429b94e0f36ebd62f0d95ba91d56f4e4b4149fc12e50cb8f47295ea271c642712191dd820f9b7794915f768c657b114c7a98dfd413fa4d58e96ce58986fe5ac3f8c4a23665bf811ee71dd49779a1233dbd501167f8cae210cb836dff0138dc9bdb9c0ee39a0f81fe29854da54e4a488bf9b04afaff019dd17ae66a09dcf23b88d71d86516e1d74258c8c03a7e616da9622a81bd06ad5f8886d247b0d4b418e08e61809f10ceed46b5d86a020b1df380c28d1e2a4ca5898bf78debee5a841a4d9bfa2808101937a42356029ba5ec59a77d6432020c277713ff50599e1176399e3fce9de4c2783aef4401800c88dabce26ffee64c85431a6cb735b3265aa4c77c1da68a655afe110fb2ccd9892a934f1763c8db40df8276d620220721c4a105dc05985a79f0730a56435c46a390c788a6a55fb9f6157bab6c30ff96e1d6a05b178067e1c78f7753d66ec82fee007301113d5ca57c332a44feff58a088b41333d052b87ac3aeedb64fcb1da88fed58338e1b8d68d6c516562031ee8a450378bbc4836a43b2bda3e7ab060389bb85aca6adce22f7c83703d8eec5138977cc84dccede861fa6aae735be1cb4ed9c522ba23f7b72d11cbac6d494f197c2359a5127fb6907913e6bd2d736d11e12cb01425ee0b2b2d3446506ebad9ed070a1122495657929ba3cbddf1073560729dcbd3d9edfe14455c61656f71769ec4ccd7e1e8e900000000000000000000000000000000000000000000000000000000000000000a17213001fd2105007e0b491af6427421098ca47290bf21e3033a473d152f0c570f0402f10e1a60ff36a78c4cd671b7225ad8bfdf0f9dc272a5d8a452307130c2d8a6bb3ff21d9b885c99e2814e6f7a948b15deaa101856e288b08aac3fa904446cdffc35043bc587161796c52fe9f9bec08461882d8983b0b4fdb74a86f0eef017ef89848612e02b699e3b27614ce90a1fe09890e456c3f5e6ac2e625fa200862ce913b58b0d880c37ad174b3e7356e897a562c9bb3066cf471c1753fad9650442eba0d1c6c1cf00aa6987d3458c0833f1c025264e6bce835616493dbec3849db7bd75070538196303fe1fad9280e90e04209ab6f1c75f6b3ed1ea80ce164fec21a0080a879e60195c5847b5b7f4a6b55f6d85e3406268b345e18606f1dce81c759cf7d2cb041caf864eaf47b746a1e96aa94e1a4c3cc054d74bf52c7b51173795cbc1bf6794725b415a268d6a246045870bfb4f43eac24afee57d38a81a01483a44e5ad04a81e1fc92d9ab8c1d892a531b33a3f66571adcbc8a7afe3186e2ad52c5ade9ec32cfd5a421f1bfdb9533f12fa19bd69f977da6c7c7308765185c5388853c710e21445f672644729774651ccc6bffcbe96aa27b7aa58e6faf0a195199da616df5ef0478baa814604e6fc47da6459621fbbc58a5ff69be4788dad2fc1a494748e01fb950be2e40e23b3dd4d1d3cde8ac9ba6a996ad80de300b9631fcf873112f8f1fff0f816c17530f74777615291b1d286159ed4e71b339e84f11e9543d775f3c37072c83ad77cec91f13086d1e155b7d39e4f9b887b908a5d91c1f9c534ff18c768f2fed14aaad10d3390c2152d2b4b24d5c0d8ab708ebea49f8f309629ff1fd0ab260ab40af98d230dc1159449cd4935bbd14d21c878d2590f3aee0b17d6f21e43571aa41a8c200c3d1b74c51ee3eab1ffc13bd4a5a7bcad5f5056af32b7b0826b59124edd76235850f1462308afe435189ae27e2bdd358f60d2b935a99b1d70ebc8b01b57ee9be7a9fa16f06570a3b8058953e271f8b6d79625ad6952aba9f5f789a0c9a719fe1548d79c13c6be39620586e9ba305768b914ce4073fc0baa296e0f3885d51e373500c99b5eac0d5d45174dc0fbbd03da40a8be6b550ede335f5c801c1b5c129950cf293a3ede59abdcfc70c3a15998ddb166df90a72f59288a097549100b84b9c44be46ebb4e12609b45f510081781671b0a8982dfd59c13347ad46ed3a2c2e0b492b379bf227bcae752a248c13e6df4e2c08dcae963a70c768747607fa08c731346b10379555689a582c90ed142dfddc0bc47de98abe0c51b7e6515df00737dee0027322b79ebd253f9367d722b006fb109f46fde39405b892c8368f3ede7cdb6b6a6c79d8d269c9652455362476cd7db19087d92bebebc67cde5f9c80dc230e414ab95f6cac34426db796c830b5f537c904f5bbd3c3adfe395c2e7076d04f38cf9bc761130231eecfaf9b48c6b82b47bc37d18c147b5d4c6a588cdf47ec8076fd0a2750b18d9478602f04ec645c55f4f4119d4921c4c2c278d8ae7c4f56910b84e8ab21e916d56a30d8811df632fad5c5436519d139b94d20fa3b28226d367f11c2f0dd98c84fb0ab412d9b0985463829e3f9d0a05dc9e28851e463b2cf0f7dee0cfa30fc5752417307bf593538e446dfde051182bb8183a55e493659a7e1a8a8f8560b8ee03e72df2a9295ca06439ad889647982ecfb70e4512260708882f1cb96df56ee54eed72c34683ba024b0aaa8f2f10ab42716645a5ded42a69b84c971f4c2146aff4b5f22446a13397ccf2f613ce39cc5d30458611e88f91407e6093fbe77f335b8d9bf091c33de918858202c5cff199dfe43c556ac1b75000000",
  "txid": "04c9d4a27f6df7dcc3f49ffd15a4ecf34bf5318f646696b60a65c0bfc04bd153",
  "hash": "ddf7d3f2b00f597295e4bda6a17cdbdea6696c4a00d78c293de95edb661950a6",
  "size": 5085,
  "vsize": 2278,
  "version": 1,
  "locktime": 117,
  "vin": [
    {
      "txid": "eac0381d082e23dfd397b1c15ffca2843a4a57f7521c98c9e260368ed1b934b4",
      "vout": 0,
      "scriptSig": {
        "asm": "",
        "hex": ""
      },
      "txinwitness": [
        "fd3fb068edfe34d3e6c9b01d7a2ad0af33e99cb02d9a608d95f64e075c7fd1246fd716dbc6d67de37ca869f8adfd5ccace62b87ca87a28aa080e042b485b9d74e6d7d87f8f9884050838f5fe805b46c50b92fee65001f27fba3efbef15d6f46dfafe6c043aa18c947a84e783947c523a0b44bb7d10084c2d9e662b2a10185f9c79de4b7d6a4cead4130be8d7dfdf1054aaf04b3dbc499bb6409fdf662f37b9856ca16aef5c9021c3d5ef09abcf67735a76bfa73a50d576a2630906106950f7ad92b5a66a2d162e3e7bc99cbb903b52ed00212d05c0d79c5407e2073243cbd889e48c99b37f10f4201be6214c388056ae1a6a2923b840320f3641468a66a2c8e242cc669bac21235abd8602bdacdf5c46ee91b425bfdae95b29e783b1d6a70aaf45c8957578937db7b0908a27f4d8d6943ca068e1c71fcbcb06815448c98b450f784edc34f0db9edfea83a520fb4c7c839fbf2fd955a54c82062c7e921585608da4baa6fd91965dc99766d6c71776c8f19da3e7e4ff8d340d27192b5337a87f2fa6b47787b0ccc9c581392b51cf6b6e072516ac8a02ee2c6d0fbdd67a44c363c21b832a5ee7a77f81656bb7071cd1fde92fee9838c777c6aaf8775c115f8908b679f93c4e49cd661d533979ef2a3b7732413a0d58c0b0a2b70814968e1bcd7f2013d0f5b30e81a2b5b461b484ef2595b59323ff59e5c841d184886a35021907fad1cc50de675a483eb171e3a85c21440d8827652614b3868daaabc9119f0c43244c468b108d1feb8224ab3e94d76c140050a3c4571f4e847eb6acc2d021c1c44d85fe65a14988854a1bb71aa7d38f1fb4796805537c34459dad0d929f75a5f7fb83a3eb883d125dd3a62afdc517bac639d50672aaff04de1ced88e682ab0fb821851a367e12c4488dad2cbaef0890ba66135d2ed37cf1c7cc3a11564a54cf1d3bccf30adff6c44ea64dff2881948bdec4bd8d0a59a31d3e22de4a56af8259a91a460cc9c2455c60ff75d587df7084e12d17dd31ffde021e82e0dd64159718c94cc3438c6a366a4d51eec81e2b590ba03bcc86fca15e074a6ab7356b48212a1d5658b1e4b4c39a471b91338edb75984e0188e02e99cc9f56f28f144a88e6375c7046c44b0c453acc40f76b78e5da1e82f137ec5fb487c0a41b0eee4858214dddd7c83d1b4dc01dd6bd8fe07f76411d0098f868c27c7d16ee3d7442f1029afaa30acfffe4d0fd6875c2e1c40b1b2642e9b0d5397c8fdebeab0e93f35d1a0868ccbae3894e3f6ba359cf2bf98b8e021a9232e2ead5db8cc04e500f1ddb51650167adfe33bda3b0196a8382f2eb8f997aab79b2a5ccadedee3687efa20f90435a9bf38db99e0e77feae4f7ff6d5298c7587509c85a87977b985a2c385900f6c2ad0dbc8b9d143a3e6e33f10b982671c64e1a08425f5a47b9db3f71cb5663b109504492f2b303040a178c40e7162ec2a7712a69ed1382035f0cac95072006ce8ffe4766d7e8232124a6fda292529ef5cc93e55b84f81b152b62a40a25cb342beeb8398f993a15c3445629de90687ea5ee3c23fb8f564f9aa61131f1298b5f4244b0c621c1ad43c2b049d534d803557c78a012912d783d2f5af848f634acce527d381e255c1b5821b13503b8a60213055c2ee6e72adc345025fbd43360e4a260b8caf0aea2303cdaf8f1b96dea275c8d54eb5e98e6bb42ba4ecd1dc7e4a493d511d97b58588c0bfca797d75665d506a23d923414d2b8c076b7be30fed10a61c04dd68e965f49bc5ebd8f0d08b56465e006ff6be1d23bfc8ecfe9b0e617a5c23c37a2f191584e538e6679f7cfe0841a1ac59fdbf51f4c10f3d23c26b5006c1e2bf90e75218a771030e2b40b0c93e94cb313302465fca401daa329b91f35f84fb9399cd8cdbe1fb99f06c080a7440e2d2ea6b3905be5e686283fc66044b9b063bdac2a72b72ed2d099b55944563c96347a7333d6845fc682eb68581c42fd4067899d72869cae4a5ca74f1420c3a5516ac75953352e04ab8f74aceeddb3c03f6e23d8268a929723ecb43cf0d4026f2a5951c63c3c72bc78296926a889444a3b23f384358b5d26447d6a63f7f607e4df33ad814a9889186686fdce7d596ab52afe161b4d58e2e0339cbb11dbb701fe3c3d4744faf12ebfce544fe00438d9ec0075b6a10302d90bcb0fb4597de1297b432a20ea320053b087520adc7e4a347e804414ddabbc22cfa2ccc2ea341eccb131fa75a9e16a09af6915d2e22d65c9f44f7e58ae76776027a81217d1ce073de04e7d960c78a8408e1cf9ceca3964fded6b9ad1d620a0515ca7589367421ffee2a5565b10ba6746d6e50d541891a0e6cdc7d33e0b04b9a2f5109b0a40dca20a9df7b495de783da7f535716dc14112887a3495a20184ef8c95469552c1b591bd5dad1f643c767d039e0eed89499f4f8824e5a0675a485e5b118d425596f5a88fe75d81ac25e16295f9dbfa4252e24b4cf33d8e7683c4eb553944b5f8283a2ec6cd27b2933b059725f38dd59cf863274e6dc9d629a78a81f90db14e8b822620a94cc6ab2b26e8750d19628acae667f17fabdabea16e5ebdb917e794bface6589d33055d1b88a268ca3f7e24e4534ba4e028831cea20c5bb24114c72b09ec1e87c50dfad4cdbf596b06429b94e0f36ebd62f0d95ba91d56f4e4b4149fc12e50cb8f47295ea271c642712191dd820f9b7794915f768c657b114c7a98dfd413fa4d58e96ce58986fe5ac3f8c4a23665bf811ee71dd49779a1233dbd501167f8cae210cb836dff0138dc9bdb9c0ee39a0f81fe29854da54e4a488bf9b04afaff019dd17ae66a09dcf23b88d71d86516e1d74258c8c03a7e616da9622a81bd06ad5f8886d247b0d4b418e08e61809f10ceed46b5d86a020b1df380c28d1e2a4ca5898bf78debee5a841a4d9bfa2808101937a42356029ba5ec59a77d6432020c277713ff50599e1176399e3fce9de4c2783aef4401800c88dabce26ffee64c85431a6cb735b3265aa4c77c1da68a655afe110fb2ccd9892a934f1763c8db40df8276d620220721c4a105dc05985a79f0730a56435c46a390c788a6a55fb9f6157bab6c30ff96e1d6a05b178067e1c78f7753d66ec82fee007301113d5ca57c332a44feff58a088b41333d052b87ac3aeedb64fcb1da88fed58338e1b8d68d6c516562031ee8a450378bbc4836a43b2bda3e7ab060389bb85aca6adce22f7c83703d8eec5138977cc84dccede861fa6aae735be1cb4ed9c522ba23f7b72d11cbac6d494f197c2359a5127fb6907913e6bd2d736d11e12cb01425ee0b2b2d3446506ebad9ed070a1122495657929ba3cbddf1073560729dcbd3d9edfe14455c61656f71769ec4ccd7e1e8e900000000000000000000000000000000000000000000000000000000000000000a17213001",
        "007e0b491af6427421098ca47290bf21e3033a473d152f0c570f0402f10e1a60ff36a78c4cd671b7225ad8bfdf0f9dc272a5d8a452307130c2d8a6bb3ff21d9b885c99e2814e6f7a948b15deaa101856e288b08aac3fa904446cdffc35043bc587161796c52fe9f9bec08461882d8983b0b4fdb74a86f0eef017ef89848612e02b699e3b27614ce90a1fe09890e456c3f5e6ac2e625fa200862ce913b58b0d880c37ad174b3e7356e897a562c9bb3066cf471c1753fad9650442eba0d1c6c1cf00aa6987d3458c0833f1c025264e6bce835616493dbec3849db7bd75070538196303fe1fad9280e90e04209ab6f1c75f6b3ed1ea80ce164fec21a0080a879e60195c5847b5b7f4a6b55f6d85e3406268b345e18606f1dce81c759cf7d2cb041caf864eaf47b746a1e96aa94e1a4c3cc054d74bf52c7b51173795cbc1bf6794725b415a268d6a246045870bfb4f43eac24afee57d38a81a01483a44e5ad04a81e1fc92d9ab8c1d892a531b33a3f66571adcbc8a7afe3186e2ad52c5ade9ec32cfd5a421f1bfdb9533f12fa19bd69f977da6c7c7308765185c5388853c710e21445f672644729774651ccc6bffcbe96aa27b7aa58e6faf0a195199da616df5ef0478baa814604e6fc47da6459621fbbc58a5ff69be4788dad2fc1a494748e01fb950be2e40e23b3dd4d1d3cde8ac9ba6a996ad80de300b9631fcf873112f8f1fff0f816c17530f74777615291b1d286159ed4e71b339e84f11e9543d775f3c37072c83ad77cec91f13086d1e155b7d39e4f9b887b908a5d91c1f9c534ff18c768f2fed14aaad10d3390c2152d2b4b24d5c0d8ab708ebea49f8f309629ff1fd0ab260ab40af98d230dc1159449cd4935bbd14d21c878d2590f3aee0b17d6f21e43571aa41a8c200c3d1b74c51ee3eab1ffc13bd4a5a7bcad5f5056af32b7b0826b59124edd76235850f1462308afe435189ae27e2bdd358f60d2b935a99b1d70ebc8b01b57ee9be7a9fa16f06570a3b8058953e271f8b6d79625ad6952aba9f5f789a0c9a719fe1548d79c13c6be39620586e9ba305768b914ce4073fc0baa296e0f3885d51e373500c99b5eac0d5d45174dc0fbbd03da40a8be6b550ede335f5c801c1b5c129950cf293a3ede59abdcfc70c3a15998ddb166df90a72f59288a097549100b84b9c44be46ebb4e12609b45f510081781671b0a8982dfd59c13347ad46ed3a2c2e0b492b379bf227bcae752a248c13e6df4e2c08dcae963a70c768747607fa08c731346b10379555689a582c90ed142dfddc0bc47de98abe0c51b7e6515df00737dee0027322b79ebd253f9367d722b006fb109f46fde39405b892c8368f3ede7cdb6b6a6c79d8d269c9652455362476cd7db19087d92bebebc67cde5f9c80dc230e414ab95f6cac34426db796c830b5f537c904f5bbd3c3adfe395c2e7076d04f38cf9bc761130231eecfaf9b48c6b82b47bc37d18c147b5d4c6a588cdf47ec8076fd0a2750b18d9478602f04ec645c55f4f4119d4921c4c2c278d8ae7c4f56910b84e8ab21e916d56a30d8811df632fad5c5436519d139b94d20fa3b28226d367f11c2f0dd98c84fb0ab412d9b0985463829e3f9d0a05dc9e28851e463b2cf0f7dee0cfa30fc5752417307bf593538e446dfde051182bb8183a55e493659a7e1a8a8f8560b8ee03e72df2a9295ca06439ad889647982ecfb70e4512260708882f1cb96df56ee54eed72c34683ba024b0aaa8f2f10ab42716645a5ded42a69b84c971f4c2146aff4b5f22446a13397ccf2f613ce39cc5d30458611e88f91407e6093fbe77f335b8d9bf091c33de918858202c5cff199dfe43c556ac1b"
      ],
      "sequence": 4294967294
    }
  ],
  "vout": [
    {
      "value": 1.0,
      "n": 0,
      "scriptPubKey": {
        "asm": "OP_RETURN 70633c7672cfc4e302c9402eed04a925a7fadb1f963d9f09529f3fd65794cdbc f13c38bd9403acfd789ea4ddcfff442f9feb3ab60b911635da7055b1e34c36cfd11c189db4238cdd58be84fdefdf640fbfcb1a962bb13615fa507591c36c16efb17c78fdd443ecbd38dee49d8fbf046fdfab7af64bd156759a3015f1a30c768f915c58ddf463cc9d18fec4bdaf9f244fff8b5ad66bf17655ba1035d1832c56af71bcb83d14832c7df81e245d4f7fc4af1f6bba368b1196b55af0d53163ccb64f519c981d34a30c5dd83e047d6f5fe48f3f4b9a16ab31b6957ad0f51143ec966f31fcf87d54c36c3db85e641d0f3f84ef5f2bfa76cb51d6f51ab09571238cf60f11dcd85d74e34c1d987e443d2f1fa4cf7f0bda56eb71f6d53a90b55103acd62ff13c38bd9403acfd789ea4ddcfff442f9feb3ab60b911635da7055b1e34c36cfd11c189db4238cdd58be84fdefdf640fbfcb1a962bb13615fa507591c36c16efb17c78fdd443ecbd38dee49d8fbf046fdfab7af64bd156759a3015f1a30c768f915c58ddf463cc9d18fec4bdaf9f244fff8b5ad66bf17655ba1035d1832c56af71bcb83d14832c7df81e245d4f7fc4af1f6bba368b1196b55af0d53163ccb64f519c981d34a30c5dd83e047d6f5fe48f3f4b9a16ab31b6957ad0f51143ec966f31fcf87d54c36c3db85e641d0f3f84ef5f2bfa76cb51d6f51ab09571238cf60f11dcd85d74e34c1d987e443d2f1fa4cf7f0bda56eb71f6d53a90b55103acd62ff13c38bd9403acfd789ea4ddcfff442f9feb3ab60b911635da7055b1e34c36cfd11c189db4238cdd58be84fdefdf640fbfcb1a962bb13615fa507591c36c16efb17c78fdd443ecbd38dee49d8fbf046fdfab7af64bd156759a3015f1a30c768f915c58ddf463cc9d18fec4bdaf9f244fff8b5ad66bf17655ba1035d1832c56af71bcb83d14832c7df81e245d4f7fc4af1f6bba368b1196b55af0d53163ccb64f519c981d34a30c5dd83e047d6f5fe48f3f4b9a16ab31b6957ad0f51143ec966f31fcf87d54c36c3db85e641d0f3f84ef5f2bfa76cb51d6f51ab09571238cf60f11dcd85d74e34c1d987e443d2f1fa4cf7f0bda56eb71f6d53a90b55103acd62ff13c38bd9403acfd789ea4ddcfff442f9feb3ab60b911635da7055b1e34c36cfd11c189db4238cdd58be84fdefdf640fbfcb1a962bb13615fa507591c36c16efb17c78fdd443ecbd38dee49d8fbf046fdfab7af64bd156759a3015f1a30c768f915c58ddf463cc9d18fec4bdaf9f244fff8b5ad66bf17655ba1035d1832c56af71bcb83d14832c7df81e245d4f7fc4af1f6bba368b1196b55af0d53163ccb64f519c981d34a30c5dd83e047d6f5fe48f3f4b9a16ab31b6957ad0f51143ec966f31fcf87d54c36c3db85e641d0f3f84ef5f2bfa76cb51d6f51ab09571238cf60f11dcd85d74e34c1d987e443d2f1fa4cf7f0bda56eb71f6d53a90b55103acd62ff13c38bd9403acfd789ea4ddcfff442f9feb3ab60b911635da7055b1e34c36cfd11c189db4238cdd58be84fdefdf640fbfcb1a962bb13615fa507591c36c16efb17c78fdd443ecbd38dee49d8fbf046fdfab7af64bd156759a3015f1a30c768f915c58ddf463cc9d18fec4bdaf9f244fff8b5ad66bf17655ba1035d1832c56af71bcb83d14832c7df81e245d4f7fc4af350e9a95cb878b82f28b48af38e04b0aec241855458ed3d9f073eee3e03985e8",
        "hex": "6a2070633c7672cfc4e302c9402eed04a925a7fadb1f963d9f09529f3fd65794cdbc4db004f13c38bd9403acfd789ea4ddcfff442f9feb3ab60b911635da7055b1e34c36cfd11c189db4238cdd58be84fdefdf640fbfcb1a962bb13615fa507591c36c16efb17c78fdd443ecbd38dee49d8fbf046fdfab7af64bd156759a3015f1a30c768f915c58ddf463cc9d18fec4bdaf9f244fff8b5ad66bf17655ba1035d1832c56af71bcb83d14832c7df81e245d4f7fc4af1f6bba368b1196b55af0d53163ccb64f519c981d34a30c5dd83e047d6f5fe48f3f4b9a16ab31b6957ad0f51143ec966f31fcf87d54c36c3db85e641d0f3f84ef5f2bfa76cb51d6f51ab09571238cf60f11dcd85d74e34c1d987e443d2f1fa4cf7f0bda56eb71f6d53a90b55103acd62ff13c38bd9403acfd789ea4ddcfff442f9feb3ab60b911635da7055b1e34c36cfd11c189db4238cdd58be84fdefdf640fbfcb1a962bb13615fa507591c36c16efb17c78fdd443ecbd38dee49d8fbf046fdfab7af64bd156759a3015f1a30c768f915c58ddf463cc9d18fec4bdaf9f244fff8b5ad66bf17655ba1035d1832c56af71bcb83d14832c7df81e245d4f7fc4af1f6bba368b1196b55af0d53163ccb64f519c981d34a30c5dd83e047d6f5fe48f3f4b9a16ab31b6957ad0f51143ec966f31fcf87d54c36c3db85e641d0f3f84ef5f2bfa76cb51d6f51ab09571238cf60f11dcd85d74e34c1d987e443d2f1fa4cf7f0bda56eb71f6d53a90b55103acd62ff13c38bd9403acfd789ea4ddcfff442f9feb3ab60b911635da7055b1e34c36cfd11c189db4238cdd58be84fdefdf640fbfcb1a962bb13615fa507591c36c16efb17c78fdd443ecbd38dee49d8fbf046fdfab7af64bd156759a3015f1a30c768f915c58ddf463cc9d18fec4bdaf9f244fff8b5ad66bf17655ba1035d1832c56af71bcb83d14832c7df81e245d4f7fc4af1f6bba368b1196b55af0d53163ccb64f519c981d34a30c5dd83e047d6f5fe48f3f4b9a16ab31b6957ad0f51143ec966f31fcf87d54c36c3db85e641d0f3f84ef5f2bfa76cb51d6f51ab09571238cf60f11dcd85d74e34c1d987e443d2f1fa4cf7f0bda56eb71f6d53a90b55103acd62ff13c38bd9403acfd789ea4ddcfff442f9feb3ab60b911635da7055b1e34c36cfd11c189db4238cdd58be84fdefdf640fbfcb1a962bb13615fa507591c36c16efb17c78fdd443ecbd38dee49d8fbf046fdfab7af64bd156759a3015f1a30c768f915c58ddf463cc9d18fec4bdaf9f244fff8b5ad66bf17655ba1035d1832c56af71bcb83d14832c7df81e245d4f7fc4af1f6bba368b1196b55af0d53163ccb64f519c981d34a30c5dd83e047d6f5fe48f3f4b9a16ab31b6957ad0f51143ec966f31fcf87d54c36c3db85e641d0f3f84ef5f2bfa76cb51d6f51ab09571238cf60f11dcd85d74e34c1d987e443d2f1fa4cf7f0bda56eb71f6d53a90b55103acd62ff13c38bd9403acfd789ea4ddcfff442f9feb3ab60b911635da7055b1e34c36cfd11c189db4238cdd58be84fdefdf640fbfcb1a962bb13615fa507591c36c16efb17c78fdd443ecbd38dee49d8fbf046fdfab7af64bd156759a3015f1a30c768f915c58ddf463cc9d18fec4bdaf9f244fff8b5ad66bf17655ba1035d1832c56af71bcb83d14832c7df81e245d4f7fc4af350e9a95cb878b82f28b48af38e04b0aec241855458ed3d9f073eee3e03985e8",
        "type": "nulldata"
      }
    },
    {
      "value": 499979.662,
      "n": 1,
      "scriptPubKey": {
        "asm": "1 bfe5012f559ab8ec1c2e5360912ff33ee074d6e41cc536bc96339893e275ea68",
        "hex": "5120bfe5012f559ab8ec1c2e5360912ff33ee074d6e41cc536bc96339893e275ea68",
        "reqSigs": 1,
        "type": "witness_v1_scripthash",
        "addresses": [
          "3QJmnh"
        ]
      }
    }
  ],
  "blockhash": "443ef5589806c3570db60b1178f56898637f167918ce0f0236a27ac7d0512dc1",
  "confirmations": 1,
  "time": 1764179461,
  "blocktime": 1764179461
}