{
  "hex": "010000000001013475e8eb1fb51b18a75e292e98ca7e9db8619e15d3069ef4053291d3bd742e180000000000feffffff0200e1f50500000000fdd5046a20dff6c09912a58925dd9b8d3cf09e4264c84fc716471d97ee627ca7b3b66ca5584db004cf9f411f66721526731488dac40b1cbbc4144bc2338504900f87b5783651c346efbf613f465235065334a8fae42b3c9be4346be213a524b02fa795581671e3668fdf015f263255663354c89a844b5cfb84540b8273c544d04fc7f53876118306afff217f061275461374e8baa46b7cdba4742ba253e564f06fe7d5185631a3264f1fc19fe6f295a6f394085a448b9c3b4494cb42b30584108f0735f8b6d143c66f3fe1bfc6d2b586d3b4287a64abbc1b64b4eb629325a430af2715d896f163e60f5f81dfa6b2d5e6b3d4481a04cbdc7b04d48b02f345c450cf4775b8f69103862f7fa1ff8692f5c693f4683a24ebfc5b24f4ab22d365e470ef675598d6b123a6cf9f411f66721526731488dac40b1cbbc4144bc2338504900f87b5783651c346efbf613f465235065334a8fae42b3c9be4346be213a524b02fa795581671e3668fdf015f263255663354c89a844b5cfb84540b8273c544d04fc7f53876118306afff217f061275461374e8baa46b7cdba4742ba253e564f06fe7d5185631a3264f1fc19fe6f295a6f394085a448b9c3b4494cb42b30584108f0735f8b6d143c66f3fe1bfc6d2b586d3b4287a64abbc1b64b4eb629325a430af2715d896f163e60f5f81dfa6b2d5e6b3d4481a04cbdc7b04d48b02f345c450cf4775b8f69103862f7fa1ff8692f5c693f4683a24ebfc5b24f4ab22d365e470ef675598d6b123a6cf9f411f66721526731488dac40b1cbbc4144bc2338504900f87b5783651c346efbf613f465235065334a8fae42b3c9be4346be213a524b02fa795581671e3668fdf015f263255663354c89a844b5cfb84540b8273c544d04fc7f53876118306afff217f061275461374e8baa46b7cdba4742ba253e564f06fe7d5185631a3264f1fc19fe6f295a6f394085a448b9c3b4494cb42b30584108f0735f8b6d143c66f3fe1bfc6d2b586d3b4287a64abbc1b64b4eb629325a430af2715d896f163e60f5f81dfa6b2d5e6b3d4481a04cbdc7b04d48b02f345c450cf4775b8f69103862f7fa1ff8692f5c693f4683a24ebfc5b24f4ab22d365e470ef675598d6b123a6cf9f411f66721526731488dac40b1cbbc4144bc2338504900f87b5783651c346efbf613f465235065334a8fae42b3c9be4346be213a524b02fa795581671e3668fdf015f263255663354c89a844b5cfb84540b8273c544d04fc7f53876118306afff217f061275461374e8baa46b7cdba4742ba253e564f06fe7d5185631a3264f1fc19fe6f295a6f394085a448b9c3b4494cb42b30584108f0735f8b6d143c66f3fe1bfc6d2b586d3b4287a64abbc1b64b4eb629325a430af2715d896f163e60f5f81dfa6b2d5e6b3d4481a04cbdc7b04d48b02f345c450cf4775b8f69103862f7fa1ff8692f5c693f4683a24ebfc5b24f4ab22d365e470ef675598d6b123a6cf9f411f66721526731488dac40b1cbbc4144bc2338504900f87b5783651c346efbf613f465235065334a8fae42b3c9be4346be213a524b02fa795581671e3668fdf015f263255663354c89a844b5cfb84540b8273c544d04fc7f53876118306afff217f061275461374e8baa46b7cdba4742ba253e564f06fe7d5185631a3264f1fc19fe6f295a6f394085a448b9c3bb7d8c0d449b29756161c85f7de9a0404a806c41c1e56fbdf14dfb745dd73830cf020b051792d0000225120a6abfac32e5ad0f133d268c5529e4cd139d0beab105b44b8a02729233b1005e902fd7509d7940debe4ecd39d100cf376e3ac5bbf87b3351fdcf268b539801cb3ea22d9966d8759b24e09905178b279197fb5f5db322a41dedddfb51f6f9782f17ca43f6b62d7a28644e345a2684e1e81a46c034a586127a367134120e67a268623ab1758571942f0b9cb95841bb24c8dd45f449fae2ae58623e7a40db26000a7e198ed8c93a6b415655c30be8f480e84d6df574cd05de4b872037640f02649a0b5ed729b73267a915b90cf736f69dcb2624fe2292418ee89af5f1f3b66b05d1512c0154c85ff6541d278b2605979ebc1f442c3db1c937a58b4153e3af3092d2b38bb77998619edc703cf96dd00c88b7cd7cc7ed297c9639f86de3dfc24daa5ed07a4fa0c6926281ae0cf903ee7f6e1abc2d53d80eedc609cab4f3335983f3244949a9c44e3340a0405a7e4a088d20ba1a1c23105d62ab80ed908e33e7911687469cd5e715cecd899b720150d88eb1a64b550a0bf97818832722a928256214d5e977e97f63f361dd487c1061ee69f7a8fa919bc5e4f67c32c242e067c3d574eba328e72a47f2d705edff05979cd8e4e81adddef396f065499f6e7d00361ea421d7998cb0aef7cc6f0e18ae6f87f5429f6de62480d492ac0ec97595ebcc37561df907973efe1cb856bdf82d2b3ba121ae700db8e2b329c042fea5f6d16b610a2ca613b26d52c453fe193018231de2c837c32e7625974e689c26e87e91d0774c0e1d95057ff4155c0c0e3ed0092d9086b5a040c02213d5cac9b67f871a49b4171122adccddb97da78f4b8583d5e174ad122cfb52f537db2e2f38fca893286947357fb1015787f137d31530c786e111ba6dfd98037ad0fd124f406ca87c4b387d3342fb9aa19ab798cb6efbd9d75e995fcab72134c2c35a24a63fb9c55c658ab56dc79852e850c68c4fe4111b5b3a077f051af15a886f103252ffd1ecaf548d2ec2ec5574acb84fa5eb67bb39a9833974a4ed767bbcdab971cf0e2f21f1b0e2b1b32ee6a48f6ac1a765ffd05491c1b7c3c2d220f3bf66c481828d0b883bd06456cc836ec01988f70473e7cfd64ee664fd3ca17e4c1ce4897381fbf33863cc976c5a6f888389970506a3c386b46cbef11540d07df56ccf077017626f1bd567037b034978224d1e713a9d7de7e246bb08813941c34c93798d896b07cacb9909fa991b349ddbf842e09e6a58785f7c49bb7c8f334775bd3deb0f0b7c1427fed1b80ae22b87ed9aaca19297e0f878d45b476f25c1e45ab89a672ad10c7f01c238078d711ea92bc7c01ce9cbf995867577253bfe57adbee33bc0d9bec7dc9e84a47f887a26102e884485fcb72ccc089488a938cf8535065e2cdfe153a530dc7d3cc0b44524c546df21d2bbce2a94657d11117e9cab6287c475d1016ed3806bfdfcbb263d0ecb53d64d9ed2f64ebbab0d20c3428b1310dec11fab7844feefb473bfb2ff63e9942e444866fbccb98ac1d12f1dd714a6d68de3408390eabb5f370120f24df1dfe02b2b029e3dd2071e541d41f85b7931c4b5433ebbea9386b1c6db587a279c3aa3c44d63d9cbd39638dbf9344900086d57c0944dd915f525509145c2dc7d9cbdecc41e1fab983c47b3c64d19cc3381121496099d2f3ddc284332657bb263e7765a836b54be8c83a2d17706a99676c30da162ab9c1f685765ec6b488d49bcdf88221a03f02d8b18c7d9a9b86387bd7b938f97939a7454b5e7a98469f25f5b262250a00de2f328ce3ef45530a4a9d8b8c4bb88d9549723f8a6f7c6929c883d44530e4a4c7078286d7cdbcc35732ab30c73ca1518bdd2b07f3b2f90b79f3702c105cbcb6e31bf140de5baaf5d4e85d97de4028c09f7151a5ec595d7d3394ec2f2e280899578e40f1dffe2a8766e0a5fbce10b9ffb47f5b517da56b224570e69ad6c05f580f2a281139fd80a9c4ec40215c6fcd85859b9cfbf4823c22f0fcb901b378d23040528e6cb35010fc02ab8e5c6adcf4d94e22a0e40fb447edc830055b4967bd633564cb56d91aefcc99c389d6b3afc03e57dd385d97e30ac900922ed003945f57901a452a85df920a4052eb5af63fa0b659b3b690a7a8d78326a5edaa32f389e6387cd039ab0140382dfde41bebfc80815947d76aec35eb25d9ef74326fa66d41082f646c89a83932f98d9215b847dc3fc61104a8a993869d5956a4aaa250624d8ac2e5c48ca698e84893961b03541168eecbcdb6a7dcb71d24d6a1fd81a51fa29c6199f2fec1f16294c2cfb0516213a093f21c495c42d2053ad6f73bb174013b3d6d6de9e7c581830168c0aaa37c4eb9870985e2d09216efaf456498306d29777a1f0c7b1bc0a5095b53c1a378c827071a429f5e204488f3063864fd45be0626e0db2d2b859148389730e71c72f94380f66c31bc3cf7e581aacb493136dd0e6810153af7efeb202d0751a064422db7f5a0c2e977fe4ce1c4f638b3f0f93e5da9db48d7b8cfbfa55aa5cdd7401a6a51e3a2248372def42bbf5820d651700a9e761dccacef1cf02d145c6319f29d2f03556958cf14dcf91b2d68eed0c6e55f39d869c07fd6491f0c71a2e5523618d52edb94ebc1e8d95ad0b54a5315189f6eecdf7635b96ebdf10634f8c73f557c4558ae3c40ba5310266f2c59b392ec9ffe8a0110fe9df5e8df524a830133784c23bd1cd28261ce998c50f4e1c580fae284a30a006ee7cd52aa973b5e0cff92be32b79c8c0857b3231fc7c16feb2e53f7a3eb24639217c257f94c85ae561227f319ce605810d687ff757186187d002917002bced348144c3b04db2578286df96b759a97d4376b14cf01b08e28457af3fb5bf26730d4354c0096628359731fd8669b6e6dd5cbd7ab7fa3a73d0e344b41707609c7f0d02c8b73d13ec6350c02bffc18ff3088ff5bb8476ea312ab00545917ec18fa2127b206b3b2ba96cf7d60f9eac93ac6a58ed85d4b5b3cbf441dd511ec20833bd33ba18f9e463638e52bf4c49e18cf6078b6090a17bad39f095c8e49297d8f1fb5223552ce164f457afbe048814d90e73d32900de4524c0d30ed3e9d0ff666d07033071b53453553697f3e1ee3595c25b2688b45752e30e586e8e779a36a3188b17bee3031febd6177003b00b2ff0b467a2c25eea258a7081041ebb6234f8e97dafa574b57f2ebcc67570fffec8c4c449b8f3dd017b8d292f301d53eb9e9a21af805f5a51a71bc43954ee434bb579642fa7c06673555ce19189a8d7e1811ae0c9a5b987be3119967c4ba12db166edceea256356adb0ac80c90522037796de0ebb777a18f2a0265af66b94b504e5273f54c442805bb5c2c736f76eba2a6fed892da11154a61717a7c9193969da9b1c2dee34b5d62708991959b9da1acaeafd8e8ea38393a4344626791a6e6071c327e8693a5bcc3e3ea00000000000000000000000000000000000000000000000000000010202a3501fd210500bc3b6654bde8d38e31ca40de73ae65014b9c4525c127a368d337a851e8360b7e452b35d9db1a643f5ae93ffa956a61501fd1c25e0d6b97b259ceb7724febade9f19bfbf423378764b8d6234a5c1ce16b310cb867de1dd0431e9b255bd2fb77d869036094a5fbc0d5c0a97d7bc710c3f5c22206d4a72e405921dd1c222390ba00a2e0c124719e98cb57649b364710b62fbc190ba20ef4e9451c940d5f931a89076fedacd5af9ca687c260da3a7d2afeb12b561c202e3dee50f8c25f4337fb651200a5244b5ad7f7e56a1105bce90364e9e9ecad4b859970a8732f9cef084e9b98d67ed542eaf0efcfd1a7eb0087900373bc5ffd39fb6140ec227e7799ebaa4b7a0f243a91c29669585ec1bbb0bf211dad164596059f3e1c0a8a80b424d3178593285b2b9e2caa0290ade0501680f142753c7383fc268e3a92afbd013298311032b5c5dc237c01303945f314236f27290521e57de3d47087f371313898ea8dcd6cf3a3a5098cde2a3db12214e2dde9a4d0365ca6204bfab0c924ea15e953c216a13b3451efbde864efb9d66ecbb9e9fe8ad525fa0bb1f7fb29b8974c3d0b3c5116e434dbcc3f5a497f624f88a0e6b649b0643b096e3648c3567222afcd8585080d12a9564fab582d31b5f8ab116ff4cfe9aa26c874bf5fde15ae22f35f22b6a79a5c6a0933d7a3e4f905e3763a98705ee69e10e7c15b09b06caf47bfc2d1f4a22cb087681829e719c79f5da79cb0014be189a3122b4d3b850829c717fb4605b6f8360bde5529435fbb6908f984bf35d6e4d1b794771708655f1085dcc8bc6b28022b75ab30e90704e070ff94e64e2a5acac0348f97a14dfa6880bec4bf43849764382c5aa4275c8e9d220de6eed2922bedf064a042764ebbde3871547daf7e961adc0dd7509d3ca85b37404df2495787fe8205827a335e08219c1b4583bf646a7719197045c0a37baea2ff5fb13d3e5eb214e969f6fddc5d89e02b709dd381ffec91dc86cb2faea5ef857e42e3044a743678d1fd56469360ec3e2d0a7d0a7a863ff6867356fb037a5a3d9b7b1b6d33b8fb3bd89f5eec818f63e2895394bf21792dcfef68977e479e0dd4a9e09e622b0351b713059eeb30d286f3132b3a85816871a3564b43df05362101f4d90eb83cabd96a81d0d0c314eb567a4fce56d6579bd0053c1511d5d6b99ac5c025c0304c0c082156a56b3533fbc2abd1c5628b68c00988b953272a2809feac5633acf6c302c67d476d80aaa899643d3c587e549f2a807820ff99795faa3d430fb17b2e68211e968338f9d16dd6dac1bca5d270cd9590daadce6dde08ba5c1e6658a8fda3566fdea7656ac2e5be488843747c2a4b685278e0a9fb184d0030111dfe01b784b8e58400ae957f669073ef31efe9e04b69af045fb16ebd24816078987efb58e16e84eb6501d49f70f5b9f3ec83a75878b5ee66d3b85bbd0492685ba8ce14ba77f43e9694a7f818364322b71a16a6734aa727a234165e9a726af4e9dbbf47ec4af33535c1da9202db165fd498a9ace258f173418fa2494b8c90755bab36b934718d21dae96091d476eeb4559987cd17c7d26ee3778aac73e661680a288cb6b520094f9eebf091b96fe7b01a0a09655db0c25a3ac29e0ba0ffb6f786b72f0c07ccbdc79fe62e88ef63869cb75726a23062d59e115f89094e1178cb16f41d4aa08edfcc0998d0c83f1cc5cac90586bdf88e8a2447d7db70644b1192e22534ee70dfd7b009ae231cb5aef62c8d4fe147459d238ef0067fc49f8955ef0537a21838c60ee003eea3c16d78577e1e12f355be6811b9db722db0e3bef638e1ab740978fbe835bdd3707d0db7b035f837a1a4ee3674ed53000000",
  "txid": "015ae6fc8007c216fe8c7b929ae4445bfbabbfb413ac6435c8084b0334b16a7c",
  "hash": "448b30936ee259d769e760608f74dede8b46e25364e73f2e14d32adfc44e9a45",
  "size": 5085,
  "vsize": 2278,
  "version": 1,
  "locktime": 83,
  "vin": [
    {
      "txid": "182e74bdd3913205f49e06d3159e61b89d7eca982e295ea7181bb51febe87534",
      "vout": 0,
      "scriptSig": {
        "asm": "",
        "hex": ""
      },
      "txinwitness": [
        "d7940debe4ecd39d100cf376e3ac5bbf87b3351fdcf268b539801cb3ea22d9966d8759b24e09905178b279197fb5f5db322a41dedddfb51f6f9782f17ca43f6b62d7a28644e345a2684e1e81a46c034a586127a367134120e67a268623ab1758571942f0b9cb95841bb24c8dd45f449fae2ae58623e7a40db26000a7e198ed8c93a6b415655c30be8f480e84d6df574cd05de4b872037640f02649a0b5ed729b73267a915b90cf736f69dcb2624fe2292418ee89af5f1f3b66b05d1512c0154c85ff6541d278b2605979ebc1f442c3db1c937a58b4153e3af3092d2b38bb77998619edc703cf96dd00c88b7cd7cc7ed297c9639f86de3dfc24daa5ed07a4fa0c6926281ae0cf903ee7f6e1abc2d53d80eedc609cab4f3335983f3244949a9c44e3340a0405a7e4a088d20ba1a1c23105d62ab80ed908e33e7911687469cd5e715cecd899b720150d88eb1a64b550a0bf97818832722a928256214d5e977e97f63f361dd487c1061ee69f7a8fa919bc5e4f67c32c242e067c3d574eba328e72a47f2d705edff05979cd8e4e81adddef396f065499f6e7d00361ea421d7998cb0aef7cc6f0e18ae6f87f5429f6de62480d492ac0ec97595ebcc37561df907973efe1cb856bdf82d2b3ba121ae700db8e2b329c042fea5f6d16b610a2ca613b26d52c453fe193018231de2c837c32e7625974e689c26e87e91d0774c0e1d95057ff4155c0c0e3ed0092d9086b5a040c02213d5cac9b67f871a49b4171122adccddb97da78f4b8583d5e174ad122cfb52f537db2e2f38fca893286947357fb1015787f137d31530c786e111ba6dfd98037ad0fd124f406ca87c4b387d3342fb9aa19ab798cb6efbd9d75e995fcab72134c2c35a24a63fb9c55c658ab56dc79852e850c68c4fe4111b5b3a077f051af15a886f103252ffd1ecaf548d2ec2ec5574acb84fa5eb67bb39a9833974a4ed767bbcdab971cf0e2f21f1b0e2b1b32ee6a48f6ac1a765ffd05491c1b7c3c2d220f3bf66c481828d0b883bd06456cc836ec01988f70473e7cfd64ee664fd3ca17e4c1ce4897381fbf33863cc976c5a6f888389970506a3c386b46cbef11540d07df56ccf077017626f1bd567037b034978224d1e713a9d7de7e246bb08813941c34c93798d896b07cacb9909fa991b349ddbf842e09e6a58785f7c49bb7c8f334775bd3deb0f0b7c1427fed1b80ae22b87ed9aaca19297e0f878d45b476f25c1e45ab89a672ad10c7f01c238078d711ea92bc7c01ce9cbf995867577253bfe57adbee33bc0d9bec7dc9e84a47f887a26102e884485fcb72ccc089488a938cf8535065e2cdfe153a530dc7d3cc0b44524c546df21d2bbce2a94657d11117e9cab6287c475d1016ed3806bfdfcbb263d0ecb53d64d9ed2f64ebbab0d20c3428b1310dec11fab7844feefb473bfb2ff63e9942e444866fbccb98ac1d12f1dd714a6d68de3408390eabb5f370120f24df1dfe02b2b029e3dd2071e541d41f85b7931c4b5433ebbea9386b1c6db587a279c3aa3c44d63d9cbd39638dbf9344900086d57c0944dd915f525509145c2dc7d9cbdecc41e1fab983c47b3c64d19cc3381121496099d2f3ddc284332657bb263e7765a836b54be8c83a2d17706a99676c30da162ab9c1f685765ec6b488d49bcdf88221a03f02d8b18c7d9a9b86387bd7b938f97939a7454b5e7a98469f25f5b262250a00de2f328ce3ef45530a4a9d8b8c4bb88d9549723f8a6f7c6929c883d44530e4a4c7078286d7cdbcc35732ab30c73ca1518bdd2b07f3b2f90b79f3702c105cbcb6e31bf140de5baaf5d4e85d97de4028c09f7151a5ec595d7d3394ec2f2e280899578e40f1dffe2a8766e0a5fbce10b9ffb47f5b517da56b224570e69ad6c05f580f2a281139fd80a9c4ec40215c6fcd85859b9cfbf4823c22f0fcb901b378d23040528e6cb35010fc02ab8e5c6adcf4d94e22a0e40fb447edc830055b4967bd633564cb56d91aefcc99c389d6b3afc03e57dd385d97e30ac900922ed003945f57901a452a85df920a4052eb5af63fa0b659b3b690a7a8d78326a5edaa32f389e6387cd039ab0140382dfde41bebfc80815947d76aec35eb25d9ef74326fa66d41082f646c89a83932f98d9215b847dc3fc61104a8a993869d5956a4aaa250624d8ac2e5c48ca698e84893961b03541168eecbcdb6a7dcb71d24d6a1fd81a51fa29c6199f2fec1f16294c2cfb0516213a093f21c495c42d2053ad6f73bb174013b3d6d6de9e7c581830168c0aaa37c4eb9870985e2d09216efaf456498306d29777a1f0c7b1bc0a5095b53c1a378c827071a429f5e204488f3063864fd45be0626e0db2d2b859148389730e71c72f94380f66c31bc3cf7e581aacb493136dd0e6810153af7efeb202d0751a064422db7f5a0c2e977fe4ce1c4f638b3f0f93e5da9db48d7b8cfbfa55aa5cdd7401a6a51e3a2248372def42bbf5820d651700a9e761dccacef1cf02d145c6319f29d2f03556958cf14dcf91b2d68eed0c6e55f39d869c07fd6491f0c71a2e5523618d52edb94ebc1e8d95ad0b54a5315189f6eecdf7635b96ebdf10634f8c73f557c4558ae3c40ba5310266f2c59b392ec9ffe8a0110fe9df5e8df524a830133784c23bd1cd28261ce998c50f4e1c580fae284a30a006ee7cd52aa973b5e0cff92be32b79c8c0857b3231fc7c16feb2e53f7a3eb24639217c257f94c85ae561227f319ce605810d687ff757186187d002917002bced348144c3b04db2578286df96b759a97d4376b14cf01b08e28457af3fb5bf26730d4354c0096628359731fd8669b6e6dd5cbd7ab7fa3a73d0e344b41707609c7f0d02c8b73d13ec6350c02bffc18ff3088ff5bb8476ea312ab00545917ec18fa2127b206b3b2ba96cf7d60f9eac93ac6a58ed85d4b5b3cbf441dd511ec20833bd33ba18f9e463638e52bf4c49e18cf6078b6090a17bad39f095c8e49297d8f1fb5223552ce164f457afbe048814d90e73d32900de4524c0d30ed3e9d0ff666d07033071b53453553697f3e1ee3595c25b2688b45752e30e586e8e779a36a3188b17bee3031febd6177003b00b2ff0b467a2c25eea258a7081041ebb6234f8e97dafa574b57f2ebcc67570fffec8c4c449b8f3dd017b8d292f301d53eb9e9a21af805f5a51a71bc43954ee434bb579642fa7c06673555ce19189a8d7e1811ae0c9a5b987be3119967c4ba12db166edceea256356adb0ac80c90522037796de0ebb777a18f2a0265af66b94b504e5273f54c442805bb5c2c736f76eba2a6fed892da11154a61717a7c9193969da9b1c2dee34b5d62708991959b9da1acaeafd8e8ea38393a4344626791a6e6071c327e8693a5bcc3e3ea00000000000000000000000000000000000000000000000000000010202a3501",
        "00bc3b6654bde8d38e31ca40de73ae65014b9c4525c127a368d337a851e8360b7e452b35d9db1a643f5ae93ffa956a61501fd1c25e0d6b97b259ceb7724febade9f19bfbf423378764b8d6234a5c1ce16b310cb867de1dd0431e9b255bd2fb77d869036094a5fbc0d5c0a97d7bc710c3f5c22206d4a72e405921dd1c222390ba00a2e0c124719e98cb57649b364710b62fbc190ba20ef4e9451c940d5f931a89076fedacd5af9ca687c260da3a7d2afeb12b561c202e3dee50f8c25f4337fb651200a5244b5ad7f7e56a1105bce90364e9e9ecad4b859970a8732f9cef084e9b98d67ed542eaf0efcfd1a7eb0087900373bc5ffd39fb6140ec227e7799ebaa4b7a0f243a91c29669585ec1bbb0bf211dad164596059f3e1c0a8a80b424d3178593285b2b9e2caa0290ade0501680f142753c7383fc268e3a92afbd013298311032b5c5dc237c01303945f314236f27290521e57de3d47087f371313898ea8dcd6cf3a3a5098cde2a3db12214e2dde9a4d0365ca6204bfab0c924ea15e953c216a13b3451efbde864efb9d66ecbb9e9fe8ad525fa0bb1f7fb29b8974c3d0b3c5116e434dbcc3f5a497f624f88a0e6b649b0643b096e3648c3567222afcd8585080d12a9564fab582d31b5f8ab116ff4cfe9aa26c874bf5fde15ae22f35f22b6a79a5c6a0933d7a3e4f905e3763a98705ee69e10e7c15b09b06caf47bfc2d1f4a22cb087681829e719c79f5da79cb0014be189a3122b4d3b850829c717fb4605b6f8360bde5529435fbb6908f984bf35d6e4d1b794771708655f1085dcc8bc6b28022b75ab30e90704e070ff94e64e2a5acac0348f97a14dfa6880bec4bf43849764382c5aa4275c8e9d220de6eed2922bedf064a042764ebbde3871547daf7e961adc0dd7509d3ca85b37404df2495787fe8205827a335e08219c1b4583bf646a7719197045c0a37baea2ff5fb13d3e5eb214e969f6fddc5d89e02b709dd381ffec91dc86cb2faea5ef857e42e3044a743678d1fd56469360ec3e2d0a7d0a7a863ff6867356fb037a5a3d9b7b1b6d33b8fb3bd89f5eec818f63e2895394bf21792dcfef68977e479e0dd4a9e09e622b0351b713059eeb30d286f3132b3a85816871a3564b43df05362101f4d90eb83cabd96a81d0d0c314eb567a4fce56d6579bd0053c1511d5d6b99ac5c025c0304c0c082156a56b3533fbc2abd1c5628b68c00988b953272a2809feac5633acf6c302c67d476d80aaa899643d3c587e549f2a807820ff99795faa3d430fb17b2e68211e968338f9d16dd6dac1bca5d270cd9590daadce6dde08ba5c1e6658a8fda3566fdea7656ac2e5be488843747c2a4b685278e0a9fb184d0030111dfe01b784b8e58400ae957f669073ef31efe9e04b69af045fb16ebd24816078987efb58e16e84eb6501d49f70f5b9f3ec83a75878b5ee66d3b85bbd0492685ba8ce14ba77f43e9694a7f818364322b71a16a6734aa727a234165e9a726af4e9dbbf47ec4af33535c1da9202db165fd498a9ace258f173418fa2494b8c90755bab36b934718d21dae96091d476eeb4559987cd17c7d26ee3778aac73e661680a288cb6b520094f9eebf091b96fe7b01a0a09655db0c25a3ac29e0ba0ffb6f786b72f0c07ccbdc79fe62e88ef63869cb75726a23062d59e115f89094e1178cb16f41d4aa08edfcc0998d0c83f1cc5cac90586bdf88e8a2447d7db70644b1192e22534ee70dfd7b009ae231cb5aef62c8d4fe147459d238ef0067fc49f8955ef0537a21838c60ee003eea3c16d78577e1e12f355be6811b9db722db0e3bef638e1ab740978fbe835bdd3707d0db7b035f837a1a4ee3674ed"
      ],
      "sequence": 4294967294
    }
  ],
  "vout": [
    {
      "value": 1.0,
      "n": 0,
      "scriptPubKey": {
        "asm": "OP_RETURN dff6c09912a58925dd9b8d3cf09e4264c84fc716471d97ee627ca7b3b66ca558 cf9f411f66721526731488dac40b1cbbc4144bc2338504900f87b5783651c346efbf613f465235065334a8fae42b3c9be4346be213a524b02fa795581671e3668fdf015f263255663354c89a844b5cfb84540b8273c544d04fc7f53876118306afff217f061275461374e8baa46b7cdba4742ba253e564f06fe7d5185631a3264f1fc19fe6f295a6f394085a448b9c3b4494cb42b30584108f0735f8b6d143c66f3fe1bfc6d2b586d3b4287a64abbc1b64b4eb629325a430af2715d896f163e60f5f81dfa6b2d5e6b3d4481a04cbdc7b04d48b02f345c450cf4775b8f69103862f7fa1ff8692f5c693f4683a24ebfc5b24f4ab22d365e470ef675598d6b123a6cf9f411f66721526731488dac40b1cbbc4144bc2338504900f87b5783651c346efbf613f465235065334a8fae42b3c9be4346be213a524b02fa795581671e3668fdf015f263255663354c89a844b5cfb84540b8273c544d04fc7f53876118306afff217f061275461374e8baa46b7cdba4742ba253e564f06fe7d5185631a3264f1fc19fe6f295a6f394085a448b9c3b4494cb42b30584108f0735f8b6d143c66f3fe1bfc6d2b586d3b4287a64abbc1b64b4eb629325a430af2715d896f163e60f5f81dfa6b2d5e6b3d4481a04cbdc7b04d48b02f345c450cf4775b8f69103862f7fa1ff8692f5c693f4683a24ebfc5b24f4ab22d365e470ef675598d6b123a6cf9f411f66721526731488dac40b1cbbc4144bc2338504900f87b5783651c346efbf613f465235065334a8fae42b3c9be4346be213a524b02fa795581671e3668fdf015f263255663354c89a844b5cfb84540b8273c544d04fc7f53876118306afff217f061275461374e8baa46b7cdba4742ba253e564f06fe7d5185631a3264f1fc19fe6f295a6f394085a448b9c3b4494cb42b30584108f0735f8b6d143c66f3fe1bfc6d2b586d3b4287a64abbc1b64b4eb629325a430af2715d896f163e60f5f81dfa6b2d5e6b3d4481a04cbdc7b04d48b02f345c450cf4775b8f69103862f7fa1ff8692f5c693f4683a24ebfc5b24f4ab22d365e470ef675598d6b123a6cf9f411f66721526731488dac40b1cbbc4144bc2338504900f87b5783651c346efbf613f465235065334a8fae42b3c9be4346be213a524b02fa795581671e3668fdf015f263255663354c89a844b5cfb84540b8273c544d04fc7f53876118306afff217f061275461374e8baa46b7cdba4742ba253e564f06fe7d5185631a3264f1fc19fe6f295a6f394085a448b9c3b4494cb42b30584108f0735f8b6d143c66f3fe1bfc6d2b586d3b4287a64abbc1b64b4eb629325a430af2715d896f163e60f5f81dfa6b2d5e6b3d4481a04cbdc7b04d48b02f345c450cf4775b8f69103862f7fa1ff8692f5c693f4683a24ebfc5b24f4ab22d365e470ef675598d6b123a6cf9f411f66721526731488dac40b1cbbc4144bc2338504900f87b5783651c346efbf613f465235065334a8fae42b3c9be4346be213a524b02fa795581671e3668fdf015f263255663354c89a844b5cfb84540b8273c544d04fc7f53876118306afff217f061275461374e8baa46b7cdba4742ba253e564f06fe7d5185631a3264f1fc19fe6f295a6f394085a448b9c3bb7d8c0d449b29756161c85f7de9a0404a806c41c1e56fbdf14dfb745dd73830c",
        "hex": "6a20dff6c09912a58925dd9b8d3cf09e4264c84fc716471d97ee627ca7b3b66ca5584db004cf9f411f66721526731488dac40b1cbbc4144bc2338504900f87b5783651c346efbf613f465235065334a8fae42b3c9be4346be213a524b02fa795581671e3668fdf015f263255663354c89a844b5cfb84540b8273c544d04fc7f53876118306afff217f061275461374e8baa46b7cdba4742ba253e564f06fe7d5185631a3264f1fc19fe6f295a6f394085a448b9c3b4494cb42b30584108f0735f8b6d143c66f3fe1bfc6d2b586d3b4287a64abbc1b64b4eb629325a430af2715d896f163e60f5f81dfa6b2d5e6b3d4481a04cbdc7b04d48b02f345c450cf4775b8f69103862f7fa1ff8692f5c693f4683a24ebfc5b24f4ab22d365e470ef675598d6b123a6cf9f411f66721526731488dac40b1cbbc4144bc2338504900f87b5783651c346efbf613f465235065334a8fae42b3c9be4346be213a524b02fa795581671e3668fdf015f263255663354c89a844b5cfb84540b8273c544d04fc7f53876118306afff217f061275461374e8baa46b7cdba4742ba253e564f06fe7d5185631a3264f1fc19fe6f295a6f394085a448b9c3b4494cb42b30584108f0735f8b6d143c66f3fe1bfc6d2b586d3b4287a64abbc1b64b4eb629325a430af2715d896f163e60f5f81dfa6b2d5e6b3d4481a04cbdc7b04d48b02f345c450cf4775b8f69103862f7fa1ff8692f5c693f4683a24ebfc5b24f4ab22d365e470ef675598d6b123a6cf9f411f66721526731488dac40b1cbbc4144bc2338504900f87b5783651c346efbf613f465235065334a8fae42b3c9be4346be213a524b02fa795581671e3668fdf015f263255663354c89a844b5cfb84540b8273c544d04fc7f53876118306afff217f061275461374e8baa46b7cdba4742ba253e564f06fe7d5185631a3264f1fc19fe6f295a6f394085a448b9c3b4494cb42b30584108f0735f8b6d143c66f3fe1bfc6d2b586d3b4287a64abbc1b64b4eb629325a430af2715d896f163e60f5f81dfa6b2d5e6b3d4481a04cbdc7b04d48b02f345c450cf4775b8f69103862f7fa1ff8692f5c693f4683a24ebfc5b24f4ab22d365e470ef675598d6b123a6cf9f411f66721526731488dac40b1cbbc4144bc2338504900f87b5783651c346efbf613f465235065334a8fae42b3c9be4346be213a524b02fa795581671e3668fdf015f263255663354c89a844b5cfb84540b8273c544d04fc7f53876118306afff217f061275461374e8baa46b7cdba4742ba253e564f06fe7d5185631a3264f1fc19fe6f295a6f394085a448b9c3b4494cb42b30584108f0735f8b6d143c66f3fe1bfc6d2b586d3b4287a64abbc1b64b4eb629325a430af2715d896f163e60f5f81dfa6b2d5e6b3d4481a04cbdc7b04d48b02f345c450cf4775b8f69103862f7fa1ff8692f5c693f4683a24ebfc5b24f4ab22d365e470ef675598d6b123a6cf9f411f66721526731488dac40b1cbbc4144bc2338504900f87b5783651c346efbf613f465235065334a8fae42b3c9be4346be213a524b02fa795581671e3668fdf015f263255663354c89a844b5cfb84540b8273c544d04fc7f53876118306afff217f061275461374e8baa46b7cdba4742ba253e564f06fe7d5185631a3264f1fc19fe6f295a6f394085a448b9c3bb7d8c0d449b29756161c85f7de9a0404a806c41c1e56fbdf14dfb745dd73830c",
        "type": "nulldata"
      }
    },
    {
      "value": 499990.8479,
      "n": 1,
      "scriptPubKey": {
        "asm": "1 a6abfac32e5ad0f133d268c5529e4cd139d0beab105b44b8a02729233b1005e9",
        "hex": "5120a6abfac32e5ad0f133d268c5529e4cd139d0beab105b44b8a02729233b1005e9",
        "reqSigs": 1,
        "type": "witness_v1_scripthash",
        "addresses": [
          "3QJmnh"
        ]
      }
    }
  ],
  "blockhash": "70f7ec20af3843e0d144de9ce3637c8baa62723aad58289fd59c71fdb9075fdf",
  "confirmations": 1,
  "time": 1764177228,
  "blocktime": 1764177228
}