{
  "hex": "01000000000101a57c868fb4a77bef9edb877aaa46eae30a8cdcd62250f90b3dcdd9de7b1d17700000000000feffffff02b0cd76d8782d0000225120d584a66677dd0d764290b5a3e8c2b184f5da20837b56ce2f0d6aaea6f3b9720600e1f50500000000fdd5046a2023abdf5a95af499963608e49bb3c83943bca8ab7e9321588da723d979c7560ed4db00438ae5d737c152ad91839bdc698fd661c95c02cb0f193e459bfbea8f471df0b69188e7d535c350af938199de6b8dd463cb5e00c90d1b3c4799f9e88d451ff2b4978ee1d333c556a995879fd86d8bd265cd5806cf0b1d3a419fffee8b4319f4b2958ce3d131c754ab97859dda6f89d067cf5a04cd091f38439dfdec89411bf6b09b82eddf3fc95aa5998b93d46187de69c1540ac30711364d93f3e2874f15f8be9980efdd3dcb58a79b8991d66385dc6bc35608c10513344f91f1e0854d17fabc9f86e9db3bcd5ea19d8f97d06583da6dc5500ec70315324997f7e6834b11fcba9d84ebd939cf5ca39f8d95d26781d86fc7520cc50117304b95f5e4814913feb8938ae5d737c152ad91839bdc698fd661c95c02cb0f193e459bfbea8f471df0b69188e7d535c350af938199de6b8dd463cb5e00c90d1b3c4799f9e88d451ff2b4978ee1d333c556a995879fd86d8bd265cd5806cf0b1d3a419fffee8b4319f4b2958ce3d131c754ab97859dda6f89d067cf5a04cd091f38439dfdec89411bf6b09b82eddf3fc95aa5998b93d46187de69c1540ac30711364d93f3e2874f15f8be9980efdd3dcb58a79b8991d66385dc6bc35608c10513344f91f1e0854d17fabc9f86e9db3bcd5ea19d8f97d06583da6dc5500ec70315324997f7e6834b11fcba9d84ebd939cf5ca39f8d95d26781d86fc7520cc50117304b95f5e4814913feb8938ae5d737c152ad91839bdc698fd661c95c02cb0f193e459bfbea8f471df0b69188e7d535c350af938199de6b8dd463cb5e00c90d1b3c4799f9e88d451ff2b4978ee1d333c556a995879fd86d8bd265cd5806cf0b1d3a419fffee8b4319f4b2958ce3d131c754ab97859dda6f89d067cf5a04cd091f38439dfdec89411bf6b09b82eddf3fc95aa5998b93d46187de69c1540ac30711364d93f3e2874f15f8be9980efdd3dcb58a79b8991d66385dc6bc35608c10513344f91f1e0854d17fabc9f86e9db3bcd5ea19d8f97d06583da6dc5500ec70315324997f7e6834b11fcba9d84ebd939cf5ca39f8d95d26781d86fc7520cc50117304b95f5e4814913feb8938ae5d737c152ad91839bdc698fd661c95c02cb0f193e459bfbea8f471df0b69188e7d535c350af938199de6b8dd463cb5e00c90d1b3c4799f9e88d451ff2b4978ee1d333c556a995879fd86d8bd265cd5806cf0b1d3a419fffee8b4319f4b2958ce3d131c754ab97859dda6f89d067cf5a04cd091f38439dfdec89411bf6b09b82eddf3fc95aa5998b93d46187de69c1540ac30711364d93f3e2874f15f8be9980efdd3dcb58a79b8991d66385dc6bc35608c10513344f91f1e0854d17fabc9f86e9db3bcd5ea19d8f97d06583da6dc5500ec70315324997f7e6834b11fcba9d84ebd939cf5ca39f8d95d26781d86fc7520cc50117304b95f5e4814913feb8938ae5d737c152ad91839bdc698fd661c95c02cb0f193e459bfbea8f471df0b69188e7d535c350af938199de6b8dd463cb5e00c90d1b3c4799f9e88d451ff2b4978ee1d333c556a995879fd86d8bd265cd5806cf0b1d3a419fffee8b4319f4b2958ce3d131c754ab97859dda6f89d067cf5a04cd091f38439dfdec89411bf6b09b82eddf3fc95aa5998b93d46187de69c06d8b4a9b333e2673e2ab084a3abd40851db26768fed753df0db108e802a99b102fd75099699e7670e502d921a4748c21d1026c97a4a573cccff0f746f5c60bf466f1d6678d6f6b602fdbea978e4680d5c379c9cc9e3d3bf0f7483d4e90825b5fcd148f7eac13b417499b37f0f5e94a985997a0d967fab54915f71038e8006b52b29be0428361c20437d78da80d5decb0fdb85a93f743082b644301b5f28e3ead00be68c665bfd832dd9fcc43e29ee11820ea2c01d3714e3399901af2078416e2bc247fa53f6b356065da51a2166fe310a5b9225c88b54b4b1522cc00c40fcbe533df2fcdda1e9def8d6aa6d5d9e92b83e81e310ecda141f112150cf31fbab90514a8eea79cf459cdc19c05759c9c26fea19afbca24e171a808c8c93f96b6e03869c91f466fa2bbdf6e4e4564bf239d3d75e6a9fdea389f4e53a089a1db5cab7ad9c9d9050a865f99a4d869eec2ac8d800bde91395f0463d3bed75c434384c4c4efe2c463f9899a8fb4267721dc45d929a3514624350006f07e69c5060e7ac958b0f9cf6f7af1a69fcb2d5429be32a109f51f232415be6787db3ee721cad37c813da8ff8a6f82579e260ec99288530e35da63fb0c6a67fb16db440d83233a9b9f08c3cfd3a3e5b880e3c176704fd90d717583868eabc6dfbcaad98cb5757c352036a7f95b659e90122e2003648e81117cc03341aaaed73bed55906abd869b8c293e7403a09725063f73b150a5331a6b1d9d97e47be83e23d1abbe59959f84be14193a808b25abb564ee7b50d0a30dc86630d2a9b8be6bb31f75ed012285fe92be06e3d3e7fa4065bbcaaf8b65ff8ba227f98f09da5531b83a3d81f4baa6739530e6ccfbab8a698808de5192422a48b2a82b730bb54d20c216d4b20b5f8366160fcc48772fa9c13b7e027a25b8b6600c2fa903b5d36c12a2d82ed18ff5239245f453b31ae58f41d9aac131077768b565c6f0ce13ae7478d917ed42cea6f25387df7c8e612a1c88225b4744d035fcf5449e86bb8733785fbe46db8a5617d70c782b24ed5be33466ef6eb46f9852a924cedbdcaf2473ca8331b0c45942b03487714e37cd53c1cf95607f8140d8999e2b971e68609e6ad2d90daf2306fecf62e6e560fcaa5f1251ae5129640dc51d6d5c736c6f64cf167d4793730abbc57b976d91e36583eadc258751cb6177648c412c822408bb3626100595f61f9761816aee90a4e129071464907f28b5ddaf82743172150b29bc2724191e421c23e666150b7fddeb21a02c71ff34aa026fe6795656899e686111358da7bcf356e1e291a8c1ff1d1c5f7872a22ace45f82dbedd0075245883ebb839265939aad7487e5657f71a66d351e89d4aa096f51dc711e54494142421b902898a8636836647a988417c574a4f2b7d7f9c36f903f3ad47d33cf3c561ae6918ca74bf3995f37bd93a7540a47462fd1f21953b6782b8704ad70abc8b6a1e60f6e7391f746e43dad0261ceee27aa99b8b9acaba3b29c657411ada10469f8ac51a014c2c5ebe8e3e4baed21f5954f7468ba4f03250c19ebc8fa168d50a61ab11ed20953f01ad530809dfc0b6f34fa857185f1c6a16a96c46ff7374c8c3132ca9715c98229b5bd8587356500407b52a3a9f00488ddddf1a58a1b2d675da175e7ae259a6b9eb817d8f7b2bcd770b4ed0d659de80bb14699c955797b1efb4d02c285b6c214b1b9132d4b1dde328aafa7a5e50ad0bbbd1f0945e1ff696137e9f3ec0e28021ed7b16d9c9dc6ff22ca3a51d257fa86581d0d4574ecb7f2372ba727317b9be941a33e74d9a7df1e104392def1a5cf77c613090978e611dca344112d37f72bfaf973042d81936c8394ab5bdf284f9e9bc5d79c309c3e38943211bf256693511f2d0f70864f07ae2da137e7f87fe5b09cd9b17b62ca2db30f8e197c4ef1701efcb8bead3a01c9be513010e0485f1c804d398f8388f8ed8e3971c8bf993a8c82228e47114f005a6579da51e6536bdc2da163012e5624685e31227cb72fc763a9d35937f61fb608242bbf94e73bb4e6718914a6e9665a9d9af450ee448932af534ed4f882559585eb7c22ff0c45dfbb86566362120ada9b6e68cf5689ed0f5ac0d60132d5f80f2145eb22bac87feda859cc58cffb6e1971cc47f7e7b77c6c8d080b3be9b1b2f070b1739155625cad87dde338acf2ecbf19f91d196dbba127e5769ae689f89ff7c09757731c606b4790170f816f422e5df8d3c2f2830ff25067850e9d1f1a18390f235f824b3c80afd0ac9f060626eee05e6f9b15d8a4a0f9a57175a42f059c39882e470199bf5734a16363e128aa80a94d0ae0d3a49a670023e9a6080f6c05c7eea0036c62c541789e015e26b928cad619177bfdfc6e3d3af1dc2d7cfb681b908e8a0e035305e8ee64f6321392aed65b6da97c8aa322ef0a8e0f296c5c5eb46d94af4ec8f08dee4b6be044cc4e2dcbb1129ffc7edd4a17cd4f4352a59ff7f29bbdc63057c453bb937a347077be4c8e631e476d757d16fc2f674566fb3a0bf4dfacf5c0feffe009f4e4a84ea6d7e78e405271f137ac40f3c3d8f08bdb5f9ddf6425294c9bcc1f98f0da4ac0c61767114246f5575413acc7c8f3d930bcb86c03c42febe054f3a1b5a390dcf60af4447a2dca9366a528baa3f4981d3568cef6faa0fe83e9b9d6dbdea6823d597e56fac0f1b1dbe7db27ffc8ac94a18b36837b2b80b7bf31ea20de66562ebfa17c3b080ea9b73622e1257591076020719f6541ce1470cbd7b4360a673634644c2b37c6025648ac28aaa874cf6240a7029025690fe7da2737ca69cb675b58adb487e55612b2c92c08e77d56d6cdbdf98a4047304f19f3137e59940697cbc8fe3b36f6f656fbff40dd78c97a015f27f75253d7dadf43c8858899d707b0e4d034ac79b2eda86fb45e564a7a0c282890e55e5b4f150022100110fc7adfa8135041beb55c27cfab81be738ebb62e66f41c82ddf55ca9ee7f28924ed917bf419ae059de025f364762b970335638e744e69a7da3721d7de264bc68fea8b05cc4e219b6485120eac8aef0f9ec4b7a567af3c5a9e2cfad873c5d9b01e169fc3f14654560f2deb37c180f9e9cc1db52fa76f67c477d87086ed0e4546dda748a0eea0714b0ca90c91fbe773583e36ce23f1564f1584e966b83a76b4db5a3fa3bd286f83a1b00b9fac070b6e936a7607c7e305282716103d891dac90f5613b48f7d59b0d8101956f6583bae155fc6272f10a5033834e3b6352241d05d02e2330c29a91140634e6769de17b76b637546025f6f3111a228946ea9a19f4ae85b60aedb86c6f10d14d6d5f100c43d24f3db803d7b42b7f8dc41031e6ce45bdea544f96f55ef9d14e5467697a8f9da2a8aaccdcf4093e4455596ba1aececfe0e7ff272b42717b82b9cee7fe02072336376086aaacaeb4c5c6d9f300000000000000000000000000000000000000000000000000000000000d1a243301fd210500456545a28b8c6803b56ba4156ea613a6e3efbada2d025bf86627066a44b68a504774b9cc42e96b346280533193ce537f0700f8c1799f12f56cca7acc4e6b30a9f1234d2b3a9c29cc1e609e6472cbd137e78e7ee06ad04d035421e553f7783ae299aa67991de12ae3b1635ffeb435ccd0e268eafd6f54a32d460722149053467c7d650aeff9e1ee4da65ce25469a731aa02582f8c90553b72c5eda47b13c5272a819c3c4acbbdf156eb27858417915251d1d05b6bd93e948d3b64a4f999ebe07f161b08261d92e4d720aa345b2317600cdda37bb20c47e0949918ce6a11e691a3b77842f8b68600a8e349839c477d054bf0e968db82bf1428b1647c6293513542d8e5170634baec9481e1d4bbb0573f4659423379002b4961395f0e773fc39827bd0def8b40c3cc95aee2249b73c428a9efbf93a44455729f15dc3df5bb1afd0341e281bc8602a66d20ed4658dc0f17ec76df09edd84da87ed9dbc2ab947bfefe978aad656352e57938c41f17a96af316705aba21094709ee8b419c995d00cc65cd4ac1729602b3385d192aa964297fda32b78ff23e4187ac6eb4ea8cf366df5090f9ef63c6d67cb806079c3b869b6f450bcd37756d306ee133e70edc42986a3481f8eebe8c80f8b61cecfee73da1ca1ae0479bede305221779d1170a552d009fca7fb70cf19c1560e4053635508c3ec5a9c03b16eaeb59d5384ea2d97c5c8ed0b44112d0ee55f6767142343fecedfe8928d2d8a05c67d2eb1a061f4bcc87806d752e8fcee54cf32a0602033bb1e91c95d7775ffcccc17bc446b7c4e62f162b68503e41666c8ee376811c26cbcf0d659d820cad4010bb4cc3ff9025b8e58391539f76458e605f4c114827ed66af7b5dc84bd2687698179ac394764665b35f18fe9af2acf2a54d4ab1e91758af77bfd4895f2b4b0d7e038e1dcb02b4dec1e25edb5e237b33afc243fa301ee588231099a83d45ab7bbeca650656088da5acb68cda09a329364aded9c7d8bd4cea0e1da55223904fcf91d3215f2018204f4878a48334b5cf38afe84b1313e661af77d672b3fba86f1f33541b80bb6d7f2cb84167e05dd744501e6b5c88ad925ed3dc86bf75b32262fff9ee15b90ecd67660ada044e47f774949b9663dbc0606950190b7727900e5dfa58a682383f0d40d1feeaacd10510cce3fdf6a1ce8c960f9e48df20d9075c5f6154a629d534536d972ac019a34fa606c6b3329171d17b94a8e180bd7d2f36ef590cb6397cb7cdbba0233f9c5a3e76a89ef51ccdf5ebdb8e00afded848c74eada457db0f4e99751245486bd3a128b7ac5cad98e03de9ba9a89a03c88433f11f94b1f6a99f4b9865445aca92c812edb7032c114f346e065b92b93baa0b0947aa6bb75a0a58f1e291ffc044a00cdd198e59e3fe09b9b6cf4210cae55d5ad2ebfb9b7ee9ac93cb889016445f91fc256ae3ac2063f83f78c2b7023afb69b21be0d4e804aad0fe9603d5cdaefc26098681bfee586f31c1f162943378797f40dbb49422c05ce86737f1b5234629cf69acae0c0e0b863afc6eb15b101c4da018d1a596399e2b76d597a6e5075f166cb207302d173b73b3cefdda45ee586e95725558896794fbb840fefef1ab0c835a40aa2f34d10022b9a084f0ecbf41dbd1f3a21dbfd336c897a90f4795da21d8a05afc2904135a138fa3aae413bf3e5f0272fd570a448fce594c2abcd30011ec1c509d75e6604768e5fcce1b4c78bac6aa2b34aa3e8a17415c8d5207c0aff86beb953c583d0bae3bce503b3ef639a9d183820e8db7cf8549057e1b704c06d922bcdd58a0b2b9283e23c74a051dce7d240a81bf4f8896c2e7de39d5178f0937aac7d837f000000",
  "txid": "1302bc9d1a99c947052b4eec5cb80b178d2191f4366d11f02cbcc9c4974b9fc0",
  "hash": "9463ecb270aa7c2fb404fbdbf273310156e673e7dd9aae4660a0a76271b0a6ae",
  "size": 5085,
  "vsize": 2278,
  "version": 1,
  "locktime": 127,
  "vin": [
    {
      "txid": "70171d7bded9cd3d0bf95022d6dc8c0ae3ea46aa7a87db9eef7ba7b48f867ca5",
      "vout": 0,
      "scriptSig": {
        "asm": "",
        "hex": ""
      },
      "txinwitness": [
        "9699e7670e502d921a4748c21d1026c97a4a573cccff0f746f5c60bf466f1d6678d6f6b602fdbea978e4680d5c379c9cc9e3d3bf0f7483d4e90825b5fcd148f7eac13b417499b37f0f5e94a985997a0d967fab54915f71038e8006b52b29be0428361c20437d78da80d5decb0fdb85a93f743082b644301b5f28e3ead00be68c665bfd832dd9fcc43e29ee11820ea2c01d3714e3399901af2078416e2bc247fa53f6b356065da51a2166fe310a5b9225c88b54b4b1522cc00c40fcbe533df2fcdda1e9def8d6aa6d5d9e92b83e81e310ecda141f112150cf31fbab90514a8eea79cf459cdc19c05759c9c26fea19afbca24e171a808c8c93f96b6e03869c91f466fa2bbdf6e4e4564bf239d3d75e6a9fdea389f4e53a089a1db5cab7ad9c9d9050a865f99a4d869eec2ac8d800bde91395f0463d3bed75c434384c4c4efe2c463f9899a8fb4267721dc45d929a3514624350006f07e69c5060e7ac958b0f9cf6f7af1a69fcb2d5429be32a109f51f232415be6787db3ee721cad37c813da8ff8a6f82579e260ec99288530e35da63fb0c6a67fb16db440d83233a9b9f08c3cfd3a3e5b880e3c176704fd90d717583868eabc6dfbcaad98cb5757c352036a7f95b659e90122e2003648e81117cc03341aaaed73bed55906abd869b8c293e7403a09725063f73b150a5331a6b1d9d97e47be83e23d1abbe59959f84be14193a808b25abb564ee7b50d0a30dc86630d2a9b8be6bb31f75ed012285fe92be06e3d3e7fa4065bbcaaf8b65ff8ba227f98f09da5531b83a3d81f4baa6739530e6ccfbab8a698808de5192422a48b2a82b730bb54d20c216d4b20b5f8366160fcc48772fa9c13b7e027a25b8b6600c2fa903b5d36c12a2d82ed18ff5239245f453b31ae58f41d9aac131077768b565c6f0ce13ae7478d917ed42cea6f25387df7c8e612a1c88225b4744d035fcf5449e86bb8733785fbe46db8a5617d70c782b24ed5be33466ef6eb46f9852a924cedbdcaf2473ca8331b0c45942b03487714e37cd53c1cf95607f8140d8999e2b971e68609e6ad2d90daf2306fecf62e6e560fcaa5f1251ae5129640dc51d6d5c736c6f64cf167d4793730abbc57b976d91e36583eadc258751cb6177648c412c822408bb3626100595f61f9761816aee90a4e129071464907f28b5ddaf82743172150b29bc2724191e421c23e666150b7fddeb21a02c71ff34aa026fe6795656899e686111358da7bcf356e1e291a8c1ff1d1c5f7872a22ace45f82dbedd0075245883ebb839265939aad7487e5657f71a66d351e89d4aa096f51dc711e54494142421b902898a8636836647a988417c574a4f2b7d7f9c36f903f3ad47d33cf3c561ae6918ca74bf3995f37bd93a7540a47462fd1f21953b6782b8704ad70abc8b6a1e60f6e7391f746e43dad0261ceee27aa99b8b9acaba3b29c657411ada10469f8ac51a014c2c5ebe8e3e4baed21f5954f7468ba4f03250c19ebc8fa168d50a61ab11ed20953f01ad530809dfc0b6f34fa857185f1c6a16a96c46ff7374c8c3132ca9715c98229b5bd8587356500407b52a3a9f00488ddddf1a58a1b2d675da175e7ae259a6b9eb817d8f7b2bcd770b4ed0d659de80bb14699c955797b1efb4d02c285b6c214b1b9132d4b1dde328aafa7a5e50ad0bbbd1f0945e1ff696137e9f3ec0e28021ed7b16d9c9dc6ff22ca3a51d257fa86581d0d4574ecb7f2372ba727317b9be941a33e74d9a7df1e104392def1a5cf77c613090978e611dca344112d37f72bfaf973042d81936c8394ab5bdf284f9e9bc5d79c309c3e38943211bf256693511f2d0f70864f07ae2da137e7f87fe5b09cd9b17b62ca2db30f8e197c4ef1701efcb8bead3a01c9be513010e0485f1c804d398f8388f8ed8e3971c8bf993a8c82228e47114f005a6579da51e6536bdc2da163012e5624685e31227cb72fc763a9d35937f61fb608242bbf94e73bb4e6718914a6e9665a9d9af450ee448932af534ed4f882559585eb7c22ff0c45dfbb86566362120ada9b6e68cf5689ed0f5ac0d60132d5f80f2145eb22bac87feda859cc58cffb6e1971cc47f7e7b77c6c8d080b3be9b1b2f070b1739155625cad87dde338acf2ecbf19f91d196dbba127e5769ae689f89ff7c09757731c606b4790170f816f422e5df8d3c2f2830ff25067850e9d1f1a18390f235f824b3c80afd0ac9f060626eee05e6f9b15d8a4a0f9a57175a42f059c39882e470199bf5734a16363e128aa80a94d0ae0d3a49a670023e9a6080f6c05c7eea0036c62c541789e015e26b928cad619177bfdfc6e3d3af1dc2d7cfb681b908e8a0e035305e8ee64f6321392aed65b6da97c8aa322ef0a8e0f296c5c5eb46d94af4ec8f08dee4b6be044cc4e2dcbb1129ffc7edd4a17cd4f4352a59ff7f29bbdc63057c453bb937a347077be4c8e631e476d757d16fc2f674566fb3a0bf4dfacf5c0feffe009f4e4a84ea6d7e78e405271f137ac40f3c3d8f08bdb5f9ddf6425294c9bcc1f98f0da4ac0c61767114246f5575413acc7c8f3d930bcb86c03c42febe054f3a1b5a390dcf60af4447a2dca9366a528baa3f4981d3568cef6faa0fe83e9b9d6dbdea6823d597e56fac0f1b1dbe7db27ffc8ac94a18b36837b2b80b7bf31ea20de66562ebfa17c3b080ea9b73622e1257591076020719f6541ce1470cbd7b4360a673634644c2b37c6025648ac28aaa874cf6240a7029025690fe7da2737ca69cb675b58adb487e55612b2c92c08e77d56d6cdbdf98a4047304f19f3137e59940697cbc8fe3b36f6f656fbff40dd78c97a015f27f75253d7dadf43c8858899d707b0e4d034ac79b2eda86fb45e564a7a0c282890e55e5b4f150022100110fc7adfa8135041beb55c27cfab81be738ebb62e66f41c82ddf55ca9ee7f28924ed917bf419ae059de025f364762b970335638e744e69a7da3721d7de264bc68fea8b05cc4e219b6485120eac8aef0f9ec4b7a567af3c5a9e2cfad873c5d9b01e169fc3f14654560f2deb37c180f9e9cc1db52fa76f67c477d87086ed0e4546dda748a0eea0714b0ca90c91fbe773583e36ce23f1564f1584e966b83a76b4db5a3fa3bd286f83a1b00b9fac070b6e936a7607c7e305282716103d891dac90f5613b48f7d59b0d8101956f6583bae155fc6272f10a5033834e3b6352241d05d02e2330c29a91140634e6769de17b76b637546025f6f3111a228946ea9a19f4ae85b60aedb86c6f10d14d6d5f100c43d24f3db803d7b42b7f8dc41031e6ce45bdea544f96f55ef9d14e5467697a8f9da2a8aaccdcf4093e4455596ba1aececfe0e7ff272b42717b82b9cee7fe02072336376086aaacaeb4c5c6d9f300000000000000000000000000000000000000000000000000000000000d1a243301",
        "00456545a28b8c6803b56ba4156ea613a6e3efbada2d025bf86627066a44b68a504774b9cc42e96b346280533193ce537f0700f8c1799f12f56cca7acc4e6b30a9f1234d2b3a9c29cc1e609e6472cbd137e78e7ee06ad04d035421e553f7783ae299aa67991de12ae3b1635ffeb435ccd0e268eafd6f54a32d460722149053467c7d650aeff9e1ee4da65ce25469a731aa02582f8c90553b72c5eda47b13c5272a819c3c4acbbdf156eb27858417915251d1d05b6bd93e948d3b64a4f999ebe07f161b08261d92e4d720aa345b2317600cdda37bb20c47e0949918ce6a11e691a3b77842f8b68600a8e349839c477d054bf0e968db82bf1428b1647c6293513542d8e5170634baec9481e1d4bbb0573f4659423379002b4961395f0e773fc39827bd0def8b40c3cc95aee2249b73c428a9efbf93a44455729f15dc3df5bb1afd0341e281bc8602a66d20ed4658dc0f17ec76df09edd84da87ed9dbc2ab947bfefe978aad656352e57938c41f17a96af316705aba21094709ee8b419c995d00cc65cd4ac1729602b3385d192aa964297fda32b78ff23e4187ac6eb4ea8cf366df5090f9ef63c6d67cb806079c3b869b6f450bcd37756d306ee133e70edc42986a3481f8eebe8c80f8b61cecfee73da1ca1ae0479bede305221779d1170a552d009fca7fb70cf19c1560e4053635508c3ec5a9c03b16eaeb59d5384ea2d97c5c8ed0b44112d0ee55f6767142343fecedfe8928d2d8a05c67d2eb1a061f4bcc87806d752e8fcee54cf32a0602033bb1e91c95d7775ffcccc17bc446b7c4e62f162b68503e41666c8ee376811c26cbcf0d659d820cad4010bb4cc3ff9025b8e58391539f76458e605f4c114827ed66af7b5dc84bd2687698179ac394764665b35f18fe9af2acf2a54d4ab1e91758af77bfd4895f2b4b0d7e038e1dcb02b4dec1e25edb5e237b33afc243fa301ee588231099a83d45ab7bbeca650656088da5acb68cda09a329364aded9c7d8bd4cea0e1da55223904fcf91d3215f2018204f4878a48334b5cf38afe84b1313e661af77d672b3fba86f1f33541b80bb6d7f2cb84167e05dd744501e6b5c88ad925ed3dc86bf75b32262fff9ee15b90ecd67660ada044e47f774949b9663dbc0606950190b7727900e5dfa58a682383f0d40d1feeaacd10510cce3fdf6a1ce8c960f9e48df20d9075c5f6154a629d534536d972ac019a34fa606c6b3329171d17b94a8e180bd7d2f36ef590cb6397cb7cdbba0233f9c5a3e76a89ef51ccdf5ebdb8e00afded848c74eada457db0f4e99751245486bd3a128b7ac5cad98e03de9ba9a89a03c88433f11f94b1f6a99f4b9865445aca92c812edb7032c114f346e065b92b93baa0b0947aa6bb75a0a58f1e291ffc044a00cdd198e59e3fe09b9b6cf4210cae55d5ad2ebfb9b7ee9ac93cb889016445f91fc256ae3ac2063f83f78c2b7023afb69b21be0d4e804aad0fe9603d5cdaefc26098681bfee586f31c1f162943378797f40dbb49422c05ce86737f1b5234629cf69acae0c0e0b863afc6eb15b101c4da018d1a596399e2b76d597a6e5075f166cb207302d173b73b3cefdda45ee586e95725558896794fbb840fefef1ab0c835a40aa2f34d10022b9a084f0ecbf41dbd1f3a21dbfd336c897a90f4795da21d8a05afc2904135a138fa3aae413bf3e5f0272fd570a448fce594c2abcd30011ec1c509d75e6604768e5fcce1b4c78bac6aa2b34aa3e8a17415c8d5207c0aff86beb953c583d0bae3bce503b3ef639a9d183820e8db7cf8549057e1b704c06d922bcdd58a0b2b9283e23c74a051dce7d240a81bf4f8896c2e7de39d5178f0937aac7d83"
      ],
      "sequence": 4294967294
    }
  ],
  "vout": [
    {
      "value": 499970.5099,
      "n": 0,
      "scriptPubKey": {
        "asm": "1 d584a66677dd0d764290b5a3e8c2b184f5da20837b56ce2f0d6aaea6f3b97206",
        "hex": "5120d584a66677dd0d764290b5a3e8c2b184f5da20837b56ce2f0d6aaea6f3b97206",
        "reqSigs": 1,
        "type": "witness_v1_scripthash",
        "addresses": [
          "3QJmnh"
        ]
      }
    },
    {
      "value": 1.0,
      "n": 1,
      "scriptPubKey": {
        "asm": "OP_RETURN 23abdf5a95af499963608e49bb3c83943bca8ab7e9321588da723d979c7560ed 38ae5d737c152ad91839bdc698fd661c95c02cb0f193e459bfbea8f471df0b69188e7d535c350af938199de6b8dd463cb5e00c90d1b3c4799f9e88d451ff2b4978ee1d333c556a995879fd86d8bd265cd5806cf0b1d3a419fffee8b4319f4b2958ce3d131c754ab97859dda6f89d067cf5a04cd091f38439dfdec89411bf6b09b82eddf3fc95aa5998b93d46187de69c1540ac30711364d93f3e2874f15f8be9980efdd3dcb58a79b8991d66385dc6bc35608c10513344f91f1e0854d17fabc9f86e9db3bcd5ea19d8f97d06583da6dc5500ec70315324997f7e6834b11fcba9d84ebd939cf5ca39f8d95d26781d86fc7520cc50117304b95f5e4814913feb8938ae5d737c152ad91839bdc698fd661c95c02cb0f193e459bfbea8f471df0b69188e7d535c350af938199de6b8dd463cb5e00c90d1b3c4799f9e88d451ff2b4978ee1d333c556a995879fd86d8bd265cd5806cf0b1d3a419fffee8b4319f4b2958ce3d131c754ab97859dda6f89d067cf5a04cd091f38439dfdec89411bf6b09b82eddf3fc95aa5998b93d46187de69c1540ac30711364d93f3e2874f15f8be9980efdd3dcb58a79b8991d66385dc6bc35608c10513344f91f1e0854d17fabc9f86e9db3bcd5ea19d8f97d06583da6dc5500ec70315324997f7e6834b11fcba9d84ebd939cf5ca39f8d95d26781d86fc7520cc50117304b95f5e4814913feb8938ae5d737c152ad91839bdc698fd661c95c02cb0f193e459bfbea8f471df0b69188e7d535c350af938199de6b8dd463cb5e00c90d1b3c4799f9e88d451ff2b4978ee1d333c556a995879fd86d8bd265cd5806cf0b1d3a419fffee8b4319f4b2958ce3d131c754ab97859dda6f89d067cf5a04cd091f38439dfdec89411bf6b09b82eddf3fc95aa5998b93d46187de69c1540ac30711364d93f3e2874f15f8be9980efdd3dcb58a79b8991d66385dc6bc35608c10513344f91f1e0854d17fabc9f86e9db3bcd5ea19d8f97d06583da6dc5500ec70315324997f7e6834b11fcba9d84ebd939cf5ca39f8d95d26781d86fc7520cc50117304b95f5e4814913feb8938ae5d737c152ad91839bdc698fd661c95c02cb0f193e459bfbea8f471df0b69188e7d535c350af938199de6b8dd463cb5e00c90d1b3c4799f9e88d451ff2b4978ee1d333c556a995879fd86d8bd265cd5806cf0b1d3a419fffee8b4319f4b2958ce3d131c754ab97859dda6f89d067cf5a04cd091f38439dfdec89411bf6b09b82eddf3fc95aa5998b93d46187de69c1540ac30711364d93f3e2874f15f8be9980efdd3dcb58a79b8991d66385dc6bc35608c10513344f91f1e0854d17fabc9f86e9db3bcd5ea19d8f97d06583da6dc5500ec70315324997f7e6834b11fcba9d84ebd939cf5ca39f8d95d26781d86fc7520cc50117304b95f5e4814913feb8938ae5d737c152ad91839bdc698fd661c95c02cb0f193e459bfbea8f471df0b69188e7d535c350af938199de6b8dd463cb5e00c90d1b3c4799f9e88d451ff2b4978ee1d333c556a995879fd86d8bd265cd5806cf0b1d3a419fffee8b4319f4b2958ce3d131c754ab97859dda6f89d067cf5a04cd091f38439dfdec89411bf6b09b82eddf3fc95aa5998b93d46187de69c06d8b4a9b333e2673e2ab084a3abd40851db26768fed753df0db108e802a99b1",
        "hex": "6a2023abdf5a95af499963608e49bb3c83943bca8ab7e9321588da723d979c7560ed4db00438ae5d737c152ad91839bdc698fd661c95c02cb0f193e459bfbea8f471df0b69188e7d535c350af938199de6b8dd463cb5e00c90d1b3c4799f9e88d451ff2b4978ee1d333c556a995879fd86d8bd265cd5806cf0b1d3a419fffee8b4319f4b2958ce3d131c754ab97859dda6f89d067cf5a04cd091f38439dfdec89411bf6b09b82eddf3fc95aa5998b93d46187de69c1540ac30711364d93f3e2874f15f8be9980efdd3dcb58a79b8991d66385dc6bc35608c10513344f91f1e0854d17fabc9f86e9db3bcd5ea19d8f97d06583da6dc5500ec70315324997f7e6834b11fcba9d84ebd939cf5ca39f8d95d26781d86fc7520cc50117304b95f5e4814913feb8938ae5d737c152ad91839bdc698fd661c95c02cb0f193e459bfbea8f471df0b69188e7d535c350af938199de6b8dd463cb5e00c90d1b3c4799f9e88d451ff2b4978ee1d333c556a995879fd86d8bd265cd5806cf0b1d3a419fffee8b4319f4b2958ce3d131c754ab97859dda6f89d067cf5a04cd091f38439dfdec89411bf6b09b82eddf3fc95aa5998b93d46187de69c1540ac30711364d93f3e2874f15f8be9980efdd3dcb58a79b8991d66385dc6bc35608c10513344f91f1e0854d17fabc9f86e9db3bcd5ea19d8f97d06583da6dc5500ec70315324997f7e6834b11fcba9d84ebd939cf5ca39f8d95d26781d86fc7520cc50117304b95f5e4814913feb8938ae5d737c152ad91839bdc698fd661c95c02cb0f193e459bfbea8f471df0b69188e7d535c350af938199de6b8dd463cb5e00c90d1b3c4799f9e88d451ff2b4978ee1d333c556a995879fd86d8bd265cd5806cf0b1d3a419fffee8b4319f4b2958ce3d131c754ab97859dda6f89d067cf5a04cd091f38439dfdec89411bf6b09b82eddf3fc95aa5998b93d46187de69c1540ac30711364d93f3e2874f15f8be9980efdd3dcb58a79b8991d66385dc6bc35608c10513344f91f1e0854d17fabc9f86e9db3bcd5ea19d8f97d06583da6dc5500ec70315324997f7e6834b11fcba9d84ebd939cf5ca39f8d95d26781d86fc7520cc50117304b95f5e4814913feb8938ae5d737c152ad91839bdc698fd661c95c02cb0f193e459bfbea8f471df0b69188e7d535c350af938199de6b8dd463cb5e00c90d1b3c4799f9e88d451ff2b4978ee1d333c556a995879fd86d8bd265cd5806cf0b1d3a419fffee8b4319f4b2958ce3d131c754ab97859dda6f89d067cf5a04cd091f38439dfdec89411bf6b09b82eddf3fc95aa5998b93d46187de69c1540ac30711364d93f3e2874f15f8be9980efdd3dcb58a79b8991d66385dc6bc35608c10513344f91f1e0854d17fabc9f86e9db3bcd5ea19d8f97d06583da6dc5500ec70315324997f7e6834b11fcba9d84ebd939cf5ca39f8d95d26781d86fc7520cc50117304b95f5e4814913feb8938ae5d737c152ad91839bdc698fd661c95c02cb0f193e459bfbea8f471df0b69188e7d535c350af938199de6b8dd463cb5e00c90d1b3c4799f9e88d451ff2b4978ee1d333c556a995879fd86d8bd265cd5806cf0b1d3a419fffee8b4319f4b2958ce3d131c754ab97859dda6f89d067cf5a04cd091f38439dfdec89411bf6b09b82eddf3fc95aa5998b93d46187de69c06d8b4a9b333e2673e2ab084a3abd40851db26768fed753df0db108e802a99b1",
        "type": "nulldata"
      }
    }
  ],
  "blockhash": "f7496688ea8085f6c88d1199f2534797ba9d5c262af7501e5ddf271dd00b2202",
  "confirmations": 1,
  "time": 1764181480,
  "blocktime": 1764181480
}