{
  "hex": "0100000000010186036992a020bd0d55a70ff067a43f08f0ba29fb04177af38cf48c30abe2b7cd0000000000feffffff0200e1f50500000000fdd5046a2054120b73528e91f8d47b2fd472d476a77ea413d62f55a5f4ae527dd496d4bead4db004f6e33154ea38900c3c2e6781e3ec1e46cc1703f97d724724b3f3f181745fa7d6d6c31174ca18b02c1c0e47a1c3cc3e66ec3723d95d52670493d3d1a1547f87f6b6a37114aa78d04c7c6e27c1a3ac5e068c5743b93d320764f3b3b1c1341fe796968351348a58f06c5c4e07e1838c7e26ac7763991d122744d39391e1143fc7b67663b1d46ab8108cbcaee701636c9ec64c978379fdf2c7a433737101f4df2756564391f44a9830ac9c8ec721434cbee66cb7a359ddd2e78413535121d4ff07763623f1942af850ccfceea741232cde860cd7c339bdb287e473333141b49f67161603d1b40ad870ecdcce8761030cfea62cf7e3199d92a7c45313116194bf4736f6e33154ea38900c3c2e6781e3ec1e46cc1703f97d724724b3f3f181745fa7d6d6c31174ca18b02c1c0e47a1c3cc3e66ec3723d95d52670493d3d1a1547f87f6b6a37114aa78d04c7c6e27c1a3ac5e068c5743b93d320764f3b3b1c1341fe796968351348a58f06c5c4e07e1838c7e26ac7763991d122744d39391e1143fc7b67663b1d46ab8108cbcaee701636c9ec64c978379fdf2c7a433737101f4df2756564391f44a9830ac9c8ec721434cbee66cb7a359ddd2e78413535121d4ff07763623f1942af850ccfceea741232cde860cd7c339bdb287e473333141b49f67161603d1b40ad870ecdcce8761030cfea62cf7e3199d92a7c45313116194bf4736f6e33154ea38900c3c2e6781e3ec1e46cc1703f97d724724b3f3f181745fa7d6d6c31174ca18b02c1c0e47a1c3cc3e66ec3723d95d52670493d3d1a1547f87f6b6a37114aa78d04c7c6e27c1a3ac5e068c5743b93d320764f3b3b1c1341fe796968351348a58f06c5c4e07e1838c7e26ac7763991d122744d39391e1143fc7b67663b1d46ab8108cbcaee701636c9ec64c978379fdf2c7a433737101f4df2756564391f44a9830ac9c8ec721434cbee66cb7a359ddd2e78413535121d4ff07763623f1942af850ccfceea741232cde860cd7c339bdb287e473333141b49f67161603d1b40ad870ecdcce8761030cfea62cf7e3199d92a7c45313116194bf4736f6e33154ea38900c3c2e6781e3ec1e46cc1703f97d724724b3f3f181745fa7d6d6c31174ca18b02c1c0e47a1c3cc3e66ec3723d95d52670493d3d1a1547f87f6b6a37114aa78d04c7c6e27c1a3ac5e068c5743b93d320764f3b3b1c1341fe796968351348a58f06c5c4e07e1838c7e26ac7763991d122744d39391e1143fc7b67663b1d46ab8108cbcaee701636c9ec64c978379fdf2c7a433737101f4df2756564391f44a9830ac9c8ec721434cbee66cb7a359ddd2e78413535121d4ff07763623f1942af850ccfceea741232cde860cd7c339bdb287e473333141b49f67161603d1b40ad870ecdcce8761030cfea62cf7e3199d92a7c45313116194bf4736f6e33154ea38900c3c2e6781e3ec1e46cc1703f97d724724b3f3f181745fa7d6d6c31174ca18b02c1c0e47a1c3cc3e66ec3723d95d52670493d3d1a1547f87f6b6a37114aa78d04c7c6e27c1a3ac5e068c5743b93d320764f3b3b1c1341fe796968351348a58f06c5c4e07e1838c7e26ac7763991d122744d39391e1143fc7b67663b1d46ab8108cbcaee701636c9ec6318f31e4e71dab99f2e1a940d0b051a84cddab4f8807cda6f0e642521dc4e8f21076cf5d792d000022512092d27cc0d6a4db1d8475aa952aac21f1611e3570e9cae166607362ba57068e6902fd75093dc6031b5dfec87a33f9f4ece5ed908267cf9210d8f89a659ca9cf4b19f065f4f1833b178912a98f5c0bbab8f06e9b38eb62f82c829d92a37ec45d7b4d807c47dfba41b450d58e699cce22fe5af72e47f768761bb3443845914a23985e52e71ee2464c41660333e676c9741b16ae3b94c17307784204231dad239ca4f419578255f6eef3f19808d018e373f8b1e1441b87a141c87a4ac5cf6ecbc3ac1183588c1400e8bdeadc4678ce72f41866422e56f4bc2e9a7612b8dd66254688a2218a2d8999496de280ea3d0d7b2e6058d78cd3a1fd223af95211cbb11b0017c80c3f4c634f3fc23875a0cc0b7f32c0c3f620d162e79491ac4183bfaa525adac007f623727bc4e86a2a4c621534f8b41feb635f5d5af4e9789e65e41ae48a69090fc1f9290025f48b6d73398cbcfb461680316d06450d79b778cb0fbe6bc96032b30491b829aa4fed0b8c89bca209e4d37c649ca29ae2976994ec1d0c5f01dc61127aa228908fbb0138312074bc8ee8a5e61963a4403f4b0b66dee81a3831b496144159172704654d539f3ef5e23bb8648225c8b0d73160f63cc4e4cd23bc3b31240fb84b003b2010ca09f7cbf3b52840b51fbea890c9dabc5efc5b688eec1c3e2f0d1f3132e31ef240f4ecefc42052b56a663bcc5a84e26fbf76221748889e5cf0c07afacb2fde9a7a85488fa57b80f220d5914092488db011457e487ff90c89bdf4cc0582362f4ca1c52c4dc044cf2e3dde209d383446055e95058b7c66248b3b01f2f9acf9281af635b3c86ae5b3cb09a397e082f646d48d071baccddc0d1b8163e242136e00cec036ecb57b75f25b38d2e1546caa9116e248d08bc7d3e761f80d6b1a78a5d8cf3bc31b1a9af310f7da32fe9ac5d0ca2e9d2a3b4a9cb74cb67dd37d6b2d5f5a3af62baaa31b519ff8f2a799ef7b0cd6d4fdcf86b1102b3caea63eb581a54b1378642e73714b113e41b9f991007165a06cc2d80dd73f73898f9e3a11c68ae1c98b7d5e3d0d68dbc19b3c10c3cc2e5c473ff1760a37dcc68a188fbe1655f39d5924de1aa0c66f601775d19740e2daf7d6ff2a827d74fefa55444dbc58428a7fb7e06157c2f03eddecf1fd7fcf00fef76c5d95a15a418b4a96fe93b345bba85a3f64c9f4004176f2856fa7aff14871b92ed5ca9edd49a7ed8b175b1c9612ea07425516e7857d3b3ff1e572f4c08e0ff9b67062de8946b93aeb1fac6e3083c4a3899513647d982ad2f66777226af0f44f06d48906353b351500057ae09608deb35fc1361f035c35791ebf9b7ef33663e20bbc3e91f6d2fe7e5aec0159a423f33743457433bb496e246a38e68deb43326bf2d897f206f5a3a93a375309aa74547b69abe680f2d611cdc34fa3e728aa810696953f895bc7b6fc55392756de68822f995329f039204f860f3719786fe89334cbbccb90e0bdadae48755e44b75c900f5d0904407a6e1ed5fc128cc621e8b53d9e84b6d9e2f1fc4b6f74f4151c5a3ae931bc236707de6ae431b3ea7ee082266506128f8e20191313f3176cf90a799cf6383a4d1cd5618d7b28ee0f0cac2d3ef534ac9d1fb0559513f68ae008f54776e549907e16900dc50684103f7cb2f8cb3f370bfcf4e5df2981afd57c6d71272a1ed8b039c232dfa120b19073352db8273b269d7e501dd3cfa7761f3c20162df327a267a97bbf6b6440ec5107c9c5a38194f8f5f815852586ea0e355de4d6503eae81dcb4337ece945049c804d14f89e320532edce1873f113c26560cd245cc4c79ffe0f695673a9687c5b0220e1b2b537bf107b545d12558181cdfd548f444dca17839b4294d6f03f2885388058f1813689772bf3c96f5fce601da3957b961437a5b4e626f6c8b01f900dd5816f02656d4233ea19936b591d16d6c81c59c27a800da8397b41430d7a599e7da5d57dbe2a6d2e42339340bed9de6adcb2a9fc32a1d0d170eaaca5fd07889437aadc9134fbf41a94f219150b77698c2ff81ca7444da2af06ad964a8fa2f01f88dfd91ebd31969637a81f1024af9881a2c16303e04e54e384eddca98f90be723a2d78a21e33ea26d5b062deb3aa255a1e1e37dec94422edd9a806dabc3ab3d7cefd0e96badfc9147be6b4917347dcdc24f1a2a7b26a1e2e2ad488e709d7d0a1cbdbe37982870f020db8d62bf92ae2be649c8f5894aeca1c034cc4e41779c9eb034bf299a3c433967cea1f3b83ce029a3ef6a368e1bab7a154c9cc94cb2192859456f63f115cc1e3c98e1c9354833195917cea47c6fac5328ea62da30f869863acced17c4b71928c883a3c768e5933d82c52a44c0d32323ab98698d1e9553007e904533edb18761f3af2084477d650e212516077bbcfb0bba00a1817d82fa2e97ace61f729bd42b2640506c25f05afd7a8ed010ee1d6e72641dada5bcc4e428dd69f4ec733b10b1ad8bcf13e2a53c9c4116ad7b050efca3f6fb3f5c02f313ef6c456170e620ff662b605855ec4f9740866b51d2fe772831432cabc59e77131cea6eabe33292e27980326ef89906b753b610da677c66b4e611c1d4b0017903231906981b06b32ad3b520d67b046ee0fcdf4df76a1b9c86e652ae3905b64b5bca9056d48755cbc859348a4a82c9277edeacc110272d6a55f4bfcc74237065224c85195857d8125ddd62e0c5c31f4d6dcb52f0b1d1df105ea9739f873b17c5d68fa54fb0b24a77552515dcf62c2ef80da6500710de92ec8752c13c41cfa61d564077dbcf1c842845e012bf65ba1d8d454e6e5d87318cc9cc76e5f3bc5900c0f3980768bbed2e0c4282e9b764f8147cb4cda66719d6bae5e0f6bbbd765f37d8089b1382bd6232530c306e881847b2acf4f0c0587f26645c17fafce1ecdc6924a833a680c5c8ffb35db0bdc1981c8791eae1f00d712468eec6a2773c50748d7d93a4df283aa0a4421c3958962a7dbc5d2e1c815991141320c82e4d38bbbe2b99051579d7f5a71add771ccd8398c8737dd63721b7f359fe7da1e82606dc9ec30cbd99338f5780e7a0d33a09d029602aea7712a49b532cddbad1ccbdb0a8fb42ab9abb20e12b335b027a69bb92bb8c3120e68138f16086244832b3770fbaf0d7c119faef295f9bfc3e43bf19842cf4c5185dcdf14380dcc579bbc8d23bde4b23eb3848e1f99c47a082580d12b60985637988e0aed4bf21dca689920fd04d3987f87139c79265f08723f21d449fbe291b6618c479cd0eb7f1bec8e08019ba3b6b17ac560f0676eae3fd904d487681984a717ca786f887b44d7858e254ffb47cbcef33e2fcf032386253c25353afba3dc536e26880b3926a0c0f1216192f35484f52898a91a7b7d10025262c3f4153698d8e92c0c2c4dde1ebeef0163233717f8eaeb4cccdd8dff0fc0005182c333d41436971777d85aec1c4c5cdd5d9dce6e9f0f60000000000001023314a01fd210500e74bd28218481de52cf7f2593ea837bda52ef4cf4a904dd04b13ec5367dbe157b0ecaff3bcdfe3ed90440776104ebf4073a41eef8d87211afb36e3f7fc8d5da5983c6282f7e5179de7d0cac2a14d020973e79178bd74cda2632bfd320230e590d5f4ea8d941878af9d7597f7ed3f9ccfdc55d2eccc2dbd80084784f38ff004633f1d148ee90935bb718c949929cc72a4e74001394ca30c4ff04f55eafd38539c23c877f1502fb753b09e93531a8417f2d2267480c2c12b693d8d66b151ddf34c94f7d22f4b70c4a1d8d04a5012997119ad46cf64fbb6a94fb80966f95f6fed2592314a8651d9548c11bfd112b69ebe3f588a5a090d07d3cf50f641f2f3678b4e80b5f41c2dc9a41b2700eaaf07675f33a79d2c9de6554b4003af7389528baa3d574f4a6e3e398364e63423f074ba9de007779467536051e83c2ace67441af00be9b94a5c716c68643775c68f358776767429ccd545a0506fc1724e8c6aee40d3aa60172d8164e004620f192908380011cd9789e9776740681b0cf113341f7f592e8c633e7b6811494a19d21f3b1fcdba8cbf1edeeb01210532a6321b3028a930e3f4d45ead9cb7802c61dcfe39a6b88a28547c45b8e87404fd5c228605cd254b2d427024605b01bec2e39ebf6ec0c7d4bc089b69baf2cb7aed4cd435ce1ae2c35cf2e1752faad1ffde8b7d0ea8b8b7ceaba77bf959fb7f8ee6992abc386ce6b17b50edb5c3f7690d502d738dd2a0833695860ae17be51ec7b1e1acb04c91dce9789f95648841e5de7aca1e0aa371cf123ed81c42b6b38a24b988b261e1ccb9168f69b281a21311172dad560012cda3b88fc48ad0e1bcc10708bce08317805096d389bbd0427a454a4a3576bdd281a9d3ba97ebdd0961c88ff08c1fc91178434873797199ed9becfcaab52c89aacb102586e161ffb162f37b4e9f075f2d3d664f00468133cd6872723721e01484ed79a7bc10b099b6db54c26071ae153fc731962b07dfbd80616a5d39b697d81c484799a6e97c8665d4ec0c5816fa104b1e7e9dde331d2c06c84806bf97c688dbf7135a3bf13095a6e00ec7eebf9246965d0d9a899c2c6eb4b5646a718b89233794fced837fe26d1b1e627ea16858266324e2afe66cd6064cb3a724705bc80a7abaa28523b09900c510fadd6280193e41ec98461f4e54bfe75c1f548ae57a68c53a14f3894329f4b93d544c20f12a390ed6d6399b128c22a49692e6c231059c102860cf2d5321ecaa831c64eb25da9a125ac2d612bf7301833e330ab728167a0deb3649f3254a2a1a4f2e6204e8cbe59143aa3e39be66084d7b0a85e45e2a82389f63d29ad8ae05d641ae3ffb63bd7881d60378921cb5d03ac64b91f451823bafcb8daaaf4d261c365b3875a5a23ce06bd818185c0d93b479fd71e145a9faababdedfc966d17f0c01d5604fb95aa2cabae8ec2b79f66d980a36388c16949567be7a2ae177450c64daa8d341ccd0e7906c7a6018032f2a3e2dd9bc715a920647d3e21f72701c804aec8fd6e6ede715de985f4bd4a708e38b037bb884b39872f17b91a8235a7c53c78c7fd9bf7ab0b07d29073ac79c0bc409a339f918d0e875c82def2c6f8d75f9b4de9a6435f9ef89a04ce5acef98fbde607cef28fe9a4e88fc0508deafa46a80c51e5d3696fc894ac56246a0bc123e59551a881e1d9dff6940d31c8621e3f2518db36cbc3adc6e0ae98138c0622f44c06e785062088851fc3a369faefde87fe859b70adb81e5155f5b3c03440529b8271d7072e5c0982c208b08b7aa597fa2e469aba9311317abc583773fe50e6ef6afbadde93c66bc49bba2068956ebc148926901bce99a190bf2ff31c852d169000000",
  "txid": "1d34073ed79bbd8ebcea973748753274e8808a534c1c5f482f6d7b724be31317",
  "hash": "a7529514924bb7e5feb82d7e302f0171c205c35b022feb535cc3a870bfa5193c",
  "size": 5085,
  "vsize": 2278,
  "version": 1,
  "locktime": 105,
  "vin": [
    {
      "txid": "cdb7e2ab308cf48cf37a1704fb29baf0083fa467f00fa7550dbd20a092690386",
      "vout": 0,
      "scriptSig": {
        "asm": "",
        "hex": ""
      },
      "txinwitness": [
        "3dc6031b5dfec87a33f9f4ece5ed908267cf9210d8f89a659ca9cf4b19f065f4f1833b178912a98f5c0bbab8f06e9b38eb62f82c829d92a37ec45d7b4d807c47dfba41b450d58e699cce22fe5af72e47f768761bb3443845914a23985e52e71ee2464c41660333e676c9741b16ae3b94c17307784204231dad239ca4f419578255f6eef3f19808d018e373f8b1e1441b87a141c87a4ac5cf6ecbc3ac1183588c1400e8bdeadc4678ce72f41866422e56f4bc2e9a7612b8dd66254688a2218a2d8999496de280ea3d0d7b2e6058d78cd3a1fd223af95211cbb11b0017c80c3f4c634f3fc23875a0cc0b7f32c0c3f620d162e79491ac4183bfaa525adac007f623727bc4e86a2a4c621534f8b41feb635f5d5af4e9789e65e41ae48a69090fc1f9290025f48b6d73398cbcfb461680316d06450d79b778cb0fbe6bc96032b30491b829aa4fed0b8c89bca209e4d37c649ca29ae2976994ec1d0c5f01dc61127aa228908fbb0138312074bc8ee8a5e61963a4403f4b0b66dee81a3831b496144159172704654d539f3ef5e23bb8648225c8b0d73160f63cc4e4cd23bc3b31240fb84b003b2010ca09f7cbf3b52840b51fbea890c9dabc5efc5b688eec1c3e2f0d1f3132e31ef240f4ecefc42052b56a663bcc5a84e26fbf76221748889e5cf0c07afacb2fde9a7a85488fa57b80f220d5914092488db011457e487ff90c89bdf4cc0582362f4ca1c52c4dc044cf2e3dde209d383446055e95058b7c66248b3b01f2f9acf9281af635b3c86ae5b3cb09a397e082f646d48d071baccddc0d1b8163e242136e00cec036ecb57b75f25b38d2e1546caa9116e248d08bc7d3e761f80d6b1a78a5d8cf3bc31b1a9af310f7da32fe9ac5d0ca2e9d2a3b4a9cb74cb67dd37d6b2d5f5a3af62baaa31b519ff8f2a799ef7b0cd6d4fdcf86b1102b3caea63eb581a54b1378642e73714b113e41b9f991007165a06cc2d80dd73f73898f9e3a11c68ae1c98b7d5e3d0d68dbc19b3c10c3cc2e5c473ff1760a37dcc68a188fbe1655f39d5924de1aa0c66f601775d19740e2daf7d6ff2a827d74fefa55444dbc58428a7fb7e06157c2f03eddecf1fd7fcf00fef76c5d95a15a418b4a96fe93b345bba85a3f64c9f4004176f2856fa7aff14871b92ed5ca9edd49a7ed8b175b1c9612ea07425516e7857d3b3ff1e572f4c08e0ff9b67062de8946b93aeb1fac6e3083c4a3899513647d982ad2f66777226af0f44f06d48906353b351500057ae09608deb35fc1361f035c35791ebf9b7ef33663e20bbc3e91f6d2fe7e5aec0159a423f33743457433bb496e246a38e68deb43326bf2d897f206f5a3a93a375309aa74547b69abe680f2d611cdc34fa3e728aa810696953f895bc7b6fc55392756de68822f995329f039204f860f3719786fe89334cbbccb90e0bdadae48755e44b75c900f5d0904407a6e1ed5fc128cc621e8b53d9e84b6d9e2f1fc4b6f74f4151c5a3ae931bc236707de6ae431b3ea7ee082266506128f8e20191313f3176cf90a799cf6383a4d1cd5618d7b28ee0f0cac2d3ef534ac9d1fb0559513f68ae008f54776e549907e16900dc50684103f7cb2f8cb3f370bfcf4e5df2981afd57c6d71272a1ed8b039c232dfa120b19073352db8273b269d7e501dd3cfa7761f3c20162df327a267a97bbf6b6440ec5107c9c5a38194f8f5f815852586ea0e355de4d6503eae81dcb4337ece945049c804d14f89e320532edce1873f113c26560cd245cc4c79ffe0f695673a9687c5b0220e1b2b537bf107b545d12558181cdfd548f444dca17839b4294d6f03f2885388058f1813689772bf3c96f5fce601da3957b961437a5b4e626f6c8b01f900dd5816f02656d4233ea19936b591d16d6c81c59c27a800da8397b41430d7a599e7da5d57dbe2a6d2e42339340bed9de6adcb2a9fc32a1d0d170eaaca5fd07889437aadc9134fbf41a94f219150b77698c2ff81ca7444da2af06ad964a8fa2f01f88dfd91ebd31969637a81f1024af9881a2c16303e04e54e384eddca98f90be723a2d78a21e33ea26d5b062deb3aa255a1e1e37dec94422edd9a806dabc3ab3d7cefd0e96badfc9147be6b4917347dcdc24f1a2a7b26a1e2e2ad488e709d7d0a1cbdbe37982870f020db8d62bf92ae2be649c8f5894aeca1c034cc4e41779c9eb034bf299a3c433967cea1f3b83ce029a3ef6a368e1bab7a154c9cc94cb2192859456f63f115cc1e3c98e1c9354833195917cea47c6fac5328ea62da30f869863acced17c4b71928c883a3c768e5933d82c52a44c0d32323ab98698d1e9553007e904533edb18761f3af2084477d650e212516077bbcfb0bba00a1817d82fa2e97ace61f729bd42b2640506c25f05afd7a8ed010ee1d6e72641dada5bcc4e428dd69f4ec733b10b1ad8bcf13e2a53c9c4116ad7b050efca3f6fb3f5c02f313ef6c456170e620ff662b605855ec4f9740866b51d2fe772831432cabc59e77131cea6eabe33292e27980326ef89906b753b610da677c66b4e611c1d4b0017903231906981b06b32ad3b520d67b046ee0fcdf4df76a1b9c86e652ae3905b64b5bca9056d48755cbc859348a4a82c9277edeacc110272d6a55f4bfcc74237065224c85195857d8125ddd62e0c5c31f4d6dcb52f0b1d1df105ea9739f873b17c5d68fa54fb0b24a77552515dcf62c2ef80da6500710de92ec8752c13c41cfa61d564077dbcf1c842845e012bf65ba1d8d454e6e5d87318cc9cc76e5f3bc5900c0f3980768bbed2e0c4282e9b764f8147cb4cda66719d6bae5e0f6bbbd765f37d8089b1382bd6232530c306e881847b2acf4f0c0587f26645c17fafce1ecdc6924a833a680c5c8ffb35db0bdc1981c8791eae1f00d712468eec6a2773c50748d7d93a4df283aa0a4421c3958962a7dbc5d2e1c815991141320c82e4d38bbbe2b99051579d7f5a71add771ccd8398c8737dd63721b7f359fe7da1e82606dc9ec30cbd99338f5780e7a0d33a09d029602aea7712a49b532cddbad1ccbdb0a8fb42ab9abb20e12b335b027a69bb92bb8c3120e68138f16086244832b3770fbaf0d7c119faef295f9bfc3e43bf19842cf4c5185dcdf14380dcc579bbc8d23bde4b23eb3848e1f99c47a082580d12b60985637988e0aed4bf21dca689920fd04d3987f87139c79265f08723f21d449fbe291b6618c479cd0eb7f1bec8e08019ba3b6b17ac560f0676eae3fd904d487681984a717ca786f887b44d7858e254ffb47cbcef33e2fcf032386253c25353afba3dc536e26880b3926a0c0f1216192f35484f52898a91a7b7d10025262c3f4153698d8e92c0c2c4dde1ebeef0163233717f8eaeb4cccdd8dff0fc0005182c333d41436971777d85aec1c4c5cdd5d9dce6e9f0f60000000000001023314a01",
        "00e74bd28218481de52cf7f2593ea837bda52ef4cf4a904dd04b13ec5367dbe157b0ecaff3bcdfe3ed90440776104ebf4073a41eef8d87211afb36e3f7fc8d5da5983c6282f7e5179de7d0cac2a14d020973e79178bd74cda2632bfd320230e590d5f4ea8d941878af9d7597f7ed3f9ccfdc55d2eccc2dbd80084784f38ff004633f1d148ee90935bb718c949929cc72a4e74001394ca30c4ff04f55eafd38539c23c877f1502fb753b09e93531a8417f2d2267480c2c12b693d8d66b151ddf34c94f7d22f4b70c4a1d8d04a5012997119ad46cf64fbb6a94fb80966f95f6fed2592314a8651d9548c11bfd112b69ebe3f588a5a090d07d3cf50f641f2f3678b4e80b5f41c2dc9a41b2700eaaf07675f33a79d2c9de6554b4003af7389528baa3d574f4a6e3e398364e63423f074ba9de007779467536051e83c2ace67441af00be9b94a5c716c68643775c68f358776767429ccd545a0506fc1724e8c6aee40d3aa60172d8164e004620f192908380011cd9789e9776740681b0cf113341f7f592e8c633e7b6811494a19d21f3b1fcdba8cbf1edeeb01210532a6321b3028a930e3f4d45ead9cb7802c61dcfe39a6b88a28547c45b8e87404fd5c228605cd254b2d427024605b01bec2e39ebf6ec0c7d4bc089b69baf2cb7aed4cd435ce1ae2c35cf2e1752faad1ffde8b7d0ea8b8b7ceaba77bf959fb7f8ee6992abc386ce6b17b50edb5c3f7690d502d738dd2a0833695860ae17be51ec7b1e1acb04c91dce9789f95648841e5de7aca1e0aa371cf123ed81c42b6b38a24b988b261e1ccb9168f69b281a21311172dad560012cda3b88fc48ad0e1bcc10708bce08317805096d389bbd0427a454a4a3576bdd281a9d3ba97ebdd0961c88ff08c1fc91178434873797199ed9becfcaab52c89aacb102586e161ffb162f37b4e9f075f2d3d664f00468133cd6872723721e01484ed79a7bc10b099b6db54c26071ae153fc731962b07dfbd80616a5d39b697d81c484799a6e97c8665d4ec0c5816fa104b1e7e9dde331d2c06c84806bf97c688dbf7135a3bf13095a6e00ec7eebf9246965d0d9a899c2c6eb4b5646a718b89233794fced837fe26d1b1e627ea16858266324e2afe66cd6064cb3a724705bc80a7abaa28523b09900c510fadd6280193e41ec98461f4e54bfe75c1f548ae57a68c53a14f3894329f4b93d544c20f12a390ed6d6399b128c22a49692e6c231059c102860cf2d5321ecaa831c64eb25da9a125ac2d612bf7301833e330ab728167a0deb3649f3254a2a1a4f2e6204e8cbe59143aa3e39be66084d7b0a85e45e2a82389f63d29ad8ae05d641ae3ffb63bd7881d60378921cb5d03ac64b91f451823bafcb8daaaf4d261c365b3875a5a23ce06bd818185c0d93b479fd71e145a9faababdedfc966d17f0c01d5604fb95aa2cabae8ec2b79f66d980a36388c16949567be7a2ae177450c64daa8d341ccd0e7906c7a6018032f2a3e2dd9bc715a920647d3e21f72701c804aec8fd6e6ede715de985f4bd4a708e38b037bb884b39872f17b91a8235a7c53c78c7fd9bf7ab0b07d29073ac79c0bc409a339f918d0e875c82def2c6f8d75f9b4de9a6435f9ef89a04ce5acef98fbde607cef28fe9a4e88fc0508deafa46a80c51e5d3696fc894ac56246a0bc123e59551a881e1d9dff6940d31c8621e3f2518db36cbc3adc6e0ae98138c0622f44c06e785062088851fc3a369faefde87fe859b70adb81e5155f5b3c03440529b8271d7072e5c0982c208b08b7aa597fa2e469aba9311317abc583773fe50e6ef6afbadde93c66bc49bba2068956ebc148926901bce99a190bf2ff31c852d1"
      ],
      "sequence": 4294967294
    }
  ],
  "vout": [
    {
      "value": 1.0,
      "n": 0,
      "scriptPubKey": {
        "asm": "OP_RETURN 54120b73528e91f8d47b2fd472d476a77ea413d62f55a5f4ae527dd496d4bead f6e33154ea38900c3c2e6781e3ec1e46cc1703f97d724724b3f3f181745fa7d6d6c31174ca18b02c1c0e47a1c3cc3e66ec3723d95d52670493d3d1a1547f87f6b6a37114aa78d04c7c6e27c1a3ac5e068c5743b93d320764f3b3b1c1341fe796968351348a58f06c5c4e07e1838c7e26ac7763991d122744d39391e1143fc7b67663b1d46ab8108cbcaee701636c9ec64c978379fdf2c7a433737101f4df2756564391f44a9830ac9c8ec721434cbee66cb7a359ddd2e78413535121d4ff07763623f1942af850ccfceea741232cde860cd7c339bdb287e473333141b49f67161603d1b40ad870ecdcce8761030cfea62cf7e3199d92a7c45313116194bf4736f6e33154ea38900c3c2e6781e3ec1e46cc1703f97d724724b3f3f181745fa7d6d6c31174ca18b02c1c0e47a1c3cc3e66ec3723d95d52670493d3d1a1547f87f6b6a37114aa78d04c7c6e27c1a3ac5e068c5743b93d320764f3b3b1c1341fe796968351348a58f06c5c4e07e1838c7e26ac7763991d122744d39391e1143fc7b67663b1d46ab8108cbcaee701636c9ec64c978379fdf2c7a433737101f4df2756564391f44a9830ac9c8ec721434cbee66cb7a359ddd2e78413535121d4ff07763623f1942af850ccfceea741232cde860cd7c339bdb287e473333141b49f67161603d1b40ad870ecdcce8761030cfea62cf7e3199d92a7c45313116194bf4736f6e33154ea38900c3c2e6781e3ec1e46cc1703f97d724724b3f3f181745fa7d6d6c31174ca18b02c1c0e47a1c3cc3e66ec3723d95d52670493d3d1a1547f87f6b6a37114aa78d04c7c6e27c1a3ac5e068c5743b93d320764f3b3b1c1341fe796968351348a58f06c5c4e07e1838c7e26ac7763991d122744d39391e1143fc7b67663b1d46ab8108cbcaee701636c9ec64c978379fdf2c7a433737101f4df2756564391f44a9830ac9c8ec721434cbee66cb7a359ddd2e78413535121d4ff07763623f1942af850ccfceea741232cde860cd7c339bdb287e473333141b49f67161603d1b40ad870ecdcce8761030cfea62cf7e3199d92a7c45313116194bf4736f6e33154ea38900c3c2e6781e3ec1e46cc1703f97d724724b3f3f181745fa7d6d6c31174ca18b02c1c0e47a1c3cc3e66ec3723d95d52670493d3d1a1547f87f6b6a37114aa78d04c7c6e27c1a3ac5e068c5743b93d320764f3b3b1c1341fe796968351348a58f06c5c4e07e1838c7e26ac7763991d122744d39391e1143fc7b67663b1d46ab8108cbcaee701636c9ec64c978379fdf2c7a433737101f4df2756564391f44a9830ac9c8ec721434cbee66cb7a359ddd2e78413535121d4ff07763623f1942af850ccfceea741232cde860cd7c339bdb287e473333141b49f67161603d1b40ad870ecdcce8761030cfea62cf7e3199d92a7c45313116194bf4736f6e33154ea38900c3c2e6781e3ec1e46cc1703f97d724724b3f3f181745fa7d6d6c31174ca18b02c1c0e47a1c3cc3e66ec3723d95d52670493d3d1a1547f87f6b6a37114aa78d04c7c6e27c1a3ac5e068c5743b93d320764f3b3b1c1341fe796968351348a58f06c5c4e07e1838c7e26ac7763991d122744d39391e1143fc7b67663b1d46ab8108cbcaee701636c9ec6318f31e4e71dab99f2e1a940d0b051a84cddab4f8807cda6f0e642521dc4e8f2",
        "hex": "6a2054120b73528e91f8d47b2fd472d476a77ea413d62f55a5f4ae527dd496d4bead4db004f6e33154ea38900c3c2e6781e3ec1e46cc1703f97d724724b3f3f181745fa7d6d6c31174ca18b02c1c0e47a1c3cc3e66ec3723d95d52670493d3d1a1547f87f6b6a37114aa78d04c7c6e27c1a3ac5e068c5743b93d320764f3b3b1c1341fe796968351348a58f06c5c4e07e1838c7e26ac7763991d122744d39391e1143fc7b67663b1d46ab8108cbcaee701636c9ec64c978379fdf2c7a433737101f4df2756564391f44a9830ac9c8ec721434cbee66cb7a359ddd2e78413535121d4ff07763623f1942af850ccfceea741232cde860cd7c339bdb287e473333141b49f67161603d1b40ad870ecdcce8761030cfea62cf7e3199d92a7c45313116194bf4736f6e33154ea38900c3c2e6781e3ec1e46cc1703f97d724724b3f3f181745fa7d6d6c31174ca18b02c1c0e47a1c3cc3e66ec3723d95d52670493d3d1a1547f87f6b6a37114aa78d04c7c6e27c1a3ac5e068c5743b93d320764f3b3b1c1341fe796968351348a58f06c5c4e07e1838c7e26ac7763991d122744d39391e1143fc7b67663b1d46ab8108cbcaee701636c9ec64c978379fdf2c7a433737101f4df2756564391f44a9830ac9c8ec721434cbee66cb7a359ddd2e78413535121d4ff07763623f1942af850ccfceea741232cde860cd7c339bdb287e473333141b49f67161603d1b40ad870ecdcce8761030cfea62cf7e3199d92a7c45313116194bf4736f6e33154ea38900c3c2e6781e3ec1e46cc1703f97d724724b3f3f181745fa7d6d6c31174ca18b02c1c0e47a1c3cc3e66ec3723d95d52670493d3d1a1547f87f6b6a37114aa78d04c7c6e27c1a3ac5e068c5743b93d320764f3b3b1c1341fe796968351348a58f06c5c4e07e1838c7e26ac7763991d122744d39391e1143fc7b67663b1d46ab8108cbcaee701636c9ec64c978379fdf2c7a433737101f4df2756564391f44a9830ac9c8ec721434cbee66cb7a359ddd2e78413535121d4ff07763623f1942af850ccfceea741232cde860cd7c339bdb287e473333141b49f67161603d1b40ad870ecdcce8761030cfea62cf7e3199d92a7c45313116194bf4736f6e33154ea38900c3c2e6781e3ec1e46cc1703f97d724724b3f3f181745fa7d6d6c31174ca18b02c1c0e47a1c3cc3e66ec3723d95d52670493d3d1a1547f87f6b6a37114aa78d04c7c6e27c1a3ac5e068c5743b93d320764f3b3b1c1341fe796968351348a58f06c5c4e07e1838c7e26ac7763991d122744d39391e1143fc7b67663b1d46ab8108cbcaee701636c9ec64c978379fdf2c7a433737101f4df2756564391f44a9830ac9c8ec721434cbee66cb7a359ddd2e78413535121d4ff07763623f1942af850ccfceea741232cde860cd7c339bdb287e473333141b49f67161603d1b40ad870ecdcce8761030cfea62cf7e3199d92a7c45313116194bf4736f6e33154ea38900c3c2e6781e3ec1e46cc1703f97d724724b3f3f181745fa7d6d6c31174ca18b02c1c0e47a1c3cc3e66ec3723d95d52670493d3d1a1547f87f6b6a37114aa78d04c7c6e27c1a3ac5e068c5743b93d320764f3b3b1c1341fe796968351348a58f06c5c4e07e1838c7e26ac7763991d122744d39391e1143fc7b67663b1d46ab8108cbcaee701636c9ec6318f31e4e71dab99f2e1a940d0b051a84cddab4f8807cda6f0e642521dc4e8f2",
        "type": "nulldata"
      }
    },
    {
      "value": 499992.8817,
      "n": 1,
      "scriptPubKey": {
        "asm": "1 92d27cc0d6a4db1d8475aa952aac21f1611e3570e9cae166607362ba57068e69",
        "hex": "512092d27cc0d6a4db1d8475aa952aac21f1611e3570e9cae166607362ba57068e69",
        "reqSigs": 1,
        "type": "witness_v1_scripthash",
        "addresses": [
          "3QJmnh"
        ]
      }
    }
  ],
  "blockhash": "86d3aa2e412fd1c0ad7fd5d7d84b7ddcf41a8bf652344eaa49dd1e6444ae5dce",
  "confirmations": 1,
  "time": 1764176858,
  "blocktime": 1764176858
}