{
  "hex": "01000000000101a88c93d5eb6b9a30fc64f178eee39a484f4f9470272a096a0485cbf9be76c7a70100000000feffffff0200e1f50500000000fdd5046a207390aa5a02bb38fd18c7d74c9e85281b1304f5d6662762c7f3e6375860cfc96d4db0045301666ee5502eae8835a10d76a421175199f34ba149fc294eb32befdd36e3df7321464ec5700e8ea815812d5684013771b9d36b8169dc096e930bcffd16c3ff1341262ea5106eeec875e14d36e4615711d9b30be109bc690ef36baf9d76a39f3361060e85304ecee855c16d16c4417731f9932bc1299c492ed34b8fbd5683bfd381e6ee65d0ae2e08b5218df624a197d11973cb21c97ca9ce33ab6f5db6635ff3a1c6ce45f08e0e289501add60481b7f13953eb01e95c89ee138b4f7d96437f93c1a6ae2590ee6e48f561cdb664e1d79159338b61893ce98e73eb2f1df6231fb3e1868e05b0ce4e68d541ed9644c1f7b17913ab41a91cc9ae53cb0f3dd6033f5301666ee5502eae8835a10d76a421175199f34ba149fc294eb32befdd36e3df7321464ec5700e8ea815812d5684013771b9d36b8169dc096e930bcffd16c3ff1341262ea5106eeec875e14d36e4615711d9b30be109bc690ef36baf9d76a39f3361060e85304ecee855c16d16c4417731f9932bc1299c492ed34b8fbd5683bfd381e6ee65d0ae2e08b5218df624a197d11973cb21c97ca9ce33ab6f5db6635ff3a1c6ce45f08e0e289501add60481b7f13953eb01e95c89ee138b4f7d96437f93c1a6ae2590ee6e48f561cdb664e1d79159338b61893ce98e73eb2f1df6231fb3e1868e05b0ce4e68d541ed9644c1f7b17913ab41a91cc9ae53cb0f3dd6033f5301666ee5502eae8835a10d76a421175199f34ba149fc294eb32befdd36e3df7321464ec5700e8ea815812d5684013771b9d36b8169dc096e930bcffd16c3ff1341262ea5106eeec875e14d36e4615711d9b30be109bc690ef36baf9d76a39f3361060e85304ecee855c16d16c4417731f9932bc1299c492ed34b8fbd5683bfd381e6ee65d0ae2e08b5218df624a197d11973cb21c97ca9ce33ab6f5db6635ff3a1c6ce45f08e0e289501add60481b7f13953eb01e95c89ee138b4f7d96437f93c1a6ae2590ee6e48f561cdb664e1d79159338b61893ce98e73eb2f1df6231fb3e1868e05b0ce4e68d541ed9644c1f7b17913ab41a91cc9ae53cb0f3dd6033f5301666ee5502eae8835a10d76a421175199f34ba149fc294eb32befdd36e3df7321464ec5700e8ea815812d5684013771b9d36b8169dc096e930bcffd16c3ff1341262ea5106eeec875e14d36e4615711d9b30be109bc690ef36baf9d76a39f3361060e85304ecee855c16d16c4417731f9932bc1299c492ed34b8fbd5683bfd381e6ee65d0ae2e08b5218df624a197d11973cb21c97ca9ce33ab6f5db6635ff3a1c6ce45f08e0e289501add60481b7f13953eb01e95c89ee138b4f7d96437f93c1a6ae2590ee6e48f561cdb664e1d79159338b61893ce98e73eb2f1df6231fb3e1868e05b0ce4e68d541ed9644c1f7b17913ab41a91cc9ae53cb0f3dd6033f5301666ee5502eae8835a10d76a421175199f34ba149fc294eb32befdd36e3df7321464ec5700e8ea815812d5684013771b9d36b8169dc096e930bcffd16c3ff1341262ea5106eeec875e14d36e4615711d9b30be109bc690ef36baf9d76a39f3361060e85304ecee855c16d16c4417731f9932bc1299c492ed34b8fbd5683bfd381e6ee65d0ae2e08b5218df624a1979e299692b684e725ecdc24a307a1f11bae627598cdb68687f52c295f8d4d96c350200e76792d0000225120f2d2d07f571cf06befc16995a96ded0f1bab23f4a5d41df1f47fad1c67324ee802fd75097ddc6e90c01ccd528e2a479eab34bc262e643b0ed1e7cd44b65b5cc10f28d32bb0b4f9030d369f28350cdf1c3a3ef66db8dab79d272a40c2b2aca209d674716043fd1af1e8d07f3067b2c2780ecb3b215c35fd99c54f55a6d60a8030f3eee2125faa3f278685279d83d146a9b3522628031269f4b2a14451ba094442d48489c12eeabe71651fc6555e9bc6be6eced6555acfdcba9d107721da7db32093fb2fb12181b7609f65680226490d16b85412826e10217e5098560c38b2f50b259ddf89fe51554f88339bd2573f691884987768aa759917b912f260bea26b1dcf8882843dfb7798ffcbb6354833452a6edfec99a40ebd8b4c5a49486d05df341228532498fcb4e3d4ba9019d845111331960ca4f4d6bc7cd4d426c4e712f8ae097dff392ceb96504780c7de3514d66a0ff4d6d5590fc128bc0cf397fd233e239c8c369f4596a973ce2fae49e435b27d8f2c2d67f6846bd8c67a28660a94b1571c1fc77d1d93de635a590d22ccd2c42dfeedc375f03805823ea962aabd6f321a00eddf9ad2444f71deeafa78af0ecba1675d49183a3608d9c25e636826c7fe0192e1ad46316f7f0973201b5d26eaa4ee040f93f25645fbc89c425ff91ca0b6f69a577753fe3ad402df8d36bc243c1936c8c39fc375eb5b2f18444e6094d9a150b932d2a7cb78ad7987ad4271b7173feb94903157d636e6d860558cec53f95ac4025c29841448cf8b22a47bf4d9a4b95fd62db1a98593d2387f0974b0157d63a96e0993ebf83e8e79009945bf4a107f5fd4929540eb3ce3db1f836109585d9114ea4b1a432f3dd494d262d3cb855a03e090ce8fe32a1f7ba163c61c7aafdeb2a45ee0e6d1abaf4c80cecf94e5e7cc1ae610bbb6bdafdaedc85c65ef1ad2e4488c7c64995d97391f9007c2d513675f9859e267e8db5e41f27e379d5834d2f20c0660a89beaefb2a87ed8913e3ea90ab973b708e96bc38ad2d14bbc272464231d6d7b873ac16b679b5cf07bb4a1121d562fe230c9349a93236fcf82dd21d0817f954c21c31ac01dbd1a8748d15b37bb33762c28a66369e2ec507cd4e2d8540a0e2a665b456aac646921b1f73b93520881c6e6c04a8d5a251ed3c9e612b0802146b4db3c88b7042a7933ac82d04eb61789906b8ae6559d839ee5c3d835a4a8edd6e52cc32c5b2b682420df3485c677b7a38ea10de440b627b85e07446e45c35c7a2b7b665b730d481df4d4ef6d945f8d5069816775f0d98620d3341b841f5a285cf24047e42ffad76e1ba06225e17f8d297e2d61cca63abd126820c6c0be0b75ad5578f78f774bc5e616f3c5c6da848fae7285b675dda1660534be887e864581e77450f1aa6a4278cd956ac73febc17d1f54aaecd53042e51479caa243e4cdb0274b0956c64fede94ada0650716965419f5cd4b41080daddd49a3ab95701ea3aa88b882782508a41672beff9882337e813c953991b5fe06715839a68d0a4635e99710472162daff19924e42d25abf7057f66d2f1f311d844d258dbb3915028433d517351977605f43a06c4e3ec49ffffb8343f05a5699fe3eeade550c5235eb63c38eaab9ff55964444dbce0baf85de519d159772918c44a2330ff7121205e2a33c1c4e3fa99a785b0e9050b3c350eeb2b0dcb3c7dcc85430db6fcc154a21e4a659d4b0e35667bae0b35a6b3eaff2571546e72c99c404d67d74b2ef8b4b31783bd0c3da9f98772c0a9ed6eb3caecd9211ef6c1418bfde87d16467900e544129212af2f9aff6822f371d4ca55f598396d811ba15b2a980260f99753391ddce062097c21be24699158169fea5f5e0b7c4f0a3212c3cb5380e0e89d012c2de18da9e6b282c04d74fe88df153ccd93712d6b3d38f08e298fc7f4a233fab38134efd3cd6a8d84af3c6f5d10639016fce3be16cb8c547aa71b1fa7c7ce7bdf8c83e5930c01856a36b8a5ef3532584811d7f9b61b5869be019ec39b1156e818b94c20710fd9ed32eedd928a49d68c4022f324c6f59ad6b0a3e207353073d5756f94bce6d603dc2e62c144dd27f581082bc472f7eed7e45f7c38b19b512a490f37f1c438c2e9142b54275682a8a196373d1c9e96d58151212c87945233792c5d55031e4737a9e6896b1e1c885a0cb7529cef135c660067939abda3ff20a281f18ad4ab7589bf359d718cd9d31a56c8d2f0ddd9ff0264b046a7bff0b0a8f34245e60f2640cc6c7c214391e3fb820fcdfb261ec292617695e59b82f4c208f7750b5e53bd70b81ce9159e031fca5a1754141a1be7c2cf13e5c07e3a405c9dd94baf6ef5e05288ffb3b11a4b61d79ec69f09ff70916091ae8963bc669755efbc11c78f0c2296cb08b3305b8dafb2579e85ef60f58d255ea6d9acbdcd118a1a1ec5ea51362129690e1d114a1c84e26c7df46f925214449825ae39d6bd555fefb519b7be06c4701b0b7872b1080c6943681654d70377a91f015c984d6e93616bb7f7a66e9e5a5d9521f27c8cde11d96e87e5358761c9c0f24b68942a7ce658989e3e769bcc90b62e0863993e78490cafbdd41cb2b3c59e0da03d3b79408b70dfcd2aebae7b07452253645313d6123ec688828ecca5ca9baa4a514320f14511fbf99ddf5a4622866530c47475c13cebd94abb0bcd1ff0db3fcc52abae0d09ca6b7fd44bd0b5760534de3563dcfcecb1fe4d31976e4c2fcb5755142e931701846d60050ebce05f68cfd8474ec3c1aa928b7f389146d82e7b3097c2a68da3eb2d625502948da855f7f639d3a9c8be772928d5496f9721c2ec7b8d1d7ed83e7e859783fdd8043c4fb29789c8703a549a7e684bbfe90739cf41474187d8abaddad98faf8f74e3f4c15ec47c912fa5de1c1993b1437a3d9aa0827f0c744f17ba5c5844ecae5cfcece527409c9837f02cb1ce3058df1f75f45c48359fb234d6e2c29e871e80b383097f97dd8efa47700a8f248b840489e180af03d204d3c1bbdecbbedf6e6a492085236aa43cf657d39084ca094fcc4fc4747d69e4a52726abb47f7febd2b89b58d108d855deecc2a9335b5600228f735f5edef3254dfd4989a46b5f9312c7995114dd6e0bc5e0b6b96d6b92518659048ab2119c0dee378dc3dc1d06925060d9cfdf0789fa4e62389762b77436312597434d874b7122fd596631b9c1d29ed919266ad7b11111e45761156d32d1a75bc5868775b618951e2e422c98a81ac42aa671ad68e99b75d0f687a3d80cdf9290aa70ce5e4d3a301f075423592d8fd7ced3080be47d16f6d88ac6bef840a451a27f5554f3163eb41bad8acbaddea78db97c08201760b20dab3bf7af0d1819335355758b909b9ea5c2d2104a5e686f88899093afb3c6e2ec0512366ba9c4dee3f0f90a34475184abc7e7000000000000000000000000000000000000000000000000000000000000000000000e1c262e01fd210500d5d2d689e846a41a8f02d4f199827fc56b0a11c269341e311e9c08242219d263578255866b2248ad41f407488f56b744d9dc1b3b017168b0ce4f6f5c99a999aa77208be1e64bb789a9fe1f71bd2070ce23662fce5f0f7b8eababfcb619e4ace2f04d83a760f1245d0d460f1560ecac46013f494b800a9b756739228ab3b51c94611c8864df3061fd385306dfd6c3a19de63b2b2f0d337999cf159c3024ed321106a489ccf9970dfc7fdc1680a6eae4a548f26c414d09b18bbc53acf7c9aaa6925b53cb7ce14b8fd12cb1f9360d51d22fc0de792f96ae2aa04143d3003942294bb53d1b5e712cf9b4f7f5fbf299795b7a64afdcd422fc8c9d6e7c3014108695f43c9b13377d8b26682680b43f0b7ad50604b5f506c8a647ba39164ef07ada4c7544e4ccff99227dbc824482eb27b53d5908f2a8ca48e12957ed5139531ead26a366e6e8e4e17143b0264f56695ce7d9ab719ace45cbc7ef5337244267207237ee5257d78ed8bdd712c0e1f6738bfc515f8a488ac5db13e2f914ad113ad6701661a88357673c01f9b3e179847df0e87a116c21dc1a8a79f822833feb58ee0fcd83cbf740cf2e046386b4a230cf15a04e7fa54369ab9b359cb687dbfeae0ca242e8d03faf7ac4efa952f2abd4a27f98d3cb54639913ddbc06f2fbba4ed19dce2fc522d0cf44610c1d5af600b8b7ee8a138e68fe96bbd983e6f395c0692d49bf9a0c2fa1aec87c5d5b23148c293e22c5936fe974beadb163f327bed514b246a75d59d127df2a1ada4ba1505cab1c25e10d24c717f0254a64842181a9c792788082e76c46c142d277e5c053fff919a8b334ad67f41f3d807997a0448ce4e1cbb96380ecd59a4f680e8c25ff39978528fa0fb3310dfd54130a78982c24c81d9a7590df09a3038959da4bd15d994f729ada5e50c97f5b9fb2caa1986e17742b6b57db6488b16027e8b81cc8b2bd9b29b10ada7158d82fa31bc3b73c53330b1772a4096e63cfbb999df384f270189fa6e3ea8ce692549230d47cbef6f8c91517f261785405ab0adfbb2fe6e5bcc81d8bea051b224a0baba52fd5126b56e603179b18ef7c4ccd44e9cab5bb6d6211c41c586e736bb98cd93a452105727c99287c89321b6367ac5f31510fd0673a3bbe3cfb4e198a79b537cb497858017a10bcc55230dcc7500772c2c9e3f55dbe97597d77ad1ed1199907e2b774cd304e8ec05e9b0d8466006c47639c20ba75cf27ad0e57e6d20014ec36c68ca85993d3a6d9906f3ee94f9b53b54f6ccbc8bc14d2cc0d0e8c7befad755d67c2143a3101769360f27d0e933b07cc0a9a0628cac33f7ec9d398fa5701011473986e844b0702f3da32651c8a1dd8edcfa17b04d7761732b5f37e8bec6e05d3e8b31e8b3b7d81ad6e8f518a2f757aa8b41ede475f3dfff32b5ef30e499e04960d77228e0ebe966adc59e1c1d9e132f7fc58fd2a996ac009e1714a8824dfd2d03087e45f59c0c30aebee74a8a3f26c02e0a89e6bff873893585e158d050ccc37e0f19cb1307fbbffaad044892a62f4fcdc2d49f5143d90241c15732f924df85b2ec12754cdfa35b351a52da6f6a608543775663e64d653a1720bacd438b700dddcd2e82949838da582001df3cabbea6970654ea35a99f2376d10c75ecb56c5fa6facae922b3299781c85f4954793f6379c10188517884a49d8a2f51b782ada9abc77c7a51eb15f31428dcd597b3f8248ded230ae9b6b091b663264cd12fe985ad6b39a05e7373131981ba856fb3df0db97fe8bb38de60c248b54ffd0e0ed4f6a3afbea6a1e6ef8fd7eb208b4f18ea191d28baec231a900848ce6f4f2461d87bad0fe726a0dcbdd4e928ef00d9b35000000",
  "txid": "1224c29cdc92e639ba23bed8ba5576f9a268dfa6d3d763397c384d960815106e",
  "hash": "401e794256faa2d8ee1e38e8c4ac3528ab2940f073df66fe44054cbaf8decc22",
  "size": 5085,
  "vsize": 2278,
  "version": 1,
  "locktime": 53,
  "vin": [
    {
      "txid": "a7c776bef9cb85046a092a2770944f4f489ae3ee78f164fc309a6bebd5938ca8",
      "vout": 1,
      "scriptSig": {
        "asm": "",
        "hex": ""
      },
      "txinwitness": [
        "7ddc6e90c01ccd528e2a479eab34bc262e643b0ed1e7cd44b65b5cc10f28d32bb0b4f9030d369f28350cdf1c3a3ef66db8dab79d272a40c2b2aca209d674716043fd1af1e8d07f3067b2c2780ecb3b215c35fd99c54f55a6d60a8030f3eee2125faa3f278685279d83d146a9b3522628031269f4b2a14451ba094442d48489c12eeabe71651fc6555e9bc6be6eced6555acfdcba9d107721da7db32093fb2fb12181b7609f65680226490d16b85412826e10217e5098560c38b2f50b259ddf89fe51554f88339bd2573f691884987768aa759917b912f260bea26b1dcf8882843dfb7798ffcbb6354833452a6edfec99a40ebd8b4c5a49486d05df341228532498fcb4e3d4ba9019d845111331960ca4f4d6bc7cd4d426c4e712f8ae097dff392ceb96504780c7de3514d66a0ff4d6d5590fc128bc0cf397fd233e239c8c369f4596a973ce2fae49e435b27d8f2c2d67f6846bd8c67a28660a94b1571c1fc77d1d93de635a590d22ccd2c42dfeedc375f03805823ea962aabd6f321a00eddf9ad2444f71deeafa78af0ecba1675d49183a3608d9c25e636826c7fe0192e1ad46316f7f0973201b5d26eaa4ee040f93f25645fbc89c425ff91ca0b6f69a577753fe3ad402df8d36bc243c1936c8c39fc375eb5b2f18444e6094d9a150b932d2a7cb78ad7987ad4271b7173feb94903157d636e6d860558cec53f95ac4025c29841448cf8b22a47bf4d9a4b95fd62db1a98593d2387f0974b0157d63a96e0993ebf83e8e79009945bf4a107f5fd4929540eb3ce3db1f836109585d9114ea4b1a432f3dd494d262d3cb855a03e090ce8fe32a1f7ba163c61c7aafdeb2a45ee0e6d1abaf4c80cecf94e5e7cc1ae610bbb6bdafdaedc85c65ef1ad2e4488c7c64995d97391f9007c2d513675f9859e267e8db5e41f27e379d5834d2f20c0660a89beaefb2a87ed8913e3ea90ab973b708e96bc38ad2d14bbc272464231d6d7b873ac16b679b5cf07bb4a1121d562fe230c9349a93236fcf82dd21d0817f954c21c31ac01dbd1a8748d15b37bb33762c28a66369e2ec507cd4e2d8540a0e2a665b456aac646921b1f73b93520881c6e6c04a8d5a251ed3c9e612b0802146b4db3c88b7042a7933ac82d04eb61789906b8ae6559d839ee5c3d835a4a8edd6e52cc32c5b2b682420df3485c677b7a38ea10de440b627b85e07446e45c35c7a2b7b665b730d481df4d4ef6d945f8d5069816775f0d98620d3341b841f5a285cf24047e42ffad76e1ba06225e17f8d297e2d61cca63abd126820c6c0be0b75ad5578f78f774bc5e616f3c5c6da848fae7285b675dda1660534be887e864581e77450f1aa6a4278cd956ac73febc17d1f54aaecd53042e51479caa243e4cdb0274b0956c64fede94ada0650716965419f5cd4b41080daddd49a3ab95701ea3aa88b882782508a41672beff9882337e813c953991b5fe06715839a68d0a4635e99710472162daff19924e42d25abf7057f66d2f1f311d844d258dbb3915028433d517351977605f43a06c4e3ec49ffffb8343f05a5699fe3eeade550c5235eb63c38eaab9ff55964444dbce0baf85de519d159772918c44a2330ff7121205e2a33c1c4e3fa99a785b0e9050b3c350eeb2b0dcb3c7dcc85430db6fcc154a21e4a659d4b0e35667bae0b35a6b3eaff2571546e72c99c404d67d74b2ef8b4b31783bd0c3da9f98772c0a9ed6eb3caecd9211ef6c1418bfde87d16467900e544129212af2f9aff6822f371d4ca55f598396d811ba15b2a980260f99753391ddce062097c21be24699158169fea5f5e0b7c4f0a3212c3cb5380e0e89d012c2de18da9e6b282c04d74fe88df153ccd93712d6b3d38f08e298fc7f4a233fab38134efd3cd6a8d84af3c6f5d10639016fce3be16cb8c547aa71b1fa7c7ce7bdf8c83e5930c01856a36b8a5ef3532584811d7f9b61b5869be019ec39b1156e818b94c20710fd9ed32eedd928a49d68c4022f324c6f59ad6b0a3e207353073d5756f94bce6d603dc2e62c144dd27f581082bc472f7eed7e45f7c38b19b512a490f37f1c438c2e9142b54275682a8a196373d1c9e96d58151212c87945233792c5d55031e4737a9e6896b1e1c885a0cb7529cef135c660067939abda3ff20a281f18ad4ab7589bf359d718cd9d31a56c8d2f0ddd9ff0264b046a7bff0b0a8f34245e60f2640cc6c7c214391e3fb820fcdfb261ec292617695e59b82f4c208f7750b5e53bd70b81ce9159e031fca5a1754141a1be7c2cf13e5c07e3a405c9dd94baf6ef5e05288ffb3b11a4b61d79ec69f09ff70916091ae8963bc669755efbc11c78f0c2296cb08b3305b8dafb2579e85ef60f58d255ea6d9acbdcd118a1a1ec5ea51362129690e1d114a1c84e26c7df46f925214449825ae39d6bd555fefb519b7be06c4701b0b7872b1080c6943681654d70377a91f015c984d6e93616bb7f7a66e9e5a5d9521f27c8cde11d96e87e5358761c9c0f24b68942a7ce658989e3e769bcc90b62e0863993e78490cafbdd41cb2b3c59e0da03d3b79408b70dfcd2aebae7b07452253645313d6123ec688828ecca5ca9baa4a514320f14511fbf99ddf5a4622866530c47475c13cebd94abb0bcd1ff0db3fcc52abae0d09ca6b7fd44bd0b5760534de3563dcfcecb1fe4d31976e4c2fcb5755142e931701846d60050ebce05f68cfd8474ec3c1aa928b7f389146d82e7b3097c2a68da3eb2d625502948da855f7f639d3a9c8be772928d5496f9721c2ec7b8d1d7ed83e7e859783fdd8043c4fb29789c8703a549a7e684bbfe90739cf41474187d8abaddad98faf8f74e3f4c15ec47c912fa5de1c1993b1437a3d9aa0827f0c744f17ba5c5844ecae5cfcece527409c9837f02cb1ce3058df1f75f45c48359fb234d6e2c29e871e80b383097f97dd8efa47700a8f248b840489e180af03d204d3c1bbdecbbedf6e6a492085236aa43cf657d39084ca094fcc4fc4747d69e4a52726abb47f7febd2b89b58d108d855deecc2a9335b5600228f735f5edef3254dfd4989a46b5f9312c7995114dd6e0bc5e0b6b96d6b92518659048ab2119c0dee378dc3dc1d06925060d9cfdf0789fa4e62389762b77436312597434d874b7122fd596631b9c1d29ed919266ad7b11111e45761156d32d1a75bc5868775b618951e2e422c98a81ac42aa671ad68e99b75d0f687a3d80cdf9290aa70ce5e4d3a301f075423592d8fd7ced3080be47d16f6d88ac6bef840a451a27f5554f3163eb41bad8acbaddea78db97c08201760b20dab3bf7af0d1819335355758b909b9ea5c2d2104a5e686f88899093afb3c6e2ec0512366ba9c4dee3f0f90a34475184abc7e7000000000000000000000000000000000000000000000000000000000000000000000e1c262e01",
        "00d5d2d689e846a41a8f02d4f199827fc56b0a11c269341e311e9c08242219d263578255866b2248ad41f407488f56b744d9dc1b3b017168b0ce4f6f5c99a999aa77208be1e64bb789a9fe1f71bd2070ce23662fce5f0f7b8eababfcb619e4ace2f04d83a760f1245d0d460f1560ecac46013f494b800a9b756739228ab3b51c94611c8864df3061fd385306dfd6c3a19de63b2b2f0d337999cf159c3024ed321106a489ccf9970dfc7fdc1680a6eae4a548f26c414d09b18bbc53acf7c9aaa6925b53cb7ce14b8fd12cb1f9360d51d22fc0de792f96ae2aa04143d3003942294bb53d1b5e712cf9b4f7f5fbf299795b7a64afdcd422fc8c9d6e7c3014108695f43c9b13377d8b26682680b43f0b7ad50604b5f506c8a647ba39164ef07ada4c7544e4ccff99227dbc824482eb27b53d5908f2a8ca48e12957ed5139531ead26a366e6e8e4e17143b0264f56695ce7d9ab719ace45cbc7ef5337244267207237ee5257d78ed8bdd712c0e1f6738bfc515f8a488ac5db13e2f914ad113ad6701661a88357673c01f9b3e179847df0e87a116c21dc1a8a79f822833feb58ee0fcd83cbf740cf2e046386b4a230cf15a04e7fa54369ab9b359cb687dbfeae0ca242e8d03faf7ac4efa952f2abd4a27f98d3cb54639913ddbc06f2fbba4ed19dce2fc522d0cf44610c1d5af600b8b7ee8a138e68fe96bbd983e6f395c0692d49bf9a0c2fa1aec87c5d5b23148c293e22c5936fe974beadb163f327bed514b246a75d59d127df2a1ada4ba1505cab1c25e10d24c717f0254a64842181a9c792788082e76c46c142d277e5c053fff919a8b334ad67f41f3d807997a0448ce4e1cbb96380ecd59a4f680e8c25ff39978528fa0fb3310dfd54130a78982c24c81d9a7590df09a3038959da4bd15d994f729ada5e50c97f5b9fb2caa1986e17742b6b57db6488b16027e8b81cc8b2bd9b29b10ada7158d82fa31bc3b73c53330b1772a4096e63cfbb999df384f270189fa6e3ea8ce692549230d47cbef6f8c91517f261785405ab0adfbb2fe6e5bcc81d8bea051b224a0baba52fd5126b56e603179b18ef7c4ccd44e9cab5bb6d6211c41c586e736bb98cd93a452105727c99287c89321b6367ac5f31510fd0673a3bbe3cfb4e198a79b537cb497858017a10bcc55230dcc7500772c2c9e3f55dbe97597d77ad1ed1199907e2b774cd304e8ec05e9b0d8466006c47639c20ba75cf27ad0e57e6d20014ec36c68ca85993d3a6d9906f3ee94f9b53b54f6ccbc8bc14d2cc0d0e8c7befad755d67c2143a3101769360f27d0e933b07cc0a9a0628cac33f7ec9d398fa5701011473986e844b0702f3da32651c8a1dd8edcfa17b04d7761732b5f37e8bec6e05d3e8b31e8b3b7d81ad6e8f518a2f757aa8b41ede475f3dfff32b5ef30e499e04960d77228e0ebe966adc59e1c1d9e132f7fc58fd2a996ac009e1714a8824dfd2d03087e45f59c0c30aebee74a8a3f26c02e0a89e6bff873893585e158d050ccc37e0f19cb1307fbbffaad044892a62f4fcdc2d49f5143d90241c15732f924df85b2ec12754cdfa35b351a52da6f6a608543775663e64d653a1720bacd438b700dddcd2e82949838da582001df3cabbea6970654ea35a99f2376d10c75ecb56c5fa6facae922b3299781c85f4954793f6379c10188517884a49d8a2f51b782ada9abc77c7a51eb15f31428dcd597b3f8248ded230ae9b6b091b663264cd12fe985ad6b39a05e7373131981ba856fb3df0db97fe8bb38de60c248b54ffd0e0ed4f6a3afbea6a1e6ef8fd7eb208b4f18ea191d28baec231a900848ce6f4f2461d87bad0fe726a0dcbdd4e928ef00d9b"
      ],
      "sequence": 4294967294
    }
  ],
  "vout": [
    {
      "value": 1.0,
      "n": 0,
      "scriptPubKey": {
        "asm": "OP_RETURN 7390aa5a02bb38fd18c7d74c9e85281b1304f5d6662762c7f3e6375860cfc96d 5301666ee5502eae8835a10d76a421175199f34ba149fc294eb32befdd36e3df7321464ec5700e8ea815812d5684013771b9d36b8169dc096e930bcffd16c3ff1341262ea5106eeec875e14d36e4615711d9b30be109bc690ef36baf9d76a39f3361060e85304ecee855c16d16c4417731f9932bc1299c492ed34b8fbd5683bfd381e6ee65d0ae2e08b5218df624a197d11973cb21c97ca9ce33ab6f5db6635ff3a1c6ce45f08e0e289501add60481b7f13953eb01e95c89ee138b4f7d96437f93c1a6ae2590ee6e48f561cdb664e1d79159338b61893ce98e73eb2f1df6231fb3e1868e05b0ce4e68d541ed9644c1f7b17913ab41a91cc9ae53cb0f3dd6033f5301666ee5502eae8835a10d76a421175199f34ba149fc294eb32befdd36e3df7321464ec5700e8ea815812d5684013771b9d36b8169dc096e930bcffd16c3ff1341262ea5106eeec875e14d36e4615711d9b30be109bc690ef36baf9d76a39f3361060e85304ecee855c16d16c4417731f9932bc1299c492ed34b8fbd5683bfd381e6ee65d0ae2e08b5218df624a197d11973cb21c97ca9ce33ab6f5db6635ff3a1c6ce45f08e0e289501add60481b7f13953eb01e95c89ee138b4f7d96437f93c1a6ae2590ee6e48f561cdb664e1d79159338b61893ce98e73eb2f1df6231fb3e1868e05b0ce4e68d541ed9644c1f7b17913ab41a91cc9ae53cb0f3dd6033f5301666ee5502eae8835a10d76a421175199f34ba149fc294eb32befdd36e3df7321464ec5700e8ea815812d5684013771b9d36b8169dc096e930bcffd16c3ff1341262ea5106eeec875e14d36e4615711d9b30be109bc690ef36baf9d76a39f3361060e85304ecee855c16d16c4417731f9932bc1299c492ed34b8fbd5683bfd381e6ee65d0ae2e08b5218df624a197d11973cb21c97ca9ce33ab6f5db6635ff3a1c6ce45f08e0e289501add60481b7f13953eb01e95c89ee138b4f7d96437f93c1a6ae2590ee6e48f561cdb664e1d79159338b61893ce98e73eb2f1df6231fb3e1868e05b0ce4e68d541ed9644c1f7b17913ab41a91cc9ae53cb0f3dd6033f5301666ee5502eae8835a10d76a421175199f34ba149fc294eb32befdd36e3df7321464ec5700e8ea815812d5684013771b9d36b8169dc096e930bcffd16c3ff1341262ea5106eeec875e14d36e4615711d9b30be109bc690ef36baf9d76a39f3361060e85304ecee855c16d16c4417731f9932bc1299c492ed34b8fbd5683bfd381e6ee65d0ae2e08b5218df624a197d11973cb21c97ca9ce33ab6f5db6635ff3a1c6ce45f08e0e289501add60481b7f13953eb01e95c89ee138b4f7d96437f93c1a6ae2590ee6e48f561cdb664e1d79159338b61893ce98e73eb2f1df6231fb3e1868e05b0ce4e68d541ed9644c1f7b17913ab41a91cc9ae53cb0f3dd6033f5301666ee5502eae8835a10d76a421175199f34ba149fc294eb32befdd36e3df7321464ec5700e8ea815812d5684013771b9d36b8169dc096e930bcffd16c3ff1341262ea5106eeec875e14d36e4615711d9b30be109bc690ef36baf9d76a39f3361060e85304ecee855c16d16c4417731f9932bc1299c492ed34b8fbd5683bfd381e6ee65d0ae2e08b5218df624a1979e299692b684e725ecdc24a307a1f11bae627598cdb68687f52c295f8d4d96c3",
        "hex": "6a207390aa5a02bb38fd18c7d74c9e85281b1304f5d6662762c7f3e6375860cfc96d4db0045301666ee5502eae8835a10d76a421175199f34ba149fc294eb32befdd36e3df7321464ec5700e8ea815812d5684013771b9d36b8169dc096e930bcffd16c3ff1341262ea5106eeec875e14d36e4615711d9b30be109bc690ef36baf9d76a39f3361060e85304ecee855c16d16c4417731f9932bc1299c492ed34b8fbd5683bfd381e6ee65d0ae2e08b5218df624a197d11973cb21c97ca9ce33ab6f5db6635ff3a1c6ce45f08e0e289501add60481b7f13953eb01e95c89ee138b4f7d96437f93c1a6ae2590ee6e48f561cdb664e1d79159338b61893ce98e73eb2f1df6231fb3e1868e05b0ce4e68d541ed9644c1f7b17913ab41a91cc9ae53cb0f3dd6033f5301666ee5502eae8835a10d76a421175199f34ba149fc294eb32befdd36e3df7321464ec5700e8ea815812d5684013771b9d36b8169dc096e930bcffd16c3ff1341262ea5106eeec875e14d36e4615711d9b30be109bc690ef36baf9d76a39f3361060e85304ecee855c16d16c4417731f9932bc1299c492ed34b8fbd5683bfd381e6ee65d0ae2e08b5218df624a197d11973cb21c97ca9ce33ab6f5db6635ff3a1c6ce45f08e0e289501add60481b7f13953eb01e95c89ee138b4f7d96437f93c1a6ae2590ee6e48f561cdb664e1d79159338b61893ce98e73eb2f1df6231fb3e1868e05b0ce4e68d541ed9644c1f7b17913ab41a91cc9ae53cb0f3dd6033f5301666ee5502eae8835a10d76a421175199f34ba149fc294eb32befdd36e3df7321464ec5700e8ea815812d5684013771b9d36b8169dc096e930bcffd16c3ff1341262ea5106eeec875e14d36e4615711d9b30be109bc690ef36baf9d76a39f3361060e85304ecee855c16d16c4417731f9932bc1299c492ed34b8fbd5683bfd381e6ee65d0ae2e08b5218df624a197d11973cb21c97ca9ce33ab6f5db6635ff3a1c6ce45f08e0e289501add60481b7f13953eb01e95c89ee138b4f7d96437f93c1a6ae2590ee6e48f561cdb664e1d79159338b61893ce98e73eb2f1df6231fb3e1868e05b0ce4e68d541ed9644c1f7b17913ab41a91cc9ae53cb0f3dd6033f5301666ee5502eae8835a10d76a421175199f34ba149fc294eb32befdd36e3df7321464ec5700e8ea815812d5684013771b9d36b8169dc096e930bcffd16c3ff1341262ea5106eeec875e14d36e4615711d9b30be109bc690ef36baf9d76a39f3361060e85304ecee855c16d16c4417731f9932bc1299c492ed34b8fbd5683bfd381e6ee65d0ae2e08b5218df624a197d11973cb21c97ca9ce33ab6f5db6635ff3a1c6ce45f08e0e289501add60481b7f13953eb01e95c89ee138b4f7d96437f93c1a6ae2590ee6e48f561cdb664e1d79159338b61893ce98e73eb2f1df6231fb3e1868e05b0ce4e68d541ed9644c1f7b17913ab41a91cc9ae53cb0f3dd6033f5301666ee5502eae8835a10d76a421175199f34ba149fc294eb32befdd36e3df7321464ec5700e8ea815812d5684013771b9d36b8169dc096e930bcffd16c3ff1341262ea5106eeec875e14d36e4615711d9b30be109bc690ef36baf9d76a39f3361060e85304ecee855c16d16c4417731f9932bc1299c492ed34b8fbd5683bfd381e6ee65d0ae2e08b5218df624a1979e299692b684e725ecdc24a307a1f11bae627598cdb68687f52c295f8d4d96c3",
        "type": "nulldata"
      }
    },
    {
      "value": 499996.9493,
      "n": 1,
      "scriptPubKey": {
        "asm": "1 f2d2d07f571cf06befc16995a96ded0f1bab23f4a5d41df1f47fad1c67324ee8",
        "hex": "5120f2d2d07f571cf06befc16995a96ded0f1bab23f4a5d41df1f47fad1c67324ee8",
        "reqSigs": 1,
        "type": "witness_v1_scripthash",
        "addresses": [
          "3QJmnh"
        ]
      }
    }
  ],
  "blockhash": "15af9b025c636b87e0a10c18a1a8de0e5f3c2069ad563b293161176d75df89a4",
  "confirmations": 1,
  "time": 1764174659,
  "blocktime": 1764174659
}