{
  "hex": "0100000000010171884db777e940864adc83d727cc02be4eb87c37bfbfa01cf33b5876328063450000000000feffffff02407886de782d000022512007dcdade97aeb92da49cd7ea007bf3b01f70040258bc242560c32924914934ad00e1f50500000000fdd5046a20aed02c4ea6ec6f4b56689e407fdf4e516bddc98a6e4e5e16c73975e6b58c83824db004c6fb9c6d2db32d2f4bc66a9efe90b0b16338a6ff59bd32ca886d3cf66705fa2be6dbbc4d0d930d0f6be64abedeb09091431886df799d12eaa84d1cd64725da0b86bbdc2d6df36d6f0b862adebed0f0f12378e6bf19fd728ac82d7cb62745ba6ba69bfc0d4dd34d4f2ba60afe9ef0d0d10358c69f39dd52aae80d5c9607659a4b467b1cedad33adafcb46ea1e7e103031e3b8267fd93db24a08edbc76e7857aab665b3ccd8d138d8feb66ca3e5e301011c398065ff91d926a28cd9c56c7a55a8b063b5caded73edef8b06aa5e3e507071a3f8663f997df20a48adfc36a7c53aeb261b7c8dcd53cdcfab268a7e1e70505183d8461fb95dd22a688ddc1687e51acbc6fb9c6d2db32d2f4bc66a9efe90b0b16338a6ff59bd32ca886d3cf66705fa2be6dbbc4d0d930d0f6be64abedeb09091431886df799d12eaa84d1cd64725da0b86bbdc2d6df36d6f0b862adebed0f0f12378e6bf19fd728ac82d7cb62745ba6ba69bfc0d4dd34d4f2ba60afe9ef0d0d10358c69f39dd52aae80d5c9607659a4b467b1cedad33adafcb46ea1e7e103031e3b8267fd93db24a08edbc76e7857aab665b3ccd8d138d8feb66ca3e5e301011c398065ff91d926a28cd9c56c7a55a8b063b5caded73edef8b06aa5e3e507071a3f8663f997df20a48adfc36a7c53aeb261b7c8dcd53cdcfab268a7e1e70505183d8461fb95dd22a688ddc1687e51acbc6fb9c6d2db32d2f4bc66a9efe90b0b16338a6ff59bd32ca886d3cf66705fa2be6dbbc4d0d930d0f6be64abedeb09091431886df799d12eaa84d1cd64725da0b86bbdc2d6df36d6f0b862adebed0f0f12378e6bf19fd728ac82d7cb62745ba6ba69bfc0d4dd34d4f2ba60afe9ef0d0d10358c69f39dd52aae80d5c9607659a4b467b1cedad33adafcb46ea1e7e103031e3b8267fd93db24a08edbc76e7857aab665b3ccd8d138d8feb66ca3e5e301011c398065ff91d926a28cd9c56c7a55a8b063b5caded73edef8b06aa5e3e507071a3f8663f997df20a48adfc36a7c53aeb261b7c8dcd53cdcfab268a7e1e70505183d8461fb95dd22a688ddc1687e51acbc6fb9c6d2db32d2f4bc66a9efe90b0b16338a6ff59bd32ca886d3cf66705fa2be6dbbc4d0d930d0f6be64abedeb09091431886df799d12eaa84d1cd64725da0b86bbdc2d6df36d6f0b862adebed0f0f12378e6bf19fd728ac82d7cb62745ba6ba69bfc0d4dd34d4f2ba60afe9ef0d0d10358c69f39dd52aae80d5c9607659a4b467b1cedad33adafcb46ea1e7e103031e3b8267fd93db24a08edbc76e7857aab665b3ccd8d138d8feb66ca3e5e301011c398065ff91d926a28cd9c56c7a55a8b063b5caded73edef8b06aa5e3e507071a3f8663f997df20a48adfc36a7c53aeb261b7c8dcd53cdcfab268a7e1e70505183d8461fb95dd22a688ddc1687e51acbc6fb9c6d2db32d2f4bc66a9efe90b0b16338a6ff59bd32ca886d3cf66705fa2be6dbbc4d0d930d0f6be64abedeb09091431886df799d12eaa84d1cd64725da0b86bbdc2d6df36d6f0b862adebed0f0f12378e6bf19fd728ac82d7cb62745ba6ba69bfc0d4dd34d4f2ba60afe9ef0d0d10358c69f39dd52aae80d5c9607659a4b467b1cedad33adafcb46ea1e7e1030313ed2e17fae28ad49e753abacc6fe6703264d39a556fcacd9672d058c1b3286b402fd750909e9b11dc48091974605844f0ebfc05dafb14785655a492bc4145a9f3fa213285ae586bb19e8f1b8ef6caa1f35dd94dd7fcfe76cfa198059705902247d9e60d345a4293d627cb4a237c235b624234c968e3f79160d8be06af521d6d46c42fe000d12745d8f25c1e7a18fce8df32becd3a7e3bceaf62ec9ef05f36189cafa2d04b9ca38a71f4bfb95374c8f32e358ccb6c8f1d706377ca79baeb3b4ddd5ca9b129de07b96b301e67404cc8f6d3843ddf93c4f5ad8650acc878d2e5a14c97a4af6f0a1ecc0beede8e04699dab47d1bd3c47be27860c93943b5ea13f4ee3d96068247efaafb8f1a6fe5fd9bfcaf7b28112e2b52ff3dc39340f3b0f35f89814d9cb3eaaef75a7f1d3ccb27222dbc72cf9bd305be24e4fbe2f9e6922aefa3fa230e17f2cfcf090fd6ea4b63690e3db365fcfb910d11ef3968cb33bbcfeb9f517217979c4dcd5a55315b3e90881edb146a352d53f1df2f0fd0ec06769b79fb91b46af0cef3b5419ccc43791c615b12d58d4130767ef34a05970f1d420807044c818d92059083b2fdda07b34833e64c565e0848530eb5fa3b452e1961f16f872b17cb4c662ae6c0640b2d8d038c2843d1dc219dffffcd82bd1ce77e9f520fc3b1644c9cbc5f4467a2208dedf87e8ac852f5e8c0dec178f4eee8b324bca613fc32ceca3cbc448fed0c037612b104f9fcc8f81727a34192494b485d08faaba59e1f19080e49fbd533754e9ff4b99dbadaa1c651480ea6814475c99ade12942d295f893a849c9df4c88e1a2c7ddece3babb489e9f55e556452fb2ed6d08230b1cf05fd65829f208daefa9804118d278e8bf9cf229799fc26d45acf044cb4ff587cf7ac9c76391a070a519d745cf09b9d1e07dcdadc6fa09805d08db762ba1a837f27789d73ebc2d62aea8c7620cc059b0e8f7d9ad81c7b7c63a4a83562557c79b35d556c893cf128fd778851790ee6e228abafca067758832ffeef2b6ddb7185cb79c6ead50d424ef820fd66360ddbbcd16d0e7505531ae615d075d01e16bf2866ed72635e5a3da1bd447a1c1c0bdee39794c9716ef28d018fd53df8b67f4b1ca00cf02d043efe7ec7dcbba34e1b957d0a579249130f12e4f9510976e493180266c23da2b8791df0755f5eca997a99622793a85407a8ee461e9304b2cf04c04da2b452b02b4497b9b6e7898bd6b806d05c1b0484fe17b37b05a216bd42bab3a6c6744083a691d685d6b166370e34e4b21fa5e355f94baecacd095ae724fab267e35c027f007e1ea4c63a759f7f236be1bb367dfb56eff3bebf288c5f4cb265c3ab74468093c04c9da9d85d0af9c15ad80276ab5449f5ddde9e6c55d1a84835d0eb110811cc06c80549a0b997105e3440cf776745a8647f3dfdde100478b3cda228bd5382b6a4fd3f95e1ffc934f0cad7df7daeea7d3f1c3bfc391f41d56af13ac050a5023022151c572a4485e3f75a4b705d822cd44de20ff301469e0bcb9196fdc159142e3e86c5d3362fb2548d99abc0df2a4874d240e9f44c4723bbd4196a2fd20aed9e46989d0796ca4f554d85841767549321ae301122eb6efef3b08e3db7d08941ec8d57cfb148a14b2a87aa19532a84f219b78cd69d6ce7910b165e152252ee49b5b3337d59181be6f19c985a7db0f795ab7cd334fb70b6bf2355049ac41ac9423e844eac6f45846bdd603921e16a6f8e1f105bb8a3db57deef8e3c5a902452551ad0231b1c79d4a4459102590d99bc742bd4946ce03d84d321fa3ff966a8af8cfb53dc0c59e9c3e0ee9086b7bd31f80b8b36309f49397e8c5a6d162a73f68ef321ae5adf3acfac5bc160c327d9242ce76e3cea627f6bf002736af2ce334637ce7a760fe899c0222977c92156524645a440285ac5edd7068ebd35dd0e90c59cf826a46c84e2c4541aae03fddbd44f1a48126dfeaac0f211488a9d89342ce49b6c260c6afe564e18a71314b9dcf3c6b93e426e60ba29d6bfc58c03f3d735259278325b231b8ff07daacc9780a655eeb86a6b994a77d1160340f94e085be4971a67bb6570f818d340ef6cc13e0ca434e7cd9607a29e58bd496e1f2d0b742a55ac0bd616fee4705ef925574b6f0268fc7ac1ecc1cb559e69a48cdea136dcc75c9f754817025135403a333510c475a3b7480c69f3caae62e89d476d3b1af5c4807881e2a9e624dfbf741a4da6996aa1cea8144c4111ae6315d81fcffdaf1d5ced0c43516bcd5d0d26b32abdad19b9eb78ff4be66339c1d3170df0425a3f8c4ee80d6d6d0af9e3b85a2c15457ee4f89e542059a0984b229ead30576fd6eba4ea93a1929531eeee55fc254c477418c8b9dcf09c5853794f2f77872f429777d63afde7ef4727974efda524b94af63b64f6f155151ebed816e730c934b86107b6efcebd4670da7fa1e2cfb69dd3ae16de99467d2c617aa28eeb99dbe398c75cc8a89ab7b32f39fb20b788519dfae98d85f38d5da85f1517456a0f49db3fc22903c15cb3acf4e7eee3c40e55d28d9e566057613a2b70134c2d90d9d8506c2e68cfca8e8691612ccf28207afb3e065f8eca85ac093aa4b2d82e51629de38c06be9e87f22d48cbc50b5e7745da65aec20b5c39cf370e62937dcecdc667dc167a3d6603c15faacc7b6ada15113ead033d3a6d77f7b30cd8acab3f895c2e30fcd5a2bc290b6b0c8f46fafd09c903ad92672fb2be835a874d19dededdd9f81da5ce78da7a48e01adb6024513e2709f7b69e71880960c30da8d8e922ff6838d7b7c8e6ccc75eb1d23a697b3fbee67cfeea362205533fc92d7f2c5aab504e55963bdcd35937733959531f900fe14656108cf1d39c7ee23005e46341ec78d2484ec0b13be20e0d55264c57371610132a12c47779c6fcad9365ac3896478757241407c85992bae74abed482fa1b4e9d79bec1fb855cc5264c0a2237ca1022580ca9542f5bc81531a05f1e9660991260f7b03dbe38589d5d5491a66d01267e494c2c824ec63f3863e947235014c1d98c1540d79830d1f7cddbaa6b5f2e51cbce95017e887aac1176bd417943aabec1823bb5f44acdba1461e1813883d0f121c99dd089fc380f85954ceed1528bbfb3b4d6d3a48b0c1501047559a08105a1cd55b5d92759174524811fc9bbeb4c6be66d9cb74a07206dff527c3f1bbc4ef020a63c12af918d1b0f16f5323050c55ed9f55a201f81f1f966113ca64455ad7942313a0213d74825306067c7ea24fb4a6e65609fb8cbe67980a7cee28019e127df4d07f4476534d3866d72527651e5c09e7d4dc8b8075352c7c71cffafcfb6a7b9a2d2aba86a0b87af3dc6347d163c3f5376959eafb4b6b8c0c1dbe1eaec1c2f3a52545e878d97a5a7b2b4b8c5c6d0d3dfe4e6000d232b3351648390a9b1bfd3d9dbdde805144e576ca0abdbe2ef0000000000000000000000000000001126374101fd21050048b1881854a68a634cf54305ef9822c7879a76bdbbf4ce95d8a216e3f4199db8b758bae6d9801093133db8c0283969ebfc2bec9d8801e520834ca247e0e403f625da05b12206ca0aa197589b00f9c2588e7127b6880986b38d56d93e3a5ef55d8d32a43a94978f8030ed9be510849deb434569723f13d96c7d278b549639095224fad341f23e30f9f6f2cac55be5b3e9d6f934cdf8419539da1b0105b38cc226a9964ba08394c8bdb9153b085176ac9ca31f2cbd9e639f5d0651039bc16255dabfe0f552f8a272d318be52b3507adf2ec3bd8d3ce29b091fd7935284c2b4a12d84bb7c1b123daa0ce26b5cbf9951754070e5c044bb59d3eaff30f5d5db38f51c634822feeacee61f20bb8cdac59b21a95e7f3335227e4399ba9913a159d597b20c00fc9398d065cfa6b329a932084bba10818421389c9de3dfca6478abfc4f06e797d8ab88f33dcca702c2f4b526079484bec58b8b9e4a7684c2d4295a11743bc035c66e9485407a2abc6f7be2c1bbf7318d0e701d38fac379d4a8f7b38687adb8157e046e44718efcec4a6506cc9594a7e4706128c48167c8ac952758c259864f84d5492eaead03e92825fe5612c3897cb4ee1a9622ee58fd795828522d3367194bbf1ac4fd9b383b29a4725eac4e94e159113c170aaff00587b6de121406aec7c197ed765637bf319a4703931048a9b089602f2cbc1e585460daa43b024f895bb3315389d50a9fc88a8b3bf20f5250ba50c58b17d8d826b256d0d1ff770ee965c1bbe26e7c9d4fb8c04b62e49e7d4deccfb39fc38d4a03b5f5b21e0d9aa27d7f6322e81cc1b5867bb58f0da4678823eb135e5bd8022d1a90a3b60b3ed8243c5e255fdeac6a54bbf35e5a672065c9ddff04fb091176c67db3c04e26f757e1c4c89cfab52d100b24a5f10e0e1a963094ef5949807fd2dc7b25d33cad5f4380371486612d33cbd658e9b4fd7defcb6ba6de4ee6b49f9d61ea148818362396b8635a70b0d76c0801676ee71bff145076cade5e813675a2ed71ea9c5cc665ebffb98ab8f6a8aafc1856f52efba7fe3deaaebd30909acdce3695102ae3824494741d98d29ed998ea8ad407164ddc9c1332590b1dc1318a345add1b82edd55b301a3c86c14512f724f0156b147d1d6c107686682db28f2dcf80a46f9d16fb29fa3e875df00ee3940f0f325542f35ad760635ede38cbc756754e3c9d224098da612d362574dadea9552b22e67bf67d43b026ea10b62123a08787edb6b20e9860bf3da4a428cfc7d19a5363e2e5f5c7f982b01989c20466b8589cb76b9b64b8f347e271849903fb40f77082fbaee04e6a801773f3bbccda2e7bb8a49c20543348c42a5c91807623ccb9cc9ede2207f0047b4549c7bf0d2ff529eac1a670c63ae2277fcfc3b3c5635019043732b688040949417d57415937bef70c20b0fff7e8ae70155873c801ef6d54342f99372e54619fce9b78c9fb6ff369012139bc6ac52150631bd73847e5d98e817d14b1c5da3a8177e8030a53f84d1cfafa7c033224b09d40a60d31afbe4390957d1670bf5d69da8e48b27f35b1265bd5a31c3fdf68810529a5d5a62d81fcbccc9bb26a1cc655d1ca25c0d8d50f8b72304d3c6d8b2f467bd6aee771164b381a0b7079d8f86d1773d65a1cbc83609402514e390925b664b69c471e28d0db1cec54f623fd833015766bf5b57347c1b3dd5d727f1efc636aed628def57f25983b4d0bc37ab8c4d4d26e3ba5dccdcc08c7053782cdae87e7bc124fa2401dae79bc3659c90f4ccc6079104713905c24ffb4438a8d8f12c4be128ab6681073965c22a8e5eb328ce32490963068015b59dd7cea4d60c3935dc31b2f5147b000000",
  "txid": "1217e9846430fcb0bff06362a1342d328f99235bfb32f69304a1a33752e0050e",
  "hash": "5d53dd8b89d3eb98f3bf7b30952e4bd10345d7c31fce9bf3934cc5d8ae8a3acf",
  "size": 5085,
  "vsize": 2278,
  "version": 1,
  "locktime": 123,
  "vin": [
    {
      "txid": "4563803276583bf31ca0bfbf377cb84ebe02cc27d783dc4a8640e977b74d8871",
      "vout": 0,
      "scriptSig": {
        "asm": "",
        "hex": ""
      },
      "txinwitness": [
        "09e9b11dc48091974605844f0ebfc05dafb14785655a492bc4145a9f3fa213285ae586bb19e8f1b8ef6caa1f35dd94dd7fcfe76cfa198059705902247d9e60d345a4293d627cb4a237c235b624234c968e3f79160d8be06af521d6d46c42fe000d12745d8f25c1e7a18fce8df32becd3a7e3bceaf62ec9ef05f36189cafa2d04b9ca38a71f4bfb95374c8f32e358ccb6c8f1d706377ca79baeb3b4ddd5ca9b129de07b96b301e67404cc8f6d3843ddf93c4f5ad8650acc878d2e5a14c97a4af6f0a1ecc0beede8e04699dab47d1bd3c47be27860c93943b5ea13f4ee3d96068247efaafb8f1a6fe5fd9bfcaf7b28112e2b52ff3dc39340f3b0f35f89814d9cb3eaaef75a7f1d3ccb27222dbc72cf9bd305be24e4fbe2f9e6922aefa3fa230e17f2cfcf090fd6ea4b63690e3db365fcfb910d11ef3968cb33bbcfeb9f517217979c4dcd5a55315b3e90881edb146a352d53f1df2f0fd0ec06769b79fb91b46af0cef3b5419ccc43791c615b12d58d4130767ef34a05970f1d420807044c818d92059083b2fdda07b34833e64c565e0848530eb5fa3b452e1961f16f872b17cb4c662ae6c0640b2d8d038c2843d1dc219dffffcd82bd1ce77e9f520fc3b1644c9cbc5f4467a2208dedf87e8ac852f5e8c0dec178f4eee8b324bca613fc32ceca3cbc448fed0c037612b104f9fcc8f81727a34192494b485d08faaba59e1f19080e49fbd533754e9ff4b99dbadaa1c651480ea6814475c99ade12942d295f893a849c9df4c88e1a2c7ddece3babb489e9f55e556452fb2ed6d08230b1cf05fd65829f208daefa9804118d278e8bf9cf229799fc26d45acf044cb4ff587cf7ac9c76391a070a519d745cf09b9d1e07dcdadc6fa09805d08db762ba1a837f27789d73ebc2d62aea8c7620cc059b0e8f7d9ad81c7b7c63a4a83562557c79b35d556c893cf128fd778851790ee6e228abafca067758832ffeef2b6ddb7185cb79c6ead50d424ef820fd66360ddbbcd16d0e7505531ae615d075d01e16bf2866ed72635e5a3da1bd447a1c1c0bdee39794c9716ef28d018fd53df8b67f4b1ca00cf02d043efe7ec7dcbba34e1b957d0a579249130f12e4f9510976e493180266c23da2b8791df0755f5eca997a99622793a85407a8ee461e9304b2cf04c04da2b452b02b4497b9b6e7898bd6b806d05c1b0484fe17b37b05a216bd42bab3a6c6744083a691d685d6b166370e34e4b21fa5e355f94baecacd095ae724fab267e35c027f007e1ea4c63a759f7f236be1bb367dfb56eff3bebf288c5f4cb265c3ab74468093c04c9da9d85d0af9c15ad80276ab5449f5ddde9e6c55d1a84835d0eb110811cc06c80549a0b997105e3440cf776745a8647f3dfdde100478b3cda228bd5382b6a4fd3f95e1ffc934f0cad7df7daeea7d3f1c3bfc391f41d56af13ac050a5023022151c572a4485e3f75a4b705d822cd44de20ff301469e0bcb9196fdc159142e3e86c5d3362fb2548d99abc0df2a4874d240e9f44c4723bbd4196a2fd20aed9e46989d0796ca4f554d85841767549321ae301122eb6efef3b08e3db7d08941ec8d57cfb148a14b2a87aa19532a84f219b78cd69d6ce7910b165e152252ee49b5b3337d59181be6f19c985a7db0f795ab7cd334fb70b6bf2355049ac41ac9423e844eac6f45846bdd603921e16a6f8e1f105bb8a3db57deef8e3c5a902452551ad0231b1c79d4a4459102590d99bc742bd4946ce03d84d321fa3ff966a8af8cfb53dc0c59e9c3e0ee9086b7bd31f80b8b36309f49397e8c5a6d162a73f68ef321ae5adf3acfac5bc160c327d9242ce76e3cea627f6bf002736af2ce334637ce7a760fe899c0222977c92156524645a440285ac5edd7068ebd35dd0e90c59cf826a46c84e2c4541aae03fddbd44f1a48126dfeaac0f211488a9d89342ce49b6c260c6afe564e18a71314b9dcf3c6b93e426e60ba29d6bfc58c03f3d735259278325b231b8ff07daacc9780a655eeb86a6b994a77d1160340f94e085be4971a67bb6570f818d340ef6cc13e0ca434e7cd9607a29e58bd496e1f2d0b742a55ac0bd616fee4705ef925574b6f0268fc7ac1ecc1cb559e69a48cdea136dcc75c9f754817025135403a333510c475a3b7480c69f3caae62e89d476d3b1af5c4807881e2a9e624dfbf741a4da6996aa1cea8144c4111ae6315d81fcffdaf1d5ced0c43516bcd5d0d26b32abdad19b9eb78ff4be66339c1d3170df0425a3f8c4ee80d6d6d0af9e3b85a2c15457ee4f89e542059a0984b229ead30576fd6eba4ea93a1929531eeee55fc254c477418c8b9dcf09c5853794f2f77872f429777d63afde7ef4727974efda524b94af63b64f6f155151ebed816e730c934b86107b6efcebd4670da7fa1e2cfb69dd3ae16de99467d2c617aa28eeb99dbe398c75cc8a89ab7b32f39fb20b788519dfae98d85f38d5da85f1517456a0f49db3fc22903c15cb3acf4e7eee3c40e55d28d9e566057613a2b70134c2d90d9d8506c2e68cfca8e8691612ccf28207afb3e065f8eca85ac093aa4b2d82e51629de38c06be9e87f22d48cbc50b5e7745da65aec20b5c39cf370e62937dcecdc667dc167a3d6603c15faacc7b6ada15113ead033d3a6d77f7b30cd8acab3f895c2e30fcd5a2bc290b6b0c8f46fafd09c903ad92672fb2be835a874d19dededdd9f81da5ce78da7a48e01adb6024513e2709f7b69e71880960c30da8d8e922ff6838d7b7c8e6ccc75eb1d23a697b3fbee67cfeea362205533fc92d7f2c5aab504e55963bdcd35937733959531f900fe14656108cf1d39c7ee23005e46341ec78d2484ec0b13be20e0d55264c57371610132a12c47779c6fcad9365ac3896478757241407c85992bae74abed482fa1b4e9d79bec1fb855cc5264c0a2237ca1022580ca9542f5bc81531a05f1e9660991260f7b03dbe38589d5d5491a66d01267e494c2c824ec63f3863e947235014c1d98c1540d79830d1f7cddbaa6b5f2e51cbce95017e887aac1176bd417943aabec1823bb5f44acdba1461e1813883d0f121c99dd089fc380f85954ceed1528bbfb3b4d6d3a48b0c1501047559a08105a1cd55b5d92759174524811fc9bbeb4c6be66d9cb74a07206dff527c3f1bbc4ef020a63c12af918d1b0f16f5323050c55ed9f55a201f81f1f966113ca64455ad7942313a0213d74825306067c7ea24fb4a6e65609fb8cbe67980a7cee28019e127df4d07f4476534d3866d72527651e5c09e7d4dc8b8075352c7c71cffafcfb6a7b9a2d2aba86a0b87af3dc6347d163c3f5376959eafb4b6b8c0c1dbe1eaec1c2f3a52545e878d97a5a7b2b4b8c5c6d0d3dfe4e6000d232b3351648390a9b1bfd3d9dbdde805144e576ca0abdbe2ef0000000000000000000000000000001126374101",
        "0048b1881854a68a634cf54305ef9822c7879a76bdbbf4ce95d8a216e3f4199db8b758bae6d9801093133db8c0283969ebfc2bec9d8801e520834ca247e0e403f625da05b12206ca0aa197589b00f9c2588e7127b6880986b38d56d93e3a5ef55d8d32a43a94978f8030ed9be510849deb434569723f13d96c7d278b549639095224fad341f23e30f9f6f2cac55be5b3e9d6f934cdf8419539da1b0105b38cc226a9964ba08394c8bdb9153b085176ac9ca31f2cbd9e639f5d0651039bc16255dabfe0f552f8a272d318be52b3507adf2ec3bd8d3ce29b091fd7935284c2b4a12d84bb7c1b123daa0ce26b5cbf9951754070e5c044bb59d3eaff30f5d5db38f51c634822feeacee61f20bb8cdac59b21a95e7f3335227e4399ba9913a159d597b20c00fc9398d065cfa6b329a932084bba10818421389c9de3dfca6478abfc4f06e797d8ab88f33dcca702c2f4b526079484bec58b8b9e4a7684c2d4295a11743bc035c66e9485407a2abc6f7be2c1bbf7318d0e701d38fac379d4a8f7b38687adb8157e046e44718efcec4a6506cc9594a7e4706128c48167c8ac952758c259864f84d5492eaead03e92825fe5612c3897cb4ee1a9622ee58fd795828522d3367194bbf1ac4fd9b383b29a4725eac4e94e159113c170aaff00587b6de121406aec7c197ed765637bf319a4703931048a9b089602f2cbc1e585460daa43b024f895bb3315389d50a9fc88a8b3bf20f5250ba50c58b17d8d826b256d0d1ff770ee965c1bbe26e7c9d4fb8c04b62e49e7d4deccfb39fc38d4a03b5f5b21e0d9aa27d7f6322e81cc1b5867bb58f0da4678823eb135e5bd8022d1a90a3b60b3ed8243c5e255fdeac6a54bbf35e5a672065c9ddff04fb091176c67db3c04e26f757e1c4c89cfab52d100b24a5f10e0e1a963094ef5949807fd2dc7b25d33cad5f4380371486612d33cbd658e9b4fd7defcb6ba6de4ee6b49f9d61ea148818362396b8635a70b0d76c0801676ee71bff145076cade5e813675a2ed71ea9c5cc665ebffb98ab8f6a8aafc1856f52efba7fe3deaaebd30909acdce3695102ae3824494741d98d29ed998ea8ad407164ddc9c1332590b1dc1318a345add1b82edd55b301a3c86c14512f724f0156b147d1d6c107686682db28f2dcf80a46f9d16fb29fa3e875df00ee3940f0f325542f35ad760635ede38cbc756754e3c9d224098da612d362574dadea9552b22e67bf67d43b026ea10b62123a08787edb6b20e9860bf3da4a428cfc7d19a5363e2e5f5c7f982b01989c20466b8589cb76b9b64b8f347e271849903fb40f77082fbaee04e6a801773f3bbccda2e7bb8a49c20543348c42a5c91807623ccb9cc9ede2207f0047b4549c7bf0d2ff529eac1a670c63ae2277fcfc3b3c5635019043732b688040949417d57415937bef70c20b0fff7e8ae70155873c801ef6d54342f99372e54619fce9b78c9fb6ff369012139bc6ac52150631bd73847e5d98e817d14b1c5da3a8177e8030a53f84d1cfafa7c033224b09d40a60d31afbe4390957d1670bf5d69da8e48b27f35b1265bd5a31c3fdf68810529a5d5a62d81fcbccc9bb26a1cc655d1ca25c0d8d50f8b72304d3c6d8b2f467bd6aee771164b381a0b7079d8f86d1773d65a1cbc83609402514e390925b664b69c471e28d0db1cec54f623fd833015766bf5b57347c1b3dd5d727f1efc636aed628def57f25983b4d0bc37ab8c4d4d26e3ba5dccdcc08c7053782cdae87e7bc124fa2401dae79bc3659c90f4ccc6079104713905c24ffb4438a8d8f12c4be128ab6681073965c22a8e5eb328ce32490963068015b59dd7cea4d60c3935dc31b2f514"
      ],
      "sequence": 4294967294
    }
  ],
  "vout": [
    {
      "value": 499971.5268,
      "n": 0,
      "scriptPubKey": {
        "asm": "1 07dcdade97aeb92da49cd7ea007bf3b01f70040258bc242560c32924914934ad",
        "hex": "512007dcdade97aeb92da49cd7ea007bf3b01f70040258bc242560c32924914934ad",
        "reqSigs": 1,
        "type": "witness_v1_scripthash",
        "addresses": [
          "3QJmnh"
        ]
      }
    },
    {
      "value": 1.0,
      "n": 1,
      "scriptPubKey": {
        "asm": "OP_RETURN aed02c4ea6ec6f4b56689e407fdf4e516bddc98a6e4e5e16c73975e6b58c8382 c6fb9c6d2db32d2f4bc66a9efe90b0b16338a6ff59bd32ca886d3cf66705fa2be6dbbc4d0d930d0f6be64abedeb09091431886df799d12eaa84d1cd64725da0b86bbdc2d6df36d6f0b862adebed0f0f12378e6bf19fd728ac82d7cb62745ba6ba69bfc0d4dd34d4f2ba60afe9ef0d0d10358c69f39dd52aae80d5c9607659a4b467b1cedad33adafcb46ea1e7e103031e3b8267fd93db24a08edbc76e7857aab665b3ccd8d138d8feb66ca3e5e301011c398065ff91d926a28cd9c56c7a55a8b063b5caded73edef8b06aa5e3e507071a3f8663f997df20a48adfc36a7c53aeb261b7c8dcd53cdcfab268a7e1e70505183d8461fb95dd22a688ddc1687e51acbc6fb9c6d2db32d2f4bc66a9efe90b0b16338a6ff59bd32ca886d3cf66705fa2be6dbbc4d0d930d0f6be64abedeb09091431886df799d12eaa84d1cd64725da0b86bbdc2d6df36d6f0b862adebed0f0f12378e6bf19fd728ac82d7cb62745ba6ba69bfc0d4dd34d4f2ba60afe9ef0d0d10358c69f39dd52aae80d5c9607659a4b467b1cedad33adafcb46ea1e7e103031e3b8267fd93db24a08edbc76e7857aab665b3ccd8d138d8feb66ca3e5e301011c398065ff91d926a28cd9c56c7a55a8b063b5caded73edef8b06aa5e3e507071a3f8663f997df20a48adfc36a7c53aeb261b7c8dcd53cdcfab268a7e1e70505183d8461fb95dd22a688ddc1687e51acbc6fb9c6d2db32d2f4bc66a9efe90b0b16338a6ff59bd32ca886d3cf66705fa2be6dbbc4d0d930d0f6be64abedeb09091431886df799d12eaa84d1cd64725da0b86bbdc2d6df36d6f0b862adebed0f0f12378e6bf19fd728ac82d7cb62745ba6ba69bfc0d4dd34d4f2ba60afe9ef0d0d10358c69f39dd52aae80d5c9607659a4b467b1cedad33adafcb46ea1e7e103031e3b8267fd93db24a08edbc76e7857aab665b3ccd8d138d8feb66ca3e5e301011c398065ff91d926a28cd9c56c7a55a8b063b5caded73edef8b06aa5e3e507071a3f8663f997df20a48adfc36a7c53aeb261b7c8dcd53cdcfab268a7e1e70505183d8461fb95dd22a688ddc1687e51acbc6fb9c6d2db32d2f4bc66a9efe90b0b16338a6ff59bd32ca886d3cf66705fa2be6dbbc4d0d930d0f6be64abedeb09091431886df799d12eaa84d1cd64725da0b86bbdc2d6df36d6f0b862adebed0f0f12378e6bf19fd728ac82d7cb62745ba6ba69bfc0d4dd34d4f2ba60afe9ef0d0d10358c69f39dd52aae80d5c9607659a4b467b1cedad33adafcb46ea1e7e103031e3b8267fd93db24a08edbc76e7857aab665b3ccd8d138d8feb66ca3e5e301011c398065ff91d926a28cd9c56c7a55a8b063b5caded73edef8b06aa5e3e507071a3f8663f997df20a48adfc36a7c53aeb261b7c8dcd53cdcfab268a7e1e70505183d8461fb95dd22a688ddc1687e51acbc6fb9c6d2db32d2f4bc66a9efe90b0b16338a6ff59bd32ca886d3cf66705fa2be6dbbc4d0d930d0f6be64abedeb09091431886df799d12eaa84d1cd64725da0b86bbdc2d6df36d6f0b862adebed0f0f12378e6bf19fd728ac82d7cb62745ba6ba69bfc0d4dd34d4f2ba60afe9ef0d0d10358c69f39dd52aae80d5c9607659a4b467b1cedad33adafcb46ea1e7e1030313ed2e17fae28ad49e753abacc6fe6703264d39a556fcacd9672d058c1b3286b4",
        "hex": "6a20aed02c4ea6ec6f4b56689e407fdf4e516bddc98a6e4e5e16c73975e6b58c83824db004c6fb9c6d2db32d2f4bc66a9efe90b0b16338a6ff59bd32ca886d3cf66705fa2be6dbbc4d0d930d0f6be64abedeb09091431886df799d12eaa84d1cd64725da0b86bbdc2d6df36d6f0b862adebed0f0f12378e6bf19fd728ac82d7cb62745ba6ba69bfc0d4dd34d4f2ba60afe9ef0d0d10358c69f39dd52aae80d5c9607659a4b467b1cedad33adafcb46ea1e7e103031e3b8267fd93db24a08edbc76e7857aab665b3ccd8d138d8feb66ca3e5e301011c398065ff91d926a28cd9c56c7a55a8b063b5caded73edef8b06aa5e3e507071a3f8663f997df20a48adfc36a7c53aeb261b7c8dcd53cdcfab268a7e1e70505183d8461fb95dd22a688ddc1687e51acbc6fb9c6d2db32d2f4bc66a9efe90b0b16338a6ff59bd32ca886d3cf66705fa2be6dbbc4d0d930d0f6be64abedeb09091431886df799d12eaa84d1cd64725da0b86bbdc2d6df36d6f0b862adebed0f0f12378e6bf19fd728ac82d7cb62745ba6ba69bfc0d4dd34d4f2ba60afe9ef0d0d10358c69f39dd52aae80d5c9607659a4b467b1cedad33adafcb46ea1e7e103031e3b8267fd93db24a08edbc76e7857aab665b3ccd8d138d8feb66ca3e5e301011c398065ff91d926a28cd9c56c7a55a8b063b5caded73edef8b06aa5e3e507071a3f8663f997df20a48adfc36a7c53aeb261b7c8dcd53cdcfab268a7e1e70505183d8461fb95dd22a688ddc1687e51acbc6fb9c6d2db32d2f4bc66a9efe90b0b16338a6ff59bd32ca886d3cf66705fa2be6dbbc4d0d930d0f6be64abedeb09091431886df799d12eaa84d1cd64725da0b86bbdc2d6df36d6f0b862adebed0f0f12378e6bf19fd728ac82d7cb62745ba6ba69bfc0d4dd34d4f2ba60afe9ef0d0d10358c69f39dd52aae80d5c9607659a4b467b1cedad33adafcb46ea1e7e103031e3b8267fd93db24a08edbc76e7857aab665b3ccd8d138d8feb66ca3e5e301011c398065ff91d926a28cd9c56c7a55a8b063b5caded73edef8b06aa5e3e507071a3f8663f997df20a48adfc36a7c53aeb261b7c8dcd53cdcfab268a7e1e70505183d8461fb95dd22a688ddc1687e51acbc6fb9c6d2db32d2f4bc66a9efe90b0b16338a6ff59bd32ca886d3cf66705fa2be6dbbc4d0d930d0f6be64abedeb09091431886df799d12eaa84d1cd64725da0b86bbdc2d6df36d6f0b862adebed0f0f12378e6bf19fd728ac82d7cb62745ba6ba69bfc0d4dd34d4f2ba60afe9ef0d0d10358c69f39dd52aae80d5c9607659a4b467b1cedad33adafcb46ea1e7e103031e3b8267fd93db24a08edbc76e7857aab665b3ccd8d138d8feb66ca3e5e301011c398065ff91d926a28cd9c56c7a55a8b063b5caded73edef8b06aa5e3e507071a3f8663f997df20a48adfc36a7c53aeb261b7c8dcd53cdcfab268a7e1e70505183d8461fb95dd22a688ddc1687e51acbc6fb9c6d2db32d2f4bc66a9efe90b0b16338a6ff59bd32ca886d3cf66705fa2be6dbbc4d0d930d0f6be64abedeb09091431886df799d12eaa84d1cd64725da0b86bbdc2d6df36d6f0b862adebed0f0f12378e6bf19fd728ac82d7cb62745ba6ba69bfc0d4dd34d4f2ba60afe9ef0d0d10358c69f39dd52aae80d5c9607659a4b467b1cedad33adafcb46ea1e7e1030313ed2e17fae28ad49e753abacc6fe6703264d39a556fcacd9672d058c1b3286b4",
        "type": "nulldata"
      }
    }
  ],
  "blockhash": "3f7b66b34673dd56727b9b27d02dfa4f8333ff75e8b72ddccb546061f2a7d063",
  "confirmations": 1,
  "time": 1764180681,
  "blocktime": 1764180681
}