{
  "hex": "010000000001014d335c09536122d139b3819f4c48636d78411137930ec2ac997997f997ed66a30100000000feffffff0270cc3221792d000022512043e9f41777f09d4324c48f327b76d287e0e55a2713a13a8d477cc39add5e921f00e1f50500000000fdd5046a20957c76d2cd92201914c4bd2b61bed3b634dc658f254d87e0ddd93ad345d7bb8d4db0041434c6cf7138e0b540e2d0234191f27553cff59ff30857f7ef98e9268d17cf9b3414e6ef5118c09560c2f00361b1d25573efd5bfd32877d7cfb8c906ad37efbb5474868f3178a0f500a2906301d1b235138fb5dfb34817b7afd8a966cd578fdb7454a6af115880d52082b04321f1921533af95ff936837978ff88946ed77affb94b4464ff1b86035c06250a3c11172f5d34f751f7388d7776f1869a60d974f1bb494666fd1984015e0427083e13152d5f36f553f53a8f7574f3849862db76f3bd4f4060fb1f82075802210e3815132b5930f355f33c897372f5829e64dd70f5bf4d4262f91d80055a00230c3a1711295b32f157f13e8b7170f7809c66df72f7b1434c6cf7138e0b540e2d0234191f27553cff59ff30857f7ef98e9268d17cf9b3414e6ef5118c09560c2f00361b1d25573efd5bfd32877d7cfb8c906ad37efbb5474868f3178a0f500a2906301d1b235138fb5dfb34817b7afd8a966cd578fdb7454a6af115880d52082b04321f1921533af95ff936837978ff88946ed77affb94b4464ff1b86035c06250a3c11172f5d34f751f7388d7776f1869a60d974f1bb494666fd1984015e0427083e13152d5f36f553f53a8f7574f3849862db76f3bd4f4060fb1f82075802210e3815132b5930f355f33c897372f5829e64dd70f5bf4d4262f91d80055a00230c3a1711295b32f157f13e8b7170f7809c66df72f7b1434c6cf7138e0b540e2d0234191f27553cff59ff30857f7ef98e9268d17cf9b3414e6ef5118c09560c2f00361b1d25573efd5bfd32877d7cfb8c906ad37efbb5474868f3178a0f500a2906301d1b235138fb5dfb34817b7afd8a966cd578fdb7454a6af115880d52082b04321f1921533af95ff936837978ff88946ed77affb94b4464ff1b86035c06250a3c11172f5d34f751f7388d7776f1869a60d974f1bb494666fd1984015e0427083e13152d5f36f553f53a8f7574f3849862db76f3bd4f4060fb1f82075802210e3815132b5930f355f33c897372f5829e64dd70f5bf4d4262f91d80055a00230c3a1711295b32f157f13e8b7170f7809c66df72f7b1434c6cf7138e0b540e2d0234191f27553cff59ff30857f7ef98e9268d17cf9b3414e6ef5118c09560c2f00361b1d25573efd5bfd32877d7cfb8c906ad37efbb5474868f3178a0f500a2906301d1b235138fb5dfb34817b7afd8a966cd578fdb7454a6af115880d52082b04321f1921533af95ff936837978ff88946ed77affb94b4464ff1b86035c06250a3c11172f5d34f751f7388d7776f1869a60d974f1bb494666fd1984015e0427083e13152d5f36f553f53a8f7574f3849862db76f3bd4f4060fb1f82075802210e3815132b5930f355f33c897372f5829e64dd70f5bf4d4262f91d80055a00230c3a1711295b32f157f13e8b7170f7809c66df72f7b1434c6cf7138e0b540e2d0234191f27553cff59ff30857f7ef98e9268d17cf9b3414e6ef5118c09560c2f00361b1d25573efd5bfd32877d7cfb8c906ad37efbb5474868f3178a0f500a2906301d1b235138fb5dfb34817b7afd8a966cd578fdb7454a6af115880d52082b04321f1921533af95ff936837978ff88946ed77affb94b4464ff1b86035c06250a3c11172f5bd9cab45ea72f2cef1dc019e331869b07225edddd8f6425086e39df3fcfd5c0402fd7509ea512a3cfc56fb8223d6ce20adcd1affd09e586b349ed53580df6f3e5c33fc13d96077bbe5fff549cfe6b0133adf6a3068c5c879c7263f1f4cb6d300baf3a24e37b2a1f1e278267e967d44f5b4f67c8b3d4bc7264caba181e4a88705985bfb0bfe867aac6431e12f779a5172bfca29f4851cb2ddee9f26902fe66c2e3239d95caaa6158a92fd59b951b016e5560073d133191737403b53067042295bd570fd6f043f3f0bbb6b5979f6ed694a5152f1f474483cfaef3528577535c176e87c1045c532e216f242dd41a58c8c5c88d38beeeb2ccaa6c408fcfe02474e36f04e5f52016b21af377dc9a08fd06ab6f003aaafad2eabd0d9c2fbc2348db9d9393e9546ba52512656a6a8c1b4db0dfad0fe122d10f3527618ebe82d9a6a27a656955f761a12637c5a3a27ce5d35daf225e490718aa0b01a3dd0d27c6be3edeb0cb5da0f0c6aa8ae0da34dc2cb72c104dd14cc3796714a1025b224030c41272378ffc9893985602719cf896220cbfc18a2b9b30baa04dbb2413967d5795ef3ac2aed3f8160f41e18b46835f92dec799af7c9d1113a93ebff6f161ae5b40de247ae2bd21f393ef8261877a162e52454e56641924ee9949ca8eebf257a04526f4738f690c67b85fb97baf48fe36f469ce26e21da29ba57ac14f1e5b4fc4ef70c848bf1b47e75b03da860c7c6f8a0cb5cf2ba4ed7a13d2289663a93f1a7fdb271658e97fcd5cbbb0ffd1a97ae3995db7769d0821f58971c982b1164d87c0a906756ced575c2438173420ee96a2599d46fc3065944bf17e0c64345408e5a69dc9dc79efe94d3c6ba34009253137050a4ba8c6ccab3d51fe00e5ebf04c9bce95ddf36efc1f5dd908d775455013859b95bed11606fa3ec6c0f6f9f429babd2e560f87bbdd92ec0879b1bb3afd13e9c4c9783b5763772a2aea48d98a893b9ea5bb5b8e8f4a483f0f5f8432f5898e6ca5806da3d8298fc4630011bb4972a4cb9c230b30166b9e034e006b6b7c1fd07552c347b3cec2e66b431a15f74442ca55c5b2c8d8d21fa76814a1c5cabf42d0d4319dc2b5b6b4c567a09b8956c59f27c118a1a5e77d3b73c36d53c45ab8f4229543745dde4de2454c22f4c35ca3fc609977de72ec21f646b2f2b467a93c4b23929cad552fecc6baaf24132e2cd47511f8409b73f34317fa71cfbdf51b8ac3b2d126350e6e442da88353aa999cbf5aa59263c4a053380212945898bc27aa1afd0e085a0f92f93b90d3259e9b948f2a8f0941e4fd7285733d2227886956de24309c1f5707baafed7c38ef55caa82023545b97e96bbb0500c37c23b45617a48fbafb2ae2da02d751b4b74b651725300d2c313186916f74c33d90b4db6fcdf32f2f91912c2d429714dfb4994d350d95157c5280d49a75db0e27849af3ab6a896236d8b5c1fcfc0dcb90243acf6fdf9af139beda883be78b8b9b171285db95198e2f781ec59d6f9dcd0408033c77a577de39b6a39b3667334d303e44e07b8c1034b4e5c75dc8bcc95644b27389943bbd1143952a62c7c44dcfc333ebc8d593b25bd74ce0a237069e134dcc43ed55bba360ba165fedfa923f0e2b3ef92b35ab9b2f6a44d71d11e1f3a4c9f23fa8b9de3fbac1de34815475302486576c177c202b3580977395f4c0329475135ba6c79654a3d1ccbeed9837ea2fb8c173a2c80082e63beb0d4407abb4bdf1643b131549fab8ec83681216b496af9062aee41a8c9196da0f023f690513a516d61562c2d97f8c2591e87fe9ef26d2c96fe323265838349c7ecc3b543ca86b2dbf7dad5056f585a596832f3f7a2efed81fa5d088f5e8b2f7296b484e87f074dc9d62501e3866893aec6d3d41ef44650eafadbcbd391f83504beb6d86f374739d9bf3ae0efca6d828f85e4ee543cffb327ec3811dda8f5dd20282016aad49b891cdf8f70e3eaa5deaa3b20fd44451639d6cc00a6f8339b574eff0aa3c6971a2081ccac708dedfe7c17e872b375504d93a26893e3d8d6389ef998e9f5545e15f74eb9ccab8076bed4e0ea846cde2b7d956e2689132d3e6d89170ee7491c9f9747fcce54b0765ffcc48ce9214e63829041b2100d7d74b0d7403413fed6ca23e706e8795faed65c2099338076aa2e0ffc2ca730d9ddb957273ad541c82054e7de2aaae058e1082aefb3f04e72f26219665243d7f6a4bbf6d0c558fc736535f7af6788e91d0af0fdf67dc73c645341180f2534a4cb15b0def34c750d8b8ca89a246b76d96a5e7cd974634162b2d0242a975f29dab0e44237f12062f171aedb5c425e1eaa0a4a2e1f4aba5c313dc03028456210ab0f52e42ce6b71b204f30436e2a59455b03e3f57a9d6cec7ca3fa0823086b80e2a509586abefd766c529606eb79861b8713e8193e9ab96d2fdab23a195461fb283e9c1255c7c55c80104466cef57427e3a3919568c2daa711536fc1ab7c8c8c40f0464d950f331c39f41a1334ef561af5659f169f9f1fab778602faabd3171294e238417bc3d480f40f46232fcacca6385b3624b4c94272c0cf19cbec2b0ecc1a197a01c6484edfbca0bdae8f612dec595980a829810f652685c519ea1b5439add7cd1ffe4c7490bfb864428fe1c97bb4ed2f7af01d4e9599b2d67f59e30d6a494403e81373748270128d36b2c9ebd654749fe98cee192e35a0deff772f1b4b0335511ff66f9dae3d4de3622a9dbf26bb81e53f62b1995ab2915eade7367485b9fe7afc3a630bf548a8f0e2121294bd318fe9e00ecc238a8a1375be9baccc2b1d7bb0fe0521660c22db8933f6c343dbe4a1e96baffaa4e508cb226f6d7aedf5ee58d238dc98a837e7c39169ba76ac22f6ccd9636909958426bfabb582e77f15cae4cf4322b7160bd9ebd56b822609145842452e86cea416a38a1f24fd322bcd9d79ece325371f335a67c11fc220b9742c8bd40de6d38e211d9ec074fd0dc68981b09f41ae609dfc200de3828b97c99dc975a1e88cfd0a0f49eb3063a6e920808d7855fe0a5752d5367a7d9b7b8d01a484c5b3a29f314deb7c7134ff7d75329fb9c66ca5d271507f4906eb9a95f11f4a08cfc19947800699975d04f1042f7f9fc87f8eb26283cac389d22a0401ef062f9ee427ec3874e69b0e3ca0b33cca9f7e96bf5c429d1a2b1e87d39655b753315821f773225febcf939a19ed86a7e1da1a632ecd0a18cd013c5dc280afd5e0967c2fb358dcb90d103898dc36eebe95609b793aada0a6e4b9e7cde21d7a7d23f9b69e6f994f9b041e4f561cbe287dab248e0f27b0cdc08715e28bf6be7525ac50d64c3cb46978eedc3366322bc4685986bf51061014464851686f8b9fa3a4a5b3b4be080d15163031365052595c5e707276b9c1c3dce4f7151c23344749526a78808b9badaeb9c9dff4131f7d8c95addce2f2fc0000000000000000000000000000001025374101fd2105002e4bb5bbff60509e4ae91771fa71693105f482ebd37bb68d27386347259558dfb4532d95b593a25541216cb3aa2b7e1693706c973ad6b2a470145842bb304885f8006ff4a82e187ae107f179ccb43e3a163ff7f3a2e404b18f43c080aff0b2aa19e9e340f475269cbb859fae2bfc3829d8989e8ee84d745860d4bcbc1cd451a33ef7b14e9dc6d836cedfcb0b9c0102ed73e4847199fed5556c9507b1d0d8f5fa98a0f0daf5ee8f61b7daa2ef71b264fc43ebfd5cffec4f216316ff529026c0f3225864b08e50c14f780f25945fd30dbbdb90ab5a2c1e72574ec13b88a27b91fe93d6b2eb2f4b4982038ef2ab1beb15187bc0f1b1b8b0ffe50dc8182248080df3198de968602d5a51e94dd56cc0485ed3f78b958376b79fc02b96c651bd0ff65aff78f3dd7b604a0db6b1ef339136721af7fcfa105d10a034bc955616190e099bc971ea9596ace04ada0216d9d0e4a3e5696bb814669eb393d9d412c6fbe0871f566685fc6c303007a108984c0140df5c1bef36bb905e453be1cd27e489d6f6e0c4481fa8fa93f08c6a65467c869c0e8395da45a226dfb4b52ac8e325a1ec1eca07626657cadd871c598936d8094b0e9aad78766f9d59fa2594ea758a10c5536d259f1ea82c8f9a866e1ff8845fce4a41d88fa16a52fe1e2dc87f06b4af924b44a5c0ab7fb31c785dbc8ee0559371c2ed59c355e4f27282ae78c317e5117d2eac9684315b79b6dd9d96c865ebbc563c0daa090ae5cb70ab95502adcb21730d4dee5157103cf9baec48fef7a3202d1f11f209c523b3e71898b7036d918c6d501ab740bcc8cb498382b0266ab4fa7545211817af1c411e5b32b3df6085bcb1dbcf7d963af293debaa3bd88f2eff0f69483bb3a7fdd805ec659f2ea445e6cf4c8c4cedb59d53e0cea03b487d2e2407c4bb6b3c38e5c7afe092422506e9600404ea58467408447cb610e4ec96293947d78947b0edac27b478d778a08ff66c67d359ec0f37020329379015f74ed04f4f7293f6ac64dcf97e5ab42535d675563608acd92613b53adb831d5df1c05ff087c00bd05043183ff839c2c7c1ab0455e49d8f0d93169930aa1a4ab5085b09efc867bf978f75e525c15b684ca10856c677ccb97ee8995595898f2b5a52aca3f122808687bc50ddb23580e2ad397aac0daa2e4abc0c8715c2f35a5852e34a25812c5059faaf535d518d4dc8f03178882724b43740cba69f1b1dafe88c41413b7665c9435c8adca5765cce17b84e1f7eccdc3fea597b47d35c1a41b3284a4981865b0212dc4c5bd596e676118228b8c184abf90052e5c4eae96dd162fcfb60b464de4e97bd7f39a377cdd8378bb939bb951db67aac4e6985a9d151b37f3b4ecdc22965ed102aabccac0ee6568b268da309b2c66158d630173b4c26f4168a86f17b16c415c10fb8e1a0a2dbaa6e8c5f3c017a9877823f010d21c28334d5bccecd6656e1e634cc558e23c7a3ece2c8c5f4d3c76457c80b73eccfbffa274e8c2c88899de1ad1685bbf3652b363b757c1fa6b2316ccc25513dd4f7875928095fe3b01b54b70256ee4f2d47349767a523bc3b4ca8160ed6e975f7cf004951c9ad1b366edc55a211234cc143a15b3d822e22f3ba7a936a5e76485466f5a42f8e1e1150e904b8105a1602c814d1dc16c2088df841c7260d6eb1de3b6211906754fbf48893366cd7d5baec0d6a76a8c880bd74f57a02f71fa53ed01ef32b2e63859537e172514bd355d3f41c8a9435fde3d8c80f269838ad271048672cb22009df10590e5e61e8460a0b5dee1d92e4393a57198c56c59543042e630ddf43bd9b6918c972c7a570fa6760027b38eb91ed8e08860789ef580dec73000000",
  "txid": "1bc5de424b91f464c27813a13ad671b415338fb4761df1d4d42b8139145c7c90",
  "hash": "0ee9300ecee593ac4f37d665aa927127732b1fb4d8f9f452ffea0456e22e2fb7",
  "size": 5085,
  "vsize": 2278,
  "version": 1,
  "locktime": 115,
  "vin": [
    {
      "txid": "a366ed97f9977999acc20e93371141786d63484c9f81b339d1226153095c334d",
      "vout": 1,
      "scriptSig": {
        "asm": "",
        "hex": ""
      },
      "txinwitness": [
        "ea512a3cfc56fb8223d6ce20adcd1affd09e586b349ed53580df6f3e5c33fc13d96077bbe5fff549cfe6b0133adf6a3068c5c879c7263f1f4cb6d300baf3a24e37b2a1f1e278267e967d44f5b4f67c8b3d4bc7264caba181e4a88705985bfb0bfe867aac6431e12f779a5172bfca29f4851cb2ddee9f26902fe66c2e3239d95caaa6158a92fd59b951b016e5560073d133191737403b53067042295bd570fd6f043f3f0bbb6b5979f6ed694a5152f1f474483cfaef3528577535c176e87c1045c532e216f242dd41a58c8c5c88d38beeeb2ccaa6c408fcfe02474e36f04e5f52016b21af377dc9a08fd06ab6f003aaafad2eabd0d9c2fbc2348db9d9393e9546ba52512656a6a8c1b4db0dfad0fe122d10f3527618ebe82d9a6a27a656955f761a12637c5a3a27ce5d35daf225e490718aa0b01a3dd0d27c6be3edeb0cb5da0f0c6aa8ae0da34dc2cb72c104dd14cc3796714a1025b224030c41272378ffc9893985602719cf896220cbfc18a2b9b30baa04dbb2413967d5795ef3ac2aed3f8160f41e18b46835f92dec799af7c9d1113a93ebff6f161ae5b40de247ae2bd21f393ef8261877a162e52454e56641924ee9949ca8eebf257a04526f4738f690c67b85fb97baf48fe36f469ce26e21da29ba57ac14f1e5b4fc4ef70c848bf1b47e75b03da860c7c6f8a0cb5cf2ba4ed7a13d2289663a93f1a7fdb271658e97fcd5cbbb0ffd1a97ae3995db7769d0821f58971c982b1164d87c0a906756ced575c2438173420ee96a2599d46fc3065944bf17e0c64345408e5a69dc9dc79efe94d3c6ba34009253137050a4ba8c6ccab3d51fe00e5ebf04c9bce95ddf36efc1f5dd908d775455013859b95bed11606fa3ec6c0f6f9f429babd2e560f87bbdd92ec0879b1bb3afd13e9c4c9783b5763772a2aea48d98a893b9ea5bb5b8e8f4a483f0f5f8432f5898e6ca5806da3d8298fc4630011bb4972a4cb9c230b30166b9e034e006b6b7c1fd07552c347b3cec2e66b431a15f74442ca55c5b2c8d8d21fa76814a1c5cabf42d0d4319dc2b5b6b4c567a09b8956c59f27c118a1a5e77d3b73c36d53c45ab8f4229543745dde4de2454c22f4c35ca3fc609977de72ec21f646b2f2b467a93c4b23929cad552fecc6baaf24132e2cd47511f8409b73f34317fa71cfbdf51b8ac3b2d126350e6e442da88353aa999cbf5aa59263c4a053380212945898bc27aa1afd0e085a0f92f93b90d3259e9b948f2a8f0941e4fd7285733d2227886956de24309c1f5707baafed7c38ef55caa82023545b97e96bbb0500c37c23b45617a48fbafb2ae2da02d751b4b74b651725300d2c313186916f74c33d90b4db6fcdf32f2f91912c2d429714dfb4994d350d95157c5280d49a75db0e27849af3ab6a896236d8b5c1fcfc0dcb90243acf6fdf9af139beda883be78b8b9b171285db95198e2f781ec59d6f9dcd0408033c77a577de39b6a39b3667334d303e44e07b8c1034b4e5c75dc8bcc95644b27389943bbd1143952a62c7c44dcfc333ebc8d593b25bd74ce0a237069e134dcc43ed55bba360ba165fedfa923f0e2b3ef92b35ab9b2f6a44d71d11e1f3a4c9f23fa8b9de3fbac1de34815475302486576c177c202b3580977395f4c0329475135ba6c79654a3d1ccbeed9837ea2fb8c173a2c80082e63beb0d4407abb4bdf1643b131549fab8ec83681216b496af9062aee41a8c9196da0f023f690513a516d61562c2d97f8c2591e87fe9ef26d2c96fe323265838349c7ecc3b543ca86b2dbf7dad5056f585a596832f3f7a2efed81fa5d088f5e8b2f7296b484e87f074dc9d62501e3866893aec6d3d41ef44650eafadbcbd391f83504beb6d86f374739d9bf3ae0efca6d828f85e4ee543cffb327ec3811dda8f5dd20282016aad49b891cdf8f70e3eaa5deaa3b20fd44451639d6cc00a6f8339b574eff0aa3c6971a2081ccac708dedfe7c17e872b375504d93a26893e3d8d6389ef998e9f5545e15f74eb9ccab8076bed4e0ea846cde2b7d956e2689132d3e6d89170ee7491c9f9747fcce54b0765ffcc48ce9214e63829041b2100d7d74b0d7403413fed6ca23e706e8795faed65c2099338076aa2e0ffc2ca730d9ddb957273ad541c82054e7de2aaae058e1082aefb3f04e72f26219665243d7f6a4bbf6d0c558fc736535f7af6788e91d0af0fdf67dc73c645341180f2534a4cb15b0def34c750d8b8ca89a246b76d96a5e7cd974634162b2d0242a975f29dab0e44237f12062f171aedb5c425e1eaa0a4a2e1f4aba5c313dc03028456210ab0f52e42ce6b71b204f30436e2a59455b03e3f57a9d6cec7ca3fa0823086b80e2a509586abefd766c529606eb79861b8713e8193e9ab96d2fdab23a195461fb283e9c1255c7c55c80104466cef57427e3a3919568c2daa711536fc1ab7c8c8c40f0464d950f331c39f41a1334ef561af5659f169f9f1fab778602faabd3171294e238417bc3d480f40f46232fcacca6385b3624b4c94272c0cf19cbec2b0ecc1a197a01c6484edfbca0bdae8f612dec595980a829810f652685c519ea1b5439add7cd1ffe4c7490bfb864428fe1c97bb4ed2f7af01d4e9599b2d67f59e30d6a494403e81373748270128d36b2c9ebd654749fe98cee192e35a0deff772f1b4b0335511ff66f9dae3d4de3622a9dbf26bb81e53f62b1995ab2915eade7367485b9fe7afc3a630bf548a8f0e2121294bd318fe9e00ecc238a8a1375be9baccc2b1d7bb0fe0521660c22db8933f6c343dbe4a1e96baffaa4e508cb226f6d7aedf5ee58d238dc98a837e7c39169ba76ac22f6ccd9636909958426bfabb582e77f15cae4cf4322b7160bd9ebd56b822609145842452e86cea416a38a1f24fd322bcd9d79ece325371f335a67c11fc220b9742c8bd40de6d38e211d9ec074fd0dc68981b09f41ae609dfc200de3828b97c99dc975a1e88cfd0a0f49eb3063a6e920808d7855fe0a5752d5367a7d9b7b8d01a484c5b3a29f314deb7c7134ff7d75329fb9c66ca5d271507f4906eb9a95f11f4a08cfc19947800699975d04f1042f7f9fc87f8eb26283cac389d22a0401ef062f9ee427ec3874e69b0e3ca0b33cca9f7e96bf5c429d1a2b1e87d39655b753315821f773225febcf939a19ed86a7e1da1a632ecd0a18cd013c5dc280afd5e0967c2fb358dcb90d103898dc36eebe95609b793aada0a6e4b9e7cde21d7a7d23f9b69e6f994f9b041e4f561cbe287dab248e0f27b0cdc08715e28bf6be7525ac50d64c3cb46978eedc3366322bc4685986bf51061014464851686f8b9fa3a4a5b3b4be080d15163031365052595c5e707276b9c1c3dce4f7151c23344749526a78808b9badaeb9c9dff4131f7d8c95addce2f2fc0000000000000000000000000000001025374101",
        "002e4bb5bbff60509e4ae91771fa71693105f482ebd37bb68d27386347259558dfb4532d95b593a25541216cb3aa2b7e1693706c973ad6b2a470145842bb304885f8006ff4a82e187ae107f179ccb43e3a163ff7f3a2e404b18f43c080aff0b2aa19e9e340f475269cbb859fae2bfc3829d8989e8ee84d745860d4bcbc1cd451a33ef7b14e9dc6d836cedfcb0b9c0102ed73e4847199fed5556c9507b1d0d8f5fa98a0f0daf5ee8f61b7daa2ef71b264fc43ebfd5cffec4f216316ff529026c0f3225864b08e50c14f780f25945fd30dbbdb90ab5a2c1e72574ec13b88a27b91fe93d6b2eb2f4b4982038ef2ab1beb15187bc0f1b1b8b0ffe50dc8182248080df3198de968602d5a51e94dd56cc0485ed3f78b958376b79fc02b96c651bd0ff65aff78f3dd7b604a0db6b1ef339136721af7fcfa105d10a034bc955616190e099bc971ea9596ace04ada0216d9d0e4a3e5696bb814669eb393d9d412c6fbe0871f566685fc6c303007a108984c0140df5c1bef36bb905e453be1cd27e489d6f6e0c4481fa8fa93f08c6a65467c869c0e8395da45a226dfb4b52ac8e325a1ec1eca07626657cadd871c598936d8094b0e9aad78766f9d59fa2594ea758a10c5536d259f1ea82c8f9a866e1ff8845fce4a41d88fa16a52fe1e2dc87f06b4af924b44a5c0ab7fb31c785dbc8ee0559371c2ed59c355e4f27282ae78c317e5117d2eac9684315b79b6dd9d96c865ebbc563c0daa090ae5cb70ab95502adcb21730d4dee5157103cf9baec48fef7a3202d1f11f209c523b3e71898b7036d918c6d501ab740bcc8cb498382b0266ab4fa7545211817af1c411e5b32b3df6085bcb1dbcf7d963af293debaa3bd88f2eff0f69483bb3a7fdd805ec659f2ea445e6cf4c8c4cedb59d53e0cea03b487d2e2407c4bb6b3c38e5c7afe092422506e9600404ea58467408447cb610e4ec96293947d78947b0edac27b478d778a08ff66c67d359ec0f37020329379015f74ed04f4f7293f6ac64dcf97e5ab42535d675563608acd92613b53adb831d5df1c05ff087c00bd05043183ff839c2c7c1ab0455e49d8f0d93169930aa1a4ab5085b09efc867bf978f75e525c15b684ca10856c677ccb97ee8995595898f2b5a52aca3f122808687bc50ddb23580e2ad397aac0daa2e4abc0c8715c2f35a5852e34a25812c5059faaf535d518d4dc8f03178882724b43740cba69f1b1dafe88c41413b7665c9435c8adca5765cce17b84e1f7eccdc3fea597b47d35c1a41b3284a4981865b0212dc4c5bd596e676118228b8c184abf90052e5c4eae96dd162fcfb60b464de4e97bd7f39a377cdd8378bb939bb951db67aac4e6985a9d151b37f3b4ecdc22965ed102aabccac0ee6568b268da309b2c66158d630173b4c26f4168a86f17b16c415c10fb8e1a0a2dbaa6e8c5f3c017a9877823f010d21c28334d5bccecd6656e1e634cc558e23c7a3ece2c8c5f4d3c76457c80b73eccfbffa274e8c2c88899de1ad1685bbf3652b363b757c1fa6b2316ccc25513dd4f7875928095fe3b01b54b70256ee4f2d47349767a523bc3b4ca8160ed6e975f7cf004951c9ad1b366edc55a211234cc143a15b3d822e22f3ba7a936a5e76485466f5a42f8e1e1150e904b8105a1602c814d1dc16c2088df841c7260d6eb1de3b6211906754fbf48893366cd7d5baec0d6a76a8c880bd74f57a02f71fa53ed01ef32b2e63859537e172514bd355d3f41c8a9435fde3d8c80f269838ad271048672cb22009df10590e5e61e8460a0b5dee1d92e4393a57198c56c59543042e630ddf43bd9b6918c972c7a570fa6760027b38eb91ed8e08860789ef580dec"
      ],
      "sequence": 4294967294
    }
  ],
  "vout": [
    {
      "value": 499982.7127,
      "n": 0,
      "scriptPubKey": {
        "asm": "1 43e9f41777f09d4324c48f327b76d287e0e55a2713a13a8d477cc39add5e921f",
        "hex": "512043e9f41777f09d4324c48f327b76d287e0e55a2713a13a8d477cc39add5e921f",
        "reqSigs": 1,
        "type": "witness_v1_scripthash",
        "addresses": [
          "3QJmnh"
        ]
      }
    },
    {
      "value": 1.0,
      "n": 1,
      "scriptPubKey": {
        "asm": "OP_RETURN 957c76d2cd92201914c4bd2b61bed3b634dc658f254d87e0ddd93ad345d7bb8d 1434c6cf7138e0b540e2d0234191f27553cff59ff30857f7ef98e9268d17cf9b3414e6ef5118c09560c2f00361b1d25573efd5bfd32877d7cfb8c906ad37efbb5474868f3178a0f500a2906301d1b235138fb5dfb34817b7afd8a966cd578fdb7454a6af115880d52082b04321f1921533af95ff936837978ff88946ed77affb94b4464ff1b86035c06250a3c11172f5d34f751f7388d7776f1869a60d974f1bb494666fd1984015e0427083e13152d5f36f553f53a8f7574f3849862db76f3bd4f4060fb1f82075802210e3815132b5930f355f33c897372f5829e64dd70f5bf4d4262f91d80055a00230c3a1711295b32f157f13e8b7170f7809c66df72f7b1434c6cf7138e0b540e2d0234191f27553cff59ff30857f7ef98e9268d17cf9b3414e6ef5118c09560c2f00361b1d25573efd5bfd32877d7cfb8c906ad37efbb5474868f3178a0f500a2906301d1b235138fb5dfb34817b7afd8a966cd578fdb7454a6af115880d52082b04321f1921533af95ff936837978ff88946ed77affb94b4464ff1b86035c06250a3c11172f5d34f751f7388d7776f1869a60d974f1bb494666fd1984015e0427083e13152d5f36f553f53a8f7574f3849862db76f3bd4f4060fb1f82075802210e3815132b5930f355f33c897372f5829e64dd70f5bf4d4262f91d80055a00230c3a1711295b32f157f13e8b7170f7809c66df72f7b1434c6cf7138e0b540e2d0234191f27553cff59ff30857f7ef98e9268d17cf9b3414e6ef5118c09560c2f00361b1d25573efd5bfd32877d7cfb8c906ad37efbb5474868f3178a0f500a2906301d1b235138fb5dfb34817b7afd8a966cd578fdb7454a6af115880d52082b04321f1921533af95ff936837978ff88946ed77affb94b4464ff1b86035c06250a3c11172f5d34f751f7388d7776f1869a60d974f1bb494666fd1984015e0427083e13152d5f36f553f53a8f7574f3849862db76f3bd4f4060fb1f82075802210e3815132b5930f355f33c897372f5829e64dd70f5bf4d4262f91d80055a00230c3a1711295b32f157f13e8b7170f7809c66df72f7b1434c6cf7138e0b540e2d0234191f27553cff59ff30857f7ef98e9268d17cf9b3414e6ef5118c09560c2f00361b1d25573efd5bfd32877d7cfb8c906ad37efbb5474868f3178a0f500a2906301d1b235138fb5dfb34817b7afd8a966cd578fdb7454a6af115880d52082b04321f1921533af95ff936837978ff88946ed77affb94b4464ff1b86035c06250a3c11172f5d34f751f7388d7776f1869a60d974f1bb494666fd1984015e0427083e13152d5f36f553f53a8f7574f3849862db76f3bd4f4060fb1f82075802210e3815132b5930f355f33c897372f5829e64dd70f5bf4d4262f91d80055a00230c3a1711295b32f157f13e8b7170f7809c66df72f7b1434c6cf7138e0b540e2d0234191f27553cff59ff30857f7ef98e9268d17cf9b3414e6ef5118c09560c2f00361b1d25573efd5bfd32877d7cfb8c906ad37efbb5474868f3178a0f500a2906301d1b235138fb5dfb34817b7afd8a966cd578fdb7454a6af115880d52082b04321f1921533af95ff936837978ff88946ed77affb94b4464ff1b86035c06250a3c11172f5bd9cab45ea72f2cef1dc019e331869b07225edddd8f6425086e39df3fcfd5c04",
        "hex": "6a20957c76d2cd92201914c4bd2b61bed3b634dc658f254d87e0ddd93ad345d7bb8d4db0041434c6cf7138e0b540e2d0234191f27553cff59ff30857f7ef98e9268d17cf9b3414e6ef5118c09560c2f00361b1d25573efd5bfd32877d7cfb8c906ad37efbb5474868f3178a0f500a2906301d1b235138fb5dfb34817b7afd8a966cd578fdb7454a6af115880d52082b04321f1921533af95ff936837978ff88946ed77affb94b4464ff1b86035c06250a3c11172f5d34f751f7388d7776f1869a60d974f1bb494666fd1984015e0427083e13152d5f36f553f53a8f7574f3849862db76f3bd4f4060fb1f82075802210e3815132b5930f355f33c897372f5829e64dd70f5bf4d4262f91d80055a00230c3a1711295b32f157f13e8b7170f7809c66df72f7b1434c6cf7138e0b540e2d0234191f27553cff59ff30857f7ef98e9268d17cf9b3414e6ef5118c09560c2f00361b1d25573efd5bfd32877d7cfb8c906ad37efbb5474868f3178a0f500a2906301d1b235138fb5dfb34817b7afd8a966cd578fdb7454a6af115880d52082b04321f1921533af95ff936837978ff88946ed77affb94b4464ff1b86035c06250a3c11172f5d34f751f7388d7776f1869a60d974f1bb494666fd1984015e0427083e13152d5f36f553f53a8f7574f3849862db76f3bd4f4060fb1f82075802210e3815132b5930f355f33c897372f5829e64dd70f5bf4d4262f91d80055a00230c3a1711295b32f157f13e8b7170f7809c66df72f7b1434c6cf7138e0b540e2d0234191f27553cff59ff30857f7ef98e9268d17cf9b3414e6ef5118c09560c2f00361b1d25573efd5bfd32877d7cfb8c906ad37efbb5474868f3178a0f500a2906301d1b235138fb5dfb34817b7afd8a966cd578fdb7454a6af115880d52082b04321f1921533af95ff936837978ff88946ed77affb94b4464ff1b86035c06250a3c11172f5d34f751f7388d7776f1869a60d974f1bb494666fd1984015e0427083e13152d5f36f553f53a8f7574f3849862db76f3bd4f4060fb1f82075802210e3815132b5930f355f33c897372f5829e64dd70f5bf4d4262f91d80055a00230c3a1711295b32f157f13e8b7170f7809c66df72f7b1434c6cf7138e0b540e2d0234191f27553cff59ff30857f7ef98e9268d17cf9b3414e6ef5118c09560c2f00361b1d25573efd5bfd32877d7cfb8c906ad37efbb5474868f3178a0f500a2906301d1b235138fb5dfb34817b7afd8a966cd578fdb7454a6af115880d52082b04321f1921533af95ff936837978ff88946ed77affb94b4464ff1b86035c06250a3c11172f5d34f751f7388d7776f1869a60d974f1bb494666fd1984015e0427083e13152d5f36f553f53a8f7574f3849862db76f3bd4f4060fb1f82075802210e3815132b5930f355f33c897372f5829e64dd70f5bf4d4262f91d80055a00230c3a1711295b32f157f13e8b7170f7809c66df72f7b1434c6cf7138e0b540e2d0234191f27553cff59ff30857f7ef98e9268d17cf9b3414e6ef5118c09560c2f00361b1d25573efd5bfd32877d7cfb8c906ad37efbb5474868f3178a0f500a2906301d1b235138fb5dfb34817b7afd8a966cd578fdb7454a6af115880d52082b04321f1921533af95ff936837978ff88946ed77affb94b4464ff1b86035c06250a3c11172f5bd9cab45ea72f2cef1dc019e331869b07225edddd8f6425086e39df3fcfd5c04",
        "type": "nulldata"
      }
    }
  ],
  "blockhash": "b157fe5006ea74e3e2696296011f5383f171fa956e468cbbd84742f98a1af3af",
  "confirmations": 1,
  "time": 1764179051,
  "blocktime": 1764179051
}