{
  "hex": "0100000000010176df962aa0bdea14f904bbb5e1cb57b8efaf7193844489c617fef31e99dfb1d70100000000feffffff02a0cee9a1782d0000225120831ce2734a0e1390c0eb6c4e164d1224784fef4de125b60ff8c655c6dd9eb1fb00e1f50500000000fdd5046a20a9582e5c7ec821055800e786b05aac22c30fdc8e28d88221cbeb258249fbdce14db0043dfe6eefad26a109298e54ba8d7bc343ec0afd9f7d1f1715aa1b558259cefd421dde4ecf8d06812909ae749aad5be363cc2addbf5d3f37358a3b75a279eedd627dbe2eafed66e14969ce14facd3b8303ac4abddf3d5f5755ea5b15c2198ebd025d9e0e8fcd46c16949ee34daed1ba3238c6a9dff1d7f7775ca7b35e239ae9d22bd7eee6f2da62189a90ed43a0dfb43c36c8a7d1ffd9f97952a9bd502d94e7dc29d5ece4f0d8601a9892ef41a2ddb63e34caa5d3fddbfb7b50abbf522f96e5de2fd3eae2f6de661c9e94e947a4dbb03832cca3d5fbddfd7d56adb9542990e3d82dd1e8e0f4dc641e9c96eb45a6d9b23a30cea1d7f9dfff7f54afbb562b92e1da23dfe6eefad26a109298e54ba8d7bc343ec0afd9f7d1f1715aa1b558259cefd421dde4ecf8d06812909ae749aad5be363cc2addbf5d3f37358a3b75a279eedd627dbe2eafed66e14969ce14facd3b8303ac4abddf3d5f5755ea5b15c2198ebd025d9e0e8fcd46c16949ee34daed1ba3238c6a9dff1d7f7775ca7b35e239ae9d22bd7eee6f2da62189a90ed43a0dfb43c36c8a7d1ffd9f97952a9bd502d94e7dc29d5ece4f0d8601a9892ef41a2ddb63e34caa5d3fddbfb7b50abbf522f96e5de2fd3eae2f6de661c9e94e947a4dbb03832cca3d5fbddfd7d56adb9542990e3d82dd1e8e0f4dc641e9c96eb45a6d9b23a30cea1d7f9dfff7f54afbb562b92e1da23dfe6eefad26a109298e54ba8d7bc343ec0afd9f7d1f1715aa1b558259cefd421dde4ecf8d06812909ae749aad5be363cc2addbf5d3f37358a3b75a279eedd627dbe2eafed66e14969ce14facd3b8303ac4abddf3d5f5755ea5b15c2198ebd025d9e0e8fcd46c16949ee34daed1ba3238c6a9dff1d7f7775ca7b35e239ae9d22bd7eee6f2da62189a90ed43a0dfb43c36c8a7d1ffd9f97952a9bd502d94e7dc29d5ece4f0d8601a9892ef41a2ddb63e34caa5d3fddbfb7b50abbf522f96e5de2fd3eae2f6de661c9e94e947a4dbb03832cca3d5fbddfd7d56adb9542990e3d82dd1e8e0f4dc641e9c96eb45a6d9b23a30cea1d7f9dfff7f54afbb562b92e1da23dfe6eefad26a109298e54ba8d7bc343ec0afd9f7d1f1715aa1b558259cefd421dde4ecf8d06812909ae749aad5be363cc2addbf5d3f37358a3b75a279eedd627dbe2eafed66e14969ce14facd3b8303ac4abddf3d5f5755ea5b15c2198ebd025d9e0e8fcd46c16949ee34daed1ba3238c6a9dff1d7f7775ca7b35e239ae9d22bd7eee6f2da62189a90ed43a0dfb43c36c8a7d1ffd9f97952a9bd502d94e7dc29d5ece4f0d8601a9892ef41a2ddb63e34caa5d3fddbfb7b50abbf522f96e5de2fd3eae2f6de661c9e94e947a4dbb03832cca3d5fbddfd7d56adb9542990e3d82dd1e8e0f4dc641e9c96eb45a6d9b23a30cea1d7f9dfff7f54afbb562b92e1da23dfe6eefad26a109298e54ba8d7bc343ec0afd9f7d1f1715aa1b558259cefd421dde4ecf8d06812909ae749aad5be363cc2addbf5d3f37358a3b75a279eedd627dbe2eafed66e14969ce14facd3b8303ac4abddf3d5f5755ea5b15c2198ebd025d9e0e8fcd46c16949ee34daed1ba3238c6a9dff1d7f7775ca7b35e239ae9d22bd7eee6f2da62189a90ed43a0dfb43c395dfbfea266acdfebde742c073b0cb703997b366fbecd4759e4dfd0b6bd2e60d02fd7509543daf5c61a33dd4783cb28a3c7752ed382114784f2c99e18b20f4e257040448cf82eae5889f805633c422cc9b66ac0f9d85b5ba8555ac384b2662e8f2c6fc7bee4f9a471e10b6b385c959d61f39e4256812578bb19dc5a0b6d54beacd27ccfc847f38911e345f621a022dc3c858ee94f58d383c5595002e223b07798c84f1bb68b1d75637c8d983a034e9ca549921989d83098b9a1229184ab84e24ed4f4f57ea5c4146b1076517ffec95445a55b43d705aa5c0f1658391e0fe24eb06e886eb71a4ec977464edab02f196b9e054883f14b56b91f50c143ee9dba46c4279627c46ae775122866dd46582471cc01e138966ffd263699d4d307e8b5d67d888321e97ab2ec2f5e890ab4adc89cac5da619827b698391c40bbbdf36b074b006cde469c47eebd40aff4950c4d0cd479e01f645731d88dd4055b06acdcfb3942b85008ebe5e7894a094326cb5632c653c991136e6c2ef2cff23c7c9885e28c090e02c256992456d62d3e774e3a9339efa48dc46c0e3edecb7f1756a8916abe117c1d514e754a71cca5c22f8816a0e51e2922ede30677cd994638cdf619250ceb2a910ea06dd8782cc15cda7c8a54ec5713ab65d20f63eed5cb5ed0654dbfcb07c14d71614fb003f5fcad20dc6bff20ce001ca9fde755bb4709074c047409989ffb8de8e9c80d8a17ad5ca20eb754d2e4c27646fc4d8938bbe46cfcbc635273eb519d9c042aedc5017cdb380f117040c73156cf8e171bc0df79dcf74e4e44effb87d0b6655e32096ba861c25e58d94bb684b5f1fde8677910d77ca26afdb65cfbee1fc57263d635524632e51e856bd05017782cf2e81a735f2b01744db78f79deb335f830a1f93ccfbfc4777f39ee806716f2e4fb39d37742918d14d9970523b5254172501a31a6559f4cc9237b0e6ce64b8c2ae081d3f359cb9bf9aa576a2d8b4249fda220e78e875a5ab1db6b094870ee72f7cbefb8ee0469bc979417590cfa0be715ad3d0411d029aeccf606e0654b467d7c56c2766cf263db146e57153841341cbcb0976b2e4fe433f0ea523bec02e1c2f3f740f60b558a12340380581895dbae3b07fe9ba34c059c713a8cfc87bb777776c944e41fa599016709d5291314447f7a4730213bd3fbec4e99a437364796f5570437cb3d06e214b0ca607cd019ca841d13bcfa6ff356b7a1a78761b900ac6c6dc65dd378450ddbf0067e3921bab0ed016789d5771cb74fdf69da69691907ea55d19bc3203c6da6ba924c0bc975124157887b0e7f4ab1cf59f3f083613a7f3c540cd6be0b68445cc4513318b8504825d94cebdd4f64b235a935ea72a85e6a4f2ba2d512c8388bf9bb53552449d068c75a938d0d73d7957457980a02af9e1f45ef55812d3f0a3c35c67d2fce6ea8a3ec167809e3d8bd0c9488b59ae70200b4ccd988c9fcf6d66ee5f0e3c82657e738864dc1711cc80a6ea19c4628458ccb066d7622efeab6e55cca2e714f4850d4b15ce06f811e3562d4182f4e3b9c189f4f0ad734bc3c36f301c2a2c0ff839aaa4687e447d5b772d0df4f4557d7d8c637ff9d7684ec7eb4831fd6f560a6df80de52b6a184dd84894da12d0559c2363f099ef35fb20de2df783ddb8ad157b360f483027e56ed8e398b88d8b0a52a37cb65eaa1ba6cd82f486476320209448509bd4b125064df1dddb18f6ff5d663a0d063c0b5a67bfcd2bfd8cd768f698f41463ed1a9999a7e6df81432ec7b25c40bf0497935df67089c255bb07c21ff23cf33e966af3ed3ca589d129a8759eb51ef48b420601ab46d259858203a72d29bf09525b350d33ba1097a5d2f80c71ec4d8356537099e10cb60c791dcd452446587ac68d8574ec0b7e98a661fc9054de9ce11d5b1a8cbd25cbc8fab9ad4c251af89e836871d00591cd1a427b59c1cecb062a28265fbb93cd3ba5e0e999912076dcbc6800467285843ed2f1e804ff2a01326a2f0fb2354d125d63495c5bfd490d7ceebffc977a817db5b30ab5dacbc8a53773c7d22014f5b78dcb5c472e1c55bf43477a8e13045201a045699367a2513722bbcf0de49e428ff88fb3403cdc66401af59aa32d1f53dac283744d690ed60db6e500c0a74e9a6683455774df11f340d10a01620855f0b8703a0eea2a4415a62a4d63d4576be4d069b2c5ac434c188d9c67ac0e37b913985d349f9d16819db781f0b9158976e294ae769ef93f54fcf41626b674f9316cc6f26141c8e615f3b414ca2f49a5d2ff693c3726eae768c3796739e0fdcb41212b7f8d90269aa5f1f0e501544798dd9474a9f72d5986faee0334825d100fd45f43719207a378e29e0027391633781c6de4f98211b8cfe8925b5ed979100fa5993cbfcb3c8cdb8efa121fb2f6704b7382e535f2e9e495db6c42d374397c332912eac1ff3463cfa859f03a835646c3535b305591ff688f7dec018055e52248d3501b290c4d9880623312632cc83560f1f6d339e0b8125d3d855be7511704c52d5d612d6fd74c5ed26ec7fa03ac72be751530dd18aff70cde1982e9983276c9d8ef92db4c3024acf445716973722e9345b535995a73f1d79114f21a8db420d7411fe3f4e16e5ae097d1c382a38a90025e78c23a1d4d3f6cf1aaaae73755705fae022d64674bcfddc54d4fb8c31d84cb0d0f3bd999489af1e8fc702fb0f2f226c3d897967fac31eadcf945c5f3653936096731e6b5db8e672c01f47d71585985df3f87b2ae5efb280a8381bac09924f31fa54f6d8eb596aea429d2f1258f4ba30a0b9df24915d22f97717e8f89a199598e60c896b035fa7079f27dc09612528d606d7d383183c5e4393069b44db2dadb1c5cf48afc034a00da878326b9b802ee054e52dacdced7ee2059577d100e48412b7b91b767d726ac7c90f10ce9566f8e5f37176fd756692cc8c4d3174efcaf12299a12e5d573c48c6585aba1a24d29d3d0558dd08b6fc5c4c0e5916a6c537a18d8447d0c0d19819a3f1ce9304f62a3235160fc211e9ee62dedb85f1019be7850778a29bbf5f9b259744dd8671d67e6f146002c649ff568398c7344f07ff4d9ee54a1bc1f48426f056498671bc3979fd2b4799db6ad1453b3aee03720646abfb2d8846d86af6268451147159c02941f06ddb1b51b7b1a8c59ac1f7da5214ee1dcc557e2de65b08846a050b9f1ec78da27598881cda0d95f31df2439cff098728f81cdfe19999e4017e3fb3aac1a6961cb03ad39f0ae452c87f8e5575e204f4278e3e164af6110962854eabc6114274afe04375ebe166e3dee60f94fd4f630a701ad5ffc2c72debc7e016eebfe292e2e7316a030c344c646d727387969aa0b1c2d4d6dce0070a11313346a7acb1b3b6cd101d32535e74799aafb0b3babe1c26484d4e505c5d6c8c999da2cacedde5e8fa000000000000000000000000000000000000121e2b3e01fd210500f95d79074d35474825fe3f0f88950ce64ec63c3ed2a7c980d5ec7dd69d8a263533c66a9c9f45924bd13cd2c628ba3f0bad94f4d8eeef8d57af5bf9a84edaf176578feaf714f415dba917eb7faf4c7268387c63b6a25f76573af8858355403a84c39226567fc5606c4af88eb98954861bffc55f59430930facb2b3625a630d73ae02a1332015f626365e83603617d6c2f7ad9691c6c9b7b4419c164b876477da646f1e9d71345448068bcfa9d72744c1a9ffab0dc194047eb09c9395763876ea38baddf38647584a5301d8646a3dc2a1bbddadba82a5a6eb67c94e0b24610fed91f65dca620a916891c2c73c78601f0f021b1370a33abe03783afe0b55b0053d89571e8a7fc1ecea9863293ef13ae491d4485b18e8b8f2ac23b5dc3ecc1d6cf3544e3a879fbe5b1dac0c64d5883deb6dcb03f062be70f75154f86aa89cf63710af8b0700ca98e401f8b692d9a01d1e40f9f4c35af3acc7f495b26f9474fd4bb45ebcda9ea80520e5b2ad3cdbafcb54f4ae18fdbce66e3a27ebb0117b42e88832dc6d6eb1d5404c90767feaa548cc7cb685bdb0fd32dbb149294ba2de552adbe5cde2f3828d1f2f0e652e541d873c70c40537f137d7eafddef78acc054c0a19bd163ae48fee7b73e41f48069b8ce7349a4cf9af7a20b9aac04cbaece16e5a377d183ee2a782197dd95cd73051bd3d7962f737d3689e6abd6a8206df416f66aa57c3c89b8d32cb1e23587d6123392ba620a3034a646088d8b9f8f6482322633fa0d1851dc65372b2785a1e3a358da3cd93fe1ac0fed34fbb8f9f625eb099eed14e6d13421373295858e185e619cf71deffe55f90f706b210650cb255a8a024616a36feed81fdd53b30c4764daf6622d2a57674ef3397f40da5f1831c2061d322f03a02866baa9c368d643b9c82a4cb01347b663ce960bd8dcec9060dec9ef01fe9d41d8f4881d01bb2742ac666c7cd6859a7144e1c7b4259f90d67bda376da8b3e76923021b79bd079c515672935bcaa93d8593a29349d11f8a929b359c270caa5cfe523edb49f4677f821c36051c86fdace1328f7d724ef0412e0a23546334493cfa6a3a4d707c80e200aef4b833c4aac7a99108793137c0be52f2d19f03c7c708ffe72c0ab8c49363ebe100f33612b0bf2ea38c61a5df9caf0ea95a0ba4ff5bfe469328e42568692dcdcb2fcb2d1010f7b91547a4056cceccd9170c67ab6d219a7691fe0210c75f764e8599bc1062c001ed2c71706bd10f3eb4f47c6939418a6b38f6d0270dc7e3b1a1abb2c6532f0f7bc11a723b537e59ec39b8a9e7b1d9aaf5ef6cff41b1a8f07e1d1f59913f18e97461d60b49227ee3c50600272826b68b6a680fe855cf2d10f1ce37fe4498ade2636c7b38b4ff2f85b0e07ee8e70398d45fc2d47f97fb96621588c37d25f0ac55a87192495c943993f9d5f7dddb852897752cfbd4c5636152cf4b24e3eca035b0bde5d85f9a6df7ffe8641639402849bac44317771a651e86f1bd3ebeaf1f6ec6260f6f9d75e4b953ac77cac151be2a93ed029cded446bea8eee5ef38d331711ae475802b10416e0633be03f2d92cc590a3ed341a6b75b13250dfe5214709e54594e0f8e0d00dfb78a4d1cb18778e0316f39b62a6c6a31a554f5f7ac3332c315fe52d1fe063fee793cf631caa14318f22e58ab9737e309f23716baf75e67e592a27a72ec9faf610093618f6e1614b0510397c6afc2a9a1f24e191ca4969e56ed9e3db97f62ae0d85c39e2a212dfd4b42d8bffe2e495f27f8d17df89c834ad85859b2c446a0a837eb41e16f8f535968c18a8f7d177fdbce8fb2120919d58aa46384c9d4f107c685b9020c73205cd56bfab1187000000",
  "txid": "1076d9d3efebb31a7578bb2800e6f7d525359005e16e8fafb046fcd9f3c818e0",
  "hash": "bfbb3c367ba384ae235778f0e4eb3e6526e219476b9cfa7d71bb05fbaa350872",
  "size": 5085,
  "vsize": 2278,
  "version": 1,
  "locktime": 135,
  "vin": [
    {
      "txid": "d7b1df991ef3fe17c68944849371afefb857cbe1b5bb04f914eabda02a96df76",
      "vout": 1,
      "scriptSig": {
        "asm": "",
        "hex": ""
      },
      "txinwitness": [
        "543daf5c61a33dd4783cb28a3c7752ed382114784f2c99e18b20f4e257040448cf82eae5889f805633c422cc9b66ac0f9d85b5ba8555ac384b2662e8f2c6fc7bee4f9a471e10b6b385c959d61f39e4256812578bb19dc5a0b6d54beacd27ccfc847f38911e345f621a022dc3c858ee94f58d383c5595002e223b07798c84f1bb68b1d75637c8d983a034e9ca549921989d83098b9a1229184ab84e24ed4f4f57ea5c4146b1076517ffec95445a55b43d705aa5c0f1658391e0fe24eb06e886eb71a4ec977464edab02f196b9e054883f14b56b91f50c143ee9dba46c4279627c46ae775122866dd46582471cc01e138966ffd263699d4d307e8b5d67d888321e97ab2ec2f5e890ab4adc89cac5da619827b698391c40bbbdf36b074b006cde469c47eebd40aff4950c4d0cd479e01f645731d88dd4055b06acdcfb3942b85008ebe5e7894a094326cb5632c653c991136e6c2ef2cff23c7c9885e28c090e02c256992456d62d3e774e3a9339efa48dc46c0e3edecb7f1756a8916abe117c1d514e754a71cca5c22f8816a0e51e2922ede30677cd994638cdf619250ceb2a910ea06dd8782cc15cda7c8a54ec5713ab65d20f63eed5cb5ed0654dbfcb07c14d71614fb003f5fcad20dc6bff20ce001ca9fde755bb4709074c047409989ffb8de8e9c80d8a17ad5ca20eb754d2e4c27646fc4d8938bbe46cfcbc635273eb519d9c042aedc5017cdb380f117040c73156cf8e171bc0df79dcf74e4e44effb87d0b6655e32096ba861c25e58d94bb684b5f1fde8677910d77ca26afdb65cfbee1fc57263d635524632e51e856bd05017782cf2e81a735f2b01744db78f79deb335f830a1f93ccfbfc4777f39ee806716f2e4fb39d37742918d14d9970523b5254172501a31a6559f4cc9237b0e6ce64b8c2ae081d3f359cb9bf9aa576a2d8b4249fda220e78e875a5ab1db6b094870ee72f7cbefb8ee0469bc979417590cfa0be715ad3d0411d029aeccf606e0654b467d7c56c2766cf263db146e57153841341cbcb0976b2e4fe433f0ea523bec02e1c2f3f740f60b558a12340380581895dbae3b07fe9ba34c059c713a8cfc87bb777776c944e41fa599016709d5291314447f7a4730213bd3fbec4e99a437364796f5570437cb3d06e214b0ca607cd019ca841d13bcfa6ff356b7a1a78761b900ac6c6dc65dd378450ddbf0067e3921bab0ed016789d5771cb74fdf69da69691907ea55d19bc3203c6da6ba924c0bc975124157887b0e7f4ab1cf59f3f083613a7f3c540cd6be0b68445cc4513318b8504825d94cebdd4f64b235a935ea72a85e6a4f2ba2d512c8388bf9bb53552449d068c75a938d0d73d7957457980a02af9e1f45ef55812d3f0a3c35c67d2fce6ea8a3ec167809e3d8bd0c9488b59ae70200b4ccd988c9fcf6d66ee5f0e3c82657e738864dc1711cc80a6ea19c4628458ccb066d7622efeab6e55cca2e714f4850d4b15ce06f811e3562d4182f4e3b9c189f4f0ad734bc3c36f301c2a2c0ff839aaa4687e447d5b772d0df4f4557d7d8c637ff9d7684ec7eb4831fd6f560a6df80de52b6a184dd84894da12d0559c2363f099ef35fb20de2df783ddb8ad157b360f483027e56ed8e398b88d8b0a52a37cb65eaa1ba6cd82f486476320209448509bd4b125064df1dddb18f6ff5d663a0d063c0b5a67bfcd2bfd8cd768f698f41463ed1a9999a7e6df81432ec7b25c40bf0497935df67089c255bb07c21ff23cf33e966af3ed3ca589d129a8759eb51ef48b420601ab46d259858203a72d29bf09525b350d33ba1097a5d2f80c71ec4d8356537099e10cb60c791dcd452446587ac68d8574ec0b7e98a661fc9054de9ce11d5b1a8cbd25cbc8fab9ad4c251af89e836871d00591cd1a427b59c1cecb062a28265fbb93cd3ba5e0e999912076dcbc6800467285843ed2f1e804ff2a01326a2f0fb2354d125d63495c5bfd490d7ceebffc977a817db5b30ab5dacbc8a53773c7d22014f5b78dcb5c472e1c55bf43477a8e13045201a045699367a2513722bbcf0de49e428ff88fb3403cdc66401af59aa32d1f53dac283744d690ed60db6e500c0a74e9a6683455774df11f340d10a01620855f0b8703a0eea2a4415a62a4d63d4576be4d069b2c5ac434c188d9c67ac0e37b913985d349f9d16819db781f0b9158976e294ae769ef93f54fcf41626b674f9316cc6f26141c8e615f3b414ca2f49a5d2ff693c3726eae768c3796739e0fdcb41212b7f8d90269aa5f1f0e501544798dd9474a9f72d5986faee0334825d100fd45f43719207a378e29e0027391633781c6de4f98211b8cfe8925b5ed979100fa5993cbfcb3c8cdb8efa121fb2f6704b7382e535f2e9e495db6c42d374397c332912eac1ff3463cfa859f03a835646c3535b305591ff688f7dec018055e52248d3501b290c4d9880623312632cc83560f1f6d339e0b8125d3d855be7511704c52d5d612d6fd74c5ed26ec7fa03ac72be751530dd18aff70cde1982e9983276c9d8ef92db4c3024acf445716973722e9345b535995a73f1d79114f21a8db420d7411fe3f4e16e5ae097d1c382a38a90025e78c23a1d4d3f6cf1aaaae73755705fae022d64674bcfddc54d4fb8c31d84cb0d0f3bd999489af1e8fc702fb0f2f226c3d897967fac31eadcf945c5f3653936096731e6b5db8e672c01f47d71585985df3f87b2ae5efb280a8381bac09924f31fa54f6d8eb596aea429d2f1258f4ba30a0b9df24915d22f97717e8f89a199598e60c896b035fa7079f27dc09612528d606d7d383183c5e4393069b44db2dadb1c5cf48afc034a00da878326b9b802ee054e52dacdced7ee2059577d100e48412b7b91b767d726ac7c90f10ce9566f8e5f37176fd756692cc8c4d3174efcaf12299a12e5d573c48c6585aba1a24d29d3d0558dd08b6fc5c4c0e5916a6c537a18d8447d0c0d19819a3f1ce9304f62a3235160fc211e9ee62dedb85f1019be7850778a29bbf5f9b259744dd8671d67e6f146002c649ff568398c7344f07ff4d9ee54a1bc1f48426f056498671bc3979fd2b4799db6ad1453b3aee03720646abfb2d8846d86af6268451147159c02941f06ddb1b51b7b1a8c59ac1f7da5214ee1dcc557e2de65b08846a050b9f1ec78da27598881cda0d95f31df2439cff098728f81cdfe19999e4017e3fb3aac1a6961cb03ad39f0ae452c87f8e5575e204f4278e3e164af6110962854eabc6114274afe04375ebe166e3dee60f94fd4f630a701ad5ffc2c72debc7e016eebfe292e2e7316a030c344c646d727387969aa0b1c2d4d6dce0070a11313346a7acb1b3b6cd101d32535e74799aafb0b3babe1c26484d4e505c5d6c8c999da2cacedde5e8fa000000000000000000000000000000000000121e2b3e01",
        "00f95d79074d35474825fe3f0f88950ce64ec63c3ed2a7c980d5ec7dd69d8a263533c66a9c9f45924bd13cd2c628ba3f0bad94f4d8eeef8d57af5bf9a84edaf176578feaf714f415dba917eb7faf4c7268387c63b6a25f76573af8858355403a84c39226567fc5606c4af88eb98954861bffc55f59430930facb2b3625a630d73ae02a1332015f626365e83603617d6c2f7ad9691c6c9b7b4419c164b876477da646f1e9d71345448068bcfa9d72744c1a9ffab0dc194047eb09c9395763876ea38baddf38647584a5301d8646a3dc2a1bbddadba82a5a6eb67c94e0b24610fed91f65dca620a916891c2c73c78601f0f021b1370a33abe03783afe0b55b0053d89571e8a7fc1ecea9863293ef13ae491d4485b18e8b8f2ac23b5dc3ecc1d6cf3544e3a879fbe5b1dac0c64d5883deb6dcb03f062be70f75154f86aa89cf63710af8b0700ca98e401f8b692d9a01d1e40f9f4c35af3acc7f495b26f9474fd4bb45ebcda9ea80520e5b2ad3cdbafcb54f4ae18fdbce66e3a27ebb0117b42e88832dc6d6eb1d5404c90767feaa548cc7cb685bdb0fd32dbb149294ba2de552adbe5cde2f3828d1f2f0e652e541d873c70c40537f137d7eafddef78acc054c0a19bd163ae48fee7b73e41f48069b8ce7349a4cf9af7a20b9aac04cbaece16e5a377d183ee2a782197dd95cd73051bd3d7962f737d3689e6abd6a8206df416f66aa57c3c89b8d32cb1e23587d6123392ba620a3034a646088d8b9f8f6482322633fa0d1851dc65372b2785a1e3a358da3cd93fe1ac0fed34fbb8f9f625eb099eed14e6d13421373295858e185e619cf71deffe55f90f706b210650cb255a8a024616a36feed81fdd53b30c4764daf6622d2a57674ef3397f40da5f1831c2061d322f03a02866baa9c368d643b9c82a4cb01347b663ce960bd8dcec9060dec9ef01fe9d41d8f4881d01bb2742ac666c7cd6859a7144e1c7b4259f90d67bda376da8b3e76923021b79bd079c515672935bcaa93d8593a29349d11f8a929b359c270caa5cfe523edb49f4677f821c36051c86fdace1328f7d724ef0412e0a23546334493cfa6a3a4d707c80e200aef4b833c4aac7a99108793137c0be52f2d19f03c7c708ffe72c0ab8c49363ebe100f33612b0bf2ea38c61a5df9caf0ea95a0ba4ff5bfe469328e42568692dcdcb2fcb2d1010f7b91547a4056cceccd9170c67ab6d219a7691fe0210c75f764e8599bc1062c001ed2c71706bd10f3eb4f47c6939418a6b38f6d0270dc7e3b1a1abb2c6532f0f7bc11a723b537e59ec39b8a9e7b1d9aaf5ef6cff41b1a8f07e1d1f59913f18e97461d60b49227ee3c50600272826b68b6a680fe855cf2d10f1ce37fe4498ade2636c7b38b4ff2f85b0e07ee8e70398d45fc2d47f97fb96621588c37d25f0ac55a87192495c943993f9d5f7dddb852897752cfbd4c5636152cf4b24e3eca035b0bde5d85f9a6df7ffe8641639402849bac44317771a651e86f1bd3ebeaf1f6ec6260f6f9d75e4b953ac77cac151be2a93ed029cded446bea8eee5ef38d331711ae475802b10416e0633be03f2d92cc590a3ed341a6b75b13250dfe5214709e54594e0f8e0d00dfb78a4d1cb18778e0316f39b62a6c6a31a554f5f7ac3332c315fe52d1fe063fee793cf631caa14318f22e58ab9737e309f23716baf75e67e592a27a72ec9faf610093618f6e1614b0510397c6afc2a9a1f24e191ca4969e56ed9e3db97f62ae0d85c39e2a212dfd4b42d8bffe2e495f27f8d17df89c834ad85859b2c446a0a837eb41e16f8f535968c18a8f7d177fdbce8fb2120919d58aa46384c9d4f107c685b9020c73205cd56bfab11"
      ],
      "sequence": 4294967294
    }
  ],
  "vout": [
    {
      "value": 499961.3578,
      "n": 0,
      "scriptPubKey": {
        "asm": "1 831ce2734a0e1390c0eb6c4e164d1224784fef4de125b60ff8c655c6dd9eb1fb",
        "hex": "5120831ce2734a0e1390c0eb6c4e164d1224784fef4de125b60ff8c655c6dd9eb1fb",
        "reqSigs": 1,
        "type": "witness_v1_scripthash",
        "addresses": [
          "3QJmnh"
        ]
      }
    },
    {
      "value": 1.0,
      "n": 1,
      "scriptPubKey": {
        "asm": "OP_RETURN a9582e5c7ec821055800e786b05aac22c30fdc8e28d88221cbeb258249fbdce1 3dfe6eefad26a109298e54ba8d7bc343ec0afd9f7d1f1715aa1b558259cefd421dde4ecf8d06812909ae749aad5be363cc2addbf5d3f37358a3b75a279eedd627dbe2eafed66e14969ce14facd3b8303ac4abddf3d5f5755ea5b15c2198ebd025d9e0e8fcd46c16949ee34daed1ba3238c6a9dff1d7f7775ca7b35e239ae9d22bd7eee6f2da62189a90ed43a0dfb43c36c8a7d1ffd9f97952a9bd502d94e7dc29d5ece4f0d8601a9892ef41a2ddb63e34caa5d3fddbfb7b50abbf522f96e5de2fd3eae2f6de661c9e94e947a4dbb03832cca3d5fbddfd7d56adb9542990e3d82dd1e8e0f4dc641e9c96eb45a6d9b23a30cea1d7f9dfff7f54afbb562b92e1da23dfe6eefad26a109298e54ba8d7bc343ec0afd9f7d1f1715aa1b558259cefd421dde4ecf8d06812909ae749aad5be363cc2addbf5d3f37358a3b75a279eedd627dbe2eafed66e14969ce14facd3b8303ac4abddf3d5f5755ea5b15c2198ebd025d9e0e8fcd46c16949ee34daed1ba3238c6a9dff1d7f7775ca7b35e239ae9d22bd7eee6f2da62189a90ed43a0dfb43c36c8a7d1ffd9f97952a9bd502d94e7dc29d5ece4f0d8601a9892ef41a2ddb63e34caa5d3fddbfb7b50abbf522f96e5de2fd3eae2f6de661c9e94e947a4dbb03832cca3d5fbddfd7d56adb9542990e3d82dd1e8e0f4dc641e9c96eb45a6d9b23a30cea1d7f9dfff7f54afbb562b92e1da23dfe6eefad26a109298e54ba8d7bc343ec0afd9f7d1f1715aa1b558259cefd421dde4ecf8d06812909ae749aad5be363cc2addbf5d3f37358a3b75a279eedd627dbe2eafed66e14969ce14facd3b8303ac4abddf3d5f5755ea5b15c2198ebd025d9e0e8fcd46c16949ee34daed1ba3238c6a9dff1d7f7775ca7b35e239ae9d22bd7eee6f2da62189a90ed43a0dfb43c36c8a7d1ffd9f97952a9bd502d94e7dc29d5ece4f0d8601a9892ef41a2ddb63e34caa5d3fddbfb7b50abbf522f96e5de2fd3eae2f6de661c9e94e947a4dbb03832cca3d5fbddfd7d56adb9542990e3d82dd1e8e0f4dc641e9c96eb45a6d9b23a30cea1d7f9dfff7f54afbb562b92e1da23dfe6eefad26a109298e54ba8d7bc343ec0afd9f7d1f1715aa1b558259cefd421dde4ecf8d06812909ae749aad5be363cc2addbf5d3f37358a3b75a279eedd627dbe2eafed66e14969ce14facd3b8303ac4abddf3d5f5755ea5b15c2198ebd025d9e0e8fcd46c16949ee34daed1ba3238c6a9dff1d7f7775ca7b35e239ae9d22bd7eee6f2da62189a90ed43a0dfb43c36c8a7d1ffd9f97952a9bd502d94e7dc29d5ece4f0d8601a9892ef41a2ddb63e34caa5d3fddbfb7b50abbf522f96e5de2fd3eae2f6de661c9e94e947a4dbb03832cca3d5fbddfd7d56adb9542990e3d82dd1e8e0f4dc641e9c96eb45a6d9b23a30cea1d7f9dfff7f54afbb562b92e1da23dfe6eefad26a109298e54ba8d7bc343ec0afd9f7d1f1715aa1b558259cefd421dde4ecf8d06812909ae749aad5be363cc2addbf5d3f37358a3b75a279eedd627dbe2eafed66e14969ce14facd3b8303ac4abddf3d5f5755ea5b15c2198ebd025d9e0e8fcd46c16949ee34daed1ba3238c6a9dff1d7f7775ca7b35e239ae9d22bd7eee6f2da62189a90ed43a0dfb43c395dfbfea266acdfebde742c073b0cb703997b366fbecd4759e4dfd0b6bd2e60d",
        "hex": "6a20a9582e5c7ec821055800e786b05aac22c30fdc8e28d88221cbeb258249fbdce14db0043dfe6eefad26a109298e54ba8d7bc343ec0afd9f7d1f1715aa1b558259cefd421dde4ecf8d06812909ae749aad5be363cc2addbf5d3f37358a3b75a279eedd627dbe2eafed66e14969ce14facd3b8303ac4abddf3d5f5755ea5b15c2198ebd025d9e0e8fcd46c16949ee34daed1ba3238c6a9dff1d7f7775ca7b35e239ae9d22bd7eee6f2da62189a90ed43a0dfb43c36c8a7d1ffd9f97952a9bd502d94e7dc29d5ece4f0d8601a9892ef41a2ddb63e34caa5d3fddbfb7b50abbf522f96e5de2fd3eae2f6de661c9e94e947a4dbb03832cca3d5fbddfd7d56adb9542990e3d82dd1e8e0f4dc641e9c96eb45a6d9b23a30cea1d7f9dfff7f54afbb562b92e1da23dfe6eefad26a109298e54ba8d7bc343ec0afd9f7d1f1715aa1b558259cefd421dde4ecf8d06812909ae749aad5be363cc2addbf5d3f37358a3b75a279eedd627dbe2eafed66e14969ce14facd3b8303ac4abddf3d5f5755ea5b15c2198ebd025d9e0e8fcd46c16949ee34daed1ba3238c6a9dff1d7f7775ca7b35e239ae9d22bd7eee6f2da62189a90ed43a0dfb43c36c8a7d1ffd9f97952a9bd502d94e7dc29d5ece4f0d8601a9892ef41a2ddb63e34caa5d3fddbfb7b50abbf522f96e5de2fd3eae2f6de661c9e94e947a4dbb03832cca3d5fbddfd7d56adb9542990e3d82dd1e8e0f4dc641e9c96eb45a6d9b23a30cea1d7f9dfff7f54afbb562b92e1da23dfe6eefad26a109298e54ba8d7bc343ec0afd9f7d1f1715aa1b558259cefd421dde4ecf8d06812909ae749aad5be363cc2addbf5d3f37358a3b75a279eedd627dbe2eafed66e14969ce14facd3b8303ac4abddf3d5f5755ea5b15c2198ebd025d9e0e8fcd46c16949ee34daed1ba3238c6a9dff1d7f7775ca7b35e239ae9d22bd7eee6f2da62189a90ed43a0dfb43c36c8a7d1ffd9f97952a9bd502d94e7dc29d5ece4f0d8601a9892ef41a2ddb63e34caa5d3fddbfb7b50abbf522f96e5de2fd3eae2f6de661c9e94e947a4dbb03832cca3d5fbddfd7d56adb9542990e3d82dd1e8e0f4dc641e9c96eb45a6d9b23a30cea1d7f9dfff7f54afbb562b92e1da23dfe6eefad26a109298e54ba8d7bc343ec0afd9f7d1f1715aa1b558259cefd421dde4ecf8d06812909ae749aad5be363cc2addbf5d3f37358a3b75a279eedd627dbe2eafed66e14969ce14facd3b8303ac4abddf3d5f5755ea5b15c2198ebd025d9e0e8fcd46c16949ee34daed1ba3238c6a9dff1d7f7775ca7b35e239ae9d22bd7eee6f2da62189a90ed43a0dfb43c36c8a7d1ffd9f97952a9bd502d94e7dc29d5ece4f0d8601a9892ef41a2ddb63e34caa5d3fddbfb7b50abbf522f96e5de2fd3eae2f6de661c9e94e947a4dbb03832cca3d5fbddfd7d56adb9542990e3d82dd1e8e0f4dc641e9c96eb45a6d9b23a30cea1d7f9dfff7f54afbb562b92e1da23dfe6eefad26a109298e54ba8d7bc343ec0afd9f7d1f1715aa1b558259cefd421dde4ecf8d06812909ae749aad5be363cc2addbf5d3f37358a3b75a279eedd627dbe2eafed66e14969ce14facd3b8303ac4abddf3d5f5755ea5b15c2198ebd025d9e0e8fcd46c16949ee34daed1ba3238c6a9dff1d7f7775ca7b35e239ae9d22bd7eee6f2da62189a90ed43a0dfb43c395dfbfea266acdfebde742c073b0cb703997b366fbecd4759e4dfd0b6bd2e60d",
        "type": "nulldata"
      }
    }
  ],
  "blockhash": "04b08afa406522d4605e5542ad480440adf33b25b306f33fff8225e2cbbf4733",
  "confirmations": 1,
  "time": 1764183055,
  "blocktime": 1764183055
}