{
  "hex": "010000000001012487ac4ecce82609a70671340431fc3fdec48f61904aa6565ec01ba3925d2b710100000000feffffff0200e1f50500000000fdd5046a203fd42c6108d74aa6b4f83bd717ca29a89f8830ba14e0125810f53ce7083592844db00450c290907752833dd6aa9b959dfdc0143c38b1582e542475315ab93a7e6fe63970e2b0b05772a31df68abbb5bddde0341c1891780e740455117a991a5e4fc6191082d0d03712c37d96eadbd5ddbd80547c78f1186e146435711af97a3e2fa67930a2f0f01732e35db6cafbf5fd9da0745c58d1384e344415513ad95a1e0f8659d0421010f7d203bd562a1b151d7d4094bcb831d8aed4a4f5b1da39bafeef66b9f0623030d7f2239d760a3b353d5d60b49c9811f88ef484d591fa199adecf469990025050b79243fd166a5b555d3d00d4fcf87198ee94e4b5f19a79fabeaf26f9b022707097b263dd364a7b757d1d20f4dcd851b8ceb4c495d1ba59da9e8f06d950c290907752833dd6aa9b959dfdc0143c38b1582e542475315ab93a7e6fe63970e2b0b05772a31df68abbb5bddde0341c1891780e740455117a991a5e4fc6191082d0d03712c37d96eadbd5ddbd80547c78f1186e146435711af97a3e2fa67930a2f0f01732e35db6cafbf5fd9da0745c58d1384e344415513ad95a1e0f8659d0421010f7d203bd562a1b151d7d4094bcb831d8aed4a4f5b1da39bafeef66b9f0623030d7f2239d760a3b353d5d60b49c9811f88ef484d591fa199adecf469990025050b79243fd166a5b555d3d00d4fcf87198ee94e4b5f19a79fabeaf26f9b022707097b263dd364a7b757d1d20f4dcd851b8ceb4c495d1ba59da9e8f06d950c290907752833dd6aa9b959dfdc0143c38b1582e542475315ab93a7e6fe63970e2b0b05772a31df68abbb5bddde0341c1891780e740455117a991a5e4fc6191082d0d03712c37d96eadbd5ddbd80547c78f1186e146435711af97a3e2fa67930a2f0f01732e35db6cafbf5fd9da0745c58d1384e344415513ad95a1e0f8659d0421010f7d203bd562a1b151d7d4094bcb831d8aed4a4f5b1da39bafeef66b9f0623030d7f2239d760a3b353d5d60b49c9811f88ef484d591fa199adecf469990025050b79243fd166a5b555d3d00d4fcf87198ee94e4b5f19a79fabeaf26f9b022707097b263dd364a7b757d1d20f4dcd851b8ceb4c495d1ba59da9e8f06d950c290907752833dd6aa9b959dfdc0143c38b1582e542475315ab93a7e6fe63970e2b0b05772a31df68abbb5bddde0341c1891780e740455117a991a5e4fc6191082d0d03712c37d96eadbd5ddbd80547c78f1186e146435711af97a3e2fa67930a2f0f01732e35db6cafbf5fd9da0745c58d1384e344415513ad95a1e0f8659d0421010f7d203bd562a1b151d7d4094bcb831d8aed4a4f5b1da39bafeef66b9f0623030d7f2239d760a3b353d5d60b49c9811f88ef484d591fa199adecf469990025050b79243fd166a5b555d3d00d4fcf87198ee94e4b5f19a79fabeaf26f9b022707097b263dd364a7b757d1d20f4dcd851b8ceb4c495d1ba59da9e8f06d950c290907752833dd6aa9b959dfdc0143c38b1582e542475315ab93a7e6fe63970e2b0b05772a31df68abbb5bddde0341c1891780e740455117a991a5e4fc6191082d0d03712c37d96eadbd5ddbd80547c78f1186e146435711af97a3e2fa67930a2f0f01732e35db6cafbf5fd9da0745c58d1384e344415513ad95a1e0f8659d0421010f7d203bd562a1b151d7d40947e4b3a68926b7ffd8168ebd5031d341822a3f925aa0fbb4e5300cee3dcba7acad0cb9045792d0000225120f88288666354bfe988944b1dd99da6c8b5f3f35bece294114d681fb3820245e602fd7509c7ebf3d13f309cb6b609deee055dd5b7254b54f00d8156f9113d7911dfce37b1c7b3067e070c0cc0709c779e5d6a957dacee915cf3f6d07a9eace1fb14eb06f87b42c481263b1656e9e62e51fe49c245e43bfb17a723e65f73fa34bd6fd464ccd302b0447144ea077cb1d16bdf8e9577f2aacddf3b41fa4b25c68a083f31ff4036f278c942d50b48d6c549dee33f86b5667ceb3a0c64a92982b07ddbee5a15a5a7ce45756bcab1025acf9b68bb6e6a018a44a56cc08380791eb7011ac7ab739f1dec75da6f1808245120e4a65277784488279f44ef0ed809ea137ae5a7665ff55f841d84c79dabf89178b7dca3a334f169471896e9b8b81e5a2f6d117f085c4fafe5345fb33bc8895dd5e6d688a25d70198e9ae65f3acacd052e1d34e46ab0e3f30c4612f3dc532c71f2dd1bddecb60fc010ccbe1629a3d246f117a49d2f4801c890ee7a113e3e25f5d4313cdd11734544fc2b017474616dd600fffa5f2183f302916f1d2ebca856192c693eb8b9242fdfa56f33c3c2fdf693632d9ec7d97317d965f02c1fb07ccf95ca8b1a979327b281dda8d11f893849185993f64cbd743cea306d2471243b1570589f38d85275c575ac9686183eb4a1f59efad62e6f788e44ddd2c9a76d568e2cb2788eb794b469fcb40b8df739ebd10ca9f5338fee99cec7e52be315136c381cbaf4e46ffb4d693da8fb5394231ed9423437cc3e2096262030c433f0526a14e100783bcde3fee204fb42d6240cf4bbdef1a7ec0b1fd7da8fae31d3a47192ea6b00a3f238d54ca30ecc11eef4d368d4925d30e5711f18e4d1f72685e3a1bb6ae31cf8e334774716ea4b2d6b22d32cea16ffe49e818dc6c14f37c1332a547a3ce5c1bb2bad4d292a03776c2d64bbed773ddc4aaf08870eedf4e6e845450c7504f96cd98f54d39e52e33147a67b20f3263da3e5765cc259fde4852cff1ddc3ecae02125169ae1bbe08d9df2a005ff393cb7886c27c5394525b8ab2d1c44a7afb5f9f6d2c2e85026f8f56df6b999f0b64c2d9802063f89b1da520df6b5173284d4d53dbe7ee3d3a475fdc262da48ee3086b02e9eea452c00c220b705c886302ad300ce1f4e0b962e5e4757de9c3713b0b503874e400c68d701d0eace5f8963ce3e2430ae7512df82700171fdf6eb1359a667892072eab788b86c76621d729883c3e4590d5c8901f99908dbb049ad062dceb4788072f2c25ee744714c893701faf3ecd3b1c46f399eac6f8ed18db1a73cce4e7e57eebc7c659eb817f20df64a23ed814612ea283ea16dd7073399cb1f856d4827dc1ebc4fdea9dba6f956efa0b24609f9ef3aa4c3a2b9478c0f4d99847d76bfed5a95a667caadaca242c333226de7e1f34cdf3256541a546f8c28ba42a9c05a23b9243a54fca24f8f07f2fd3d19a9960cd8f8792563a874a03cf9bd2ddcdba1856b9aeeee47a6121f706c0b138955127283dc610868293d0761de4b637fda9dd68ad0c231613b9a79aad322bbde488fb6dbbc4beaae5e1c8f6c2f5d274ce6be738c813d1b2bf2be41c55ac60afc41fe891c6e79c42122191b9d5eb6c8bb6aaf19c58f55dbe81c303a588e26789760e49526784ccd429a4c0f01bf3206186f2427c432954a7a39d493d57c8b176467ff66bb8e5eaea1e40d06ac0f27ee4dd278374382cd13f668a8b60fe6dce415786f7884d84ebf77c582c6533f6b4dc2364d7e23ba8b445c07c8fa710f068df0176e8f7f6d2e51ee5f8908cb6e1b19e50de3187365c76b2b3e5c1db53ac4ed97a96a19618e8e53cedf5e66f8d0cb40f03928f990f5e3e9ed9366d47687becfd0c31c2e873eb8ac1fd786bfa0af20876c4f5f0da00bb45f5633346a4772f2b9cc45091eb62ef29b85a941f1cd37e865eee32d9b303913d23404f99f3db0ad81284b59c6602c7cdd2ae55cc508d84e5ca3bb9d70fc0ced92f27238d250eb6a0f1f7be6f97588bc353ebc8dab542cfa65aa63bd667bb82b6bb1a7d98e0cb6f0daee2315dae53d607c24cdaf3353e7afdb2a35346d9e3a44cb8c638135f25edfe37dedcf5f54767efce3ada6b9f1cf78625fdc5cc3426fbe626c26ea458dab045bccc0dbfba6715b353efcde4a55b5dcb11dfb12d1cf382d236638f5aac8fd4f58545c1b5c644ed70947283b008cc8dfc1dbfa76ceaeae6a119c129c970599c3088bf4f790fc9db369988131cb009146a1aa76dc4351ec2b99a25dba37699bee41e25cf233cc187c54c40ba12df5b572c746d0228666ea647b3cda9693642cffccbbcaedebf349de5bb11f7a698cac732c444e7304d0738cc12edb822c31f27e433790e6a1e7792c71a034c68e4627456da2226cb9bf9043097704cfee649c4328253231e8fb4fa221143045023c60d1668667b02e0e2682940d9eadd831eb371eb9c7a9736bc94d0c95866695b7e29c78ae227f14dc11556b13cbd942199102d5b3b973e287092ad2cab9468fb6b90c259a2ebac36dac29e3da20b79192010d6ba35c76319e95cf0da6d972eebbb4803afad8cc88b0d001b35b834e3629ece3e25d41d4deb741c5ff59014d95bb2cc34f409ba964ad303bcbb8e858ed171d8f19ae454a2529c69b7f2b2a1d83868aaadf347a101087358765b96e5b796e9aece5a8521b0d7c6128b6ca7afb4b58b92a3d8845e57e6106b28636c985c0bd2e43b4a110a9b7db19263f5b483d4762aad76b1d5abcf052ab155f7133d4e024a2f774a9d7de4ec4f103f1b4ae7b4953bb380830d2039defd2f3c4f8bf3b6b7ad9c2a06639a1020f7c3d53763b3dd5c940035ee440a5afd218e7aac06fa7773f8e1caa8c00a5d715269408d8adc9fe9522c0b067e2d735b2367d5627a87389f8eb80c094a50066fc62328658118f98ab8d3c2399d460c4d65d5f69d1fe270742066df3c2ab358106402915aec0c4dafd5051c0fa7110af17bfc3c3d04ee638eb79bb54f9bff9b06b98058c6cb1a850ad00025c3999f81bea8c3702db8256a50321f9522caad5207ab158bb20d3f77c5ca0b56bdceaba76bd09f2dd2442c91db192ae0ad31bdbf4581c16f6669c09a88366a3e771f47e1ee60072517a24aa78abe94b51aeac6cb3841554340dc39a6fa4e0b920e329c07e1ea56605a3f794cf6f0dd29067894a6c615983092cb6ad780f4265af047e5c9d5b91413c80e53a9765376bd83a3591eb83e2d0ccd131e4f09d0d38f18ad017bda8ce15fcaea7eaff2f5a3e84148ec6cd28aab39bfb07e756121844032e7b3b55aad63a3254797df5fcbfa9227dc89b62494b34fe803f700677a2fb5f0cec6d78b374039de0472d6a6c7b8594a4a6abd3dbf515505e627095b2c7c8e4e9f0fe0308202123304148585e638baeb9ced4eef0f3fa0b0f141a2b2d303e4251556b808f94a6c5d7d9dce7ff000000000000000000000000000c192d4301fd2105004df1ab9ea1944eaa1c8044556efcd88ebbae1362505558e19dad4596aa680e8b9480fd1db785e0ff933599c36736b6084182d008e8627ece43132684ba7a7b2b490d12c3546ea9cbc741f04a20ca672791a829decbc52c076ba8fcb05af40c39af7544e003c085fa522689b8e3c91b43579daca2003a6c2d45f87899b2f8e9a36ad5ed3a836000b22b183b47c15b8d45a226ba7a9440d6384894d3f02a9af0f75a8066806fb773e8f497f4751a1982d8f9fdf7d797825fd2e85376850dc81aecfc4e2feb750474e8083c4898493a513c484418f3d4f444a8dc12241ee90069e23ed95bfc9a6a201527c098dd6983a76f3b383c3edd355cab3246e3ea860c24618d614fe04da33c2150954cceccf2164f07fbd0d26a4c7ef43d49300da9634d9dc2a40b3acb5e24a2f7c81ece9d8682fd1d41a3fa78470c929a7b85b9653ca74954cf8b8b630805851f4ffa32d380c29ab77b3120b58a708832d9d602e3e1e3dff628f4ae9e4d4a10519835b1e344c709e690204c0d0cc1c4fc393ddd1d1e8bcc8a43807137a0ea4ef34e863c091a9b794d154121ce13e8d7f8f8b7d068d63d2e910cbc8522b827b21c9ad156a162d8f462eaea5d09c2bdb361e56f869edcf86a2441351e791f14297726ea0f6d3ddd801a6c30edfd70b4584f8e81ed0b9df9cd83433f001f52308ef83792f744816777accf132f8de0c42d103fddea10898e643aacb596ad91f5cd51861c79ba11b71ee3c109e9aa7be66329154d11b537af11ec6529152f9aad1815ad38e827ac59370f4f33047d684568b99bf2eb4c3358690c7a8d5c7b1a5b72efc0e77e74cdbfb68f4b6a0ff781ca345818766e1061846b046261054a1ae0af25297afdc08cdf84590aecb11ecb427ff8658db3ac72d4d2e55a1cc437cd7c834ce16afe189aec70eacfee1e449eb65126bc1989200581b4401cd358df7898680457ff61651b9b217a5c91be9a0cfaea1e0cd14a96bffedfef31478f4b263f41c4e61ec10a6bb01d41300716899db6e8ee1c031c9065bfa837c147b8293f50961823517cf7b8526080d8b77ab1f8c685d90abe959ac08d7bc01e83831a4a1922769c5d72f76701c4820aeca4fa49ff253b37f3f85b30e4c52ffe1e5c212387e262f1636871dd1f7a6b9ccc71ce3a01f502793ae39ddb83f3d7d49aa1f7d3ab6544321597a8ad1f51d0dcd3f804ae922333a2209ab5dac68abd016b029ea748a0de2bca0ab7fbbf64de4dc71c0b750b5ea50b017eee237a0a565ebcb39a79eeeacc5505071da4d0eba47c572cad6519e76b6527d18fc59dd56ab722fa71268b2e751996d688865ca5ea465f052748778ef2082c632add3d721013086235ca916be48ec859192701131a1ccd657b6fe0c93e06f8039f281648adb1dc1f6dd72a789c0a49f248248a0fc5aab54a69212a0f723ec23f9c9b38e8f399f8d7ddd36db46f4efebe385d3f083b251860799c8987ebdb9f2641753fc040881d33bf000fc5194e15fd07e65dcabaa5f6815eaad98923cf56e94575164dded82556bef814e5f000f66f5c1a1ea25cae3b2d0e1c3271b8553b0a8f67d90b9a3121602cda4d7fc9b838d1273860bfcb556f79c27a1c18700522d89def57ffabaaf03b177d0933d52552ba905b77b4a5b1640d5db6515f156ec6ef636d9045b5347e1ebba5619895aa1bb8c530b14085ec0708d8487f8f5c8fa4e30d563d05bddc36cf2bedbca0cd8fe22bcd2afc79713b0a43068ceb6e7325f9985d685ab39de421ca287a291f61c1c6f3f790cfdaf6aec1214b2a7d45b3a026e6a536344fd819cec99f6e915d22be386ea7864d85965dfa885a7e4d6d85d4b2d53a03fe7b6c000000",
  "txid": "191779c8a7a8b7b43dbe05727068daa3762696c81829421092c2dcb978c2563c",
  "hash": "f6e209e67f314bb1291137f8c9595fba5aaa59b93482b88a4c90001872c4e92a",
  "size": 5085,
  "vsize": 2278,
  "version": 1,
  "locktime": 108,
  "vin": [
    {
      "txid": "712b5d92a31bc05e56a64a90618fc4de3ffc3104347106a70926e8cc4eac8724",
      "vout": 1,
      "scriptSig": {
        "asm": "",
        "hex": ""
      },
      "txinwitness": [
        "c7ebf3d13f309cb6b609deee055dd5b7254b54f00d8156f9113d7911dfce37b1c7b3067e070c0cc0709c779e5d6a957dacee915cf3f6d07a9eace1fb14eb06f87b42c481263b1656e9e62e51fe49c245e43bfb17a723e65f73fa34bd6fd464ccd302b0447144ea077cb1d16bdf8e9577f2aacddf3b41fa4b25c68a083f31ff4036f278c942d50b48d6c549dee33f86b5667ceb3a0c64a92982b07ddbee5a15a5a7ce45756bcab1025acf9b68bb6e6a018a44a56cc08380791eb7011ac7ab739f1dec75da6f1808245120e4a65277784488279f44ef0ed809ea137ae5a7665ff55f841d84c79dabf89178b7dca3a334f169471896e9b8b81e5a2f6d117f085c4fafe5345fb33bc8895dd5e6d688a25d70198e9ae65f3acacd052e1d34e46ab0e3f30c4612f3dc532c71f2dd1bddecb60fc010ccbe1629a3d246f117a49d2f4801c890ee7a113e3e25f5d4313cdd11734544fc2b017474616dd600fffa5f2183f302916f1d2ebca856192c693eb8b9242fdfa56f33c3c2fdf693632d9ec7d97317d965f02c1fb07ccf95ca8b1a979327b281dda8d11f893849185993f64cbd743cea306d2471243b1570589f38d85275c575ac9686183eb4a1f59efad62e6f788e44ddd2c9a76d568e2cb2788eb794b469fcb40b8df739ebd10ca9f5338fee99cec7e52be315136c381cbaf4e46ffb4d693da8fb5394231ed9423437cc3e2096262030c433f0526a14e100783bcde3fee204fb42d6240cf4bbdef1a7ec0b1fd7da8fae31d3a47192ea6b00a3f238d54ca30ecc11eef4d368d4925d30e5711f18e4d1f72685e3a1bb6ae31cf8e334774716ea4b2d6b22d32cea16ffe49e818dc6c14f37c1332a547a3ce5c1bb2bad4d292a03776c2d64bbed773ddc4aaf08870eedf4e6e845450c7504f96cd98f54d39e52e33147a67b20f3263da3e5765cc259fde4852cff1ddc3ecae02125169ae1bbe08d9df2a005ff393cb7886c27c5394525b8ab2d1c44a7afb5f9f6d2c2e85026f8f56df6b999f0b64c2d9802063f89b1da520df6b5173284d4d53dbe7ee3d3a475fdc262da48ee3086b02e9eea452c00c220b705c886302ad300ce1f4e0b962e5e4757de9c3713b0b503874e400c68d701d0eace5f8963ce3e2430ae7512df82700171fdf6eb1359a667892072eab788b86c76621d729883c3e4590d5c8901f99908dbb049ad062dceb4788072f2c25ee744714c893701faf3ecd3b1c46f399eac6f8ed18db1a73cce4e7e57eebc7c659eb817f20df64a23ed814612ea283ea16dd7073399cb1f856d4827dc1ebc4fdea9dba6f956efa0b24609f9ef3aa4c3a2b9478c0f4d99847d76bfed5a95a667caadaca242c333226de7e1f34cdf3256541a546f8c28ba42a9c05a23b9243a54fca24f8f07f2fd3d19a9960cd8f8792563a874a03cf9bd2ddcdba1856b9aeeee47a6121f706c0b138955127283dc610868293d0761de4b637fda9dd68ad0c231613b9a79aad322bbde488fb6dbbc4beaae5e1c8f6c2f5d274ce6be738c813d1b2bf2be41c55ac60afc41fe891c6e79c42122191b9d5eb6c8bb6aaf19c58f55dbe81c303a588e26789760e49526784ccd429a4c0f01bf3206186f2427c432954a7a39d493d57c8b176467ff66bb8e5eaea1e40d06ac0f27ee4dd278374382cd13f668a8b60fe6dce415786f7884d84ebf77c582c6533f6b4dc2364d7e23ba8b445c07c8fa710f068df0176e8f7f6d2e51ee5f8908cb6e1b19e50de3187365c76b2b3e5c1db53ac4ed97a96a19618e8e53cedf5e66f8d0cb40f03928f990f5e3e9ed9366d47687becfd0c31c2e873eb8ac1fd786bfa0af20876c4f5f0da00bb45f5633346a4772f2b9cc45091eb62ef29b85a941f1cd37e865eee32d9b303913d23404f99f3db0ad81284b59c6602c7cdd2ae55cc508d84e5ca3bb9d70fc0ced92f27238d250eb6a0f1f7be6f97588bc353ebc8dab542cfa65aa63bd667bb82b6bb1a7d98e0cb6f0daee2315dae53d607c24cdaf3353e7afdb2a35346d9e3a44cb8c638135f25edfe37dedcf5f54767efce3ada6b9f1cf78625fdc5cc3426fbe626c26ea458dab045bccc0dbfba6715b353efcde4a55b5dcb11dfb12d1cf382d236638f5aac8fd4f58545c1b5c644ed70947283b008cc8dfc1dbfa76ceaeae6a119c129c970599c3088bf4f790fc9db369988131cb009146a1aa76dc4351ec2b99a25dba37699bee41e25cf233cc187c54c40ba12df5b572c746d0228666ea647b3cda9693642cffccbbcaedebf349de5bb11f7a698cac732c444e7304d0738cc12edb822c31f27e433790e6a1e7792c71a034c68e4627456da2226cb9bf9043097704cfee649c4328253231e8fb4fa221143045023c60d1668667b02e0e2682940d9eadd831eb371eb9c7a9736bc94d0c95866695b7e29c78ae227f14dc11556b13cbd942199102d5b3b973e287092ad2cab9468fb6b90c259a2ebac36dac29e3da20b79192010d6ba35c76319e95cf0da6d972eebbb4803afad8cc88b0d001b35b834e3629ece3e25d41d4deb741c5ff59014d95bb2cc34f409ba964ad303bcbb8e858ed171d8f19ae454a2529c69b7f2b2a1d83868aaadf347a101087358765b96e5b796e9aece5a8521b0d7c6128b6ca7afb4b58b92a3d8845e57e6106b28636c985c0bd2e43b4a110a9b7db19263f5b483d4762aad76b1d5abcf052ab155f7133d4e024a2f774a9d7de4ec4f103f1b4ae7b4953bb380830d2039defd2f3c4f8bf3b6b7ad9c2a06639a1020f7c3d53763b3dd5c940035ee440a5afd218e7aac06fa7773f8e1caa8c00a5d715269408d8adc9fe9522c0b067e2d735b2367d5627a87389f8eb80c094a50066fc62328658118f98ab8d3c2399d460c4d65d5f69d1fe270742066df3c2ab358106402915aec0c4dafd5051c0fa7110af17bfc3c3d04ee638eb79bb54f9bff9b06b98058c6cb1a850ad00025c3999f81bea8c3702db8256a50321f9522caad5207ab158bb20d3f77c5ca0b56bdceaba76bd09f2dd2442c91db192ae0ad31bdbf4581c16f6669c09a88366a3e771f47e1ee60072517a24aa78abe94b51aeac6cb3841554340dc39a6fa4e0b920e329c07e1ea56605a3f794cf6f0dd29067894a6c615983092cb6ad780f4265af047e5c9d5b91413c80e53a9765376bd83a3591eb83e2d0ccd131e4f09d0d38f18ad017bda8ce15fcaea7eaff2f5a3e84148ec6cd28aab39bfb07e756121844032e7b3b55aad63a3254797df5fcbfa9227dc89b62494b34fe803f700677a2fb5f0cec6d78b374039de0472d6a6c7b8594a4a6abd3dbf515505e627095b2c7c8e4e9f0fe0308202123304148585e638baeb9ced4eef0f3fa0b0f141a2b2d303e4251556b808f94a6c5d7d9dce7ff000000000000000000000000000c192d4301",
        "004df1ab9ea1944eaa1c8044556efcd88ebbae1362505558e19dad4596aa680e8b9480fd1db785e0ff933599c36736b6084182d008e8627ece43132684ba7a7b2b490d12c3546ea9cbc741f04a20ca672791a829decbc52c076ba8fcb05af40c39af7544e003c085fa522689b8e3c91b43579daca2003a6c2d45f87899b2f8e9a36ad5ed3a836000b22b183b47c15b8d45a226ba7a9440d6384894d3f02a9af0f75a8066806fb773e8f497f4751a1982d8f9fdf7d797825fd2e85376850dc81aecfc4e2feb750474e8083c4898493a513c484418f3d4f444a8dc12241ee90069e23ed95bfc9a6a201527c098dd6983a76f3b383c3edd355cab3246e3ea860c24618d614fe04da33c2150954cceccf2164f07fbd0d26a4c7ef43d49300da9634d9dc2a40b3acb5e24a2f7c81ece9d8682fd1d41a3fa78470c929a7b85b9653ca74954cf8b8b630805851f4ffa32d380c29ab77b3120b58a708832d9d602e3e1e3dff628f4ae9e4d4a10519835b1e344c709e690204c0d0cc1c4fc393ddd1d1e8bcc8a43807137a0ea4ef34e863c091a9b794d154121ce13e8d7f8f8b7d068d63d2e910cbc8522b827b21c9ad156a162d8f462eaea5d09c2bdb361e56f869edcf86a2441351e791f14297726ea0f6d3ddd801a6c30edfd70b4584f8e81ed0b9df9cd83433f001f52308ef83792f744816777accf132f8de0c42d103fddea10898e643aacb596ad91f5cd51861c79ba11b71ee3c109e9aa7be66329154d11b537af11ec6529152f9aad1815ad38e827ac59370f4f33047d684568b99bf2eb4c3358690c7a8d5c7b1a5b72efc0e77e74cdbfb68f4b6a0ff781ca345818766e1061846b046261054a1ae0af25297afdc08cdf84590aecb11ecb427ff8658db3ac72d4d2e55a1cc437cd7c834ce16afe189aec70eacfee1e449eb65126bc1989200581b4401cd358df7898680457ff61651b9b217a5c91be9a0cfaea1e0cd14a96bffedfef31478f4b263f41c4e61ec10a6bb01d41300716899db6e8ee1c031c9065bfa837c147b8293f50961823517cf7b8526080d8b77ab1f8c685d90abe959ac08d7bc01e83831a4a1922769c5d72f76701c4820aeca4fa49ff253b37f3f85b30e4c52ffe1e5c212387e262f1636871dd1f7a6b9ccc71ce3a01f502793ae39ddb83f3d7d49aa1f7d3ab6544321597a8ad1f51d0dcd3f804ae922333a2209ab5dac68abd016b029ea748a0de2bca0ab7fbbf64de4dc71c0b750b5ea50b017eee237a0a565ebcb39a79eeeacc5505071da4d0eba47c572cad6519e76b6527d18fc59dd56ab722fa71268b2e751996d688865ca5ea465f052748778ef2082c632add3d721013086235ca916be48ec859192701131a1ccd657b6fe0c93e06f8039f281648adb1dc1f6dd72a789c0a49f248248a0fc5aab54a69212a0f723ec23f9c9b38e8f399f8d7ddd36db46f4efebe385d3f083b251860799c8987ebdb9f2641753fc040881d33bf000fc5194e15fd07e65dcabaa5f6815eaad98923cf56e94575164dded82556bef814e5f000f66f5c1a1ea25cae3b2d0e1c3271b8553b0a8f67d90b9a3121602cda4d7fc9b838d1273860bfcb556f79c27a1c18700522d89def57ffabaaf03b177d0933d52552ba905b77b4a5b1640d5db6515f156ec6ef636d9045b5347e1ebba5619895aa1bb8c530b14085ec0708d8487f8f5c8fa4e30d563d05bddc36cf2bedbca0cd8fe22bcd2afc79713b0a43068ceb6e7325f9985d685ab39de421ca287a291f61c1c6f3f790cfdaf6aec1214b2a7d45b3a026e6a536344fd819cec99f6e915d22be386ea7864d85965dfa885a7e4d6d85d4b2d53a03fe7b"
      ],
      "sequence": 4294967294
    }
  ],
  "vout": [
    {
      "value": 1.0,
      "n": 0,
      "scriptPubKey": {
        "asm": "OP_RETURN 3fd42c6108d74aa6b4f83bd717ca29a89f8830ba14e0125810f53ce708359284 50c290907752833dd6aa9b959dfdc0143c38b1582e542475315ab93a7e6fe63970e2b0b05772a31df68abbb5bddde0341c1891780e740455117a991a5e4fc6191082d0d03712c37d96eadbd5ddbd80547c78f1186e146435711af97a3e2fa67930a2f0f01732e35db6cafbf5fd9da0745c58d1384e344415513ad95a1e0f8659d0421010f7d203bd562a1b151d7d4094bcb831d8aed4a4f5b1da39bafeef66b9f0623030d7f2239d760a3b353d5d60b49c9811f88ef484d591fa199adecf469990025050b79243fd166a5b555d3d00d4fcf87198ee94e4b5f19a79fabeaf26f9b022707097b263dd364a7b757d1d20f4dcd851b8ceb4c495d1ba59da9e8f06d950c290907752833dd6aa9b959dfdc0143c38b1582e542475315ab93a7e6fe63970e2b0b05772a31df68abbb5bddde0341c1891780e740455117a991a5e4fc6191082d0d03712c37d96eadbd5ddbd80547c78f1186e146435711af97a3e2fa67930a2f0f01732e35db6cafbf5fd9da0745c58d1384e344415513ad95a1e0f8659d0421010f7d203bd562a1b151d7d4094bcb831d8aed4a4f5b1da39bafeef66b9f0623030d7f2239d760a3b353d5d60b49c9811f88ef484d591fa199adecf469990025050b79243fd166a5b555d3d00d4fcf87198ee94e4b5f19a79fabeaf26f9b022707097b263dd364a7b757d1d20f4dcd851b8ceb4c495d1ba59da9e8f06d950c290907752833dd6aa9b959dfdc0143c38b1582e542475315ab93a7e6fe63970e2b0b05772a31df68abbb5bddde0341c1891780e740455117a991a5e4fc6191082d0d03712c37d96eadbd5ddbd80547c78f1186e146435711af97a3e2fa67930a2f0f01732e35db6cafbf5fd9da0745c58d1384e344415513ad95a1e0f8659d0421010f7d203bd562a1b151d7d4094bcb831d8aed4a4f5b1da39bafeef66b9f0623030d7f2239d760a3b353d5d60b49c9811f88ef484d591fa199adecf469990025050b79243fd166a5b555d3d00d4fcf87198ee94e4b5f19a79fabeaf26f9b022707097b263dd364a7b757d1d20f4dcd851b8ceb4c495d1ba59da9e8f06d950c290907752833dd6aa9b959dfdc0143c38b1582e542475315ab93a7e6fe63970e2b0b05772a31df68abbb5bddde0341c1891780e740455117a991a5e4fc6191082d0d03712c37d96eadbd5ddbd80547c78f1186e146435711af97a3e2fa67930a2f0f01732e35db6cafbf5fd9da0745c58d1384e344415513ad95a1e0f8659d0421010f7d203bd562a1b151d7d4094bcb831d8aed4a4f5b1da39bafeef66b9f0623030d7f2239d760a3b353d5d60b49c9811f88ef484d591fa199adecf469990025050b79243fd166a5b555d3d00d4fcf87198ee94e4b5f19a79fabeaf26f9b022707097b263dd364a7b757d1d20f4dcd851b8ceb4c495d1ba59da9e8f06d950c290907752833dd6aa9b959dfdc0143c38b1582e542475315ab93a7e6fe63970e2b0b05772a31df68abbb5bddde0341c1891780e740455117a991a5e4fc6191082d0d03712c37d96eadbd5ddbd80547c78f1186e146435711af97a3e2fa67930a2f0f01732e35db6cafbf5fd9da0745c58d1384e344415513ad95a1e0f8659d0421010f7d203bd562a1b151d7d40947e4b3a68926b7ffd8168ebd5031d341822a3f925aa0fbb4e5300cee3dcba7aca",
        "hex": "6a203fd42c6108d74aa6b4f83bd717ca29a89f8830ba14e0125810f53ce7083592844db00450c290907752833dd6aa9b959dfdc0143c38b1582e542475315ab93a7e6fe63970e2b0b05772a31df68abbb5bddde0341c1891780e740455117a991a5e4fc6191082d0d03712c37d96eadbd5ddbd80547c78f1186e146435711af97a3e2fa67930a2f0f01732e35db6cafbf5fd9da0745c58d1384e344415513ad95a1e0f8659d0421010f7d203bd562a1b151d7d4094bcb831d8aed4a4f5b1da39bafeef66b9f0623030d7f2239d760a3b353d5d60b49c9811f88ef484d591fa199adecf469990025050b79243fd166a5b555d3d00d4fcf87198ee94e4b5f19a79fabeaf26f9b022707097b263dd364a7b757d1d20f4dcd851b8ceb4c495d1ba59da9e8f06d950c290907752833dd6aa9b959dfdc0143c38b1582e542475315ab93a7e6fe63970e2b0b05772a31df68abbb5bddde0341c1891780e740455117a991a5e4fc6191082d0d03712c37d96eadbd5ddbd80547c78f1186e146435711af97a3e2fa67930a2f0f01732e35db6cafbf5fd9da0745c58d1384e344415513ad95a1e0f8659d0421010f7d203bd562a1b151d7d4094bcb831d8aed4a4f5b1da39bafeef66b9f0623030d7f2239d760a3b353d5d60b49c9811f88ef484d591fa199adecf469990025050b79243fd166a5b555d3d00d4fcf87198ee94e4b5f19a79fabeaf26f9b022707097b263dd364a7b757d1d20f4dcd851b8ceb4c495d1ba59da9e8f06d950c290907752833dd6aa9b959dfdc0143c38b1582e542475315ab93a7e6fe63970e2b0b05772a31df68abbb5bddde0341c1891780e740455117a991a5e4fc6191082d0d03712c37d96eadbd5ddbd80547c78f1186e146435711af97a3e2fa67930a2f0f01732e35db6cafbf5fd9da0745c58d1384e344415513ad95a1e0f8659d0421010f7d203bd562a1b151d7d4094bcb831d8aed4a4f5b1da39bafeef66b9f0623030d7f2239d760a3b353d5d60b49c9811f88ef484d591fa199adecf469990025050b79243fd166a5b555d3d00d4fcf87198ee94e4b5f19a79fabeaf26f9b022707097b263dd364a7b757d1d20f4dcd851b8ceb4c495d1ba59da9e8f06d950c290907752833dd6aa9b959dfdc0143c38b1582e542475315ab93a7e6fe63970e2b0b05772a31df68abbb5bddde0341c1891780e740455117a991a5e4fc6191082d0d03712c37d96eadbd5ddbd80547c78f1186e146435711af97a3e2fa67930a2f0f01732e35db6cafbf5fd9da0745c58d1384e344415513ad95a1e0f8659d0421010f7d203bd562a1b151d7d4094bcb831d8aed4a4f5b1da39bafeef66b9f0623030d7f2239d760a3b353d5d60b49c9811f88ef484d591fa199adecf469990025050b79243fd166a5b555d3d00d4fcf87198ee94e4b5f19a79fabeaf26f9b022707097b263dd364a7b757d1d20f4dcd851b8ceb4c495d1ba59da9e8f06d950c290907752833dd6aa9b959dfdc0143c38b1582e542475315ab93a7e6fe63970e2b0b05772a31df68abbb5bddde0341c1891780e740455117a991a5e4fc6191082d0d03712c37d96eadbd5ddbd80547c78f1186e146435711af97a3e2fa67930a2f0f01732e35db6cafbf5fd9da0745c58d1384e344415513ad95a1e0f8659d0421010f7d203bd562a1b151d7d40947e4b3a68926b7ffd8168ebd5031d341822a3f925aa0fbb4e5300cee3dcba7aca",
        "type": "nulldata"
      }
    },
    {
      "value": 499988.8141,
      "n": 1,
      "scriptPubKey": {
        "asm": "1 f88288666354bfe988944b1dd99da6c8b5f3f35bece294114d681fb3820245e6",
        "hex": "5120f88288666354bfe988944b1dd99da6c8b5f3f35bece294114d681fb3820245e6",
        "reqSigs": 1,
        "type": "witness_v1_scripthash",
        "addresses": [
          "3QJmnh"
        ]
      }
    }
  ],
  "blockhash": "fed18006ccdab590a9e00afae0c126c0756e5b686d02c0375b028c4c6af5cb31",
  "confirmations": 1,
  "time": 1764177489,
  "blocktime": 1764177489
}