{
  "hex": "010000000001018ed120a340a8611f8241d8fa8c15014b38ddc2c3dcd7cdf33b7c79a0d4d3bfe30100000000feffffff0280cbbf57792d000022512082bc14b1dcb319c07ab956022eddbbb5f41079e3783b52836df0e24d1c9c5a8e00e1f50500000000fdd5046a20b2eee4032cfef5c5ae6a177bf9253dae6c33e2407bfe07ed2b297a30d4cd072b4db00404db38a932b72f11446bd6ef8d8278e6b23103bef129445b0075e534152b27b324fb188912970f31644bf6cfada258c69211239ed109647b2055c514350b0793449b78e972f76f51042b96afcdc238a6f27143feb169041b4035a574556b67f364bb58c952d74f71240bb68fede21886d25163de9149243b60158554754b47d3845bb829b237af91c4eb566f0d02f86632b1833e71a9c4db80f565b495aba733a47b980992178fb1e4cb764f2d22d8461291a31e5189e4fba0d54594b58b8713c41bf869f277efd184ab162f4d42b82672f1c37e31e9849bc0b525f4d5ebe773e43bd849d257cff1a48b360f6d62980652d1e35e11c9a4bbe09505d4f5cbc75304db38a932b72f11446bd6ef8d8278e6b23103bef129445b0075e534152b27b324fb188912970f31644bf6cfada258c69211239ed109647b2055c514350b0793449b78e972f76f51042b96afcdc238a6f27143feb169041b4035a574556b67f364bb58c952d74f71240bb68fede21886d25163de9149243b60158554754b47d3845bb829b237af91c4eb566f0d02f86632b1833e71a9c4db80f565b495aba733a47b980992178fb1e4cb764f2d22d8461291a31e5189e4fba0d54594b58b8713c41bf869f277efd184ab162f4d42b82672f1c37e31e9849bc0b525f4d5ebe773e43bd849d257cff1a48b360f6d62980652d1e35e11c9a4bbe09505d4f5cbc75304db38a932b72f11446bd6ef8d8278e6b23103bef129445b0075e534152b27b324fb188912970f31644bf6cfada258c69211239ed109647b2055c514350b0793449b78e972f76f51042b96afcdc238a6f27143feb169041b4035a574556b67f364bb58c952d74f71240bb68fede21886d25163de9149243b60158554754b47d3845bb829b237af91c4eb566f0d02f86632b1833e71a9c4db80f565b495aba733a47b980992178fb1e4cb764f2d22d8461291a31e5189e4fba0d54594b58b8713c41bf869f277efd184ab162f4d42b82672f1c37e31e9849bc0b525f4d5ebe773e43bd849d257cff1a48b360f6d62980652d1e35e11c9a4bbe09505d4f5cbc75304db38a932b72f11446bd6ef8d8278e6b23103bef129445b0075e534152b27b324fb188912970f31644bf6cfada258c69211239ed109647b2055c514350b0793449b78e972f76f51042b96afcdc238a6f27143feb169041b4035a574556b67f364bb58c952d74f71240bb68fede21886d25163de9149243b60158554754b47d3845bb829b237af91c4eb566f0d02f86632b1833e71a9c4db80f565b495aba733a47b980992178fb1e4cb764f2d22d8461291a31e5189e4fba0d54594b58b8713c41bf869f277efd184ab162f4d42b82672f1c37e31e9849bc0b525f4d5ebe773e43bd849d257cff1a48b360f6d62980652d1e35e11c9a4bbe09505d4f5cbc75304db38a932b72f11446bd6ef8d8278e6b23103bef129445b0075e534152b27b324fb188912970f31644bf6cfada258c69211239ed109647b2055c514350b0793449b78e972f76f51042b96afcdc238a6f27143feb169041b4035a574556b67f364bb58c952d74f71240bb68fede21886d25163de9149243b60158554754b47d3845bb829b237af91c4eb566f0d02f86673f73f4d9d669f0d4e1e3ddaab83e6127899ca3fcc0b443a167b6233911a6be102fd750977a142e1211ffbb4bcd22d2fe77208043c3db240acb69f5ccfa0c17126ac5a618b35526cb9d41d300b4ef551c8f3f9131d3b2faff56859a2342bf44d8411c23e35ed311d799ec05411a03c8e739ca83f76108ded39129ee6bd074a28d857f8249bc0199c96f9427e8921581cb1ba510080ad9fc37cda4191abf9ea71d26ed5e1df1bcc8cd01ab7b986f55cbad84cef04738e4bb4d10bba2c928831490ec64f5a4581a01e3223217aad47a1cf67e8ae1c32b6c62e8fedfb08af8c8aa4c3790803a48f74b0c3a99d82b909a0f1d3355337029f7d81ae5cb5c6d82ed00e96a4167a42863e70307c5a1cdef864fe44d603cc9a929afa01af12de96d4e0b8244561afd1dbbb0a6aa94ea6a78e3b8582dc0d261f295b8d7563d20a6cd88f378db2ab7ef45c6bb4c046420bac1f2cf7196f57613ab6cee6573bbb26abed9db20d532b6afdaf660efc9a85cba8a741d8c45f9d68db4dbe38e05aa73681b791399bb22e01bbb4946b45f5c931dc5cc5a564b5698ed058a50f60d93dc6a38ef083f7ee105219c0a81446a8bd454d0eb8722988c4f533023d04478c3a6b6002c8608d5dade8a5681d168851a4f85d1866914aa34c4f947e6e87bf5dffbf874fd2ce424f4f700fba6ec46655334abd98e643f5f1b0e531f9ef81581b7fa407c22324c9d74214ac50b2f200ba1723d76967e99ec4eee8830ad0ca775441a120a1b374b15ad39958fc10cdf9f79e12b7b376a19a77cdb9a03283952e72d230068439893afc05b7652083ef3c853d91a0ab3b95de7cbcbca625542f050f4f6f3540ecdd199f6d3d26e08d89eef4598b3eace2ff0a8125e37958b4cef01309e5e72da68bfdabf8968a2c984042035e96cbc61000ce0f1249a23c5707ed905556809350bf7cfc3ab3ad2523e197251af07eba04d91c100de1def81684ce438bae356895b148102635f0aa9b744225f46c077108cab448d712cd0d35fdc8206a8df6b7638a2e1551a8aaa8b0b97bbcecab0db00f74475178e9f210e9f3d9060b7f423f7e14b6c11e91c40a321bd89383d74909e81541c75d0dc55bd53a5ace65ce24c36360fe6073f7f33c7b8192f920059d88f01e2b6c222d9d1e7f5a230f9a84310ba9df310358ef2b6d4ccec17db997ab56604be88e6099b27c6872787199611dfdf2769c4ee4fdcf28f4905b374c7a2e412f1459a2c5a755f1b001a5d83175cb8b781c9d5f6b28c7630c121789d8fc30beb085246ef2346d5b149ee3cf56f9e62a8430e5dfaf51ffac5d6d7f84296cd3ef87fc9017981db9529f50e57ad849c298cfeef608e4da0d3e2d98d6681cd6b89bc99e4c07f823ce9051d53d87b08ccc2c8aee59a229508eb831e56aea5d0a12beaaa96cd68dc677d126d111ec5a20dbef67fc8df146934122bceaca34cd48281753da19279d0dcc4512a475893a6b35c0ab7e4fe246d6adfba086ef0ff51301383d0aba86c9bf5a0cd198e5098b0f496a2f8568c580f9f9b35167e06d737f5d0775480a5545ca47beae4289a28f2578ba51c282ac8b315db100bcc9151f6f77a7ae528a99c9a3c759d07f3400e548d7b03c3b26d5f78bc593d342f7ef04efd58f47c3faf6a7a682d4479d33eac56970159261434dcfbc650e7d33179fc3b9ff18ce562259ada2e7b5a1bf647e87b05cea5c1dd5240dfa16d44cd2b680cc6a6d953ea1eb8c9cfbf11fa556b49331026d2f74e874602761549f23598256dc72bb91de4ef5ef113d0c139f6bb8f9a3a7d4758acc7e8e898984fac5705894d6b31b9d58a8baf610d24aa5eede3fd81155d0eca7e219a21fe178d5730175ba7241d69f093b7b5dc55333b92e113b8691ce50e5b64e1fdc015862b9868388b21a6b4b83e260f1309b9fd8fe21e19344793ae934c9ba74c0886860f605fd764f8e088a8b60adae9985e9926459e2035f7a7252da2f72cdfd5a7d527a49fd25477ccbb84f88e740e4b90f80c1b4e21bfc69e26092cb33d13cb8b916eaf089b7de4ded0183e2784bd298751b5c178964c0a97e6630da51fe09e19e33cc662c0b58c4522989aa2e1d951017b7f11b5854b60b539a428e34924522a0d8751f3f1982e7145338d0d88fcaec76290a1f7c1a27e9fb27013ae566a44001ff2e55855f992b316bac9f4451b9fc9b07bdf1dc148a267ef8914d8bd3b9a188cffe8107040927856cee7acb422f3a58ca98c798e6c89046f767307feebba944345e4ab6bb3e3925170b725b281cf15dee33b9092990233cd468af8364ee46475c476d603821e4893911631805c4ffc3705b8b672ced90bf96a545f94ce47f39d9eb71826629ad1843af4ae47cb04e1edee70f8a2346d57b916c56711f07d4c8eff13cabcc8e63f500d63834e77837211e680d8a41e508032623508b818d3277c790e44f82a2b6ea92c34b74f1c888d477dd6d397e6137224648d1d16fa0714208fcc304878bfa5339aa853e39ac3ee1bf6c81be26acead5de9cd7165910d8758c47a5f56df3af09507fedc25226c85c68579ee909bc88e774257d99449461bea369dbe154f86d99cbb0f9b0f9b87a99bf1dab43557b4258fe601b16be294ff4af778ab4c7d282bf4efa24be429457ff2626980b1b98aeda083afb71d033277b93b1ac9fa67958abb5eb9dd94b704672377d1d13cc974cc1cd70fb849809596893ff332416578939837c5aba8e2ac8e91ef0717975b4f2ff81f6a8d891649ca0e6703aa4675345b5d7e0176cb653765ab20f38453f6facbb03af058d7102bc83ce5173f79c0ba620ee71b48e2838bb05929381d69cb7a1c314c0449428fe076ac545c66cae12cdab50a33f0027d046bb8930a6d98478deae7480f8b517daeeea7bc137c0a7fef0ea9b9cf3aaee43337db23740a7978bb3273c59363fd55a564ee299a2914a0d07a09ed7a1613fcd2d1377c59234293acc6d8cd608c6819baad2bdbe7a487a5b34226262dfa0579a3bcc44354aa348838a2940842d381f792e2e68ae7336644cafdcb98d1e818485b6b4b023bf0b0e0fb31415a01d3f7783975f8efeb68a3e5800325bc0fea7bfcae40180131a4284a3c4544125d7edca3f8bc6465ef809b65ef391aa56fc0b48b45b4c38e2fadaa4412c6e6b63cb44c8fa58d696d9f26c35b6e6ce219dcada9129d755d0607862b3c0fbb48ad3512e1db638dba76de00fd6871addfa31c2ba3d783d10546e45b02b21f831fa40da8f6b7b36534270572fab8b8366f48c25640739f8d082b5e1c316fb0b39d38fc0d88ee3b239616318522c47477b00d48cb74173e69dcb28c2056c721341985cead71eae171a0b0e263840497b9abec7ceedf0f4ff03151e1f2124356c6e73809193969aa9cedee8f0191d4c5a5d5e82c2d9effc0b0c3f41434e55586f7e869499a2a9aaaebbc6e3edfe0000000000000000000000000f232e4401fd2105009bdc1a4f9c8c8bc3ad62174d800b4fca759edcf06f5e2914ff867c170f2f6265ee756e818eadb34b2557a254e15081f88981b5ac413d18c20f3b123c3a1ec5a7132651367fdfc56b4728c13b38f45d9f0d39d943d27e78666054bb7c7973301b944d83c138a1dfe1dce031a4be554368dcfe736c50ebbe28be591240ad6f0632b8f580cd333587eff4c551354ee8488bbcbf2ce2e585236e8329821646a5b7e77017cf53ef9824d0e7200f9fb3ab09bff4c2437eb3ec22c61e3819029f6f01a61d0d73cc4a576a702e2e84f7ab0365bfa33cd0f43c8dc46d27e2834667e47026448e107c051db87ec201067ee1ab400271e7f7570230b9d9528579479b8874664bcbbbd0d5937a2b2822c1d907b5e41df2ab2454e42daf65505c45d9b582c30875ae8a3ec88f2fc413bc8f4966824ddb1ff54800c76fd8bcde8baae65f0445d5157606b9695399fba08045df467c8aead300c528c7bbe530e87b3a50977a898be291ed33586c8c77ad0eed0ad05e9e4e3cedbda3ed28f7d1df613de499c8de2887bfcf19141dd1a74225e20af092ef4ce57642e72749ba40360029c62877858574df8804e3e20dd0fb196a84a63de55e096782f24771cfd5372d40d583bf8bf323328373216ef0f104c9eb386b9075604cb096391b7e8dc4e7b8cc1b28c389f1c9dcf590d65ff20f7e6a29bf232f71a09d2863c789186c075b4bd7205958d5f076ba8b40beaa47810094bfd18df75c428a6fecbeae0c3d16cf34f202194c6b7c55e55495847d494b042aa9f33400f893b3d19513befbf37dfcec383fb9e5d3785a19c164eb634b0a26830f6c07036d38d7f1adfb6ffdc88a0d5426cd2f371fb4d6bd1eb2182910ea3747a71956ac3c5122485ceb1aa4d12859f504f6422b0b58b96396457ed2c6e5350bfbe99fb58c99d369d6420828f5efe93db0fd9e4d222571983a9f8e62fed3c04cba9f4471bf6c71543bda7a117853c8ac15ff69d824e93ba84e77a0fb801a8dd88ac4cd561a3c3d7640fcdf3b7cf7e3110103e1693f7ea80573a794b17277aed76f518084dd271bece69e1d1f8856c03cdd25e5b4a24d86b7c195811ad3e06b3e349ebf146eff3abbe3db96829e3413647c309990585e2323df09364a98b6ae5f6ef1da91bd2ecf88c72d3ed59d1d1d213e08cbf7410e80ae738ddab3d0dec912e7f516b8d65484ff29526b3f29774b1ae794e8f4421f982d20e3a67215aa4db4b2a3935067016e543fc96e6f48cc362bdd56a9fd3cf9fd04da2fad777b85ecc9149713b4537feecb574dda7b7b375657d9d333eb49f65fa8acc912af66fae0328a857b7265497565d5630cbbc696bc03037fc6acb539aae705c7220528a8f942f665005fd833f1095d12fe5a7e1d0202c162fa14e206784bb08e3b0189193dd5967d6ad6c521ea1b1224b62d4a0955f2a167a0221046735081633796eea6a2a9208aa1e3ad52a7118669b0f7d007fdf6c1a658e2542640ae09839d9ab2cce77898de3a93e07a8d9d5c1da1e90da6db5d5759d6eba2cca8029621dfc1eb3d252b3f3ad8f3e880e86b876320a55c46bbac061640bf2b878a597fccda907d21642eff2a17cafc75d2db245decd6e5b26cd042d88559194b197c06aa84541b81addbcf049d305b4a423f5c06d4619ce5a5a054c16425eb858b28f025fe8a6319cf5c92b7dced4bacb4cd6cb73ef17e4b1de1d8e914f57fa6a26bdd110f5518c53f6abe5ddcd531d27b6e2500299c2eb6260991a334aedb28236964e217ba89005305698c3d9285fd9652472f16b56be98b87ad2d3617f7ee2e009f2b6226113838290feffd5214b0618f7a1eafd4d5a75784aa984cd6c70e6a000000",
  "txid": "182e74bdd3913205f49e06d3159e61b89d7eca982e295ea7181bb51febe87534",
  "hash": "15b0ec0144be9d2e659cf3888b70a38f8cbdc7eef73ab03986f6810c2b829904",
  "size": 5085,
  "vsize": 2278,
  "version": 1,
  "locktime": 106,
  "vin": [
    {
      "txid": "e3bfd3d4a0797c3bf3cdd7dcc3c2dd384b01158cfad841821f61a840a320d18e",
      "vout": 1,
      "scriptSig": {
        "asm": "",
        "hex": ""
      },
      "txinwitness": [
        "77a142e1211ffbb4bcd22d2fe77208043c3db240acb69f5ccfa0c17126ac5a618b35526cb9d41d300b4ef551c8f3f9131d3b2faff56859a2342bf44d8411c23e35ed311d799ec05411a03c8e739ca83f76108ded39129ee6bd074a28d857f8249bc0199c96f9427e8921581cb1ba510080ad9fc37cda4191abf9ea71d26ed5e1df1bcc8cd01ab7b986f55cbad84cef04738e4bb4d10bba2c928831490ec64f5a4581a01e3223217aad47a1cf67e8ae1c32b6c62e8fedfb08af8c8aa4c3790803a48f74b0c3a99d82b909a0f1d3355337029f7d81ae5cb5c6d82ed00e96a4167a42863e70307c5a1cdef864fe44d603cc9a929afa01af12de96d4e0b8244561afd1dbbb0a6aa94ea6a78e3b8582dc0d261f295b8d7563d20a6cd88f378db2ab7ef45c6bb4c046420bac1f2cf7196f57613ab6cee6573bbb26abed9db20d532b6afdaf660efc9a85cba8a741d8c45f9d68db4dbe38e05aa73681b791399bb22e01bbb4946b45f5c931dc5cc5a564b5698ed058a50f60d93dc6a38ef083f7ee105219c0a81446a8bd454d0eb8722988c4f533023d04478c3a6b6002c8608d5dade8a5681d168851a4f85d1866914aa34c4f947e6e87bf5dffbf874fd2ce424f4f700fba6ec46655334abd98e643f5f1b0e531f9ef81581b7fa407c22324c9d74214ac50b2f200ba1723d76967e99ec4eee8830ad0ca775441a120a1b374b15ad39958fc10cdf9f79e12b7b376a19a77cdb9a03283952e72d230068439893afc05b7652083ef3c853d91a0ab3b95de7cbcbca625542f050f4f6f3540ecdd199f6d3d26e08d89eef4598b3eace2ff0a8125e37958b4cef01309e5e72da68bfdabf8968a2c984042035e96cbc61000ce0f1249a23c5707ed905556809350bf7cfc3ab3ad2523e197251af07eba04d91c100de1def81684ce438bae356895b148102635f0aa9b744225f46c077108cab448d712cd0d35fdc8206a8df6b7638a2e1551a8aaa8b0b97bbcecab0db00f74475178e9f210e9f3d9060b7f423f7e14b6c11e91c40a321bd89383d74909e81541c75d0dc55bd53a5ace65ce24c36360fe6073f7f33c7b8192f920059d88f01e2b6c222d9d1e7f5a230f9a84310ba9df310358ef2b6d4ccec17db997ab56604be88e6099b27c6872787199611dfdf2769c4ee4fdcf28f4905b374c7a2e412f1459a2c5a755f1b001a5d83175cb8b781c9d5f6b28c7630c121789d8fc30beb085246ef2346d5b149ee3cf56f9e62a8430e5dfaf51ffac5d6d7f84296cd3ef87fc9017981db9529f50e57ad849c298cfeef608e4da0d3e2d98d6681cd6b89bc99e4c07f823ce9051d53d87b08ccc2c8aee59a229508eb831e56aea5d0a12beaaa96cd68dc677d126d111ec5a20dbef67fc8df146934122bceaca34cd48281753da19279d0dcc4512a475893a6b35c0ab7e4fe246d6adfba086ef0ff51301383d0aba86c9bf5a0cd198e5098b0f496a2f8568c580f9f9b35167e06d737f5d0775480a5545ca47beae4289a28f2578ba51c282ac8b315db100bcc9151f6f77a7ae528a99c9a3c759d07f3400e548d7b03c3b26d5f78bc593d342f7ef04efd58f47c3faf6a7a682d4479d33eac56970159261434dcfbc650e7d33179fc3b9ff18ce562259ada2e7b5a1bf647e87b05cea5c1dd5240dfa16d44cd2b680cc6a6d953ea1eb8c9cfbf11fa556b49331026d2f74e874602761549f23598256dc72bb91de4ef5ef113d0c139f6bb8f9a3a7d4758acc7e8e898984fac5705894d6b31b9d58a8baf610d24aa5eede3fd81155d0eca7e219a21fe178d5730175ba7241d69f093b7b5dc55333b92e113b8691ce50e5b64e1fdc015862b9868388b21a6b4b83e260f1309b9fd8fe21e19344793ae934c9ba74c0886860f605fd764f8e088a8b60adae9985e9926459e2035f7a7252da2f72cdfd5a7d527a49fd25477ccbb84f88e740e4b90f80c1b4e21bfc69e26092cb33d13cb8b916eaf089b7de4ded0183e2784bd298751b5c178964c0a97e6630da51fe09e19e33cc662c0b58c4522989aa2e1d951017b7f11b5854b60b539a428e34924522a0d8751f3f1982e7145338d0d88fcaec76290a1f7c1a27e9fb27013ae566a44001ff2e55855f992b316bac9f4451b9fc9b07bdf1dc148a267ef8914d8bd3b9a188cffe8107040927856cee7acb422f3a58ca98c798e6c89046f767307feebba944345e4ab6bb3e3925170b725b281cf15dee33b9092990233cd468af8364ee46475c476d603821e4893911631805c4ffc3705b8b672ced90bf96a545f94ce47f39d9eb71826629ad1843af4ae47cb04e1edee70f8a2346d57b916c56711f07d4c8eff13cabcc8e63f500d63834e77837211e680d8a41e508032623508b818d3277c790e44f82a2b6ea92c34b74f1c888d477dd6d397e6137224648d1d16fa0714208fcc304878bfa5339aa853e39ac3ee1bf6c81be26acead5de9cd7165910d8758c47a5f56df3af09507fedc25226c85c68579ee909bc88e774257d99449461bea369dbe154f86d99cbb0f9b0f9b87a99bf1dab43557b4258fe601b16be294ff4af778ab4c7d282bf4efa24be429457ff2626980b1b98aeda083afb71d033277b93b1ac9fa67958abb5eb9dd94b704672377d1d13cc974cc1cd70fb849809596893ff332416578939837c5aba8e2ac8e91ef0717975b4f2ff81f6a8d891649ca0e6703aa4675345b5d7e0176cb653765ab20f38453f6facbb03af058d7102bc83ce5173f79c0ba620ee71b48e2838bb05929381d69cb7a1c314c0449428fe076ac545c66cae12cdab50a33f0027d046bb8930a6d98478deae7480f8b517daeeea7bc137c0a7fef0ea9b9cf3aaee43337db23740a7978bb3273c59363fd55a564ee299a2914a0d07a09ed7a1613fcd2d1377c59234293acc6d8cd608c6819baad2bdbe7a487a5b34226262dfa0579a3bcc44354aa348838a2940842d381f792e2e68ae7336644cafdcb98d1e818485b6b4b023bf0b0e0fb31415a01d3f7783975f8efeb68a3e5800325bc0fea7bfcae40180131a4284a3c4544125d7edca3f8bc6465ef809b65ef391aa56fc0b48b45b4c38e2fadaa4412c6e6b63cb44c8fa58d696d9f26c35b6e6ce219dcada9129d755d0607862b3c0fbb48ad3512e1db638dba76de00fd6871addfa31c2ba3d783d10546e45b02b21f831fa40da8f6b7b36534270572fab8b8366f48c25640739f8d082b5e1c316fb0b39d38fc0d88ee3b239616318522c47477b00d48cb74173e69dcb28c2056c721341985cead71eae171a0b0e263840497b9abec7ceedf0f4ff03151e1f2124356c6e73809193969aa9cedee8f0191d4c5a5d5e82c2d9effc0b0c3f41434e55586f7e869499a2a9aaaebbc6e3edfe0000000000000000000000000f232e4401",
        "009bdc1a4f9c8c8bc3ad62174d800b4fca759edcf06f5e2914ff867c170f2f6265ee756e818eadb34b2557a254e15081f88981b5ac413d18c20f3b123c3a1ec5a7132651367fdfc56b4728c13b38f45d9f0d39d943d27e78666054bb7c7973301b944d83c138a1dfe1dce031a4be554368dcfe736c50ebbe28be591240ad6f0632b8f580cd333587eff4c551354ee8488bbcbf2ce2e585236e8329821646a5b7e77017cf53ef9824d0e7200f9fb3ab09bff4c2437eb3ec22c61e3819029f6f01a61d0d73cc4a576a702e2e84f7ab0365bfa33cd0f43c8dc46d27e2834667e47026448e107c051db87ec201067ee1ab400271e7f7570230b9d9528579479b8874664bcbbbd0d5937a2b2822c1d907b5e41df2ab2454e42daf65505c45d9b582c30875ae8a3ec88f2fc413bc8f4966824ddb1ff54800c76fd8bcde8baae65f0445d5157606b9695399fba08045df467c8aead300c528c7bbe530e87b3a50977a898be291ed33586c8c77ad0eed0ad05e9e4e3cedbda3ed28f7d1df613de499c8de2887bfcf19141dd1a74225e20af092ef4ce57642e72749ba40360029c62877858574df8804e3e20dd0fb196a84a63de55e096782f24771cfd5372d40d583bf8bf323328373216ef0f104c9eb386b9075604cb096391b7e8dc4e7b8cc1b28c389f1c9dcf590d65ff20f7e6a29bf232f71a09d2863c789186c075b4bd7205958d5f076ba8b40beaa47810094bfd18df75c428a6fecbeae0c3d16cf34f202194c6b7c55e55495847d494b042aa9f33400f893b3d19513befbf37dfcec383fb9e5d3785a19c164eb634b0a26830f6c07036d38d7f1adfb6ffdc88a0d5426cd2f371fb4d6bd1eb2182910ea3747a71956ac3c5122485ceb1aa4d12859f504f6422b0b58b96396457ed2c6e5350bfbe99fb58c99d369d6420828f5efe93db0fd9e4d222571983a9f8e62fed3c04cba9f4471bf6c71543bda7a117853c8ac15ff69d824e93ba84e77a0fb801a8dd88ac4cd561a3c3d7640fcdf3b7cf7e3110103e1693f7ea80573a794b17277aed76f518084dd271bece69e1d1f8856c03cdd25e5b4a24d86b7c195811ad3e06b3e349ebf146eff3abbe3db96829e3413647c309990585e2323df09364a98b6ae5f6ef1da91bd2ecf88c72d3ed59d1d1d213e08cbf7410e80ae738ddab3d0dec912e7f516b8d65484ff29526b3f29774b1ae794e8f4421f982d20e3a67215aa4db4b2a3935067016e543fc96e6f48cc362bdd56a9fd3cf9fd04da2fad777b85ecc9149713b4537feecb574dda7b7b375657d9d333eb49f65fa8acc912af66fae0328a857b7265497565d5630cbbc696bc03037fc6acb539aae705c7220528a8f942f665005fd833f1095d12fe5a7e1d0202c162fa14e206784bb08e3b0189193dd5967d6ad6c521ea1b1224b62d4a0955f2a167a0221046735081633796eea6a2a9208aa1e3ad52a7118669b0f7d007fdf6c1a658e2542640ae09839d9ab2cce77898de3a93e07a8d9d5c1da1e90da6db5d5759d6eba2cca8029621dfc1eb3d252b3f3ad8f3e880e86b876320a55c46bbac061640bf2b878a597fccda907d21642eff2a17cafc75d2db245decd6e5b26cd042d88559194b197c06aa84541b81addbcf049d305b4a423f5c06d4619ce5a5a054c16425eb858b28f025fe8a6319cf5c92b7dced4bacb4cd6cb73ef17e4b1de1d8e914f57fa6a26bdd110f5518c53f6abe5ddcd531d27b6e2500299c2eb6260991a334aedb28236964e217ba89005305698c3d9285fd9652472f16b56be98b87ad2d3617f7ee2e009f2b6226113838290feffd5214b0618f7a1eafd4d5a75784aa984cd6c70e"
      ],
      "sequence": 4294967294
    }
  ],
  "vout": [
    {
      "value": 499991.8648,
      "n": 0,
      "scriptPubKey": {
        "asm": "1 82bc14b1dcb319c07ab956022eddbbb5f41079e3783b52836df0e24d1c9c5a8e",
        "hex": "512082bc14b1dcb319c07ab956022eddbbb5f41079e3783b52836df0e24d1c9c5a8e",
        "reqSigs": 1,
        "type": "witness_v1_scripthash",
        "addresses": [
          "3QJmnh"
        ]
      }
    },
    {
      "value": 1.0,
      "n": 1,
      "scriptPubKey": {
        "asm": "OP_RETURN b2eee4032cfef5c5ae6a177bf9253dae6c33e2407bfe07ed2b297a30d4cd072b 04db38a932b72f11446bd6ef8d8278e6b23103bef129445b0075e534152b27b324fb188912970f31644bf6cfada258c69211239ed109647b2055c514350b0793449b78e972f76f51042b96afcdc238a6f27143feb169041b4035a574556b67f364bb58c952d74f71240bb68fede21886d25163de9149243b60158554754b47d3845bb829b237af91c4eb566f0d02f86632b1833e71a9c4db80f565b495aba733a47b980992178fb1e4cb764f2d22d8461291a31e5189e4fba0d54594b58b8713c41bf869f277efd184ab162f4d42b82672f1c37e31e9849bc0b525f4d5ebe773e43bd849d257cff1a48b360f6d62980652d1e35e11c9a4bbe09505d4f5cbc75304db38a932b72f11446bd6ef8d8278e6b23103bef129445b0075e534152b27b324fb188912970f31644bf6cfada258c69211239ed109647b2055c514350b0793449b78e972f76f51042b96afcdc238a6f27143feb169041b4035a574556b67f364bb58c952d74f71240bb68fede21886d25163de9149243b60158554754b47d3845bb829b237af91c4eb566f0d02f86632b1833e71a9c4db80f565b495aba733a47b980992178fb1e4cb764f2d22d8461291a31e5189e4fba0d54594b58b8713c41bf869f277efd184ab162f4d42b82672f1c37e31e9849bc0b525f4d5ebe773e43bd849d257cff1a48b360f6d62980652d1e35e11c9a4bbe09505d4f5cbc75304db38a932b72f11446bd6ef8d8278e6b23103bef129445b0075e534152b27b324fb188912970f31644bf6cfada258c69211239ed109647b2055c514350b0793449b78e972f76f51042b96afcdc238a6f27143feb169041b4035a574556b67f364bb58c952d74f71240bb68fede21886d25163de9149243b60158554754b47d3845bb829b237af91c4eb566f0d02f86632b1833e71a9c4db80f565b495aba733a47b980992178fb1e4cb764f2d22d8461291a31e5189e4fba0d54594b58b8713c41bf869f277efd184ab162f4d42b82672f1c37e31e9849bc0b525f4d5ebe773e43bd849d257cff1a48b360f6d62980652d1e35e11c9a4bbe09505d4f5cbc75304db38a932b72f11446bd6ef8d8278e6b23103bef129445b0075e534152b27b324fb188912970f31644bf6cfada258c69211239ed109647b2055c514350b0793449b78e972f76f51042b96afcdc238a6f27143feb169041b4035a574556b67f364bb58c952d74f71240bb68fede21886d25163de9149243b60158554754b47d3845bb829b237af91c4eb566f0d02f86632b1833e71a9c4db80f565b495aba733a47b980992178fb1e4cb764f2d22d8461291a31e5189e4fba0d54594b58b8713c41bf869f277efd184ab162f4d42b82672f1c37e31e9849bc0b525f4d5ebe773e43bd849d257cff1a48b360f6d62980652d1e35e11c9a4bbe09505d4f5cbc75304db38a932b72f11446bd6ef8d8278e6b23103bef129445b0075e534152b27b324fb188912970f31644bf6cfada258c69211239ed109647b2055c514350b0793449b78e972f76f51042b96afcdc238a6f27143feb169041b4035a574556b67f364bb58c952d74f71240bb68fede21886d25163de9149243b60158554754b47d3845bb829b237af91c4eb566f0d02f86673f73f4d9d669f0d4e1e3ddaab83e6127899ca3fcc0b443a167b6233911a6be1",
        "hex": "6a20b2eee4032cfef5c5ae6a177bf9253dae6c33e2407bfe07ed2b297a30d4cd072b4db00404db38a932b72f11446bd6ef8d8278e6b23103bef129445b0075e534152b27b324fb188912970f31644bf6cfada258c69211239ed109647b2055c514350b0793449b78e972f76f51042b96afcdc238a6f27143feb169041b4035a574556b67f364bb58c952d74f71240bb68fede21886d25163de9149243b60158554754b47d3845bb829b237af91c4eb566f0d02f86632b1833e71a9c4db80f565b495aba733a47b980992178fb1e4cb764f2d22d8461291a31e5189e4fba0d54594b58b8713c41bf869f277efd184ab162f4d42b82672f1c37e31e9849bc0b525f4d5ebe773e43bd849d257cff1a48b360f6d62980652d1e35e11c9a4bbe09505d4f5cbc75304db38a932b72f11446bd6ef8d8278e6b23103bef129445b0075e534152b27b324fb188912970f31644bf6cfada258c69211239ed109647b2055c514350b0793449b78e972f76f51042b96afcdc238a6f27143feb169041b4035a574556b67f364bb58c952d74f71240bb68fede21886d25163de9149243b60158554754b47d3845bb829b237af91c4eb566f0d02f86632b1833e71a9c4db80f565b495aba733a47b980992178fb1e4cb764f2d22d8461291a31e5189e4fba0d54594b58b8713c41bf869f277efd184ab162f4d42b82672f1c37e31e9849bc0b525f4d5ebe773e43bd849d257cff1a48b360f6d62980652d1e35e11c9a4bbe09505d4f5cbc75304db38a932b72f11446bd6ef8d8278e6b23103bef129445b0075e534152b27b324fb188912970f31644bf6cfada258c69211239ed109647b2055c514350b0793449b78e972f76f51042b96afcdc238a6f27143feb169041b4035a574556b67f364bb58c952d74f71240bb68fede21886d25163de9149243b60158554754b47d3845bb829b237af91c4eb566f0d02f86632b1833e71a9c4db80f565b495aba733a47b980992178fb1e4cb764f2d22d8461291a31e5189e4fba0d54594b58b8713c41bf869f277efd184ab162f4d42b82672f1c37e31e9849bc0b525f4d5ebe773e43bd849d257cff1a48b360f6d62980652d1e35e11c9a4bbe09505d4f5cbc75304db38a932b72f11446bd6ef8d8278e6b23103bef129445b0075e534152b27b324fb188912970f31644bf6cfada258c69211239ed109647b2055c514350b0793449b78e972f76f51042b96afcdc238a6f27143feb169041b4035a574556b67f364bb58c952d74f71240bb68fede21886d25163de9149243b60158554754b47d3845bb829b237af91c4eb566f0d02f86632b1833e71a9c4db80f565b495aba733a47b980992178fb1e4cb764f2d22d8461291a31e5189e4fba0d54594b58b8713c41bf869f277efd184ab162f4d42b82672f1c37e31e9849bc0b525f4d5ebe773e43bd849d257cff1a48b360f6d62980652d1e35e11c9a4bbe09505d4f5cbc75304db38a932b72f11446bd6ef8d8278e6b23103bef129445b0075e534152b27b324fb188912970f31644bf6cfada258c69211239ed109647b2055c514350b0793449b78e972f76f51042b96afcdc238a6f27143feb169041b4035a574556b67f364bb58c952d74f71240bb68fede21886d25163de9149243b60158554754b47d3845bb829b237af91c4eb566f0d02f86673f73f4d9d669f0d4e1e3ddaab83e6127899ca3fcc0b443a167b6233911a6be1",
        "type": "nulldata"
      }
    }
  ],
  "blockhash": "ed58b71ef50cb049f6fd5c1ad274bdeb3951d970e0a56ec51ef7152d34b6d8c5",
  "confirmations": 1,
  "time": 1764177054,
  "blocktime": 1764177054
}