{
  "hex": "01000000000101f47f201fb2f17949ec58435f606d6a9b4341f69c6df9a55539ab70bd0f8e5e160000000000feffffff02c075fe6f792d0000225120041d4c5ae808009c9f4939d69a2d0373d7f969ada59ddc514581af3ff000495000e1f50500000000fdd5046a20ef15ba92198884bd0c5cbb4ce69624d81ed8e33ba5bbbe1e9c72895b788d7f5b4db0049433b7edc6da7ab65ddbca170cf96bf476956911e237a140e56727a42952f993b41397cde6fa5a967dfbea372cd94bd456b54931c2178160c54707840972d9b3d473f7ad869a3af61d9b8a574cb92bb436d52951a277e100a52767e46912b9d3f453d78da6ba1ad63dbbaa776c990b9416f509718257c120850747c4493299f314b3376d465afa36dd5b4a978c79eb74f615e99162b721c065e7a724a9d279133493174d667ada16fd7b6ab7ac59cb54d635c9b1429701e045c7870489f2593354f3772d061aba769d1b0ad7cc39ab34b655a9d122f7618025a7e764e992395374d3570d263a9a56bd3b2af7ec198b14967589f102d741a00587c744c9b219739433b7edc6da7ab65ddbca170cf96bf476956911e237a140e56727a42952f993b41397cde6fa5a967dfbea372cd94bd456b54931c2178160c54707840972d9b3d473f7ad869a3af61d9b8a574cb92bb436d52951a277e100a52767e46912b9d3f453d78da6ba1ad63dbbaa776c990b9416f509718257c120850747c4493299f314b3376d465afa36dd5b4a978c79eb74f615e99162b721c065e7a724a9d279133493174d667ada16fd7b6ab7ac59cb54d635c9b1429701e045c7870489f2593354f3772d061aba769d1b0ad7cc39ab34b655a9d122f7618025a7e764e992395374d3570d263a9a56bd3b2af7ec198b14967589f102d741a00587c744c9b219739433b7edc6da7ab65ddbca170cf96bf476956911e237a140e56727a42952f993b41397cde6fa5a967dfbea372cd94bd456b54931c2178160c54707840972d9b3d473f7ad869a3af61d9b8a574cb92bb436d52951a277e100a52767e46912b9d3f453d78da6ba1ad63dbbaa776c990b9416f509718257c120850747c4493299f314b3376d465afa36dd5b4a978c79eb74f615e99162b721c065e7a724a9d279133493174d667ada16fd7b6ab7ac59cb54d635c9b1429701e045c7870489f2593354f3772d061aba769d1b0ad7cc39ab34b655a9d122f7618025a7e764e992395374d3570d263a9a56bd3b2af7ec198b14967589f102d741a00587c744c9b219739433b7edc6da7ab65ddbca170cf96bf476956911e237a140e56727a42952f993b41397cde6fa5a967dfbea372cd94bd456b54931c2178160c54707840972d9b3d473f7ad869a3af61d9b8a574cb92bb436d52951a277e100a52767e46912b9d3f453d78da6ba1ad63dbbaa776c990b9416f509718257c120850747c4493299f314b3376d465afa36dd5b4a978c79eb74f615e99162b721c065e7a724a9d279133493174d667ada16fd7b6ab7ac59cb54d635c9b1429701e045c7870489f2593354f3772d061aba769d1b0ad7cc39ab34b655a9d122f7618025a7e764e992395374d3570d263a9a56bd3b2af7ec198b14967589f102d741a00587c744c9b219739433b7edc6da7ab65ddbca170cf96bf476956911e237a140e56727a42952f993b41397cde6fa5a967dfbea372cd94bd456b54931c2178160c54707840972d9b3d473f7ad869a3af61d9b8a574cb92bb436d52951a277e100a52767e46912b9d3f453d78da6ba1ad63dbbaa776c990b9416f509718257c120850747c4493299f314b3376d465afa36dd5b4a978c79eb74496386c1021a275be9effb7f34d977cc85e93805b3b0ca173e253fad0b3640f302fd7509e7243469fb3e6778f52520beba12cb48e90c625eaa1f8677dcfede94e448a5971caa07b761f815b64050108aa9d2282ec43d9a2b2f5fc37ea1c9b2adab1eb609e8f10e95e3e7847fc38c03e71297342c9f0722cd556009c552c814feb17e8fec16138d67ffa592ec5a9ff94ad6366ff651192f705f76604e956050a1fa373f99859893e806379a999e3e736ecc8e2b2f53bc32a7a32ecaf378f4fce191cce7c16aad38eaa4b1da9fca1a177e273f4cd89c9b60acac028eb6073aa8082bbd3c6800d96be5919f3908ba4f50d4a3a91ba5db4fb52bebc19b95a9acd8c17c661321efa1c99eede9405efb9d4103d279e18307885440049872240bcc633de9df36f44d2f1cd801f7fc14b25a5179c297384719f41a73cf0f215374d10a7cca0e8a238b0e496ca450c4c50d13e9e9fe001373da5eb8934a8a6f86e2cd8222beba8240cb15f06498d4d12c4302bda0a396e80b9c78e519616901b12a2babee7294212f96e6b23dd461eb20d4fae36170821fce66ff10b89cda36450ac89a59d41b66ec8d592f1c56088a6b685486da4df855fff1737c50fd3c06b23c7b09327bdeb02c8c99c34ceff9bb6dd7bcd61e6b9ef502cb55ea194ca412dec2b8ac0d45b0503efd2d7cafd96d479d6b6222b51d6b516f30220988baf65240f16576136e1263dfccf09cb88d4956b2f2fbbfc16d5fc38018fc524228f11fd27bdb8adedb8a7cb719fcbf07f21c42c57e3032afbf38c02a09454bbf70ec4fd2faddbbd6b118ce4356567bb91222338edc8e3529e99a0c57fa25346ea37d8540c42e8b872fd6447f013dd9288571da3caf371a2d28a491364f561a47ce0222ce7009e84ef6599f42beb37810a75ebbc9714f3e7fb459dc45905abff453ad2a0b4f626ea80b88eb4004191ce7d7b32ec1d49d4fd4b08dd8838b707dc4b2081285187f188a0a6502cd31609f454295b944e03d92bdefcdaef8251ce8f39829e6d548f4f9173a1e43a4cae0b6cd68034fcd4b43ccb1d6c3aa118b3f7c02e0836a07a49e174766b77fc08f3ba6e53c41b6c7e11532da2d2830ed927cd9f701bb6e2396e00e3577fd3d215e2987e10cd9d3a089510807a9395992b01d78794c5a190e1887e5acb72d754e0e48dc209d5f1bede8189053b9abd74c00afe4ba527ad14f5430c801f03704f77b29195123e0c08bb545c9689536557742fd4c4e7ad723a9c7215e6a5a833eb00566bb2c2ec9feb769aa5eddefb3ed6187f7d31235f86f446c0d01b9912d991dad9be9ff8a7b392ea7e62b7b18afe0f6e93d8bb5f49f5794ec7578f01bf2f23b3c3e03f47494a5a19c72e0c05ce963590793ce785b7074a5e94a9d11fd52f55b1842486671cb63946cd685c3c92064ee973565d3a3ba38fd14b84b758ec18b1354bdabdc4cdccc1104eb2af39e8c5a87250401aa6665d4ae333760f5c163a13528d59d98f8d3e2832b0d8d78358bc1d95e6044c440078e06f20e9b94175ecf2991f8df8faf3dffb9f9a8a30bedf1cd49f5df0045f4362a540b15cb775dc9663e8fadc223f7cb50dae16509113f8dae5d4a6ecb5f51aaa48608f9cdf30e40bd67cdd403d4b6c750dc5b6244f2712ba0b26838a6e65eed8e8008e0e4766f5e4c446947465524b6788bc20f0b5d8077768b4429a966839669d06d668c01cc7ce20a98cd8a4241b5868b5f9a541d967a0965ed8e1074faf3c60d29c8177d207771756315b39c556c204159e4d016d7c0151cc4cc7b9c74e2b9e46cdf9f6613b129c47ec483b6be3e9dff7df0be3d3f0d947363435ebaa36542148d597ff351b2f4f75dce747a78aaecadb2567a833888a120105dfed69330ff3411da19756db71ce46f9deec45dc222b5e18416f1026583aa749eabd339265980ec697c7747782c4bf18d1bcbdeba54abc9ad8aaa999ed8bb29b57f7ed6139bc11332209799d73035beb13eb673f14f9214bd336707ae7bec9ff7e80e986d79f134c4a07fed98567aa6e468c26269b5e89114127a31b8ce3b0b2530ae7965c7a70552439264b900da6ba12ace67219d1c2c8c50ad2735c72ca4d9519d91bb9ed3069e2618b549fdbe74b215c11a36bccb0185ec5afba5fa440a53fef32267b024f1ae924052470e9ca422f293a6e5314a440bba9d6470961be02ab0fce714ec2ed48183c6058c47b892b62bb1e8ce95a67ac7956f115502677433dec703e22e1d6d144e6b2213f36432f139918efa0ed86b3c695739a4063db9e2676e596686c2218e82801128d49fe8f6b36f9805d92c47409b21efa5af1ec4196f3df87f7bd3acc6d4a8ee6c05246fbda1585b4cfef4eafeaa36019ca1d9954be228dcc5986f1890059d558f913304180d2870f8825bf4c7c1e9c992ee79193e17107d32cf974d6bad29748d4cdb30ae0f02c0cdc749536f7f26d246062f22ccfe3b823b4cfb130b6c06bce4c8395bf266c2c78d4f390ee5864a06daca66b77f60ed64ab2d7c999c84418bb087f9c47393e5c7254ebcac66cdb5be563c5ca1452ac2bb92dfa3ae670b9cb0ff1ec069fe5f758ad59cd1c2f6778479f35ef7030a0af28fe032bb883bcdd6ec3dc06f9c04a6e1564bad7e1a3cf84a0719d86d5fa9bbe53de0db5a8df5f35d237248121cebf3180e012f462f492ee63b1bf62668bededfdfaa5959c7618040e274b39ab62e7c079a13b943da57c9d5c80dd02c493a8c2e3177305411a20763dd7ce9ccce66f8f1fa6e90f6eda353feca8ac3b535910683694422b6391423104021cb6359e66ec8992fedf2e4ae3ebde9aed91c0c529475832f8a54f2dc4eebc61b9e6d4224d205e12174f7e004f1046872c63b4d805dd2da5365a05ff199d62c75a0e6e99b175d93212e2f96daff2cd8e9359dd09dea099f43b568c281f0db095c2dbb2921a48f1cc393b7c6989c4ac1a03fa041fcf9bfdfa627402d2596e2c18fc8088b3f3819b6b60d01c8a889ca94ec31421cbb4d3fee48f1eb0d3ffb6208cce20b95108019bb2b435a01ffffc00a894aeba861d30958861b56723262355fed2aca57528b9aca16bb0bb9203c315ca11767c01936b32ba74b3e1cc1bc55ea91bbeb895542e4f4fcd4de5bc80608f60c5567c797815be468898efdb2fbe60694ad67584125725593b92eef9e925160c4b1c1a00f22758bfcf905e9c6362ba0f0f8b6353428a22dce45fa3d78533a1c2a20d66b035545743524cd7b76271480906f5ddad04b76b6f48f995835aaedb869ff1c773162e64c5ec8f33e02bbebcad48c65f021535a724d7a2c8fd74b851475b8b8f3dd29cae5d72ca0bb9dc7f4071735fc0e0f242c5490a5bad3eff02b3b4f5254637989a6b6bdc1c5e1e8fa041547547c95aec5f113171b32404445496d7177b2c6c7cfd3dadbe1000000000000000000000000000000000000000000000000000b1b243701fd210500eb120091f1024e197a5946f292dbaa4b7578233a0d0fb7f09acecafabe8d659272a1a2f3fbdac58055fcf82d363984f338249a2a93df957487f5ca03c8a4e0aa16bed95df648707cdae16e415df1b3173b24de1bc1ada55b77a9392c7710d6f9283f569ee35d1d5ebd625a2de45c092721b666c2a24534636435cdb69ed2a9b12ac2ea918bdded3f74ac313bfa0f63823bf976bdb7a9aa6363e6db5f0c317a01e8ec579c3ea145364fec22bc17fcb0e5cf507a697d0e269b3cbb8f1d6dc6a8493456ae97bdc90fa7996066481e36dfd905dd3a64b4e255387b2034071c90fcfb02be0967e643b9e6273f07521d1d6eca20f339367124681a5fe09cd47de4a91a8526780321e060b333fb01ee6ad366d0218d3d837af3a75bb7c47b84ac60a8da52bc4e790ba0585a2cb159552e4ea39a8ab99e5c5748aee7256a582ff2ea60f9822edcaf6c9e980b6707c9582dd311fb21a1e6df8fc7751c7e181db7c601dd4e80caad9cc0898daab481df4a3b8026bacf11ccbe70d086f70db9dfa9660b5b1b5617e90abacc3fd4bfdd7fc800fddbadf6202a1496eaccb03fccba0343e503883c8415f4f9e118da8f9a2af599be9682ae3118dfaaebf3a7f065a4e11d318660cb3bed4c4bd8b1b6fd202b76dfead78f7853ed0fedc246d763a879824399814cc050ac7e9bc4d538278ee88c7808e3b3e193a25ee24d03803897af3f78643c4b461cb202a490fd10829d19f935876707361b220181e46fac1bcd35ef2c325fc2b26013663b080762c8996c820feff1ee05b830958eb8725deb9c1b8d51614f6739b70b5e67b3af02c70daba331cd798e36d7c7c85fc10b1fe23d04eb78755f08ad05a42d42889e100cd149b32810a1c935f97853ed305b0c1f8d020fc66bfdddcdd37a47b76def8e13b1f9234a5f64f3a8a65c2559ac4951b8363bb0c8b343e514ecb0b6b33af52baf325a1e2aa9175f970fbef7811019e7f4a5c01e717fafe12b648965a6dbdccc6b222c00eed979304c2bdb6414eb09e517ce6575601fc7cc9444b575404721be1c799c62653a2f6e4227651b74ffb6feb72c54defa71dc6f52c288f6b8093d8323aa2afd93db4b7c946439d6cbc1a12661f03ab86b4e7ae57bee2a7bca50f6c609efc9dd463626269ae855f3bdc0bfd1e10f1891118922de0e2a2148443fd797e4fafab85a16301988a3be651dd326d63add39b3cd8411a0ba519fa7b6abe143a0e0bd1f607c9676cff25c3770f11785d5f96d1053408b12901df23aa1c0b38192ee3a4f91c6a7bfceefd2c90948e48c441ba65c49ed9850b11360f24ccf179330f3af3403f2b5b709ffcc9de7e79cce979692263cebb3185ad093b2024d57ed5dee694954f8bf7d0898cdefe3490e16e7f092856b96622adc3c473288469d2b516efb5c7c0e79bc74922e6e7f54105b223ee7bc4aefbfaac6ecd982b3190566137a1d38393384a9708596e42e95c34f42548ef306a2f0b61ff2466858c746d5d78deea6daadb3a440182260b753f2ea44923a12ff325cd333a0f741122b7fedf21c73524753284ac09e9450580c65f9176e4cb1d07166a2d46dab3c452ca8dbc50d7ff8a6ee395680ece55302acbe46d143f5ff54dbc8f92fcc4d65b0c0033dcec18687a58f8642c48124e8363d73c77a1411980065aa2c8f5fc0ab7f81b40409ef938d1dab13ea8bbe268152133fa260d1854076e0f896538ada79a0937ecbdc99cea9ba9521fcd16eb447ab3580224ea96a88c623f9e7e584d3ede47274467c7717096e9d5efa9a744220d92d5d4f5c3f3c232eced129d52a28a4966ae329206544c52e1eca240c4ae306f8cfbebc76ba3207da3ad9f867000000",
  "txid": "14916449eee19e70a27d4daa9bfedd546d6f42759328aecbdfaafdc21b6fb47d",
  "hash": "dfec5fba954b5a36b9a46e57d9af0f2be063090a818dfedca1dba385d16d4dd5",
  "size": 5085,
  "vsize": 2278,
  "version": 1,
  "locktime": 103,
  "vin": [
    {
      "txid": "165e8e0fbd70ab3955a5f96d9cf641439b6a6d605f4358ec4979f1b21f207ff4",
      "vout": 0,
      "scriptSig": {
        "asm": "",
        "hex": ""
      },
      "txinwitness": [
        "e7243469fb3e6778f52520beba12cb48e90c625eaa1f8677dcfede94e448a5971caa07b761f815b64050108aa9d2282ec43d9a2b2f5fc37ea1c9b2adab1eb609e8f10e95e3e7847fc38c03e71297342c9f0722cd556009c552c814feb17e8fec16138d67ffa592ec5a9ff94ad6366ff651192f705f76604e956050a1fa373f99859893e806379a999e3e736ecc8e2b2f53bc32a7a32ecaf378f4fce191cce7c16aad38eaa4b1da9fca1a177e273f4cd89c9b60acac028eb6073aa8082bbd3c6800d96be5919f3908ba4f50d4a3a91ba5db4fb52bebc19b95a9acd8c17c661321efa1c99eede9405efb9d4103d279e18307885440049872240bcc633de9df36f44d2f1cd801f7fc14b25a5179c297384719f41a73cf0f215374d10a7cca0e8a238b0e496ca450c4c50d13e9e9fe001373da5eb8934a8a6f86e2cd8222beba8240cb15f06498d4d12c4302bda0a396e80b9c78e519616901b12a2babee7294212f96e6b23dd461eb20d4fae36170821fce66ff10b89cda36450ac89a59d41b66ec8d592f1c56088a6b685486da4df855fff1737c50fd3c06b23c7b09327bdeb02c8c99c34ceff9bb6dd7bcd61e6b9ef502cb55ea194ca412dec2b8ac0d45b0503efd2d7cafd96d479d6b6222b51d6b516f30220988baf65240f16576136e1263dfccf09cb88d4956b2f2fbbfc16d5fc38018fc524228f11fd27bdb8adedb8a7cb719fcbf07f21c42c57e3032afbf38c02a09454bbf70ec4fd2faddbbd6b118ce4356567bb91222338edc8e3529e99a0c57fa25346ea37d8540c42e8b872fd6447f013dd9288571da3caf371a2d28a491364f561a47ce0222ce7009e84ef6599f42beb37810a75ebbc9714f3e7fb459dc45905abff453ad2a0b4f626ea80b88eb4004191ce7d7b32ec1d49d4fd4b08dd8838b707dc4b2081285187f188a0a6502cd31609f454295b944e03d92bdefcdaef8251ce8f39829e6d548f4f9173a1e43a4cae0b6cd68034fcd4b43ccb1d6c3aa118b3f7c02e0836a07a49e174766b77fc08f3ba6e53c41b6c7e11532da2d2830ed927cd9f701bb6e2396e00e3577fd3d215e2987e10cd9d3a089510807a9395992b01d78794c5a190e1887e5acb72d754e0e48dc209d5f1bede8189053b9abd74c00afe4ba527ad14f5430c801f03704f77b29195123e0c08bb545c9689536557742fd4c4e7ad723a9c7215e6a5a833eb00566bb2c2ec9feb769aa5eddefb3ed6187f7d31235f86f446c0d01b9912d991dad9be9ff8a7b392ea7e62b7b18afe0f6e93d8bb5f49f5794ec7578f01bf2f23b3c3e03f47494a5a19c72e0c05ce963590793ce785b7074a5e94a9d11fd52f55b1842486671cb63946cd685c3c92064ee973565d3a3ba38fd14b84b758ec18b1354bdabdc4cdccc1104eb2af39e8c5a87250401aa6665d4ae333760f5c163a13528d59d98f8d3e2832b0d8d78358bc1d95e6044c440078e06f20e9b94175ecf2991f8df8faf3dffb9f9a8a30bedf1cd49f5df0045f4362a540b15cb775dc9663e8fadc223f7cb50dae16509113f8dae5d4a6ecb5f51aaa48608f9cdf30e40bd67cdd403d4b6c750dc5b6244f2712ba0b26838a6e65eed8e8008e0e4766f5e4c446947465524b6788bc20f0b5d8077768b4429a966839669d06d668c01cc7ce20a98cd8a4241b5868b5f9a541d967a0965ed8e1074faf3c60d29c8177d207771756315b39c556c204159e4d016d7c0151cc4cc7b9c74e2b9e46cdf9f6613b129c47ec483b6be3e9dff7df0be3d3f0d947363435ebaa36542148d597ff351b2f4f75dce747a78aaecadb2567a833888a120105dfed69330ff3411da19756db71ce46f9deec45dc222b5e18416f1026583aa749eabd339265980ec697c7747782c4bf18d1bcbdeba54abc9ad8aaa999ed8bb29b57f7ed6139bc11332209799d73035beb13eb673f14f9214bd336707ae7bec9ff7e80e986d79f134c4a07fed98567aa6e468c26269b5e89114127a31b8ce3b0b2530ae7965c7a70552439264b900da6ba12ace67219d1c2c8c50ad2735c72ca4d9519d91bb9ed3069e2618b549fdbe74b215c11a36bccb0185ec5afba5fa440a53fef32267b024f1ae924052470e9ca422f293a6e5314a440bba9d6470961be02ab0fce714ec2ed48183c6058c47b892b62bb1e8ce95a67ac7956f115502677433dec703e22e1d6d144e6b2213f36432f139918efa0ed86b3c695739a4063db9e2676e596686c2218e82801128d49fe8f6b36f9805d92c47409b21efa5af1ec4196f3df87f7bd3acc6d4a8ee6c05246fbda1585b4cfef4eafeaa36019ca1d9954be228dcc5986f1890059d558f913304180d2870f8825bf4c7c1e9c992ee79193e17107d32cf974d6bad29748d4cdb30ae0f02c0cdc749536f7f26d246062f22ccfe3b823b4cfb130b6c06bce4c8395bf266c2c78d4f390ee5864a06daca66b77f60ed64ab2d7c999c84418bb087f9c47393e5c7254ebcac66cdb5be563c5ca1452ac2bb92dfa3ae670b9cb0ff1ec069fe5f758ad59cd1c2f6778479f35ef7030a0af28fe032bb883bcdd6ec3dc06f9c04a6e1564bad7e1a3cf84a0719d86d5fa9bbe53de0db5a8df5f35d237248121cebf3180e012f462f492ee63b1bf62668bededfdfaa5959c7618040e274b39ab62e7c079a13b943da57c9d5c80dd02c493a8c2e3177305411a20763dd7ce9ccce66f8f1fa6e90f6eda353feca8ac3b535910683694422b6391423104021cb6359e66ec8992fedf2e4ae3ebde9aed91c0c529475832f8a54f2dc4eebc61b9e6d4224d205e12174f7e004f1046872c63b4d805dd2da5365a05ff199d62c75a0e6e99b175d93212e2f96daff2cd8e9359dd09dea099f43b568c281f0db095c2dbb2921a48f1cc393b7c6989c4ac1a03fa041fcf9bfdfa627402d2596e2c18fc8088b3f3819b6b60d01c8a889ca94ec31421cbb4d3fee48f1eb0d3ffb6208cce20b95108019bb2b435a01ffffc00a894aeba861d30958861b56723262355fed2aca57528b9aca16bb0bb9203c315ca11767c01936b32ba74b3e1cc1bc55ea91bbeb895542e4f4fcd4de5bc80608f60c5567c797815be468898efdb2fbe60694ad67584125725593b92eef9e925160c4b1c1a00f22758bfcf905e9c6362ba0f0f8b6353428a22dce45fa3d78533a1c2a20d66b035545743524cd7b76271480906f5ddad04b76b6f48f995835aaedb869ff1c773162e64c5ec8f33e02bbebcad48c65f021535a724d7a2c8fd74b851475b8b8f3dd29cae5d72ca0bb9dc7f4071735fc0e0f242c5490a5bad3eff02b3b4f5254637989a6b6bdc1c5e1e8fa041547547c95aec5f113171b32404445496d7177b2c6c7cfd3dadbe1000000000000000000000000000000000000000000000000000b1b243701",
        "00eb120091f1024e197a5946f292dbaa4b7578233a0d0fb7f09acecafabe8d659272a1a2f3fbdac58055fcf82d363984f338249a2a93df957487f5ca03c8a4e0aa16bed95df648707cdae16e415df1b3173b24de1bc1ada55b77a9392c7710d6f9283f569ee35d1d5ebd625a2de45c092721b666c2a24534636435cdb69ed2a9b12ac2ea918bdded3f74ac313bfa0f63823bf976bdb7a9aa6363e6db5f0c317a01e8ec579c3ea145364fec22bc17fcb0e5cf507a697d0e269b3cbb8f1d6dc6a8493456ae97bdc90fa7996066481e36dfd905dd3a64b4e255387b2034071c90fcfb02be0967e643b9e6273f07521d1d6eca20f339367124681a5fe09cd47de4a91a8526780321e060b333fb01ee6ad366d0218d3d837af3a75bb7c47b84ac60a8da52bc4e790ba0585a2cb159552e4ea39a8ab99e5c5748aee7256a582ff2ea60f9822edcaf6c9e980b6707c9582dd311fb21a1e6df8fc7751c7e181db7c601dd4e80caad9cc0898daab481df4a3b8026bacf11ccbe70d086f70db9dfa9660b5b1b5617e90abacc3fd4bfdd7fc800fddbadf6202a1496eaccb03fccba0343e503883c8415f4f9e118da8f9a2af599be9682ae3118dfaaebf3a7f065a4e11d318660cb3bed4c4bd8b1b6fd202b76dfead78f7853ed0fedc246d763a879824399814cc050ac7e9bc4d538278ee88c7808e3b3e193a25ee24d03803897af3f78643c4b461cb202a490fd10829d19f935876707361b220181e46fac1bcd35ef2c325fc2b26013663b080762c8996c820feff1ee05b830958eb8725deb9c1b8d51614f6739b70b5e67b3af02c70daba331cd798e36d7c7c85fc10b1fe23d04eb78755f08ad05a42d42889e100cd149b32810a1c935f97853ed305b0c1f8d020fc66bfdddcdd37a47b76def8e13b1f9234a5f64f3a8a65c2559ac4951b8363bb0c8b343e514ecb0b6b33af52baf325a1e2aa9175f970fbef7811019e7f4a5c01e717fafe12b648965a6dbdccc6b222c00eed979304c2bdb6414eb09e517ce6575601fc7cc9444b575404721be1c799c62653a2f6e4227651b74ffb6feb72c54defa71dc6f52c288f6b8093d8323aa2afd93db4b7c946439d6cbc1a12661f03ab86b4e7ae57bee2a7bca50f6c609efc9dd463626269ae855f3bdc0bfd1e10f1891118922de0e2a2148443fd797e4fafab85a16301988a3be651dd326d63add39b3cd8411a0ba519fa7b6abe143a0e0bd1f607c9676cff25c3770f11785d5f96d1053408b12901df23aa1c0b38192ee3a4f91c6a7bfceefd2c90948e48c441ba65c49ed9850b11360f24ccf179330f3af3403f2b5b709ffcc9de7e79cce979692263cebb3185ad093b2024d57ed5dee694954f8bf7d0898cdefe3490e16e7f092856b96622adc3c473288469d2b516efb5c7c0e79bc74922e6e7f54105b223ee7bc4aefbfaac6ecd982b3190566137a1d38393384a9708596e42e95c34f42548ef306a2f0b61ff2466858c746d5d78deea6daadb3a440182260b753f2ea44923a12ff325cd333a0f741122b7fedf21c73524753284ac09e9450580c65f9176e4cb1d07166a2d46dab3c452ca8dbc50d7ff8a6ee395680ece55302acbe46d143f5ff54dbc8f92fcc4d65b0c0033dcec18687a58f8642c48124e8363d73c77a1411980065aa2c8f5fc0ab7f81b40409ef938d1dab13ea8bbe268152133fa260d1854076e0f896538ada79a0937ecbdc99cea9ba9521fcd16eb447ab3580224ea96a88c623f9e7e584d3ede47274467c7717096e9d5efa9a744220d92d5d4f5c3f3c232eced129d52a28a4966ae329206544c52e1eca240c4ae306f8cfbebc76ba3207da3ad9f8"
      ],
      "sequence": 4294967294
    }
  ],
  "vout": [
    {
      "value": 499995.9324,
      "n": 0,
      "scriptPubKey": {
        "asm": "1 041d4c5ae808009c9f4939d69a2d0373d7f969ada59ddc514581af3ff0004950",
        "hex": "5120041d4c5ae808009c9f4939d69a2d0373d7f969ada59ddc514581af3ff0004950",
        "reqSigs": 1,
        "type": "witness_v1_scripthash",
        "addresses": [
          "3QJmnh"
        ]
      }
    },
    {
      "value": 1.0,
      "n": 1,
      "scriptPubKey": {
        "asm": "OP_RETURN ef15ba92198884bd0c5cbb4ce69624d81ed8e33ba5bbbe1e9c72895b788d7f5b 9433b7edc6da7ab65ddbca170cf96bf476956911e237a140e56727a42952f993b41397cde6fa5a967dfbea372cd94bd456b54931c2178160c54707840972d9b3d473f7ad869a3af61d9b8a574cb92bb436d52951a277e100a52767e46912b9d3f453d78da6ba1ad63dbbaa776c990b9416f509718257c120850747c4493299f314b3376d465afa36dd5b4a978c79eb74f615e99162b721c065e7a724a9d279133493174d667ada16fd7b6ab7ac59cb54d635c9b1429701e045c7870489f2593354f3772d061aba769d1b0ad7cc39ab34b655a9d122f7618025a7e764e992395374d3570d263a9a56bd3b2af7ec198b14967589f102d741a00587c744c9b219739433b7edc6da7ab65ddbca170cf96bf476956911e237a140e56727a42952f993b41397cde6fa5a967dfbea372cd94bd456b54931c2178160c54707840972d9b3d473f7ad869a3af61d9b8a574cb92bb436d52951a277e100a52767e46912b9d3f453d78da6ba1ad63dbbaa776c990b9416f509718257c120850747c4493299f314b3376d465afa36dd5b4a978c79eb74f615e99162b721c065e7a724a9d279133493174d667ada16fd7b6ab7ac59cb54d635c9b1429701e045c7870489f2593354f3772d061aba769d1b0ad7cc39ab34b655a9d122f7618025a7e764e992395374d3570d263a9a56bd3b2af7ec198b14967589f102d741a00587c744c9b219739433b7edc6da7ab65ddbca170cf96bf476956911e237a140e56727a42952f993b41397cde6fa5a967dfbea372cd94bd456b54931c2178160c54707840972d9b3d473f7ad869a3af61d9b8a574cb92bb436d52951a277e100a52767e46912b9d3f453d78da6ba1ad63dbbaa776c990b9416f509718257c120850747c4493299f314b3376d465afa36dd5b4a978c79eb74f615e99162b721c065e7a724a9d279133493174d667ada16fd7b6ab7ac59cb54d635c9b1429701e045c7870489f2593354f3772d061aba769d1b0ad7cc39ab34b655a9d122f7618025a7e764e992395374d3570d263a9a56bd3b2af7ec198b14967589f102d741a00587c744c9b219739433b7edc6da7ab65ddbca170cf96bf476956911e237a140e56727a42952f993b41397cde6fa5a967dfbea372cd94bd456b54931c2178160c54707840972d9b3d473f7ad869a3af61d9b8a574cb92bb436d52951a277e100a52767e46912b9d3f453d78da6ba1ad63dbbaa776c990b9416f509718257c120850747c4493299f314b3376d465afa36dd5b4a978c79eb74f615e99162b721c065e7a724a9d279133493174d667ada16fd7b6ab7ac59cb54d635c9b1429701e045c7870489f2593354f3772d061aba769d1b0ad7cc39ab34b655a9d122f7618025a7e764e992395374d3570d263a9a56bd3b2af7ec198b14967589f102d741a00587c744c9b219739433b7edc6da7ab65ddbca170cf96bf476956911e237a140e56727a42952f993b41397cde6fa5a967dfbea372cd94bd456b54931c2178160c54707840972d9b3d473f7ad869a3af61d9b8a574cb92bb436d52951a277e100a52767e46912b9d3f453d78da6ba1ad63dbbaa776c990b9416f509718257c120850747c4493299f314b3376d465afa36dd5b4a978c79eb74496386c1021a275be9effb7f34d977cc85e93805b3b0ca173e253fad0b3640f3",
        "hex": "6a20ef15ba92198884bd0c5cbb4ce69624d81ed8e33ba5bbbe1e9c72895b788d7f5b4db0049433b7edc6da7ab65ddbca170cf96bf476956911e237a140e56727a42952f993b41397cde6fa5a967dfbea372cd94bd456b54931c2178160c54707840972d9b3d473f7ad869a3af61d9b8a574cb92bb436d52951a277e100a52767e46912b9d3f453d78da6ba1ad63dbbaa776c990b9416f509718257c120850747c4493299f314b3376d465afa36dd5b4a978c79eb74f615e99162b721c065e7a724a9d279133493174d667ada16fd7b6ab7ac59cb54d635c9b1429701e045c7870489f2593354f3772d061aba769d1b0ad7cc39ab34b655a9d122f7618025a7e764e992395374d3570d263a9a56bd3b2af7ec198b14967589f102d741a00587c744c9b219739433b7edc6da7ab65ddbca170cf96bf476956911e237a140e56727a42952f993b41397cde6fa5a967dfbea372cd94bd456b54931c2178160c54707840972d9b3d473f7ad869a3af61d9b8a574cb92bb436d52951a277e100a52767e46912b9d3f453d78da6ba1ad63dbbaa776c990b9416f509718257c120850747c4493299f314b3376d465afa36dd5b4a978c79eb74f615e99162b721c065e7a724a9d279133493174d667ada16fd7b6ab7ac59cb54d635c9b1429701e045c7870489f2593354f3772d061aba769d1b0ad7cc39ab34b655a9d122f7618025a7e764e992395374d3570d263a9a56bd3b2af7ec198b14967589f102d741a00587c744c9b219739433b7edc6da7ab65ddbca170cf96bf476956911e237a140e56727a42952f993b41397cde6fa5a967dfbea372cd94bd456b54931c2178160c54707840972d9b3d473f7ad869a3af61d9b8a574cb92bb436d52951a277e100a52767e46912b9d3f453d78da6ba1ad63dbbaa776c990b9416f509718257c120850747c4493299f314b3376d465afa36dd5b4a978c79eb74f615e99162b721c065e7a724a9d279133493174d667ada16fd7b6ab7ac59cb54d635c9b1429701e045c7870489f2593354f3772d061aba769d1b0ad7cc39ab34b655a9d122f7618025a7e764e992395374d3570d263a9a56bd3b2af7ec198b14967589f102d741a00587c744c9b219739433b7edc6da7ab65ddbca170cf96bf476956911e237a140e56727a42952f993b41397cde6fa5a967dfbea372cd94bd456b54931c2178160c54707840972d9b3d473f7ad869a3af61d9b8a574cb92bb436d52951a277e100a52767e46912b9d3f453d78da6ba1ad63dbbaa776c990b9416f509718257c120850747c4493299f314b3376d465afa36dd5b4a978c79eb74f615e99162b721c065e7a724a9d279133493174d667ada16fd7b6ab7ac59cb54d635c9b1429701e045c7870489f2593354f3772d061aba769d1b0ad7cc39ab34b655a9d122f7618025a7e764e992395374d3570d263a9a56bd3b2af7ec198b14967589f102d741a00587c744c9b219739433b7edc6da7ab65ddbca170cf96bf476956911e237a140e56727a42952f993b41397cde6fa5a967dfbea372cd94bd456b54931c2178160c54707840972d9b3d473f7ad869a3af61d9b8a574cb92bb436d52951a277e100a52767e46912b9d3f453d78da6ba1ad63dbbaa776c990b9416f509718257c120850747c4493299f314b3376d465afa36dd5b4a978c79eb74496386c1021a275be9effb7f34d977cc85e93805b3b0ca173e253fad0b3640f3",
        "type": "nulldata"
      }
    }
  ],
  "blockhash": "15af9b025c636b87e0a10c18a1a8de0e5f3c2069ad563b293161176d75df89a4",
  "confirmations": 1,
  "time": 1764174659,
  "blocktime": 1764174659
}