{
  "hex": "0100000000010194520c9f77d18b20f95922a79c16338f4cb61b11ad869cd12accea2bca606ba00100000000feffffff0200e1f50500000000fdd5046a206823c58bf42b0639a72655595699cf72549c8963fa998974ae821a7cebe72f494db0048f334aa33fe0686dfd7e17d879d70fe35807e3c6f5aa8df06d097cb8d1014038af136a831fc0484ddd5e37f859f72fc37827c3e6d58aadd04d295c98f1216018cf730ae37fa0282dbd3e579839974fa31847a386b5eacdb02d493cf891410078ef532ac35f80080d9d1e77b819b76f83386783a695caed900d691cd8b16120580fb3ca23bf60e8ed7dfe9758f9578f63d8876346752a0d70ed89fc385181c0b82f93ea039f40c8cd5ddeb778d977af43f8a74366550a2d50cda9dc1871a1e0984ff38a63ff20a8ad3dbed718b917cf2398c72306356a4d30adc9bc7811c180f86fd3aa43df00888d1d9ef7389937ef03b8e70326154a6d108de99c5831e1a0d88f334aa33fe0686dfd7e17d879d70fe35807e3c6f5aa8df06d097cb8d1014038af136a831fc0484ddd5e37f859f72fc37827c3e6d58aadd04d295c98f1216018cf730ae37fa0282dbd3e579839974fa31847a386b5eacdb02d493cf891410078ef532ac35f80080d9d1e77b819b76f83386783a695caed900d691cd8b16120580fb3ca23bf60e8ed7dfe9758f9578f63d8876346752a0d70ed89fc385181c0b82f93ea039f40c8cd5ddeb778d977af43f8a74366550a2d50cda9dc1871a1e0984ff38a63ff20a8ad3dbed718b917cf2398c72306356a4d30adc9bc7811c180f86fd3aa43df00888d1d9ef7389937ef03b8e70326154a6d108de99c5831e1a0d88f334aa33fe0686dfd7e17d879d70fe35807e3c6f5aa8df06d097cb8d1014038af136a831fc0484ddd5e37f859f72fc37827c3e6d58aadd04d295c98f1216018cf730ae37fa0282dbd3e579839974fa31847a386b5eacdb02d493cf891410078ef532ac35f80080d9d1e77b819b76f83386783a695caed900d691cd8b16120580fb3ca23bf60e8ed7dfe9758f9578f63d8876346752a0d70ed89fc385181c0b82f93ea039f40c8cd5ddeb778d977af43f8a74366550a2d50cda9dc1871a1e0984ff38a63ff20a8ad3dbed718b917cf2398c72306356a4d30adc9bc7811c180f86fd3aa43df00888d1d9ef7389937ef03b8e70326154a6d108de99c5831e1a0d88f334aa33fe0686dfd7e17d879d70fe35807e3c6f5aa8df06d097cb8d1014038af136a831fc0484ddd5e37f859f72fc37827c3e6d58aadd04d295c98f1216018cf730ae37fa0282dbd3e579839974fa31847a386b5eacdb02d493cf891410078ef532ac35f80080d9d1e77b819b76f83386783a695caed900d691cd8b16120580fb3ca23bf60e8ed7dfe9758f9578f63d8876346752a0d70ed89fc385181c0b82f93ea039f40c8cd5ddeb778d977af43f8a74366550a2d50cda9dc1871a1e0984ff38a63ff20a8ad3dbed718b917cf2398c72306356a4d30adc9bc7811c180f86fd3aa43df00888d1d9ef7389937ef03b8e70326154a6d108de99c5831e1a0d88f334aa33fe0686dfd7e17d879d70fe35807e3c6f5aa8df06d097cb8d1014038af136a831fc0484ddd5e37f859f72fc37827c3e6d58aadd04d295c98f1216018cf730ae37fa0282dbd3e579839974fa31847a386b5eacdb02d493cf891410078ef532ac35f80080d9d1e77b819b76f83386783a695caed900d691cd8b16120580fb3ca23bf60e8ed7dfe9758f9578f63db1125567766ec78ef334710c68958e650dd31de5f617f0752d252761ce40dba702338c0782d00002251203a29bcb482119aa251fc305e92286985e1b4eaf70b9908f0461848aee0c5520202fd7509d5dde975844be400433da5f637374a68848b86fd7d780cd0c47e569d1456fddb9b0ed4d87043afb712f42ce7db6428f51b1e315042083529049caac126d588607070cfa86c33aef93c38d5621afd27b4be536a7586fe428c8cce732a588174d4be5a95c2becb0c5f5534afb0c204173070e4a33b076e2a0ad933dd888f7bcf0195c6a6818ada49a84c47fe849dfb9bfe191ed9584b827db21f273610eedfe840115a66a2de8407386f82fde129020d23e39f60df67b355ba716aef7bc1a3ab716fc8927001954574ddb70f759a1caaa76025d5f8c5f7e33141e264fc6c9ce97e5ca5c03794acf75be4413c6a6037ac60773f54d06be958874ada859c35ed7f13e8068ab88b8f561c6d4b5a773391786a2fe7c79421b29676d7c46ebc59c50f672c18b69aa38649a613e66a3f1f178fbb146fe30eb8e88ead3f8b909b32371d39cb1eda71f925d1238ddadf0c0f603147eda974e4ef4b74de1d03951fee6b5438ecd486c8c1d616eb2379baaef729d3e403cdb6bdeb69803912cb8bd16eaee971c82a2fd6426425caf2417da2766ee55a6d1099249a4b5fd366d20d44fcc1660cb6fbc241107a18ea958c0f842fa16bef46ef8f513daac716e9dedf57a9d41d580c5408064859e9570de0c7b8c66ff76823d1fae234a572f72ec0399ee43f711dbeb1501014bf58470412ef2bf23ef1fb1bc70dcd6f57175e8acded89e86ce097a65e6cf3e461bbfd7bb87bb8257d8e98134956e199476c82c30b987af26645bdfedc879731c54ed118ea65b3f47e754fb7b3898fa8fb7088b400fe08155280156590a957cc51cf24820e8158936921af062cfcbaf4c7d86d7a24f37412ebe145196b504c222e455615a4df0c1ec57a15eeec09a1ebfb937bb3c0722bcaa6403f19d98936330851c7e907913056176fc294b6448d4ffef58772dbe48a592807d0271d694d2db26c98208d84ffdcd101fd84e80d669ce9835411aa44f7e2dfd67b7f36cdda7b168ce2b3c7e594a73e86eb705549a8ca824da5cbb299dce393f2bbc27980a8e91748e42c12fca08f0ee6bb99062cef1d1dfb93dfd4daf31daf6e8a2a6aa8698739e03583f3af2f672da0d89a8bd872f86331887cd540ab88e6c8cc5c5ae04155b234398de27d153d2458006aa2d20fe9048e7c431628ae9a90fbc981a2509b02a11fe0f2e177f21c7fc705f581d7872c52496ea71f9f49debcf4df31a191d69471894df257f2f2b8c35ae820041caf13b7641f3c99310218fa3b7f2ae006ee0547eaff5ff4a04b18ba8c3066d12f9447d5e1c408f62cf02bec36a616b3d4ae3b7c3450aad184b2d0ca9774efebd2e901433e8405a8e5dc0e322d9f9a0d91f1be2d63e2823541f3bece42d39754d4b45ce888b842ee04dc03d261ec91bcdbad7c5ea5088adf7bf1c8c253d2a9b9b1ae3424befa17fd4bac69b854ade3eba7d9b2709c44d9a7cd7eef6c343f0fe9c0152256f97e1935588b6c4c4c4e6d4ced5e79933bd47e5cc0c69af5439ae0b5d29c47515de6a0141abd1a3f3c8bc02b3db22db092097ea93f93d3b8811eed89ea1d53712eba227c9c894468264f7cac3bf907c6ec7aaf434c0949fd7c5e9b42da14d7ab20e60d9a1cc0171d52f0e2be35dd9841908e6c959d0d6369933b6c9ac88c35d86698b08fb6acf7cec1778079b9d3a97bf12131826668077339251292bf22a75d844c772a0be2cbf9ce37e9271509e84fe251370d5df21128450a7fc2260749224b9e3046ce9cf6a0a8a84565d2abbe7e432d8cf9e4c0ab8586e805f1a372761d15b66f4be261e467e9b6ab623b2aa731fed31b5102b8751fa1adc58fd5e7067fdc42dce747787b685da9df9be2e87481763a885b674a5f8deb6fc8bc11633da50cbc0c7cd7919bd5c1504bb3c6923366ca8f6e91c597c7295d1d105c6ee2ea36b76412b5922874dd03b9294aa2d11e808501d88392a763bf2975ff8ea9ddf39e8a8ed793cd24bff3c13dfec3328c38c8dc9b610fe3bdf0efc41a1ed5e49ce9c571bb0b821ce37155fb5dc46f873d6e78b7392b681fb0c00d49f204acedacda481d7510870976d96697baf51d857ba73a87f87fa2ff73b2d97a19d1cc55b1ce371310407bd2a7326ce88d0d0677b9ef7ffa22773ec1b35707d7f7eff93c05894c4e49540a129d9f368e8ddfeda7d6b0a46e6386eef81fe9792dedf7b78f4f64fca948dd03b628ebe597d9c2084713566619e48ebd1dbf94efff0757c0109efab4a50a665c02e7860a5898159f1a70949f0cdf26a75a7feac89df38f2a441bd7c4dcbd8ca600729ad2a84990ecb18ee9f520f13794c2acb7cc02c3e0b55404cf113d5235bfc7dcecb35b2a8b79e30b1f415c7cc0644499ff858c2a6ff543b0ca7e489ce1ab5dfdcb31cea2674a0ae9fe84cf7f99aa108fdad81c0e567772e413fdd72abfdf5314bdb59801b8dcdd0d88a40e18a392b17ae8473714ece9e8708e7ca5e9f6f98e6e75498e444990d14c849c814bc55fc532412a0bba09f2f0eec9ae1b67f80a62db9a133a47f81dc2917a514a794689d27b1d8e2e02f00a0f28d9d5af3a14c290135a69ca2f4e9532476155dd00dda0066f810443646db5b54e7270c3e3b3f7c1c1bf42d1c374351d2a8f5213f8cda2bd3f0cdf897b5615921ca9c05328e0737937a91a7a4fdf0f74779b2b2e1e4a3cdcff17282bf747193413ef609077b89d41b5e791c9075fe6f2ea44e2421141bb69ad92465f4a9ade0002f16a5eec2241ffbd13b42aa49073afcc07c7ef957b9cd85c754c1ac3fbc2caeb3a4f26df681c83c6788666bb89f4400e83bddf5a5510116aca46a1272205fe9b8615f22b58625c5bdc310ffcb92632062d8859d7361bd7c5a19b25d9a7eeb5b675a0d1feb4689d090b49e937a07071784398d58eabe00030188dcda223ab9ea2e9ff6c18af16f0a3cb7f398be198b1460f00ce376cf7d85cab01b2fab87ed63e3a1f91e4ffd782071d268143d82835b11ad6ed3f60abf2b262b269bf4d6f180400c63ee99e03f6438493dd386c5428b2de115c2587e6cb6e2805c48c9f08f09feb3f2f9cc98639fdf5129b013699383a5728e11a17823fa8f2675ba4034a0a4e2446631d9feef7807a98d89e4748c6b572490e9890f6b9cd2708087fcb06e3d89b33ada04875d511fb029ffdbd147c48329c38b179a2ccb17279f4233d9d8953d8f0be5db42624580bea6c5483ec9e6d1b5e222ccb1ae61dace44284ec15e1705d06a53267f2fdec8b25eea636072abc77cbb54d95507eff365778c44464f63f5dbd96ef6f802ee6b8f52c770a0f2c334752548a98adb4b70116192a2b2c353d44557b7e82afb8e2e7f5fd0509266372a0a4d6f2f3060c10363974858ca3a6ab000000000000000000000000000000000000000000000000000000000c1f293401fd2105004fc43f8077380e123f5e03cae1bba3fd3a2a32ceea15a543993a8564de03b5b576659efdcc774575716a3317aed0dcfc06292f47760c90fb2fd273d976307f37c54dd33a0be9dcd79c7d1970fb3ee8be03c3223880890eeae2767b1c115de8a9a88f93b42892b79f780236a138659254b8802e7d682a30393c1d5634883c7aff086915762af5f6b78aca6ffafa5b879c4272766dd83018d3d54c8f650782d592be2924d9baad4929c7f2eaddbb62ab455288ad346cf969a419cdfed2f3fb449d9b0306df44a084a46fe0d0d78a639c53a0d5f5f637b7d6e1f61fb7da64d79485cb87609ea4a9b1ce33c08c279e1625676e2adb043c67a583604c227121d2094d4a1d13f4c0883f10fbb1ed9c7eaf8060b7ca440a1a895a05a39622dbcd0513e5d911f1080b4c26e1290e4d7cf64b6605feb5cfeb877e98265730db2ecbfda6773761ab58ea3bf836694ee3fa6a951760b9d21c82bc53c759a95ac0db9ee2a7c14612a2d88f6f6a17b513b2fd7524111b1a8182b15d05711b1807e0409a56394afb27032b37e196a6095cf2f14931ceea5b652b0cd9f78d920242b34b462fdc5ea74082afeeac79b0e7fec46076dd06fcc07978834786519c342c493d1537fd419e8eccdd46c90e93594493abeb649a8731365cc93e68b63fbddcccecaf5f6f04f364b935ab03329bf0c91cf9ffe1ec9b86e52768eb80bc6020545f7697277106930f8c17dff2ee1a3b51366bbf08b90a94d90ae82ff91ea137915e8b2dea26506980e19e3ec0a6ce11d40c6ecb4284ab900715bd5cac1df63bfdab8adf2441e7fbc7290b1316f5d3c45366fce66c4085041141ed57a85d41978389a51b8225b78fb55fa17c30df73f38dbe835b7687f06779b88c7f62d214a18c1ca694b5ef07351effe1eb72348581f3e642eec51ea565f8f726628a40dc21818ad28b2cf6aea41bd87d61cea9c90fac9993711bb2ffe228e8f6edbdca7f70f381fac821bc676d773c51e57c125cbf5ae14b72425bf89782d090fdf12471b014f84c10c0855b56ed28dc29defa87b0a3f1548b86ab1a45bd5f25ed271bd1aa7ba14079b9404225255f39fb56ca367f0ff0448114d6939b7e8a3b33eda426aa22966984c48fac77c4dcaf441160c83bb3cd51c5ee9f1fbb2d868f4f8ff31a4885b4174b66b414d672302f2e9f71626aaabf04a98abfa20ea77826474faae12305c755d81558bd52cae81612ef808ae202f14e51ff4d6429dd84b6e0f4a003329691853c29a86a47369581e17574802243d529996c1eb23dd49e641f20493b52630dc7ddb42bdfdf723f0d9e6ebb0aa5f740efa80b2e8dd7b3e2bf6e18daa62254003bf29fefda897942b7e147097be8410e124d5806ecd0a68e11542dd49dd1700a3b9b51c4904ff5c2af0e2850d8f7568fe6d7339c3b25f6cfefdca3659235d9522d8dc92a62e4b81eab018aeef0f419cf8b83ed2b0cf0959e1b809a7038d8bf2e7e012ad86901c2443d5bc248916f18c5cd4083e9803ff08c574e7aa188550df7adadd58c1f435c5a76117693c08e739b6c2c36d0a15f24620af61302c3dc919d6570d1b4ad3c0b88457f113d436f587b6e7d7e202c742c033c7cf8938d6d9fd9541a821c214529560456d41151eb0bac76ccbe1bfe88e41f1b9af5a265e0a9e03ab10b3a4b6de3f8dbcd21dc371d6d4d1dafe02d535cbfa63ade5fd9b441b9878a841f36a524164137838b88873ccc9fa7f8f75e1910404e0b17a013aec297e086f7ebd997df3676e043f2779e280f5d08936879e8cb8798eb7a17349a9a7c62e4168fd440e8c206ad2ed6130b8733865ac53bf35be70c1357259aac6c4e34ae77e90e285882000000",
  "txid": "1f62066ac2029a39b41edd41ff8b9b6bd0799c202627dde6828148da2e6af324",
  "hash": "f220d3a97a3dcd41d536af508df1c990f2a3a9a66bcd54db9699aac9973ed83b",
  "size": 5085,
  "vsize": 2278,
  "version": 1,
  "locktime": 130,
  "vin": [
    {
      "txid": "a06b60ca2beacc2ad19c86ad111bb64c8f33169ca72259f9208bd1779f0c5294",
      "vout": 1,
      "scriptSig": {
        "asm": "",
        "hex": ""
      },
      "txinwitness": [
        "d5dde975844be400433da5f637374a68848b86fd7d780cd0c47e569d1456fddb9b0ed4d87043afb712f42ce7db6428f51b1e315042083529049caac126d588607070cfa86c33aef93c38d5621afd27b4be536a7586fe428c8cce732a588174d4be5a95c2becb0c5f5534afb0c204173070e4a33b076e2a0ad933dd888f7bcf0195c6a6818ada49a84c47fe849dfb9bfe191ed9584b827db21f273610eedfe840115a66a2de8407386f82fde129020d23e39f60df67b355ba716aef7bc1a3ab716fc8927001954574ddb70f759a1caaa76025d5f8c5f7e33141e264fc6c9ce97e5ca5c03794acf75be4413c6a6037ac60773f54d06be958874ada859c35ed7f13e8068ab88b8f561c6d4b5a773391786a2fe7c79421b29676d7c46ebc59c50f672c18b69aa38649a613e66a3f1f178fbb146fe30eb8e88ead3f8b909b32371d39cb1eda71f925d1238ddadf0c0f603147eda974e4ef4b74de1d03951fee6b5438ecd486c8c1d616eb2379baaef729d3e403cdb6bdeb69803912cb8bd16eaee971c82a2fd6426425caf2417da2766ee55a6d1099249a4b5fd366d20d44fcc1660cb6fbc241107a18ea958c0f842fa16bef46ef8f513daac716e9dedf57a9d41d580c5408064859e9570de0c7b8c66ff76823d1fae234a572f72ec0399ee43f711dbeb1501014bf58470412ef2bf23ef1fb1bc70dcd6f57175e8acded89e86ce097a65e6cf3e461bbfd7bb87bb8257d8e98134956e199476c82c30b987af26645bdfedc879731c54ed118ea65b3f47e754fb7b3898fa8fb7088b400fe08155280156590a957cc51cf24820e8158936921af062cfcbaf4c7d86d7a24f37412ebe145196b504c222e455615a4df0c1ec57a15eeec09a1ebfb937bb3c0722bcaa6403f19d98936330851c7e907913056176fc294b6448d4ffef58772dbe48a592807d0271d694d2db26c98208d84ffdcd101fd84e80d669ce9835411aa44f7e2dfd67b7f36cdda7b168ce2b3c7e594a73e86eb705549a8ca824da5cbb299dce393f2bbc27980a8e91748e42c12fca08f0ee6bb99062cef1d1dfb93dfd4daf31daf6e8a2a6aa8698739e03583f3af2f672da0d89a8bd872f86331887cd540ab88e6c8cc5c5ae04155b234398de27d153d2458006aa2d20fe9048e7c431628ae9a90fbc981a2509b02a11fe0f2e177f21c7fc705f581d7872c52496ea71f9f49debcf4df31a191d69471894df257f2f2b8c35ae820041caf13b7641f3c99310218fa3b7f2ae006ee0547eaff5ff4a04b18ba8c3066d12f9447d5e1c408f62cf02bec36a616b3d4ae3b7c3450aad184b2d0ca9774efebd2e901433e8405a8e5dc0e322d9f9a0d91f1be2d63e2823541f3bece42d39754d4b45ce888b842ee04dc03d261ec91bcdbad7c5ea5088adf7bf1c8c253d2a9b9b1ae3424befa17fd4bac69b854ade3eba7d9b2709c44d9a7cd7eef6c343f0fe9c0152256f97e1935588b6c4c4c4e6d4ced5e79933bd47e5cc0c69af5439ae0b5d29c47515de6a0141abd1a3f3c8bc02b3db22db092097ea93f93d3b8811eed89ea1d53712eba227c9c894468264f7cac3bf907c6ec7aaf434c0949fd7c5e9b42da14d7ab20e60d9a1cc0171d52f0e2be35dd9841908e6c959d0d6369933b6c9ac88c35d86698b08fb6acf7cec1778079b9d3a97bf12131826668077339251292bf22a75d844c772a0be2cbf9ce37e9271509e84fe251370d5df21128450a7fc2260749224b9e3046ce9cf6a0a8a84565d2abbe7e432d8cf9e4c0ab8586e805f1a372761d15b66f4be261e467e9b6ab623b2aa731fed31b5102b8751fa1adc58fd5e7067fdc42dce747787b685da9df9be2e87481763a885b674a5f8deb6fc8bc11633da50cbc0c7cd7919bd5c1504bb3c6923366ca8f6e91c597c7295d1d105c6ee2ea36b76412b5922874dd03b9294aa2d11e808501d88392a763bf2975ff8ea9ddf39e8a8ed793cd24bff3c13dfec3328c38c8dc9b610fe3bdf0efc41a1ed5e49ce9c571bb0b821ce37155fb5dc46f873d6e78b7392b681fb0c00d49f204acedacda481d7510870976d96697baf51d857ba73a87f87fa2ff73b2d97a19d1cc55b1ce371310407bd2a7326ce88d0d0677b9ef7ffa22773ec1b35707d7f7eff93c05894c4e49540a129d9f368e8ddfeda7d6b0a46e6386eef81fe9792dedf7b78f4f64fca948dd03b628ebe597d9c2084713566619e48ebd1dbf94efff0757c0109efab4a50a665c02e7860a5898159f1a70949f0cdf26a75a7feac89df38f2a441bd7c4dcbd8ca600729ad2a84990ecb18ee9f520f13794c2acb7cc02c3e0b55404cf113d5235bfc7dcecb35b2a8b79e30b1f415c7cc0644499ff858c2a6ff543b0ca7e489ce1ab5dfdcb31cea2674a0ae9fe84cf7f99aa108fdad81c0e567772e413fdd72abfdf5314bdb59801b8dcdd0d88a40e18a392b17ae8473714ece9e8708e7ca5e9f6f98e6e75498e444990d14c849c814bc55fc532412a0bba09f2f0eec9ae1b67f80a62db9a133a47f81dc2917a514a794689d27b1d8e2e02f00a0f28d9d5af3a14c290135a69ca2f4e9532476155dd00dda0066f810443646db5b54e7270c3e3b3f7c1c1bf42d1c374351d2a8f5213f8cda2bd3f0cdf897b5615921ca9c05328e0737937a91a7a4fdf0f74779b2b2e1e4a3cdcff17282bf747193413ef609077b89d41b5e791c9075fe6f2ea44e2421141bb69ad92465f4a9ade0002f16a5eec2241ffbd13b42aa49073afcc07c7ef957b9cd85c754c1ac3fbc2caeb3a4f26df681c83c6788666bb89f4400e83bddf5a5510116aca46a1272205fe9b8615f22b58625c5bdc310ffcb92632062d8859d7361bd7c5a19b25d9a7eeb5b675a0d1feb4689d090b49e937a07071784398d58eabe00030188dcda223ab9ea2e9ff6c18af16f0a3cb7f398be198b1460f00ce376cf7d85cab01b2fab87ed63e3a1f91e4ffd782071d268143d82835b11ad6ed3f60abf2b262b269bf4d6f180400c63ee99e03f6438493dd386c5428b2de115c2587e6cb6e2805c48c9f08f09feb3f2f9cc98639fdf5129b013699383a5728e11a17823fa8f2675ba4034a0a4e2446631d9feef7807a98d89e4748c6b572490e9890f6b9cd2708087fcb06e3d89b33ada04875d511fb029ffdbd147c48329c38b179a2ccb17279f4233d9d8953d8f0be5db42624580bea6c5483ec9e6d1b5e222ccb1ae61dace44284ec15e1705d06a53267f2fdec8b25eea636072abc77cbb54d95507eff365778c44464f63f5dbd96ef6f802ee6b8f52c770a0f2c334752548a98adb4b70116192a2b2c353d44557b7e82afb8e2e7f5fd0509266372a0a4d6f2f3060c10363974858ca3a6ab000000000000000000000000000000000000000000000000000000000c1f293401",
        "004fc43f8077380e123f5e03cae1bba3fd3a2a32ceea15a543993a8564de03b5b576659efdcc774575716a3317aed0dcfc06292f47760c90fb2fd273d976307f37c54dd33a0be9dcd79c7d1970fb3ee8be03c3223880890eeae2767b1c115de8a9a88f93b42892b79f780236a138659254b8802e7d682a30393c1d5634883c7aff086915762af5f6b78aca6ffafa5b879c4272766dd83018d3d54c8f650782d592be2924d9baad4929c7f2eaddbb62ab455288ad346cf969a419cdfed2f3fb449d9b0306df44a084a46fe0d0d78a639c53a0d5f5f637b7d6e1f61fb7da64d79485cb87609ea4a9b1ce33c08c279e1625676e2adb043c67a583604c227121d2094d4a1d13f4c0883f10fbb1ed9c7eaf8060b7ca440a1a895a05a39622dbcd0513e5d911f1080b4c26e1290e4d7cf64b6605feb5cfeb877e98265730db2ecbfda6773761ab58ea3bf836694ee3fa6a951760b9d21c82bc53c759a95ac0db9ee2a7c14612a2d88f6f6a17b513b2fd7524111b1a8182b15d05711b1807e0409a56394afb27032b37e196a6095cf2f14931ceea5b652b0cd9f78d920242b34b462fdc5ea74082afeeac79b0e7fec46076dd06fcc07978834786519c342c493d1537fd419e8eccdd46c90e93594493abeb649a8731365cc93e68b63fbddcccecaf5f6f04f364b935ab03329bf0c91cf9ffe1ec9b86e52768eb80bc6020545f7697277106930f8c17dff2ee1a3b51366bbf08b90a94d90ae82ff91ea137915e8b2dea26506980e19e3ec0a6ce11d40c6ecb4284ab900715bd5cac1df63bfdab8adf2441e7fbc7290b1316f5d3c45366fce66c4085041141ed57a85d41978389a51b8225b78fb55fa17c30df73f38dbe835b7687f06779b88c7f62d214a18c1ca694b5ef07351effe1eb72348581f3e642eec51ea565f8f726628a40dc21818ad28b2cf6aea41bd87d61cea9c90fac9993711bb2ffe228e8f6edbdca7f70f381fac821bc676d773c51e57c125cbf5ae14b72425bf89782d090fdf12471b014f84c10c0855b56ed28dc29defa87b0a3f1548b86ab1a45bd5f25ed271bd1aa7ba14079b9404225255f39fb56ca367f0ff0448114d6939b7e8a3b33eda426aa22966984c48fac77c4dcaf441160c83bb3cd51c5ee9f1fbb2d868f4f8ff31a4885b4174b66b414d672302f2e9f71626aaabf04a98abfa20ea77826474faae12305c755d81558bd52cae81612ef808ae202f14e51ff4d6429dd84b6e0f4a003329691853c29a86a47369581e17574802243d529996c1eb23dd49e641f20493b52630dc7ddb42bdfdf723f0d9e6ebb0aa5f740efa80b2e8dd7b3e2bf6e18daa62254003bf29fefda897942b7e147097be8410e124d5806ecd0a68e11542dd49dd1700a3b9b51c4904ff5c2af0e2850d8f7568fe6d7339c3b25f6cfefdca3659235d9522d8dc92a62e4b81eab018aeef0f419cf8b83ed2b0cf0959e1b809a7038d8bf2e7e012ad86901c2443d5bc248916f18c5cd4083e9803ff08c574e7aa188550df7adadd58c1f435c5a76117693c08e739b6c2c36d0a15f24620af61302c3dc919d6570d1b4ad3c0b88457f113d436f587b6e7d7e202c742c033c7cf8938d6d9fd9541a821c214529560456d41151eb0bac76ccbe1bfe88e41f1b9af5a265e0a9e03ab10b3a4b6de3f8dbcd21dc371d6d4d1dafe02d535cbfa63ade5fd9b441b9878a841f36a524164137838b88873ccc9fa7f8f75e1910404e0b17a013aec297e086f7ebd997df3676e043f2779e280f5d08936879e8cb8798eb7a17349a9a7c62e4168fd440e8c206ad2ed6130b8733865ac53bf35be70c1357259aac6c4e34ae77e90e2858"
      ],
      "sequence": 4294967294
    }
  ],
  "vout": [
    {
      "value": 1.0,
      "n": 0,
      "scriptPubKey": {
        "asm": "OP_RETURN 6823c58bf42b0639a72655595699cf72549c8963fa998974ae821a7cebe72f49 8f334aa33fe0686dfd7e17d879d70fe35807e3c6f5aa8df06d097cb8d1014038af136a831fc0484ddd5e37f859f72fc37827c3e6d58aadd04d295c98f1216018cf730ae37fa0282dbd3e579839974fa31847a386b5eacdb02d493cf891410078ef532ac35f80080d9d1e77b819b76f83386783a695caed900d691cd8b16120580fb3ca23bf60e8ed7dfe9758f9578f63d8876346752a0d70ed89fc385181c0b82f93ea039f40c8cd5ddeb778d977af43f8a74366550a2d50cda9dc1871a1e0984ff38a63ff20a8ad3dbed718b917cf2398c72306356a4d30adc9bc7811c180f86fd3aa43df00888d1d9ef7389937ef03b8e70326154a6d108de99c5831e1a0d88f334aa33fe0686dfd7e17d879d70fe35807e3c6f5aa8df06d097cb8d1014038af136a831fc0484ddd5e37f859f72fc37827c3e6d58aadd04d295c98f1216018cf730ae37fa0282dbd3e579839974fa31847a386b5eacdb02d493cf891410078ef532ac35f80080d9d1e77b819b76f83386783a695caed900d691cd8b16120580fb3ca23bf60e8ed7dfe9758f9578f63d8876346752a0d70ed89fc385181c0b82f93ea039f40c8cd5ddeb778d977af43f8a74366550a2d50cda9dc1871a1e0984ff38a63ff20a8ad3dbed718b917cf2398c72306356a4d30adc9bc7811c180f86fd3aa43df00888d1d9ef7389937ef03b8e70326154a6d108de99c5831e1a0d88f334aa33fe0686dfd7e17d879d70fe35807e3c6f5aa8df06d097cb8d1014038af136a831fc0484ddd5e37f859f72fc37827c3e6d58aadd04d295c98f1216018cf730ae37fa0282dbd3e579839974fa31847a386b5eacdb02d493cf891410078ef532ac35f80080d9d1e77b819b76f83386783a695caed900d691cd8b16120580fb3ca23bf60e8ed7dfe9758f9578f63d8876346752a0d70ed89fc385181c0b82f93ea039f40c8cd5ddeb778d977af43f8a74366550a2d50cda9dc1871a1e0984ff38a63ff20a8ad3dbed718b917cf2398c72306356a4d30adc9bc7811c180f86fd3aa43df00888d1d9ef7389937ef03b8e70326154a6d108de99c5831e1a0d88f334aa33fe0686dfd7e17d879d70fe35807e3c6f5aa8df06d097cb8d1014038af136a831fc0484ddd5e37f859f72fc37827c3e6d58aadd04d295c98f1216018cf730ae37fa0282dbd3e579839974fa31847a386b5eacdb02d493cf891410078ef532ac35f80080d9d1e77b819b76f83386783a695caed900d691cd8b16120580fb3ca23bf60e8ed7dfe9758f9578f63d8876346752a0d70ed89fc385181c0b82f93ea039f40c8cd5ddeb778d977af43f8a74366550a2d50cda9dc1871a1e0984ff38a63ff20a8ad3dbed718b917cf2398c72306356a4d30adc9bc7811c180f86fd3aa43df00888d1d9ef7389937ef03b8e70326154a6d108de99c5831e1a0d88f334aa33fe0686dfd7e17d879d70fe35807e3c6f5aa8df06d097cb8d1014038af136a831fc0484ddd5e37f859f72fc37827c3e6d58aadd04d295c98f1216018cf730ae37fa0282dbd3e579839974fa31847a386b5eacdb02d493cf891410078ef532ac35f80080d9d1e77b819b76f83386783a695caed900d691cd8b16120580fb3ca23bf60e8ed7dfe9758f9578f63db1125567766ec78ef334710c68958e650dd31de5f617f0752d252761ce40dba",
        "hex": "6a206823c58bf42b0639a72655595699cf72549c8963fa998974ae821a7cebe72f494db0048f334aa33fe0686dfd7e17d879d70fe35807e3c6f5aa8df06d097cb8d1014038af136a831fc0484ddd5e37f859f72fc37827c3e6d58aadd04d295c98f1216018cf730ae37fa0282dbd3e579839974fa31847a386b5eacdb02d493cf891410078ef532ac35f80080d9d1e77b819b76f83386783a695caed900d691cd8b16120580fb3ca23bf60e8ed7dfe9758f9578f63d8876346752a0d70ed89fc385181c0b82f93ea039f40c8cd5ddeb778d977af43f8a74366550a2d50cda9dc1871a1e0984ff38a63ff20a8ad3dbed718b917cf2398c72306356a4d30adc9bc7811c180f86fd3aa43df00888d1d9ef7389937ef03b8e70326154a6d108de99c5831e1a0d88f334aa33fe0686dfd7e17d879d70fe35807e3c6f5aa8df06d097cb8d1014038af136a831fc0484ddd5e37f859f72fc37827c3e6d58aadd04d295c98f1216018cf730ae37fa0282dbd3e579839974fa31847a386b5eacdb02d493cf891410078ef532ac35f80080d9d1e77b819b76f83386783a695caed900d691cd8b16120580fb3ca23bf60e8ed7dfe9758f9578f63d8876346752a0d70ed89fc385181c0b82f93ea039f40c8cd5ddeb778d977af43f8a74366550a2d50cda9dc1871a1e0984ff38a63ff20a8ad3dbed718b917cf2398c72306356a4d30adc9bc7811c180f86fd3aa43df00888d1d9ef7389937ef03b8e70326154a6d108de99c5831e1a0d88f334aa33fe0686dfd7e17d879d70fe35807e3c6f5aa8df06d097cb8d1014038af136a831fc0484ddd5e37f859f72fc37827c3e6d58aadd04d295c98f1216018cf730ae37fa0282dbd3e579839974fa31847a386b5eacdb02d493cf891410078ef532ac35f80080d9d1e77b819b76f83386783a695caed900d691cd8b16120580fb3ca23bf60e8ed7dfe9758f9578f63d8876346752a0d70ed89fc385181c0b82f93ea039f40c8cd5ddeb778d977af43f8a74366550a2d50cda9dc1871a1e0984ff38a63ff20a8ad3dbed718b917cf2398c72306356a4d30adc9bc7811c180f86fd3aa43df00888d1d9ef7389937ef03b8e70326154a6d108de99c5831e1a0d88f334aa33fe0686dfd7e17d879d70fe35807e3c6f5aa8df06d097cb8d1014038af136a831fc0484ddd5e37f859f72fc37827c3e6d58aadd04d295c98f1216018cf730ae37fa0282dbd3e579839974fa31847a386b5eacdb02d493cf891410078ef532ac35f80080d9d1e77b819b76f83386783a695caed900d691cd8b16120580fb3ca23bf60e8ed7dfe9758f9578f63d8876346752a0d70ed89fc385181c0b82f93ea039f40c8cd5ddeb778d977af43f8a74366550a2d50cda9dc1871a1e0984ff38a63ff20a8ad3dbed718b917cf2398c72306356a4d30adc9bc7811c180f86fd3aa43df00888d1d9ef7389937ef03b8e70326154a6d108de99c5831e1a0d88f334aa33fe0686dfd7e17d879d70fe35807e3c6f5aa8df06d097cb8d1014038af136a831fc0484ddd5e37f859f72fc37827c3e6d58aadd04d295c98f1216018cf730ae37fa0282dbd3e579839974fa31847a386b5eacdb02d493cf891410078ef532ac35f80080d9d1e77b819b76f83386783a695caed900d691cd8b16120580fb3ca23bf60e8ed7dfe9758f9578f63db1125567766ec78ef334710c68958e650dd31de5f617f0752d252761ce40dba",
        "type": "nulldata"
      }
    },
    {
      "value": 499966.4423,
      "n": 1,
      "scriptPubKey": {
        "asm": "1 3a29bcb482119aa251fc305e92286985e1b4eaf70b9908f0461848aee0c55202",
        "hex": "51203a29bcb482119aa251fc305e92286985e1b4eaf70b9908f0461848aee0c55202",
        "reqSigs": 1,
        "type": "witness_v1_scripthash",
        "addresses": [
          "3QJmnh"
        ]
      }
    }
  ],
  "blockhash": "a9a7ce638639648c5b111e15e0d4489535a11a846f6b50fba3b7e2925471654c",
  "confirmations": 1,
  "time": 1764182153,
  "blocktime": 1764182153
}