{
  "hex": "01000000000101aaa62eb9d1a77395263f05fb79d76c8d9f59b917f307cb9d2151b95a23b959820100000000feffffff0210cdd4fc782d0000225120ba6e27feafdd1f5e385b9943a2788e930517a79d120192c070f95dbd1a152ca200e1f50500000000fdd5046a20efd27313ed6b496894d30b9d95822c9b658cada98056306c309dfe59b1d8b1814db004814531afad556482ad6c25a39e99db60a5753d1854273eab17a21ab0502349f6a165118f8d7544a28d4c0583beb9fb4085551d3874071e8b37823a90700369d6c10571efed1524c2ed2c65e3ded99b20e5357d5814677eeb57e25af0106309b6e12551cfcd3504e2cd0c45c3fef9bb00c5155d7834475ecb77c27ad03043299601c5b12f2dd5e4022deca5231e195be025f5bd98d4a7be2b97229a30d0a3c97621e5910f0df5c4220dcc85033e397bc005d59db8f4879e0bb702ba10f083e9564185f16f6d95a4426dace5635e591ba065b5fdd894e7fe6bd762da7090e3893661a5d14f4db584624d8cc5437e793b804595ddf8b4c7de4bf742fa50b0c3a916814531afad556482ad6c25a39e99db60a5753d1854273eab17a21ab0502349f6a165118f8d7544a28d4c0583beb9fb4085551d3874071e8b37823a90700369d6c10571efed1524c2ed2c65e3ded99b20e5357d5814677eeb57e25af0106309b6e12551cfcd3504e2cd0c45c3fef9bb00c5155d7834475ecb77c27ad03043299601c5b12f2dd5e4022deca5231e195be025f5bd98d4a7be2b97229a30d0a3c97621e5910f0df5c4220dcc85033e397bc005d59db8f4879e0bb702ba10f083e9564185f16f6d95a4426dace5635e591ba065b5fdd894e7fe6bd762da7090e3893661a5d14f4db584624d8cc5437e793b804595ddf8b4c7de4bf742fa50b0c3a916814531afad556482ad6c25a39e99db60a5753d1854273eab17a21ab0502349f6a165118f8d7544a28d4c0583beb9fb4085551d3874071e8b37823a90700369d6c10571efed1524c2ed2c65e3ded99b20e5357d5814677eeb57e25af0106309b6e12551cfcd3504e2cd0c45c3fef9bb00c5155d7834475ecb77c27ad03043299601c5b12f2dd5e4022deca5231e195be025f5bd98d4a7be2b97229a30d0a3c97621e5910f0df5c4220dcc85033e397bc005d59db8f4879e0bb702ba10f083e9564185f16f6d95a4426dace5635e591ba065b5fdd894e7fe6bd762da7090e3893661a5d14f4db584624d8cc5437e793b804595ddf8b4c7de4bf742fa50b0c3a916814531afad556482ad6c25a39e99db60a5753d1854273eab17a21ab0502349f6a165118f8d7544a28d4c0583beb9fb4085551d3874071e8b37823a90700369d6c10571efed1524c2ed2c65e3ded99b20e5357d5814677eeb57e25af0106309b6e12551cfcd3504e2cd0c45c3fef9bb00c5155d7834475ecb77c27ad03043299601c5b12f2dd5e4022deca5231e195be025f5bd98d4a7be2b97229a30d0a3c97621e5910f0df5c4220dcc85033e397bc005d59db8f4879e0bb702ba10f083e9564185f16f6d95a4426dace5635e591ba065b5fdd894e7fe6bd762da7090e3893661a5d14f4db584624d8cc5437e793b804595ddf8b4c7de4bf742fa50b0c3a916814531afad556482ad6c25a39e99db60a5753d1854273eab17a21ab0502349f6a165118f8d7544a28d4c0583beb9fb4085551d3874071e8b37823a90700369d6c10571efed1524c2ed2c65e3ded99b20e5357d5814677eeb57e25af0106309b6e12551cfcd3504e2cd0c45c3fef9bb00c5155d7834475ecb77c27ad03043299601c5b12f2dd5e4022deca5231e195be0f7a8d03139fe36bf984b2bd307b7ec042ce1bb09d22538b0f699e0a26bdb739902fd75096d26c66584fe65a2977d4edb009d25a328eac778dfdfa6ee9044fce784c365fdb8358ce6a39d8b71492a647d9ea094c1b15cd44b629a467c88a82adf95056f9b7517c428d981816cabdc65021174ae30fe3e1d605701726c127bed9d4d55b89ada90140c6b1e1643d587b28fe5ef257adcfef8eb80ea61ef1a4fb2bd762f58c718b7683fb969970d946c322264ffbabb37fc31c14776ec34e2859ae260e07cc7d406ddd3f1c05938ab4ea6786d6b17b342636504dd37c3f750496013f4e7f9d0e3a23339cd8cb813e42586194bcf3c0b1b16a44ae1f419812f315bef72cacb36d75f08bd1e4e5e15b28e3b60c62c45f2af8f14de15bc601fd5357a917f1d4bc98234df93f84bcacec7b6ece4ea0a8dc9c564cb2c73267c5a689ff721f8216a76806a0d635a1a7f5a5f3f6c105551ec638b4cb1d79f60462da769da3b354e139045a69ca477890a92d027fd131256601dc484fb9ba91d6a674f1cb67ce1d6502c7b453858c9ed81e70189c65ea356dbcfe75040beef353859ab40ef0bee9bb65569ffcfe96e2eb4e020222ff9a90066639f11081d225ead7dd67a16fe82d6ef846f23c45b59e2ae1cf0b351cbc64cbb5ac5d53b80f1b6d5151bf1a35ebdbd8f79862e4a1f05960fecee08fe96a7c311b69190991dabf3ff04ddb82884fc5a28cb5dbd40be421e8f4dc0f1e9fdf798ae63117e4873d7f684d0773caa451e6d45e410c4fad9021e63a5c8616b11cd2c148a28d795df97294abaf0f11f6790bea8087089988e2968318c49007f0d9be88e12c20f7daca75638262f302bcb28d02127d77b2677392848e4d97254eaf7d57ee951e263a177392e46f3762cd0f3d84da0efc53f5e390518a6d430fb899f296f8924fd979858f752d251abbfe4de57e899f87cac02caba4146e77b16e8e85578c1eec34151b4209351c3c57b4cbd73f927f978f6fd2b6b1157dbfd96e5a1ac9dcd65f95438b1d09bdd0ff3171ff529a65a2974a440dac3ff2d7c051700d78a04f196ad9fc11cd11a587f1a66eb512d07e2a3ef81458e102fba005d1526afa31c9bc3352448e2453d17a959675636bffb46ebc418cdce5b85b661a4b83022a00259a27a8ce3dc89216fbbb7e423d2c568aa3f8b2f6cf5d9ad18181329ad15b71e0ab93feeef38ce531d7a5479ff791d392703c2a90598cbac1d7515d3105eb0a6fc03270901e0cac4ed2b00249eff29b7a175e457b0417acb92479a37cd92d584221a11d6c4e7ca97ecb707810fc625bb2e6c195c5a1a50e73fe75ec9b720a87af2df1246748fd3478300396c9c9d4cd8393aecd31153b68d4bc75dbad30841e6200412e46aa3ef8885a31d242c6c2733879af2ffb00ccf98ae9a189f1386421c026919f911ed23a7a6e83853b0cb10755cfce912a4a8eef2abefe5b2945a1cb17ae6cc62546a42e5e49184cf9c3c03869f4f10e6c60ca1ef3493fe4e9249a7ef74cb8cada2dad5f6df254a3289988e7acab6e2f4abb34a4f9f14bee37dff5938f9c07525109445d041d476298598a0f81ecd3896419043b13a8250cebee4c3323c23280f77406cda0ae0ba885311dc0d5cda5694aaf6970951860b014b4c53d2074184a868cf5f76c51e2c267d73ed2f0a48a216039daa8c2053afe94c7d655aaaf8f9836387b4e3a19d964c2a76efad6cafe61ea3a1c310152354d59dbec13c8a945556d8eae8c9ecff480ed02835028741836a8833e0f780c97e72a60444f19a1ac01e1725221052891cb8c27e59ce70a52268b73714e17523e0e0fe598ad566e5df884975b6285e23d05ffea34e98f982525131732026cc745295af27a6723909fc1e82267a5a3a396e4c5993923da955e0d457203432bccfca88e0897bf8333b12ca17b9bf6a02a114ae2b4b26cadd779e6d607193c912c83721c0ebb2c25cb4ef31a0f789318fe0b30f2680be53a60dd44a3055089b129eb305b8a46b67ac2f7b561ac3fcdf867436f68d242df8391dd0b025e7c06bbf791ae2e5124c1e343055691de0c892f2449a6778151afbed86b5190fb24d01201e96e740efe21554e1e791ac240185341b3e9e97485a1cdb6968c25b7dbcb88a32fd8b7d53640ff1888bc3b874950904c345ed32a45c1657ae2124a87f082e28a63c38aef4d802214775cd6bc19dffd9a9989bc03a90b362abf5061374a33cd5f8217c1a3440ad94d3e1a05c484f7ca624527b8e65f6c749d482589a6f5b41ab3ffc7c0961cacb8b23737ed990b643d99e5f00b6d4dc0467fdd711ad8ca6642b97745412f743bcf9d02bce394856dbb411b73408a007897b0db5d42bf0ae2e910c5d0f4008cab1818b038d950cb502a923aa02e45dc8cc10c770385179d34d345d0c4add4e625f67a2f37940b94b0de1b8376086bc5c32af4de710ba8b0367ae1d400e0534817c7497d0803eccc2e3c6534b6c8a51268754182f3cf7da9d6bdc02838ee459c424bae32a2d86fd1e1f365cc59725e093967fda97fe961172700746a753cc91b0b523b6ee88f94805a6f585bd70b8bde9342ef3cf36463febac3c0fc98c63bff6b8ee44593f09967748b2b5841f313a216c42328a267fce6a8450b0f3a29b3a62511958e5982d2972190b5408a10ff56b190e410d6d0e09f15f2cd523ca6c03f0a35195daddbc898dcd883e7294bb3a4dc29905b3d91036d9335b9e9bda4d8450616f12f41aa9b2106d0fb3ec8d158fcf9fbfa76aeea7f6bf93be9c351faf02bc1b886c92183ce43d678549c4007e9d4c5f04100dd9457798f151e53bd36f44ff0e2b631cd763a0b2d4a568849337344fd7c0f79d028d6b1da58881c8f06161004c90d26556fada7942415d9673d397e52b96916c626a7f10086587576f183ab6def1dcd199e055dee956fb36f661a059052ece6e759c9e4f5b2f2346efd3ce3a5c87b1241e6dc26326a304e5cd39c26b7668096db8561c5f9df58c295186fe0b0dd435b55ae721f7d71e2bf1d155678603c00b62fe24b83fca2ec91ae777d35a867ca410edb640cf66f03d5dbdbfa6fd64ca78ad89cd7ef94b448eff096050229f34451a600fe50e2db88ba86ea6ac54561616872ee81131bea293f1e6f95448e20af49929f2d75c43f61b86350e984b9c5a8b7e60f659858a9cdec2258493cfaf6b9281146dee55260b53149d5669fffdad5d5ac4b9bd23bbaa701c5f5a8bc157b278fc5492f38483d49c448aebe468646ceb63321ec71b7fbf5533f03b38009d06ceef51c39aef4950af954632712618b871dab304da7bb2302c1179bbcd5eb2ab1ee237cec7c388c065ed959b02792a750a1b2d3447578f969db8cbd5e1e200080b13141b2e454a5cbabde4f3000f18538c9aa8b3c7eafd0315474e577a8c969dc0c7f400000000000000000000000000000000000000000000000000000000000e1c273301fd2105007a1b27720cfce4584342aa1546e2624ce2c1695c27c17bc8a3bcb69ab88e1640c09d14212b57c2cd571da6e77c9d9154ea11476523aae0b244ca38b06ab1524843b96acb8b65be60cf49bc60b8faff63beab39dbaa0a308ab449c4c19960594037f886bd0d5c6d8c260219f00b090e3d753a9a688b3349e4ec6e0fa7da0e2fa07df1819e6615127a4e79bae7328813ce193f3ae2a47c6d14d2461050023de0ba5c4238c80a8707595e4f67515acf52db164979c49dd30b606b11967d3cdb1c8dfb7f25a894f89dae6bffe414abe09c37aae9e2ef8ed6d475fa45fb6e2180a020c968fb5f31dd14449fd34981a4cd96ab47c9a53107b6128833a7f628dfdd51cab25783027d1169acbb9a3cee102a4fa3c1c8cc7b03acd428105b9c504eb0e763126b8d8d6ef842e4e13ebc55ef731eef422434173dab481bd85c0e357db20a55d84d79ad65792f538d7655ad821e433b95a7e0b83d95c62afae8668f40548a7c3d434fab17601ef269957e1e1b729b6b3a6475f3139799d75730811f13194399cf3a43772973c751d65e873ad244c97b1d146f57a79b2b89116864b05771c308fd572cd97bac95caf2a64b5632945d5f2bf5d7ddf46afc7b1457360809155e31d3d88544ef25e8a44446c4422fba152d72473bc1ae77cdc51fa9a0df685d287454021e02f3d6758c5f7f571b2a2466d293e7d6da1dab598e6d7b5fac81b42521f5cfe5e80b78353122381bd322f03e722c56848406b505af18ae5fb2cff3f96109c3a164bbc1cd5d44e85e5389dcc8b304da639755f790c9b05e75551ac53dfc9e69a86e4c038f94a4a571d9746551246dadca9254c95c8847de095b76bf1548a7f9e5585283c2af610781c13b4d4552d709a25e980b97c53f38e9220fb417e27483b455e7c603f82714d9d8d1ee2c1604a92bcc7ade1dd193698a0bccd6dc3fac67602c844a09346a834c064e9a7cecc10e79e7a1a00eaf373fbc433ba52f847cd68e40ed6d53a6dc1754e11b61fc999c6257c9b0203cd5a77be1b037d6b6fb6735b2bc555609ad70a7b4557b24e0eed084cdb8552b8404eda34ec2aa8dcdcdc9b404c503a626f832d062611ddeb4320a9d0aee8e9b13a8d8762fc6b56d6e3cd317ced917f6d9a6758c723dd60a9b681c56c8347590c20c5bd052a41370c2670efa722cd612ff21eb890ff69016229975d7bc4c8faeae10a6f5cccd75b440d211cf33b58da47189154af0e1fb4ad8a8cc58ad2a08c44e192dfd0005a4a266137fee8ca680719284eca6cd95f88102ca09495c4957b0c90bddc9eac06e70437a876ce8d97873380cec81f94319422698cf27d9bf5f1e10820ed92f4feb07461eb6a8eac833a74d87a4087c97d4af81bdd7cb239bab52819ad01b80b41caac1965c57caa4af7a5c1189e18d77a4055a896452a86a0ce87d9898986eeb9e355d01830df9c02c9c164baa24bf9421b51c49c5293841d9c21b8f5bcc1e8f870930d1cb71a34b0a2eaa633b49685087997ab71a293621fbe39eb4ff8facc744eba3e81c72f8883885d5ea06e1b560d68e14754ef0a095a968f7f953bc6bf0afeebe565f54b712bddff7f643570de172a8f02c03490e12b3d8f3af928aff10ce0cc665e82bb07d296392aeec711cb72227a36bb20d884cddc4dbaf3bdd8d4d01e58f48d3b9cd51b023576f3ea03923402d6c4cfc3d50ac444fbc47455691d4cdcd3c3f4d6f8f9bd887235c4820e818f62c6909325d3804074e7ebe4874de35cc4cc3ae73f32b0d91e74bf3364ac20446a01f6cc3342abd4dac740be2e68a86ba3e03b0263b69529ff778d09000dd67750cf859c3ae47642ff079533bee847a7537593c78000000",
  "txid": "115ae9a9c058f5d61f9838653c9259813418d7e84a6c1923c183221470cf5019",
  "hash": "3bab274ef55d43e49e62e31078f2a64bcdff9f5645991a44ca8f395b3199ca63",
  "size": 5085,
  "vsize": 2278,
  "version": 1,
  "locktime": 120,
  "vin": [
    {
      "txid": "8259b9235ab951219dcb07f317b9599f8d6cd779fb053f269573a7d1b92ea6aa",
      "vout": 1,
      "scriptSig": {
        "asm": "",
        "hex": ""
      },
      "txinwitness": [
        "6d26c66584fe65a2977d4edb009d25a328eac778dfdfa6ee9044fce784c365fdb8358ce6a39d8b71492a647d9ea094c1b15cd44b629a467c88a82adf95056f9b7517c428d981816cabdc65021174ae30fe3e1d605701726c127bed9d4d55b89ada90140c6b1e1643d587b28fe5ef257adcfef8eb80ea61ef1a4fb2bd762f58c718b7683fb969970d946c322264ffbabb37fc31c14776ec34e2859ae260e07cc7d406ddd3f1c05938ab4ea6786d6b17b342636504dd37c3f750496013f4e7f9d0e3a23339cd8cb813e42586194bcf3c0b1b16a44ae1f419812f315bef72cacb36d75f08bd1e4e5e15b28e3b60c62c45f2af8f14de15bc601fd5357a917f1d4bc98234df93f84bcacec7b6ece4ea0a8dc9c564cb2c73267c5a689ff721f8216a76806a0d635a1a7f5a5f3f6c105551ec638b4cb1d79f60462da769da3b354e139045a69ca477890a92d027fd131256601dc484fb9ba91d6a674f1cb67ce1d6502c7b453858c9ed81e70189c65ea356dbcfe75040beef353859ab40ef0bee9bb65569ffcfe96e2eb4e020222ff9a90066639f11081d225ead7dd67a16fe82d6ef846f23c45b59e2ae1cf0b351cbc64cbb5ac5d53b80f1b6d5151bf1a35ebdbd8f79862e4a1f05960fecee08fe96a7c311b69190991dabf3ff04ddb82884fc5a28cb5dbd40be421e8f4dc0f1e9fdf798ae63117e4873d7f684d0773caa451e6d45e410c4fad9021e63a5c8616b11cd2c148a28d795df97294abaf0f11f6790bea8087089988e2968318c49007f0d9be88e12c20f7daca75638262f302bcb28d02127d77b2677392848e4d97254eaf7d57ee951e263a177392e46f3762cd0f3d84da0efc53f5e390518a6d430fb899f296f8924fd979858f752d251abbfe4de57e899f87cac02caba4146e77b16e8e85578c1eec34151b4209351c3c57b4cbd73f927f978f6fd2b6b1157dbfd96e5a1ac9dcd65f95438b1d09bdd0ff3171ff529a65a2974a440dac3ff2d7c051700d78a04f196ad9fc11cd11a587f1a66eb512d07e2a3ef81458e102fba005d1526afa31c9bc3352448e2453d17a959675636bffb46ebc418cdce5b85b661a4b83022a00259a27a8ce3dc89216fbbb7e423d2c568aa3f8b2f6cf5d9ad18181329ad15b71e0ab93feeef38ce531d7a5479ff791d392703c2a90598cbac1d7515d3105eb0a6fc03270901e0cac4ed2b00249eff29b7a175e457b0417acb92479a37cd92d584221a11d6c4e7ca97ecb707810fc625bb2e6c195c5a1a50e73fe75ec9b720a87af2df1246748fd3478300396c9c9d4cd8393aecd31153b68d4bc75dbad30841e6200412e46aa3ef8885a31d242c6c2733879af2ffb00ccf98ae9a189f1386421c026919f911ed23a7a6e83853b0cb10755cfce912a4a8eef2abefe5b2945a1cb17ae6cc62546a42e5e49184cf9c3c03869f4f10e6c60ca1ef3493fe4e9249a7ef74cb8cada2dad5f6df254a3289988e7acab6e2f4abb34a4f9f14bee37dff5938f9c07525109445d041d476298598a0f81ecd3896419043b13a8250cebee4c3323c23280f77406cda0ae0ba885311dc0d5cda5694aaf6970951860b014b4c53d2074184a868cf5f76c51e2c267d73ed2f0a48a216039daa8c2053afe94c7d655aaaf8f9836387b4e3a19d964c2a76efad6cafe61ea3a1c310152354d59dbec13c8a945556d8eae8c9ecff480ed02835028741836a8833e0f780c97e72a60444f19a1ac01e1725221052891cb8c27e59ce70a52268b73714e17523e0e0fe598ad566e5df884975b6285e23d05ffea34e98f982525131732026cc745295af27a6723909fc1e82267a5a3a396e4c5993923da955e0d457203432bccfca88e0897bf8333b12ca17b9bf6a02a114ae2b4b26cadd779e6d607193c912c83721c0ebb2c25cb4ef31a0f789318fe0b30f2680be53a60dd44a3055089b129eb305b8a46b67ac2f7b561ac3fcdf867436f68d242df8391dd0b025e7c06bbf791ae2e5124c1e343055691de0c892f2449a6778151afbed86b5190fb24d01201e96e740efe21554e1e791ac240185341b3e9e97485a1cdb6968c25b7dbcb88a32fd8b7d53640ff1888bc3b874950904c345ed32a45c1657ae2124a87f082e28a63c38aef4d802214775cd6bc19dffd9a9989bc03a90b362abf5061374a33cd5f8217c1a3440ad94d3e1a05c484f7ca624527b8e65f6c749d482589a6f5b41ab3ffc7c0961cacb8b23737ed990b643d99e5f00b6d4dc0467fdd711ad8ca6642b97745412f743bcf9d02bce394856dbb411b73408a007897b0db5d42bf0ae2e910c5d0f4008cab1818b038d950cb502a923aa02e45dc8cc10c770385179d34d345d0c4add4e625f67a2f37940b94b0de1b8376086bc5c32af4de710ba8b0367ae1d400e0534817c7497d0803eccc2e3c6534b6c8a51268754182f3cf7da9d6bdc02838ee459c424bae32a2d86fd1e1f365cc59725e093967fda97fe961172700746a753cc91b0b523b6ee88f94805a6f585bd70b8bde9342ef3cf36463febac3c0fc98c63bff6b8ee44593f09967748b2b5841f313a216c42328a267fce6a8450b0f3a29b3a62511958e5982d2972190b5408a10ff56b190e410d6d0e09f15f2cd523ca6c03f0a35195daddbc898dcd883e7294bb3a4dc29905b3d91036d9335b9e9bda4d8450616f12f41aa9b2106d0fb3ec8d158fcf9fbfa76aeea7f6bf93be9c351faf02bc1b886c92183ce43d678549c4007e9d4c5f04100dd9457798f151e53bd36f44ff0e2b631cd763a0b2d4a568849337344fd7c0f79d028d6b1da58881c8f06161004c90d26556fada7942415d9673d397e52b96916c626a7f10086587576f183ab6def1dcd199e055dee956fb36f661a059052ece6e759c9e4f5b2f2346efd3ce3a5c87b1241e6dc26326a304e5cd39c26b7668096db8561c5f9df58c295186fe0b0dd435b55ae721f7d71e2bf1d155678603c00b62fe24b83fca2ec91ae777d35a867ca410edb640cf66f03d5dbdbfa6fd64ca78ad89cd7ef94b448eff096050229f34451a600fe50e2db88ba86ea6ac54561616872ee81131bea293f1e6f95448e20af49929f2d75c43f61b86350e984b9c5a8b7e60f659858a9cdec2258493cfaf6b9281146dee55260b53149d5669fffdad5d5ac4b9bd23bbaa701c5f5a8bc157b278fc5492f38483d49c448aebe468646ceb63321ec71b7fbf5533f03b38009d06ceef51c39aef4950af954632712618b871dab304da7bb2302c1179bbcd5eb2ab1ee237cec7c388c065ed959b02792a750a1b2d3447578f969db8cbd5e1e200080b13141b2e454a5cbabde4f3000f18538c9aa8b3c7eafd0315474e577a8c969dc0c7f400000000000000000000000000000000000000000000000000000000000e1c273301",
        "007a1b27720cfce4584342aa1546e2624ce2c1695c27c17bc8a3bcb69ab88e1640c09d14212b57c2cd571da6e77c9d9154ea11476523aae0b244ca38b06ab1524843b96acb8b65be60cf49bc60b8faff63beab39dbaa0a308ab449c4c19960594037f886bd0d5c6d8c260219f00b090e3d753a9a688b3349e4ec6e0fa7da0e2fa07df1819e6615127a4e79bae7328813ce193f3ae2a47c6d14d2461050023de0ba5c4238c80a8707595e4f67515acf52db164979c49dd30b606b11967d3cdb1c8dfb7f25a894f89dae6bffe414abe09c37aae9e2ef8ed6d475fa45fb6e2180a020c968fb5f31dd14449fd34981a4cd96ab47c9a53107b6128833a7f628dfdd51cab25783027d1169acbb9a3cee102a4fa3c1c8cc7b03acd428105b9c504eb0e763126b8d8d6ef842e4e13ebc55ef731eef422434173dab481bd85c0e357db20a55d84d79ad65792f538d7655ad821e433b95a7e0b83d95c62afae8668f40548a7c3d434fab17601ef269957e1e1b729b6b3a6475f3139799d75730811f13194399cf3a43772973c751d65e873ad244c97b1d146f57a79b2b89116864b05771c308fd572cd97bac95caf2a64b5632945d5f2bf5d7ddf46afc7b1457360809155e31d3d88544ef25e8a44446c4422fba152d72473bc1ae77cdc51fa9a0df685d287454021e02f3d6758c5f7f571b2a2466d293e7d6da1dab598e6d7b5fac81b42521f5cfe5e80b78353122381bd322f03e722c56848406b505af18ae5fb2cff3f96109c3a164bbc1cd5d44e85e5389dcc8b304da639755f790c9b05e75551ac53dfc9e69a86e4c038f94a4a571d9746551246dadca9254c95c8847de095b76bf1548a7f9e5585283c2af610781c13b4d4552d709a25e980b97c53f38e9220fb417e27483b455e7c603f82714d9d8d1ee2c1604a92bcc7ade1dd193698a0bccd6dc3fac67602c844a09346a834c064e9a7cecc10e79e7a1a00eaf373fbc433ba52f847cd68e40ed6d53a6dc1754e11b61fc999c6257c9b0203cd5a77be1b037d6b6fb6735b2bc555609ad70a7b4557b24e0eed084cdb8552b8404eda34ec2aa8dcdcdc9b404c503a626f832d062611ddeb4320a9d0aee8e9b13a8d8762fc6b56d6e3cd317ced917f6d9a6758c723dd60a9b681c56c8347590c20c5bd052a41370c2670efa722cd612ff21eb890ff69016229975d7bc4c8faeae10a6f5cccd75b440d211cf33b58da47189154af0e1fb4ad8a8cc58ad2a08c44e192dfd0005a4a266137fee8ca680719284eca6cd95f88102ca09495c4957b0c90bddc9eac06e70437a876ce8d97873380cec81f94319422698cf27d9bf5f1e10820ed92f4feb07461eb6a8eac833a74d87a4087c97d4af81bdd7cb239bab52819ad01b80b41caac1965c57caa4af7a5c1189e18d77a4055a896452a86a0ce87d9898986eeb9e355d01830df9c02c9c164baa24bf9421b51c49c5293841d9c21b8f5bcc1e8f870930d1cb71a34b0a2eaa633b49685087997ab71a293621fbe39eb4ff8facc744eba3e81c72f8883885d5ea06e1b560d68e14754ef0a095a968f7f953bc6bf0afeebe565f54b712bddff7f643570de172a8f02c03490e12b3d8f3af928aff10ce0cc665e82bb07d296392aeec711cb72227a36bb20d884cddc4dbaf3bdd8d4d01e58f48d3b9cd51b023576f3ea03923402d6c4cfc3d50ac444fbc47455691d4cdcd3c3f4d6f8f9bd887235c4820e818f62c6909325d3804074e7ebe4874de35cc4cc3ae73f32b0d91e74bf3364ac20446a01f6cc3342abd4dac740be2e68a86ba3e03b0263b69529ff778d09000dd67750cf859c3ae47642ff079533bee847a7537593c"
      ],
      "sequence": 4294967294
    }
  ],
  "vout": [
    {
      "value": 499976.6113,
      "n": 0,
      "scriptPubKey": {
        "asm": "1 ba6e27feafdd1f5e385b9943a2788e930517a79d120192c070f95dbd1a152ca2",
        "hex": "5120ba6e27feafdd1f5e385b9943a2788e930517a79d120192c070f95dbd1a152ca2",
        "reqSigs": 1,
        "type": "witness_v1_scripthash",
        "addresses": [
          "3QJmnh"
        ]
      }
    },
    {
      "value": 1.0,
      "n": 1,
      "scriptPubKey": {
        "asm": "OP_RETURN efd27313ed6b496894d30b9d95822c9b658cada98056306c309dfe59b1d8b181 814531afad556482ad6c25a39e99db60a5753d1854273eab17a21ab0502349f6a165118f8d7544a28d4c0583beb9fb4085551d3874071e8b37823a90700369d6c10571efed1524c2ed2c65e3ded99b20e5357d5814677eeb57e25af0106309b6e12551cfcd3504e2cd0c45c3fef9bb00c5155d7834475ecb77c27ad03043299601c5b12f2dd5e4022deca5231e195be025f5bd98d4a7be2b97229a30d0a3c97621e5910f0df5c4220dcc85033e397bc005d59db8f4879e0bb702ba10f083e9564185f16f6d95a4426dace5635e591ba065b5fdd894e7fe6bd762da7090e3893661a5d14f4db584624d8cc5437e793b804595ddf8b4c7de4bf742fa50b0c3a916814531afad556482ad6c25a39e99db60a5753d1854273eab17a21ab0502349f6a165118f8d7544a28d4c0583beb9fb4085551d3874071e8b37823a90700369d6c10571efed1524c2ed2c65e3ded99b20e5357d5814677eeb57e25af0106309b6e12551cfcd3504e2cd0c45c3fef9bb00c5155d7834475ecb77c27ad03043299601c5b12f2dd5e4022deca5231e195be025f5bd98d4a7be2b97229a30d0a3c97621e5910f0df5c4220dcc85033e397bc005d59db8f4879e0bb702ba10f083e9564185f16f6d95a4426dace5635e591ba065b5fdd894e7fe6bd762da7090e3893661a5d14f4db584624d8cc5437e793b804595ddf8b4c7de4bf742fa50b0c3a916814531afad556482ad6c25a39e99db60a5753d1854273eab17a21ab0502349f6a165118f8d7544a28d4c0583beb9fb4085551d3874071e8b37823a90700369d6c10571efed1524c2ed2c65e3ded99b20e5357d5814677eeb57e25af0106309b6e12551cfcd3504e2cd0c45c3fef9bb00c5155d7834475ecb77c27ad03043299601c5b12f2dd5e4022deca5231e195be025f5bd98d4a7be2b97229a30d0a3c97621e5910f0df5c4220dcc85033e397bc005d59db8f4879e0bb702ba10f083e9564185f16f6d95a4426dace5635e591ba065b5fdd894e7fe6bd762da7090e3893661a5d14f4db584624d8cc5437e793b804595ddf8b4c7de4bf742fa50b0c3a916814531afad556482ad6c25a39e99db60a5753d1854273eab17a21ab0502349f6a165118f8d7544a28d4c0583beb9fb4085551d3874071e8b37823a90700369d6c10571efed1524c2ed2c65e3ded99b20e5357d5814677eeb57e25af0106309b6e12551cfcd3504e2cd0c45c3fef9bb00c5155d7834475ecb77c27ad03043299601c5b12f2dd5e4022deca5231e195be025f5bd98d4a7be2b97229a30d0a3c97621e5910f0df5c4220dcc85033e397bc005d59db8f4879e0bb702ba10f083e9564185f16f6d95a4426dace5635e591ba065b5fdd894e7fe6bd762da7090e3893661a5d14f4db584624d8cc5437e793b804595ddf8b4c7de4bf742fa50b0c3a916814531afad556482ad6c25a39e99db60a5753d1854273eab17a21ab0502349f6a165118f8d7544a28d4c0583beb9fb4085551d3874071e8b37823a90700369d6c10571efed1524c2ed2c65e3ded99b20e5357d5814677eeb57e25af0106309b6e12551cfcd3504e2cd0c45c3fef9bb00c5155d7834475ecb77c27ad03043299601c5b12f2dd5e4022deca5231e195be0f7a8d03139fe36bf984b2bd307b7ec042ce1bb09d22538b0f699e0a26bdb7399",
        "hex": "6a20efd27313ed6b496894d30b9d95822c9b658cada98056306c309dfe59b1d8b1814db004814531afad556482ad6c25a39e99db60a5753d1854273eab17a21ab0502349f6a165118f8d7544a28d4c0583beb9fb4085551d3874071e8b37823a90700369d6c10571efed1524c2ed2c65e3ded99b20e5357d5814677eeb57e25af0106309b6e12551cfcd3504e2cd0c45c3fef9bb00c5155d7834475ecb77c27ad03043299601c5b12f2dd5e4022deca5231e195be025f5bd98d4a7be2b97229a30d0a3c97621e5910f0df5c4220dcc85033e397bc005d59db8f4879e0bb702ba10f083e9564185f16f6d95a4426dace5635e591ba065b5fdd894e7fe6bd762da7090e3893661a5d14f4db584624d8cc5437e793b804595ddf8b4c7de4bf742fa50b0c3a916814531afad556482ad6c25a39e99db60a5753d1854273eab17a21ab0502349f6a165118f8d7544a28d4c0583beb9fb4085551d3874071e8b37823a90700369d6c10571efed1524c2ed2c65e3ded99b20e5357d5814677eeb57e25af0106309b6e12551cfcd3504e2cd0c45c3fef9bb00c5155d7834475ecb77c27ad03043299601c5b12f2dd5e4022deca5231e195be025f5bd98d4a7be2b97229a30d0a3c97621e5910f0df5c4220dcc85033e397bc005d59db8f4879e0bb702ba10f083e9564185f16f6d95a4426dace5635e591ba065b5fdd894e7fe6bd762da7090e3893661a5d14f4db584624d8cc5437e793b804595ddf8b4c7de4bf742fa50b0c3a916814531afad556482ad6c25a39e99db60a5753d1854273eab17a21ab0502349f6a165118f8d7544a28d4c0583beb9fb4085551d3874071e8b37823a90700369d6c10571efed1524c2ed2c65e3ded99b20e5357d5814677eeb57e25af0106309b6e12551cfcd3504e2cd0c45c3fef9bb00c5155d7834475ecb77c27ad03043299601c5b12f2dd5e4022deca5231e195be025f5bd98d4a7be2b97229a30d0a3c97621e5910f0df5c4220dcc85033e397bc005d59db8f4879e0bb702ba10f083e9564185f16f6d95a4426dace5635e591ba065b5fdd894e7fe6bd762da7090e3893661a5d14f4db584624d8cc5437e793b804595ddf8b4c7de4bf742fa50b0c3a916814531afad556482ad6c25a39e99db60a5753d1854273eab17a21ab0502349f6a165118f8d7544a28d4c0583beb9fb4085551d3874071e8b37823a90700369d6c10571efed1524c2ed2c65e3ded99b20e5357d5814677eeb57e25af0106309b6e12551cfcd3504e2cd0c45c3fef9bb00c5155d7834475ecb77c27ad03043299601c5b12f2dd5e4022deca5231e195be025f5bd98d4a7be2b97229a30d0a3c97621e5910f0df5c4220dcc85033e397bc005d59db8f4879e0bb702ba10f083e9564185f16f6d95a4426dace5635e591ba065b5fdd894e7fe6bd762da7090e3893661a5d14f4db584624d8cc5437e793b804595ddf8b4c7de4bf742fa50b0c3a916814531afad556482ad6c25a39e99db60a5753d1854273eab17a21ab0502349f6a165118f8d7544a28d4c0583beb9fb4085551d3874071e8b37823a90700369d6c10571efed1524c2ed2c65e3ded99b20e5357d5814677eeb57e25af0106309b6e12551cfcd3504e2cd0c45c3fef9bb00c5155d7834475ecb77c27ad03043299601c5b12f2dd5e4022deca5231e195be0f7a8d03139fe36bf984b2bd307b7ec042ce1bb09d22538b0f699e0a26bdb7399",
        "type": "nulldata"
      }
    }
  ],
  "blockhash": "0125d69e6984563ac74cb1b0b8601a67b424e71230e7918fa710584dbb11162a",
  "confirmations": 1,
  "time": 1764180090,
  "blocktime": 1764180090
}