{
  "hex": "010000000001019bb4f5dfc9d2e685e3a7f7c190a6d034ba5bc150a00689e5223c868504792db40100000000feffffff0200e1f50500000000fdd5046a2025b6ec6e11678fe677adc828d19c4e2ca2b8da32b175a7ac8414f7c414e188244db004988510c42f34b460b31f0eb5b2758830fdf7222b808d9a9066c3083209da04efb8a530e40f149440933f2e959255a810ddd7020ba0adbab046e3281229fa24cfd8c550846f74f420f35f4ef5f235c870bdb7626bc0cddad026834872499a44aff8e570a44f54d400d37f6ed5d215e8509d97424be0edfaf006a3685269ba648f18059044afb434e0339f8e3532f508b07d77a2ab000d1a10e64388b2895a846f3825b0648f9414c013bfae1512d528905d57828b202d3a30c663a892a97aa44f5845d004eff474a073dfce7572b548f03d37e2eb404d5a50a603c8f2c91ac42f7865f024cfd4548053ffee55529568d01d17c2cb606d7a708623e8d2e93ae40f988510c42f34b460b31f0eb5b2758830fdf7222b808d9a9066c3083209da04efb8a530e40f149440933f2e959255a810ddd7020ba0adbab046e3281229fa24cfd8c550846f74f420f35f4ef5f235c870bdb7626bc0cddad026834872499a44aff8e570a44f54d400d37f6ed5d215e8509d97424be0edfaf006a3685269ba648f18059044afb434e0339f8e3532f508b07d77a2ab000d1a10e64388b2895a846f3825b0648f9414c013bfae1512d528905d57828b202d3a30c663a892a97aa44f5845d004eff474a073dfce7572b548f03d37e2eb404d5a50a603c8f2c91ac42f7865f024cfd4548053ffee55529568d01d17c2cb606d7a708623e8d2e93ae40f988510c42f34b460b31f0eb5b2758830fdf7222b808d9a9066c3083209da04efb8a530e40f149440933f2e959255a810ddd7020ba0adbab046e3281229fa24cfd8c550846f74f420f35f4ef5f235c870bdb7626bc0cddad026834872499a44aff8e570a44f54d400d37f6ed5d215e8509d97424be0edfaf006a3685269ba648f18059044afb434e0339f8e3532f508b07d77a2ab000d1a10e64388b2895a846f3825b0648f9414c013bfae1512d528905d57828b202d3a30c663a892a97aa44f5845d004eff474a073dfce7572b548f03d37e2eb404d5a50a603c8f2c91ac42f7865f024cfd4548053ffee55529568d01d17c2cb606d7a708623e8d2e93ae40f988510c42f34b460b31f0eb5b2758830fdf7222b808d9a9066c3083209da04efb8a530e40f149440933f2e959255a810ddd7020ba0adbab046e3281229fa24cfd8c550846f74f420f35f4ef5f235c870bdb7626bc0cddad026834872499a44aff8e570a44f54d400d37f6ed5d215e8509d97424be0edfaf006a3685269ba648f18059044afb434e0339f8e3532f508b07d77a2ab000d1a10e64388b2895a846f3825b0648f9414c013bfae1512d528905d57828b202d3a30c663a892a97aa44f5845d004eff474a073dfce7572b548f03d37e2eb404d5a50a603c8f2c91ac42f7865f024cfd4548053ffee55529568d01d17c2cb606d7a708623e8d2e93ae40f988510c42f34b460b31f0eb5b2758830fdf7222b808d9a9066c3083209da04efb8a530e40f149440933f2e959255a810ddd7020ba0adbab046e3281229fa24cfd8c550846f74f420f35f4ef5f235c870bdb7626bc0cddad026834872499a44aff8e570a44f54d400d37f6ed5d215e8509d97424be0edfaf006a3685269ba648f18059044afb434e0339f8e3532f508b04ee317722d592cd0524aabbaaf02816f7727eba3c0000866539b09f7f37b3178a020df63792d000022512007faa281df471de954a1b16b8958690026f3bb249fd19e60f3fec04d06e3dd8f02fd75099efed651c29f22f84d457c1e3bf55cb87c544a0e337dc137a49806f9b0fbb6e1812f8422c76ab0bd39cf35453e3a5f6d618bd8690518223e4e545b70b6515a43f94b58af81e9e913d5eecd044f7a2464711564bb9d438e58c90d034662460b42dcee5cafa8631880238f6e8a43be5358a47d3e8fc089d9f17ac39d470e9f0c6299c1f9f2d260cf91c3ee4a6e160fa0734c3e408a6e9094bc03481321ac7ac09d65fd7828ba79e27fb4098ad9a2f9b736830a5df0099d49ccfc67a02142ee9e6b4dc0ece0ef182d41b1b7a2a6c6ca0ec6ee8b4e40ad15b31a0c7a1ea9ca1648de6338fc6f8e7bbbd74d04fb20e4d89c3b75947586c172fc8b94011ac784f554aa75331848d60238cdc70f5e656913c3e64e7b71e1b860ffb1b82e76a44fa7db062ca1db5cd2babbeed550b66aa3de9f35b6e4b6af517d0d0ada4c719d448f2fb7d7ca89012580882788a8ba48286a01f7273eae3567fc55e6068e9ed56adb5b73b3a127d497eecabf951b02a42db2d10d19eddd2083c8afae0f035c4534f081549d0741d310c4d3baf02a664564e0af081f277775853431b9c226a90e6291780c2db782f7ee59de94b4aa4e4f6271341f509d53e24aa7450454c1485356057e81252e030386a9090c561df589c48259dbd1121563702f9aa24e012b4818ee05c0aaceb27163fcf4bacdeadbeee3cf65e64ab378d6d82f1af0593cfd072a98f02197f49b45485f428f6035bfc55a452ccfc6d383d468a9d4278053d64c7db3ec70b0d345d0caf2b88f80517de75cc8882f204a9fa83e0887dd80a5732138c93fc70c88a863499baba5c423b3184c93924202b5aaf0d5ee4486b33ecad64431abdf15221a825ff61c13e5b0dc9d88aa599ac836d13810e26a0fd59f67f3b1cfccfd8242916416a0d6b6b77f099f8f53b91c797a1cd4bfbea86d194d8ac334d87373cb1fc2949266ab9bd11ca708c15f7fd929fe6bf142140b287cdc3be848f60bce84edca0178228b77d8d64f402933ad5c69ca0f058be938912d5e2b0ac03b09d6a55ce0b5d10be969fd7c5150202ebfc6047fe32dcc3340cdcde989aca3c9b05f015b7e14620a417010b8dc76dcfce325dfff9d86b29c3f84eb5897e96a33bf0d13f27215f032ad995cba8115aa71dfed126772dd491377e08a2c38b7520be60f53f16d4445b02d4b606799b2d7a30bd712a1a5cd76c1ba57a1c886659900d64c70c59653601a0d3f9ba1ba1d4e275d9261b9493455b571eac17bf4083f18daffe8cfda17d95fabad493b18a1ba99b36f42dc3b0124b1b4b66987ed2a9daa644471c4d8d61e072353e698cb829bf96bbfde828afef0d49ba4135f51537c42976d8ccf6d8abb234e5e5ae6997a365a810829eb743e9c657124ef60698bd34a483ac1f93d46e453214db15c3f093920ac23deb3f7522f6b332e674b59acc13dd0c8b10f2a9a6163515bfe21aae168c7bbcdb79981fe6fa64a2b910913c1ca4fcfaa53623c6209b1e5842215565c821b4574b862c7b2c8057b8ac4bb8d7c41b1f69780af1fc90705067c22aef1218c82ecefc03b2cb1b68dc3ef7641eab3b269b9ac908536b856319988b1058b808f26561d46214040d5522917ce47520c2118b1011f402eafedff62ca3dcd52ae1ddf5dd01c253602ef1c5bd46fd43a2b8fad7bc758f58cd14302c98b48271052956d4397f8156ae44d8af31071c9b7cf9aef17c391c3937beb7b3c7a14b459bfcaf1cf5c41eea161ed3f55bcc096a0fae12d832e0289e77edb3f0734b62194c3e531f98a8646c06573bb733741a345c1a416f3d6a13db4a3f5f442d80268cb126048850473a15d0173c190eaca5f99c1b34c5b77ce51cfbda2fe63cd76388ec65c808e3b167e1a63f81636ffafa8dd23d534265b818c8449c32d0b39796baf9b243cb5b3616a86d8e2e8b51d0c8a949220a7bb35a97fa0d75156f53fd85fc100c36d1c255505054d3d871503048c88579921c0d77a45a09c7cfe87f1df8695e561b0d5ddc2c92b45ec493acb0e536f7d7c0d992ef0a02c8bcc1ac62fa2a2291ff799d99c25a0728db6813a836e94f9becef6d897b837a3182910ef42436388dd288acab21436387bc2b1d9d2b8374184c15d7e0637fd167978358a97019013bc0bab86571792259fb7ea56d350f713ca963b00ca481bc6559578e55d9357961a88cdc88847d828c48121b10c861e0f9b7d6b6489d087610fa949af2523bc687a299e096a1616985154cd2e474f310c1b5ad307d8ffcf97e645cabb22822c8fd668a418763b1c2f808b63eb6d451a2982c080fdab14fa32b20e9d0955b23486f89137c884220bf2d51bef5ae8e74bf69b2dbf9c69868e16e529ec15e03d05f76f51d1d16cee05d1ed5ddaf75b70dc7ff74317c353ff17ed59d438a478dfaf26aec0afd1f97d0313924eac2ccefa0f42efed605a28fe69e804bc00506da80c10f991b5f336677a1111d70626b85d29d75338d966b9fd61077184cdceb0517834cd490f632c64d300f4fc4160f0488f51dd2f45f23cb784cbd1027b0830f3b4708d2ffb99c79c114873f188e6aade0495af0488750815d60c845a0e587b0f28218e7164ccbee9cf748d9c06b9e455181bf50c60d681841be6ad51f8a79e93c7f9cef939aa00b72255e3562aeee56692fb0b8ec7b0fa0998f6576984add9e8d8b7295266b15fdd98f82822057c00b8f630f3454505eabea009ed60dfa16079f5413bd283add3c5f7179a8382f9ec9a24b98a65a217294433691a095f2b25be3e47516d7f85aa94a8282516c0c65b51ba59d00007864fd4093e089b18584e6c17d66453216c0b0c9e6a693495018d230be718d6c248c14881df2d74ab66034d7c61576b2fa64896299ef3f8b629b29ca3fabc693b0f4ba378ddde9f6fc3767fac25806e412d05255ccae1b4a0fc281603212aaa3dd4c7b917a002f4fe694e401fcb40d6ec923b862bb1bfad3632b3b8100649c047f769115bf8fc51e405a87840a7908ea2d16aeea2c17385be77902b04162043aa59043671f82466ec7084c0876df05da5fa8bd933e8f509082c782a3aed4a43e1aa33887e8324440c0a9ab2c5a76d45069144737ac5b16af08802ef0db967298daf1727651313f7bc1e15e75ff3ff2d4266f1bcd8bf73a56fe7d35ad5aaf57fa173a4518b66947bd663a5f34164242289849078f84458b40dc65dbf57209af90ec5e496d584135b488f8711e30af2d062c0390d962df903621f9f1f376556ad9a7cd3e66529e03a2c5f3ae82e8f39d1d9d8a6063634d988a6c7b5c242ea440b7ab92800090b253e49617c81a3b7bbd0daddfb00040a12171b466c747794a4a8b8bbe2e9f5010d2d3b3e3f4d51777c838c8f91979aabaeb0c1e816314142498593bed0f80000000000000000000000000000001022374101fd210500e4b59d6274924cd97000adaa0bb6fbff661b0a304c8c11e8a2e2e85844ea55a539a19dfe635a4ea56635f0afac826a56b594a7d9b46ec35825ef146a8c6fc2882837fb43fd8105a0ddf6c92e276ad8b6b15e6d535538e1401e853e35e988aa2a815bb1e3b9f9d54eee9f36b7d8083c4eec0ed2237794dc293771450d64df6dcb358dad161bd771cfc50ae4d5d8f776057e9c77456602ebeeadb612c98488471fc2c77405d686e6919c1fb9c009c0e72508e05e1d05fd3a4c03f9fe2e323458baa6bb42645129a4e962b4074c13008750ffaee4e8c842408f1b5ee1f5e896112692085aa127f511a39c524540c063b4039cec59b2bf49a5d26b67da49f90071699fa8d9932da034729354eeaaaa330aa71e072c0d687dd5f7c47d142594503398abe022a421ea0e4516c4a7617cdad07544667ef4d3dcde6c161a45f186968be445f6e29cd4664c7a18b5ee6a3ae6798211a86523d9a60dd6cca022614efe825c79662ee4a24d75308751ed9e77698e42198832a31147b7baffaa759c823e301f30dfb927713a6cce788ab8293a2562a1c9926d5a603d79afc734a9caa69444335229956b282886cd6ad667b7ab1bfb90d1b7473ad98c6158b46643eadfd3c3d05129285534a39578576ee1ae4e1fdea9c3e009f972f054c365879c0ed6ed35584e029aab5ae988b37070a2a80c5be92a5315f4aec70715a8a7639b0b898832609ea19e1aeaa0f8be4ddf80ba5032673391dd81f87db745afd0b84fdda9f94dc40a44c13a3cb92cf8af0d26b241e978867b8c87f29770b16afa517298763372ad156bee26564e26f6deb151742d6505212fc3bbb93c28137ff1a0d4c0a1090d3b9a816aedd46114bf8584524d7d2b007c38e405a76edb81bb76548fbaac5f6039fa63a1e9d18b3d42a682b2fe10f3affc32244b02e28e68b2cd9c9289a348959672dec0d00df7657575a379b3d1b497c34e0ffd95200a53cc1a637af4261f2e9d40d44c80a036eaa7a11a064a6f08c48d3cb0d65e005ba07eabeadfdaaadd464b572dc838fb0fe55aaa8199ec5cc61039eb017b4c7886e461ef224cc03dfd34cf8a0cdad8e6ec3fc4c4ef05ef3a3eb3c924cceb28d4e924e0e5b5a26499c1bcf71e943bd8531c42b14f16473d5f8b5dc3366f1c7a19da4627bfd880719a3e7aed6272fc7569a984436174e166cee352285a727f0ca75db1626ce144fcf0d70f2141e595bbcfb091ea82c0bd89dfe4b4a0df0494d66669dc037fb32ac3c60d3d2fa85eff82fdb8f532ad59963ce829c9816155a831f2e477e9353903999a82a1208b46c5e24f00d20119b67d9c4e7b24c8c11ccce71231d16bb3dce43e06c6a381561060d6e02737a99b52b75c43494a029bae753d9ac66c151272d183a000efa5d00eb42a4069934264290c23167c092a52a88ad1e610b7482a7be35bd489767899dce795a6b55c623abf9889379aca7bce7cd8149ed435e04d1d0d8abd43a76303b1d3b87e047e5eaa96e67ef5e386d0ec9b158ae7d79f38456cc9d059ae99330b67099bba83ff7b0ada3ed2adb894d2da48288fd2399e7298e94c13a9a20ccff0fc664798452df077bcb2fc3f7c25cd203c4fa02b0617f0ecc02b310e1e643900e99780fa274bd8ce00401cc52ec447a66d7952e510c89bb81528d801df50d63de838202cf41a10194db6d01c8a0ee4828af9815f3964aed5a0006cda51c208f0c808b7effa6930b7e9163af867038c80db9ded9af55e35f4667ffd07af61bf4110663f85783badcfa47895dc5369fc3052634d4d910eb62499f1d1bba6e070706bfe8cc0d7f150f7c20326cdbed99d72a012629eb5b4c25b8b6f42b19ccc2368000000",
  "txid": "118a7ae50289e8fcde48ee0203d71cf693f2aa0ccf49a266ffda866b35bdaf95",
  "hash": "34c5f7faef175871602d59394e31d5ca9ea7923b4daf5bdb46a16209c15fdc75",
  "size": 5085,
  "vsize": 2278,
  "version": 1,
  "locktime": 104,
  "vin": [
    {
      "txid": "b42d790485863c22e58906a050c15bba34d0a690c1f7a7e385e6d2c9dff5b49b",
      "vout": 1,
      "scriptSig": {
        "asm": "",
        "hex": ""
      },
      "txinwitness": [
        "9efed651c29f22f84d457c1e3bf55cb87c544a0e337dc137a49806f9b0fbb6e1812f8422c76ab0bd39cf35453e3a5f6d618bd8690518223e4e545b70b6515a43f94b58af81e9e913d5eecd044f7a2464711564bb9d438e58c90d034662460b42dcee5cafa8631880238f6e8a43be5358a47d3e8fc089d9f17ac39d470e9f0c6299c1f9f2d260cf91c3ee4a6e160fa0734c3e408a6e9094bc03481321ac7ac09d65fd7828ba79e27fb4098ad9a2f9b736830a5df0099d49ccfc67a02142ee9e6b4dc0ece0ef182d41b1b7a2a6c6ca0ec6ee8b4e40ad15b31a0c7a1ea9ca1648de6338fc6f8e7bbbd74d04fb20e4d89c3b75947586c172fc8b94011ac784f554aa75331848d60238cdc70f5e656913c3e64e7b71e1b860ffb1b82e76a44fa7db062ca1db5cd2babbeed550b66aa3de9f35b6e4b6af517d0d0ada4c719d448f2fb7d7ca89012580882788a8ba48286a01f7273eae3567fc55e6068e9ed56adb5b73b3a127d497eecabf951b02a42db2d10d19eddd2083c8afae0f035c4534f081549d0741d310c4d3baf02a664564e0af081f277775853431b9c226a90e6291780c2db782f7ee59de94b4aa4e4f6271341f509d53e24aa7450454c1485356057e81252e030386a9090c561df589c48259dbd1121563702f9aa24e012b4818ee05c0aaceb27163fcf4bacdeadbeee3cf65e64ab378d6d82f1af0593cfd072a98f02197f49b45485f428f6035bfc55a452ccfc6d383d468a9d4278053d64c7db3ec70b0d345d0caf2b88f80517de75cc8882f204a9fa83e0887dd80a5732138c93fc70c88a863499baba5c423b3184c93924202b5aaf0d5ee4486b33ecad64431abdf15221a825ff61c13e5b0dc9d88aa599ac836d13810e26a0fd59f67f3b1cfccfd8242916416a0d6b6b77f099f8f53b91c797a1cd4bfbea86d194d8ac334d87373cb1fc2949266ab9bd11ca708c15f7fd929fe6bf142140b287cdc3be848f60bce84edca0178228b77d8d64f402933ad5c69ca0f058be938912d5e2b0ac03b09d6a55ce0b5d10be969fd7c5150202ebfc6047fe32dcc3340cdcde989aca3c9b05f015b7e14620a417010b8dc76dcfce325dfff9d86b29c3f84eb5897e96a33bf0d13f27215f032ad995cba8115aa71dfed126772dd491377e08a2c38b7520be60f53f16d4445b02d4b606799b2d7a30bd712a1a5cd76c1ba57a1c886659900d64c70c59653601a0d3f9ba1ba1d4e275d9261b9493455b571eac17bf4083f18daffe8cfda17d95fabad493b18a1ba99b36f42dc3b0124b1b4b66987ed2a9daa644471c4d8d61e072353e698cb829bf96bbfde828afef0d49ba4135f51537c42976d8ccf6d8abb234e5e5ae6997a365a810829eb743e9c657124ef60698bd34a483ac1f93d46e453214db15c3f093920ac23deb3f7522f6b332e674b59acc13dd0c8b10f2a9a6163515bfe21aae168c7bbcdb79981fe6fa64a2b910913c1ca4fcfaa53623c6209b1e5842215565c821b4574b862c7b2c8057b8ac4bb8d7c41b1f69780af1fc90705067c22aef1218c82ecefc03b2cb1b68dc3ef7641eab3b269b9ac908536b856319988b1058b808f26561d46214040d5522917ce47520c2118b1011f402eafedff62ca3dcd52ae1ddf5dd01c253602ef1c5bd46fd43a2b8fad7bc758f58cd14302c98b48271052956d4397f8156ae44d8af31071c9b7cf9aef17c391c3937beb7b3c7a14b459bfcaf1cf5c41eea161ed3f55bcc096a0fae12d832e0289e77edb3f0734b62194c3e531f98a8646c06573bb733741a345c1a416f3d6a13db4a3f5f442d80268cb126048850473a15d0173c190eaca5f99c1b34c5b77ce51cfbda2fe63cd76388ec65c808e3b167e1a63f81636ffafa8dd23d534265b818c8449c32d0b39796baf9b243cb5b3616a86d8e2e8b51d0c8a949220a7bb35a97fa0d75156f53fd85fc100c36d1c255505054d3d871503048c88579921c0d77a45a09c7cfe87f1df8695e561b0d5ddc2c92b45ec493acb0e536f7d7c0d992ef0a02c8bcc1ac62fa2a2291ff799d99c25a0728db6813a836e94f9becef6d897b837a3182910ef42436388dd288acab21436387bc2b1d9d2b8374184c15d7e0637fd167978358a97019013bc0bab86571792259fb7ea56d350f713ca963b00ca481bc6559578e55d9357961a88cdc88847d828c48121b10c861e0f9b7d6b6489d087610fa949af2523bc687a299e096a1616985154cd2e474f310c1b5ad307d8ffcf97e645cabb22822c8fd668a418763b1c2f808b63eb6d451a2982c080fdab14fa32b20e9d0955b23486f89137c884220bf2d51bef5ae8e74bf69b2dbf9c69868e16e529ec15e03d05f76f51d1d16cee05d1ed5ddaf75b70dc7ff74317c353ff17ed59d438a478dfaf26aec0afd1f97d0313924eac2ccefa0f42efed605a28fe69e804bc00506da80c10f991b5f336677a1111d70626b85d29d75338d966b9fd61077184cdceb0517834cd490f632c64d300f4fc4160f0488f51dd2f45f23cb784cbd1027b0830f3b4708d2ffb99c79c114873f188e6aade0495af0488750815d60c845a0e587b0f28218e7164ccbee9cf748d9c06b9e455181bf50c60d681841be6ad51f8a79e93c7f9cef939aa00b72255e3562aeee56692fb0b8ec7b0fa0998f6576984add9e8d8b7295266b15fdd98f82822057c00b8f630f3454505eabea009ed60dfa16079f5413bd283add3c5f7179a8382f9ec9a24b98a65a217294433691a095f2b25be3e47516d7f85aa94a8282516c0c65b51ba59d00007864fd4093e089b18584e6c17d66453216c0b0c9e6a693495018d230be718d6c248c14881df2d74ab66034d7c61576b2fa64896299ef3f8b629b29ca3fabc693b0f4ba378ddde9f6fc3767fac25806e412d05255ccae1b4a0fc281603212aaa3dd4c7b917a002f4fe694e401fcb40d6ec923b862bb1bfad3632b3b8100649c047f769115bf8fc51e405a87840a7908ea2d16aeea2c17385be77902b04162043aa59043671f82466ec7084c0876df05da5fa8bd933e8f509082c782a3aed4a43e1aa33887e8324440c0a9ab2c5a76d45069144737ac5b16af08802ef0db967298daf1727651313f7bc1e15e75ff3ff2d4266f1bcd8bf73a56fe7d35ad5aaf57fa173a4518b66947bd663a5f34164242289849078f84458b40dc65dbf57209af90ec5e496d584135b488f8711e30af2d062c0390d962df903621f9f1f376556ad9a7cd3e66529e03a2c5f3ae82e8f39d1d9d8a6063634d988a6c7b5c242ea440b7ab92800090b253e49617c81a3b7bbd0daddfb00040a12171b466c747794a4a8b8bbe2e9f5010d2d3b3e3f4d51777c838c8f91979aabaeb0c1e816314142498593bed0f80000000000000000000000000000001022374101",
        "00e4b59d6274924cd97000adaa0bb6fbff661b0a304c8c11e8a2e2e85844ea55a539a19dfe635a4ea56635f0afac826a56b594a7d9b46ec35825ef146a8c6fc2882837fb43fd8105a0ddf6c92e276ad8b6b15e6d535538e1401e853e35e988aa2a815bb1e3b9f9d54eee9f36b7d8083c4eec0ed2237794dc293771450d64df6dcb358dad161bd771cfc50ae4d5d8f776057e9c77456602ebeeadb612c98488471fc2c77405d686e6919c1fb9c009c0e72508e05e1d05fd3a4c03f9fe2e323458baa6bb42645129a4e962b4074c13008750ffaee4e8c842408f1b5ee1f5e896112692085aa127f511a39c524540c063b4039cec59b2bf49a5d26b67da49f90071699fa8d9932da034729354eeaaaa330aa71e072c0d687dd5f7c47d142594503398abe022a421ea0e4516c4a7617cdad07544667ef4d3dcde6c161a45f186968be445f6e29cd4664c7a18b5ee6a3ae6798211a86523d9a60dd6cca022614efe825c79662ee4a24d75308751ed9e77698e42198832a31147b7baffaa759c823e301f30dfb927713a6cce788ab8293a2562a1c9926d5a603d79afc734a9caa69444335229956b282886cd6ad667b7ab1bfb90d1b7473ad98c6158b46643eadfd3c3d05129285534a39578576ee1ae4e1fdea9c3e009f972f054c365879c0ed6ed35584e029aab5ae988b37070a2a80c5be92a5315f4aec70715a8a7639b0b898832609ea19e1aeaa0f8be4ddf80ba5032673391dd81f87db745afd0b84fdda9f94dc40a44c13a3cb92cf8af0d26b241e978867b8c87f29770b16afa517298763372ad156bee26564e26f6deb151742d6505212fc3bbb93c28137ff1a0d4c0a1090d3b9a816aedd46114bf8584524d7d2b007c38e405a76edb81bb76548fbaac5f6039fa63a1e9d18b3d42a682b2fe10f3affc32244b02e28e68b2cd9c9289a348959672dec0d00df7657575a379b3d1b497c34e0ffd95200a53cc1a637af4261f2e9d40d44c80a036eaa7a11a064a6f08c48d3cb0d65e005ba07eabeadfdaaadd464b572dc838fb0fe55aaa8199ec5cc61039eb017b4c7886e461ef224cc03dfd34cf8a0cdad8e6ec3fc4c4ef05ef3a3eb3c924cceb28d4e924e0e5b5a26499c1bcf71e943bd8531c42b14f16473d5f8b5dc3366f1c7a19da4627bfd880719a3e7aed6272fc7569a984436174e166cee352285a727f0ca75db1626ce144fcf0d70f2141e595bbcfb091ea82c0bd89dfe4b4a0df0494d66669dc037fb32ac3c60d3d2fa85eff82fdb8f532ad59963ce829c9816155a831f2e477e9353903999a82a1208b46c5e24f00d20119b67d9c4e7b24c8c11ccce71231d16bb3dce43e06c6a381561060d6e02737a99b52b75c43494a029bae753d9ac66c151272d183a000efa5d00eb42a4069934264290c23167c092a52a88ad1e610b7482a7be35bd489767899dce795a6b55c623abf9889379aca7bce7cd8149ed435e04d1d0d8abd43a76303b1d3b87e047e5eaa96e67ef5e386d0ec9b158ae7d79f38456cc9d059ae99330b67099bba83ff7b0ada3ed2adb894d2da48288fd2399e7298e94c13a9a20ccff0fc664798452df077bcb2fc3f7c25cd203c4fa02b0617f0ecc02b310e1e643900e99780fa274bd8ce00401cc52ec447a66d7952e510c89bb81528d801df50d63de838202cf41a10194db6d01c8a0ee4828af9815f3964aed5a0006cda51c208f0c808b7effa6930b7e9163af867038c80db9ded9af55e35f4667ffd07af61bf4110663f85783badcfa47895dc5369fc3052634d4d910eb62499f1d1bba6e070706bfe8cc0d7f150f7c20326cdbed99d72a012629eb5b4c25b8b6f42b19ccc23"
      ],
      "sequence": 4294967294
    }
  ],
  "vout": [
    {
      "value": 1.0,
      "n": 0,
      "scriptPubKey": {
        "asm": "OP_RETURN 25b6ec6e11678fe677adc828d19c4e2ca2b8da32b175a7ac8414f7c414e18824 988510c42f34b460b31f0eb5b2758830fdf7222b808d9a9066c3083209da04efb8a530e40f149440933f2e959255a810ddd7020ba0adbab046e3281229fa24cfd8c550846f74f420f35f4ef5f235c870bdb7626bc0cddad026834872499a44aff8e570a44f54d400d37f6ed5d215e8509d97424be0edfaf006a3685269ba648f18059044afb434e0339f8e3532f508b07d77a2ab000d1a10e64388b2895a846f3825b0648f9414c013bfae1512d528905d57828b202d3a30c663a892a97aa44f5845d004eff474a073dfce7572b548f03d37e2eb404d5a50a603c8f2c91ac42f7865f024cfd4548053ffee55529568d01d17c2cb606d7a708623e8d2e93ae40f988510c42f34b460b31f0eb5b2758830fdf7222b808d9a9066c3083209da04efb8a530e40f149440933f2e959255a810ddd7020ba0adbab046e3281229fa24cfd8c550846f74f420f35f4ef5f235c870bdb7626bc0cddad026834872499a44aff8e570a44f54d400d37f6ed5d215e8509d97424be0edfaf006a3685269ba648f18059044afb434e0339f8e3532f508b07d77a2ab000d1a10e64388b2895a846f3825b0648f9414c013bfae1512d528905d57828b202d3a30c663a892a97aa44f5845d004eff474a073dfce7572b548f03d37e2eb404d5a50a603c8f2c91ac42f7865f024cfd4548053ffee55529568d01d17c2cb606d7a708623e8d2e93ae40f988510c42f34b460b31f0eb5b2758830fdf7222b808d9a9066c3083209da04efb8a530e40f149440933f2e959255a810ddd7020ba0adbab046e3281229fa24cfd8c550846f74f420f35f4ef5f235c870bdb7626bc0cddad026834872499a44aff8e570a44f54d400d37f6ed5d215e8509d97424be0edfaf006a3685269ba648f18059044afb434e0339f8e3532f508b07d77a2ab000d1a10e64388b2895a846f3825b0648f9414c013bfae1512d528905d57828b202d3a30c663a892a97aa44f5845d004eff474a073dfce7572b548f03d37e2eb404d5a50a603c8f2c91ac42f7865f024cfd4548053ffee55529568d01d17c2cb606d7a708623e8d2e93ae40f988510c42f34b460b31f0eb5b2758830fdf7222b808d9a9066c3083209da04efb8a530e40f149440933f2e959255a810ddd7020ba0adbab046e3281229fa24cfd8c550846f74f420f35f4ef5f235c870bdb7626bc0cddad026834872499a44aff8e570a44f54d400d37f6ed5d215e8509d97424be0edfaf006a3685269ba648f18059044afb434e0339f8e3532f508b07d77a2ab000d1a10e64388b2895a846f3825b0648f9414c013bfae1512d528905d57828b202d3a30c663a892a97aa44f5845d004eff474a073dfce7572b548f03d37e2eb404d5a50a603c8f2c91ac42f7865f024cfd4548053ffee55529568d01d17c2cb606d7a708623e8d2e93ae40f988510c42f34b460b31f0eb5b2758830fdf7222b808d9a9066c3083209da04efb8a530e40f149440933f2e959255a810ddd7020ba0adbab046e3281229fa24cfd8c550846f74f420f35f4ef5f235c870bdb7626bc0cddad026834872499a44aff8e570a44f54d400d37f6ed5d215e8509d97424be0edfaf006a3685269ba648f18059044afb434e0339f8e3532f508b04ee317722d592cd0524aabbaaf02816f7727eba3c0000866539b09f7f37b3178",
        "hex": "6a2025b6ec6e11678fe677adc828d19c4e2ca2b8da32b175a7ac8414f7c414e188244db004988510c42f34b460b31f0eb5b2758830fdf7222b808d9a9066c3083209da04efb8a530e40f149440933f2e959255a810ddd7020ba0adbab046e3281229fa24cfd8c550846f74f420f35f4ef5f235c870bdb7626bc0cddad026834872499a44aff8e570a44f54d400d37f6ed5d215e8509d97424be0edfaf006a3685269ba648f18059044afb434e0339f8e3532f508b07d77a2ab000d1a10e64388b2895a846f3825b0648f9414c013bfae1512d528905d57828b202d3a30c663a892a97aa44f5845d004eff474a073dfce7572b548f03d37e2eb404d5a50a603c8f2c91ac42f7865f024cfd4548053ffee55529568d01d17c2cb606d7a708623e8d2e93ae40f988510c42f34b460b31f0eb5b2758830fdf7222b808d9a9066c3083209da04efb8a530e40f149440933f2e959255a810ddd7020ba0adbab046e3281229fa24cfd8c550846f74f420f35f4ef5f235c870bdb7626bc0cddad026834872499a44aff8e570a44f54d400d37f6ed5d215e8509d97424be0edfaf006a3685269ba648f18059044afb434e0339f8e3532f508b07d77a2ab000d1a10e64388b2895a846f3825b0648f9414c013bfae1512d528905d57828b202d3a30c663a892a97aa44f5845d004eff474a073dfce7572b548f03d37e2eb404d5a50a603c8f2c91ac42f7865f024cfd4548053ffee55529568d01d17c2cb606d7a708623e8d2e93ae40f988510c42f34b460b31f0eb5b2758830fdf7222b808d9a9066c3083209da04efb8a530e40f149440933f2e959255a810ddd7020ba0adbab046e3281229fa24cfd8c550846f74f420f35f4ef5f235c870bdb7626bc0cddad026834872499a44aff8e570a44f54d400d37f6ed5d215e8509d97424be0edfaf006a3685269ba648f18059044afb434e0339f8e3532f508b07d77a2ab000d1a10e64388b2895a846f3825b0648f9414c013bfae1512d528905d57828b202d3a30c663a892a97aa44f5845d004eff474a073dfce7572b548f03d37e2eb404d5a50a603c8f2c91ac42f7865f024cfd4548053ffee55529568d01d17c2cb606d7a708623e8d2e93ae40f988510c42f34b460b31f0eb5b2758830fdf7222b808d9a9066c3083209da04efb8a530e40f149440933f2e959255a810ddd7020ba0adbab046e3281229fa24cfd8c550846f74f420f35f4ef5f235c870bdb7626bc0cddad026834872499a44aff8e570a44f54d400d37f6ed5d215e8509d97424be0edfaf006a3685269ba648f18059044afb434e0339f8e3532f508b07d77a2ab000d1a10e64388b2895a846f3825b0648f9414c013bfae1512d528905d57828b202d3a30c663a892a97aa44f5845d004eff474a073dfce7572b548f03d37e2eb404d5a50a603c8f2c91ac42f7865f024cfd4548053ffee55529568d01d17c2cb606d7a708623e8d2e93ae40f988510c42f34b460b31f0eb5b2758830fdf7222b808d9a9066c3083209da04efb8a530e40f149440933f2e959255a810ddd7020ba0adbab046e3281229fa24cfd8c550846f74f420f35f4ef5f235c870bdb7626bc0cddad026834872499a44aff8e570a44f54d400d37f6ed5d215e8509d97424be0edfaf006a3685269ba648f18059044afb434e0339f8e3532f508b04ee317722d592cd0524aabbaaf02816f7727eba3c0000866539b09f7f37b3178",
        "type": "nulldata"
      }
    },
    {
      "value": 499993.8986,
      "n": 1,
      "scriptPubKey": {
        "asm": "1 07faa281df471de954a1b16b8958690026f3bb249fd19e60f3fec04d06e3dd8f",
        "hex": "512007faa281df471de954a1b16b8958690026f3bb249fd19e60f3fec04d06e3dd8f",
        "reqSigs": 1,
        "type": "witness_v1_scripthash",
        "addresses": [
          "3QJmnh"
        ]
      }
    }
  ],
  "blockhash": "32a2d379a33ec88ae1cb3a8a1a44f2d12b76aebf574ecf7ac16b289397ed6cd9",
  "confirmations": 1,
  "time": 1764176557,
  "blocktime": 1764176557
}