{
  "hex": "01000000000101085c825b92971c3510a0f95383d5ca4805e6ec46a4eb9d8bf16c55efbd3dcc600100000000feffffff0200e1f50500000000fdd5046a207893f256771ad80a6b878b06829c5389a78d30bf841bf9d33c394b75ac7a88d34db00480521794f75ed9c7e8fefc10a639bb77b8fe7b18c2c6bd6451aaa389aca35028a07237b4d77ef9e7c8dedc3086199b5798de5b38e2e69d44718a83a98c837008c01257d4b71e9987a8bebc50e679fb37f8be3b588286fd2411eae3c9ece31068e03277f4973eb9a7889e9c70c659db17d89e1b78a2a6dd0431cac3e9ccc3304800d2971477de5947687e7c9026b93bf7387efb9842463de4d12a23092c23d0a820f2b73457fe7967485e5cb006991bd7185edbb862661dc4f10a03290c03f0884092d754379e1907283e3cd066f97bb7783ebbd802067da4916a63496c6390e860b2f77417be3927081e1cf046d95b97581e9bf822265d84b14a43694c43b0c880521794f75ed9c7e8fefc10a639bb77b8fe7b18c2c6bd6451aaa389aca35028a07237b4d77ef9e7c8dedc3086199b5798de5b38e2e69d44718a83a98c837008c01257d4b71e9987a8bebc50e679fb37f8be3b588286fd2411eae3c9ece31068e03277f4973eb9a7889e9c70c659db17d89e1b78a2a6dd0431cac3e9ccc3304800d2971477de5947687e7c9026b93bf7387efb9842463de4d12a23092c23d0a820f2b73457fe7967485e5cb006991bd7185edbb862661dc4f10a03290c03f0884092d754379e1907283e3cd066f97bb7783ebbd802067da4916a63496c6390e860b2f77417be3927081e1cf046d95b97581e9bf822265d84b14a43694c43b0c880521794f75ed9c7e8fefc10a639bb77b8fe7b18c2c6bd6451aaa389aca35028a07237b4d77ef9e7c8dedc3086199b5798de5b38e2e69d44718a83a98c837008c01257d4b71e9987a8bebc50e679fb37f8be3b588286fd2411eae3c9ece31068e03277f4973eb9a7889e9c70c659db17d89e1b78a2a6dd0431cac3e9ccc3304800d2971477de5947687e7c9026b93bf7387efb9842463de4d12a23092c23d0a820f2b73457fe7967485e5cb006991bd7185edbb862661dc4f10a03290c03f0884092d754379e1907283e3cd066f97bb7783ebbd802067da4916a63496c6390e860b2f77417be3927081e1cf046d95b97581e9bf822265d84b14a43694c43b0c880521794f75ed9c7e8fefc10a639bb77b8fe7b18c2c6bd6451aaa389aca35028a07237b4d77ef9e7c8dedc3086199b5798de5b38e2e69d44718a83a98c837008c01257d4b71e9987a8bebc50e679fb37f8be3b588286fd2411eae3c9ece31068e03277f4973eb9a7889e9c70c659db17d89e1b78a2a6dd0431cac3e9ccc3304800d2971477de5947687e7c9026b93bf7387efb9842463de4d12a23092c23d0a820f2b73457fe7967485e5cb006991bd7185edbb862661dc4f10a03290c03f0884092d754379e1907283e3cd066f97bb7783ebbd802067da4916a63496c6390e860b2f77417be3927081e1cf046d95b97581e9bf822265d84b14a43694c43b0c880521794f75ed9c7e8fefc10a639bb77b8fe7b18c2c6bd6451aaa389aca35028a07237b4d77ef9e7c8dedc3086199b5798de5b38e2e69d44718a83a98c837008c01257d4b71e9987a8bebc50e679fb37f8be3b588286fd2411eae3c9ece31068e03277f4973eb9a7889e9c70c659db17d89e1b78a2a6dd0431cac3e9ccc3304800d2971477de5947687e7c9026b93bf7a2f847fbdaded3d92e6c4497a52aa0d82e3aa38600fd7dbffd7f45bdceae09aab0767139792d000022512071791ec018387875040454329f7ea08b0a80007492b7de99095d5cafc3638c6e02fd750921e86be5db09497a5a2ba3326ee6aeb9495266033f84f277c989fd5dcdd972cc70c5674ed8b21b0eeaa1aaab8f15a2bb392bd29ea34bf8801560f4bcbe19442b02dbcd237d6601dbb96d4191d3ac3220ea4072e65583f825f874baa9a259cbd54cb326d61a22fd00b1d86bf0be3a8e4fc38c2dbee6b8cde8f2de7ce7e38a6349cfa52fcc468ca52712e9501bc2d6a3bf0ab69ada02be051da9f05be551bcc718dc35aa8f69efc2f600c60349e26fe73479e517c552d87a880621fa4b24e461f946c69c9e47152a219e6ed9ccb2c967ad9c80c18387a0e6a4d53b101884f845c81366e415014255810cb6e5ffa2e066f775939f01c2fc21cd0f79374eb1cfcd50d31f3e942c60784b79c1e4dc628f38f0b8f150870db437bba4d0bf72625466d86c27508bc819368704f3b279783c6fc4ad68665ab47225cd5725c963d8eaba902bcbed480b5daeedc3e848733e1bb394efb2eb32fca34052f1ce4ad5105ecf5c2a5b9087720d55b7d310bfbb78ba932f26fe86c2ad5978a84f2adc52058f1c629165b0eda40724930737df67ff494db92098a5b1c1dc0711044f266198b8d19ccd7cd638254e892936e9d97f6f9230d873caa14323560349e5169317ff5cae7a167af4ea6ad34978e4334fe7fc1e86fe519ddf90913404452c2f6af2679f7f8bfb4164f6b8eb4cc3f4ceed4ed41d631e85348a43cf068f30bffa0dd8f96b1ff772d186b023a61901bc45d0b1571ec9242739f05ab7bdad4345cab5687d89cc51505436ec62bec2b25c398d748549ae3b004dede72d46402d83ee06c414f395015f3eed87df4742291d83f6944f9e287864eb58e7b2edb0b1a6a50747ad3c8f8818e4beab56aa26ca0eda7c8c757777fd89ba8e243290f0991a116827eff19beeff9a75a68995dc020d3dd3cacb702ce92c6501ee942fe6eeaabd5969f34e4de3ca12c4d3d9203bf7db556650c201db91a947557620f853bee6bbe3f646f5646f6bb5c2e6d3b242912c547feaeb96eab89ae8a6b26fd7657feae74ad52cce52e3bd883cff53b60f24daf7f9320692859d5dcf165f7c8bfad4f1374d114d188fe32f430b1341ba599fc9a64551cab2b79cfa085ed9a9688d4cc63df70c6f044ca806b428cdac42c67746e4a05aab82cc9eb52853fbbbeb25bbb79fedfa2c7ae8e7f25f8f1fc9fd24f88ddaedfe91f65756deba62a5dee69834bf8125c1c531fa7466e0b24cf1cd9cd403aa6a52e6b23235fc48664d2e0bc90f99abc0c523f93ce705ba946e4df4ee0a8b0236225bdb8f99230601c2011a868021b7182141cfb6714c52b1b54d61fca72f29d1113eb7d5958d39921260dd60952b35547aceb7ad3463cad68e0af8e6565248950b02cd997db51dcb96a6b0750cbe2b90bfd9e2c04c82afdaa0d9d19f2ba433074b3cd5bff3f9b683d8d5e8751f82f3b6eb4073dfcf4fe960af151bb3e3a8682016311b1d502c7c07b19a6fe8004e32516437e8446ec133204e95f637a067286639764e1589953944f653fd04c4d3c3c8fb6b960e53a5683e49ddbc558a0259413fd4362fc2bbf93a1fc129e35dea65043fdbac8e9cdd447c88d954758cef1e7a090eb02bdc9dee88bce5b98b621f10aa9ece6396336a507e7f91d0cb09a78b1dd03432638313c594ca93d3e8af6ee046214c1e3e86eb17e9fa40180bc9d61459418258bdcc02e8b0dfae58f5bf977724a505ffc9a0a3aa3188b9f15c53899d8e10ad66617a0884160bb9c3997814b3349280d13afc6799ac52224d0eda093f1351cc7fc3b1f9071983b0bb38c387c066d1154c4c260e29c7f813e007ec6a453bf23b373d1d91153e5562ced7863f6e8661c10776a9b57953daf7091364c7027a4c685609594e712d367f17b7dde0e299bfb563c317ee1e7cc3d1047945f9a39b179fad3e275bbfca1d3fd2d9f42543507d35465282422997e1f1c31805340ba91fb1ab2d5bcbe11fe6d95f581f6f5c7d7b2d4464597152b78fe3294ae6db421614facf6d62744272d34137de3d7192fd98a001a6cef580c015394f621b03fd9fd0e7eb6a5c7bf10d6c694becec55a720e90787ab84406f08158e2797b12d9423efcd82e26f1ff88437e2662813e6cdc6d412e63a31750fb8236614a252841d981c1833b21b833a340d1b0d5c2f7df2fa972061286ef6c443be34274fbf9df6054f1efdfe583d0209a227c2669fd29ab1869b485eb2ae9d27558ca14edc75500335fe6e157d5b243eeb2e960692fb3e9e7124fd9a11edb962739bca5d6eeda982f88a27d5139d220b8e7da0386aaeea69fbf2666ba9c60d4327c809af61bb48894c80a0862ac2d0cb24daf5bb916116df6c218463d233d4d653321c1042e9431e980953f84a241a6334bd3c24f6eeda98cc5322c45ef8271ce7463396dc4392a8f198f122c770d73d7f8e1fd01230db92b86c74445ea1a1356e54b1a31ce97303b3befc7ecf1a9e29e96c369ed9298017c6a292046873e05d4a37c746858d6e7da5e33d5069dcf1f5a6ac08a3bba004b51c2db1c5133cc3dfcd980a210a949ba475780807fdf98b8f21ec7ce30cc09f85b0fc26819865b11eaee30a46fa0b2f440173ee4eb9ca65116f7fee5ba7114d7fc26e83f907c91e128c9fde8bb6a18f2aaf14451d255653b7419d0114bbea5bb3e0329bae67c45196e4a34d7a148e654bc9be439ea12e53eb42bf3d2b4d51703a994516a2f02f0c008505b57e7e0811d92a3a2d2bb6a0e0c19a9669aac091a0f96b817d12cc56e1a1899009b2e0455f71119317e55f2ecf37ca6d2a664a7425877b9bacdc39034cf9eba7de8870cb9a8eb192a8ee1b3518f1f34449214731d0d302bf1299622c99cf9a744906ebc2f06bce979b0a4f669e51f6577fedef5db985a36535ea3bf25201bc0b262a6df72a925a4234c012489d38a1a1f96820c72b1bfa3885a2e6116eae79d2e6927c9a244b9f0414d557eb678cb3ffc35349eb9c5ac5a68ed1d835be9b32946335658ab8e6b75e3039be5b261c465c8dc444d31f6b399fb37010f03cbcac3f2f79fdef12566498ac9088a1906497775c682a746419575114aa69499cfc5f6e8f51e0199d829b4ded33c5b23f3349e063e18e0393fa5f8f7e0008ab6d748b0ff2fd26ea32a3511ad2cc73c7ffde8404fcac62b2199160d506991f40e4d4c678d9a44422e47bdf3b3501d7493758e815afd23251d69ab531950d3ee5cbda1e6b8063a4dc22307fae17aeca741dd776fbc85ef66f2bbbe24aac92a6f4d853d21d4d15156550e9075922a5970becd79f08c174f5e64cda20219c94a9000d16171a20264748565a7ea0b8c0cceef20710434e505f85888d93969ca3a5bed2dae5e6edeef509161b272e4656586a7e84b1bc0c1d1e547476798b98a3a6abc7ed000000000000000000000000001228354301fd21050042b16c9bd1cf9f4878b15962cc6e6a61f7717328d12ff8e0f3cf5b62a7cdab077dd38a0c58d9604f092628a24b5d415c148ba9a45d6b6b05239e690872037ce899eb952f6a59be7c359f7dda04477c9995ec9ee91b36ac4bfba23b6a84e6d5a1c7e714548af1f6be6b333e7bd1a70fe0b0fd663db990369a5a36ef2f6ee18f95657d647fcad0775654171b367d157b234a476fec3f6b0a0b4a6cc535f0e64f79936a446571cb4cf9245cd99dac8fdae169b65ecfe7cfa2a5e29cc99197813321bdd5831d3453901e3bc1c08cc84a67c12466ce48c588bb4bdd6b234cd1b0dbe82a6c7d2c098e45dfcb4f21563eac221ab4f3dddd6b35ae2098a556f561f5612f0ba0373b0cd03bc73f1adc779720fe2da6baa802fe0d096823694190de0ebbbbf20caa3765f4beb53669e1f50c4ff28009d0bf685b722ed8b17f95f2decc1cd20b0775045f5b9f651ac93496d6cc63cf5476d5ef90860ea64f9917a8a557a5628f3372894ee965dee0001b81fdcc456b8dc58ec2ceaff7954b98da16cfd16326a2a0ada289e9f9612b1899c35aaff3a2f7b1a8819e58723b260ea223d97bb25180a171cc9dc510fca6e12f448e26d89c050998ce99408e8c6742d42708d5df7014544b0139420556e7637af926ee9c497b63d81d33b0d1c081e46891c7c875d894252fa68b1a4d596cb4d25fc6bad56f2eebfb44c5a40b30bcf8054cb547ad9707916d5bb360f177740b421174aef84dd670e158dfc79ab1aa01a021b976a23deb21ab2e9c39e4177f934d6024ee808de75bc64cd6ecba641a3b86b908fe18c6bbaf9639e851839d6369821ba8418c88d373c18161370934cf8cb023105bcbb2e21cd02044f111df75385bd3bdfc563609a8000f822c503397a81d33067b5cb885c502f0fb5498dfb4d76e1dfe39f5b31a514f92938b44481bfff031d28e76069526622b830536f4d05c1b694cf4d1716dd8e290527e03ad73b46db1cf4068d7ccd0e8829cf36bc46f3ec77e889a892ea8047a84535f56cd8f48089148435879a61beebf83bc807fa5c9e456e9d0a42dcc6dd3f4248d26f6b469aa98fff3aa0156a78627882c2b990fab740c9ceea5446c3d50069746cde9eddddd52f93becfd873e2d92deb36d7ced0c4ef6356e4db937a0dd098901d66621d5087cbc110f6964d53fe7354759a47514eddd7118c89e7e7b87af9b4bd98ea3c0404ad8354e7872029253863ffa88e80fed7d85c51cb1737eead4e07280c6c1d69fea765323770524fcfc8927d929c4e6e4210c03dfcaae40b4ba87143484ebf07c921f7e39c24d34db3f3fb5926d9d3329bf1681ea2aa52af3031c2f2f4cc7cb038d8519fd48deecfe3074c8a11d8100a5d31de8e088891367d01fc7715016a2a8a6aff1a92864f740abde056017af0d9e0cc39deb11ef3690d95d3f3b635b2fa596fd4a148e74222e40eccd80208343b48b91f6a5d32c417648d697002c288c868e8b391af6975ca6f0b923ba4d2236422f10085deb2ffb67160655c95fbd794c74e56327b873143208f4fcfeb1270c72de86db5fdb900bbcc538a19273b80bcab5b1dc5fc84ac386dab3325b9a08064e38381cf254d8099e372672e718d36e5ff7d570dba1c8dcf4c41df2513898325280a9985ce8a697bcfe69aa3f91e7f42dd764913b5407da9e91af0f0dbc3e5178623f4b929dc435aa11e946c4db5b9e87436d3297f9c2ea0e071141bbe6c019f1b46cb6dfc27d7e9c8f20a705909f40624540b0b6868a5beb17bbeb7c1af2f8c45afc79b60a979fbe9a6b87e44b966d3fcbe39f72d866750e4bbed29add45e938c58f84639725ee0541cf2a577abf04abcd99fc25b66f000000",
  "txid": "102b2a1259e9049f27d06ffad2b75a2d1996cb239403fc39b1b1ef82d7eabd0a",
  "hash": "7b867a01147be33afa549199ff2b693a8167c875e6e0bcfb1f45d1d162f159be",
  "size": 5085,
  "vsize": 2278,
  "version": 1,
  "locktime": 111,
  "vin": [
    {
      "txid": "60cc3dbdef556cf18b9deba446ece60548cad58353f9a010351c97925b825c08",
      "vout": 1,
      "scriptSig": {
        "asm": "",
        "hex": ""
      },
      "txinwitness": [
        "21e86be5db09497a5a2ba3326ee6aeb9495266033f84f277c989fd5dcdd972cc70c5674ed8b21b0eeaa1aaab8f15a2bb392bd29ea34bf8801560f4bcbe19442b02dbcd237d6601dbb96d4191d3ac3220ea4072e65583f825f874baa9a259cbd54cb326d61a22fd00b1d86bf0be3a8e4fc38c2dbee6b8cde8f2de7ce7e38a6349cfa52fcc468ca52712e9501bc2d6a3bf0ab69ada02be051da9f05be551bcc718dc35aa8f69efc2f600c60349e26fe73479e517c552d87a880621fa4b24e461f946c69c9e47152a219e6ed9ccb2c967ad9c80c18387a0e6a4d53b101884f845c81366e415014255810cb6e5ffa2e066f775939f01c2fc21cd0f79374eb1cfcd50d31f3e942c60784b79c1e4dc628f38f0b8f150870db437bba4d0bf72625466d86c27508bc819368704f3b279783c6fc4ad68665ab47225cd5725c963d8eaba902bcbed480b5daeedc3e848733e1bb394efb2eb32fca34052f1ce4ad5105ecf5c2a5b9087720d55b7d310bfbb78ba932f26fe86c2ad5978a84f2adc52058f1c629165b0eda40724930737df67ff494db92098a5b1c1dc0711044f266198b8d19ccd7cd638254e892936e9d97f6f9230d873caa14323560349e5169317ff5cae7a167af4ea6ad34978e4334fe7fc1e86fe519ddf90913404452c2f6af2679f7f8bfb4164f6b8eb4cc3f4ceed4ed41d631e85348a43cf068f30bffa0dd8f96b1ff772d186b023a61901bc45d0b1571ec9242739f05ab7bdad4345cab5687d89cc51505436ec62bec2b25c398d748549ae3b004dede72d46402d83ee06c414f395015f3eed87df4742291d83f6944f9e287864eb58e7b2edb0b1a6a50747ad3c8f8818e4beab56aa26ca0eda7c8c757777fd89ba8e243290f0991a116827eff19beeff9a75a68995dc020d3dd3cacb702ce92c6501ee942fe6eeaabd5969f34e4de3ca12c4d3d9203bf7db556650c201db91a947557620f853bee6bbe3f646f5646f6bb5c2e6d3b242912c547feaeb96eab89ae8a6b26fd7657feae74ad52cce52e3bd883cff53b60f24daf7f9320692859d5dcf165f7c8bfad4f1374d114d188fe32f430b1341ba599fc9a64551cab2b79cfa085ed9a9688d4cc63df70c6f044ca806b428cdac42c67746e4a05aab82cc9eb52853fbbbeb25bbb79fedfa2c7ae8e7f25f8f1fc9fd24f88ddaedfe91f65756deba62a5dee69834bf8125c1c531fa7466e0b24cf1cd9cd403aa6a52e6b23235fc48664d2e0bc90f99abc0c523f93ce705ba946e4df4ee0a8b0236225bdb8f99230601c2011a868021b7182141cfb6714c52b1b54d61fca72f29d1113eb7d5958d39921260dd60952b35547aceb7ad3463cad68e0af8e6565248950b02cd997db51dcb96a6b0750cbe2b90bfd9e2c04c82afdaa0d9d19f2ba433074b3cd5bff3f9b683d8d5e8751f82f3b6eb4073dfcf4fe960af151bb3e3a8682016311b1d502c7c07b19a6fe8004e32516437e8446ec133204e95f637a067286639764e1589953944f653fd04c4d3c3c8fb6b960e53a5683e49ddbc558a0259413fd4362fc2bbf93a1fc129e35dea65043fdbac8e9cdd447c88d954758cef1e7a090eb02bdc9dee88bce5b98b621f10aa9ece6396336a507e7f91d0cb09a78b1dd03432638313c594ca93d3e8af6ee046214c1e3e86eb17e9fa40180bc9d61459418258bdcc02e8b0dfae58f5bf977724a505ffc9a0a3aa3188b9f15c53899d8e10ad66617a0884160bb9c3997814b3349280d13afc6799ac52224d0eda093f1351cc7fc3b1f9071983b0bb38c387c066d1154c4c260e29c7f813e007ec6a453bf23b373d1d91153e5562ced7863f6e8661c10776a9b57953daf7091364c7027a4c685609594e712d367f17b7dde0e299bfb563c317ee1e7cc3d1047945f9a39b179fad3e275bbfca1d3fd2d9f42543507d35465282422997e1f1c31805340ba91fb1ab2d5bcbe11fe6d95f581f6f5c7d7b2d4464597152b78fe3294ae6db421614facf6d62744272d34137de3d7192fd98a001a6cef580c015394f621b03fd9fd0e7eb6a5c7bf10d6c694becec55a720e90787ab84406f08158e2797b12d9423efcd82e26f1ff88437e2662813e6cdc6d412e63a31750fb8236614a252841d981c1833b21b833a340d1b0d5c2f7df2fa972061286ef6c443be34274fbf9df6054f1efdfe583d0209a227c2669fd29ab1869b485eb2ae9d27558ca14edc75500335fe6e157d5b243eeb2e960692fb3e9e7124fd9a11edb962739bca5d6eeda982f88a27d5139d220b8e7da0386aaeea69fbf2666ba9c60d4327c809af61bb48894c80a0862ac2d0cb24daf5bb916116df6c218463d233d4d653321c1042e9431e980953f84a241a6334bd3c24f6eeda98cc5322c45ef8271ce7463396dc4392a8f198f122c770d73d7f8e1fd01230db92b86c74445ea1a1356e54b1a31ce97303b3befc7ecf1a9e29e96c369ed9298017c6a292046873e05d4a37c746858d6e7da5e33d5069dcf1f5a6ac08a3bba004b51c2db1c5133cc3dfcd980a210a949ba475780807fdf98b8f21ec7ce30cc09f85b0fc26819865b11eaee30a46fa0b2f440173ee4eb9ca65116f7fee5ba7114d7fc26e83f907c91e128c9fde8bb6a18f2aaf14451d255653b7419d0114bbea5bb3e0329bae67c45196e4a34d7a148e654bc9be439ea12e53eb42bf3d2b4d51703a994516a2f02f0c008505b57e7e0811d92a3a2d2bb6a0e0c19a9669aac091a0f96b817d12cc56e1a1899009b2e0455f71119317e55f2ecf37ca6d2a664a7425877b9bacdc39034cf9eba7de8870cb9a8eb192a8ee1b3518f1f34449214731d0d302bf1299622c99cf9a744906ebc2f06bce979b0a4f669e51f6577fedef5db985a36535ea3bf25201bc0b262a6df72a925a4234c012489d38a1a1f96820c72b1bfa3885a2e6116eae79d2e6927c9a244b9f0414d557eb678cb3ffc35349eb9c5ac5a68ed1d835be9b32946335658ab8e6b75e3039be5b261c465c8dc444d31f6b399fb37010f03cbcac3f2f79fdef12566498ac9088a1906497775c682a746419575114aa69499cfc5f6e8f51e0199d829b4ded33c5b23f3349e063e18e0393fa5f8f7e0008ab6d748b0ff2fd26ea32a3511ad2cc73c7ffde8404fcac62b2199160d506991f40e4d4c678d9a44422e47bdf3b3501d7493758e815afd23251d69ab531950d3ee5cbda1e6b8063a4dc22307fae17aeca741dd776fbc85ef66f2bbbe24aac92a6f4d853d21d4d15156550e9075922a5970becd79f08c174f5e64cda20219c94a9000d16171a20264748565a7ea0b8c0cceef20710434e505f85888d93969ca3a5bed2dae5e6edeef509161b272e4656586a7e84b1bc0c1d1e547476798b98a3a6abc7ed000000000000000000000000001228354301",
        "0042b16c9bd1cf9f4878b15962cc6e6a61f7717328d12ff8e0f3cf5b62a7cdab077dd38a0c58d9604f092628a24b5d415c148ba9a45d6b6b05239e690872037ce899eb952f6a59be7c359f7dda04477c9995ec9ee91b36ac4bfba23b6a84e6d5a1c7e714548af1f6be6b333e7bd1a70fe0b0fd663db990369a5a36ef2f6ee18f95657d647fcad0775654171b367d157b234a476fec3f6b0a0b4a6cc535f0e64f79936a446571cb4cf9245cd99dac8fdae169b65ecfe7cfa2a5e29cc99197813321bdd5831d3453901e3bc1c08cc84a67c12466ce48c588bb4bdd6b234cd1b0dbe82a6c7d2c098e45dfcb4f21563eac221ab4f3dddd6b35ae2098a556f561f5612f0ba0373b0cd03bc73f1adc779720fe2da6baa802fe0d096823694190de0ebbbbf20caa3765f4beb53669e1f50c4ff28009d0bf685b722ed8b17f95f2decc1cd20b0775045f5b9f651ac93496d6cc63cf5476d5ef90860ea64f9917a8a557a5628f3372894ee965dee0001b81fdcc456b8dc58ec2ceaff7954b98da16cfd16326a2a0ada289e9f9612b1899c35aaff3a2f7b1a8819e58723b260ea223d97bb25180a171cc9dc510fca6e12f448e26d89c050998ce99408e8c6742d42708d5df7014544b0139420556e7637af926ee9c497b63d81d33b0d1c081e46891c7c875d894252fa68b1a4d596cb4d25fc6bad56f2eebfb44c5a40b30bcf8054cb547ad9707916d5bb360f177740b421174aef84dd670e158dfc79ab1aa01a021b976a23deb21ab2e9c39e4177f934d6024ee808de75bc64cd6ecba641a3b86b908fe18c6bbaf9639e851839d6369821ba8418c88d373c18161370934cf8cb023105bcbb2e21cd02044f111df75385bd3bdfc563609a8000f822c503397a81d33067b5cb885c502f0fb5498dfb4d76e1dfe39f5b31a514f92938b44481bfff031d28e76069526622b830536f4d05c1b694cf4d1716dd8e290527e03ad73b46db1cf4068d7ccd0e8829cf36bc46f3ec77e889a892ea8047a84535f56cd8f48089148435879a61beebf83bc807fa5c9e456e9d0a42dcc6dd3f4248d26f6b469aa98fff3aa0156a78627882c2b990fab740c9ceea5446c3d50069746cde9eddddd52f93becfd873e2d92deb36d7ced0c4ef6356e4db937a0dd098901d66621d5087cbc110f6964d53fe7354759a47514eddd7118c89e7e7b87af9b4bd98ea3c0404ad8354e7872029253863ffa88e80fed7d85c51cb1737eead4e07280c6c1d69fea765323770524fcfc8927d929c4e6e4210c03dfcaae40b4ba87143484ebf07c921f7e39c24d34db3f3fb5926d9d3329bf1681ea2aa52af3031c2f2f4cc7cb038d8519fd48deecfe3074c8a11d8100a5d31de8e088891367d01fc7715016a2a8a6aff1a92864f740abde056017af0d9e0cc39deb11ef3690d95d3f3b635b2fa596fd4a148e74222e40eccd80208343b48b91f6a5d32c417648d697002c288c868e8b391af6975ca6f0b923ba4d2236422f10085deb2ffb67160655c95fbd794c74e56327b873143208f4fcfeb1270c72de86db5fdb900bbcc538a19273b80bcab5b1dc5fc84ac386dab3325b9a08064e38381cf254d8099e372672e718d36e5ff7d570dba1c8dcf4c41df2513898325280a9985ce8a697bcfe69aa3f91e7f42dd764913b5407da9e91af0f0dbc3e5178623f4b929dc435aa11e946c4db5b9e87436d3297f9c2ea0e071141bbe6c019f1b46cb6dfc27d7e9c8f20a705909f40624540b0b6868a5beb17bbeb7c1af2f8c45afc79b60a979fbe9a6b87e44b966d3fcbe39f72d866750e4bbed29add45e938c58f84639725ee0541cf2a577abf04abcd99fc25b6"
      ],
      "sequence": 4294967294
    }
  ],
  "vout": [
    {
      "value": 1.0,
      "n": 0,
      "scriptPubKey": {
        "asm": "OP_RETURN 7893f256771ad80a6b878b06829c5389a78d30bf841bf9d33c394b75ac7a88d3 80521794f75ed9c7e8fefc10a639bb77b8fe7b18c2c6bd6451aaa389aca35028a07237b4d77ef9e7c8dedc3086199b5798de5b38e2e69d44718a83a98c837008c01257d4b71e9987a8bebc50e679fb37f8be3b588286fd2411eae3c9ece31068e03277f4973eb9a7889e9c70c659db17d89e1b78a2a6dd0431cac3e9ccc3304800d2971477de5947687e7c9026b93bf7387efb9842463de4d12a23092c23d0a820f2b73457fe7967485e5cb006991bd7185edbb862661dc4f10a03290c03f0884092d754379e1907283e3cd066f97bb7783ebbd802067da4916a63496c6390e860b2f77417be3927081e1cf046d95b97581e9bf822265d84b14a43694c43b0c880521794f75ed9c7e8fefc10a639bb77b8fe7b18c2c6bd6451aaa389aca35028a07237b4d77ef9e7c8dedc3086199b5798de5b38e2e69d44718a83a98c837008c01257d4b71e9987a8bebc50e679fb37f8be3b588286fd2411eae3c9ece31068e03277f4973eb9a7889e9c70c659db17d89e1b78a2a6dd0431cac3e9ccc3304800d2971477de5947687e7c9026b93bf7387efb9842463de4d12a23092c23d0a820f2b73457fe7967485e5cb006991bd7185edbb862661dc4f10a03290c03f0884092d754379e1907283e3cd066f97bb7783ebbd802067da4916a63496c6390e860b2f77417be3927081e1cf046d95b97581e9bf822265d84b14a43694c43b0c880521794f75ed9c7e8fefc10a639bb77b8fe7b18c2c6bd6451aaa389aca35028a07237b4d77ef9e7c8dedc3086199b5798de5b38e2e69d44718a83a98c837008c01257d4b71e9987a8bebc50e679fb37f8be3b588286fd2411eae3c9ece31068e03277f4973eb9a7889e9c70c659db17d89e1b78a2a6dd0431cac3e9ccc3304800d2971477de5947687e7c9026b93bf7387efb9842463de4d12a23092c23d0a820f2b73457fe7967485e5cb006991bd7185edbb862661dc4f10a03290c03f0884092d754379e1907283e3cd066f97bb7783ebbd802067da4916a63496c6390e860b2f77417be3927081e1cf046d95b97581e9bf822265d84b14a43694c43b0c880521794f75ed9c7e8fefc10a639bb77b8fe7b18c2c6bd6451aaa389aca35028a07237b4d77ef9e7c8dedc3086199b5798de5b38e2e69d44718a83a98c837008c01257d4b71e9987a8bebc50e679fb37f8be3b588286fd2411eae3c9ece31068e03277f4973eb9a7889e9c70c659db17d89e1b78a2a6dd0431cac3e9ccc3304800d2971477de5947687e7c9026b93bf7387efb9842463de4d12a23092c23d0a820f2b73457fe7967485e5cb006991bd7185edbb862661dc4f10a03290c03f0884092d754379e1907283e3cd066f97bb7783ebbd802067da4916a63496c6390e860b2f77417be3927081e1cf046d95b97581e9bf822265d84b14a43694c43b0c880521794f75ed9c7e8fefc10a639bb77b8fe7b18c2c6bd6451aaa389aca35028a07237b4d77ef9e7c8dedc3086199b5798de5b38e2e69d44718a83a98c837008c01257d4b71e9987a8bebc50e679fb37f8be3b588286fd2411eae3c9ece31068e03277f4973eb9a7889e9c70c659db17d89e1b78a2a6dd0431cac3e9ccc3304800d2971477de5947687e7c9026b93bf7a2f847fbdaded3d92e6c4497a52aa0d82e3aa38600fd7dbffd7f45bdceae09aa",
        "hex": "6a207893f256771ad80a6b878b06829c5389a78d30bf841bf9d33c394b75ac7a88d34db00480521794f75ed9c7e8fefc10a639bb77b8fe7b18c2c6bd6451aaa389aca35028a07237b4d77ef9e7c8dedc3086199b5798de5b38e2e69d44718a83a98c837008c01257d4b71e9987a8bebc50e679fb37f8be3b588286fd2411eae3c9ece31068e03277f4973eb9a7889e9c70c659db17d89e1b78a2a6dd0431cac3e9ccc3304800d2971477de5947687e7c9026b93bf7387efb9842463de4d12a23092c23d0a820f2b73457fe7967485e5cb006991bd7185edbb862661dc4f10a03290c03f0884092d754379e1907283e3cd066f97bb7783ebbd802067da4916a63496c6390e860b2f77417be3927081e1cf046d95b97581e9bf822265d84b14a43694c43b0c880521794f75ed9c7e8fefc10a639bb77b8fe7b18c2c6bd6451aaa389aca35028a07237b4d77ef9e7c8dedc3086199b5798de5b38e2e69d44718a83a98c837008c01257d4b71e9987a8bebc50e679fb37f8be3b588286fd2411eae3c9ece31068e03277f4973eb9a7889e9c70c659db17d89e1b78a2a6dd0431cac3e9ccc3304800d2971477de5947687e7c9026b93bf7387efb9842463de4d12a23092c23d0a820f2b73457fe7967485e5cb006991bd7185edbb862661dc4f10a03290c03f0884092d754379e1907283e3cd066f97bb7783ebbd802067da4916a63496c6390e860b2f77417be3927081e1cf046d95b97581e9bf822265d84b14a43694c43b0c880521794f75ed9c7e8fefc10a639bb77b8fe7b18c2c6bd6451aaa389aca35028a07237b4d77ef9e7c8dedc3086199b5798de5b38e2e69d44718a83a98c837008c01257d4b71e9987a8bebc50e679fb37f8be3b588286fd2411eae3c9ece31068e03277f4973eb9a7889e9c70c659db17d89e1b78a2a6dd0431cac3e9ccc3304800d2971477de5947687e7c9026b93bf7387efb9842463de4d12a23092c23d0a820f2b73457fe7967485e5cb006991bd7185edbb862661dc4f10a03290c03f0884092d754379e1907283e3cd066f97bb7783ebbd802067da4916a63496c6390e860b2f77417be3927081e1cf046d95b97581e9bf822265d84b14a43694c43b0c880521794f75ed9c7e8fefc10a639bb77b8fe7b18c2c6bd6451aaa389aca35028a07237b4d77ef9e7c8dedc3086199b5798de5b38e2e69d44718a83a98c837008c01257d4b71e9987a8bebc50e679fb37f8be3b588286fd2411eae3c9ece31068e03277f4973eb9a7889e9c70c659db17d89e1b78a2a6dd0431cac3e9ccc3304800d2971477de5947687e7c9026b93bf7387efb9842463de4d12a23092c23d0a820f2b73457fe7967485e5cb006991bd7185edbb862661dc4f10a03290c03f0884092d754379e1907283e3cd066f97bb7783ebbd802067da4916a63496c6390e860b2f77417be3927081e1cf046d95b97581e9bf822265d84b14a43694c43b0c880521794f75ed9c7e8fefc10a639bb77b8fe7b18c2c6bd6451aaa389aca35028a07237b4d77ef9e7c8dedc3086199b5798de5b38e2e69d44718a83a98c837008c01257d4b71e9987a8bebc50e679fb37f8be3b588286fd2411eae3c9ece31068e03277f4973eb9a7889e9c70c659db17d89e1b78a2a6dd0431cac3e9ccc3304800d2971477de5947687e7c9026b93bf7a2f847fbdaded3d92e6c4497a52aa0d82e3aa38600fd7dbffd7f45bdceae09aa",
        "type": "nulldata"
      }
    },
    {
      "value": 499986.7803,
      "n": 1,
      "scriptPubKey": {
        "asm": "1 71791ec018387875040454329f7ea08b0a80007492b7de99095d5cafc3638c6e",
        "hex": "512071791ec018387875040454329f7ea08b0a80007492b7de99095d5cafc3638c6e",
        "reqSigs": 1,
        "type": "witness_v1_scripthash",
        "addresses": [
          "3QJmnh"
        ]
      }
    }
  ],
  "blockhash": "a1887b0a0b2991e806ccea2240d48d15dc99191e60c31f7623b06398d7a984df",
  "confirmations": 1,
  "time": 1764178092,
  "blocktime": 1764178092
}