{
  "hex": "010000000001010919996bec05e62c7f9f21be6173cce997f62f3df9b56107d23e54682f267d590000000000feffffff0210cdd4fc782d00002251205c1b44a81b288c20f983d258d12eb72d8beaf9283fecf1b8f5fb2ba0ecf5f26600e1f50500000000fdd5046a205c9d9f739fda17a56d4f1360b75b1ae82948a82b3459718f46ea0c2c731ce6fb4db004c13d52c43e1778c3ff31414af09e72c33eb7f7a6c7228bea4c05ca63726bda56e11d72e41e3758e3df11616ad0be52e31e97d786e702abca6c25ea43524bfa76817d12847e573883bf71010ab0de32837ef7b7e68762cbaa0c458a23322b9a16a15d32a45e7718a39f51212a90fe12a35ed797c6a742eb8a2c65aa03120bba3641bdd244be97f8437fb1c1ca701ef243be37772647a20b6acc854ae3f2eb5ad6619df2649eb7d8635f91e1ea503ed2639e17570667822b4aeca56ac3d2cb7af601fd9204fed7b8033ff1818a305eb203fe77376607e24b2a8cc50aa3b2ab1a9621ddb224def798231fd1a1aa107e9223de57174627c26b0aace52a83928b3ab6c13d52c43e1778c3ff31414af09e72c33eb7f7a6c7228bea4c05ca63726bda56e11d72e41e3758e3df11616ad0be52e31e97d786e702abca6c25ea43524bfa76817d12847e573883bf71010ab0de32837ef7b7e68762cbaa0c458a23322b9a16a15d32a45e7718a39f51212a90fe12a35ed797c6a742eb8a2c65aa03120bba3641bdd244be97f8437fb1c1ca701ef243be37772647a20b6acc854ae3f2eb5ad6619df2649eb7d8635f91e1ea503ed2639e17570667822b4aeca56ac3d2cb7af601fd9204fed7b8033ff1818a305eb203fe77376607e24b2a8cc50aa3b2ab1a9621ddb224def798231fd1a1aa107e9223de57174627c26b0aace52a83928b3ab6c13d52c43e1778c3ff31414af09e72c33eb7f7a6c7228bea4c05ca63726bda56e11d72e41e3758e3df11616ad0be52e31e97d786e702abca6c25ea43524bfa76817d12847e573883bf71010ab0de32837ef7b7e68762cbaa0c458a23322b9a16a15d32a45e7718a39f51212a90fe12a35ed797c6a742eb8a2c65aa03120bba3641bdd244be97f8437fb1c1ca701ef243be37772647a20b6acc854ae3f2eb5ad6619df2649eb7d8635f91e1ea503ed2639e17570667822b4aeca56ac3d2cb7af601fd9204fed7b8033ff1818a305eb203fe77376607e24b2a8cc50aa3b2ab1a9621ddb224def798231fd1a1aa107e9223de57174627c26b0aace52a83928b3ab6c13d52c43e1778c3ff31414af09e72c33eb7f7a6c7228bea4c05ca63726bda56e11d72e41e3758e3df11616ad0be52e31e97d786e702abca6c25ea43524bfa76817d12847e573883bf71010ab0de32837ef7b7e68762cbaa0c458a23322b9a16a15d32a45e7718a39f51212a90fe12a35ed797c6a742eb8a2c65aa03120bba3641bdd244be97f8437fb1c1ca701ef243be37772647a20b6acc854ae3f2eb5ad6619df2649eb7d8635f91e1ea503ed2639e17570667822b4aeca56ac3d2cb7af601fd9204fed7b8033ff1818a305eb203fe77376607e24b2a8cc50aa3b2ab1a9621ddb224def798231fd1a1aa107e9223de57174627c26b0aace52a83928b3ab6c13d52c43e1778c3ff31414af09e72c33eb7f7a6c7228bea4c05ca63726bda56e11d72e41e3758e3df11616ad0be52e31e97d786e702abca6c25ea43524bfa76817d12847e573883bf71010ab0de32837ef7b7e68762cbaa0c458a23322b9a16a15d32a45e7718a39f51212a90fe12a35ed797c6a742eb8a2c65aa03120bba3641bdd244be97f8437fb1c1ca701ef24370d0fe28f825c824db489ee02dc356a3cbe1a57ff10d0201b68182bc6f29098b02fd75097fa6c1226de3ba92e1ef400cd6c69621a9ab2c833d0ead90f419a96f3a160fe02b21c99a5a4069cf7873d51a09ca2b7a4d9b24349d2aa67d1ae01ada6d6a05ee962bb6fd3b043071cb902838671f2f00e11b5c2f630e64d4bffcd81b62c64f4040e53eb2b88f78dbb05de596ddd883f1f6ac2ae5e55b009b8ca09b3034d2b93ad1f2f5eec169f447b406d1a6cae3808c5504f1ca0e99f65ce853372e2ba8f2f6dc3798c0a4b939795c93f6432b8cd2319a36c210c7166f899178040783e1e2766d18d0763dd9f71a64fdb4b47a403bb43d2d409925f56832f77fc8cea6bc80f35633217310e384368ac8ed196736dc64284815348a5d55ad03532d16ec6c84144df20d49c2d77452ec5488bcf6d66ca12243ed59dbfb165e9860fc1138a19f25ad2afc6fa8ef112194921d8b07e7447a804754f15ae98934fe70ccb7a5b9fc2df930966af40fea804eabb434aa4b0b8a60426182cc2fe178a6267ce7361bd8123e3475554538c3c7ec8dbf053ba4de0acf65a1c89075de9c35365ffb16b764c533d1b7c030912569d4130de20ce7b1032f841c1ea7f1c186c3796482dacf2d4d9608b130c516be86e68c04ff344a34e6439b49dd919cb0b0dfbe2feaa24e1caffbd5e9f2926fc1102c846de2e78b22d08db1975004a952737defbd7fe697af551a0bac40aee3ef36e413525080bab49c8b7e02dd873df1a276ba198d50b23f65df41a8bbb2d5ac6a4203e636ac17fff58e695b165acfa232a326868cd42aadc43aae6d7b7cc78ad0c5137f57d14a762b2d1154779e1a61baa22de304366155ccc47e062697d71668f870327c50e78c223eb66a1eca5b82721579232d8f1629b50587225681a027bd90cb40644b8031399f5df1673ac4dc42c250afd3511d311e6f5b506214b4f6a10742bde572c6c834e5cda5f84d79ff33d3df5799aec8b087d08cca65653d5c308fd2cea44ba68384c9e413595ab37021d48964ff4f479ffce0ebd58802f8048e7cce02609c6b145ed1dca35a166c8b863cc761247832b060cbef137babb3ef3736ab1df3a4d4980dd3b2d15bfee9d24e82d5a7a60b08198bb313c578790612ed642c429769bd638f83aed197845bc072a0a15aa3aee17f969074b8bfe5038ed253ab357c326e07dfd1676a089a67a7362a7f151a09f3b2705057263a8fe15ff910180541ad0a41adbbf39ab9d5dee04ac420e4979c23eaa739a405f6b5e1a889b5de147df9f45d1a9de683578f00a5a0ead7c24c410eda9c36e5eb632556c1dc91f3d3526e42abbdd974ab2da54d950fb1eec194a6c68bcd08ada8ba9c062f1c4b2e3dca7ac74de52a201a8b60becf4bee6137faf30c9933a2b9f5e723006955c86fc4198ef2364430e9611d2d43256d12367fd9460b5c35ad871eac4afda6855314d9f197aa64bc460a84aa2ee9ebc5d2c19d77df56876082a5681402c6fcbb214cfd4f5c7c6424d145280b4f4b798867b8d6f1e79e0e8c2b5c89e9430c016bf34b3b542a32826573cf56dc992a6035b423358c1fd775c0215a2ab104c170ce011d3fa93ed03528c758003fa4215d63dafdcff38210b5bd4a1bdee9213abd5723df4b5c228cd4cee2de3b97a845c7e4b48e145386f33e0923fd3d004a89201a1dff05b26cd584c2175487e153fd8fde6850bb80e39a631a33aaae11a5439eab4c6a56a0715d8e920f61b3d703186f48a1d5d3eb5df947a956a85db2ef5f706916ee85d718d5312b5e58ba3419764c50028d597aeb1763f3ac37cc8bcbcca5d0ef98ef71e900e323b9b7e5c5535f57a5503a0e130506488c6da242aa0620eee4a5ee7e3f07f0c271593a4d1af78c905b39dd901737b7b72bcfe6d47ee0bb7085ffe57cba351c35893c4f493f120794022fb4716c8d5593de5c5942851ba89fabb40fc4361e0f6c6ce8ada3a2d2ed671db2a03c7225befc85a0a0a2faad942ba706d8a097d8f1ddd4d7caf8721a95461a9dcbb53ffdd6745af194ba406b4d333cba031674629c60ed1a3044733e89bd026af878cea47597eda684065e178841a1d1108aa1126b5ea653d9cc04a198542cfc66916ee18c4b9a11f2edb02941041d020d46bd02902377a78e57ae30bf9bd5fcda9bef28c73e2ec616e7977eb81ac2efbfdbd0739e286c3227f62a723c07c2fb7179ad065630713bca3c0d04cbf945a1806e8b87d0bfbf91411a179c4e9dcb75fb4fd59654bd2635d2b800c5b4c544b10f98b17e905e48524663b12347fe02a7ac09596a62609c44e325b5a50b3efc0b00b54ad162a1cb2f28902febe17de3dcd9229aad156693effe1cb0b80384f2eba06c7441de59d0d6a4f41ed270422bb642eb3ccd71e2580f3b9cc0fe27065c1eaac0cec8ed61df8f510716883097ca830f6410411575ca12a9e20c26384f6c255f304f9944e348fbed45c322fbbab2d5a3c24c3d94d7e6eabd5bec9990077a4f19ccc247f6351dc3e5cbcaabe6dd1033c05629c95fbbcdac74ff5c71491af645723ca9cb600566eeda43e293ba73c4fd7325a95cdb68ae398356664a7e9b8baf5d8ead0098460cb1e3ecac7741b5f9dab69e8d41940951e1d01204c149846d293c9fe912fbeeaf4c65262f849a28e5bf968baee7f777574e9768f5747448a348a6a10e53967f67ca40290ce7e965564f304d948966cf5732dbe6ec7a3751f350d8b564c15676926503dd28a7e349a5ff3699f716f6278d092b8cdb4b890c531ad6b7225a295e5966f0f7146e0d31beba061337b69a161e4cd1b6ad3ae9d727a7756ba4f12d1cca0998ffa127d05e488d122387dd14f76a3d330695803790736f3407a26916ec96299448f906908f5e4b25eb1e6ee506774236da92e722d5cd901183bf189960ec1c2b69efe714ef609a8026cb242b61d09b7cfcfe03ceebaca3c0d96fb6592c85f13dbcaba3c51fb4285295087026ccf629c0a25b1ad97ddeef0424074e3d51ac3cccf457fcdd90bd8419603321e2b6eecbc726483ae5c4db79497db36de23bc3550afe7dbfefaa1e6a4c8b9ea4371a4b85f80bfbdb0a7382cbc6964c76328d878ce077aad751deb78365386e4041676abe99358702c7afa5bf67847743b4cb2ee8f2cd4c63a5ce1eee17ddf6fd69f962e6fa2b69de10505e11a408a66894102dedc04077d0247cd3252aac4d9cabbfaf68ef4c9b2f69fb03fd63276ecb4a8f55c41c95cf928ffc72c5f838cc758aac0049b5f40075fd3216fe2262bd26c6d54c03b159fc8d842ff7ac170de7b722cb6e696f67276244cd16384dd92e4c050c45e786ab8e7f44eb513ea2750b07ab8418040b0e11283b3f5987a2adb5c2d2d3dfe40d1024262a4b585b6f7a7f8293abb1c2ceeaf2f4ff031921275c646f767aa0a2b8f2ff03060c2c2f3a4c61647f8ec2effd00000000000000000000000000001126344201fd210500eb8aff7d89c7f948ad89d0334bd6b5b23caba3ac691440148d4c0749a33924df30e125b8afa623cd48aac42cea890731a55983513dce4021acf8971e3b6f9a81203f7251a2283e258dde30d1b43fcf3e203d0966be555efbdfa7eeafce144e613b1a3af40dc9660179cf79ef0b12fcd8d1649a36e64c226ebe34eeebcd5c96925a48af3f8d4bf38ba9dd4e52ba31b22161e939ab2d93c77ea0544751516ec2b455aec9dd97452b4f6e07d6b4ee44a8b10cef3ddf21b627cf5026280c41bd3e206c038213c55c2ab3afa160f593d9cff391880c0fb84860f99859cb5ba7a68f547305b811b424efd87e821ef48cf4a0ba57fc1ebf930414a8dac4bf935815035dddd2f33c2d9dc80a3b4947c3d96af352a5e9b005e24544979c516195bdf7a7b5ddff18512e051f2f330849ff9e31de50179ea52f9eb0ef79dc4d72b549e56be89ab6ebefe829e2cbaaa4adb4830c8f08bf303d13cdbc39bbabe1a4a1064d38777b6b80002c355c42a9ac8698fc743f05a51eec6e8d4fce0b6abbdd0505e4f3bbada4263094babe98c7fbd2cfb376d0d42a3f3004431b1081f228a556685bc74b18083a51c70da8bf6b183e10b4c13dd37505fd91e33ce1179ed567d1c63af1d546426402a481be566592a82267d321c819cdc4938058e9c0bbfc0c27cf989d42785ea3cc1915f504cb47cc5dee070a01dc7236316d0d06700418f6a1917889c6e0827b618a1833ac03dfaef5279f85c2151e7a87c6ceb15f587febe94178cc090fc39b4719b25e692600d9318aebf25df698f2706d4d0a693a722e307c825e540557e6111bc7238677a2bf93aeb8ef142587dfe3664bb3184a69b6f9934a2f1a2aab479a9814b1e4625bbd35859b3c9da5671ee41e2c98b99262b5617e12d2a6cd5d7d3f80f104e9e6a118b45c8737d1c743cda938c1c69cb5a9005ffc134a8574f64a9ba638e0ccb1adb46e8a2ae6fb5f738cd4f32279255b86dad0d6c5d52bed52c2913c579bbaa26f432684c07f431372b4466f2c8ff5078bba7ee6d8549ab8e734f3cf23df6ffecfc99e73169cce6238eec5b2ee7d90da04ae5188fd217f42f258e054172b0fa74838ca217f1578628315a2182b9169eb9a9fe7c8dd01e5b0c03e25ab7aa101a040616ca4fbdf077311e0c76fdb3bcc064ba02a78f916acbc0215385e83260c26ebcae0bb885f2cf347ae153241c62c06e555a56e2e844a2c8cd20352e234eb40389fc6ef87f4296f2a45ebf464f5f4ec7953f53706617c98e3889695837f9b771eaac80fda6496a1292fbaeb3948685a5817e2d615a0d97e8634d12d13fc1181bcb3c568c0b73a2bf8afb72d01a56c87b1d4c65445d99bd2b6b131ac88f1b63db8422547c8a8fa71352f733c64146de994db1ced251e83a29e1c8fd4f7d7f85edb2df4218d1b8a19ff44988d606af8ae1b9d7fe78434852dae5645ae468320b33fb0d35b8714e3257a872c16471f9390a45431b6002751635a353b263b521d0f29cfdbae4109c406cbb381b1d31f08bd0cb9b0b84ad70a7b987b472a73855f78042e639e518f3d5b5ff8255b3bc12e2ec67321da15008173ff8cbc818f1d4718908bc51ef05995f93c12cdd29ab5301d959b54870b0bd51a4c36215732e002c6ae733699fc2bf35fcb6242903d17c84f6de8f25831a072599e1c540936cc15dad4079383c01df6c41270a1fbb6908648645ac62ca03f1a34bf7618368cdda1fbe9e746bc2bbabb53fc9e60b2b4d34b035c8eb77901c44a542cbe91ded4e8d2cad7548c95e4ba39cac12b6d14533950b490f7884892313db10b3155048f914bf77ac2b548bf38bc9271407531053162e5cdb46ab9d0074f7b000000",
  "txid": "11a64bd892dd2811a418b7f82bceaa5475229920a77fd3c6a4e01fd30c05d93f",
  "hash": "ea4c5dc2120bc93a1961db61908d56355af17d8511bacf4d4a6c07f1eaf673e0",
  "size": 5085,
  "vsize": 2278,
  "version": 1,
  "locktime": 123,
  "vin": [
    {
      "txid": "597d262f68543ed20761b5f93d2ff697e9cc7361be219f7f2ce605ec6b991909",
      "vout": 0,
      "scriptSig": {
        "asm": "",
        "hex": ""
      },
      "txinwitness": [
        "7fa6c1226de3ba92e1ef400cd6c69621a9ab2c833d0ead90f419a96f3a160fe02b21c99a5a4069cf7873d51a09ca2b7a4d9b24349d2aa67d1ae01ada6d6a05ee962bb6fd3b043071cb902838671f2f00e11b5c2f630e64d4bffcd81b62c64f4040e53eb2b88f78dbb05de596ddd883f1f6ac2ae5e55b009b8ca09b3034d2b93ad1f2f5eec169f447b406d1a6cae3808c5504f1ca0e99f65ce853372e2ba8f2f6dc3798c0a4b939795c93f6432b8cd2319a36c210c7166f899178040783e1e2766d18d0763dd9f71a64fdb4b47a403bb43d2d409925f56832f77fc8cea6bc80f35633217310e384368ac8ed196736dc64284815348a5d55ad03532d16ec6c84144df20d49c2d77452ec5488bcf6d66ca12243ed59dbfb165e9860fc1138a19f25ad2afc6fa8ef112194921d8b07e7447a804754f15ae98934fe70ccb7a5b9fc2df930966af40fea804eabb434aa4b0b8a60426182cc2fe178a6267ce7361bd8123e3475554538c3c7ec8dbf053ba4de0acf65a1c89075de9c35365ffb16b764c533d1b7c030912569d4130de20ce7b1032f841c1ea7f1c186c3796482dacf2d4d9608b130c516be86e68c04ff344a34e6439b49dd919cb0b0dfbe2feaa24e1caffbd5e9f2926fc1102c846de2e78b22d08db1975004a952737defbd7fe697af551a0bac40aee3ef36e413525080bab49c8b7e02dd873df1a276ba198d50b23f65df41a8bbb2d5ac6a4203e636ac17fff58e695b165acfa232a326868cd42aadc43aae6d7b7cc78ad0c5137f57d14a762b2d1154779e1a61baa22de304366155ccc47e062697d71668f870327c50e78c223eb66a1eca5b82721579232d8f1629b50587225681a027bd90cb40644b8031399f5df1673ac4dc42c250afd3511d311e6f5b506214b4f6a10742bde572c6c834e5cda5f84d79ff33d3df5799aec8b087d08cca65653d5c308fd2cea44ba68384c9e413595ab37021d48964ff4f479ffce0ebd58802f8048e7cce02609c6b145ed1dca35a166c8b863cc761247832b060cbef137babb3ef3736ab1df3a4d4980dd3b2d15bfee9d24e82d5a7a60b08198bb313c578790612ed642c429769bd638f83aed197845bc072a0a15aa3aee17f969074b8bfe5038ed253ab357c326e07dfd1676a089a67a7362a7f151a09f3b2705057263a8fe15ff910180541ad0a41adbbf39ab9d5dee04ac420e4979c23eaa739a405f6b5e1a889b5de147df9f45d1a9de683578f00a5a0ead7c24c410eda9c36e5eb632556c1dc91f3d3526e42abbdd974ab2da54d950fb1eec194a6c68bcd08ada8ba9c062f1c4b2e3dca7ac74de52a201a8b60becf4bee6137faf30c9933a2b9f5e723006955c86fc4198ef2364430e9611d2d43256d12367fd9460b5c35ad871eac4afda6855314d9f197aa64bc460a84aa2ee9ebc5d2c19d77df56876082a5681402c6fcbb214cfd4f5c7c6424d145280b4f4b798867b8d6f1e79e0e8c2b5c89e9430c016bf34b3b542a32826573cf56dc992a6035b423358c1fd775c0215a2ab104c170ce011d3fa93ed03528c758003fa4215d63dafdcff38210b5bd4a1bdee9213abd5723df4b5c228cd4cee2de3b97a845c7e4b48e145386f33e0923fd3d004a89201a1dff05b26cd584c2175487e153fd8fde6850bb80e39a631a33aaae11a5439eab4c6a56a0715d8e920f61b3d703186f48a1d5d3eb5df947a956a85db2ef5f706916ee85d718d5312b5e58ba3419764c50028d597aeb1763f3ac37cc8bcbcca5d0ef98ef71e900e323b9b7e5c5535f57a5503a0e130506488c6da242aa0620eee4a5ee7e3f07f0c271593a4d1af78c905b39dd901737b7b72bcfe6d47ee0bb7085ffe57cba351c35893c4f493f120794022fb4716c8d5593de5c5942851ba89fabb40fc4361e0f6c6ce8ada3a2d2ed671db2a03c7225befc85a0a0a2faad942ba706d8a097d8f1ddd4d7caf8721a95461a9dcbb53ffdd6745af194ba406b4d333cba031674629c60ed1a3044733e89bd026af878cea47597eda684065e178841a1d1108aa1126b5ea653d9cc04a198542cfc66916ee18c4b9a11f2edb02941041d020d46bd02902377a78e57ae30bf9bd5fcda9bef28c73e2ec616e7977eb81ac2efbfdbd0739e286c3227f62a723c07c2fb7179ad065630713bca3c0d04cbf945a1806e8b87d0bfbf91411a179c4e9dcb75fb4fd59654bd2635d2b800c5b4c544b10f98b17e905e48524663b12347fe02a7ac09596a62609c44e325b5a50b3efc0b00b54ad162a1cb2f28902febe17de3dcd9229aad156693effe1cb0b80384f2eba06c7441de59d0d6a4f41ed270422bb642eb3ccd71e2580f3b9cc0fe27065c1eaac0cec8ed61df8f510716883097ca830f6410411575ca12a9e20c26384f6c255f304f9944e348fbed45c322fbbab2d5a3c24c3d94d7e6eabd5bec9990077a4f19ccc247f6351dc3e5cbcaabe6dd1033c05629c95fbbcdac74ff5c71491af645723ca9cb600566eeda43e293ba73c4fd7325a95cdb68ae398356664a7e9b8baf5d8ead0098460cb1e3ecac7741b5f9dab69e8d41940951e1d01204c149846d293c9fe912fbeeaf4c65262f849a28e5bf968baee7f777574e9768f5747448a348a6a10e53967f67ca40290ce7e965564f304d948966cf5732dbe6ec7a3751f350d8b564c15676926503dd28a7e349a5ff3699f716f6278d092b8cdb4b890c531ad6b7225a295e5966f0f7146e0d31beba061337b69a161e4cd1b6ad3ae9d727a7756ba4f12d1cca0998ffa127d05e488d122387dd14f76a3d330695803790736f3407a26916ec96299448f906908f5e4b25eb1e6ee506774236da92e722d5cd901183bf189960ec1c2b69efe714ef609a8026cb242b61d09b7cfcfe03ceebaca3c0d96fb6592c85f13dbcaba3c51fb4285295087026ccf629c0a25b1ad97ddeef0424074e3d51ac3cccf457fcdd90bd8419603321e2b6eecbc726483ae5c4db79497db36de23bc3550afe7dbfefaa1e6a4c8b9ea4371a4b85f80bfbdb0a7382cbc6964c76328d878ce077aad751deb78365386e4041676abe99358702c7afa5bf67847743b4cb2ee8f2cd4c63a5ce1eee17ddf6fd69f962e6fa2b69de10505e11a408a66894102dedc04077d0247cd3252aac4d9cabbfaf68ef4c9b2f69fb03fd63276ecb4a8f55c41c95cf928ffc72c5f838cc758aac0049b5f40075fd3216fe2262bd26c6d54c03b159fc8d842ff7ac170de7b722cb6e696f67276244cd16384dd92e4c050c45e786ab8e7f44eb513ea2750b07ab8418040b0e11283b3f5987a2adb5c2d2d3dfe40d1024262a4b585b6f7a7f8293abb1c2ceeaf2f4ff031921275c646f767aa0a2b8f2ff03060c2c2f3a4c61647f8ec2effd00000000000000000000000000001126344201",
        "00eb8aff7d89c7f948ad89d0334bd6b5b23caba3ac691440148d4c0749a33924df30e125b8afa623cd48aac42cea890731a55983513dce4021acf8971e3b6f9a81203f7251a2283e258dde30d1b43fcf3e203d0966be555efbdfa7eeafce144e613b1a3af40dc9660179cf79ef0b12fcd8d1649a36e64c226ebe34eeebcd5c96925a48af3f8d4bf38ba9dd4e52ba31b22161e939ab2d93c77ea0544751516ec2b455aec9dd97452b4f6e07d6b4ee44a8b10cef3ddf21b627cf5026280c41bd3e206c038213c55c2ab3afa160f593d9cff391880c0fb84860f99859cb5ba7a68f547305b811b424efd87e821ef48cf4a0ba57fc1ebf930414a8dac4bf935815035dddd2f33c2d9dc80a3b4947c3d96af352a5e9b005e24544979c516195bdf7a7b5ddff18512e051f2f330849ff9e31de50179ea52f9eb0ef79dc4d72b549e56be89ab6ebefe829e2cbaaa4adb4830c8f08bf303d13cdbc39bbabe1a4a1064d38777b6b80002c355c42a9ac8698fc743f05a51eec6e8d4fce0b6abbdd0505e4f3bbada4263094babe98c7fbd2cfb376d0d42a3f3004431b1081f228a556685bc74b18083a51c70da8bf6b183e10b4c13dd37505fd91e33ce1179ed567d1c63af1d546426402a481be566592a82267d321c819cdc4938058e9c0bbfc0c27cf989d42785ea3cc1915f504cb47cc5dee070a01dc7236316d0d06700418f6a1917889c6e0827b618a1833ac03dfaef5279f85c2151e7a87c6ceb15f587febe94178cc090fc39b4719b25e692600d9318aebf25df698f2706d4d0a693a722e307c825e540557e6111bc7238677a2bf93aeb8ef142587dfe3664bb3184a69b6f9934a2f1a2aab479a9814b1e4625bbd35859b3c9da5671ee41e2c98b99262b5617e12d2a6cd5d7d3f80f104e9e6a118b45c8737d1c743cda938c1c69cb5a9005ffc134a8574f64a9ba638e0ccb1adb46e8a2ae6fb5f738cd4f32279255b86dad0d6c5d52bed52c2913c579bbaa26f432684c07f431372b4466f2c8ff5078bba7ee6d8549ab8e734f3cf23df6ffecfc99e73169cce6238eec5b2ee7d90da04ae5188fd217f42f258e054172b0fa74838ca217f1578628315a2182b9169eb9a9fe7c8dd01e5b0c03e25ab7aa101a040616ca4fbdf077311e0c76fdb3bcc064ba02a78f916acbc0215385e83260c26ebcae0bb885f2cf347ae153241c62c06e555a56e2e844a2c8cd20352e234eb40389fc6ef87f4296f2a45ebf464f5f4ec7953f53706617c98e3889695837f9b771eaac80fda6496a1292fbaeb3948685a5817e2d615a0d97e8634d12d13fc1181bcb3c568c0b73a2bf8afb72d01a56c87b1d4c65445d99bd2b6b131ac88f1b63db8422547c8a8fa71352f733c64146de994db1ced251e83a29e1c8fd4f7d7f85edb2df4218d1b8a19ff44988d606af8ae1b9d7fe78434852dae5645ae468320b33fb0d35b8714e3257a872c16471f9390a45431b6002751635a353b263b521d0f29cfdbae4109c406cbb381b1d31f08bd0cb9b0b84ad70a7b987b472a73855f78042e639e518f3d5b5ff8255b3bc12e2ec67321da15008173ff8cbc818f1d4718908bc51ef05995f93c12cdd29ab5301d959b54870b0bd51a4c36215732e002c6ae733699fc2bf35fcb6242903d17c84f6de8f25831a072599e1c540936cc15dad4079383c01df6c41270a1fbb6908648645ac62ca03f1a34bf7618368cdda1fbe9e746bc2bbabb53fc9e60b2b4d34b035c8eb77901c44a542cbe91ded4e8d2cad7548c95e4ba39cac12b6d14533950b490f7884892313db10b3155048f914bf77ac2b548bf38bc9271407531053162e5cdb46ab9d0074f"
      ],
      "sequence": 4294967294
    }
  ],
  "vout": [
    {
      "value": 499976.6113,
      "n": 0,
      "scriptPubKey": {
        "asm": "1 5c1b44a81b288c20f983d258d12eb72d8beaf9283fecf1b8f5fb2ba0ecf5f266",
        "hex": "51205c1b44a81b288c20f983d258d12eb72d8beaf9283fecf1b8f5fb2ba0ecf5f266",
        "reqSigs": 1,
        "type": "witness_v1_scripthash",
        "addresses": [
          "3QJmnh"
        ]
      }
    },
    {
      "value": 1.0,
      "n": 1,
      "scriptPubKey": {
        "asm": "OP_RETURN 5c9d9f739fda17a56d4f1360b75b1ae82948a82b3459718f46ea0c2c731ce6fb c13d52c43e1778c3ff31414af09e72c33eb7f7a6c7228bea4c05ca63726bda56e11d72e41e3758e3df11616ad0be52e31e97d786e702abca6c25ea43524bfa76817d12847e573883bf71010ab0de32837ef7b7e68762cbaa0c458a23322b9a16a15d32a45e7718a39f51212a90fe12a35ed797c6a742eb8a2c65aa03120bba3641bdd244be97f8437fb1c1ca701ef243be37772647a20b6acc854ae3f2eb5ad6619df2649eb7d8635f91e1ea503ed2639e17570667822b4aeca56ac3d2cb7af601fd9204fed7b8033ff1818a305eb203fe77376607e24b2a8cc50aa3b2ab1a9621ddb224def798231fd1a1aa107e9223de57174627c26b0aace52a83928b3ab6c13d52c43e1778c3ff31414af09e72c33eb7f7a6c7228bea4c05ca63726bda56e11d72e41e3758e3df11616ad0be52e31e97d786e702abca6c25ea43524bfa76817d12847e573883bf71010ab0de32837ef7b7e68762cbaa0c458a23322b9a16a15d32a45e7718a39f51212a90fe12a35ed797c6a742eb8a2c65aa03120bba3641bdd244be97f8437fb1c1ca701ef243be37772647a20b6acc854ae3f2eb5ad6619df2649eb7d8635f91e1ea503ed2639e17570667822b4aeca56ac3d2cb7af601fd9204fed7b8033ff1818a305eb203fe77376607e24b2a8cc50aa3b2ab1a9621ddb224def798231fd1a1aa107e9223de57174627c26b0aace52a83928b3ab6c13d52c43e1778c3ff31414af09e72c33eb7f7a6c7228bea4c05ca63726bda56e11d72e41e3758e3df11616ad0be52e31e97d786e702abca6c25ea43524bfa76817d12847e573883bf71010ab0de32837ef7b7e68762cbaa0c458a23322b9a16a15d32a45e7718a39f51212a90fe12a35ed797c6a742eb8a2c65aa03120bba3641bdd244be97f8437fb1c1ca701ef243be37772647a20b6acc854ae3f2eb5ad6619df2649eb7d8635f91e1ea503ed2639e17570667822b4aeca56ac3d2cb7af601fd9204fed7b8033ff1818a305eb203fe77376607e24b2a8cc50aa3b2ab1a9621ddb224def798231fd1a1aa107e9223de57174627c26b0aace52a83928b3ab6c13d52c43e1778c3ff31414af09e72c33eb7f7a6c7228bea4c05ca63726bda56e11d72e41e3758e3df11616ad0be52e31e97d786e702abca6c25ea43524bfa76817d12847e573883bf71010ab0de32837ef7b7e68762cbaa0c458a23322b9a16a15d32a45e7718a39f51212a90fe12a35ed797c6a742eb8a2c65aa03120bba3641bdd244be97f8437fb1c1ca701ef243be37772647a20b6acc854ae3f2eb5ad6619df2649eb7d8635f91e1ea503ed2639e17570667822b4aeca56ac3d2cb7af601fd9204fed7b8033ff1818a305eb203fe77376607e24b2a8cc50aa3b2ab1a9621ddb224def798231fd1a1aa107e9223de57174627c26b0aace52a83928b3ab6c13d52c43e1778c3ff31414af09e72c33eb7f7a6c7228bea4c05ca63726bda56e11d72e41e3758e3df11616ad0be52e31e97d786e702abca6c25ea43524bfa76817d12847e573883bf71010ab0de32837ef7b7e68762cbaa0c458a23322b9a16a15d32a45e7718a39f51212a90fe12a35ed797c6a742eb8a2c65aa03120bba3641bdd244be97f8437fb1c1ca701ef24370d0fe28f825c824db489ee02dc356a3cbe1a57ff10d0201b68182bc6f29098b",
        "hex": "6a205c9d9f739fda17a56d4f1360b75b1ae82948a82b3459718f46ea0c2c731ce6fb4db004c13d52c43e1778c3ff31414af09e72c33eb7f7a6c7228bea4c05ca63726bda56e11d72e41e3758e3df11616ad0be52e31e97d786e702abca6c25ea43524bfa76817d12847e573883bf71010ab0de32837ef7b7e68762cbaa0c458a23322b9a16a15d32a45e7718a39f51212a90fe12a35ed797c6a742eb8a2c65aa03120bba3641bdd244be97f8437fb1c1ca701ef243be37772647a20b6acc854ae3f2eb5ad6619df2649eb7d8635f91e1ea503ed2639e17570667822b4aeca56ac3d2cb7af601fd9204fed7b8033ff1818a305eb203fe77376607e24b2a8cc50aa3b2ab1a9621ddb224def798231fd1a1aa107e9223de57174627c26b0aace52a83928b3ab6c13d52c43e1778c3ff31414af09e72c33eb7f7a6c7228bea4c05ca63726bda56e11d72e41e3758e3df11616ad0be52e31e97d786e702abca6c25ea43524bfa76817d12847e573883bf71010ab0de32837ef7b7e68762cbaa0c458a23322b9a16a15d32a45e7718a39f51212a90fe12a35ed797c6a742eb8a2c65aa03120bba3641bdd244be97f8437fb1c1ca701ef243be37772647a20b6acc854ae3f2eb5ad6619df2649eb7d8635f91e1ea503ed2639e17570667822b4aeca56ac3d2cb7af601fd9204fed7b8033ff1818a305eb203fe77376607e24b2a8cc50aa3b2ab1a9621ddb224def798231fd1a1aa107e9223de57174627c26b0aace52a83928b3ab6c13d52c43e1778c3ff31414af09e72c33eb7f7a6c7228bea4c05ca63726bda56e11d72e41e3758e3df11616ad0be52e31e97d786e702abca6c25ea43524bfa76817d12847e573883bf71010ab0de32837ef7b7e68762cbaa0c458a23322b9a16a15d32a45e7718a39f51212a90fe12a35ed797c6a742eb8a2c65aa03120bba3641bdd244be97f8437fb1c1ca701ef243be37772647a20b6acc854ae3f2eb5ad6619df2649eb7d8635f91e1ea503ed2639e17570667822b4aeca56ac3d2cb7af601fd9204fed7b8033ff1818a305eb203fe77376607e24b2a8cc50aa3b2ab1a9621ddb224def798231fd1a1aa107e9223de57174627c26b0aace52a83928b3ab6c13d52c43e1778c3ff31414af09e72c33eb7f7a6c7228bea4c05ca63726bda56e11d72e41e3758e3df11616ad0be52e31e97d786e702abca6c25ea43524bfa76817d12847e573883bf71010ab0de32837ef7b7e68762cbaa0c458a23322b9a16a15d32a45e7718a39f51212a90fe12a35ed797c6a742eb8a2c65aa03120bba3641bdd244be97f8437fb1c1ca701ef243be37772647a20b6acc854ae3f2eb5ad6619df2649eb7d8635f91e1ea503ed2639e17570667822b4aeca56ac3d2cb7af601fd9204fed7b8033ff1818a305eb203fe77376607e24b2a8cc50aa3b2ab1a9621ddb224def798231fd1a1aa107e9223de57174627c26b0aace52a83928b3ab6c13d52c43e1778c3ff31414af09e72c33eb7f7a6c7228bea4c05ca63726bda56e11d72e41e3758e3df11616ad0be52e31e97d786e702abca6c25ea43524bfa76817d12847e573883bf71010ab0de32837ef7b7e68762cbaa0c458a23322b9a16a15d32a45e7718a39f51212a90fe12a35ed797c6a742eb8a2c65aa03120bba3641bdd244be97f8437fb1c1ca701ef24370d0fe28f825c824db489ee02dc356a3cbe1a57ff10d0201b68182bc6f29098b",
        "type": "nulldata"
      }
    }
  ],
  "blockhash": "3f7b66b34673dd56727b9b27d02dfa4f8333ff75e8b72ddccb546061f2a7d063",
  "confirmations": 1,
  "time": 1764180681,
  "blocktime": 1764180681
}