{
  "hex": "010000000001016d1a7c2f5d7ee64b867867012c811e702cc90e43ae9ede1bced6a71b6586c6640000000000feffffff0200e1f50500000000fdd5046a20c0c142f5afd3ab4e4bf9a95e0590452688018da53151f08cb1dfe1d0eb7122384db004ba41d00f11caf6b3edefc8414ba12f3b510434ade91f4795d83016aba5f5b70b9a61f02f31ead693cdcfe8616b810f1b7124148dc93f67b5f810368b85d5972bfa01904f518ab6f3adaf88010be16f7b114474eda95f07d5987056ebe5b5f74bda21b06f71aa96d38d8fa8212bc14f5b316454cd897f27f5b85076cbc595d76b3ac1508f914a76336d6f48c1cb21afbbd184b42d699fc71558b0962b2575378b1ae170afb16a56134d4f68e1eb018f9bf1a4940d49bfe7357890b60b055517ab7a8110cfd10a36732d2f08818b61effb91c4f46d29df875518f0d66b653577cb5aa130eff12a16530d0f28a1ab41cfdbb1e4d44d09ffa77538d0f64b451557ebba41d00f11caf6b3edefc8414ba12f3b510434ade91f4795d83016aba5f5b70b9a61f02f31ead693cdcfe8616b810f1b7124148dc93f67b5f810368b85d5972bfa01904f518ab6f3adaf88010be16f7b114474eda95f07d5987056ebe5b5f74bda21b06f71aa96d38d8fa8212bc14f5b316454cd897f27f5b85076cbc595d76b3ac1508f914a76336d6f48c1cb21afbbd184b42d699fc71558b0962b2575378b1ae170afb16a56134d4f68e1eb018f9bf1a4940d49bfe7357890b60b055517ab7a8110cfd10a36732d2f08818b61effb91c4f46d29df875518f0d66b653577cb5aa130eff12a16530d0f28a1ab41cfdbb1e4d44d09ffa77538d0f64b451557ebba41d00f11caf6b3edefc8414ba12f3b510434ade91f4795d83016aba5f5b70b9a61f02f31ead693cdcfe8616b810f1b7124148dc93f67b5f810368b85d5972bfa01904f518ab6f3adaf88010be16f7b114474eda95f07d5987056ebe5b5f74bda21b06f71aa96d38d8fa8212bc14f5b316454cd897f27f5b85076cbc595d76b3ac1508f914a76336d6f48c1cb21afbbd184b42d699fc71558b0962b2575378b1ae170afb16a56134d4f68e1eb018f9bf1a4940d49bfe7357890b60b055517ab7a8110cfd10a36732d2f08818b61effb91c4f46d29df875518f0d66b653577cb5aa130eff12a16530d0f28a1ab41cfdbb1e4d44d09ffa77538d0f64b451557ebba41d00f11caf6b3edefc8414ba12f3b510434ade91f4795d83016aba5f5b70b9a61f02f31ead693cdcfe8616b810f1b7124148dc93f67b5f810368b85d5972bfa01904f518ab6f3adaf88010be16f7b114474eda95f07d5987056ebe5b5f74bda21b06f71aa96d38d8fa8212bc14f5b316454cd897f27f5b85076cbc595d76b3ac1508f914a76336d6f48c1cb21afbbd184b42d699fc71558b0962b2575378b1ae170afb16a56134d4f68e1eb018f9bf1a4940d49bfe7357890b60b055517ab7a8110cfd10a36732d2f08818b61effb91c4f46d29df875518f0d66b653577cb5aa130eff12a16530d0f28a1ab41cfdbb1e4d44d09ffa77538d0f64b451557ebba41d00f11caf6b3edefc8414ba12f3b510434ade91f4795d83016aba5f5b70b9a61f02f31ead693cdcfe8616b810f1b7124148dc93f67b5f810368b85d5972bfa01904f518ab6f3adaf88010be16f7b114474eda95f07d5987056ebe5b5f74bda21b06f71aa96d38d8fa8212bc14f5b316454cd897f27f5b85076cbc595d76b3ac1508f914a76336d6f48c1cb21afbb84b1a501a1d77ae04b87d074dc24d0c993d7d2039b8c69b53a886dd151c5106850200e76792d00002251205c24e0681658daab3014471f22358ac6418105c8f0f15dfb78d113945da2214802fd7509586a17b9164df3f0e90cfb37c0694c1a89507402c9a5d5ddada9854304d05ba6153a7bf247fda01a86ce0dea169ae416b5ed23f4fc420836015f349b59bd6a96db9ffc311014ae2a6bb17449851a43dfe705e6a3344e9f6e4443dcd6047e3d9587f1f5b9e397f75d63e6da092d994470937036896197d4facdfa4af159b31b5b8008936bdfad8584da6f005a211b1e7ecbc0f194abdf7cd24a7a77040c75531d9aea725ececc201585c60822641ed62b15d6bdcc5715c16497c4c4457f7e9fa27bf640f6f8dbb4ca79a4a7e6344eeea6b638e9127c87a6166570479006775d7bbbd2930f2e3259ffc9eeab3d746d524ac1ff82df7a39b46a934a9902f59fccb9866cc6da399dd063ebb1c8d28dae9fc849052dec408a02cc988e76811bd71f749c60582188401c6884e79c46b6f64eb82c3a4414e94a635ea629d81798c417b8add6521c5cd1473896472d32718de0341fb29c7770dd22e5d78b820c6bb94eb8bea1047cab3fc4f5f2b8bff85f5610dfedac770cbd316c196aa97625e757c315a968cd78b2f1bbf8a2cc6420510b89374e7883959de9d0f21011a0182d70f5cb9c2ea193433f2a7687625d047af553278b91c5c992beb566d803d37e31793fc1cab031c9981b01096edd2cfe75677698b0b5529a1cc74ae1a8729e7086581c9cf634c18446cd531605cd2ea6c53ac5605a961f1e3d8f8d18fec7afc384aacf5f4c6005bc8b02f5d285be5135106eaa19f8b90a292bd9cff7a9a511fbc240407b00f15116b855dc9da0cc4db564f4c27d96e995e6d49072a1bb07f5ed011427e1945fc74b8dad4e34df8e0399e5169274a9ea5550f1888a6ae346a3f20aa43ae74f5b8be4b8c9ae0a620b66c0b02afb6917f5d2ae60f7b82560267b69e1fa54b2f6ce7c4d512476d13515c0e0aefe433e24879dbb4f63bcd40ff34d31204c1e0cc272dbcb03c37c2013c602479eb70f7e5c2bba349dfd0139fbef5e0f956285f65855b33aaabe7401c1e5f3f9bb31cef8c18001791cc74a0dad679be2854b6bec27859678ac0de50fcef87570166091b29a81cde98ebd6d74003bf45717cef82cc2aa975d70f677a262358fbe71922f7d3903b9a2d757c6c3d0c330fcc8737aa7fac31f0791e9b0b873b650be21dc7addb0e7c3ce185686911395d852bad7832cd366e8bda27a36634874a20777f41541edba84e94a0f21d5b416d5336f9f75f2e401a0a262fae0c3f96165492bbb76e4ae96513c256dc7f13d6f55ee06dca5f73b106819c53405ba6b36d3c53632102e0d9bcb0ce94e595043c591b57ce172bd0d518390b51571a9a53b7957fc99e3a42084ae2d74a9a16d48189ab45cecb257a5cc4f1e96a67f27fabdc8bdd0a8083a62e701e064b17b3da871de9b114f44f82c283d53032397da9047c363749621367210eed3f52cebe860e51c09c8e079dddce194ae56d4c947697d778bf9f9fbe3fdf2859f91847bd2ce1b0a4d7ae63cb2385d6ce92d968f902dcd817684a4434d244ae06bac3fe64d49d8154804959e0baa5a0a744c495979a2d64015b798c15a9682f340c3374991c4669e218dba2f0f8d0be027328c002af4b2c953e73cfba53d2f6c81442c507bc02ea7c038b1f7f55c43cf327a96c53337a79e3e79d1a9e580ea93d235767e2cdb03f4b7cc8cf4408ce8ab0f6b5593ca85445acd296e7fdee7570386a37c87d64a7c40c3eb872ec833a7e0b9982814371ab0e18336ba31af107d7b51a0b4f87d0c432720ad0be781a0cdb63290e4d3c7a29f210cfe8f249c5adfaedef7fd43fe8aa464b06fbc7bf1c0e5665f0a1ec5380fac5e4749a9c29d7df284f719174821b8ff6c19ad795a488d07992d740dbbaa62b4b6a6ebb20ef8b069464fb9b1d2c7349382b23af02a42b6eb863baa5414b9d5a5c551a189824a6051351578cc6da73cacd38c277d33784ab06e1f2efc81382518af3161510407db14430bd7739a5c60246b1b963e4bb2edfbd9d08ce1c89bf6525c70ca9cde765a5d4931fda4639aa5b26874f8d050944cfb71dfcbee44cc331994d639703d2d39135534dd90ab64029bdf523614b000e764b7c121ea2a04b98402d9e2fb32409667733b5bcbef051d2f8b0e0a9b9fcf24dff13558441b7a7376bc056c424e3a844ccf4876103168880131e4f3da20b322e7eb98d8acdbf0c7a590fb61016621cba9d09ab07daa20dcbb54e0a89a8e550f106c8e8d38528481f31ca989fbe27a0083f46ed44688f2d84c8cc5f9ccbea9c5ca65905adafbcdede70fa2d89bf8bc2e7791b27bacb312de90a1308b78d7a03f21a9a7a9f8fa06b29929cebb027c1e49674c8d2b253bd144b3d92f0b65c69170c5b229db7dec26fde4639f7135387bcf5a06b2e32b36980e126907344f3923964a071b2afdea92652550f6abd6b966dfb1511a1fbd325e30d675dadcb36b80cad32bd1135f2303b3bb7f7e65ff41606cf72db8e5bcc10507771767790760bf0049b0f18e2a33a1e1782013c58e920548f44650505aedede7fa462f01ad5bdc2607924ac2016487f3c578654e9eef82dc563c4f370ff7bba7a7e92a451031b80a9f63b5d450e2f40fd3102b28f1441b8e43068f2aac88e4996607fbcbc60ab32e9163334ac85452bb04442d347f49b4af17238e2955ed05d7b046f1f16b1e682ead0ab3fc84a4231f7d3ab878b132dda801b536a520bd6d1a8e036406a1c897a612e297b2e073fda8f8620d984704643130032470f8482c3c521832d2333d4f30b606c3473a3b4a01495b5948d874103742de15cefbfac1ebef4b289a13cee27c8ac5577be23c7457cdcc29664d9884ce9345fce027f2a4e750a6796a6233459de89e98a808074ed162fe65b3a3c0ad912c408ce534e8330bf3cf792d69b166d7e67db69e1876da9488c10dd66c40b1eb237c885f5321562038dcd97785297dcf17c23200682e7f36c46e92c7f35778fb43d682603496693595be228a5e2741689d884573c3966e8239e791eba3c6f39ecc7cfec9409a507fa54bfada301f2a75bbd9ef524f1f2c2bd902c8894526c3792e0119dd1a67b24932fcc260e8ea90ffbf7468d9c2cf9c00e38541006e522fe7c7dda534137ad33a299a6352bc1eeecfe84e40faede11a86c077db921d6b60958e36f18ec982c00c60c971eb7fd459062d499c8713fce081ffd9565a162533194f796b2167073a6e994c67e95a525fd5bd997bfe2da7dcd04d17a8d02c7f289514c75e8799db3c4ef879706ebf4678e86e7891d7ac72382d3908607663bf620137bcc5f9756413ae928d82790af3080a131e243a4159787c8092959aa8abacbadeebfcfd1c2c9fa2c0f7030f121517262a3e41454b5a737d8793a9d6e9f6f81e203748494b5e60707e8c9a9ca3a7c0c8d1ddebec0000000000000000000000151b304501fd210500c15bff954481a04671e1006381ae04f85c5f8cd23cb814c0e3b5d5813eb43d5dbc0654de08ad1051a849c14fd8ebad3fdf8bf6a9a295f470bfc5a24e14478c3553bdf3ab798d3a005b715b6875330b6f458d884f25afe216f9395685da87f2d26e29d5c5432d7ff1cafa87b5b4a05c7056ae76fb0ac5724334977855d50ca4aed154b263a15f9c5750d99d9f658e0b3e90024c386487ceb6525e15a5bc332fd358f6443e50f2bf3736349218fed54f634ca9e26a0bc3332a56061fc8ff789e5ace2ff8fda7e5276be803a2da10e56112de32fb48b40af73891cdb6d6cfad543962df9cadbbb153c00c2baa2be4254ea96ad85e6baee3d4ce14789ad812c78780d3cf6836dbc59500a68231f6e357203172700adb7e99f0a318e7491b5e270474f2a1efb9faeb38fd35526673288eb522c3d7893f295f1407ca423404d9bcd0d208fbdc028619d8ec69581ab3b18f77e4939a8d3db37941531d2229051eaf97641df0e21b4bda5273dac1d4e7b87c02e2c7937dea8065d5f022a9ed8b3ba67aae49b3287553406fe0d92e7a49e64d9200694d4e9afbd2ea4a9cb93fd0fa7ce9ddfd9ceff94d8ed504d895b02a0179639611525046e72edec0a3e9aa469a7d3e1f5890d89fcff3f2defcab79c3618501320ff5e7e820a894145fded28207d10c7edbb8eab4585bcd41b71b2524b64129a2d0ee9b4cd2e34af0c87aedaba37d36ad8acc7598f63aa415cf4a4847d2906706176011784d2c4c3d5f3e009cdf0aa81c7864e6a8fd80a624e4ab255077da36e0b100630b65e9e696dc8810ba467e9decd621ef0be124e39c38c0843abcb73012fbb9f64120540274b308d228b4b8208eb0e6626ab6ae1eeb8da3a530798e6c22f7ce944c3eb35d9defe93f70ff376b9fde6f872ee2ae7be19d6d76cd2c1d25486aa616b25706439fd2432d3ff15aa102b873eb83d68e94e3bf138906d464e2a341bc63324029aeb281cc56142fb94092f05a31a28d95f76a85c70456f62435daa97fca4311f429471ab19904c99d5d377ea5f6be6f83ea91596ae64a61bd38b139d3f2b61a9a583b41a8a95375ec28c7c8d430f13560b4e4bf4cf9b8ef7e4c318369512024bb7ea820f57e57216ea85c42eb4c7bab24c1a764eb19d388a08c97a68cb0c463ab127f55b1e39812c7703d9b933fc9c671c8dbbecdede5acaf66f60d03f1d2d96ef28489a82c30e1878096ccacfc37aec7933d202349dfba173f24a05ce74fb8da898d883085eab426c5a09b924b857d9806532f03509be0dfd3733108712dd5e247555e8ff0b38c2013f9b035225d43836219cbc1a9a4723ff6e310fd6abf97758041d76044b36a1d83ac0c49a34fbf23bac35a67f89a5f9d84db67fd90d026a5c26b9ab8c1b43792555d1fcf1f19e0be4fab37a47b490d9f7cbd8f8388d1cbea1bded7120ae986924f59b6644929fa64fd71fafebb01d547b9c46d4e0bd09d77b99b714ae43ccd9b6d14153a5ec03b961f29e5cb7270dd816e66766c5cf0b2d7596477312aae65a7fc00747341ea1038a8ed8eb1e42559b6328ac2801fbef6a97868b8f44ca5d045e119669c9fda041a25dc6ac4a87004fb119e80e55118cd3d5fd720c467375a21e8794c1b89dda1178411c79f17b008719e9c5a06ac9d7df4709a399d879622d34a1c6b2a4ebc8d67111fb57c0030b23a9e9dc33faed463be040d6ea6622e95700e803fd48a09fa19960992f499ff3286193b37c13feb5984bfaa9772dc8234b013b6a93cad4b71491dd891120e27287066ab07ac493db1ad76cd9b7866702b290cb36c65745e8941ec0560d519513b21b2472eb80ebd59f69332ef8b01a58bbc557067000000",
  "txid": "116a2efa45ec5d80312100dff6a691b13a793795d459f1cd098369f9e51bc689",
  "hash": "16a5e8c46b9eed69229a22c86937249ac6867ccd30f5cbd937bb76ca0c2427a1",
  "size": 5085,
  "vsize": 2278,
  "version": 1,
  "locktime": 103,
  "vin": [
    {
      "txid": "64c686651ba7d6ce1bde9eae430ec92c701e812c016778864be67e5d2f7c1a6d",
      "vout": 0,
      "scriptSig": {
        "asm": "",
        "hex": ""
      },
      "txinwitness": [
        "586a17b9164df3f0e90cfb37c0694c1a89507402c9a5d5ddada9854304d05ba6153a7bf247fda01a86ce0dea169ae416b5ed23f4fc420836015f349b59bd6a96db9ffc311014ae2a6bb17449851a43dfe705e6a3344e9f6e4443dcd6047e3d9587f1f5b9e397f75d63e6da092d994470937036896197d4facdfa4af159b31b5b8008936bdfad8584da6f005a211b1e7ecbc0f194abdf7cd24a7a77040c75531d9aea725ececc201585c60822641ed62b15d6bdcc5715c16497c4c4457f7e9fa27bf640f6f8dbb4ca79a4a7e6344eeea6b638e9127c87a6166570479006775d7bbbd2930f2e3259ffc9eeab3d746d524ac1ff82df7a39b46a934a9902f59fccb9866cc6da399dd063ebb1c8d28dae9fc849052dec408a02cc988e76811bd71f749c60582188401c6884e79c46b6f64eb82c3a4414e94a635ea629d81798c417b8add6521c5cd1473896472d32718de0341fb29c7770dd22e5d78b820c6bb94eb8bea1047cab3fc4f5f2b8bff85f5610dfedac770cbd316c196aa97625e757c315a968cd78b2f1bbf8a2cc6420510b89374e7883959de9d0f21011a0182d70f5cb9c2ea193433f2a7687625d047af553278b91c5c992beb566d803d37e31793fc1cab031c9981b01096edd2cfe75677698b0b5529a1cc74ae1a8729e7086581c9cf634c18446cd531605cd2ea6c53ac5605a961f1e3d8f8d18fec7afc384aacf5f4c6005bc8b02f5d285be5135106eaa19f8b90a292bd9cff7a9a511fbc240407b00f15116b855dc9da0cc4db564f4c27d96e995e6d49072a1bb07f5ed011427e1945fc74b8dad4e34df8e0399e5169274a9ea5550f1888a6ae346a3f20aa43ae74f5b8be4b8c9ae0a620b66c0b02afb6917f5d2ae60f7b82560267b69e1fa54b2f6ce7c4d512476d13515c0e0aefe433e24879dbb4f63bcd40ff34d31204c1e0cc272dbcb03c37c2013c602479eb70f7e5c2bba349dfd0139fbef5e0f956285f65855b33aaabe7401c1e5f3f9bb31cef8c18001791cc74a0dad679be2854b6bec27859678ac0de50fcef87570166091b29a81cde98ebd6d74003bf45717cef82cc2aa975d70f677a262358fbe71922f7d3903b9a2d757c6c3d0c330fcc8737aa7fac31f0791e9b0b873b650be21dc7addb0e7c3ce185686911395d852bad7832cd366e8bda27a36634874a20777f41541edba84e94a0f21d5b416d5336f9f75f2e401a0a262fae0c3f96165492bbb76e4ae96513c256dc7f13d6f55ee06dca5f73b106819c53405ba6b36d3c53632102e0d9bcb0ce94e595043c591b57ce172bd0d518390b51571a9a53b7957fc99e3a42084ae2d74a9a16d48189ab45cecb257a5cc4f1e96a67f27fabdc8bdd0a8083a62e701e064b17b3da871de9b114f44f82c283d53032397da9047c363749621367210eed3f52cebe860e51c09c8e079dddce194ae56d4c947697d778bf9f9fbe3fdf2859f91847bd2ce1b0a4d7ae63cb2385d6ce92d968f902dcd817684a4434d244ae06bac3fe64d49d8154804959e0baa5a0a744c495979a2d64015b798c15a9682f340c3374991c4669e218dba2f0f8d0be027328c002af4b2c953e73cfba53d2f6c81442c507bc02ea7c038b1f7f55c43cf327a96c53337a79e3e79d1a9e580ea93d235767e2cdb03f4b7cc8cf4408ce8ab0f6b5593ca85445acd296e7fdee7570386a37c87d64a7c40c3eb872ec833a7e0b9982814371ab0e18336ba31af107d7b51a0b4f87d0c432720ad0be781a0cdb63290e4d3c7a29f210cfe8f249c5adfaedef7fd43fe8aa464b06fbc7bf1c0e5665f0a1ec5380fac5e4749a9c29d7df284f719174821b8ff6c19ad795a488d07992d740dbbaa62b4b6a6ebb20ef8b069464fb9b1d2c7349382b23af02a42b6eb863baa5414b9d5a5c551a189824a6051351578cc6da73cacd38c277d33784ab06e1f2efc81382518af3161510407db14430bd7739a5c60246b1b963e4bb2edfbd9d08ce1c89bf6525c70ca9cde765a5d4931fda4639aa5b26874f8d050944cfb71dfcbee44cc331994d639703d2d39135534dd90ab64029bdf523614b000e764b7c121ea2a04b98402d9e2fb32409667733b5bcbef051d2f8b0e0a9b9fcf24dff13558441b7a7376bc056c424e3a844ccf4876103168880131e4f3da20b322e7eb98d8acdbf0c7a590fb61016621cba9d09ab07daa20dcbb54e0a89a8e550f106c8e8d38528481f31ca989fbe27a0083f46ed44688f2d84c8cc5f9ccbea9c5ca65905adafbcdede70fa2d89bf8bc2e7791b27bacb312de90a1308b78d7a03f21a9a7a9f8fa06b29929cebb027c1e49674c8d2b253bd144b3d92f0b65c69170c5b229db7dec26fde4639f7135387bcf5a06b2e32b36980e126907344f3923964a071b2afdea92652550f6abd6b966dfb1511a1fbd325e30d675dadcb36b80cad32bd1135f2303b3bb7f7e65ff41606cf72db8e5bcc10507771767790760bf0049b0f18e2a33a1e1782013c58e920548f44650505aedede7fa462f01ad5bdc2607924ac2016487f3c578654e9eef82dc563c4f370ff7bba7a7e92a451031b80a9f63b5d450e2f40fd3102b28f1441b8e43068f2aac88e4996607fbcbc60ab32e9163334ac85452bb04442d347f49b4af17238e2955ed05d7b046f1f16b1e682ead0ab3fc84a4231f7d3ab878b132dda801b536a520bd6d1a8e036406a1c897a612e297b2e073fda8f8620d984704643130032470f8482c3c521832d2333d4f30b606c3473a3b4a01495b5948d874103742de15cefbfac1ebef4b289a13cee27c8ac5577be23c7457cdcc29664d9884ce9345fce027f2a4e750a6796a6233459de89e98a808074ed162fe65b3a3c0ad912c408ce534e8330bf3cf792d69b166d7e67db69e1876da9488c10dd66c40b1eb237c885f5321562038dcd97785297dcf17c23200682e7f36c46e92c7f35778fb43d682603496693595be228a5e2741689d884573c3966e8239e791eba3c6f39ecc7cfec9409a507fa54bfada301f2a75bbd9ef524f1f2c2bd902c8894526c3792e0119dd1a67b24932fcc260e8ea90ffbf7468d9c2cf9c00e38541006e522fe7c7dda534137ad33a299a6352bc1eeecfe84e40faede11a86c077db921d6b60958e36f18ec982c00c60c971eb7fd459062d499c8713fce081ffd9565a162533194f796b2167073a6e994c67e95a525fd5bd997bfe2da7dcd04d17a8d02c7f289514c75e8799db3c4ef879706ebf4678e86e7891d7ac72382d3908607663bf620137bcc5f9756413ae928d82790af3080a131e243a4159787c8092959aa8abacbadeebfcfd1c2c9fa2c0f7030f121517262a3e41454b5a737d8793a9d6e9f6f81e203748494b5e60707e8c9a9ca3a7c0c8d1ddebec0000000000000000000000151b304501",
        "00c15bff954481a04671e1006381ae04f85c5f8cd23cb814c0e3b5d5813eb43d5dbc0654de08ad1051a849c14fd8ebad3fdf8bf6a9a295f470bfc5a24e14478c3553bdf3ab798d3a005b715b6875330b6f458d884f25afe216f9395685da87f2d26e29d5c5432d7ff1cafa87b5b4a05c7056ae76fb0ac5724334977855d50ca4aed154b263a15f9c5750d99d9f658e0b3e90024c386487ceb6525e15a5bc332fd358f6443e50f2bf3736349218fed54f634ca9e26a0bc3332a56061fc8ff789e5ace2ff8fda7e5276be803a2da10e56112de32fb48b40af73891cdb6d6cfad543962df9cadbbb153c00c2baa2be4254ea96ad85e6baee3d4ce14789ad812c78780d3cf6836dbc59500a68231f6e357203172700adb7e99f0a318e7491b5e270474f2a1efb9faeb38fd35526673288eb522c3d7893f295f1407ca423404d9bcd0d208fbdc028619d8ec69581ab3b18f77e4939a8d3db37941531d2229051eaf97641df0e21b4bda5273dac1d4e7b87c02e2c7937dea8065d5f022a9ed8b3ba67aae49b3287553406fe0d92e7a49e64d9200694d4e9afbd2ea4a9cb93fd0fa7ce9ddfd9ceff94d8ed504d895b02a0179639611525046e72edec0a3e9aa469a7d3e1f5890d89fcff3f2defcab79c3618501320ff5e7e820a894145fded28207d10c7edbb8eab4585bcd41b71b2524b64129a2d0ee9b4cd2e34af0c87aedaba37d36ad8acc7598f63aa415cf4a4847d2906706176011784d2c4c3d5f3e009cdf0aa81c7864e6a8fd80a624e4ab255077da36e0b100630b65e9e696dc8810ba467e9decd621ef0be124e39c38c0843abcb73012fbb9f64120540274b308d228b4b8208eb0e6626ab6ae1eeb8da3a530798e6c22f7ce944c3eb35d9defe93f70ff376b9fde6f872ee2ae7be19d6d76cd2c1d25486aa616b25706439fd2432d3ff15aa102b873eb83d68e94e3bf138906d464e2a341bc63324029aeb281cc56142fb94092f05a31a28d95f76a85c70456f62435daa97fca4311f429471ab19904c99d5d377ea5f6be6f83ea91596ae64a61bd38b139d3f2b61a9a583b41a8a95375ec28c7c8d430f13560b4e4bf4cf9b8ef7e4c318369512024bb7ea820f57e57216ea85c42eb4c7bab24c1a764eb19d388a08c97a68cb0c463ab127f55b1e39812c7703d9b933fc9c671c8dbbecdede5acaf66f60d03f1d2d96ef28489a82c30e1878096ccacfc37aec7933d202349dfba173f24a05ce74fb8da898d883085eab426c5a09b924b857d9806532f03509be0dfd3733108712dd5e247555e8ff0b38c2013f9b035225d43836219cbc1a9a4723ff6e310fd6abf97758041d76044b36a1d83ac0c49a34fbf23bac35a67f89a5f9d84db67fd90d026a5c26b9ab8c1b43792555d1fcf1f19e0be4fab37a47b490d9f7cbd8f8388d1cbea1bded7120ae986924f59b6644929fa64fd71fafebb01d547b9c46d4e0bd09d77b99b714ae43ccd9b6d14153a5ec03b961f29e5cb7270dd816e66766c5cf0b2d7596477312aae65a7fc00747341ea1038a8ed8eb1e42559b6328ac2801fbef6a97868b8f44ca5d045e119669c9fda041a25dc6ac4a87004fb119e80e55118cd3d5fd720c467375a21e8794c1b89dda1178411c79f17b008719e9c5a06ac9d7df4709a399d879622d34a1c6b2a4ebc8d67111fb57c0030b23a9e9dc33faed463be040d6ea6622e95700e803fd48a09fa19960992f499ff3286193b37c13feb5984bfaa9772dc8234b013b6a93cad4b71491dd891120e27287066ab07ac493db1ad76cd9b7866702b290cb36c65745e8941ec0560d519513b21b2472eb80ebd59f69332ef8b01a58bbc5570"
      ],
      "sequence": 4294967294
    }
  ],
  "vout": [
    {
      "value": 1.0,
      "n": 0,
      "scriptPubKey": {
        "asm": "OP_RETURN c0c142f5afd3ab4e4bf9a95e0590452688018da53151f08cb1dfe1d0eb712238 ba41d00f11caf6b3edefc8414ba12f3b510434ade91f4795d83016aba5f5b70b9a61f02f31ead693cdcfe8616b810f1b7124148dc93f67b5f810368b85d5972bfa01904f518ab6f3adaf88010be16f7b114474eda95f07d5987056ebe5b5f74bda21b06f71aa96d38d8fa8212bc14f5b316454cd897f27f5b85076cbc595d76b3ac1508f914a76336d6f48c1cb21afbbd184b42d699fc71558b0962b2575378b1ae170afb16a56134d4f68e1eb018f9bf1a4940d49bfe7357890b60b055517ab7a8110cfd10a36732d2f08818b61effb91c4f46d29df875518f0d66b653577cb5aa130eff12a16530d0f28a1ab41cfdbb1e4d44d09ffa77538d0f64b451557ebba41d00f11caf6b3edefc8414ba12f3b510434ade91f4795d83016aba5f5b70b9a61f02f31ead693cdcfe8616b810f1b7124148dc93f67b5f810368b85d5972bfa01904f518ab6f3adaf88010be16f7b114474eda95f07d5987056ebe5b5f74bda21b06f71aa96d38d8fa8212bc14f5b316454cd897f27f5b85076cbc595d76b3ac1508f914a76336d6f48c1cb21afbbd184b42d699fc71558b0962b2575378b1ae170afb16a56134d4f68e1eb018f9bf1a4940d49bfe7357890b60b055517ab7a8110cfd10a36732d2f08818b61effb91c4f46d29df875518f0d66b653577cb5aa130eff12a16530d0f28a1ab41cfdbb1e4d44d09ffa77538d0f64b451557ebba41d00f11caf6b3edefc8414ba12f3b510434ade91f4795d83016aba5f5b70b9a61f02f31ead693cdcfe8616b810f1b7124148dc93f67b5f810368b85d5972bfa01904f518ab6f3adaf88010be16f7b114474eda95f07d5987056ebe5b5f74bda21b06f71aa96d38d8fa8212bc14f5b316454cd897f27f5b85076cbc595d76b3ac1508f914a76336d6f48c1cb21afbbd184b42d699fc71558b0962b2575378b1ae170afb16a56134d4f68e1eb018f9bf1a4940d49bfe7357890b60b055517ab7a8110cfd10a36732d2f08818b61effb91c4f46d29df875518f0d66b653577cb5aa130eff12a16530d0f28a1ab41cfdbb1e4d44d09ffa77538d0f64b451557ebba41d00f11caf6b3edefc8414ba12f3b510434ade91f4795d83016aba5f5b70b9a61f02f31ead693cdcfe8616b810f1b7124148dc93f67b5f810368b85d5972bfa01904f518ab6f3adaf88010be16f7b114474eda95f07d5987056ebe5b5f74bda21b06f71aa96d38d8fa8212bc14f5b316454cd897f27f5b85076cbc595d76b3ac1508f914a76336d6f48c1cb21afbbd184b42d699fc71558b0962b2575378b1ae170afb16a56134d4f68e1eb018f9bf1a4940d49bfe7357890b60b055517ab7a8110cfd10a36732d2f08818b61effb91c4f46d29df875518f0d66b653577cb5aa130eff12a16530d0f28a1ab41cfdbb1e4d44d09ffa77538d0f64b451557ebba41d00f11caf6b3edefc8414ba12f3b510434ade91f4795d83016aba5f5b70b9a61f02f31ead693cdcfe8616b810f1b7124148dc93f67b5f810368b85d5972bfa01904f518ab6f3adaf88010be16f7b114474eda95f07d5987056ebe5b5f74bda21b06f71aa96d38d8fa8212bc14f5b316454cd897f27f5b85076cbc595d76b3ac1508f914a76336d6f48c1cb21afbb84b1a501a1d77ae04b87d074dc24d0c993d7d2039b8c69b53a886dd151c51068",
        "hex": "6a20c0c142f5afd3ab4e4bf9a95e0590452688018da53151f08cb1dfe1d0eb7122384db004ba41d00f11caf6b3edefc8414ba12f3b510434ade91f4795d83016aba5f5b70b9a61f02f31ead693cdcfe8616b810f1b7124148dc93f67b5f810368b85d5972bfa01904f518ab6f3adaf88010be16f7b114474eda95f07d5987056ebe5b5f74bda21b06f71aa96d38d8fa8212bc14f5b316454cd897f27f5b85076cbc595d76b3ac1508f914a76336d6f48c1cb21afbbd184b42d699fc71558b0962b2575378b1ae170afb16a56134d4f68e1eb018f9bf1a4940d49bfe7357890b60b055517ab7a8110cfd10a36732d2f08818b61effb91c4f46d29df875518f0d66b653577cb5aa130eff12a16530d0f28a1ab41cfdbb1e4d44d09ffa77538d0f64b451557ebba41d00f11caf6b3edefc8414ba12f3b510434ade91f4795d83016aba5f5b70b9a61f02f31ead693cdcfe8616b810f1b7124148dc93f67b5f810368b85d5972bfa01904f518ab6f3adaf88010be16f7b114474eda95f07d5987056ebe5b5f74bda21b06f71aa96d38d8fa8212bc14f5b316454cd897f27f5b85076cbc595d76b3ac1508f914a76336d6f48c1cb21afbbd184b42d699fc71558b0962b2575378b1ae170afb16a56134d4f68e1eb018f9bf1a4940d49bfe7357890b60b055517ab7a8110cfd10a36732d2f08818b61effb91c4f46d29df875518f0d66b653577cb5aa130eff12a16530d0f28a1ab41cfdbb1e4d44d09ffa77538d0f64b451557ebba41d00f11caf6b3edefc8414ba12f3b510434ade91f4795d83016aba5f5b70b9a61f02f31ead693cdcfe8616b810f1b7124148dc93f67b5f810368b85d5972bfa01904f518ab6f3adaf88010be16f7b114474eda95f07d5987056ebe5b5f74bda21b06f71aa96d38d8fa8212bc14f5b316454cd897f27f5b85076cbc595d76b3ac1508f914a76336d6f48c1cb21afbbd184b42d699fc71558b0962b2575378b1ae170afb16a56134d4f68e1eb018f9bf1a4940d49bfe7357890b60b055517ab7a8110cfd10a36732d2f08818b61effb91c4f46d29df875518f0d66b653577cb5aa130eff12a16530d0f28a1ab41cfdbb1e4d44d09ffa77538d0f64b451557ebba41d00f11caf6b3edefc8414ba12f3b510434ade91f4795d83016aba5f5b70b9a61f02f31ead693cdcfe8616b810f1b7124148dc93f67b5f810368b85d5972bfa01904f518ab6f3adaf88010be16f7b114474eda95f07d5987056ebe5b5f74bda21b06f71aa96d38d8fa8212bc14f5b316454cd897f27f5b85076cbc595d76b3ac1508f914a76336d6f48c1cb21afbbd184b42d699fc71558b0962b2575378b1ae170afb16a56134d4f68e1eb018f9bf1a4940d49bfe7357890b60b055517ab7a8110cfd10a36732d2f08818b61effb91c4f46d29df875518f0d66b653577cb5aa130eff12a16530d0f28a1ab41cfdbb1e4d44d09ffa77538d0f64b451557ebba41d00f11caf6b3edefc8414ba12f3b510434ade91f4795d83016aba5f5b70b9a61f02f31ead693cdcfe8616b810f1b7124148dc93f67b5f810368b85d5972bfa01904f518ab6f3adaf88010be16f7b114474eda95f07d5987056ebe5b5f74bda21b06f71aa96d38d8fa8212bc14f5b316454cd897f27f5b85076cbc595d76b3ac1508f914a76336d6f48c1cb21afbb84b1a501a1d77ae04b87d074dc24d0c993d7d2039b8c69b53a886dd151c51068",
        "type": "nulldata"
      }
    },
    {
      "value": 499996.9493,
      "n": 1,
      "scriptPubKey": {
        "asm": "1 5c24e0681658daab3014471f22358ac6418105c8f0f15dfb78d113945da22148",
        "hex": "51205c24e0681658daab3014471f22358ac6418105c8f0f15dfb78d113945da22148",
        "reqSigs": 1,
        "type": "witness_v1_scripthash",
        "addresses": [
          "3QJmnh"
        ]
      }
    }
  ],
  "blockhash": "15af9b025c636b87e0a10c18a1a8de0e5f3c2069ad563b293161176d75df89a4",
  "confirmations": 1,
  "time": 1764174659,
  "blocktime": 1764174659
}