{
  "hex": "01000000000101b50c9ec17adde43e1d15e7c59e11e7995fdb1f6e05c2937ccdccd95b92e779600000000000feffffff0200e1f50500000000fdd5046a209aabe4a265f87cd31da1d17420b668a24cc74b713674fe7bdf7a03011d8a23184db0040c9f3877f26b066112a96cbb5782bd5675b7d051fa783901342ad3130852aa592cbf1857d24b264132894c9b77a29d765597f071da581921140af33328728a794cdf7837b22b462152e92cfb17c2fd1635f79011ba387941746a93534812ea196cff5817920b660172c90cdb37e2dd3615d7b0319a185961544ab3736832ca398c1fb8f772eb86e19229ec3bd7023dd6f53750d17af8b981b4aa539388d22ad9ac3f98d752cba6c1b209cc1bf7221df6d51770f15ad899a1948a73b3a8f20af9cc5ff8b732abc6a1d269ac7b97427d96b57710913ab8f9c1f4ea13d3c8926a99ec7fd897128be681f2498c5bb7625db6955730b11a98d9e1d4ca33f3e8b24ab90c9f3877f26b066112a96cbb5782bd5675b7d051fa783901342ad3130852aa592cbf1857d24b264132894c9b77a29d765597f071da581921140af33328728a794cdf7837b22b462152e92cfb17c2fd1635f79011ba387941746a93534812ea196cff5817920b660172c90cdb37e2dd3615d7b0319a185961544ab3736832ca398c1fb8f772eb86e19229ec3bd7023dd6f53750d17af8b981b4aa539388d22ad9ac3f98d752cba6c1b209cc1bf7221df6d51770f15ad899a1948a73b3a8f20af9cc5ff8b732abc6a1d269ac7b97427d96b57710913ab8f9c1f4ea13d3c8926a99ec7fd897128be681f2498c5bb7625db6955730b11a98d9e1d4ca33f3e8b24ab90c9f3877f26b066112a96cbb5782bd5675b7d051fa783901342ad3130852aa592cbf1857d24b264132894c9b77a29d765597f071da581921140af33328728a794cdf7837b22b462152e92cfb17c2fd1635f79011ba387941746a93534812ea196cff5817920b660172c90cdb37e2dd3615d7b0319a185961544ab3736832ca398c1fb8f772eb86e19229ec3bd7023dd6f53750d17af8b981b4aa539388d22ad9ac3f98d752cba6c1b209cc1bf7221df6d51770f15ad899a1948a73b3a8f20af9cc5ff8b732abc6a1d269ac7b97427d96b57710913ab8f9c1f4ea13d3c8926a99ec7fd897128be681f2498c5bb7625db6955730b11a98d9e1d4ca33f3e8b24ab90c9f3877f26b066112a96cbb5782bd5675b7d051fa783901342ad3130852aa592cbf1857d24b264132894c9b77a29d765597f071da581921140af33328728a794cdf7837b22b462152e92cfb17c2fd1635f79011ba387941746a93534812ea196cff5817920b660172c90cdb37e2dd3615d7b0319a185961544ab3736832ca398c1fb8f772eb86e19229ec3bd7023dd6f53750d17af8b981b4aa539388d22ad9ac3f98d752cba6c1b209cc1bf7221df6d51770f15ad899a1948a73b3a8f20af9cc5ff8b732abc6a1d269ac7b97427d96b57710913ab8f9c1f4ea13d3c8926a99ec7fd897128be681f2498c5bb7625db6955730b11a98d9e1d4ca33f3e8b24ab90c9f3877f26b066112a96cbb5782bd5675b7d051fa783901342ad3130852aa592cbf1857d24b264132894c9b77a29d765597f071da581921140af33328728a794cdf7837b22b462152e92cfb17c2fd1635f79011ba387941746a93534812ea196cff5817920b660172c90cdb37e2dd3615d7b0319a185961544ab3736832ca398c1fb8f772eb86e19229ec3bd7023dd65823202cffe3ca325b02e5e101bef4e42113dfb3a3a7cd328b188753fae935611024da9b782d00002251202abf26d4b10400925d95f135a6fc2a883901b82c9ffa760d419ef86a8b5fa44302fd7509f37ff6c57d68d924ab7193947edf7647f9d233187dbb1e4c52e69c0687a88f3821e8a280bce6d37487b17672497d10d8035569659062ab04ef291bafeccbbba8c4a1dd3eec3d6d21f6b876dc7f4ba1fc4005cd537eb6a541f5eb5acd64491f3b814f39e4631fa171dc880ac41ddfa9d0e853ee4e61231a6f517743e2b7afc2ee8508e70b226d931c32a1a0b34cf889ee2064d9d8703e77a5e58b5404b664677673f750d1e014b3acbd4b921df2104026d3cce0373b60513501c3dabfb44efb9e9eb888637bbf381a357e80c187d6e9f3fd6452d72017aae0238cdddd81f4ea5c5860931c4682500439e7d9e27d28b0be2e8644b2aa591b88481170ef7736227d807d6cd140524e0e6401c51fe3e8dbe21d72b1fdac6b272254385ee158d8a5ae8a8ef20e2e40a54531271bb40d6010e4dce4ec7fd090f46b5e4230421ccec0d4cf88549b8babf2fa994cb2badd00f361c67096a02334d3e3879d51a0feb163693bb794a17d886f82a3a0b41e98e20ef2366be85aecf4357d46f27a84c6fd7851f469025f7a628306e49a52ef055083b8c7773642318bb6a583b2e7e40010e53ee0f7c31eb38f47d21fff456899d4c0f556c6f841e7a16f02825fbaf9c93eb30e175e84f7a6f8278921c56e6f43987b5e3df6d4da3e2939b0015cf45909eec4adbfd4f8fe4a7d72d2dd38ff22351d2bd131bee9255d2b2d5e23fdccc1dca4588f4a4aa2f9c13ce05636f3e04a6c9884bf6a4d1efcb68ba358214053ec6ddaa02f9fbe74d2af94f4587dc8ea36d381615b9f80d827883cc743b921d1225ce3ebaa8686847423375170a586878a8d756ad6cbf5c6eace1d182ef14909781f200c3804d4b77cf7d07627a2bc8574e05cc2e1b9f1b69811a999fe84bbbaec142da4afe4660a3aff07a2887dea1cd69ee3fc9087c562d41f2d6038843046d2621a8e3882a0480ce184952a6f0ac5a1ef67edf3268a952c0b969df30e183d06559b48b1a06adc854c39c14d4b8b1c0beb014d38a925cf559798471676055bf17bdaf90b59d64f5e55992d1afbf76e15e8b4f97c4a3b0cd631c488e0f1ab62ea86e598e35f756d7068ef8955ed32e7dfb17c2e636bc257955d54aa9dd7290da30284eebe0fa9e156dce2dbf5c8f73d5e5f5ceb892c4762aa41eb1e28bbef1dc362c542ba739c84acec6e950e2d0cf239274fbf74a70087c65ca2af4b236d68b8826ddb3d99c9fca09b5569c99adeee7f8973818655b6ba9872199965e80fbaaf2fff7a291b63a462d5b2de9adaf463ac3ecf6e2cf5f5e79a7fc5377d4c814e7694475acbb215eb6f6ce1370b49e946cb10836871824e587a89394c6bc117aa1f3a6cee748f54068cba5c456cc86a7555113907bc43df7d0af583a31e0458effa4c56b079240885511e0e0f4327cb201a639b486797d3c63a834a30d86a5fb8e3bc2de1b416c80ff77e49393ee19579e6c4629a85e27018fbe03db2a9f89f7cdeb83e4feab37cd8462de08b4926eaa2f5a944af4964cdf0907ba0936764115026721ddcf2152538d0bdd4958da5d53b05a16a92d5386fc78c72a18c0c5f904523ce600edde02d473dc24f4ca432a2e863cd80af4bae998556e54e25f16556d06cb6967e8c2cc7908e3e2747d9e44b061d7e68d23028315e9fb788348b8844862e64da93081487d0898ee341f7f3ad98c8e6b0bef82843d98033b6f67bd09525a20a3aeb3f6f133c126801a5e3582c9f9ce81837fef87a5f5adb02f92c65b427745b0a9f08dc897c7797e5c3e9f9b6498204a65cc19f5f31fca9760396c46adb8abddd19bb1929cf34583d351f01dbbeacfcedfaab3619ee4bfbda8910e65ffb2f79a48931e6b08cfffb91db6fdfc225b013f8a225f8f0c14b5e4b0936875e24a8a5c4f8aba89ec40583229c4e5fd6e4d07592b907fbad826a7ad4217bcac8dd2ebe01bff1b704019fb730ae55b9ef642b80445f631191aba9f622fa0e7861ab93b639886c9bed045512b6d4b501657dd8d451e62cff4eebd1275beea9575dfe4162447c106623c0c623cab4063e1906e4e9220e4d179107352e06f328af39c0b0234dba05256122d24c0b31116db727245ad2ea2d54a3a7c1a23ae5f4f2dc1ae83f77748acedf9dd0f76e4c693b25af0375528d49c1ac080cf24a93148f5828d32c50e8a227604019134a38b28d045d69477719f68e1178ff43a59d9f1374aef01ff673692ebf2f3ee6a5cb4e18363bd5e06caed5ca656ae4144f05afebba3e1db6de57f0940ee7b598b44875c479728a33e122395c8080d93cea48717d4d3f47581d8fcede443fa6f4e91c427910efb9bc9c744ef7b9612e9e904fe572bfe619b7c8cf057ac69f73ee63323687a772d7b96f112af5958b51269f035ff5f7f5057ed4d034713aec2680c37ec4897d1dc18d401b3ce595ace3524bfc9bcb8ca1d00204c51696e05db6d5aaa625472d3affe6df20f1d46415c80d2bd6b67682107f7f98cbe253660eea371587431cd08d2a5ff570662be68578fbc0e46af76fd49e36e60c05336ba1ccb280d3704a8606add441964a1b6bcb960b416ae821efcceda9b650e4be9a9409765225b34fa2a07de6e23faaa5c9bf5f0de5568d3f39e530740f26e3249c0491b696d04c0ae9bad75b06f6d4f9d7908e9da575126bbed3c08206eeefa230cfac8ab5ba525b1d14bc83d25703831cd09c491fa1051625e7a9ad090fe613fea9621c70d79d13944c39ff857f08b3c8d65d71435a7e84eadb7a71fc48e6a795b8329d0528bacc60e99ea388070b5204423f8970f1a552ad86beeca03145f931cf6e7aa98b54b813d8bfc603f282406997e4a2437121ba842263e7098c064b98de656b08c00956d870b12c1b2c923da8dfc75591702776a0230e30621197d242ab2ec5ab97f23566815eaa62c104c9d162111f7b57a8146533534b2abfe94a22f5a9ddfc211d2ae8085295a78f1caf1ede7cf70e78c7ed5dd84ab01d7f271471698b382636d3962112770003188a87e9c2afbfb6f526bb3a48f1df5b784e195ea3173f3b7bd84c3cd0f6df9dcebca66310828781e9897ec557f7b04ba9b79c72e5b5902b4aa822f442cf715f06650c906ad4b935e5c88fbdab9aee0a875abac443fbaeba871220200694f98163a54465dac98c3a77baf86bc510d058bac96438cf2a57c371c4a8c2daa932f701e39458273701645d04b2155236411fcee85c87bc3733f909f8c25df42f795c054a7533f5745eb1b2d61d302c60910fe35f5e54507a9c289fbf597a5c97162abb53df562a77ec2bae4c110507ca71b5096908172737435f6376858cadc1c7d4dfe2e6f924343a466c707887d6ddfafe22283240656f9395bfc0f2fc141d445d5e818d97a3a4c1d1d5ddf20000000000000000000000000000000000000000000000121e2a3901fd2105003b2b57470856a09d0154c6f729f42907648884aaa1e140aac302926df9d8000e033cf9cb17714d51fb81fb42236b77349fa8e69fe4707d96eb0ddd442d16633ccdd86c4ecac271837cdeffec57eb8179205a4f034698aa3261fa3d9cdbcaf5d61e76ab96ce489344bd594f6367c78691de02c3833d419eb32c58b1e9826b194837cf9009ce6d567884c0852eb29cf37d4389d1d485c4d0f9c1f6e97639052c40e84eaea95516a6317bfbbb28f9af39758c25862d8bee78d727aa30318181be63b6c7fffc44ed9bcbca965b2a05e38cbb238be98a9106092e5c86a841ffa4f47338d333cc69c2bdc993cb73e372bce801c3fa792fa97b676738e280aab9b4933c4243eee2f9af834e7da87b1d09e18c5758fe09b11c3304e492041d6e9fd41d947d15b097cdc0c9bc4545eecaea603c0c12e084a8b1e73bbc32d422f746df84225891ff987b29f03692a1cfbe0b5b2d151287866942f66c08786aa01c82a20bf1acf03443f494151fd2d4a842d329139db6e54fe94b4d4c96cc4d2d975801c74fd5d1bb0f42ff07db3ba8ce004c2918d38ff966269d088bd3da80ac350393f6546d0e50e93afbfc5552440021c7c6898551e06f460419b912c68038b78dfce0beb7095e332703ee10881b48cc6601ee828cfcc2536e960a47c91cb765ccaea5a872265e4d3e45ab95a6e26d9f57b620263c805a7ad768dcb1e0d0bed97f603aad0339474c588347765fa2cf8461c03c195f32be33925228096ca4b3dece669aa09954f3daa58aa3c7de766aafbb289414f59960666ab5ecb3937afe02da3274c61a124deafc0a34a7a133625b0e6a6b7a9150846680d58702b6d7ff5ac121348b655a79346d4478e74058bf4ce70c90eb4558dd8172a944271701326052aadbda9b652638dc346c079f50661712f5ebdfcd01c5e4071f434178afc1fb859d1cac05dc2754ad99ccb0592c7bd19cba1e9db1c83c9ff82e30b86a7e68e1ef47693b8b816e1820bb685aa27f90c472a7d1fb1e50b5adddea3514585f946498db8f585007e76bde8e97cfe1c218b9fa9a1493ad8b7a33c0b945a8b6df0c4bdaba749f7de0a6a2bbf6e68d319b43b20094f0ebf03db4df4a7025f4ca7a3b3f5236f858f0cc0c59055e169b6fbec28b040e78019cefc5d081bab6e47cc8cae250ebf8de2ef86d99222557c214f289408fcbd64d495add623991d0ede6d6b1f869608aa4c0a3ee1dc7857ef86bd59e449f7ac66ff6f808e58aaecec9e55a1899966b51714c020f843be9d6516460408d6086afb5b0e792a960957fa6fb4fef37527d23186ca8ef8c244ff7ddc50b197f0b9a6bf8eb7af2fbfbf6d53e49f09d97549b570e72421ef1c24c4fac16adb26615c3ac0719b02fc741c12d9f2958852af9a453e42b09ec1a33f60a50f276c8a882fd0c3dbb5c1483b838f72edd56965fd301e18668256948132f45ee6c771230c96dbab5ff5fab525cb0ae513752b783db8b20a42984f3a5aa7c7ba1c6d2ea74bc02589fe6b9bcc5a878bef1fad63555529854c9d79f93f52c0b6f1608262c2d6d5aacefa7b97208fabd113afd981e98dd8616397bfffac1d127cbb4e353305ec8bcb1158e4a0e785a58be28413fcfbca7b446ea5d12536754750dd37262c2e32cde38a408450688b4dbfc46becf08b98652a349359c2fbbe02a511c8be5ca106a5dffff2fe7755aa6d2db4830d0fa511b759238ff37c6a88722230291648f486a1a379369147de2d2e1ef7ef06365badcc758e2c1655caa1700577d40ce6154b57b3eddd3c7bd329bef8b4a7eda932dd5caa13a3d31f8cf97995435b2be7b1a36610364429ba1da65b061736f378fb5b2e2f8c289000000",
  "txid": "157998cdc51323d6fe8b11cbeab55d5ce4d24eb2195471844e0b87289b7ba8b6",
  "hash": "864ccdf692e9c1cc8e11a97df32ee30a215f70c119fffb62d18cde64fdb02c60",
  "size": 5085,
  "vsize": 2278,
  "version": 1,
  "locktime": 137,
  "vin": [
    {
      "txid": "6079e7925bd9cccd7c93c2056e1fdb5f99e7119ec5e7151d3ee4dd7ac19e0cb5",
      "vout": 0,
      "scriptSig": {
        "asm": "",
        "hex": ""
      },
      "txinwitness": [
        "f37ff6c57d68d924ab7193947edf7647f9d233187dbb1e4c52e69c0687a88f3821e8a280bce6d37487b17672497d10d8035569659062ab04ef291bafeccbbba8c4a1dd3eec3d6d21f6b876dc7f4ba1fc4005cd537eb6a541f5eb5acd64491f3b814f39e4631fa171dc880ac41ddfa9d0e853ee4e61231a6f517743e2b7afc2ee8508e70b226d931c32a1a0b34cf889ee2064d9d8703e77a5e58b5404b664677673f750d1e014b3acbd4b921df2104026d3cce0373b60513501c3dabfb44efb9e9eb888637bbf381a357e80c187d6e9f3fd6452d72017aae0238cdddd81f4ea5c5860931c4682500439e7d9e27d28b0be2e8644b2aa591b88481170ef7736227d807d6cd140524e0e6401c51fe3e8dbe21d72b1fdac6b272254385ee158d8a5ae8a8ef20e2e40a54531271bb40d6010e4dce4ec7fd090f46b5e4230421ccec0d4cf88549b8babf2fa994cb2badd00f361c67096a02334d3e3879d51a0feb163693bb794a17d886f82a3a0b41e98e20ef2366be85aecf4357d46f27a84c6fd7851f469025f7a628306e49a52ef055083b8c7773642318bb6a583b2e7e40010e53ee0f7c31eb38f47d21fff456899d4c0f556c6f841e7a16f02825fbaf9c93eb30e175e84f7a6f8278921c56e6f43987b5e3df6d4da3e2939b0015cf45909eec4adbfd4f8fe4a7d72d2dd38ff22351d2bd131bee9255d2b2d5e23fdccc1dca4588f4a4aa2f9c13ce05636f3e04a6c9884bf6a4d1efcb68ba358214053ec6ddaa02f9fbe74d2af94f4587dc8ea36d381615b9f80d827883cc743b921d1225ce3ebaa8686847423375170a586878a8d756ad6cbf5c6eace1d182ef14909781f200c3804d4b77cf7d07627a2bc8574e05cc2e1b9f1b69811a999fe84bbbaec142da4afe4660a3aff07a2887dea1cd69ee3fc9087c562d41f2d6038843046d2621a8e3882a0480ce184952a6f0ac5a1ef67edf3268a952c0b969df30e183d06559b48b1a06adc854c39c14d4b8b1c0beb014d38a925cf559798471676055bf17bdaf90b59d64f5e55992d1afbf76e15e8b4f97c4a3b0cd631c488e0f1ab62ea86e598e35f756d7068ef8955ed32e7dfb17c2e636bc257955d54aa9dd7290da30284eebe0fa9e156dce2dbf5c8f73d5e5f5ceb892c4762aa41eb1e28bbef1dc362c542ba739c84acec6e950e2d0cf239274fbf74a70087c65ca2af4b236d68b8826ddb3d99c9fca09b5569c99adeee7f8973818655b6ba9872199965e80fbaaf2fff7a291b63a462d5b2de9adaf463ac3ecf6e2cf5f5e79a7fc5377d4c814e7694475acbb215eb6f6ce1370b49e946cb10836871824e587a89394c6bc117aa1f3a6cee748f54068cba5c456cc86a7555113907bc43df7d0af583a31e0458effa4c56b079240885511e0e0f4327cb201a639b486797d3c63a834a30d86a5fb8e3bc2de1b416c80ff77e49393ee19579e6c4629a85e27018fbe03db2a9f89f7cdeb83e4feab37cd8462de08b4926eaa2f5a944af4964cdf0907ba0936764115026721ddcf2152538d0bdd4958da5d53b05a16a92d5386fc78c72a18c0c5f904523ce600edde02d473dc24f4ca432a2e863cd80af4bae998556e54e25f16556d06cb6967e8c2cc7908e3e2747d9e44b061d7e68d23028315e9fb788348b8844862e64da93081487d0898ee341f7f3ad98c8e6b0bef82843d98033b6f67bd09525a20a3aeb3f6f133c126801a5e3582c9f9ce81837fef87a5f5adb02f92c65b427745b0a9f08dc897c7797e5c3e9f9b6498204a65cc19f5f31fca9760396c46adb8abddd19bb1929cf34583d351f01dbbeacfcedfaab3619ee4bfbda8910e65ffb2f79a48931e6b08cfffb91db6fdfc225b013f8a225f8f0c14b5e4b0936875e24a8a5c4f8aba89ec40583229c4e5fd6e4d07592b907fbad826a7ad4217bcac8dd2ebe01bff1b704019fb730ae55b9ef642b80445f631191aba9f622fa0e7861ab93b639886c9bed045512b6d4b501657dd8d451e62cff4eebd1275beea9575dfe4162447c106623c0c623cab4063e1906e4e9220e4d179107352e06f328af39c0b0234dba05256122d24c0b31116db727245ad2ea2d54a3a7c1a23ae5f4f2dc1ae83f77748acedf9dd0f76e4c693b25af0375528d49c1ac080cf24a93148f5828d32c50e8a227604019134a38b28d045d69477719f68e1178ff43a59d9f1374aef01ff673692ebf2f3ee6a5cb4e18363bd5e06caed5ca656ae4144f05afebba3e1db6de57f0940ee7b598b44875c479728a33e122395c8080d93cea48717d4d3f47581d8fcede443fa6f4e91c427910efb9bc9c744ef7b9612e9e904fe572bfe619b7c8cf057ac69f73ee63323687a772d7b96f112af5958b51269f035ff5f7f5057ed4d034713aec2680c37ec4897d1dc18d401b3ce595ace3524bfc9bcb8ca1d00204c51696e05db6d5aaa625472d3affe6df20f1d46415c80d2bd6b67682107f7f98cbe253660eea371587431cd08d2a5ff570662be68578fbc0e46af76fd49e36e60c05336ba1ccb280d3704a8606add441964a1b6bcb960b416ae821efcceda9b650e4be9a9409765225b34fa2a07de6e23faaa5c9bf5f0de5568d3f39e530740f26e3249c0491b696d04c0ae9bad75b06f6d4f9d7908e9da575126bbed3c08206eeefa230cfac8ab5ba525b1d14bc83d25703831cd09c491fa1051625e7a9ad090fe613fea9621c70d79d13944c39ff857f08b3c8d65d71435a7e84eadb7a71fc48e6a795b8329d0528bacc60e99ea388070b5204423f8970f1a552ad86beeca03145f931cf6e7aa98b54b813d8bfc603f282406997e4a2437121ba842263e7098c064b98de656b08c00956d870b12c1b2c923da8dfc75591702776a0230e30621197d242ab2ec5ab97f23566815eaa62c104c9d162111f7b57a8146533534b2abfe94a22f5a9ddfc211d2ae8085295a78f1caf1ede7cf70e78c7ed5dd84ab01d7f271471698b382636d3962112770003188a87e9c2afbfb6f526bb3a48f1df5b784e195ea3173f3b7bd84c3cd0f6df9dcebca66310828781e9897ec557f7b04ba9b79c72e5b5902b4aa822f442cf715f06650c906ad4b935e5c88fbdab9aee0a875abac443fbaeba871220200694f98163a54465dac98c3a77baf86bc510d058bac96438cf2a57c371c4a8c2daa932f701e39458273701645d04b2155236411fcee85c87bc3733f909f8c25df42f795c054a7533f5745eb1b2d61d302c60910fe35f5e54507a9c289fbf597a5c97162abb53df562a77ec2bae4c110507ca71b5096908172737435f6376858cadc1c7d4dfe2e6f924343a466c707887d6ddfafe22283240656f9395bfc0f2fc141d445d5e818d97a3a4c1d1d5ddf20000000000000000000000000000000000000000000000121e2a3901",
        "003b2b57470856a09d0154c6f729f42907648884aaa1e140aac302926df9d8000e033cf9cb17714d51fb81fb42236b77349fa8e69fe4707d96eb0ddd442d16633ccdd86c4ecac271837cdeffec57eb8179205a4f034698aa3261fa3d9cdbcaf5d61e76ab96ce489344bd594f6367c78691de02c3833d419eb32c58b1e9826b194837cf9009ce6d567884c0852eb29cf37d4389d1d485c4d0f9c1f6e97639052c40e84eaea95516a6317bfbbb28f9af39758c25862d8bee78d727aa30318181be63b6c7fffc44ed9bcbca965b2a05e38cbb238be98a9106092e5c86a841ffa4f47338d333cc69c2bdc993cb73e372bce801c3fa792fa97b676738e280aab9b4933c4243eee2f9af834e7da87b1d09e18c5758fe09b11c3304e492041d6e9fd41d947d15b097cdc0c9bc4545eecaea603c0c12e084a8b1e73bbc32d422f746df84225891ff987b29f03692a1cfbe0b5b2d151287866942f66c08786aa01c82a20bf1acf03443f494151fd2d4a842d329139db6e54fe94b4d4c96cc4d2d975801c74fd5d1bb0f42ff07db3ba8ce004c2918d38ff966269d088bd3da80ac350393f6546d0e50e93afbfc5552440021c7c6898551e06f460419b912c68038b78dfce0beb7095e332703ee10881b48cc6601ee828cfcc2536e960a47c91cb765ccaea5a872265e4d3e45ab95a6e26d9f57b620263c805a7ad768dcb1e0d0bed97f603aad0339474c588347765fa2cf8461c03c195f32be33925228096ca4b3dece669aa09954f3daa58aa3c7de766aafbb289414f59960666ab5ecb3937afe02da3274c61a124deafc0a34a7a133625b0e6a6b7a9150846680d58702b6d7ff5ac121348b655a79346d4478e74058bf4ce70c90eb4558dd8172a944271701326052aadbda9b652638dc346c079f50661712f5ebdfcd01c5e4071f434178afc1fb859d1cac05dc2754ad99ccb0592c7bd19cba1e9db1c83c9ff82e30b86a7e68e1ef47693b8b816e1820bb685aa27f90c472a7d1fb1e50b5adddea3514585f946498db8f585007e76bde8e97cfe1c218b9fa9a1493ad8b7a33c0b945a8b6df0c4bdaba749f7de0a6a2bbf6e68d319b43b20094f0ebf03db4df4a7025f4ca7a3b3f5236f858f0cc0c59055e169b6fbec28b040e78019cefc5d081bab6e47cc8cae250ebf8de2ef86d99222557c214f289408fcbd64d495add623991d0ede6d6b1f869608aa4c0a3ee1dc7857ef86bd59e449f7ac66ff6f808e58aaecec9e55a1899966b51714c020f843be9d6516460408d6086afb5b0e792a960957fa6fb4fef37527d23186ca8ef8c244ff7ddc50b197f0b9a6bf8eb7af2fbfbf6d53e49f09d97549b570e72421ef1c24c4fac16adb26615c3ac0719b02fc741c12d9f2958852af9a453e42b09ec1a33f60a50f276c8a882fd0c3dbb5c1483b838f72edd56965fd301e18668256948132f45ee6c771230c96dbab5ff5fab525cb0ae513752b783db8b20a42984f3a5aa7c7ba1c6d2ea74bc02589fe6b9bcc5a878bef1fad63555529854c9d79f93f52c0b6f1608262c2d6d5aacefa7b97208fabd113afd981e98dd8616397bfffac1d127cbb4e353305ec8bcb1158e4a0e785a58be28413fcfbca7b446ea5d12536754750dd37262c2e32cde38a408450688b4dbfc46becf08b98652a349359c2fbbe02a511c8be5ca106a5dffff2fe7755aa6d2db4830d0fa511b759238ff37c6a88722230291648f486a1a379369147de2d2e1ef7ef06365badcc758e2c1655caa1700577d40ce6154b57b3eddd3c7bd329bef8b4a7eda932dd5caa13a3d31f8cf97995435b2be7b1a36610364429ba1da65b061736f378fb5b2e2f8c2"
      ],
      "sequence": 4294967294
    }
  ],
  "vout": [
    {
      "value": 1.0,
      "n": 0,
      "scriptPubKey": {
        "asm": "OP_RETURN 9aabe4a265f87cd31da1d17420b668a24cc74b713674fe7bdf7a03011d8a2318 0c9f3877f26b066112a96cbb5782bd5675b7d051fa783901342ad3130852aa592cbf1857d24b264132894c9b77a29d765597f071da581921140af33328728a794cdf7837b22b462152e92cfb17c2fd1635f79011ba387941746a93534812ea196cff5817920b660172c90cdb37e2dd3615d7b0319a185961544ab3736832ca398c1fb8f772eb86e19229ec3bd7023dd6f53750d17af8b981b4aa539388d22ad9ac3f98d752cba6c1b209cc1bf7221df6d51770f15ad899a1948a73b3a8f20af9cc5ff8b732abc6a1d269ac7b97427d96b57710913ab8f9c1f4ea13d3c8926a99ec7fd897128be681f2498c5bb7625db6955730b11a98d9e1d4ca33f3e8b24ab90c9f3877f26b066112a96cbb5782bd5675b7d051fa783901342ad3130852aa592cbf1857d24b264132894c9b77a29d765597f071da581921140af33328728a794cdf7837b22b462152e92cfb17c2fd1635f79011ba387941746a93534812ea196cff5817920b660172c90cdb37e2dd3615d7b0319a185961544ab3736832ca398c1fb8f772eb86e19229ec3bd7023dd6f53750d17af8b981b4aa539388d22ad9ac3f98d752cba6c1b209cc1bf7221df6d51770f15ad899a1948a73b3a8f20af9cc5ff8b732abc6a1d269ac7b97427d96b57710913ab8f9c1f4ea13d3c8926a99ec7fd897128be681f2498c5bb7625db6955730b11a98d9e1d4ca33f3e8b24ab90c9f3877f26b066112a96cbb5782bd5675b7d051fa783901342ad3130852aa592cbf1857d24b264132894c9b77a29d765597f071da581921140af33328728a794cdf7837b22b462152e92cfb17c2fd1635f79011ba387941746a93534812ea196cff5817920b660172c90cdb37e2dd3615d7b0319a185961544ab3736832ca398c1fb8f772eb86e19229ec3bd7023dd6f53750d17af8b981b4aa539388d22ad9ac3f98d752cba6c1b209cc1bf7221df6d51770f15ad899a1948a73b3a8f20af9cc5ff8b732abc6a1d269ac7b97427d96b57710913ab8f9c1f4ea13d3c8926a99ec7fd897128be681f2498c5bb7625db6955730b11a98d9e1d4ca33f3e8b24ab90c9f3877f26b066112a96cbb5782bd5675b7d051fa783901342ad3130852aa592cbf1857d24b264132894c9b77a29d765597f071da581921140af33328728a794cdf7837b22b462152e92cfb17c2fd1635f79011ba387941746a93534812ea196cff5817920b660172c90cdb37e2dd3615d7b0319a185961544ab3736832ca398c1fb8f772eb86e19229ec3bd7023dd6f53750d17af8b981b4aa539388d22ad9ac3f98d752cba6c1b209cc1bf7221df6d51770f15ad899a1948a73b3a8f20af9cc5ff8b732abc6a1d269ac7b97427d96b57710913ab8f9c1f4ea13d3c8926a99ec7fd897128be681f2498c5bb7625db6955730b11a98d9e1d4ca33f3e8b24ab90c9f3877f26b066112a96cbb5782bd5675b7d051fa783901342ad3130852aa592cbf1857d24b264132894c9b77a29d765597f071da581921140af33328728a794cdf7837b22b462152e92cfb17c2fd1635f79011ba387941746a93534812ea196cff5817920b660172c90cdb37e2dd3615d7b0319a185961544ab3736832ca398c1fb8f772eb86e19229ec3bd7023dd65823202cffe3ca325b02e5e101bef4e42113dfb3a3a7cd328b188753fae93561",
        "hex": "6a209aabe4a265f87cd31da1d17420b668a24cc74b713674fe7bdf7a03011d8a23184db0040c9f3877f26b066112a96cbb5782bd5675b7d051fa783901342ad3130852aa592cbf1857d24b264132894c9b77a29d765597f071da581921140af33328728a794cdf7837b22b462152e92cfb17c2fd1635f79011ba387941746a93534812ea196cff5817920b660172c90cdb37e2dd3615d7b0319a185961544ab3736832ca398c1fb8f772eb86e19229ec3bd7023dd6f53750d17af8b981b4aa539388d22ad9ac3f98d752cba6c1b209cc1bf7221df6d51770f15ad899a1948a73b3a8f20af9cc5ff8b732abc6a1d269ac7b97427d96b57710913ab8f9c1f4ea13d3c8926a99ec7fd897128be681f2498c5bb7625db6955730b11a98d9e1d4ca33f3e8b24ab90c9f3877f26b066112a96cbb5782bd5675b7d051fa783901342ad3130852aa592cbf1857d24b264132894c9b77a29d765597f071da581921140af33328728a794cdf7837b22b462152e92cfb17c2fd1635f79011ba387941746a93534812ea196cff5817920b660172c90cdb37e2dd3615d7b0319a185961544ab3736832ca398c1fb8f772eb86e19229ec3bd7023dd6f53750d17af8b981b4aa539388d22ad9ac3f98d752cba6c1b209cc1bf7221df6d51770f15ad899a1948a73b3a8f20af9cc5ff8b732abc6a1d269ac7b97427d96b57710913ab8f9c1f4ea13d3c8926a99ec7fd897128be681f2498c5bb7625db6955730b11a98d9e1d4ca33f3e8b24ab90c9f3877f26b066112a96cbb5782bd5675b7d051fa783901342ad3130852aa592cbf1857d24b264132894c9b77a29d765597f071da581921140af33328728a794cdf7837b22b462152e92cfb17c2fd1635f79011ba387941746a93534812ea196cff5817920b660172c90cdb37e2dd3615d7b0319a185961544ab3736832ca398c1fb8f772eb86e19229ec3bd7023dd6f53750d17af8b981b4aa539388d22ad9ac3f98d752cba6c1b209cc1bf7221df6d51770f15ad899a1948a73b3a8f20af9cc5ff8b732abc6a1d269ac7b97427d96b57710913ab8f9c1f4ea13d3c8926a99ec7fd897128be681f2498c5bb7625db6955730b11a98d9e1d4ca33f3e8b24ab90c9f3877f26b066112a96cbb5782bd5675b7d051fa783901342ad3130852aa592cbf1857d24b264132894c9b77a29d765597f071da581921140af33328728a794cdf7837b22b462152e92cfb17c2fd1635f79011ba387941746a93534812ea196cff5817920b660172c90cdb37e2dd3615d7b0319a185961544ab3736832ca398c1fb8f772eb86e19229ec3bd7023dd6f53750d17af8b981b4aa539388d22ad9ac3f98d752cba6c1b209cc1bf7221df6d51770f15ad899a1948a73b3a8f20af9cc5ff8b732abc6a1d269ac7b97427d96b57710913ab8f9c1f4ea13d3c8926a99ec7fd897128be681f2498c5bb7625db6955730b11a98d9e1d4ca33f3e8b24ab90c9f3877f26b066112a96cbb5782bd5675b7d051fa783901342ad3130852aa592cbf1857d24b264132894c9b77a29d765597f071da581921140af33328728a794cdf7837b22b462152e92cfb17c2fd1635f79011ba387941746a93534812ea196cff5817920b660172c90cdb37e2dd3615d7b0319a185961544ab3736832ca398c1fb8f772eb86e19229ec3bd7023dd65823202cffe3ca325b02e5e101bef4e42113dfb3a3a7cd328b188753fae93561",
        "type": "nulldata"
      }
    },
    {
      "value": 499960.3409,
      "n": 1,
      "scriptPubKey": {
        "asm": "1 2abf26d4b10400925d95f135a6fc2a883901b82c9ffa760d419ef86a8b5fa443",
        "hex": "51202abf26d4b10400925d95f135a6fc2a883901b82c9ffa760d419ef86a8b5fa443",
        "reqSigs": 1,
        "type": "witness_v1_scripthash",
        "addresses": [
          "3QJmnh"
        ]
      }
    }
  ],
  "blockhash": "9c49f121af07ca043271baff5049446c1aadf74400091ff8de6bf4087ac8778e",
  "confirmations": 1,
  "time": 1764183425,
  "blocktime": 1764183425
}