{
  "hex": "01000000000101fae5f6c23ec8a38eae315653c324981ac3a4245582e7fdfaf851df42e7cb6e8f0000000000feffffff026024ab89782d000022512037f40e52404e9565db1a0fa820daf52f713b2523eb86703de8a1412d143708f600e1f50500000000fdd5046a208eccfae8359f1e110e22434d3bc0a3ab7345f9a726c6cf1c57589ea57ce22f074db004dbf87eb1a3d9c92298274a37bb163da2fdec5bb5d7108c0584a37eaedac1aec4fbd85e9183f9e902b8076a179b361d82ddcc7b95f730ac25a4835e8efae18ee49bb83ef1e3998962d8670a77fb567de2bdac1bf59750cc45c4e33eee9a81ee84bb981ed1c3b9a942f8472a57db765dc29d8c3bd5b770ec65e4c31ecebaa1cea45b78fe31235949a218a7cab73b96bd227d6cdb3557900c850423fe2e5a412e447b58de11037969823887ea971bb69d025d4cfb1577b02ca52403de0e7a610e641b38be71631909e258e78af77bd6fd623d2c9b7517d04cc54463be6e1a016e043b189e51433929c278c7aad75bf6dd421d0cbb5537f06ce564439e4e3a214e24dbf87eb1a3d9c92298274a37bb163da2fdec5bb5d7108c0584a37eaedac1aec4fbd85e9183f9e902b8076a179b361d82ddcc7b95f730ac25a4835e8efae18ee49bb83ef1e3998962d8670a77fb567de2bdac1bf59750cc45c4e33eee9a81ee84bb981ed1c3b9a942f8472a57db765dc29d8c3bd5b770ec65e4c31ecebaa1cea45b78fe31235949a218a7cab73b96bd227d6cdb3557900c850423fe2e5a412e447b58de11037969823887ea971bb69d025d4cfb1577b02ca52403de0e7a610e641b38be71631909e258e78af77bd6fd623d2c9b7517d04cc54463be6e1a016e043b189e51433929c278c7aad75bf6dd421d0cbb5537f06ce564439e4e3a214e24dbf87eb1a3d9c92298274a37bb163da2fdec5bb5d7108c0584a37eaedac1aec4fbd85e9183f9e902b8076a179b361d82ddcc7b95f730ac25a4835e8efae18ee49bb83ef1e3998962d8670a77fb567de2bdac1bf59750cc45c4e33eee9a81ee84bb981ed1c3b9a942f8472a57db765dc29d8c3bd5b770ec65e4c31ecebaa1cea45b78fe31235949a218a7cab73b96bd227d6cdb3557900c850423fe2e5a412e447b58de11037969823887ea971bb69d025d4cfb1577b02ca52403de0e7a610e641b38be71631909e258e78af77bd6fd623d2c9b7517d04cc54463be6e1a016e043b189e51433929c278c7aad75bf6dd421d0cbb5537f06ce564439e4e3a214e24dbf87eb1a3d9c92298274a37bb163da2fdec5bb5d7108c0584a37eaedac1aec4fbd85e9183f9e902b8076a179b361d82ddcc7b95f730ac25a4835e8efae18ee49bb83ef1e3998962d8670a77fb567de2bdac1bf59750cc45c4e33eee9a81ee84bb981ed1c3b9a942f8472a57db765dc29d8c3bd5b770ec65e4c31ecebaa1cea45b78fe31235949a218a7cab73b96bd227d6cdb3557900c850423fe2e5a412e447b58de11037969823887ea971bb69d025d4cfb1577b02ca52403de0e7a610e641b38be71631909e258e78af77bd6fd623d2c9b7517d04cc54463be6e1a016e043b189e51433929c278c7aad75bf6dd421d0cbb5537f06ce564439e4e3a214e24dbf87eb1a3d9c92298274a37bb163da2fdec5bb5d7108c0584a37eaedac1aec4fbd85e9183f9e902b8076a179b361d82ddcc7b95f730ac25a4835e8efae18ee49bb83ef1e3998962d8670a77fb567de2bdac1bf59750cc45c4e33eee9a81ee84bb981ed1c3b9a942f8472a57db765dc29d8c3bd5b770ec65e4c31ecebaa1cea45b78fe31235949a218a7cab73b96bd222e01f7a32722ac44675b6c912ca125c44f210843d4892ae936cd08636168c69d02fd750943b898cb16163db06b8c4d3981b37696321ce5c0db92c3f73baa1b97f2172f263079d14bbb28df0ef22cd729fd1d41431d9f2e28cb925c744faaab663386033d554149721aea5d6db62ae5458cddfed8100d5cd2dbff774d3340ab47d25b773bf3e0daee9c26afeb5dc1c90bfefc144254c45eb1fd1d7015a03bc5475eccb4b930063a1adafc99556fc2786a8cf956189eb52d48fa8005c5d1bf2d30d3e73525c28a654836d50634daff512a6d76db69ca36f6b79bbd54650e31bbfead4e256b2c9c681101be37d456bd30e5fb0cbde023a0a3e4c2a6796652e4a050bcba579fd2cdbdc90bb5abd2338a8b175c90470d47cf0252b6c607d2e5c1baa04f4149cb07ec37613d7b845b51d961dacf64b3029917e2856637258593a85214d0791102ef3973d59245c9057e7bc9c527c27c3d94ed8f76e0b7158321541282c0ee9ef45ddd02e25f76ad53a8494c03689ffc90504396783a408fd806bc816df9d79ff68ccbd24b6abaf142ee2254c1ccda644fd2d66efd29d5a117312df0a6ce9984239ace7e39ac4b20f9d47b26dd39e65abc71b55e5feeefd4b11688a69d2c9c4d212706e5a5db7965461e6368ee1adae4f3d947d7bd6b0e8015e423bdc73608ef3d070e636d5819df707bfa735bdb1fe71078ec3c52ebeb6f3279314849dea6ad02698aee7db3813ad4fd5292c9682b11f878384895b58115da8451ea7dba6ecca9815629e8708b30de23fae51e75571aed609d717d6681cd51c18415a0e57c56ca7c2d4f6fd37b483498056b3e25b298b8e7d4cf4bf8ccbb2cb7c1ea311e4b51f77ef66fffbe0e3e3cf79f070422c7f71fa3f564c9434a23d525fd016df3a7d74f0765dff21afe6868e5b26b1272001f4597648b33bc3039cfb41990bb36699668baac514bc2baf03ebae226e5bad5f742503a66d62cab5d1e4661fed0584ac0b063ce8aa3aa260c05e1e9a5ad691af82880eb1e7c215d1b754d5fe6638346549f6444186d91280d06c1f09f8e75aa698eae1b5bef95e9b2d2d9536bf461ce70514ee8a82663be6c27361efc6e0c1f947c061f1b2fa76877620f8aa353871b88abeed834ea6d9cb08faf56090a8a46291e037ec0c40953031cec6e9de461883f03a7d1ffb81a1c5c9688f0610ae9fae0dd3767cc9de7ff32a21ea506dd16950b6b1ca4436ae15c7c02441fd2f163d392aeeb98797f1aad970a595d877acbc5a7e9792da823e7b4652ef86ef1029c1b23aba05b5f763250659600fe098f599abbe07e039a09b339c729d7fe0e28ec188e6ccb5430c3f4623656f20f8131b32f2e1bf9b3b1982a559283b2b0046fccf44d2876456f331bf4b46075846b178f9c7bc89dc69f06aa7fcf7a28efd942a5be2e8ec6079e48fefd5bcc735aec1683d80bbfe1b9de2a14408ceb4ea3cfcacb0349474e3405c6df695acc9d291ca3457b800dd6b041341f8da041e041f38c06b4b38a9cb6e115099ba761503d41b1a680e1da7490e2d6f4e33ae82f04fed777fb6fc67ada1deb0dad4ee7192d4bef05837f97b067f1a8567f056b00ecb47c49d7e49f48aaefa01a97f1ea2a1e23a43bd120ebb993ebb0e1c4ffdbbe55362abf2e9974f8bb523cf52dacf756c669a8aa2ae80cf2910a78c5641949a317d69cc43edb696988002293ec66e4c97e7c2759e735f5e7d07400c53112da071513fbd005eeb6ef4aaba0f6c5b14c708bd890e05e98b04770141b298dcaf0eef3f1919a07223c5aa14d209e734f337d697d4568e245854f8a3464bf5cb86b6ef81c896b5ddfeba2a1f77ada792623f505cdd12aedc0e3475eabdb0b93b41d8eef43b42230a8b04ede5361b27cea0788fc5c51ad923e544e4548356015cba51ea9e3489aced20898ca8cddb8fb0a39215bfb820f23faa760775918121324382fc4baeddaf4462e1c11c25d13a5b63f015701976130f0170f6163a79edf1bebeee1b4fdd83f5755099207f1df05680dda710a0b27fca61e73e408e0c556721eeabddb76f3c28cf4523057e54ab43ef33ef7628b90e23ab659aee836fde1fc77b1a9f5c17ba4b29a704294c061242ec64c3392c88652659348a81965ee77a1fed9ab7f1820e98110a53f906e50e9f2e86622c35a1b32c8db651faeae0d3c69a7838fcf8f37773032d2195bb755f9f95703a4fa428830be89eb803331976be16f028d1ece7ca6ef3b3a15d318d40c4e44d18ec6ce32dd35db666b6334fcaba55ed2a2a81945de36ea185da00d6e4de142abefc13c3a29f824ea2ce29c5690dbf144a9a3c8e6520d210dada5ce433bb04de25e51ab1c05fb7d711aefe7d1a4e5f609b8e47d478c3928c30f5d30c60a4e615d353816a7891ca5aae747e9beb025771e7c530656dde9fa70e4e56f3d9bdfa8aeb0307027d1cc9b165a107234213ce4975449907a149f931f7b38a1a0b9ca76c7797245e55d830c13cdec9882eba68d25dfdb27fc9e7484bb43db8768b1ab9dd7f6266ae9d212043e4abcb8ee87da34379fa6e12d96132659249051fa88f0940ac3549f05f9f2ffe0e1bfcfb331298ec7a651bc59f09aed372be077b19164755e532bdc69cc33280a712cffbe4fe574563460935d027150694be96466f1770360e2eb13067b19e60fb9f0fc95e3cfbb7167d5595f5770c2dafc896415293b4872b482635ab7d03e5f832fc1537807b044275b5daaa1353b61c862cabe33d8b0ec2ea51c409e8bc52815372258ce8849c17419a50b9a35f509ec1d196fc825db77624418888e71f7a0ff82d3eba65688cfa1634bb9aa3b2c2c17e4e039556bd6ccae6cd029258bf657182f7fea1da2ce2405f1d38c47ba5011319aceee39b6d5e53895211a0592187f0c021c3ef13cae40bb2bd797165417e0d55a29db8279be800266f23aafd501223142ca4039d373cf57560718feb1c02bdbe384f7e5ab913e5ff51a75da4d23230604d09d095204d574f0065e98ed085400ea7a92771fc23a5cdb60ef0c19a66db8b6411a48d6da365a86a0f755cd5ffac9331bb23457c27b1bb5d1ee2a426e48099b9270e378cf78768e92e4471f3bf8dbf0d84a39c729c184c0d294ba123bf96c08e6861477a4c72660f72f8b8ed474cc8932b50d1a31f9691dc3333c9c345c4b987dfc7201f1fa450751d20d511b2f711f7f954e54cf1a725313a072a622b64dd0ccf8c7d287afc1f80c6774c57d63dbe13ffd99a1532f207b16ddc2de7b0950dd02287f73bca7772262e1f8b29c79654eae10747094498a4b3ae7f28d6caca89ea652cc7a683de238368cc21114282970f62ea327b9d5657d2a4f69c02c171e27495257648091a6b4cacfd8e5f4fd0307364a548398afb2dae2346a6d717db1b7c9dffafdff0114222f31383b49546e7072787a8d90a9cfdbdde4f0f50000000000000000000000000000000000111c283f01fd2105003cbd2b44643868ea7d5c1c7dca46b6850f99c793bb10f3f6280ff4e9ef097423d11c5869e127bdae75bc73c1f83f373ad88fda74e496d4f2aee7a2fabb1d657021cbea08960ca55f07f0dca1b5c35fb65e22f43f9f0d72abbb135a9aa0c88b43e4ce40b7385ee7896c45e066d9a15b9b3293a476195683f720a8debf774c92c4f12e9163ada9b18e161f5c525c142a1ca61d051aeae36da1294ab1279623d7e1e818b044e86d44d3ccf29ac9c0907c123a55fb18d0a6269e77d0c0719a076298016bd9653455882473796420c426741ff6963a362859d2e0f0a837c7fd8b6f7bb5c15e22bd2f6f25cc2657df52e559edf721760ac3fe5e29ec51284a0d170ca72528fb057228caaa60fc769a8f019594bebe4599bc38cd97f76f19e0c0b756aef9b93f2002b5dc9d4383c1f2bec3caa0aa6196f8c17bc3975e59f56cefce05875d3a0fd090732632000734c63d96376405dc523a6495155491f949341d26a668c20ebd39a0730d96a96e085dc1cf2a3eec31e68f57ff9beab1a60354911c7709b5012c6f8429ffeba9118939ed2b9e7dcc16f47cc1ccbd397cd9d7a62bd22fbcb5be07ccce8620ed7e47d31233de52c009135706477a51f88bf19c596266421fee33baedf9fa785a4c03a409b301c6cbd80708183a02388ca3bfa3ef2ec3dd0d2f85fd33de61ee772ff5f80a8ebffd55f139ebb10df9bd63d3460b9b16e8c87f07fcf15a0803916c4e777ccc3133bbb1934bdb614367609ce04d6929c09e67052529d3e53f158a87cd26f1a9c23d0c0ec06734dfb2b6bb9c1f35c320d80c03943a775a4b96aa7077a0bf3363586b112d5f79ec43b884c5b102a82ab264a6b2dabd4bcbd9d1923ce7c837b23a768cbaac44eb21d4aa98ed8409ff2db1b25a2182f126bc1b8c760889c72adb9bb49af6116b973b419cd9101f5ebf8a17fd0185d43d29412ee7c48b5cd741f2d0f9bb7bde5147312b550f5110007be61a09519bb93a4ace84abe4841eb3faa2e93f8fa535f85360d2a28256279d2dcf3229da9458b3bd206359e2e4fa7105c62d94c4053bbc26ac687143967ce65d2f82ce88e25e2f71a56e1c00f207de6366e0bd5791c4b48c2ff3413d962b6211be4b69d22a8b7a205b4b8282c990df7cc4c875cb05c917c29c18651a6aee490c49033cd036820d3c3dd1c5aaaa5b2617d3580a0f5177fedf61190deaca57ceeded60e35840e6b8c717aae7b5e97d375fa6cdb3bd85be7ba11a2c77e8d3b5e7a87b5a67bb3b2778311b7cd5e601f97e0ce14cd13aaa1fb561c7b8d665ac82b64358edf91882b55f5a0c62c0c2d7c131f819f2e53cfa490571f83c11f000adeafcbcca970b94b81355ebe7d2c7d5d9e96d9292e8688c105fabe1af30a37cd3432d8f066fda80df539e498a7f986d8eb81a15d6386e298a869b610b547faf63f24aabab2be919e1ab7ea49f9b93339099a42e225d9522a445c67e309b40ce2a6e7ed8663598458442c8302f311c7be8b031df748e584d7aadf7cf01d42a079dba6375492436aae566783beb46d680ec7174f9d1ed689e8188d69ded2dd87ab431663a2edd0c8f1b0233fe3265e23fced71d676af5b1580fe3718e8a9f34a510eb83ad80d26fc7353124dfd21eb02e048479f8355fe9cec2c7560a0d4c3547855e05b1ee56144f924260b09db523a2c8bf57956a22bfe2f1ae747d1f7a377fa3b1ef24017037a31ed10f505dde727caccea502b17f61b67f8b049f194d44e29071529bf2519b9959a3c68cfd1c1472ecdf7c6efd967bd106ff244f14a2aca5559c5095a4d79290a879319cd4dcfa79ede4e134fdc393fa45063f792c1050ca3818669e4f8eae697e8c000000",
  "txid": "23fbe1fbf8fc996fd4b6ab56b07225a8bb033f36cc8945a94ad470824b7e202e",
  "hash": "d40bb1f67925fc5fb8a00bdb2fbdf8ee14ebb23c9995d0819c8e82e6e8450309",
  "size": 5085,
  "vsize": 2278,
  "version": 1,
  "locktime": 140,
  "vin": [
    {
      "txid": "8f6ecbe742df51f8fafde7825524a4c31a9824c3535631ae8ea3c83ec2f6e5fa",
      "vout": 0,
      "scriptSig": {
        "asm": "",
        "hex": ""
      },
      "txinwitness": [
        "43b898cb16163db06b8c4d3981b37696321ce5c0db92c3f73baa1b97f2172f263079d14bbb28df0ef22cd729fd1d41431d9f2e28cb925c744faaab663386033d554149721aea5d6db62ae5458cddfed8100d5cd2dbff774d3340ab47d25b773bf3e0daee9c26afeb5dc1c90bfefc144254c45eb1fd1d7015a03bc5475eccb4b930063a1adafc99556fc2786a8cf956189eb52d48fa8005c5d1bf2d30d3e73525c28a654836d50634daff512a6d76db69ca36f6b79bbd54650e31bbfead4e256b2c9c681101be37d456bd30e5fb0cbde023a0a3e4c2a6796652e4a050bcba579fd2cdbdc90bb5abd2338a8b175c90470d47cf0252b6c607d2e5c1baa04f4149cb07ec37613d7b845b51d961dacf64b3029917e2856637258593a85214d0791102ef3973d59245c9057e7bc9c527c27c3d94ed8f76e0b7158321541282c0ee9ef45ddd02e25f76ad53a8494c03689ffc90504396783a408fd806bc816df9d79ff68ccbd24b6abaf142ee2254c1ccda644fd2d66efd29d5a117312df0a6ce9984239ace7e39ac4b20f9d47b26dd39e65abc71b55e5feeefd4b11688a69d2c9c4d212706e5a5db7965461e6368ee1adae4f3d947d7bd6b0e8015e423bdc73608ef3d070e636d5819df707bfa735bdb1fe71078ec3c52ebeb6f3279314849dea6ad02698aee7db3813ad4fd5292c9682b11f878384895b58115da8451ea7dba6ecca9815629e8708b30de23fae51e75571aed609d717d6681cd51c18415a0e57c56ca7c2d4f6fd37b483498056b3e25b298b8e7d4cf4bf8ccbb2cb7c1ea311e4b51f77ef66fffbe0e3e3cf79f070422c7f71fa3f564c9434a23d525fd016df3a7d74f0765dff21afe6868e5b26b1272001f4597648b33bc3039cfb41990bb36699668baac514bc2baf03ebae226e5bad5f742503a66d62cab5d1e4661fed0584ac0b063ce8aa3aa260c05e1e9a5ad691af82880eb1e7c215d1b754d5fe6638346549f6444186d91280d06c1f09f8e75aa698eae1b5bef95e9b2d2d9536bf461ce70514ee8a82663be6c27361efc6e0c1f947c061f1b2fa76877620f8aa353871b88abeed834ea6d9cb08faf56090a8a46291e037ec0c40953031cec6e9de461883f03a7d1ffb81a1c5c9688f0610ae9fae0dd3767cc9de7ff32a21ea506dd16950b6b1ca4436ae15c7c02441fd2f163d392aeeb98797f1aad970a595d877acbc5a7e9792da823e7b4652ef86ef1029c1b23aba05b5f763250659600fe098f599abbe07e039a09b339c729d7fe0e28ec188e6ccb5430c3f4623656f20f8131b32f2e1bf9b3b1982a559283b2b0046fccf44d2876456f331bf4b46075846b178f9c7bc89dc69f06aa7fcf7a28efd942a5be2e8ec6079e48fefd5bcc735aec1683d80bbfe1b9de2a14408ceb4ea3cfcacb0349474e3405c6df695acc9d291ca3457b800dd6b041341f8da041e041f38c06b4b38a9cb6e115099ba761503d41b1a680e1da7490e2d6f4e33ae82f04fed777fb6fc67ada1deb0dad4ee7192d4bef05837f97b067f1a8567f056b00ecb47c49d7e49f48aaefa01a97f1ea2a1e23a43bd120ebb993ebb0e1c4ffdbbe55362abf2e9974f8bb523cf52dacf756c669a8aa2ae80cf2910a78c5641949a317d69cc43edb696988002293ec66e4c97e7c2759e735f5e7d07400c53112da071513fbd005eeb6ef4aaba0f6c5b14c708bd890e05e98b04770141b298dcaf0eef3f1919a07223c5aa14d209e734f337d697d4568e245854f8a3464bf5cb86b6ef81c896b5ddfeba2a1f77ada792623f505cdd12aedc0e3475eabdb0b93b41d8eef43b42230a8b04ede5361b27cea0788fc5c51ad923e544e4548356015cba51ea9e3489aced20898ca8cddb8fb0a39215bfb820f23faa760775918121324382fc4baeddaf4462e1c11c25d13a5b63f015701976130f0170f6163a79edf1bebeee1b4fdd83f5755099207f1df05680dda710a0b27fca61e73e408e0c556721eeabddb76f3c28cf4523057e54ab43ef33ef7628b90e23ab659aee836fde1fc77b1a9f5c17ba4b29a704294c061242ec64c3392c88652659348a81965ee77a1fed9ab7f1820e98110a53f906e50e9f2e86622c35a1b32c8db651faeae0d3c69a7838fcf8f37773032d2195bb755f9f95703a4fa428830be89eb803331976be16f028d1ece7ca6ef3b3a15d318d40c4e44d18ec6ce32dd35db666b6334fcaba55ed2a2a81945de36ea185da00d6e4de142abefc13c3a29f824ea2ce29c5690dbf144a9a3c8e6520d210dada5ce433bb04de25e51ab1c05fb7d711aefe7d1a4e5f609b8e47d478c3928c30f5d30c60a4e615d353816a7891ca5aae747e9beb025771e7c530656dde9fa70e4e56f3d9bdfa8aeb0307027d1cc9b165a107234213ce4975449907a149f931f7b38a1a0b9ca76c7797245e55d830c13cdec9882eba68d25dfdb27fc9e7484bb43db8768b1ab9dd7f6266ae9d212043e4abcb8ee87da34379fa6e12d96132659249051fa88f0940ac3549f05f9f2ffe0e1bfcfb331298ec7a651bc59f09aed372be077b19164755e532bdc69cc33280a712cffbe4fe574563460935d027150694be96466f1770360e2eb13067b19e60fb9f0fc95e3cfbb7167d5595f5770c2dafc896415293b4872b482635ab7d03e5f832fc1537807b044275b5daaa1353b61c862cabe33d8b0ec2ea51c409e8bc52815372258ce8849c17419a50b9a35f509ec1d196fc825db77624418888e71f7a0ff82d3eba65688cfa1634bb9aa3b2c2c17e4e039556bd6ccae6cd029258bf657182f7fea1da2ce2405f1d38c47ba5011319aceee39b6d5e53895211a0592187f0c021c3ef13cae40bb2bd797165417e0d55a29db8279be800266f23aafd501223142ca4039d373cf57560718feb1c02bdbe384f7e5ab913e5ff51a75da4d23230604d09d095204d574f0065e98ed085400ea7a92771fc23a5cdb60ef0c19a66db8b6411a48d6da365a86a0f755cd5ffac9331bb23457c27b1bb5d1ee2a426e48099b9270e378cf78768e92e4471f3bf8dbf0d84a39c729c184c0d294ba123bf96c08e6861477a4c72660f72f8b8ed474cc8932b50d1a31f9691dc3333c9c345c4b987dfc7201f1fa450751d20d511b2f711f7f954e54cf1a725313a072a622b64dd0ccf8c7d287afc1f80c6774c57d63dbe13ffd99a1532f207b16ddc2de7b0950dd02287f73bca7772262e1f8b29c79654eae10747094498a4b3ae7f28d6caca89ea652cc7a683de238368cc21114282970f62ea327b9d5657d2a4f69c02c171e27495257648091a6b4cacfd8e5f4fd0307364a548398afb2dae2346a6d717db1b7c9dffafdff0114222f31383b49546e7072787a8d90a9cfdbdde4f0f50000000000000000000000000000000000111c283f01",
        "003cbd2b44643868ea7d5c1c7dca46b6850f99c793bb10f3f6280ff4e9ef097423d11c5869e127bdae75bc73c1f83f373ad88fda74e496d4f2aee7a2fabb1d657021cbea08960ca55f07f0dca1b5c35fb65e22f43f9f0d72abbb135a9aa0c88b43e4ce40b7385ee7896c45e066d9a15b9b3293a476195683f720a8debf774c92c4f12e9163ada9b18e161f5c525c142a1ca61d051aeae36da1294ab1279623d7e1e818b044e86d44d3ccf29ac9c0907c123a55fb18d0a6269e77d0c0719a076298016bd9653455882473796420c426741ff6963a362859d2e0f0a837c7fd8b6f7bb5c15e22bd2f6f25cc2657df52e559edf721760ac3fe5e29ec51284a0d170ca72528fb057228caaa60fc769a8f019594bebe4599bc38cd97f76f19e0c0b756aef9b93f2002b5dc9d4383c1f2bec3caa0aa6196f8c17bc3975e59f56cefce05875d3a0fd090732632000734c63d96376405dc523a6495155491f949341d26a668c20ebd39a0730d96a96e085dc1cf2a3eec31e68f57ff9beab1a60354911c7709b5012c6f8429ffeba9118939ed2b9e7dcc16f47cc1ccbd397cd9d7a62bd22fbcb5be07ccce8620ed7e47d31233de52c009135706477a51f88bf19c596266421fee33baedf9fa785a4c03a409b301c6cbd80708183a02388ca3bfa3ef2ec3dd0d2f85fd33de61ee772ff5f80a8ebffd55f139ebb10df9bd63d3460b9b16e8c87f07fcf15a0803916c4e777ccc3133bbb1934bdb614367609ce04d6929c09e67052529d3e53f158a87cd26f1a9c23d0c0ec06734dfb2b6bb9c1f35c320d80c03943a775a4b96aa7077a0bf3363586b112d5f79ec43b884c5b102a82ab264a6b2dabd4bcbd9d1923ce7c837b23a768cbaac44eb21d4aa98ed8409ff2db1b25a2182f126bc1b8c760889c72adb9bb49af6116b973b419cd9101f5ebf8a17fd0185d43d29412ee7c48b5cd741f2d0f9bb7bde5147312b550f5110007be61a09519bb93a4ace84abe4841eb3faa2e93f8fa535f85360d2a28256279d2dcf3229da9458b3bd206359e2e4fa7105c62d94c4053bbc26ac687143967ce65d2f82ce88e25e2f71a56e1c00f207de6366e0bd5791c4b48c2ff3413d962b6211be4b69d22a8b7a205b4b8282c990df7cc4c875cb05c917c29c18651a6aee490c49033cd036820d3c3dd1c5aaaa5b2617d3580a0f5177fedf61190deaca57ceeded60e35840e6b8c717aae7b5e97d375fa6cdb3bd85be7ba11a2c77e8d3b5e7a87b5a67bb3b2778311b7cd5e601f97e0ce14cd13aaa1fb561c7b8d665ac82b64358edf91882b55f5a0c62c0c2d7c131f819f2e53cfa490571f83c11f000adeafcbcca970b94b81355ebe7d2c7d5d9e96d9292e8688c105fabe1af30a37cd3432d8f066fda80df539e498a7f986d8eb81a15d6386e298a869b610b547faf63f24aabab2be919e1ab7ea49f9b93339099a42e225d9522a445c67e309b40ce2a6e7ed8663598458442c8302f311c7be8b031df748e584d7aadf7cf01d42a079dba6375492436aae566783beb46d680ec7174f9d1ed689e8188d69ded2dd87ab431663a2edd0c8f1b0233fe3265e23fced71d676af5b1580fe3718e8a9f34a510eb83ad80d26fc7353124dfd21eb02e048479f8355fe9cec2c7560a0d4c3547855e05b1ee56144f924260b09db523a2c8bf57956a22bfe2f1ae747d1f7a377fa3b1ef24017037a31ed10f505dde727caccea502b17f61b67f8b049f194d44e29071529bf2519b9959a3c68cfd1c1472ecdf7c6efd967bd106ff244f14a2aca5559c5095a4d79290a879319cd4dcfa79ede4e134fdc393fa45063f792c1050ca3818669e4f8eae697e"
      ],
      "sequence": 4294967294
    }
  ],
  "vout": [
    {
      "value": 499957.2902,
      "n": 0,
      "scriptPubKey": {
        "asm": "1 37f40e52404e9565db1a0fa820daf52f713b2523eb86703de8a1412d143708f6",
        "hex": "512037f40e52404e9565db1a0fa820daf52f713b2523eb86703de8a1412d143708f6",
        "reqSigs": 1,
        "type": "witness_v1_scripthash",
        "addresses": [
          "3QJmnh"
        ]
      }
    },
    {
      "value": 1.0,
      "n": 1,
      "scriptPubKey": {
        "asm": "OP_RETURN 8eccfae8359f1e110e22434d3bc0a3ab7345f9a726c6cf1c57589ea57ce22f07 dbf87eb1a3d9c92298274a37bb163da2fdec5bb5d7108c0584a37eaedac1aec4fbd85e9183f9e902b8076a179b361d82ddcc7b95f730ac25a4835e8efae18ee49bb83ef1e3998962d8670a77fb567de2bdac1bf59750cc45c4e33eee9a81ee84bb981ed1c3b9a942f8472a57db765dc29d8c3bd5b770ec65e4c31ecebaa1cea45b78fe31235949a218a7cab73b96bd227d6cdb3557900c850423fe2e5a412e447b58de11037969823887ea971bb69d025d4cfb1577b02ca52403de0e7a610e641b38be71631909e258e78af77bd6fd623d2c9b7517d04cc54463be6e1a016e043b189e51433929c278c7aad75bf6dd421d0cbb5537f06ce564439e4e3a214e24dbf87eb1a3d9c92298274a37bb163da2fdec5bb5d7108c0584a37eaedac1aec4fbd85e9183f9e902b8076a179b361d82ddcc7b95f730ac25a4835e8efae18ee49bb83ef1e3998962d8670a77fb567de2bdac1bf59750cc45c4e33eee9a81ee84bb981ed1c3b9a942f8472a57db765dc29d8c3bd5b770ec65e4c31ecebaa1cea45b78fe31235949a218a7cab73b96bd227d6cdb3557900c850423fe2e5a412e447b58de11037969823887ea971bb69d025d4cfb1577b02ca52403de0e7a610e641b38be71631909e258e78af77bd6fd623d2c9b7517d04cc54463be6e1a016e043b189e51433929c278c7aad75bf6dd421d0cbb5537f06ce564439e4e3a214e24dbf87eb1a3d9c92298274a37bb163da2fdec5bb5d7108c0584a37eaedac1aec4fbd85e9183f9e902b8076a179b361d82ddcc7b95f730ac25a4835e8efae18ee49bb83ef1e3998962d8670a77fb567de2bdac1bf59750cc45c4e33eee9a81ee84bb981ed1c3b9a942f8472a57db765dc29d8c3bd5b770ec65e4c31ecebaa1cea45b78fe31235949a218a7cab73b96bd227d6cdb3557900c850423fe2e5a412e447b58de11037969823887ea971bb69d025d4cfb1577b02ca52403de0e7a610e641b38be71631909e258e78af77bd6fd623d2c9b7517d04cc54463be6e1a016e043b189e51433929c278c7aad75bf6dd421d0cbb5537f06ce564439e4e3a214e24dbf87eb1a3d9c92298274a37bb163da2fdec5bb5d7108c0584a37eaedac1aec4fbd85e9183f9e902b8076a179b361d82ddcc7b95f730ac25a4835e8efae18ee49bb83ef1e3998962d8670a77fb567de2bdac1bf59750cc45c4e33eee9a81ee84bb981ed1c3b9a942f8472a57db765dc29d8c3bd5b770ec65e4c31ecebaa1cea45b78fe31235949a218a7cab73b96bd227d6cdb3557900c850423fe2e5a412e447b58de11037969823887ea971bb69d025d4cfb1577b02ca52403de0e7a610e641b38be71631909e258e78af77bd6fd623d2c9b7517d04cc54463be6e1a016e043b189e51433929c278c7aad75bf6dd421d0cbb5537f06ce564439e4e3a214e24dbf87eb1a3d9c92298274a37bb163da2fdec5bb5d7108c0584a37eaedac1aec4fbd85e9183f9e902b8076a179b361d82ddcc7b95f730ac25a4835e8efae18ee49bb83ef1e3998962d8670a77fb567de2bdac1bf59750cc45c4e33eee9a81ee84bb981ed1c3b9a942f8472a57db765dc29d8c3bd5b770ec65e4c31ecebaa1cea45b78fe31235949a218a7cab73b96bd222e01f7a32722ac44675b6c912ca125c44f210843d4892ae936cd08636168c69d",
        "hex": "6a208eccfae8359f1e110e22434d3bc0a3ab7345f9a726c6cf1c57589ea57ce22f074db004dbf87eb1a3d9c92298274a37bb163da2fdec5bb5d7108c0584a37eaedac1aec4fbd85e9183f9e902b8076a179b361d82ddcc7b95f730ac25a4835e8efae18ee49bb83ef1e3998962d8670a77fb567de2bdac1bf59750cc45c4e33eee9a81ee84bb981ed1c3b9a942f8472a57db765dc29d8c3bd5b770ec65e4c31ecebaa1cea45b78fe31235949a218a7cab73b96bd227d6cdb3557900c850423fe2e5a412e447b58de11037969823887ea971bb69d025d4cfb1577b02ca52403de0e7a610e641b38be71631909e258e78af77bd6fd623d2c9b7517d04cc54463be6e1a016e043b189e51433929c278c7aad75bf6dd421d0cbb5537f06ce564439e4e3a214e24dbf87eb1a3d9c92298274a37bb163da2fdec5bb5d7108c0584a37eaedac1aec4fbd85e9183f9e902b8076a179b361d82ddcc7b95f730ac25a4835e8efae18ee49bb83ef1e3998962d8670a77fb567de2bdac1bf59750cc45c4e33eee9a81ee84bb981ed1c3b9a942f8472a57db765dc29d8c3bd5b770ec65e4c31ecebaa1cea45b78fe31235949a218a7cab73b96bd227d6cdb3557900c850423fe2e5a412e447b58de11037969823887ea971bb69d025d4cfb1577b02ca52403de0e7a610e641b38be71631909e258e78af77bd6fd623d2c9b7517d04cc54463be6e1a016e043b189e51433929c278c7aad75bf6dd421d0cbb5537f06ce564439e4e3a214e24dbf87eb1a3d9c92298274a37bb163da2fdec5bb5d7108c0584a37eaedac1aec4fbd85e9183f9e902b8076a179b361d82ddcc7b95f730ac25a4835e8efae18ee49bb83ef1e3998962d8670a77fb567de2bdac1bf59750cc45c4e33eee9a81ee84bb981ed1c3b9a942f8472a57db765dc29d8c3bd5b770ec65e4c31ecebaa1cea45b78fe31235949a218a7cab73b96bd227d6cdb3557900c850423fe2e5a412e447b58de11037969823887ea971bb69d025d4cfb1577b02ca52403de0e7a610e641b38be71631909e258e78af77bd6fd623d2c9b7517d04cc54463be6e1a016e043b189e51433929c278c7aad75bf6dd421d0cbb5537f06ce564439e4e3a214e24dbf87eb1a3d9c92298274a37bb163da2fdec5bb5d7108c0584a37eaedac1aec4fbd85e9183f9e902b8076a179b361d82ddcc7b95f730ac25a4835e8efae18ee49bb83ef1e3998962d8670a77fb567de2bdac1bf59750cc45c4e33eee9a81ee84bb981ed1c3b9a942f8472a57db765dc29d8c3bd5b770ec65e4c31ecebaa1cea45b78fe31235949a218a7cab73b96bd227d6cdb3557900c850423fe2e5a412e447b58de11037969823887ea971bb69d025d4cfb1577b02ca52403de0e7a610e641b38be71631909e258e78af77bd6fd623d2c9b7517d04cc54463be6e1a016e043b189e51433929c278c7aad75bf6dd421d0cbb5537f06ce564439e4e3a214e24dbf87eb1a3d9c92298274a37bb163da2fdec5bb5d7108c0584a37eaedac1aec4fbd85e9183f9e902b8076a179b361d82ddcc7b95f730ac25a4835e8efae18ee49bb83ef1e3998962d8670a77fb567de2bdac1bf59750cc45c4e33eee9a81ee84bb981ed1c3b9a942f8472a57db765dc29d8c3bd5b770ec65e4c31ecebaa1cea45b78fe31235949a218a7cab73b96bd222e01f7a32722ac44675b6c912ca125c44f210843d4892ae936cd08636168c69d",
        "type": "nulldata"
      }
    }
  ],
  "blockhash": "39d4bea9c9c25d41b43db6cdde5dd715e5d3be3597965cba0de2d48951f8c4e3",
  "confirmations": 1,
  "time": 1764183939,
  "blocktime": 1764183939
}