{
  "hex": "010000000001012005eb92c06e09ed9ca861a16d7a69e73e4b0db54a66b694d2228144530303770000000000feffffff0200e1f50500000000fdd5046a202a7c30d0ab3d32f4265a4a5a60a54f1b5b1372b0fdf64c8df705cc5e1efbf99d4db004ffac8e9ec133482b56a5035a521659b150a3f9e90628391c2e302b5b90db08aedf8caebee113680b7685237a723679917083d9c92608193c0e100b7bb0fb288ebfeccede8173086b16e5431a125619f110e3b9a94668795c6e706b1bd09b48ee9fcceefea153284b36c5633a327639d130c399896648597c4e504b3bf0bb68ce7f2c0e1e41b3c8abd62583dad296d931d023796986a8b99caeb0abdb105b882e5f0c2e3e6193e88bf605a3faf2b6f911f0035949a68899bc8e908bfb307ba80e3f6c4e5e01f388eb9665c39a92d6997190633929c6e8f9dceef0eb9b501bc86e1f4c6e7e21d3a8cbb645e3bab2f6b951b0431909e6c8d9fcced0cbbb703be84effac8e9ec133482b56a5035a521659b150a3f9e90628391c2e302b5b90db08aedf8caebee113680b7685237a723679917083d9c92608193c0e100b7bb0fb288ebfeccede8173086b16e5431a125619f110e3b9a94668795c6e706b1bd09b48ee9fcceefea153284b36c5633a327639d130c399896648597c4e504b3bf0bb68ce7f2c0e1e41b3c8abd62583dad296d931d023796986a8b99caeb0abdb105b882e5f0c2e3e6193e88bf605a3faf2b6f911f0035949a68899bc8e908bfb307ba80e3f6c4e5e01f388eb9665c39a92d6997190633929c6e8f9dceef0eb9b501bc86e1f4c6e7e21d3a8cbb645e3bab2f6b951b0431909e6c8d9fcced0cbbb703be84effac8e9ec133482b56a5035a521659b150a3f9e90628391c2e302b5b90db08aedf8caebee113680b7685237a723679917083d9c92608193c0e100b7bb0fb288ebfeccede8173086b16e5431a125619f110e3b9a94668795c6e706b1bd09b48ee9fcceefea153284b36c5633a327639d130c399896648597c4e504b3bf0bb68ce7f2c0e1e41b3c8abd62583dad296d931d023796986a8b99caeb0abdb105b882e5f0c2e3e6193e88bf605a3faf2b6f911f0035949a68899bc8e908bfb307ba80e3f6c4e5e01f388eb9665c39a92d6997190633929c6e8f9dceef0eb9b501bc86e1f4c6e7e21d3a8cbb645e3bab2f6b951b0431909e6c8d9fcced0cbbb703be84effac8e9ec133482b56a5035a521659b150a3f9e90628391c2e302b5b90db08aedf8caebee113680b7685237a723679917083d9c92608193c0e100b7bb0fb288ebfeccede8173086b16e5431a125619f110e3b9a94668795c6e706b1bd09b48ee9fcceefea153284b36c5633a327639d130c399896648597c4e504b3bf0bb68ce7f2c0e1e41b3c8abd62583dad296d931d023796986a8b99caeb0abdb105b882e5f0c2e3e6193e88bf605a3faf2b6f911f0035949a68899bc8e908bfb307ba80e3f6c4e5e01f388eb9665c39a92d6997190633929c6e8f9dceef0eb9b501bc86e1f4c6e7e21d3a8cbb645e3bab2f6b951b0431909e6c8d9fcced0cbbb703be84effac8e9ec133482b56a5035a521659b150a3f9e90628391c2e302b5b90db08aedf8caebee113680b7685237a723679917083d9c92608193c0e100b7bb0fb288ebfeccede8173086b16e5431a125619f110e3b9a94668795c6e706b1bd09b48ee9fcceefea153284b36c5633a327639d130c399896648597c4e504b3bf0bb68ce7f2c0e1e41b3c8abd62583dad296d9310b42ad0097840961939934733bda125f31b9a771e6d817575c0ab28205e3cdca20cc6133792d000022512064fb155472f735ebe102fdad050d3011704e9ebde5bd85ebd43a1bd5b7290fcb02fd7509964901d5cc0b5a6355edc555020f74ec44ab8ee41ad0f8eab3e79a098d820cf1719bbefd8c041674ec1705d676e3658adf05a13928961ca7185f78ee3b75fc8424997029afe062f12685f86bad2d7303b150ae1adc09d0501130a5a847f97148dccfaa141469dcc78f8b3f58db805db9d778ab17b4b0a144bc9ecd2cce7ecf41266ea45e96047c68d35db979fbea58d46af6b4ba92efaf483cf0ad4ea22e147245bc153d4a56e5557faa5729f8deff5467480e33a7c125df156aa3f4c5909671da56e59e1a9e5836a15e4a40478da9e9d4031a4644a73bb32441570dea0741850d7d71428b1042e246314514bd9861880850f5ebfeccbd072ca03c7c0c6a76013ae411018e5b7b3020df7b4a6ac8259ea43a0d02e9531ee158e1d857cca3fe69eeb52b7805b48de5fbc94063a2ce84a113649cf8ffb43b0fd6202041b0d7a5e74d0ec4e54d89f652e28f3b81b335705e79b9e42403bd58f29fcf8de555e3bd0c7dfa1e51e0ed8fae159e67b2cae3a87f8dfe9ff150dacb8c6b89839e7530434a19a7b416e4f013bf3aba4a82e3a93d7d5f83906333fa3c67aa8f93eae948928162c485bb245f75c889c0b1d91d45ac5876caebfe95f902059f565452e3b3d39066594ff2b21d14bd3370f1109f0199befcab3ebf0b589367b9f65c0a656befc97248f59c8c9344adc96978cca4bae31fd5701fd092a7594499a50bc4fb12545e178efff6ec68c926f7d7e8f8e1d560f1525cb783a9b0545a0eeeb25c56e127304defd60a321a38198620b11d9c6874e1e740c763d8a4cb53fa187d43238f6fa97e2dc3573d5c3bc06aa16d40ef783657fff9b62f5d4c58979e0db35556156cfdd06beb64e47fcfec0f6f429d57d766ca418ba1ef75983cc5dd9652fa914831636ea31f76b87f154051df2f1ad50cc4d5d9851817fb4638f2b4020967273cc7fc6d6c7dcd08bb2c2a5049dff144e063b2458f94826e9295a4ac85d4476fc67483120c1bc79a18fa34c8c7a68f5435835e80a6381489aa4a6425762903ab45368be6a5714badbb98cf8e7515b331bd3db530701fb61521d2e3fdf7435e7e47fb9d5e616c116d101e7ce54897f1e0a93d55a8d7350e27455d550e5dbdf71e720b598a5dfa17c00c9e3e10594265b53822045ed175462d3fc79e50a98687c509872ad8eced786c36466a0da3341839a396a50d413e4d466bf43f54e481419ba4b4b9d421236f5639331a072c2529098ffce47ee3892cd270bbfa6c5391a0e2e1714ae7b067f81ff9ba1810892f703ebc2dabca7fba14e0e8f6d080442bd69109471df817d79b22c8e3fee2365718cf51f0064733e54adc2e89c141f09488ee74a2536eaf7deb63f71b7d84bfa86bd99af5bf0015a50cb3fa683e42aa922234b31c3a70770893fb24289a4896cd1a2707baafa5939b7423715090c20489b66075f5c2f1c7705300acfcbf1a337ad68660a0bd827187a820962332534553400a42a1882e3030c9629dea8550f5da637c7b5bf5239f5dc6958771dfb29f2d024b55ece864683e218fccfa7c1093ecbba47a7d537edb0bcf3b7985fc3f643d7ddc28b650e1ed167c12501ac799d5c6b1ef43aa0ed5ff2ab179f8eb163e89b1da8b7966d2212a78dc0fb00e61f49e0fb9816464f55f53b9b94e122bef98be04420aae1ae03dff4efedfa64847bba380678d86bb3fd581125c3651a1e5ed2cb0cbb3800839553f3e3fa1ffabf45d9edd30383ff9e26eb9ea891ab891c44c5db4e2fceba315fbb925f04c3490f88dfd719fae0fd67d7ebdffc0fb931ee106231d78e138bff38c4241e00af7aba66615fa2aa34778b1be1ef49a1411a921256e49e6503469b936924be1c64255bfa3cd343c6faa7d65dd57b39e24a60b5e40c3920b1b7b2b525583246bc1b30ed3a320d091d05eb92d2f5d702e47adf18bb74493633b8b89cebc4c9b87153aa53b192436a86d8eca78a8eacb8c8e1037715953c89ad5dc0fb4796d752c2175e2bd7a2679f71c14bafb9fce24ab489674b512a476ec7ec6feaa1eacb82c31f98224749a8899ac00cdb8d6b7c25946ff993079227a66ae8ce4450542cf2b4d49026bfb01328199e32998c82dbd0efa2f92c17e467c6c289ff81035071506a2207101b0d680773f7ce309ea194915bb61677065ed2777013ad12d1aeeb0c15753e41f8917449de855608b0c1f5cad6a9cd9492e7d99d976bdedec1f5c90750e0b34b33e560792d71b2ebce8059e1ece1fc9ebc46e16f9f3dd9a21e3e77d1ec3fc2a92aace894826bf6179693344cbbe2ef649b510bfb5b15b40a8925890a474acf3df65ffd6e6cf3f0c044f549544e09dd0acbd18f7db683d936adfcf24c8bab26428a17d205082cb0eaded6563f023d15868e19e347d6337680c73a08cbfee43f9d155368d86c90d7279d3df91eed362613a37fe36df0ffde9552c3553cab5dfca2945844f2648730b5185f451b928e87920230270abc0a77c48f27fdaefcbdd00ba8391fb9fc8e725a844c82fa906065c42c094a23763a372c32cd250157765dc0a91b5b0af8504541e8f6efb6c9e7d18d3ef2523d94c8b7e6861a8da63cfa4125bd932ebc7fa65d6868e8ddce9a3943d08e8458ed0e8817b495601b0790e6be6df5d8294c6eeab5604b194b4bdac0094106a448ba3058ebd9af3767ef624d97b4f74543e4909d49da5fdc89ca0d5dc9f0e38221eed337177ad83f9737e4fe7a9287423b9a7ab52ae1cd2cc41ee702436cc7a143788f5cc0863ee0161fc4b690d2674da8d32548eaab05648ca3d609d5ef2e948f8e2d1d82151cc09c9f55923e07d425d6eeca4ab33f2388abf987a60ab3ae3d0c457a2a4eeec245ee62b93b1f8d1e13a4b33358d2f68171dd4bb1368aad952d4c0dcecf0fd04d2b77b004e22e3d32c90fcdaaf8276e0182d9676f7c4fb9ae27ad21d6deea70a59924eb6f51dad4ffa170f42e4c69343585f822b7cb174acf610f244c6913a5fc70c70727cab67c7b1aa4f1b9551da4c7696fcb45d42c70fff8f64ab217dd06826bed4a0852fa94f693812c3568c9ef427e99edb927dce2773119f288e9d40638cdb886b3f7b73e35ab46f8bd302ed00769594260964824649d85b5796bbc49b5a4874ad308bc805a41c388695e6be2df2fda72dd7e4c357439afc4168eff15924e392bc109849dad5edef63e9aa08db261b1d3f481db780aaaa91dd7699568a44341e7f16c2fa0844d0e5cfb4876ee418c5dadac6c5b122d81001cd2193cf30bb195a7ece9fa5f2d01ec9bd2cede9f00faa74c1847395953f437d6ff8fe763d1b5861797e8995aab6bed0d204092a3742484b4f53646a6d76a0b4b8c0cbe2ff0f18192024293160636d8c8f9297a6cdd4ecf9fc2229505d727697b6ddf50000000000000000000000000000000000000c20343e01fd210500a266b4e91dc50a222f0de8f8b844cd99adfc5a4316ef2e83f517524965500f2b88c8a46ff3835e9401337516e6157b4659be6e3938810d299f5b643cee7ae26bcfd022a5baf96a608a7675a4f67fde9409d0d73c7bce185f8969c909425b9db17a4b9e1ae3ec9f48b3425d396def57c64df9fe2206c01194c28fafa25a2b7e9ccc6a0e089c8fef8c61f92d0724ec8660c5e862bb1fa34d2a753102f012df8ff5faabaa0e594650b352117ae4480558d9a162a7b39d9387d51f05aeade71710fafa90db66c32c2dbb75a67264f59861ecb7606669b1586cb2f541a9402619d7868221a9db6f9e1cb4618c287de50fcdf178231013155d87c05a963a514779394ed7a01d69938c556efae90e923d9ba9f629a2e2f8215cc4debb8c8506c8b0728a1e28ddafe2846f78f2fda80a523c10080ed3ef0dbe75d133c031219c5822c1b3e143cf1eff60e0cc4c0f643af0eddf4b14c5a59f9709da75668db795d2536e5b64aea1fe6234000adf98757af72d20d177d30f0e92901e744a80f8d36af5a3b53986e037711c6008d6ac48e81acb2a886d61ffeb7c038da643c3ef81cb17245af65b8c193abd90d2b49c2e0917dc76c901f4058d6c4f9f625c126f62eaba9d31753c5b6bed0ad2a096e2bd142c2df096d89ffd296dd456dbbcdc4b5af200b7b7d58492406b6f9fdfd6987eeb875d77182bc11bce182cb30a848c0406301d93467d684cb9fd602ce0092085fa270fa70328791f51e12e252b7385ea494caf0b60e44fd5002b7d1cb4075a8c1457cafbdd29d5ad706b12da3aab497b82cc27ceadb6b78eecd6a38f20289c589f449817543c5c214e6e1828bce8bfcbc25451d92fcfbfe1f20e163fcab81e8e4ef27c0cae0c3e1b8f01efbd0c41d26f94509f8dba6bdcbba9e776d10e5708b7b76eaccd198d8d10a02bb2ac47be3a90e78be48a678997155a018f6bdc3396a9b5b01f8f5786702407551870b4447df1f217a940a59b641a9a3d6d152395417624fe44610acdffe02e899c6bcd560f4992582223659564049e71d16ab652eb3d58e25ce982e54ad4b2486c5c9bb68bf36d47760fa3dc62541c7feb313e075bc0adc0b16df40fd8d55c39a23cd0642801fe6753088b73d800a1d0415ced099a290f4b8177751cfb4a41c237ebbdcf9818aea251a6a44f1b6c3f0acc581cf19b42472ea353c424b16de32f3a940335c390e6bced3e87951d0a4884c95755f69f32bbcfa7f01779e30b041535555666a350301f71373fb5bdfc5af89d6f2e5c8ca24540f6fa595c111be274f0d9ac684574ed074ccd4744b956db58baca254f643ce4d57e52c64b288922a17c1b97dd76345f20c2913d300da28cf5373847a6323c97f768eb1f697bc9cc1953544f2840a558b4736117f7bde9d821d7311800f9c88d066a7a3eca6308365828349979329913144a28a9b1a93b1cac68c905f13a74f7dae00cde8a7516a79393670a65291e4de17da553a5a2a5f7d96a90631f24d5c3da5b3e51b1899e91d06b5cb4ab7958e2099e52fb2e6ce78b611125c13b33cb6ed4cde376194bae4392c6790b00eab3e3a5c6a3a0bf060bc8ca9c3655094b2846aafdca546474ffe01cfdc6f99ee425f66f0106e4a89c966b9ce3551a90205208be8a0b01181eac9bd174de338065d273d4838ecbe5d88637b97c5acb03cb9293514d7dc31c7fb09ef7c13aec5b1b88881bc55ddd544ac8be0ec8eca0ffe2c8dfa023c45499662cb22ea8a92d7a81552c150e277fbfbd1bf73e18fde1599add992e7c40459281c2675b6da209da883c7873d364ea44ea7f4ac91f64b52d009f2ba5172bca76ea430015eb8ba39bb80ad49d923e216f000000",
  "txid": "22fbf73e6be65f69db8b2f93148064254e0af0ca485ba197c0e58ad11c742a35",
  "hash": "274404e41d77ccf1144298f73abde810dede85551b7e864cbfec767a15f671e1",
  "size": 5085,
  "vsize": 2278,
  "version": 1,
  "locktime": 111,
  "vin": [
    {
      "txid": "77030353448122d294b6664ab50d4b3ee7697a6da161a89ced096ec092eb0520",
      "vout": 0,
      "scriptSig": {
        "asm": "",
        "hex": ""
      },
      "txinwitness": [
        "964901d5cc0b5a6355edc555020f74ec44ab8ee41ad0f8eab3e79a098d820cf1719bbefd8c041674ec1705d676e3658adf05a13928961ca7185f78ee3b75fc8424997029afe062f12685f86bad2d7303b150ae1adc09d0501130a5a847f97148dccfaa141469dcc78f8b3f58db805db9d778ab17b4b0a144bc9ecd2cce7ecf41266ea45e96047c68d35db979fbea58d46af6b4ba92efaf483cf0ad4ea22e147245bc153d4a56e5557faa5729f8deff5467480e33a7c125df156aa3f4c5909671da56e59e1a9e5836a15e4a40478da9e9d4031a4644a73bb32441570dea0741850d7d71428b1042e246314514bd9861880850f5ebfeccbd072ca03c7c0c6a76013ae411018e5b7b3020df7b4a6ac8259ea43a0d02e9531ee158e1d857cca3fe69eeb52b7805b48de5fbc94063a2ce84a113649cf8ffb43b0fd6202041b0d7a5e74d0ec4e54d89f652e28f3b81b335705e79b9e42403bd58f29fcf8de555e3bd0c7dfa1e51e0ed8fae159e67b2cae3a87f8dfe9ff150dacb8c6b89839e7530434a19a7b416e4f013bf3aba4a82e3a93d7d5f83906333fa3c67aa8f93eae948928162c485bb245f75c889c0b1d91d45ac5876caebfe95f902059f565452e3b3d39066594ff2b21d14bd3370f1109f0199befcab3ebf0b589367b9f65c0a656befc97248f59c8c9344adc96978cca4bae31fd5701fd092a7594499a50bc4fb12545e178efff6ec68c926f7d7e8f8e1d560f1525cb783a9b0545a0eeeb25c56e127304defd60a321a38198620b11d9c6874e1e740c763d8a4cb53fa187d43238f6fa97e2dc3573d5c3bc06aa16d40ef783657fff9b62f5d4c58979e0db35556156cfdd06beb64e47fcfec0f6f429d57d766ca418ba1ef75983cc5dd9652fa914831636ea31f76b87f154051df2f1ad50cc4d5d9851817fb4638f2b4020967273cc7fc6d6c7dcd08bb2c2a5049dff144e063b2458f94826e9295a4ac85d4476fc67483120c1bc79a18fa34c8c7a68f5435835e80a6381489aa4a6425762903ab45368be6a5714badbb98cf8e7515b331bd3db530701fb61521d2e3fdf7435e7e47fb9d5e616c116d101e7ce54897f1e0a93d55a8d7350e27455d550e5dbdf71e720b598a5dfa17c00c9e3e10594265b53822045ed175462d3fc79e50a98687c509872ad8eced786c36466a0da3341839a396a50d413e4d466bf43f54e481419ba4b4b9d421236f5639331a072c2529098ffce47ee3892cd270bbfa6c5391a0e2e1714ae7b067f81ff9ba1810892f703ebc2dabca7fba14e0e8f6d080442bd69109471df817d79b22c8e3fee2365718cf51f0064733e54adc2e89c141f09488ee74a2536eaf7deb63f71b7d84bfa86bd99af5bf0015a50cb3fa683e42aa922234b31c3a70770893fb24289a4896cd1a2707baafa5939b7423715090c20489b66075f5c2f1c7705300acfcbf1a337ad68660a0bd827187a820962332534553400a42a1882e3030c9629dea8550f5da637c7b5bf5239f5dc6958771dfb29f2d024b55ece864683e218fccfa7c1093ecbba47a7d537edb0bcf3b7985fc3f643d7ddc28b650e1ed167c12501ac799d5c6b1ef43aa0ed5ff2ab179f8eb163e89b1da8b7966d2212a78dc0fb00e61f49e0fb9816464f55f53b9b94e122bef98be04420aae1ae03dff4efedfa64847bba380678d86bb3fd581125c3651a1e5ed2cb0cbb3800839553f3e3fa1ffabf45d9edd30383ff9e26eb9ea891ab891c44c5db4e2fceba315fbb925f04c3490f88dfd719fae0fd67d7ebdffc0fb931ee106231d78e138bff38c4241e00af7aba66615fa2aa34778b1be1ef49a1411a921256e49e6503469b936924be1c64255bfa3cd343c6faa7d65dd57b39e24a60b5e40c3920b1b7b2b525583246bc1b30ed3a320d091d05eb92d2f5d702e47adf18bb74493633b8b89cebc4c9b87153aa53b192436a86d8eca78a8eacb8c8e1037715953c89ad5dc0fb4796d752c2175e2bd7a2679f71c14bafb9fce24ab489674b512a476ec7ec6feaa1eacb82c31f98224749a8899ac00cdb8d6b7c25946ff993079227a66ae8ce4450542cf2b4d49026bfb01328199e32998c82dbd0efa2f92c17e467c6c289ff81035071506a2207101b0d680773f7ce309ea194915bb61677065ed2777013ad12d1aeeb0c15753e41f8917449de855608b0c1f5cad6a9cd9492e7d99d976bdedec1f5c90750e0b34b33e560792d71b2ebce8059e1ece1fc9ebc46e16f9f3dd9a21e3e77d1ec3fc2a92aace894826bf6179693344cbbe2ef649b510bfb5b15b40a8925890a474acf3df65ffd6e6cf3f0c044f549544e09dd0acbd18f7db683d936adfcf24c8bab26428a17d205082cb0eaded6563f023d15868e19e347d6337680c73a08cbfee43f9d155368d86c90d7279d3df91eed362613a37fe36df0ffde9552c3553cab5dfca2945844f2648730b5185f451b928e87920230270abc0a77c48f27fdaefcbdd00ba8391fb9fc8e725a844c82fa906065c42c094a23763a372c32cd250157765dc0a91b5b0af8504541e8f6efb6c9e7d18d3ef2523d94c8b7e6861a8da63cfa4125bd932ebc7fa65d6868e8ddce9a3943d08e8458ed0e8817b495601b0790e6be6df5d8294c6eeab5604b194b4bdac0094106a448ba3058ebd9af3767ef624d97b4f74543e4909d49da5fdc89ca0d5dc9f0e38221eed337177ad83f9737e4fe7a9287423b9a7ab52ae1cd2cc41ee702436cc7a143788f5cc0863ee0161fc4b690d2674da8d32548eaab05648ca3d609d5ef2e948f8e2d1d82151cc09c9f55923e07d425d6eeca4ab33f2388abf987a60ab3ae3d0c457a2a4eeec245ee62b93b1f8d1e13a4b33358d2f68171dd4bb1368aad952d4c0dcecf0fd04d2b77b004e22e3d32c90fcdaaf8276e0182d9676f7c4fb9ae27ad21d6deea70a59924eb6f51dad4ffa170f42e4c69343585f822b7cb174acf610f244c6913a5fc70c70727cab67c7b1aa4f1b9551da4c7696fcb45d42c70fff8f64ab217dd06826bed4a0852fa94f693812c3568c9ef427e99edb927dce2773119f288e9d40638cdb886b3f7b73e35ab46f8bd302ed00769594260964824649d85b5796bbc49b5a4874ad308bc805a41c388695e6be2df2fda72dd7e4c357439afc4168eff15924e392bc109849dad5edef63e9aa08db261b1d3f481db780aaaa91dd7699568a44341e7f16c2fa0844d0e5cfb4876ee418c5dadac6c5b122d81001cd2193cf30bb195a7ece9fa5f2d01ec9bd2cede9f00faa74c1847395953f437d6ff8fe763d1b5861797e8995aab6bed0d204092a3742484b4f53646a6d76a0b4b8c0cbe2ff0f18192024293160636d8c8f9297a6cdd4ecf9fc2229505d727697b6ddf50000000000000000000000000000000000000c20343e01",
        "00a266b4e91dc50a222f0de8f8b844cd99adfc5a4316ef2e83f517524965500f2b88c8a46ff3835e9401337516e6157b4659be6e3938810d299f5b643cee7ae26bcfd022a5baf96a608a7675a4f67fde9409d0d73c7bce185f8969c909425b9db17a4b9e1ae3ec9f48b3425d396def57c64df9fe2206c01194c28fafa25a2b7e9ccc6a0e089c8fef8c61f92d0724ec8660c5e862bb1fa34d2a753102f012df8ff5faabaa0e594650b352117ae4480558d9a162a7b39d9387d51f05aeade71710fafa90db66c32c2dbb75a67264f59861ecb7606669b1586cb2f541a9402619d7868221a9db6f9e1cb4618c287de50fcdf178231013155d87c05a963a514779394ed7a01d69938c556efae90e923d9ba9f629a2e2f8215cc4debb8c8506c8b0728a1e28ddafe2846f78f2fda80a523c10080ed3ef0dbe75d133c031219c5822c1b3e143cf1eff60e0cc4c0f643af0eddf4b14c5a59f9709da75668db795d2536e5b64aea1fe6234000adf98757af72d20d177d30f0e92901e744a80f8d36af5a3b53986e037711c6008d6ac48e81acb2a886d61ffeb7c038da643c3ef81cb17245af65b8c193abd90d2b49c2e0917dc76c901f4058d6c4f9f625c126f62eaba9d31753c5b6bed0ad2a096e2bd142c2df096d89ffd296dd456dbbcdc4b5af200b7b7d58492406b6f9fdfd6987eeb875d77182bc11bce182cb30a848c0406301d93467d684cb9fd602ce0092085fa270fa70328791f51e12e252b7385ea494caf0b60e44fd5002b7d1cb4075a8c1457cafbdd29d5ad706b12da3aab497b82cc27ceadb6b78eecd6a38f20289c589f449817543c5c214e6e1828bce8bfcbc25451d92fcfbfe1f20e163fcab81e8e4ef27c0cae0c3e1b8f01efbd0c41d26f94509f8dba6bdcbba9e776d10e5708b7b76eaccd198d8d10a02bb2ac47be3a90e78be48a678997155a018f6bdc3396a9b5b01f8f5786702407551870b4447df1f217a940a59b641a9a3d6d152395417624fe44610acdffe02e899c6bcd560f4992582223659564049e71d16ab652eb3d58e25ce982e54ad4b2486c5c9bb68bf36d47760fa3dc62541c7feb313e075bc0adc0b16df40fd8d55c39a23cd0642801fe6753088b73d800a1d0415ced099a290f4b8177751cfb4a41c237ebbdcf9818aea251a6a44f1b6c3f0acc581cf19b42472ea353c424b16de32f3a940335c390e6bced3e87951d0a4884c95755f69f32bbcfa7f01779e30b041535555666a350301f71373fb5bdfc5af89d6f2e5c8ca24540f6fa595c111be274f0d9ac684574ed074ccd4744b956db58baca254f643ce4d57e52c64b288922a17c1b97dd76345f20c2913d300da28cf5373847a6323c97f768eb1f697bc9cc1953544f2840a558b4736117f7bde9d821d7311800f9c88d066a7a3eca6308365828349979329913144a28a9b1a93b1cac68c905f13a74f7dae00cde8a7516a79393670a65291e4de17da553a5a2a5f7d96a90631f24d5c3da5b3e51b1899e91d06b5cb4ab7958e2099e52fb2e6ce78b611125c13b33cb6ed4cde376194bae4392c6790b00eab3e3a5c6a3a0bf060bc8ca9c3655094b2846aafdca546474ffe01cfdc6f99ee425f66f0106e4a89c966b9ce3551a90205208be8a0b01181eac9bd174de338065d273d4838ecbe5d88637b97c5acb03cb9293514d7dc31c7fb09ef7c13aec5b1b88881bc55ddd544ac8be0ec8eca0ffe2c8dfa023c45499662cb22ea8a92d7a81552c150e277fbfbd1bf73e18fde1599add992e7c40459281c2675b6da209da883c7873d364ea44ea7f4ac91f64b52d009f2ba5172bca76ea430015eb8ba39bb80ad49d923e21"
      ],
      "sequence": 4294967294
    }
  ],
  "vout": [
    {
      "value": 1.0,
      "n": 0,
      "scriptPubKey": {
        "asm": "OP_RETURN 2a7c30d0ab3d32f4265a4a5a60a54f1b5b1372b0fdf64c8df705cc5e1efbf99d ffac8e9ec133482b56a5035a521659b150a3f9e90628391c2e302b5b90db08aedf8caebee113680b7685237a723679917083d9c92608193c0e100b7bb0fb288ebfeccede8173086b16e5431a125619f110e3b9a94668795c6e706b1bd09b48ee9fcceefea153284b36c5633a327639d130c399896648597c4e504b3bf0bb68ce7f2c0e1e41b3c8abd62583dad296d931d023796986a8b99caeb0abdb105b882e5f0c2e3e6193e88bf605a3faf2b6f911f0035949a68899bc8e908bfb307ba80e3f6c4e5e01f388eb9665c39a92d6997190633929c6e8f9dceef0eb9b501bc86e1f4c6e7e21d3a8cbb645e3bab2f6b951b0431909e6c8d9fcced0cbbb703be84effac8e9ec133482b56a5035a521659b150a3f9e90628391c2e302b5b90db08aedf8caebee113680b7685237a723679917083d9c92608193c0e100b7bb0fb288ebfeccede8173086b16e5431a125619f110e3b9a94668795c6e706b1bd09b48ee9fcceefea153284b36c5633a327639d130c399896648597c4e504b3bf0bb68ce7f2c0e1e41b3c8abd62583dad296d931d023796986a8b99caeb0abdb105b882e5f0c2e3e6193e88bf605a3faf2b6f911f0035949a68899bc8e908bfb307ba80e3f6c4e5e01f388eb9665c39a92d6997190633929c6e8f9dceef0eb9b501bc86e1f4c6e7e21d3a8cbb645e3bab2f6b951b0431909e6c8d9fcced0cbbb703be84effac8e9ec133482b56a5035a521659b150a3f9e90628391c2e302b5b90db08aedf8caebee113680b7685237a723679917083d9c92608193c0e100b7bb0fb288ebfeccede8173086b16e5431a125619f110e3b9a94668795c6e706b1bd09b48ee9fcceefea153284b36c5633a327639d130c399896648597c4e504b3bf0bb68ce7f2c0e1e41b3c8abd62583dad296d931d023796986a8b99caeb0abdb105b882e5f0c2e3e6193e88bf605a3faf2b6f911f0035949a68899bc8e908bfb307ba80e3f6c4e5e01f388eb9665c39a92d6997190633929c6e8f9dceef0eb9b501bc86e1f4c6e7e21d3a8cbb645e3bab2f6b951b0431909e6c8d9fcced0cbbb703be84effac8e9ec133482b56a5035a521659b150a3f9e90628391c2e302b5b90db08aedf8caebee113680b7685237a723679917083d9c92608193c0e100b7bb0fb288ebfeccede8173086b16e5431a125619f110e3b9a94668795c6e706b1bd09b48ee9fcceefea153284b36c5633a327639d130c399896648597c4e504b3bf0bb68ce7f2c0e1e41b3c8abd62583dad296d931d023796986a8b99caeb0abdb105b882e5f0c2e3e6193e88bf605a3faf2b6f911f0035949a68899bc8e908bfb307ba80e3f6c4e5e01f388eb9665c39a92d6997190633929c6e8f9dceef0eb9b501bc86e1f4c6e7e21d3a8cbb645e3bab2f6b951b0431909e6c8d9fcced0cbbb703be84effac8e9ec133482b56a5035a521659b150a3f9e90628391c2e302b5b90db08aedf8caebee113680b7685237a723679917083d9c92608193c0e100b7bb0fb288ebfeccede8173086b16e5431a125619f110e3b9a94668795c6e706b1bd09b48ee9fcceefea153284b36c5633a327639d130c399896648597c4e504b3bf0bb68ce7f2c0e1e41b3c8abd62583dad296d9310b42ad0097840961939934733bda125f31b9a771e6d817575c0ab28205e3cdca",
        "hex": "6a202a7c30d0ab3d32f4265a4a5a60a54f1b5b1372b0fdf64c8df705cc5e1efbf99d4db004ffac8e9ec133482b56a5035a521659b150a3f9e90628391c2e302b5b90db08aedf8caebee113680b7685237a723679917083d9c92608193c0e100b7bb0fb288ebfeccede8173086b16e5431a125619f110e3b9a94668795c6e706b1bd09b48ee9fcceefea153284b36c5633a327639d130c399896648597c4e504b3bf0bb68ce7f2c0e1e41b3c8abd62583dad296d931d023796986a8b99caeb0abdb105b882e5f0c2e3e6193e88bf605a3faf2b6f911f0035949a68899bc8e908bfb307ba80e3f6c4e5e01f388eb9665c39a92d6997190633929c6e8f9dceef0eb9b501bc86e1f4c6e7e21d3a8cbb645e3bab2f6b951b0431909e6c8d9fcced0cbbb703be84effac8e9ec133482b56a5035a521659b150a3f9e90628391c2e302b5b90db08aedf8caebee113680b7685237a723679917083d9c92608193c0e100b7bb0fb288ebfeccede8173086b16e5431a125619f110e3b9a94668795c6e706b1bd09b48ee9fcceefea153284b36c5633a327639d130c399896648597c4e504b3bf0bb68ce7f2c0e1e41b3c8abd62583dad296d931d023796986a8b99caeb0abdb105b882e5f0c2e3e6193e88bf605a3faf2b6f911f0035949a68899bc8e908bfb307ba80e3f6c4e5e01f388eb9665c39a92d6997190633929c6e8f9dceef0eb9b501bc86e1f4c6e7e21d3a8cbb645e3bab2f6b951b0431909e6c8d9fcced0cbbb703be84effac8e9ec133482b56a5035a521659b150a3f9e90628391c2e302b5b90db08aedf8caebee113680b7685237a723679917083d9c92608193c0e100b7bb0fb288ebfeccede8173086b16e5431a125619f110e3b9a94668795c6e706b1bd09b48ee9fcceefea153284b36c5633a327639d130c399896648597c4e504b3bf0bb68ce7f2c0e1e41b3c8abd62583dad296d931d023796986a8b99caeb0abdb105b882e5f0c2e3e6193e88bf605a3faf2b6f911f0035949a68899bc8e908bfb307ba80e3f6c4e5e01f388eb9665c39a92d6997190633929c6e8f9dceef0eb9b501bc86e1f4c6e7e21d3a8cbb645e3bab2f6b951b0431909e6c8d9fcced0cbbb703be84effac8e9ec133482b56a5035a521659b150a3f9e90628391c2e302b5b90db08aedf8caebee113680b7685237a723679917083d9c92608193c0e100b7bb0fb288ebfeccede8173086b16e5431a125619f110e3b9a94668795c6e706b1bd09b48ee9fcceefea153284b36c5633a327639d130c399896648597c4e504b3bf0bb68ce7f2c0e1e41b3c8abd62583dad296d931d023796986a8b99caeb0abdb105b882e5f0c2e3e6193e88bf605a3faf2b6f911f0035949a68899bc8e908bfb307ba80e3f6c4e5e01f388eb9665c39a92d6997190633929c6e8f9dceef0eb9b501bc86e1f4c6e7e21d3a8cbb645e3bab2f6b951b0431909e6c8d9fcced0cbbb703be84effac8e9ec133482b56a5035a521659b150a3f9e90628391c2e302b5b90db08aedf8caebee113680b7685237a723679917083d9c92608193c0e100b7bb0fb288ebfeccede8173086b16e5431a125619f110e3b9a94668795c6e706b1bd09b48ee9fcceefea153284b36c5633a327639d130c399896648597c4e504b3bf0bb68ce7f2c0e1e41b3c8abd62583dad296d9310b42ad0097840961939934733bda125f31b9a771e6d817575c0ab28205e3cdca",
        "type": "nulldata"
      }
    },
    {
      "value": 499985.7634,
      "n": 1,
      "scriptPubKey": {
        "asm": "1 64fb155472f735ebe102fdad050d3011704e9ebde5bd85ebd43a1bd5b7290fcb",
        "hex": "512064fb155472f735ebe102fdad050d3011704e9ebde5bd85ebd43a1bd5b7290fcb",
        "reqSigs": 1,
        "type": "witness_v1_scripthash",
        "addresses": [
          "3QJmnh"
        ]
      }
    }
  ],
  "blockhash": "a1887b0a0b2991e806ccea2240d48d15dc99191e60c31f7623b06398d7a984df",
  "confirmations": 1,
  "time": 1764178092,
  "blocktime": 1764178092
}