{
  "hex": "0100000000010117c0e13b0e1bee940a4c2caf6fd196ee3d1b54c73ef5b79d7670dc6d8fd837260100000000feffffff0200e1f50500000000fdd5046a20e056458f4c0a7136784d06f57a449825d46d5455c2c935795712c7fb338ea1554db004f96c40ed0306bde1cd86259dd22abe9069a8005768940efcd23318544d060842d94c60cd23269dc1eda605bdf20a9eb04988207748b42edcf21338746d262862b92c00ad4346fda18dc665dd926afed029e8401728d44ebc927358140d464802990c208d6366dd81ade645fdb24adef009c8603708f46e9cb25378342d66682279ecc06d83863d614d06a51d52aa3e10e92880d7e8148e7c52b398d4cd8688c259cce04da3a61d416d26853d728a1e30c908a0f7c834ae5c7293b8f4eda6a8e239ac802dc3c67d210d46e55d12ea7e50a968c097a854ce3c12f3d8948dc6c882198ca00de3e65d012d66c57d32ca5e708948e0b78874ee1c32d3f8b4ade6e8a2f96c40ed0306bde1cd86259dd22abe9069a8005768940efcd23318544d060842d94c60cd23269dc1eda605bdf20a9eb04988207748b42edcf21338746d262862b92c00ad4346fda18dc665dd926afed029e8401728d44ebc927358140d464802990c208d6366dd81ade645fdb24adef009c8603708f46e9cb25378342d66682279ecc06d83863d614d06a51d52aa3e10e92880d7e8148e7c52b398d4cd8688c259cce04da3a61d416d26853d728a1e30c908a0f7c834ae5c7293b8f4eda6a8e239ac802dc3c67d210d46e55d12ea7e50a968c097a854ce3c12f3d8948dc6c882198ca00de3e65d012d66c57d32ca5e708948e0b78874ee1c32d3f8b4ade6e8a2f96c40ed0306bde1cd86259dd22abe9069a8005768940efcd23318544d060842d94c60cd23269dc1eda605bdf20a9eb04988207748b42edcf21338746d262862b92c00ad4346fda18dc665dd926afed029e8401728d44ebc927358140d464802990c208d6366dd81ade645fdb24adef009c8603708f46e9cb25378342d66682279ecc06d83863d614d06a51d52aa3e10e92880d7e8148e7c52b398d4cd8688c259cce04da3a61d416d26853d728a1e30c908a0f7c834ae5c7293b8f4eda6a8e239ac802dc3c67d210d46e55d12ea7e50a968c097a854ce3c12f3d8948dc6c882198ca00de3e65d012d66c57d32ca5e708948e0b78874ee1c32d3f8b4ade6e8a2f96c40ed0306bde1cd86259dd22abe9069a8005768940efcd23318544d060842d94c60cd23269dc1eda605bdf20a9eb04988207748b42edcf21338746d262862b92c00ad4346fda18dc665dd926afed029e8401728d44ebc927358140d464802990c208d6366dd81ade645fdb24adef009c8603708f46e9cb25378342d66682279ecc06d83863d614d06a51d52aa3e10e92880d7e8148e7c52b398d4cd8688c259cce04da3a61d416d26853d728a1e30c908a0f7c834ae5c7293b8f4eda6a8e239ac802dc3c67d210d46e55d12ea7e50a968c097a854ce3c12f3d8948dc6c882198ca00de3e65d012d66c57d32ca5e708948e0b78874ee1c32d3f8b4ade6e8a2f96c40ed0306bde1cd86259dd22abe9069a8005768940efcd23318544d060842d94c60cd23269dc1eda605bdf20a9eb04988207748b42edcf21338746d262862b92c00ad4346fda18dc665dd926afed029e8401728d44ebc927358140d464802990c208d6366dd81ade645fdb24adef009c8603708f46e9cb25378342d66682279ecc06d83863d614d06a51d52aa3e10085c68d7000cd3511d888856d1a1f3870eef98bc8a839f7dc22faf41ee5d6974a0cee9a1782d0000225120b283e2bba7c9cf9f5efd7734ea3412e08416a3c82a7c1ea3cd83ca9e5f22457c02fd7509b4534544f22e415f187061c9cb78bf25608066fabf1fb9e5c1fc8ad3b23f3ff302b444c83213ebb6357250eaeadaf4d391b36a1f8dccc84350b990d5e8f5faeee5409312439aef0cc85e9a0bcc16b571dd75f371dd1a2339fd82194b6c64aebf5516ca084b44d8d38202e69bb54fdd26609e864faa999fe664dd4c9a4ac443e9413760aac699041db4998932b03e2e6a364b2bfa99f44dd898b31f8b1346be24ae15c27d05d3d37a611a13791ecd380c9abbdc51bb5e719e385cee11e901fcd2248c0963a89139fd8812e3b66d9653524452431447d45a2797cf111ddff49f1181f8f776ee978bd5cdf00212cc1cdfe4e025f168024ef9f565118f09a43e4bfea2752249e882fcef3c09e5188b487732f7efebd9bf8076ac9e2366631373d94dad95566cea9e8f9d7b07da23a9a461660bf533df6ebfb79801823e5607e2dab56b2fdd2724c28e50d96b91c4560cc8d0606e62aa515aa187436d8b436b41b4832947e7bb723a5eccf513fd99068dbf47547cf125f5851472f2fc1d7042157b224282cd033e4ff0ba0f1a223b78713cfcf58bb603672d4a323423a7c418d0538e68cfae54b86238018d7430628ed3afb9e29b69e5910c212fd69d4fb946aef959fda1da3063453b594ff3d4ccd181a0b52555372a3c5f96d3c4ce7441a4622094fe5b12d67fc703d9816d4e3d7c6ef2fd794ac70ba4ac8739d87d7b4d3fc5ddf5038319868526332eabd1963149efa6c2fd11778b393e87ceb01a6f0dbf4867114920b94903577c3d0f83cff8e0fa21f26955ca2c2ec105745b6d4db0b0895b84ae189d8fbe6de88c0ddc0078979f7f39ad45a528804a7be72e01869013837b26fbbd4c7664c8cfc4467c375da09cbc1672ff3b3a480dc27258d9eaf95993afb08b56e573985df73d2e2bf002040e8eb00dbe1d13f4b46e8878520827c00b40ecd692c261763e7409bbb050b56560b5126666ef405a98bf99d9c4b84e2bf0ad9352f3512f7c246e4f03793ee61f0e9b41ce7f6f36db98e64f83ebfd9a026652c923bb204416b808ff363f257162b07c1aac37e96f2d8b23b1654813c2dd69eba59897f8755aa2f8588623ab1c45f34c8ae8d9aac0f541e8462fca4d311ab18302c739a9c8e6236c2b8fdca01bedefcacac143aca7734483c5beca339be77b91c6b1ccfc769853609ee1ad69283b19172030c6e530081855d3053a739ff3b333e269b4c52d6662e9e7acc07c30dd46ede7582866491840bc20e84c29b5ea026889f0730ec15ef31f0c8d0791e7f70150a0fdb2672c7996ffbfad3ff7c8989eebbb57caf69b15328df2cd1954d37c54604fe79a835db384930c2a93d63f70d38298e608b608608579ed5f2fae45e8a1713673fcd318a2133be2f85dcad7df80a4d416a3b96e976f0612140ef6d10891284cd4aa466a906bb190eee54641ed40c6fec36408dd3e5c68ae08b46e23571f06346ca94e504076c2b4d5fc3c980428fec193055627cc84c9c96c64caae1257b53e55c3ccfabd0ac6c1f2a4501579ca38135ae73dd32db70125e8adb087ced2f89ce0301b7e91939e4e5a8d1dfa41309c08163e30efe1393731f7138c6a7f65e194b7d0d77f87229bdf1cc0eb9e02edeb5b02db80b7daadfef27ac1850fada447a12aa71a1553e64cb249c5c4ac49c563d355d5a88a37fd65144f13cb43f2304b0931606fbaa2452a95df61706ace197dbaee267b09c65729c466b52bba7a3cbc89a5e621918c86e1f8670a76ef5497b6b67f97c2ca7327501e6e8437e61d925728e0395c9e54dfbb7707d603bcbbc9e427726b42b233a44365f2c2dc23927c199c608e6450a2aa7549c551b880455a39a832dec2cd7fc74fedc716c8968115d8463b8fd4bac0297186e501e92c7e02398a90284f9774ef23011c472c209096086191cc81af4847f3323e2bba7594e3f0e54e4ae097dfb9720431727983a8241712b101cb9175b450981e2568564175e9f77a43dac8f8ce7b4354d2568e712e1079e544708e0e54304f6991974ea1b05261523059b0c775267a46af7544d4661fd797de44c12d70738de8d32176dbdfd7a1adeb6f8ce66d8be09f6a7695fd656e7cff0512299aada51e57767c4205fae20deeec6cfeba8030533c4beda86e6aaf1a8042992f0a1886ae0e4ee16f742c91161384ab0366529e68913ee05fc6af9894c15d0bae6ca706595e8679d6ca5dec49b3bb367be3542e729ebed7988bf03f28493d60e92d34f5b6269f27a9a2c69d1a659e9c9a28aa728c3338448d706d01064d356c12c6f44e799ae91b4a63f254251bae26ad9f3eb814332b47c84d8912cbd6b8e29b15e682ed77f4ccec6a8a42b0afadf0f6a6b584ffb9ee5a9ef26e0d71d76988a47db264b7903a72f0a290dc4eaa6f156c422f6bc3b8b14de38621725c1bfc6e5be59980344405c82032b4adfa2be2ca9bbf73c73e00b77bf5ce2af6da943f47b1d08ea30873aa5ea6ae7e1fd53fccad7f5572908c15df4fff6ece171a9ae7c3de1810d59dc6d44272e8b4d0582781ba9df5190df5bff1bfb668591261f90eccbe7f03550b2dededdea7418295bab708c8ee00d4cfdb729ac391eb0926c3597a1b2ac929a5cfa92f104845d26b0461864d825738a81077d5722e72fb11bbb27009f4b5b470a27ac98cb5d2f691d39193bbe15bf6f6f06bc31bf2a149b384f7906db61dfefa86074e6ad783f9d5db8d0298cf05cd376c1b50683897cb949be5648aa4b71aa0928736df9a1cc0fdef2238ca696ab89b5d424f3068dad069ca43db5724834955f6b6a4ea867e6476500457ed04bcd6ff3f2e43a265b32d3d61a605045ffd0dc4342141ef459f9e3be5e547caaf514851570e6dde55f584fa083b99cf6961ee3e9cc22a52255dda07cef81491d8d66671d9aa932ef7788555fe1cce4d911c2cedf2f34dd6948a0b78d2237f7a76bcc0246b0f50f905b726a893c5c0ce58e00e001dd31221dbc8ebbe05e3760bd2c1ad5cf60afcf0c86c176d793cf5fa9e487e463f60f40cbdebb0f161570ff5db11d11c6713b1de1d22db2f88f71a5b981f4ac17343651943084ae404d993f90a31b59e46dc5245b8d4d0c49c18ac4c6280eb6021b494a19c8af6261f84b254bbe3dd571550352ac5ed2f8fb8213c1712ccecb40a5999722143ccbc00081c09af70b2b711db8173f3f2735a8d91dd868dce37a596a23cd3ffe0c4b60abcbf707664716d6eb525ddadf95a5e29110fe273ffe71dee9e204e9d7040c0630ce1dd25c2f63e77856ef78715917935c379531063c266be0f82400fa6855f25274142525e64687de50815174c535d5f6668767f8095afbecbe1122b4b50858a94999cc0c5d2e1e3f8fafd0f13161c272e404c595a68696a7f8f9596a8b0b9bcbfc8dbe600000000000000000000000a1b2c4501fd210500c387da1038dfc2c16eb78034da74dd04bda8fd51b1c9e6a5dea38ad54df8bfa8fb9b51ec9742b0535060f6778b713d76c0a19eff691cb03f34c98805d243af2ed7dcaeb9ec8a7102b104164a86ef8882b822b5feeb8986f6c4284e5e4b9d141dc6aaef92db63f2f9cd6988bfddc74fa33a60427add345bf0ce3507c8ca17af43ac34a6accefa2f39ae28ad208d9be303be5172b389fb078a411c0389ad3d8c9461a84a274d817a45e936aef96cac10f3def25b86390644d0dae2b115b0284ce9c931660b2b9caa42f5e9258474fb0fcd4b3540a61c3d25cef572498a64b5bd7e1e42a0bf542da62f642488087981e03a7d533e59e2a387d1d12edd62856004eda52088a6d3e1b6d887a45c2884cd6a2c78ad6d0e37d00755fe3a23b9f0fc1c3a259e0f5ca0f9dcfb252510401f30ba84dfe5de79ccff05491798d28a912bac975a2464fa3ba0bf651ed79420571e2b1f5b1c9e3fd54073f61f76d046cda0dfa850c2ab1f1160060a76157ae44413e1e14c3c12bf35c0175e1c99b125f9573439082259f1e42d7a31e055008839c2fde43d1367527124fab263e10bca4d621d5b8a4e66b4a3e5283cd8cc7f6e4c13f62d91d6e9d611ca132c8e71dd8d400e91ca160a98c1eddd480fca43c99ce9438da6fdde58e5afbeb6d4565504589bf1215100652ec29304360dbfa0ea6abd69ad5c079b78bbc78528d5971da4ff242f66aeb7cd62a805b9f7b2d8657e4ecd4e3fa9df1680bb9b1522a7effd41a3b8fb794c04a8f80ee1a66307011fcbb15c1e7a44764b7eca52dee9f5f9e155d54bb9d2f9645c74438384ed326d8cdb20d717ba254f8c78bcebce615a68ebd08e2120e7724d7097d5a4dfffc2579983ee402272c82dd33dcbe443c8df4851e2f4956c0e8945732ebddb2188efb21837dc1ae5083778ae5b6ea78445b2017be9d7715f19315724e0b86bcbcd5944200d621659e043676fa940099984c79abff29359ab08248b1d2cb9d0dcc7e98792f77b2e8be283bab77c7565005c638a84ec41e5c5c03a6c0b14fa314d31403ae4f4ad3468a22b6a60de8f725ff20e149deb745c92c2bc60866efc63cdc0ff57daa9b5159f4ccfc7fca8691103c6022ff58175860a5c7f8e1e1ba3791b0d3231600bc52cf04d9bcf762fc2a44c5df9563677f547e7bcaa824cfa7b2a77d392dc7856b88cc0490242b4587276f4c2246f0a86ad06212c5d2fa22d6a51893c8ef0fc91a5a5c3aa29c14519edf09e2bf0efc4769f6a832698dd872f2c274bd7524f4708b8c550284e80be3ff250655e0caeffe6a5a776402df7a3582476bcb30dc1d3d51943f6599c0344f9357263bf2a1c62c47d8f92914516a9bc36eccbce06f282019a2298b46e37856a6bb2d9fc4eb2e3bb3fd63e46b103b12fc58d373802f51a01eb4732645cd842f00413b549b03e22e66f242e4c769016725282cf21f1271f61ce62eab8692529a478daf0613cbe8e3ac40729230ec1efc31ce2ace7a51c5e2194740a808293075f80c10184acf80dd48e0acadd24a7ede44edca22a96af541825455c341fc5f952fc2ea01d67d9d406168aee83498aba01adbf61b58138d6aca6580fa70b22bc404537606d9005ad90552924988d7b42011d2068953531de776a873ce1e63a73633b08c992c2360d90eaf1de47b3b36e9f0448d940f9b7293aef9a7a6fd0467a62716c7e0198bd857b9f172d3c6bbfed90d8a1d4c7d9b86321b22ffc7430b9866a1e3b721e5dfd33bc69cee95fd0ec07c455e7fe4d2eb03b578a7cb0b691eedc61288d9ecff31ebe100c3f21895ca71de60fc3020d750e2099fc6d8041c98bcc26a7717c7fc74e19095340cfbd7c88000000",
  "txid": "258692c65959909eb54aa8ca71e81d51b83b90fcce88e807ba58cdcc897f18a0",
  "hash": "d3659391095e191a1a9fddb661ef12e8dec716a04fd6d725f55cdf5dabb10717",
  "size": 5085,
  "vsize": 2278,
  "version": 1,
  "locktime": 136,
  "vin": [
    {
      "txid": "2637d88f6ddc70769db7f53ec7541b3dee96d16faf2c4c0a94ee1b0e3be1c017",
      "vout": 1,
      "scriptSig": {
        "asm": "",
        "hex": ""
      },
      "txinwitness": [
        "b4534544f22e415f187061c9cb78bf25608066fabf1fb9e5c1fc8ad3b23f3ff302b444c83213ebb6357250eaeadaf4d391b36a1f8dccc84350b990d5e8f5faeee5409312439aef0cc85e9a0bcc16b571dd75f371dd1a2339fd82194b6c64aebf5516ca084b44d8d38202e69bb54fdd26609e864faa999fe664dd4c9a4ac443e9413760aac699041db4998932b03e2e6a364b2bfa99f44dd898b31f8b1346be24ae15c27d05d3d37a611a13791ecd380c9abbdc51bb5e719e385cee11e901fcd2248c0963a89139fd8812e3b66d9653524452431447d45a2797cf111ddff49f1181f8f776ee978bd5cdf00212cc1cdfe4e025f168024ef9f565118f09a43e4bfea2752249e882fcef3c09e5188b487732f7efebd9bf8076ac9e2366631373d94dad95566cea9e8f9d7b07da23a9a461660bf533df6ebfb79801823e5607e2dab56b2fdd2724c28e50d96b91c4560cc8d0606e62aa515aa187436d8b436b41b4832947e7bb723a5eccf513fd99068dbf47547cf125f5851472f2fc1d7042157b224282cd033e4ff0ba0f1a223b78713cfcf58bb603672d4a323423a7c418d0538e68cfae54b86238018d7430628ed3afb9e29b69e5910c212fd69d4fb946aef959fda1da3063453b594ff3d4ccd181a0b52555372a3c5f96d3c4ce7441a4622094fe5b12d67fc703d9816d4e3d7c6ef2fd794ac70ba4ac8739d87d7b4d3fc5ddf5038319868526332eabd1963149efa6c2fd11778b393e87ceb01a6f0dbf4867114920b94903577c3d0f83cff8e0fa21f26955ca2c2ec105745b6d4db0b0895b84ae189d8fbe6de88c0ddc0078979f7f39ad45a528804a7be72e01869013837b26fbbd4c7664c8cfc4467c375da09cbc1672ff3b3a480dc27258d9eaf95993afb08b56e573985df73d2e2bf002040e8eb00dbe1d13f4b46e8878520827c00b40ecd692c261763e7409bbb050b56560b5126666ef405a98bf99d9c4b84e2bf0ad9352f3512f7c246e4f03793ee61f0e9b41ce7f6f36db98e64f83ebfd9a026652c923bb204416b808ff363f257162b07c1aac37e96f2d8b23b1654813c2dd69eba59897f8755aa2f8588623ab1c45f34c8ae8d9aac0f541e8462fca4d311ab18302c739a9c8e6236c2b8fdca01bedefcacac143aca7734483c5beca339be77b91c6b1ccfc769853609ee1ad69283b19172030c6e530081855d3053a739ff3b333e269b4c52d6662e9e7acc07c30dd46ede7582866491840bc20e84c29b5ea026889f0730ec15ef31f0c8d0791e7f70150a0fdb2672c7996ffbfad3ff7c8989eebbb57caf69b15328df2cd1954d37c54604fe79a835db384930c2a93d63f70d38298e608b608608579ed5f2fae45e8a1713673fcd318a2133be2f85dcad7df80a4d416a3b96e976f0612140ef6d10891284cd4aa466a906bb190eee54641ed40c6fec36408dd3e5c68ae08b46e23571f06346ca94e504076c2b4d5fc3c980428fec193055627cc84c9c96c64caae1257b53e55c3ccfabd0ac6c1f2a4501579ca38135ae73dd32db70125e8adb087ced2f89ce0301b7e91939e4e5a8d1dfa41309c08163e30efe1393731f7138c6a7f65e194b7d0d77f87229bdf1cc0eb9e02edeb5b02db80b7daadfef27ac1850fada447a12aa71a1553e64cb249c5c4ac49c563d355d5a88a37fd65144f13cb43f2304b0931606fbaa2452a95df61706ace197dbaee267b09c65729c466b52bba7a3cbc89a5e621918c86e1f8670a76ef5497b6b67f97c2ca7327501e6e8437e61d925728e0395c9e54dfbb7707d603bcbbc9e427726b42b233a44365f2c2dc23927c199c608e6450a2aa7549c551b880455a39a832dec2cd7fc74fedc716c8968115d8463b8fd4bac0297186e501e92c7e02398a90284f9774ef23011c472c209096086191cc81af4847f3323e2bba7594e3f0e54e4ae097dfb9720431727983a8241712b101cb9175b450981e2568564175e9f77a43dac8f8ce7b4354d2568e712e1079e544708e0e54304f6991974ea1b05261523059b0c775267a46af7544d4661fd797de44c12d70738de8d32176dbdfd7a1adeb6f8ce66d8be09f6a7695fd656e7cff0512299aada51e57767c4205fae20deeec6cfeba8030533c4beda86e6aaf1a8042992f0a1886ae0e4ee16f742c91161384ab0366529e68913ee05fc6af9894c15d0bae6ca706595e8679d6ca5dec49b3bb367be3542e729ebed7988bf03f28493d60e92d34f5b6269f27a9a2c69d1a659e9c9a28aa728c3338448d706d01064d356c12c6f44e799ae91b4a63f254251bae26ad9f3eb814332b47c84d8912cbd6b8e29b15e682ed77f4ccec6a8a42b0afadf0f6a6b584ffb9ee5a9ef26e0d71d76988a47db264b7903a72f0a290dc4eaa6f156c422f6bc3b8b14de38621725c1bfc6e5be59980344405c82032b4adfa2be2ca9bbf73c73e00b77bf5ce2af6da943f47b1d08ea30873aa5ea6ae7e1fd53fccad7f5572908c15df4fff6ece171a9ae7c3de1810d59dc6d44272e8b4d0582781ba9df5190df5bff1bfb668591261f90eccbe7f03550b2dededdea7418295bab708c8ee00d4cfdb729ac391eb0926c3597a1b2ac929a5cfa92f104845d26b0461864d825738a81077d5722e72fb11bbb27009f4b5b470a27ac98cb5d2f691d39193bbe15bf6f6f06bc31bf2a149b384f7906db61dfefa86074e6ad783f9d5db8d0298cf05cd376c1b50683897cb949be5648aa4b71aa0928736df9a1cc0fdef2238ca696ab89b5d424f3068dad069ca43db5724834955f6b6a4ea867e6476500457ed04bcd6ff3f2e43a265b32d3d61a605045ffd0dc4342141ef459f9e3be5e547caaf514851570e6dde55f584fa083b99cf6961ee3e9cc22a52255dda07cef81491d8d66671d9aa932ef7788555fe1cce4d911c2cedf2f34dd6948a0b78d2237f7a76bcc0246b0f50f905b726a893c5c0ce58e00e001dd31221dbc8ebbe05e3760bd2c1ad5cf60afcf0c86c176d793cf5fa9e487e463f60f40cbdebb0f161570ff5db11d11c6713b1de1d22db2f88f71a5b981f4ac17343651943084ae404d993f90a31b59e46dc5245b8d4d0c49c18ac4c6280eb6021b494a19c8af6261f84b254bbe3dd571550352ac5ed2f8fb8213c1712ccecb40a5999722143ccbc00081c09af70b2b711db8173f3f2735a8d91dd868dce37a596a23cd3ffe0c4b60abcbf707664716d6eb525ddadf95a5e29110fe273ffe71dee9e204e9d7040c0630ce1dd25c2f63e77856ef78715917935c379531063c266be0f82400fa6855f25274142525e64687de50815174c535d5f6668767f8095afbecbe1122b4b50858a94999cc0c5d2e1e3f8fafd0f13161c272e404c595a68696a7f8f9596a8b0b9bcbfc8dbe600000000000000000000000a1b2c4501",
        "00c387da1038dfc2c16eb78034da74dd04bda8fd51b1c9e6a5dea38ad54df8bfa8fb9b51ec9742b0535060f6778b713d76c0a19eff691cb03f34c98805d243af2ed7dcaeb9ec8a7102b104164a86ef8882b822b5feeb8986f6c4284e5e4b9d141dc6aaef92db63f2f9cd6988bfddc74fa33a60427add345bf0ce3507c8ca17af43ac34a6accefa2f39ae28ad208d9be303be5172b389fb078a411c0389ad3d8c9461a84a274d817a45e936aef96cac10f3def25b86390644d0dae2b115b0284ce9c931660b2b9caa42f5e9258474fb0fcd4b3540a61c3d25cef572498a64b5bd7e1e42a0bf542da62f642488087981e03a7d533e59e2a387d1d12edd62856004eda52088a6d3e1b6d887a45c2884cd6a2c78ad6d0e37d00755fe3a23b9f0fc1c3a259e0f5ca0f9dcfb252510401f30ba84dfe5de79ccff05491798d28a912bac975a2464fa3ba0bf651ed79420571e2b1f5b1c9e3fd54073f61f76d046cda0dfa850c2ab1f1160060a76157ae44413e1e14c3c12bf35c0175e1c99b125f9573439082259f1e42d7a31e055008839c2fde43d1367527124fab263e10bca4d621d5b8a4e66b4a3e5283cd8cc7f6e4c13f62d91d6e9d611ca132c8e71dd8d400e91ca160a98c1eddd480fca43c99ce9438da6fdde58e5afbeb6d4565504589bf1215100652ec29304360dbfa0ea6abd69ad5c079b78bbc78528d5971da4ff242f66aeb7cd62a805b9f7b2d8657e4ecd4e3fa9df1680bb9b1522a7effd41a3b8fb794c04a8f80ee1a66307011fcbb15c1e7a44764b7eca52dee9f5f9e155d54bb9d2f9645c74438384ed326d8cdb20d717ba254f8c78bcebce615a68ebd08e2120e7724d7097d5a4dfffc2579983ee402272c82dd33dcbe443c8df4851e2f4956c0e8945732ebddb2188efb21837dc1ae5083778ae5b6ea78445b2017be9d7715f19315724e0b86bcbcd5944200d621659e043676fa940099984c79abff29359ab08248b1d2cb9d0dcc7e98792f77b2e8be283bab77c7565005c638a84ec41e5c5c03a6c0b14fa314d31403ae4f4ad3468a22b6a60de8f725ff20e149deb745c92c2bc60866efc63cdc0ff57daa9b5159f4ccfc7fca8691103c6022ff58175860a5c7f8e1e1ba3791b0d3231600bc52cf04d9bcf762fc2a44c5df9563677f547e7bcaa824cfa7b2a77d392dc7856b88cc0490242b4587276f4c2246f0a86ad06212c5d2fa22d6a51893c8ef0fc91a5a5c3aa29c14519edf09e2bf0efc4769f6a832698dd872f2c274bd7524f4708b8c550284e80be3ff250655e0caeffe6a5a776402df7a3582476bcb30dc1d3d51943f6599c0344f9357263bf2a1c62c47d8f92914516a9bc36eccbce06f282019a2298b46e37856a6bb2d9fc4eb2e3bb3fd63e46b103b12fc58d373802f51a01eb4732645cd842f00413b549b03e22e66f242e4c769016725282cf21f1271f61ce62eab8692529a478daf0613cbe8e3ac40729230ec1efc31ce2ace7a51c5e2194740a808293075f80c10184acf80dd48e0acadd24a7ede44edca22a96af541825455c341fc5f952fc2ea01d67d9d406168aee83498aba01adbf61b58138d6aca6580fa70b22bc404537606d9005ad90552924988d7b42011d2068953531de776a873ce1e63a73633b08c992c2360d90eaf1de47b3b36e9f0448d940f9b7293aef9a7a6fd0467a62716c7e0198bd857b9f172d3c6bbfed90d8a1d4c7d9b86321b22ffc7430b9866a1e3b721e5dfd33bc69cee95fd0ec07c455e7fe4d2eb03b578a7cb0b691eedc61288d9ecff31ebe100c3f21895ca71de60fc3020d750e2099fc6d8041c98bcc26a7717c7fc74e19095340cfbd7c"
      ],
      "sequence": 4294967294
    }
  ],
  "vout": [
    {
      "value": 1.0,
      "n": 0,
      "scriptPubKey": {
        "asm": "OP_RETURN e056458f4c0a7136784d06f57a449825d46d5455c2c935795712c7fb338ea155 f96c40ed0306bde1cd86259dd22abe9069a8005768940efcd23318544d060842d94c60cd23269dc1eda605bdf20a9eb04988207748b42edcf21338746d262862b92c00ad4346fda18dc665dd926afed029e8401728d44ebc927358140d464802990c208d6366dd81ade645fdb24adef009c8603708f46e9cb25378342d66682279ecc06d83863d614d06a51d52aa3e10e92880d7e8148e7c52b398d4cd8688c259cce04da3a61d416d26853d728a1e30c908a0f7c834ae5c7293b8f4eda6a8e239ac802dc3c67d210d46e55d12ea7e50a968c097a854ce3c12f3d8948dc6c882198ca00de3e65d012d66c57d32ca5e708948e0b78874ee1c32d3f8b4ade6e8a2f96c40ed0306bde1cd86259dd22abe9069a8005768940efcd23318544d060842d94c60cd23269dc1eda605bdf20a9eb04988207748b42edcf21338746d262862b92c00ad4346fda18dc665dd926afed029e8401728d44ebc927358140d464802990c208d6366dd81ade645fdb24adef009c8603708f46e9cb25378342d66682279ecc06d83863d614d06a51d52aa3e10e92880d7e8148e7c52b398d4cd8688c259cce04da3a61d416d26853d728a1e30c908a0f7c834ae5c7293b8f4eda6a8e239ac802dc3c67d210d46e55d12ea7e50a968c097a854ce3c12f3d8948dc6c882198ca00de3e65d012d66c57d32ca5e708948e0b78874ee1c32d3f8b4ade6e8a2f96c40ed0306bde1cd86259dd22abe9069a8005768940efcd23318544d060842d94c60cd23269dc1eda605bdf20a9eb04988207748b42edcf21338746d262862b92c00ad4346fda18dc665dd926afed029e8401728d44ebc927358140d464802990c208d6366dd81ade645fdb24adef009c8603708f46e9cb25378342d66682279ecc06d83863d614d06a51d52aa3e10e92880d7e8148e7c52b398d4cd8688c259cce04da3a61d416d26853d728a1e30c908a0f7c834ae5c7293b8f4eda6a8e239ac802dc3c67d210d46e55d12ea7e50a968c097a854ce3c12f3d8948dc6c882198ca00de3e65d012d66c57d32ca5e708948e0b78874ee1c32d3f8b4ade6e8a2f96c40ed0306bde1cd86259dd22abe9069a8005768940efcd23318544d060842d94c60cd23269dc1eda605bdf20a9eb04988207748b42edcf21338746d262862b92c00ad4346fda18dc665dd926afed029e8401728d44ebc927358140d464802990c208d6366dd81ade645fdb24adef009c8603708f46e9cb25378342d66682279ecc06d83863d614d06a51d52aa3e10e92880d7e8148e7c52b398d4cd8688c259cce04da3a61d416d26853d728a1e30c908a0f7c834ae5c7293b8f4eda6a8e239ac802dc3c67d210d46e55d12ea7e50a968c097a854ce3c12f3d8948dc6c882198ca00de3e65d012d66c57d32ca5e708948e0b78874ee1c32d3f8b4ade6e8a2f96c40ed0306bde1cd86259dd22abe9069a8005768940efcd23318544d060842d94c60cd23269dc1eda605bdf20a9eb04988207748b42edcf21338746d262862b92c00ad4346fda18dc665dd926afed029e8401728d44ebc927358140d464802990c208d6366dd81ade645fdb24adef009c8603708f46e9cb25378342d66682279ecc06d83863d614d06a51d52aa3e10085c68d7000cd3511d888856d1a1f3870eef98bc8a839f7dc22faf41ee5d6974",
        "hex": "6a20e056458f4c0a7136784d06f57a449825d46d5455c2c935795712c7fb338ea1554db004f96c40ed0306bde1cd86259dd22abe9069a8005768940efcd23318544d060842d94c60cd23269dc1eda605bdf20a9eb04988207748b42edcf21338746d262862b92c00ad4346fda18dc665dd926afed029e8401728d44ebc927358140d464802990c208d6366dd81ade645fdb24adef009c8603708f46e9cb25378342d66682279ecc06d83863d614d06a51d52aa3e10e92880d7e8148e7c52b398d4cd8688c259cce04da3a61d416d26853d728a1e30c908a0f7c834ae5c7293b8f4eda6a8e239ac802dc3c67d210d46e55d12ea7e50a968c097a854ce3c12f3d8948dc6c882198ca00de3e65d012d66c57d32ca5e708948e0b78874ee1c32d3f8b4ade6e8a2f96c40ed0306bde1cd86259dd22abe9069a8005768940efcd23318544d060842d94c60cd23269dc1eda605bdf20a9eb04988207748b42edcf21338746d262862b92c00ad4346fda18dc665dd926afed029e8401728d44ebc927358140d464802990c208d6366dd81ade645fdb24adef009c8603708f46e9cb25378342d66682279ecc06d83863d614d06a51d52aa3e10e92880d7e8148e7c52b398d4cd8688c259cce04da3a61d416d26853d728a1e30c908a0f7c834ae5c7293b8f4eda6a8e239ac802dc3c67d210d46e55d12ea7e50a968c097a854ce3c12f3d8948dc6c882198ca00de3e65d012d66c57d32ca5e708948e0b78874ee1c32d3f8b4ade6e8a2f96c40ed0306bde1cd86259dd22abe9069a8005768940efcd23318544d060842d94c60cd23269dc1eda605bdf20a9eb04988207748b42edcf21338746d262862b92c00ad4346fda18dc665dd926afed029e8401728d44ebc927358140d464802990c208d6366dd81ade645fdb24adef009c8603708f46e9cb25378342d66682279ecc06d83863d614d06a51d52aa3e10e92880d7e8148e7c52b398d4cd8688c259cce04da3a61d416d26853d728a1e30c908a0f7c834ae5c7293b8f4eda6a8e239ac802dc3c67d210d46e55d12ea7e50a968c097a854ce3c12f3d8948dc6c882198ca00de3e65d012d66c57d32ca5e708948e0b78874ee1c32d3f8b4ade6e8a2f96c40ed0306bde1cd86259dd22abe9069a8005768940efcd23318544d060842d94c60cd23269dc1eda605bdf20a9eb04988207748b42edcf21338746d262862b92c00ad4346fda18dc665dd926afed029e8401728d44ebc927358140d464802990c208d6366dd81ade645fdb24adef009c8603708f46e9cb25378342d66682279ecc06d83863d614d06a51d52aa3e10e92880d7e8148e7c52b398d4cd8688c259cce04da3a61d416d26853d728a1e30c908a0f7c834ae5c7293b8f4eda6a8e239ac802dc3c67d210d46e55d12ea7e50a968c097a854ce3c12f3d8948dc6c882198ca00de3e65d012d66c57d32ca5e708948e0b78874ee1c32d3f8b4ade6e8a2f96c40ed0306bde1cd86259dd22abe9069a8005768940efcd23318544d060842d94c60cd23269dc1eda605bdf20a9eb04988207748b42edcf21338746d262862b92c00ad4346fda18dc665dd926afed029e8401728d44ebc927358140d464802990c208d6366dd81ade645fdb24adef009c8603708f46e9cb25378342d66682279ecc06d83863d614d06a51d52aa3e10085c68d7000cd3511d888856d1a1f3870eef98bc8a839f7dc22faf41ee5d6974",
        "type": "nulldata"
      }
    },
    {
      "value": 499961.3578,
      "n": 1,
      "scriptPubKey": {
        "asm": "1 b283e2bba7c9cf9f5efd7734ea3412e08416a3c82a7c1ea3cd83ca9e5f22457c",
        "hex": "5120b283e2bba7c9cf9f5efd7734ea3412e08416a3c82a7c1ea3cd83ca9e5f22457c",
        "reqSigs": 1,
        "type": "witness_v1_scripthash",
        "addresses": [
          "3QJmnh"
        ]
      }
    }
  ],
  "blockhash": "c0ea0e6b16ad20f35d4757cbcff39c3d199dbd7e252fa8e6bc9f3f36ee858c22",
  "confirmations": 1,
  "time": 1764183276,
  "blocktime": 1764183276
}