{
  "hex": "01000000000101890f2fe3632e841c90ac04b25675ad6f59977c317ac4f69135f77b8367e71e5a0000000000feffffff02e021231b792d0000225120caffbb370fa7d04ca43897a28cf2b1249f256cb75064d825decaa61a24aa4f2f00e1f50500000000fdd5046a2095b75b935ef867a05df7e5177c243bc9a264378520701240bc4e0dc22984c21c4db004c165042a1802bdeeef90a4ecbe0731329be9c6a26acbadaf7bd813ee9e7520e0e145240a38229dcecfb084cc9e271112bbc9e6824aeb8d8f5bf833cebe5500c08125446a5842fdaeafd0e4acfe477172dba986e22a8bedef3b9853aede3560a0a105644a7862dd8e8ff0c48cde675152fb89a6c20aabcdcf1bb8738efe15408041e584aa98823d6e6f10246c3e87b1b21b694622ea4b2d2ffb58936e1ef5a06061c5a48ab8a21d4e4f30044c1ea791923b496602ca6b0d0fdb78b34e3ed5804001a5c4ead8c27d2e2f50642c7ec7f1f25b290662aa0b6d6fbb18d32e5eb5e0202185e4caf8e25d0e0f70440c5ee7d1d27b0926428a2b4d4f9b38f30e7e95c000c165042a1802bdeeef90a4ecbe0731329be9c6a26acbadaf7bd813ee9e7520e0e145240a38229dcecfb084cc9e271112bbc9e6824aeb8d8f5bf833cebe5500c08125446a5842fdaeafd0e4acfe477172dba986e22a8bedef3b9853aede3560a0a105644a7862dd8e8ff0c48cde675152fb89a6c20aabcdcf1bb8738efe15408041e584aa98823d6e6f10246c3e87b1b21b694622ea4b2d2ffb58936e1ef5a06061c5a48ab8a21d4e4f30044c1ea791923b496602ca6b0d0fdb78b34e3ed5804001a5c4ead8c27d2e2f50642c7ec7f1f25b290662aa0b6d6fbb18d32e5eb5e0202185e4caf8e25d0e0f70440c5ee7d1d27b0926428a2b4d4f9b38f30e7e95c000c165042a1802bdeeef90a4ecbe0731329be9c6a26acbadaf7bd813ee9e7520e0e145240a38229dcecfb084cc9e271112bbc9e6824aeb8d8f5bf833cebe5500c08125446a5842fdaeafd0e4acfe477172dba986e22a8bedef3b9853aede3560a0a105644a7862dd8e8ff0c48cde675152fb89a6c20aabcdcf1bb8738efe15408041e584aa98823d6e6f10246c3e87b1b21b694622ea4b2d2ffb58936e1ef5a06061c5a48ab8a21d4e4f30044c1ea791923b496602ca6b0d0fdb78b34e3ed5804001a5c4ead8c27d2e2f50642c7ec7f1f25b290662aa0b6d6fbb18d32e5eb5e0202185e4caf8e25d0e0f70440c5ee7d1d27b0926428a2b4d4f9b38f30e7e95c000c165042a1802bdeeef90a4ecbe0731329be9c6a26acbadaf7bd813ee9e7520e0e145240a38229dcecfb084cc9e271112bbc9e6824aeb8d8f5bf833cebe5500c08125446a5842fdaeafd0e4acfe477172dba986e22a8bedef3b9853aede3560a0a105644a7862dd8e8ff0c48cde675152fb89a6c20aabcdcf1bb8738efe15408041e584aa98823d6e6f10246c3e87b1b21b694622ea4b2d2ffb58936e1ef5a06061c5a48ab8a21d4e4f30044c1ea791923b496602ca6b0d0fdb78b34e3ed5804001a5c4ead8c27d2e2f50642c7ec7f1f25b290662aa0b6d6fbb18d32e5eb5e0202185e4caf8e25d0e0f70440c5ee7d1d27b0926428a2b4d4f9b38f30e7e95c000c165042a1802bdeeef90a4ecbe0731329be9c6a26acbadaf7bd813ee9e7520e0e145240a38229dcecfb084cc9e271112bbc9e6824aeb8d8f5bf833cebe5500c08125446a5842fdaeafd0e4acfe477172dba986e22a8bedef3b9853aede3560a0a105644a7862dd8e8ff0c48cde675152fb89a6c20aabcdcf1bb8738efe15408041e584aa98823d6e6f10246c3e87b1b21e7448723f1d86fd42247b5f9ffcfeeaa90628dcbb56a64ca5f9de2299d9561702fd7509f3acbf057672bd02b9e14c35ce440087ae401c83d60740a8c8affe271c8152a165b25db926947aa295d42663e4188931ba728c772da7246d4066d4da8aec3060911964d5449b2f22e054059bd4029a0bbe66f0c38a379e8ec8e36dfa28537b41c767287d94bae774c714f27507b7932f54ba9f6a6ebfec3ad545c3ea2a2a60d3ed24debdb9f7d70b0ab7971c3e8f8cd76c64887d4e44dc6c01214a5b1bc65c6322c308427c1db22de9222036da7400405879c5f66074180eff8e1a54a2d5851a1b401e16d2673d8a7d8689b496f68d9a831b1365810cde46c9995dc56bdd91735dab7ffe1a0f2760e4be239483483958400fc6f9a788cc7b3e19679ea10c15331d9d56a12bc9ff3bd8e15018e97402c841efbd332e93040337957702d18f854f4a9b9b3c899394cbc3e08ac5113e898f76f8a7ce1272b73b6e7282878c9be85a8b04aba3532c101eef764ef77b163a8845ec0feb74c6568f9c05b6c6d4f36e7e9a6eb364d7e9594ad65c90ae3c0af6b0ec143943814c1898dc9ef3d0e91dedc63b4aefb52986b2cbb163ec4fde7288f26779f10050b792cc7c336857256e5522e50091e3e97a3ade39b508c5647feadeec5cae9b8f6f7c8796174d82346a9573edb46d671347410d2d0ca0446d617a72b2b318287d6922dec2910544acc859ff6ea5dcc2b64d408ccac54966ae855675df85b9c1c8b000e54b3ed164547ca6ad1bf0576f054567b3034b0ee35970dfca7d1bec525304208e73fce2ccc5268e522230520b9721a6daaf53b3d1932c680947d418781c1b08e712f97df8386d0fd17d9ba0d341840b58cd3530d6d132b3acc7ff94d8ece99cfa6c47510a71afa4f8b396f6ed58f9784ffc1bb9e4ec87689348a9bb49e5a4803daa821ace92406b33c86bf9e4716b3ef0fafe9d25501ca77616dfbb96abc6846aac4b4600c9b1611553887b29664749258b64bb1ce306b83897096d5119ae5ec3d7d5169b50b03830a69e09d37d69d358b28f1156389e6b4d2a85a3c7cc9d023edde02567a608ad836b0d6129ece1e8180324827a25d7f3b6d0d5c300f75b05861ef0c043661cff37b77bd04d53910b95ffe4424790c2bb35256a6992b36c753c829029c5432acf0687d478d1fb0aeb7d1252c3118afc487f06fc3be23579a9fe5bd50012485fc1ad8dab21e5f16ae3f7c95b786d30b3d20b083b5a73725146751e10311fd41dd9f3eacd074696e582d7a7d13abcbe3a0b0a93bc5abfb22becb9418e95571ca2a972e081eae4102caafdb5daa935218d41f0807307de1b93ca875498bfe2af0fe3b8dd916d7e4baaff7b94093be48a9c65c14f8558306d7a9e1aa3de237b121c684ca9d097ef03fe6fc898a13d22a58e7104e3056f3e78484a6c489fe325ea2365159db27f7e147e74ecaacc409d749f38e8f566daf6dbc5dfbc6dd24bb3d59d5634037dd87b3de6b3a0a45fd228c7903e632c0cdfc4cd864b1c156d68171750730df829dc90e8c601d3a1caba09950a693ecad2dff5cf925b4b1211115f908d8d4a6c01908d9806bd8d31bcc25cc57320e6ea8e91b74219796474a8e20248f39f39ace01ee61bd059f837e76d6aa712d3227986fd43b3a2aa0126a8073f7b491ee96116cf3834abf51345f54099ae1bafbf6ec04edc9d48cabbedba25dc4904e7e7df25836172a0f6ca96534b3ea05eb3e9cfd1148e99092679c36abf9cefc2f1a0df1b3024e486200e876fa1cd506528f325891616c75edb52a48aa493d065b867e6953ca55d0d7fd303bd2ca7d4888d80098a5b5dc16c57bc046677c727255c2b79718e1c066f6d6ce3ebfb445ad80053a61fcc96ace05d77b7893a62a9542e9364f892ef796da7f539b9f4b722812036e80fb649b6343821929068abfc86c1def6bc38ac1041f389e38e68b3f7357eaf8a077e7aff342778a4aed791381ad2ffd512e123b0243e565d4aa9dab3c0a99e4bbccf3ca99ab49805ef6d1ba1d2152795279599285ff18da33b3ea489cabfbe5f3fe4797913d714c2f54c3a60790a7592597848d5764d518df4b7cf0c042c9ea37000bf495c0759873ec6fb3e9815a7114ef65d3d771f041a56e4d3cfcef819e030e1511d3dcec3ab2bb8b456fe17d0bfcafd27536af35e9f19db7c8c0520696b030e0d900656a9bf219a9a780b82909251863677ea1c9d1a96bb6f2f05fe55edc6a986980df8e8d73bf8ee4959cdddef4633b16c8166797d0109ae8ddda8d5703e29df46ff0e67dac411013761f24f8294ebbc2ee230d86b861c1e7929af0236b3f46715ada1aa617a5a285a76a8590c0986177583a939fb9ee7bad663e760c1ff47ae3b7b7943d702779d8011400f4b3a0d67fb6581b67f92d1faa90c084392df4a226369fc051f6ace6aec87e274a2078b3f2a1bdfd79f18520dada4ae746f59e7083fab19a1130bcd0b4127bd27e01fa297ce2d88ce58532d0cbe8a6c095504d6225ff4e727e59367983f187a8f55cb348a5323fb30a53ca20097eb735df5aa0738f17457adc0d1cdfce781f1d2ebd67c6b11fdccd518f263fd9d85b4b1e3701266606701c7fdfd449c88447f0e8485c623f1966a11ba0f0f1c8e9b22b025710cf51c3c1e606a237cd9ac29ca00ff97eb54f31fd5fae17958e818ea4f366dbb9001da2653f37821ca7c3200093cf0a3037b1529a52311f9bc510a4fb6daf1359e1bfadfd10d2f30853b418adb1b89c2754067a7c1394e5869e08d4fef9dabd2694cafec9df52cb8ebf400494fa889b10c064efd48763624b1d4009cce9839682cc2d0d48c7f728ff03da6646b5c461dab005437c994a7171060439202902880b61ec32500a876f0375698bac6d7437962256394530f25328b7b7eacf23ebde10ca1b91f72411580b3248b9d9e0a510e5fe6461a10db241ea7efccc8eeb999444e10cc6bd5772a50322863b00a99626b5462597faab97cabebf124c1b8abfe09b88bdad6c1d7388f7e981730dc96de516e89b731841bb2ccf72c1e4b7d978142cc601e03308540a71c0d1b48581c5300758485e9f558fb2845d45aa50b98197c10d807589732521ed50acee9f4a78a2facfc951d6dcbb1572b905b8c0f50737401d9c8f2c683f9fa962a910e486eae46b212b96eb4c9f800df27a43e0fc4dd06bcb1eacb6c87a950a070c63e728de5ec79688dfbf72470a5b3caa5b8bcaca1d8b16b47f1e7fb91cb451d1858117a8d8c7cae3a1aed181cbfb484594ba37dbe38960c5cf9b80d0ecc38a6308b03d17771fe5fa9779ef7a027a4626226a0617cd427050f6ef0f8c560ffbeada9b842172c3e7d9dabc8ee010e1014333b49597b8188a7a9aeb8cfd3e1e4eafc040a0c2c30355e6a6c73808594b9baced4dadde3e7e8e9ed1e212641636f87a6babfc1e1eaed00000000000000000000000000081d354301fd210500fb166131b6b30d228182c53dfb9e1ea46a94f74be0235c6f7bf71f5c40f8eb056109ded1c4f8acd3f14d925619ed89a81c006983e63214c59d00074f9ea8112510acad9f335be78e6d4e1e3d2b55d22ffaf588aaf7d1be432dc08275571bccf2025e5e848ad5460daca0ef02f21f28c727a6e799358604fefb9ab7754b4e6480e0010604fde33929af0f9c3132d372b877f49203e6fb5b84ff3c788a601d02a411f9a4317bc1b2396b9872c010d29b171a5b4466dec924bb5ea832cc1ac95f88088f25794b8ea087e43b6bd5a070a72120261e66b34054af95ffe7402684f79516f80fdfd5b24112e3cd57e151898d76e37c36496bfd313c94615f69ebd332a5807722cdfba0a1421453f438076c718dd8355292a3e71324c2841db697870f0ca77d9d752d1aeb08f7866bfa48da631acb749c68615f6ae39c2e43f0705238a6992e522e0f7ff3adc7a60235b460a6690896ab79f8d35eb29c14d5d350f69e70d75c949127f62c50fb885f06e86909b55c9ff19c88717b6066dafe1167d5b74b0a3a8261b4db9fd8a2607ac666dd3fbb173523e774b81693027adfabd82c92933e17019b41f17443c8283fae0e77926c36279bf87d9156d3d81022247104b96b4e6b38dc33e24ba630d1761094d5fab41ca5e210a229321d45b895e0211d3e204b3b7d3a6f288ecf53cfd93a7bafc695058090b09b574e5d33e5f69d68b1e281e54716c965ce268532965f9226ecd07fc4104ad16753a535d0742ea6d5cac127b22c5ff5fdaeb77959d58bd02b505a6ca874fb74ff3794d6d9bb7d8a6025e6dbe75ac5914112cb4d7900244ab2a923f32bb4329247f7b921e6a9a3fca951dd6e27faaf81824f305e9a10ba7d82e4f36dc0cc4ea3a047932efe42bd3ec2a5be4a7d2d360e31ff6f3874da3e6da3ed4502c981550032b60322fac33a35e78ac1eec168929b5d83e89caef087febb420c52a4bc2934de1bb4067af7db32b20d17b9e8065c03f85794d6bf394a759d8b4ab2ca9080af7b779cc00688e99f27347aeace1775cc8680cc8376681dc6e1bd94900d6d2a98a54c5439f644d02a76b2654a44bc1a48db2ecfdf5d18371f0c96e0e269fb1c40835a260ed93d6e192d249572a3542b8d383e40fe71d21c047095b6037586bb55d95759566862fc1c3c254ab988177479fce2c3937b990883b3e0cfdaf80b5d01ec0530b6b35e225206d2dfcfffe75b6954a6142e3347ba307fa587b3c1f36b414c6e8889c8395c1908d8ea42caadf29944e3e9d7bad0d562dd74240f40608a1d0d4f1cfaa91891375f2b69d23b0e194f083d5f969e9ad34b6391a8a72a28a80027cff8c79e7fa71120f60fb28ca1d906502848cb88b7133a77965c8056f4262a41946c415b615ae4775afa09c3060985dfd37611fe14ae717ba1fc36729782abb1065c4a3a16e801f9dacbc9964282ce85b50e2f495205a7e9ffdd644869457f34bb82810c42fc303465c50ed1b216b5661e88cb17ce715880d96496af396c4fd52c7363df24e4556556cf7731d2c8bae7c2cf7c9b5a7374ce92d370f6c4677b66c1489b72a7260f2e0ea7414c049ad0ec6c8f18dcefde656e81227757608faa7360e8d1d71e3cd5597369bcf344b72416d734d02dcd08a78c721112324eec65b231f023476902b2a3c29b58a1daaef5ee08dc4aa0a9e41576a6c30467308b8b5f0aa3c98d6d0488d86ff9c77d63159d2455e8b24cad372d0641b7aa1b0d7ac1234862d19ea038dab30f21b59b573b9300df107bf4a65430967fcd1402d82682afb32c2a7b2373f8a488b1ec56c1dc850369237ec205a2c42de1bef451480f376b3c918dbe45b0c60f5f5b7074000000",
  "txid": "24963fe78894cc42b5aa0597ac4d0f17546817f1c5e5ca65c9488bebbe83efb7",
  "hash": "fad61e6719df8d2de15126138159d3b889d297aefe5c457e96c9b7b6693034d0",
  "size": 5085,
  "vsize": 2278,
  "version": 1,
  "locktime": 116,
  "vin": [
    {
      "txid": "5a1ee767837bf73591f6c47a317c97596fad7556b204ac901c842e63e32f0f89",
      "vout": 0,
      "scriptSig": {
        "asm": "",
        "hex": ""
      },
      "txinwitness": [
        "f3acbf057672bd02b9e14c35ce440087ae401c83d60740a8c8affe271c8152a165b25db926947aa295d42663e4188931ba728c772da7246d4066d4da8aec3060911964d5449b2f22e054059bd4029a0bbe66f0c38a379e8ec8e36dfa28537b41c767287d94bae774c714f27507b7932f54ba9f6a6ebfec3ad545c3ea2a2a60d3ed24debdb9f7d70b0ab7971c3e8f8cd76c64887d4e44dc6c01214a5b1bc65c6322c308427c1db22de9222036da7400405879c5f66074180eff8e1a54a2d5851a1b401e16d2673d8a7d8689b496f68d9a831b1365810cde46c9995dc56bdd91735dab7ffe1a0f2760e4be239483483958400fc6f9a788cc7b3e19679ea10c15331d9d56a12bc9ff3bd8e15018e97402c841efbd332e93040337957702d18f854f4a9b9b3c899394cbc3e08ac5113e898f76f8a7ce1272b73b6e7282878c9be85a8b04aba3532c101eef764ef77b163a8845ec0feb74c6568f9c05b6c6d4f36e7e9a6eb364d7e9594ad65c90ae3c0af6b0ec143943814c1898dc9ef3d0e91dedc63b4aefb52986b2cbb163ec4fde7288f26779f10050b792cc7c336857256e5522e50091e3e97a3ade39b508c5647feadeec5cae9b8f6f7c8796174d82346a9573edb46d671347410d2d0ca0446d617a72b2b318287d6922dec2910544acc859ff6ea5dcc2b64d408ccac54966ae855675df85b9c1c8b000e54b3ed164547ca6ad1bf0576f054567b3034b0ee35970dfca7d1bec525304208e73fce2ccc5268e522230520b9721a6daaf53b3d1932c680947d418781c1b08e712f97df8386d0fd17d9ba0d341840b58cd3530d6d132b3acc7ff94d8ece99cfa6c47510a71afa4f8b396f6ed58f9784ffc1bb9e4ec87689348a9bb49e5a4803daa821ace92406b33c86bf9e4716b3ef0fafe9d25501ca77616dfbb96abc6846aac4b4600c9b1611553887b29664749258b64bb1ce306b83897096d5119ae5ec3d7d5169b50b03830a69e09d37d69d358b28f1156389e6b4d2a85a3c7cc9d023edde02567a608ad836b0d6129ece1e8180324827a25d7f3b6d0d5c300f75b05861ef0c043661cff37b77bd04d53910b95ffe4424790c2bb35256a6992b36c753c829029c5432acf0687d478d1fb0aeb7d1252c3118afc487f06fc3be23579a9fe5bd50012485fc1ad8dab21e5f16ae3f7c95b786d30b3d20b083b5a73725146751e10311fd41dd9f3eacd074696e582d7a7d13abcbe3a0b0a93bc5abfb22becb9418e95571ca2a972e081eae4102caafdb5daa935218d41f0807307de1b93ca875498bfe2af0fe3b8dd916d7e4baaff7b94093be48a9c65c14f8558306d7a9e1aa3de237b121c684ca9d097ef03fe6fc898a13d22a58e7104e3056f3e78484a6c489fe325ea2365159db27f7e147e74ecaacc409d749f38e8f566daf6dbc5dfbc6dd24bb3d59d5634037dd87b3de6b3a0a45fd228c7903e632c0cdfc4cd864b1c156d68171750730df829dc90e8c601d3a1caba09950a693ecad2dff5cf925b4b1211115f908d8d4a6c01908d9806bd8d31bcc25cc57320e6ea8e91b74219796474a8e20248f39f39ace01ee61bd059f837e76d6aa712d3227986fd43b3a2aa0126a8073f7b491ee96116cf3834abf51345f54099ae1bafbf6ec04edc9d48cabbedba25dc4904e7e7df25836172a0f6ca96534b3ea05eb3e9cfd1148e99092679c36abf9cefc2f1a0df1b3024e486200e876fa1cd506528f325891616c75edb52a48aa493d065b867e6953ca55d0d7fd303bd2ca7d4888d80098a5b5dc16c57bc046677c727255c2b79718e1c066f6d6ce3ebfb445ad80053a61fcc96ace05d77b7893a62a9542e9364f892ef796da7f539b9f4b722812036e80fb649b6343821929068abfc86c1def6bc38ac1041f389e38e68b3f7357eaf8a077e7aff342778a4aed791381ad2ffd512e123b0243e565d4aa9dab3c0a99e4bbccf3ca99ab49805ef6d1ba1d2152795279599285ff18da33b3ea489cabfbe5f3fe4797913d714c2f54c3a60790a7592597848d5764d518df4b7cf0c042c9ea37000bf495c0759873ec6fb3e9815a7114ef65d3d771f041a56e4d3cfcef819e030e1511d3dcec3ab2bb8b456fe17d0bfcafd27536af35e9f19db7c8c0520696b030e0d900656a9bf219a9a780b82909251863677ea1c9d1a96bb6f2f05fe55edc6a986980df8e8d73bf8ee4959cdddef4633b16c8166797d0109ae8ddda8d5703e29df46ff0e67dac411013761f24f8294ebbc2ee230d86b861c1e7929af0236b3f46715ada1aa617a5a285a76a8590c0986177583a939fb9ee7bad663e760c1ff47ae3b7b7943d702779d8011400f4b3a0d67fb6581b67f92d1faa90c084392df4a226369fc051f6ace6aec87e274a2078b3f2a1bdfd79f18520dada4ae746f59e7083fab19a1130bcd0b4127bd27e01fa297ce2d88ce58532d0cbe8a6c095504d6225ff4e727e59367983f187a8f55cb348a5323fb30a53ca20097eb735df5aa0738f17457adc0d1cdfce781f1d2ebd67c6b11fdccd518f263fd9d85b4b1e3701266606701c7fdfd449c88447f0e8485c623f1966a11ba0f0f1c8e9b22b025710cf51c3c1e606a237cd9ac29ca00ff97eb54f31fd5fae17958e818ea4f366dbb9001da2653f37821ca7c3200093cf0a3037b1529a52311f9bc510a4fb6daf1359e1bfadfd10d2f30853b418adb1b89c2754067a7c1394e5869e08d4fef9dabd2694cafec9df52cb8ebf400494fa889b10c064efd48763624b1d4009cce9839682cc2d0d48c7f728ff03da6646b5c461dab005437c994a7171060439202902880b61ec32500a876f0375698bac6d7437962256394530f25328b7b7eacf23ebde10ca1b91f72411580b3248b9d9e0a510e5fe6461a10db241ea7efccc8eeb999444e10cc6bd5772a50322863b00a99626b5462597faab97cabebf124c1b8abfe09b88bdad6c1d7388f7e981730dc96de516e89b731841bb2ccf72c1e4b7d978142cc601e03308540a71c0d1b48581c5300758485e9f558fb2845d45aa50b98197c10d807589732521ed50acee9f4a78a2facfc951d6dcbb1572b905b8c0f50737401d9c8f2c683f9fa962a910e486eae46b212b96eb4c9f800df27a43e0fc4dd06bcb1eacb6c87a950a070c63e728de5ec79688dfbf72470a5b3caa5b8bcaca1d8b16b47f1e7fb91cb451d1858117a8d8c7cae3a1aed181cbfb484594ba37dbe38960c5cf9b80d0ecc38a6308b03d17771fe5fa9779ef7a027a4626226a0617cd427050f6ef0f8c560ffbeada9b842172c3e7d9dabc8ee010e1014333b49597b8188a7a9aeb8cfd3e1e4eafc040a0c2c30355e6a6c73808594b9baced4dadde3e7e8e9ed1e212641636f87a6babfc1e1eaed00000000000000000000000000081d354301",
        "00fb166131b6b30d228182c53dfb9e1ea46a94f74be0235c6f7bf71f5c40f8eb056109ded1c4f8acd3f14d925619ed89a81c006983e63214c59d00074f9ea8112510acad9f335be78e6d4e1e3d2b55d22ffaf588aaf7d1be432dc08275571bccf2025e5e848ad5460daca0ef02f21f28c727a6e799358604fefb9ab7754b4e6480e0010604fde33929af0f9c3132d372b877f49203e6fb5b84ff3c788a601d02a411f9a4317bc1b2396b9872c010d29b171a5b4466dec924bb5ea832cc1ac95f88088f25794b8ea087e43b6bd5a070a72120261e66b34054af95ffe7402684f79516f80fdfd5b24112e3cd57e151898d76e37c36496bfd313c94615f69ebd332a5807722cdfba0a1421453f438076c718dd8355292a3e71324c2841db697870f0ca77d9d752d1aeb08f7866bfa48da631acb749c68615f6ae39c2e43f0705238a6992e522e0f7ff3adc7a60235b460a6690896ab79f8d35eb29c14d5d350f69e70d75c949127f62c50fb885f06e86909b55c9ff19c88717b6066dafe1167d5b74b0a3a8261b4db9fd8a2607ac666dd3fbb173523e774b81693027adfabd82c92933e17019b41f17443c8283fae0e77926c36279bf87d9156d3d81022247104b96b4e6b38dc33e24ba630d1761094d5fab41ca5e210a229321d45b895e0211d3e204b3b7d3a6f288ecf53cfd93a7bafc695058090b09b574e5d33e5f69d68b1e281e54716c965ce268532965f9226ecd07fc4104ad16753a535d0742ea6d5cac127b22c5ff5fdaeb77959d58bd02b505a6ca874fb74ff3794d6d9bb7d8a6025e6dbe75ac5914112cb4d7900244ab2a923f32bb4329247f7b921e6a9a3fca951dd6e27faaf81824f305e9a10ba7d82e4f36dc0cc4ea3a047932efe42bd3ec2a5be4a7d2d360e31ff6f3874da3e6da3ed4502c981550032b60322fac33a35e78ac1eec168929b5d83e89caef087febb420c52a4bc2934de1bb4067af7db32b20d17b9e8065c03f85794d6bf394a759d8b4ab2ca9080af7b779cc00688e99f27347aeace1775cc8680cc8376681dc6e1bd94900d6d2a98a54c5439f644d02a76b2654a44bc1a48db2ecfdf5d18371f0c96e0e269fb1c40835a260ed93d6e192d249572a3542b8d383e40fe71d21c047095b6037586bb55d95759566862fc1c3c254ab988177479fce2c3937b990883b3e0cfdaf80b5d01ec0530b6b35e225206d2dfcfffe75b6954a6142e3347ba307fa587b3c1f36b414c6e8889c8395c1908d8ea42caadf29944e3e9d7bad0d562dd74240f40608a1d0d4f1cfaa91891375f2b69d23b0e194f083d5f969e9ad34b6391a8a72a28a80027cff8c79e7fa71120f60fb28ca1d906502848cb88b7133a77965c8056f4262a41946c415b615ae4775afa09c3060985dfd37611fe14ae717ba1fc36729782abb1065c4a3a16e801f9dacbc9964282ce85b50e2f495205a7e9ffdd644869457f34bb82810c42fc303465c50ed1b216b5661e88cb17ce715880d96496af396c4fd52c7363df24e4556556cf7731d2c8bae7c2cf7c9b5a7374ce92d370f6c4677b66c1489b72a7260f2e0ea7414c049ad0ec6c8f18dcefde656e81227757608faa7360e8d1d71e3cd5597369bcf344b72416d734d02dcd08a78c721112324eec65b231f023476902b2a3c29b58a1daaef5ee08dc4aa0a9e41576a6c30467308b8b5f0aa3c98d6d0488d86ff9c77d63159d2455e8b24cad372d0641b7aa1b0d7ac1234862d19ea038dab30f21b59b573b9300df107bf4a65430967fcd1402d82682afb32c2a7b2373f8a488b1ec56c1dc850369237ec205a2c42de1bef451480f376b3c918dbe45b0c60f5f5b70"
      ],
      "sequence": 4294967294
    }
  ],
  "vout": [
    {
      "value": 499981.6958,
      "n": 0,
      "scriptPubKey": {
        "asm": "1 caffbb370fa7d04ca43897a28cf2b1249f256cb75064d825decaa61a24aa4f2f",
        "hex": "5120caffbb370fa7d04ca43897a28cf2b1249f256cb75064d825decaa61a24aa4f2f",
        "reqSigs": 1,
        "type": "witness_v1_scripthash",
        "addresses": [
          "3QJmnh"
        ]
      }
    },
    {
      "value": 1.0,
      "n": 1,
      "scriptPubKey": {
        "asm": "OP_RETURN 95b75b935ef867a05df7e5177c243bc9a264378520701240bc4e0dc22984c21c c165042a1802bdeeef90a4ecbe0731329be9c6a26acbadaf7bd813ee9e7520e0e145240a38229dcecfb084cc9e271112bbc9e6824aeb8d8f5bf833cebe5500c08125446a5842fdaeafd0e4acfe477172dba986e22a8bedef3b9853aede3560a0a105644a7862dd8e8ff0c48cde675152fb89a6c20aabcdcf1bb8738efe15408041e584aa98823d6e6f10246c3e87b1b21b694622ea4b2d2ffb58936e1ef5a06061c5a48ab8a21d4e4f30044c1ea791923b496602ca6b0d0fdb78b34e3ed5804001a5c4ead8c27d2e2f50642c7ec7f1f25b290662aa0b6d6fbb18d32e5eb5e0202185e4caf8e25d0e0f70440c5ee7d1d27b0926428a2b4d4f9b38f30e7e95c000c165042a1802bdeeef90a4ecbe0731329be9c6a26acbadaf7bd813ee9e7520e0e145240a38229dcecfb084cc9e271112bbc9e6824aeb8d8f5bf833cebe5500c08125446a5842fdaeafd0e4acfe477172dba986e22a8bedef3b9853aede3560a0a105644a7862dd8e8ff0c48cde675152fb89a6c20aabcdcf1bb8738efe15408041e584aa98823d6e6f10246c3e87b1b21b694622ea4b2d2ffb58936e1ef5a06061c5a48ab8a21d4e4f30044c1ea791923b496602ca6b0d0fdb78b34e3ed5804001a5c4ead8c27d2e2f50642c7ec7f1f25b290662aa0b6d6fbb18d32e5eb5e0202185e4caf8e25d0e0f70440c5ee7d1d27b0926428a2b4d4f9b38f30e7e95c000c165042a1802bdeeef90a4ecbe0731329be9c6a26acbadaf7bd813ee9e7520e0e145240a38229dcecfb084cc9e271112bbc9e6824aeb8d8f5bf833cebe5500c08125446a5842fdaeafd0e4acfe477172dba986e22a8bedef3b9853aede3560a0a105644a7862dd8e8ff0c48cde675152fb89a6c20aabcdcf1bb8738efe15408041e584aa98823d6e6f10246c3e87b1b21b694622ea4b2d2ffb58936e1ef5a06061c5a48ab8a21d4e4f30044c1ea791923b496602ca6b0d0fdb78b34e3ed5804001a5c4ead8c27d2e2f50642c7ec7f1f25b290662aa0b6d6fbb18d32e5eb5e0202185e4caf8e25d0e0f70440c5ee7d1d27b0926428a2b4d4f9b38f30e7e95c000c165042a1802bdeeef90a4ecbe0731329be9c6a26acbadaf7bd813ee9e7520e0e145240a38229dcecfb084cc9e271112bbc9e6824aeb8d8f5bf833cebe5500c08125446a5842fdaeafd0e4acfe477172dba986e22a8bedef3b9853aede3560a0a105644a7862dd8e8ff0c48cde675152fb89a6c20aabcdcf1bb8738efe15408041e584aa98823d6e6f10246c3e87b1b21b694622ea4b2d2ffb58936e1ef5a06061c5a48ab8a21d4e4f30044c1ea791923b496602ca6b0d0fdb78b34e3ed5804001a5c4ead8c27d2e2f50642c7ec7f1f25b290662aa0b6d6fbb18d32e5eb5e0202185e4caf8e25d0e0f70440c5ee7d1d27b0926428a2b4d4f9b38f30e7e95c000c165042a1802bdeeef90a4ecbe0731329be9c6a26acbadaf7bd813ee9e7520e0e145240a38229dcecfb084cc9e271112bbc9e6824aeb8d8f5bf833cebe5500c08125446a5842fdaeafd0e4acfe477172dba986e22a8bedef3b9853aede3560a0a105644a7862dd8e8ff0c48cde675152fb89a6c20aabcdcf1bb8738efe15408041e584aa98823d6e6f10246c3e87b1b21e7448723f1d86fd42247b5f9ffcfeeaa90628dcbb56a64ca5f9de2299d95617",
        "hex": "6a2095b75b935ef867a05df7e5177c243bc9a264378520701240bc4e0dc22984c21c4db004c165042a1802bdeeef90a4ecbe0731329be9c6a26acbadaf7bd813ee9e7520e0e145240a38229dcecfb084cc9e271112bbc9e6824aeb8d8f5bf833cebe5500c08125446a5842fdaeafd0e4acfe477172dba986e22a8bedef3b9853aede3560a0a105644a7862dd8e8ff0c48cde675152fb89a6c20aabcdcf1bb8738efe15408041e584aa98823d6e6f10246c3e87b1b21b694622ea4b2d2ffb58936e1ef5a06061c5a48ab8a21d4e4f30044c1ea791923b496602ca6b0d0fdb78b34e3ed5804001a5c4ead8c27d2e2f50642c7ec7f1f25b290662aa0b6d6fbb18d32e5eb5e0202185e4caf8e25d0e0f70440c5ee7d1d27b0926428a2b4d4f9b38f30e7e95c000c165042a1802bdeeef90a4ecbe0731329be9c6a26acbadaf7bd813ee9e7520e0e145240a38229dcecfb084cc9e271112bbc9e6824aeb8d8f5bf833cebe5500c08125446a5842fdaeafd0e4acfe477172dba986e22a8bedef3b9853aede3560a0a105644a7862dd8e8ff0c48cde675152fb89a6c20aabcdcf1bb8738efe15408041e584aa98823d6e6f10246c3e87b1b21b694622ea4b2d2ffb58936e1ef5a06061c5a48ab8a21d4e4f30044c1ea791923b496602ca6b0d0fdb78b34e3ed5804001a5c4ead8c27d2e2f50642c7ec7f1f25b290662aa0b6d6fbb18d32e5eb5e0202185e4caf8e25d0e0f70440c5ee7d1d27b0926428a2b4d4f9b38f30e7e95c000c165042a1802bdeeef90a4ecbe0731329be9c6a26acbadaf7bd813ee9e7520e0e145240a38229dcecfb084cc9e271112bbc9e6824aeb8d8f5bf833cebe5500c08125446a5842fdaeafd0e4acfe477172dba986e22a8bedef3b9853aede3560a0a105644a7862dd8e8ff0c48cde675152fb89a6c20aabcdcf1bb8738efe15408041e584aa98823d6e6f10246c3e87b1b21b694622ea4b2d2ffb58936e1ef5a06061c5a48ab8a21d4e4f30044c1ea791923b496602ca6b0d0fdb78b34e3ed5804001a5c4ead8c27d2e2f50642c7ec7f1f25b290662aa0b6d6fbb18d32e5eb5e0202185e4caf8e25d0e0f70440c5ee7d1d27b0926428a2b4d4f9b38f30e7e95c000c165042a1802bdeeef90a4ecbe0731329be9c6a26acbadaf7bd813ee9e7520e0e145240a38229dcecfb084cc9e271112bbc9e6824aeb8d8f5bf833cebe5500c08125446a5842fdaeafd0e4acfe477172dba986e22a8bedef3b9853aede3560a0a105644a7862dd8e8ff0c48cde675152fb89a6c20aabcdcf1bb8738efe15408041e584aa98823d6e6f10246c3e87b1b21b694622ea4b2d2ffb58936e1ef5a06061c5a48ab8a21d4e4f30044c1ea791923b496602ca6b0d0fdb78b34e3ed5804001a5c4ead8c27d2e2f50642c7ec7f1f25b290662aa0b6d6fbb18d32e5eb5e0202185e4caf8e25d0e0f70440c5ee7d1d27b0926428a2b4d4f9b38f30e7e95c000c165042a1802bdeeef90a4ecbe0731329be9c6a26acbadaf7bd813ee9e7520e0e145240a38229dcecfb084cc9e271112bbc9e6824aeb8d8f5bf833cebe5500c08125446a5842fdaeafd0e4acfe477172dba986e22a8bedef3b9853aede3560a0a105644a7862dd8e8ff0c48cde675152fb89a6c20aabcdcf1bb8738efe15408041e584aa98823d6e6f10246c3e87b1b21e7448723f1d86fd42247b5f9ffcfeeaa90628dcbb56a64ca5f9de2299d95617",
        "type": "nulldata"
      }
    }
  ],
  "blockhash": "73359bfd0a4582986ffd1e7664419d7a0ef7b090643ab62685454f7a097cd719",
  "confirmations": 1,
  "time": 1764179247,
  "blocktime": 1764179247
}