{
  "hex": "01000000000101e8cbdd602b95b96332c0a7c1317eee0e60c3aadcf511bf0b30b96e69b4da49fc0000000000feffffff0200e1f50500000000fdd5046a207795b08b233c43f6a6aafdde70ec13a752059455bd88b735559de87fb1caa13b4db00463f6dc2bfdf5c2f6502fcbe4ba6424848daf2fbee66b024c8603134630fdff6843d6fc0bddd5e2d6700febc49a4404a4ad8f0f9ec64b226ca623336610dddf4823b69c6bbdb582b6106f8ba4fa2464c4cdef6ffea62b420cc643530670bdbf280396bc4b9d95a296304fab84da0444e4edcf4fde860b622ce6637326509d9f08e3765cab7d754276d0af4b643ae4a4040d2faf3e66eb82cc068393c6b07d7fe8c3567c8b5d556256f08f6b441ac484242d0f8f1e46cba2ec26a3b3e6905d5fc8a3361ceb3d35023690ef0b247aa4e4444d6fef7e26abc28c46c3d386f03d3fa883163ccb1d152216b0cf2b045a84c4646d4fcf5e068be2ac66e3f3a6d01d1f8863f6dc2bfdf5c2f6502fcbe4ba6424848daf2fbee66b024c8603134630fdff6843d6fc0bddd5e2d6700febc49a4404a4ad8f0f9ec64b226ca623336610dddf4823b69c6bbdb582b6106f8ba4fa2464c4cdef6ffea62b420cc643530670bdbf280396bc4b9d95a296304fab84da0444e4edcf4fde860b622ce6637326509d9f08e3765cab7d754276d0af4b643ae4a4040d2faf3e66eb82cc068393c6b07d7fe8c3567c8b5d556256f08f6b441ac484242d0f8f1e46cba2ec26a3b3e6905d5fc8a3361ceb3d35023690ef0b247aa4e4444d6fef7e26abc28c46c3d386f03d3fa883163ccb1d152216b0cf2b045a84c4646d4fcf5e068be2ac66e3f3a6d01d1f8863f6dc2bfdf5c2f6502fcbe4ba6424848daf2fbee66b024c8603134630fdff6843d6fc0bddd5e2d6700febc49a4404a4ad8f0f9ec64b226ca623336610dddf4823b69c6bbdb582b6106f8ba4fa2464c4cdef6ffea62b420cc643530670bdbf280396bc4b9d95a296304fab84da0444e4edcf4fde860b622ce6637326509d9f08e3765cab7d754276d0af4b643ae4a4040d2faf3e66eb82cc068393c6b07d7fe8c3567c8b5d556256f08f6b441ac484242d0f8f1e46cba2ec26a3b3e6905d5fc8a3361ceb3d35023690ef0b247aa4e4444d6fef7e26abc28c46c3d386f03d3fa883163ccb1d152216b0cf2b045a84c4646d4fcf5e068be2ac66e3f3a6d01d1f8863f6dc2bfdf5c2f6502fcbe4ba6424848daf2fbee66b024c8603134630fdff6843d6fc0bddd5e2d6700febc49a4404a4ad8f0f9ec64b226ca623336610dddf4823b69c6bbdb582b6106f8ba4fa2464c4cdef6ffea62b420cc643530670bdbf280396bc4b9d95a296304fab84da0444e4edcf4fde860b622ce6637326509d9f08e3765cab7d754276d0af4b643ae4a4040d2faf3e66eb82cc068393c6b07d7fe8c3567c8b5d556256f08f6b441ac484242d0f8f1e46cba2ec26a3b3e6905d5fc8a3361ceb3d35023690ef0b247aa4e4444d6fef7e26abc28c46c3d386f03d3fa883163ccb1d152216b0cf2b045a84c4646d4fcf5e068be2ac66e3f3a6d01d1f8863f6dc2bfdf5c2f6502fcbe4ba6424848daf2fbee66b024c8603134630fdff6843d6fc0bddd5e2d6700febc49a4404a4ad8f0f9ec64b226ca623336610dddf4823b69c6bbdb582b6106f8ba4fa2464c4cdef6ffea62b420cc643530670bdbf280396bc4b9d95a296304fab84da0444e4edcf4fde860b622ce6637326509d9f08e3765cab7d754276d0af4b643ae4a404c4e1d2e73f79298855165df9abd5683a1ff95ae163426f13fc729433da49d0363079f9a7782d0000225120af56ed67d9878a5fe22d8238a0e35168edff488abff2e1bcb0a3def4bc858a2502fd7509d9bc4a97e0c9784e0fa63aa1cfd40d91968584c64f9930283f52dc2a83c2c587b848620a9b8bb222ef4872184c078eb91322848ce3b2b809e06d1a831b13e6be0419075c43ff99de6f951e8e507693915df81079925f568349f5a9a9a4bd94c0e4be4bd144be24e6c8553d6141530a972d6293c45029d3cd408de35de70ba81a26f339992ff5845dff8c96cda919fb1e2075dc9a09670ca50620518655cda118326ad4e7c54c8bb20896f0101a4e5267b80203aaf0a624fc0e8720b79f111509091b39df95a56bb1da7c73a4bac485113fa9813886e202e70e1c19b928815f1122faf413d61007b29f8fdf0cfebb44c0487fff79cc4cef4cb8e859da7af3e7e0a3c8b7c9c7cf7dec5ca3395510cf05665ff5c28affbd3191d4dc1eb4b0d90483535a711dd7655dd7e0af914dd9ed22fbf38442d5f345563475050dadb40e39bf831d43589e396accf23eba6f775c90aa75db82e9db8758fe07c6f728b290587cd27b18280d16422733460d9dca2d5859ec08576e4b71891caeeb79c291da6136f40b7cad6130c46640cbc05334b1ff0ee4dd6d67424ac2504fac667b665d0b0db8131893193d8571ff777344501dda95218673df468066271694ed730cec3a70c4c3e4331759a1b3d7134162261bc68e5d140cadd642c56d24d704c55048a826234c8103e332637e57ea74650025cfd0b83859fbd107ace7a5d1d04389429f18977db55f67f51ab0d3e70f6f8dd961069fb3b789c50dae64a5509071d5e7f79dc2fe8cda72f09c6d08e596d70204177d465faf4e634af2c8a529d4b39bb69e04e2182c351d83a85a9a877886d279e03ad4e4968976373667b7e050e64af0c52e471632bd5b0e786cc37ea44c565ba4c0967e8445be43cb7d1aec9f1a2dcb5935627c6d7b5ec0efb9ab1fbb6ddaf9b0a86c28023bde7b431df7d6fab12f1c9529cbff162f2be2ee7fb5b275648ee36b6c8296e68a160ef506d8f5150a693e4a43b3c28764188c2a54ea37888a1b3137169d193736c935579662291b6bd541f0cdfb23a823849fdfbc536d356a2b36d7cb6ba722c97630d299f7d56bf80995da3d2ef2608d234b60478e6dc23f8a67cf4b147f496ec5a73872040face470df05b6b5b11bd0949da326381b5b4f55f404379c43561037869d6420c9221e5ab8d70ebd9da97f7f1bf58dfbd9da6a7c2fb8e833e821f677bc9a35b7d3a5215f6a19775eb84778f0b9d4d1e7dc4a6b3af5bcab3d3b06b55bff20cc936a556b927ee84e604caf90845931358b14d75227e80f85396f159ef8c569d948a3d6630d43b4bc7cb541a79c926128c07b780cd2cadb4f0532c26a87fcac0a26a3aa42a0381ef64d49a48387cc92523b78b7b361d3bbd0b3b1a32a3e1c5140ffa1d5a2cf5d413a64ed166098c54d20f69c793e6fd102796e31fb7b3121fa13cd6a4324f162c007e399a20d6d4fc1803238006ca4673ba90626288342ca3d8b42a8c22743c39f0e92553bb8291bce766bd6af38c063a1e394fe2dc6b7f255753e72601b2c08c5bdc8f09fcd2802308ca404a09872f654881e36454c9753d061f23fb5ae450175accea10180f42bf62ea3569cacdab732c8a6a04208aaf5071f75a742d2813a00e3c9aeb224aa10d1612a035fb1cf7e9a56260c9b138f54b1cab37fbb5e18ea9cefe7cb1c43031fc4ec5ddb5a31bfd6265f09c6d8404bd7852ff62ca0fb93e0c36496fa463c9d11f094b30836369fbfdbf19d4e691f47c522008555f61ebdf224cb61b570619f708008f9387159030bec30da6cd211c82aed4c6cf83c23837fc673102c46af0f15aeebdb30f0f92ed32988d130f26eab206b7b1f95c4731b27b8262c8733430924d1b88b32dbfeda15bcd2173244d64f6cfbeccf2c330a49f0d357d2983c441aead84bbae51436881c799245ab628a70b2305d1f30ac9e9325439e39c2187aa742a8019450cd631e1bd9b2d91895200a06a725f5a573b4ad4c4d3dad49aec362892ecf802af745752fcbeb8515bc08c6b7f098b2829bd1da7e2b64140f2218f67ada7661843caed91d7f487d0d8945632e272adfd536ee25ad76cd0ec812193bf81cf2c363f83ee7c7a094e2705e9225055f8003c149a3c0fac9f63d523d48ee16dc5cbb13fc5bf08335203c1dd8d99610f20bc91fcc6d8c775ba6a8525a92b9d8cb91e62f026196dc3cd790cdcda50a6fbe4bd909ad5004dff9d62bc83caedb9fb333d3c86f3a501b5ce7ae37183223085d035ae0cf90af342cbaf7d7a6608d6db013c3b8f5755b96a23c81faab8bc94b23a6ab9485c9189a29ce5c5359da5c8980913ce437fa39c3f3694dbc5389b58b427026aa7cf458eb15893844d824205fe16c7ec9a17e73ddf463d2468a9bffa212c4902e2cd247c8c07bd7495a6dfd6b208dc7fe459bd45bb6687d77c88aca4464b0fde7332b264f32cbf0a4bce72e8e6ee9dd90ce6a641345ced17618870a1e2e58e40703eae9d7ca2e1662b1b9997e680e19b68c50ffdc185bdd92ab583ed5328d0f0416dac92e63e8174bc69747f45e5bbfa7b50ea166e76d2f8c68c23aaee55cf8a203bec71126faaf77c02e9f2f258db70bf0b931a3c65b6a56d7f9d7ca9f14a3f12426646d1eded1a0d2e1b634a4f982ad2b07712eaec6ed755b5b1a664652b4494381fc43d09c7ed464e712384256d4fb6dfd07e0ff696ca2203b6166443bd3c3020cb8b07b20f7e60bd5fcb437d72b46dab4909591ad00afc57890ce12899ae911cf2a7a29e9de031828aded2f42c3487cf2b73b69fafe9ffa7c47b8e206421e0b8abf7ced3b34495ce47479bd184fbc635e48b7e3fc201c775f01f56ed60af62cd1f76f5962a1874cd4cd22fb72af59f655cb6b07d31ebe9075b2220fd55ce9d6e5f4502662a90a0e4207b70c79959f436457a51ae42271ac34b308efc53d4777887577833cd441ef740d1eb0365f4c3bbc88818f1f50071745e0b049b125c5af1d89d02bba7b2c9dfed0011f2b2f99dbd8c0732516bcd1d0905a38e5b1c3e6e6a61298cdaa603c80f7682160c7a7df5cd2fcdc40076a0e2bafa2aec030716b735bee0874211377691b19c82f1d9efd2ff37c4a5cbf6ac067ea7ce8afd5c3149aa52d611aba55a529dba37e889d80e088842c0197182327de082187eb9b10accd4c4cb56737b7834ca6231a0339d05f3e10261bac8b6c9c6b582fdf6a10cb33df4c1f9ef155d5279c782b0324ff0c8d4166342a6da958005d6fb2fc28d976cfec484334117290a9dacaf25746aacf8a328db0a3f64a07c09fe2d21cedb0f82f94543b31e8110e12161c3a7f838a989ea8b0b4bbc7d2fe072c323d4c53656b92a2a8abb1b3e2ebee0b0d1026333f5a5f62839db3c1eb102e31344a5f6a88a7abbbdddef50000000000000000000000000000000000001122303e01fd210500a905f637cbb3957bd8027d92b2cba0f504ba03ebbda9efd7b6a0d4df2193a6f55b6e34eeacac927254ddd251864353ab975152064c1d8b15ffe8ddaa30c338bb0b482fdd268fedd2a1ed3af82b8656e98c8d07ec8dca66dc5b18b45a819b38b09e3069b356fbd444011e57e87e7eaa220dafbb72903a0f77d09814c5245de9d1de5c253e22c40c9b55927fdb4bd05eb5b543810e56d4fdae44da6df5acf5b2c0da0f5b9e80101b6319fdb5b1afe88c59fd76f27c073121614a12a423cd2dbba0ed076f0eedfecdd28db4087ef73cabdf4ae30c6b429a44aa4afc34cdb002ba7b17f4fdb8bd203098c206686f529f3a45ac62b9ba3087a707a9855e492c67a55071fb30e1f6ab1f2e44240a39a8e0fc9f8399a265241667df7030dc539453d17cf6ad89e37f5e3dc0e5514ab0d7ef97f57ad8af284dc3c7edeee2f8bc3cb93fda61a36f73a5476b191100c47ee60206f12c1b7d867b7014720656509295beb67b4560d40bb78362bd0c738cbe685a69c9fbf8b5cac4d7515318bfb873ac797fda2101547c0e7c2f741f64b2635d407f64517791cac6b6796cfa5a688357cc8d15c5354c7fbc45c4db72313746a5c309e6ba3e6060ac8db9b062ba6e96b6181028c2f2f4b31e5eaac718d7c029cde490e2e61d914c69a42e337916fdfd8e302ee242f80f9cc053308ad6594dad4579be6c0cb2f7fc557e14a958dfdc1723256e48a4a048cfdce41d456c2677ef386f77023344596924650402fdde896ad6ec61811c4934bc2423a033769b1c0ddeb96810789d15cac3d492935b8de00cce70379cdb2065b2ef9a018b1f4f6377ebfb35944e43ee6fef0ac41f86ec10f9ce0532df9cd65fdc873e7a773f95ae0159f4a9056a5302d0ec84bdcbb4b7375933e310d2bd4eb8d00348b80b5108275f0e4cf22a67bebfd36f95a67ff3a8bf4e47fb6a3c2fc351a603ba469908507b7cace6d0c522eb66ad1e269b542a87e921ea128ec61d5ddef822d614961fec159dfc41679219c36531cbd68022c959f91d4c6e14dbf8fa6bbb069345a8ef872504dd05432bf2d3f84250e26d2d513f62fdecf2a052b48dda83c316dec3cc00fadbdb15c2e17801f2243db257ed880e5b73d11da99b8ff104addbad89c34d70a934593f32a76d29ad1c550b6e4e9771552c5cac834d8330f2fdc913a98f5628c39445100b92e36a54a24bae318511da090886d91a1a962ddb0b3e3eb692b8dff6ad3b318a949fa4f47c8c0a7d18398e2d8bbb544d79072c06290b1819885844a47cb9dfe5323ccb4c857bfd8a50129057fdb10c649724844851d29b96a3c547983830b36197d7c155ed7597e61bf9c81230542b48af6b3b91bef82c13167586fbd0d360f9a6a2388ddc436bba03c6774bfb96a5c751c2851a63d0558f28227814da99fe9e248074a8b28e097092a79deccc49391b92efa4502158b537ae4f199faafd43a184ad615154513385d5dee1703b1cb34bfff0ad9a592685423cae05991d8bb1e1f12a4cec8f5a1d5e993cfd7d99133e085ccd24a64c5945c8b86b10b0a2d1bd802aaddc7fe80df37464c3508726b96399259e1f07f6abf5ce831bd7d8db449e8a7b1e439c62ed25fd02266779c8c533558b56cba104ffec467a79ef2b1c676a2d52166e2f22e1d0e4ff501aeec1daad0abba8a34fef8bbd7db19b64ba67dfffbb0dec91b6d535226a835cf148118dc6b0ea4817f259417ce26866e8e32e9c1336b079d25eddf5ef5f6ef273e3d7556750648be3cc022e726e03e82ef706d4ca217fa95c3dba4ea558beb9ba4eefbaf822f0c34c9eb2bc92ad1941996903d2c30cad286868dd6b6470b5a8070eef019f0a3187000000",
  "txid": "2637d88f6ddc70769db7f53ec7541b3dee96d16faf2c4c0a94ee1b0e3be1c017",
  "hash": "f9348c3650ce63f34fe399a823ab44bc9f60c8dce258dd36d083e16c5d68d5d1",
  "size": 5085,
  "vsize": 2278,
  "version": 1,
  "locktime": 135,
  "vin": [
    {
      "txid": "fc49dab4696eb9300bbf11f5dcaac3600eee7e31c1a7c03263b9952b60ddcbe8",
      "vout": 0,
      "scriptSig": {
        "asm": "",
        "hex": ""
      },
      "txinwitness": [
        "d9bc4a97e0c9784e0fa63aa1cfd40d91968584c64f9930283f52dc2a83c2c587b848620a9b8bb222ef4872184c078eb91322848ce3b2b809e06d1a831b13e6be0419075c43ff99de6f951e8e507693915df81079925f568349f5a9a9a4bd94c0e4be4bd144be24e6c8553d6141530a972d6293c45029d3cd408de35de70ba81a26f339992ff5845dff8c96cda919fb1e2075dc9a09670ca50620518655cda118326ad4e7c54c8bb20896f0101a4e5267b80203aaf0a624fc0e8720b79f111509091b39df95a56bb1da7c73a4bac485113fa9813886e202e70e1c19b928815f1122faf413d61007b29f8fdf0cfebb44c0487fff79cc4cef4cb8e859da7af3e7e0a3c8b7c9c7cf7dec5ca3395510cf05665ff5c28affbd3191d4dc1eb4b0d90483535a711dd7655dd7e0af914dd9ed22fbf38442d5f345563475050dadb40e39bf831d43589e396accf23eba6f775c90aa75db82e9db8758fe07c6f728b290587cd27b18280d16422733460d9dca2d5859ec08576e4b71891caeeb79c291da6136f40b7cad6130c46640cbc05334b1ff0ee4dd6d67424ac2504fac667b665d0b0db8131893193d8571ff777344501dda95218673df468066271694ed730cec3a70c4c3e4331759a1b3d7134162261bc68e5d140cadd642c56d24d704c55048a826234c8103e332637e57ea74650025cfd0b83859fbd107ace7a5d1d04389429f18977db55f67f51ab0d3e70f6f8dd961069fb3b789c50dae64a5509071d5e7f79dc2fe8cda72f09c6d08e596d70204177d465faf4e634af2c8a529d4b39bb69e04e2182c351d83a85a9a877886d279e03ad4e4968976373667b7e050e64af0c52e471632bd5b0e786cc37ea44c565ba4c0967e8445be43cb7d1aec9f1a2dcb5935627c6d7b5ec0efb9ab1fbb6ddaf9b0a86c28023bde7b431df7d6fab12f1c9529cbff162f2be2ee7fb5b275648ee36b6c8296e68a160ef506d8f5150a693e4a43b3c28764188c2a54ea37888a1b3137169d193736c935579662291b6bd541f0cdfb23a823849fdfbc536d356a2b36d7cb6ba722c97630d299f7d56bf80995da3d2ef2608d234b60478e6dc23f8a67cf4b147f496ec5a73872040face470df05b6b5b11bd0949da326381b5b4f55f404379c43561037869d6420c9221e5ab8d70ebd9da97f7f1bf58dfbd9da6a7c2fb8e833e821f677bc9a35b7d3a5215f6a19775eb84778f0b9d4d1e7dc4a6b3af5bcab3d3b06b55bff20cc936a556b927ee84e604caf90845931358b14d75227e80f85396f159ef8c569d948a3d6630d43b4bc7cb541a79c926128c07b780cd2cadb4f0532c26a87fcac0a26a3aa42a0381ef64d49a48387cc92523b78b7b361d3bbd0b3b1a32a3e1c5140ffa1d5a2cf5d413a64ed166098c54d20f69c793e6fd102796e31fb7b3121fa13cd6a4324f162c007e399a20d6d4fc1803238006ca4673ba90626288342ca3d8b42a8c22743c39f0e92553bb8291bce766bd6af38c063a1e394fe2dc6b7f255753e72601b2c08c5bdc8f09fcd2802308ca404a09872f654881e36454c9753d061f23fb5ae450175accea10180f42bf62ea3569cacdab732c8a6a04208aaf5071f75a742d2813a00e3c9aeb224aa10d1612a035fb1cf7e9a56260c9b138f54b1cab37fbb5e18ea9cefe7cb1c43031fc4ec5ddb5a31bfd6265f09c6d8404bd7852ff62ca0fb93e0c36496fa463c9d11f094b30836369fbfdbf19d4e691f47c522008555f61ebdf224cb61b570619f708008f9387159030bec30da6cd211c82aed4c6cf83c23837fc673102c46af0f15aeebdb30f0f92ed32988d130f26eab206b7b1f95c4731b27b8262c8733430924d1b88b32dbfeda15bcd2173244d64f6cfbeccf2c330a49f0d357d2983c441aead84bbae51436881c799245ab628a70b2305d1f30ac9e9325439e39c2187aa742a8019450cd631e1bd9b2d91895200a06a725f5a573b4ad4c4d3dad49aec362892ecf802af745752fcbeb8515bc08c6b7f098b2829bd1da7e2b64140f2218f67ada7661843caed91d7f487d0d8945632e272adfd536ee25ad76cd0ec812193bf81cf2c363f83ee7c7a094e2705e9225055f8003c149a3c0fac9f63d523d48ee16dc5cbb13fc5bf08335203c1dd8d99610f20bc91fcc6d8c775ba6a8525a92b9d8cb91e62f026196dc3cd790cdcda50a6fbe4bd909ad5004dff9d62bc83caedb9fb333d3c86f3a501b5ce7ae37183223085d035ae0cf90af342cbaf7d7a6608d6db013c3b8f5755b96a23c81faab8bc94b23a6ab9485c9189a29ce5c5359da5c8980913ce437fa39c3f3694dbc5389b58b427026aa7cf458eb15893844d824205fe16c7ec9a17e73ddf463d2468a9bffa212c4902e2cd247c8c07bd7495a6dfd6b208dc7fe459bd45bb6687d77c88aca4464b0fde7332b264f32cbf0a4bce72e8e6ee9dd90ce6a641345ced17618870a1e2e58e40703eae9d7ca2e1662b1b9997e680e19b68c50ffdc185bdd92ab583ed5328d0f0416dac92e63e8174bc69747f45e5bbfa7b50ea166e76d2f8c68c23aaee55cf8a203bec71126faaf77c02e9f2f258db70bf0b931a3c65b6a56d7f9d7ca9f14a3f12426646d1eded1a0d2e1b634a4f982ad2b07712eaec6ed755b5b1a664652b4494381fc43d09c7ed464e712384256d4fb6dfd07e0ff696ca2203b6166443bd3c3020cb8b07b20f7e60bd5fcb437d72b46dab4909591ad00afc57890ce12899ae911cf2a7a29e9de031828aded2f42c3487cf2b73b69fafe9ffa7c47b8e206421e0b8abf7ced3b34495ce47479bd184fbc635e48b7e3fc201c775f01f56ed60af62cd1f76f5962a1874cd4cd22fb72af59f655cb6b07d31ebe9075b2220fd55ce9d6e5f4502662a90a0e4207b70c79959f436457a51ae42271ac34b308efc53d4777887577833cd441ef740d1eb0365f4c3bbc88818f1f50071745e0b049b125c5af1d89d02bba7b2c9dfed0011f2b2f99dbd8c0732516bcd1d0905a38e5b1c3e6e6a61298cdaa603c80f7682160c7a7df5cd2fcdc40076a0e2bafa2aec030716b735bee0874211377691b19c82f1d9efd2ff37c4a5cbf6ac067ea7ce8afd5c3149aa52d611aba55a529dba37e889d80e088842c0197182327de082187eb9b10accd4c4cb56737b7834ca6231a0339d05f3e10261bac8b6c9c6b582fdf6a10cb33df4c1f9ef155d5279c782b0324ff0c8d4166342a6da958005d6fb2fc28d976cfec484334117290a9dacaf25746aacf8a328db0a3f64a07c09fe2d21cedb0f82f94543b31e8110e12161c3a7f838a989ea8b0b4bbc7d2fe072c323d4c53656b92a2a8abb1b3e2ebee0b0d1026333f5a5f62839db3c1eb102e31344a5f6a88a7abbbdddef50000000000000000000000000000000000001122303e01",
        "00a905f637cbb3957bd8027d92b2cba0f504ba03ebbda9efd7b6a0d4df2193a6f55b6e34eeacac927254ddd251864353ab975152064c1d8b15ffe8ddaa30c338bb0b482fdd268fedd2a1ed3af82b8656e98c8d07ec8dca66dc5b18b45a819b38b09e3069b356fbd444011e57e87e7eaa220dafbb72903a0f77d09814c5245de9d1de5c253e22c40c9b55927fdb4bd05eb5b543810e56d4fdae44da6df5acf5b2c0da0f5b9e80101b6319fdb5b1afe88c59fd76f27c073121614a12a423cd2dbba0ed076f0eedfecdd28db4087ef73cabdf4ae30c6b429a44aa4afc34cdb002ba7b17f4fdb8bd203098c206686f529f3a45ac62b9ba3087a707a9855e492c67a55071fb30e1f6ab1f2e44240a39a8e0fc9f8399a265241667df7030dc539453d17cf6ad89e37f5e3dc0e5514ab0d7ef97f57ad8af284dc3c7edeee2f8bc3cb93fda61a36f73a5476b191100c47ee60206f12c1b7d867b7014720656509295beb67b4560d40bb78362bd0c738cbe685a69c9fbf8b5cac4d7515318bfb873ac797fda2101547c0e7c2f741f64b2635d407f64517791cac6b6796cfa5a688357cc8d15c5354c7fbc45c4db72313746a5c309e6ba3e6060ac8db9b062ba6e96b6181028c2f2f4b31e5eaac718d7c029cde490e2e61d914c69a42e337916fdfd8e302ee242f80f9cc053308ad6594dad4579be6c0cb2f7fc557e14a958dfdc1723256e48a4a048cfdce41d456c2677ef386f77023344596924650402fdde896ad6ec61811c4934bc2423a033769b1c0ddeb96810789d15cac3d492935b8de00cce70379cdb2065b2ef9a018b1f4f6377ebfb35944e43ee6fef0ac41f86ec10f9ce0532df9cd65fdc873e7a773f95ae0159f4a9056a5302d0ec84bdcbb4b7375933e310d2bd4eb8d00348b80b5108275f0e4cf22a67bebfd36f95a67ff3a8bf4e47fb6a3c2fc351a603ba469908507b7cace6d0c522eb66ad1e269b542a87e921ea128ec61d5ddef822d614961fec159dfc41679219c36531cbd68022c959f91d4c6e14dbf8fa6bbb069345a8ef872504dd05432bf2d3f84250e26d2d513f62fdecf2a052b48dda83c316dec3cc00fadbdb15c2e17801f2243db257ed880e5b73d11da99b8ff104addbad89c34d70a934593f32a76d29ad1c550b6e4e9771552c5cac834d8330f2fdc913a98f5628c39445100b92e36a54a24bae318511da090886d91a1a962ddb0b3e3eb692b8dff6ad3b318a949fa4f47c8c0a7d18398e2d8bbb544d79072c06290b1819885844a47cb9dfe5323ccb4c857bfd8a50129057fdb10c649724844851d29b96a3c547983830b36197d7c155ed7597e61bf9c81230542b48af6b3b91bef82c13167586fbd0d360f9a6a2388ddc436bba03c6774bfb96a5c751c2851a63d0558f28227814da99fe9e248074a8b28e097092a79deccc49391b92efa4502158b537ae4f199faafd43a184ad615154513385d5dee1703b1cb34bfff0ad9a592685423cae05991d8bb1e1f12a4cec8f5a1d5e993cfd7d99133e085ccd24a64c5945c8b86b10b0a2d1bd802aaddc7fe80df37464c3508726b96399259e1f07f6abf5ce831bd7d8db449e8a7b1e439c62ed25fd02266779c8c533558b56cba104ffec467a79ef2b1c676a2d52166e2f22e1d0e4ff501aeec1daad0abba8a34fef8bbd7db19b64ba67dfffbb0dec91b6d535226a835cf148118dc6b0ea4817f259417ce26866e8e32e9c1336b079d25eddf5ef5f6ef273e3d7556750648be3cc022e726e03e82ef706d4ca217fa95c3dba4ea558beb9ba4eefbaf822f0c34c9eb2bc92ad1941996903d2c30cad286868dd6b6470b5a8070eef019f0a31"
      ],
      "sequence": 4294967294
    }
  ],
  "vout": [
    {
      "value": 1.0,
      "n": 0,
      "scriptPubKey": {
        "asm": "OP_RETURN 7795b08b233c43f6a6aafdde70ec13a752059455bd88b735559de87fb1caa13b 63f6dc2bfdf5c2f6502fcbe4ba6424848daf2fbee66b024c8603134630fdff6843d6fc0bddd5e2d6700febc49a4404a4ad8f0f9ec64b226ca623336610dddf4823b69c6bbdb582b6106f8ba4fa2464c4cdef6ffea62b420cc643530670bdbf280396bc4b9d95a296304fab84da0444e4edcf4fde860b622ce6637326509d9f08e3765cab7d754276d0af4b643ae4a4040d2faf3e66eb82cc068393c6b07d7fe8c3567c8b5d556256f08f6b441ac484242d0f8f1e46cba2ec26a3b3e6905d5fc8a3361ceb3d35023690ef0b247aa4e4444d6fef7e26abc28c46c3d386f03d3fa883163ccb1d152216b0cf2b045a84c4646d4fcf5e068be2ac66e3f3a6d01d1f8863f6dc2bfdf5c2f6502fcbe4ba6424848daf2fbee66b024c8603134630fdff6843d6fc0bddd5e2d6700febc49a4404a4ad8f0f9ec64b226ca623336610dddf4823b69c6bbdb582b6106f8ba4fa2464c4cdef6ffea62b420cc643530670bdbf280396bc4b9d95a296304fab84da0444e4edcf4fde860b622ce6637326509d9f08e3765cab7d754276d0af4b643ae4a4040d2faf3e66eb82cc068393c6b07d7fe8c3567c8b5d556256f08f6b441ac484242d0f8f1e46cba2ec26a3b3e6905d5fc8a3361ceb3d35023690ef0b247aa4e4444d6fef7e26abc28c46c3d386f03d3fa883163ccb1d152216b0cf2b045a84c4646d4fcf5e068be2ac66e3f3a6d01d1f8863f6dc2bfdf5c2f6502fcbe4ba6424848daf2fbee66b024c8603134630fdff6843d6fc0bddd5e2d6700febc49a4404a4ad8f0f9ec64b226ca623336610dddf4823b69c6bbdb582b6106f8ba4fa2464c4cdef6ffea62b420cc643530670bdbf280396bc4b9d95a296304fab84da0444e4edcf4fde860b622ce6637326509d9f08e3765cab7d754276d0af4b643ae4a4040d2faf3e66eb82cc068393c6b07d7fe8c3567c8b5d556256f08f6b441ac484242d0f8f1e46cba2ec26a3b3e6905d5fc8a3361ceb3d35023690ef0b247aa4e4444d6fef7e26abc28c46c3d386f03d3fa883163ccb1d152216b0cf2b045a84c4646d4fcf5e068be2ac66e3f3a6d01d1f8863f6dc2bfdf5c2f6502fcbe4ba6424848daf2fbee66b024c8603134630fdff6843d6fc0bddd5e2d6700febc49a4404a4ad8f0f9ec64b226ca623336610dddf4823b69c6bbdb582b6106f8ba4fa2464c4cdef6ffea62b420cc643530670bdbf280396bc4b9d95a296304fab84da0444e4edcf4fde860b622ce6637326509d9f08e3765cab7d754276d0af4b643ae4a4040d2faf3e66eb82cc068393c6b07d7fe8c3567c8b5d556256f08f6b441ac484242d0f8f1e46cba2ec26a3b3e6905d5fc8a3361ceb3d35023690ef0b247aa4e4444d6fef7e26abc28c46c3d386f03d3fa883163ccb1d152216b0cf2b045a84c4646d4fcf5e068be2ac66e3f3a6d01d1f8863f6dc2bfdf5c2f6502fcbe4ba6424848daf2fbee66b024c8603134630fdff6843d6fc0bddd5e2d6700febc49a4404a4ad8f0f9ec64b226ca623336610dddf4823b69c6bbdb582b6106f8ba4fa2464c4cdef6ffea62b420cc643530670bdbf280396bc4b9d95a296304fab84da0444e4edcf4fde860b622ce6637326509d9f08e3765cab7d754276d0af4b643ae4a404c4e1d2e73f79298855165df9abd5683a1ff95ae163426f13fc729433da49d036",
        "hex": "6a207795b08b233c43f6a6aafdde70ec13a752059455bd88b735559de87fb1caa13b4db00463f6dc2bfdf5c2f6502fcbe4ba6424848daf2fbee66b024c8603134630fdff6843d6fc0bddd5e2d6700febc49a4404a4ad8f0f9ec64b226ca623336610dddf4823b69c6bbdb582b6106f8ba4fa2464c4cdef6ffea62b420cc643530670bdbf280396bc4b9d95a296304fab84da0444e4edcf4fde860b622ce6637326509d9f08e3765cab7d754276d0af4b643ae4a4040d2faf3e66eb82cc068393c6b07d7fe8c3567c8b5d556256f08f6b441ac484242d0f8f1e46cba2ec26a3b3e6905d5fc8a3361ceb3d35023690ef0b247aa4e4444d6fef7e26abc28c46c3d386f03d3fa883163ccb1d152216b0cf2b045a84c4646d4fcf5e068be2ac66e3f3a6d01d1f8863f6dc2bfdf5c2f6502fcbe4ba6424848daf2fbee66b024c8603134630fdff6843d6fc0bddd5e2d6700febc49a4404a4ad8f0f9ec64b226ca623336610dddf4823b69c6bbdb582b6106f8ba4fa2464c4cdef6ffea62b420cc643530670bdbf280396bc4b9d95a296304fab84da0444e4edcf4fde860b622ce6637326509d9f08e3765cab7d754276d0af4b643ae4a4040d2faf3e66eb82cc068393c6b07d7fe8c3567c8b5d556256f08f6b441ac484242d0f8f1e46cba2ec26a3b3e6905d5fc8a3361ceb3d35023690ef0b247aa4e4444d6fef7e26abc28c46c3d386f03d3fa883163ccb1d152216b0cf2b045a84c4646d4fcf5e068be2ac66e3f3a6d01d1f8863f6dc2bfdf5c2f6502fcbe4ba6424848daf2fbee66b024c8603134630fdff6843d6fc0bddd5e2d6700febc49a4404a4ad8f0f9ec64b226ca623336610dddf4823b69c6bbdb582b6106f8ba4fa2464c4cdef6ffea62b420cc643530670bdbf280396bc4b9d95a296304fab84da0444e4edcf4fde860b622ce6637326509d9f08e3765cab7d754276d0af4b643ae4a4040d2faf3e66eb82cc068393c6b07d7fe8c3567c8b5d556256f08f6b441ac484242d0f8f1e46cba2ec26a3b3e6905d5fc8a3361ceb3d35023690ef0b247aa4e4444d6fef7e26abc28c46c3d386f03d3fa883163ccb1d152216b0cf2b045a84c4646d4fcf5e068be2ac66e3f3a6d01d1f8863f6dc2bfdf5c2f6502fcbe4ba6424848daf2fbee66b024c8603134630fdff6843d6fc0bddd5e2d6700febc49a4404a4ad8f0f9ec64b226ca623336610dddf4823b69c6bbdb582b6106f8ba4fa2464c4cdef6ffea62b420cc643530670bdbf280396bc4b9d95a296304fab84da0444e4edcf4fde860b622ce6637326509d9f08e3765cab7d754276d0af4b643ae4a4040d2faf3e66eb82cc068393c6b07d7fe8c3567c8b5d556256f08f6b441ac484242d0f8f1e46cba2ec26a3b3e6905d5fc8a3361ceb3d35023690ef0b247aa4e4444d6fef7e26abc28c46c3d386f03d3fa883163ccb1d152216b0cf2b045a84c4646d4fcf5e068be2ac66e3f3a6d01d1f8863f6dc2bfdf5c2f6502fcbe4ba6424848daf2fbee66b024c8603134630fdff6843d6fc0bddd5e2d6700febc49a4404a4ad8f0f9ec64b226ca623336610dddf4823b69c6bbdb582b6106f8ba4fa2464c4cdef6ffea62b420cc643530670bdbf280396bc4b9d95a296304fab84da0444e4edcf4fde860b622ce6637326509d9f08e3765cab7d754276d0af4b643ae4a404c4e1d2e73f79298855165df9abd5683a1ff95ae163426f13fc729433da49d036",
        "type": "nulldata"
      }
    },
    {
      "value": 499962.3747,
      "n": 1,
      "scriptPubKey": {
        "asm": "1 af56ed67d9878a5fe22d8238a0e35168edff488abff2e1bcb0a3def4bc858a25",
        "hex": "5120af56ed67d9878a5fe22d8238a0e35168edff488abff2e1bcb0a3def4bc858a25",
        "reqSigs": 1,
        "type": "witness_v1_scripthash",
        "addresses": [
          "3QJmnh"
        ]
      }
    }
  ],
  "blockhash": "04b08afa406522d4605e5542ad480440adf33b25b306f33fff8225e2cbbf4733",
  "confirmations": 1,
  "time": 1764183055,
  "blocktime": 1764183055
}