{
  "hex": "0100000000010194713c0008391f3018c49ab80638f2dd68a0950365f16496646689c8bea879fb0000000000feffffff0200e1f50500000000fdd5046a20e53130ec33621c0f824813565e3b3dfc706f242cc6a645edbf02cf8bb2fb4ac44db004b983b14b68357e9b902c2200c1157a30233d2b92d98a43d13e12827fa6acd48a99a3916b48155ebbb00c0220e1355a10031d0bb2f9aa63f11e32a25f868cf4aaf9c3f10b28753edbd06c624081553a70637d6bd299ca03917e52c23fe6ec94cad9e3d12b08551efbf04c4260a1751a50435d4bf2b9ea23b15e72e21fc6ccb4ea390331cbe8b5fe1b10aca2804195fab0a3bdab12590ac351be9202ff262c540a192311ebc895de3b308c82a061b5da90839d8b32792ae3719eb222df060c742a7943718ba8f5be5b50ece2c001d5baf0e3fdeb52194a8311fed242bf666c144a596351ab88d59e7b70ccc2e021f59ad0c3ddcb72396aa331def2629f464c346ab983b14b68357e9b902c2200c1157a30233d2b92d98a43d13e12827fa6acd48a99a3916b48155ebbb00c0220e1355a10031d0bb2f9aa63f11e32a25f868cf4aaf9c3f10b28753edbd06c624081553a70637d6bd299ca03917e52c23fe6ec94cad9e3d12b08551efbf04c4260a1751a50435d4bf2b9ea23b15e72e21fc6ccb4ea390331cbe8b5fe1b10aca2804195fab0a3bdab12590ac351be9202ff262c540a192311ebc895de3b308c82a061b5da90839d8b32792ae3719eb222df060c742a7943718ba8f5be5b50ece2c001d5baf0e3fdeb52194a8311fed242bf666c144a596351ab88d59e7b70ccc2e021f59ad0c3ddcb72396aa331def2629f464c346ab983b14b68357e9b902c2200c1157a30233d2b92d98a43d13e12827fa6acd48a99a3916b48155ebbb00c0220e1355a10031d0bb2f9aa63f11e32a25f868cf4aaf9c3f10b28753edbd06c624081553a70637d6bd299ca03917e52c23fe6ec94cad9e3d12b08551efbf04c4260a1751a50435d4bf2b9ea23b15e72e21fc6ccb4ea390331cbe8b5fe1b10aca2804195fab0a3bdab12590ac351be9202ff262c540a192311ebc895de3b308c82a061b5da90839d8b32792ae3719eb222df060c742a7943718ba8f5be5b50ece2c001d5baf0e3fdeb52194a8311fed242bf666c144a596351ab88d59e7b70ccc2e021f59ad0c3ddcb72396aa331def2629f464c346ab983b14b68357e9b902c2200c1157a30233d2b92d98a43d13e12827fa6acd48a99a3916b48155ebbb00c0220e1355a10031d0bb2f9aa63f11e32a25f868cf4aaf9c3f10b28753edbd06c624081553a70637d6bd299ca03917e52c23fe6ec94cad9e3d12b08551efbf04c4260a1751a50435d4bf2b9ea23b15e72e21fc6ccb4ea390331cbe8b5fe1b10aca2804195fab0a3bdab12590ac351be9202ff262c540a192311ebc895de3b308c82a061b5da90839d8b32792ae3719eb222df060c742a7943718ba8f5be5b50ece2c001d5baf0e3fdeb52194a8311fed242bf666c144a596351ab88d59e7b70ccc2e021f59ad0c3ddcb72396aa331def2629f464c346ab983b14b68357e9b902c2200c1157a30233d2b92d98a43d13e12827fa6acd48a99a3916b48155ebbb00c0220e1355a10031d0bb2f9aa63f11e32a25f868cf4aaf9c3f10b28753edbd06c624081553a70637d6bd299ca03917e52c23fe6ec94cad9e3d12b08551efbf04c4260a1751a50435d4bf2b9ea23b15e72e21fc6ccb4ea390331cbe8b5fe1b10aca2804195fab0616dffe810c18a01cb88d624511691c99eb32255d37545f183f94da8eef571d100ce47c6782d00002251206ec8430526e00317d5d7160e83ad4af503d0a965f059c2b4f52b15c1e729b02c02fd75094e502061f89d358bc9adecd43b8fd94bb65f355a8645656b65b7cbb1d5bd64073ad915103870ef9797835e7e5dade8ae1d273025937e4df7a7d0f895061d5f439243330a7fd192558a12abc0fd6f354df70043d5e05e34ab70964319c28ed8c5d2b211cfd495a33afcaad8bdf4fa74fca255d6e68ec0bac78e3a8bd049fa8fd7ec9d20f79a30e91a45da132ad008f00c7828a6c7418a3d31a9b3945c9ee4691e0efca77e9811b2525a4598e1e97d8bf059a433821c4a8611f487ce45e759d7505ec1d86abe0dfbf8eeaa2d2e9b252132d14d827eedd2f80f08d7c0c817f03d9ec1ee34574678385c209bfc56dfb11012f80487b0eb6a91c519832f5739c24b0474b68728445f249824ea1622f06573d9ea607a8b5601b419b6648c7c4e0a6666091030129c39e1857a27911ddfaa57d2bb7df665aae2ea27f24daa9162cd7d5184231036d2eb64c82eeabee61d1f6eb2955691d204b5b0b1817ee5209f9f46b9db186043fd22d24ca9921c0061d57dba778b45c204f5fda54433d3dbd7eae480f1f4fc60f34f0fa66647b80e47eb4c48b9f995e2cd68163e3cff693567accff8dcbd19b764aef0e0c9d46ba2f69d3f3b2839ee43f1ebe20da53b56b7c0b89fd8222857d579d629301af90b4783819f6198745810f903c8a913b4a21e788c9a93fb7e7bd393faade00ece59edbe45fa1a04e675fdb8db938254ce0ab731262e42d414fe2f138ae68055c07927c9e8d235a450d8b366b6bcc81e2254629ec9775e813006c7b576810c1537283bbdea09ba5d270935e80c9f5ffe6de3901fa2ad85b1a6f2f6852b131dfca5a51094cd96bae67dbf7197e83837195d0a04be40bfc7cf155edcbf50c1ce4c3b3540b3587d8a299af42a1a20d4fa12f324a9f0a35215cc693a2764c605a60a4f45cde34a36ae9a8849c1507175eb9db77bec136cfd78da264260e63b7dc2510fbe84e24663a189f3376af389d0f2609c5af9a2429f5f0100f93c302e108c3fd4b27bbaeb91204af92a32065b35300ea929a0729f22a920f22895eadad05d63d27e75ca425aa8400a2f1908d167bfac981c30ff546df9efcce57d5ae786e6c8a6f294eab52cecb33c91127ef764c70d4a41c888ec40c6def3aaba533bd682956f5da0479acb324281c2cafc99cccd8360ad9f61e4874fca93f993631014d950285a7d874133a78f4c54a162b80771e7926c7b9cb73f7eeca76fc942e2caa8ed33811691327792adcac05e0bcebf80531adcd0cb8e13480893a0444270543c41cfc5a644f154c08fd201f1546320e357d7e56678f32c16edb50608702d20d935ababcdc7093e68f1b86f06b68ac9b33d1e95b87d995e620411fc3fd992a34128f5e1645da603489a4e16e7e5598c27a2ea7b412c5c75e6d5f0eec0866314e6ab6bdd7a7fd0853caa31a4398ac9251cfd4d31d419ed0e7285287bbe69e5cfb9de80edaa1828f6ed60d19135ca3aa6bdacad7cf0d434991a62740fe999b22e9b9cb14ba1db9a0cd519011adfadd274b4b07d18210bcd180c80e283d3df6f4160564a95cb700b4e42fd10dbf8cee246e5a6f2698651537479c1b0e2e14ca14159150159c4b61495d1eb1080dddb9dd9a91b2a0f59e0300488b22ed60264827fcc5ce0a6229b851e701b40cc39cacedf1b1f3424f79137d33a8abaee2c3ebf2c4825d5e96a8a9e844c77612d3003be79f31b0a5bb383faab0d5dd8272e281b7f6c3c6fd0ff4e915219fd83e71c5583331d133f3991ccc22928a6bf20bd4930697dadbc7e2610211328a93a9da3963560e6bfc887080b9bc9dde31cb9b6b5258c37cc237dddec2b37f32731705ad9fa10a767bef330094d583f880155aa1259e48ea691f43e03268a75ff9e53b4e484bdffb66123bea6510c9f5e870203709507e564ef05ce52c9775db64f168a83d4326a83b829c97234f77003cbc4304961975b8693b2c5ef1ec51ea35f327a76f650bd0ca514c018fd76acd2a2d0f2230d39409684c9cb69339410c85361d1e66796782f29f6cd2fc4369f249418729e60d859c74178f9944460baf70766bd208be35835facf95901c313c2f5671380fe3eb6c81f8ba5539fa156361692bc266efe8b346496c2f33e6a4b0e091b771f7ae4b9a261a104ae098edda5fdffb97465e552e0d4ceff4a41ea18b666023b832527ba78b1f1efa468cbad373d2f07274117fa09c5cbdba4299bcaff4ce1f0d712898d320226ec8e1b0fe93e4ad7b59eaff7bb04d445d995ebbe356def5a7f0efe714977fb247c48759e9b00cac028e4271830a1bc21e8da9301ac88e4f6a924294ac43d9f678f7bd3449c777d4ae8a59c2500fa3d39457ae3c70a056ec25880c53a3c12d52abc5c973eb4ca2d38ea73e0d905b2ba7a391c1f45b3b8ff7d84d936d5170b40b9544c987ddd7bf334e42b652c880f0189888e2b125ee4b3ab4f9b07d972196c95f7f5d27d46888a1b530688ded5234c5d20bcf50410b4bdae58d6030b302820d70587e2017437cf4082084db1623868c46619e43a433cbe719ed45c4a9e1a47ed715f92a8a45b683aefa03694aaeb13873f805fea3c839735e93157d6d9fb931acb6c92edc18eaa315e59f7fe960f5e4268fbfe5378656fc7de934fcc9752f5de4a7ea09e9929722f25d3c9f681eadc3b959af492c4718f4223e881e6bdea579913ea17f0a9cd614d5eaecc16260af505ae11fbfe6ef0c05e7fad796902304505e666158aa2ed7fd2a5dfed117b323cb87306a1dc1ec7d2b38548af696855008dc6a4d1bd2472d4481cc091c2ba503ba8b82e884f927b3d8136f14f25171f555f992a5f6aec54dd1f615fcfdb66231b419adf253a4cbc248ef45eb3382cb12c169ca54c5bf295a5ab180355f7e339583b076c0942a5315f937ce6a150574ef811377e052adc52c5cc4f77fec47680bdd72f372d4d8c6a5eed75a1729ad0dbf8fc001cb8d9646d4a6f07a186156d10bc53f466adbd9495dc94b3dcdfa20f55526d40bb0d9de9c6f8cdad13dc3c74b69620a89e031db6fbda7f3b454e2677b60503617fdb49a208cf88ec38031438f6bd2beef6749aaede4bb1829c77c0d2ab2205b0c25d3caa399ea6fe236a7075da328b010c6753f9997c47d59c9c738939563f9d1e6931d53b53905541fc37cd355ec907c2fb49666ca8c3f12566fe79e724f53f0ca4c97a45dc0de6562f0c7f2800375bf3d4cbfa469e4abb5b9ef5796b3feaa0d611525bcf196470e116e668c5b037b0fa9e88f265cc20c809a39b596381c2455ffa8a14e2d88f86dc6f3b84964292c4f333b89bc020a14256266b8c9df011b63aac3cacbcdd3d9fa16393e82d4d5df3f5b5f62809b9cadb9d0d300000000000000000000000000000000000000000000000000000000000000000000000000000000000009141b2601fd210500db98dbe66c4b4426fb940ace4e8644b90ae8d7ba60dea61b7c83298d57ffed4cf724b70aae8c3f8ee3ec2ea88f9459e4f29dc6679b3d108d5e6a6d946c29a686f790c1df04cfd89450fa6df59100f91ed5ce0bfc4d4d85170678e3d63ae255d121de2d415851fcf1dde6687b1ddb3a5bdb4a14f78421b0927d49dbabb29df78eba17039f47decc62a6a1046f1fcf485879993ea7257e7c4c3f3a1cc1c68238a8eea4bef3ee701f8b77d42d022798809bd27b6ce5c00a8631c17c886d3532f314665bb1b71e494b404a50cdd760dad62a87d1f6df969c2ed0126969123d79c8406e1eeec21342133a2ebc2c19e9814e5d23afd51dfda9d54881f501085a74458b50657dc4dc710b14856045e7edb93076ae69de72795880b1d4312a71f7d254115053155f5bfbb663a46991ae1bc7bf9c0a9839c3fe7ef485fe81cceb53755250e88aa05a95a0042733d00a5e4dc081a3297652afe24ef086b749a8c0c8355b4424d81fea82186a6acca5e068a022fa399d08af35494213eb08693ccd031ccf779fb085db51fada94efeb00d5ae99711009766fb965a136200833a31d69b92e2ab08b74da00b976f3fd87643ef38708ddcfebf68456b337ddf4affd5be174f4162b96dc80a5cc56ea6f5b162f316e9c2d6832d333e68b63112e1c4f8625f044a2016cb2476ae4284fa5fa4a9ddb1260d5de3bf53cc4716f81ea346d900fe3c3032f51197a5a6cadb398f8e419eebc89ba31a72b2b1eff3872530bb787426f01abb397258123aaf58c0f495bfdde5bed9bd4b4ace6d4d2375382bc0e2bd6330e23214541c7cdc0b6c482f316698abbed919d46872405d1f4234cdc1e2763fb78873e0bd221ff12590ba419bda42c2395de4ca8eb322c1059685527213af9ad219242462a683f2863e380eb5fc67a95d41baa9ea3e312c18adcfa0b26b45f58837a0896b66c933f2ef896f2ba67e885966fd0b4df21e619d2ede4237433d8c9acb7f8f760a57a1dfc3f7d9c386664bd63ebc544007c687634944e4bc9b581c14f0daf561cf0d08ff1df9583555b0a43490b8637cee1dd7f0bbfb9b68082f617d7a4008d235b5cc3dc3be4fc700f0085068a4864d7c7cf82bc4aa17691654bf04721b2556ca24b6b655e1868d7591e0a06bdcf7002d7da8dc138fcbc75ff79777bf608700f380e7fa0a7b8b0c4c1655ec7ea6e97b80896569d7a1cb5477b24081c8e0d5ba080e86aa48a2ce699494e0c5f28bf87389c5c7c9294b0d3eaa13ec4006e1ec3cc52f001ba8acf2a777012aeceb8bc93049857b789ddf0b6142039a5ba49023775a44af3fa521c5bce30ce38b38aca17c0bbb0654f3f019d47df6d11151a4ce258035015925314926b79dd446f59a226b11977cef65ba73aa0a1ac55270945c9ea75f72c06222a89d71a057266e22c844ad9f74ed96fedaaded32c4d41668f36ff8be73f07a5d4f20a4e0dbb698ebe480ae4460c8e97562fcda545892155345d2fe56620095812c747e84dff791378d34a63cf411eeb3102f247f4631051775927e8b112da920e09633a8a3f36cbe30626e35121c44d37781eb146a008b53116b8988fc66b6543e2f1f46c78a7ef65e489c61653f79691cf0d4d61f77afd39e8507c20548ce3b580917e6e87fa9ce28ed7bf09089011388f8c39f0a51206f840e6cc1a175c0cfb3134a338cc667d551be29a7dbb8f5cc6ffbe5b79e4244b854cec9fff928b9f732a80398f7f82256eb1b4b685e85bfbecb40e17cff2300b46203c9f95d5d8d693c2ab21fcec67135a317111f3295fbbd3c15b21648a03e5764f6fccb45a5042a57b6cfe6429afe78f0a13ac00e2ea2476134c6ae2d3877282000000",
  "txid": "2f1572fa7781d768f7221009f24b56ba991ef08d896313874f7111f1661096bc",
  "hash": "8445f5296c414a0d7885e36be97ab8d28baab865a0de0b2dfed4fb13db5d9d20",
  "size": 5085,
  "vsize": 2278,
  "version": 1,
  "locktime": 130,
  "vin": [
    {
      "txid": "fb79a8bec88966649664f1650395a068ddf23806b89ac418301f3908003c7194",
      "vout": 0,
      "scriptSig": {
        "asm": "",
        "hex": ""
      },
      "txinwitness": [
        "4e502061f89d358bc9adecd43b8fd94bb65f355a8645656b65b7cbb1d5bd64073ad915103870ef9797835e7e5dade8ae1d273025937e4df7a7d0f895061d5f439243330a7fd192558a12abc0fd6f354df70043d5e05e34ab70964319c28ed8c5d2b211cfd495a33afcaad8bdf4fa74fca255d6e68ec0bac78e3a8bd049fa8fd7ec9d20f79a30e91a45da132ad008f00c7828a6c7418a3d31a9b3945c9ee4691e0efca77e9811b2525a4598e1e97d8bf059a433821c4a8611f487ce45e759d7505ec1d86abe0dfbf8eeaa2d2e9b252132d14d827eedd2f80f08d7c0c817f03d9ec1ee34574678385c209bfc56dfb11012f80487b0eb6a91c519832f5739c24b0474b68728445f249824ea1622f06573d9ea607a8b5601b419b6648c7c4e0a6666091030129c39e1857a27911ddfaa57d2bb7df665aae2ea27f24daa9162cd7d5184231036d2eb64c82eeabee61d1f6eb2955691d204b5b0b1817ee5209f9f46b9db186043fd22d24ca9921c0061d57dba778b45c204f5fda54433d3dbd7eae480f1f4fc60f34f0fa66647b80e47eb4c48b9f995e2cd68163e3cff693567accff8dcbd19b764aef0e0c9d46ba2f69d3f3b2839ee43f1ebe20da53b56b7c0b89fd8222857d579d629301af90b4783819f6198745810f903c8a913b4a21e788c9a93fb7e7bd393faade00ece59edbe45fa1a04e675fdb8db938254ce0ab731262e42d414fe2f138ae68055c07927c9e8d235a450d8b366b6bcc81e2254629ec9775e813006c7b576810c1537283bbdea09ba5d270935e80c9f5ffe6de3901fa2ad85b1a6f2f6852b131dfca5a51094cd96bae67dbf7197e83837195d0a04be40bfc7cf155edcbf50c1ce4c3b3540b3587d8a299af42a1a20d4fa12f324a9f0a35215cc693a2764c605a60a4f45cde34a36ae9a8849c1507175eb9db77bec136cfd78da264260e63b7dc2510fbe84e24663a189f3376af389d0f2609c5af9a2429f5f0100f93c302e108c3fd4b27bbaeb91204af92a32065b35300ea929a0729f22a920f22895eadad05d63d27e75ca425aa8400a2f1908d167bfac981c30ff546df9efcce57d5ae786e6c8a6f294eab52cecb33c91127ef764c70d4a41c888ec40c6def3aaba533bd682956f5da0479acb324281c2cafc99cccd8360ad9f61e4874fca93f993631014d950285a7d874133a78f4c54a162b80771e7926c7b9cb73f7eeca76fc942e2caa8ed33811691327792adcac05e0bcebf80531adcd0cb8e13480893a0444270543c41cfc5a644f154c08fd201f1546320e357d7e56678f32c16edb50608702d20d935ababcdc7093e68f1b86f06b68ac9b33d1e95b87d995e620411fc3fd992a34128f5e1645da603489a4e16e7e5598c27a2ea7b412c5c75e6d5f0eec0866314e6ab6bdd7a7fd0853caa31a4398ac9251cfd4d31d419ed0e7285287bbe69e5cfb9de80edaa1828f6ed60d19135ca3aa6bdacad7cf0d434991a62740fe999b22e9b9cb14ba1db9a0cd519011adfadd274b4b07d18210bcd180c80e283d3df6f4160564a95cb700b4e42fd10dbf8cee246e5a6f2698651537479c1b0e2e14ca14159150159c4b61495d1eb1080dddb9dd9a91b2a0f59e0300488b22ed60264827fcc5ce0a6229b851e701b40cc39cacedf1b1f3424f79137d33a8abaee2c3ebf2c4825d5e96a8a9e844c77612d3003be79f31b0a5bb383faab0d5dd8272e281b7f6c3c6fd0ff4e915219fd83e71c5583331d133f3991ccc22928a6bf20bd4930697dadbc7e2610211328a93a9da3963560e6bfc887080b9bc9dde31cb9b6b5258c37cc237dddec2b37f32731705ad9fa10a767bef330094d583f880155aa1259e48ea691f43e03268a75ff9e53b4e484bdffb66123bea6510c9f5e870203709507e564ef05ce52c9775db64f168a83d4326a83b829c97234f77003cbc4304961975b8693b2c5ef1ec51ea35f327a76f650bd0ca514c018fd76acd2a2d0f2230d39409684c9cb69339410c85361d1e66796782f29f6cd2fc4369f249418729e60d859c74178f9944460baf70766bd208be35835facf95901c313c2f5671380fe3eb6c81f8ba5539fa156361692bc266efe8b346496c2f33e6a4b0e091b771f7ae4b9a261a104ae098edda5fdffb97465e552e0d4ceff4a41ea18b666023b832527ba78b1f1efa468cbad373d2f07274117fa09c5cbdba4299bcaff4ce1f0d712898d320226ec8e1b0fe93e4ad7b59eaff7bb04d445d995ebbe356def5a7f0efe714977fb247c48759e9b00cac028e4271830a1bc21e8da9301ac88e4f6a924294ac43d9f678f7bd3449c777d4ae8a59c2500fa3d39457ae3c70a056ec25880c53a3c12d52abc5c973eb4ca2d38ea73e0d905b2ba7a391c1f45b3b8ff7d84d936d5170b40b9544c987ddd7bf334e42b652c880f0189888e2b125ee4b3ab4f9b07d972196c95f7f5d27d46888a1b530688ded5234c5d20bcf50410b4bdae58d6030b302820d70587e2017437cf4082084db1623868c46619e43a433cbe719ed45c4a9e1a47ed715f92a8a45b683aefa03694aaeb13873f805fea3c839735e93157d6d9fb931acb6c92edc18eaa315e59f7fe960f5e4268fbfe5378656fc7de934fcc9752f5de4a7ea09e9929722f25d3c9f681eadc3b959af492c4718f4223e881e6bdea579913ea17f0a9cd614d5eaecc16260af505ae11fbfe6ef0c05e7fad796902304505e666158aa2ed7fd2a5dfed117b323cb87306a1dc1ec7d2b38548af696855008dc6a4d1bd2472d4481cc091c2ba503ba8b82e884f927b3d8136f14f25171f555f992a5f6aec54dd1f615fcfdb66231b419adf253a4cbc248ef45eb3382cb12c169ca54c5bf295a5ab180355f7e339583b076c0942a5315f937ce6a150574ef811377e052adc52c5cc4f77fec47680bdd72f372d4d8c6a5eed75a1729ad0dbf8fc001cb8d9646d4a6f07a186156d10bc53f466adbd9495dc94b3dcdfa20f55526d40bb0d9de9c6f8cdad13dc3c74b69620a89e031db6fbda7f3b454e2677b60503617fdb49a208cf88ec38031438f6bd2beef6749aaede4bb1829c77c0d2ab2205b0c25d3caa399ea6fe236a7075da328b010c6753f9997c47d59c9c738939563f9d1e6931d53b53905541fc37cd355ec907c2fb49666ca8c3f12566fe79e724f53f0ca4c97a45dc0de6562f0c7f2800375bf3d4cbfa469e4abb5b9ef5796b3feaa0d611525bcf196470e116e668c5b037b0fa9e88f265cc20c809a39b596381c2455ffa8a14e2d88f86dc6f3b84964292c4f333b89bc020a14256266b8c9df011b63aac3cacbcdd3d9fa16393e82d4d5df3f5b5f62809b9cadb9d0d300000000000000000000000000000000000000000000000000000000000000000000000000000000000009141b2601",
        "00db98dbe66c4b4426fb940ace4e8644b90ae8d7ba60dea61b7c83298d57ffed4cf724b70aae8c3f8ee3ec2ea88f9459e4f29dc6679b3d108d5e6a6d946c29a686f790c1df04cfd89450fa6df59100f91ed5ce0bfc4d4d85170678e3d63ae255d121de2d415851fcf1dde6687b1ddb3a5bdb4a14f78421b0927d49dbabb29df78eba17039f47decc62a6a1046f1fcf485879993ea7257e7c4c3f3a1cc1c68238a8eea4bef3ee701f8b77d42d022798809bd27b6ce5c00a8631c17c886d3532f314665bb1b71e494b404a50cdd760dad62a87d1f6df969c2ed0126969123d79c8406e1eeec21342133a2ebc2c19e9814e5d23afd51dfda9d54881f501085a74458b50657dc4dc710b14856045e7edb93076ae69de72795880b1d4312a71f7d254115053155f5bfbb663a46991ae1bc7bf9c0a9839c3fe7ef485fe81cceb53755250e88aa05a95a0042733d00a5e4dc081a3297652afe24ef086b749a8c0c8355b4424d81fea82186a6acca5e068a022fa399d08af35494213eb08693ccd031ccf779fb085db51fada94efeb00d5ae99711009766fb965a136200833a31d69b92e2ab08b74da00b976f3fd87643ef38708ddcfebf68456b337ddf4affd5be174f4162b96dc80a5cc56ea6f5b162f316e9c2d6832d333e68b63112e1c4f8625f044a2016cb2476ae4284fa5fa4a9ddb1260d5de3bf53cc4716f81ea346d900fe3c3032f51197a5a6cadb398f8e419eebc89ba31a72b2b1eff3872530bb787426f01abb397258123aaf58c0f495bfdde5bed9bd4b4ace6d4d2375382bc0e2bd6330e23214541c7cdc0b6c482f316698abbed919d46872405d1f4234cdc1e2763fb78873e0bd221ff12590ba419bda42c2395de4ca8eb322c1059685527213af9ad219242462a683f2863e380eb5fc67a95d41baa9ea3e312c18adcfa0b26b45f58837a0896b66c933f2ef896f2ba67e885966fd0b4df21e619d2ede4237433d8c9acb7f8f760a57a1dfc3f7d9c386664bd63ebc544007c687634944e4bc9b581c14f0daf561cf0d08ff1df9583555b0a43490b8637cee1dd7f0bbfb9b68082f617d7a4008d235b5cc3dc3be4fc700f0085068a4864d7c7cf82bc4aa17691654bf04721b2556ca24b6b655e1868d7591e0a06bdcf7002d7da8dc138fcbc75ff79777bf608700f380e7fa0a7b8b0c4c1655ec7ea6e97b80896569d7a1cb5477b24081c8e0d5ba080e86aa48a2ce699494e0c5f28bf87389c5c7c9294b0d3eaa13ec4006e1ec3cc52f001ba8acf2a777012aeceb8bc93049857b789ddf0b6142039a5ba49023775a44af3fa521c5bce30ce38b38aca17c0bbb0654f3f019d47df6d11151a4ce258035015925314926b79dd446f59a226b11977cef65ba73aa0a1ac55270945c9ea75f72c06222a89d71a057266e22c844ad9f74ed96fedaaded32c4d41668f36ff8be73f07a5d4f20a4e0dbb698ebe480ae4460c8e97562fcda545892155345d2fe56620095812c747e84dff791378d34a63cf411eeb3102f247f4631051775927e8b112da920e09633a8a3f36cbe30626e35121c44d37781eb146a008b53116b8988fc66b6543e2f1f46c78a7ef65e489c61653f79691cf0d4d61f77afd39e8507c20548ce3b580917e6e87fa9ce28ed7bf09089011388f8c39f0a51206f840e6cc1a175c0cfb3134a338cc667d551be29a7dbb8f5cc6ffbe5b79e4244b854cec9fff928b9f732a80398f7f82256eb1b4b685e85bfbecb40e17cff2300b46203c9f95d5d8d693c2ab21fcec67135a317111f3295fbbd3c15b21648a03e5764f6fccb45a5042a57b6cfe6429afe78f0a13ac00e2ea2476134c6ae2d38772"
      ],
      "sequence": 4294967294
    }
  ],
  "vout": [
    {
      "value": 1.0,
      "n": 0,
      "scriptPubKey": {
        "asm": "OP_RETURN e53130ec33621c0f824813565e3b3dfc706f242cc6a645edbf02cf8bb2fb4ac4 b983b14b68357e9b902c2200c1157a30233d2b92d98a43d13e12827fa6acd48a99a3916b48155ebbb00c0220e1355a10031d0bb2f9aa63f11e32a25f868cf4aaf9c3f10b28753edbd06c624081553a70637d6bd299ca03917e52c23fe6ec94cad9e3d12b08551efbf04c4260a1751a50435d4bf2b9ea23b15e72e21fc6ccb4ea390331cbe8b5fe1b10aca2804195fab0a3bdab12590ac351be9202ff262c540a192311ebc895de3b308c82a061b5da90839d8b32792ae3719eb222df060c742a7943718ba8f5be5b50ece2c001d5baf0e3fdeb52194a8311fed242bf666c144a596351ab88d59e7b70ccc2e021f59ad0c3ddcb72396aa331def2629f464c346ab983b14b68357e9b902c2200c1157a30233d2b92d98a43d13e12827fa6acd48a99a3916b48155ebbb00c0220e1355a10031d0bb2f9aa63f11e32a25f868cf4aaf9c3f10b28753edbd06c624081553a70637d6bd299ca03917e52c23fe6ec94cad9e3d12b08551efbf04c4260a1751a50435d4bf2b9ea23b15e72e21fc6ccb4ea390331cbe8b5fe1b10aca2804195fab0a3bdab12590ac351be9202ff262c540a192311ebc895de3b308c82a061b5da90839d8b32792ae3719eb222df060c742a7943718ba8f5be5b50ece2c001d5baf0e3fdeb52194a8311fed242bf666c144a596351ab88d59e7b70ccc2e021f59ad0c3ddcb72396aa331def2629f464c346ab983b14b68357e9b902c2200c1157a30233d2b92d98a43d13e12827fa6acd48a99a3916b48155ebbb00c0220e1355a10031d0bb2f9aa63f11e32a25f868cf4aaf9c3f10b28753edbd06c624081553a70637d6bd299ca03917e52c23fe6ec94cad9e3d12b08551efbf04c4260a1751a50435d4bf2b9ea23b15e72e21fc6ccb4ea390331cbe8b5fe1b10aca2804195fab0a3bdab12590ac351be9202ff262c540a192311ebc895de3b308c82a061b5da90839d8b32792ae3719eb222df060c742a7943718ba8f5be5b50ece2c001d5baf0e3fdeb52194a8311fed242bf666c144a596351ab88d59e7b70ccc2e021f59ad0c3ddcb72396aa331def2629f464c346ab983b14b68357e9b902c2200c1157a30233d2b92d98a43d13e12827fa6acd48a99a3916b48155ebbb00c0220e1355a10031d0bb2f9aa63f11e32a25f868cf4aaf9c3f10b28753edbd06c624081553a70637d6bd299ca03917e52c23fe6ec94cad9e3d12b08551efbf04c4260a1751a50435d4bf2b9ea23b15e72e21fc6ccb4ea390331cbe8b5fe1b10aca2804195fab0a3bdab12590ac351be9202ff262c540a192311ebc895de3b308c82a061b5da90839d8b32792ae3719eb222df060c742a7943718ba8f5be5b50ece2c001d5baf0e3fdeb52194a8311fed242bf666c144a596351ab88d59e7b70ccc2e021f59ad0c3ddcb72396aa331def2629f464c346ab983b14b68357e9b902c2200c1157a30233d2b92d98a43d13e12827fa6acd48a99a3916b48155ebbb00c0220e1355a10031d0bb2f9aa63f11e32a25f868cf4aaf9c3f10b28753edbd06c624081553a70637d6bd299ca03917e52c23fe6ec94cad9e3d12b08551efbf04c4260a1751a50435d4bf2b9ea23b15e72e21fc6ccb4ea390331cbe8b5fe1b10aca2804195fab0616dffe810c18a01cb88d624511691c99eb32255d37545f183f94da8eef571d1",
        "hex": "6a20e53130ec33621c0f824813565e3b3dfc706f242cc6a645edbf02cf8bb2fb4ac44db004b983b14b68357e9b902c2200c1157a30233d2b92d98a43d13e12827fa6acd48a99a3916b48155ebbb00c0220e1355a10031d0bb2f9aa63f11e32a25f868cf4aaf9c3f10b28753edbd06c624081553a70637d6bd299ca03917e52c23fe6ec94cad9e3d12b08551efbf04c4260a1751a50435d4bf2b9ea23b15e72e21fc6ccb4ea390331cbe8b5fe1b10aca2804195fab0a3bdab12590ac351be9202ff262c540a192311ebc895de3b308c82a061b5da90839d8b32792ae3719eb222df060c742a7943718ba8f5be5b50ece2c001d5baf0e3fdeb52194a8311fed242bf666c144a596351ab88d59e7b70ccc2e021f59ad0c3ddcb72396aa331def2629f464c346ab983b14b68357e9b902c2200c1157a30233d2b92d98a43d13e12827fa6acd48a99a3916b48155ebbb00c0220e1355a10031d0bb2f9aa63f11e32a25f868cf4aaf9c3f10b28753edbd06c624081553a70637d6bd299ca03917e52c23fe6ec94cad9e3d12b08551efbf04c4260a1751a50435d4bf2b9ea23b15e72e21fc6ccb4ea390331cbe8b5fe1b10aca2804195fab0a3bdab12590ac351be9202ff262c540a192311ebc895de3b308c82a061b5da90839d8b32792ae3719eb222df060c742a7943718ba8f5be5b50ece2c001d5baf0e3fdeb52194a8311fed242bf666c144a596351ab88d59e7b70ccc2e021f59ad0c3ddcb72396aa331def2629f464c346ab983b14b68357e9b902c2200c1157a30233d2b92d98a43d13e12827fa6acd48a99a3916b48155ebbb00c0220e1355a10031d0bb2f9aa63f11e32a25f868cf4aaf9c3f10b28753edbd06c624081553a70637d6bd299ca03917e52c23fe6ec94cad9e3d12b08551efbf04c4260a1751a50435d4bf2b9ea23b15e72e21fc6ccb4ea390331cbe8b5fe1b10aca2804195fab0a3bdab12590ac351be9202ff262c540a192311ebc895de3b308c82a061b5da90839d8b32792ae3719eb222df060c742a7943718ba8f5be5b50ece2c001d5baf0e3fdeb52194a8311fed242bf666c144a596351ab88d59e7b70ccc2e021f59ad0c3ddcb72396aa331def2629f464c346ab983b14b68357e9b902c2200c1157a30233d2b92d98a43d13e12827fa6acd48a99a3916b48155ebbb00c0220e1355a10031d0bb2f9aa63f11e32a25f868cf4aaf9c3f10b28753edbd06c624081553a70637d6bd299ca03917e52c23fe6ec94cad9e3d12b08551efbf04c4260a1751a50435d4bf2b9ea23b15e72e21fc6ccb4ea390331cbe8b5fe1b10aca2804195fab0a3bdab12590ac351be9202ff262c540a192311ebc895de3b308c82a061b5da90839d8b32792ae3719eb222df060c742a7943718ba8f5be5b50ece2c001d5baf0e3fdeb52194a8311fed242bf666c144a596351ab88d59e7b70ccc2e021f59ad0c3ddcb72396aa331def2629f464c346ab983b14b68357e9b902c2200c1157a30233d2b92d98a43d13e12827fa6acd48a99a3916b48155ebbb00c0220e1355a10031d0bb2f9aa63f11e32a25f868cf4aaf9c3f10b28753edbd06c624081553a70637d6bd299ca03917e52c23fe6ec94cad9e3d12b08551efbf04c4260a1751a50435d4bf2b9ea23b15e72e21fc6ccb4ea390331cbe8b5fe1b10aca2804195fab0616dffe810c18a01cb88d624511691c99eb32255d37545f183f94da8eef571d1",
        "type": "nulldata"
      }
    },
    {
      "value": 499967.4592,
      "n": 1,
      "scriptPubKey": {
        "asm": "1 6ec8430526e00317d5d7160e83ad4af503d0a965f059c2b4f52b15c1e729b02c",
        "hex": "51206ec8430526e00317d5d7160e83ad4af503d0a965f059c2b4f52b15c1e729b02c",
        "reqSigs": 1,
        "type": "witness_v1_scripthash",
        "addresses": [
          "3QJmnh"
        ]
      }
    }
  ],
  "blockhash": "a9a7ce638639648c5b111e15e0d4489535a11a846f6b50fba3b7e2925471654c",
  "confirmations": 1,
  "time": 1764182153,
  "blocktime": 1764182153
}