{
  "hex": "010000000001015a61440b09774050fd764b834037fd35a900a930ccc44c266a9378d39ac1f7680100000000feffffff0200e1f50500000000fdd5046a202933b040f192877d84f9756d6cdc7414d820227ed66746066b42d0698b9eea6b4db00439e62bc8d99d31d4371d5b9e20041bb76a42d0b02c152174f8ee507e1cad014b19c60be8f9bd11f4173d7bbe00243b974a62f0900c350154d8ce705e3c8d216b79a66b8899dd7194775d1bde60445bf72a0290f06c556134b8ae103e5ced410b59864ba8b9fd51b4577d3bfe40647bd70a22b0d04c754114988e301e7ccd612bb966ab48591db154b79ddb1ea0849b37eac25030ac95a1f4786ed0fe9c2d81cb99468b68793d917497bdfb3e80a4bb17cae270108cb581d4584ef0debc0da1ebf926eb08195df114f7dd9b5ee0c4db77aa821070ecd5e1b4382e90bedc6dc18bd906cb28397dd134d7fdbb7ec0e4fb578aa23050ccf5c194180eb09efc4de1ab39e62bc8d99d31d4371d5b9e20041bb76a42d0b02c152174f8ee507e1cad014b19c60be8f9bd11f4173d7bbe00243b974a62f0900c350154d8ce705e3c8d216b79a66b8899dd7194775d1bde60445bf72a0290f06c556134b8ae103e5ced410b59864ba8b9fd51b4577d3bfe40647bd70a22b0d04c754114988e301e7ccd612bb966ab48591db154b79ddb1ea0849b37eac25030ac95a1f4786ed0fe9c2d81cb99468b68793d917497bdfb3e80a4bb17cae270108cb581d4584ef0debc0da1ebf926eb08195df114f7dd9b5ee0c4db77aa821070ecd5e1b4382e90bedc6dc18bd906cb28397dd134d7fdbb7ec0e4fb578aa23050ccf5c194180eb09efc4de1ab39e62bc8d99d31d4371d5b9e20041bb76a42d0b02c152174f8ee507e1cad014b19c60be8f9bd11f4173d7bbe00243b974a62f0900c350154d8ce705e3c8d216b79a66b8899dd7194775d1bde60445bf72a0290f06c556134b8ae103e5ced410b59864ba8b9fd51b4577d3bfe40647bd70a22b0d04c754114988e301e7ccd612bb966ab48591db154b79ddb1ea0849b37eac25030ac95a1f4786ed0fe9c2d81cb99468b68793d917497bdfb3e80a4bb17cae270108cb581d4584ef0debc0da1ebf926eb08195df114f7dd9b5ee0c4db77aa821070ecd5e1b4382e90bedc6dc18bd906cb28397dd134d7fdbb7ec0e4fb578aa23050ccf5c194180eb09efc4de1ab39e62bc8d99d31d4371d5b9e20041bb76a42d0b02c152174f8ee507e1cad014b19c60be8f9bd11f4173d7bbe00243b974a62f0900c350154d8ce705e3c8d216b79a66b8899dd7194775d1bde60445bf72a0290f06c556134b8ae103e5ced410b59864ba8b9fd51b4577d3bfe40647bd70a22b0d04c754114988e301e7ccd612bb966ab48591db154b79ddb1ea0849b37eac25030ac95a1f4786ed0fe9c2d81cb99468b68793d917497bdfb3e80a4bb17cae270108cb581d4584ef0debc0da1ebf926eb08195df114f7dd9b5ee0c4db77aa821070ecd5e1b4382e90bedc6dc18bd906cb28397dd134d7fdbb7ec0e4fb578aa23050ccf5c194180eb09efc4de1ab39e62bc8d99d31d4371d5b9e20041bb76a42d0b02c152174f8ee507e1cad014b19c60be8f9bd11f4173d7bbe00243b974a62f0900c350154d8ce705e3c8d216b79a66b8899dd7194775d1bde60445bf72a0290f06c556134b8ae103e5ced410b59864ba8b9fd51b4577d3bfe40647bd70a22b0d04c754114988e301e7ccd612bb966ab48591db154b79ddb1ea0849b37896433b746cc70b318863bf3e99826356cd57842f478b51c99f27e020e19eb6a30cbee69792d0000225120f0fdf4b2c16dcc14fb8b210dd3c1f966633d4d2aa3038c2ceb564c0e2f127d3d02fd7509a3c528ed6e083f59957a1dc024ddc8c83b1198b9599f6a2b59eae7114c0ac3af991e91fe4b018ceb526336f00a6174f2bc8b9849443beb918e554301efa38da8f64491f78312ecffbbb33781c8a743bfda370cfafceb4da9b0edb7c309bd54f05962a9562f7c263f7dad6a6196aeeb729f55e915f97459ecc3dc698cc1fd838b0c623121c82cc659f03d53dce1d3b19f414b51bd946234ad705f2ea39175a24ec55a2a9f379be548bfef0c0865b0b5a091efab44615894984467f0e4c3613c783ec96ec55f486c7a38e7311b7c3b03c738fc8d0e7e0740ff5d68045bfe2703e4f75912264a0897ca6eb852e0d8e7007f6636d4e23937bed846932cb14b45808abe5883d74f4d9651a9e5dfc5c3e3ba19b879b335268a084ec80d439f3885197828f8125367ec2b131520d5aa6179aef69c1faab6960b8e2948e83aab7e66b764e513a58fdf9601e6d5dd8588be06e01d11e598d617b2e07cf797e694f6835a84e3c5afb75549d57e2af6eb208bf80fddfb02f0924aaec8c87fdcb175bc2c764b953c2f8e22a0bc693a42f323ae68be8f895cd91ad8ff64ba23608960f9f83cc39f8c368794618d8fde78ca28739afe8033c01257dbcb5c2aa6c7983b3cc47f2f80e334b42ad9f1aaf4ef7f2c5662fc5edf3fe0231f86a6c69c5cf48d1205ddb6395ef00c02626e0eff513da5b6ac85aca7d9ad00c06b52a428198669fc558ceea1b5a0d99a556765e21ec0cfc0a904f9ca500c885fec403299d8977919a449de8528fe2ba7946ae2099b61cfb0ed79f2d50ce905aaff3dd7f09ac0733e0b5f60d269c6864c157c571359f798993e3025d8bd36a6a440c1c5aa97774f30514daefadf612f10c57eff981001758e7438d16d36e1ccb5d0dfe5a5c5a2e92a4cb7800e1f430984d82a78ab3bc60e50ea99a0c96e094e80dab98e2282b14c50c70b86e69b42e35928c60ceca7183d3c39251eed8a23dab54b12cc79d05fc2910f7432d54c5eeaabc9ad2e8d5896bf5ee8a9021f1bd2cce30fb07d6d02527e93262b3d8e7eba6b681114f515b8f82f0a5fd4afba9fe16f519229c5cdda32f2c2125ae6f8a8b3f41863fa56f38d67379a968a6cafd3b2689dc6bf3e8e7fdfaf74029b9c656ee68e6cc04f99a2602fd09f5b6c8ce613c152b9cdd1a73cb18e541dd94e8b03727699fbb8c5ab87a15c536e1a8bdd0238ddaab0815473779fc3c511ad34c9faac7d92aab1aa539be3d49aa34e4133e660aa47952b74ca651233bb25f8cd7a1a949e721ce98f59724b90e5188bd3fd93f55cadaf5a35216c25dd79f9ad40500c6b0ddea38f1489ee4cafa1911a8e4d904795dce0edd14b195a00b3daf0e047d1ea3b380fda61650bb736c51fa67549a4bbd20e0b1ddeaf5f4eee063231da191f051fd6ab4debbaa3a85467f67802afab39039979de00d15e219fa95a608f5c1ecb594c40bd43e89efbfe58a583646576fa62575a942713e75c1300ec6991dacb558501145300259028adbd70873e2f13c002cf3207229880263e3125df68b2d55208796e390358113b63158b2e913e4db84db68f0d9e0b0ec2dd4e19ff7400ce8b2123fdc9fbe2982b43559699b3d74f4629e0e656275ef1eef596b565ce3c032b7436b10a961b48948d2aabebee8a0f4c4211c443b88acc4666cfb52255c96c4d76d7f2ac29335931f887c3626395ef22f8e470f404da1275fca8994ae6d06923673677aa84410792b0f5bc4d7e6239aabafcc6dd1ec09178bf726040609d8d78774a2bab16587858ac6991b2b056ad62f6f5cd8a97e600eefec86b688e5da05759909a5ec6da0e22d7f803ffd46e67069c803ec8f1ec7d7d9b744b2573ba16acc3d606963c78d4e11d3103ec49623f77b14d7d7f54e6fb310f10a9ec04740fa005b0de6f17737185146a95f32647be6adda98e9a9e96df3768ed87fe2e86d50cd9c5830f0efbb8481403eaf3d098f416401ec82013c7636a66f412f9cc7d527128f083a2fb13bc23f5a810fd0caaa39b2688fe544798234843128d5bcdfd40ed3833c9b275f10cd9d2301992bd2528723c6a38684e420d2be4049c6e81563b699713e9ef2a23378f9b04121102cf9298226236e66f8ec8811877a5253958e840b01bc8224c384e84ed45b607a0b367dab45f0c58fa0a8ac357f611a1bb3e94944c32efc74202ad9d792a34fac682b5548415775b57f41dc9a2747ee3712f2f92d397a88a35b57423b15e84df0e1d26cb7f85b9eaf7c76894491b6623ea9e91bf8f3b80af22f133282f751f972d26f649459b2d0cf44497f0c154606751114819787b212a8d7b15fe1480cf642baeafb125d0117835029c3ad340b2cf8f5087237fcbda2d4ae63a5d4739e1a7e3439dd6ddc360e2de3b4c401cd94e733a7e5e4dfbb47b6b7756c1d3fe1581ecdba3d2ebca8ad1b3bb26d67e29ff1d83acfec6e7b48e0bd9e2d915c2fa0081103dac225f8aa443f268ed27cb6cb7f58002c79d01f70bee104138e14b875418b84f26aa5d688a2cedec493e144c463f5a36ebf9e1f673d49adf97c69ebf218bfd2bfd71d19dfd50db0e496a487f38f4f2471f1e7267cc3d1262e70ab0c91b5793a852cc9dd4651680830e8dbaa6724dff2e85889f03ccf4bf865503618ff192dbef7cb5d3a2eee4b0c9f0b2d379e734631b3087354c2c0bbb90c0bdb1f0a069abde773aa5ef04e7dfcd567f47d608a3aecac5e3333056cb4f866c3daa0ffd82e0526875498b41ad46965c0fe56b973b98e9f83f382448621903d730e1e99098d7bd7c1ac7d6a29e257e3397c1c0b9fcb4c31bb9e108631470ab8e2e76847e228fa65e05626681911a531f741886301fb84ef0862c0d30d678df9454167e622c583e5b2eddfa334b6d9ca93ae2fd1ba8efc26d341269729fd3a648cd02475a6d02d18501a291570bf613b1921997202319fb0af6e160a6a069ed256d97f95f3398a5ea31cbc2d1a248424c20a1b127ddda90a5eabf288f1cf75139653429ee300ca6071010778e9253ac6c322c8c963b7701f992111cf1598e1beda45bb1f41b39d8a41f5df9c5a4cec370a20a9e780a91982d9842df4ca40846de1d88e3cfe722cfe3874040082815bae91a40603adde30e1fcea9c51d74c3948e1474493554703c40899d792eaa5de93246540ac84a00d32a4b7c3a83653be848080d3418badb739694b0526c64b80b3ccd8fa2088fcdd0f36c2138e569f98d19f72a837a32c81100b007c2d52706c75f2ca9aefeb88de778c616a6051bd83bd260fabd4a542ac6c955b93671d584118239cfacb5a648a17a06465b8790a7b6de0a1421334b686f7e83898da8b1011032385b6d809495b5c7cccedd11171f2f415461626b799ca3c5c6c9d0d7e4f000000000000000000000000000000000000000000000000000000815233601fd21050093db6a3875630e0a0d50fc8c412f26100f23f37c99ca2e4305e2630f39a90727eb611b64e0f601103ea9151e0052223da741af05cc61fa8f38791b79c2c7180bdd546d2d90aab337844ae419fa294c3800c4932373eb274a6e1a63c1f992645067b38e9946882a1dd4429a43de5f0d3df12255806fac65960dce6b796ecd167f56e176f5c9a7c0dfcdc69c187e84fc231f4476ffd941758f383d7ba0c5de8469511505d7e3494c2a1014d4fbaded59f15904923105ed5f77ff00b5ba519e088b2c0161f1511f03c288ad8af4ef50466be1ad15c597c58529775dc5518781c1068c25fc7f0900887fb49becdcd2e1a18bbe9f966eb1cd3146002d158e016402947b56ddc97e4c746bbc4d6f6c77f9094009cbee8deabb4b0fa63183c842f2cfc2a6d1f4d212333e3396b8a3dbcdb708d5984938696457c63fc9353da758340f21e818b2457f19f89a9140e6ac5d45bc383a149281f57ac42bc644a25530c11169d5b7d3ad8f00f0495dbca916f5b3345c4ffc4c2d68a3a9e54994a81b11b49894cb9db75d9a46aca602dd4ed13ce1404c4fe46b41124ddfc45a284113ec2bca17ec5dbd839a362af6cec142d2cbe0ca64e787cfcd9c7ed5f560a443d8f2d9aa0066d8ffe6d20cb9c5b60b4c86fff5711fc04be49e108eb6694f6f214ea59f08efe2f17c04ab1eb9f96b9d6c5fc4435c9344292eaf725d3e56e017885c828a1fe15e4c428fc3e5415f33e784eaa17a65d75091cbfb77f9ffa62327eec4b798c9c6e569ae7ef0d96db1ba1350b6167bf55ec8dce6bf2caa0f99228399efe898ed628c252c45b7b94191543c6cbb9ed77a0549f65e588975c23e537e1078f328fa52fc39e421679b5a53ba2216271055fde3b385bb901a61bd519d0b89485f8ab4f74b579b6a0db27c60bce7a2662021572b5abc2b2ed7b492a6960e8e40b1b811c25de5a139b66c8b557c3a17519466cea86c40a44b0d7ce677c10d916a39a242ff37e4c70c2e0b3e44c1290f820d9ac834a771e780554fe81990b149bf022708befa44619cbbde4e5c1968d68dce973503f24faa754bf89c74f47221aafabc82525904578259bd1167ebf115ce0e9f4f7819e56a604a21d8adcdda6aae1bdce2f4db2a0f8b95764947d72117698f71df6c568f453b5a699f7a1a2b5fa4e3b47774f03eba086c4ed60a7ad9f6ab58018ee63b7de2ff829929009dfb1a9b97da580d93630417d5475f9d60c39d1b838a5bbd89bebbc7bd823c990c74653d5d865031fce70ca8f6360e0f7aebff54cf79ac5721bc4497cac8beffae31aaa1bc1a19a281ff9c09af31c968ace4613ba9ebb213f1d01319a89c7082d2b79406a148eddaedc1d5994fe8ee308432ef5a096e689e6656face16e39161622893a7a0be8a6920dfc8661482df71dfce5d355212383f694049765d310d219918cc831f0f01862b7bbb063c09e06b8f29666e2ed83dbbdc32eec430ae2bac0791947d0ef7ae1c42957031f62fb10676bef84bc3f2b5210107b54200cfea278d47e3cbb002d95c0a8e4fb1863e554f3a6150872758e15a1fc47839ac35987efa123e8194efd716509b7d12c09db6ae2cbf9828f10651172e449f907c1a314a3d5bdf01b8e01f19a13bdd16076d78ef2b4072a5a5d5a3875581d71fa023c2872216fe5bbd6f209cc1aa9e2d8797b54f4ac4fa02af789b383c62241400b228a7c49872f387dce97c70497ac401f5c40e34a8f649d3c245c59271f355ab77832bd053aba0faf2bb677b324b1ea36ebc4ae1f3177666b14df719d48677f70b117aafcde9f075384ba6c65adb7a3cad39d6b9b82fb1722f00c9c7e5c503b2bc392fefdc8f2a59f9155568000000",
  "txid": "2601da3048e6b8e1275cc9f2c2a5863de3a1c74d987611f055b6e9e1b7b216eb",
  "hash": "db2f39a5420ba9fb27a8e79cf5d1c44124ef9b3b8847f48d4eabb84d9e543f51",
  "size": 5085,
  "vsize": 2278,
  "version": 1,
  "locktime": 104,
  "vin": [
    {
      "txid": "68f7c19ad378936a264cc4cc30a900a935fd3740834b76fd504077090b44615a",
      "vout": 1,
      "scriptSig": {
        "asm": "",
        "hex": ""
      },
      "txinwitness": [
        "a3c528ed6e083f59957a1dc024ddc8c83b1198b9599f6a2b59eae7114c0ac3af991e91fe4b018ceb526336f00a6174f2bc8b9849443beb918e554301efa38da8f64491f78312ecffbbb33781c8a743bfda370cfafceb4da9b0edb7c309bd54f05962a9562f7c263f7dad6a6196aeeb729f55e915f97459ecc3dc698cc1fd838b0c623121c82cc659f03d53dce1d3b19f414b51bd946234ad705f2ea39175a24ec55a2a9f379be548bfef0c0865b0b5a091efab44615894984467f0e4c3613c783ec96ec55f486c7a38e7311b7c3b03c738fc8d0e7e0740ff5d68045bfe2703e4f75912264a0897ca6eb852e0d8e7007f6636d4e23937bed846932cb14b45808abe5883d74f4d9651a9e5dfc5c3e3ba19b879b335268a084ec80d439f3885197828f8125367ec2b131520d5aa6179aef69c1faab6960b8e2948e83aab7e66b764e513a58fdf9601e6d5dd8588be06e01d11e598d617b2e07cf797e694f6835a84e3c5afb75549d57e2af6eb208bf80fddfb02f0924aaec8c87fdcb175bc2c764b953c2f8e22a0bc693a42f323ae68be8f895cd91ad8ff64ba23608960f9f83cc39f8c368794618d8fde78ca28739afe8033c01257dbcb5c2aa6c7983b3cc47f2f80e334b42ad9f1aaf4ef7f2c5662fc5edf3fe0231f86a6c69c5cf48d1205ddb6395ef00c02626e0eff513da5b6ac85aca7d9ad00c06b52a428198669fc558ceea1b5a0d99a556765e21ec0cfc0a904f9ca500c885fec403299d8977919a449de8528fe2ba7946ae2099b61cfb0ed79f2d50ce905aaff3dd7f09ac0733e0b5f60d269c6864c157c571359f798993e3025d8bd36a6a440c1c5aa97774f30514daefadf612f10c57eff981001758e7438d16d36e1ccb5d0dfe5a5c5a2e92a4cb7800e1f430984d82a78ab3bc60e50ea99a0c96e094e80dab98e2282b14c50c70b86e69b42e35928c60ceca7183d3c39251eed8a23dab54b12cc79d05fc2910f7432d54c5eeaabc9ad2e8d5896bf5ee8a9021f1bd2cce30fb07d6d02527e93262b3d8e7eba6b681114f515b8f82f0a5fd4afba9fe16f519229c5cdda32f2c2125ae6f8a8b3f41863fa56f38d67379a968a6cafd3b2689dc6bf3e8e7fdfaf74029b9c656ee68e6cc04f99a2602fd09f5b6c8ce613c152b9cdd1a73cb18e541dd94e8b03727699fbb8c5ab87a15c536e1a8bdd0238ddaab0815473779fc3c511ad34c9faac7d92aab1aa539be3d49aa34e4133e660aa47952b74ca651233bb25f8cd7a1a949e721ce98f59724b90e5188bd3fd93f55cadaf5a35216c25dd79f9ad40500c6b0ddea38f1489ee4cafa1911a8e4d904795dce0edd14b195a00b3daf0e047d1ea3b380fda61650bb736c51fa67549a4bbd20e0b1ddeaf5f4eee063231da191f051fd6ab4debbaa3a85467f67802afab39039979de00d15e219fa95a608f5c1ecb594c40bd43e89efbfe58a583646576fa62575a942713e75c1300ec6991dacb558501145300259028adbd70873e2f13c002cf3207229880263e3125df68b2d55208796e390358113b63158b2e913e4db84db68f0d9e0b0ec2dd4e19ff7400ce8b2123fdc9fbe2982b43559699b3d74f4629e0e656275ef1eef596b565ce3c032b7436b10a961b48948d2aabebee8a0f4c4211c443b88acc4666cfb52255c96c4d76d7f2ac29335931f887c3626395ef22f8e470f404da1275fca8994ae6d06923673677aa84410792b0f5bc4d7e6239aabafcc6dd1ec09178bf726040609d8d78774a2bab16587858ac6991b2b056ad62f6f5cd8a97e600eefec86b688e5da05759909a5ec6da0e22d7f803ffd46e67069c803ec8f1ec7d7d9b744b2573ba16acc3d606963c78d4e11d3103ec49623f77b14d7d7f54e6fb310f10a9ec04740fa005b0de6f17737185146a95f32647be6adda98e9a9e96df3768ed87fe2e86d50cd9c5830f0efbb8481403eaf3d098f416401ec82013c7636a66f412f9cc7d527128f083a2fb13bc23f5a810fd0caaa39b2688fe544798234843128d5bcdfd40ed3833c9b275f10cd9d2301992bd2528723c6a38684e420d2be4049c6e81563b699713e9ef2a23378f9b04121102cf9298226236e66f8ec8811877a5253958e840b01bc8224c384e84ed45b607a0b367dab45f0c58fa0a8ac357f611a1bb3e94944c32efc74202ad9d792a34fac682b5548415775b57f41dc9a2747ee3712f2f92d397a88a35b57423b15e84df0e1d26cb7f85b9eaf7c76894491b6623ea9e91bf8f3b80af22f133282f751f972d26f649459b2d0cf44497f0c154606751114819787b212a8d7b15fe1480cf642baeafb125d0117835029c3ad340b2cf8f5087237fcbda2d4ae63a5d4739e1a7e3439dd6ddc360e2de3b4c401cd94e733a7e5e4dfbb47b6b7756c1d3fe1581ecdba3d2ebca8ad1b3bb26d67e29ff1d83acfec6e7b48e0bd9e2d915c2fa0081103dac225f8aa443f268ed27cb6cb7f58002c79d01f70bee104138e14b875418b84f26aa5d688a2cedec493e144c463f5a36ebf9e1f673d49adf97c69ebf218bfd2bfd71d19dfd50db0e496a487f38f4f2471f1e7267cc3d1262e70ab0c91b5793a852cc9dd4651680830e8dbaa6724dff2e85889f03ccf4bf865503618ff192dbef7cb5d3a2eee4b0c9f0b2d379e734631b3087354c2c0bbb90c0bdb1f0a069abde773aa5ef04e7dfcd567f47d608a3aecac5e3333056cb4f866c3daa0ffd82e0526875498b41ad46965c0fe56b973b98e9f83f382448621903d730e1e99098d7bd7c1ac7d6a29e257e3397c1c0b9fcb4c31bb9e108631470ab8e2e76847e228fa65e05626681911a531f741886301fb84ef0862c0d30d678df9454167e622c583e5b2eddfa334b6d9ca93ae2fd1ba8efc26d341269729fd3a648cd02475a6d02d18501a291570bf613b1921997202319fb0af6e160a6a069ed256d97f95f3398a5ea31cbc2d1a248424c20a1b127ddda90a5eabf288f1cf75139653429ee300ca6071010778e9253ac6c322c8c963b7701f992111cf1598e1beda45bb1f41b39d8a41f5df9c5a4cec370a20a9e780a91982d9842df4ca40846de1d88e3cfe722cfe3874040082815bae91a40603adde30e1fcea9c51d74c3948e1474493554703c40899d792eaa5de93246540ac84a00d32a4b7c3a83653be848080d3418badb739694b0526c64b80b3ccd8fa2088fcdd0f36c2138e569f98d19f72a837a32c81100b007c2d52706c75f2ca9aefeb88de778c616a6051bd83bd260fabd4a542ac6c955b93671d584118239cfacb5a648a17a06465b8790a7b6de0a1421334b686f7e83898da8b1011032385b6d809495b5c7cccedd11171f2f415461626b799ca3c5c6c9d0d7e4f000000000000000000000000000000000000000000000000000000815233601",
        "0093db6a3875630e0a0d50fc8c412f26100f23f37c99ca2e4305e2630f39a90727eb611b64e0f601103ea9151e0052223da741af05cc61fa8f38791b79c2c7180bdd546d2d90aab337844ae419fa294c3800c4932373eb274a6e1a63c1f992645067b38e9946882a1dd4429a43de5f0d3df12255806fac65960dce6b796ecd167f56e176f5c9a7c0dfcdc69c187e84fc231f4476ffd941758f383d7ba0c5de8469511505d7e3494c2a1014d4fbaded59f15904923105ed5f77ff00b5ba519e088b2c0161f1511f03c288ad8af4ef50466be1ad15c597c58529775dc5518781c1068c25fc7f0900887fb49becdcd2e1a18bbe9f966eb1cd3146002d158e016402947b56ddc97e4c746bbc4d6f6c77f9094009cbee8deabb4b0fa63183c842f2cfc2a6d1f4d212333e3396b8a3dbcdb708d5984938696457c63fc9353da758340f21e818b2457f19f89a9140e6ac5d45bc383a149281f57ac42bc644a25530c11169d5b7d3ad8f00f0495dbca916f5b3345c4ffc4c2d68a3a9e54994a81b11b49894cb9db75d9a46aca602dd4ed13ce1404c4fe46b41124ddfc45a284113ec2bca17ec5dbd839a362af6cec142d2cbe0ca64e787cfcd9c7ed5f560a443d8f2d9aa0066d8ffe6d20cb9c5b60b4c86fff5711fc04be49e108eb6694f6f214ea59f08efe2f17c04ab1eb9f96b9d6c5fc4435c9344292eaf725d3e56e017885c828a1fe15e4c428fc3e5415f33e784eaa17a65d75091cbfb77f9ffa62327eec4b798c9c6e569ae7ef0d96db1ba1350b6167bf55ec8dce6bf2caa0f99228399efe898ed628c252c45b7b94191543c6cbb9ed77a0549f65e588975c23e537e1078f328fa52fc39e421679b5a53ba2216271055fde3b385bb901a61bd519d0b89485f8ab4f74b579b6a0db27c60bce7a2662021572b5abc2b2ed7b492a6960e8e40b1b811c25de5a139b66c8b557c3a17519466cea86c40a44b0d7ce677c10d916a39a242ff37e4c70c2e0b3e44c1290f820d9ac834a771e780554fe81990b149bf022708befa44619cbbde4e5c1968d68dce973503f24faa754bf89c74f47221aafabc82525904578259bd1167ebf115ce0e9f4f7819e56a604a21d8adcdda6aae1bdce2f4db2a0f8b95764947d72117698f71df6c568f453b5a699f7a1a2b5fa4e3b47774f03eba086c4ed60a7ad9f6ab58018ee63b7de2ff829929009dfb1a9b97da580d93630417d5475f9d60c39d1b838a5bbd89bebbc7bd823c990c74653d5d865031fce70ca8f6360e0f7aebff54cf79ac5721bc4497cac8beffae31aaa1bc1a19a281ff9c09af31c968ace4613ba9ebb213f1d01319a89c7082d2b79406a148eddaedc1d5994fe8ee308432ef5a096e689e6656face16e39161622893a7a0be8a6920dfc8661482df71dfce5d355212383f694049765d310d219918cc831f0f01862b7bbb063c09e06b8f29666e2ed83dbbdc32eec430ae2bac0791947d0ef7ae1c42957031f62fb10676bef84bc3f2b5210107b54200cfea278d47e3cbb002d95c0a8e4fb1863e554f3a6150872758e15a1fc47839ac35987efa123e8194efd716509b7d12c09db6ae2cbf9828f10651172e449f907c1a314a3d5bdf01b8e01f19a13bdd16076d78ef2b4072a5a5d5a3875581d71fa023c2872216fe5bbd6f209cc1aa9e2d8797b54f4ac4fa02af789b383c62241400b228a7c49872f387dce97c70497ac401f5c40e34a8f649d3c245c59271f355ab77832bd053aba0faf2bb677b324b1ea36ebc4ae1f3177666b14df719d48677f70b117aafcde9f075384ba6c65adb7a3cad39d6b9b82fb1722f00c9c7e5c503b2bc392fefdc8f2a59f91555"
      ],
      "sequence": 4294967294
    }
  ],
  "vout": [
    {
      "value": 1.0,
      "n": 0,
      "scriptPubKey": {
        "asm": "OP_RETURN 2933b040f192877d84f9756d6cdc7414d820227ed66746066b42d0698b9eea6b 39e62bc8d99d31d4371d5b9e20041bb76a42d0b02c152174f8ee507e1cad014b19c60be8f9bd11f4173d7bbe00243b974a62f0900c350154d8ce705e3c8d216b79a66b8899dd7194775d1bde60445bf72a0290f06c556134b8ae103e5ced410b59864ba8b9fd51b4577d3bfe40647bd70a22b0d04c754114988e301e7ccd612bb966ab48591db154b79ddb1ea0849b37eac25030ac95a1f4786ed0fe9c2d81cb99468b68793d917497bdfb3e80a4bb17cae270108cb581d4584ef0debc0da1ebf926eb08195df114f7dd9b5ee0c4db77aa821070ecd5e1b4382e90bedc6dc18bd906cb28397dd134d7fdbb7ec0e4fb578aa23050ccf5c194180eb09efc4de1ab39e62bc8d99d31d4371d5b9e20041bb76a42d0b02c152174f8ee507e1cad014b19c60be8f9bd11f4173d7bbe00243b974a62f0900c350154d8ce705e3c8d216b79a66b8899dd7194775d1bde60445bf72a0290f06c556134b8ae103e5ced410b59864ba8b9fd51b4577d3bfe40647bd70a22b0d04c754114988e301e7ccd612bb966ab48591db154b79ddb1ea0849b37eac25030ac95a1f4786ed0fe9c2d81cb99468b68793d917497bdfb3e80a4bb17cae270108cb581d4584ef0debc0da1ebf926eb08195df114f7dd9b5ee0c4db77aa821070ecd5e1b4382e90bedc6dc18bd906cb28397dd134d7fdbb7ec0e4fb578aa23050ccf5c194180eb09efc4de1ab39e62bc8d99d31d4371d5b9e20041bb76a42d0b02c152174f8ee507e1cad014b19c60be8f9bd11f4173d7bbe00243b974a62f0900c350154d8ce705e3c8d216b79a66b8899dd7194775d1bde60445bf72a0290f06c556134b8ae103e5ced410b59864ba8b9fd51b4577d3bfe40647bd70a22b0d04c754114988e301e7ccd612bb966ab48591db154b79ddb1ea0849b37eac25030ac95a1f4786ed0fe9c2d81cb99468b68793d917497bdfb3e80a4bb17cae270108cb581d4584ef0debc0da1ebf926eb08195df114f7dd9b5ee0c4db77aa821070ecd5e1b4382e90bedc6dc18bd906cb28397dd134d7fdbb7ec0e4fb578aa23050ccf5c194180eb09efc4de1ab39e62bc8d99d31d4371d5b9e20041bb76a42d0b02c152174f8ee507e1cad014b19c60be8f9bd11f4173d7bbe00243b974a62f0900c350154d8ce705e3c8d216b79a66b8899dd7194775d1bde60445bf72a0290f06c556134b8ae103e5ced410b59864ba8b9fd51b4577d3bfe40647bd70a22b0d04c754114988e301e7ccd612bb966ab48591db154b79ddb1ea0849b37eac25030ac95a1f4786ed0fe9c2d81cb99468b68793d917497bdfb3e80a4bb17cae270108cb581d4584ef0debc0da1ebf926eb08195df114f7dd9b5ee0c4db77aa821070ecd5e1b4382e90bedc6dc18bd906cb28397dd134d7fdbb7ec0e4fb578aa23050ccf5c194180eb09efc4de1ab39e62bc8d99d31d4371d5b9e20041bb76a42d0b02c152174f8ee507e1cad014b19c60be8f9bd11f4173d7bbe00243b974a62f0900c350154d8ce705e3c8d216b79a66b8899dd7194775d1bde60445bf72a0290f06c556134b8ae103e5ced410b59864ba8b9fd51b4577d3bfe40647bd70a22b0d04c754114988e301e7ccd612bb966ab48591db154b79ddb1ea0849b37896433b746cc70b318863bf3e99826356cd57842f478b51c99f27e020e19eb6a",
        "hex": "6a202933b040f192877d84f9756d6cdc7414d820227ed66746066b42d0698b9eea6b4db00439e62bc8d99d31d4371d5b9e20041bb76a42d0b02c152174f8ee507e1cad014b19c60be8f9bd11f4173d7bbe00243b974a62f0900c350154d8ce705e3c8d216b79a66b8899dd7194775d1bde60445bf72a0290f06c556134b8ae103e5ced410b59864ba8b9fd51b4577d3bfe40647bd70a22b0d04c754114988e301e7ccd612bb966ab48591db154b79ddb1ea0849b37eac25030ac95a1f4786ed0fe9c2d81cb99468b68793d917497bdfb3e80a4bb17cae270108cb581d4584ef0debc0da1ebf926eb08195df114f7dd9b5ee0c4db77aa821070ecd5e1b4382e90bedc6dc18bd906cb28397dd134d7fdbb7ec0e4fb578aa23050ccf5c194180eb09efc4de1ab39e62bc8d99d31d4371d5b9e20041bb76a42d0b02c152174f8ee507e1cad014b19c60be8f9bd11f4173d7bbe00243b974a62f0900c350154d8ce705e3c8d216b79a66b8899dd7194775d1bde60445bf72a0290f06c556134b8ae103e5ced410b59864ba8b9fd51b4577d3bfe40647bd70a22b0d04c754114988e301e7ccd612bb966ab48591db154b79ddb1ea0849b37eac25030ac95a1f4786ed0fe9c2d81cb99468b68793d917497bdfb3e80a4bb17cae270108cb581d4584ef0debc0da1ebf926eb08195df114f7dd9b5ee0c4db77aa821070ecd5e1b4382e90bedc6dc18bd906cb28397dd134d7fdbb7ec0e4fb578aa23050ccf5c194180eb09efc4de1ab39e62bc8d99d31d4371d5b9e20041bb76a42d0b02c152174f8ee507e1cad014b19c60be8f9bd11f4173d7bbe00243b974a62f0900c350154d8ce705e3c8d216b79a66b8899dd7194775d1bde60445bf72a0290f06c556134b8ae103e5ced410b59864ba8b9fd51b4577d3bfe40647bd70a22b0d04c754114988e301e7ccd612bb966ab48591db154b79ddb1ea0849b37eac25030ac95a1f4786ed0fe9c2d81cb99468b68793d917497bdfb3e80a4bb17cae270108cb581d4584ef0debc0da1ebf926eb08195df114f7dd9b5ee0c4db77aa821070ecd5e1b4382e90bedc6dc18bd906cb28397dd134d7fdbb7ec0e4fb578aa23050ccf5c194180eb09efc4de1ab39e62bc8d99d31d4371d5b9e20041bb76a42d0b02c152174f8ee507e1cad014b19c60be8f9bd11f4173d7bbe00243b974a62f0900c350154d8ce705e3c8d216b79a66b8899dd7194775d1bde60445bf72a0290f06c556134b8ae103e5ced410b59864ba8b9fd51b4577d3bfe40647bd70a22b0d04c754114988e301e7ccd612bb966ab48591db154b79ddb1ea0849b37eac25030ac95a1f4786ed0fe9c2d81cb99468b68793d917497bdfb3e80a4bb17cae270108cb581d4584ef0debc0da1ebf926eb08195df114f7dd9b5ee0c4db77aa821070ecd5e1b4382e90bedc6dc18bd906cb28397dd134d7fdbb7ec0e4fb578aa23050ccf5c194180eb09efc4de1ab39e62bc8d99d31d4371d5b9e20041bb76a42d0b02c152174f8ee507e1cad014b19c60be8f9bd11f4173d7bbe00243b974a62f0900c350154d8ce705e3c8d216b79a66b8899dd7194775d1bde60445bf72a0290f06c556134b8ae103e5ced410b59864ba8b9fd51b4577d3bfe40647bd70a22b0d04c754114988e301e7ccd612bb966ab48591db154b79ddb1ea0849b37896433b746cc70b318863bf3e99826356cd57842f478b51c99f27e020e19eb6a",
        "type": "nulldata"
      }
    },
    {
      "value": 499994.9155,
      "n": 1,
      "scriptPubKey": {
        "asm": "1 f0fdf4b2c16dcc14fb8b210dd3c1f966633d4d2aa3038c2ceb564c0e2f127d3d",
        "hex": "5120f0fdf4b2c16dcc14fb8b210dd3c1f966633d4d2aa3038c2ceb564c0e2f127d3d",
        "reqSigs": 1,
        "type": "witness_v1_scripthash",
        "addresses": [
          "3QJmnh"
        ]
      }
    }
  ],
  "blockhash": "32a2d379a33ec88ae1cb3a8a1a44f2d12b76aebf574ecf7ac16b289397ed6cd9",
  "confirmations": 1,
  "time": 1764176557,
  "blocktime": 1764176557
}