{
  "hex": "010000000001010e065605019bbace6f6221e6ba566815298f5496cb24cfe45ae939819c9f84540100000000feffffff0250771315792d00002251206998d5d8c823f111c8cf5266b7e6bf4ae5e6aa0a272aac41519622bc0b4cb27200e1f50500000000fdd5046a2080e897489339465d839aade3e4913c6c1774a84ce53e105448acef744a385d884db004e24209fb55ccb4f13307c0748ebf15d206caf06840d1a52c53cd62a961378240c26229db75ec94d11327e054ae9f35f226ead04860f1850c73ed42894117a260a20249bb158cf4b173478034ceff5592468ab0280091e56c138d22e92177c2008222699b35acd4915367a014eedf75b266aa900820b1c54c33ad02c90157e22062c2897bd54c3471b38740f40e3f9552864a70e8c05125acd34de229e1b702c042e2a95bf56c145193a760d42e1fb572a66a50c8e071058cf36dc209c19722e02282c93b950c7431f3c700b44e7fd512c60a30a8801165ec930da269a1f7428002a2e91bb52c5411d3e720946e5ff532e62a1088a03145ccb32d824981d762a0e24209fb55ccb4f13307c0748ebf15d206caf06840d1a52c53cd62a961378240c26229db75ec94d11327e054ae9f35f226ead04860f1850c73ed42894117a260a20249bb158cf4b173478034ceff5592468ab0280091e56c138d22e92177c2008222699b35acd4915367a014eedf75b266aa900820b1c54c33ad02c90157e22062c2897bd54c3471b38740f40e3f9552864a70e8c05125acd34de229e1b702c042e2a95bf56c145193a760d42e1fb572a66a50c8e071058cf36dc209c19722e02282c93b950c7431f3c700b44e7fd512c60a30a8801165ec930da269a1f7428002a2e91bb52c5411d3e720946e5ff532e62a1088a03145ccb32d824981d762a0e24209fb55ccb4f13307c0748ebf15d206caf06840d1a52c53cd62a961378240c26229db75ec94d11327e054ae9f35f226ead04860f1850c73ed42894117a260a20249bb158cf4b173478034ceff5592468ab0280091e56c138d22e92177c2008222699b35acd4915367a014eedf75b266aa900820b1c54c33ad02c90157e22062c2897bd54c3471b38740f40e3f9552864a70e8c05125acd34de229e1b702c042e2a95bf56c145193a760d42e1fb572a66a50c8e071058cf36dc209c19722e02282c93b950c7431f3c700b44e7fd512c60a30a8801165ec930da269a1f7428002a2e91bb52c5411d3e720946e5ff532e62a1088a03145ccb32d824981d762a0e24209fb55ccb4f13307c0748ebf15d206caf06840d1a52c53cd62a961378240c26229db75ec94d11327e054ae9f35f226ead04860f1850c73ed42894117a260a20249bb158cf4b173478034ceff5592468ab0280091e56c138d22e92177c2008222699b35acd4915367a014eedf75b266aa900820b1c54c33ad02c90157e22062c2897bd54c3471b38740f40e3f9552864a70e8c05125acd34de229e1b702c042e2a95bf56c145193a760d42e1fb572a66a50c8e071058cf36dc209c19722e02282c93b950c7431f3c700b44e7fd512c60a30a8801165ec930da269a1f7428002a2e91bb52c5411d3e720946e5ff532e62a1088a03145ccb32d824981d762a0e24209fb55ccb4f13307c0748ebf15d206caf06840d1a52c53cd62a961378240c26229db75ec94d11327e054ae9f35f226ead04860f1850c73ed42894117a260a20249bb158cf4b173478034ceff5592468ab0280091e56c138d22e92177c2008222699b35acd4915367a014eedf75b266aa900820b1c54c33ad02c90157e22062c2897bd54c3471b38740f40e3f95528a1371b365974dfdf57ff0308b7baef06028f092292106d3422e876e78f9859902fd75090dc0c82234254b17e0edbc1cee6825b989644c2b91733d87b14f5b053e818cc9a2beeb99ff236985e16f970c8c39f45758cc45a2952ccd1d11f48b6a74d3500eb951628178ecc8abda96b5bdd02ec978a591a9611e16274299bd450fadda30a516286d85d6fc8b8ace2f272ec499392a876ca5890f8251cfb41ad909929602d7670b5f9c1776b9bba78b6478d32d98f30f22d80794023fb1b98f9ad0a75f0c392755bdaf2f7688ce1a8675096638e90a05f5a88de9249669e5a75528638479d71206bad83b8043dcb2c1f018de9a07e2ba7a26618b3f73fca3cf5b728a3552455c44b25a94db1d72ec0d50939d3feff5114f8fc64965f299cf56f028037253a2a3a21967defadd9cdd61f3d1fcc707e44fb864ded48aef11e277008c74788d907cbc37933198362ec279dd50f18a626de306f63d36af475794552a853cb773dee1f79604ee4ebf73fb7399d51da0c72ca7e120a38d1ada97619284bb5772a25871b0dd12740ecd510b786ea1d38681ce2fc8540d645feb44ba91afdaf1dad5a0dcbdce6aca6e001a8dbc36eef30549a9c49740717bc0da38f090d6eeec79e1265d12f96c68475f4951d432d7f1fa6dbc34b3f9094d6b4aaddb695fb9c3282a636a05ca93f608d4fa4f86c5723d640a72d41cfd37eb27d6f87bcf509b2b4497ab67f61149a8773b06617cc407703a429c2583d8d2f04848419740076ddcc67de0ca71e034d688711fa42b941a0c1ec8114363685c97ada4099c0aade30f20bc25c6a939e2a36db49cb8791b8e26f8de7d4074a2f74496b1e0e53b9aacfa1afd7c4930edf543527015624bccd5e9f4ca4566cc6dd9c5ce511975dd55a43df1ddef680f18737bb581ee90db382bb80ec5e566399ab8aa41ae8019fe3ef5ebe355d976bc69f5fce825555cd59307110bbeccff85f9eefca6d79ee7c2fbe827d614c0bf2fa9243d32ae6af6d05ed5dc3c793ef438035f9e4f15db2747a2612767f5a3977af56fde547e215594e2c3bd781b33e5eb3edfb226fb49c3930e0db6c8a6d86ab0938dd303d2589942de0751ce5a7f86fcad0ab30569ac7008bdeb819151714f85897739b84c736fb8158e851114c8bdaac3514b6f1864cbb89123028fd56f5e92ef9236e0394ff6c057c730634aeb0cd241516ddc273cba3f586ae5714473f604e51ea1595b23b425e80a025438ddb07e7680809d26489f4302eb6777264ad27e5d35cf71e1526b228b215b05a82a3b9f0a4709c7a39e65387aeee877c1bbd79d98dc428a3b014abb7178de9b3d26e54331334e5ed2ccba71cb1bb5f3e9b9c2ee8cd59d98699a5c6d50dc0971446ff967c85701bdc0498ba21891f78956ceede7f095f78bc497ed9b8b777189a783eb54ebbf5fb2b1277b97b1c52ced9491300c931b63b45418114c70829cdb056e480a828603752572b323d067243707539d0b427ae830f0dd6590d8458bb98019006a7541bd64848431343226c0d32142e86912e62df52603baba5f69be4897dc7051dbd497e6effc341455e4c82b7e0fe2899b775bc8f805ef21e9e7a7d04bc394fdc7e0b0b888973bba37bc7c7cd0ae1c45015521bcc677d577d2dd94907002ec8306eec71eb0bae7fdc9b2524bbfbdcaece0ddeb0ebdb88833712ed64a84603e56cce0587b4075398616b66bd079424b9621c5714c3c9b4e8cbe3e5aaf190c6dd12dfca17dcb743222071e21189d2c48f87cbf06dcc9c413babaef6fda88fb6fa9c0a470db7cab732c9cdde0fda043ffadd44d52bbbe952d335b975ef0294b0fa7cbba094b7bd07ba9384db0b17f78c1c011e8516dc6c7b44ccfae5bfd600ca8823cc33788a3564d467b812a8cc498fff59952f06fa575f5d4fd4b9c09e5bf61c7c5b0ed1cde066eb0eecd75ea67a598fb690b1d50de85ae1de727cdd5eecaa80eaef3cdb29465191a1b1c7f6cdf81212e936b791030bd86e1f1e62afbf060743cf22c9883852701d01379d731bb006107ca7b14ae17c88fa69f425623766a6e809ce5887f7fef7449dc07cbc840bc786ef9eb01272f1ce39130b6b1e506e56b3189b3a626efeaa512e687ddf79625c1e062925db824996071a906c4528662739ea6ed1c377296ce5ee711398b262a73065dfc8c6c4f7de158d906f2b237346947cacb56df8765982ce677ab0c014a5884ff1b0e14be2eba986be9c719e20ffc34433ed0efbbad3f52c8e4bc926291b6ae2485c69b1af4c82dcbf711bf8a1dccf32cf0758f0cd4b184f6d0609ebf63f306bdf4a135b3c87ad97f6338193d5d8eb92fedce1716075d7ac56dfb0572a726d9f5b1bf6d2deeb11e09febbc2ac0e1412498005e425862223cf443f31fd91c2ad574ea6fe608c5c1ba7b95b9625386d6a9ba40843154e395da823c6f2461287e04dae7fcef8eebb8fbb3c54f70571e02b33e015bfd7b696bafcf882a3b3126f7ca641d1d89e142f20e2a1b1c54cda90d09a3195fa4131115ec421e71cd1f3bfa5e4859674a30443826a204a66876c93569cdcb7514a5ac761ad5dac1d0abf13e269e24b0b7d97c42f13987ea9349ee1b37cc44880241e4ade10afe88c75921bd5d00b3fc573328ae6c76abba7859f6516aee74cd9edf07c76e29de9ea3e8b2d0dce87aa7eb21588f288fcc993e74e7a1cda92a97b533eb24dfa5c8c0fd3d5d969a5f171bd785569ac8df7311d189b7a2ca3ad3cfc34bf68e0467bb61133c9ae9633b911b2ba3257b53ffee1062f8e515f9e10a354e3d67fb62f81bcc28c3e44bbe5914ff36fed93b7af7a7e23552820300bb785fb7ceb2a0fe27d801a4879d4c5d0a614dbfa5959465915dbc5359972c1cbc40e80ddd86916c5c00197f5f9d02011e107091b434ff97ef2e579a1e55b508bdd5624780c939ec45ba935fd4da9dc5e7f16513ba5ef082de7db3884c19b718a849c13f412829e89279f931ba770722ded083ff7829f42a463267d1187cec34b4f74cca7290aa03df5c7273b7a97fa6d27007b89b5d44110d01b9b97e7ebb88e9333032a57cd2f5cad1a92f64451cebfbdd3a6e066e83db3df13506fa733eee13c7a89b310dae4c70d82f9bf0b286de3366cd106ba7b0cb1950a5f214501456051b54188fbf3b517ce10e5ffd33790d7c2f71da94a866c74786c4a54b229f019168804b0603d850d21c55c1eaeb66161869e06e37d956598da0a0fdce7d0e1d467b547e31b0c4edcb17c6f0afbd21465cec2514e5984f1c06c401858b81e97c1f18e8eb7428176a3889b4a4588d7daf5a89a01801809691976a1fe6e9f1b433cf7c85d16e40e11e1a9f6a9c8e80b121a1c394f76868ea4a8aeb5bed1f5f7f9052c55586c8e9ea1b1bfc6cbd0e1e2f5f8041728455c8f9199b6b9ccd3d6f70b2631383a55717d86a2a6aaacafdee2f1f8fe0000000000000000000000001223314401fd2105007cc36bfe6f00c520b4f065a6dcda61f2dd6216cc62446e4c5172e782612e2057092f49816ddb9125f3a9f65e0d64e647ce84980767591520d11a6c9063f6607539e0ac93fc33b8656f875ccd6c6bbc89d117fcc1096307ba1da3e8e204f74335078ed4297c13ff316f18e01c0f6da514c5b758c4af61ea07f8c614acd2331784e96364e0ee6b7d45629cf80826d378e50c4ea3137ef591d568c602d695fda900cb805b121436202630a952f50210179d25fcf9118f56e091a4a749acf5c0226da9d3094c91a960e622184b3b297ed6224241040fd807991b117f3d02b903e29457818fb696bdb1252eeccbdfc0272e48a8088b2dd54f357394cb6440544818b63b312d44f90151f793bdd4d14d81d9b22ebf96d190d955a2a90f73177fbb942042bbfbd0ba56349fa96309c4f0aaa84b2528836778ba75a387d0a1c3333ec38afde70bca201955fbb740dbd31f8c801951dd6bf6c6ff8aa62cfa740e5764f899d5d32b7f108029a2184806ae8b9b4b78570ff5fcbfd0511a6c1a7d88023277e0cec3c3844a1429dbc21da3d400a6080d6fbb7a6519438d306f580606aa047ef964c8958cb70be59ecbda678c3d81e40c481a5bc55f462f43ecc99da9da564d6dc86ad808a58bdcb336b953b32c096db76b00b9ebbbb9e58727d20269399be5c68179606f0b13dbbc8a0cc3cd32675f52c858f4e14b80549e30ab3ddcbdf1987434422e2f23ddea0b127d4dc1ec71c5400cc97072c2f8aa0fb092188efa8ee973988115103711ae0e559a6892385398c8e2f1d6099a1028e5409df41577e1b5168a722c076a30491c030b0a2c5f4a20f3472c2ec7462e12994a5656476e04bec23c2bdfd4e1327909dc31dc1662b1c8d6619b5d1653ec63f21082dbfac07b204987fb2e6d5379bc0eed555b8215ac7a69032112cc7010eaf13ece60920215068aeffe9178aebe583155a308a4ed8902321e153a8214caa6ad9e099d589d9b91e5097d89e4fa4e52dd813c1282cd1d7727b142adc1995e45526bc1b6591e58453a7d270dbbef0b53a71709ed683a589af7527f7f158926d39e8d087d3061f15dcbb5998ecb4a903dbe03530ae8b50e466efe5503d79281b36edb1be61e44b14e2d4de690c718f19be7575eb499d42a8c1b5c4d4e94d7a2592e8f1d4cf579bae555046e5c24fbae624198416e0e0764b6b4284c2d9243155c08a2c631aa16bab1b27ef759c28b27d3260216e1c7c12b6289c2a058d9d1244fb680a7d2410dfef8b38b3d2bc4497f975ed2c79a9268759e6c38a6bf049ad357e4fc7740ea68f796fbdfd56e7a62c8a0dc1523b5d6459db088e1f89f44a89426fdd8c0ad8a9a378503a69b5c5b4651ee4d8d39837815b1e1d88abafef48937fc5e909dbe618e2efc4884cf7f136f8e1e2681ef860ed29507c79aacff33315a7269cd03475021e706674b9f3a9b3f0b2f450787904c9e649c0f1d4ba5f4697aa3bb954ef0921e3854cd16904d95f25ca9662893bbb1e65b9b950dd7388203ec724b8f9f2ef1008d832185cc7768433020f288f686c9b1b2f6dbc99ae7185283c6de8fbce5958022129a53fd0d618052b255ff4337395421b39ed05e43fddb4337c56e5ab51ccc72e0358ee25fb155be40f27db81da0aa69ab1965b5cdcbb6aa6952fce35194fb08fd42f30a531ab3379cc6f009576973b1cc1eeb0563445f0d54b2f1c3bd972fa07a133feee73071768bc2ab6b652784bba7da9fd509d246b39d34e5a559ab95223cab7465bf9ac156b66245d4191161ee907401c84918c54c33a68b6fc935a592588efac9b8d1c2ba27fe7064ced05da7ff5a438ce64ae02c60fe78a8fa48eb16376077000000",
  "txid": "2fd9d1710ee294b7f854e4a58d69cf1ced1237b71ff72d7005c3d989979faa93",
  "hash": "84577a7eae11c0cc776c0a8a44810f05be25c17684e6096d959211b28d63f638",
  "size": 5085,
  "vsize": 2278,
  "version": 1,
  "locktime": 119,
  "vin": [
    {
      "txid": "54849f9c8139e95ae4cf24cb96548f29156856bae621626fceba9b010556060e",
      "vout": 1,
      "scriptSig": {
        "asm": "",
        "hex": ""
      },
      "txinwitness": [
        "0dc0c82234254b17e0edbc1cee6825b989644c2b91733d87b14f5b053e818cc9a2beeb99ff236985e16f970c8c39f45758cc45a2952ccd1d11f48b6a74d3500eb951628178ecc8abda96b5bdd02ec978a591a9611e16274299bd450fadda30a516286d85d6fc8b8ace2f272ec499392a876ca5890f8251cfb41ad909929602d7670b5f9c1776b9bba78b6478d32d98f30f22d80794023fb1b98f9ad0a75f0c392755bdaf2f7688ce1a8675096638e90a05f5a88de9249669e5a75528638479d71206bad83b8043dcb2c1f018de9a07e2ba7a26618b3f73fca3cf5b728a3552455c44b25a94db1d72ec0d50939d3feff5114f8fc64965f299cf56f028037253a2a3a21967defadd9cdd61f3d1fcc707e44fb864ded48aef11e277008c74788d907cbc37933198362ec279dd50f18a626de306f63d36af475794552a853cb773dee1f79604ee4ebf73fb7399d51da0c72ca7e120a38d1ada97619284bb5772a25871b0dd12740ecd510b786ea1d38681ce2fc8540d645feb44ba91afdaf1dad5a0dcbdce6aca6e001a8dbc36eef30549a9c49740717bc0da38f090d6eeec79e1265d12f96c68475f4951d432d7f1fa6dbc34b3f9094d6b4aaddb695fb9c3282a636a05ca93f608d4fa4f86c5723d640a72d41cfd37eb27d6f87bcf509b2b4497ab67f61149a8773b06617cc407703a429c2583d8d2f04848419740076ddcc67de0ca71e034d688711fa42b941a0c1ec8114363685c97ada4099c0aade30f20bc25c6a939e2a36db49cb8791b8e26f8de7d4074a2f74496b1e0e53b9aacfa1afd7c4930edf543527015624bccd5e9f4ca4566cc6dd9c5ce511975dd55a43df1ddef680f18737bb581ee90db382bb80ec5e566399ab8aa41ae8019fe3ef5ebe355d976bc69f5fce825555cd59307110bbeccff85f9eefca6d79ee7c2fbe827d614c0bf2fa9243d32ae6af6d05ed5dc3c793ef438035f9e4f15db2747a2612767f5a3977af56fde547e215594e2c3bd781b33e5eb3edfb226fb49c3930e0db6c8a6d86ab0938dd303d2589942de0751ce5a7f86fcad0ab30569ac7008bdeb819151714f85897739b84c736fb8158e851114c8bdaac3514b6f1864cbb89123028fd56f5e92ef9236e0394ff6c057c730634aeb0cd241516ddc273cba3f586ae5714473f604e51ea1595b23b425e80a025438ddb07e7680809d26489f4302eb6777264ad27e5d35cf71e1526b228b215b05a82a3b9f0a4709c7a39e65387aeee877c1bbd79d98dc428a3b014abb7178de9b3d26e54331334e5ed2ccba71cb1bb5f3e9b9c2ee8cd59d98699a5c6d50dc0971446ff967c85701bdc0498ba21891f78956ceede7f095f78bc497ed9b8b777189a783eb54ebbf5fb2b1277b97b1c52ced9491300c931b63b45418114c70829cdb056e480a828603752572b323d067243707539d0b427ae830f0dd6590d8458bb98019006a7541bd64848431343226c0d32142e86912e62df52603baba5f69be4897dc7051dbd497e6effc341455e4c82b7e0fe2899b775bc8f805ef21e9e7a7d04bc394fdc7e0b0b888973bba37bc7c7cd0ae1c45015521bcc677d577d2dd94907002ec8306eec71eb0bae7fdc9b2524bbfbdcaece0ddeb0ebdb88833712ed64a84603e56cce0587b4075398616b66bd079424b9621c5714c3c9b4e8cbe3e5aaf190c6dd12dfca17dcb743222071e21189d2c48f87cbf06dcc9c413babaef6fda88fb6fa9c0a470db7cab732c9cdde0fda043ffadd44d52bbbe952d335b975ef0294b0fa7cbba094b7bd07ba9384db0b17f78c1c011e8516dc6c7b44ccfae5bfd600ca8823cc33788a3564d467b812a8cc498fff59952f06fa575f5d4fd4b9c09e5bf61c7c5b0ed1cde066eb0eecd75ea67a598fb690b1d50de85ae1de727cdd5eecaa80eaef3cdb29465191a1b1c7f6cdf81212e936b791030bd86e1f1e62afbf060743cf22c9883852701d01379d731bb006107ca7b14ae17c88fa69f425623766a6e809ce5887f7fef7449dc07cbc840bc786ef9eb01272f1ce39130b6b1e506e56b3189b3a626efeaa512e687ddf79625c1e062925db824996071a906c4528662739ea6ed1c377296ce5ee711398b262a73065dfc8c6c4f7de158d906f2b237346947cacb56df8765982ce677ab0c014a5884ff1b0e14be2eba986be9c719e20ffc34433ed0efbbad3f52c8e4bc926291b6ae2485c69b1af4c82dcbf711bf8a1dccf32cf0758f0cd4b184f6d0609ebf63f306bdf4a135b3c87ad97f6338193d5d8eb92fedce1716075d7ac56dfb0572a726d9f5b1bf6d2deeb11e09febbc2ac0e1412498005e425862223cf443f31fd91c2ad574ea6fe608c5c1ba7b95b9625386d6a9ba40843154e395da823c6f2461287e04dae7fcef8eebb8fbb3c54f70571e02b33e015bfd7b696bafcf882a3b3126f7ca641d1d89e142f20e2a1b1c54cda90d09a3195fa4131115ec421e71cd1f3bfa5e4859674a30443826a204a66876c93569cdcb7514a5ac761ad5dac1d0abf13e269e24b0b7d97c42f13987ea9349ee1b37cc44880241e4ade10afe88c75921bd5d00b3fc573328ae6c76abba7859f6516aee74cd9edf07c76e29de9ea3e8b2d0dce87aa7eb21588f288fcc993e74e7a1cda92a97b533eb24dfa5c8c0fd3d5d969a5f171bd785569ac8df7311d189b7a2ca3ad3cfc34bf68e0467bb61133c9ae9633b911b2ba3257b53ffee1062f8e515f9e10a354e3d67fb62f81bcc28c3e44bbe5914ff36fed93b7af7a7e23552820300bb785fb7ceb2a0fe27d801a4879d4c5d0a614dbfa5959465915dbc5359972c1cbc40e80ddd86916c5c00197f5f9d02011e107091b434ff97ef2e579a1e55b508bdd5624780c939ec45ba935fd4da9dc5e7f16513ba5ef082de7db3884c19b718a849c13f412829e89279f931ba770722ded083ff7829f42a463267d1187cec34b4f74cca7290aa03df5c7273b7a97fa6d27007b89b5d44110d01b9b97e7ebb88e9333032a57cd2f5cad1a92f64451cebfbdd3a6e066e83db3df13506fa733eee13c7a89b310dae4c70d82f9bf0b286de3366cd106ba7b0cb1950a5f214501456051b54188fbf3b517ce10e5ffd33790d7c2f71da94a866c74786c4a54b229f019168804b0603d850d21c55c1eaeb66161869e06e37d956598da0a0fdce7d0e1d467b547e31b0c4edcb17c6f0afbd21465cec2514e5984f1c06c401858b81e97c1f18e8eb7428176a3889b4a4588d7daf5a89a01801809691976a1fe6e9f1b433cf7c85d16e40e11e1a9f6a9c8e80b121a1c394f76868ea4a8aeb5bed1f5f7f9052c55586c8e9ea1b1bfc6cbd0e1e2f5f8041728455c8f9199b6b9ccd3d6f70b2631383a55717d86a2a6aaacafdee2f1f8fe0000000000000000000000001223314401",
        "007cc36bfe6f00c520b4f065a6dcda61f2dd6216cc62446e4c5172e782612e2057092f49816ddb9125f3a9f65e0d64e647ce84980767591520d11a6c9063f6607539e0ac93fc33b8656f875ccd6c6bbc89d117fcc1096307ba1da3e8e204f74335078ed4297c13ff316f18e01c0f6da514c5b758c4af61ea07f8c614acd2331784e96364e0ee6b7d45629cf80826d378e50c4ea3137ef591d568c602d695fda900cb805b121436202630a952f50210179d25fcf9118f56e091a4a749acf5c0226da9d3094c91a960e622184b3b297ed6224241040fd807991b117f3d02b903e29457818fb696bdb1252eeccbdfc0272e48a8088b2dd54f357394cb6440544818b63b312d44f90151f793bdd4d14d81d9b22ebf96d190d955a2a90f73177fbb942042bbfbd0ba56349fa96309c4f0aaa84b2528836778ba75a387d0a1c3333ec38afde70bca201955fbb740dbd31f8c801951dd6bf6c6ff8aa62cfa740e5764f899d5d32b7f108029a2184806ae8b9b4b78570ff5fcbfd0511a6c1a7d88023277e0cec3c3844a1429dbc21da3d400a6080d6fbb7a6519438d306f580606aa047ef964c8958cb70be59ecbda678c3d81e40c481a5bc55f462f43ecc99da9da564d6dc86ad808a58bdcb336b953b32c096db76b00b9ebbbb9e58727d20269399be5c68179606f0b13dbbc8a0cc3cd32675f52c858f4e14b80549e30ab3ddcbdf1987434422e2f23ddea0b127d4dc1ec71c5400cc97072c2f8aa0fb092188efa8ee973988115103711ae0e559a6892385398c8e2f1d6099a1028e5409df41577e1b5168a722c076a30491c030b0a2c5f4a20f3472c2ec7462e12994a5656476e04bec23c2bdfd4e1327909dc31dc1662b1c8d6619b5d1653ec63f21082dbfac07b204987fb2e6d5379bc0eed555b8215ac7a69032112cc7010eaf13ece60920215068aeffe9178aebe583155a308a4ed8902321e153a8214caa6ad9e099d589d9b91e5097d89e4fa4e52dd813c1282cd1d7727b142adc1995e45526bc1b6591e58453a7d270dbbef0b53a71709ed683a589af7527f7f158926d39e8d087d3061f15dcbb5998ecb4a903dbe03530ae8b50e466efe5503d79281b36edb1be61e44b14e2d4de690c718f19be7575eb499d42a8c1b5c4d4e94d7a2592e8f1d4cf579bae555046e5c24fbae624198416e0e0764b6b4284c2d9243155c08a2c631aa16bab1b27ef759c28b27d3260216e1c7c12b6289c2a058d9d1244fb680a7d2410dfef8b38b3d2bc4497f975ed2c79a9268759e6c38a6bf049ad357e4fc7740ea68f796fbdfd56e7a62c8a0dc1523b5d6459db088e1f89f44a89426fdd8c0ad8a9a378503a69b5c5b4651ee4d8d39837815b1e1d88abafef48937fc5e909dbe618e2efc4884cf7f136f8e1e2681ef860ed29507c79aacff33315a7269cd03475021e706674b9f3a9b3f0b2f450787904c9e649c0f1d4ba5f4697aa3bb954ef0921e3854cd16904d95f25ca9662893bbb1e65b9b950dd7388203ec724b8f9f2ef1008d832185cc7768433020f288f686c9b1b2f6dbc99ae7185283c6de8fbce5958022129a53fd0d618052b255ff4337395421b39ed05e43fddb4337c56e5ab51ccc72e0358ee25fb155be40f27db81da0aa69ab1965b5cdcbb6aa6952fce35194fb08fd42f30a531ab3379cc6f009576973b1cc1eeb0563445f0d54b2f1c3bd972fa07a133feee73071768bc2ab6b652784bba7da9fd509d246b39d34e5a559ab95223cab7465bf9ac156b66245d4191161ee907401c84918c54c33a68b6fc935a592588efac9b8d1c2ba27fe7064ced05da7ff5a438ce64ae02c60fe78a8fa48eb163760"
      ],
      "sequence": 4294967294
    }
  ],
  "vout": [
    {
      "value": 499980.6789,
      "n": 0,
      "scriptPubKey": {
        "asm": "1 6998d5d8c823f111c8cf5266b7e6bf4ae5e6aa0a272aac41519622bc0b4cb272",
        "hex": "51206998d5d8c823f111c8cf5266b7e6bf4ae5e6aa0a272aac41519622bc0b4cb272",
        "reqSigs": 1,
        "type": "witness_v1_scripthash",
        "addresses": [
          "3QJmnh"
        ]
      }
    },
    {
      "value": 1.0,
      "n": 1,
      "scriptPubKey": {
        "asm": "OP_RETURN 80e897489339465d839aade3e4913c6c1774a84ce53e105448acef744a385d88 e24209fb55ccb4f13307c0748ebf15d206caf06840d1a52c53cd62a961378240c26229db75ec94d11327e054ae9f35f226ead04860f1850c73ed42894117a260a20249bb158cf4b173478034ceff5592468ab0280091e56c138d22e92177c2008222699b35acd4915367a014eedf75b266aa900820b1c54c33ad02c90157e22062c2897bd54c3471b38740f40e3f9552864a70e8c05125acd34de229e1b702c042e2a95bf56c145193a760d42e1fb572a66a50c8e071058cf36dc209c19722e02282c93b950c7431f3c700b44e7fd512c60a30a8801165ec930da269a1f7428002a2e91bb52c5411d3e720946e5ff532e62a1088a03145ccb32d824981d762a0e24209fb55ccb4f13307c0748ebf15d206caf06840d1a52c53cd62a961378240c26229db75ec94d11327e054ae9f35f226ead04860f1850c73ed42894117a260a20249bb158cf4b173478034ceff5592468ab0280091e56c138d22e92177c2008222699b35acd4915367a014eedf75b266aa900820b1c54c33ad02c90157e22062c2897bd54c3471b38740f40e3f9552864a70e8c05125acd34de229e1b702c042e2a95bf56c145193a760d42e1fb572a66a50c8e071058cf36dc209c19722e02282c93b950c7431f3c700b44e7fd512c60a30a8801165ec930da269a1f7428002a2e91bb52c5411d3e720946e5ff532e62a1088a03145ccb32d824981d762a0e24209fb55ccb4f13307c0748ebf15d206caf06840d1a52c53cd62a961378240c26229db75ec94d11327e054ae9f35f226ead04860f1850c73ed42894117a260a20249bb158cf4b173478034ceff5592468ab0280091e56c138d22e92177c2008222699b35acd4915367a014eedf75b266aa900820b1c54c33ad02c90157e22062c2897bd54c3471b38740f40e3f9552864a70e8c05125acd34de229e1b702c042e2a95bf56c145193a760d42e1fb572a66a50c8e071058cf36dc209c19722e02282c93b950c7431f3c700b44e7fd512c60a30a8801165ec930da269a1f7428002a2e91bb52c5411d3e720946e5ff532e62a1088a03145ccb32d824981d762a0e24209fb55ccb4f13307c0748ebf15d206caf06840d1a52c53cd62a961378240c26229db75ec94d11327e054ae9f35f226ead04860f1850c73ed42894117a260a20249bb158cf4b173478034ceff5592468ab0280091e56c138d22e92177c2008222699b35acd4915367a014eedf75b266aa900820b1c54c33ad02c90157e22062c2897bd54c3471b38740f40e3f9552864a70e8c05125acd34de229e1b702c042e2a95bf56c145193a760d42e1fb572a66a50c8e071058cf36dc209c19722e02282c93b950c7431f3c700b44e7fd512c60a30a8801165ec930da269a1f7428002a2e91bb52c5411d3e720946e5ff532e62a1088a03145ccb32d824981d762a0e24209fb55ccb4f13307c0748ebf15d206caf06840d1a52c53cd62a961378240c26229db75ec94d11327e054ae9f35f226ead04860f1850c73ed42894117a260a20249bb158cf4b173478034ceff5592468ab0280091e56c138d22e92177c2008222699b35acd4915367a014eedf75b266aa900820b1c54c33ad02c90157e22062c2897bd54c3471b38740f40e3f95528a1371b365974dfdf57ff0308b7baef06028f092292106d3422e876e78f98599",
        "hex": "6a2080e897489339465d839aade3e4913c6c1774a84ce53e105448acef744a385d884db004e24209fb55ccb4f13307c0748ebf15d206caf06840d1a52c53cd62a961378240c26229db75ec94d11327e054ae9f35f226ead04860f1850c73ed42894117a260a20249bb158cf4b173478034ceff5592468ab0280091e56c138d22e92177c2008222699b35acd4915367a014eedf75b266aa900820b1c54c33ad02c90157e22062c2897bd54c3471b38740f40e3f9552864a70e8c05125acd34de229e1b702c042e2a95bf56c145193a760d42e1fb572a66a50c8e071058cf36dc209c19722e02282c93b950c7431f3c700b44e7fd512c60a30a8801165ec930da269a1f7428002a2e91bb52c5411d3e720946e5ff532e62a1088a03145ccb32d824981d762a0e24209fb55ccb4f13307c0748ebf15d206caf06840d1a52c53cd62a961378240c26229db75ec94d11327e054ae9f35f226ead04860f1850c73ed42894117a260a20249bb158cf4b173478034ceff5592468ab0280091e56c138d22e92177c2008222699b35acd4915367a014eedf75b266aa900820b1c54c33ad02c90157e22062c2897bd54c3471b38740f40e3f9552864a70e8c05125acd34de229e1b702c042e2a95bf56c145193a760d42e1fb572a66a50c8e071058cf36dc209c19722e02282c93b950c7431f3c700b44e7fd512c60a30a8801165ec930da269a1f7428002a2e91bb52c5411d3e720946e5ff532e62a1088a03145ccb32d824981d762a0e24209fb55ccb4f13307c0748ebf15d206caf06840d1a52c53cd62a961378240c26229db75ec94d11327e054ae9f35f226ead04860f1850c73ed42894117a260a20249bb158cf4b173478034ceff5592468ab0280091e56c138d22e92177c2008222699b35acd4915367a014eedf75b266aa900820b1c54c33ad02c90157e22062c2897bd54c3471b38740f40e3f9552864a70e8c05125acd34de229e1b702c042e2a95bf56c145193a760d42e1fb572a66a50c8e071058cf36dc209c19722e02282c93b950c7431f3c700b44e7fd512c60a30a8801165ec930da269a1f7428002a2e91bb52c5411d3e720946e5ff532e62a1088a03145ccb32d824981d762a0e24209fb55ccb4f13307c0748ebf15d206caf06840d1a52c53cd62a961378240c26229db75ec94d11327e054ae9f35f226ead04860f1850c73ed42894117a260a20249bb158cf4b173478034ceff5592468ab0280091e56c138d22e92177c2008222699b35acd4915367a014eedf75b266aa900820b1c54c33ad02c90157e22062c2897bd54c3471b38740f40e3f9552864a70e8c05125acd34de229e1b702c042e2a95bf56c145193a760d42e1fb572a66a50c8e071058cf36dc209c19722e02282c93b950c7431f3c700b44e7fd512c60a30a8801165ec930da269a1f7428002a2e91bb52c5411d3e720946e5ff532e62a1088a03145ccb32d824981d762a0e24209fb55ccb4f13307c0748ebf15d206caf06840d1a52c53cd62a961378240c26229db75ec94d11327e054ae9f35f226ead04860f1850c73ed42894117a260a20249bb158cf4b173478034ceff5592468ab0280091e56c138d22e92177c2008222699b35acd4915367a014eedf75b266aa900820b1c54c33ad02c90157e22062c2897bd54c3471b38740f40e3f95528a1371b365974dfdf57ff0308b7baef06028f092292106d3422e876e78f98599",
        "type": "nulldata"
      }
    }
  ],
  "blockhash": "2c44072194b49e49486c87ae6b37abdd6c2c23e2c7b477f70371a1b5276080d1",
  "confirmations": 1,
  "time": 1764179865,
  "blocktime": 1764179865
}