{
  "hex": "010000000001012a06f3c9a0d68ca19fdef4b1e5c4d89acc5ef857b8bf866933e26bf197ddb7190000000000feffffff02702338c0782d0000225120ad71e9596f7001cfba3f9acfc4f933bc660978b0555b77c47752b57c796cbd1800e1f50500000000fdd5046a202fe58c7c08051a05f8011ab42f14756b12d285e9b5ed2113a88aab84689eb4934db00483f05241089bdb75878bef968054baf318ef963649a34b5a2e1db4d1948e8c0ea3d0726128bbfb55a7abcfb6a0749ad338cfb61669836b7a0e3d94f1b4aeac2ec3b0120148db9b35c7cbafd6c014fab358afd67609e30b1a6e5df491d4cecc4ee390322168fbbb15e7eb8ff6e034da93788ff65629c32b3a4e7dd4b1f4eeec6e0370d2c1881b5bf5070b6f1600d43a73986f16b6c923cbdaae9d3451140e0c8e2350f2e1a83b7bd5272b4f3620f41a53b84f3696e903ebfa8ebd1471342e2cae43309281c85b1bb5474b2f5640947a33d82f56f689638b9aeedd7411544e4cce6310b2a1e87b3b95676b0f7660b45a13f80f76d6a943abbacefd5431746e6cee83f05241089bdb75878bef968054baf318ef963649a34b5a2e1db4d1948e8c0ea3d0726128bbfb55a7abcfb6a0749ad338cfb61669836b7a0e3d94f1b4aeac2ec3b0120148db9b35c7cbafd6c014fab358afd67609e30b1a6e5df491d4cecc4ee390322168fbbb15e7eb8ff6e034da93788ff65629c32b3a4e7dd4b1f4eeec6e0370d2c1881b5bf5070b6f1600d43a73986f16b6c923cbdaae9d3451140e0c8e2350f2e1a83b7bd5272b4f3620f41a53b84f3696e903ebfa8ebd1471342e2cae43309281c85b1bb5474b2f5640947a33d82f56f689638b9aeedd7411544e4cce6310b2a1e87b3b95676b0f7660b45a13f80f76d6a943abbacefd5431746e6cee83f05241089bdb75878bef968054baf318ef963649a34b5a2e1db4d1948e8c0ea3d0726128bbfb55a7abcfb6a0749ad338cfb61669836b7a0e3d94f1b4aeac2ec3b0120148db9b35c7cbafd6c014fab358afd67609e30b1a6e5df491d4cecc4ee390322168fbbb15e7eb8ff6e034da93788ff65629c32b3a4e7dd4b1f4eeec6e0370d2c1881b5bf5070b6f1600d43a73986f16b6c923cbdaae9d3451140e0c8e2350f2e1a83b7bd5272b4f3620f41a53b84f3696e903ebfa8ebd1471342e2cae43309281c85b1bb5474b2f5640947a33d82f56f689638b9aeedd7411544e4cce6310b2a1e87b3b95676b0f7660b45a13f80f76d6a943abbacefd5431746e6cee83f05241089bdb75878bef968054baf318ef963649a34b5a2e1db4d1948e8c0ea3d0726128bbfb55a7abcfb6a0749ad338cfb61669836b7a0e3d94f1b4aeac2ec3b0120148db9b35c7cbafd6c014fab358afd67609e30b1a6e5df491d4cecc4ee390322168fbbb15e7eb8ff6e034da93788ff65629c32b3a4e7dd4b1f4eeec6e0370d2c1881b5bf5070b6f1600d43a73986f16b6c923cbdaae9d3451140e0c8e2350f2e1a83b7bd5272b4f3620f41a53b84f3696e903ebfa8ebd1471342e2cae43309281c85b1bb5474b2f5640947a33d82f56f689638b9aeedd7411544e4cce6310b2a1e87b3b95676b0f7660b45a13f80f76d6a943abbacefd5431746e6cee83f05241089bdb75878bef968054baf318ef963649a34b5a2e1db4d1948e8c0ea3d0726128bbfb55a7abcfb6a0749ad338cfb61669836b7a0e3d94f1b4aeac2ec3b0120148db9b35c7cbafd6c014fab358afd67609e30b1a6e5df491d4cecc4ee390322168fbbb15e7eb8ff6e034da93788ff65629c32b3a4e7dd4b1f4eeec6e0370d2c1881b5bf5070b6f1600d43a733f8be4bf049dc4bbe3d684f5da92ee7d4397d499afc3e8155beba433d0dc132c02fd75092d3b40025eacbb3b4a4a0a04e792ed09081c5a5de5b785019a43aa4bceb007bc543e92b838cc76842699284f822cf61bc18e01eb0dced4a83fe1935bf15cf1a9e9012b0a88c58205658b4ac6a0c842eb9b564235d38fb4c425d574f5b8937c2a9c82e1bb44b8128a3a09909d2b31af0ecba923feed3ee2d3e9da59dff47db201bb519290e9a69c971782ac13a19998de2baf98b503b86d34d5730c45558111077049d2fa9f0fa8031f568d0c1f0a9fe13c4283179f12d3fd92d09e79b0e7cb1cf65c7933e01b342e2219fcbe017660bcb4d61992576e392fe5e8ab37b6a2c6b148d8ec858810d342f805b4eae4283680d91f65c36c38af9f9ae4204df673cd214e9c26c2d88441ea8522250262a3fc86b881601ba0f831d6c4eb7661f58a1c1433620cb350ab9208305bfd1e75004e6160f469fd6877bb1b71df673f09f3403400d610fde82d9a5fbc9f940cb25a9013a827f3e69a1f4d60f1e2d041727b44d93593bffd1b3b86d84ba5c8267c123624657c4d4a3fcffa644a2b9c6f478b13bb59319d02a5fd0c13b0941fde28d6b9770f0c92b055689b7bce96516e4b314e7b8329346ecfee22201e5b6a9eadde113e0cf915fc1715c0ad1ad611ae841bab89995a5094882e935339b8bd66745cfcdae7c64f52a1d2679cf828ff91d225e55adfeb96cf051cdded450020f3010ae588ef818e427aa396d4d2ddb514b21394af99a5b1a1bc90e52741f4cb23910f52620c5da92a129379fa405805a123891ca5921cf5ccc8cec6bead4043d67c8ac54e00f4d284c8fb02a67c07ef4eb9377cae78702483890811dc07d0e72705efd397d7e30d31932415b3486aaba7798f0cf415161e0ac32699fccb2a7f7ddd79c4300ec7cc26621ae18faffc8a4f741149ab3492b30aad55cd333fc89141fd3e286d84b292333ba6c19fb6bd09527526a2117ec29d530bdaab7edc3fee33eb2ec6dd8dc9a80be66eebd1a980620d7a686d9345f173922f0148f323f2aa0d27936046638cb3a57bee3b0333fc3799c244debdb72c6d662fe676a86d06613c838f534b8b0ab5ef0d887cf468758a120bfaf5d7e28966a36a545d3f67f3608e097bb9eb7d152fdb132cf8f931116710bde669f6d43339239a0365f871081f39cca926035a00e839ae5ed2080049133c57c949031546a731e9236bc8d2acbbb1c98d4d6445a919728e139929cc05842c096a359ff45e372f436f64d595f4e035fb6c4c96c58a72855d84f6cc18c8d7dff5d1ec28311fb7ca68fe48a0f7010737d49bfe101c1f6b6766cfc2307fae3509cbe75cbc3899489857f66a3e3153ff69eb0f47acd42cd0a6982bd3d8d98f805ffbc3eec17f647464376ba6e76b129f7bad64d2c0db6ca83a324e79364f8f849652aa99fdfdd540c936aecc18412ea72ce63a20a4862c03f90e5aa1a8a684ae0f36730b12ef85b054d7b4f0c65bdcf2dc109364b389f53afb00bb72bcf2a91b936a69113873d886a939684e59a4b65b45cf8e35015fd35d1adc1c3d85a9a2e837b64e0e04ecec51a04bd9ebf016e5f91ef92896b71d59e8cbba58faab51c4e43c4bc0153b82ededf6456ea2a56a41fb5820861f695733e6483827c36c05b4a3f68319845cd02efdc0e0d99717df52b1bafc5b231d5478d7991a0332e1984fe1e68c8e75a8fb69afb5b160c8046317c15913b43081efe6d3e71336850b0500feb0aa4b07449a0042babfa07eb341e1dae148fd6fd44d2a279a5ff56d49a8b6ded31eea0dfc47ca8c97865c1d99cba81ec7f46279ac562e2bb3828c2a778bbe033e653658cd216c18646042a152184769a51423adfaf94475af4edb005bdf6ccd05802be9bb42054716a82fdca2d5ad6d1e1c665419a306f52999d2380403a85844daa75dd4481e585acf2e4956c8e10139f93c9bcad2a6b321466f5af77eeffbad542a22216f050e45814b9536b572adfcbbbc1481f54b3fba8d4fa91733b01ba5148373aa4ea9f6235915a76c8a20b4dc5dbed9ccd2588bc7d330c09449a369ebf703461c649440d3ec6114984293c2265eeae2bc32606b5a46b39a803851c56ef6721b2518052c037620b73b43152d2f4c89ef565fae09576d1ccc25e06d5aa3f45740904e9180fed89d079cb204a2e8c7bcfae513f352402e07d36ddd2d35915c1850b09c838fa2448c537015f90aa6653ac3674a788398f02bac8d72654191e2615b77274497bb085cb6964a65408b0ebbecb0040dd7d2a7189112ec2ea194dfe366c1d11c07d4940a3745548cc2943cf5883d8c4725da950e499885b272b58df2476a4779b5099aed6cdca9473210151740629cc5c071cecf503852dd229335c262b9958e86b340528ffed67d359384193d871fbed584d979f03e1bb170cc5fb5f03e374f49dd4029196f2919037610ed1a440e0833cd9fdb74ad6a039c70ed00607ba0e6a1b0d07b73b8d6ef94cf08f97cd9b558c0d4a8576da84eb2780c8205fab32c941a269b81ccb547ade95e6dc0bb2b1bd84f5995f1d1034e4d755a0b41a2ad826ae225f46e824ba33c1c1d998c0dce7d280083eb2f0fe6ffba49c12020be3d740524c1e491ceba848b7ee12d9d8d7345ddaaa1aa6c984121c98e4eaa6fdd890eb1d4c99fe493b71bf93e94f16092357def1601b8f6b365f59b6de0514afac0a81b72c588b2e01e02ff68d4ea9e9a1143d4d4d4cc816df26618b03fe18dc3a691b28e0dd09b90ad98395791d56afd5314a9b33981bd8eb26afb0882e2eb5485dc01eac5ada8969cb40377212e7b3023b9d9d083ce1844a019101a80a7c09d742d325cfefb62fd60ee836409ded1edad8997d5571177e809e4b0b2ad55d93310f0df333ad8dcb6cfd6b32f946477fd828dc7ec5e7f445838ca58a41fa90342c73d288f588d43fd6aa6220c2533f232c1e5c74eb3959ee92bb7cdb49281e0fe2350dbc63205d698f9a9c10655c199697311b7e83e204ef3ab988f4d25d02e3c6bd73c25b2c9dc95c464a555c286ab227a7ed49f3998e7a5ab90d8bd3e2c0770d89489a286a3ca5d55e106b3c5cf96bd718bb34eb175444463c18fdb103f317966d597e18fbe87fce277b8fee17556fce0e078e94a32eb93c89b0d0836f0a739005fd513a8273e8a57bedaf09ee3578bffdd91f2e12f35c57e34539472639e580603c03bc875dd9624b8932bf025e8b5e1e4c2aea01c994d40388c9b7916a256726f0131e1a230b6bc60c6b8d60fc572082e541c0c8c76af006d38481f1a468b35b2424b288884386f24a5295eed2fb0d12fcc39d9938d3904e9acc3a3569396290002040a151d1e2425606c707a7d8297999eb0b3b6c8c9e3eeff091122292c394d4e606a6d8b95b3dae723263b40494f5a67839496afd0f1fbff000207092b434873849a9fa0dbeaf1f60000000000001a2a3a4a01fd21050028a602d20a587bb6d1e10a4af1e71d38c45d1ba71cb2473871b3156c1435208638231b25b22a1c4ab18e9b45d3d26d950b846f9b61c688493f44d2815b079e9bfc586c1e4bd6ecc8ec252aac83823f7296dcccd0147daa0c2aa11ba7d9f63664d8be06298422b2171407563f70bcaa1047f3278ed32f3bf9215187b479f11af27c41baaeba6efb5ea5ffe19e5a64d3e92dd49e1ee4705ee59c8b710407e2600304bbf4d4b8817408c9e37636214e54973d639e475274099b316b66b0486cb8fc2a4ead11f12284a1c592b8db32214ceae4d5ad5a61c4812ced9484bc291879da7e9e1de7a615f091f07d943cbfc476b51401d763d38cd5235740b8729854318d4eeb44bc24c623e1435f0e890c6979cdc7d92f32230193850d0ad40e6fe8045e993328b4ab362829886a83df6b7314bbd3873c3c6061db44bca563b1b962231e232205d215a64750beede48b1d1c1d4f3c0d9f201f07674a765bf86c398efb6b50cd088c0c8a30031eecb25e50771dbc6f286109ecac00f15b24abe4bb5a3558912c92c09e495a717d2c3d163f151e1ab36f48c98c60efc091d8c4bb7d4a4759e90c60aaa92e4633ced44682182c6d45dca5954811dfe44370a41386150ed4a552da4a517a25a40a33e4cf0de641fa1110f9ad920a77e16927fbc7cd3b3da2f74f58d3a90156218d93e25bed2525f96efddd4b4a34cfc30d144adb4e4af416872c411e13900c234a4a333232922b230d1fbf7a24080f7193e7bc78dd615650f3eafabb9e00c68fb586f0e64eb24934dfba34e4f23c3802c89aa2eaf609333d8697dec6f98384e7d323be0172e659282f91f5424d588f58fc4ec31f25a081ead80938e20a5763f1a9e25dfe4b947971345f6f045a1d0723ed9edf793fc4e672aa820fdd57b8e61e4dbccfdaccea62e02f3b4e0795b39282568187321c017d9271e57be1616bd9de28c0b0626e2a57008fed1f6a1a1770f3897cb534e7668f86017db5782276e767ecff135bff88610dad6c45efac2a8e6bde25f331d2bf199bfaeccf8ee27dbeff7d2a0ca8b7709755032c81bec204bd0401d8e1b366f82b4b2697c9cb1215fadfa4b32fb4daee52d3d074b1d7b0857fca1867509e8b7e6d30ca61a102c9863943b99136dd6046dff13fe440920302b48c504129de0821816f35d800fedddcce3d5bbf963a94ba71eb87b2558c658bcc918742405818c057e9384e74c85576f92e0bb851cbc3f1a964a9319c5fe26cdffa114a4134189197d0d2ae1846b50e7408416ec850a71256304ecd4d45d52ee892b822b099cbf989fb6e8edd80ffc29d22b363298920b348e0d9e2376176105692dae8312b721f5802a215986f47a1e23fd2ab28221d8392f6c55a7d3c3042897bfa25282fb1eb482f6092a7f0a89652078fc2541016cec8e504734c13ec0fb8a043004c3eb4d63d5e3ee3412df0c8528e5b09956a6d69bea4054efe509364fd50f11e4b2a539b75cc872db5f2d8e27a852e7791f6f83e5411915b787871a993c6aa37fda81d730d919bdc1b0dd3083a5e69121f37aea168a33fbef664a1a55a22db8c2c92ca94cd07d95fd71d0b73a6166d8e12fbf2634808698b4d18b73d6ebf36a79e5957e90c169adec95599d48104586c68acd69e1b38d41654afeb53ca31f9882c9aa3a52a8da172182800d3953f443f62f77b8f588bd4463682453fcfc04cf35ffcd07eb5090ba75504f0de26e2befacba8c670021c12a980dae26a15b90835f1c0a8f11e8ea6033c733a7d8860154a67d65c4ef342c863ecb8861ba7324fd8aa04cae536c4b6b6c2a80788c67de090b55625483af8c72d868fe385e018c3a70ff6a99c6363b880000000",
  "txid": "2a159fe4833074a65edbd870c6592ebb4b004ab71a654ac9863487dcd9a3e556",
  "hash": "88214ec3a96ace783cce6d1ec008a91d3ac17a7c4175d962f21da07a4d312a69",
  "size": 5085,
  "vsize": 2278,
  "version": 1,
  "locktime": 128,
  "vin": [
    {
      "txid": "19b7dd97f16be2336986bfb857f85ecc9ad8c4e5b1f4de9fa18cd6a0c9f3062a",
      "vout": 0,
      "scriptSig": {
        "asm": "",
        "hex": ""
      },
      "txinwitness": [
        "2d3b40025eacbb3b4a4a0a04e792ed09081c5a5de5b785019a43aa4bceb007bc543e92b838cc76842699284f822cf61bc18e01eb0dced4a83fe1935bf15cf1a9e9012b0a88c58205658b4ac6a0c842eb9b564235d38fb4c425d574f5b8937c2a9c82e1bb44b8128a3a09909d2b31af0ecba923feed3ee2d3e9da59dff47db201bb519290e9a69c971782ac13a19998de2baf98b503b86d34d5730c45558111077049d2fa9f0fa8031f568d0c1f0a9fe13c4283179f12d3fd92d09e79b0e7cb1cf65c7933e01b342e2219fcbe017660bcb4d61992576e392fe5e8ab37b6a2c6b148d8ec858810d342f805b4eae4283680d91f65c36c38af9f9ae4204df673cd214e9c26c2d88441ea8522250262a3fc86b881601ba0f831d6c4eb7661f58a1c1433620cb350ab9208305bfd1e75004e6160f469fd6877bb1b71df673f09f3403400d610fde82d9a5fbc9f940cb25a9013a827f3e69a1f4d60f1e2d041727b44d93593bffd1b3b86d84ba5c8267c123624657c4d4a3fcffa644a2b9c6f478b13bb59319d02a5fd0c13b0941fde28d6b9770f0c92b055689b7bce96516e4b314e7b8329346ecfee22201e5b6a9eadde113e0cf915fc1715c0ad1ad611ae841bab89995a5094882e935339b8bd66745cfcdae7c64f52a1d2679cf828ff91d225e55adfeb96cf051cdded450020f3010ae588ef818e427aa396d4d2ddb514b21394af99a5b1a1bc90e52741f4cb23910f52620c5da92a129379fa405805a123891ca5921cf5ccc8cec6bead4043d67c8ac54e00f4d284c8fb02a67c07ef4eb9377cae78702483890811dc07d0e72705efd397d7e30d31932415b3486aaba7798f0cf415161e0ac32699fccb2a7f7ddd79c4300ec7cc26621ae18faffc8a4f741149ab3492b30aad55cd333fc89141fd3e286d84b292333ba6c19fb6bd09527526a2117ec29d530bdaab7edc3fee33eb2ec6dd8dc9a80be66eebd1a980620d7a686d9345f173922f0148f323f2aa0d27936046638cb3a57bee3b0333fc3799c244debdb72c6d662fe676a86d06613c838f534b8b0ab5ef0d887cf468758a120bfaf5d7e28966a36a545d3f67f3608e097bb9eb7d152fdb132cf8f931116710bde669f6d43339239a0365f871081f39cca926035a00e839ae5ed2080049133c57c949031546a731e9236bc8d2acbbb1c98d4d6445a919728e139929cc05842c096a359ff45e372f436f64d595f4e035fb6c4c96c58a72855d84f6cc18c8d7dff5d1ec28311fb7ca68fe48a0f7010737d49bfe101c1f6b6766cfc2307fae3509cbe75cbc3899489857f66a3e3153ff69eb0f47acd42cd0a6982bd3d8d98f805ffbc3eec17f647464376ba6e76b129f7bad64d2c0db6ca83a324e79364f8f849652aa99fdfdd540c936aecc18412ea72ce63a20a4862c03f90e5aa1a8a684ae0f36730b12ef85b054d7b4f0c65bdcf2dc109364b389f53afb00bb72bcf2a91b936a69113873d886a939684e59a4b65b45cf8e35015fd35d1adc1c3d85a9a2e837b64e0e04ecec51a04bd9ebf016e5f91ef92896b71d59e8cbba58faab51c4e43c4bc0153b82ededf6456ea2a56a41fb5820861f695733e6483827c36c05b4a3f68319845cd02efdc0e0d99717df52b1bafc5b231d5478d7991a0332e1984fe1e68c8e75a8fb69afb5b160c8046317c15913b43081efe6d3e71336850b0500feb0aa4b07449a0042babfa07eb341e1dae148fd6fd44d2a279a5ff56d49a8b6ded31eea0dfc47ca8c97865c1d99cba81ec7f46279ac562e2bb3828c2a778bbe033e653658cd216c18646042a152184769a51423adfaf94475af4edb005bdf6ccd05802be9bb42054716a82fdca2d5ad6d1e1c665419a306f52999d2380403a85844daa75dd4481e585acf2e4956c8e10139f93c9bcad2a6b321466f5af77eeffbad542a22216f050e45814b9536b572adfcbbbc1481f54b3fba8d4fa91733b01ba5148373aa4ea9f6235915a76c8a20b4dc5dbed9ccd2588bc7d330c09449a369ebf703461c649440d3ec6114984293c2265eeae2bc32606b5a46b39a803851c56ef6721b2518052c037620b73b43152d2f4c89ef565fae09576d1ccc25e06d5aa3f45740904e9180fed89d079cb204a2e8c7bcfae513f352402e07d36ddd2d35915c1850b09c838fa2448c537015f90aa6653ac3674a788398f02bac8d72654191e2615b77274497bb085cb6964a65408b0ebbecb0040dd7d2a7189112ec2ea194dfe366c1d11c07d4940a3745548cc2943cf5883d8c4725da950e499885b272b58df2476a4779b5099aed6cdca9473210151740629cc5c071cecf503852dd229335c262b9958e86b340528ffed67d359384193d871fbed584d979f03e1bb170cc5fb5f03e374f49dd4029196f2919037610ed1a440e0833cd9fdb74ad6a039c70ed00607ba0e6a1b0d07b73b8d6ef94cf08f97cd9b558c0d4a8576da84eb2780c8205fab32c941a269b81ccb547ade95e6dc0bb2b1bd84f5995f1d1034e4d755a0b41a2ad826ae225f46e824ba33c1c1d998c0dce7d280083eb2f0fe6ffba49c12020be3d740524c1e491ceba848b7ee12d9d8d7345ddaaa1aa6c984121c98e4eaa6fdd890eb1d4c99fe493b71bf93e94f16092357def1601b8f6b365f59b6de0514afac0a81b72c588b2e01e02ff68d4ea9e9a1143d4d4d4cc816df26618b03fe18dc3a691b28e0dd09b90ad98395791d56afd5314a9b33981bd8eb26afb0882e2eb5485dc01eac5ada8969cb40377212e7b3023b9d9d083ce1844a019101a80a7c09d742d325cfefb62fd60ee836409ded1edad8997d5571177e809e4b0b2ad55d93310f0df333ad8dcb6cfd6b32f946477fd828dc7ec5e7f445838ca58a41fa90342c73d288f588d43fd6aa6220c2533f232c1e5c74eb3959ee92bb7cdb49281e0fe2350dbc63205d698f9a9c10655c199697311b7e83e204ef3ab988f4d25d02e3c6bd73c25b2c9dc95c464a555c286ab227a7ed49f3998e7a5ab90d8bd3e2c0770d89489a286a3ca5d55e106b3c5cf96bd718bb34eb175444463c18fdb103f317966d597e18fbe87fce277b8fee17556fce0e078e94a32eb93c89b0d0836f0a739005fd513a8273e8a57bedaf09ee3578bffdd91f2e12f35c57e34539472639e580603c03bc875dd9624b8932bf025e8b5e1e4c2aea01c994d40388c9b7916a256726f0131e1a230b6bc60c6b8d60fc572082e541c0c8c76af006d38481f1a468b35b2424b288884386f24a5295eed2fb0d12fcc39d9938d3904e9acc3a3569396290002040a151d1e2425606c707a7d8297999eb0b3b6c8c9e3eeff091122292c394d4e606a6d8b95b3dae723263b40494f5a67839496afd0f1fbff000207092b434873849a9fa0dbeaf1f60000000000001a2a3a4a01",
        "0028a602d20a587bb6d1e10a4af1e71d38c45d1ba71cb2473871b3156c1435208638231b25b22a1c4ab18e9b45d3d26d950b846f9b61c688493f44d2815b079e9bfc586c1e4bd6ecc8ec252aac83823f7296dcccd0147daa0c2aa11ba7d9f63664d8be06298422b2171407563f70bcaa1047f3278ed32f3bf9215187b479f11af27c41baaeba6efb5ea5ffe19e5a64d3e92dd49e1ee4705ee59c8b710407e2600304bbf4d4b8817408c9e37636214e54973d639e475274099b316b66b0486cb8fc2a4ead11f12284a1c592b8db32214ceae4d5ad5a61c4812ced9484bc291879da7e9e1de7a615f091f07d943cbfc476b51401d763d38cd5235740b8729854318d4eeb44bc24c623e1435f0e890c6979cdc7d92f32230193850d0ad40e6fe8045e993328b4ab362829886a83df6b7314bbd3873c3c6061db44bca563b1b962231e232205d215a64750beede48b1d1c1d4f3c0d9f201f07674a765bf86c398efb6b50cd088c0c8a30031eecb25e50771dbc6f286109ecac00f15b24abe4bb5a3558912c92c09e495a717d2c3d163f151e1ab36f48c98c60efc091d8c4bb7d4a4759e90c60aaa92e4633ced44682182c6d45dca5954811dfe44370a41386150ed4a552da4a517a25a40a33e4cf0de641fa1110f9ad920a77e16927fbc7cd3b3da2f74f58d3a90156218d93e25bed2525f96efddd4b4a34cfc30d144adb4e4af416872c411e13900c234a4a333232922b230d1fbf7a24080f7193e7bc78dd615650f3eafabb9e00c68fb586f0e64eb24934dfba34e4f23c3802c89aa2eaf609333d8697dec6f98384e7d323be0172e659282f91f5424d588f58fc4ec31f25a081ead80938e20a5763f1a9e25dfe4b947971345f6f045a1d0723ed9edf793fc4e672aa820fdd57b8e61e4dbccfdaccea62e02f3b4e0795b39282568187321c017d9271e57be1616bd9de28c0b0626e2a57008fed1f6a1a1770f3897cb534e7668f86017db5782276e767ecff135bff88610dad6c45efac2a8e6bde25f331d2bf199bfaeccf8ee27dbeff7d2a0ca8b7709755032c81bec204bd0401d8e1b366f82b4b2697c9cb1215fadfa4b32fb4daee52d3d074b1d7b0857fca1867509e8b7e6d30ca61a102c9863943b99136dd6046dff13fe440920302b48c504129de0821816f35d800fedddcce3d5bbf963a94ba71eb87b2558c658bcc918742405818c057e9384e74c85576f92e0bb851cbc3f1a964a9319c5fe26cdffa114a4134189197d0d2ae1846b50e7408416ec850a71256304ecd4d45d52ee892b822b099cbf989fb6e8edd80ffc29d22b363298920b348e0d9e2376176105692dae8312b721f5802a215986f47a1e23fd2ab28221d8392f6c55a7d3c3042897bfa25282fb1eb482f6092a7f0a89652078fc2541016cec8e504734c13ec0fb8a043004c3eb4d63d5e3ee3412df0c8528e5b09956a6d69bea4054efe509364fd50f11e4b2a539b75cc872db5f2d8e27a852e7791f6f83e5411915b787871a993c6aa37fda81d730d919bdc1b0dd3083a5e69121f37aea168a33fbef664a1a55a22db8c2c92ca94cd07d95fd71d0b73a6166d8e12fbf2634808698b4d18b73d6ebf36a79e5957e90c169adec95599d48104586c68acd69e1b38d41654afeb53ca31f9882c9aa3a52a8da172182800d3953f443f62f77b8f588bd4463682453fcfc04cf35ffcd07eb5090ba75504f0de26e2befacba8c670021c12a980dae26a15b90835f1c0a8f11e8ea6033c733a7d8860154a67d65c4ef342c863ecb8861ba7324fd8aa04cae536c4b6b6c2a80788c67de090b55625483af8c72d868fe385e018c3a70ff6a99c6363b8"
      ],
      "sequence": 4294967294
    }
  ],
  "vout": [
    {
      "value": 499966.4423,
      "n": 0,
      "scriptPubKey": {
        "asm": "1 ad71e9596f7001cfba3f9acfc4f933bc660978b0555b77c47752b57c796cbd18",
        "hex": "5120ad71e9596f7001cfba3f9acfc4f933bc660978b0555b77c47752b57c796cbd18",
        "reqSigs": 1,
        "type": "witness_v1_scripthash",
        "addresses": [
          "3QJmnh"
        ]
      }
    },
    {
      "value": 1.0,
      "n": 1,
      "scriptPubKey": {
        "asm": "OP_RETURN 2fe58c7c08051a05f8011ab42f14756b12d285e9b5ed2113a88aab84689eb493 83f05241089bdb75878bef968054baf318ef963649a34b5a2e1db4d1948e8c0ea3d0726128bbfb55a7abcfb6a0749ad338cfb61669836b7a0e3d94f1b4aeac2ec3b0120148db9b35c7cbafd6c014fab358afd67609e30b1a6e5df491d4cecc4ee390322168fbbb15e7eb8ff6e034da93788ff65629c32b3a4e7dd4b1f4eeec6e0370d2c1881b5bf5070b6f1600d43a73986f16b6c923cbdaae9d3451140e0c8e2350f2e1a83b7bd5272b4f3620f41a53b84f3696e903ebfa8ebd1471342e2cae43309281c85b1bb5474b2f5640947a33d82f56f689638b9aeedd7411544e4cce6310b2a1e87b3b95676b0f7660b45a13f80f76d6a943abbacefd5431746e6cee83f05241089bdb75878bef968054baf318ef963649a34b5a2e1db4d1948e8c0ea3d0726128bbfb55a7abcfb6a0749ad338cfb61669836b7a0e3d94f1b4aeac2ec3b0120148db9b35c7cbafd6c014fab358afd67609e30b1a6e5df491d4cecc4ee390322168fbbb15e7eb8ff6e034da93788ff65629c32b3a4e7dd4b1f4eeec6e0370d2c1881b5bf5070b6f1600d43a73986f16b6c923cbdaae9d3451140e0c8e2350f2e1a83b7bd5272b4f3620f41a53b84f3696e903ebfa8ebd1471342e2cae43309281c85b1bb5474b2f5640947a33d82f56f689638b9aeedd7411544e4cce6310b2a1e87b3b95676b0f7660b45a13f80f76d6a943abbacefd5431746e6cee83f05241089bdb75878bef968054baf318ef963649a34b5a2e1db4d1948e8c0ea3d0726128bbfb55a7abcfb6a0749ad338cfb61669836b7a0e3d94f1b4aeac2ec3b0120148db9b35c7cbafd6c014fab358afd67609e30b1a6e5df491d4cecc4ee390322168fbbb15e7eb8ff6e034da93788ff65629c32b3a4e7dd4b1f4eeec6e0370d2c1881b5bf5070b6f1600d43a73986f16b6c923cbdaae9d3451140e0c8e2350f2e1a83b7bd5272b4f3620f41a53b84f3696e903ebfa8ebd1471342e2cae43309281c85b1bb5474b2f5640947a33d82f56f689638b9aeedd7411544e4cce6310b2a1e87b3b95676b0f7660b45a13f80f76d6a943abbacefd5431746e6cee83f05241089bdb75878bef968054baf318ef963649a34b5a2e1db4d1948e8c0ea3d0726128bbfb55a7abcfb6a0749ad338cfb61669836b7a0e3d94f1b4aeac2ec3b0120148db9b35c7cbafd6c014fab358afd67609e30b1a6e5df491d4cecc4ee390322168fbbb15e7eb8ff6e034da93788ff65629c32b3a4e7dd4b1f4eeec6e0370d2c1881b5bf5070b6f1600d43a73986f16b6c923cbdaae9d3451140e0c8e2350f2e1a83b7bd5272b4f3620f41a53b84f3696e903ebfa8ebd1471342e2cae43309281c85b1bb5474b2f5640947a33d82f56f689638b9aeedd7411544e4cce6310b2a1e87b3b95676b0f7660b45a13f80f76d6a943abbacefd5431746e6cee83f05241089bdb75878bef968054baf318ef963649a34b5a2e1db4d1948e8c0ea3d0726128bbfb55a7abcfb6a0749ad338cfb61669836b7a0e3d94f1b4aeac2ec3b0120148db9b35c7cbafd6c014fab358afd67609e30b1a6e5df491d4cecc4ee390322168fbbb15e7eb8ff6e034da93788ff65629c32b3a4e7dd4b1f4eeec6e0370d2c1881b5bf5070b6f1600d43a733f8be4bf049dc4bbe3d684f5da92ee7d4397d499afc3e8155beba433d0dc132c",
        "hex": "6a202fe58c7c08051a05f8011ab42f14756b12d285e9b5ed2113a88aab84689eb4934db00483f05241089bdb75878bef968054baf318ef963649a34b5a2e1db4d1948e8c0ea3d0726128bbfb55a7abcfb6a0749ad338cfb61669836b7a0e3d94f1b4aeac2ec3b0120148db9b35c7cbafd6c014fab358afd67609e30b1a6e5df491d4cecc4ee390322168fbbb15e7eb8ff6e034da93788ff65629c32b3a4e7dd4b1f4eeec6e0370d2c1881b5bf5070b6f1600d43a73986f16b6c923cbdaae9d3451140e0c8e2350f2e1a83b7bd5272b4f3620f41a53b84f3696e903ebfa8ebd1471342e2cae43309281c85b1bb5474b2f5640947a33d82f56f689638b9aeedd7411544e4cce6310b2a1e87b3b95676b0f7660b45a13f80f76d6a943abbacefd5431746e6cee83f05241089bdb75878bef968054baf318ef963649a34b5a2e1db4d1948e8c0ea3d0726128bbfb55a7abcfb6a0749ad338cfb61669836b7a0e3d94f1b4aeac2ec3b0120148db9b35c7cbafd6c014fab358afd67609e30b1a6e5df491d4cecc4ee390322168fbbb15e7eb8ff6e034da93788ff65629c32b3a4e7dd4b1f4eeec6e0370d2c1881b5bf5070b6f1600d43a73986f16b6c923cbdaae9d3451140e0c8e2350f2e1a83b7bd5272b4f3620f41a53b84f3696e903ebfa8ebd1471342e2cae43309281c85b1bb5474b2f5640947a33d82f56f689638b9aeedd7411544e4cce6310b2a1e87b3b95676b0f7660b45a13f80f76d6a943abbacefd5431746e6cee83f05241089bdb75878bef968054baf318ef963649a34b5a2e1db4d1948e8c0ea3d0726128bbfb55a7abcfb6a0749ad338cfb61669836b7a0e3d94f1b4aeac2ec3b0120148db9b35c7cbafd6c014fab358afd67609e30b1a6e5df491d4cecc4ee390322168fbbb15e7eb8ff6e034da93788ff65629c32b3a4e7dd4b1f4eeec6e0370d2c1881b5bf5070b6f1600d43a73986f16b6c923cbdaae9d3451140e0c8e2350f2e1a83b7bd5272b4f3620f41a53b84f3696e903ebfa8ebd1471342e2cae43309281c85b1bb5474b2f5640947a33d82f56f689638b9aeedd7411544e4cce6310b2a1e87b3b95676b0f7660b45a13f80f76d6a943abbacefd5431746e6cee83f05241089bdb75878bef968054baf318ef963649a34b5a2e1db4d1948e8c0ea3d0726128bbfb55a7abcfb6a0749ad338cfb61669836b7a0e3d94f1b4aeac2ec3b0120148db9b35c7cbafd6c014fab358afd67609e30b1a6e5df491d4cecc4ee390322168fbbb15e7eb8ff6e034da93788ff65629c32b3a4e7dd4b1f4eeec6e0370d2c1881b5bf5070b6f1600d43a73986f16b6c923cbdaae9d3451140e0c8e2350f2e1a83b7bd5272b4f3620f41a53b84f3696e903ebfa8ebd1471342e2cae43309281c85b1bb5474b2f5640947a33d82f56f689638b9aeedd7411544e4cce6310b2a1e87b3b95676b0f7660b45a13f80f76d6a943abbacefd5431746e6cee83f05241089bdb75878bef968054baf318ef963649a34b5a2e1db4d1948e8c0ea3d0726128bbfb55a7abcfb6a0749ad338cfb61669836b7a0e3d94f1b4aeac2ec3b0120148db9b35c7cbafd6c014fab358afd67609e30b1a6e5df491d4cecc4ee390322168fbbb15e7eb8ff6e034da93788ff65629c32b3a4e7dd4b1f4eeec6e0370d2c1881b5bf5070b6f1600d43a733f8be4bf049dc4bbe3d684f5da92ee7d4397d499afc3e8155beba433d0dc132c",
        "type": "nulldata"
      }
    }
  ],
  "blockhash": "f0ff1fbaae405cadeb51abb379c93a956cf666ff613992ee95c2f945c1780bd2",
  "confirmations": 1,
  "time": 1764181685,
  "blocktime": 1764181685
}