{
  "hex": "010000000001017be398841843b5ea7fdbbb0122194b45b8b8fb060c2d0a344769293c0d99d2e50100000000feffffff0200e1f50500000000fdd5046a209f55cad200daa1591af9696ebb07dab8979ad80abbf69cbe06ace455c043b06e4db004fed3a8747f9c28ea8840d8008db255de42a0fde6d82c4bc06f02c01265e52120def388545fbc08caa860f820ad9275fe6280ddc6f80c6be04f22e03245c50100be93e8343fdc68aac8009840cdf2159e02e0bda6986c0b802f42805225a561609eb3c8141ffc488ae820b860edd235be22c09d86b84c2ba00f62a072058541407e5328f4ff1ca86a08c058800d32d55ec2207d6658accb40ef824092e565a1a05e7308d4df3c884a28e078a02d12f57ee2005d46788ceb60cfa260b2c54581803e1368b4bf5ce82a488018c04d72951e82603d2618ec8b00afc200d2a525e1e01e3348949f7cc80a68a038e06d52b53ea2401d0638ccab208fe220f28505c1c0fed3a8747f9c28ea8840d8008db255de42a0fde6d82c4bc06f02c01265e52120def388545fbc08caa860f820ad9275fe6280ddc6f80c6be04f22e03245c50100be93e8343fdc68aac8009840cdf2159e02e0bda6986c0b802f42805225a561609eb3c8141ffc488ae820b860edd235be22c09d86b84c2ba00f62a072058541407e5328f4ff1ca86a08c058800d32d55ec2207d6658accb40ef824092e565a1a05e7308d4df3c884a28e078a02d12f57ee2005d46788ceb60cfa260b2c54581803e1368b4bf5ce82a488018c04d72951e82603d2618ec8b00afc200d2a525e1e01e3348949f7cc80a68a038e06d52b53ea2401d0638ccab208fe220f28505c1c0fed3a8747f9c28ea8840d8008db255de42a0fde6d82c4bc06f02c01265e52120def388545fbc08caa860f820ad9275fe6280ddc6f80c6be04f22e03245c50100be93e8343fdc68aac8009840cdf2159e02e0bda6986c0b802f42805225a561609eb3c8141ffc488ae820b860edd235be22c09d86b84c2ba00f62a072058541407e5328f4ff1ca86a08c058800d32d55ec2207d6658accb40ef824092e565a1a05e7308d4df3c884a28e078a02d12f57ee2005d46788ceb60cfa260b2c54581803e1368b4bf5ce82a488018c04d72951e82603d2618ec8b00afc200d2a525e1e01e3348949f7cc80a68a038e06d52b53ea2401d0638ccab208fe220f28505c1c0fed3a8747f9c28ea8840d8008db255de42a0fde6d82c4bc06f02c01265e52120def388545fbc08caa860f820ad9275fe6280ddc6f80c6be04f22e03245c50100be93e8343fdc68aac8009840cdf2159e02e0bda6986c0b802f42805225a561609eb3c8141ffc488ae820b860edd235be22c09d86b84c2ba00f62a072058541407e5328f4ff1ca86a08c058800d32d55ec2207d6658accb40ef824092e565a1a05e7308d4df3c884a28e078a02d12f57ee2005d46788ceb60cfa260b2c54581803e1368b4bf5ce82a488018c04d72951e82603d2618ec8b00afc200d2a525e1e01e3348949f7cc80a68a038e06d52b53ea2401d0638ccab208fe220f28505c1c0fed3a8747f9c28ea8840d8008db255de42a0fde6d82c4bc06f02c01265e52120def388545fbc08caa860f820ad9275fe6280ddc6f80c6be04f22e03245c50100be93e8343fdc68aac8009840cdf2159e02e0bda6986c0b802f42805225a561609eb3c8141ffc488ae820b860edd235be22c09d86b84c2ba00f62a072058541407e5328f4ff1ca86a08c058800d32d55eed7b6e3515090b5a6568f5ceb38ebfa04d3dee443f32f18751b702199dfb483a20cc6133792d000022512040f0adca36a371c3fd332a485da3d755b8979cc0e7a204c57671dcd0032377ab02fd750948d128c39812ebc5b8e5c06e092dc127f8d4921fec88cf9f14844acd8691b106d5cffcff55cf0b0d2eafd7d46c50d34a8cb76bbfd0d765b8f0385d3855843448bd49d59e3e372ace6b31a0aa5dcda0adb87193021afaddddc5698728d79c8f377525fb316c600db5aba691561bf7fb81b72ce114042c114d3850d07c8260bf0dbefd4a18d0c23976fa9c2cb3f36232cb8e27544bdee7904da8a668e518ef8f20c948559def28fd0bab3509f64d1c731dc1634dd15560d2b9a9a1dfb0415e70693b721d9d3db86dee834681a8486f7e8cbb8a5de8bc521d9994d10507912b2d1d083355f31f43c76559a8196e5ae72e247c3070fab3d06feab9de4f9e434145197f07766fada8fcba062e122e357a9b5ece2283f206357c0dccb0f69f05b2051e644407a6c1f5236467069f3e75bd4b3551c558a5c6df8da660aa2cdac594f03a732081146d3d86c51fe8c9e8e9e1dcc9bbce321e9370596cd622826fb85c011517705f9bdd412ef39f410f690b31bd90e404043d06e84608e9e60635058a419d451157d7c05eb29c3725df2e924e11c042d554947d2152365daf7036722979dfa57ca0c098f3cd8aa7142da642a5a8dadfac04d584171aa615ac7e4398397a23d3cbc6e8bb319d4945367ee5674bc88c1b1cae42553823e9750b3751450c9c8432b8430814bcdd2faae6820998f9577fc73689c55d8b7582568233f57aef9f63bc8ff464d9a754482e2d5bca206749e5dadd2403837120d74a554ef5b8e03846ab090fcfd403377eda0c3f749053e75909bede16622a25c3a08e85ad3c2383c7948ebca62d255cb320332ebd20d433c5b0cb21e50b7172efe3d42d1f8b32fef16573ad4524ad9034d739273408387663769b7212553d794f3d1f52a57daaa0ed08a43e8edb1ddc2739317b0fc2848d6a524bd05ea4c5a275e561a5aea79479e51947ad57bc138508cb62eed32440e858516cd5a1afe0ab9606af8d5cefc20cda6aef9e5268bea60070ac0867a9eefb2acbe0f636e31b45b99d67b6b0197adb460cae1b575d9a62731d2411e42e249a089220d814d7383291aae6dc54f9891712f673396982ea17f8b1e81d50ffd0d0fe2051e67ebffc2bdb5360063a5367b345d765eeb38b1377ed7e766498c08a25d8a7e9127f153d63e3164a5a0690ca9bf20f188a0e62a81eca61a03f636e217373beeff2bcba534937fa45724bb3130fc372716dfd87f0d572a4bd1ab6cae050622a163a976e66301951823a81c6ac845f3c368167fcf63cd0142916def968bfa4423a86d484bea3ad37d45566d854f44b3d30f8cc2dedfd99e42d34b258927f99cabe09ccbfda7562bbf1067fcf8667c05d4b0044d2993507ab17b1da8e46e15baaae4fff91a6d8b556eb867385f39baeee85f2766a86556cbeb3151c7cab634d45b83a2f154667048c7c857b8f6e246d500bc38ca9221e221e28add45cdb6323187d7bacf5e4d2bb95a2ff08344caac9caf6ba1a218e9cc04fc37b1e51ad7a8bb70b43f7dbbbfd499e3551a996235b67427b3cd8c21ff968ab8bc09f295ee903c788844b39258b7183e14a0ed75ee1f71482fc96c74ac308c2dd560a23a0cfee39f3ec121ea72ed291d3dd9ab994bc7b1d5583d9017813d7692b1d1736638e4b12a80a2209b9cf205196378adf8cda94bdf015c614922af2dc3fb80c94f29a28a64c074499a9d4fed122ff85cfac4a14c80833924674f6c1759b91b2fdca6949f359d10eabb5dc8f1d6d6f618e19c5573857845351b3c3bdf58b8f4661f6ddd878945b54e275101d2ca04ae36028694e66718f6e838bff266cc1069f61048facdef5ea88b57aa83caaaec68a3f1eb8dd4217e99705f2470a8817c73fb9968e442abdd65ac3aca42c8f02680c477ac59223e1a6605b5ad5f32b682bcc5b889a169f9473085a660b258ed3e38cb2b78715c01859538980b1d059cc97c3bebbfb6ecef1ae84a0fdf36b18cccfe290f9955df2d017681679f80471b6a939b7596495cd219404e21fe7946b27f90ba60c80dc6e911c40616e3134d499198fb1edac502c7673a22c1d6255b3a859ed4da59e3fd7f23af82a14b5d8b6ba1ec4dd3d45f4c53c8e8880af5dcb36162824b74fecae26be0d65ef2cbfa620fc53059736d9d3f5cd8715afe08cc273b6708e24b40d95c68a7b2122a83d5a8ed74e439776205bb944a4569f3741aad8f295273c5330873cb3a87e27dc67e3a089f0486287869fbc9167df5fe10644af3d774d5200236d98c2ea0233c4bbf5fa37635e037273a0ae33a9f8fa67d65b39b750030bf5ef5088d0a0a8705966dcb3d9b8920320c552a95900c6a03e2ac79d4e9a68475f6e61e94ba3b8ff49fbecfdb29182d4afadb60b9a9d460c7b2acaef0189da3e87ae26257dbfb84a84fc5ae7486fa5f8995fb6f19e7349279db26efd903b4636383865cdafc5dfaaffb800c516c9e721a4af270fed339cf0ccb04bb5b1503adfdca098115ecfd71efe79522465904f30abe2a811c387cd308c6a2a7a945f6376478096736933704f964519481fc7121ef6828fc36140c2f1b224487e3e0f4b18455b90e87bdb19e75b8e0f2a2c1fff47df68bb77b03aa3c4ada07cb7c03dd9e4cad238b3c5a7a47d18f3af39e7b50c05222b90228b98508ea9f1574de294b2eaa71df7f8bb404a4922bfc8d62904d3c58d1bd375f0f152ca88e343a5fc8624be6b4e468bb2e9b62384b269675765971403099f78e4ed3ad33a3576e80963cb924ba4c0ec8c31f12cdaefe60248faca37196ae2b19d9e34d4ebd5294520ffed9cc0afaafcf0854fc70b62c2e2da78197d1e25cb72cb06e9ea4121e1b11755839625d404f394dd59aee7d1223fa137a897db08dc552b310ff3e3c377ecef532f27d688b78a8651b1f1c50a2fe2168c6c10b38595980424d7e6bf575e5f6c1a95b57b8d44d7f2550cbbf64a9e0f36777a9a61148630ee282f6155c8fb345701a0d3845484f8c2d0fdc8bb7f501d3cd8a035321d8cc5de859a727908e7afbceddf5969df773f70aac091af4242b13c20b771329f8d0a7c178f14e14f2713d233c4b204ea50014375bf2c27f1f051fa456898a10aa3bc970bd1c1359a10b963ff3f1b4521601abe2946158b9c1e5ce351179b66a1686bb19267f58490dc9e047341d0a02689914011a8af9d7ae8c1f0ac4bdce4e582c301687dea982add4fec861d9cbe0dcb33703e66950c4bb7921d4130012b97ee83ceab489665566aa48f24cfda05cc23c47deffa67c59a3dcb098c90e326c0d8b5cb3d52bd5d0de1505883abeeaf4fdc1426292d30333953677a9a9ea7a9b3c8cde8f4080e121d293c57748aadb6b9bbc0d1d6fdfe171a53bcc7c8cddeeaf001080c2b3b48505b6b6eb4b9cff0f4f6000000000000000000000000000000000013252f3f01fd210500b8964ec1fbcbfe627ddb407f9d05ae7710123501999ddc83f25712f02cef856cec4d22767d911f2e144962cac8051bb7da95dc1c667655deb5744617e176f3779cebe66d92be627905834affe0f4e33a945ec5a3206320c79b931964e85dc072a338f4b5001d3d5bc5ca2dce64928632dfe9f682a564613e3dc91f38b9ab82d422341324d747144c986f561249307db02e2ada1fe26ef900f7978b37ebab285d5a06d3b51af034b3fc120d10fb8f9c94901b4b7cb29f3f466d5237216210b1d13d28a53b86f29fc1c091790276fb81c350430109566e1772e0028ad1be82601bf94406ddf06e89e3ae9c389191b647396809183f9bc8a87df94bfc6c4cb5d8c72e5ad96d3549df1fe0ad64afb6edab07474208d64964097bb8e14e2903193774c56cbc020673be578615e2fe57be88c4528ca56bb39d1a079c32830620dc571cc9191aae3df518333449ba7711674628f59c9adfd82a8c79c2449ed9a282270a0723c36513a82175e86508a2737ca842aca89af17d34b13cd03f6d2a6972395ee69b306b664d68d9a014003f71850cf8fe175cba7ea83f049b17e1b0ff385022adedabd00ff39cc36a1845314eed4478f7a0da34fd5b336a19a2dd71e0dfd6b9009a92addb354e433b2a2161500c05ebcfadccac2e15b358971d913e392155976218a69867adf74521c45bc0e39b5afddda47eab37ecb3121a9156ffd94345ab4ff8bece11640f4ad60445a55033550f175735af1eaaf68155ddcd86bf5bccb809e3ee51ff3100fc0d63934ecbfc8f01f90fdbf4caea387a75bea7ea42e858c3c542c378b77595f273a2a8d410ff11c7b01b576a853d52f43623a62fdb7884111d4de4db883a47f31ee5db2fa5c0d0c57458ed81f7fe4768b8f7433c01b601e42a84db39362a930de069ca09385890859c32b48325ebfa9410a9d5d963f878d704840ad28539c973e31a03919bce907631e94ca39ea9c65894c3037636b8c91ba06fb84a0819f31492a81f082325cb47181b6761170098cc675412f75db2d4793cfad1fe7c6beac15aac2a7062b0c5c814eca1694648eada70a88148681f28d2661d28a918023e6908d82fdcdf49e32a67f44ad7cf642b16070e4f59bf8e1b7de0bcba8a69d2458a256e99bb0e8dd46a45ff5a8dd55009f3d2ee6d60df5a55c6c322fe315be6f97eb87946bbea305a23e7a6e8f0138da26a9d2b30f08ff702193385bd827d6100a234820b9607089fffa2ef90d73f12934c150d33427a40283f1d48bb892a8f2ea401df2a782ac3ed657595d4e5975b7dacda7a56ec8a5618f2fff378f6814caf45fe01a24d4a02db8c95de9b764bf992e27f82de433027d27142bfc645523a2212b07d1d02f1c699de8750d237d6d755c1ba1953956436636429e53ecce0aee31bb0bd616642c3bddd3c307cc1ce881a13a10f2e1ee5e3d6dee71c8560535c7ef8888393a7f686028d96c66cf9feb0864f2a8402ca94ea3a37867fd851acf2dba2e768bd811ebc0e9aaf777f08a005832cb8695ab73108b08e8858ff52347551ee5ab52038ef32534d467a559422a3b2d795a01e0cb4d98b30fd8564713e2f77a830979c4f724a90b3065faa65d68ae5852f051c50d4e4a3896c56466db288fe39a197890b90ecfb329580e40e08313c88c2722fd4047a8e9ed3300cf5900f11fbcd8ed7c62b30d55ce0d11bb0e481fb472cf151c1cc7eeec8f422144efee8247bb68a215c6d39f706514fc00a453ea1d9c40709be342fed8026b968d39fa3708d6015242bc865564ea10361944c055aebf67aa966bd733fc13e0dce93869f6ab8004b398d6f7dacf690aa9959768b28f74e5c1dc025272ed770000000",
  "txid": "2bd00f84d0d102f8fc29baa16fdf50c5c3099d285967d6961fcd2a90230b5fcf",
  "hash": "4ed0cf1e75f1b70555d7e5b58dedb29d9ff2dd88ae8eb985005412aba0241d92",
  "size": 5085,
  "vsize": 2278,
  "version": 1,
  "locktime": 112,
  "vin": [
    {
      "txid": "e5d2990d3c296947340a2d0c06fbb8b8454b192201bbdb7feab543188498e37b",
      "vout": 1,
      "scriptSig": {
        "asm": "",
        "hex": ""
      },
      "txinwitness": [
        "48d128c39812ebc5b8e5c06e092dc127f8d4921fec88cf9f14844acd8691b106d5cffcff55cf0b0d2eafd7d46c50d34a8cb76bbfd0d765b8f0385d3855843448bd49d59e3e372ace6b31a0aa5dcda0adb87193021afaddddc5698728d79c8f377525fb316c600db5aba691561bf7fb81b72ce114042c114d3850d07c8260bf0dbefd4a18d0c23976fa9c2cb3f36232cb8e27544bdee7904da8a668e518ef8f20c948559def28fd0bab3509f64d1c731dc1634dd15560d2b9a9a1dfb0415e70693b721d9d3db86dee834681a8486f7e8cbb8a5de8bc521d9994d10507912b2d1d083355f31f43c76559a8196e5ae72e247c3070fab3d06feab9de4f9e434145197f07766fada8fcba062e122e357a9b5ece2283f206357c0dccb0f69f05b2051e644407a6c1f5236467069f3e75bd4b3551c558a5c6df8da660aa2cdac594f03a732081146d3d86c51fe8c9e8e9e1dcc9bbce321e9370596cd622826fb85c011517705f9bdd412ef39f410f690b31bd90e404043d06e84608e9e60635058a419d451157d7c05eb29c3725df2e924e11c042d554947d2152365daf7036722979dfa57ca0c098f3cd8aa7142da642a5a8dadfac04d584171aa615ac7e4398397a23d3cbc6e8bb319d4945367ee5674bc88c1b1cae42553823e9750b3751450c9c8432b8430814bcdd2faae6820998f9577fc73689c55d8b7582568233f57aef9f63bc8ff464d9a754482e2d5bca206749e5dadd2403837120d74a554ef5b8e03846ab090fcfd403377eda0c3f749053e75909bede16622a25c3a08e85ad3c2383c7948ebca62d255cb320332ebd20d433c5b0cb21e50b7172efe3d42d1f8b32fef16573ad4524ad9034d739273408387663769b7212553d794f3d1f52a57daaa0ed08a43e8edb1ddc2739317b0fc2848d6a524bd05ea4c5a275e561a5aea79479e51947ad57bc138508cb62eed32440e858516cd5a1afe0ab9606af8d5cefc20cda6aef9e5268bea60070ac0867a9eefb2acbe0f636e31b45b99d67b6b0197adb460cae1b575d9a62731d2411e42e249a089220d814d7383291aae6dc54f9891712f673396982ea17f8b1e81d50ffd0d0fe2051e67ebffc2bdb5360063a5367b345d765eeb38b1377ed7e766498c08a25d8a7e9127f153d63e3164a5a0690ca9bf20f188a0e62a81eca61a03f636e217373beeff2bcba534937fa45724bb3130fc372716dfd87f0d572a4bd1ab6cae050622a163a976e66301951823a81c6ac845f3c368167fcf63cd0142916def968bfa4423a86d484bea3ad37d45566d854f44b3d30f8cc2dedfd99e42d34b258927f99cabe09ccbfda7562bbf1067fcf8667c05d4b0044d2993507ab17b1da8e46e15baaae4fff91a6d8b556eb867385f39baeee85f2766a86556cbeb3151c7cab634d45b83a2f154667048c7c857b8f6e246d500bc38ca9221e221e28add45cdb6323187d7bacf5e4d2bb95a2ff08344caac9caf6ba1a218e9cc04fc37b1e51ad7a8bb70b43f7dbbbfd499e3551a996235b67427b3cd8c21ff968ab8bc09f295ee903c788844b39258b7183e14a0ed75ee1f71482fc96c74ac308c2dd560a23a0cfee39f3ec121ea72ed291d3dd9ab994bc7b1d5583d9017813d7692b1d1736638e4b12a80a2209b9cf205196378adf8cda94bdf015c614922af2dc3fb80c94f29a28a64c074499a9d4fed122ff85cfac4a14c80833924674f6c1759b91b2fdca6949f359d10eabb5dc8f1d6d6f618e19c5573857845351b3c3bdf58b8f4661f6ddd878945b54e275101d2ca04ae36028694e66718f6e838bff266cc1069f61048facdef5ea88b57aa83caaaec68a3f1eb8dd4217e99705f2470a8817c73fb9968e442abdd65ac3aca42c8f02680c477ac59223e1a6605b5ad5f32b682bcc5b889a169f9473085a660b258ed3e38cb2b78715c01859538980b1d059cc97c3bebbfb6ecef1ae84a0fdf36b18cccfe290f9955df2d017681679f80471b6a939b7596495cd219404e21fe7946b27f90ba60c80dc6e911c40616e3134d499198fb1edac502c7673a22c1d6255b3a859ed4da59e3fd7f23af82a14b5d8b6ba1ec4dd3d45f4c53c8e8880af5dcb36162824b74fecae26be0d65ef2cbfa620fc53059736d9d3f5cd8715afe08cc273b6708e24b40d95c68a7b2122a83d5a8ed74e439776205bb944a4569f3741aad8f295273c5330873cb3a87e27dc67e3a089f0486287869fbc9167df5fe10644af3d774d5200236d98c2ea0233c4bbf5fa37635e037273a0ae33a9f8fa67d65b39b750030bf5ef5088d0a0a8705966dcb3d9b8920320c552a95900c6a03e2ac79d4e9a68475f6e61e94ba3b8ff49fbecfdb29182d4afadb60b9a9d460c7b2acaef0189da3e87ae26257dbfb84a84fc5ae7486fa5f8995fb6f19e7349279db26efd903b4636383865cdafc5dfaaffb800c516c9e721a4af270fed339cf0ccb04bb5b1503adfdca098115ecfd71efe79522465904f30abe2a811c387cd308c6a2a7a945f6376478096736933704f964519481fc7121ef6828fc36140c2f1b224487e3e0f4b18455b90e87bdb19e75b8e0f2a2c1fff47df68bb77b03aa3c4ada07cb7c03dd9e4cad238b3c5a7a47d18f3af39e7b50c05222b90228b98508ea9f1574de294b2eaa71df7f8bb404a4922bfc8d62904d3c58d1bd375f0f152ca88e343a5fc8624be6b4e468bb2e9b62384b269675765971403099f78e4ed3ad33a3576e80963cb924ba4c0ec8c31f12cdaefe60248faca37196ae2b19d9e34d4ebd5294520ffed9cc0afaafcf0854fc70b62c2e2da78197d1e25cb72cb06e9ea4121e1b11755839625d404f394dd59aee7d1223fa137a897db08dc552b310ff3e3c377ecef532f27d688b78a8651b1f1c50a2fe2168c6c10b38595980424d7e6bf575e5f6c1a95b57b8d44d7f2550cbbf64a9e0f36777a9a61148630ee282f6155c8fb345701a0d3845484f8c2d0fdc8bb7f501d3cd8a035321d8cc5de859a727908e7afbceddf5969df773f70aac091af4242b13c20b771329f8d0a7c178f14e14f2713d233c4b204ea50014375bf2c27f1f051fa456898a10aa3bc970bd1c1359a10b963ff3f1b4521601abe2946158b9c1e5ce351179b66a1686bb19267f58490dc9e047341d0a02689914011a8af9d7ae8c1f0ac4bdce4e582c301687dea982add4fec861d9cbe0dcb33703e66950c4bb7921d4130012b97ee83ceab489665566aa48f24cfda05cc23c47deffa67c59a3dcb098c90e326c0d8b5cb3d52bd5d0de1505883abeeaf4fdc1426292d30333953677a9a9ea7a9b3c8cde8f4080e121d293c57748aadb6b9bbc0d1d6fdfe171a53bcc7c8cddeeaf001080c2b3b48505b6b6eb4b9cff0f4f6000000000000000000000000000000000013252f3f01",
        "00b8964ec1fbcbfe627ddb407f9d05ae7710123501999ddc83f25712f02cef856cec4d22767d911f2e144962cac8051bb7da95dc1c667655deb5744617e176f3779cebe66d92be627905834affe0f4e33a945ec5a3206320c79b931964e85dc072a338f4b5001d3d5bc5ca2dce64928632dfe9f682a564613e3dc91f38b9ab82d422341324d747144c986f561249307db02e2ada1fe26ef900f7978b37ebab285d5a06d3b51af034b3fc120d10fb8f9c94901b4b7cb29f3f466d5237216210b1d13d28a53b86f29fc1c091790276fb81c350430109566e1772e0028ad1be82601bf94406ddf06e89e3ae9c389191b647396809183f9bc8a87df94bfc6c4cb5d8c72e5ad96d3549df1fe0ad64afb6edab07474208d64964097bb8e14e2903193774c56cbc020673be578615e2fe57be88c4528ca56bb39d1a079c32830620dc571cc9191aae3df518333449ba7711674628f59c9adfd82a8c79c2449ed9a282270a0723c36513a82175e86508a2737ca842aca89af17d34b13cd03f6d2a6972395ee69b306b664d68d9a014003f71850cf8fe175cba7ea83f049b17e1b0ff385022adedabd00ff39cc36a1845314eed4478f7a0da34fd5b336a19a2dd71e0dfd6b9009a92addb354e433b2a2161500c05ebcfadccac2e15b358971d913e392155976218a69867adf74521c45bc0e39b5afddda47eab37ecb3121a9156ffd94345ab4ff8bece11640f4ad60445a55033550f175735af1eaaf68155ddcd86bf5bccb809e3ee51ff3100fc0d63934ecbfc8f01f90fdbf4caea387a75bea7ea42e858c3c542c378b77595f273a2a8d410ff11c7b01b576a853d52f43623a62fdb7884111d4de4db883a47f31ee5db2fa5c0d0c57458ed81f7fe4768b8f7433c01b601e42a84db39362a930de069ca09385890859c32b48325ebfa9410a9d5d963f878d704840ad28539c973e31a03919bce907631e94ca39ea9c65894c3037636b8c91ba06fb84a0819f31492a81f082325cb47181b6761170098cc675412f75db2d4793cfad1fe7c6beac15aac2a7062b0c5c814eca1694648eada70a88148681f28d2661d28a918023e6908d82fdcdf49e32a67f44ad7cf642b16070e4f59bf8e1b7de0bcba8a69d2458a256e99bb0e8dd46a45ff5a8dd55009f3d2ee6d60df5a55c6c322fe315be6f97eb87946bbea305a23e7a6e8f0138da26a9d2b30f08ff702193385bd827d6100a234820b9607089fffa2ef90d73f12934c150d33427a40283f1d48bb892a8f2ea401df2a782ac3ed657595d4e5975b7dacda7a56ec8a5618f2fff378f6814caf45fe01a24d4a02db8c95de9b764bf992e27f82de433027d27142bfc645523a2212b07d1d02f1c699de8750d237d6d755c1ba1953956436636429e53ecce0aee31bb0bd616642c3bddd3c307cc1ce881a13a10f2e1ee5e3d6dee71c8560535c7ef8888393a7f686028d96c66cf9feb0864f2a8402ca94ea3a37867fd851acf2dba2e768bd811ebc0e9aaf777f08a005832cb8695ab73108b08e8858ff52347551ee5ab52038ef32534d467a559422a3b2d795a01e0cb4d98b30fd8564713e2f77a830979c4f724a90b3065faa65d68ae5852f051c50d4e4a3896c56466db288fe39a197890b90ecfb329580e40e08313c88c2722fd4047a8e9ed3300cf5900f11fbcd8ed7c62b30d55ce0d11bb0e481fb472cf151c1cc7eeec8f422144efee8247bb68a215c6d39f706514fc00a453ea1d9c40709be342fed8026b968d39fa3708d6015242bc865564ea10361944c055aebf67aa966bd733fc13e0dce93869f6ab8004b398d6f7dacf690aa9959768b28f74e5c1dc025272ed7"
      ],
      "sequence": 4294967294
    }
  ],
  "vout": [
    {
      "value": 1.0,
      "n": 0,
      "scriptPubKey": {
        "asm": "OP_RETURN 9f55cad200daa1591af9696ebb07dab8979ad80abbf69cbe06ace455c043b06e fed3a8747f9c28ea8840d8008db255de42a0fde6d82c4bc06f02c01265e52120def388545fbc08caa860f820ad9275fe6280ddc6f80c6be04f22e03245c50100be93e8343fdc68aac8009840cdf2159e02e0bda6986c0b802f42805225a561609eb3c8141ffc488ae820b860edd235be22c09d86b84c2ba00f62a072058541407e5328f4ff1ca86a08c058800d32d55ec2207d6658accb40ef824092e565a1a05e7308d4df3c884a28e078a02d12f57ee2005d46788ceb60cfa260b2c54581803e1368b4bf5ce82a488018c04d72951e82603d2618ec8b00afc200d2a525e1e01e3348949f7cc80a68a038e06d52b53ea2401d0638ccab208fe220f28505c1c0fed3a8747f9c28ea8840d8008db255de42a0fde6d82c4bc06f02c01265e52120def388545fbc08caa860f820ad9275fe6280ddc6f80c6be04f22e03245c50100be93e8343fdc68aac8009840cdf2159e02e0bda6986c0b802f42805225a561609eb3c8141ffc488ae820b860edd235be22c09d86b84c2ba00f62a072058541407e5328f4ff1ca86a08c058800d32d55ec2207d6658accb40ef824092e565a1a05e7308d4df3c884a28e078a02d12f57ee2005d46788ceb60cfa260b2c54581803e1368b4bf5ce82a488018c04d72951e82603d2618ec8b00afc200d2a525e1e01e3348949f7cc80a68a038e06d52b53ea2401d0638ccab208fe220f28505c1c0fed3a8747f9c28ea8840d8008db255de42a0fde6d82c4bc06f02c01265e52120def388545fbc08caa860f820ad9275fe6280ddc6f80c6be04f22e03245c50100be93e8343fdc68aac8009840cdf2159e02e0bda6986c0b802f42805225a561609eb3c8141ffc488ae820b860edd235be22c09d86b84c2ba00f62a072058541407e5328f4ff1ca86a08c058800d32d55ec2207d6658accb40ef824092e565a1a05e7308d4df3c884a28e078a02d12f57ee2005d46788ceb60cfa260b2c54581803e1368b4bf5ce82a488018c04d72951e82603d2618ec8b00afc200d2a525e1e01e3348949f7cc80a68a038e06d52b53ea2401d0638ccab208fe220f28505c1c0fed3a8747f9c28ea8840d8008db255de42a0fde6d82c4bc06f02c01265e52120def388545fbc08caa860f820ad9275fe6280ddc6f80c6be04f22e03245c50100be93e8343fdc68aac8009840cdf2159e02e0bda6986c0b802f42805225a561609eb3c8141ffc488ae820b860edd235be22c09d86b84c2ba00f62a072058541407e5328f4ff1ca86a08c058800d32d55ec2207d6658accb40ef824092e565a1a05e7308d4df3c884a28e078a02d12f57ee2005d46788ceb60cfa260b2c54581803e1368b4bf5ce82a488018c04d72951e82603d2618ec8b00afc200d2a525e1e01e3348949f7cc80a68a038e06d52b53ea2401d0638ccab208fe220f28505c1c0fed3a8747f9c28ea8840d8008db255de42a0fde6d82c4bc06f02c01265e52120def388545fbc08caa860f820ad9275fe6280ddc6f80c6be04f22e03245c50100be93e8343fdc68aac8009840cdf2159e02e0bda6986c0b802f42805225a561609eb3c8141ffc488ae820b860edd235be22c09d86b84c2ba00f62a072058541407e5328f4ff1ca86a08c058800d32d55eed7b6e3515090b5a6568f5ceb38ebfa04d3dee443f32f18751b702199dfb483a",
        "hex": "6a209f55cad200daa1591af9696ebb07dab8979ad80abbf69cbe06ace455c043b06e4db004fed3a8747f9c28ea8840d8008db255de42a0fde6d82c4bc06f02c01265e52120def388545fbc08caa860f820ad9275fe6280ddc6f80c6be04f22e03245c50100be93e8343fdc68aac8009840cdf2159e02e0bda6986c0b802f42805225a561609eb3c8141ffc488ae820b860edd235be22c09d86b84c2ba00f62a072058541407e5328f4ff1ca86a08c058800d32d55ec2207d6658accb40ef824092e565a1a05e7308d4df3c884a28e078a02d12f57ee2005d46788ceb60cfa260b2c54581803e1368b4bf5ce82a488018c04d72951e82603d2618ec8b00afc200d2a525e1e01e3348949f7cc80a68a038e06d52b53ea2401d0638ccab208fe220f28505c1c0fed3a8747f9c28ea8840d8008db255de42a0fde6d82c4bc06f02c01265e52120def388545fbc08caa860f820ad9275fe6280ddc6f80c6be04f22e03245c50100be93e8343fdc68aac8009840cdf2159e02e0bda6986c0b802f42805225a561609eb3c8141ffc488ae820b860edd235be22c09d86b84c2ba00f62a072058541407e5328f4ff1ca86a08c058800d32d55ec2207d6658accb40ef824092e565a1a05e7308d4df3c884a28e078a02d12f57ee2005d46788ceb60cfa260b2c54581803e1368b4bf5ce82a488018c04d72951e82603d2618ec8b00afc200d2a525e1e01e3348949f7cc80a68a038e06d52b53ea2401d0638ccab208fe220f28505c1c0fed3a8747f9c28ea8840d8008db255de42a0fde6d82c4bc06f02c01265e52120def388545fbc08caa860f820ad9275fe6280ddc6f80c6be04f22e03245c50100be93e8343fdc68aac8009840cdf2159e02e0bda6986c0b802f42805225a561609eb3c8141ffc488ae820b860edd235be22c09d86b84c2ba00f62a072058541407e5328f4ff1ca86a08c058800d32d55ec2207d6658accb40ef824092e565a1a05e7308d4df3c884a28e078a02d12f57ee2005d46788ceb60cfa260b2c54581803e1368b4bf5ce82a488018c04d72951e82603d2618ec8b00afc200d2a525e1e01e3348949f7cc80a68a038e06d52b53ea2401d0638ccab208fe220f28505c1c0fed3a8747f9c28ea8840d8008db255de42a0fde6d82c4bc06f02c01265e52120def388545fbc08caa860f820ad9275fe6280ddc6f80c6be04f22e03245c50100be93e8343fdc68aac8009840cdf2159e02e0bda6986c0b802f42805225a561609eb3c8141ffc488ae820b860edd235be22c09d86b84c2ba00f62a072058541407e5328f4ff1ca86a08c058800d32d55ec2207d6658accb40ef824092e565a1a05e7308d4df3c884a28e078a02d12f57ee2005d46788ceb60cfa260b2c54581803e1368b4bf5ce82a488018c04d72951e82603d2618ec8b00afc200d2a525e1e01e3348949f7cc80a68a038e06d52b53ea2401d0638ccab208fe220f28505c1c0fed3a8747f9c28ea8840d8008db255de42a0fde6d82c4bc06f02c01265e52120def388545fbc08caa860f820ad9275fe6280ddc6f80c6be04f22e03245c50100be93e8343fdc68aac8009840cdf2159e02e0bda6986c0b802f42805225a561609eb3c8141ffc488ae820b860edd235be22c09d86b84c2ba00f62a072058541407e5328f4ff1ca86a08c058800d32d55eed7b6e3515090b5a6568f5ceb38ebfa04d3dee443f32f18751b702199dfb483a",
        "type": "nulldata"
      }
    },
    {
      "value": 499985.7634,
      "n": 1,
      "scriptPubKey": {
        "asm": "1 40f0adca36a371c3fd332a485da3d755b8979cc0e7a204c57671dcd0032377ab",
        "hex": "512040f0adca36a371c3fd332a485da3d755b8979cc0e7a204c57671dcd0032377ab",
        "reqSigs": 1,
        "type": "witness_v1_scripthash",
        "addresses": [
          "3QJmnh"
        ]
      }
    }
  ],
  "blockhash": "0588000bb82f4b14ca9e4626330a5c84a7bb9e1c31fd2ade5c3732d80cc4fd85",
  "confirmations": 1,
  "time": 1764178356,
  "blocktime": 1764178356
}