{
  "hex": "01000000000101064f8ddbae39811eb8947437ed94ad42e493de0e0eddef81a022c813df856e850000000000feffffff0200e1f50500000000fdd5046a20f723c01dcde6ab929503ed6a7d1074295ce2753e0b039de630fd4529f10b83b44db0046ef626d8a1c661f135043358b941bd3ff86ab243470e4226b40983a7f85f13994ed606f881e641d11524137899619d1fd84a9263672e62069429a387d87f33b92eb66698e18621b175447318f901fd7fb82af203074e0266f449c3e7b81f53d90e9646b8c1a6019155645338d921dd5f980ad223276e2246d469e3c7983f73f9ee76a6582146e171b584b3d839c13dbf78ea32c3c78ec2a63489032778df9319ce5686780166c15195a493f819e11d9f58ca12e3e7aee28614a9230758ffb339ae36e6186106a131f5c4f39879817dff38aa728387ce82e674c94367389fd3598e16c63841268111d5e4d3b859a15ddf188a52a3a7eea2c654e9634718bff3796ef626d8a1c661f135043358b941bd3ff86ab243470e4226b40983a7f85f13994ed606f881e641d11524137899619d1fd84a9263672e62069429a387d87f33b92eb66698e18621b175447318f901fd7fb82af203074e0266f449c3e7b81f53d90e9646b8c1a6019155645338d921dd5f980ad223276e2246d469e3c7983f73f9ee76a6582146e171b584b3d839c13dbf78ea32c3c78ec2a63489032778df9319ce5686780166c15195a493f819e11d9f58ca12e3e7aee28614a9230758ffb339ae36e6186106a131f5c4f39879817dff38aa728387ce82e674c94367389fd3598e16c63841268111d5e4d3b859a15ddf188a52a3a7eea2c654e9634718bff3796ef626d8a1c661f135043358b941bd3ff86ab243470e4226b40983a7f85f13994ed606f881e641d11524137899619d1fd84a9263672e62069429a387d87f33b92eb66698e18621b175447318f901fd7fb82af203074e0266f449c3e7b81f53d90e9646b8c1a6019155645338d921dd5f980ad223276e2246d469e3c7983f73f9ee76a6582146e171b584b3d839c13dbf78ea32c3c78ec2a63489032778df9319ce5686780166c15195a493f819e11d9f58ca12e3e7aee28614a9230758ffb339ae36e6186106a131f5c4f39879817dff38aa728387ce82e674c94367389fd3598e16c63841268111d5e4d3b859a15ddf188a52a3a7eea2c654e9634718bff3796ef626d8a1c661f135043358b941bd3ff86ab243470e4226b40983a7f85f13994ed606f881e641d11524137899619d1fd84a9263672e62069429a387d87f33b92eb66698e18621b175447318f901fd7fb82af203074e0266f449c3e7b81f53d90e9646b8c1a6019155645338d921dd5f980ad223276e2246d469e3c7983f73f9ee76a6582146e171b584b3d839c13dbf78ea32c3c78ec2a63489032778df9319ce5686780166c15195a493f819e11d9f58ca12e3e7aee28614a9230758ffb339ae36e6186106a131f5c4f39879817dff38aa728387ce82e674c94367389fd3598e16c63841268111d5e4d3b859a15ddf188a52a3a7eea2c654e9634718bff3796ef626d8a1c661f135043358b941bd3ff86ab243470e4226b40983a7f85f13994ed606f881e641d11524137899619d1fd84a9263672e62069429a387d87f33b92eb66698e18621b175447318f901fd7fb82af203074e0266f449c3e7b81f53d90e9646b8c1a6019155645338d921dd5f980ad223276e2246d469e3c7983f73f9ee76a6582146e171b584b3d839c13dbf4f4483e356c3abb82bc6378855f0a71623704781425828375d13afe47bcc5e4ee07828ba782d0000225120bfcb013a18913e026cff70a52e6cc047fa6bff4da14c659fbfee5f0e82d536d802fd75097b8843996ec56727521660ce9dab192df8fa13b362a3255d5cfeb5f2d6d5b2b8a9279e50d41673435a371c08c390bfa3815bbab5b303e6bf83446b63230f2e8c8ff8f707a1cbbc70f4a27e4ac5d9479196b4381af594f9fe96703d1a74c6198931276acddf85a23a275e93fde232bec4bef89987bf6bb6439a4365dde9f1d11191a19dc9f7a315b4af1304bbe48acceef1e5514a3884bebce7f1f15a4cd7610d47aeee5d07c38cec2482e79d13451ccda9c1da42812c66915f0fac896aee32b3fc59d29cf47a75705611bcbd031453d2f0757f5a8ba2dfbbea24039d775b22cf7d49bb7088f48ffafc5b2e8190d6f9be91701b7dac23b5e9d890f36c204e545e579122adc4efd273862546825bf2de9f70f809d96c74d1f0c267487d0109bc3275491b9670a63f043ce2468983c055c925da6d8c4eee6734d80ff268d6ed5525c1e3d6e621468cc2692b0dea5b93934aeb5d7f746bdcfd139cbb2f2b75583bc355c9ede8be3f2afee8cb80138972270c3ec9bd601ecec4aa417d3d7673e1468935eafa64f7324fff524c2a62208386d8874d3012233c311a5aae6b773887c849105986577ff62702e81a59e7060a4b49545f21dc743d3ccf68da1bd83deb9ee729446657cabf4a6157f89002f4bd7b0f50c096308684bf68338f70411c9842217a024bd608fb4a413a769a6e25696561e54e08b9c490f85d6fb0937988a37b9f9e4273aa044b2d4ec049b621792a394986ccea93278d96fe21f961be657dabf2aeb48a3ebb0a3b657f770fad20e9ff5f86454a14f2debebb532dc694518b15efc9513fd97ddd721b293134456507cdd6d72195b0d136ea6a8a760c3b694c9859ad2e33f5f9f54f0e0e5fe40c51c16d9c391fa1784b8238eb5bc55a81fb76a7e631def15055c6f6ac5a4fac64d18ee72d1775dd58dbb9f7ffb5fc58b5c695a1a7542d525ec37103490e96e4fca4c33c937c8f3b9312d26319e1aaa725d257798ce95e036d93b8cde0fe91811dd7ce682e9a8d73dbb6e21c3f4e331a591936529c2278d8d094bbffa314362cfd0b2a73a84611eeba45989680e16609f827511583cb2325b42b86a44dbfa6ac99636f92f8323bee0acd9fe08b52bc5a46364c8f2da10311fe99f4314dd8ee6447dad6b05928ed5f3222f8eaecbf9502e41a2122b8158ced190efe40b1396ac7a71882852e52fbc4ca0b7da8eaf31fed0cdab7939bcd9d63b543e4bf7feb89ba62433a106ada22ae7eb07e0a9e9f72df1d0370cc63abc0fa3750f36d10c1bca091d86ac5488e6ad48c89c1b74da91b90a14ba035417d5f8674d2182244c711b88b89ca1d9572f6454656008f5386f6b6708cddd03e631a69b294aa5c32212d7a574842c1faf0b9d566b1647d220d12328f00e080b42b1312db82570ba67c51df575dadc1245686c7763d06c67c10f8415dd4d2652d26041a41cf340963254dbfa27e3b752948abb0f7c8b90d8bef4662e9c1d4233178401114559a7e4051c0bf5599019dbdb032d3fabec38fcb8a52da5de5bdafd6a41a1a3088b94e8f6e11deb0bda756c6f7badfce46bf9931f63a99d0f144d8e408b87ae02790d44bd8f3526106c3565983699f4475c0be299febf548bfe6c88f16ed22b0baddd8b7ae6474513de5ae712813ac4dff3f47e45073142d12e32d154e1eee152a89b2c22b479d750e6c2365f879ce58451266f7c78ac92d035f8d5d11579ab7b16dde7874fb727cb7669fc073dac26b9b7effe37f649051b1761cbdd0ad2262d62b9a95bd13f2f6c6d24f20edc3a2823375eab9bb70b68a4929464552cad7f822f35dd184ca63c8a6b9fc93a33d22319cffa5a3844573451c4df10069473816331a8d3e52b5817af6c90acee6dd121a90b473c4ae9354bfa8bb44c1f2f767b897f577b9ac3ff693177cb518fb2fae32b345064c69421fba8f18bd81df030e97ab9bcdb95ebae531b8a355c2dc020fb583b3e60dee430835d8b3415f81ec527f7f0a768d19f0a3885897f78aa19acd6273546c0d046bc2557ebb41e41122954d4b17a1044411574eafc72253844a53efddc148e8ab68641662708dd65df7f44e2960eb849279b14c98fbb8d81b51a2279f8a585c1598ee9d617ac4f75bcab1b77f5946db56af8eb4b23dea9b14109b88f8c5b83b16b96e0bd045ee70d42533138d1eecf651c2f25448d0c598c880a053fcfd63cb5c92e0144551e92f8e6a2a05f36e2018efbc893a20937a42f8d47b2a14a10d7451ad2e2d5dfdd03dfcfaefa84f379184e3b9fc2e0447e27befe1a05e7b3241c0bcd7454cec62f106cbfce7c4349406a2d8659e0c42644cb62c44d9619d7c5f6c51d9df2fa68d523e2495e95182c14f4921e2b5cd11085e65841fff0706c7d1e4e1a639ca455c8d4b81ff6b2cfd82b6b01ed3c2e66675db026460545c394261ca35391cb6652ae722296a6862388359f2376bbec2588c9be686f3e0f8f98bb2583075e7dfe0914e6a76c27f84dfa6492e19bf534d7df0cc2bff7c1c2d0d16dde93e2c49d4177a8091cf4c45056bcead836807ce196a16588bd682eea86b6ca3e0397193ae496be253646b93bd582f83ced31068ad717d0f1160a1af5382563a873f7dfd7b606c80a918157401d1419496988a2cb141aac98705a726861c4a9f9125415cfad797bd5044979d28bb1797cea97c0b4ad83da46c6d105d20db8ef52edf018d5431913a0ce475b5de59850b5b5a114c447c3156d17e2d052fcce0da454e94d745add38bbe7af274e14e9eb0a74ce1837bfdc2e8430c38fcf37f67049548d20cc03a90c74c65ce2b55e76ffb88c91cd473e56f1a83f75a2a6f2d31ec004422a7b7bcf88a3fc90c96f1a8e9aed315fee76941af791e5c0d9da95d9599193a9b67229b3184f967af4e6c352dba3fb3022be1990f4670cb42741f3a29bad99b1d1190c149181c3edb3f5a53df50f3ee5f17a5decd48d8b47a4b31effc8f62727fb76409dc1395199043e2232f199b7b524602eb4cdc2662182bb5a1f0904a1d310690ef0f33ff942a60ad7dada2e363be8c20ed4f3fee8ea06b59a5e582b6bec933b75f0bee996549a71e634be82bd5b6e874ee66a288295e0f5a6e42b6d3240433f44797b874c6f6b2da2578c27bf91f2a940debf0fd0dd3eb725e10b1706eb8dd421380f26cc5753229bdeaa0b3260984be5aa7ab5c37a43fe2c872a253c5f07bd755097c707393b4017465d8b4a6abe1c4b487b20caf97b8098091e67a92d07bcf7985d8228934367d2008373a842286f1ad428e13b03c4dfa4556c7d905bee6373c187ff004111c253d4a595a61637a7b7e8da3affdff0d0f626b8d9597a2cd040506191f233132436092bcbdc8d8f2283d4f5e6a6c8a8d9ea0a1b0b6b8bcc5c8ced0d3edef000000000000000000000000000000121b2b4101fd210500a58cd4abd838e5a2f1b1dc07fbf0b68e38939c172bd217f2b02fa41ed99481c75d82219c493d450ab4469f3cb6c32c678b4d016e2143c525c515f6338a434eca9b64f79427ead6fa6d5440b82f6fc7ad0479e4d85c170a8376181d31a727c5a8292eabbe5fd9c46b99a5e7323d53a85586431e3e2b6a963e6ace901f9ca507f9baad71c1dcdaf87ef4baacb480f4f36f690224666054f19402e5e4fb834fbc9f86adf789ce75daaef4964c533b3c2fee00d609f0b62ee1e6e2d7af20229d0645b3218a61ca318ad26c72472089dcec1c264906385f2520ef2e9a939ba008524a0e1a506cc959954cd5f7e8adae0dacc90832ebade078823dcb728d3077659127354105c795566c795585320c978cc4818b68ca68327cb10b98ce63009b4af37bec8045d6204cef052d49c15dca826e558aa4a185c80dddfdccce3c2263c5d9f70cc401e6ab47d1ce6d8815a47c2d5a7f495f3a51745cbd53912259a99b1844f1285a857bea6d24140acdda676acefa8ab3cee8d167cc0cf8848b6e3739c4b1f67e253d51d3d9ed59e6c9024f577f12a355c12866f039091e9cdc6c6d2f3e0e6f7d56300882613ffbc78625eb3c08ee3160fda833fe11c6234c0d0dc5c139bf4935929e2f34f6c510fb620468816569f9979b9dbaf7829510b0d722776b415632a8f5479c591aa39b062257bf44493051a16ee261c6d4d32d25783508bb43f3c0180013c496b133beb7dbde4b9a4c7ae4bd720f705d191feb4c7d9b3ebce6e75c1718ae58378d2fc37dba843fe775de2e1a7e4b848353846f214111e2fb5453f02b3f5378dc945149058d8ccebab0a7f16248d8e055c5babd499e7f793fa6f31ef242c21a2e2078670d4fadb0136ca8d19deb840fd72a4349e17bbab48b047dcb9cdb0ce70699f88efaa67feb38b31fc4e5e788ac4cff96656fc52bb5f86e11ba44452712cdfe7f1b4b1e04815caa0b9c74174cf9da95a080e45c9a37cc56bb8709a764236fa4e4766926e9b4f921417186f9243c4454f43d63012a6e95df4a5eb8a37ee3d7eb36b59284a7138cf38453342d4424c9b2632e281df7d05004d12ff764b7ac811e0abab32d6c0b042b5065c8956f98e7176c45308639618810303205e5f1e23894754385afc046abc277ef5aba40dae6618d81d5ff5a4b10216fd80b558aa439ee9c500693c1add81406f82030530709d133a568469e1ea9f7def0beb59004dadafcff442b8a8f3865df31f912316045173e1db8c7c0dfa9e93356c7007462f18e8326fa3b28dc383b6979c38d8a697d41382b080e0c706dce725c42bff2afa0f390962b84aa9dcbf1006d283cc9d02f7e040fe8cd6b5faa22df52a731fd8b675a60f947ec9a1efeb533d09297d6aa39b1fea77101c1484e81133de90c736bb1269aaa8891529fae5f78545b6fdc159ac9ddee0093cd6f760340c3ed8ae4c280c03fba9189cccb4c926062dd76fd6c00c75d28e807c40cfeca56f3263de5cc1db238856870dc0ad15eeb3df837e23d3e3309c9c048222ad4721d535c36efb313510bb3e0815fc980ac5f0349fcd82983ab0ba89548bb7b4e6f5ff87c8ec55c1d2a945628af42d62e665d6a2f9341ab1e335cf4e23c6061063209570b016fa0339fc850d4f9c68b2d4c81d3a875a5d44a7a75ba2b3bf0727f808d32c601836560d53bb7e59cb78b44085cf5f275430a7344bb27ea605c1a9cb2f3e990665542b430c184d14be568d13ab9e985221b22af6161e8fd7ffd89fa225f91b08daecc3e979c8feb5a73eb63980f8d86ac653056b88b4be67128b2ae66bcb9cb3f8c569903141d984c0e0dc6c322852f24109fecc4f3e9e0a30726f3546f2485000000",
  "txid": "24ebeb290629a9531eface24fe59a620f75b69b451da2b37e42fcfd71c00727e",
  "hash": "28bdc83b8f7847315444d746676c0310577f4b20a015d8c9dbab9284b5b66ed3",
  "size": 5085,
  "vsize": 2278,
  "version": 1,
  "locktime": 133,
  "vin": [
    {
      "txid": "856e85df13c822a081efdd0e0ede93e442ad94ed377494b81e8139aedb8d4f06",
      "vout": 0,
      "scriptSig": {
        "asm": "",
        "hex": ""
      },
      "txinwitness": [
        "7b8843996ec56727521660ce9dab192df8fa13b362a3255d5cfeb5f2d6d5b2b8a9279e50d41673435a371c08c390bfa3815bbab5b303e6bf83446b63230f2e8c8ff8f707a1cbbc70f4a27e4ac5d9479196b4381af594f9fe96703d1a74c6198931276acddf85a23a275e93fde232bec4bef89987bf6bb6439a4365dde9f1d11191a19dc9f7a315b4af1304bbe48acceef1e5514a3884bebce7f1f15a4cd7610d47aeee5d07c38cec2482e79d13451ccda9c1da42812c66915f0fac896aee32b3fc59d29cf47a75705611bcbd031453d2f0757f5a8ba2dfbbea24039d775b22cf7d49bb7088f48ffafc5b2e8190d6f9be91701b7dac23b5e9d890f36c204e545e579122adc4efd273862546825bf2de9f70f809d96c74d1f0c267487d0109bc3275491b9670a63f043ce2468983c055c925da6d8c4eee6734d80ff268d6ed5525c1e3d6e621468cc2692b0dea5b93934aeb5d7f746bdcfd139cbb2f2b75583bc355c9ede8be3f2afee8cb80138972270c3ec9bd601ecec4aa417d3d7673e1468935eafa64f7324fff524c2a62208386d8874d3012233c311a5aae6b773887c849105986577ff62702e81a59e7060a4b49545f21dc743d3ccf68da1bd83deb9ee729446657cabf4a6157f89002f4bd7b0f50c096308684bf68338f70411c9842217a024bd608fb4a413a769a6e25696561e54e08b9c490f85d6fb0937988a37b9f9e4273aa044b2d4ec049b621792a394986ccea93278d96fe21f961be657dabf2aeb48a3ebb0a3b657f770fad20e9ff5f86454a14f2debebb532dc694518b15efc9513fd97ddd721b293134456507cdd6d72195b0d136ea6a8a760c3b694c9859ad2e33f5f9f54f0e0e5fe40c51c16d9c391fa1784b8238eb5bc55a81fb76a7e631def15055c6f6ac5a4fac64d18ee72d1775dd58dbb9f7ffb5fc58b5c695a1a7542d525ec37103490e96e4fca4c33c937c8f3b9312d26319e1aaa725d257798ce95e036d93b8cde0fe91811dd7ce682e9a8d73dbb6e21c3f4e331a591936529c2278d8d094bbffa314362cfd0b2a73a84611eeba45989680e16609f827511583cb2325b42b86a44dbfa6ac99636f92f8323bee0acd9fe08b52bc5a46364c8f2da10311fe99f4314dd8ee6447dad6b05928ed5f3222f8eaecbf9502e41a2122b8158ced190efe40b1396ac7a71882852e52fbc4ca0b7da8eaf31fed0cdab7939bcd9d63b543e4bf7feb89ba62433a106ada22ae7eb07e0a9e9f72df1d0370cc63abc0fa3750f36d10c1bca091d86ac5488e6ad48c89c1b74da91b90a14ba035417d5f8674d2182244c711b88b89ca1d9572f6454656008f5386f6b6708cddd03e631a69b294aa5c32212d7a574842c1faf0b9d566b1647d220d12328f00e080b42b1312db82570ba67c51df575dadc1245686c7763d06c67c10f8415dd4d2652d26041a41cf340963254dbfa27e3b752948abb0f7c8b90d8bef4662e9c1d4233178401114559a7e4051c0bf5599019dbdb032d3fabec38fcb8a52da5de5bdafd6a41a1a3088b94e8f6e11deb0bda756c6f7badfce46bf9931f63a99d0f144d8e408b87ae02790d44bd8f3526106c3565983699f4475c0be299febf548bfe6c88f16ed22b0baddd8b7ae6474513de5ae712813ac4dff3f47e45073142d12e32d154e1eee152a89b2c22b479d750e6c2365f879ce58451266f7c78ac92d035f8d5d11579ab7b16dde7874fb727cb7669fc073dac26b9b7effe37f649051b1761cbdd0ad2262d62b9a95bd13f2f6c6d24f20edc3a2823375eab9bb70b68a4929464552cad7f822f35dd184ca63c8a6b9fc93a33d22319cffa5a3844573451c4df10069473816331a8d3e52b5817af6c90acee6dd121a90b473c4ae9354bfa8bb44c1f2f767b897f577b9ac3ff693177cb518fb2fae32b345064c69421fba8f18bd81df030e97ab9bcdb95ebae531b8a355c2dc020fb583b3e60dee430835d8b3415f81ec527f7f0a768d19f0a3885897f78aa19acd6273546c0d046bc2557ebb41e41122954d4b17a1044411574eafc72253844a53efddc148e8ab68641662708dd65df7f44e2960eb849279b14c98fbb8d81b51a2279f8a585c1598ee9d617ac4f75bcab1b77f5946db56af8eb4b23dea9b14109b88f8c5b83b16b96e0bd045ee70d42533138d1eecf651c2f25448d0c598c880a053fcfd63cb5c92e0144551e92f8e6a2a05f36e2018efbc893a20937a42f8d47b2a14a10d7451ad2e2d5dfdd03dfcfaefa84f379184e3b9fc2e0447e27befe1a05e7b3241c0bcd7454cec62f106cbfce7c4349406a2d8659e0c42644cb62c44d9619d7c5f6c51d9df2fa68d523e2495e95182c14f4921e2b5cd11085e65841fff0706c7d1e4e1a639ca455c8d4b81ff6b2cfd82b6b01ed3c2e66675db026460545c394261ca35391cb6652ae722296a6862388359f2376bbec2588c9be686f3e0f8f98bb2583075e7dfe0914e6a76c27f84dfa6492e19bf534d7df0cc2bff7c1c2d0d16dde93e2c49d4177a8091cf4c45056bcead836807ce196a16588bd682eea86b6ca3e0397193ae496be253646b93bd582f83ced31068ad717d0f1160a1af5382563a873f7dfd7b606c80a918157401d1419496988a2cb141aac98705a726861c4a9f9125415cfad797bd5044979d28bb1797cea97c0b4ad83da46c6d105d20db8ef52edf018d5431913a0ce475b5de59850b5b5a114c447c3156d17e2d052fcce0da454e94d745add38bbe7af274e14e9eb0a74ce1837bfdc2e8430c38fcf37f67049548d20cc03a90c74c65ce2b55e76ffb88c91cd473e56f1a83f75a2a6f2d31ec004422a7b7bcf88a3fc90c96f1a8e9aed315fee76941af791e5c0d9da95d9599193a9b67229b3184f967af4e6c352dba3fb3022be1990f4670cb42741f3a29bad99b1d1190c149181c3edb3f5a53df50f3ee5f17a5decd48d8b47a4b31effc8f62727fb76409dc1395199043e2232f199b7b524602eb4cdc2662182bb5a1f0904a1d310690ef0f33ff942a60ad7dada2e363be8c20ed4f3fee8ea06b59a5e582b6bec933b75f0bee996549a71e634be82bd5b6e874ee66a288295e0f5a6e42b6d3240433f44797b874c6f6b2da2578c27bf91f2a940debf0fd0dd3eb725e10b1706eb8dd421380f26cc5753229bdeaa0b3260984be5aa7ab5c37a43fe2c872a253c5f07bd755097c707393b4017465d8b4a6abe1c4b487b20caf97b8098091e67a92d07bcf7985d8228934367d2008373a842286f1ad428e13b03c4dfa4556c7d905bee6373c187ff004111c253d4a595a61637a7b7e8da3affdff0d0f626b8d9597a2cd040506191f233132436092bcbdc8d8f2283d4f5e6a6c8a8d9ea0a1b0b6b8bcc5c8ced0d3edef000000000000000000000000000000121b2b4101",
        "00a58cd4abd838e5a2f1b1dc07fbf0b68e38939c172bd217f2b02fa41ed99481c75d82219c493d450ab4469f3cb6c32c678b4d016e2143c525c515f6338a434eca9b64f79427ead6fa6d5440b82f6fc7ad0479e4d85c170a8376181d31a727c5a8292eabbe5fd9c46b99a5e7323d53a85586431e3e2b6a963e6ace901f9ca507f9baad71c1dcdaf87ef4baacb480f4f36f690224666054f19402e5e4fb834fbc9f86adf789ce75daaef4964c533b3c2fee00d609f0b62ee1e6e2d7af20229d0645b3218a61ca318ad26c72472089dcec1c264906385f2520ef2e9a939ba008524a0e1a506cc959954cd5f7e8adae0dacc90832ebade078823dcb728d3077659127354105c795566c795585320c978cc4818b68ca68327cb10b98ce63009b4af37bec8045d6204cef052d49c15dca826e558aa4a185c80dddfdccce3c2263c5d9f70cc401e6ab47d1ce6d8815a47c2d5a7f495f3a51745cbd53912259a99b1844f1285a857bea6d24140acdda676acefa8ab3cee8d167cc0cf8848b6e3739c4b1f67e253d51d3d9ed59e6c9024f577f12a355c12866f039091e9cdc6c6d2f3e0e6f7d56300882613ffbc78625eb3c08ee3160fda833fe11c6234c0d0dc5c139bf4935929e2f34f6c510fb620468816569f9979b9dbaf7829510b0d722776b415632a8f5479c591aa39b062257bf44493051a16ee261c6d4d32d25783508bb43f3c0180013c496b133beb7dbde4b9a4c7ae4bd720f705d191feb4c7d9b3ebce6e75c1718ae58378d2fc37dba843fe775de2e1a7e4b848353846f214111e2fb5453f02b3f5378dc945149058d8ccebab0a7f16248d8e055c5babd499e7f793fa6f31ef242c21a2e2078670d4fadb0136ca8d19deb840fd72a4349e17bbab48b047dcb9cdb0ce70699f88efaa67feb38b31fc4e5e788ac4cff96656fc52bb5f86e11ba44452712cdfe7f1b4b1e04815caa0b9c74174cf9da95a080e45c9a37cc56bb8709a764236fa4e4766926e9b4f921417186f9243c4454f43d63012a6e95df4a5eb8a37ee3d7eb36b59284a7138cf38453342d4424c9b2632e281df7d05004d12ff764b7ac811e0abab32d6c0b042b5065c8956f98e7176c45308639618810303205e5f1e23894754385afc046abc277ef5aba40dae6618d81d5ff5a4b10216fd80b558aa439ee9c500693c1add81406f82030530709d133a568469e1ea9f7def0beb59004dadafcff442b8a8f3865df31f912316045173e1db8c7c0dfa9e93356c7007462f18e8326fa3b28dc383b6979c38d8a697d41382b080e0c706dce725c42bff2afa0f390962b84aa9dcbf1006d283cc9d02f7e040fe8cd6b5faa22df52a731fd8b675a60f947ec9a1efeb533d09297d6aa39b1fea77101c1484e81133de90c736bb1269aaa8891529fae5f78545b6fdc159ac9ddee0093cd6f760340c3ed8ae4c280c03fba9189cccb4c926062dd76fd6c00c75d28e807c40cfeca56f3263de5cc1db238856870dc0ad15eeb3df837e23d3e3309c9c048222ad4721d535c36efb313510bb3e0815fc980ac5f0349fcd82983ab0ba89548bb7b4e6f5ff87c8ec55c1d2a945628af42d62e665d6a2f9341ab1e335cf4e23c6061063209570b016fa0339fc850d4f9c68b2d4c81d3a875a5d44a7a75ba2b3bf0727f808d32c601836560d53bb7e59cb78b44085cf5f275430a7344bb27ea605c1a9cb2f3e990665542b430c184d14be568d13ab9e985221b22af6161e8fd7ffd89fa225f91b08daecc3e979c8feb5a73eb63980f8d86ac653056b88b4be67128b2ae66bcb9cb3f8c569903141d984c0e0dc6c322852f24109fecc4f3e9e0a30726f3546f24"
      ],
      "sequence": 4294967294
    }
  ],
  "vout": [
    {
      "value": 1.0,
      "n": 0,
      "scriptPubKey": {
        "asm": "OP_RETURN f723c01dcde6ab929503ed6a7d1074295ce2753e0b039de630fd4529f10b83b4 6ef626d8a1c661f135043358b941bd3ff86ab243470e4226b40983a7f85f13994ed606f881e641d11524137899619d1fd84a9263672e62069429a387d87f33b92eb66698e18621b175447318f901fd7fb82af203074e0266f449c3e7b81f53d90e9646b8c1a6019155645338d921dd5f980ad223276e2246d469e3c7983f73f9ee76a6582146e171b584b3d839c13dbf78ea32c3c78ec2a63489032778df9319ce5686780166c15195a493f819e11d9f58ca12e3e7aee28614a9230758ffb339ae36e6186106a131f5c4f39879817dff38aa728387ce82e674c94367389fd3598e16c63841268111d5e4d3b859a15ddf188a52a3a7eea2c654e9634718bff3796ef626d8a1c661f135043358b941bd3ff86ab243470e4226b40983a7f85f13994ed606f881e641d11524137899619d1fd84a9263672e62069429a387d87f33b92eb66698e18621b175447318f901fd7fb82af203074e0266f449c3e7b81f53d90e9646b8c1a6019155645338d921dd5f980ad223276e2246d469e3c7983f73f9ee76a6582146e171b584b3d839c13dbf78ea32c3c78ec2a63489032778df9319ce5686780166c15195a493f819e11d9f58ca12e3e7aee28614a9230758ffb339ae36e6186106a131f5c4f39879817dff38aa728387ce82e674c94367389fd3598e16c63841268111d5e4d3b859a15ddf188a52a3a7eea2c654e9634718bff3796ef626d8a1c661f135043358b941bd3ff86ab243470e4226b40983a7f85f13994ed606f881e641d11524137899619d1fd84a9263672e62069429a387d87f33b92eb66698e18621b175447318f901fd7fb82af203074e0266f449c3e7b81f53d90e9646b8c1a6019155645338d921dd5f980ad223276e2246d469e3c7983f73f9ee76a6582146e171b584b3d839c13dbf78ea32c3c78ec2a63489032778df9319ce5686780166c15195a493f819e11d9f58ca12e3e7aee28614a9230758ffb339ae36e6186106a131f5c4f39879817dff38aa728387ce82e674c94367389fd3598e16c63841268111d5e4d3b859a15ddf188a52a3a7eea2c654e9634718bff3796ef626d8a1c661f135043358b941bd3ff86ab243470e4226b40983a7f85f13994ed606f881e641d11524137899619d1fd84a9263672e62069429a387d87f33b92eb66698e18621b175447318f901fd7fb82af203074e0266f449c3e7b81f53d90e9646b8c1a6019155645338d921dd5f980ad223276e2246d469e3c7983f73f9ee76a6582146e171b584b3d839c13dbf78ea32c3c78ec2a63489032778df9319ce5686780166c15195a493f819e11d9f58ca12e3e7aee28614a9230758ffb339ae36e6186106a131f5c4f39879817dff38aa728387ce82e674c94367389fd3598e16c63841268111d5e4d3b859a15ddf188a52a3a7eea2c654e9634718bff3796ef626d8a1c661f135043358b941bd3ff86ab243470e4226b40983a7f85f13994ed606f881e641d11524137899619d1fd84a9263672e62069429a387d87f33b92eb66698e18621b175447318f901fd7fb82af203074e0266f449c3e7b81f53d90e9646b8c1a6019155645338d921dd5f980ad223276e2246d469e3c7983f73f9ee76a6582146e171b584b3d839c13dbf4f4483e356c3abb82bc6378855f0a71623704781425828375d13afe47bcc5e4e",
        "hex": "6a20f723c01dcde6ab929503ed6a7d1074295ce2753e0b039de630fd4529f10b83b44db0046ef626d8a1c661f135043358b941bd3ff86ab243470e4226b40983a7f85f13994ed606f881e641d11524137899619d1fd84a9263672e62069429a387d87f33b92eb66698e18621b175447318f901fd7fb82af203074e0266f449c3e7b81f53d90e9646b8c1a6019155645338d921dd5f980ad223276e2246d469e3c7983f73f9ee76a6582146e171b584b3d839c13dbf78ea32c3c78ec2a63489032778df9319ce5686780166c15195a493f819e11d9f58ca12e3e7aee28614a9230758ffb339ae36e6186106a131f5c4f39879817dff38aa728387ce82e674c94367389fd3598e16c63841268111d5e4d3b859a15ddf188a52a3a7eea2c654e9634718bff3796ef626d8a1c661f135043358b941bd3ff86ab243470e4226b40983a7f85f13994ed606f881e641d11524137899619d1fd84a9263672e62069429a387d87f33b92eb66698e18621b175447318f901fd7fb82af203074e0266f449c3e7b81f53d90e9646b8c1a6019155645338d921dd5f980ad223276e2246d469e3c7983f73f9ee76a6582146e171b584b3d839c13dbf78ea32c3c78ec2a63489032778df9319ce5686780166c15195a493f819e11d9f58ca12e3e7aee28614a9230758ffb339ae36e6186106a131f5c4f39879817dff38aa728387ce82e674c94367389fd3598e16c63841268111d5e4d3b859a15ddf188a52a3a7eea2c654e9634718bff3796ef626d8a1c661f135043358b941bd3ff86ab243470e4226b40983a7f85f13994ed606f881e641d11524137899619d1fd84a9263672e62069429a387d87f33b92eb66698e18621b175447318f901fd7fb82af203074e0266f449c3e7b81f53d90e9646b8c1a6019155645338d921dd5f980ad223276e2246d469e3c7983f73f9ee76a6582146e171b584b3d839c13dbf78ea32c3c78ec2a63489032778df9319ce5686780166c15195a493f819e11d9f58ca12e3e7aee28614a9230758ffb339ae36e6186106a131f5c4f39879817dff38aa728387ce82e674c94367389fd3598e16c63841268111d5e4d3b859a15ddf188a52a3a7eea2c654e9634718bff3796ef626d8a1c661f135043358b941bd3ff86ab243470e4226b40983a7f85f13994ed606f881e641d11524137899619d1fd84a9263672e62069429a387d87f33b92eb66698e18621b175447318f901fd7fb82af203074e0266f449c3e7b81f53d90e9646b8c1a6019155645338d921dd5f980ad223276e2246d469e3c7983f73f9ee76a6582146e171b584b3d839c13dbf78ea32c3c78ec2a63489032778df9319ce5686780166c15195a493f819e11d9f58ca12e3e7aee28614a9230758ffb339ae36e6186106a131f5c4f39879817dff38aa728387ce82e674c94367389fd3598e16c63841268111d5e4d3b859a15ddf188a52a3a7eea2c654e9634718bff3796ef626d8a1c661f135043358b941bd3ff86ab243470e4226b40983a7f85f13994ed606f881e641d11524137899619d1fd84a9263672e62069429a387d87f33b92eb66698e18621b175447318f901fd7fb82af203074e0266f449c3e7b81f53d90e9646b8c1a6019155645338d921dd5f980ad223276e2246d469e3c7983f73f9ee76a6582146e171b584b3d839c13dbf4f4483e356c3abb82bc6378855f0a71623704781425828375d13afe47bcc5e4e",
        "type": "nulldata"
      }
    },
    {
      "value": 499965.4254,
      "n": 1,
      "scriptPubKey": {
        "asm": "1 bfcb013a18913e026cff70a52e6cc047fa6bff4da14c659fbfee5f0e82d536d8",
        "hex": "5120bfcb013a18913e026cff70a52e6cc047fa6bff4da14c659fbfee5f0e82d536d8",
        "reqSigs": 1,
        "type": "witness_v1_scripthash",
        "addresses": [
          "3QJmnh"
        ]
      }
    }
  ],
  "blockhash": "e83fb8d8eae63b54f6b1b3d1fbcbee555d4e910f42cfd1b5d97cc48d92172bc4",
  "confirmations": 1,
  "time": 1764182633,
  "blocktime": 1764182633
}