{
  "hex": "01000000000101cb0fd38a1f345f359ddc44ff21a6cb2c34644118c6077c40d5abcb3ae097e2960000000000feffffff02f020b051792d000022512071c3c90045b18899bd91acc77f9f482161dd947fd20bbb98085f5687e6fae8f600e1f50500000000fdd5046a2056e4c79b21e65e3cb39c123039a91c8ada7615405c8ae4363a36fde64e3d5ec54db00471acb20770f7a04787e7c918230f120799232fc9ea5dc2a02b3f816dcfab6d33518c922750d78067a7c7e938032f3227b9030fe9ca7de2800b1fa14def8b4d1331ecf24730b7e007c7a78958634f5247d9636f89aa1d82e06b7fc12d8feb2d7311ccd2671097c027e787a978436f7267f9434fa98a3da2c04b5fe10dafcb0d53f12c3287f07720c707674998a38f928719a3af496add4220abbf01ed4f2bedb3d10c12a7d05700e7274769b883afb2a739838f694afd62008b9f21cd6f0bcd93b16c72c7b0376087472709d8e3cfd2c759e3ef092a9d0260ebff41ad0f6badf3914c52e7901740a7670729f8c3eff2e779c3cf290abd2240cbdf618d2f4b8dd371acb20770f7a04787e7c918230f120799232fc9ea5dc2a02b3f816dcfab6d33518c922750d78067a7c7e938032f3227b9030fe9ca7de2800b1fa14def8b4d1331ecf24730b7e007c7a78958634f5247d9636f89aa1d82e06b7fc12d8feb2d7311ccd2671097c027e787a978436f7267f9434fa98a3da2c04b5fe10dafcb0d53f12c3287f07720c707674998a38f928719a3af496add4220abbf01ed4f2bedb3d10c12a7d05700e7274769b883afb2a739838f694afd62008b9f21cd6f0bcd93b16c72c7b0376087472709d8e3cfd2c759e3ef092a9d0260ebff41ad0f6badf3914c52e7901740a7670729f8c3eff2e779c3cf290abd2240cbdf618d2f4b8dd371acb20770f7a04787e7c918230f120799232fc9ea5dc2a02b3f816dcfab6d33518c922750d78067a7c7e938032f3227b9030fe9ca7de2800b1fa14def8b4d1331ecf24730b7e007c7a78958634f5247d9636f89aa1d82e06b7fc12d8feb2d7311ccd2671097c027e787a978436f7267f9434fa98a3da2c04b5fe10dafcb0d53f12c3287f07720c707674998a38f928719a3af496add4220abbf01ed4f2bedb3d10c12a7d05700e7274769b883afb2a739838f694afd62008b9f21cd6f0bcd93b16c72c7b0376087472709d8e3cfd2c759e3ef092a9d0260ebff41ad0f6badf3914c52e7901740a7670729f8c3eff2e779c3cf290abd2240cbdf618d2f4b8dd371acb20770f7a04787e7c918230f120799232fc9ea5dc2a02b3f816dcfab6d33518c922750d78067a7c7e938032f3227b9030fe9ca7de2800b1fa14def8b4d1331ecf24730b7e007c7a78958634f5247d9636f89aa1d82e06b7fc12d8feb2d7311ccd2671097c027e787a978436f7267f9434fa98a3da2c04b5fe10dafcb0d53f12c3287f07720c707674998a38f928719a3af496add4220abbf01ed4f2bedb3d10c12a7d05700e7274769b883afb2a739838f694afd62008b9f21cd6f0bcd93b16c72c7b0376087472709d8e3cfd2c759e3ef092a9d0260ebff41ad0f6badf3914c52e7901740a7670729f8c3eff2e779c3cf290abd2240cbdf618d2f4b8dd371acb20770f7a04787e7c918230f120799232fc9ea5dc2a02b3f816dcfab6d33518c922750d78067a7c7e938032f3227b9030fe9ca7de2800b1fa14def8b4d1331ecf24730b7e007c7a78958634f5247d9636f89aa1d82e06b7fc12d8feb2d7311ccd2671097c027e787a978436f7267f9434fa98a3da2c04b5fe10dafcb0d53f12c3287f07720c707674998a38f9287d92f1cbe74b56efbdd7cb3d3cbf44e70bd154c744644d6659207323c0ac238f702fd7509a4d9b1d10c70501e302f14196d1f2227929e22674d1460c702c9904976507337fe23c9de1c8a0dc571a57952a6cca2ea11b73ce35c569df3f263d26378ad38d02c76897895eda28657467a546378d8e975a2352d6bd82c1beecd92e1dcc12ebdd717333e5daabe7196a8b9c199c3e398f91d65c5481e8a7ebdc22da5a3238e019aa0973e0de05d58642e30d2c9574acc25378aa18323810752f672729e0389fa87707ab628e72c11d9b50e5227c4802df6a010ec0a094cfee444533e1f3ce3b296bd5b84dc8ce1c739ebfee53107e811d166d263b70a4e14237a977f52fc33259f6ea7069006fd45fdd903dc89f15562dd515fa68d8d3e5854738aebb36721525370f0b93b6a337dc3521d3bb4e57168d3da0b58d22b64abbad6433fcf34396f617ccabf74f890a86387eed89fc2d51a07388a646e48a07e1882294f22db1d768761a8056856073cd1f862c52be5d854618010aeecf19e76bf3822855f533629185dc70565adb8bb04365c3a3b0a1831a91d8b3f5c0ec513d98c26c08a9f9b98baf30f5b812971d549771f79e30d2527f8d0efebd6321fe2c1cb3b25548360466c2d8aac972df7e2aefc6f77af4493b6c967c01b7bf96cecc3aff3d9de6b0384ebd71c4855f6b6fcd4889f3107cba068ce6cf4378718acf13acaa4fd65aa6f62f20d10450290a8f471535ce56a4512582f77d636928dd9f90be9456366a5e78a49eeef65204b42df528c74dda5721252b373937788b3176ce8f80e7617a29bc76e6306dcfd4ff02e3da5196bd59a36e1a6f7f53f144e48402276c793200f4aacb9e8e26f5ad068fff6ac5d0197c312275a0b626f2e0e2d17676f1f476d68b6bac2f12421febf6678a5deb00cbb8748b109f4c43bbc7c8aea494f6d85ca71a8524190b64350360c524126768065882f66fdb2b4abfadbf0a7b309740e59ca8b81f50f3009895aebe35656fa8228f18a7fb4b19dd62789a25b948a1662388e6c41ccab426639a1572c9eede690e17706231b8b8c69b512f634003b59f39d850c3b5d3412067473db913c7c46096c3201996d5e76efa8cabd79588ba919c5929d1cb6a590c370439d52a75a9fa9136f2f938891320bafcd306a5795f0ae293ba6e12888079da16cc38d58d81c9a2135ecc10b7c6587b6ff9be7fb44c94a7446b31e3757defd1197b6b19926014b9bbbe86ffa7605e2e85f57567343a3031ca622c3cd33be83cb6fde3224f1530bf28dd541ed5dbf22c6a732e3dc375f199a4d72be8500b341c0fce1bfc48aba4a127daf1c3beb291cf61f3432c3b8f147fb8d364b80e49abe005880539eda5419205bcb0bc159cd49801750e7027ced35ab6c405d2e0d3f6677a3c608defb786a4b991cde53b1110dc8cc197b05965a8757ff9d3cbf302b61daba0e687b0036d31a10dd7d2bc847d7b12a7d9e8543e3ae43d8e1543895c16c96a6d78292b4f1c80c54cf8718edf6bb6003c73e661633473e81b276d9d68b857095ac9973460c7b7d5652720e8006cd80187623214483617af01a0cf7be54c9b1aa19d876ff046b30fc59bdb1f0c5229c33d062334aa86f5b20951b0cfa2d68d7face75c746f8f180e8cb87caad417d8f14e70fe949e08e892b4db05fe4348fd24e32c340e2feef05d8f6493ad3d353c89714c7bde80d08317c5257e5eb88b558735d630b7c71cbdfb89d632a37ac073070d2ec266634dbb26ea8e39f6e49b376b7c48baaf7d4c5a0b658b8ee44bed1204bc41057abeb28b8f321b997bec06b233b92a576aa236523d9c0f87800230d94e89ab83ad93df14aa1a369cfd976eb60850865cc91fb7c7d8d066b6f200efb4448d27106145fdab78d3dac83bf9c26727e0cc47e7d9de8663df2550a24c806b0a75725c4b3660d5bb27ec9a106a6ee63d63a1ed7f43b692555cd70029133bb7631f5752a2ef1ac1403eb31b5da107cbff74a603a21ee7310ff10305d4c9be88ec9ab43b233453fcf271f32cb056b064286a3e5776a69f25c525457b03e8c4d6b3b69786fc75c5d888ddec5cbaef3f5e03bee65a245842765a4c37367931905bb3295a5b38eab61dcd959e93d09921db315e072785362a2cb8832002084ffdd96fa59293107246dc6be79d4cd6ca4e97a3d92bfe65b410b380760716e4421cbaccf0822679807541acce0f5b90b126f055384819fcd8cceed8c64e05fc91fb07a4024c654eafd5313a571a97a52624552e7da0393b9f0980d51e5bd7b2e84abacb6a1fdb7300523b96382c85ee08d204a9fa0a654168c0e82909bbccc72de7bafb0812fc4a3795178235d361c3db250a42fac3b6c8da8c05666cf7e21000e9257b7247afcdefd0ef03cc36b4182071d47e206dd969cd849411779d4945e1febf0234b72ffcc2a93082a9d0495a78be4c2c4f246c7e573d85271255211e10806062f198425e43436c0f0fee359d822c6ed6bb4719befad5970ba54fc5ee83240157eef0fb95cfb9e6529521f83fda7a655b52eb2bb4601d7dd0edd507245bf1c406ab126a0520d477bc20d809f6f32686293b531c96207aaf17b9ddccb82e456b2f81cb1fe801549d64021e22db42a30eee272621f64b5c5d08ab515ec830023acdda36c86db81845cc561c11aadb88630214f3c7b43cf476bcb3f3bd27a81d973d5eafa65a3d53c9e4e7196b88af6c3aaf856f46fb9d1931971a545102371d520a3bd3f3a4fba591fb646a0543e38b29b051bea9735e89749a587f9184e0f573f47b802069e7772a615803b91289a26a8d9b0537e3477a977412c4c3d8bc956d13a08c50482e1fa6c3b16b1d1b3d901077ad1553f50c298147c1f4dfcd502b047dfb66b44c4c303056f36aaf070f876dd4a82e92fbf719e08a7d41a37d159a7ee566e43567b50995fb1c3f2ba74a89f75e58f642339f3e01fdac56cc8955d3562d3e8122209d01cc86ddbb89f65e891fbcbae49128952022e708978b61b0d7aef17ddc66de5b3cbb6ac4119de7c3d7b96a3993acead996d70d84ffe7b756fc482a82b282e726998de422c916743c2d5119bc0e0f988b296e6ecb97b33c44dd59cbc893b8fda1f18d356381e914c6d4b1f5632a16e15eee3b009b9dffdea980ebe21947add6cdd911f5beb0ea49573a068dff0a3fe0ef463e7f8f305667bb514ddb952e344cea10cca009f2584da5ba944aebc89003d7732eaca6d8e9692dffbd3b2308858ec6a1025d9a6273668abc20cd87312c79bde1998a3970cd1f33574ed857bcf21bfbe312cb45609e4f41b9cc5030b904a2caa6c0bf45a95c0881ac08cd96dbb7ab4b49fcd6a52270d2123255f75767e979ca6aeb5c3d6da055d7d83999ac5cbced0d3ff0222363c4a61718b8e939fabb3bec1d0d2e3f4283f515c677d939fb2bed7dbfe0000000000000000000000000000000000000000101c2f3c01fd21050006857ef897bad643557acc9565068201d3c72894d118cc37242b6403e2b600453f8a8cfc9246a04d6b58988be2162003fbd0173e4590e2653764ae4e078e7d1459d7bddb498d16774d062904b3e71fdfbbcacd4956e5487c52888656a9448555eb5fc617e4274029291ad83b3af9fdf39c2440df40aa048c3fdf78863e568c318ad864bb609ed886bf5ed1e53425ddb28d2a68618ba37a5a83e69008fcf3dc624e9a9254763f6ff4804d414768d8f59a0b2ff38388c86ff127ba39d24504439dcf2aa59a66767925b036139c0c43016342871e4c55f1899967a99db96fcfac06e98a09936b9496de0e33084eb1438a0211213a6822f3388b03da004201717095ffd21a84e467639cb34b1761e5fe6e962027a345ed226f9494f8dfc9412b5a87fbf75ebe9026d3641c858dbc1adb10bf17a4305ac05d8b582939b9aaa7e4a1589f061c7a12db4623571e10926a0dea2c44d37f3c6c0ff2d6bd147830358248977a6a188ab473666296a4b48aae5802051a042135a2e7055ac01edd25ebc064120c5902769a2613ef7e6915903b44102822c430484e3907b5aca588102541e390f07770814c84e1122a9f31e1289e5ba70569b8b8a5bb544fa49d8447a6a30962fb8e619187b23d500625526306681c77d1027b63fec3a88e8f36a6b2cd9df9fd00d9bcff17bdb902a0d3bc6a852f07e2a1d3d685963d8f69179573a0d4d25b40ee144fd033054da64d5b71b494a14734c3dc2acb3530a79e53cc4af0c23d98a43841bc3e4bf2886b9a53a1625dddd21f83a6aded9077c478e692b68df37189ea1185237d32c12232d5c060facf73667e65f2ce98c91ee7a36354d5ed4a1aa9b01e40c2c9a1cbd9a5f76f3e6793bac5140dbb20c6a948bdcb10937a394024b0ffb16c86b872c8b91adabb195b7b751fe937c4fd1ecb37409ff29abbd6157903a27684583b5bbeeb6bc9c2f19cd20ed6151b0c85cc0b8b40a1ede8e096cfe5a00d26d03bcfadd93c47ba49e400502d8c6beaad91da159ea5753f57188dd2094f2ee3c01d5a74a054a98277f1fe8f8c25cf3c725968db5616e477ac4a64e028e91f40604748e9b80478efb6fdf12828a1c0aa4ea9020e066ce82aef776d9e12328b282022065be0d04e8405480f0a0d225bf7abface4289080fe4d56c8f1234bc59e976a354801d86b2b014115c045fd53d9951791a17d49406eea5b42432d8dc7180e8408a591fd46ff7b5fc10008ec880e72e4a47cdfdb82f85bd1b5b3a9180187893c70f126c9577b9734bd8c2fc847487a8c64a6cf40fbe69a208e9875ac56e706041b6a4b2e17a6e958f7ea731e55faf05188ca8b76eb20c72355d6574861e751e00f178b9aca0c4969445c8389a720e870e9385be9650b43cd528e3410c1b87ec4e6b5c9de8e6c6bc0b3e56fac3fa16991a75eb53527cbc71ca2c875d6e544f31b6c0cd45fec5839f99b110278ea3fdce6f7d2dbb78aae57959adb11f1f4bb76fb586b92fed7cc8f3457cf53150c8279fd236aeda7c4a70ac93447dcdf78805e9eec5a79431488b728df33c13e4bcb24db5d02e720102007a74fb96f62af55bdd5a674a44caa6e2c60d80ad994e0f5e66ce6ac872facc6012bc5f146d2ac23b40a9669a8b54f425715289069f54758832e9264d72097f9f23a51797d75b89e844fbdce0377147b72691e1afda5f881b17084a065e408c32c1bcc04d2af336757530a5d8ed566bcc862549766c47a0c8878d54f45e317086e70a1a532f283309f21bcad7945ffc1418ff010de779a45d14457ad9e221fc55eea2da5a3f6cf19261b9eb442003b4796072087f82f64993437d5d809c2bfe11b45f961008e9ca6c000000",
  "txid": "219754c51bff22060f83df7b2caf9d4cc864635355346246c83645dd600bd9ed",
  "hash": "c1f54cfcc1d9d3e8ba1ae83d59e911c2401a339b0610a401510cf72cd40fa10d",
  "size": 5085,
  "vsize": 2278,
  "version": 1,
  "locktime": 108,
  "vin": [
    {
      "txid": "96e297e03acbabd5407c07c6184164342ccba621ff44dc9d355f341f8ad30fcb",
      "vout": 0,
      "scriptSig": {
        "asm": "",
        "hex": ""
      },
      "txinwitness": [
        "a4d9b1d10c70501e302f14196d1f2227929e22674d1460c702c9904976507337fe23c9de1c8a0dc571a57952a6cca2ea11b73ce35c569df3f263d26378ad38d02c76897895eda28657467a546378d8e975a2352d6bd82c1beecd92e1dcc12ebdd717333e5daabe7196a8b9c199c3e398f91d65c5481e8a7ebdc22da5a3238e019aa0973e0de05d58642e30d2c9574acc25378aa18323810752f672729e0389fa87707ab628e72c11d9b50e5227c4802df6a010ec0a094cfee444533e1f3ce3b296bd5b84dc8ce1c739ebfee53107e811d166d263b70a4e14237a977f52fc33259f6ea7069006fd45fdd903dc89f15562dd515fa68d8d3e5854738aebb36721525370f0b93b6a337dc3521d3bb4e57168d3da0b58d22b64abbad6433fcf34396f617ccabf74f890a86387eed89fc2d51a07388a646e48a07e1882294f22db1d768761a8056856073cd1f862c52be5d854618010aeecf19e76bf3822855f533629185dc70565adb8bb04365c3a3b0a1831a91d8b3f5c0ec513d98c26c08a9f9b98baf30f5b812971d549771f79e30d2527f8d0efebd6321fe2c1cb3b25548360466c2d8aac972df7e2aefc6f77af4493b6c967c01b7bf96cecc3aff3d9de6b0384ebd71c4855f6b6fcd4889f3107cba068ce6cf4378718acf13acaa4fd65aa6f62f20d10450290a8f471535ce56a4512582f77d636928dd9f90be9456366a5e78a49eeef65204b42df528c74dda5721252b373937788b3176ce8f80e7617a29bc76e6306dcfd4ff02e3da5196bd59a36e1a6f7f53f144e48402276c793200f4aacb9e8e26f5ad068fff6ac5d0197c312275a0b626f2e0e2d17676f1f476d68b6bac2f12421febf6678a5deb00cbb8748b109f4c43bbc7c8aea494f6d85ca71a8524190b64350360c524126768065882f66fdb2b4abfadbf0a7b309740e59ca8b81f50f3009895aebe35656fa8228f18a7fb4b19dd62789a25b948a1662388e6c41ccab426639a1572c9eede690e17706231b8b8c69b512f634003b59f39d850c3b5d3412067473db913c7c46096c3201996d5e76efa8cabd79588ba919c5929d1cb6a590c370439d52a75a9fa9136f2f938891320bafcd306a5795f0ae293ba6e12888079da16cc38d58d81c9a2135ecc10b7c6587b6ff9be7fb44c94a7446b31e3757defd1197b6b19926014b9bbbe86ffa7605e2e85f57567343a3031ca622c3cd33be83cb6fde3224f1530bf28dd541ed5dbf22c6a732e3dc375f199a4d72be8500b341c0fce1bfc48aba4a127daf1c3beb291cf61f3432c3b8f147fb8d364b80e49abe005880539eda5419205bcb0bc159cd49801750e7027ced35ab6c405d2e0d3f6677a3c608defb786a4b991cde53b1110dc8cc197b05965a8757ff9d3cbf302b61daba0e687b0036d31a10dd7d2bc847d7b12a7d9e8543e3ae43d8e1543895c16c96a6d78292b4f1c80c54cf8718edf6bb6003c73e661633473e81b276d9d68b857095ac9973460c7b7d5652720e8006cd80187623214483617af01a0cf7be54c9b1aa19d876ff046b30fc59bdb1f0c5229c33d062334aa86f5b20951b0cfa2d68d7face75c746f8f180e8cb87caad417d8f14e70fe949e08e892b4db05fe4348fd24e32c340e2feef05d8f6493ad3d353c89714c7bde80d08317c5257e5eb88b558735d630b7c71cbdfb89d632a37ac073070d2ec266634dbb26ea8e39f6e49b376b7c48baaf7d4c5a0b658b8ee44bed1204bc41057abeb28b8f321b997bec06b233b92a576aa236523d9c0f87800230d94e89ab83ad93df14aa1a369cfd976eb60850865cc91fb7c7d8d066b6f200efb4448d27106145fdab78d3dac83bf9c26727e0cc47e7d9de8663df2550a24c806b0a75725c4b3660d5bb27ec9a106a6ee63d63a1ed7f43b692555cd70029133bb7631f5752a2ef1ac1403eb31b5da107cbff74a603a21ee7310ff10305d4c9be88ec9ab43b233453fcf271f32cb056b064286a3e5776a69f25c525457b03e8c4d6b3b69786fc75c5d888ddec5cbaef3f5e03bee65a245842765a4c37367931905bb3295a5b38eab61dcd959e93d09921db315e072785362a2cb8832002084ffdd96fa59293107246dc6be79d4cd6ca4e97a3d92bfe65b410b380760716e4421cbaccf0822679807541acce0f5b90b126f055384819fcd8cceed8c64e05fc91fb07a4024c654eafd5313a571a97a52624552e7da0393b9f0980d51e5bd7b2e84abacb6a1fdb7300523b96382c85ee08d204a9fa0a654168c0e82909bbccc72de7bafb0812fc4a3795178235d361c3db250a42fac3b6c8da8c05666cf7e21000e9257b7247afcdefd0ef03cc36b4182071d47e206dd969cd849411779d4945e1febf0234b72ffcc2a93082a9d0495a78be4c2c4f246c7e573d85271255211e10806062f198425e43436c0f0fee359d822c6ed6bb4719befad5970ba54fc5ee83240157eef0fb95cfb9e6529521f83fda7a655b52eb2bb4601d7dd0edd507245bf1c406ab126a0520d477bc20d809f6f32686293b531c96207aaf17b9ddccb82e456b2f81cb1fe801549d64021e22db42a30eee272621f64b5c5d08ab515ec830023acdda36c86db81845cc561c11aadb88630214f3c7b43cf476bcb3f3bd27a81d973d5eafa65a3d53c9e4e7196b88af6c3aaf856f46fb9d1931971a545102371d520a3bd3f3a4fba591fb646a0543e38b29b051bea9735e89749a587f9184e0f573f47b802069e7772a615803b91289a26a8d9b0537e3477a977412c4c3d8bc956d13a08c50482e1fa6c3b16b1d1b3d901077ad1553f50c298147c1f4dfcd502b047dfb66b44c4c303056f36aaf070f876dd4a82e92fbf719e08a7d41a37d159a7ee566e43567b50995fb1c3f2ba74a89f75e58f642339f3e01fdac56cc8955d3562d3e8122209d01cc86ddbb89f65e891fbcbae49128952022e708978b61b0d7aef17ddc66de5b3cbb6ac4119de7c3d7b96a3993acead996d70d84ffe7b756fc482a82b282e726998de422c916743c2d5119bc0e0f988b296e6ecb97b33c44dd59cbc893b8fda1f18d356381e914c6d4b1f5632a16e15eee3b009b9dffdea980ebe21947add6cdd911f5beb0ea49573a068dff0a3fe0ef463e7f8f305667bb514ddb952e344cea10cca009f2584da5ba944aebc89003d7732eaca6d8e9692dffbd3b2308858ec6a1025d9a6273668abc20cd87312c79bde1998a3970cd1f33574ed857bcf21bfbe312cb45609e4f41b9cc5030b904a2caa6c0bf45a95c0881ac08cd96dbb7ab4b49fcd6a52270d2123255f75767e979ca6aeb5c3d6da055d7d83999ac5cbced0d3ff0222363c4a61718b8e939fabb3bec1d0d2e3f4283f515c677d939fb2bed7dbfe0000000000000000000000000000000000000000101c2f3c01",
        "0006857ef897bad643557acc9565068201d3c72894d118cc37242b6403e2b600453f8a8cfc9246a04d6b58988be2162003fbd0173e4590e2653764ae4e078e7d1459d7bddb498d16774d062904b3e71fdfbbcacd4956e5487c52888656a9448555eb5fc617e4274029291ad83b3af9fdf39c2440df40aa048c3fdf78863e568c318ad864bb609ed886bf5ed1e53425ddb28d2a68618ba37a5a83e69008fcf3dc624e9a9254763f6ff4804d414768d8f59a0b2ff38388c86ff127ba39d24504439dcf2aa59a66767925b036139c0c43016342871e4c55f1899967a99db96fcfac06e98a09936b9496de0e33084eb1438a0211213a6822f3388b03da004201717095ffd21a84e467639cb34b1761e5fe6e962027a345ed226f9494f8dfc9412b5a87fbf75ebe9026d3641c858dbc1adb10bf17a4305ac05d8b582939b9aaa7e4a1589f061c7a12db4623571e10926a0dea2c44d37f3c6c0ff2d6bd147830358248977a6a188ab473666296a4b48aae5802051a042135a2e7055ac01edd25ebc064120c5902769a2613ef7e6915903b44102822c430484e3907b5aca588102541e390f07770814c84e1122a9f31e1289e5ba70569b8b8a5bb544fa49d8447a6a30962fb8e619187b23d500625526306681c77d1027b63fec3a88e8f36a6b2cd9df9fd00d9bcff17bdb902a0d3bc6a852f07e2a1d3d685963d8f69179573a0d4d25b40ee144fd033054da64d5b71b494a14734c3dc2acb3530a79e53cc4af0c23d98a43841bc3e4bf2886b9a53a1625dddd21f83a6aded9077c478e692b68df37189ea1185237d32c12232d5c060facf73667e65f2ce98c91ee7a36354d5ed4a1aa9b01e40c2c9a1cbd9a5f76f3e6793bac5140dbb20c6a948bdcb10937a394024b0ffb16c86b872c8b91adabb195b7b751fe937c4fd1ecb37409ff29abbd6157903a27684583b5bbeeb6bc9c2f19cd20ed6151b0c85cc0b8b40a1ede8e096cfe5a00d26d03bcfadd93c47ba49e400502d8c6beaad91da159ea5753f57188dd2094f2ee3c01d5a74a054a98277f1fe8f8c25cf3c725968db5616e477ac4a64e028e91f40604748e9b80478efb6fdf12828a1c0aa4ea9020e066ce82aef776d9e12328b282022065be0d04e8405480f0a0d225bf7abface4289080fe4d56c8f1234bc59e976a354801d86b2b014115c045fd53d9951791a17d49406eea5b42432d8dc7180e8408a591fd46ff7b5fc10008ec880e72e4a47cdfdb82f85bd1b5b3a9180187893c70f126c9577b9734bd8c2fc847487a8c64a6cf40fbe69a208e9875ac56e706041b6a4b2e17a6e958f7ea731e55faf05188ca8b76eb20c72355d6574861e751e00f178b9aca0c4969445c8389a720e870e9385be9650b43cd528e3410c1b87ec4e6b5c9de8e6c6bc0b3e56fac3fa16991a75eb53527cbc71ca2c875d6e544f31b6c0cd45fec5839f99b110278ea3fdce6f7d2dbb78aae57959adb11f1f4bb76fb586b92fed7cc8f3457cf53150c8279fd236aeda7c4a70ac93447dcdf78805e9eec5a79431488b728df33c13e4bcb24db5d02e720102007a74fb96f62af55bdd5a674a44caa6e2c60d80ad994e0f5e66ce6ac872facc6012bc5f146d2ac23b40a9669a8b54f425715289069f54758832e9264d72097f9f23a51797d75b89e844fbdce0377147b72691e1afda5f881b17084a065e408c32c1bcc04d2af336757530a5d8ed566bcc862549766c47a0c8878d54f45e317086e70a1a532f283309f21bcad7945ffc1418ff010de779a45d14457ad9e221fc55eea2da5a3f6cf19261b9eb442003b4796072087f82f64993437d5d809c2bfe11b45f961008e9ca"
      ],
      "sequence": 4294967294
    }
  ],
  "vout": [
    {
      "value": 499990.8479,
      "n": 0,
      "scriptPubKey": {
        "asm": "1 71c3c90045b18899bd91acc77f9f482161dd947fd20bbb98085f5687e6fae8f6",
        "hex": "512071c3c90045b18899bd91acc77f9f482161dd947fd20bbb98085f5687e6fae8f6",
        "reqSigs": 1,
        "type": "witness_v1_scripthash",
        "addresses": [
          "3QJmnh"
        ]
      }
    },
    {
      "value": 1.0,
      "n": 1,
      "scriptPubKey": {
        "asm": "OP_RETURN 56e4c79b21e65e3cb39c123039a91c8ada7615405c8ae4363a36fde64e3d5ec5 71acb20770f7a04787e7c918230f120799232fc9ea5dc2a02b3f816dcfab6d33518c922750d78067a7c7e938032f3227b9030fe9ca7de2800b1fa14def8b4d1331ecf24730b7e007c7a78958634f5247d9636f89aa1d82e06b7fc12d8feb2d7311ccd2671097c027e787a978436f7267f9434fa98a3da2c04b5fe10dafcb0d53f12c3287f07720c707674998a38f928719a3af496add4220abbf01ed4f2bedb3d10c12a7d05700e7274769b883afb2a739838f694afd62008b9f21cd6f0bcd93b16c72c7b0376087472709d8e3cfd2c759e3ef092a9d0260ebff41ad0f6badf3914c52e7901740a7670729f8c3eff2e779c3cf290abd2240cbdf618d2f4b8dd371acb20770f7a04787e7c918230f120799232fc9ea5dc2a02b3f816dcfab6d33518c922750d78067a7c7e938032f3227b9030fe9ca7de2800b1fa14def8b4d1331ecf24730b7e007c7a78958634f5247d9636f89aa1d82e06b7fc12d8feb2d7311ccd2671097c027e787a978436f7267f9434fa98a3da2c04b5fe10dafcb0d53f12c3287f07720c707674998a38f928719a3af496add4220abbf01ed4f2bedb3d10c12a7d05700e7274769b883afb2a739838f694afd62008b9f21cd6f0bcd93b16c72c7b0376087472709d8e3cfd2c759e3ef092a9d0260ebff41ad0f6badf3914c52e7901740a7670729f8c3eff2e779c3cf290abd2240cbdf618d2f4b8dd371acb20770f7a04787e7c918230f120799232fc9ea5dc2a02b3f816dcfab6d33518c922750d78067a7c7e938032f3227b9030fe9ca7de2800b1fa14def8b4d1331ecf24730b7e007c7a78958634f5247d9636f89aa1d82e06b7fc12d8feb2d7311ccd2671097c027e787a978436f7267f9434fa98a3da2c04b5fe10dafcb0d53f12c3287f07720c707674998a38f928719a3af496add4220abbf01ed4f2bedb3d10c12a7d05700e7274769b883afb2a739838f694afd62008b9f21cd6f0bcd93b16c72c7b0376087472709d8e3cfd2c759e3ef092a9d0260ebff41ad0f6badf3914c52e7901740a7670729f8c3eff2e779c3cf290abd2240cbdf618d2f4b8dd371acb20770f7a04787e7c918230f120799232fc9ea5dc2a02b3f816dcfab6d33518c922750d78067a7c7e938032f3227b9030fe9ca7de2800b1fa14def8b4d1331ecf24730b7e007c7a78958634f5247d9636f89aa1d82e06b7fc12d8feb2d7311ccd2671097c027e787a978436f7267f9434fa98a3da2c04b5fe10dafcb0d53f12c3287f07720c707674998a38f928719a3af496add4220abbf01ed4f2bedb3d10c12a7d05700e7274769b883afb2a739838f694afd62008b9f21cd6f0bcd93b16c72c7b0376087472709d8e3cfd2c759e3ef092a9d0260ebff41ad0f6badf3914c52e7901740a7670729f8c3eff2e779c3cf290abd2240cbdf618d2f4b8dd371acb20770f7a04787e7c918230f120799232fc9ea5dc2a02b3f816dcfab6d33518c922750d78067a7c7e938032f3227b9030fe9ca7de2800b1fa14def8b4d1331ecf24730b7e007c7a78958634f5247d9636f89aa1d82e06b7fc12d8feb2d7311ccd2671097c027e787a978436f7267f9434fa98a3da2c04b5fe10dafcb0d53f12c3287f07720c707674998a38f9287d92f1cbe74b56efbdd7cb3d3cbf44e70bd154c744644d6659207323c0ac238f7",
        "hex": "6a2056e4c79b21e65e3cb39c123039a91c8ada7615405c8ae4363a36fde64e3d5ec54db00471acb20770f7a04787e7c918230f120799232fc9ea5dc2a02b3f816dcfab6d33518c922750d78067a7c7e938032f3227b9030fe9ca7de2800b1fa14def8b4d1331ecf24730b7e007c7a78958634f5247d9636f89aa1d82e06b7fc12d8feb2d7311ccd2671097c027e787a978436f7267f9434fa98a3da2c04b5fe10dafcb0d53f12c3287f07720c707674998a38f928719a3af496add4220abbf01ed4f2bedb3d10c12a7d05700e7274769b883afb2a739838f694afd62008b9f21cd6f0bcd93b16c72c7b0376087472709d8e3cfd2c759e3ef092a9d0260ebff41ad0f6badf3914c52e7901740a7670729f8c3eff2e779c3cf290abd2240cbdf618d2f4b8dd371acb20770f7a04787e7c918230f120799232fc9ea5dc2a02b3f816dcfab6d33518c922750d78067a7c7e938032f3227b9030fe9ca7de2800b1fa14def8b4d1331ecf24730b7e007c7a78958634f5247d9636f89aa1d82e06b7fc12d8feb2d7311ccd2671097c027e787a978436f7267f9434fa98a3da2c04b5fe10dafcb0d53f12c3287f07720c707674998a38f928719a3af496add4220abbf01ed4f2bedb3d10c12a7d05700e7274769b883afb2a739838f694afd62008b9f21cd6f0bcd93b16c72c7b0376087472709d8e3cfd2c759e3ef092a9d0260ebff41ad0f6badf3914c52e7901740a7670729f8c3eff2e779c3cf290abd2240cbdf618d2f4b8dd371acb20770f7a04787e7c918230f120799232fc9ea5dc2a02b3f816dcfab6d33518c922750d78067a7c7e938032f3227b9030fe9ca7de2800b1fa14def8b4d1331ecf24730b7e007c7a78958634f5247d9636f89aa1d82e06b7fc12d8feb2d7311ccd2671097c027e787a978436f7267f9434fa98a3da2c04b5fe10dafcb0d53f12c3287f07720c707674998a38f928719a3af496add4220abbf01ed4f2bedb3d10c12a7d05700e7274769b883afb2a739838f694afd62008b9f21cd6f0bcd93b16c72c7b0376087472709d8e3cfd2c759e3ef092a9d0260ebff41ad0f6badf3914c52e7901740a7670729f8c3eff2e779c3cf290abd2240cbdf618d2f4b8dd371acb20770f7a04787e7c918230f120799232fc9ea5dc2a02b3f816dcfab6d33518c922750d78067a7c7e938032f3227b9030fe9ca7de2800b1fa14def8b4d1331ecf24730b7e007c7a78958634f5247d9636f89aa1d82e06b7fc12d8feb2d7311ccd2671097c027e787a978436f7267f9434fa98a3da2c04b5fe10dafcb0d53f12c3287f07720c707674998a38f928719a3af496add4220abbf01ed4f2bedb3d10c12a7d05700e7274769b883afb2a739838f694afd62008b9f21cd6f0bcd93b16c72c7b0376087472709d8e3cfd2c759e3ef092a9d0260ebff41ad0f6badf3914c52e7901740a7670729f8c3eff2e779c3cf290abd2240cbdf618d2f4b8dd371acb20770f7a04787e7c918230f120799232fc9ea5dc2a02b3f816dcfab6d33518c922750d78067a7c7e938032f3227b9030fe9ca7de2800b1fa14def8b4d1331ecf24730b7e007c7a78958634f5247d9636f89aa1d82e06b7fc12d8feb2d7311ccd2671097c027e787a978436f7267f9434fa98a3da2c04b5fe10dafcb0d53f12c3287f07720c707674998a38f9287d92f1cbe74b56efbdd7cb3d3cbf44e70bd154c744644d6659207323c0ac238f7",
        "type": "nulldata"
      }
    }
  ],
  "blockhash": "fed18006ccdab590a9e00afae0c126c0756e5b686d02c0375b028c4c6af5cb31",
  "confirmations": 1,
  "time": 1764177489,
  "blocktime": 1764177489
}