{
  "hex": "010000000001012e11da3dfe6f0fb852f9d159553dfea97fabd42201f85acf334e67088a3404050000000000feffffff0200e1f50500000000fdd5046a208657de0d79408072d2ce3cdca6c08ecd17b0fa26cdf3f2db3a78ad7cc7465c534db00469bd107697058a6a9c6648223092b47bd5a033ccfb023cad80e8cfccfd42ca46499d3056b725aa4abc46680210b2945bf58013ecdb221c8da0c8efecdd62ea6629fd5036d745ca2adc26086270d2f43b95e0738cbb427cedc0a88f8cbd028a0609dd7016f765ea0afc06284250f2d41bb5c053ac9b625ccde088afac9d22aa26e93d90f617850aea1ce6c8a2b01234fb5520b34c7b82bc2d00684f4c7dc24ac6c91db0d637a52aca3cc6e882903214db7500936c5ba29c0d20486f6c5de26ae6a97dd0b657c54aaa5ca688e2f05274bb1560f30c3bc2fc6d40280f0c3d820a86895df09677e56a8a7c86a8c2d072549b3540d32c1be2dc4d60082f2c1da22aa669bd107697058a6a9c6648223092b47bd5a033ccfb023cad80e8cfccfd42ca46499d3056b725aa4abc46680210b2945bf58013ecdb221c8da0c8efecdd62ea6629fd5036d745ca2adc26086270d2f43b95e0738cbb427cedc0a88f8cbd028a0609dd7016f765ea0afc06284250f2d41bb5c053ac9b625ccde088afac9d22aa26e93d90f617850aea1ce6c8a2b01234fb5520b34c7b82bc2d00684f4c7dc24ac6c91db0d637a52aca3cc6e882903214db7500936c5ba29c0d20486f6c5de26ae6a97dd0b657c54aaa5ca688e2f05274bb1560f30c3bc2fc6d40280f0c3d820a86895df09677e56a8a7c86a8c2d072549b3540d32c1be2dc4d60082f2c1da22aa669bd107697058a6a9c6648223092b47bd5a033ccfb023cad80e8cfccfd42ca46499d3056b725aa4abc46680210b2945bf58013ecdb221c8da0c8efecdd62ea6629fd5036d745ca2adc26086270d2f43b95e0738cbb427cedc0a88f8cbd028a0609dd7016f765ea0afc06284250f2d41bb5c053ac9b625ccde088afac9d22aa26e93d90f617850aea1ce6c8a2b01234fb5520b34c7b82bc2d00684f4c7dc24ac6c91db0d637a52aca3cc6e882903214db7500936c5ba29c0d20486f6c5de26ae6a97dd0b657c54aaa5ca688e2f05274bb1560f30c3bc2fc6d40280f0c3d820a86895df09677e56a8a7c86a8c2d072549b3540d32c1be2dc4d60082f2c1da22aa669bd107697058a6a9c6648223092b47bd5a033ccfb023cad80e8cfccfd42ca46499d3056b725aa4abc46680210b2945bf58013ecdb221c8da0c8efecdd62ea6629fd5036d745ca2adc26086270d2f43b95e0738cbb427cedc0a88f8cbd028a0609dd7016f765ea0afc06284250f2d41bb5c053ac9b625ccde088afac9d22aa26e93d90f617850aea1ce6c8a2b01234fb5520b34c7b82bc2d00684f4c7dc24ac6c91db0d637a52aca3cc6e882903214db7500936c5ba29c0d20486f6c5de26ae6a97dd0b657c54aaa5ca688e2f05274bb1560f30c3bc2fc6d40280f0c3d820a86895df09677e56a8a7c86a8c2d072549b3540d32c1be2dc4d60082f2c1da22aa669bd107697058a6a9c6648223092b47bd5a033ccfb023cad80e8cfccfd42ca46499d3056b725aa4abc46680210b2945bf58013ecdb221c8da0c8efecdd62ea6629fd5036d745ca2adc26086270d2f43b95e0738cbb427cedc0a88f8cbd028a0609dd7016f765ea0afc06284250f2d41bb5c053ac9b625ccde088afac9d22aa26e93d90f617850aea1ce6c8a2b01234fbe42d8ceef866284efb372ddaaf8a6c92cea7a68de6ad0a3b60319d779329fe28d0799b83782d00002251206b3d9de7b708ca2e7f7e089a22ba41a7e635b6370b7741f75c11232d38cf942f02fd75092889d1d7b441fa0317cd40193f95118abf63f6777e19ad35526ced1edb6b331dc06fa0d4094efe5b17138c53ac42fe634d543ef2eab2271ca4766812128ddf3c9b2eba70680f5dc0eebdc217857722bed0b724a297d5912b96ad39190eef7e3cc77ecae5e2d629fb461baa81426f8a3554b68e6ec067786cbc14bb836c85626226f7bcf4855321853caf55842586a0999f8efcae18e30c13242e0184e3fc71537d53448036396b1ee0c9ddcba3a0a718815df10837885837fbf487e791d5dc9c35c6ddf1e2829a1d99dd9e5c35b3748252b6ce34974bc17f7b3e3a5fe6661b27ada11130507775608d91cd95c768667b75e738c19755b64f3c6043943b15163fb7c896b7da04955ca0e2b91519b256f3f51103bfa8580990367beea7248dbf7971a09176bdbc0c7b2fde71548cdbe311b6cfde775279d9db614768ff37069472d02bb4ddf8ca7e7070ec159379e7698dcfac39e5878291458e177c0ee5850e2bd6a813350e7c9568615ef405e3b21f0f4560d16522cbd9a4d8020075552a347f3fb78a1dc9f8fc9387b1c8f3695252ad504e92dfbb73eb4c507907adc54503f8a42e3edc34309e33cc481e186f13fdba2f384ffe888e9d2724a4488e6868c205f7d91ee81cc830ede361de02f124fa522668570cd3e60a6f6ffb64ada984327692a0e534091c94b3a85464c5ed3de66367c6d6cf696dfce2c950635e17f1395191e4f94bd4995fd42ae4116d63dd3d5ac5bb08e269efa208a9f241807d9a7044ae8776f3e84a2b27b8c148b8892f67b2eae9e87a076a40e082ade1bd00ae92b08d974609e5b8b43780bbe468bf7f192824d0e30578e5a3fe3a5480cc3d65b8157ffb8dd821c4b00e1428a91e4f5bea1249b6aca71673c2fd5653c5c55bf4a48264ed591f97ec04a151fefcb695268577af64d53ada054e39a6c1428f52cdac6b241d483ea071a0ed46d13fe6fffa0fe477d3f5cc6735789f64e116bc682be358f5e89e983d1c524b62f2b346336eae577585d4acaa775b2fe087a4772fbf9fc28cd61d0f4cf59c2c44bd9daeba17a5674d5334976cffe2cb1dafe5afdb0a404cf1bc44ee045bdc33cbf3e8d7a6304bed25c2d417c19eded194b74ac55699cc8b6f5b6c01617a0f2661cced6fe504fd640844034ad4afed7854e950b1de0104489bc1c0cdb41143604daf0d40d3057316653205415d872644f1472cb9de82ae709e564c66d434084094a8dfcce8361eab97a98978891fbd31ee96016eaa9a2196438f5958a45e0f0065d258bebcbee4969c97952ee0ba3b32ca951507313b43185d86c00c465a1dc06c7071bb6ca44a0d6cea4393bbf46d2b54e5ffea00ada26a34eae3b1b1f8862e23b86bee1154e17f3836e27fba1a132dbbbdd938ec9aeec81665ba0855e3f33c02f51b49c3f28c9ef2c520b97d7b49dca7ec06a36361606a6f592a153b56ee3ef20edd52a40e576cd6f9f3960523c281c0832b3f80f3c11c0d12b470ad795d0672e8387ee3f1cd285fe1e273faebff743426a8bcad5e79f41afc232238baadfd29623ff7055939530afc271ec3ccd1eb5054944cfd375ee8b0d0ef08c78b5473dfda508877437d1748cb891b14cba15f58fac6befd9cea665d436fc563f6d296ad593766995fccb5614b8a8924280898b407813011eccf1492654ce119b0339e70f032a1e6b1521dddf42edb6a592c7d78fdf947196b4af037b2125bd919deece4d18ef84aa99f3ee064f069147a52d57112023734d2aa5508517cf46de5a2b23a0aa7f32a3f9f045d8ced06941791f468dbfcf4d213ca0a4c12f72f10f3abd0a4f2a38e53fed2923e89d59f935e75136e9121522f7171a58aa38d23448d7be3231bca803e734dad8684296fe86bff367c9ef2bda10f9fcad820277d68d937dda180788a8b6a543c66a516e54195766229027a6e96e5c923c6292da2e7f631cec601c333b920a730616a0c7023811e7fe12fef5f9920028eb9b043ae2fce5ff64e2cd9596d439e599602322e8af25f8736ac479f2f899e24b31bdce47a73fc4afd3a5f80974245a1ea4711979dfc7ca72a300b6d97c489bdfb40bd026ffe277676c56ea045da60faced222252ff0e5f704aa57f309fe248de27a8555ed89c17653b73ca6a652896c7fb46541429c050dc5da5388aae4e51e6092720192671362acd368b166c6a70a688f06030220b98ef9c442b6ae4b6d99f9cbbd5d2b8497d44e0d3354189836596575589163444f5a3e97539ffca87c133fbca21cb31a90367f49d65e20057fedffdc26e132759f53ac32d8b2138192b2ebcf69546a9d5aad339d0abc7e7119c018581f25145450d876a4d4ebdf32c31b87784b0d038f22fd6b3a82d8b59cdf4797c182ac462fab07647b7ae80a590fe18630a7f85f705c2a69a2d299bfce08de8bfcccf84a9b68b43e7d4763c108fe930c887defc64ae8356533ae87852fac0df3ac639915f72d8407213cd75556076f0c97449ad52ce9ba9b6337b4e3c0d9535551757eed797c03b77530f21b7bbf987f428ea0058f460a6913d53f03435498e531cf650cd0cbd69ebae990a7d80f06a2efce95cc5f9863cae389baf84dfeb564f465604901b5cca067c36a09175ad0b8b5dd9894744530c8d9b9ec994e145864413bfdda79f7d486ba0323674fc1129e0f7b0beb7ef5ab4bfc68f19e8a7b9287c435939de6adf1e4e45735881fa0275199d7288944dc73ac1bfbe00a427c218fe90262eba69e6df242688496f67433aef135f2767921e90c9ac1950632c88f72e54a6b22214c4b740e63791193a53e0913615cc78af84b795aaa88345a2095479ebba72a5a55e159129d933595a4b6433bd0ee37d06963381227b0c20251f0113b7e6d0c4ea4871e565417a5b9a6b7dd0f507589ce2215ab617a1baf08ce8f1d17841717f517f58dbe41c569d3cbe0062a658f6c94ad18c78f77b09a3b53dec6e5667b13bef96e000bc07a6e2bb12813ac2f6ff0f70c242b5d892a8743becd00fc9ccce9aa877a1bcb827df8f03ae6d8625eb4af3320a85dd4d3e8ee9194bdbfc5ad061aeb4e07eadbb7f2b6f7427524b5b45e049e46d8c604ca88a8f88a32d461ef904a28e0d51d25328560521e018bcb710fa143735e5ce17423cbc6c7677b879faa53e57d5130587ac20fc6a482f38b544f68735ad35d7b524b1f78d7c912b020fba550cccdf09e591190ffc44e186f9f31181cb7aa83b1c200142b271972fb2cb9d7c14332697784da5d855deb97ca7a95f86efc5b88b7a447283cc6e000b831876b18425f44b38fcfd63214f4080c2935364e758082b9d0d7e3e7ec1c2425282d3135484c5b616c7a919bb0c1d5e2e7082e353959a3a4a6abadb3c5e2e4f506131f232a3d4b5b5e6165669fe2e7eaee000000000000000000000000000f23324301fd210500d0f7969108a02035ca86112ee6cec442528ae63bbf57f10dc5696f101192c319027401c80a5f5bae3d8b64e0082f709750afdf70af0a5dea914cc8dcfe9f577c1c489af4e108fbbcd767cb9b7edc70275d0d1ec518b9895948a0bc496c11baa87cce5f5642003513dbf5a268881a492f181853a078967afb49f2eee6e2bb3f6f6948ccd252762f1b9befb8479a1e218d5f7e3a309576365eefea61c55b0b57deb200475edaa14d53104415d9fca106200619f7c9aa01a33925fde819b05fcdca68d7311cb70f3ef0cd7ee5640dd298b917a1807a915f34de9003d4255f8872de405c8c9050ffb5af934739a02b246cade7acf0e52e7fbf94e1dde8c2064172d7e9e78a435a970aa33ae73f6a8b9be5fbbd445b9dc85a4a62a24b35ac071f5fc590f41c7622fb06e17141fa903a1ae31060471f47aeb702649dfe34fabff5c3324cc524b94412ca7f7b8d906516bbe6f93b32e6eb75af2121a69931995cb33c9a9c28f6be3d7b352f5a22e1a807c98135764cd5e5e2bd7ba3cb40561698c7dd74d296cd12318967611b5c90b1bd9b182218a18b7c57497237694cfb96ad52471cec47d4da46f2606eca1e040e1bfbb97cff16294f18d1892b74bc2e508211a57043221e8213cd9a176a4f2322d3301adce847cbd70d73cb41292a2ae96d102563a3f52d00b57101b915798e4a6e3011c5b126e6198d0c5ac7222b1ab93062ffba5a77c76b6ab41028fb71589d1db489292ca15bd589927acfe1f3e8b36204c030decc5a079ed9a0b74badc048a78c560fc7755c6c2118ba4af5a305c90643ec461154ff7aa141cf1fa8bf86ea2def3f1a9ee3126b8bba6533c82347e9d632de6dc2337496807a1d2449252f8b5be482342738f2388ea3d077a532f823519d2733e86b7a02ebbd58e578839260a9687040486cf1f733ae63ae5a89c659c38f91b2c7ebef5fbf8131f70ddcfa5dc7816257936f6c03146fa6eafda3f37a56b7a7f57fa85e6576afa32dfcb3c78b4576d0090c4829dabfaf5e1a338621f07dc9c02b423ddf55f4e27ce23883c391f0e3bf719d22a4d4467dd4699cc63f9a612ca114cd96e6cca1c9a93db84a7eca0b6f6348c83684621a779e4a91455f9943e93457c11731a379af3de93acb3310406e31f4479caf39df61d192b188d03a707882ba28d846f24539235095763ca935ccc474526e5a6cd389127f4dd9c27505b7b6d3ad9301dd8de4442a29ee61d7b892761a10da2d83c2f6b554c0b78e4de1fd48a5653242552ff7abdd254238dda47453532938f8ddc9817aa6b4e9cba6522a8a4c8f396926a14a507b972def8c3759a5a1a05c3f1c27f37f76ec4912815b0fec157ae2e7d5e331696adee145c431e385a006c6ecda26e104b3944baa9df01a2e06140e5664f128740affde0a78002c1179b7a4a8f80b0dd15bf0322d70a38892ec131c9802f59b9cf2586d3ec1bcdb06636593e5904e0dec0532ba8b514d577190ed37f09e679b4fd6359fb214c9ce200b4baeff3599b316ecfaec5e7ac10aad23135bdd5fa022b45c36aa53301617946003a932732f021c5df42ee0db30b3453dfc3c45f9c9b1d0586163ee4c6875935157d0af0c01e6004ee2c05d25a7a716031fff1cfbef41616cb34f6c33e8bd2fda027190d8d914e55bfee369d4a8d9216757114d5347b1f19c1411d88fba6ffd0d0e8d30882d15e04453faa9b1966975e8cfef2a73845080a8b5466218e6961aeffc6a07e399e46107b6eb948a19f344f36aeaa93bcec7a7b634e943f0260e2a48cd6b96d4ba9f279205244d886bed314db183e1ea3dbb1160e38709906caa3fcb1533e61258081d0eb98ebfb225ff3efa8a000000",
  "txid": "2670de9fee6ed3b77ceba65ca8a3e4f89996fbc51f95f6071c05278f0523263c",
  "hash": "506361f713d97158ddf94945a80805b63f294fae55c5f921a5790d98f42b3235",
  "size": 5085,
  "vsize": 2278,
  "version": 1,
  "locktime": 138,
  "vin": [
    {
      "txid": "0504348a08674e33cf5af80122d4ab7fa9fe3d5559d1f952b80f6ffe3dda112e",
      "vout": 0,
      "scriptSig": {
        "asm": "",
        "hex": ""
      },
      "txinwitness": [
        "2889d1d7b441fa0317cd40193f95118abf63f6777e19ad35526ced1edb6b331dc06fa0d4094efe5b17138c53ac42fe634d543ef2eab2271ca4766812128ddf3c9b2eba70680f5dc0eebdc217857722bed0b724a297d5912b96ad39190eef7e3cc77ecae5e2d629fb461baa81426f8a3554b68e6ec067786cbc14bb836c85626226f7bcf4855321853caf55842586a0999f8efcae18e30c13242e0184e3fc71537d53448036396b1ee0c9ddcba3a0a718815df10837885837fbf487e791d5dc9c35c6ddf1e2829a1d99dd9e5c35b3748252b6ce34974bc17f7b3e3a5fe6661b27ada11130507775608d91cd95c768667b75e738c19755b64f3c6043943b15163fb7c896b7da04955ca0e2b91519b256f3f51103bfa8580990367beea7248dbf7971a09176bdbc0c7b2fde71548cdbe311b6cfde775279d9db614768ff37069472d02bb4ddf8ca7e7070ec159379e7698dcfac39e5878291458e177c0ee5850e2bd6a813350e7c9568615ef405e3b21f0f4560d16522cbd9a4d8020075552a347f3fb78a1dc9f8fc9387b1c8f3695252ad504e92dfbb73eb4c507907adc54503f8a42e3edc34309e33cc481e186f13fdba2f384ffe888e9d2724a4488e6868c205f7d91ee81cc830ede361de02f124fa522668570cd3e60a6f6ffb64ada984327692a0e534091c94b3a85464c5ed3de66367c6d6cf696dfce2c950635e17f1395191e4f94bd4995fd42ae4116d63dd3d5ac5bb08e269efa208a9f241807d9a7044ae8776f3e84a2b27b8c148b8892f67b2eae9e87a076a40e082ade1bd00ae92b08d974609e5b8b43780bbe468bf7f192824d0e30578e5a3fe3a5480cc3d65b8157ffb8dd821c4b00e1428a91e4f5bea1249b6aca71673c2fd5653c5c55bf4a48264ed591f97ec04a151fefcb695268577af64d53ada054e39a6c1428f52cdac6b241d483ea071a0ed46d13fe6fffa0fe477d3f5cc6735789f64e116bc682be358f5e89e983d1c524b62f2b346336eae577585d4acaa775b2fe087a4772fbf9fc28cd61d0f4cf59c2c44bd9daeba17a5674d5334976cffe2cb1dafe5afdb0a404cf1bc44ee045bdc33cbf3e8d7a6304bed25c2d417c19eded194b74ac55699cc8b6f5b6c01617a0f2661cced6fe504fd640844034ad4afed7854e950b1de0104489bc1c0cdb41143604daf0d40d3057316653205415d872644f1472cb9de82ae709e564c66d434084094a8dfcce8361eab97a98978891fbd31ee96016eaa9a2196438f5958a45e0f0065d258bebcbee4969c97952ee0ba3b32ca951507313b43185d86c00c465a1dc06c7071bb6ca44a0d6cea4393bbf46d2b54e5ffea00ada26a34eae3b1b1f8862e23b86bee1154e17f3836e27fba1a132dbbbdd938ec9aeec81665ba0855e3f33c02f51b49c3f28c9ef2c520b97d7b49dca7ec06a36361606a6f592a153b56ee3ef20edd52a40e576cd6f9f3960523c281c0832b3f80f3c11c0d12b470ad795d0672e8387ee3f1cd285fe1e273faebff743426a8bcad5e79f41afc232238baadfd29623ff7055939530afc271ec3ccd1eb5054944cfd375ee8b0d0ef08c78b5473dfda508877437d1748cb891b14cba15f58fac6befd9cea665d436fc563f6d296ad593766995fccb5614b8a8924280898b407813011eccf1492654ce119b0339e70f032a1e6b1521dddf42edb6a592c7d78fdf947196b4af037b2125bd919deece4d18ef84aa99f3ee064f069147a52d57112023734d2aa5508517cf46de5a2b23a0aa7f32a3f9f045d8ced06941791f468dbfcf4d213ca0a4c12f72f10f3abd0a4f2a38e53fed2923e89d59f935e75136e9121522f7171a58aa38d23448d7be3231bca803e734dad8684296fe86bff367c9ef2bda10f9fcad820277d68d937dda180788a8b6a543c66a516e54195766229027a6e96e5c923c6292da2e7f631cec601c333b920a730616a0c7023811e7fe12fef5f9920028eb9b043ae2fce5ff64e2cd9596d439e599602322e8af25f8736ac479f2f899e24b31bdce47a73fc4afd3a5f80974245a1ea4711979dfc7ca72a300b6d97c489bdfb40bd026ffe277676c56ea045da60faced222252ff0e5f704aa57f309fe248de27a8555ed89c17653b73ca6a652896c7fb46541429c050dc5da5388aae4e51e6092720192671362acd368b166c6a70a688f06030220b98ef9c442b6ae4b6d99f9cbbd5d2b8497d44e0d3354189836596575589163444f5a3e97539ffca87c133fbca21cb31a90367f49d65e20057fedffdc26e132759f53ac32d8b2138192b2ebcf69546a9d5aad339d0abc7e7119c018581f25145450d876a4d4ebdf32c31b87784b0d038f22fd6b3a82d8b59cdf4797c182ac462fab07647b7ae80a590fe18630a7f85f705c2a69a2d299bfce08de8bfcccf84a9b68b43e7d4763c108fe930c887defc64ae8356533ae87852fac0df3ac639915f72d8407213cd75556076f0c97449ad52ce9ba9b6337b4e3c0d9535551757eed797c03b77530f21b7bbf987f428ea0058f460a6913d53f03435498e531cf650cd0cbd69ebae990a7d80f06a2efce95cc5f9863cae389baf84dfeb564f465604901b5cca067c36a09175ad0b8b5dd9894744530c8d9b9ec994e145864413bfdda79f7d486ba0323674fc1129e0f7b0beb7ef5ab4bfc68f19e8a7b9287c435939de6adf1e4e45735881fa0275199d7288944dc73ac1bfbe00a427c218fe90262eba69e6df242688496f67433aef135f2767921e90c9ac1950632c88f72e54a6b22214c4b740e63791193a53e0913615cc78af84b795aaa88345a2095479ebba72a5a55e159129d933595a4b6433bd0ee37d06963381227b0c20251f0113b7e6d0c4ea4871e565417a5b9a6b7dd0f507589ce2215ab617a1baf08ce8f1d17841717f517f58dbe41c569d3cbe0062a658f6c94ad18c78f77b09a3b53dec6e5667b13bef96e000bc07a6e2bb12813ac2f6ff0f70c242b5d892a8743becd00fc9ccce9aa877a1bcb827df8f03ae6d8625eb4af3320a85dd4d3e8ee9194bdbfc5ad061aeb4e07eadbb7f2b6f7427524b5b45e049e46d8c604ca88a8f88a32d461ef904a28e0d51d25328560521e018bcb710fa143735e5ce17423cbc6c7677b879faa53e57d5130587ac20fc6a482f38b544f68735ad35d7b524b1f78d7c912b020fba550cccdf09e591190ffc44e186f9f31181cb7aa83b1c200142b271972fb2cb9d7c14332697784da5d855deb97ca7a95f86efc5b88b7a447283cc6e000b831876b18425f44b38fcfd63214f4080c2935364e758082b9d0d7e3e7ec1c2425282d3135484c5b616c7a919bb0c1d5e2e7082e353959a3a4a6abadb3c5e2e4f506131f232a3d4b5b5e6165669fe2e7eaee000000000000000000000000000f23324301",
        "00d0f7969108a02035ca86112ee6cec442528ae63bbf57f10dc5696f101192c319027401c80a5f5bae3d8b64e0082f709750afdf70af0a5dea914cc8dcfe9f577c1c489af4e108fbbcd767cb9b7edc70275d0d1ec518b9895948a0bc496c11baa87cce5f5642003513dbf5a268881a492f181853a078967afb49f2eee6e2bb3f6f6948ccd252762f1b9befb8479a1e218d5f7e3a309576365eefea61c55b0b57deb200475edaa14d53104415d9fca106200619f7c9aa01a33925fde819b05fcdca68d7311cb70f3ef0cd7ee5640dd298b917a1807a915f34de9003d4255f8872de405c8c9050ffb5af934739a02b246cade7acf0e52e7fbf94e1dde8c2064172d7e9e78a435a970aa33ae73f6a8b9be5fbbd445b9dc85a4a62a24b35ac071f5fc590f41c7622fb06e17141fa903a1ae31060471f47aeb702649dfe34fabff5c3324cc524b94412ca7f7b8d906516bbe6f93b32e6eb75af2121a69931995cb33c9a9c28f6be3d7b352f5a22e1a807c98135764cd5e5e2bd7ba3cb40561698c7dd74d296cd12318967611b5c90b1bd9b182218a18b7c57497237694cfb96ad52471cec47d4da46f2606eca1e040e1bfbb97cff16294f18d1892b74bc2e508211a57043221e8213cd9a176a4f2322d3301adce847cbd70d73cb41292a2ae96d102563a3f52d00b57101b915798e4a6e3011c5b126e6198d0c5ac7222b1ab93062ffba5a77c76b6ab41028fb71589d1db489292ca15bd589927acfe1f3e8b36204c030decc5a079ed9a0b74badc048a78c560fc7755c6c2118ba4af5a305c90643ec461154ff7aa141cf1fa8bf86ea2def3f1a9ee3126b8bba6533c82347e9d632de6dc2337496807a1d2449252f8b5be482342738f2388ea3d077a532f823519d2733e86b7a02ebbd58e578839260a9687040486cf1f733ae63ae5a89c659c38f91b2c7ebef5fbf8131f70ddcfa5dc7816257936f6c03146fa6eafda3f37a56b7a7f57fa85e6576afa32dfcb3c78b4576d0090c4829dabfaf5e1a338621f07dc9c02b423ddf55f4e27ce23883c391f0e3bf719d22a4d4467dd4699cc63f9a612ca114cd96e6cca1c9a93db84a7eca0b6f6348c83684621a779e4a91455f9943e93457c11731a379af3de93acb3310406e31f4479caf39df61d192b188d03a707882ba28d846f24539235095763ca935ccc474526e5a6cd389127f4dd9c27505b7b6d3ad9301dd8de4442a29ee61d7b892761a10da2d83c2f6b554c0b78e4de1fd48a5653242552ff7abdd254238dda47453532938f8ddc9817aa6b4e9cba6522a8a4c8f396926a14a507b972def8c3759a5a1a05c3f1c27f37f76ec4912815b0fec157ae2e7d5e331696adee145c431e385a006c6ecda26e104b3944baa9df01a2e06140e5664f128740affde0a78002c1179b7a4a8f80b0dd15bf0322d70a38892ec131c9802f59b9cf2586d3ec1bcdb06636593e5904e0dec0532ba8b514d577190ed37f09e679b4fd6359fb214c9ce200b4baeff3599b316ecfaec5e7ac10aad23135bdd5fa022b45c36aa53301617946003a932732f021c5df42ee0db30b3453dfc3c45f9c9b1d0586163ee4c6875935157d0af0c01e6004ee2c05d25a7a716031fff1cfbef41616cb34f6c33e8bd2fda027190d8d914e55bfee369d4a8d9216757114d5347b1f19c1411d88fba6ffd0d0e8d30882d15e04453faa9b1966975e8cfef2a73845080a8b5466218e6961aeffc6a07e399e46107b6eb948a19f344f36aeaa93bcec7a7b634e943f0260e2a48cd6b96d4ba9f279205244d886bed314db183e1ea3dbb1160e38709906caa3fcb1533e61258081d0eb98ebfb225ff3efa"
      ],
      "sequence": 4294967294
    }
  ],
  "vout": [
    {
      "value": 1.0,
      "n": 0,
      "scriptPubKey": {
        "asm": "OP_RETURN 8657de0d79408072d2ce3cdca6c08ecd17b0fa26cdf3f2db3a78ad7cc7465c53 69bd107697058a6a9c6648223092b47bd5a033ccfb023cad80e8cfccfd42ca46499d3056b725aa4abc46680210b2945bf58013ecdb221c8da0c8efecdd62ea6629fd5036d745ca2adc26086270d2f43b95e0738cbb427cedc0a88f8cbd028a0609dd7016f765ea0afc06284250f2d41bb5c053ac9b625ccde088afac9d22aa26e93d90f617850aea1ce6c8a2b01234fb5520b34c7b82bc2d00684f4c7dc24ac6c91db0d637a52aca3cc6e882903214db7500936c5ba29c0d20486f6c5de26ae6a97dd0b657c54aaa5ca688e2f05274bb1560f30c3bc2fc6d40280f0c3d820a86895df09677e56a8a7c86a8c2d072549b3540d32c1be2dc4d60082f2c1da22aa669bd107697058a6a9c6648223092b47bd5a033ccfb023cad80e8cfccfd42ca46499d3056b725aa4abc46680210b2945bf58013ecdb221c8da0c8efecdd62ea6629fd5036d745ca2adc26086270d2f43b95e0738cbb427cedc0a88f8cbd028a0609dd7016f765ea0afc06284250f2d41bb5c053ac9b625ccde088afac9d22aa26e93d90f617850aea1ce6c8a2b01234fb5520b34c7b82bc2d00684f4c7dc24ac6c91db0d637a52aca3cc6e882903214db7500936c5ba29c0d20486f6c5de26ae6a97dd0b657c54aaa5ca688e2f05274bb1560f30c3bc2fc6d40280f0c3d820a86895df09677e56a8a7c86a8c2d072549b3540d32c1be2dc4d60082f2c1da22aa669bd107697058a6a9c6648223092b47bd5a033ccfb023cad80e8cfccfd42ca46499d3056b725aa4abc46680210b2945bf58013ecdb221c8da0c8efecdd62ea6629fd5036d745ca2adc26086270d2f43b95e0738cbb427cedc0a88f8cbd028a0609dd7016f765ea0afc06284250f2d41bb5c053ac9b625ccde088afac9d22aa26e93d90f617850aea1ce6c8a2b01234fb5520b34c7b82bc2d00684f4c7dc24ac6c91db0d637a52aca3cc6e882903214db7500936c5ba29c0d20486f6c5de26ae6a97dd0b657c54aaa5ca688e2f05274bb1560f30c3bc2fc6d40280f0c3d820a86895df09677e56a8a7c86a8c2d072549b3540d32c1be2dc4d60082f2c1da22aa669bd107697058a6a9c6648223092b47bd5a033ccfb023cad80e8cfccfd42ca46499d3056b725aa4abc46680210b2945bf58013ecdb221c8da0c8efecdd62ea6629fd5036d745ca2adc26086270d2f43b95e0738cbb427cedc0a88f8cbd028a0609dd7016f765ea0afc06284250f2d41bb5c053ac9b625ccde088afac9d22aa26e93d90f617850aea1ce6c8a2b01234fb5520b34c7b82bc2d00684f4c7dc24ac6c91db0d637a52aca3cc6e882903214db7500936c5ba29c0d20486f6c5de26ae6a97dd0b657c54aaa5ca688e2f05274bb1560f30c3bc2fc6d40280f0c3d820a86895df09677e56a8a7c86a8c2d072549b3540d32c1be2dc4d60082f2c1da22aa669bd107697058a6a9c6648223092b47bd5a033ccfb023cad80e8cfccfd42ca46499d3056b725aa4abc46680210b2945bf58013ecdb221c8da0c8efecdd62ea6629fd5036d745ca2adc26086270d2f43b95e0738cbb427cedc0a88f8cbd028a0609dd7016f765ea0afc06284250f2d41bb5c053ac9b625ccde088afac9d22aa26e93d90f617850aea1ce6c8a2b01234fbe42d8ceef866284efb372ddaaf8a6c92cea7a68de6ad0a3b60319d779329fe28",
        "hex": "6a208657de0d79408072d2ce3cdca6c08ecd17b0fa26cdf3f2db3a78ad7cc7465c534db00469bd107697058a6a9c6648223092b47bd5a033ccfb023cad80e8cfccfd42ca46499d3056b725aa4abc46680210b2945bf58013ecdb221c8da0c8efecdd62ea6629fd5036d745ca2adc26086270d2f43b95e0738cbb427cedc0a88f8cbd028a0609dd7016f765ea0afc06284250f2d41bb5c053ac9b625ccde088afac9d22aa26e93d90f617850aea1ce6c8a2b01234fb5520b34c7b82bc2d00684f4c7dc24ac6c91db0d637a52aca3cc6e882903214db7500936c5ba29c0d20486f6c5de26ae6a97dd0b657c54aaa5ca688e2f05274bb1560f30c3bc2fc6d40280f0c3d820a86895df09677e56a8a7c86a8c2d072549b3540d32c1be2dc4d60082f2c1da22aa669bd107697058a6a9c6648223092b47bd5a033ccfb023cad80e8cfccfd42ca46499d3056b725aa4abc46680210b2945bf58013ecdb221c8da0c8efecdd62ea6629fd5036d745ca2adc26086270d2f43b95e0738cbb427cedc0a88f8cbd028a0609dd7016f765ea0afc06284250f2d41bb5c053ac9b625ccde088afac9d22aa26e93d90f617850aea1ce6c8a2b01234fb5520b34c7b82bc2d00684f4c7dc24ac6c91db0d637a52aca3cc6e882903214db7500936c5ba29c0d20486f6c5de26ae6a97dd0b657c54aaa5ca688e2f05274bb1560f30c3bc2fc6d40280f0c3d820a86895df09677e56a8a7c86a8c2d072549b3540d32c1be2dc4d60082f2c1da22aa669bd107697058a6a9c6648223092b47bd5a033ccfb023cad80e8cfccfd42ca46499d3056b725aa4abc46680210b2945bf58013ecdb221c8da0c8efecdd62ea6629fd5036d745ca2adc26086270d2f43b95e0738cbb427cedc0a88f8cbd028a0609dd7016f765ea0afc06284250f2d41bb5c053ac9b625ccde088afac9d22aa26e93d90f617850aea1ce6c8a2b01234fb5520b34c7b82bc2d00684f4c7dc24ac6c91db0d637a52aca3cc6e882903214db7500936c5ba29c0d20486f6c5de26ae6a97dd0b657c54aaa5ca688e2f05274bb1560f30c3bc2fc6d40280f0c3d820a86895df09677e56a8a7c86a8c2d072549b3540d32c1be2dc4d60082f2c1da22aa669bd107697058a6a9c6648223092b47bd5a033ccfb023cad80e8cfccfd42ca46499d3056b725aa4abc46680210b2945bf58013ecdb221c8da0c8efecdd62ea6629fd5036d745ca2adc26086270d2f43b95e0738cbb427cedc0a88f8cbd028a0609dd7016f765ea0afc06284250f2d41bb5c053ac9b625ccde088afac9d22aa26e93d90f617850aea1ce6c8a2b01234fb5520b34c7b82bc2d00684f4c7dc24ac6c91db0d637a52aca3cc6e882903214db7500936c5ba29c0d20486f6c5de26ae6a97dd0b657c54aaa5ca688e2f05274bb1560f30c3bc2fc6d40280f0c3d820a86895df09677e56a8a7c86a8c2d072549b3540d32c1be2dc4d60082f2c1da22aa669bd107697058a6a9c6648223092b47bd5a033ccfb023cad80e8cfccfd42ca46499d3056b725aa4abc46680210b2945bf58013ecdb221c8da0c8efecdd62ea6629fd5036d745ca2adc26086270d2f43b95e0738cbb427cedc0a88f8cbd028a0609dd7016f765ea0afc06284250f2d41bb5c053ac9b625ccde088afac9d22aa26e93d90f617850aea1ce6c8a2b01234fbe42d8ceef866284efb372ddaaf8a6c92cea7a68de6ad0a3b60319d779329fe28",
        "type": "nulldata"
      }
    },
    {
      "value": 499956.2733,
      "n": 1,
      "scriptPubKey": {
        "asm": "1 6b3d9de7b708ca2e7f7e089a22ba41a7e635b6370b7741f75c11232d38cf942f",
        "hex": "51206b3d9de7b708ca2e7f7e089a22ba41a7e635b6370b7741f75c11232d38cf942f",
        "reqSigs": 1,
        "type": "witness_v1_scripthash",
        "addresses": [
          "3QJmnh"
        ]
      }
    }
  ],
  "blockhash": "394f302ff1829b8db869c98f7b64fb5f27cc2b50e933cff1e5bbeae34fa68a80",
  "confirmations": 1,
  "time": 1764183654,
  "blocktime": 1764183654
}