{
  "hex": "0100000000010126d0f91f02f07f5cf13727861507bfd9ed38eeb17b7e1895478dd8217ed2909f0100000000feffffff0200e1f50500000000fdd5046a20e1635f6a81942c3ead66a0c230970ea1fc2361de245ad73c7c9e6e8a0eb42e064db004062596c6de6a8020d2d546160dafcc163fb1f568696f95f8da05f8cbc13b8a862605b6e6fe4aa000f2f566362d8fec361f91d548494fb5d8fa25d8ebe11baaa64665d6869e2ac060929506564def8c567ff1b528292fd5b89a45b88b817bcac66645f6a6be0ae040b2b526766dcfac765fd19508090ff598ba6598aba15beae686a516465eea00a05255c6968d2f4c96bf3175e8e9ef15785a85784b41bb0a06a68536667eca20807275e6b6ad0f6cb69f1155c8c9cf35587aa5586b619b2a26c6e556061eaa40e0121586d6cd6f0cd6ff7135a8a9af55381ac5380b01fb4a46e6c576263e8a60c03235a6f6ed4f2cf6df511588898f75183ae5182b21db6a66062596c6de6a8020d2d546160dafcc163fb1f568696f95f8da05f8cbc13b8a862605b6e6fe4aa000f2f566362d8fec361f91d548494fb5d8fa25d8ebe11baaa64665d6869e2ac060929506564def8c567ff1b528292fd5b89a45b88b817bcac66645f6a6be0ae040b2b526766dcfac765fd19508090ff598ba6598aba15beae686a516465eea00a05255c6968d2f4c96bf3175e8e9ef15785a85784b41bb0a06a68536667eca20807275e6b6ad0f6cb69f1155c8c9cf35587aa5586b619b2a26c6e556061eaa40e0121586d6cd6f0cd6ff7135a8a9af55381ac5380b01fb4a46e6c576263e8a60c03235a6f6ed4f2cf6df511588898f75183ae5182b21db6a66062596c6de6a8020d2d546160dafcc163fb1f568696f95f8da05f8cbc13b8a862605b6e6fe4aa000f2f566362d8fec361f91d548494fb5d8fa25d8ebe11baaa64665d6869e2ac060929506564def8c567ff1b528292fd5b89a45b88b817bcac66645f6a6be0ae040b2b526766dcfac765fd19508090ff598ba6598aba15beae686a516465eea00a05255c6968d2f4c96bf3175e8e9ef15785a85784b41bb0a06a68536667eca20807275e6b6ad0f6cb69f1155c8c9cf35587aa5586b619b2a26c6e556061eaa40e0121586d6cd6f0cd6ff7135a8a9af55381ac5380b01fb4a46e6c576263e8a60c03235a6f6ed4f2cf6df511588898f75183ae5182b21db6a66062596c6de6a8020d2d546160dafcc163fb1f568696f95f8da05f8cbc13b8a862605b6e6fe4aa000f2f566362d8fec361f91d548494fb5d8fa25d8ebe11baaa64665d6869e2ac060929506564def8c567ff1b528292fd5b89a45b88b817bcac66645f6a6be0ae040b2b526766dcfac765fd19508090ff598ba6598aba15beae686a516465eea00a05255c6968d2f4c96bf3175e8e9ef15785a85784b41bb0a06a68536667eca20807275e6b6ad0f6cb69f1155c8c9cf35587aa5586b619b2a26c6e556061eaa40e0121586d6cd6f0cd6ff7135a8a9af55381ac5380b01fb4a46e6c576263e8a60c03235a6f6ed4f2cf6df511588898f75183ae5182b21db6a66062596c6de6a8020d2d546160dafcc163fb1f568696f95f8da05f8cbc13b8a862605b6e6fe4aa000f2f566362d8fec361f91d548494fb5d8fa25d8ebe11baaa64665d6869e2ac060929506564def8c567ff1b528292fd5b89a45b88b817bcac66645f6a6be0ae040b2b526766dcfac765fd19508090ff598ba6598aba15beae686a516465eea00a05255c6968d2f4c960917519f0847550f55a466d606cae0ea1f594f9687b45e9d162c6cf887f04616f077b5f0782d00002251200fe46f2b87608da401ad73935a5e742f82f1e813f8e674138a67fc5f9450bcf802fd750931ab46b7a4bc7dcb297d8c7490e628ce023a6a517c232e92e64b7990b8f7ac1a9d01c14331f9a302b17c121c1c4fedc8d684fd7d1a410a19a32c69d0a6fd2216c51b0029771680c13196d505301425e8df724f4a3cc56fb610ec590e9b32a58f4ff821f1ca94ada6666c8a02bb8a5145c7d96541bfa3f2ca5134968f5c28cc1c07fd1f0ae22ecb177674a3f9a1c7d4c304067973f4091ce6ddc577609e62d8ba28f26ab42d3a4b72e636c84ed3bdb0382da75389bcdfc8ff4c5ea327e4a4cc6ce9ded40870f2a8a8c7172bf843b0313f66d77b9a4b697b6f4e0868ead2a46c155eeaaae5242f240553bd03c847ea26c9b12605715ae5b257987dc86c8f6b90035d32b165adc9f5d6dfa311dd1565166a88b77db0338b5314ed38720a4d946f4389dedb3e7686aac6e00c9c7de0a0ac5540c5f0312b3484245ced98fd6fce85388d02fda3b2df491413fcf1fb8fb47f84e5ea30c7216b0795f2e4fc30a688d5254455f9333497cce0557b6168a00afa536c1e9c2a4b8826111781189360a2b09c7719e6fe9c6e70e192b478dca485c7342877682582464ace8f3f93a2f49b3455fbc7593e8bf885345fda860a4849b8087cb74197d6152d6f2e386bf5970b7a2afa2526966c7ba53269f87241535cd2ac5a0331dd5284211758404c174ac1b817edbba6918ac746e96a996c947e84dbd40b15617e1e821ef46d9e092385f55cccb6471bf6ca8cd423938b7691f84d184ba37cd57fdeb0cf74fa3461d10195103e816941c0091420e338e0eb8caa30860605d0caa8c0c8e8019e5151809abaeb826125817214d5808976e0caed4700c5504d9663b02d3a1c44fb87e2a68807e0041896ab5cc1d43c31ed7d3e2e8c89127aa9348e597f2fd33c473d155d06babf3fb9bee9eb5e8d7a420d8752ec9be25c8d23b1b63710206fc4cff3869b458b3470fe847022a1b470783cd82c41284926c69e6fd86d3459d28570c63f7c3c0654550284fa6ee482da05357212e1fe84527f674c71066526933edc89f53a9590c7a45324ebdfb4ab91f62e1a0d2949d0bc248d2a780b9c9170e0b5e0c1f3e7fa0b3c78ce07a27ff7397076e5ec8de15b0ec2878407a88b6757c8259959822df42fd058f9fa6d118c9c04b932de4e72208ae3f123ed583c5e836e2ebad437e0883a69f3b596b714e8cf30a271ca081f67466f16cfcf526fb53b2987e430a860f1cdf60fd64ed76c3f3ef548078b8b32e8d50e6dcaac8525995ceeba49230e23e4781e6452c002f4532049de65a8a736b5a6da30289756b9b40eb261fdaf09c49b27546c8292b3fc609bc0cac8865bdf321b18d4242b71448f88d9d1e0b1c4171212ecbde48ff2e3d29a27d2c9cb76e0fb8938da34ff1e6f3f2bb96642231ffd8a4d6b985346810af77b947139233c705f36f9ca4344e61e3c301aa7423940f69854c385243b9db7941ebfb2f8767403a371d89e84470289938e17b529b1b75d2d8cbe004116ec1fd0bb0e573cf1c57e855ab052e18bf320c51be52a9a63405e0ed6104b91f8f039e527a0a7543f7bb13a4acf7158decf0e31debf0fca31e99ff1d9b133e98ac676b1f8f4a0304fc4ae9ba6a8ca437c150959323fabb9850a123b395c6d729b955c385bd1d42a198c064fb91bc1270531a5b3c6fa96e199388cdfee0c90b832a6268e4b26271709dfa5bb52bc873afe9c3ab19073a802e306c74486530620ab95ea41828edcde0efa4c01207177b8c1c07c4a4cb70091b54aec752e4c0227dcfc0615053cac745f8608b9fc31d025bb22b740e008161e3542b1f7d8343a42cf135a193a972be91f458db91153539ddb52cfb05abff7fee9b20682f0df3cb512825b13bee047b5e75eb90048984c5477c45e022740b9584c51c538f06ea02662551e721eb7562a19f7ceeafcc52b9ddba42848406720fc5dc3ec5ee90dadc375de754629e24033fefc29b01efc1e77978d7a8a8cfc172e26c61a697e9f007d6839e9d84b46d892df2a876444d58a13382846f6ad4a7b37880bc4e398a7896d8c38a3f0f723b970b25f311003d7807d3a0cd0c19d23e23944bd6b82883870a28746d468beb5eff14f0aed852ec4d3f5e654da6fb58be087d103fc5bcc87808e95ffa7a939a44a1711a8416e7ad41ea1bbacb6d7c29edcbde8eaf22a5fb6f6a874e13a01b139847d765c466c46f219e5fd5b1e8935e0bf84acfe4637c554c52c18b5fc3d240a7789ca1748fd1b78fe322a7bd11e53e8e4d20dcd39240dbf4c99a321943c0f7a1245c007301984c708cf16493b7945829b9be74f8a03aa45b1d71e7e47c027848449876fcd8b6056c4825d416134b6098967a7a9ce7970b7b0a47d0cfc1893bfd5e492f682d9c8b3a3a76ac49448045c8ece2758d56ef9cda2787375e475f16a5149d26d095ba6a973c2488bd4b6e8639d4a075be6810feff9fb5674eec99ad0e4cdecd3d61d48a48a1955c71747d962519eb1b0676d923790d1f616bebc4c62561cba45e9c1ba87b0747c9f4615658a6dcda7ea4c12abb4fae38180c6be9a1bc53fef3be3a014956f662f1b0fe8b106f64a1354817313931b63745af613d0e94897ea42f6a7e553424c8401d1b3e1606d3ff508ab67d9cc54dfb19b2ab9282e7fda96e30eb20504b88bfcc0fba6a411252444acddab757d70fb95a249a9beedb68c2feea362d60d974a59ba769a5ae77b2a5f0dbe5ccb6a3ccd08c914d7920c761569582e43b6da26fc5ab14a655c326acd3d78bbecb5c4d7797b6151bee4f083c45e1d8812ac95b2ec26dbf4ba9b6eac78413c66f5ebd771d24816022ab0b02dbb173daff6739ab1e56190bb39fed1f98559f85e61d5e1156a9e49ea440be129ec9ef309b48e9d81f673c847396d1b93a69beb9e7f85c51547f7dfc159d8c0e3d87c7ee44e6eec5fb2ec8abeb8cab67f10f55fcb65928708a2708e5d330883f517ca51216b46a0d080f0a14c54c0d5ed228faedbd3508d172127651164efdd6105e383703fb64fc7fbdded1ae5415513c6792bb8d52102c8879a5af1a2a890d509ae77cabf3be49c04a7ceb95883d022122c792068d1e951b4113e0409efba60d1eb16a2926e575a4b472e4c0a3f3a907599555d1358c3e71919e487929e40b12905709ac7afda982d692183e749ac9e5c62d40ad840c59fd8c977260aa1eaad46b11252100df0fb93484f31e8d8f805ccab353809ceae7a01e7384fb1fd9046170b03cf9d68350b4248b9c30faf7e4a5e003aa92dff00352a8c96279bebb14dad049158ef17b9a4f2692dfd04748c99f17b5c664b0b070d1c1e2c353c74a1a9b5ccd1d8e5070b191a3336405d608b9798bfc8cccdd1edf000060e1927282b4260657c8288b0c7d2def0f2fcfe12273b4a515d69727897bfc0d1dfeef2000000000000000000000e21364601fd210500852cd1d4dad239948907d80e70b45df1296d51e2f3d43f1fe30ae56a6f56994c3e3773f72283d58a7d8cf7d94c615f4130682d7dd561feae718cfd8eff042ebb5f0f8504f374076ae1add9bceb8ef759b33cd6ace21ff474d9a596b49bec3ffbd3894bf8d67ad4ebcf7dc6b882851da42fb46d0ac299ba77da7234c10559052478a39710c563cc2aabc36bfdee0c34f071fa434535b4b5e613de38f9adf9e88675eb30f1b2a2211540e763034c7ed06a085c645e3535f0b4455584cc4be8f63856c40acbbeb6a3dc6d8f0a721195e6c1f1bf9a54eca2d81acb29e3bb3f955e00e9956253aea3bcafd9a79b11a625c68206e42883e6b3183fb2ff0b05856690613752db2af4d7193c228cf9e6fa3d9f9afc7a1d81233df633e934a34efd2461711a98af23b9f78c4fd2093003176144bc592724167abc5b5aaa72fb4524e9261a71f2e7fae1a9fed8d55860fbe35c0cdd5bc6da9916fcdebf0677b3f79d0f3e4cd238b91f41a4232c62b55c48e2d599dafd4bb35ee9efa5f2cfbaa86b64ed458b48f34bb31f15f4ce21148057caf43bf1763b292889da1e26556714b8d3fd60a12018e658e4ab54f60fa9da4e1b44cc484a65ccbafb983fbe6bacf1ca6b92ad9f12375dac6b44d9fb4a0a1d6c5ae498e4cbcbb721c5b4469f74c7b7b5fcd73bcd9928f5db162c11decfbb8e60297853087203f9b8f85a5d1cbd0967a9a91d4a183cb0687c6c2b2b4152ac736c4b8307fd5ba653de90a33110711a04771b00ac78b8c44c8891acaaefda2135908a5f763f1ac5330e3fa120dbb390166664455a647352a8ed4eef2edb5e1a494dcce002ce47e70ea3884892c875ef38e37b98fec11102180ea2f70ea92a0710af337ce71e4cea14ccdd344f63a348eb394e5caaf7880e31f3bafb58c6092d017051a97772fb91dcba887904c26ea11273c65a6bc701875f37482b9859aab3152ae6570eb5ab47cfe1b1df1aa90f71aff106a1a316209aee0ea2ce24073ea55b0351abbe47555f6bfffe89739c483d4a8dbf539592213c8afe5981deba81170a45f4d3a5eb66d459995ce8f479d8ae115fbcb47d80387c3ed506ede287534572685cf1f3f3b58484b7dcb1e8b10b8cb59678adb5c19fba98c421795b461f219967f04c0d644dccb70d85cbce1820c0ca1ed329070f22df12dc36fbdcba8979f434bdcb4f060e220da5fc89108f53468d97239db976a74405d704cdf5c4aed66ab65e5bf1b654cf849d5d87ccc136dd11033515631da7d93411fe292d863e8c55e4da0268023b5764b7cee14a9c94b3535ae8c08653f5563fa9cf04f217fbcc9d833334838b33b9fddf135dbedb8f805e64cb7eabecafd67b6e5f3a7a73942ddc2ad4b6979b6d41709e4a5c488835be89926f551f138f15a45a200cbdbf2cb3912670c87e77fda530d9c32cfd0070d3376c57569f4d04c7d67b40782e012e8e2f35e4ffb71363ac06a728189a3ed9601d31ede2d5ddc21bca75a9fba446d012d7c875007db64d6a6cf3153113df7eb8fed79b0ee90dbb867cb809d58b1414118dce0e74df029d3aa64c15f877a68aef0ba334f2b365a68ffaeaf710bb140537799f38ad677f5cd762499e96df49a09986483eb17db1d884ba674e1b046c87f77cd81ad261de9db760981ee101d7fa8644188bc152938fb5869524bdf7b47d24c3415b5ad9ec932cbb47970ace591b35275cc05d481b859112b061cacafb49fd10fb80ad6fb950a8c2bf8ea8d8ac2cb61475c0a0735c05dab34521e92a77a3afb5b8b6c8c41e9f579d4ae3a64d1dea1b60bef2a5ff3f261f704cb072f8244a9d9ed5ffd7365c3ed83e2a547c27753078dec5ce8393a77e000000",
  "txid": "21194bd9ebe9c0e363ec10494b6d6d58c7c995e49b473dce52f6ea03fbdcb2a2",
  "hash": "adf93a0301a1b75922ba01e6f2c5d0ad4ea2280cb309de2bdb8a67cf57da31fb",
  "size": 5085,
  "vsize": 2278,
  "version": 1,
  "locktime": 126,
  "vin": [
    {
      "txid": "9f90d27e21d88d4795187e7bb1ee38edd9bf0715862737f15c7ff0021ff9d026",
      "vout": 1,
      "scriptSig": {
        "asm": "",
        "hex": ""
      },
      "txinwitness": [
        "31ab46b7a4bc7dcb297d8c7490e628ce023a6a517c232e92e64b7990b8f7ac1a9d01c14331f9a302b17c121c1c4fedc8d684fd7d1a410a19a32c69d0a6fd2216c51b0029771680c13196d505301425e8df724f4a3cc56fb610ec590e9b32a58f4ff821f1ca94ada6666c8a02bb8a5145c7d96541bfa3f2ca5134968f5c28cc1c07fd1f0ae22ecb177674a3f9a1c7d4c304067973f4091ce6ddc577609e62d8ba28f26ab42d3a4b72e636c84ed3bdb0382da75389bcdfc8ff4c5ea327e4a4cc6ce9ded40870f2a8a8c7172bf843b0313f66d77b9a4b697b6f4e0868ead2a46c155eeaaae5242f240553bd03c847ea26c9b12605715ae5b257987dc86c8f6b90035d32b165adc9f5d6dfa311dd1565166a88b77db0338b5314ed38720a4d946f4389dedb3e7686aac6e00c9c7de0a0ac5540c5f0312b3484245ced98fd6fce85388d02fda3b2df491413fcf1fb8fb47f84e5ea30c7216b0795f2e4fc30a688d5254455f9333497cce0557b6168a00afa536c1e9c2a4b8826111781189360a2b09c7719e6fe9c6e70e192b478dca485c7342877682582464ace8f3f93a2f49b3455fbc7593e8bf885345fda860a4849b8087cb74197d6152d6f2e386bf5970b7a2afa2526966c7ba53269f87241535cd2ac5a0331dd5284211758404c174ac1b817edbba6918ac746e96a996c947e84dbd40b15617e1e821ef46d9e092385f55cccb6471bf6ca8cd423938b7691f84d184ba37cd57fdeb0cf74fa3461d10195103e816941c0091420e338e0eb8caa30860605d0caa8c0c8e8019e5151809abaeb826125817214d5808976e0caed4700c5504d9663b02d3a1c44fb87e2a68807e0041896ab5cc1d43c31ed7d3e2e8c89127aa9348e597f2fd33c473d155d06babf3fb9bee9eb5e8d7a420d8752ec9be25c8d23b1b63710206fc4cff3869b458b3470fe847022a1b470783cd82c41284926c69e6fd86d3459d28570c63f7c3c0654550284fa6ee482da05357212e1fe84527f674c71066526933edc89f53a9590c7a45324ebdfb4ab91f62e1a0d2949d0bc248d2a780b9c9170e0b5e0c1f3e7fa0b3c78ce07a27ff7397076e5ec8de15b0ec2878407a88b6757c8259959822df42fd058f9fa6d118c9c04b932de4e72208ae3f123ed583c5e836e2ebad437e0883a69f3b596b714e8cf30a271ca081f67466f16cfcf526fb53b2987e430a860f1cdf60fd64ed76c3f3ef548078b8b32e8d50e6dcaac8525995ceeba49230e23e4781e6452c002f4532049de65a8a736b5a6da30289756b9b40eb261fdaf09c49b27546c8292b3fc609bc0cac8865bdf321b18d4242b71448f88d9d1e0b1c4171212ecbde48ff2e3d29a27d2c9cb76e0fb8938da34ff1e6f3f2bb96642231ffd8a4d6b985346810af77b947139233c705f36f9ca4344e61e3c301aa7423940f69854c385243b9db7941ebfb2f8767403a371d89e84470289938e17b529b1b75d2d8cbe004116ec1fd0bb0e573cf1c57e855ab052e18bf320c51be52a9a63405e0ed6104b91f8f039e527a0a7543f7bb13a4acf7158decf0e31debf0fca31e99ff1d9b133e98ac676b1f8f4a0304fc4ae9ba6a8ca437c150959323fabb9850a123b395c6d729b955c385bd1d42a198c064fb91bc1270531a5b3c6fa96e199388cdfee0c90b832a6268e4b26271709dfa5bb52bc873afe9c3ab19073a802e306c74486530620ab95ea41828edcde0efa4c01207177b8c1c07c4a4cb70091b54aec752e4c0227dcfc0615053cac745f8608b9fc31d025bb22b740e008161e3542b1f7d8343a42cf135a193a972be91f458db91153539ddb52cfb05abff7fee9b20682f0df3cb512825b13bee047b5e75eb90048984c5477c45e022740b9584c51c538f06ea02662551e721eb7562a19f7ceeafcc52b9ddba42848406720fc5dc3ec5ee90dadc375de754629e24033fefc29b01efc1e77978d7a8a8cfc172e26c61a697e9f007d6839e9d84b46d892df2a876444d58a13382846f6ad4a7b37880bc4e398a7896d8c38a3f0f723b970b25f311003d7807d3a0cd0c19d23e23944bd6b82883870a28746d468beb5eff14f0aed852ec4d3f5e654da6fb58be087d103fc5bcc87808e95ffa7a939a44a1711a8416e7ad41ea1bbacb6d7c29edcbde8eaf22a5fb6f6a874e13a01b139847d765c466c46f219e5fd5b1e8935e0bf84acfe4637c554c52c18b5fc3d240a7789ca1748fd1b78fe322a7bd11e53e8e4d20dcd39240dbf4c99a321943c0f7a1245c007301984c708cf16493b7945829b9be74f8a03aa45b1d71e7e47c027848449876fcd8b6056c4825d416134b6098967a7a9ce7970b7b0a47d0cfc1893bfd5e492f682d9c8b3a3a76ac49448045c8ece2758d56ef9cda2787375e475f16a5149d26d095ba6a973c2488bd4b6e8639d4a075be6810feff9fb5674eec99ad0e4cdecd3d61d48a48a1955c71747d962519eb1b0676d923790d1f616bebc4c62561cba45e9c1ba87b0747c9f4615658a6dcda7ea4c12abb4fae38180c6be9a1bc53fef3be3a014956f662f1b0fe8b106f64a1354817313931b63745af613d0e94897ea42f6a7e553424c8401d1b3e1606d3ff508ab67d9cc54dfb19b2ab9282e7fda96e30eb20504b88bfcc0fba6a411252444acddab757d70fb95a249a9beedb68c2feea362d60d974a59ba769a5ae77b2a5f0dbe5ccb6a3ccd08c914d7920c761569582e43b6da26fc5ab14a655c326acd3d78bbecb5c4d7797b6151bee4f083c45e1d8812ac95b2ec26dbf4ba9b6eac78413c66f5ebd771d24816022ab0b02dbb173daff6739ab1e56190bb39fed1f98559f85e61d5e1156a9e49ea440be129ec9ef309b48e9d81f673c847396d1b93a69beb9e7f85c51547f7dfc159d8c0e3d87c7ee44e6eec5fb2ec8abeb8cab67f10f55fcb65928708a2708e5d330883f517ca51216b46a0d080f0a14c54c0d5ed228faedbd3508d172127651164efdd6105e383703fb64fc7fbdded1ae5415513c6792bb8d52102c8879a5af1a2a890d509ae77cabf3be49c04a7ceb95883d022122c792068d1e951b4113e0409efba60d1eb16a2926e575a4b472e4c0a3f3a907599555d1358c3e71919e487929e40b12905709ac7afda982d692183e749ac9e5c62d40ad840c59fd8c977260aa1eaad46b11252100df0fb93484f31e8d8f805ccab353809ceae7a01e7384fb1fd9046170b03cf9d68350b4248b9c30faf7e4a5e003aa92dff00352a8c96279bebb14dad049158ef17b9a4f2692dfd04748c99f17b5c664b0b070d1c1e2c353c74a1a9b5ccd1d8e5070b191a3336405d608b9798bfc8cccdd1edf000060e1927282b4260657c8288b0c7d2def0f2fcfe12273b4a515d69727897bfc0d1dfeef2000000000000000000000e21364601",
        "00852cd1d4dad239948907d80e70b45df1296d51e2f3d43f1fe30ae56a6f56994c3e3773f72283d58a7d8cf7d94c615f4130682d7dd561feae718cfd8eff042ebb5f0f8504f374076ae1add9bceb8ef759b33cd6ace21ff474d9a596b49bec3ffbd3894bf8d67ad4ebcf7dc6b882851da42fb46d0ac299ba77da7234c10559052478a39710c563cc2aabc36bfdee0c34f071fa434535b4b5e613de38f9adf9e88675eb30f1b2a2211540e763034c7ed06a085c645e3535f0b4455584cc4be8f63856c40acbbeb6a3dc6d8f0a721195e6c1f1bf9a54eca2d81acb29e3bb3f955e00e9956253aea3bcafd9a79b11a625c68206e42883e6b3183fb2ff0b05856690613752db2af4d7193c228cf9e6fa3d9f9afc7a1d81233df633e934a34efd2461711a98af23b9f78c4fd2093003176144bc592724167abc5b5aaa72fb4524e9261a71f2e7fae1a9fed8d55860fbe35c0cdd5bc6da9916fcdebf0677b3f79d0f3e4cd238b91f41a4232c62b55c48e2d599dafd4bb35ee9efa5f2cfbaa86b64ed458b48f34bb31f15f4ce21148057caf43bf1763b292889da1e26556714b8d3fd60a12018e658e4ab54f60fa9da4e1b44cc484a65ccbafb983fbe6bacf1ca6b92ad9f12375dac6b44d9fb4a0a1d6c5ae498e4cbcbb721c5b4469f74c7b7b5fcd73bcd9928f5db162c11decfbb8e60297853087203f9b8f85a5d1cbd0967a9a91d4a183cb0687c6c2b2b4152ac736c4b8307fd5ba653de90a33110711a04771b00ac78b8c44c8891acaaefda2135908a5f763f1ac5330e3fa120dbb390166664455a647352a8ed4eef2edb5e1a494dcce002ce47e70ea3884892c875ef38e37b98fec11102180ea2f70ea92a0710af337ce71e4cea14ccdd344f63a348eb394e5caaf7880e31f3bafb58c6092d017051a97772fb91dcba887904c26ea11273c65a6bc701875f37482b9859aab3152ae6570eb5ab47cfe1b1df1aa90f71aff106a1a316209aee0ea2ce24073ea55b0351abbe47555f6bfffe89739c483d4a8dbf539592213c8afe5981deba81170a45f4d3a5eb66d459995ce8f479d8ae115fbcb47d80387c3ed506ede287534572685cf1f3f3b58484b7dcb1e8b10b8cb59678adb5c19fba98c421795b461f219967f04c0d644dccb70d85cbce1820c0ca1ed329070f22df12dc36fbdcba8979f434bdcb4f060e220da5fc89108f53468d97239db976a74405d704cdf5c4aed66ab65e5bf1b654cf849d5d87ccc136dd11033515631da7d93411fe292d863e8c55e4da0268023b5764b7cee14a9c94b3535ae8c08653f5563fa9cf04f217fbcc9d833334838b33b9fddf135dbedb8f805e64cb7eabecafd67b6e5f3a7a73942ddc2ad4b6979b6d41709e4a5c488835be89926f551f138f15a45a200cbdbf2cb3912670c87e77fda530d9c32cfd0070d3376c57569f4d04c7d67b40782e012e8e2f35e4ffb71363ac06a728189a3ed9601d31ede2d5ddc21bca75a9fba446d012d7c875007db64d6a6cf3153113df7eb8fed79b0ee90dbb867cb809d58b1414118dce0e74df029d3aa64c15f877a68aef0ba334f2b365a68ffaeaf710bb140537799f38ad677f5cd762499e96df49a09986483eb17db1d884ba674e1b046c87f77cd81ad261de9db760981ee101d7fa8644188bc152938fb5869524bdf7b47d24c3415b5ad9ec932cbb47970ace591b35275cc05d481b859112b061cacafb49fd10fb80ad6fb950a8c2bf8ea8d8ac2cb61475c0a0735c05dab34521e92a77a3afb5b8b6c8c41e9f579d4ae3a64d1dea1b60bef2a5ff3f261f704cb072f8244a9d9ed5ffd7365c3ed83e2a547c27753078dec5ce8393a7"
      ],
      "sequence": 4294967294
    }
  ],
  "vout": [
    {
      "value": 1.0,
      "n": 0,
      "scriptPubKey": {
        "asm": "OP_RETURN e1635f6a81942c3ead66a0c230970ea1fc2361de245ad73c7c9e6e8a0eb42e06 062596c6de6a8020d2d546160dafcc163fb1f568696f95f8da05f8cbc13b8a862605b6e6fe4aa000f2f566362d8fec361f91d548494fb5d8fa25d8ebe11baaa64665d6869e2ac060929506564def8c567ff1b528292fd5b89a45b88b817bcac66645f6a6be0ae040b2b526766dcfac765fd19508090ff598ba6598aba15beae686a516465eea00a05255c6968d2f4c96bf3175e8e9ef15785a85784b41bb0a06a68536667eca20807275e6b6ad0f6cb69f1155c8c9cf35587aa5586b619b2a26c6e556061eaa40e0121586d6cd6f0cd6ff7135a8a9af55381ac5380b01fb4a46e6c576263e8a60c03235a6f6ed4f2cf6df511588898f75183ae5182b21db6a66062596c6de6a8020d2d546160dafcc163fb1f568696f95f8da05f8cbc13b8a862605b6e6fe4aa000f2f566362d8fec361f91d548494fb5d8fa25d8ebe11baaa64665d6869e2ac060929506564def8c567ff1b528292fd5b89a45b88b817bcac66645f6a6be0ae040b2b526766dcfac765fd19508090ff598ba6598aba15beae686a516465eea00a05255c6968d2f4c96bf3175e8e9ef15785a85784b41bb0a06a68536667eca20807275e6b6ad0f6cb69f1155c8c9cf35587aa5586b619b2a26c6e556061eaa40e0121586d6cd6f0cd6ff7135a8a9af55381ac5380b01fb4a46e6c576263e8a60c03235a6f6ed4f2cf6df511588898f75183ae5182b21db6a66062596c6de6a8020d2d546160dafcc163fb1f568696f95f8da05f8cbc13b8a862605b6e6fe4aa000f2f566362d8fec361f91d548494fb5d8fa25d8ebe11baaa64665d6869e2ac060929506564def8c567ff1b528292fd5b89a45b88b817bcac66645f6a6be0ae040b2b526766dcfac765fd19508090ff598ba6598aba15beae686a516465eea00a05255c6968d2f4c96bf3175e8e9ef15785a85784b41bb0a06a68536667eca20807275e6b6ad0f6cb69f1155c8c9cf35587aa5586b619b2a26c6e556061eaa40e0121586d6cd6f0cd6ff7135a8a9af55381ac5380b01fb4a46e6c576263e8a60c03235a6f6ed4f2cf6df511588898f75183ae5182b21db6a66062596c6de6a8020d2d546160dafcc163fb1f568696f95f8da05f8cbc13b8a862605b6e6fe4aa000f2f566362d8fec361f91d548494fb5d8fa25d8ebe11baaa64665d6869e2ac060929506564def8c567ff1b528292fd5b89a45b88b817bcac66645f6a6be0ae040b2b526766dcfac765fd19508090ff598ba6598aba15beae686a516465eea00a05255c6968d2f4c96bf3175e8e9ef15785a85784b41bb0a06a68536667eca20807275e6b6ad0f6cb69f1155c8c9cf35587aa5586b619b2a26c6e556061eaa40e0121586d6cd6f0cd6ff7135a8a9af55381ac5380b01fb4a46e6c576263e8a60c03235a6f6ed4f2cf6df511588898f75183ae5182b21db6a66062596c6de6a8020d2d546160dafcc163fb1f568696f95f8da05f8cbc13b8a862605b6e6fe4aa000f2f566362d8fec361f91d548494fb5d8fa25d8ebe11baaa64665d6869e2ac060929506564def8c567ff1b528292fd5b89a45b88b817bcac66645f6a6be0ae040b2b526766dcfac765fd19508090ff598ba6598aba15beae686a516465eea00a05255c6968d2f4c960917519f0847550f55a466d606cae0ea1f594f9687b45e9d162c6cf887f04616",
        "hex": "6a20e1635f6a81942c3ead66a0c230970ea1fc2361de245ad73c7c9e6e8a0eb42e064db004062596c6de6a8020d2d546160dafcc163fb1f568696f95f8da05f8cbc13b8a862605b6e6fe4aa000f2f566362d8fec361f91d548494fb5d8fa25d8ebe11baaa64665d6869e2ac060929506564def8c567ff1b528292fd5b89a45b88b817bcac66645f6a6be0ae040b2b526766dcfac765fd19508090ff598ba6598aba15beae686a516465eea00a05255c6968d2f4c96bf3175e8e9ef15785a85784b41bb0a06a68536667eca20807275e6b6ad0f6cb69f1155c8c9cf35587aa5586b619b2a26c6e556061eaa40e0121586d6cd6f0cd6ff7135a8a9af55381ac5380b01fb4a46e6c576263e8a60c03235a6f6ed4f2cf6df511588898f75183ae5182b21db6a66062596c6de6a8020d2d546160dafcc163fb1f568696f95f8da05f8cbc13b8a862605b6e6fe4aa000f2f566362d8fec361f91d548494fb5d8fa25d8ebe11baaa64665d6869e2ac060929506564def8c567ff1b528292fd5b89a45b88b817bcac66645f6a6be0ae040b2b526766dcfac765fd19508090ff598ba6598aba15beae686a516465eea00a05255c6968d2f4c96bf3175e8e9ef15785a85784b41bb0a06a68536667eca20807275e6b6ad0f6cb69f1155c8c9cf35587aa5586b619b2a26c6e556061eaa40e0121586d6cd6f0cd6ff7135a8a9af55381ac5380b01fb4a46e6c576263e8a60c03235a6f6ed4f2cf6df511588898f75183ae5182b21db6a66062596c6de6a8020d2d546160dafcc163fb1f568696f95f8da05f8cbc13b8a862605b6e6fe4aa000f2f566362d8fec361f91d548494fb5d8fa25d8ebe11baaa64665d6869e2ac060929506564def8c567ff1b528292fd5b89a45b88b817bcac66645f6a6be0ae040b2b526766dcfac765fd19508090ff598ba6598aba15beae686a516465eea00a05255c6968d2f4c96bf3175e8e9ef15785a85784b41bb0a06a68536667eca20807275e6b6ad0f6cb69f1155c8c9cf35587aa5586b619b2a26c6e556061eaa40e0121586d6cd6f0cd6ff7135a8a9af55381ac5380b01fb4a46e6c576263e8a60c03235a6f6ed4f2cf6df511588898f75183ae5182b21db6a66062596c6de6a8020d2d546160dafcc163fb1f568696f95f8da05f8cbc13b8a862605b6e6fe4aa000f2f566362d8fec361f91d548494fb5d8fa25d8ebe11baaa64665d6869e2ac060929506564def8c567ff1b528292fd5b89a45b88b817bcac66645f6a6be0ae040b2b526766dcfac765fd19508090ff598ba6598aba15beae686a516465eea00a05255c6968d2f4c96bf3175e8e9ef15785a85784b41bb0a06a68536667eca20807275e6b6ad0f6cb69f1155c8c9cf35587aa5586b619b2a26c6e556061eaa40e0121586d6cd6f0cd6ff7135a8a9af55381ac5380b01fb4a46e6c576263e8a60c03235a6f6ed4f2cf6df511588898f75183ae5182b21db6a66062596c6de6a8020d2d546160dafcc163fb1f568696f95f8da05f8cbc13b8a862605b6e6fe4aa000f2f566362d8fec361f91d548494fb5d8fa25d8ebe11baaa64665d6869e2ac060929506564def8c567ff1b528292fd5b89a45b88b817bcac66645f6a6be0ae040b2b526766dcfac765fd19508090ff598ba6598aba15beae686a516465eea00a05255c6968d2f4c960917519f0847550f55a466d606cae0ea1f594f9687b45e9d162c6cf887f04616",
        "type": "nulldata"
      }
    },
    {
      "value": 499974.5775,
      "n": 1,
      "scriptPubKey": {
        "asm": "1 0fe46f2b87608da401ad73935a5e742f82f1e813f8e674138a67fc5f9450bcf8",
        "hex": "51200fe46f2b87608da401ad73935a5e742f82f1e813f8e674138a67fc5f9450bcf8",
        "reqSigs": 1,
        "type": "witness_v1_scripthash",
        "addresses": [
          "3QJmnh"
        ]
      }
    }
  ],
  "blockhash": "6d9c0c317b6a18c94c8dfa8ecf7920e3db1b4df4697afebc42d3fd28269e39fd",
  "confirmations": 1,
  "time": 1764181315,
  "blocktime": 1764181315
}