{
  "hex": "01000000000101d12f6b529dfa9f179a04c8fb2547f5ed406a5f925cd62eb3dec52320eadbdc920100000000feffffff0200e1f50500000000fdd5046a20b94633c4ac3193431fd80ca61c113ea5814b3575defdae6af06ac2062130ecb14db00445a758caad1987fdea7abc5f7408e0f073b749671238837cab6896371e4415f1658778ea8d39a7ddca5a9c7f5428c0d0539769473218a35c8b48b6173e6435d105e7188aed59c7bdaa3afc1f3448a0b033f709275278c33ceb28d6775e0455b125c738aacd79e79d8a1adc3f1468809013d729077258e31ccb08f6577e247591c527d84a2d99077d6afa3cdff4886070f337c9e792b803fc2be816b79ec49571e507f86a0db9275d4ada1cffd4a84050d317e9c7b29823dc0bc83697bee4b5518567980a6dd9473d2aba7c9fb4c82030b37789a7d2f843bc6ba856f7de84d531a547b82a4df9671d0a9a5cbf94e800109357a987f2d8639c4b8876d7fea4f51145a758caad1987fdea7abc5f7408e0f073b749671238837cab6896371e4415f1658778ea8d39a7ddca5a9c7f5428c0d0539769473218a35c8b48b6173e6435d105e7188aed59c7bdaa3afc1f3448a0b033f709275278c33ceb28d6775e0455b125c738aacd79e79d8a1adc3f1468809013d729077258e31ccb08f6577e247591c527d84a2d99077d6afa3cdff4886070f337c9e792b803fc2be816b79ec49571e507f86a0db9275d4ada1cffd4a84050d317e9c7b29823dc0bc83697bee4b5518567980a6dd9473d2aba7c9fb4c82030b37789a7d2f843bc6ba856f7de84d531a547b82a4df9671d0a9a5cbf94e800109357a987f2d8639c4b8876d7fea4f51145a758caad1987fdea7abc5f7408e0f073b749671238837cab6896371e4415f1658778ea8d39a7ddca5a9c7f5428c0d0539769473218a35c8b48b6173e6435d105e7188aed59c7bdaa3afc1f3448a0b033f709275278c33ceb28d6775e0455b125c738aacd79e79d8a1adc3f1468809013d729077258e31ccb08f6577e247591c527d84a2d99077d6afa3cdff4886070f337c9e792b803fc2be816b79ec49571e507f86a0db9275d4ada1cffd4a84050d317e9c7b29823dc0bc83697bee4b5518567980a6dd9473d2aba7c9fb4c82030b37789a7d2f843bc6ba856f7de84d531a547b82a4df9671d0a9a5cbf94e800109357a987f2d8639c4b8876d7fea4f51145a758caad1987fdea7abc5f7408e0f073b749671238837cab6896371e4415f1658778ea8d39a7ddca5a9c7f5428c0d0539769473218a35c8b48b6173e6435d105e7188aed59c7bdaa3afc1f3448a0b033f709275278c33ceb28d6775e0455b125c738aacd79e79d8a1adc3f1468809013d729077258e31ccb08f6577e247591c527d84a2d99077d6afa3cdff4886070f337c9e792b803fc2be816b79ec49571e507f86a0db9275d4ada1cffd4a84050d317e9c7b29823dc0bc83697bee4b5518567980a6dd9473d2aba7c9fb4c82030b37789a7d2f843bc6ba856f7de84d531a547b82a4df9671d0a9a5cbf94e800109357a987f2d8639c4b8876d7fea4f51145a758caad1987fdea7abc5f7408e0f073b749671238837cab6896371e4415f1658778ea8d39a7ddca5a9c7f5428c0d0539769473218a35c8b48b6173e6435d105e7188aed59c7bdaa3afc1f3448a0b033f709275278c33ceb28d6775e0455b125c738aacd79e79d8a1adc3f1468809013d729077258e31ccb08f6577e247591c527d84a2d99077d6afa3cdff48860705295e54ef9db4891cb02972f7949d1473cf1c5147b77af922f519512101ad2388022c5f6782d0000225120d632ee837208e07cca91ae4eef4dcc23b0453f1ba44d41e5fa53b001e7c0eadb02fd7509360986c495077218089e1700cdec91a67c65ca07ae6297a85cdfe1cf97208ca9f432eaff2ad50942d2c35de4608670c1a7e62a2be939125acfacefdad38970cda53bc6166eb2304b6eb375870108427545db7e186c51300853fb5fea8169e5ccdf0fe31bae1bba5194f3c80a99c77d2f95d02c4b2b8659e3dc3554bffa1b8637d0d83e898ae632e0a43e725b46b7f8eda9ead1216ba5737b563a36f0dda5992a653b616d66e5e8fdf7904caf4721210d88d1edba94ce2160a1b8b7bc6dbf13e52c61bc0a4311352b81ff4d6e779ad4696c03ee3bef81c5a0c137881194a238e569414f6082d4d8aea262dae2743dbb0a52a319d3624b6c3ef28dba62a50522cb6aaf1a6cfea11c5198d4672139c667dd996390b1e8b9ff412fe0c4236dbf7d380e1f0a485b6573ae2cc5d9b2473e1d9dda1eacc32437bb1e532b94c2987350a24fb536e95c78c87e7817a2c8ace0a492376b1eca58764d35194eed923ffc4abdee6e51e6a435c5c9bd6394329cbdc82b378e19caa13be8620989e4c9c0ed1b463e630478bc247829a2be5fa1fc52dd2f89a47ede6b2fd0ba81236aeb702be4261e39215d42d1adb1a33a4d405693c8fffbf286c3a01e798b09966c55edf1558342d19a4f26a7959175f7fdbe807431382fb36709cb2eebc61d4f8f05fdfc85fe0d0266a27b1356daea5d57206ae044129ec69845dbb076227fd3ab8f98243e607f2844e4c2495dd264ff5dd61e0825978280ac0736f27211fd4fb01409d6114b782e3cd20079333383deeecd8abc66b2a77d68fd33071623dabb2319621becb6e86b36b69f840468510f6a881a10b4db584d2b53e9861f22e034289aa80cec62460b48dd42a1f2f25a5fe0bb2018549001b6921d1d9b9e8bd36092440aab06b2b1d0611ea4f6f17a8cd037f47018abd4b935f9e9997baaad6a090235aab80490be73eedebda7acf2384083edbddd2b1c38d3153a0286beabd713c5b563d2cca78a4e977c29f372f16a77a7f0f5190b68a1fe2693dfea2882eede79b87e480d9fc9a225a67d0a3394d9d9da14492a9d705c8438c7e774006e4b5fbfd4e5d6f88a64f560c7d7f3342caaa4dcb617d94bcbf17bccfdbc6477b62d2ce27fa36571ac9f80839a768b86116a7623d3ec92d90473ee8569998bfcbd06007703221d00cf9106a7a2a31aab1009fd99e7692670d7b0b03eaa2feacf52d51e09662c064577f820a84edadaba31932d9cbea59c0d34145d8dcfe88f453976ad073b72b27d27693aae2e3cff2b172f6b5ed94b800335475041b18dda99296a64070236eb1f9597432f0ce664800d5eff3543f1149ff1a80dc1dcb1103a0bf1a3572e6f120ca0e26411a07c737680c36a3995a198df521453bc0c00ec2b5bd8a11576f65d4bab56f0b26d01c04dceb5a152b7b755122c67e8ef59c510c7f5f2794a60f1d2c008342fff665fc3f2ec6aa447e105e8c4c255e1220c217ceac63574c294204bb8f4f9b08c26652cf20cb0a1d416fbb7a05c66c57e116009294fbe9bb5616f4b61c23204a2766cf259a421c3b46fc8fb98904a7c616316165e7c1fdb3818c0ffc016f6350d359cdceb7d47dc243b6afa99e766cace0fd67ae82dc5b7a84a53e49a471da62b15180b605d7332ca1dc0cad8c045893ea3bc9862b19758f0ba23b0bebdf8f5f76cedc937a0a23e70f35a060ef9782ecbc4b64ce42d3cde068b4d09e3b6254fc965326eb4139ddb9bfa69af979fd70612db8206427662fa5e11f7423e8373bde34ef2cb5c58e26ff6f4dbc0e7c4552dc57942c0a89c4572250d554e5988626dfe6561467aaffa2741faae2ac414a98a18ea6f29855d6fabb53742d3584ccca42eca29cba6128ebd012484bbdea0cc2c506e619346acd2fb173a7f69b0a4baf3f220fd069ee8c4e17a8a875a0981f1103bb855ba539b76d8b15667250bdaeb5723b4349e36deba96ee6012739c94987193a8f684df348f09d71d381700a4c818aae055cbce574ed41c8dda603e3474fcf3bf8d266c1b442895a146bdcbf36505c3b885138145e2dc4159026f12d5300ca26af7bd344b4cc1a05f87de376192252ed79182edc746259388c390f2714a96ad1b168c038efefb994a71167fd48afc24cd91ef099942f2e55e6ad268e766a438feb80a0eedd8b5e6ffa2c4c51803723c2a2b112f080bc73edeead3b8254778af0fe39d7df323fdd3dae1dab6fd2c1edb29c24b71c6b3c33f6862ba919ffbef6cabae5624ccd571bccd40461b79e3d547c1addc5d501bbeacc1659baf6d5e6b49912987ba06d8c8725b4c9b737a8b967a8360ee527f7c40d964a8dd01a625e7125afba6afe1014147ebcd7c3e1fda6ec0b6dae8b861c9f00378e47884a754a3839e03b03bfde7feeb2bef94a901d0d942e194a82d9427b9eff7428b7ef210bf40da8770139ec7541c097735fc573ddb2ee91fd331d2cd13c7b2b0c6b1293645341cb1aef4349ba16b0ec7ccacacef7c2303e4fa36e297396198eae3c4483f28a96e81e7e6e856811228ca124be49d9f8a4555f83820f36979d2d2b532fa01506ab082c50ae7ece78a918005b9261818b25eecb4daaee5e0b0008ac37eb780ac6d0b9074ed2335b859cdfb62ca1bafe911a45bc89d438eac5fa7e935d20cbe3d808065f08c3fd7263680b411454da654a979519ae8c5e5a1d50153ccce54feed160b053861afb622ef4134c31d03df886215301aa8c2b1f7154be1ed1e31f3c818c73329b723af1481e57f577afef9b06008babfd78d2dcd975fe6c37d2f8204c37d569052dd5e44935265a085aae4c6d2e5238bc11fdfde506e06e55f17a6ffc4bcf58a7e0eecace48e8b31b5783ec311ab9754eba28ea38e89404fb7c391af6155dc04fbbda937db328f4bd7728d335e83565e36c8d0c6ca0664ea3463651eaf70cd58f5a4671abe67da0e1efd3df20d411cd0b9322daee4ed6b2e13a18c3c95f130d73f7d868d42abfed4c524f9f4a2633bd5805dc4a5f09f255c2a0fb0c924fd3a275e2e4f4233e910457093c6a8a7f6335a826ddf0b6e0ce148166a5f5df247cb8f15fdfe54db489e1fc447ee6b619559fa98f6ea79dbc7f498462022b3907b001deb2e0be6289bfc76dda171aed998109cd2580df11734e8c0cfdfc359b5467e3760311739a3fe35ecd21388ca6f18465e3665fdaca88af0356e7054f18e9957b3eda06d69562a5a83e975fd996861aec6d0b95365d09c38c25cf29fd517e8129056ff6c919baee3bcbc76623041ea745cd524991f5abd21ac14d22b0853127d7c2c2014954bbed0aedaff1522253365677a8690b8cee80b15394266717e808b919295979aa3a8e8fd03041343465056606f7d99b4e3e5ef03080b10272a303b495b5c62656e7378797c7d858eadb1d1e6ea0000000000000000000c1e2d4701fd21050097a9a48b5f375169887d36e62d3f39b0cfd8b36e5bc2347aa586c0af3eeed8cc727949f2ee2cc202d034fb2068e05ee4b516602f5a689f14b748b01f85a7b61622ab930bc89d937b24cd8befd63dc516de7eb090a6b2732a66261f3275c03dc13ff73986715369a5b90756c67dae9d1e15082cfda48797cab71cfb995698aa54545f3eb8b3c17e862960f5bffb08235e906687211f0570161a9f5caafbbfaa312d0e0284950c4368a188bc8bd634498f3820703a4c3f6e86de0dec358bf09e97d713f87d511f6f502793238d04af7504b8f8c3883f755f736515553348c49b993d819f140042f0787d29e8bcca50594f5da067eb690de322c624e9855f6931476d5c8a08d50e043712ccdb5355e41b785282d356d4ec1edb3e2c805cd74a10540182d3b34c6063e89a339fef7a8668bccb74a6d79ea89208c297623497f7a3820a78c02727565666771404acd287e6fe0f8fd6f84390aba78f764177c53e0d6d6dc16c82baea5e0ef803b89e86bc53cbdf93569ad846915548d6c2074ae2a014d474714f8efc45b3f3799241ea0fb641cec76e2f840825e7abcea3b7b3aaca64b2eaa7fc4849ef921fad105e8a2c81c65647594d4747088d9b74e96003d777b3047f5f998082956d15c22e87bb0eae8e28218982596f4f6cb10fe14ebe3359a487eaec72d37b72a90b1f7c66389456748bdeace824663de2c18cac340d065d42543dbbd2132be09b466d9dfc5965a0480931ed4e1a29667d7452c553dbaa6dc9781de0779a11dbd2a603da63d4eb50435543928518ccb3aac4c82f3b53375535dee108b8e715390825928268e5ad8d9ccc4573d09a90f3b4c9e2eb91aa757b7e2e37f086fda1f74b79db7ef1a2cbd400715e4ec1146ebe993c7b8285e3c61a0be5118cb66681ff15f6c6bcd59bc3e8c3d140f576b6c6afd06635a962ad1f1efb6243c79fd138a6a24b33e701e94ce71c1cc9b086501bfc90a2153eff71c23907384cc38103fae604bc3b81132608b324a3fa95d44adea5a3b09fcc6452712dab550da78b5cd76590e16b8bc971c7138f1bb71ed3443a50930e5489aa134cf4194089ffc4dd612d16caf7bb846b3e65567c74c1b38f010af704cef2a7b6ec67867cbacb3986dbdcb88cfc3ef47fbf77f5bce0ae7ec1e21a14a7b17b5d5906193c736175ec9770d539d598e0fb45630cca01a5237af4e23f51b5dcdc04736e5ef99c555f71a67f78d81888cee355602b35fda1f55ace2b0ba967544ab91865aa93e74f14f31cd637b26317cb09c1a4fc90f19ef97d893b9fc0dc2b14e32b7d33e3b1f50ff139f893389fc609e3dc062e53569b01057cd07fb4c734b2897f35cdf67d54a9531cbbfec248581cbf695a4dad4f93b39e3b287c6500af138a277049d58222b3d7b0ec503636e10a3472e3f1def18071884726141fdd70dea2b0bcbb08261a804e49c1b5851b92d3ba2570f34dcd28b1bfa3a35ea3c86188f95c79a58746c1e4bfbfb9b32b8faeab26e0ea4b635a60a618e03d66d83d4c436e9f001a57bb31a93fcff4e94915dea406da65489db0cde53033d06249408edd9cfa5311d59e1014e9dbe73dcd71fc2cfc017d27153a715140714cf6479691600d727a3a2924af77841d381ea54143c9d08871f143f397ee25e817c22f05743437ade654c05dee1ea6bbd4ee12de25e34f56a53f81554e3d1917ff30038372c41db09c83091f956cfeb5ba260d32b03df6bbdfff4420998fcf7aa95e93539c7e44fcf72e503a033a50a83d323120b248c0cfada38be30e75ad33ba9bcf464c9117ac6939961d65f6cb76de7b71ff2c0c6bbe0663780ea5f8f17de28a029f81209918c1d03277000000",
  "txid": "237197a067b1126927cad84b3b421584043990d5a8a899d4e351cc87851f50e7",
  "hash": "4f1cc5ac6f970c0653a579504f0a991efe52e37bae0a5d5812e594800e9c2fe5",
  "size": 5085,
  "vsize": 2278,
  "version": 1,
  "locktime": 119,
  "vin": [
    {
      "txid": "92dcdbea2023c5deb32ed65c925f6a40edf54725fbc8049a179ffa9d526b2fd1",
      "vout": 1,
      "scriptSig": {
        "asm": "",
        "hex": ""
      },
      "txinwitness": [
        "360986c495077218089e1700cdec91a67c65ca07ae6297a85cdfe1cf97208ca9f432eaff2ad50942d2c35de4608670c1a7e62a2be939125acfacefdad38970cda53bc6166eb2304b6eb375870108427545db7e186c51300853fb5fea8169e5ccdf0fe31bae1bba5194f3c80a99c77d2f95d02c4b2b8659e3dc3554bffa1b8637d0d83e898ae632e0a43e725b46b7f8eda9ead1216ba5737b563a36f0dda5992a653b616d66e5e8fdf7904caf4721210d88d1edba94ce2160a1b8b7bc6dbf13e52c61bc0a4311352b81ff4d6e779ad4696c03ee3bef81c5a0c137881194a238e569414f6082d4d8aea262dae2743dbb0a52a319d3624b6c3ef28dba62a50522cb6aaf1a6cfea11c5198d4672139c667dd996390b1e8b9ff412fe0c4236dbf7d380e1f0a485b6573ae2cc5d9b2473e1d9dda1eacc32437bb1e532b94c2987350a24fb536e95c78c87e7817a2c8ace0a492376b1eca58764d35194eed923ffc4abdee6e51e6a435c5c9bd6394329cbdc82b378e19caa13be8620989e4c9c0ed1b463e630478bc247829a2be5fa1fc52dd2f89a47ede6b2fd0ba81236aeb702be4261e39215d42d1adb1a33a4d405693c8fffbf286c3a01e798b09966c55edf1558342d19a4f26a7959175f7fdbe807431382fb36709cb2eebc61d4f8f05fdfc85fe0d0266a27b1356daea5d57206ae044129ec69845dbb076227fd3ab8f98243e607f2844e4c2495dd264ff5dd61e0825978280ac0736f27211fd4fb01409d6114b782e3cd20079333383deeecd8abc66b2a77d68fd33071623dabb2319621becb6e86b36b69f840468510f6a881a10b4db584d2b53e9861f22e034289aa80cec62460b48dd42a1f2f25a5fe0bb2018549001b6921d1d9b9e8bd36092440aab06b2b1d0611ea4f6f17a8cd037f47018abd4b935f9e9997baaad6a090235aab80490be73eedebda7acf2384083edbddd2b1c38d3153a0286beabd713c5b563d2cca78a4e977c29f372f16a77a7f0f5190b68a1fe2693dfea2882eede79b87e480d9fc9a225a67d0a3394d9d9da14492a9d705c8438c7e774006e4b5fbfd4e5d6f88a64f560c7d7f3342caaa4dcb617d94bcbf17bccfdbc6477b62d2ce27fa36571ac9f80839a768b86116a7623d3ec92d90473ee8569998bfcbd06007703221d00cf9106a7a2a31aab1009fd99e7692670d7b0b03eaa2feacf52d51e09662c064577f820a84edadaba31932d9cbea59c0d34145d8dcfe88f453976ad073b72b27d27693aae2e3cff2b172f6b5ed94b800335475041b18dda99296a64070236eb1f9597432f0ce664800d5eff3543f1149ff1a80dc1dcb1103a0bf1a3572e6f120ca0e26411a07c737680c36a3995a198df521453bc0c00ec2b5bd8a11576f65d4bab56f0b26d01c04dceb5a152b7b755122c67e8ef59c510c7f5f2794a60f1d2c008342fff665fc3f2ec6aa447e105e8c4c255e1220c217ceac63574c294204bb8f4f9b08c26652cf20cb0a1d416fbb7a05c66c57e116009294fbe9bb5616f4b61c23204a2766cf259a421c3b46fc8fb98904a7c616316165e7c1fdb3818c0ffc016f6350d359cdceb7d47dc243b6afa99e766cace0fd67ae82dc5b7a84a53e49a471da62b15180b605d7332ca1dc0cad8c045893ea3bc9862b19758f0ba23b0bebdf8f5f76cedc937a0a23e70f35a060ef9782ecbc4b64ce42d3cde068b4d09e3b6254fc965326eb4139ddb9bfa69af979fd70612db8206427662fa5e11f7423e8373bde34ef2cb5c58e26ff6f4dbc0e7c4552dc57942c0a89c4572250d554e5988626dfe6561467aaffa2741faae2ac414a98a18ea6f29855d6fabb53742d3584ccca42eca29cba6128ebd012484bbdea0cc2c506e619346acd2fb173a7f69b0a4baf3f220fd069ee8c4e17a8a875a0981f1103bb855ba539b76d8b15667250bdaeb5723b4349e36deba96ee6012739c94987193a8f684df348f09d71d381700a4c818aae055cbce574ed41c8dda603e3474fcf3bf8d266c1b442895a146bdcbf36505c3b885138145e2dc4159026f12d5300ca26af7bd344b4cc1a05f87de376192252ed79182edc746259388c390f2714a96ad1b168c038efefb994a71167fd48afc24cd91ef099942f2e55e6ad268e766a438feb80a0eedd8b5e6ffa2c4c51803723c2a2b112f080bc73edeead3b8254778af0fe39d7df323fdd3dae1dab6fd2c1edb29c24b71c6b3c33f6862ba919ffbef6cabae5624ccd571bccd40461b79e3d547c1addc5d501bbeacc1659baf6d5e6b49912987ba06d8c8725b4c9b737a8b967a8360ee527f7c40d964a8dd01a625e7125afba6afe1014147ebcd7c3e1fda6ec0b6dae8b861c9f00378e47884a754a3839e03b03bfde7feeb2bef94a901d0d942e194a82d9427b9eff7428b7ef210bf40da8770139ec7541c097735fc573ddb2ee91fd331d2cd13c7b2b0c6b1293645341cb1aef4349ba16b0ec7ccacacef7c2303e4fa36e297396198eae3c4483f28a96e81e7e6e856811228ca124be49d9f8a4555f83820f36979d2d2b532fa01506ab082c50ae7ece78a918005b9261818b25eecb4daaee5e0b0008ac37eb780ac6d0b9074ed2335b859cdfb62ca1bafe911a45bc89d438eac5fa7e935d20cbe3d808065f08c3fd7263680b411454da654a979519ae8c5e5a1d50153ccce54feed160b053861afb622ef4134c31d03df886215301aa8c2b1f7154be1ed1e31f3c818c73329b723af1481e57f577afef9b06008babfd78d2dcd975fe6c37d2f8204c37d569052dd5e44935265a085aae4c6d2e5238bc11fdfde506e06e55f17a6ffc4bcf58a7e0eecace48e8b31b5783ec311ab9754eba28ea38e89404fb7c391af6155dc04fbbda937db328f4bd7728d335e83565e36c8d0c6ca0664ea3463651eaf70cd58f5a4671abe67da0e1efd3df20d411cd0b9322daee4ed6b2e13a18c3c95f130d73f7d868d42abfed4c524f9f4a2633bd5805dc4a5f09f255c2a0fb0c924fd3a275e2e4f4233e910457093c6a8a7f6335a826ddf0b6e0ce148166a5f5df247cb8f15fdfe54db489e1fc447ee6b619559fa98f6ea79dbc7f498462022b3907b001deb2e0be6289bfc76dda171aed998109cd2580df11734e8c0cfdfc359b5467e3760311739a3fe35ecd21388ca6f18465e3665fdaca88af0356e7054f18e9957b3eda06d69562a5a83e975fd996861aec6d0b95365d09c38c25cf29fd517e8129056ff6c919baee3bcbc76623041ea745cd524991f5abd21ac14d22b0853127d7c2c2014954bbed0aedaff1522253365677a8690b8cee80b15394266717e808b919295979aa3a8e8fd03041343465056606f7d99b4e3e5ef03080b10272a303b495b5c62656e7378797c7d858eadb1d1e6ea0000000000000000000c1e2d4701",
        "0097a9a48b5f375169887d36e62d3f39b0cfd8b36e5bc2347aa586c0af3eeed8cc727949f2ee2cc202d034fb2068e05ee4b516602f5a689f14b748b01f85a7b61622ab930bc89d937b24cd8befd63dc516de7eb090a6b2732a66261f3275c03dc13ff73986715369a5b90756c67dae9d1e15082cfda48797cab71cfb995698aa54545f3eb8b3c17e862960f5bffb08235e906687211f0570161a9f5caafbbfaa312d0e0284950c4368a188bc8bd634498f3820703a4c3f6e86de0dec358bf09e97d713f87d511f6f502793238d04af7504b8f8c3883f755f736515553348c49b993d819f140042f0787d29e8bcca50594f5da067eb690de322c624e9855f6931476d5c8a08d50e043712ccdb5355e41b785282d356d4ec1edb3e2c805cd74a10540182d3b34c6063e89a339fef7a8668bccb74a6d79ea89208c297623497f7a3820a78c02727565666771404acd287e6fe0f8fd6f84390aba78f764177c53e0d6d6dc16c82baea5e0ef803b89e86bc53cbdf93569ad846915548d6c2074ae2a014d474714f8efc45b3f3799241ea0fb641cec76e2f840825e7abcea3b7b3aaca64b2eaa7fc4849ef921fad105e8a2c81c65647594d4747088d9b74e96003d777b3047f5f998082956d15c22e87bb0eae8e28218982596f4f6cb10fe14ebe3359a487eaec72d37b72a90b1f7c66389456748bdeace824663de2c18cac340d065d42543dbbd2132be09b466d9dfc5965a0480931ed4e1a29667d7452c553dbaa6dc9781de0779a11dbd2a603da63d4eb50435543928518ccb3aac4c82f3b53375535dee108b8e715390825928268e5ad8d9ccc4573d09a90f3b4c9e2eb91aa757b7e2e37f086fda1f74b79db7ef1a2cbd400715e4ec1146ebe993c7b8285e3c61a0be5118cb66681ff15f6c6bcd59bc3e8c3d140f576b6c6afd06635a962ad1f1efb6243c79fd138a6a24b33e701e94ce71c1cc9b086501bfc90a2153eff71c23907384cc38103fae604bc3b81132608b324a3fa95d44adea5a3b09fcc6452712dab550da78b5cd76590e16b8bc971c7138f1bb71ed3443a50930e5489aa134cf4194089ffc4dd612d16caf7bb846b3e65567c74c1b38f010af704cef2a7b6ec67867cbacb3986dbdcb88cfc3ef47fbf77f5bce0ae7ec1e21a14a7b17b5d5906193c736175ec9770d539d598e0fb45630cca01a5237af4e23f51b5dcdc04736e5ef99c555f71a67f78d81888cee355602b35fda1f55ace2b0ba967544ab91865aa93e74f14f31cd637b26317cb09c1a4fc90f19ef97d893b9fc0dc2b14e32b7d33e3b1f50ff139f893389fc609e3dc062e53569b01057cd07fb4c734b2897f35cdf67d54a9531cbbfec248581cbf695a4dad4f93b39e3b287c6500af138a277049d58222b3d7b0ec503636e10a3472e3f1def18071884726141fdd70dea2b0bcbb08261a804e49c1b5851b92d3ba2570f34dcd28b1bfa3a35ea3c86188f95c79a58746c1e4bfbfb9b32b8faeab26e0ea4b635a60a618e03d66d83d4c436e9f001a57bb31a93fcff4e94915dea406da65489db0cde53033d06249408edd9cfa5311d59e1014e9dbe73dcd71fc2cfc017d27153a715140714cf6479691600d727a3a2924af77841d381ea54143c9d08871f143f397ee25e817c22f05743437ade654c05dee1ea6bbd4ee12de25e34f56a53f81554e3d1917ff30038372c41db09c83091f956cfeb5ba260d32b03df6bbdfff4420998fcf7aa95e93539c7e44fcf72e503a033a50a83d323120b248c0cfada38be30e75ad33ba9bcf464c9117ac6939961d65f6cb76de7b71ff2c0c6bbe0663780ea5f8f17de28a029f81209918c1d032"
      ],
      "sequence": 4294967294
    }
  ],
  "vout": [
    {
      "value": 1.0,
      "n": 0,
      "scriptPubKey": {
        "asm": "OP_RETURN b94633c4ac3193431fd80ca61c113ea5814b3575defdae6af06ac2062130ecb1 45a758caad1987fdea7abc5f7408e0f073b749671238837cab6896371e4415f1658778ea8d39a7ddca5a9c7f5428c0d0539769473218a35c8b48b6173e6435d105e7188aed59c7bdaa3afc1f3448a0b033f709275278c33ceb28d6775e0455b125c738aacd79e79d8a1adc3f1468809013d729077258e31ccb08f6577e247591c527d84a2d99077d6afa3cdff4886070f337c9e792b803fc2be816b79ec49571e507f86a0db9275d4ada1cffd4a84050d317e9c7b29823dc0bc83697bee4b5518567980a6dd9473d2aba7c9fb4c82030b37789a7d2f843bc6ba856f7de84d531a547b82a4df9671d0a9a5cbf94e800109357a987f2d8639c4b8876d7fea4f51145a758caad1987fdea7abc5f7408e0f073b749671238837cab6896371e4415f1658778ea8d39a7ddca5a9c7f5428c0d0539769473218a35c8b48b6173e6435d105e7188aed59c7bdaa3afc1f3448a0b033f709275278c33ceb28d6775e0455b125c738aacd79e79d8a1adc3f1468809013d729077258e31ccb08f6577e247591c527d84a2d99077d6afa3cdff4886070f337c9e792b803fc2be816b79ec49571e507f86a0db9275d4ada1cffd4a84050d317e9c7b29823dc0bc83697bee4b5518567980a6dd9473d2aba7c9fb4c82030b37789a7d2f843bc6ba856f7de84d531a547b82a4df9671d0a9a5cbf94e800109357a987f2d8639c4b8876d7fea4f51145a758caad1987fdea7abc5f7408e0f073b749671238837cab6896371e4415f1658778ea8d39a7ddca5a9c7f5428c0d0539769473218a35c8b48b6173e6435d105e7188aed59c7bdaa3afc1f3448a0b033f709275278c33ceb28d6775e0455b125c738aacd79e79d8a1adc3f1468809013d729077258e31ccb08f6577e247591c527d84a2d99077d6afa3cdff4886070f337c9e792b803fc2be816b79ec49571e507f86a0db9275d4ada1cffd4a84050d317e9c7b29823dc0bc83697bee4b5518567980a6dd9473d2aba7c9fb4c82030b37789a7d2f843bc6ba856f7de84d531a547b82a4df9671d0a9a5cbf94e800109357a987f2d8639c4b8876d7fea4f51145a758caad1987fdea7abc5f7408e0f073b749671238837cab6896371e4415f1658778ea8d39a7ddca5a9c7f5428c0d0539769473218a35c8b48b6173e6435d105e7188aed59c7bdaa3afc1f3448a0b033f709275278c33ceb28d6775e0455b125c738aacd79e79d8a1adc3f1468809013d729077258e31ccb08f6577e247591c527d84a2d99077d6afa3cdff4886070f337c9e792b803fc2be816b79ec49571e507f86a0db9275d4ada1cffd4a84050d317e9c7b29823dc0bc83697bee4b5518567980a6dd9473d2aba7c9fb4c82030b37789a7d2f843bc6ba856f7de84d531a547b82a4df9671d0a9a5cbf94e800109357a987f2d8639c4b8876d7fea4f51145a758caad1987fdea7abc5f7408e0f073b749671238837cab6896371e4415f1658778ea8d39a7ddca5a9c7f5428c0d0539769473218a35c8b48b6173e6435d105e7188aed59c7bdaa3afc1f3448a0b033f709275278c33ceb28d6775e0455b125c738aacd79e79d8a1adc3f1468809013d729077258e31ccb08f6577e247591c527d84a2d99077d6afa3cdff48860705295e54ef9db4891cb02972f7949d1473cf1c5147b77af922f519512101ad238",
        "hex": "6a20b94633c4ac3193431fd80ca61c113ea5814b3575defdae6af06ac2062130ecb14db00445a758caad1987fdea7abc5f7408e0f073b749671238837cab6896371e4415f1658778ea8d39a7ddca5a9c7f5428c0d0539769473218a35c8b48b6173e6435d105e7188aed59c7bdaa3afc1f3448a0b033f709275278c33ceb28d6775e0455b125c738aacd79e79d8a1adc3f1468809013d729077258e31ccb08f6577e247591c527d84a2d99077d6afa3cdff4886070f337c9e792b803fc2be816b79ec49571e507f86a0db9275d4ada1cffd4a84050d317e9c7b29823dc0bc83697bee4b5518567980a6dd9473d2aba7c9fb4c82030b37789a7d2f843bc6ba856f7de84d531a547b82a4df9671d0a9a5cbf94e800109357a987f2d8639c4b8876d7fea4f51145a758caad1987fdea7abc5f7408e0f073b749671238837cab6896371e4415f1658778ea8d39a7ddca5a9c7f5428c0d0539769473218a35c8b48b6173e6435d105e7188aed59c7bdaa3afc1f3448a0b033f709275278c33ceb28d6775e0455b125c738aacd79e79d8a1adc3f1468809013d729077258e31ccb08f6577e247591c527d84a2d99077d6afa3cdff4886070f337c9e792b803fc2be816b79ec49571e507f86a0db9275d4ada1cffd4a84050d317e9c7b29823dc0bc83697bee4b5518567980a6dd9473d2aba7c9fb4c82030b37789a7d2f843bc6ba856f7de84d531a547b82a4df9671d0a9a5cbf94e800109357a987f2d8639c4b8876d7fea4f51145a758caad1987fdea7abc5f7408e0f073b749671238837cab6896371e4415f1658778ea8d39a7ddca5a9c7f5428c0d0539769473218a35c8b48b6173e6435d105e7188aed59c7bdaa3afc1f3448a0b033f709275278c33ceb28d6775e0455b125c738aacd79e79d8a1adc3f1468809013d729077258e31ccb08f6577e247591c527d84a2d99077d6afa3cdff4886070f337c9e792b803fc2be816b79ec49571e507f86a0db9275d4ada1cffd4a84050d317e9c7b29823dc0bc83697bee4b5518567980a6dd9473d2aba7c9fb4c82030b37789a7d2f843bc6ba856f7de84d531a547b82a4df9671d0a9a5cbf94e800109357a987f2d8639c4b8876d7fea4f51145a758caad1987fdea7abc5f7408e0f073b749671238837cab6896371e4415f1658778ea8d39a7ddca5a9c7f5428c0d0539769473218a35c8b48b6173e6435d105e7188aed59c7bdaa3afc1f3448a0b033f709275278c33ceb28d6775e0455b125c738aacd79e79d8a1adc3f1468809013d729077258e31ccb08f6577e247591c527d84a2d99077d6afa3cdff4886070f337c9e792b803fc2be816b79ec49571e507f86a0db9275d4ada1cffd4a84050d317e9c7b29823dc0bc83697bee4b5518567980a6dd9473d2aba7c9fb4c82030b37789a7d2f843bc6ba856f7de84d531a547b82a4df9671d0a9a5cbf94e800109357a987f2d8639c4b8876d7fea4f51145a758caad1987fdea7abc5f7408e0f073b749671238837cab6896371e4415f1658778ea8d39a7ddca5a9c7f5428c0d0539769473218a35c8b48b6173e6435d105e7188aed59c7bdaa3afc1f3448a0b033f709275278c33ceb28d6775e0455b125c738aacd79e79d8a1adc3f1468809013d729077258e31ccb08f6577e247591c527d84a2d99077d6afa3cdff48860705295e54ef9db4891cb02972f7949d1473cf1c5147b77af922f519512101ad238",
        "type": "nulldata"
      }
    },
    {
      "value": 499975.5944,
      "n": 1,
      "scriptPubKey": {
        "asm": "1 d632ee837208e07cca91ae4eef4dcc23b0453f1ba44d41e5fa53b001e7c0eadb",
        "hex": "5120d632ee837208e07cca91ae4eef4dcc23b0453f1ba44d41e5fa53b001e7c0eadb",
        "reqSigs": 1,
        "type": "witness_v1_scripthash",
        "addresses": [
          "3QJmnh"
        ]
      }
    }
  ],
  "blockhash": "2c44072194b49e49486c87ae6b37abdd6c2c23e2c7b477f70371a1b5276080d1",
  "confirmations": 1,
  "time": 1764179865,
  "blocktime": 1764179865
}