{
  "hex": "0100000000010126c1bb8013dae93dcc32b19b80b7702016068ea7b0c947c76f4802e4df3fe64d0000000000feffffff0200e1f50500000000fdd5046a205a3c1fcad1dd096712bd6fbc98c2b56f96e5ee4699ca1e5cf0373307f9b90f424db0049ac18147c1a486329622a03feb95dcdda6884225f3352891ad1533f6387e50fbbae1a167e184a612b602801fcbb5fcfd86a86205d31508b18d3513d6185e70dbda81c10781e4c672d662e07fabd59c9de6c80265b37568d1ed5573b6783e10bbfaa1e127a1c4e652f642c05f8bf5bcbdc6e82245935548f1cd755396581e309b1a4101c7412406b216a220bf6b155c5d2608c2a573b5a8112d95b376b8fed07b3a6121e7610426923682009f4b357c7d0628e285539588310db5935698def05b5a014187016446f256e260ff2b551c1d664882e533f5e8516dd5f336f8be903b7a2161a7214466d276c240df0b753c3d4668a2c513d5c8714df5d316d89eb01b9ac18147c1a486329622a03feb95dcdda6884225f3352891ad1533f6387e50fbbae1a167e184a612b602801fcbb5fcfd86a86205d31508b18d3513d6185e70dbda81c10781e4c672d662e07fabd59c9de6c80265b37568d1ed5573b6783e10bbfaa1e127a1c4e652f642c05f8bf5bcbdc6e82245935548f1cd755396581e309b1a4101c7412406b216a220bf6b155c5d2608c2a573b5a8112d95b376b8fed07b3a6121e7610426923682009f4b357c7d0628e285539588310db5935698def05b5a014187016446f256e260ff2b551c1d664882e533f5e8516dd5f336f8be903b7a2161a7214466d276c240df0b753c3d4668a2c513d5c8714df5d316d89eb01b9ac18147c1a486329622a03feb95dcdda6884225f3352891ad1533f6387e50fbbae1a167e184a612b602801fcbb5fcfd86a86205d31508b18d3513d6185e70dbda81c10781e4c672d662e07fabd59c9de6c80265b37568d1ed5573b6783e10bbfaa1e127a1c4e652f642c05f8bf5bcbdc6e82245935548f1cd755396581e309b1a4101c7412406b216a220bf6b155c5d2608c2a573b5a8112d95b376b8fed07b3a6121e7610426923682009f4b357c7d0628e285539588310db5935698def05b5a014187016446f256e260ff2b551c1d664882e533f5e8516dd5f336f8be903b7a2161a7214466d276c240df0b753c3d4668a2c513d5c8714df5d316d89eb01b9ac18147c1a486329622a03feb95dcdda6884225f3352891ad1533f6387e50fbbae1a167e184a612b602801fcbb5fcfd86a86205d31508b18d3513d6185e70dbda81c10781e4c672d662e07fabd59c9de6c80265b37568d1ed5573b6783e10bbfaa1e127a1c4e652f642c05f8bf5bcbdc6e82245935548f1cd755396581e309b1a4101c7412406b216a220bf6b155c5d2608c2a573b5a8112d95b376b8fed07b3a6121e7610426923682009f4b357c7d0628e285539588310db5935698def05b5a014187016446f256e260ff2b551c1d664882e533f5e8516dd5f336f8be903b7a2161a7214466d276c240df0b753c3d4668a2c513d5c8714df5d316d89eb01b9ac18147c1a486329622a03feb95dcdda6884225f3352891ad1533f6387e50fbbae1a167e184a612b602801fcbb5fcfd86a86205d31508b18d3513d6185e70dbda81c10781e4c672d662e07fabd59c9de6c80265b37568d1ed5573b6783e10bbfaa1e127a1c4e652f642c05f8bf5bcbdc6e82245935548f1cd755396581e309b1a4101c7412406b216a220bf6b155c5d7ba06aae09277890341f9b2352ce057ef0ab8ad5fc96369f8df839f076580445d02296e4782d00002251206438e1e53d46b802684059117df7ab6330e7f7d2ffa503658e26039f040cbe9602fd7509ad9f667fe6cfad4c4d02eb19e89e0cba97d51db5fa0070c2c3e8c84597f3a5323aefc3b651aa77fe06f3133105c85855a85db27a807347428f9749b0b33c5097c681516a411ffadd9ae9ef2d412ea811e9331bd65562ac4e3d3d2b943a51bee7e49dbcdb646e06143f12f403905d8ceb5dec77b9a152f2c2cb216ea19568a0d7c58d45ad4237a495b8c6a4083f6fe3cb46b55d070c3ade28815a11b0aa6cdc825c2a805b574096363f6952c59bfa5e6701e0d48547f25c8bd5cc643bc820304b457615247110da5c25a2b937ae6686d2ca0a964c4abbf7d979254f75e5cf631ea19ebf1373798067b0b37f97511b3cd9f5cb38496b997ed5e4c14b3a416170eb27281c3c1db0e94426a64ef59ddda9c6a445575c86ec4e1f6ac12d289f434f9030b35d43abf37d72852de7a7fcb7c26a5208aaaa78f9ac8f8979733591ab8916a20a62a302c8c23b1422cdc2cbdf62d183b24a2696b49018e6393c340855897404e79ee1e4227be8f3b4a35aa9d57e7ea4958d1d2066b7cc2a78c3c88efc67efb3ba2513c03be421cd2ead7e1f767a386514c2270a7325a62146c7d71421daa274f9801e9b045e210d275c904c32b7358bb67e708d922785196809f3ac62d20c5ac09209bdf8393c9ef6d0e41dbfac1a2cb80176096190f14407e5be56e7de291d50789ff1dbb610ecdf2005468c984f2e74075f02d9e0c7547794f7d7a6459acb5eaab740b1f113069e584e438de53c0ff54897d957e88b9afd6d1cf2fa62eabadc2b5d8c5dbc78299440e9bcaf3ec1c99a088888f872dd3b46eef423bc851fa1321ca303614f2c12c890c8c101796b93fa9e0cf3369e6726d38fb6b40c3bde4140139a1b5f3f345caf262ac04e0ee3dec3ee6bf2d93a4198135e8a6e0fdcaea0e2445798f20412efe04571392c81e5e72209e38c5e227962bc1c141bbf9f929aa09f636f9d1ac015b978011ffbae39f042784b3d6b3e3a342db76f9d698f31a88baded673dbd7554878dc1e49e9244568ef51172065ba021de682e70cf40a8df5dafd2eaa0418619e109f74f601cab222db4b319d088bc41e12b0094b7a1c559b8649ccd399e8b2476729e0bb55ce948e398283229fb47592590a291a396b043950bce3332090884e205a89c62c3f86cffe4ce465c7e848c722c0e2a1fa269079f6c1565c13ae851f35b05b65b364261ceaffb2378c007369dfe8d643f08638e3867521c1a1152a09fb49993fd4ba21c759e891fe21d244bd60f4cffcc6034dd46e4c72b0205f604707e12fd4fb25acef0154937759cb3ff68e0fae4257ef0ff2141989489af6c7bd8c9b5869590ba8db625e9594a5fd91dc61521112e66e56aa9ad9f4e1a6ef3d65899f9e68829cc23a5e61b36ecdd3e8b4c7abd5b8e03d683624dda2c1ca737d56a4383c19de8271d27c884dea96f5322b52f662811113d332913d7e6dbc9ee270b270c353f9f757a0a6727ee593f37c091591d4869ae507df5e32e0dd73e6f1c9219fa8974930ff08ecd309e3291144cfa8d2c234827f378c730c3d8fa7d7351b222d915e2e4c7391a3757baeda64a388c281cee4169a3f49c1fd5cd5dba5b8a7f24d49b388e7f95a79444d7bb9c93abe5be789b737034821540693e620385638586289e9fdcd4793e0ed5a15a5a5b2fadbcb985e507da9c953dfd3aeb0d6db8f43a400052538c40df215c3afefe14585c7fdce690e4ac2833ab675c9ff2f2e2c979b8072ccb6807f249eb2668e71a14cf5f6c07a527baf7836e6b4fa95ad12df859cabea0e02d76e71645bb12c5088b6268ecd9aa94b7c55097c9edbc0452c01a9b68414e40e177f4e582ec1ace52a7cb8e609e55a24e5802cd3b5344ce6512b6583b4652fc7bb733443f41e0eeb168ab9547219726445a88110d8970b444b1141f025fa830ba1ce37a7809c1f2a7ab0422fd7a825f1f5771196f0e0a91487ee6252c94e8feb09870f717a4bec735c2de6b70bc805fdfd44a29b771e640871a334e488c0808aed43f683eee4902712dc877004e4719ff3521965979c529cba888d6b1e08e655dbb756bf5500ec34e328ff80971ebb4459067cb35e3b04666d0dc2fa66c8a838db59752414640a06dd36f9973907c9d3e6470ac0b67593eaf056c17ea24e393adec22fc6398bd71eae31c774de436928bba9dab26653b92221f0dc08a4b217b24be6605bdf414e244dbccbdd4744d2848a3cce18144fc4fa3d4ce2d02e673547271cb6787e6d9abaccd5e78d4eccf2195116b9125c7e4824fc1981a901ad4f341e3d52ec32983a9a53be32de190180159d2c719a88c90a0c6d6e062d79ee15893c43da7e6516b03f6e0d2c69d4a55816bb4ec62f4c95dbe6db59d83deaeb81e0a558f4cd3c7b61c8bb5dea5628a782ac3b1f6c75aca77c8171d4cda2ec0bb09791a61120436cab9d79922aee27b11d0d6d453270a1e7a443f03a19076992ea609ea7d35d21ce97296643049cfb3e2b9fa9b16f042af62b2b52f396d962fbb5a1d45ba182e79ab049932608984c45006bd214daf1b394719755183bd8cea2027eb41a27705eeb25b6e174fcf448714535c5897e8aa85fcebb95f1b0e15036ec40c4ab1e9078939f25bd26c33c7e0ae334d239b40089f9a7edbff4c3b7455fad7e215b730e83879d8dea1bd3b29940b7a4b4cf02ee62f2aa1cf94f044a8f7d126a2955f89b8fd654898915269b21818d64ac552c9ed109c36c226830457cb0f3678cee6d30d5acbe1e732b61cdf570fae110734221312f2dc1c43483f3722de78fd3927e076d1853eb2bfd9b599c96b1b703790ed0a2e63a453c8ad0eabbcde7f980856479a6d468d013615935b9097c0dc1fd1a447cf79d702638befdf05829d579d001591140ec81dc3737200db5c7a23738d35a1bb39c1cb0150ed5e35b4d80905333acbefcd694f234405c0d020e9c5644133195f707309d567d06b6465c17ffd47fa3ba79ba8718c6f6ec787e9763f69104c52f2006b66a8d41ba9b3baf4fe2e117a3d0368ab740c7d7ff0d441fc9deca8a3a1dbf22bbd3196a87b03328b57800868e8d311c469e45494bf84cd2eb631f4c3f6bde93ae0fe93841901917271024e21b7a01bd22a323105e9440958bfa002dd75c0ddaba88a659a0d82324b195fed3b7c5b7a6d163e7403000291102bf3ee80e7b76c67c90ecfe5f81a9ad8c992704aba77e8cbef7ad4187a8a8761a29789b6e538aeda9781997148b5da95769293282bf6e7ae0b317c93f5fa6ec4679da1b9b30219133ebdf795286b65bb3dda13c3e8ac49ce09f924089615afe6301525274468718d8e93a7b9bbd1d5def2fc081c5e90b8c1cff1f22733363c3e4043567a7f8b9ab3d9e6f90c252f333a3c6a737e8690b4bcc3c8d8d9000000000000000000000000000000000000000000111a2a3b01fd210500e6290df505ec67ec7f30f9c7ac022f7b24626346368a63c4cbb76684b538400cd2e92416a0f2459c071ce167fc90a28b96a41da9defc48a140df2c19c14accba8e72e1ec43c2037a3f2400992939ea2eaa593528e160f5e1b25a9c03d90ee7d60595c6cf3d8f544e48160298c4c22a510ac96edc2380b9122ba3d894c2d0dd73b893e335a9d5dfdd60c4efcec76323d6472ce3c93df2cd45ca78c6297412c0305bd9efae7554568db3f221e2a97f4502e6dc432dbf16f8d5bb57d83352f28b24b7248404d3e21831e40cbe36e9c1217146ce437c1435028cfa76c7cec4f76ac8526d24fdfdda93a10c2b1d864bfd80dba7ffcd19403ed83dabe2a23da3d98b61331596b58d20f22e0e5ace8d11b4aa320aefb75adde0eeac4c79d166e3bcbc52420a6c21cbc49523ac74367fbf2923dae18014612ce6ec451c99e10dbd406b9daa1950f3ce82c7b0c67092502a2d3e779b3211e0bb51ac7e862f5ef58bd57ea58f774562a85fb6a314e287d5a1a15b1a15d43ef820e2d07c6cfa575f8d660ebf9a441bab198cdd4dfa9e08b2272831927063a06ed7431f36c94410f8c190de7f188138a1092fc2a25308c2444d7ae73a709a5877524186f041a127d6263b8e071fd5a18e3fcd5490b9d6941d18215be5900f5a4a6cd60831dd6ce4a8a8bdae92e29a71ed64b7e426ef46c8a77e807f90c0c9407abe6d8a2302ebbcfb04d4fed3e0ffd758f0c2c0abbed891f746d216b573fed6599740fd20462999c3c94e608646879abbf3e0caefd7c70278b108ec420f5356f7b47f3ce5d2be23a9547e40259ff16fe82471811d5a209febfb95ecb10a6a7572ce1de7cb69b0a927bc45b4d251cca437f119d4a8239c369e814df267d36d10db2850fa4b0c3bb875484fe9e6f8acdf1bcb441da68196c4a7611259aa42fa7f5b2e5de3acab302a4f1a5e97c99ce0fc3a4b52bf3ce8a5bcfc3eb91c641baf10e6409d176bbe78d3aab17e22d55a9e4d4858bc6214030730365ce8c8a2a88d9c5e429a9a1a75544e41f29a9fc755e77b1d016af8408d4c7260b6c2dda0e7411bda8712bef3a05655ee4f353ae8fb2bb03bf3152e2a98827fe23b5aa35bcee9c5a35ce063b00f373dd83268f71d9bda4e1990b745ccb75524805f1facdc5110ac9008491b4fb62cc2682da0b9321f4b03206b65d51580a50b1daec2df7a61f6eb353d3762d1adfabe362d1d8d34a792ef1ae02b04cdf8065ca7fa556b92cbeec547ce45e00d5f349613241e66dcf8f68032429699895d8b332e739142c535a5ea557a02fb1147ca546f6235628a09f2f7078b0e1dab218fc7e724c0210760452ccc9bee656a8668240947d708ed0ba1dc8f336c7e6558430a5f6de53734d4377718a94e044e2c18bc33550a11b55667b2fdf71a317dfad7f689166b1631ec2c4eb1295a0f213d0b36a6bcfb62aa266e2257a23674bedb7378c7d9d4c0268c450242eb7cbc667096ace719298f6492d3a78c296a70fcfb2d9b5b63a35234f091407f5cebae398aad5126e840a156c8d40c690fe952becb4a43bc05ba4528466ad99518633b3c52ca1bcbac89e3a0f341511bef303f576fd3ce3048cb4dc7bd1870b90921bc4751ef05fcb7851bb1aefb9cfded1e18eff490375e1f5ed79e0b81b10a7044729c50ef77bc45ba959e4547774c085cbcc88b205f3b5aa23e3056ebec2d5ccaabef0f6152292a372fcf4ea0d4a1c591b9c562339e4c727256e0127c3a3bdb73b546c133d766de1abb809647e331385e2d0e839b7419fe612f88e88de20435788fcc514412d35a0fcc923d2e85dacd5f26ffc2cf9bc0ba3ca09ee945def7099a41d9346d2a2c0ebac57d74000000",
  "txid": "27d3b98df3d8b93b519cd0382e3054b6fe1b75232d2c4d6f5b964bf18a3ab958",
  "hash": "e8eded681c418aca9a23e0f07be73a9ed5ca1fcc17567cb31bef8b46a04be442",
  "size": 5085,
  "vsize": 2278,
  "version": 1,
  "locktime": 116,
  "vin": [
    {
      "txid": "4de63fdfe402486fc747c9b0a78e06162070b7809bb132cc3de9da1380bbc126",
      "vout": 0,
      "scriptSig": {
        "asm": "",
        "hex": ""
      },
      "txinwitness": [
        "ad9f667fe6cfad4c4d02eb19e89e0cba97d51db5fa0070c2c3e8c84597f3a5323aefc3b651aa77fe06f3133105c85855a85db27a807347428f9749b0b33c5097c681516a411ffadd9ae9ef2d412ea811e9331bd65562ac4e3d3d2b943a51bee7e49dbcdb646e06143f12f403905d8ceb5dec77b9a152f2c2cb216ea19568a0d7c58d45ad4237a495b8c6a4083f6fe3cb46b55d070c3ade28815a11b0aa6cdc825c2a805b574096363f6952c59bfa5e6701e0d48547f25c8bd5cc643bc820304b457615247110da5c25a2b937ae6686d2ca0a964c4abbf7d979254f75e5cf631ea19ebf1373798067b0b37f97511b3cd9f5cb38496b997ed5e4c14b3a416170eb27281c3c1db0e94426a64ef59ddda9c6a445575c86ec4e1f6ac12d289f434f9030b35d43abf37d72852de7a7fcb7c26a5208aaaa78f9ac8f8979733591ab8916a20a62a302c8c23b1422cdc2cbdf62d183b24a2696b49018e6393c340855897404e79ee1e4227be8f3b4a35aa9d57e7ea4958d1d2066b7cc2a78c3c88efc67efb3ba2513c03be421cd2ead7e1f767a386514c2270a7325a62146c7d71421daa274f9801e9b045e210d275c904c32b7358bb67e708d922785196809f3ac62d20c5ac09209bdf8393c9ef6d0e41dbfac1a2cb80176096190f14407e5be56e7de291d50789ff1dbb610ecdf2005468c984f2e74075f02d9e0c7547794f7d7a6459acb5eaab740b1f113069e584e438de53c0ff54897d957e88b9afd6d1cf2fa62eabadc2b5d8c5dbc78299440e9bcaf3ec1c99a088888f872dd3b46eef423bc851fa1321ca303614f2c12c890c8c101796b93fa9e0cf3369e6726d38fb6b40c3bde4140139a1b5f3f345caf262ac04e0ee3dec3ee6bf2d93a4198135e8a6e0fdcaea0e2445798f20412efe04571392c81e5e72209e38c5e227962bc1c141bbf9f929aa09f636f9d1ac015b978011ffbae39f042784b3d6b3e3a342db76f9d698f31a88baded673dbd7554878dc1e49e9244568ef51172065ba021de682e70cf40a8df5dafd2eaa0418619e109f74f601cab222db4b319d088bc41e12b0094b7a1c559b8649ccd399e8b2476729e0bb55ce948e398283229fb47592590a291a396b043950bce3332090884e205a89c62c3f86cffe4ce465c7e848c722c0e2a1fa269079f6c1565c13ae851f35b05b65b364261ceaffb2378c007369dfe8d643f08638e3867521c1a1152a09fb49993fd4ba21c759e891fe21d244bd60f4cffcc6034dd46e4c72b0205f604707e12fd4fb25acef0154937759cb3ff68e0fae4257ef0ff2141989489af6c7bd8c9b5869590ba8db625e9594a5fd91dc61521112e66e56aa9ad9f4e1a6ef3d65899f9e68829cc23a5e61b36ecdd3e8b4c7abd5b8e03d683624dda2c1ca737d56a4383c19de8271d27c884dea96f5322b52f662811113d332913d7e6dbc9ee270b270c353f9f757a0a6727ee593f37c091591d4869ae507df5e32e0dd73e6f1c9219fa8974930ff08ecd309e3291144cfa8d2c234827f378c730c3d8fa7d7351b222d915e2e4c7391a3757baeda64a388c281cee4169a3f49c1fd5cd5dba5b8a7f24d49b388e7f95a79444d7bb9c93abe5be789b737034821540693e620385638586289e9fdcd4793e0ed5a15a5a5b2fadbcb985e507da9c953dfd3aeb0d6db8f43a400052538c40df215c3afefe14585c7fdce690e4ac2833ab675c9ff2f2e2c979b8072ccb6807f249eb2668e71a14cf5f6c07a527baf7836e6b4fa95ad12df859cabea0e02d76e71645bb12c5088b6268ecd9aa94b7c55097c9edbc0452c01a9b68414e40e177f4e582ec1ace52a7cb8e609e55a24e5802cd3b5344ce6512b6583b4652fc7bb733443f41e0eeb168ab9547219726445a88110d8970b444b1141f025fa830ba1ce37a7809c1f2a7ab0422fd7a825f1f5771196f0e0a91487ee6252c94e8feb09870f717a4bec735c2de6b70bc805fdfd44a29b771e640871a334e488c0808aed43f683eee4902712dc877004e4719ff3521965979c529cba888d6b1e08e655dbb756bf5500ec34e328ff80971ebb4459067cb35e3b04666d0dc2fa66c8a838db59752414640a06dd36f9973907c9d3e6470ac0b67593eaf056c17ea24e393adec22fc6398bd71eae31c774de436928bba9dab26653b92221f0dc08a4b217b24be6605bdf414e244dbccbdd4744d2848a3cce18144fc4fa3d4ce2d02e673547271cb6787e6d9abaccd5e78d4eccf2195116b9125c7e4824fc1981a901ad4f341e3d52ec32983a9a53be32de190180159d2c719a88c90a0c6d6e062d79ee15893c43da7e6516b03f6e0d2c69d4a55816bb4ec62f4c95dbe6db59d83deaeb81e0a558f4cd3c7b61c8bb5dea5628a782ac3b1f6c75aca77c8171d4cda2ec0bb09791a61120436cab9d79922aee27b11d0d6d453270a1e7a443f03a19076992ea609ea7d35d21ce97296643049cfb3e2b9fa9b16f042af62b2b52f396d962fbb5a1d45ba182e79ab049932608984c45006bd214daf1b394719755183bd8cea2027eb41a27705eeb25b6e174fcf448714535c5897e8aa85fcebb95f1b0e15036ec40c4ab1e9078939f25bd26c33c7e0ae334d239b40089f9a7edbff4c3b7455fad7e215b730e83879d8dea1bd3b29940b7a4b4cf02ee62f2aa1cf94f044a8f7d126a2955f89b8fd654898915269b21818d64ac552c9ed109c36c226830457cb0f3678cee6d30d5acbe1e732b61cdf570fae110734221312f2dc1c43483f3722de78fd3927e076d1853eb2bfd9b599c96b1b703790ed0a2e63a453c8ad0eabbcde7f980856479a6d468d013615935b9097c0dc1fd1a447cf79d702638befdf05829d579d001591140ec81dc3737200db5c7a23738d35a1bb39c1cb0150ed5e35b4d80905333acbefcd694f234405c0d020e9c5644133195f707309d567d06b6465c17ffd47fa3ba79ba8718c6f6ec787e9763f69104c52f2006b66a8d41ba9b3baf4fe2e117a3d0368ab740c7d7ff0d441fc9deca8a3a1dbf22bbd3196a87b03328b57800868e8d311c469e45494bf84cd2eb631f4c3f6bde93ae0fe93841901917271024e21b7a01bd22a323105e9440958bfa002dd75c0ddaba88a659a0d82324b195fed3b7c5b7a6d163e7403000291102bf3ee80e7b76c67c90ecfe5f81a9ad8c992704aba77e8cbef7ad4187a8a8761a29789b6e538aeda9781997148b5da95769293282bf6e7ae0b317c93f5fa6ec4679da1b9b30219133ebdf795286b65bb3dda13c3e8ac49ce09f924089615afe6301525274468718d8e93a7b9bbd1d5def2fc081c5e90b8c1cff1f22733363c3e4043567a7f8b9ab3d9e6f90c252f333a3c6a737e8690b4bcc3c8d8d9000000000000000000000000000000000000000000111a2a3b01",
        "00e6290df505ec67ec7f30f9c7ac022f7b24626346368a63c4cbb76684b538400cd2e92416a0f2459c071ce167fc90a28b96a41da9defc48a140df2c19c14accba8e72e1ec43c2037a3f2400992939ea2eaa593528e160f5e1b25a9c03d90ee7d60595c6cf3d8f544e48160298c4c22a510ac96edc2380b9122ba3d894c2d0dd73b893e335a9d5dfdd60c4efcec76323d6472ce3c93df2cd45ca78c6297412c0305bd9efae7554568db3f221e2a97f4502e6dc432dbf16f8d5bb57d83352f28b24b7248404d3e21831e40cbe36e9c1217146ce437c1435028cfa76c7cec4f76ac8526d24fdfdda93a10c2b1d864bfd80dba7ffcd19403ed83dabe2a23da3d98b61331596b58d20f22e0e5ace8d11b4aa320aefb75adde0eeac4c79d166e3bcbc52420a6c21cbc49523ac74367fbf2923dae18014612ce6ec451c99e10dbd406b9daa1950f3ce82c7b0c67092502a2d3e779b3211e0bb51ac7e862f5ef58bd57ea58f774562a85fb6a314e287d5a1a15b1a15d43ef820e2d07c6cfa575f8d660ebf9a441bab198cdd4dfa9e08b2272831927063a06ed7431f36c94410f8c190de7f188138a1092fc2a25308c2444d7ae73a709a5877524186f041a127d6263b8e071fd5a18e3fcd5490b9d6941d18215be5900f5a4a6cd60831dd6ce4a8a8bdae92e29a71ed64b7e426ef46c8a77e807f90c0c9407abe6d8a2302ebbcfb04d4fed3e0ffd758f0c2c0abbed891f746d216b573fed6599740fd20462999c3c94e608646879abbf3e0caefd7c70278b108ec420f5356f7b47f3ce5d2be23a9547e40259ff16fe82471811d5a209febfb95ecb10a6a7572ce1de7cb69b0a927bc45b4d251cca437f119d4a8239c369e814df267d36d10db2850fa4b0c3bb875484fe9e6f8acdf1bcb441da68196c4a7611259aa42fa7f5b2e5de3acab302a4f1a5e97c99ce0fc3a4b52bf3ce8a5bcfc3eb91c641baf10e6409d176bbe78d3aab17e22d55a9e4d4858bc6214030730365ce8c8a2a88d9c5e429a9a1a75544e41f29a9fc755e77b1d016af8408d4c7260b6c2dda0e7411bda8712bef3a05655ee4f353ae8fb2bb03bf3152e2a98827fe23b5aa35bcee9c5a35ce063b00f373dd83268f71d9bda4e1990b745ccb75524805f1facdc5110ac9008491b4fb62cc2682da0b9321f4b03206b65d51580a50b1daec2df7a61f6eb353d3762d1adfabe362d1d8d34a792ef1ae02b04cdf8065ca7fa556b92cbeec547ce45e00d5f349613241e66dcf8f68032429699895d8b332e739142c535a5ea557a02fb1147ca546f6235628a09f2f7078b0e1dab218fc7e724c0210760452ccc9bee656a8668240947d708ed0ba1dc8f336c7e6558430a5f6de53734d4377718a94e044e2c18bc33550a11b55667b2fdf71a317dfad7f689166b1631ec2c4eb1295a0f213d0b36a6bcfb62aa266e2257a23674bedb7378c7d9d4c0268c450242eb7cbc667096ace719298f6492d3a78c296a70fcfb2d9b5b63a35234f091407f5cebae398aad5126e840a156c8d40c690fe952becb4a43bc05ba4528466ad99518633b3c52ca1bcbac89e3a0f341511bef303f576fd3ce3048cb4dc7bd1870b90921bc4751ef05fcb7851bb1aefb9cfded1e18eff490375e1f5ed79e0b81b10a7044729c50ef77bc45ba959e4547774c085cbcc88b205f3b5aa23e3056ebec2d5ccaabef0f6152292a372fcf4ea0d4a1c591b9c562339e4c727256e0127c3a3bdb73b546c133d766de1abb809647e331385e2d0e839b7419fe612f88e88de20435788fcc514412d35a0fcc923d2e85dacd5f26ffc2cf9bc0ba3ca09ee945def7099a41d9346d2a2c0ebac57d"
      ],
      "sequence": 4294967294
    }
  ],
  "vout": [
    {
      "value": 1.0,
      "n": 0,
      "scriptPubKey": {
        "asm": "OP_RETURN 5a3c1fcad1dd096712bd6fbc98c2b56f96e5ee4699ca1e5cf0373307f9b90f42 9ac18147c1a486329622a03feb95dcdda6884225f3352891ad1533f6387e50fbbae1a167e184a612b602801fcbb5fcfd86a86205d31508b18d3513d6185e70dbda81c10781e4c672d662e07fabd59c9de6c80265b37568d1ed5573b6783e10bbfaa1e127a1c4e652f642c05f8bf5bcbdc6e82245935548f1cd755396581e309b1a4101c7412406b216a220bf6b155c5d2608c2a573b5a8112d95b376b8fed07b3a6121e7610426923682009f4b357c7d0628e285539588310db5935698def05b5a014187016446f256e260ff2b551c1d664882e533f5e8516dd5f336f8be903b7a2161a7214466d276c240df0b753c3d4668a2c513d5c8714df5d316d89eb01b9ac18147c1a486329622a03feb95dcdda6884225f3352891ad1533f6387e50fbbae1a167e184a612b602801fcbb5fcfd86a86205d31508b18d3513d6185e70dbda81c10781e4c672d662e07fabd59c9de6c80265b37568d1ed5573b6783e10bbfaa1e127a1c4e652f642c05f8bf5bcbdc6e82245935548f1cd755396581e309b1a4101c7412406b216a220bf6b155c5d2608c2a573b5a8112d95b376b8fed07b3a6121e7610426923682009f4b357c7d0628e285539588310db5935698def05b5a014187016446f256e260ff2b551c1d664882e533f5e8516dd5f336f8be903b7a2161a7214466d276c240df0b753c3d4668a2c513d5c8714df5d316d89eb01b9ac18147c1a486329622a03feb95dcdda6884225f3352891ad1533f6387e50fbbae1a167e184a612b602801fcbb5fcfd86a86205d31508b18d3513d6185e70dbda81c10781e4c672d662e07fabd59c9de6c80265b37568d1ed5573b6783e10bbfaa1e127a1c4e652f642c05f8bf5bcbdc6e82245935548f1cd755396581e309b1a4101c7412406b216a220bf6b155c5d2608c2a573b5a8112d95b376b8fed07b3a6121e7610426923682009f4b357c7d0628e285539588310db5935698def05b5a014187016446f256e260ff2b551c1d664882e533f5e8516dd5f336f8be903b7a2161a7214466d276c240df0b753c3d4668a2c513d5c8714df5d316d89eb01b9ac18147c1a486329622a03feb95dcdda6884225f3352891ad1533f6387e50fbbae1a167e184a612b602801fcbb5fcfd86a86205d31508b18d3513d6185e70dbda81c10781e4c672d662e07fabd59c9de6c80265b37568d1ed5573b6783e10bbfaa1e127a1c4e652f642c05f8bf5bcbdc6e82245935548f1cd755396581e309b1a4101c7412406b216a220bf6b155c5d2608c2a573b5a8112d95b376b8fed07b3a6121e7610426923682009f4b357c7d0628e285539588310db5935698def05b5a014187016446f256e260ff2b551c1d664882e533f5e8516dd5f336f8be903b7a2161a7214466d276c240df0b753c3d4668a2c513d5c8714df5d316d89eb01b9ac18147c1a486329622a03feb95dcdda6884225f3352891ad1533f6387e50fbbae1a167e184a612b602801fcbb5fcfd86a86205d31508b18d3513d6185e70dbda81c10781e4c672d662e07fabd59c9de6c80265b37568d1ed5573b6783e10bbfaa1e127a1c4e652f642c05f8bf5bcbdc6e82245935548f1cd755396581e309b1a4101c7412406b216a220bf6b155c5d7ba06aae09277890341f9b2352ce057ef0ab8ad5fc96369f8df839f076580445",
        "hex": "6a205a3c1fcad1dd096712bd6fbc98c2b56f96e5ee4699ca1e5cf0373307f9b90f424db0049ac18147c1a486329622a03feb95dcdda6884225f3352891ad1533f6387e50fbbae1a167e184a612b602801fcbb5fcfd86a86205d31508b18d3513d6185e70dbda81c10781e4c672d662e07fabd59c9de6c80265b37568d1ed5573b6783e10bbfaa1e127a1c4e652f642c05f8bf5bcbdc6e82245935548f1cd755396581e309b1a4101c7412406b216a220bf6b155c5d2608c2a573b5a8112d95b376b8fed07b3a6121e7610426923682009f4b357c7d0628e285539588310db5935698def05b5a014187016446f256e260ff2b551c1d664882e533f5e8516dd5f336f8be903b7a2161a7214466d276c240df0b753c3d4668a2c513d5c8714df5d316d89eb01b9ac18147c1a486329622a03feb95dcdda6884225f3352891ad1533f6387e50fbbae1a167e184a612b602801fcbb5fcfd86a86205d31508b18d3513d6185e70dbda81c10781e4c672d662e07fabd59c9de6c80265b37568d1ed5573b6783e10bbfaa1e127a1c4e652f642c05f8bf5bcbdc6e82245935548f1cd755396581e309b1a4101c7412406b216a220bf6b155c5d2608c2a573b5a8112d95b376b8fed07b3a6121e7610426923682009f4b357c7d0628e285539588310db5935698def05b5a014187016446f256e260ff2b551c1d664882e533f5e8516dd5f336f8be903b7a2161a7214466d276c240df0b753c3d4668a2c513d5c8714df5d316d89eb01b9ac18147c1a486329622a03feb95dcdda6884225f3352891ad1533f6387e50fbbae1a167e184a612b602801fcbb5fcfd86a86205d31508b18d3513d6185e70dbda81c10781e4c672d662e07fabd59c9de6c80265b37568d1ed5573b6783e10bbfaa1e127a1c4e652f642c05f8bf5bcbdc6e82245935548f1cd755396581e309b1a4101c7412406b216a220bf6b155c5d2608c2a573b5a8112d95b376b8fed07b3a6121e7610426923682009f4b357c7d0628e285539588310db5935698def05b5a014187016446f256e260ff2b551c1d664882e533f5e8516dd5f336f8be903b7a2161a7214466d276c240df0b753c3d4668a2c513d5c8714df5d316d89eb01b9ac18147c1a486329622a03feb95dcdda6884225f3352891ad1533f6387e50fbbae1a167e184a612b602801fcbb5fcfd86a86205d31508b18d3513d6185e70dbda81c10781e4c672d662e07fabd59c9de6c80265b37568d1ed5573b6783e10bbfaa1e127a1c4e652f642c05f8bf5bcbdc6e82245935548f1cd755396581e309b1a4101c7412406b216a220bf6b155c5d2608c2a573b5a8112d95b376b8fed07b3a6121e7610426923682009f4b357c7d0628e285539588310db5935698def05b5a014187016446f256e260ff2b551c1d664882e533f5e8516dd5f336f8be903b7a2161a7214466d276c240df0b753c3d4668a2c513d5c8714df5d316d89eb01b9ac18147c1a486329622a03feb95dcdda6884225f3352891ad1533f6387e50fbbae1a167e184a612b602801fcbb5fcfd86a86205d31508b18d3513d6185e70dbda81c10781e4c672d662e07fabd59c9de6c80265b37568d1ed5573b6783e10bbfaa1e127a1c4e652f642c05f8bf5bcbdc6e82245935548f1cd755396581e309b1a4101c7412406b216a220bf6b155c5d7ba06aae09277890341f9b2352ce057ef0ab8ad5fc96369f8df839f076580445",
        "type": "nulldata"
      }
    },
    {
      "value": 499972.5437,
      "n": 1,
      "scriptPubKey": {
        "asm": "1 6438e1e53d46b802684059117df7ab6330e7f7d2ffa503658e26039f040cbe96",
        "hex": "51206438e1e53d46b802684059117df7ab6330e7f7d2ffa503658e26039f040cbe96",
        "reqSigs": 1,
        "type": "witness_v1_scripthash",
        "addresses": [
          "3QJmnh"
        ]
      }
    }
  ],
  "blockhash": "e6a4adf54726245f4c34283d217923918cb1557d6baaa77edf2bc72597605551",
  "confirmations": 1,
  "time": 1764181118,
  "blocktime": 1764181118
}