{
  "hex": "0100000000010198ea539ee97583e30895d542ede9fe7a7a96a03e8447abf3511c54842e1063fc0000000000feffffff0200e1f50500000000fdd5046a209f2feef6d9bf75bea444ad770750c0665e873cb64f4efcd9ff0d97813c9e9b294db004e50cab340dcb9da181fdcb7891cf73f05bb68785654387d8989e8c7733775b4ac52c8b142debbd81a1ddeb58b1ef53d07b96a7a54563a7f8b8beac5713577b6aa54ceb744d8bdde1c1bd8b38d18f33b01bf6c7c52503c798d8decc3773371b0a856ccb546dabfdc1e19dab18f1af13903bd6e7e50523e7b8f8feec1753173b2a658c2bb48d4b1d21017d4bf8114ff370db360705e5c30758181e0cf7b3f7dbca45ac0b94ad6b3d01215d6bd8316fd350fb162725c5e32778383e2cd793d7fbea25cc6bf4cd0b5d61413d0bb8510fb3309b764745a5834718585e4cb7f3b79b8a05ec4bd4ed2b7d41611d2b98712f9310bb56676585a36738787e6c97d397bbaae50cab340dcb9da181fdcb7891cf73f05bb68785654387d8989e8c7733775b4ac52c8b142debbd81a1ddeb58b1ef53d07b96a7a54563a7f8b8beac5713577b6aa54ceb744d8bdde1c1bd8b38d18f33b01bf6c7c52503c798d8decc3773371b0a856ccb546dabfdc1e19dab18f1af13903bd6e7e50523e7b8f8feec1753173b2a658c2bb48d4b1d21017d4bf8114ff370db360705e5c30758181e0cf7b3f7dbca45ac0b94ad6b3d01215d6bd8316fd350fb162725c5e32778383e2cd793d7fbea25cc6bf4cd0b5d61413d0bb8510fb3309b764745a5834718585e4cb7f3b79b8a05ec4bd4ed2b7d41611d2b98712f9310bb56676585a36738787e6c97d397bbaae50cab340dcb9da181fdcb7891cf73f05bb68785654387d8989e8c7733775b4ac52c8b142debbd81a1ddeb58b1ef53d07b96a7a54563a7f8b8beac5713577b6aa54ceb744d8bdde1c1bd8b38d18f33b01bf6c7c52503c798d8decc3773371b0a856ccb546dabfdc1e19dab18f1af13903bd6e7e50523e7b8f8feec1753173b2a658c2bb48d4b1d21017d4bf8114ff370db360705e5c30758181e0cf7b3f7dbca45ac0b94ad6b3d01215d6bd8316fd350fb162725c5e32778383e2cd793d7fbea25cc6bf4cd0b5d61413d0bb8510fb3309b764745a5834718585e4cb7f3b79b8a05ec4bd4ed2b7d41611d2b98712f9310bb56676585a36738787e6c97d397bbaae50cab340dcb9da181fdcb7891cf73f05bb68785654387d8989e8c7733775b4ac52c8b142debbd81a1ddeb58b1ef53d07b96a7a54563a7f8b8beac5713577b6aa54ceb744d8bdde1c1bd8b38d18f33b01bf6c7c52503c798d8decc3773371b0a856ccb546dabfdc1e19dab18f1af13903bd6e7e50523e7b8f8feec1753173b2a658c2bb48d4b1d21017d4bf8114ff370db360705e5c30758181e0cf7b3f7dbca45ac0b94ad6b3d01215d6bd8316fd350fb162725c5e32778383e2cd793d7fbea25cc6bf4cd0b5d61413d0bb8510fb3309b764745a5834718585e4cb7f3b79b8a05ec4bd4ed2b7d41611d2b98712f9310bb56676585a36738787e6c97d397bbaae50cab340dcb9da181fdcb7891cf73f05bb68785654387d8989e8c7733775b4ac52c8b142debbd81a1ddeb58b1ef53d07b96a7a54563a7f8b8beac5713577b6aa54ceb744d8bdde1c1bd8b38d18f33b01bf6c7c52503c798d8decc3773371b0a856ccb546dabfdc1e19dab18f1af13903bd6e7e50523e7b8f8feec1753173b2a658c2bb48d4b1d21017d4bf8114ff3709230ea2b38e4aa0ecc5975ddc96d6ec78f036ce7e3b6a25fd88fa9fa6d42f461e07828ba782d000022512003b23f3f915fc15b91e0a3fd0d7a2f2b72364097a4e7851b226851f828e7d3cb02fd7509703252bb72b3cac1cd317be9b84223c543d205582cddb7c8ef2c5b16e34a5db33ad97e5728890fef0886ef7676810ff63098fdaaa0384b144bd35fcc6d3b619ee4eadaeb4c459a182eb442139429d712517fc4eaf640b34b9a0cfdffedb98187f9435f8274ca872c18287a840f0815b8bbc6a9877cfb4a3aa38c0da6cc7787b733927dced3f0ce3435290139be2487314316f828ec7edc736a1e43e6531f555651432907e8e0109830d2545bee137417e64803de89ca64e0b8e17856cf8081b5e7941d9201d8f09d878857d20f932760e8887bd455315b36163c2f6b5ee8ee61f4cf6fcc77867a98f6fe2108dbe4f75cd5cce8ff9f3b9a4520d4eb50fb118ec658044d2fb11da017422757bb9aa9dc6acdebf1330c6d15295afae33a7e06401a682e048803caa05fe197a5550715da9fb500a4519e17b012f5d33296e6813136a6cb89619f6de84dd3b401f03c7f8a2d1692d83ceacfed7044f722abdc4e02cb72eebda800c91111174348475f91e969624d31f814fea0a86dd33ceb9189d462ac28f8c598b23744e208ef3a7609761a17ac73f44603734dd3e04405abd79fe192ee5d7fe33a6fa290f23c2b9b7322c0ca4ede842061f8320c1f4556b49e9fa63b1d3af57a7b74b059b15db728703f07e9d0cd4afe79f41f3ad01cfffaa27e3620e6316dc7b8999cb935802bdef7f065ceddaeec5407a19d8747691578a3a31ca1da55f7f1c4dda75eb773fa8ae108b9f20d0f81f23a1211baf2c288e1fdb040f30499a6beda1f7e2148d2a61f085a480f929b0d95855c145b33cc5ed3f35c4fd89cb53a7b1041f15c155ef8615cba4bb5ea1b42f2c414db611d679ea43727793628ca59d94b772a657649750c697cf99c3441cd0670e5f6b74e54f8a66b711899abb15069d1ace5f054f1a90ba6fe518f679ff9b079a46e87459b26ca00fe5867e9d671f16a55d772d8f5043536abed8b622f202fc6b45ab9ca59e41fc5ed65f25b160375d3903de17dafdb4763def6468c2896875ed2d7e54e5fd3a22ddc71cac1e37496f7ab746513404aa2fed4eafdef726a6baa8d139adf3894d2e1f29c7aab9fe46422309462cfaa605dfbd8284b0b76074875c06f9f0e109ecc1c698672582fab4060084ad8a14ba5d1c924eb0503072c3cbd5c087cf4fb38d3e720e0e0ba7596905db73195f0875e805589cb584bf4854c0b1e4e92b268e0fc4c981f9a8c8bf02c7df31c30f6d3e39103a56438ed871ead3ebea065452ab7409027568b11ff20e620add50a0638c4d62b1e2f04b11985d86e8384282dedbd65233a5fab5db4e7825ca1d7e3162d9ce63c5873a98fd6c398d8945070411fb6fafc6e359728fd4f0cd06f04ac0e369a2654e5605da58d92fe09383be9bc06b778b41946234b81562510ea931de4de68079fe1f3722e73ebafa62499512b6d060ca845833f17ae42bdab7f81c83130e76ba1c097a0dea0cfd1388f88a8d0274dbba552f355048eff496a2d1ff35efaa5453cf12879b3646cb1555e69a5a46a7b89a489e27dde305ab0b807fd3eac9a5e8e9d6cd0c0db6acfa77d8cae1af6e4cc09ceb83b19b829af27cd337a48fed6127c6cb27db11ed98f91beb3d31e89d32a85775e32c6b98e8e41629ce7a6f256422dba21225c513715ccad69ee46a9760db3a2e7074c1d230fb9a60ae13969264ad166aded17b06e5781bbd406a45457b8f31fcadd47c5af49f1a6b1801dc265c3ca854a1b9149ca06a4cacbc5c1e230e2b24c125d06f6ea6ec48bc7fd10f95843cc48fd73bc5ee7f928b5979a451ab21d142f3d721ded643fb4578bde5502e97bdfd3e68a573c22aee351bdaef5c42ee15eb6630c3017853c439dc2efc89d6d1423de07400ae5e485acf766bb11be92d2f0c847c2e9a9174639fc6e00762dcb85087489503fefaad2003229a774e35b4fc3b44d5b9a7e627a8b86109f5ec5e96f10a769e8bd3619ea727d56759165ba5f4e0a559a21756a918bff05c55bea4e5a6bf803d9c5de685c29a96c7d7d8a44a2c172f5b7563826fdc4b2190aee0ef111da7a2997a89e4863fc2226e3018124daef45a3470593077b7234bbf60cbfa916bed121b71cbba4957251642efd11cfddea46e7465ef3644f6b908ea1616ca98a7a8011d6e818e892e98e15bf961452bd3a458a1e75c2610dd48ae7f56a221639198d4d44d016bb38b140eb3b083694901e68b112f427053ad167861722dfe4ee3e505a5dada4f559a7132b81adb58e95506324a2cafb5e7f309eee7cc2876f58ba69e0fb659e32ceafcf12bfcb693b35fcf567ccef308a4f391af13bbdab4abf3238690eb9e478a53f6cdd09f9b97283ec1225f7676a93ddb7dc6f68bc84e7f7d30d2e45445503a3c8197605d3fdee3887131512b4998397ed3bb441bcafb38f9b33c7b7522aba281ee97650e4537d9ce6046f5771891532c12cb9a2ea7712a052cf1ad23a4c70d97ddbe9fea65e1a3fae43709ae8ba34440df2f5e63f2e04f7deba796ca57dd5e9505c47a9e60fa57d3274295cfbbb2f6f605f3453c8f04d57231208fecf2fd4db55b2477124d3b617fd42028ba928519b571e3637f7c053bbe9f51f903d4192174bbc1874412d01aaba93298da582aff5c4161d13ff259528fb0e8b018c1a4093804f2e1cd34937955e9e6ceab8aedea1c4544a18e566b1b4b37cafa0a594825149635b878454f158736ca5467fad187a0e42b10757ac9d6629c85a9e5b79acc9a3bac0e8e346f65ff1e513eb7a894a4dff44917389fccbf4c364f419b4dc476aa9f626702904658c9a771c7fe20d026095082257b18666d6f616a26eb8eb382d2f6a0ebb2c8fe0d5e741566733479b1c317b0638fd7756b948e8cecdbd6f4dcefdbae3c6f10d21a1655a044f192f9544d435074e20049aee62841311db4f125648b3c1a38cae9ad3dc9244d9383c45f92e8d989911e1ca7944edf9079d941bf11b08e6dc4b591610b299e84ba16f88cecb3d79402fdfbe94fa38d843e10c54179911530e0c99bd92f70516508f298c95b39a70c4040e1dcb2156f4b12d1f84a2de20b5f627bc319601caf53d6bc999649bda3d280ffc5dfb944a17dfc0946c8b0d385a1083eba494e41637dc88d025ab318aba4ee68e97429e6abffd76f4b7abaa24495289d6c81df36e1dae8f31a854fbc89a4ac758abac7e0da151172f89cfdb5ffe87c95fe8886fbf1ff290e5e9713f82ae97ffde50e94af990615d2c7ff37935bc175ef3c0a2cfc424c4be1d7063316859e52e5c6bd6742d2a406d8bb5e4ddb205676fe5192bc1436dcd101b20313d4142456265737583949c9ddb04091e2e378b97c3050c1d292a323b40494a68a5a7aab7c2c6d2d3dde9f5091720234f5a7b91969aa2db00000000000000000000000000000000000000000011192f3b01fd21050069cb0b0fc1ea28975f572b807c44582fdd678b536c5f3602e15a6ed78135a4861b46d3d3888a192750e0bf5cca2a30dbc95932fa2bf82c0d97efa8a6a2b754c5f9d9470175a29cd6bf12244f6dccb7d3bfc2ffe4759f456ccf4c0da1e2bb2f4f39f6dbf7831679233e7d58c76fdcc24e15e9b54e3453edefa58a9db315eef7facd167ad96f958871cbbe416bdbbf66dc0fc69a3898cdfe8817b7d528b9db2acd3157eee55a94461144b38873fe000d2177be576a7e4ee57bbc60b6c492ac311160af4fc7d530befb3fa6eee56c20f3d9dd9a637eff2f656232d18bcb3bc2171c87f5123a1356af73fbb785a729417dc0ffc7ecd082f526c93a37f0efa85fcaf8f71796da997736339d40e6c240ce644ce39939ef2d826d73bacc2cf19c3665499d6eca08bc6931d66c07cbc04e0761b35c295867fad48e5c3178682d5c34c8dec613aade66467a1c8e6c7d35bda0c1d406b1566564b70903027fe01285b4fd073f910b6f90552ccb7c474cf940a61810edc6a4f76b0773fa3dc7f46027aeb9b059ebbe61874d3c1f8e2c4c8b70474b3ce87ed27f9d84adf45dabfda6bede415a8476581ae5b6187877de5b3c073470b99b48178db4178f78638981822ee565e701054725c9c2981371fe4f11df87ffee61dac488a265cc22c4b958c8b16c01d1a9ef375e78c7246b3374eb5ae9da4cfddf734857c3ef264def14908118b901bb4d2e2b503bd7e1721398d2cc726bb1c6a3ed55b4028f1ec270c57fa77e7c3e2330f166b8c0e343dd19188f7fa47ff5c93d257e6aef0b135bba49db56bce62d8e14962e49e85416f276a098ef87132f176a1300c7196e89ce9083b8b06bca2b94022538d7ad7f9727e139fef53238871f01579df7bb7597c57f0beaa6fccef351a8b2bffa2a11c9453faacd75fa552707fac500115ff8b7a7199c1fa984de24a2a2609f4846295a6010b5c6003eb6369b3c3e85d75f027bb7db4f75c9ba9bbd5f5f9d825bbe7e80503a9536ba184d639046a21190559024d81a5c4cac294efa6c6f89a2d94c86d36df4f2018c3ea25cb6fb27e30678aa55515b84125b8adc14c8f32b78c9ecc234286172e11dc05a1eae7c1a6c513e877344c00289fed7f774487bb0e56e442d0be62d9f05fd70a96d35a26ccb56c3eb3a0da456998097c22ced5aaa959fdbf0e3247c99401a4591932eec834eab80cbb17e673a69b90fde9bed1ecfd56705c63f461464a896bea6c272913de29fb62a375e6ae3930994cd2926ebceea9c4fef2a8cbd03e9f10b5cd1b47dec502521ac25d9099072f0ab70ee0e8584130e7527296f8d3a3a7dc18e64b518cd6df2464fd0ee5b973553d15dccfd4fe574fa8897104d57340bfe3169c4fc0cf36ecb1810b37aaa1dcffe8e2551024edd16e2dc19e7a2edf1e0a85f279cc57119bdd2a744faa280dfd900c3543a411e769571ecb31126c8681f96a5f2bf8af1da99f6eb5727a12122382aa0f4a37bfaf3a092b9a0554ec34083a1cdb641796b6aedede501ff421da9bcb2226408e5f6bb55cd8f89c17f61855f7a5c3bd359e7039050106a927f1770126f9b099d960a7269017a8b9032334e25fdb7f4b257830b24450019b272c22bb6fe89fbbce4d4f4c604c1caee5f07cb7d23c4c48adf47814cf968dc52cc8629e1c552d50c44bece19a2b79c70f9ad47afae2d8a4f94eef00e9bc44d4511fc853a1f018f2ca932f18f4cff76cb6176c0aba9cca86724827c1cb26fdaaf73fcb20489e030231bd0a478139d49dcc2da151c4d0d4ff360cdf52bf1f30581b6f937d4e507d4a5908e63c2bde15138e248412cac65d564ef4ba5b3aeb64b1711328b8df6907de5a57d000000",
  "txid": "25774898aa222ef180ca78475d732927a6d5be5efda56b277e5152638e2ae64b",
  "hash": "058025044e7d054bbda3cb84f6d3a5703892ad38cef697aa3bb64384d2ad3e23",
  "size": 5085,
  "vsize": 2278,
  "version": 1,
  "locktime": 125,
  "vin": [
    {
      "txid": "fc63102e84541c51f3ab47843ea0967a7afee9ed42d59508e38375e99e53ea98",
      "vout": 0,
      "scriptSig": {
        "asm": "",
        "hex": ""
      },
      "txinwitness": [
        "703252bb72b3cac1cd317be9b84223c543d205582cddb7c8ef2c5b16e34a5db33ad97e5728890fef0886ef7676810ff63098fdaaa0384b144bd35fcc6d3b619ee4eadaeb4c459a182eb442139429d712517fc4eaf640b34b9a0cfdffedb98187f9435f8274ca872c18287a840f0815b8bbc6a9877cfb4a3aa38c0da6cc7787b733927dced3f0ce3435290139be2487314316f828ec7edc736a1e43e6531f555651432907e8e0109830d2545bee137417e64803de89ca64e0b8e17856cf8081b5e7941d9201d8f09d878857d20f932760e8887bd455315b36163c2f6b5ee8ee61f4cf6fcc77867a98f6fe2108dbe4f75cd5cce8ff9f3b9a4520d4eb50fb118ec658044d2fb11da017422757bb9aa9dc6acdebf1330c6d15295afae33a7e06401a682e048803caa05fe197a5550715da9fb500a4519e17b012f5d33296e6813136a6cb89619f6de84dd3b401f03c7f8a2d1692d83ceacfed7044f722abdc4e02cb72eebda800c91111174348475f91e969624d31f814fea0a86dd33ceb9189d462ac28f8c598b23744e208ef3a7609761a17ac73f44603734dd3e04405abd79fe192ee5d7fe33a6fa290f23c2b9b7322c0ca4ede842061f8320c1f4556b49e9fa63b1d3af57a7b74b059b15db728703f07e9d0cd4afe79f41f3ad01cfffaa27e3620e6316dc7b8999cb935802bdef7f065ceddaeec5407a19d8747691578a3a31ca1da55f7f1c4dda75eb773fa8ae108b9f20d0f81f23a1211baf2c288e1fdb040f30499a6beda1f7e2148d2a61f085a480f929b0d95855c145b33cc5ed3f35c4fd89cb53a7b1041f15c155ef8615cba4bb5ea1b42f2c414db611d679ea43727793628ca59d94b772a657649750c697cf99c3441cd0670e5f6b74e54f8a66b711899abb15069d1ace5f054f1a90ba6fe518f679ff9b079a46e87459b26ca00fe5867e9d671f16a55d772d8f5043536abed8b622f202fc6b45ab9ca59e41fc5ed65f25b160375d3903de17dafdb4763def6468c2896875ed2d7e54e5fd3a22ddc71cac1e37496f7ab746513404aa2fed4eafdef726a6baa8d139adf3894d2e1f29c7aab9fe46422309462cfaa605dfbd8284b0b76074875c06f9f0e109ecc1c698672582fab4060084ad8a14ba5d1c924eb0503072c3cbd5c087cf4fb38d3e720e0e0ba7596905db73195f0875e805589cb584bf4854c0b1e4e92b268e0fc4c981f9a8c8bf02c7df31c30f6d3e39103a56438ed871ead3ebea065452ab7409027568b11ff20e620add50a0638c4d62b1e2f04b11985d86e8384282dedbd65233a5fab5db4e7825ca1d7e3162d9ce63c5873a98fd6c398d8945070411fb6fafc6e359728fd4f0cd06f04ac0e369a2654e5605da58d92fe09383be9bc06b778b41946234b81562510ea931de4de68079fe1f3722e73ebafa62499512b6d060ca845833f17ae42bdab7f81c83130e76ba1c097a0dea0cfd1388f88a8d0274dbba552f355048eff496a2d1ff35efaa5453cf12879b3646cb1555e69a5a46a7b89a489e27dde305ab0b807fd3eac9a5e8e9d6cd0c0db6acfa77d8cae1af6e4cc09ceb83b19b829af27cd337a48fed6127c6cb27db11ed98f91beb3d31e89d32a85775e32c6b98e8e41629ce7a6f256422dba21225c513715ccad69ee46a9760db3a2e7074c1d230fb9a60ae13969264ad166aded17b06e5781bbd406a45457b8f31fcadd47c5af49f1a6b1801dc265c3ca854a1b9149ca06a4cacbc5c1e230e2b24c125d06f6ea6ec48bc7fd10f95843cc48fd73bc5ee7f928b5979a451ab21d142f3d721ded643fb4578bde5502e97bdfd3e68a573c22aee351bdaef5c42ee15eb6630c3017853c439dc2efc89d6d1423de07400ae5e485acf766bb11be92d2f0c847c2e9a9174639fc6e00762dcb85087489503fefaad2003229a774e35b4fc3b44d5b9a7e627a8b86109f5ec5e96f10a769e8bd3619ea727d56759165ba5f4e0a559a21756a918bff05c55bea4e5a6bf803d9c5de685c29a96c7d7d8a44a2c172f5b7563826fdc4b2190aee0ef111da7a2997a89e4863fc2226e3018124daef45a3470593077b7234bbf60cbfa916bed121b71cbba4957251642efd11cfddea46e7465ef3644f6b908ea1616ca98a7a8011d6e818e892e98e15bf961452bd3a458a1e75c2610dd48ae7f56a221639198d4d44d016bb38b140eb3b083694901e68b112f427053ad167861722dfe4ee3e505a5dada4f559a7132b81adb58e95506324a2cafb5e7f309eee7cc2876f58ba69e0fb659e32ceafcf12bfcb693b35fcf567ccef308a4f391af13bbdab4abf3238690eb9e478a53f6cdd09f9b97283ec1225f7676a93ddb7dc6f68bc84e7f7d30d2e45445503a3c8197605d3fdee3887131512b4998397ed3bb441bcafb38f9b33c7b7522aba281ee97650e4537d9ce6046f5771891532c12cb9a2ea7712a052cf1ad23a4c70d97ddbe9fea65e1a3fae43709ae8ba34440df2f5e63f2e04f7deba796ca57dd5e9505c47a9e60fa57d3274295cfbbb2f6f605f3453c8f04d57231208fecf2fd4db55b2477124d3b617fd42028ba928519b571e3637f7c053bbe9f51f903d4192174bbc1874412d01aaba93298da582aff5c4161d13ff259528fb0e8b018c1a4093804f2e1cd34937955e9e6ceab8aedea1c4544a18e566b1b4b37cafa0a594825149635b878454f158736ca5467fad187a0e42b10757ac9d6629c85a9e5b79acc9a3bac0e8e346f65ff1e513eb7a894a4dff44917389fccbf4c364f419b4dc476aa9f626702904658c9a771c7fe20d026095082257b18666d6f616a26eb8eb382d2f6a0ebb2c8fe0d5e741566733479b1c317b0638fd7756b948e8cecdbd6f4dcefdbae3c6f10d21a1655a044f192f9544d435074e20049aee62841311db4f125648b3c1a38cae9ad3dc9244d9383c45f92e8d989911e1ca7944edf9079d941bf11b08e6dc4b591610b299e84ba16f88cecb3d79402fdfbe94fa38d843e10c54179911530e0c99bd92f70516508f298c95b39a70c4040e1dcb2156f4b12d1f84a2de20b5f627bc319601caf53d6bc999649bda3d280ffc5dfb944a17dfc0946c8b0d385a1083eba494e41637dc88d025ab318aba4ee68e97429e6abffd76f4b7abaa24495289d6c81df36e1dae8f31a854fbc89a4ac758abac7e0da151172f89cfdb5ffe87c95fe8886fbf1ff290e5e9713f82ae97ffde50e94af990615d2c7ff37935bc175ef3c0a2cfc424c4be1d7063316859e52e5c6bd6742d2a406d8bb5e4ddb205676fe5192bc1436dcd101b20313d4142456265737583949c9ddb04091e2e378b97c3050c1d292a323b40494a68a5a7aab7c2c6d2d3dde9f5091720234f5a7b91969aa2db00000000000000000000000000000000000000000011192f3b01",
        "0069cb0b0fc1ea28975f572b807c44582fdd678b536c5f3602e15a6ed78135a4861b46d3d3888a192750e0bf5cca2a30dbc95932fa2bf82c0d97efa8a6a2b754c5f9d9470175a29cd6bf12244f6dccb7d3bfc2ffe4759f456ccf4c0da1e2bb2f4f39f6dbf7831679233e7d58c76fdcc24e15e9b54e3453edefa58a9db315eef7facd167ad96f958871cbbe416bdbbf66dc0fc69a3898cdfe8817b7d528b9db2acd3157eee55a94461144b38873fe000d2177be576a7e4ee57bbc60b6c492ac311160af4fc7d530befb3fa6eee56c20f3d9dd9a637eff2f656232d18bcb3bc2171c87f5123a1356af73fbb785a729417dc0ffc7ecd082f526c93a37f0efa85fcaf8f71796da997736339d40e6c240ce644ce39939ef2d826d73bacc2cf19c3665499d6eca08bc6931d66c07cbc04e0761b35c295867fad48e5c3178682d5c34c8dec613aade66467a1c8e6c7d35bda0c1d406b1566564b70903027fe01285b4fd073f910b6f90552ccb7c474cf940a61810edc6a4f76b0773fa3dc7f46027aeb9b059ebbe61874d3c1f8e2c4c8b70474b3ce87ed27f9d84adf45dabfda6bede415a8476581ae5b6187877de5b3c073470b99b48178db4178f78638981822ee565e701054725c9c2981371fe4f11df87ffee61dac488a265cc22c4b958c8b16c01d1a9ef375e78c7246b3374eb5ae9da4cfddf734857c3ef264def14908118b901bb4d2e2b503bd7e1721398d2cc726bb1c6a3ed55b4028f1ec270c57fa77e7c3e2330f166b8c0e343dd19188f7fa47ff5c93d257e6aef0b135bba49db56bce62d8e14962e49e85416f276a098ef87132f176a1300c7196e89ce9083b8b06bca2b94022538d7ad7f9727e139fef53238871f01579df7bb7597c57f0beaa6fccef351a8b2bffa2a11c9453faacd75fa552707fac500115ff8b7a7199c1fa984de24a2a2609f4846295a6010b5c6003eb6369b3c3e85d75f027bb7db4f75c9ba9bbd5f5f9d825bbe7e80503a9536ba184d639046a21190559024d81a5c4cac294efa6c6f89a2d94c86d36df4f2018c3ea25cb6fb27e30678aa55515b84125b8adc14c8f32b78c9ecc234286172e11dc05a1eae7c1a6c513e877344c00289fed7f774487bb0e56e442d0be62d9f05fd70a96d35a26ccb56c3eb3a0da456998097c22ced5aaa959fdbf0e3247c99401a4591932eec834eab80cbb17e673a69b90fde9bed1ecfd56705c63f461464a896bea6c272913de29fb62a375e6ae3930994cd2926ebceea9c4fef2a8cbd03e9f10b5cd1b47dec502521ac25d9099072f0ab70ee0e8584130e7527296f8d3a3a7dc18e64b518cd6df2464fd0ee5b973553d15dccfd4fe574fa8897104d57340bfe3169c4fc0cf36ecb1810b37aaa1dcffe8e2551024edd16e2dc19e7a2edf1e0a85f279cc57119bdd2a744faa280dfd900c3543a411e769571ecb31126c8681f96a5f2bf8af1da99f6eb5727a12122382aa0f4a37bfaf3a092b9a0554ec34083a1cdb641796b6aedede501ff421da9bcb2226408e5f6bb55cd8f89c17f61855f7a5c3bd359e7039050106a927f1770126f9b099d960a7269017a8b9032334e25fdb7f4b257830b24450019b272c22bb6fe89fbbce4d4f4c604c1caee5f07cb7d23c4c48adf47814cf968dc52cc8629e1c552d50c44bece19a2b79c70f9ad47afae2d8a4f94eef00e9bc44d4511fc853a1f018f2ca932f18f4cff76cb6176c0aba9cca86724827c1cb26fdaaf73fcb20489e030231bd0a478139d49dcc2da151c4d0d4ff360cdf52bf1f30581b6f937d4e507d4a5908e63c2bde15138e248412cac65d564ef4ba5b3aeb64b1711328b8df6907de5a5"
      ],
      "sequence": 4294967294
    }
  ],
  "vout": [
    {
      "value": 1.0,
      "n": 0,
      "scriptPubKey": {
        "asm": "OP_RETURN 9f2feef6d9bf75bea444ad770750c0665e873cb64f4efcd9ff0d97813c9e9b29 e50cab340dcb9da181fdcb7891cf73f05bb68785654387d8989e8c7733775b4ac52c8b142debbd81a1ddeb58b1ef53d07b96a7a54563a7f8b8beac5713577b6aa54ceb744d8bdde1c1bd8b38d18f33b01bf6c7c52503c798d8decc3773371b0a856ccb546dabfdc1e19dab18f1af13903bd6e7e50523e7b8f8feec1753173b2a658c2bb48d4b1d21017d4bf8114ff370db360705e5c30758181e0cf7b3f7dbca45ac0b94ad6b3d01215d6bd8316fd350fb162725c5e32778383e2cd793d7fbea25cc6bf4cd0b5d61413d0bb8510fb3309b764745a5834718585e4cb7f3b79b8a05ec4bd4ed2b7d41611d2b98712f9310bb56676585a36738787e6c97d397bbaae50cab340dcb9da181fdcb7891cf73f05bb68785654387d8989e8c7733775b4ac52c8b142debbd81a1ddeb58b1ef53d07b96a7a54563a7f8b8beac5713577b6aa54ceb744d8bdde1c1bd8b38d18f33b01bf6c7c52503c798d8decc3773371b0a856ccb546dabfdc1e19dab18f1af13903bd6e7e50523e7b8f8feec1753173b2a658c2bb48d4b1d21017d4bf8114ff370db360705e5c30758181e0cf7b3f7dbca45ac0b94ad6b3d01215d6bd8316fd350fb162725c5e32778383e2cd793d7fbea25cc6bf4cd0b5d61413d0bb8510fb3309b764745a5834718585e4cb7f3b79b8a05ec4bd4ed2b7d41611d2b98712f9310bb56676585a36738787e6c97d397bbaae50cab340dcb9da181fdcb7891cf73f05bb68785654387d8989e8c7733775b4ac52c8b142debbd81a1ddeb58b1ef53d07b96a7a54563a7f8b8beac5713577b6aa54ceb744d8bdde1c1bd8b38d18f33b01bf6c7c52503c798d8decc3773371b0a856ccb546dabfdc1e19dab18f1af13903bd6e7e50523e7b8f8feec1753173b2a658c2bb48d4b1d21017d4bf8114ff370db360705e5c30758181e0cf7b3f7dbca45ac0b94ad6b3d01215d6bd8316fd350fb162725c5e32778383e2cd793d7fbea25cc6bf4cd0b5d61413d0bb8510fb3309b764745a5834718585e4cb7f3b79b8a05ec4bd4ed2b7d41611d2b98712f9310bb56676585a36738787e6c97d397bbaae50cab340dcb9da181fdcb7891cf73f05bb68785654387d8989e8c7733775b4ac52c8b142debbd81a1ddeb58b1ef53d07b96a7a54563a7f8b8beac5713577b6aa54ceb744d8bdde1c1bd8b38d18f33b01bf6c7c52503c798d8decc3773371b0a856ccb546dabfdc1e19dab18f1af13903bd6e7e50523e7b8f8feec1753173b2a658c2bb48d4b1d21017d4bf8114ff370db360705e5c30758181e0cf7b3f7dbca45ac0b94ad6b3d01215d6bd8316fd350fb162725c5e32778383e2cd793d7fbea25cc6bf4cd0b5d61413d0bb8510fb3309b764745a5834718585e4cb7f3b79b8a05ec4bd4ed2b7d41611d2b98712f9310bb56676585a36738787e6c97d397bbaae50cab340dcb9da181fdcb7891cf73f05bb68785654387d8989e8c7733775b4ac52c8b142debbd81a1ddeb58b1ef53d07b96a7a54563a7f8b8beac5713577b6aa54ceb744d8bdde1c1bd8b38d18f33b01bf6c7c52503c798d8decc3773371b0a856ccb546dabfdc1e19dab18f1af13903bd6e7e50523e7b8f8feec1753173b2a658c2bb48d4b1d21017d4bf8114ff3709230ea2b38e4aa0ecc5975ddc96d6ec78f036ce7e3b6a25fd88fa9fa6d42f461",
        "hex": "6a209f2feef6d9bf75bea444ad770750c0665e873cb64f4efcd9ff0d97813c9e9b294db004e50cab340dcb9da181fdcb7891cf73f05bb68785654387d8989e8c7733775b4ac52c8b142debbd81a1ddeb58b1ef53d07b96a7a54563a7f8b8beac5713577b6aa54ceb744d8bdde1c1bd8b38d18f33b01bf6c7c52503c798d8decc3773371b0a856ccb546dabfdc1e19dab18f1af13903bd6e7e50523e7b8f8feec1753173b2a658c2bb48d4b1d21017d4bf8114ff370db360705e5c30758181e0cf7b3f7dbca45ac0b94ad6b3d01215d6bd8316fd350fb162725c5e32778383e2cd793d7fbea25cc6bf4cd0b5d61413d0bb8510fb3309b764745a5834718585e4cb7f3b79b8a05ec4bd4ed2b7d41611d2b98712f9310bb56676585a36738787e6c97d397bbaae50cab340dcb9da181fdcb7891cf73f05bb68785654387d8989e8c7733775b4ac52c8b142debbd81a1ddeb58b1ef53d07b96a7a54563a7f8b8beac5713577b6aa54ceb744d8bdde1c1bd8b38d18f33b01bf6c7c52503c798d8decc3773371b0a856ccb546dabfdc1e19dab18f1af13903bd6e7e50523e7b8f8feec1753173b2a658c2bb48d4b1d21017d4bf8114ff370db360705e5c30758181e0cf7b3f7dbca45ac0b94ad6b3d01215d6bd8316fd350fb162725c5e32778383e2cd793d7fbea25cc6bf4cd0b5d61413d0bb8510fb3309b764745a5834718585e4cb7f3b79b8a05ec4bd4ed2b7d41611d2b98712f9310bb56676585a36738787e6c97d397bbaae50cab340dcb9da181fdcb7891cf73f05bb68785654387d8989e8c7733775b4ac52c8b142debbd81a1ddeb58b1ef53d07b96a7a54563a7f8b8beac5713577b6aa54ceb744d8bdde1c1bd8b38d18f33b01bf6c7c52503c798d8decc3773371b0a856ccb546dabfdc1e19dab18f1af13903bd6e7e50523e7b8f8feec1753173b2a658c2bb48d4b1d21017d4bf8114ff370db360705e5c30758181e0cf7b3f7dbca45ac0b94ad6b3d01215d6bd8316fd350fb162725c5e32778383e2cd793d7fbea25cc6bf4cd0b5d61413d0bb8510fb3309b764745a5834718585e4cb7f3b79b8a05ec4bd4ed2b7d41611d2b98712f9310bb56676585a36738787e6c97d397bbaae50cab340dcb9da181fdcb7891cf73f05bb68785654387d8989e8c7733775b4ac52c8b142debbd81a1ddeb58b1ef53d07b96a7a54563a7f8b8beac5713577b6aa54ceb744d8bdde1c1bd8b38d18f33b01bf6c7c52503c798d8decc3773371b0a856ccb546dabfdc1e19dab18f1af13903bd6e7e50523e7b8f8feec1753173b2a658c2bb48d4b1d21017d4bf8114ff370db360705e5c30758181e0cf7b3f7dbca45ac0b94ad6b3d01215d6bd8316fd350fb162725c5e32778383e2cd793d7fbea25cc6bf4cd0b5d61413d0bb8510fb3309b764745a5834718585e4cb7f3b79b8a05ec4bd4ed2b7d41611d2b98712f9310bb56676585a36738787e6c97d397bbaae50cab340dcb9da181fdcb7891cf73f05bb68785654387d8989e8c7733775b4ac52c8b142debbd81a1ddeb58b1ef53d07b96a7a54563a7f8b8beac5713577b6aa54ceb744d8bdde1c1bd8b38d18f33b01bf6c7c52503c798d8decc3773371b0a856ccb546dabfdc1e19dab18f1af13903bd6e7e50523e7b8f8feec1753173b2a658c2bb48d4b1d21017d4bf8114ff3709230ea2b38e4aa0ecc5975ddc96d6ec78f036ce7e3b6a25fd88fa9fa6d42f461",
        "type": "nulldata"
      }
    },
    {
      "value": 499965.4254,
      "n": 1,
      "scriptPubKey": {
        "asm": "1 03b23f3f915fc15b91e0a3fd0d7a2f2b72364097a4e7851b226851f828e7d3cb",
        "hex": "512003b23f3f915fc15b91e0a3fd0d7a2f2b72364097a4e7851b226851f828e7d3cb",
        "reqSigs": 1,
        "type": "witness_v1_scripthash",
        "addresses": [
          "3QJmnh"
        ]
      }
    }
  ],
  "blockhash": "2dfbfbf9a9b6a37d5bbaa2d3fd41803f08650e7d63861427b8d0526132d1543b",
  "confirmations": 1,
  "time": 1764182436,
  "blocktime": 1764182436
}