{
  "hex": "01000000000101fea54e7f02f73f9cd0b55781f5a80ec68a7d93ae1cd0f52595698d0c269d6ef10000000000feffffff0280cbbf57792d00002251205d981c7a50eb84a2568c914401a2eb01ca5a23099a6f2da4c058d8f891e275da00e1f50500000000fdd5046a201f0af222df805d7a8d63983f79aa79895a303b87387441499b19df9371754b934db0045e4ae98214c956115bf5c6d4e6fb2212806fcf474be1c2685e75716d77d8f5167e6ac9a234e976317bd5e6f4c6db0232a04fef676bc1e2487e55514d57f8d5361e0aa9c2548916511bb58694a6bb6252c02f8f070ba182281e35312d3798b5563e2a89e274a936713b95a6b4869b4272e00faf272b81a2083e15110d17b89576deca69029449d691db754654667ba29200ef4fc7cb6142e8def5f1edf7587596feea4922b469f6b1fb556674465b82b220cf6fe7eb4162c8fed5d1cdd77855b69e8a2942d40996d19b350614263be2d240af0f878b2102a89eb5b1adb71835d6beaa0962f429b6f1bb152634061bc2f2608f2fa7ab012288be95918d973815f65e4ae98214c956115bf5c6d4e6fb2212806fcf474be1c2685e75716d77d8f5167e6ac9a234e976317bd5e6f4c6db0232a04fef676bc1e2487e55514d57f8d5361e0aa9c2548916511bb58694a6bb6252c02f8f070ba182281e35312d3798b5563e2a89e274a936713b95a6b4869b4272e00faf272b81a2083e15110d17b89576deca69029449d691db754654667ba29200ef4fc7cb6142e8def5f1edf7587596feea4922b469f6b1fb556674465b82b220cf6fe7eb4162c8fed5d1cdd77855b69e8a2942d40996d19b350614263be2d240af0f878b2102a89eb5b1adb71835d6beaa0962f429b6f1bb152634061bc2f2608f2fa7ab012288be95918d973815f65e4ae98214c956115bf5c6d4e6fb2212806fcf474be1c2685e75716d77d8f5167e6ac9a234e976317bd5e6f4c6db0232a04fef676bc1e2487e55514d57f8d5361e0aa9c2548916511bb58694a6bb6252c02f8f070ba182281e35312d3798b5563e2a89e274a936713b95a6b4869b4272e00faf272b81a2083e15110d17b89576deca69029449d691db754654667ba29200ef4fc7cb6142e8def5f1edf7587596feea4922b469f6b1fb556674465b82b220cf6fe7eb4162c8fed5d1cdd77855b69e8a2942d40996d19b350614263be2d240af0f878b2102a89eb5b1adb71835d6beaa0962f429b6f1bb152634061bc2f2608f2fa7ab012288be95918d973815f65e4ae98214c956115bf5c6d4e6fb2212806fcf474be1c2685e75716d77d8f5167e6ac9a234e976317bd5e6f4c6db0232a04fef676bc1e2487e55514d57f8d5361e0aa9c2548916511bb58694a6bb6252c02f8f070ba182281e35312d3798b5563e2a89e274a936713b95a6b4869b4272e00faf272b81a2083e15110d17b89576deca69029449d691db754654667ba29200ef4fc7cb6142e8def5f1edf7587596feea4922b469f6b1fb556674465b82b220cf6fe7eb4162c8fed5d1cdd77855b69e8a2942d40996d19b350614263be2d240af0f878b2102a89eb5b1adb71835d6beaa0962f429b6f1bb152634061bc2f2608f2fa7ab012288be95918d973815f65e4ae98214c956115bf5c6d4e6fb2212806fcf474be1c2685e75716d77d8f5167e6ac9a234e976317bd5e6f4c6db0232a04fef676bc1e2487e55514d57f8d5361e0aa9c2548916511bb58694a6bb6252c02f8f070ba182281e35312d3798b5563e2a89e274a936713b95a6b4869b4272e00faf272b81a2083e15110d17b89576deca69029449d691db754654667ba292671d6750b60311e2e8759e4e2f18fae84d763e3eac450f073a613ce0203a54ab02fd7509ad1d0356313e7354bd282fdca8acdd27798f4658a91f4b0d80ff5d50ffce27a099daafb1e789888ee98b83c825b6b71099cda5cf1204f358a4bb5b83f8623196298269d0610252ea68618e607bf703af07c11365c69b4b01a5f4b1db174e3a3d72db35daf57add372a4514cefb561ff08c40c07a592f012b6db66ff41edd5f5dbe413b73d98619370cfdd0ddebf9b89ab0cb7d9a3812fa1d145ac29f962af75c6351b0faa2b74a5aca8f42487fd13161f63d365e39d6496885c6cd4e37e76e7c454fe290b6bdab86159760004e73bcdc16a09f6682993f0dad17462300e978beacc8f23062c7bba2b1846844181375a40cc80d00af942eef92ff5c78d94f462e6b595c8ac86a283c4a1eb32c1cf23c47058dfbba5f9d6fe3a5243da04d977632db8b0dfc70421b21690e78dcec6653f455efedc8286c900604aa02a829c7f96b54a79a42396de40eb918cbb3466d7dece6979970e5f7e9b5906af48e8b807260d9078b3e408607487de4119aa4ee26e8ea13cb4033a5bcb0b541dfd7099fe2e8d1abfff66bc52ad5815a9b31b98329eb563ca906ebe71e05bb42d24563bbf204083b21c8fb65db533c4b43ad4890f2d396f813a70f3d20793fc968127b91336519bd26d0e03eadfddf9dddaad8e6a11c536c6aa2f121c87237cc109403b40c2f6af0072af55e3ec7975bff59df75635c22b0eb9120d395ba531bef77563ef1d95da1e64351471e5281d0266996534ca45e182eccb7d5e70acb665ecfc3840b53564900fa3f3be95fff5a95b30a632dfee5aed41161748e33d53f9f242981f18e09f4299b52fdce019a4faddddd67ab53080608581fcfe9ef3e058af3b1a8c592bcdc83d761974f712ee2fd9423aa2f193818852631999be7797bc10656c46a39815605f759983e17c9b3b55bfd7116f8d30ee432769d36992707966013d088489c1b0a7236e6b874e7eee6d2e1d82dc5dec9f0d296744408cc7e28979e3e714d953853124ff594f464d306072c400dbf2402e53bdaec88d8c119edd6022eff397ff7914737553ee3978e351682640622070d6b9c4c8b3172cd13d89eb14e92e5d94473101c42d73bb1375c463a24dd12586e4c3ae0a712717a7b8bc4b41a880ece9b2cc3fe864f9f56f479338155ca8cc61aed552bee593e1f6b95a48a1d7e54b839bba25fcd323528c108925e29fb69183e97ab27d797905c6786277ee04e24c8216e8db7b50050a1e88b40183fa32cd9d990733f8b12a04869c62a246bf4e61f484190ec6e25162a9707c548b2e1cf7245f510f7d5bd7fe41f5c4716d10199f29cb15d5b358e4f4c178d339ea992dd2c69623be8b447c5ab3fd7dbc557a03b6e8d23b9cd32bce02a4336d93d7f859a84a982b547acc538e432ed2a49784f3a3c382c1d0cb1c8a8cf935745a9346841454cf8ef13764d0c99f6316dea7670fc35795d48bcc19ac0f4714dc74d5e16c1a3f83e4e495326ec6899200e16accd01bf76c7ca59c966d5ca058260eaf3f64eba25e24bdd0df818fc91915eb7645304ae2fe321c4b8447b6366e7dacdb5f42027c508223d4d0f55c462a9a281722fc818bf6bacedff24f34394b1b03463a4ccef9ba5a75d33b7ac26a3fc1cc12e826d4bbbac75b244505af7080149ad8bff5bff0159b0b8a6a6c965eea6aeff233b419f14ab6766692ba22b4c628575f6e685d1d89abf8251f70212f681f9bda30aa0b8302d0c8ded366118da21dcd9bec843f9afa221ff2c8ce109cdac152c1a29f7edbd563cb6b1867120d10909510ea212966f8d4746120f1c100408a5b73522b4c0686af4f30bd06dfa3447bda92632c55eb92d658edf82c75b8cceeb779870c1ad674b1e562f8c76dada8a128c67d7f979755d8cf838b4e2574a3c1d6db5f64454e8a0e85d57055eda407f576b1990581b052569b22298dd0a58590bff6dea6f233fb4e48e777b0e6cc88fc189451b8db47ce8c383da6d8dba62a8c6cbe358fbcb4c6574c4032fc48920c5c833cbad89ed67e5f2ed054e465d529c9cfe3536ebd061ec3524d9c51a18e6506fe0b75e1210de601cbdb0d270ae7d4371e370a7bcf6b47020b6661db9db8a699f106a710a36697c1a92eacaf105d70a7dc6f56211ba844a96f20c231b947d568bb591369c311544063dfff4e4f9319927da11622c3a5f97ef9dc9fb88a59c6580e1059622a0f9c0cd7aae498971cd55e790b181ca14dd980262fbf52c0e682bea2f3315cd053af46a8b86da0ed4f7f055c82c9d59da7d9b56c77cf8efebce29bc51840d27097ad45df711a67e0be0670d43e7b05c06ab2e3ee3660dd01019491295b3ca0f53d78fefc6f941cc18b0f1685130b180a5fdc52724c984b52b7a61508a7a61d383a98c03aa33b530df2ace0478e32cdcaa744d677af2ed18cb22d085e30696510504e583a4d65ae78ab4ec512c0e9b253f0044c97b988e6dcb5519cbb6a158f44ebc515e1f8f57df8673c13b9720746fda40aab633e7818764a2e1b8d9ff7258a52136f853d22058dedc8aa34e7f693a87fa1cfb292849a32e4398405e9d8d7733272c108a36d2593ec89b3bdc24feb9ce8ee80ee6dc684e2f54f2d53a70b8bdbe15438398734fabb3538e0a4d29664eec32520dd29b4f1486d37d2fc904b250c7bcd08031077efb6eb548f01e3125649f0fe6b1880c4ed0b3dac9e821a586ffcf3cdf83a530c7c207d1b181c50a780143947404ff45c7d8ef5ddc285f79211b6c2a8b3063ea39309b149d6e4805ca08e664b97998783a59d0d6d6e1568ef9c292fc11e26ecc82c00f9efa10324d214ec73cae2d7fad68719c19efbd2800f70642cb4aa16f8b8ad8d2eb4e7a973998dfe8f982fa70fd6dfbfdca0e941d779350425ea6657957d84962e09df2d4b283e47d78ea2325717e4b62769fc6c5e7bc4ac7a6dfec9277ad7d71480bc171e074299176b075474b35c01bcfae4cb742b3f0b4bf04552021fb0974dbefe556d6d1fcd7de4b720cb8f80cfc596dc2193282e834b87809d9399df3de345bb0fdd051634a442d92add240e1bd561e8f11b7e22a89aefccff9c2ef834283acdb54b1f22791266f0fa5cd4e7bd376e052dd21ea60db29dc039a5c734d57260aaff1efa4433334504e15d2ebecbf41185937309a0bbd8447fa5111401c693d23db54c69cd6bdf575894a85e74dd44b2602ba152482be42505115ba3a84124b39d2bb838cd97f0f09ea5cdd0a1650a609d3614103a364d9d25dd879f46373a7e7ab7a7da6652715d2499ddcae40343e866c26070a2651ad27ded50c341b09c98634af2d342c0945a2a4adbabdc8cbd0f5f60d24436466687071777b93b9bddce80a0e2e393e4c566e798a9ca3b4b5cdf50a19203c5f6371a3aaacd5e4ea0000000000000000000000000000000000000000000000000c1b2b3801fd2105000c60a94b9d7e6f2f54f5860507270a79b9864165270bbe33a155f6a8f6285b7a091514029aadac91522a7ccaabb5796aa427dd8208b3ef38b3b9f9be33b9dcaa1ea03985ec1059ec193b92db7276112221d00a71a1dddb7130d4f3528e5cc3463a928e4d3aa28bc4286a8011b4c18fb6394430f6e1e5d116a9688ae8484c43ac9e24c3ab2318556a9f07ddd934937d7cfe2355d58e2eb9c22fc8c412dccb2390fc5273949514cc94dcc01468d7c97b8a290e453de99dfe6948932da6a1d67ebf78ad39b60c185a0d318a86aeaae677ad6ad7c6742eaf00e66f35e3e09c0ea7e49ba3ef5dcf440bc74654f7dfa5155cfab1fa9a5acf5b908009e0c483b56522f089449ba9b3c51fcce50564fad67e8cb668d4a848c56b47968ab80bd1c4615ce4b874cfe7f5d9a9f16291cf16cde56c867c69da5b8041dc9b8abf8dd2b2eb3984b4efe810a920f47a7f08682caefaa436edf5c9ee6343cdd4e01f3efb56aa7286da6dec2e5b0b7755e3f61e149a5d81829c91df9743e6193c94b0e6b569e6ddcd19d12590bc487f7f7b1805b4462d3735c20618715b166be9992faa06b9b4054ba2630c3965b3c56fad1fca400b4566f0c328e278291e347e119b543c5918b80ef8f44494e64130cd40ab570a4b98c929129e7af7727037bf998f9c0d58990330b1ffe2322a90e516f48f1fe0fd0923a481f211fb50d26bde4fb25c7e912c9d1ac87c9cd0361a4833ec1fbc9d9ac96c3e4103a9dc70a2ae88da28a798cf939b0d0110fcc6bdeb6ab87920ca7c63594573c38007bfa6adbf08d4e835736aae95798e7c14608b029f6310d4c8ae6ba753f53d3e306328048c7d0c325dbb166a7c69ba4b9b55c12ed3d21b485df3dac6f5a1d4c62517c238155096a1bc16eb5015162911d04fea397903a5d38321c3f4edb587ccf1d9c9a0480b96f05f71b239208d73d357f84af3325d736aca426f0e9c414c793dd4912c2134da9f988ab8ba4a648e1cae118c6ae4d0ed6b7fc7f5a5f769a9fff0afbac7eb319f1e3cdeb49bf2d017ce78f0173dd0bae8872782757dd1b42f01d2f7f573ffe62eb8893acdd8410e4ceaca1fec043fa47565b8e88be53ba1f977f9583162833a8904aa56d4c3c656548fb96a20bb79d719760fb38aa20e1c32994df97e7c00b925d0a4a4ab6d26e5b4869eb4ea3c96276f2f117dca2c48d7bfc5b004880e1d619aad8df25fa1406070fa5783aec47e2609b91e2c72f7410862489eb8819a14cdd9c222481c1a7c84b0ef9f8b6588762c6590d16ccc24855f5906fb00e3d5f6922f1542493019f3b30cbfb97f5d3f20308f321ef9b15174d78d26ad4302a53ff5c4a2914274dc0ea6c257cc5cfd6785be310d5af8ccf468f30618d4008b6a4a9d2d4872f44bbbe825898d75b617a8f4a31008ababc216adfef15a26b201f5aad7272ae5509a511f57b095f40d72c44d053120140fbda22bb1a37796d03bde8546beeec2e8bc50c44607af6276b8c2938ea6f998c350dc83552c6e4eb277b623226549528300fea477412165948a47595d0093a0eaab0ff4efa2af4ed6a63efc73ed86021d465420254c0fb917ac98e4c15344c260f01524c9c0e5893128f1dddefbcdfb94c2345f3f28080aa536c3955f9374838b53ce5efbb25d0987eeb77668ce8c18c86443ee37175bc6d77d6d3f4e2663392854a7aa4d986851fbcb874cdc8d972b0c1bb8a365f2095cd8267cbafd71e63cee433409a6074bccc798abbdec3fd28e4544ed617aaf45dbe517e08735f8bf40545911cdc9ad78c84c8977245f8c54d5c1dab0463181cb3507d73fa27fb7ec1f0b2f80c0e1bc62eb1b3147b1605fed87cda568dfa36a000000",
  "txid": "2d522f2837f03fc9a23409a39e1533fab6d99793fe8de0af9aeebb1035722f6d",
  "hash": "d403fa23070549c156b5bf74936854f0d178c10559406b857f477b3c0d07be04",
  "size": 5085,
  "vsize": 2278,
  "version": 1,
  "locktime": 106,
  "vin": [
    {
      "txid": "f16e9d260c8d699525f5d01cae937d8ac60ea8f58157b5d09c3ff7027f4ea5fe",
      "vout": 0,
      "scriptSig": {
        "asm": "",
        "hex": ""
      },
      "txinwitness": [
        "ad1d0356313e7354bd282fdca8acdd27798f4658a91f4b0d80ff5d50ffce27a099daafb1e789888ee98b83c825b6b71099cda5cf1204f358a4bb5b83f8623196298269d0610252ea68618e607bf703af07c11365c69b4b01a5f4b1db174e3a3d72db35daf57add372a4514cefb561ff08c40c07a592f012b6db66ff41edd5f5dbe413b73d98619370cfdd0ddebf9b89ab0cb7d9a3812fa1d145ac29f962af75c6351b0faa2b74a5aca8f42487fd13161f63d365e39d6496885c6cd4e37e76e7c454fe290b6bdab86159760004e73bcdc16a09f6682993f0dad17462300e978beacc8f23062c7bba2b1846844181375a40cc80d00af942eef92ff5c78d94f462e6b595c8ac86a283c4a1eb32c1cf23c47058dfbba5f9d6fe3a5243da04d977632db8b0dfc70421b21690e78dcec6653f455efedc8286c900604aa02a829c7f96b54a79a42396de40eb918cbb3466d7dece6979970e5f7e9b5906af48e8b807260d9078b3e408607487de4119aa4ee26e8ea13cb4033a5bcb0b541dfd7099fe2e8d1abfff66bc52ad5815a9b31b98329eb563ca906ebe71e05bb42d24563bbf204083b21c8fb65db533c4b43ad4890f2d396f813a70f3d20793fc968127b91336519bd26d0e03eadfddf9dddaad8e6a11c536c6aa2f121c87237cc109403b40c2f6af0072af55e3ec7975bff59df75635c22b0eb9120d395ba531bef77563ef1d95da1e64351471e5281d0266996534ca45e182eccb7d5e70acb665ecfc3840b53564900fa3f3be95fff5a95b30a632dfee5aed41161748e33d53f9f242981f18e09f4299b52fdce019a4faddddd67ab53080608581fcfe9ef3e058af3b1a8c592bcdc83d761974f712ee2fd9423aa2f193818852631999be7797bc10656c46a39815605f759983e17c9b3b55bfd7116f8d30ee432769d36992707966013d088489c1b0a7236e6b874e7eee6d2e1d82dc5dec9f0d296744408cc7e28979e3e714d953853124ff594f464d306072c400dbf2402e53bdaec88d8c119edd6022eff397ff7914737553ee3978e351682640622070d6b9c4c8b3172cd13d89eb14e92e5d94473101c42d73bb1375c463a24dd12586e4c3ae0a712717a7b8bc4b41a880ece9b2cc3fe864f9f56f479338155ca8cc61aed552bee593e1f6b95a48a1d7e54b839bba25fcd323528c108925e29fb69183e97ab27d797905c6786277ee04e24c8216e8db7b50050a1e88b40183fa32cd9d990733f8b12a04869c62a246bf4e61f484190ec6e25162a9707c548b2e1cf7245f510f7d5bd7fe41f5c4716d10199f29cb15d5b358e4f4c178d339ea992dd2c69623be8b447c5ab3fd7dbc557a03b6e8d23b9cd32bce02a4336d93d7f859a84a982b547acc538e432ed2a49784f3a3c382c1d0cb1c8a8cf935745a9346841454cf8ef13764d0c99f6316dea7670fc35795d48bcc19ac0f4714dc74d5e16c1a3f83e4e495326ec6899200e16accd01bf76c7ca59c966d5ca058260eaf3f64eba25e24bdd0df818fc91915eb7645304ae2fe321c4b8447b6366e7dacdb5f42027c508223d4d0f55c462a9a281722fc818bf6bacedff24f34394b1b03463a4ccef9ba5a75d33b7ac26a3fc1cc12e826d4bbbac75b244505af7080149ad8bff5bff0159b0b8a6a6c965eea6aeff233b419f14ab6766692ba22b4c628575f6e685d1d89abf8251f70212f681f9bda30aa0b8302d0c8ded366118da21dcd9bec843f9afa221ff2c8ce109cdac152c1a29f7edbd563cb6b1867120d10909510ea212966f8d4746120f1c100408a5b73522b4c0686af4f30bd06dfa3447bda92632c55eb92d658edf82c75b8cceeb779870c1ad674b1e562f8c76dada8a128c67d7f979755d8cf838b4e2574a3c1d6db5f64454e8a0e85d57055eda407f576b1990581b052569b22298dd0a58590bff6dea6f233fb4e48e777b0e6cc88fc189451b8db47ce8c383da6d8dba62a8c6cbe358fbcb4c6574c4032fc48920c5c833cbad89ed67e5f2ed054e465d529c9cfe3536ebd061ec3524d9c51a18e6506fe0b75e1210de601cbdb0d270ae7d4371e370a7bcf6b47020b6661db9db8a699f106a710a36697c1a92eacaf105d70a7dc6f56211ba844a96f20c231b947d568bb591369c311544063dfff4e4f9319927da11622c3a5f97ef9dc9fb88a59c6580e1059622a0f9c0cd7aae498971cd55e790b181ca14dd980262fbf52c0e682bea2f3315cd053af46a8b86da0ed4f7f055c82c9d59da7d9b56c77cf8efebce29bc51840d27097ad45df711a67e0be0670d43e7b05c06ab2e3ee3660dd01019491295b3ca0f53d78fefc6f941cc18b0f1685130b180a5fdc52724c984b52b7a61508a7a61d383a98c03aa33b530df2ace0478e32cdcaa744d677af2ed18cb22d085e30696510504e583a4d65ae78ab4ec512c0e9b253f0044c97b988e6dcb5519cbb6a158f44ebc515e1f8f57df8673c13b9720746fda40aab633e7818764a2e1b8d9ff7258a52136f853d22058dedc8aa34e7f693a87fa1cfb292849a32e4398405e9d8d7733272c108a36d2593ec89b3bdc24feb9ce8ee80ee6dc684e2f54f2d53a70b8bdbe15438398734fabb3538e0a4d29664eec32520dd29b4f1486d37d2fc904b250c7bcd08031077efb6eb548f01e3125649f0fe6b1880c4ed0b3dac9e821a586ffcf3cdf83a530c7c207d1b181c50a780143947404ff45c7d8ef5ddc285f79211b6c2a8b3063ea39309b149d6e4805ca08e664b97998783a59d0d6d6e1568ef9c292fc11e26ecc82c00f9efa10324d214ec73cae2d7fad68719c19efbd2800f70642cb4aa16f8b8ad8d2eb4e7a973998dfe8f982fa70fd6dfbfdca0e941d779350425ea6657957d84962e09df2d4b283e47d78ea2325717e4b62769fc6c5e7bc4ac7a6dfec9277ad7d71480bc171e074299176b075474b35c01bcfae4cb742b3f0b4bf04552021fb0974dbefe556d6d1fcd7de4b720cb8f80cfc596dc2193282e834b87809d9399df3de345bb0fdd051634a442d92add240e1bd561e8f11b7e22a89aefccff9c2ef834283acdb54b1f22791266f0fa5cd4e7bd376e052dd21ea60db29dc039a5c734d57260aaff1efa4433334504e15d2ebecbf41185937309a0bbd8447fa5111401c693d23db54c69cd6bdf575894a85e74dd44b2602ba152482be42505115ba3a84124b39d2bb838cd97f0f09ea5cdd0a1650a609d3614103a364d9d25dd879f46373a7e7ab7a7da6652715d2499ddcae40343e866c26070a2651ad27ded50c341b09c98634af2d342c0945a2a4adbabdc8cbd0f5f60d24436466687071777b93b9bddce80a0e2e393e4c566e798a9ca3b4b5cdf50a19203c5f6371a3aaacd5e4ea0000000000000000000000000000000000000000000000000c1b2b3801",
        "000c60a94b9d7e6f2f54f5860507270a79b9864165270bbe33a155f6a8f6285b7a091514029aadac91522a7ccaabb5796aa427dd8208b3ef38b3b9f9be33b9dcaa1ea03985ec1059ec193b92db7276112221d00a71a1dddb7130d4f3528e5cc3463a928e4d3aa28bc4286a8011b4c18fb6394430f6e1e5d116a9688ae8484c43ac9e24c3ab2318556a9f07ddd934937d7cfe2355d58e2eb9c22fc8c412dccb2390fc5273949514cc94dcc01468d7c97b8a290e453de99dfe6948932da6a1d67ebf78ad39b60c185a0d318a86aeaae677ad6ad7c6742eaf00e66f35e3e09c0ea7e49ba3ef5dcf440bc74654f7dfa5155cfab1fa9a5acf5b908009e0c483b56522f089449ba9b3c51fcce50564fad67e8cb668d4a848c56b47968ab80bd1c4615ce4b874cfe7f5d9a9f16291cf16cde56c867c69da5b8041dc9b8abf8dd2b2eb3984b4efe810a920f47a7f08682caefaa436edf5c9ee6343cdd4e01f3efb56aa7286da6dec2e5b0b7755e3f61e149a5d81829c91df9743e6193c94b0e6b569e6ddcd19d12590bc487f7f7b1805b4462d3735c20618715b166be9992faa06b9b4054ba2630c3965b3c56fad1fca400b4566f0c328e278291e347e119b543c5918b80ef8f44494e64130cd40ab570a4b98c929129e7af7727037bf998f9c0d58990330b1ffe2322a90e516f48f1fe0fd0923a481f211fb50d26bde4fb25c7e912c9d1ac87c9cd0361a4833ec1fbc9d9ac96c3e4103a9dc70a2ae88da28a798cf939b0d0110fcc6bdeb6ab87920ca7c63594573c38007bfa6adbf08d4e835736aae95798e7c14608b029f6310d4c8ae6ba753f53d3e306328048c7d0c325dbb166a7c69ba4b9b55c12ed3d21b485df3dac6f5a1d4c62517c238155096a1bc16eb5015162911d04fea397903a5d38321c3f4edb587ccf1d9c9a0480b96f05f71b239208d73d357f84af3325d736aca426f0e9c414c793dd4912c2134da9f988ab8ba4a648e1cae118c6ae4d0ed6b7fc7f5a5f769a9fff0afbac7eb319f1e3cdeb49bf2d017ce78f0173dd0bae8872782757dd1b42f01d2f7f573ffe62eb8893acdd8410e4ceaca1fec043fa47565b8e88be53ba1f977f9583162833a8904aa56d4c3c656548fb96a20bb79d719760fb38aa20e1c32994df97e7c00b925d0a4a4ab6d26e5b4869eb4ea3c96276f2f117dca2c48d7bfc5b004880e1d619aad8df25fa1406070fa5783aec47e2609b91e2c72f7410862489eb8819a14cdd9c222481c1a7c84b0ef9f8b6588762c6590d16ccc24855f5906fb00e3d5f6922f1542493019f3b30cbfb97f5d3f20308f321ef9b15174d78d26ad4302a53ff5c4a2914274dc0ea6c257cc5cfd6785be310d5af8ccf468f30618d4008b6a4a9d2d4872f44bbbe825898d75b617a8f4a31008ababc216adfef15a26b201f5aad7272ae5509a511f57b095f40d72c44d053120140fbda22bb1a37796d03bde8546beeec2e8bc50c44607af6276b8c2938ea6f998c350dc83552c6e4eb277b623226549528300fea477412165948a47595d0093a0eaab0ff4efa2af4ed6a63efc73ed86021d465420254c0fb917ac98e4c15344c260f01524c9c0e5893128f1dddefbcdfb94c2345f3f28080aa536c3955f9374838b53ce5efbb25d0987eeb77668ce8c18c86443ee37175bc6d77d6d3f4e2663392854a7aa4d986851fbcb874cdc8d972b0c1bb8a365f2095cd8267cbafd71e63cee433409a6074bccc798abbdec3fd28e4544ed617aaf45dbe517e08735f8bf40545911cdc9ad78c84c8977245f8c54d5c1dab0463181cb3507d73fa27fb7ec1f0b2f80c0e1bc62eb1b3147b1605fed87cda568dfa3"
      ],
      "sequence": 4294967294
    }
  ],
  "vout": [
    {
      "value": 499991.8648,
      "n": 0,
      "scriptPubKey": {
        "asm": "1 5d981c7a50eb84a2568c914401a2eb01ca5a23099a6f2da4c058d8f891e275da",
        "hex": "51205d981c7a50eb84a2568c914401a2eb01ca5a23099a6f2da4c058d8f891e275da",
        "reqSigs": 1,
        "type": "witness_v1_scripthash",
        "addresses": [
          "3QJmnh"
        ]
      }
    },
    {
      "value": 1.0,
      "n": 1,
      "scriptPubKey": {
        "asm": "OP_RETURN 1f0af222df805d7a8d63983f79aa79895a303b87387441499b19df9371754b93 5e4ae98214c956115bf5c6d4e6fb2212806fcf474be1c2685e75716d77d8f5167e6ac9a234e976317bd5e6f4c6db0232a04fef676bc1e2487e55514d57f8d5361e0aa9c2548916511bb58694a6bb6252c02f8f070ba182281e35312d3798b5563e2a89e274a936713b95a6b4869b4272e00faf272b81a2083e15110d17b89576deca69029449d691db754654667ba29200ef4fc7cb6142e8def5f1edf7587596feea4922b469f6b1fb556674465b82b220cf6fe7eb4162c8fed5d1cdd77855b69e8a2942d40996d19b350614263be2d240af0f878b2102a89eb5b1adb71835d6beaa0962f429b6f1bb152634061bc2f2608f2fa7ab012288be95918d973815f65e4ae98214c956115bf5c6d4e6fb2212806fcf474be1c2685e75716d77d8f5167e6ac9a234e976317bd5e6f4c6db0232a04fef676bc1e2487e55514d57f8d5361e0aa9c2548916511bb58694a6bb6252c02f8f070ba182281e35312d3798b5563e2a89e274a936713b95a6b4869b4272e00faf272b81a2083e15110d17b89576deca69029449d691db754654667ba29200ef4fc7cb6142e8def5f1edf7587596feea4922b469f6b1fb556674465b82b220cf6fe7eb4162c8fed5d1cdd77855b69e8a2942d40996d19b350614263be2d240af0f878b2102a89eb5b1adb71835d6beaa0962f429b6f1bb152634061bc2f2608f2fa7ab012288be95918d973815f65e4ae98214c956115bf5c6d4e6fb2212806fcf474be1c2685e75716d77d8f5167e6ac9a234e976317bd5e6f4c6db0232a04fef676bc1e2487e55514d57f8d5361e0aa9c2548916511bb58694a6bb6252c02f8f070ba182281e35312d3798b5563e2a89e274a936713b95a6b4869b4272e00faf272b81a2083e15110d17b89576deca69029449d691db754654667ba29200ef4fc7cb6142e8def5f1edf7587596feea4922b469f6b1fb556674465b82b220cf6fe7eb4162c8fed5d1cdd77855b69e8a2942d40996d19b350614263be2d240af0f878b2102a89eb5b1adb71835d6beaa0962f429b6f1bb152634061bc2f2608f2fa7ab012288be95918d973815f65e4ae98214c956115bf5c6d4e6fb2212806fcf474be1c2685e75716d77d8f5167e6ac9a234e976317bd5e6f4c6db0232a04fef676bc1e2487e55514d57f8d5361e0aa9c2548916511bb58694a6bb6252c02f8f070ba182281e35312d3798b5563e2a89e274a936713b95a6b4869b4272e00faf272b81a2083e15110d17b89576deca69029449d691db754654667ba29200ef4fc7cb6142e8def5f1edf7587596feea4922b469f6b1fb556674465b82b220cf6fe7eb4162c8fed5d1cdd77855b69e8a2942d40996d19b350614263be2d240af0f878b2102a89eb5b1adb71835d6beaa0962f429b6f1bb152634061bc2f2608f2fa7ab012288be95918d973815f65e4ae98214c956115bf5c6d4e6fb2212806fcf474be1c2685e75716d77d8f5167e6ac9a234e976317bd5e6f4c6db0232a04fef676bc1e2487e55514d57f8d5361e0aa9c2548916511bb58694a6bb6252c02f8f070ba182281e35312d3798b5563e2a89e274a936713b95a6b4869b4272e00faf272b81a2083e15110d17b89576deca69029449d691db754654667ba292671d6750b60311e2e8759e4e2f18fae84d763e3eac450f073a613ce0203a54ab",
        "hex": "6a201f0af222df805d7a8d63983f79aa79895a303b87387441499b19df9371754b934db0045e4ae98214c956115bf5c6d4e6fb2212806fcf474be1c2685e75716d77d8f5167e6ac9a234e976317bd5e6f4c6db0232a04fef676bc1e2487e55514d57f8d5361e0aa9c2548916511bb58694a6bb6252c02f8f070ba182281e35312d3798b5563e2a89e274a936713b95a6b4869b4272e00faf272b81a2083e15110d17b89576deca69029449d691db754654667ba29200ef4fc7cb6142e8def5f1edf7587596feea4922b469f6b1fb556674465b82b220cf6fe7eb4162c8fed5d1cdd77855b69e8a2942d40996d19b350614263be2d240af0f878b2102a89eb5b1adb71835d6beaa0962f429b6f1bb152634061bc2f2608f2fa7ab012288be95918d973815f65e4ae98214c956115bf5c6d4e6fb2212806fcf474be1c2685e75716d77d8f5167e6ac9a234e976317bd5e6f4c6db0232a04fef676bc1e2487e55514d57f8d5361e0aa9c2548916511bb58694a6bb6252c02f8f070ba182281e35312d3798b5563e2a89e274a936713b95a6b4869b4272e00faf272b81a2083e15110d17b89576deca69029449d691db754654667ba29200ef4fc7cb6142e8def5f1edf7587596feea4922b469f6b1fb556674465b82b220cf6fe7eb4162c8fed5d1cdd77855b69e8a2942d40996d19b350614263be2d240af0f878b2102a89eb5b1adb71835d6beaa0962f429b6f1bb152634061bc2f2608f2fa7ab012288be95918d973815f65e4ae98214c956115bf5c6d4e6fb2212806fcf474be1c2685e75716d77d8f5167e6ac9a234e976317bd5e6f4c6db0232a04fef676bc1e2487e55514d57f8d5361e0aa9c2548916511bb58694a6bb6252c02f8f070ba182281e35312d3798b5563e2a89e274a936713b95a6b4869b4272e00faf272b81a2083e15110d17b89576deca69029449d691db754654667ba29200ef4fc7cb6142e8def5f1edf7587596feea4922b469f6b1fb556674465b82b220cf6fe7eb4162c8fed5d1cdd77855b69e8a2942d40996d19b350614263be2d240af0f878b2102a89eb5b1adb71835d6beaa0962f429b6f1bb152634061bc2f2608f2fa7ab012288be95918d973815f65e4ae98214c956115bf5c6d4e6fb2212806fcf474be1c2685e75716d77d8f5167e6ac9a234e976317bd5e6f4c6db0232a04fef676bc1e2487e55514d57f8d5361e0aa9c2548916511bb58694a6bb6252c02f8f070ba182281e35312d3798b5563e2a89e274a936713b95a6b4869b4272e00faf272b81a2083e15110d17b89576deca69029449d691db754654667ba29200ef4fc7cb6142e8def5f1edf7587596feea4922b469f6b1fb556674465b82b220cf6fe7eb4162c8fed5d1cdd77855b69e8a2942d40996d19b350614263be2d240af0f878b2102a89eb5b1adb71835d6beaa0962f429b6f1bb152634061bc2f2608f2fa7ab012288be95918d973815f65e4ae98214c956115bf5c6d4e6fb2212806fcf474be1c2685e75716d77d8f5167e6ac9a234e976317bd5e6f4c6db0232a04fef676bc1e2487e55514d57f8d5361e0aa9c2548916511bb58694a6bb6252c02f8f070ba182281e35312d3798b5563e2a89e274a936713b95a6b4869b4272e00faf272b81a2083e15110d17b89576deca69029449d691db754654667ba292671d6750b60311e2e8759e4e2f18fae84d763e3eac450f073a613ce0203a54ab",
        "type": "nulldata"
      }
    }
  ],
  "blockhash": "ed58b71ef50cb049f6fd5c1ad274bdeb3951d970e0a56ec51ef7152d34b6d8c5",
  "confirmations": 1,
  "time": 1764177054,
  "blocktime": 1764177054
}