{
  "hex": "01000000000101e1afa8c5bfdd29dc276516939415c0e0b585b849cae450deba87c6ba6c991fb50000000000feffffff0200e1f50500000000fdd5046a203c7c80ab905dd6d8c90ca146cab2a2864fa8d2a647ca40f79cf95ceed37550a74db00466714b0296df3422b38dfe0b6c103a8d15f12b182728db60b4998114a28bd4cc46516b22b6ff140293adde2b4c301aad35d10b380708fb4094b9a13482abf4ec26310b42d69f7462f3cdbe4b2c507acd55b16b5867689b20f4d9c154e2cb948c06112b62f6bf5442d3ed9e6b0c705aed75914b784748bb00d4f9e174c2ebb4ace6f1cb82165fb4a2330d7e8bec90ba0d9571ab98a7a85be034190194220b544cc6d1eba2367f9482132d5eabccb09a2db5518bb887887bc0143921b4022b746ca6b18bc2561ff4e2734d3ecbacd0fa4dd531ebd8e7e81ba0745941d4624b140c8691abe2763fd4c2536d1eeb8cf0da6df511cbf8c7c83b80547961f4426b342c66714b0296df3422b38dfe0b6c103a8d15f12b182728db60b4998114a28bd4cc46516b22b6ff140293adde2b4c301aad35d10b380708fb4094b9a13482abf4ec26310b42d69f7462f3cdbe4b2c507acd55b16b5867689b20f4d9c154e2cb948c06112b62f6bf5442d3ed9e6b0c705aed75914b784748bb00d4f9e174c2ebb4ace6f1cb82165fb4a2330d7e8bec90ba0d9571ab98a7a85be034190194220b544cc6d1eba2367f9482132d5eabccb09a2db5518bb887887bc0143921b4022b746ca6b18bc2561ff4e2734d3ecbacd0fa4dd531ebd8e7e81ba0745941d4624b140c8691abe2763fd4c2536d1eeb8cf0da6df511cbf8c7c83b80547961f4426b342c66714b0296df3422b38dfe0b6c103a8d15f12b182728db60b4998114a28bd4cc46516b22b6ff140293adde2b4c301aad35d10b380708fb4094b9a13482abf4ec26310b42d69f7462f3cdbe4b2c507acd55b16b5867689b20f4d9c154e2cb948c06112b62f6bf5442d3ed9e6b0c705aed75914b784748bb00d4f9e174c2ebb4ace6f1cb82165fb4a2330d7e8bec90ba0d9571ab98a7a85be034190194220b544cc6d1eba2367f9482132d5eabccb09a2db5518bb887887bc0143921b4022b746ca6b18bc2561ff4e2734d3ecbacd0fa4dd531ebd8e7e81ba0745941d4624b140c8691abe2763fd4c2536d1eeb8cf0da6df511cbf8c7c83b80547961f4426b342c66714b0296df3422b38dfe0b6c103a8d15f12b182728db60b4998114a28bd4cc46516b22b6ff140293adde2b4c301aad35d10b380708fb4094b9a13482abf4ec26310b42d69f7462f3cdbe4b2c507acd55b16b5867689b20f4d9c154e2cb948c06112b62f6bf5442d3ed9e6b0c705aed75914b784748bb00d4f9e174c2ebb4ace6f1cb82165fb4a2330d7e8bec90ba0d9571ab98a7a85be034190194220b544cc6d1eba2367f9482132d5eabccb09a2db5518bb887887bc0143921b4022b746ca6b18bc2561ff4e2734d3ecbacd0fa4dd531ebd8e7e81ba0745941d4624b140c8691abe2763fd4c2536d1eeb8cf0da6df511cbf8c7c83b80547961f4426b342c66714b0296df3422b38dfe0b6c103a8d15f12b182728db60b4998114a28bd4cc46516b22b6ff140293adde2b4c301aad35d10b380708fb4094b9a13482abf4ec26310b42d69f7462f3cdbe4b2c507acd55b16b5867689b20f4d9c154e2cb948c06112b62f6bf5442d3ed9e6b0c705aed75914b784748bb00d4f9e174c2ebb4ace6f1cb82165fb4a2330d7e8bec90ba0d2258061c02c6f37483f5d45f85df954fe3a460c67cdb4a2dab03597a517c267070cc3221792d00002251206c4852f33fabcea118c8d10de7b0ef43c93989eed844a6eb395faa27fa6d0db602fd75099d19d8a2d50af43e6bc080432fa6c7e836fdcf033942e807911da9c8c8259c61afa155b3bde84fda36ced9caae7c0eb2b9f4780eebc3b54aa766574a89d39b7acfdc2f02cc4dfcd6e573f155fc142e48e07f0e6a6c4155ec2a94d267ff665152e81852191628167b86d180ed05f9a6c1a2b7a0885b00579855e4fa8683865d8599c75b249a3e6a7c3168b10c43b20367271b20ea1e9f2046d31aa29104e9515a1794ac02daff54011997779b24493ac8574d07f258b3f413fa813dafbd71a66ca3f3b270854aec146cb3186b4316d66730cf612142a7234a2e8483fe910022fbe84ac9643a4fb152d31266514243df953f3607e781631cdaf2645520c1e3b054c76d81148eb70766c3147cd4eabba9b2e93652f609f8108964d6920053e98a0a823c791a1a47b87d79c74379d7ebcb2ede4c838f57199cb9dee1f16a4d07b55a397cea80d42756d94ca081e7ffb5d5ccb9f537e6963e9e56d03469fbe20d64c4af21833c9ecb87696008033c4252ee2e1cca7149991aa04c924dae2b9518f7e585c1bc4309a81804542cf8ae84e7c220e350e08ce939d068476d9339800503851787e02ea4180ee8fbcfa175e84a153d37b47de610292e8795d1ea6ac683472b23e30b0c1f865cdbdc12d61abd4acd871998e5e0cb7f5f6709dd9228ee35fa726e04f9c96b8536231373ffafad8b921ce662b2b37130e3ae935f07365ffb6a4330a733ac12ad8aa4a4542ff1056821348a978ee2c050e91553cd06b7ad9d704b5e886767455c2af8a9087b05145797df0be9759c288a67194fa47a9746998c516b888525961b76236269b6bdad1da751eded1b583ebc4ad7885d8398081ae57a19b466da839ed7a1a7996e1c5a6fba826044865c5139cb5c01c68d4d89cf7c375c1922c4181b94f0a24850740c14a155561f685a9e34a071e11336757da0d018156a7b7c05b2b677ff853478c8268fbbbd491e5a0c94169829fd141a0146b228b5834a1ae0fc3fc648f7aed655258852b7f68a16cd627672a3bd6ae3d7f767e1091974309de1343a14fbff13d33d4f563d0733f5349604089de275b7fc9dba7cd3162802405fa794f06bca1f96ac262f63300093bf4bbc9e2063dfa5f92489fc49192c33d05ac86fbd11e94dc21027cb1c6935ba58da38798093fcbb135262b1fe756e555381a9abd97e10c63db3bd7225ecd695c18b86fb316651034eb02a87d4bb33fbce59a062e43fc624bbbb5924ffd2ebb143925f03cff0e8693933bb56d11c8771853d2156d0fb215b9035016848c0a21b7232725adb7bddbc9b74b0621118bbb6b0b04328ce0b2e65fc2afbd4386d5655469004d6d5d894f72afd33af4325aa0a72d8f3882e660003c63f1ddad2da9f26998913ef9ffe0afba15c987f993ba21ee3a1c4a0d1ac4f401a484c769e887462e7a2bece6f0c72d337faa93db2fa072cb012fc3fd01d644f2dcb08f3c6561c0a0cf35d3c89b5417af0656fea3790933e319971bd938c5deea30880ca2c67bd107ecbcf330905cf38c73bb3f8f35eb0045a948e55c64315eb4468d8c6471c4e339d194a4f65007984b03e8008234f3cf6c7cd6b307582a7a8faf5af11c1c62f0339a40b45dbdd2c1c0552264e29e0b44374e9969d3a7cf28ecfb74b295a2b7888db451f04e5b750021350f96adcb080ae825129c278492bb80ffe5856ba5738e87853fb3421d9dee2608738193a5cc0a89908c897d075fe246034aefffc43ea570b52dfbfba44bfc6ee9ce460b69d6fa3886a5d64d05ab5906710b5dbc8b044f614b78a570f42b99c12edee90f417553adbdea7255989f534701aa0da93c2dec767246e0d3e5db5eb921a28a329064d275a89f1d1587df01308e6d40c451b618524f07a01570267482b92fb8841b3f9fd50b5bfa50b8194b46d5db000f401f0fb29778d03479e4f188080bc9460035de117d64f70fbb1135ebd0766e7ccbb555e1f9d9b170ec893209eb8e5ee16a46e2b0ebcb2e578fae850f45bac8578ba5856e5ece59c120c8e57c4366ca3c9fd62cf394ef2696095f0184fd6aa467c3bffefb996b8ea0ed358ed4aef034ab3bd530405296a4359520c94df06e8b0ef70d0ceec7fd7cb20d7ce2c05b547516238cb57d194b7afdea4a16998ab5be9f11ffe217bfab9cd396b2427e3f876f4c0174711c48fab029627caa8d34fff6b13c449a81b16e687d182a0f3b848092bd78d945857ae71a21e46c5fd24cbd7436537087adc068a9f8ef491ec1d19098cc8c3780c1fe36fd2cb5e426180381fb413ec9bac0136346df1ee4f0697f9486eca3fb82473fd465d181ba2ff7ae4dd0490c1917922d88d254d7414b1b9e2ba1fb36ec00b702ef927781cc7323ae764c9be168127873277615b5e17789c77b8f2f22b2b5f42affad0604e3caf6f355283ddbd1a57febf6108191c41ffa23a4341af9de2952d18b6deeef67f8faea1c688cd5355ee27556d11b1af11486f185a06baf32d5313fd08c96c2e5f9d77d2a07de24281b684edfe25d088c954f746ff4c0ca19906588e652013a355f2856ac4e5ea3e1e7df309305ef7548476a5e1b1729e0dfc841143fa6d555b525e9da9f788a2b339433e3786e7cc638241715e65521f0c3e2cfdc37ae2d38164174525d0324e88b334050e36cbb33fb768eb861409a62ad19804d1c76e601a27c31cfd4307e06504b7183bbdf43430fa85ce1a420f8db0be2522093841e512e24c1264da5b1ebd0616f5389832d03cbd25e84a447c6881494fd18cb3d4621b6521e595c9d177b98cacd4c3ca50022bb89b489b77c8df6aaafb5f68ffb1c3cead61bfccbaf34914a53e698dfe2c95337a84a227b68912e0a614b00f207b2addda9dd4fcada8bb38e223f5c10f64babc4feedb9ea056fc7072f4c16dadab062a2555fbad0f2da45cc3df59b0fbf190db2552f18a9886b2788b4ad3a766d1aae8b5a1b3fa3db88e8f9ae7c79b1abd8100b47eacd53409591ccee1597c27ae04645f87f0f1495e507946e288402fdc39caea8e68d73620b2f949746494919584293d47680b18b36ae8e64d87c19ee505867fd23fb12dfb3cb9d801b95f4e553e7051c9d0b13773e54a4245b145665d1f3eb164d7c5bc89e1bf1309a9d0e5fcd8bb95cc270d52e21e06e927f3a0c8933681da6b889a5df67bb52614a2ee54f914c32891d5e572ff10962eecfcda159d9902405732e208dc702bb60c344c9fe22471f1df4fa5d930d50285fc6daea943fe98cf55d3dfbf796a07a4c43500618a9c02ce34fccf4660ac5219cfb13ddf1d8e4b89b09f43c6e204202e315182df040611414f5154656e7e808b99b1b7bdc7ced9e3eb1d383b42547d7e80828792a1a5afb7c2c9cfe9f1f40d567c8593989da6b6c8d6e9f7fd0000000000000000000000000000000000071c313f01fd210500657b7293c5a20bdf406bd724b1934ff956db479dd2459c42eb4cd0a7e49507df720d3e3d4146ef365d60f2521df0b1c09be333c6a2a227dd3316325de07c95f8ef53d904ae25b9c8b7d005b8a0d16947193744acaec4536a304aed501dfe26cd7bdff88ffcbb32c42a6a9a71f6dda6da831cd44b41e0b79d2b64cb0c18cb3ede596f6698632e7bf54912984c12eb2eda6ba0c6b43b365853b5c8b2c6fd8ec77be9bf954e5220123800b424e057eecadd2027299bc268867dc6052987590f2ac2d339f19a7b1378f9cca7452fc9d8b6513e63195ec2417fae999d8caedf169d863f7efd9cfb5f19035c0e41bb0b036211f5ab08c9e9c2a8814e3675b842b09d2da02a4553f7795aae16b0c2425ef5f4da26fbfa344e848445279ec0ed9693c2026c8f945c53b45bdf3e176bc7755d5ec8fd7596db09503a55fe75923246fc23db3a816f11cd1f4dbc4b05d8fc33e98e09ed3993d2171dc45b0d43e51287f1e22a95fde763698231562056677f4f5bd24998d22964917e57ca87c94c994d7a40a9938dd6eafa668d72e4361b16b7a518c9e758a9fd2810b7222efa9f3b0be3fafc3428a5ba2d2e9d8410cacc20f255dee54dfb73732f5d3c05e76a248cf9c58d7fe36e30de99578513491f8403c7032d31865fc794ca12a905e48c93cceb15fcb089658b2b37418e83e5f2c8315f3d191f10d7a04537d8dc549990f52b181543550172ef0c0836dd63c3e1dfb95a7efd99824ff529d418ae0090ed801e04dd274309ddade36f48b855a0e3d8edfcbd35dadc4fc074e4379486ab7f6f61490fc053428ddc1a4d574476da6d533d1794b55bf64e0234087f3da9491ae043e0354ca60e8c26aefc144477d338c13c9c5d335bd1b2523762ee9f343065b6f88594d55840a8d34a014dfb21a8ef3842d9520ed8fc679743ad11d12644db6dd0a34b6683a120e73adf3e89808401aefb99b39b656c0ea6b74a7a9190286ec5e14355620dcdf0abe5fcd9f1bb2eb87f7aefff899fee437b551e1d7b4d7d5c15b0379ef3f2fca19dd8ed6928dffa48fce4c87a4440920daff1dc4b352eba2d409115dfc89d6d48f499a5b02a3b2da09698cedcc610671edee17bae7ba9e6d65b97302392c6a30c33fe533e586ad3172990fd0884e16ade9e7ceaed58414341cbe7d9aac9fabfa10dd68b76945c9dc957d45b0b460e7e7b2d6e3b7002ea3a1bb951538e4d1e968a706f037c9f70a9514584cd54563bd339f20e89b1ee121f014377a013bddc9fe4bc5fe2ffabcbdd4331fb006c3ac532002791c5c20d41835c21bed030559ed85b9febbc92df96e40c9143dd1c0c5df0eb1b96f7b6a22453c6badbde0d7f18d67ae242f182cc8f811487cd93b0e67bc2c936723521e20b4064d48d6f6e7112834a425115ec305e70f6c9645b6f1061fb73442c4e0ce2d39cf5ce0d75998d8e9ea57a3d54f6cfd778f6f2da119bdacb44cc04ae92f508a4ec02541baa154d4e49f55044a59ccbf3c7068fe1106215fefac02eaa3db58275e7f00f9779e46739c38d92d083e97140ebd8e622c9e8937f6edb271654baee74222a6c1b4e6c575853787c0f4638b86c8340e341883c2bbefe69c9e7fea5d1311fc490cc66fc9e7fe062f21e7389415d10ff0608a5a291d64610cbf5bf8e23a60629f7b6fc9322172d3386ea02c99eb1fbd3e273ccc46c7bab158a642fdee6152527ba4530aa9d9e6b5f45b2fa9a9761ea016f86ad9d404001e53f4c4c582a80337ba88e50cecc9ca2b982717b221871f58e892b94ba929efb10cea43b7b838784b37db4d5935d9ec1433c6950f1eaf3a7e975bfe43c18d34034ff225808e395444c41f12c29432b73000000",
  "txid": "26c2f75a0c2f2998227b9e6972c4774015750fc94afc91cbf56b101f7f28b990",
  "hash": "d9f26571b4528f6d258a4791db4df8dead5cb4b6087e275dda6ef2b9b2004150",
  "size": 5085,
  "vsize": 2278,
  "version": 1,
  "locktime": 115,
  "vin": [
    {
      "txid": "b51f996cbac687bade50e4ca49b885b5e0c0159493166527dc29ddbfc5a8afe1",
      "vout": 0,
      "scriptSig": {
        "asm": "",
        "hex": ""
      },
      "txinwitness": [
        "9d19d8a2d50af43e6bc080432fa6c7e836fdcf033942e807911da9c8c8259c61afa155b3bde84fda36ced9caae7c0eb2b9f4780eebc3b54aa766574a89d39b7acfdc2f02cc4dfcd6e573f155fc142e48e07f0e6a6c4155ec2a94d267ff665152e81852191628167b86d180ed05f9a6c1a2b7a0885b00579855e4fa8683865d8599c75b249a3e6a7c3168b10c43b20367271b20ea1e9f2046d31aa29104e9515a1794ac02daff54011997779b24493ac8574d07f258b3f413fa813dafbd71a66ca3f3b270854aec146cb3186b4316d66730cf612142a7234a2e8483fe910022fbe84ac9643a4fb152d31266514243df953f3607e781631cdaf2645520c1e3b054c76d81148eb70766c3147cd4eabba9b2e93652f609f8108964d6920053e98a0a823c791a1a47b87d79c74379d7ebcb2ede4c838f57199cb9dee1f16a4d07b55a397cea80d42756d94ca081e7ffb5d5ccb9f537e6963e9e56d03469fbe20d64c4af21833c9ecb87696008033c4252ee2e1cca7149991aa04c924dae2b9518f7e585c1bc4309a81804542cf8ae84e7c220e350e08ce939d068476d9339800503851787e02ea4180ee8fbcfa175e84a153d37b47de610292e8795d1ea6ac683472b23e30b0c1f865cdbdc12d61abd4acd871998e5e0cb7f5f6709dd9228ee35fa726e04f9c96b8536231373ffafad8b921ce662b2b37130e3ae935f07365ffb6a4330a733ac12ad8aa4a4542ff1056821348a978ee2c050e91553cd06b7ad9d704b5e886767455c2af8a9087b05145797df0be9759c288a67194fa47a9746998c516b888525961b76236269b6bdad1da751eded1b583ebc4ad7885d8398081ae57a19b466da839ed7a1a7996e1c5a6fba826044865c5139cb5c01c68d4d89cf7c375c1922c4181b94f0a24850740c14a155561f685a9e34a071e11336757da0d018156a7b7c05b2b677ff853478c8268fbbbd491e5a0c94169829fd141a0146b228b5834a1ae0fc3fc648f7aed655258852b7f68a16cd627672a3bd6ae3d7f767e1091974309de1343a14fbff13d33d4f563d0733f5349604089de275b7fc9dba7cd3162802405fa794f06bca1f96ac262f63300093bf4bbc9e2063dfa5f92489fc49192c33d05ac86fbd11e94dc21027cb1c6935ba58da38798093fcbb135262b1fe756e555381a9abd97e10c63db3bd7225ecd695c18b86fb316651034eb02a87d4bb33fbce59a062e43fc624bbbb5924ffd2ebb143925f03cff0e8693933bb56d11c8771853d2156d0fb215b9035016848c0a21b7232725adb7bddbc9b74b0621118bbb6b0b04328ce0b2e65fc2afbd4386d5655469004d6d5d894f72afd33af4325aa0a72d8f3882e660003c63f1ddad2da9f26998913ef9ffe0afba15c987f993ba21ee3a1c4a0d1ac4f401a484c769e887462e7a2bece6f0c72d337faa93db2fa072cb012fc3fd01d644f2dcb08f3c6561c0a0cf35d3c89b5417af0656fea3790933e319971bd938c5deea30880ca2c67bd107ecbcf330905cf38c73bb3f8f35eb0045a948e55c64315eb4468d8c6471c4e339d194a4f65007984b03e8008234f3cf6c7cd6b307582a7a8faf5af11c1c62f0339a40b45dbdd2c1c0552264e29e0b44374e9969d3a7cf28ecfb74b295a2b7888db451f04e5b750021350f96adcb080ae825129c278492bb80ffe5856ba5738e87853fb3421d9dee2608738193a5cc0a89908c897d075fe246034aefffc43ea570b52dfbfba44bfc6ee9ce460b69d6fa3886a5d64d05ab5906710b5dbc8b044f614b78a570f42b99c12edee90f417553adbdea7255989f534701aa0da93c2dec767246e0d3e5db5eb921a28a329064d275a89f1d1587df01308e6d40c451b618524f07a01570267482b92fb8841b3f9fd50b5bfa50b8194b46d5db000f401f0fb29778d03479e4f188080bc9460035de117d64f70fbb1135ebd0766e7ccbb555e1f9d9b170ec893209eb8e5ee16a46e2b0ebcb2e578fae850f45bac8578ba5856e5ece59c120c8e57c4366ca3c9fd62cf394ef2696095f0184fd6aa467c3bffefb996b8ea0ed358ed4aef034ab3bd530405296a4359520c94df06e8b0ef70d0ceec7fd7cb20d7ce2c05b547516238cb57d194b7afdea4a16998ab5be9f11ffe217bfab9cd396b2427e3f876f4c0174711c48fab029627caa8d34fff6b13c449a81b16e687d182a0f3b848092bd78d945857ae71a21e46c5fd24cbd7436537087adc068a9f8ef491ec1d19098cc8c3780c1fe36fd2cb5e426180381fb413ec9bac0136346df1ee4f0697f9486eca3fb82473fd465d181ba2ff7ae4dd0490c1917922d88d254d7414b1b9e2ba1fb36ec00b702ef927781cc7323ae764c9be168127873277615b5e17789c77b8f2f22b2b5f42affad0604e3caf6f355283ddbd1a57febf6108191c41ffa23a4341af9de2952d18b6deeef67f8faea1c688cd5355ee27556d11b1af11486f185a06baf32d5313fd08c96c2e5f9d77d2a07de24281b684edfe25d088c954f746ff4c0ca19906588e652013a355f2856ac4e5ea3e1e7df309305ef7548476a5e1b1729e0dfc841143fa6d555b525e9da9f788a2b339433e3786e7cc638241715e65521f0c3e2cfdc37ae2d38164174525d0324e88b334050e36cbb33fb768eb861409a62ad19804d1c76e601a27c31cfd4307e06504b7183bbdf43430fa85ce1a420f8db0be2522093841e512e24c1264da5b1ebd0616f5389832d03cbd25e84a447c6881494fd18cb3d4621b6521e595c9d177b98cacd4c3ca50022bb89b489b77c8df6aaafb5f68ffb1c3cead61bfccbaf34914a53e698dfe2c95337a84a227b68912e0a614b00f207b2addda9dd4fcada8bb38e223f5c10f64babc4feedb9ea056fc7072f4c16dadab062a2555fbad0f2da45cc3df59b0fbf190db2552f18a9886b2788b4ad3a766d1aae8b5a1b3fa3db88e8f9ae7c79b1abd8100b47eacd53409591ccee1597c27ae04645f87f0f1495e507946e288402fdc39caea8e68d73620b2f949746494919584293d47680b18b36ae8e64d87c19ee505867fd23fb12dfb3cb9d801b95f4e553e7051c9d0b13773e54a4245b145665d1f3eb164d7c5bc89e1bf1309a9d0e5fcd8bb95cc270d52e21e06e927f3a0c8933681da6b889a5df67bb52614a2ee54f914c32891d5e572ff10962eecfcda159d9902405732e208dc702bb60c344c9fe22471f1df4fa5d930d50285fc6daea943fe98cf55d3dfbf796a07a4c43500618a9c02ce34fccf4660ac5219cfb13ddf1d8e4b89b09f43c6e204202e315182df040611414f5154656e7e808b99b1b7bdc7ced9e3eb1d383b42547d7e80828792a1a5afb7c2c9cfe9f1f40d567c8593989da6b6c8d6e9f7fd0000000000000000000000000000000000071c313f01",
        "00657b7293c5a20bdf406bd724b1934ff956db479dd2459c42eb4cd0a7e49507df720d3e3d4146ef365d60f2521df0b1c09be333c6a2a227dd3316325de07c95f8ef53d904ae25b9c8b7d005b8a0d16947193744acaec4536a304aed501dfe26cd7bdff88ffcbb32c42a6a9a71f6dda6da831cd44b41e0b79d2b64cb0c18cb3ede596f6698632e7bf54912984c12eb2eda6ba0c6b43b365853b5c8b2c6fd8ec77be9bf954e5220123800b424e057eecadd2027299bc268867dc6052987590f2ac2d339f19a7b1378f9cca7452fc9d8b6513e63195ec2417fae999d8caedf169d863f7efd9cfb5f19035c0e41bb0b036211f5ab08c9e9c2a8814e3675b842b09d2da02a4553f7795aae16b0c2425ef5f4da26fbfa344e848445279ec0ed9693c2026c8f945c53b45bdf3e176bc7755d5ec8fd7596db09503a55fe75923246fc23db3a816f11cd1f4dbc4b05d8fc33e98e09ed3993d2171dc45b0d43e51287f1e22a95fde763698231562056677f4f5bd24998d22964917e57ca87c94c994d7a40a9938dd6eafa668d72e4361b16b7a518c9e758a9fd2810b7222efa9f3b0be3fafc3428a5ba2d2e9d8410cacc20f255dee54dfb73732f5d3c05e76a248cf9c58d7fe36e30de99578513491f8403c7032d31865fc794ca12a905e48c93cceb15fcb089658b2b37418e83e5f2c8315f3d191f10d7a04537d8dc549990f52b181543550172ef0c0836dd63c3e1dfb95a7efd99824ff529d418ae0090ed801e04dd274309ddade36f48b855a0e3d8edfcbd35dadc4fc074e4379486ab7f6f61490fc053428ddc1a4d574476da6d533d1794b55bf64e0234087f3da9491ae043e0354ca60e8c26aefc144477d338c13c9c5d335bd1b2523762ee9f343065b6f88594d55840a8d34a014dfb21a8ef3842d9520ed8fc679743ad11d12644db6dd0a34b6683a120e73adf3e89808401aefb99b39b656c0ea6b74a7a9190286ec5e14355620dcdf0abe5fcd9f1bb2eb87f7aefff899fee437b551e1d7b4d7d5c15b0379ef3f2fca19dd8ed6928dffa48fce4c87a4440920daff1dc4b352eba2d409115dfc89d6d48f499a5b02a3b2da09698cedcc610671edee17bae7ba9e6d65b97302392c6a30c33fe533e586ad3172990fd0884e16ade9e7ceaed58414341cbe7d9aac9fabfa10dd68b76945c9dc957d45b0b460e7e7b2d6e3b7002ea3a1bb951538e4d1e968a706f037c9f70a9514584cd54563bd339f20e89b1ee121f014377a013bddc9fe4bc5fe2ffabcbdd4331fb006c3ac532002791c5c20d41835c21bed030559ed85b9febbc92df96e40c9143dd1c0c5df0eb1b96f7b6a22453c6badbde0d7f18d67ae242f182cc8f811487cd93b0e67bc2c936723521e20b4064d48d6f6e7112834a425115ec305e70f6c9645b6f1061fb73442c4e0ce2d39cf5ce0d75998d8e9ea57a3d54f6cfd778f6f2da119bdacb44cc04ae92f508a4ec02541baa154d4e49f55044a59ccbf3c7068fe1106215fefac02eaa3db58275e7f00f9779e46739c38d92d083e97140ebd8e622c9e8937f6edb271654baee74222a6c1b4e6c575853787c0f4638b86c8340e341883c2bbefe69c9e7fea5d1311fc490cc66fc9e7fe062f21e7389415d10ff0608a5a291d64610cbf5bf8e23a60629f7b6fc9322172d3386ea02c99eb1fbd3e273ccc46c7bab158a642fdee6152527ba4530aa9d9e6b5f45b2fa9a9761ea016f86ad9d404001e53f4c4c582a80337ba88e50cecc9ca2b982717b221871f58e892b94ba929efb10cea43b7b838784b37db4d5935d9ec1433c6950f1eaf3a7e975bfe43c18d34034ff225808e395444c41f12c29432b"
      ],
      "sequence": 4294967294
    }
  ],
  "vout": [
    {
      "value": 1.0,
      "n": 0,
      "scriptPubKey": {
        "asm": "OP_RETURN 3c7c80ab905dd6d8c90ca146cab2a2864fa8d2a647ca40f79cf95ceed37550a7 66714b0296df3422b38dfe0b6c103a8d15f12b182728db60b4998114a28bd4cc46516b22b6ff140293adde2b4c301aad35d10b380708fb4094b9a13482abf4ec26310b42d69f7462f3cdbe4b2c507acd55b16b5867689b20f4d9c154e2cb948c06112b62f6bf5442d3ed9e6b0c705aed75914b784748bb00d4f9e174c2ebb4ace6f1cb82165fb4a2330d7e8bec90ba0d9571ab98a7a85be034190194220b544cc6d1eba2367f9482132d5eabccb09a2db5518bb887887bc0143921b4022b746ca6b18bc2561ff4e2734d3ecbacd0fa4dd531ebd8e7e81ba0745941d4624b140c8691abe2763fd4c2536d1eeb8cf0da6df511cbf8c7c83b80547961f4426b342c66714b0296df3422b38dfe0b6c103a8d15f12b182728db60b4998114a28bd4cc46516b22b6ff140293adde2b4c301aad35d10b380708fb4094b9a13482abf4ec26310b42d69f7462f3cdbe4b2c507acd55b16b5867689b20f4d9c154e2cb948c06112b62f6bf5442d3ed9e6b0c705aed75914b784748bb00d4f9e174c2ebb4ace6f1cb82165fb4a2330d7e8bec90ba0d9571ab98a7a85be034190194220b544cc6d1eba2367f9482132d5eabccb09a2db5518bb887887bc0143921b4022b746ca6b18bc2561ff4e2734d3ecbacd0fa4dd531ebd8e7e81ba0745941d4624b140c8691abe2763fd4c2536d1eeb8cf0da6df511cbf8c7c83b80547961f4426b342c66714b0296df3422b38dfe0b6c103a8d15f12b182728db60b4998114a28bd4cc46516b22b6ff140293adde2b4c301aad35d10b380708fb4094b9a13482abf4ec26310b42d69f7462f3cdbe4b2c507acd55b16b5867689b20f4d9c154e2cb948c06112b62f6bf5442d3ed9e6b0c705aed75914b784748bb00d4f9e174c2ebb4ace6f1cb82165fb4a2330d7e8bec90ba0d9571ab98a7a85be034190194220b544cc6d1eba2367f9482132d5eabccb09a2db5518bb887887bc0143921b4022b746ca6b18bc2561ff4e2734d3ecbacd0fa4dd531ebd8e7e81ba0745941d4624b140c8691abe2763fd4c2536d1eeb8cf0da6df511cbf8c7c83b80547961f4426b342c66714b0296df3422b38dfe0b6c103a8d15f12b182728db60b4998114a28bd4cc46516b22b6ff140293adde2b4c301aad35d10b380708fb4094b9a13482abf4ec26310b42d69f7462f3cdbe4b2c507acd55b16b5867689b20f4d9c154e2cb948c06112b62f6bf5442d3ed9e6b0c705aed75914b784748bb00d4f9e174c2ebb4ace6f1cb82165fb4a2330d7e8bec90ba0d9571ab98a7a85be034190194220b544cc6d1eba2367f9482132d5eabccb09a2db5518bb887887bc0143921b4022b746ca6b18bc2561ff4e2734d3ecbacd0fa4dd531ebd8e7e81ba0745941d4624b140c8691abe2763fd4c2536d1eeb8cf0da6df511cbf8c7c83b80547961f4426b342c66714b0296df3422b38dfe0b6c103a8d15f12b182728db60b4998114a28bd4cc46516b22b6ff140293adde2b4c301aad35d10b380708fb4094b9a13482abf4ec26310b42d69f7462f3cdbe4b2c507acd55b16b5867689b20f4d9c154e2cb948c06112b62f6bf5442d3ed9e6b0c705aed75914b784748bb00d4f9e174c2ebb4ace6f1cb82165fb4a2330d7e8bec90ba0d2258061c02c6f37483f5d45f85df954fe3a460c67cdb4a2dab03597a517c2670",
        "hex": "6a203c7c80ab905dd6d8c90ca146cab2a2864fa8d2a647ca40f79cf95ceed37550a74db00466714b0296df3422b38dfe0b6c103a8d15f12b182728db60b4998114a28bd4cc46516b22b6ff140293adde2b4c301aad35d10b380708fb4094b9a13482abf4ec26310b42d69f7462f3cdbe4b2c507acd55b16b5867689b20f4d9c154e2cb948c06112b62f6bf5442d3ed9e6b0c705aed75914b784748bb00d4f9e174c2ebb4ace6f1cb82165fb4a2330d7e8bec90ba0d9571ab98a7a85be034190194220b544cc6d1eba2367f9482132d5eabccb09a2db5518bb887887bc0143921b4022b746ca6b18bc2561ff4e2734d3ecbacd0fa4dd531ebd8e7e81ba0745941d4624b140c8691abe2763fd4c2536d1eeb8cf0da6df511cbf8c7c83b80547961f4426b342c66714b0296df3422b38dfe0b6c103a8d15f12b182728db60b4998114a28bd4cc46516b22b6ff140293adde2b4c301aad35d10b380708fb4094b9a13482abf4ec26310b42d69f7462f3cdbe4b2c507acd55b16b5867689b20f4d9c154e2cb948c06112b62f6bf5442d3ed9e6b0c705aed75914b784748bb00d4f9e174c2ebb4ace6f1cb82165fb4a2330d7e8bec90ba0d9571ab98a7a85be034190194220b544cc6d1eba2367f9482132d5eabccb09a2db5518bb887887bc0143921b4022b746ca6b18bc2561ff4e2734d3ecbacd0fa4dd531ebd8e7e81ba0745941d4624b140c8691abe2763fd4c2536d1eeb8cf0da6df511cbf8c7c83b80547961f4426b342c66714b0296df3422b38dfe0b6c103a8d15f12b182728db60b4998114a28bd4cc46516b22b6ff140293adde2b4c301aad35d10b380708fb4094b9a13482abf4ec26310b42d69f7462f3cdbe4b2c507acd55b16b5867689b20f4d9c154e2cb948c06112b62f6bf5442d3ed9e6b0c705aed75914b784748bb00d4f9e174c2ebb4ace6f1cb82165fb4a2330d7e8bec90ba0d9571ab98a7a85be034190194220b544cc6d1eba2367f9482132d5eabccb09a2db5518bb887887bc0143921b4022b746ca6b18bc2561ff4e2734d3ecbacd0fa4dd531ebd8e7e81ba0745941d4624b140c8691abe2763fd4c2536d1eeb8cf0da6df511cbf8c7c83b80547961f4426b342c66714b0296df3422b38dfe0b6c103a8d15f12b182728db60b4998114a28bd4cc46516b22b6ff140293adde2b4c301aad35d10b380708fb4094b9a13482abf4ec26310b42d69f7462f3cdbe4b2c507acd55b16b5867689b20f4d9c154e2cb948c06112b62f6bf5442d3ed9e6b0c705aed75914b784748bb00d4f9e174c2ebb4ace6f1cb82165fb4a2330d7e8bec90ba0d9571ab98a7a85be034190194220b544cc6d1eba2367f9482132d5eabccb09a2db5518bb887887bc0143921b4022b746ca6b18bc2561ff4e2734d3ecbacd0fa4dd531ebd8e7e81ba0745941d4624b140c8691abe2763fd4c2536d1eeb8cf0da6df511cbf8c7c83b80547961f4426b342c66714b0296df3422b38dfe0b6c103a8d15f12b182728db60b4998114a28bd4cc46516b22b6ff140293adde2b4c301aad35d10b380708fb4094b9a13482abf4ec26310b42d69f7462f3cdbe4b2c507acd55b16b5867689b20f4d9c154e2cb948c06112b62f6bf5442d3ed9e6b0c705aed75914b784748bb00d4f9e174c2ebb4ace6f1cb82165fb4a2330d7e8bec90ba0d2258061c02c6f37483f5d45f85df954fe3a460c67cdb4a2dab03597a517c2670",
        "type": "nulldata"
      }
    },
    {
      "value": 499982.7127,
      "n": 1,
      "scriptPubKey": {
        "asm": "1 6c4852f33fabcea118c8d10de7b0ef43c93989eed844a6eb395faa27fa6d0db6",
        "hex": "51206c4852f33fabcea118c8d10de7b0ef43c93989eed844a6eb395faa27fa6d0db6",
        "reqSigs": 1,
        "type": "witness_v1_scripthash",
        "addresses": [
          "3QJmnh"
        ]
      }
    }
  ],
  "blockhash": "b157fe5006ea74e3e2696296011f5383f171fa956e468cbbd84742f98a1af3af",
  "confirmations": 1,
  "time": 1764179051,
  "blocktime": 1764179051
}