{
  "hex": "01000000000101a4962caa8655f74f1fb7025b70938e6ff82090e529a1f5b1de5b527840a9fa450000000000feffffff0200e1f50500000000fdd5046a205b8a72e9066c881bddb427761f77dd3f1fcc01e36246584ea7a2fb3c5569a0b54db004ba351d125d21356b3fe5be2c7e01c82ab75350f7da42365e110978f0f1d3aeef9a153d327d01154b1fc59e0c5e21e80a977370d7fa62167e312958d0d1f38ecffa755d521d61752b7fa5fe6c3e41886af71310b79a02761e514938b0b193eeafda557d723d41550b5f85de4c1e61a84ad7333097ba22563e7169189091b3ce8f3ab59d92dda1b5ebbf653eacfe8148aa37d3d0775ac2b6de9189f87071532e6f1a95bdb2fd8195cb9f451e8cdea1688a17f3f0577ae296feb1a9d85051730e4f7af5ddd29de1f5abff257eecbec108ea779390371a82f69ed1c9b83031136e2f5ad5fdf2bdc1d58bdf055ecc9ee128ca57b3b0173aa2d6bef1e9981011334e0fba351d125d21356b3fe5be2c7e01c82ab75350f7da42365e110978f0f1d3aeef9a153d327d01154b1fc59e0c5e21e80a977370d7fa62167e312958d0d1f38ecffa755d521d61752b7fa5fe6c3e41886af71310b79a02761e514938b0b193eeafda557d723d41550b5f85de4c1e61a84ad7333097ba22563e7169189091b3ce8f3ab59d92dda1b5ebbf653eacfe8148aa37d3d0775ac2b6de9189f87071532e6f1a95bdb2fd8195cb9f451e8cdea1688a17f3f0577ae296feb1a9d85051730e4f7af5ddd29de1f5abff257eecbec108ea779390371a82f69ed1c9b83031136e2f5ad5fdf2bdc1d58bdf055ecc9ee128ca57b3b0173aa2d6bef1e9981011334e0fba351d125d21356b3fe5be2c7e01c82ab75350f7da42365e110978f0f1d3aeef9a153d327d01154b1fc59e0c5e21e80a977370d7fa62167e312958d0d1f38ecffa755d521d61752b7fa5fe6c3e41886af71310b79a02761e514938b0b193eeafda557d723d41550b5f85de4c1e61a84ad7333097ba22563e7169189091b3ce8f3ab59d92dda1b5ebbf653eacfe8148aa37d3d0775ac2b6de9189f87071532e6f1a95bdb2fd8195cb9f451e8cdea1688a17f3f0577ae296feb1a9d85051730e4f7af5ddd29de1f5abff257eecbec108ea779390371a82f69ed1c9b83031136e2f5ad5fdf2bdc1d58bdf055ecc9ee128ca57b3b0173aa2d6bef1e9981011334e0fba351d125d21356b3fe5be2c7e01c82ab75350f7da42365e110978f0f1d3aeef9a153d327d01154b1fc59e0c5e21e80a977370d7fa62167e312958d0d1f38ecffa755d521d61752b7fa5fe6c3e41886af71310b79a02761e514938b0b193eeafda557d723d41550b5f85de4c1e61a84ad7333097ba22563e7169189091b3ce8f3ab59d92dda1b5ebbf653eacfe8148aa37d3d0775ac2b6de9189f87071532e6f1a95bdb2fd8195cb9f451e8cdea1688a17f3f0577ae296feb1a9d85051730e4f7af5ddd29de1f5abff257eecbec108ea779390371a82f69ed1c9b83031136e2f5ad5fdf2bdc1d58bdf055ecc9ee128ca57b3b0173aa2d6bef1e9981011334e0fba351d125d21356b3fe5be2c7e01c82ab75350f7da42365e110978f0f1d3aeef9a153d327d01154b1fc59e0c5e21e80a977370d7fa62167e312958d0d1f38ecffa755d521d61752b7fa5fe6c3e41886af71310b79a02761e514938b0b193eeafda557d723d41550b5f85de4c1e61a84ad7333097ba22563e7169189091b3ce8f3ab59d92dda1b5ebbf653eacfe8148aa0f15e0734562484e09f851518803629f4acb16d7df0f849aff67839e0034597ff0ceba8f782d000022512029c6805240cc5173297de1113e5a9af6e8a455b08511de4de85a4bce8a3c30e202fd750918c7caa911925dff09bd7a2330582948fd83887646acf10671d573815ddc240c2a84cbf3fb1b7b90a7209c4801f875751e46f01f1fc70e4ae69b2a0c187651ec61d0f2721ee366f42e38f9e8329183d222075a828d87f6075e609359f98ad0c58f035957f603acd31c15a39ed6bdb2716c25d6cca496af58bd84fddf4204e13f0f15620d2d6d77e4b5b1674f0854e84a1f6660f81bc720ad3a37f6b77a0af8cb791617aff505e261b490bfd2e9e549379a072339c741250050913562e8fec913777a42e107de46bfdb6a357ee0fe13a02989f0a7d450c56c467382843ec5fe70cfe14f2939e57adb78921a487e315997bec44b8a04c20f2865811e8dc4f888dd6facff2c13d55110450a66698e5af317091801bbdcaf116a7075f3b5dbf1c2a1032e195a9ea3b76a2500f44fcc68152499b6d57d57f793cdb9fd18f92e2d832da36d86e1058a89891160b19e78e533d9d7edf65131a802bd8c12c7036caf0b4dac8201be1f89a6f01a28bcc7decdd81d132e2ba842aa0479ef04a724512e26f86a0ebebcd725b394187dc649484975a64394234f72a693f01a52c9005ee9ab1d36081bd43921fed7411e109006ec0953afaa51bcf43631b9d57bad71275744921a179fa8297415bfbc95208dd2b9c15504b35fc1d197b26c4f44ade9b2ce9dc018e8684e73fec36b0720721fc632f0499f272a3360abd55c580945376ffe6bcf45665625e7dac6ce1e2b275d09e2b8e50460eca7b24009b5d2b17f735e5a56bb4f4eec3bdb35bec5877eac4f41b6a00c9af1443120c4e177f164553ed21c4652c93a0cdf140e140dc7417a69156bb8b83db8068570af149c19f73fec4a47f4731fe38758c9c43467231969a089e7b7f845defb77cc44db8cbcc7bfc9a316d3fc54c3c5b2b50775832133fe784d4f67b47637e9ae4785bb8d96a0d08292107a1e10a04c38af0710c551c13e188e332937095bc667eed4606383038a6728539db9acb7f1956b8bf1bbf05e33270bd490e25f50a5fbbc215a1d43b76e75ce9376ce8f9313c165c21a268b315c0e85c8b1f6bcdccf8a17ca7e7966f291451acd55744219ccac1f724a3fbe15af8e80e8143012a800598302d94c8c6fd095876ffb92d24850ee3441d8c3c6b3c16411b46dda6217f709d107dc69b43322ee06a42fde82e8e533b4dd8d6c01e6c1b7e5166b41fbdc6d6b68714c20c49bc38d6298be76192b592888172b20ef0f3c787ca978eff67aa08a115bdc9314a648f17292ae5047c1152b9616036fb01c9482e1634b38e9b56fe6444f2e7bb00348703e3b866e5db79fe30f7633aaf229af59dfb3692598f9fe97e867a9561b906bd2d03bc5c3a86cf0ac8df9e6978915ecd8a413b694af26f6848eea180a9ce4cc21e0cbc2b021d5f28a66d8d7b57ea1edbdd47fb82f22eaa4248a63ee523dae6986acf8900c97b88d17ae7a1339dfae8fcfcc57080600f25a12ccc953d14b959c0625e764d987cee0d385190dc01952bc54ea1900c4f63ecc1c3045a06d64e51efe344c64e003b654ea3bd6fc2f55ea0421c316008315510bb0cdad361bcf3124aa60472c35dc66f39939ad3d5a0a9ed798f05bee1a868b7dc3eb399dbe420cb674fbf1aeb6a63c2bff337ebdb4da7c00ca1a03f1155609a905d8956f1b1f76c5635454706ef456b0ff80f16e1c732c074be1685bd3f513da07e5babc8cc5142a2a3ea1b69e538c30ffd6f135e25633c3f35a66d2d915e5f9d22b1b2b116f92ffe37ab670cc080d891c8cb6651d9c78b2577e536bae1edd648cdc9ab0dae4516c6f427394fc968376ac35317a79c972083918e63ac2daaef65183fd9b9d79620c2d7bab0dd84931cb26a240641f3b902e2a839b85a103d64d51120229b98e31abd5548de18a6cc409b6c89ba2da5ec008f63ee7c5f400e267be05cf6db8f3691a3799fa0cc62368705eef05e1bfcd5490e740566c6fe40106a60b08509ce888e815fa76444d1a968aba9a88cfe4507f34740e17bbb74a2549d13006bf4f444c80bea1168a0d4d2d9d6a72cb0d762cc7223481091a7a6404f6d13f4afd39af7d2bced3494086ff8ba123053a9e830be13754adb9763e07ceee1376d404b18d59a093d4295b08c7ad643e37398098f779d0ac33a79c9837d4fc5e4911a2362f8a5cc7887f732269dccd6459cff854d14220839cc17ff2ea461b3445c7d987cfc48941ef1e2336f6d8a88960592a80819d5af40e8068fc35cc958004fad348ac2372cb7ca412dc12a9e3688ccaaa7d0ecab54063b650eb75584394ecf2ce59cb7c927d55673951a381483ccf5a4ccdac9f09079a14c6bc6828275727bec7747c25d01c0c915ae3029b75a5620b591c99402d45065dce93a73ff2f8bedc35e0816487b28fd496b99860b10d5e611d344b2d9a0ca3072241b92e998ef31c377d0e92d54c11a92a8c29460792e5c0383544c67e6b90b9424ce488b6eda74f226bd637ea9a55ca78fe0b65dd852e82fcc885658931447638cbbd485427d045e48b89c4650365d067fa0e32e8d625ad44c7dd1a59d73073c5e979487851ce99f2ad7cc26dc4a5c8519c24381fce8dc5fb511b3d546289e27abc95b807f27c1c6f5d382e02d0c26116392fcd2b6d8595383143dcb790070e27693af6a1b46974bdf3c114f18c1d901f96fc5dd1c929203a93aee8e15a2fef3d252a2b286c385dc29860237b9c6a4042dd4164eefb7f8211eb30500ecf753d5ace0384fd4bf77f8c7c71ff36e23e7b616547ada455c26bcc80f9025c57434efa7f226ba168ab3814277b15350b64a71eb0a9eb055a7d7f7d10f22b9a54fc2a16b148df8353b9b03e70cec170c6774ae465ba2072619ff76b6dc9b510f1e51af6757af787a47c621f8f1414b38effb332e6457f22e3e97c9254df4706904bd826031daa43f4eda62fa1e51cf6dab1c9137ad6ecfec9d618c831500beed3d1eb9726a33bb12c820faf9a75e0540e216c582b4401ac33b4b9c68d6f596211415516af624e162c7462fb2a04eb313e9c12c38be08a1e8c17ebb6511bf1b6b3f1ef7e46e3c311c7d9fd8703189e8c9015e37165881cbc16a378bbfd017820e5eb73ef4f1f22318f2f345f97d8779179c7247c194ab6a5c1e44fda6631ce05d8bd97daa2ff62b04b18de57d553529a6f6eeac4faff21a74f1e0c9b4a7ccc3bce445dbf369be52f35f071a0b5da791747a39e46ea052e458f4d6f99b57e3f383ffbce8303d755b8e7cc8bc07ed96094ca68fcda44a91afb39078dc4c6dbf7f2fe417890c6d6130873e43d4d92913fab8ab924db1e0c1c2c454b677b7d9899b6e7e8eaeeef090c18192a2c2e383a42444d5b5d6c7996a6a7abe2f2011112171d233e6f7584888a8ea1b6c4fd191d1f272e3738494f555683a3afb8c5defa000000000000001026374901fd210500b046a2a316128936fe48c64a03fe2ddb5ced45ab61678f14b2f4c836b3bd362640a74cadf585cf0aca6e2161f03602ea4f94edafcb48532f1649f182533d949fea52058575600e9a79779b720e88055109c441408dd74666932e92b9567d25c1d98573ae66746d3d9b8713206126464dcf8a5beb2fb6f2844d4fbcbb6fddb1aec82a85e98ab05cf51b5b8091c80b1e8dd0b2e5b7ce270f5a687df8e8b2c26073945432dae9999cf3e7d209e5a790b39c83299714f2e8506950fc2e79f0253960c8419e6e9f3efb5c6b0a04355e9048b4d10dc9223999df9896342c376b529db3fafd457472f1c26f1005c45af555817f245f822873125932d21c969e37d0ea54439079bde564541a1749fc66715c20fa020329239dde7d458d9b439e7d4dc9be17ab0b89d2bde6ae2debc8d72d05cf68113f1a8d0da86231a383225fce34bcf8d5be57b3c4c00a57961887dd7d66da43c87bc6a77fd8b99cbca04644b4bf467957e3ad981e62119d6debc48102bb5a169b4b21b8c0c84a2e9601050f2d233f85dbc0cd42dd057404bb309dd794cd5c0a558c1b2a0db80ef502b3570cb86084ac626c9af57a6617a97457a6facd5c309229941d86298ffd52639300306757f5efe0a117a357e7e680cbb2049796c3f7bd9367cecab5b478651adee25f50710852746d5acec0e1783f84f963f8bf8945ac1e36a796cf1c839505ccb228667fce1fd3689e1644069081d36eeaa155b4694dae50969b967b174276828d7096348460e7a0cda7ef64c0a06549fb3e973615c16df146e1efb9626245d9f564421c04111f31283909a3f71281d0382c88e0c03696041112d8a780a86ce8593b1a3a92d3bb3d6484becf3ab680ab3abcae201eff19b9297717bf91de567703fa66e9c4c078e3997271acadf7b8de04f5c961ec1c01297dd53ac2c4bcae824660684cd9465f176f9067aee3c709a9b019707ecedea55accdccad9bc870c7e28eb26beca72735eddf829d48d591b0cab850ae767a53f2964a391c5865a090591b1d714ef8fe93a17d29c870a3ad2d174ef3cedb00ced423a12f36f929f33c4520bab3dbdc3ac1d03c699adb27f7ad3b15cad5e5052552e2307f0ac766e722060c15702bc215f72d5f269579d6c6e96e9b3994658aa33e16df4db62f7fd7a946f65e036c2766832f0fad64f35b104154c93b5c0fd169193a1006f43be0aedcb10225a254e7d146a6cd7ee22e887a07aa297c09eabc51aa89889d45d17514e490423610d2aec39ad0e2cbb86120dfec999f4e6769392f3063761d66d0cc8517932e9357e0c06a791001e439388e31a6ac65849dca9c9823395693c3921af1a31dfb2f115e010540b57f25be9510e127e5841c0df21642e87ed97b574bc0a0fefaca7eb05a612dc3d42417a35a1513a011c237ad86fdb9600e160e4516d2b3dc2f423390be5c216258fb9e91adb70e62f09be23e7c13be32caf5f414ad694fe2012bdb5fe65d5dd72062a78489612816cfd1a5f440efd1028aceb6548651a02fbdce426f90c6617bf5c53ea750444efa889d1374a557903f8a7167a65a382e5547ad0b8c13c9a15c0abd927f0ed703c91c7b6a9be7c5f7a77cdf3568f32922a60abca8629aef5f6fe2554f08eb3da83e82fac804d1882bffd51a9bdc7ebb42a0420323d45c8f5ad15ff0bd6804ee34eacf4f0770d7474bce304951a53e828639a8ad94aa204000bf7a50220740bec8e4b52ad1b8080e968d1c33643a99d64adeaa177618103f6c05597e96d1587fe8d99730af44b1adead0b867f03f6ed62fc91748da707a76614e65f0dade2b6b224575ef6d33f9c7cdbe61675641eaaa26d57d2617dbf4e7188000000",
  "txid": "2bd8eb70e6f8d98f6bd481fe1452cfeb2db9963652268462ca31aed1307e0aca",
  "hash": "9b386b816ba1ddc42aaaf50f0b9c062361299ef65e5bd81d1efa7ace33b79228",
  "size": 5085,
  "vsize": 2278,
  "version": 1,
  "locktime": 136,
  "vin": [
    {
      "txid": "45faa94078525bdeb1f5a129e59020f86f8e93705b02b71f4ff75586aa2c96a4",
      "vout": 0,
      "scriptSig": {
        "asm": "",
        "hex": ""
      },
      "txinwitness": [
        "18c7caa911925dff09bd7a2330582948fd83887646acf10671d573815ddc240c2a84cbf3fb1b7b90a7209c4801f875751e46f01f1fc70e4ae69b2a0c187651ec61d0f2721ee366f42e38f9e8329183d222075a828d87f6075e609359f98ad0c58f035957f603acd31c15a39ed6bdb2716c25d6cca496af58bd84fddf4204e13f0f15620d2d6d77e4b5b1674f0854e84a1f6660f81bc720ad3a37f6b77a0af8cb791617aff505e261b490bfd2e9e549379a072339c741250050913562e8fec913777a42e107de46bfdb6a357ee0fe13a02989f0a7d450c56c467382843ec5fe70cfe14f2939e57adb78921a487e315997bec44b8a04c20f2865811e8dc4f888dd6facff2c13d55110450a66698e5af317091801bbdcaf116a7075f3b5dbf1c2a1032e195a9ea3b76a2500f44fcc68152499b6d57d57f793cdb9fd18f92e2d832da36d86e1058a89891160b19e78e533d9d7edf65131a802bd8c12c7036caf0b4dac8201be1f89a6f01a28bcc7decdd81d132e2ba842aa0479ef04a724512e26f86a0ebebcd725b394187dc649484975a64394234f72a693f01a52c9005ee9ab1d36081bd43921fed7411e109006ec0953afaa51bcf43631b9d57bad71275744921a179fa8297415bfbc95208dd2b9c15504b35fc1d197b26c4f44ade9b2ce9dc018e8684e73fec36b0720721fc632f0499f272a3360abd55c580945376ffe6bcf45665625e7dac6ce1e2b275d09e2b8e50460eca7b24009b5d2b17f735e5a56bb4f4eec3bdb35bec5877eac4f41b6a00c9af1443120c4e177f164553ed21c4652c93a0cdf140e140dc7417a69156bb8b83db8068570af149c19f73fec4a47f4731fe38758c9c43467231969a089e7b7f845defb77cc44db8cbcc7bfc9a316d3fc54c3c5b2b50775832133fe784d4f67b47637e9ae4785bb8d96a0d08292107a1e10a04c38af0710c551c13e188e332937095bc667eed4606383038a6728539db9acb7f1956b8bf1bbf05e33270bd490e25f50a5fbbc215a1d43b76e75ce9376ce8f9313c165c21a268b315c0e85c8b1f6bcdccf8a17ca7e7966f291451acd55744219ccac1f724a3fbe15af8e80e8143012a800598302d94c8c6fd095876ffb92d24850ee3441d8c3c6b3c16411b46dda6217f709d107dc69b43322ee06a42fde82e8e533b4dd8d6c01e6c1b7e5166b41fbdc6d6b68714c20c49bc38d6298be76192b592888172b20ef0f3c787ca978eff67aa08a115bdc9314a648f17292ae5047c1152b9616036fb01c9482e1634b38e9b56fe6444f2e7bb00348703e3b866e5db79fe30f7633aaf229af59dfb3692598f9fe97e867a9561b906bd2d03bc5c3a86cf0ac8df9e6978915ecd8a413b694af26f6848eea180a9ce4cc21e0cbc2b021d5f28a66d8d7b57ea1edbdd47fb82f22eaa4248a63ee523dae6986acf8900c97b88d17ae7a1339dfae8fcfcc57080600f25a12ccc953d14b959c0625e764d987cee0d385190dc01952bc54ea1900c4f63ecc1c3045a06d64e51efe344c64e003b654ea3bd6fc2f55ea0421c316008315510bb0cdad361bcf3124aa60472c35dc66f39939ad3d5a0a9ed798f05bee1a868b7dc3eb399dbe420cb674fbf1aeb6a63c2bff337ebdb4da7c00ca1a03f1155609a905d8956f1b1f76c5635454706ef456b0ff80f16e1c732c074be1685bd3f513da07e5babc8cc5142a2a3ea1b69e538c30ffd6f135e25633c3f35a66d2d915e5f9d22b1b2b116f92ffe37ab670cc080d891c8cb6651d9c78b2577e536bae1edd648cdc9ab0dae4516c6f427394fc968376ac35317a79c972083918e63ac2daaef65183fd9b9d79620c2d7bab0dd84931cb26a240641f3b902e2a839b85a103d64d51120229b98e31abd5548de18a6cc409b6c89ba2da5ec008f63ee7c5f400e267be05cf6db8f3691a3799fa0cc62368705eef05e1bfcd5490e740566c6fe40106a60b08509ce888e815fa76444d1a968aba9a88cfe4507f34740e17bbb74a2549d13006bf4f444c80bea1168a0d4d2d9d6a72cb0d762cc7223481091a7a6404f6d13f4afd39af7d2bced3494086ff8ba123053a9e830be13754adb9763e07ceee1376d404b18d59a093d4295b08c7ad643e37398098f779d0ac33a79c9837d4fc5e4911a2362f8a5cc7887f732269dccd6459cff854d14220839cc17ff2ea461b3445c7d987cfc48941ef1e2336f6d8a88960592a80819d5af40e8068fc35cc958004fad348ac2372cb7ca412dc12a9e3688ccaaa7d0ecab54063b650eb75584394ecf2ce59cb7c927d55673951a381483ccf5a4ccdac9f09079a14c6bc6828275727bec7747c25d01c0c915ae3029b75a5620b591c99402d45065dce93a73ff2f8bedc35e0816487b28fd496b99860b10d5e611d344b2d9a0ca3072241b92e998ef31c377d0e92d54c11a92a8c29460792e5c0383544c67e6b90b9424ce488b6eda74f226bd637ea9a55ca78fe0b65dd852e82fcc885658931447638cbbd485427d045e48b89c4650365d067fa0e32e8d625ad44c7dd1a59d73073c5e979487851ce99f2ad7cc26dc4a5c8519c24381fce8dc5fb511b3d546289e27abc95b807f27c1c6f5d382e02d0c26116392fcd2b6d8595383143dcb790070e27693af6a1b46974bdf3c114f18c1d901f96fc5dd1c929203a93aee8e15a2fef3d252a2b286c385dc29860237b9c6a4042dd4164eefb7f8211eb30500ecf753d5ace0384fd4bf77f8c7c71ff36e23e7b616547ada455c26bcc80f9025c57434efa7f226ba168ab3814277b15350b64a71eb0a9eb055a7d7f7d10f22b9a54fc2a16b148df8353b9b03e70cec170c6774ae465ba2072619ff76b6dc9b510f1e51af6757af787a47c621f8f1414b38effb332e6457f22e3e97c9254df4706904bd826031daa43f4eda62fa1e51cf6dab1c9137ad6ecfec9d618c831500beed3d1eb9726a33bb12c820faf9a75e0540e216c582b4401ac33b4b9c68d6f596211415516af624e162c7462fb2a04eb313e9c12c38be08a1e8c17ebb6511bf1b6b3f1ef7e46e3c311c7d9fd8703189e8c9015e37165881cbc16a378bbfd017820e5eb73ef4f1f22318f2f345f97d8779179c7247c194ab6a5c1e44fda6631ce05d8bd97daa2ff62b04b18de57d553529a6f6eeac4faff21a74f1e0c9b4a7ccc3bce445dbf369be52f35f071a0b5da791747a39e46ea052e458f4d6f99b57e3f383ffbce8303d755b8e7cc8bc07ed96094ca68fcda44a91afb39078dc4c6dbf7f2fe417890c6d6130873e43d4d92913fab8ab924db1e0c1c2c454b677b7d9899b6e7e8eaeeef090c18192a2c2e383a42444d5b5d6c7996a6a7abe2f2011112171d233e6f7584888a8ea1b6c4fd191d1f272e3738494f555683a3afb8c5defa000000000000001026374901",
        "00b046a2a316128936fe48c64a03fe2ddb5ced45ab61678f14b2f4c836b3bd362640a74cadf585cf0aca6e2161f03602ea4f94edafcb48532f1649f182533d949fea52058575600e9a79779b720e88055109c441408dd74666932e92b9567d25c1d98573ae66746d3d9b8713206126464dcf8a5beb2fb6f2844d4fbcbb6fddb1aec82a85e98ab05cf51b5b8091c80b1e8dd0b2e5b7ce270f5a687df8e8b2c26073945432dae9999cf3e7d209e5a790b39c83299714f2e8506950fc2e79f0253960c8419e6e9f3efb5c6b0a04355e9048b4d10dc9223999df9896342c376b529db3fafd457472f1c26f1005c45af555817f245f822873125932d21c969e37d0ea54439079bde564541a1749fc66715c20fa020329239dde7d458d9b439e7d4dc9be17ab0b89d2bde6ae2debc8d72d05cf68113f1a8d0da86231a383225fce34bcf8d5be57b3c4c00a57961887dd7d66da43c87bc6a77fd8b99cbca04644b4bf467957e3ad981e62119d6debc48102bb5a169b4b21b8c0c84a2e9601050f2d233f85dbc0cd42dd057404bb309dd794cd5c0a558c1b2a0db80ef502b3570cb86084ac626c9af57a6617a97457a6facd5c309229941d86298ffd52639300306757f5efe0a117a357e7e680cbb2049796c3f7bd9367cecab5b478651adee25f50710852746d5acec0e1783f84f963f8bf8945ac1e36a796cf1c839505ccb228667fce1fd3689e1644069081d36eeaa155b4694dae50969b967b174276828d7096348460e7a0cda7ef64c0a06549fb3e973615c16df146e1efb9626245d9f564421c04111f31283909a3f71281d0382c88e0c03696041112d8a780a86ce8593b1a3a92d3bb3d6484becf3ab680ab3abcae201eff19b9297717bf91de567703fa66e9c4c078e3997271acadf7b8de04f5c961ec1c01297dd53ac2c4bcae824660684cd9465f176f9067aee3c709a9b019707ecedea55accdccad9bc870c7e28eb26beca72735eddf829d48d591b0cab850ae767a53f2964a391c5865a090591b1d714ef8fe93a17d29c870a3ad2d174ef3cedb00ced423a12f36f929f33c4520bab3dbdc3ac1d03c699adb27f7ad3b15cad5e5052552e2307f0ac766e722060c15702bc215f72d5f269579d6c6e96e9b3994658aa33e16df4db62f7fd7a946f65e036c2766832f0fad64f35b104154c93b5c0fd169193a1006f43be0aedcb10225a254e7d146a6cd7ee22e887a07aa297c09eabc51aa89889d45d17514e490423610d2aec39ad0e2cbb86120dfec999f4e6769392f3063761d66d0cc8517932e9357e0c06a791001e439388e31a6ac65849dca9c9823395693c3921af1a31dfb2f115e010540b57f25be9510e127e5841c0df21642e87ed97b574bc0a0fefaca7eb05a612dc3d42417a35a1513a011c237ad86fdb9600e160e4516d2b3dc2f423390be5c216258fb9e91adb70e62f09be23e7c13be32caf5f414ad694fe2012bdb5fe65d5dd72062a78489612816cfd1a5f440efd1028aceb6548651a02fbdce426f90c6617bf5c53ea750444efa889d1374a557903f8a7167a65a382e5547ad0b8c13c9a15c0abd927f0ed703c91c7b6a9be7c5f7a77cdf3568f32922a60abca8629aef5f6fe2554f08eb3da83e82fac804d1882bffd51a9bdc7ebb42a0420323d45c8f5ad15ff0bd6804ee34eacf4f0770d7474bce304951a53e828639a8ad94aa204000bf7a50220740bec8e4b52ad1b8080e968d1c33643a99d64adeaa177618103f6c05597e96d1587fe8d99730af44b1adead0b867f03f6ed62fc91748da707a76614e65f0dade2b6b224575ef6d33f9c7cdbe61675641eaaa26d57d2617dbf4e71"
      ],
      "sequence": 4294967294
    }
  ],
  "vout": [
    {
      "value": 1.0,
      "n": 0,
      "scriptPubKey": {
        "asm": "OP_RETURN 5b8a72e9066c881bddb427761f77dd3f1fcc01e36246584ea7a2fb3c5569a0b5 ba351d125d21356b3fe5be2c7e01c82ab75350f7da42365e110978f0f1d3aeef9a153d327d01154b1fc59e0c5e21e80a977370d7fa62167e312958d0d1f38ecffa755d521d61752b7fa5fe6c3e41886af71310b79a02761e514938b0b193eeafda557d723d41550b5f85de4c1e61a84ad7333097ba22563e7169189091b3ce8f3ab59d92dda1b5ebbf653eacfe8148aa37d3d0775ac2b6de9189f87071532e6f1a95bdb2fd8195cb9f451e8cdea1688a17f3f0577ae296feb1a9d85051730e4f7af5ddd29de1f5abff257eecbec108ea779390371a82f69ed1c9b83031136e2f5ad5fdf2bdc1d58bdf055ecc9ee128ca57b3b0173aa2d6bef1e9981011334e0fba351d125d21356b3fe5be2c7e01c82ab75350f7da42365e110978f0f1d3aeef9a153d327d01154b1fc59e0c5e21e80a977370d7fa62167e312958d0d1f38ecffa755d521d61752b7fa5fe6c3e41886af71310b79a02761e514938b0b193eeafda557d723d41550b5f85de4c1e61a84ad7333097ba22563e7169189091b3ce8f3ab59d92dda1b5ebbf653eacfe8148aa37d3d0775ac2b6de9189f87071532e6f1a95bdb2fd8195cb9f451e8cdea1688a17f3f0577ae296feb1a9d85051730e4f7af5ddd29de1f5abff257eecbec108ea779390371a82f69ed1c9b83031136e2f5ad5fdf2bdc1d58bdf055ecc9ee128ca57b3b0173aa2d6bef1e9981011334e0fba351d125d21356b3fe5be2c7e01c82ab75350f7da42365e110978f0f1d3aeef9a153d327d01154b1fc59e0c5e21e80a977370d7fa62167e312958d0d1f38ecffa755d521d61752b7fa5fe6c3e41886af71310b79a02761e514938b0b193eeafda557d723d41550b5f85de4c1e61a84ad7333097ba22563e7169189091b3ce8f3ab59d92dda1b5ebbf653eacfe8148aa37d3d0775ac2b6de9189f87071532e6f1a95bdb2fd8195cb9f451e8cdea1688a17f3f0577ae296feb1a9d85051730e4f7af5ddd29de1f5abff257eecbec108ea779390371a82f69ed1c9b83031136e2f5ad5fdf2bdc1d58bdf055ecc9ee128ca57b3b0173aa2d6bef1e9981011334e0fba351d125d21356b3fe5be2c7e01c82ab75350f7da42365e110978f0f1d3aeef9a153d327d01154b1fc59e0c5e21e80a977370d7fa62167e312958d0d1f38ecffa755d521d61752b7fa5fe6c3e41886af71310b79a02761e514938b0b193eeafda557d723d41550b5f85de4c1e61a84ad7333097ba22563e7169189091b3ce8f3ab59d92dda1b5ebbf653eacfe8148aa37d3d0775ac2b6de9189f87071532e6f1a95bdb2fd8195cb9f451e8cdea1688a17f3f0577ae296feb1a9d85051730e4f7af5ddd29de1f5abff257eecbec108ea779390371a82f69ed1c9b83031136e2f5ad5fdf2bdc1d58bdf055ecc9ee128ca57b3b0173aa2d6bef1e9981011334e0fba351d125d21356b3fe5be2c7e01c82ab75350f7da42365e110978f0f1d3aeef9a153d327d01154b1fc59e0c5e21e80a977370d7fa62167e312958d0d1f38ecffa755d521d61752b7fa5fe6c3e41886af71310b79a02761e514938b0b193eeafda557d723d41550b5f85de4c1e61a84ad7333097ba22563e7169189091b3ce8f3ab59d92dda1b5ebbf653eacfe8148aa0f15e0734562484e09f851518803629f4acb16d7df0f849aff67839e0034597f",
        "hex": "6a205b8a72e9066c881bddb427761f77dd3f1fcc01e36246584ea7a2fb3c5569a0b54db004ba351d125d21356b3fe5be2c7e01c82ab75350f7da42365e110978f0f1d3aeef9a153d327d01154b1fc59e0c5e21e80a977370d7fa62167e312958d0d1f38ecffa755d521d61752b7fa5fe6c3e41886af71310b79a02761e514938b0b193eeafda557d723d41550b5f85de4c1e61a84ad7333097ba22563e7169189091b3ce8f3ab59d92dda1b5ebbf653eacfe8148aa37d3d0775ac2b6de9189f87071532e6f1a95bdb2fd8195cb9f451e8cdea1688a17f3f0577ae296feb1a9d85051730e4f7af5ddd29de1f5abff257eecbec108ea779390371a82f69ed1c9b83031136e2f5ad5fdf2bdc1d58bdf055ecc9ee128ca57b3b0173aa2d6bef1e9981011334e0fba351d125d21356b3fe5be2c7e01c82ab75350f7da42365e110978f0f1d3aeef9a153d327d01154b1fc59e0c5e21e80a977370d7fa62167e312958d0d1f38ecffa755d521d61752b7fa5fe6c3e41886af71310b79a02761e514938b0b193eeafda557d723d41550b5f85de4c1e61a84ad7333097ba22563e7169189091b3ce8f3ab59d92dda1b5ebbf653eacfe8148aa37d3d0775ac2b6de9189f87071532e6f1a95bdb2fd8195cb9f451e8cdea1688a17f3f0577ae296feb1a9d85051730e4f7af5ddd29de1f5abff257eecbec108ea779390371a82f69ed1c9b83031136e2f5ad5fdf2bdc1d58bdf055ecc9ee128ca57b3b0173aa2d6bef1e9981011334e0fba351d125d21356b3fe5be2c7e01c82ab75350f7da42365e110978f0f1d3aeef9a153d327d01154b1fc59e0c5e21e80a977370d7fa62167e312958d0d1f38ecffa755d521d61752b7fa5fe6c3e41886af71310b79a02761e514938b0b193eeafda557d723d41550b5f85de4c1e61a84ad7333097ba22563e7169189091b3ce8f3ab59d92dda1b5ebbf653eacfe8148aa37d3d0775ac2b6de9189f87071532e6f1a95bdb2fd8195cb9f451e8cdea1688a17f3f0577ae296feb1a9d85051730e4f7af5ddd29de1f5abff257eecbec108ea779390371a82f69ed1c9b83031136e2f5ad5fdf2bdc1d58bdf055ecc9ee128ca57b3b0173aa2d6bef1e9981011334e0fba351d125d21356b3fe5be2c7e01c82ab75350f7da42365e110978f0f1d3aeef9a153d327d01154b1fc59e0c5e21e80a977370d7fa62167e312958d0d1f38ecffa755d521d61752b7fa5fe6c3e41886af71310b79a02761e514938b0b193eeafda557d723d41550b5f85de4c1e61a84ad7333097ba22563e7169189091b3ce8f3ab59d92dda1b5ebbf653eacfe8148aa37d3d0775ac2b6de9189f87071532e6f1a95bdb2fd8195cb9f451e8cdea1688a17f3f0577ae296feb1a9d85051730e4f7af5ddd29de1f5abff257eecbec108ea779390371a82f69ed1c9b83031136e2f5ad5fdf2bdc1d58bdf055ecc9ee128ca57b3b0173aa2d6bef1e9981011334e0fba351d125d21356b3fe5be2c7e01c82ab75350f7da42365e110978f0f1d3aeef9a153d327d01154b1fc59e0c5e21e80a977370d7fa62167e312958d0d1f38ecffa755d521d61752b7fa5fe6c3e41886af71310b79a02761e514938b0b193eeafda557d723d41550b5f85de4c1e61a84ad7333097ba22563e7169189091b3ce8f3ab59d92dda1b5ebbf653eacfe8148aa0f15e0734562484e09f851518803629f4acb16d7df0f849aff67839e0034597f",
        "type": "nulldata"
      }
    },
    {
      "value": 499958.3071,
      "n": 1,
      "scriptPubKey": {
        "asm": "1 29c6805240cc5173297de1113e5a9af6e8a455b08511de4de85a4bce8a3c30e2",
        "hex": "512029c6805240cc5173297de1113e5a9af6e8a455b08511de4de85a4bce8a3c30e2",
        "reqSigs": 1,
        "type": "witness_v1_scripthash",
        "addresses": [
          "3QJmnh"
        ]
      }
    }
  ],
  "blockhash": "c0ea0e6b16ad20f35d4757cbcff39c3d199dbd7e252fa8e6bc9f3f36ee858c22",
  "confirmations": 1,
  "time": 1764183276,
  "blocktime": 1764183276
}