{
  "hex": "0100000000010126f0987e05556e00433963bbd05ddea3931695bdf58375d096d0c34f4cc648b40000000000feffffff02907857cc782d000022512044fe8dfc454ba1208fcad991c39fd8a02cccabc36148d7aefe81358c93de505200e1f50500000000fdd5046a20e3d6e2df7479358d653f69a8b8468a4580676fedc8ad60adeb22b4850c5d1a774db0042ca53f9bf8958cbc37323073c7d2ff7a20effbda62f5a8899be2a686fcbf871d0c851fbbd8b5ac9c17121053e7f2df5a00cfdbfa42d588a9bbc286a6dc9fa73d6ce57fdbb8d5ccfc777270338792bf3a60afbb9a22b5e8c9dba2e6c6bcffc75d4cc55ffb98f5ecdc57525013a7b29f1a408f9bba0295c8e9fb82c6e69cdfe77dac25bf1b78150c3cb7b2b0f347527ffaa06f7b5ae27528091b6226067c3f079d8c059f3b58352c1c979290d367725fda804f5b7ac25508293b4206265c1f27bdec65ff5b38554c7cf7f2f0b307123fbae02f3b1aa23568495b2266463c7f47ddcc45df7b18756c5cd7d2d09327321f9ac00f1b3a821548697b0246661c5f67fd2ca53f9bf8958cbc37323073c7d2ff7a20effbda62f5a8899be2a686fcbf871d0c851fbbd8b5ac9c17121053e7f2df5a00cfdbfa42d588a9bbc286a6dc9fa73d6ce57fdbb8d5ccfc777270338792bf3a60afbb9a22b5e8c9dba2e6c6bcffc75d4cc55ffb98f5ecdc57525013a7b29f1a408f9bba0295c8e9fb82c6e69cdfe77dac25bf1b78150c3cb7b2b0f347527ffaa06f7b5ae27528091b6226067c3f079d8c059f3b58352c1c979290d367725fda804f5b7ac25508293b4206265c1f27bdec65ff5b38554c7cf7f2f0b307123fbae02f3b1aa23568495b2266463c7f47ddcc45df7b18756c5cd7d2d09327321f9ac00f1b3a821548697b0246661c5f67fd2ca53f9bf8958cbc37323073c7d2ff7a20effbda62f5a8899be2a686fcbf871d0c851fbbd8b5ac9c17121053e7f2df5a00cfdbfa42d588a9bbc286a6dc9fa73d6ce57fdbb8d5ccfc777270338792bf3a60afbb9a22b5e8c9dba2e6c6bcffc75d4cc55ffb98f5ecdc57525013a7b29f1a408f9bba0295c8e9fb82c6e69cdfe77dac25bf1b78150c3cb7b2b0f347527ffaa06f7b5ae27528091b6226067c3f079d8c059f3b58352c1c979290d367725fda804f5b7ac25508293b4206265c1f27bdec65ff5b38554c7cf7f2f0b307123fbae02f3b1aa23568495b2266463c7f47ddcc45df7b18756c5cd7d2d09327321f9ac00f1b3a821548697b0246661c5f67fd2ca53f9bf8958cbc37323073c7d2ff7a20effbda62f5a8899be2a686fcbf871d0c851fbbd8b5ac9c17121053e7f2df5a00cfdbfa42d588a9bbc286a6dc9fa73d6ce57fdbb8d5ccfc777270338792bf3a60afbb9a22b5e8c9dba2e6c6bcffc75d4cc55ffb98f5ecdc57525013a7b29f1a408f9bba0295c8e9fb82c6e69cdfe77dac25bf1b78150c3cb7b2b0f347527ffaa06f7b5ae27528091b6226067c3f079d8c059f3b58352c1c979290d367725fda804f5b7ac25508293b4206265c1f27bdec65ff5b38554c7cf7f2f0b307123fbae02f3b1aa23568495b2266463c7f47ddcc45df7b18756c5cd7d2d09327321f9ac00f1b3a821548697b0246661c5f67fd2ca53f9bf8958cbc37323073c7d2ff7a20effbda62f5a8899be2a686fcbf871d0c851fbbd8b5ac9c17121053e7f2df5a00cfdbfa42d588a9bbc286a6dc9fa73d6ce57fdbb8d5ccfc777270338792bf3a60afbb9a22b5e8c9dba2e6c6bcffc75d4cc55ffb98f5ecdc57525013a7b29f1a408f9bba0295c8e9fb82c6e69cdfe77dac25bf1b78150c3cb7b2b0f347527ffa54edaa4577cb51249d71846c75e7d72dda1785977ceb0b7bb6de815da8d7fbf702fd75097bc7a8cc1882729a8f70cca820ee92edcf4b19b8023c71e478ef2f431c73baca5d84aaa72684dbfee1fddfb458db14aa83451ef85d9b7cb737ceb987c991aeab99153e5af9f4b5287c62e25ebb7d5652258804239c8aa1939bbbd9abca88c9a3f08619384403f3453cb933f3724900fbf108a43bda89fec238470c5715553d6148feb019b99bac5fb54538dfb82f5f35c748f12cb6bb2bcc2ef2e5b49133f274bec55dbae530ea47eb8a1810e59d8f50f03727a2386d9917a58aff41b05a2b82328b09890f6de1f0691b2f203afd6732a5d9d840b709d058ca9adbcbbc49fecaddfd635c22d1e31bbe7a6069020963e3e774d456a45009425323f67992aca8706eb5d81f8c63ae50350ec2464e78e291e542a3e97f991a677a4fe0708c5373483166a80d23fefcd2c8754e9739b7aa1c990788a890d42ae763e266c24230fc85685c0ec291a077d2b8ac5d8aafba630c062553231e66a7a4040591d0274261ec6adafb7d694e9fc0526df9c505d418d13c5f75e8ad9a135b3a04c35fa934026939996199f3201da81c6143dae342a2e8fbcb7736fac256c76ff401f49fa04a8de7bcb295f00d6554efd14e3c5121124d0cb7a9cd8a507fca18679b16631b5670d34b908dd7ab99d38384a7d7eb83892060c99c061369f5259c6efcd65560976a8e08d0b0acf420a3c9735710115d083d8c01130f2e39753cc13b1ba47b392839f0ed956644f08695b50661c0f124bec2c544a8fc8d3f4ef1447c19fbaba8f4fca390bb32a79ae774b984eb7c756a7b5e7a13b22f4865c1a2b11d52a5dba1cfeb851a699259a12c7bdcdf5df5b1109a7b08f15ab888535aeacfb1f01346b71e135d30a542ea376b616e311238c0e031dcf49609220caa8cde9bd71d11f13d12b5dd4ce00bb533e096b54f3772537cc00eff1ef00a53389233ae6ff80d8f1fb500c2fe56abf9a11a000708a07413be930c8b9be9c3cdb2c35aca6d31022b40f8a3888360dc73f992c3f122d07b4d8194e174271a2462e297e29b6539a1169c5f06b1efd0b72edb2ea5ab73c0f9815f25f57a7b6a2eb7f8f0b762f104f6a6abb82f70093bdc711c3d87aceb4e006f85e3570a0242e35ea86deaecabf21e84b98ef1a09134014add4f212c7a47f2e0938b13f352777b5355fcceb2c9646a0ed290c757ec00221d7ff685a1f3b0937f776414907894bb7970d4f74819ca6c7684e44891e08bd0acf8aec6dbed7cff59fb7625e5be4b6bce2c65f42e7237bae069877f8c8927497cafeeaf28337e8f45c7bb21421b8432f591f36fd51495a689a42412dfb4f09513f97d4109f1607cfeb87c9c27e26ba5c9372386564976504486f30f373e384a912b633c31f498f2eb0e2ee4b6234f8e6e3da11c4ed99ad70d93a8a03f0ffae96de179855df43ab1bc8b13234eee92bd54acc55e2a65c7e8284805a48cb20b8f9540e13b10a9b2b26a5538ffa81449c094e41006d23c41f45090391f990044d8ac99ba0af0a1592bdf5260a51c7cd03153487cc3522094f585f829e83e3b1853ba5cdc0d04cd36b6dd5c9358ec23707bb08e1eb4451aec351323cc979cd04f5a0f146707a6ca92745a9a59b7301ec4607926689440d6225fe536e53f73733681e01c36bb43484ab6abbaaa4b07633dfc4232d5d6c5817f641a7860780955e5215c05e763f28b4b931741b9a6d046b19d68d231221d871afadc1b5c0331d41ad0e8dca15f6cd0fef279b8c314e1ff9840eda6f6cc0e8767a2ed8b8fea9ac2bedf42b72ac41a11a5d5bdafa1306f4122925ad7a50039d95737d87a7d2396d828cc19018966b813a3fb1278450b8db8c1ef83432b8ca1d7e7c69df599492ea2e0ec0e17cbb16de262000c8c8c6553475dc49023c18e6000ffc11ee0e74a2a0c6a74c50b145606a41adc318f6c12688472560c8854509351cd7502ea89759fdcb5e0f1b6103e65fafc6302ba916a3e7df74176daafb6966c59e66c44e504a2b96ee17036517507abac1daee6f479a854b743957a6a8b4c6730c6c0aec4c1d1d29a1bd9e7b69fbc0b296d542217e50f8c3aa31b0dbd87a2a7d331cec9b3b460643fdd872f3fbc3831de9f4f87ef2b77b608ab5350fc19343a1c81698952259d58230eca1680d5001cf4890f803946a0971a7c2ee79f80563544cbf04eae7032736200ecefd6701f5670469ea44442f3839e71389bde2061875d7c357ebd7a9dc39845319e261f7217f91c34ac9b89d1474684108c793fcc79e846a7448b5fb82fb23423ed4ba10f20c0402f5a5b8611690ea3b2c9d20463d0fcc0b5348fd6c3a0322a6d2cb3e0494e5b7ff75679b388943bf2182924938ec15b8136a9ca9602fab310082e4c24e3a6953dc029a34b7dd861feb9e1b4690d20d86c0cd8c7d8c4986f637c134dae0c478ff75e3087bf52ff7f9e336d9e574823917dfb21dfdcab4dc0432b15a91abd305abfc521a74d842f37d09ea6ee6b6db78b9b6c8815fb6b6a8fed39755e7d92f40752c73c0a270f934ebbd73058a65f2fc75ddc33caa50fbd7befd4b238b5bdbbe80e9f651836f75fb86c46ae6756b1325834f0ed1140ef10ea395540524a10ccfb83e84cf246af57033f71a982e57581464851ce07e25c2d55a569061083cb08ac6216925d2b0cf669b5b174d40d952bb63c3af181e3e2b1cac800c34932f272c844a3f43817bf96dd5a675a506182523207808060f4f93f09fd62dfe19aba736a3d091a56674a685b3fb686175e7db22014800426b0d4745dcbf25174f03ab084eb402fb5ff10e0544ba162dc9d9b628236998d58fe650e8074ff9c802ec5225b3980c6e3014cab596eb088f4d455c62d29448f98a248390f871ab2cd68b0c25ec4f3f5dc8eb2fbf51a14efd820291700da6a68d2a3c96c40b80b4aa976337ca8dc9f4975556ad4fedef2ee8702974aa584951c7b136c2bf323b6ba8c8aff77fd4a49a5298d9061c9bf614fc18ee739a0a3bb4c3fc4a36f23cbb1ef931507d658e876326dafee41764c0a728638dd1c8e6e9ec85a6d67a2ae36deff417c81e8f28c45421165d4954f05b41d3a0e678792171d55aa39270d6731f3c77fc868e60d75eebafcc785a545496ee093955626e64746347702e53ad5947a1a4d3e5ead6f2def6ff4ff074161fcfe9ec41315b8814f5a51f7b0d7cd89d4e44ed962865423e8fecfe89b04b334c0ba3bb70bddaca4060b7fea8471ee882f10ff6b188f783ef4a27d2e6a8ec91d47d6620537df9185b648c87adbd95e6fbdff1bd5e9b976cb2a85287b81fec107047713fe90eefc2dda9d9f07fa0b1d1e1f2021292e363a3d404548667c8492a2c3080b1b323444577177797c7db0b3c5c6cde2ecef1a2243444a6063858e9da8adc0c9d0dfedf20921383a587174838caed3000000000000000000000014283a4501fd21050081ca3647fb8bd385e3078eec3d57754cbd45a5c552032188f22eeb2030e341b4baa22dc49b8e9358d231f264d58b8812ca7b182188a4ee2414ac403b5135f7c6a8558976835a8e60e681e81a1c4a469eca405038ee6ea8cd2649921dbf13b61953f582b0d27fdb0a15e603bb2c8bf729f6f459e908f9d0a057119214d1944972722f5c1dbda5fe43ac780ec0d97027265a783bff2251fc049d41ef2ffed5c9aa38c9f103547fdfab0cb0b54d060cf66863d88cd55fb9d2ca7cb40a947ef0e5e2128a2b4ce39645bc6c003f64b0bfa473e2ced9c37797920a54b96a532a78cfb3f96de35604192fca05ff51329b5a8e79f772aa06299dca41ec5632b70d1688c8484a945daed4ef78e389f91c35cbb3861f8afd5eae48478bbfbe6cd596e792993add60790491368136ab9113c9042840b5d202a324af184042f841e12d3b63fa9903c516706106294a3f4bb2300f087668e4011cdee9617a0b260a36ca40b6b0664a750f72d5b631e93c8688beced748158b3c4e3e3564f9338a7ee4de09c366afa09ba8ce78abd276e29fd9e177d4fe3f50c5ae1e17dce06ef2bc090c6a6c91aa53c9bbfcb44604a987da465d95d0a576f8b2beba07c7ebe9f7afd3dbe33080629bde7eb5052e68e07b81ed4cad663a0d243a4ff94e811a80da9784bc3c0366a0ab46ccadc4ace36c77301a2f2401d458fae80e228a0b4f764c13a67384e0982830a550964382071854c18dcfaccce8bdee27710d624ca38ec4e00aad898017312480caa31c7a78632ded9bf15c291628b4cf7f36c284614c3779d4290924b96abf54e29024a3bca69288b61d6ac5dcd9b0884320e06bb787cfd151b466c6463594d922e802dba3840031509a5a01ecb5d268a1031899bab2c0e351db01ece1c90cfa612b2292d102b263f3a987711afc3acbda04a50dc25c34f4198143ba19bfd02410eec88eda9bcfd77e19e85860ddf30503d088b2843eaa469b2dc999a6ce8db8a7ca52012b97631424afccfe8037f840cb152c0e03a9d6a09796d17fd732c3ad7882099cd48d8b801dd0ab575d3b12d3ce6c8fbc0078b738fc4630d96c9fd004fe8a59440d84a8297ec87655ccbcae082ea00a1f2b0012d4f956d84a580ef07d1152f9c04f0abd4726ae65e3f6b605e4dc78c830218047da9bf610d8c8cdaa9aa984f3be4264371ee9dfcb5c757b14d571c9d2c20917f9409aaf7678dabd0235d3e191f040b00d627fcadfd308a8f51675f6c00382a37aa8fd9fea5d78abcf65255fbde04b12258723624a5bf2eb7ab98bd1f5270724555aa0b9cc526a0584fa217c038febff1b40ecf26cf8972313f2b74dd05c199e2e08efa73a2d53c193ac65a8692b643dbcfe43a02c58186fa6a0ca53b4c101fd3298986de4edd4267b96a119f7b9e7735f832fa4620f1ffeeaec6ac4cb9bbb6cdf2932ad1fcdbc173666530696c10bf31d0efb95054f791b5e8c7b6e887a78c81385f8e947e13f2ffb9f76f74feedf45e6231074240e9cd1fff2acd9aa936fdee714bc9ab264c039d2357b6cb8454d067b9f30225177c7d72144e31c79ee62c17e6a2c2f17431b77be96a0cad27344ba0e1fdf66970841117af7bc795fd8cb720dd446f8770646571739cd2333d0dc88c7fc2e6f21dd5ab462878bbc3ffad8dc6a5b7671b79f75b2afcd1dc6baf48672659996866a226908fc97f99c50aca50587bf2b5ba1f94aadcdb6b8bf1f8277bff6d937b1e4ca8659af5a07117dce5aa4e0713567840bb2b625d4ae721513eddbb0cac281b618ceb7a328920de0ba750457e41c8fbaa501d7c3f7461910ef4568cf1da6c6206b86e9302caa126775affb956fc302f2d66b81000000",
  "txid": "25afbbe1e9efcdc8a7eb612b50b121221d97ecc1f65868d62a5c9db1a9606901",
  "hash": "fa6bf570cd25e3feab2bcc239e2f24bf014525c87975471ed32d59b132051d41",
  "size": 5085,
  "vsize": 2278,
  "version": 1,
  "locktime": 129,
  "vin": [
    {
      "txid": "b448c64c4fc3d096d07583f5bd951693a3de5dd0bb633943006e55057e98f026",
      "vout": 0,
      "scriptSig": {
        "asm": "",
        "hex": ""
      },
      "txinwitness": [
        "7bc7a8cc1882729a8f70cca820ee92edcf4b19b8023c71e478ef2f431c73baca5d84aaa72684dbfee1fddfb458db14aa83451ef85d9b7cb737ceb987c991aeab99153e5af9f4b5287c62e25ebb7d5652258804239c8aa1939bbbd9abca88c9a3f08619384403f3453cb933f3724900fbf108a43bda89fec238470c5715553d6148feb019b99bac5fb54538dfb82f5f35c748f12cb6bb2bcc2ef2e5b49133f274bec55dbae530ea47eb8a1810e59d8f50f03727a2386d9917a58aff41b05a2b82328b09890f6de1f0691b2f203afd6732a5d9d840b709d058ca9adbcbbc49fecaddfd635c22d1e31bbe7a6069020963e3e774d456a45009425323f67992aca8706eb5d81f8c63ae50350ec2464e78e291e542a3e97f991a677a4fe0708c5373483166a80d23fefcd2c8754e9739b7aa1c990788a890d42ae763e266c24230fc85685c0ec291a077d2b8ac5d8aafba630c062553231e66a7a4040591d0274261ec6adafb7d694e9fc0526df9c505d418d13c5f75e8ad9a135b3a04c35fa934026939996199f3201da81c6143dae342a2e8fbcb7736fac256c76ff401f49fa04a8de7bcb295f00d6554efd14e3c5121124d0cb7a9cd8a507fca18679b16631b5670d34b908dd7ab99d38384a7d7eb83892060c99c061369f5259c6efcd65560976a8e08d0b0acf420a3c9735710115d083d8c01130f2e39753cc13b1ba47b392839f0ed956644f08695b50661c0f124bec2c544a8fc8d3f4ef1447c19fbaba8f4fca390bb32a79ae774b984eb7c756a7b5e7a13b22f4865c1a2b11d52a5dba1cfeb851a699259a12c7bdcdf5df5b1109a7b08f15ab888535aeacfb1f01346b71e135d30a542ea376b616e311238c0e031dcf49609220caa8cde9bd71d11f13d12b5dd4ce00bb533e096b54f3772537cc00eff1ef00a53389233ae6ff80d8f1fb500c2fe56abf9a11a000708a07413be930c8b9be9c3cdb2c35aca6d31022b40f8a3888360dc73f992c3f122d07b4d8194e174271a2462e297e29b6539a1169c5f06b1efd0b72edb2ea5ab73c0f9815f25f57a7b6a2eb7f8f0b762f104f6a6abb82f70093bdc711c3d87aceb4e006f85e3570a0242e35ea86deaecabf21e84b98ef1a09134014add4f212c7a47f2e0938b13f352777b5355fcceb2c9646a0ed290c757ec00221d7ff685a1f3b0937f776414907894bb7970d4f74819ca6c7684e44891e08bd0acf8aec6dbed7cff59fb7625e5be4b6bce2c65f42e7237bae069877f8c8927497cafeeaf28337e8f45c7bb21421b8432f591f36fd51495a689a42412dfb4f09513f97d4109f1607cfeb87c9c27e26ba5c9372386564976504486f30f373e384a912b633c31f498f2eb0e2ee4b6234f8e6e3da11c4ed99ad70d93a8a03f0ffae96de179855df43ab1bc8b13234eee92bd54acc55e2a65c7e8284805a48cb20b8f9540e13b10a9b2b26a5538ffa81449c094e41006d23c41f45090391f990044d8ac99ba0af0a1592bdf5260a51c7cd03153487cc3522094f585f829e83e3b1853ba5cdc0d04cd36b6dd5c9358ec23707bb08e1eb4451aec351323cc979cd04f5a0f146707a6ca92745a9a59b7301ec4607926689440d6225fe536e53f73733681e01c36bb43484ab6abbaaa4b07633dfc4232d5d6c5817f641a7860780955e5215c05e763f28b4b931741b9a6d046b19d68d231221d871afadc1b5c0331d41ad0e8dca15f6cd0fef279b8c314e1ff9840eda6f6cc0e8767a2ed8b8fea9ac2bedf42b72ac41a11a5d5bdafa1306f4122925ad7a50039d95737d87a7d2396d828cc19018966b813a3fb1278450b8db8c1ef83432b8ca1d7e7c69df599492ea2e0ec0e17cbb16de262000c8c8c6553475dc49023c18e6000ffc11ee0e74a2a0c6a74c50b145606a41adc318f6c12688472560c8854509351cd7502ea89759fdcb5e0f1b6103e65fafc6302ba916a3e7df74176daafb6966c59e66c44e504a2b96ee17036517507abac1daee6f479a854b743957a6a8b4c6730c6c0aec4c1d1d29a1bd9e7b69fbc0b296d542217e50f8c3aa31b0dbd87a2a7d331cec9b3b460643fdd872f3fbc3831de9f4f87ef2b77b608ab5350fc19343a1c81698952259d58230eca1680d5001cf4890f803946a0971a7c2ee79f80563544cbf04eae7032736200ecefd6701f5670469ea44442f3839e71389bde2061875d7c357ebd7a9dc39845319e261f7217f91c34ac9b89d1474684108c793fcc79e846a7448b5fb82fb23423ed4ba10f20c0402f5a5b8611690ea3b2c9d20463d0fcc0b5348fd6c3a0322a6d2cb3e0494e5b7ff75679b388943bf2182924938ec15b8136a9ca9602fab310082e4c24e3a6953dc029a34b7dd861feb9e1b4690d20d86c0cd8c7d8c4986f637c134dae0c478ff75e3087bf52ff7f9e336d9e574823917dfb21dfdcab4dc0432b15a91abd305abfc521a74d842f37d09ea6ee6b6db78b9b6c8815fb6b6a8fed39755e7d92f40752c73c0a270f934ebbd73058a65f2fc75ddc33caa50fbd7befd4b238b5bdbbe80e9f651836f75fb86c46ae6756b1325834f0ed1140ef10ea395540524a10ccfb83e84cf246af57033f71a982e57581464851ce07e25c2d55a569061083cb08ac6216925d2b0cf669b5b174d40d952bb63c3af181e3e2b1cac800c34932f272c844a3f43817bf96dd5a675a506182523207808060f4f93f09fd62dfe19aba736a3d091a56674a685b3fb686175e7db22014800426b0d4745dcbf25174f03ab084eb402fb5ff10e0544ba162dc9d9b628236998d58fe650e8074ff9c802ec5225b3980c6e3014cab596eb088f4d455c62d29448f98a248390f871ab2cd68b0c25ec4f3f5dc8eb2fbf51a14efd820291700da6a68d2a3c96c40b80b4aa976337ca8dc9f4975556ad4fedef2ee8702974aa584951c7b136c2bf323b6ba8c8aff77fd4a49a5298d9061c9bf614fc18ee739a0a3bb4c3fc4a36f23cbb1ef931507d658e876326dafee41764c0a728638dd1c8e6e9ec85a6d67a2ae36deff417c81e8f28c45421165d4954f05b41d3a0e678792171d55aa39270d6731f3c77fc868e60d75eebafcc785a545496ee093955626e64746347702e53ad5947a1a4d3e5ead6f2def6ff4ff074161fcfe9ec41315b8814f5a51f7b0d7cd89d4e44ed962865423e8fecfe89b04b334c0ba3bb70bddaca4060b7fea8471ee882f10ff6b188f783ef4a27d2e6a8ec91d47d6620537df9185b648c87adbd95e6fbdff1bd5e9b976cb2a85287b81fec107047713fe90eefc2dda9d9f07fa0b1d1e1f2021292e363a3d404548667c8492a2c3080b1b323444577177797c7db0b3c5c6cde2ecef1a2243444a6063858e9da8adc0c9d0dfedf20921383a587174838caed3000000000000000000000014283a4501",
        "0081ca3647fb8bd385e3078eec3d57754cbd45a5c552032188f22eeb2030e341b4baa22dc49b8e9358d231f264d58b8812ca7b182188a4ee2414ac403b5135f7c6a8558976835a8e60e681e81a1c4a469eca405038ee6ea8cd2649921dbf13b61953f582b0d27fdb0a15e603bb2c8bf729f6f459e908f9d0a057119214d1944972722f5c1dbda5fe43ac780ec0d97027265a783bff2251fc049d41ef2ffed5c9aa38c9f103547fdfab0cb0b54d060cf66863d88cd55fb9d2ca7cb40a947ef0e5e2128a2b4ce39645bc6c003f64b0bfa473e2ced9c37797920a54b96a532a78cfb3f96de35604192fca05ff51329b5a8e79f772aa06299dca41ec5632b70d1688c8484a945daed4ef78e389f91c35cbb3861f8afd5eae48478bbfbe6cd596e792993add60790491368136ab9113c9042840b5d202a324af184042f841e12d3b63fa9903c516706106294a3f4bb2300f087668e4011cdee9617a0b260a36ca40b6b0664a750f72d5b631e93c8688beced748158b3c4e3e3564f9338a7ee4de09c366afa09ba8ce78abd276e29fd9e177d4fe3f50c5ae1e17dce06ef2bc090c6a6c91aa53c9bbfcb44604a987da465d95d0a576f8b2beba07c7ebe9f7afd3dbe33080629bde7eb5052e68e07b81ed4cad663a0d243a4ff94e811a80da9784bc3c0366a0ab46ccadc4ace36c77301a2f2401d458fae80e228a0b4f764c13a67384e0982830a550964382071854c18dcfaccce8bdee27710d624ca38ec4e00aad898017312480caa31c7a78632ded9bf15c291628b4cf7f36c284614c3779d4290924b96abf54e29024a3bca69288b61d6ac5dcd9b0884320e06bb787cfd151b466c6463594d922e802dba3840031509a5a01ecb5d268a1031899bab2c0e351db01ece1c90cfa612b2292d102b263f3a987711afc3acbda04a50dc25c34f4198143ba19bfd02410eec88eda9bcfd77e19e85860ddf30503d088b2843eaa469b2dc999a6ce8db8a7ca52012b97631424afccfe8037f840cb152c0e03a9d6a09796d17fd732c3ad7882099cd48d8b801dd0ab575d3b12d3ce6c8fbc0078b738fc4630d96c9fd004fe8a59440d84a8297ec87655ccbcae082ea00a1f2b0012d4f956d84a580ef07d1152f9c04f0abd4726ae65e3f6b605e4dc78c830218047da9bf610d8c8cdaa9aa984f3be4264371ee9dfcb5c757b14d571c9d2c20917f9409aaf7678dabd0235d3e191f040b00d627fcadfd308a8f51675f6c00382a37aa8fd9fea5d78abcf65255fbde04b12258723624a5bf2eb7ab98bd1f5270724555aa0b9cc526a0584fa217c038febff1b40ecf26cf8972313f2b74dd05c199e2e08efa73a2d53c193ac65a8692b643dbcfe43a02c58186fa6a0ca53b4c101fd3298986de4edd4267b96a119f7b9e7735f832fa4620f1ffeeaec6ac4cb9bbb6cdf2932ad1fcdbc173666530696c10bf31d0efb95054f791b5e8c7b6e887a78c81385f8e947e13f2ffb9f76f74feedf45e6231074240e9cd1fff2acd9aa936fdee714bc9ab264c039d2357b6cb8454d067b9f30225177c7d72144e31c79ee62c17e6a2c2f17431b77be96a0cad27344ba0e1fdf66970841117af7bc795fd8cb720dd446f8770646571739cd2333d0dc88c7fc2e6f21dd5ab462878bbc3ffad8dc6a5b7671b79f75b2afcd1dc6baf48672659996866a226908fc97f99c50aca50587bf2b5ba1f94aadcdb6b8bf1f8277bff6d937b1e4ca8659af5a07117dce5aa4e0713567840bb2b625d4ae721513eddbb0cac281b618ceb7a328920de0ba750457e41c8fbaa501d7c3f7461910ef4568cf1da6c6206b86e9302caa126775affb956fc302f2d66b"
      ],
      "sequence": 4294967294
    }
  ],
  "vout": [
    {
      "value": 499968.4761,
      "n": 0,
      "scriptPubKey": {
        "asm": "1 44fe8dfc454ba1208fcad991c39fd8a02cccabc36148d7aefe81358c93de5052",
        "hex": "512044fe8dfc454ba1208fcad991c39fd8a02cccabc36148d7aefe81358c93de5052",
        "reqSigs": 1,
        "type": "witness_v1_scripthash",
        "addresses": [
          "3QJmnh"
        ]
      }
    },
    {
      "value": 1.0,
      "n": 1,
      "scriptPubKey": {
        "asm": "OP_RETURN e3d6e2df7479358d653f69a8b8468a4580676fedc8ad60adeb22b4850c5d1a77 2ca53f9bf8958cbc37323073c7d2ff7a20effbda62f5a8899be2a686fcbf871d0c851fbbd8b5ac9c17121053e7f2df5a00cfdbfa42d588a9bbc286a6dc9fa73d6ce57fdbb8d5ccfc777270338792bf3a60afbb9a22b5e8c9dba2e6c6bcffc75d4cc55ffb98f5ecdc57525013a7b29f1a408f9bba0295c8e9fb82c6e69cdfe77dac25bf1b78150c3cb7b2b0f347527ffaa06f7b5ae27528091b6226067c3f079d8c059f3b58352c1c979290d367725fda804f5b7ac25508293b4206265c1f27bdec65ff5b38554c7cf7f2f0b307123fbae02f3b1aa23568495b2266463c7f47ddcc45df7b18756c5cd7d2d09327321f9ac00f1b3a821548697b0246661c5f67fd2ca53f9bf8958cbc37323073c7d2ff7a20effbda62f5a8899be2a686fcbf871d0c851fbbd8b5ac9c17121053e7f2df5a00cfdbfa42d588a9bbc286a6dc9fa73d6ce57fdbb8d5ccfc777270338792bf3a60afbb9a22b5e8c9dba2e6c6bcffc75d4cc55ffb98f5ecdc57525013a7b29f1a408f9bba0295c8e9fb82c6e69cdfe77dac25bf1b78150c3cb7b2b0f347527ffaa06f7b5ae27528091b6226067c3f079d8c059f3b58352c1c979290d367725fda804f5b7ac25508293b4206265c1f27bdec65ff5b38554c7cf7f2f0b307123fbae02f3b1aa23568495b2266463c7f47ddcc45df7b18756c5cd7d2d09327321f9ac00f1b3a821548697b0246661c5f67fd2ca53f9bf8958cbc37323073c7d2ff7a20effbda62f5a8899be2a686fcbf871d0c851fbbd8b5ac9c17121053e7f2df5a00cfdbfa42d588a9bbc286a6dc9fa73d6ce57fdbb8d5ccfc777270338792bf3a60afbb9a22b5e8c9dba2e6c6bcffc75d4cc55ffb98f5ecdc57525013a7b29f1a408f9bba0295c8e9fb82c6e69cdfe77dac25bf1b78150c3cb7b2b0f347527ffaa06f7b5ae27528091b6226067c3f079d8c059f3b58352c1c979290d367725fda804f5b7ac25508293b4206265c1f27bdec65ff5b38554c7cf7f2f0b307123fbae02f3b1aa23568495b2266463c7f47ddcc45df7b18756c5cd7d2d09327321f9ac00f1b3a821548697b0246661c5f67fd2ca53f9bf8958cbc37323073c7d2ff7a20effbda62f5a8899be2a686fcbf871d0c851fbbd8b5ac9c17121053e7f2df5a00cfdbfa42d588a9bbc286a6dc9fa73d6ce57fdbb8d5ccfc777270338792bf3a60afbb9a22b5e8c9dba2e6c6bcffc75d4cc55ffb98f5ecdc57525013a7b29f1a408f9bba0295c8e9fb82c6e69cdfe77dac25bf1b78150c3cb7b2b0f347527ffaa06f7b5ae27528091b6226067c3f079d8c059f3b58352c1c979290d367725fda804f5b7ac25508293b4206265c1f27bdec65ff5b38554c7cf7f2f0b307123fbae02f3b1aa23568495b2266463c7f47ddcc45df7b18756c5cd7d2d09327321f9ac00f1b3a821548697b0246661c5f67fd2ca53f9bf8958cbc37323073c7d2ff7a20effbda62f5a8899be2a686fcbf871d0c851fbbd8b5ac9c17121053e7f2df5a00cfdbfa42d588a9bbc286a6dc9fa73d6ce57fdbb8d5ccfc777270338792bf3a60afbb9a22b5e8c9dba2e6c6bcffc75d4cc55ffb98f5ecdc57525013a7b29f1a408f9bba0295c8e9fb82c6e69cdfe77dac25bf1b78150c3cb7b2b0f347527ffa54edaa4577cb51249d71846c75e7d72dda1785977ceb0b7bb6de815da8d7fbf7",
        "hex": "6a20e3d6e2df7479358d653f69a8b8468a4580676fedc8ad60adeb22b4850c5d1a774db0042ca53f9bf8958cbc37323073c7d2ff7a20effbda62f5a8899be2a686fcbf871d0c851fbbd8b5ac9c17121053e7f2df5a00cfdbfa42d588a9bbc286a6dc9fa73d6ce57fdbb8d5ccfc777270338792bf3a60afbb9a22b5e8c9dba2e6c6bcffc75d4cc55ffb98f5ecdc57525013a7b29f1a408f9bba0295c8e9fb82c6e69cdfe77dac25bf1b78150c3cb7b2b0f347527ffaa06f7b5ae27528091b6226067c3f079d8c059f3b58352c1c979290d367725fda804f5b7ac25508293b4206265c1f27bdec65ff5b38554c7cf7f2f0b307123fbae02f3b1aa23568495b2266463c7f47ddcc45df7b18756c5cd7d2d09327321f9ac00f1b3a821548697b0246661c5f67fd2ca53f9bf8958cbc37323073c7d2ff7a20effbda62f5a8899be2a686fcbf871d0c851fbbd8b5ac9c17121053e7f2df5a00cfdbfa42d588a9bbc286a6dc9fa73d6ce57fdbb8d5ccfc777270338792bf3a60afbb9a22b5e8c9dba2e6c6bcffc75d4cc55ffb98f5ecdc57525013a7b29f1a408f9bba0295c8e9fb82c6e69cdfe77dac25bf1b78150c3cb7b2b0f347527ffaa06f7b5ae27528091b6226067c3f079d8c059f3b58352c1c979290d367725fda804f5b7ac25508293b4206265c1f27bdec65ff5b38554c7cf7f2f0b307123fbae02f3b1aa23568495b2266463c7f47ddcc45df7b18756c5cd7d2d09327321f9ac00f1b3a821548697b0246661c5f67fd2ca53f9bf8958cbc37323073c7d2ff7a20effbda62f5a8899be2a686fcbf871d0c851fbbd8b5ac9c17121053e7f2df5a00cfdbfa42d588a9bbc286a6dc9fa73d6ce57fdbb8d5ccfc777270338792bf3a60afbb9a22b5e8c9dba2e6c6bcffc75d4cc55ffb98f5ecdc57525013a7b29f1a408f9bba0295c8e9fb82c6e69cdfe77dac25bf1b78150c3cb7b2b0f347527ffaa06f7b5ae27528091b6226067c3f079d8c059f3b58352c1c979290d367725fda804f5b7ac25508293b4206265c1f27bdec65ff5b38554c7cf7f2f0b307123fbae02f3b1aa23568495b2266463c7f47ddcc45df7b18756c5cd7d2d09327321f9ac00f1b3a821548697b0246661c5f67fd2ca53f9bf8958cbc37323073c7d2ff7a20effbda62f5a8899be2a686fcbf871d0c851fbbd8b5ac9c17121053e7f2df5a00cfdbfa42d588a9bbc286a6dc9fa73d6ce57fdbb8d5ccfc777270338792bf3a60afbb9a22b5e8c9dba2e6c6bcffc75d4cc55ffb98f5ecdc57525013a7b29f1a408f9bba0295c8e9fb82c6e69cdfe77dac25bf1b78150c3cb7b2b0f347527ffaa06f7b5ae27528091b6226067c3f079d8c059f3b58352c1c979290d367725fda804f5b7ac25508293b4206265c1f27bdec65ff5b38554c7cf7f2f0b307123fbae02f3b1aa23568495b2266463c7f47ddcc45df7b18756c5cd7d2d09327321f9ac00f1b3a821548697b0246661c5f67fd2ca53f9bf8958cbc37323073c7d2ff7a20effbda62f5a8899be2a686fcbf871d0c851fbbd8b5ac9c17121053e7f2df5a00cfdbfa42d588a9bbc286a6dc9fa73d6ce57fdbb8d5ccfc777270338792bf3a60afbb9a22b5e8c9dba2e6c6bcffc75d4cc55ffb98f5ecdc57525013a7b29f1a408f9bba0295c8e9fb82c6e69cdfe77dac25bf1b78150c3cb7b2b0f347527ffa54edaa4577cb51249d71846c75e7d72dda1785977ceb0b7bb6de815da8d7fbf7",
        "type": "nulldata"
      }
    }
  ],
  "blockhash": "e950f66e7d48487e03ac7a1b4e7864aa28758accf0e3d98358cdf64a352531e0",
  "confirmations": 1,
  "time": 1764181937,
  "blocktime": 1764181937
}