{
  "hex": "01000000000101652fef10e0531d74a87cb43346566f68363df1d129d501cc7286baa9fd498a5f0000000000feffffff0200e1f50500000000fdd5046a2001faf3415db3ba95949f426d5177bcf6d8e02a3850cb2e74f809a1a0e4bc6d3f4db004f4975b4e273505c9a0b9360a54c0164e07a4abdb15109b79c3727ea97c04cd8bd4b77b6e071525e98099162a74e0366e27848bfb3530bb59e3525e895c24edabb4d71b0e67754589e0f9764a1480560e47e4eb9b5550db3983323ee93c448dcb94f73b2e475565a9c0d9566a34a0762e67c4cbbb7570fb19a3121ec91c64adeb7417dbcea7b585492039b68ad44096ce87242b5b95901bf943f2fe29fc844d0b5437fbee8795a569001996aaf460b6eea7040b7bb5b03bd963d2de09dca46d2b34579b8ee7f5c5096079f6ca9400d68ec7646b1bd5d05bb903b2be69bcc40d4b1477bbaec7d5e5294059d6eab420f6aee7444b3bf5f07b9923929e499ce42d6bf4975b4e273505c9a0b9360a54c0164e07a4abdb15109b79c3727ea97c04cd8bd4b77b6e071525e98099162a74e0366e27848bfb3530bb59e3525e895c24edabb4d71b0e67754589e0f9764a1480560e47e4eb9b5550db3983323ee93c448dcb94f73b2e475565a9c0d9566a34a0762e67c4cbbb7570fb19a3121ec91c64adeb7417dbcea7b585492039b68ad44096ce87242b5b95901bf943f2fe29fc844d0b5437fbee8795a569001996aaf460b6eea7040b7bb5b03bd963d2de09dca46d2b34579b8ee7f5c5096079f6ca9400d68ec7646b1bd5d05bb903b2be69bcc40d4b1477bbaec7d5e5294059d6eab420f6aee7444b3bf5f07b9923929e499ce42d6bf4975b4e273505c9a0b9360a54c0164e07a4abdb15109b79c3727ea97c04cd8bd4b77b6e071525e98099162a74e0366e27848bfb3530bb59e3525e895c24edabb4d71b0e67754589e0f9764a1480560e47e4eb9b5550db3983323ee93c448dcb94f73b2e475565a9c0d9566a34a0762e67c4cbbb7570fb19a3121ec91c64adeb7417dbcea7b585492039b68ad44096ce87242b5b95901bf943f2fe29fc844d0b5437fbee8795a569001996aaf460b6eea7040b7bb5b03bd963d2de09dca46d2b34579b8ee7f5c5096079f6ca9400d68ec7646b1bd5d05bb903b2be69bcc40d4b1477bbaec7d5e5294059d6eab420f6aee7444b3bf5f07b9923929e499ce42d6bf4975b4e273505c9a0b9360a54c0164e07a4abdb15109b79c3727ea97c04cd8bd4b77b6e071525e98099162a74e0366e27848bfb3530bb59e3525e895c24edabb4d71b0e67754589e0f9764a1480560e47e4eb9b5550db3983323ee93c448dcb94f73b2e475565a9c0d9566a34a0762e67c4cbbb7570fb19a3121ec91c64adeb7417dbcea7b585492039b68ad44096ce87242b5b95901bf943f2fe29fc844d0b5437fbee8795a569001996aaf460b6eea7040b7bb5b03bd963d2de09dca46d2b34579b8ee7f5c5096079f6ca9400d68ec7646b1bd5d05bb903b2be69bcc40d4b1477bbaec7d5e5294059d6eab420f6aee7444b3bf5f07b9923929e499ce42d6bf4975b4e273505c9a0b9360a54c0164e07a4abdb15109b79c3727ea97c04cd8bd4b77b6e071525e98099162a74e0366e27848bfb3530bb59e3525e895c24edabb4d71b0e67754589e0f9764a1480560e47e4eb9b5550db3983323ee93c448dcb94f73b2e475565a9c0d9566a34a0762e67c4cbbb7570fb19a3121ec91c64adeb7417dbcea7b585492039b68ad44096ce1486d84d6f05df80a845b3a3e0ca3f89d36e987641814ea6218f712a3c0ca249a020df63792d00002251200f2f0407296b607b9dc124e5da9eb1d5fb17861ef51c2bebe0ab1090ade3a14c02fd7509321e9276cbc28f9f2ad1dba1ee33ad12f2f2fe2e5b236e7699067550ee8679e06af5f791d7770484c28d7cdff6e3930e6583ede129cd8dd37105d63d2deb204a9b1038ff9c397247b660673475be4d2aa73377ed30ce3441c90ac2c3d6517a3fa7921934353b707f68450e6393d16587327b9cd88c20ad6e1869bbce7e6fc8219c4ba6ab8fe8caa4de4ba622ff14f18d731001bda61c39d913ff8a0dcc5fee674a93dd3a8739f946ad01f9d3d67baa33bae8e427e8e2d8829dca47a8079f430e330570bece48e47da9c7a3b5a8170065f1b952c8ad12704bea30db108a331c7308af41ed63adecec4f2354a9d5437204ce00ca546b8099fa1f261cbe1484dc8adb4bc80294f8d8b446a2ce8d0895aaf8a361d5a942dd7a8c9d94db0684a29486aab30f792ecffcc0e3c36abacb62911f67ceb50e662a8bbff7c4df497c3896d25fc2f7162bf9dc0d1033a8a03941d851a7edcbf9f2de56b29d7ba2ef54bd3f47162a051c738573e091c840776bf909cadff7d8da318831d9c025f11d915a21aac2b7cfda2ae095a3e18831e3e07b2673c3d6749842e0b9f251c2238b7c2c82720bbb7a4f354d8a6578e7a115d7501b9c90fb23927a27a7122079f0beddaf701cfad062be88819a5f85f9c0e90a4c30a88f61ad970a630490ac8cb98444b9da9a15b29cdef01751098b6aee922eaffa91a072aff6cf4f97f22e0efa3ddf693df0498f9363f2997d6e972d1aae76478d8f31a633ddc1ca341463ae77902f9f062b30dfb1a8fddf8396aa600b4203e999f085ba242fc07c6ab65e8572974c53de6cedb0a4a3db20f299da8f3f5f0e9ecb266b0302c0ef06a07ecfe9a626fd29f3410df01ac25ae2b24a0c9dd05527cbbadf2149903ebe0544ae937159c89bc109a5d05ee6765d6fc00d778b3dacce0c6a50821b802e06d953dd2eb22eb601dcbc710e532f17446ccd8c499e5fa5934c0d149e506e4de301d989debf9e0171ccfa76fbbadab0eeb06766326322b5963ceb585bced0fc8b80421fb0d187fa8d03152414b3147b4844822af3ad146da5542bb6b97eee33d5008a103a934dd16b16b35cfd2233c60fdfe09d2e430dd7777cecd5986b1fa7cee47b61cf3e512f4b4142c69aeb3eb00ed2cf760297c4b2c50a56907ac8a95b726d3c0474ab426bd805bb60fb4b2a1f280a1571289a4cc6d111a08ae515e86193e512eddbabd2921782283246424ddd5325a19e8f9c1bf96109b62d3cd9bcbf3e514cf99b46ff908aabcbe83ada2b2959980fa58c0fb7bcf3ef59b67e6c9ae1850096d8540c868df27c5943d4dacf1842cad2e8aa77a0258c10bb48b38aace23d8863cb00125c558b95fb071a1ee3cc65874fcdae82463b3bdb0acf43cc21667ca3a89e5a6e0558869331f8a94996d057becdcb3e26f38da8f7c81de2810c31acc25b59872e839f6c5ceb70ed3f2ae0e1ebf9ab569f93bdb3b3084ac67506df2e09211d5666f175ea22531ee1b2c939ed0d48b7667951c1e0b5e168986690ef2531c00d4cbcea7c9e7ec2a718f3fc070539ac32c8f251df6c31890db9ff7512fc58c740df43d59fde22418b9040b7acb147ee22019f7ec4d5d9ff1a449860ef149332e0b5ed3f17f0915ad99970de500922851d245f96eb4b426a1daddc2504707c0f9c5ad52acc9d47566c422f1242b5a0b6924b5d11cc378cc0b8fb12beeacee45873476822f1d72fb92c32783cf1044d7461f79e001e45e1140173550eca3846ce23f620e6ebf0fdee90e7df9175b9a3c3145c0ca4de812a0379280e5b0e930dd3cc95e2540d425b50ea04f4a525d6d9d03087bea46b0a3b1cd32821323f045ee86a0617715dc87d499ab5d81c7e220cb239271fe2eb1ba807ad7cc085055537ca859ebe3e07d26a7d04fe4e1daf316bc3e9cf6a0b034c52c1bf9462ea4226ed24d5634f2f76575b82b65f2b40b77be16a9b9e8cdd10f7f03ab6990d0d0dcc3e774abbda0709eab17bb2e1c21c476ae60e0cb5bcb289b233892d9eb8a2b489d927989b2bb87d8cf8e995c9cde7337bd40311c11c5f416f1ae9b8b4fbd7f8dc077395bc63f7c82c0c523590c3e794ce3aef4ba7d709162af865af3d8848fced5f2bccdd2d0ccdd3ddc0236758828ca1fcd4dd5b2b8c58d179881603b3ad1eb63a70d2056e5c1dd46744287cca98756d562fcf0e9d7f1cfa7bffca66b008cccec7e28ec8bb61466343bcba5ee7b5ff869890c5998fd4cf9d57eea9882f44c9e51da0914657168745638d624023881e26a31838c4f67e9014afc9928218af23d505d376bbc2c80e18da83f29ab64ce1baa14cab34f8c8dc8a8f09bf07195893e473ebfedcbae5ebcbdf97a97962b0441d6153271fde013a51bf9fbcb76759ad73950ff2e11551efeaadb4585a6cf001396515af1ae727431062e52c70a298138df8e9eca1fb4ad00d80c81dca8e8c3baf6bfb4e8d272617196aed4215b358d85387f1bcbbae50a38330da8562752873a4f1a9d18f8e6d3a6b4b6a288c1ecfb6af3de34d13aae44aaff6b0ada836e4751571258d99e5b8aec348ea7b7f2d53ec1e2b0360da513b7f61c2d4d427c341aecd2453369dcc6314eca4b10305d21a707732342bdc7b974b37032090b39b1593fc13b74dc8ed4244fd46bdc49d06790d8b09ebb7d4534f8244823a394f33b258aa60ff19372c0537d0b612c8646dc6b65866a1212608a7e36ad1eaaa2459c2bdc87bd9424d3e571f5984fefb2731fc7b9f08713756ca341c4d1d5ee8d5e4f52e70af34d91c1488a3793873ae496163227725bdaa671f7e4ce433c353b721a1c619d0001f531b86025acfcae98eadfd12bbf6a9675bdaf6565cb20226d02f66de014f509c320215a6afa9770c2e6cc3986d418a6765dfb9bae1e556dccf4057d38f46c5482f332e0d156815bd1cbcc63b63d7cdcbb979314f7f446613fbbfe47353960ad5f5fbca17f22610c1136313558e6da9bd09b1fac966b0d4502061fcc48145ed78b6dd7cb35826998c2a46a3b4952b3a4913ea7163e2285104fef54cf7a3a40260faeee90862a04969f8f1c0f8f1dbc0df04440889f2bb3f83351814805b41e5041a0d5a04964452515966124859cbfe43316c3ac86b7d6f1f0e778be866681187a914e6940093702bdd9f9d8819358bb39e77f751a048e0ab2ccaa41612826648f15ad4f701772020d902e3e109056f625089e234b8ba62009568e0417dd49e6619d6258e2e9f6ab49e1ba65093e9c61c6f0fa0e6e6cf2acc10638a698fc5282a6950332ea9d2ad383b12f2b5a01693fb4e9387f077691fc80b1e282b2d30abb9bebfcddde3f5fd13284455657f8a99bf050912282f4045545c61919eaaabaeb3dfe6e8070a172a35495e5f9395aac4c9cae2f7f900000000000000000000000000000000000000000f182b3c01fd21050095d7aad016f6f1dffc55130825610269a0250840a6a807a589e96da82f275f51d4415f9057437175785424e300eec428e827b5b38988f99eb6481fb6bdfc71a21bbcd65feca1c0899590a9936417ac6018372af42acdbaceb282d60fc7e593e2b5c80db69c35d6129333385dece7711779c253ae1f6ee309c004204c8a6ca2e7a91f251dede187e719298f9a6d57ca924fc5cf78c3679425c994ebcbf703c28abdf6879fd83797e95fc8feffba0723c6c2e34b46c9fa88185e85cfc84c1d32332405543f950d6c89667cef77513404403a4b9215556dac182ee3b84e9dc5e9cb5427d6c10dd12b3cdea8819f444e975fc1c8b018e4927e227cf980e58febceb119dbaead68a051bc47453e08ace434553617dd6e6f639b81b02331566ae6346a843d88934379354c8a2915270b0bea6b66bdf9bb43b64263e814159f3a798649996c9df921dd1fb4892a5b0cb8555fbbb76fd900c63d3a95b41be3a4b0821aa1c1b0c240c543e16dd4fe59e4705702e7c5577ed15510bbba2832e7831b85cf27d7e62f1756cca149bc5f86f308084fe255e08b85b41f561e37d9abd534b0b6ae4563a033fa6ba609dff63e8aa775c0bf315b1a376a27d8d052c6694a0a3278c39bebb650d5bff69ad5189d4233c7d6b288109903c92aa17223e89da817cfe8b406e6b9791b4499bcfea9606101dfeb005f18d549293a7084f77886f4c19314e9f1bf2e25a0d574c4cabf239c32376fcceb0bf72afa2ec9b75ffc51d21f4d57108940dad24a24c39cba5ba290df010d5a0648a5e0a414c4e8fa4f70cab4f84ad77f787e91530f76966758a55933393db580e73a3e623f13a1ad60b9f8725cf19a86bd09b6901430c64f7436c0f601bd442fbfb6b7906bfb2d4e29ee3ca5d9284ce9ca1c1987fe3c2a08e0a4cbc8468b4c04b6d6672978c43e61994fe0a1295138721b4b8d1c83c1a269c47c1cc8a927fe10336051976004efa0581baee79c717b092beac898e43ba29eba423133241812434b21e800e7be9c63a3f780a97d213fa8046a53204ac4e306a68c1ac0a934875d8de08dc06fbe3969963d9f876012768af1670139ad955455e6726182206ee61be166a32c7259d4c46b2c6b3bcd98422e48f68f8c67bf56fe5a6fbed8b5b8ba49a714605b5028916329f20b1f4b282b440038765846f5ac90e2c9971cc5c0618f8dc2019ab64c9fd38a399f79a83b66902699aabab1be6feeb703be436139567277ab50c96f54e9d5d8759de1b635a6399e0d80dd6e9af9f66be4025e3ed5204060cb102101c41ba44ea9568e1f353073b0ff61419de08beada3dc7a5b00d923b4d9b344016e04ee04905e6d6d1a7bdfc318329171d9745e29be597a44eec59d7a20f8d9ee07190db9f157c19bb0347d52782e5722ae83da79688306c34776684ff11143090f610558132d682446655247afc4e233e20b1beab567ccd26f57b722a64dfa66279a08236825371ea28f11bb05aa3a2e2aff5ed78636c3eabe65e66a3174edb2b88a46e18993e23c737f12a8f483651b50f4280ad72891c15754ec15612df082a592acee469d996551164c920837eb51dc768122a4879da71707127900fd6639a2d38eecc5b1c1038a74b23664cfefdef6bcfd3df75f892d8fdc4cc4734eb32891bb273c2a309ac749b8715737d9e416320cd2eb434433c7b061bc7dd1860d5bab4fc8cc58c91bca0891f22f2640e807466eee094675673a8f656a0b4c334d757b0182722064a04504c5cc38cf7e367e1d017c9cac3f886adb22d0e65e5c2b78b5c9769782a7e08fa2bc47bd62b625c40169335fb5f552dc5ea932e03b5639fe93595763a10d936ff344d68000000",
  "txid": "31ca485072457d1cf678c177221ff348204e091d601e185e2ee32801ea4a2ee0",
  "hash": "66d08bed86857e4eec9392ffc5cc5c12a325e97fb5678254fd9e17bea49d47a0",
  "size": 5085,
  "vsize": 2278,
  "version": 1,
  "locktime": 104,
  "vin": [
    {
      "txid": "5f8a49fda9ba8672cc01d529d1f13d36686f564633b47ca8741d53e010ef2f65",
      "vout": 0,
      "scriptSig": {
        "asm": "",
        "hex": ""
      },
      "txinwitness": [
        "321e9276cbc28f9f2ad1dba1ee33ad12f2f2fe2e5b236e7699067550ee8679e06af5f791d7770484c28d7cdff6e3930e6583ede129cd8dd37105d63d2deb204a9b1038ff9c397247b660673475be4d2aa73377ed30ce3441c90ac2c3d6517a3fa7921934353b707f68450e6393d16587327b9cd88c20ad6e1869bbce7e6fc8219c4ba6ab8fe8caa4de4ba622ff14f18d731001bda61c39d913ff8a0dcc5fee674a93dd3a8739f946ad01f9d3d67baa33bae8e427e8e2d8829dca47a8079f430e330570bece48e47da9c7a3b5a8170065f1b952c8ad12704bea30db108a331c7308af41ed63adecec4f2354a9d5437204ce00ca546b8099fa1f261cbe1484dc8adb4bc80294f8d8b446a2ce8d0895aaf8a361d5a942dd7a8c9d94db0684a29486aab30f792ecffcc0e3c36abacb62911f67ceb50e662a8bbff7c4df497c3896d25fc2f7162bf9dc0d1033a8a03941d851a7edcbf9f2de56b29d7ba2ef54bd3f47162a051c738573e091c840776bf909cadff7d8da318831d9c025f11d915a21aac2b7cfda2ae095a3e18831e3e07b2673c3d6749842e0b9f251c2238b7c2c82720bbb7a4f354d8a6578e7a115d7501b9c90fb23927a27a7122079f0beddaf701cfad062be88819a5f85f9c0e90a4c30a88f61ad970a630490ac8cb98444b9da9a15b29cdef01751098b6aee922eaffa91a072aff6cf4f97f22e0efa3ddf693df0498f9363f2997d6e972d1aae76478d8f31a633ddc1ca341463ae77902f9f062b30dfb1a8fddf8396aa600b4203e999f085ba242fc07c6ab65e8572974c53de6cedb0a4a3db20f299da8f3f5f0e9ecb266b0302c0ef06a07ecfe9a626fd29f3410df01ac25ae2b24a0c9dd05527cbbadf2149903ebe0544ae937159c89bc109a5d05ee6765d6fc00d778b3dacce0c6a50821b802e06d953dd2eb22eb601dcbc710e532f17446ccd8c499e5fa5934c0d149e506e4de301d989debf9e0171ccfa76fbbadab0eeb06766326322b5963ceb585bced0fc8b80421fb0d187fa8d03152414b3147b4844822af3ad146da5542bb6b97eee33d5008a103a934dd16b16b35cfd2233c60fdfe09d2e430dd7777cecd5986b1fa7cee47b61cf3e512f4b4142c69aeb3eb00ed2cf760297c4b2c50a56907ac8a95b726d3c0474ab426bd805bb60fb4b2a1f280a1571289a4cc6d111a08ae515e86193e512eddbabd2921782283246424ddd5325a19e8f9c1bf96109b62d3cd9bcbf3e514cf99b46ff908aabcbe83ada2b2959980fa58c0fb7bcf3ef59b67e6c9ae1850096d8540c868df27c5943d4dacf1842cad2e8aa77a0258c10bb48b38aace23d8863cb00125c558b95fb071a1ee3cc65874fcdae82463b3bdb0acf43cc21667ca3a89e5a6e0558869331f8a94996d057becdcb3e26f38da8f7c81de2810c31acc25b59872e839f6c5ceb70ed3f2ae0e1ebf9ab569f93bdb3b3084ac67506df2e09211d5666f175ea22531ee1b2c939ed0d48b7667951c1e0b5e168986690ef2531c00d4cbcea7c9e7ec2a718f3fc070539ac32c8f251df6c31890db9ff7512fc58c740df43d59fde22418b9040b7acb147ee22019f7ec4d5d9ff1a449860ef149332e0b5ed3f17f0915ad99970de500922851d245f96eb4b426a1daddc2504707c0f9c5ad52acc9d47566c422f1242b5a0b6924b5d11cc378cc0b8fb12beeacee45873476822f1d72fb92c32783cf1044d7461f79e001e45e1140173550eca3846ce23f620e6ebf0fdee90e7df9175b9a3c3145c0ca4de812a0379280e5b0e930dd3cc95e2540d425b50ea04f4a525d6d9d03087bea46b0a3b1cd32821323f045ee86a0617715dc87d499ab5d81c7e220cb239271fe2eb1ba807ad7cc085055537ca859ebe3e07d26a7d04fe4e1daf316bc3e9cf6a0b034c52c1bf9462ea4226ed24d5634f2f76575b82b65f2b40b77be16a9b9e8cdd10f7f03ab6990d0d0dcc3e774abbda0709eab17bb2e1c21c476ae60e0cb5bcb289b233892d9eb8a2b489d927989b2bb87d8cf8e995c9cde7337bd40311c11c5f416f1ae9b8b4fbd7f8dc077395bc63f7c82c0c523590c3e794ce3aef4ba7d709162af865af3d8848fced5f2bccdd2d0ccdd3ddc0236758828ca1fcd4dd5b2b8c58d179881603b3ad1eb63a70d2056e5c1dd46744287cca98756d562fcf0e9d7f1cfa7bffca66b008cccec7e28ec8bb61466343bcba5ee7b5ff869890c5998fd4cf9d57eea9882f44c9e51da0914657168745638d624023881e26a31838c4f67e9014afc9928218af23d505d376bbc2c80e18da83f29ab64ce1baa14cab34f8c8dc8a8f09bf07195893e473ebfedcbae5ebcbdf97a97962b0441d6153271fde013a51bf9fbcb76759ad73950ff2e11551efeaadb4585a6cf001396515af1ae727431062e52c70a298138df8e9eca1fb4ad00d80c81dca8e8c3baf6bfb4e8d272617196aed4215b358d85387f1bcbbae50a38330da8562752873a4f1a9d18f8e6d3a6b4b6a288c1ecfb6af3de34d13aae44aaff6b0ada836e4751571258d99e5b8aec348ea7b7f2d53ec1e2b0360da513b7f61c2d4d427c341aecd2453369dcc6314eca4b10305d21a707732342bdc7b974b37032090b39b1593fc13b74dc8ed4244fd46bdc49d06790d8b09ebb7d4534f8244823a394f33b258aa60ff19372c0537d0b612c8646dc6b65866a1212608a7e36ad1eaaa2459c2bdc87bd9424d3e571f5984fefb2731fc7b9f08713756ca341c4d1d5ee8d5e4f52e70af34d91c1488a3793873ae496163227725bdaa671f7e4ce433c353b721a1c619d0001f531b86025acfcae98eadfd12bbf6a9675bdaf6565cb20226d02f66de014f509c320215a6afa9770c2e6cc3986d418a6765dfb9bae1e556dccf4057d38f46c5482f332e0d156815bd1cbcc63b63d7cdcbb979314f7f446613fbbfe47353960ad5f5fbca17f22610c1136313558e6da9bd09b1fac966b0d4502061fcc48145ed78b6dd7cb35826998c2a46a3b4952b3a4913ea7163e2285104fef54cf7a3a40260faeee90862a04969f8f1c0f8f1dbc0df04440889f2bb3f83351814805b41e5041a0d5a04964452515966124859cbfe43316c3ac86b7d6f1f0e778be866681187a914e6940093702bdd9f9d8819358bb39e77f751a048e0ab2ccaa41612826648f15ad4f701772020d902e3e109056f625089e234b8ba62009568e0417dd49e6619d6258e2e9f6ab49e1ba65093e9c61c6f0fa0e6e6cf2acc10638a698fc5282a6950332ea9d2ad383b12f2b5a01693fb4e9387f077691fc80b1e282b2d30abb9bebfcddde3f5fd13284455657f8a99bf050912282f4045545c61919eaaabaeb3dfe6e8070a172a35495e5f9395aac4c9cae2f7f900000000000000000000000000000000000000000f182b3c01",
        "0095d7aad016f6f1dffc55130825610269a0250840a6a807a589e96da82f275f51d4415f9057437175785424e300eec428e827b5b38988f99eb6481fb6bdfc71a21bbcd65feca1c0899590a9936417ac6018372af42acdbaceb282d60fc7e593e2b5c80db69c35d6129333385dece7711779c253ae1f6ee309c004204c8a6ca2e7a91f251dede187e719298f9a6d57ca924fc5cf78c3679425c994ebcbf703c28abdf6879fd83797e95fc8feffba0723c6c2e34b46c9fa88185e85cfc84c1d32332405543f950d6c89667cef77513404403a4b9215556dac182ee3b84e9dc5e9cb5427d6c10dd12b3cdea8819f444e975fc1c8b018e4927e227cf980e58febceb119dbaead68a051bc47453e08ace434553617dd6e6f639b81b02331566ae6346a843d88934379354c8a2915270b0bea6b66bdf9bb43b64263e814159f3a798649996c9df921dd1fb4892a5b0cb8555fbbb76fd900c63d3a95b41be3a4b0821aa1c1b0c240c543e16dd4fe59e4705702e7c5577ed15510bbba2832e7831b85cf27d7e62f1756cca149bc5f86f308084fe255e08b85b41f561e37d9abd534b0b6ae4563a033fa6ba609dff63e8aa775c0bf315b1a376a27d8d052c6694a0a3278c39bebb650d5bff69ad5189d4233c7d6b288109903c92aa17223e89da817cfe8b406e6b9791b4499bcfea9606101dfeb005f18d549293a7084f77886f4c19314e9f1bf2e25a0d574c4cabf239c32376fcceb0bf72afa2ec9b75ffc51d21f4d57108940dad24a24c39cba5ba290df010d5a0648a5e0a414c4e8fa4f70cab4f84ad77f787e91530f76966758a55933393db580e73a3e623f13a1ad60b9f8725cf19a86bd09b6901430c64f7436c0f601bd442fbfb6b7906bfb2d4e29ee3ca5d9284ce9ca1c1987fe3c2a08e0a4cbc8468b4c04b6d6672978c43e61994fe0a1295138721b4b8d1c83c1a269c47c1cc8a927fe10336051976004efa0581baee79c717b092beac898e43ba29eba423133241812434b21e800e7be9c63a3f780a97d213fa8046a53204ac4e306a68c1ac0a934875d8de08dc06fbe3969963d9f876012768af1670139ad955455e6726182206ee61be166a32c7259d4c46b2c6b3bcd98422e48f68f8c67bf56fe5a6fbed8b5b8ba49a714605b5028916329f20b1f4b282b440038765846f5ac90e2c9971cc5c0618f8dc2019ab64c9fd38a399f79a83b66902699aabab1be6feeb703be436139567277ab50c96f54e9d5d8759de1b635a6399e0d80dd6e9af9f66be4025e3ed5204060cb102101c41ba44ea9568e1f353073b0ff61419de08beada3dc7a5b00d923b4d9b344016e04ee04905e6d6d1a7bdfc318329171d9745e29be597a44eec59d7a20f8d9ee07190db9f157c19bb0347d52782e5722ae83da79688306c34776684ff11143090f610558132d682446655247afc4e233e20b1beab567ccd26f57b722a64dfa66279a08236825371ea28f11bb05aa3a2e2aff5ed78636c3eabe65e66a3174edb2b88a46e18993e23c737f12a8f483651b50f4280ad72891c15754ec15612df082a592acee469d996551164c920837eb51dc768122a4879da71707127900fd6639a2d38eecc5b1c1038a74b23664cfefdef6bcfd3df75f892d8fdc4cc4734eb32891bb273c2a309ac749b8715737d9e416320cd2eb434433c7b061bc7dd1860d5bab4fc8cc58c91bca0891f22f2640e807466eee094675673a8f656a0b4c334d757b0182722064a04504c5cc38cf7e367e1d017c9cac3f886adb22d0e65e5c2b78b5c9769782a7e08fa2bc47bd62b625c40169335fb5f552dc5ea932e03b5639fe93595763a10d936ff344d"
      ],
      "sequence": 4294967294
    }
  ],
  "vout": [
    {
      "value": 1.0,
      "n": 0,
      "scriptPubKey": {
        "asm": "OP_RETURN 01faf3415db3ba95949f426d5177bcf6d8e02a3850cb2e74f809a1a0e4bc6d3f f4975b4e273505c9a0b9360a54c0164e07a4abdb15109b79c3727ea97c04cd8bd4b77b6e071525e98099162a74e0366e27848bfb3530bb59e3525e895c24edabb4d71b0e67754589e0f9764a1480560e47e4eb9b5550db3983323ee93c448dcb94f73b2e475565a9c0d9566a34a0762e67c4cbbb7570fb19a3121ec91c64adeb7417dbcea7b585492039b68ad44096ce87242b5b95901bf943f2fe29fc844d0b5437fbee8795a569001996aaf460b6eea7040b7bb5b03bd963d2de09dca46d2b34579b8ee7f5c5096079f6ca9400d68ec7646b1bd5d05bb903b2be69bcc40d4b1477bbaec7d5e5294059d6eab420f6aee7444b3bf5f07b9923929e499ce42d6bf4975b4e273505c9a0b9360a54c0164e07a4abdb15109b79c3727ea97c04cd8bd4b77b6e071525e98099162a74e0366e27848bfb3530bb59e3525e895c24edabb4d71b0e67754589e0f9764a1480560e47e4eb9b5550db3983323ee93c448dcb94f73b2e475565a9c0d9566a34a0762e67c4cbbb7570fb19a3121ec91c64adeb7417dbcea7b585492039b68ad44096ce87242b5b95901bf943f2fe29fc844d0b5437fbee8795a569001996aaf460b6eea7040b7bb5b03bd963d2de09dca46d2b34579b8ee7f5c5096079f6ca9400d68ec7646b1bd5d05bb903b2be69bcc40d4b1477bbaec7d5e5294059d6eab420f6aee7444b3bf5f07b9923929e499ce42d6bf4975b4e273505c9a0b9360a54c0164e07a4abdb15109b79c3727ea97c04cd8bd4b77b6e071525e98099162a74e0366e27848bfb3530bb59e3525e895c24edabb4d71b0e67754589e0f9764a1480560e47e4eb9b5550db3983323ee93c448dcb94f73b2e475565a9c0d9566a34a0762e67c4cbbb7570fb19a3121ec91c64adeb7417dbcea7b585492039b68ad44096ce87242b5b95901bf943f2fe29fc844d0b5437fbee8795a569001996aaf460b6eea7040b7bb5b03bd963d2de09dca46d2b34579b8ee7f5c5096079f6ca9400d68ec7646b1bd5d05bb903b2be69bcc40d4b1477bbaec7d5e5294059d6eab420f6aee7444b3bf5f07b9923929e499ce42d6bf4975b4e273505c9a0b9360a54c0164e07a4abdb15109b79c3727ea97c04cd8bd4b77b6e071525e98099162a74e0366e27848bfb3530bb59e3525e895c24edabb4d71b0e67754589e0f9764a1480560e47e4eb9b5550db3983323ee93c448dcb94f73b2e475565a9c0d9566a34a0762e67c4cbbb7570fb19a3121ec91c64adeb7417dbcea7b585492039b68ad44096ce87242b5b95901bf943f2fe29fc844d0b5437fbee8795a569001996aaf460b6eea7040b7bb5b03bd963d2de09dca46d2b34579b8ee7f5c5096079f6ca9400d68ec7646b1bd5d05bb903b2be69bcc40d4b1477bbaec7d5e5294059d6eab420f6aee7444b3bf5f07b9923929e499ce42d6bf4975b4e273505c9a0b9360a54c0164e07a4abdb15109b79c3727ea97c04cd8bd4b77b6e071525e98099162a74e0366e27848bfb3530bb59e3525e895c24edabb4d71b0e67754589e0f9764a1480560e47e4eb9b5550db3983323ee93c448dcb94f73b2e475565a9c0d9566a34a0762e67c4cbbb7570fb19a3121ec91c64adeb7417dbcea7b585492039b68ad44096ce1486d84d6f05df80a845b3a3e0ca3f89d36e987641814ea6218f712a3c0ca249",
        "hex": "6a2001faf3415db3ba95949f426d5177bcf6d8e02a3850cb2e74f809a1a0e4bc6d3f4db004f4975b4e273505c9a0b9360a54c0164e07a4abdb15109b79c3727ea97c04cd8bd4b77b6e071525e98099162a74e0366e27848bfb3530bb59e3525e895c24edabb4d71b0e67754589e0f9764a1480560e47e4eb9b5550db3983323ee93c448dcb94f73b2e475565a9c0d9566a34a0762e67c4cbbb7570fb19a3121ec91c64adeb7417dbcea7b585492039b68ad44096ce87242b5b95901bf943f2fe29fc844d0b5437fbee8795a569001996aaf460b6eea7040b7bb5b03bd963d2de09dca46d2b34579b8ee7f5c5096079f6ca9400d68ec7646b1bd5d05bb903b2be69bcc40d4b1477bbaec7d5e5294059d6eab420f6aee7444b3bf5f07b9923929e499ce42d6bf4975b4e273505c9a0b9360a54c0164e07a4abdb15109b79c3727ea97c04cd8bd4b77b6e071525e98099162a74e0366e27848bfb3530bb59e3525e895c24edabb4d71b0e67754589e0f9764a1480560e47e4eb9b5550db3983323ee93c448dcb94f73b2e475565a9c0d9566a34a0762e67c4cbbb7570fb19a3121ec91c64adeb7417dbcea7b585492039b68ad44096ce87242b5b95901bf943f2fe29fc844d0b5437fbee8795a569001996aaf460b6eea7040b7bb5b03bd963d2de09dca46d2b34579b8ee7f5c5096079f6ca9400d68ec7646b1bd5d05bb903b2be69bcc40d4b1477bbaec7d5e5294059d6eab420f6aee7444b3bf5f07b9923929e499ce42d6bf4975b4e273505c9a0b9360a54c0164e07a4abdb15109b79c3727ea97c04cd8bd4b77b6e071525e98099162a74e0366e27848bfb3530bb59e3525e895c24edabb4d71b0e67754589e0f9764a1480560e47e4eb9b5550db3983323ee93c448dcb94f73b2e475565a9c0d9566a34a0762e67c4cbbb7570fb19a3121ec91c64adeb7417dbcea7b585492039b68ad44096ce87242b5b95901bf943f2fe29fc844d0b5437fbee8795a569001996aaf460b6eea7040b7bb5b03bd963d2de09dca46d2b34579b8ee7f5c5096079f6ca9400d68ec7646b1bd5d05bb903b2be69bcc40d4b1477bbaec7d5e5294059d6eab420f6aee7444b3bf5f07b9923929e499ce42d6bf4975b4e273505c9a0b9360a54c0164e07a4abdb15109b79c3727ea97c04cd8bd4b77b6e071525e98099162a74e0366e27848bfb3530bb59e3525e895c24edabb4d71b0e67754589e0f9764a1480560e47e4eb9b5550db3983323ee93c448dcb94f73b2e475565a9c0d9566a34a0762e67c4cbbb7570fb19a3121ec91c64adeb7417dbcea7b585492039b68ad44096ce87242b5b95901bf943f2fe29fc844d0b5437fbee8795a569001996aaf460b6eea7040b7bb5b03bd963d2de09dca46d2b34579b8ee7f5c5096079f6ca9400d68ec7646b1bd5d05bb903b2be69bcc40d4b1477bbaec7d5e5294059d6eab420f6aee7444b3bf5f07b9923929e499ce42d6bf4975b4e273505c9a0b9360a54c0164e07a4abdb15109b79c3727ea97c04cd8bd4b77b6e071525e98099162a74e0366e27848bfb3530bb59e3525e895c24edabb4d71b0e67754589e0f9764a1480560e47e4eb9b5550db3983323ee93c448dcb94f73b2e475565a9c0d9566a34a0762e67c4cbbb7570fb19a3121ec91c64adeb7417dbcea7b585492039b68ad44096ce1486d84d6f05df80a845b3a3e0ca3f89d36e987641814ea6218f712a3c0ca249",
        "type": "nulldata"
      }
    },
    {
      "value": 499993.8986,
      "n": 1,
      "scriptPubKey": {
        "asm": "1 0f2f0407296b607b9dc124e5da9eb1d5fb17861ef51c2bebe0ab1090ade3a14c",
        "hex": "51200f2f0407296b607b9dc124e5da9eb1d5fb17861ef51c2bebe0ab1090ade3a14c",
        "reqSigs": 1,
        "type": "witness_v1_scripthash",
        "addresses": [
          "3QJmnh"
        ]
      }
    }
  ],
  "blockhash": "32a2d379a33ec88ae1cb3a8a1a44f2d12b76aebf574ecf7ac16b289397ed6cd9",
  "confirmations": 1,
  "time": 1764176557,
  "blocktime": 1764176557
}