{
  "hex": "0100000000010106d154d9d2b4de520fa56d59193fbd35502eeb75d062dc69301680fdbba49fd90100000000feffffff0200e1f50500000000fdd5046a208325811e4bf3c55b2c9055fdd616b8ccdf81f5fb6f98c8c2b9f9b4d09c87a2bd4db004e5ca83707b5a5a96f38e8171b1f82b10e1555a0a590e65a28475f9972b4c48f1c5eaa3505b7a7ab6d3aea15191d80b30c1757a2a792e4582a455d9b70b6c68d1a58ac3303b1a1ad6b3cec131f1b86b50a1151a4a194e25e2c435b9d76b0c08b185aae3101b3a3af693eee111d1984b7081353a6a396e05c2e41599f74b2c2891654a03f0fbdada16730e01f13178ab9061d5da8ad98ee52204f57917abccc871456a23d0dbfafa36532e21d111588bb041f5faaaf9aec50224d559378bece851250a43b0bb9a9a56334e41b17138ebd021959aca99cea56244b53957eb8c8831052a63909bbaba76136e61915118cbf001b5baeab9ee854264951977cbaca811e5ca83707b5a5a96f38e8171b1f82b10e1555a0a590e65a28475f9972b4c48f1c5eaa3505b7a7ab6d3aea15191d80b30c1757a2a792e4582a455d9b70b6c68d1a58ac3303b1a1ad6b3cec131f1b86b50a1151a4a194e25e2c435b9d76b0c08b185aae3101b3a3af693eee111d1984b7081353a6a396e05c2e41599f74b2c2891654a03f0fbdada16730e01f13178ab9061d5da8ad98ee52204f57917abccc871456a23d0dbfafa36532e21d111588bb041f5faaaf9aec50224d559378bece851250a43b0bb9a9a56334e41b17138ebd021959aca99cea56244b53957eb8c8831052a63909bbaba76136e61915118cbf001b5baeab9ee854264951977cbaca811e5ca83707b5a5a96f38e8171b1f82b10e1555a0a590e65a28475f9972b4c48f1c5eaa3505b7a7ab6d3aea15191d80b30c1757a2a792e4582a455d9b70b6c68d1a58ac3303b1a1ad6b3cec131f1b86b50a1151a4a194e25e2c435b9d76b0c08b185aae3101b3a3af693eee111d1984b7081353a6a396e05c2e41599f74b2c2891654a03f0fbdada16730e01f13178ab9061d5da8ad98ee52204f57917abccc871456a23d0dbfafa36532e21d111588bb041f5faaaf9aec50224d559378bece851250a43b0bb9a9a56334e41b17138ebd021959aca99cea56244b53957eb8c8831052a63909bbaba76136e61915118cbf001b5baeab9ee854264951977cbaca811e5ca83707b5a5a96f38e8171b1f82b10e1555a0a590e65a28475f9972b4c48f1c5eaa3505b7a7ab6d3aea15191d80b30c1757a2a792e4582a455d9b70b6c68d1a58ac3303b1a1ad6b3cec131f1b86b50a1151a4a194e25e2c435b9d76b0c08b185aae3101b3a3af693eee111d1984b7081353a6a396e05c2e41599f74b2c2891654a03f0fbdada16730e01f13178ab9061d5da8ad98ee52204f57917abccc871456a23d0dbfafa36532e21d111588bb041f5faaaf9aec50224d559378bece851250a43b0bb9a9a56334e41b17138ebd021959aca99cea56244b53957eb8c8831052a63909bbaba76136e61915118cbf001b5baeab9ee854264951977cbaca811e5ca83707b5a5a96f38e8171b1f82b10e1555a0a590e65a28475f9972b4c48f1c5eaa3505b7a7ab6d3aea15191d80b30c1757a2a792e4582a455d9b70b6c68d1a58ac3303b1a1ad6b3cec131f1b86b50a1151a4a194e25e2c435b9d76b0c08b185aae3101b3a3af693eee111d1984b7081353a6a396e05c2e41599f74b2c2891654a03f0fbdada16730e01f13178ab9023fdf4034c62db14e302296fb63ecdbfbdb9dc1bce3ae09ab7f440a6c0a2f8f4b0cd76d8782d00002251206ba2d1c8e542da3fc08ce9e1df552fce16405ea52ed8ad85f90dd6b6acd15fb002fd75098eecbdc6db273eb22673399e5b1e80d53fdf5b78967f86fa385f349b2834935868ea6ead0a379dbd6c9c382818e30d2578bd6aee24b0c5eb604435e449eb850f1241113628278ca0439b1795d4a92ba0880bcf1443741a5a89155d63353ff90055dfe735ee0758e4fe2b8ea56ecbbebbcb5b4ab25eefcc51b4e4f42dcd2cffd76263a25b31cbcd1a1ca99b8ab4ec56dd9215787fdd7ae5fe3124e985ff9ea6372d06941a8a625a9f6c232d05a9a684a8158a6d50255da7843ab3855a49d580e859b0b6b19490ec5936527b1d553071d8528ac7fd613fc2c50601f9c15629a3ec5d325592a523d1ecdf4be9a50ba36300ac77606f538d42cdd547b6386bac8c85933c4a4d2127b58f4e268abcd841ec9f85db56f9a854bebdac2ff4200a141b4da44d8017b8015d8adf868f8a75d3c7691b929b5d8fb6e7ddd0f7b1a9b7038d18afbd769c96a3f49f2319fb8380667e4055abe5df0f5756b425839a3eb5ac4f08982e78881a065ecef1d162664c82a1d234c65849204ee9aeef40104afd5454f57236d7827c2e1f887712007cc27eda68f69f5cc9fdffe23a8a67ac729aa6102402d0aed232438422c51481b151d7e4dffdc77558bab7097c05335cb7f474672765c63b549bab0b15ae1ba70c1d880ea56f4128fc5fa2b924b0bf6ab1bce82e46f7dca802d1a4f449e19cddae420b8d50e6aa104dfeef4f09fd3a11fdee2e832d626f3313efda5c386100fe6242fc9c558e4d7b379facbbcb1268f17d3e33b9b3386442ee657b5700b9eb6493cde39ccd18015c735baf19d440a51cf7c0d88c1fef2932ef5521665a45af82a6789686c67a182380c92b1ed319ebbd25c471dff1f84a0862ba1d04ece248178f182d1c10bdedcca3bdb4736ce53f0ae06584d6ed4712ce914439fa3d024f3ed5ea72d9c77b418d442dcaab883299f925bd08c4dbcd570b49cbfb7ae781f62d7b58aac2684030247cc1f18ed9e6f3350a99f865f065bb58267dfbdbb720964f46ea1f091912ce7f487b5605b73c97a35809ecfac31a40c0e7841655ee4c799d04309c777dae3b4a13dd180b986c46405aa3ce11d650fdf1ef324e6c5378f0726e2796dbc4f33c27678119cee84235b4c358209483c7b7e8857e7cf38b3ffa4b1b5d5b099c3f3f7ec4774be263b8dcd5e08eb92a57c83b861300bd2ff059365e852a4d07f8c49d0c7f32c9f8c7327b4494cc05adc7a0714854bf655edc81eac30046611f82bf5b36041d5ee9920d344cbbf69b949b251deaea20fa0d508e1e66cd37e38b18c2c97cbf007647649254a386da35f3a6468e430011cda3f4650d579023d9e12d320beb928cebad3faa17073c163f42309d596db6aa2f904500c4d891f94c911ef13c33653faf7336cc621f31271a80c8274e281c28f6e6f827b538d3c5ba938360c256bd00d403199921dd51a2852b4bd87eb8f8b145a31faec904a8a29137ca525c23b11c3e808229b705f2ab5a65615d63cd3e973ca34e1f81ca4cb8971761cd28b445efd03bad8f340bc585e3cbc8395592c188cdad5a5481a958ac108fd2728a489a368d969828e799f3d8caa4deceabe8095cf502da7d66ae737360257b176f0bdc071bf411d73c620d27a938b33d79dceffa6c7395995a025ed07099ceff55b91a6d13ea78977834f4a9a7abca1e7ede0ad0d8564c601bc6b90ed842bb6c39d9540b9cda4103a767c4e9ce20d2d0fe1572852ab6d7e4c7dc1eba8b04a26893e4749e6a3e5a6479cffaafeab25431dabda0040be7c13212a74245c84a0713a0cc44f939d987e61069030850350474049cd8cc0d1e584f368d4f6ee0f8b90aeef03e2a6696e470a3caf3037358fa7bd107253f7655f402142ba2b747654d2f29e1b17a8365c977e227fc2d883c9bbce745e85fcc130cc5a51dee9a4a8e519cf3d55206fea9a4f1568788967b08634e20866b896d0580c0ef117e8d332181724c25122b1448a5e0f5f7a49024cb2b0ac47a58ebb3bd3945a66d13185de3f1f8cdc3191580d9ff8092c76ad375f62c34af867b5a8cbe208be0e998b9190cb20f092790bbb36df615013d454aa2278bbecf5e98262b037b39e2f7ccc28e303bd82ef0c88ff806ed4a5b2c12c22cc6525e4594b398043fe887853706ce177696fc8ffaf8e932cc0ba4ee9ccbac36d6819235a520eb2124fdab13c5dae7e529df607888b4c2cbd9d1ce035c4ea7e65c863b3832ec010b8892f12ca4dc9b82644cf9f63dce2ed96c36473317c67456abf398a390a9f98bec6ac46474ce8d6cb0bf71bc865a88526708b849038ac0935ccc7fae512a7aaa0abb261415966875a2cf5ae70bd79e6ccc9c338c06a786d224636f6ad00c79f5663bad6b71cad85a5ecf58f71c2cabdc3bc7adcd66ac94131bad324b5305fdc86c45d7d9aa693be9527b55fae4406e4089148225539f03fcbfbbceb57ac21b5a8552f0896f7f9d3af1e15afbb3f7b138a4c1b16c92f6f1facc0fb52aa592406db0b9f0633cbea41ac64e7ce980c88da8801b4a2d79248202c9b1b2d83c6f226564abc2ace7bd3fb06cdaa69e31dee5fee7873d9ac5765d4cde1012b53096ba7812ff9b26d5f61fe76093a6597cb3fa0575cae44f5e42d65846ae3047259343cca1bcb9c52c085cb0144e79bb58fdbbb7009dd734d2b35aef9a9eeed4989efdadb6997103dc677e5e9e19e42b2f8761ebb384a261210c4b6134750e7c3584b83c97a04f46d50ed4292a662eb2db42e87c5eb49755099d651e5ab637941bd8d27ca16d6b16d49a9b229694e82d12fecd3234713ac9922038bc7c5f27614c140a4f7b85a664288d5f56d5e31e6ad360788ae06dd236da9f1ebc50445eec0f376f748607fc82b613bb979b1a7bb1c3bbc21d7f92db0309799065b4810a6891537fe48a01e38a880cc643f162b74d872e40d36b9c37741b3199b46da79864a50c719bc79f3b24e385a093688fb792d99db789b5494e0b3b077e1ce866863c8c127717c1284dee611d3d7bce7c5fb9ff5c7cc7e432155ef9e2c3b0f0306a3b6933f4e8213d3705dc18f57aca39ffb3343174a9bf6a79d2ea9fe2c2546c9c42fa58f7df5acd808fc4623b303a42b73280a4b6b2ff69ee7951150c6c3125de1594d942fa735692dd67d7ecdad38572cb31494af770e51059fa3588f38a10f89ea015ecb94f9023e64459d10f789ea48d8e465c54e453b19c0ed4fcb703f53152482f14c731061388a6203571ecb653e1f88646439c5627b1412aa1d05a506454b59eed004975dd40d61fe421fe9e08ceb4695429544355cb1854811e9f8f19232b41494e6796999ba2aec1c5cbced4d5d9f3fb17232b353c889b9ea1abb2b9c5e1e6ea1213474d4e505f6e747f8f95a2b6b8b9e0f00b2733374758606170778f95a0a1c3c6d3f2f6fdfe000000001525374c01fd2105007c5abee7df28b770eb330f2a6e92ecdb904d91008f477b3826c326cd101911cd67e9f24d5a341a0e500fae500b4840e112a33b4d9252c61b9702729284a6cc4917e3702988aae4ca074f05041b20ed3b52eb625836219569450d14f5d1ccb8212e423406952c565b27b16bbd5ef4879827976aedaedcdd6db8aa270c15246cf88c71fd892494b5799b98c21d355787ec630ca9908ebb0a633061982113b9566ebec9f59f3d855d25e1945849c37554012239429aa43fe69e8f96b4cabea7dc2d2a93bd1d7cd8e0c66071a7047edfabeee5413dc15bb73bdbc4e16b10309976622dabaa1eabd64a78cd1419d8fdb66c4180ef3c3e90d2606bbea1a2248d4ff94b237365a25e392f29440c281b4ba03531dd297c032cc964fd9c9674a5a15ba9b780e1b9cd75f82abe2ef809d0023caa45a9a92e5e8d982b1487a0571caba817b301bd19eae5e49c37993ed5837112c011993a90804c771a7f3df10fcee50cc3209244cc6ea5c71f923565a8584dc2a2951955d2827779e3c67ab4cc543681bffdb8e31da0c62f59951c18dad25f9be3e7a7cb67c3887a7bacaace005d3aef85dd89ed406fd8b272889fa332c129b0bbb59e9939a9c46a16f86912a91d6d75c4ba59e9d99fabbc978cd38f778883cde4f50a2a61164f866ec25df37043c74f098d14d56c44ca0453a6e73b77276c98657c39b68172bd5e963155d4a04d62478a1f2cc3acbd0900553fb04263216fd08fe70c57c130b6013db8ba96912320131d68b2591f572ac187943c84165478d1a50fc276a0d87236e791c6c3863154bd86e86067ac2bc34aef8cb7a80a3c59f506fc9f49ddb52083f1834fdfe24caae2223e2b1aff1868284887a861034170fd7c725748daaebaef13060e6003d90512df283f055067f5de019f16c0e19145b0dfbb079c7008d17eeea315ac6ebb42c75d2869101e3c184e44ee62e090752b12a09407ef58901559edeb8a323030ca78a24f62891b90d172c1b128728f795167e216a4ba5376a211d62f144759b908e810e9a7447806b54e7437d5caf8ccb61716c82d6c40346cf7469338491af1d316ac9f48ea5dab0422d483853e2433c7f8e1aab42e5474568d61815998205ef181f0f08a5b1a8d0cd97f207be07885b6145cf1769d994d65b199cea1f6b42e844fa32ec598c3edaf65f737f4f36c7398b5a3dbb0830938ab2e92afa13ece3224ff7f2234a332853eccaadf5f4b449738ab7b7c0cedff12b1cd6455638a0786302838e271c4e7cf0bf419ba2066455b4e671a77490f9957f1df1839dddd8f14042d39c9bed0045a4a6c5512634765dee3f32c34c1dcc2c1b2c689b761df6de51de398a3a79fbc4550ba69059a6f908c75a8da485a6949a660f5dcce7e97e2e1dd17276a8ea1e4f4fae61719ea3797358b1b2008aca77940732b3a525a22faf0ddc784db8c70dd5a6f38214e34f726cd2c748a0bd746b0195ecf889cbb3503cb31778206afca91c73e2c8eca1fe79d4e7d409b6ce1c7e7cc060ceea044eae7ecf8aaf0166d311aa0dc740cd70725606afd54536aa349c227ea11c827acfc7d9c1b4f7ce11f78ece73d848f455a0f3f3e0b0598b2d45e02581a525044f54ae089592f0d78e90be99d24933b7a1fe723b64a6df75ce46c1258b2d48bc058ec7f95be40e1dfb7d3a977fd4a58865c8d60fcd9c66a760c9e3ed20e66bc3a08472331a694c7d64e55f6af91c72f170e23f6e90c1589eee108150ad84121bc19bc4a903c21c8eea0f95bad0b5280a9bfe4282532bef23cebd65f22ca1272c525a141b90c37937c51774a5b62e1aed5eeac730f8a6f180ec925563cc1646fac2e3d43067346aadc7f000000",
  "txid": "351a4f13586c28c6823806b84baed9fe619adf27c6b72e3e516dcb7e43ee701f",
  "hash": "fccbdc9d54dedc5f2c87a85ad1d2e5ad274639121cabace4302e89b1176e3e81",
  "size": 5085,
  "vsize": 2278,
  "version": 1,
  "locktime": 127,
  "vin": [
    {
      "txid": "d99fa4bbfd80163069dc62d075eb2e5035bd3f19596da50f52deb4d2d954d106",
      "vout": 1,
      "scriptSig": {
        "asm": "",
        "hex": ""
      },
      "txinwitness": [
        "8eecbdc6db273eb22673399e5b1e80d53fdf5b78967f86fa385f349b2834935868ea6ead0a379dbd6c9c382818e30d2578bd6aee24b0c5eb604435e449eb850f1241113628278ca0439b1795d4a92ba0880bcf1443741a5a89155d63353ff90055dfe735ee0758e4fe2b8ea56ecbbebbcb5b4ab25eefcc51b4e4f42dcd2cffd76263a25b31cbcd1a1ca99b8ab4ec56dd9215787fdd7ae5fe3124e985ff9ea6372d06941a8a625a9f6c232d05a9a684a8158a6d50255da7843ab3855a49d580e859b0b6b19490ec5936527b1d553071d8528ac7fd613fc2c50601f9c15629a3ec5d325592a523d1ecdf4be9a50ba36300ac77606f538d42cdd547b6386bac8c85933c4a4d2127b58f4e268abcd841ec9f85db56f9a854bebdac2ff4200a141b4da44d8017b8015d8adf868f8a75d3c7691b929b5d8fb6e7ddd0f7b1a9b7038d18afbd769c96a3f49f2319fb8380667e4055abe5df0f5756b425839a3eb5ac4f08982e78881a065ecef1d162664c82a1d234c65849204ee9aeef40104afd5454f57236d7827c2e1f887712007cc27eda68f69f5cc9fdffe23a8a67ac729aa6102402d0aed232438422c51481b151d7e4dffdc77558bab7097c05335cb7f474672765c63b549bab0b15ae1ba70c1d880ea56f4128fc5fa2b924b0bf6ab1bce82e46f7dca802d1a4f449e19cddae420b8d50e6aa104dfeef4f09fd3a11fdee2e832d626f3313efda5c386100fe6242fc9c558e4d7b379facbbcb1268f17d3e33b9b3386442ee657b5700b9eb6493cde39ccd18015c735baf19d440a51cf7c0d88c1fef2932ef5521665a45af82a6789686c67a182380c92b1ed319ebbd25c471dff1f84a0862ba1d04ece248178f182d1c10bdedcca3bdb4736ce53f0ae06584d6ed4712ce914439fa3d024f3ed5ea72d9c77b418d442dcaab883299f925bd08c4dbcd570b49cbfb7ae781f62d7b58aac2684030247cc1f18ed9e6f3350a99f865f065bb58267dfbdbb720964f46ea1f091912ce7f487b5605b73c97a35809ecfac31a40c0e7841655ee4c799d04309c777dae3b4a13dd180b986c46405aa3ce11d650fdf1ef324e6c5378f0726e2796dbc4f33c27678119cee84235b4c358209483c7b7e8857e7cf38b3ffa4b1b5d5b099c3f3f7ec4774be263b8dcd5e08eb92a57c83b861300bd2ff059365e852a4d07f8c49d0c7f32c9f8c7327b4494cc05adc7a0714854bf655edc81eac30046611f82bf5b36041d5ee9920d344cbbf69b949b251deaea20fa0d508e1e66cd37e38b18c2c97cbf007647649254a386da35f3a6468e430011cda3f4650d579023d9e12d320beb928cebad3faa17073c163f42309d596db6aa2f904500c4d891f94c911ef13c33653faf7336cc621f31271a80c8274e281c28f6e6f827b538d3c5ba938360c256bd00d403199921dd51a2852b4bd87eb8f8b145a31faec904a8a29137ca525c23b11c3e808229b705f2ab5a65615d63cd3e973ca34e1f81ca4cb8971761cd28b445efd03bad8f340bc585e3cbc8395592c188cdad5a5481a958ac108fd2728a489a368d969828e799f3d8caa4deceabe8095cf502da7d66ae737360257b176f0bdc071bf411d73c620d27a938b33d79dceffa6c7395995a025ed07099ceff55b91a6d13ea78977834f4a9a7abca1e7ede0ad0d8564c601bc6b90ed842bb6c39d9540b9cda4103a767c4e9ce20d2d0fe1572852ab6d7e4c7dc1eba8b04a26893e4749e6a3e5a6479cffaafeab25431dabda0040be7c13212a74245c84a0713a0cc44f939d987e61069030850350474049cd8cc0d1e584f368d4f6ee0f8b90aeef03e2a6696e470a3caf3037358fa7bd107253f7655f402142ba2b747654d2f29e1b17a8365c977e227fc2d883c9bbce745e85fcc130cc5a51dee9a4a8e519cf3d55206fea9a4f1568788967b08634e20866b896d0580c0ef117e8d332181724c25122b1448a5e0f5f7a49024cb2b0ac47a58ebb3bd3945a66d13185de3f1f8cdc3191580d9ff8092c76ad375f62c34af867b5a8cbe208be0e998b9190cb20f092790bbb36df615013d454aa2278bbecf5e98262b037b39e2f7ccc28e303bd82ef0c88ff806ed4a5b2c12c22cc6525e4594b398043fe887853706ce177696fc8ffaf8e932cc0ba4ee9ccbac36d6819235a520eb2124fdab13c5dae7e529df607888b4c2cbd9d1ce035c4ea7e65c863b3832ec010b8892f12ca4dc9b82644cf9f63dce2ed96c36473317c67456abf398a390a9f98bec6ac46474ce8d6cb0bf71bc865a88526708b849038ac0935ccc7fae512a7aaa0abb261415966875a2cf5ae70bd79e6ccc9c338c06a786d224636f6ad00c79f5663bad6b71cad85a5ecf58f71c2cabdc3bc7adcd66ac94131bad324b5305fdc86c45d7d9aa693be9527b55fae4406e4089148225539f03fcbfbbceb57ac21b5a8552f0896f7f9d3af1e15afbb3f7b138a4c1b16c92f6f1facc0fb52aa592406db0b9f0633cbea41ac64e7ce980c88da8801b4a2d79248202c9b1b2d83c6f226564abc2ace7bd3fb06cdaa69e31dee5fee7873d9ac5765d4cde1012b53096ba7812ff9b26d5f61fe76093a6597cb3fa0575cae44f5e42d65846ae3047259343cca1bcb9c52c085cb0144e79bb58fdbbb7009dd734d2b35aef9a9eeed4989efdadb6997103dc677e5e9e19e42b2f8761ebb384a261210c4b6134750e7c3584b83c97a04f46d50ed4292a662eb2db42e87c5eb49755099d651e5ab637941bd8d27ca16d6b16d49a9b229694e82d12fecd3234713ac9922038bc7c5f27614c140a4f7b85a664288d5f56d5e31e6ad360788ae06dd236da9f1ebc50445eec0f376f748607fc82b613bb979b1a7bb1c3bbc21d7f92db0309799065b4810a6891537fe48a01e38a880cc643f162b74d872e40d36b9c37741b3199b46da79864a50c719bc79f3b24e385a093688fb792d99db789b5494e0b3b077e1ce866863c8c127717c1284dee611d3d7bce7c5fb9ff5c7cc7e432155ef9e2c3b0f0306a3b6933f4e8213d3705dc18f57aca39ffb3343174a9bf6a79d2ea9fe2c2546c9c42fa58f7df5acd808fc4623b303a42b73280a4b6b2ff69ee7951150c6c3125de1594d942fa735692dd67d7ecdad38572cb31494af770e51059fa3588f38a10f89ea015ecb94f9023e64459d10f789ea48d8e465c54e453b19c0ed4fcb703f53152482f14c731061388a6203571ecb653e1f88646439c5627b1412aa1d05a506454b59eed004975dd40d61fe421fe9e08ceb4695429544355cb1854811e9f8f19232b41494e6796999ba2aec1c5cbced4d5d9f3fb17232b353c889b9ea1abb2b9c5e1e6ea1213474d4e505f6e747f8f95a2b6b8b9e0f00b2733374758606170778f95a0a1c3c6d3f2f6fdfe000000001525374c01",
        "007c5abee7df28b770eb330f2a6e92ecdb904d91008f477b3826c326cd101911cd67e9f24d5a341a0e500fae500b4840e112a33b4d9252c61b9702729284a6cc4917e3702988aae4ca074f05041b20ed3b52eb625836219569450d14f5d1ccb8212e423406952c565b27b16bbd5ef4879827976aedaedcdd6db8aa270c15246cf88c71fd892494b5799b98c21d355787ec630ca9908ebb0a633061982113b9566ebec9f59f3d855d25e1945849c37554012239429aa43fe69e8f96b4cabea7dc2d2a93bd1d7cd8e0c66071a7047edfabeee5413dc15bb73bdbc4e16b10309976622dabaa1eabd64a78cd1419d8fdb66c4180ef3c3e90d2606bbea1a2248d4ff94b237365a25e392f29440c281b4ba03531dd297c032cc964fd9c9674a5a15ba9b780e1b9cd75f82abe2ef809d0023caa45a9a92e5e8d982b1487a0571caba817b301bd19eae5e49c37993ed5837112c011993a90804c771a7f3df10fcee50cc3209244cc6ea5c71f923565a8584dc2a2951955d2827779e3c67ab4cc543681bffdb8e31da0c62f59951c18dad25f9be3e7a7cb67c3887a7bacaace005d3aef85dd89ed406fd8b272889fa332c129b0bbb59e9939a9c46a16f86912a91d6d75c4ba59e9d99fabbc978cd38f778883cde4f50a2a61164f866ec25df37043c74f098d14d56c44ca0453a6e73b77276c98657c39b68172bd5e963155d4a04d62478a1f2cc3acbd0900553fb04263216fd08fe70c57c130b6013db8ba96912320131d68b2591f572ac187943c84165478d1a50fc276a0d87236e791c6c3863154bd86e86067ac2bc34aef8cb7a80a3c59f506fc9f49ddb52083f1834fdfe24caae2223e2b1aff1868284887a861034170fd7c725748daaebaef13060e6003d90512df283f055067f5de019f16c0e19145b0dfbb079c7008d17eeea315ac6ebb42c75d2869101e3c184e44ee62e090752b12a09407ef58901559edeb8a323030ca78a24f62891b90d172c1b128728f795167e216a4ba5376a211d62f144759b908e810e9a7447806b54e7437d5caf8ccb61716c82d6c40346cf7469338491af1d316ac9f48ea5dab0422d483853e2433c7f8e1aab42e5474568d61815998205ef181f0f08a5b1a8d0cd97f207be07885b6145cf1769d994d65b199cea1f6b42e844fa32ec598c3edaf65f737f4f36c7398b5a3dbb0830938ab2e92afa13ece3224ff7f2234a332853eccaadf5f4b449738ab7b7c0cedff12b1cd6455638a0786302838e271c4e7cf0bf419ba2066455b4e671a77490f9957f1df1839dddd8f14042d39c9bed0045a4a6c5512634765dee3f32c34c1dcc2c1b2c689b761df6de51de398a3a79fbc4550ba69059a6f908c75a8da485a6949a660f5dcce7e97e2e1dd17276a8ea1e4f4fae61719ea3797358b1b2008aca77940732b3a525a22faf0ddc784db8c70dd5a6f38214e34f726cd2c748a0bd746b0195ecf889cbb3503cb31778206afca91c73e2c8eca1fe79d4e7d409b6ce1c7e7cc060ceea044eae7ecf8aaf0166d311aa0dc740cd70725606afd54536aa349c227ea11c827acfc7d9c1b4f7ce11f78ece73d848f455a0f3f3e0b0598b2d45e02581a525044f54ae089592f0d78e90be99d24933b7a1fe723b64a6df75ce46c1258b2d48bc058ec7f95be40e1dfb7d3a977fd4a58865c8d60fcd9c66a760c9e3ed20e66bc3a08472331a694c7d64e55f6af91c72f170e23f6e90c1589eee108150ad84121bc19bc4a903c21c8eea0f95bad0b5280a9bfe4282532bef23cebd65f22ca1272c525a141b90c37937c51774a5b62e1aed5eeac730f8a6f180ec925563cc1646fac2e3d43067346aadc"
      ],
      "sequence": 4294967294
    }
  ],
  "vout": [
    {
      "value": 1.0,
      "n": 0,
      "scriptPubKey": {
        "asm": "OP_RETURN 8325811e4bf3c55b2c9055fdd616b8ccdf81f5fb6f98c8c2b9f9b4d09c87a2bd e5ca83707b5a5a96f38e8171b1f82b10e1555a0a590e65a28475f9972b4c48f1c5eaa3505b7a7ab6d3aea15191d80b30c1757a2a792e4582a455d9b70b6c68d1a58ac3303b1a1ad6b3cec131f1b86b50a1151a4a194e25e2c435b9d76b0c08b185aae3101b3a3af693eee111d1984b7081353a6a396e05c2e41599f74b2c2891654a03f0fbdada16730e01f13178ab9061d5da8ad98ee52204f57917abccc871456a23d0dbfafa36532e21d111588bb041f5faaaf9aec50224d559378bece851250a43b0bb9a9a56334e41b17138ebd021959aca99cea56244b53957eb8c8831052a63909bbaba76136e61915118cbf001b5baeab9ee854264951977cbaca811e5ca83707b5a5a96f38e8171b1f82b10e1555a0a590e65a28475f9972b4c48f1c5eaa3505b7a7ab6d3aea15191d80b30c1757a2a792e4582a455d9b70b6c68d1a58ac3303b1a1ad6b3cec131f1b86b50a1151a4a194e25e2c435b9d76b0c08b185aae3101b3a3af693eee111d1984b7081353a6a396e05c2e41599f74b2c2891654a03f0fbdada16730e01f13178ab9061d5da8ad98ee52204f57917abccc871456a23d0dbfafa36532e21d111588bb041f5faaaf9aec50224d559378bece851250a43b0bb9a9a56334e41b17138ebd021959aca99cea56244b53957eb8c8831052a63909bbaba76136e61915118cbf001b5baeab9ee854264951977cbaca811e5ca83707b5a5a96f38e8171b1f82b10e1555a0a590e65a28475f9972b4c48f1c5eaa3505b7a7ab6d3aea15191d80b30c1757a2a792e4582a455d9b70b6c68d1a58ac3303b1a1ad6b3cec131f1b86b50a1151a4a194e25e2c435b9d76b0c08b185aae3101b3a3af693eee111d1984b7081353a6a396e05c2e41599f74b2c2891654a03f0fbdada16730e01f13178ab9061d5da8ad98ee52204f57917abccc871456a23d0dbfafa36532e21d111588bb041f5faaaf9aec50224d559378bece851250a43b0bb9a9a56334e41b17138ebd021959aca99cea56244b53957eb8c8831052a63909bbaba76136e61915118cbf001b5baeab9ee854264951977cbaca811e5ca83707b5a5a96f38e8171b1f82b10e1555a0a590e65a28475f9972b4c48f1c5eaa3505b7a7ab6d3aea15191d80b30c1757a2a792e4582a455d9b70b6c68d1a58ac3303b1a1ad6b3cec131f1b86b50a1151a4a194e25e2c435b9d76b0c08b185aae3101b3a3af693eee111d1984b7081353a6a396e05c2e41599f74b2c2891654a03f0fbdada16730e01f13178ab9061d5da8ad98ee52204f57917abccc871456a23d0dbfafa36532e21d111588bb041f5faaaf9aec50224d559378bece851250a43b0bb9a9a56334e41b17138ebd021959aca99cea56244b53957eb8c8831052a63909bbaba76136e61915118cbf001b5baeab9ee854264951977cbaca811e5ca83707b5a5a96f38e8171b1f82b10e1555a0a590e65a28475f9972b4c48f1c5eaa3505b7a7ab6d3aea15191d80b30c1757a2a792e4582a455d9b70b6c68d1a58ac3303b1a1ad6b3cec131f1b86b50a1151a4a194e25e2c435b9d76b0c08b185aae3101b3a3af693eee111d1984b7081353a6a396e05c2e41599f74b2c2891654a03f0fbdada16730e01f13178ab9023fdf4034c62db14e302296fb63ecdbfbdb9dc1bce3ae09ab7f440a6c0a2f8f4",
        "hex": "6a208325811e4bf3c55b2c9055fdd616b8ccdf81f5fb6f98c8c2b9f9b4d09c87a2bd4db004e5ca83707b5a5a96f38e8171b1f82b10e1555a0a590e65a28475f9972b4c48f1c5eaa3505b7a7ab6d3aea15191d80b30c1757a2a792e4582a455d9b70b6c68d1a58ac3303b1a1ad6b3cec131f1b86b50a1151a4a194e25e2c435b9d76b0c08b185aae3101b3a3af693eee111d1984b7081353a6a396e05c2e41599f74b2c2891654a03f0fbdada16730e01f13178ab9061d5da8ad98ee52204f57917abccc871456a23d0dbfafa36532e21d111588bb041f5faaaf9aec50224d559378bece851250a43b0bb9a9a56334e41b17138ebd021959aca99cea56244b53957eb8c8831052a63909bbaba76136e61915118cbf001b5baeab9ee854264951977cbaca811e5ca83707b5a5a96f38e8171b1f82b10e1555a0a590e65a28475f9972b4c48f1c5eaa3505b7a7ab6d3aea15191d80b30c1757a2a792e4582a455d9b70b6c68d1a58ac3303b1a1ad6b3cec131f1b86b50a1151a4a194e25e2c435b9d76b0c08b185aae3101b3a3af693eee111d1984b7081353a6a396e05c2e41599f74b2c2891654a03f0fbdada16730e01f13178ab9061d5da8ad98ee52204f57917abccc871456a23d0dbfafa36532e21d111588bb041f5faaaf9aec50224d559378bece851250a43b0bb9a9a56334e41b17138ebd021959aca99cea56244b53957eb8c8831052a63909bbaba76136e61915118cbf001b5baeab9ee854264951977cbaca811e5ca83707b5a5a96f38e8171b1f82b10e1555a0a590e65a28475f9972b4c48f1c5eaa3505b7a7ab6d3aea15191d80b30c1757a2a792e4582a455d9b70b6c68d1a58ac3303b1a1ad6b3cec131f1b86b50a1151a4a194e25e2c435b9d76b0c08b185aae3101b3a3af693eee111d1984b7081353a6a396e05c2e41599f74b2c2891654a03f0fbdada16730e01f13178ab9061d5da8ad98ee52204f57917abccc871456a23d0dbfafa36532e21d111588bb041f5faaaf9aec50224d559378bece851250a43b0bb9a9a56334e41b17138ebd021959aca99cea56244b53957eb8c8831052a63909bbaba76136e61915118cbf001b5baeab9ee854264951977cbaca811e5ca83707b5a5a96f38e8171b1f82b10e1555a0a590e65a28475f9972b4c48f1c5eaa3505b7a7ab6d3aea15191d80b30c1757a2a792e4582a455d9b70b6c68d1a58ac3303b1a1ad6b3cec131f1b86b50a1151a4a194e25e2c435b9d76b0c08b185aae3101b3a3af693eee111d1984b7081353a6a396e05c2e41599f74b2c2891654a03f0fbdada16730e01f13178ab9061d5da8ad98ee52204f57917abccc871456a23d0dbfafa36532e21d111588bb041f5faaaf9aec50224d559378bece851250a43b0bb9a9a56334e41b17138ebd021959aca99cea56244b53957eb8c8831052a63909bbaba76136e61915118cbf001b5baeab9ee854264951977cbaca811e5ca83707b5a5a96f38e8171b1f82b10e1555a0a590e65a28475f9972b4c48f1c5eaa3505b7a7ab6d3aea15191d80b30c1757a2a792e4582a455d9b70b6c68d1a58ac3303b1a1ad6b3cec131f1b86b50a1151a4a194e25e2c435b9d76b0c08b185aae3101b3a3af693eee111d1984b7081353a6a396e05c2e41599f74b2c2891654a03f0fbdada16730e01f13178ab9023fdf4034c62db14e302296fb63ecdbfbdb9dc1bce3ae09ab7f440a6c0a2f8f4",
        "type": "nulldata"
      }
    },
    {
      "value": 499970.5099,
      "n": 1,
      "scriptPubKey": {
        "asm": "1 6ba2d1c8e542da3fc08ce9e1df552fce16405ea52ed8ad85f90dd6b6acd15fb0",
        "hex": "51206ba2d1c8e542da3fc08ce9e1df552fce16405ea52ed8ad85f90dd6b6acd15fb0",
        "reqSigs": 1,
        "type": "witness_v1_scripthash",
        "addresses": [
          "3QJmnh"
        ]
      }
    }
  ],
  "blockhash": "f7496688ea8085f6c88d1199f2534797ba9d5c262af7501e5ddf271dd00b2202",
  "confirmations": 1,
  "time": 1764181480,
  "blocktime": 1764181480
}