{
  "hex": "01000000000101cc9239e6ffd9eb8ca87d226db862048757fa9176ae75a61c2ef54a569d40807c0100000000feffffff0260cda5ea782d0000225120539f591f580a04f0e902b5f90ed58099ea32d8e12d1318242d8d972208d1230400e1f50500000000fdd5046a20e2fdada7656e849ec766263f8a90e6254359da4dd2e735073c76d65f9b850be74db004ab2797fc6c08cd364bdd19f12a0757ce226790534b97c42d7ef88cb805c547318b07b7dc4c28ed166bfd39d10a2777ee0247b0736bb7e40d5ed8ac9825e56711eb67d7bc2c488d760b9d59b16a47178e6227d0130bd7846d3eb8ccf845850771cb47f79c0c68ad562bbd79914a6737ae4207f0332bf7a44d1e98ecd865a527512ba7177cec884db6cb5d9971aa87d74ea2e710d3cb1744adfe780c388545c7b10b87375ccca86d96eb7db9518aa7f76e82c730f3eb37648dde582c18a565e7916be7573cacc80df68b1dd931eac7970ee2a750938b5704edbe384c78c50587f14bc7771c8ce82dd6ab3df911cae7b72ec28770b3ab7724cd9e186c58e525a7d1ab2797fc6c08cd364bdd19f12a0757ce226790534b97c42d7ef88cb805c547318b07b7dc4c28ed166bfd39d10a2777ee0247b0736bb7e40d5ed8ac9825e56711eb67d7bc2c488d760b9d59b16a47178e6227d0130bd7846d3eb8ccf845850771cb47f79c0c68ad562bbd79914a6737ae4207f0332bf7a44d1e98ecd865a527512ba7177cec884db6cb5d9971aa87d74ea2e710d3cb1744adfe780c388545c7b10b87375ccca86d96eb7db9518aa7f76e82c730f3eb37648dde582c18a565e7916be7573cacc80df68b1dd931eac7970ee2a750938b5704edbe384c78c50587f14bc7771c8ce82dd6ab3df911cae7b72ec28770b3ab7724cd9e186c58e525a7d1ab2797fc6c08cd364bdd19f12a0757ce226790534b97c42d7ef88cb805c547318b07b7dc4c28ed166bfd39d10a2777ee0247b0736bb7e40d5ed8ac9825e56711eb67d7bc2c488d760b9d59b16a47178e6227d0130bd7846d3eb8ccf845850771cb47f79c0c68ad562bbd79914a6737ae4207f0332bf7a44d1e98ecd865a527512ba7177cec884db6cb5d9971aa87d74ea2e710d3cb1744adfe780c388545c7b10b87375ccca86d96eb7db9518aa7f76e82c730f3eb37648dde582c18a565e7916be7573cacc80df68b1dd931eac7970ee2a750938b5704edbe384c78c50587f14bc7771c8ce82dd6ab3df911cae7b72ec28770b3ab7724cd9e186c58e525a7d1ab2797fc6c08cd364bdd19f12a0757ce226790534b97c42d7ef88cb805c547318b07b7dc4c28ed166bfd39d10a2777ee0247b0736bb7e40d5ed8ac9825e56711eb67d7bc2c488d760b9d59b16a47178e6227d0130bd7846d3eb8ccf845850771cb47f79c0c68ad562bbd79914a6737ae4207f0332bf7a44d1e98ecd865a527512ba7177cec884db6cb5d9971aa87d74ea2e710d3cb1744adfe780c388545c7b10b87375ccca86d96eb7db9518aa7f76e82c730f3eb37648dde582c18a565e7916be7573cacc80df68b1dd931eac7970ee2a750938b5704edbe384c78c50587f14bc7771c8ce82dd6ab3df911cae7b72ec28770b3ab7724cd9e186c58e525a7d1ab2797fc6c08cd364bdd19f12a0757ce226790534b97c42d7ef88cb805c547318b07b7dc4c28ed166bfd39d10a2777ee0247b0736bb7e40d5ed8ac9825e56711eb67d7bc2c488d760b9d59b16a47178e6227d0130bd7846d3eb8ccf845850771cb47f79c0c68ad562bbd79914a6737ae4207f0332bf7a44d1e98ecd865a527512ba7177cec884db6cb5d9971aa87d74ec54cea76b65e3b893c9ed39401b0e0e15acf38d6bfd07af08326ed0005132d1a02fd7509d42e89db05d96155e9ebc6ebe00dd2cfe2ae96529c33adf41a936451fa6d32f6edeffa7be2ffb511fed2133d296e00f6780d29d797573f40f06996d456e315518dd5bdda2296ae581fe1c554e6d71c0d7e96900979653664776467c6232200a320c9268e198498ce851ef8f27ba50bc0cf697b165bb451e003f45deafe0aab9d4a093dbb82fca9d01cc326c768569ee6a0b6f8ca3aedd936ad3e36ad7ad075005b8859bca8ae3ea14b5e86f69aa8ea6b02785d321bd3277765d0bfe8c7fc9e67bb6b2fd0495e5100b88c0f470e478d7a294687f7145b47341fef7a3a3939dcd4d84cbb97fdea80632db1072c4b6dab8303fd66dfb6d4a596daabe51d11519fb4be237414513b1e1c91605b143a519b9f481242f7f9930bdbf3e67bbd7eff292f24adea62f8e5d9f056d99a0fc659a67dbd344c1632dc36d17036b990507cf2f4c47a93f45fee6590d3977772235c45716e383b06271317bb633195a34159d9bb844ae94d81ce6e31440185323fb912522d209b0735f312fdd9b45a274a2fcf9045aa86de71046b7b3d8a5d827c651e9dd0d79fa23b671fc6ff3c404f8dd8db5c59421bd3a20f01e63d63b598fd1c174973593dc36aca304765acb94fcd22c902f5ea7b7ca91e26a5cd9f780fc708fd901fe3ebd56d997ae3dead13fdb18914e6d7fc9806daa88527e7dfa139e041409b90f47eebcafa482cda88af1a8111d9c86d631c27b6615bd52af06d93b0ec93fb6ecbde23d802635f8faaa252c831b347280d9afc7fa0dbb0ca833b29321b34f76e9237bce87c8dad2e0c8508cade444f7b68ed98124da8e873d7f9db5719d795a46b218f68409fd05f58c813d7dd9fa2d84afe6552994151da35efb7202f0592bc3382549cd62b42d35c1fe6d359a3f0cfa6d4bbdd08e2c87d20dddb069ab3dad2859542bc236c87b0935fe2cbb997aab1243f1cec7997e19a7c39a7f0513115e572bf69ed0b6525d417dc05729d502cf9bc39d0edc51027413ac7fde252f6618ec26db57cbf84146e91603ac06c2f4e4eae39c1a09d4e71654e3f34dbd68eb154d3689c01d13e6f3ed87782c8d6e6a702d45a61de54a931dcaf5966fc405e446d44933accdbb6ec5683c2f32234fdcc6c3085de921b91bdb9e5051e89d7dceba7a82ba4f85faa267d0d2abef1c535e22512e7b9f972c1535cea81ce15c4f755c3075599f16216da7c27233470414803e682896af20b12d213b22ef9b617e4487a33cf631c0a5cb88d2f474705f9997417354f780452787f1d87ff8f863d6840239b1b3765e1bd1259647bf9459e0b103b7cb14289d1e3ff73034478d0c462bc025a167704261e2aea3d4022b0d6a755ffbcca3ccc4f0fd66ce42964d78150de3f2c27ed269c5b2dfa465d58696eba6ccf304d3d4139cb9158ef830b84557425213833cc6a0721630289a752a55d55581dd881140bcd2607937e12e4f6129917405f390d1551e60ffebe1ccd79c3cd2b2e6ac91a02304629bb7ecb580019b2a79da6d0af00d71e5ea4d779ff2ddfa4d4e4ca1548ad02745f9a086f81fd224aefb9efba68a41e3d07dde7f843d317cc54d9fe52a80866a3df0cbd868ed07e73454ae0fa5d4b9c5279ecd040ed394f05bfd674886a650abb863bf3ee63d2d93c300f33045a82de78fd939c6d880a535e92545b6aa6d75b2c332ba1b16dfc0cb076f75dcf49c529a375372c83c16834200efb2bb985ff0c2154333fdb867f72f6c859b78ed551692b688b570c0afab580049d734042e23a9334b09647234849002c32143f8ff00905b3468ab610e0ae25bff04ee1819b44e083a107d4cccc09c4b1f453f0def1b2935ee4aecbd3bb42052d5d970109582df21d311c7e9032a7fa93054db742a54dae96add2e6477ae4704771b25ec9611b52021f3f4731dcd981b5b8e37f7d7a3b8803b45389e82a5d9e87a62ac4090539b52cddaf2b0de4c840789ab7ef179095696a8fcf6de2f3e1f19d1d4f3d2784e1b329f24110f5fbddd671daec779ade2c5a424486afcef53adb980475f26822468d354499e3652eb4bc0003f798feb95a31387e7fcc2589082dea8e54166e8a330ee6ec7ede27d30bea86dddd1d89261fd970c61f224a9d388f9bddcbfe56185d142bbf91c16183fc74f58d2f00a249daf94530edb0e426ae0a46ae884699d98e801df6a1cd41b713cf1333c0fd65dcce9187f15cafcca18833b6fd72a17894b08cdc0e11cfeba77a0d6111702360b3672cb2cd0f767825cb4d31f9b97e6c92a2f96113db0660d3f584c9531cc6a9d2d47380c8ad2d636596bee0523c7657d70ae877fa0879ceb60543036b0b70eeff3e500e4131f521e15aee2fa5e42dba765a46c3f2b88557d961867076769df7d11c3972b51615f60ff5c074f4a8afe6ec04693ea7eeead7a2b9b1744cc9d338d63b2753cf71e08aad81a687500972c6209da6547485627dec7804116563bba2530c0576f8d10a43498bf4d918a402fe9c333aa35621b040640b263e39cf092098abbcb778027169c9074a1c95b55cf30932bf963958d69548513ecf9c9dcf20440d74eb0c8befb4503faa3705c347b320c9f2e7c100be48d74975cd5ef62a147720c3e8c92aebf699c4615e3d1e45bc032c036ff2ffde760084259f1c7ed27e73a4cd9b53749c6ed35f28012d135de272537e00ea060bad818813686438a29ae06ec69a38824d31a3a190fa8063c35b59b5bd2477921a6db0bbf0c8b2d9aeffa27f07308b346f3f921868dd081fe0400328126fa20d283501916e8755b84c772755509eaabbea091811825d830de7d59b857c55784f6f405dd5a3b83fccf6e8b5420736df60c4bf61ce134d64569b671b7985227b04df3bdcebb3eecdaad8bb50f814e568ac6ca03395cccfbf6b3112a1df980a6c0ef53081401d4aa31435fbf63b861b2f585a30918d0fa30aaf17bc6af96723a5f155f4d00a58f3801c04a1230fe3a53217b716203a8ef084dd630b2fc3ad9481a6adf7ff20c8e29871832c0b1dfbca5bb10f8bc78911d28662c612380463ba104654454cff93590c77610a74b1d31ac7172bc7f8a01e2e8f22ecb6b6b5ae9a4aceb83bd0c8693c0bee4e7fd24214d9de553830054950362e71ff0576ff34e976f1c4808a92e9edb7706217c113e43f556475da11dfdb06ec95017e650feb4ecaade354bbf25fd450a63337f794cfd6809478495306216ec2fc9cd3fadc51143e58374ff2922efd05a3aa4868932ed19a3aa00a1c5603c7111d28cdf10e38404141f863e89f5f29eddf8a0954f3cae9cb650f813c659b57050c2a3a5b6467929699a1a3a6a7b3c9cddf02363d48888a8b9da0b2e3eaef1643475e6a90c2cdd8daebfc2a2e48777f90a9b2b9bed4dceaedff00000000000000000000000000000000000000000000121f2b3a01fd2105008415d50d0dd70a4509b12bb9c87c82fb99d625e6e672f3e4a0b4f5a258ad0790746f60bad4292649e0cfb36a6aa5d0762763d5cbb2476be6c1f9a009dfc7d3261867de62f6e21fc343c13af79f469f90ef6a1df1fbfa5b7c0d1ab96b4a17c8204b082bb8bd6e51f5370d194dd9ce1e7b85266891e0283255ad365d2e619d4512bb2fcabd71ad3073016692624c329c95e6535993ab8224163b52949472e3efcee94b291b9f4725cfca03c82541754c72adc1f90613f4f21c14e00acbfd40f53de7065504433ace42ee50806187d795f6b95808dae6a57b9b0fb54fec844f5e14d12078590f2a41a858c6716fa6bd89ffe05ec1e4522cc1ef223529b06f8c95898b94fe83b299a7d106778c013d728f84924d1515e7b3115274f963c47016e9f87d01165af71f415f7d5eceeb15571887be86aeeb94da0a4ade8fc8c019fe4f75c1a1419e2abc5d3885ed398fcde86c925f0d13d3eca3c051bfa6ac2b0d24b8e808c0e9958745021c3caa99cd54b8e7f01e444cf8e34f864ab553735a1acaf8fedd02d7c6e843b6fd2fa2d97e378c374dcfdf2db1b1dce7462d655352080b525732774ec25749692b25f2dac4df74f2b7b5ea6f7df4619f38ba8a8970591173de454596173e95d9bc6ca187e6638fd7eea681956589581062112172de0eb084930410fba252d8a3bbe90712e6829d09ea217e0b66760c882a1f0ff34271fa6eed6983134b32b4505e85b1db2089539636cc357c13dad6637aa5e9d834c88e3ec55391b3f1aca1c67cd66338096d4bc38915071b2f29586bf3baddfcba81e2237574f68cca1cf58ecbbfaff527f7b4c3ad36b6d8b1e5de293ee509e1c6aebfaa894a4c55aa8d5874208d0b7a56ed0c41ea5f38f523ab2b147873e15b1a7940ffccd17eb577f73e8e71354385a4235a31bb7d6474525b23eb53186edeac7ab298bb4756d9f2c4a261f09bcf3023f459d16d432b7e356a918c624d65e9aea7661a9f1ed4df4df96c10cafc7f26a7f0257d2b1d3e1d76d5b66cdfe8b376d319ea623206f10c3e9e763236b7573ce142c9ef7dfb91a4e31060d6b504aeb4b09f9a6433f3cc9c98222bc9bd63e74a091432022ec9dc263f6b01d137c1cacafc036aa6bfb30cee3c7bd3d110cb219f94d5357b6464d56b5bbc821a73486fd9a878c60e8aaf8ab4fd28268373ae9a3a3291a78b01d0ba5f793dde58ab341f0c7fa01ff975252d31ea0b2c264a84bcff593589210eba38fd67639b5ce87ee940932dd2182b93dba91c5a54e118174e5925a504e9274758555f5cf4e38de5c3a526bebaeb64b59d5ae7843f657798473bf0d418b66d46bd113d5ed967635908d7ff70e178a0f7e77ef9f16aff1c5302b396c89fca827c21efd13d3d995e0aa5446162f92832e98b099d0fe816551b4361d9e332616e4abfbdebc88f4e743622e77d7b68a59660753cd0c80e485c683df3233b90b4a00b6d242c4e3e48aea492feedd3ba5c55054e5138f325025df972396155f15b0ec490bab0e44ef590c144c5405aaf5556a77d3c185925f2887f8c487555fdbb40163e637f553291e37183e3b72fc6bf641abb68c7999888156c79f82eee28d323c5b1ad4900b5e6dd36f93c71d4aad845e82ab6a473449fc7424a59aed4eb6bda609e10564c64d852344cbbbcf94017324ea1b17bdd08b8e74de698ab2f3e2f0c2a4a9b7dee5a3b38d25e0b79dfe4844f747676a7f6e1311da4c27ad1d305d1cae1c18d9a0e47b87a6b80e24c3675a55d7e11d98db78375e0d67cc4991e410ad3683490e4ef2954ebdf19ea43a2d67119d0256d46ef31cfaeb701d1a67766ffa92df883bcab08ba096399217683eabdd87c000000",
  "txid": "3ce58ad691573c0039525f7a51a8ae72740e28f13197d71b1afa8d9a98792229",
  "hash": "6c5a47efe871f26bd573025288e6cba60da45a863d45d3f87fdf9ac5898a97ab",
  "size": 5085,
  "vsize": 2278,
  "version": 1,
  "locktime": 124,
  "vin": [
    {
      "txid": "7c80409d564af52e1ca675ae7691fa57870462b86d227da88cebd9ffe63992cc",
      "vout": 1,
      "scriptSig": {
        "asm": "",
        "hex": ""
      },
      "txinwitness": [
        "d42e89db05d96155e9ebc6ebe00dd2cfe2ae96529c33adf41a936451fa6d32f6edeffa7be2ffb511fed2133d296e00f6780d29d797573f40f06996d456e315518dd5bdda2296ae581fe1c554e6d71c0d7e96900979653664776467c6232200a320c9268e198498ce851ef8f27ba50bc0cf697b165bb451e003f45deafe0aab9d4a093dbb82fca9d01cc326c768569ee6a0b6f8ca3aedd936ad3e36ad7ad075005b8859bca8ae3ea14b5e86f69aa8ea6b02785d321bd3277765d0bfe8c7fc9e67bb6b2fd0495e5100b88c0f470e478d7a294687f7145b47341fef7a3a3939dcd4d84cbb97fdea80632db1072c4b6dab8303fd66dfb6d4a596daabe51d11519fb4be237414513b1e1c91605b143a519b9f481242f7f9930bdbf3e67bbd7eff292f24adea62f8e5d9f056d99a0fc659a67dbd344c1632dc36d17036b990507cf2f4c47a93f45fee6590d3977772235c45716e383b06271317bb633195a34159d9bb844ae94d81ce6e31440185323fb912522d209b0735f312fdd9b45a274a2fcf9045aa86de71046b7b3d8a5d827c651e9dd0d79fa23b671fc6ff3c404f8dd8db5c59421bd3a20f01e63d63b598fd1c174973593dc36aca304765acb94fcd22c902f5ea7b7ca91e26a5cd9f780fc708fd901fe3ebd56d997ae3dead13fdb18914e6d7fc9806daa88527e7dfa139e041409b90f47eebcafa482cda88af1a8111d9c86d631c27b6615bd52af06d93b0ec93fb6ecbde23d802635f8faaa252c831b347280d9afc7fa0dbb0ca833b29321b34f76e9237bce87c8dad2e0c8508cade444f7b68ed98124da8e873d7f9db5719d795a46b218f68409fd05f58c813d7dd9fa2d84afe6552994151da35efb7202f0592bc3382549cd62b42d35c1fe6d359a3f0cfa6d4bbdd08e2c87d20dddb069ab3dad2859542bc236c87b0935fe2cbb997aab1243f1cec7997e19a7c39a7f0513115e572bf69ed0b6525d417dc05729d502cf9bc39d0edc51027413ac7fde252f6618ec26db57cbf84146e91603ac06c2f4e4eae39c1a09d4e71654e3f34dbd68eb154d3689c01d13e6f3ed87782c8d6e6a702d45a61de54a931dcaf5966fc405e446d44933accdbb6ec5683c2f32234fdcc6c3085de921b91bdb9e5051e89d7dceba7a82ba4f85faa267d0d2abef1c535e22512e7b9f972c1535cea81ce15c4f755c3075599f16216da7c27233470414803e682896af20b12d213b22ef9b617e4487a33cf631c0a5cb88d2f474705f9997417354f780452787f1d87ff8f863d6840239b1b3765e1bd1259647bf9459e0b103b7cb14289d1e3ff73034478d0c462bc025a167704261e2aea3d4022b0d6a755ffbcca3ccc4f0fd66ce42964d78150de3f2c27ed269c5b2dfa465d58696eba6ccf304d3d4139cb9158ef830b84557425213833cc6a0721630289a752a55d55581dd881140bcd2607937e12e4f6129917405f390d1551e60ffebe1ccd79c3cd2b2e6ac91a02304629bb7ecb580019b2a79da6d0af00d71e5ea4d779ff2ddfa4d4e4ca1548ad02745f9a086f81fd224aefb9efba68a41e3d07dde7f843d317cc54d9fe52a80866a3df0cbd868ed07e73454ae0fa5d4b9c5279ecd040ed394f05bfd674886a650abb863bf3ee63d2d93c300f33045a82de78fd939c6d880a535e92545b6aa6d75b2c332ba1b16dfc0cb076f75dcf49c529a375372c83c16834200efb2bb985ff0c2154333fdb867f72f6c859b78ed551692b688b570c0afab580049d734042e23a9334b09647234849002c32143f8ff00905b3468ab610e0ae25bff04ee1819b44e083a107d4cccc09c4b1f453f0def1b2935ee4aecbd3bb42052d5d970109582df21d311c7e9032a7fa93054db742a54dae96add2e6477ae4704771b25ec9611b52021f3f4731dcd981b5b8e37f7d7a3b8803b45389e82a5d9e87a62ac4090539b52cddaf2b0de4c840789ab7ef179095696a8fcf6de2f3e1f19d1d4f3d2784e1b329f24110f5fbddd671daec779ade2c5a424486afcef53adb980475f26822468d354499e3652eb4bc0003f798feb95a31387e7fcc2589082dea8e54166e8a330ee6ec7ede27d30bea86dddd1d89261fd970c61f224a9d388f9bddcbfe56185d142bbf91c16183fc74f58d2f00a249daf94530edb0e426ae0a46ae884699d98e801df6a1cd41b713cf1333c0fd65dcce9187f15cafcca18833b6fd72a17894b08cdc0e11cfeba77a0d6111702360b3672cb2cd0f767825cb4d31f9b97e6c92a2f96113db0660d3f584c9531cc6a9d2d47380c8ad2d636596bee0523c7657d70ae877fa0879ceb60543036b0b70eeff3e500e4131f521e15aee2fa5e42dba765a46c3f2b88557d961867076769df7d11c3972b51615f60ff5c074f4a8afe6ec04693ea7eeead7a2b9b1744cc9d338d63b2753cf71e08aad81a687500972c6209da6547485627dec7804116563bba2530c0576f8d10a43498bf4d918a402fe9c333aa35621b040640b263e39cf092098abbcb778027169c9074a1c95b55cf30932bf963958d69548513ecf9c9dcf20440d74eb0c8befb4503faa3705c347b320c9f2e7c100be48d74975cd5ef62a147720c3e8c92aebf699c4615e3d1e45bc032c036ff2ffde760084259f1c7ed27e73a4cd9b53749c6ed35f28012d135de272537e00ea060bad818813686438a29ae06ec69a38824d31a3a190fa8063c35b59b5bd2477921a6db0bbf0c8b2d9aeffa27f07308b346f3f921868dd081fe0400328126fa20d283501916e8755b84c772755509eaabbea091811825d830de7d59b857c55784f6f405dd5a3b83fccf6e8b5420736df60c4bf61ce134d64569b671b7985227b04df3bdcebb3eecdaad8bb50f814e568ac6ca03395cccfbf6b3112a1df980a6c0ef53081401d4aa31435fbf63b861b2f585a30918d0fa30aaf17bc6af96723a5f155f4d00a58f3801c04a1230fe3a53217b716203a8ef084dd630b2fc3ad9481a6adf7ff20c8e29871832c0b1dfbca5bb10f8bc78911d28662c612380463ba104654454cff93590c77610a74b1d31ac7172bc7f8a01e2e8f22ecb6b6b5ae9a4aceb83bd0c8693c0bee4e7fd24214d9de553830054950362e71ff0576ff34e976f1c4808a92e9edb7706217c113e43f556475da11dfdb06ec95017e650feb4ecaade354bbf25fd450a63337f794cfd6809478495306216ec2fc9cd3fadc51143e58374ff2922efd05a3aa4868932ed19a3aa00a1c5603c7111d28cdf10e38404141f863e89f5f29eddf8a0954f3cae9cb650f813c659b57050c2a3a5b6467929699a1a3a6a7b3c9cddf02363d48888a8b9da0b2e3eaef1643475e6a90c2cdd8daebfc2a2e48777f90a9b2b9bed4dceaedff00000000000000000000000000000000000000000000121f2b3a01",
        "008415d50d0dd70a4509b12bb9c87c82fb99d625e6e672f3e4a0b4f5a258ad0790746f60bad4292649e0cfb36a6aa5d0762763d5cbb2476be6c1f9a009dfc7d3261867de62f6e21fc343c13af79f469f90ef6a1df1fbfa5b7c0d1ab96b4a17c8204b082bb8bd6e51f5370d194dd9ce1e7b85266891e0283255ad365d2e619d4512bb2fcabd71ad3073016692624c329c95e6535993ab8224163b52949472e3efcee94b291b9f4725cfca03c82541754c72adc1f90613f4f21c14e00acbfd40f53de7065504433ace42ee50806187d795f6b95808dae6a57b9b0fb54fec844f5e14d12078590f2a41a858c6716fa6bd89ffe05ec1e4522cc1ef223529b06f8c95898b94fe83b299a7d106778c013d728f84924d1515e7b3115274f963c47016e9f87d01165af71f415f7d5eceeb15571887be86aeeb94da0a4ade8fc8c019fe4f75c1a1419e2abc5d3885ed398fcde86c925f0d13d3eca3c051bfa6ac2b0d24b8e808c0e9958745021c3caa99cd54b8e7f01e444cf8e34f864ab553735a1acaf8fedd02d7c6e843b6fd2fa2d97e378c374dcfdf2db1b1dce7462d655352080b525732774ec25749692b25f2dac4df74f2b7b5ea6f7df4619f38ba8a8970591173de454596173e95d9bc6ca187e6638fd7eea681956589581062112172de0eb084930410fba252d8a3bbe90712e6829d09ea217e0b66760c882a1f0ff34271fa6eed6983134b32b4505e85b1db2089539636cc357c13dad6637aa5e9d834c88e3ec55391b3f1aca1c67cd66338096d4bc38915071b2f29586bf3baddfcba81e2237574f68cca1cf58ecbbfaff527f7b4c3ad36b6d8b1e5de293ee509e1c6aebfaa894a4c55aa8d5874208d0b7a56ed0c41ea5f38f523ab2b147873e15b1a7940ffccd17eb577f73e8e71354385a4235a31bb7d6474525b23eb53186edeac7ab298bb4756d9f2c4a261f09bcf3023f459d16d432b7e356a918c624d65e9aea7661a9f1ed4df4df96c10cafc7f26a7f0257d2b1d3e1d76d5b66cdfe8b376d319ea623206f10c3e9e763236b7573ce142c9ef7dfb91a4e31060d6b504aeb4b09f9a6433f3cc9c98222bc9bd63e74a091432022ec9dc263f6b01d137c1cacafc036aa6bfb30cee3c7bd3d110cb219f94d5357b6464d56b5bbc821a73486fd9a878c60e8aaf8ab4fd28268373ae9a3a3291a78b01d0ba5f793dde58ab341f0c7fa01ff975252d31ea0b2c264a84bcff593589210eba38fd67639b5ce87ee940932dd2182b93dba91c5a54e118174e5925a504e9274758555f5cf4e38de5c3a526bebaeb64b59d5ae7843f657798473bf0d418b66d46bd113d5ed967635908d7ff70e178a0f7e77ef9f16aff1c5302b396c89fca827c21efd13d3d995e0aa5446162f92832e98b099d0fe816551b4361d9e332616e4abfbdebc88f4e743622e77d7b68a59660753cd0c80e485c683df3233b90b4a00b6d242c4e3e48aea492feedd3ba5c55054e5138f325025df972396155f15b0ec490bab0e44ef590c144c5405aaf5556a77d3c185925f2887f8c487555fdbb40163e637f553291e37183e3b72fc6bf641abb68c7999888156c79f82eee28d323c5b1ad4900b5e6dd36f93c71d4aad845e82ab6a473449fc7424a59aed4eb6bda609e10564c64d852344cbbbcf94017324ea1b17bdd08b8e74de698ab2f3e2f0c2a4a9b7dee5a3b38d25e0b79dfe4844f747676a7f6e1311da4c27ad1d305d1cae1c18d9a0e47b87a6b80e24c3675a55d7e11d98db78375e0d67cc4991e410ad3683490e4ef2954ebdf19ea43a2d67119d0256d46ef31cfaeb701d1a67766ffa92df883bcab08ba096399217683eabdd8"
      ],
      "sequence": 4294967294
    }
  ],
  "vout": [
    {
      "value": 499973.5606,
      "n": 0,
      "scriptPubKey": {
        "asm": "1 539f591f580a04f0e902b5f90ed58099ea32d8e12d1318242d8d972208d12304",
        "hex": "5120539f591f580a04f0e902b5f90ed58099ea32d8e12d1318242d8d972208d12304",
        "reqSigs": 1,
        "type": "witness_v1_scripthash",
        "addresses": [
          "3QJmnh"
        ]
      }
    },
    {
      "value": 1.0,
      "n": 1,
      "scriptPubKey": {
        "asm": "OP_RETURN e2fdada7656e849ec766263f8a90e6254359da4dd2e735073c76d65f9b850be7 ab2797fc6c08cd364bdd19f12a0757ce226790534b97c42d7ef88cb805c547318b07b7dc4c28ed166bfd39d10a2777ee0247b0736bb7e40d5ed8ac9825e56711eb67d7bc2c488d760b9d59b16a47178e6227d0130bd7846d3eb8ccf845850771cb47f79c0c68ad562bbd79914a6737ae4207f0332bf7a44d1e98ecd865a527512ba7177cec884db6cb5d9971aa87d74ea2e710d3cb1744adfe780c388545c7b10b87375ccca86d96eb7db9518aa7f76e82c730f3eb37648dde582c18a565e7916be7573cacc80df68b1dd931eac7970ee2a750938b5704edbe384c78c50587f14bc7771c8ce82dd6ab3df911cae7b72ec28770b3ab7724cd9e186c58e525a7d1ab2797fc6c08cd364bdd19f12a0757ce226790534b97c42d7ef88cb805c547318b07b7dc4c28ed166bfd39d10a2777ee0247b0736bb7e40d5ed8ac9825e56711eb67d7bc2c488d760b9d59b16a47178e6227d0130bd7846d3eb8ccf845850771cb47f79c0c68ad562bbd79914a6737ae4207f0332bf7a44d1e98ecd865a527512ba7177cec884db6cb5d9971aa87d74ea2e710d3cb1744adfe780c388545c7b10b87375ccca86d96eb7db9518aa7f76e82c730f3eb37648dde582c18a565e7916be7573cacc80df68b1dd931eac7970ee2a750938b5704edbe384c78c50587f14bc7771c8ce82dd6ab3df911cae7b72ec28770b3ab7724cd9e186c58e525a7d1ab2797fc6c08cd364bdd19f12a0757ce226790534b97c42d7ef88cb805c547318b07b7dc4c28ed166bfd39d10a2777ee0247b0736bb7e40d5ed8ac9825e56711eb67d7bc2c488d760b9d59b16a47178e6227d0130bd7846d3eb8ccf845850771cb47f79c0c68ad562bbd79914a6737ae4207f0332bf7a44d1e98ecd865a527512ba7177cec884db6cb5d9971aa87d74ea2e710d3cb1744adfe780c388545c7b10b87375ccca86d96eb7db9518aa7f76e82c730f3eb37648dde582c18a565e7916be7573cacc80df68b1dd931eac7970ee2a750938b5704edbe384c78c50587f14bc7771c8ce82dd6ab3df911cae7b72ec28770b3ab7724cd9e186c58e525a7d1ab2797fc6c08cd364bdd19f12a0757ce226790534b97c42d7ef88cb805c547318b07b7dc4c28ed166bfd39d10a2777ee0247b0736bb7e40d5ed8ac9825e56711eb67d7bc2c488d760b9d59b16a47178e6227d0130bd7846d3eb8ccf845850771cb47f79c0c68ad562bbd79914a6737ae4207f0332bf7a44d1e98ecd865a527512ba7177cec884db6cb5d9971aa87d74ea2e710d3cb1744adfe780c388545c7b10b87375ccca86d96eb7db9518aa7f76e82c730f3eb37648dde582c18a565e7916be7573cacc80df68b1dd931eac7970ee2a750938b5704edbe384c78c50587f14bc7771c8ce82dd6ab3df911cae7b72ec28770b3ab7724cd9e186c58e525a7d1ab2797fc6c08cd364bdd19f12a0757ce226790534b97c42d7ef88cb805c547318b07b7dc4c28ed166bfd39d10a2777ee0247b0736bb7e40d5ed8ac9825e56711eb67d7bc2c488d760b9d59b16a47178e6227d0130bd7846d3eb8ccf845850771cb47f79c0c68ad562bbd79914a6737ae4207f0332bf7a44d1e98ecd865a527512ba7177cec884db6cb5d9971aa87d74ec54cea76b65e3b893c9ed39401b0e0e15acf38d6bfd07af08326ed0005132d1a",
        "hex": "6a20e2fdada7656e849ec766263f8a90e6254359da4dd2e735073c76d65f9b850be74db004ab2797fc6c08cd364bdd19f12a0757ce226790534b97c42d7ef88cb805c547318b07b7dc4c28ed166bfd39d10a2777ee0247b0736bb7e40d5ed8ac9825e56711eb67d7bc2c488d760b9d59b16a47178e6227d0130bd7846d3eb8ccf845850771cb47f79c0c68ad562bbd79914a6737ae4207f0332bf7a44d1e98ecd865a527512ba7177cec884db6cb5d9971aa87d74ea2e710d3cb1744adfe780c388545c7b10b87375ccca86d96eb7db9518aa7f76e82c730f3eb37648dde582c18a565e7916be7573cacc80df68b1dd931eac7970ee2a750938b5704edbe384c78c50587f14bc7771c8ce82dd6ab3df911cae7b72ec28770b3ab7724cd9e186c58e525a7d1ab2797fc6c08cd364bdd19f12a0757ce226790534b97c42d7ef88cb805c547318b07b7dc4c28ed166bfd39d10a2777ee0247b0736bb7e40d5ed8ac9825e56711eb67d7bc2c488d760b9d59b16a47178e6227d0130bd7846d3eb8ccf845850771cb47f79c0c68ad562bbd79914a6737ae4207f0332bf7a44d1e98ecd865a527512ba7177cec884db6cb5d9971aa87d74ea2e710d3cb1744adfe780c388545c7b10b87375ccca86d96eb7db9518aa7f76e82c730f3eb37648dde582c18a565e7916be7573cacc80df68b1dd931eac7970ee2a750938b5704edbe384c78c50587f14bc7771c8ce82dd6ab3df911cae7b72ec28770b3ab7724cd9e186c58e525a7d1ab2797fc6c08cd364bdd19f12a0757ce226790534b97c42d7ef88cb805c547318b07b7dc4c28ed166bfd39d10a2777ee0247b0736bb7e40d5ed8ac9825e56711eb67d7bc2c488d760b9d59b16a47178e6227d0130bd7846d3eb8ccf845850771cb47f79c0c68ad562bbd79914a6737ae4207f0332bf7a44d1e98ecd865a527512ba7177cec884db6cb5d9971aa87d74ea2e710d3cb1744adfe780c388545c7b10b87375ccca86d96eb7db9518aa7f76e82c730f3eb37648dde582c18a565e7916be7573cacc80df68b1dd931eac7970ee2a750938b5704edbe384c78c50587f14bc7771c8ce82dd6ab3df911cae7b72ec28770b3ab7724cd9e186c58e525a7d1ab2797fc6c08cd364bdd19f12a0757ce226790534b97c42d7ef88cb805c547318b07b7dc4c28ed166bfd39d10a2777ee0247b0736bb7e40d5ed8ac9825e56711eb67d7bc2c488d760b9d59b16a47178e6227d0130bd7846d3eb8ccf845850771cb47f79c0c68ad562bbd79914a6737ae4207f0332bf7a44d1e98ecd865a527512ba7177cec884db6cb5d9971aa87d74ea2e710d3cb1744adfe780c388545c7b10b87375ccca86d96eb7db9518aa7f76e82c730f3eb37648dde582c18a565e7916be7573cacc80df68b1dd931eac7970ee2a750938b5704edbe384c78c50587f14bc7771c8ce82dd6ab3df911cae7b72ec28770b3ab7724cd9e186c58e525a7d1ab2797fc6c08cd364bdd19f12a0757ce226790534b97c42d7ef88cb805c547318b07b7dc4c28ed166bfd39d10a2777ee0247b0736bb7e40d5ed8ac9825e56711eb67d7bc2c488d760b9d59b16a47178e6227d0130bd7846d3eb8ccf845850771cb47f79c0c68ad562bbd79914a6737ae4207f0332bf7a44d1e98ecd865a527512ba7177cec884db6cb5d9971aa87d74ec54cea76b65e3b893c9ed39401b0e0e15acf38d6bfd07af08326ed0005132d1a",
        "type": "nulldata"
      }
    }
  ],
  "blockhash": "fe93069f37b49cfb15542a42b300d4e9dc573fdbbe6c5d081907ef62d551896a",
  "confirmations": 1,
  "time": 1764180962,
  "blocktime": 1764180962
}