{
  "hex": "01000000000101d5f13ba226b2d18c364e35d502289ac927650a24447a43b00e9996e862d48eec0000000000feffffff0200e1f50500000000fdd5046a2079a2af170e2b422ff71e5cb373a410b46ef2e59da68d16ca8aed39c92b0119ca4db0047df65ca1f9d69eebb01d5d1b15dee59f7999ed6520e4536958c60adf7c53f8b35dd67c81d9f6becb903d7d3b35fec5bf59b9cd4500c4734978e62aff5c73d8933db61ce1b996deabf05d1d5b559ea5df39d9ad2560a4132918864a9f3c13b8f31d963cc199b6fe8bd07d3d7b75be85ff19f98d054084330938a66abf1c3398d3fd76dc2179561e6b309ddd9b955e651ff9196de5a064d3e9d8468a5ffcd37833dd56fc0159763e4b10bdfdbbb57e453fd9394dc58044f3c9f866aa7fdcf35813bd369c6139165e2b70dd9ddbd51e255fb9592da5e02493a99806ca1fbc9338739d16bc4119367e0b50fdbdfbf53e057f99790d85c004b389b826ea3f9cb318537df65ca1f9d69eebb01d5d1b15dee59f7999ed6520e4536958c60adf7c53f8b35dd67c81d9f6becb903d7d3b35fec5bf59b9cd4500c4734978e62aff5c73d8933db61ce1b996deabf05d1d5b559ea5df39d9ad2560a4132918864a9f3c13b8f31d963cc199b6fe8bd07d3d7b75be85ff19f98d054084330938a66abf1c3398d3fd76dc2179561e6b309ddd9b955e651ff9196de5a064d3e9d8468a5ffcd37833dd56fc0159763e4b10bdfdbbb57e453fd9394dc58044f3c9f866aa7fdcf35813bd369c6139165e2b70dd9ddbd51e255fb9592da5e02493a99806ca1fbc9338739d16bc4119367e0b50fdbdfbf53e057f99790d85c004b389b826ea3f9cb318537df65ca1f9d69eebb01d5d1b15dee59f7999ed6520e4536958c60adf7c53f8b35dd67c81d9f6becb903d7d3b35fec5bf59b9cd4500c4734978e62aff5c73d8933db61ce1b996deabf05d1d5b559ea5df39d9ad2560a4132918864a9f3c13b8f31d963cc199b6fe8bd07d3d7b75be85ff19f98d054084330938a66abf1c3398d3fd76dc2179561e6b309ddd9b955e651ff9196de5a064d3e9d8468a5ffcd37833dd56fc0159763e4b10bdfdbbb57e453fd9394dc58044f3c9f866aa7fdcf35813bd369c6139165e2b70dd9ddbd51e255fb9592da5e02493a99806ca1fbc9338739d16bc4119367e0b50fdbdfbf53e057f99790d85c004b389b826ea3f9cb318537df65ca1f9d69eebb01d5d1b15dee59f7999ed6520e4536958c60adf7c53f8b35dd67c81d9f6becb903d7d3b35fec5bf59b9cd4500c4734978e62aff5c73d8933db61ce1b996deabf05d1d5b559ea5df39d9ad2560a4132918864a9f3c13b8f31d963cc199b6fe8bd07d3d7b75be85ff19f98d054084330938a66abf1c3398d3fd76dc2179561e6b309ddd9b955e651ff9196de5a064d3e9d8468a5ffcd37833dd56fc0159763e4b10bdfdbbb57e453fd9394dc58044f3c9f866aa7fdcf35813bd369c6139165e2b70dd9ddbd51e255fb9592da5e02493a99806ca1fbc9338739d16bc4119367e0b50fdbdfbf53e057f99790d85c004b389b826ea3f9cb318537df65ca1f9d69eebb01d5d1b15dee59f7999ed6520e4536958c60adf7c53f8b35dd67c81d9f6becb903d7d3b35fec5bf59b9cd4500c4734978e62aff5c73d8933db61ce1b996deabf05d1d5b559ea5df39d9ad2560a4132918864a9f3c13b8f31d963cc199b6fe8bd07d3d7b75be85ff19f98d054084330938a66abf1c3398d3fd76dc2179561e6b309ddd9b955e651f5acec752ea5b5a626a193fef3d61f8015e90bf5c37a61bbf82c706b82d515a783079f9a7782d00002251208e9b29671340417b3c8c37944953a2de3bd01e31ec980069dd0c6b6ea040f15302fd75099d3d5453442727ad49e432d271155d958c1651c780e6aad1b8c7aadd17972c500a149e819cf7e1740fd7ff94467d4be75fad06085849f3ad561a4f743870d1dc859505de3b2c001ac5ae6b07ec1cdf64ce970239b4b3cc9b8caff54527cbf84a833267857d48d85eba5e602a03aa0a90023ba4c47f25b5b640a5d4e16728abcdc91f88218528d815467ccdb6ea19884b45981cef41bdd7ead5cdaee1968bba3c44017846b69ac688aa10c0759602b0297a1f6242822d8a990257eb5d41e6b63694cc9f2552cbd8d3212fc6df21a3cee3a99870f79ca4e93f5f7e4735407eee539bf704743d7cdd29d8a841b4d08a6363497e0e320703570e39946ff60d0198f1ec27061b5a01f4aed0bc7f359cd8a4dce6a6ad93ee8dc0dc83ff59ddc9b78836ab39051c37aa71fdfce06c7aec2022fedde444a847b2c98c95fb57c23ee045f4e4393810aa6910ac17e1869e59a89ca83cdfae72e8d1b1e56d74299252cfd058ced8fa37674a56b2210ef4da2c01087fd7c563a4cbaa92971a153fde3e427da66d3b965172cca0ab9333da17cddda90173ca209f77ff7474a64d44b0207e6cb029d5abffa25c81b9b1ab6c902a19dd3413474390b2573ae6cf625ec25e6f2c77b24871a41bf46af0ba6bb66d3ba3782c4a18e8ab88c77270c6e9cbd61882f23d92673289b184f2daeef6a2829f824cfd4d0b18b42dfdc20274b7b1b0eae4fbc211d291d0e6ac396b84dcc436af2038b0e2a9c8382f106386762d3d2867ff79b6350b5c23416b0d21ccb84889ea5a9b1c924b8b4bacc5024b47b5ea70437beeb2e735b3f132ae759feac54fc24d31df0104ef2a6eb8141be7d1a3b69c4bb5301ec6b8ddb424d48303aed78f07ad404d5570d47c84a377d50bee2678c426abe383c544a22d71e98990ce9b8dcfb0d4d92b5df20bad252b41e0825324e5115b4093ab0ecadcdaf7ffabadf5a7053a4a8d7ea52e1208aad7628753cf4854680a21647e23a9c6a0d023756f7344f3afec45ab493152ecc2845c90f0a9280035628c8bfe9ac8d7724a40dddda3bc7bae166116dd392995adf19a9f027eb24935bcfcf0f48587c1cfdd61d88b60af14081c368f41805d2c5eab51e6ecc3dd47a822aaf04738419ff7496bf22c7b9165307460d70393086c3accafda217f05b08770c901c0ebb3b0bd3577482f54a5b1ca2df174b2092e0e3833c8156802b48e163f2f106d6a6f07aacd27d80f377f3ca53d9ba745f5784e4be2739357accb413e70450b5503dbb7823176d891ebf55b271552b7e7ac4606c164c884cad2a2ea1ce3f1fc7b398fc491a637753e1108e356f7eae39f9560fe59051ab2bd071ec77644b0918d8cffcdbc7d3e71a405b48f950183b97f7e60ccdbce470689c0e1c038da3da7eb044d240b3ea3a3cffcfa2d8824417cd56af24debe17cc9a5e8c8af07c5bde39d081c0693a13391c4569b1809f3de0c4dc2f7d2e6fce8213e3a839912b356b034679b1b0feda96e5fed392d07b93cd72724c69687226419995ea46d28a39ad39295408f309c731bedaeb1053b609eed148cf95c7b8e8e5588e64a760c6af4f0257d7c56ff2471c3df19ee649d217358fb35c49c5692fe5122af92c157f56c3c0dc7cb54b961f26580e4cf0f60b434f7d4c3a84435bda3778ba599b942de64a8523675c652cab865fbc5520a334e359367cf7adc426a0c309fd6f9ec6403387881eb6d975025a63cdc2de17286dab7c1bd8a5c1abe1cfd4d6ae41029d38f7ed6a9d8ae1e5fa180edbc685b1b9594aab7dd1802031542a94d202ba90bf13864031a75811e0537cde6ae9dceb65d6a8a64cac2005a81db45c4bb4f7754ee83ead8196ea014680f42f730030a1bd73af39c71f9761d55d36c2d6386a393f2d1b5ddbb5e7f8e5b8d92213942a5c8be310eeb323520b058c1662e2adb7ab5301dcb1f7c8064c37c074e19ec9fe04cdba9614171ddcfbc87151d72bcdcbaa30be5e575360cc0b165ec4b6788de7f650d95b76239ddc2fe4fc414f6c77d2a3602711d429129174699828c7f9bab117ace7b432a042f83e1eac24e6b074416d7be5655a306c66fa982e5869ff71f9903b6018ae56edac91df630528ba0c2c084f85d556fdabf7b0a367a5376638a787f66a5eb31a5f287b1a02752670275cfe2c467fb7593c0e130d1f6518c4d106d03f8f51a4ec94a540a8c7c1b8422451b2db5cae1a17956c7e8c9c7848ee32836589b2384722be8f07862d78f9fcc86fe0f906436e38f76c96c34854e9d410913e0c6f2e40657124e6c644051a02f5b0cc012a5098840e4d834ba247a01c7ae08dbf1ef803dd39bd7f1ac6ee638a3332da7f9536129d27e03a5568128966d669ad5565b8c4e1a3012e24568dc9b18488640d5103b631b58920d5951b8a1481577f26b013565889b5dd6fed0f8f0ead0fc7aa9dd70cea90eab86876045b21df57885347bf6d72d94ffb5c9c4a3ddeb7caa4c0921b972ce5bb4bf8aa1e67b0bb1895dfe934f8717e65bcdcde43dab3fadd59613530dd777788cb4a93f50a1235b3573b0893ce00dfe2e3b23cc7e85b96d14f825597ed403c56bfbfea153481231c6e7a3dfda002713ed06f4d42346b0f1179081509254793084656fd79359fa25ed26de3d9a877372821c86d4cc65375b7796901607aa9e9e851e633fa058a0b36cc748403423b48ce3a19dc06aff60c9a1cd9026806912a0cca528da8b5dd0198aee359fce383669d180e557f1b53bff400a707c23f2ea578e92926a0a63a7bbfeb08bf83d0ac9c3e00bc236a5336f7d456a881727807f7cd167c05d3dcd27aa033c6b9a00c3b5eda8c5ffda945a2ae0fd9c48fa8fc30658e012f67b608c2fcef8bcff9fe612c42629d216457a100f5587331c71f5704f6d66140c57089673d8e62367bca9e7b7a6fbbc1947cf287d2149fbfb22bc3675014ffe6de1e3f24b357300ad642a7a7a3ff16ec11f7219d641667498aaf3193f04e096c3945cbd516b45fd6dd65c49411b217a9f98c258eaef9cb1c9e63e5dda771e973bf7955fbb03552192f470aa10c173a680c6105055d8b7c3b1c800cd5c7d4b037777d752ded49359d8e9a23209c72fe8d0639d4b138b092b762697357d617320d1e030f3d56c869f06a92a9ef7f3c219d12650c6d90b8b5f03b332cdc5fd50b325b1b9c266f98ec429f45f4096c4c75c41b162bb26d44651c3bfe49a99c8122df6ee75cd4ef8700f38f1c78694e2a4821aa9560a0c9096801e9f4cc6d80b0fdcb9496540d5cce5896b42f2325a6ca5a586b18a8d882c11f3f7f906a1141a3740475362687377868c9cafc1c2daf5f8f9060a2632336667727881828388999fa9b5d5e2f4ff01132627292c4e5357696d9098a4a6cfdae4e6f2f5f71213275e6476979a9ed2f900000000000014293f4a01fd210500f44f0998a9a84f621593dbc7e000be17132ff1a33d14a488679d81549d9534a9c341a238fba80cb2e5725ba87b296d473e0b665422a2cb5407730e4dba213e8c35e3c79c7ee1ce9aae320a30e081513cbff09e775b8372bc4de75c1687cdb5ebd29a572169dd007d89f309592970634d9310806ccc2d0762f70f8648217d0aa56c5f174ec614236b5cfc34285b6b7533b91cc46be77766c5f29abe9afcae526663bed673741d1437b8e8b089fd7b5785ea0e18d68c9ecb6730e96d77ffe842ad7f57e4318011ced1cdc1f3e708ba2f5e45401085c4c7f19366fe09a3301247a2a35c6bf19f7cca684ff48e11cf7a206eede9725e26aec8268e2ca03d7e8846f968e139e05111ee95c3743ce9e4e3b095c0886b6f207543a3800e2ea2d7e8bd9ffaeec6416446799a81bfa22ba5e530b5914a049105ca658217bdfcc872ec60af0f41dd9b54f3f972b89c2f860e898d6bb5be9476ff4b0714fd042d524dfc52a10b73bc0f3d2eb2a7666846258a495d3323ea5270049e2d3277d2fa7b8ccb88903464dd964ed911427d8ee82376bf3860f0303709c483b1a5bc8c93473061f31b63eb5faf619a98957e535dd0df4323a32ecc93f07c54646e1771752c6a4a4acaa10d1f23d1ec72b4ef14614efbd729477a36f75c0bf54d86cc99074bef36bf43702ee41af1d66642479508135c0c30253c2850fd50a7740b5fa1de6fb8446fdf98a66ef39a78fc6e2a8982192cc9ba60f3ec482c776500f8d139cc675490298fb11f5b2500149a824c15d60adf7f83f004e7ac6212756ed287321d8869ddd6eadf1a4399786db5d9c063df79bf58136c9447d31e710014704764d496cee24ed296fb3b091526949217ca38c3541df37ce81847f4ab427946eecd8d5e328041229e8ae5e7df0ab3a1521f9cb6473b83eb13c905b8e1532f3dfc82b815cd78567fdc939789508222da558710bcaa3e51b13f61faa6734d1c6dfa3ed37a4ea39985ea839b5658ce06a2b5a899c0f43d9b267d515c6f2335d1b71cbcb19c7b32f6899a828fb236c78c0d1a60eb43ba3a77cc9ebb0d05f1aa4935927dd5d9f93407e0d561761d2e7bd321e3f81a2a29e2ca20a838b1d9957e85ce0c2c6c8eb00201da777321ad3b4c7cb9d6d9c5cdf97d54af54b8bea1752fc400f6790df76a0baca64ff08caa3fb8f288b76de3e15812fb76d1f2d83b6f158b25efd15a10f6950b92dbfa4380b13bb03392d7887c8b53ee275403bf03e7ca0330b5fd17612fd42f2236c622410d4983b87196e3310b7673e3a3fecbd6acde7f27a64af065accb27bc97048a3188c66f5e48c2442a1b656a8364f24c8c9217579c03c7d457116f54649ad81df7d81f9f33cfcf57e6503e15eee2295b52d50303d6180409769e51fddcb99a6824d9ed4d5565b1c439d2276dfad0da9d12834a922f9be99c579cb83f6a98aa04e1fbba52113b5df724390da5f08161c2d47027255a729120abe6ad87c2656f754b70c174a6e1eff56b4af052a4dd0615464433db22f8f6a097fdda036aea00bafa6a4fbe773d8ce4771879050ef82bc294e9416c9bc4a523294666fdf0012e4400b50f0bd87aced355775ea2948c1ce3337344f6b28a1410fbca458eeed89139bbf6996e96934f0cf8a75c7c2239810c0b44684bcb74ca057a0a816af8a7a92179d484e3561f4bfaf255c3942890426a6d600b3801b882eb0c495116dc02e69b69f61dec9ad1395359a6663cfe72450426ef6f9e01f34f392519d97894a31a2d08b4bfe46ebaa8382f9e7058f0f0c48f950726df1c4b02120e787388f92dac2c5a762448b3bc953a0b3fef7b1a6795ea02b81af64c5dbc3be90d18b83487000000",
  "txid": "31754497db84540ce682977f5230ae487c7c54214f9ab9c20b3406cfd077cf61",
  "hash": "c35c51945dcbca312df9ac10c602defd82b0803a9315bf839b12917dc606857b",
  "size": 5085,
  "vsize": 2278,
  "version": 1,
  "locktime": 135,
  "vin": [
    {
      "txid": "ec8ed462e896990eb0437a44240a6527c99a2802d5354e368cd1b226a23bf1d5",
      "vout": 0,
      "scriptSig": {
        "asm": "",
        "hex": ""
      },
      "txinwitness": [
        "9d3d5453442727ad49e432d271155d958c1651c780e6aad1b8c7aadd17972c500a149e819cf7e1740fd7ff94467d4be75fad06085849f3ad561a4f743870d1dc859505de3b2c001ac5ae6b07ec1cdf64ce970239b4b3cc9b8caff54527cbf84a833267857d48d85eba5e602a03aa0a90023ba4c47f25b5b640a5d4e16728abcdc91f88218528d815467ccdb6ea19884b45981cef41bdd7ead5cdaee1968bba3c44017846b69ac688aa10c0759602b0297a1f6242822d8a990257eb5d41e6b63694cc9f2552cbd8d3212fc6df21a3cee3a99870f79ca4e93f5f7e4735407eee539bf704743d7cdd29d8a841b4d08a6363497e0e320703570e39946ff60d0198f1ec27061b5a01f4aed0bc7f359cd8a4dce6a6ad93ee8dc0dc83ff59ddc9b78836ab39051c37aa71fdfce06c7aec2022fedde444a847b2c98c95fb57c23ee045f4e4393810aa6910ac17e1869e59a89ca83cdfae72e8d1b1e56d74299252cfd058ced8fa37674a56b2210ef4da2c01087fd7c563a4cbaa92971a153fde3e427da66d3b965172cca0ab9333da17cddda90173ca209f77ff7474a64d44b0207e6cb029d5abffa25c81b9b1ab6c902a19dd3413474390b2573ae6cf625ec25e6f2c77b24871a41bf46af0ba6bb66d3ba3782c4a18e8ab88c77270c6e9cbd61882f23d92673289b184f2daeef6a2829f824cfd4d0b18b42dfdc20274b7b1b0eae4fbc211d291d0e6ac396b84dcc436af2038b0e2a9c8382f106386762d3d2867ff79b6350b5c23416b0d21ccb84889ea5a9b1c924b8b4bacc5024b47b5ea70437beeb2e735b3f132ae759feac54fc24d31df0104ef2a6eb8141be7d1a3b69c4bb5301ec6b8ddb424d48303aed78f07ad404d5570d47c84a377d50bee2678c426abe383c544a22d71e98990ce9b8dcfb0d4d92b5df20bad252b41e0825324e5115b4093ab0ecadcdaf7ffabadf5a7053a4a8d7ea52e1208aad7628753cf4854680a21647e23a9c6a0d023756f7344f3afec45ab493152ecc2845c90f0a9280035628c8bfe9ac8d7724a40dddda3bc7bae166116dd392995adf19a9f027eb24935bcfcf0f48587c1cfdd61d88b60af14081c368f41805d2c5eab51e6ecc3dd47a822aaf04738419ff7496bf22c7b9165307460d70393086c3accafda217f05b08770c901c0ebb3b0bd3577482f54a5b1ca2df174b2092e0e3833c8156802b48e163f2f106d6a6f07aacd27d80f377f3ca53d9ba745f5784e4be2739357accb413e70450b5503dbb7823176d891ebf55b271552b7e7ac4606c164c884cad2a2ea1ce3f1fc7b398fc491a637753e1108e356f7eae39f9560fe59051ab2bd071ec77644b0918d8cffcdbc7d3e71a405b48f950183b97f7e60ccdbce470689c0e1c038da3da7eb044d240b3ea3a3cffcfa2d8824417cd56af24debe17cc9a5e8c8af07c5bde39d081c0693a13391c4569b1809f3de0c4dc2f7d2e6fce8213e3a839912b356b034679b1b0feda96e5fed392d07b93cd72724c69687226419995ea46d28a39ad39295408f309c731bedaeb1053b609eed148cf95c7b8e8e5588e64a760c6af4f0257d7c56ff2471c3df19ee649d217358fb35c49c5692fe5122af92c157f56c3c0dc7cb54b961f26580e4cf0f60b434f7d4c3a84435bda3778ba599b942de64a8523675c652cab865fbc5520a334e359367cf7adc426a0c309fd6f9ec6403387881eb6d975025a63cdc2de17286dab7c1bd8a5c1abe1cfd4d6ae41029d38f7ed6a9d8ae1e5fa180edbc685b1b9594aab7dd1802031542a94d202ba90bf13864031a75811e0537cde6ae9dceb65d6a8a64cac2005a81db45c4bb4f7754ee83ead8196ea014680f42f730030a1bd73af39c71f9761d55d36c2d6386a393f2d1b5ddbb5e7f8e5b8d92213942a5c8be310eeb323520b058c1662e2adb7ab5301dcb1f7c8064c37c074e19ec9fe04cdba9614171ddcfbc87151d72bcdcbaa30be5e575360cc0b165ec4b6788de7f650d95b76239ddc2fe4fc414f6c77d2a3602711d429129174699828c7f9bab117ace7b432a042f83e1eac24e6b074416d7be5655a306c66fa982e5869ff71f9903b6018ae56edac91df630528ba0c2c084f85d556fdabf7b0a367a5376638a787f66a5eb31a5f287b1a02752670275cfe2c467fb7593c0e130d1f6518c4d106d03f8f51a4ec94a540a8c7c1b8422451b2db5cae1a17956c7e8c9c7848ee32836589b2384722be8f07862d78f9fcc86fe0f906436e38f76c96c34854e9d410913e0c6f2e40657124e6c644051a02f5b0cc012a5098840e4d834ba247a01c7ae08dbf1ef803dd39bd7f1ac6ee638a3332da7f9536129d27e03a5568128966d669ad5565b8c4e1a3012e24568dc9b18488640d5103b631b58920d5951b8a1481577f26b013565889b5dd6fed0f8f0ead0fc7aa9dd70cea90eab86876045b21df57885347bf6d72d94ffb5c9c4a3ddeb7caa4c0921b972ce5bb4bf8aa1e67b0bb1895dfe934f8717e65bcdcde43dab3fadd59613530dd777788cb4a93f50a1235b3573b0893ce00dfe2e3b23cc7e85b96d14f825597ed403c56bfbfea153481231c6e7a3dfda002713ed06f4d42346b0f1179081509254793084656fd79359fa25ed26de3d9a877372821c86d4cc65375b7796901607aa9e9e851e633fa058a0b36cc748403423b48ce3a19dc06aff60c9a1cd9026806912a0cca528da8b5dd0198aee359fce383669d180e557f1b53bff400a707c23f2ea578e92926a0a63a7bbfeb08bf83d0ac9c3e00bc236a5336f7d456a881727807f7cd167c05d3dcd27aa033c6b9a00c3b5eda8c5ffda945a2ae0fd9c48fa8fc30658e012f67b608c2fcef8bcff9fe612c42629d216457a100f5587331c71f5704f6d66140c57089673d8e62367bca9e7b7a6fbbc1947cf287d2149fbfb22bc3675014ffe6de1e3f24b357300ad642a7a7a3ff16ec11f7219d641667498aaf3193f04e096c3945cbd516b45fd6dd65c49411b217a9f98c258eaef9cb1c9e63e5dda771e973bf7955fbb03552192f470aa10c173a680c6105055d8b7c3b1c800cd5c7d4b037777d752ded49359d8e9a23209c72fe8d0639d4b138b092b762697357d617320d1e030f3d56c869f06a92a9ef7f3c219d12650c6d90b8b5f03b332cdc5fd50b325b1b9c266f98ec429f45f4096c4c75c41b162bb26d44651c3bfe49a99c8122df6ee75cd4ef8700f38f1c78694e2a4821aa9560a0c9096801e9f4cc6d80b0fdcb9496540d5cce5896b42f2325a6ca5a586b18a8d882c11f3f7f906a1141a3740475362687377868c9cafc1c2daf5f8f9060a2632336667727881828388999fa9b5d5e2f4ff01132627292c4e5357696d9098a4a6cfdae4e6f2f5f71213275e6476979a9ed2f900000000000014293f4a01",
        "00f44f0998a9a84f621593dbc7e000be17132ff1a33d14a488679d81549d9534a9c341a238fba80cb2e5725ba87b296d473e0b665422a2cb5407730e4dba213e8c35e3c79c7ee1ce9aae320a30e081513cbff09e775b8372bc4de75c1687cdb5ebd29a572169dd007d89f309592970634d9310806ccc2d0762f70f8648217d0aa56c5f174ec614236b5cfc34285b6b7533b91cc46be77766c5f29abe9afcae526663bed673741d1437b8e8b089fd7b5785ea0e18d68c9ecb6730e96d77ffe842ad7f57e4318011ced1cdc1f3e708ba2f5e45401085c4c7f19366fe09a3301247a2a35c6bf19f7cca684ff48e11cf7a206eede9725e26aec8268e2ca03d7e8846f968e139e05111ee95c3743ce9e4e3b095c0886b6f207543a3800e2ea2d7e8bd9ffaeec6416446799a81bfa22ba5e530b5914a049105ca658217bdfcc872ec60af0f41dd9b54f3f972b89c2f860e898d6bb5be9476ff4b0714fd042d524dfc52a10b73bc0f3d2eb2a7666846258a495d3323ea5270049e2d3277d2fa7b8ccb88903464dd964ed911427d8ee82376bf3860f0303709c483b1a5bc8c93473061f31b63eb5faf619a98957e535dd0df4323a32ecc93f07c54646e1771752c6a4a4acaa10d1f23d1ec72b4ef14614efbd729477a36f75c0bf54d86cc99074bef36bf43702ee41af1d66642479508135c0c30253c2850fd50a7740b5fa1de6fb8446fdf98a66ef39a78fc6e2a8982192cc9ba60f3ec482c776500f8d139cc675490298fb11f5b2500149a824c15d60adf7f83f004e7ac6212756ed287321d8869ddd6eadf1a4399786db5d9c063df79bf58136c9447d31e710014704764d496cee24ed296fb3b091526949217ca38c3541df37ce81847f4ab427946eecd8d5e328041229e8ae5e7df0ab3a1521f9cb6473b83eb13c905b8e1532f3dfc82b815cd78567fdc939789508222da558710bcaa3e51b13f61faa6734d1c6dfa3ed37a4ea39985ea839b5658ce06a2b5a899c0f43d9b267d515c6f2335d1b71cbcb19c7b32f6899a828fb236c78c0d1a60eb43ba3a77cc9ebb0d05f1aa4935927dd5d9f93407e0d561761d2e7bd321e3f81a2a29e2ca20a838b1d9957e85ce0c2c6c8eb00201da777321ad3b4c7cb9d6d9c5cdf97d54af54b8bea1752fc400f6790df76a0baca64ff08caa3fb8f288b76de3e15812fb76d1f2d83b6f158b25efd15a10f6950b92dbfa4380b13bb03392d7887c8b53ee275403bf03e7ca0330b5fd17612fd42f2236c622410d4983b87196e3310b7673e3a3fecbd6acde7f27a64af065accb27bc97048a3188c66f5e48c2442a1b656a8364f24c8c9217579c03c7d457116f54649ad81df7d81f9f33cfcf57e6503e15eee2295b52d50303d6180409769e51fddcb99a6824d9ed4d5565b1c439d2276dfad0da9d12834a922f9be99c579cb83f6a98aa04e1fbba52113b5df724390da5f08161c2d47027255a729120abe6ad87c2656f754b70c174a6e1eff56b4af052a4dd0615464433db22f8f6a097fdda036aea00bafa6a4fbe773d8ce4771879050ef82bc294e9416c9bc4a523294666fdf0012e4400b50f0bd87aced355775ea2948c1ce3337344f6b28a1410fbca458eeed89139bbf6996e96934f0cf8a75c7c2239810c0b44684bcb74ca057a0a816af8a7a92179d484e3561f4bfaf255c3942890426a6d600b3801b882eb0c495116dc02e69b69f61dec9ad1395359a6663cfe72450426ef6f9e01f34f392519d97894a31a2d08b4bfe46ebaa8382f9e7058f0f0c48f950726df1c4b02120e787388f92dac2c5a762448b3bc953a0b3fef7b1a6795ea02b81af64c5dbc3be90d18b834"
      ],
      "sequence": 4294967294
    }
  ],
  "vout": [
    {
      "value": 1.0,
      "n": 0,
      "scriptPubKey": {
        "asm": "OP_RETURN 79a2af170e2b422ff71e5cb373a410b46ef2e59da68d16ca8aed39c92b0119ca 7df65ca1f9d69eebb01d5d1b15dee59f7999ed6520e4536958c60adf7c53f8b35dd67c81d9f6becb903d7d3b35fec5bf59b9cd4500c4734978e62aff5c73d8933db61ce1b996deabf05d1d5b559ea5df39d9ad2560a4132918864a9f3c13b8f31d963cc199b6fe8bd07d3d7b75be85ff19f98d054084330938a66abf1c3398d3fd76dc2179561e6b309ddd9b955e651ff9196de5a064d3e9d8468a5ffcd37833dd56fc0159763e4b10bdfdbbb57e453fd9394dc58044f3c9f866aa7fdcf35813bd369c6139165e2b70dd9ddbd51e255fb9592da5e02493a99806ca1fbc9338739d16bc4119367e0b50fdbdfbf53e057f99790d85c004b389b826ea3f9cb318537df65ca1f9d69eebb01d5d1b15dee59f7999ed6520e4536958c60adf7c53f8b35dd67c81d9f6becb903d7d3b35fec5bf59b9cd4500c4734978e62aff5c73d8933db61ce1b996deabf05d1d5b559ea5df39d9ad2560a4132918864a9f3c13b8f31d963cc199b6fe8bd07d3d7b75be85ff19f98d054084330938a66abf1c3398d3fd76dc2179561e6b309ddd9b955e651ff9196de5a064d3e9d8468a5ffcd37833dd56fc0159763e4b10bdfdbbb57e453fd9394dc58044f3c9f866aa7fdcf35813bd369c6139165e2b70dd9ddbd51e255fb9592da5e02493a99806ca1fbc9338739d16bc4119367e0b50fdbdfbf53e057f99790d85c004b389b826ea3f9cb318537df65ca1f9d69eebb01d5d1b15dee59f7999ed6520e4536958c60adf7c53f8b35dd67c81d9f6becb903d7d3b35fec5bf59b9cd4500c4734978e62aff5c73d8933db61ce1b996deabf05d1d5b559ea5df39d9ad2560a4132918864a9f3c13b8f31d963cc199b6fe8bd07d3d7b75be85ff19f98d054084330938a66abf1c3398d3fd76dc2179561e6b309ddd9b955e651ff9196de5a064d3e9d8468a5ffcd37833dd56fc0159763e4b10bdfdbbb57e453fd9394dc58044f3c9f866aa7fdcf35813bd369c6139165e2b70dd9ddbd51e255fb9592da5e02493a99806ca1fbc9338739d16bc4119367e0b50fdbdfbf53e057f99790d85c004b389b826ea3f9cb318537df65ca1f9d69eebb01d5d1b15dee59f7999ed6520e4536958c60adf7c53f8b35dd67c81d9f6becb903d7d3b35fec5bf59b9cd4500c4734978e62aff5c73d8933db61ce1b996deabf05d1d5b559ea5df39d9ad2560a4132918864a9f3c13b8f31d963cc199b6fe8bd07d3d7b75be85ff19f98d054084330938a66abf1c3398d3fd76dc2179561e6b309ddd9b955e651ff9196de5a064d3e9d8468a5ffcd37833dd56fc0159763e4b10bdfdbbb57e453fd9394dc58044f3c9f866aa7fdcf35813bd369c6139165e2b70dd9ddbd51e255fb9592da5e02493a99806ca1fbc9338739d16bc4119367e0b50fdbdfbf53e057f99790d85c004b389b826ea3f9cb318537df65ca1f9d69eebb01d5d1b15dee59f7999ed6520e4536958c60adf7c53f8b35dd67c81d9f6becb903d7d3b35fec5bf59b9cd4500c4734978e62aff5c73d8933db61ce1b996deabf05d1d5b559ea5df39d9ad2560a4132918864a9f3c13b8f31d963cc199b6fe8bd07d3d7b75be85ff19f98d054084330938a66abf1c3398d3fd76dc2179561e6b309ddd9b955e651f5acec752ea5b5a626a193fef3d61f8015e90bf5c37a61bbf82c706b82d515a78",
        "hex": "6a2079a2af170e2b422ff71e5cb373a410b46ef2e59da68d16ca8aed39c92b0119ca4db0047df65ca1f9d69eebb01d5d1b15dee59f7999ed6520e4536958c60adf7c53f8b35dd67c81d9f6becb903d7d3b35fec5bf59b9cd4500c4734978e62aff5c73d8933db61ce1b996deabf05d1d5b559ea5df39d9ad2560a4132918864a9f3c13b8f31d963cc199b6fe8bd07d3d7b75be85ff19f98d054084330938a66abf1c3398d3fd76dc2179561e6b309ddd9b955e651ff9196de5a064d3e9d8468a5ffcd37833dd56fc0159763e4b10bdfdbbb57e453fd9394dc58044f3c9f866aa7fdcf35813bd369c6139165e2b70dd9ddbd51e255fb9592da5e02493a99806ca1fbc9338739d16bc4119367e0b50fdbdfbf53e057f99790d85c004b389b826ea3f9cb318537df65ca1f9d69eebb01d5d1b15dee59f7999ed6520e4536958c60adf7c53f8b35dd67c81d9f6becb903d7d3b35fec5bf59b9cd4500c4734978e62aff5c73d8933db61ce1b996deabf05d1d5b559ea5df39d9ad2560a4132918864a9f3c13b8f31d963cc199b6fe8bd07d3d7b75be85ff19f98d054084330938a66abf1c3398d3fd76dc2179561e6b309ddd9b955e651ff9196de5a064d3e9d8468a5ffcd37833dd56fc0159763e4b10bdfdbbb57e453fd9394dc58044f3c9f866aa7fdcf35813bd369c6139165e2b70dd9ddbd51e255fb9592da5e02493a99806ca1fbc9338739d16bc4119367e0b50fdbdfbf53e057f99790d85c004b389b826ea3f9cb318537df65ca1f9d69eebb01d5d1b15dee59f7999ed6520e4536958c60adf7c53f8b35dd67c81d9f6becb903d7d3b35fec5bf59b9cd4500c4734978e62aff5c73d8933db61ce1b996deabf05d1d5b559ea5df39d9ad2560a4132918864a9f3c13b8f31d963cc199b6fe8bd07d3d7b75be85ff19f98d054084330938a66abf1c3398d3fd76dc2179561e6b309ddd9b955e651ff9196de5a064d3e9d8468a5ffcd37833dd56fc0159763e4b10bdfdbbb57e453fd9394dc58044f3c9f866aa7fdcf35813bd369c6139165e2b70dd9ddbd51e255fb9592da5e02493a99806ca1fbc9338739d16bc4119367e0b50fdbdfbf53e057f99790d85c004b389b826ea3f9cb318537df65ca1f9d69eebb01d5d1b15dee59f7999ed6520e4536958c60adf7c53f8b35dd67c81d9f6becb903d7d3b35fec5bf59b9cd4500c4734978e62aff5c73d8933db61ce1b996deabf05d1d5b559ea5df39d9ad2560a4132918864a9f3c13b8f31d963cc199b6fe8bd07d3d7b75be85ff19f98d054084330938a66abf1c3398d3fd76dc2179561e6b309ddd9b955e651ff9196de5a064d3e9d8468a5ffcd37833dd56fc0159763e4b10bdfdbbb57e453fd9394dc58044f3c9f866aa7fdcf35813bd369c6139165e2b70dd9ddbd51e255fb9592da5e02493a99806ca1fbc9338739d16bc4119367e0b50fdbdfbf53e057f99790d85c004b389b826ea3f9cb318537df65ca1f9d69eebb01d5d1b15dee59f7999ed6520e4536958c60adf7c53f8b35dd67c81d9f6becb903d7d3b35fec5bf59b9cd4500c4734978e62aff5c73d8933db61ce1b996deabf05d1d5b559ea5df39d9ad2560a4132918864a9f3c13b8f31d963cc199b6fe8bd07d3d7b75be85ff19f98d054084330938a66abf1c3398d3fd76dc2179561e6b309ddd9b955e651f5acec752ea5b5a626a193fef3d61f8015e90bf5c37a61bbf82c706b82d515a78",
        "type": "nulldata"
      }
    },
    {
      "value": 499962.3747,
      "n": 1,
      "scriptPubKey": {
        "asm": "1 8e9b29671340417b3c8c37944953a2de3bd01e31ec980069dd0c6b6ea040f153",
        "hex": "51208e9b29671340417b3c8c37944953a2de3bd01e31ec980069dd0c6b6ea040f153",
        "reqSigs": 1,
        "type": "witness_v1_scripthash",
        "addresses": [
          "3QJmnh"
        ]
      }
    }
  ],
  "blockhash": "04b08afa406522d4605e5542ad480440adf33b25b306f33fff8225e2cbbf4733",
  "confirmations": 1,
  "time": 1764183055,
  "blocktime": 1764183055
}