{
  "hex": "01000000000101b56de0cc591c4af4497d38c06560a4c72ec3cd1dc466390c0da465db63c7d0d10000000000feffffff0270cc3221792d000022512058d0f6fdc718007434398824143213f17bc926c2dd29525108771c211055cdd300e1f50500000000fdd5046a20b56b12fa46c684a7f591d86ec5beee3f2c328955d332159504cd4a34a345c8894db0043f297f5d06a28f39adcf48365d5e7246d45a254835372f5946d1e8264dce9d9c1f095f7d2682af198def68167d7e5266f47a056815170f7966f1c8066deebdbc7f693f1d46e2cf79ed8f08761d1e3206941a650875776f190691a8660d8edddc5f491f3d66c2ef59cdaf28563d3e1226b43a452855574f3926b188462daefdfcbfa9ffdd86220fb92d4fc8b6dddef2c654daa5c8b5b7afd9c65168a6cd4e1d1c9f89dffda6022f990d6fe896fdfed2e674fa85e895978ff9e6714886ed6e3d3cffe9bf9dc6624ff96d0f88f69d9eb286149ae588f5f7ef99861128e68d0e5d5cdfc99fbde6426fd94d2fa8d6bdbe92a634bac5a8d5d7cfb9a63108c6ad2e7d7c3f297f5d06a28f39adcf48365d5e7246d45a254835372f5946d1e8264dce9d9c1f095f7d2682af198def68167d7e5266f47a056815170f7966f1c8066deebdbc7f693f1d46e2cf79ed8f08761d1e3206941a650875776f190691a8660d8edddc5f491f3d66c2ef59cdaf28563d3e1226b43a452855574f3926b188462daefdfcbfa9ffdd86220fb92d4fc8b6dddef2c654daa5c8b5b7afd9c65168a6cd4e1d1c9f89dffda6022f990d6fe896fdfed2e674fa85e895978ff9e6714886ed6e3d3cffe9bf9dc6624ff96d0f88f69d9eb286149ae588f5f7ef99861128e68d0e5d5cdfc99fbde6426fd94d2fa8d6bdbe92a634bac5a8d5d7cfb9a63108c6ad2e7d7c3f297f5d06a28f39adcf48365d5e7246d45a254835372f5946d1e8264dce9d9c1f095f7d2682af198def68167d7e5266f47a056815170f7966f1c8066deebdbc7f693f1d46e2cf79ed8f08761d1e3206941a650875776f190691a8660d8edddc5f491f3d66c2ef59cdaf28563d3e1226b43a452855574f3926b188462daefdfcbfa9ffdd86220fb92d4fc8b6dddef2c654daa5c8b5b7afd9c65168a6cd4e1d1c9f89dffda6022f990d6fe896fdfed2e674fa85e895978ff9e6714886ed6e3d3cffe9bf9dc6624ff96d0f88f69d9eb286149ae588f5f7ef99861128e68d0e5d5cdfc99fbde6426fd94d2fa8d6bdbe92a634bac5a8d5d7cfb9a63108c6ad2e7d7c3f297f5d06a28f39adcf48365d5e7246d45a254835372f5946d1e8264dce9d9c1f095f7d2682af198def68167d7e5266f47a056815170f7966f1c8066deebdbc7f693f1d46e2cf79ed8f08761d1e3206941a650875776f190691a8660d8edddc5f491f3d66c2ef59cdaf28563d3e1226b43a452855574f3926b188462daefdfcbfa9ffdd86220fb92d4fc8b6dddef2c654daa5c8b5b7afd9c65168a6cd4e1d1c9f89dffda6022f990d6fe896fdfed2e674fa85e895978ff9e6714886ed6e3d3cffe9bf9dc6624ff96d0f88f69d9eb286149ae588f5f7ef99861128e68d0e5d5cdfc99fbde6426fd94d2fa8d6bdbe92a634bac5a8d5d7cfb9a63108c6ad2e7d7c3f297f5d06a28f39adcf48365d5e7246d45a254835372f5946d1e8264dce9d9c1f095f7d2682af198def68167d7e5266f47a056815170f7966f1c8066deebdbc7f693f1d46e2cf79ed8f08761d1e3206941a650875776f190691a8660d8edddc5f491f3d66c2ef59cdaf28563d3e1226b43a452855574f3926b188462daefdfcbfa9ffdd86220fb92d4fc8b6dddef2c6c3f9eab998d90cc53213a60c8d471585615949d60cff9b233ddd6dfcf6ca1d9802fd7509aaad92d61758b631952a4102a5afc9d3b7b41afd1b714e11262e183b96225bf3825d711d5c2a47467cf2d68719f5e2b4a08cdb4edd20d523e9e465c059d04a7428ed20b96c03437394c433d20d02cc7c047afbfad6091e955b437f3a1fe9d6661b531ef9ca28784a51784948a4c65233cdc67bbc5860f50c069cb0bb293d3ff6b40a8f4c077ab6295df0f4bdf963f0c9f810020d93edf896f60d611422ca52d317d9ff1240e2780fb5c80a06fe625a6e0574176f809529f43fb31dbd1192356a04d5bb08e9d8607e4e808c4a60be7725ce73ca9b931e07cb62b5b43d45e67e1ef455322d8e6e697c659be9e0c2bd572a12abf17d7ffa1326d7e8957afb78782c160762b8380e85e9479fbf8e6ca3355bf5856fdd5aaae7b76532671c5fa6e55466cca9607bcb22dac3336f0002174ad979b85ace9f32f97176fda8cfcfa49ed10526641d74d16bd3b17868edf7b1b1409e1fd86390c60d2c950fc779a4f420932186cc27af0de71339d796d03062b5458e680f70fbd901fe21fb7de2261c30c678daa855abf4ec9b28825ae329b0cd1efd8a1a6cb5516b048dcc9a695f967571172758d204a27ab72d3d56b787382885506060addfdc5420adc2f0b7478492dee7c68d78efb12b93ffb9166afbe660596df5e0a68013382eb076866b68aa24a97722422a8c0bcde4ef2143aebd866da5aeebb43d82f59996cd7fd2ee875879bd141585b015360ad228e72ef7fdaa9b2f40c3a0ed1cff66d69a7b94f7f34a31d02fcb766480cb8f07e5792c7157659b7685f80373e3d129922a28eb197744c1640ab2652546c7fbace48783f21991a120090673456cbb4b398a4622b7ca30ff009051b9d7ff3a65aa203497461736bac551dadaeb94e52c6c5e06db788139ae9325aabe4d8cf8b5b0efeb7b62e3729f1ab9075a70b908970dd637ddd7fb9a2ebf912d4dcae6d348f12edba40e51583134f6ccdd69dc6d5f618db932c45adebaf393d2fd9b3a83ae647b692b4d0042fba32abbb104df7b94de1c28fa18c824896bc774c33dfcc9a0246193782b3274a4b843118101622abc4bc943dfce6c01f67818cdccdde9b013ce2baf8c533c8761e435adfce421b66af5109303d72ac3005cfb6d9459b276c12460c82eaf01566e89f0f8a158394aa983ed1a2dac82f16a78fee9781a58a2b936821164c9d8b1bb1aa8dd4fd7abe5eea6591634f14f1c4805edb5180a83b9c556e4d1cc556478dfdb0d4b59a959153e7bdcdb347ef340fb7b48bc5aacfc97bd0dabdc7f876ee9e44849070a73495f1168d28a0b422308577bb564c8d8067909eb6390ce99ce35f9dc614a1b3974f4fb562a85b0899b55fe2f187b8f1190efd48b8b73c0350106194b4a7b75a5595a4d5039e45e29d9afcf5ce07d07b8960af57f1d410660079c5ab1c44190479984f9bd6123d26bbf9c993efa2d6b4f5b23d3efe486595c04b89294d34921f7752fbc4244b25274a8b06370377f9117ea5e258fa350ae4ab4eebb4d8ec830debc9ce02e338530c30504318c07c2ef89596a70d9637c51ced3d08dc92b2134303e2ff873c4f0c4f812014bd1fb053b66dd4fdf483b2b74f084929e6e3bcab8701ecc9302b15798f73be015e31f436ce431bb292e5a8ffb80c39ade847dd9874f53fe56d26dcae7d849e7d5c5d2f7f701ce16f21150ab02997bcae525f5d1aca66603182c2f887a4c1cc43d3c01c838f675b2d5e3c78cba4c8de95b16383405d76776c536948495e1fecfef7e5b1fcf66f15632767fd73054fb92d67f9506a4249bfad124ca0ca09ba1aaae1736bc2a988d86e0c7d71c8b5301adeca83cf78bfe14860aaf9a6a92d7b8f4db478e8ec8afbb2c4a6ecc5dab90f1ecb21c84c301994066dea549e7020c49a401ec24ecc8b385339ef343617c569c95d49a2126065efe6679c3d3136a493c2e39e1109398e71f5c25474c65df3f43f023b73c8d0f8efce79d44a085da16c311cdfe6d50a4a57c526f4c8f19093cdc23f62897d55c8f4e750c1e6b4c0ab9a3acb1c9198de54c82d268d07eb8d60e83c6c0fec625abdc63865234775743ea2e20c9dbb8c6edb5417c8f6744a4be140beb02a810a333a3a6576b441ac1035810fbbda0d0d2e369bebba74ad0e6b93531d94c7186420a7151ee49d0b38aca8a89d3b7605a8032457b289e4781377f1e328101a6ae62e5b9b898ba059da70b022dc2f7df056af160c8b32c450333fe11f309cf029089a9b5378300ab3412126d596826a52b9874a9916cd3930bbacf55ee13dabae347ef012172c38ca9cea4ddca5c7038fcaae6af97254edcd499633dc6b956fe363f16b24ef2ca6878111030703f91f37ee712292de4cb48e9a48a6599346be71625e726f466846a9b0500e3cce5c50a2dc6d7f3d999d7cfa9e89ec43078e0fe821b9a67ff0c58d16263957fe6084fbec7908c410efd64c8b70d734cc4c45ee04796728e10c3f222e832e71e20faabee2fc57cc0859e79afa40d78d0650f50f0bc562b9f9ecef4dc1ffb321c4aa855614685e82d7201d201a4ebac400ba1e873fe7dbc0971e16070a3103e6cd23554ab31d4d0a8748ef13dc39571af8b230b3ed41930f189e239fc44b145c85e1626d33a53d344871fa8f342ad39b0ddd415e0aa4472c61dbdb20669f2c87e4d1d28f17f3ce1621aeadcaae2728d1f7a0cde562eb68ef70145b7376699ca337fc6dfe43f1a3dca480a45e43d892498c05dc984e8741d8aa2c69b6063cfdcaefb2c4cc2524771a11afceae6b86cde4d5132f22e3f6668d4e3e0dbdb79fac2c87f2da677f61b6fbe90f2bcd42216ebf4c3db28cfdae70a089f8f15415ff10f3c5d8305b91cca8ef4dc1bb21b68b21b361f8bf66f915bca41d2961ef114e0c16a4baf5eb45be85d08762e773a0fd4044b384ab329e03ff0a9fcee0c037a84c025066ce1a8ba50e1caf4e06522bb03fed825d0ca41ec9b3059794a0cfe7e7e058a15b84f21e1c655c4e06a79c235f25372398fb9037adf9d2c1feffeb787a74a60d506c672e1a1bf202030ab6ebae6d11184596bc3d6c20b3bdd762091b1b4e5dbc75eb1b59f7457bd9eda3dbacf900b40dfdb8311be03078b8d4027cc1f9a122c89029b6fafa960d17969c309824ed7a56233c1fcb039f46a442081dd8f19f9a0c2fc14aebf093f4d122d9d8087276b812b386b9ef03116bbbe7e3bc0f5f44bb04b678fbe1f122dc9e390a192091244a70c3d6255901840e55ab6ce6b9df2aacb9d6b459b53046b89a268c177843e9561841d95e3a6159d01b856c61886de57b748eb22aa02436f73849d9e9fa6dedfe4f3f6020a293555616a7c8c91a4a8bfc5c8ccced9e0e5ecfb011e2c35363a476568728487909598acbbc2c9cafb233f4c5e677fa4b9c5ddde0000000000000000000000000e24394401fd2105003951ffcb6663e706e50f6bcb81ab99b19c7092a37c3e26711290a95ee496d2c962109f729d981b46a24e38459285580f05abba3b186eb620ce9515c1d510919a19e2128a437783123ea560776ba12f36e06a099d4aa9ba23640010df4d1afebd61c96571dc0c2cb5572d74e95c27a61a2c5bc7e513a107f24a4041d7ca4ded9dee8db329ad038482a12d35b765102801a6a2529c6c6d47452fcd6f59963b4f684d1a60953a60d012ff86486e73fa8a50790c1df7e7fc2627406353ca5e55054096fcb3bba188d8d13b5fc8d108856759b2647d98ce3c5ac7c528ca4a6c077e0f50d0a818671c344f6b129c2943fa6c09226210f113a21f7a4622d850b70e5f5c1f0873e496c86a0ee7abd1536a30465e9c78a733168f30b8cb31c8d709c8938b3265b7eb791c7d62f1372f23e51895bc85c40c1395e826ea5d61e0b726ac1f5bb68e751fa89f7153bc53bf3727a7c77e37ad15860c2dad101ac433dc0c7212597aeeb1787d2ac4ac87cc24a14609b051c05f66f61333cb7d2c2b700f5d229e5e17670e63c6ecba6d6c73e636e8b72f873f90460022218b32a6709e9661587137d332a7b4940b8661397e4bd50f684bf6a6710761866bb6d343717286fab90803aa30aba3f06a85e8df3e8500bf87daa5ba10024d1873229a97da319e726bc9998a55c6d4cc3d50c03b173798cd34a0a189adc92e1eb82b4a99f74217321e82587869f7ee8cce9c9e84474a76e463ba4e8eba90584e6e10e322cd21eff7fa406a4fccf568fcaf5e816a9afa8ddacf9bfd08482090854b00a49822fda5f898095500e35d3194bc004e6ca02dbf07522eb39205a247882e441a37f630a959439c8e7e62b59c95a2ed3784ee5a93590b0a94566426a69e35511b133e0c44f586b117dc9d89d0169481854abd55d98d97999caed4101d49ff5053835c2077002b9b0bcccad43eba8efc8beb91228ee7bd4640526a601b6579f8889c443f047f2192ac512d6ae36ffbc460866ea227b07b516be1856a2ad5cc036ab948d1b087c99bb6dd244596f59d5407616126f6bdec6906520bfd2b305849151f9f112ceb1bd0632cf4a5027cd9418d657c12a9ee474f68658c5c48e3c3339ac6a610eda0fad2bed135704a4e9aef529a41c9f63492afb7418db1d4f5709854679f0d05afdf7feb89cb617776bf0b03c122f12632d05636d4409c3f7e8d5f52d8203a8413bb478e19c8384961494c1ff740b633f6ba0c49d27a599243ab7d135c0faaa7ba5daeeb7d3747adcaf8a27e74bf5461917699ef7d11e0e568cff8d358a7466650f1b0e229a82454f5ad82e28d52ef9b1ce091f555d4a9487b245e430e22c13ead6fdc605b62df1d7a8e950786c2a4f1720bc0bcef9e68d96d8e37cc33150f43e832b9d67ce29f1c439c1c1584d638eab8ce8ba672206920a38070ee885ce073bdcfb6f3bca97f700fe26ebbeae41f175d9f27c5456871161ce6fec7484eb35f6444cf998c1a6f30cdd2b7077a0e61f39119b9ff770ba6f225c07c2fd72594f4f60db315f02d0875657491149f56a9920e91496c70a359750ae991127df0f6e75f3cc134e00b341b44140cf0e931a6cca49be263f6139c8d95ef64345f1c50ce5a7191bd3382e6c0ebab12f9390e70c06190791b5c13fce850f050addc89181fcf2573e60c6d6c58b6454cace416e9a8d6c0de7f4148180b363886f292f3c64c7570a8c388ac5c7607cc8fefccfd1cd37ad988a4c2e4c912d52f85fa722266cfccd14e37bdd38467cf6524bf1b4e1a43f0d13032cf7c1d01c0d93e1746706cfb8d525dd4fc2fa35f58e0a3961ceb3967a3970120fcde79ae9400f1205ac23e4919d5134b73000000",
  "txid": "3ff468e1fcdc89881fadf7b1381414e08e1e17d116fc372c5bcc4533ca917777",
  "hash": "868eec289b9b84545f2568ac77bbc86caf7d596e370274c1cbe9d8298802b39a",
  "size": 5085,
  "vsize": 2278,
  "version": 1,
  "locktime": 115,
  "vin": [
    {
      "txid": "d1d0c763db65a40d0c3966c41dcdc32ec7a46065c0387d49f44a1c59cce06db5",
      "vout": 0,
      "scriptSig": {
        "asm": "",
        "hex": ""
      },
      "txinwitness": [
        "aaad92d61758b631952a4102a5afc9d3b7b41afd1b714e11262e183b96225bf3825d711d5c2a47467cf2d68719f5e2b4a08cdb4edd20d523e9e465c059d04a7428ed20b96c03437394c433d20d02cc7c047afbfad6091e955b437f3a1fe9d6661b531ef9ca28784a51784948a4c65233cdc67bbc5860f50c069cb0bb293d3ff6b40a8f4c077ab6295df0f4bdf963f0c9f810020d93edf896f60d611422ca52d317d9ff1240e2780fb5c80a06fe625a6e0574176f809529f43fb31dbd1192356a04d5bb08e9d8607e4e808c4a60be7725ce73ca9b931e07cb62b5b43d45e67e1ef455322d8e6e697c659be9e0c2bd572a12abf17d7ffa1326d7e8957afb78782c160762b8380e85e9479fbf8e6ca3355bf5856fdd5aaae7b76532671c5fa6e55466cca9607bcb22dac3336f0002174ad979b85ace9f32f97176fda8cfcfa49ed10526641d74d16bd3b17868edf7b1b1409e1fd86390c60d2c950fc779a4f420932186cc27af0de71339d796d03062b5458e680f70fbd901fe21fb7de2261c30c678daa855abf4ec9b28825ae329b0cd1efd8a1a6cb5516b048dcc9a695f967571172758d204a27ab72d3d56b787382885506060addfdc5420adc2f0b7478492dee7c68d78efb12b93ffb9166afbe660596df5e0a68013382eb076866b68aa24a97722422a8c0bcde4ef2143aebd866da5aeebb43d82f59996cd7fd2ee875879bd141585b015360ad228e72ef7fdaa9b2f40c3a0ed1cff66d69a7b94f7f34a31d02fcb766480cb8f07e5792c7157659b7685f80373e3d129922a28eb197744c1640ab2652546c7fbace48783f21991a120090673456cbb4b398a4622b7ca30ff009051b9d7ff3a65aa203497461736bac551dadaeb94e52c6c5e06db788139ae9325aabe4d8cf8b5b0efeb7b62e3729f1ab9075a70b908970dd637ddd7fb9a2ebf912d4dcae6d348f12edba40e51583134f6ccdd69dc6d5f618db932c45adebaf393d2fd9b3a83ae647b692b4d0042fba32abbb104df7b94de1c28fa18c824896bc774c33dfcc9a0246193782b3274a4b843118101622abc4bc943dfce6c01f67818cdccdde9b013ce2baf8c533c8761e435adfce421b66af5109303d72ac3005cfb6d9459b276c12460c82eaf01566e89f0f8a158394aa983ed1a2dac82f16a78fee9781a58a2b936821164c9d8b1bb1aa8dd4fd7abe5eea6591634f14f1c4805edb5180a83b9c556e4d1cc556478dfdb0d4b59a959153e7bdcdb347ef340fb7b48bc5aacfc97bd0dabdc7f876ee9e44849070a73495f1168d28a0b422308577bb564c8d8067909eb6390ce99ce35f9dc614a1b3974f4fb562a85b0899b55fe2f187b8f1190efd48b8b73c0350106194b4a7b75a5595a4d5039e45e29d9afcf5ce07d07b8960af57f1d410660079c5ab1c44190479984f9bd6123d26bbf9c993efa2d6b4f5b23d3efe486595c04b89294d34921f7752fbc4244b25274a8b06370377f9117ea5e258fa350ae4ab4eebb4d8ec830debc9ce02e338530c30504318c07c2ef89596a70d9637c51ced3d08dc92b2134303e2ff873c4f0c4f812014bd1fb053b66dd4fdf483b2b74f084929e6e3bcab8701ecc9302b15798f73be015e31f436ce431bb292e5a8ffb80c39ade847dd9874f53fe56d26dcae7d849e7d5c5d2f7f701ce16f21150ab02997bcae525f5d1aca66603182c2f887a4c1cc43d3c01c838f675b2d5e3c78cba4c8de95b16383405d76776c536948495e1fecfef7e5b1fcf66f15632767fd73054fb92d67f9506a4249bfad124ca0ca09ba1aaae1736bc2a988d86e0c7d71c8b5301adeca83cf78bfe14860aaf9a6a92d7b8f4db478e8ec8afbb2c4a6ecc5dab90f1ecb21c84c301994066dea549e7020c49a401ec24ecc8b385339ef343617c569c95d49a2126065efe6679c3d3136a493c2e39e1109398e71f5c25474c65df3f43f023b73c8d0f8efce79d44a085da16c311cdfe6d50a4a57c526f4c8f19093cdc23f62897d55c8f4e750c1e6b4c0ab9a3acb1c9198de54c82d268d07eb8d60e83c6c0fec625abdc63865234775743ea2e20c9dbb8c6edb5417c8f6744a4be140beb02a810a333a3a6576b441ac1035810fbbda0d0d2e369bebba74ad0e6b93531d94c7186420a7151ee49d0b38aca8a89d3b7605a8032457b289e4781377f1e328101a6ae62e5b9b898ba059da70b022dc2f7df056af160c8b32c450333fe11f309cf029089a9b5378300ab3412126d596826a52b9874a9916cd3930bbacf55ee13dabae347ef012172c38ca9cea4ddca5c7038fcaae6af97254edcd499633dc6b956fe363f16b24ef2ca6878111030703f91f37ee712292de4cb48e9a48a6599346be71625e726f466846a9b0500e3cce5c50a2dc6d7f3d999d7cfa9e89ec43078e0fe821b9a67ff0c58d16263957fe6084fbec7908c410efd64c8b70d734cc4c45ee04796728e10c3f222e832e71e20faabee2fc57cc0859e79afa40d78d0650f50f0bc562b9f9ecef4dc1ffb321c4aa855614685e82d7201d201a4ebac400ba1e873fe7dbc0971e16070a3103e6cd23554ab31d4d0a8748ef13dc39571af8b230b3ed41930f189e239fc44b145c85e1626d33a53d344871fa8f342ad39b0ddd415e0aa4472c61dbdb20669f2c87e4d1d28f17f3ce1621aeadcaae2728d1f7a0cde562eb68ef70145b7376699ca337fc6dfe43f1a3dca480a45e43d892498c05dc984e8741d8aa2c69b6063cfdcaefb2c4cc2524771a11afceae6b86cde4d5132f22e3f6668d4e3e0dbdb79fac2c87f2da677f61b6fbe90f2bcd42216ebf4c3db28cfdae70a089f8f15415ff10f3c5d8305b91cca8ef4dc1bb21b68b21b361f8bf66f915bca41d2961ef114e0c16a4baf5eb45be85d08762e773a0fd4044b384ab329e03ff0a9fcee0c037a84c025066ce1a8ba50e1caf4e06522bb03fed825d0ca41ec9b3059794a0cfe7e7e058a15b84f21e1c655c4e06a79c235f25372398fb9037adf9d2c1feffeb787a74a60d506c672e1a1bf202030ab6ebae6d11184596bc3d6c20b3bdd762091b1b4e5dbc75eb1b59f7457bd9eda3dbacf900b40dfdb8311be03078b8d4027cc1f9a122c89029b6fafa960d17969c309824ed7a56233c1fcb039f46a442081dd8f19f9a0c2fc14aebf093f4d122d9d8087276b812b386b9ef03116bbbe7e3bc0f5f44bb04b678fbe1f122dc9e390a192091244a70c3d6255901840e55ab6ce6b9df2aacb9d6b459b53046b89a268c177843e9561841d95e3a6159d01b856c61886de57b748eb22aa02436f73849d9e9fa6dedfe4f3f6020a293555616a7c8c91a4a8bfc5c8ccced9e0e5ecfb011e2c35363a476568728487909598acbbc2c9cafb233f4c5e677fa4b9c5ddde0000000000000000000000000e24394401",
        "003951ffcb6663e706e50f6bcb81ab99b19c7092a37c3e26711290a95ee496d2c962109f729d981b46a24e38459285580f05abba3b186eb620ce9515c1d510919a19e2128a437783123ea560776ba12f36e06a099d4aa9ba23640010df4d1afebd61c96571dc0c2cb5572d74e95c27a61a2c5bc7e513a107f24a4041d7ca4ded9dee8db329ad038482a12d35b765102801a6a2529c6c6d47452fcd6f59963b4f684d1a60953a60d012ff86486e73fa8a50790c1df7e7fc2627406353ca5e55054096fcb3bba188d8d13b5fc8d108856759b2647d98ce3c5ac7c528ca4a6c077e0f50d0a818671c344f6b129c2943fa6c09226210f113a21f7a4622d850b70e5f5c1f0873e496c86a0ee7abd1536a30465e9c78a733168f30b8cb31c8d709c8938b3265b7eb791c7d62f1372f23e51895bc85c40c1395e826ea5d61e0b726ac1f5bb68e751fa89f7153bc53bf3727a7c77e37ad15860c2dad101ac433dc0c7212597aeeb1787d2ac4ac87cc24a14609b051c05f66f61333cb7d2c2b700f5d229e5e17670e63c6ecba6d6c73e636e8b72f873f90460022218b32a6709e9661587137d332a7b4940b8661397e4bd50f684bf6a6710761866bb6d343717286fab90803aa30aba3f06a85e8df3e8500bf87daa5ba10024d1873229a97da319e726bc9998a55c6d4cc3d50c03b173798cd34a0a189adc92e1eb82b4a99f74217321e82587869f7ee8cce9c9e84474a76e463ba4e8eba90584e6e10e322cd21eff7fa406a4fccf568fcaf5e816a9afa8ddacf9bfd08482090854b00a49822fda5f898095500e35d3194bc004e6ca02dbf07522eb39205a247882e441a37f630a959439c8e7e62b59c95a2ed3784ee5a93590b0a94566426a69e35511b133e0c44f586b117dc9d89d0169481854abd55d98d97999caed4101d49ff5053835c2077002b9b0bcccad43eba8efc8beb91228ee7bd4640526a601b6579f8889c443f047f2192ac512d6ae36ffbc460866ea227b07b516be1856a2ad5cc036ab948d1b087c99bb6dd244596f59d5407616126f6bdec6906520bfd2b305849151f9f112ceb1bd0632cf4a5027cd9418d657c12a9ee474f68658c5c48e3c3339ac6a610eda0fad2bed135704a4e9aef529a41c9f63492afb7418db1d4f5709854679f0d05afdf7feb89cb617776bf0b03c122f12632d05636d4409c3f7e8d5f52d8203a8413bb478e19c8384961494c1ff740b633f6ba0c49d27a599243ab7d135c0faaa7ba5daeeb7d3747adcaf8a27e74bf5461917699ef7d11e0e568cff8d358a7466650f1b0e229a82454f5ad82e28d52ef9b1ce091f555d4a9487b245e430e22c13ead6fdc605b62df1d7a8e950786c2a4f1720bc0bcef9e68d96d8e37cc33150f43e832b9d67ce29f1c439c1c1584d638eab8ce8ba672206920a38070ee885ce073bdcfb6f3bca97f700fe26ebbeae41f175d9f27c5456871161ce6fec7484eb35f6444cf998c1a6f30cdd2b7077a0e61f39119b9ff770ba6f225c07c2fd72594f4f60db315f02d0875657491149f56a9920e91496c70a359750ae991127df0f6e75f3cc134e00b341b44140cf0e931a6cca49be263f6139c8d95ef64345f1c50ce5a7191bd3382e6c0ebab12f9390e70c06190791b5c13fce850f050addc89181fcf2573e60c6d6c58b6454cace416e9a8d6c0de7f4148180b363886f292f3c64c7570a8c388ac5c7607cc8fefccfd1cd37ad988a4c2e4c912d52f85fa722266cfccd14e37bdd38467cf6524bf1b4e1a43f0d13032cf7c1d01c0d93e1746706cfb8d525dd4fc2fa35f58e0a3961ceb3967a3970120fcde79ae9400f1205ac23e4919d5134b"
      ],
      "sequence": 4294967294
    }
  ],
  "vout": [
    {
      "value": 499982.7127,
      "n": 0,
      "scriptPubKey": {
        "asm": "1 58d0f6fdc718007434398824143213f17bc926c2dd29525108771c211055cdd3",
        "hex": "512058d0f6fdc718007434398824143213f17bc926c2dd29525108771c211055cdd3",
        "reqSigs": 1,
        "type": "witness_v1_scripthash",
        "addresses": [
          "3QJmnh"
        ]
      }
    },
    {
      "value": 1.0,
      "n": 1,
      "scriptPubKey": {
        "asm": "OP_RETURN b56b12fa46c684a7f591d86ec5beee3f2c328955d332159504cd4a34a345c889 3f297f5d06a28f39adcf48365d5e7246d45a254835372f5946d1e8264dce9d9c1f095f7d2682af198def68167d7e5266f47a056815170f7966f1c8066deebdbc7f693f1d46e2cf79ed8f08761d1e3206941a650875776f190691a8660d8edddc5f491f3d66c2ef59cdaf28563d3e1226b43a452855574f3926b188462daefdfcbfa9ffdd86220fb92d4fc8b6dddef2c654daa5c8b5b7afd9c65168a6cd4e1d1c9f89dffda6022f990d6fe896fdfed2e674fa85e895978ff9e6714886ed6e3d3cffe9bf9dc6624ff96d0f88f69d9eb286149ae588f5f7ef99861128e68d0e5d5cdfc99fbde6426fd94d2fa8d6bdbe92a634bac5a8d5d7cfb9a63108c6ad2e7d7c3f297f5d06a28f39adcf48365d5e7246d45a254835372f5946d1e8264dce9d9c1f095f7d2682af198def68167d7e5266f47a056815170f7966f1c8066deebdbc7f693f1d46e2cf79ed8f08761d1e3206941a650875776f190691a8660d8edddc5f491f3d66c2ef59cdaf28563d3e1226b43a452855574f3926b188462daefdfcbfa9ffdd86220fb92d4fc8b6dddef2c654daa5c8b5b7afd9c65168a6cd4e1d1c9f89dffda6022f990d6fe896fdfed2e674fa85e895978ff9e6714886ed6e3d3cffe9bf9dc6624ff96d0f88f69d9eb286149ae588f5f7ef99861128e68d0e5d5cdfc99fbde6426fd94d2fa8d6bdbe92a634bac5a8d5d7cfb9a63108c6ad2e7d7c3f297f5d06a28f39adcf48365d5e7246d45a254835372f5946d1e8264dce9d9c1f095f7d2682af198def68167d7e5266f47a056815170f7966f1c8066deebdbc7f693f1d46e2cf79ed8f08761d1e3206941a650875776f190691a8660d8edddc5f491f3d66c2ef59cdaf28563d3e1226b43a452855574f3926b188462daefdfcbfa9ffdd86220fb92d4fc8b6dddef2c654daa5c8b5b7afd9c65168a6cd4e1d1c9f89dffda6022f990d6fe896fdfed2e674fa85e895978ff9e6714886ed6e3d3cffe9bf9dc6624ff96d0f88f69d9eb286149ae588f5f7ef99861128e68d0e5d5cdfc99fbde6426fd94d2fa8d6bdbe92a634bac5a8d5d7cfb9a63108c6ad2e7d7c3f297f5d06a28f39adcf48365d5e7246d45a254835372f5946d1e8264dce9d9c1f095f7d2682af198def68167d7e5266f47a056815170f7966f1c8066deebdbc7f693f1d46e2cf79ed8f08761d1e3206941a650875776f190691a8660d8edddc5f491f3d66c2ef59cdaf28563d3e1226b43a452855574f3926b188462daefdfcbfa9ffdd86220fb92d4fc8b6dddef2c654daa5c8b5b7afd9c65168a6cd4e1d1c9f89dffda6022f990d6fe896fdfed2e674fa85e895978ff9e6714886ed6e3d3cffe9bf9dc6624ff96d0f88f69d9eb286149ae588f5f7ef99861128e68d0e5d5cdfc99fbde6426fd94d2fa8d6bdbe92a634bac5a8d5d7cfb9a63108c6ad2e7d7c3f297f5d06a28f39adcf48365d5e7246d45a254835372f5946d1e8264dce9d9c1f095f7d2682af198def68167d7e5266f47a056815170f7966f1c8066deebdbc7f693f1d46e2cf79ed8f08761d1e3206941a650875776f190691a8660d8edddc5f491f3d66c2ef59cdaf28563d3e1226b43a452855574f3926b188462daefdfcbfa9ffdd86220fb92d4fc8b6dddef2c6c3f9eab998d90cc53213a60c8d471585615949d60cff9b233ddd6dfcf6ca1d98",
        "hex": "6a20b56b12fa46c684a7f591d86ec5beee3f2c328955d332159504cd4a34a345c8894db0043f297f5d06a28f39adcf48365d5e7246d45a254835372f5946d1e8264dce9d9c1f095f7d2682af198def68167d7e5266f47a056815170f7966f1c8066deebdbc7f693f1d46e2cf79ed8f08761d1e3206941a650875776f190691a8660d8edddc5f491f3d66c2ef59cdaf28563d3e1226b43a452855574f3926b188462daefdfcbfa9ffdd86220fb92d4fc8b6dddef2c654daa5c8b5b7afd9c65168a6cd4e1d1c9f89dffda6022f990d6fe896fdfed2e674fa85e895978ff9e6714886ed6e3d3cffe9bf9dc6624ff96d0f88f69d9eb286149ae588f5f7ef99861128e68d0e5d5cdfc99fbde6426fd94d2fa8d6bdbe92a634bac5a8d5d7cfb9a63108c6ad2e7d7c3f297f5d06a28f39adcf48365d5e7246d45a254835372f5946d1e8264dce9d9c1f095f7d2682af198def68167d7e5266f47a056815170f7966f1c8066deebdbc7f693f1d46e2cf79ed8f08761d1e3206941a650875776f190691a8660d8edddc5f491f3d66c2ef59cdaf28563d3e1226b43a452855574f3926b188462daefdfcbfa9ffdd86220fb92d4fc8b6dddef2c654daa5c8b5b7afd9c65168a6cd4e1d1c9f89dffda6022f990d6fe896fdfed2e674fa85e895978ff9e6714886ed6e3d3cffe9bf9dc6624ff96d0f88f69d9eb286149ae588f5f7ef99861128e68d0e5d5cdfc99fbde6426fd94d2fa8d6bdbe92a634bac5a8d5d7cfb9a63108c6ad2e7d7c3f297f5d06a28f39adcf48365d5e7246d45a254835372f5946d1e8264dce9d9c1f095f7d2682af198def68167d7e5266f47a056815170f7966f1c8066deebdbc7f693f1d46e2cf79ed8f08761d1e3206941a650875776f190691a8660d8edddc5f491f3d66c2ef59cdaf28563d3e1226b43a452855574f3926b188462daefdfcbfa9ffdd86220fb92d4fc8b6dddef2c654daa5c8b5b7afd9c65168a6cd4e1d1c9f89dffda6022f990d6fe896fdfed2e674fa85e895978ff9e6714886ed6e3d3cffe9bf9dc6624ff96d0f88f69d9eb286149ae588f5f7ef99861128e68d0e5d5cdfc99fbde6426fd94d2fa8d6bdbe92a634bac5a8d5d7cfb9a63108c6ad2e7d7c3f297f5d06a28f39adcf48365d5e7246d45a254835372f5946d1e8264dce9d9c1f095f7d2682af198def68167d7e5266f47a056815170f7966f1c8066deebdbc7f693f1d46e2cf79ed8f08761d1e3206941a650875776f190691a8660d8edddc5f491f3d66c2ef59cdaf28563d3e1226b43a452855574f3926b188462daefdfcbfa9ffdd86220fb92d4fc8b6dddef2c654daa5c8b5b7afd9c65168a6cd4e1d1c9f89dffda6022f990d6fe896fdfed2e674fa85e895978ff9e6714886ed6e3d3cffe9bf9dc6624ff96d0f88f69d9eb286149ae588f5f7ef99861128e68d0e5d5cdfc99fbde6426fd94d2fa8d6bdbe92a634bac5a8d5d7cfb9a63108c6ad2e7d7c3f297f5d06a28f39adcf48365d5e7246d45a254835372f5946d1e8264dce9d9c1f095f7d2682af198def68167d7e5266f47a056815170f7966f1c8066deebdbc7f693f1d46e2cf79ed8f08761d1e3206941a650875776f190691a8660d8edddc5f491f3d66c2ef59cdaf28563d3e1226b43a452855574f3926b188462daefdfcbfa9ffdd86220fb92d4fc8b6dddef2c6c3f9eab998d90cc53213a60c8d471585615949d60cff9b233ddd6dfcf6ca1d98",
        "type": "nulldata"
      }
    }
  ],
  "blockhash": "b157fe5006ea74e3e2696296011f5383f171fa956e468cbbd84742f98a1af3af",
  "confirmations": 1,
  "time": 1764179051,
  "blocktime": 1764179051
}