{
  "hex": "010000000001015e06def9db139367dd31c4a55cf27542ff117c1e49a9ec2085d092b78fa67cc30100000000feffffff0200e1f50500000000fdd5046a20a7dd8aba74b24fd618d62eebeabbc2a28be7ecb14eff827b15be6da63aeda9b44db004801ee947194fbf1e0dbaf654af833e32db92ebf096b20d025e2b6f20eab20ebba03ec967396f9f3e2d9ad6748fa31e12fbb2cbd0b6922d227e0b4f00ca922e9bc05ea907590fff5e4dfab614efc37e729bd2abb0d6f24d421e6b2f60aaf24efbe07e8927792fdf7e6dda9634cfe35e52bbf28b90f6d26d623e4b0f408ad26edb009e69c799cf3f9e8d3a76d42f03beb25b126b7016328d82deabefa06a328e3b20be49e7b9ef1fbead1a56f40f239e927b324b503612ada2fe8bcf804a12ae1b40de2987d98f7fdecd7a36946f43fef21b522b305672cdc29eebafe02a72ce7b60fe09a7f9af5ffeed5a16b44f63ded23b720b107652ede2becb8fc00a52ee5b801ee947194fbf1e0dbaf654af833e32db92ebf096b20d025e2b6f20eab20ebba03ec967396f9f3e2d9ad6748fa31e12fbb2cbd0b6922d227e0b4f00ca922e9bc05ea907590fff5e4dfab614efc37e729bd2abb0d6f24d421e6b2f60aaf24efbe07e8927792fdf7e6dda9634cfe35e52bbf28b90f6d26d623e4b0f408ad26edb009e69c799cf3f9e8d3a76d42f03beb25b126b7016328d82deabefa06a328e3b20be49e7b9ef1fbead1a56f40f239e927b324b503612ada2fe8bcf804a12ae1b40de2987d98f7fdecd7a36946f43fef21b522b305672cdc29eebafe02a72ce7b60fe09a7f9af5ffeed5a16b44f63ded23b720b107652ede2becb8fc00a52ee5b801ee947194fbf1e0dbaf654af833e32db92ebf096b20d025e2b6f20eab20ebba03ec967396f9f3e2d9ad6748fa31e12fbb2cbd0b6922d227e0b4f00ca922e9bc05ea907590fff5e4dfab614efc37e729bd2abb0d6f24d421e6b2f60aaf24efbe07e8927792fdf7e6dda9634cfe35e52bbf28b90f6d26d623e4b0f408ad26edb009e69c799cf3f9e8d3a76d42f03beb25b126b7016328d82deabefa06a328e3b20be49e7b9ef1fbead1a56f40f239e927b324b503612ada2fe8bcf804a12ae1b40de2987d98f7fdecd7a36946f43fef21b522b305672cdc29eebafe02a72ce7b60fe09a7f9af5ffeed5a16b44f63ded23b720b107652ede2becb8fc00a52ee5b801ee947194fbf1e0dbaf654af833e32db92ebf096b20d025e2b6f20eab20ebba03ec967396f9f3e2d9ad6748fa31e12fbb2cbd0b6922d227e0b4f00ca922e9bc05ea907590fff5e4dfab614efc37e729bd2abb0d6f24d421e6b2f60aaf24efbe07e8927792fdf7e6dda9634cfe35e52bbf28b90f6d26d623e4b0f408ad26edb009e69c799cf3f9e8d3a76d42f03beb25b126b7016328d82deabefa06a328e3b20be49e7b9ef1fbead1a56f40f239e927b324b503612ada2fe8bcf804a12ae1b40de2987d98f7fdecd7a36946f43fef21b522b305672cdc29eebafe02a72ce7b60fe09a7f9af5ffeed5a16b44f63ded23b720b107652ede2becb8fc00a52ee5b801ee947194fbf1e0dbaf654af833e32db92ebf096b20d025e2b6f20eab20ebba03ec967396f9f3e2d9ad6748fa31e12fbb2cbd0b6922d227e0b4f00ca922e9bc05ea907590fff5e4dfab614efc37e729bd2abb0d6f24d421e6b2f60aaf24efbe07e8927792fdf7e6dda9634cfe35e52bbf28b90f6d26d623e4b0f408ad26edb009e69c799cf3f9e8d3a76d42f03beb21408e777f5b6a9dacdc1340e75b027bb1204df2ae83e36bf6d6c384a588448a0f020b051792d0000225120ce7947817bca286fa7285f2d13fe699df2424f9b3c7ac80ad3dbc612354d065602fd7509f70949554f90509b5a867c49e30804719caa2b4d7abdeedf94bda508da42c2202e8129b891c9ab4637519a9de6f43494a6feff96ef19475222cc8b117dfbe7cf04bc07a0e9bc42a2e167fe8dbae73b4998f712b0305192ef02ad19bf6c50c647468374bee869d2c2581e732cf1b93f6b3bc02c428e201865b83e2f29ea2cddae5f2277bdbdbba1bd8505e600765f30be9b689481f42ff7b69683746b04219feca036cc0b80362b4b5c40f2eaa434d20484242495c5b483a1f1e73041c45e705cb1b14503a58ea374a6d3ef59d3e8e8dd27cc61b6de68e3a86b8324ae52383604b70660c24a2eae2ad4580437bb77775bd3848b57422f71f41253abf56940217f794a10c61f1ebfabd76cad4c5315b1b1e7099c3ae0023148b8bb8ab0d4f762e8a43b1ce0fd71a3da1a5e46e7d7bbec9d7a41cc4f34fc3c79aa8e3cf4e119158dbd05ee3529da64a0ef083d45c7f3c864eda37f1ca57c9eae9f27daf25bd83af283b04e6180b5174d334241485909600ad273b0e54d4d55db0be0af50bbab0d877344aef1a985b7db350a1a57437f6132e6c2449ccd9d2c90f184c9c04e53b68da2e5c109e81146372db02338d6c901e3ac2f036174c17eb2f6ed2973124387fdd029b762659b3f4aa469aaa331c9f960eff8900e7587d236a77eaa38d1d2458820ede24ddf16d2979dd38f7f523ac799d55f023d0b2e9b7f1a4c66178cd299e5941c97d928b6845196e291d3fbc533f97c5bbe3ededb1a55cea16e9fe211b0f383f8507d12bf3d733c69afbec1ba74ecce21c99c03f2a0e19ac9a396c4ba51ec221cde0a17594b2481a6b5c674d4382e5010c1560c3230847ce02f8169fab243ba9ee380bce98b113558476b1baef28b7b1d37d0880604f243a3b703e33263cf2398f29c4e865a720116a9cf85807d8e55a8ac42195f1b79b6e8f616582edfb8d432a6633e464fb03f9ef97c6fb68adea9599a6219229fc13ab1f9d163d8cf5b295b068e92cfd2e88827bdb8b605601a5e9e1fa91848b6c87486ae0dacb09c590433acc753a05d1f73939f9067d048c794d72197810ee4fff54997eb138e208f38313b3e13e1f8edfb66b222accebf0201dcabd1ba60e79c95eb1f35d3bc3128ccb0f8ee5644f05f89fc68358c373b92f7c3b961e62f65f7901d53cd2f7f8c1db6cc1a9bfceca3e25a437aef11fb2605998833f5670cb3fca314dcd3548c502c1a16e31bdcf8023c118f7a5bbf28ca69122fd1951ff740b30863c6d19b6f0224c27f78f42d927b9dd3a64a9454b95eb1ac5420a4b4607dc16c7d6f2619490deecc2e19cf3531a52d923ab265e8c46892b0ef1985f0de0dc6015ba688202c0f44a7297b0f88494e3c80b5a35c58cedba90421ec433ac3993e6b6672250b8b80beec74d29df2128bf2692c5290d1bc165163156853d934360d167469a2524023d44cd4f8b73394707ecb0266a9bc45f8d6ed0e548beb3ad92e542f628e426a019f3051a50029873695a64fab6151ee41f4e0073c6eb8fd1258b61c716d7463119a99457b44ee80b24f04d3f9ab4abf497a7a10ae9c59ee32200892270583ae4c0f0e7a3d3f33a94ad80c089021a13d87d24af873b72c6d6c996d378fa6d66b00ebf22b4ec24b72d1114e6dcaf51d2c670fffd3ae8fc38f09895c71acfbfa5170c4f0f50e4db948c7be8176e790d48cc6c85c310fe3ab362596e2c8f42082484e2b04eabba546f5c09e8c14b7439934d83922449036f5afea30eec88a5cddb9733a31f0e21253d10035606c24b9eb9e15c9cf7b74dff1e0553f4e28f29a59f822b8a9cd90be1c35ec8542469031fc5dc03ded24eda26e3e17282c7921811efcd8ac73dd633c5d5cdc2f3c4ea65e5a51fe328e3b75d1d122a39e59fea021dc881955dee79534ab15aa5af7c626609004460ae465a010405637ee86a9658bf2b6382a5e7b71c5f8640dff3fd4fa3b2ceac47e5f72e39a226b102144438590854843081ec7f025e4c5976fd56902b815e7b8f0ea9588839f57a1d0f776b85e283244616dfb55c012f38ec56c5fb7c00604b395c3747462b0e0dd1cb1cf6aef45f54c576f76a492d17c066a99d9c5dae15d7a585c08d99a7855ac24b3806bde985b823aacd60f7db453d9abb3127b15e6d2c071542ec3e4025b5ed9bc28e3c4ce23c1a195e689b530a4c650067567396466708d862654ab497223b9147df3c1c0e727583360e0f6f40fcac763949d9416dc6dc98dbe901c44421ab0a4b2b1089955e682f2be75ae3713c091babdec9ce9fe0e2692fbafb7fb12d0ed909cb1ff9fd6ccdfd0afba8f7180b0b06bb87333c3e6dc057c7f53716b92b80358aa1b89965a55bd1f2860a2cbc6090b694e4511b459d60bcc7fe946d4317ba959b1b6fba35ebfc037c8fe452c785cb31bb4bc4440e212f107c47b857343fd3afdb2c0ce1f67783d0eaeba8ef393bf6a787d7ac7929e6c429a36b43eec620ab7746e09bf9830a4c0cffa458fc4c0b4f5e25cc8f21a3a70a270eb032bdf505518592c576c586a75f02e5d02b1ea4ac5ec733c51d70b73a2fc90eba1886eef9fde5bb8d1f736d8b831eb4d57ead0cd305326db37ad51a82d82fd0c2a3ddec5fd41b4207d30978f08b45ea175f96b1d8230b83c372e6bf4dab94fc45ba017d67884ebc65436ee735b95eac35ad4859061e4910e35238376606693ba676abc9b1b6d13cfd2f5e93f14b02fb65ae172dd3592be585179a3f62decc53845d394990d5b203ea460d4d342d5e62cae34195288afb48e4aca2f6bf8595e34a2b8f64ff36a8ca7a71ead7ed72e21b554d0274257972de974b9a6668d3137ee620e7a1b09c692bd8b735b1f6fea1a762207eb39159b4e07b901d1e3bca620a111a211d715502492c3fba4846b697890086583929aa6c90fcbb7187d70d77d54a006e6cd71f77b3a8c083ab35ddef93ec3a9e4fa0495c850e02d80d049b2ffec0033e6fc086ceea16d052bfade451694291168b676992db5c8a05b46a7d1a84af4c4e47c9c3f12dc581685118bf2aa810935454d22bf904323125938065083a9c2f9829bf995e5f2053acf983dedb43c4d4bbd92f55204266813f9948f96d04b8389f4fb58dfdd78c589d2da00dec9c9fcbedf3b1f81b8435daeb3ba756dcd63e0a22319972c9868b025ff59cc369aba4fdbe7695d65b9b379c6f33dbd83ab21eab8744abcc93e787e6ae3e428048141edc5f085575718d80a152d595193172874260e244839e562fbb56dd1ebf18d033db1b4435f03ddc6577b8c1a0f41062613dc7a6dccbfd9dd2ca0251e0638175660658991b3b6c1cbcff9fd101f4a6d73757f839093b9c7d5ddde0d2f31364d5d727b8384b4c7d5f5fb090a21223242464b4f55585f77858dabb2d3e7f000000000000000000000000000000000000d1c2b3f01fd210500be83bcad3c984c4f2fe90e7d781592cfe185d03b4c3b2a85fade3c01973565b76fffc78b9089d1b439bfb8bb49ca26d747a8b1b1be332a82ea9ed3a0f4de5e192269dc9758d29c281bf2430c1401998b7e04d9df0f3570025a2989dab105839656812d4b32aedeb175a73fae68100c5f48cce9a945d3e4689bdd9089828b6f4761d9acbd7eb1a4f08eb0873056e5068434e68d990492e2d88675a42b5712a4bf6609c018a39e1d72d3f80769c6e689267758464f5128b7334e22ab9a18fccd9439464fd856c5287920dde68c8ca8793e5b6314cd3ef3a1fcbb6c853b0211eee98fb7f540c3ce23787bc53e1e3e42ef6fe5c4563006e74aa0251342d6218824fac3e489f781af1e3e54485a6a26e30952345d36eb361c93ba47c9ac389ffa3f309f1a4faace563e42150c1a5111b09d31e13824f7b02daa47263c57fc6ab63d44bc86259c71cf64553d477dd2c3ec664dd84906e0cb60f5f6a6cbffa785507e153bdf75c7bbc35be4248c2831807934ac0dbae39e565f95565f85b0348c647b46fe046d576e8ef9c29a4f004c1e4a50738cb6d3a62a1c4e763b6b040728470699941f89c5ce413a4332b7981a9a1fdd415fd776091ef7c81a1818bc4349624bd8d227901422c7aa648912001968c6023400231aacc75d824fbed46c0800f5d13025c43342a44a9becdbe55530586b7a578118dcc821a1f1266c6114f2d7393d7fc02cb7ea89672610c141de6d684f9a3cb5c97dc1b90bc0676fa60ff0a9adf4dabc99067bbc094ea88ab1a743ef50bc0a8d093bfe845e3c21deef3b28caf9614d4586b7f758733865497baaa598d0e4a31c4bbf8ebcfe6bd5ce7be0c3e4c29fb2b78491bc5fb114e7b48009d6078ee709297fe4cf4f1db4ccaf79d3613f6367c281e688d86fa75a5fe6e0c4e3c50a19e92379ceb97cf6b30844ec3225b64ff63c0f2302bd73b85ecfa49e2b755add49d5f68e8dcf50b44a4948e4e1d88d5c7eaa73c51dc8b970b6848d52bc360fb0ea5800cd2808d521537e031db82e3bb305c4511ab87d9d56cd235a293e1e4983691245862a5d92a77f0d3dae9a76488b281f437aa3e650b8d1e511e650086fa34e82476c82effbde6b8911d3a2836b5f7fb7abb874e876f96fa800dcb4173c4c1bb90f67354a27a5c198750dcfd43efffc48c4f6f48b1d4f7ea47f05b37a381619e23803145ab234c9013c8ee3379b47500df5e77a7cc1c2d639ed2e0d01f53193596cc35576cb60b52fde185e3746ed455b07d23bef2c4e33d47400ad4640fcd703b4c5ce3eeb338325d0d1e5ae209b9ec69c5072173bbd98cb0583688bf96e7b46ce77ab190dbad6a38c157b3943dfff3ebd72d06f3b98218e1f6826084ba743e139ba96143bb37028929f3434dd96f55342a9f39e181e0f862feb55d82728858789d633fda4d24acbc25865b7e070bbaaab095b5594c05b40943e7f56c34a3f7f060f9aee98610405e1c058d0d4bf359843f1774e200db30e4ebcdfb802cc230e08a2ae7eea28e04a2ebf045d67b56bd91d6f9e4eb9f4fbaf9f6619e3d15b19eb6e3afb367c45dc4b7415528baa5ad6cdbd16e8db1ddfa52ec7fb376c1e9ef553bf79b62e883ab1c587bc852ea4d5dcee0f6e032529f88a52f6d799e434c0a07fb7fb917bd397cbb3710fbaa060d870095fa2787f8470802267418dd706575fbce8dc59d68e24336ee9a70b41f041eddea6bfcae742d4a9411907d58f6fb8a2ff88b64da7471fa8788162e385febe81c32427e26812a1fd2c8614304a0255daab0732d9c56a743b9a6767115e243750dfecc26577885a174c52d3558394f013ac69654e0e4fea5a93f0a4d0169b8e76fb19000000",
  "txid": "31cf49ac2f136b8e309b285f37ec7f85d4ed8b4a40ce27e9360890be2962a522",
  "hash": "a00e9638293c10f840d4f7da4c326c1590593c9b2dcb688c2a60fc32041a20e3",
  "size": 5085,
  "vsize": 2278,
  "version": 1,
  "locktime": 25,
  "vin": [
    {
      "txid": "c37ca68fb792d08520eca9491e7c11ff4275f25ca5c431dd679313dbf9de065e",
      "vout": 1,
      "scriptSig": {
        "asm": "",
        "hex": ""
      },
      "txinwitness": [
        "f70949554f90509b5a867c49e30804719caa2b4d7abdeedf94bda508da42c2202e8129b891c9ab4637519a9de6f43494a6feff96ef19475222cc8b117dfbe7cf04bc07a0e9bc42a2e167fe8dbae73b4998f712b0305192ef02ad19bf6c50c647468374bee869d2c2581e732cf1b93f6b3bc02c428e201865b83e2f29ea2cddae5f2277bdbdbba1bd8505e600765f30be9b689481f42ff7b69683746b04219feca036cc0b80362b4b5c40f2eaa434d20484242495c5b483a1f1e73041c45e705cb1b14503a58ea374a6d3ef59d3e8e8dd27cc61b6de68e3a86b8324ae52383604b70660c24a2eae2ad4580437bb77775bd3848b57422f71f41253abf56940217f794a10c61f1ebfabd76cad4c5315b1b1e7099c3ae0023148b8bb8ab0d4f762e8a43b1ce0fd71a3da1a5e46e7d7bbec9d7a41cc4f34fc3c79aa8e3cf4e119158dbd05ee3529da64a0ef083d45c7f3c864eda37f1ca57c9eae9f27daf25bd83af283b04e6180b5174d334241485909600ad273b0e54d4d55db0be0af50bbab0d877344aef1a985b7db350a1a57437f6132e6c2449ccd9d2c90f184c9c04e53b68da2e5c109e81146372db02338d6c901e3ac2f036174c17eb2f6ed2973124387fdd029b762659b3f4aa469aaa331c9f960eff8900e7587d236a77eaa38d1d2458820ede24ddf16d2979dd38f7f523ac799d55f023d0b2e9b7f1a4c66178cd299e5941c97d928b6845196e291d3fbc533f97c5bbe3ededb1a55cea16e9fe211b0f383f8507d12bf3d733c69afbec1ba74ecce21c99c03f2a0e19ac9a396c4ba51ec221cde0a17594b2481a6b5c674d4382e5010c1560c3230847ce02f8169fab243ba9ee380bce98b113558476b1baef28b7b1d37d0880604f243a3b703e33263cf2398f29c4e865a720116a9cf85807d8e55a8ac42195f1b79b6e8f616582edfb8d432a6633e464fb03f9ef97c6fb68adea9599a6219229fc13ab1f9d163d8cf5b295b068e92cfd2e88827bdb8b605601a5e9e1fa91848b6c87486ae0dacb09c590433acc753a05d1f73939f9067d048c794d72197810ee4fff54997eb138e208f38313b3e13e1f8edfb66b222accebf0201dcabd1ba60e79c95eb1f35d3bc3128ccb0f8ee5644f05f89fc68358c373b92f7c3b961e62f65f7901d53cd2f7f8c1db6cc1a9bfceca3e25a437aef11fb2605998833f5670cb3fca314dcd3548c502c1a16e31bdcf8023c118f7a5bbf28ca69122fd1951ff740b30863c6d19b6f0224c27f78f42d927b9dd3a64a9454b95eb1ac5420a4b4607dc16c7d6f2619490deecc2e19cf3531a52d923ab265e8c46892b0ef1985f0de0dc6015ba688202c0f44a7297b0f88494e3c80b5a35c58cedba90421ec433ac3993e6b6672250b8b80beec74d29df2128bf2692c5290d1bc165163156853d934360d167469a2524023d44cd4f8b73394707ecb0266a9bc45f8d6ed0e548beb3ad92e542f628e426a019f3051a50029873695a64fab6151ee41f4e0073c6eb8fd1258b61c716d7463119a99457b44ee80b24f04d3f9ab4abf497a7a10ae9c59ee32200892270583ae4c0f0e7a3d3f33a94ad80c089021a13d87d24af873b72c6d6c996d378fa6d66b00ebf22b4ec24b72d1114e6dcaf51d2c670fffd3ae8fc38f09895c71acfbfa5170c4f0f50e4db948c7be8176e790d48cc6c85c310fe3ab362596e2c8f42082484e2b04eabba546f5c09e8c14b7439934d83922449036f5afea30eec88a5cddb9733a31f0e21253d10035606c24b9eb9e15c9cf7b74dff1e0553f4e28f29a59f822b8a9cd90be1c35ec8542469031fc5dc03ded24eda26e3e17282c7921811efcd8ac73dd633c5d5cdc2f3c4ea65e5a51fe328e3b75d1d122a39e59fea021dc881955dee79534ab15aa5af7c626609004460ae465a010405637ee86a9658bf2b6382a5e7b71c5f8640dff3fd4fa3b2ceac47e5f72e39a226b102144438590854843081ec7f025e4c5976fd56902b815e7b8f0ea9588839f57a1d0f776b85e283244616dfb55c012f38ec56c5fb7c00604b395c3747462b0e0dd1cb1cf6aef45f54c576f76a492d17c066a99d9c5dae15d7a585c08d99a7855ac24b3806bde985b823aacd60f7db453d9abb3127b15e6d2c071542ec3e4025b5ed9bc28e3c4ce23c1a195e689b530a4c650067567396466708d862654ab497223b9147df3c1c0e727583360e0f6f40fcac763949d9416dc6dc98dbe901c44421ab0a4b2b1089955e682f2be75ae3713c091babdec9ce9fe0e2692fbafb7fb12d0ed909cb1ff9fd6ccdfd0afba8f7180b0b06bb87333c3e6dc057c7f53716b92b80358aa1b89965a55bd1f2860a2cbc6090b694e4511b459d60bcc7fe946d4317ba959b1b6fba35ebfc037c8fe452c785cb31bb4bc4440e212f107c47b857343fd3afdb2c0ce1f67783d0eaeba8ef393bf6a787d7ac7929e6c429a36b43eec620ab7746e09bf9830a4c0cffa458fc4c0b4f5e25cc8f21a3a70a270eb032bdf505518592c576c586a75f02e5d02b1ea4ac5ec733c51d70b73a2fc90eba1886eef9fde5bb8d1f736d8b831eb4d57ead0cd305326db37ad51a82d82fd0c2a3ddec5fd41b4207d30978f08b45ea175f96b1d8230b83c372e6bf4dab94fc45ba017d67884ebc65436ee735b95eac35ad4859061e4910e35238376606693ba676abc9b1b6d13cfd2f5e93f14b02fb65ae172dd3592be585179a3f62decc53845d394990d5b203ea460d4d342d5e62cae34195288afb48e4aca2f6bf8595e34a2b8f64ff36a8ca7a71ead7ed72e21b554d0274257972de974b9a6668d3137ee620e7a1b09c692bd8b735b1f6fea1a762207eb39159b4e07b901d1e3bca620a111a211d715502492c3fba4846b697890086583929aa6c90fcbb7187d70d77d54a006e6cd71f77b3a8c083ab35ddef93ec3a9e4fa0495c850e02d80d049b2ffec0033e6fc086ceea16d052bfade451694291168b676992db5c8a05b46a7d1a84af4c4e47c9c3f12dc581685118bf2aa810935454d22bf904323125938065083a9c2f9829bf995e5f2053acf983dedb43c4d4bbd92f55204266813f9948f96d04b8389f4fb58dfdd78c589d2da00dec9c9fcbedf3b1f81b8435daeb3ba756dcd63e0a22319972c9868b025ff59cc369aba4fdbe7695d65b9b379c6f33dbd83ab21eab8744abcc93e787e6ae3e428048141edc5f085575718d80a152d595193172874260e244839e562fbb56dd1ebf18d033db1b4435f03ddc6577b8c1a0f41062613dc7a6dccbfd9dd2ca0251e0638175660658991b3b6c1cbcff9fd101f4a6d73757f839093b9c7d5ddde0d2f31364d5d727b8384b4c7d5f5fb090a21223242464b4f55585f77858dabb2d3e7f000000000000000000000000000000000000d1c2b3f01",
        "00be83bcad3c984c4f2fe90e7d781592cfe185d03b4c3b2a85fade3c01973565b76fffc78b9089d1b439bfb8bb49ca26d747a8b1b1be332a82ea9ed3a0f4de5e192269dc9758d29c281bf2430c1401998b7e04d9df0f3570025a2989dab105839656812d4b32aedeb175a73fae68100c5f48cce9a945d3e4689bdd9089828b6f4761d9acbd7eb1a4f08eb0873056e5068434e68d990492e2d88675a42b5712a4bf6609c018a39e1d72d3f80769c6e689267758464f5128b7334e22ab9a18fccd9439464fd856c5287920dde68c8ca8793e5b6314cd3ef3a1fcbb6c853b0211eee98fb7f540c3ce23787bc53e1e3e42ef6fe5c4563006e74aa0251342d6218824fac3e489f781af1e3e54485a6a26e30952345d36eb361c93ba47c9ac389ffa3f309f1a4faace563e42150c1a5111b09d31e13824f7b02daa47263c57fc6ab63d44bc86259c71cf64553d477dd2c3ec664dd84906e0cb60f5f6a6cbffa785507e153bdf75c7bbc35be4248c2831807934ac0dbae39e565f95565f85b0348c647b46fe046d576e8ef9c29a4f004c1e4a50738cb6d3a62a1c4e763b6b040728470699941f89c5ce413a4332b7981a9a1fdd415fd776091ef7c81a1818bc4349624bd8d227901422c7aa648912001968c6023400231aacc75d824fbed46c0800f5d13025c43342a44a9becdbe55530586b7a578118dcc821a1f1266c6114f2d7393d7fc02cb7ea89672610c141de6d684f9a3cb5c97dc1b90bc0676fa60ff0a9adf4dabc99067bbc094ea88ab1a743ef50bc0a8d093bfe845e3c21deef3b28caf9614d4586b7f758733865497baaa598d0e4a31c4bbf8ebcfe6bd5ce7be0c3e4c29fb2b78491bc5fb114e7b48009d6078ee709297fe4cf4f1db4ccaf79d3613f6367c281e688d86fa75a5fe6e0c4e3c50a19e92379ceb97cf6b30844ec3225b64ff63c0f2302bd73b85ecfa49e2b755add49d5f68e8dcf50b44a4948e4e1d88d5c7eaa73c51dc8b970b6848d52bc360fb0ea5800cd2808d521537e031db82e3bb305c4511ab87d9d56cd235a293e1e4983691245862a5d92a77f0d3dae9a76488b281f437aa3e650b8d1e511e650086fa34e82476c82effbde6b8911d3a2836b5f7fb7abb874e876f96fa800dcb4173c4c1bb90f67354a27a5c198750dcfd43efffc48c4f6f48b1d4f7ea47f05b37a381619e23803145ab234c9013c8ee3379b47500df5e77a7cc1c2d639ed2e0d01f53193596cc35576cb60b52fde185e3746ed455b07d23bef2c4e33d47400ad4640fcd703b4c5ce3eeb338325d0d1e5ae209b9ec69c5072173bbd98cb0583688bf96e7b46ce77ab190dbad6a38c157b3943dfff3ebd72d06f3b98218e1f6826084ba743e139ba96143bb37028929f3434dd96f55342a9f39e181e0f862feb55d82728858789d633fda4d24acbc25865b7e070bbaaab095b5594c05b40943e7f56c34a3f7f060f9aee98610405e1c058d0d4bf359843f1774e200db30e4ebcdfb802cc230e08a2ae7eea28e04a2ebf045d67b56bd91d6f9e4eb9f4fbaf9f6619e3d15b19eb6e3afb367c45dc4b7415528baa5ad6cdbd16e8db1ddfa52ec7fb376c1e9ef553bf79b62e883ab1c587bc852ea4d5dcee0f6e032529f88a52f6d799e434c0a07fb7fb917bd397cbb3710fbaa060d870095fa2787f8470802267418dd706575fbce8dc59d68e24336ee9a70b41f041eddea6bfcae742d4a9411907d58f6fb8a2ff88b64da7471fa8788162e385febe81c32427e26812a1fd2c8614304a0255daab0732d9c56a743b9a6767115e243750dfecc26577885a174c52d3558394f013ac69654e0e4fea5a93f0a4d0169b8e76fb"
      ],
      "sequence": 4294967294
    }
  ],
  "vout": [
    {
      "value": 1.0,
      "n": 0,
      "scriptPubKey": {
        "asm": "OP_RETURN a7dd8aba74b24fd618d62eebeabbc2a28be7ecb14eff827b15be6da63aeda9b4 801ee947194fbf1e0dbaf654af833e32db92ebf096b20d025e2b6f20eab20ebba03ec967396f9f3e2d9ad6748fa31e12fbb2cbd0b6922d227e0b4f00ca922e9bc05ea907590fff5e4dfab614efc37e729bd2abb0d6f24d421e6b2f60aaf24efbe07e8927792fdf7e6dda9634cfe35e52bbf28b90f6d26d623e4b0f408ad26edb009e69c799cf3f9e8d3a76d42f03beb25b126b7016328d82deabefa06a328e3b20be49e7b9ef1fbead1a56f40f239e927b324b503612ada2fe8bcf804a12ae1b40de2987d98f7fdecd7a36946f43fef21b522b305672cdc29eebafe02a72ce7b60fe09a7f9af5ffeed5a16b44f63ded23b720b107652ede2becb8fc00a52ee5b801ee947194fbf1e0dbaf654af833e32db92ebf096b20d025e2b6f20eab20ebba03ec967396f9f3e2d9ad6748fa31e12fbb2cbd0b6922d227e0b4f00ca922e9bc05ea907590fff5e4dfab614efc37e729bd2abb0d6f24d421e6b2f60aaf24efbe07e8927792fdf7e6dda9634cfe35e52bbf28b90f6d26d623e4b0f408ad26edb009e69c799cf3f9e8d3a76d42f03beb25b126b7016328d82deabefa06a328e3b20be49e7b9ef1fbead1a56f40f239e927b324b503612ada2fe8bcf804a12ae1b40de2987d98f7fdecd7a36946f43fef21b522b305672cdc29eebafe02a72ce7b60fe09a7f9af5ffeed5a16b44f63ded23b720b107652ede2becb8fc00a52ee5b801ee947194fbf1e0dbaf654af833e32db92ebf096b20d025e2b6f20eab20ebba03ec967396f9f3e2d9ad6748fa31e12fbb2cbd0b6922d227e0b4f00ca922e9bc05ea907590fff5e4dfab614efc37e729bd2abb0d6f24d421e6b2f60aaf24efbe07e8927792fdf7e6dda9634cfe35e52bbf28b90f6d26d623e4b0f408ad26edb009e69c799cf3f9e8d3a76d42f03beb25b126b7016328d82deabefa06a328e3b20be49e7b9ef1fbead1a56f40f239e927b324b503612ada2fe8bcf804a12ae1b40de2987d98f7fdecd7a36946f43fef21b522b305672cdc29eebafe02a72ce7b60fe09a7f9af5ffeed5a16b44f63ded23b720b107652ede2becb8fc00a52ee5b801ee947194fbf1e0dbaf654af833e32db92ebf096b20d025e2b6f20eab20ebba03ec967396f9f3e2d9ad6748fa31e12fbb2cbd0b6922d227e0b4f00ca922e9bc05ea907590fff5e4dfab614efc37e729bd2abb0d6f24d421e6b2f60aaf24efbe07e8927792fdf7e6dda9634cfe35e52bbf28b90f6d26d623e4b0f408ad26edb009e69c799cf3f9e8d3a76d42f03beb25b126b7016328d82deabefa06a328e3b20be49e7b9ef1fbead1a56f40f239e927b324b503612ada2fe8bcf804a12ae1b40de2987d98f7fdecd7a36946f43fef21b522b305672cdc29eebafe02a72ce7b60fe09a7f9af5ffeed5a16b44f63ded23b720b107652ede2becb8fc00a52ee5b801ee947194fbf1e0dbaf654af833e32db92ebf096b20d025e2b6f20eab20ebba03ec967396f9f3e2d9ad6748fa31e12fbb2cbd0b6922d227e0b4f00ca922e9bc05ea907590fff5e4dfab614efc37e729bd2abb0d6f24d421e6b2f60aaf24efbe07e8927792fdf7e6dda9634cfe35e52bbf28b90f6d26d623e4b0f408ad26edb009e69c799cf3f9e8d3a76d42f03beb21408e777f5b6a9dacdc1340e75b027bb1204df2ae83e36bf6d6c384a588448a0",
        "hex": "6a20a7dd8aba74b24fd618d62eebeabbc2a28be7ecb14eff827b15be6da63aeda9b44db004801ee947194fbf1e0dbaf654af833e32db92ebf096b20d025e2b6f20eab20ebba03ec967396f9f3e2d9ad6748fa31e12fbb2cbd0b6922d227e0b4f00ca922e9bc05ea907590fff5e4dfab614efc37e729bd2abb0d6f24d421e6b2f60aaf24efbe07e8927792fdf7e6dda9634cfe35e52bbf28b90f6d26d623e4b0f408ad26edb009e69c799cf3f9e8d3a76d42f03beb25b126b7016328d82deabefa06a328e3b20be49e7b9ef1fbead1a56f40f239e927b324b503612ada2fe8bcf804a12ae1b40de2987d98f7fdecd7a36946f43fef21b522b305672cdc29eebafe02a72ce7b60fe09a7f9af5ffeed5a16b44f63ded23b720b107652ede2becb8fc00a52ee5b801ee947194fbf1e0dbaf654af833e32db92ebf096b20d025e2b6f20eab20ebba03ec967396f9f3e2d9ad6748fa31e12fbb2cbd0b6922d227e0b4f00ca922e9bc05ea907590fff5e4dfab614efc37e729bd2abb0d6f24d421e6b2f60aaf24efbe07e8927792fdf7e6dda9634cfe35e52bbf28b90f6d26d623e4b0f408ad26edb009e69c799cf3f9e8d3a76d42f03beb25b126b7016328d82deabefa06a328e3b20be49e7b9ef1fbead1a56f40f239e927b324b503612ada2fe8bcf804a12ae1b40de2987d98f7fdecd7a36946f43fef21b522b305672cdc29eebafe02a72ce7b60fe09a7f9af5ffeed5a16b44f63ded23b720b107652ede2becb8fc00a52ee5b801ee947194fbf1e0dbaf654af833e32db92ebf096b20d025e2b6f20eab20ebba03ec967396f9f3e2d9ad6748fa31e12fbb2cbd0b6922d227e0b4f00ca922e9bc05ea907590fff5e4dfab614efc37e729bd2abb0d6f24d421e6b2f60aaf24efbe07e8927792fdf7e6dda9634cfe35e52bbf28b90f6d26d623e4b0f408ad26edb009e69c799cf3f9e8d3a76d42f03beb25b126b7016328d82deabefa06a328e3b20be49e7b9ef1fbead1a56f40f239e927b324b503612ada2fe8bcf804a12ae1b40de2987d98f7fdecd7a36946f43fef21b522b305672cdc29eebafe02a72ce7b60fe09a7f9af5ffeed5a16b44f63ded23b720b107652ede2becb8fc00a52ee5b801ee947194fbf1e0dbaf654af833e32db92ebf096b20d025e2b6f20eab20ebba03ec967396f9f3e2d9ad6748fa31e12fbb2cbd0b6922d227e0b4f00ca922e9bc05ea907590fff5e4dfab614efc37e729bd2abb0d6f24d421e6b2f60aaf24efbe07e8927792fdf7e6dda9634cfe35e52bbf28b90f6d26d623e4b0f408ad26edb009e69c799cf3f9e8d3a76d42f03beb25b126b7016328d82deabefa06a328e3b20be49e7b9ef1fbead1a56f40f239e927b324b503612ada2fe8bcf804a12ae1b40de2987d98f7fdecd7a36946f43fef21b522b305672cdc29eebafe02a72ce7b60fe09a7f9af5ffeed5a16b44f63ded23b720b107652ede2becb8fc00a52ee5b801ee947194fbf1e0dbaf654af833e32db92ebf096b20d025e2b6f20eab20ebba03ec967396f9f3e2d9ad6748fa31e12fbb2cbd0b6922d227e0b4f00ca922e9bc05ea907590fff5e4dfab614efc37e729bd2abb0d6f24d421e6b2f60aaf24efbe07e8927792fdf7e6dda9634cfe35e52bbf28b90f6d26d623e4b0f408ad26edb009e69c799cf3f9e8d3a76d42f03beb21408e777f5b6a9dacdc1340e75b027bb1204df2ae83e36bf6d6c384a588448a0",
        "type": "nulldata"
      }
    },
    {
      "value": 499990.8479,
      "n": 1,
      "scriptPubKey": {
        "asm": "1 ce7947817bca286fa7285f2d13fe699df2424f9b3c7ac80ad3dbc612354d0656",
        "hex": "5120ce7947817bca286fa7285f2d13fe699df2424f9b3c7ac80ad3dbc612354d0656",
        "reqSigs": 1,
        "type": "witness_v1_scripthash",
        "addresses": [
          "3QJmnh"
        ]
      }
    }
  ],
  "blockhash": "70f7ec20af3843e0d144de9ce3637c8baa62723aad58289fd59c71fdb9075fdf",
  "confirmations": 1,
  "time": 1764177228,
  "blocktime": 1764177228
}