{
  "hex": "01000000000101965586a329c863036922e15df35101fcb478bb1d6a71d2c60f38ec4db49dc23c0000000000feffffff02b0247c77782d00002251209aa405de2b78bea70eb426c8999480e06128d155faa88005c6967ca3e60e7a3100e1f50500000000fdd5046a20cd18820b95f6e26c38549eca514d1521970e1fef8a5f4d4e8d508fb64803cd734db00487e9b732723a296157a4cf93208e4784eddebf4fc994a8537e4509ff5c2feadaa7c99712521a09417784efb300ae67a4cdfe9f6fe9b488735e6529df7c0fcafac7a9f772327a692117e48fd360ce07c4ad9eff0f89d4e8133e0549bf1c6faa9ae789d752125a490137c4aff340ee27e48dbedf2fa9f4c8331e25699f3c4f8aba076937b2f2baa9e1d7244f13a00ec7046d5e3fcf491428d3fec5897fdcaf6a5a27491792d29a89c1f7046f33802ee7244d7e1fef693408f3dee5a95ffc8f4a7a472977f2b2fae9a197640f53e04e87442d1e7f8f09546893be85c93f9cef2a1a670957d292dac981b7442f73c06ea7640d3e5faf297448b39ea5e91fbccf0a3a87e9b732723a296157a4cf93208e4784eddebf4fc994a8537e4509ff5c2feadaa7c99712521a09417784efb300ae67a4cdfe9f6fe9b488735e6529df7c0fcafac7a9f772327a692117e48fd360ce07c4ad9eff0f89d4e8133e0549bf1c6faa9ae789d752125a490137c4aff340ee27e48dbedf2fa9f4c8331e25699f3c4f8aba076937b2f2baa9e1d7244f13a00ec7046d5e3fcf491428d3fec5897fdcaf6a5a27491792d29a89c1f7046f33802ee7244d7e1fef693408f3dee5a95ffc8f4a7a472977f2b2fae9a197640f53e04e87442d1e7f8f09546893be85c93f9cef2a1a670957d292dac981b7442f73c06ea7640d3e5faf297448b39ea5e91fbccf0a3a87e9b732723a296157a4cf93208e4784eddebf4fc994a8537e4509ff5c2feadaa7c99712521a09417784efb300ae67a4cdfe9f6fe9b488735e6529df7c0fcafac7a9f772327a692117e48fd360ce07c4ad9eff0f89d4e8133e0549bf1c6faa9ae789d752125a490137c4aff340ee27e48dbedf2fa9f4c8331e25699f3c4f8aba076937b2f2baa9e1d7244f13a00ec7046d5e3fcf491428d3fec5897fdcaf6a5a27491792d29a89c1f7046f33802ee7244d7e1fef693408f3dee5a95ffc8f4a7a472977f2b2fae9a197640f53e04e87442d1e7f8f09546893be85c93f9cef2a1a670957d292dac981b7442f73c06ea7640d3e5faf297448b39ea5e91fbccf0a3a87e9b732723a296157a4cf93208e4784eddebf4fc994a8537e4509ff5c2feadaa7c99712521a09417784efb300ae67a4cdfe9f6fe9b488735e6529df7c0fcafac7a9f772327a692117e48fd360ce07c4ad9eff0f89d4e8133e0549bf1c6faa9ae789d752125a490137c4aff340ee27e48dbedf2fa9f4c8331e25699f3c4f8aba076937b2f2baa9e1d7244f13a00ec7046d5e3fcf491428d3fec5897fdcaf6a5a27491792d29a89c1f7046f33802ee7244d7e1fef693408f3dee5a95ffc8f4a7a472977f2b2fae9a197640f53e04e87442d1e7f8f09546893be85c93f9cef2a1a670957d292dac981b7442f73c06ea7640d3e5faf297448b39ea5e91fbccf0a3a87e9b732723a296157a4cf93208e4784eddebf4fc994a8537e4509ff5c2feadaa7c99712521a09417784efb300ae67a4cdfe9f6fe9b488735e6529df7c0fcafac7a9f772327a692117e48fd360ce07c4ad9eff0f89d4e8133e0549bf1c6faa9ae789d752125a490137c4aff340ee27e48dbedf2fa9f4c8331e25699f3c4f8aba076937b2f2baa9e1d7244f13a00ec7041bcd3810dddf1d7946e6809862df80405077da488dcf6bbdc550303d7a12845402fd750952edd1b38635fa7005c671524e0ca7746a0e0238dc02b8bd07680133895a2df0dea2c2f8c7caff2158f4faed9a0065a69b9cab093dec688166ac8974c2d43fdcd994a24446002d0b4f20f1fbf76b081e032bbd8e391dedb549b2ebaf797a9e52e983a9644d2eab47e0e9c1c534da8013f73e216ecad561a9bc22635a3802d0d8ee2c9932c8d474cbaea52efa1365d0a9dcac5b93c5877b3109c9462dce75313b2bca5c11d0877f1816ac64b9487ffa7d003dff511dd16e6415d1ef3bb02dffc524851e509183b58b3238f293f4091c6f339f7b1863024eb7da4f5b0bb77bdc302aadd190ae95b687114f8f7b4cb0bc02a041ff470d126cb6e492bbd1858ce75c55dbddca7cca84a8df350481ad5e2e961511a0fb57fecfbcaba261853ea8d6ee888554ab0586b44f9e251daa5442a178eb8ab12d5b3c80a23fff76324035edf4c96a0812eaf093fc8a75b7ec43d50ea45c6827c739359c6c0c283398f5a69bbc71baa91385ee6d89b3924bb61e2d001793576a54d836e849a58356b54a99864f0c665b68f1449846ffebd5313d5a0981904cc3b0afa17efaa8439768c78b76be18518c44600e51ba3510d77af1b250bc4427971ba7ce272e2a0c512a5822427d188826c6855d66a8198ab1e795119b24b254f98d477ad4df1a2e8c1422dc9b23f3c85985c31834ecfa826ceed92145e29d463c679e02bd06547733313e2a27870d65ea745903c92d94d131461abfb3360cd1abce7109b340f6a0be1337584c0f20aa409cf5757f138a0f65d84e7697da5d5a2b95235f28c6ccb9cfc85df1198ee2207e276436bf82bf7f95502776750d056efc7cae8e61fe6d08b25a6680832c46bf947863646d561ec32356d0b68bce32ebf78d690979130da65886569f111549aafaad0711b183fee62b55d03b50e152096433b6bcfc82deaea9d469519e5a0b56d176a7500f68d75d79490b1d827ac78c7e9e797b271436bcbd123543fb88e66bf441aa4f7f9463d696bf71c73ae40cbcb4e614d315bd64410866b62620386a0e4cccb30699b03ad2e88f2cb94b152a8eafeab7581572043fe254865c4bead7e09c2bc9fc845585729a0352d5d27715777e43aee8914b4e9cdada20d243e24b6cf7b21049df6e88833a15e7011d0211f8c9b2f80b14e34f560e5a7ca4a3a3731260ec34f7c7d27a633a7c826af01472dba6e72c20932c4109a80ced3cc051e619e88b34430615fd5772991c1e1b8960ceaac01767ef2720688d775bc6e5647bbf3e94e71128464fe358db7329d78f1e4bada23e50736924165daa340cbe246ea14bd96dc054ba213801db947472e106bbdc5f63042d5e85a9827ad6539dbc6cf4f3afe1c0ba5026d2d11bda2c5c3a3201b547feb5cf6b63d3fd4561363cfd165f4c9c7add0486384cedbcc2b115b614cdcce9dd4b5fc46ac6ae3e6c25495d4a34fb29f01bebe526016a4f53e469ec1b14f7a7bc1f151abd55c5f9736fd9f88d3cd4b8e2c5e3807cc275e234dbd21e287c721a67d7911ac96693ea5cf624cf560941db8f9e91a7f8775ffbc470b47e5f8993161f9fc46b86372fa09d8823f20869a74cf2dac736b13b4854ac1474a65383c376d6291ba11561314b670751fe5b6ed9a77cd451570dd682610be89de4838cf0e06c00cfe4d8c38a31c82b974f0570f6a16b4d5e3af5b44b26e49fcda5ef05993905647df5bb2007d9a11dc01303a736d54960bd077b877844e089f78294366d94f6aebf12b832d63ef57e7d5e0cf30a31b00c80d0fdf1b2008d58d1e89d77b1f36d9ee63739632c5008f912a906adc3b7a5f3672c6cd1705cbbe7ea2569b19ff0d9379291767a110b826633623929543f5ef7c0f547e704e10703d6f26f267332257d24fcebfe61c7478946ec0cead34b044bc5941a76bb427f2a9be23aac3a75bfbd6f404f80cab8cab7d324fbb69dca84860ebd602f812de0e51903492f23e518977197d9cbe8c4a7164c65b39bab149c851d208cb517330a28078661ffcb9561098e61f105520c673a494d1eb7c57d6b7c378348225ff6fa3843bc29f19bbdf6f84d5d5a24389cb99d338c28096a63b68bf394a04d0f29ca5b66b5d9b6591f0834e876192b27dd3db62a59a8ccc9f426c3061ff0de1cc72529ce29de1ed7e1159b3f37b4dcfe5e8d4276ea7ec54732a95f55e05d813b0b6fcc14fb46c3d6ef14f7e07fb29e06db7bb26b6035608a26089d72a2619d9458f620f84ca6a493c2f8c999cccc3dbeb5d7906d0c6915189860a607ad709f225c88cfaa65adc3fc056773f5c39614897704a91f552a1fff0f3615f8a749fadec2370a142f9120e0f84e7bb0a8ddce0602e7aa3ea91ea8f26b1684324c2b3607f422885395c30ca6bb9b6c0ce4539007cfcb869d1add35a3035ba72d328982f0c9194c795b51d801f724bfb60159effdba0868d64e508849fbe148a935e1748a558d47c10b9bfd03c0d18ac9fa59554af24b87b9245e3667184b8f850eb8cf11215d528119e075898e22989538e16aedc29832d80246a9bfe886eef9b04c9e2c3432c8811c5e2ba62364f8f2a4c38a2c69be214f0ec2496a968de62055b7dacaf844ac8659cc44bbedcfd5ed63e5071262d66c910fdfe77dce12d9f42f43fb9b6df8ade9149a6bd15f89b0e474dd5b04eecd923c6abb10e3ded4e9beb038ca1b7ee148af90990d9a3b5fc55847a697decb48298ea9e637f0d9ba4362fdb5843197bbf41295bb7c3ae563bd28d6e79c2ee5c44709232e77d69aabb5d5eedca0ac5442ec2e6631b3cedae654ead70868e6e51af32793c943ca3a6dc78b6751c5ff85e9edef03d0d8d64b66aa2af5aba8ea20c48e851fc03d4c09fd02e810502e6286326789975afdfc85a5b9b2428f33178bcae616840b1e9819d153a58564e64c516785836e2359b26c8a7b169b1b9eb72bebba04991e0d640f39486bd64245d1bb5fdcf9fa30ef7531598920027daea0fa22e673874a851f855d727ecf672c462d1d367e6612abfd91087497423de8992ee5bcce00fe2829a393329544700c8ba120ea25562877b014bac756dfbd0631c1ebadbc0c1ada5ec74e4b14d59c74c76c9db1eafb5dbd1bad3520ee6c2f045ba06e1427b2fac7b124f61b46de9ee6b9bbbf71a829c0edb0a3b2217764002d65870a6085bd86ce405f716ca003ab5ae431763baa72e929cac8f484990b0339705c2414d525acfa52eb25b59f485b674e3315380f167953dc214e06e409b279e911cb4d4830a02f7f1fa57e2c1752ce0d52b334198259077ffa8084f6f85eabc2e9e08dbf08191c1d32444f5f6887ea1b1c364f5d686e898c9596a7b0bbd0e8f3f70c0f181b313d426673829cb4c1c5c9cbccdceef3010e16393b4b606a729da1c3c7d8dce6f6fa00000000000000000000000000000a1c304201fd21050066f07754fc4f74a43b50ec1a8c6aceb3cd6d42ddab38c02c2fb83b8dbfb0865122aa39766811e6d27768bf16151637a5ea13d56fd7dde34fc8bb691cc1d2c47d81c84cf748d89b25f3a1a5464091889f33b4b7630b462fbd7edba5e2eb16c5d2c347fa08c8a2af4c96c02b192790abc59c7ac8e7ac4f1c9d0293ca04758c8d04eee71bdc3103fa88efae68620f6b18260bd006f3c79d0db1c33a43ccd3cca0227015194989c6241665e66f4035cd7165941249218ceffa077eb7c640b046fcbe0fd2f2cbdb08e15aa6a300be6d9c3ee05b6fc350efc4591c027a4fa8ec4c26d09b8992e6a141d80c376c9f3a109fd3f345fa63cc22d2b77a561d6bdc9f2c01e2102736136541d8254638fae4d075ebdebc4453239a88cb4697459abf72d9ba4276d0f63251a6d9c5ab790536280f6b1e7c6c2a4076fc44d2266cd73695d76e48b3496fd24d0b3f596461fc1df11015744c509ca83de01c1657f89b46b5180892dd46e15218882748099f2887691fae86092d0fc63d0635298c022df252cf49028db9aa2fe71836680d7d6f93d4d923307a9206b3e74220cce4cbb38ff6d223134008358c410e6fe59506f366af3a0b562c4a36f5462b1647420a2f60d8f2693a7e900db11cdf39e790f00bf55974a99e45ca7c3a3cdf692222855b62c5d9dc695e8333a7c5fbd54a5b4b9c1566b9c674c92c3ea1004645b34bb4908a9294e114fd6e536b15869653bd22042bf4cbe02cc0f98f6a40e9c1e1153e2b12adba81d1f00175d1d723db99814868c97cae6b9a547ac2709479864b1f3f3389210fb13b9a0c137b34116eeb3b261413b872b9b8f019b851ec3e85b4ed61663d59da43adb178f2d2fa7eaa49fe50ed53e342726b0f3471217145af72f066d5f10ca511b52da5317349f61b205c11993ba6a83992a83ac6253dd616613dd3a74e450c0f3ae2df61235e9a01eb21bf613ce9892cf8c2931ac46c4cfa6cf1f23a0f9d039e8807f5b3a54f4030a179f537be1132b9b77910bb0d4e2f0aebd540746b45d8255d694dae2ce9a285d2e66825a7afbefa3ed9271a05f30ca537a53f230fec7df9a2e74beb665174df8b3f274950d28bf85e281398caeeb4c66f2818b9b7dda84bea73ebdfd12395cf8f83859144a997823224fc6c33ff3b06a965368d569f133cc3d7836748210b29b6126478862eab701e71bc5016e58637123d4f5942b1e9c4ee9b30c23b94639e5eb52e5d16a66e687e50c331178cd20655c834b9c9e05a3056cdd0798447e0bbd68f767334af422bd6cb5af2fe5410ad2df93a2b4b9d72ace1e2c79303bfaba36d5078bd631a6f2d74609f5b94fa365f0a4efb9bc924b5e7292dcfc37644560efabe148b7313447c588ce19ab6ec79b2ee55b742bbfad4438c429f43719c1c9f567c0914d3b825532ab7b5da2d09fe0c41fb7fc7113f81b74bdef5ad769fe853c63bb7a260f1abb362796913ac42134ef8c0a7d63a9cc001d01b03807cc190ed6fa6c6bcc0b053fad603e09d574eac718bc532763267cb12ab21d33c2a9f75ec047d57117a0985e6561af27932f798081a1eba35732554dbc7d828e22ad8ae0248d41f98cf8051bb8f7412742fe6cc69dec5d8ea21b2e2a2cf51d5b594b8a0928a9a131b5ec4f032f24859d7dbca0a488edecc564b249744386a007f658fb9e773c52f5f21c0ef18e5dbe21982688d0de517b8172acf8853aba754188ce23bba4570eadf36befc2650f5e295597a9151eca4233915c6391f8be8c0cf1f2fe7ef492977a9b722d557e5e9d2ade15e17a144748b6a37dc59a5e4d627b6605d5ff9f4363d065e1d496dd6a494ed6bc5e64e2d8bd6c8bc2cf7ef586a000000",
  "txid": "309706ef5e270497c71fcc3998c52db496d765244f6e05160462a7ac10fa14a4",
  "hash": "0f42ecf210df83e0fef3f9380e24f0c048e2f2427c507ac546c0bc03e6288a33",
  "size": 5085,
  "vsize": 2278,
  "version": 1,
  "locktime": 106,
  "vin": [
    {
      "txid": "3cc29db44dec380fc6d2716a1dbb78b4fc0151f35de122690363c829a3865596",
      "vout": 0,
      "scriptSig": {
        "asm": "",
        "hex": ""
      },
      "txinwitness": [
        "52edd1b38635fa7005c671524e0ca7746a0e0238dc02b8bd07680133895a2df0dea2c2f8c7caff2158f4faed9a0065a69b9cab093dec688166ac8974c2d43fdcd994a24446002d0b4f20f1fbf76b081e032bbd8e391dedb549b2ebaf797a9e52e983a9644d2eab47e0e9c1c534da8013f73e216ecad561a9bc22635a3802d0d8ee2c9932c8d474cbaea52efa1365d0a9dcac5b93c5877b3109c9462dce75313b2bca5c11d0877f1816ac64b9487ffa7d003dff511dd16e6415d1ef3bb02dffc524851e509183b58b3238f293f4091c6f339f7b1863024eb7da4f5b0bb77bdc302aadd190ae95b687114f8f7b4cb0bc02a041ff470d126cb6e492bbd1858ce75c55dbddca7cca84a8df350481ad5e2e961511a0fb57fecfbcaba261853ea8d6ee888554ab0586b44f9e251daa5442a178eb8ab12d5b3c80a23fff76324035edf4c96a0812eaf093fc8a75b7ec43d50ea45c6827c739359c6c0c283398f5a69bbc71baa91385ee6d89b3924bb61e2d001793576a54d836e849a58356b54a99864f0c665b68f1449846ffebd5313d5a0981904cc3b0afa17efaa8439768c78b76be18518c44600e51ba3510d77af1b250bc4427971ba7ce272e2a0c512a5822427d188826c6855d66a8198ab1e795119b24b254f98d477ad4df1a2e8c1422dc9b23f3c85985c31834ecfa826ceed92145e29d463c679e02bd06547733313e2a27870d65ea745903c92d94d131461abfb3360cd1abce7109b340f6a0be1337584c0f20aa409cf5757f138a0f65d84e7697da5d5a2b95235f28c6ccb9cfc85df1198ee2207e276436bf82bf7f95502776750d056efc7cae8e61fe6d08b25a6680832c46bf947863646d561ec32356d0b68bce32ebf78d690979130da65886569f111549aafaad0711b183fee62b55d03b50e152096433b6bcfc82deaea9d469519e5a0b56d176a7500f68d75d79490b1d827ac78c7e9e797b271436bcbd123543fb88e66bf441aa4f7f9463d696bf71c73ae40cbcb4e614d315bd64410866b62620386a0e4cccb30699b03ad2e88f2cb94b152a8eafeab7581572043fe254865c4bead7e09c2bc9fc845585729a0352d5d27715777e43aee8914b4e9cdada20d243e24b6cf7b21049df6e88833a15e7011d0211f8c9b2f80b14e34f560e5a7ca4a3a3731260ec34f7c7d27a633a7c826af01472dba6e72c20932c4109a80ced3cc051e619e88b34430615fd5772991c1e1b8960ceaac01767ef2720688d775bc6e5647bbf3e94e71128464fe358db7329d78f1e4bada23e50736924165daa340cbe246ea14bd96dc054ba213801db947472e106bbdc5f63042d5e85a9827ad6539dbc6cf4f3afe1c0ba5026d2d11bda2c5c3a3201b547feb5cf6b63d3fd4561363cfd165f4c9c7add0486384cedbcc2b115b614cdcce9dd4b5fc46ac6ae3e6c25495d4a34fb29f01bebe526016a4f53e469ec1b14f7a7bc1f151abd55c5f9736fd9f88d3cd4b8e2c5e3807cc275e234dbd21e287c721a67d7911ac96693ea5cf624cf560941db8f9e91a7f8775ffbc470b47e5f8993161f9fc46b86372fa09d8823f20869a74cf2dac736b13b4854ac1474a65383c376d6291ba11561314b670751fe5b6ed9a77cd451570dd682610be89de4838cf0e06c00cfe4d8c38a31c82b974f0570f6a16b4d5e3af5b44b26e49fcda5ef05993905647df5bb2007d9a11dc01303a736d54960bd077b877844e089f78294366d94f6aebf12b832d63ef57e7d5e0cf30a31b00c80d0fdf1b2008d58d1e89d77b1f36d9ee63739632c5008f912a906adc3b7a5f3672c6cd1705cbbe7ea2569b19ff0d9379291767a110b826633623929543f5ef7c0f547e704e10703d6f26f267332257d24fcebfe61c7478946ec0cead34b044bc5941a76bb427f2a9be23aac3a75bfbd6f404f80cab8cab7d324fbb69dca84860ebd602f812de0e51903492f23e518977197d9cbe8c4a7164c65b39bab149c851d208cb517330a28078661ffcb9561098e61f105520c673a494d1eb7c57d6b7c378348225ff6fa3843bc29f19bbdf6f84d5d5a24389cb99d338c28096a63b68bf394a04d0f29ca5b66b5d9b6591f0834e876192b27dd3db62a59a8ccc9f426c3061ff0de1cc72529ce29de1ed7e1159b3f37b4dcfe5e8d4276ea7ec54732a95f55e05d813b0b6fcc14fb46c3d6ef14f7e07fb29e06db7bb26b6035608a26089d72a2619d9458f620f84ca6a493c2f8c999cccc3dbeb5d7906d0c6915189860a607ad709f225c88cfaa65adc3fc056773f5c39614897704a91f552a1fff0f3615f8a749fadec2370a142f9120e0f84e7bb0a8ddce0602e7aa3ea91ea8f26b1684324c2b3607f422885395c30ca6bb9b6c0ce4539007cfcb869d1add35a3035ba72d328982f0c9194c795b51d801f724bfb60159effdba0868d64e508849fbe148a935e1748a558d47c10b9bfd03c0d18ac9fa59554af24b87b9245e3667184b8f850eb8cf11215d528119e075898e22989538e16aedc29832d80246a9bfe886eef9b04c9e2c3432c8811c5e2ba62364f8f2a4c38a2c69be214f0ec2496a968de62055b7dacaf844ac8659cc44bbedcfd5ed63e5071262d66c910fdfe77dce12d9f42f43fb9b6df8ade9149a6bd15f89b0e474dd5b04eecd923c6abb10e3ded4e9beb038ca1b7ee148af90990d9a3b5fc55847a697decb48298ea9e637f0d9ba4362fdb5843197bbf41295bb7c3ae563bd28d6e79c2ee5c44709232e77d69aabb5d5eedca0ac5442ec2e6631b3cedae654ead70868e6e51af32793c943ca3a6dc78b6751c5ff85e9edef03d0d8d64b66aa2af5aba8ea20c48e851fc03d4c09fd02e810502e6286326789975afdfc85a5b9b2428f33178bcae616840b1e9819d153a58564e64c516785836e2359b26c8a7b169b1b9eb72bebba04991e0d640f39486bd64245d1bb5fdcf9fa30ef7531598920027daea0fa22e673874a851f855d727ecf672c462d1d367e6612abfd91087497423de8992ee5bcce00fe2829a393329544700c8ba120ea25562877b014bac756dfbd0631c1ebadbc0c1ada5ec74e4b14d59c74c76c9db1eafb5dbd1bad3520ee6c2f045ba06e1427b2fac7b124f61b46de9ee6b9bbbf71a829c0edb0a3b2217764002d65870a6085bd86ce405f716ca003ab5ae431763baa72e929cac8f484990b0339705c2414d525acfa52eb25b59f485b674e3315380f167953dc214e06e409b279e911cb4d4830a02f7f1fa57e2c1752ce0d52b334198259077ffa8084f6f85eabc2e9e08dbf08191c1d32444f5f6887ea1b1c364f5d686e898c9596a7b0bbd0e8f3f70c0f181b313d426673829cb4c1c5c9cbccdceef3010e16393b4b606a729da1c3c7d8dce6f6fa00000000000000000000000000000a1c304201",
        "0066f07754fc4f74a43b50ec1a8c6aceb3cd6d42ddab38c02c2fb83b8dbfb0865122aa39766811e6d27768bf16151637a5ea13d56fd7dde34fc8bb691cc1d2c47d81c84cf748d89b25f3a1a5464091889f33b4b7630b462fbd7edba5e2eb16c5d2c347fa08c8a2af4c96c02b192790abc59c7ac8e7ac4f1c9d0293ca04758c8d04eee71bdc3103fa88efae68620f6b18260bd006f3c79d0db1c33a43ccd3cca0227015194989c6241665e66f4035cd7165941249218ceffa077eb7c640b046fcbe0fd2f2cbdb08e15aa6a300be6d9c3ee05b6fc350efc4591c027a4fa8ec4c26d09b8992e6a141d80c376c9f3a109fd3f345fa63cc22d2b77a561d6bdc9f2c01e2102736136541d8254638fae4d075ebdebc4453239a88cb4697459abf72d9ba4276d0f63251a6d9c5ab790536280f6b1e7c6c2a4076fc44d2266cd73695d76e48b3496fd24d0b3f596461fc1df11015744c509ca83de01c1657f89b46b5180892dd46e15218882748099f2887691fae86092d0fc63d0635298c022df252cf49028db9aa2fe71836680d7d6f93d4d923307a9206b3e74220cce4cbb38ff6d223134008358c410e6fe59506f366af3a0b562c4a36f5462b1647420a2f60d8f2693a7e900db11cdf39e790f00bf55974a99e45ca7c3a3cdf692222855b62c5d9dc695e8333a7c5fbd54a5b4b9c1566b9c674c92c3ea1004645b34bb4908a9294e114fd6e536b15869653bd22042bf4cbe02cc0f98f6a40e9c1e1153e2b12adba81d1f00175d1d723db99814868c97cae6b9a547ac2709479864b1f3f3389210fb13b9a0c137b34116eeb3b261413b872b9b8f019b851ec3e85b4ed61663d59da43adb178f2d2fa7eaa49fe50ed53e342726b0f3471217145af72f066d5f10ca511b52da5317349f61b205c11993ba6a83992a83ac6253dd616613dd3a74e450c0f3ae2df61235e9a01eb21bf613ce9892cf8c2931ac46c4cfa6cf1f23a0f9d039e8807f5b3a54f4030a179f537be1132b9b77910bb0d4e2f0aebd540746b45d8255d694dae2ce9a285d2e66825a7afbefa3ed9271a05f30ca537a53f230fec7df9a2e74beb665174df8b3f274950d28bf85e281398caeeb4c66f2818b9b7dda84bea73ebdfd12395cf8f83859144a997823224fc6c33ff3b06a965368d569f133cc3d7836748210b29b6126478862eab701e71bc5016e58637123d4f5942b1e9c4ee9b30c23b94639e5eb52e5d16a66e687e50c331178cd20655c834b9c9e05a3056cdd0798447e0bbd68f767334af422bd6cb5af2fe5410ad2df93a2b4b9d72ace1e2c79303bfaba36d5078bd631a6f2d74609f5b94fa365f0a4efb9bc924b5e7292dcfc37644560efabe148b7313447c588ce19ab6ec79b2ee55b742bbfad4438c429f43719c1c9f567c0914d3b825532ab7b5da2d09fe0c41fb7fc7113f81b74bdef5ad769fe853c63bb7a260f1abb362796913ac42134ef8c0a7d63a9cc001d01b03807cc190ed6fa6c6bcc0b053fad603e09d574eac718bc532763267cb12ab21d33c2a9f75ec047d57117a0985e6561af27932f798081a1eba35732554dbc7d828e22ad8ae0248d41f98cf8051bb8f7412742fe6cc69dec5d8ea21b2e2a2cf51d5b594b8a0928a9a131b5ec4f032f24859d7dbca0a488edecc564b249744386a007f658fb9e773c52f5f21c0ef18e5dbe21982688d0de517b8172acf8853aba754188ce23bba4570eadf36befc2650f5e295597a9151eca4233915c6391f8be8c0cf1f2fe7ef492977a9b722d557e5e9d2ade15e17a144748b6a37dc59a5e4d627b6605d5ff9f4363d065e1d496dd6a494ed6bc5e64e2d8bd6c8bc2cf7ef58"
      ],
      "sequence": 4294967294
    }
  ],
  "vout": [
    {
      "value": 499954.2395,
      "n": 0,
      "scriptPubKey": {
        "asm": "1 9aa405de2b78bea70eb426c8999480e06128d155faa88005c6967ca3e60e7a31",
        "hex": "51209aa405de2b78bea70eb426c8999480e06128d155faa88005c6967ca3e60e7a31",
        "reqSigs": 1,
        "type": "witness_v1_scripthash",
        "addresses": [
          "3QJmnh"
        ]
      }
    },
    {
      "value": 1.0,
      "n": 1,
      "scriptPubKey": {
        "asm": "OP_RETURN cd18820b95f6e26c38549eca514d1521970e1fef8a5f4d4e8d508fb64803cd73 87e9b732723a296157a4cf93208e4784eddebf4fc994a8537e4509ff5c2feadaa7c99712521a09417784efb300ae67a4cdfe9f6fe9b488735e6529df7c0fcafac7a9f772327a692117e48fd360ce07c4ad9eff0f89d4e8133e0549bf1c6faa9ae789d752125a490137c4aff340ee27e48dbedf2fa9f4c8331e25699f3c4f8aba076937b2f2baa9e1d7244f13a00ec7046d5e3fcf491428d3fec5897fdcaf6a5a27491792d29a89c1f7046f33802ee7244d7e1fef693408f3dee5a95ffc8f4a7a472977f2b2fae9a197640f53e04e87442d1e7f8f09546893be85c93f9cef2a1a670957d292dac981b7442f73c06ea7640d3e5faf297448b39ea5e91fbccf0a3a87e9b732723a296157a4cf93208e4784eddebf4fc994a8537e4509ff5c2feadaa7c99712521a09417784efb300ae67a4cdfe9f6fe9b488735e6529df7c0fcafac7a9f772327a692117e48fd360ce07c4ad9eff0f89d4e8133e0549bf1c6faa9ae789d752125a490137c4aff340ee27e48dbedf2fa9f4c8331e25699f3c4f8aba076937b2f2baa9e1d7244f13a00ec7046d5e3fcf491428d3fec5897fdcaf6a5a27491792d29a89c1f7046f33802ee7244d7e1fef693408f3dee5a95ffc8f4a7a472977f2b2fae9a197640f53e04e87442d1e7f8f09546893be85c93f9cef2a1a670957d292dac981b7442f73c06ea7640d3e5faf297448b39ea5e91fbccf0a3a87e9b732723a296157a4cf93208e4784eddebf4fc994a8537e4509ff5c2feadaa7c99712521a09417784efb300ae67a4cdfe9f6fe9b488735e6529df7c0fcafac7a9f772327a692117e48fd360ce07c4ad9eff0f89d4e8133e0549bf1c6faa9ae789d752125a490137c4aff340ee27e48dbedf2fa9f4c8331e25699f3c4f8aba076937b2f2baa9e1d7244f13a00ec7046d5e3fcf491428d3fec5897fdcaf6a5a27491792d29a89c1f7046f33802ee7244d7e1fef693408f3dee5a95ffc8f4a7a472977f2b2fae9a197640f53e04e87442d1e7f8f09546893be85c93f9cef2a1a670957d292dac981b7442f73c06ea7640d3e5faf297448b39ea5e91fbccf0a3a87e9b732723a296157a4cf93208e4784eddebf4fc994a8537e4509ff5c2feadaa7c99712521a09417784efb300ae67a4cdfe9f6fe9b488735e6529df7c0fcafac7a9f772327a692117e48fd360ce07c4ad9eff0f89d4e8133e0549bf1c6faa9ae789d752125a490137c4aff340ee27e48dbedf2fa9f4c8331e25699f3c4f8aba076937b2f2baa9e1d7244f13a00ec7046d5e3fcf491428d3fec5897fdcaf6a5a27491792d29a89c1f7046f33802ee7244d7e1fef693408f3dee5a95ffc8f4a7a472977f2b2fae9a197640f53e04e87442d1e7f8f09546893be85c93f9cef2a1a670957d292dac981b7442f73c06ea7640d3e5faf297448b39ea5e91fbccf0a3a87e9b732723a296157a4cf93208e4784eddebf4fc994a8537e4509ff5c2feadaa7c99712521a09417784efb300ae67a4cdfe9f6fe9b488735e6529df7c0fcafac7a9f772327a692117e48fd360ce07c4ad9eff0f89d4e8133e0549bf1c6faa9ae789d752125a490137c4aff340ee27e48dbedf2fa9f4c8331e25699f3c4f8aba076937b2f2baa9e1d7244f13a00ec7041bcd3810dddf1d7946e6809862df80405077da488dcf6bbdc550303d7a128454",
        "hex": "6a20cd18820b95f6e26c38549eca514d1521970e1fef8a5f4d4e8d508fb64803cd734db00487e9b732723a296157a4cf93208e4784eddebf4fc994a8537e4509ff5c2feadaa7c99712521a09417784efb300ae67a4cdfe9f6fe9b488735e6529df7c0fcafac7a9f772327a692117e48fd360ce07c4ad9eff0f89d4e8133e0549bf1c6faa9ae789d752125a490137c4aff340ee27e48dbedf2fa9f4c8331e25699f3c4f8aba076937b2f2baa9e1d7244f13a00ec7046d5e3fcf491428d3fec5897fdcaf6a5a27491792d29a89c1f7046f33802ee7244d7e1fef693408f3dee5a95ffc8f4a7a472977f2b2fae9a197640f53e04e87442d1e7f8f09546893be85c93f9cef2a1a670957d292dac981b7442f73c06ea7640d3e5faf297448b39ea5e91fbccf0a3a87e9b732723a296157a4cf93208e4784eddebf4fc994a8537e4509ff5c2feadaa7c99712521a09417784efb300ae67a4cdfe9f6fe9b488735e6529df7c0fcafac7a9f772327a692117e48fd360ce07c4ad9eff0f89d4e8133e0549bf1c6faa9ae789d752125a490137c4aff340ee27e48dbedf2fa9f4c8331e25699f3c4f8aba076937b2f2baa9e1d7244f13a00ec7046d5e3fcf491428d3fec5897fdcaf6a5a27491792d29a89c1f7046f33802ee7244d7e1fef693408f3dee5a95ffc8f4a7a472977f2b2fae9a197640f53e04e87442d1e7f8f09546893be85c93f9cef2a1a670957d292dac981b7442f73c06ea7640d3e5faf297448b39ea5e91fbccf0a3a87e9b732723a296157a4cf93208e4784eddebf4fc994a8537e4509ff5c2feadaa7c99712521a09417784efb300ae67a4cdfe9f6fe9b488735e6529df7c0fcafac7a9f772327a692117e48fd360ce07c4ad9eff0f89d4e8133e0549bf1c6faa9ae789d752125a490137c4aff340ee27e48dbedf2fa9f4c8331e25699f3c4f8aba076937b2f2baa9e1d7244f13a00ec7046d5e3fcf491428d3fec5897fdcaf6a5a27491792d29a89c1f7046f33802ee7244d7e1fef693408f3dee5a95ffc8f4a7a472977f2b2fae9a197640f53e04e87442d1e7f8f09546893be85c93f9cef2a1a670957d292dac981b7442f73c06ea7640d3e5faf297448b39ea5e91fbccf0a3a87e9b732723a296157a4cf93208e4784eddebf4fc994a8537e4509ff5c2feadaa7c99712521a09417784efb300ae67a4cdfe9f6fe9b488735e6529df7c0fcafac7a9f772327a692117e48fd360ce07c4ad9eff0f89d4e8133e0549bf1c6faa9ae789d752125a490137c4aff340ee27e48dbedf2fa9f4c8331e25699f3c4f8aba076937b2f2baa9e1d7244f13a00ec7046d5e3fcf491428d3fec5897fdcaf6a5a27491792d29a89c1f7046f33802ee7244d7e1fef693408f3dee5a95ffc8f4a7a472977f2b2fae9a197640f53e04e87442d1e7f8f09546893be85c93f9cef2a1a670957d292dac981b7442f73c06ea7640d3e5faf297448b39ea5e91fbccf0a3a87e9b732723a296157a4cf93208e4784eddebf4fc994a8537e4509ff5c2feadaa7c99712521a09417784efb300ae67a4cdfe9f6fe9b488735e6529df7c0fcafac7a9f772327a692117e48fd360ce07c4ad9eff0f89d4e8133e0549bf1c6faa9ae789d752125a490137c4aff340ee27e48dbedf2fa9f4c8331e25699f3c4f8aba076937b2f2baa9e1d7244f13a00ec7041bcd3810dddf1d7946e6809862df80405077da488dcf6bbdc550303d7a128454",
        "type": "nulldata"
      }
    }
  ],
  "blockhash": "39d4bea9c9c25d41b43db6cdde5dd715e5d3be3597965cba0de2d48951f8c4e3",
  "confirmations": 1,
  "time": 1764183939,
  "blocktime": 1764183939
}