{
  "hex": "010000000001017c6ab134034b08c83564ac13b4bfabfb5b44e49a927b8cfe16c20780fce65a010100000000feffffff026076a04b792d0000225120d22bb1f291ecaae487ffcc6744f5eedce550b6d3254542e39e218144b1a7f13200e1f50500000000fdd5046a202374c859926e1678e4b28265ea5f249db8e2d2e2984a7357b540813994a4094a4db004e1215c0634f17adbc4d322ea11a3be6c2756f2d9afcc7300ac4c5d50f0752374c1017c2614d15afbe4f302ca31839e4c0776d2f98fec53208c6c7d70d0550354a1611c4674b13a9b849362aa51e3fe2c6716b299ef8c3340ec0c1d10b035633481413c6654911abba4b3428a71c3de0c473692b9cfac1360cc2c3d309015431461a1dc86b471fa5b4453a26a91233eeca7d672592f4cf3802cccddd070f5a3f44181fca69451da7b6473824ab1031ecc87f652790f6cd3a00cecfdf050d583d421e19cc6f431ba1b0413e22ad1637eace79632196f0cb3c06c8c9d9030b5e3b401c1bce6d4119a3b2433c20af1435e8cc7b612394f2c93e04cacbdb01095c394e1215c0634f17adbc4d322ea11a3be6c2756f2d9afcc7300ac4c5d50f0752374c1017c2614d15afbe4f302ca31839e4c0776d2f98fec53208c6c7d70d0550354a1611c4674b13a9b849362aa51e3fe2c6716b299ef8c3340ec0c1d10b035633481413c6654911abba4b3428a71c3de0c473692b9cfac1360cc2c3d309015431461a1dc86b471fa5b4453a26a91233eeca7d672592f4cf3802cccddd070f5a3f44181fca69451da7b6473824ab1031ecc87f652790f6cd3a00cecfdf050d583d421e19cc6f431ba1b0413e22ad1637eace79632196f0cb3c06c8c9d9030b5e3b401c1bce6d4119a3b2433c20af1435e8cc7b612394f2c93e04cacbdb01095c394e1215c0634f17adbc4d322ea11a3be6c2756f2d9afcc7300ac4c5d50f0752374c1017c2614d15afbe4f302ca31839e4c0776d2f98fec53208c6c7d70d0550354a1611c4674b13a9b849362aa51e3fe2c6716b299ef8c3340ec0c1d10b035633481413c6654911abba4b3428a71c3de0c473692b9cfac1360cc2c3d309015431461a1dc86b471fa5b4453a26a91233eeca7d672592f4cf3802cccddd070f5a3f44181fca69451da7b6473824ab1031ecc87f652790f6cd3a00cecfdf050d583d421e19cc6f431ba1b0413e22ad1637eace79632196f0cb3c06c8c9d9030b5e3b401c1bce6d4119a3b2433c20af1435e8cc7b612394f2c93e04cacbdb01095c394e1215c0634f17adbc4d322ea11a3be6c2756f2d9afcc7300ac4c5d50f0752374c1017c2614d15afbe4f302ca31839e4c0776d2f98fec53208c6c7d70d0550354a1611c4674b13a9b849362aa51e3fe2c6716b299ef8c3340ec0c1d10b035633481413c6654911abba4b3428a71c3de0c473692b9cfac1360cc2c3d309015431461a1dc86b471fa5b4453a26a91233eeca7d672592f4cf3802cccddd070f5a3f44181fca69451da7b6473824ab1031ecc87f652790f6cd3a00cecfdf050d583d421e19cc6f431ba1b0413e22ad1637eace79632196f0cb3c06c8c9d9030b5e3b401c1bce6d4119a3b2433c20af1435e8cc7b612394f2c93e04cacbdb01095c394e1215c0634f17adbc4d322ea11a3be6c2756f2d9afcc7300ac4c5d50f0752374c1017c2614d15afbe4f302ca31839e4c0776d2f98fec53208c6c7d70d0550354a1611c4674b13a9b849362aa51e3fe2c6716b299ef8c3340ec0c1d10b035633481413c6654911abba4b3428a71c3de0c473692b9cfac1360cc2c3d309015431461a1dc86b471fa5b4453a26a91233eec4d6eb21e8501fd009841f6118e95738ea1b10de18952e665c9b487b0ede28f3202fd7509545ced98d7681c834ac69d264769692de3fba8d7dcf6599fbfbaca93949c178fe6ddf94d456203edc44c5f79bdad758f80b6facfa69c719fe326b5307c9d87ff212dfa40840de448a34b976b2d2bfff98813a27dbdd926d30c73e2a8b7450f9de0d23705d8f1cfc8b237b29478ca7f76648111430db78c09f03c2354570d66c17ad4bd6770d3b1c64789962badf9c64ccc0345ef2a5c89ef989a00a4756942531671cbf8cb20b47a7613a753040db5a48eb4540415f899e214e842f5a1a13d7d5d358868b92aae3efad03feb422e4a0b3cee069bb11965a381ea15881feda9485f4b9e73f3895e8b0d442c4da8069d433d5c139c244844b17fdbd1250f0d527b1bab41ebff947f6c2918fc6906f58e7a68acea97b8d7c01ef612be5362eb22accddbf48c03fdd86c8f79441f63a969bdce36d4f1f522ac7c357003e7d956e1992d94864557d4e8656a3aeed5f5c9c6fc9fa0d814460569dfe93270b6aeb3ec20b40aa062b2816054bbdb5821aac17382f8ef8dbfe4982b1ec09a01cc9f318acaf8b75b0b57dbc524929638556e88c42627a4aed69c23f08e59858716647db95a9b95b641339d7ccf990b51cc9f4498b57adbdf5f32cc53602715a7c0ba754cf624ed4a79d425c7f6c58555c361a6b6c78edf4e7fed9efb07b9f740055bd8611b417a660dc164dc299956c679152a17a4bdea525db9fb823e068f6eb5b670b4f5c5017ceec21369248d8067b94e44efea8356f1fb8af0bb8d78f381e793b6efa9fd2c8b6065e6adfba8853a48c3ccd9f17120483a22ed807bc400819ea65f845cdaeebfc084425b4f583d7f91954b6db70690ac01d2e90e28b143becb4029d0b5f6cf560c9233928573ec6655e0de0a5c30dcb401b349fe6ebdeca6aa7233095d8eb3a507f0cbd697e277ceae32ff49b8ff4707888b7f5e6ddd158725021741fb4f9adf85ae8253a65be732db15437ba10d5920c96fe518c8eedbb3a7209cfd6a2fc179353f202085272b4785b964a4e0891ed284f280a4e0ceeb9f2336f39e19c7f92e844279acbc4d5e899a471c97192ad9c0b68911887fad9dafeeddf8429c50b9984fd0bbc2fcd4d80c6e3896f17d16386192e5b36375b67f71f49b528408598e0818a40a697422165f48ece8a1e164258b0ff9a9a847f343da51e2addea39db218a7a72166bfbd99cc915020d8a7b3299427f27dfba51a61fb972fbb8cd9889f997abc8ba2b3fde181e5bb9c86992f7ae522ff38cab1da218771cd18a2e4620f3db9f274b4223f7c62c74d77a83b45a7a06cbc73302e10d41b72cd0a638106ea63baee4032ccf3a5018a1605a94b50781231be89afeab15540919835572e1afa0ce586d1cffa6dce6fbefdeb9368d054b09c8bb38c67acc5d49ff4999b582e0741cc049436d323b2705b2637d285ef13f65555f9af870f43ac81f5f76c3c58a284ca8bd8fee7141e6a346603497b11f56d72b99f9288a57c903d8b6b991243f6e43a258d402c91e5d9b55fb07beeb08ee5eb23c465394ff62507805a625d446cee19f1739061bc152fae2f98cdfd7fc5756f198623d9597db9978f358112e5768e143d43c47fda621172fab0f6307e37981f6ac958d93b438bbdf4f735e841f05305ba01a1cef3916cb43a028abc54ee771adfde0e2607171ae2dc55ba66d0865bc57dc9d7a654ffb30f29f737afb9988b90984630cb161474a50c63fbef09a020020bfcc6708064c5bd5edd37d0657a2c4b4e3ac87dff3a235c0ba185b62dde91180347893c9518405838557504146ac625fb8c8b168a53aa8f2f7fbd22d41ece509cf47f34d2ace851ad542de7a65204037661a443b5c8a89440cc0289c91072e7977c38b626781312c9538db2578f69419608844152f16fedb05930b3a9c2fb79cbe89a938a5e9a7d59bf4ba647ed9aee1c2832e669be8c4eb18a402b627f93bbeafa59b7fa37999499849d62fc8b4c196a343d8c475609e649565ea3ef69a2e0cc9e577b97a8c0916fd659dc5a37237abc65f4ab311f415e5390501f778fe914860ce98994f269329445eb9d01a6e3654cecff8512c8cff2fa291b79133c35188edc61a0dfde2cf3b64284e019307a6f9bea07db79e442291d62f4449dd79ca76dcbe40db7f38ead876456fe0fc25a23c13b289f756893325360ecfd40100896443cce35b8a1d2b5a597c98f2a735a719759c62175de1edba8ef20d3e357b981e5abc053ef39be5ec9120186ea002c837fa81fc1cdce0e414e040005a424ac16b713b3b567098d53d3a03b7a1019683934decfa345c6edbd9ce3b1154f95cf0f82c42880f04efc1237cca4aca806d4d639ea853cb089359a0ae48f11464d6034b171270cd7299d4167f09987c51b3bb3daa7440eafff57c2c025d38828dfb2e697d49b7db99cfe428cf90df8efea98bc3617f1d30d4a6d8776aedc7eb78a20836c65980cf8f3826d9d079763e32e4eaeb99e6be90857304c9499d0935baab0de5aa1ce25685881914101d38aad2cc419d4b7cc92674a8d6256b94c9c70fad0ef3cc8459672fa3a2c63781a157b42e3153dc8dc781221a5b47191726dcbf93b8f1add92d5c54e40e96866f3e06417ca346dcc136cca74cbdb66ad48b802d44fb2e1985e8198831e4650acaaf011ffc201cb7847ee6e11823bfbad62135902df14cbfb5417a6853e67513be5a71949c76d9fa4a16d5b4583d8c7d2bf29d8c039b66d21291f620e6237ae416650b72d1ff35727daf7f3319c98e8b3f6f02c9d5cf76f5e852b23c22e9c5e642ec0d8c8a691cc455df57e449bc06d421e7bb19d95b642f6d1dfb9c6942691ac3f38017517ffff517c5f023a3ebf7e33221fa632a5e62762c5050e700d3da2695f927ae1991003b8bffe1422d8198bfc9d34f049b79200c8a303ef37fc0f76f6e93a3c71b29d57ae7e4fd97172265f332308ff155a7f73bcfe99077370c33ded67d01fa720c1fb46930a32e79559c5e60278920db86f289b4b143298b85122abce91496068d3b2707389eeaf384a6fec56f0fa6222cef170db5f0e8b7467376c8586fcda83f540080e16cf20b6daa2c386a65fd3a4ccd26aa8f34989c6227a1668cfa1c796749dce5ef0656bce45de556a05021bfac52205b853932929be661f96358de85222357eaeaf46cc978227c3302df87c5ffcf4452ca69c2c499e789c0121a6a75e519d38388d0fadca4c5b432d230ed335e73a0e270a1dc593b830667785d50c61cadded5ab4d47f4623bf34e4edca987cd58d44f29b4ffa8a234109981be49565280e5f8b37b0106642d46306f6000e2031344f526b7eb2ced5def0f3f40a13182155607076787ea1a3a9bed3dce6f6f732446173bbd1dae9f1fd1a2342496267737e7f888d99a1a5a7a9b4dde4e7fa000000000000000000000000000010232d4201fd21050028d21047f68d1b06a056fa2f846ef3c01dab6d1bafb55402c64a91c08257659fa9ab47f218f0e44677b419d34c9ad5a2db09e3a2d9d9707841a04c0cf15dd672bc6d0d2fa7fd7c8acdf130cd3221e7b2628703e893b86a66f4d79689252eae151d301796898efaa773a50a163f25472e72b5d568bd404256d7d99505af5e6ce9969335ada8323cbfe462426f2dabd321a7b6adbbb1e09b54bb5d6af6218657cdc533cd758c54072f7ec76c9d43e2382acde46057691b4926e58c60195570f9429f25c059d89489ff86f9fe6bfbd5c65b23a57fb95ffbae57e990ec53203be1df78a21701a1a39fcda411f48a127db8ae839f394245347d7f7b7c4c29292d0714e295a225b3a3fef429014387b9c7180e887f628567fff298716fd91e0af9dee582126e99afe80680bc68a91a09a1f40fe931f45ec143e70a0165259640cbdeb0951d43b35cd0f773b33d109f526979956ce843eb32dd9a6729f108395b7e2924c923500cb16fabfdb11b23311aa44ea6b3f4d780520b561ae46be00b4c7f8b4d8e3e44537bfb4a188e4edf87ca37f363e9c619a8d59415ed35fa82d0339c1f21143ccc067fb2590094070a6e688f17091cacc6e5975fbb2b59c9b6a31e4c36a18dfca52ab8244080aa6067e76fe7aa4843854e3b378cb06b3a0c669dbcc2bbd1b287656dea2326200963800b822eb926698e964d7d053f5d3f7dff36eeba38023ac22f55804c6601ded17a83b7d112f8478b0b33d68778e98edf31299873df9771c99f7e98d42bac42f7faf3821354f23cfe8c9d1f706715e90f64dccf6b7602d322d94e9339544b1c95c748c4cb1e1a41aa6c39dccb7e21dec79e21afe1ced74f1999f7cfd9d8990c140f7be76217f16ae355698d42c2fca8c4bcfde87dc75b361a4dd36d66e2be964882f50b0f14712067dc7bd6e61866a2c0e3b19172a0fcf2c294cdce1cec83d5929eec5e46ad86ad99ce6cb4e8efd606a13e4bb695c7e15add4ff22c6664ab4ebabbc8a0a257c9877cfe421fa42781f2bacb7c3a96ae71094e1e478f7ad18722aa47a936299dfe74bdf4c442bdbad41d87ded9af199269f3912059218068d1bca1a7218aee75e340992f4f6947383f4f3b26aaebcf46bfe236879e0ca68cab3bd9d92e171f53a58cc59e915fa07ac26479c8cf91bf616721adfc6aeb68b84b072fe0f747d9c993720574ad62a5dc99c767d34396609f16316b1b3b069069dc0fc548cabef73a87ae773b731d56d8fdacb166fb80f3f7df26a1f432e3c42128572f5d2708307d62194d9efdfb52c33d5811508aee9c683141f648a3e40eebe2faf0c4ece483c5137bdc0ea1f655057b53ed16f4efbbec48e13227b8fa2e93702fdf8de376280ced013d893d69ca7f4ec1116d0003d71156405497c882da8b34e5589eef6e4a36784756a473cf64e1636a2e574be11b818be60b6c44dbc6d53d06f41a7fab9b7445c9f45f5308933d4ab0c77b475ecf2b8793deeb6dfe97c1c2c62f905b53338483a40e33e5b5377632313d661fd47599896a1188a96ae9a1bb7c25a2bfda580d2791ba6bc95bf3a1bebeea608adc24a834e630850f557690457c631815cbdc22f8be1568a542424d8ef4d43137a1aee39977610ff5bb9135a6e3affd3749f1f4f2e05c44f07e65457f880c055f3fc2e14b9a65e760d4e589d2cbd7d7b6f4d4831f88e5c6489b0819735ad313cfdf4f2e26b4fd7e08d8b28f1d4e2eb22a4ed43caa35eaabc54f6a00c6d4c7e537aa189dbbd66051669b37a176380f49ea5964dfa72b4b21e6f644203acd1d44763746c7176892964c38d5ad8b1947d0e1da54d8fe686cb1f8a7471c45d3337a0bcdbb611b6c000000",
  "txid": "3fc1e948b48f56c59054607f4620a8237d89396f35e698b13d07b3d2b3c23afe",
  "hash": "93cb051e1c42ae593f7fa04a24f8f821816709e486c6bed0e5bb183b25d16e9d",
  "size": 5085,
  "vsize": 2278,
  "version": 1,
  "locktime": 108,
  "vin": [
    {
      "txid": "015ae6fc8007c216fe8c7b929ae4445bfbabbfb413ac6435c8084b0334b16a7c",
      "vout": 1,
      "scriptSig": {
        "asm": "",
        "hex": ""
      },
      "txinwitness": [
        "545ced98d7681c834ac69d264769692de3fba8d7dcf6599fbfbaca93949c178fe6ddf94d456203edc44c5f79bdad758f80b6facfa69c719fe326b5307c9d87ff212dfa40840de448a34b976b2d2bfff98813a27dbdd926d30c73e2a8b7450f9de0d23705d8f1cfc8b237b29478ca7f76648111430db78c09f03c2354570d66c17ad4bd6770d3b1c64789962badf9c64ccc0345ef2a5c89ef989a00a4756942531671cbf8cb20b47a7613a753040db5a48eb4540415f899e214e842f5a1a13d7d5d358868b92aae3efad03feb422e4a0b3cee069bb11965a381ea15881feda9485f4b9e73f3895e8b0d442c4da8069d433d5c139c244844b17fdbd1250f0d527b1bab41ebff947f6c2918fc6906f58e7a68acea97b8d7c01ef612be5362eb22accddbf48c03fdd86c8f79441f63a969bdce36d4f1f522ac7c357003e7d956e1992d94864557d4e8656a3aeed5f5c9c6fc9fa0d814460569dfe93270b6aeb3ec20b40aa062b2816054bbdb5821aac17382f8ef8dbfe4982b1ec09a01cc9f318acaf8b75b0b57dbc524929638556e88c42627a4aed69c23f08e59858716647db95a9b95b641339d7ccf990b51cc9f4498b57adbdf5f32cc53602715a7c0ba754cf624ed4a79d425c7f6c58555c361a6b6c78edf4e7fed9efb07b9f740055bd8611b417a660dc164dc299956c679152a17a4bdea525db9fb823e068f6eb5b670b4f5c5017ceec21369248d8067b94e44efea8356f1fb8af0bb8d78f381e793b6efa9fd2c8b6065e6adfba8853a48c3ccd9f17120483a22ed807bc400819ea65f845cdaeebfc084425b4f583d7f91954b6db70690ac01d2e90e28b143becb4029d0b5f6cf560c9233928573ec6655e0de0a5c30dcb401b349fe6ebdeca6aa7233095d8eb3a507f0cbd697e277ceae32ff49b8ff4707888b7f5e6ddd158725021741fb4f9adf85ae8253a65be732db15437ba10d5920c96fe518c8eedbb3a7209cfd6a2fc179353f202085272b4785b964a4e0891ed284f280a4e0ceeb9f2336f39e19c7f92e844279acbc4d5e899a471c97192ad9c0b68911887fad9dafeeddf8429c50b9984fd0bbc2fcd4d80c6e3896f17d16386192e5b36375b67f71f49b528408598e0818a40a697422165f48ece8a1e164258b0ff9a9a847f343da51e2addea39db218a7a72166bfbd99cc915020d8a7b3299427f27dfba51a61fb972fbb8cd9889f997abc8ba2b3fde181e5bb9c86992f7ae522ff38cab1da218771cd18a2e4620f3db9f274b4223f7c62c74d77a83b45a7a06cbc73302e10d41b72cd0a638106ea63baee4032ccf3a5018a1605a94b50781231be89afeab15540919835572e1afa0ce586d1cffa6dce6fbefdeb9368d054b09c8bb38c67acc5d49ff4999b582e0741cc049436d323b2705b2637d285ef13f65555f9af870f43ac81f5f76c3c58a284ca8bd8fee7141e6a346603497b11f56d72b99f9288a57c903d8b6b991243f6e43a258d402c91e5d9b55fb07beeb08ee5eb23c465394ff62507805a625d446cee19f1739061bc152fae2f98cdfd7fc5756f198623d9597db9978f358112e5768e143d43c47fda621172fab0f6307e37981f6ac958d93b438bbdf4f735e841f05305ba01a1cef3916cb43a028abc54ee771adfde0e2607171ae2dc55ba66d0865bc57dc9d7a654ffb30f29f737afb9988b90984630cb161474a50c63fbef09a020020bfcc6708064c5bd5edd37d0657a2c4b4e3ac87dff3a235c0ba185b62dde91180347893c9518405838557504146ac625fb8c8b168a53aa8f2f7fbd22d41ece509cf47f34d2ace851ad542de7a65204037661a443b5c8a89440cc0289c91072e7977c38b626781312c9538db2578f69419608844152f16fedb05930b3a9c2fb79cbe89a938a5e9a7d59bf4ba647ed9aee1c2832e669be8c4eb18a402b627f93bbeafa59b7fa37999499849d62fc8b4c196a343d8c475609e649565ea3ef69a2e0cc9e577b97a8c0916fd659dc5a37237abc65f4ab311f415e5390501f778fe914860ce98994f269329445eb9d01a6e3654cecff8512c8cff2fa291b79133c35188edc61a0dfde2cf3b64284e019307a6f9bea07db79e442291d62f4449dd79ca76dcbe40db7f38ead876456fe0fc25a23c13b289f756893325360ecfd40100896443cce35b8a1d2b5a597c98f2a735a719759c62175de1edba8ef20d3e357b981e5abc053ef39be5ec9120186ea002c837fa81fc1cdce0e414e040005a424ac16b713b3b567098d53d3a03b7a1019683934decfa345c6edbd9ce3b1154f95cf0f82c42880f04efc1237cca4aca806d4d639ea853cb089359a0ae48f11464d6034b171270cd7299d4167f09987c51b3bb3daa7440eafff57c2c025d38828dfb2e697d49b7db99cfe428cf90df8efea98bc3617f1d30d4a6d8776aedc7eb78a20836c65980cf8f3826d9d079763e32e4eaeb99e6be90857304c9499d0935baab0de5aa1ce25685881914101d38aad2cc419d4b7cc92674a8d6256b94c9c70fad0ef3cc8459672fa3a2c63781a157b42e3153dc8dc781221a5b47191726dcbf93b8f1add92d5c54e40e96866f3e06417ca346dcc136cca74cbdb66ad48b802d44fb2e1985e8198831e4650acaaf011ffc201cb7847ee6e11823bfbad62135902df14cbfb5417a6853e67513be5a71949c76d9fa4a16d5b4583d8c7d2bf29d8c039b66d21291f620e6237ae416650b72d1ff35727daf7f3319c98e8b3f6f02c9d5cf76f5e852b23c22e9c5e642ec0d8c8a691cc455df57e449bc06d421e7bb19d95b642f6d1dfb9c6942691ac3f38017517ffff517c5f023a3ebf7e33221fa632a5e62762c5050e700d3da2695f927ae1991003b8bffe1422d8198bfc9d34f049b79200c8a303ef37fc0f76f6e93a3c71b29d57ae7e4fd97172265f332308ff155a7f73bcfe99077370c33ded67d01fa720c1fb46930a32e79559c5e60278920db86f289b4b143298b85122abce91496068d3b2707389eeaf384a6fec56f0fa6222cef170db5f0e8b7467376c8586fcda83f540080e16cf20b6daa2c386a65fd3a4ccd26aa8f34989c6227a1668cfa1c796749dce5ef0656bce45de556a05021bfac52205b853932929be661f96358de85222357eaeaf46cc978227c3302df87c5ffcf4452ca69c2c499e789c0121a6a75e519d38388d0fadca4c5b432d230ed335e73a0e270a1dc593b830667785d50c61cadded5ab4d47f4623bf34e4edca987cd58d44f29b4ffa8a234109981be49565280e5f8b37b0106642d46306f6000e2031344f526b7eb2ced5def0f3f40a13182155607076787ea1a3a9bed3dce6f6f732446173bbd1dae9f1fd1a2342496267737e7f888d99a1a5a7a9b4dde4e7fa000000000000000000000000000010232d4201",
        "0028d21047f68d1b06a056fa2f846ef3c01dab6d1bafb55402c64a91c08257659fa9ab47f218f0e44677b419d34c9ad5a2db09e3a2d9d9707841a04c0cf15dd672bc6d0d2fa7fd7c8acdf130cd3221e7b2628703e893b86a66f4d79689252eae151d301796898efaa773a50a163f25472e72b5d568bd404256d7d99505af5e6ce9969335ada8323cbfe462426f2dabd321a7b6adbbb1e09b54bb5d6af6218657cdc533cd758c54072f7ec76c9d43e2382acde46057691b4926e58c60195570f9429f25c059d89489ff86f9fe6bfbd5c65b23a57fb95ffbae57e990ec53203be1df78a21701a1a39fcda411f48a127db8ae839f394245347d7f7b7c4c29292d0714e295a225b3a3fef429014387b9c7180e887f628567fff298716fd91e0af9dee582126e99afe80680bc68a91a09a1f40fe931f45ec143e70a0165259640cbdeb0951d43b35cd0f773b33d109f526979956ce843eb32dd9a6729f108395b7e2924c923500cb16fabfdb11b23311aa44ea6b3f4d780520b561ae46be00b4c7f8b4d8e3e44537bfb4a188e4edf87ca37f363e9c619a8d59415ed35fa82d0339c1f21143ccc067fb2590094070a6e688f17091cacc6e5975fbb2b59c9b6a31e4c36a18dfca52ab8244080aa6067e76fe7aa4843854e3b378cb06b3a0c669dbcc2bbd1b287656dea2326200963800b822eb926698e964d7d053f5d3f7dff36eeba38023ac22f55804c6601ded17a83b7d112f8478b0b33d68778e98edf31299873df9771c99f7e98d42bac42f7faf3821354f23cfe8c9d1f706715e90f64dccf6b7602d322d94e9339544b1c95c748c4cb1e1a41aa6c39dccb7e21dec79e21afe1ced74f1999f7cfd9d8990c140f7be76217f16ae355698d42c2fca8c4bcfde87dc75b361a4dd36d66e2be964882f50b0f14712067dc7bd6e61866a2c0e3b19172a0fcf2c294cdce1cec83d5929eec5e46ad86ad99ce6cb4e8efd606a13e4bb695c7e15add4ff22c6664ab4ebabbc8a0a257c9877cfe421fa42781f2bacb7c3a96ae71094e1e478f7ad18722aa47a936299dfe74bdf4c442bdbad41d87ded9af199269f3912059218068d1bca1a7218aee75e340992f4f6947383f4f3b26aaebcf46bfe236879e0ca68cab3bd9d92e171f53a58cc59e915fa07ac26479c8cf91bf616721adfc6aeb68b84b072fe0f747d9c993720574ad62a5dc99c767d34396609f16316b1b3b069069dc0fc548cabef73a87ae773b731d56d8fdacb166fb80f3f7df26a1f432e3c42128572f5d2708307d62194d9efdfb52c33d5811508aee9c683141f648a3e40eebe2faf0c4ece483c5137bdc0ea1f655057b53ed16f4efbbec48e13227b8fa2e93702fdf8de376280ced013d893d69ca7f4ec1116d0003d71156405497c882da8b34e5589eef6e4a36784756a473cf64e1636a2e574be11b818be60b6c44dbc6d53d06f41a7fab9b7445c9f45f5308933d4ab0c77b475ecf2b8793deeb6dfe97c1c2c62f905b53338483a40e33e5b5377632313d661fd47599896a1188a96ae9a1bb7c25a2bfda580d2791ba6bc95bf3a1bebeea608adc24a834e630850f557690457c631815cbdc22f8be1568a542424d8ef4d43137a1aee39977610ff5bb9135a6e3affd3749f1f4f2e05c44f07e65457f880c055f3fc2e14b9a65e760d4e589d2cbd7d7b6f4d4831f88e5c6489b0819735ad313cfdf4f2e26b4fd7e08d8b28f1d4e2eb22a4ed43caa35eaabc54f6a00c6d4c7e537aa189dbbd66051669b37a176380f49ea5964dfa72b4b21e6f644203acd1d44763746c7176892964c38d5ad8b1947d0e1da54d8fe686cb1f8a7471c45d3337a0bcdbb611b"
      ],
      "sequence": 4294967294
    }
  ],
  "vout": [
    {
      "value": 499989.831,
      "n": 0,
      "scriptPubKey": {
        "asm": "1 d22bb1f291ecaae487ffcc6744f5eedce550b6d3254542e39e218144b1a7f132",
        "hex": "5120d22bb1f291ecaae487ffcc6744f5eedce550b6d3254542e39e218144b1a7f132",
        "reqSigs": 1,
        "type": "witness_v1_scripthash",
        "addresses": [
          "3QJmnh"
        ]
      }
    },
    {
      "value": 1.0,
      "n": 1,
      "scriptPubKey": {
        "asm": "OP_RETURN 2374c859926e1678e4b28265ea5f249db8e2d2e2984a7357b540813994a4094a e1215c0634f17adbc4d322ea11a3be6c2756f2d9afcc7300ac4c5d50f0752374c1017c2614d15afbe4f302ca31839e4c0776d2f98fec53208c6c7d70d0550354a1611c4674b13a9b849362aa51e3fe2c6716b299ef8c3340ec0c1d10b035633481413c6654911abba4b3428a71c3de0c473692b9cfac1360cc2c3d309015431461a1dc86b471fa5b4453a26a91233eeca7d672592f4cf3802cccddd070f5a3f44181fca69451da7b6473824ab1031ecc87f652790f6cd3a00cecfdf050d583d421e19cc6f431ba1b0413e22ad1637eace79632196f0cb3c06c8c9d9030b5e3b401c1bce6d4119a3b2433c20af1435e8cc7b612394f2c93e04cacbdb01095c394e1215c0634f17adbc4d322ea11a3be6c2756f2d9afcc7300ac4c5d50f0752374c1017c2614d15afbe4f302ca31839e4c0776d2f98fec53208c6c7d70d0550354a1611c4674b13a9b849362aa51e3fe2c6716b299ef8c3340ec0c1d10b035633481413c6654911abba4b3428a71c3de0c473692b9cfac1360cc2c3d309015431461a1dc86b471fa5b4453a26a91233eeca7d672592f4cf3802cccddd070f5a3f44181fca69451da7b6473824ab1031ecc87f652790f6cd3a00cecfdf050d583d421e19cc6f431ba1b0413e22ad1637eace79632196f0cb3c06c8c9d9030b5e3b401c1bce6d4119a3b2433c20af1435e8cc7b612394f2c93e04cacbdb01095c394e1215c0634f17adbc4d322ea11a3be6c2756f2d9afcc7300ac4c5d50f0752374c1017c2614d15afbe4f302ca31839e4c0776d2f98fec53208c6c7d70d0550354a1611c4674b13a9b849362aa51e3fe2c6716b299ef8c3340ec0c1d10b035633481413c6654911abba4b3428a71c3de0c473692b9cfac1360cc2c3d309015431461a1dc86b471fa5b4453a26a91233eeca7d672592f4cf3802cccddd070f5a3f44181fca69451da7b6473824ab1031ecc87f652790f6cd3a00cecfdf050d583d421e19cc6f431ba1b0413e22ad1637eace79632196f0cb3c06c8c9d9030b5e3b401c1bce6d4119a3b2433c20af1435e8cc7b612394f2c93e04cacbdb01095c394e1215c0634f17adbc4d322ea11a3be6c2756f2d9afcc7300ac4c5d50f0752374c1017c2614d15afbe4f302ca31839e4c0776d2f98fec53208c6c7d70d0550354a1611c4674b13a9b849362aa51e3fe2c6716b299ef8c3340ec0c1d10b035633481413c6654911abba4b3428a71c3de0c473692b9cfac1360cc2c3d309015431461a1dc86b471fa5b4453a26a91233eeca7d672592f4cf3802cccddd070f5a3f44181fca69451da7b6473824ab1031ecc87f652790f6cd3a00cecfdf050d583d421e19cc6f431ba1b0413e22ad1637eace79632196f0cb3c06c8c9d9030b5e3b401c1bce6d4119a3b2433c20af1435e8cc7b612394f2c93e04cacbdb01095c394e1215c0634f17adbc4d322ea11a3be6c2756f2d9afcc7300ac4c5d50f0752374c1017c2614d15afbe4f302ca31839e4c0776d2f98fec53208c6c7d70d0550354a1611c4674b13a9b849362aa51e3fe2c6716b299ef8c3340ec0c1d10b035633481413c6654911abba4b3428a71c3de0c473692b9cfac1360cc2c3d309015431461a1dc86b471fa5b4453a26a91233eec4d6eb21e8501fd009841f6118e95738ea1b10de18952e665c9b487b0ede28f32",
        "hex": "6a202374c859926e1678e4b28265ea5f249db8e2d2e2984a7357b540813994a4094a4db004e1215c0634f17adbc4d322ea11a3be6c2756f2d9afcc7300ac4c5d50f0752374c1017c2614d15afbe4f302ca31839e4c0776d2f98fec53208c6c7d70d0550354a1611c4674b13a9b849362aa51e3fe2c6716b299ef8c3340ec0c1d10b035633481413c6654911abba4b3428a71c3de0c473692b9cfac1360cc2c3d309015431461a1dc86b471fa5b4453a26a91233eeca7d672592f4cf3802cccddd070f5a3f44181fca69451da7b6473824ab1031ecc87f652790f6cd3a00cecfdf050d583d421e19cc6f431ba1b0413e22ad1637eace79632196f0cb3c06c8c9d9030b5e3b401c1bce6d4119a3b2433c20af1435e8cc7b612394f2c93e04cacbdb01095c394e1215c0634f17adbc4d322ea11a3be6c2756f2d9afcc7300ac4c5d50f0752374c1017c2614d15afbe4f302ca31839e4c0776d2f98fec53208c6c7d70d0550354a1611c4674b13a9b849362aa51e3fe2c6716b299ef8c3340ec0c1d10b035633481413c6654911abba4b3428a71c3de0c473692b9cfac1360cc2c3d309015431461a1dc86b471fa5b4453a26a91233eeca7d672592f4cf3802cccddd070f5a3f44181fca69451da7b6473824ab1031ecc87f652790f6cd3a00cecfdf050d583d421e19cc6f431ba1b0413e22ad1637eace79632196f0cb3c06c8c9d9030b5e3b401c1bce6d4119a3b2433c20af1435e8cc7b612394f2c93e04cacbdb01095c394e1215c0634f17adbc4d322ea11a3be6c2756f2d9afcc7300ac4c5d50f0752374c1017c2614d15afbe4f302ca31839e4c0776d2f98fec53208c6c7d70d0550354a1611c4674b13a9b849362aa51e3fe2c6716b299ef8c3340ec0c1d10b035633481413c6654911abba4b3428a71c3de0c473692b9cfac1360cc2c3d309015431461a1dc86b471fa5b4453a26a91233eeca7d672592f4cf3802cccddd070f5a3f44181fca69451da7b6473824ab1031ecc87f652790f6cd3a00cecfdf050d583d421e19cc6f431ba1b0413e22ad1637eace79632196f0cb3c06c8c9d9030b5e3b401c1bce6d4119a3b2433c20af1435e8cc7b612394f2c93e04cacbdb01095c394e1215c0634f17adbc4d322ea11a3be6c2756f2d9afcc7300ac4c5d50f0752374c1017c2614d15afbe4f302ca31839e4c0776d2f98fec53208c6c7d70d0550354a1611c4674b13a9b849362aa51e3fe2c6716b299ef8c3340ec0c1d10b035633481413c6654911abba4b3428a71c3de0c473692b9cfac1360cc2c3d309015431461a1dc86b471fa5b4453a26a91233eeca7d672592f4cf3802cccddd070f5a3f44181fca69451da7b6473824ab1031ecc87f652790f6cd3a00cecfdf050d583d421e19cc6f431ba1b0413e22ad1637eace79632196f0cb3c06c8c9d9030b5e3b401c1bce6d4119a3b2433c20af1435e8cc7b612394f2c93e04cacbdb01095c394e1215c0634f17adbc4d322ea11a3be6c2756f2d9afcc7300ac4c5d50f0752374c1017c2614d15afbe4f302ca31839e4c0776d2f98fec53208c6c7d70d0550354a1611c4674b13a9b849362aa51e3fe2c6716b299ef8c3340ec0c1d10b035633481413c6654911abba4b3428a71c3de0c473692b9cfac1360cc2c3d309015431461a1dc86b471fa5b4453a26a91233eec4d6eb21e8501fd009841f6118e95738ea1b10de18952e665c9b487b0ede28f32",
        "type": "nulldata"
      }
    }
  ],
  "blockhash": "fed18006ccdab590a9e00afae0c126c0756e5b686d02c0375b028c4c6af5cb31",
  "confirmations": 1,
  "time": 1764177489,
  "blocktime": 1764177489
}