{
  "hex": "0100000000010199e0d5ccbeddd7f344855a2fe6add99ce532d607db3fbc98ae3e2178e793e0ee0000000000feffffff0270cc3221792d0000225120b863e5ece91d08382ab44b80b3fa43ddb868f32c5bb4f8b7270fc6a00b916bc100e1f50500000000fdd5046a200acc7fa0d189338a50f5f4fed0f2a916af145925345b0b97079d5daf9be3717a4db004e635937b7df535accf7f0e76aaab290cb202704b8909d2e6ff2ff122eff60339c615b35b5dd5158cef5f2e568a8b092c9222506ba929f2c6df0fd102cfd62319a675d33b3db575ec8f3f4e36eaeb694cf242300bc94992a6bf6fb162afb643798655f31b1d9555ccaf1f6e16cacb496cd262102be969b2869f4f91428f96635966b513fbfd75b52c4fff8ef62a2ba98c3282f0cb098952667faf71a26f7683b9469533dbdd55950c6fdfaed60a0b89ac12a2d0eb29a972465f8f51824f56a39926f553bbbd35f56c0fbfceb66a6be9cc72c2b08b49c912263fef31e22f36c3f906d5739b9d15d54c2f9fee964a4bc9ec52e290ab69e932061fcf11c20f16e3d9e635937b7df535accf7f0e76aaab290cb202704b8909d2e6ff2ff122eff60339c615b35b5dd5158cef5f2e568a8b092c9222506ba929f2c6df0fd102cfd62319a675d33b3db575ec8f3f4e36eaeb694cf242300bc94992a6bf6fb162afb643798655f31b1d9555ccaf1f6e16cacb496cd262102be969b2869f4f91428f96635966b513fbfd75b52c4fff8ef62a2ba98c3282f0cb098952667faf71a26f7683b9469533dbdd55950c6fdfaed60a0b89ac12a2d0eb29a972465f8f51824f56a39926f553bbbd35f56c0fbfceb66a6be9cc72c2b08b49c912263fef31e22f36c3f906d5739b9d15d54c2f9fee964a4bc9ec52e290ab69e932061fcf11c20f16e3d9e635937b7df535accf7f0e76aaab290cb202704b8909d2e6ff2ff122eff60339c615b35b5dd5158cef5f2e568a8b092c9222506ba929f2c6df0fd102cfd62319a675d33b3db575ec8f3f4e36eaeb694cf242300bc94992a6bf6fb162afb643798655f31b1d9555ccaf1f6e16cacb496cd262102be969b2869f4f91428f96635966b513fbfd75b52c4fff8ef62a2ba98c3282f0cb098952667faf71a26f7683b9469533dbdd55950c6fdfaed60a0b89ac12a2d0eb29a972465f8f51824f56a39926f553bbbd35f56c0fbfceb66a6be9cc72c2b08b49c912263fef31e22f36c3f906d5739b9d15d54c2f9fee964a4bc9ec52e290ab69e932061fcf11c20f16e3d9e635937b7df535accf7f0e76aaab290cb202704b8909d2e6ff2ff122eff60339c615b35b5dd5158cef5f2e568a8b092c9222506ba929f2c6df0fd102cfd62319a675d33b3db575ec8f3f4e36eaeb694cf242300bc94992a6bf6fb162afb643798655f31b1d9555ccaf1f6e16cacb496cd262102be969b2869f4f91428f96635966b513fbfd75b52c4fff8ef62a2ba98c3282f0cb098952667faf71a26f7683b9469533dbdd55950c6fdfaed60a0b89ac12a2d0eb29a972465f8f51824f56a39926f553bbbd35f56c0fbfceb66a6be9cc72c2b08b49c912263fef31e22f36c3f906d5739b9d15d54c2f9fee964a4bc9ec52e290ab69e932061fcf11c20f16e3d9e635937b7df535accf7f0e76aaab290cb202704b8909d2e6ff2ff122eff60339c615b35b5dd5158cef5f2e568a8b092c9222506ba929f2c6df0fd102cfd62319a675d33b3db575ec8f3f4e36eaeb694cf242300bc94992a6bf6fb162afb643798655f31b1d9555ccaf1f6e16cacb496cd262102be969b2869f4f91428f96635966b513fbfd75b52c4fff8ef62a2ba98ccec4582253e21c8c0c11b7cc8375da67850f81e00b12d120ec5886e8a1a6ca7502fd750994b8b638919f1102e2a89c33b323aa44cbe80590337f7a6354785a9731ae78137ede8860ac2b2b565b774ec0c84bfc24a8c2d374268273dd717063e6ae22dca9369372c02c33f762879c1c48fc5fc2474009e8f75d5c1c96dadabebf618d065deacb23249f75e30e7e02c4fd51a584390cd9297155230012701a63586bfb7a88651cdfceec563df43146049cf6966d75da89e56151b66bd431825f0ac13af818123b81c9847ae2a6f30ee6d35de31d24749ce59f21ba9a6896e1aaf996eaf66885064eb33d3735366bf65710d9c8dc786dd1f08d6697bdb399a13e75aedfa4ddf103c12869c476750a79dd3528b1a7eaba53bee698e7e3c4164594ec30af3254fbb9c2fe20eae8dbb446c07bf2ddd95bdf9a4a91c73c097da97889ecc44da84cfbda641fc025330e3285e4a3422f1a9c9f0cddedd97b399a90b1f20caba0dd0590a88e7114c5a5ba54968a0030a77baa7bff7237036114817f4458416ed0b23d9777883eae460c60fcf23b0db752243fc4be4f4ea2e70709f71a23f404ab99417fe2f7890c595f0ddbda55cf7b49351b0462e81b3e7f4848c6da91d275eb441895992427d0d28a69eb092ec37f5fb6e209159e202875d70c26d9153118c0e29c128ac7e8c402583588e8323bc1c995e39cbe96e9f6c7577b5a89fab0308fb1e0220a628a7514484d17f9b07c896c28ca033efdc6f82e595988f07a46e48408e737ca657a54c8222440705c6fa0d836c9ed6f95591170c63b876f552159017b7968406c76409551b4fa7042d6f350e446357d09c0f2ece6573144cd4305545518c1a7c026baa29c4aa3aed3178c31caa3cce7aa5ffffdb71177529ebeba42de34f164bc43a221784518b6a4399d6b5fb9ffa06a2239d903bb0536b32687cc2c113ed9ed27b1d9987fd9111f419d0e36df3de6b66da59cd7a984c497fe4923e7089c2cff909428a8bdea52d0d4ba685e27075c5f527454eec2b80d8a3b21c39c3947334e1946db9c3d49165a7f41523b786c4007b5fc0c3bd15d2922fdc1c23f853927eb5d90ec036505269d7afcb7f6cfa0d295f4b29dc3f8090f68bc8c4eea23521fee4627013ec793fea35953d15f18c71a053e759dbd738072afa675317762326fac4deaf1cdd3052b424d0d1eca4a1080ee0da986ac2777143af88c119ed31f36880c6b078d553daae6427a5455774d9cab8a0d6bdeb3a229dc60fbce0ea2555c75f5ef57ba85d00c5956676bf0f5a2635f0c804b54042d27d6867ac6620bf51e4e6716b2805a0f72189a8fcc8263338ce109a9a05c8d4bff56bcf04906abb2b8cdb482787e48971914b38a77623ba0b2ccd8b107a099a536b6a4af1c69cf09ce6ee54f415aad089f23be6976f8f7724536cb43384fc78c270d27ff140f30f55a94f6b0feedf97e74edba952461ecbba02a347d4804c16d1263bb9b34acc2e2e59d4d72cb93fa3e2d83f75c9b2295df103725436336be1902fe0482a27ac12efaa3f900b57f5e45abdafc8542c15ee33968d8370871167ff251be0dafc65dc46902e340af05c71b839a6aba65db094dfb57a17ad9d8af9f1c49fc072eb26f52bbfe7df79c98af0f2f7166a8a6dc8c594d83b4fc78b4b0db59c14c3316bdbb2360dc6bb5445d6cd06b78fe0b9bf7ece6e62e7212148e9d3039b906701f7d94ab55ac277d00f39c6b20f3672676f8ff7de780fe8d98309826947f3ee41aa91349ea4bca8e1feca184be8b80915f143a84894cbe11e385e0a00c61909aa39e73afaad829814f578c66e3795f552880dcc6d2aea45ea60d9b44337c8ab5d5dad48f3d1b9f15fd028d113ec80f6ba1eed96a835f8bef859e008394b4f8643fc9a76174704d13283a035e7a717137f2136ffd19a348598c71c2432d20510e395d66ac834d21364ffce20da1895807f21e75b15d1455d0bed8d67f04932db78e17a11748075436d79e4ac148bda8bce264c7faa3cc6faa991f78f8c793f336129219965186df0881b492253f3a6dfe17291a373008a5adf82733fa5280f66660e2f6ec23e85e9306e36c9eeeabdae6582ddfc97f311db7cf61cb06ec3837f2118c2b249412475f27f6e9bcbb2e8858227cd9cced5229392c32a9119dbb6f578293784b5fa69ee6735e87b8db216cd0625627433d64e71c5f4ae3cd67c12cc4ae9e1ce7db33d2a092bd74f0207c16a8ac3dcf5ab5d00febe6a41b6965aed834ad5441e989bb9896a69bf51c232425a6bc415b5dceeb986fd70b8fef7d47d5a9feef75de78515d774f1e8f27e7031b291e5219c56fba4dad1da34b5497082652ff469cde5a9e83b619b810a63b01613d311d812d5f4a644b8e2855ed32cac387e4eaea3e92fe1c9760ceb777e61846ec9b5dca45c784b70db634f1742e819af828b04678abcb1796d7eb93cbee0f686003a3ee45cd767080abfd41ee0c364b3d08bea2f85e35877c6c9bca0379e575f88ad043998d1a12be122ad5bad51b48b9c9b4bd1170125a39246eed4491c5b8a60a29d52f72d5df2a4e379b6991c503db564de9c3444618a1eece1d1dc0d476f754484050f636da6bd4933d5e211fd074506a36770c1f79a2fd2afcac7a1aa106f3ae447c9bd0a9716524689ac8d4c492cf53f182ef8ac5d18d843dba5ba761073c5779592e79b6de40e308e45bda056a77a3d0fc332022f524e73179bc1c3126f417f70ea9e6d35f06266b86bf53ad6dc178fd50b586606607f9a34f658469f66820a1044dee7528fb76167668ca96af54b63828b1ee76fa910a2d1bf9938f4f2ba5d9fa0de8da473989f022184654a65009f9948bca6a88ad56a621920ea866e40ebbec6ae27a397b48c1cc17812ad2a01e2d9a825172793c72e71aeb0afe7999aa63b28b5f35ff06827c2a1d0e5edccba30a9b9164c76a2912d858539982569ada9411098d99a60547cbf0000cead114aaaa65fe5929c72cee675d3ee5538dbd3dc10d8c75592afc55004d1b5fb5cc7ed2192ec47d20e35c8016a12381bf2180c128dd873befa23ad7c02efdedcd9ccebaa505a26a83746511459e00069858983fe2b8e1ceaa702b79a9b588ab33e01ad8728ee737d0b85cd1697051fd71b0c119ccb2a42be76da15635c4f2baaaff53d43d78b34a314dfa9023b1fb45a8d3b5ae01ae16331e8ff2c47c19279f6930bd1fac3880a51b9747f8ac5ae451d99568c7a2b636addb509c2c1ecc03e30b411b479d6bdda58bd02d66488d25d62723dab07313fe0b0aa4bc88b18fc0077cb7c704ca6acd5b6f3005d424de5de01411620c41ed67f206828169e2d57caf61ddb4c0211138456f7381aab0bfe2edff081b2a41728183dd071b23252b373f4460636e9aa3b0cbdee904111a262e2f344562656c808f97a3b0d8dde3ebf5f8fcfd000000000000000000000000000000000000000c14253d01fd2105005b4e929a9a2ecca1184ac8807d286a6500f0c0ea4fee2c89ea991e61acb4f177fb9dbbb2c41aaa2488f3fae8f090d2e3b96f9ab2205327a6f6222199ee03f4a99894dcde160a73642b04866fbf005be71bba3aa81dfeebb159f969b8c3314350fd35e1e30eed0d208918960d8c154ca9155dd6236d2a2f2e828cf544fd68ddb816d6629a6c07226c16cc456b7f39cdaaa5602f5ae7ccc90aa41d012b52daf719b829e4b1c219aa40e29910e6449f3bfd495f023519d8b90d2c95ec31c26d341ce83cea8a932b37a8729a8a0b1056d97877c3f2914e6b591266388b894c8405f75c61b97d9e2fed9e7ba292b3e3198d6df5d2af0d4655d397ad6c8931bfaee470067e9d26dc63642a8931b2905be14f3fd402dd3c755c6c8f9cffe94f7a23a44d0b6f68748c466bb7b4fc6ad56d988726c5cb4245e442ce864dba78ac4ac9bb5a4802cf00a67712858c0ee3999d6510e722d19302c1a42428845384c22b61b74c87595e1ca05d355010ea4741a3cc5f5a60729ee01b08390d83decfb01f1f3f4c2012fb44a6a4dc30fe7fd8801139c8ea446660a0d5492e83c43cfd4e880e22de25dd6eb41dc285ba88cbdefeec285924140e08240b186eb21f293364eb682ee40896dd021ab772f1d9050d522f48ddc5a231a4b082593f752282331ee3eeabc04439fc38bc118144273bd450544db2cedc5ee34d40ccccb46e5cc78ad35e667511786cd62680f29c3f052b38f2c8aa397b3d0291a18d00a23a15c13364c768163f096b0cea86447a63191e72499e773e710c5303139ac0e466d372f948b11a04b8e8bf113532d1f428e981fda5027276ad7dfda879505c018ade2a6797d5a63d2e5ca3ba94bd83640d890a9a1063360b146a09fcb7a8c4d0b68c3714fdc9f14c8ec128cd3cf8cf6f9fc614fcfec2429fa2c06b19ed06a9a687d18010490519577874ea414025b824cd14667b20c1192d9d8dde203fd3628421cd839d97ff870aaa8b7635c51de461ebb68f74324ccc46cc972404a74e59bb888a94eb2704d3473be308dc2c33633ed6894a204107d21db6b989d5ad1ab4f2cbc5ea8e78cfe4139d1e7642ccd653c2ae7bead908ec3d74a714e2511e13cdc5d7028afcee96219412e96489dadd527dc6081ecbe4de8193524cee5cc390c5b42e8c270d3543d058c6dd735d0fcdab701548624cbd7f3c1e16ccb74916c177b740389236a41e1078eff41d9d2ffb69b9dbd413f17dd2699bce9bd06afed36b2382a654a841b183a048f6ba6f191badaf52ce1938935840b6e315953eae76b0663579d1dc290b54b9eb91456fdb1e44c307f6bb262646229e27992c4ac366301b18ac0cac0adbd094bc33b8abc5ae668e73a2dc574fff55b95fd80a3464fe5945aeca139760e20915c979e77701cf8c7b62c965a2a81ae21f54cfa7f2048146f7ee0daab6c8921f17afe8d6e1868515fb0958dafae94c8c0f31085d16337b5c44bcb9a59931a28d40063c2f2019464e069317015397fab2ee0093cd9389befa68c63b059dbf7d7717310d5a5a389246d8ed50d3c443b96fa584bce754500dc257bb03c861befb3ed31578bc068f2e96c4f75380ed6873c6fb2b9f5f859277a917ec832bb6d7dc58679a038bfab3f282483c6c1e8e096bd7e3fd17355dc28d52686c28a70869ad4e5c649da83fb7663e96d57837709fc1d14b0763487f941e420d18d728a2fa5220ea61cd66e96471df5b537458cd0bc056c1d8a29e19bc2d02697824f102bc77114abec91d4f15750a40421f7a8704b35b4c8fb1def0da40948a601022b1f7aae4192a30ea856601b1e4f5acd3998f992e7caf46ec15139b080c7228a148af4f1f4773000000",
  "txid": "340884b953da697905cf5239e0027d776b0577cafd2f1e1575c6277016b1d89d",
  "hash": "de419133cf9dc64f3338723849a023800ab26e0a23decc38a801c552d20fc153",
  "size": 5085,
  "vsize": 2278,
  "version": 1,
  "locktime": 115,
  "vin": [
    {
      "txid": "eee093e778213eae98bc3fdb07d632e59cd9ade62f5a8544f3d7ddbeccd5e099",
      "vout": 0,
      "scriptSig": {
        "asm": "",
        "hex": ""
      },
      "txinwitness": [
        "94b8b638919f1102e2a89c33b323aa44cbe80590337f7a6354785a9731ae78137ede8860ac2b2b565b774ec0c84bfc24a8c2d374268273dd717063e6ae22dca9369372c02c33f762879c1c48fc5fc2474009e8f75d5c1c96dadabebf618d065deacb23249f75e30e7e02c4fd51a584390cd9297155230012701a63586bfb7a88651cdfceec563df43146049cf6966d75da89e56151b66bd431825f0ac13af818123b81c9847ae2a6f30ee6d35de31d24749ce59f21ba9a6896e1aaf996eaf66885064eb33d3735366bf65710d9c8dc786dd1f08d6697bdb399a13e75aedfa4ddf103c12869c476750a79dd3528b1a7eaba53bee698e7e3c4164594ec30af3254fbb9c2fe20eae8dbb446c07bf2ddd95bdf9a4a91c73c097da97889ecc44da84cfbda641fc025330e3285e4a3422f1a9c9f0cddedd97b399a90b1f20caba0dd0590a88e7114c5a5ba54968a0030a77baa7bff7237036114817f4458416ed0b23d9777883eae460c60fcf23b0db752243fc4be4f4ea2e70709f71a23f404ab99417fe2f7890c595f0ddbda55cf7b49351b0462e81b3e7f4848c6da91d275eb441895992427d0d28a69eb092ec37f5fb6e209159e202875d70c26d9153118c0e29c128ac7e8c402583588e8323bc1c995e39cbe96e9f6c7577b5a89fab0308fb1e0220a628a7514484d17f9b07c896c28ca033efdc6f82e595988f07a46e48408e737ca657a54c8222440705c6fa0d836c9ed6f95591170c63b876f552159017b7968406c76409551b4fa7042d6f350e446357d09c0f2ece6573144cd4305545518c1a7c026baa29c4aa3aed3178c31caa3cce7aa5ffffdb71177529ebeba42de34f164bc43a221784518b6a4399d6b5fb9ffa06a2239d903bb0536b32687cc2c113ed9ed27b1d9987fd9111f419d0e36df3de6b66da59cd7a984c497fe4923e7089c2cff909428a8bdea52d0d4ba685e27075c5f527454eec2b80d8a3b21c39c3947334e1946db9c3d49165a7f41523b786c4007b5fc0c3bd15d2922fdc1c23f853927eb5d90ec036505269d7afcb7f6cfa0d295f4b29dc3f8090f68bc8c4eea23521fee4627013ec793fea35953d15f18c71a053e759dbd738072afa675317762326fac4deaf1cdd3052b424d0d1eca4a1080ee0da986ac2777143af88c119ed31f36880c6b078d553daae6427a5455774d9cab8a0d6bdeb3a229dc60fbce0ea2555c75f5ef57ba85d00c5956676bf0f5a2635f0c804b54042d27d6867ac6620bf51e4e6716b2805a0f72189a8fcc8263338ce109a9a05c8d4bff56bcf04906abb2b8cdb482787e48971914b38a77623ba0b2ccd8b107a099a536b6a4af1c69cf09ce6ee54f415aad089f23be6976f8f7724536cb43384fc78c270d27ff140f30f55a94f6b0feedf97e74edba952461ecbba02a347d4804c16d1263bb9b34acc2e2e59d4d72cb93fa3e2d83f75c9b2295df103725436336be1902fe0482a27ac12efaa3f900b57f5e45abdafc8542c15ee33968d8370871167ff251be0dafc65dc46902e340af05c71b839a6aba65db094dfb57a17ad9d8af9f1c49fc072eb26f52bbfe7df79c98af0f2f7166a8a6dc8c594d83b4fc78b4b0db59c14c3316bdbb2360dc6bb5445d6cd06b78fe0b9bf7ece6e62e7212148e9d3039b906701f7d94ab55ac277d00f39c6b20f3672676f8ff7de780fe8d98309826947f3ee41aa91349ea4bca8e1feca184be8b80915f143a84894cbe11e385e0a00c61909aa39e73afaad829814f578c66e3795f552880dcc6d2aea45ea60d9b44337c8ab5d5dad48f3d1b9f15fd028d113ec80f6ba1eed96a835f8bef859e008394b4f8643fc9a76174704d13283a035e7a717137f2136ffd19a348598c71c2432d20510e395d66ac834d21364ffce20da1895807f21e75b15d1455d0bed8d67f04932db78e17a11748075436d79e4ac148bda8bce264c7faa3cc6faa991f78f8c793f336129219965186df0881b492253f3a6dfe17291a373008a5adf82733fa5280f66660e2f6ec23e85e9306e36c9eeeabdae6582ddfc97f311db7cf61cb06ec3837f2118c2b249412475f27f6e9bcbb2e8858227cd9cced5229392c32a9119dbb6f578293784b5fa69ee6735e87b8db216cd0625627433d64e71c5f4ae3cd67c12cc4ae9e1ce7db33d2a092bd74f0207c16a8ac3dcf5ab5d00febe6a41b6965aed834ad5441e989bb9896a69bf51c232425a6bc415b5dceeb986fd70b8fef7d47d5a9feef75de78515d774f1e8f27e7031b291e5219c56fba4dad1da34b5497082652ff469cde5a9e83b619b810a63b01613d311d812d5f4a644b8e2855ed32cac387e4eaea3e92fe1c9760ceb777e61846ec9b5dca45c784b70db634f1742e819af828b04678abcb1796d7eb93cbee0f686003a3ee45cd767080abfd41ee0c364b3d08bea2f85e35877c6c9bca0379e575f88ad043998d1a12be122ad5bad51b48b9c9b4bd1170125a39246eed4491c5b8a60a29d52f72d5df2a4e379b6991c503db564de9c3444618a1eece1d1dc0d476f754484050f636da6bd4933d5e211fd074506a36770c1f79a2fd2afcac7a1aa106f3ae447c9bd0a9716524689ac8d4c492cf53f182ef8ac5d18d843dba5ba761073c5779592e79b6de40e308e45bda056a77a3d0fc332022f524e73179bc1c3126f417f70ea9e6d35f06266b86bf53ad6dc178fd50b586606607f9a34f658469f66820a1044dee7528fb76167668ca96af54b63828b1ee76fa910a2d1bf9938f4f2ba5d9fa0de8da473989f022184654a65009f9948bca6a88ad56a621920ea866e40ebbec6ae27a397b48c1cc17812ad2a01e2d9a825172793c72e71aeb0afe7999aa63b28b5f35ff06827c2a1d0e5edccba30a9b9164c76a2912d858539982569ada9411098d99a60547cbf0000cead114aaaa65fe5929c72cee675d3ee5538dbd3dc10d8c75592afc55004d1b5fb5cc7ed2192ec47d20e35c8016a12381bf2180c128dd873befa23ad7c02efdedcd9ccebaa505a26a83746511459e00069858983fe2b8e1ceaa702b79a9b588ab33e01ad8728ee737d0b85cd1697051fd71b0c119ccb2a42be76da15635c4f2baaaff53d43d78b34a314dfa9023b1fb45a8d3b5ae01ae16331e8ff2c47c19279f6930bd1fac3880a51b9747f8ac5ae451d99568c7a2b636addb509c2c1ecc03e30b411b479d6bdda58bd02d66488d25d62723dab07313fe0b0aa4bc88b18fc0077cb7c704ca6acd5b6f3005d424de5de01411620c41ed67f206828169e2d57caf61ddb4c0211138456f7381aab0bfe2edff081b2a41728183dd071b23252b373f4460636e9aa3b0cbdee904111a262e2f344562656c808f97a3b0d8dde3ebf5f8fcfd000000000000000000000000000000000000000c14253d01",
        "005b4e929a9a2ecca1184ac8807d286a6500f0c0ea4fee2c89ea991e61acb4f177fb9dbbb2c41aaa2488f3fae8f090d2e3b96f9ab2205327a6f6222199ee03f4a99894dcde160a73642b04866fbf005be71bba3aa81dfeebb159f969b8c3314350fd35e1e30eed0d208918960d8c154ca9155dd6236d2a2f2e828cf544fd68ddb816d6629a6c07226c16cc456b7f39cdaaa5602f5ae7ccc90aa41d012b52daf719b829e4b1c219aa40e29910e6449f3bfd495f023519d8b90d2c95ec31c26d341ce83cea8a932b37a8729a8a0b1056d97877c3f2914e6b591266388b894c8405f75c61b97d9e2fed9e7ba292b3e3198d6df5d2af0d4655d397ad6c8931bfaee470067e9d26dc63642a8931b2905be14f3fd402dd3c755c6c8f9cffe94f7a23a44d0b6f68748c466bb7b4fc6ad56d988726c5cb4245e442ce864dba78ac4ac9bb5a4802cf00a67712858c0ee3999d6510e722d19302c1a42428845384c22b61b74c87595e1ca05d355010ea4741a3cc5f5a60729ee01b08390d83decfb01f1f3f4c2012fb44a6a4dc30fe7fd8801139c8ea446660a0d5492e83c43cfd4e880e22de25dd6eb41dc285ba88cbdefeec285924140e08240b186eb21f293364eb682ee40896dd021ab772f1d9050d522f48ddc5a231a4b082593f752282331ee3eeabc04439fc38bc118144273bd450544db2cedc5ee34d40ccccb46e5cc78ad35e667511786cd62680f29c3f052b38f2c8aa397b3d0291a18d00a23a15c13364c768163f096b0cea86447a63191e72499e773e710c5303139ac0e466d372f948b11a04b8e8bf113532d1f428e981fda5027276ad7dfda879505c018ade2a6797d5a63d2e5ca3ba94bd83640d890a9a1063360b146a09fcb7a8c4d0b68c3714fdc9f14c8ec128cd3cf8cf6f9fc614fcfec2429fa2c06b19ed06a9a687d18010490519577874ea414025b824cd14667b20c1192d9d8dde203fd3628421cd839d97ff870aaa8b7635c51de461ebb68f74324ccc46cc972404a74e59bb888a94eb2704d3473be308dc2c33633ed6894a204107d21db6b989d5ad1ab4f2cbc5ea8e78cfe4139d1e7642ccd653c2ae7bead908ec3d74a714e2511e13cdc5d7028afcee96219412e96489dadd527dc6081ecbe4de8193524cee5cc390c5b42e8c270d3543d058c6dd735d0fcdab701548624cbd7f3c1e16ccb74916c177b740389236a41e1078eff41d9d2ffb69b9dbd413f17dd2699bce9bd06afed36b2382a654a841b183a048f6ba6f191badaf52ce1938935840b6e315953eae76b0663579d1dc290b54b9eb91456fdb1e44c307f6bb262646229e27992c4ac366301b18ac0cac0adbd094bc33b8abc5ae668e73a2dc574fff55b95fd80a3464fe5945aeca139760e20915c979e77701cf8c7b62c965a2a81ae21f54cfa7f2048146f7ee0daab6c8921f17afe8d6e1868515fb0958dafae94c8c0f31085d16337b5c44bcb9a59931a28d40063c2f2019464e069317015397fab2ee0093cd9389befa68c63b059dbf7d7717310d5a5a389246d8ed50d3c443b96fa584bce754500dc257bb03c861befb3ed31578bc068f2e96c4f75380ed6873c6fb2b9f5f859277a917ec832bb6d7dc58679a038bfab3f282483c6c1e8e096bd7e3fd17355dc28d52686c28a70869ad4e5c649da83fb7663e96d57837709fc1d14b0763487f941e420d18d728a2fa5220ea61cd66e96471df5b537458cd0bc056c1d8a29e19bc2d02697824f102bc77114abec91d4f15750a40421f7a8704b35b4c8fb1def0da40948a601022b1f7aae4192a30ea856601b1e4f5acd3998f992e7caf46ec15139b080c7228a148af4f1f47"
      ],
      "sequence": 4294967294
    }
  ],
  "vout": [
    {
      "value": 499982.7127,
      "n": 0,
      "scriptPubKey": {
        "asm": "1 b863e5ece91d08382ab44b80b3fa43ddb868f32c5bb4f8b7270fc6a00b916bc1",
        "hex": "5120b863e5ece91d08382ab44b80b3fa43ddb868f32c5bb4f8b7270fc6a00b916bc1",
        "reqSigs": 1,
        "type": "witness_v1_scripthash",
        "addresses": [
          "3QJmnh"
        ]
      }
    },
    {
      "value": 1.0,
      "n": 1,
      "scriptPubKey": {
        "asm": "OP_RETURN 0acc7fa0d189338a50f5f4fed0f2a916af145925345b0b97079d5daf9be3717a e635937b7df535accf7f0e76aaab290cb202704b8909d2e6ff2ff122eff60339c615b35b5dd5158cef5f2e568a8b092c9222506ba929f2c6df0fd102cfd62319a675d33b3db575ec8f3f4e36eaeb694cf242300bc94992a6bf6fb162afb643798655f31b1d9555ccaf1f6e16cacb496cd262102be969b2869f4f91428f96635966b513fbfd75b52c4fff8ef62a2ba98c3282f0cb098952667faf71a26f7683b9469533dbdd55950c6fdfaed60a0b89ac12a2d0eb29a972465f8f51824f56a39926f553bbbd35f56c0fbfceb66a6be9cc72c2b08b49c912263fef31e22f36c3f906d5739b9d15d54c2f9fee964a4bc9ec52e290ab69e932061fcf11c20f16e3d9e635937b7df535accf7f0e76aaab290cb202704b8909d2e6ff2ff122eff60339c615b35b5dd5158cef5f2e568a8b092c9222506ba929f2c6df0fd102cfd62319a675d33b3db575ec8f3f4e36eaeb694cf242300bc94992a6bf6fb162afb643798655f31b1d9555ccaf1f6e16cacb496cd262102be969b2869f4f91428f96635966b513fbfd75b52c4fff8ef62a2ba98c3282f0cb098952667faf71a26f7683b9469533dbdd55950c6fdfaed60a0b89ac12a2d0eb29a972465f8f51824f56a39926f553bbbd35f56c0fbfceb66a6be9cc72c2b08b49c912263fef31e22f36c3f906d5739b9d15d54c2f9fee964a4bc9ec52e290ab69e932061fcf11c20f16e3d9e635937b7df535accf7f0e76aaab290cb202704b8909d2e6ff2ff122eff60339c615b35b5dd5158cef5f2e568a8b092c9222506ba929f2c6df0fd102cfd62319a675d33b3db575ec8f3f4e36eaeb694cf242300bc94992a6bf6fb162afb643798655f31b1d9555ccaf1f6e16cacb496cd262102be969b2869f4f91428f96635966b513fbfd75b52c4fff8ef62a2ba98c3282f0cb098952667faf71a26f7683b9469533dbdd55950c6fdfaed60a0b89ac12a2d0eb29a972465f8f51824f56a39926f553bbbd35f56c0fbfceb66a6be9cc72c2b08b49c912263fef31e22f36c3f906d5739b9d15d54c2f9fee964a4bc9ec52e290ab69e932061fcf11c20f16e3d9e635937b7df535accf7f0e76aaab290cb202704b8909d2e6ff2ff122eff60339c615b35b5dd5158cef5f2e568a8b092c9222506ba929f2c6df0fd102cfd62319a675d33b3db575ec8f3f4e36eaeb694cf242300bc94992a6bf6fb162afb643798655f31b1d9555ccaf1f6e16cacb496cd262102be969b2869f4f91428f96635966b513fbfd75b52c4fff8ef62a2ba98c3282f0cb098952667faf71a26f7683b9469533dbdd55950c6fdfaed60a0b89ac12a2d0eb29a972465f8f51824f56a39926f553bbbd35f56c0fbfceb66a6be9cc72c2b08b49c912263fef31e22f36c3f906d5739b9d15d54c2f9fee964a4bc9ec52e290ab69e932061fcf11c20f16e3d9e635937b7df535accf7f0e76aaab290cb202704b8909d2e6ff2ff122eff60339c615b35b5dd5158cef5f2e568a8b092c9222506ba929f2c6df0fd102cfd62319a675d33b3db575ec8f3f4e36eaeb694cf242300bc94992a6bf6fb162afb643798655f31b1d9555ccaf1f6e16cacb496cd262102be969b2869f4f91428f96635966b513fbfd75b52c4fff8ef62a2ba98ccec4582253e21c8c0c11b7cc8375da67850f81e00b12d120ec5886e8a1a6ca75",
        "hex": "6a200acc7fa0d189338a50f5f4fed0f2a916af145925345b0b97079d5daf9be3717a4db004e635937b7df535accf7f0e76aaab290cb202704b8909d2e6ff2ff122eff60339c615b35b5dd5158cef5f2e568a8b092c9222506ba929f2c6df0fd102cfd62319a675d33b3db575ec8f3f4e36eaeb694cf242300bc94992a6bf6fb162afb643798655f31b1d9555ccaf1f6e16cacb496cd262102be969b2869f4f91428f96635966b513fbfd75b52c4fff8ef62a2ba98c3282f0cb098952667faf71a26f7683b9469533dbdd55950c6fdfaed60a0b89ac12a2d0eb29a972465f8f51824f56a39926f553bbbd35f56c0fbfceb66a6be9cc72c2b08b49c912263fef31e22f36c3f906d5739b9d15d54c2f9fee964a4bc9ec52e290ab69e932061fcf11c20f16e3d9e635937b7df535accf7f0e76aaab290cb202704b8909d2e6ff2ff122eff60339c615b35b5dd5158cef5f2e568a8b092c9222506ba929f2c6df0fd102cfd62319a675d33b3db575ec8f3f4e36eaeb694cf242300bc94992a6bf6fb162afb643798655f31b1d9555ccaf1f6e16cacb496cd262102be969b2869f4f91428f96635966b513fbfd75b52c4fff8ef62a2ba98c3282f0cb098952667faf71a26f7683b9469533dbdd55950c6fdfaed60a0b89ac12a2d0eb29a972465f8f51824f56a39926f553bbbd35f56c0fbfceb66a6be9cc72c2b08b49c912263fef31e22f36c3f906d5739b9d15d54c2f9fee964a4bc9ec52e290ab69e932061fcf11c20f16e3d9e635937b7df535accf7f0e76aaab290cb202704b8909d2e6ff2ff122eff60339c615b35b5dd5158cef5f2e568a8b092c9222506ba929f2c6df0fd102cfd62319a675d33b3db575ec8f3f4e36eaeb694cf242300bc94992a6bf6fb162afb643798655f31b1d9555ccaf1f6e16cacb496cd262102be969b2869f4f91428f96635966b513fbfd75b52c4fff8ef62a2ba98c3282f0cb098952667faf71a26f7683b9469533dbdd55950c6fdfaed60a0b89ac12a2d0eb29a972465f8f51824f56a39926f553bbbd35f56c0fbfceb66a6be9cc72c2b08b49c912263fef31e22f36c3f906d5739b9d15d54c2f9fee964a4bc9ec52e290ab69e932061fcf11c20f16e3d9e635937b7df535accf7f0e76aaab290cb202704b8909d2e6ff2ff122eff60339c615b35b5dd5158cef5f2e568a8b092c9222506ba929f2c6df0fd102cfd62319a675d33b3db575ec8f3f4e36eaeb694cf242300bc94992a6bf6fb162afb643798655f31b1d9555ccaf1f6e16cacb496cd262102be969b2869f4f91428f96635966b513fbfd75b52c4fff8ef62a2ba98c3282f0cb098952667faf71a26f7683b9469533dbdd55950c6fdfaed60a0b89ac12a2d0eb29a972465f8f51824f56a39926f553bbbd35f56c0fbfceb66a6be9cc72c2b08b49c912263fef31e22f36c3f906d5739b9d15d54c2f9fee964a4bc9ec52e290ab69e932061fcf11c20f16e3d9e635937b7df535accf7f0e76aaab290cb202704b8909d2e6ff2ff122eff60339c615b35b5dd5158cef5f2e568a8b092c9222506ba929f2c6df0fd102cfd62319a675d33b3db575ec8f3f4e36eaeb694cf242300bc94992a6bf6fb162afb643798655f31b1d9555ccaf1f6e16cacb496cd262102be969b2869f4f91428f96635966b513fbfd75b52c4fff8ef62a2ba98ccec4582253e21c8c0c11b7cc8375da67850f81e00b12d120ec5886e8a1a6ca75",
        "type": "nulldata"
      }
    }
  ],
  "blockhash": "b157fe5006ea74e3e2696296011f5383f171fa956e468cbbd84742f98a1af3af",
  "confirmations": 1,
  "time": 1764179051,
  "blocktime": 1764179051
}