{
  "hex": "01000000000101c9ad83f03b142cf46e3edbb736c1c5b7781c759e807f4b3640dca629639c1a370000000000feffffff0270752d82792d0000225120a8a3a513d4d78e744524b0450c88f88e829d2b74617be027d5159e4e2bccfe2e00e1f50500000000fdd5046a20b86563d8fea85d1a686c5b46c9545950243e7c18d4e1a2c524fe2d8d5788ad664db0044733dc61b66456f94a620280de3008b75ba7f74667d3a0331ef4ad3a42dab25e6713fc41964476d96a4222a0fe1028977b87d76647f380133ed48d1a62fa927e07739c21f62416b90a2242c09e7048f71be7b7062793e0735eb4ed7a029af21e2753bc01d60436992a0262e0be5068d73bc7972607b3c0537e94cd5a22bad23ec7b35ce136e4d679cae282005eb08837db2777c6e75320b39e742dbac25a32dee7937cc116c4f659eac2a2207e90a817fb0757e6c7730093be540d9ae27a12fe87f31ca176a496398aa2c2401ef0c8779b673786a71360f3de346dfa821a729ea7d33c815684b619aa82e2603ed0e857bb4717a6873340d3fe144ddaa23a52be4733dc61b66456f94a620280de3008b75ba7f74667d3a0331ef4ad3a42dab25e6713fc41964476d96a4222a0fe1028977b87d76647f380133ed48d1a62fa927e07739c21f62416b90a2242c09e7048f71be7b7062793e0735eb4ed7a029af21e2753bc01d60436992a0262e0be5068d73bc7972607b3c0537e94cd5a22bad23ec7b35ce136e4d679cae282005eb08837db2777c6e75320b39e742dbac25a32dee7937cc116c4f659eac2a2207e90a817fb0757e6c7730093be540d9ae27a12fe87f31ca176a496398aa2c2401ef0c8779b673786a71360f3de346dfa821a729ea7d33c815684b619aa82e2603ed0e857bb4717a6873340d3fe144ddaa23a52be4733dc61b66456f94a620280de3008b75ba7f74667d3a0331ef4ad3a42dab25e6713fc41964476d96a4222a0fe1028977b87d76647f380133ed48d1a62fa927e07739c21f62416b90a2242c09e7048f71be7b7062793e0735eb4ed7a029af21e2753bc01d60436992a0262e0be5068d73bc7972607b3c0537e94cd5a22bad23ec7b35ce136e4d679cae282005eb08837db2777c6e75320b39e742dbac25a32dee7937cc116c4f659eac2a2207e90a817fb0757e6c7730093be540d9ae27a12fe87f31ca176a496398aa2c2401ef0c8779b673786a71360f3de346dfa821a729ea7d33c815684b619aa82e2603ed0e857bb4717a6873340d3fe144ddaa23a52be4733dc61b66456f94a620280de3008b75ba7f74667d3a0331ef4ad3a42dab25e6713fc41964476d96a4222a0fe1028977b87d76647f380133ed48d1a62fa927e07739c21f62416b90a2242c09e7048f71be7b7062793e0735eb4ed7a029af21e2753bc01d60436992a0262e0be5068d73bc7972607b3c0537e94cd5a22bad23ec7b35ce136e4d679cae282005eb08837db2777c6e75320b39e742dbac25a32dee7937cc116c4f659eac2a2207e90a817fb0757e6c7730093be540d9ae27a12fe87f31ca176a496398aa2c2401ef0c8779b673786a71360f3de346dfa821a729ea7d33c815684b619aa82e2603ed0e857bb4717a6873340d3fe144ddaa23a52be4733dc61b66456f94a620280de3008b75ba7f74667d3a0331ef4ad3a42dab25e6713fc41964476d96a4222a0fe1028977b87d76647f380133ed48d1a62fa927e07739c21f62416b90a2242c09e7048f71be7b7062793e0735eb4ed7a029af21e2753bc01d60436992a0262e0be5068d73bc7972607b3c0537e94cd5a22bad23ec7b35ce136e4d679cae282005eb08837da5b1f7e8d631753764decfcaf4a605d77e1144b36686f3c51ce781a7f3ba09002fd750956417860a83f9314f48f1df75c3ec9835aefeea2630c7f31d8bd53f09a27a950fbaf43e208e0256ed4b6101ae625bcdb4bfd3a3b6ec232b6a23d15db1ec5c5598cb0364295039480ebeaa518771eb7328e86c62595d82085809eb51d7f083c57cdd5f244166b09baf37ae9ffa200508d2c27e48b0cabab55ab0aa5803460376d29c1e35a4bf77648583249acd502d9d3477445794dce0218d0bf6591bd6449a0c9da4bf407f277ed3fb8b5f02b81a2e5d159dd11ca63e36adbba5a1634913a609ad01cd54733074b5c62b1c5c6549d417a419284ebd8b4744c94bde2b395e52f2f538cb6297f3c4f83cde9382eea0b1a5aa6c21fd60b0c423829d161e9a89ddd0a7b1b7ea0b3cde74b8417aeb2209fd7938a321bb868a7ec1addfc64433b355d378dc56eafb1231a34f0c04189cd888b621a2886c79816496ccf28e07cb8b2462506ba7655ea12e0677324933fb6d0912ad5221b241ae29a0f6d4ad557b0560d3f5c0d568721d84216b4374f81618d17c393d90f0fb02dea903dbbdc4e180885fcb8fcec94f66cbb3a2194b4231a1ea9dcfae1581c2929291798cf31367d903802f4b6e36d41df359b6ceeb702c41782074462497e1f4d321b2dcdbd6e9ef7b2ca2fe365b4548c7d2f0f382dcd9f2396e053fa0974a1b964e9bbb8eb698e914827532c84f1896da3853156014073b972e5f914bdd0d5ec4eb8807ac7b2bf6f1c19beee319302b10e50a37d215da3baf4cd79d4abdff244c76f299339bf986fd90ed97f24db68f76a01292b5b9bcd030d54da4fb85b6d08fe92fc9d54d7b4912add156b54babb46a1a190fc825adc216a25cc5e67c93216c363bc10a0e56603d4dfa98e34a4b77e69de22e701f68892d54c41ce5035f10d7a126e0aaaea8a672d0315efee07a166b82a3cc825019f8f30cb79c773b34af83853fc13cfbc2b78f2cf5612310f2f395f6410e0790b5cc700c754baf64f85c3eb1390ca4ccb92da322a5219c9705e4c8c4183901d988f738227eadd6c1bca56010930affb04b6f46c2b1e45be4b87ca8ac143330c1e24b72417b008a6e724debb58575c501ad4da1be8f9fec4d5d348f0cdc8faffd87f0ec01471c65b8f767cdcc836fa902f8674a513c45fa05f92ca44a4294248bb4ee10198ded22b4fd87b661fb05d7e7f2b31c219c059571e65d86e88112821b2789c1a3f12e106e7c021c6be5ad31c0b2159aa2e8b5606fe3f62bb0f910f2bb8f9ff4cda07b64828cb369f854ef8b05a2f189e12d186537056b9db0be46d24b3b7f3c93aff8d3af74f3e080550f25c0249388271fff12ea4544faa3a169525a44253b27d0a823dc85b3589c1e4d99d8513d49dfcfba5185fa4963ffee2e3301c336c50e679de192284e007c9cf1f6d2f5bf19fdfd4941a02abd6cf06761575f816389d8ac3509516fa02eafc184bc7a07fa2cae62af4e0ccdb0372f4771a6c717956fef10a51393618c427254f02f28f2464991ef3fbc014c9254bd5932b2e0c417cf3b51b0f12914be54c6dade000636bb2290f57666244014b76ef2b25b0e1f12ba817b6002372029ff8a4b4c325d3fae32d68afd353482b36d4a5f40f9e9baeb76840cf65445f7b2d15d02770f12dcb35241ce895174acbcdb0e9210c84a523f5b7d1b1c1c732c3023a7816c1d4b322ef34057d3af859496b0e22136c1d302b93520baa76da3a2341f5c374f9269c10929802d25c699e1c3c76c770ff3af32e67f5bceea8a956494b1457e1211a979568bcb61cfcf13950ca136c0e355907c62b6dd37322136b62d1d215ebe5b75264a6f2cee40be2e18ce89e70d0bf8966082eb9d9dcfdc752bfc502bb9be7f8aa66f64351199ce2821266bb7488f722981737fb15529b119a27c4a70d9afafe014297874eb5d13bb3700d00cdfd519409ab60e9c3c5ee7e185a6d4124ab8cb6adc2c232c22ad3f68ad03807e25384df318b08402e36d959129ad5b1241a641358a3b291f57e752008bd6d7e2f45617c2e51fd5e7f1304df255679fcba31f9eadf58e6b409f499a5bb0fff36c83ffde9f7ec39699420b326c4c96b27a17eb81c818503060293d2b8424502fa2a1b26ed42bd3365e64786cddd11162cd5b2e4036a70848e8f87f14b18afa5dc9f3fac0efd5d07e329c248d2357520ab61552eda0abebe8fd2f8966fd76de7047490784b14c489e5307490b9edb799af7361c78c388ab420f911260b46a805bae301f8b57a03535ffe35ac0bafe693bfc03b74a6e989355a9a8a2511167e0ed6447d8fd3b320865b334749196fc0cf282bc85cfce3048693c46c3a3fd80d82a4d6fe29893aa1cc27b4d40003030fb2f86a615558589e4b54c1420ea24c0671be7cc8f987690769f8cb49b59eabf2089df5b64cbbf8810cda662e1ce1bdab0b1b95c14e32abf58ff89ac897f47539ec4558f4ba1258385ee8b7d15973a53b43345d88dded25d24adbaf94ae24c0277038583981dbefd5f84eb693486c97a1cf34f9f6cb8d6f56391fd940a04a1b96999a8a70ca1032b4d0e7ca954a2a64df77f32ae0c5841b9d43d7549b57593793f37133329dc734cabc71f4dd366e0bdd0f499c312ce57806bb249f818366f922acc3e2be492d28240e557d5857b910167da064480e896f4752b14ba055752f8fe1f9d4d18ea7918a853877d3c2d57ba855f08b95a8cc87379bcb33c70c40b43f9d30c349b616855771340b73a2775c0e602247896cb5ac43fa77e8279cb037074506647ef32bafca3f86a1f6b665a1658ce2d0f4faafca1f08d5e7c6fb256dbdf7154ffcebe84d192de61ecb7f5d6afb263c1587f783cd163065b0af47276687aa5ed1c2b9a22f4387d461f958743803c698e1ce818344a7d9ebb63b60a5348e045a0d77b6a5253b70b21de65e896e38ebf2bbdb5e99af523e0b29c13c36022ca97f6c8b03d5a0cc4262521e365dc60b3ca94bfe87d20a8c98a2b39f479fbc9f219a2103a315d8f2a902987bc6de5cf8695e5ba4054e12a9b021a22fd3e7a0ff7af629d03af04f36868cc67c18bf4bf0e70703f8f93f978373653c56761426e265e1642809f9b75a916cd86a73fbe85a25412c24fc5eb1c8f023721b35bd5754b97cffc158865309d40f2f5ff1dbe360dadffe323941d2a2674b95e160d34ce5cad8228f48b37bea14ea1b4beae357088cd7026bdbb12c0f8fb72dc7234477f6cf191f5fa973b92d0f078342b45fbaff19689e794692c415e9ef6a222c81ad4aa990702133369a2cced076d1a61549be6d509bf00b669bb83b7c8baef984b3fdb6dbac0958fdc84f9db518191b1d42435d636c7a7d8ac3d4e9eb020611263748596b899faeb1fc091a1c35455a96b2b8bcc4e0e6ec001d1f2a2b35495d5e9899a1b5bdcaf4ff0000000000000000000000000000000000000000101d2b3c01fd21050037b4682e93411fa63111aa3b20f390327cb5df7e74582a5190665fa2b3aee13007720b884f072bdf83a690f4f792ed0a401d376d9454471f22d6d9d45a93805b5591d1969d1cf8f541d42c7a0e9a4679cb6c155e8b06305e814af2a1013b71aa5505f0119ef3e53e02aec5fb06840db733a7e02e5ae2e67b84fb14088e2218670ff59ad5aea884786eed0fac52e98ccd0e9c474caf4ed69ee1ec9a648b3fcda5f26b33c0e5b19b401f05695fad6d2d475b3bf50c6005ab98bad5f5be3cba9e324d437c7c0fc70d0e627accc53b851324011ff466b59b64fcdda3019bf722aeba8d31bdbfe722cd2e8d314971c8fb6adf764fe08aff504c8e8ac766b6da74575834acbaf28b5435e032969346d88d075af31a77e425b080f674b8ff90840f0a35328e77475ebec3d22f5781f10e2fb001110890408da9617209b3e820b07d5e46b8c90826ed36a232acf21d2b95aa06fd629b302aacb6d1a40770a8a711d719514522d0b50bd803054be799450e6c2f4c28feb8ba4ed24ed42470137a7bb6b616900e8d2c8cbd247347aa2d9bb08a61b0937e677490de6919cac7a3797cff7c193527b492a42de47a18d84ac4ec903bc1bcf23895bb68527b31199f5e83f5aa3db7ffef5ca578a9ec69d42c2de462fcf2acf0ada57fe681e25fafa0a495a819a11aec899276d8490a3ae752f0fd1be04bb3c8ccdffaea82744e0e05ed0133004ca5210b3e6f579f74a8667e6fb0f086ac2d4da9d9b1f0069ba839d21b4af085d6bd29b115f34b8117d351f65b8b81fce731f2bd007f4b78b32d9059f45ce62c40565a098eef1ffa8afeb2dc3379e59d0a1583bdc1f97eed253aebc4460ea5eb6e250c9cc851b76006d11c03c70760a5367e98882eb113ee86061f18f7e924250309358d8f16bc8568401ae33c4f3889e7ba83b65495a9e2725d37ef91da7be4f46a98a7c7bae7cb8d45af3b6fac9b85669f20e9271cae67c51f54e220c56c5fa5f6627d4d1a711917d1c56ca3f9e6f54f1de03f5514017e85d6c512cbc59eed5ec998ee29001564df3dca0ea3d5c331771ccf4f99e3ac46681d95d124eded06b128a663e03921137f8fba93c9357d6062d14b5f599354f738e548818adfd576c6a4909c99413ed49dd2422acb54738dfdb28a4869c12fa575af41333180d02c7ba7b288e30f1989b7f36309966b766903a4a86c32dfaf183239dbfb106f94b34da6450a18a7ff8ffb6f8410069317a39dc4a3ad09aa8d36ee6b8cf20c1c773cb6f80e8dccb98e0c1daf3106695e0117fb5f97c9c0bb1f17e1826308ca910ed6463488a189e4b68e92149453a41ea9d2a89aa69e1702b5606e3386a8d883cecb7467c174c911410d3b9defde663d07869e6baa9d9dde52e50baef2dc5c1b546e736bab692419fe03c40fddec69b69d65b63f6aa1c4e4be2579c667e3d17e9135e8b6a68ab2da754e4374e3708d5c2407a83620f9145fc61ea427d956c706e44bad238ca557da1a5e012b564d2ff4290af34450e8433352b179c0e7b49b60d9258185f37df4584659a3b53ea7cb11f5130116dfdbdf43ad0f016ad3c3a1bb679fb03aa34a27cdf660380894a89797d817c1346c3dc0048bfdf2792bf90a64ec6f1a1f4f8d50c28476a45abef6a2214a1cfec8df89568f08b530bfac11d5f175446f464ddac965b65f6037783a6a4ca014c369bb32d920a8c4551075f13d57e28a0defa5353dfb2899b1230c9b933a51a35e8fd7f1da9574fcd1a0f88783bce4e4950bf2e6f967d8964aea0e5d8cabb24bd4b1741b83e1fbee598a1da2c9a5dc10cbb5d605dc33bc8e786fd62a5dd414631c201e1b83e2d55f89503b44a50b4055c367000000",
  "txid": "3af9fe0340bfedf2761ad3ec618a84e41dd154b03b7f918c89b2f90d8e62fb9d",
  "hash": "7c67ea53b310a6a2ae1421795b953cde10c0a259487639fb60210d64558f143a",
  "size": 5085,
  "vsize": 2278,
  "version": 1,
  "locktime": 103,
  "vin": [
    {
      "txid": "371a9c6329a6dc40364b7f809e751c78b7c5c136b7db3e6ef42c143bf083adc9",
      "vout": 0,
      "scriptSig": {
        "asm": "",
        "hex": ""
      },
      "txinwitness": [
        "56417860a83f9314f48f1df75c3ec9835aefeea2630c7f31d8bd53f09a27a950fbaf43e208e0256ed4b6101ae625bcdb4bfd3a3b6ec232b6a23d15db1ec5c5598cb0364295039480ebeaa518771eb7328e86c62595d82085809eb51d7f083c57cdd5f244166b09baf37ae9ffa200508d2c27e48b0cabab55ab0aa5803460376d29c1e35a4bf77648583249acd502d9d3477445794dce0218d0bf6591bd6449a0c9da4bf407f277ed3fb8b5f02b81a2e5d159dd11ca63e36adbba5a1634913a609ad01cd54733074b5c62b1c5c6549d417a419284ebd8b4744c94bde2b395e52f2f538cb6297f3c4f83cde9382eea0b1a5aa6c21fd60b0c423829d161e9a89ddd0a7b1b7ea0b3cde74b8417aeb2209fd7938a321bb868a7ec1addfc64433b355d378dc56eafb1231a34f0c04189cd888b621a2886c79816496ccf28e07cb8b2462506ba7655ea12e0677324933fb6d0912ad5221b241ae29a0f6d4ad557b0560d3f5c0d568721d84216b4374f81618d17c393d90f0fb02dea903dbbdc4e180885fcb8fcec94f66cbb3a2194b4231a1ea9dcfae1581c2929291798cf31367d903802f4b6e36d41df359b6ceeb702c41782074462497e1f4d321b2dcdbd6e9ef7b2ca2fe365b4548c7d2f0f382dcd9f2396e053fa0974a1b964e9bbb8eb698e914827532c84f1896da3853156014073b972e5f914bdd0d5ec4eb8807ac7b2bf6f1c19beee319302b10e50a37d215da3baf4cd79d4abdff244c76f299339bf986fd90ed97f24db68f76a01292b5b9bcd030d54da4fb85b6d08fe92fc9d54d7b4912add156b54babb46a1a190fc825adc216a25cc5e67c93216c363bc10a0e56603d4dfa98e34a4b77e69de22e701f68892d54c41ce5035f10d7a126e0aaaea8a672d0315efee07a166b82a3cc825019f8f30cb79c773b34af83853fc13cfbc2b78f2cf5612310f2f395f6410e0790b5cc700c754baf64f85c3eb1390ca4ccb92da322a5219c9705e4c8c4183901d988f738227eadd6c1bca56010930affb04b6f46c2b1e45be4b87ca8ac143330c1e24b72417b008a6e724debb58575c501ad4da1be8f9fec4d5d348f0cdc8faffd87f0ec01471c65b8f767cdcc836fa902f8674a513c45fa05f92ca44a4294248bb4ee10198ded22b4fd87b661fb05d7e7f2b31c219c059571e65d86e88112821b2789c1a3f12e106e7c021c6be5ad31c0b2159aa2e8b5606fe3f62bb0f910f2bb8f9ff4cda07b64828cb369f854ef8b05a2f189e12d186537056b9db0be46d24b3b7f3c93aff8d3af74f3e080550f25c0249388271fff12ea4544faa3a169525a44253b27d0a823dc85b3589c1e4d99d8513d49dfcfba5185fa4963ffee2e3301c336c50e679de192284e007c9cf1f6d2f5bf19fdfd4941a02abd6cf06761575f816389d8ac3509516fa02eafc184bc7a07fa2cae62af4e0ccdb0372f4771a6c717956fef10a51393618c427254f02f28f2464991ef3fbc014c9254bd5932b2e0c417cf3b51b0f12914be54c6dade000636bb2290f57666244014b76ef2b25b0e1f12ba817b6002372029ff8a4b4c325d3fae32d68afd353482b36d4a5f40f9e9baeb76840cf65445f7b2d15d02770f12dcb35241ce895174acbcdb0e9210c84a523f5b7d1b1c1c732c3023a7816c1d4b322ef34057d3af859496b0e22136c1d302b93520baa76da3a2341f5c374f9269c10929802d25c699e1c3c76c770ff3af32e67f5bceea8a956494b1457e1211a979568bcb61cfcf13950ca136c0e355907c62b6dd37322136b62d1d215ebe5b75264a6f2cee40be2e18ce89e70d0bf8966082eb9d9dcfdc752bfc502bb9be7f8aa66f64351199ce2821266bb7488f722981737fb15529b119a27c4a70d9afafe014297874eb5d13bb3700d00cdfd519409ab60e9c3c5ee7e185a6d4124ab8cb6adc2c232c22ad3f68ad03807e25384df318b08402e36d959129ad5b1241a641358a3b291f57e752008bd6d7e2f45617c2e51fd5e7f1304df255679fcba31f9eadf58e6b409f499a5bb0fff36c83ffde9f7ec39699420b326c4c96b27a17eb81c818503060293d2b8424502fa2a1b26ed42bd3365e64786cddd11162cd5b2e4036a70848e8f87f14b18afa5dc9f3fac0efd5d07e329c248d2357520ab61552eda0abebe8fd2f8966fd76de7047490784b14c489e5307490b9edb799af7361c78c388ab420f911260b46a805bae301f8b57a03535ffe35ac0bafe693bfc03b74a6e989355a9a8a2511167e0ed6447d8fd3b320865b334749196fc0cf282bc85cfce3048693c46c3a3fd80d82a4d6fe29893aa1cc27b4d40003030fb2f86a615558589e4b54c1420ea24c0671be7cc8f987690769f8cb49b59eabf2089df5b64cbbf8810cda662e1ce1bdab0b1b95c14e32abf58ff89ac897f47539ec4558f4ba1258385ee8b7d15973a53b43345d88dded25d24adbaf94ae24c0277038583981dbefd5f84eb693486c97a1cf34f9f6cb8d6f56391fd940a04a1b96999a8a70ca1032b4d0e7ca954a2a64df77f32ae0c5841b9d43d7549b57593793f37133329dc734cabc71f4dd366e0bdd0f499c312ce57806bb249f818366f922acc3e2be492d28240e557d5857b910167da064480e896f4752b14ba055752f8fe1f9d4d18ea7918a853877d3c2d57ba855f08b95a8cc87379bcb33c70c40b43f9d30c349b616855771340b73a2775c0e602247896cb5ac43fa77e8279cb037074506647ef32bafca3f86a1f6b665a1658ce2d0f4faafca1f08d5e7c6fb256dbdf7154ffcebe84d192de61ecb7f5d6afb263c1587f783cd163065b0af47276687aa5ed1c2b9a22f4387d461f958743803c698e1ce818344a7d9ebb63b60a5348e045a0d77b6a5253b70b21de65e896e38ebf2bbdb5e99af523e0b29c13c36022ca97f6c8b03d5a0cc4262521e365dc60b3ca94bfe87d20a8c98a2b39f479fbc9f219a2103a315d8f2a902987bc6de5cf8695e5ba4054e12a9b021a22fd3e7a0ff7af629d03af04f36868cc67c18bf4bf0e70703f8f93f978373653c56761426e265e1642809f9b75a916cd86a73fbe85a25412c24fc5eb1c8f023721b35bd5754b97cffc158865309d40f2f5ff1dbe360dadffe323941d2a2674b95e160d34ce5cad8228f48b37bea14ea1b4beae357088cd7026bdbb12c0f8fb72dc7234477f6cf191f5fa973b92d0f078342b45fbaff19689e794692c415e9ef6a222c81ad4aa990702133369a2cced076d1a61549be6d509bf00b669bb83b7c8baef984b3fdb6dbac0958fdc84f9db518191b1d42435d636c7a7d8ac3d4e9eb020611263748596b899faeb1fc091a1c35455a96b2b8bcc4e0e6ec001d1f2a2b35495d5e9899a1b5bdcaf4ff0000000000000000000000000000000000000000101d2b3c01",
        "0037b4682e93411fa63111aa3b20f390327cb5df7e74582a5190665fa2b3aee13007720b884f072bdf83a690f4f792ed0a401d376d9454471f22d6d9d45a93805b5591d1969d1cf8f541d42c7a0e9a4679cb6c155e8b06305e814af2a1013b71aa5505f0119ef3e53e02aec5fb06840db733a7e02e5ae2e67b84fb14088e2218670ff59ad5aea884786eed0fac52e98ccd0e9c474caf4ed69ee1ec9a648b3fcda5f26b33c0e5b19b401f05695fad6d2d475b3bf50c6005ab98bad5f5be3cba9e324d437c7c0fc70d0e627accc53b851324011ff466b59b64fcdda3019bf722aeba8d31bdbfe722cd2e8d314971c8fb6adf764fe08aff504c8e8ac766b6da74575834acbaf28b5435e032969346d88d075af31a77e425b080f674b8ff90840f0a35328e77475ebec3d22f5781f10e2fb001110890408da9617209b3e820b07d5e46b8c90826ed36a232acf21d2b95aa06fd629b302aacb6d1a40770a8a711d719514522d0b50bd803054be799450e6c2f4c28feb8ba4ed24ed42470137a7bb6b616900e8d2c8cbd247347aa2d9bb08a61b0937e677490de6919cac7a3797cff7c193527b492a42de47a18d84ac4ec903bc1bcf23895bb68527b31199f5e83f5aa3db7ffef5ca578a9ec69d42c2de462fcf2acf0ada57fe681e25fafa0a495a819a11aec899276d8490a3ae752f0fd1be04bb3c8ccdffaea82744e0e05ed0133004ca5210b3e6f579f74a8667e6fb0f086ac2d4da9d9b1f0069ba839d21b4af085d6bd29b115f34b8117d351f65b8b81fce731f2bd007f4b78b32d9059f45ce62c40565a098eef1ffa8afeb2dc3379e59d0a1583bdc1f97eed253aebc4460ea5eb6e250c9cc851b76006d11c03c70760a5367e98882eb113ee86061f18f7e924250309358d8f16bc8568401ae33c4f3889e7ba83b65495a9e2725d37ef91da7be4f46a98a7c7bae7cb8d45af3b6fac9b85669f20e9271cae67c51f54e220c56c5fa5f6627d4d1a711917d1c56ca3f9e6f54f1de03f5514017e85d6c512cbc59eed5ec998ee29001564df3dca0ea3d5c331771ccf4f99e3ac46681d95d124eded06b128a663e03921137f8fba93c9357d6062d14b5f599354f738e548818adfd576c6a4909c99413ed49dd2422acb54738dfdb28a4869c12fa575af41333180d02c7ba7b288e30f1989b7f36309966b766903a4a86c32dfaf183239dbfb106f94b34da6450a18a7ff8ffb6f8410069317a39dc4a3ad09aa8d36ee6b8cf20c1c773cb6f80e8dccb98e0c1daf3106695e0117fb5f97c9c0bb1f17e1826308ca910ed6463488a189e4b68e92149453a41ea9d2a89aa69e1702b5606e3386a8d883cecb7467c174c911410d3b9defde663d07869e6baa9d9dde52e50baef2dc5c1b546e736bab692419fe03c40fddec69b69d65b63f6aa1c4e4be2579c667e3d17e9135e8b6a68ab2da754e4374e3708d5c2407a83620f9145fc61ea427d956c706e44bad238ca557da1a5e012b564d2ff4290af34450e8433352b179c0e7b49b60d9258185f37df4584659a3b53ea7cb11f5130116dfdbdf43ad0f016ad3c3a1bb679fb03aa34a27cdf660380894a89797d817c1346c3dc0048bfdf2792bf90a64ec6f1a1f4f8d50c28476a45abef6a2214a1cfec8df89568f08b530bfac11d5f175446f464ddac965b65f6037783a6a4ca014c369bb32d920a8c4551075f13d57e28a0defa5353dfb2899b1230c9b933a51a35e8fd7f1da9574fcd1a0f88783bce4e4950bf2e6f967d8964aea0e5d8cabb24bd4b1741b83e1fbee598a1da2c9a5dc10cbb5d605dc33bc8e786fd62a5dd414631c201e1b83e2d55f89503b44a50b4055c3"
      ],
      "sequence": 4294967294
    }
  ],
  "vout": [
    {
      "value": 499998.9831,
      "n": 0,
      "scriptPubKey": {
        "asm": "1 a8a3a513d4d78e744524b0450c88f88e829d2b74617be027d5159e4e2bccfe2e",
        "hex": "5120a8a3a513d4d78e744524b0450c88f88e829d2b74617be027d5159e4e2bccfe2e",
        "reqSigs": 1,
        "type": "witness_v1_scripthash",
        "addresses": [
          "3QJmnh"
        ]
      }
    },
    {
      "value": 1.0,
      "n": 1,
      "scriptPubKey": {
        "asm": "OP_RETURN b86563d8fea85d1a686c5b46c9545950243e7c18d4e1a2c524fe2d8d5788ad66 4733dc61b66456f94a620280de3008b75ba7f74667d3a0331ef4ad3a42dab25e6713fc41964476d96a4222a0fe1028977b87d76647f380133ed48d1a62fa927e07739c21f62416b90a2242c09e7048f71be7b7062793e0735eb4ed7a029af21e2753bc01d60436992a0262e0be5068d73bc7972607b3c0537e94cd5a22bad23ec7b35ce136e4d679cae282005eb08837db2777c6e75320b39e742dbac25a32dee7937cc116c4f659eac2a2207e90a817fb0757e6c7730093be540d9ae27a12fe87f31ca176a496398aa2c2401ef0c8779b673786a71360f3de346dfa821a729ea7d33c815684b619aa82e2603ed0e857bb4717a6873340d3fe144ddaa23a52be4733dc61b66456f94a620280de3008b75ba7f74667d3a0331ef4ad3a42dab25e6713fc41964476d96a4222a0fe1028977b87d76647f380133ed48d1a62fa927e07739c21f62416b90a2242c09e7048f71be7b7062793e0735eb4ed7a029af21e2753bc01d60436992a0262e0be5068d73bc7972607b3c0537e94cd5a22bad23ec7b35ce136e4d679cae282005eb08837db2777c6e75320b39e742dbac25a32dee7937cc116c4f659eac2a2207e90a817fb0757e6c7730093be540d9ae27a12fe87f31ca176a496398aa2c2401ef0c8779b673786a71360f3de346dfa821a729ea7d33c815684b619aa82e2603ed0e857bb4717a6873340d3fe144ddaa23a52be4733dc61b66456f94a620280de3008b75ba7f74667d3a0331ef4ad3a42dab25e6713fc41964476d96a4222a0fe1028977b87d76647f380133ed48d1a62fa927e07739c21f62416b90a2242c09e7048f71be7b7062793e0735eb4ed7a029af21e2753bc01d60436992a0262e0be5068d73bc7972607b3c0537e94cd5a22bad23ec7b35ce136e4d679cae282005eb08837db2777c6e75320b39e742dbac25a32dee7937cc116c4f659eac2a2207e90a817fb0757e6c7730093be540d9ae27a12fe87f31ca176a496398aa2c2401ef0c8779b673786a71360f3de346dfa821a729ea7d33c815684b619aa82e2603ed0e857bb4717a6873340d3fe144ddaa23a52be4733dc61b66456f94a620280de3008b75ba7f74667d3a0331ef4ad3a42dab25e6713fc41964476d96a4222a0fe1028977b87d76647f380133ed48d1a62fa927e07739c21f62416b90a2242c09e7048f71be7b7062793e0735eb4ed7a029af21e2753bc01d60436992a0262e0be5068d73bc7972607b3c0537e94cd5a22bad23ec7b35ce136e4d679cae282005eb08837db2777c6e75320b39e742dbac25a32dee7937cc116c4f659eac2a2207e90a817fb0757e6c7730093be540d9ae27a12fe87f31ca176a496398aa2c2401ef0c8779b673786a71360f3de346dfa821a729ea7d33c815684b619aa82e2603ed0e857bb4717a6873340d3fe144ddaa23a52be4733dc61b66456f94a620280de3008b75ba7f74667d3a0331ef4ad3a42dab25e6713fc41964476d96a4222a0fe1028977b87d76647f380133ed48d1a62fa927e07739c21f62416b90a2242c09e7048f71be7b7062793e0735eb4ed7a029af21e2753bc01d60436992a0262e0be5068d73bc7972607b3c0537e94cd5a22bad23ec7b35ce136e4d679cae282005eb08837da5b1f7e8d631753764decfcaf4a605d77e1144b36686f3c51ce781a7f3ba090",
        "hex": "6a20b86563d8fea85d1a686c5b46c9545950243e7c18d4e1a2c524fe2d8d5788ad664db0044733dc61b66456f94a620280de3008b75ba7f74667d3a0331ef4ad3a42dab25e6713fc41964476d96a4222a0fe1028977b87d76647f380133ed48d1a62fa927e07739c21f62416b90a2242c09e7048f71be7b7062793e0735eb4ed7a029af21e2753bc01d60436992a0262e0be5068d73bc7972607b3c0537e94cd5a22bad23ec7b35ce136e4d679cae282005eb08837db2777c6e75320b39e742dbac25a32dee7937cc116c4f659eac2a2207e90a817fb0757e6c7730093be540d9ae27a12fe87f31ca176a496398aa2c2401ef0c8779b673786a71360f3de346dfa821a729ea7d33c815684b619aa82e2603ed0e857bb4717a6873340d3fe144ddaa23a52be4733dc61b66456f94a620280de3008b75ba7f74667d3a0331ef4ad3a42dab25e6713fc41964476d96a4222a0fe1028977b87d76647f380133ed48d1a62fa927e07739c21f62416b90a2242c09e7048f71be7b7062793e0735eb4ed7a029af21e2753bc01d60436992a0262e0be5068d73bc7972607b3c0537e94cd5a22bad23ec7b35ce136e4d679cae282005eb08837db2777c6e75320b39e742dbac25a32dee7937cc116c4f659eac2a2207e90a817fb0757e6c7730093be540d9ae27a12fe87f31ca176a496398aa2c2401ef0c8779b673786a71360f3de346dfa821a729ea7d33c815684b619aa82e2603ed0e857bb4717a6873340d3fe144ddaa23a52be4733dc61b66456f94a620280de3008b75ba7f74667d3a0331ef4ad3a42dab25e6713fc41964476d96a4222a0fe1028977b87d76647f380133ed48d1a62fa927e07739c21f62416b90a2242c09e7048f71be7b7062793e0735eb4ed7a029af21e2753bc01d60436992a0262e0be5068d73bc7972607b3c0537e94cd5a22bad23ec7b35ce136e4d679cae282005eb08837db2777c6e75320b39e742dbac25a32dee7937cc116c4f659eac2a2207e90a817fb0757e6c7730093be540d9ae27a12fe87f31ca176a496398aa2c2401ef0c8779b673786a71360f3de346dfa821a729ea7d33c815684b619aa82e2603ed0e857bb4717a6873340d3fe144ddaa23a52be4733dc61b66456f94a620280de3008b75ba7f74667d3a0331ef4ad3a42dab25e6713fc41964476d96a4222a0fe1028977b87d76647f380133ed48d1a62fa927e07739c21f62416b90a2242c09e7048f71be7b7062793e0735eb4ed7a029af21e2753bc01d60436992a0262e0be5068d73bc7972607b3c0537e94cd5a22bad23ec7b35ce136e4d679cae282005eb08837db2777c6e75320b39e742dbac25a32dee7937cc116c4f659eac2a2207e90a817fb0757e6c7730093be540d9ae27a12fe87f31ca176a496398aa2c2401ef0c8779b673786a71360f3de346dfa821a729ea7d33c815684b619aa82e2603ed0e857bb4717a6873340d3fe144ddaa23a52be4733dc61b66456f94a620280de3008b75ba7f74667d3a0331ef4ad3a42dab25e6713fc41964476d96a4222a0fe1028977b87d76647f380133ed48d1a62fa927e07739c21f62416b90a2242c09e7048f71be7b7062793e0735eb4ed7a029af21e2753bc01d60436992a0262e0be5068d73bc7972607b3c0537e94cd5a22bad23ec7b35ce136e4d679cae282005eb08837da5b1f7e8d631753764decfcaf4a605d77e1144b36686f3c51ce781a7f3ba090",
        "type": "nulldata"
      }
    }
  ],
  "blockhash": "15af9b025c636b87e0a10c18a1a8de0e5f3c2069ad563b293161176d75df89a4",
  "confirmations": 1,
  "time": 1764174659,
  "blocktime": 1764174659
}