{
  "hex": "0100000000010124f36a2eda488182e6dd2726209c79d06b9b8bff41dd1eb4399a02c26a06621f0100000000feffffff02e07828ba782d000022512097897299462a0e923ca83c5fd421cf977ed8e08c972fc97f0c814ccd4be68cc100e1f50500000000fdd5046a207371422a2bf89e87726057b95adb8adb06d884545fd987ff910915eb388c880a4db004e90f9cf43127e9cd829274cbecb9cdcfd87f786751abe28402ae70f73b4cc19cc92fbcd41107c9eda2b254ebcc99edeff85f5847718bc2a4228e50d71b6ce1bca94fdcb47167a98dc2d2348bacf98d8f983f382711eba2c442ee30b77b0c81dc896ffc94514789ade2f214ab8cd9adafb81f180731cb82e462ce10975b2ca1fc698f1c74b1a7694d0212f44b6c394d4f58fff8e7d12b6204822ef077bbcc411c49af3c549187496d2232d46b4c196d6f78dfd8c7f10b4224a20ed0579bec613c29cf5c34f1e7290d4252b40b2c790d0f18bfb8a7916b2244c26eb037fb8c015c09ef7c14d1c7092d6272942b0c592d2f389f9887b14b0264e24e9017dbac217ce90f9cf43127e9cd829274cbecb9cdcfd87f786751abe28402ae70f73b4cc19cc92fbcd41107c9eda2b254ebcc99edeff85f5847718bc2a4228e50d71b6ce1bca94fdcb47167a98dc2d2348bacf98d8f983f382711eba2c442ee30b77b0c81dc896ffc94514789ade2f214ab8cd9adafb81f180731cb82e462ce10975b2ca1fc698f1c74b1a7694d0212f44b6c394d4f58fff8e7d12b6204822ef077bbcc411c49af3c549187496d2232d46b4c196d6f78dfd8c7f10b4224a20ed0579bec613c29cf5c34f1e7290d4252b40b2c790d0f18bfb8a7916b2244c26eb037fb8c015c09ef7c14d1c7092d6272942b0c592d2f389f9887b14b0264e24e9017dbac217ce90f9cf43127e9cd829274cbecb9cdcfd87f786751abe28402ae70f73b4cc19cc92fbcd41107c9eda2b254ebcc99edeff85f5847718bc2a4228e50d71b6ce1bca94fdcb47167a98dc2d2348bacf98d8f983f382711eba2c442ee30b77b0c81dc896ffc94514789ade2f214ab8cd9adafb81f180731cb82e462ce10975b2ca1fc698f1c74b1a7694d0212f44b6c394d4f58fff8e7d12b6204822ef077bbcc411c49af3c549187496d2232d46b4c196d6f78dfd8c7f10b4224a20ed0579bec613c29cf5c34f1e7290d4252b40b2c790d0f18bfb8a7916b2244c26eb037fb8c015c09ef7c14d1c7092d6272942b0c592d2f389f9887b14b0264e24e9017dbac217ce90f9cf43127e9cd829274cbecb9cdcfd87f786751abe28402ae70f73b4cc19cc92fbcd41107c9eda2b254ebcc99edeff85f5847718bc2a4228e50d71b6ce1bca94fdcb47167a98dc2d2348bacf98d8f983f382711eba2c442ee30b77b0c81dc896ffc94514789ade2f214ab8cd9adafb81f180731cb82e462ce10975b2ca1fc698f1c74b1a7694d0212f44b6c394d4f58fff8e7d12b6204822ef077bbcc411c49af3c549187496d2232d46b4c196d6f78dfd8c7f10b4224a20ed0579bec613c29cf5c34f1e7290d4252b40b2c790d0f18bfb8a7916b2244c26eb037fb8c015c09ef7c14d1c7092d6272942b0c592d2f389f9887b14b0264e24e9017dbac217ce90f9cf43127e9cd829274cbecb9cdcfd87f786751abe28402ae70f73b4cc19cc92fbcd41107c9eda2b254ebcc99edeff85f5847718bc2a4228e50d71b6ce1bca94fdcb47167a98dc2d2348bacf98d8f983f382711eba2c442ee30b77b0c81dc896ffc94514789ade2f214ab8cd9adafb81f180731cb82e462ce10975b2ca1fc698f1c74b1a7694d0212f44b6c394d4fbd9189f62bed0f93b850729162be9ac42c99af6aa2d0dbde230bb033dd21823902fd750919200d90b89d0bd55610f8f78792470adbe6b2121b330507cfeca0cb377737bb82713d05f521be24a008853743226e3f28295facdaba4a3d162009203d029505ffec623e7253f5540dfa775eac025df2507fc536fbb3871f8225847f53b76c8ba5d3a951747f9482be6f669378947d1efeb76a44908c4994d0ae2b4421ab739b83ab645060c3a4117e371f5bb20e69e0593196ca1942315a803761974ce2ae5b58e47055bd9c72560d430819ed0986b54f8b7a31efae09434329583780e52a766a56434f54f4a7f8149737d91a1da9abaf9369726443111d6627a30139bda1000244979aa1969bf9ea4e85f3203c1b9b72ee8e2e831190e16a7199322af44c56f3ed4a58ad73f43a4e053517c071cbdceceac3b627e8bcfcb0610083dc4b361459e4aab7baf1de11938b7eca1e4c01a1febe1fd8d5abe25d8a2e9edd9bd5a9f99fea8b123eece5df64ff3fab6e86a8d733350600f78bf9be87f7b309003d83ea6ef5b0ec1fc119df186eeb0158b97abdde6df72709e4c584f1bd860f2b9ca6eadf9b869e1919913015278f109b8fd837d30e52d1939baafe779b257e385d7f6a95d61f7c8a1a976d0b34866034974972ab2e7766b323fe9728f687321df3b45759716758c229716ef26a7dc62820fe0e30c7d8248a26b24c58df89b93b975de1692def0111203d0e133eb015829530ef2a26fd9bb40f3c5243bfc9f4cefc4e574114520d4e1e3a280fb40e24426715785db8b1aa9742a9579028c37e31fb15935e164ae814bcada110ad8d6e1a6faeaabb0ef3ff32f0ca88628787ef62897c2753beb16426d0d205d95841e2fb8ecb3217e108d9482212be3fa45cb663e69e4ec71bedeeeb56894340e6777c719c627fefa8d3bcc07fc42c43dc1fc7e93d6918f415e04a1ce1e550c306caacadc02c9791972e18b9e4f77ff8644c769682aeb9c6c726338d7d5f1067af0696108ae07370f12db2c6d814a3c79df93aa054a37b622f56c4da34b09aab3634910d19d9dbe3ea6f3a2e3e7050fd45b06515f0f65c31e0944478bfcde14ae66d9cb8c3e79096539db27dede92a10b1838624cd46cc07eee439bf94f1e2e2c87f819b026d3f4bb21dc349f9d481f9cc8f4e8ddaa7bbc0ac9c2db87277d3b5773dd80e30750cd1c8155f8df4b5d8b3853c2a42a28cb993a4117b31bac3eb569e594f87a6e34d33e072dc6d98bcb759ce64ace0b571dadc1f1a8193aab43092a8e1f7158f3bc28099d7dbecc98bdc5d4a441df983e2a39b0360624bb16fddbf5383d2f301709e02ce113cc10e8862ef320ca6031f1bff601d7836367621d068728b273c9563a8250706105b52b29fa272aa6e4d53942ce4a62fd1dc66fa370af3306bc7d831566ad7818d5a6746e8bd2fff009e31731733e5c3c6e2bca986aa39d5d4f141b0d7d9226ebf6a85d0ff0d9efa92ff77c09f50ade560e4e1184b5b8c2ca8e964e67ac2b13e9ef11ba4622d72c2ae7a9a7fc15306cda4dfbfd8d110384272cbde170bb352d0be0b4743850c8e0dd2e7048e493a9644f282a8ddba448000bc5eb1d803e50f5d7c456d0cdf375a1f182c8e88283bb329299fdd71ca47601ea56939cc1bf61567461443e0d45721c5af691e87425b81e1ab228fda5c45856e549c47ace3bb5b9123ebed86ff0d68d6d5406e30f37d0bb72ce4ed66ce8bc8f3a54c8f306f6fb37ceea7ce6269c5a6443831d4ce2c0b49987f6477a7dadae9a72a4bac7c4d8e5a00b3ec28f7949d2e55ef78ab98f39a176d48787847039e03e2241e94aee8af0b06517543088067e493b04267c3a7168103ef75d6a9f5c63428dd7d0dde1006bf7a367cd4941454a156b2be5150d73cbd2592855bbaaadf73a28c5f414b7b2d7d1f4693a814480458e1e6a770de966c4c2cced1165c2cf79b22ea6008ea611d23190231231e512d8a4a8305167f5b9708fcd2b2cab2fb7dfd7a8ee08f27ac9c7386e08b22951315c4e619e6711b1da5c6d9fb6903f517d55cba35e467fee5cc35239d976a09333ed9760582b84843f508af2f3657867516bab3f6f948e93afd1ab046f8b7e6541214ae999ef7121c24df5b55ab2b7f304d2b54fc66dc150e0f439ea346156b91b67a2b6b7cb4e0bf92f24c417cefb286ae388de420312275a59a7f28fab0cd2e0ac8e39e1919fc6fd4d34dd9373e186f2419cb11e557e9507f336ee764f9f98ff84723491b15cd29d41a5019bc03adc9048b868f5cd100fe00dcb3c7889bd2909bd21360acfe0993e20822a0a74d204190345d28b234845bdf64dcb54667663e1aa7ec50b860e2bd868996379474094c214da50e3e6dc476e766c2e1078eed2697e2294dc93fbca621db455a7d3e18771107bfbb638f8e8999484851d13ee9d28ff9094449e87a0d202c8dc5e731e830f121a52e2822ece1abecbf1f9bc73bf79e0d80a255d9832eaf5ad4cbb93e7e27ac61a4cbbd08161cabf36a56059a89fb5b7f49eae000e9e7cca8e592101c99beb70f7da7d594b67435fbfa6ea16f3bb955ade9fb6328fad758ca65213061ad65998f1f7b027010b59bcfb0e3a3fe780f9a2604483a85086c0c0c531f35bf2a4996ab8922197ba56ca9a6658564ac2f7a510e1a9de8674448e363e0bee86091d6604d13cfd176aa9ecc47f01db75eb3f8513dc8477c047191fa94ea5e966b2d844a9d81e97b9d8b29413853c7ede862c9b6706fbfe0c060696b428897e858103efb18517d8f0c5da73dfaf13c47152fd33851d8128d011bcf995b6878f3e1a93542a76fc4d5dddde89e826365ee6c7263547c7d0d27c0c17c81ef5f429627998449d9f34dfb0e36dbb347f8b461f0f4a6fcd7fae2be1abb4304fca55218bd0160af7a72cab50c77b045c843e45f22434d4618e542aa2239600b15e9e3f781c3983369c301f783b4749de0ffef96dc9022bacc9241eac0e1537301100642dc094833a2783ec414b132f0b538f1cfd7cbd4c23004bc3e5c597c08460a69225616c853e27e8741603dc3bf45798c2c00ce4af981fce121dcbbb872c1e871a9a8cb15516f0c667eadb8e94a7106f032647b7fdd7959b8184ebcc5efbbe7de88c74bf47b14f366d8934ab25196f1bb788482c04571ba6eb519e20345a1cdbe4725c145e596c2706cd5d07b260aafe06f927792db6501de2cc8e5014bb82a7b0e1ac066e71d62141d64797d57e9440cadf00f444fc7e6a5cc451c2fb13453f3160f8d1b26d86ef00da948a80d8b6420fc16e97fba170dc394fc5250cf4e039d53f0987eb548a5893cb50bb89ea0fbf8d4526f2fb21925268f87e07203272a2d40494b585c6b787c819ea9aebec4c5ecf00007435c7686ca1f252b355a656a70c1c2c5daf2ff0827282a2b3f48878f9ea1adaec0dbf3fa000000000000000000000000000000000000000000151c2a3b01fd2105007923aaa124ddb8894a53c6636212c655e5f42d47b3dc142c5f786b5b20e7f2258097d8a5853fbec36a1cb41b5a9ff0199f4eda04561d709ed2d0e35efd804160d51045c7a6e267b5d29381d744f9ff01cbd124eb07ce626412fe69507e783ebc27b8dded05ed5ec9339f5104e7f2e39a0d849b9e726dcd5b587538a989362dfcfa349e506e59ac548a94165266a7c8eeb8dbbae44a49f78eab688796879d88ceb6cf69e90dd970d5371689e25d3f15ad6004a1821e66d7fe828a3c1302d2cbee53c134c979b9a9b5fadf74e6fd4c0b08cad3ea1d9ad3fa552dd58701f1f34060319bc640ff12648fcb42d2532e3fd67aa140f0001bd75a7eea7ba3bf66b6e8e69e50b9dcef9d4f1cbf2391181dd23bba589a4c7d6d3decfd85b9e91f116a360b09a0f1df6c85f90d44ba0b73ae9b51d1a445fb2c96288ed9945492bcca6646fbab7b55a06c956ff8da4a000d32c76ec03e16a0a53ad3c114d43ba642405b38d783c8894c920a2153af19d146d1db11620871b16417d8dbd7e288f7e76bfd899bf30089e883dec51d62da0c069128099430260c19c85c8ecf17ee0352ea27109815390c4f60f0990a72d9ba01d1343077e30056f9ea0386274731d1e8c0b3afe79a8c386223ba81d90e7086356bdf0766cca80719761d3bd76ea8d806ae10a4bf4129e2cfbadad31166a2894be36249c31217eaf34bbac7e7ac195259e8d37a6e414ca5c3166431345543ea3f547a5907a4ce19200e295fa1a7c80ddc4b85b8d08e224b75e17bb7ffcaff7afe9c8505bb1e224e5c9e367b1dd391c61344819fe2844def98dfae3d97db7a1c37b3712da652e6a1759945e7cc64306e0bc15a44bf05976fb6f16daa3c5c06b9a537ef935fe7edc9bc819ff599ebe47b20d1959cd6b0b68ccd335050f7e66fde117bf99afb37a29a6b106d5ed0d6ed3265738b4096849b1ead50729382a891f2255f74a07006bda6939c1ee750e2d962e88d11645219a2d01f076a3b7b0863dcbf74a904d59570614d362b2772bf50b8123724e749595e5e70e0a079f8a589e67b15533795a68105658ea5302900709c6faa86879f05372ea87d5af749e395edad0806c2307529286a30df761d4fe7e8d6f997bc92878f366261b97449f3c1ba77083e1e56cc06c0e9b94764a22a44030f554426fab93f76945db85efd9684ccff4e2e3f47da805431c312b9031444a7aecc77756bfd136e09208fdf990a55054d7706aa569a35a8527b0a17b912d1c42f16ed3143fa49664d9072596c853bec9c041445a5fbab891b3a65c05d32422b422adade2b3926845eb703189e1b1c48858ba51dbc7f1bccc04a975e0e6f0cede8006cf0e9fe04edeec405549038956e91a76a477f6a3244e6730f2104b610ce5abf4aa9bf89e44eb0089d5940dabbb6de612d62be50db5833156efb0b46e863d6a4004d8321b1e4dcca8635b6cd1dabbbdd5bc6d484447a884c1ad0dc22019353012184750992af63d38467f81af3fbec3f7441ec41eade9b1c031c2ce28bc15a89f4d215dc1f601eb3fea6a4180aa22da4ae86f86cf4f7b060bdbd2ddcd7d6f0c6145a3b85bbfc24b51847d79daef9b839b135fde43b1ef7ffcb8308e2ae020ba653a457a5b6282b1e46cba71d497b8b9bbb8c1e2fb0dc9ff83827fda1439f7ec261895c58e982e71ff6716853d1a5a5a5d1b148eca757fc10a8fc59ab36bdc02f622d6dff5f5966f5f25934dffd6d2b8ac06ed6fe1825095ee397064845631ee6411307e037111b7a253fa7e9ed6d0444d93340245f5f9bd96c5f3158a72719d43cc00e35a5a6bd662db0bbd6c83b363d6827ee6e34c88a6cd41098aef0d08d467b9b7683000000",
  "txid": "3492c026a2ed2581878ecb362e6d5485cb3187089ad083e8e3da78bc66054ea4",
  "hash": "78e412cfd340b5ba9af6f91eb6a5938bdf0d8ee284433a05d69672bae55b2ccd",
  "size": 5085,
  "vsize": 2278,
  "version": 1,
  "locktime": 131,
  "vin": [
    {
      "txid": "1f62066ac2029a39b41edd41ff8b9b6bd0799c202627dde6828148da2e6af324",
      "vout": 1,
      "scriptSig": {
        "asm": "",
        "hex": ""
      },
      "txinwitness": [
        "19200d90b89d0bd55610f8f78792470adbe6b2121b330507cfeca0cb377737bb82713d05f521be24a008853743226e3f28295facdaba4a3d162009203d029505ffec623e7253f5540dfa775eac025df2507fc536fbb3871f8225847f53b76c8ba5d3a951747f9482be6f669378947d1efeb76a44908c4994d0ae2b4421ab739b83ab645060c3a4117e371f5bb20e69e0593196ca1942315a803761974ce2ae5b58e47055bd9c72560d430819ed0986b54f8b7a31efae09434329583780e52a766a56434f54f4a7f8149737d91a1da9abaf9369726443111d6627a30139bda1000244979aa1969bf9ea4e85f3203c1b9b72ee8e2e831190e16a7199322af44c56f3ed4a58ad73f43a4e053517c071cbdceceac3b627e8bcfcb0610083dc4b361459e4aab7baf1de11938b7eca1e4c01a1febe1fd8d5abe25d8a2e9edd9bd5a9f99fea8b123eece5df64ff3fab6e86a8d733350600f78bf9be87f7b309003d83ea6ef5b0ec1fc119df186eeb0158b97abdde6df72709e4c584f1bd860f2b9ca6eadf9b869e1919913015278f109b8fd837d30e52d1939baafe779b257e385d7f6a95d61f7c8a1a976d0b34866034974972ab2e7766b323fe9728f687321df3b45759716758c229716ef26a7dc62820fe0e30c7d8248a26b24c58df89b93b975de1692def0111203d0e133eb015829530ef2a26fd9bb40f3c5243bfc9f4cefc4e574114520d4e1e3a280fb40e24426715785db8b1aa9742a9579028c37e31fb15935e164ae814bcada110ad8d6e1a6faeaabb0ef3ff32f0ca88628787ef62897c2753beb16426d0d205d95841e2fb8ecb3217e108d9482212be3fa45cb663e69e4ec71bedeeeb56894340e6777c719c627fefa8d3bcc07fc42c43dc1fc7e93d6918f415e04a1ce1e550c306caacadc02c9791972e18b9e4f77ff8644c769682aeb9c6c726338d7d5f1067af0696108ae07370f12db2c6d814a3c79df93aa054a37b622f56c4da34b09aab3634910d19d9dbe3ea6f3a2e3e7050fd45b06515f0f65c31e0944478bfcde14ae66d9cb8c3e79096539db27dede92a10b1838624cd46cc07eee439bf94f1e2e2c87f819b026d3f4bb21dc349f9d481f9cc8f4e8ddaa7bbc0ac9c2db87277d3b5773dd80e30750cd1c8155f8df4b5d8b3853c2a42a28cb993a4117b31bac3eb569e594f87a6e34d33e072dc6d98bcb759ce64ace0b571dadc1f1a8193aab43092a8e1f7158f3bc28099d7dbecc98bdc5d4a441df983e2a39b0360624bb16fddbf5383d2f301709e02ce113cc10e8862ef320ca6031f1bff601d7836367621d068728b273c9563a8250706105b52b29fa272aa6e4d53942ce4a62fd1dc66fa370af3306bc7d831566ad7818d5a6746e8bd2fff009e31731733e5c3c6e2bca986aa39d5d4f141b0d7d9226ebf6a85d0ff0d9efa92ff77c09f50ade560e4e1184b5b8c2ca8e964e67ac2b13e9ef11ba4622d72c2ae7a9a7fc15306cda4dfbfd8d110384272cbde170bb352d0be0b4743850c8e0dd2e7048e493a9644f282a8ddba448000bc5eb1d803e50f5d7c456d0cdf375a1f182c8e88283bb329299fdd71ca47601ea56939cc1bf61567461443e0d45721c5af691e87425b81e1ab228fda5c45856e549c47ace3bb5b9123ebed86ff0d68d6d5406e30f37d0bb72ce4ed66ce8bc8f3a54c8f306f6fb37ceea7ce6269c5a6443831d4ce2c0b49987f6477a7dadae9a72a4bac7c4d8e5a00b3ec28f7949d2e55ef78ab98f39a176d48787847039e03e2241e94aee8af0b06517543088067e493b04267c3a7168103ef75d6a9f5c63428dd7d0dde1006bf7a367cd4941454a156b2be5150d73cbd2592855bbaaadf73a28c5f414b7b2d7d1f4693a814480458e1e6a770de966c4c2cced1165c2cf79b22ea6008ea611d23190231231e512d8a4a8305167f5b9708fcd2b2cab2fb7dfd7a8ee08f27ac9c7386e08b22951315c4e619e6711b1da5c6d9fb6903f517d55cba35e467fee5cc35239d976a09333ed9760582b84843f508af2f3657867516bab3f6f948e93afd1ab046f8b7e6541214ae999ef7121c24df5b55ab2b7f304d2b54fc66dc150e0f439ea346156b91b67a2b6b7cb4e0bf92f24c417cefb286ae388de420312275a59a7f28fab0cd2e0ac8e39e1919fc6fd4d34dd9373e186f2419cb11e557e9507f336ee764f9f98ff84723491b15cd29d41a5019bc03adc9048b868f5cd100fe00dcb3c7889bd2909bd21360acfe0993e20822a0a74d204190345d28b234845bdf64dcb54667663e1aa7ec50b860e2bd868996379474094c214da50e3e6dc476e766c2e1078eed2697e2294dc93fbca621db455a7d3e18771107bfbb638f8e8999484851d13ee9d28ff9094449e87a0d202c8dc5e731e830f121a52e2822ece1abecbf1f9bc73bf79e0d80a255d9832eaf5ad4cbb93e7e27ac61a4cbbd08161cabf36a56059a89fb5b7f49eae000e9e7cca8e592101c99beb70f7da7d594b67435fbfa6ea16f3bb955ade9fb6328fad758ca65213061ad65998f1f7b027010b59bcfb0e3a3fe780f9a2604483a85086c0c0c531f35bf2a4996ab8922197ba56ca9a6658564ac2f7a510e1a9de8674448e363e0bee86091d6604d13cfd176aa9ecc47f01db75eb3f8513dc8477c047191fa94ea5e966b2d844a9d81e97b9d8b29413853c7ede862c9b6706fbfe0c060696b428897e858103efb18517d8f0c5da73dfaf13c47152fd33851d8128d011bcf995b6878f3e1a93542a76fc4d5dddde89e826365ee6c7263547c7d0d27c0c17c81ef5f429627998449d9f34dfb0e36dbb347f8b461f0f4a6fcd7fae2be1abb4304fca55218bd0160af7a72cab50c77b045c843e45f22434d4618e542aa2239600b15e9e3f781c3983369c301f783b4749de0ffef96dc9022bacc9241eac0e1537301100642dc094833a2783ec414b132f0b538f1cfd7cbd4c23004bc3e5c597c08460a69225616c853e27e8741603dc3bf45798c2c00ce4af981fce121dcbbb872c1e871a9a8cb15516f0c667eadb8e94a7106f032647b7fdd7959b8184ebcc5efbbe7de88c74bf47b14f366d8934ab25196f1bb788482c04571ba6eb519e20345a1cdbe4725c145e596c2706cd5d07b260aafe06f927792db6501de2cc8e5014bb82a7b0e1ac066e71d62141d64797d57e9440cadf00f444fc7e6a5cc451c2fb13453f3160f8d1b26d86ef00da948a80d8b6420fc16e97fba170dc394fc5250cf4e039d53f0987eb548a5893cb50bb89ea0fbf8d4526f2fb21925268f87e07203272a2d40494b585c6b787c819ea9aebec4c5ecf00007435c7686ca1f252b355a656a70c1c2c5daf2ff0827282a2b3f48878f9ea1adaec0dbf3fa000000000000000000000000000000000000000000151c2a3b01",
        "007923aaa124ddb8894a53c6636212c655e5f42d47b3dc142c5f786b5b20e7f2258097d8a5853fbec36a1cb41b5a9ff0199f4eda04561d709ed2d0e35efd804160d51045c7a6e267b5d29381d744f9ff01cbd124eb07ce626412fe69507e783ebc27b8dded05ed5ec9339f5104e7f2e39a0d849b9e726dcd5b587538a989362dfcfa349e506e59ac548a94165266a7c8eeb8dbbae44a49f78eab688796879d88ceb6cf69e90dd970d5371689e25d3f15ad6004a1821e66d7fe828a3c1302d2cbee53c134c979b9a9b5fadf74e6fd4c0b08cad3ea1d9ad3fa552dd58701f1f34060319bc640ff12648fcb42d2532e3fd67aa140f0001bd75a7eea7ba3bf66b6e8e69e50b9dcef9d4f1cbf2391181dd23bba589a4c7d6d3decfd85b9e91f116a360b09a0f1df6c85f90d44ba0b73ae9b51d1a445fb2c96288ed9945492bcca6646fbab7b55a06c956ff8da4a000d32c76ec03e16a0a53ad3c114d43ba642405b38d783c8894c920a2153af19d146d1db11620871b16417d8dbd7e288f7e76bfd899bf30089e883dec51d62da0c069128099430260c19c85c8ecf17ee0352ea27109815390c4f60f0990a72d9ba01d1343077e30056f9ea0386274731d1e8c0b3afe79a8c386223ba81d90e7086356bdf0766cca80719761d3bd76ea8d806ae10a4bf4129e2cfbadad31166a2894be36249c31217eaf34bbac7e7ac195259e8d37a6e414ca5c3166431345543ea3f547a5907a4ce19200e295fa1a7c80ddc4b85b8d08e224b75e17bb7ffcaff7afe9c8505bb1e224e5c9e367b1dd391c61344819fe2844def98dfae3d97db7a1c37b3712da652e6a1759945e7cc64306e0bc15a44bf05976fb6f16daa3c5c06b9a537ef935fe7edc9bc819ff599ebe47b20d1959cd6b0b68ccd335050f7e66fde117bf99afb37a29a6b106d5ed0d6ed3265738b4096849b1ead50729382a891f2255f74a07006bda6939c1ee750e2d962e88d11645219a2d01f076a3b7b0863dcbf74a904d59570614d362b2772bf50b8123724e749595e5e70e0a079f8a589e67b15533795a68105658ea5302900709c6faa86879f05372ea87d5af749e395edad0806c2307529286a30df761d4fe7e8d6f997bc92878f366261b97449f3c1ba77083e1e56cc06c0e9b94764a22a44030f554426fab93f76945db85efd9684ccff4e2e3f47da805431c312b9031444a7aecc77756bfd136e09208fdf990a55054d7706aa569a35a8527b0a17b912d1c42f16ed3143fa49664d9072596c853bec9c041445a5fbab891b3a65c05d32422b422adade2b3926845eb703189e1b1c48858ba51dbc7f1bccc04a975e0e6f0cede8006cf0e9fe04edeec405549038956e91a76a477f6a3244e6730f2104b610ce5abf4aa9bf89e44eb0089d5940dabbb6de612d62be50db5833156efb0b46e863d6a4004d8321b1e4dcca8635b6cd1dabbbdd5bc6d484447a884c1ad0dc22019353012184750992af63d38467f81af3fbec3f7441ec41eade9b1c031c2ce28bc15a89f4d215dc1f601eb3fea6a4180aa22da4ae86f86cf4f7b060bdbd2ddcd7d6f0c6145a3b85bbfc24b51847d79daef9b839b135fde43b1ef7ffcb8308e2ae020ba653a457a5b6282b1e46cba71d497b8b9bbb8c1e2fb0dc9ff83827fda1439f7ec261895c58e982e71ff6716853d1a5a5a5d1b148eca757fc10a8fc59ab36bdc02f622d6dff5f5966f5f25934dffd6d2b8ac06ed6fe1825095ee397064845631ee6411307e037111b7a253fa7e9ed6d0444d93340245f5f9bd96c5f3158a72719d43cc00e35a5a6bd662db0bbd6c83b363d6827ee6e34c88a6cd41098aef0d08d467b9b76"
      ],
      "sequence": 4294967294
    }
  ],
  "vout": [
    {
      "value": 499965.4254,
      "n": 0,
      "scriptPubKey": {
        "asm": "1 97897299462a0e923ca83c5fd421cf977ed8e08c972fc97f0c814ccd4be68cc1",
        "hex": "512097897299462a0e923ca83c5fd421cf977ed8e08c972fc97f0c814ccd4be68cc1",
        "reqSigs": 1,
        "type": "witness_v1_scripthash",
        "addresses": [
          "3QJmnh"
        ]
      }
    },
    {
      "value": 1.0,
      "n": 1,
      "scriptPubKey": {
        "asm": "OP_RETURN 7371422a2bf89e87726057b95adb8adb06d884545fd987ff910915eb388c880a e90f9cf43127e9cd829274cbecb9cdcfd87f786751abe28402ae70f73b4cc19cc92fbcd41107c9eda2b254ebcc99edeff85f5847718bc2a4228e50d71b6ce1bca94fdcb47167a98dc2d2348bacf98d8f983f382711eba2c442ee30b77b0c81dc896ffc94514789ade2f214ab8cd9adafb81f180731cb82e462ce10975b2ca1fc698f1c74b1a7694d0212f44b6c394d4f58fff8e7d12b6204822ef077bbcc411c49af3c549187496d2232d46b4c196d6f78dfd8c7f10b4224a20ed0579bec613c29cf5c34f1e7290d4252b40b2c790d0f18bfb8a7916b2244c26eb037fb8c015c09ef7c14d1c7092d6272942b0c592d2f389f9887b14b0264e24e9017dbac217ce90f9cf43127e9cd829274cbecb9cdcfd87f786751abe28402ae70f73b4cc19cc92fbcd41107c9eda2b254ebcc99edeff85f5847718bc2a4228e50d71b6ce1bca94fdcb47167a98dc2d2348bacf98d8f983f382711eba2c442ee30b77b0c81dc896ffc94514789ade2f214ab8cd9adafb81f180731cb82e462ce10975b2ca1fc698f1c74b1a7694d0212f44b6c394d4f58fff8e7d12b6204822ef077bbcc411c49af3c549187496d2232d46b4c196d6f78dfd8c7f10b4224a20ed0579bec613c29cf5c34f1e7290d4252b40b2c790d0f18bfb8a7916b2244c26eb037fb8c015c09ef7c14d1c7092d6272942b0c592d2f389f9887b14b0264e24e9017dbac217ce90f9cf43127e9cd829274cbecb9cdcfd87f786751abe28402ae70f73b4cc19cc92fbcd41107c9eda2b254ebcc99edeff85f5847718bc2a4228e50d71b6ce1bca94fdcb47167a98dc2d2348bacf98d8f983f382711eba2c442ee30b77b0c81dc896ffc94514789ade2f214ab8cd9adafb81f180731cb82e462ce10975b2ca1fc698f1c74b1a7694d0212f44b6c394d4f58fff8e7d12b6204822ef077bbcc411c49af3c549187496d2232d46b4c196d6f78dfd8c7f10b4224a20ed0579bec613c29cf5c34f1e7290d4252b40b2c790d0f18bfb8a7916b2244c26eb037fb8c015c09ef7c14d1c7092d6272942b0c592d2f389f9887b14b0264e24e9017dbac217ce90f9cf43127e9cd829274cbecb9cdcfd87f786751abe28402ae70f73b4cc19cc92fbcd41107c9eda2b254ebcc99edeff85f5847718bc2a4228e50d71b6ce1bca94fdcb47167a98dc2d2348bacf98d8f983f382711eba2c442ee30b77b0c81dc896ffc94514789ade2f214ab8cd9adafb81f180731cb82e462ce10975b2ca1fc698f1c74b1a7694d0212f44b6c394d4f58fff8e7d12b6204822ef077bbcc411c49af3c549187496d2232d46b4c196d6f78dfd8c7f10b4224a20ed0579bec613c29cf5c34f1e7290d4252b40b2c790d0f18bfb8a7916b2244c26eb037fb8c015c09ef7c14d1c7092d6272942b0c592d2f389f9887b14b0264e24e9017dbac217ce90f9cf43127e9cd829274cbecb9cdcfd87f786751abe28402ae70f73b4cc19cc92fbcd41107c9eda2b254ebcc99edeff85f5847718bc2a4228e50d71b6ce1bca94fdcb47167a98dc2d2348bacf98d8f983f382711eba2c442ee30b77b0c81dc896ffc94514789ade2f214ab8cd9adafb81f180731cb82e462ce10975b2ca1fc698f1c74b1a7694d0212f44b6c394d4fbd9189f62bed0f93b850729162be9ac42c99af6aa2d0dbde230bb033dd218239",
        "hex": "6a207371422a2bf89e87726057b95adb8adb06d884545fd987ff910915eb388c880a4db004e90f9cf43127e9cd829274cbecb9cdcfd87f786751abe28402ae70f73b4cc19cc92fbcd41107c9eda2b254ebcc99edeff85f5847718bc2a4228e50d71b6ce1bca94fdcb47167a98dc2d2348bacf98d8f983f382711eba2c442ee30b77b0c81dc896ffc94514789ade2f214ab8cd9adafb81f180731cb82e462ce10975b2ca1fc698f1c74b1a7694d0212f44b6c394d4f58fff8e7d12b6204822ef077bbcc411c49af3c549187496d2232d46b4c196d6f78dfd8c7f10b4224a20ed0579bec613c29cf5c34f1e7290d4252b40b2c790d0f18bfb8a7916b2244c26eb037fb8c015c09ef7c14d1c7092d6272942b0c592d2f389f9887b14b0264e24e9017dbac217ce90f9cf43127e9cd829274cbecb9cdcfd87f786751abe28402ae70f73b4cc19cc92fbcd41107c9eda2b254ebcc99edeff85f5847718bc2a4228e50d71b6ce1bca94fdcb47167a98dc2d2348bacf98d8f983f382711eba2c442ee30b77b0c81dc896ffc94514789ade2f214ab8cd9adafb81f180731cb82e462ce10975b2ca1fc698f1c74b1a7694d0212f44b6c394d4f58fff8e7d12b6204822ef077bbcc411c49af3c549187496d2232d46b4c196d6f78dfd8c7f10b4224a20ed0579bec613c29cf5c34f1e7290d4252b40b2c790d0f18bfb8a7916b2244c26eb037fb8c015c09ef7c14d1c7092d6272942b0c592d2f389f9887b14b0264e24e9017dbac217ce90f9cf43127e9cd829274cbecb9cdcfd87f786751abe28402ae70f73b4cc19cc92fbcd41107c9eda2b254ebcc99edeff85f5847718bc2a4228e50d71b6ce1bca94fdcb47167a98dc2d2348bacf98d8f983f382711eba2c442ee30b77b0c81dc896ffc94514789ade2f214ab8cd9adafb81f180731cb82e462ce10975b2ca1fc698f1c74b1a7694d0212f44b6c394d4f58fff8e7d12b6204822ef077bbcc411c49af3c549187496d2232d46b4c196d6f78dfd8c7f10b4224a20ed0579bec613c29cf5c34f1e7290d4252b40b2c790d0f18bfb8a7916b2244c26eb037fb8c015c09ef7c14d1c7092d6272942b0c592d2f389f9887b14b0264e24e9017dbac217ce90f9cf43127e9cd829274cbecb9cdcfd87f786751abe28402ae70f73b4cc19cc92fbcd41107c9eda2b254ebcc99edeff85f5847718bc2a4228e50d71b6ce1bca94fdcb47167a98dc2d2348bacf98d8f983f382711eba2c442ee30b77b0c81dc896ffc94514789ade2f214ab8cd9adafb81f180731cb82e462ce10975b2ca1fc698f1c74b1a7694d0212f44b6c394d4f58fff8e7d12b6204822ef077bbcc411c49af3c549187496d2232d46b4c196d6f78dfd8c7f10b4224a20ed0579bec613c29cf5c34f1e7290d4252b40b2c790d0f18bfb8a7916b2244c26eb037fb8c015c09ef7c14d1c7092d6272942b0c592d2f389f9887b14b0264e24e9017dbac217ce90f9cf43127e9cd829274cbecb9cdcfd87f786751abe28402ae70f73b4cc19cc92fbcd41107c9eda2b254ebcc99edeff85f5847718bc2a4228e50d71b6ce1bca94fdcb47167a98dc2d2348bacf98d8f983f382711eba2c442ee30b77b0c81dc896ffc94514789ade2f214ab8cd9adafb81f180731cb82e462ce10975b2ca1fc698f1c74b1a7694d0212f44b6c394d4fbd9189f62bed0f93b850729162be9ac42c99af6aa2d0dbde230bb033dd218239",
        "type": "nulldata"
      }
    }
  ],
  "blockhash": "3357cb4dc001b5acbac31fcce3a77df76b11eaba9a4d126a2528d529fe11213e",
  "confirmations": 1,
  "time": 1764182290,
  "blocktime": 1764182290
}