{
  "hex": "01000000000101f1ccab6b682d318035afea4926a3ebffcb3ad972ea6f273578cb7648291084ea0000000000feffffff0200e1f50500000000fdd5046a202c62a8cf570fc26eee170455e56eee473216bc7dbefcad5aec65fdf9de12789e4db00456082de3b9801b88987338460202e2c89dbd7e559cac2f4395502c6203daa1d676280dc399a03ba8b85318662222c2e8bd9d5e75bc8c0f63b5700c4223fa81f616486da3f9c05bc8d83378064242a288ddfd3e15dcec6f03d5106c22439ae19636684d83d9e07be8f8135826626282a8fddd1e35fccc4f23f5304c0263bac1b6d688ad6339009b0818f3b8c6828262481d3dfed51c2cafc315d0ace2835a2156f6a88d431920bb2838d398e6a2a242683d1ddef53c0c8fe335f08cc2a37a017696c8ed237940db4858b3f886c2c222085d7dbe955c6cef835590eca2c31a6116b6e8cd035960fb687893d8a6e2e202287d5d9eb57c4ccfa375b0cc82e33a413656082de3b9801b88987338460202e2c89dbd7e559cac2f4395502c6203daa1d676280dc399a03ba8b85318662222c2e8bd9d5e75bc8c0f63b5700c4223fa81f616486da3f9c05bc8d83378064242a288ddfd3e15dcec6f03d5106c22439ae19636684d83d9e07be8f8135826626282a8fddd1e35fccc4f23f5304c0263bac1b6d688ad6339009b0818f3b8c6828262481d3dfed51c2cafc315d0ace2835a2156f6a88d431920bb2838d398e6a2a242683d1ddef53c0c8fe335f08cc2a37a017696c8ed237940db4858b3f886c2c222085d7dbe955c6cef835590eca2c31a6116b6e8cd035960fb687893d8a6e2e202287d5d9eb57c4ccfa375b0cc82e33a413656082de3b9801b88987338460202e2c89dbd7e559cac2f4395502c6203daa1d676280dc399a03ba8b85318662222c2e8bd9d5e75bc8c0f63b5700c4223fa81f616486da3f9c05bc8d83378064242a288ddfd3e15dcec6f03d5106c22439ae19636684d83d9e07be8f8135826626282a8fddd1e35fccc4f23f5304c0263bac1b6d688ad6339009b0818f3b8c6828262481d3dfed51c2cafc315d0ace2835a2156f6a88d431920bb2838d398e6a2a242683d1ddef53c0c8fe335f08cc2a37a017696c8ed237940db4858b3f886c2c222085d7dbe955c6cef835590eca2c31a6116b6e8cd035960fb687893d8a6e2e202287d5d9eb57c4ccfa375b0cc82e33a413656082de3b9801b88987338460202e2c89dbd7e559cac2f4395502c6203daa1d676280dc399a03ba8b85318662222c2e8bd9d5e75bc8c0f63b5700c4223fa81f616486da3f9c05bc8d83378064242a288ddfd3e15dcec6f03d5106c22439ae19636684d83d9e07be8f8135826626282a8fddd1e35fccc4f23f5304c0263bac1b6d688ad6339009b0818f3b8c6828262481d3dfed51c2cafc315d0ace2835a2156f6a88d431920bb2838d398e6a2a242683d1ddef53c0c8fe335f08cc2a37a017696c8ed237940db4858b3f886c2c222085d7dbe955c6cef835590eca2c31a6116b6e8cd035960fb687893d8a6e2e202287d5d9eb57c4ccfa375b0cc82e33a413656082de3b9801b88987338460202e2c89dbd7e559cac2f4395502c6203daa1d676280dc399a03ba8b85318662222c2e8bd9d5e75bc8c0f63b5700c4223fa81f616486da3f9c05bc8d83378064242a288ddfd3e15dcec6f03d5106c22439ae19636684d83d9e07be8f8135826626282a8fddd1e35fccc4f23f5304c0263bac1b6d688ad6339009b0818f3b8c68282624806b6d134ea26921ad75a50bc646c183c7d4ffaf81056eda994b4970ef5a0b69fe0ca1d7c792d0000225120b6f4b3812c565132eefa5719a1eb3c803d1f872b17540b969d26c90692b55d4602fd75097ef42cc2a5dd5361d06d3c5f2238b8c017aa5cf7bff18cbf320ca859cf0f4d12f3949c12206e68f2d400d19cdf0c5778c398a065ab5115cae21635f93c1a862a43c825c084d395eed4b903b275ceb46b645e2a8821054b6515f40e127775c796bc827d04814a14489690c8a91cf11f6bf720c76b8532b9533659b0cf56e02b47a3e8a3f2bfc24ad2149b700d01be8bce7fbacd4876c9da9b5cd0d55bf3d13c063cd3a797d82a6a59506965fb89a321f0aca3bdbf90c407c621aa0843968378da554993d0f0e16c91bbd9d05eaf76ec89271fbc49a9224bceae5337d2fdc8f547eb9296b06b445d80c1c5b3ba268d24a8169bf20f990bbd504836bf92cee96f98bced4173f43c7050eec60abfe31e9efc6f85e174758ff724f9650f960fcaf592084a1402d065a9127dec3b098fe371ab471e54a73101a5831be837bef73a24b60167456e63b7a0cc9a44109a670d0e4c7cf8432a6c0c2a29244c3d9842e4bb5b0980f9a71b38f00dbf408c148444aa586b7ec696ad9990b029261374f541f53e837a800bc20d2b8e4d65eba7b236816ccc52deaa35a8568ee22eff38eb94a9b068195c97a346332398d8b4b7a509297ad2e34d0788434cd5c13a1eaff738f13848e972fe01cb67eaa34230c010060f124c9d5fab3f1fe3e8867aeb546ce10607ee760a1bff0a067d98f8e0483566168320586bf1287e96c36dfc5e451cd983e67d910cf8f8cd515fd3e5dd9200558d92ff9b1b47fdcedf05f978e5b1bb6926a3d350dc8afaf7820272e010971f4e85cf890c8b2bab12f58eb790d38c129958b6ccf1d66421b024c3089b301aee7a3293d0be5719496ce731bfa2edc8431847434bf5e8ce3b4f30daf3edc9229c64c6f2549140c6b29e3441f26723bc4db67b2344c0a58a8abbbe11e9a3188c53f81e4647b26ec9cc8efe38e83f29c4dbddc48e3af27c2d132421777db81e72ffe88d46d1b3fb3fe7bb6f22d1e004da74200140d6c6c5130636d83bbdb6bbdecc0b55c5f1a46d58bbd572e4a1a472956006da7a481ddd71df16a507d31593fc90c244d3d24c949f7468b060d52c6e27a669698452cf31167822d92a0a9e439a1d6259dd15c2fa8c6625eef0a2027700a12b2792aaad6094e55439068625ea5917fdef187dd7dc7b7b65953c8f88f51167cf86ffe6822afd7901cdf97ff27ff9821a3089fe8a307eaf50e9cc8936325357f8871be9c3a593f15258b228d4e62b35ef8a9cd19493a499acf72ae238464e57ef10c0ca7baf663a7bde1f502b43b1bdfdd0babe62903e665056f61e236528cc4ae41cb742a0fe62d72da84c502d464ad972818f8b399fcdf0ccd1324a6ffb55ba2021b30857150412049c8f0a4f4d0ec925f15522b47eaa6b13c443f335740cc324433065f537eda03486371aa5918968e27ce77b840dbb9cd6bacbc469699cd6c17ece7eeedcaa4277d768bd86fc88bb239f26f0e1ee82b875c3c635c1a3d16e5dc677bfd5fdd197d676f14ce7e21f16b9543910914ce770b54cc0ab4ea500f8fc6f4230dfaf34a74b617098e79389ad7df988600f9fedd4a22c40ef96a8ad668a1feeeeec466ef42b2a3c2fc8bb679205319e3b1ac1f77a87c9524edb9999137f01f582b451b280ae914067b1061f2adb4dd2769650f527a944ebfffa03ebf5ca62e99cd09c4c9b1b655240adda702768862ceb3dbdedb7685959a63bf4d2602960e4d0c8e5bad5d118c3afbde8f33dff098afc598a84183d4001d5d15a84a9f77cf897b73aba81851068eade9a3f65f98be683319955979ad9978ef81225ab247984bf81d7c7a3716f1231af3446406911536754df9da093b84851da040f7a2f6d556a64d89846ddcd54644b2955fe138cb0af9601217b49c368d2a1281eb322613bba81dc5c0ee4d445e7fa051d8c8748b278523d81ee07ed7b65f4cc7940846907d7164587ce1014e4a14d8cb52d6fe322cc3914c88bfb730494d91ef67c8bdfa711824130dc543fa879ba0231ea278b2477e2656d63198720aceb4ea84a848037e56720f66e41e1df6e93e116c893f7dc352d9f22af79a97ea1984f455165dfa75cdf3b79b3c20dcee3bfe218762209fa889319287623dd213733162d1b5b8c3e808c64848f649b51d5aa88092f1546329173dcb6101e1e2ba3174556a272a5b987639f24942aa757350b7e08a44cfdc6d4acfb5ab2d9dd7a902a66ceb4051f6af3ededd40b1a2a6071c00770dc6fa6b4b58d3c940f75e39bde89056c2c640c03d1308afebbfc70e1fe877b7f912ff15d4444306a1b03b28f7248338b9835105e1976f44ff0d37ebc7a5d618fc1120731860d53e32aa3d885ca7ec32abae431bbd70d836c4e546bdb65501168446001cc27d5367c983c437aaf1613087dc3160fa8d56cdd94dbd890cd2fe75793cad228527a016c908ba50be36deb5409c2b3c4d566a349dcea8523a2e165494808634e56b14f99548a29186515144e39d8a732bb8b102e96cc3ea5d4ffe03e2de85f1f91b54f6b58b322776ad3bc1583a5098c9bd9d40e6786816d94d85b65adc7d8939711fb900b0be5d93c28db51654c0645730dd53e3b78fa80baf5b1e541613889c7b2df3ecc0242b3be480b7441fa813f268acff22f0cad75e27d9688bb91a882e2babf4aaf61e6f041f70b26a2ef136399552fc3d3643ab78934a4ef2e289198bbce607bd3eb7653c84f545f292f56fccd725d8c2488c56c23a26c4a86ecc5fd71ae332055cfd87f9cfb1c697ca4de224a32f8d76b939dac66fd5917d7cf9ad9adf711201c4a6ff7e4f3b0bb7c552346adf127105bee74f99eb5796e43dee7602cf3ae57f817bf5778d2d4b17062a3bf5b2e363561af53b6934081abe3f18e9172229b0ff2caf795459082c02ab9178343e38a756d105a009ee2436eb8dca6fe8867fbe2c30267c20686a49f382ab311fc1a51f949e5dd43f65f945db6d9ce993faf9b955b51c61e8dae88ad34d54606df9b0e2672f78252e295b808b1e13210c6b18f4e2e860b94e0dc7f2c6109a50160928daef5f351dd1b9ad1853e5beb4fbc687c75f77430dca230633bc430e29885bcc564e08b940f20b9f77bbd34f13d3439a2a70e73fa782248be7d952a10f2da928d0badeafa0a73aac3358902661ed7eb879e62ab2e03583c860bd846c8db4c78de5ed21b863e776e3baffd9f7be2f69f1327cbbf121778ccb9ff5403cc2ed429b8679aa11357821d855b4d8be6ec5db7e96ca731dfb54ee919ebc1e8fd3dd11f2ceef3981fa1a8645fa2bd6675993d09f52145c749a8bf08542adcc6b8091225292d3d5b616cabd1e6f0030a14212a3337445a5b60676c787a7d868b8ca6a8c0d4e1fd13213640434c4e66789ea7bfeaf1040f496087acbabdc3c6fa00000000000000000000000000000000000d26343f01fd21050056873c35b334675bace6141cbecda117d2c961b7c2cdb8075c71b37da2b8d2b8673bcc9fc851319988844e44a0f0c62454fd250b14cce88e2dd28b892d096bb50d8688a7daddeec68622d635e448869910d0642e9ce4962c02dbc0568df1199bed3dc594ae7ae72fb3552a725cf8d9cc65c6f5c7ae55a03a350b6e40951232c16600c870c7d2c782c6f62e96238d1b3571aebd164a5bd58b37aeb622b4a45a53f8ae806d97b7615d85daf2bf67851777865b6751ba75ba7362f510fd2156e5b50dabd4b45f4bc9893798b53b805491c163f319f0b346c3eab94b3c85acbb3843628d2bffe96417ea0cd24545bc33788870d3174d8fd0f7593b2fbe95f25fea1c5775d770bddbc5303518434349923d9fbeecc5791cbc6295f5d2b0e5af6bbeaf35337b4f6fd082e3ed743f10e25dc3d4a5aa9ceb82bb9b2d59cc8283e30383b304fe3074d9a0148f6b4aee21fed8ecb3636286f47a7142c1a0e1956272e4a0027da082e50d4348b5af85af185c18b371bc694f494b65217ef1976ad0da5c78bbb7e605ef5fad84b6e6e61c9826f403ba6a27391c2964c307d9ba90e753e543557f943a568335d0139bd537c6e19c10b03bf47f219ff06a1637d84ac28c5e13f4e936d2760deffba2e5fde29c9f5882154a0fab659b7f8a312046a150d88dc4ed80b7186700e3d319bc8b44cdf391a5e7f9173f9f1fb8949cbc4e57a10b4ba689da0d8cc99be3b14d9bc549fdcfa1b8c61914a87d9563678aa4142c7873920b07cf059ef3be0630828baa8805e7e58d887fb3b969348f939eb12209400cd27bf5a1b27e23ee7abd0d4de2051c75ec2f51e28ee46be8ee0e6ce13c1ffa2fea1098ee817209076f9ad34134ac37b871efef36d5f851cbefb8cf7c522d051712fece8b4c91e6954b95ba1efe68fe8d97f02e0cc5dd27bd3f1ecd24281ed4bf89de59a07c27a5bac9e2725ae56456026df94f129af93c450644ec1cbfa93655faecf71cdb075ebb369704f7bdd48f508b65ae754880a9a2baee966fa55c5c06a87b00376d4755cd1121987ba23026ba3cdd1a0bdf1fb9a119a3d8d761c079b6e97e7fdaeb53858b948109a26a1e34c90144964ba54ab98b3203dd0b13f03480138e15e0addd1a52eb7ba42ea77beaa6e20cf9e55607cc79996fd3807f4eabe5e398d7d4a9b17a73e852bffc7401056d2ab04fd54bd75ec1152812743852e1e2faeafa730eda7163af7575e4b830b2c35d58c655999f5264fd42997f36bae5fedfbfb2eb7553bc2cdf81cf2bbc606b3a265e82ab67b83dac595db4a9553d0b8cfed7c9a084ae4261877841d3da12ee06c3a8673aa7e9bb124fbe55b3e30f82ec131eb7401a090358505d624b7c70f0e280f5e2c3058a5db9375380bc3adade859d86fae21835bc62fa771de29657e5968ad5a98f262039a44f0da9f63264b069c81bb5bc8c11b99b5e81a7397b2c96b1253f242153793baddde4400ff91c237f2743179459f00f283259ba9b9f3544118a28fa9c8c46fa89dbc6cc28858f8b6cbf59ac9d190dfacc130a5bc81424ec04965c2cd05041437c0a8c87ebd3540f18e6cc7d088eb1b44f94e4b2e2baa10562c5e6cd9940944904aa9ca81a558a9dc465e0c595f7378c9911a7627f7377205492b287544162063d7cbcea919fe5afbad47bf72caf7b311a017324fd0e0d5733e999496747f22d652a8493d87a1d3a618acc3f18ad7cf569e74969757ddd703c8d08340662150b6f9278d55dcac12cb1dc692c7c01216359c827a1d359167deb0238f16dcf7a52c0556a59ba8724cdac865c3d52e09d1721a2dd9be788360426bd6645e6767643899fe0b8d434550e7392a60067000000",
  "txid": "49ce4da6eb5ac693940dfc1ab159ae5c7f2e4b0ea74e0cedc71d1c8f0d1cd3ca",
  "hash": "1fc6b5a8e8e430b90577133e84a73342dfe981a8f61234744e45cbd31090be2d",
  "size": 5085,
  "vsize": 2278,
  "version": 1,
  "locktime": 103,
  "vin": [
    {
      "txid": "ea8410294876cb7835276fea72d93acbffeba32649eaaf3580312d686babccf1",
      "vout": 0,
      "scriptSig": {
        "asm": "",
        "hex": ""
      },
      "txinwitness": [
        "7ef42cc2a5dd5361d06d3c5f2238b8c017aa5cf7bff18cbf320ca859cf0f4d12f3949c12206e68f2d400d19cdf0c5778c398a065ab5115cae21635f93c1a862a43c825c084d395eed4b903b275ceb46b645e2a8821054b6515f40e127775c796bc827d04814a14489690c8a91cf11f6bf720c76b8532b9533659b0cf56e02b47a3e8a3f2bfc24ad2149b700d01be8bce7fbacd4876c9da9b5cd0d55bf3d13c063cd3a797d82a6a59506965fb89a321f0aca3bdbf90c407c621aa0843968378da554993d0f0e16c91bbd9d05eaf76ec89271fbc49a9224bceae5337d2fdc8f547eb9296b06b445d80c1c5b3ba268d24a8169bf20f990bbd504836bf92cee96f98bced4173f43c7050eec60abfe31e9efc6f85e174758ff724f9650f960fcaf592084a1402d065a9127dec3b098fe371ab471e54a73101a5831be837bef73a24b60167456e63b7a0cc9a44109a670d0e4c7cf8432a6c0c2a29244c3d9842e4bb5b0980f9a71b38f00dbf408c148444aa586b7ec696ad9990b029261374f541f53e837a800bc20d2b8e4d65eba7b236816ccc52deaa35a8568ee22eff38eb94a9b068195c97a346332398d8b4b7a509297ad2e34d0788434cd5c13a1eaff738f13848e972fe01cb67eaa34230c010060f124c9d5fab3f1fe3e8867aeb546ce10607ee760a1bff0a067d98f8e0483566168320586bf1287e96c36dfc5e451cd983e67d910cf8f8cd515fd3e5dd9200558d92ff9b1b47fdcedf05f978e5b1bb6926a3d350dc8afaf7820272e010971f4e85cf890c8b2bab12f58eb790d38c129958b6ccf1d66421b024c3089b301aee7a3293d0be5719496ce731bfa2edc8431847434bf5e8ce3b4f30daf3edc9229c64c6f2549140c6b29e3441f26723bc4db67b2344c0a58a8abbbe11e9a3188c53f81e4647b26ec9cc8efe38e83f29c4dbddc48e3af27c2d132421777db81e72ffe88d46d1b3fb3fe7bb6f22d1e004da74200140d6c6c5130636d83bbdb6bbdecc0b55c5f1a46d58bbd572e4a1a472956006da7a481ddd71df16a507d31593fc90c244d3d24c949f7468b060d52c6e27a669698452cf31167822d92a0a9e439a1d6259dd15c2fa8c6625eef0a2027700a12b2792aaad6094e55439068625ea5917fdef187dd7dc7b7b65953c8f88f51167cf86ffe6822afd7901cdf97ff27ff9821a3089fe8a307eaf50e9cc8936325357f8871be9c3a593f15258b228d4e62b35ef8a9cd19493a499acf72ae238464e57ef10c0ca7baf663a7bde1f502b43b1bdfdd0babe62903e665056f61e236528cc4ae41cb742a0fe62d72da84c502d464ad972818f8b399fcdf0ccd1324a6ffb55ba2021b30857150412049c8f0a4f4d0ec925f15522b47eaa6b13c443f335740cc324433065f537eda03486371aa5918968e27ce77b840dbb9cd6bacbc469699cd6c17ece7eeedcaa4277d768bd86fc88bb239f26f0e1ee82b875c3c635c1a3d16e5dc677bfd5fdd197d676f14ce7e21f16b9543910914ce770b54cc0ab4ea500f8fc6f4230dfaf34a74b617098e79389ad7df988600f9fedd4a22c40ef96a8ad668a1feeeeec466ef42b2a3c2fc8bb679205319e3b1ac1f77a87c9524edb9999137f01f582b451b280ae914067b1061f2adb4dd2769650f527a944ebfffa03ebf5ca62e99cd09c4c9b1b655240adda702768862ceb3dbdedb7685959a63bf4d2602960e4d0c8e5bad5d118c3afbde8f33dff098afc598a84183d4001d5d15a84a9f77cf897b73aba81851068eade9a3f65f98be683319955979ad9978ef81225ab247984bf81d7c7a3716f1231af3446406911536754df9da093b84851da040f7a2f6d556a64d89846ddcd54644b2955fe138cb0af9601217b49c368d2a1281eb322613bba81dc5c0ee4d445e7fa051d8c8748b278523d81ee07ed7b65f4cc7940846907d7164587ce1014e4a14d8cb52d6fe322cc3914c88bfb730494d91ef67c8bdfa711824130dc543fa879ba0231ea278b2477e2656d63198720aceb4ea84a848037e56720f66e41e1df6e93e116c893f7dc352d9f22af79a97ea1984f455165dfa75cdf3b79b3c20dcee3bfe218762209fa889319287623dd213733162d1b5b8c3e808c64848f649b51d5aa88092f1546329173dcb6101e1e2ba3174556a272a5b987639f24942aa757350b7e08a44cfdc6d4acfb5ab2d9dd7a902a66ceb4051f6af3ededd40b1a2a6071c00770dc6fa6b4b58d3c940f75e39bde89056c2c640c03d1308afebbfc70e1fe877b7f912ff15d4444306a1b03b28f7248338b9835105e1976f44ff0d37ebc7a5d618fc1120731860d53e32aa3d885ca7ec32abae431bbd70d836c4e546bdb65501168446001cc27d5367c983c437aaf1613087dc3160fa8d56cdd94dbd890cd2fe75793cad228527a016c908ba50be36deb5409c2b3c4d566a349dcea8523a2e165494808634e56b14f99548a29186515144e39d8a732bb8b102e96cc3ea5d4ffe03e2de85f1f91b54f6b58b322776ad3bc1583a5098c9bd9d40e6786816d94d85b65adc7d8939711fb900b0be5d93c28db51654c0645730dd53e3b78fa80baf5b1e541613889c7b2df3ecc0242b3be480b7441fa813f268acff22f0cad75e27d9688bb91a882e2babf4aaf61e6f041f70b26a2ef136399552fc3d3643ab78934a4ef2e289198bbce607bd3eb7653c84f545f292f56fccd725d8c2488c56c23a26c4a86ecc5fd71ae332055cfd87f9cfb1c697ca4de224a32f8d76b939dac66fd5917d7cf9ad9adf711201c4a6ff7e4f3b0bb7c552346adf127105bee74f99eb5796e43dee7602cf3ae57f817bf5778d2d4b17062a3bf5b2e363561af53b6934081abe3f18e9172229b0ff2caf795459082c02ab9178343e38a756d105a009ee2436eb8dca6fe8867fbe2c30267c20686a49f382ab311fc1a51f949e5dd43f65f945db6d9ce993faf9b955b51c61e8dae88ad34d54606df9b0e2672f78252e295b808b1e13210c6b18f4e2e860b94e0dc7f2c6109a50160928daef5f351dd1b9ad1853e5beb4fbc687c75f77430dca230633bc430e29885bcc564e08b940f20b9f77bbd34f13d3439a2a70e73fa782248be7d952a10f2da928d0badeafa0a73aac3358902661ed7eb879e62ab2e03583c860bd846c8db4c78de5ed21b863e776e3baffd9f7be2f69f1327cbbf121778ccb9ff5403cc2ed429b8679aa11357821d855b4d8be6ec5db7e96ca731dfb54ee919ebc1e8fd3dd11f2ceef3981fa1a8645fa2bd6675993d09f52145c749a8bf08542adcc6b8091225292d3d5b616cabd1e6f0030a14212a3337445a5b60676c787a7d868b8ca6a8c0d4e1fd13213640434c4e66789ea7bfeaf1040f496087acbabdc3c6fa00000000000000000000000000000000000d26343f01",
        "0056873c35b334675bace6141cbecda117d2c961b7c2cdb8075c71b37da2b8d2b8673bcc9fc851319988844e44a0f0c62454fd250b14cce88e2dd28b892d096bb50d8688a7daddeec68622d635e448869910d0642e9ce4962c02dbc0568df1199bed3dc594ae7ae72fb3552a725cf8d9cc65c6f5c7ae55a03a350b6e40951232c16600c870c7d2c782c6f62e96238d1b3571aebd164a5bd58b37aeb622b4a45a53f8ae806d97b7615d85daf2bf67851777865b6751ba75ba7362f510fd2156e5b50dabd4b45f4bc9893798b53b805491c163f319f0b346c3eab94b3c85acbb3843628d2bffe96417ea0cd24545bc33788870d3174d8fd0f7593b2fbe95f25fea1c5775d770bddbc5303518434349923d9fbeecc5791cbc6295f5d2b0e5af6bbeaf35337b4f6fd082e3ed743f10e25dc3d4a5aa9ceb82bb9b2d59cc8283e30383b304fe3074d9a0148f6b4aee21fed8ecb3636286f47a7142c1a0e1956272e4a0027da082e50d4348b5af85af185c18b371bc694f494b65217ef1976ad0da5c78bbb7e605ef5fad84b6e6e61c9826f403ba6a27391c2964c307d9ba90e753e543557f943a568335d0139bd537c6e19c10b03bf47f219ff06a1637d84ac28c5e13f4e936d2760deffba2e5fde29c9f5882154a0fab659b7f8a312046a150d88dc4ed80b7186700e3d319bc8b44cdf391a5e7f9173f9f1fb8949cbc4e57a10b4ba689da0d8cc99be3b14d9bc549fdcfa1b8c61914a87d9563678aa4142c7873920b07cf059ef3be0630828baa8805e7e58d887fb3b969348f939eb12209400cd27bf5a1b27e23ee7abd0d4de2051c75ec2f51e28ee46be8ee0e6ce13c1ffa2fea1098ee817209076f9ad34134ac37b871efef36d5f851cbefb8cf7c522d051712fece8b4c91e6954b95ba1efe68fe8d97f02e0cc5dd27bd3f1ecd24281ed4bf89de59a07c27a5bac9e2725ae56456026df94f129af93c450644ec1cbfa93655faecf71cdb075ebb369704f7bdd48f508b65ae754880a9a2baee966fa55c5c06a87b00376d4755cd1121987ba23026ba3cdd1a0bdf1fb9a119a3d8d761c079b6e97e7fdaeb53858b948109a26a1e34c90144964ba54ab98b3203dd0b13f03480138e15e0addd1a52eb7ba42ea77beaa6e20cf9e55607cc79996fd3807f4eabe5e398d7d4a9b17a73e852bffc7401056d2ab04fd54bd75ec1152812743852e1e2faeafa730eda7163af7575e4b830b2c35d58c655999f5264fd42997f36bae5fedfbfb2eb7553bc2cdf81cf2bbc606b3a265e82ab67b83dac595db4a9553d0b8cfed7c9a084ae4261877841d3da12ee06c3a8673aa7e9bb124fbe55b3e30f82ec131eb7401a090358505d624b7c70f0e280f5e2c3058a5db9375380bc3adade859d86fae21835bc62fa771de29657e5968ad5a98f262039a44f0da9f63264b069c81bb5bc8c11b99b5e81a7397b2c96b1253f242153793baddde4400ff91c237f2743179459f00f283259ba9b9f3544118a28fa9c8c46fa89dbc6cc28858f8b6cbf59ac9d190dfacc130a5bc81424ec04965c2cd05041437c0a8c87ebd3540f18e6cc7d088eb1b44f94e4b2e2baa10562c5e6cd9940944904aa9ca81a558a9dc465e0c595f7378c9911a7627f7377205492b287544162063d7cbcea919fe5afbad47bf72caf7b311a017324fd0e0d5733e999496747f22d652a8493d87a1d3a618acc3f18ad7cf569e74969757ddd703c8d08340662150b6f9278d55dcac12cb1dc692c7c01216359c827a1d359167deb0238f16dcf7a52c0556a59ba8724cdac865c3d52e09d1721a2dd9be788360426bd6645e6767643899fe0b8d434550e7392a600"
      ],
      "sequence": 4294967294
    }
  ],
  "vout": [
    {
      "value": 1.0,
      "n": 0,
      "scriptPubKey": {
        "asm": "OP_RETURN 2c62a8cf570fc26eee170455e56eee473216bc7dbefcad5aec65fdf9de12789e 56082de3b9801b88987338460202e2c89dbd7e559cac2f4395502c6203daa1d676280dc399a03ba8b85318662222c2e8bd9d5e75bc8c0f63b5700c4223fa81f616486da3f9c05bc8d83378064242a288ddfd3e15dcec6f03d5106c22439ae19636684d83d9e07be8f8135826626282a8fddd1e35fccc4f23f5304c0263bac1b6d688ad6339009b0818f3b8c6828262481d3dfed51c2cafc315d0ace2835a2156f6a88d431920bb2838d398e6a2a242683d1ddef53c0c8fe335f08cc2a37a017696c8ed237940db4858b3f886c2c222085d7dbe955c6cef835590eca2c31a6116b6e8cd035960fb687893d8a6e2e202287d5d9eb57c4ccfa375b0cc82e33a413656082de3b9801b88987338460202e2c89dbd7e559cac2f4395502c6203daa1d676280dc399a03ba8b85318662222c2e8bd9d5e75bc8c0f63b5700c4223fa81f616486da3f9c05bc8d83378064242a288ddfd3e15dcec6f03d5106c22439ae19636684d83d9e07be8f8135826626282a8fddd1e35fccc4f23f5304c0263bac1b6d688ad6339009b0818f3b8c6828262481d3dfed51c2cafc315d0ace2835a2156f6a88d431920bb2838d398e6a2a242683d1ddef53c0c8fe335f08cc2a37a017696c8ed237940db4858b3f886c2c222085d7dbe955c6cef835590eca2c31a6116b6e8cd035960fb687893d8a6e2e202287d5d9eb57c4ccfa375b0cc82e33a413656082de3b9801b88987338460202e2c89dbd7e559cac2f4395502c6203daa1d676280dc399a03ba8b85318662222c2e8bd9d5e75bc8c0f63b5700c4223fa81f616486da3f9c05bc8d83378064242a288ddfd3e15dcec6f03d5106c22439ae19636684d83d9e07be8f8135826626282a8fddd1e35fccc4f23f5304c0263bac1b6d688ad6339009b0818f3b8c6828262481d3dfed51c2cafc315d0ace2835a2156f6a88d431920bb2838d398e6a2a242683d1ddef53c0c8fe335f08cc2a37a017696c8ed237940db4858b3f886c2c222085d7dbe955c6cef835590eca2c31a6116b6e8cd035960fb687893d8a6e2e202287d5d9eb57c4ccfa375b0cc82e33a413656082de3b9801b88987338460202e2c89dbd7e559cac2f4395502c6203daa1d676280dc399a03ba8b85318662222c2e8bd9d5e75bc8c0f63b5700c4223fa81f616486da3f9c05bc8d83378064242a288ddfd3e15dcec6f03d5106c22439ae19636684d83d9e07be8f8135826626282a8fddd1e35fccc4f23f5304c0263bac1b6d688ad6339009b0818f3b8c6828262481d3dfed51c2cafc315d0ace2835a2156f6a88d431920bb2838d398e6a2a242683d1ddef53c0c8fe335f08cc2a37a017696c8ed237940db4858b3f886c2c222085d7dbe955c6cef835590eca2c31a6116b6e8cd035960fb687893d8a6e2e202287d5d9eb57c4ccfa375b0cc82e33a413656082de3b9801b88987338460202e2c89dbd7e559cac2f4395502c6203daa1d676280dc399a03ba8b85318662222c2e8bd9d5e75bc8c0f63b5700c4223fa81f616486da3f9c05bc8d83378064242a288ddfd3e15dcec6f03d5106c22439ae19636684d83d9e07be8f8135826626282a8fddd1e35fccc4f23f5304c0263bac1b6d688ad6339009b0818f3b8c68282624806b6d134ea26921ad75a50bc646c183c7d4ffaf81056eda994b4970ef5a0b69f",
        "hex": "6a202c62a8cf570fc26eee170455e56eee473216bc7dbefcad5aec65fdf9de12789e4db00456082de3b9801b88987338460202e2c89dbd7e559cac2f4395502c6203daa1d676280dc399a03ba8b85318662222c2e8bd9d5e75bc8c0f63b5700c4223fa81f616486da3f9c05bc8d83378064242a288ddfd3e15dcec6f03d5106c22439ae19636684d83d9e07be8f8135826626282a8fddd1e35fccc4f23f5304c0263bac1b6d688ad6339009b0818f3b8c6828262481d3dfed51c2cafc315d0ace2835a2156f6a88d431920bb2838d398e6a2a242683d1ddef53c0c8fe335f08cc2a37a017696c8ed237940db4858b3f886c2c222085d7dbe955c6cef835590eca2c31a6116b6e8cd035960fb687893d8a6e2e202287d5d9eb57c4ccfa375b0cc82e33a413656082de3b9801b88987338460202e2c89dbd7e559cac2f4395502c6203daa1d676280dc399a03ba8b85318662222c2e8bd9d5e75bc8c0f63b5700c4223fa81f616486da3f9c05bc8d83378064242a288ddfd3e15dcec6f03d5106c22439ae19636684d83d9e07be8f8135826626282a8fddd1e35fccc4f23f5304c0263bac1b6d688ad6339009b0818f3b8c6828262481d3dfed51c2cafc315d0ace2835a2156f6a88d431920bb2838d398e6a2a242683d1ddef53c0c8fe335f08cc2a37a017696c8ed237940db4858b3f886c2c222085d7dbe955c6cef835590eca2c31a6116b6e8cd035960fb687893d8a6e2e202287d5d9eb57c4ccfa375b0cc82e33a413656082de3b9801b88987338460202e2c89dbd7e559cac2f4395502c6203daa1d676280dc399a03ba8b85318662222c2e8bd9d5e75bc8c0f63b5700c4223fa81f616486da3f9c05bc8d83378064242a288ddfd3e15dcec6f03d5106c22439ae19636684d83d9e07be8f8135826626282a8fddd1e35fccc4f23f5304c0263bac1b6d688ad6339009b0818f3b8c6828262481d3dfed51c2cafc315d0ace2835a2156f6a88d431920bb2838d398e6a2a242683d1ddef53c0c8fe335f08cc2a37a017696c8ed237940db4858b3f886c2c222085d7dbe955c6cef835590eca2c31a6116b6e8cd035960fb687893d8a6e2e202287d5d9eb57c4ccfa375b0cc82e33a413656082de3b9801b88987338460202e2c89dbd7e559cac2f4395502c6203daa1d676280dc399a03ba8b85318662222c2e8bd9d5e75bc8c0f63b5700c4223fa81f616486da3f9c05bc8d83378064242a288ddfd3e15dcec6f03d5106c22439ae19636684d83d9e07be8f8135826626282a8fddd1e35fccc4f23f5304c0263bac1b6d688ad6339009b0818f3b8c6828262481d3dfed51c2cafc315d0ace2835a2156f6a88d431920bb2838d398e6a2a242683d1ddef53c0c8fe335f08cc2a37a017696c8ed237940db4858b3f886c2c222085d7dbe955c6cef835590eca2c31a6116b6e8cd035960fb687893d8a6e2e202287d5d9eb57c4ccfa375b0cc82e33a413656082de3b9801b88987338460202e2c89dbd7e559cac2f4395502c6203daa1d676280dc399a03ba8b85318662222c2e8bd9d5e75bc8c0f63b5700c4223fa81f616486da3f9c05bc8d83378064242a288ddfd3e15dcec6f03d5106c22439ae19636684d83d9e07be8f8135826626282a8fddd1e35fccc4f23f5304c0263bac1b6d688ad6339009b0818f3b8c68282624806b6d134ea26921ad75a50bc646c183c7d4ffaf81056eda994b4970ef5a0b69f",
        "type": "nulldata"
      }
    },
    {
      "value": 499997.9662,
      "n": 1,
      "scriptPubKey": {
        "asm": "1 b6f4b3812c565132eefa5719a1eb3c803d1f872b17540b969d26c90692b55d46",
        "hex": "5120b6f4b3812c565132eefa5719a1eb3c803d1f872b17540b969d26c90692b55d46",
        "reqSigs": 1,
        "type": "witness_v1_scripthash",
        "addresses": [
          "3QJmnh"
        ]
      }
    }
  ],
  "blockhash": "15af9b025c636b87e0a10c18a1a8de0e5f3c2069ad563b293161176d75df89a4",
  "confirmations": 1,
  "time": 1764174659,
  "blocktime": 1764174659
}