{
  "hex": "01000000000101dfe517c8ffc8afd30f7fcc642bfea2c9c90dac520c8ece0cc7df71e93e5b7d6b0000000000feffffff0200e1f50500000000fdd5046a20e66595679ba2609631cc180c12e4a9e9e9780461f4acebc8146540474f82313b4db004bf8d22bf046e6c0f0d6ba71f42c1a8fcea0ee13916ec2b54407e81b4871bbd9f9fad029f244e4c2f2d4b873f62e188dcca2ec11936cc0b74605ea194a73b9dbfffcd62ff442e2c4f4d2be75f0281e8bcaa4ea17956ac6b14003ec1f4c75bfddfdfed42df640e0c6f6d0bc77f22a1c89c8a6e8159768c4b34201ee1d4e77bddff3f0da23f84eeec8f8deb279fc241287c6a8e61b9966cabd4c0fe0134079b3d1f1f2d821fa4ceccafadcb07bfe261085c4aae4199b64c8bf4e0de211427bb1d3f7f4de27fc4aeaccfcdab67df8201683c2ace21f9d62ceb9480be417447db7d5f5f6dc25fe48e8cefed8b47ffa221481c0aee01d9f60ccbb4a09e615467fb5d7fbf8d22bf046e6c0f0d6ba71f42c1a8fcea0ee13916ec2b54407e81b4871bbd9f9fad029f244e4c2f2d4b873f62e188dcca2ec11936cc0b74605ea194a73b9dbfffcd62ff442e2c4f4d2be75f0281e8bcaa4ea17956ac6b14003ec1f4c75bfddfdfed42df640e0c6f6d0bc77f22a1c89c8a6e8159768c4b34201ee1d4e77bddff3f0da23f84eeec8f8deb279fc241287c6a8e61b9966cabd4c0fe0134079b3d1f1f2d821fa4ceccafadcb07bfe261085c4aae4199b64c8bf4e0de211427bb1d3f7f4de27fc4aeaccfcdab67df8201683c2ace21f9d62ceb9480be417447db7d5f5f6dc25fe48e8cefed8b47ffa221481c0aee01d9f60ccbb4a09e615467fb5d7fbf8d22bf046e6c0f0d6ba71f42c1a8fcea0ee13916ec2b54407e81b4871bbd9f9fad029f244e4c2f2d4b873f62e188dcca2ec11936cc0b74605ea194a73b9dbfffcd62ff442e2c4f4d2be75f0281e8bcaa4ea17956ac6b14003ec1f4c75bfddfdfed42df640e0c6f6d0bc77f22a1c89c8a6e8159768c4b34201ee1d4e77bddff3f0da23f84eeec8f8deb279fc241287c6a8e61b9966cabd4c0fe0134079b3d1f1f2d821fa4ceccafadcb07bfe261085c4aae4199b64c8bf4e0de211427bb1d3f7f4de27fc4aeaccfcdab67df8201683c2ace21f9d62ceb9480be417447db7d5f5f6dc25fe48e8cefed8b47ffa221481c0aee01d9f60ccbb4a09e615467fb5d7fbf8d22bf046e6c0f0d6ba71f42c1a8fcea0ee13916ec2b54407e81b4871bbd9f9fad029f244e4c2f2d4b873f62e188dcca2ec11936cc0b74605ea194a73b9dbfffcd62ff442e2c4f4d2be75f0281e8bcaa4ea17956ac6b14003ec1f4c75bfddfdfed42df640e0c6f6d0bc77f22a1c89c8a6e8159768c4b34201ee1d4e77bddff3f0da23f84eeec8f8deb279fc241287c6a8e61b9966cabd4c0fe0134079b3d1f1f2d821fa4ceccafadcb07bfe261085c4aae4199b64c8bf4e0de211427bb1d3f7f4de27fc4aeaccfcdab67df8201683c2ace21f9d62ceb9480be417447db7d5f5f6dc25fe48e8cefed8b47ffa221481c0aee01d9f60ccbb4a09e615467fb5d7fbf8d22bf046e6c0f0d6ba71f42c1a8fcea0ee13916ec2b54407e81b4871bbd9f9fad029f244e4c2f2d4b873f62e188dcca2ec11936cc0b74605ea194a73b9dbfffcd62ff442e2c4f4d2be75f0281e8bcaa4ea17956ac6b14003ec1f4c75bfddfdfed42df640e0c6f6d0bc77f22a1c89c8a6e8159768c4b34201ee1d4e77bddff3f0da23f84eeec8f8deb279fc241287c74621daccff56ca498e0e676b72d5b7b891791793cb9421f2f9d6275bab9504700774227792d000022512087f94da12fc052c0d8bbc5ad603b8a548e82b94af140d4565e617413dff1c6f002fd750953ffc848d024672a4d16dfcd252359d8a9a60bd7261c76e28b59844c860e0b9ec7b3c6fc950d78467fb022ec526d1536782605fbff5c55bfe3406c42b7875d6ae40b4847cdec701b4336553089789fba3db4d41187b5e7033ec3b2a4e01a99bada012d374d19860e6644170742c5792452f036da7023b491ca6fe188de1bbed1d33e794e0e6bac32c60b6cd1199a2cb8a54991fad1bf42184575ce7cf8184d683e3382cd8bb74234ceae212ec6e76be94e4827661b7680e41a83c9b43198a196e5f764902e1fb149084431d8759440a7c9462a312860ab4a8765b6bbf0341bde54f473f0aa71df9187c27e33e9998dcdbd9c888794b78a652090d699cd94a01016908816e3fe318c7fd5fb64b7975a5e998a25515644745548ce0dcce98522dcf4b342700b20eafea2fea40127626ae194ed929a01154e1fd4bb87ff85b0af7c73723b685842d0f63224f59a06fb76466ba6497db366b9679954c0170f08d1890f88ba7c8fe248f1202bc835d769b4545c23770e4f06b322f7cf75e5df27eda9dce6ce3e7d11d092ed55bca5d07252bbe2ac7c3552b557d1894dba3c1f2fb41815fb233c4856311edb97f3815256865de1fc2ff6423449f799672fb825a5699f2a5c0cdb6ded9ecc6b01aaf3334bc95ca17f1965a0e417715de1d3f4d962f3166a161b455c937fee067386bd6e6172b1f7acd646b0f7d4d4606c8b48cd7a70bee6c02ae8b81f585c5309783caa5bd49b07f344f874ff33e2f73114a112bddc08424fa62e255f2d14bed060a99895bc616226d1f694e89d96899a233aa1f51d59001408c5f82e9dc8e9f0c9e6bd2300a1ad2e541ca4c3ca225dc014ec0ae312216bb0dd9ac69d87d541cd69b755168dd8e6761786802d85b872dc8e6940c0daf9f30d2bfa92d7d01203c8d6245869cefe4477ee02ee959b4e565c2f9af4ae760dcdf97a78302f408341538c2a79a27f99623cba829e6b9b32b143a915ecd0af4c216d1f5a250e15200f6b64d520c3fd8de2c7f44abcfb3867b232cbfa74362bcae08b8a68bc06a8610de3ec563ddf6930c854fb9a8aa958b1b7a4b74803b8c235b67f50a555d0bb7d99e0bc89136206dd7a5a8c5e388995c9f92d7a266f69cf3d4201001157d86e881efbf8cb9d4a9f1b1c7f61f5b5fabb1814450399be8ab47271e9c2efe8ea0b63d5a9479edd710f90b5238c4d34655d4f1e5416278258fcc41c9fb545824789e677011157da4c393f01dd859e65a17a8b15a5fc3b19ab707ae22eac55ea2e9a4fad68e20e83c61e7d9d03e7a090406ab146bf668b3d3927dbc5326be853916e4baa32bf1b1b8887d1f5961d35e95aca39952dd06719fb33e98d4d71885e76002d975d1363396ef48cf3cc1aed32623a59454413b64449caeef6435e74661fc2152679e99f385510a13920e7b123613bcb4fad404b9fe0de24e1970a09f432ad2d128cbcb903505402d469a0c7a5d53ca2deef6dd231c9d50a0c953f6634a3c93da49bf365377fd2f024fdf75807cb8c8632e8f1eb1fcad7c387d99c22bdb8450eaba7547d9511070f7800079df5a4ef18a5de6c268a488ece3b4c7a32b91165cac2a2546b10de275962a00793a0077b5bfa1fa9146287da5171af5702af25d9fc22827fb5680aec9f4b20a11d829425899fd965ed7f70cffb76d5ea8ca7e5cc89b891ed5c30776e4e2bdef39aee90cf5e102a2da4ba9403a9f63597c3b9fb86abd9f949c598e6219b4a9fb7bb0fa964593a30348d33cd525e452161303127d47529902b50ea210672aa6f0f1cc7d1d0d196763b2ff476fd5d0a305c95679bef9442a236815dc054e5507bfb5f46691d69299db44760c43499ab46db6882646b041d698c853107c03ad4045eee14f162f60619a0e978dcd587904e50e0cf365082afc6acc0c55e01873f3457905be041a67b451850a355c3f8a819683eaff8d271b70b2cabcc9f3c8c7e3bbe49fdfb383cc716e5585705393eaf824ab4410dd378f1a5e426b38e7a2c5aa0aa88b101bf49c18e1493319e405d70c3770915eb7a814b49c742f336a0199454c051eb583bcb28648508d78dd3adf28c5838b0e94245161e2290ecd05c230af7ccb928fdfe82d0fc2cd6e2bba85484215174684bf441e411f12a808fc0548055e907e2835dfe7d97c035acf67ce5766a834d836f53b536a98128396ea24127530ce5e78d7225b201906c565a7022ec9ce3cfab98e4d16b68a589ea47bca2424da6627de9262e58b7a00aa52a103f04d38ae9a74bcf12a6affcab7109d8b13d8bd4fde3428066f73f8fd776c229af940059ae4e43ef8906ebbfd39147a226006dd5e320ef69a6d0af9ae0b159c06952f6bb23e65c12aa843ca67846941790a8437e6fa180b03b9142ad3cd3d38e32d2d04f1ffbcb0b88c476236b8d9361398102803b57b47360fd279cd2ae6647c211ec2443b9b9e86994d1135dcb84856244d22ea3c48640b32c60ff92f1bde47a4fcc277e87739e6a3ea7ea0d26fa2c65f8e59e83c2cc5fbb72d43dcdf875c474050fd7dbacc12e170e06a6b8ed0bd32c01f1cd57c93ca5b345a3637e3b03f8c5fc8ba8b9679a9a9c9a4d7a44a4d7c22c7eb52625c2a6eec7f9e159b4327b5c867935c2443d5bb8ad28b65cd3ef9141d77f0a4e78b43e0cbec5adefc19d315ea713b137c9828869fe0d901239c938150f785c91a226dd331d8204d99e433b49e4715c7b2389b479b4bb2131609836fe80d2f3df57fd36e7d0d5c80f2abf2a094a8a9fb8d62afe61a24f85151c8b448fa0ae8eea45781ef6bbf03f93f5c8fbc154d19a6f861261da56c85467d41e2db9e951c4738a82f92416f3f1e550f8dcab709bfff93d7d5d19af9f20b480105a14f301245975e3b37a2e6fdf696fa92362f08536973ca5d46d50d5445bbe48623955b58ce35a12d0bd9db297b4b927c6dd9d149452dd11758e827cff0d42fcee1fa50105abfe87cd2d8637466230acad29fb0f6db52d233f27f5ec120d45eed0e3b9874836599c9cc347309af99185607adb87800907b87104c5c76828912df0a32bd16571d2c1235221408cc0fb6e228753494d21d48592ee0ade6318762f12d293897fc1ac02b74169409361522ff79bdf1e2b0003cd3004745d6438f98fc0804af81511819bceb387cb0ec7bfdf7ed616025926404cb591865ca8f6f213595222b12961b3d10840f06fab2b95af526568ab353c5dbc2e71282ca641919ca80c71ee1c31cfa444418103946679bece98cd387a02ac262b2f19c910ebf81317a0794f0622574f9565613e7894962db3c0830b0c31394d4f81e01517182d6a868b8f959ca5c7d3d7d9fd033c494a4d5a5d61c1cad9053f474e5a60767d8087b6b9bbd9e4edf8fafe00000000000000000000000000000000000000000000000000000818233601fd2105007c75a9a7e2167fcb251019f881ef81badceaaa4a56c141c2f960cf3b41820c0358f0250cc132aba04dfa988a8ead2726ee48440bd8cd84a6aaf260443749942ed70ee33369051023bb98bb84efe5b5d754823b44720f7e592cb5b3d1fb0f984c7874338a7780484d72c717964bcd10cd8ae8433388f984fdec58a693d7de03b6eff5d6d0a1093a7e5607afe80bdeaf79372344d80b05a64c6e8a64367ceaf791a411fc5731c3bb8997adcb52c70122a197d77b154814a81fb0a15cc7f70472e370fb2976faf38b5efd237671085b94167baf9685b148b0d248769cfe89684d01e5b86d8a2cfce91f23f76d897ab2459461a5559b3a77f3fba86ad35f4d4ae15f1b7b5d863714deb01d390f3636559b71a6b4cd7f2a5d3f95f6a25028f560f13f9116bee66a5d789a5d8c22f81ef1215e38a5594dddae8298c60c1a19412e61444b74c76965fc5ef290491471740d88857764096cf2fcb4a050d0be42155d4e7782398cc2822664f93759a357666bd6b5eacf049c3004d1ae664d815c002ee464696bdd4f3f302ae5678c1c558b907d8889d46a63c33496d19d7885b76f504e56ecf83b186bbf5941fef7feb00d5d1ba1a6fd3e6a93fb5d6ea0fb8361bc393f7fbf535541b372f7ad3bd01202b79b4635aef81388af8c231b30dee05527fa39c617fc191ebf9317f16d10980cb60acfcdc837f145cc8f533f6a6f181b37be5651e3cb4a8f0e4727429ece3de21cf3326e69b3d2f8185bd8679c0e1a14ebafd5bce3b31c54bc2329913521fc357f63e6b4516b8baaf1b276d158d8b686551e2647544cdcf7c96918b302b76869f8ab6933caffb93070e36040ee9d5c1830e7513bb528a429e76c9c1f8422c41f96ac4b6ac3ae6ed88f7283b1778d47ffcc1285ee41408379a88dfe2a2dad861324e4d40d7b9d86ba5a423f1a5119e9aa2de49e86fc3db9ea3ca70cf420d8a3abaa16ae41bb6679cb97dc69cce425d3666df2dcbef9c6803ae7fcc23dc23b1793636afcc0c381295f19e83a244ad40e479314086b890f1914f0a76d780b480d0408b5d385e3e613951da16bb10b16ebb53662db431b5d6f8da231bca10645f517b8322ae9c7255626e6cdc966a6d4edfdd6774fa738d9fb0ff9cfb8bd80d820b30e1e154e5d24e8dd34d9538f3760e8818845e024678ecb4fbcebc5c87430839b818b02d282310a524aa760dbf3ea7a1580f8ffec7219d213ca6b8c2652ce7dba14c83cea0262e5e76979d9a998b6c505536ef9c4123937bda82578017437517c29e16c28fdeaa4656d42c264f7670daaca707a459206e18414f8f817f959a6f8e209db1b84537fc33627275687e6cf745859ae5939b5af4a84f80513290b3a1165b7096c4070515ecca9dcfdd68f28b61ee3ba21ea60b2c011513aaea0fc75500a213eac09b88d35bd98c8476d254ebd5b7611d2a4a410d1c2ce6c070dcde661784b36229dbd91b046e8d5e5ffec4f7377f93b8ec716e9d96c1b27bcb5c7d69b8e411168606e1fe992bf69cf85fede33d08664499b470998ed1e76c0be81b6e7ebbd64b1e6337acede75eecae9be9af71917e95ba49b7926caefc505e11b3af6b091bf653bdb408237466b5cd1ac344bd01762c9267f13652ce26ae8435afcaae8cf227350855adae26102f72d8af03d419241bf65b66cf3283ef08437033d817669f34228fe4531a05d3e22c4da8d83ab5b163f8314df00994af7c2c58d23e6150cb3363b185ea15e7c247ec670e86de8770f8ca69e0e4a1e07d6b2dfd53ee8bdc4f4b90fa22cdeb82c5f6ca444dd94159e9dbc9df4402822aaa807c0abcbb4eff640c0779247afadf8b143e53a4319f76562bd7b000000",
  "txid": "417e172247442283b6fc1daa6fbce7e6613925e00b28390b26d58eec1f6d47c6",
  "hash": "0262d5654f3590dcc06622bab9ff73334ec6493d59eeefff831544d57e6b69ce",
  "size": 5085,
  "vsize": 2278,
  "version": 1,
  "locktime": 123,
  "vin": [
    {
      "txid": "6b7d5b3ee971dfc70cce8e0c52ac0dc9c9a2fe2b64cc7f0fd3afc8ffc817e5df",
      "vout": 0,
      "scriptSig": {
        "asm": "",
        "hex": ""
      },
      "txinwitness": [
        "53ffc848d024672a4d16dfcd252359d8a9a60bd7261c76e28b59844c860e0b9ec7b3c6fc950d78467fb022ec526d1536782605fbff5c55bfe3406c42b7875d6ae40b4847cdec701b4336553089789fba3db4d41187b5e7033ec3b2a4e01a99bada012d374d19860e6644170742c5792452f036da7023b491ca6fe188de1bbed1d33e794e0e6bac32c60b6cd1199a2cb8a54991fad1bf42184575ce7cf8184d683e3382cd8bb74234ceae212ec6e76be94e4827661b7680e41a83c9b43198a196e5f764902e1fb149084431d8759440a7c9462a312860ab4a8765b6bbf0341bde54f473f0aa71df9187c27e33e9998dcdbd9c888794b78a652090d699cd94a01016908816e3fe318c7fd5fb64b7975a5e998a25515644745548ce0dcce98522dcf4b342700b20eafea2fea40127626ae194ed929a01154e1fd4bb87ff85b0af7c73723b685842d0f63224f59a06fb76466ba6497db366b9679954c0170f08d1890f88ba7c8fe248f1202bc835d769b4545c23770e4f06b322f7cf75e5df27eda9dce6ce3e7d11d092ed55bca5d07252bbe2ac7c3552b557d1894dba3c1f2fb41815fb233c4856311edb97f3815256865de1fc2ff6423449f799672fb825a5699f2a5c0cdb6ded9ecc6b01aaf3334bc95ca17f1965a0e417715de1d3f4d962f3166a161b455c937fee067386bd6e6172b1f7acd646b0f7d4d4606c8b48cd7a70bee6c02ae8b81f585c5309783caa5bd49b07f344f874ff33e2f73114a112bddc08424fa62e255f2d14bed060a99895bc616226d1f694e89d96899a233aa1f51d59001408c5f82e9dc8e9f0c9e6bd2300a1ad2e541ca4c3ca225dc014ec0ae312216bb0dd9ac69d87d541cd69b755168dd8e6761786802d85b872dc8e6940c0daf9f30d2bfa92d7d01203c8d6245869cefe4477ee02ee959b4e565c2f9af4ae760dcdf97a78302f408341538c2a79a27f99623cba829e6b9b32b143a915ecd0af4c216d1f5a250e15200f6b64d520c3fd8de2c7f44abcfb3867b232cbfa74362bcae08b8a68bc06a8610de3ec563ddf6930c854fb9a8aa958b1b7a4b74803b8c235b67f50a555d0bb7d99e0bc89136206dd7a5a8c5e388995c9f92d7a266f69cf3d4201001157d86e881efbf8cb9d4a9f1b1c7f61f5b5fabb1814450399be8ab47271e9c2efe8ea0b63d5a9479edd710f90b5238c4d34655d4f1e5416278258fcc41c9fb545824789e677011157da4c393f01dd859e65a17a8b15a5fc3b19ab707ae22eac55ea2e9a4fad68e20e83c61e7d9d03e7a090406ab146bf668b3d3927dbc5326be853916e4baa32bf1b1b8887d1f5961d35e95aca39952dd06719fb33e98d4d71885e76002d975d1363396ef48cf3cc1aed32623a59454413b64449caeef6435e74661fc2152679e99f385510a13920e7b123613bcb4fad404b9fe0de24e1970a09f432ad2d128cbcb903505402d469a0c7a5d53ca2deef6dd231c9d50a0c953f6634a3c93da49bf365377fd2f024fdf75807cb8c8632e8f1eb1fcad7c387d99c22bdb8450eaba7547d9511070f7800079df5a4ef18a5de6c268a488ece3b4c7a32b91165cac2a2546b10de275962a00793a0077b5bfa1fa9146287da5171af5702af25d9fc22827fb5680aec9f4b20a11d829425899fd965ed7f70cffb76d5ea8ca7e5cc89b891ed5c30776e4e2bdef39aee90cf5e102a2da4ba9403a9f63597c3b9fb86abd9f949c598e6219b4a9fb7bb0fa964593a30348d33cd525e452161303127d47529902b50ea210672aa6f0f1cc7d1d0d196763b2ff476fd5d0a305c95679bef9442a236815dc054e5507bfb5f46691d69299db44760c43499ab46db6882646b041d698c853107c03ad4045eee14f162f60619a0e978dcd587904e50e0cf365082afc6acc0c55e01873f3457905be041a67b451850a355c3f8a819683eaff8d271b70b2cabcc9f3c8c7e3bbe49fdfb383cc716e5585705393eaf824ab4410dd378f1a5e426b38e7a2c5aa0aa88b101bf49c18e1493319e405d70c3770915eb7a814b49c742f336a0199454c051eb583bcb28648508d78dd3adf28c5838b0e94245161e2290ecd05c230af7ccb928fdfe82d0fc2cd6e2bba85484215174684bf441e411f12a808fc0548055e907e2835dfe7d97c035acf67ce5766a834d836f53b536a98128396ea24127530ce5e78d7225b201906c565a7022ec9ce3cfab98e4d16b68a589ea47bca2424da6627de9262e58b7a00aa52a103f04d38ae9a74bcf12a6affcab7109d8b13d8bd4fde3428066f73f8fd776c229af940059ae4e43ef8906ebbfd39147a226006dd5e320ef69a6d0af9ae0b159c06952f6bb23e65c12aa843ca67846941790a8437e6fa180b03b9142ad3cd3d38e32d2d04f1ffbcb0b88c476236b8d9361398102803b57b47360fd279cd2ae6647c211ec2443b9b9e86994d1135dcb84856244d22ea3c48640b32c60ff92f1bde47a4fcc277e87739e6a3ea7ea0d26fa2c65f8e59e83c2cc5fbb72d43dcdf875c474050fd7dbacc12e170e06a6b8ed0bd32c01f1cd57c93ca5b345a3637e3b03f8c5fc8ba8b9679a9a9c9a4d7a44a4d7c22c7eb52625c2a6eec7f9e159b4327b5c867935c2443d5bb8ad28b65cd3ef9141d77f0a4e78b43e0cbec5adefc19d315ea713b137c9828869fe0d901239c938150f785c91a226dd331d8204d99e433b49e4715c7b2389b479b4bb2131609836fe80d2f3df57fd36e7d0d5c80f2abf2a094a8a9fb8d62afe61a24f85151c8b448fa0ae8eea45781ef6bbf03f93f5c8fbc154d19a6f861261da56c85467d41e2db9e951c4738a82f92416f3f1e550f8dcab709bfff93d7d5d19af9f20b480105a14f301245975e3b37a2e6fdf696fa92362f08536973ca5d46d50d5445bbe48623955b58ce35a12d0bd9db297b4b927c6dd9d149452dd11758e827cff0d42fcee1fa50105abfe87cd2d8637466230acad29fb0f6db52d233f27f5ec120d45eed0e3b9874836599c9cc347309af99185607adb87800907b87104c5c76828912df0a32bd16571d2c1235221408cc0fb6e228753494d21d48592ee0ade6318762f12d293897fc1ac02b74169409361522ff79bdf1e2b0003cd3004745d6438f98fc0804af81511819bceb387cb0ec7bfdf7ed616025926404cb591865ca8f6f213595222b12961b3d10840f06fab2b95af526568ab353c5dbc2e71282ca641919ca80c71ee1c31cfa444418103946679bece98cd387a02ac262b2f19c910ebf81317a0794f0622574f9565613e7894962db3c0830b0c31394d4f81e01517182d6a868b8f959ca5c7d3d7d9fd033c494a4d5a5d61c1cad9053f474e5a60767d8087b6b9bbd9e4edf8fafe00000000000000000000000000000000000000000000000000000818233601",
        "007c75a9a7e2167fcb251019f881ef81badceaaa4a56c141c2f960cf3b41820c0358f0250cc132aba04dfa988a8ead2726ee48440bd8cd84a6aaf260443749942ed70ee33369051023bb98bb84efe5b5d754823b44720f7e592cb5b3d1fb0f984c7874338a7780484d72c717964bcd10cd8ae8433388f984fdec58a693d7de03b6eff5d6d0a1093a7e5607afe80bdeaf79372344d80b05a64c6e8a64367ceaf791a411fc5731c3bb8997adcb52c70122a197d77b154814a81fb0a15cc7f70472e370fb2976faf38b5efd237671085b94167baf9685b148b0d248769cfe89684d01e5b86d8a2cfce91f23f76d897ab2459461a5559b3a77f3fba86ad35f4d4ae15f1b7b5d863714deb01d390f3636559b71a6b4cd7f2a5d3f95f6a25028f560f13f9116bee66a5d789a5d8c22f81ef1215e38a5594dddae8298c60c1a19412e61444b74c76965fc5ef290491471740d88857764096cf2fcb4a050d0be42155d4e7782398cc2822664f93759a357666bd6b5eacf049c3004d1ae664d815c002ee464696bdd4f3f302ae5678c1c558b907d8889d46a63c33496d19d7885b76f504e56ecf83b186bbf5941fef7feb00d5d1ba1a6fd3e6a93fb5d6ea0fb8361bc393f7fbf535541b372f7ad3bd01202b79b4635aef81388af8c231b30dee05527fa39c617fc191ebf9317f16d10980cb60acfcdc837f145cc8f533f6a6f181b37be5651e3cb4a8f0e4727429ece3de21cf3326e69b3d2f8185bd8679c0e1a14ebafd5bce3b31c54bc2329913521fc357f63e6b4516b8baaf1b276d158d8b686551e2647544cdcf7c96918b302b76869f8ab6933caffb93070e36040ee9d5c1830e7513bb528a429e76c9c1f8422c41f96ac4b6ac3ae6ed88f7283b1778d47ffcc1285ee41408379a88dfe2a2dad861324e4d40d7b9d86ba5a423f1a5119e9aa2de49e86fc3db9ea3ca70cf420d8a3abaa16ae41bb6679cb97dc69cce425d3666df2dcbef9c6803ae7fcc23dc23b1793636afcc0c381295f19e83a244ad40e479314086b890f1914f0a76d780b480d0408b5d385e3e613951da16bb10b16ebb53662db431b5d6f8da231bca10645f517b8322ae9c7255626e6cdc966a6d4edfdd6774fa738d9fb0ff9cfb8bd80d820b30e1e154e5d24e8dd34d9538f3760e8818845e024678ecb4fbcebc5c87430839b818b02d282310a524aa760dbf3ea7a1580f8ffec7219d213ca6b8c2652ce7dba14c83cea0262e5e76979d9a998b6c505536ef9c4123937bda82578017437517c29e16c28fdeaa4656d42c264f7670daaca707a459206e18414f8f817f959a6f8e209db1b84537fc33627275687e6cf745859ae5939b5af4a84f80513290b3a1165b7096c4070515ecca9dcfdd68f28b61ee3ba21ea60b2c011513aaea0fc75500a213eac09b88d35bd98c8476d254ebd5b7611d2a4a410d1c2ce6c070dcde661784b36229dbd91b046e8d5e5ffec4f7377f93b8ec716e9d96c1b27bcb5c7d69b8e411168606e1fe992bf69cf85fede33d08664499b470998ed1e76c0be81b6e7ebbd64b1e6337acede75eecae9be9af71917e95ba49b7926caefc505e11b3af6b091bf653bdb408237466b5cd1ac344bd01762c9267f13652ce26ae8435afcaae8cf227350855adae26102f72d8af03d419241bf65b66cf3283ef08437033d817669f34228fe4531a05d3e22c4da8d83ab5b163f8314df00994af7c2c58d23e6150cb3363b185ea15e7c247ec670e86de8770f8ca69e0e4a1e07d6b2dfd53ee8bdc4f4b90fa22cdeb82c5f6ca444dd94159e9dbc9df4402822aaa807c0abcbb4eff640c0779247afadf8b143e53a4319f76562bd"
      ],
      "sequence": 4294967294
    }
  ],
  "vout": [
    {
      "value": 1.0,
      "n": 0,
      "scriptPubKey": {
        "asm": "OP_RETURN e66595679ba2609631cc180c12e4a9e9e9780461f4acebc8146540474f82313b bf8d22bf046e6c0f0d6ba71f42c1a8fcea0ee13916ec2b54407e81b4871bbd9f9fad029f244e4c2f2d4b873f62e188dcca2ec11936cc0b74605ea194a73b9dbfffcd62ff442e2c4f4d2be75f0281e8bcaa4ea17956ac6b14003ec1f4c75bfddfdfed42df640e0c6f6d0bc77f22a1c89c8a6e8159768c4b34201ee1d4e77bddff3f0da23f84eeec8f8deb279fc241287c6a8e61b9966cabd4c0fe0134079b3d1f1f2d821fa4ceccafadcb07bfe261085c4aae4199b64c8bf4e0de211427bb1d3f7f4de27fc4aeaccfcdab67df8201683c2ace21f9d62ceb9480be417447db7d5f5f6dc25fe48e8cefed8b47ffa221481c0aee01d9f60ccbb4a09e615467fb5d7fbf8d22bf046e6c0f0d6ba71f42c1a8fcea0ee13916ec2b54407e81b4871bbd9f9fad029f244e4c2f2d4b873f62e188dcca2ec11936cc0b74605ea194a73b9dbfffcd62ff442e2c4f4d2be75f0281e8bcaa4ea17956ac6b14003ec1f4c75bfddfdfed42df640e0c6f6d0bc77f22a1c89c8a6e8159768c4b34201ee1d4e77bddff3f0da23f84eeec8f8deb279fc241287c6a8e61b9966cabd4c0fe0134079b3d1f1f2d821fa4ceccafadcb07bfe261085c4aae4199b64c8bf4e0de211427bb1d3f7f4de27fc4aeaccfcdab67df8201683c2ace21f9d62ceb9480be417447db7d5f5f6dc25fe48e8cefed8b47ffa221481c0aee01d9f60ccbb4a09e615467fb5d7fbf8d22bf046e6c0f0d6ba71f42c1a8fcea0ee13916ec2b54407e81b4871bbd9f9fad029f244e4c2f2d4b873f62e188dcca2ec11936cc0b74605ea194a73b9dbfffcd62ff442e2c4f4d2be75f0281e8bcaa4ea17956ac6b14003ec1f4c75bfddfdfed42df640e0c6f6d0bc77f22a1c89c8a6e8159768c4b34201ee1d4e77bddff3f0da23f84eeec8f8deb279fc241287c6a8e61b9966cabd4c0fe0134079b3d1f1f2d821fa4ceccafadcb07bfe261085c4aae4199b64c8bf4e0de211427bb1d3f7f4de27fc4aeaccfcdab67df8201683c2ace21f9d62ceb9480be417447db7d5f5f6dc25fe48e8cefed8b47ffa221481c0aee01d9f60ccbb4a09e615467fb5d7fbf8d22bf046e6c0f0d6ba71f42c1a8fcea0ee13916ec2b54407e81b4871bbd9f9fad029f244e4c2f2d4b873f62e188dcca2ec11936cc0b74605ea194a73b9dbfffcd62ff442e2c4f4d2be75f0281e8bcaa4ea17956ac6b14003ec1f4c75bfddfdfed42df640e0c6f6d0bc77f22a1c89c8a6e8159768c4b34201ee1d4e77bddff3f0da23f84eeec8f8deb279fc241287c6a8e61b9966cabd4c0fe0134079b3d1f1f2d821fa4ceccafadcb07bfe261085c4aae4199b64c8bf4e0de211427bb1d3f7f4de27fc4aeaccfcdab67df8201683c2ace21f9d62ceb9480be417447db7d5f5f6dc25fe48e8cefed8b47ffa221481c0aee01d9f60ccbb4a09e615467fb5d7fbf8d22bf046e6c0f0d6ba71f42c1a8fcea0ee13916ec2b54407e81b4871bbd9f9fad029f244e4c2f2d4b873f62e188dcca2ec11936cc0b74605ea194a73b9dbfffcd62ff442e2c4f4d2be75f0281e8bcaa4ea17956ac6b14003ec1f4c75bfddfdfed42df640e0c6f6d0bc77f22a1c89c8a6e8159768c4b34201ee1d4e77bddff3f0da23f84eeec8f8deb279fc241287c74621daccff56ca498e0e676b72d5b7b891791793cb9421f2f9d6275bab95047",
        "hex": "6a20e66595679ba2609631cc180c12e4a9e9e9780461f4acebc8146540474f82313b4db004bf8d22bf046e6c0f0d6ba71f42c1a8fcea0ee13916ec2b54407e81b4871bbd9f9fad029f244e4c2f2d4b873f62e188dcca2ec11936cc0b74605ea194a73b9dbfffcd62ff442e2c4f4d2be75f0281e8bcaa4ea17956ac6b14003ec1f4c75bfddfdfed42df640e0c6f6d0bc77f22a1c89c8a6e8159768c4b34201ee1d4e77bddff3f0da23f84eeec8f8deb279fc241287c6a8e61b9966cabd4c0fe0134079b3d1f1f2d821fa4ceccafadcb07bfe261085c4aae4199b64c8bf4e0de211427bb1d3f7f4de27fc4aeaccfcdab67df8201683c2ace21f9d62ceb9480be417447db7d5f5f6dc25fe48e8cefed8b47ffa221481c0aee01d9f60ccbb4a09e615467fb5d7fbf8d22bf046e6c0f0d6ba71f42c1a8fcea0ee13916ec2b54407e81b4871bbd9f9fad029f244e4c2f2d4b873f62e188dcca2ec11936cc0b74605ea194a73b9dbfffcd62ff442e2c4f4d2be75f0281e8bcaa4ea17956ac6b14003ec1f4c75bfddfdfed42df640e0c6f6d0bc77f22a1c89c8a6e8159768c4b34201ee1d4e77bddff3f0da23f84eeec8f8deb279fc241287c6a8e61b9966cabd4c0fe0134079b3d1f1f2d821fa4ceccafadcb07bfe261085c4aae4199b64c8bf4e0de211427bb1d3f7f4de27fc4aeaccfcdab67df8201683c2ace21f9d62ceb9480be417447db7d5f5f6dc25fe48e8cefed8b47ffa221481c0aee01d9f60ccbb4a09e615467fb5d7fbf8d22bf046e6c0f0d6ba71f42c1a8fcea0ee13916ec2b54407e81b4871bbd9f9fad029f244e4c2f2d4b873f62e188dcca2ec11936cc0b74605ea194a73b9dbfffcd62ff442e2c4f4d2be75f0281e8bcaa4ea17956ac6b14003ec1f4c75bfddfdfed42df640e0c6f6d0bc77f22a1c89c8a6e8159768c4b34201ee1d4e77bddff3f0da23f84eeec8f8deb279fc241287c6a8e61b9966cabd4c0fe0134079b3d1f1f2d821fa4ceccafadcb07bfe261085c4aae4199b64c8bf4e0de211427bb1d3f7f4de27fc4aeaccfcdab67df8201683c2ace21f9d62ceb9480be417447db7d5f5f6dc25fe48e8cefed8b47ffa221481c0aee01d9f60ccbb4a09e615467fb5d7fbf8d22bf046e6c0f0d6ba71f42c1a8fcea0ee13916ec2b54407e81b4871bbd9f9fad029f244e4c2f2d4b873f62e188dcca2ec11936cc0b74605ea194a73b9dbfffcd62ff442e2c4f4d2be75f0281e8bcaa4ea17956ac6b14003ec1f4c75bfddfdfed42df640e0c6f6d0bc77f22a1c89c8a6e8159768c4b34201ee1d4e77bddff3f0da23f84eeec8f8deb279fc241287c6a8e61b9966cabd4c0fe0134079b3d1f1f2d821fa4ceccafadcb07bfe261085c4aae4199b64c8bf4e0de211427bb1d3f7f4de27fc4aeaccfcdab67df8201683c2ace21f9d62ceb9480be417447db7d5f5f6dc25fe48e8cefed8b47ffa221481c0aee01d9f60ccbb4a09e615467fb5d7fbf8d22bf046e6c0f0d6ba71f42c1a8fcea0ee13916ec2b54407e81b4871bbd9f9fad029f244e4c2f2d4b873f62e188dcca2ec11936cc0b74605ea194a73b9dbfffcd62ff442e2c4f4d2be75f0281e8bcaa4ea17956ac6b14003ec1f4c75bfddfdfed42df640e0c6f6d0bc77f22a1c89c8a6e8159768c4b34201ee1d4e77bddff3f0da23f84eeec8f8deb279fc241287c74621daccff56ca498e0e676b72d5b7b891791793cb9421f2f9d6275bab95047",
        "type": "nulldata"
      }
    },
    {
      "value": 499983.7296,
      "n": 1,
      "scriptPubKey": {
        "asm": "1 87f94da12fc052c0d8bbc5ad603b8a548e82b94af140d4565e617413dff1c6f0",
        "hex": "512087f94da12fc052c0d8bbc5ad603b8a548e82b94af140d4565e617413dff1c6f0",
        "reqSigs": 1,
        "type": "witness_v1_scripthash",
        "addresses": [
          "3QJmnh"
        ]
      }
    }
  ],
  "blockhash": "3f7b66b34673dd56727b9b27d02dfa4f8333ff75e8b72ddccb546061f2a7d063",
  "confirmations": 1,
  "time": 1764180681,
  "blocktime": 1764180681
}