{
  "hex": "0100000000010142e26105e19b05e190267ba8744bfa238caaba8849a0612f64561d31d5d3c9cf0000000000feffffff0200e1f50500000000fdd5046a203059c53992470c28e16831ec5a6be5d1b7164dd38e9ba058d431cf6fe97acb404db00453f6cc8ce252e7428b44593a12ff877b0b0a61e09c5a4572c61093dcfdf68dc973d6ecacc272c762ab64791a32dfa75b2b2a41c0bc7a6552e630b3fcddd6ade913b68ccca212a702cb04197a52bfc73b4b4a21a0dc1a05328650d39cbdb6cd893396acec82328722eb24395a729fe71b6b6a0180fc3a2512a670f3bc9d96eda9d3764c0c62d267c20bc4d9ba927f07fb8b8ae1601cdac5f24690135c7d760d49f3566c2c42f247e22be4f99ab25f27dbabaac1403cfae5d266b0337c5d562d6993360c4c229227824b8499fad23f47bbcbcaa1205c9a85b206d0531c3d364d09b3162c6c02b207a26ba4b9daf21f679bebea81007cbaa59226f0733c1d166d2953f6cc8ce252e7428b44593a12ff877b0b0a61e09c5a4572c61093dcfdf68dc973d6ecacc272c762ab64791a32dfa75b2b2a41c0bc7a6552e630b3fcddd6ade913b68ccca212a702cb04197a52bfc73b4b4a21a0dc1a05328650d39cbdb6cd893396acec82328722eb24395a729fe71b6b6a0180fc3a2512a670f3bc9d96eda9d3764c0c62d267c20bc4d9ba927f07fb8b8ae1601cdac5f24690135c7d760d49f3566c2c42f247e22be4f99ab25f27dbabaac1403cfae5d266b0337c5d562d6993360c4c229227824b8499fad23f47bbcbcaa1205c9a85b206d0531c3d364d09b3162c6c02b207a26ba4b9daf21f679bebea81007cbaa59226f0733c1d166d2953f6cc8ce252e7428b44593a12ff877b0b0a61e09c5a4572c61093dcfdf68dc973d6ecacc272c762ab64791a32dfa75b2b2a41c0bc7a6552e630b3fcddd6ade913b68ccca212a702cb04197a52bfc73b4b4a21a0dc1a05328650d39cbdb6cd893396acec82328722eb24395a729fe71b6b6a0180fc3a2512a670f3bc9d96eda9d3764c0c62d267c20bc4d9ba927f07fb8b8ae1601cdac5f24690135c7d760d49f3566c2c42f247e22be4f99ab25f27dbabaac1403cfae5d266b0337c5d562d6993360c4c229227824b8499fad23f47bbcbcaa1205c9a85b206d0531c3d364d09b3162c6c02b207a26ba4b9daf21f679bebea81007cbaa59226f0733c1d166d2953f6cc8ce252e7428b44593a12ff877b0b0a61e09c5a4572c61093dcfdf68dc973d6ecacc272c762ab64791a32dfa75b2b2a41c0bc7a6552e630b3fcddd6ade913b68ccca212a702cb04197a52bfc73b4b4a21a0dc1a05328650d39cbdb6cd893396acec82328722eb24395a729fe71b6b6a0180fc3a2512a670f3bc9d96eda9d3764c0c62d267c20bc4d9ba927f07fb8b8ae1601cdac5f24690135c7d760d49f3566c2c42f247e22be4f99ab25f27dbabaac1403cfae5d266b0337c5d562d6993360c4c229227824b8499fad23f47bbcbcaa1205c9a85b206d0531c3d364d09b3162c6c02b207a26ba4b9daf21f679bebea81007cbaa59226f0733c1d166d2953f6cc8ce252e7428b44593a12ff877b0b0a61e09c5a4572c61093dcfdf68dc973d6ecacc272c762ab64791a32dfa75b2b2a41c0bc7a6552e630b3fcddd6ade913b68ccca212a702cb04197a52bfc73b4b4a21a0dc1a05328650d39cbdb6cd893396acec82328722eb24395a729fe71b6b6a0180fc3a2512a670f3bc9d96eda9d3764c0c62d267c20bc4d9ba927f07fb216e267c5dd00da749bc9ad9f41867bd465cbd37bb00146c15598256a83a156fa020df63792d00002251201e11c4c3249b9a4979de78ac694beb7a79e302267b03d7751f3b270d61bebde702fd7509c779ff9a4e2394e171b95fa2a864fefa0e42c0fc404d07b233769f71d3d93d2ddea07b9f3f7387c4f87235cb405c05a1c26304765ee5c2f548e6e15926df4ef6f6fce0ac3d65accd38e5f0b392b328d59749a98b479bf5c1ac7b7e46d75affe921ed6aac3c681c95e37921bc64042e8eff12202afe341959bb880606f26f9835df9abca5c9acfdf04d5b10f77981597f5e310d9c7f4582e51b23fe57f6e3ee042067d3be7f0d77cc27fd7a1edfa362e6fddedb3203a39f35aa0cc044f9bf84eaaf1c0772236a71ceee7b72422f22311105517358e0e3725a759fea5e15ccb4aa9db94f734dc83743f855a2ac3a3cdd0ad0464055b0f106e5909849daf0da686d941ad4373a8e2169592a3fb52cac0d4b4fbc3df2fab418aae836cfed96235b8d5b6161c843ef2ca027a58c4442a09dacfcfaa367dbd11e51add2b75f94f7473dfc05a31c5b4a773e8ed5d73801ec46c485e91ededbdc22c4e99a42dd8772bfb3c11affdfbc55018c4dd1bdb967bba141b72f5c9d1cdb49ed6f7116f5efb003f1d9aead26f5127bcfd48e3447c932889287c9d96b6aaafb5ab8a2096ac7e47aa169be282960868be728cbe19413478e9f8f8523ce742766f4557664e8e28bfa076398bb32eaf15ea90100ada4f24fe5e4a49ac8bb46eb9feb9cf1294a3711c20e7fb94720116c00a015526fde110fb032c089b2277299b7f1ed77ae8cddac21f388816dd95eefe4a2c9b4e1f8f162405184649274a8036249503d65c5e42991992c2489fe492e91d1b1f32c4c6dd701847e323702adcea96bc159b6c7fbc56e32bfc868c4a2a0de849162d4878f306e085e3ef9b085517aea874e175c8809f080006286f3cfef632adcbdd51931b84148cd7406e4a65f1c5f341ddb618799dade08c1c7e2bba4fcfc925002b8be449f972750fb1609d30c4da3420578b01fc952439cfcf812fd6fed9b560900db15c8f046c8ee84fa4f7f106f4f2382e8af1eca7c576c1f8ad80306d249a868b74675b6f0ccf20a6a70689de905a5dc3eb220a7eaa48ec20973a9cb6ad88dc907f2b5c636f5c0ee87bc397f7f197110386186bdd57c8953016174d7e16836ee049a695910f3ac7ec025b17183e167261a228b4d4b884859faccb6432db94c540b80fa6e76ca27b9fb8576da1fd1aa95dc55125a39e0d5157accbe2e0a8d622b3efa1a3f93b03bc51cae5bce1097333c42489805aaec35a7d5e7605d64f08345708412d9736e44b9705db6f87a452a39c9c98bb2219952363eb876a313da911d895d698e2f9d9c876ea01f67bd9d59af777266a025c17b3c50f67ed92481054b7f7c71f9095e297ce87dd6c9023bcbdf9a8a5442ac227e8c26b05bd8371c825ba8ebbd096babe923ffd375a716ab20a18d5d150ba6aac1cce9e203791057a2170c08ffce9756d5e550ac408d1aa9619bc8ec1b197bf099eb38961fde935f4e67904eabe745ea18bc7f23de784ddee2f0647bd2db155d14d998d8a80aa9a1ccab463753f86f8c639e19b517bc55d72be0768597ebf732af9f2a5f61a65babddfb7627faff2f31f8e6b217754024f1e772dfd1cb85eee55ff2d1f4de668f3de7321181fedb31b65ce066c99e5cc0a5b328ed08c344521551fb42a73dd332962661fc4735af13bb7da85517f901e2f3f3097d3978a5de9c10ce334717c706707218236f220389aade86438014899da21c3a628cc43a2a076b5da287ed0d1151556aa069b88a1940a2f707e41ce463e66c665bba43418746006c7b7e2cc572495d96ef100ebf9b502ec096df416ca2bb69c5b76506b8e17c4d1c4371596a84e49bbde43647546f880c4c1e47d7bce51450f75857a422267a383250af940e5eb29b5713b18c2e72fc44561525ff8541459171facd54a89ea382efbb1749447e8c6251f45f2ce4f4989ac753e17284d5237aa8b0d8083793e111d19706be5ab11e7534bea066f9984bc23394c38310ff26afd193f6055a8a55065510452d9d885217f06b618abbb9dc37a33ce28384ba04502967f7e50ccd871e0127b2952eee59715f2aa0cdd446384135ba25ebad1ee74ad63da8372485f11273a84a5fb93acf4d002e53c794dce8933872444add7d0b4a35d0896840e7c5776d733f4ca44ec55e55514f06bf685ed503e66e73338dce71f3bbc0e40df7de9d4455ca60c061e3dd09575a7048e184f29f4350ee54c218678d1402c8b273ba69daa54c1e4087be0c338626361bade6524c79cff8a55f04fdd843123dc833bad7e8a0555894d1f7e0fc4dab1da9264ee4ae09e3e350e6519b482800d85ede6625376781b3900b31074acdd6859a7e662393f9a9ecffb0706635b21a0c45bea74dcb3acf81e0b9ae4d15734224bd350e306fe95bf18d07474363007339f9c33ffc7069b38640ea277aa36946e5655793b21697f0fef8e08669287267b84e55ed8b1562af593e2afd46bc41f5f189a1a58dc5e4b1f4be9c09b5abb4ecdab8d38d9882140d405e606545ac6646c6ddd873f930d704a3c080d0800bd92518fb07db55686d553b77e86d09d486e1ac7bf25b3024145368acbd9a07baf44f4e67e636bfb82d5ce46f272993890ddfbe0293a145b07348aaf48a6328268adacc5a36381569945942de45c50bcd4455dcc776d9654bef31c938f571ebfbc139ab1eaf558fca753e6d49dbe2fb69bc7c6ace8b72eb035afa35604350f5756ce7b4616d7d58a3f749d494cf3f96261f09b0ad9a70698a70673c98c5ae4c8652d77567169b76b11712837ffd674bb83f3c555b6d543be2e2d40057dc6ed9c7b2074e20ae61f56615178145b8f12daea62b5940bc062dc3305aba745755f7fcbd17afe5cca7e802590f13cbda7f0fa610adf79667a0c5d7216e3e82c025574f87d68f2d95053cb1d658cd5368c687df9d861c63ac15afe0f3699b1a8851feef839f1183e987ddd125e8036ea03f79a51cf46c45ced095f94346d4cbc65d597d0d96aecf5a967da364b2f1b7936ab1fe7e618784b2c40b59a14c8349a4dfebc2e3685be68a515e41d54194dd22e3eb0872be38942cd92008e2b7f97c4a4c5cbd5f8dd6844a9675fd82b8849f07d2085af0034d018c96c8cba80470e63c0de105696363f80632a2a52ec0a0aa9e1c2077436effa4197fc6d3e1478f48406d5154745ae3394f58dc50462db5297cb59c20ec448a1a17241bab0e71c7f5fc6586cfee7703325697c6aedf82269e66b512e3272e7c47baab373a1dbf2f7ba1f564a491479df22921439729574924cd11ec5642c039053fb41acf990ac19bf83727e2e6e20eff0f22323a54738b8d989dbbd1d8dee7f2f6fe0001113c41454e5a708090a1b1e1f9fe00303343595d6075a0a4babec6e9010b29383c43465b6671767e9092a0a7aeb9c3cad100000000000000000000001222304501fd21050077a29790fe21876cae3333b0a1e438be61b9c37064897026e0b835ce1e878dcb55e4791b19f15c500acc8232dbd71c59de0aead541360dada949137a6d1b51a16f76ae8567964dc3159a897ced28f6ceef0a79e00741b4f54d35d7fcab563eff4eae8fbd56d8729a6e4efa3d57788fa9a8cdfa97c2b7e5fd74b2a574b33f76b2d41395c398d6ef1867b37d650fa91503bcf1edbb486c565e9987dd9f6429bde31fd0b63d16775e4b1aa07f9c2659bd85c5def8dfbc758454ea5b51a89615fba47ed0bcbfd6095cf58d30c75f6eb8b063e3073e430fb51bce7083c785d498a4d8131cb4de02e5f5f7acb32a1bfcc5ae2fa9900d72f683255227b12e1fbe0b8486a2fa3a7054b0d9ad23067a8f193d807a54d0213221eb43d6162056038b3a2a31924aa5f96a6a7a9cb4abb5ebad577ddc8132cae8112e146a39ebf4a8a8c8d7a1a224b33f59aa067da355a5516dec02887dbb9d45682888d8b3e27fa2625749dde148cfe8aebdf20a3b3f44e84541d48322623b31a8154f9e33325080fc6d45e369e4aa4cb8a6d8030d25b2604350ec1089ee860da41f4a014d1e513f2e5c68d13977d3cd3ea784d6254a1a1f15ce888cc075662bc45d5556f3e3494f1a76f60b5e58713dc601da25c98bc3b9f7eee913a5d66e0c57404754d53d4ffcc8867a7a9d90cd4980a84c3ac9d63a2f6a0a473ac0ff64c69c9f301ee32de0cd2e1639659a671f9515cbe75b0631198dc730768b20fe6f4abf5d7a8f4e90570567ca8b8b80c9ac2611cc0648704be7e2f37feeffb4047699e1b8a8d009f57a9f95144511bbb39fe33a04b3dd1aeebe9f130da949e56f31e81659a9734f48a68bb1825f14bcdbc2f46186ea4c51d190bd55d6a28d58b419645976bb6a1819d5561de9b1ef53dfa008b9299c65badad439513c2b94ec8f68df9331b2cf8376012b89302a54a47b61bd3ae3f0e49a6fb93b649461d4923977e7c01907d9d685f1ef0c00f564492a92a8ff7ddc8fac4a9c519a45d3d0d01d965b9d7c409e5c9a2c5c8d95b3d00ef8455301b312ed6cbd0b11f0a7bc802634c537df433042ad11c13a71f094272d9d5a0bbe8140a2ee267f3fa2b2b30ce16ad1df7e4e7a7997c0a9c9c5dd24b009183d5214870102b16634d15c5f335d5fe0b93391e16b29df8f1c5868fc9d0515ff3edb277406514bfe33dd8657307c8fdb3a9abd448379a31d2e9b5d8219430b2a0051092aa35d28ce80b7f67f10d09cf98f2d99b2eb3315a55994b73f74725180828ef57678d39aa8272f500fcf761347067815363f51b76e495d78de96bfb1a53599a91b27a902dff8c2fbc7064fb588d36869c4a2fde635a0356b398c09862c8d71f1331e2532e6d8029771a99b4e8d55445502e00021b6a231280f7bcf3ea8768a7a43ff331687c9c2b47bc72a01d5e1ec7e7fb4b93623b4fa9c06c60f5077cf7f0044b67d1e510790eb4a3fffcc924b2a64d530b12d1baf7e12f8d8280fb901c4af03dd0ec78b304731fde01190b489748a2a92b883c495a5748146ad507cfb374ae0c53dca0d9eced46f7456e9948b6ac0130d29932edae1e5b83bede2bd63362395f4e692daa05d3b0702bfc93d6bd4835785ba1b1f329a34a7a67083d78b9429a57b481d6cdf2a08b625ca51ed9fae605f22e7e18fa1bd2634043395418676b07d8e461fc5051d35aa30f1b6a4a60571f1dd63215b761b0e6c68c18652ba384d03ac3b9241e559fa16fb0b5fd2893f81044516b50f6660ecbcc59c6a644c31ff829d118d3d8da498663b2c8edb04281d829ee23be1dfa0caccfbeb2e9391ad5dfcdea0626646441cf1bb6d9ab947102c03305c9529bda78640857468000000",
  "txid": "4855debaa066e5680e3f42235832774a55c44a5cad9c7d321d3ed1edc9e2e99f",
  "hash": "715b50cc8501e788407273a8a303ec1ff259cad5e607652e325753e4082ff864",
  "size": 5085,
  "vsize": 2278,
  "version": 1,
  "locktime": 104,
  "vin": [
    {
      "txid": "cfc9d3d5311d56642f61a04988baaa8c23fa4b74a87b2690e1059be10561e242",
      "vout": 0,
      "scriptSig": {
        "asm": "",
        "hex": ""
      },
      "txinwitness": [
        "c779ff9a4e2394e171b95fa2a864fefa0e42c0fc404d07b233769f71d3d93d2ddea07b9f3f7387c4f87235cb405c05a1c26304765ee5c2f548e6e15926df4ef6f6fce0ac3d65accd38e5f0b392b328d59749a98b479bf5c1ac7b7e46d75affe921ed6aac3c681c95e37921bc64042e8eff12202afe341959bb880606f26f9835df9abca5c9acfdf04d5b10f77981597f5e310d9c7f4582e51b23fe57f6e3ee042067d3be7f0d77cc27fd7a1edfa362e6fddedb3203a39f35aa0cc044f9bf84eaaf1c0772236a71ceee7b72422f22311105517358e0e3725a759fea5e15ccb4aa9db94f734dc83743f855a2ac3a3cdd0ad0464055b0f106e5909849daf0da686d941ad4373a8e2169592a3fb52cac0d4b4fbc3df2fab418aae836cfed96235b8d5b6161c843ef2ca027a58c4442a09dacfcfaa367dbd11e51add2b75f94f7473dfc05a31c5b4a773e8ed5d73801ec46c485e91ededbdc22c4e99a42dd8772bfb3c11affdfbc55018c4dd1bdb967bba141b72f5c9d1cdb49ed6f7116f5efb003f1d9aead26f5127bcfd48e3447c932889287c9d96b6aaafb5ab8a2096ac7e47aa169be282960868be728cbe19413478e9f8f8523ce742766f4557664e8e28bfa076398bb32eaf15ea90100ada4f24fe5e4a49ac8bb46eb9feb9cf1294a3711c20e7fb94720116c00a015526fde110fb032c089b2277299b7f1ed77ae8cddac21f388816dd95eefe4a2c9b4e1f8f162405184649274a8036249503d65c5e42991992c2489fe492e91d1b1f32c4c6dd701847e323702adcea96bc159b6c7fbc56e32bfc868c4a2a0de849162d4878f306e085e3ef9b085517aea874e175c8809f080006286f3cfef632adcbdd51931b84148cd7406e4a65f1c5f341ddb618799dade08c1c7e2bba4fcfc925002b8be449f972750fb1609d30c4da3420578b01fc952439cfcf812fd6fed9b560900db15c8f046c8ee84fa4f7f106f4f2382e8af1eca7c576c1f8ad80306d249a868b74675b6f0ccf20a6a70689de905a5dc3eb220a7eaa48ec20973a9cb6ad88dc907f2b5c636f5c0ee87bc397f7f197110386186bdd57c8953016174d7e16836ee049a695910f3ac7ec025b17183e167261a228b4d4b884859faccb6432db94c540b80fa6e76ca27b9fb8576da1fd1aa95dc55125a39e0d5157accbe2e0a8d622b3efa1a3f93b03bc51cae5bce1097333c42489805aaec35a7d5e7605d64f08345708412d9736e44b9705db6f87a452a39c9c98bb2219952363eb876a313da911d895d698e2f9d9c876ea01f67bd9d59af777266a025c17b3c50f67ed92481054b7f7c71f9095e297ce87dd6c9023bcbdf9a8a5442ac227e8c26b05bd8371c825ba8ebbd096babe923ffd375a716ab20a18d5d150ba6aac1cce9e203791057a2170c08ffce9756d5e550ac408d1aa9619bc8ec1b197bf099eb38961fde935f4e67904eabe745ea18bc7f23de784ddee2f0647bd2db155d14d998d8a80aa9a1ccab463753f86f8c639e19b517bc55d72be0768597ebf732af9f2a5f61a65babddfb7627faff2f31f8e6b217754024f1e772dfd1cb85eee55ff2d1f4de668f3de7321181fedb31b65ce066c99e5cc0a5b328ed08c344521551fb42a73dd332962661fc4735af13bb7da85517f901e2f3f3097d3978a5de9c10ce334717c706707218236f220389aade86438014899da21c3a628cc43a2a076b5da287ed0d1151556aa069b88a1940a2f707e41ce463e66c665bba43418746006c7b7e2cc572495d96ef100ebf9b502ec096df416ca2bb69c5b76506b8e17c4d1c4371596a84e49bbde43647546f880c4c1e47d7bce51450f75857a422267a383250af940e5eb29b5713b18c2e72fc44561525ff8541459171facd54a89ea382efbb1749447e8c6251f45f2ce4f4989ac753e17284d5237aa8b0d8083793e111d19706be5ab11e7534bea066f9984bc23394c38310ff26afd193f6055a8a55065510452d9d885217f06b618abbb9dc37a33ce28384ba04502967f7e50ccd871e0127b2952eee59715f2aa0cdd446384135ba25ebad1ee74ad63da8372485f11273a84a5fb93acf4d002e53c794dce8933872444add7d0b4a35d0896840e7c5776d733f4ca44ec55e55514f06bf685ed503e66e73338dce71f3bbc0e40df7de9d4455ca60c061e3dd09575a7048e184f29f4350ee54c218678d1402c8b273ba69daa54c1e4087be0c338626361bade6524c79cff8a55f04fdd843123dc833bad7e8a0555894d1f7e0fc4dab1da9264ee4ae09e3e350e6519b482800d85ede6625376781b3900b31074acdd6859a7e662393f9a9ecffb0706635b21a0c45bea74dcb3acf81e0b9ae4d15734224bd350e306fe95bf18d07474363007339f9c33ffc7069b38640ea277aa36946e5655793b21697f0fef8e08669287267b84e55ed8b1562af593e2afd46bc41f5f189a1a58dc5e4b1f4be9c09b5abb4ecdab8d38d9882140d405e606545ac6646c6ddd873f930d704a3c080d0800bd92518fb07db55686d553b77e86d09d486e1ac7bf25b3024145368acbd9a07baf44f4e67e636bfb82d5ce46f272993890ddfbe0293a145b07348aaf48a6328268adacc5a36381569945942de45c50bcd4455dcc776d9654bef31c938f571ebfbc139ab1eaf558fca753e6d49dbe2fb69bc7c6ace8b72eb035afa35604350f5756ce7b4616d7d58a3f749d494cf3f96261f09b0ad9a70698a70673c98c5ae4c8652d77567169b76b11712837ffd674bb83f3c555b6d543be2e2d40057dc6ed9c7b2074e20ae61f56615178145b8f12daea62b5940bc062dc3305aba745755f7fcbd17afe5cca7e802590f13cbda7f0fa610adf79667a0c5d7216e3e82c025574f87d68f2d95053cb1d658cd5368c687df9d861c63ac15afe0f3699b1a8851feef839f1183e987ddd125e8036ea03f79a51cf46c45ced095f94346d4cbc65d597d0d96aecf5a967da364b2f1b7936ab1fe7e618784b2c40b59a14c8349a4dfebc2e3685be68a515e41d54194dd22e3eb0872be38942cd92008e2b7f97c4a4c5cbd5f8dd6844a9675fd82b8849f07d2085af0034d018c96c8cba80470e63c0de105696363f80632a2a52ec0a0aa9e1c2077436effa4197fc6d3e1478f48406d5154745ae3394f58dc50462db5297cb59c20ec448a1a17241bab0e71c7f5fc6586cfee7703325697c6aedf82269e66b512e3272e7c47baab373a1dbf2f7ba1f564a491479df22921439729574924cd11ec5642c039053fb41acf990ac19bf83727e2e6e20eff0f22323a54738b8d989dbbd1d8dee7f2f6fe0001113c41454e5a708090a1b1e1f9fe00303343595d6075a0a4babec6e9010b29383c43465b6671767e9092a0a7aeb9c3cad100000000000000000000001222304501",
        "0077a29790fe21876cae3333b0a1e438be61b9c37064897026e0b835ce1e878dcb55e4791b19f15c500acc8232dbd71c59de0aead541360dada949137a6d1b51a16f76ae8567964dc3159a897ced28f6ceef0a79e00741b4f54d35d7fcab563eff4eae8fbd56d8729a6e4efa3d57788fa9a8cdfa97c2b7e5fd74b2a574b33f76b2d41395c398d6ef1867b37d650fa91503bcf1edbb486c565e9987dd9f6429bde31fd0b63d16775e4b1aa07f9c2659bd85c5def8dfbc758454ea5b51a89615fba47ed0bcbfd6095cf58d30c75f6eb8b063e3073e430fb51bce7083c785d498a4d8131cb4de02e5f5f7acb32a1bfcc5ae2fa9900d72f683255227b12e1fbe0b8486a2fa3a7054b0d9ad23067a8f193d807a54d0213221eb43d6162056038b3a2a31924aa5f96a6a7a9cb4abb5ebad577ddc8132cae8112e146a39ebf4a8a8c8d7a1a224b33f59aa067da355a5516dec02887dbb9d45682888d8b3e27fa2625749dde148cfe8aebdf20a3b3f44e84541d48322623b31a8154f9e33325080fc6d45e369e4aa4cb8a6d8030d25b2604350ec1089ee860da41f4a014d1e513f2e5c68d13977d3cd3ea784d6254a1a1f15ce888cc075662bc45d5556f3e3494f1a76f60b5e58713dc601da25c98bc3b9f7eee913a5d66e0c57404754d53d4ffcc8867a7a9d90cd4980a84c3ac9d63a2f6a0a473ac0ff64c69c9f301ee32de0cd2e1639659a671f9515cbe75b0631198dc730768b20fe6f4abf5d7a8f4e90570567ca8b8b80c9ac2611cc0648704be7e2f37feeffb4047699e1b8a8d009f57a9f95144511bbb39fe33a04b3dd1aeebe9f130da949e56f31e81659a9734f48a68bb1825f14bcdbc2f46186ea4c51d190bd55d6a28d58b419645976bb6a1819d5561de9b1ef53dfa008b9299c65badad439513c2b94ec8f68df9331b2cf8376012b89302a54a47b61bd3ae3f0e49a6fb93b649461d4923977e7c01907d9d685f1ef0c00f564492a92a8ff7ddc8fac4a9c519a45d3d0d01d965b9d7c409e5c9a2c5c8d95b3d00ef8455301b312ed6cbd0b11f0a7bc802634c537df433042ad11c13a71f094272d9d5a0bbe8140a2ee267f3fa2b2b30ce16ad1df7e4e7a7997c0a9c9c5dd24b009183d5214870102b16634d15c5f335d5fe0b93391e16b29df8f1c5868fc9d0515ff3edb277406514bfe33dd8657307c8fdb3a9abd448379a31d2e9b5d8219430b2a0051092aa35d28ce80b7f67f10d09cf98f2d99b2eb3315a55994b73f74725180828ef57678d39aa8272f500fcf761347067815363f51b76e495d78de96bfb1a53599a91b27a902dff8c2fbc7064fb588d36869c4a2fde635a0356b398c09862c8d71f1331e2532e6d8029771a99b4e8d55445502e00021b6a231280f7bcf3ea8768a7a43ff331687c9c2b47bc72a01d5e1ec7e7fb4b93623b4fa9c06c60f5077cf7f0044b67d1e510790eb4a3fffcc924b2a64d530b12d1baf7e12f8d8280fb901c4af03dd0ec78b304731fde01190b489748a2a92b883c495a5748146ad507cfb374ae0c53dca0d9eced46f7456e9948b6ac0130d29932edae1e5b83bede2bd63362395f4e692daa05d3b0702bfc93d6bd4835785ba1b1f329a34a7a67083d78b9429a57b481d6cdf2a08b625ca51ed9fae605f22e7e18fa1bd2634043395418676b07d8e461fc5051d35aa30f1b6a4a60571f1dd63215b761b0e6c68c18652ba384d03ac3b9241e559fa16fb0b5fd2893f81044516b50f6660ecbcc59c6a644c31ff829d118d3d8da498663b2c8edb04281d829ee23be1dfa0caccfbeb2e9391ad5dfcdea0626646441cf1bb6d9ab947102c03305c9529bda786408574"
      ],
      "sequence": 4294967294
    }
  ],
  "vout": [
    {
      "value": 1.0,
      "n": 0,
      "scriptPubKey": {
        "asm": "OP_RETURN 3059c53992470c28e16831ec5a6be5d1b7164dd38e9ba058d431cf6fe97acb40 53f6cc8ce252e7428b44593a12ff877b0b0a61e09c5a4572c61093dcfdf68dc973d6ecacc272c762ab64791a32dfa75b2b2a41c0bc7a6552e630b3fcddd6ade913b68ccca212a702cb04197a52bfc73b4b4a21a0dc1a05328650d39cbdb6cd893396acec82328722eb24395a729fe71b6b6a0180fc3a2512a670f3bc9d96eda9d3764c0c62d267c20bc4d9ba927f07fb8b8ae1601cdac5f24690135c7d760d49f3566c2c42f247e22be4f99ab25f27dbabaac1403cfae5d266b0337c5d562d6993360c4c229227824b8499fad23f47bbcbcaa1205c9a85b206d0531c3d364d09b3162c6c02b207a26ba4b9daf21f679bebea81007cbaa59226f0733c1d166d2953f6cc8ce252e7428b44593a12ff877b0b0a61e09c5a4572c61093dcfdf68dc973d6ecacc272c762ab64791a32dfa75b2b2a41c0bc7a6552e630b3fcddd6ade913b68ccca212a702cb04197a52bfc73b4b4a21a0dc1a05328650d39cbdb6cd893396acec82328722eb24395a729fe71b6b6a0180fc3a2512a670f3bc9d96eda9d3764c0c62d267c20bc4d9ba927f07fb8b8ae1601cdac5f24690135c7d760d49f3566c2c42f247e22be4f99ab25f27dbabaac1403cfae5d266b0337c5d562d6993360c4c229227824b8499fad23f47bbcbcaa1205c9a85b206d0531c3d364d09b3162c6c02b207a26ba4b9daf21f679bebea81007cbaa59226f0733c1d166d2953f6cc8ce252e7428b44593a12ff877b0b0a61e09c5a4572c61093dcfdf68dc973d6ecacc272c762ab64791a32dfa75b2b2a41c0bc7a6552e630b3fcddd6ade913b68ccca212a702cb04197a52bfc73b4b4a21a0dc1a05328650d39cbdb6cd893396acec82328722eb24395a729fe71b6b6a0180fc3a2512a670f3bc9d96eda9d3764c0c62d267c20bc4d9ba927f07fb8b8ae1601cdac5f24690135c7d760d49f3566c2c42f247e22be4f99ab25f27dbabaac1403cfae5d266b0337c5d562d6993360c4c229227824b8499fad23f47bbcbcaa1205c9a85b206d0531c3d364d09b3162c6c02b207a26ba4b9daf21f679bebea81007cbaa59226f0733c1d166d2953f6cc8ce252e7428b44593a12ff877b0b0a61e09c5a4572c61093dcfdf68dc973d6ecacc272c762ab64791a32dfa75b2b2a41c0bc7a6552e630b3fcddd6ade913b68ccca212a702cb04197a52bfc73b4b4a21a0dc1a05328650d39cbdb6cd893396acec82328722eb24395a729fe71b6b6a0180fc3a2512a670f3bc9d96eda9d3764c0c62d267c20bc4d9ba927f07fb8b8ae1601cdac5f24690135c7d760d49f3566c2c42f247e22be4f99ab25f27dbabaac1403cfae5d266b0337c5d562d6993360c4c229227824b8499fad23f47bbcbcaa1205c9a85b206d0531c3d364d09b3162c6c02b207a26ba4b9daf21f679bebea81007cbaa59226f0733c1d166d2953f6cc8ce252e7428b44593a12ff877b0b0a61e09c5a4572c61093dcfdf68dc973d6ecacc272c762ab64791a32dfa75b2b2a41c0bc7a6552e630b3fcddd6ade913b68ccca212a702cb04197a52bfc73b4b4a21a0dc1a05328650d39cbdb6cd893396acec82328722eb24395a729fe71b6b6a0180fc3a2512a670f3bc9d96eda9d3764c0c62d267c20bc4d9ba927f07fb216e267c5dd00da749bc9ad9f41867bd465cbd37bb00146c15598256a83a156f",
        "hex": "6a203059c53992470c28e16831ec5a6be5d1b7164dd38e9ba058d431cf6fe97acb404db00453f6cc8ce252e7428b44593a12ff877b0b0a61e09c5a4572c61093dcfdf68dc973d6ecacc272c762ab64791a32dfa75b2b2a41c0bc7a6552e630b3fcddd6ade913b68ccca212a702cb04197a52bfc73b4b4a21a0dc1a05328650d39cbdb6cd893396acec82328722eb24395a729fe71b6b6a0180fc3a2512a670f3bc9d96eda9d3764c0c62d267c20bc4d9ba927f07fb8b8ae1601cdac5f24690135c7d760d49f3566c2c42f247e22be4f99ab25f27dbabaac1403cfae5d266b0337c5d562d6993360c4c229227824b8499fad23f47bbcbcaa1205c9a85b206d0531c3d364d09b3162c6c02b207a26ba4b9daf21f679bebea81007cbaa59226f0733c1d166d2953f6cc8ce252e7428b44593a12ff877b0b0a61e09c5a4572c61093dcfdf68dc973d6ecacc272c762ab64791a32dfa75b2b2a41c0bc7a6552e630b3fcddd6ade913b68ccca212a702cb04197a52bfc73b4b4a21a0dc1a05328650d39cbdb6cd893396acec82328722eb24395a729fe71b6b6a0180fc3a2512a670f3bc9d96eda9d3764c0c62d267c20bc4d9ba927f07fb8b8ae1601cdac5f24690135c7d760d49f3566c2c42f247e22be4f99ab25f27dbabaac1403cfae5d266b0337c5d562d6993360c4c229227824b8499fad23f47bbcbcaa1205c9a85b206d0531c3d364d09b3162c6c02b207a26ba4b9daf21f679bebea81007cbaa59226f0733c1d166d2953f6cc8ce252e7428b44593a12ff877b0b0a61e09c5a4572c61093dcfdf68dc973d6ecacc272c762ab64791a32dfa75b2b2a41c0bc7a6552e630b3fcddd6ade913b68ccca212a702cb04197a52bfc73b4b4a21a0dc1a05328650d39cbdb6cd893396acec82328722eb24395a729fe71b6b6a0180fc3a2512a670f3bc9d96eda9d3764c0c62d267c20bc4d9ba927f07fb8b8ae1601cdac5f24690135c7d760d49f3566c2c42f247e22be4f99ab25f27dbabaac1403cfae5d266b0337c5d562d6993360c4c229227824b8499fad23f47bbcbcaa1205c9a85b206d0531c3d364d09b3162c6c02b207a26ba4b9daf21f679bebea81007cbaa59226f0733c1d166d2953f6cc8ce252e7428b44593a12ff877b0b0a61e09c5a4572c61093dcfdf68dc973d6ecacc272c762ab64791a32dfa75b2b2a41c0bc7a6552e630b3fcddd6ade913b68ccca212a702cb04197a52bfc73b4b4a21a0dc1a05328650d39cbdb6cd893396acec82328722eb24395a729fe71b6b6a0180fc3a2512a670f3bc9d96eda9d3764c0c62d267c20bc4d9ba927f07fb8b8ae1601cdac5f24690135c7d760d49f3566c2c42f247e22be4f99ab25f27dbabaac1403cfae5d266b0337c5d562d6993360c4c229227824b8499fad23f47bbcbcaa1205c9a85b206d0531c3d364d09b3162c6c02b207a26ba4b9daf21f679bebea81007cbaa59226f0733c1d166d2953f6cc8ce252e7428b44593a12ff877b0b0a61e09c5a4572c61093dcfdf68dc973d6ecacc272c762ab64791a32dfa75b2b2a41c0bc7a6552e630b3fcddd6ade913b68ccca212a702cb04197a52bfc73b4b4a21a0dc1a05328650d39cbdb6cd893396acec82328722eb24395a729fe71b6b6a0180fc3a2512a670f3bc9d96eda9d3764c0c62d267c20bc4d9ba927f07fb216e267c5dd00da749bc9ad9f41867bd465cbd37bb00146c15598256a83a156f",
        "type": "nulldata"
      }
    },
    {
      "value": 499993.8986,
      "n": 1,
      "scriptPubKey": {
        "asm": "1 1e11c4c3249b9a4979de78ac694beb7a79e302267b03d7751f3b270d61bebde7",
        "hex": "51201e11c4c3249b9a4979de78ac694beb7a79e302267b03d7751f3b270d61bebde7",
        "reqSigs": 1,
        "type": "witness_v1_scripthash",
        "addresses": [
          "3QJmnh"
        ]
      }
    }
  ],
  "blockhash": "32a2d379a33ec88ae1cb3a8a1a44f2d12b76aebf574ecf7ac16b289397ed6cd9",
  "confirmations": 1,
  "time": 1764176557,
  "blocktime": 1764176557
}