{
  "hex": "01000000000101bfd120bc05fc8d3b00f136146cd1865678f732acc606263b421e96b8625fc4a60000000000feffffff0200e1f50500000000fdd5046a200245f339c6fe6561dfa50669ce053e6e08c692a6d45afd118ea4b203836abb034db004d3bb1a39074efebc3777f6ff51108bfeeffe0975ebe78cef77fb156d6624b0b2f39b3a19276ede9c1757d6df7130abdecfde2955cbc7accf57db354d4604909293fb5a79470ebefc7737b6bf1150cbbeafbe4935aba7ccaf37bb552d2664f0f2b3db7a59672e9edc5717969f3170eb9e8f9e69158b87ec8f179b750d0644d0d2533b9ab987ce7e3cb7f7767fd1900b7e6f7e89f56b670c6ff77b95ede6a43032731bba99a7ee5e1c97d7565ff1b02b5e4f5ea9d54b472c4fd75bb5cdc6841012137bdaf9c78e3e7cf7b7363f91d04b3e2f3ec9b52b274c2fb73bd5ada6e47072335bfad9e7ae1e5cd797161fb1f06b1e0f1ee9950b076c0f971bf58d86c45052d3bb1a39074efebc3777f6ff51108bfeeffe0975ebe78cef77fb156d6624b0b2f39b3a19276ede9c1757d6df7130abdecfde2955cbc7accf57db354d4604909293fb5a79470ebefc7737b6bf1150cbbeafbe4935aba7ccaf37bb552d2664f0f2b3db7a59672e9edc5717969f3170eb9e8f9e69158b87ec8f179b750d0644d0d2533b9ab987ce7e3cb7f7767fd1900b7e6f7e89f56b670c6ff77b95ede6a43032731bba99a7ee5e1c97d7565ff1b02b5e4f5ea9d54b472c4fd75bb5cdc6841012137bdaf9c78e3e7cf7b7363f91d04b3e2f3ec9b52b274c2fb73bd5ada6e47072335bfad9e7ae1e5cd797161fb1f06b1e0f1ee9950b076c0f971bf58d86c45052d3bb1a39074efebc3777f6ff51108bfeeffe0975ebe78cef77fb156d6624b0b2f39b3a19276ede9c1757d6df7130abdecfde2955cbc7accf57db354d4604909293fb5a79470ebefc7737b6bf1150cbbeafbe4935aba7ccaf37bb552d2664f0f2b3db7a59672e9edc5717969f3170eb9e8f9e69158b87ec8f179b750d0644d0d2533b9ab987ce7e3cb7f7767fd1900b7e6f7e89f56b670c6ff77b95ede6a43032731bba99a7ee5e1c97d7565ff1b02b5e4f5ea9d54b472c4fd75bb5cdc6841012137bdaf9c78e3e7cf7b7363f91d04b3e2f3ec9b52b274c2fb73bd5ada6e47072335bfad9e7ae1e5cd797161fb1f06b1e0f1ee9950b076c0f971bf58d86c45052d3bb1a39074efebc3777f6ff51108bfeeffe0975ebe78cef77fb156d6624b0b2f39b3a19276ede9c1757d6df7130abdecfde2955cbc7accf57db354d4604909293fb5a79470ebefc7737b6bf1150cbbeafbe4935aba7ccaf37bb552d2664f0f2b3db7a59672e9edc5717969f3170eb9e8f9e69158b87ec8f179b750d0644d0d2533b9ab987ce7e3cb7f7767fd1900b7e6f7e89f56b670c6ff77b95ede6a43032731bba99a7ee5e1c97d7565ff1b02b5e4f5ea9d54b472c4fd75bb5cdc6841012137bdaf9c78e3e7cf7b7363f91d04b3e2f3ec9b52b274c2fb73bd5ada6e47072335bfad9e7ae1e5cd797161fb1f06b1e0f1ee9950b076c0f971bf58d86c45052d3bb1a39074efebc3777f6ff51108bfeeffe0975ebe78cef77fb156d6624b0b2f39b3a19276ede9c1757d6df7130abdecfde2955cbc7accf57db354d4604909293fb5a79470ebefc7737b6bf1150cbbeafbe4935aba7ccaf37bb552d2664f0f2b3db7a59672e9edc5717969f3170eb9e8f9e69158b87ec8f179b750d0644d0d2533b9ab987ce7e3cb7f7767fd1900b7eeac178a68839f09b0f4b45e415d658d9e10881cb79e3add2191e5cfa4330afbc80cbbf57792d00002251204152722012cfded95d2a3f3ab23f24d65189ee178409193f8a7903898d27570d02fd7509bf23ec867c75d96ca827e8539282af2b8a72408dae410cf6929297a1b464fe5aedc9f3e70b6a6b65341533a43877342f415d86487e1f6222a5a6fce8e396535be76c739e042b8f14c779fcb833f64bfabe04da2bc06124cfbc2698971d5a618263023abc71879609a1c61c2dd3835a2f73d2f7ddba28beffa5654865e98974810a03b8f0dfe476a80d1b6753d01e3056461bd979063101c42544d01ab2f451b18e06c57b22c7ae4d82f79a96733397dea1c71806f8f4f9ca0781934977d5d723f811ec9df34f0dba92f9808169276f69cb91764406c963dc638d9763d8d4b9b4fdecb54fffcecf33246edad2111854932c94265f62599f7a2be0a39316e5758c2ace3af5a69d4606c570e61c309f98182367d1b9f32c50998bcb48b03618cf4c9cc20bb96498a05f40a9e9a242d71aaf84d434ddd7b3fefdf237ae54513661a2d83064e7da820b640dcbaf1c58a7191bf8365183cdaa86bc017bafead3cb8b634752918bf5328517a40812dc031f9017ebfc100b9e987eb23c9c52eaf5d2f19945bb3c4f48d7d40ca41fc7830e5ae547ff98ae63ca148e320f9d387d504b4045ff8a90c10b6a9b3e515bcd6ee7cd20dfe68bfeda0532ec662d717b9f6d0df59f41e5cfe1651324659cf3d4e0cb62303bedaf41711d3ea6ad1d4510d2b71aa6796ade3f2d1b76dd418926f95b5ed079e921385e61de5da067e9e24ca46674ebc266161b7bcd60b36dba00ad36385b1d0ff45d094e62024acf960bbd05d66fccddeabc1c030abfaf60ec84eade11cf99a9e8a184869835bd8a002fbaa249f612a9ac888a9b4084cd192f6e23814d8b44b76a108c70de8a61f663e917f70614e3b0d451b22f401ecc550f37cf87d04fc760817fb924826fad34321fdd00960aa994ea820cba20bfda066d5b55a086e828d5b4d4390b2b5920b8a346d79b0e4b76dc5f15bff834543fbbff0b80e9bc41c321d3ff7baade11c56a4ab5d169ac8aabd64a4e08c2aabdbfe0bccb5a323530a27857c7289b47ac25e7f6ccf849473e4d52a0074b8683311c9e0db11eae2b9a5d5fcc92d89f13c409517491211400cde61c5a74d3a0dedd66d16249c49ca5c2486bafc09e554670458183f85803d1b80db63e65821ac3b27cbde3f9a767c0613566b1c4fbf36ec2cbe30be8e369c3ebe5ab94209149fc8b4be79d69963c19a292103df20cd40bd699c6c6dc9eb671a8ca3aa87ac5f1c05ab45ca87cf778d8eeeb5f2a05fad4f666927fbf5a86b63ee10aed661835822248219ce0bda955151b2b6e527de4e48770b289e534d61197cafee3e46b9f3ec865b1a67f598629d7815890198a763e59367bb909750a0b714eaeaac37ad2c9cf179263572c467c3f6a02ff0d9571a405e68fd0330d4dc4906e145ce6316e70e1f164c67e6b68d4550d905d1f84c41196ee981f6af94108dbeb6aaa717aeab391677afa0013aa6a3449130a0c95c7cae02f167017b0077aae63699a6f051aec6118eabd06016327b8186159e69b075ddf18154700519eeb49059b03acda357040b138c7f2915856a9065d4a095abcad0911cd4d6cb8f8e8ef52ffb8448ca75a4c0bfc3b1d11e42fa2b823f1e1ac05eb870d9a0c60dbd1dd6f7b1d06b25c8ed902c50b7a3588ebf5811c0c86eaf7ac38704617497a1d7756f9d2fc20f25b9c2cc65dd343a2e465c2754ebd72626bbd50c65284a0d19c8b75b207c6c12eaa7d57b4b2ede642bbca5f5ae6479647c6068317304768b54e8d62756f338a17e34e7d5ab1ab4855f34b661546dfe1c2c19b17273988d8dd2b286716a29ee8a387ddbbb477779464a29336af21219f998ada41c79f8bc4e3e431eb4721184739cfbc9b9ecbf3cb09717b83beaca3794861faac9713e08669eb1d0d0280635d28a3c4953a573c395e88f7f138d498aac91a89c500f6f932179a07d2d27a67937cb36cf3b2fb328f0c8fa54eb72b8881495e3e57608662c9533d7c65cf29689fb71ddd4624b2d53cab7f5ff142cab1b2e40a8452ff73fa5ba028d9f3a584ef176f383b7c14b44ca922cf62a4691a3f47722577d5da78d46fcd18e89bf4a80682609ce120254db25855886e6740b434f75e7942ac2c34e466e0a6292bc48ce3b6235e3d2de58ac0aa30d412e6cf5125aff88160b3d998390f9b623624476181d15fd52f16dde1dbdf02b7da72da52af53594acd7861c6b6de57695c0632cb31bf684149cccb412f32ce493303c6cf19d571527418db414b13050f418b4bb30ec4da6b916719919bd586095a4def004f6d7c12421d2f3d1bb88c096ce19b8cf6cba47b6617683b34276718a1a3616eb1ce7df9277599563efc3d42b4a4280626c691b4a6de36f262dde2c92090963f962709563f44fe8d71d8e67aa400bf93e03e8a85dcbec28e5542397f2bcee51723afe36f87d7475a2229b11e5e4533b2231902fcb00e50c8096258980fdfaa45e754ef5d67b607b6a1b5633b7edf7bf05b3b07448da75330c09040b6af0e52f94c3d1d696423bbc2e05429d8e397b81c937490d22b0917e1793e7f78a25459239b2e13e02019511ebf86fdd7e5c9857faaa92779394de5eeff5c3bac74f565618215222f20c3acff332d7ef3abb8d0d56692527d95c4f91cb6e64b9b46340959e1205e48005824f7d02849888a316657012579a158f37851103667f6f41d8072458fd7088f305a9836dc2ff179581bddcd2c67851b05eb144bf05794a93692a440ffd06446e9878d37b6fe1289301a37e4e92ac63a64a4e1f11ddf6b949c1bc63b50a8edf68f17c490c354cdce9e4ed661c42c2298e86e6bfde0a1e3a14ce8945021eb0a82740c3b28fe5845164a230b4147fb9fd066b1e1561ba7c35a4a17f77e9b4ccd36a381b4ebac67b8e5f0f557f0f99467ce62b9c7fe08dc587bdc8b4fc5ed2bccae3f192148e6ceaf8a900f3a4899028e37ee34ed5b66f4454d3175f305d8cb7d066e89925e35c22bdfcf3aaa6d7ff88cf4c79e5e0b88f74bbc2a76c7c74df70c14bb0ba0cb419a24b126dba62ab6638b769e5cb40c2d3659916b36a3c769b3e55eacfa6f375063a4dd54edad33d91763778983440628eeeaf7a177c28ffc49601dff60107eddd3808a14d777b74fac357ba6683d5ddbb669ccbbb7a0e52601ac0364ec140b2653217fe072b532a1cd14eb89f93f6ba2aafe08efd7507a1db457ac1bb4bd5ec0f425447b082de660de9239b3f50d9998758b282507b8fdbc555dc4420f95b1202887de849e986191edf87b53bc164e30e139f0443b2717a2676c5342fc3fe60dd1d40c4e98b302b604093132343b3c3e5a717679838d90a4a6afe8fb0935424a555e6b6d7086cbd913293f414448494f5e70797e9eb8c1c9eaf70006447e8691989cb1dded000000000000000000000000000000000000001420323d01fd21050004d2423863104785b7b6c87d2179496853433d05b41db2e5317bbcaf333b84560d68448796391a71867eed4a30917c3a2eb4f263cba9bb87aac58911e8d238d66264c979c8f816d95733b883c4343b2d7d5ca4d8bb480d65f7e1885fa50e42118886aeb8e8c74680f46b330777cc9ae696bef79d74dc278db8e0e1499339988c7040c34145f86b2407b6321d88ef76eb8e90de565166606da37e4e30d01b90e8eaa9370cf213ac1d6689e5c268c56d648c667241a1609473b1330df3206c9e0da57a9d61344bf49cb407af37467a79fcf8994bb74f79bb75cd9064ceae8b31bf334d5e78d9526798b703bb4eabf76a8db54c3c6f893208e71fcdbbfeb0e48f55ceb71d38859971e33ee2013414626270bcc5a148a6055085d3d760a7e621c8e61f7f8226f8d2e8b77286317e2dfb55bb1d62450f6c32880147ab7cc5a1dc6ce34aa401c101f62e970073ef15bb59e1db65f9507d2e4b2a2c47fb70de4bf92fdfe2b2d3ab7e682ef47e5537c1d94d20ab0f55ba9589d50d1a42dd16b08a7285f17911d8fa61e32f6282432981cf154c1048182d21bf2b5fd66b1d2a6982cb9df0d38581988104a9d399fe6eb50e04207d8e39da0188bfcf340da472c332854d85bce3b4c6feaf2e773105b3c4d7a1e50d61ceaa6f3ec31a310c5f02201fc58dfdf5cdb8c649317619fc7b86702a02c36b8f3154aa1b8ebd233e0060ed49c0e2d81b95a722e87ac7c23fe002469a318808fae10f11b1beb7e7eb0f23c9617a64758e82297cba17b96da4387072038f89698a31eab7d14621800386503046a6626d706252a61989eef5ce99eb99670da62f244696f9d41fb9f5f4b30ae1e1d8ebe45ab01285b41c81006c6dc96729c37a027caad8cfed2add53c043b59d036a397698743155f8941fad0e8c9cdb555c2a12c55b008fc03acb514febd80156f35c1aa500bb1dc86fd9f2f448b790cd7ca9f558aa4fe5e66f1b026f8c702840c008c2bd5d7414e3c0edb2f25564dda459abc9c256d00790da6c58ee321de66490a59cbab723cfaa2d9707c1fb430d1d5509415c92d446cd72b40bf47894ff2b197376f39a5b236da95d74b5e60a7fb5cde2b4b80982021a69787dbc4fc5bd3b5119adfc673fe61228c4828a6261d65ad25b015f046872e5f03472c5d2b0624e359ba5e8baad248669795d44993aa5e15a874b95f980a8b89fe8b99d7ee36dc0e0ad3589a809607d12cdc5462433958b998dce9790dc2d6cb8a9e91f40b8d6e2275c3ab98cb260a11d325296224b94f74985799073b1a096ad2047bf182cc7a1e0e84c089c85a8b1ebffc9ac4cecb4444418f0ab86db0878bdac533022f2b5908ca3ce485904323ec82ed058c38bf49937c0f390c4aadd4c1a728908027796a7c033aac175e32a859f4f5691fcfa9679b4fb05f6c697d289e0b3f788e56df3d4a9a7ffdaff05eea8b9aed8857414cca90cebf00ab38749cdae24ee9c0d36e42db6b00ae9adc91a9819e69f5d3db9183384fe57c5739d56d44a827b4a23cd0d4375d157ee097ecb63b8aae9a931be5f1a9cf521e122713d7716b40fe4d11aa3f61974652a916bdb350088315af8f99c4dc6bfa9faba616ee596757a1f706ddc63d54ecbceded0c8aad8199bf9ce083e4cfb292573396ff70f12981a8436a8fdedf827ae9c8856b7eda4464e924383839a3b3f9d16c96ee22c3adcac21559c9387fe2382bff6120ef0121b4864bf862177abab57224dfe53496f7417dadcea59659b90b39b6e3ad66227f2e31439bcf92fe2532d82c5e2513d9faf0e07443d022e25bcd25f7fda21ee918c0c10ca1e8810c73e9d34f5afaf0d244aa370971cccde194c736c000000",
  "txid": "43c38bb61a57b549c3c195484b7a1d6c879fcf9ffc8fcbf3205c09b6870b47a4",
  "hash": "296ce8a08f12fbdbd85f4755a71969a2a696c18d883038345e1f9f2c19099be5",
  "size": 5085,
  "vsize": 2278,
  "version": 1,
  "locktime": 108,
  "vin": [
    {
      "txid": "a6c45f62b8961e423b2606c6ac32f7785686d16c1436f1003b8dfc05bc20d1bf",
      "vout": 0,
      "scriptSig": {
        "asm": "",
        "hex": ""
      },
      "txinwitness": [
        "bf23ec867c75d96ca827e8539282af2b8a72408dae410cf6929297a1b464fe5aedc9f3e70b6a6b65341533a43877342f415d86487e1f6222a5a6fce8e396535be76c739e042b8f14c779fcb833f64bfabe04da2bc06124cfbc2698971d5a618263023abc71879609a1c61c2dd3835a2f73d2f7ddba28beffa5654865e98974810a03b8f0dfe476a80d1b6753d01e3056461bd979063101c42544d01ab2f451b18e06c57b22c7ae4d82f79a96733397dea1c71806f8f4f9ca0781934977d5d723f811ec9df34f0dba92f9808169276f69cb91764406c963dc638d9763d8d4b9b4fdecb54fffcecf33246edad2111854932c94265f62599f7a2be0a39316e5758c2ace3af5a69d4606c570e61c309f98182367d1b9f32c50998bcb48b03618cf4c9cc20bb96498a05f40a9e9a242d71aaf84d434ddd7b3fefdf237ae54513661a2d83064e7da820b640dcbaf1c58a7191bf8365183cdaa86bc017bafead3cb8b634752918bf5328517a40812dc031f9017ebfc100b9e987eb23c9c52eaf5d2f19945bb3c4f48d7d40ca41fc7830e5ae547ff98ae63ca148e320f9d387d504b4045ff8a90c10b6a9b3e515bcd6ee7cd20dfe68bfeda0532ec662d717b9f6d0df59f41e5cfe1651324659cf3d4e0cb62303bedaf41711d3ea6ad1d4510d2b71aa6796ade3f2d1b76dd418926f95b5ed079e921385e61de5da067e9e24ca46674ebc266161b7bcd60b36dba00ad36385b1d0ff45d094e62024acf960bbd05d66fccddeabc1c030abfaf60ec84eade11cf99a9e8a184869835bd8a002fbaa249f612a9ac888a9b4084cd192f6e23814d8b44b76a108c70de8a61f663e917f70614e3b0d451b22f401ecc550f37cf87d04fc760817fb924826fad34321fdd00960aa994ea820cba20bfda066d5b55a086e828d5b4d4390b2b5920b8a346d79b0e4b76dc5f15bff834543fbbff0b80e9bc41c321d3ff7baade11c56a4ab5d169ac8aabd64a4e08c2aabdbfe0bccb5a323530a27857c7289b47ac25e7f6ccf849473e4d52a0074b8683311c9e0db11eae2b9a5d5fcc92d89f13c409517491211400cde61c5a74d3a0dedd66d16249c49ca5c2486bafc09e554670458183f85803d1b80db63e65821ac3b27cbde3f9a767c0613566b1c4fbf36ec2cbe30be8e369c3ebe5ab94209149fc8b4be79d69963c19a292103df20cd40bd699c6c6dc9eb671a8ca3aa87ac5f1c05ab45ca87cf778d8eeeb5f2a05fad4f666927fbf5a86b63ee10aed661835822248219ce0bda955151b2b6e527de4e48770b289e534d61197cafee3e46b9f3ec865b1a67f598629d7815890198a763e59367bb909750a0b714eaeaac37ad2c9cf179263572c467c3f6a02ff0d9571a405e68fd0330d4dc4906e145ce6316e70e1f164c67e6b68d4550d905d1f84c41196ee981f6af94108dbeb6aaa717aeab391677afa0013aa6a3449130a0c95c7cae02f167017b0077aae63699a6f051aec6118eabd06016327b8186159e69b075ddf18154700519eeb49059b03acda357040b138c7f2915856a9065d4a095abcad0911cd4d6cb8f8e8ef52ffb8448ca75a4c0bfc3b1d11e42fa2b823f1e1ac05eb870d9a0c60dbd1dd6f7b1d06b25c8ed902c50b7a3588ebf5811c0c86eaf7ac38704617497a1d7756f9d2fc20f25b9c2cc65dd343a2e465c2754ebd72626bbd50c65284a0d19c8b75b207c6c12eaa7d57b4b2ede642bbca5f5ae6479647c6068317304768b54e8d62756f338a17e34e7d5ab1ab4855f34b661546dfe1c2c19b17273988d8dd2b286716a29ee8a387ddbbb477779464a29336af21219f998ada41c79f8bc4e3e431eb4721184739cfbc9b9ecbf3cb09717b83beaca3794861faac9713e08669eb1d0d0280635d28a3c4953a573c395e88f7f138d498aac91a89c500f6f932179a07d2d27a67937cb36cf3b2fb328f0c8fa54eb72b8881495e3e57608662c9533d7c65cf29689fb71ddd4624b2d53cab7f5ff142cab1b2e40a8452ff73fa5ba028d9f3a584ef176f383b7c14b44ca922cf62a4691a3f47722577d5da78d46fcd18e89bf4a80682609ce120254db25855886e6740b434f75e7942ac2c34e466e0a6292bc48ce3b6235e3d2de58ac0aa30d412e6cf5125aff88160b3d998390f9b623624476181d15fd52f16dde1dbdf02b7da72da52af53594acd7861c6b6de57695c0632cb31bf684149cccb412f32ce493303c6cf19d571527418db414b13050f418b4bb30ec4da6b916719919bd586095a4def004f6d7c12421d2f3d1bb88c096ce19b8cf6cba47b6617683b34276718a1a3616eb1ce7df9277599563efc3d42b4a4280626c691b4a6de36f262dde2c92090963f962709563f44fe8d71d8e67aa400bf93e03e8a85dcbec28e5542397f2bcee51723afe36f87d7475a2229b11e5e4533b2231902fcb00e50c8096258980fdfaa45e754ef5d67b607b6a1b5633b7edf7bf05b3b07448da75330c09040b6af0e52f94c3d1d696423bbc2e05429d8e397b81c937490d22b0917e1793e7f78a25459239b2e13e02019511ebf86fdd7e5c9857faaa92779394de5eeff5c3bac74f565618215222f20c3acff332d7ef3abb8d0d56692527d95c4f91cb6e64b9b46340959e1205e48005824f7d02849888a316657012579a158f37851103667f6f41d8072458fd7088f305a9836dc2ff179581bddcd2c67851b05eb144bf05794a93692a440ffd06446e9878d37b6fe1289301a37e4e92ac63a64a4e1f11ddf6b949c1bc63b50a8edf68f17c490c354cdce9e4ed661c42c2298e86e6bfde0a1e3a14ce8945021eb0a82740c3b28fe5845164a230b4147fb9fd066b1e1561ba7c35a4a17f77e9b4ccd36a381b4ebac67b8e5f0f557f0f99467ce62b9c7fe08dc587bdc8b4fc5ed2bccae3f192148e6ceaf8a900f3a4899028e37ee34ed5b66f4454d3175f305d8cb7d066e89925e35c22bdfcf3aaa6d7ff88cf4c79e5e0b88f74bbc2a76c7c74df70c14bb0ba0cb419a24b126dba62ab6638b769e5cb40c2d3659916b36a3c769b3e55eacfa6f375063a4dd54edad33d91763778983440628eeeaf7a177c28ffc49601dff60107eddd3808a14d777b74fac357ba6683d5ddbb669ccbbb7a0e52601ac0364ec140b2653217fe072b532a1cd14eb89f93f6ba2aafe08efd7507a1db457ac1bb4bd5ec0f425447b082de660de9239b3f50d9998758b282507b8fdbc555dc4420f95b1202887de849e986191edf87b53bc164e30e139f0443b2717a2676c5342fc3fe60dd1d40c4e98b302b604093132343b3c3e5a717679838d90a4a6afe8fb0935424a555e6b6d7086cbd913293f414448494f5e70797e9eb8c1c9eaf70006447e8691989cb1dded000000000000000000000000000000000000001420323d01",
        "0004d2423863104785b7b6c87d2179496853433d05b41db2e5317bbcaf333b84560d68448796391a71867eed4a30917c3a2eb4f263cba9bb87aac58911e8d238d66264c979c8f816d95733b883c4343b2d7d5ca4d8bb480d65f7e1885fa50e42118886aeb8e8c74680f46b330777cc9ae696bef79d74dc278db8e0e1499339988c7040c34145f86b2407b6321d88ef76eb8e90de565166606da37e4e30d01b90e8eaa9370cf213ac1d6689e5c268c56d648c667241a1609473b1330df3206c9e0da57a9d61344bf49cb407af37467a79fcf8994bb74f79bb75cd9064ceae8b31bf334d5e78d9526798b703bb4eabf76a8db54c3c6f893208e71fcdbbfeb0e48f55ceb71d38859971e33ee2013414626270bcc5a148a6055085d3d760a7e621c8e61f7f8226f8d2e8b77286317e2dfb55bb1d62450f6c32880147ab7cc5a1dc6ce34aa401c101f62e970073ef15bb59e1db65f9507d2e4b2a2c47fb70de4bf92fdfe2b2d3ab7e682ef47e5537c1d94d20ab0f55ba9589d50d1a42dd16b08a7285f17911d8fa61e32f6282432981cf154c1048182d21bf2b5fd66b1d2a6982cb9df0d38581988104a9d399fe6eb50e04207d8e39da0188bfcf340da472c332854d85bce3b4c6feaf2e773105b3c4d7a1e50d61ceaa6f3ec31a310c5f02201fc58dfdf5cdb8c649317619fc7b86702a02c36b8f3154aa1b8ebd233e0060ed49c0e2d81b95a722e87ac7c23fe002469a318808fae10f11b1beb7e7eb0f23c9617a64758e82297cba17b96da4387072038f89698a31eab7d14621800386503046a6626d706252a61989eef5ce99eb99670da62f244696f9d41fb9f5f4b30ae1e1d8ebe45ab01285b41c81006c6dc96729c37a027caad8cfed2add53c043b59d036a397698743155f8941fad0e8c9cdb555c2a12c55b008fc03acb514febd80156f35c1aa500bb1dc86fd9f2f448b790cd7ca9f558aa4fe5e66f1b026f8c702840c008c2bd5d7414e3c0edb2f25564dda459abc9c256d00790da6c58ee321de66490a59cbab723cfaa2d9707c1fb430d1d5509415c92d446cd72b40bf47894ff2b197376f39a5b236da95d74b5e60a7fb5cde2b4b80982021a69787dbc4fc5bd3b5119adfc673fe61228c4828a6261d65ad25b015f046872e5f03472c5d2b0624e359ba5e8baad248669795d44993aa5e15a874b95f980a8b89fe8b99d7ee36dc0e0ad3589a809607d12cdc5462433958b998dce9790dc2d6cb8a9e91f40b8d6e2275c3ab98cb260a11d325296224b94f74985799073b1a096ad2047bf182cc7a1e0e84c089c85a8b1ebffc9ac4cecb4444418f0ab86db0878bdac533022f2b5908ca3ce485904323ec82ed058c38bf49937c0f390c4aadd4c1a728908027796a7c033aac175e32a859f4f5691fcfa9679b4fb05f6c697d289e0b3f788e56df3d4a9a7ffdaff05eea8b9aed8857414cca90cebf00ab38749cdae24ee9c0d36e42db6b00ae9adc91a9819e69f5d3db9183384fe57c5739d56d44a827b4a23cd0d4375d157ee097ecb63b8aae9a931be5f1a9cf521e122713d7716b40fe4d11aa3f61974652a916bdb350088315af8f99c4dc6bfa9faba616ee596757a1f706ddc63d54ecbceded0c8aad8199bf9ce083e4cfb292573396ff70f12981a8436a8fdedf827ae9c8856b7eda4464e924383839a3b3f9d16c96ee22c3adcac21559c9387fe2382bff6120ef0121b4864bf862177abab57224dfe53496f7417dadcea59659b90b39b6e3ad66227f2e31439bcf92fe2532d82c5e2513d9faf0e07443d022e25bcd25f7fda21ee918c0c10ca1e8810c73e9d34f5afaf0d244aa370971cccde194c73"
      ],
      "sequence": 4294967294
    }
  ],
  "vout": [
    {
      "value": 1.0,
      "n": 0,
      "scriptPubKey": {
        "asm": "OP_RETURN 0245f339c6fe6561dfa50669ce053e6e08c692a6d45afd118ea4b203836abb03 d3bb1a39074efebc3777f6ff51108bfeeffe0975ebe78cef77fb156d6624b0b2f39b3a19276ede9c1757d6df7130abdecfde2955cbc7accf57db354d4604909293fb5a79470ebefc7737b6bf1150cbbeafbe4935aba7ccaf37bb552d2664f0f2b3db7a59672e9edc5717969f3170eb9e8f9e69158b87ec8f179b750d0644d0d2533b9ab987ce7e3cb7f7767fd1900b7e6f7e89f56b670c6ff77b95ede6a43032731bba99a7ee5e1c97d7565ff1b02b5e4f5ea9d54b472c4fd75bb5cdc6841012137bdaf9c78e3e7cf7b7363f91d04b3e2f3ec9b52b274c2fb73bd5ada6e47072335bfad9e7ae1e5cd797161fb1f06b1e0f1ee9950b076c0f971bf58d86c45052d3bb1a39074efebc3777f6ff51108bfeeffe0975ebe78cef77fb156d6624b0b2f39b3a19276ede9c1757d6df7130abdecfde2955cbc7accf57db354d4604909293fb5a79470ebefc7737b6bf1150cbbeafbe4935aba7ccaf37bb552d2664f0f2b3db7a59672e9edc5717969f3170eb9e8f9e69158b87ec8f179b750d0644d0d2533b9ab987ce7e3cb7f7767fd1900b7e6f7e89f56b670c6ff77b95ede6a43032731bba99a7ee5e1c97d7565ff1b02b5e4f5ea9d54b472c4fd75bb5cdc6841012137bdaf9c78e3e7cf7b7363f91d04b3e2f3ec9b52b274c2fb73bd5ada6e47072335bfad9e7ae1e5cd797161fb1f06b1e0f1ee9950b076c0f971bf58d86c45052d3bb1a39074efebc3777f6ff51108bfeeffe0975ebe78cef77fb156d6624b0b2f39b3a19276ede9c1757d6df7130abdecfde2955cbc7accf57db354d4604909293fb5a79470ebefc7737b6bf1150cbbeafbe4935aba7ccaf37bb552d2664f0f2b3db7a59672e9edc5717969f3170eb9e8f9e69158b87ec8f179b750d0644d0d2533b9ab987ce7e3cb7f7767fd1900b7e6f7e89f56b670c6ff77b95ede6a43032731bba99a7ee5e1c97d7565ff1b02b5e4f5ea9d54b472c4fd75bb5cdc6841012137bdaf9c78e3e7cf7b7363f91d04b3e2f3ec9b52b274c2fb73bd5ada6e47072335bfad9e7ae1e5cd797161fb1f06b1e0f1ee9950b076c0f971bf58d86c45052d3bb1a39074efebc3777f6ff51108bfeeffe0975ebe78cef77fb156d6624b0b2f39b3a19276ede9c1757d6df7130abdecfde2955cbc7accf57db354d4604909293fb5a79470ebefc7737b6bf1150cbbeafbe4935aba7ccaf37bb552d2664f0f2b3db7a59672e9edc5717969f3170eb9e8f9e69158b87ec8f179b750d0644d0d2533b9ab987ce7e3cb7f7767fd1900b7e6f7e89f56b670c6ff77b95ede6a43032731bba99a7ee5e1c97d7565ff1b02b5e4f5ea9d54b472c4fd75bb5cdc6841012137bdaf9c78e3e7cf7b7363f91d04b3e2f3ec9b52b274c2fb73bd5ada6e47072335bfad9e7ae1e5cd797161fb1f06b1e0f1ee9950b076c0f971bf58d86c45052d3bb1a39074efebc3777f6ff51108bfeeffe0975ebe78cef77fb156d6624b0b2f39b3a19276ede9c1757d6df7130abdecfde2955cbc7accf57db354d4604909293fb5a79470ebefc7737b6bf1150cbbeafbe4935aba7ccaf37bb552d2664f0f2b3db7a59672e9edc5717969f3170eb9e8f9e69158b87ec8f179b750d0644d0d2533b9ab987ce7e3cb7f7767fd1900b7eeac178a68839f09b0f4b45e415d658d9e10881cb79e3add2191e5cfa4330afbc",
        "hex": "6a200245f339c6fe6561dfa50669ce053e6e08c692a6d45afd118ea4b203836abb034db004d3bb1a39074efebc3777f6ff51108bfeeffe0975ebe78cef77fb156d6624b0b2f39b3a19276ede9c1757d6df7130abdecfde2955cbc7accf57db354d4604909293fb5a79470ebefc7737b6bf1150cbbeafbe4935aba7ccaf37bb552d2664f0f2b3db7a59672e9edc5717969f3170eb9e8f9e69158b87ec8f179b750d0644d0d2533b9ab987ce7e3cb7f7767fd1900b7e6f7e89f56b670c6ff77b95ede6a43032731bba99a7ee5e1c97d7565ff1b02b5e4f5ea9d54b472c4fd75bb5cdc6841012137bdaf9c78e3e7cf7b7363f91d04b3e2f3ec9b52b274c2fb73bd5ada6e47072335bfad9e7ae1e5cd797161fb1f06b1e0f1ee9950b076c0f971bf58d86c45052d3bb1a39074efebc3777f6ff51108bfeeffe0975ebe78cef77fb156d6624b0b2f39b3a19276ede9c1757d6df7130abdecfde2955cbc7accf57db354d4604909293fb5a79470ebefc7737b6bf1150cbbeafbe4935aba7ccaf37bb552d2664f0f2b3db7a59672e9edc5717969f3170eb9e8f9e69158b87ec8f179b750d0644d0d2533b9ab987ce7e3cb7f7767fd1900b7e6f7e89f56b670c6ff77b95ede6a43032731bba99a7ee5e1c97d7565ff1b02b5e4f5ea9d54b472c4fd75bb5cdc6841012137bdaf9c78e3e7cf7b7363f91d04b3e2f3ec9b52b274c2fb73bd5ada6e47072335bfad9e7ae1e5cd797161fb1f06b1e0f1ee9950b076c0f971bf58d86c45052d3bb1a39074efebc3777f6ff51108bfeeffe0975ebe78cef77fb156d6624b0b2f39b3a19276ede9c1757d6df7130abdecfde2955cbc7accf57db354d4604909293fb5a79470ebefc7737b6bf1150cbbeafbe4935aba7ccaf37bb552d2664f0f2b3db7a59672e9edc5717969f3170eb9e8f9e69158b87ec8f179b750d0644d0d2533b9ab987ce7e3cb7f7767fd1900b7e6f7e89f56b670c6ff77b95ede6a43032731bba99a7ee5e1c97d7565ff1b02b5e4f5ea9d54b472c4fd75bb5cdc6841012137bdaf9c78e3e7cf7b7363f91d04b3e2f3ec9b52b274c2fb73bd5ada6e47072335bfad9e7ae1e5cd797161fb1f06b1e0f1ee9950b076c0f971bf58d86c45052d3bb1a39074efebc3777f6ff51108bfeeffe0975ebe78cef77fb156d6624b0b2f39b3a19276ede9c1757d6df7130abdecfde2955cbc7accf57db354d4604909293fb5a79470ebefc7737b6bf1150cbbeafbe4935aba7ccaf37bb552d2664f0f2b3db7a59672e9edc5717969f3170eb9e8f9e69158b87ec8f179b750d0644d0d2533b9ab987ce7e3cb7f7767fd1900b7e6f7e89f56b670c6ff77b95ede6a43032731bba99a7ee5e1c97d7565ff1b02b5e4f5ea9d54b472c4fd75bb5cdc6841012137bdaf9c78e3e7cf7b7363f91d04b3e2f3ec9b52b274c2fb73bd5ada6e47072335bfad9e7ae1e5cd797161fb1f06b1e0f1ee9950b076c0f971bf58d86c45052d3bb1a39074efebc3777f6ff51108bfeeffe0975ebe78cef77fb156d6624b0b2f39b3a19276ede9c1757d6df7130abdecfde2955cbc7accf57db354d4604909293fb5a79470ebefc7737b6bf1150cbbeafbe4935aba7ccaf37bb552d2664f0f2b3db7a59672e9edc5717969f3170eb9e8f9e69158b87ec8f179b750d0644d0d2533b9ab987ce7e3cb7f7767fd1900b7eeac178a68839f09b0f4b45e415d658d9e10881cb79e3add2191e5cfa4330afbc",
        "type": "nulldata"
      }
    },
    {
      "value": 499991.8648,
      "n": 1,
      "scriptPubKey": {
        "asm": "1 4152722012cfded95d2a3f3ab23f24d65189ee178409193f8a7903898d27570d",
        "hex": "51204152722012cfded95d2a3f3ab23f24d65189ee178409193f8a7903898d27570d",
        "reqSigs": 1,
        "type": "witness_v1_scripthash",
        "addresses": [
          "3QJmnh"
        ]
      }
    }
  ],
  "blockhash": "fed18006ccdab590a9e00afae0c126c0756e5b686d02c0375b028c4c6af5cb31",
  "confirmations": 1,
  "time": 1764177489,
  "blocktime": 1764177489
}