{
  "hex": "01000000000101777791ca3345cc5b2c37fc16d1171e8ee0141438b1f7ad1f8889dcfce168f43f0000000000feffffff02e021231b792d0000225120fe9b1f913a01f7832eded8ef979113cd825b0650f1e5def33283c3d8e6addb5e00e1f50500000000fdd5046a20365b5760ab2d64f617e22756bc6caa71df5a9177d9ca1718f107a3cba624038f4db0040ab5818ec503804d0e1ccdc9114b548f57eabc9edf96e2a81950a8c64b4c94f12a95a1aee523a06d2e3cede9316b74af77ca9cbeffb6c288397088e66b6cb4d14af5c1ce8543c00d4e5c8d89510b14cf17aafcde9fd6a2e85910e8860b0cd4b16ad5e1eea563e02d6e7cada9712b34ef378adcfebff682c87930c8a62b2cf4918a35010e458300cd8e9c4d4991cbd40fd76a3c1e5f16622899d02846cbcc1471aa15212e65a320edaebc6d69b1ebf42ff74a1c3e7f364208b9f00866ebec3451ca75414e05c3408dcedc0d09d18b944f972a7c5e1f562268d99068068b8c5431ea55616e25e360adeefc2d29f1abb46fb70a5c7e3f760248f9b04826abac74110ab5818ec503804d0e1ccdc9114b548f57eabc9edf96e2a81950a8c64b4c94f12a95a1aee523a06d2e3cede9316b74af77ca9cbeffb6c288397088e66b6cb4d14af5c1ce8543c00d4e5c8d89510b14cf17aafcde9fd6a2e85910e8860b0cd4b16ad5e1eea563e02d6e7cada9712b34ef378adcfebff682c87930c8a62b2cf4918a35010e458300cd8e9c4d4991cbd40fd76a3c1e5f16622899d02846cbcc1471aa15212e65a320edaebc6d69b1ebf42ff74a1c3e7f364208b9f00866ebec3451ca75414e05c3408dcedc0d09d18b944f972a7c5e1f562268d99068068b8c5431ea55616e25e360adeefc2d29f1abb46fb70a5c7e3f760248f9b04826abac74110ab5818ec503804d0e1ccdc9114b548f57eabc9edf96e2a81950a8c64b4c94f12a95a1aee523a06d2e3cede9316b74af77ca9cbeffb6c288397088e66b6cb4d14af5c1ce8543c00d4e5c8d89510b14cf17aafcde9fd6a2e85910e8860b0cd4b16ad5e1eea563e02d6e7cada9712b34ef378adcfebff682c87930c8a62b2cf4918a35010e458300cd8e9c4d4991cbd40fd76a3c1e5f16622899d02846cbcc1471aa15212e65a320edaebc6d69b1ebf42ff74a1c3e7f364208b9f00866ebec3451ca75414e05c3408dcedc0d09d18b944f972a7c5e1f562268d99068068b8c5431ea55616e25e360adeefc2d29f1abb46fb70a5c7e3f760248f9b04826abac74110ab5818ec503804d0e1ccdc9114b548f57eabc9edf96e2a81950a8c64b4c94f12a95a1aee523a06d2e3cede9316b74af77ca9cbeffb6c288397088e66b6cb4d14af5c1ce8543c00d4e5c8d89510b14cf17aafcde9fd6a2e85910e8860b0cd4b16ad5e1eea563e02d6e7cada9712b34ef378adcfebff682c87930c8a62b2cf4918a35010e458300cd8e9c4d4991cbd40fd76a3c1e5f16622899d02846cbcc1471aa15212e65a320edaebc6d69b1ebf42ff74a1c3e7f364208b9f00866ebec3451ca75414e05c3408dcedc0d09d18b944f972a7c5e1f562268d99068068b8c5431ea55616e25e360adeefc2d29f1abb46fb70a5c7e3f760248f9b04826abac74110ab5818ec503804d0e1ccdc9114b548f57eabc9edf96e2a81950a8c64b4c94f12a95a1aee523a06d2e3cede9316b74af77ca9cbeffb6c288397088e66b6cb4d14af5c1ce8543c00d4e5c8d89510b14cf17aafcde9fd6a2e85910e8860b0cd4b16ad5e1eea563e02d6e7cada9712b34ef378adcfebff682c87930c8a62b2cf4918a35010e458300cd8e9c4d4991cbd40f2e904303e31cb72d0add8cb9422f164d5ef58d247c9c6610067f435457cd124202fd750982d556ba5681e542e59ea442708a4d606fed2fa2384bbbc5aa741f8059bd720f0376c47fcc64b62b03ac5db5b27d7129c12b022ace416b81b361c33535734b19c01d704f9473f5f67f46573e90715272012d4d51c125e05790c12495e234b4f7118eee27b06530f696422af493525f16865ac23a19cd0d2e1dbb22cf3e88287d2d4666f311d95ad9f44210b19a83c553f3cf60fbdcf68979e86d8d6a2b295bb6cc88d838788f1e2e7401571eef9aef1c73bb2a7d6915a2d13fd24d2ca8e07ac3e0859b669f2816aaea8c6b8e8f07ea55d20f67a90fef703dd684fc050cc1fa3d10a846d61a1e633b0288df097f6013bac05a27fe7fae85c705afffc8a661a0e814aa20e23fcfb5907dd9335ee7af6f9d679977c1db8b1c9db08a0ff9f2387eb084fa39453145f79ae1bef95402de9a59ff133c0a445d51e1cea10888f7b10c27edc7230931b7bb0942f1fc45ff3400961cf36ebf607461249f43cae94e630930a426478ea41aeff63e41bb63828b534af2da189c2dd588ea857095f7bb7ee002c07fbecf16ed09a9d17a05d220ced12d64717376e7101a2bbabcbbda8ef186433605f628500ca29a23e65d2025fe4fe81c01595db682c860d1db7fa0536e8d0e9a2552ce8d8d67678ba5365f39c6b19c87ac66279b958ca2e7403e296840dbac3c39c811070912d4a394ad3a1a7fcbdc2b88af698b5630b1c7fd27ecd4a5ae3633a7ab0c267d2c59e8ef97bc98b2040cfb0cf8ae6115fdcf8b0637e86f44c9f9fa031b1645410e43999ab86b791f145277b7d46c8b844d4f16fcbf066495c319facc0fea7fc97574a102389c95b5590803cd6c9dbd232837c94682f75276ecafc87d6c4ae8462803bd6b1725280068fb71d766e99463340249845c84c9e30acbd1fcfbd5a7f87b2d641c06d58776983fd2639b0cbb89fcaf2e28ec7b2f32d6f58bc69c2950afa3b712277b9bfbf2c386c838ca649ca3beb22acabf49c43d342ff432c5b363cc5809a555efc7b5802c888e7addb5b73c8db6a0b0fe3d531404304909e16dc1416284428f39089bfceec3b7fe2845ed77a61609ccd1262579315b8b19c0ce7713ad1152218f3dd877ddedd125577a448e22296234b8fc3163e6ce10604dda717f4674d630ba381d1d5075637b973ab77585aac5eadf8e9d6b7c10c59176c37bfd5a471e4b0f92f09ab24505ce86e5d9016ec882e053abbce907308e821af5c3b8cc79551195ffc097f612fe3a3a79a9534cbe8f91a4633bf66adcfba42e1990d0927035a3c50b3b08154cef871c9509bc89770289d1600aed0bf71ba7e758605897da327f4334e1742a15fd40859a26a62a61364f471e619731530463e8992047b85056f1c743ee5cdc92d1834d36d1328ee3c19dcdff9a88e6c0594191d2b4c2810fff4d2ea6a762be7c541de57352f7eacbf11570dde1f1737bc1d8e4afcd5ad5e8bd6813eec9735dbd74c21782cee00e3b48f65835ca739769eeba359d29a02c2cc39dda41624f789c3e204d1b46184de532802977224a779bb1154aa4aab06199f74fccd472aa1eea63a3a77e1295b8992d12f039bae735e44d858228b28f7b206b383e3fe7b102ca78d1689c94f10ed486f37224e140ab031bba25a31bb0dde53217835d27cd352a8498eedca55ffb1f239539e32c53771bef197f0a9fdb74eedcc792fdb46e36d289f5565334baeec30452ca98ac6df8eea23cecf987eb0980eae415d918b1341e3047ad4f72a32d5dae161f8ee54399282ab7c7fcda2f4be9276c2100d3549dee53e9d370b3913286856fbfd3aa0c7b808ea2a40aa77815b5996e58f67c26af0d5572fbb8f952a32fe308b368852f16ed9f80f4db55bc9f41adff6ad0c72ec0772bca74f98b97868b204938733eeaf442e95e50a5113922916b1dd89373763f5b60d37a5a1e32b3135d1ea3e1700663d1b6f77a37a42502a0aa40c505291a955963002e4f64a41150fb16e466991f28f448b5e95178ad429c6c6987c0e936e8b3705cdda9ae8fe766e849c336081371fc9d53d69cf5678afd5656be359078cd66b3d0c0dfcb6ba5c592d2efa7532023d6b5ef93a9f09d18fb8608faa2175ad24069ce0912b02c99800b8d07899ad8713a22924ffcc6ca9293a948f6e46dbff4ad2fea33a1c1b72cee8231560ab1e3d3f592d44dfb01af499b533d9e7aebd4026001bfc821a4b49fddfbf6f52f6fcc31d42fc4ace285b6d75cd8d29bc23facb038037456846d09b339f39a4cdce0b380694f897a0426d86fe4ce74b1ef723c7bb46cd26746b69d90bfab63f6014eeab3fc0c60c886630a7960e4225a9d4fbb030a69591abc7b5abcd9088415470eeea8393967c2db8ca556be6897c092cb65b6e04684fb9eeaec9692fca9eeab48e082ebec7cd30ac5081ec39eb671e263ee4ee3e753708edb4f0f2f0a3a6ffc82494aff490bc4ea6e040f7e04cd0f028f3ad2868d810cd32f1eec9cbae6d01960ad257ae5e76a0c1a9f4d94381af6d26f17590db2df2ffb7b3b438c40431010f33c7ce97224844a01317e21e21a149ed5cf51ad0b1273fe22fe623b44d0eb93cc49abb445f13956191745420e6b11223e06501168d04bddb7a60c7310424d765c66fdb6eb94361e6780e7395991c931c29844a88692bf079d3cf56337b9b7da260bcd2669a8f7f86ffde6373431ad7ac14d4cd5c75d6dd67fbf9ba48cf0e07545e831268883689a2753cec02a05f1542a472b5832f0ce05472f257bf8d3c71da2ec572235add22c718d24dfb97800e096dc113e0a37c4f1e0bb49d3161c518e6ccd9ebf35b2d9d730cfb79f3ded332b15bb016ed0518d6176de2b75c2ccf5303db77484eb66822bf7f54a590684c45632416475db770117a8fbb48bb33dcd48cc06da98d2037a885082a264225bc7611d99da72f8db2ddf75dc28ffb2bd29a12a79aa8076c20083e5de816b336f5deb4bb8b0a8f31a5b336eef3cdf2b1f56b8641b60341d77c58bf4b340ff5dbc010b6af01497adbb211e8241340fe262d37fe9c7bf8c3372d5a6b82940ba1101f2e7bbcd03f17c626dd2075ee71fe35d9e91b6cbf994f9a5e2ae58c6ef26dfa679594b8c9826eb9eecfa037befbbfa84955a0f37d12b005d740c31a9b0553c78f23214bd9b9d7faf638e908d53f57207f92a54b6b35a4087637ed1c0a8583dd20e215aeac89d0ad28d1310adcc4cd70e812bb4a011b224d3b371320849fe0e2c4f475ebe6d3931f6d8ffd19c84add71fbf394df54d8d43192bf27cc54993a6fa1695a4c2bd27586eebbe308d99836d3a57f4cce721e4090a232a3b3f70b2d3d4d6d8e4035074769495b5cdcf060b0c242634374b535a5c6465839eb6c2ebf32c2e30567180878a97bdbfc0c5c8d6e2f3f9fd00000000000000000000000000000000000000000d16293c01fd210500a9d2959e6c62ffb50ed099c5cf4ad8e7f52bd2e75287c18d0afa4e930fe0c570522a7e50e7064c660fc2a2c33d03de47250951fbcfa836e579c81010da1c80f792e4b99fcc09dc0097af9c7ebdd4d378151a36b33d073e55dd44552e1742a3a3e94a130ec02828029e3eacdd0790052bbf833090bc182cb833a167808bea0df743ac73b3dc601bbe319f3bfde0cca9542d094d3430f5065fa1d799ade1695b431eae124bf7028beb99d0d0e57350f9b171f4af0ace51cf89abfe438c37bad0d56731674db1864899403a37dbbb7879612dce41f75803025e3a96d3b31461c211c26399ead2733ea689c993f050b9129f15b226137db72230f40bfa202a61a35f47bc61e2ce859db0ae5eba8687d400925682b60accdcf8c84c65a2f5a2216c2d4e7b8bcafba32eb747ccedb76a2396227a801e15d8f92ccaab9f5f03ef1109f2c7c312e591a624f1043150740bd3e6a87bad16715e1f1e4cd1d7ebdf795744a5a950049293bb412994e5b6cb533f77586cc5057dd9c4600fca68460cfbe51fd1a8ac5aea2666e937e916a76fa6dc9c2a2466a5520eed797989b54d4d608af209ebfe59581affd9de60593b84bb00306cb222a347a93f3d3cfe64ee6db21fe2bdc78d0f02a872b76cc92089f445cd667e16117d8a66bc37d3fbde80b2622bbecfddbfd3ec4334cbb79b4ffe3aab6b44d8a36d1701067b782ceb6a639c81b297ea3ba6ae195731ff00ee10408cfd271bd1e0853ed5a21da04115e8ee9b2e1c7eb7dfd42b0e3226d445923f4ac348de155fd6d92bd6ba74dfb6ba92ea33cf939a2186b22c7132a10d6a618e9d35eb0a9db467b6b35ed682e3cf43ab0b34d3f3bd04bcb1693bb668509c3b552ea4e825f8b922be86bd967ece4e54cbfc62ec6123abc11b21d677c3c5deb9110c7fa7a623a38492c150c8799e1a78c246acb37da5a69cb5ba3338231ec57d8adcd2674d28a7231cad84a20c0b931e1e0c9f624641b85fe438208b1eaebe5e39fe2290f9d18507dd9ed3e42ab035726b1dbcdfb4d66c7b72981381b724fab7c31afadf2f8d5fdd827f5832329bbd6c521b98a7972563179d377cfcd492d81f48ebdaafd5094e483a5d1ea2cf34db71dfe052807e0c9fcf11c3012d50139e2f740ee91d67b551cf57181d5fe9ecbfb9be83f7e88b88544be87ffa4062cbd060c4598f670d5c3944ccfc3f98d40d9f0cf4dc94b0f7538022e75939b4b1e643e2b6baf1f559db82019eeb74cc49672dac4ea6246c0c59937ca1e468102f1319d87eddf382f2c6c2b122bf4140d0d0b62a0f31d207cbd84055251073ae8aa9490135b012f1846dcc38136c070796e36abf96d0d160d74751252fe29c5d2d391a33741fdd47b33eb320a04e28a07eed979e5228837cbb82249e79511577734bbef8f95294cea29399576368608b59156c002ab8a7313aae5d870e98bc0710d0591b82acbbf41c366669fb1ebb1c49a8ee0a281a4422c6224fe8dfdac9e6b1a68b6fbb70933f55fbaf9cc8700e9e7fc89839103fc3a83b6afc2ce21b15936a92f690162c074b3f6378f5d0968e073bdea976d3a7ac83d517822fa8b9642ff5653b2a22b5b1c8c39fdc27fc917583baa6a094e335be2ac036c461e12d72e13bf9c218c8ddded2c04a7666a055fe4dfd39f6aaf14600dc445754f0d641e26e4a82acec93badb2593813de123520e92974fbb71682d49b3ad634ddbfe6737b5d88657b4ad18bd39115c1ed18d0b942bde4aa95ca3a05e644b8f2cb26f25d1d48413ad1a43e7af9d555ebdd9c5656ab6e46c14d19dd9061ed1639e5767513e37e69e4a7cc8992777f5ecf849ee6e8618c9f67f2b9996574b5d60e174000000",
  "txid": "49818fd8f04bb1fd3f8474b0b9074d9c04422160742e34b46dc21fd43a6fa2f9",
  "hash": "8fca054c4f179a582a58acafe24a40fc3cf821e592fdb0e401afbcf324c86afe",
  "size": 5085,
  "vsize": 2278,
  "version": 1,
  "locktime": 116,
  "vin": [
    {
      "txid": "3ff468e1fcdc89881fadf7b1381414e08e1e17d116fc372c5bcc4533ca917777",
      "vout": 0,
      "scriptSig": {
        "asm": "",
        "hex": ""
      },
      "txinwitness": [
        "82d556ba5681e542e59ea442708a4d606fed2fa2384bbbc5aa741f8059bd720f0376c47fcc64b62b03ac5db5b27d7129c12b022ace416b81b361c33535734b19c01d704f9473f5f67f46573e90715272012d4d51c125e05790c12495e234b4f7118eee27b06530f696422af493525f16865ac23a19cd0d2e1dbb22cf3e88287d2d4666f311d95ad9f44210b19a83c553f3cf60fbdcf68979e86d8d6a2b295bb6cc88d838788f1e2e7401571eef9aef1c73bb2a7d6915a2d13fd24d2ca8e07ac3e0859b669f2816aaea8c6b8e8f07ea55d20f67a90fef703dd684fc050cc1fa3d10a846d61a1e633b0288df097f6013bac05a27fe7fae85c705afffc8a661a0e814aa20e23fcfb5907dd9335ee7af6f9d679977c1db8b1c9db08a0ff9f2387eb084fa39453145f79ae1bef95402de9a59ff133c0a445d51e1cea10888f7b10c27edc7230931b7bb0942f1fc45ff3400961cf36ebf607461249f43cae94e630930a426478ea41aeff63e41bb63828b534af2da189c2dd588ea857095f7bb7ee002c07fbecf16ed09a9d17a05d220ced12d64717376e7101a2bbabcbbda8ef186433605f628500ca29a23e65d2025fe4fe81c01595db682c860d1db7fa0536e8d0e9a2552ce8d8d67678ba5365f39c6b19c87ac66279b958ca2e7403e296840dbac3c39c811070912d4a394ad3a1a7fcbdc2b88af698b5630b1c7fd27ecd4a5ae3633a7ab0c267d2c59e8ef97bc98b2040cfb0cf8ae6115fdcf8b0637e86f44c9f9fa031b1645410e43999ab86b791f145277b7d46c8b844d4f16fcbf066495c319facc0fea7fc97574a102389c95b5590803cd6c9dbd232837c94682f75276ecafc87d6c4ae8462803bd6b1725280068fb71d766e99463340249845c84c9e30acbd1fcfbd5a7f87b2d641c06d58776983fd2639b0cbb89fcaf2e28ec7b2f32d6f58bc69c2950afa3b712277b9bfbf2c386c838ca649ca3beb22acabf49c43d342ff432c5b363cc5809a555efc7b5802c888e7addb5b73c8db6a0b0fe3d531404304909e16dc1416284428f39089bfceec3b7fe2845ed77a61609ccd1262579315b8b19c0ce7713ad1152218f3dd877ddedd125577a448e22296234b8fc3163e6ce10604dda717f4674d630ba381d1d5075637b973ab77585aac5eadf8e9d6b7c10c59176c37bfd5a471e4b0f92f09ab24505ce86e5d9016ec882e053abbce907308e821af5c3b8cc79551195ffc097f612fe3a3a79a9534cbe8f91a4633bf66adcfba42e1990d0927035a3c50b3b08154cef871c9509bc89770289d1600aed0bf71ba7e758605897da327f4334e1742a15fd40859a26a62a61364f471e619731530463e8992047b85056f1c743ee5cdc92d1834d36d1328ee3c19dcdff9a88e6c0594191d2b4c2810fff4d2ea6a762be7c541de57352f7eacbf11570dde1f1737bc1d8e4afcd5ad5e8bd6813eec9735dbd74c21782cee00e3b48f65835ca739769eeba359d29a02c2cc39dda41624f789c3e204d1b46184de532802977224a779bb1154aa4aab06199f74fccd472aa1eea63a3a77e1295b8992d12f039bae735e44d858228b28f7b206b383e3fe7b102ca78d1689c94f10ed486f37224e140ab031bba25a31bb0dde53217835d27cd352a8498eedca55ffb1f239539e32c53771bef197f0a9fdb74eedcc792fdb46e36d289f5565334baeec30452ca98ac6df8eea23cecf987eb0980eae415d918b1341e3047ad4f72a32d5dae161f8ee54399282ab7c7fcda2f4be9276c2100d3549dee53e9d370b3913286856fbfd3aa0c7b808ea2a40aa77815b5996e58f67c26af0d5572fbb8f952a32fe308b368852f16ed9f80f4db55bc9f41adff6ad0c72ec0772bca74f98b97868b204938733eeaf442e95e50a5113922916b1dd89373763f5b60d37a5a1e32b3135d1ea3e1700663d1b6f77a37a42502a0aa40c505291a955963002e4f64a41150fb16e466991f28f448b5e95178ad429c6c6987c0e936e8b3705cdda9ae8fe766e849c336081371fc9d53d69cf5678afd5656be359078cd66b3d0c0dfcb6ba5c592d2efa7532023d6b5ef93a9f09d18fb8608faa2175ad24069ce0912b02c99800b8d07899ad8713a22924ffcc6ca9293a948f6e46dbff4ad2fea33a1c1b72cee8231560ab1e3d3f592d44dfb01af499b533d9e7aebd4026001bfc821a4b49fddfbf6f52f6fcc31d42fc4ace285b6d75cd8d29bc23facb038037456846d09b339f39a4cdce0b380694f897a0426d86fe4ce74b1ef723c7bb46cd26746b69d90bfab63f6014eeab3fc0c60c886630a7960e4225a9d4fbb030a69591abc7b5abcd9088415470eeea8393967c2db8ca556be6897c092cb65b6e04684fb9eeaec9692fca9eeab48e082ebec7cd30ac5081ec39eb671e263ee4ee3e753708edb4f0f2f0a3a6ffc82494aff490bc4ea6e040f7e04cd0f028f3ad2868d810cd32f1eec9cbae6d01960ad257ae5e76a0c1a9f4d94381af6d26f17590db2df2ffb7b3b438c40431010f33c7ce97224844a01317e21e21a149ed5cf51ad0b1273fe22fe623b44d0eb93cc49abb445f13956191745420e6b11223e06501168d04bddb7a60c7310424d765c66fdb6eb94361e6780e7395991c931c29844a88692bf079d3cf56337b9b7da260bcd2669a8f7f86ffde6373431ad7ac14d4cd5c75d6dd67fbf9ba48cf0e07545e831268883689a2753cec02a05f1542a472b5832f0ce05472f257bf8d3c71da2ec572235add22c718d24dfb97800e096dc113e0a37c4f1e0bb49d3161c518e6ccd9ebf35b2d9d730cfb79f3ded332b15bb016ed0518d6176de2b75c2ccf5303db77484eb66822bf7f54a590684c45632416475db770117a8fbb48bb33dcd48cc06da98d2037a885082a264225bc7611d99da72f8db2ddf75dc28ffb2bd29a12a79aa8076c20083e5de816b336f5deb4bb8b0a8f31a5b336eef3cdf2b1f56b8641b60341d77c58bf4b340ff5dbc010b6af01497adbb211e8241340fe262d37fe9c7bf8c3372d5a6b82940ba1101f2e7bbcd03f17c626dd2075ee71fe35d9e91b6cbf994f9a5e2ae58c6ef26dfa679594b8c9826eb9eecfa037befbbfa84955a0f37d12b005d740c31a9b0553c78f23214bd9b9d7faf638e908d53f57207f92a54b6b35a4087637ed1c0a8583dd20e215aeac89d0ad28d1310adcc4cd70e812bb4a011b224d3b371320849fe0e2c4f475ebe6d3931f6d8ffd19c84add71fbf394df54d8d43192bf27cc54993a6fa1695a4c2bd27586eebbe308d99836d3a57f4cce721e4090a232a3b3f70b2d3d4d6d8e4035074769495b5cdcf060b0c242634374b535a5c6465839eb6c2ebf32c2e30567180878a97bdbfc0c5c8d6e2f3f9fd00000000000000000000000000000000000000000d16293c01",
        "00a9d2959e6c62ffb50ed099c5cf4ad8e7f52bd2e75287c18d0afa4e930fe0c570522a7e50e7064c660fc2a2c33d03de47250951fbcfa836e579c81010da1c80f792e4b99fcc09dc0097af9c7ebdd4d378151a36b33d073e55dd44552e1742a3a3e94a130ec02828029e3eacdd0790052bbf833090bc182cb833a167808bea0df743ac73b3dc601bbe319f3bfde0cca9542d094d3430f5065fa1d799ade1695b431eae124bf7028beb99d0d0e57350f9b171f4af0ace51cf89abfe438c37bad0d56731674db1864899403a37dbbb7879612dce41f75803025e3a96d3b31461c211c26399ead2733ea689c993f050b9129f15b226137db72230f40bfa202a61a35f47bc61e2ce859db0ae5eba8687d400925682b60accdcf8c84c65a2f5a2216c2d4e7b8bcafba32eb747ccedb76a2396227a801e15d8f92ccaab9f5f03ef1109f2c7c312e591a624f1043150740bd3e6a87bad16715e1f1e4cd1d7ebdf795744a5a950049293bb412994e5b6cb533f77586cc5057dd9c4600fca68460cfbe51fd1a8ac5aea2666e937e916a76fa6dc9c2a2466a5520eed797989b54d4d608af209ebfe59581affd9de60593b84bb00306cb222a347a93f3d3cfe64ee6db21fe2bdc78d0f02a872b76cc92089f445cd667e16117d8a66bc37d3fbde80b2622bbecfddbfd3ec4334cbb79b4ffe3aab6b44d8a36d1701067b782ceb6a639c81b297ea3ba6ae195731ff00ee10408cfd271bd1e0853ed5a21da04115e8ee9b2e1c7eb7dfd42b0e3226d445923f4ac348de155fd6d92bd6ba74dfb6ba92ea33cf939a2186b22c7132a10d6a618e9d35eb0a9db467b6b35ed682e3cf43ab0b34d3f3bd04bcb1693bb668509c3b552ea4e825f8b922be86bd967ece4e54cbfc62ec6123abc11b21d677c3c5deb9110c7fa7a623a38492c150c8799e1a78c246acb37da5a69cb5ba3338231ec57d8adcd2674d28a7231cad84a20c0b931e1e0c9f624641b85fe438208b1eaebe5e39fe2290f9d18507dd9ed3e42ab035726b1dbcdfb4d66c7b72981381b724fab7c31afadf2f8d5fdd827f5832329bbd6c521b98a7972563179d377cfcd492d81f48ebdaafd5094e483a5d1ea2cf34db71dfe052807e0c9fcf11c3012d50139e2f740ee91d67b551cf57181d5fe9ecbfb9be83f7e88b88544be87ffa4062cbd060c4598f670d5c3944ccfc3f98d40d9f0cf4dc94b0f7538022e75939b4b1e643e2b6baf1f559db82019eeb74cc49672dac4ea6246c0c59937ca1e468102f1319d87eddf382f2c6c2b122bf4140d0d0b62a0f31d207cbd84055251073ae8aa9490135b012f1846dcc38136c070796e36abf96d0d160d74751252fe29c5d2d391a33741fdd47b33eb320a04e28a07eed979e5228837cbb82249e79511577734bbef8f95294cea29399576368608b59156c002ab8a7313aae5d870e98bc0710d0591b82acbbf41c366669fb1ebb1c49a8ee0a281a4422c6224fe8dfdac9e6b1a68b6fbb70933f55fbaf9cc8700e9e7fc89839103fc3a83b6afc2ce21b15936a92f690162c074b3f6378f5d0968e073bdea976d3a7ac83d517822fa8b9642ff5653b2a22b5b1c8c39fdc27fc917583baa6a094e335be2ac036c461e12d72e13bf9c218c8ddded2c04a7666a055fe4dfd39f6aaf14600dc445754f0d641e26e4a82acec93badb2593813de123520e92974fbb71682d49b3ad634ddbfe6737b5d88657b4ad18bd39115c1ed18d0b942bde4aa95ca3a05e644b8f2cb26f25d1d48413ad1a43e7af9d555ebdd9c5656ab6e46c14d19dd9061ed1639e5767513e37e69e4a7cc8992777f5ecf849ee6e8618c9f67f2b9996574b5d60e1"
      ],
      "sequence": 4294967294
    }
  ],
  "vout": [
    {
      "value": 499981.6958,
      "n": 0,
      "scriptPubKey": {
        "asm": "1 fe9b1f913a01f7832eded8ef979113cd825b0650f1e5def33283c3d8e6addb5e",
        "hex": "5120fe9b1f913a01f7832eded8ef979113cd825b0650f1e5def33283c3d8e6addb5e",
        "reqSigs": 1,
        "type": "witness_v1_scripthash",
        "addresses": [
          "3QJmnh"
        ]
      }
    },
    {
      "value": 1.0,
      "n": 1,
      "scriptPubKey": {
        "asm": "OP_RETURN 365b5760ab2d64f617e22756bc6caa71df5a9177d9ca1718f107a3cba624038f 0ab5818ec503804d0e1ccdc9114b548f57eabc9edf96e2a81950a8c64b4c94f12a95a1aee523a06d2e3cede9316b74af77ca9cbeffb6c288397088e66b6cb4d14af5c1ce8543c00d4e5c8d89510b14cf17aafcde9fd6a2e85910e8860b0cd4b16ad5e1eea563e02d6e7cada9712b34ef378adcfebff682c87930c8a62b2cf4918a35010e458300cd8e9c4d4991cbd40fd76a3c1e5f16622899d02846cbcc1471aa15212e65a320edaebc6d69b1ebf42ff74a1c3e7f364208b9f00866ebec3451ca75414e05c3408dcedc0d09d18b944f972a7c5e1f562268d99068068b8c5431ea55616e25e360adeefc2d29f1abb46fb70a5c7e3f760248f9b04826abac74110ab5818ec503804d0e1ccdc9114b548f57eabc9edf96e2a81950a8c64b4c94f12a95a1aee523a06d2e3cede9316b74af77ca9cbeffb6c288397088e66b6cb4d14af5c1ce8543c00d4e5c8d89510b14cf17aafcde9fd6a2e85910e8860b0cd4b16ad5e1eea563e02d6e7cada9712b34ef378adcfebff682c87930c8a62b2cf4918a35010e458300cd8e9c4d4991cbd40fd76a3c1e5f16622899d02846cbcc1471aa15212e65a320edaebc6d69b1ebf42ff74a1c3e7f364208b9f00866ebec3451ca75414e05c3408dcedc0d09d18b944f972a7c5e1f562268d99068068b8c5431ea55616e25e360adeefc2d29f1abb46fb70a5c7e3f760248f9b04826abac74110ab5818ec503804d0e1ccdc9114b548f57eabc9edf96e2a81950a8c64b4c94f12a95a1aee523a06d2e3cede9316b74af77ca9cbeffb6c288397088e66b6cb4d14af5c1ce8543c00d4e5c8d89510b14cf17aafcde9fd6a2e85910e8860b0cd4b16ad5e1eea563e02d6e7cada9712b34ef378adcfebff682c87930c8a62b2cf4918a35010e458300cd8e9c4d4991cbd40fd76a3c1e5f16622899d02846cbcc1471aa15212e65a320edaebc6d69b1ebf42ff74a1c3e7f364208b9f00866ebec3451ca75414e05c3408dcedc0d09d18b944f972a7c5e1f562268d99068068b8c5431ea55616e25e360adeefc2d29f1abb46fb70a5c7e3f760248f9b04826abac74110ab5818ec503804d0e1ccdc9114b548f57eabc9edf96e2a81950a8c64b4c94f12a95a1aee523a06d2e3cede9316b74af77ca9cbeffb6c288397088e66b6cb4d14af5c1ce8543c00d4e5c8d89510b14cf17aafcde9fd6a2e85910e8860b0cd4b16ad5e1eea563e02d6e7cada9712b34ef378adcfebff682c87930c8a62b2cf4918a35010e458300cd8e9c4d4991cbd40fd76a3c1e5f16622899d02846cbcc1471aa15212e65a320edaebc6d69b1ebf42ff74a1c3e7f364208b9f00866ebec3451ca75414e05c3408dcedc0d09d18b944f972a7c5e1f562268d99068068b8c5431ea55616e25e360adeefc2d29f1abb46fb70a5c7e3f760248f9b04826abac74110ab5818ec503804d0e1ccdc9114b548f57eabc9edf96e2a81950a8c64b4c94f12a95a1aee523a06d2e3cede9316b74af77ca9cbeffb6c288397088e66b6cb4d14af5c1ce8543c00d4e5c8d89510b14cf17aafcde9fd6a2e85910e8860b0cd4b16ad5e1eea563e02d6e7cada9712b34ef378adcfebff682c87930c8a62b2cf4918a35010e458300cd8e9c4d4991cbd40f2e904303e31cb72d0add8cb9422f164d5ef58d247c9c6610067f435457cd1242",
        "hex": "6a20365b5760ab2d64f617e22756bc6caa71df5a9177d9ca1718f107a3cba624038f4db0040ab5818ec503804d0e1ccdc9114b548f57eabc9edf96e2a81950a8c64b4c94f12a95a1aee523a06d2e3cede9316b74af77ca9cbeffb6c288397088e66b6cb4d14af5c1ce8543c00d4e5c8d89510b14cf17aafcde9fd6a2e85910e8860b0cd4b16ad5e1eea563e02d6e7cada9712b34ef378adcfebff682c87930c8a62b2cf4918a35010e458300cd8e9c4d4991cbd40fd76a3c1e5f16622899d02846cbcc1471aa15212e65a320edaebc6d69b1ebf42ff74a1c3e7f364208b9f00866ebec3451ca75414e05c3408dcedc0d09d18b944f972a7c5e1f562268d99068068b8c5431ea55616e25e360adeefc2d29f1abb46fb70a5c7e3f760248f9b04826abac74110ab5818ec503804d0e1ccdc9114b548f57eabc9edf96e2a81950a8c64b4c94f12a95a1aee523a06d2e3cede9316b74af77ca9cbeffb6c288397088e66b6cb4d14af5c1ce8543c00d4e5c8d89510b14cf17aafcde9fd6a2e85910e8860b0cd4b16ad5e1eea563e02d6e7cada9712b34ef378adcfebff682c87930c8a62b2cf4918a35010e458300cd8e9c4d4991cbd40fd76a3c1e5f16622899d02846cbcc1471aa15212e65a320edaebc6d69b1ebf42ff74a1c3e7f364208b9f00866ebec3451ca75414e05c3408dcedc0d09d18b944f972a7c5e1f562268d99068068b8c5431ea55616e25e360adeefc2d29f1abb46fb70a5c7e3f760248f9b04826abac74110ab5818ec503804d0e1ccdc9114b548f57eabc9edf96e2a81950a8c64b4c94f12a95a1aee523a06d2e3cede9316b74af77ca9cbeffb6c288397088e66b6cb4d14af5c1ce8543c00d4e5c8d89510b14cf17aafcde9fd6a2e85910e8860b0cd4b16ad5e1eea563e02d6e7cada9712b34ef378adcfebff682c87930c8a62b2cf4918a35010e458300cd8e9c4d4991cbd40fd76a3c1e5f16622899d02846cbcc1471aa15212e65a320edaebc6d69b1ebf42ff74a1c3e7f364208b9f00866ebec3451ca75414e05c3408dcedc0d09d18b944f972a7c5e1f562268d99068068b8c5431ea55616e25e360adeefc2d29f1abb46fb70a5c7e3f760248f9b04826abac74110ab5818ec503804d0e1ccdc9114b548f57eabc9edf96e2a81950a8c64b4c94f12a95a1aee523a06d2e3cede9316b74af77ca9cbeffb6c288397088e66b6cb4d14af5c1ce8543c00d4e5c8d89510b14cf17aafcde9fd6a2e85910e8860b0cd4b16ad5e1eea563e02d6e7cada9712b34ef378adcfebff682c87930c8a62b2cf4918a35010e458300cd8e9c4d4991cbd40fd76a3c1e5f16622899d02846cbcc1471aa15212e65a320edaebc6d69b1ebf42ff74a1c3e7f364208b9f00866ebec3451ca75414e05c3408dcedc0d09d18b944f972a7c5e1f562268d99068068b8c5431ea55616e25e360adeefc2d29f1abb46fb70a5c7e3f760248f9b04826abac74110ab5818ec503804d0e1ccdc9114b548f57eabc9edf96e2a81950a8c64b4c94f12a95a1aee523a06d2e3cede9316b74af77ca9cbeffb6c288397088e66b6cb4d14af5c1ce8543c00d4e5c8d89510b14cf17aafcde9fd6a2e85910e8860b0cd4b16ad5e1eea563e02d6e7cada9712b34ef378adcfebff682c87930c8a62b2cf4918a35010e458300cd8e9c4d4991cbd40f2e904303e31cb72d0add8cb9422f164d5ef58d247c9c6610067f435457cd1242",
        "type": "nulldata"
      }
    }
  ],
  "blockhash": "73359bfd0a4582986ffd1e7664419d7a0ef7b090643ab62685454f7a097cd719",
  "confirmations": 1,
  "time": 1764179247,
  "blocktime": 1764179247
}