{
  "hex": "010000000001011f70ee437ecb6d513e2eb7c627df9a61fed9ae4bb8063882c6286c58134f1a350100000000feffffff02202367d2782d00002251205d81a6ac51673253c26eb1a5985ba2ef8b72353f4e50c231adbc3c78dacadf8100e1f50500000000fdd5046a202368345e6ea3f38907ee0a7d2242a4787ac5d4bb363b1b78a40a182d25a43c064db004026965588d2ba913157b64280bf5b5569c033dc477da57c4fa980bd64824c77622494578ad0b8933355b44082bd59576bc231de457fa77e4dab82bf66804e75642292518cd6be953553b24684bb5f516dc437d84379a1784bad84b960864873662090538ed4bc973751b04486b95d536fc635da417ba37a49af86bb62844a71682e9e5d80dab299395fbe4a88b7535d61c83bd44f75ad7447a188b56c8a447f6a2c9c5f82d8b09b3b5dbc488ab5515f63ca39d64d77af7645a38ab76e88467d6c2a9a5984deb69d3d5bba4e8cb3575965cc3fd04b71a97043a58cb1688e407b6e28985b86dcb49f3f59b84c8eb1555b67ce3dd24973ab7241a78eb36a8c42796026965588d2ba913157b64280bf5b5569c033dc477da57c4fa980bd64824c77622494578ad0b8933355b44082bd59576bc231de457fa77e4dab82bf66804e75642292518cd6be953553b24684bb5f516dc437d84379a1784bad84b960864873662090538ed4bc973751b04486b95d536fc635da417ba37a49af86bb62844a71682e9e5d80dab299395fbe4a88b7535d61c83bd44f75ad7447a188b56c8a447f6a2c9c5f82d8b09b3b5dbc488ab5515f63ca39d64d77af7645a38ab76e88467d6c2a9a5984deb69d3d5bba4e8cb3575965cc3fd04b71a97043a58cb1688e407b6e28985b86dcb49f3f59b84c8eb1555b67ce3dd24973ab7241a78eb36a8c42796026965588d2ba913157b64280bf5b5569c033dc477da57c4fa980bd64824c77622494578ad0b8933355b44082bd59576bc231de457fa77e4dab82bf66804e75642292518cd6be953553b24684bb5f516dc437d84379a1784bad84b960864873662090538ed4bc973751b04486b95d536fc635da417ba37a49af86bb62844a71682e9e5d80dab299395fbe4a88b7535d61c83bd44f75ad7447a188b56c8a447f6a2c9c5f82d8b09b3b5dbc488ab5515f63ca39d64d77af7645a38ab76e88467d6c2a9a5984deb69d3d5bba4e8cb3575965cc3fd04b71a97043a58cb1688e407b6e28985b86dcb49f3f59b84c8eb1555b67ce3dd24973ab7241a78eb36a8c42796026965588d2ba913157b64280bf5b5569c033dc477da57c4fa980bd64824c77622494578ad0b8933355b44082bd59576bc231de457fa77e4dab82bf66804e75642292518cd6be953553b24684bb5f516dc437d84379a1784bad84b960864873662090538ed4bc973751b04486b95d536fc635da417ba37a49af86bb62844a71682e9e5d80dab299395fbe4a88b7535d61c83bd44f75ad7447a188b56c8a447f6a2c9c5f82d8b09b3b5dbc488ab5515f63ca39d64d77af7645a38ab76e88467d6c2a9a5984deb69d3d5bba4e8cb3575965cc3fd04b71a97043a58cb1688e407b6e28985b86dcb49f3f59b84c8eb1555b67ce3dd24973ab7241a78eb36a8c42796026965588d2ba913157b64280bf5b5569c033dc477da57c4fa980bd64824c77622494578ad0b8933355b44082bd59576bc231de457fa77e4dab82bf66804e75642292518cd6be953553b24684bb5f516dc437d84379a1784bad84b960864873662090538ed4bc973751b04486b95d536fc635da417ba37a49af86bb62844a71682e9e5d80dab299395fbe4a88b7535d6f0294cdede53eb5b4619c68d008f8f02eb788a7d25770207b0004edbb9c2522b02fd7509e1a79fa0f820fae2374646eb77bd6638c4512dfb0d726bb20a9ce887a29edf4368c1d8967b92920b797a4392ca2dc30581da58eb3a36f1465a0ee472002fc5b758e57fbd3d9d5c41d119bba377d28e3114086ab9b76199b7ce4517c2da2e6971214eb45f4514818d81abb02b861ea11010a4aebc33cf602e59914b27973699778f47d7896a647a041c1b056404e1b0fbdfcdaaec46aaa6d1293fe4ed6490cce800ba6605a511e2e89b0245cbe793425c023a9ed84621a12ae315f889a871b93ebbc91ff7a59504c199c60d76b59eb0a997223f3995c0d13f861eabb2483666ee7b0e328751f8dfb05f0b9947541e13fd6bfab5dae8085db2f311242cb0ef2f58982cfb9854f8faf94baa68a0ad8295be9ba9c7e80f3050ecbd7f356b0b8dc25a268d9a698e74460c8a5f6e27fe3b80b3ca27d000de5e0d7b9750dae91550cedf4475948f006499ccea5dd7b4f822fd8f39da8495650012a1ac9a6fb0042ce57520f319e47bf9740c30cf7c6c3d94140fdecaeb00d8c2a7e13174bc280a72c38ae8e6569eff0716657ba3a766f00f6d482c504df8b2349056ecfc61ebb4e7be92501d5d51558aec95454f844620cf037c48e2ea90ee0855a5569303938bd7616309195b2aacced8bb2b26b2c73d43be93e3be1a70a0126e5b27bee4d56abd7830ae9a7ac7be4a1d33f67612aa858d98dd00ae5c5fe6af2d4ef0a96a70f25d740e6b6e48c6ae43025a75d46a17fcfa1f7d0faaf28687252ea84570b98062a04f6744f16e9a9241ad4db86e58a3dd142c060dd5ec1b0bc1d2ed8be25e7c80c70e710c954e2cdd630e4a7e2f5e0e89a466d2cde83766ca6b028b80204c3ea5c86a263d0b21b1e596515e615ab7f64b0537f582416140cc14ac52a4e36ad34b862fc8d34609a795fce71968b38601b94a28655b6f0667c5f93254789e025aaba8a47e4c08d49c043d8ca0a2e241ff3ddebe5bba3862ce74efd7bc080a2c6a288ae3ce75360b1da2768820bf339b6212ff541ad9bfd3d6d4a51251866be1bc599097b678ace22aa8a947ee8c66d47e38ac2c8aafb3c1c0e958cd8909373920ebc664a7f1dc309d38174d1ba5c73bb08d5726a219e20a45b939799cdef36ad3c3b2e74f7b822e10db208ef02e2c917e974e9277487803172813cda58afa5c0d4d7923fb1f4306c165a52d2767bb597aa42469aaa9d801c085a06dfd346e591b8a9636925ec25e10ffe50cba137970758ec31e6778b52e5d0135957f021c9e3a90d7f671a2b14c974195a7de30429c485f1ff0d0e903b8dfcf4565fb0f42fd26dc1afdea02b30db39915fc7d1ff0d4df08492eaed76f062fa782788f7e5a978e10f1615bccf8e4aa71a900e66afc55d68788cb709a07c4754b52789f9a39c58522bb15e484838aeafe684dd2e9598d5e5ab7c67e77d0b283cfe1bade1197c0f7e768d4940cb035a033f6b7c755a1229621310773d6cc309f26f3e62c764c497e29a750e655a521d1df8e9df69587e76f8d75c0ce84ef3c055ca04694d6d12dea3d8f0aaeab7f5c00578f2dda3ac428525bf87f684c3fdd9d984683d0d4fce01f72d64139f41a88f0aef4094554162df90ee16cfbf50639e8b87b2767b9ffbf46d64ab46c5bbdf4487c990c9884202b8c615d89b22c29aa05d022df49cd03f2305d3c892bc8ce6af5a8b2a72e57631dfd38ee794c5093daf7d3ef913f0c3ae3253d9f70e22d70c5a0585056acae38f1dbbcb210028da49d6f558b46c9805a5c17a5a9fbea2020a0a4cb3053a40b760b3a4a8a78a46a743efff9bddcc1a1cf62ed8f4bbe74f4335d5a096a9ecc42c4ed7b758216645ff75d11d0912b850f5e4df52dab83e5072abb13906a51e4fe3c4fc01d70372243a8cfbae149c851d92cc7ef92f0d8cfc3d7358e2e2d27ea44fec634cc38a6d8d897b85fe9a88f9a497d4d546f2593e4442bce15af18c24465685bf4bc03e3aedf7937a788f7b1b8e7c12cd860499deea5d431672b58f63f59117de0f31762f894edc1413ad0ced12abeb03139039457995b101e60b5553110210ae0a6c00a95b1b0a3e4b15ada6a43ac5a2be25164c62c6427f2c872eb35c6de2f1d68e4ad51ddae94ebcc562361268ec214a6248c67b96f6ad09d4b1cbc473162dd35a5e745b5c27b82e88733db59b14c6f98b71dab8f40cd3a62bc217d0bf0732abae19345ff67fee4044469c6886d83e41d22537b27c2e15cbc44217b6c16b719f83e6344088094fb142d7f55bcaf6ce452ab58af7aecd3dea752761e482fe88f37abb0187df48d3501b0b3300bf03480d9ec00ef7facf7f810865658b042d07cc444b5fb45d9d22bce3ca3f4b752a8d3f3d0b50605f10472467bc4d6fce9d782597a7d8ac702058d353cc9e3d2fafa5839f05b06f6c6d1b3c4c73898e261981604e049884b3963290c707dcc9ea813263bc81721d440684b211c1a1e87b0c5c526a917b7ac7e8aa11e82c64ee227c1d0d9576b281a86a6b318c927f41258214826be9103acbe37ee57eabbbc82e20ef8d84a37ef13715f6d2cb28c76fbc52ca1caeb65b3b31250576583df9922017e23e98ac0f8ece30cba545fd59b016648fa3875b3076a309fca158852660165d16f184efbb019bd64b03bc17a00e9b4b9373bbb69ade0dd7d9a833249e75a03abb19e43074fb5b027256ce31cf42aba8252695911f82683ce2e12e8e4583f0fa47d2d32baa4c52cb6151f57abeaf695882c4f734414a0c63623a1b730e6867461caea43561f51fa9d1648cd9641a6c8ca2d716f5334ce5b7a7e02364486a146461f3e19eb9fde4cd252d769b9635c7e0c23b04fecbdc17f660b8872d9613760aff24f9fa229088b05a411bc20b67b53f44c8eb8b90aa086b2e2cf45e14b1bced25f508b802126a841edf7ea6036ae5e6498dc52b53a6681b19ec96fbd52f9064e27ebe069eef4b738244c7176cf88b81a08ffa0196ef037bc9103512e10bd1e802c6e87b26502731def550a8244fb89d0acddda7e032999c5ee0ebd68e8a2afbd6740cf1f725f9fe7e9beec5b6a98d31b4a88c306420c6fc1971f035c5d2f7514ec5136558821fa0f046f7099b6dbb88694ad4bd9551815c15148e9e55485d35f56d59e82159fc34ac70c59698c0602f864dd174a3b8a61d4bdfca17bcde3df6d00b9ae0fcdf8d21e936222c69c232eb303ff34f4c528ca608f9e395babefe101b70e4df95948efd4069da31bf3b32305e24ff49e9c6d23fb6bbdb37295de39c6d41efcda8899c647e8bd1e02e664b5c2a50621156bf0f1d7f90bbb4effa2f282c2fd0a865901161b212f353a8589b4c7e5fb091d2d35363f4d4e56636e8082a5b9bdcdd8e5eceef2faff0f142c3c677987a8aaadc2c5dae2e6f92022242f38444b7f8dbbbcd8e8eaf00000000000000000000000000d25354401fd210500a1b89a547a8aa80d605806620838edd8add1d0f14eafe91ccece014205596d7fc651de752c32bc874ffa869da3071eb5b377816f7b2476cee60d4b4c37994efba98b51cf2e2cc99368df68585dfb7db5c2e1986de170e64ed9580b70e44ee152a9af42df9604d121a08976fb40226cdf98b89c33359f9e574af8a8480a50cca83da1054c4351dac23b7f8908a89506749b1ede56593a77b0aecddf28ae37c634562037da8f34d6d2838aba05dd82b608d3e115b8228a0f8c208c51a372ebb192f4ecb6139d373bc5ef90374c7f5557b251baedcd06d8cdfaa02cbdc340ef50e72b4fdd8a617348d640d5250916de146549fc83301df13781f684a508f59ce1c8da7b19ff34285fe752c91b9f5dd734c11cf7ce0db2339e089df7ce722b399a59fbc84b6bf8640faba6b9d585942dccff8605e164fc133a792f66d6066698d48879cdf9a363854d1bf71e6ea2d129b2dc905feb5186b58ffa9ae3a80a63adcf2f3ad5e179d24a0b8eebebbb425d7299588f96bef149f164a8fb6e3da5d48757f4efd09f6e57c65b401727538d5685b4b3a266df71cf7d1107e982995aafbab0432cbd6f66f03ae0184ee23b3114615b1fefa0057b6acfe6b09dfa897b66f72cf369bfd64f89200a018a136febc2d71836cad683bd8927b28bc28345e8f807b79b4a7fc79d4ee3632e351ae096411b43a067cd2ac443e9982b3babc852dce9afd9fa7223d6c5fbd8a4447621e1c4a3f3e8c4c10ebc2ac99bb2620e3a647868a46a8e73075f72fdeb599adc4d54283b4671aa9d627b7885f6c2eb8c5efa2402fabd8548381eafcc538f51cde9128c7c3c877fa27c77439b6df945b218b9fc7f14fc0b13fcc9106b104b80e70a85c5ec3454b709cef5f8e98f9d7405897c65fecffb9adc9a25949d4835079841c7132405023f7105ea2270dbed1d54c686bae0a07827bc7557dc857be34a3077be1cee449b3b13258bd38a2fbd7643d4861d8cc589c425a9937c818382399cc74e934a9123a2573af1c7cfbb4f026d442e3b00a0c950437ba154d584a9da04da273023fe8153cede90e2e2e6cf0b61a48bdb207cef2aed2156845f278e749dd18b2df1e1b4f5a0b99e44ef7dabd0358a836db0e42f40d12974dcbf22ef55708b0eafb426cd4c0bfb97fe4705dae06ccc7817e197168ad8e91cd245746ac90b72001d7318a661b7411c706e6791ea0e2069ceee6f6bdd4979cf452f9e551a7eea13893cdaae7d9c1ce512d642253664ae81c972984fdf047fc7f8a99d49d2eb3684e0fb276f35e07fe73195d4edcfe1b0a6c24842b9a377e1170ffd07b741f10fdbd8adacc7efad6484f7c333e8f60ff1e3f3842b0f592b021ee7e4061126cccb7ee1d6a3dea9df5caed8c495384fa1edecf4a971355f98a61d40a87316e173d5253becee2ce9e804f957cb376731c468be63065fab0c0e92689ca8e3c1863e694f69a825b0757955c7dedf8f8ca41823c3ba51321160d687a8687b43e9002426409d9d89f6e8d9d349441cc83df982599b63d7d415f51be9fa555afc728b68ebdaa23a833d62f7ed2bbfa62a46a4764567b6add088f56600957bf6d5371dbbfcb71558fa341c8a84bccb21ea141c5b76fe2941132536de137dde16ba1d4340d069099f060d02cae0ac529d395bbc306936f574074502590a1f22cfe717c377898d04aa8d9f0aa6bfa742fdd76b835266e97359051ae67aeef70978400e38dca21388a169afcc9498abab87dc3d7c7cc25bee0bc03e997c4a91da0da3c4ac588374e2192ca27c9f2b9ba4b9225a79317b52357160740c536803842bc21b4b582dd6f0017b74f9c96e464c6c77da807a830067524c0680000000",
  "txid": "4676c7e9bbc1d6d85581b120182de9c2570cdbd225dba75619880665b558c1d9",
  "hash": "352262382203c40174fed39110e75d20241e2f7be65a0e8c38480833a1b1b12e",
  "size": 5085,
  "vsize": 2278,
  "version": 1,
  "locktime": 128,
  "vin": [
    {
      "txid": "351a4f13586c28c6823806b84baed9fe619adf27c6b72e3e516dcb7e43ee701f",
      "vout": 1,
      "scriptSig": {
        "asm": "",
        "hex": ""
      },
      "txinwitness": [
        "e1a79fa0f820fae2374646eb77bd6638c4512dfb0d726bb20a9ce887a29edf4368c1d8967b92920b797a4392ca2dc30581da58eb3a36f1465a0ee472002fc5b758e57fbd3d9d5c41d119bba377d28e3114086ab9b76199b7ce4517c2da2e6971214eb45f4514818d81abb02b861ea11010a4aebc33cf602e59914b27973699778f47d7896a647a041c1b056404e1b0fbdfcdaaec46aaa6d1293fe4ed6490cce800ba6605a511e2e89b0245cbe793425c023a9ed84621a12ae315f889a871b93ebbc91ff7a59504c199c60d76b59eb0a997223f3995c0d13f861eabb2483666ee7b0e328751f8dfb05f0b9947541e13fd6bfab5dae8085db2f311242cb0ef2f58982cfb9854f8faf94baa68a0ad8295be9ba9c7e80f3050ecbd7f356b0b8dc25a268d9a698e74460c8a5f6e27fe3b80b3ca27d000de5e0d7b9750dae91550cedf4475948f006499ccea5dd7b4f822fd8f39da8495650012a1ac9a6fb0042ce57520f319e47bf9740c30cf7c6c3d94140fdecaeb00d8c2a7e13174bc280a72c38ae8e6569eff0716657ba3a766f00f6d482c504df8b2349056ecfc61ebb4e7be92501d5d51558aec95454f844620cf037c48e2ea90ee0855a5569303938bd7616309195b2aacced8bb2b26b2c73d43be93e3be1a70a0126e5b27bee4d56abd7830ae9a7ac7be4a1d33f67612aa858d98dd00ae5c5fe6af2d4ef0a96a70f25d740e6b6e48c6ae43025a75d46a17fcfa1f7d0faaf28687252ea84570b98062a04f6744f16e9a9241ad4db86e58a3dd142c060dd5ec1b0bc1d2ed8be25e7c80c70e710c954e2cdd630e4a7e2f5e0e89a466d2cde83766ca6b028b80204c3ea5c86a263d0b21b1e596515e615ab7f64b0537f582416140cc14ac52a4e36ad34b862fc8d34609a795fce71968b38601b94a28655b6f0667c5f93254789e025aaba8a47e4c08d49c043d8ca0a2e241ff3ddebe5bba3862ce74efd7bc080a2c6a288ae3ce75360b1da2768820bf339b6212ff541ad9bfd3d6d4a51251866be1bc599097b678ace22aa8a947ee8c66d47e38ac2c8aafb3c1c0e958cd8909373920ebc664a7f1dc309d38174d1ba5c73bb08d5726a219e20a45b939799cdef36ad3c3b2e74f7b822e10db208ef02e2c917e974e9277487803172813cda58afa5c0d4d7923fb1f4306c165a52d2767bb597aa42469aaa9d801c085a06dfd346e591b8a9636925ec25e10ffe50cba137970758ec31e6778b52e5d0135957f021c9e3a90d7f671a2b14c974195a7de30429c485f1ff0d0e903b8dfcf4565fb0f42fd26dc1afdea02b30db39915fc7d1ff0d4df08492eaed76f062fa782788f7e5a978e10f1615bccf8e4aa71a900e66afc55d68788cb709a07c4754b52789f9a39c58522bb15e484838aeafe684dd2e9598d5e5ab7c67e77d0b283cfe1bade1197c0f7e768d4940cb035a033f6b7c755a1229621310773d6cc309f26f3e62c764c497e29a750e655a521d1df8e9df69587e76f8d75c0ce84ef3c055ca04694d6d12dea3d8f0aaeab7f5c00578f2dda3ac428525bf87f684c3fdd9d984683d0d4fce01f72d64139f41a88f0aef4094554162df90ee16cfbf50639e8b87b2767b9ffbf46d64ab46c5bbdf4487c990c9884202b8c615d89b22c29aa05d022df49cd03f2305d3c892bc8ce6af5a8b2a72e57631dfd38ee794c5093daf7d3ef913f0c3ae3253d9f70e22d70c5a0585056acae38f1dbbcb210028da49d6f558b46c9805a5c17a5a9fbea2020a0a4cb3053a40b760b3a4a8a78a46a743efff9bddcc1a1cf62ed8f4bbe74f4335d5a096a9ecc42c4ed7b758216645ff75d11d0912b850f5e4df52dab83e5072abb13906a51e4fe3c4fc01d70372243a8cfbae149c851d92cc7ef92f0d8cfc3d7358e2e2d27ea44fec634cc38a6d8d897b85fe9a88f9a497d4d546f2593e4442bce15af18c24465685bf4bc03e3aedf7937a788f7b1b8e7c12cd860499deea5d431672b58f63f59117de0f31762f894edc1413ad0ced12abeb03139039457995b101e60b5553110210ae0a6c00a95b1b0a3e4b15ada6a43ac5a2be25164c62c6427f2c872eb35c6de2f1d68e4ad51ddae94ebcc562361268ec214a6248c67b96f6ad09d4b1cbc473162dd35a5e745b5c27b82e88733db59b14c6f98b71dab8f40cd3a62bc217d0bf0732abae19345ff67fee4044469c6886d83e41d22537b27c2e15cbc44217b6c16b719f83e6344088094fb142d7f55bcaf6ce452ab58af7aecd3dea752761e482fe88f37abb0187df48d3501b0b3300bf03480d9ec00ef7facf7f810865658b042d07cc444b5fb45d9d22bce3ca3f4b752a8d3f3d0b50605f10472467bc4d6fce9d782597a7d8ac702058d353cc9e3d2fafa5839f05b06f6c6d1b3c4c73898e261981604e049884b3963290c707dcc9ea813263bc81721d440684b211c1a1e87b0c5c526a917b7ac7e8aa11e82c64ee227c1d0d9576b281a86a6b318c927f41258214826be9103acbe37ee57eabbbc82e20ef8d84a37ef13715f6d2cb28c76fbc52ca1caeb65b3b31250576583df9922017e23e98ac0f8ece30cba545fd59b016648fa3875b3076a309fca158852660165d16f184efbb019bd64b03bc17a00e9b4b9373bbb69ade0dd7d9a833249e75a03abb19e43074fb5b027256ce31cf42aba8252695911f82683ce2e12e8e4583f0fa47d2d32baa4c52cb6151f57abeaf695882c4f734414a0c63623a1b730e6867461caea43561f51fa9d1648cd9641a6c8ca2d716f5334ce5b7a7e02364486a146461f3e19eb9fde4cd252d769b9635c7e0c23b04fecbdc17f660b8872d9613760aff24f9fa229088b05a411bc20b67b53f44c8eb8b90aa086b2e2cf45e14b1bced25f508b802126a841edf7ea6036ae5e6498dc52b53a6681b19ec96fbd52f9064e27ebe069eef4b738244c7176cf88b81a08ffa0196ef037bc9103512e10bd1e802c6e87b26502731def550a8244fb89d0acddda7e032999c5ee0ebd68e8a2afbd6740cf1f725f9fe7e9beec5b6a98d31b4a88c306420c6fc1971f035c5d2f7514ec5136558821fa0f046f7099b6dbb88694ad4bd9551815c15148e9e55485d35f56d59e82159fc34ac70c59698c0602f864dd174a3b8a61d4bdfca17bcde3df6d00b9ae0fcdf8d21e936222c69c232eb303ff34f4c528ca608f9e395babefe101b70e4df95948efd4069da31bf3b32305e24ff49e9c6d23fb6bbdb37295de39c6d41efcda8899c647e8bd1e02e664b5c2a50621156bf0f1d7f90bbb4effa2f282c2fd0a865901161b212f353a8589b4c7e5fb091d2d35363f4d4e56636e8082a5b9bdcdd8e5eceef2faff0f142c3c677987a8aaadc2c5dae2e6f92022242f38444b7f8dbbbcd8e8eaf00000000000000000000000000d25354401",
        "00a1b89a547a8aa80d605806620838edd8add1d0f14eafe91ccece014205596d7fc651de752c32bc874ffa869da3071eb5b377816f7b2476cee60d4b4c37994efba98b51cf2e2cc99368df68585dfb7db5c2e1986de170e64ed9580b70e44ee152a9af42df9604d121a08976fb40226cdf98b89c33359f9e574af8a8480a50cca83da1054c4351dac23b7f8908a89506749b1ede56593a77b0aecddf28ae37c634562037da8f34d6d2838aba05dd82b608d3e115b8228a0f8c208c51a372ebb192f4ecb6139d373bc5ef90374c7f5557b251baedcd06d8cdfaa02cbdc340ef50e72b4fdd8a617348d640d5250916de146549fc83301df13781f684a508f59ce1c8da7b19ff34285fe752c91b9f5dd734c11cf7ce0db2339e089df7ce722b399a59fbc84b6bf8640faba6b9d585942dccff8605e164fc133a792f66d6066698d48879cdf9a363854d1bf71e6ea2d129b2dc905feb5186b58ffa9ae3a80a63adcf2f3ad5e179d24a0b8eebebbb425d7299588f96bef149f164a8fb6e3da5d48757f4efd09f6e57c65b401727538d5685b4b3a266df71cf7d1107e982995aafbab0432cbd6f66f03ae0184ee23b3114615b1fefa0057b6acfe6b09dfa897b66f72cf369bfd64f89200a018a136febc2d71836cad683bd8927b28bc28345e8f807b79b4a7fc79d4ee3632e351ae096411b43a067cd2ac443e9982b3babc852dce9afd9fa7223d6c5fbd8a4447621e1c4a3f3e8c4c10ebc2ac99bb2620e3a647868a46a8e73075f72fdeb599adc4d54283b4671aa9d627b7885f6c2eb8c5efa2402fabd8548381eafcc538f51cde9128c7c3c877fa27c77439b6df945b218b9fc7f14fc0b13fcc9106b104b80e70a85c5ec3454b709cef5f8e98f9d7405897c65fecffb9adc9a25949d4835079841c7132405023f7105ea2270dbed1d54c686bae0a07827bc7557dc857be34a3077be1cee449b3b13258bd38a2fbd7643d4861d8cc589c425a9937c818382399cc74e934a9123a2573af1c7cfbb4f026d442e3b00a0c950437ba154d584a9da04da273023fe8153cede90e2e2e6cf0b61a48bdb207cef2aed2156845f278e749dd18b2df1e1b4f5a0b99e44ef7dabd0358a836db0e42f40d12974dcbf22ef55708b0eafb426cd4c0bfb97fe4705dae06ccc7817e197168ad8e91cd245746ac90b72001d7318a661b7411c706e6791ea0e2069ceee6f6bdd4979cf452f9e551a7eea13893cdaae7d9c1ce512d642253664ae81c972984fdf047fc7f8a99d49d2eb3684e0fb276f35e07fe73195d4edcfe1b0a6c24842b9a377e1170ffd07b741f10fdbd8adacc7efad6484f7c333e8f60ff1e3f3842b0f592b021ee7e4061126cccb7ee1d6a3dea9df5caed8c495384fa1edecf4a971355f98a61d40a87316e173d5253becee2ce9e804f957cb376731c468be63065fab0c0e92689ca8e3c1863e694f69a825b0757955c7dedf8f8ca41823c3ba51321160d687a8687b43e9002426409d9d89f6e8d9d349441cc83df982599b63d7d415f51be9fa555afc728b68ebdaa23a833d62f7ed2bbfa62a46a4764567b6add088f56600957bf6d5371dbbfcb71558fa341c8a84bccb21ea141c5b76fe2941132536de137dde16ba1d4340d069099f060d02cae0ac529d395bbc306936f574074502590a1f22cfe717c377898d04aa8d9f0aa6bfa742fdd76b835266e97359051ae67aeef70978400e38dca21388a169afcc9498abab87dc3d7c7cc25bee0bc03e997c4a91da0da3c4ac588374e2192ca27c9f2b9ba4b9225a79317b52357160740c536803842bc21b4b582dd6f0017b74f9c96e464c6c77da807a830067524c06"
      ],
      "sequence": 4294967294
    }
  ],
  "vout": [
    {
      "value": 499969.493,
      "n": 0,
      "scriptPubKey": {
        "asm": "1 5d81a6ac51673253c26eb1a5985ba2ef8b72353f4e50c231adbc3c78dacadf81",
        "hex": "51205d81a6ac51673253c26eb1a5985ba2ef8b72353f4e50c231adbc3c78dacadf81",
        "reqSigs": 1,
        "type": "witness_v1_scripthash",
        "addresses": [
          "3QJmnh"
        ]
      }
    },
    {
      "value": 1.0,
      "n": 1,
      "scriptPubKey": {
        "asm": "OP_RETURN 2368345e6ea3f38907ee0a7d2242a4787ac5d4bb363b1b78a40a182d25a43c06 026965588d2ba913157b64280bf5b5569c033dc477da57c4fa980bd64824c77622494578ad0b8933355b44082bd59576bc231de457fa77e4dab82bf66804e75642292518cd6be953553b24684bb5f516dc437d84379a1784bad84b960864873662090538ed4bc973751b04486b95d536fc635da417ba37a49af86bb62844a71682e9e5d80dab299395fbe4a88b7535d61c83bd44f75ad7447a188b56c8a447f6a2c9c5f82d8b09b3b5dbc488ab5515f63ca39d64d77af7645a38ab76e88467d6c2a9a5984deb69d3d5bba4e8cb3575965cc3fd04b71a97043a58cb1688e407b6e28985b86dcb49f3f59b84c8eb1555b67ce3dd24973ab7241a78eb36a8c42796026965588d2ba913157b64280bf5b5569c033dc477da57c4fa980bd64824c77622494578ad0b8933355b44082bd59576bc231de457fa77e4dab82bf66804e75642292518cd6be953553b24684bb5f516dc437d84379a1784bad84b960864873662090538ed4bc973751b04486b95d536fc635da417ba37a49af86bb62844a71682e9e5d80dab299395fbe4a88b7535d61c83bd44f75ad7447a188b56c8a447f6a2c9c5f82d8b09b3b5dbc488ab5515f63ca39d64d77af7645a38ab76e88467d6c2a9a5984deb69d3d5bba4e8cb3575965cc3fd04b71a97043a58cb1688e407b6e28985b86dcb49f3f59b84c8eb1555b67ce3dd24973ab7241a78eb36a8c42796026965588d2ba913157b64280bf5b5569c033dc477da57c4fa980bd64824c77622494578ad0b8933355b44082bd59576bc231de457fa77e4dab82bf66804e75642292518cd6be953553b24684bb5f516dc437d84379a1784bad84b960864873662090538ed4bc973751b04486b95d536fc635da417ba37a49af86bb62844a71682e9e5d80dab299395fbe4a88b7535d61c83bd44f75ad7447a188b56c8a447f6a2c9c5f82d8b09b3b5dbc488ab5515f63ca39d64d77af7645a38ab76e88467d6c2a9a5984deb69d3d5bba4e8cb3575965cc3fd04b71a97043a58cb1688e407b6e28985b86dcb49f3f59b84c8eb1555b67ce3dd24973ab7241a78eb36a8c42796026965588d2ba913157b64280bf5b5569c033dc477da57c4fa980bd64824c77622494578ad0b8933355b44082bd59576bc231de457fa77e4dab82bf66804e75642292518cd6be953553b24684bb5f516dc437d84379a1784bad84b960864873662090538ed4bc973751b04486b95d536fc635da417ba37a49af86bb62844a71682e9e5d80dab299395fbe4a88b7535d61c83bd44f75ad7447a188b56c8a447f6a2c9c5f82d8b09b3b5dbc488ab5515f63ca39d64d77af7645a38ab76e88467d6c2a9a5984deb69d3d5bba4e8cb3575965cc3fd04b71a97043a58cb1688e407b6e28985b86dcb49f3f59b84c8eb1555b67ce3dd24973ab7241a78eb36a8c42796026965588d2ba913157b64280bf5b5569c033dc477da57c4fa980bd64824c77622494578ad0b8933355b44082bd59576bc231de457fa77e4dab82bf66804e75642292518cd6be953553b24684bb5f516dc437d84379a1784bad84b960864873662090538ed4bc973751b04486b95d536fc635da417ba37a49af86bb62844a71682e9e5d80dab299395fbe4a88b7535d6f0294cdede53eb5b4619c68d008f8f02eb788a7d25770207b0004edbb9c2522b",
        "hex": "6a202368345e6ea3f38907ee0a7d2242a4787ac5d4bb363b1b78a40a182d25a43c064db004026965588d2ba913157b64280bf5b5569c033dc477da57c4fa980bd64824c77622494578ad0b8933355b44082bd59576bc231de457fa77e4dab82bf66804e75642292518cd6be953553b24684bb5f516dc437d84379a1784bad84b960864873662090538ed4bc973751b04486b95d536fc635da417ba37a49af86bb62844a71682e9e5d80dab299395fbe4a88b7535d61c83bd44f75ad7447a188b56c8a447f6a2c9c5f82d8b09b3b5dbc488ab5515f63ca39d64d77af7645a38ab76e88467d6c2a9a5984deb69d3d5bba4e8cb3575965cc3fd04b71a97043a58cb1688e407b6e28985b86dcb49f3f59b84c8eb1555b67ce3dd24973ab7241a78eb36a8c42796026965588d2ba913157b64280bf5b5569c033dc477da57c4fa980bd64824c77622494578ad0b8933355b44082bd59576bc231de457fa77e4dab82bf66804e75642292518cd6be953553b24684bb5f516dc437d84379a1784bad84b960864873662090538ed4bc973751b04486b95d536fc635da417ba37a49af86bb62844a71682e9e5d80dab299395fbe4a88b7535d61c83bd44f75ad7447a188b56c8a447f6a2c9c5f82d8b09b3b5dbc488ab5515f63ca39d64d77af7645a38ab76e88467d6c2a9a5984deb69d3d5bba4e8cb3575965cc3fd04b71a97043a58cb1688e407b6e28985b86dcb49f3f59b84c8eb1555b67ce3dd24973ab7241a78eb36a8c42796026965588d2ba913157b64280bf5b5569c033dc477da57c4fa980bd64824c77622494578ad0b8933355b44082bd59576bc231de457fa77e4dab82bf66804e75642292518cd6be953553b24684bb5f516dc437d84379a1784bad84b960864873662090538ed4bc973751b04486b95d536fc635da417ba37a49af86bb62844a71682e9e5d80dab299395fbe4a88b7535d61c83bd44f75ad7447a188b56c8a447f6a2c9c5f82d8b09b3b5dbc488ab5515f63ca39d64d77af7645a38ab76e88467d6c2a9a5984deb69d3d5bba4e8cb3575965cc3fd04b71a97043a58cb1688e407b6e28985b86dcb49f3f59b84c8eb1555b67ce3dd24973ab7241a78eb36a8c42796026965588d2ba913157b64280bf5b5569c033dc477da57c4fa980bd64824c77622494578ad0b8933355b44082bd59576bc231de457fa77e4dab82bf66804e75642292518cd6be953553b24684bb5f516dc437d84379a1784bad84b960864873662090538ed4bc973751b04486b95d536fc635da417ba37a49af86bb62844a71682e9e5d80dab299395fbe4a88b7535d61c83bd44f75ad7447a188b56c8a447f6a2c9c5f82d8b09b3b5dbc488ab5515f63ca39d64d77af7645a38ab76e88467d6c2a9a5984deb69d3d5bba4e8cb3575965cc3fd04b71a97043a58cb1688e407b6e28985b86dcb49f3f59b84c8eb1555b67ce3dd24973ab7241a78eb36a8c42796026965588d2ba913157b64280bf5b5569c033dc477da57c4fa980bd64824c77622494578ad0b8933355b44082bd59576bc231de457fa77e4dab82bf66804e75642292518cd6be953553b24684bb5f516dc437d84379a1784bad84b960864873662090538ed4bc973751b04486b95d536fc635da417ba37a49af86bb62844a71682e9e5d80dab299395fbe4a88b7535d6f0294cdede53eb5b4619c68d008f8f02eb788a7d25770207b0004edbb9c2522b",
        "type": "nulldata"
      }
    }
  ],
  "blockhash": "f0ff1fbaae405cadeb51abb379c93a956cf666ff613992ee95c2f945c1780bd2",
  "confirmations": 1,
  "time": 1764181685,
  "blocktime": 1764181685
}