{
  "hex": "010000000001011aadb5ab1bb08fcf02cf0e67c871f196095f2f62ec92a5a3ad62c007e2f222dd0100000000feffffff0200e1f50500000000fdd5046a20678dcdfe62dce3257e450a375414113958fe8c76e8a0c1ba68a0d1684464143b4db004063d57ce6e12c5821822923acdaff5aed1c7501e63542d21427abbf2ab1a2131261d77ee4e32e5a23802b21aed8fd58ef1e7703e43740d01625a9bd28b3a0111467d178e2e5285c25862d27a8defb5ee9187105e23146d61023afbb2eb5a6171665d37ae0e72a5e27842f25aadcf95ceb1a7307e03344d41221adb92cb7a415186bdd74eee92450298a212ba4d2f752e5147d09ee3d4ada1c2fa3b722b9aa1b1a69df76eceb26522b882329a6d0f550e7167f0bec3f48d81e2da1b520bba8191c6fd970eaed20542d8e252fa0d6f356e110790dea394ede182ba7b326bdae1f1e6ddb72e8ef22562f8c272da2d4f154e3127b0fe83b4cdc1a29a5b124bfac1d1063d57ce6e12c5821822923acdaff5aed1c7501e63542d21427abbf2ab1a2131261d77ee4e32e5a23802b21aed8fd58ef1e7703e43740d01625a9bd28b3a0111467d178e2e5285c25862d27a8defb5ee9187105e23146d61023afbb2eb5a6171665d37ae0e72a5e27842f25aadcf95ceb1a7307e03344d41221adb92cb7a415186bdd74eee92450298a212ba4d2f752e5147d09ee3d4ada1c2fa3b722b9aa1b1a69df76eceb26522b882329a6d0f550e7167f0bec3f48d81e2da1b520bba8191c6fd970eaed20542d8e252fa0d6f356e110790dea394ede182ba7b326bdae1f1e6ddb72e8ef22562f8c272da2d4f154e3127b0fe83b4cdc1a29a5b124bfac1d1063d57ce6e12c5821822923acdaff5aed1c7501e63542d21427abbf2ab1a2131261d77ee4e32e5a23802b21aed8fd58ef1e7703e43740d01625a9bd28b3a0111467d178e2e5285c25862d27a8defb5ee9187105e23146d61023afbb2eb5a6171665d37ae0e72a5e27842f25aadcf95ceb1a7307e03344d41221adb92cb7a415186bdd74eee92450298a212ba4d2f752e5147d09ee3d4ada1c2fa3b722b9aa1b1a69df76eceb26522b882329a6d0f550e7167f0bec3f48d81e2da1b520bba8191c6fd970eaed20542d8e252fa0d6f356e110790dea394ede182ba7b326bdae1f1e6ddb72e8ef22562f8c272da2d4f154e3127b0fe83b4cdc1a29a5b124bfac1d1063d57ce6e12c5821822923acdaff5aed1c7501e63542d21427abbf2ab1a2131261d77ee4e32e5a23802b21aed8fd58ef1e7703e43740d01625a9bd28b3a0111467d178e2e5285c25862d27a8defb5ee9187105e23146d61023afbb2eb5a6171665d37ae0e72a5e27842f25aadcf95ceb1a7307e03344d41221adb92cb7a415186bdd74eee92450298a212ba4d2f752e5147d09ee3d4ada1c2fa3b722b9aa1b1a69df76eceb26522b882329a6d0f550e7167f0bec3f48d81e2da1b520bba8191c6fd970eaed20542d8e252fa0d6f356e110790dea394ede182ba7b326bdae1f1e6ddb72e8ef22562f8c272da2d4f154e3127b0fe83b4cdc1a29a5b124bfac1d1063d57ce6e12c5821822923acdaff5aed1c7501e63542d21427abbf2ab1a2131261d77ee4e32e5a23802b21aed8fd58ef1e7703e43740d01625a9bd28b3a0111467d178e2e5285c25862d27a8defb5ee9187105e23146d61023afbb2eb5a6171665d37ae0e72a5e27842f25aadcf95ceb1a7307e03344d41221adb92cb7a415186bdd74eee92450298a212ba4d2f752e2d15754a44363441e90eaf80c4d9991b215df75071e54e48ee90bb07578fd9828079ca95782d0000225120c3c25803b45c3740af8951dbf951888432ff6f4ae4e0558a32f53fad4a47b51502fd75090f68fefb2f4d1d6ae8a6f247a79e60012d91b73ad3159905740dbc300deecae3ee130d81663ef796b40372927986fa0c0f77b8f778c70cd731a2e21a0d4f486d4a79f67d0571bf7b832d50f95cabdb7798ff6b0179a0ffdf32de074b417afd3590c4c77aee1e48b9469e0a0395eefd96faca5b40f21690e0f7b006f75b2977763abca870d950bc3cc4d6d57c6fbd9e46c134b4e31c155fdaa6d606792a15d7f8b30149659d9f32d06ba127eacdf71d034fd37707787dd4eea779fd14bbba6f355ace9f6f0321a70102645332ebd2a6840c946efda89ee83317f3d647c6db3938faed52be29535c8a3b603fc7d779ddd8dfeba523fc96ee30189e08658924870d951a20ebdeb8b6770908f5d7ec1e916b026d577f51939299f0dd982c2cb0a20ce9b5ffca5029b231359baaa435f51a6cc4fb5c1519263dabb4eab9ec6b29c396bd7f185323f54ef1a728b0ea9e8b82600c0e3647d52b806e342ce1a55d2e6f8aad50b6102cf3ecc0263118209c4c1d0be35735d11071b9d8711150327b7886606a8248e3711eed8492d37a0d4cf3552fd756623b45b4d2654da463595f470d0dbbc7cfcc17304bdc1af5ad026d89542429996b9674c5066273b1a0c05d1db03c87389b793df2bacfa1ddc16c13bbe54a62ff9c98c7f4c24ca43a2db40d3a3e330342b6bd1e752994b8c975d1ce447d73bf0faec793ad333543ea729715e6a1544ff38848caa170a1a6184a0cec8a1ccd0614210fbc33a9b82c124ffa1e18f5d7ce71a93e8f9f4d530d175e0c4948c78d68ce825e24c7c15577cfc14bc6012748bb41a6b74713e4feb0a21652c69fb7dbc02d34101b76038d3aa6c7aec7fca6b48aa9955f85d661f04a61c695b7de766350ac9ee1bf6eb62074c318189bd490974845953be4be1402499b8dbe4aae34e7384fe951191cbbff507a21f00758fa4e29a7c295ab5aedf2c7a9eef808b53d6a7474ce3fae68c2a8ef472228edc6c69accf89d01514419d6372def97fdd1ad0cc2af92c0a47e0b473a3c41217e53405995a8e243a0ea988233b7695a991317474f84a113768cd32ec444163921fef8286a9b0695e3d35f76c4936a7f5561ba34b32490a17b0a50dfb94525e88ed4fa796f872e69347ec2638e152167333dea4a755e2391db841d439df722984e65c49859f2a4aa6f1cae009df43ef880ee32a3e4155f02b59d1bcc2b8c5c38d2ddb65ddba74316eaefc30755fb3e421451f39094ca0affae99529e69f1f6fabcf8f107f303cdcb585c356c1beef459c83d8ddd4d125a7381e84eefebaf2e0cfb5af2d519060057a15321e9bd755007232a0e4668b2726b2077b8bbff65e7f48760969816b3ec1328d3658ef242c5f8123602da5e69ea35986c6149312d5250b4fa70943bbf39cbf946427ed87f0e4da9c11ded1242c00b251e69972bdafc1dbe3f39f1f39ee3bd7b26fff4b043b491e14efa6ddb439dd6ff3cb0f1add1ff889604cef1d4bb41f5a4b3dc97fa7f9b023a09cf526a80f3e46721dfcce4e43c4986101de0a17e4589fc907558acd3ac5571f8a74dfb9d1214f629b62daeb8127edebfdc5dfdb00ac8af3e9d3721eef1e66b066091f2346e07b8742fe4873e09cd77dd60a10af01304648a71b28290207a2485794002b06b797fc20693580b61ccac7513a01d530854812fd7ea6d11f24eec19f44fa743966c12f1fa6c4c2dbdba9d7fecf4a3444b58f76a2df20426c92740db462876f716beb49ec646154b9010196ac7b91716aba6020d9b07f6fee7e38b851d54f69f9fa3724428469275dd284cd9fbb535763cee6334e59cf0b7aa834416e4ef906b11fb74d0569f45b8e283ccb02580ec0ae3e9fc6c153a874f15a53cc1c43d62c5c4f0324b641dfa9a65a8a17f51371f8e1d370728d5ed69c7532456cf8410be1291e9b0e8b1116b7d00f3453625f4d0ceba7fc9163d9e910fd9fe1bed2f771678dfc5a33a64eeb51038e21fdd48b6cfdf9d9fb250cef4065beaa291e8788967c03c9ca603b862860f53db72c28ab27869ebd8e82351ff292df95209d2d49282fde1d06a8e6576191ce6ae16af96c8073c39ccbc213981a1ed11232bf6d75d01fd44b83eac9a292b1a0734749efd40b9415a65f8606f11a25606b95143e1f621bbfa692eb7660630969eaea972aa6190ee81448b0bf2b8f36f5c32e1ecbc56dbd9ae3a51f7bc4fee835a392bdb86fe9263e5d730334b30d3b0d2c2dfd74b29016dbc74933be5141cae457af406d6c26dd3a864c0cd16bee6741a13e78f6f759d2f4f3f92d001e053599ddd89e612d2574c35b8325efe70f210db0f4d0cd86899f859732759e0328d72f08604c9025016234521919e38537b48acaca7c25665341e94a1532d0b94e502cdc06e07ba9f860d8319a2eaac74f0bc74b1b40a657687b09a8f2b1f79dc742409a1e58768509ec78fd2a8ae9ce54fb3648bb4bbbe4d17d43146783e9701ebad2ac599504fbdf9846e5a7c9a0a55dfc844943c322553cce5c30578035217778d04ea7f0303cacd79eaf93035cb28b066ba04ae0072a9219e1f777590621d84aee66906591443332ca7f321f2541a655b98617c339b58681522cce064a68c607de0c194543778f281326fb3886dbba7da6df30ba1ec9f2a361a0982876935196a74f9df18f9c026ee83b7511cc43655fb3eb16605ea239f6d3b69b55bbb809795869801f1893137324c5a6d3bc6344b590208676f4d3a54387dcf28bceb1241d352767502b4100bc58a20f7dc3a2b2dce054b7036f5128682a517edb235aa690fddc5d4d20792adcac7e48aa773c66b9070d2044f163999e3f89d5e11ae409e14f8fe0285a48e1c4a6eb5bb5f17ec1765c82ba1c3410a6afb88762ad468114add8222b655b0f8c71da26a8323edabcd461bbd431aab03b4f7d7000d94cbcc3f944b2b86888ea5876f74b7f65edf2ca1410394130e67128c7bcaf0b52e4346e9e850b74931aaa52e28f7225ac86558c959a102fbee5f588a55a7af68c9a435ff39b92953321cd3b0f15e9ab18a2a760aff4c2da95a691b2c4c37c5e229fcd05df770c5bf3f45f3e3318456d73b803322536136b1702e8df4ad1056d93a51188f723f702aabc65fedd7420c1829d2faa8a8307fa5ec6dadfc0e33133a2ec2a2cefd2cdb34782ba67d2070da68c34df3c5fd45d1eb26aa9a99d85154c2df136c1dbcfa3be6840eaf75ca012181292c626fe3756128f533288da5c619ca483c22fd6fcb500b5381933bcdaa66e3d9ffa8bcdb2466d8726d152a6a5fc6bf337f133ef46493a7c984f400080b0c10134d5b5d767a8aa3a4c5cfd0d1d5fe0d15222b374c525d61637aa9bfd8eefd2728292d327c8bc2ccd2dee8f919393e4c4f9fa0a7afdae4eaf30000000000000000000000000000000000001424313e01fd2105003a8c8686fc6b55d31fe8845a5ffb0ea4a19978bc1566316963e5323c4093efd0f12ab66fc952cfe5472ada55ddf690c114197927f25c91e9e2fcc26800611356b1303c79f4eef0a64bbd1677adbfa1fc38aedbd634b4ab05a2b18de9b3ad73ab9bd054728861ae197eae1c057b0703596343180b2d3d6d754ae72214377059be70335687bf0f5bb99ddf620de48817cecd9ff45579363d7b43a0413b4610cc0a7f78befaff6ada3be1ad3932cc821f7916c69beb4ae7751846f8e351314f3234349600b14cf3b469a08b05c1c3a066b1d6502f027cf9c76121087e3a3473c214cd57fcd24e9d12fe0572eae19095d38c19510bfae35a84479038354b67565dcf33d59dbe506c35d328d3025bd48eac55d2efb012e204f52824536e82566a4eca1a2653a5b7dbec37cba7dbe2ea7830e0a76ffd64117422069bb0109ed18dc7b6f284e859c66d371c225a99069b9d68d0fee2f68e4648092fcb1f80c312bae11631f6c3c025581374b65365ec3f609680ebc3b57539b445c73011498cf79cc967fec1b9d1423282f6caa68dfeca468408ab95aec40ed64a50afcfc0806c835b18f370983c02b31127494fa1e09f5a279818cdeacb6519cc4ecab2da2323e90e29bd4ee559033a3d3c5fb67afd03bc683f272ad161e3b001c66307bc5202ad2644aaa09c6f21c39b1080aef2610649e9b071e19ceb7fd56cd7257f26beda0bf8a2f8b3e6f2e1b55c0b8ec46ebeaa09fdf683462b39d5cdbfb631a0c57537832a1d4fa430dfc07e0bad8f18fb9b11715a82254aaeb9257d96b22bc300a3f6bb4c78eafd50a065f6f2347f0afe4b714a631f0d5e4c184ae49d2f51e7797b0a9bb11dac8ffd7a4e7cd16aeba162475a1403aa7647c07f87ebb00211d9d3beaa3620a92c3e3b791c35732a7bd898f84e221fa0dea0af11755f987d426246f5bc2f3165a7968f8ebe29e6108165d8a7a1c0d777e512fa91e417d9c1c05c0beb0d33e17b6082616fa7b9c878a8dc35e90a210382b654161d626e17ba0b58d5424894c861784a4315f81dbf6522d0f2e6bb0fa207c991523408da9a11a9ca73022db28137d6a0fba8e1a92090345c7026ce4180c05e1087463d46bc4f3fa6cd81c52edebae5c544a9dd1c5e19ed1e44fa8bfee842e62a7dce80bfae8e42ddea7984359681af7e660ba360bf9f57cc2d02bef4b75db0070dcab532bcd0407c009dac646110f9a8b9b833f102f15d6535161adebdd595682ff50dabe96583a769de19a8ac2276b0793ef9158163907262dbd19fbe7ea0cdb0bc220ca784bb69ee297efc4009aff9ac03a02b058ef0124fb698f08213def16a118767185e80de8b7a9b2f78190a03d2295c5f11d80e7ef66eb7fa506916bf88d953890f19f3f9c39ad0cb8820a363460f3d4fdd883410aa5873237d4a73cefe2e83c50d5ec46436a0c506261bb2eef57d6d500ae57e70818aa15ef34ff63457b15320d6c41c61ef40468751a555749e586b09e7ca7a200d84e9e9d5fa5fc1622c3604c5dd4782e6aafb3aedeff50cd3f096fc77ce82497a9db3dca7c2840a07a72f50cb8933a06a68954ea0ea89b2fa14b7c85a1f53df38484b5ecbe2ab5fd120b2e5573ebfac90cc826dd772414a0d2d5321de46f2f35af5f530c45c740d0c921cd3ef919080067a37a880415c608d1f34f232fcfee1e56d5d6429a6a857a4b07a21cf9fa72ac02a236fb23115107a7ecf91d47d325fa111d3471032195499393ad270bc040346297bea5b16778bac3957e4568eae6f84985d98e1f1247e0947f10a8e1071fba25be120cb1f0055389f408e1469354da433df90e0407b08e057e5a2b96a55249d4d4e9249fb8a000000",
  "txid": "4faf7dce009fa9f18f65982e63b7a5358016d8b82da930463490bbf1fbb689ef",
  "hash": "5db610c7499e3fdd1c735219b4e5775515f66e7db44cb2d3fef34ef05121aaf4",
  "size": 5085,
  "vsize": 2278,
  "version": 1,
  "locktime": 138,
  "vin": [
    {
      "txid": "dd22f2e207c062ada3a592ec622f5f0996f171c8670ecf02cf8fb01babb5ad1a",
      "vout": 1,
      "scriptSig": {
        "asm": "",
        "hex": ""
      },
      "txinwitness": [
        "0f68fefb2f4d1d6ae8a6f247a79e60012d91b73ad3159905740dbc300deecae3ee130d81663ef796b40372927986fa0c0f77b8f778c70cd731a2e21a0d4f486d4a79f67d0571bf7b832d50f95cabdb7798ff6b0179a0ffdf32de074b417afd3590c4c77aee1e48b9469e0a0395eefd96faca5b40f21690e0f7b006f75b2977763abca870d950bc3cc4d6d57c6fbd9e46c134b4e31c155fdaa6d606792a15d7f8b30149659d9f32d06ba127eacdf71d034fd37707787dd4eea779fd14bbba6f355ace9f6f0321a70102645332ebd2a6840c946efda89ee83317f3d647c6db3938faed52be29535c8a3b603fc7d779ddd8dfeba523fc96ee30189e08658924870d951a20ebdeb8b6770908f5d7ec1e916b026d577f51939299f0dd982c2cb0a20ce9b5ffca5029b231359baaa435f51a6cc4fb5c1519263dabb4eab9ec6b29c396bd7f185323f54ef1a728b0ea9e8b82600c0e3647d52b806e342ce1a55d2e6f8aad50b6102cf3ecc0263118209c4c1d0be35735d11071b9d8711150327b7886606a8248e3711eed8492d37a0d4cf3552fd756623b45b4d2654da463595f470d0dbbc7cfcc17304bdc1af5ad026d89542429996b9674c5066273b1a0c05d1db03c87389b793df2bacfa1ddc16c13bbe54a62ff9c98c7f4c24ca43a2db40d3a3e330342b6bd1e752994b8c975d1ce447d73bf0faec793ad333543ea729715e6a1544ff38848caa170a1a6184a0cec8a1ccd0614210fbc33a9b82c124ffa1e18f5d7ce71a93e8f9f4d530d175e0c4948c78d68ce825e24c7c15577cfc14bc6012748bb41a6b74713e4feb0a21652c69fb7dbc02d34101b76038d3aa6c7aec7fca6b48aa9955f85d661f04a61c695b7de766350ac9ee1bf6eb62074c318189bd490974845953be4be1402499b8dbe4aae34e7384fe951191cbbff507a21f00758fa4e29a7c295ab5aedf2c7a9eef808b53d6a7474ce3fae68c2a8ef472228edc6c69accf89d01514419d6372def97fdd1ad0cc2af92c0a47e0b473a3c41217e53405995a8e243a0ea988233b7695a991317474f84a113768cd32ec444163921fef8286a9b0695e3d35f76c4936a7f5561ba34b32490a17b0a50dfb94525e88ed4fa796f872e69347ec2638e152167333dea4a755e2391db841d439df722984e65c49859f2a4aa6f1cae009df43ef880ee32a3e4155f02b59d1bcc2b8c5c38d2ddb65ddba74316eaefc30755fb3e421451f39094ca0affae99529e69f1f6fabcf8f107f303cdcb585c356c1beef459c83d8ddd4d125a7381e84eefebaf2e0cfb5af2d519060057a15321e9bd755007232a0e4668b2726b2077b8bbff65e7f48760969816b3ec1328d3658ef242c5f8123602da5e69ea35986c6149312d5250b4fa70943bbf39cbf946427ed87f0e4da9c11ded1242c00b251e69972bdafc1dbe3f39f1f39ee3bd7b26fff4b043b491e14efa6ddb439dd6ff3cb0f1add1ff889604cef1d4bb41f5a4b3dc97fa7f9b023a09cf526a80f3e46721dfcce4e43c4986101de0a17e4589fc907558acd3ac5571f8a74dfb9d1214f629b62daeb8127edebfdc5dfdb00ac8af3e9d3721eef1e66b066091f2346e07b8742fe4873e09cd77dd60a10af01304648a71b28290207a2485794002b06b797fc20693580b61ccac7513a01d530854812fd7ea6d11f24eec19f44fa743966c12f1fa6c4c2dbdba9d7fecf4a3444b58f76a2df20426c92740db462876f716beb49ec646154b9010196ac7b91716aba6020d9b07f6fee7e38b851d54f69f9fa3724428469275dd284cd9fbb535763cee6334e59cf0b7aa834416e4ef906b11fb74d0569f45b8e283ccb02580ec0ae3e9fc6c153a874f15a53cc1c43d62c5c4f0324b641dfa9a65a8a17f51371f8e1d370728d5ed69c7532456cf8410be1291e9b0e8b1116b7d00f3453625f4d0ceba7fc9163d9e910fd9fe1bed2f771678dfc5a33a64eeb51038e21fdd48b6cfdf9d9fb250cef4065beaa291e8788967c03c9ca603b862860f53db72c28ab27869ebd8e82351ff292df95209d2d49282fde1d06a8e6576191ce6ae16af96c8073c39ccbc213981a1ed11232bf6d75d01fd44b83eac9a292b1a0734749efd40b9415a65f8606f11a25606b95143e1f621bbfa692eb7660630969eaea972aa6190ee81448b0bf2b8f36f5c32e1ecbc56dbd9ae3a51f7bc4fee835a392bdb86fe9263e5d730334b30d3b0d2c2dfd74b29016dbc74933be5141cae457af406d6c26dd3a864c0cd16bee6741a13e78f6f759d2f4f3f92d001e053599ddd89e612d2574c35b8325efe70f210db0f4d0cd86899f859732759e0328d72f08604c9025016234521919e38537b48acaca7c25665341e94a1532d0b94e502cdc06e07ba9f860d8319a2eaac74f0bc74b1b40a657687b09a8f2b1f79dc742409a1e58768509ec78fd2a8ae9ce54fb3648bb4bbbe4d17d43146783e9701ebad2ac599504fbdf9846e5a7c9a0a55dfc844943c322553cce5c30578035217778d04ea7f0303cacd79eaf93035cb28b066ba04ae0072a9219e1f777590621d84aee66906591443332ca7f321f2541a655b98617c339b58681522cce064a68c607de0c194543778f281326fb3886dbba7da6df30ba1ec9f2a361a0982876935196a74f9df18f9c026ee83b7511cc43655fb3eb16605ea239f6d3b69b55bbb809795869801f1893137324c5a6d3bc6344b590208676f4d3a54387dcf28bceb1241d352767502b4100bc58a20f7dc3a2b2dce054b7036f5128682a517edb235aa690fddc5d4d20792adcac7e48aa773c66b9070d2044f163999e3f89d5e11ae409e14f8fe0285a48e1c4a6eb5bb5f17ec1765c82ba1c3410a6afb88762ad468114add8222b655b0f8c71da26a8323edabcd461bbd431aab03b4f7d7000d94cbcc3f944b2b86888ea5876f74b7f65edf2ca1410394130e67128c7bcaf0b52e4346e9e850b74931aaa52e28f7225ac86558c959a102fbee5f588a55a7af68c9a435ff39b92953321cd3b0f15e9ab18a2a760aff4c2da95a691b2c4c37c5e229fcd05df770c5bf3f45f3e3318456d73b803322536136b1702e8df4ad1056d93a51188f723f702aabc65fedd7420c1829d2faa8a8307fa5ec6dadfc0e33133a2ec2a2cefd2cdb34782ba67d2070da68c34df3c5fd45d1eb26aa9a99d85154c2df136c1dbcfa3be6840eaf75ca012181292c626fe3756128f533288da5c619ca483c22fd6fcb500b5381933bcdaa66e3d9ffa8bcdb2466d8726d152a6a5fc6bf337f133ef46493a7c984f400080b0c10134d5b5d767a8aa3a4c5cfd0d1d5fe0d15222b374c525d61637aa9bfd8eefd2728292d327c8bc2ccd2dee8f919393e4c4f9fa0a7afdae4eaf30000000000000000000000000000000000001424313e01",
        "003a8c8686fc6b55d31fe8845a5ffb0ea4a19978bc1566316963e5323c4093efd0f12ab66fc952cfe5472ada55ddf690c114197927f25c91e9e2fcc26800611356b1303c79f4eef0a64bbd1677adbfa1fc38aedbd634b4ab05a2b18de9b3ad73ab9bd054728861ae197eae1c057b0703596343180b2d3d6d754ae72214377059be70335687bf0f5bb99ddf620de48817cecd9ff45579363d7b43a0413b4610cc0a7f78befaff6ada3be1ad3932cc821f7916c69beb4ae7751846f8e351314f3234349600b14cf3b469a08b05c1c3a066b1d6502f027cf9c76121087e3a3473c214cd57fcd24e9d12fe0572eae19095d38c19510bfae35a84479038354b67565dcf33d59dbe506c35d328d3025bd48eac55d2efb012e204f52824536e82566a4eca1a2653a5b7dbec37cba7dbe2ea7830e0a76ffd64117422069bb0109ed18dc7b6f284e859c66d371c225a99069b9d68d0fee2f68e4648092fcb1f80c312bae11631f6c3c025581374b65365ec3f609680ebc3b57539b445c73011498cf79cc967fec1b9d1423282f6caa68dfeca468408ab95aec40ed64a50afcfc0806c835b18f370983c02b31127494fa1e09f5a279818cdeacb6519cc4ecab2da2323e90e29bd4ee559033a3d3c5fb67afd03bc683f272ad161e3b001c66307bc5202ad2644aaa09c6f21c39b1080aef2610649e9b071e19ceb7fd56cd7257f26beda0bf8a2f8b3e6f2e1b55c0b8ec46ebeaa09fdf683462b39d5cdbfb631a0c57537832a1d4fa430dfc07e0bad8f18fb9b11715a82254aaeb9257d96b22bc300a3f6bb4c78eafd50a065f6f2347f0afe4b714a631f0d5e4c184ae49d2f51e7797b0a9bb11dac8ffd7a4e7cd16aeba162475a1403aa7647c07f87ebb00211d9d3beaa3620a92c3e3b791c35732a7bd898f84e221fa0dea0af11755f987d426246f5bc2f3165a7968f8ebe29e6108165d8a7a1c0d777e512fa91e417d9c1c05c0beb0d33e17b6082616fa7b9c878a8dc35e90a210382b654161d626e17ba0b58d5424894c861784a4315f81dbf6522d0f2e6bb0fa207c991523408da9a11a9ca73022db28137d6a0fba8e1a92090345c7026ce4180c05e1087463d46bc4f3fa6cd81c52edebae5c544a9dd1c5e19ed1e44fa8bfee842e62a7dce80bfae8e42ddea7984359681af7e660ba360bf9f57cc2d02bef4b75db0070dcab532bcd0407c009dac646110f9a8b9b833f102f15d6535161adebdd595682ff50dabe96583a769de19a8ac2276b0793ef9158163907262dbd19fbe7ea0cdb0bc220ca784bb69ee297efc4009aff9ac03a02b058ef0124fb698f08213def16a118767185e80de8b7a9b2f78190a03d2295c5f11d80e7ef66eb7fa506916bf88d953890f19f3f9c39ad0cb8820a363460f3d4fdd883410aa5873237d4a73cefe2e83c50d5ec46436a0c506261bb2eef57d6d500ae57e70818aa15ef34ff63457b15320d6c41c61ef40468751a555749e586b09e7ca7a200d84e9e9d5fa5fc1622c3604c5dd4782e6aafb3aedeff50cd3f096fc77ce82497a9db3dca7c2840a07a72f50cb8933a06a68954ea0ea89b2fa14b7c85a1f53df38484b5ecbe2ab5fd120b2e5573ebfac90cc826dd772414a0d2d5321de46f2f35af5f530c45c740d0c921cd3ef919080067a37a880415c608d1f34f232fcfee1e56d5d6429a6a857a4b07a21cf9fa72ac02a236fb23115107a7ecf91d47d325fa111d3471032195499393ad270bc040346297bea5b16778bac3957e4568eae6f84985d98e1f1247e0947f10a8e1071fba25be120cb1f0055389f408e1469354da433df90e0407b08e057e5a2b96a55249d4d4e9249fb"
      ],
      "sequence": 4294967294
    }
  ],
  "vout": [
    {
      "value": 1.0,
      "n": 0,
      "scriptPubKey": {
        "asm": "OP_RETURN 678dcdfe62dce3257e450a375414113958fe8c76e8a0c1ba68a0d1684464143b 063d57ce6e12c5821822923acdaff5aed1c7501e63542d21427abbf2ab1a2131261d77ee4e32e5a23802b21aed8fd58ef1e7703e43740d01625a9bd28b3a0111467d178e2e5285c25862d27a8defb5ee9187105e23146d61023afbb2eb5a6171665d37ae0e72a5e27842f25aadcf95ceb1a7307e03344d41221adb92cb7a415186bdd74eee92450298a212ba4d2f752e5147d09ee3d4ada1c2fa3b722b9aa1b1a69df76eceb26522b882329a6d0f550e7167f0bec3f48d81e2da1b520bba8191c6fd970eaed20542d8e252fa0d6f356e110790dea394ede182ba7b326bdae1f1e6ddb72e8ef22562f8c272da2d4f154e3127b0fe83b4cdc1a29a5b124bfac1d1063d57ce6e12c5821822923acdaff5aed1c7501e63542d21427abbf2ab1a2131261d77ee4e32e5a23802b21aed8fd58ef1e7703e43740d01625a9bd28b3a0111467d178e2e5285c25862d27a8defb5ee9187105e23146d61023afbb2eb5a6171665d37ae0e72a5e27842f25aadcf95ceb1a7307e03344d41221adb92cb7a415186bdd74eee92450298a212ba4d2f752e5147d09ee3d4ada1c2fa3b722b9aa1b1a69df76eceb26522b882329a6d0f550e7167f0bec3f48d81e2da1b520bba8191c6fd970eaed20542d8e252fa0d6f356e110790dea394ede182ba7b326bdae1f1e6ddb72e8ef22562f8c272da2d4f154e3127b0fe83b4cdc1a29a5b124bfac1d1063d57ce6e12c5821822923acdaff5aed1c7501e63542d21427abbf2ab1a2131261d77ee4e32e5a23802b21aed8fd58ef1e7703e43740d01625a9bd28b3a0111467d178e2e5285c25862d27a8defb5ee9187105e23146d61023afbb2eb5a6171665d37ae0e72a5e27842f25aadcf95ceb1a7307e03344d41221adb92cb7a415186bdd74eee92450298a212ba4d2f752e5147d09ee3d4ada1c2fa3b722b9aa1b1a69df76eceb26522b882329a6d0f550e7167f0bec3f48d81e2da1b520bba8191c6fd970eaed20542d8e252fa0d6f356e110790dea394ede182ba7b326bdae1f1e6ddb72e8ef22562f8c272da2d4f154e3127b0fe83b4cdc1a29a5b124bfac1d1063d57ce6e12c5821822923acdaff5aed1c7501e63542d21427abbf2ab1a2131261d77ee4e32e5a23802b21aed8fd58ef1e7703e43740d01625a9bd28b3a0111467d178e2e5285c25862d27a8defb5ee9187105e23146d61023afbb2eb5a6171665d37ae0e72a5e27842f25aadcf95ceb1a7307e03344d41221adb92cb7a415186bdd74eee92450298a212ba4d2f752e5147d09ee3d4ada1c2fa3b722b9aa1b1a69df76eceb26522b882329a6d0f550e7167f0bec3f48d81e2da1b520bba8191c6fd970eaed20542d8e252fa0d6f356e110790dea394ede182ba7b326bdae1f1e6ddb72e8ef22562f8c272da2d4f154e3127b0fe83b4cdc1a29a5b124bfac1d1063d57ce6e12c5821822923acdaff5aed1c7501e63542d21427abbf2ab1a2131261d77ee4e32e5a23802b21aed8fd58ef1e7703e43740d01625a9bd28b3a0111467d178e2e5285c25862d27a8defb5ee9187105e23146d61023afbb2eb5a6171665d37ae0e72a5e27842f25aadcf95ceb1a7307e03344d41221adb92cb7a415186bdd74eee92450298a212ba4d2f752e2d15754a44363441e90eaf80c4d9991b215df75071e54e48ee90bb07578fd982",
        "hex": "6a20678dcdfe62dce3257e450a375414113958fe8c76e8a0c1ba68a0d1684464143b4db004063d57ce6e12c5821822923acdaff5aed1c7501e63542d21427abbf2ab1a2131261d77ee4e32e5a23802b21aed8fd58ef1e7703e43740d01625a9bd28b3a0111467d178e2e5285c25862d27a8defb5ee9187105e23146d61023afbb2eb5a6171665d37ae0e72a5e27842f25aadcf95ceb1a7307e03344d41221adb92cb7a415186bdd74eee92450298a212ba4d2f752e5147d09ee3d4ada1c2fa3b722b9aa1b1a69df76eceb26522b882329a6d0f550e7167f0bec3f48d81e2da1b520bba8191c6fd970eaed20542d8e252fa0d6f356e110790dea394ede182ba7b326bdae1f1e6ddb72e8ef22562f8c272da2d4f154e3127b0fe83b4cdc1a29a5b124bfac1d1063d57ce6e12c5821822923acdaff5aed1c7501e63542d21427abbf2ab1a2131261d77ee4e32e5a23802b21aed8fd58ef1e7703e43740d01625a9bd28b3a0111467d178e2e5285c25862d27a8defb5ee9187105e23146d61023afbb2eb5a6171665d37ae0e72a5e27842f25aadcf95ceb1a7307e03344d41221adb92cb7a415186bdd74eee92450298a212ba4d2f752e5147d09ee3d4ada1c2fa3b722b9aa1b1a69df76eceb26522b882329a6d0f550e7167f0bec3f48d81e2da1b520bba8191c6fd970eaed20542d8e252fa0d6f356e110790dea394ede182ba7b326bdae1f1e6ddb72e8ef22562f8c272da2d4f154e3127b0fe83b4cdc1a29a5b124bfac1d1063d57ce6e12c5821822923acdaff5aed1c7501e63542d21427abbf2ab1a2131261d77ee4e32e5a23802b21aed8fd58ef1e7703e43740d01625a9bd28b3a0111467d178e2e5285c25862d27a8defb5ee9187105e23146d61023afbb2eb5a6171665d37ae0e72a5e27842f25aadcf95ceb1a7307e03344d41221adb92cb7a415186bdd74eee92450298a212ba4d2f752e5147d09ee3d4ada1c2fa3b722b9aa1b1a69df76eceb26522b882329a6d0f550e7167f0bec3f48d81e2da1b520bba8191c6fd970eaed20542d8e252fa0d6f356e110790dea394ede182ba7b326bdae1f1e6ddb72e8ef22562f8c272da2d4f154e3127b0fe83b4cdc1a29a5b124bfac1d1063d57ce6e12c5821822923acdaff5aed1c7501e63542d21427abbf2ab1a2131261d77ee4e32e5a23802b21aed8fd58ef1e7703e43740d01625a9bd28b3a0111467d178e2e5285c25862d27a8defb5ee9187105e23146d61023afbb2eb5a6171665d37ae0e72a5e27842f25aadcf95ceb1a7307e03344d41221adb92cb7a415186bdd74eee92450298a212ba4d2f752e5147d09ee3d4ada1c2fa3b722b9aa1b1a69df76eceb26522b882329a6d0f550e7167f0bec3f48d81e2da1b520bba8191c6fd970eaed20542d8e252fa0d6f356e110790dea394ede182ba7b326bdae1f1e6ddb72e8ef22562f8c272da2d4f154e3127b0fe83b4cdc1a29a5b124bfac1d1063d57ce6e12c5821822923acdaff5aed1c7501e63542d21427abbf2ab1a2131261d77ee4e32e5a23802b21aed8fd58ef1e7703e43740d01625a9bd28b3a0111467d178e2e5285c25862d27a8defb5ee9187105e23146d61023afbb2eb5a6171665d37ae0e72a5e27842f25aadcf95ceb1a7307e03344d41221adb92cb7a415186bdd74eee92450298a212ba4d2f752e2d15754a44363441e90eaf80c4d9991b215df75071e54e48ee90bb07578fd982",
        "type": "nulldata"
      }
    },
    {
      "value": 499959.324,
      "n": 1,
      "scriptPubKey": {
        "asm": "1 c3c25803b45c3740af8951dbf951888432ff6f4ae4e0558a32f53fad4a47b515",
        "hex": "5120c3c25803b45c3740af8951dbf951888432ff6f4ae4e0558a32f53fad4a47b515",
        "reqSigs": 1,
        "type": "witness_v1_scripthash",
        "addresses": [
          "3QJmnh"
        ]
      }
    }
  ],
  "blockhash": "394f302ff1829b8db869c98f7b64fb5f27cc2b50e933cff1e5bbeae34fa68a80",
  "confirmations": 1,
  "time": 1764183654,
  "blocktime": 1764183654
}