{
  "hex": "010000000001018197224676c7bddd1e82609ec4b0c43cb88142e77eb476d2b6f731e89546e5cc0100000000feffffff0270cc3221792d00002251203b3c2cb4b15a6ecb9ad45251ed8585aa3bf7a2c59adca80fb73f5ee76e4a76ff00e1f50500000000fdd5046a20797c2461ce1388504a432a6121ab78c11a19afa3fd324fb70193b58b460f8ce04db004e902ee6b79b85c120afabebd3c8d61845a39ecce121dbed36c95b8efff14d04ec922ce4b59987c322ada9e9d1cad41a47a19ccee323d9ef34cb598cfdf34f06ea942ae2b39f81c524abafefd7ccd21c41a79ac8e525dfe932cd5f8afbf54900e89628e0b19d83c726a9adedd5ced01e43a598cae727ddeb30cf5d88f9f74b02e69826eebf938dc928a7a3e3dbc0de104dab96c4e929d3e53ec15386f7f9450ce49a24ecbd918fcb2aa5a1e1d9c2dc124fa994c6eb2bd1e73cc35184f5fb470ee29c22eabb9789cd2ca3a7e7dfc4da1449af92c0ed2dd7e13ac55782f3fd4108e09e20e8b9958bcf2ea1a5e5ddc6d8164bad90c2ef2fd5e338c75580f1ff430aee902ee6b79b85c120afabebd3c8d61845a39ecce121dbed36c95b8efff14d04ec922ce4b59987c322ada9e9d1cad41a47a19ccee323d9ef34cb598cfdf34f06ea942ae2b39f81c524abafefd7ccd21c41a79ac8e525dfe932cd5f8afbf54900e89628e0b19d83c726a9adedd5ced01e43a598cae727ddeb30cf5d88f9f74b02e69826eebf938dc928a7a3e3dbc0de104dab96c4e929d3e53ec15386f7f9450ce49a24ecbd918fcb2aa5a1e1d9c2dc124fa994c6eb2bd1e73cc35184f5fb470ee29c22eabb9789cd2ca3a7e7dfc4da1449af92c0ed2dd7e13ac55782f3fd4108e09e20e8b9958bcf2ea1a5e5ddc6d8164bad90c2ef2fd5e338c75580f1ff430aee902ee6b79b85c120afabebd3c8d61845a39ecce121dbed36c95b8efff14d04ec922ce4b59987c322ada9e9d1cad41a47a19ccee323d9ef34cb598cfdf34f06ea942ae2b39f81c524abafefd7ccd21c41a79ac8e525dfe932cd5f8afbf54900e89628e0b19d83c726a9adedd5ced01e43a598cae727ddeb30cf5d88f9f74b02e69826eebf938dc928a7a3e3dbc0de104dab96c4e929d3e53ec15386f7f9450ce49a24ecbd918fcb2aa5a1e1d9c2dc124fa994c6eb2bd1e73cc35184f5fb470ee29c22eabb9789cd2ca3a7e7dfc4da1449af92c0ed2dd7e13ac55782f3fd4108e09e20e8b9958bcf2ea1a5e5ddc6d8164bad90c2ef2fd5e338c75580f1ff430aee902ee6b79b85c120afabebd3c8d61845a39ecce121dbed36c95b8efff14d04ec922ce4b59987c322ada9e9d1cad41a47a19ccee323d9ef34cb598cfdf34f06ea942ae2b39f81c524abafefd7ccd21c41a79ac8e525dfe932cd5f8afbf54900e89628e0b19d83c726a9adedd5ced01e43a598cae727ddeb30cf5d88f9f74b02e69826eebf938dc928a7a3e3dbc0de104dab96c4e929d3e53ec15386f7f9450ce49a24ecbd918fcb2aa5a1e1d9c2dc124fa994c6eb2bd1e73cc35184f5fb470ee29c22eabb9789cd2ca3a7e7dfc4da1449af92c0ed2dd7e13ac55782f3fd4108e09e20e8b9958bcf2ea1a5e5ddc6d8164bad90c2ef2fd5e338c75580f1ff430aee902ee6b79b85c120afabebd3c8d61845a39ecce121dbed36c95b8efff14d04ec922ce4b59987c322ada9e9d1cad41a47a19ccee323d9ef34cb598cfdf34f06ea942ae2b39f81c524abafefd7ccd21c41a79ac8e525dfe932cd5f8afbf54900e89628e0b19d83c726a9adedd5ced01e43a598cae727ddeb30cf5d88f9f74b02e69826eebf938dc928a7a3e3dbc0de104479332b0efdf8b5e08b7846c10e702a76d4e2c4e5a69b28e3422a75d5e34d55802fd75091a74a1b995c9c060bc8b8348766077a45b61808b2af51bd2b0892d53e4d5464f64a37572e1d7444bb05e83660e8dac6d05490612a54294acbdc5fa60f93fb12796bd446bfb3387ad312d07382b71b2881b203055505bd690b30e773820d4572fb98eab08fd8b0d93f5efce3ac404c2bbd16327344e2e4bc0fe5db35e05f207d8f8854d18704c300230e055bb28a48e5f6a0807f5df71d4b2be523fc1b535b02e589dc7989a8beb69897ade9efb197c63fec1ef9cd373783a72f8df1275e4444a7b94f2276ce31931693a062806f593f0fc2265d45ebb57beb5bcd8eb3dc3c8a942f6e31e5e2b2fb52648d5f6cd3a078093e8807110d60152120291824668468ba987468d97a4a01b04ef0be57154129a649b421fa8036410380702bdefe99f86afda7f697c2a2930b4b253750506cd808722091ef679fc00158ac4b24d74505e2771fc1a350c0a4b33454719cb6ab16796563c72c2c3f4358c905e6f77bdbcbf94576db79a504317112272ffb79893a5676eed68336255931342f5b5e5f21211a7e03c513877af17fd4c1d9233f4370b66e3aae5a76016ecdb837a148a5558d54096317bb489288a1c83c2444ab06953efd6cf943ad0cdadc5281a8780078fef2a85f3f52152ba03a1e9f5cba97756fa20fdefaab20dc543c66e99ce95d048d0808be6c7c1ce48cd6913f62ebe3e61173a7ec927052da172140f42da059a35f4b5053aac682ef8e4fc64d42b696d85debe481ae717972423acef79885f4165c3e811ecf3d16ce80e0093c6c1c0909f3b5fde950a10adbd91b1acf1490aced1dc38cb751237356849193dab941279932945068ac23351db708e3eeeb74e2d639249be08b8f146fd173c24f96972a691d56220c2991560d2fd9f7599d91f6dec559e63bff8ef354d24c57f703a6427e1790a037b60ccecf82570b3e8315114a72db8633a82ece515bbc9affe57871569c4c4689c4a4bee3a4e6b1f7ae46da41847d11dfd0fa0340dc9234b527edb580e9b979873d2ae00b96373cb49a249c7c37ffb415484c46ecbbc905b54236e3d4d15933185b5da2856d60c8ae4ec271b67c92226d6b2d9037e7179ed79c87c55c35fe4df156d34ac3e94faca3edcbf6ef2c73c8468a349b640058207f9f0e2757d41b5aefd280d5020d90c1702cd93030d685c7c1e7496bcb22fc1935d893e3dd0d21d8bd3eb8357f28ec0ae1cfbed0494474831408ee6dd02b9af5c485885413005cb14a83f70512ecf9dd0e4ae242f3ad28f9bc11b267b5be31d1c334196055d956964d36d6c336fa7548a782fd77e1d73a3b5aac0105a28f2524b40dff8f58d24f58fee5a6b9e0d489b392c27ff57c73729ec7e6e7e56d435e278cbeaac2f5a04ed49094df96d4fe439d8c99e7e7f25b6e7c7f524311ebefaee244016501efeb905b200d495d3df9b5830778d61cd30a034b0db6b1747e4ec58be5fc84b971b4c309caa8574230a7cfe5064926d4b944f404c01b4b79f243428fc209b5ccf215966b6a3c2a3ef41424b686ec1188c8b2ad7faa2258c72b8fd7f9d1ee73509f4afc981788e80fc5b285c3ca3f3f61074bc75c81ce71799f538bf2c71fb9c476e25c53c44c34c242414812e15af1034cb221df5d7abc3db34a6e7756afede3da62080014ac99696827e6095a8c60b5451bb76ce6e03d36b3e979d0c42f40d60345c16590cda337b1f22016c593d8d36fb2de52022e15f43f3ba0eb402570a60341342a12970f8a3c20ef634880f534c81ea6e10b530e066cd1ccf7df0e90ac39553b3b8491bb6b9ff54b5bde77cd7c837d7ef0f15d8e839b4aba9f4363653f4454c098f47ee7c9ab45b8f49b5ed8f58af4c3a1d0b10a926daea431a7c999439650504f29b7b66b68b1db6b2353934090d50eb50282da585e748f5952fa77d9ff7084a2ce8061f2db5fb7deb2e4fafaf17a5cbbce1249169fa436baf40516e3dd2707ab8e306cfbbabb7ffbf5ef15e21ec5914ea7767c68c0d0cca193149eda3e7cb96b836e02567705679a024eafdf41151450d4a69f0027bac4ab312eef3aefdd88975cf4ed89d1db76e452b2318bf0520035bedfa840bfeda2c3c455b6f41a63a4fe538264f0545cc1f0aa9c46a5455a4739fa5984bd7945cd616680f543ed4f5f5be9e15bba98e7bf9256ffedd725ef60b8c4ab022b75a3709e18f2f296417c16b4a0a1d21af286abc470ccfa4e207592c2c83bb882b144ed03f76e4544251ee6ecbc10ef81af7c95965c70596db41a0885ba319f64f732c169fa5a9a498a4b25a64ab16b1388d185136d230d7067b5848f1f3c15d8ef1e9a9d68f7cf9d6368ed35e463c85aedbaee80fd94b68bb480d864850562998317d13fa42659321881284e91d5efc72ce5f2c73100389b6b80d074fa185f6cddee4863e6f4af712987684ff17259bbe95d15c64fa40323dc40761b578f6e1df220141e980c08c2e1fa2502dd1b8035a46af80254b41249ff4b38ce93b1a9fdd0c377bccf6848aefa22d679b6634d89fbe483ba877306c2a67fd701086563775390cb9aad493ebbace4b76c05fbdd93a8bcf5777ed8d56c4d5a7b0b8905874c523ca9368529a342a553da8505074bc1c98462cd4fcdfbf63f5fae6b2a991478ee05f6a3d444a8a4559d2195eaf34214b4170365889927a49ea32498c040bd9165ffe6a957042e9459577b9056c1b2b3165a14bf3a9f8b83128bd21c19300099ce634471e567c702430e9318a874e89b3273cfb21ad55134c7b101faaca1cbbbf28a6d2f3340d46caf381d21cd27042e0be82b07d7e3462fb140025dd1f5332ad6a9c03288179b010247cba80b002d818c08c91f81a5784f290803bc43d8559010825017920c14397d5e70876a7e10d034ed768cf2194145688c8cb3e22dd4626987b289e7eddd7bc76f9fad473970b4df8c8e8f0e52471905c09dbc762fb3e6b3f45616ed6377ccdd9b020f22873636c0b90ed1619f2afa2fb59ce69e845c3f5658d5965f5079bdf136ab40af94543dc93f440be5f119810453f3c8ad54a10a5fa9b494a501e25f0cb5e0dc142acc7d622f8ae970f63a18ec79ada3af9d480b92b9ebd80968dc50241b8feda3159e296bb7669ed71fd72c2c66198b2a214664ac9c9bc621fe4756d71161b8dbbe6752a8fd1fd16ca15f3451151234aa094115cd093d34bed42e4d18102cf4e6615d5f5a3aa4efb6a359cc4201b02eddb78439e0aee303e23202d4155effa50e08a79b2296b9a958ccf3054516dedcff200eb08e009cfe8b2c5c5745080338bb73aae8be2774a846fdd2b95dafe070a262b31383c3f435b648f9699b3d3ec0e192e4550526d7a9fbbdbed0f2324293d4e606e91afb7b8b9bbbde3fe030438579498a5bbdcf2f4f800000000000000000000000000000000000000000000111d2e3a01fd210500e15a53728258d9e79940e9bc93aafa4a6e20c3afcef890534571bf5448d6ebbedd684badb803184aa37c0fb622f66535b1f2146d4f7d293cef849a2f181bc5f4bd1378b7dc0238abacc0430c46b086e66587dc9c9f0398bf57f50ae96fd88a5720bca17975aa0f29e2d7b86e4dafccc338178f12bbc163e3d520682a7c07dfaf67b8403822ae28f28e1a8bb5fadc505c7547c8d446824ac7a42e9d7b5676f05d4ea1310411367e179ae480998216255a73384b8556e9f3979b18c6fe34625f07bd2a960f41ee19174006e9b891b3f2354463afb21a145b7f8367d9d4bc0b7558c7448a116dbaf5d8b41e31b497ac940b82a873752fc4eee7de87629c95a8db5891a7a934aff2cf3cef0c210eea8f53bd8c8771e8adfc471f704c203750faabafdaddafb43f17d3bb7e883c6013c854e7479231423e8c03820ceaceac4237541ceb83984f25b4d562bbf9423f8221f9190adce2537d02e048c6729404424f60e79314ff8653b0afe3b4783972b26b1a04232bfc19812644317948666c77ac6ae755cb4c4286868a78abab6af2aaa6e4dad16a09c86691c453d9d8781b119eeb36c8619b19a54dce02429102217f890adf3dc6a2b461abb554a49665b952683330716b7bd0aa1a503e8ac533b041a1dd8ce42ae9c1ba4b184556236b2e5e46c1d4c80543343460d51f130709873027994370ea13d9594e0f78bc61cf79f5cf0b6a88d0351cd498a691356e1e9c36c86d4e3ba976fad32f520347e57e1a342da1cb14058bd85471d4d2e8ec9cb9aa092c0536663d2709a347dc4514b52f599b791fdff92faa41f6f65b71e6676ceddfb462dee6a50a6c7afbfc57c23362786454c7f389b4e937cc59d5d8516e8cf3a6a95cb55bf95cc3cccdfde5162133be45f2fb2097d97c4ad035492be1bfb33fe7c20ac994bf68d0f9a14f7d25bf2cac21aebdee7d4b4c3cd9b381d4968d679b788f3f78391faf56a07cea90449c5f934d622ddff10fc3691eb7aaa81cff8ce38d17dab7913caf232033bb655f25df047ba8d2aa5464815769d5529d900cacd682b6f66edcd05403a3bc18d3f3055f0dbcaeecdefdb1699a93e46e8a7308f7584b6b8e93f227a9363af16896d40244f0fc3c757a21fc428976e44a5dba2407e4674eaef5ec8ddddaf8497a3227dfc83b008e5f162cdd8cc5541392e5cea0286056c50473e28f88d2ebf0402ca68e64b368dce8175f9644c4b95f829f62ee3a5e09318d61ffa3e5b7020bf3bb856e123aa56e7c9dacc43da148573092be3149a1ea428aee43372bb0be338ccd19baadbc5d12fa4ab540361c327edc823ff037c9d1eeb6e3ee07e2c247481ffef4c97254d2b5c40272aa829d4ea8fcb248b8e10774da5a9ecb4a53541c25fa17c097109f026e464ba4c11739ff51ec457ec40f0e6a40688c0b2737e5504bcff6cd0f63fbe4c875396ba538c18061c10c53c2519d50bfc122ce47f366b0c5a6cd7fcff76679fc92d53c161414410fbe4b4d5b1be62a3491414f26c822ec2d896718355d88dd1eb84708fb80e074aea58118cf026a573922e8beb145907cc27b74f3d70a6f2f2e4f1f0e40870e74cb230f318d3ba7de53c74d81465fcaee43920fb0488d53f91358d3a31fff21a0dad8c6dc275b61c184c443d18738746590d04c88ceb2810d8f3d869e95cee8aeffee509214d37d782ea9325b422721c26e7b0d26edbcc1de32f021701999d1a6fe270a493030035eb47c5d5aeff8283b57bb11bf96d00a177d584affe1aed82599a20c8c9c6ad849f2fdbe0c1b2fe9e5e27a0ca31d51641447fae8defe3ef7eff51451e53b11a0ce66ca14abd477d023fbe4167e6cd69267709373000000",
  "txid": "4f4684c8da0581b1b4f9232ffd97ac6018e9e08c757787fb4bc6cbf01185cc36",
  "hash": "0b68fc6ff3283b51d5ecff9133d5c5aa71d8c53cfc25b3f7ea2fd7c820c87154",
  "size": 5085,
  "vsize": 2278,
  "version": 1,
  "locktime": 115,
  "vin": [
    {
      "txid": "cce54695e831f7b6d276b47ee74281b83cc4b0c49e60821eddbdc77646229781",
      "vout": 1,
      "scriptSig": {
        "asm": "",
        "hex": ""
      },
      "txinwitness": [
        "1a74a1b995c9c060bc8b8348766077a45b61808b2af51bd2b0892d53e4d5464f64a37572e1d7444bb05e83660e8dac6d05490612a54294acbdc5fa60f93fb12796bd446bfb3387ad312d07382b71b2881b203055505bd690b30e773820d4572fb98eab08fd8b0d93f5efce3ac404c2bbd16327344e2e4bc0fe5db35e05f207d8f8854d18704c300230e055bb28a48e5f6a0807f5df71d4b2be523fc1b535b02e589dc7989a8beb69897ade9efb197c63fec1ef9cd373783a72f8df1275e4444a7b94f2276ce31931693a062806f593f0fc2265d45ebb57beb5bcd8eb3dc3c8a942f6e31e5e2b2fb52648d5f6cd3a078093e8807110d60152120291824668468ba987468d97a4a01b04ef0be57154129a649b421fa8036410380702bdefe99f86afda7f697c2a2930b4b253750506cd808722091ef679fc00158ac4b24d74505e2771fc1a350c0a4b33454719cb6ab16796563c72c2c3f4358c905e6f77bdbcbf94576db79a504317112272ffb79893a5676eed68336255931342f5b5e5f21211a7e03c513877af17fd4c1d9233f4370b66e3aae5a76016ecdb837a148a5558d54096317bb489288a1c83c2444ab06953efd6cf943ad0cdadc5281a8780078fef2a85f3f52152ba03a1e9f5cba97756fa20fdefaab20dc543c66e99ce95d048d0808be6c7c1ce48cd6913f62ebe3e61173a7ec927052da172140f42da059a35f4b5053aac682ef8e4fc64d42b696d85debe481ae717972423acef79885f4165c3e811ecf3d16ce80e0093c6c1c0909f3b5fde950a10adbd91b1acf1490aced1dc38cb751237356849193dab941279932945068ac23351db708e3eeeb74e2d639249be08b8f146fd173c24f96972a691d56220c2991560d2fd9f7599d91f6dec559e63bff8ef354d24c57f703a6427e1790a037b60ccecf82570b3e8315114a72db8633a82ece515bbc9affe57871569c4c4689c4a4bee3a4e6b1f7ae46da41847d11dfd0fa0340dc9234b527edb580e9b979873d2ae00b96373cb49a249c7c37ffb415484c46ecbbc905b54236e3d4d15933185b5da2856d60c8ae4ec271b67c92226d6b2d9037e7179ed79c87c55c35fe4df156d34ac3e94faca3edcbf6ef2c73c8468a349b640058207f9f0e2757d41b5aefd280d5020d90c1702cd93030d685c7c1e7496bcb22fc1935d893e3dd0d21d8bd3eb8357f28ec0ae1cfbed0494474831408ee6dd02b9af5c485885413005cb14a83f70512ecf9dd0e4ae242f3ad28f9bc11b267b5be31d1c334196055d956964d36d6c336fa7548a782fd77e1d73a3b5aac0105a28f2524b40dff8f58d24f58fee5a6b9e0d489b392c27ff57c73729ec7e6e7e56d435e278cbeaac2f5a04ed49094df96d4fe439d8c99e7e7f25b6e7c7f524311ebefaee244016501efeb905b200d495d3df9b5830778d61cd30a034b0db6b1747e4ec58be5fc84b971b4c309caa8574230a7cfe5064926d4b944f404c01b4b79f243428fc209b5ccf215966b6a3c2a3ef41424b686ec1188c8b2ad7faa2258c72b8fd7f9d1ee73509f4afc981788e80fc5b285c3ca3f3f61074bc75c81ce71799f538bf2c71fb9c476e25c53c44c34c242414812e15af1034cb221df5d7abc3db34a6e7756afede3da62080014ac99696827e6095a8c60b5451bb76ce6e03d36b3e979d0c42f40d60345c16590cda337b1f22016c593d8d36fb2de52022e15f43f3ba0eb402570a60341342a12970f8a3c20ef634880f534c81ea6e10b530e066cd1ccf7df0e90ac39553b3b8491bb6b9ff54b5bde77cd7c837d7ef0f15d8e839b4aba9f4363653f4454c098f47ee7c9ab45b8f49b5ed8f58af4c3a1d0b10a926daea431a7c999439650504f29b7b66b68b1db6b2353934090d50eb50282da585e748f5952fa77d9ff7084a2ce8061f2db5fb7deb2e4fafaf17a5cbbce1249169fa436baf40516e3dd2707ab8e306cfbbabb7ffbf5ef15e21ec5914ea7767c68c0d0cca193149eda3e7cb96b836e02567705679a024eafdf41151450d4a69f0027bac4ab312eef3aefdd88975cf4ed89d1db76e452b2318bf0520035bedfa840bfeda2c3c455b6f41a63a4fe538264f0545cc1f0aa9c46a5455a4739fa5984bd7945cd616680f543ed4f5f5be9e15bba98e7bf9256ffedd725ef60b8c4ab022b75a3709e18f2f296417c16b4a0a1d21af286abc470ccfa4e207592c2c83bb882b144ed03f76e4544251ee6ecbc10ef81af7c95965c70596db41a0885ba319f64f732c169fa5a9a498a4b25a64ab16b1388d185136d230d7067b5848f1f3c15d8ef1e9a9d68f7cf9d6368ed35e463c85aedbaee80fd94b68bb480d864850562998317d13fa42659321881284e91d5efc72ce5f2c73100389b6b80d074fa185f6cddee4863e6f4af712987684ff17259bbe95d15c64fa40323dc40761b578f6e1df220141e980c08c2e1fa2502dd1b8035a46af80254b41249ff4b38ce93b1a9fdd0c377bccf6848aefa22d679b6634d89fbe483ba877306c2a67fd701086563775390cb9aad493ebbace4b76c05fbdd93a8bcf5777ed8d56c4d5a7b0b8905874c523ca9368529a342a553da8505074bc1c98462cd4fcdfbf63f5fae6b2a991478ee05f6a3d444a8a4559d2195eaf34214b4170365889927a49ea32498c040bd9165ffe6a957042e9459577b9056c1b2b3165a14bf3a9f8b83128bd21c19300099ce634471e567c702430e9318a874e89b3273cfb21ad55134c7b101faaca1cbbbf28a6d2f3340d46caf381d21cd27042e0be82b07d7e3462fb140025dd1f5332ad6a9c03288179b010247cba80b002d818c08c91f81a5784f290803bc43d8559010825017920c14397d5e70876a7e10d034ed768cf2194145688c8cb3e22dd4626987b289e7eddd7bc76f9fad473970b4df8c8e8f0e52471905c09dbc762fb3e6b3f45616ed6377ccdd9b020f22873636c0b90ed1619f2afa2fb59ce69e845c3f5658d5965f5079bdf136ab40af94543dc93f440be5f119810453f3c8ad54a10a5fa9b494a501e25f0cb5e0dc142acc7d622f8ae970f63a18ec79ada3af9d480b92b9ebd80968dc50241b8feda3159e296bb7669ed71fd72c2c66198b2a214664ac9c9bc621fe4756d71161b8dbbe6752a8fd1fd16ca15f3451151234aa094115cd093d34bed42e4d18102cf4e6615d5f5a3aa4efb6a359cc4201b02eddb78439e0aee303e23202d4155effa50e08a79b2296b9a958ccf3054516dedcff200eb08e009cfe8b2c5c5745080338bb73aae8be2774a846fdd2b95dafe070a262b31383c3f435b648f9699b3d3ec0e192e4550526d7a9fbbdbed0f2324293d4e606e91afb7b8b9bbbde3fe030438579498a5bbdcf2f4f800000000000000000000000000000000000000000000111d2e3a01",
        "00e15a53728258d9e79940e9bc93aafa4a6e20c3afcef890534571bf5448d6ebbedd684badb803184aa37c0fb622f66535b1f2146d4f7d293cef849a2f181bc5f4bd1378b7dc0238abacc0430c46b086e66587dc9c9f0398bf57f50ae96fd88a5720bca17975aa0f29e2d7b86e4dafccc338178f12bbc163e3d520682a7c07dfaf67b8403822ae28f28e1a8bb5fadc505c7547c8d446824ac7a42e9d7b5676f05d4ea1310411367e179ae480998216255a73384b8556e9f3979b18c6fe34625f07bd2a960f41ee19174006e9b891b3f2354463afb21a145b7f8367d9d4bc0b7558c7448a116dbaf5d8b41e31b497ac940b82a873752fc4eee7de87629c95a8db5891a7a934aff2cf3cef0c210eea8f53bd8c8771e8adfc471f704c203750faabafdaddafb43f17d3bb7e883c6013c854e7479231423e8c03820ceaceac4237541ceb83984f25b4d562bbf9423f8221f9190adce2537d02e048c6729404424f60e79314ff8653b0afe3b4783972b26b1a04232bfc19812644317948666c77ac6ae755cb4c4286868a78abab6af2aaa6e4dad16a09c86691c453d9d8781b119eeb36c8619b19a54dce02429102217f890adf3dc6a2b461abb554a49665b952683330716b7bd0aa1a503e8ac533b041a1dd8ce42ae9c1ba4b184556236b2e5e46c1d4c80543343460d51f130709873027994370ea13d9594e0f78bc61cf79f5cf0b6a88d0351cd498a691356e1e9c36c86d4e3ba976fad32f520347e57e1a342da1cb14058bd85471d4d2e8ec9cb9aa092c0536663d2709a347dc4514b52f599b791fdff92faa41f6f65b71e6676ceddfb462dee6a50a6c7afbfc57c23362786454c7f389b4e937cc59d5d8516e8cf3a6a95cb55bf95cc3cccdfde5162133be45f2fb2097d97c4ad035492be1bfb33fe7c20ac994bf68d0f9a14f7d25bf2cac21aebdee7d4b4c3cd9b381d4968d679b788f3f78391faf56a07cea90449c5f934d622ddff10fc3691eb7aaa81cff8ce38d17dab7913caf232033bb655f25df047ba8d2aa5464815769d5529d900cacd682b6f66edcd05403a3bc18d3f3055f0dbcaeecdefdb1699a93e46e8a7308f7584b6b8e93f227a9363af16896d40244f0fc3c757a21fc428976e44a5dba2407e4674eaef5ec8ddddaf8497a3227dfc83b008e5f162cdd8cc5541392e5cea0286056c50473e28f88d2ebf0402ca68e64b368dce8175f9644c4b95f829f62ee3a5e09318d61ffa3e5b7020bf3bb856e123aa56e7c9dacc43da148573092be3149a1ea428aee43372bb0be338ccd19baadbc5d12fa4ab540361c327edc823ff037c9d1eeb6e3ee07e2c247481ffef4c97254d2b5c40272aa829d4ea8fcb248b8e10774da5a9ecb4a53541c25fa17c097109f026e464ba4c11739ff51ec457ec40f0e6a40688c0b2737e5504bcff6cd0f63fbe4c875396ba538c18061c10c53c2519d50bfc122ce47f366b0c5a6cd7fcff76679fc92d53c161414410fbe4b4d5b1be62a3491414f26c822ec2d896718355d88dd1eb84708fb80e074aea58118cf026a573922e8beb145907cc27b74f3d70a6f2f2e4f1f0e40870e74cb230f318d3ba7de53c74d81465fcaee43920fb0488d53f91358d3a31fff21a0dad8c6dc275b61c184c443d18738746590d04c88ceb2810d8f3d869e95cee8aeffee509214d37d782ea9325b422721c26e7b0d26edbcc1de32f021701999d1a6fe270a493030035eb47c5d5aeff8283b57bb11bf96d00a177d584affe1aed82599a20c8c9c6ad849f2fdbe0c1b2fe9e5e27a0ca31d51641447fae8defe3ef7eff51451e53b11a0ce66ca14abd477d023fbe4167e6cd692677093"
      ],
      "sequence": 4294967294
    }
  ],
  "vout": [
    {
      "value": 499982.7127,
      "n": 0,
      "scriptPubKey": {
        "asm": "1 3b3c2cb4b15a6ecb9ad45251ed8585aa3bf7a2c59adca80fb73f5ee76e4a76ff",
        "hex": "51203b3c2cb4b15a6ecb9ad45251ed8585aa3bf7a2c59adca80fb73f5ee76e4a76ff",
        "reqSigs": 1,
        "type": "witness_v1_scripthash",
        "addresses": [
          "3QJmnh"
        ]
      }
    },
    {
      "value": 1.0,
      "n": 1,
      "scriptPubKey": {
        "asm": "OP_RETURN 797c2461ce1388504a432a6121ab78c11a19afa3fd324fb70193b58b460f8ce0 e902ee6b79b85c120afabebd3c8d61845a39ecce121dbed36c95b8efff14d04ec922ce4b59987c322ada9e9d1cad41a47a19ccee323d9ef34cb598cfdf34f06ea942ae2b39f81c524abafefd7ccd21c41a79ac8e525dfe932cd5f8afbf54900e89628e0b19d83c726a9adedd5ced01e43a598cae727ddeb30cf5d88f9f74b02e69826eebf938dc928a7a3e3dbc0de104dab96c4e929d3e53ec15386f7f9450ce49a24ecbd918fcb2aa5a1e1d9c2dc124fa994c6eb2bd1e73cc35184f5fb470ee29c22eabb9789cd2ca3a7e7dfc4da1449af92c0ed2dd7e13ac55782f3fd4108e09e20e8b9958bcf2ea1a5e5ddc6d8164bad90c2ef2fd5e338c75580f1ff430aee902ee6b79b85c120afabebd3c8d61845a39ecce121dbed36c95b8efff14d04ec922ce4b59987c322ada9e9d1cad41a47a19ccee323d9ef34cb598cfdf34f06ea942ae2b39f81c524abafefd7ccd21c41a79ac8e525dfe932cd5f8afbf54900e89628e0b19d83c726a9adedd5ced01e43a598cae727ddeb30cf5d88f9f74b02e69826eebf938dc928a7a3e3dbc0de104dab96c4e929d3e53ec15386f7f9450ce49a24ecbd918fcb2aa5a1e1d9c2dc124fa994c6eb2bd1e73cc35184f5fb470ee29c22eabb9789cd2ca3a7e7dfc4da1449af92c0ed2dd7e13ac55782f3fd4108e09e20e8b9958bcf2ea1a5e5ddc6d8164bad90c2ef2fd5e338c75580f1ff430aee902ee6b79b85c120afabebd3c8d61845a39ecce121dbed36c95b8efff14d04ec922ce4b59987c322ada9e9d1cad41a47a19ccee323d9ef34cb598cfdf34f06ea942ae2b39f81c524abafefd7ccd21c41a79ac8e525dfe932cd5f8afbf54900e89628e0b19d83c726a9adedd5ced01e43a598cae727ddeb30cf5d88f9f74b02e69826eebf938dc928a7a3e3dbc0de104dab96c4e929d3e53ec15386f7f9450ce49a24ecbd918fcb2aa5a1e1d9c2dc124fa994c6eb2bd1e73cc35184f5fb470ee29c22eabb9789cd2ca3a7e7dfc4da1449af92c0ed2dd7e13ac55782f3fd4108e09e20e8b9958bcf2ea1a5e5ddc6d8164bad90c2ef2fd5e338c75580f1ff430aee902ee6b79b85c120afabebd3c8d61845a39ecce121dbed36c95b8efff14d04ec922ce4b59987c322ada9e9d1cad41a47a19ccee323d9ef34cb598cfdf34f06ea942ae2b39f81c524abafefd7ccd21c41a79ac8e525dfe932cd5f8afbf54900e89628e0b19d83c726a9adedd5ced01e43a598cae727ddeb30cf5d88f9f74b02e69826eebf938dc928a7a3e3dbc0de104dab96c4e929d3e53ec15386f7f9450ce49a24ecbd918fcb2aa5a1e1d9c2dc124fa994c6eb2bd1e73cc35184f5fb470ee29c22eabb9789cd2ca3a7e7dfc4da1449af92c0ed2dd7e13ac55782f3fd4108e09e20e8b9958bcf2ea1a5e5ddc6d8164bad90c2ef2fd5e338c75580f1ff430aee902ee6b79b85c120afabebd3c8d61845a39ecce121dbed36c95b8efff14d04ec922ce4b59987c322ada9e9d1cad41a47a19ccee323d9ef34cb598cfdf34f06ea942ae2b39f81c524abafefd7ccd21c41a79ac8e525dfe932cd5f8afbf54900e89628e0b19d83c726a9adedd5ced01e43a598cae727ddeb30cf5d88f9f74b02e69826eebf938dc928a7a3e3dbc0de104479332b0efdf8b5e08b7846c10e702a76d4e2c4e5a69b28e3422a75d5e34d558",
        "hex": "6a20797c2461ce1388504a432a6121ab78c11a19afa3fd324fb70193b58b460f8ce04db004e902ee6b79b85c120afabebd3c8d61845a39ecce121dbed36c95b8efff14d04ec922ce4b59987c322ada9e9d1cad41a47a19ccee323d9ef34cb598cfdf34f06ea942ae2b39f81c524abafefd7ccd21c41a79ac8e525dfe932cd5f8afbf54900e89628e0b19d83c726a9adedd5ced01e43a598cae727ddeb30cf5d88f9f74b02e69826eebf938dc928a7a3e3dbc0de104dab96c4e929d3e53ec15386f7f9450ce49a24ecbd918fcb2aa5a1e1d9c2dc124fa994c6eb2bd1e73cc35184f5fb470ee29c22eabb9789cd2ca3a7e7dfc4da1449af92c0ed2dd7e13ac55782f3fd4108e09e20e8b9958bcf2ea1a5e5ddc6d8164bad90c2ef2fd5e338c75580f1ff430aee902ee6b79b85c120afabebd3c8d61845a39ecce121dbed36c95b8efff14d04ec922ce4b59987c322ada9e9d1cad41a47a19ccee323d9ef34cb598cfdf34f06ea942ae2b39f81c524abafefd7ccd21c41a79ac8e525dfe932cd5f8afbf54900e89628e0b19d83c726a9adedd5ced01e43a598cae727ddeb30cf5d88f9f74b02e69826eebf938dc928a7a3e3dbc0de104dab96c4e929d3e53ec15386f7f9450ce49a24ecbd918fcb2aa5a1e1d9c2dc124fa994c6eb2bd1e73cc35184f5fb470ee29c22eabb9789cd2ca3a7e7dfc4da1449af92c0ed2dd7e13ac55782f3fd4108e09e20e8b9958bcf2ea1a5e5ddc6d8164bad90c2ef2fd5e338c75580f1ff430aee902ee6b79b85c120afabebd3c8d61845a39ecce121dbed36c95b8efff14d04ec922ce4b59987c322ada9e9d1cad41a47a19ccee323d9ef34cb598cfdf34f06ea942ae2b39f81c524abafefd7ccd21c41a79ac8e525dfe932cd5f8afbf54900e89628e0b19d83c726a9adedd5ced01e43a598cae727ddeb30cf5d88f9f74b02e69826eebf938dc928a7a3e3dbc0de104dab96c4e929d3e53ec15386f7f9450ce49a24ecbd918fcb2aa5a1e1d9c2dc124fa994c6eb2bd1e73cc35184f5fb470ee29c22eabb9789cd2ca3a7e7dfc4da1449af92c0ed2dd7e13ac55782f3fd4108e09e20e8b9958bcf2ea1a5e5ddc6d8164bad90c2ef2fd5e338c75580f1ff430aee902ee6b79b85c120afabebd3c8d61845a39ecce121dbed36c95b8efff14d04ec922ce4b59987c322ada9e9d1cad41a47a19ccee323d9ef34cb598cfdf34f06ea942ae2b39f81c524abafefd7ccd21c41a79ac8e525dfe932cd5f8afbf54900e89628e0b19d83c726a9adedd5ced01e43a598cae727ddeb30cf5d88f9f74b02e69826eebf938dc928a7a3e3dbc0de104dab96c4e929d3e53ec15386f7f9450ce49a24ecbd918fcb2aa5a1e1d9c2dc124fa994c6eb2bd1e73cc35184f5fb470ee29c22eabb9789cd2ca3a7e7dfc4da1449af92c0ed2dd7e13ac55782f3fd4108e09e20e8b9958bcf2ea1a5e5ddc6d8164bad90c2ef2fd5e338c75580f1ff430aee902ee6b79b85c120afabebd3c8d61845a39ecce121dbed36c95b8efff14d04ec922ce4b59987c322ada9e9d1cad41a47a19ccee323d9ef34cb598cfdf34f06ea942ae2b39f81c524abafefd7ccd21c41a79ac8e525dfe932cd5f8afbf54900e89628e0b19d83c726a9adedd5ced01e43a598cae727ddeb30cf5d88f9f74b02e69826eebf938dc928a7a3e3dbc0de104479332b0efdf8b5e08b7846c10e702a76d4e2c4e5a69b28e3422a75d5e34d558",
        "type": "nulldata"
      }
    }
  ],
  "blockhash": "b157fe5006ea74e3e2696296011f5383f171fa956e468cbbd84742f98a1af3af",
  "confirmations": 1,
  "time": 1764179051,
  "blocktime": 1764179051
}