{
  "hex": "01000000000101f20c17c464ec021b571c127199d94070b163fe886666eb63107e98d297b811d70000000000feffffff0200e1f50500000000fdd5046a208353f08258a01649cbe77148fcfee89e8483f594597f34808f4381f6f83f18a44db0043ab771a817ba84fc9594ac256cda3d2be3acdcb62b5fa0ca7031bd989cdd15b91a975188379aa4dcb5b48c054cfa1d0bc38cfc960b7f80ea50119db8bcfd35997af731e857fac4bcd5d4ec652c9a7d6ba3ec9cf66b1fe08a3071fdd8dc9d55f95ad711c877dae49cf5f4cc450cba5d4b83ccbcd64b3fc0aa1051ddf8fcbd75d9ba37f128973a047c15142ca5ec5abdab632c5c36abdf204af0b13d181c5d95399a17d108b71a245c35340c85cc7a9d8b430c7c168bff006ad0911d383c7db519fa77b168d77a443c55546ce5ac1afdeb236c1c76eb9f600ab0f17d585c1dd579da579148f75a641c75744cc58c3addcb034c3c56cbbf402a90d15d787c3df5593ab771a817ba84fc9594ac256cda3d2be3acdcb62b5fa0ca7031bd989cdd15b91a975188379aa4dcb5b48c054cfa1d0bc38cfc960b7f80ea50119db8bcfd35997af731e857fac4bcd5d4ec652c9a7d6ba3ec9cf66b1fe08a3071fdd8dc9d55f95ad711c877dae49cf5f4cc450cba5d4b83ccbcd64b3fc0aa1051ddf8fcbd75d9ba37f128973a047c15142ca5ec5abdab632c5c36abdf204af0b13d181c5d95399a17d108b71a245c35340c85cc7a9d8b430c7c168bff006ad0911d383c7db519fa77b168d77a443c55546ce5ac1afdeb236c1c76eb9f600ab0f17d585c1dd579da579148f75a641c75744cc58c3addcb034c3c56cbbf402a90d15d787c3df5593ab771a817ba84fc9594ac256cda3d2be3acdcb62b5fa0ca7031bd989cdd15b91a975188379aa4dcb5b48c054cfa1d0bc38cfc960b7f80ea50119db8bcfd35997af731e857fac4bcd5d4ec652c9a7d6ba3ec9cf66b1fe08a3071fdd8dc9d55f95ad711c877dae49cf5f4cc450cba5d4b83ccbcd64b3fc0aa1051ddf8fcbd75d9ba37f128973a047c15142ca5ec5abdab632c5c36abdf204af0b13d181c5d95399a17d108b71a245c35340c85cc7a9d8b430c7c168bff006ad0911d383c7db519fa77b168d77a443c55546ce5ac1afdeb236c1c76eb9f600ab0f17d585c1dd579da579148f75a641c75744cc58c3addcb034c3c56cbbf402a90d15d787c3df5593ab771a817ba84fc9594ac256cda3d2be3acdcb62b5fa0ca7031bd989cdd15b91a975188379aa4dcb5b48c054cfa1d0bc38cfc960b7f80ea50119db8bcfd35997af731e857fac4bcd5d4ec652c9a7d6ba3ec9cf66b1fe08a3071fdd8dc9d55f95ad711c877dae49cf5f4cc450cba5d4b83ccbcd64b3fc0aa1051ddf8fcbd75d9ba37f128973a047c15142ca5ec5abdab632c5c36abdf204af0b13d181c5d95399a17d108b71a245c35340c85cc7a9d8b430c7c168bff006ad0911d383c7db519fa77b168d77a443c55546ce5ac1afdeb236c1c76eb9f600ab0f17d585c1dd579da579148f75a641c75744cc58c3addcb034c3c56cbbf402a90d15d787c3df5593ab771a817ba84fc9594ac256cda3d2be3acdcb62b5fa0ca7031bd989cdd15b91a975188379aa4dcb5b48c054cfa1d0bc38cfc960b7f80ea50119db8bcfd35997af731e857fac4bcd5d4ec652c9a7d6ba3ec9cf66b1fe08a3071fdd8dc9d55f95ad711c877dae49cf5f4cc450cba5d4b83ccbcd64b3fc0aa1051ddf8fcbd75d9ba37f128973a047c15142ca5ec5abdab89a761100f921dc100d7d85aa8ced7114e653612c4fa47087f7da6dc24c0b92a407886de782d0000225120eba1842c0f3c631e844a2918a7a6fc33ac5e6aea6afd8e9e6c6fb54426fb708702fd7509e9626a41ff2f63de5d1ff619fbf196f4257ecf5bfd69b5ca8c94f871f067c91432f4bac34ef3043cb2e5ed9e3296caa80aafcf3b08c6a62a2692b1e21e740ed7f1b5b6fe0b3c7fba8da5abcf81f797da75762adec23d5e2a763fbf1e86b8782620f9ad2095765ce2b049bb401ac4f5fbf92507eada06ff5ea54ea11fd0e827fee1093d504e05fbc77fccb6a0a2e5d1068234a0fcb3c8dd2a6bb920548939641fd458bf8027741009e75228dcd2875a50135fd90cfe4e209a8e79195a92bf039ae8dbe4a6fc6dbe5d0e35e98829be93b981dc266c1e093e331de630ab64293a5ac4b9a78d251bd91cd591263627e265eb55fa3375834d4059d91e0d95e0c76cdf1cebe06b8f58f8d8811bbb8db7bd4024f65c44e1c988bd431f7d147352784d6c44f446edfeb61bf7c3dc77a9f8d4a84b418f5a3f4a48055a835e954114f76fd4aabf72fd01663f2a992c4da1010f820d72ad458cc155a0f1d4602a05a3750c854deb70d586177c194b53797c5c53796629a60c61d3cc32ace0eefbbb223e0d49c46448be491864e889dc591145f69430365c709d7c1f8199c18057a6a00ebdbf8a3b6b60fe0b29e5abd4faf5f40bbb1c68f4a2b6d0dbf262078b55b708c6ea083c518dc139e90cb1dc8f39013f9dfe4b89476bd049775c10ee6c0986fa38886279184f24e7fa9cba47c20324e8022a4b1119adfc905e8c97d2cd8aa4fd4ed73659456c0ec13c739e17469630316dd5a37c3fa4bce726ac39a70aa9327cc0b9e9ca4e66ced46f5e66c276a816a0b36159500c6d18d2d81eb1390ddeed3bad4d30857cb1e994afea90a7b43f4dc8106720a34768b8867a6f863e75812ad1c135dc018d38777f12fa6142714a326f9c1af406dd7e221592a567bc852722ba726204655910eb555ab1deb672dd949fb7e15e72a36d6e160036496052bf40b552b501ecabb7d4c1b34837e17f269592b755a218c091d3de65f3708d6b080663da2970df146b8b74df61fbff5c419677c1a89a67894a8f99895d42027205b5e8026d17cfb817928fa4fc364f933980175c1716d10c695f5bcbaad959de0fa76b285f3685f636db43d965dac5f714c93dfe438b64956cffc06000d66c16b05c3357a1529aaace933722ec7b075d88b6dbb0e4ef4d3a9cdbfe0c3cb33c919f5a06555e351b947e5a1fc7491e7853cfda0cad0231d99b251534d78fe0b91253042ada5e041581cd300d4fca64ab0532e8e692d42b323ef69045ca1345e58f8c2f5abab75b54cb52d0ea44775d03f8b4bd2c05588095d7d0f928b077b2eacde4317f4729e50c13a3f39a82b5571559e1c2580994a2349abc9c9b617cc7db00bac65eb75eef4d5d7453cb35f35ea434e009335143742e826a0ab104ab1ee0515325944dce131dc2cd409e924d19c21da3aac89c86fa1c778c968091bb9bab4350e5d7b446b417c6b89c6d2f5df86e09c23a81b5c811118f5fd714f791a0e53de2fed39682e2c673f24889ef1de5c92b74b4c895c123905954ef12cae14e604b1f2c7da198c907838e613bde1699072bb8578a2667c72146db8a62469f5393034a8e069ab4ee7a1ecd51f528637f8437103bdd35269103521a8d5a7a2915a95f821fb602213dc92d636e36129f6c7ad90eb8902884dbc97e4646b31e22fccaa915be62d749c2142d29c1931571f9de22ae87dd6f8136c49e7045b60c9359f6b10bb8a541ef363ce71fb0a1288bcb9875a907ab66af96e604cec046ac25772e6fee6f0499097016278274b92b37ba1e162414ed42b8efa26bcf987847985086783ea7816dcf7f4878ec131a55cde11d1e1f7f3e4b608ac23420373bf8a0c04bb0dfa64100ef4b80df598e5cacc32087efcaef0567a414b49cfe7ed59a5909477fe9ce2cf45a16f3e71efcd1bb61bab525ab441f21344ec78a1bfc6d3c3c9e0d0a8acf9926304e6cc73d5fdce7b9589935f616ce2839d07f4822f5da6d0407c9fba694f4315a7caa8b5bc6033ef3ec171d989df78ad8fb37099076e49030edf9c7c807977f311f5cd5390e2a734cab14981c323b0ebba23a5c005c3a11cadeeb9bdfe6fd248ba56ac65a917566a211ad4ca298a64bca05b38c1e19daa86cbefcb1cbdded8ee333a0ba3fe522c810fd593a10635d8e8e87bf1b50a7dea7a837cae75b46891c1c41024fb7112dc78b8e90379a2b56be8a93e62a5c30f62a71dca3260bfc042131644c564cc02d709e7de0972d3c1a9766ed5e002435eaa248bc4e7657dde808eb3ffc02fd05a9c4ea16d8fc6a76a4a816e82c30fcc13428e4147fc43f2dd70de9bf96b5b019fc78c07c1ad62766e59907a26a725d6e81a6d6e67d392171c0ed13f27cb60cc2fc4d82ddcc56090bdd8294e54b4c577a66b19d9a55d9f916c9052b784b5ef8eb98558bb0db0dd52b2d4e6c787d772932988f91eb99003541be2e9dfe2219e9dfaf05acc0ec28b9cff766ef85965fdd186b272ed6834078a12e77adce285416f3710e198925c77e7b12bd6f9159b7fd924c227c45003d53ecfa944871929e6feca93500635947d97c6c70c4b00b259f8f3a162ff2e4facd348823e19dc1f7fee817a62862659e8db362f567d3c56f2e56d58acb5ca8c479290674159495577c185e5e9ee5bab20afc749ab70154e221addc365c39ae6fb536567c4a88d84253b15acbd4179a95649759daaa8a3b2395eb25ebe14b74210f3af55c522eb2f00025602bb7ae681c14f770b7d060f5e94970f221f3643bf3bc7f5400f82de5208f80f40b9ab42a87fd8676d1763ccaf8b3a4423678d301d8267102b8f3e81c26bb787c94f2c77cba910b36f8d97d1af80e1d122890cc7a63fc4f51a3392455114a347dc52a8c0728701fe3fb16c2dd0c0ce42b3e4cb709e2d24aed8a2aefdaafb03a96c324146376b06a5b6577585d40a3ec3c3a186c4cc3e6fc35731c545bf3bc121019430f1579dd6a31395c960122c389e2a0884d6091f12456877e90e2d882b7f10f0d6e76c979ece4e3f97d5b7d84112092ded1e2707839fdef1e2d459c135649b0dac6bb8ccb4d619d199cb40b711a14fb7f758f39c2842e68bb95355e597a52e3dbd4e3ec74db79d56ce57fe037f53a6e2bb1a645210b82910764d85e52c78ffd742d9aa9b0bf1ce401608db9b0144303c2e96061d6409b7eef18c708dfc5a62f92aaeae5715e8dbb04dff42190e0ea4c68b66508d82aab262c29b97e8858f3fa3d396edb05792b9ed39082f469d09a2314c59ed30da4bf04de68932f9ab521f0ecce7261b71ff31a5ce6d45aea189a648e56970839d574ceb8070c0d0f132d385263686a7585b6bfc5c9ebf9fa03081a1f565d627577858c98b0bdc5d8e1e3ef00242527465060686b7374757b838789b7bac307132f3164768788a0babcc8e5ec0000000000000000001326394701fd210500549b384fc2b975d3b144ff011ae185a96baca754bdbb8007dcb555ff489d991a9608682d2e16db0266e02fbd9879383fa363df5ea1a24118d7008c419f0016742134eec4c98c47c8edb69e6dc39316c40a2deed87b76cf3c2a3ec898cfccc1b41cd6c1a4d81156ed9aa2c2e066f7c10e39d08b3f1b427bba02415726948c5181d70e5f3a9add4948d11b2e6803dd5351a931dc553add3b94c6308add177ab30bbdf5552383de16ec32d6312d45bff45d3e56e4863b139d81eb93f7d3cc51747d917f2b0a406535c01d8cc5c2c644dcb3469c2b51a3cca4b0625e9cb9e1dd10ad27e28a07bc1dbfaeb64e3b61c54ccde5cd67536a1971bf0f84a29da372623d8a148257f23ef6207e8d1ccd54482f347f2e8810afed6d4c331ab64d0ffa016f5a0e188a0aa3662d9dd84fc4239c387a3a1b27e5b1bf74ca12b1f9fe72d2cf142a2d7fdc923dfd8501a59aad6a94dc4151766ed94b7ff51eac406eb650b0c9db828bbaca8b0dd42d83bc8456cca3a9d5a2b7ada99c98c69a614b6954a15222831bad092bdc4e6a6500ec9d82ab8be9b312254eed25a95f35c0924ed51e05bd32e4f64382045511849746e730c1a6ec666e0b92a25ff0c5ea831136b7677fa5e05bd63e4121606af16b5396211017935f770726fa3d2a16fbb3dc77d733e6a8920d7aa7a3af880d67c2113ecac1ee21ee4e6fb77fa578dd89c8f04bf12118c9808d93123a6e50dcaa21192a09e0ccc91f697d1c772b0152264dfdea8e5b44f5951930bd7ffafb6fd95ad0b5bdde409fe44b0cf078dccd8f4fee91b1b40f055dde3b95ee714005b7113cf00f8292e73481426ffeaec07a6ef12fe3bc30365bfffc8059411d351bf772853b0711b99d509daa46442af72bdcc9b5694cd073f586228b2f4d19a25b8b080d15792af97f1d7d50a968c390a055d4e7fb1c19ce0aa4dbd557093edfee6e20a02ce312756697cc9ba0004d1f2a5b6a0ae03ad6f7a20c44c1f321c2f29b1e4464a0770e8da1955fa2f08a8176486b423e2c494ae677ff0768d30b06b1b17754555b6191b8a8f7d11f2afdf30f4b89bc442ab51adcb3ef988900e698b9d056d97921d8d2097b1448df4ea27c13d9cfb9cc957380adc94389ad5943bb7127fa923c600654206749ae85f24955815e7be7926cdad2d0d7428fdfa559344b0c94fb5f12de9c74b6d9d0cb8ec71fc1d14c243356fb47d9b2f6528bc6a888ef1f2377de5c25fd9de49ef4ddfdb3b7305872a4a9cafe81373af6c6df4dcf2a474602fe778a4544901dee9c0b30b99dd67d57bf34c1a6ca0905e09a90835652019d2ff5c19f1b06949bc2bcf442d3cbdafeb48f9140274798afa2c85a618c7ba1566c13635c6aedd3d9d703a2a84b11d5d24053814cc6a7930aa8f5c33ff3a5099c5a174a8ea408c3dbc901b82a1dfbc86a317d0233ac763f9e026f530681b7acd8549da377bd20031fc5c2e3ef9c8ae3694befdcd0c86153e4c5352d627c43cec81b2792fbd6d5e482283d2720dd936cebcd81ff7e25870a5fd71f1158b3cba4bd4756abbf22aa9d21ebd4865361db2f72190001c80e8eb5cc9cb0a87f6cb405f9c2f2d980c4eefad504e16f23b2592fe6e7d58cb226210dc797698072ee2ca7b57a9ca9e37756c493e13f78a60e6c8d87e112674f6fe7b571654197e819cee71125754b9eb032eac284b079f081bd825ed3258a432916f2af4a042f788341e0e2aacdc8e2ffbed69dc0b586fdf0a1a7a9e4e0d23396d2eada105c0aac8933032eb98958d4dbe1e79d36d97d56e7b93400fd2872fe22b1a01b023dbb61134a940fe34ed3c73a37c0f1d7f0d31add2030b56ed8e333da8757c03fb4418a000000",
  "txid": "43c28a751c8e00fe48fd29d9be7923d965d4238dde60edb7bf18972b354ed119",
  "hash": "f548ae21a156dd512a77f4e01f8b24adbdd2a6fcf9c52b44f7d1fe063a591f4f",
  "size": 5085,
  "vsize": 2278,
  "version": 1,
  "locktime": 138,
  "vin": [
    {
      "txid": "d711b897d2987e1063eb666688fe63b17040d99971121c571b02ec64c4170cf2",
      "vout": 0,
      "scriptSig": {
        "asm": "",
        "hex": ""
      },
      "txinwitness": [
        "e9626a41ff2f63de5d1ff619fbf196f4257ecf5bfd69b5ca8c94f871f067c91432f4bac34ef3043cb2e5ed9e3296caa80aafcf3b08c6a62a2692b1e21e740ed7f1b5b6fe0b3c7fba8da5abcf81f797da75762adec23d5e2a763fbf1e86b8782620f9ad2095765ce2b049bb401ac4f5fbf92507eada06ff5ea54ea11fd0e827fee1093d504e05fbc77fccb6a0a2e5d1068234a0fcb3c8dd2a6bb920548939641fd458bf8027741009e75228dcd2875a50135fd90cfe4e209a8e79195a92bf039ae8dbe4a6fc6dbe5d0e35e98829be93b981dc266c1e093e331de630ab64293a5ac4b9a78d251bd91cd591263627e265eb55fa3375834d4059d91e0d95e0c76cdf1cebe06b8f58f8d8811bbb8db7bd4024f65c44e1c988bd431f7d147352784d6c44f446edfeb61bf7c3dc77a9f8d4a84b418f5a3f4a48055a835e954114f76fd4aabf72fd01663f2a992c4da1010f820d72ad458cc155a0f1d4602a05a3750c854deb70d586177c194b53797c5c53796629a60c61d3cc32ace0eefbbb223e0d49c46448be491864e889dc591145f69430365c709d7c1f8199c18057a6a00ebdbf8a3b6b60fe0b29e5abd4faf5f40bbb1c68f4a2b6d0dbf262078b55b708c6ea083c518dc139e90cb1dc8f39013f9dfe4b89476bd049775c10ee6c0986fa38886279184f24e7fa9cba47c20324e8022a4b1119adfc905e8c97d2cd8aa4fd4ed73659456c0ec13c739e17469630316dd5a37c3fa4bce726ac39a70aa9327cc0b9e9ca4e66ced46f5e66c276a816a0b36159500c6d18d2d81eb1390ddeed3bad4d30857cb1e994afea90a7b43f4dc8106720a34768b8867a6f863e75812ad1c135dc018d38777f12fa6142714a326f9c1af406dd7e221592a567bc852722ba726204655910eb555ab1deb672dd949fb7e15e72a36d6e160036496052bf40b552b501ecabb7d4c1b34837e17f269592b755a218c091d3de65f3708d6b080663da2970df146b8b74df61fbff5c419677c1a89a67894a8f99895d42027205b5e8026d17cfb817928fa4fc364f933980175c1716d10c695f5bcbaad959de0fa76b285f3685f636db43d965dac5f714c93dfe438b64956cffc06000d66c16b05c3357a1529aaace933722ec7b075d88b6dbb0e4ef4d3a9cdbfe0c3cb33c919f5a06555e351b947e5a1fc7491e7853cfda0cad0231d99b251534d78fe0b91253042ada5e041581cd300d4fca64ab0532e8e692d42b323ef69045ca1345e58f8c2f5abab75b54cb52d0ea44775d03f8b4bd2c05588095d7d0f928b077b2eacde4317f4729e50c13a3f39a82b5571559e1c2580994a2349abc9c9b617cc7db00bac65eb75eef4d5d7453cb35f35ea434e009335143742e826a0ab104ab1ee0515325944dce131dc2cd409e924d19c21da3aac89c86fa1c778c968091bb9bab4350e5d7b446b417c6b89c6d2f5df86e09c23a81b5c811118f5fd714f791a0e53de2fed39682e2c673f24889ef1de5c92b74b4c895c123905954ef12cae14e604b1f2c7da198c907838e613bde1699072bb8578a2667c72146db8a62469f5393034a8e069ab4ee7a1ecd51f528637f8437103bdd35269103521a8d5a7a2915a95f821fb602213dc92d636e36129f6c7ad90eb8902884dbc97e4646b31e22fccaa915be62d749c2142d29c1931571f9de22ae87dd6f8136c49e7045b60c9359f6b10bb8a541ef363ce71fb0a1288bcb9875a907ab66af96e604cec046ac25772e6fee6f0499097016278274b92b37ba1e162414ed42b8efa26bcf987847985086783ea7816dcf7f4878ec131a55cde11d1e1f7f3e4b608ac23420373bf8a0c04bb0dfa64100ef4b80df598e5cacc32087efcaef0567a414b49cfe7ed59a5909477fe9ce2cf45a16f3e71efcd1bb61bab525ab441f21344ec78a1bfc6d3c3c9e0d0a8acf9926304e6cc73d5fdce7b9589935f616ce2839d07f4822f5da6d0407c9fba694f4315a7caa8b5bc6033ef3ec171d989df78ad8fb37099076e49030edf9c7c807977f311f5cd5390e2a734cab14981c323b0ebba23a5c005c3a11cadeeb9bdfe6fd248ba56ac65a917566a211ad4ca298a64bca05b38c1e19daa86cbefcb1cbdded8ee333a0ba3fe522c810fd593a10635d8e8e87bf1b50a7dea7a837cae75b46891c1c41024fb7112dc78b8e90379a2b56be8a93e62a5c30f62a71dca3260bfc042131644c564cc02d709e7de0972d3c1a9766ed5e002435eaa248bc4e7657dde808eb3ffc02fd05a9c4ea16d8fc6a76a4a816e82c30fcc13428e4147fc43f2dd70de9bf96b5b019fc78c07c1ad62766e59907a26a725d6e81a6d6e67d392171c0ed13f27cb60cc2fc4d82ddcc56090bdd8294e54b4c577a66b19d9a55d9f916c9052b784b5ef8eb98558bb0db0dd52b2d4e6c787d772932988f91eb99003541be2e9dfe2219e9dfaf05acc0ec28b9cff766ef85965fdd186b272ed6834078a12e77adce285416f3710e198925c77e7b12bd6f9159b7fd924c227c45003d53ecfa944871929e6feca93500635947d97c6c70c4b00b259f8f3a162ff2e4facd348823e19dc1f7fee817a62862659e8db362f567d3c56f2e56d58acb5ca8c479290674159495577c185e5e9ee5bab20afc749ab70154e221addc365c39ae6fb536567c4a88d84253b15acbd4179a95649759daaa8a3b2395eb25ebe14b74210f3af55c522eb2f00025602bb7ae681c14f770b7d060f5e94970f221f3643bf3bc7f5400f82de5208f80f40b9ab42a87fd8676d1763ccaf8b3a4423678d301d8267102b8f3e81c26bb787c94f2c77cba910b36f8d97d1af80e1d122890cc7a63fc4f51a3392455114a347dc52a8c0728701fe3fb16c2dd0c0ce42b3e4cb709e2d24aed8a2aefdaafb03a96c324146376b06a5b6577585d40a3ec3c3a186c4cc3e6fc35731c545bf3bc121019430f1579dd6a31395c960122c389e2a0884d6091f12456877e90e2d882b7f10f0d6e76c979ece4e3f97d5b7d84112092ded1e2707839fdef1e2d459c135649b0dac6bb8ccb4d619d199cb40b711a14fb7f758f39c2842e68bb95355e597a52e3dbd4e3ec74db79d56ce57fe037f53a6e2bb1a645210b82910764d85e52c78ffd742d9aa9b0bf1ce401608db9b0144303c2e96061d6409b7eef18c708dfc5a62f92aaeae5715e8dbb04dff42190e0ea4c68b66508d82aab262c29b97e8858f3fa3d396edb05792b9ed39082f469d09a2314c59ed30da4bf04de68932f9ab521f0ecce7261b71ff31a5ce6d45aea189a648e56970839d574ceb8070c0d0f132d385263686a7585b6bfc5c9ebf9fa03081a1f565d627577858c98b0bdc5d8e1e3ef00242527465060686b7374757b838789b7bac307132f3164768788a0babcc8e5ec0000000000000000001326394701",
        "00549b384fc2b975d3b144ff011ae185a96baca754bdbb8007dcb555ff489d991a9608682d2e16db0266e02fbd9879383fa363df5ea1a24118d7008c419f0016742134eec4c98c47c8edb69e6dc39316c40a2deed87b76cf3c2a3ec898cfccc1b41cd6c1a4d81156ed9aa2c2e066f7c10e39d08b3f1b427bba02415726948c5181d70e5f3a9add4948d11b2e6803dd5351a931dc553add3b94c6308add177ab30bbdf5552383de16ec32d6312d45bff45d3e56e4863b139d81eb93f7d3cc51747d917f2b0a406535c01d8cc5c2c644dcb3469c2b51a3cca4b0625e9cb9e1dd10ad27e28a07bc1dbfaeb64e3b61c54ccde5cd67536a1971bf0f84a29da372623d8a148257f23ef6207e8d1ccd54482f347f2e8810afed6d4c331ab64d0ffa016f5a0e188a0aa3662d9dd84fc4239c387a3a1b27e5b1bf74ca12b1f9fe72d2cf142a2d7fdc923dfd8501a59aad6a94dc4151766ed94b7ff51eac406eb650b0c9db828bbaca8b0dd42d83bc8456cca3a9d5a2b7ada99c98c69a614b6954a15222831bad092bdc4e6a6500ec9d82ab8be9b312254eed25a95f35c0924ed51e05bd32e4f64382045511849746e730c1a6ec666e0b92a25ff0c5ea831136b7677fa5e05bd63e4121606af16b5396211017935f770726fa3d2a16fbb3dc77d733e6a8920d7aa7a3af880d67c2113ecac1ee21ee4e6fb77fa578dd89c8f04bf12118c9808d93123a6e50dcaa21192a09e0ccc91f697d1c772b0152264dfdea8e5b44f5951930bd7ffafb6fd95ad0b5bdde409fe44b0cf078dccd8f4fee91b1b40f055dde3b95ee714005b7113cf00f8292e73481426ffeaec07a6ef12fe3bc30365bfffc8059411d351bf772853b0711b99d509daa46442af72bdcc9b5694cd073f586228b2f4d19a25b8b080d15792af97f1d7d50a968c390a055d4e7fb1c19ce0aa4dbd557093edfee6e20a02ce312756697cc9ba0004d1f2a5b6a0ae03ad6f7a20c44c1f321c2f29b1e4464a0770e8da1955fa2f08a8176486b423e2c494ae677ff0768d30b06b1b17754555b6191b8a8f7d11f2afdf30f4b89bc442ab51adcb3ef988900e698b9d056d97921d8d2097b1448df4ea27c13d9cfb9cc957380adc94389ad5943bb7127fa923c600654206749ae85f24955815e7be7926cdad2d0d7428fdfa559344b0c94fb5f12de9c74b6d9d0cb8ec71fc1d14c243356fb47d9b2f6528bc6a888ef1f2377de5c25fd9de49ef4ddfdb3b7305872a4a9cafe81373af6c6df4dcf2a474602fe778a4544901dee9c0b30b99dd67d57bf34c1a6ca0905e09a90835652019d2ff5c19f1b06949bc2bcf442d3cbdafeb48f9140274798afa2c85a618c7ba1566c13635c6aedd3d9d703a2a84b11d5d24053814cc6a7930aa8f5c33ff3a5099c5a174a8ea408c3dbc901b82a1dfbc86a317d0233ac763f9e026f530681b7acd8549da377bd20031fc5c2e3ef9c8ae3694befdcd0c86153e4c5352d627c43cec81b2792fbd6d5e482283d2720dd936cebcd81ff7e25870a5fd71f1158b3cba4bd4756abbf22aa9d21ebd4865361db2f72190001c80e8eb5cc9cb0a87f6cb405f9c2f2d980c4eefad504e16f23b2592fe6e7d58cb226210dc797698072ee2ca7b57a9ca9e37756c493e13f78a60e6c8d87e112674f6fe7b571654197e819cee71125754b9eb032eac284b079f081bd825ed3258a432916f2af4a042f788341e0e2aacdc8e2ffbed69dc0b586fdf0a1a7a9e4e0d23396d2eada105c0aac8933032eb98958d4dbe1e79d36d97d56e7b93400fd2872fe22b1a01b023dbb61134a940fe34ed3c73a37c0f1d7f0d31add2030b56ed8e333da8757c03fb441"
      ],
      "sequence": 4294967294
    }
  ],
  "vout": [
    {
      "value": 1.0,
      "n": 0,
      "scriptPubKey": {
        "asm": "OP_RETURN 8353f08258a01649cbe77148fcfee89e8483f594597f34808f4381f6f83f18a4 3ab771a817ba84fc9594ac256cda3d2be3acdcb62b5fa0ca7031bd989cdd15b91a975188379aa4dcb5b48c054cfa1d0bc38cfc960b7f80ea50119db8bcfd35997af731e857fac4bcd5d4ec652c9a7d6ba3ec9cf66b1fe08a3071fdd8dc9d55f95ad711c877dae49cf5f4cc450cba5d4b83ccbcd64b3fc0aa1051ddf8fcbd75d9ba37f128973a047c15142ca5ec5abdab632c5c36abdf204af0b13d181c5d95399a17d108b71a245c35340c85cc7a9d8b430c7c168bff006ad0911d383c7db519fa77b168d77a443c55546ce5ac1afdeb236c1c76eb9f600ab0f17d585c1dd579da579148f75a641c75744cc58c3addcb034c3c56cbbf402a90d15d787c3df5593ab771a817ba84fc9594ac256cda3d2be3acdcb62b5fa0ca7031bd989cdd15b91a975188379aa4dcb5b48c054cfa1d0bc38cfc960b7f80ea50119db8bcfd35997af731e857fac4bcd5d4ec652c9a7d6ba3ec9cf66b1fe08a3071fdd8dc9d55f95ad711c877dae49cf5f4cc450cba5d4b83ccbcd64b3fc0aa1051ddf8fcbd75d9ba37f128973a047c15142ca5ec5abdab632c5c36abdf204af0b13d181c5d95399a17d108b71a245c35340c85cc7a9d8b430c7c168bff006ad0911d383c7db519fa77b168d77a443c55546ce5ac1afdeb236c1c76eb9f600ab0f17d585c1dd579da579148f75a641c75744cc58c3addcb034c3c56cbbf402a90d15d787c3df5593ab771a817ba84fc9594ac256cda3d2be3acdcb62b5fa0ca7031bd989cdd15b91a975188379aa4dcb5b48c054cfa1d0bc38cfc960b7f80ea50119db8bcfd35997af731e857fac4bcd5d4ec652c9a7d6ba3ec9cf66b1fe08a3071fdd8dc9d55f95ad711c877dae49cf5f4cc450cba5d4b83ccbcd64b3fc0aa1051ddf8fcbd75d9ba37f128973a047c15142ca5ec5abdab632c5c36abdf204af0b13d181c5d95399a17d108b71a245c35340c85cc7a9d8b430c7c168bff006ad0911d383c7db519fa77b168d77a443c55546ce5ac1afdeb236c1c76eb9f600ab0f17d585c1dd579da579148f75a641c75744cc58c3addcb034c3c56cbbf402a90d15d787c3df5593ab771a817ba84fc9594ac256cda3d2be3acdcb62b5fa0ca7031bd989cdd15b91a975188379aa4dcb5b48c054cfa1d0bc38cfc960b7f80ea50119db8bcfd35997af731e857fac4bcd5d4ec652c9a7d6ba3ec9cf66b1fe08a3071fdd8dc9d55f95ad711c877dae49cf5f4cc450cba5d4b83ccbcd64b3fc0aa1051ddf8fcbd75d9ba37f128973a047c15142ca5ec5abdab632c5c36abdf204af0b13d181c5d95399a17d108b71a245c35340c85cc7a9d8b430c7c168bff006ad0911d383c7db519fa77b168d77a443c55546ce5ac1afdeb236c1c76eb9f600ab0f17d585c1dd579da579148f75a641c75744cc58c3addcb034c3c56cbbf402a90d15d787c3df5593ab771a817ba84fc9594ac256cda3d2be3acdcb62b5fa0ca7031bd989cdd15b91a975188379aa4dcb5b48c054cfa1d0bc38cfc960b7f80ea50119db8bcfd35997af731e857fac4bcd5d4ec652c9a7d6ba3ec9cf66b1fe08a3071fdd8dc9d55f95ad711c877dae49cf5f4cc450cba5d4b83ccbcd64b3fc0aa1051ddf8fcbd75d9ba37f128973a047c15142ca5ec5abdab89a761100f921dc100d7d85aa8ced7114e653612c4fa47087f7da6dc24c0b92a",
        "hex": "6a208353f08258a01649cbe77148fcfee89e8483f594597f34808f4381f6f83f18a44db0043ab771a817ba84fc9594ac256cda3d2be3acdcb62b5fa0ca7031bd989cdd15b91a975188379aa4dcb5b48c054cfa1d0bc38cfc960b7f80ea50119db8bcfd35997af731e857fac4bcd5d4ec652c9a7d6ba3ec9cf66b1fe08a3071fdd8dc9d55f95ad711c877dae49cf5f4cc450cba5d4b83ccbcd64b3fc0aa1051ddf8fcbd75d9ba37f128973a047c15142ca5ec5abdab632c5c36abdf204af0b13d181c5d95399a17d108b71a245c35340c85cc7a9d8b430c7c168bff006ad0911d383c7db519fa77b168d77a443c55546ce5ac1afdeb236c1c76eb9f600ab0f17d585c1dd579da579148f75a641c75744cc58c3addcb034c3c56cbbf402a90d15d787c3df5593ab771a817ba84fc9594ac256cda3d2be3acdcb62b5fa0ca7031bd989cdd15b91a975188379aa4dcb5b48c054cfa1d0bc38cfc960b7f80ea50119db8bcfd35997af731e857fac4bcd5d4ec652c9a7d6ba3ec9cf66b1fe08a3071fdd8dc9d55f95ad711c877dae49cf5f4cc450cba5d4b83ccbcd64b3fc0aa1051ddf8fcbd75d9ba37f128973a047c15142ca5ec5abdab632c5c36abdf204af0b13d181c5d95399a17d108b71a245c35340c85cc7a9d8b430c7c168bff006ad0911d383c7db519fa77b168d77a443c55546ce5ac1afdeb236c1c76eb9f600ab0f17d585c1dd579da579148f75a641c75744cc58c3addcb034c3c56cbbf402a90d15d787c3df5593ab771a817ba84fc9594ac256cda3d2be3acdcb62b5fa0ca7031bd989cdd15b91a975188379aa4dcb5b48c054cfa1d0bc38cfc960b7f80ea50119db8bcfd35997af731e857fac4bcd5d4ec652c9a7d6ba3ec9cf66b1fe08a3071fdd8dc9d55f95ad711c877dae49cf5f4cc450cba5d4b83ccbcd64b3fc0aa1051ddf8fcbd75d9ba37f128973a047c15142ca5ec5abdab632c5c36abdf204af0b13d181c5d95399a17d108b71a245c35340c85cc7a9d8b430c7c168bff006ad0911d383c7db519fa77b168d77a443c55546ce5ac1afdeb236c1c76eb9f600ab0f17d585c1dd579da579148f75a641c75744cc58c3addcb034c3c56cbbf402a90d15d787c3df5593ab771a817ba84fc9594ac256cda3d2be3acdcb62b5fa0ca7031bd989cdd15b91a975188379aa4dcb5b48c054cfa1d0bc38cfc960b7f80ea50119db8bcfd35997af731e857fac4bcd5d4ec652c9a7d6ba3ec9cf66b1fe08a3071fdd8dc9d55f95ad711c877dae49cf5f4cc450cba5d4b83ccbcd64b3fc0aa1051ddf8fcbd75d9ba37f128973a047c15142ca5ec5abdab632c5c36abdf204af0b13d181c5d95399a17d108b71a245c35340c85cc7a9d8b430c7c168bff006ad0911d383c7db519fa77b168d77a443c55546ce5ac1afdeb236c1c76eb9f600ab0f17d585c1dd579da579148f75a641c75744cc58c3addcb034c3c56cbbf402a90d15d787c3df5593ab771a817ba84fc9594ac256cda3d2be3acdcb62b5fa0ca7031bd989cdd15b91a975188379aa4dcb5b48c054cfa1d0bc38cfc960b7f80ea50119db8bcfd35997af731e857fac4bcd5d4ec652c9a7d6ba3ec9cf66b1fe08a3071fdd8dc9d55f95ad711c877dae49cf5f4cc450cba5d4b83ccbcd64b3fc0aa1051ddf8fcbd75d9ba37f128973a047c15142ca5ec5abdab89a761100f921dc100d7d85aa8ced7114e653612c4fa47087f7da6dc24c0b92a",
        "type": "nulldata"
      }
    },
    {
      "value": 499971.5268,
      "n": 1,
      "scriptPubKey": {
        "asm": "1 eba1842c0f3c631e844a2918a7a6fc33ac5e6aea6afd8e9e6c6fb54426fb7087",
        "hex": "5120eba1842c0f3c631e844a2918a7a6fc33ac5e6aea6afd8e9e6c6fb54426fb7087",
        "reqSigs": 1,
        "type": "witness_v1_scripthash",
        "addresses": [
          "3QJmnh"
        ]
      }
    }
  ],
  "blockhash": "394f302ff1829b8db869c98f7b64fb5f27cc2b50e933cff1e5bbeae34fa68a80",
  "confirmations": 1,
  "time": 1764183654,
  "blocktime": 1764183654
}