{
  "hex": "010000000001016562b345cf26468367ec713b686a7b9af9a16e5ea181340a9b21bb255e87bdb50100000000feffffff02a020df63792d000022512008f8cbf24cab1df8e672b0bc0a9b77a4ed0a54ef30f26f523249e1067799991d00e1f50500000000fdd5046a20dfe1786f98f71b1253d1f614cc7b84bcf3bf19ad65c993b4fa6eecf67bb4c7934db0045030b057d43cc9d7fc46279f3945e29fdf2231660ec921c41164fc5a650c705870109077f41ce9f7dc6607bf1965c2bfff0211462ee901e43144dc7a452c50781070f017947c8997bc0667df7905a2df9f6271264e8961845124bc1a254c30183050d037b45ca9b79c2647ff592582ffbf4251066ea941a471049c3a056c1038d0b030d754bc49577cc6a71fb9c5621f5fa2b1e68e49a14491e47cdae58cf0d8f09010f7749c69775ce6873f99e5423f7f8291c6ae698164b1c45cfac5acd0f890f0709714fc09173c86e75ff985225f1fe2f1a6ce09e104d1a43c9aa5ccb098b0d050b734dc29371ca6c77fd9a5027f3fc2d186ee29c124f1841cba85ec90b85030b057d43cc9d7fc46279f3945e29fdf2231660ec921c41164fc5a650c705870109077f41ce9f7dc6607bf1965c2bfff0211462ee901e43144dc7a452c50781070f017947c8997bc0667df7905a2df9f6271264e8961845124bc1a254c30183050d037b45ca9b79c2647ff592582ffbf4251066ea941a471049c3a056c1038d0b030d754bc49577cc6a71fb9c5621f5fa2b1e68e49a14491e47cdae58cf0d8f09010f7749c69775ce6873f99e5423f7f8291c6ae698164b1c45cfac5acd0f890f0709714fc09173c86e75ff985225f1fe2f1a6ce09e104d1a43c9aa5ccb098b0d050b734dc29371ca6c77fd9a5027f3fc2d186ee29c124f1841cba85ec90b85030b057d43cc9d7fc46279f3945e29fdf2231660ec921c41164fc5a650c705870109077f41ce9f7dc6607bf1965c2bfff0211462ee901e43144dc7a452c50781070f017947c8997bc0667df7905a2df9f6271264e8961845124bc1a254c30183050d037b45ca9b79c2647ff592582ffbf4251066ea941a471049c3a056c1038d0b030d754bc49577cc6a71fb9c5621f5fa2b1e68e49a14491e47cdae58cf0d8f09010f7749c69775ce6873f99e5423f7f8291c6ae698164b1c45cfac5acd0f890f0709714fc09173c86e75ff985225f1fe2f1a6ce09e104d1a43c9aa5ccb098b0d050b734dc29371ca6c77fd9a5027f3fc2d186ee29c124f1841cba85ec90b85030b057d43cc9d7fc46279f3945e29fdf2231660ec921c41164fc5a650c705870109077f41ce9f7dc6607bf1965c2bfff0211462ee901e43144dc7a452c50781070f017947c8997bc0667df7905a2df9f6271264e8961845124bc1a254c30183050d037b45ca9b79c2647ff592582ffbf4251066ea941a471049c3a056c1038d0b030d754bc49577cc6a71fb9c5621f5fa2b1e68e49a14491e47cdae58cf0d8f09010f7749c69775ce6873f99e5423f7f8291c6ae698164b1c45cfac5acd0f890f0709714fc09173c86e75ff985225f1fe2f1a6ce09e104d1a43c9aa5ccb098b0d050b734dc29371ca6c77fd9a5027f3fc2d186ee29c124f1841cba85ec90b85030b057d43cc9d7fc46279f3945e29fdf2231660ec921c41164fc5a650c705870109077f41ce9f7dc6607bf1965c2bfff0211462ee901e43144dc7a452c50781070f017947c8997bc0667df7905a2df9f6271264e8961845124bc1a254c30183050d037b45ca9b79c2647ff592582ffbf4251066ea941a471049c3a056c1038d0b030d754bc49577cc6a71fb9c5621fac37949bd4773885c8738ca578ce357a132d7f2f9220a79aaf91159dbac1f1a602fd75091edc4772f1e36665b3dd78b8b29108fbfbb66fb25f556b328a5bb9c71be73b2e33ab9394d07acc25242704b0a8a197db92b34dc5c1e4507129e7af58041220916632bfcad84c5981c0c279c0a2faea26b534ae219d246f66e5e5cc6d69738e377ef521081bb0f0b2e664f7cab07fa30d6fc8197f3c66c6bc78284ede4aee5180734933b267ef5d6b7c102288cf4aee42eaee77de31cd1d1dfa02b5debe9547f2ff9c60c8d59f58098fdfdc022560d7a1fc95436f67dd891017c6ebdf909c9e91513017451c8820ea002c0adb50b7d794091aafbe86c17c8a10f399c538616246a9dbd4c11cc800175312a7aed395c080c0edd3692cff607de3b6e4e765eeb342be1a4e4740a481108cf76686d883c9fae480c6320805bc0e0b27c157853699dacc749e23b12b7e03733567a6679eb40b25154977391d9f88e7fcdada187558b2e6e343a88495113911a73958115a18b4d7ef236d9fb48b8348f6f313a3575816408a792587a5484074f2132f9fdadfec90dc6a1947e465d9876e6df0882eed41ed44b9af4cec1c355aa35063f8848bf44894228fbed802df509cf786a7b79d9c0a724ae127a4950c6a3f6144861659122d22e2290cba60678acc051a6c19efd99cceb4935d5419441364e54ff647d835cc4869ce6764a3cc153b5e9cdb2c88ae8c3c10fd3dfa817e2d7451c21fc33b30deee2c70b92596dfdf92b2d1c5e7d4770cce8d3ad21c9b7a50b021b7ff76fedeb433c022cf0e021ec57e3402dbb8f76aa5b2025c1ada51ba284dde87c3a792e31dadc76d8b1a067d7300ac22ef9cf99eef5504c9f58fb0522e82d231ab13266e29cc6b3e4db28ac60787947c79492f14931ae35f9b58d191c4bede57c9100208c5b333c6ca4004de4aaa6c68f4d2c28f6df8d10d4d4276d59f8292420b57f6422cb0576c6bf503551519b4275ce55085eb5ff2ad97c04aaa904e7f3f0e420ad6885cc065a4eb2647e52a6b48b1c0c3f21fa1f56830057b187e8eb45b20fcb1699dcbb0e87c25126630fdc884237c444bae7a6563cff4c0bf13a0609dbbf8571b0ea64d52f9e6d9cf854b598dfed508777a3aef4ee16cc95e3c0d0b01513e30ab1be5d988f81a9c10d48b610cd169c5e4b9cd6844e99f7110a74f64f18858f9ff5100e8758aff599415cabf373a3bcf99e5d81d66f31636879e1bf5239cecfae34e036a2922688960b9b05ae06e7884e5bcf6e636ad4f1d3b512c3d08a5efafa73990b101ddbb51745dd9b3c52cbdc37d0ede8750a791dccc6f3996477eb18c7a7a341de9def691b902feceeab09401267e35d7e18f588f302ae89e2720f40fd3be23e3f120369ba0ebf5110d967d648b83a029e6fbed203ddffd41ab959a986b99d747ab210f69e9e7ee1d7c6f9ec3ff3bba9c521969e3b0955f72fa54f7b319cdace096daf659891a10c641dd00aca24f584a117bfe811e53a34f0c1f4806b7067cfdf291dcc174e9f8da76c75aa9c33ff647f7e9f452b4ab6c5fbcdb3521fd029a1b34566015eb4a4aa859ada62b2189788edf6459ed5b9f1485c2441ed9800fe3e87222b559c8207976b572f9d2f93512d327d5fa57e621cf9407da1ba408b2d2fbe950892b0897223504cfd28b4349d994d392c8ff922d89abb731c854e1f8fe8e37154dce1ed074cf31e656ee1ab66842b599ea55d4ee310db9ea1eaf4400e2c5f3a115ba411200410e9cfa539f5ee801b31ca2e69e1043fd241d2dca7b8371ca288ccf0036ef6aed56f43cd10917cf831c3da19a1e7603141d76c5f7ac3b3e2f5b7227401ae87eae6f3a4ae82c2ec0db5345d5fd841ccf12ab71e4d0c9415bf263a20c38f9e8547b33d4781f2213ba8b31d5955fce81a08dcd458ddee12cd594c6c926e5c0b7905da035532cb39d5878a2f6eeeb3241a43e0d90cbf8c72e06293cb5e0bfb09b692e9077e8a10a95be2f6a192553c4e36d48ac47fc054378d286585072a797a2dbe9f6621a3218d153f9961fbcfc80cd54208e21c5adebba0102c0c142c35be7be63f6ea0d86e652f71db7b06bcbb8483789156f920df09c9d233cf8b745ac508cce977f3b88422d1cf81b919b428c2bed3010b73989716d6e7154b1b55a85fbd98c5f4c725b0405efb5e951545326a446cc01eb36b999e38676cf6da806fb6ee2426c3bb0df68b537513604a79c4af2b7f62b3df2366684f872edf5de1cf86e0c871dabea5c98e899444fc0b9c7d437602758b56506bc7d992399bda4596864ba073c42fa72158c67195fc01eb8538ddf10b0fc7558a77240bf521cee348ce2e90bacad6d205dcd49df1fd3bdb31cbe47cec02a6b102167b44201bef04d1869c196e80f15a4b0a1f500030beca52cf21a6853b0fe7be694380868e48c273a4e1b014c4e991d0b8b6a6df43ab49bfa33011ce6db3de0f44e7aa7029132c8cbc3fe8a05840523dc4026b9bb5c36179723f59aa5d3119a795c5714cf5eb32863efe188990bfb8672ad54612d502a524c26aeafb474233f5452704c9dba322b402550838e13cda26e150d789bd96f84da51002b986d9d3b90b64fa4b5b83c154eb3d39d9802d9087a9aadf075276fc01a81b3a85a91a91e2125ed64ac4942f2a019e6aec6644bbe3f24850f07bf8af5eaa73e04dbab5f122fd2b4eb8507418d94f3e3b9fa99bd074c637f76a49baa3b57fe25f983ede0bfce832ad2c36e9dd1cf2d5e249245832724dfef0d1ed96526013ac106387687a922b216d29ccf606d62fb3858a4fb9c8bf9393753c9ad793665fce490b28b11de66364586e51a3bd4a939842bd0b8d36cf0c736463c2b087a89eac8a948ffb6e06aee6fc8f4c99a6ef6965240cf437da6522779aa1a7339cafd40483f8e11cbf61492d82690ff1552a9f81c71569d9bfd8e20d6aca065ff39d64bb202c7c5c51afa98d76b945239cb57e7eb8a34ba0fddade8e9e02e7b55fbe9acd97c4aabcbf16f22653d3bf749bfe56851af4cf32337e0fea3388de3920411a98309b3cfee6be57e915e7bdb65247f6e194f4cf1a933c1f0f6719ccbbd60aeaff29808ad315691a9b027de246c5d20d762592b05393f08df5fc4cf636da42c56f03038c81291429b6c9288fc3fde32ca34c310652f67f016171ff10eb80541f91c57ef16a76efbaa43d4852294f2e4d0eb7b79fa579240d57d9653dd34686836de57a8f669c6502f60ec6a8cd96888d7e6a85067c3dea749c03e838561a2c0e2fcd6a6a3d8d9100eca661902031d5131c4738adf888790cdee62ed48dde28f5144269b1d0494e76ce3b2ba5f8aa235dacb0fbaf3cdddf505062d3f444b51525f7698a2a6b4b6d5f9182426333b4c4f586064656a6b848aa5acaeb8c5d7f714424c52536180838d99a8aeb3b4bec1cdd714162a3c4446595d8ebcc1c5dbe40000000000000000001127394701fd210500e112712a912572f9854954b0da28d6682e2ced56198b3d9aabaf6c1b7c108da5c44e2984a2ff4efb8c3295583f32c59b4e33d51864aa74cac98781a2b6da1a44c23df6618c66f8e0a1ed36698743101872695d9c4374d4dfebe11b9ef90dae70df6f5718e7bd1fd10cd8721a6685f89c359d4ff542f5a1ee97f843d2e63e62256829be53c3a502ab0035a4aa109c558e65a1552fe2489c6d4f0448990f02d03308b5e47dee768117ee242c432d1394b55a4aac0c55b7657a2471084f6d2833044076f1c1d1b088baabd2450527aaf656782ab11e7afba53b2ac2f65eb5c9ce10cbbd11d32eb2aa0936f722b382500a4824120eedc72625aa3f8a3ee3ae000c461d5cce748b1313cbf3687971eb495bcef587b80ae316e47a53b6be20ef076c60518359f020840fcdcbc380444560da5b78079d50d2acd523a43b508293779b07b965b7c98ba0b9c7e161fba835d39967142037a363cd124c7d7bd98cfb7a6a5090c16a359d98e84a6ce4e4d782c05ab274d242545e3d146ed3d55cf4dedc9fa0ce3564fb46ee05981ed9bc295f795bb53a5d1eb3c217e7a571286268e4ee5cfe124855f430fd159e8456a8b9c0e9600b369f169dfb50befccdbb2e9c042f7259a22fc2a26cf98f7dd09b7ecd65b9055814fbcfdfd82d79274da3b178dc10f51058f71f04746b26cd79af55ef926356f745364adfdba80571e2e78c16079cd093411aeb9fd438990046de90058ed53828e091056c0d543cf18eed9c91c7358604823f6cd34c969dbfa2e8f2c697dd40e6ecbd0247c8c8d84ab9eb1d58a7d015263df702b487a2128072cff1bd520ce1cedaed664aacbc5827735d85bccd8bda986e5454a45f43519b2ae1269a70df5148bc3917a55e0019dcc5bcce50ad667d6bd2faae784e4dd084c7a5b1a690758f918ac30439fc299741f1b0fc8acfc51f6f816a7cf55e90301c0196b1c07f755e675407ebc719daab05b6fbbcc6fd0a9971327b2ba4681f7a3a0ccab9641e0eba97da72dfdd7e57584507803bae8ab677cc3973fb7a1bd415ac7ffaf89eb40e71538de0d3f9253738f35adb15c77f9b09532b8043f16a203df0514469f77e4608afafb6939fd68bf657aa8ab537b053875b955f2ea7b2f6bc1e37080d7a543e25ae1fbe3e70e178837b189eb3937bce7498e84b53f714f1852421a32b45a5d796d1ba93d717422c64d3eef045dd0a9e6a7620e42be2837dbf266ad8aad7eb5c747cd977dbaf7403157bc0adbd9a35e0b1dedbca9bd965be57142dc37c2e5e34d1f2c58b31af660a15fa592e901f192889a7f862d024dca710df1e10bb37973094218c1989b32b75ead157dc399bd327219ad8e398447516eeb450d9f7d757a65a7c855cd9c193c139064a81605fce86b73e8982d74262f61201d8f89dd6997d989e32f1a9cf7c82f61b2a3d4d6b624bba35a36c44e89fee623d3f0f4fa22ba9f8899bb8c9ca4f3303d33dedca1a422858f705037fdf6701c7658534383ebbf63e5ecd42370b89f28e944f530a2d7c3f56d9fe3686476b59fccae93aba4ebeff2c87134fac392e470617351a280685a7d434f12ba7b45ca4ef4964c16e3c42580ed84cae89e4250bf4f4b297556dc40cae4cb3eed21c8483f46a034c5cbbd2a18b5fc94587def3301b65442b19f201f73c57b3d7fbc454e0e0052fdba5fd0c400281ba371a42f8684c099bb8db7c387a03bc8bae0abbc517877727baa4998209bc70287d95da639b7c5c6edc9bdf07c440ba75d0601f21bd9b200ffbd5f16998535c82a0d9973c628aa9083c8d54d1c88282d662d6a12a02d160d31217a46882a832c0222bb2b8519e1cdebbb552991207b068000000",
  "txid": "45b7aebb83cc6c13c5f21c93b72921afad1b04018ebe9b2e09699bc46831e5cd",
  "hash": "2bafb0fcd231e1ba14cb123cc9fb4f68d73f71347a77aeb734b3d9cffb62cf0d",
  "size": 5085,
  "vsize": 2278,
  "version": 1,
  "locktime": 104,
  "vin": [
    {
      "txid": "b5bd875e25bb219b0a3481a15e6ea1f99a7b6a683b71ec67834626cf45b36265",
      "vout": 1,
      "scriptSig": {
        "asm": "",
        "hex": ""
      },
      "txinwitness": [
        "1edc4772f1e36665b3dd78b8b29108fbfbb66fb25f556b328a5bb9c71be73b2e33ab9394d07acc25242704b0a8a197db92b34dc5c1e4507129e7af58041220916632bfcad84c5981c0c279c0a2faea26b534ae219d246f66e5e5cc6d69738e377ef521081bb0f0b2e664f7cab07fa30d6fc8197f3c66c6bc78284ede4aee5180734933b267ef5d6b7c102288cf4aee42eaee77de31cd1d1dfa02b5debe9547f2ff9c60c8d59f58098fdfdc022560d7a1fc95436f67dd891017c6ebdf909c9e91513017451c8820ea002c0adb50b7d794091aafbe86c17c8a10f399c538616246a9dbd4c11cc800175312a7aed395c080c0edd3692cff607de3b6e4e765eeb342be1a4e4740a481108cf76686d883c9fae480c6320805bc0e0b27c157853699dacc749e23b12b7e03733567a6679eb40b25154977391d9f88e7fcdada187558b2e6e343a88495113911a73958115a18b4d7ef236d9fb48b8348f6f313a3575816408a792587a5484074f2132f9fdadfec90dc6a1947e465d9876e6df0882eed41ed44b9af4cec1c355aa35063f8848bf44894228fbed802df509cf786a7b79d9c0a724ae127a4950c6a3f6144861659122d22e2290cba60678acc051a6c19efd99cceb4935d5419441364e54ff647d835cc4869ce6764a3cc153b5e9cdb2c88ae8c3c10fd3dfa817e2d7451c21fc33b30deee2c70b92596dfdf92b2d1c5e7d4770cce8d3ad21c9b7a50b021b7ff76fedeb433c022cf0e021ec57e3402dbb8f76aa5b2025c1ada51ba284dde87c3a792e31dadc76d8b1a067d7300ac22ef9cf99eef5504c9f58fb0522e82d231ab13266e29cc6b3e4db28ac60787947c79492f14931ae35f9b58d191c4bede57c9100208c5b333c6ca4004de4aaa6c68f4d2c28f6df8d10d4d4276d59f8292420b57f6422cb0576c6bf503551519b4275ce55085eb5ff2ad97c04aaa904e7f3f0e420ad6885cc065a4eb2647e52a6b48b1c0c3f21fa1f56830057b187e8eb45b20fcb1699dcbb0e87c25126630fdc884237c444bae7a6563cff4c0bf13a0609dbbf8571b0ea64d52f9e6d9cf854b598dfed508777a3aef4ee16cc95e3c0d0b01513e30ab1be5d988f81a9c10d48b610cd169c5e4b9cd6844e99f7110a74f64f18858f9ff5100e8758aff599415cabf373a3bcf99e5d81d66f31636879e1bf5239cecfae34e036a2922688960b9b05ae06e7884e5bcf6e636ad4f1d3b512c3d08a5efafa73990b101ddbb51745dd9b3c52cbdc37d0ede8750a791dccc6f3996477eb18c7a7a341de9def691b902feceeab09401267e35d7e18f588f302ae89e2720f40fd3be23e3f120369ba0ebf5110d967d648b83a029e6fbed203ddffd41ab959a986b99d747ab210f69e9e7ee1d7c6f9ec3ff3bba9c521969e3b0955f72fa54f7b319cdace096daf659891a10c641dd00aca24f584a117bfe811e53a34f0c1f4806b7067cfdf291dcc174e9f8da76c75aa9c33ff647f7e9f452b4ab6c5fbcdb3521fd029a1b34566015eb4a4aa859ada62b2189788edf6459ed5b9f1485c2441ed9800fe3e87222b559c8207976b572f9d2f93512d327d5fa57e621cf9407da1ba408b2d2fbe950892b0897223504cfd28b4349d994d392c8ff922d89abb731c854e1f8fe8e37154dce1ed074cf31e656ee1ab66842b599ea55d4ee310db9ea1eaf4400e2c5f3a115ba411200410e9cfa539f5ee801b31ca2e69e1043fd241d2dca7b8371ca288ccf0036ef6aed56f43cd10917cf831c3da19a1e7603141d76c5f7ac3b3e2f5b7227401ae87eae6f3a4ae82c2ec0db5345d5fd841ccf12ab71e4d0c9415bf263a20c38f9e8547b33d4781f2213ba8b31d5955fce81a08dcd458ddee12cd594c6c926e5c0b7905da035532cb39d5878a2f6eeeb3241a43e0d90cbf8c72e06293cb5e0bfb09b692e9077e8a10a95be2f6a192553c4e36d48ac47fc054378d286585072a797a2dbe9f6621a3218d153f9961fbcfc80cd54208e21c5adebba0102c0c142c35be7be63f6ea0d86e652f71db7b06bcbb8483789156f920df09c9d233cf8b745ac508cce977f3b88422d1cf81b919b428c2bed3010b73989716d6e7154b1b55a85fbd98c5f4c725b0405efb5e951545326a446cc01eb36b999e38676cf6da806fb6ee2426c3bb0df68b537513604a79c4af2b7f62b3df2366684f872edf5de1cf86e0c871dabea5c98e899444fc0b9c7d437602758b56506bc7d992399bda4596864ba073c42fa72158c67195fc01eb8538ddf10b0fc7558a77240bf521cee348ce2e90bacad6d205dcd49df1fd3bdb31cbe47cec02a6b102167b44201bef04d1869c196e80f15a4b0a1f500030beca52cf21a6853b0fe7be694380868e48c273a4e1b014c4e991d0b8b6a6df43ab49bfa33011ce6db3de0f44e7aa7029132c8cbc3fe8a05840523dc4026b9bb5c36179723f59aa5d3119a795c5714cf5eb32863efe188990bfb8672ad54612d502a524c26aeafb474233f5452704c9dba322b402550838e13cda26e150d789bd96f84da51002b986d9d3b90b64fa4b5b83c154eb3d39d9802d9087a9aadf075276fc01a81b3a85a91a91e2125ed64ac4942f2a019e6aec6644bbe3f24850f07bf8af5eaa73e04dbab5f122fd2b4eb8507418d94f3e3b9fa99bd074c637f76a49baa3b57fe25f983ede0bfce832ad2c36e9dd1cf2d5e249245832724dfef0d1ed96526013ac106387687a922b216d29ccf606d62fb3858a4fb9c8bf9393753c9ad793665fce490b28b11de66364586e51a3bd4a939842bd0b8d36cf0c736463c2b087a89eac8a948ffb6e06aee6fc8f4c99a6ef6965240cf437da6522779aa1a7339cafd40483f8e11cbf61492d82690ff1552a9f81c71569d9bfd8e20d6aca065ff39d64bb202c7c5c51afa98d76b945239cb57e7eb8a34ba0fddade8e9e02e7b55fbe9acd97c4aabcbf16f22653d3bf749bfe56851af4cf32337e0fea3388de3920411a98309b3cfee6be57e915e7bdb65247f6e194f4cf1a933c1f0f6719ccbbd60aeaff29808ad315691a9b027de246c5d20d762592b05393f08df5fc4cf636da42c56f03038c81291429b6c9288fc3fde32ca34c310652f67f016171ff10eb80541f91c57ef16a76efbaa43d4852294f2e4d0eb7b79fa579240d57d9653dd34686836de57a8f669c6502f60ec6a8cd96888d7e6a85067c3dea749c03e838561a2c0e2fcd6a6a3d8d9100eca661902031d5131c4738adf888790cdee62ed48dde28f5144269b1d0494e76ce3b2ba5f8aa235dacb0fbaf3cdddf505062d3f444b51525f7698a2a6b4b6d5f9182426333b4c4f586064656a6b848aa5acaeb8c5d7f714424c52536180838d99a8aeb3b4bec1cdd714162a3c4446595d8ebcc1c5dbe40000000000000000001127394701",
        "00e112712a912572f9854954b0da28d6682e2ced56198b3d9aabaf6c1b7c108da5c44e2984a2ff4efb8c3295583f32c59b4e33d51864aa74cac98781a2b6da1a44c23df6618c66f8e0a1ed36698743101872695d9c4374d4dfebe11b9ef90dae70df6f5718e7bd1fd10cd8721a6685f89c359d4ff542f5a1ee97f843d2e63e62256829be53c3a502ab0035a4aa109c558e65a1552fe2489c6d4f0448990f02d03308b5e47dee768117ee242c432d1394b55a4aac0c55b7657a2471084f6d2833044076f1c1d1b088baabd2450527aaf656782ab11e7afba53b2ac2f65eb5c9ce10cbbd11d32eb2aa0936f722b382500a4824120eedc72625aa3f8a3ee3ae000c461d5cce748b1313cbf3687971eb495bcef587b80ae316e47a53b6be20ef076c60518359f020840fcdcbc380444560da5b78079d50d2acd523a43b508293779b07b965b7c98ba0b9c7e161fba835d39967142037a363cd124c7d7bd98cfb7a6a5090c16a359d98e84a6ce4e4d782c05ab274d242545e3d146ed3d55cf4dedc9fa0ce3564fb46ee05981ed9bc295f795bb53a5d1eb3c217e7a571286268e4ee5cfe124855f430fd159e8456a8b9c0e9600b369f169dfb50befccdbb2e9c042f7259a22fc2a26cf98f7dd09b7ecd65b9055814fbcfdfd82d79274da3b178dc10f51058f71f04746b26cd79af55ef926356f745364adfdba80571e2e78c16079cd093411aeb9fd438990046de90058ed53828e091056c0d543cf18eed9c91c7358604823f6cd34c969dbfa2e8f2c697dd40e6ecbd0247c8c8d84ab9eb1d58a7d015263df702b487a2128072cff1bd520ce1cedaed664aacbc5827735d85bccd8bda986e5454a45f43519b2ae1269a70df5148bc3917a55e0019dcc5bcce50ad667d6bd2faae784e4dd084c7a5b1a690758f918ac30439fc299741f1b0fc8acfc51f6f816a7cf55e90301c0196b1c07f755e675407ebc719daab05b6fbbcc6fd0a9971327b2ba4681f7a3a0ccab9641e0eba97da72dfdd7e57584507803bae8ab677cc3973fb7a1bd415ac7ffaf89eb40e71538de0d3f9253738f35adb15c77f9b09532b8043f16a203df0514469f77e4608afafb6939fd68bf657aa8ab537b053875b955f2ea7b2f6bc1e37080d7a543e25ae1fbe3e70e178837b189eb3937bce7498e84b53f714f1852421a32b45a5d796d1ba93d717422c64d3eef045dd0a9e6a7620e42be2837dbf266ad8aad7eb5c747cd977dbaf7403157bc0adbd9a35e0b1dedbca9bd965be57142dc37c2e5e34d1f2c58b31af660a15fa592e901f192889a7f862d024dca710df1e10bb37973094218c1989b32b75ead157dc399bd327219ad8e398447516eeb450d9f7d757a65a7c855cd9c193c139064a81605fce86b73e8982d74262f61201d8f89dd6997d989e32f1a9cf7c82f61b2a3d4d6b624bba35a36c44e89fee623d3f0f4fa22ba9f8899bb8c9ca4f3303d33dedca1a422858f705037fdf6701c7658534383ebbf63e5ecd42370b89f28e944f530a2d7c3f56d9fe3686476b59fccae93aba4ebeff2c87134fac392e470617351a280685a7d434f12ba7b45ca4ef4964c16e3c42580ed84cae89e4250bf4f4b297556dc40cae4cb3eed21c8483f46a034c5cbbd2a18b5fc94587def3301b65442b19f201f73c57b3d7fbc454e0e0052fdba5fd0c400281ba371a42f8684c099bb8db7c387a03bc8bae0abbc517877727baa4998209bc70287d95da639b7c5c6edc9bdf07c440ba75d0601f21bd9b200ffbd5f16998535c82a0d9973c628aa9083c8d54d1c88282d662d6a12a02d160d31217a46882a832c0222bb2b8519e1cdebbb552991207b0"
      ],
      "sequence": 4294967294
    }
  ],
  "vout": [
    {
      "value": 499993.8986,
      "n": 0,
      "scriptPubKey": {
        "asm": "1 08f8cbf24cab1df8e672b0bc0a9b77a4ed0a54ef30f26f523249e1067799991d",
        "hex": "512008f8cbf24cab1df8e672b0bc0a9b77a4ed0a54ef30f26f523249e1067799991d",
        "reqSigs": 1,
        "type": "witness_v1_scripthash",
        "addresses": [
          "3QJmnh"
        ]
      }
    },
    {
      "value": 1.0,
      "n": 1,
      "scriptPubKey": {
        "asm": "OP_RETURN dfe1786f98f71b1253d1f614cc7b84bcf3bf19ad65c993b4fa6eecf67bb4c793 5030b057d43cc9d7fc46279f3945e29fdf2231660ec921c41164fc5a650c705870109077f41ce9f7dc6607bf1965c2bfff0211462ee901e43144dc7a452c50781070f017947c8997bc0667df7905a2df9f6271264e8961845124bc1a254c30183050d037b45ca9b79c2647ff592582ffbf4251066ea941a471049c3a056c1038d0b030d754bc49577cc6a71fb9c5621f5fa2b1e68e49a14491e47cdae58cf0d8f09010f7749c69775ce6873f99e5423f7f8291c6ae698164b1c45cfac5acd0f890f0709714fc09173c86e75ff985225f1fe2f1a6ce09e104d1a43c9aa5ccb098b0d050b734dc29371ca6c77fd9a5027f3fc2d186ee29c124f1841cba85ec90b85030b057d43cc9d7fc46279f3945e29fdf2231660ec921c41164fc5a650c705870109077f41ce9f7dc6607bf1965c2bfff0211462ee901e43144dc7a452c50781070f017947c8997bc0667df7905a2df9f6271264e8961845124bc1a254c30183050d037b45ca9b79c2647ff592582ffbf4251066ea941a471049c3a056c1038d0b030d754bc49577cc6a71fb9c5621f5fa2b1e68e49a14491e47cdae58cf0d8f09010f7749c69775ce6873f99e5423f7f8291c6ae698164b1c45cfac5acd0f890f0709714fc09173c86e75ff985225f1fe2f1a6ce09e104d1a43c9aa5ccb098b0d050b734dc29371ca6c77fd9a5027f3fc2d186ee29c124f1841cba85ec90b85030b057d43cc9d7fc46279f3945e29fdf2231660ec921c41164fc5a650c705870109077f41ce9f7dc6607bf1965c2bfff0211462ee901e43144dc7a452c50781070f017947c8997bc0667df7905a2df9f6271264e8961845124bc1a254c30183050d037b45ca9b79c2647ff592582ffbf4251066ea941a471049c3a056c1038d0b030d754bc49577cc6a71fb9c5621f5fa2b1e68e49a14491e47cdae58cf0d8f09010f7749c69775ce6873f99e5423f7f8291c6ae698164b1c45cfac5acd0f890f0709714fc09173c86e75ff985225f1fe2f1a6ce09e104d1a43c9aa5ccb098b0d050b734dc29371ca6c77fd9a5027f3fc2d186ee29c124f1841cba85ec90b85030b057d43cc9d7fc46279f3945e29fdf2231660ec921c41164fc5a650c705870109077f41ce9f7dc6607bf1965c2bfff0211462ee901e43144dc7a452c50781070f017947c8997bc0667df7905a2df9f6271264e8961845124bc1a254c30183050d037b45ca9b79c2647ff592582ffbf4251066ea941a471049c3a056c1038d0b030d754bc49577cc6a71fb9c5621f5fa2b1e68e49a14491e47cdae58cf0d8f09010f7749c69775ce6873f99e5423f7f8291c6ae698164b1c45cfac5acd0f890f0709714fc09173c86e75ff985225f1fe2f1a6ce09e104d1a43c9aa5ccb098b0d050b734dc29371ca6c77fd9a5027f3fc2d186ee29c124f1841cba85ec90b85030b057d43cc9d7fc46279f3945e29fdf2231660ec921c41164fc5a650c705870109077f41ce9f7dc6607bf1965c2bfff0211462ee901e43144dc7a452c50781070f017947c8997bc0667df7905a2df9f6271264e8961845124bc1a254c30183050d037b45ca9b79c2647ff592582ffbf4251066ea941a471049c3a056c1038d0b030d754bc49577cc6a71fb9c5621fac37949bd4773885c8738ca578ce357a132d7f2f9220a79aaf91159dbac1f1a6",
        "hex": "6a20dfe1786f98f71b1253d1f614cc7b84bcf3bf19ad65c993b4fa6eecf67bb4c7934db0045030b057d43cc9d7fc46279f3945e29fdf2231660ec921c41164fc5a650c705870109077f41ce9f7dc6607bf1965c2bfff0211462ee901e43144dc7a452c50781070f017947c8997bc0667df7905a2df9f6271264e8961845124bc1a254c30183050d037b45ca9b79c2647ff592582ffbf4251066ea941a471049c3a056c1038d0b030d754bc49577cc6a71fb9c5621f5fa2b1e68e49a14491e47cdae58cf0d8f09010f7749c69775ce6873f99e5423f7f8291c6ae698164b1c45cfac5acd0f890f0709714fc09173c86e75ff985225f1fe2f1a6ce09e104d1a43c9aa5ccb098b0d050b734dc29371ca6c77fd9a5027f3fc2d186ee29c124f1841cba85ec90b85030b057d43cc9d7fc46279f3945e29fdf2231660ec921c41164fc5a650c705870109077f41ce9f7dc6607bf1965c2bfff0211462ee901e43144dc7a452c50781070f017947c8997bc0667df7905a2df9f6271264e8961845124bc1a254c30183050d037b45ca9b79c2647ff592582ffbf4251066ea941a471049c3a056c1038d0b030d754bc49577cc6a71fb9c5621f5fa2b1e68e49a14491e47cdae58cf0d8f09010f7749c69775ce6873f99e5423f7f8291c6ae698164b1c45cfac5acd0f890f0709714fc09173c86e75ff985225f1fe2f1a6ce09e104d1a43c9aa5ccb098b0d050b734dc29371ca6c77fd9a5027f3fc2d186ee29c124f1841cba85ec90b85030b057d43cc9d7fc46279f3945e29fdf2231660ec921c41164fc5a650c705870109077f41ce9f7dc6607bf1965c2bfff0211462ee901e43144dc7a452c50781070f017947c8997bc0667df7905a2df9f6271264e8961845124bc1a254c30183050d037b45ca9b79c2647ff592582ffbf4251066ea941a471049c3a056c1038d0b030d754bc49577cc6a71fb9c5621f5fa2b1e68e49a14491e47cdae58cf0d8f09010f7749c69775ce6873f99e5423f7f8291c6ae698164b1c45cfac5acd0f890f0709714fc09173c86e75ff985225f1fe2f1a6ce09e104d1a43c9aa5ccb098b0d050b734dc29371ca6c77fd9a5027f3fc2d186ee29c124f1841cba85ec90b85030b057d43cc9d7fc46279f3945e29fdf2231660ec921c41164fc5a650c705870109077f41ce9f7dc6607bf1965c2bfff0211462ee901e43144dc7a452c50781070f017947c8997bc0667df7905a2df9f6271264e8961845124bc1a254c30183050d037b45ca9b79c2647ff592582ffbf4251066ea941a471049c3a056c1038d0b030d754bc49577cc6a71fb9c5621f5fa2b1e68e49a14491e47cdae58cf0d8f09010f7749c69775ce6873f99e5423f7f8291c6ae698164b1c45cfac5acd0f890f0709714fc09173c86e75ff985225f1fe2f1a6ce09e104d1a43c9aa5ccb098b0d050b734dc29371ca6c77fd9a5027f3fc2d186ee29c124f1841cba85ec90b85030b057d43cc9d7fc46279f3945e29fdf2231660ec921c41164fc5a650c705870109077f41ce9f7dc6607bf1965c2bfff0211462ee901e43144dc7a452c50781070f017947c8997bc0667df7905a2df9f6271264e8961845124bc1a254c30183050d037b45ca9b79c2647ff592582ffbf4251066ea941a471049c3a056c1038d0b030d754bc49577cc6a71fb9c5621fac37949bd4773885c8738ca578ce357a132d7f2f9220a79aaf91159dbac1f1a6",
        "type": "nulldata"
      }
    }
  ],
  "blockhash": "32a2d379a33ec88ae1cb3a8a1a44f2d12b76aebf574ecf7ac16b289397ed6cd9",
  "confirmations": 1,
  "time": 1764176557,
  "blocktime": 1764176557
}