{
  "hex": "0100000000010121231619a08fcc0f1956e0a9daeb4fb16007fb172f2571444fb4b287edcd38520000000000feffffff0200e1f50500000000fdd5046a20dd156d038360605fd4cb4529a5dfd599f2ddbbec773cbfdb0c122f99914b1e434db0041cbd6d9f9bdf8f84e874f06372b6c50abc23c42141707ece577a6416bf55c6fb3c9d4dbfbbffafa4c854d0435296e52a9c03e40161505eee775a44369f75e6db5cfd2ddfdb9fcfc4a834b02332f6854afc63846101303e8e173a2456ff1586bb7cdd0dfffbbfefe48814900312d6a56adc43a44121101eae371a0476df35a69b9c3ded1f1b5f0f0468f470e3f236458a3ca344a1c1f0fe4ed7fae4963fd5467bbc1dcd3f3b7f2f2448d450c3d21665aa1c836481e1d0de6ef7dac4b61ff5665bdc7dad5f5b1f4f4428b430a3b27605ca7ce304e181b0be0e97baa4d67f95063bfc5d8d7f7b3f6f6408941083925625ea5cc324c1a1909e2eb79a84f65fb5261b1cbd6d9f9bdf8f84e874f06372b6c50abc23c42141707ece577a6416bf55c6fb3c9d4dbfbbffafa4c854d0435296e52a9c03e40161505eee775a44369f75e6db5cfd2ddfdb9fcfc4a834b02332f6854afc63846101303e8e173a2456ff1586bb7cdd0dfffbbfefe48814900312d6a56adc43a44121101eae371a0476df35a69b9c3ded1f1b5f0f0468f470e3f236458a3ca344a1c1f0fe4ed7fae4963fd5467bbc1dcd3f3b7f2f2448d450c3d21665aa1c836481e1d0de6ef7dac4b61ff5665bdc7dad5f5b1f4f4428b430a3b27605ca7ce304e181b0be0e97baa4d67f95063bfc5d8d7f7b3f6f6408941083925625ea5cc324c1a1909e2eb79a84f65fb5261b1cbd6d9f9bdf8f84e874f06372b6c50abc23c42141707ece577a6416bf55c6fb3c9d4dbfbbffafa4c854d0435296e52a9c03e40161505eee775a44369f75e6db5cfd2ddfdb9fcfc4a834b02332f6854afc63846101303e8e173a2456ff1586bb7cdd0dfffbbfefe48814900312d6a56adc43a44121101eae371a0476df35a69b9c3ded1f1b5f0f0468f470e3f236458a3ca344a1c1f0fe4ed7fae4963fd5467bbc1dcd3f3b7f2f2448d450c3d21665aa1c836481e1d0de6ef7dac4b61ff5665bdc7dad5f5b1f4f4428b430a3b27605ca7ce304e181b0be0e97baa4d67f95063bfc5d8d7f7b3f6f6408941083925625ea5cc324c1a1909e2eb79a84f65fb5261b1cbd6d9f9bdf8f84e874f06372b6c50abc23c42141707ece577a6416bf55c6fb3c9d4dbfbbffafa4c854d0435296e52a9c03e40161505eee775a44369f75e6db5cfd2ddfdb9fcfc4a834b02332f6854afc63846101303e8e173a2456ff1586bb7cdd0dfffbbfefe48814900312d6a56adc43a44121101eae371a0476df35a69b9c3ded1f1b5f0f0468f470e3f236458a3ca344a1c1f0fe4ed7fae4963fd5467bbc1dcd3f3b7f2f2448d450c3d21665aa1c836481e1d0de6ef7dac4b61ff5665bdc7dad5f5b1f4f4428b430a3b27605ca7ce304e181b0be0e97baa4d67f95063bfc5d8d7f7b3f6f6408941083925625ea5cc324c1a1909e2eb79a84f65fb5261b1cbd6d9f9bdf8f84e874f06372b6c50abc23c42141707ece577a6416bf55c6fb3c9d4dbfbbffafa4c854d0435296e52a9c03e40161505eee775a44369f75e6db5cfd2ddfdb9fcfc4a834b02332f6854afc63846101303e8e173a2456ff1586bb7cdd0dfffbbfefe48814900312d6a56adc43a44121101eae371a0476df35a69b9c3ded1f1b5f0f0468f470e3f236458a144fe7389c40ce2c728d3fcb1d0da0e669fee06e84f689b0d01dbd5fc6918c6ec0cc030f792d0000225120203d6825289d1dd72a06f1c37efa8c684bfcb7a67439bbd18b28a1ade3c6574802fd7509694039f1a2f1d6da53d33f474ff45ba37d4df70b8d840688fa39aa7481c41d10b281f95297ab1c3cfc43669240a37630b2baca5c1afe0e43c0f94054f89b8ba2bd7e50ecf944439222f7cf1e206ac80f1f4fa0c5fcb76b226477673da3744c1cb5972f027661bddbfd2b2ef00c22d4c06857fb380fa568405d7e28e293958d78cf1ef4389343850c0e737ec985c4dc409afcdb250246f3de593deb9cee9a24eafdd204b3d5aaf477ffbbf6a75ece4cec7ba32a10e7d2ce4e250eece8df7d4791ddeccc7a024630457fce9e2e4190a8df8d371622715394aaecee7edd7d3755b2f0b2c959a74427365d28be1e8f76793678c3150d467538531dd6c76c6f679d0537750fbae70370bb6477ec997cdf23b834e3f2930749f5e2ac614b78480c5efad5835f788aa8ce1518963d0bab29f4ec1e5854ce7762ca387f5fe32eef8d4ff1901d603ccc571457036fa39b24ebccea8e53d9fe3f995a75b39602e0ada483cee9c941f7cef7424c7bdba65bd25879edd8c08adc328d5574ccd8c0ce81cee45f313c7f556b35355d124ee14d711ccf56f4a553fd0dadcc0646dd5f36ca524e8ae268434dec826b01fe3ef0374281374b493dadd113176c2d7bc915141cc4922095a2c4ac95f86de1fbb822db830fb8a4e91618b9fefe2812640b8228b66878dfd3a46e6015c6450b69729d494f539ffb9e0179b141efe37e995ff610a01d1024f6b0de714a39a9aeea66e335e5a6d7d0154e61b70ba58b43b4d5521968e4e43eff6a2b7c796ec5e82607ee62c73b5b9fbf7d6aecf5d275cf550b7502ca33b7d15943d1d385ebb61f88adeec862842ae6faa564732ece5b034f9a4d3c5f1404ed3a498e758b4509d6d047a1ac41fce18a13aef2f1ca27108c4f09533774486be90fe3d9ff00bb2830ea4812b3933adba691a3a592653e7e88129412d8c5eaf0ae7f124629a091abbe27d7299ab71d355cf22e3e9e0590873f4fce8f67c8077a098cafa872f703f2b9314a633843fdb448b608245974a1a790a0150536f47f854915f144ec3cff0719352e9b3bcec6b2061b946fb934a3549824fb27b3fd542e2ac46a2de2ca65d6bc77220eb20cc7c91576a87398d767eb171e0f1845e4dde5d76891905e5727e3a610b3ea1e561e90f564f0d229733941f638423606331994c1312374da0cdab91c67c420cf4f7eccfe0b6a8afe3647822c6a82917b5e38843fead1fbbec0a996769f2a43e67fcca47bda60507423d24b3cb4ff884c84deba571ad4564665414eb4f1556902d81bfaafe3e46e58d78d2a5839268a797b8cdcd6deaaaae552317d9ffb7fa8704e2bc3ad50ecdd3c5c3897a99a04514e18bf2b5b36796f6147c03ca6bc9f65fa04ad2f76a48956953e8bfc809f0c8bd30566e2f9ab999d905c61d86052bcffe54fcbd03e4e787b1843301f0bbff5bfa7fb565238cf18ebc3808bc1fb23c7134d478089a6d086a7dbe6444280e8a2958c933803062c755fb9a38f4ea7148d226bb1894cfaf6c96cedb016d6f78add3505127521ad17ab7c322687d108360ebf695132de991da431d46ba5982ce1891730d896e0764bfe12f3cd659cc40178059225a723fcbb1744f482d09136349cde73b2279edb4715c2212583a88c0d11fb9543aab32c82f33b730f184147fc61c88f29934254e5ad61c363f38bf57ffef021735ab8ca2249a4267fcade54d9e833047f2ef1b91b53e790860249ca50358eaec0cfcdd6f7abd57fec6c2b65e6d95753220c770ea1eb7782c0de2ef2eaf72b40227c052e7c57da49bc3b3d7a3f2571a91eb75980a52b0230d0e54d9014440d68b8a048997dbfb7bfef5bbfc84c24ad5ab18e9a1c6d101217cd1f9377980e7cf3b370b17dbbe3831e52d1043d3bb77489eff522c948e74ba50f78961743f0215f2dac4d431d4546c32f46b69143bca038a4f85cb17e4a8a95dd509f935e58f263a2fab4e3c2172071accaef0082d5c4ee9a500191b3641a7d4efb43dc9ec86f5c71759bf50bcdc117034745f6ecbce2a6b46d73149ae2b429691e7b03ed58e43d9f99b9247be9e989efcb55c9e35b7a396ba51b5d16892cbaeec40de087f858a8db12e1b839fad28fc0032dc6c946c8daca2e58ff074b2b767a479a90f16b2b61a5fefaf760e35d6203b617bb23066c4fcf02b0a5860d219c9851e646008bec32f2502316e1e6f43574beca0e856b650a8ed999c4a5a1c18613956ad170220c086217a5ed0d2c21f5f650d3b8b13919ca814ba07d4816b6c1faf6fe1d998f223141256732f02d660e0e66d504e8fdf6787442f0a0752b7d1854720ef1a038f3f280fd0f9f0c7ffe575a381433bac7c16b88ce931fa5b2980f0fb681e8478e61e41b563b9cce0ee77c89d13b2ac8a8511a33f62a05a2a4cf14e889bcc0a65e7aefcb0c915197fc8590dab17c0527129a7e7832d99489e04425fb8332a12aadc480052a2b0fe706c731cb15ac006a0a2644ade53fbbb3fe3c1d04f3c780f2c816a2378d33b617fcc3591977c64af6edf3abe0977c5ab7200a67e6e8f2ff884439646349fe70d9a94ffbe8f61f5b2daf2272ba9e28b2f0bfb2d3ce32671aa56ccc7cc0c3c5ae7671f37c56aefae8b5996f95e83a3afb42f72bc2b68b45e980989e79dd9724b51dbd11734f8bbaff7fa118b0b69c186343127bf3e720a2d0f4ef119b5bb0e0f2ee11a220a0d1d16fb91ada86dd7a3bea2029d1446c741667deb93c1c0b7cfd7777053d3f58093b003592fdd9e0d237e1f14d56c84344220a25cf5fb4483da21499b3358613d81df97c99d765b895460536e6e87ab6260acf07531a398ade51733de5df7f185668e8a54c5b26b54909ea90b1f69597e02f917e064a55cb80ba06fdd96849a745b24a9a5f3cce1016f2d7a3f9e970e517a40fb61aac6d9c907d7afbae3137e0cfd6708591d2201d93f1cde766bd4dba68164aec11a62f7b82d3f87ebb390d14f812f97ef4d87fe6c618873de786626f3b929327e56f26f030f504b5fb77696ed186a6015357690c0588f406213f0eb120a9e157740a11017c9d6b0d819e1da603fcd82c1b185f48d02d64e4756f31a22f1d50b1455d5942b26c53499d768aea95aa19dfe1232545f1287500401e3afd81013b8fe8a6be0d3414fde42f1ba0e8bd58a26acf60877cef55d15a9ec7352b2bf62d9b35f87420049a30d8e4536ba062826893456480689c475182e41f186a0eae428344aec882e183d4012bb9bc936f0ee44c06eb53a844522f1a66cb036c3121aedac6d54e5888653661ac07d78e1f25f00dfc31079298d6042d37415e606b808d8f98b5bbbddff0f80e1215254881949598aee3f2171f2655769598b2fd000322303a4d535e72768898aab8b9cdf5f7f9000000000000000000000000000000000000000000000000101c253801fd21050015b5965f8291f3b812f1d26bf11c39687b88babbf6aea73173e36db6b75f95291375fb79c68a11aa45fc334788f9303651489f599a93b6e528cf0e5931337c013851f365b81045382ec2df4f10f20c283ba3cce4fd88d738df1cff1340ab6d4578ff5da62650667940d91c4b9883b69a5161117b2ff37bb7f130b2247bda962bfc356ac090e9ed119e73dd67986f86be379ee9ffabc411280cbadf79c01a801dd381c62e6386c9bbc1b9ae4f132003ec4c6fb90c1a1dfebffbb1708d9d926f52b9a410194fc51b68a811e074f22daddfcfe23af4bde6204bca3323273c4c7431a141a09786470a789a997c954b28c656ebdfd04da4e87464677c38a01fb0ec2b5ea97cd2dcea387ee0c44024254bca7f99741a7e1b6afbe8f0764ebf1dd8531994f4c9cbd840c77c27686ef9a1c31dcb0b4e69718af7a568a29651b2f1d40a85848bab12f51345a52e7d20d3c6c6941e376496d146d8b54c4b79105c6aeb55d7194f28c038bd3269424bf300fc882ae3a464b92658a643fbfa921e1e88e39fcda1667c666440f681aa08c47c48717657996c3e8f7f5a1f4869a2b323b67d9dac08df66c5d08f7777a3e49c5f1c778af2f6297e0b2fdd6490d8787ed2839f213d3f5aeb403ca08c5c27dc59da20e49d7b7431f45d7ae41946f1ebbf21aa64a693f2f1fecd56bcb6bb38f961ce983f725ac5aefb985f9376576c8c53ca8d733cd87229ff98a718cec311b70e9e4bccb5db47ed1bf59161cd66acd6e33248fdb6123dcb778905a353d83be0ede35609c2bb07e7d681c8a01d372c83b567df5ccbbf42f17fc532234452e62be45689cba6553acb512ff4d7a93dd746688f8ce70cc7052dc16ac1a78cb6d8ef5a89740d9fb9fc6205f0842c9a05339a6f00f55f136b37a733329a5d3b98007edaa2bcf9572b343f94e67d5a19ac7206e31dd1770bc93e7c0583aff6caa14de69e211c68b6ed7687d0d7b17908d9cbd597ee30ef25418771d9e89028234b335100177fcfb30671b4cd0eee0cbfbe223085dc909a8e18fe76130df77d31c0bc5c87ef90b5b7044a52c4add1e6e69f8d2094f2c02ee45a6ea1989d99225e50830c79a5c17cd92c5cb1b67c73584bf143f60c4b9a978f602838fffec2c85e7ba585e1df693d3c059fea9d048af804c1d8ebac1ec2ebd37ee5e30b992c534be8469d2416aa044c03cb31e0e2e68fc183a31020e9710a790ea9b5f8027ff0466133733e878c78700d53af86fda909bf37bd32aab7618871b17e4fd408b4f4a1317165e143e0d6d825257b4f51b361ce93b6e696247b95864fb2fec8f81e157bb7c49a695354daccf8e1c634119143a5bf034342747140fdee14b852e324320344fb8de64437391fa4c34d4f083b4c0423c460216da6ff4e028904b160bdd58dc75fa22aae89affe5e753e0e71c0121aa994cf95d21b0c6f1b7cf5cbf2739fcd2abd3d2bd7018132938850728f6c4143c9ce63b9e53e479a7e474b8e5373ae73eff97f7ded549cbda46460fbb2fb77ed431cdd1836586fb14c3eaa51a8fe993347d80b903e972c6b1d2790084f0ffe69447e2f5b6fe80f8cd64ddb7919ee59cdd8f599b05b61908a7bc9f011911b5912e42eded8016c21762e04b35a3d2929a98c1329c9641c2e86a2f778e2e0a5989ebe44c6893d58163a703328a9e8957ef8ec21859275ebd6eec5eb23e507a83ce02fba7a79f968b8bcf35dc9a6fcf45a4dbc831cb712801d3ec252c13793ba42ec82787e13e3375909b68c8d5e94ee3db6233f732b0050ab745e7cc24ad91d556b32b06dce512293d5a59919eff040610acf126e97e0c3feb79efc90079aaff79753a3c2d41dff0f1fc776000000",
  "txid": "48468bc3b12ea2d7504ef3311f1cf508ac2660dc3d1142a3ee30a52dcb951122",
  "hash": "0f2da044013814c59998f20cbd743e85dc81ca61fc9fb8fe9642d5a7f2451cf1",
  "size": 5085,
  "vsize": 2278,
  "version": 1,
  "locktime": 118,
  "vin": [
    {
      "txid": "5238cded87b2b44f4471252f17fb0760b14febdaa9e056190fcc8fa019162321",
      "vout": 0,
      "scriptSig": {
        "asm": "",
        "hex": ""
      },
      "txinwitness": [
        "694039f1a2f1d6da53d33f474ff45ba37d4df70b8d840688fa39aa7481c41d10b281f95297ab1c3cfc43669240a37630b2baca5c1afe0e43c0f94054f89b8ba2bd7e50ecf944439222f7cf1e206ac80f1f4fa0c5fcb76b226477673da3744c1cb5972f027661bddbfd2b2ef00c22d4c06857fb380fa568405d7e28e293958d78cf1ef4389343850c0e737ec985c4dc409afcdb250246f3de593deb9cee9a24eafdd204b3d5aaf477ffbbf6a75ece4cec7ba32a10e7d2ce4e250eece8df7d4791ddeccc7a024630457fce9e2e4190a8df8d371622715394aaecee7edd7d3755b2f0b2c959a74427365d28be1e8f76793678c3150d467538531dd6c76c6f679d0537750fbae70370bb6477ec997cdf23b834e3f2930749f5e2ac614b78480c5efad5835f788aa8ce1518963d0bab29f4ec1e5854ce7762ca387f5fe32eef8d4ff1901d603ccc571457036fa39b24ebccea8e53d9fe3f995a75b39602e0ada483cee9c941f7cef7424c7bdba65bd25879edd8c08adc328d5574ccd8c0ce81cee45f313c7f556b35355d124ee14d711ccf56f4a553fd0dadcc0646dd5f36ca524e8ae268434dec826b01fe3ef0374281374b493dadd113176c2d7bc915141cc4922095a2c4ac95f86de1fbb822db830fb8a4e91618b9fefe2812640b8228b66878dfd3a46e6015c6450b69729d494f539ffb9e0179b141efe37e995ff610a01d1024f6b0de714a39a9aeea66e335e5a6d7d0154e61b70ba58b43b4d5521968e4e43eff6a2b7c796ec5e82607ee62c73b5b9fbf7d6aecf5d275cf550b7502ca33b7d15943d1d385ebb61f88adeec862842ae6faa564732ece5b034f9a4d3c5f1404ed3a498e758b4509d6d047a1ac41fce18a13aef2f1ca27108c4f09533774486be90fe3d9ff00bb2830ea4812b3933adba691a3a592653e7e88129412d8c5eaf0ae7f124629a091abbe27d7299ab71d355cf22e3e9e0590873f4fce8f67c8077a098cafa872f703f2b9314a633843fdb448b608245974a1a790a0150536f47f854915f144ec3cff0719352e9b3bcec6b2061b946fb934a3549824fb27b3fd542e2ac46a2de2ca65d6bc77220eb20cc7c91576a87398d767eb171e0f1845e4dde5d76891905e5727e3a610b3ea1e561e90f564f0d229733941f638423606331994c1312374da0cdab91c67c420cf4f7eccfe0b6a8afe3647822c6a82917b5e38843fead1fbbec0a996769f2a43e67fcca47bda60507423d24b3cb4ff884c84deba571ad4564665414eb4f1556902d81bfaafe3e46e58d78d2a5839268a797b8cdcd6deaaaae552317d9ffb7fa8704e2bc3ad50ecdd3c5c3897a99a04514e18bf2b5b36796f6147c03ca6bc9f65fa04ad2f76a48956953e8bfc809f0c8bd30566e2f9ab999d905c61d86052bcffe54fcbd03e4e787b1843301f0bbff5bfa7fb565238cf18ebc3808bc1fb23c7134d478089a6d086a7dbe6444280e8a2958c933803062c755fb9a38f4ea7148d226bb1894cfaf6c96cedb016d6f78add3505127521ad17ab7c322687d108360ebf695132de991da431d46ba5982ce1891730d896e0764bfe12f3cd659cc40178059225a723fcbb1744f482d09136349cde73b2279edb4715c2212583a88c0d11fb9543aab32c82f33b730f184147fc61c88f29934254e5ad61c363f38bf57ffef021735ab8ca2249a4267fcade54d9e833047f2ef1b91b53e790860249ca50358eaec0cfcdd6f7abd57fec6c2b65e6d95753220c770ea1eb7782c0de2ef2eaf72b40227c052e7c57da49bc3b3d7a3f2571a91eb75980a52b0230d0e54d9014440d68b8a048997dbfb7bfef5bbfc84c24ad5ab18e9a1c6d101217cd1f9377980e7cf3b370b17dbbe3831e52d1043d3bb77489eff522c948e74ba50f78961743f0215f2dac4d431d4546c32f46b69143bca038a4f85cb17e4a8a95dd509f935e58f263a2fab4e3c2172071accaef0082d5c4ee9a500191b3641a7d4efb43dc9ec86f5c71759bf50bcdc117034745f6ecbce2a6b46d73149ae2b429691e7b03ed58e43d9f99b9247be9e989efcb55c9e35b7a396ba51b5d16892cbaeec40de087f858a8db12e1b839fad28fc0032dc6c946c8daca2e58ff074b2b767a479a90f16b2b61a5fefaf760e35d6203b617bb23066c4fcf02b0a5860d219c9851e646008bec32f2502316e1e6f43574beca0e856b650a8ed999c4a5a1c18613956ad170220c086217a5ed0d2c21f5f650d3b8b13919ca814ba07d4816b6c1faf6fe1d998f223141256732f02d660e0e66d504e8fdf6787442f0a0752b7d1854720ef1a038f3f280fd0f9f0c7ffe575a381433bac7c16b88ce931fa5b2980f0fb681e8478e61e41b563b9cce0ee77c89d13b2ac8a8511a33f62a05a2a4cf14e889bcc0a65e7aefcb0c915197fc8590dab17c0527129a7e7832d99489e04425fb8332a12aadc480052a2b0fe706c731cb15ac006a0a2644ade53fbbb3fe3c1d04f3c780f2c816a2378d33b617fcc3591977c64af6edf3abe0977c5ab7200a67e6e8f2ff884439646349fe70d9a94ffbe8f61f5b2daf2272ba9e28b2f0bfb2d3ce32671aa56ccc7cc0c3c5ae7671f37c56aefae8b5996f95e83a3afb42f72bc2b68b45e980989e79dd9724b51dbd11734f8bbaff7fa118b0b69c186343127bf3e720a2d0f4ef119b5bb0e0f2ee11a220a0d1d16fb91ada86dd7a3bea2029d1446c741667deb93c1c0b7cfd7777053d3f58093b003592fdd9e0d237e1f14d56c84344220a25cf5fb4483da21499b3358613d81df97c99d765b895460536e6e87ab6260acf07531a398ade51733de5df7f185668e8a54c5b26b54909ea90b1f69597e02f917e064a55cb80ba06fdd96849a745b24a9a5f3cce1016f2d7a3f9e970e517a40fb61aac6d9c907d7afbae3137e0cfd6708591d2201d93f1cde766bd4dba68164aec11a62f7b82d3f87ebb390d14f812f97ef4d87fe6c618873de786626f3b929327e56f26f030f504b5fb77696ed186a6015357690c0588f406213f0eb120a9e157740a11017c9d6b0d819e1da603fcd82c1b185f48d02d64e4756f31a22f1d50b1455d5942b26c53499d768aea95aa19dfe1232545f1287500401e3afd81013b8fe8a6be0d3414fde42f1ba0e8bd58a26acf60877cef55d15a9ec7352b2bf62d9b35f87420049a30d8e4536ba062826893456480689c475182e41f186a0eae428344aec882e183d4012bb9bc936f0ee44c06eb53a844522f1a66cb036c3121aedac6d54e5888653661ac07d78e1f25f00dfc31079298d6042d37415e606b808d8f98b5bbbddff0f80e1215254881949598aee3f2171f2655769598b2fd000322303a4d535e72768898aab8b9cdf5f7f9000000000000000000000000000000000000000000000000101c253801",
        "0015b5965f8291f3b812f1d26bf11c39687b88babbf6aea73173e36db6b75f95291375fb79c68a11aa45fc334788f9303651489f599a93b6e528cf0e5931337c013851f365b81045382ec2df4f10f20c283ba3cce4fd88d738df1cff1340ab6d4578ff5da62650667940d91c4b9883b69a5161117b2ff37bb7f130b2247bda962bfc356ac090e9ed119e73dd67986f86be379ee9ffabc411280cbadf79c01a801dd381c62e6386c9bbc1b9ae4f132003ec4c6fb90c1a1dfebffbb1708d9d926f52b9a410194fc51b68a811e074f22daddfcfe23af4bde6204bca3323273c4c7431a141a09786470a789a997c954b28c656ebdfd04da4e87464677c38a01fb0ec2b5ea97cd2dcea387ee0c44024254bca7f99741a7e1b6afbe8f0764ebf1dd8531994f4c9cbd840c77c27686ef9a1c31dcb0b4e69718af7a568a29651b2f1d40a85848bab12f51345a52e7d20d3c6c6941e376496d146d8b54c4b79105c6aeb55d7194f28c038bd3269424bf300fc882ae3a464b92658a643fbfa921e1e88e39fcda1667c666440f681aa08c47c48717657996c3e8f7f5a1f4869a2b323b67d9dac08df66c5d08f7777a3e49c5f1c778af2f6297e0b2fdd6490d8787ed2839f213d3f5aeb403ca08c5c27dc59da20e49d7b7431f45d7ae41946f1ebbf21aa64a693f2f1fecd56bcb6bb38f961ce983f725ac5aefb985f9376576c8c53ca8d733cd87229ff98a718cec311b70e9e4bccb5db47ed1bf59161cd66acd6e33248fdb6123dcb778905a353d83be0ede35609c2bb07e7d681c8a01d372c83b567df5ccbbf42f17fc532234452e62be45689cba6553acb512ff4d7a93dd746688f8ce70cc7052dc16ac1a78cb6d8ef5a89740d9fb9fc6205f0842c9a05339a6f00f55f136b37a733329a5d3b98007edaa2bcf9572b343f94e67d5a19ac7206e31dd1770bc93e7c0583aff6caa14de69e211c68b6ed7687d0d7b17908d9cbd597ee30ef25418771d9e89028234b335100177fcfb30671b4cd0eee0cbfbe223085dc909a8e18fe76130df77d31c0bc5c87ef90b5b7044a52c4add1e6e69f8d2094f2c02ee45a6ea1989d99225e50830c79a5c17cd92c5cb1b67c73584bf143f60c4b9a978f602838fffec2c85e7ba585e1df693d3c059fea9d048af804c1d8ebac1ec2ebd37ee5e30b992c534be8469d2416aa044c03cb31e0e2e68fc183a31020e9710a790ea9b5f8027ff0466133733e878c78700d53af86fda909bf37bd32aab7618871b17e4fd408b4f4a1317165e143e0d6d825257b4f51b361ce93b6e696247b95864fb2fec8f81e157bb7c49a695354daccf8e1c634119143a5bf034342747140fdee14b852e324320344fb8de64437391fa4c34d4f083b4c0423c460216da6ff4e028904b160bdd58dc75fa22aae89affe5e753e0e71c0121aa994cf95d21b0c6f1b7cf5cbf2739fcd2abd3d2bd7018132938850728f6c4143c9ce63b9e53e479a7e474b8e5373ae73eff97f7ded549cbda46460fbb2fb77ed431cdd1836586fb14c3eaa51a8fe993347d80b903e972c6b1d2790084f0ffe69447e2f5b6fe80f8cd64ddb7919ee59cdd8f599b05b61908a7bc9f011911b5912e42eded8016c21762e04b35a3d2929a98c1329c9641c2e86a2f778e2e0a5989ebe44c6893d58163a703328a9e8957ef8ec21859275ebd6eec5eb23e507a83ce02fba7a79f968b8bcf35dc9a6fcf45a4dbc831cb712801d3ec252c13793ba42ec82787e13e3375909b68c8d5e94ee3db6233f732b0050ab745e7cc24ad91d556b32b06dce512293d5a59919eff040610acf126e97e0c3feb79efc90079aaff79753a3c2d41dff0f1fc7"
      ],
      "sequence": 4294967294
    }
  ],
  "vout": [
    {
      "value": 1.0,
      "n": 0,
      "scriptPubKey": {
        "asm": "OP_RETURN dd156d038360605fd4cb4529a5dfd599f2ddbbec773cbfdb0c122f99914b1e43 1cbd6d9f9bdf8f84e874f06372b6c50abc23c42141707ece577a6416bf55c6fb3c9d4dbfbbffafa4c854d0435296e52a9c03e40161505eee775a44369f75e6db5cfd2ddfdb9fcfc4a834b02332f6854afc63846101303e8e173a2456ff1586bb7cdd0dfffbbfefe48814900312d6a56adc43a44121101eae371a0476df35a69b9c3ded1f1b5f0f0468f470e3f236458a3ca344a1c1f0fe4ed7fae4963fd5467bbc1dcd3f3b7f2f2448d450c3d21665aa1c836481e1d0de6ef7dac4b61ff5665bdc7dad5f5b1f4f4428b430a3b27605ca7ce304e181b0be0e97baa4d67f95063bfc5d8d7f7b3f6f6408941083925625ea5cc324c1a1909e2eb79a84f65fb5261b1cbd6d9f9bdf8f84e874f06372b6c50abc23c42141707ece577a6416bf55c6fb3c9d4dbfbbffafa4c854d0435296e52a9c03e40161505eee775a44369f75e6db5cfd2ddfdb9fcfc4a834b02332f6854afc63846101303e8e173a2456ff1586bb7cdd0dfffbbfefe48814900312d6a56adc43a44121101eae371a0476df35a69b9c3ded1f1b5f0f0468f470e3f236458a3ca344a1c1f0fe4ed7fae4963fd5467bbc1dcd3f3b7f2f2448d450c3d21665aa1c836481e1d0de6ef7dac4b61ff5665bdc7dad5f5b1f4f4428b430a3b27605ca7ce304e181b0be0e97baa4d67f95063bfc5d8d7f7b3f6f6408941083925625ea5cc324c1a1909e2eb79a84f65fb5261b1cbd6d9f9bdf8f84e874f06372b6c50abc23c42141707ece577a6416bf55c6fb3c9d4dbfbbffafa4c854d0435296e52a9c03e40161505eee775a44369f75e6db5cfd2ddfdb9fcfc4a834b02332f6854afc63846101303e8e173a2456ff1586bb7cdd0dfffbbfefe48814900312d6a56adc43a44121101eae371a0476df35a69b9c3ded1f1b5f0f0468f470e3f236458a3ca344a1c1f0fe4ed7fae4963fd5467bbc1dcd3f3b7f2f2448d450c3d21665aa1c836481e1d0de6ef7dac4b61ff5665bdc7dad5f5b1f4f4428b430a3b27605ca7ce304e181b0be0e97baa4d67f95063bfc5d8d7f7b3f6f6408941083925625ea5cc324c1a1909e2eb79a84f65fb5261b1cbd6d9f9bdf8f84e874f06372b6c50abc23c42141707ece577a6416bf55c6fb3c9d4dbfbbffafa4c854d0435296e52a9c03e40161505eee775a44369f75e6db5cfd2ddfdb9fcfc4a834b02332f6854afc63846101303e8e173a2456ff1586bb7cdd0dfffbbfefe48814900312d6a56adc43a44121101eae371a0476df35a69b9c3ded1f1b5f0f0468f470e3f236458a3ca344a1c1f0fe4ed7fae4963fd5467bbc1dcd3f3b7f2f2448d450c3d21665aa1c836481e1d0de6ef7dac4b61ff5665bdc7dad5f5b1f4f4428b430a3b27605ca7ce304e181b0be0e97baa4d67f95063bfc5d8d7f7b3f6f6408941083925625ea5cc324c1a1909e2eb79a84f65fb5261b1cbd6d9f9bdf8f84e874f06372b6c50abc23c42141707ece577a6416bf55c6fb3c9d4dbfbbffafa4c854d0435296e52a9c03e40161505eee775a44369f75e6db5cfd2ddfdb9fcfc4a834b02332f6854afc63846101303e8e173a2456ff1586bb7cdd0dfffbbfefe48814900312d6a56adc43a44121101eae371a0476df35a69b9c3ded1f1b5f0f0468f470e3f236458a144fe7389c40ce2c728d3fcb1d0da0e669fee06e84f689b0d01dbd5fc6918c6e",
        "hex": "6a20dd156d038360605fd4cb4529a5dfd599f2ddbbec773cbfdb0c122f99914b1e434db0041cbd6d9f9bdf8f84e874f06372b6c50abc23c42141707ece577a6416bf55c6fb3c9d4dbfbbffafa4c854d0435296e52a9c03e40161505eee775a44369f75e6db5cfd2ddfdb9fcfc4a834b02332f6854afc63846101303e8e173a2456ff1586bb7cdd0dfffbbfefe48814900312d6a56adc43a44121101eae371a0476df35a69b9c3ded1f1b5f0f0468f470e3f236458a3ca344a1c1f0fe4ed7fae4963fd5467bbc1dcd3f3b7f2f2448d450c3d21665aa1c836481e1d0de6ef7dac4b61ff5665bdc7dad5f5b1f4f4428b430a3b27605ca7ce304e181b0be0e97baa4d67f95063bfc5d8d7f7b3f6f6408941083925625ea5cc324c1a1909e2eb79a84f65fb5261b1cbd6d9f9bdf8f84e874f06372b6c50abc23c42141707ece577a6416bf55c6fb3c9d4dbfbbffafa4c854d0435296e52a9c03e40161505eee775a44369f75e6db5cfd2ddfdb9fcfc4a834b02332f6854afc63846101303e8e173a2456ff1586bb7cdd0dfffbbfefe48814900312d6a56adc43a44121101eae371a0476df35a69b9c3ded1f1b5f0f0468f470e3f236458a3ca344a1c1f0fe4ed7fae4963fd5467bbc1dcd3f3b7f2f2448d450c3d21665aa1c836481e1d0de6ef7dac4b61ff5665bdc7dad5f5b1f4f4428b430a3b27605ca7ce304e181b0be0e97baa4d67f95063bfc5d8d7f7b3f6f6408941083925625ea5cc324c1a1909e2eb79a84f65fb5261b1cbd6d9f9bdf8f84e874f06372b6c50abc23c42141707ece577a6416bf55c6fb3c9d4dbfbbffafa4c854d0435296e52a9c03e40161505eee775a44369f75e6db5cfd2ddfdb9fcfc4a834b02332f6854afc63846101303e8e173a2456ff1586bb7cdd0dfffbbfefe48814900312d6a56adc43a44121101eae371a0476df35a69b9c3ded1f1b5f0f0468f470e3f236458a3ca344a1c1f0fe4ed7fae4963fd5467bbc1dcd3f3b7f2f2448d450c3d21665aa1c836481e1d0de6ef7dac4b61ff5665bdc7dad5f5b1f4f4428b430a3b27605ca7ce304e181b0be0e97baa4d67f95063bfc5d8d7f7b3f6f6408941083925625ea5cc324c1a1909e2eb79a84f65fb5261b1cbd6d9f9bdf8f84e874f06372b6c50abc23c42141707ece577a6416bf55c6fb3c9d4dbfbbffafa4c854d0435296e52a9c03e40161505eee775a44369f75e6db5cfd2ddfdb9fcfc4a834b02332f6854afc63846101303e8e173a2456ff1586bb7cdd0dfffbbfefe48814900312d6a56adc43a44121101eae371a0476df35a69b9c3ded1f1b5f0f0468f470e3f236458a3ca344a1c1f0fe4ed7fae4963fd5467bbc1dcd3f3b7f2f2448d450c3d21665aa1c836481e1d0de6ef7dac4b61ff5665bdc7dad5f5b1f4f4428b430a3b27605ca7ce304e181b0be0e97baa4d67f95063bfc5d8d7f7b3f6f6408941083925625ea5cc324c1a1909e2eb79a84f65fb5261b1cbd6d9f9bdf8f84e874f06372b6c50abc23c42141707ece577a6416bf55c6fb3c9d4dbfbbffafa4c854d0435296e52a9c03e40161505eee775a44369f75e6db5cfd2ddfdb9fcfc4a834b02332f6854afc63846101303e8e173a2456ff1586bb7cdd0dfffbbfefe48814900312d6a56adc43a44121101eae371a0476df35a69b9c3ded1f1b5f0f0468f470e3f236458a144fe7389c40ce2c728d3fcb1d0da0e669fee06e84f689b0d01dbd5fc6918c6e",
        "type": "nulldata"
      }
    },
    {
      "value": 499979.662,
      "n": 1,
      "scriptPubKey": {
        "asm": "1 203d6825289d1dd72a06f1c37efa8c684bfcb7a67439bbd18b28a1ade3c65748",
        "hex": "5120203d6825289d1dd72a06f1c37efa8c684bfcb7a67439bbd18b28a1ade3c65748",
        "reqSigs": 1,
        "type": "witness_v1_scripthash",
        "addresses": [
          "3QJmnh"
        ]
      }
    }
  ],
  "blockhash": "c592ff09702ccc153ea7e0356b0e5a10b37ebf9436b5bd4870b29e5d1c636d36",
  "confirmations": 1,
  "time": 1764179615,
  "blocktime": 1764179615
}