{
  "hex": "01000000000101e01d5899f5d6c0be71e949aae03d58688011b016ef8afc21fccb32aa0dd3aa580100000000feffffff0200e1f50500000000fdd5046a20cf1b19be24f8b13631808b89c867931978e3603ea17d5d8c456f3824a4f12f134db00406d4faa880c2f9b171412dafd81efdbd4efdb8b9091352e44fd1ec26aca2a60326f4da88a0e2d99151610d8ff83edd9d6edd9899293372c46ff1cc068c8286234694bae8c082b9f131016def985ebdfd0ebdf8f9495312a40f91ac66ece2e64366b49ac8e0a299d111214dcfb87e9ddd2e9dd8d9697332842fb18c46ccc2c66386547a2800427931f1c1ad2f589e7d3dce7d38398993d264cf516ca62c222683a6745a0820625911d1e18d0f78be5d1dee5d1819a9b3f244ef714c860c0206a3c6143a6840023971b181ed6f18de3d7d8e3d7879c9d392248f112ce66c6266c3e6341a486022195191a1cd4f38fe1d5dae1d5859e9f3b204af310cc64c4246e306d4faa880c2f9b171412dafd81efdbd4efdb8b9091352e44fd1ec26aca2a60326f4da88a0e2d99151610d8ff83edd9d6edd9899293372c46ff1cc068c8286234694bae8c082b9f131016def985ebdfd0ebdf8f9495312a40f91ac66ece2e64366b49ac8e0a299d111214dcfb87e9ddd2e9dd8d9697332842fb18c46ccc2c66386547a2800427931f1c1ad2f589e7d3dce7d38398993d264cf516ca62c222683a6745a0820625911d1e18d0f78be5d1dee5d1819a9b3f244ef714c860c0206a3c6143a6840023971b181ed6f18de3d7d8e3d7879c9d392248f112ce66c6266c3e6341a486022195191a1cd4f38fe1d5dae1d5859e9f3b204af310cc64c4246e306d4faa880c2f9b171412dafd81efdbd4efdb8b9091352e44fd1ec26aca2a60326f4da88a0e2d99151610d8ff83edd9d6edd9899293372c46ff1cc068c8286234694bae8c082b9f131016def985ebdfd0ebdf8f9495312a40f91ac66ece2e64366b49ac8e0a299d111214dcfb87e9ddd2e9dd8d9697332842fb18c46ccc2c66386547a2800427931f1c1ad2f589e7d3dce7d38398993d264cf516ca62c222683a6745a0820625911d1e18d0f78be5d1dee5d1819a9b3f244ef714c860c0206a3c6143a6840023971b181ed6f18de3d7d8e3d7879c9d392248f112ce66c6266c3e6341a486022195191a1cd4f38fe1d5dae1d5859e9f3b204af310cc64c4246e306d4faa880c2f9b171412dafd81efdbd4efdb8b9091352e44fd1ec26aca2a60326f4da88a0e2d99151610d8ff83edd9d6edd9899293372c46ff1cc068c8286234694bae8c082b9f131016def985ebdfd0ebdf8f9495312a40f91ac66ece2e64366b49ac8e0a299d111214dcfb87e9ddd2e9dd8d9697332842fb18c46ccc2c66386547a2800427931f1c1ad2f589e7d3dce7d38398993d264cf516ca62c222683a6745a0820625911d1e18d0f78be5d1dee5d1819a9b3f244ef714c860c0206a3c6143a6840023971b181ed6f18de3d7d8e3d7879c9d392248f112ce66c6266c3e6341a486022195191a1cd4f38fe1d5dae1d5859e9f3b204af310cc64c4246e306d4faa880c2f9b171412dafd81efdbd4efdb8b9091352e44fd1ec26aca2a60326f4da88a0e2d99151610d8ff83edd9d6edd9899293372c46ff1cc068c8286234694bae8c082b9f131016def985ebdfd0ebdf8f9495312a40f91ac66ece2e64366b49ac8e0a299d111214dcfb87e9ddd2e9dd8d9697332842fb18c46ccc2c66386547a2800427931f1c1ad2f589e7d3df54e5ce8a09cea95c261ff128b1b1e5de0045cbb2a026c165233e545b08d7ab8a077e402792d00002251201d8fb2387b0b3e4a412223533f53cf41343b761bb495975aeb1236b650825df102fd750905a290e0b56b297df2631a09f68554dfcc2f9efe19ab622e8c7df838b5140bd8d3a2aed233324f05f90d78b57b0f01696bfa14e7757c76f7a2b991e2dc52dce9a525ac17723992a0c87822f7c703cc9dfb4d75e32c969deccafd58fbb28c486e4038a6a1bc443b2477feda8afae10bcfe2d7e0eb13358963171ab7d7556f621e3a86e73dacf3b531ea696375cff33faa0299692f2f3d3cd978b4c024dd3dafc73793bd7cdbaa34f7c908ef9df5d86edd54d690e187cf25141db24c22c5e7a039bb13970ea161e48546bf49653abbab3d84dd4fd7c8ccfa5236d11ef0a45c67e6582fbad7fe2131d4150a5db86b6a172ed8da27cc5634daee3fbd7654ca8923dfe4c0890dfebf0c3cb6b45010898a3ee62b89e816e5ae45d2f9104066b1f85439c7a6e5fbfa74ba7636c91a26eff7fdd9b548d200f74dca8accdffa8b5f0fb941fa562f276e97e3ad6e02d2270e819af74acf4649e39777f5b96481d75ef131fb81053c7d86b4bedf0032d548cbedf4f8b43b712e0b4a2dcdf4b1918174e3bd5b78610527863d936f290727c2d1c874bd2b4813bfdca311eecf2686f5f9308c0843ab09a69977e2d54e98d2117a4f71fdcaaba5c3b138e9082f9eedd2027df8ad6ccd24a1e88c2f30e4d35050d29460a2376f33c629fdb895dd2e2390a28a810a2995c372e4fe9593880069fb76f77dde7ef4e36fa49e2d9295d47cbd99c2760d18612506bb42c5835123ec12db0aabf03a9b0da522b6f4f57f3e783c19a20d83c3ef0887b5295eacd3e7b2d340a1b07a48967c84a452e8fce8e6dbe75068c7767c810a3f0dad5d3dd6b41b050213f917f92f73b211bf9432d7a0124cfc544efb8e4c67aa826596020332690cf5359d139ecd66acb3847640d6aa9cf6767663371555ff5f51db3dfaa192eb81c22739899231738ada2a903c1e935eed7c30608ec8d8fa674072488b2976c7863b64c2bcdd37939f860cb134822cef76775b2c9cf63a111a31b3a13dc495310416381d35bd9b33144e0f272d14d646b090c1f3e778578720a70f6065eb01392fbe16d9bb29bc56135d7521c218b04a611a03df53b6cafe8058eb356066c18d74d3259f165a8b37a283d9318b70ff949d227aca03593b36b796f0b6984d31f4d014aee0fd8ad2035a8fb3610cedbe956073690914122bf94ab9a1d88dea3317cea1a77978c5b724e874dc7d60400101144a69ace8fc1741621ab970f00a1191b0bbf1a364063bdedc99f80057e5dd76f84676149bfe5dfee371b0b56da2b30378705c897097ceacd8f454d1d08cd699054fc714fe16f98b85dfec5b13a2c911a8b193563bfd6145df17bf7d54bddd9e255e64f3a8e27ff5ab575214bd3f572f443c1073091f5ca346215a09d6fb7e7b06bba9528bbccc7b34778fe848380653120060d09bc2c4ba8bb56ed7ca4e1b5ae3c8f784a060823b8a32d08beab016336f51d5951b11ff143fdb1af68255f85aa42929a014c11d287d079b0ba8e20ee495862530dceb7245867ba2abe7e0c59b2f4606086fa2e7eb5a3bf393e56ad4fa0c1243653cf5d706d5d9d1ccb473d82a26677782858264ab13adfaae2abfd2f54024898f244a85ae4e908f16e3fd1fd798df172a639af81f80d7379bef149569f5efed4ccd85975aa311f7c8f5c8b7e6b9554dc858ed895ffad6ff6e7f6c4aa58e283f7c2031c9e99bad71f4628bef45353ed6c5b074b77cdae4a54f85b6ba06eda05a3f8fc59d6780593a015494de09de8e74e0558f499a0f73e6181ae8bb8f0c8fb463900c5a223ebcecdf6456baaf69bc272869fbc71d7b99e7ead9c51a7db71a0ff0b11cf5da051b6e8c4809c470bef677ca5ecf0ecbdbdbe887416afd417b28e083fd2f80e1bae4953e608a0c1ebab69cc8148335f9a4b3118ee5e6eb0c97b108460efa6f243b9f0f7f61605d6195af20390e96f4b3405c7a3128481c6713df43b61b1781bfbb3c16d2c976dba9c90736aed3cb5df691e71cb87540b3542fab119a09448143f544b6b56c7cf144bd58e51041153bf5e3f1dc959c46d756706a07ca637e251b19259ea622f06239cf4055433229028904f076aaf45f7eb80aa5ee39cc296d65e16879fabf89a87690f07567b07e0fcfef43a26d7610d2e371bcdc46f017821a33b278359ef612d0ec18867053c39c49b7f4b7617a6a5fa88629d29ee4e28e0367ba0270af203207cad0fd856713fa289e9d1c75bb5625f3736580f78fadc7c9322bb74ce7ab4e15ceb3d13c4ca5a845263648088ef6776ff67b86fc088285cfce72f9a3e1e3d3852c53feb26b4035b2606a2a1b0b817450e2bb4e5e7a3176080924ccc1434ab0712a87820764aa9d44741cd057fce1c203363f2071578e0e6c3b32fa55c9d43b5c37009a84a0105371089306c241972048b2326592c19293a9f1ebc3fd146c8776416fbe771e59ec290e23588bd504bf7d0ffe68386b534f3c3e2bf87ded3e7eec14ffe0a1895f66cf92c21e5e8094029560723a3b1635cfedec27b53d1e5b4595f522cd10bd28f04ed15416a2ed7025c5b72a8554e3052160ab22b1623479cc8a6a117e487e91320494c05f5260a091da6ba1afa55f3cc012a1ef8ffd48580a280b8f9cb5edaed47f44ec1348a8eecaa8afbe29e51c2cfcc74c4523e1a036bfcfd2428ec5678d76549595aff72c10de37feb3eb6b838c606a83e92c5b23ae17c09b79e0cccbb0cb09a9499cd58f5f1b5991a6a2dda7feafdf81d23fb177f085a2b30d9a59d5797b62701747d916004852702e6fb2a792c2f0c4989f1dac1781f06a8dce3b9299ec88a8b838dca34bd4f67afd90eaab116bddcb0dd50218a2dba3100e49016f0b6576c8e9f58e3447b6ca08024ab0189dca884ccb539496785a755d5a0682facf9839a6aabe1d8b8a3e53ba53da99706b222e8603e007ef19768cffe43bd7b2492571f89a996bc34ea86265820b461035f3d03a4cfa6b5eb347f7436556a876c02eb45415e571f1be3a7b5720a5e7a0d848bb4ae9d54773c01d7b765e405836a76d583ac8803aaf3e446829b8c6fef861df45963871413ee8a3fde141cbd5e77d07e8a046382e9d147f37f123ec02a99d0fd502d63bd28804c651630aad96128cde5256923ddb1f7ca9772ef345319265e5f2240a8b1bf92184f0ebd0d6a0bdc1da6a0220eff1a6fa837ae81aa63de9b46bae9e5b80693fe78a8e0ad30e377c07493855fe1264c19df2a6c31f468fc3060b740ab5373b8ff0d4c747d3404d69840686a8d025f12aec007aacf4419fc6a07e6df8c6d3d9e419b7f4ae69876c9f0c121618262a5f6a8291959b9fa0a5aabbd7dfe5002c4652545c878ba3acafc4c7dd0f234972757e85a7b0b8ce052b33405c5d7a838bd0fc00000000000000000000000000000000000000000000000014222d3801fd2105006e9e2d19f60c9703d59f1c1d793ccade0a7f5a0650bfb696ae1159b250c15c9d6fa3e3a28f923b706ffcb62de45aefb0e953f206bea5aef32d63a77f8312ca15e24f8e882d25cf7b18addeb74f85882a99d87dea0a1d290da5801e72ecb264b74aa636e40519ec577388543150011d132ce7bd8b723eb8378f01d28e6c9d8bd7f4d0f262fc92dcc35846d770fa3ff526b5596bdf93c3b44e6dd7f0c3da73235387e65dbf5becc0b82a450085270d7003bf5fc4fab526b3bc794538fdab8c525910ec2f5ffdd98a0ed8cb5d4cc2e876a27e329418f89241b57be451ec3d46ba2d8ea322e3b43d84799c2477ffa6dd9f71019c7f9aa19c045340e04808509f4abb8720c7d32dacee792e67331c2303f749a914f2c380d1510835b1b314de4f0d5106ea565b2dec2ee79c87c3e2b650c369380805dc8d7b24d153d0361d33d4eceeed4b7ae9fe428b6d50d0d16dd12fcef3d27b435e6a05c5fa95e9b2a1ff23505f069c6216ff0fa747972de835b006a34a9fc7cdb827aaf5dbace221c2d671ca3df62145625d1e93903303151749910fa768e740c74e3a0c70eb3245ab606d7d6c73de914b486a197855f7f399a22558641884ba2a51ebf13d236319b47d4fc3e07baf8774156a5d27f8e6353243cd88ebb63b41d990da29f26b4d3cfd1931ce8923049abc45780d9c2190a117738131f3a37d5c2359f7ca6bc9b24acb296c81c0a1f557f2608aefc31341d4b1578ed5cf32319dfb747fcaf44ab8501e21b0f4cbdb77fb6c006394d9d5a6388cbc020859648f4f0fb9cbf6e61048583a260b4aa80d4129012460886226e1fbf9dbe50702e5e2ea712cac55bb20bda0db6ffce8aae822bca47f6bc28254508303e121dd0e85470b3ce7784f353fec9f2f2304a8afe366827fea4b3d5eb081c850e96d960f0088212737f1e4e1d7e4517e2ef4e9c34bfb7b6fdcde74fcbe22be13cc8d4538975111589f3b3223d07e411668d936adade2f8c3640f6ce03c3a1436df28256b6bdb1800c4ca4ae8b60df80cdc62f14b02cd05f3ea6ddeb92acd0dd33003a9f3f0363ff0f5d5e4333cca73d014e8a036b271f75a529d5614d9a27f1230a9d7f08d16df1f5f85f9b9123cc683594156fba43a8fd8a1437c5470ed14b5c1c32646d4cf75d75069b6083d81f4cdc773fef8e6c8cece32dfd3753275f53cae01090eb1560e0bd322463f01a68592c50089a7fe7d6f846372b2fbed97c147a83ef5f98621a960134bde76678a2de7301faddf101d4e7308b1864fc015d022cfe85550af4f927cf4bbc0013e9a74cbaa2d9b91f02b51a53a9330cb6d9dd93c50de63879df78b3ae383e7feec69f0ed103d6bc0925183c670ca27667859e86e0edb8c217ac64ec057a5581a4a863425fab88e4d68b5f21aa32b9882c1c5f108bdf15888038a26ba10eb92d864b73b4cab6546a9c8c9d1f1944835c05e9fb2d8fc37c850dab30fd50e41285a844180e279f255e2b1b0e116473b258a8f9e1f5a3a525ede0a6b824f35bd5bb59f275d3c3ba60c1d52c26012312f9d4e2d8fd1c88824f00e804bf09d1931b67992987821df334b8d1e8dc1a879b95f7e5fd0252418d7b1caa008ab9e07b299705f494be218003f60ac3ad1c2d5ee3868180c349416a816183d7cfb8107fbb933a91d6a1873d18e26f600b117ec3b71638cce373802a0b05aae856e65f2be5ba7d861e27cc38ff1a1a9767e16efc2a32ad85b5400bc7182a76fdef64ce48de2ac23b6184610fd79a644d9336aa38660920408155909242282cec647b8e2bbbb4d9f3c4aaf972d48c863f2e420e7e84da6372f02e023453d35278da4845f99dd2edd9cd45f16cdb47378000000",
  "txid": "47ba0007859e31a8762c038ec64bfc5566a29e0e3dfe915ce440d8f89547d925",
  "hash": "6aff91f0c8335957c8f7fcb851c43be7454d3b6c5476922900db4ba2583b9cc1",
  "size": 5085,
  "vsize": 2278,
  "version": 1,
  "locktime": 120,
  "vin": [
    {
      "txid": "58aad30daa32cbfc21fc8aef16b0118068583de0aa49e971bec0d6f599581de0",
      "vout": 1,
      "scriptSig": {
        "asm": "",
        "hex": ""
      },
      "txinwitness": [
        "05a290e0b56b297df2631a09f68554dfcc2f9efe19ab622e8c7df838b5140bd8d3a2aed233324f05f90d78b57b0f01696bfa14e7757c76f7a2b991e2dc52dce9a525ac17723992a0c87822f7c703cc9dfb4d75e32c969deccafd58fbb28c486e4038a6a1bc443b2477feda8afae10bcfe2d7e0eb13358963171ab7d7556f621e3a86e73dacf3b531ea696375cff33faa0299692f2f3d3cd978b4c024dd3dafc73793bd7cdbaa34f7c908ef9df5d86edd54d690e187cf25141db24c22c5e7a039bb13970ea161e48546bf49653abbab3d84dd4fd7c8ccfa5236d11ef0a45c67e6582fbad7fe2131d4150a5db86b6a172ed8da27cc5634daee3fbd7654ca8923dfe4c0890dfebf0c3cb6b45010898a3ee62b89e816e5ae45d2f9104066b1f85439c7a6e5fbfa74ba7636c91a26eff7fdd9b548d200f74dca8accdffa8b5f0fb941fa562f276e97e3ad6e02d2270e819af74acf4649e39777f5b96481d75ef131fb81053c7d86b4bedf0032d548cbedf4f8b43b712e0b4a2dcdf4b1918174e3bd5b78610527863d936f290727c2d1c874bd2b4813bfdca311eecf2686f5f9308c0843ab09a69977e2d54e98d2117a4f71fdcaaba5c3b138e9082f9eedd2027df8ad6ccd24a1e88c2f30e4d35050d29460a2376f33c629fdb895dd2e2390a28a810a2995c372e4fe9593880069fb76f77dde7ef4e36fa49e2d9295d47cbd99c2760d18612506bb42c5835123ec12db0aabf03a9b0da522b6f4f57f3e783c19a20d83c3ef0887b5295eacd3e7b2d340a1b07a48967c84a452e8fce8e6dbe75068c7767c810a3f0dad5d3dd6b41b050213f917f92f73b211bf9432d7a0124cfc544efb8e4c67aa826596020332690cf5359d139ecd66acb3847640d6aa9cf6767663371555ff5f51db3dfaa192eb81c22739899231738ada2a903c1e935eed7c30608ec8d8fa674072488b2976c7863b64c2bcdd37939f860cb134822cef76775b2c9cf63a111a31b3a13dc495310416381d35bd9b33144e0f272d14d646b090c1f3e778578720a70f6065eb01392fbe16d9bb29bc56135d7521c218b04a611a03df53b6cafe8058eb356066c18d74d3259f165a8b37a283d9318b70ff949d227aca03593b36b796f0b6984d31f4d014aee0fd8ad2035a8fb3610cedbe956073690914122bf94ab9a1d88dea3317cea1a77978c5b724e874dc7d60400101144a69ace8fc1741621ab970f00a1191b0bbf1a364063bdedc99f80057e5dd76f84676149bfe5dfee371b0b56da2b30378705c897097ceacd8f454d1d08cd699054fc714fe16f98b85dfec5b13a2c911a8b193563bfd6145df17bf7d54bddd9e255e64f3a8e27ff5ab575214bd3f572f443c1073091f5ca346215a09d6fb7e7b06bba9528bbccc7b34778fe848380653120060d09bc2c4ba8bb56ed7ca4e1b5ae3c8f784a060823b8a32d08beab016336f51d5951b11ff143fdb1af68255f85aa42929a014c11d287d079b0ba8e20ee495862530dceb7245867ba2abe7e0c59b2f4606086fa2e7eb5a3bf393e56ad4fa0c1243653cf5d706d5d9d1ccb473d82a26677782858264ab13adfaae2abfd2f54024898f244a85ae4e908f16e3fd1fd798df172a639af81f80d7379bef149569f5efed4ccd85975aa311f7c8f5c8b7e6b9554dc858ed895ffad6ff6e7f6c4aa58e283f7c2031c9e99bad71f4628bef45353ed6c5b074b77cdae4a54f85b6ba06eda05a3f8fc59d6780593a015494de09de8e74e0558f499a0f73e6181ae8bb8f0c8fb463900c5a223ebcecdf6456baaf69bc272869fbc71d7b99e7ead9c51a7db71a0ff0b11cf5da051b6e8c4809c470bef677ca5ecf0ecbdbdbe887416afd417b28e083fd2f80e1bae4953e608a0c1ebab69cc8148335f9a4b3118ee5e6eb0c97b108460efa6f243b9f0f7f61605d6195af20390e96f4b3405c7a3128481c6713df43b61b1781bfbb3c16d2c976dba9c90736aed3cb5df691e71cb87540b3542fab119a09448143f544b6b56c7cf144bd58e51041153bf5e3f1dc959c46d756706a07ca637e251b19259ea622f06239cf4055433229028904f076aaf45f7eb80aa5ee39cc296d65e16879fabf89a87690f07567b07e0fcfef43a26d7610d2e371bcdc46f017821a33b278359ef612d0ec18867053c39c49b7f4b7617a6a5fa88629d29ee4e28e0367ba0270af203207cad0fd856713fa289e9d1c75bb5625f3736580f78fadc7c9322bb74ce7ab4e15ceb3d13c4ca5a845263648088ef6776ff67b86fc088285cfce72f9a3e1e3d3852c53feb26b4035b2606a2a1b0b817450e2bb4e5e7a3176080924ccc1434ab0712a87820764aa9d44741cd057fce1c203363f2071578e0e6c3b32fa55c9d43b5c37009a84a0105371089306c241972048b2326592c19293a9f1ebc3fd146c8776416fbe771e59ec290e23588bd504bf7d0ffe68386b534f3c3e2bf87ded3e7eec14ffe0a1895f66cf92c21e5e8094029560723a3b1635cfedec27b53d1e5b4595f522cd10bd28f04ed15416a2ed7025c5b72a8554e3052160ab22b1623479cc8a6a117e487e91320494c05f5260a091da6ba1afa55f3cc012a1ef8ffd48580a280b8f9cb5edaed47f44ec1348a8eecaa8afbe29e51c2cfcc74c4523e1a036bfcfd2428ec5678d76549595aff72c10de37feb3eb6b838c606a83e92c5b23ae17c09b79e0cccbb0cb09a9499cd58f5f1b5991a6a2dda7feafdf81d23fb177f085a2b30d9a59d5797b62701747d916004852702e6fb2a792c2f0c4989f1dac1781f06a8dce3b9299ec88a8b838dca34bd4f67afd90eaab116bddcb0dd50218a2dba3100e49016f0b6576c8e9f58e3447b6ca08024ab0189dca884ccb539496785a755d5a0682facf9839a6aabe1d8b8a3e53ba53da99706b222e8603e007ef19768cffe43bd7b2492571f89a996bc34ea86265820b461035f3d03a4cfa6b5eb347f7436556a876c02eb45415e571f1be3a7b5720a5e7a0d848bb4ae9d54773c01d7b765e405836a76d583ac8803aaf3e446829b8c6fef861df45963871413ee8a3fde141cbd5e77d07e8a046382e9d147f37f123ec02a99d0fd502d63bd28804c651630aad96128cde5256923ddb1f7ca9772ef345319265e5f2240a8b1bf92184f0ebd0d6a0bdc1da6a0220eff1a6fa837ae81aa63de9b46bae9e5b80693fe78a8e0ad30e377c07493855fe1264c19df2a6c31f468fc3060b740ab5373b8ff0d4c747d3404d69840686a8d025f12aec007aacf4419fc6a07e6df8c6d3d9e419b7f4ae69876c9f0c121618262a5f6a8291959b9fa0a5aabbd7dfe5002c4652545c878ba3acafc4c7dd0f234972757e85a7b0b8ce052b33405c5d7a838bd0fc00000000000000000000000000000000000000000000000014222d3801",
        "006e9e2d19f60c9703d59f1c1d793ccade0a7f5a0650bfb696ae1159b250c15c9d6fa3e3a28f923b706ffcb62de45aefb0e953f206bea5aef32d63a77f8312ca15e24f8e882d25cf7b18addeb74f85882a99d87dea0a1d290da5801e72ecb264b74aa636e40519ec577388543150011d132ce7bd8b723eb8378f01d28e6c9d8bd7f4d0f262fc92dcc35846d770fa3ff526b5596bdf93c3b44e6dd7f0c3da73235387e65dbf5becc0b82a450085270d7003bf5fc4fab526b3bc794538fdab8c525910ec2f5ffdd98a0ed8cb5d4cc2e876a27e329418f89241b57be451ec3d46ba2d8ea322e3b43d84799c2477ffa6dd9f71019c7f9aa19c045340e04808509f4abb8720c7d32dacee792e67331c2303f749a914f2c380d1510835b1b314de4f0d5106ea565b2dec2ee79c87c3e2b650c369380805dc8d7b24d153d0361d33d4eceeed4b7ae9fe428b6d50d0d16dd12fcef3d27b435e6a05c5fa95e9b2a1ff23505f069c6216ff0fa747972de835b006a34a9fc7cdb827aaf5dbace221c2d671ca3df62145625d1e93903303151749910fa768e740c74e3a0c70eb3245ab606d7d6c73de914b486a197855f7f399a22558641884ba2a51ebf13d236319b47d4fc3e07baf8774156a5d27f8e6353243cd88ebb63b41d990da29f26b4d3cfd1931ce8923049abc45780d9c2190a117738131f3a37d5c2359f7ca6bc9b24acb296c81c0a1f557f2608aefc31341d4b1578ed5cf32319dfb747fcaf44ab8501e21b0f4cbdb77fb6c006394d9d5a6388cbc020859648f4f0fb9cbf6e61048583a260b4aa80d4129012460886226e1fbf9dbe50702e5e2ea712cac55bb20bda0db6ffce8aae822bca47f6bc28254508303e121dd0e85470b3ce7784f353fec9f2f2304a8afe366827fea4b3d5eb081c850e96d960f0088212737f1e4e1d7e4517e2ef4e9c34bfb7b6fdcde74fcbe22be13cc8d4538975111589f3b3223d07e411668d936adade2f8c3640f6ce03c3a1436df28256b6bdb1800c4ca4ae8b60df80cdc62f14b02cd05f3ea6ddeb92acd0dd33003a9f3f0363ff0f5d5e4333cca73d014e8a036b271f75a529d5614d9a27f1230a9d7f08d16df1f5f85f9b9123cc683594156fba43a8fd8a1437c5470ed14b5c1c32646d4cf75d75069b6083d81f4cdc773fef8e6c8cece32dfd3753275f53cae01090eb1560e0bd322463f01a68592c50089a7fe7d6f846372b2fbed97c147a83ef5f98621a960134bde76678a2de7301faddf101d4e7308b1864fc015d022cfe85550af4f927cf4bbc0013e9a74cbaa2d9b91f02b51a53a9330cb6d9dd93c50de63879df78b3ae383e7feec69f0ed103d6bc0925183c670ca27667859e86e0edb8c217ac64ec057a5581a4a863425fab88e4d68b5f21aa32b9882c1c5f108bdf15888038a26ba10eb92d864b73b4cab6546a9c8c9d1f1944835c05e9fb2d8fc37c850dab30fd50e41285a844180e279f255e2b1b0e116473b258a8f9e1f5a3a525ede0a6b824f35bd5bb59f275d3c3ba60c1d52c26012312f9d4e2d8fd1c88824f00e804bf09d1931b67992987821df334b8d1e8dc1a879b95f7e5fd0252418d7b1caa008ab9e07b299705f494be218003f60ac3ad1c2d5ee3868180c349416a816183d7cfb8107fbb933a91d6a1873d18e26f600b117ec3b71638cce373802a0b05aae856e65f2be5ba7d861e27cc38ff1a1a9767e16efc2a32ad85b5400bc7182a76fdef64ce48de2ac23b6184610fd79a644d9336aa38660920408155909242282cec647b8e2bbbb4d9f3c4aaf972d48c863f2e420e7e84da6372f02e023453d35278da4845f99dd2edd9cd45f16cdb473"
      ],
      "sequence": 4294967294
    }
  ],
  "vout": [
    {
      "value": 1.0,
      "n": 0,
      "scriptPubKey": {
        "asm": "OP_RETURN cf1b19be24f8b13631808b89c867931978e3603ea17d5d8c456f3824a4f12f13 06d4faa880c2f9b171412dafd81efdbd4efdb8b9091352e44fd1ec26aca2a60326f4da88a0e2d99151610d8ff83edd9d6edd9899293372c46ff1cc068c8286234694bae8c082b9f131016def985ebdfd0ebdf8f9495312a40f91ac66ece2e64366b49ac8e0a299d111214dcfb87e9ddd2e9dd8d9697332842fb18c46ccc2c66386547a2800427931f1c1ad2f589e7d3dce7d38398993d264cf516ca62c222683a6745a0820625911d1e18d0f78be5d1dee5d1819a9b3f244ef714c860c0206a3c6143a6840023971b181ed6f18de3d7d8e3d7879c9d392248f112ce66c6266c3e6341a486022195191a1cd4f38fe1d5dae1d5859e9f3b204af310cc64c4246e306d4faa880c2f9b171412dafd81efdbd4efdb8b9091352e44fd1ec26aca2a60326f4da88a0e2d99151610d8ff83edd9d6edd9899293372c46ff1cc068c8286234694bae8c082b9f131016def985ebdfd0ebdf8f9495312a40f91ac66ece2e64366b49ac8e0a299d111214dcfb87e9ddd2e9dd8d9697332842fb18c46ccc2c66386547a2800427931f1c1ad2f589e7d3dce7d38398993d264cf516ca62c222683a6745a0820625911d1e18d0f78be5d1dee5d1819a9b3f244ef714c860c0206a3c6143a6840023971b181ed6f18de3d7d8e3d7879c9d392248f112ce66c6266c3e6341a486022195191a1cd4f38fe1d5dae1d5859e9f3b204af310cc64c4246e306d4faa880c2f9b171412dafd81efdbd4efdb8b9091352e44fd1ec26aca2a60326f4da88a0e2d99151610d8ff83edd9d6edd9899293372c46ff1cc068c8286234694bae8c082b9f131016def985ebdfd0ebdf8f9495312a40f91ac66ece2e64366b49ac8e0a299d111214dcfb87e9ddd2e9dd8d9697332842fb18c46ccc2c66386547a2800427931f1c1ad2f589e7d3dce7d38398993d264cf516ca62c222683a6745a0820625911d1e18d0f78be5d1dee5d1819a9b3f244ef714c860c0206a3c6143a6840023971b181ed6f18de3d7d8e3d7879c9d392248f112ce66c6266c3e6341a486022195191a1cd4f38fe1d5dae1d5859e9f3b204af310cc64c4246e306d4faa880c2f9b171412dafd81efdbd4efdb8b9091352e44fd1ec26aca2a60326f4da88a0e2d99151610d8ff83edd9d6edd9899293372c46ff1cc068c8286234694bae8c082b9f131016def985ebdfd0ebdf8f9495312a40f91ac66ece2e64366b49ac8e0a299d111214dcfb87e9ddd2e9dd8d9697332842fb18c46ccc2c66386547a2800427931f1c1ad2f589e7d3dce7d38398993d264cf516ca62c222683a6745a0820625911d1e18d0f78be5d1dee5d1819a9b3f244ef714c860c0206a3c6143a6840023971b181ed6f18de3d7d8e3d7879c9d392248f112ce66c6266c3e6341a486022195191a1cd4f38fe1d5dae1d5859e9f3b204af310cc64c4246e306d4faa880c2f9b171412dafd81efdbd4efdb8b9091352e44fd1ec26aca2a60326f4da88a0e2d99151610d8ff83edd9d6edd9899293372c46ff1cc068c8286234694bae8c082b9f131016def985ebdfd0ebdf8f9495312a40f91ac66ece2e64366b49ac8e0a299d111214dcfb87e9ddd2e9dd8d9697332842fb18c46ccc2c66386547a2800427931f1c1ad2f589e7d3df54e5ce8a09cea95c261ff128b1b1e5de0045cbb2a026c165233e545b08d7ab8",
        "hex": "6a20cf1b19be24f8b13631808b89c867931978e3603ea17d5d8c456f3824a4f12f134db00406d4faa880c2f9b171412dafd81efdbd4efdb8b9091352e44fd1ec26aca2a60326f4da88a0e2d99151610d8ff83edd9d6edd9899293372c46ff1cc068c8286234694bae8c082b9f131016def985ebdfd0ebdf8f9495312a40f91ac66ece2e64366b49ac8e0a299d111214dcfb87e9ddd2e9dd8d9697332842fb18c46ccc2c66386547a2800427931f1c1ad2f589e7d3dce7d38398993d264cf516ca62c222683a6745a0820625911d1e18d0f78be5d1dee5d1819a9b3f244ef714c860c0206a3c6143a6840023971b181ed6f18de3d7d8e3d7879c9d392248f112ce66c6266c3e6341a486022195191a1cd4f38fe1d5dae1d5859e9f3b204af310cc64c4246e306d4faa880c2f9b171412dafd81efdbd4efdb8b9091352e44fd1ec26aca2a60326f4da88a0e2d99151610d8ff83edd9d6edd9899293372c46ff1cc068c8286234694bae8c082b9f131016def985ebdfd0ebdf8f9495312a40f91ac66ece2e64366b49ac8e0a299d111214dcfb87e9ddd2e9dd8d9697332842fb18c46ccc2c66386547a2800427931f1c1ad2f589e7d3dce7d38398993d264cf516ca62c222683a6745a0820625911d1e18d0f78be5d1dee5d1819a9b3f244ef714c860c0206a3c6143a6840023971b181ed6f18de3d7d8e3d7879c9d392248f112ce66c6266c3e6341a486022195191a1cd4f38fe1d5dae1d5859e9f3b204af310cc64c4246e306d4faa880c2f9b171412dafd81efdbd4efdb8b9091352e44fd1ec26aca2a60326f4da88a0e2d99151610d8ff83edd9d6edd9899293372c46ff1cc068c8286234694bae8c082b9f131016def985ebdfd0ebdf8f9495312a40f91ac66ece2e64366b49ac8e0a299d111214dcfb87e9ddd2e9dd8d9697332842fb18c46ccc2c66386547a2800427931f1c1ad2f589e7d3dce7d38398993d264cf516ca62c222683a6745a0820625911d1e18d0f78be5d1dee5d1819a9b3f244ef714c860c0206a3c6143a6840023971b181ed6f18de3d7d8e3d7879c9d392248f112ce66c6266c3e6341a486022195191a1cd4f38fe1d5dae1d5859e9f3b204af310cc64c4246e306d4faa880c2f9b171412dafd81efdbd4efdb8b9091352e44fd1ec26aca2a60326f4da88a0e2d99151610d8ff83edd9d6edd9899293372c46ff1cc068c8286234694bae8c082b9f131016def985ebdfd0ebdf8f9495312a40f91ac66ece2e64366b49ac8e0a299d111214dcfb87e9ddd2e9dd8d9697332842fb18c46ccc2c66386547a2800427931f1c1ad2f589e7d3dce7d38398993d264cf516ca62c222683a6745a0820625911d1e18d0f78be5d1dee5d1819a9b3f244ef714c860c0206a3c6143a6840023971b181ed6f18de3d7d8e3d7879c9d392248f112ce66c6266c3e6341a486022195191a1cd4f38fe1d5dae1d5859e9f3b204af310cc64c4246e306d4faa880c2f9b171412dafd81efdbd4efdb8b9091352e44fd1ec26aca2a60326f4da88a0e2d99151610d8ff83edd9d6edd9899293372c46ff1cc068c8286234694bae8c082b9f131016def985ebdfd0ebdf8f9495312a40f91ac66ece2e64366b49ac8e0a299d111214dcfb87e9ddd2e9dd8d9697332842fb18c46ccc2c66386547a2800427931f1c1ad2f589e7d3df54e5ce8a09cea95c261ff128b1b1e5de0045cbb2a026c165233e545b08d7ab8",
        "type": "nulldata"
      }
    },
    {
      "value": 499977.6282,
      "n": 1,
      "scriptPubKey": {
        "asm": "1 1d8fb2387b0b3e4a412223533f53cf41343b761bb495975aeb1236b650825df1",
        "hex": "51201d8fb2387b0b3e4a412223533f53cf41343b761bb495975aeb1236b650825df1",
        "reqSigs": 1,
        "type": "witness_v1_scripthash",
        "addresses": [
          "3QJmnh"
        ]
      }
    }
  ],
  "blockhash": "0125d69e6984563ac74cb1b0b8601a67b424e71230e7918fa710584dbb11162a",
  "confirmations": 1,
  "time": 1764180090,
  "blocktime": 1764180090
}