{
  "hex": "01000000000101220d5489cdf03dd1265c9f9b69dcf8605b7dd93392bb45ffc448f7cd39d02c450100000000feffffff0210cdd4fc782d0000225120147a6a9ddf642f12ae91e058842774ae75f354a5058f5ff77e3729f05a1c5c1100e1f50500000000fdd5046a20d58b10447179f339f2623427ce0451f20dd906029040842b7772c783a75c21614db004b978eb4a87f5daad2057072b68ce0561f2bf0d30b88062e4d72340415ed31d479958cb6aa7d5fa8d0077270b48ee2541d29f2d1098a042c4f70360617ef33d67f938ab0ac7b59aed6017476b288e4521b2ff4d70f8c022a4976300011e935d07d9188b2ae795bacd4037674b08ae650192df6d50d8e00284b74320213eb37d2739f86bca07755a2da0d787abe84e85e1723f8db03800e26457a3c0c1de539dc719d84bea27557a0d80f7a78bc86ea5c1521fad901820c2447783e0e1fe73bde779b82b8a47351a6de097c7eba80ec5a1327fcdf07840a22417e380819e13dd8759980baa67153a4dc0b7e7cb882ee581125fedd05860820437c3a0a1be33fda7b978eb4a87f5daad2057072b68ce0561f2bf0d30b88062e4d72340415ed31d479958cb6aa7d5fa8d0077270b48ee2541d29f2d1098a042c4f70360617ef33d67f938ab0ac7b59aed6017476b288e4521b2ff4d70f8c022a4976300011e935d07d9188b2ae795bacd4037674b08ae650192df6d50d8e00284b74320213eb37d2739f86bca07755a2da0d787abe84e85e1723f8db03800e26457a3c0c1de539dc719d84bea27557a0d80f7a78bc86ea5c1521fad901820c2447783e0e1fe73bde779b82b8a47351a6de097c7eba80ec5a1327fcdf07840a22417e380819e13dd8759980baa67153a4dc0b7e7cb882ee581125fedd05860820437c3a0a1be33fda7b978eb4a87f5daad2057072b68ce0561f2bf0d30b88062e4d72340415ed31d479958cb6aa7d5fa8d0077270b48ee2541d29f2d1098a042c4f70360617ef33d67f938ab0ac7b59aed6017476b288e4521b2ff4d70f8c022a4976300011e935d07d9188b2ae795bacd4037674b08ae650192df6d50d8e00284b74320213eb37d2739f86bca07755a2da0d787abe84e85e1723f8db03800e26457a3c0c1de539dc719d84bea27557a0d80f7a78bc86ea5c1521fad901820c2447783e0e1fe73bde779b82b8a47351a6de097c7eba80ec5a1327fcdf07840a22417e380819e13dd8759980baa67153a4dc0b7e7cb882ee581125fedd05860820437c3a0a1be33fda7b978eb4a87f5daad2057072b68ce0561f2bf0d30b88062e4d72340415ed31d479958cb6aa7d5fa8d0077270b48ee2541d29f2d1098a042c4f70360617ef33d67f938ab0ac7b59aed6017476b288e4521b2ff4d70f8c022a4976300011e935d07d9188b2ae795bacd4037674b08ae650192df6d50d8e00284b74320213eb37d2739f86bca07755a2da0d787abe84e85e1723f8db03800e26457a3c0c1de539dc719d84bea27557a0d80f7a78bc86ea5c1521fad901820c2447783e0e1fe73bde779b82b8a47351a6de097c7eba80ec5a1327fcdf07840a22417e380819e13dd8759980baa67153a4dc0b7e7cb882ee581125fedd05860820437c3a0a1be33fda7b978eb4a87f5daad2057072b68ce0561f2bf0d30b88062e4d72340415ed31d479958cb6aa7d5fa8d0077270b48ee2541d29f2d1098a042c4f70360617ef33d67f938ab0ac7b59aed6017476b288e4521b2ff4d70f8c022a4976300011e935d07d9188b2ae795bacd4037674b08ae650192df6d50d8e00284b74320213eb37d2739f86bca07755a2da0d787abe84e85e198e4cef7865407d60738881e2ebbdd4401851f472c488f8900c6d96f61058e8202fd7509c8506c36a303b2fa88f79a079efdf37af471dabcc3209bb6cf56bd5d283f0d8739a5fbc24ec14b000ddf154766f00a6686f45513406eab9d7dd428266fa28e426ea9233bc7e00e560b8656573d2d9e9c1a564c611beb6c89230ba07ebbf2f4c3d439d707ead29596caea91e929b78e0a77e92313bc6160159f27aef75b0a556aee5efaaf02b5bfda752a06c4128659bd8b60c13422a2645218811ec11cbce6d4e03e9df50490fb11fb135f619c15f92851cedb7ba8a73c4b74d9c9f7f4524cf7c7aace884d4e169e560fc68b4d01d96fb49cd32f2e64d9483516930556aa5b3d9581ce68ea3a0ce596a4480febbd83d40c171083e40241e2aea099ccb1444b7b3dda90aca1b526ccb13f1e33d0003f7df86b85cbda66c10db1c30ce209702eb2be3a4700ab5473a3549b72476b3543750a1887806a5edeea6e926b80ab88f75ac2e11c4ceee876c38009af38ec63511b14a190acc3544beef94d3fe1f907c510f25b2e4c5acb0494658b95bcc92d76d77897f4155e7ffc9940a865db0b49e0cf6beb6ec3cb8f219d100c0bd42c2f66ee66553c9f3f89f62ed4be8c7aea8fe765e422459ebf17e052271072045f6818e6f71675ff254398a418d9df181d5f294804e856ab3e44680bde268634913fcc02ad74600cf68665abee9eba9919679de75c3b014c2ec1b13f053fa2c327965a5661fdf4465d2d48fe7f24a6b0d7dc685a4d914c4a4420686887a9bc02b4483c22cd21f63a33a6f81a10d42148994efaa1aa56aef43716357ea32ccbcd7d80fd81864a490d0f469b92d5d6dd15a840d967de3354c72be27d5e046ebe1b281881ff3c303fbf88ccadf37dd3685fa82afe59011f052f6348e847ba586f5ac8c7adbe5ee12d7e3cebb26d454161eb8456819ba7349fdf055454fdd9f1fac3935b0b63d0662dfad925660e0e1ed9e3a2f4595cfac9cf108448416b5802a9e7d358d49bce6cfd9f88ff5f7860f40c7df481519f1b1aa9b67e51542e5682f2006c325017d7f55bb9d0669dcc81e0c4aacba2d792411009b8d5c4a8bb8f1a352d6fbe4c8423f3b0828ec70b38d815684f50b2c689dfd155fc7bb17d6027971804989e5ea8df7446f28e5edebcf6fe49c9778546ea76ca0f75da8c5892b0c16413a19137083475f428f9591a0b1b57b91b5c880ef02abb5e33b4f62944e977ef6ca9a6dbbe0b7696ecf1ec7f57446d45dc1b534cff584fcaa2019b70f939e34e70eb3f2ca611ea61158f29e314d36ad2b494dd213e0b816f1c831f40276322bd9cf9f47f517cbec8a8f1c39c6a93bbed271bfb408072ad208766a121bfac3a34bfc7de012a85d0acccfd28e543f7e2cc0f5cf791f5bcc9f02e502b03c57c40e81b0ef11684e14ea7ffc8e5933860f7c63a232444c85cbd2292c0b5bdac03db7c887740c66fa790df1f759438cf43859ce2d5c6aef7efb49ab364946fdb80b38498403d3313ab199a24f4d870f2f685bd8dcaf48ae2d0581caf34cdf150ea1b87f7dbf412e20b56b19cd98c1d4301fb4a26f230c9e6cb7e0f5bbd520dd833250286f6d863991100cc6dfe991fa07b3ec659960c9ff2033cff93935f25846af709777fe598dd22a36dac361add42aba1eddece332402c4261a8bd3906e86d67534db475d967f78d58271cbdc77dce12eee3ea6afa4b3a32f4ed315bebbf299cc69dc15c85e4a5906c69aac22ca1602f2deefa41af8f12876dc3b919e372fc1f438dc25f1708553ae14fbd30440c568ab256e97ae729ef064ed3b87b96e5311f4430c69c690dc144d0d611990cd02a9f7cc2bd42c965158c446227bf9c63f12e85bd5cfb1882e3e16a1d766cf184aa541bac51d5b886660c1d2e80416285a4286d78760b37d60414e0eb8ae67817e2d4f80c4a891b25898b8a66df4d1f34492db2c9e7d520c1c84f5abcd3e78619380bcf36216d509e6d1a20cf3ef522af22edd13c5a19272e2b46d6167603d77d22d92e54a0cf3cd5d9aa19639292464c422420d92e07e017609faf1bbfad9f0146d82917542a798498c6405a96a5b726293d6927e7c8d1961c4eb74add8607409de463c44eb9a6049b342a1ecf677b1d8cfb3586f5fbde6906b4476f1bd4062a5521223c6e1d3517c9db87c08abce726533b24f18e33bf5cd8513a6e7f0b1c3a735bb1c543538d21acb1f9c7ea997d1357204fde48bab3ea350cbe097c2f29dc48ee80cf9e0b39fd63b2514d3bea70f87735e31558a3e5cd0a6b7066b10738d3fa70b6ff6499acb51e1146ab2cac4cab3a6c7ffe536f6bc24776a4e70e3da02ffccfbc7fe79ca27471cec384d0a13edddb0c894c4288cda2ae59fc6c0ce041f906b97cb5cffaba66d3fa183c0fb5f4791755d5d904c2f87d55d20501640d06592f0395408a952dab213d6ccdee1ae3f0e7d8813fa5161af9eb473fce63368f63373de19bf975d40c368b45d339a59c003a422b53770d7dcff1d2767f42f3fefb175c28f3e15a096e316aba6ff07e0d15ab671b2564ebbb3203517f82c8283aa4b98704ca0770b331e1b520976182c16393f3c9347bb9871bf8d14fa351c87a1659e1adadfb2c195086eaa2e6da8d16b34bd081f9885823ff70f6b7a51593122354fb08a06c74a3284863141d3fb2438c41b046bbf57902bdfc9bd13739ac011bc52139ef36479a95e5ea01435dbe4b9db4fa8d8fde3a6b11e8b9381ebaac70ab89bad714b65e51338e8697edd7b5b1a00bb8a6ebc5741f4abcec264bcf77f713409c08e6d5777ed8ec7ba655e84560c7223c5615fb3ca21244e2a312a9098c5a72f83b1be943301aa7f46a09741c46a006052be47cad1c95f6179c60630de4608be13f12a8dde84bc0d4ea5b9858c0c85a6d5cf1f7bc52436ef5474b0d6e457ef1889bf06c6c582f08b19e1624986d43b96e26cd24105e42b4585c8129bf2f20857113bb458683a9538d8205f1837d6872580703e5b090ef48124763d99a92c65298ef40f0e6545b9b434ed93664517e962fa44fc03a9071803cae620ae6e39011c7d0db647b295423c9581cfd36ab4bba44e282127e3a57f3a4ebb5a9b771956395199581963c9f91668ad5ac2bc9e61433ade78d6ccab10ea292c0ac838b3b15e5619b8a5f45eee15b4bc590990ed13752fba7e784b204ce5599b55c73c0a06db6997754dd5638ceb1e9e9b992da9d26a36fb2e4a4c8e68cdbe70e2dd5d922b0721124c0a2c6306e54a04d00718c09d55204f218829280ff4924dae879aa7a18cc0b9933d1ff4fc7c4ed057fdd9dc244589a9c9bd5bff0bfe5a2861e5902d63b1102359792680e20c26373e44465b666b818ea2afb9c2c5d0e2e603060d111e2728444a8aadb6d1fc0002090b0c506269708a8c94a2c8d4f4fb1f2f30335798b4bfc1d2e3e9f5f8f9ff00000000000000000000000000001321324201fd210500780976d4d08bfea2fd5946cfb370ec7a45285827cb81bc91e582001b7e29f9e04f1fc0ae81469d9fdd2318d76d60bc75221865c4054b4b70e3b2f72ca13ec01dd58684282e507bb29663cbad25ba158035cd83e10b98b7d5df92e24c8e9e77d462c473d6028ede35c1d7c572107637485a9bc050a2b63ae269cdf03fe74a62a91d8e8ae889c134f1b16de6899efbc553dbd861b771f1471c5a28c4cd5fa698fdbf40a1622d420eba05558dfdb8cc17559e4e46b9f999ce1e4a5adb8019baa51b77b2b1079b42513efaf1cab338defe2e8766a1929e846bb8e65dcbe04b9d76c2b11562487239a121c198596b3f46940ce578742b4aac5aa937228f2e5c7d33734f3704c9f902405a76ee55996e9778c6e662d167f5e3149bf7595e53b0f0c4c9382ba5f5cc5b36ca6c65bff77bde5cc4cb7d12f74eef96f6664f0e2f9a8ecc3fbcd7802af6e3b45aa09c78229061fd71d7326ff7aaeef2a868834ba622faf4372541ee1bfb0233c75a8e4ddf9a38bf97f5065e4e08ced80c1cc2130a021b0209660a4737fe2883adc4982b363f79a03a978235baaf24e134a8c957739dd2f5a8d23d7111572104b990c28a9028539cc19620e67dc233f3c2e4085062ad38e9602f6aaff14299eabf1ff3052eb7f5d176c00ff1739ad2f393c52ae67a40103babe61c42238863e56bc21581f0e5f84790dc7b2609cfdff7821bc178515ad5b8792aeed6af52d3d7cc6888f3bc63b8885e222b496f7d4d686b2c954fa12d30283442e812b44bb2edd50a407322d9a0ad368752243a91a325deee1a05955eb8ffd024b54ab71083c56b821366c8c57dcf66e132a7df31512689086b460a8cce86ece388508cb5995273585e2a47766e65a7553bb8f6453672d679fee8424fa331231a6fd6d9d127b43ab7d5d4a319fecd903570c155a5ac50968b7eb8cc8f5cba8bf96ba37678035c8c43e2f20791332795193c4cecf807a711b869e8b4b6218ef9b997f22cdd01f44e2902e4de74cd5c296442d4b8bd360fcb95f34c0028c44a96bf6873066012e88b1e26f795e86740be66f489dbe4e6b674fd25f4213be971b03123b0bd6d4e71001b265257c3bf62ac87323d1a382f1c0903340ca5bb4e0ed1c50cf07b1e82416715465f01dcf80379058b7884ee74583c1e180b10d5f45cb9af753c0780dae62f448f3d3f59e62b50802ba89f92b29cdf94a540e1d8a026fdd163a7f46e3a3d10e8d1827bc78e8ccad4750a90cbe0bd781ef6588af56ea94ce6f8ad94d29cf6ad44c372cc5e3db3c3e7f879e23c990743329a9f6d36cef08601b28d9e0f43be6bf06efad71da7837f7282e696d65e050c7f9a2363148bbac2e7a5ecec33cc5cf36ee47a4e7e33762689a3832170b9c5346f53a121e1d775afc1aa69789b2e96c93fae4c6b8923177239dce08d8208e0fab0c5fa65833b4d7ae47fa3297546bdca262ab1e535c214ba9b6c9f177485ea23fa923dfbe4f81a26eed67fe6cd7fa1f13cac0640b8e798cd4ac9f194b853ce06655a0866a417f85591f9565a0a401393f9367cfc56ba88f5431580f3b2e6a0866533f347c8dc7cfa770784bb94c1dfbf2b76d6e4d94342f9f77f0f986f30343fd80dfca39e245a5c52206eb54db1fffae5b0b2a7c0a568539d790b5892b95d94d44b7a2f56774b5924122b19f5469355398c602514af1c03437fef238231985eb41ddff2d246fffedf941831e6069e54cab1a108008cc82c3e035593cbe8e204dddf153bd0b6bc0ae54adaf6a139f747582e38802d1444d29207eb84c6e5a36ba046a16c459b2a13d49060329b1707901957e8f93b220fb71478639739e6ae3a5cbfca666271d4ab88000000",
  "txid": "466c2c9b28c822d924cbbfdf2aa783a3daed3fa45868ac2b08dd169bef0452ae",
  "hash": "20c48fbdb176fe5eeb3ea1e2a2f0a5cc4c63f81c9cfad92a9b6c9ee8ff64ee3b",
  "size": 5085,
  "vsize": 2278,
  "version": 1,
  "locktime": 136,
  "vin": [
    {
      "txid": "452cd039cdf748c4ff45bb9233d97d5b60f8dc699b9f5c26d13df0cd89540d22",
      "vout": 1,
      "scriptSig": {
        "asm": "",
        "hex": ""
      },
      "txinwitness": [
        "c8506c36a303b2fa88f79a079efdf37af471dabcc3209bb6cf56bd5d283f0d8739a5fbc24ec14b000ddf154766f00a6686f45513406eab9d7dd428266fa28e426ea9233bc7e00e560b8656573d2d9e9c1a564c611beb6c89230ba07ebbf2f4c3d439d707ead29596caea91e929b78e0a77e92313bc6160159f27aef75b0a556aee5efaaf02b5bfda752a06c4128659bd8b60c13422a2645218811ec11cbce6d4e03e9df50490fb11fb135f619c15f92851cedb7ba8a73c4b74d9c9f7f4524cf7c7aace884d4e169e560fc68b4d01d96fb49cd32f2e64d9483516930556aa5b3d9581ce68ea3a0ce596a4480febbd83d40c171083e40241e2aea099ccb1444b7b3dda90aca1b526ccb13f1e33d0003f7df86b85cbda66c10db1c30ce209702eb2be3a4700ab5473a3549b72476b3543750a1887806a5edeea6e926b80ab88f75ac2e11c4ceee876c38009af38ec63511b14a190acc3544beef94d3fe1f907c510f25b2e4c5acb0494658b95bcc92d76d77897f4155e7ffc9940a865db0b49e0cf6beb6ec3cb8f219d100c0bd42c2f66ee66553c9f3f89f62ed4be8c7aea8fe765e422459ebf17e052271072045f6818e6f71675ff254398a418d9df181d5f294804e856ab3e44680bde268634913fcc02ad74600cf68665abee9eba9919679de75c3b014c2ec1b13f053fa2c327965a5661fdf4465d2d48fe7f24a6b0d7dc685a4d914c4a4420686887a9bc02b4483c22cd21f63a33a6f81a10d42148994efaa1aa56aef43716357ea32ccbcd7d80fd81864a490d0f469b92d5d6dd15a840d967de3354c72be27d5e046ebe1b281881ff3c303fbf88ccadf37dd3685fa82afe59011f052f6348e847ba586f5ac8c7adbe5ee12d7e3cebb26d454161eb8456819ba7349fdf055454fdd9f1fac3935b0b63d0662dfad925660e0e1ed9e3a2f4595cfac9cf108448416b5802a9e7d358d49bce6cfd9f88ff5f7860f40c7df481519f1b1aa9b67e51542e5682f2006c325017d7f55bb9d0669dcc81e0c4aacba2d792411009b8d5c4a8bb8f1a352d6fbe4c8423f3b0828ec70b38d815684f50b2c689dfd155fc7bb17d6027971804989e5ea8df7446f28e5edebcf6fe49c9778546ea76ca0f75da8c5892b0c16413a19137083475f428f9591a0b1b57b91b5c880ef02abb5e33b4f62944e977ef6ca9a6dbbe0b7696ecf1ec7f57446d45dc1b534cff584fcaa2019b70f939e34e70eb3f2ca611ea61158f29e314d36ad2b494dd213e0b816f1c831f40276322bd9cf9f47f517cbec8a8f1c39c6a93bbed271bfb408072ad208766a121bfac3a34bfc7de012a85d0acccfd28e543f7e2cc0f5cf791f5bcc9f02e502b03c57c40e81b0ef11684e14ea7ffc8e5933860f7c63a232444c85cbd2292c0b5bdac03db7c887740c66fa790df1f759438cf43859ce2d5c6aef7efb49ab364946fdb80b38498403d3313ab199a24f4d870f2f685bd8dcaf48ae2d0581caf34cdf150ea1b87f7dbf412e20b56b19cd98c1d4301fb4a26f230c9e6cb7e0f5bbd520dd833250286f6d863991100cc6dfe991fa07b3ec659960c9ff2033cff93935f25846af709777fe598dd22a36dac361add42aba1eddece332402c4261a8bd3906e86d67534db475d967f78d58271cbdc77dce12eee3ea6afa4b3a32f4ed315bebbf299cc69dc15c85e4a5906c69aac22ca1602f2deefa41af8f12876dc3b919e372fc1f438dc25f1708553ae14fbd30440c568ab256e97ae729ef064ed3b87b96e5311f4430c69c690dc144d0d611990cd02a9f7cc2bd42c965158c446227bf9c63f12e85bd5cfb1882e3e16a1d766cf184aa541bac51d5b886660c1d2e80416285a4286d78760b37d60414e0eb8ae67817e2d4f80c4a891b25898b8a66df4d1f34492db2c9e7d520c1c84f5abcd3e78619380bcf36216d509e6d1a20cf3ef522af22edd13c5a19272e2b46d6167603d77d22d92e54a0cf3cd5d9aa19639292464c422420d92e07e017609faf1bbfad9f0146d82917542a798498c6405a96a5b726293d6927e7c8d1961c4eb74add8607409de463c44eb9a6049b342a1ecf677b1d8cfb3586f5fbde6906b4476f1bd4062a5521223c6e1d3517c9db87c08abce726533b24f18e33bf5cd8513a6e7f0b1c3a735bb1c543538d21acb1f9c7ea997d1357204fde48bab3ea350cbe097c2f29dc48ee80cf9e0b39fd63b2514d3bea70f87735e31558a3e5cd0a6b7066b10738d3fa70b6ff6499acb51e1146ab2cac4cab3a6c7ffe536f6bc24776a4e70e3da02ffccfbc7fe79ca27471cec384d0a13edddb0c894c4288cda2ae59fc6c0ce041f906b97cb5cffaba66d3fa183c0fb5f4791755d5d904c2f87d55d20501640d06592f0395408a952dab213d6ccdee1ae3f0e7d8813fa5161af9eb473fce63368f63373de19bf975d40c368b45d339a59c003a422b53770d7dcff1d2767f42f3fefb175c28f3e15a096e316aba6ff07e0d15ab671b2564ebbb3203517f82c8283aa4b98704ca0770b331e1b520976182c16393f3c9347bb9871bf8d14fa351c87a1659e1adadfb2c195086eaa2e6da8d16b34bd081f9885823ff70f6b7a51593122354fb08a06c74a3284863141d3fb2438c41b046bbf57902bdfc9bd13739ac011bc52139ef36479a95e5ea01435dbe4b9db4fa8d8fde3a6b11e8b9381ebaac70ab89bad714b65e51338e8697edd7b5b1a00bb8a6ebc5741f4abcec264bcf77f713409c08e6d5777ed8ec7ba655e84560c7223c5615fb3ca21244e2a312a9098c5a72f83b1be943301aa7f46a09741c46a006052be47cad1c95f6179c60630de4608be13f12a8dde84bc0d4ea5b9858c0c85a6d5cf1f7bc52436ef5474b0d6e457ef1889bf06c6c582f08b19e1624986d43b96e26cd24105e42b4585c8129bf2f20857113bb458683a9538d8205f1837d6872580703e5b090ef48124763d99a92c65298ef40f0e6545b9b434ed93664517e962fa44fc03a9071803cae620ae6e39011c7d0db647b295423c9581cfd36ab4bba44e282127e3a57f3a4ebb5a9b771956395199581963c9f91668ad5ac2bc9e61433ade78d6ccab10ea292c0ac838b3b15e5619b8a5f45eee15b4bc590990ed13752fba7e784b204ce5599b55c73c0a06db6997754dd5638ceb1e9e9b992da9d26a36fb2e4a4c8e68cdbe70e2dd5d922b0721124c0a2c6306e54a04d00718c09d55204f218829280ff4924dae879aa7a18cc0b9933d1ff4fc7c4ed057fdd9dc244589a9c9bd5bff0bfe5a2861e5902d63b1102359792680e20c26373e44465b666b818ea2afb9c2c5d0e2e603060d111e2728444a8aadb6d1fc0002090b0c506269708a8c94a2c8d4f4fb1f2f30335798b4bfc1d2e3e9f5f8f9ff00000000000000000000000000001321324201",
        "00780976d4d08bfea2fd5946cfb370ec7a45285827cb81bc91e582001b7e29f9e04f1fc0ae81469d9fdd2318d76d60bc75221865c4054b4b70e3b2f72ca13ec01dd58684282e507bb29663cbad25ba158035cd83e10b98b7d5df92e24c8e9e77d462c473d6028ede35c1d7c572107637485a9bc050a2b63ae269cdf03fe74a62a91d8e8ae889c134f1b16de6899efbc553dbd861b771f1471c5a28c4cd5fa698fdbf40a1622d420eba05558dfdb8cc17559e4e46b9f999ce1e4a5adb8019baa51b77b2b1079b42513efaf1cab338defe2e8766a1929e846bb8e65dcbe04b9d76c2b11562487239a121c198596b3f46940ce578742b4aac5aa937228f2e5c7d33734f3704c9f902405a76ee55996e9778c6e662d167f5e3149bf7595e53b0f0c4c9382ba5f5cc5b36ca6c65bff77bde5cc4cb7d12f74eef96f6664f0e2f9a8ecc3fbcd7802af6e3b45aa09c78229061fd71d7326ff7aaeef2a868834ba622faf4372541ee1bfb0233c75a8e4ddf9a38bf97f5065e4e08ced80c1cc2130a021b0209660a4737fe2883adc4982b363f79a03a978235baaf24e134a8c957739dd2f5a8d23d7111572104b990c28a9028539cc19620e67dc233f3c2e4085062ad38e9602f6aaff14299eabf1ff3052eb7f5d176c00ff1739ad2f393c52ae67a40103babe61c42238863e56bc21581f0e5f84790dc7b2609cfdff7821bc178515ad5b8792aeed6af52d3d7cc6888f3bc63b8885e222b496f7d4d686b2c954fa12d30283442e812b44bb2edd50a407322d9a0ad368752243a91a325deee1a05955eb8ffd024b54ab71083c56b821366c8c57dcf66e132a7df31512689086b460a8cce86ece388508cb5995273585e2a47766e65a7553bb8f6453672d679fee8424fa331231a6fd6d9d127b43ab7d5d4a319fecd903570c155a5ac50968b7eb8cc8f5cba8bf96ba37678035c8c43e2f20791332795193c4cecf807a711b869e8b4b6218ef9b997f22cdd01f44e2902e4de74cd5c296442d4b8bd360fcb95f34c0028c44a96bf6873066012e88b1e26f795e86740be66f489dbe4e6b674fd25f4213be971b03123b0bd6d4e71001b265257c3bf62ac87323d1a382f1c0903340ca5bb4e0ed1c50cf07b1e82416715465f01dcf80379058b7884ee74583c1e180b10d5f45cb9af753c0780dae62f448f3d3f59e62b50802ba89f92b29cdf94a540e1d8a026fdd163a7f46e3a3d10e8d1827bc78e8ccad4750a90cbe0bd781ef6588af56ea94ce6f8ad94d29cf6ad44c372cc5e3db3c3e7f879e23c990743329a9f6d36cef08601b28d9e0f43be6bf06efad71da7837f7282e696d65e050c7f9a2363148bbac2e7a5ecec33cc5cf36ee47a4e7e33762689a3832170b9c5346f53a121e1d775afc1aa69789b2e96c93fae4c6b8923177239dce08d8208e0fab0c5fa65833b4d7ae47fa3297546bdca262ab1e535c214ba9b6c9f177485ea23fa923dfbe4f81a26eed67fe6cd7fa1f13cac0640b8e798cd4ac9f194b853ce06655a0866a417f85591f9565a0a401393f9367cfc56ba88f5431580f3b2e6a0866533f347c8dc7cfa770784bb94c1dfbf2b76d6e4d94342f9f77f0f986f30343fd80dfca39e245a5c52206eb54db1fffae5b0b2a7c0a568539d790b5892b95d94d44b7a2f56774b5924122b19f5469355398c602514af1c03437fef238231985eb41ddff2d246fffedf941831e6069e54cab1a108008cc82c3e035593cbe8e204dddf153bd0b6bc0ae54adaf6a139f747582e38802d1444d29207eb84c6e5a36ba046a16c459b2a13d49060329b1707901957e8f93b220fb71478639739e6ae3a5cbfca666271d4ab"
      ],
      "sequence": 4294967294
    }
  ],
  "vout": [
    {
      "value": 499976.6113,
      "n": 0,
      "scriptPubKey": {
        "asm": "1 147a6a9ddf642f12ae91e058842774ae75f354a5058f5ff77e3729f05a1c5c11",
        "hex": "5120147a6a9ddf642f12ae91e058842774ae75f354a5058f5ff77e3729f05a1c5c11",
        "reqSigs": 1,
        "type": "witness_v1_scripthash",
        "addresses": [
          "3QJmnh"
        ]
      }
    },
    {
      "value": 1.0,
      "n": 1,
      "scriptPubKey": {
        "asm": "OP_RETURN d58b10447179f339f2623427ce0451f20dd906029040842b7772c783a75c2161 b978eb4a87f5daad2057072b68ce0561f2bf0d30b88062e4d72340415ed31d479958cb6aa7d5fa8d0077270b48ee2541d29f2d1098a042c4f70360617ef33d67f938ab0ac7b59aed6017476b288e4521b2ff4d70f8c022a4976300011e935d07d9188b2ae795bacd4037674b08ae650192df6d50d8e00284b74320213eb37d2739f86bca07755a2da0d787abe84e85e1723f8db03800e26457a3c0c1de539dc719d84bea27557a0d80f7a78bc86ea5c1521fad901820c2447783e0e1fe73bde779b82b8a47351a6de097c7eba80ec5a1327fcdf07840a22417e380819e13dd8759980baa67153a4dc0b7e7cb882ee581125fedd05860820437c3a0a1be33fda7b978eb4a87f5daad2057072b68ce0561f2bf0d30b88062e4d72340415ed31d479958cb6aa7d5fa8d0077270b48ee2541d29f2d1098a042c4f70360617ef33d67f938ab0ac7b59aed6017476b288e4521b2ff4d70f8c022a4976300011e935d07d9188b2ae795bacd4037674b08ae650192df6d50d8e00284b74320213eb37d2739f86bca07755a2da0d787abe84e85e1723f8db03800e26457a3c0c1de539dc719d84bea27557a0d80f7a78bc86ea5c1521fad901820c2447783e0e1fe73bde779b82b8a47351a6de097c7eba80ec5a1327fcdf07840a22417e380819e13dd8759980baa67153a4dc0b7e7cb882ee581125fedd05860820437c3a0a1be33fda7b978eb4a87f5daad2057072b68ce0561f2bf0d30b88062e4d72340415ed31d479958cb6aa7d5fa8d0077270b48ee2541d29f2d1098a042c4f70360617ef33d67f938ab0ac7b59aed6017476b288e4521b2ff4d70f8c022a4976300011e935d07d9188b2ae795bacd4037674b08ae650192df6d50d8e00284b74320213eb37d2739f86bca07755a2da0d787abe84e85e1723f8db03800e26457a3c0c1de539dc719d84bea27557a0d80f7a78bc86ea5c1521fad901820c2447783e0e1fe73bde779b82b8a47351a6de097c7eba80ec5a1327fcdf07840a22417e380819e13dd8759980baa67153a4dc0b7e7cb882ee581125fedd05860820437c3a0a1be33fda7b978eb4a87f5daad2057072b68ce0561f2bf0d30b88062e4d72340415ed31d479958cb6aa7d5fa8d0077270b48ee2541d29f2d1098a042c4f70360617ef33d67f938ab0ac7b59aed6017476b288e4521b2ff4d70f8c022a4976300011e935d07d9188b2ae795bacd4037674b08ae650192df6d50d8e00284b74320213eb37d2739f86bca07755a2da0d787abe84e85e1723f8db03800e26457a3c0c1de539dc719d84bea27557a0d80f7a78bc86ea5c1521fad901820c2447783e0e1fe73bde779b82b8a47351a6de097c7eba80ec5a1327fcdf07840a22417e380819e13dd8759980baa67153a4dc0b7e7cb882ee581125fedd05860820437c3a0a1be33fda7b978eb4a87f5daad2057072b68ce0561f2bf0d30b88062e4d72340415ed31d479958cb6aa7d5fa8d0077270b48ee2541d29f2d1098a042c4f70360617ef33d67f938ab0ac7b59aed6017476b288e4521b2ff4d70f8c022a4976300011e935d07d9188b2ae795bacd4037674b08ae650192df6d50d8e00284b74320213eb37d2739f86bca07755a2da0d787abe84e85e198e4cef7865407d60738881e2ebbdd4401851f472c488f8900c6d96f61058e82",
        "hex": "6a20d58b10447179f339f2623427ce0451f20dd906029040842b7772c783a75c21614db004b978eb4a87f5daad2057072b68ce0561f2bf0d30b88062e4d72340415ed31d479958cb6aa7d5fa8d0077270b48ee2541d29f2d1098a042c4f70360617ef33d67f938ab0ac7b59aed6017476b288e4521b2ff4d70f8c022a4976300011e935d07d9188b2ae795bacd4037674b08ae650192df6d50d8e00284b74320213eb37d2739f86bca07755a2da0d787abe84e85e1723f8db03800e26457a3c0c1de539dc719d84bea27557a0d80f7a78bc86ea5c1521fad901820c2447783e0e1fe73bde779b82b8a47351a6de097c7eba80ec5a1327fcdf07840a22417e380819e13dd8759980baa67153a4dc0b7e7cb882ee581125fedd05860820437c3a0a1be33fda7b978eb4a87f5daad2057072b68ce0561f2bf0d30b88062e4d72340415ed31d479958cb6aa7d5fa8d0077270b48ee2541d29f2d1098a042c4f70360617ef33d67f938ab0ac7b59aed6017476b288e4521b2ff4d70f8c022a4976300011e935d07d9188b2ae795bacd4037674b08ae650192df6d50d8e00284b74320213eb37d2739f86bca07755a2da0d787abe84e85e1723f8db03800e26457a3c0c1de539dc719d84bea27557a0d80f7a78bc86ea5c1521fad901820c2447783e0e1fe73bde779b82b8a47351a6de097c7eba80ec5a1327fcdf07840a22417e380819e13dd8759980baa67153a4dc0b7e7cb882ee581125fedd05860820437c3a0a1be33fda7b978eb4a87f5daad2057072b68ce0561f2bf0d30b88062e4d72340415ed31d479958cb6aa7d5fa8d0077270b48ee2541d29f2d1098a042c4f70360617ef33d67f938ab0ac7b59aed6017476b288e4521b2ff4d70f8c022a4976300011e935d07d9188b2ae795bacd4037674b08ae650192df6d50d8e00284b74320213eb37d2739f86bca07755a2da0d787abe84e85e1723f8db03800e26457a3c0c1de539dc719d84bea27557a0d80f7a78bc86ea5c1521fad901820c2447783e0e1fe73bde779b82b8a47351a6de097c7eba80ec5a1327fcdf07840a22417e380819e13dd8759980baa67153a4dc0b7e7cb882ee581125fedd05860820437c3a0a1be33fda7b978eb4a87f5daad2057072b68ce0561f2bf0d30b88062e4d72340415ed31d479958cb6aa7d5fa8d0077270b48ee2541d29f2d1098a042c4f70360617ef33d67f938ab0ac7b59aed6017476b288e4521b2ff4d70f8c022a4976300011e935d07d9188b2ae795bacd4037674b08ae650192df6d50d8e00284b74320213eb37d2739f86bca07755a2da0d787abe84e85e1723f8db03800e26457a3c0c1de539dc719d84bea27557a0d80f7a78bc86ea5c1521fad901820c2447783e0e1fe73bde779b82b8a47351a6de097c7eba80ec5a1327fcdf07840a22417e380819e13dd8759980baa67153a4dc0b7e7cb882ee581125fedd05860820437c3a0a1be33fda7b978eb4a87f5daad2057072b68ce0561f2bf0d30b88062e4d72340415ed31d479958cb6aa7d5fa8d0077270b48ee2541d29f2d1098a042c4f70360617ef33d67f938ab0ac7b59aed6017476b288e4521b2ff4d70f8c022a4976300011e935d07d9188b2ae795bacd4037674b08ae650192df6d50d8e00284b74320213eb37d2739f86bca07755a2da0d787abe84e85e198e4cef7865407d60738881e2ebbdd4401851f472c488f8900c6d96f61058e82",
        "type": "nulldata"
      }
    }
  ],
  "blockhash": "c0ea0e6b16ad20f35d4757cbcff39c3d199dbd7e252fa8e6bc9f3f36ee858c22",
  "confirmations": 1,
  "time": 1764183276,
  "blocktime": 1764183276
}