{
  "hex": "01000000000101a4470b87b6095c20f3cb8ffc9fcf9f876c1d7a4b4895c1c349b5571ab68bc3430100000000feffffff0200e1f50500000000fdd5046a201bb789a950d9b52c41f223e0db48424c35912d3dc2a809e039300eddd153a3d64db004218cdc56717884af7f6bfbbe4b69ce24bc366831cf0f492519d38bbc58ec7a8301acfc765158a48f5f4bdb9e6b49ee049c164811ef2f690539f3ab9c78cc5aa361cc9c163138c4ef3f2bbbfe0b298e64fc7628718f4f09655993cbfc18ac3ac341ecbc361118e4cf1f0b9bde2b09ae44dc560851af6f294579b3ebdc388c1ae3a10c5cd6f1f8042fffeb7b3ecbe94ea43cb6e8b14f8fc9a599530b3cd86cfa03812c7cf6d1d8240fdfcb5b1eebc96e841c96c8916fafe985b9732b1cf84cda23e14c1c96b1b8446fbfab3b7e8ba90ee47cf6a8f10fcf89e5d9134b7c982cba43c16c3cb69198644f9f8b1b5eab892ec45cd688d12fefa9c5f9336b5cb80c9a63218cdc56717884af7f6bfbbe4b69ce24bc366831cf0f492519d38bbc58ec7a8301acfc765158a48f5f4bdb9e6b49ee049c164811ef2f690539f3ab9c78cc5aa361cc9c163138c4ef3f2bbbfe0b298e64fc7628718f4f09655993cbfc18ac3ac341ecbc361118e4cf1f0b9bde2b09ae44dc560851af6f294579b3ebdc388c1ae3a10c5cd6f1f8042fffeb7b3ecbe94ea43cb6e8b14f8fc9a599530b3cd86cfa03812c7cf6d1d8240fdfcb5b1eebc96e841c96c8916fafe985b9732b1cf84cda23e14c1c96b1b8446fbfab3b7e8ba90ee47cf6a8f10fcf89e5d9134b7c982cba43c16c3cb69198644f9f8b1b5eab892ec45cd688d12fefa9c5f9336b5cb80c9a63218cdc56717884af7f6bfbbe4b69ce24bc366831cf0f492519d38bbc58ec7a8301acfc765158a48f5f4bdb9e6b49ee049c164811ef2f690539f3ab9c78cc5aa361cc9c163138c4ef3f2bbbfe0b298e64fc7628718f4f09655993cbfc18ac3ac341ecbc361118e4cf1f0b9bde2b09ae44dc560851af6f294579b3ebdc388c1ae3a10c5cd6f1f8042fffeb7b3ecbe94ea43cb6e8b14f8fc9a599530b3cd86cfa03812c7cf6d1d8240fdfcb5b1eebc96e841c96c8916fafe985b9732b1cf84cda23e14c1c96b1b8446fbfab3b7e8ba90ee47cf6a8f10fcf89e5d9134b7c982cba43c16c3cb69198644f9f8b1b5eab892ec45cd688d12fefa9c5f9336b5cb80c9a63218cdc56717884af7f6bfbbe4b69ce24bc366831cf0f492519d38bbc58ec7a8301acfc765158a48f5f4bdb9e6b49ee049c164811ef2f690539f3ab9c78cc5aa361cc9c163138c4ef3f2bbbfe0b298e64fc7628718f4f09655993cbfc18ac3ac341ecbc361118e4cf1f0b9bde2b09ae44dc560851af6f294579b3ebdc388c1ae3a10c5cd6f1f8042fffeb7b3ecbe94ea43cb6e8b14f8fc9a599530b3cd86cfa03812c7cf6d1d8240fdfcb5b1eebc96e841c96c8916fafe985b9732b1cf84cda23e14c1c96b1b8446fbfab3b7e8ba90ee47cf6a8f10fcf89e5d9134b7c982cba43c16c3cb69198644f9f8b1b5eab892ec45cd688d12fefa9c5f9336b5cb80c9a63218cdc56717884af7f6bfbbe4b69ce24bc366831cf0f492519d38bbc58ec7a8301acfc765158a48f5f4bdb9e6b49ee049c164811ef2f690539f3ab9c78cc5aa361cc9c163138c4ef3f2bbbfe0b298e64fc7628718f4f09655993cbfc18ac3ac341ecbc361118e4cf1f0b9bde2b09ae44dc560851af6f294579b3ebdc388c1ae3a10c5cd6f1f8042fffeb7b3ecbe94ea488bd667816ab626022849c37636d7a4342bb43f0a4d5661a9f4aed913817cb42f020b051792d0000225120feb0c883e1cd25b635d7e977c5a5fece1c28e36b23d8c3819134e6f01f69e71c02fd7509ed112390a216cf3f53255285f37f3a5055dfaceb0d7a83c00df0130cc9bdc579d2714b1855a1df31b26e4c5014fe5ef4d636a73d08b7e003d19d60214a746dc5b582a4a4cf231e9d4a711baf21e834dffaad8c1537a5ae2635170d2fc7eb2ceb38e96788c8e7a7dd1220e953f7d78664e7f9539e5ea6d181476ff793298669808d692d2f99f9a9f9e06a819e5339fe406779106dd36576429b443b1cbd597eca93570318a3b39eb2339d04a58d748bba3f76c44d762a2dec4cd7877cb3d7974836fd3231c2a07ea1e0528faa91e76152596fd99c9e20b87cb9c5ffac3e2637879722912eff42100d26b033349a635d321645ce8df915cb2d5094eee6307ff2a1c584d355031512b9e2f8fa53f0d8a5d1cb5924572a71fe23060626586682d056c2b00f18fb3829b63f47e2e912b55191cd077ce3511f66a5dda4d13d53952943e2d24b904518d0229e85b64439c9f694437a6e10b696f771ab10b1d2210eb24fc9ac1f16be531b6445c2699b70fe058a7d8daf4166b09caef0688657332ecb22d5c80ee987fb881469d99c18a713fc5c9b7a5c9af39a5442bdb74bba74431feb8433036ef80fc70ccbe03deb573677a63e5b96055142223b67816b36c3cb2e0ac2961b2a0ba076782d9868b8a6822180fc162c1d38376c3c4ba5c58bd459867262aca4713228b69d87fa2ed971b10bfbd6aacb7735568e0a1d78826693191fc3725a032017b36b14edbd86b3ad9445ca661f335e6e4b7ab33712bd7bd757d5bb9cd1f5c56e68f214afe2086c152ee5f620cd17319e928580cdb4fb2c582dc0ad2db6e042efc2bfdf02a332f32076e4f4e2d3c81e789aab816e5fc6d6964a19920af40833267cd9bd8433e01284b70592fd223a599bd98f4b88c86e29ca7ab769df59bd49dda1e03947f9f0b9123fea3014599aaf03faf978a91bf1f9ac74589203f782327ce27ef7b0d3812aea7f0aa9c523a64ecaa66daeac6a9506a3a00ed595370d8eb49abb3151822af1596d6e1d8e33a3ba5b598cab903cbed41288c5a0fd6ef690cee94211bfb8a3f192f12d3c3a929297174dd634864a2da00e1c1fbcd691da019e477e0d4950fb4012733c25a2c1d6549bbceb9f8a8b9ce8406ae041dbc58f036e705c9dfbe207f8cc87d38587505945646842fb0c63911fbad3f030c0f889e503efbb759f70e5ec7fb73f280abece4b6cdea91b270826c43d1f864082c81478470662e478636bda4197c0121798ee1c109c0e06a19ec5faa305b5d631232a45ec5e2e85f133ad6573dd790c6e65cb832197e7185b1239249ebf031454a809d245b841695aae3f8eb81c9ddd908326e06a7f356d98fba038a2d25a10fcdc522b913565c7cbe184540a5211a813f559c8ed33b3001d76cdbaf8c31e2386a26c9040eb05124918d2be79477a98df139d1d1e360ae74d29fee4b6e360e23a9bba2c36e49cb7cbbef34d660c19f850c2b10b0f5ff5fc9e70ce9779be505acbccca60f340719d896da214fb6b9fb35d89445ea91735113de15fe5916a7b42c63a068b0df5952ba95bfcac876250045b7853318e9233a3b939b10f50448b9a004cf0f95e683790deb8010cb2205f831bc592761848d39e07e771f4e75a0b62891e67e927a073ba1037cd753500bb26151caad53097bda7ffb16b6fc170c1a294fee9a53dd9ed8f2652d9fdcc6ade7ff96f57cef9f6d97e54eca428de2853653849335251ac52070f4319e65518fae2ef24335fd769816dc71d1cff9cd56724921af6d0a5d066094147dc4577d807db26f27de3b65b68472b862a8beca238872ed7072f536af5f15e1fbd8f72838353c5e63fc25436d32eb260ad112890f354bc11266434213a1aa435f7b16615dad3c03239c02f0c04058cf6f3530e8d60603ffc605381e76fde64dfb50aeb48e54ad279bbe510535fdb9cd0f9ec7709fa6e74e1aab11cf249cb7e03026b1a0d597b544bf1a87730260074cf3db2d2ef22cfc91d6dad1c8d98d6be37003b1ebd2b7b9c52bfd00c397eaadd74c6268e38abc3b774820070bdf4ba6e41ee2724c9c161683fb95efe2c92f7dc91783010617123740ffc6310f8ad629e71fe6c9c67a565d7b51b5ccbde17523fd9629b0a701b7bba3cd3f6c7a79ee8342b9fa11ffe23bf8deb2fb35c917c76f7bb4ebb64816c6cf6871011350236b157ba089d501d2a6ffcb23b32d9d0b10ac3e775a7c279830945ba9c5cb2cc3a6e992ebdeded7a20b1aef36896e1ecb9f84d21d907b8b35833171178dfd452d44b4c9ebdd1831008bfcb4624d5a2874fc45a8395703d7b444b4d9394a673834e7ffd27f08331ca552e24d259f02ed8a9831b2c17161df408b2fc06c27bbff9358c2e307f6166eabb916a599bb73c8e2cf2776376775c8d77f8559331a98ba77d337a39af8e912abe5423b3d4eb5baeb70dced3fab70a35016cf7af5c2df1cd836467f0adbd133b7b28e3b520463792c510108c8d002a9d8ac38516b5982ee6e9687c3c9914d2d1ed606402145f980b5ad87fecad8dc8375df987c085ff31859f71c46538d03842f9cc2be5b688fb8885d2d6eb3722a25ac03f6a21b596460d902c5fdc12f1e13ebf36790e8cfd4955b2d10b19318df7c805cf5185bae4e49b4eaf3a5ee2ca0f74e40703a1a856abfdda6ab9f39335a4e483417b84b7376e5850d6df77551233174265deffe68a537d3cff4f9c125bd10955f30c4efd90ee46e8dbe6e35fd99b88e5cfe00aed8a89d9b4abd55e13d4fb2f6aba4da7531f3e082fc9440053f1ac9e89624549e004cb47ff308b30b5452af92eb52d73ce669337829b8af16559963bd22e4b5e922630b5acdce9dd59b50921191f89b37458da1e4f61ac05cecdbecf5f06f445b708460202acbb200f6c13c35805f68d71d041e9e642457b7b1fe28d1c1bdb04f4bcf6dfe8d30aa0f4031532b7f34b47b9c641b174e37bb64f369d3329a4b6998ed8053a9b4c5f9db5ab687acbbb46fb6a5bdf27f56bb0f2f3e38dbdf3da77d293f4a29f922d943bb0f372977c9ceec8249012bb3d91b2086f26cb49e05157f1a8e03b25127e0dfc3835ba066c14627871faa08ffbd5dc4b1bd6e9650b5d2a46653361c5df300d3b9d06d19160ab2d6c8c1fd7414ab43a3625deb338a04db608d57d47d85b03eec0e32587a46fa3380200bbefdc53b6977fe238501bd5973fdb0a2d235ebbb077275b63db5493f02618f2868b97ef0491c733a7aa10ceabb15af3df2999dc98183035dd677e7cc41c4b78a5b948ed311f639ab6ddcaa71603acec649f92d6a2407c0dad79b08e9b040a25646678849098babdbed0d5eafd00343a40424a545c6163849699b2bae0f4f51f487488999aa2b1c5c9defb0d2e394269717f899aa3b5c9ccdee80000000000000000000000000000000000000010222e3d01fd210500f3ded1e003ba19be7e06a726998ae6cce098d5008da21d6282098569a5e4181c97c3d98711110ae40933d426a78c7c7987b0a7092c4ddd583a24ce625385c24570ff0f0d34355de3352626f8be0677ad5342e2407c4a0b160b3b778308c887e9563996203f6508737e73ba89ad74ef0498cdc970a2887b0286d61bb4399de381b62d54fecd8edc547be21e57d83104e163a8a9aec34b27cba4bc78b8f16b5107d060049dd45478ec0d99a0d77cc461acb1506cba2fc134ea2f3ce42b3a7df8b7bee72bb6614c4c34e2060c30317c8fac16c757646b3e0881325fb242c89241076e9c9f53e0fdb613cc6b20bfef309048542293733d067e9948d9df5036426a1d0eedce245a4a75d418cfc58b9218145ba765cf86d768edb88efda031bb985e7eb1da1a0dcf131a2e6140ea335c076c192715a1a291cae8bd73acd582695546efd2a98945ff7541d4c9ca8e16ba02cd5d42c1c266d08a3d5e68fd0d54a93897e046234175f780f568b0aefc616ad45ef22fb2c0a8c29703a35572f26638be6235748a1dbdfae2d87d0b25b2b02830c9851dd73472cdeeeac504d044e09d4869be5b012cd95aef6df32c41e53a649c1d7d71b168c70c51849f2cbb33bfbb0553dbe30d10a0c58bfeae62186947ddfa21f946a15afba9470e35288de4bd640dbda267895a36e346be1d263181c2490c82f0842397cc473d29b2c0bf974584e203989e9266e32b5479a919447e86fcd70dc99981834c43d38db0e37493a792f29ab4ac47a11938913746147bc87648b4f906f6e65ee9b687b9affa5c22313c593e86e0e71ed685a7fdf70ae3c920f478d8a47a98301a448cf7517620f499dd92e1d835a4dfa267923675cb89898a4cd1d2338bd8ce900202d1c95c2d242c62b8210cc42dcbc2c552b2e0e8059b557232fd00c69adef0af953d1c6e8c8ccfbd0f5321f8cfb5451d4b8d39632006055ef92d0154b18ed48d47825b02e7751441f588393acd263be318c2bf227e63ce19d356173ada36a12bdcc856d38a6c8076a0cfabe25ab4d83d1fea559d68828f1ab3c36d903a47bf6dc241ef1472074c10f6f73fdfbd5d0d85495a78cb4d86a5c55e0182ead9f633493a790c709d1c5ba1140cd08e2952b7b8b040c05ae784118ac2dd7fc3b1dff2a195842655479762108b7fd6891239c2699fd8df50af74af0eed308d8b774845277db4fb994ebba35cb86b6fc9b9012a29d2f608dbdd51336b01c1c436f30309527202b15029eb3fa486e21cd60caf9c2b4402e818892d7fb096b23893cfe1460acfd6cf7e59b323180baf33410653e1a435345079749fb20a1e03da2a6844d7d875f945d20c4b7e413b6da32d204c19c181ccb4202dadf2c94bbd40c40f66e15ba8d69b6fdf47711dadcbcefa2677da3d68ae4d222f8faf83aa4ea19165fb456b8fe720e84ebe4fea0e7c914c1a051113fe63edb2616209a4246239a57fa1b0eeb173674e3d2793c396acce3c893910b3f4da877aaee8948fedd9c66ed8e5d5455e9552fbd5f825571879ebb29d8d9c3f9d00d9bfb63e6d275e0d6276bce3b043ea9a52304546f5be3a2a401500601670960dba420f9705e2921cee805c9bc7844deaa318b729314c603b26bb03ce4468a9a8938f7630d8c2caf0fc342cac57f1bb45f57e6df42f7e8d3d0e8dd286a5109c1349431c6c4aa072fdd2bc1ada3210f8d173f1324273a601a59cf1742fc2633cc10cf0fb964b6b0729dd65e0dc709a8b4e79a1294bc9045cf1a8bda7a819af05bacb9ef126d3926c30be90e234e53bde9903befa51e2d3ec22b8b280c1860a263d0468e9f827537c06003ffa8279bf9ccbe58f4106eeabb886b66e000000",
  "txid": "4fb7de8f74c41685ac340f55478221543fd73887819ba4922f597be77dca39a3",
  "hash": "de0a1798d62067e349ac5990f2e5a2585a7872a9f6c4bd026615d1c53210ad8c",
  "size": 5085,
  "vsize": 2278,
  "version": 1,
  "locktime": 110,
  "vin": [
    {
      "txid": "43c38bb61a57b549c3c195484b7a1d6c879fcf9ffc8fcbf3205c09b6870b47a4",
      "vout": 1,
      "scriptSig": {
        "asm": "",
        "hex": ""
      },
      "txinwitness": [
        "ed112390a216cf3f53255285f37f3a5055dfaceb0d7a83c00df0130cc9bdc579d2714b1855a1df31b26e4c5014fe5ef4d636a73d08b7e003d19d60214a746dc5b582a4a4cf231e9d4a711baf21e834dffaad8c1537a5ae2635170d2fc7eb2ceb38e96788c8e7a7dd1220e953f7d78664e7f9539e5ea6d181476ff793298669808d692d2f99f9a9f9e06a819e5339fe406779106dd36576429b443b1cbd597eca93570318a3b39eb2339d04a58d748bba3f76c44d762a2dec4cd7877cb3d7974836fd3231c2a07ea1e0528faa91e76152596fd99c9e20b87cb9c5ffac3e2637879722912eff42100d26b033349a635d321645ce8df915cb2d5094eee6307ff2a1c584d355031512b9e2f8fa53f0d8a5d1cb5924572a71fe23060626586682d056c2b00f18fb3829b63f47e2e912b55191cd077ce3511f66a5dda4d13d53952943e2d24b904518d0229e85b64439c9f694437a6e10b696f771ab10b1d2210eb24fc9ac1f16be531b6445c2699b70fe058a7d8daf4166b09caef0688657332ecb22d5c80ee987fb881469d99c18a713fc5c9b7a5c9af39a5442bdb74bba74431feb8433036ef80fc70ccbe03deb573677a63e5b96055142223b67816b36c3cb2e0ac2961b2a0ba076782d9868b8a6822180fc162c1d38376c3c4ba5c58bd459867262aca4713228b69d87fa2ed971b10bfbd6aacb7735568e0a1d78826693191fc3725a032017b36b14edbd86b3ad9445ca661f335e6e4b7ab33712bd7bd757d5bb9cd1f5c56e68f214afe2086c152ee5f620cd17319e928580cdb4fb2c582dc0ad2db6e042efc2bfdf02a332f32076e4f4e2d3c81e789aab816e5fc6d6964a19920af40833267cd9bd8433e01284b70592fd223a599bd98f4b88c86e29ca7ab769df59bd49dda1e03947f9f0b9123fea3014599aaf03faf978a91bf1f9ac74589203f782327ce27ef7b0d3812aea7f0aa9c523a64ecaa66daeac6a9506a3a00ed595370d8eb49abb3151822af1596d6e1d8e33a3ba5b598cab903cbed41288c5a0fd6ef690cee94211bfb8a3f192f12d3c3a929297174dd634864a2da00e1c1fbcd691da019e477e0d4950fb4012733c25a2c1d6549bbceb9f8a8b9ce8406ae041dbc58f036e705c9dfbe207f8cc87d38587505945646842fb0c63911fbad3f030c0f889e503efbb759f70e5ec7fb73f280abece4b6cdea91b270826c43d1f864082c81478470662e478636bda4197c0121798ee1c109c0e06a19ec5faa305b5d631232a45ec5e2e85f133ad6573dd790c6e65cb832197e7185b1239249ebf031454a809d245b841695aae3f8eb81c9ddd908326e06a7f356d98fba038a2d25a10fcdc522b913565c7cbe184540a5211a813f559c8ed33b3001d76cdbaf8c31e2386a26c9040eb05124918d2be79477a98df139d1d1e360ae74d29fee4b6e360e23a9bba2c36e49cb7cbbef34d660c19f850c2b10b0f5ff5fc9e70ce9779be505acbccca60f340719d896da214fb6b9fb35d89445ea91735113de15fe5916a7b42c63a068b0df5952ba95bfcac876250045b7853318e9233a3b939b10f50448b9a004cf0f95e683790deb8010cb2205f831bc592761848d39e07e771f4e75a0b62891e67e927a073ba1037cd753500bb26151caad53097bda7ffb16b6fc170c1a294fee9a53dd9ed8f2652d9fdcc6ade7ff96f57cef9f6d97e54eca428de2853653849335251ac52070f4319e65518fae2ef24335fd769816dc71d1cff9cd56724921af6d0a5d066094147dc4577d807db26f27de3b65b68472b862a8beca238872ed7072f536af5f15e1fbd8f72838353c5e63fc25436d32eb260ad112890f354bc11266434213a1aa435f7b16615dad3c03239c02f0c04058cf6f3530e8d60603ffc605381e76fde64dfb50aeb48e54ad279bbe510535fdb9cd0f9ec7709fa6e74e1aab11cf249cb7e03026b1a0d597b544bf1a87730260074cf3db2d2ef22cfc91d6dad1c8d98d6be37003b1ebd2b7b9c52bfd00c397eaadd74c6268e38abc3b774820070bdf4ba6e41ee2724c9c161683fb95efe2c92f7dc91783010617123740ffc6310f8ad629e71fe6c9c67a565d7b51b5ccbde17523fd9629b0a701b7bba3cd3f6c7a79ee8342b9fa11ffe23bf8deb2fb35c917c76f7bb4ebb64816c6cf6871011350236b157ba089d501d2a6ffcb23b32d9d0b10ac3e775a7c279830945ba9c5cb2cc3a6e992ebdeded7a20b1aef36896e1ecb9f84d21d907b8b35833171178dfd452d44b4c9ebdd1831008bfcb4624d5a2874fc45a8395703d7b444b4d9394a673834e7ffd27f08331ca552e24d259f02ed8a9831b2c17161df408b2fc06c27bbff9358c2e307f6166eabb916a599bb73c8e2cf2776376775c8d77f8559331a98ba77d337a39af8e912abe5423b3d4eb5baeb70dced3fab70a35016cf7af5c2df1cd836467f0adbd133b7b28e3b520463792c510108c8d002a9d8ac38516b5982ee6e9687c3c9914d2d1ed606402145f980b5ad87fecad8dc8375df987c085ff31859f71c46538d03842f9cc2be5b688fb8885d2d6eb3722a25ac03f6a21b596460d902c5fdc12f1e13ebf36790e8cfd4955b2d10b19318df7c805cf5185bae4e49b4eaf3a5ee2ca0f74e40703a1a856abfdda6ab9f39335a4e483417b84b7376e5850d6df77551233174265deffe68a537d3cff4f9c125bd10955f30c4efd90ee46e8dbe6e35fd99b88e5cfe00aed8a89d9b4abd55e13d4fb2f6aba4da7531f3e082fc9440053f1ac9e89624549e004cb47ff308b30b5452af92eb52d73ce669337829b8af16559963bd22e4b5e922630b5acdce9dd59b50921191f89b37458da1e4f61ac05cecdbecf5f06f445b708460202acbb200f6c13c35805f68d71d041e9e642457b7b1fe28d1c1bdb04f4bcf6dfe8d30aa0f4031532b7f34b47b9c641b174e37bb64f369d3329a4b6998ed8053a9b4c5f9db5ab687acbbb46fb6a5bdf27f56bb0f2f3e38dbdf3da77d293f4a29f922d943bb0f372977c9ceec8249012bb3d91b2086f26cb49e05157f1a8e03b25127e0dfc3835ba066c14627871faa08ffbd5dc4b1bd6e9650b5d2a46653361c5df300d3b9d06d19160ab2d6c8c1fd7414ab43a3625deb338a04db608d57d47d85b03eec0e32587a46fa3380200bbefdc53b6977fe238501bd5973fdb0a2d235ebbb077275b63db5493f02618f2868b97ef0491c733a7aa10ceabb15af3df2999dc98183035dd677e7cc41c4b78a5b948ed311f639ab6ddcaa71603acec649f92d6a2407c0dad79b08e9b040a25646678849098babdbed0d5eafd00343a40424a545c6163849699b2bae0f4f51f487488999aa2b1c5c9defb0d2e394269717f899aa3b5c9ccdee80000000000000000000000000000000000000010222e3d01",
        "00f3ded1e003ba19be7e06a726998ae6cce098d5008da21d6282098569a5e4181c97c3d98711110ae40933d426a78c7c7987b0a7092c4ddd583a24ce625385c24570ff0f0d34355de3352626f8be0677ad5342e2407c4a0b160b3b778308c887e9563996203f6508737e73ba89ad74ef0498cdc970a2887b0286d61bb4399de381b62d54fecd8edc547be21e57d83104e163a8a9aec34b27cba4bc78b8f16b5107d060049dd45478ec0d99a0d77cc461acb1506cba2fc134ea2f3ce42b3a7df8b7bee72bb6614c4c34e2060c30317c8fac16c757646b3e0881325fb242c89241076e9c9f53e0fdb613cc6b20bfef309048542293733d067e9948d9df5036426a1d0eedce245a4a75d418cfc58b9218145ba765cf86d768edb88efda031bb985e7eb1da1a0dcf131a2e6140ea335c076c192715a1a291cae8bd73acd582695546efd2a98945ff7541d4c9ca8e16ba02cd5d42c1c266d08a3d5e68fd0d54a93897e046234175f780f568b0aefc616ad45ef22fb2c0a8c29703a35572f26638be6235748a1dbdfae2d87d0b25b2b02830c9851dd73472cdeeeac504d044e09d4869be5b012cd95aef6df32c41e53a649c1d7d71b168c70c51849f2cbb33bfbb0553dbe30d10a0c58bfeae62186947ddfa21f946a15afba9470e35288de4bd640dbda267895a36e346be1d263181c2490c82f0842397cc473d29b2c0bf974584e203989e9266e32b5479a919447e86fcd70dc99981834c43d38db0e37493a792f29ab4ac47a11938913746147bc87648b4f906f6e65ee9b687b9affa5c22313c593e86e0e71ed685a7fdf70ae3c920f478d8a47a98301a448cf7517620f499dd92e1d835a4dfa267923675cb89898a4cd1d2338bd8ce900202d1c95c2d242c62b8210cc42dcbc2c552b2e0e8059b557232fd00c69adef0af953d1c6e8c8ccfbd0f5321f8cfb5451d4b8d39632006055ef92d0154b18ed48d47825b02e7751441f588393acd263be318c2bf227e63ce19d356173ada36a12bdcc856d38a6c8076a0cfabe25ab4d83d1fea559d68828f1ab3c36d903a47bf6dc241ef1472074c10f6f73fdfbd5d0d85495a78cb4d86a5c55e0182ead9f633493a790c709d1c5ba1140cd08e2952b7b8b040c05ae784118ac2dd7fc3b1dff2a195842655479762108b7fd6891239c2699fd8df50af74af0eed308d8b774845277db4fb994ebba35cb86b6fc9b9012a29d2f608dbdd51336b01c1c436f30309527202b15029eb3fa486e21cd60caf9c2b4402e818892d7fb096b23893cfe1460acfd6cf7e59b323180baf33410653e1a435345079749fb20a1e03da2a6844d7d875f945d20c4b7e413b6da32d204c19c181ccb4202dadf2c94bbd40c40f66e15ba8d69b6fdf47711dadcbcefa2677da3d68ae4d222f8faf83aa4ea19165fb456b8fe720e84ebe4fea0e7c914c1a051113fe63edb2616209a4246239a57fa1b0eeb173674e3d2793c396acce3c893910b3f4da877aaee8948fedd9c66ed8e5d5455e9552fbd5f825571879ebb29d8d9c3f9d00d9bfb63e6d275e0d6276bce3b043ea9a52304546f5be3a2a401500601670960dba420f9705e2921cee805c9bc7844deaa318b729314c603b26bb03ce4468a9a8938f7630d8c2caf0fc342cac57f1bb45f57e6df42f7e8d3d0e8dd286a5109c1349431c6c4aa072fdd2bc1ada3210f8d173f1324273a601a59cf1742fc2633cc10cf0fb964b6b0729dd65e0dc709a8b4e79a1294bc9045cf1a8bda7a819af05bacb9ef126d3926c30be90e234e53bde9903befa51e2d3ec22b8b280c1860a263d0468e9f827537c06003ffa8279bf9ccbe58f4106eeabb886b6"
      ],
      "sequence": 4294967294
    }
  ],
  "vout": [
    {
      "value": 1.0,
      "n": 0,
      "scriptPubKey": {
        "asm": "OP_RETURN 1bb789a950d9b52c41f223e0db48424c35912d3dc2a809e039300eddd153a3d6 218cdc56717884af7f6bfbbe4b69ce24bc366831cf0f492519d38bbc58ec7a8301acfc765158a48f5f4bdb9e6b49ee049c164811ef2f690539f3ab9c78cc5aa361cc9c163138c4ef3f2bbbfe0b298e64fc7628718f4f09655993cbfc18ac3ac341ecbc361118e4cf1f0b9bde2b09ae44dc560851af6f294579b3ebdc388c1ae3a10c5cd6f1f8042fffeb7b3ecbe94ea43cb6e8b14f8fc9a599530b3cd86cfa03812c7cf6d1d8240fdfcb5b1eebc96e841c96c8916fafe985b9732b1cf84cda23e14c1c96b1b8446fbfab3b7e8ba90ee47cf6a8f10fcf89e5d9134b7c982cba43c16c3cb69198644f9f8b1b5eab892ec45cd688d12fefa9c5f9336b5cb80c9a63218cdc56717884af7f6bfbbe4b69ce24bc366831cf0f492519d38bbc58ec7a8301acfc765158a48f5f4bdb9e6b49ee049c164811ef2f690539f3ab9c78cc5aa361cc9c163138c4ef3f2bbbfe0b298e64fc7628718f4f09655993cbfc18ac3ac341ecbc361118e4cf1f0b9bde2b09ae44dc560851af6f294579b3ebdc388c1ae3a10c5cd6f1f8042fffeb7b3ecbe94ea43cb6e8b14f8fc9a599530b3cd86cfa03812c7cf6d1d8240fdfcb5b1eebc96e841c96c8916fafe985b9732b1cf84cda23e14c1c96b1b8446fbfab3b7e8ba90ee47cf6a8f10fcf89e5d9134b7c982cba43c16c3cb69198644f9f8b1b5eab892ec45cd688d12fefa9c5f9336b5cb80c9a63218cdc56717884af7f6bfbbe4b69ce24bc366831cf0f492519d38bbc58ec7a8301acfc765158a48f5f4bdb9e6b49ee049c164811ef2f690539f3ab9c78cc5aa361cc9c163138c4ef3f2bbbfe0b298e64fc7628718f4f09655993cbfc18ac3ac341ecbc361118e4cf1f0b9bde2b09ae44dc560851af6f294579b3ebdc388c1ae3a10c5cd6f1f8042fffeb7b3ecbe94ea43cb6e8b14f8fc9a599530b3cd86cfa03812c7cf6d1d8240fdfcb5b1eebc96e841c96c8916fafe985b9732b1cf84cda23e14c1c96b1b8446fbfab3b7e8ba90ee47cf6a8f10fcf89e5d9134b7c982cba43c16c3cb69198644f9f8b1b5eab892ec45cd688d12fefa9c5f9336b5cb80c9a63218cdc56717884af7f6bfbbe4b69ce24bc366831cf0f492519d38bbc58ec7a8301acfc765158a48f5f4bdb9e6b49ee049c164811ef2f690539f3ab9c78cc5aa361cc9c163138c4ef3f2bbbfe0b298e64fc7628718f4f09655993cbfc18ac3ac341ecbc361118e4cf1f0b9bde2b09ae44dc560851af6f294579b3ebdc388c1ae3a10c5cd6f1f8042fffeb7b3ecbe94ea43cb6e8b14f8fc9a599530b3cd86cfa03812c7cf6d1d8240fdfcb5b1eebc96e841c96c8916fafe985b9732b1cf84cda23e14c1c96b1b8446fbfab3b7e8ba90ee47cf6a8f10fcf89e5d9134b7c982cba43c16c3cb69198644f9f8b1b5eab892ec45cd688d12fefa9c5f9336b5cb80c9a63218cdc56717884af7f6bfbbe4b69ce24bc366831cf0f492519d38bbc58ec7a8301acfc765158a48f5f4bdb9e6b49ee049c164811ef2f690539f3ab9c78cc5aa361cc9c163138c4ef3f2bbbfe0b298e64fc7628718f4f09655993cbfc18ac3ac341ecbc361118e4cf1f0b9bde2b09ae44dc560851af6f294579b3ebdc388c1ae3a10c5cd6f1f8042fffeb7b3ecbe94ea488bd667816ab626022849c37636d7a4342bb43f0a4d5661a9f4aed913817cb42",
        "hex": "6a201bb789a950d9b52c41f223e0db48424c35912d3dc2a809e039300eddd153a3d64db004218cdc56717884af7f6bfbbe4b69ce24bc366831cf0f492519d38bbc58ec7a8301acfc765158a48f5f4bdb9e6b49ee049c164811ef2f690539f3ab9c78cc5aa361cc9c163138c4ef3f2bbbfe0b298e64fc7628718f4f09655993cbfc18ac3ac341ecbc361118e4cf1f0b9bde2b09ae44dc560851af6f294579b3ebdc388c1ae3a10c5cd6f1f8042fffeb7b3ecbe94ea43cb6e8b14f8fc9a599530b3cd86cfa03812c7cf6d1d8240fdfcb5b1eebc96e841c96c8916fafe985b9732b1cf84cda23e14c1c96b1b8446fbfab3b7e8ba90ee47cf6a8f10fcf89e5d9134b7c982cba43c16c3cb69198644f9f8b1b5eab892ec45cd688d12fefa9c5f9336b5cb80c9a63218cdc56717884af7f6bfbbe4b69ce24bc366831cf0f492519d38bbc58ec7a8301acfc765158a48f5f4bdb9e6b49ee049c164811ef2f690539f3ab9c78cc5aa361cc9c163138c4ef3f2bbbfe0b298e64fc7628718f4f09655993cbfc18ac3ac341ecbc361118e4cf1f0b9bde2b09ae44dc560851af6f294579b3ebdc388c1ae3a10c5cd6f1f8042fffeb7b3ecbe94ea43cb6e8b14f8fc9a599530b3cd86cfa03812c7cf6d1d8240fdfcb5b1eebc96e841c96c8916fafe985b9732b1cf84cda23e14c1c96b1b8446fbfab3b7e8ba90ee47cf6a8f10fcf89e5d9134b7c982cba43c16c3cb69198644f9f8b1b5eab892ec45cd688d12fefa9c5f9336b5cb80c9a63218cdc56717884af7f6bfbbe4b69ce24bc366831cf0f492519d38bbc58ec7a8301acfc765158a48f5f4bdb9e6b49ee049c164811ef2f690539f3ab9c78cc5aa361cc9c163138c4ef3f2bbbfe0b298e64fc7628718f4f09655993cbfc18ac3ac341ecbc361118e4cf1f0b9bde2b09ae44dc560851af6f294579b3ebdc388c1ae3a10c5cd6f1f8042fffeb7b3ecbe94ea43cb6e8b14f8fc9a599530b3cd86cfa03812c7cf6d1d8240fdfcb5b1eebc96e841c96c8916fafe985b9732b1cf84cda23e14c1c96b1b8446fbfab3b7e8ba90ee47cf6a8f10fcf89e5d9134b7c982cba43c16c3cb69198644f9f8b1b5eab892ec45cd688d12fefa9c5f9336b5cb80c9a63218cdc56717884af7f6bfbbe4b69ce24bc366831cf0f492519d38bbc58ec7a8301acfc765158a48f5f4bdb9e6b49ee049c164811ef2f690539f3ab9c78cc5aa361cc9c163138c4ef3f2bbbfe0b298e64fc7628718f4f09655993cbfc18ac3ac341ecbc361118e4cf1f0b9bde2b09ae44dc560851af6f294579b3ebdc388c1ae3a10c5cd6f1f8042fffeb7b3ecbe94ea43cb6e8b14f8fc9a599530b3cd86cfa03812c7cf6d1d8240fdfcb5b1eebc96e841c96c8916fafe985b9732b1cf84cda23e14c1c96b1b8446fbfab3b7e8ba90ee47cf6a8f10fcf89e5d9134b7c982cba43c16c3cb69198644f9f8b1b5eab892ec45cd688d12fefa9c5f9336b5cb80c9a63218cdc56717884af7f6bfbbe4b69ce24bc366831cf0f492519d38bbc58ec7a8301acfc765158a48f5f4bdb9e6b49ee049c164811ef2f690539f3ab9c78cc5aa361cc9c163138c4ef3f2bbbfe0b298e64fc7628718f4f09655993cbfc18ac3ac341ecbc361118e4cf1f0b9bde2b09ae44dc560851af6f294579b3ebdc388c1ae3a10c5cd6f1f8042fffeb7b3ecbe94ea488bd667816ab626022849c37636d7a4342bb43f0a4d5661a9f4aed913817cb42",
        "type": "nulldata"
      }
    },
    {
      "value": 499990.8479,
      "n": 1,
      "scriptPubKey": {
        "asm": "1 feb0c883e1cd25b635d7e977c5a5fece1c28e36b23d8c3819134e6f01f69e71c",
        "hex": "5120feb0c883e1cd25b635d7e977c5a5fece1c28e36b23d8c3819134e6f01f69e71c",
        "reqSigs": 1,
        "type": "witness_v1_scripthash",
        "addresses": [
          "3QJmnh"
        ]
      }
    }
  ],
  "blockhash": "2622e54cefe9d3081f6ac04e4c67f268d7c1e3313b2268ffede4439aafe1acd1",
  "confirmations": 1,
  "time": 1764177922,
  "blocktime": 1764177922
}