{
  "hex": "0100000000010193aa9f9789d9c305702df71fb73712ed1ccf698da5e454f8b794e20e71d1d92f0000000000feffffff02c0cc030f792d0000225120b1a334731ab14ea2d16a9bec2a3c39ab78edd8199ecda75cf8fbc3ab983dbeb400e1f50500000000fdd5046a202e740171dbed9ce52b8a38069ca25c4e6e697ad0a515a457d4622fbb092df8c24db004c21d57ca1c682483f20fdaf3ad79153e1ed8d02022c8cf415fd9d367f6eee75be23d77ea3c4804a3d22ffad38d59351e3ef8f00002e8ef617ff9f347d6cec77b825d178a5c2864c3b24f9ab3ed39557e5e98906062888f011f999327b6aea71ba27d37aa7c0844e3926fba93cd19755e7eb8b04042a8af213fb9b307968e873b429dd74a9ce8a403728f5a732df995be9e5850a0a2484fc1df5953e7766e67db62bdf76abcc8842352af7a530dd9b59ebe78708082686fe1ff7973c7564e47fb02dd970adca8e44332cf1a336db9d5fede1810e0e2080f819f1913a7362e279b22fdb72afc88c46312ef3a134d99f5defe3830c0c2282fa1bf393387160e07bbc21d57ca1c682483f20fdaf3ad79153e1ed8d02022c8cf415fd9d367f6eee75be23d77ea3c4804a3d22ffad38d59351e3ef8f00002e8ef617ff9f347d6cec77b825d178a5c2864c3b24f9ab3ed39557e5e98906062888f011f999327b6aea71ba27d37aa7c0844e3926fba93cd19755e7eb8b04042a8af213fb9b307968e873b429dd74a9ce8a403728f5a732df995be9e5850a0a2484fc1df5953e7766e67db62bdf76abcc8842352af7a530dd9b59ebe78708082686fe1ff7973c7564e47fb02dd970adca8e44332cf1a336db9d5fede1810e0e2080f819f1913a7362e279b22fdb72afc88c46312ef3a134d99f5defe3830c0c2282fa1bf393387160e07bbc21d57ca1c682483f20fdaf3ad79153e1ed8d02022c8cf415fd9d367f6eee75be23d77ea3c4804a3d22ffad38d59351e3ef8f00002e8ef617ff9f347d6cec77b825d178a5c2864c3b24f9ab3ed39557e5e98906062888f011f999327b6aea71ba27d37aa7c0844e3926fba93cd19755e7eb8b04042a8af213fb9b307968e873b429dd74a9ce8a403728f5a732df995be9e5850a0a2484fc1df5953e7766e67db62bdf76abcc8842352af7a530dd9b59ebe78708082686fe1ff7973c7564e47fb02dd970adca8e44332cf1a336db9d5fede1810e0e2080f819f1913a7362e279b22fdb72afc88c46312ef3a134d99f5defe3830c0c2282fa1bf393387160e07bbc21d57ca1c682483f20fdaf3ad79153e1ed8d02022c8cf415fd9d367f6eee75be23d77ea3c4804a3d22ffad38d59351e3ef8f00002e8ef617ff9f347d6cec77b825d178a5c2864c3b24f9ab3ed39557e5e98906062888f011f999327b6aea71ba27d37aa7c0844e3926fba93cd19755e7eb8b04042a8af213fb9b307968e873b429dd74a9ce8a403728f5a732df995be9e5850a0a2484fc1df5953e7766e67db62bdf76abcc8842352af7a530dd9b59ebe78708082686fe1ff7973c7564e47fb02dd970adca8e44332cf1a336db9d5fede1810e0e2080f819f1913a7362e279b22fdb72afc88c46312ef3a134d99f5defe3830c0c2282fa1bf393387160e07bbc21d57ca1c682483f20fdaf3ad79153e1ed8d02022c8cf415fd9d367f6eee75be23d77ea3c4804a3d22ffad38d59351e3ef8f00002e8ef617ff9f347d6cec77b825d178a5c2864c3b24f9ab3ed39557e5e98906062888f011f999327b6aea71ba27d37aa7c0844e3926fba93cd19755e7eb8b04042a8af213fb9b307968e873b429dd74a9ce8a403728f5a732df995beb7f3e2300d1b8a2bdbff7db666886e30e2340aa9aeb355c38276dda44d3af7ce02fd75092c2c0a165a65e3770e1940185acb7d20e738f3636e8fa4d7888f491a2ed2aaaa131f20c144c2acd6128d40da8b6141eb6c119c6ebd65afa610a5f1ffbe89ce0d2170d3d47c8eaf7d30f0c4c2caadd3ce7f21ac2e9f230ac2fc7ffc7cfee64e260e7640b1542fc3fddb4dd6084e73bbeb4ff391c5638c554161a84df96ba650497b7008e8a306f4e819603e1ac53551e2be1256d5f5ce36b3ebaf0cacc47583f1c5573cff1433bb9ec64790603a011594c064eec22adf6cc21bdbf17750177ac07739c34a364c10fbb1fc3409682ee460376f06196126265a93d499c89c2c2100e94aa537d5fe4dab7e9ab2e1d7e21575f4eaab77bad7f3884dfd94af7c0fe459664376e030a7f78cb2ff477461adf0aaea06a9b735e9a8ddf13e10c0813cc68c21494bcf4b652501f7b90ad34365ec128d09f085898c34788bf2eef25fff8ed061ebb0d27de35150379f08c4b24219c1ffa28d99167ef10622ba29d9715cc526976ac35e0ee1c43d8be548e598e6a6c0c47253dd04c097a7034f5fac8711868f3834baaf4764292f30269b265998b2aae5b706208483be860dd7706fcfb0c757862bbb135b4e1d9b6a004ecf23846520535b704803373fb7d98ecad53ca1580bb792f71bbc742f09cb44c866c788836477784267a41a079d3b6764618f75b4adb3da9fc0effa3cc7c0058552e923edb9dbb054b9bbe76aa1340bd07dd6b21716fa8a2359d381041ff74635278759616b4ed857c8a97745741121978aca7921c30696ca965cb5644cfb882ad51da43e955281c30565a5ffa8a81b528c9a3e6b74a3e89368cf91380e0943d606d714d77382b41cd5f182349b8537ae3d917f090a58c1defae2a2f3be9e98ac8bdc6344a3b0efabf78dacb9a320dc1ee8d9c575be7bfebe32956d92fbc0b38ce13a829779e42f2b70571dd5ca21390d036af728e5e905cd2aa02a0ee41403b8a7fcbcea81866c4028187e3ee6bb99417d357f70c629c159e6cb31fb629510cbf2a5fb33c2ee06b36a80a73b7a7751921ed931129d53b49511950a5509fdfd15c23ba9fb6b9838480cf2d238ceb01ab9a9426a2a172ddeef2ad87a7ee042bea88d623f51ce60fe2294734d175954a4ec422ba53fc2f7ef6577a94a6c865ba3a87b16fd140abe5a53ef136f566d15f3f9c49f5455e90213468b44050decd9ab599f5407d3cb46f3934c382fe8c384421056d9a2cc1d0d853762abe7bc706b9a116c20320a6ccaef6c0448df7df5eaec5850bcc29e4d3da33adaf96de44baaee5b4742bd66f33e79730c6cb913401447c46ca340819612fa152b43a3a5b4ebeff2de95d5ed39b719ab694f0a54ddcf0b435be8789b309003e798932147c7f1498091d9b09afc27ad43d1e96d57ed75133c225d3a58df1b225ce135c1a77ac92d9a968997915ef7dbae35b070921490c029ea13b7eb2082d08d0101573cd98cf57e32937ffc7ae70ab7a27518266583318428b2c352168df6b5bbd6d38f4152292dfc4cdf38c311032768105cc7bfa20cfb72d89edee2661236a101da1c7904e84a6828184fa6814cc16c8250813c971bf13720aeae4eedfca978dd5374c7ce752dc1cb5f8dfa0eb897fa44dca55d9d3ca26833d800c8f02a8ae688b95c12151302f9a4f1b01da890e23f0472c68dfc903952101da6f58e107a00385af9e1ce6e17543139cc802bba9c7d9049b82024642defdba2049fca0a563c8c17025045ebfb73faa8ffee18dfe801f7255ad5c8812755a0a443a246b26034d114b40e83c7bb8b310a38db63a9373f3679cc833899e40d7051100485da4c4deb919d304352feb698f19f1681dab71c0a7c34ca853d65e202962295c01c5557c5fc7f15086282027fee5c8006419df71fa36823aa38a1aa42d105f3ebd66b314f423857a9cd9b8f970204d0a83d65201c0f9bb3a1bbb64638a383a60b917cbb53afb09114a4356f42518e8a15f4a07955f463c95fc25d2f41c761428803c3978672f6b60342967f67c9d4e533d1a0f06109635f3fa02d2c16b84bedc3fc1d9212fae3fe4dee8f7a6a3ee4e1917c5216de087ec0a5da6819de5890399225293b741209bc0e0ed94606ae20e1b6a1f18c7d80c398b8e6b4ea4d4ae62a32a39dc80687eaef68676bf36a56bfd28ec11231328341d952711eb043fefafb1fd2ee8e58faba8c4ad7754da16282973b9d9e90e269b68616c6029dfdde97353c0130c497385bd8fa9be62b72a5a47361dc8fc41530511d669e0e8bcae40c285c80580847e3281671e08e038276d067f6a66cac074dff3f30bd50e16dbc8e39537b08beef2100878502da3a15602862f7385c2c0cd1db4b8ae6277e38e98eb45bfa9c2f3ec0a1f98e2e65ddf4cf950c124083e0b5401d405094fcbd57172bf5b7b7c002b0f9558b68ff434eb37a474d175070a6869331f2c66a255297c0bed942e50400fe77bdd75c363a1a3e8905a46a6e201fbdfc1f290d9bbc6bd6f3f87f2b69885e26d100f711c9f76452890f7c0f529ccccf5cb1e2a098da4bda2592017586b152983c00cd6cf79086a2806facd866ed17128bd887970251d5c2544d7bc4684aa0e20dd4f0f1b6959340f79fcad252c69bbf12ebcb0921e524118124f39fbdd9031ece9439ce0c14b3ec9b49bd9dba7463a4e4af64f3f1ebe91b1b3c48d3f77c31009842d38996fb7c667c6da56cdb60406233b0bfd1a9672fb02b81a1780954b0a3b57c84dbff535376a7989d50319d816c491ae0937c8a9ca236ccdf79c16c028c0ff676c86956117e07997daa69c5d350cd4d2626dce7529bbe32734693f475a8e718d20153612bcc8935679c7f1b5a93653940aaa92af7921bf2029dc3e8e74351dcef8591990ca14f1f259294fd1cdd45b2c477e353fcc7e04baa80c4719aed5e9084e5a3584fe3847688a36ced78947f1efe43c74bae501dd7301d5989a6997e2c7e25b882c256adfc416601a670ffb484204f58ea64e605f6a536a05676c6232d4387e79488c34ee0b645329ba0faf039244608947043a1afa251eeea8accb0ebaa402d5558be7466905ff501d5895165573482cd7966fbe1b49ea8e3afda7d41743dab196170b715fa529af5756df8d812984ca955e728dc25cf15a08907693ad9db10912a367c505b5f77179429a7a6afaf35b7b90c3d57313efe4ce7e25fbaff91c00dd5ba4551c9318761455c736e6fd075c149e70d50466ff65301a74dfa85d86b7531ae27ac09f45ff88de1469b2eb7fb0c7bb3b681872e15806234db4c3b3a55209daf74b55495ebc6af0ccd309cf900f54d5557d3c20d294e535663737b8186879092b1b2d7f42527373b3e5784b0ee2325272e454c546e767ed4f1f2fd040c506a76a5a6a7b1bae1ebedf50000000000000000000000000000000000000000000000000000111a283601fd210500bef6677e657360fac02f9248b0f8a00560b64421f56e6b32d0193c3d5ad16e322a8fa77af87ba58ab9f36927ae4a27156445d28486e5bec7d48095c5beb84286398103f8eb8c2029ac3686e1892cdfef34a17979121b2ab7c737b19a9239acb4ea31676dfcae102b4d5dbed49f0a68a68ef6a05337c720ab816ad814d8a3c9bc276f7624ae841b6d73f7350ca17873eaec2c08d5a197b39ce02b884fc2cbf84d5098e72e94b593dd44ca73deff22476e2f755268cd8aa8d92ff6a10a45a2536cf04626534bafa54c71afe985b0201cefa412322f4ae2cb14d7109ce4518232d40c851ac44f3da9d7d24d2783c995805cb7f4ca274e246c25a0eb50dce746d67508d175265b1b2811c9ffd7dd9883ecd39d648e3828796019792cd1522f820bfac6dedfabeb147450a95198448547ea19b35828ca5606da18b78ee0b334a30a05f3bc76bd053f58158f9a4d6dc9e5a66f8bf7b31bf3e4379f7404ab2017eb512b7668fcc609500e51a435af83d8d7b3da2408fb4acf66bc63296badcba8bdfd0329bf2a3e8d78736b1eb817151612dba30a7f0684073563e9e32ffaf5bb89bc47e110a26deeb504fe1e9450de3f20a22ee08eea57143f8414aadd7c56687b8542c72ef3897a651570743ff961f87b4deba8b3f55f380b8f5adba9e00b86d00d126c942883015eae0d173a0b7b6a907bf2e25ef3db0794e31b5dd42b4d28fec30470292483bc3a52463b2690d5b95accf7207696fcb67ee20ae7c5e4950cb905726ff07cfcedb90ffbb81c35cc8d27cf55e4e64062b0a1b15f7a13bdb4e04f976d69c7facd17eb7116843bb58f334798f296eb74dcfd0ae2494b2690843ef9dc6af209c3fd29135d0f82846dc83738845dd2489d84f373374c24f9a38008250957f23f7b0c7ee7459bb68e8d45fde66e68a2baae976fd80b804d18c8a1083d9a404ba7c27945512bd9fd97ab7070a502626c63796130a8290c3cc965ecef8df5229d8656b401e58cfa5c8132d63c316417d229f555bf0eecb92a7e4c24c9187722c5b6a55405485c590885be7734daafa615846d5a36e2aa0e758632c9eb106a6c19a82fb28a24e8a2f7d7adf52b63bfc9cafc650bd9616bb106b3ed858af5e017ad37e13a6f96c3d2b8d8cb5e0ed0fae01f9331b187086cedf743a9c3435840f499676b55411cc2c86162301065cb6219164098213f49a78d9a543737e6242d1bdb6ca93c7d1e32bf3a154ef36c4dcde9a9782b0b1824785ad18837e62d5a2ffa50881af9c79df89c77eecf5b74e01f1586653afae4e0b40396ca3be207522cc5b921e1c9ea729750f746403a37227fc4b5378d3d49e9d8b521f856215d0e436b5f0e221003b26577e8e2d2bbb6a9dcee4cfe3715d0e3d750f5f32dbed7d5091f6662b7bba5da156342aa1b8cd48d2a507352bc1d0df0f62fec020e0c86d6cf85753a7789113e5df998a2f779850325abe4724f2680c43f918a76ab0957b70e0a4f75a65475ddd195c5bcb2d9fbbf392a10c2d9a75ac4f69c6fd45c561d27248a3436d0cc536c97a8e24b7b58f8c1b676e74e0c52380d8fcebc5e4846737871fe0b79382b21bd2c3ed0e574f507798827ce70c20574361dc4859a3cbec99123887d3a7ef627b5a6c002d705d08b741fb23366540ef6e87ddd6d813fe0cdf5dee0b3d8c00d42d1d76f1d4b82abff0ab4bad899c2f33f322d909cc337ab71df408bb7c487432a6e7f1a153f11ae79a2f333312b68b6921094b21a4568b190f4f3bdfb62b4b40494650ebe6a04cb122ab0db7d7f36d16f57b542a507c953379ee0b0cf6c950948c9a0d22fbf54a0ec9e6090210cc0b57fcabce51a469168bc1325243f000000",
  "txid": "468bc7e70d80b8196039b0ad056bc19aff429ec42179670b69836d63c993bd8e",
  "hash": "3859b74842da27f1cf854c1bc32001fdc5026917448b33b032b3cdbb1f225514",
  "size": 5085,
  "vsize": 2278,
  "version": 1,
  "locktime": 63,
  "vin": [
    {
      "txid": "2fd9d1710ee294b7f854e4a58d69cf1ced1237b71ff72d7005c3d989979faa93",
      "vout": 0,
      "scriptSig": {
        "asm": "",
        "hex": ""
      },
      "txinwitness": [
        "2c2c0a165a65e3770e1940185acb7d20e738f3636e8fa4d7888f491a2ed2aaaa131f20c144c2acd6128d40da8b6141eb6c119c6ebd65afa610a5f1ffbe89ce0d2170d3d47c8eaf7d30f0c4c2caadd3ce7f21ac2e9f230ac2fc7ffc7cfee64e260e7640b1542fc3fddb4dd6084e73bbeb4ff391c5638c554161a84df96ba650497b7008e8a306f4e819603e1ac53551e2be1256d5f5ce36b3ebaf0cacc47583f1c5573cff1433bb9ec64790603a011594c064eec22adf6cc21bdbf17750177ac07739c34a364c10fbb1fc3409682ee460376f06196126265a93d499c89c2c2100e94aa537d5fe4dab7e9ab2e1d7e21575f4eaab77bad7f3884dfd94af7c0fe459664376e030a7f78cb2ff477461adf0aaea06a9b735e9a8ddf13e10c0813cc68c21494bcf4b652501f7b90ad34365ec128d09f085898c34788bf2eef25fff8ed061ebb0d27de35150379f08c4b24219c1ffa28d99167ef10622ba29d9715cc526976ac35e0ee1c43d8be548e598e6a6c0c47253dd04c097a7034f5fac8711868f3834baaf4764292f30269b265998b2aae5b706208483be860dd7706fcfb0c757862bbb135b4e1d9b6a004ecf23846520535b704803373fb7d98ecad53ca1580bb792f71bbc742f09cb44c866c788836477784267a41a079d3b6764618f75b4adb3da9fc0effa3cc7c0058552e923edb9dbb054b9bbe76aa1340bd07dd6b21716fa8a2359d381041ff74635278759616b4ed857c8a97745741121978aca7921c30696ca965cb5644cfb882ad51da43e955281c30565a5ffa8a81b528c9a3e6b74a3e89368cf91380e0943d606d714d77382b41cd5f182349b8537ae3d917f090a58c1defae2a2f3be9e98ac8bdc6344a3b0efabf78dacb9a320dc1ee8d9c575be7bfebe32956d92fbc0b38ce13a829779e42f2b70571dd5ca21390d036af728e5e905cd2aa02a0ee41403b8a7fcbcea81866c4028187e3ee6bb99417d357f70c629c159e6cb31fb629510cbf2a5fb33c2ee06b36a80a73b7a7751921ed931129d53b49511950a5509fdfd15c23ba9fb6b9838480cf2d238ceb01ab9a9426a2a172ddeef2ad87a7ee042bea88d623f51ce60fe2294734d175954a4ec422ba53fc2f7ef6577a94a6c865ba3a87b16fd140abe5a53ef136f566d15f3f9c49f5455e90213468b44050decd9ab599f5407d3cb46f3934c382fe8c384421056d9a2cc1d0d853762abe7bc706b9a116c20320a6ccaef6c0448df7df5eaec5850bcc29e4d3da33adaf96de44baaee5b4742bd66f33e79730c6cb913401447c46ca340819612fa152b43a3a5b4ebeff2de95d5ed39b719ab694f0a54ddcf0b435be8789b309003e798932147c7f1498091d9b09afc27ad43d1e96d57ed75133c225d3a58df1b225ce135c1a77ac92d9a968997915ef7dbae35b070921490c029ea13b7eb2082d08d0101573cd98cf57e32937ffc7ae70ab7a27518266583318428b2c352168df6b5bbd6d38f4152292dfc4cdf38c311032768105cc7bfa20cfb72d89edee2661236a101da1c7904e84a6828184fa6814cc16c8250813c971bf13720aeae4eedfca978dd5374c7ce752dc1cb5f8dfa0eb897fa44dca55d9d3ca26833d800c8f02a8ae688b95c12151302f9a4f1b01da890e23f0472c68dfc903952101da6f58e107a00385af9e1ce6e17543139cc802bba9c7d9049b82024642defdba2049fca0a563c8c17025045ebfb73faa8ffee18dfe801f7255ad5c8812755a0a443a246b26034d114b40e83c7bb8b310a38db63a9373f3679cc833899e40d7051100485da4c4deb919d304352feb698f19f1681dab71c0a7c34ca853d65e202962295c01c5557c5fc7f15086282027fee5c8006419df71fa36823aa38a1aa42d105f3ebd66b314f423857a9cd9b8f970204d0a83d65201c0f9bb3a1bbb64638a383a60b917cbb53afb09114a4356f42518e8a15f4a07955f463c95fc25d2f41c761428803c3978672f6b60342967f67c9d4e533d1a0f06109635f3fa02d2c16b84bedc3fc1d9212fae3fe4dee8f7a6a3ee4e1917c5216de087ec0a5da6819de5890399225293b741209bc0e0ed94606ae20e1b6a1f18c7d80c398b8e6b4ea4d4ae62a32a39dc80687eaef68676bf36a56bfd28ec11231328341d952711eb043fefafb1fd2ee8e58faba8c4ad7754da16282973b9d9e90e269b68616c6029dfdde97353c0130c497385bd8fa9be62b72a5a47361dc8fc41530511d669e0e8bcae40c285c80580847e3281671e08e038276d067f6a66cac074dff3f30bd50e16dbc8e39537b08beef2100878502da3a15602862f7385c2c0cd1db4b8ae6277e38e98eb45bfa9c2f3ec0a1f98e2e65ddf4cf950c124083e0b5401d405094fcbd57172bf5b7b7c002b0f9558b68ff434eb37a474d175070a6869331f2c66a255297c0bed942e50400fe77bdd75c363a1a3e8905a46a6e201fbdfc1f290d9bbc6bd6f3f87f2b69885e26d100f711c9f76452890f7c0f529ccccf5cb1e2a098da4bda2592017586b152983c00cd6cf79086a2806facd866ed17128bd887970251d5c2544d7bc4684aa0e20dd4f0f1b6959340f79fcad252c69bbf12ebcb0921e524118124f39fbdd9031ece9439ce0c14b3ec9b49bd9dba7463a4e4af64f3f1ebe91b1b3c48d3f77c31009842d38996fb7c667c6da56cdb60406233b0bfd1a9672fb02b81a1780954b0a3b57c84dbff535376a7989d50319d816c491ae0937c8a9ca236ccdf79c16c028c0ff676c86956117e07997daa69c5d350cd4d2626dce7529bbe32734693f475a8e718d20153612bcc8935679c7f1b5a93653940aaa92af7921bf2029dc3e8e74351dcef8591990ca14f1f259294fd1cdd45b2c477e353fcc7e04baa80c4719aed5e9084e5a3584fe3847688a36ced78947f1efe43c74bae501dd7301d5989a6997e2c7e25b882c256adfc416601a670ffb484204f58ea64e605f6a536a05676c6232d4387e79488c34ee0b645329ba0faf039244608947043a1afa251eeea8accb0ebaa402d5558be7466905ff501d5895165573482cd7966fbe1b49ea8e3afda7d41743dab196170b715fa529af5756df8d812984ca955e728dc25cf15a08907693ad9db10912a367c505b5f77179429a7a6afaf35b7b90c3d57313efe4ce7e25fbaff91c00dd5ba4551c9318761455c736e6fd075c149e70d50466ff65301a74dfa85d86b7531ae27ac09f45ff88de1469b2eb7fb0c7bb3b681872e15806234db4c3b3a55209daf74b55495ebc6af0ccd309cf900f54d5557d3c20d294e535663737b8186879092b1b2d7f42527373b3e5784b0ee2325272e454c546e767ed4f1f2fd040c506a76a5a6a7b1bae1ebedf50000000000000000000000000000000000000000000000000000111a283601",
        "00bef6677e657360fac02f9248b0f8a00560b64421f56e6b32d0193c3d5ad16e322a8fa77af87ba58ab9f36927ae4a27156445d28486e5bec7d48095c5beb84286398103f8eb8c2029ac3686e1892cdfef34a17979121b2ab7c737b19a9239acb4ea31676dfcae102b4d5dbed49f0a68a68ef6a05337c720ab816ad814d8a3c9bc276f7624ae841b6d73f7350ca17873eaec2c08d5a197b39ce02b884fc2cbf84d5098e72e94b593dd44ca73deff22476e2f755268cd8aa8d92ff6a10a45a2536cf04626534bafa54c71afe985b0201cefa412322f4ae2cb14d7109ce4518232d40c851ac44f3da9d7d24d2783c995805cb7f4ca274e246c25a0eb50dce746d67508d175265b1b2811c9ffd7dd9883ecd39d648e3828796019792cd1522f820bfac6dedfabeb147450a95198448547ea19b35828ca5606da18b78ee0b334a30a05f3bc76bd053f58158f9a4d6dc9e5a66f8bf7b31bf3e4379f7404ab2017eb512b7668fcc609500e51a435af83d8d7b3da2408fb4acf66bc63296badcba8bdfd0329bf2a3e8d78736b1eb817151612dba30a7f0684073563e9e32ffaf5bb89bc47e110a26deeb504fe1e9450de3f20a22ee08eea57143f8414aadd7c56687b8542c72ef3897a651570743ff961f87b4deba8b3f55f380b8f5adba9e00b86d00d126c942883015eae0d173a0b7b6a907bf2e25ef3db0794e31b5dd42b4d28fec30470292483bc3a52463b2690d5b95accf7207696fcb67ee20ae7c5e4950cb905726ff07cfcedb90ffbb81c35cc8d27cf55e4e64062b0a1b15f7a13bdb4e04f976d69c7facd17eb7116843bb58f334798f296eb74dcfd0ae2494b2690843ef9dc6af209c3fd29135d0f82846dc83738845dd2489d84f373374c24f9a38008250957f23f7b0c7ee7459bb68e8d45fde66e68a2baae976fd80b804d18c8a1083d9a404ba7c27945512bd9fd97ab7070a502626c63796130a8290c3cc965ecef8df5229d8656b401e58cfa5c8132d63c316417d229f555bf0eecb92a7e4c24c9187722c5b6a55405485c590885be7734daafa615846d5a36e2aa0e758632c9eb106a6c19a82fb28a24e8a2f7d7adf52b63bfc9cafc650bd9616bb106b3ed858af5e017ad37e13a6f96c3d2b8d8cb5e0ed0fae01f9331b187086cedf743a9c3435840f499676b55411cc2c86162301065cb6219164098213f49a78d9a543737e6242d1bdb6ca93c7d1e32bf3a154ef36c4dcde9a9782b0b1824785ad18837e62d5a2ffa50881af9c79df89c77eecf5b74e01f1586653afae4e0b40396ca3be207522cc5b921e1c9ea729750f746403a37227fc4b5378d3d49e9d8b521f856215d0e436b5f0e221003b26577e8e2d2bbb6a9dcee4cfe3715d0e3d750f5f32dbed7d5091f6662b7bba5da156342aa1b8cd48d2a507352bc1d0df0f62fec020e0c86d6cf85753a7789113e5df998a2f779850325abe4724f2680c43f918a76ab0957b70e0a4f75a65475ddd195c5bcb2d9fbbf392a10c2d9a75ac4f69c6fd45c561d27248a3436d0cc536c97a8e24b7b58f8c1b676e74e0c52380d8fcebc5e4846737871fe0b79382b21bd2c3ed0e574f507798827ce70c20574361dc4859a3cbec99123887d3a7ef627b5a6c002d705d08b741fb23366540ef6e87ddd6d813fe0cdf5dee0b3d8c00d42d1d76f1d4b82abff0ab4bad899c2f33f322d909cc337ab71df408bb7c487432a6e7f1a153f11ae79a2f333312b68b6921094b21a4568b190f4f3bdfb62b4b40494650ebe6a04cb122ab0db7d7f36d16f57b542a507c953379ee0b0cf6c950948c9a0d22fbf54a0ec9e6090210cc0b57fcabce51a469168bc132524"
      ],
      "sequence": 4294967294
    }
  ],
  "vout": [
    {
      "value": 499979.662,
      "n": 0,
      "scriptPubKey": {
        "asm": "1 b1a334731ab14ea2d16a9bec2a3c39ab78edd8199ecda75cf8fbc3ab983dbeb4",
        "hex": "5120b1a334731ab14ea2d16a9bec2a3c39ab78edd8199ecda75cf8fbc3ab983dbeb4",
        "reqSigs": 1,
        "type": "witness_v1_scripthash",
        "addresses": [
          "3QJmnh"
        ]
      }
    },
    {
      "value": 1.0,
      "n": 1,
      "scriptPubKey": {
        "asm": "OP_RETURN 2e740171dbed9ce52b8a38069ca25c4e6e697ad0a515a457d4622fbb092df8c2 c21d57ca1c682483f20fdaf3ad79153e1ed8d02022c8cf415fd9d367f6eee75be23d77ea3c4804a3d22ffad38d59351e3ef8f00002e8ef617ff9f347d6cec77b825d178a5c2864c3b24f9ab3ed39557e5e98906062888f011f999327b6aea71ba27d37aa7c0844e3926fba93cd19755e7eb8b04042a8af213fb9b307968e873b429dd74a9ce8a403728f5a732df995be9e5850a0a2484fc1df5953e7766e67db62bdf76abcc8842352af7a530dd9b59ebe78708082686fe1ff7973c7564e47fb02dd970adca8e44332cf1a336db9d5fede1810e0e2080f819f1913a7362e279b22fdb72afc88c46312ef3a134d99f5defe3830c0c2282fa1bf393387160e07bbc21d57ca1c682483f20fdaf3ad79153e1ed8d02022c8cf415fd9d367f6eee75be23d77ea3c4804a3d22ffad38d59351e3ef8f00002e8ef617ff9f347d6cec77b825d178a5c2864c3b24f9ab3ed39557e5e98906062888f011f999327b6aea71ba27d37aa7c0844e3926fba93cd19755e7eb8b04042a8af213fb9b307968e873b429dd74a9ce8a403728f5a732df995be9e5850a0a2484fc1df5953e7766e67db62bdf76abcc8842352af7a530dd9b59ebe78708082686fe1ff7973c7564e47fb02dd970adca8e44332cf1a336db9d5fede1810e0e2080f819f1913a7362e279b22fdb72afc88c46312ef3a134d99f5defe3830c0c2282fa1bf393387160e07bbc21d57ca1c682483f20fdaf3ad79153e1ed8d02022c8cf415fd9d367f6eee75be23d77ea3c4804a3d22ffad38d59351e3ef8f00002e8ef617ff9f347d6cec77b825d178a5c2864c3b24f9ab3ed39557e5e98906062888f011f999327b6aea71ba27d37aa7c0844e3926fba93cd19755e7eb8b04042a8af213fb9b307968e873b429dd74a9ce8a403728f5a732df995be9e5850a0a2484fc1df5953e7766e67db62bdf76abcc8842352af7a530dd9b59ebe78708082686fe1ff7973c7564e47fb02dd970adca8e44332cf1a336db9d5fede1810e0e2080f819f1913a7362e279b22fdb72afc88c46312ef3a134d99f5defe3830c0c2282fa1bf393387160e07bbc21d57ca1c682483f20fdaf3ad79153e1ed8d02022c8cf415fd9d367f6eee75be23d77ea3c4804a3d22ffad38d59351e3ef8f00002e8ef617ff9f347d6cec77b825d178a5c2864c3b24f9ab3ed39557e5e98906062888f011f999327b6aea71ba27d37aa7c0844e3926fba93cd19755e7eb8b04042a8af213fb9b307968e873b429dd74a9ce8a403728f5a732df995be9e5850a0a2484fc1df5953e7766e67db62bdf76abcc8842352af7a530dd9b59ebe78708082686fe1ff7973c7564e47fb02dd970adca8e44332cf1a336db9d5fede1810e0e2080f819f1913a7362e279b22fdb72afc88c46312ef3a134d99f5defe3830c0c2282fa1bf393387160e07bbc21d57ca1c682483f20fdaf3ad79153e1ed8d02022c8cf415fd9d367f6eee75be23d77ea3c4804a3d22ffad38d59351e3ef8f00002e8ef617ff9f347d6cec77b825d178a5c2864c3b24f9ab3ed39557e5e98906062888f011f999327b6aea71ba27d37aa7c0844e3926fba93cd19755e7eb8b04042a8af213fb9b307968e873b429dd74a9ce8a403728f5a732df995beb7f3e2300d1b8a2bdbff7db666886e30e2340aa9aeb355c38276dda44d3af7ce",
        "hex": "6a202e740171dbed9ce52b8a38069ca25c4e6e697ad0a515a457d4622fbb092df8c24db004c21d57ca1c682483f20fdaf3ad79153e1ed8d02022c8cf415fd9d367f6eee75be23d77ea3c4804a3d22ffad38d59351e3ef8f00002e8ef617ff9f347d6cec77b825d178a5c2864c3b24f9ab3ed39557e5e98906062888f011f999327b6aea71ba27d37aa7c0844e3926fba93cd19755e7eb8b04042a8af213fb9b307968e873b429dd74a9ce8a403728f5a732df995be9e5850a0a2484fc1df5953e7766e67db62bdf76abcc8842352af7a530dd9b59ebe78708082686fe1ff7973c7564e47fb02dd970adca8e44332cf1a336db9d5fede1810e0e2080f819f1913a7362e279b22fdb72afc88c46312ef3a134d99f5defe3830c0c2282fa1bf393387160e07bbc21d57ca1c682483f20fdaf3ad79153e1ed8d02022c8cf415fd9d367f6eee75be23d77ea3c4804a3d22ffad38d59351e3ef8f00002e8ef617ff9f347d6cec77b825d178a5c2864c3b24f9ab3ed39557e5e98906062888f011f999327b6aea71ba27d37aa7c0844e3926fba93cd19755e7eb8b04042a8af213fb9b307968e873b429dd74a9ce8a403728f5a732df995be9e5850a0a2484fc1df5953e7766e67db62bdf76abcc8842352af7a530dd9b59ebe78708082686fe1ff7973c7564e47fb02dd970adca8e44332cf1a336db9d5fede1810e0e2080f819f1913a7362e279b22fdb72afc88c46312ef3a134d99f5defe3830c0c2282fa1bf393387160e07bbc21d57ca1c682483f20fdaf3ad79153e1ed8d02022c8cf415fd9d367f6eee75be23d77ea3c4804a3d22ffad38d59351e3ef8f00002e8ef617ff9f347d6cec77b825d178a5c2864c3b24f9ab3ed39557e5e98906062888f011f999327b6aea71ba27d37aa7c0844e3926fba93cd19755e7eb8b04042a8af213fb9b307968e873b429dd74a9ce8a403728f5a732df995be9e5850a0a2484fc1df5953e7766e67db62bdf76abcc8842352af7a530dd9b59ebe78708082686fe1ff7973c7564e47fb02dd970adca8e44332cf1a336db9d5fede1810e0e2080f819f1913a7362e279b22fdb72afc88c46312ef3a134d99f5defe3830c0c2282fa1bf393387160e07bbc21d57ca1c682483f20fdaf3ad79153e1ed8d02022c8cf415fd9d367f6eee75be23d77ea3c4804a3d22ffad38d59351e3ef8f00002e8ef617ff9f347d6cec77b825d178a5c2864c3b24f9ab3ed39557e5e98906062888f011f999327b6aea71ba27d37aa7c0844e3926fba93cd19755e7eb8b04042a8af213fb9b307968e873b429dd74a9ce8a403728f5a732df995be9e5850a0a2484fc1df5953e7766e67db62bdf76abcc8842352af7a530dd9b59ebe78708082686fe1ff7973c7564e47fb02dd970adca8e44332cf1a336db9d5fede1810e0e2080f819f1913a7362e279b22fdb72afc88c46312ef3a134d99f5defe3830c0c2282fa1bf393387160e07bbc21d57ca1c682483f20fdaf3ad79153e1ed8d02022c8cf415fd9d367f6eee75be23d77ea3c4804a3d22ffad38d59351e3ef8f00002e8ef617ff9f347d6cec77b825d178a5c2864c3b24f9ab3ed39557e5e98906062888f011f999327b6aea71ba27d37aa7c0844e3926fba93cd19755e7eb8b04042a8af213fb9b307968e873b429dd74a9ce8a403728f5a732df995beb7f3e2300d1b8a2bdbff7db666886e30e2340aa9aeb355c38276dda44d3af7ce",
        "type": "nulldata"
      }
    }
  ],
  "blockhash": "0125d69e6984563ac74cb1b0b8601a67b424e71230e7918fa710584dbb11162a",
  "confirmations": 1,
  "time": 1764180090,
  "blocktime": 1764180090
}