{
  "hex": "0100000000010102cbdf160fdd20e62b352bf2873b161d228835cbd144a3afd64f3f6cd7422df90000000000feffffff02a077e402792d0000225120ff305605b2e7e09d037c5936196a20970aa8097de8219bdf2a141972056123b700e1f50500000000fdd5046a20139952736a42e9633f11c160011de0ace2b4ee484f7c948c3f42af8e02af2a434db00426535d10376500031c616f2cfc596fdcdb1306e8982e0b6a1fb59a5e654591f906737d30174520233c414f0cdc794ffcfb3326c8b80e2b4a3f95ba7e4565b1d966131d50772540435c212f6cbc192f9c9b5346a8d86e4b2a5ff5da1e2505d1b946333d70570560637c010f4c9c390fbcbb736688f84e6b0a7fd5fa3e0525f199a6d3dd90b7e580839ce1efac7cd9ef5c5b93866818ae8bea9f351adee5c5117986f3fdb097c5a0a3bcc1cf8c5cf9cf7c7bb3a648388eabcabf153afec5e53159e6939dd0f7a5c0c3dca1afec3c99af1c1bd3c62858eecbaadf755a9ea5855139c6b3bdf0d785e0e3fc818fcc1cb98f3c3bf3e60878ceeb8aff557abe85a5711926535d10376500031c616f2cfc596fdcdb1306e8982e0b6a1fb59a5e654591f906737d30174520233c414f0cdc794ffcfb3326c8b80e2b4a3f95ba7e4565b1d966131d50772540435c212f6cbc192f9c9b5346a8d86e4b2a5ff5da1e2505d1b946333d70570560637c010f4c9c390fbcbb736688f84e6b0a7fd5fa3e0525f199a6d3dd90b7e580839ce1efac7cd9ef5c5b93866818ae8bea9f351adee5c5117986f3fdb097c5a0a3bcc1cf8c5cf9cf7c7bb3a648388eabcabf153afec5e53159e6939dd0f7a5c0c3dca1afec3c99af1c1bd3c62858eecbaadf755a9ea5855139c6b3bdf0d785e0e3fc818fcc1cb98f3c3bf3e60878ceeb8aff557abe85a5711926535d10376500031c616f2cfc596fdcdb1306e8982e0b6a1fb59a5e654591f906737d30174520233c414f0cdc794ffcfb3326c8b80e2b4a3f95ba7e4565b1d966131d50772540435c212f6cbc192f9c9b5346a8d86e4b2a5ff5da1e2505d1b946333d70570560637c010f4c9c390fbcbb736688f84e6b0a7fd5fa3e0525f199a6d3dd90b7e580839ce1efac7cd9ef5c5b93866818ae8bea9f351adee5c5117986f3fdb097c5a0a3bcc1cf8c5cf9cf7c7bb3a648388eabcabf153afec5e53159e6939dd0f7a5c0c3dca1afec3c99af1c1bd3c62858eecbaadf755a9ea5855139c6b3bdf0d785e0e3fc818fcc1cb98f3c3bf3e60878ceeb8aff557abe85a5711926535d10376500031c616f2cfc596fdcdb1306e8982e0b6a1fb59a5e654591f906737d30174520233c414f0cdc794ffcfb3326c8b80e2b4a3f95ba7e4565b1d966131d50772540435c212f6cbc192f9c9b5346a8d86e4b2a5ff5da1e2505d1b946333d70570560637c010f4c9c390fbcbb736688f84e6b0a7fd5fa3e0525f199a6d3dd90b7e580839ce1efac7cd9ef5c5b93866818ae8bea9f351adee5c5117986f3fdb097c5a0a3bcc1cf8c5cf9cf7c7bb3a648388eabcabf153afec5e53159e6939dd0f7a5c0c3dca1afec3c99af1c1bd3c62858eecbaadf755a9ea5855139c6b3bdf0d785e0e3fc818fcc1cb98f3c3bf3e60878ceeb8aff557abe85a5711926535d10376500031c616f2cfc596fdcdb1306e8982e0b6a1fb59a5e654591f906737d30174520233c414f0cdc794ffcfb3326c8b80e2b4a3f95ba7e4565b1d966131d50772540435c212f6cbc192f9c9b5346a8d86e4b2a5ff5da1e2505d1b946333d70570560637c010f4c9c390fbcbb736688f84e6b0a7fd5fa3e0525f199a6d3dd90b7e580839ce1efac7cd9ef5c04246903a992f1c22b775f930ca6e2be2ff3dff1c473f475d0d756f9d78d429302fd7509e13531f745824ab6d07e89282ff32b03eed575a0e74c538afd6a80011e033f7ad1febfc72492a5bff66e4a1a135e8391307fe6c292fd901af6547be8ca897c98beb3b8e6ffdc8103747db3022d69e6bf230e48cc68e00280cc13c587b52acb50e04f6b9fea8556996072aaa5ce34246f29fe412ad757bddca03a60b52ac7225a9561ffd16e323a5a648496b1dcf8514d7a82eb62d64d053bdca443a7d779f607c7d95ee3d9d3a3c519c26534427c3e230b71d88e25f0c6e290962d7be2450d6c790c09cb82ac19ea531816c79d697fe505a74fbd2d15ecbe6712cb73a9ddccdf74d3a44896b7a69913deacddd12bef9f8c7c7f8631d7955cc84ade64891ee6e9217b741e98607ebec34c4ebc8d65a04bcf79ebfb8f1620c85fbce343c5725e8a20eb73d2191a1ea3da3e7577f53128033a5ed80e2e518804c421d59e9420879f14c7bb577a437cd504872ca241e1d9bc88570d0fa5a5b6e2b892a8fa6a0eb4d147c5dbb461e2b826e7909839dac57e89aba574cc30b3d2bca491abf2c21255b8984ddd82af86e0390bc40ef725d0556dbaec636f59b3a09ab91f48f729b2d0bccf10c943c49d33f470cf0c27b827b1bbecf8edb5d013db538e3b61469fb604d1175a240524aa0777a5e115560941276f7239fa17c550851f6b2355c59c0df3b7b313098bcfe82438bb3cb6ea35d66f0fd68ee7a5f805bee05f37f85cb9bd84513bf06c17822086fc19044fb5faa85b26c5ad18e849f4e86574444c83eb3c0561614b53660f0df40517582619708e571de6cfbbe16b54c986b90a47839988e57fb9abb48ed97e165a591b9de93a650e441feb34ff1b9d8349ecbe909e17da61a9b892e9b5e1b0f10e2358aceade82c542f52607f3ac6d91525a5aae94746bc3a35b60693880636533c9d70052ba28e3aaa52306cc7cf4df57f4b199c4478f441cc4838a641f24598daddb2de77e395e5495ca2b50efae762816349331683ac7166e47c98540f74d58e6f4a67c629df71da95e3e63976e87307e0a590fdcfb772e35dca35df39e20fa28b324db37021badc74e9d89f3d6c2357d616a8ecbe63a7e88e3b1a080b93264d473bde8cb069aac667320ef9ab4f16e2e3dcc2aacf2b231597a69e7dec7310ccd3ee7de16ebf97c26761954adb9c86ffea180209b7228aa99d3688242a6ed7de28f9716a6b88e10bb02cbde328ec6b9730de78f7185565bed52a4044f2a29298e35f46a1f039c1ea4bce61d9968330ce80560613f84f6df8c5190be89419af2bc6093c72daa928af0bf2b61446fff0d79ae05dc790c86d5c27e2516560f5ffba374b19b2bf014fd18a0644fcab2e87c9381cdfb397cbd7a45b673cff947f7a132076c54584f8a71eb1af5348b205e2ad7a904ee6499c4e354a45191e4c14f5e0930972570eeb80848139db759b04682acfa4a92f8d4589475d4fdaca60262100fee50691a60f62e9a8df9d604e93c5076c1e5ca4a05548316162e4cd7d14c727598fe01ee1e86c4ed8c1e7bb73ca700deb898e7f6a2a48796d7b6014470a572dbe30978e0693aff4da4bb75fce5ad830f8e3f2a19c8ca1b1500f853c1c1c1deb3f0370352b46f640bc8a14d6b3687bba6aea223c5811719cd001146bb85401e55d637a4c59ebb530ff36aa81832bfd43fbb490bd1a27d9ca190f7be2edc2589a19322a97df9acab6dae42a2c11d67b3c32b24642f124763f0f1ddcc0cc481bb26ed0619856754dd768248b68339358aeec2988957e9d0c22eb459dbd78c16fc2f383141f70a9aaa3e87688e47ee849e7c253731587c6bd7b4b0579aaa6961f5ea06a206db359382e2c8a6cdbac190bdd04f6ff79043280c1b92e976c187455b1deb24984bd339cf150df221a717e41d8753370f1c2688f47f0bebb5378f1bba7c053ab6514b096f294b2a0bff0d0eee89506e3eec91a16c718882229fb82e26dd0d3d4f5d477707b9299cbdebba9ebef424e42aad3ad3bd40616e3fc0324544c2e61a521873d477c0996a15701a315b99c80799406debe3d6ea2a7b0c67da7333fe2595447fc1a1bfe9172ecf7157954fd3186a14be3b2af0642ec7ad0e8ef7589995167823dfc40f0ec30b7e214c6e3878796f8d33240965b1a52cc5f8808cae156e6b38b8a1738125553955f86f99e202463145a8db1ed4e4f2a73b7b3e2f425e32f88c006eecc20a9f81ff3b8caad7aa0ba8f8d9b429f9f2482ad01a027120ea3726668ba71dbf776a3da515b5136c4f8de3852b61af1a7a367941fd0c11ab72e3a61a29fb0ebb9f5ea694ff7ad148ed72fa2e2470cd9f0c38ee45446d53ef2a7dabf819fd6372189ead019ad05868157f25a3098a7f5e6cd74ffa6d557984c8d91e7f864e3775e042d9c32695dec5d6cbcdbfe4581661f62f35f56d2d2125ecdd68fbcf1dfab05ea66096dc7f3d1214319cd424e7c5b4efc1f2a676ff8727a232300f099a49d1e7634fe8d09ab3762a031e41ed32ddb58afffa6c221bd74c40544a05008af3fb373804618ea412163722ae5370dc35f813caa98183bcef88c152669023a0e6595b3a6a243e6a623adfdb709b664175351d953e8e9024aba1426c89db69832c1963eb6f7e9e095effef674d3cd90dd81296539353127b583abfc63b22aa6f63cae7230b3d81839014ad8f42ab685dfafe65208672d6e56a9cbdaab4bfcf695e7d122b4915ea28052ddbae3ec18fe09edbcecc12d50beb9756564c657977914c954888939769451f5808f8b8c8648fd33986c49f3187a67aaf346583e3138f0e5f25b34859146cb17c512618d80b31aa459cd8700d0f6ed7b2ad7a108ba5a1654079c0da6ba1d66fba4b1330b5120cf4db60b63960c29ffb127f6ce34028896d131e492d34f1d13b0d70cfb0058750afd04a139488688c3ad02f10d224b27dabcd478d66e36661c293f50f58621bb600ceef6d70f014d3ca2816abc071f3bcb5018ce0908cb85db25c00641d18aa262361bac68fed52a06babc762a5db999c73c9d24cb49b191ffe2256cd88792f33b6e53080df16d8977bc61ea8817152952c3a1b788717764c53808f55c4dfa7e8a9b56cca88f190562c8108e01a358959cc0623133baeefb196018befa09436ccfd78639928962fef3b32bacec0a080659529c827687817db10812da795a755d74a907fd513ecbf686d815423b6e8b2c723ccfe743ad453556827fc4e5bc957e10c4cd443b98dd0e79add049e445f3d29f1a19a090c0a187692f7abf2aaf671fc8100f16fe8fb4e77881a8baca2cf9dd4fdfc3ebd7da35719ffb67888ec786b3a2d171a546274848c9bb9bcbef3f8fe040e10232d426e7a7e888f95acb5b9bec3c4ccd1d4d6d7e1ed12393a4d676e8ca0b6cedbe7030d1015262e41438d929ba9aec4dd00000000000000000000000000000e27334201fd210500babe360f8af10060d763957789abe1714d02ec32a81884cf020d4f6231e739bb409fe9b1f4e88c0bdc071081490467f9079affd3f993016094af86b205dc0f229e41c2d1a20ee30b6d46a36ed1864ba0adae6c3f9d33369f43e8d87cb6b3f210198e4ac22ad42dce24df71e8b55fcd4b7a59b77f01c7b04206ac847e8c91ac3d2fb2f583e052eac1fccdb613bfc60384f30485b56156a1ccfde6c009986aa995c5ea96449782340247885a98a0f2557ecd3a4ce642c9aee31e432068d972dc7d42f72d24e524018ca689158c8a3fd42ce78ebe17f0e3df55473706192ca3785bd194b63e24d8cac94142ffb0206e5d4cf91462526d315aa5b8c73154b8c155c69d4cd885de65bef5106f366818048d043f59f9f1db7202ab02ab6f676f33c1fb3948c8c6bd2e3ca1fe6ae577e7dba77000c5976f48125af7c1378c7f47c35d0bda1e6123995fba48c1eec3c9d3482083c52e3d20666d6642120998e36b40e3305ead94beb1ef093480bebdadb4b39f45f83059492ed08d01eec64f4bf8408de102670c9495d9c243548bce68293d99e36d8396d2e7305a3e91f88e70713fa95e92a3061053153bc60d08e1fffd19638ca09f837f5d5744761268abd74367369e26e5d8d6e71ec8e84c6fc3cc9ff34befc135aca45f1942cdbd605cee6666480d87ce4fe2c3ac83e143c0ef44489fbe78fc38e83bf45af1060c1e9835b434fd1307c9860fb68e893a5505700b342a361b377511e343ec90045581dae22626eb5748ef23d09293956ebebe83134a3609ad64db8e13ee189b4defce3d7aeb9904699db9f83eccdc3331c431870f7a894b7ab961d9945fa540f16d5d2f836b932487816455711af247d4052cb18fd4ec4848d075a29b2ccf82fd248d1af59b961c2886f8152f00abd4a9431884e14e099cc36a801000fff4592135b90236f34d636346828eb57701a04f3411ee2628864b8c6afefc4adaa9081079966a8839852f9724002f17c186be7deec8dd3175a34e30950ac384fd4dc374b30d05135599b20892e6c8ceb94eb5d5b8af9131f11ac9895c06a7e7161de360bacd39c52b15986dab88fba3793fea7a721ac9d81e5d9964c5b591bb085cd0cab665f12cccdb8c33dd71cdddc578697423b06821043159d1d14038f316f75b5543e44bfd933b097c76d28bdbd713d3bd38585a299c87e3d5f8c8994ab9170ca494c0a837bd2937fa33f666ff6ccaec229079dd960d5a7397aa53114384beda55b3db1ac216a7cf5dbb1ff58316c8be38b5640193ce90d7c2b4e5f7a1c96ec1e2f15293710c4692b2c26fd9ce4ba557394ca55aa1a62dcb0dd012f1b60098a455aaee19ad79bec3e3e6d4bab3f2d569550c1b1f62a719fb29ec4450c4ac1f3922db02ad74d793e73ce51a3d80a02a2269edecdcea8e89831e527ec6de8fa1f9bbccfe52316149965ec88905a65c7a0d3ecf98d5ba1032bfe0a0ecb2537f94509e01cd96eae9145b5d5dc3a824fb75fa531f9510972059e96c0c277c51c4692007a58d021f0a4e4c4d1c74125193163cc7bdb02186d8084faf374fbc1ee691a850957f36939e2c38d32a4ceab318cfc0f6a9494fa85bbd91589709d3889132d62f5c23d31b80dd5046b05df04254869631a537fc1ecd3501e24d753926648b565a32b2734b33aa1451c4f43f2afe736128b075bcb33dfcd30744ca789dc5369f7657d83618bc8787894a52e534954d730450d6b37cb61332cca736f82fa234d2ddcbfba03992ecaeac97bb39bc5959d7572197eb8d949c8676e65b95e3069b67469a6a9fa24ae0b5fb6fa775f76d783a3a71b36e51a8844906329fd44800b215658498d189b936809178000000",
  "txid": "42419f7b17fed25aa482b12f31d5d818c1bae0dda35ebc8957d56013172d6dc7",
  "hash": "7234013535d9ea1c037cadff8b571f47c8ffbac6eb4216e6cdb7d809d212829c",
  "size": 5085,
  "vsize": 2278,
  "version": 1,
  "locktime": 120,
  "vin": [
    {
      "txid": "f92d42d76c3f4fd6afa344d1cb3588221d163b87f22b352be620dd0f16dfcb02",
      "vout": 0,
      "scriptSig": {
        "asm": "",
        "hex": ""
      },
      "txinwitness": [
        "e13531f745824ab6d07e89282ff32b03eed575a0e74c538afd6a80011e033f7ad1febfc72492a5bff66e4a1a135e8391307fe6c292fd901af6547be8ca897c98beb3b8e6ffdc8103747db3022d69e6bf230e48cc68e00280cc13c587b52acb50e04f6b9fea8556996072aaa5ce34246f29fe412ad757bddca03a60b52ac7225a9561ffd16e323a5a648496b1dcf8514d7a82eb62d64d053bdca443a7d779f607c7d95ee3d9d3a3c519c26534427c3e230b71d88e25f0c6e290962d7be2450d6c790c09cb82ac19ea531816c79d697fe505a74fbd2d15ecbe6712cb73a9ddccdf74d3a44896b7a69913deacddd12bef9f8c7c7f8631d7955cc84ade64891ee6e9217b741e98607ebec34c4ebc8d65a04bcf79ebfb8f1620c85fbce343c5725e8a20eb73d2191a1ea3da3e7577f53128033a5ed80e2e518804c421d59e9420879f14c7bb577a437cd504872ca241e1d9bc88570d0fa5a5b6e2b892a8fa6a0eb4d147c5dbb461e2b826e7909839dac57e89aba574cc30b3d2bca491abf2c21255b8984ddd82af86e0390bc40ef725d0556dbaec636f59b3a09ab91f48f729b2d0bccf10c943c49d33f470cf0c27b827b1bbecf8edb5d013db538e3b61469fb604d1175a240524aa0777a5e115560941276f7239fa17c550851f6b2355c59c0df3b7b313098bcfe82438bb3cb6ea35d66f0fd68ee7a5f805bee05f37f85cb9bd84513bf06c17822086fc19044fb5faa85b26c5ad18e849f4e86574444c83eb3c0561614b53660f0df40517582619708e571de6cfbbe16b54c986b90a47839988e57fb9abb48ed97e165a591b9de93a650e441feb34ff1b9d8349ecbe909e17da61a9b892e9b5e1b0f10e2358aceade82c542f52607f3ac6d91525a5aae94746bc3a35b60693880636533c9d70052ba28e3aaa52306cc7cf4df57f4b199c4478f441cc4838a641f24598daddb2de77e395e5495ca2b50efae762816349331683ac7166e47c98540f74d58e6f4a67c629df71da95e3e63976e87307e0a590fdcfb772e35dca35df39e20fa28b324db37021badc74e9d89f3d6c2357d616a8ecbe63a7e88e3b1a080b93264d473bde8cb069aac667320ef9ab4f16e2e3dcc2aacf2b231597a69e7dec7310ccd3ee7de16ebf97c26761954adb9c86ffea180209b7228aa99d3688242a6ed7de28f9716a6b88e10bb02cbde328ec6b9730de78f7185565bed52a4044f2a29298e35f46a1f039c1ea4bce61d9968330ce80560613f84f6df8c5190be89419af2bc6093c72daa928af0bf2b61446fff0d79ae05dc790c86d5c27e2516560f5ffba374b19b2bf014fd18a0644fcab2e87c9381cdfb397cbd7a45b673cff947f7a132076c54584f8a71eb1af5348b205e2ad7a904ee6499c4e354a45191e4c14f5e0930972570eeb80848139db759b04682acfa4a92f8d4589475d4fdaca60262100fee50691a60f62e9a8df9d604e93c5076c1e5ca4a05548316162e4cd7d14c727598fe01ee1e86c4ed8c1e7bb73ca700deb898e7f6a2a48796d7b6014470a572dbe30978e0693aff4da4bb75fce5ad830f8e3f2a19c8ca1b1500f853c1c1c1deb3f0370352b46f640bc8a14d6b3687bba6aea223c5811719cd001146bb85401e55d637a4c59ebb530ff36aa81832bfd43fbb490bd1a27d9ca190f7be2edc2589a19322a97df9acab6dae42a2c11d67b3c32b24642f124763f0f1ddcc0cc481bb26ed0619856754dd768248b68339358aeec2988957e9d0c22eb459dbd78c16fc2f383141f70a9aaa3e87688e47ee849e7c253731587c6bd7b4b0579aaa6961f5ea06a206db359382e2c8a6cdbac190bdd04f6ff79043280c1b92e976c187455b1deb24984bd339cf150df221a717e41d8753370f1c2688f47f0bebb5378f1bba7c053ab6514b096f294b2a0bff0d0eee89506e3eec91a16c718882229fb82e26dd0d3d4f5d477707b9299cbdebba9ebef424e42aad3ad3bd40616e3fc0324544c2e61a521873d477c0996a15701a315b99c80799406debe3d6ea2a7b0c67da7333fe2595447fc1a1bfe9172ecf7157954fd3186a14be3b2af0642ec7ad0e8ef7589995167823dfc40f0ec30b7e214c6e3878796f8d33240965b1a52cc5f8808cae156e6b38b8a1738125553955f86f99e202463145a8db1ed4e4f2a73b7b3e2f425e32f88c006eecc20a9f81ff3b8caad7aa0ba8f8d9b429f9f2482ad01a027120ea3726668ba71dbf776a3da515b5136c4f8de3852b61af1a7a367941fd0c11ab72e3a61a29fb0ebb9f5ea694ff7ad148ed72fa2e2470cd9f0c38ee45446d53ef2a7dabf819fd6372189ead019ad05868157f25a3098a7f5e6cd74ffa6d557984c8d91e7f864e3775e042d9c32695dec5d6cbcdbfe4581661f62f35f56d2d2125ecdd68fbcf1dfab05ea66096dc7f3d1214319cd424e7c5b4efc1f2a676ff8727a232300f099a49d1e7634fe8d09ab3762a031e41ed32ddb58afffa6c221bd74c40544a05008af3fb373804618ea412163722ae5370dc35f813caa98183bcef88c152669023a0e6595b3a6a243e6a623adfdb709b664175351d953e8e9024aba1426c89db69832c1963eb6f7e9e095effef674d3cd90dd81296539353127b583abfc63b22aa6f63cae7230b3d81839014ad8f42ab685dfafe65208672d6e56a9cbdaab4bfcf695e7d122b4915ea28052ddbae3ec18fe09edbcecc12d50beb9756564c657977914c954888939769451f5808f8b8c8648fd33986c49f3187a67aaf346583e3138f0e5f25b34859146cb17c512618d80b31aa459cd8700d0f6ed7b2ad7a108ba5a1654079c0da6ba1d66fba4b1330b5120cf4db60b63960c29ffb127f6ce34028896d131e492d34f1d13b0d70cfb0058750afd04a139488688c3ad02f10d224b27dabcd478d66e36661c293f50f58621bb600ceef6d70f014d3ca2816abc071f3bcb5018ce0908cb85db25c00641d18aa262361bac68fed52a06babc762a5db999c73c9d24cb49b191ffe2256cd88792f33b6e53080df16d8977bc61ea8817152952c3a1b788717764c53808f55c4dfa7e8a9b56cca88f190562c8108e01a358959cc0623133baeefb196018befa09436ccfd78639928962fef3b32bacec0a080659529c827687817db10812da795a755d74a907fd513ecbf686d815423b6e8b2c723ccfe743ad453556827fc4e5bc957e10c4cd443b98dd0e79add049e445f3d29f1a19a090c0a187692f7abf2aaf671fc8100f16fe8fb4e77881a8baca2cf9dd4fdfc3ebd7da35719ffb67888ec786b3a2d171a546274848c9bb9bcbef3f8fe040e10232d426e7a7e888f95acb5b9bec3c4ccd1d4d6d7e1ed12393a4d676e8ca0b6cedbe7030d1015262e41438d929ba9aec4dd00000000000000000000000000000e27334201",
        "00babe360f8af10060d763957789abe1714d02ec32a81884cf020d4f6231e739bb409fe9b1f4e88c0bdc071081490467f9079affd3f993016094af86b205dc0f229e41c2d1a20ee30b6d46a36ed1864ba0adae6c3f9d33369f43e8d87cb6b3f210198e4ac22ad42dce24df71e8b55fcd4b7a59b77f01c7b04206ac847e8c91ac3d2fb2f583e052eac1fccdb613bfc60384f30485b56156a1ccfde6c009986aa995c5ea96449782340247885a98a0f2557ecd3a4ce642c9aee31e432068d972dc7d42f72d24e524018ca689158c8a3fd42ce78ebe17f0e3df55473706192ca3785bd194b63e24d8cac94142ffb0206e5d4cf91462526d315aa5b8c73154b8c155c69d4cd885de65bef5106f366818048d043f59f9f1db7202ab02ab6f676f33c1fb3948c8c6bd2e3ca1fe6ae577e7dba77000c5976f48125af7c1378c7f47c35d0bda1e6123995fba48c1eec3c9d3482083c52e3d20666d6642120998e36b40e3305ead94beb1ef093480bebdadb4b39f45f83059492ed08d01eec64f4bf8408de102670c9495d9c243548bce68293d99e36d8396d2e7305a3e91f88e70713fa95e92a3061053153bc60d08e1fffd19638ca09f837f5d5744761268abd74367369e26e5d8d6e71ec8e84c6fc3cc9ff34befc135aca45f1942cdbd605cee6666480d87ce4fe2c3ac83e143c0ef44489fbe78fc38e83bf45af1060c1e9835b434fd1307c9860fb68e893a5505700b342a361b377511e343ec90045581dae22626eb5748ef23d09293956ebebe83134a3609ad64db8e13ee189b4defce3d7aeb9904699db9f83eccdc3331c431870f7a894b7ab961d9945fa540f16d5d2f836b932487816455711af247d4052cb18fd4ec4848d075a29b2ccf82fd248d1af59b961c2886f8152f00abd4a9431884e14e099cc36a801000fff4592135b90236f34d636346828eb57701a04f3411ee2628864b8c6afefc4adaa9081079966a8839852f9724002f17c186be7deec8dd3175a34e30950ac384fd4dc374b30d05135599b20892e6c8ceb94eb5d5b8af9131f11ac9895c06a7e7161de360bacd39c52b15986dab88fba3793fea7a721ac9d81e5d9964c5b591bb085cd0cab665f12cccdb8c33dd71cdddc578697423b06821043159d1d14038f316f75b5543e44bfd933b097c76d28bdbd713d3bd38585a299c87e3d5f8c8994ab9170ca494c0a837bd2937fa33f666ff6ccaec229079dd960d5a7397aa53114384beda55b3db1ac216a7cf5dbb1ff58316c8be38b5640193ce90d7c2b4e5f7a1c96ec1e2f15293710c4692b2c26fd9ce4ba557394ca55aa1a62dcb0dd012f1b60098a455aaee19ad79bec3e3e6d4bab3f2d569550c1b1f62a719fb29ec4450c4ac1f3922db02ad74d793e73ce51a3d80a02a2269edecdcea8e89831e527ec6de8fa1f9bbccfe52316149965ec88905a65c7a0d3ecf98d5ba1032bfe0a0ecb2537f94509e01cd96eae9145b5d5dc3a824fb75fa531f9510972059e96c0c277c51c4692007a58d021f0a4e4c4d1c74125193163cc7bdb02186d8084faf374fbc1ee691a850957f36939e2c38d32a4ceab318cfc0f6a9494fa85bbd91589709d3889132d62f5c23d31b80dd5046b05df04254869631a537fc1ecd3501e24d753926648b565a32b2734b33aa1451c4f43f2afe736128b075bcb33dfcd30744ca789dc5369f7657d83618bc8787894a52e534954d730450d6b37cb61332cca736f82fa234d2ddcbfba03992ecaeac97bb39bc5959d7572197eb8d949c8676e65b95e3069b67469a6a9fa24ae0b5fb6fa775f76d783a3a71b36e51a8844906329fd44800b215658498d189b9368091"
      ],
      "sequence": 4294967294
    }
  ],
  "vout": [
    {
      "value": 499977.6282,
      "n": 0,
      "scriptPubKey": {
        "asm": "1 ff305605b2e7e09d037c5936196a20970aa8097de8219bdf2a141972056123b7",
        "hex": "5120ff305605b2e7e09d037c5936196a20970aa8097de8219bdf2a141972056123b7",
        "reqSigs": 1,
        "type": "witness_v1_scripthash",
        "addresses": [
          "3QJmnh"
        ]
      }
    },
    {
      "value": 1.0,
      "n": 1,
      "scriptPubKey": {
        "asm": "OP_RETURN 139952736a42e9633f11c160011de0ace2b4ee484f7c948c3f42af8e02af2a43 26535d10376500031c616f2cfc596fdcdb1306e8982e0b6a1fb59a5e654591f906737d30174520233c414f0cdc794ffcfb3326c8b80e2b4a3f95ba7e4565b1d966131d50772540435c212f6cbc192f9c9b5346a8d86e4b2a5ff5da1e2505d1b946333d70570560637c010f4c9c390fbcbb736688f84e6b0a7fd5fa3e0525f199a6d3dd90b7e580839ce1efac7cd9ef5c5b93866818ae8bea9f351adee5c5117986f3fdb097c5a0a3bcc1cf8c5cf9cf7c7bb3a648388eabcabf153afec5e53159e6939dd0f7a5c0c3dca1afec3c99af1c1bd3c62858eecbaadf755a9ea5855139c6b3bdf0d785e0e3fc818fcc1cb98f3c3bf3e60878ceeb8aff557abe85a5711926535d10376500031c616f2cfc596fdcdb1306e8982e0b6a1fb59a5e654591f906737d30174520233c414f0cdc794ffcfb3326c8b80e2b4a3f95ba7e4565b1d966131d50772540435c212f6cbc192f9c9b5346a8d86e4b2a5ff5da1e2505d1b946333d70570560637c010f4c9c390fbcbb736688f84e6b0a7fd5fa3e0525f199a6d3dd90b7e580839ce1efac7cd9ef5c5b93866818ae8bea9f351adee5c5117986f3fdb097c5a0a3bcc1cf8c5cf9cf7c7bb3a648388eabcabf153afec5e53159e6939dd0f7a5c0c3dca1afec3c99af1c1bd3c62858eecbaadf755a9ea5855139c6b3bdf0d785e0e3fc818fcc1cb98f3c3bf3e60878ceeb8aff557abe85a5711926535d10376500031c616f2cfc596fdcdb1306e8982e0b6a1fb59a5e654591f906737d30174520233c414f0cdc794ffcfb3326c8b80e2b4a3f95ba7e4565b1d966131d50772540435c212f6cbc192f9c9b5346a8d86e4b2a5ff5da1e2505d1b946333d70570560637c010f4c9c390fbcbb736688f84e6b0a7fd5fa3e0525f199a6d3dd90b7e580839ce1efac7cd9ef5c5b93866818ae8bea9f351adee5c5117986f3fdb097c5a0a3bcc1cf8c5cf9cf7c7bb3a648388eabcabf153afec5e53159e6939dd0f7a5c0c3dca1afec3c99af1c1bd3c62858eecbaadf755a9ea5855139c6b3bdf0d785e0e3fc818fcc1cb98f3c3bf3e60878ceeb8aff557abe85a5711926535d10376500031c616f2cfc596fdcdb1306e8982e0b6a1fb59a5e654591f906737d30174520233c414f0cdc794ffcfb3326c8b80e2b4a3f95ba7e4565b1d966131d50772540435c212f6cbc192f9c9b5346a8d86e4b2a5ff5da1e2505d1b946333d70570560637c010f4c9c390fbcbb736688f84e6b0a7fd5fa3e0525f199a6d3dd90b7e580839ce1efac7cd9ef5c5b93866818ae8bea9f351adee5c5117986f3fdb097c5a0a3bcc1cf8c5cf9cf7c7bb3a648388eabcabf153afec5e53159e6939dd0f7a5c0c3dca1afec3c99af1c1bd3c62858eecbaadf755a9ea5855139c6b3bdf0d785e0e3fc818fcc1cb98f3c3bf3e60878ceeb8aff557abe85a5711926535d10376500031c616f2cfc596fdcdb1306e8982e0b6a1fb59a5e654591f906737d30174520233c414f0cdc794ffcfb3326c8b80e2b4a3f95ba7e4565b1d966131d50772540435c212f6cbc192f9c9b5346a8d86e4b2a5ff5da1e2505d1b946333d70570560637c010f4c9c390fbcbb736688f84e6b0a7fd5fa3e0525f199a6d3dd90b7e580839ce1efac7cd9ef5c04246903a992f1c22b775f930ca6e2be2ff3dff1c473f475d0d756f9d78d4293",
        "hex": "6a20139952736a42e9633f11c160011de0ace2b4ee484f7c948c3f42af8e02af2a434db00426535d10376500031c616f2cfc596fdcdb1306e8982e0b6a1fb59a5e654591f906737d30174520233c414f0cdc794ffcfb3326c8b80e2b4a3f95ba7e4565b1d966131d50772540435c212f6cbc192f9c9b5346a8d86e4b2a5ff5da1e2505d1b946333d70570560637c010f4c9c390fbcbb736688f84e6b0a7fd5fa3e0525f199a6d3dd90b7e580839ce1efac7cd9ef5c5b93866818ae8bea9f351adee5c5117986f3fdb097c5a0a3bcc1cf8c5cf9cf7c7bb3a648388eabcabf153afec5e53159e6939dd0f7a5c0c3dca1afec3c99af1c1bd3c62858eecbaadf755a9ea5855139c6b3bdf0d785e0e3fc818fcc1cb98f3c3bf3e60878ceeb8aff557abe85a5711926535d10376500031c616f2cfc596fdcdb1306e8982e0b6a1fb59a5e654591f906737d30174520233c414f0cdc794ffcfb3326c8b80e2b4a3f95ba7e4565b1d966131d50772540435c212f6cbc192f9c9b5346a8d86e4b2a5ff5da1e2505d1b946333d70570560637c010f4c9c390fbcbb736688f84e6b0a7fd5fa3e0525f199a6d3dd90b7e580839ce1efac7cd9ef5c5b93866818ae8bea9f351adee5c5117986f3fdb097c5a0a3bcc1cf8c5cf9cf7c7bb3a648388eabcabf153afec5e53159e6939dd0f7a5c0c3dca1afec3c99af1c1bd3c62858eecbaadf755a9ea5855139c6b3bdf0d785e0e3fc818fcc1cb98f3c3bf3e60878ceeb8aff557abe85a5711926535d10376500031c616f2cfc596fdcdb1306e8982e0b6a1fb59a5e654591f906737d30174520233c414f0cdc794ffcfb3326c8b80e2b4a3f95ba7e4565b1d966131d50772540435c212f6cbc192f9c9b5346a8d86e4b2a5ff5da1e2505d1b946333d70570560637c010f4c9c390fbcbb736688f84e6b0a7fd5fa3e0525f199a6d3dd90b7e580839ce1efac7cd9ef5c5b93866818ae8bea9f351adee5c5117986f3fdb097c5a0a3bcc1cf8c5cf9cf7c7bb3a648388eabcabf153afec5e53159e6939dd0f7a5c0c3dca1afec3c99af1c1bd3c62858eecbaadf755a9ea5855139c6b3bdf0d785e0e3fc818fcc1cb98f3c3bf3e60878ceeb8aff557abe85a5711926535d10376500031c616f2cfc596fdcdb1306e8982e0b6a1fb59a5e654591f906737d30174520233c414f0cdc794ffcfb3326c8b80e2b4a3f95ba7e4565b1d966131d50772540435c212f6cbc192f9c9b5346a8d86e4b2a5ff5da1e2505d1b946333d70570560637c010f4c9c390fbcbb736688f84e6b0a7fd5fa3e0525f199a6d3dd90b7e580839ce1efac7cd9ef5c5b93866818ae8bea9f351adee5c5117986f3fdb097c5a0a3bcc1cf8c5cf9cf7c7bb3a648388eabcabf153afec5e53159e6939dd0f7a5c0c3dca1afec3c99af1c1bd3c62858eecbaadf755a9ea5855139c6b3bdf0d785e0e3fc818fcc1cb98f3c3bf3e60878ceeb8aff557abe85a5711926535d10376500031c616f2cfc596fdcdb1306e8982e0b6a1fb59a5e654591f906737d30174520233c414f0cdc794ffcfb3326c8b80e2b4a3f95ba7e4565b1d966131d50772540435c212f6cbc192f9c9b5346a8d86e4b2a5ff5da1e2505d1b946333d70570560637c010f4c9c390fbcbb736688f84e6b0a7fd5fa3e0525f199a6d3dd90b7e580839ce1efac7cd9ef5c04246903a992f1c22b775f930ca6e2be2ff3dff1c473f475d0d756f9d78d4293",
        "type": "nulldata"
      }
    }
  ],
  "blockhash": "0125d69e6984563ac74cb1b0b8601a67b424e71230e7918fa710584dbb11162a",
  "confirmations": 1,
  "time": 1764180090,
  "blocktime": 1764180090
}