{
  "hex": "010000000001017165cbdbddea24d2720062e63907ac773a9481ae612e5e309095c953a6e1e4bc0000000000feffffff0220cc6133792d0000225120e89d1615242315fa98cb7efbd2c67d82b90f41b64d6b41b0c0446be7cec1a6e200e1f50500000000fdd5046a207a69b6a600ee04d56ad7160eb32f26e2ff2008138eb8e8f79b8ea5bbc981bd534db004a651e4133e339c0b3307e5c7742de83c840d2076772642575c611b44693c7f248671c4331e13bc2b1327c5e7540dc81ca42d0056570662777c413b64491c5f04e611a4537e73dc4b7347a587346da87cc44d6036376602171c215b04297c3f64c63184735e53fc6b536785a7144d885ce46d4016174622373c017b24095c1f4426d16493beb31c8bb3876547f4ad68bc048da0f6f7a6c2d7dce19bc4e9bcffa406f144b39e933cab93a74567d48d489c24ad80d6d786e2f7fcc1bbe4c99cdf84669124d3fef35ccbf3c72507b4ed28fc44cde0b6b7e682979ca1db84a9fcbfe446b104f3ded37cebd3e7052794cd08dc64edc09697c6a2b7bc81fba489dc9fc4a651e4133e339c0b3307e5c7742de83c840d2076772642575c611b44693c7f248671c4331e13bc2b1327c5e7540dc81ca42d0056570662777c413b64491c5f04e611a4537e73dc4b7347a587346da87cc44d6036376602171c215b04297c3f64c63184735e53fc6b536785a7144d885ce46d4016174622373c017b24095c1f4426d16493beb31c8bb3876547f4ad68bc048da0f6f7a6c2d7dce19bc4e9bcffa406f144b39e933cab93a74567d48d489c24ad80d6d786e2f7fcc1bbe4c99cdf84669124d3fef35ccbf3c72507b4ed28fc44cde0b6b7e682979ca1db84a9fcbfe446b104f3ded37cebd3e7052794cd08dc64edc09697c6a2b7bc81fba489dc9fc4a651e4133e339c0b3307e5c7742de83c840d2076772642575c611b44693c7f248671c4331e13bc2b1327c5e7540dc81ca42d0056570662777c413b64491c5f04e611a4537e73dc4b7347a587346da87cc44d6036376602171c215b04297c3f64c63184735e53fc6b536785a7144d885ce46d4016174622373c017b24095c1f4426d16493beb31c8bb3876547f4ad68bc048da0f6f7a6c2d7dce19bc4e9bcffa406f144b39e933cab93a74567d48d489c24ad80d6d786e2f7fcc1bbe4c99cdf84669124d3fef35ccbf3c72507b4ed28fc44cde0b6b7e682979ca1db84a9fcbfe446b104f3ded37cebd3e7052794cd08dc64edc09697c6a2b7bc81fba489dc9fc4a651e4133e339c0b3307e5c7742de83c840d2076772642575c611b44693c7f248671c4331e13bc2b1327c5e7540dc81ca42d0056570662777c413b64491c5f04e611a4537e73dc4b7347a587346da87cc44d6036376602171c215b04297c3f64c63184735e53fc6b536785a7144d885ce46d4016174622373c017b24095c1f4426d16493beb31c8bb3876547f4ad68bc048da0f6f7a6c2d7dce19bc4e9bcffa406f144b39e933cab93a74567d48d489c24ad80d6d786e2f7fcc1bbe4c99cdf84669124d3fef35ccbf3c72507b4ed28fc44cde0b6b7e682979ca1db84a9fcbfe446b104f3ded37cebd3e7052794cd08dc64edc09697c6a2b7bc81fba489dc9fc4a651e4133e339c0b3307e5c7742de83c840d2076772642575c611b44693c7f248671c4331e13bc2b1327c5e7540dc81ca42d0056570662777c413b64491c5f04e611a4537e73dc4b7347a587346da87cc44d6036376602171c215b04297c3f64c63184735e53fc6b536785a7144d885ce46d4016174622373c017b24095c1f4426d16493beb31c8bb3876547f4ad68bc8f7ecee66c6ea9b27fa44bb24c4e0a7f33463a5e8b1e8a3c8973bdbaf90d7c9c02fd7509564decc5303eca359a2467b056d526effe633689e5f5c04c6e0ee7886f1588c6485c986652e09d794903e3a8a77896ddc3c207141d5f0472c5edf21462e6255f6e26f37419a2504cfb4899d71f785bcfbeba7b8a9116f3bb91a9e5285316a6eb79b582dee1db787a582e5194882ddda66c17c3201e9b6795647a3c7ee636f9cdb9752be4258bdab908bd3b6fcc87b3cdd6dcd320b5170b9932cc26fcdfafb219e714b550bc4d3d64e235c8b07400c60f9fc4c5f4c07cb4fd3bbd575ee0193c6b1dce65bb8b48f79d0343a4f222447f7005376dac3857f33ca60b7e7823cae70274b6456eb2402bac138e01300b52ed58607fb9d69eefd5d876ccb0029f882cd8ceb7c79b8e4e7eb512bcfe7d62f02df244b116b969dd8093ae1d0c83c5c16b68e9d2dda3999736fe04e7435ee6633b5fb3faf6caca62711ab86c2c8fa882996ff56d23a787444e711b1b8d52d8077d8633807eb7a18756bdfc8cdadcc06956d1b715e3deac16a5490286a02f91870b18137d1971acc8afc200b637cbe93d172992bf945717da2c6db625a8e6b746755aa39bd6f5e81b1de7b6b74fec6d0f4c03d3f17f45d67e387fcfdceb3925eb16450a210f9dfd6a6954bc9c2606d1bd6aa6e615eb096c951337c5771e4d209cdf99bad0cbfd3811763fd9660d92735a625c1f8eaf2ee35fe515740189472dc538d517c613275a0162da66b1028c96790f6e2a90cb18e2b57df28c3c50b37a9e6a8eb2de1f0c04b0d2edc164a04b24ceebb795de0268649b134e3a7be3c5d0acadee92b2527e28e4c303edaee4831c71c9e6b677120a78a3271afc242f057adbc76b064d91d9806ca860bb8e8c0f64b4100dd9d0b382413534b1f75c7dcabdeac8f0e0cd1a6c79aadcfff953ab80c4cd88bf626ef2f3005ec9606d1a78d3ff1a3848f43a22d530c7c8a8de0fcc34d838343c8cfefe1106fa3c1bfd9221424626f509a6bd9d95b20f472680f1ce5641bcba82c50bcc083ff8d81e0357135a0f4df8d34de8f04ed9f60a41c9d85643b1730723fa0a89ec30492c10a38ba00edf476af15d5b841d6d4745713d57a1cda0b62547853ddda3def3d63c3cbcf915fba303c7d63b320629d0028fdbdc7e2cf27f74665a61cde96ae0a906b2c76403f109f97ba378d41751fcd3a049c92c309d6c120ba2ed927bdef7a76206d0631341f23826bdbe45f9f25f026519f818e946360a5a29d1f125da366a8b990292c4d472a6fa228531f11a5db6200eb1b6b51510d7ff4f555ca387b06570fec2d06148f5dc3482cc98fadcd5dae51214eb30948f0f9f2996278685641d4beb8a377cdaea8761a58f201b63b2f21694e634f54f73de057b07842300ba18a62f7a2ed841734781798bff360c235ee77e379e20ec7136151b2a988ab087d82298f5c0404841216e66b831b9ce4e21564721c33e008ccaab630a6b10bb7e6b246458895e7c44ef83a3634b5580a382911c4871e1013fd56188c854b70d63e998736c9d24d1ef4e516e86f7122b8bc578d018412906025171de3b2f2badb52637b47195d63935f069771214e0226075cf8542e99cea524602ce333ecd78cdbd464750136934e911650af71c02872cc6d83dfd337f780cbde890bde3b55f58c48396382dbe62f65a2865a4067a9e0748eeab6adb1a7868e00f38b17cebc03bef40f24714a5f84e71911bd539a23c5f8abb167f737ae9b46b4a0ca0a934cce1f3036ee4c99e0fbafef75794fd0f6a7f6e1397654ac956e9a971786ed22be352f4c2f041516c6ca65c6da6675376e9e8394c82ad8e3514619d8db75552d4adcca100ba6d8bbab5cbf4c30d6e05da58b6ea9ca71560451093ba834ffe86daa9d60613204e67dc0ac134301feddab18db8d29a0593d48178fa37ede7b8d5c18ccb6454f1f271c49e39f706b7e3572df6b388c12fb40afc9e9f044ec5744f14418353eea9bd2217ed83b793a461cd17cecc847d38d1732e6b5bae6ca86f19b5d4c679bde65864ae1f31bbc222f5ca40a2dc8b7e3abd51ddcb44b737696376630cc97a89a7f83534e202718f0bf2b57cf7c5a32a92c92311fffa3c7ac6b9f07bc96c43f663a3f4f03a7b6c425eacb4493494e140de605a0a5a439bba0beb37199756169148b42a26f8681b638a9814e3144cb5fea638503a23374b6c9df41d4b4fa01d1aeb94a38b353ea6bde6db7446e3be8b0ada5d10a4a0f7eb7e436e6597a75175f508ea8989c5c0ea8aeee6660ab9271a51b8f82c6ca0091187d90d4a7cfbff4554c639a173f1292059110316493381907c9a01b1b9e8e565871ddd1bb11434da7a0bf32eb6b0e5eb31a5d4c3a0ccb250449091d704aa6d3e7ed1c6502fed73f4d01a9f442d98f27943ccf99cceef2afb5aa0234468a222971e708393ef9dc1b07503ab25cb3e899efcf48df32e00f9357f9d72ef7da70ce5b5a2513357c5600969e9bf32911c150ae366d816da0b283b59c0ec54ebc8219533626658530ed7303d8e7e3ce8f7424711c8c0cab8ba9d68986ba067be8b59ffbe95855d01834e75d7e8f110c69ce714f1d13c6f5524e17eb81673b076b4776a7c648b83611ccf7c9259e0112953bf8ef42409510d569178c303aff5a96a8aa71d2d7655f3c9b426a7567cfe7986bc90c8351aa3b20d3b6083571d7d79c33aa4a77457797801e3ed11a6498e90fae6c5a5899d7b33a7eeaa5fc8c34a3888d3da5d007bacbb1c075491e8bced1730acfec678682029c809346c8cda3e72b71482ced92be54d032f17658f66e6798847388f79df92412c3e02d4fe5ec977034bd83ec3d9a781be5a9431fcecb416b674abda6e539d567c4bedb681f458baededa0a0710ed504e5e534532877a27738707f1fb76d1da07e39441eac045b1d8d714fe5a3669bd082343a1e68d016cb680dc3ce17c91f03f1de208782b59f2c16d9026eaad71dd620634f98a3b593108ef3c7b2d68dbc480b05447a1813cb9e8276beb4920b16a2a8171d5aa51fda806dfc131ac066b4ae40e0e331c80f4b7fbd3dac3c3c71f488b9f98ee640a83ea676ca76f2f4c80c010351837570d072cf88d4e4ae12a9f212223e9503246576bfcd144b9e040b91a5735295f0528d2e65aafb535910eea26cdad3c70ddc9120782ccff30d31b66b99b81d197c1a5259d26a217d4ba456c67c298fdc7e722088d1936e00f30d7554dd58fc5525307da00f01ace94f754d42a594e2aff69d30685bc0b0c1841ff7de767feec152dbd560a21136f29a8e4118b9dce2b568ef17cab9a0591181c35055e02056c620547ecf12ca788b2f1d222a3a40485f6c6e797c8d99a2a6dae5e6e7f3f80615353a4a526773757d868992b5bfd9eaeffbfe142124b0cad6e60b45484b526b818286c9d8ecf3000000000000000000000000000000000000001529303d01fd21050053936a1a40a8e05fc3e1ca67d1bb8eb1d53bb9a1e006e89a990a523e64e3185b94c365d12a3a39e85f21c5ed6e3e344cc96ad2ca11ef62c9c08d1ba7b1b47437168e665f211bd510d10517444dd142785b7c23565b591d0f28f4edb56d8619be2619be90b548bf4af7469e996771d00454b8ef4cfbbc5b54ccfc0c4804a7609065d49f5ebcbfd4965e835bb5e6f3aaa6dfb3d60eb1c9a7446096f77a870f05ef60b002956e6f1ac47d7254b099486471ad267e386f07b7a59d00f991601021c9cad1134bfa433b1993adad8c679c1a5266a95c5ae9ce462551adf0cb3b02664eab882a3d926715f70f3e32a4743af3dbf1a9703fd754b281db5aecd83c448be59130e852adfff93278e27c15e601fcc5121719e9131f4105815381a453737c1ec747e9a5d38f54ec0a771bf7eaa4b8c1d62d24cc624cdca07f2a6387893de7eea58cccfe4018c414cd5877379acce013781d2bbed73117ef095ae46462f276eca6f57db48ebac68d940bda7d248c31a060773589bfcb66f78b4963d9e9329de5afe0db739649f61b4b433a5aa3124c6016a2b56d5b5c14274ad13989ae3af3577f3da91bdc35893690b1a4660a1ea4ec7b87b13c2823572c19484b962e4106fcbddb6057666f9af5ef25571d59bafcdb23a4e5cadb723631f74ced503c2ab1fa5b97c45bc6cc6cf27845db84b8ee35a13d7fe82ae46a405979d917ea7d344d4ce148c51965600333300d46a6b8df43927a7aac4d5685803e69163203bf5bc9c234940253c338450c175bf9c66d3aec15a2ae2370f911911986f9d2d0bee82d144b83166784df83e8de2328d4801eb606b8567ecb9b0a3f1bf446c6414f9beff0fc0b031a30bb879cd9cf476d5a5e9abcf31ae277fd5696bdea4030ae7c69924909629924ee2b96c3c2780904f9e3376d12d798a76b0349e3ef977a44ad4df6a4a40d76f8a626c38401e3b7e27060c9be1d6edc2edfbe160916888c6a82dadd49fd8c304b726ed7a072d1af2c0576d7cfc6f6e706e5d7690c41eec3cd177586eb53b796e554c261fc65b21016f63e7e4e5343b281a9c428277c30e138573a436772ba83d8a5c523ab840d11cbeb47ba1d86cbf5c51025490f4567b2e09f8304e9ce103c511def6df654e90aeb420335cd1db554def22e8951c3573c6e6ee8e5fcc38cc044294d1472aa1aa74936dc98e8b48d3c97d832598007c8c40cd7e5ad3f7dd4f51fcf577171016afa298e26e0602aba1803a50f56d3c16f873cb7b27c6d07b4da6e4be5cb9c47fe5b1921ad1741c8e92ade4e3a7f37b79773468b69b087354a8d5d9e7d73191ac91c16d020e23afab115e16b5185046859879df67395c572b94999a422df916556e1e7d89d4e8909ce56f788ead1316bdfd91da08e6873642096e4217353b5b274a1791bdf574d8bb968f37bb689a91b5e0beeb8a58a54073059d52252d82e86304bce5851a6cf9ad4035db454b577c400b7bdc6473cc9c5975bc68ffbb6597f5d2129f83bffddc974f18b2c8c094046683afb944c587347716ae3ee635c149a1c5539549e6f4e6b343a3c1e03897523548e51f8b439d9c1246fc133d0293431099f0188bc4a8ec0166cefc9c6bcc3e2d9348351b009cd9e950c7bd97d419a20665921950103d60ed6ea65bac475674f3c718dc1cebbb00b215657b9f755b6ce1c36e7272ef33102abdd657a680ff839daf4e03b28b9fd9d5523463422b8b0f524ba1cfcd87d8e64452bc4e42e69a13d57d36bbff2e0c66006b1d3056d1a4bd269d30fa1704e0b20c68f806e54303599a786aa7677c4a8405b6366b91efc2549db8eb5f87e13919ee203064bc84f28bcbd6b7a051cbc0c73000000",
  "txid": "4660fd196cb10d801757b619c9f4abe33be840fdfc65018e46eb57af44e9a0fd",
  "hash": "f7ae7a3e0a67d7a38858d38b5203b06c4c4dbe07e088e74d8e5f9177c521cc65",
  "size": 5085,
  "vsize": 2278,
  "version": 1,
  "locktime": 115,
  "vin": [
    {
      "txid": "bce4e1a653c99590305e2e61ae81943a77ac0739e6620072d224eadddbcb6571",
      "vout": 0,
      "scriptSig": {
        "asm": "",
        "hex": ""
      },
      "txinwitness": [
        "564decc5303eca359a2467b056d526effe633689e5f5c04c6e0ee7886f1588c6485c986652e09d794903e3a8a77896ddc3c207141d5f0472c5edf21462e6255f6e26f37419a2504cfb4899d71f785bcfbeba7b8a9116f3bb91a9e5285316a6eb79b582dee1db787a582e5194882ddda66c17c3201e9b6795647a3c7ee636f9cdb9752be4258bdab908bd3b6fcc87b3cdd6dcd320b5170b9932cc26fcdfafb219e714b550bc4d3d64e235c8b07400c60f9fc4c5f4c07cb4fd3bbd575ee0193c6b1dce65bb8b48f79d0343a4f222447f7005376dac3857f33ca60b7e7823cae70274b6456eb2402bac138e01300b52ed58607fb9d69eefd5d876ccb0029f882cd8ceb7c79b8e4e7eb512bcfe7d62f02df244b116b969dd8093ae1d0c83c5c16b68e9d2dda3999736fe04e7435ee6633b5fb3faf6caca62711ab86c2c8fa882996ff56d23a787444e711b1b8d52d8077d8633807eb7a18756bdfc8cdadcc06956d1b715e3deac16a5490286a02f91870b18137d1971acc8afc200b637cbe93d172992bf945717da2c6db625a8e6b746755aa39bd6f5e81b1de7b6b74fec6d0f4c03d3f17f45d67e387fcfdceb3925eb16450a210f9dfd6a6954bc9c2606d1bd6aa6e615eb096c951337c5771e4d209cdf99bad0cbfd3811763fd9660d92735a625c1f8eaf2ee35fe515740189472dc538d517c613275a0162da66b1028c96790f6e2a90cb18e2b57df28c3c50b37a9e6a8eb2de1f0c04b0d2edc164a04b24ceebb795de0268649b134e3a7be3c5d0acadee92b2527e28e4c303edaee4831c71c9e6b677120a78a3271afc242f057adbc76b064d91d9806ca860bb8e8c0f64b4100dd9d0b382413534b1f75c7dcabdeac8f0e0cd1a6c79aadcfff953ab80c4cd88bf626ef2f3005ec9606d1a78d3ff1a3848f43a22d530c7c8a8de0fcc34d838343c8cfefe1106fa3c1bfd9221424626f509a6bd9d95b20f472680f1ce5641bcba82c50bcc083ff8d81e0357135a0f4df8d34de8f04ed9f60a41c9d85643b1730723fa0a89ec30492c10a38ba00edf476af15d5b841d6d4745713d57a1cda0b62547853ddda3def3d63c3cbcf915fba303c7d63b320629d0028fdbdc7e2cf27f74665a61cde96ae0a906b2c76403f109f97ba378d41751fcd3a049c92c309d6c120ba2ed927bdef7a76206d0631341f23826bdbe45f9f25f026519f818e946360a5a29d1f125da366a8b990292c4d472a6fa228531f11a5db6200eb1b6b51510d7ff4f555ca387b06570fec2d06148f5dc3482cc98fadcd5dae51214eb30948f0f9f2996278685641d4beb8a377cdaea8761a58f201b63b2f21694e634f54f73de057b07842300ba18a62f7a2ed841734781798bff360c235ee77e379e20ec7136151b2a988ab087d82298f5c0404841216e66b831b9ce4e21564721c33e008ccaab630a6b10bb7e6b246458895e7c44ef83a3634b5580a382911c4871e1013fd56188c854b70d63e998736c9d24d1ef4e516e86f7122b8bc578d018412906025171de3b2f2badb52637b47195d63935f069771214e0226075cf8542e99cea524602ce333ecd78cdbd464750136934e911650af71c02872cc6d83dfd337f780cbde890bde3b55f58c48396382dbe62f65a2865a4067a9e0748eeab6adb1a7868e00f38b17cebc03bef40f24714a5f84e71911bd539a23c5f8abb167f737ae9b46b4a0ca0a934cce1f3036ee4c99e0fbafef75794fd0f6a7f6e1397654ac956e9a971786ed22be352f4c2f041516c6ca65c6da6675376e9e8394c82ad8e3514619d8db75552d4adcca100ba6d8bbab5cbf4c30d6e05da58b6ea9ca71560451093ba834ffe86daa9d60613204e67dc0ac134301feddab18db8d29a0593d48178fa37ede7b8d5c18ccb6454f1f271c49e39f706b7e3572df6b388c12fb40afc9e9f044ec5744f14418353eea9bd2217ed83b793a461cd17cecc847d38d1732e6b5bae6ca86f19b5d4c679bde65864ae1f31bbc222f5ca40a2dc8b7e3abd51ddcb44b737696376630cc97a89a7f83534e202718f0bf2b57cf7c5a32a92c92311fffa3c7ac6b9f07bc96c43f663a3f4f03a7b6c425eacb4493494e140de605a0a5a439bba0beb37199756169148b42a26f8681b638a9814e3144cb5fea638503a23374b6c9df41d4b4fa01d1aeb94a38b353ea6bde6db7446e3be8b0ada5d10a4a0f7eb7e436e6597a75175f508ea8989c5c0ea8aeee6660ab9271a51b8f82c6ca0091187d90d4a7cfbff4554c639a173f1292059110316493381907c9a01b1b9e8e565871ddd1bb11434da7a0bf32eb6b0e5eb31a5d4c3a0ccb250449091d704aa6d3e7ed1c6502fed73f4d01a9f442d98f27943ccf99cceef2afb5aa0234468a222971e708393ef9dc1b07503ab25cb3e899efcf48df32e00f9357f9d72ef7da70ce5b5a2513357c5600969e9bf32911c150ae366d816da0b283b59c0ec54ebc8219533626658530ed7303d8e7e3ce8f7424711c8c0cab8ba9d68986ba067be8b59ffbe95855d01834e75d7e8f110c69ce714f1d13c6f5524e17eb81673b076b4776a7c648b83611ccf7c9259e0112953bf8ef42409510d569178c303aff5a96a8aa71d2d7655f3c9b426a7567cfe7986bc90c8351aa3b20d3b6083571d7d79c33aa4a77457797801e3ed11a6498e90fae6c5a5899d7b33a7eeaa5fc8c34a3888d3da5d007bacbb1c075491e8bced1730acfec678682029c809346c8cda3e72b71482ced92be54d032f17658f66e6798847388f79df92412c3e02d4fe5ec977034bd83ec3d9a781be5a9431fcecb416b674abda6e539d567c4bedb681f458baededa0a0710ed504e5e534532877a27738707f1fb76d1da07e39441eac045b1d8d714fe5a3669bd082343a1e68d016cb680dc3ce17c91f03f1de208782b59f2c16d9026eaad71dd620634f98a3b593108ef3c7b2d68dbc480b05447a1813cb9e8276beb4920b16a2a8171d5aa51fda806dfc131ac066b4ae40e0e331c80f4b7fbd3dac3c3c71f488b9f98ee640a83ea676ca76f2f4c80c010351837570d072cf88d4e4ae12a9f212223e9503246576bfcd144b9e040b91a5735295f0528d2e65aafb535910eea26cdad3c70ddc9120782ccff30d31b66b99b81d197c1a5259d26a217d4ba456c67c298fdc7e722088d1936e00f30d7554dd58fc5525307da00f01ace94f754d42a594e2aff69d30685bc0b0c1841ff7de767feec152dbd560a21136f29a8e4118b9dce2b568ef17cab9a0591181c35055e02056c620547ecf12ca788b2f1d222a3a40485f6c6e797c8d99a2a6dae5e6e7f3f80615353a4a526773757d868992b5bfd9eaeffbfe142124b0cad6e60b45484b526b818286c9d8ecf3000000000000000000000000000000000000001529303d01",
        "0053936a1a40a8e05fc3e1ca67d1bb8eb1d53bb9a1e006e89a990a523e64e3185b94c365d12a3a39e85f21c5ed6e3e344cc96ad2ca11ef62c9c08d1ba7b1b47437168e665f211bd510d10517444dd142785b7c23565b591d0f28f4edb56d8619be2619be90b548bf4af7469e996771d00454b8ef4cfbbc5b54ccfc0c4804a7609065d49f5ebcbfd4965e835bb5e6f3aaa6dfb3d60eb1c9a7446096f77a870f05ef60b002956e6f1ac47d7254b099486471ad267e386f07b7a59d00f991601021c9cad1134bfa433b1993adad8c679c1a5266a95c5ae9ce462551adf0cb3b02664eab882a3d926715f70f3e32a4743af3dbf1a9703fd754b281db5aecd83c448be59130e852adfff93278e27c15e601fcc5121719e9131f4105815381a453737c1ec747e9a5d38f54ec0a771bf7eaa4b8c1d62d24cc624cdca07f2a6387893de7eea58cccfe4018c414cd5877379acce013781d2bbed73117ef095ae46462f276eca6f57db48ebac68d940bda7d248c31a060773589bfcb66f78b4963d9e9329de5afe0db739649f61b4b433a5aa3124c6016a2b56d5b5c14274ad13989ae3af3577f3da91bdc35893690b1a4660a1ea4ec7b87b13c2823572c19484b962e4106fcbddb6057666f9af5ef25571d59bafcdb23a4e5cadb723631f74ced503c2ab1fa5b97c45bc6cc6cf27845db84b8ee35a13d7fe82ae46a405979d917ea7d344d4ce148c51965600333300d46a6b8df43927a7aac4d5685803e69163203bf5bc9c234940253c338450c175bf9c66d3aec15a2ae2370f911911986f9d2d0bee82d144b83166784df83e8de2328d4801eb606b8567ecb9b0a3f1bf446c6414f9beff0fc0b031a30bb879cd9cf476d5a5e9abcf31ae277fd5696bdea4030ae7c69924909629924ee2b96c3c2780904f9e3376d12d798a76b0349e3ef977a44ad4df6a4a40d76f8a626c38401e3b7e27060c9be1d6edc2edfbe160916888c6a82dadd49fd8c304b726ed7a072d1af2c0576d7cfc6f6e706e5d7690c41eec3cd177586eb53b796e554c261fc65b21016f63e7e4e5343b281a9c428277c30e138573a436772ba83d8a5c523ab840d11cbeb47ba1d86cbf5c51025490f4567b2e09f8304e9ce103c511def6df654e90aeb420335cd1db554def22e8951c3573c6e6ee8e5fcc38cc044294d1472aa1aa74936dc98e8b48d3c97d832598007c8c40cd7e5ad3f7dd4f51fcf577171016afa298e26e0602aba1803a50f56d3c16f873cb7b27c6d07b4da6e4be5cb9c47fe5b1921ad1741c8e92ade4e3a7f37b79773468b69b087354a8d5d9e7d73191ac91c16d020e23afab115e16b5185046859879df67395c572b94999a422df916556e1e7d89d4e8909ce56f788ead1316bdfd91da08e6873642096e4217353b5b274a1791bdf574d8bb968f37bb689a91b5e0beeb8a58a54073059d52252d82e86304bce5851a6cf9ad4035db454b577c400b7bdc6473cc9c5975bc68ffbb6597f5d2129f83bffddc974f18b2c8c094046683afb944c587347716ae3ee635c149a1c5539549e6f4e6b343a3c1e03897523548e51f8b439d9c1246fc133d0293431099f0188bc4a8ec0166cefc9c6bcc3e2d9348351b009cd9e950c7bd97d419a20665921950103d60ed6ea65bac475674f3c718dc1cebbb00b215657b9f755b6ce1c36e7272ef33102abdd657a680ff839daf4e03b28b9fd9d5523463422b8b0f524ba1cfcd87d8e64452bc4e42e69a13d57d36bbff2e0c66006b1d3056d1a4bd269d30fa1704e0b20c68f806e54303599a786aa7677c4a8405b6366b91efc2549db8eb5f87e13919ee203064bc84f28bcbd6b7a051cbc0c"
      ],
      "sequence": 4294967294
    }
  ],
  "vout": [
    {
      "value": 499985.7634,
      "n": 0,
      "scriptPubKey": {
        "asm": "1 e89d1615242315fa98cb7efbd2c67d82b90f41b64d6b41b0c0446be7cec1a6e2",
        "hex": "5120e89d1615242315fa98cb7efbd2c67d82b90f41b64d6b41b0c0446be7cec1a6e2",
        "reqSigs": 1,
        "type": "witness_v1_scripthash",
        "addresses": [
          "3QJmnh"
        ]
      }
    },
    {
      "value": 1.0,
      "n": 1,
      "scriptPubKey": {
        "asm": "OP_RETURN 7a69b6a600ee04d56ad7160eb32f26e2ff2008138eb8e8f79b8ea5bbc981bd53 a651e4133e339c0b3307e5c7742de83c840d2076772642575c611b44693c7f248671c4331e13bc2b1327c5e7540dc81ca42d0056570662777c413b64491c5f04e611a4537e73dc4b7347a587346da87cc44d6036376602171c215b04297c3f64c63184735e53fc6b536785a7144d885ce46d4016174622373c017b24095c1f4426d16493beb31c8bb3876547f4ad68bc048da0f6f7a6c2d7dce19bc4e9bcffa406f144b39e933cab93a74567d48d489c24ad80d6d786e2f7fcc1bbe4c99cdf84669124d3fef35ccbf3c72507b4ed28fc44cde0b6b7e682979ca1db84a9fcbfe446b104f3ded37cebd3e7052794cd08dc64edc09697c6a2b7bc81fba489dc9fc4a651e4133e339c0b3307e5c7742de83c840d2076772642575c611b44693c7f248671c4331e13bc2b1327c5e7540dc81ca42d0056570662777c413b64491c5f04e611a4537e73dc4b7347a587346da87cc44d6036376602171c215b04297c3f64c63184735e53fc6b536785a7144d885ce46d4016174622373c017b24095c1f4426d16493beb31c8bb3876547f4ad68bc048da0f6f7a6c2d7dce19bc4e9bcffa406f144b39e933cab93a74567d48d489c24ad80d6d786e2f7fcc1bbe4c99cdf84669124d3fef35ccbf3c72507b4ed28fc44cde0b6b7e682979ca1db84a9fcbfe446b104f3ded37cebd3e7052794cd08dc64edc09697c6a2b7bc81fba489dc9fc4a651e4133e339c0b3307e5c7742de83c840d2076772642575c611b44693c7f248671c4331e13bc2b1327c5e7540dc81ca42d0056570662777c413b64491c5f04e611a4537e73dc4b7347a587346da87cc44d6036376602171c215b04297c3f64c63184735e53fc6b536785a7144d885ce46d4016174622373c017b24095c1f4426d16493beb31c8bb3876547f4ad68bc048da0f6f7a6c2d7dce19bc4e9bcffa406f144b39e933cab93a74567d48d489c24ad80d6d786e2f7fcc1bbe4c99cdf84669124d3fef35ccbf3c72507b4ed28fc44cde0b6b7e682979ca1db84a9fcbfe446b104f3ded37cebd3e7052794cd08dc64edc09697c6a2b7bc81fba489dc9fc4a651e4133e339c0b3307e5c7742de83c840d2076772642575c611b44693c7f248671c4331e13bc2b1327c5e7540dc81ca42d0056570662777c413b64491c5f04e611a4537e73dc4b7347a587346da87cc44d6036376602171c215b04297c3f64c63184735e53fc6b536785a7144d885ce46d4016174622373c017b24095c1f4426d16493beb31c8bb3876547f4ad68bc048da0f6f7a6c2d7dce19bc4e9bcffa406f144b39e933cab93a74567d48d489c24ad80d6d786e2f7fcc1bbe4c99cdf84669124d3fef35ccbf3c72507b4ed28fc44cde0b6b7e682979ca1db84a9fcbfe446b104f3ded37cebd3e7052794cd08dc64edc09697c6a2b7bc81fba489dc9fc4a651e4133e339c0b3307e5c7742de83c840d2076772642575c611b44693c7f248671c4331e13bc2b1327c5e7540dc81ca42d0056570662777c413b64491c5f04e611a4537e73dc4b7347a587346da87cc44d6036376602171c215b04297c3f64c63184735e53fc6b536785a7144d885ce46d4016174622373c017b24095c1f4426d16493beb31c8bb3876547f4ad68bc8f7ecee66c6ea9b27fa44bb24c4e0a7f33463a5e8b1e8a3c8973bdbaf90d7c9c",
        "hex": "6a207a69b6a600ee04d56ad7160eb32f26e2ff2008138eb8e8f79b8ea5bbc981bd534db004a651e4133e339c0b3307e5c7742de83c840d2076772642575c611b44693c7f248671c4331e13bc2b1327c5e7540dc81ca42d0056570662777c413b64491c5f04e611a4537e73dc4b7347a587346da87cc44d6036376602171c215b04297c3f64c63184735e53fc6b536785a7144d885ce46d4016174622373c017b24095c1f4426d16493beb31c8bb3876547f4ad68bc048da0f6f7a6c2d7dce19bc4e9bcffa406f144b39e933cab93a74567d48d489c24ad80d6d786e2f7fcc1bbe4c99cdf84669124d3fef35ccbf3c72507b4ed28fc44cde0b6b7e682979ca1db84a9fcbfe446b104f3ded37cebd3e7052794cd08dc64edc09697c6a2b7bc81fba489dc9fc4a651e4133e339c0b3307e5c7742de83c840d2076772642575c611b44693c7f248671c4331e13bc2b1327c5e7540dc81ca42d0056570662777c413b64491c5f04e611a4537e73dc4b7347a587346da87cc44d6036376602171c215b04297c3f64c63184735e53fc6b536785a7144d885ce46d4016174622373c017b24095c1f4426d16493beb31c8bb3876547f4ad68bc048da0f6f7a6c2d7dce19bc4e9bcffa406f144b39e933cab93a74567d48d489c24ad80d6d786e2f7fcc1bbe4c99cdf84669124d3fef35ccbf3c72507b4ed28fc44cde0b6b7e682979ca1db84a9fcbfe446b104f3ded37cebd3e7052794cd08dc64edc09697c6a2b7bc81fba489dc9fc4a651e4133e339c0b3307e5c7742de83c840d2076772642575c611b44693c7f248671c4331e13bc2b1327c5e7540dc81ca42d0056570662777c413b64491c5f04e611a4537e73dc4b7347a587346da87cc44d6036376602171c215b04297c3f64c63184735e53fc6b536785a7144d885ce46d4016174622373c017b24095c1f4426d16493beb31c8bb3876547f4ad68bc048da0f6f7a6c2d7dce19bc4e9bcffa406f144b39e933cab93a74567d48d489c24ad80d6d786e2f7fcc1bbe4c99cdf84669124d3fef35ccbf3c72507b4ed28fc44cde0b6b7e682979ca1db84a9fcbfe446b104f3ded37cebd3e7052794cd08dc64edc09697c6a2b7bc81fba489dc9fc4a651e4133e339c0b3307e5c7742de83c840d2076772642575c611b44693c7f248671c4331e13bc2b1327c5e7540dc81ca42d0056570662777c413b64491c5f04e611a4537e73dc4b7347a587346da87cc44d6036376602171c215b04297c3f64c63184735e53fc6b536785a7144d885ce46d4016174622373c017b24095c1f4426d16493beb31c8bb3876547f4ad68bc048da0f6f7a6c2d7dce19bc4e9bcffa406f144b39e933cab93a74567d48d489c24ad80d6d786e2f7fcc1bbe4c99cdf84669124d3fef35ccbf3c72507b4ed28fc44cde0b6b7e682979ca1db84a9fcbfe446b104f3ded37cebd3e7052794cd08dc64edc09697c6a2b7bc81fba489dc9fc4a651e4133e339c0b3307e5c7742de83c840d2076772642575c611b44693c7f248671c4331e13bc2b1327c5e7540dc81ca42d0056570662777c413b64491c5f04e611a4537e73dc4b7347a587346da87cc44d6036376602171c215b04297c3f64c63184735e53fc6b536785a7144d885ce46d4016174622373c017b24095c1f4426d16493beb31c8bb3876547f4ad68bc8f7ecee66c6ea9b27fa44bb24c4e0a7f33463a5e8b1e8a3c8973bdbaf90d7c9c",
        "type": "nulldata"
      }
    }
  ],
  "blockhash": "b157fe5006ea74e3e2696296011f5383f171fa956e468cbbd84742f98a1af3af",
  "confirmations": 1,
  "time": 1764179051,
  "blocktime": 1764179051
}