{
  "hex": "010000000001016773ec964026d13818ace943b2e5c331fc08c0b899817410d341c910ceb663610100000000feffffff0200e1f50500000000fdd5046a201a651c9f4ae6d4b07dcaa446d134617287fbb7fbcd49b87e2251a058afe243764db00424bb0cd71dac4c72df4fbcaba16ed097bfba602b67aeb8277f40a1aee1046501049b2cf73d8c6c52ff6f9c8b814ef0b79f9a400b478e98075f60818ec124452164fb4c975dec0c329f0ffcebe12e90d7fffa206b27eef8673f00e1eea144254144db6cb77dcc2c12bf2fdccbc10eb0f7dfda004b07ced8471f20c1ce81640561a43b8c579d2cccf25fcf3c2b21ee50173f3ae0abe72e38a7ffc0212e6184e581841bac77bd0cecd27fef1c0b01ce70371f1ac08bc70e1887dfe0010e41a4c5a1e47bcc17dd6c8cb21f8f7c6b61ae10577f7aa0eba76e78e7bf80616e21c4a5c1c45bec37fd4cac923faf5c4b418e30775f5a80cb874e58c79fa0414e01e485e124bb0cd71dac4c72df4fbcaba16ed097bfba602b67aeb8277f40a1aee1046501049b2cf73d8c6c52ff6f9c8b814ef0b79f9a400b478e98075f60818ec124452164fb4c975dec0c329f0ffcebe12e90d7fffa206b27eef8673f00e1eea144254144db6cb77dcc2c12bf2fdccbc10eb0f7dfda004b07ced8471f20c1ce81640561a43b8c579d2cccf25fcf3c2b21ee50173f3ae0abe72e38a7ffc0212e6184e581841bac77bd0cecd27fef1c0b01ce70371f1ac08bc70e1887dfe0010e41a4c5a1e47bcc17dd6c8cb21f8f7c6b61ae10577f7aa0eba76e78e7bf80616e21c4a5c1c45bec37fd4cac923faf5c4b418e30775f5a80cb874e58c79fa0414e01e485e124bb0cd71dac4c72df4fbcaba16ed097bfba602b67aeb8277f40a1aee1046501049b2cf73d8c6c52ff6f9c8b814ef0b79f9a400b478e98075f60818ec124452164fb4c975dec0c329f0ffcebe12e90d7fffa206b27eef8673f00e1eea144254144db6cb77dcc2c12bf2fdccbc10eb0f7dfda004b07ced8471f20c1ce81640561a43b8c579d2cccf25fcf3c2b21ee50173f3ae0abe72e38a7ffc0212e6184e581841bac77bd0cecd27fef1c0b01ce70371f1ac08bc70e1887dfe0010e41a4c5a1e47bcc17dd6c8cb21f8f7c6b61ae10577f7aa0eba76e78e7bf80616e21c4a5c1c45bec37fd4cac923faf5c4b418e30775f5a80cb874e58c79fa0414e01e485e124bb0cd71dac4c72df4fbcaba16ed097bfba602b67aeb8277f40a1aee1046501049b2cf73d8c6c52ff6f9c8b814ef0b79f9a400b478e98075f60818ec124452164fb4c975dec0c329f0ffcebe12e90d7fffa206b27eef8673f00e1eea144254144db6cb77dcc2c12bf2fdccbc10eb0f7dfda004b07ced8471f20c1ce81640561a43b8c579d2cccf25fcf3c2b21ee50173f3ae0abe72e38a7ffc0212e6184e581841bac77bd0cecd27fef1c0b01ce70371f1ac08bc70e1887dfe0010e41a4c5a1e47bcc17dd6c8cb21f8f7c6b61ae10577f7aa0eba76e78e7bf80616e21c4a5c1c45bec37fd4cac923faf5c4b418e30775f5a80cb874e58c79fa0414e01e485e124bb0cd71dac4c72df4fbcaba16ed097bfba602b67aeb8277f40a1aee1046501049b2cf73d8c6c52ff6f9c8b814ef0b79f9a400b478e98075f60818ec124452164fb4c975dec0c329f0ffcebe12e90d7fffa206b27eef8673f00e1eea144254144db6cb77dcc2c12bf2fdccbc10eb0f7dfda004b07ced8471f20c1ce81640561a43b8c579d2cccf25fcf3c2b21ee50179e52cebb0307519cc35dd23fd6284820c3a7d6dbb0007b9d631305df9e4f5186f077b5f0782d0000225120da25c5f8382bde0cb212b9153aaa4a765be2f9bc54a19dd86aa0eed3a33a019a02fd7509ddec5101df7c1ff18e37bf15f28ae9c695f8d84163ff08a4fe50e048538e2e4cb6ad0164f012a08e3576be80070be5d9419b525a8732a19c55dcde1d08c426d278e6d0fa6aad698b0e16c5b0eb9359da2b07e4361a936bf21381892b82522e394138572de403e3364b19e03fefc8a9308218b5200ab696123bf82dc6326c8d9046d952c78fac1b385fea94528bb7fecb5d82e7f3d558efb9b39fbb8993bad3a25f47f82ac3a2017978e5841578982337ce78dbf91a78d1fea3aae3053a32ebf1e9f3c0b7c53b3b7d5cf9124b981f5754bd62b25a97452bfcf6e6fcbe8e0bba465b6c1a5a9ee1b0b09815f991a9296271c270de35a0706121fec525d69c634bee56e03fb79f7c3b83c3d7039980d6984034ec950a280fc8db693527daf8c597bddd6cf070a21c69412f9773cd885cdd47e91c9147c368cb317082be4d13767cb64eb0a3a7f9d73b40a89c4808c71902034ad5cfab95629f5aa7d13fb4677264ac41ee4b3ecbf268c44e13d22a40aef14155aa30dc7f3f8fcdd60df8a63d117d3f22f4df5b083d2956674f8bd1bf135c45db98897ee70fdab74fd33da89605a5f2bc5121b7defcc86e5e22c2221e91d676200791f29bc148411fe5490b706e600715ce09a3aaba9b2fa4aa6b4230c79622343ba8be2cd267f2080331c74128067779c8fd8741b017f46252e965b65500fdbb502ceed2cf4b4ef38ec7b6c2b01b119bd59871a23f323f425dc041aaffed618928bc7a901520e3ede822bb43b9fd503d4b68628bf5382dd87cedd43e40ba9f7d7b44de5262bef09d42d5770f79b2fc28de4a8d85bdfb6d101be5830b08deb339d1eef05221329caeb37a63382d362d97efc7bb2d637f551ce190c74a12a03f7d6e5e36f61acf9709e447682796b498eb14008e4075e8a873d56ba15c98c121b6785bc504acbc41b9ef0029e1fae6565dcdc7262573b7c4dbc7a7ef08268afcf8f876a5499223ef2d7f6e5820c0423564ce345a25b5711fd75852dd0d43e8ce72e6d0197822a81e44ea35d85056be4588d895cb1b7798ff308e5e14f79e405065bad8b40bf7aff07eafcefa3251e6055941ea2c3bf9a7e4bc8dcb1c9551e609e9cf4ef714e5197eb694cd2af7b3af870428c2c97eb8c1d85f07b04e376de0250bd6cab37e383c135e4fbf9ada2c32e05906322c241256b9bfa229a0692b7897e92fe43938c94cb05eba5440193fe9dade5783c46152b1f575799d733d8452eb5c281dd72681e1cb5b5a3d6a313c820c2096d249f0ba6228d5d32ada9871361ea948d59e3330640db61b274f081c745f4998f9eac47a04bbe28877dc8fe29f6b3c30e2bbaa648fee52164988e39662bedb965a43dab4eddf4f0639fc20e5fdb7d8b0ef1e4e149089df04cacc8f3a4e64217947848313163c647094068d2e8c6c6f4b870e6571b686f87dc72d912e8f46ffdc77564f514b1d620b3dc30581bad20ab9147d8067fa8f04aacb18206de226b98a697de1000fbc491db5e67333fcfdf4efb8f6a837205413c6c0cba29809ca52c4dc203b2aebbf0ea4f05be6182f609ff9870f73d813957ce0057244e8d2a817b6b13b07ee88b3200b760de4204b5ee87406d37c8b2269c2e84cb89c5b8510af8aa5bd30f777f4fef880fcac655d0c2676995fc4218bda8f3b7e193ce966f7b212c781cdb55a961efeb981061de701e71aee22c46ddbb44af524331aa55a5f93bdf798fddb14faaaed047518bf4987496f6c3fda685b506a45bd9ad701d78fcdf761a9903ad201b1129f4dbd130f6fe182158f15d3806694958fb8e1fe573928f1eb56c38e58f6120e92c1f04c71145558f1328d2a0e81d40e48c68c016253834ebaadb108724668e4b9a004d605685a5d9c3492e2103d75a98d7dbd2065d6f179074c844d3ae3ba7abf64c740729da4e66cbd6e65ec26909e22721d4fe2424ab818969faef7c2703437617f09d6ad1a0419dda556c7815b454ee1337af36210883bdee26a6b12e51213cd365b5f2d99666ee3489e4474e7183c55c0c8ffa75b8ea504e0b88a408e0bca64fef07c24fca373db340f24f1d606cceb8a180179ec00e8cb60d32401096a58c8ecb59f43ee04a22056dc07bd00665ee1f36af916f5d7381c3f71d4bf7e378fc9b5ffb36d7bc1102c1d671354ae752a8af14847ea6775f87034265470003f506b170e09810b2871252d9cf578025e6f28b55dbea8f8e82f2b80bbe4b9d8cc527492ce95f047a4010d83aee1706c95d122386ab579977c1e0c0985ae3584daefd795505297573ddd1e748a89e38d12b581ad7a52ed26c8e9ea38e7c4d5697b88f484061a7709d301e9245e4a669ddca63e01aadc76fd6709bf54d075171a74d907f7f3d38e6f03db362b22efdface8e5f446f331bceec6b510c8f4ed7f7e008a65ea2a81eeb114c8bab2b82c2c9e8c040fdd0a2034ead30152f9c4306cef00570bacebe80e15ff49b06257c2997f4fe0589fc61e413628f06de272fd584a57b92c158338f06782626c5c43a22e3b23a1184c9693d5acf9f9d555e4f43e94a24b79d124608ee1ae10f2975c5a3c93604b6d01d13771546c2a6f87ba634352ddf6014106e449761fae1569164f622875a35c25c570f6984494c5c4d5c89b1ebc46526c4dc57c0e34b58a4c693fb835f843e10d7c4da116f7ecf449df6018ca5ed65d4b099e9580052785a973a6a32ce29add5ee6affec442eef7da34f0207f9758bcbc4b96ceeaa15e6288cfd9db6822e2d01b340f6b5ecadf7e2fa98cd8237b70ffcbca4ce6fe230fc19968884daa37e2c524714129e6423d6b01e3c342ed3d1e0083341ec165d2928c5fdb30cc0649df8ab6e9fcfd123981efa1c13f9bc6aacd65cbae542f703c8aca72500ff3f98b1f89f9468c0a47ab1c2e3aeda2227692635093427dc896695760da586522b805dce5c4c37537954b862cd3205906973301620e53719cfce2bd3c8e750628b311789345c358101be32dc1419dcb201ba898521a04b4c41cd88e8738d39ba285c9e33422429bf6b12f2bca9b94d36f172a970f2082982988a09deb3f1d3c317384eb320d6d00ad536cd8f59b39156d809ec1d6366186a2d13090fc7e55e06eb029d6b7a57e6df977acf8e13056921f4b0801c8653bc284617eb63454f8d487f294d777335049558024c460a979be0b6f9d74a24dd0bb33f1ed8ae2f3e3d2b6969758f05e620b39f7e6b78b91ce3272ddbec38b4cb215a4117b09973218d66f50967e7b04a850d03df46c724957aaed6b5d93528d7f84efbab7bb4708f6f65c588b26e45826ee7c0308153032393d4048585e5f6f717e83a8c1d8d9dae00c1c373c44485aaab5b8c8d6e5e8ff010a192c2d4b5683878a9fadedf3fe030b18242e3d45466c7d849fa3bbcbd6f600000000000000000000001625344501fd21050065e2bc6d1d89dbaa69dff505280ecc7a2b2cf96c8d996c36dd069179a848b0f332a545702f9239519aa8199bec199854600f157c21d36d994f3e6fa7ced0728218f809f3392e1d3305fd5715e2966fc6bfe9080606547de4cb7cd3e52ce423baaad9dd4308049e01da8ae28b50de3392f44295bd5ed50660b9111b5eb89e243e12d92a58d351365d35b185e74c75cbc9a09b8426a17c86b0226081eb227079efd59ee517100885226e319b7fca4277735a944a44ef58fa21b3fed32680ff898ac3f60df63ff562f25503db6cbae490c6423ee83a4efd92aaa77b24a4c56618f88eed4be26c970d5ae53248787edae2952c0c2da731360ba963bca284010f0b2c19dfa27acebe9508a3e7d24515bf66387df2f5ae9f679f29baa367acb19487c7b0b0baed43c562f0255dfd6558d6eff71100162945611805f5ad4a4ce4700fb9691acea1985755bf47c6cb8bc6061a85fca1b8f660fee887ca5e7cb1ccb90ddb3f37a156fefd336f1702efdc69c0be60ddaa6684270fcf63e36504ea4f5fd7ee16883fafc624318337de372984fe41ea0f822c18ecaefd9bf0c402228a5b424ade036ad35ebce2233711d2bdb4af2bf1cc122f2e942adc1e3ef69bcf8f625d9dc74efc8d80c59893830f4168b4a32f7f86c849f1f0538f258840c907050b2059d211430adb9136fddaf1fe3deed3211f838fbba718f790d1436187c5bcf58873fdc43843c8383f7d72c515b222112d41be473653cf8fe27854016bef089a36bc05313cb54c73cd5d90137f22184c94a8d0b7bd1ddba26f1d22930fc1dec330c5dd87d4061364b3a6008af367224557ca779425fc1aef85150baae2bcb31fe7b79feda73e4bf215d677e367fe0041b9ea4eb6674ac2817d197dc7f134f681c392c4d5f48f8ded11a14624570484a25c8cde3d5efe8fc9177aa6a8130cd5cbf57ec2004b509b7004b6e96ad4c5d61ae7eff509fac8914f5601a51efd8c93677e773993c50b6dfd2bc5e00579773b79acf27ecff047ae833f2efa14906619f8959f5b7c98c4b161ed0cd30cb1c904c2d767a2af7659261e1e486867f9359187b58025ec269e5658f79753b019909be29ba6037a8d1ec6860a4e659a93a91684956d28e23c0f06b621869847fc57c976180d37d37a892fb8fadfb9b48d77030e64a66cb6e609c9fe836942dcba0a5de58a68c545882b3edd725be62c1f71f0afb2610d91d5b6573c054b5869dfc25ade73b98b0a774cd68db0618860860a05e50a0a1e86f18f68f0c56766fc4b641425a2b8c9cbd12ad34ebd40be944b774a076f1271c09068d57c64d43cdac3494f1da1e4669aca35cf97b48ae91aee000cfae14da04c4ba2f4db1f61d3c7287a375f14b625429870c78a8bb033d6cdbd6ee55f9d018c3e3974d145cfec776fb89527fddd30f7e0d5b4f8fa44f5116d0a98f2fda0746c5020c3cd6ab0f086681dc8f8ed419824622a8eb4f9bdf271a734b87d74954ed8f371188148c314d4b9dc293c51487589d75312eeb66b6bb05f6eb04f11a63109d3f9f230712d88e1f740420809f98b416854537b26b3caa8c531464e95fcb099380e0e26f4fef81da2facc82aa830df4395b1b9fb696e10c9f8439dc7a81207a8f5770b64c6842e063b6a016af5a50b74eb4fcecfca4da7b3bb6ae28066c579889b619e9798a7c5a2118b9ede1cf29098e786de855fe4f24373b27620c6247bdc9238a52769d130b4f158de589015d5478a62c497720d2bf2fe44c541192dfcf1939ea1c322a68bbd0dbada98594b06f952cdc8a8ddce0934d0c2de89038b45a4c4d89e848399f1e34bbe6d86bb5e6bd7019ac8bc17f45f12e38340c0c377b000000",
  "txid": "41e7a6138ae1d4103e9cfdc9ec142beac5990e30f1affcd19c893878cc493b31",
  "hash": "08498d632c9bcd47092d6a90d0ff9ccd925276c0226cedce291082caa652348e",
  "size": 5085,
  "vsize": 2278,
  "version": 1,
  "locktime": 123,
  "vin": [
    {
      "txid": "6163b6ce10c941d310748199b8c008fc31c3e5b243e9ac1838d1264096ec7367",
      "vout": 1,
      "scriptSig": {
        "asm": "",
        "hex": ""
      },
      "txinwitness": [
        "ddec5101df7c1ff18e37bf15f28ae9c695f8d84163ff08a4fe50e048538e2e4cb6ad0164f012a08e3576be80070be5d9419b525a8732a19c55dcde1d08c426d278e6d0fa6aad698b0e16c5b0eb9359da2b07e4361a936bf21381892b82522e394138572de403e3364b19e03fefc8a9308218b5200ab696123bf82dc6326c8d9046d952c78fac1b385fea94528bb7fecb5d82e7f3d558efb9b39fbb8993bad3a25f47f82ac3a2017978e5841578982337ce78dbf91a78d1fea3aae3053a32ebf1e9f3c0b7c53b3b7d5cf9124b981f5754bd62b25a97452bfcf6e6fcbe8e0bba465b6c1a5a9ee1b0b09815f991a9296271c270de35a0706121fec525d69c634bee56e03fb79f7c3b83c3d7039980d6984034ec950a280fc8db693527daf8c597bddd6cf070a21c69412f9773cd885cdd47e91c9147c368cb317082be4d13767cb64eb0a3a7f9d73b40a89c4808c71902034ad5cfab95629f5aa7d13fb4677264ac41ee4b3ecbf268c44e13d22a40aef14155aa30dc7f3f8fcdd60df8a63d117d3f22f4df5b083d2956674f8bd1bf135c45db98897ee70fdab74fd33da89605a5f2bc5121b7defcc86e5e22c2221e91d676200791f29bc148411fe5490b706e600715ce09a3aaba9b2fa4aa6b4230c79622343ba8be2cd267f2080331c74128067779c8fd8741b017f46252e965b65500fdbb502ceed2cf4b4ef38ec7b6c2b01b119bd59871a23f323f425dc041aaffed618928bc7a901520e3ede822bb43b9fd503d4b68628bf5382dd87cedd43e40ba9f7d7b44de5262bef09d42d5770f79b2fc28de4a8d85bdfb6d101be5830b08deb339d1eef05221329caeb37a63382d362d97efc7bb2d637f551ce190c74a12a03f7d6e5e36f61acf9709e447682796b498eb14008e4075e8a873d56ba15c98c121b6785bc504acbc41b9ef0029e1fae6565dcdc7262573b7c4dbc7a7ef08268afcf8f876a5499223ef2d7f6e5820c0423564ce345a25b5711fd75852dd0d43e8ce72e6d0197822a81e44ea35d85056be4588d895cb1b7798ff308e5e14f79e405065bad8b40bf7aff07eafcefa3251e6055941ea2c3bf9a7e4bc8dcb1c9551e609e9cf4ef714e5197eb694cd2af7b3af870428c2c97eb8c1d85f07b04e376de0250bd6cab37e383c135e4fbf9ada2c32e05906322c241256b9bfa229a0692b7897e92fe43938c94cb05eba5440193fe9dade5783c46152b1f575799d733d8452eb5c281dd72681e1cb5b5a3d6a313c820c2096d249f0ba6228d5d32ada9871361ea948d59e3330640db61b274f081c745f4998f9eac47a04bbe28877dc8fe29f6b3c30e2bbaa648fee52164988e39662bedb965a43dab4eddf4f0639fc20e5fdb7d8b0ef1e4e149089df04cacc8f3a4e64217947848313163c647094068d2e8c6c6f4b870e6571b686f87dc72d912e8f46ffdc77564f514b1d620b3dc30581bad20ab9147d8067fa8f04aacb18206de226b98a697de1000fbc491db5e67333fcfdf4efb8f6a837205413c6c0cba29809ca52c4dc203b2aebbf0ea4f05be6182f609ff9870f73d813957ce0057244e8d2a817b6b13b07ee88b3200b760de4204b5ee87406d37c8b2269c2e84cb89c5b8510af8aa5bd30f777f4fef880fcac655d0c2676995fc4218bda8f3b7e193ce966f7b212c781cdb55a961efeb981061de701e71aee22c46ddbb44af524331aa55a5f93bdf798fddb14faaaed047518bf4987496f6c3fda685b506a45bd9ad701d78fcdf761a9903ad201b1129f4dbd130f6fe182158f15d3806694958fb8e1fe573928f1eb56c38e58f6120e92c1f04c71145558f1328d2a0e81d40e48c68c016253834ebaadb108724668e4b9a004d605685a5d9c3492e2103d75a98d7dbd2065d6f179074c844d3ae3ba7abf64c740729da4e66cbd6e65ec26909e22721d4fe2424ab818969faef7c2703437617f09d6ad1a0419dda556c7815b454ee1337af36210883bdee26a6b12e51213cd365b5f2d99666ee3489e4474e7183c55c0c8ffa75b8ea504e0b88a408e0bca64fef07c24fca373db340f24f1d606cceb8a180179ec00e8cb60d32401096a58c8ecb59f43ee04a22056dc07bd00665ee1f36af916f5d7381c3f71d4bf7e378fc9b5ffb36d7bc1102c1d671354ae752a8af14847ea6775f87034265470003f506b170e09810b2871252d9cf578025e6f28b55dbea8f8e82f2b80bbe4b9d8cc527492ce95f047a4010d83aee1706c95d122386ab579977c1e0c0985ae3584daefd795505297573ddd1e748a89e38d12b581ad7a52ed26c8e9ea38e7c4d5697b88f484061a7709d301e9245e4a669ddca63e01aadc76fd6709bf54d075171a74d907f7f3d38e6f03db362b22efdface8e5f446f331bceec6b510c8f4ed7f7e008a65ea2a81eeb114c8bab2b82c2c9e8c040fdd0a2034ead30152f9c4306cef00570bacebe80e15ff49b06257c2997f4fe0589fc61e413628f06de272fd584a57b92c158338f06782626c5c43a22e3b23a1184c9693d5acf9f9d555e4f43e94a24b79d124608ee1ae10f2975c5a3c93604b6d01d13771546c2a6f87ba634352ddf6014106e449761fae1569164f622875a35c25c570f6984494c5c4d5c89b1ebc46526c4dc57c0e34b58a4c693fb835f843e10d7c4da116f7ecf449df6018ca5ed65d4b099e9580052785a973a6a32ce29add5ee6affec442eef7da34f0207f9758bcbc4b96ceeaa15e6288cfd9db6822e2d01b340f6b5ecadf7e2fa98cd8237b70ffcbca4ce6fe230fc19968884daa37e2c524714129e6423d6b01e3c342ed3d1e0083341ec165d2928c5fdb30cc0649df8ab6e9fcfd123981efa1c13f9bc6aacd65cbae542f703c8aca72500ff3f98b1f89f9468c0a47ab1c2e3aeda2227692635093427dc896695760da586522b805dce5c4c37537954b862cd3205906973301620e53719cfce2bd3c8e750628b311789345c358101be32dc1419dcb201ba898521a04b4c41cd88e8738d39ba285c9e33422429bf6b12f2bca9b94d36f172a970f2082982988a09deb3f1d3c317384eb320d6d00ad536cd8f59b39156d809ec1d6366186a2d13090fc7e55e06eb029d6b7a57e6df977acf8e13056921f4b0801c8653bc284617eb63454f8d487f294d777335049558024c460a979be0b6f9d74a24dd0bb33f1ed8ae2f3e3d2b6969758f05e620b39f7e6b78b91ce3272ddbec38b4cb215a4117b09973218d66f50967e7b04a850d03df46c724957aaed6b5d93528d7f84efbab7bb4708f6f65c588b26e45826ee7c0308153032393d4048585e5f6f717e83a8c1d8d9dae00c1c373c44485aaab5b8c8d6e5e8ff010a192c2d4b5683878a9fadedf3fe030b18242e3d45466c7d849fa3bbcbd6f600000000000000000000001625344501",
        "0065e2bc6d1d89dbaa69dff505280ecc7a2b2cf96c8d996c36dd069179a848b0f332a545702f9239519aa8199bec199854600f157c21d36d994f3e6fa7ced0728218f809f3392e1d3305fd5715e2966fc6bfe9080606547de4cb7cd3e52ce423baaad9dd4308049e01da8ae28b50de3392f44295bd5ed50660b9111b5eb89e243e12d92a58d351365d35b185e74c75cbc9a09b8426a17c86b0226081eb227079efd59ee517100885226e319b7fca4277735a944a44ef58fa21b3fed32680ff898ac3f60df63ff562f25503db6cbae490c6423ee83a4efd92aaa77b24a4c56618f88eed4be26c970d5ae53248787edae2952c0c2da731360ba963bca284010f0b2c19dfa27acebe9508a3e7d24515bf66387df2f5ae9f679f29baa367acb19487c7b0b0baed43c562f0255dfd6558d6eff71100162945611805f5ad4a4ce4700fb9691acea1985755bf47c6cb8bc6061a85fca1b8f660fee887ca5e7cb1ccb90ddb3f37a156fefd336f1702efdc69c0be60ddaa6684270fcf63e36504ea4f5fd7ee16883fafc624318337de372984fe41ea0f822c18ecaefd9bf0c402228a5b424ade036ad35ebce2233711d2bdb4af2bf1cc122f2e942adc1e3ef69bcf8f625d9dc74efc8d80c59893830f4168b4a32f7f86c849f1f0538f258840c907050b2059d211430adb9136fddaf1fe3deed3211f838fbba718f790d1436187c5bcf58873fdc43843c8383f7d72c515b222112d41be473653cf8fe27854016bef089a36bc05313cb54c73cd5d90137f22184c94a8d0b7bd1ddba26f1d22930fc1dec330c5dd87d4061364b3a6008af367224557ca779425fc1aef85150baae2bcb31fe7b79feda73e4bf215d677e367fe0041b9ea4eb6674ac2817d197dc7f134f681c392c4d5f48f8ded11a14624570484a25c8cde3d5efe8fc9177aa6a8130cd5cbf57ec2004b509b7004b6e96ad4c5d61ae7eff509fac8914f5601a51efd8c93677e773993c50b6dfd2bc5e00579773b79acf27ecff047ae833f2efa14906619f8959f5b7c98c4b161ed0cd30cb1c904c2d767a2af7659261e1e486867f9359187b58025ec269e5658f79753b019909be29ba6037a8d1ec6860a4e659a93a91684956d28e23c0f06b621869847fc57c976180d37d37a892fb8fadfb9b48d77030e64a66cb6e609c9fe836942dcba0a5de58a68c545882b3edd725be62c1f71f0afb2610d91d5b6573c054b5869dfc25ade73b98b0a774cd68db0618860860a05e50a0a1e86f18f68f0c56766fc4b641425a2b8c9cbd12ad34ebd40be944b774a076f1271c09068d57c64d43cdac3494f1da1e4669aca35cf97b48ae91aee000cfae14da04c4ba2f4db1f61d3c7287a375f14b625429870c78a8bb033d6cdbd6ee55f9d018c3e3974d145cfec776fb89527fddd30f7e0d5b4f8fa44f5116d0a98f2fda0746c5020c3cd6ab0f086681dc8f8ed419824622a8eb4f9bdf271a734b87d74954ed8f371188148c314d4b9dc293c51487589d75312eeb66b6bb05f6eb04f11a63109d3f9f230712d88e1f740420809f98b416854537b26b3caa8c531464e95fcb099380e0e26f4fef81da2facc82aa830df4395b1b9fb696e10c9f8439dc7a81207a8f5770b64c6842e063b6a016af5a50b74eb4fcecfca4da7b3bb6ae28066c579889b619e9798a7c5a2118b9ede1cf29098e786de855fe4f24373b27620c6247bdc9238a52769d130b4f158de589015d5478a62c497720d2bf2fe44c541192dfcf1939ea1c322a68bbd0dbada98594b06f952cdc8a8ddce0934d0c2de89038b45a4c4d89e848399f1e34bbe6d86bb5e6bd7019ac8bc17f45f12e38340c0c37"
      ],
      "sequence": 4294967294
    }
  ],
  "vout": [
    {
      "value": 1.0,
      "n": 0,
      "scriptPubKey": {
        "asm": "OP_RETURN 1a651c9f4ae6d4b07dcaa446d134617287fbb7fbcd49b87e2251a058afe24376 24bb0cd71dac4c72df4fbcaba16ed097bfba602b67aeb8277f40a1aee1046501049b2cf73d8c6c52ff6f9c8b814ef0b79f9a400b478e98075f60818ec124452164fb4c975dec0c329f0ffcebe12e90d7fffa206b27eef8673f00e1eea144254144db6cb77dcc2c12bf2fdccbc10eb0f7dfda004b07ced8471f20c1ce81640561a43b8c579d2cccf25fcf3c2b21ee50173f3ae0abe72e38a7ffc0212e6184e581841bac77bd0cecd27fef1c0b01ce70371f1ac08bc70e1887dfe0010e41a4c5a1e47bcc17dd6c8cb21f8f7c6b61ae10577f7aa0eba76e78e7bf80616e21c4a5c1c45bec37fd4cac923faf5c4b418e30775f5a80cb874e58c79fa0414e01e485e124bb0cd71dac4c72df4fbcaba16ed097bfba602b67aeb8277f40a1aee1046501049b2cf73d8c6c52ff6f9c8b814ef0b79f9a400b478e98075f60818ec124452164fb4c975dec0c329f0ffcebe12e90d7fffa206b27eef8673f00e1eea144254144db6cb77dcc2c12bf2fdccbc10eb0f7dfda004b07ced8471f20c1ce81640561a43b8c579d2cccf25fcf3c2b21ee50173f3ae0abe72e38a7ffc0212e6184e581841bac77bd0cecd27fef1c0b01ce70371f1ac08bc70e1887dfe0010e41a4c5a1e47bcc17dd6c8cb21f8f7c6b61ae10577f7aa0eba76e78e7bf80616e21c4a5c1c45bec37fd4cac923faf5c4b418e30775f5a80cb874e58c79fa0414e01e485e124bb0cd71dac4c72df4fbcaba16ed097bfba602b67aeb8277f40a1aee1046501049b2cf73d8c6c52ff6f9c8b814ef0b79f9a400b478e98075f60818ec124452164fb4c975dec0c329f0ffcebe12e90d7fffa206b27eef8673f00e1eea144254144db6cb77dcc2c12bf2fdccbc10eb0f7dfda004b07ced8471f20c1ce81640561a43b8c579d2cccf25fcf3c2b21ee50173f3ae0abe72e38a7ffc0212e6184e581841bac77bd0cecd27fef1c0b01ce70371f1ac08bc70e1887dfe0010e41a4c5a1e47bcc17dd6c8cb21f8f7c6b61ae10577f7aa0eba76e78e7bf80616e21c4a5c1c45bec37fd4cac923faf5c4b418e30775f5a80cb874e58c79fa0414e01e485e124bb0cd71dac4c72df4fbcaba16ed097bfba602b67aeb8277f40a1aee1046501049b2cf73d8c6c52ff6f9c8b814ef0b79f9a400b478e98075f60818ec124452164fb4c975dec0c329f0ffcebe12e90d7fffa206b27eef8673f00e1eea144254144db6cb77dcc2c12bf2fdccbc10eb0f7dfda004b07ced8471f20c1ce81640561a43b8c579d2cccf25fcf3c2b21ee50173f3ae0abe72e38a7ffc0212e6184e581841bac77bd0cecd27fef1c0b01ce70371f1ac08bc70e1887dfe0010e41a4c5a1e47bcc17dd6c8cb21f8f7c6b61ae10577f7aa0eba76e78e7bf80616e21c4a5c1c45bec37fd4cac923faf5c4b418e30775f5a80cb874e58c79fa0414e01e485e124bb0cd71dac4c72df4fbcaba16ed097bfba602b67aeb8277f40a1aee1046501049b2cf73d8c6c52ff6f9c8b814ef0b79f9a400b478e98075f60818ec124452164fb4c975dec0c329f0ffcebe12e90d7fffa206b27eef8673f00e1eea144254144db6cb77dcc2c12bf2fdccbc10eb0f7dfda004b07ced8471f20c1ce81640561a43b8c579d2cccf25fcf3c2b21ee50179e52cebb0307519cc35dd23fd6284820c3a7d6dbb0007b9d631305df9e4f5186",
        "hex": "6a201a651c9f4ae6d4b07dcaa446d134617287fbb7fbcd49b87e2251a058afe243764db00424bb0cd71dac4c72df4fbcaba16ed097bfba602b67aeb8277f40a1aee1046501049b2cf73d8c6c52ff6f9c8b814ef0b79f9a400b478e98075f60818ec124452164fb4c975dec0c329f0ffcebe12e90d7fffa206b27eef8673f00e1eea144254144db6cb77dcc2c12bf2fdccbc10eb0f7dfda004b07ced8471f20c1ce81640561a43b8c579d2cccf25fcf3c2b21ee50173f3ae0abe72e38a7ffc0212e6184e581841bac77bd0cecd27fef1c0b01ce70371f1ac08bc70e1887dfe0010e41a4c5a1e47bcc17dd6c8cb21f8f7c6b61ae10577f7aa0eba76e78e7bf80616e21c4a5c1c45bec37fd4cac923faf5c4b418e30775f5a80cb874e58c79fa0414e01e485e124bb0cd71dac4c72df4fbcaba16ed097bfba602b67aeb8277f40a1aee1046501049b2cf73d8c6c52ff6f9c8b814ef0b79f9a400b478e98075f60818ec124452164fb4c975dec0c329f0ffcebe12e90d7fffa206b27eef8673f00e1eea144254144db6cb77dcc2c12bf2fdccbc10eb0f7dfda004b07ced8471f20c1ce81640561a43b8c579d2cccf25fcf3c2b21ee50173f3ae0abe72e38a7ffc0212e6184e581841bac77bd0cecd27fef1c0b01ce70371f1ac08bc70e1887dfe0010e41a4c5a1e47bcc17dd6c8cb21f8f7c6b61ae10577f7aa0eba76e78e7bf80616e21c4a5c1c45bec37fd4cac923faf5c4b418e30775f5a80cb874e58c79fa0414e01e485e124bb0cd71dac4c72df4fbcaba16ed097bfba602b67aeb8277f40a1aee1046501049b2cf73d8c6c52ff6f9c8b814ef0b79f9a400b478e98075f60818ec124452164fb4c975dec0c329f0ffcebe12e90d7fffa206b27eef8673f00e1eea144254144db6cb77dcc2c12bf2fdccbc10eb0f7dfda004b07ced8471f20c1ce81640561a43b8c579d2cccf25fcf3c2b21ee50173f3ae0abe72e38a7ffc0212e6184e581841bac77bd0cecd27fef1c0b01ce70371f1ac08bc70e1887dfe0010e41a4c5a1e47bcc17dd6c8cb21f8f7c6b61ae10577f7aa0eba76e78e7bf80616e21c4a5c1c45bec37fd4cac923faf5c4b418e30775f5a80cb874e58c79fa0414e01e485e124bb0cd71dac4c72df4fbcaba16ed097bfba602b67aeb8277f40a1aee1046501049b2cf73d8c6c52ff6f9c8b814ef0b79f9a400b478e98075f60818ec124452164fb4c975dec0c329f0ffcebe12e90d7fffa206b27eef8673f00e1eea144254144db6cb77dcc2c12bf2fdccbc10eb0f7dfda004b07ced8471f20c1ce81640561a43b8c579d2cccf25fcf3c2b21ee50173f3ae0abe72e38a7ffc0212e6184e581841bac77bd0cecd27fef1c0b01ce70371f1ac08bc70e1887dfe0010e41a4c5a1e47bcc17dd6c8cb21f8f7c6b61ae10577f7aa0eba76e78e7bf80616e21c4a5c1c45bec37fd4cac923faf5c4b418e30775f5a80cb874e58c79fa0414e01e485e124bb0cd71dac4c72df4fbcaba16ed097bfba602b67aeb8277f40a1aee1046501049b2cf73d8c6c52ff6f9c8b814ef0b79f9a400b478e98075f60818ec124452164fb4c975dec0c329f0ffcebe12e90d7fffa206b27eef8673f00e1eea144254144db6cb77dcc2c12bf2fdccbc10eb0f7dfda004b07ced8471f20c1ce81640561a43b8c579d2cccf25fcf3c2b21ee50179e52cebb0307519cc35dd23fd6284820c3a7d6dbb0007b9d631305df9e4f5186",
        "type": "nulldata"
      }
    },
    {
      "value": 499974.5775,
      "n": 1,
      "scriptPubKey": {
        "asm": "1 da25c5f8382bde0cb212b9153aaa4a765be2f9bc54a19dd86aa0eed3a33a019a",
        "hex": "5120da25c5f8382bde0cb212b9153aaa4a765be2f9bc54a19dd86aa0eed3a33a019a",
        "reqSigs": 1,
        "type": "witness_v1_scripthash",
        "addresses": [
          "3QJmnh"
        ]
      }
    }
  ],
  "blockhash": "3f7b66b34673dd56727b9b27d02dfa4f8333ff75e8b72ddccb546061f2a7d063",
  "confirmations": 1,
  "time": 1764180681,
  "blocktime": 1764180681
}