{
  "hex": "010000000001018525c79a0ac9ec2af11ae8c91e1b61421d034d4274b1d76f562b7b3f1dd99c830000000000feffffff0200e1f50500000000fdd5046a2081f65735223d5a9bcccc126c3f7a902c8f90f5384686472e10e2f0c05c146e9e4db004456fdec6afa33cbc399908d206919786ab6d3b5d41c16b34746d86c8c9d4516c654ffee68f831c9c19b928f226b1b7a68b4d1b7d61e14b14544da6e8e9f4714c052f9e86efe37cfc79d9489246d1d7c6eb2d7b1d01812b74342dc6888994112c250fbea6cfc35cdc59f968b266f1f7e6cb0d5b3d21a10b54140de6a8a9b4310cc5ef5e462f23bc3cb9198852861117062bedbbddc141ebb4f4ed06484954d1ece5cf7e660f039c1c9939a872a63137260bcd9bfde161cb94d4cd26686974f1cc85af1e066f63fc7cf959c812c65157466badfb9d8101abf4b4ad4608091491aca58f3e264f43dc5cd979e832e67177664b8ddbbda1218bd4948d66282934b18c456fdec6afa33cbc399908d206919786ab6d3b5d41c16b34746d86c8c9d4516c654ffee68f831c9c19b928f226b1b7a68b4d1b7d61e14b14544da6e8e9f4714c052f9e86efe37cfc79d9489246d1d7c6eb2d7b1d01812b74342dc6888994112c250fbea6cfc35cdc59f968b266f1f7e6cb0d5b3d21a10b54140de6a8a9b4310cc5ef5e462f23bc3cb9198852861117062bedbbddc141ebb4f4ed06484954d1ece5cf7e660f039c1c9939a872a63137260bcd9bfde161cb94d4cd26686974f1cc85af1e066f63fc7cf959c812c65157466badfb9d8101abf4b4ad4608091491aca58f3e264f43dc5cd979e832e67177664b8ddbbda1218bd4948d66282934b18c456fdec6afa33cbc399908d206919786ab6d3b5d41c16b34746d86c8c9d4516c654ffee68f831c9c19b928f226b1b7a68b4d1b7d61e14b14544da6e8e9f4714c052f9e86efe37cfc79d9489246d1d7c6eb2d7b1d01812b74342dc6888994112c250fbea6cfc35cdc59f968b266f1f7e6cb0d5b3d21a10b54140de6a8a9b4310cc5ef5e462f23bc3cb9198852861117062bedbbddc141ebb4f4ed06484954d1ece5cf7e660f039c1c9939a872a63137260bcd9bfde161cb94d4cd26686974f1cc85af1e066f63fc7cf959c812c65157466badfb9d8101abf4b4ad4608091491aca58f3e264f43dc5cd979e832e67177664b8ddbbda1218bd4948d66282934b18c456fdec6afa33cbc399908d206919786ab6d3b5d41c16b34746d86c8c9d4516c654ffee68f831c9c19b928f226b1b7a68b4d1b7d61e14b14544da6e8e9f4714c052f9e86efe37cfc79d9489246d1d7c6eb2d7b1d01812b74342dc6888994112c250fbea6cfc35cdc59f968b266f1f7e6cb0d5b3d21a10b54140de6a8a9b4310cc5ef5e462f23bc3cb9198852861117062bedbbddc141ebb4f4ed06484954d1ece5cf7e660f039c1c9939a872a63137260bcd9bfde161cb94d4cd26686974f1cc85af1e066f63fc7cf959c812c65157466badfb9d8101abf4b4ad4608091491aca58f3e264f43dc5cd979e832e67177664b8ddbbda1218bd4948d66282934b18c456fdec6afa33cbc399908d206919786ab6d3b5d41c16b34746d86c8c9d4516c654ffee68f831c9c19b928f226b1b7a68b4d1b7d61e14b14544da6e8e9f4714c052f9e86efe37cfc79d9489246d1d7c6eb2d7b1d01812b74342dc6888994112c250fbea6cfc35cdc59f968b266f1f7e6cb0d5b3d21a10b54140de6a8a9b4310cc5ef5e462f23bc3cb9198852861117061deef6fb2c89c0ea22a513b0b10621bfb5793db6f806d6b9c988ea4b3932118400774227792d0000225120cc05ac343bb4b5d801f97d45a0768f3ec75c95ceba61cb6789c50598ca10084002fd7509299640fd896b45c5165419506e2ce1d94b1bc61fdf2293f96331d8b45880463970886c241a2a496b1bb77e1c4074729bc44714137994eafd336cdd5f704bd11af16689aed162ec12043f193ad739e5c51bfea3008997c13837ec8c08121abde8bea953046f767c344c86da789f0d13e590f78b8d0613283efb5a92cff2b2a3fbab7937aa8340210442be9f9ec6e5594799cd93429286389570dc3cd72ed6cde569dbec480d8cc1a8e917fc40c2be47b3333fec2b66e47b29087947368d7d5946701bb4682e941f62275e9fcf70385da4ff1226a218a1df4d6ac56d24b4d9b79c0b2cc803568711389209e47af3653354943ffe52b8bfc054fd54bb40a3027ec59b78ba071844852bc801096085f80d2fdb9e87c3cd54be83903baa35f398bea291eb600f3367c12cb4a07a9ddfea22d7ea83c18a98ed150b02ef3b0e14c323b5c0d8007038bbfce8f5649793685109a7fe13c9356b8a2e84ec17fcaa1113b815192cb4547e388e515b3230a1d9888a537f16cdfcb9ca75182027fe8dd4366a8eaadca5ddbdcd54e99c4d714c541d45ac3bba6fc8b5a5cb90e6e32eb5e805af8e015afd4631980fe3f57185d109738502a5c8d9cbbdc3684cda4132b988356398a60e82eaf719cd71270357984e5866bf9cb7f0ef8c6f8d6cd1e8c90d409dae6a271b9f97e03da052d3aa6a7a9d2a68990ae880661a11451876a6b2a97b22c93419c998a8d9ea8575b2fd8473320c75edd87e862f81591934841ac6e661a0618ac40b9459c3e8eaf56c382e882c1b4322b6e396ba43f7190445c99f2c63c63617b20390bca8b56efaaf7fd15609083ce052c59f040b9bfa936fe7f58097024050a4358be6d941d04602a2dafe8748c95c50ce4b244224e10a867aad5a869c59216bea02b93bafc5255c49cf3db89d5697a1db2e4076f785020483c44ab123140430a086679a36e16c7a6928e949b197366fd13b312fce96fe83d0ccb34252e8093100acfc394b87306f8a05653030ed4a5c83fcd22d60c7bee3590d5d57679b6d4ecc73ff575e05d0d1be99e7fd048d59d98ef1750129678c3de999528450976daa257f74e2ad56ddb170223974c2fd778f6b201fbaac43a050e78dd399eeb2632dd51ceab4bef550ae655e1f3c7f37bdc25ae388731806cd9362a088a365a654cb26091e414e154f6118485d0ff67bac10bfd723778d7bbf66379d86293efd2f95842d6e7970481027e82919c1f22b300eaaaed32992cf675fbb439ef552a228d1a39637ae21b8edebab2bbbd468c9b2eb3344c17bc9f963a5479ee665eb62e8fc5fb20870649c411263618a123ca07a635d898ab7fbd05a045db8cfbe015dbeee44842985fc27b32b172bc8148f5c203909c8d9b7709f33533c7dd178352477c94aa982637fbd3df2ae4a1c3d324b17c0c504585bfda64cf0b5593e178c403ef78980d60880601b315189bf30d5141f4f600610e13bc122c80bf13ac72d92a7a23bd6d4022d30fb67be567c2e59eac70b8a6228223d1543c053e7c05774384088b6e1c9ea5c0fbce2cd56e71a8ee341eaa2b892909b6b460faa59caa0cf13f7fae3f468e58bdd5cb1843d4b3cf512bbdb77784dd01af33c16b54e77de2fe618ae4d4611b5dff74d3d52f1c6664d9863581956d4719f80a3cb09b319cfbbcb56b7e5cc535192aeba3a8f7369de2b896846aef00e0751b042ae076ff7e16c160411646099f0c783ce4e8679cdc222b131deeec61355cc3feb349ac12fb4d98054070d8c149aebd0faeff00a4261f7c7131cd7ae93ea65e7cf2d4daf591e5d7d374c3a13c65d419ead89e8642f443a1b4e098c066cc4e63429409818db6048e013c73c204c013a86e1bdb897e35d9c848e4c9d1d63316efac42a3f9517fa5f68a4ec7c29f88128f59933676d952108cb3aab5eb6daab66181f0320ccb591764b99a814d1e173799bfe57373c8564686a6ff2071167a13742c312e880356af1ced22286a889db54203661cd2b3c474abd07de8906d0bea07c8423354a68de6338097a9aad9397b5cade280437ac4d0a84092aaf9373c3f3775c09532c7703fea021456a64d27200bd31e3e8b4fc10513eeced50f254fc798953267a54e3bcaaef6ba788a49b0290c05e55fd61efa5b33f5fb205368c5aba73c2bf765b03f82535d2cf03b8854741f3c6e3a67dc3b7c1e98f201e3e7d636a8823e98ed59ea299e1597f2ba51e8ea1491d2cd8b0244ed6c3042a0a28189553b0a1673135eb5c80dec6449d1505863f8791fc87569b67b73ab862e1cdab7cb42c23ad141583508f54c0c49e30493cd5bc838aaecf2e0f1827a541b6c5ef3cde35ba04a12f81c3cc33cbba1a821c9a8547c4338937138461eac993903c1dc34bb35f3d9fdeb8131ce03d3cbf6140b4caabf864121347c65057d439fe5190845c62d211d92fb344eec504c2f794aab66c5b3c1ee2521e1c1e956490ff303f0e2b496fca33790526a6a5a2727789ca13fd8dd5a09da6aa599e200a19b27c4c0b1ae38c26e43d260e819295c5a51f12594a2db8e475eee3ef17c405ad7a5ce578fc64c380701f8ca8fc27b8f259f2832c81b66efa00b071df2512bbb4011202b1811cf78dc286515935ef7f9001b9941d0e741515c67ddc1960bad2492a8228b1ab38a384d601218a67689a4077034e4d5aebad2dac2b9ee1cbb7901c93ea79b87518c3f060314d88d5e68cd30e7a70a07908eb5bea418874e98e9d589ce7d50afeceab01839c2cc7e6dc082a65694d625959585c8d570b4274fbd3c11187b4173f0b4c02d6a46cd6cc27a67e662f0ed8ca6bdfd77b2045699914a9bfebc6d5dd7e77f7aa654e1351719b4f3c24e3b8ad9007e516d2bcea136f4b71ad76ae5e12403bf5d3ac483572ae924141698ece1395a061f0157805197d79dc71bb5bd0b38d5b99e9b1bbe0c4f57fcbc86110b0962745cde3cd27062f97c45e39558606fbe65ed39e0b24f8070e730a08c4527465c3100d697b2a7a5497723999073dad8f3af50b96f49d88a5fbd69d527a5c67b4e47183ab0b07b029df4de12496ff94f93f89247ca34142398a7610b13987637d55f2dbc8370cabe849440c32b3bc5a86df99cb33b4014dd50897444878ae404cb32b34360926af9165e190b201f778e8f7d50d1a3b0b20e540d7a0c3464a75155bf998ba92a2e77837b16a519157a4596b154b63e38de52f1ade4c3450540dd4bfd352e5c90d842e33f8163ced2f007e8285ae1a06c331b072aab4fa725554e46efef7aa9a45ee64e3c6c3aa0462bfdd020f8055971f6a3c82bd3f0a28373a4243505b5f66687579949b9da9b3b6c7e2fa0c3253555974767c81838e98c8cbe4fe1424314a5f61868c9ca3adcddceaf704061836527e8d91ccdfebedf4f7000000000000000000000000001626354301fd210500ef6bc46e3c254718a31f36e1917808a075f2df7e8bbe4acd40584b51b478028bab0184bb685bb286a6db83f052d77d83d8902e23ca8851349bb67c9e294a320d8b11403a64efa94204be52bd2d762e5c3bafe826c74cfe9e32c89f973fb4a14db7f3b08d72a8780177f3fe5d3ee04cd9266723abbb3a9f6100cb533ab9ee28fce459919c5a9f68a2d1843c32f25d418efb5684d6fe6413b58dbe4fa0d9d21b6b83bb328ff0b21e9f36e4c81a7af8980801d85e47e57c0c252d52bebc67a0fa5666a99d3f04b093abfdd5552379ed52982f78ef4f7e5999dd61ad61bb84e5b13b7fbb0a933401aaa0481a88fb3f6bc45e4c4679daf6e9f214d5a5b8d632ef9658cd4ecbc70ef0280ba1e93b4ef9bb8e0e20f115fa19b19948ed8f0e6d0a9b31d3d0728ae05a69826c011f05d8e16d3afb6b43afcfa771fc966b19337bb1b155a67b2ac249dd03ae0a76114f1dc3a1943876cea62b98942338f6be8087d6b5f0d606adb7d4d5823d965086bbc111a83b3e4ce21f750c48428a6eeefee9b246af6ce505e466f09435cb6b86dccb982cb2ea2f82c602dc88d98e17c24c525be8b7e83f1ab2a8a15ea6970683f1c0d21b126d442980ec098fa8724b8bb4b4d824d022d27fdf6025060beec1f0795f79eb29f041e9b26b849b62b34ea46edca9c82bb867867fb499fc00dbf637db82b4d348cfcfb483819538dd593d767d32814c0363dbb052b48025c50c3f4e73681710b8836708621117f5c6471f25809c861aa29f980cdf9951feb694659b707990d34e96c7e6318666e89b1f1c789fdbdb557bfadf7f4df2ec51859d270abdb744bc31ea523287afd851c90ddcb7e3e3bffc210a3a5dc4f4eac16a47a39ad30a65d0b8cf3b8dcf6d8ef92e79893be5f08790533991e933f87629f1744012ad2bef3be4a26792e34d855cad7ec66465e26773732ae0a3151cae3bef486590c04c14f0f4c65a055ed8c2c62600ef6f99d701457a3c2740af4106553be0d0af9b7e4435d2b7e2da3127335d5912e463596085dbeeb2cd6f06194e37f3a131de6721638aef3edc12f87a6145bf693ea32f33d4531e29272cb0bcc8683aa4bab77aa0ab37a0dc8af3028d1d950f11dc90126ab2da1d0fdf4fa04883757c6e86574567e67107a34cb9093208551b08679f4ca40ecd6ca2b31ad458fffee3e1940272e22dde86f4df1ff862c2620208006ae3e8730ae1884ee61b64f8ed87eee7a93b9741d5d06d5d8c8e3365e370f0c26d1afa927f6dd2acd20adb06e11bdc87fec2c988f3c754562f09942972151a448927414f02fd80f7ce91d581cd089d76f10ca3aaf6ee0d007d07ce698619dde60280556151d9e9d46a915f0b7de3976b7266147c5e37a7578cfddbe9dcffce0955298d8341cfeac394a75a5adae730c4bfe2769e12ac855d5fff2275d3bdb269ef580db76547fb4d9230f5bc70c5c38d678a0df195487e228dde6678af9d51790d9f20f1edd58f98073dc42d07285e40ef4fe82173c92dcc7a9d5ac498baaf2bb8d9e098df7bc2ae1f55ad328f8de003d52b4622c7b343e7e029714467bd0c125bf9f24ad68614a9abfac9f2082637e427cb2eba5835a5ab2b5a40528c7a490656581f8c8b852873c60d88a38959b019be0d59b3c92a2bf0cce2fd60e193e2d637032c30de36d311666c821cd43a3ea24ce821d927d46dcf90d307c982cec48e65ece22f992a3b61de8a2ec0827cdb5eef15506d0f2fb2044fd0f0c9a7a6884b865d2de4bea5bb0b19cd61f832efb4f629ced1f074c98992cef856515c066bf178275f0b7fddb26f9ca9402cf91a9748c669c3b18996768e5902ded75ee34b9faada03a6e8b3c46f000000",
  "txid": "497bedbceb2ed8803804f1db83821fb696bbc5c10b6a14076b99ed217745ed82",
  "hash": "b2459fe73c127593210a760622187f3d3d92d8919dea13650201181e160a9270",
  "size": 5085,
  "vsize": 2278,
  "version": 1,
  "locktime": 111,
  "vin": [
    {
      "txid": "839cd91d3f7b2b566fd7b174424d031d42611b1ec9e81af12aecc90a9ac72585",
      "vout": 0,
      "scriptSig": {
        "asm": "",
        "hex": ""
      },
      "txinwitness": [
        "299640fd896b45c5165419506e2ce1d94b1bc61fdf2293f96331d8b45880463970886c241a2a496b1bb77e1c4074729bc44714137994eafd336cdd5f704bd11af16689aed162ec12043f193ad739e5c51bfea3008997c13837ec8c08121abde8bea953046f767c344c86da789f0d13e590f78b8d0613283efb5a92cff2b2a3fbab7937aa8340210442be9f9ec6e5594799cd93429286389570dc3cd72ed6cde569dbec480d8cc1a8e917fc40c2be47b3333fec2b66e47b29087947368d7d5946701bb4682e941f62275e9fcf70385da4ff1226a218a1df4d6ac56d24b4d9b79c0b2cc803568711389209e47af3653354943ffe52b8bfc054fd54bb40a3027ec59b78ba071844852bc801096085f80d2fdb9e87c3cd54be83903baa35f398bea291eb600f3367c12cb4a07a9ddfea22d7ea83c18a98ed150b02ef3b0e14c323b5c0d8007038bbfce8f5649793685109a7fe13c9356b8a2e84ec17fcaa1113b815192cb4547e388e515b3230a1d9888a537f16cdfcb9ca75182027fe8dd4366a8eaadca5ddbdcd54e99c4d714c541d45ac3bba6fc8b5a5cb90e6e32eb5e805af8e015afd4631980fe3f57185d109738502a5c8d9cbbdc3684cda4132b988356398a60e82eaf719cd71270357984e5866bf9cb7f0ef8c6f8d6cd1e8c90d409dae6a271b9f97e03da052d3aa6a7a9d2a68990ae880661a11451876a6b2a97b22c93419c998a8d9ea8575b2fd8473320c75edd87e862f81591934841ac6e661a0618ac40b9459c3e8eaf56c382e882c1b4322b6e396ba43f7190445c99f2c63c63617b20390bca8b56efaaf7fd15609083ce052c59f040b9bfa936fe7f58097024050a4358be6d941d04602a2dafe8748c95c50ce4b244224e10a867aad5a869c59216bea02b93bafc5255c49cf3db89d5697a1db2e4076f785020483c44ab123140430a086679a36e16c7a6928e949b197366fd13b312fce96fe83d0ccb34252e8093100acfc394b87306f8a05653030ed4a5c83fcd22d60c7bee3590d5d57679b6d4ecc73ff575e05d0d1be99e7fd048d59d98ef1750129678c3de999528450976daa257f74e2ad56ddb170223974c2fd778f6b201fbaac43a050e78dd399eeb2632dd51ceab4bef550ae655e1f3c7f37bdc25ae388731806cd9362a088a365a654cb26091e414e154f6118485d0ff67bac10bfd723778d7bbf66379d86293efd2f95842d6e7970481027e82919c1f22b300eaaaed32992cf675fbb439ef552a228d1a39637ae21b8edebab2bbbd468c9b2eb3344c17bc9f963a5479ee665eb62e8fc5fb20870649c411263618a123ca07a635d898ab7fbd05a045db8cfbe015dbeee44842985fc27b32b172bc8148f5c203909c8d9b7709f33533c7dd178352477c94aa982637fbd3df2ae4a1c3d324b17c0c504585bfda64cf0b5593e178c403ef78980d60880601b315189bf30d5141f4f600610e13bc122c80bf13ac72d92a7a23bd6d4022d30fb67be567c2e59eac70b8a6228223d1543c053e7c05774384088b6e1c9ea5c0fbce2cd56e71a8ee341eaa2b892909b6b460faa59caa0cf13f7fae3f468e58bdd5cb1843d4b3cf512bbdb77784dd01af33c16b54e77de2fe618ae4d4611b5dff74d3d52f1c6664d9863581956d4719f80a3cb09b319cfbbcb56b7e5cc535192aeba3a8f7369de2b896846aef00e0751b042ae076ff7e16c160411646099f0c783ce4e8679cdc222b131deeec61355cc3feb349ac12fb4d98054070d8c149aebd0faeff00a4261f7c7131cd7ae93ea65e7cf2d4daf591e5d7d374c3a13c65d419ead89e8642f443a1b4e098c066cc4e63429409818db6048e013c73c204c013a86e1bdb897e35d9c848e4c9d1d63316efac42a3f9517fa5f68a4ec7c29f88128f59933676d952108cb3aab5eb6daab66181f0320ccb591764b99a814d1e173799bfe57373c8564686a6ff2071167a13742c312e880356af1ced22286a889db54203661cd2b3c474abd07de8906d0bea07c8423354a68de6338097a9aad9397b5cade280437ac4d0a84092aaf9373c3f3775c09532c7703fea021456a64d27200bd31e3e8b4fc10513eeced50f254fc798953267a54e3bcaaef6ba788a49b0290c05e55fd61efa5b33f5fb205368c5aba73c2bf765b03f82535d2cf03b8854741f3c6e3a67dc3b7c1e98f201e3e7d636a8823e98ed59ea299e1597f2ba51e8ea1491d2cd8b0244ed6c3042a0a28189553b0a1673135eb5c80dec6449d1505863f8791fc87569b67b73ab862e1cdab7cb42c23ad141583508f54c0c49e30493cd5bc838aaecf2e0f1827a541b6c5ef3cde35ba04a12f81c3cc33cbba1a821c9a8547c4338937138461eac993903c1dc34bb35f3d9fdeb8131ce03d3cbf6140b4caabf864121347c65057d439fe5190845c62d211d92fb344eec504c2f794aab66c5b3c1ee2521e1c1e956490ff303f0e2b496fca33790526a6a5a2727789ca13fd8dd5a09da6aa599e200a19b27c4c0b1ae38c26e43d260e819295c5a51f12594a2db8e475eee3ef17c405ad7a5ce578fc64c380701f8ca8fc27b8f259f2832c81b66efa00b071df2512bbb4011202b1811cf78dc286515935ef7f9001b9941d0e741515c67ddc1960bad2492a8228b1ab38a384d601218a67689a4077034e4d5aebad2dac2b9ee1cbb7901c93ea79b87518c3f060314d88d5e68cd30e7a70a07908eb5bea418874e98e9d589ce7d50afeceab01839c2cc7e6dc082a65694d625959585c8d570b4274fbd3c11187b4173f0b4c02d6a46cd6cc27a67e662f0ed8ca6bdfd77b2045699914a9bfebc6d5dd7e77f7aa654e1351719b4f3c24e3b8ad9007e516d2bcea136f4b71ad76ae5e12403bf5d3ac483572ae924141698ece1395a061f0157805197d79dc71bb5bd0b38d5b99e9b1bbe0c4f57fcbc86110b0962745cde3cd27062f97c45e39558606fbe65ed39e0b24f8070e730a08c4527465c3100d697b2a7a5497723999073dad8f3af50b96f49d88a5fbd69d527a5c67b4e47183ab0b07b029df4de12496ff94f93f89247ca34142398a7610b13987637d55f2dbc8370cabe849440c32b3bc5a86df99cb33b4014dd50897444878ae404cb32b34360926af9165e190b201f778e8f7d50d1a3b0b20e540d7a0c3464a75155bf998ba92a2e77837b16a519157a4596b154b63e38de52f1ade4c3450540dd4bfd352e5c90d842e33f8163ced2f007e8285ae1a06c331b072aab4fa725554e46efef7aa9a45ee64e3c6c3aa0462bfdd020f8055971f6a3c82bd3f0a28373a4243505b5f66687579949b9da9b3b6c7e2fa0c3253555974767c81838e98c8cbe4fe1424314a5f61868c9ca3adcddceaf704061836527e8d91ccdfebedf4f7000000000000000000000000001626354301",
        "00ef6bc46e3c254718a31f36e1917808a075f2df7e8bbe4acd40584b51b478028bab0184bb685bb286a6db83f052d77d83d8902e23ca8851349bb67c9e294a320d8b11403a64efa94204be52bd2d762e5c3bafe826c74cfe9e32c89f973fb4a14db7f3b08d72a8780177f3fe5d3ee04cd9266723abbb3a9f6100cb533ab9ee28fce459919c5a9f68a2d1843c32f25d418efb5684d6fe6413b58dbe4fa0d9d21b6b83bb328ff0b21e9f36e4c81a7af8980801d85e47e57c0c252d52bebc67a0fa5666a99d3f04b093abfdd5552379ed52982f78ef4f7e5999dd61ad61bb84e5b13b7fbb0a933401aaa0481a88fb3f6bc45e4c4679daf6e9f214d5a5b8d632ef9658cd4ecbc70ef0280ba1e93b4ef9bb8e0e20f115fa19b19948ed8f0e6d0a9b31d3d0728ae05a69826c011f05d8e16d3afb6b43afcfa771fc966b19337bb1b155a67b2ac249dd03ae0a76114f1dc3a1943876cea62b98942338f6be8087d6b5f0d606adb7d4d5823d965086bbc111a83b3e4ce21f750c48428a6eeefee9b246af6ce505e466f09435cb6b86dccb982cb2ea2f82c602dc88d98e17c24c525be8b7e83f1ab2a8a15ea6970683f1c0d21b126d442980ec098fa8724b8bb4b4d824d022d27fdf6025060beec1f0795f79eb29f041e9b26b849b62b34ea46edca9c82bb867867fb499fc00dbf637db82b4d348cfcfb483819538dd593d767d32814c0363dbb052b48025c50c3f4e73681710b8836708621117f5c6471f25809c861aa29f980cdf9951feb694659b707990d34e96c7e6318666e89b1f1c789fdbdb557bfadf7f4df2ec51859d270abdb744bc31ea523287afd851c90ddcb7e3e3bffc210a3a5dc4f4eac16a47a39ad30a65d0b8cf3b8dcf6d8ef92e79893be5f08790533991e933f87629f1744012ad2bef3be4a26792e34d855cad7ec66465e26773732ae0a3151cae3bef486590c04c14f0f4c65a055ed8c2c62600ef6f99d701457a3c2740af4106553be0d0af9b7e4435d2b7e2da3127335d5912e463596085dbeeb2cd6f06194e37f3a131de6721638aef3edc12f87a6145bf693ea32f33d4531e29272cb0bcc8683aa4bab77aa0ab37a0dc8af3028d1d950f11dc90126ab2da1d0fdf4fa04883757c6e86574567e67107a34cb9093208551b08679f4ca40ecd6ca2b31ad458fffee3e1940272e22dde86f4df1ff862c2620208006ae3e8730ae1884ee61b64f8ed87eee7a93b9741d5d06d5d8c8e3365e370f0c26d1afa927f6dd2acd20adb06e11bdc87fec2c988f3c754562f09942972151a448927414f02fd80f7ce91d581cd089d76f10ca3aaf6ee0d007d07ce698619dde60280556151d9e9d46a915f0b7de3976b7266147c5e37a7578cfddbe9dcffce0955298d8341cfeac394a75a5adae730c4bfe2769e12ac855d5fff2275d3bdb269ef580db76547fb4d9230f5bc70c5c38d678a0df195487e228dde6678af9d51790d9f20f1edd58f98073dc42d07285e40ef4fe82173c92dcc7a9d5ac498baaf2bb8d9e098df7bc2ae1f55ad328f8de003d52b4622c7b343e7e029714467bd0c125bf9f24ad68614a9abfac9f2082637e427cb2eba5835a5ab2b5a40528c7a490656581f8c8b852873c60d88a38959b019be0d59b3c92a2bf0cce2fd60e193e2d637032c30de36d311666c821cd43a3ea24ce821d927d46dcf90d307c982cec48e65ece22f992a3b61de8a2ec0827cdb5eef15506d0f2fb2044fd0f0c9a7a6884b865d2de4bea5bb0b19cd61f832efb4f629ced1f074c98992cef856515c066bf178275f0b7fddb26f9ca9402cf91a9748c669c3b18996768e5902ded75ee34b9faada03a6e8b3c4"
      ],
      "sequence": 4294967294
    }
  ],
  "vout": [
    {
      "value": 1.0,
      "n": 0,
      "scriptPubKey": {
        "asm": "OP_RETURN 81f65735223d5a9bcccc126c3f7a902c8f90f5384686472e10e2f0c05c146e9e 456fdec6afa33cbc399908d206919786ab6d3b5d41c16b34746d86c8c9d4516c654ffee68f831c9c19b928f226b1b7a68b4d1b7d61e14b14544da6e8e9f4714c052f9e86efe37cfc79d9489246d1d7c6eb2d7b1d01812b74342dc6888994112c250fbea6cfc35cdc59f968b266f1f7e6cb0d5b3d21a10b54140de6a8a9b4310cc5ef5e462f23bc3cb9198852861117062bedbbddc141ebb4f4ed06484954d1ece5cf7e660f039c1c9939a872a63137260bcd9bfde161cb94d4cd26686974f1cc85af1e066f63fc7cf959c812c65157466badfb9d8101abf4b4ad4608091491aca58f3e264f43dc5cd979e832e67177664b8ddbbda1218bd4948d66282934b18c456fdec6afa33cbc399908d206919786ab6d3b5d41c16b34746d86c8c9d4516c654ffee68f831c9c19b928f226b1b7a68b4d1b7d61e14b14544da6e8e9f4714c052f9e86efe37cfc79d9489246d1d7c6eb2d7b1d01812b74342dc6888994112c250fbea6cfc35cdc59f968b266f1f7e6cb0d5b3d21a10b54140de6a8a9b4310cc5ef5e462f23bc3cb9198852861117062bedbbddc141ebb4f4ed06484954d1ece5cf7e660f039c1c9939a872a63137260bcd9bfde161cb94d4cd26686974f1cc85af1e066f63fc7cf959c812c65157466badfb9d8101abf4b4ad4608091491aca58f3e264f43dc5cd979e832e67177664b8ddbbda1218bd4948d66282934b18c456fdec6afa33cbc399908d206919786ab6d3b5d41c16b34746d86c8c9d4516c654ffee68f831c9c19b928f226b1b7a68b4d1b7d61e14b14544da6e8e9f4714c052f9e86efe37cfc79d9489246d1d7c6eb2d7b1d01812b74342dc6888994112c250fbea6cfc35cdc59f968b266f1f7e6cb0d5b3d21a10b54140de6a8a9b4310cc5ef5e462f23bc3cb9198852861117062bedbbddc141ebb4f4ed06484954d1ece5cf7e660f039c1c9939a872a63137260bcd9bfde161cb94d4cd26686974f1cc85af1e066f63fc7cf959c812c65157466badfb9d8101abf4b4ad4608091491aca58f3e264f43dc5cd979e832e67177664b8ddbbda1218bd4948d66282934b18c456fdec6afa33cbc399908d206919786ab6d3b5d41c16b34746d86c8c9d4516c654ffee68f831c9c19b928f226b1b7a68b4d1b7d61e14b14544da6e8e9f4714c052f9e86efe37cfc79d9489246d1d7c6eb2d7b1d01812b74342dc6888994112c250fbea6cfc35cdc59f968b266f1f7e6cb0d5b3d21a10b54140de6a8a9b4310cc5ef5e462f23bc3cb9198852861117062bedbbddc141ebb4f4ed06484954d1ece5cf7e660f039c1c9939a872a63137260bcd9bfde161cb94d4cd26686974f1cc85af1e066f63fc7cf959c812c65157466badfb9d8101abf4b4ad4608091491aca58f3e264f43dc5cd979e832e67177664b8ddbbda1218bd4948d66282934b18c456fdec6afa33cbc399908d206919786ab6d3b5d41c16b34746d86c8c9d4516c654ffee68f831c9c19b928f226b1b7a68b4d1b7d61e14b14544da6e8e9f4714c052f9e86efe37cfc79d9489246d1d7c6eb2d7b1d01812b74342dc6888994112c250fbea6cfc35cdc59f968b266f1f7e6cb0d5b3d21a10b54140de6a8a9b4310cc5ef5e462f23bc3cb9198852861117061deef6fb2c89c0ea22a513b0b10621bfb5793db6f806d6b9c988ea4b39321184",
        "hex": "6a2081f65735223d5a9bcccc126c3f7a902c8f90f5384686472e10e2f0c05c146e9e4db004456fdec6afa33cbc399908d206919786ab6d3b5d41c16b34746d86c8c9d4516c654ffee68f831c9c19b928f226b1b7a68b4d1b7d61e14b14544da6e8e9f4714c052f9e86efe37cfc79d9489246d1d7c6eb2d7b1d01812b74342dc6888994112c250fbea6cfc35cdc59f968b266f1f7e6cb0d5b3d21a10b54140de6a8a9b4310cc5ef5e462f23bc3cb9198852861117062bedbbddc141ebb4f4ed06484954d1ece5cf7e660f039c1c9939a872a63137260bcd9bfde161cb94d4cd26686974f1cc85af1e066f63fc7cf959c812c65157466badfb9d8101abf4b4ad4608091491aca58f3e264f43dc5cd979e832e67177664b8ddbbda1218bd4948d66282934b18c456fdec6afa33cbc399908d206919786ab6d3b5d41c16b34746d86c8c9d4516c654ffee68f831c9c19b928f226b1b7a68b4d1b7d61e14b14544da6e8e9f4714c052f9e86efe37cfc79d9489246d1d7c6eb2d7b1d01812b74342dc6888994112c250fbea6cfc35cdc59f968b266f1f7e6cb0d5b3d21a10b54140de6a8a9b4310cc5ef5e462f23bc3cb9198852861117062bedbbddc141ebb4f4ed06484954d1ece5cf7e660f039c1c9939a872a63137260bcd9bfde161cb94d4cd26686974f1cc85af1e066f63fc7cf959c812c65157466badfb9d8101abf4b4ad4608091491aca58f3e264f43dc5cd979e832e67177664b8ddbbda1218bd4948d66282934b18c456fdec6afa33cbc399908d206919786ab6d3b5d41c16b34746d86c8c9d4516c654ffee68f831c9c19b928f226b1b7a68b4d1b7d61e14b14544da6e8e9f4714c052f9e86efe37cfc79d9489246d1d7c6eb2d7b1d01812b74342dc6888994112c250fbea6cfc35cdc59f968b266f1f7e6cb0d5b3d21a10b54140de6a8a9b4310cc5ef5e462f23bc3cb9198852861117062bedbbddc141ebb4f4ed06484954d1ece5cf7e660f039c1c9939a872a63137260bcd9bfde161cb94d4cd26686974f1cc85af1e066f63fc7cf959c812c65157466badfb9d8101abf4b4ad4608091491aca58f3e264f43dc5cd979e832e67177664b8ddbbda1218bd4948d66282934b18c456fdec6afa33cbc399908d206919786ab6d3b5d41c16b34746d86c8c9d4516c654ffee68f831c9c19b928f226b1b7a68b4d1b7d61e14b14544da6e8e9f4714c052f9e86efe37cfc79d9489246d1d7c6eb2d7b1d01812b74342dc6888994112c250fbea6cfc35cdc59f968b266f1f7e6cb0d5b3d21a10b54140de6a8a9b4310cc5ef5e462f23bc3cb9198852861117062bedbbddc141ebb4f4ed06484954d1ece5cf7e660f039c1c9939a872a63137260bcd9bfde161cb94d4cd26686974f1cc85af1e066f63fc7cf959c812c65157466badfb9d8101abf4b4ad4608091491aca58f3e264f43dc5cd979e832e67177664b8ddbbda1218bd4948d66282934b18c456fdec6afa33cbc399908d206919786ab6d3b5d41c16b34746d86c8c9d4516c654ffee68f831c9c19b928f226b1b7a68b4d1b7d61e14b14544da6e8e9f4714c052f9e86efe37cfc79d9489246d1d7c6eb2d7b1d01812b74342dc6888994112c250fbea6cfc35cdc59f968b266f1f7e6cb0d5b3d21a10b54140de6a8a9b4310cc5ef5e462f23bc3cb9198852861117061deef6fb2c89c0ea22a513b0b10621bfb5793db6f806d6b9c988ea4b39321184",
        "type": "nulldata"
      }
    },
    {
      "value": 499983.7296,
      "n": 1,
      "scriptPubKey": {
        "asm": "1 cc05ac343bb4b5d801f97d45a0768f3ec75c95ceba61cb6789c50598ca100840",
        "hex": "5120cc05ac343bb4b5d801f97d45a0768f3ec75c95ceba61cb6789c50598ca100840",
        "reqSigs": 1,
        "type": "witness_v1_scripthash",
        "addresses": [
          "3QJmnh"
        ]
      }
    }
  ],
  "blockhash": "a1887b0a0b2991e806ccea2240d48d15dc99191e60c31f7623b06398d7a984df",
  "confirmations": 1,
  "time": 1764178092,
  "blocktime": 1764178092
}