{
  "hex": "01000000000101f6e42e405ee75e62616ecb4b1f2d0e51ed1aa0e27cff718982466785adb9ac8b0100000000feffffff0230cbee69792d000022512021326989455fdfe3369cc7398fea6c86161bde50aaff1761334bff4e9fc9aa9f00e1f50500000000fdd5046a20c7ca718df01343f64ad5f5fc7683d38df51f8474d7404870908e903616695bf24db0042e2a790ab0842d1ed711f7d860c793fe82b33faf574a32f83d2d9fecbc7a26580e0a592a90a40d3ef731d7f840e7b3dea2931f8f776a12d81d0dbfcc9c5a06786e6a394af0c46d5e9751b7982087d3bec2f37fef170a72b87d6ddfacfc3a66184e4a196ad0e44d7eb77197b800a7f39ee2d35fcf372a52985d4dff8cdc1a4638aeaaf98a3004ad9e57917758e047137e0233bf2fd7cab278bdad1f6c3cfaa6d88e8ad9aa10248dbe77b15778c067335e22139f0ff7ea92589d8d3f4c1cda86f8eeeab9ca7044edde17d13718a007533e4273ff6f978af238fded5f2c7cbae698ceca99ea5064cdfe37f117388027731e6253df4fb7aad218ddcd7f0c5c9ac6b82e2a790ab0842d1ed711f7d860c793fe82b33faf574a32f83d2d9fecbc7a26580e0a592a90a40d3ef731d7f840e7b3dea2931f8f776a12d81d0dbfcc9c5a06786e6a394af0c46d5e9751b7982087d3bec2f37fef170a72b87d6ddfacfc3a66184e4a196ad0e44d7eb77197b800a7f39ee2d35fcf372a52985d4dff8cdc1a4638aeaaf98a3004ad9e57917758e047137e0233bf2fd7cab278bdad1f6c3cfaa6d88e8ad9aa10248dbe77b15778c067335e22139f0ff7ea92589d8d3f4c1cda86f8eeeab9ca7044edde17d13718a007533e4273ff6f978af238fded5f2c7cbae698ceca99ea5064cdfe37f117388027731e6253df4fb7aad218ddcd7f0c5c9ac6b82e2a790ab0842d1ed711f7d860c793fe82b33faf574a32f83d2d9fecbc7a26580e0a592a90a40d3ef731d7f840e7b3dea2931f8f776a12d81d0dbfcc9c5a06786e6a394af0c46d5e9751b7982087d3bec2f37fef170a72b87d6ddfacfc3a66184e4a196ad0e44d7eb77197b800a7f39ee2d35fcf372a52985d4dff8cdc1a4638aeaaf98a3004ad9e57917758e047137e0233bf2fd7cab278bdad1f6c3cfaa6d88e8ad9aa10248dbe77b15778c067335e22139f0ff7ea92589d8d3f4c1cda86f8eeeab9ca7044edde17d13718a007533e4273ff6f978af238fded5f2c7cbae698ceca99ea5064cdfe37f117388027731e6253df4fb7aad218ddcd7f0c5c9ac6b82e2a790ab0842d1ed711f7d860c793fe82b33faf574a32f83d2d9fecbc7a26580e0a592a90a40d3ef731d7f840e7b3dea2931f8f776a12d81d0dbfcc9c5a06786e6a394af0c46d5e9751b7982087d3bec2f37fef170a72b87d6ddfacfc3a66184e4a196ad0e44d7eb77197b800a7f39ee2d35fcf372a52985d4dff8cdc1a4638aeaaf98a3004ad9e57917758e047137e0233bf2fd7cab278bdad1f6c3cfaa6d88e8ad9aa10248dbe77b15778c067335e22139f0ff7ea92589d8d3f4c1cda86f8eeeab9ca7044edde17d13718a007533e4273ff6f978af238fded5f2c7cbae698ceca99ea5064cdfe37f117388027731e6253df4fb7aad218ddcd7f0c5c9ac6b82e2a790ab0842d1ed711f7d860c793fe82b33faf574a32f83d2d9fecbc7a26580e0a592a90a40d3ef731d7f840e7b3dea2931f8f776a12d81d0dbfcc9c5a06786e6a394af0c46d5e9751b7982087d3bec2f37fef170a72b87d6ddfacfc3a66184e4a196ad0e44d7eb77197b800a7f39ee2d35fcf372a52985d4dff8cdc1a4638aeaaf98a3004ad9e57917758e047137ed571f49a96401b971fc54874fa95ef5d34deae80cada730ea6e2bc9a4882a31d02fd750940025d988360f894927d2aa371256d1907cfba9aeadf475ca2d9c9ce54c6ffa134464454f46f42add94058b7389d66aa9db96e545ab1cf85868d95f378e8d1868156bfb01063b2b0252964aef8e8e5fb4e0f36f76a46f3b7a7f2242d6637cbabaf971e53be8c679b9880b5b04738381a97b6184b67b7ae3cc9d57b4b1b308fdb4e2c88ccfaf0ba4e044bfba8c1e4c3ed3638fe6c4bc68e4c5992bb787c1dc81e6fa6f9df35d0971a906c03ccd08995fd9257d8b14ef95dd812470e196dc9a0e5a4daf7b70341631d1f1cb050d89964a959332ac81096eb321a82d7ad80605e48cd1ba243eb969f3cc0433f6e4e10e5404b2719a01eed654c5b1aed775b845865456560527445f592efd39920bd283338f4b81411b587207bd54d04b576da0b2c7991fe1356f8bb9657a32ffa4e12e5f95dd92104e5dded77eb49437464c68f5b441af7501f5b01f571bc71d181df8ad720268c34ae25bc1f10a93831d1dfb6f29ce5e69351bb08bf0ab3f636d82147290ec9396ed75b379f1c203092fef60a0f3b78cd26cdc4c0e2df100994fe625b0f5012eddd63c376a3368df76d3467d68c8214ccd9e54bf86824c4c83b5dd53ed85fba07bdcf0dea9c654200a7451887c1d25e56c3eb6f05cdb82f47d845d780785cc6cc858487f1b9aed1be364ed13ea55054694a6bf1394f5486cdee5ceb24089828f59bbe1072a00b67f868111dc0098ab5813270ea2d6e961744c8548e2d9edbdd382d83187b9e393d90e59546554de2eae81df75ef591fcc6864113c18bca2960519cd9a327248a6d152c8d62b6c58906fd503093b38a5ceb8d2ed660622987137e008486773efb0d7b189cf3dc646bc773f9a394106f242a38e21430594a54a47d7d642bf7fb6d2d29fe13113d054828bc46e9cc614543153dbbc982c8e10c4727ecede13405c3d804a8d019987b23c0be0b26c806eb2b8e697b6deb6bc09bfef36d2f85694fa8cb3dcb4732bad9681a3f796294fa32eefecbb4ad3de0d2cf560e3f8adb067f7dc8716ed2667fc5b8c2bd14206b018a1828e4463e6ec02718873337e7668f447279a3b1a43801a407ed8d8c68d52f44c5dbaf7daccfacd4b24fb781bbf4e67c834216d296b659f6cee754b013c7a346768a04cc09d09a7922f581a26b8620863da47d7234ce8ac480d3e1f7ecc385f0df23eb791a8c24349010ef99e57510a53ab2f9fe43fe0e57c36cbecbae5bc519c1f746c83c6eaa35c5fe3ba107168a363d17e800c5023e5994d47ccc9f111c9e481d70dfd4a4e84751cec1f7f14095a6132af66fc0bddfe60d81f13ef993f5084a1f46bf737bb2986dda53c3ed667a22663edded0f83c9d55ef4e92db4b77288a4c20a055388fa9696fae80420624f740cc70aff6faef316bf7805c03a5ccbc7e656f513f62307be71f55584e407842e98046153153f8740cfd2e34cd5a330a5ed26c12505ac247b3827eb148a786c0f797be84b08c15bc2227f12d82696f55d132245908df64f20abf815be0d173b6e137aed348753ed58ff23b495b4f428d8eb88021ead08bb3eaac7b4303a1f0de936e6e83fa10fa37238ceab770ff64e06686293f4aecbdca47133e34e15ba67493639618899ce02708c8130cefeae3bc5e35714a875b1d183ba2e7c054c85d8c72ff8e5234348f0d9a8d89983cefec8918e1181a76f2457e18f4342fc5d38bb7fefcd60a3537debfe5e5d059a388a8b655770d547902197ba8da4446edbfa60ac204dd553ea4ce483a12085daffa8e2888bcb0d9c9b88e697c691164f28ab6548adaa0e615110b728d3e92ca6060a1d476b82604685d3818833d6fd573be60ebac54d184f17c066be7366a97331d1fd50efd7b35196935a833ce146a1a9901bd55e6ea482cb0674b4aada609b1338a586849ef69c788beb5b3b0f684069b8db7a54ce2b29b4eab8f3edf94c697324ebe808d4e4395b97f948e082fbf42bebaf0b3a9a2f2bf66abb0c3a11c6253f2734b7c4d2f3324f9cfb34093f4389113785fa0de1e72c00eef3e95815dbe4bf2573782c753d08c02ccc0ae66f43d27d136fd6e895906b2de75ad2fbd49ddc85bf021289c4df395f7525eb30c45b2c1213aee40fc68e1f7ae1d7e5da9301364890862a577466b758b7782ca1b099b12da76570f83200b816d248b3dcc2dd18f694c8b6e3c157d8da7bd7c52e44dd487caa20e891ceb0fa020bf4f4e6e5bbe4a0fb36027cedc7e096f7e385a1c59ae6cccd924d420455da222fb62cc22c06fb7a997c2bf090febf2df57cecf06932fdba5a0e5bad6d76533323189d408e6aef42bb7a5fd85c62599ed5d5f997b8eef3763c57d75ebb560e47038f04d727d4e5f7bee0c97e96c3169244e7840109820eb4a1abcea446e63dcb8b79be89f864e9d27193319cc5376c5aad73588e5d0925715fd7c3ab646ef0a1f6b08f3139d44e08de070964233e532c19bab77e89261ac622768bdc829338dfa35793abf6b929a666cb8ed9542efd3317b1f987d2d47e0b1b8cc8aba45ba08bbcb80ee704771a386396f7bbbd9c01f81731749abc12b25526021691ca8a1cc887fb5a3cdf65926162b2c32634081493b3f18d40ac2afffb4d1719b7be6e0a4ac95c91ff476bca40e61a8a84e5a775d6584b2ed604b3bb50d4f3b9ef048f8375c7075871a5f16a321ce26db8945289fa11ce6454f157e0fc33b36144c5bc8f136eb9279e3892a9593aabc0c97883798b3b068fa1ed661ba3f58e803b0ca813af9ee8ea2d811dd41a293ac5c2b68c43d4f14a8abba8607c99529686b2ab75abfb8dfec27e6144c902a5e94b3f117a7fadb7a2270c4eef93ec8a5c313e71489cf5756d91da82c3e977ae74473950a4b4ddffc3247bf60100e89ec764136106152adaedce558c0019349ab6dbee2a04d05ccbe6a49e890e74723709909ef0ee0881742c5a0f676f0aff9460aa74ce59f85ab7e669df946aade6b132f20c1182b7ec907274655d5a5a6db87e5a82e0e6054e50f92368c8744f311883f95d162f859f3cc7f6dbd72185fa46449c0dff8754f4ee001d6a95dc3651b125791adde27447565a2b5774b2e42c4b5b5323ec8d976a8dd94c809454a94ea4a488c4c492d98603c825496451c5190e27743f82a67c8ffc4f61ae8dbc9ec7b81fb767633ac510633f7aecf9ae6674905eaee07ca07b701f01ee2d0efaa33233778780efa7887d3af43f48c52e20587d520e617dfb4087ecedc1a7a4cf19214758eb1b3acdbfa5138d5e2fc03f5f7aee58509d3daf5aeb74d9dd401bef304cee47eb5c48de8ccd22a63a1b253642626a6b748feb0f1b1d2050545e60638591adc9ccdaeefc02041c3c465e64657785a6b0bcbfd1e30008292e3e4f7678d3e3e500000000000000000000000000000000000000000000000000000a1b2b3601fd210500ba9d8a284f3ff082f05376e2051569af6f63a7aa6f7b241f5406bdcf6986ab3e44c091943067d73d45d820c6e5aa9c631534840457544b88176f4999940f3517a9c6a5981a142f4cf139dafe33c0a4512c7726ce9a2efe9f81f5538dacf48e6e06f4eefd5cc59c64f3087ba7e0c6385ea21946ecc4c046b0bddc6e6d3f15f32e8a2c04988df5ab03d6d24f5ae724f918519ba1d855c4bc0e8b1f262052ea177c97283af2aa5b62642d6ca2d29ec7dca7dd8d78d4e915282fd5290d4506be3f57e14c46baf75d109e3badbb880317ecf7e42abe559e8ac016b5359ece9d4326a34fb472d64bc3da0a02fc26db9649bfbba67e10d42e2d9d67711820f6f7f9e316d7e1c714bce3238f8ffbba4cbfbb313e0c7b256b004a96268cd55db47af226d0af9bf796c45451f24d81234e3b3316b68e062ef03ce1b1522cbec3f454795a06f3a8b28cc10cdec747ab6237bc41308bfd76d625b8817690996bf187cf1c6a6538edc21d14c593ec73e2112bc18ffe2b4b045bae5014b52a8a806ed0f05383f0fbd02295042b0dc8c0096a03423b310dd4041cc1a67a32a9df80f0ee8436041b88b1756e2ba316f8295e8e6a0d654e431868f8c869f0a79495ca9551a53245a0a0b64d0ffd36257aba02b1801c951e5dd430158ad6cf842178b3ec372a86cccb5a794188e22362704b65617c6852c5f79a441d29a2743d5af9a7e8656574e9b0a305aafb2755dc1727c889a144a1ebafc0158a6c23f9e33e289744b49a2f4f0a35027cf759750e28a36f1d8814be5fcab25d9fa8e9c0df5da10f3b563939768799ae329671933137dcfdcad26978bfa5da9c4330f8f9caeb282368dbd4285fbd61d868d3f494032c90a8140d7a6d299481bf05908ef11725c7ccd3bf22c8a00402c7fb8f874907ca9645111c6e2bcf4e80e178800cd7720cbeecb97b99976a051a0b28530585fb3e7a9885b674873dbb10d63ded192aef0050bf939c23b220eb636a6b2bb8a4b928ec16099a59684c69565359a8d0ebbe47c999d49912e64c5cdb22aacab397324bec8eb66eedd6cdbaeff7e6da2c76bdf299269b81efd22cf6c0fc787b11b736d972b55694ce3f35a4f827a644d93e0d3b005151afd0487724777f303c4a5fd47507f66c47b2ac3601850ee0858e5060c3b8c06feb14e7a902005231ed19a071109b27e143ddfad5a3e32e35a00cb6ddc65d4059d7d350e2d921e21048eaab9bc67157b5903b6cae08d43649dce30802a4cda773173a5ed9c11e8f8b2f9833fec3ffa8695335bc53e8fd1f2e11be112a2530572c4ca55913afb0b20f7fd9901702e2c1ea1ffe12b42312ba7604ad7e663aacd209878b419eb0665953ca8bfb49645a9c8ee163b39b907adedbb03443898e6eba027ff0524e518e854dbba5a864392bce7cf21693f05a5c18551b9060c5adb4cda45461a7d1e143a78118dc0027816ea822faf7074a63bacd4f3231da295b6c4aa6e54d1d4da17eb69e532ec15393335b07a87471a872a20740a4c3e46aa0ff297f4d90b21c672b3d3c7226521949c962087ddf6a4a209d890338fb920358c98e246f6dc72f662bd437b082e21e71e4ac8099039ea0931bebf06872addda2d54558ba266901e08d92551207f32e68b36d92c5be0725de03e9f1cabd0ac6ca5cc9c7cf33d2e3c419bd407e19d35aff2afeba1cdab03d120f4344c7537caf5024d61fa28a3f073f0655dbd46c4fd82bb1b51c1795cdcc57fceb06a67a634d85d21b28a6d3c3aefd8b23bdc075d0fbb38665100f4ad069668b8bec7d3e3d93d509d6a5cbcb0de2adc3dd0a8a0b7a89b85c5ad83394d7cd33806e016ff9186a598513a0a56d4642bf67000000",
  "txid": "4e95580267200ad6822d08c0a95a692707f04920876331609b561044438b0c70",
  "hash": "49d23fc31210dd628452dc4a181685a05be8f3f41f6793e5f538dff9511689b6",
  "size": 5085,
  "vsize": 2278,
  "version": 1,
  "locktime": 103,
  "vin": [
    {
      "txid": "8bacb9ad856746828971ff7ce2a01aed510e2d1f4bcb6e61625ee75e402ee4f6",
      "vout": 1,
      "scriptSig": {
        "asm": "",
        "hex": ""
      },
      "txinwitness": [
        "40025d988360f894927d2aa371256d1907cfba9aeadf475ca2d9c9ce54c6ffa134464454f46f42add94058b7389d66aa9db96e545ab1cf85868d95f378e8d1868156bfb01063b2b0252964aef8e8e5fb4e0f36f76a46f3b7a7f2242d6637cbabaf971e53be8c679b9880b5b04738381a97b6184b67b7ae3cc9d57b4b1b308fdb4e2c88ccfaf0ba4e044bfba8c1e4c3ed3638fe6c4bc68e4c5992bb787c1dc81e6fa6f9df35d0971a906c03ccd08995fd9257d8b14ef95dd812470e196dc9a0e5a4daf7b70341631d1f1cb050d89964a959332ac81096eb321a82d7ad80605e48cd1ba243eb969f3cc0433f6e4e10e5404b2719a01eed654c5b1aed775b845865456560527445f592efd39920bd283338f4b81411b587207bd54d04b576da0b2c7991fe1356f8bb9657a32ffa4e12e5f95dd92104e5dded77eb49437464c68f5b441af7501f5b01f571bc71d181df8ad720268c34ae25bc1f10a93831d1dfb6f29ce5e69351bb08bf0ab3f636d82147290ec9396ed75b379f1c203092fef60a0f3b78cd26cdc4c0e2df100994fe625b0f5012eddd63c376a3368df76d3467d68c8214ccd9e54bf86824c4c83b5dd53ed85fba07bdcf0dea9c654200a7451887c1d25e56c3eb6f05cdb82f47d845d780785cc6cc858487f1b9aed1be364ed13ea55054694a6bf1394f5486cdee5ceb24089828f59bbe1072a00b67f868111dc0098ab5813270ea2d6e961744c8548e2d9edbdd382d83187b9e393d90e59546554de2eae81df75ef591fcc6864113c18bca2960519cd9a327248a6d152c8d62b6c58906fd503093b38a5ceb8d2ed660622987137e008486773efb0d7b189cf3dc646bc773f9a394106f242a38e21430594a54a47d7d642bf7fb6d2d29fe13113d054828bc46e9cc614543153dbbc982c8e10c4727ecede13405c3d804a8d019987b23c0be0b26c806eb2b8e697b6deb6bc09bfef36d2f85694fa8cb3dcb4732bad9681a3f796294fa32eefecbb4ad3de0d2cf560e3f8adb067f7dc8716ed2667fc5b8c2bd14206b018a1828e4463e6ec02718873337e7668f447279a3b1a43801a407ed8d8c68d52f44c5dbaf7daccfacd4b24fb781bbf4e67c834216d296b659f6cee754b013c7a346768a04cc09d09a7922f581a26b8620863da47d7234ce8ac480d3e1f7ecc385f0df23eb791a8c24349010ef99e57510a53ab2f9fe43fe0e57c36cbecbae5bc519c1f746c83c6eaa35c5fe3ba107168a363d17e800c5023e5994d47ccc9f111c9e481d70dfd4a4e84751cec1f7f14095a6132af66fc0bddfe60d81f13ef993f5084a1f46bf737bb2986dda53c3ed667a22663edded0f83c9d55ef4e92db4b77288a4c20a055388fa9696fae80420624f740cc70aff6faef316bf7805c03a5ccbc7e656f513f62307be71f55584e407842e98046153153f8740cfd2e34cd5a330a5ed26c12505ac247b3827eb148a786c0f797be84b08c15bc2227f12d82696f55d132245908df64f20abf815be0d173b6e137aed348753ed58ff23b495b4f428d8eb88021ead08bb3eaac7b4303a1f0de936e6e83fa10fa37238ceab770ff64e06686293f4aecbdca47133e34e15ba67493639618899ce02708c8130cefeae3bc5e35714a875b1d183ba2e7c054c85d8c72ff8e5234348f0d9a8d89983cefec8918e1181a76f2457e18f4342fc5d38bb7fefcd60a3537debfe5e5d059a388a8b655770d547902197ba8da4446edbfa60ac204dd553ea4ce483a12085daffa8e2888bcb0d9c9b88e697c691164f28ab6548adaa0e615110b728d3e92ca6060a1d476b82604685d3818833d6fd573be60ebac54d184f17c066be7366a97331d1fd50efd7b35196935a833ce146a1a9901bd55e6ea482cb0674b4aada609b1338a586849ef69c788beb5b3b0f684069b8db7a54ce2b29b4eab8f3edf94c697324ebe808d4e4395b97f948e082fbf42bebaf0b3a9a2f2bf66abb0c3a11c6253f2734b7c4d2f3324f9cfb34093f4389113785fa0de1e72c00eef3e95815dbe4bf2573782c753d08c02ccc0ae66f43d27d136fd6e895906b2de75ad2fbd49ddc85bf021289c4df395f7525eb30c45b2c1213aee40fc68e1f7ae1d7e5da9301364890862a577466b758b7782ca1b099b12da76570f83200b816d248b3dcc2dd18f694c8b6e3c157d8da7bd7c52e44dd487caa20e891ceb0fa020bf4f4e6e5bbe4a0fb36027cedc7e096f7e385a1c59ae6cccd924d420455da222fb62cc22c06fb7a997c2bf090febf2df57cecf06932fdba5a0e5bad6d76533323189d408e6aef42bb7a5fd85c62599ed5d5f997b8eef3763c57d75ebb560e47038f04d727d4e5f7bee0c97e96c3169244e7840109820eb4a1abcea446e63dcb8b79be89f864e9d27193319cc5376c5aad73588e5d0925715fd7c3ab646ef0a1f6b08f3139d44e08de070964233e532c19bab77e89261ac622768bdc829338dfa35793abf6b929a666cb8ed9542efd3317b1f987d2d47e0b1b8cc8aba45ba08bbcb80ee704771a386396f7bbbd9c01f81731749abc12b25526021691ca8a1cc887fb5a3cdf65926162b2c32634081493b3f18d40ac2afffb4d1719b7be6e0a4ac95c91ff476bca40e61a8a84e5a775d6584b2ed604b3bb50d4f3b9ef048f8375c7075871a5f16a321ce26db8945289fa11ce6454f157e0fc33b36144c5bc8f136eb9279e3892a9593aabc0c97883798b3b068fa1ed661ba3f58e803b0ca813af9ee8ea2d811dd41a293ac5c2b68c43d4f14a8abba8607c99529686b2ab75abfb8dfec27e6144c902a5e94b3f117a7fadb7a2270c4eef93ec8a5c313e71489cf5756d91da82c3e977ae74473950a4b4ddffc3247bf60100e89ec764136106152adaedce558c0019349ab6dbee2a04d05ccbe6a49e890e74723709909ef0ee0881742c5a0f676f0aff9460aa74ce59f85ab7e669df946aade6b132f20c1182b7ec907274655d5a5a6db87e5a82e0e6054e50f92368c8744f311883f95d162f859f3cc7f6dbd72185fa46449c0dff8754f4ee001d6a95dc3651b125791adde27447565a2b5774b2e42c4b5b5323ec8d976a8dd94c809454a94ea4a488c4c492d98603c825496451c5190e27743f82a67c8ffc4f61ae8dbc9ec7b81fb767633ac510633f7aecf9ae6674905eaee07ca07b701f01ee2d0efaa33233778780efa7887d3af43f48c52e20587d520e617dfb4087ecedc1a7a4cf19214758eb1b3acdbfa5138d5e2fc03f5f7aee58509d3daf5aeb74d9dd401bef304cee47eb5c48de8ccd22a63a1b253642626a6b748feb0f1b1d2050545e60638591adc9ccdaeefc02041c3c465e64657785a6b0bcbfd1e30008292e3e4f7678d3e3e500000000000000000000000000000000000000000000000000000a1b2b3601",
        "00ba9d8a284f3ff082f05376e2051569af6f63a7aa6f7b241f5406bdcf6986ab3e44c091943067d73d45d820c6e5aa9c631534840457544b88176f4999940f3517a9c6a5981a142f4cf139dafe33c0a4512c7726ce9a2efe9f81f5538dacf48e6e06f4eefd5cc59c64f3087ba7e0c6385ea21946ecc4c046b0bddc6e6d3f15f32e8a2c04988df5ab03d6d24f5ae724f918519ba1d855c4bc0e8b1f262052ea177c97283af2aa5b62642d6ca2d29ec7dca7dd8d78d4e915282fd5290d4506be3f57e14c46baf75d109e3badbb880317ecf7e42abe559e8ac016b5359ece9d4326a34fb472d64bc3da0a02fc26db9649bfbba67e10d42e2d9d67711820f6f7f9e316d7e1c714bce3238f8ffbba4cbfbb313e0c7b256b004a96268cd55db47af226d0af9bf796c45451f24d81234e3b3316b68e062ef03ce1b1522cbec3f454795a06f3a8b28cc10cdec747ab6237bc41308bfd76d625b8817690996bf187cf1c6a6538edc21d14c593ec73e2112bc18ffe2b4b045bae5014b52a8a806ed0f05383f0fbd02295042b0dc8c0096a03423b310dd4041cc1a67a32a9df80f0ee8436041b88b1756e2ba316f8295e8e6a0d654e431868f8c869f0a79495ca9551a53245a0a0b64d0ffd36257aba02b1801c951e5dd430158ad6cf842178b3ec372a86cccb5a794188e22362704b65617c6852c5f79a441d29a2743d5af9a7e8656574e9b0a305aafb2755dc1727c889a144a1ebafc0158a6c23f9e33e289744b49a2f4f0a35027cf759750e28a36f1d8814be5fcab25d9fa8e9c0df5da10f3b563939768799ae329671933137dcfdcad26978bfa5da9c4330f8f9caeb282368dbd4285fbd61d868d3f494032c90a8140d7a6d299481bf05908ef11725c7ccd3bf22c8a00402c7fb8f874907ca9645111c6e2bcf4e80e178800cd7720cbeecb97b99976a051a0b28530585fb3e7a9885b674873dbb10d63ded192aef0050bf939c23b220eb636a6b2bb8a4b928ec16099a59684c69565359a8d0ebbe47c999d49912e64c5cdb22aacab397324bec8eb66eedd6cdbaeff7e6da2c76bdf299269b81efd22cf6c0fc787b11b736d972b55694ce3f35a4f827a644d93e0d3b005151afd0487724777f303c4a5fd47507f66c47b2ac3601850ee0858e5060c3b8c06feb14e7a902005231ed19a071109b27e143ddfad5a3e32e35a00cb6ddc65d4059d7d350e2d921e21048eaab9bc67157b5903b6cae08d43649dce30802a4cda773173a5ed9c11e8f8b2f9833fec3ffa8695335bc53e8fd1f2e11be112a2530572c4ca55913afb0b20f7fd9901702e2c1ea1ffe12b42312ba7604ad7e663aacd209878b419eb0665953ca8bfb49645a9c8ee163b39b907adedbb03443898e6eba027ff0524e518e854dbba5a864392bce7cf21693f05a5c18551b9060c5adb4cda45461a7d1e143a78118dc0027816ea822faf7074a63bacd4f3231da295b6c4aa6e54d1d4da17eb69e532ec15393335b07a87471a872a20740a4c3e46aa0ff297f4d90b21c672b3d3c7226521949c962087ddf6a4a209d890338fb920358c98e246f6dc72f662bd437b082e21e71e4ac8099039ea0931bebf06872addda2d54558ba266901e08d92551207f32e68b36d92c5be0725de03e9f1cabd0ac6ca5cc9c7cf33d2e3c419bd407e19d35aff2afeba1cdab03d120f4344c7537caf5024d61fa28a3f073f0655dbd46c4fd82bb1b51c1795cdcc57fceb06a67a634d85d21b28a6d3c3aefd8b23bdc075d0fbb38665100f4ad069668b8bec7d3e3d93d509d6a5cbcb0de2adc3dd0a8a0b7a89b85c5ad83394d7cd33806e016ff9186a598513a0a56d4642bf"
      ],
      "sequence": 4294967294
    }
  ],
  "vout": [
    {
      "value": 499994.9155,
      "n": 0,
      "scriptPubKey": {
        "asm": "1 21326989455fdfe3369cc7398fea6c86161bde50aaff1761334bff4e9fc9aa9f",
        "hex": "512021326989455fdfe3369cc7398fea6c86161bde50aaff1761334bff4e9fc9aa9f",
        "reqSigs": 1,
        "type": "witness_v1_scripthash",
        "addresses": [
          "3QJmnh"
        ]
      }
    },
    {
      "value": 1.0,
      "n": 1,
      "scriptPubKey": {
        "asm": "OP_RETURN c7ca718df01343f64ad5f5fc7683d38df51f8474d7404870908e903616695bf2 2e2a790ab0842d1ed711f7d860c793fe82b33faf574a32f83d2d9fecbc7a26580e0a592a90a40d3ef731d7f840e7b3dea2931f8f776a12d81d0dbfcc9c5a06786e6a394af0c46d5e9751b7982087d3bec2f37fef170a72b87d6ddfacfc3a66184e4a196ad0e44d7eb77197b800a7f39ee2d35fcf372a52985d4dff8cdc1a4638aeaaf98a3004ad9e57917758e047137e0233bf2fd7cab278bdad1f6c3cfaa6d88e8ad9aa10248dbe77b15778c067335e22139f0ff7ea92589d8d3f4c1cda86f8eeeab9ca7044edde17d13718a007533e4273ff6f978af238fded5f2c7cbae698ceca99ea5064cdfe37f117388027731e6253df4fb7aad218ddcd7f0c5c9ac6b82e2a790ab0842d1ed711f7d860c793fe82b33faf574a32f83d2d9fecbc7a26580e0a592a90a40d3ef731d7f840e7b3dea2931f8f776a12d81d0dbfcc9c5a06786e6a394af0c46d5e9751b7982087d3bec2f37fef170a72b87d6ddfacfc3a66184e4a196ad0e44d7eb77197b800a7f39ee2d35fcf372a52985d4dff8cdc1a4638aeaaf98a3004ad9e57917758e047137e0233bf2fd7cab278bdad1f6c3cfaa6d88e8ad9aa10248dbe77b15778c067335e22139f0ff7ea92589d8d3f4c1cda86f8eeeab9ca7044edde17d13718a007533e4273ff6f978af238fded5f2c7cbae698ceca99ea5064cdfe37f117388027731e6253df4fb7aad218ddcd7f0c5c9ac6b82e2a790ab0842d1ed711f7d860c793fe82b33faf574a32f83d2d9fecbc7a26580e0a592a90a40d3ef731d7f840e7b3dea2931f8f776a12d81d0dbfcc9c5a06786e6a394af0c46d5e9751b7982087d3bec2f37fef170a72b87d6ddfacfc3a66184e4a196ad0e44d7eb77197b800a7f39ee2d35fcf372a52985d4dff8cdc1a4638aeaaf98a3004ad9e57917758e047137e0233bf2fd7cab278bdad1f6c3cfaa6d88e8ad9aa10248dbe77b15778c067335e22139f0ff7ea92589d8d3f4c1cda86f8eeeab9ca7044edde17d13718a007533e4273ff6f978af238fded5f2c7cbae698ceca99ea5064cdfe37f117388027731e6253df4fb7aad218ddcd7f0c5c9ac6b82e2a790ab0842d1ed711f7d860c793fe82b33faf574a32f83d2d9fecbc7a26580e0a592a90a40d3ef731d7f840e7b3dea2931f8f776a12d81d0dbfcc9c5a06786e6a394af0c46d5e9751b7982087d3bec2f37fef170a72b87d6ddfacfc3a66184e4a196ad0e44d7eb77197b800a7f39ee2d35fcf372a52985d4dff8cdc1a4638aeaaf98a3004ad9e57917758e047137e0233bf2fd7cab278bdad1f6c3cfaa6d88e8ad9aa10248dbe77b15778c067335e22139f0ff7ea92589d8d3f4c1cda86f8eeeab9ca7044edde17d13718a007533e4273ff6f978af238fded5f2c7cbae698ceca99ea5064cdfe37f117388027731e6253df4fb7aad218ddcd7f0c5c9ac6b82e2a790ab0842d1ed711f7d860c793fe82b33faf574a32f83d2d9fecbc7a26580e0a592a90a40d3ef731d7f840e7b3dea2931f8f776a12d81d0dbfcc9c5a06786e6a394af0c46d5e9751b7982087d3bec2f37fef170a72b87d6ddfacfc3a66184e4a196ad0e44d7eb77197b800a7f39ee2d35fcf372a52985d4dff8cdc1a4638aeaaf98a3004ad9e57917758e047137ed571f49a96401b971fc54874fa95ef5d34deae80cada730ea6e2bc9a4882a31d",
        "hex": "6a20c7ca718df01343f64ad5f5fc7683d38df51f8474d7404870908e903616695bf24db0042e2a790ab0842d1ed711f7d860c793fe82b33faf574a32f83d2d9fecbc7a26580e0a592a90a40d3ef731d7f840e7b3dea2931f8f776a12d81d0dbfcc9c5a06786e6a394af0c46d5e9751b7982087d3bec2f37fef170a72b87d6ddfacfc3a66184e4a196ad0e44d7eb77197b800a7f39ee2d35fcf372a52985d4dff8cdc1a4638aeaaf98a3004ad9e57917758e047137e0233bf2fd7cab278bdad1f6c3cfaa6d88e8ad9aa10248dbe77b15778c067335e22139f0ff7ea92589d8d3f4c1cda86f8eeeab9ca7044edde17d13718a007533e4273ff6f978af238fded5f2c7cbae698ceca99ea5064cdfe37f117388027731e6253df4fb7aad218ddcd7f0c5c9ac6b82e2a790ab0842d1ed711f7d860c793fe82b33faf574a32f83d2d9fecbc7a26580e0a592a90a40d3ef731d7f840e7b3dea2931f8f776a12d81d0dbfcc9c5a06786e6a394af0c46d5e9751b7982087d3bec2f37fef170a72b87d6ddfacfc3a66184e4a196ad0e44d7eb77197b800a7f39ee2d35fcf372a52985d4dff8cdc1a4638aeaaf98a3004ad9e57917758e047137e0233bf2fd7cab278bdad1f6c3cfaa6d88e8ad9aa10248dbe77b15778c067335e22139f0ff7ea92589d8d3f4c1cda86f8eeeab9ca7044edde17d13718a007533e4273ff6f978af238fded5f2c7cbae698ceca99ea5064cdfe37f117388027731e6253df4fb7aad218ddcd7f0c5c9ac6b82e2a790ab0842d1ed711f7d860c793fe82b33faf574a32f83d2d9fecbc7a26580e0a592a90a40d3ef731d7f840e7b3dea2931f8f776a12d81d0dbfcc9c5a06786e6a394af0c46d5e9751b7982087d3bec2f37fef170a72b87d6ddfacfc3a66184e4a196ad0e44d7eb77197b800a7f39ee2d35fcf372a52985d4dff8cdc1a4638aeaaf98a3004ad9e57917758e047137e0233bf2fd7cab278bdad1f6c3cfaa6d88e8ad9aa10248dbe77b15778c067335e22139f0ff7ea92589d8d3f4c1cda86f8eeeab9ca7044edde17d13718a007533e4273ff6f978af238fded5f2c7cbae698ceca99ea5064cdfe37f117388027731e6253df4fb7aad218ddcd7f0c5c9ac6b82e2a790ab0842d1ed711f7d860c793fe82b33faf574a32f83d2d9fecbc7a26580e0a592a90a40d3ef731d7f840e7b3dea2931f8f776a12d81d0dbfcc9c5a06786e6a394af0c46d5e9751b7982087d3bec2f37fef170a72b87d6ddfacfc3a66184e4a196ad0e44d7eb77197b800a7f39ee2d35fcf372a52985d4dff8cdc1a4638aeaaf98a3004ad9e57917758e047137e0233bf2fd7cab278bdad1f6c3cfaa6d88e8ad9aa10248dbe77b15778c067335e22139f0ff7ea92589d8d3f4c1cda86f8eeeab9ca7044edde17d13718a007533e4273ff6f978af238fded5f2c7cbae698ceca99ea5064cdfe37f117388027731e6253df4fb7aad218ddcd7f0c5c9ac6b82e2a790ab0842d1ed711f7d860c793fe82b33faf574a32f83d2d9fecbc7a26580e0a592a90a40d3ef731d7f840e7b3dea2931f8f776a12d81d0dbfcc9c5a06786e6a394af0c46d5e9751b7982087d3bec2f37fef170a72b87d6ddfacfc3a66184e4a196ad0e44d7eb77197b800a7f39ee2d35fcf372a52985d4dff8cdc1a4638aeaaf98a3004ad9e57917758e047137ed571f49a96401b971fc54874fa95ef5d34deae80cada730ea6e2bc9a4882a31d",
        "type": "nulldata"
      }
    }
  ],
  "blockhash": "15af9b025c636b87e0a10c18a1a8de0e5f3c2069ad563b293161176d75df89a4",
  "confirmations": 1,
  "time": 1764174659,
  "blocktime": 1764174659
}