{
  "hex": "010000000001018e846996ff48c5b2110a839df002b64dc5b2f5168279a8a6d32024ba787b8a790000000000feffffff028079ca95782d00002251200aef1c0b1e7e1a25ae7f82fee5ba7a43755266364716f9a88a84231df6e7147e00e1f50500000000fdd5046a205dbfd07485fa1dfd393269ab0e781fca1e7e3e77d0583d176a77ee66106473054db004a68f7ebef41ef9059eb675a3385719a0c1741c5622a517dfa3de0f5118346ce386af5e9ed43ed925be96558318773980e1543c76028537ff83fe2f7138144cc3e6cf3efeb45eb945def635e3781759e081345c1662e5579fe39e4f1158742ca3c6ef1ede947e9965fed615c3583779c0a1147c3642c577bfc3be6f3178540c83260ffe3e749e79851e36f523b8d7992041f49cd6a225975f235e8fd198b4ec63062fde1e54be59a53e16d50398f7b90061d4bcf68205b77f037eaff1b894cc43664fbe7e34de39c55e76b563f897d96001b4dc96e265d71f631ecf91d8f4ac23466f9e5e14fe19e57e569543d8b7f9402194fcb6c245f73f433eefb1f8d48c03a68f7ebef41ef9059eb675a3385719a0c1741c5622a517dfa3de0f5118346ce386af5e9ed43ed925be96558318773980e1543c76028537ff83fe2f7138144cc3e6cf3efeb45eb945def635e3781759e081345c1662e5579fe39e4f1158742ca3c6ef1ede947e9965fed615c3583779c0a1147c3642c577bfc3be6f3178540c83260ffe3e749e79851e36f523b8d7992041f49cd6a225975f235e8fd198b4ec63062fde1e54be59a53e16d50398f7b90061d4bcf68205b77f037eaff1b894cc43664fbe7e34de39c55e76b563f897d96001b4dc96e265d71f631ecf91d8f4ac23466f9e5e14fe19e57e569543d8b7f9402194fcb6c245f73f433eefb1f8d48c03a68f7ebef41ef9059eb675a3385719a0c1741c5622a517dfa3de0f5118346ce386af5e9ed43ed925be96558318773980e1543c76028537ff83fe2f7138144cc3e6cf3efeb45eb945def635e3781759e081345c1662e5579fe39e4f1158742ca3c6ef1ede947e9965fed615c3583779c0a1147c3642c577bfc3be6f3178540c83260ffe3e749e79851e36f523b8d7992041f49cd6a225975f235e8fd198b4ec63062fde1e54be59a53e16d50398f7b90061d4bcf68205b77f037eaff1b894cc43664fbe7e34de39c55e76b563f897d96001b4dc96e265d71f631ecf91d8f4ac23466f9e5e14fe19e57e569543d8b7f9402194fcb6c245f73f433eefb1f8d48c03a68f7ebef41ef9059eb675a3385719a0c1741c5622a517dfa3de0f5118346ce386af5e9ed43ed925be96558318773980e1543c76028537ff83fe2f7138144cc3e6cf3efeb45eb945def635e3781759e081345c1662e5579fe39e4f1158742ca3c6ef1ede947e9965fed615c3583779c0a1147c3642c577bfc3be6f3178540c83260ffe3e749e79851e36f523b8d7992041f49cd6a225975f235e8fd198b4ec63062fde1e54be59a53e16d50398f7b90061d4bcf68205b77f037eaff1b894cc43664fbe7e34de39c55e76b563f897d96001b4dc96e265d71f631ecf91d8f4ac23466f9e5e14fe19e57e569543d8b7f9402194fcb6c245f73f433eefb1f8d48c03a68f7ebef41ef9059eb675a3385719a0c1741c5622a517dfa3de0f5118346ce386af5e9ed43ed925be96558318773980e1543c76028537ff83fe2f7138144cc3e6cf3efeb45eb945def635e3781759e081345c1662e5579fe39e4f1158742ca3c6ef1ede947e9965fed615c3583779c0a1147c3642c577bfc3be6f3178540c83260ffe3e749e79851e36f523b8d79920da8415fa822facf0473dbf8912528e77dfe07dc761049e04c57f15801d15f48902fd7509836791304c5bfbcf242646020cebb60b20393cb70280e7906d6797a605ee9dd2fa8e9499ea57f7fa10cfa6aec25a9700626fc3e1419f7c8d4d00810fadfdc81734e4a155c159c604e7684d11d1e319889e09a454480e28f5d9eb70e2dc9a4316817cb3097524979884992e3f179da7500ea4895ecf66368b111565f21f1b104e4b11d5b1a9f0ecd17505c391914537c7a7a05877c04a48a48a90cabb7ccad3f86c5826eec5883826f5451a9440abc021fcedda8d96a24020f707f99af932979691e2788c17fcc94f0fef660afa9ddc976dc882d3faa6c523748d0648f9726e7e5f863960571ab2992a0f0779ae4378a1bac7c74e343e9fd3174c65f116198077241ae6098134bfd067cd68507dad7b97377f30733a6ab85809a335aacdfabe96ebe25a75a9cf770189b30af05d9fb0a1b8155430d6d6a1478ffbc095783085084a92b9cfebb058d7f12850e2e8ddd213c90b4cd03dae814d51aa1f91aa4b525835c12c839bb0fb4cf0a33a2a590ed08506e4619ef373c3358507223f47305296b2fc4ba2a12d6baf0884e9d92a7795c9f0f517c26cc65f5412529c61c399a7dd3e4e04ce5b4b842dea300086c1fdb28751a8ca053265643aeb111cc6b9665680356d9f6a9b868bd63e0bb3e6734a949ec287814d57dc29f7d8c5b6df34562f7909b938b36bfd6e2d546b2bde81f48bcfc894189a32fdae1a55ee460d34afc1c100bea0f8a62b9f55bc61f42f5b8746d7eb3fef5f150d54e0dc9410c2de7375184ae665c7f23e422e204e18732801c8ceb887e13b0ad9f27229e1ad819ab5a8f1e161fd37674a7ad077a297355e3461ac9ac40e73320de5d372ed08be154997cc5e47f053e74132538ef17e38c5ff6b3a18b5254e41e9fea5651e01c245ebad268a3f1df5f7888c487d67cfa6b8e50627e37c9ecb2fd75fb6bc344fd0fa6d926fd118cf74deab25e805b04ac363b3b4b3625c909460bd3becb0b3e21e3d0cfe75dde651f58a14019f0c10320e8985cfcf39f288ca54fe0f340b6d0f0ae97105343643b2e94cd69e782eea8a287b90cc2a0c8234eb58b7f1efb684c0c53762c693d83aff015b27d29e5b0e2279ce8ad91be4d7fe63d8a560063fa79503283a19b9680acad8863a8ca460246e0e39ce9a800bccc6e69f04b0975850bbdd3577f0ec00d16c375ceb69b9887ccdd148841bbd34b07ca4ee2ad1855c8271a7d7f19cd5874e1ebf37a60a372c1d8c115949dce7ad26d4cc704478d56d77a3cf4607a03de2fd078797b8b5270e3e9747a6d6941cd161619ba212ce45c3a1012773021419194401066b8a41e320bb5d70c63587382390936962f73e846d06e050034719ae38e73f05b656b78fef8f771787f91354e60d51521101779375c772f9e9f71d31a7652863e95cedd166e910b593e6d66a1d65742b25c908c32eca0841a3755fe32cd351af13d2fc80596ada8adb7152b37f8300ac51242b3e2ea5504f787c63147d957a3e3d95d1530407fcf4e677fa90218adaf4bfc9ea01075cdfe2dacf9621e2d1d990e23c987200b3bc6cb4ec1da1c65e19202e4635ddcd9236a4f0802dd51643492a4fb638d95d6d55bf20a21d7a578cb915824762d16c1e9a318a473bf2ed2d5a8e6f1530807fcdecb85d66ae14d9590cd55ac5df53c32935a4e40a2b679bdd0171b2f252ea0394774af344bed1d52628f1ce177ba1c00e55f81f2b03d954deb9a418541b227b1d59ab9b64c9d84b231ded883ea50d3af51deed407155790cedd23d45432d3b7a26fe526803fbf295387242dddae37188754398d71cd1f86e3601f016f3b7fe13de8f1f67a2df33be5e4deb438db5743d901dd91ba5195448922743b7d380b95bee159b2a8bd7dbd3cb43a173cde4f4e40c5df38ca34bbe0399e09b8e1b302d1cc117437f9dad5bbdcde5b73c683985454b5ca6028e3eb1cda65de00184c8ea094b2a03775b13ba1d9ca7ea587263403d3729c699ee5d2b4a67e307b127659339cc14485565d670efeaed35b0cbcd74ae8ddd244f230a94d88959a6ebab8e2f20b1d7f3ef7125c64d1b3929c465d2c502fa072c9b176dd1f36fc78a165e54e30384a628e0c804abab203074f8f708bad409822f7286f1f7c67d42ebbd3563376889d04afd539e97f6d725ed5fd00cb8b590887b49a3dcda623a0d6400499708606f90ed1fdc11e41c5402378444db0f71bb73765f8bc7703f1ad0f6df3b56ab53707529814c177d7c54c9ddffe9621b91f3b204101c902a251ed1f09093e0500de62a6ff751631ddc5a32bc19f7d4de715459d7d91d29adf2075aaf600c1aa12109a18daaedb147e86c9a9d02cf19207816c86d35113f349f7b19ef8aa613dae89c0c1a700968659d09da013215abf4f0f0df864ca74eea6cf0c62d4cfe725eab8079283f160f318916e79d50248264a7465ebaee41b9dc8ca4e56c7acef3cc5b006e3ecb021d19b161e9bac7c10f1b7a66a940a3c9ebe772bc09be719feed3940f9250dd0fc2354bef8a2557b4e5c6b83ed51bf199fc5c97ec619cb81820d91d2bdc604595558cbd41a18017863f588e3395337a45d8b842b6dad04cf99638af0a84e22f6d5ee9377e800ab460628662162bbc5bf49b170c2e21a0e229bd7172bab182a11a3bf346c4bd8d346db26566a1ffee6b885375f12b439673fbfb034668065120ae0dabc38d09ba7530ddc0f66b7e94ec49809d681c1152fb1e079791fbf68268bd49587c1e33c8184f0a557ab80897af4e9c5a0fee62507830a0a2f82e4332a2e6f6433b12323944da25104647aebf736dc1e8257da07f6f0b7eeb0000cd2d3bab32dac58fb05704a6cc652f8eeab05ce6c3c8996171fa97a4e5f89950c335adfc2e2130f17d01ac4e50ddc915bcd378466dbdb1cbe87eadc3283a926943989c4b5469b742bbc5ff144f96e286c1e51e3f78e937949ea9cfd648f79246010d2f00c60f756a43aaff1a50b45d9e78d266d3087515b1e54a676e70169cad23547897554daaa40dad750511641f2697f0a2fbb093a57aa80a6b7f978a846b0bacf3a9b5e6efc4b40d641eee1ebf4cb7c4c693df0e7d5abf13cbd41c8b3a9bc0ae65026e6596941a451cf35fd57dd9b3fd3e50324fab83e1393aab642066f688fc6b3957b31134d837755abfb072ab0ec0cd3fd486e2b93c7e963863be52b3c74732a29d29f138b80b4ef0eadc256458cb0816f0223785cdf772190c8459b82101950b74786ec33cf363d3307113165c5a6f3d27928248d7c1294e7cf171dac813f86ad8360abd0d55543948820382ad0cf6ecc090a172d3238465c626f73767e85abcae6f63160808d90afbcc2d4ebf7334b51525d5f616c8897bdc8e8eaf2f34d6e71808d939fa1b1d6e7fe000000000000000000000000000000000000000000000000111c2c3801fd2105000b28f100b5edc6bfbba1acfd5b52b752a184eceb0862c4fcf5eddad2e6ea3027c811761ac4b8289ef25e2d36beafeb9b0f2213f902bce7c1f8e09ba6f2f9f49e3a779ff75050133f8bf9e36426cd1a32600d37a009839422548b2b950a6b3f65475cd714cba9a516d041443d3e615407d561fb5b7cf2c5331202b4b49c7d5a63a655f5114b6737c8596318dc532d80a16d666b2e9d85c430bd0cd2073ae572bd6588d0a9cd9c65ec78d3ccfdd2ec084a5798442bf14bfd707a935967b7683022de416d8f4cb877d43468b56dc33baf7fb246da579bd0c3ff0d51cc7fe4fa0e1f54c77aa3486b08b19d11419854bb0c3481f74ac1a6081b879108ba8dbce56f62281840f955025514596eb78b6133cd49e46f5919ce98ba66b6dc4e776f7954a9375a9b046576efa956ccb03dd8c47f8433fed9272273ea7778c030fc1727ccc1c61e529d0cfd6133fe242cc00aca0e3b27ded01211042b87f2d31258c7b170bcabd9ea52aa0f4b4e594ffdeef0e9611f5a7b6ac6ac81300c790316b83c651224c1a682390ec0bf27823590aecddad33107ca2b1509a6e52b30ad786024b63d3614d19f373e8c243052ae16e26919d725558662ff21aed2340e1692e6c82ed633852d2caa5a8e9e2f58b598fec343d18916002e14872ea153016115702e1c2b41f90c33728f769a7f5e9574ec2dadbcdec57a1656e308cfedd59b1a56c46dc6525ef27264cb2ea37a2f01423c97cd0212cec05fb5049f35a684ace32908be0a695d016d62e23c42b8c899f1571ec71bfce2c29e9019309c7f80241e769c9fa392de6d673a0a314bc7331dd827024bda5ce99fed040f299e22e2c6a1c33dcad6e6b3647dee6c43a47b489f334915c69af41e2688fb11a396ebec9000f1e496b8891909be355440b965cdfe8c9235fb9815460e9a2431f1daa24c6bfbb2714c65ef0f1a08b551787cc62b412824dcbe136b45da423dae50a0d51f2175000657d33a68def247f44735bd93f19a92e414572958dc0af841f53f24e1f7e3b71cc2bb272188088efa252059a0da6c0e16700a4e3fd41ea97f836bdf092376dca6736b7726d9cc673626b173b5ad7e104bc96db3434b91c6de62da2736bd3cda4ac8fa1f66b514c684d7b4609653e758aa48875d6124b29ddf45eb90af4ae84268bea1cc6c2639d366ac9e33ce359961923f0e2925d4707b268fc9d42018116acc4245882ac485e106f3c1e603c604b6b05fdb2bd0f6c487e8aa51b685b396299129938826af489df01558fba54729d1d5eb3ee3d2ffb6c47c532d6f529dd548c229c6826c9fa16a58bfd694ee653a82ef32b05786177d3142e087af0a901523b72459d011b8c2f0dc232ed18c7e90256996ff3d6978cd828932488736d6747e657aee9df4ecbde266dd28f53c1426a4f29144e17122cc245ba7c7fac365718ef70883278d45b4ae41bb39b5edabf91d0e1e1839d2453b586a9ca58b83aef265ab12e26591dfb9a91bbad684952b5800bae546cb354ba3efc3e865ba3f40982714a14da315775a95f962f8c85dc0bd319ca90e6e2938755e12e4398a8355cfc585153e6f5265e697103d6b78274fd8019bb1de4803455451c7e7d5e279b2991e771e6d4d0e1ee1d82dfa0c3fa068f5dd98753620f5a24ccce1ff8819ef1025bdcba06812f9ac902875ff04528615e101144901ed7516961b5e13fd723ddaa50da2e4d74f328e38cb86a4022b6b152142b4b97b67f7853ddd9d1b23fd7d30ea8799fb042946f59bd67338112293d5b031a4c4ad966689e97da4dc914a4acfb0ab05d2bec1f9dcd9b6177f167e6eed23d680be5139b90da477cdc17e91fb52637628b989a487000000",
  "txid": "45faa94078525bdeb1f5a129e59020f86f8e93705b02b71f4ff75586aa2c96a4",
  "hash": "1db4252ef4e53cf67e9de12edc8ad5194731e7b10f413f42a64bd80f26c0fa29",
  "size": 5085,
  "vsize": 2278,
  "version": 1,
  "locktime": 135,
  "vin": [
    {
      "txid": "798a7b78ba2420d3a6a8798216f5b2c54db602f09d830a11b2c548ff9669848e",
      "vout": 0,
      "scriptSig": {
        "asm": "",
        "hex": ""
      },
      "txinwitness": [
        "836791304c5bfbcf242646020cebb60b20393cb70280e7906d6797a605ee9dd2fa8e9499ea57f7fa10cfa6aec25a9700626fc3e1419f7c8d4d00810fadfdc81734e4a155c159c604e7684d11d1e319889e09a454480e28f5d9eb70e2dc9a4316817cb3097524979884992e3f179da7500ea4895ecf66368b111565f21f1b104e4b11d5b1a9f0ecd17505c391914537c7a7a05877c04a48a48a90cabb7ccad3f86c5826eec5883826f5451a9440abc021fcedda8d96a24020f707f99af932979691e2788c17fcc94f0fef660afa9ddc976dc882d3faa6c523748d0648f9726e7e5f863960571ab2992a0f0779ae4378a1bac7c74e343e9fd3174c65f116198077241ae6098134bfd067cd68507dad7b97377f30733a6ab85809a335aacdfabe96ebe25a75a9cf770189b30af05d9fb0a1b8155430d6d6a1478ffbc095783085084a92b9cfebb058d7f12850e2e8ddd213c90b4cd03dae814d51aa1f91aa4b525835c12c839bb0fb4cf0a33a2a590ed08506e4619ef373c3358507223f47305296b2fc4ba2a12d6baf0884e9d92a7795c9f0f517c26cc65f5412529c61c399a7dd3e4e04ce5b4b842dea300086c1fdb28751a8ca053265643aeb111cc6b9665680356d9f6a9b868bd63e0bb3e6734a949ec287814d57dc29f7d8c5b6df34562f7909b938b36bfd6e2d546b2bde81f48bcfc894189a32fdae1a55ee460d34afc1c100bea0f8a62b9f55bc61f42f5b8746d7eb3fef5f150d54e0dc9410c2de7375184ae665c7f23e422e204e18732801c8ceb887e13b0ad9f27229e1ad819ab5a8f1e161fd37674a7ad077a297355e3461ac9ac40e73320de5d372ed08be154997cc5e47f053e74132538ef17e38c5ff6b3a18b5254e41e9fea5651e01c245ebad268a3f1df5f7888c487d67cfa6b8e50627e37c9ecb2fd75fb6bc344fd0fa6d926fd118cf74deab25e805b04ac363b3b4b3625c909460bd3becb0b3e21e3d0cfe75dde651f58a14019f0c10320e8985cfcf39f288ca54fe0f340b6d0f0ae97105343643b2e94cd69e782eea8a287b90cc2a0c8234eb58b7f1efb684c0c53762c693d83aff015b27d29e5b0e2279ce8ad91be4d7fe63d8a560063fa79503283a19b9680acad8863a8ca460246e0e39ce9a800bccc6e69f04b0975850bbdd3577f0ec00d16c375ceb69b9887ccdd148841bbd34b07ca4ee2ad1855c8271a7d7f19cd5874e1ebf37a60a372c1d8c115949dce7ad26d4cc704478d56d77a3cf4607a03de2fd078797b8b5270e3e9747a6d6941cd161619ba212ce45c3a1012773021419194401066b8a41e320bb5d70c63587382390936962f73e846d06e050034719ae38e73f05b656b78fef8f771787f91354e60d51521101779375c772f9e9f71d31a7652863e95cedd166e910b593e6d66a1d65742b25c908c32eca0841a3755fe32cd351af13d2fc80596ada8adb7152b37f8300ac51242b3e2ea5504f787c63147d957a3e3d95d1530407fcf4e677fa90218adaf4bfc9ea01075cdfe2dacf9621e2d1d990e23c987200b3bc6cb4ec1da1c65e19202e4635ddcd9236a4f0802dd51643492a4fb638d95d6d55bf20a21d7a578cb915824762d16c1e9a318a473bf2ed2d5a8e6f1530807fcdecb85d66ae14d9590cd55ac5df53c32935a4e40a2b679bdd0171b2f252ea0394774af344bed1d52628f1ce177ba1c00e55f81f2b03d954deb9a418541b227b1d59ab9b64c9d84b231ded883ea50d3af51deed407155790cedd23d45432d3b7a26fe526803fbf295387242dddae37188754398d71cd1f86e3601f016f3b7fe13de8f1f67a2df33be5e4deb438db5743d901dd91ba5195448922743b7d380b95bee159b2a8bd7dbd3cb43a173cde4f4e40c5df38ca34bbe0399e09b8e1b302d1cc117437f9dad5bbdcde5b73c683985454b5ca6028e3eb1cda65de00184c8ea094b2a03775b13ba1d9ca7ea587263403d3729c699ee5d2b4a67e307b127659339cc14485565d670efeaed35b0cbcd74ae8ddd244f230a94d88959a6ebab8e2f20b1d7f3ef7125c64d1b3929c465d2c502fa072c9b176dd1f36fc78a165e54e30384a628e0c804abab203074f8f708bad409822f7286f1f7c67d42ebbd3563376889d04afd539e97f6d725ed5fd00cb8b590887b49a3dcda623a0d6400499708606f90ed1fdc11e41c5402378444db0f71bb73765f8bc7703f1ad0f6df3b56ab53707529814c177d7c54c9ddffe9621b91f3b204101c902a251ed1f09093e0500de62a6ff751631ddc5a32bc19f7d4de715459d7d91d29adf2075aaf600c1aa12109a18daaedb147e86c9a9d02cf19207816c86d35113f349f7b19ef8aa613dae89c0c1a700968659d09da013215abf4f0f0df864ca74eea6cf0c62d4cfe725eab8079283f160f318916e79d50248264a7465ebaee41b9dc8ca4e56c7acef3cc5b006e3ecb021d19b161e9bac7c10f1b7a66a940a3c9ebe772bc09be719feed3940f9250dd0fc2354bef8a2557b4e5c6b83ed51bf199fc5c97ec619cb81820d91d2bdc604595558cbd41a18017863f588e3395337a45d8b842b6dad04cf99638af0a84e22f6d5ee9377e800ab460628662162bbc5bf49b170c2e21a0e229bd7172bab182a11a3bf346c4bd8d346db26566a1ffee6b885375f12b439673fbfb034668065120ae0dabc38d09ba7530ddc0f66b7e94ec49809d681c1152fb1e079791fbf68268bd49587c1e33c8184f0a557ab80897af4e9c5a0fee62507830a0a2f82e4332a2e6f6433b12323944da25104647aebf736dc1e8257da07f6f0b7eeb0000cd2d3bab32dac58fb05704a6cc652f8eeab05ce6c3c8996171fa97a4e5f89950c335adfc2e2130f17d01ac4e50ddc915bcd378466dbdb1cbe87eadc3283a926943989c4b5469b742bbc5ff144f96e286c1e51e3f78e937949ea9cfd648f79246010d2f00c60f756a43aaff1a50b45d9e78d266d3087515b1e54a676e70169cad23547897554daaa40dad750511641f2697f0a2fbb093a57aa80a6b7f978a846b0bacf3a9b5e6efc4b40d641eee1ebf4cb7c4c693df0e7d5abf13cbd41c8b3a9bc0ae65026e6596941a451cf35fd57dd9b3fd3e50324fab83e1393aab642066f688fc6b3957b31134d837755abfb072ab0ec0cd3fd486e2b93c7e963863be52b3c74732a29d29f138b80b4ef0eadc256458cb0816f0223785cdf772190c8459b82101950b74786ec33cf363d3307113165c5a6f3d27928248d7c1294e7cf171dac813f86ad8360abd0d55543948820382ad0cf6ecc090a172d3238465c626f73767e85abcae6f63160808d90afbcc2d4ebf7334b51525d5f616c8897bdc8e8eaf2f34d6e71808d939fa1b1d6e7fe000000000000000000000000000000000000000000000000111c2c3801",
        "000b28f100b5edc6bfbba1acfd5b52b752a184eceb0862c4fcf5eddad2e6ea3027c811761ac4b8289ef25e2d36beafeb9b0f2213f902bce7c1f8e09ba6f2f9f49e3a779ff75050133f8bf9e36426cd1a32600d37a009839422548b2b950a6b3f65475cd714cba9a516d041443d3e615407d561fb5b7cf2c5331202b4b49c7d5a63a655f5114b6737c8596318dc532d80a16d666b2e9d85c430bd0cd2073ae572bd6588d0a9cd9c65ec78d3ccfdd2ec084a5798442bf14bfd707a935967b7683022de416d8f4cb877d43468b56dc33baf7fb246da579bd0c3ff0d51cc7fe4fa0e1f54c77aa3486b08b19d11419854bb0c3481f74ac1a6081b879108ba8dbce56f62281840f955025514596eb78b6133cd49e46f5919ce98ba66b6dc4e776f7954a9375a9b046576efa956ccb03dd8c47f8433fed9272273ea7778c030fc1727ccc1c61e529d0cfd6133fe242cc00aca0e3b27ded01211042b87f2d31258c7b170bcabd9ea52aa0f4b4e594ffdeef0e9611f5a7b6ac6ac81300c790316b83c651224c1a682390ec0bf27823590aecddad33107ca2b1509a6e52b30ad786024b63d3614d19f373e8c243052ae16e26919d725558662ff21aed2340e1692e6c82ed633852d2caa5a8e9e2f58b598fec343d18916002e14872ea153016115702e1c2b41f90c33728f769a7f5e9574ec2dadbcdec57a1656e308cfedd59b1a56c46dc6525ef27264cb2ea37a2f01423c97cd0212cec05fb5049f35a684ace32908be0a695d016d62e23c42b8c899f1571ec71bfce2c29e9019309c7f80241e769c9fa392de6d673a0a314bc7331dd827024bda5ce99fed040f299e22e2c6a1c33dcad6e6b3647dee6c43a47b489f334915c69af41e2688fb11a396ebec9000f1e496b8891909be355440b965cdfe8c9235fb9815460e9a2431f1daa24c6bfbb2714c65ef0f1a08b551787cc62b412824dcbe136b45da423dae50a0d51f2175000657d33a68def247f44735bd93f19a92e414572958dc0af841f53f24e1f7e3b71cc2bb272188088efa252059a0da6c0e16700a4e3fd41ea97f836bdf092376dca6736b7726d9cc673626b173b5ad7e104bc96db3434b91c6de62da2736bd3cda4ac8fa1f66b514c684d7b4609653e758aa48875d6124b29ddf45eb90af4ae84268bea1cc6c2639d366ac9e33ce359961923f0e2925d4707b268fc9d42018116acc4245882ac485e106f3c1e603c604b6b05fdb2bd0f6c487e8aa51b685b396299129938826af489df01558fba54729d1d5eb3ee3d2ffb6c47c532d6f529dd548c229c6826c9fa16a58bfd694ee653a82ef32b05786177d3142e087af0a901523b72459d011b8c2f0dc232ed18c7e90256996ff3d6978cd828932488736d6747e657aee9df4ecbde266dd28f53c1426a4f29144e17122cc245ba7c7fac365718ef70883278d45b4ae41bb39b5edabf91d0e1e1839d2453b586a9ca58b83aef265ab12e26591dfb9a91bbad684952b5800bae546cb354ba3efc3e865ba3f40982714a14da315775a95f962f8c85dc0bd319ca90e6e2938755e12e4398a8355cfc585153e6f5265e697103d6b78274fd8019bb1de4803455451c7e7d5e279b2991e771e6d4d0e1ee1d82dfa0c3fa068f5dd98753620f5a24ccce1ff8819ef1025bdcba06812f9ac902875ff04528615e101144901ed7516961b5e13fd723ddaa50da2e4d74f328e38cb86a4022b6b152142b4b97b67f7853ddd9d1b23fd7d30ea8799fb042946f59bd67338112293d5b031a4c4ad966689e97da4dc914a4acfb0ab05d2bec1f9dcd9b6177f167e6eed23d680be5139b90da477cdc17e91fb52637628b989a4"
      ],
      "sequence": 4294967294
    }
  ],
  "vout": [
    {
      "value": 499959.324,
      "n": 0,
      "scriptPubKey": {
        "asm": "1 0aef1c0b1e7e1a25ae7f82fee5ba7a43755266364716f9a88a84231df6e7147e",
        "hex": "51200aef1c0b1e7e1a25ae7f82fee5ba7a43755266364716f9a88a84231df6e7147e",
        "reqSigs": 1,
        "type": "witness_v1_scripthash",
        "addresses": [
          "3QJmnh"
        ]
      }
    },
    {
      "value": 1.0,
      "n": 1,
      "scriptPubKey": {
        "asm": "OP_RETURN 5dbfd07485fa1dfd393269ab0e781fca1e7e3e77d0583d176a77ee6610647305 a68f7ebef41ef9059eb675a3385719a0c1741c5622a517dfa3de0f5118346ce386af5e9ed43ed925be96558318773980e1543c76028537ff83fe2f7138144cc3e6cf3efeb45eb945def635e3781759e081345c1662e5579fe39e4f1158742ca3c6ef1ede947e9965fed615c3583779c0a1147c3642c577bfc3be6f3178540c83260ffe3e749e79851e36f523b8d7992041f49cd6a225975f235e8fd198b4ec63062fde1e54be59a53e16d50398f7b90061d4bcf68205b77f037eaff1b894cc43664fbe7e34de39c55e76b563f897d96001b4dc96e265d71f631ecf91d8f4ac23466f9e5e14fe19e57e569543d8b7f9402194fcb6c245f73f433eefb1f8d48c03a68f7ebef41ef9059eb675a3385719a0c1741c5622a517dfa3de0f5118346ce386af5e9ed43ed925be96558318773980e1543c76028537ff83fe2f7138144cc3e6cf3efeb45eb945def635e3781759e081345c1662e5579fe39e4f1158742ca3c6ef1ede947e9965fed615c3583779c0a1147c3642c577bfc3be6f3178540c83260ffe3e749e79851e36f523b8d7992041f49cd6a225975f235e8fd198b4ec63062fde1e54be59a53e16d50398f7b90061d4bcf68205b77f037eaff1b894cc43664fbe7e34de39c55e76b563f897d96001b4dc96e265d71f631ecf91d8f4ac23466f9e5e14fe19e57e569543d8b7f9402194fcb6c245f73f433eefb1f8d48c03a68f7ebef41ef9059eb675a3385719a0c1741c5622a517dfa3de0f5118346ce386af5e9ed43ed925be96558318773980e1543c76028537ff83fe2f7138144cc3e6cf3efeb45eb945def635e3781759e081345c1662e5579fe39e4f1158742ca3c6ef1ede947e9965fed615c3583779c0a1147c3642c577bfc3be6f3178540c83260ffe3e749e79851e36f523b8d7992041f49cd6a225975f235e8fd198b4ec63062fde1e54be59a53e16d50398f7b90061d4bcf68205b77f037eaff1b894cc43664fbe7e34de39c55e76b563f897d96001b4dc96e265d71f631ecf91d8f4ac23466f9e5e14fe19e57e569543d8b7f9402194fcb6c245f73f433eefb1f8d48c03a68f7ebef41ef9059eb675a3385719a0c1741c5622a517dfa3de0f5118346ce386af5e9ed43ed925be96558318773980e1543c76028537ff83fe2f7138144cc3e6cf3efeb45eb945def635e3781759e081345c1662e5579fe39e4f1158742ca3c6ef1ede947e9965fed615c3583779c0a1147c3642c577bfc3be6f3178540c83260ffe3e749e79851e36f523b8d7992041f49cd6a225975f235e8fd198b4ec63062fde1e54be59a53e16d50398f7b90061d4bcf68205b77f037eaff1b894cc43664fbe7e34de39c55e76b563f897d96001b4dc96e265d71f631ecf91d8f4ac23466f9e5e14fe19e57e569543d8b7f9402194fcb6c245f73f433eefb1f8d48c03a68f7ebef41ef9059eb675a3385719a0c1741c5622a517dfa3de0f5118346ce386af5e9ed43ed925be96558318773980e1543c76028537ff83fe2f7138144cc3e6cf3efeb45eb945def635e3781759e081345c1662e5579fe39e4f1158742ca3c6ef1ede947e9965fed615c3583779c0a1147c3642c577bfc3be6f3178540c83260ffe3e749e79851e36f523b8d79920da8415fa822facf0473dbf8912528e77dfe07dc761049e04c57f15801d15f489",
        "hex": "6a205dbfd07485fa1dfd393269ab0e781fca1e7e3e77d0583d176a77ee66106473054db004a68f7ebef41ef9059eb675a3385719a0c1741c5622a517dfa3de0f5118346ce386af5e9ed43ed925be96558318773980e1543c76028537ff83fe2f7138144cc3e6cf3efeb45eb945def635e3781759e081345c1662e5579fe39e4f1158742ca3c6ef1ede947e9965fed615c3583779c0a1147c3642c577bfc3be6f3178540c83260ffe3e749e79851e36f523b8d7992041f49cd6a225975f235e8fd198b4ec63062fde1e54be59a53e16d50398f7b90061d4bcf68205b77f037eaff1b894cc43664fbe7e34de39c55e76b563f897d96001b4dc96e265d71f631ecf91d8f4ac23466f9e5e14fe19e57e569543d8b7f9402194fcb6c245f73f433eefb1f8d48c03a68f7ebef41ef9059eb675a3385719a0c1741c5622a517dfa3de0f5118346ce386af5e9ed43ed925be96558318773980e1543c76028537ff83fe2f7138144cc3e6cf3efeb45eb945def635e3781759e081345c1662e5579fe39e4f1158742ca3c6ef1ede947e9965fed615c3583779c0a1147c3642c577bfc3be6f3178540c83260ffe3e749e79851e36f523b8d7992041f49cd6a225975f235e8fd198b4ec63062fde1e54be59a53e16d50398f7b90061d4bcf68205b77f037eaff1b894cc43664fbe7e34de39c55e76b563f897d96001b4dc96e265d71f631ecf91d8f4ac23466f9e5e14fe19e57e569543d8b7f9402194fcb6c245f73f433eefb1f8d48c03a68f7ebef41ef9059eb675a3385719a0c1741c5622a517dfa3de0f5118346ce386af5e9ed43ed925be96558318773980e1543c76028537ff83fe2f7138144cc3e6cf3efeb45eb945def635e3781759e081345c1662e5579fe39e4f1158742ca3c6ef1ede947e9965fed615c3583779c0a1147c3642c577bfc3be6f3178540c83260ffe3e749e79851e36f523b8d7992041f49cd6a225975f235e8fd198b4ec63062fde1e54be59a53e16d50398f7b90061d4bcf68205b77f037eaff1b894cc43664fbe7e34de39c55e76b563f897d96001b4dc96e265d71f631ecf91d8f4ac23466f9e5e14fe19e57e569543d8b7f9402194fcb6c245f73f433eefb1f8d48c03a68f7ebef41ef9059eb675a3385719a0c1741c5622a517dfa3de0f5118346ce386af5e9ed43ed925be96558318773980e1543c76028537ff83fe2f7138144cc3e6cf3efeb45eb945def635e3781759e081345c1662e5579fe39e4f1158742ca3c6ef1ede947e9965fed615c3583779c0a1147c3642c577bfc3be6f3178540c83260ffe3e749e79851e36f523b8d7992041f49cd6a225975f235e8fd198b4ec63062fde1e54be59a53e16d50398f7b90061d4bcf68205b77f037eaff1b894cc43664fbe7e34de39c55e76b563f897d96001b4dc96e265d71f631ecf91d8f4ac23466f9e5e14fe19e57e569543d8b7f9402194fcb6c245f73f433eefb1f8d48c03a68f7ebef41ef9059eb675a3385719a0c1741c5622a517dfa3de0f5118346ce386af5e9ed43ed925be96558318773980e1543c76028537ff83fe2f7138144cc3e6cf3efeb45eb945def635e3781759e081345c1662e5579fe39e4f1158742ca3c6ef1ede947e9965fed615c3583779c0a1147c3642c577bfc3be6f3178540c83260ffe3e749e79851e36f523b8d79920da8415fa822facf0473dbf8912528e77dfe07dc761049e04c57f15801d15f489",
        "type": "nulldata"
      }
    }
  ],
  "blockhash": "04b08afa406522d4605e5542ad480440adf33b25b306f33fff8225e2cbbf4733",
  "confirmations": 1,
  "time": 1764183055,
  "blocktime": 1764183055
}