{
  "hex": "010000000001010abdead782efb1b139fc039423cb96192d5ab7d2fa6fd0279f04e959122a2b100100000000feffffff0200e1f50500000000fdd5046a20e4feabbc36b1b5fe9058a73e1d191374f2aacb8315fa9274ef2a234d1a6627f64db0046a2365943bf4104bdb058746bd6b4cfbac8a63e05523c7969c172c0606eefdc34a0345b41bd4306bfb25a7669d4b6cdb8caa43c07503e7b6bc370c2626cedde32a6325d47bb4500b9b45c706fd2b0cbbecca23a0156387d6dc576c4646aebd830a4305f45b94702bbb65e726dd0b2c9bccea03803543a7f6fc774c66668e9da3eaa3e514bb7490cb5b8507c63debcc7b2c0ae360d5a347161c97ac86866e7d43ca83c5349b54b0eb7ba527e61dcbec5b0c2ac340f58367363cb78ca6a64e5d63aae3a554fb34d08b1bc547867dab8c3b6c4aa32095e307565cd7ecc6c62e3d038ac38574db14f0ab3be567a65d8bac1b4c6a8300b5c327767cf7cce6e60e1d236a2365943bf4104bdb058746bd6b4cfbac8a63e05523c7969c172c0606eefdc34a0345b41bd4306bfb25a7669d4b6cdb8caa43c07503e7b6bc370c2626cedde32a6325d47bb4500b9b45c706fd2b0cbbecca23a0156387d6dc576c4646aebd830a4305f45b94702bbb65e726dd0b2c9bccea03803543a7f6fc774c66668e9da3eaa3e514bb7490cb5b8507c63debcc7b2c0ae360d5a347161c97ac86866e7d43ca83c5349b54b0eb7ba527e61dcbec5b0c2ac340f58367363cb78ca6a64e5d63aae3a554fb34d08b1bc547867dab8c3b6c4aa32095e307565cd7ecc6c62e3d038ac38574db14f0ab3be567a65d8bac1b4c6a8300b5c327767cf7cce6e60e1d236a2365943bf4104bdb058746bd6b4cfbac8a63e05523c7969c172c0606eefdc34a0345b41bd4306bfb25a7669d4b6cdb8caa43c07503e7b6bc370c2626cedde32a6325d47bb4500b9b45c706fd2b0cbbecca23a0156387d6dc576c4646aebd830a4305f45b94702bbb65e726dd0b2c9bccea03803543a7f6fc774c66668e9da3eaa3e514bb7490cb5b8507c63debcc7b2c0ae360d5a347161c97ac86866e7d43ca83c5349b54b0eb7ba527e61dcbec5b0c2ac340f58367363cb78ca6a64e5d63aae3a554fb34d08b1bc547867dab8c3b6c4aa32095e307565cd7ecc6c62e3d038ac38574db14f0ab3be567a65d8bac1b4c6a8300b5c327767cf7cce6e60e1d236a2365943bf4104bdb058746bd6b4cfbac8a63e05523c7969c172c0606eefdc34a0345b41bd4306bfb25a7669d4b6cdb8caa43c07503e7b6bc370c2626cedde32a6325d47bb4500b9b45c706fd2b0cbbecca23a0156387d6dc576c4646aebd830a4305f45b94702bbb65e726dd0b2c9bccea03803543a7f6fc774c66668e9da3eaa3e514bb7490cb5b8507c63debcc7b2c0ae360d5a347161c97ac86866e7d43ca83c5349b54b0eb7ba527e61dcbec5b0c2ac340f58367363cb78ca6a64e5d63aae3a554fb34d08b1bc547867dab8c3b6c4aa32095e307565cd7ecc6c62e3d038ac38574db14f0ab3be567a65d8bac1b4c6a8300b5c327767cf7cce6e60e1d236a2365943bf4104bdb058746bd6b4cfbac8a63e05523c7969c172c0606eefdc34a0345b41bd4306bfb25a7669d4b6cdb8caa43c07503e7b6bc370c2626cedde32a6325d47bb4500b9b45c706fd2b0cbbecca23a0156387d6dc576c4646aebd830a4305f45b94702bbb65e726dd0b2c9bccea03803543a7f6fc774c66668e9da3eaa3e514bb7490cb5b8507c63debcc7b5ae3a1ed726e099d2d9972e83afc46cbf159e7a106c183b2c74576000fbb588f20cc6133792d000022512094627bc00e4e1437f38e39724a38019bff74ec25c40488cefd4e2d91841bfa1f02fd75093b555a971e782b278dac68bb830ed41c876585dff283b7d21e815d5f1db337904f4eb28f59b35d4e3c1222e9eae340ad84e37c17ce89799458559b934676b6263c7ef726babdf8c6d6865b21fa6e812bd059deefb904359a6579f21c99f3368ed9a1585623830f6c3ecd10cecacc2aa00d1d207ca701e15cfe1bff3d1272b1e64ee626dbe5d1a4deab422aee8f1a881f769f7fb9128eac9be210a9739426f075a72b4e510045c3f0b3b0dd1e82bb9d68f84577a9ed336534ca166232a8fb340b5c5295312b60dd6d70db685ffc1286becf839cf56190f059ba8a1a0aa99ca049884a4bed94d0f55693d21222a115a4cca594f48e97f25c020826347bfaa9dd322f3efaaae637126d14dcc4544d2ee044b6730fea976f6af2ca027e4b0847e880df0de7427f017e12d447b40345c5e3f46d7b5b30fab23537f2369479289a9361ee8f6b0f328350bd82c81fc619806c56a70d409262420fb9e26b5b0465265762df23722129e57b75c43b9f994c8c7687fb10ebcb8b484381cecf41579467735d1145678968aae049df5320c400ff730617b6a1007c9eb38591229920e5d5ece37620611aefec554a79fec51ae0792d16d6bf67e7ab32db97ff1d581c1d99e283f6636afae1ea7f7460b643e5f75a2f21584fa32e69a98c060c3cc47cb4f6b6dbbb8f8c08b06facf74b8c9134d710ee9ddb8a44fa2938a6ce2b2653ed43c693b50fb20334dfccff7d3de11e2dfd7d25f8f8b52dc716d88cecbab34c7612c269718e64b7c0ad758c933b115f2fce29ac981b8c402494b8dbae4e27f979ee7807e87ea9fe72982a52b6fb014a4d47b9c5980a352c37e906930604cee5e7c7371054a20e3a0ddd662f40adf93bd5dcbc39dfad567c9b5a77e07efcb98f69c04d51efd4f1a2752d20489988ad860c56ed0412da445310efd189ce45a3f11626a05d0fdd38c3b207a501782b50ccfb74c833771f77dc9b667fb5abaf46c8877bc508a6f7b51972b1fc4076743ae1642deb8a9d441bf41509159dee378b4e0f58399abadebfa5aa7e636946c0d9c6beb67f32e4d46ec41624a5c50a9c1c6fa33d6f1902578927e1c84ab6ace5a3a93e141849467eb6aa22dae1fc4f40bc03c8ba9f02f688380b256544c0df6cf174fe64f10cf8a3c42b130bcb0889eea62542805ba586bfaacea7b1a37080628e1f4ebc97e016634d5df26bfe0c222c2e508638cae86eb9e3751a12d9c6211554ed19d7e524fd5486483918614b713d5e18222f7d32a00b6893453099d4ed789c844862d3660fa65caf03cc604c0c2b6cfe86d3296af38d7c62c9b677929351fcdd0c5c16f04aea85a4ae83db41a3065417f155cfeb53335bf9f44fc51094f403a696c14758036f9e09f93e45812f274dc8465749902257b9a2941a4366a9e93ecd539fa33db7efd094cbb56ce35563644949831bcae9219b3ab1376e3e084709078305652ba7f42c2cca634348d690833c26a4b4e0c8259c800172741e427ac686f7e08d2742f6fde8a3b2d3c32ceb614c3b37a9c2ae7f96e00094df665a1527733634e8fcc6de3084fc7ff1e76278e8d2cd4dddb2f5413f45698231164f49d3a9777fba56cef8d00f8d6bd52f8e87dd1603d80c5d82b6adcc28478eee195320e9444f2362afa244c4b81080dfe51f9effd0df004c21b73491ec5f1cd6d763585992119f3f29b7ae22ea58f488403a6a6bff0ea3b0e49a675ec2e9d3babeba92adde8a275c4faa0b93b56d7713f7f906bff7686cc7b781568b08574d6501bc8eb3776eae5ff626d7870aec12c4300420d0c7ca7296c4066c5f005ebb77b34d884fe98e70dd032ee15cfd4a0a2a7867dbe8f648483ece035efa34618a8ae9e009ea03fdeacdbc5f55e9806f76388bab88f02f83f384949cb6dbf301b53561d015e608afeca823bff49da3a310f1bbed70de7480c5379803c6c66c4cd112939b9d180205c267cdf75688ab4a4c34affe8d3ba6a3303c21ab1e3eefead5deeebac9eb9ebe57ca9efe4626b1dc79f5cf05e3416b5e094e46acb18ac2ba56e1ff9985dda3a4ab2e84076966a70093fe0ed94fda93a47fc836d8bb40967859cd5e0976056ac7fcb279e364eb32d0d7582fd38be03c9482ce09b867d1b24e51b7fb89fd032bb152e3e28485a15f241a005c5c82917d4d8371d2bcfa69f2f01f76382aac8ddfe205227206a46bb9b42545caaeefcd4d018504438665d996ed80ecc39c2a5eaa6e7e86445f2eb98e429c9d4f3d64d782309c48ad59dbf1539b1c312ab550d793639fde5d645d61eb63151136d3ea0afd49f65f81b7506684d5074ae0f04e5f06adf52095adf976a4645fd136ff990c252c7f71fbf30f7bb25b56eaf30b79d87104e8c3e49be92fd1334b35428a89f9204979fb74a60d8258f45d0f4d16bf64298531592845f09150f4e70dd828a7ae1c4d0907f4827d45784be2ea4c30025509a4d7748d4c32036f4a11edb2d1910fce6459feb3f3443312f0e46a720ed76bace612385d91516459a11eb2df584418acc3d9d6f39c7015089d754b4e309f93340022544717bd257d384f427ee3d51e8a34a4db82e09a6dcffbc8b1a3b04c16c719e2c2cf8f9b963e306e2e701d055918d21e54e7490f138f24531002edb0e23e5d304dadeb146bd762e2ff7841cca6eae4f3025727dd6c481dd552df8e72f309c100a7120260516827b85180382c77863087c0b0a094d3c991a19f35e273dea97a4946980ffa8436dca25e9073c2dbe08c215507161706e95b7bfe75bcd3590ae6d1014db5426cc4036b66bc4ba2d55ef9b3f56fa6180283f3a6d79781f546d73a58c9b243233c9ba9cdd04db45f57942be0cd20bdaa5ce79abb4b8182a4e6d12cbc716dfaf9bba688f2b59ad184dbb7e059c90b20fc562dac90f3beeaa9842027a0f6d6df42a727343ee1641cc6c33edb3c67c87a610273362392484139d50b90ba3dd179f4bf9cde252e3eb9d7180ae38d2c243cecfd387b9016890ab443ca483c1259656789e224854a98f319c1acbd502d9af1e9549e6b3ab7d578eebb229866fa9907e89e6fb038f578101a1236431159fea022445d60f9a12b77f476fd4ef46edb4717cc10bf7a1e32e51d9928a1b70cf74aa27cb5a54773a0b25c90b5df7e83e5625327a6bde7f96aea505b043edd226895fbfadc19acbe8a087378b4e2f7af00f82d0b293f9a19874bb6579778728ad7c6e1fe34d511c99d699ffdd1404a81d1528fd2414964267000374c9c523f35842d597445544d072606aeb229019a189d9913a7a4c7ca6411bd08c7d4372dd503020f222c575d869cadbbdedfed081629373d445a60646d8a97b7c0cce0ea2179959ea8c2caf91a333f476c7688a8a9c6ccd6e2f0f70000000000000000000000000000000000000000000000000000000d1e263501fd2105000e353e74075acd2fe1989672817b4611d3d653ee2ae1edef5a68c59b26295679effefe97e8b95adb4f1cc5e6e15b9817e0fab14b9c548439ceea701fe201f183aa262ec4ed1dfa98bc141f51e7ae8a4c47ac3c765753737bb46cc5630f28f25ac438d94c65de2b11d4537a4ff92d3058e949d87ab24c1bececf5940119eafe1e87e41b3d4d13a6f3f2ab590e6404595b637ea78ed520a8582495e475c93c3ab50a26c4fae60bc94f2c2f48810eeaea78d44fe5e630060a4d29ae4c3372fb10589e8f7ff8cfb38b805572b0ef52dd76a00a6ddacc00093f255dc0021bba4674d49ae4b1d917cb8d610509351795585df8ecc08e6ec11f716305ef2964b019f92c3b63258a37e2ecc9536b1d6225a19d020e808511af1bb76a7ece6362a23243065ffb3aa4c1c2d04fb4bdeda90d0ee9b7131f5cd8ccee218903093de2e5796875b6377a54b2aa94c06807034d3f065d55dc9485bca7ab257f56ad9c72e41e73e99e553c8a264a3010085510ea7fb3fda4c4cef31a6d555ee16b6b063661d0597e7e28444c82c22ab1486d36d5ced72831088e9d3b7b75a9c33aca95518eba5b16694a6a43dfdde041aa7fa815aaac18de05beb007fb8bc7137bd9216772411fb852a614e099cec56d0332c07d098c357917d06df62d970875fc602cdc6fdea4ddbdcea927e0f06118506547f693499927cad1a55caa45d5f2d55f5f4ad44277bccc0453ea4fe9484107e18bc720c0f544e164d23f2e0d94f471408f9f6a080f523b3890a997ec5d855100069e44ca2d0a51a91f145fc9e47e052b35187a475ec377482a9296780134b6f6bf4b263d1787bcb07f9d0cbe3ed440853085a947a1232151cfb6e6efa3e87ae8765f4452d53a3d56f2034e600f891b9a8b8175d48bba1186a8456da6653b0b97d118d8cd3c12d143c343f6dff208bb55ac3a3da100a53c4a2a887b0649773f0282c29658ea7e6a5ccec953df583efe92e4835ddaa46a83cd20fc3dd0f8bcb900533b28c856e9e18a774f1109219b0768784f0aa6f79cd698d54c521080bd84892d383f20aa6fcd22748b7fb17965b44e7f71b14b94adc44378744920e6c6a956376b970c87e4544172df9d0c113d0cb20e88a0dc741ba74786b17eb224ef2ef1e8623f30fe1cfaecb0a5c6e0a951face0b10f9567567c6d3db97add01e88c23181fbe4b012095b61cb6ef1ea568ed276c7a1b031c957a253111c13d9f27b8bcaf5d93db20b20da3f5902239ea04776a82449fcd2929e779b051e76d33538b2e599cc028d96115f71064dfa283b7d2a618c19383784f3ccdb6a9d1bd8f8a24c438d4ba19db38020bdec4dd5e86ffa63e0c39fcd0e691be1fe8934f5bb6350878ff5578e7ce8a43858bfc8630e381edc94b2ad54a43724dfcace200380d8f5f418a87cd47ec0e76c68b96634b86c966ea4172b37aa4ea5beaa78828bb193d395853aabf12315b73822788a4780330333bcb66e89047a2425e9c3572551164d7af22adcb9effd1e0e29b66716b19d5ffa969dbac05d9bb8fa062535d3deb6682c0fcda0508d8b9f6eedfa2240d7466123f8ad6dae7da79ac23688404c0945063475a196ae81636f8873583d6f63cdafb1e7a9132be4794475a3035b926096c3c913bffe5818caa71cbbcb93cea392ccc9e01792044afbc929606adcab0d9f06d80b43ba1e87338d29503d3626a02be1bee24102a14bcc2c9fece3e277b37c9691a897302c839edd4dbd92ff1eeca5b0a69ce2447faa869abfa8b52e344b9180dba64bedc4c5c6353f58a3d2d05d697747fcdb2c6bba095e10943f6dfe2d879ba7a7caeeab84f7758cea8caa6e5f43d6edd10d1305736cc770000000",
  "txid": "4af9b6ff6eb4321ebc56275f3b8942a52bea965a6b7691fc1e4b7a2c83e9a19b",
  "hash": "91ec4a7d7e95bf80e2a428eb9a0da835efb7c4c8a7257bb9f5a01fd9c4cd021e",
  "size": 5085,
  "vsize": 2278,
  "version": 1,
  "locktime": 112,
  "vin": [
    {
      "txid": "102b2a1259e9049f27d06ffad2b75a2d1996cb239403fc39b1b1ef82d7eabd0a",
      "vout": 1,
      "scriptSig": {
        "asm": "",
        "hex": ""
      },
      "txinwitness": [
        "3b555a971e782b278dac68bb830ed41c876585dff283b7d21e815d5f1db337904f4eb28f59b35d4e3c1222e9eae340ad84e37c17ce89799458559b934676b6263c7ef726babdf8c6d6865b21fa6e812bd059deefb904359a6579f21c99f3368ed9a1585623830f6c3ecd10cecacc2aa00d1d207ca701e15cfe1bff3d1272b1e64ee626dbe5d1a4deab422aee8f1a881f769f7fb9128eac9be210a9739426f075a72b4e510045c3f0b3b0dd1e82bb9d68f84577a9ed336534ca166232a8fb340b5c5295312b60dd6d70db685ffc1286becf839cf56190f059ba8a1a0aa99ca049884a4bed94d0f55693d21222a115a4cca594f48e97f25c020826347bfaa9dd322f3efaaae637126d14dcc4544d2ee044b6730fea976f6af2ca027e4b0847e880df0de7427f017e12d447b40345c5e3f46d7b5b30fab23537f2369479289a9361ee8f6b0f328350bd82c81fc619806c56a70d409262420fb9e26b5b0465265762df23722129e57b75c43b9f994c8c7687fb10ebcb8b484381cecf41579467735d1145678968aae049df5320c400ff730617b6a1007c9eb38591229920e5d5ece37620611aefec554a79fec51ae0792d16d6bf67e7ab32db97ff1d581c1d99e283f6636afae1ea7f7460b643e5f75a2f21584fa32e69a98c060c3cc47cb4f6b6dbbb8f8c08b06facf74b8c9134d710ee9ddb8a44fa2938a6ce2b2653ed43c693b50fb20334dfccff7d3de11e2dfd7d25f8f8b52dc716d88cecbab34c7612c269718e64b7c0ad758c933b115f2fce29ac981b8c402494b8dbae4e27f979ee7807e87ea9fe72982a52b6fb014a4d47b9c5980a352c37e906930604cee5e7c7371054a20e3a0ddd662f40adf93bd5dcbc39dfad567c9b5a77e07efcb98f69c04d51efd4f1a2752d20489988ad860c56ed0412da445310efd189ce45a3f11626a05d0fdd38c3b207a501782b50ccfb74c833771f77dc9b667fb5abaf46c8877bc508a6f7b51972b1fc4076743ae1642deb8a9d441bf41509159dee378b4e0f58399abadebfa5aa7e636946c0d9c6beb67f32e4d46ec41624a5c50a9c1c6fa33d6f1902578927e1c84ab6ace5a3a93e141849467eb6aa22dae1fc4f40bc03c8ba9f02f688380b256544c0df6cf174fe64f10cf8a3c42b130bcb0889eea62542805ba586bfaacea7b1a37080628e1f4ebc97e016634d5df26bfe0c222c2e508638cae86eb9e3751a12d9c6211554ed19d7e524fd5486483918614b713d5e18222f7d32a00b6893453099d4ed789c844862d3660fa65caf03cc604c0c2b6cfe86d3296af38d7c62c9b677929351fcdd0c5c16f04aea85a4ae83db41a3065417f155cfeb53335bf9f44fc51094f403a696c14758036f9e09f93e45812f274dc8465749902257b9a2941a4366a9e93ecd539fa33db7efd094cbb56ce35563644949831bcae9219b3ab1376e3e084709078305652ba7f42c2cca634348d690833c26a4b4e0c8259c800172741e427ac686f7e08d2742f6fde8a3b2d3c32ceb614c3b37a9c2ae7f96e00094df665a1527733634e8fcc6de3084fc7ff1e76278e8d2cd4dddb2f5413f45698231164f49d3a9777fba56cef8d00f8d6bd52f8e87dd1603d80c5d82b6adcc28478eee195320e9444f2362afa244c4b81080dfe51f9effd0df004c21b73491ec5f1cd6d763585992119f3f29b7ae22ea58f488403a6a6bff0ea3b0e49a675ec2e9d3babeba92adde8a275c4faa0b93b56d7713f7f906bff7686cc7b781568b08574d6501bc8eb3776eae5ff626d7870aec12c4300420d0c7ca7296c4066c5f005ebb77b34d884fe98e70dd032ee15cfd4a0a2a7867dbe8f648483ece035efa34618a8ae9e009ea03fdeacdbc5f55e9806f76388bab88f02f83f384949cb6dbf301b53561d015e608afeca823bff49da3a310f1bbed70de7480c5379803c6c66c4cd112939b9d180205c267cdf75688ab4a4c34affe8d3ba6a3303c21ab1e3eefead5deeebac9eb9ebe57ca9efe4626b1dc79f5cf05e3416b5e094e46acb18ac2ba56e1ff9985dda3a4ab2e84076966a70093fe0ed94fda93a47fc836d8bb40967859cd5e0976056ac7fcb279e364eb32d0d7582fd38be03c9482ce09b867d1b24e51b7fb89fd032bb152e3e28485a15f241a005c5c82917d4d8371d2bcfa69f2f01f76382aac8ddfe205227206a46bb9b42545caaeefcd4d018504438665d996ed80ecc39c2a5eaa6e7e86445f2eb98e429c9d4f3d64d782309c48ad59dbf1539b1c312ab550d793639fde5d645d61eb63151136d3ea0afd49f65f81b7506684d5074ae0f04e5f06adf52095adf976a4645fd136ff990c252c7f71fbf30f7bb25b56eaf30b79d87104e8c3e49be92fd1334b35428a89f9204979fb74a60d8258f45d0f4d16bf64298531592845f09150f4e70dd828a7ae1c4d0907f4827d45784be2ea4c30025509a4d7748d4c32036f4a11edb2d1910fce6459feb3f3443312f0e46a720ed76bace612385d91516459a11eb2df584418acc3d9d6f39c7015089d754b4e309f93340022544717bd257d384f427ee3d51e8a34a4db82e09a6dcffbc8b1a3b04c16c719e2c2cf8f9b963e306e2e701d055918d21e54e7490f138f24531002edb0e23e5d304dadeb146bd762e2ff7841cca6eae4f3025727dd6c481dd552df8e72f309c100a7120260516827b85180382c77863087c0b0a094d3c991a19f35e273dea97a4946980ffa8436dca25e9073c2dbe08c215507161706e95b7bfe75bcd3590ae6d1014db5426cc4036b66bc4ba2d55ef9b3f56fa6180283f3a6d79781f546d73a58c9b243233c9ba9cdd04db45f57942be0cd20bdaa5ce79abb4b8182a4e6d12cbc716dfaf9bba688f2b59ad184dbb7e059c90b20fc562dac90f3beeaa9842027a0f6d6df42a727343ee1641cc6c33edb3c67c87a610273362392484139d50b90ba3dd179f4bf9cde252e3eb9d7180ae38d2c243cecfd387b9016890ab443ca483c1259656789e224854a98f319c1acbd502d9af1e9549e6b3ab7d578eebb229866fa9907e89e6fb038f578101a1236431159fea022445d60f9a12b77f476fd4ef46edb4717cc10bf7a1e32e51d9928a1b70cf74aa27cb5a54773a0b25c90b5df7e83e5625327a6bde7f96aea505b043edd226895fbfadc19acbe8a087378b4e2f7af00f82d0b293f9a19874bb6579778728ad7c6e1fe34d511c99d699ffdd1404a81d1528fd2414964267000374c9c523f35842d597445544d072606aeb229019a189d9913a7a4c7ca6411bd08c7d4372dd503020f222c575d869cadbbdedfed081629373d445a60646d8a97b7c0cce0ea2179959ea8c2caf91a333f476c7688a8a9c6ccd6e2f0f70000000000000000000000000000000000000000000000000000000d1e263501",
        "000e353e74075acd2fe1989672817b4611d3d653ee2ae1edef5a68c59b26295679effefe97e8b95adb4f1cc5e6e15b9817e0fab14b9c548439ceea701fe201f183aa262ec4ed1dfa98bc141f51e7ae8a4c47ac3c765753737bb46cc5630f28f25ac438d94c65de2b11d4537a4ff92d3058e949d87ab24c1bececf5940119eafe1e87e41b3d4d13a6f3f2ab590e6404595b637ea78ed520a8582495e475c93c3ab50a26c4fae60bc94f2c2f48810eeaea78d44fe5e630060a4d29ae4c3372fb10589e8f7ff8cfb38b805572b0ef52dd76a00a6ddacc00093f255dc0021bba4674d49ae4b1d917cb8d610509351795585df8ecc08e6ec11f716305ef2964b019f92c3b63258a37e2ecc9536b1d6225a19d020e808511af1bb76a7ece6362a23243065ffb3aa4c1c2d04fb4bdeda90d0ee9b7131f5cd8ccee218903093de2e5796875b6377a54b2aa94c06807034d3f065d55dc9485bca7ab257f56ad9c72e41e73e99e553c8a264a3010085510ea7fb3fda4c4cef31a6d555ee16b6b063661d0597e7e28444c82c22ab1486d36d5ced72831088e9d3b7b75a9c33aca95518eba5b16694a6a43dfdde041aa7fa815aaac18de05beb007fb8bc7137bd9216772411fb852a614e099cec56d0332c07d098c357917d06df62d970875fc602cdc6fdea4ddbdcea927e0f06118506547f693499927cad1a55caa45d5f2d55f5f4ad44277bccc0453ea4fe9484107e18bc720c0f544e164d23f2e0d94f471408f9f6a080f523b3890a997ec5d855100069e44ca2d0a51a91f145fc9e47e052b35187a475ec377482a9296780134b6f6bf4b263d1787bcb07f9d0cbe3ed440853085a947a1232151cfb6e6efa3e87ae8765f4452d53a3d56f2034e600f891b9a8b8175d48bba1186a8456da6653b0b97d118d8cd3c12d143c343f6dff208bb55ac3a3da100a53c4a2a887b0649773f0282c29658ea7e6a5ccec953df583efe92e4835ddaa46a83cd20fc3dd0f8bcb900533b28c856e9e18a774f1109219b0768784f0aa6f79cd698d54c521080bd84892d383f20aa6fcd22748b7fb17965b44e7f71b14b94adc44378744920e6c6a956376b970c87e4544172df9d0c113d0cb20e88a0dc741ba74786b17eb224ef2ef1e8623f30fe1cfaecb0a5c6e0a951face0b10f9567567c6d3db97add01e88c23181fbe4b012095b61cb6ef1ea568ed276c7a1b031c957a253111c13d9f27b8bcaf5d93db20b20da3f5902239ea04776a82449fcd2929e779b051e76d33538b2e599cc028d96115f71064dfa283b7d2a618c19383784f3ccdb6a9d1bd8f8a24c438d4ba19db38020bdec4dd5e86ffa63e0c39fcd0e691be1fe8934f5bb6350878ff5578e7ce8a43858bfc8630e381edc94b2ad54a43724dfcace200380d8f5f418a87cd47ec0e76c68b96634b86c966ea4172b37aa4ea5beaa78828bb193d395853aabf12315b73822788a4780330333bcb66e89047a2425e9c3572551164d7af22adcb9effd1e0e29b66716b19d5ffa969dbac05d9bb8fa062535d3deb6682c0fcda0508d8b9f6eedfa2240d7466123f8ad6dae7da79ac23688404c0945063475a196ae81636f8873583d6f63cdafb1e7a9132be4794475a3035b926096c3c913bffe5818caa71cbbcb93cea392ccc9e01792044afbc929606adcab0d9f06d80b43ba1e87338d29503d3626a02be1bee24102a14bcc2c9fece3e277b37c9691a897302c839edd4dbd92ff1eeca5b0a69ce2447faa869abfa8b52e344b9180dba64bedc4c5c6353f58a3d2d05d697747fcdb2c6bba095e10943f6dfe2d879ba7a7caeeab84f7758cea8caa6e5f43d6edd10d1305736cc7"
      ],
      "sequence": 4294967294
    }
  ],
  "vout": [
    {
      "value": 1.0,
      "n": 0,
      "scriptPubKey": {
        "asm": "OP_RETURN e4feabbc36b1b5fe9058a73e1d191374f2aacb8315fa9274ef2a234d1a6627f6 6a2365943bf4104bdb058746bd6b4cfbac8a63e05523c7969c172c0606eefdc34a0345b41bd4306bfb25a7669d4b6cdb8caa43c07503e7b6bc370c2626cedde32a6325d47bb4500b9b45c706fd2b0cbbecca23a0156387d6dc576c4646aebd830a4305f45b94702bbb65e726dd0b2c9bccea03803543a7f6fc774c66668e9da3eaa3e514bb7490cb5b8507c63debcc7b2c0ae360d5a347161c97ac86866e7d43ca83c5349b54b0eb7ba527e61dcbec5b0c2ac340f58367363cb78ca6a64e5d63aae3a554fb34d08b1bc547867dab8c3b6c4aa32095e307565cd7ecc6c62e3d038ac38574db14f0ab3be567a65d8bac1b4c6a8300b5c327767cf7cce6e60e1d236a2365943bf4104bdb058746bd6b4cfbac8a63e05523c7969c172c0606eefdc34a0345b41bd4306bfb25a7669d4b6cdb8caa43c07503e7b6bc370c2626cedde32a6325d47bb4500b9b45c706fd2b0cbbecca23a0156387d6dc576c4646aebd830a4305f45b94702bbb65e726dd0b2c9bccea03803543a7f6fc774c66668e9da3eaa3e514bb7490cb5b8507c63debcc7b2c0ae360d5a347161c97ac86866e7d43ca83c5349b54b0eb7ba527e61dcbec5b0c2ac340f58367363cb78ca6a64e5d63aae3a554fb34d08b1bc547867dab8c3b6c4aa32095e307565cd7ecc6c62e3d038ac38574db14f0ab3be567a65d8bac1b4c6a8300b5c327767cf7cce6e60e1d236a2365943bf4104bdb058746bd6b4cfbac8a63e05523c7969c172c0606eefdc34a0345b41bd4306bfb25a7669d4b6cdb8caa43c07503e7b6bc370c2626cedde32a6325d47bb4500b9b45c706fd2b0cbbecca23a0156387d6dc576c4646aebd830a4305f45b94702bbb65e726dd0b2c9bccea03803543a7f6fc774c66668e9da3eaa3e514bb7490cb5b8507c63debcc7b2c0ae360d5a347161c97ac86866e7d43ca83c5349b54b0eb7ba527e61dcbec5b0c2ac340f58367363cb78ca6a64e5d63aae3a554fb34d08b1bc547867dab8c3b6c4aa32095e307565cd7ecc6c62e3d038ac38574db14f0ab3be567a65d8bac1b4c6a8300b5c327767cf7cce6e60e1d236a2365943bf4104bdb058746bd6b4cfbac8a63e05523c7969c172c0606eefdc34a0345b41bd4306bfb25a7669d4b6cdb8caa43c07503e7b6bc370c2626cedde32a6325d47bb4500b9b45c706fd2b0cbbecca23a0156387d6dc576c4646aebd830a4305f45b94702bbb65e726dd0b2c9bccea03803543a7f6fc774c66668e9da3eaa3e514bb7490cb5b8507c63debcc7b2c0ae360d5a347161c97ac86866e7d43ca83c5349b54b0eb7ba527e61dcbec5b0c2ac340f58367363cb78ca6a64e5d63aae3a554fb34d08b1bc547867dab8c3b6c4aa32095e307565cd7ecc6c62e3d038ac38574db14f0ab3be567a65d8bac1b4c6a8300b5c327767cf7cce6e60e1d236a2365943bf4104bdb058746bd6b4cfbac8a63e05523c7969c172c0606eefdc34a0345b41bd4306bfb25a7669d4b6cdb8caa43c07503e7b6bc370c2626cedde32a6325d47bb4500b9b45c706fd2b0cbbecca23a0156387d6dc576c4646aebd830a4305f45b94702bbb65e726dd0b2c9bccea03803543a7f6fc774c66668e9da3eaa3e514bb7490cb5b8507c63debcc7b5ae3a1ed726e099d2d9972e83afc46cbf159e7a106c183b2c74576000fbb588f",
        "hex": "6a20e4feabbc36b1b5fe9058a73e1d191374f2aacb8315fa9274ef2a234d1a6627f64db0046a2365943bf4104bdb058746bd6b4cfbac8a63e05523c7969c172c0606eefdc34a0345b41bd4306bfb25a7669d4b6cdb8caa43c07503e7b6bc370c2626cedde32a6325d47bb4500b9b45c706fd2b0cbbecca23a0156387d6dc576c4646aebd830a4305f45b94702bbb65e726dd0b2c9bccea03803543a7f6fc774c66668e9da3eaa3e514bb7490cb5b8507c63debcc7b2c0ae360d5a347161c97ac86866e7d43ca83c5349b54b0eb7ba527e61dcbec5b0c2ac340f58367363cb78ca6a64e5d63aae3a554fb34d08b1bc547867dab8c3b6c4aa32095e307565cd7ecc6c62e3d038ac38574db14f0ab3be567a65d8bac1b4c6a8300b5c327767cf7cce6e60e1d236a2365943bf4104bdb058746bd6b4cfbac8a63e05523c7969c172c0606eefdc34a0345b41bd4306bfb25a7669d4b6cdb8caa43c07503e7b6bc370c2626cedde32a6325d47bb4500b9b45c706fd2b0cbbecca23a0156387d6dc576c4646aebd830a4305f45b94702bbb65e726dd0b2c9bccea03803543a7f6fc774c66668e9da3eaa3e514bb7490cb5b8507c63debcc7b2c0ae360d5a347161c97ac86866e7d43ca83c5349b54b0eb7ba527e61dcbec5b0c2ac340f58367363cb78ca6a64e5d63aae3a554fb34d08b1bc547867dab8c3b6c4aa32095e307565cd7ecc6c62e3d038ac38574db14f0ab3be567a65d8bac1b4c6a8300b5c327767cf7cce6e60e1d236a2365943bf4104bdb058746bd6b4cfbac8a63e05523c7969c172c0606eefdc34a0345b41bd4306bfb25a7669d4b6cdb8caa43c07503e7b6bc370c2626cedde32a6325d47bb4500b9b45c706fd2b0cbbecca23a0156387d6dc576c4646aebd830a4305f45b94702bbb65e726dd0b2c9bccea03803543a7f6fc774c66668e9da3eaa3e514bb7490cb5b8507c63debcc7b2c0ae360d5a347161c97ac86866e7d43ca83c5349b54b0eb7ba527e61dcbec5b0c2ac340f58367363cb78ca6a64e5d63aae3a554fb34d08b1bc547867dab8c3b6c4aa32095e307565cd7ecc6c62e3d038ac38574db14f0ab3be567a65d8bac1b4c6a8300b5c327767cf7cce6e60e1d236a2365943bf4104bdb058746bd6b4cfbac8a63e05523c7969c172c0606eefdc34a0345b41bd4306bfb25a7669d4b6cdb8caa43c07503e7b6bc370c2626cedde32a6325d47bb4500b9b45c706fd2b0cbbecca23a0156387d6dc576c4646aebd830a4305f45b94702bbb65e726dd0b2c9bccea03803543a7f6fc774c66668e9da3eaa3e514bb7490cb5b8507c63debcc7b2c0ae360d5a347161c97ac86866e7d43ca83c5349b54b0eb7ba527e61dcbec5b0c2ac340f58367363cb78ca6a64e5d63aae3a554fb34d08b1bc547867dab8c3b6c4aa32095e307565cd7ecc6c62e3d038ac38574db14f0ab3be567a65d8bac1b4c6a8300b5c327767cf7cce6e60e1d236a2365943bf4104bdb058746bd6b4cfbac8a63e05523c7969c172c0606eefdc34a0345b41bd4306bfb25a7669d4b6cdb8caa43c07503e7b6bc370c2626cedde32a6325d47bb4500b9b45c706fd2b0cbbecca23a0156387d6dc576c4646aebd830a4305f45b94702bbb65e726dd0b2c9bccea03803543a7f6fc774c66668e9da3eaa3e514bb7490cb5b8507c63debcc7b5ae3a1ed726e099d2d9972e83afc46cbf159e7a106c183b2c74576000fbb588f",
        "type": "nulldata"
      }
    },
    {
      "value": 499985.7634,
      "n": 1,
      "scriptPubKey": {
        "asm": "1 94627bc00e4e1437f38e39724a38019bff74ec25c40488cefd4e2d91841bfa1f",
        "hex": "512094627bc00e4e1437f38e39724a38019bff74ec25c40488cefd4e2d91841bfa1f",
        "reqSigs": 1,
        "type": "witness_v1_scripthash",
        "addresses": [
          "3QJmnh"
        ]
      }
    }
  ],
  "blockhash": "0588000bb82f4b14ca9e4626330a5c84a7bb9e1c31fd2ade5c3732d80cc4fd85",
  "confirmations": 1,
  "time": 1764178356,
  "blocktime": 1764178356
}