{
  "hex": "010000000001019dd8b1167027c675151e2ffdca77056b777d02e03952cf057969da53b98408340000000000feffffff0200e1f50500000000fdd5046a20ae786e207774869ef58d582a0c05b063431cc55c6f1edf6755c70ec193706fe94db0047e9a7cecd59cd803cb982283f15873ee48946131d5a759524643ebfe59e83a955eba5cccf5bcf823ebb802a3d17853ce68b44111f58779726663cbde79c81ab53eda3cac95dc98438bd862c3b11833ae08d4217195e719120603abbe19a87ad51efa1c8cb5fcb863abf842e39138138e28f40151b5c7393226238b9e39885af5fe1afc6c551c58834b18a20371d8f36ec814e1b15527d9d2c6c36b7ed968ba15de3adc4c753c78a36b38822351f8d34ee834c1917507f9f2e6e34b5ef9489a35be5abc2c155c18c30b58e2433198b32e8854a1f11567999286832b3e9928fa559e7a9c0c357c38e32b78c26311b8930ea87481d13547b9b2a6a30b1eb908da757e9a7cecd59cd803cb982283f15873ee48946131d5a759524643ebfe59e83a955eba5cccf5bcf823ebb802a3d17853ce68b44111f58779726663cbde79c81ab53eda3cac95dc98438bd862c3b11833ae08d4217195e719120603abbe19a87ad51efa1c8cb5fcb863abf842e39138138e28f40151b5c7393226238b9e39885af5fe1afc6c551c58834b18a20371d8f36ec814e1b15527d9d2c6c36b7ed968ba15de3adc4c753c78a36b38822351f8d34ee834c1917507f9f2e6e34b5ef9489a35be5abc2c155c18c30b58e2433198b32e8854a1f11567999286832b3e9928fa559e7a9c0c357c38e32b78c26311b8930ea87481d13547b9b2a6a30b1eb908da757e9a7cecd59cd803cb982283f15873ee48946131d5a759524643ebfe59e83a955eba5cccf5bcf823ebb802a3d17853ce68b44111f58779726663cbde79c81ab53eda3cac95dc98438bd862c3b11833ae08d4217195e719120603abbe19a87ad51efa1c8cb5fcb863abf842e39138138e28f40151b5c7393226238b9e39885af5fe1afc6c551c58834b18a20371d8f36ec814e1b15527d9d2c6c36b7ed968ba15de3adc4c753c78a36b38822351f8d34ee834c1917507f9f2e6e34b5ef9489a35be5abc2c155c18c30b58e2433198b32e8854a1f11567999286832b3e9928fa559e7a9c0c357c38e32b78c26311b8930ea87481d13547b9b2a6a30b1eb908da757e9a7cecd59cd803cb982283f15873ee48946131d5a759524643ebfe59e83a955eba5cccf5bcf823ebb802a3d17853ce68b44111f58779726663cbde79c81ab53eda3cac95dc98438bd862c3b11833ae08d4217195e719120603abbe19a87ad51efa1c8cb5fcb863abf842e39138138e28f40151b5c7393226238b9e39885af5fe1afc6c551c58834b18a20371d8f36ec814e1b15527d9d2c6c36b7ed968ba15de3adc4c753c78a36b38822351f8d34ee834c1917507f9f2e6e34b5ef9489a35be5abc2c155c18c30b58e2433198b32e8854a1f11567999286832b3e9928fa559e7a9c0c357c38e32b78c26311b8930ea87481d13547b9b2a6a30b1eb908da757e9a7cecd59cd803cb982283f15873ee48946131d5a759524643ebfe59e83a955eba5cccf5bcf823ebb802a3d17853ce68b44111f58779726663cbde79c81ab53eda3cac95dc98438bd862c3b11833ae08d4217195e719120603abbe19a87ad51efa1c8cb5fcb863abf842e39138138e28f40151b5c7393226238b9e39885af5fe1afc6c551c58834b18a20371d8f36e6e4b10ffddb36ee1f26b1d63145fb0b426ecee6fec592da1d52ebf19b791a4f9e021231b792d0000225120ab79b23fa6d89c50d67dba80c15cab267e9bee66d92fd7c78271ad2b61a12fd102fd7509db13cb27bc895710b36fbf1b72ddea52f42660e4f4604da54c3e5d7e948ac59a5075aa03b0d834f3bb084969f1a730566a7620e159c676374e83bb50bf985aaa956783051230f1c88b1d22800e7d541b3cbd8ae907ff506e6aeab0060412af3490e0abcaf63b2847b02b20a8dc0faf104f94f11d4621ca71c661d71ffebc732e0c3bf5cd34d4dbc21eb168c466d46832e112405103bbf8f0db6ec1706d5fac359aa499da9ed7a0e006dc42e98b158fc69bd1a4f96ebba37da29224de73ba161d2ed3dc50ac2798399be24a3bbf9b9e2b334b903f997e56c168e4dc9a74be98dcf117207ebbb73eef1d5ef4cad6618f983801a98f11618400e780af982ee46923467be755ccd90a1dbfbfde4c682632c757744fddfb33c9c3e3ed5abe11bcdd1b2f9fecd88860e728779fd568b1ba9b6d17fa003ef26e2e82102f6d1eb0c49e1c634a394f7f645825afac41fd3d1fa9ec53c838424b7b6595b0f4302a96e150c9a30d6ca25baae7a6bdcc4fa75ee075ec4ef8c4628ac4c69a92e70672be5f03b5886ef98be86d9f70eb7f66d68829c6bb4e54e93e38b8f56865f2fe0228c58a4e0265b2bee7bb1745fa6e7490f4b162f0ec540bcf87791a371260cac2c06424e280d95349b65f5a464d1c727a4c2128a825926e6280998671db8e3f94abf2f4a1c33c2b2fd720ce12d29e69d2d029a398102f6a5d9c26c61c392e7a3ead2515631328b87d08768536eff26a23fecfe316efaa160c84ec4fa779a5d1a8449ec5678ebdfbbf4c0d5918e5dcb815698a8efd6e210a1628075a1a4efe9061905f01bdfd1217bb8e0f55867fd3e210f1c66bd6b43be99218d8d383a9ac892258a50f532fd4440f2ac1046f261e9fe674b4a97fd907247b4e1047adca499bd5b758b2c9bc936740d65fa8a3a6a6cdff5987db10f7760e19fd8d077b5742298d0d93f7befcdec380eadddda2f45de71cc9461ab624f667dcd8f36b9b8ffd3f1fdb29ea750e965ec8ec37563e02483e789bb8c960f2a042fb8d3db62070d5bf8e35fb5851b86e8fa12833223743bf14fbf2962e5fb556d251cc8fe4af8d11d2eedebd30bfa7ff41a27341eba7c20faa882e03700336c6331720bfe74ea28def9ff3daf4a376a0e8491b146c394a88ac7c564a5412dcfedd26afc70c37d39b971d0de155737f24872893bf12a765f34203e940e05a6c48dc7892b9f02e90c97e3bd94dd0e2f7d5a420b4d38cda02f51c07fab538fd24b6e7a2897fc40749fe7418e625a85a577a801efa2672bd98db8cd3ee7162254b3e6a7019183bd39965786eb825baca5f28410a91a55d00132f06a8d74def62e26a4c7318c7f7d111c8b3949e66b305d0fbca4aed05e2469a04e4a2fcb9331095343bc6acaa8c9f2c93ed70f32d69f8fd76fc482c3c7788acfdfce08ab63fbec9cffa7269ef19be83c226f8596a27040951ecd919a33e0f633d1deac1dfa9219b666018047fb0625974c29a6d3abd295cafb3986b6055c7c62cb48e362f00224ad14cff456b0f5e037b9c35e5d4bc8801d2636498bf9ca4258a3dcd87feec1beee06670853290284116e839ce333eae05aa3234885de203639d12586b7f168e6509d5b6c545bf214218e8105a717b76dae48100f2cc3aad34b2d007ce4e360626ab18125291f1c673428b726d724665f8c6692ab6c12fe4d87d6704009400a78d3b3e5533ca42366917230ba4b787711b4d7c9ff92ffc4984e38e29e6fc5fa07e8131cff99ec31e05f23c82632f232eb30a597023be0afb2a251ceb11093be0fac2f4e535a58bb79ba5408df28911b57304ca796a28e7067d6f26b29f5ef92b644ed6c53f04d9139f73c86cd94b80b928da49cdd78fba0f7ac7a9c2bcd6fe17c606e168ec21abe98f0bb4597fb18414d6b07f7f26a134b12eafc70f669dab18d5fef6479027f81a3dc157b0bc16018528f6259f14aa72d5eaee1a80c8e0ee04cbbbbbee121a34347adb38da0d3ecb1bd2034a0b30521847a94826fdd2638331a49c82aa0a4e0bb687d08ebe5e2fb74f241786041dea7051468508b4d23ead8f3711040198a5808d26f2f1ed85c61b139356fdde347c5c9567c4b20c4813f329f9adfc2a4b16925d32ec4367c4621cf6d010d0563f18510d8110e85d016d500160ffddf940cb1aa60ae87e39a7632bb50716876c5ca0c63032dd1f8f2d5988d6e4a21560b517f503e56ea5deb15d31661bb9b246ce824ac257a0a6adff103b65f40383fe847f9faed7803e7ef229421069df02477d09910c6436dc6427b9e5d5aa1d1897b8654c9ebf60b5255185528b4b177c19899e1482ffe949f071524e06847539e1bddcff8419d00313823494077b99f3aeb4fa2103264ff6fe70087291734461aab49523fd1e70d2ee0af117b1a85066406cc4ff1fc9a6f3437ba68b699cbf84404eeafd42ceb8756d244f7ce67acb21bfe817c2f53f51998d034d5df02481af796a2bba39ddfc01dbcd64d2e3a7c65c311b92203401ecdb2549bfdcff0426eb471c8fa9a9325fda57ff4bd57d057f9ac6fa50a6663d8a982fde57b2a9809228b05b36ace6b4d77fa94b0d6da7504ed84fb91e1cd99bd8421f342dba15ab6389494bd8ef652a5902c4a63c46bfa266af1b1868471d872227e1b031f62cfb8adff620615de88593e1deb75b068fec652e85ab10fe2ae8efc127393baf6c453995494640cd610197d3d9260409c8ab6e52ace79a524bff09601a63fde3a584d2eea5eedd06415d4ae81b454d199f6fe78576f9e8ad28ae6c88a07f9f53b59c4525b1800da83eefd2f6a3cfb3c80ab7b33120a9d2d107dea352162ddc5547c0c22ded46eee16ed75571e8827242f55104ad4a343a87ca0a94494a735186043b72ddea313cade504e21932cdf8e6a42d903b724b5268fbbe84c72f632a0b97dbc98d1079d7b3d697df937fdcb14e7b28d53fb7a844b7ab5b1fe139af6ed9e1a6de8a1a3f55399f7c1d793d339c41eddb198e8913bcea4f5ce6bf7554c563feaecd499911d9d495e971f744096ddfa6e50bfe16a7b972106cebb42a11886119943f63f891ef6acd4636ceae2744664f823d22da8fd40db6fb5db979c068a911921652f6883a91279113b4a8be45b83cd61a2693b296b508a61f58c493da48ec6896c779547050e9b86d59973318ba4bba4a1d30b5f2d64c9b910bc99d2559ccb22576745fbec4655830b7ad8e30265aa8621bebcfde782ee7c5efc50302c984bab2ff0e77849764b9261ccfd42a995aa8995184c5ff9c582840934f14edc4f5e032dfa2c33b91cde87736756d37445d0e1b393e4044545c7e868e93d7010d1834446297f1172b2c50515388c7e3e4e8f6f913192e38506c787f9db10000000000000000000000000000000000000000000000000000000000000000000000000d15222c01fd2105001165cbcb0883066376cb603fc9f47e196821415e70e82df0ea4ec33203529ca641ccbaa6a0452db98ddb5b520a49da56e880ed91ac4016ba1fa57cc098ef28b5dc4e092f5f54c79aecb5812b322ba147a136ca81d86930cf9d8ce84ff041fb0e2db02c5951d49e11fbe05715f87b221d02cb731885a8135e166aca83838d1c2054cb476d279a6a0b58219736f59bb3b09b7cd99c3aff9e5b796dc2612f39355d60673848d3dd097b5f62479b26a053f16404a3bf121e3389851f26a6f493274c494a40e1316454e8933b9fb310bc16973ea81fd74aac3a5e26724aad5c5ac35ce2b629cd8af5e746759d01a288c37a7711d7d980a2400f0eb9a5bbf21fc4d8e052d26556b5b877720cbeb886ade87f365ba0b9d0e7409549450a7ca65dee8c4a9e3523732c540d5de0d634f21c1af1718de6dbedbba600484c3d8b53055f6b95db4f4ccf9182e6691db7be757aa39c6508f8d56444762d566f7f981e0b1b0604169eb9b9be3015ef1eaa28e798439d7f1e268a39cb6a655744e463c78a0039813e1565962174db5b9a04549ed5a6382bf6b3ba1ff37a1af3ca34e003ec065f1937f1c54f2b2b14dc68bb6559e621bb59d94842809d9a945e429a057982c3bbef59243f85355a50b315d432c7ca37414523ee9f29a23d3abf9e0d36ec56e01e15c54367a4308679e26736a5ee810133fb307f8178633202b3272348ea69caa6c7e8f74dc2f2c9de99595f661182e0f0a9e6ecfb3d2101f53a36793e74f095f7f7063fa218f31cc7523c7daf6de5ab29bb780cdb7ac0a0fad69cb8a9014699ba47c7c9185f2ce5e6cd69a36db8e345d2aa6c41086d093608945c0a721e6ae2f859902e9798d24f5e8bf5bc4580e60893a85eccf0fa39d520fc3bd2054accfa9bbe8e38aa43a4c13c188bb53cce25cba2cfba5ce6499ab44e33682cf7170fc93e2feb34cab2221f141dbac3c570cfae7275c1e84c4d41ee10be9cf9aa33b47082a07c07df5457fe8b3b96229c98c542df8e909781be6e19c8240d39ae5fc64a8339d9d24a5e16fe9c4c0ecf7c3ae90afa1b2dcb8e840bc5d6fe1df7b8bf2b9c99e42d8fef9296483d0ea828aeb34e9b015e9c866d9adaa663208cfb5d8653baeb7fafc93f02dccc2e48f48d76b67d89904805679ca37f1ce2c04dc63cadf672ce5ac8ecb1d74c8791061763510d0259c5525aa346c22b05387c0547c4ee5d8f576ed5d0658ba48b49f23a735b68ed4fca9511ecd0f21c91ea8214a61da9ec6707995764b5ab095b8bc6251c5ac698d39cbbb8a8110835c72c37862325276b1875453a869abd32301bc86bc81c9ed49f204c220e0acbcee6b118d3d64e79a3248b5a31f9610e5c5ff8066d76dd9a321437541bd0ae05cd168d6f30b0e7b566fb01850aae2cc5e5fba2dada526d0f2fc7664a67018897eaade5a78bbcda888ac226bad906accc1a07d1cf72221f609d612d6059dac12a3afa89ee0391c77d1963c7cb5033e1126aeeb35f6ea1c290a3c6fad5ef55f520c45625aee659da4408ade6772a9331f9fe3db6a60defcd63821201280e1dbc20e0b4dc102de51a54c9b95ba2f92b6e0cfa9d1726bf2eeac80421335ed7c0a96894184d45f8340764f47ed1aa22f78b87e8e265dfb389f616d66a782ef9b1794f613c84b58b781fd47916a969227c9959385f28768b3e349cc4af7b308315f2bbdaf01773cf65f1f1ebfdd3fae41ad77607931bc223f44dd5feb597b5d26f0e013080d0c134a1bfd60c2dfb8ee64327fdf36c9bedd2324a940edbee1828a941248a5069e328468b85fc6a9c54951af6cac19f43b54dcd427ce180932acd4b1e3694bcc43223114bfb76c7ad3574000000",
  "txid": "40a95c1a40ad98a42e44b8ae01112c4ec8da8efd8fe1ff249df0e9c1fb9b62df",
  "hash": "6ab47eea66c3712306b03f0fa9b7290af3a55e06406efb9371f5b75c63c1eb8f",
  "size": 5085,
  "vsize": 2278,
  "version": 1,
  "locktime": 116,
  "vin": [
    {
      "txid": "340884b953da697905cf5239e0027d776b0577cafd2f1e1575c6277016b1d89d",
      "vout": 0,
      "scriptSig": {
        "asm": "",
        "hex": ""
      },
      "txinwitness": [
        "db13cb27bc895710b36fbf1b72ddea52f42660e4f4604da54c3e5d7e948ac59a5075aa03b0d834f3bb084969f1a730566a7620e159c676374e83bb50bf985aaa956783051230f1c88b1d22800e7d541b3cbd8ae907ff506e6aeab0060412af3490e0abcaf63b2847b02b20a8dc0faf104f94f11d4621ca71c661d71ffebc732e0c3bf5cd34d4dbc21eb168c466d46832e112405103bbf8f0db6ec1706d5fac359aa499da9ed7a0e006dc42e98b158fc69bd1a4f96ebba37da29224de73ba161d2ed3dc50ac2798399be24a3bbf9b9e2b334b903f997e56c168e4dc9a74be98dcf117207ebbb73eef1d5ef4cad6618f983801a98f11618400e780af982ee46923467be755ccd90a1dbfbfde4c682632c757744fddfb33c9c3e3ed5abe11bcdd1b2f9fecd88860e728779fd568b1ba9b6d17fa003ef26e2e82102f6d1eb0c49e1c634a394f7f645825afac41fd3d1fa9ec53c838424b7b6595b0f4302a96e150c9a30d6ca25baae7a6bdcc4fa75ee075ec4ef8c4628ac4c69a92e70672be5f03b5886ef98be86d9f70eb7f66d68829c6bb4e54e93e38b8f56865f2fe0228c58a4e0265b2bee7bb1745fa6e7490f4b162f0ec540bcf87791a371260cac2c06424e280d95349b65f5a464d1c727a4c2128a825926e6280998671db8e3f94abf2f4a1c33c2b2fd720ce12d29e69d2d029a398102f6a5d9c26c61c392e7a3ead2515631328b87d08768536eff26a23fecfe316efaa160c84ec4fa779a5d1a8449ec5678ebdfbbf4c0d5918e5dcb815698a8efd6e210a1628075a1a4efe9061905f01bdfd1217bb8e0f55867fd3e210f1c66bd6b43be99218d8d383a9ac892258a50f532fd4440f2ac1046f261e9fe674b4a97fd907247b4e1047adca499bd5b758b2c9bc936740d65fa8a3a6a6cdff5987db10f7760e19fd8d077b5742298d0d93f7befcdec380eadddda2f45de71cc9461ab624f667dcd8f36b9b8ffd3f1fdb29ea750e965ec8ec37563e02483e789bb8c960f2a042fb8d3db62070d5bf8e35fb5851b86e8fa12833223743bf14fbf2962e5fb556d251cc8fe4af8d11d2eedebd30bfa7ff41a27341eba7c20faa882e03700336c6331720bfe74ea28def9ff3daf4a376a0e8491b146c394a88ac7c564a5412dcfedd26afc70c37d39b971d0de155737f24872893bf12a765f34203e940e05a6c48dc7892b9f02e90c97e3bd94dd0e2f7d5a420b4d38cda02f51c07fab538fd24b6e7a2897fc40749fe7418e625a85a577a801efa2672bd98db8cd3ee7162254b3e6a7019183bd39965786eb825baca5f28410a91a55d00132f06a8d74def62e26a4c7318c7f7d111c8b3949e66b305d0fbca4aed05e2469a04e4a2fcb9331095343bc6acaa8c9f2c93ed70f32d69f8fd76fc482c3c7788acfdfce08ab63fbec9cffa7269ef19be83c226f8596a27040951ecd919a33e0f633d1deac1dfa9219b666018047fb0625974c29a6d3abd295cafb3986b6055c7c62cb48e362f00224ad14cff456b0f5e037b9c35e5d4bc8801d2636498bf9ca4258a3dcd87feec1beee06670853290284116e839ce333eae05aa3234885de203639d12586b7f168e6509d5b6c545bf214218e8105a717b76dae48100f2cc3aad34b2d007ce4e360626ab18125291f1c673428b726d724665f8c6692ab6c12fe4d87d6704009400a78d3b3e5533ca42366917230ba4b787711b4d7c9ff92ffc4984e38e29e6fc5fa07e8131cff99ec31e05f23c82632f232eb30a597023be0afb2a251ceb11093be0fac2f4e535a58bb79ba5408df28911b57304ca796a28e7067d6f26b29f5ef92b644ed6c53f04d9139f73c86cd94b80b928da49cdd78fba0f7ac7a9c2bcd6fe17c606e168ec21abe98f0bb4597fb18414d6b07f7f26a134b12eafc70f669dab18d5fef6479027f81a3dc157b0bc16018528f6259f14aa72d5eaee1a80c8e0ee04cbbbbbee121a34347adb38da0d3ecb1bd2034a0b30521847a94826fdd2638331a49c82aa0a4e0bb687d08ebe5e2fb74f241786041dea7051468508b4d23ead8f3711040198a5808d26f2f1ed85c61b139356fdde347c5c9567c4b20c4813f329f9adfc2a4b16925d32ec4367c4621cf6d010d0563f18510d8110e85d016d500160ffddf940cb1aa60ae87e39a7632bb50716876c5ca0c63032dd1f8f2d5988d6e4a21560b517f503e56ea5deb15d31661bb9b246ce824ac257a0a6adff103b65f40383fe847f9faed7803e7ef229421069df02477d09910c6436dc6427b9e5d5aa1d1897b8654c9ebf60b5255185528b4b177c19899e1482ffe949f071524e06847539e1bddcff8419d00313823494077b99f3aeb4fa2103264ff6fe70087291734461aab49523fd1e70d2ee0af117b1a85066406cc4ff1fc9a6f3437ba68b699cbf84404eeafd42ceb8756d244f7ce67acb21bfe817c2f53f51998d034d5df02481af796a2bba39ddfc01dbcd64d2e3a7c65c311b92203401ecdb2549bfdcff0426eb471c8fa9a9325fda57ff4bd57d057f9ac6fa50a6663d8a982fde57b2a9809228b05b36ace6b4d77fa94b0d6da7504ed84fb91e1cd99bd8421f342dba15ab6389494bd8ef652a5902c4a63c46bfa266af1b1868471d872227e1b031f62cfb8adff620615de88593e1deb75b068fec652e85ab10fe2ae8efc127393baf6c453995494640cd610197d3d9260409c8ab6e52ace79a524bff09601a63fde3a584d2eea5eedd06415d4ae81b454d199f6fe78576f9e8ad28ae6c88a07f9f53b59c4525b1800da83eefd2f6a3cfb3c80ab7b33120a9d2d107dea352162ddc5547c0c22ded46eee16ed75571e8827242f55104ad4a343a87ca0a94494a735186043b72ddea313cade504e21932cdf8e6a42d903b724b5268fbbe84c72f632a0b97dbc98d1079d7b3d697df937fdcb14e7b28d53fb7a844b7ab5b1fe139af6ed9e1a6de8a1a3f55399f7c1d793d339c41eddb198e8913bcea4f5ce6bf7554c563feaecd499911d9d495e971f744096ddfa6e50bfe16a7b972106cebb42a11886119943f63f891ef6acd4636ceae2744664f823d22da8fd40db6fb5db979c068a911921652f6883a91279113b4a8be45b83cd61a2693b296b508a61f58c493da48ec6896c779547050e9b86d59973318ba4bba4a1d30b5f2d64c9b910bc99d2559ccb22576745fbec4655830b7ad8e30265aa8621bebcfde782ee7c5efc50302c984bab2ff0e77849764b9261ccfd42a995aa8995184c5ff9c582840934f14edc4f5e032dfa2c33b91cde87736756d37445d0e1b393e4044545c7e868e93d7010d1834446297f1172b2c50515388c7e3e4e8f6f913192e38506c787f9db10000000000000000000000000000000000000000000000000000000000000000000000000d15222c01",
        "001165cbcb0883066376cb603fc9f47e196821415e70e82df0ea4ec33203529ca641ccbaa6a0452db98ddb5b520a49da56e880ed91ac4016ba1fa57cc098ef28b5dc4e092f5f54c79aecb5812b322ba147a136ca81d86930cf9d8ce84ff041fb0e2db02c5951d49e11fbe05715f87b221d02cb731885a8135e166aca83838d1c2054cb476d279a6a0b58219736f59bb3b09b7cd99c3aff9e5b796dc2612f39355d60673848d3dd097b5f62479b26a053f16404a3bf121e3389851f26a6f493274c494a40e1316454e8933b9fb310bc16973ea81fd74aac3a5e26724aad5c5ac35ce2b629cd8af5e746759d01a288c37a7711d7d980a2400f0eb9a5bbf21fc4d8e052d26556b5b877720cbeb886ade87f365ba0b9d0e7409549450a7ca65dee8c4a9e3523732c540d5de0d634f21c1af1718de6dbedbba600484c3d8b53055f6b95db4f4ccf9182e6691db7be757aa39c6508f8d56444762d566f7f981e0b1b0604169eb9b9be3015ef1eaa28e798439d7f1e268a39cb6a655744e463c78a0039813e1565962174db5b9a04549ed5a6382bf6b3ba1ff37a1af3ca34e003ec065f1937f1c54f2b2b14dc68bb6559e621bb59d94842809d9a945e429a057982c3bbef59243f85355a50b315d432c7ca37414523ee9f29a23d3abf9e0d36ec56e01e15c54367a4308679e26736a5ee810133fb307f8178633202b3272348ea69caa6c7e8f74dc2f2c9de99595f661182e0f0a9e6ecfb3d2101f53a36793e74f095f7f7063fa218f31cc7523c7daf6de5ab29bb780cdb7ac0a0fad69cb8a9014699ba47c7c9185f2ce5e6cd69a36db8e345d2aa6c41086d093608945c0a721e6ae2f859902e9798d24f5e8bf5bc4580e60893a85eccf0fa39d520fc3bd2054accfa9bbe8e38aa43a4c13c188bb53cce25cba2cfba5ce6499ab44e33682cf7170fc93e2feb34cab2221f141dbac3c570cfae7275c1e84c4d41ee10be9cf9aa33b47082a07c07df5457fe8b3b96229c98c542df8e909781be6e19c8240d39ae5fc64a8339d9d24a5e16fe9c4c0ecf7c3ae90afa1b2dcb8e840bc5d6fe1df7b8bf2b9c99e42d8fef9296483d0ea828aeb34e9b015e9c866d9adaa663208cfb5d8653baeb7fafc93f02dccc2e48f48d76b67d89904805679ca37f1ce2c04dc63cadf672ce5ac8ecb1d74c8791061763510d0259c5525aa346c22b05387c0547c4ee5d8f576ed5d0658ba48b49f23a735b68ed4fca9511ecd0f21c91ea8214a61da9ec6707995764b5ab095b8bc6251c5ac698d39cbbb8a8110835c72c37862325276b1875453a869abd32301bc86bc81c9ed49f204c220e0acbcee6b118d3d64e79a3248b5a31f9610e5c5ff8066d76dd9a321437541bd0ae05cd168d6f30b0e7b566fb01850aae2cc5e5fba2dada526d0f2fc7664a67018897eaade5a78bbcda888ac226bad906accc1a07d1cf72221f609d612d6059dac12a3afa89ee0391c77d1963c7cb5033e1126aeeb35f6ea1c290a3c6fad5ef55f520c45625aee659da4408ade6772a9331f9fe3db6a60defcd63821201280e1dbc20e0b4dc102de51a54c9b95ba2f92b6e0cfa9d1726bf2eeac80421335ed7c0a96894184d45f8340764f47ed1aa22f78b87e8e265dfb389f616d66a782ef9b1794f613c84b58b781fd47916a969227c9959385f28768b3e349cc4af7b308315f2bbdaf01773cf65f1f1ebfdd3fae41ad77607931bc223f44dd5feb597b5d26f0e013080d0c134a1bfd60c2dfb8ee64327fdf36c9bedd2324a940edbee1828a941248a5069e328468b85fc6a9c54951af6cac19f43b54dcd427ce180932acd4b1e3694bcc43223114bfb76c7ad35"
      ],
      "sequence": 4294967294
    }
  ],
  "vout": [
    {
      "value": 1.0,
      "n": 0,
      "scriptPubKey": {
        "asm": "OP_RETURN ae786e207774869ef58d582a0c05b063431cc55c6f1edf6755c70ec193706fe9 7e9a7cecd59cd803cb982283f15873ee48946131d5a759524643ebfe59e83a955eba5cccf5bcf823ebb802a3d17853ce68b44111f58779726663cbde79c81ab53eda3cac95dc98438bd862c3b11833ae08d4217195e719120603abbe19a87ad51efa1c8cb5fcb863abf842e39138138e28f40151b5c7393226238b9e39885af5fe1afc6c551c58834b18a20371d8f36ec814e1b15527d9d2c6c36b7ed968ba15de3adc4c753c78a36b38822351f8d34ee834c1917507f9f2e6e34b5ef9489a35be5abc2c155c18c30b58e2433198b32e8854a1f11567999286832b3e9928fa559e7a9c0c357c38e32b78c26311b8930ea87481d13547b9b2a6a30b1eb908da757e9a7cecd59cd803cb982283f15873ee48946131d5a759524643ebfe59e83a955eba5cccf5bcf823ebb802a3d17853ce68b44111f58779726663cbde79c81ab53eda3cac95dc98438bd862c3b11833ae08d4217195e719120603abbe19a87ad51efa1c8cb5fcb863abf842e39138138e28f40151b5c7393226238b9e39885af5fe1afc6c551c58834b18a20371d8f36ec814e1b15527d9d2c6c36b7ed968ba15de3adc4c753c78a36b38822351f8d34ee834c1917507f9f2e6e34b5ef9489a35be5abc2c155c18c30b58e2433198b32e8854a1f11567999286832b3e9928fa559e7a9c0c357c38e32b78c26311b8930ea87481d13547b9b2a6a30b1eb908da757e9a7cecd59cd803cb982283f15873ee48946131d5a759524643ebfe59e83a955eba5cccf5bcf823ebb802a3d17853ce68b44111f58779726663cbde79c81ab53eda3cac95dc98438bd862c3b11833ae08d4217195e719120603abbe19a87ad51efa1c8cb5fcb863abf842e39138138e28f40151b5c7393226238b9e39885af5fe1afc6c551c58834b18a20371d8f36ec814e1b15527d9d2c6c36b7ed968ba15de3adc4c753c78a36b38822351f8d34ee834c1917507f9f2e6e34b5ef9489a35be5abc2c155c18c30b58e2433198b32e8854a1f11567999286832b3e9928fa559e7a9c0c357c38e32b78c26311b8930ea87481d13547b9b2a6a30b1eb908da757e9a7cecd59cd803cb982283f15873ee48946131d5a759524643ebfe59e83a955eba5cccf5bcf823ebb802a3d17853ce68b44111f58779726663cbde79c81ab53eda3cac95dc98438bd862c3b11833ae08d4217195e719120603abbe19a87ad51efa1c8cb5fcb863abf842e39138138e28f40151b5c7393226238b9e39885af5fe1afc6c551c58834b18a20371d8f36ec814e1b15527d9d2c6c36b7ed968ba15de3adc4c753c78a36b38822351f8d34ee834c1917507f9f2e6e34b5ef9489a35be5abc2c155c18c30b58e2433198b32e8854a1f11567999286832b3e9928fa559e7a9c0c357c38e32b78c26311b8930ea87481d13547b9b2a6a30b1eb908da757e9a7cecd59cd803cb982283f15873ee48946131d5a759524643ebfe59e83a955eba5cccf5bcf823ebb802a3d17853ce68b44111f58779726663cbde79c81ab53eda3cac95dc98438bd862c3b11833ae08d4217195e719120603abbe19a87ad51efa1c8cb5fcb863abf842e39138138e28f40151b5c7393226238b9e39885af5fe1afc6c551c58834b18a20371d8f36e6e4b10ffddb36ee1f26b1d63145fb0b426ecee6fec592da1d52ebf19b791a4f9",
        "hex": "6a20ae786e207774869ef58d582a0c05b063431cc55c6f1edf6755c70ec193706fe94db0047e9a7cecd59cd803cb982283f15873ee48946131d5a759524643ebfe59e83a955eba5cccf5bcf823ebb802a3d17853ce68b44111f58779726663cbde79c81ab53eda3cac95dc98438bd862c3b11833ae08d4217195e719120603abbe19a87ad51efa1c8cb5fcb863abf842e39138138e28f40151b5c7393226238b9e39885af5fe1afc6c551c58834b18a20371d8f36ec814e1b15527d9d2c6c36b7ed968ba15de3adc4c753c78a36b38822351f8d34ee834c1917507f9f2e6e34b5ef9489a35be5abc2c155c18c30b58e2433198b32e8854a1f11567999286832b3e9928fa559e7a9c0c357c38e32b78c26311b8930ea87481d13547b9b2a6a30b1eb908da757e9a7cecd59cd803cb982283f15873ee48946131d5a759524643ebfe59e83a955eba5cccf5bcf823ebb802a3d17853ce68b44111f58779726663cbde79c81ab53eda3cac95dc98438bd862c3b11833ae08d4217195e719120603abbe19a87ad51efa1c8cb5fcb863abf842e39138138e28f40151b5c7393226238b9e39885af5fe1afc6c551c58834b18a20371d8f36ec814e1b15527d9d2c6c36b7ed968ba15de3adc4c753c78a36b38822351f8d34ee834c1917507f9f2e6e34b5ef9489a35be5abc2c155c18c30b58e2433198b32e8854a1f11567999286832b3e9928fa559e7a9c0c357c38e32b78c26311b8930ea87481d13547b9b2a6a30b1eb908da757e9a7cecd59cd803cb982283f15873ee48946131d5a759524643ebfe59e83a955eba5cccf5bcf823ebb802a3d17853ce68b44111f58779726663cbde79c81ab53eda3cac95dc98438bd862c3b11833ae08d4217195e719120603abbe19a87ad51efa1c8cb5fcb863abf842e39138138e28f40151b5c7393226238b9e39885af5fe1afc6c551c58834b18a20371d8f36ec814e1b15527d9d2c6c36b7ed968ba15de3adc4c753c78a36b38822351f8d34ee834c1917507f9f2e6e34b5ef9489a35be5abc2c155c18c30b58e2433198b32e8854a1f11567999286832b3e9928fa559e7a9c0c357c38e32b78c26311b8930ea87481d13547b9b2a6a30b1eb908da757e9a7cecd59cd803cb982283f15873ee48946131d5a759524643ebfe59e83a955eba5cccf5bcf823ebb802a3d17853ce68b44111f58779726663cbde79c81ab53eda3cac95dc98438bd862c3b11833ae08d4217195e719120603abbe19a87ad51efa1c8cb5fcb863abf842e39138138e28f40151b5c7393226238b9e39885af5fe1afc6c551c58834b18a20371d8f36ec814e1b15527d9d2c6c36b7ed968ba15de3adc4c753c78a36b38822351f8d34ee834c1917507f9f2e6e34b5ef9489a35be5abc2c155c18c30b58e2433198b32e8854a1f11567999286832b3e9928fa559e7a9c0c357c38e32b78c26311b8930ea87481d13547b9b2a6a30b1eb908da757e9a7cecd59cd803cb982283f15873ee48946131d5a759524643ebfe59e83a955eba5cccf5bcf823ebb802a3d17853ce68b44111f58779726663cbde79c81ab53eda3cac95dc98438bd862c3b11833ae08d4217195e719120603abbe19a87ad51efa1c8cb5fcb863abf842e39138138e28f40151b5c7393226238b9e39885af5fe1afc6c551c58834b18a20371d8f36e6e4b10ffddb36ee1f26b1d63145fb0b426ecee6fec592da1d52ebf19b791a4f9",
        "type": "nulldata"
      }
    },
    {
      "value": 499981.6958,
      "n": 1,
      "scriptPubKey": {
        "asm": "1 ab79b23fa6d89c50d67dba80c15cab267e9bee66d92fd7c78271ad2b61a12fd1",
        "hex": "5120ab79b23fa6d89c50d67dba80c15cab267e9bee66d92fd7c78271ad2b61a12fd1",
        "reqSigs": 1,
        "type": "witness_v1_scripthash",
        "addresses": [
          "3QJmnh"
        ]
      }
    }
  ],
  "blockhash": "73359bfd0a4582986ffd1e7664419d7a0ef7b090643ab62685454f7a097cd719",
  "confirmations": 1,
  "time": 1764179247,
  "blocktime": 1764179247
}