{
  "hex": "010000000001015fedb5aa3151ef72a9fdb01ae19e17bb9e80b7d311146bc8a948051f235a2d660000000000feffffff0200e1f50500000000fdd5046a20925d70dada9a968078fcb2b797769f93a5cdf6f140bbe839c12627cfab45176c4db004103fea8bedc11245fa94a4132de235bc5e2e9c06d875a57fb905b4bc6b35f3ec301fcaabcde13265dab484330dc2159c7e0ebc26f855855f9925949c4b15d3cc507faacbad815205bad4e4536da275fc1e6edc469835e53ff945f4fc2b75b3ac705f8aeb8da172259af4c4734d8255dc3e4efc66b815c51fd965d4dc0b55938c90bf6a0b6d4192c57a142493ad62b53cdeae1c8658f525ff3985343cebb5736cb09f4a2b4d61b2e55a3404b38d42951cfe8e3ca678d505df19a5141ccb95534cd0ff2a4b2d01d2853a5464d3ed22f57c9eee5cc618b565bf79c5747cabf5332cf0df0a6b0d21f2a51a7444f3cd02d55cbece7ce63895459f59e5545c8bd5130c103fea8bedc11245fa94a4132de235bc5e2e9c06d875a57fb905b4bc6b35f3ec301fcaabcde13265dab484330dc2159c7e0ebc26f855855f9925949c4b15d3cc507faacbad815205bad4e4536da275fc1e6edc469835e53ff945f4fc2b75b3ac705f8aeb8da172259af4c4734d8255dc3e4efc66b815c51fd965d4dc0b55938c90bf6a0b6d4192c57a142493ad62b53cdeae1c8658f525ff3985343cebb5736cb09f4a2b4d61b2e55a3404b38d42951cfe8e3ca678d505df19a5141ccb95534cd0ff2a4b2d01d2853a5464d3ed22f57c9eee5cc618b565bf79c5747cabf5332cf0df0a6b0d21f2a51a7444f3cd02d55cbece7ce63895459f59e5545c8bd5130c103fea8bedc11245fa94a4132de235bc5e2e9c06d875a57fb905b4bc6b35f3ec301fcaabcde13265dab484330dc2159c7e0ebc26f855855f9925949c4b15d3cc507faacbad815205bad4e4536da275fc1e6edc469835e53ff945f4fc2b75b3ac705f8aeb8da172259af4c4734d8255dc3e4efc66b815c51fd965d4dc0b55938c90bf6a0b6d4192c57a142493ad62b53cdeae1c8658f525ff3985343cebb5736cb09f4a2b4d61b2e55a3404b38d42951cfe8e3ca678d505df19a5141ccb95534cd0ff2a4b2d01d2853a5464d3ed22f57c9eee5cc618b565bf79c5747cabf5332cf0df0a6b0d21f2a51a7444f3cd02d55cbece7ce63895459f59e5545c8bd5130c103fea8bedc11245fa94a4132de235bc5e2e9c06d875a57fb905b4bc6b35f3ec301fcaabcde13265dab484330dc2159c7e0ebc26f855855f9925949c4b15d3cc507faacbad815205bad4e4536da275fc1e6edc469835e53ff945f4fc2b75b3ac705f8aeb8da172259af4c4734d8255dc3e4efc66b815c51fd965d4dc0b55938c90bf6a0b6d4192c57a142493ad62b53cdeae1c8658f525ff3985343cebb5736cb09f4a2b4d61b2e55a3404b38d42951cfe8e3ca678d505df19a5141ccb95534cd0ff2a4b2d01d2853a5464d3ed22f57c9eee5cc618b565bf79c5747cabf5332cf0df0a6b0d21f2a51a7444f3cd02d55cbece7ce63895459f59e5545c8bd5130c103fea8bedc11245fa94a4132de235bc5e2e9c06d875a57fb905b4bc6b35f3ec301fcaabcde13265dab484330dc2159c7e0ebc26f855855f9925949c4b15d3cc507faacbad815205bad4e4536da275fc1e6edc469835e53ff945f4fc2b75b3ac705f8aeb8da172259af4c4734d8255dc3e4efc66b815c51fd965d4dc0b55938c90bf6a0b6d4192c57a142493ad62b53c86fcf1ea660da2beaae7a3b7eacb29d2afcc6e8de135003beaafcaa73737501b3022f408792d00002251201ecebedca7b619f058995d17f707f67a739b0688d61ce9cf2d5c1485e3baf58602fd7509f5789b82b05943a360582ae5cc6b7a6eeb8985cd3bbec3fd977093c3088bcff67751ee646098e0e980c231abe50e86132e9cd411ef09538dd960cbd02ba39e984df6cb1c2c7c39c3893459fefe28e32e55ee859c5053839d6f98fdd1b1b447db23ca494ad7aa29c758f7bc5c19eb0b307594a118b12cf519a91c79f09b80a2f852394a165749d00c1d773031fc2213f8500411378bc655304d4e4f9fcd44a115694abe88206be93042de2357020bdf0cb04564177e317156f734b7a6d2f85bb7aec11fcbefd149826420476f634b41f75e5e84cef938547b75556423fea0b64237e4dfe28f58b8866b2dc0d2ff689eeeb4ac4c55ea371918e1ee92ab5477728d8dd4e086be141b9dfa429633504eba9ebc2d468dd1c1e9729d41425a74b0b665ebdb2ecc8ca198ad392c5399612a51cab8bce1a9968d8ae3501260efe8994094b92f76f48f7c66571364e97c3cca977dbdc8fb383bb631495738c5404f374aa3f3db59f8f668755d99d18187aa669d911259151769763e4bc9d74c1a210616aa2137f73d06a553b16c89ed4ca3564528a6744f93c8db9853bd802b1f7d248962f143d2e56ee6d341bde1053bcd5251eed1469d6c4f4dc7bead77bde593c814a960a3c94519e161e1402eae76aa1e39769352eae4ff39dbfb82023fbd4117529b2a3da7dbf9ba8d66cd779c53b9730e788f2fdabd3cf982f332e9fb7cd1df607f578f6111f7ea54f1be8a21b8fe51ff5b5baa7e11597414b449c74739ca3a23eb2bafcb71ab39434375ad3e3f9fbe520a8401e33925ca6ef06e7a2859ec60142044558d48c9d8c94918bf90c29132ce20b6a32193ca998e3dd7e99e29a7ef943a8459b73a0678914191238c1f9f22940f215f6eb4983ac16a4a457cdaa22ab3d1154f2c0ef704f420d0acfddf2a7544d1b9e0cc573bf7e5b073dfa57105607123130d2e5248d13b371e17f13db0b0ba1742438b03d71952196e44c049e1ac053ff3c13800b8dc2061486cc59c1c6dc1d45ce85a55968f296df92f99676eb383d77da28b80d3f12a7df8257615d2e99cea648e7a4831132ed56a158a4c5c3b11709f30d0c573fb85e4f331ee12924f06ca3f632a3e5dec394157ed0403f6b2ff39e04a9568133800132b73978d0271647ddc390622dbbbfb24799d044d256d4be07e3678bc2e0c0fbb799eef09414019c34a52a7ccb3c05a353ddbf3b4d171569fbc3ec67089db365bcde2853c8bbf0d9aa40e7bf07f19564075f132501a667bbeaaca32a1d828c0dfa9b2388fb2cc943d73d9fb77992c77d53eb3ff65bcb7f7318791c26b5645ee79a068c98759ddfdf7254584fd18c88925c5abf9f220ea504d231adcdff8abdb1ddb835336bd4cb3c8bff1f4d1c9efb0edee97c27922455a4081d235d4379c55ab5e60cd4c54260589ec6ee6a5c64e50f0b5ae5a8940fd9d0a64577491a5ecf307fb3ee8b599f68760460d0e8c0a6a561d5fa7b5d866b695df9981de9b2fbf8f058bf9fb507433b788f85f10d4d8be9e293baac1242ffe1e64aad556c09c8ef0f6e7f896ff10cdccfb93ec9b0b480649fc52f987a595004b770dcbda964edab60d4a7b37bccd01991d922e383a33fba169861df4c0e84f55af3a876962d2f27fd8d8408b1c66249f71bd7904b6f1d0abe9d418bb04e986254d55d2e232d8a2fdc35629d7290c8ca907c6d9354d8c2d87d015e80f653694cf2b1fd1146faca73144bba02bb2ec6f9e0a15de163ad77fe644341969d8ad3ed4039ff4c127c7deddf1e658bbb8068f8cd9ef79253eb2e02e47b7738bb6e20c77c793dcb59867be3f1c12df3545df4f1f181b7ba1182b1a4bcc32248bcd458a27e98036ae3f92d719c87fac04975e0b069f634a7857c48c5f0606241cc5a44b5cda4c2de39fa7d2c3ec45fc2b12bef8546aaf489e609c66fee3e0ec71639cd57008cab452564b61245f1065a1085ddf7ee81d046694fe9463f7f56c21cdf94f36867373a0be006b09734a2608d5e6fa23030a261dc0c4ee2e13006fd158e73a2148e6d1d2b988b8ef032f65f9bdb065667c33a9796a7c87e6e137557bfdbff752c49ba460b4427c092628b0501cde9f7a5e3a5c5bab532811cc9ab8c10829cc46238aa2dd5091bc2442109b3d6eca77d138cf4261f1491285a869739a4f8060fab335cf50cbe20b0040ae2db3a53a74c108c6d3912490218a5d59b75c185f8774be4593eead67ab362032ac03961821a6de27f0decc75ac986d501fe161244a8461e94fbad43de2c7efbe16f9359eaf9a94b27aa6e20f20f1cf1d4403bfba172afa4fd2cfb7606b174f6ef5e885a85ea8e92df73406722f5182ab8f92118c6540788933574ba449065b6b05d2b71fa839c1b65a37469d7955d93ff47b27abd1b920130d18c836fb65915aa52ba7a529571308fad7ea74dd9a1f571d79a92d28e79aaa46497d120e4af609037e970d9a03de200191fffe085e2fa14efd8d4ca2fe49d04d552c0bf63ee2b570a5d30921975770b4cd9fcf27b59f9b1048bf4d2b4d10b7170ee0e76009fab100d99440f94702e84201cf7a0e870fbfab6e6e2365bdd11b62397f4e5cee3bcb4ec1c70e3185d35b723ad32fc4fe5b80796a50e00c4b28ca366f4c51418876991ebfbd4fd52ed58bb5cf303f2a0b7eaa96eb3d4ea6c732cb9743171742ff81ca291f631ce207c69faefc05ae42b0e9a300116508ef786c5da44eed2c7996be58bed14a7ef77c6ae77b1a7dac8dfe640ef06b2060fd56426eb06072c5a2fc0fda8c6c050738000548ebc2c4ab65c4fc5cf8a1721cbfde791a67fa1e1e463e3c52c8a9f04e064ff8bd4ed1b3c91bb74c353de583a2a0ceb10530ffb1d009d12c424e8e1830230b45cbc5491e662fe2784521b95d828621c5f1fb1f39c5749e7d640431e9e81a1d8fb1dc74e6152135b3c412d5a9c3253e3766c125f9e90abf16d0171d46a38d46a3ceca4e2d2da0b7535a0152e604bdb5e6e7245dffcc17a8241b5474e5781997d2545d9a76d1fc77d7caccaa0b2d6202287362e535b22707e7dd1ddbfe51c0cd32ab081624cb9a2029e65c3e3f48c56cf858f9a3d1f6a5a0199d07e9ac1da3ace5828df982ad730745c979bac4eb8edd6618440de70af051ccd91aeb74a61f78cd2be689af92863c4d73af25036ffe9acbdccbe2a2911ff9cecfb0f25d89496fa2c2abcbf31eb089690e76d57604ed091e3b96af49bd43f2bbafd64ec4c76dc57351342b49537ab599482853a318cc55367c73a8fde6055cf140480f63d1435008b65bdf2989124fb845f9ace2ce6c3812002e37455354576d6e777c80939c9ea0a6b2b6b9babcc1c3cfdfe9f3f5fa0c0e1b242d46478487898d9da9aedde7fafe02040a102b4b556b83939a9da4d7f5f6fa030b0d14214e537577aeef000000001e30414c01fd210500526fc7445ba01d9b7258a02915d2e6ac031dcdc9a3cba39a145b2e270c82d7ecb694ef47c7f3ee281ecca6b0ead5bb9ad4c03ec35e4cfc05358d0f840b5ff89eafc98c6a3c95f7fee4376f5f0dc24c8c33688a838c662620427d781896a5494a0a9943c222cd769495e70c844d7515d4870c5f546091aba90a5cb9292b4b074ac5ff4f8d88f3a237cf07fdb3bf2dc5f6fc44ff9fafe1135ad8f4b507da585d2b8bb0e03f01344fb108cc37fd54e5bbafebca39418b09651730873b98e96f69825fff087d54dcfe478171042414cf96714946b93e59ff4a5fc08f01e723ce131cfd74888c0e8d164637ce3b353c48848e23031cfd1c00a1c0516a7b9dcf952a1333dcdcee2fbb82c312967154cc8a4d91073f2c1b49f6d2b439e3017fb48ca1082b7790fdccf315cc9c4e2e94e8db715da80d5d2abb9b3d504d2fe00916c129ec4dddddee5d8dab73dfbefc99f6a6ed15a08d10d11b0ee8b4efebd69951799e453d803dbcf002dec80be99e66edf59a65243a2931da5143ee5811e94bc4512f75d2382f2ea3905a58916a2c0f9b2587639cbdeea4238c19681f44acf8bce62d3a880b6bd907213347cdf7402f99feaabdb4ef2f0b4a9033a0aeb0f35e328014d3154b55fa8c660b5537688aca2376fb781035262d860596c7dff8e1953268e8111f16eacd16865559408529e5a55a56339e6f2a5fe97b09c1946ecccc19775be2dca72b126a316de9e4ef967f139198cea07b503a0fff3901370c8cdefe64c788eaa701673aa14dcce87dd8028cc27df43dcda8d60ac4ad60637b8fca02c489c62b241d11a662a8ede6518f8f49b6f48cfad19585d2c2e7f1547151eed85682891a171c51a0304341e6475159301d617c179bba6a5848ca8eadc60074744522f3b3764d146e24a55a33c726a1a562b8066a45a83cf2baf28ead8f43b6117fec1958c1ca34af861d489cdf1c601f25200e2b82b9b995fd54def0cb27e6cdbcc786fad135018ea4d49b6501d597ff4d04ae4db123746f8df54ec5f96348402fbaca8cf81ca899646c7c3c67679f2ccf165589d03d52edad6c5417b164cf7ac7d429356a306bd19a3cd778557ab0ffcf952c8640c6c815f38feb68d2addc7cf3866e4081259f934d5b85fe59e3d06071048d75ab728deede52165311c90dce105289d324be08722af88a0ddc031a39ad5a06531ae91989154cc1fa12967849ff9748000c6645624148ed0460dcdb3489891b5f1748fd31cd1e21c1337e5e05175cc293b8d032db1d79466412e388d11efb02d99f48b6c4cbf6860e48886f395ab694f304ee87d64c874f2b75c518574b2ee4eacfca90f58ccc9a5a46e607900b12e5ba9938e2e59925a600dd0d26972c48876ccfbda7836ce5b92ae3dd22e3555d71a08fc68818c4f020797a2050bde201a7f1d3a002f8bd9ea85add6547ada32c91efb10827f763761f7cc666671e2ce34411f0ee45e2e9d3960c6a0792b957dab3e4236053f52b027168c6a26523e04b0e9060656e35173a0b263e96d6ab1603dc91ce2b728c0381e8efca3c6c02336a1ec56ecf9a8ae1712e6bec6bbc01d9f2d030f86ecc84ef24411515a589eea85110b16fa1aad6c91f7e910ef926483525fcf4c7cd812bf3c29bf63b9be630f25f7989b3aaaebb3f05bb1040c45ff733091f1567142624e37435d2098c0eabcc3f28ba6fd39845f63ca2743a87c5479af994ac4db792eecb69921d4c8097a2b95712acadbfbf76d286f1f4a53b69df764518518f594a1c944d50bc7367fb663c636a0a6c49c62047d4dc5e336dba5f6e74e6c51763126dacd8528126b0165c88e1b5f52557fa24e04fc416da49a1ad5e405477000000",
  "txid": "58aad30daa32cbfc21fc8aef16b0118068583de0aa49e971bec0d6f599581de0",
  "hash": "1268e57aff2c9f3d47341e92a3e2a791fc0dc85637d21d950e77769bcb3d9435",
  "size": 5085,
  "vsize": 2278,
  "version": 1,
  "locktime": 119,
  "vin": [
    {
      "txid": "662d5a231f0548a9c86b1411d3b7809ebb179ee11ab0fda972ef5131aab5ed5f",
      "vout": 0,
      "scriptSig": {
        "asm": "",
        "hex": ""
      },
      "txinwitness": [
        "f5789b82b05943a360582ae5cc6b7a6eeb8985cd3bbec3fd977093c3088bcff67751ee646098e0e980c231abe50e86132e9cd411ef09538dd960cbd02ba39e984df6cb1c2c7c39c3893459fefe28e32e55ee859c5053839d6f98fdd1b1b447db23ca494ad7aa29c758f7bc5c19eb0b307594a118b12cf519a91c79f09b80a2f852394a165749d00c1d773031fc2213f8500411378bc655304d4e4f9fcd44a115694abe88206be93042de2357020bdf0cb04564177e317156f734b7a6d2f85bb7aec11fcbefd149826420476f634b41f75e5e84cef938547b75556423fea0b64237e4dfe28f58b8866b2dc0d2ff689eeeb4ac4c55ea371918e1ee92ab5477728d8dd4e086be141b9dfa429633504eba9ebc2d468dd1c1e9729d41425a74b0b665ebdb2ecc8ca198ad392c5399612a51cab8bce1a9968d8ae3501260efe8994094b92f76f48f7c66571364e97c3cca977dbdc8fb383bb631495738c5404f374aa3f3db59f8f668755d99d18187aa669d911259151769763e4bc9d74c1a210616aa2137f73d06a553b16c89ed4ca3564528a6744f93c8db9853bd802b1f7d248962f143d2e56ee6d341bde1053bcd5251eed1469d6c4f4dc7bead77bde593c814a960a3c94519e161e1402eae76aa1e39769352eae4ff39dbfb82023fbd4117529b2a3da7dbf9ba8d66cd779c53b9730e788f2fdabd3cf982f332e9fb7cd1df607f578f6111f7ea54f1be8a21b8fe51ff5b5baa7e11597414b449c74739ca3a23eb2bafcb71ab39434375ad3e3f9fbe520a8401e33925ca6ef06e7a2859ec60142044558d48c9d8c94918bf90c29132ce20b6a32193ca998e3dd7e99e29a7ef943a8459b73a0678914191238c1f9f22940f215f6eb4983ac16a4a457cdaa22ab3d1154f2c0ef704f420d0acfddf2a7544d1b9e0cc573bf7e5b073dfa57105607123130d2e5248d13b371e17f13db0b0ba1742438b03d71952196e44c049e1ac053ff3c13800b8dc2061486cc59c1c6dc1d45ce85a55968f296df92f99676eb383d77da28b80d3f12a7df8257615d2e99cea648e7a4831132ed56a158a4c5c3b11709f30d0c573fb85e4f331ee12924f06ca3f632a3e5dec394157ed0403f6b2ff39e04a9568133800132b73978d0271647ddc390622dbbbfb24799d044d256d4be07e3678bc2e0c0fbb799eef09414019c34a52a7ccb3c05a353ddbf3b4d171569fbc3ec67089db365bcde2853c8bbf0d9aa40e7bf07f19564075f132501a667bbeaaca32a1d828c0dfa9b2388fb2cc943d73d9fb77992c77d53eb3ff65bcb7f7318791c26b5645ee79a068c98759ddfdf7254584fd18c88925c5abf9f220ea504d231adcdff8abdb1ddb835336bd4cb3c8bff1f4d1c9efb0edee97c27922455a4081d235d4379c55ab5e60cd4c54260589ec6ee6a5c64e50f0b5ae5a8940fd9d0a64577491a5ecf307fb3ee8b599f68760460d0e8c0a6a561d5fa7b5d866b695df9981de9b2fbf8f058bf9fb507433b788f85f10d4d8be9e293baac1242ffe1e64aad556c09c8ef0f6e7f896ff10cdccfb93ec9b0b480649fc52f987a595004b770dcbda964edab60d4a7b37bccd01991d922e383a33fba169861df4c0e84f55af3a876962d2f27fd8d8408b1c66249f71bd7904b6f1d0abe9d418bb04e986254d55d2e232d8a2fdc35629d7290c8ca907c6d9354d8c2d87d015e80f653694cf2b1fd1146faca73144bba02bb2ec6f9e0a15de163ad77fe644341969d8ad3ed4039ff4c127c7deddf1e658bbb8068f8cd9ef79253eb2e02e47b7738bb6e20c77c793dcb59867be3f1c12df3545df4f1f181b7ba1182b1a4bcc32248bcd458a27e98036ae3f92d719c87fac04975e0b069f634a7857c48c5f0606241cc5a44b5cda4c2de39fa7d2c3ec45fc2b12bef8546aaf489e609c66fee3e0ec71639cd57008cab452564b61245f1065a1085ddf7ee81d046694fe9463f7f56c21cdf94f36867373a0be006b09734a2608d5e6fa23030a261dc0c4ee2e13006fd158e73a2148e6d1d2b988b8ef032f65f9bdb065667c33a9796a7c87e6e137557bfdbff752c49ba460b4427c092628b0501cde9f7a5e3a5c5bab532811cc9ab8c10829cc46238aa2dd5091bc2442109b3d6eca77d138cf4261f1491285a869739a4f8060fab335cf50cbe20b0040ae2db3a53a74c108c6d3912490218a5d59b75c185f8774be4593eead67ab362032ac03961821a6de27f0decc75ac986d501fe161244a8461e94fbad43de2c7efbe16f9359eaf9a94b27aa6e20f20f1cf1d4403bfba172afa4fd2cfb7606b174f6ef5e885a85ea8e92df73406722f5182ab8f92118c6540788933574ba449065b6b05d2b71fa839c1b65a37469d7955d93ff47b27abd1b920130d18c836fb65915aa52ba7a529571308fad7ea74dd9a1f571d79a92d28e79aaa46497d120e4af609037e970d9a03de200191fffe085e2fa14efd8d4ca2fe49d04d552c0bf63ee2b570a5d30921975770b4cd9fcf27b59f9b1048bf4d2b4d10b7170ee0e76009fab100d99440f94702e84201cf7a0e870fbfab6e6e2365bdd11b62397f4e5cee3bcb4ec1c70e3185d35b723ad32fc4fe5b80796a50e00c4b28ca366f4c51418876991ebfbd4fd52ed58bb5cf303f2a0b7eaa96eb3d4ea6c732cb9743171742ff81ca291f631ce207c69faefc05ae42b0e9a300116508ef786c5da44eed2c7996be58bed14a7ef77c6ae77b1a7dac8dfe640ef06b2060fd56426eb06072c5a2fc0fda8c6c050738000548ebc2c4ab65c4fc5cf8a1721cbfde791a67fa1e1e463e3c52c8a9f04e064ff8bd4ed1b3c91bb74c353de583a2a0ceb10530ffb1d009d12c424e8e1830230b45cbc5491e662fe2784521b95d828621c5f1fb1f39c5749e7d640431e9e81a1d8fb1dc74e6152135b3c412d5a9c3253e3766c125f9e90abf16d0171d46a38d46a3ceca4e2d2da0b7535a0152e604bdb5e6e7245dffcc17a8241b5474e5781997d2545d9a76d1fc77d7caccaa0b2d6202287362e535b22707e7dd1ddbfe51c0cd32ab081624cb9a2029e65c3e3f48c56cf858f9a3d1f6a5a0199d07e9ac1da3ace5828df982ad730745c979bac4eb8edd6618440de70af051ccd91aeb74a61f78cd2be689af92863c4d73af25036ffe9acbdccbe2a2911ff9cecfb0f25d89496fa2c2abcbf31eb089690e76d57604ed091e3b96af49bd43f2bbafd64ec4c76dc57351342b49537ab599482853a318cc55367c73a8fde6055cf140480f63d1435008b65bdf2989124fb845f9ace2ce6c3812002e37455354576d6e777c80939c9ea0a6b2b6b9babcc1c3cfdfe9f3f5fa0c0e1b242d46478487898d9da9aedde7fafe02040a102b4b556b83939a9da4d7f5f6fa030b0d14214e537577aeef000000001e30414c01",
        "00526fc7445ba01d9b7258a02915d2e6ac031dcdc9a3cba39a145b2e270c82d7ecb694ef47c7f3ee281ecca6b0ead5bb9ad4c03ec35e4cfc05358d0f840b5ff89eafc98c6a3c95f7fee4376f5f0dc24c8c33688a838c662620427d781896a5494a0a9943c222cd769495e70c844d7515d4870c5f546091aba90a5cb9292b4b074ac5ff4f8d88f3a237cf07fdb3bf2dc5f6fc44ff9fafe1135ad8f4b507da585d2b8bb0e03f01344fb108cc37fd54e5bbafebca39418b09651730873b98e96f69825fff087d54dcfe478171042414cf96714946b93e59ff4a5fc08f01e723ce131cfd74888c0e8d164637ce3b353c48848e23031cfd1c00a1c0516a7b9dcf952a1333dcdcee2fbb82c312967154cc8a4d91073f2c1b49f6d2b439e3017fb48ca1082b7790fdccf315cc9c4e2e94e8db715da80d5d2abb9b3d504d2fe00916c129ec4dddddee5d8dab73dfbefc99f6a6ed15a08d10d11b0ee8b4efebd69951799e453d803dbcf002dec80be99e66edf59a65243a2931da5143ee5811e94bc4512f75d2382f2ea3905a58916a2c0f9b2587639cbdeea4238c19681f44acf8bce62d3a880b6bd907213347cdf7402f99feaabdb4ef2f0b4a9033a0aeb0f35e328014d3154b55fa8c660b5537688aca2376fb781035262d860596c7dff8e1953268e8111f16eacd16865559408529e5a55a56339e6f2a5fe97b09c1946ecccc19775be2dca72b126a316de9e4ef967f139198cea07b503a0fff3901370c8cdefe64c788eaa701673aa14dcce87dd8028cc27df43dcda8d60ac4ad60637b8fca02c489c62b241d11a662a8ede6518f8f49b6f48cfad19585d2c2e7f1547151eed85682891a171c51a0304341e6475159301d617c179bba6a5848ca8eadc60074744522f3b3764d146e24a55a33c726a1a562b8066a45a83cf2baf28ead8f43b6117fec1958c1ca34af861d489cdf1c601f25200e2b82b9b995fd54def0cb27e6cdbcc786fad135018ea4d49b6501d597ff4d04ae4db123746f8df54ec5f96348402fbaca8cf81ca899646c7c3c67679f2ccf165589d03d52edad6c5417b164cf7ac7d429356a306bd19a3cd778557ab0ffcf952c8640c6c815f38feb68d2addc7cf3866e4081259f934d5b85fe59e3d06071048d75ab728deede52165311c90dce105289d324be08722af88a0ddc031a39ad5a06531ae91989154cc1fa12967849ff9748000c6645624148ed0460dcdb3489891b5f1748fd31cd1e21c1337e5e05175cc293b8d032db1d79466412e388d11efb02d99f48b6c4cbf6860e48886f395ab694f304ee87d64c874f2b75c518574b2ee4eacfca90f58ccc9a5a46e607900b12e5ba9938e2e59925a600dd0d26972c48876ccfbda7836ce5b92ae3dd22e3555d71a08fc68818c4f020797a2050bde201a7f1d3a002f8bd9ea85add6547ada32c91efb10827f763761f7cc666671e2ce34411f0ee45e2e9d3960c6a0792b957dab3e4236053f52b027168c6a26523e04b0e9060656e35173a0b263e96d6ab1603dc91ce2b728c0381e8efca3c6c02336a1ec56ecf9a8ae1712e6bec6bbc01d9f2d030f86ecc84ef24411515a589eea85110b16fa1aad6c91f7e910ef926483525fcf4c7cd812bf3c29bf63b9be630f25f7989b3aaaebb3f05bb1040c45ff733091f1567142624e37435d2098c0eabcc3f28ba6fd39845f63ca2743a87c5479af994ac4db792eecb69921d4c8097a2b95712acadbfbf76d286f1f4a53b69df764518518f594a1c944d50bc7367fb663c636a0a6c49c62047d4dc5e336dba5f6e74e6c51763126dacd8528126b0165c88e1b5f52557fa24e04fc416da49a1ad5e4054"
      ],
      "sequence": 4294967294
    }
  ],
  "vout": [
    {
      "value": 1.0,
      "n": 0,
      "scriptPubKey": {
        "asm": "OP_RETURN 925d70dada9a968078fcb2b797769f93a5cdf6f140bbe839c12627cfab45176c 103fea8bedc11245fa94a4132de235bc5e2e9c06d875a57fb905b4bc6b35f3ec301fcaabcde13265dab484330dc2159c7e0ebc26f855855f9925949c4b15d3cc507faacbad815205bad4e4536da275fc1e6edc469835e53ff945f4fc2b75b3ac705f8aeb8da172259af4c4734d8255dc3e4efc66b815c51fd965d4dc0b55938c90bf6a0b6d4192c57a142493ad62b53cdeae1c8658f525ff3985343cebb5736cb09f4a2b4d61b2e55a3404b38d42951cfe8e3ca678d505df19a5141ccb95534cd0ff2a4b2d01d2853a5464d3ed22f57c9eee5cc618b565bf79c5747cabf5332cf0df0a6b0d21f2a51a7444f3cd02d55cbece7ce63895459f59e5545c8bd5130c103fea8bedc11245fa94a4132de235bc5e2e9c06d875a57fb905b4bc6b35f3ec301fcaabcde13265dab484330dc2159c7e0ebc26f855855f9925949c4b15d3cc507faacbad815205bad4e4536da275fc1e6edc469835e53ff945f4fc2b75b3ac705f8aeb8da172259af4c4734d8255dc3e4efc66b815c51fd965d4dc0b55938c90bf6a0b6d4192c57a142493ad62b53cdeae1c8658f525ff3985343cebb5736cb09f4a2b4d61b2e55a3404b38d42951cfe8e3ca678d505df19a5141ccb95534cd0ff2a4b2d01d2853a5464d3ed22f57c9eee5cc618b565bf79c5747cabf5332cf0df0a6b0d21f2a51a7444f3cd02d55cbece7ce63895459f59e5545c8bd5130c103fea8bedc11245fa94a4132de235bc5e2e9c06d875a57fb905b4bc6b35f3ec301fcaabcde13265dab484330dc2159c7e0ebc26f855855f9925949c4b15d3cc507faacbad815205bad4e4536da275fc1e6edc469835e53ff945f4fc2b75b3ac705f8aeb8da172259af4c4734d8255dc3e4efc66b815c51fd965d4dc0b55938c90bf6a0b6d4192c57a142493ad62b53cdeae1c8658f525ff3985343cebb5736cb09f4a2b4d61b2e55a3404b38d42951cfe8e3ca678d505df19a5141ccb95534cd0ff2a4b2d01d2853a5464d3ed22f57c9eee5cc618b565bf79c5747cabf5332cf0df0a6b0d21f2a51a7444f3cd02d55cbece7ce63895459f59e5545c8bd5130c103fea8bedc11245fa94a4132de235bc5e2e9c06d875a57fb905b4bc6b35f3ec301fcaabcde13265dab484330dc2159c7e0ebc26f855855f9925949c4b15d3cc507faacbad815205bad4e4536da275fc1e6edc469835e53ff945f4fc2b75b3ac705f8aeb8da172259af4c4734d8255dc3e4efc66b815c51fd965d4dc0b55938c90bf6a0b6d4192c57a142493ad62b53cdeae1c8658f525ff3985343cebb5736cb09f4a2b4d61b2e55a3404b38d42951cfe8e3ca678d505df19a5141ccb95534cd0ff2a4b2d01d2853a5464d3ed22f57c9eee5cc618b565bf79c5747cabf5332cf0df0a6b0d21f2a51a7444f3cd02d55cbece7ce63895459f59e5545c8bd5130c103fea8bedc11245fa94a4132de235bc5e2e9c06d875a57fb905b4bc6b35f3ec301fcaabcde13265dab484330dc2159c7e0ebc26f855855f9925949c4b15d3cc507faacbad815205bad4e4536da275fc1e6edc469835e53ff945f4fc2b75b3ac705f8aeb8da172259af4c4734d8255dc3e4efc66b815c51fd965d4dc0b55938c90bf6a0b6d4192c57a142493ad62b53c86fcf1ea660da2beaae7a3b7eacb29d2afcc6e8de135003beaafcaa73737501b",
        "hex": "6a20925d70dada9a968078fcb2b797769f93a5cdf6f140bbe839c12627cfab45176c4db004103fea8bedc11245fa94a4132de235bc5e2e9c06d875a57fb905b4bc6b35f3ec301fcaabcde13265dab484330dc2159c7e0ebc26f855855f9925949c4b15d3cc507faacbad815205bad4e4536da275fc1e6edc469835e53ff945f4fc2b75b3ac705f8aeb8da172259af4c4734d8255dc3e4efc66b815c51fd965d4dc0b55938c90bf6a0b6d4192c57a142493ad62b53cdeae1c8658f525ff3985343cebb5736cb09f4a2b4d61b2e55a3404b38d42951cfe8e3ca678d505df19a5141ccb95534cd0ff2a4b2d01d2853a5464d3ed22f57c9eee5cc618b565bf79c5747cabf5332cf0df0a6b0d21f2a51a7444f3cd02d55cbece7ce63895459f59e5545c8bd5130c103fea8bedc11245fa94a4132de235bc5e2e9c06d875a57fb905b4bc6b35f3ec301fcaabcde13265dab484330dc2159c7e0ebc26f855855f9925949c4b15d3cc507faacbad815205bad4e4536da275fc1e6edc469835e53ff945f4fc2b75b3ac705f8aeb8da172259af4c4734d8255dc3e4efc66b815c51fd965d4dc0b55938c90bf6a0b6d4192c57a142493ad62b53cdeae1c8658f525ff3985343cebb5736cb09f4a2b4d61b2e55a3404b38d42951cfe8e3ca678d505df19a5141ccb95534cd0ff2a4b2d01d2853a5464d3ed22f57c9eee5cc618b565bf79c5747cabf5332cf0df0a6b0d21f2a51a7444f3cd02d55cbece7ce63895459f59e5545c8bd5130c103fea8bedc11245fa94a4132de235bc5e2e9c06d875a57fb905b4bc6b35f3ec301fcaabcde13265dab484330dc2159c7e0ebc26f855855f9925949c4b15d3cc507faacbad815205bad4e4536da275fc1e6edc469835e53ff945f4fc2b75b3ac705f8aeb8da172259af4c4734d8255dc3e4efc66b815c51fd965d4dc0b55938c90bf6a0b6d4192c57a142493ad62b53cdeae1c8658f525ff3985343cebb5736cb09f4a2b4d61b2e55a3404b38d42951cfe8e3ca678d505df19a5141ccb95534cd0ff2a4b2d01d2853a5464d3ed22f57c9eee5cc618b565bf79c5747cabf5332cf0df0a6b0d21f2a51a7444f3cd02d55cbece7ce63895459f59e5545c8bd5130c103fea8bedc11245fa94a4132de235bc5e2e9c06d875a57fb905b4bc6b35f3ec301fcaabcde13265dab484330dc2159c7e0ebc26f855855f9925949c4b15d3cc507faacbad815205bad4e4536da275fc1e6edc469835e53ff945f4fc2b75b3ac705f8aeb8da172259af4c4734d8255dc3e4efc66b815c51fd965d4dc0b55938c90bf6a0b6d4192c57a142493ad62b53cdeae1c8658f525ff3985343cebb5736cb09f4a2b4d61b2e55a3404b38d42951cfe8e3ca678d505df19a5141ccb95534cd0ff2a4b2d01d2853a5464d3ed22f57c9eee5cc618b565bf79c5747cabf5332cf0df0a6b0d21f2a51a7444f3cd02d55cbece7ce63895459f59e5545c8bd5130c103fea8bedc11245fa94a4132de235bc5e2e9c06d875a57fb905b4bc6b35f3ec301fcaabcde13265dab484330dc2159c7e0ebc26f855855f9925949c4b15d3cc507faacbad815205bad4e4536da275fc1e6edc469835e53ff945f4fc2b75b3ac705f8aeb8da172259af4c4734d8255dc3e4efc66b815c51fd965d4dc0b55938c90bf6a0b6d4192c57a142493ad62b53c86fcf1ea660da2beaae7a3b7eacb29d2afcc6e8de135003beaafcaa73737501b",
        "type": "nulldata"
      }
    },
    {
      "value": 499978.6451,
      "n": 1,
      "scriptPubKey": {
        "asm": "1 1ecebedca7b619f058995d17f707f67a739b0688d61ce9cf2d5c1485e3baf586",
        "hex": "51201ecebedca7b619f058995d17f707f67a739b0688d61ce9cf2d5c1485e3baf586",
        "reqSigs": 1,
        "type": "witness_v1_scripthash",
        "addresses": [
          "3QJmnh"
        ]
      }
    }
  ],
  "blockhash": "2c44072194b49e49486c87ae6b37abdd6c2c23e2c7b477f70371a1b5276080d1",
  "confirmations": 1,
  "time": 1764179865,
  "blocktime": 1764179865
}