{
  "hex": "01000000000101daa774c653ff8ca909c0902c511f4d9ea5a8298aac1fe95435d534ad9a3e71980000000000feffffff0200e1f50500000000fdd5046a20bdfb4e04cf97dd67841479392c4336e5c60e11df3f200ab25c0fec3d12d95c0b4db004d4bd66cc00420d191a3f9b0930f1347cee374f289d3c3893d90043cdd0bada4ff49d46ec20622d393a1fbb2910d1145cce176f08bd1c18b3f92063edf09afa6f94fd268c40024d595a7fdb4970b1743cae770f68dd7c78d39940038d90fa9a0fb4dd06ac60226d797a5ffb695091541c8e572f48fd5c58f3b96023adb0daba2f543de64c80c28d999abf1b89b071b4fc6eb7cfa81dbcb8135980c34d503a5acf741dc66ca0e2adb9ba9f3ba9905194dc4e97ef883d9c983379a0e36d701a7aef147da60cc082cdd9daff5bc9f031f4bc2ef78fe85dfcf85319c0830d107a1a8f345d862ce0a2edf9fadf7be9d011d49c0ed7afc87ddcd87339e0a32d305a3aafd4bd66cc00420d191a3f9b0930f1347cee374f289d3c3893d90043cdd0bada4ff49d46ec20622d393a1fbb2910d1145cce176f08bd1c18b3f92063edf09afa6f94fd268c40024d595a7fdb4970b1743cae770f68dd7c78d39940038d90fa9a0fb4dd06ac60226d797a5ffb695091541c8e572f48fd5c58f3b96023adb0daba2f543de64c80c28d999abf1b89b071b4fc6eb7cfa81dbcb8135980c34d503a5acf741dc66ca0e2adb9ba9f3ba9905194dc4e97ef883d9c983379a0e36d701a7aef147da60cc082cdd9daff5bc9f031f4bc2ef78fe85dfcf85319c0830d107a1a8f345d862ce0a2edf9fadf7be9d011d49c0ed7afc87ddcd87339e0a32d305a3aafd4bd66cc00420d191a3f9b0930f1347cee374f289d3c3893d90043cdd0bada4ff49d46ec20622d393a1fbb2910d1145cce176f08bd1c18b3f92063edf09afa6f94fd268c40024d595a7fdb4970b1743cae770f68dd7c78d39940038d90fa9a0fb4dd06ac60226d797a5ffb695091541c8e572f48fd5c58f3b96023adb0daba2f543de64c80c28d999abf1b89b071b4fc6eb7cfa81dbcb8135980c34d503a5acf741dc66ca0e2adb9ba9f3ba9905194dc4e97ef883d9c983379a0e36d701a7aef147da60cc082cdd9daff5bc9f031f4bc2ef78fe85dfcf85319c0830d107a1a8f345d862ce0a2edf9fadf7be9d011d49c0ed7afc87ddcd87339e0a32d305a3aafd4bd66cc00420d191a3f9b0930f1347cee374f289d3c3893d90043cdd0bada4ff49d46ec20622d393a1fbb2910d1145cce176f08bd1c18b3f92063edf09afa6f94fd268c40024d595a7fdb4970b1743cae770f68dd7c78d39940038d90fa9a0fb4dd06ac60226d797a5ffb695091541c8e572f48fd5c58f3b96023adb0daba2f543de64c80c28d999abf1b89b071b4fc6eb7cfa81dbcb8135980c34d503a5acf741dc66ca0e2adb9ba9f3ba9905194dc4e97ef883d9c983379a0e36d701a7aef147da60cc082cdd9daff5bc9f031f4bc2ef78fe85dfcf85319c0830d107a1a8f345d862ce0a2edf9fadf7be9d011d49c0ed7afc87ddcd87339e0a32d305a3aafd4bd66cc00420d191a3f9b0930f1347cee374f289d3c3893d90043cdd0bada4ff49d46ec20622d393a1fbb2910d1145cce176f08bd1c18b3f92063edf09afa6f94fd268c40024d595a7fdb4970b1743cae770f68dd7c78d39940038d90fa9a0fb4dd06ac60226d797a5ffb695091541c8e572f48fd5c58f3b96023adb0daba2f543de64c80c28d999abf1b89b071b4fcaf92a0e94290ab6b16df4f39c3ee133e3b85d0a03fe20f6d95d94618550dc685e07828ba782d0000225120523c2111c37ba002a9447ff428c36655c7806ac2689a9f0449e7947b95a569a302fd75093dbd9984f2f8faf560d01bccffef8dc4fcd4d03a91a05e5bf1a56d27a09d6fef798bc57766b68d3902615247f2e3d7c6ae0c73a54bed716be13940a03ab627786a8675acbd4003298a16b3feb4e77f1cbf6cf371130c1df6069c9f5f0552e779d5941e30cacd247d42abfa1b5dcd3aa1ce032580bbb62e89743acdeb5fc8ae127b23664f387c1c422b0b42273ff73893895f774685a4e5d30dab0e07d92d2249ce0815c56a4b7162ef7c7deadf7f8dad6f76308dd23b4d8ea275278af4e2c0bda47c0d1122fc81b9479437b772406e92480aa759364d65451415961da3090cd9b82fb787f43fdcc50a43bb66df8b3590902b1f8063cc65f24d5e0638550fab3f9a37410885b7eac8e010a8ad45c0d156350152eb2d92b2d97d44b886177e631031fe7258ca9b5451e0bcb6d201981a8b78e8dbeff1cb9f65cb7067a0004e3175a3bd7eb156dbc38f97941534065122fa8754618eaf3d2863aa5900a23eeaea8df804dfe9d0d41fcaf349192a12fd6d25f395af1db069910fa14a0e97656dd719c182ca51b6bbdc78cfa7648d64aef8556614d1580a8652fad83e7115d29a398b2303629efdc9132ad96c9c8158a0e2f991debb435dde5c6a346a15444fff7e1608c331a9b606438cb1cbd0ad319e11210e8bce593a83dc5a9309fe38870c97d19d039e1f800508ae4d0899e12130632e39a0ba73cb33ccfb0685e91f49e0cea68fba1c191bf122c69092abedb547f3d7b4748e28c25f0d8c17bb0802445a6e65af84f7f8bc2f48f33b3f21fa03323c8731358bb514aaebb76a070338e3c012c708a31c967d63465e6eff49b00fd980467d8eb2f336e80d3800254e3eb57404d4969054e1d5c2f348223fa0baac1a4c271b0f614e48c11955203fd56024e96be74c2f58b7963a5e7c0e8ac3aaaf53dedf7d879c07ea8c425ebd6aa95fadbada9d7b33d2f707690a10043704bd4793e745d9d6d9f9c2b03f1a0e6f82afde898f292fdb2bd80f6e6cbd1c958cd824c715bf74c5a0dfbc8c338e52a3296ecb55c508b2679939379a11ff932a5496cdba21f0a88ea609695e8312f00528b25e848c976de3856b7f50a4f9f1422a1fc01fa6071cd096edda3091921e557da85d56eb362ce4b8b55d15542e21adf81ac3150df49da8716d43c3e4a8709ea2893ad2003d0a5fad56ae3278fa97eb0392d588c6fa2b2c87cb107fcddcbba299d62bc2b15876111567f58ab3d82c07618fed21e3577f0af1593bc9934e20350dd48e065790fda2af48b1a7dca22885ed27ae4f575ffe2db76505d43876042795328f0fd04fe871b66a8d5cf850fb26daed4d9c2db9a23ae41f081612f61a2c64ab4d192ca3af0224de63a14ccfdeb048df56088ec895aec99c1c712135fc4b510a5e78facbbcc37ecd1f3a6d7e5cb2733715b082f503428325cdccefa78ba5395ff317191bfa2ac631c9fda01acfd4adc061689a29b76ca41a157f906ceb528ccd6005bb77a87b8a0e45b138ffe2f449f365147c418b06b84635474172fba4fd1e28bc5ab70ea4bd53c7ca7b332202de26d21d81e0a4edb60239e39a40b7cd55c13cf3f9b89dcd7605983d047b0d1486fe2ee48079bed2933c2b1153f940984cc78e428c163e9d1d6c9e1eca395fa7bdf313396ba19b9f4627bbd53f3e0c9fc2b4a8d0ff5f48e7daf6841b56dd09187c3f18934a00b2100ebfdd118e0c8a989432cd6619a644669aea2993e46dd9fe4b382a7d5200affbf59c2d066c869f16859d8e06ed27016874108cfd5a3861ace4aae7acb1dc6221333fd0852cffa80f168c9053b779c600f42e771dc1cbbe9fd6b8734df4465c347eef92bee357e277a06849313b65eae836e124b5f368a1dec33f0b3a31715f6a742e1f09094b2e56fc988e93d2451c333890488f7d84c42bea311a7987ae00317792b4d659830650c669b72be9adaefae2703c7085bc9bb473f441a2d7d133b17d305615d9bc72c9ca9e237f2f1d8e1c8a94d2b83fbf1f1ab4e381142b0d9b367579fca57b59271bb8677edb9de16d3a47364f20c0f93462edb34d54682c58ae0c5e39db52c172ce290ce1edd7d77399bbebbbc3352d03248e809d370937f44084ac61a143a29ce8d86240305430f5cebaca97c3b0ff385b65a3e36a36f232d51b7c91396a6c49943769a4a39f21baae1d75615d9780ecff5072c697c599d3ca022146f6859d144ba99cd9336bed1c02e27fcce06ce32a875d0c3e8ac7250f750fffb2f0e8020e561c733e2cfeae57c79d0c0b1330e05d7d4e6e8cd5f2e6bec58888ca397e4e0bc48fac4e5e883ac4f2453f24b68bc03a03e4776773908ae0bd86178f26c1fff0da62c8d45b49d804a00ce1bce233240e5f7acf11ff5dee2265b23e01ebcfd81fef88953af66d20e3ae8ccc43ce4b8d40f3636f75d1c2b87d2147c4371b656128a15d8c1233bc16a2c074b56aab3cbcfc3e3cb44ccb5dcfdab7a83ed1a5ea010bfba93461ef343ef8cd9e3e48b69f283f09326264d0a031e50d2eb1d8c9b102b8e20a0451e79b1efb25648746552f63f9a60f789feb40e215df4254b8b98661e3e64e6b53cdfb8593ed74588cedc26c67a41a72b47a3b9f136ed1fc05ed6890e6dc875a2b1e50f87480d036cef4ebc343b56d07052a71800e890529176c5717fa811af730a8823208ae35463ee7837577ff914e1755e4dd976dcbcdd195103efc0e0efe242b21f7849b6a067ffe01fd48829ea4a3c02753564e86de49f8cae1b2e82c6d08151fcc4668f97195c0c4afcfc62a6b4908dd88f48f54a68db858f12246961b66dc8a2ec6c29387d0068ca9af71592ced841354c4de95479d2e7a442737aa0e97fc9d180b28583dbd259dbcfd6984eae2e8218633b6addf28fe9e3542775a1018f6eac850fa0afd1bd05b9867383885a100c4b46b036a6244f4b8b8be5b693666046b32ce38bb8a37ec5f554b3afd28bb6d998e2ed7020e57518c05a869827e5c361abd8b6b13e2da185a4a75a01577e9d0939f855a69fdf16cdeef1827c6ef2ce81bf498c5db86610c0c4a1ac025c1715c7e01bdf5ef50f6fb26be7287fa03367a8dc200476ec64c889fe7d3366672bdad0da3ad7a3279975c68d2a166eb872cb9a7428190f7c61ae0813af823d25563fef4379c3d7dbfcb6aa5b028adfe0a852746d9e128f1424f08b2403ecf9afe2176b991fdf668b571427a15d84e5f4c858aa11b5792deede2572b649f8faca13175a4a32c656d495a572c71556d76a839a5a4308bf5f06f1531ec12aa2e16d190af2f460b63fac3f56f2884e141441d41fcaa93031019344e537982909596a2abafb2bec2cbcdd9e1070d16484b686a749eabbbdee4fd000106212d30454b67749095a2b2b5bbfb0c69777a878e949aa7b0b1b8b9bec8d6dfe6f40000000000000000001523344701fd210500c70d2fe2c6df4cd0f35dc7f2f19f7f69c62fa271ffb7423f4099bb40372be290f255e0fd36335bc6f9769776b715dbbb872d58e10ef4d20055a04db139a5fbfca345ae889207b5424a90adbb76172c728b5793e864ca3a752e078a9e2c38d91d0314db354b1abc165bfb35dcb4c335133e9a87798a19f35aa6b446a7d15d48bc62a3a70dc909caa9d7742d54b139353bc5df78e9f98fd8376009427f7cc5c1f3b89e2dfb2691eb3e922cfb5a520c4cc5750d6c5aac22fcba2b24c8c948d4b2bd768e614ad1153312f8632ab79bd2d6b16c6c7cf3139b3755dd97a57c95b77dba670cdddff5f5a8bc5f632ec6657d1891d54ac7f61fc46ab1babaca13b0552252b4d265ed6102609df188f620cfbac9559b5783373d2776cb8aadbc7babb33fdb0d8d86dfe4bc8e047c2e3572a7525f949c1b38dbec22ca9710cebeb37cf843cd87c46cd5e8f5964c53ecb17e5398cdfbb7ef684f32de70831f542feeb461a9f0b9bbce67a8ea0be97437461f7cbaa3812ba03bd691f80528e3a7fa6ddaaedb77fb9c690555d23555738dafc9c37fb567b6589d624b39d84f401b18b3dc52dab832baedc44d8029a0140a78c0c3fa61bebb1f4454330612b923c5e5d44455f8f2ea1d61278a7b5f4e85fa4dcf3b5fa582f453120f8ac2184790fba90a0965c48aab6fc7a08cad183f9d5fe3f8e0f5b5f108eaab763dd7484099773ac851d3a1a130d4a01912b38005bf564ec8e5e12c4d3ef117e36098d2416018452df29f7ceb39641cf7f91fa254804353df054bb2645962b401795b86dfb88ad5ad7ba0613f53728431f2a33b840384f6a48da9ae779a667edc0fa850a4ca5cee6eac17a89429e05bb10a1d650d7dfe47142fa0840b906ce508746526b15fa0f99e41851b3c4bca1582d032176f6f1584d7aaa79b99dfb9de5ab42dad30caeeaa8fdcc9b5701db9c5ee2ea77d12e48d4c96bae4cdde754ff4e8474e5bec4390b3b1cc779bd5f053c08725275c8580f70e1c3bade2307c4fe6552a3b8b26683819c8c793378b62fc7bbc40ea99c451881c7040adcb93c9fffabf7c646383151f9a0c7fbce4cd2241437de239aac7587f1c59f2b512eb7ed1069ae5aaf3bc6ff096508f7452f8c6307b05bb395ff580f705cb37bfd06a43efefacdb46900c5a3cc60e7c578a2c89516572fe46b4e0c789d317ac19f98f950512b529aea40fb34492ebfa417d2c8d5f54fb32ffda5cafd6ab380ec9e9fbabf8236d39940dd4e73d89d6f67a2bba229263b06e61034288892786c36f0e0c07453c1b6557838c4fa5125965013624186a3bac672490bb13f25feef88a9c165a9b459d9752c20b1f2aae3a55fe7532b1800f65a610bbfe2b2a77fe54e214e879292e76925c1e8616a10463c863a0280df8fc8993f43a96791b96362000402aad5dfae8ab77b34e23efaaff12f7acb7cbf12f089ed5a4d92fc837c2a32a933bdae31c568057e959c10b2d66c292f3d2076da5f067d7fb25b4db919545a0282205caa078d054bc82f32dd6a5b03cf37b844ece707f6837f9d10149b3715f3fde6f3dd5d910ea10556aea0ac66dd48bc7a5227cda742f75f448833498123491c671b496cc1f5d77c188d2b2f0e3c8ff7ac60c3a001e5a97a74ee265e6be7b28b4a4b878b5e3f795186aaf3f596c732b3e084cbe79787177d6bb89f6a287c160cc3e186157129d1a272b06a91816479004081c9d5aaee10bece937214982beec6bb3f93e4868d3a861f86953b3c784275dc7be1ee384960fb559d3c41f786d253ccc1c35940bc2868808579f2c9b00d79bbeae5295025d5ec29e5515b47ca4cb9d8b92c99d9dcadc2f672ed3394b70420484000000",
  "txid": "55361b6c80e199c44b5e510743807fa70163b9bd510cf176e1fe142e87fa907b",
  "hash": "93e295f77d5b5dd870262fc7fc630c54e24ad4b598de92e6a6dbb6c86d0ad8b8",
  "size": 5085,
  "vsize": 2278,
  "version": 1,
  "locktime": 132,
  "vin": [
    {
      "txid": "98713e9aad34d53554e91fac8a29a8a59e4d1f512c90c009a98cff53c674a7da",
      "vout": 0,
      "scriptSig": {
        "asm": "",
        "hex": ""
      },
      "txinwitness": [
        "3dbd9984f2f8faf560d01bccffef8dc4fcd4d03a91a05e5bf1a56d27a09d6fef798bc57766b68d3902615247f2e3d7c6ae0c73a54bed716be13940a03ab627786a8675acbd4003298a16b3feb4e77f1cbf6cf371130c1df6069c9f5f0552e779d5941e30cacd247d42abfa1b5dcd3aa1ce032580bbb62e89743acdeb5fc8ae127b23664f387c1c422b0b42273ff73893895f774685a4e5d30dab0e07d92d2249ce0815c56a4b7162ef7c7deadf7f8dad6f76308dd23b4d8ea275278af4e2c0bda47c0d1122fc81b9479437b772406e92480aa759364d65451415961da3090cd9b82fb787f43fdcc50a43bb66df8b3590902b1f8063cc65f24d5e0638550fab3f9a37410885b7eac8e010a8ad45c0d156350152eb2d92b2d97d44b886177e631031fe7258ca9b5451e0bcb6d201981a8b78e8dbeff1cb9f65cb7067a0004e3175a3bd7eb156dbc38f97941534065122fa8754618eaf3d2863aa5900a23eeaea8df804dfe9d0d41fcaf349192a12fd6d25f395af1db069910fa14a0e97656dd719c182ca51b6bbdc78cfa7648d64aef8556614d1580a8652fad83e7115d29a398b2303629efdc9132ad96c9c8158a0e2f991debb435dde5c6a346a15444fff7e1608c331a9b606438cb1cbd0ad319e11210e8bce593a83dc5a9309fe38870c97d19d039e1f800508ae4d0899e12130632e39a0ba73cb33ccfb0685e91f49e0cea68fba1c191bf122c69092abedb547f3d7b4748e28c25f0d8c17bb0802445a6e65af84f7f8bc2f48f33b3f21fa03323c8731358bb514aaebb76a070338e3c012c708a31c967d63465e6eff49b00fd980467d8eb2f336e80d3800254e3eb57404d4969054e1d5c2f348223fa0baac1a4c271b0f614e48c11955203fd56024e96be74c2f58b7963a5e7c0e8ac3aaaf53dedf7d879c07ea8c425ebd6aa95fadbada9d7b33d2f707690a10043704bd4793e745d9d6d9f9c2b03f1a0e6f82afde898f292fdb2bd80f6e6cbd1c958cd824c715bf74c5a0dfbc8c338e52a3296ecb55c508b2679939379a11ff932a5496cdba21f0a88ea609695e8312f00528b25e848c976de3856b7f50a4f9f1422a1fc01fa6071cd096edda3091921e557da85d56eb362ce4b8b55d15542e21adf81ac3150df49da8716d43c3e4a8709ea2893ad2003d0a5fad56ae3278fa97eb0392d588c6fa2b2c87cb107fcddcbba299d62bc2b15876111567f58ab3d82c07618fed21e3577f0af1593bc9934e20350dd48e065790fda2af48b1a7dca22885ed27ae4f575ffe2db76505d43876042795328f0fd04fe871b66a8d5cf850fb26daed4d9c2db9a23ae41f081612f61a2c64ab4d192ca3af0224de63a14ccfdeb048df56088ec895aec99c1c712135fc4b510a5e78facbbcc37ecd1f3a6d7e5cb2733715b082f503428325cdccefa78ba5395ff317191bfa2ac631c9fda01acfd4adc061689a29b76ca41a157f906ceb528ccd6005bb77a87b8a0e45b138ffe2f449f365147c418b06b84635474172fba4fd1e28bc5ab70ea4bd53c7ca7b332202de26d21d81e0a4edb60239e39a40b7cd55c13cf3f9b89dcd7605983d047b0d1486fe2ee48079bed2933c2b1153f940984cc78e428c163e9d1d6c9e1eca395fa7bdf313396ba19b9f4627bbd53f3e0c9fc2b4a8d0ff5f48e7daf6841b56dd09187c3f18934a00b2100ebfdd118e0c8a989432cd6619a644669aea2993e46dd9fe4b382a7d5200affbf59c2d066c869f16859d8e06ed27016874108cfd5a3861ace4aae7acb1dc6221333fd0852cffa80f168c9053b779c600f42e771dc1cbbe9fd6b8734df4465c347eef92bee357e277a06849313b65eae836e124b5f368a1dec33f0b3a31715f6a742e1f09094b2e56fc988e93d2451c333890488f7d84c42bea311a7987ae00317792b4d659830650c669b72be9adaefae2703c7085bc9bb473f441a2d7d133b17d305615d9bc72c9ca9e237f2f1d8e1c8a94d2b83fbf1f1ab4e381142b0d9b367579fca57b59271bb8677edb9de16d3a47364f20c0f93462edb34d54682c58ae0c5e39db52c172ce290ce1edd7d77399bbebbbc3352d03248e809d370937f44084ac61a143a29ce8d86240305430f5cebaca97c3b0ff385b65a3e36a36f232d51b7c91396a6c49943769a4a39f21baae1d75615d9780ecff5072c697c599d3ca022146f6859d144ba99cd9336bed1c02e27fcce06ce32a875d0c3e8ac7250f750fffb2f0e8020e561c733e2cfeae57c79d0c0b1330e05d7d4e6e8cd5f2e6bec58888ca397e4e0bc48fac4e5e883ac4f2453f24b68bc03a03e4776773908ae0bd86178f26c1fff0da62c8d45b49d804a00ce1bce233240e5f7acf11ff5dee2265b23e01ebcfd81fef88953af66d20e3ae8ccc43ce4b8d40f3636f75d1c2b87d2147c4371b656128a15d8c1233bc16a2c074b56aab3cbcfc3e3cb44ccb5dcfdab7a83ed1a5ea010bfba93461ef343ef8cd9e3e48b69f283f09326264d0a031e50d2eb1d8c9b102b8e20a0451e79b1efb25648746552f63f9a60f789feb40e215df4254b8b98661e3e64e6b53cdfb8593ed74588cedc26c67a41a72b47a3b9f136ed1fc05ed6890e6dc875a2b1e50f87480d036cef4ebc343b56d07052a71800e890529176c5717fa811af730a8823208ae35463ee7837577ff914e1755e4dd976dcbcdd195103efc0e0efe242b21f7849b6a067ffe01fd48829ea4a3c02753564e86de49f8cae1b2e82c6d08151fcc4668f97195c0c4afcfc62a6b4908dd88f48f54a68db858f12246961b66dc8a2ec6c29387d0068ca9af71592ced841354c4de95479d2e7a442737aa0e97fc9d180b28583dbd259dbcfd6984eae2e8218633b6addf28fe9e3542775a1018f6eac850fa0afd1bd05b9867383885a100c4b46b036a6244f4b8b8be5b693666046b32ce38bb8a37ec5f554b3afd28bb6d998e2ed7020e57518c05a869827e5c361abd8b6b13e2da185a4a75a01577e9d0939f855a69fdf16cdeef1827c6ef2ce81bf498c5db86610c0c4a1ac025c1715c7e01bdf5ef50f6fb26be7287fa03367a8dc200476ec64c889fe7d3366672bdad0da3ad7a3279975c68d2a166eb872cb9a7428190f7c61ae0813af823d25563fef4379c3d7dbfcb6aa5b028adfe0a852746d9e128f1424f08b2403ecf9afe2176b991fdf668b571427a15d84e5f4c858aa11b5792deede2572b649f8faca13175a4a32c656d495a572c71556d76a839a5a4308bf5f06f1531ec12aa2e16d190af2f460b63fac3f56f2884e141441d41fcaa93031019344e537982909596a2abafb2bec2cbcdd9e1070d16484b686a749eabbbdee4fd000106212d30454b67749095a2b2b5bbfb0c69777a878e949aa7b0b1b8b9bec8d6dfe6f40000000000000000001523344701",
        "00c70d2fe2c6df4cd0f35dc7f2f19f7f69c62fa271ffb7423f4099bb40372be290f255e0fd36335bc6f9769776b715dbbb872d58e10ef4d20055a04db139a5fbfca345ae889207b5424a90adbb76172c728b5793e864ca3a752e078a9e2c38d91d0314db354b1abc165bfb35dcb4c335133e9a87798a19f35aa6b446a7d15d48bc62a3a70dc909caa9d7742d54b139353bc5df78e9f98fd8376009427f7cc5c1f3b89e2dfb2691eb3e922cfb5a520c4cc5750d6c5aac22fcba2b24c8c948d4b2bd768e614ad1153312f8632ab79bd2d6b16c6c7cf3139b3755dd97a57c95b77dba670cdddff5f5a8bc5f632ec6657d1891d54ac7f61fc46ab1babaca13b0552252b4d265ed6102609df188f620cfbac9559b5783373d2776cb8aadbc7babb33fdb0d8d86dfe4bc8e047c2e3572a7525f949c1b38dbec22ca9710cebeb37cf843cd87c46cd5e8f5964c53ecb17e5398cdfbb7ef684f32de70831f542feeb461a9f0b9bbce67a8ea0be97437461f7cbaa3812ba03bd691f80528e3a7fa6ddaaedb77fb9c690555d23555738dafc9c37fb567b6589d624b39d84f401b18b3dc52dab832baedc44d8029a0140a78c0c3fa61bebb1f4454330612b923c5e5d44455f8f2ea1d61278a7b5f4e85fa4dcf3b5fa582f453120f8ac2184790fba90a0965c48aab6fc7a08cad183f9d5fe3f8e0f5b5f108eaab763dd7484099773ac851d3a1a130d4a01912b38005bf564ec8e5e12c4d3ef117e36098d2416018452df29f7ceb39641cf7f91fa254804353df054bb2645962b401795b86dfb88ad5ad7ba0613f53728431f2a33b840384f6a48da9ae779a667edc0fa850a4ca5cee6eac17a89429e05bb10a1d650d7dfe47142fa0840b906ce508746526b15fa0f99e41851b3c4bca1582d032176f6f1584d7aaa79b99dfb9de5ab42dad30caeeaa8fdcc9b5701db9c5ee2ea77d12e48d4c96bae4cdde754ff4e8474e5bec4390b3b1cc779bd5f053c08725275c8580f70e1c3bade2307c4fe6552a3b8b26683819c8c793378b62fc7bbc40ea99c451881c7040adcb93c9fffabf7c646383151f9a0c7fbce4cd2241437de239aac7587f1c59f2b512eb7ed1069ae5aaf3bc6ff096508f7452f8c6307b05bb395ff580f705cb37bfd06a43efefacdb46900c5a3cc60e7c578a2c89516572fe46b4e0c789d317ac19f98f950512b529aea40fb34492ebfa417d2c8d5f54fb32ffda5cafd6ab380ec9e9fbabf8236d39940dd4e73d89d6f67a2bba229263b06e61034288892786c36f0e0c07453c1b6557838c4fa5125965013624186a3bac672490bb13f25feef88a9c165a9b459d9752c20b1f2aae3a55fe7532b1800f65a610bbfe2b2a77fe54e214e879292e76925c1e8616a10463c863a0280df8fc8993f43a96791b96362000402aad5dfae8ab77b34e23efaaff12f7acb7cbf12f089ed5a4d92fc837c2a32a933bdae31c568057e959c10b2d66c292f3d2076da5f067d7fb25b4db919545a0282205caa078d054bc82f32dd6a5b03cf37b844ece707f6837f9d10149b3715f3fde6f3dd5d910ea10556aea0ac66dd48bc7a5227cda742f75f448833498123491c671b496cc1f5d77c188d2b2f0e3c8ff7ac60c3a001e5a97a74ee265e6be7b28b4a4b878b5e3f795186aaf3f596c732b3e084cbe79787177d6bb89f6a287c160cc3e186157129d1a272b06a91816479004081c9d5aaee10bece937214982beec6bb3f93e4868d3a861f86953b3c784275dc7be1ee384960fb559d3c41f786d253ccc1c35940bc2868808579f2c9b00d79bbeae5295025d5ec29e5515b47ca4cb9d8b92c99d9dcadc2f672ed3394b704204"
      ],
      "sequence": 4294967294
    }
  ],
  "vout": [
    {
      "value": 1.0,
      "n": 0,
      "scriptPubKey": {
        "asm": "OP_RETURN bdfb4e04cf97dd67841479392c4336e5c60e11df3f200ab25c0fec3d12d95c0b d4bd66cc00420d191a3f9b0930f1347cee374f289d3c3893d90043cdd0bada4ff49d46ec20622d393a1fbb2910d1145cce176f08bd1c18b3f92063edf09afa6f94fd268c40024d595a7fdb4970b1743cae770f68dd7c78d39940038d90fa9a0fb4dd06ac60226d797a5ffb695091541c8e572f48fd5c58f3b96023adb0daba2f543de64c80c28d999abf1b89b071b4fc6eb7cfa81dbcb8135980c34d503a5acf741dc66ca0e2adb9ba9f3ba9905194dc4e97ef883d9c983379a0e36d701a7aef147da60cc082cdd9daff5bc9f031f4bc2ef78fe85dfcf85319c0830d107a1a8f345d862ce0a2edf9fadf7be9d011d49c0ed7afc87ddcd87339e0a32d305a3aafd4bd66cc00420d191a3f9b0930f1347cee374f289d3c3893d90043cdd0bada4ff49d46ec20622d393a1fbb2910d1145cce176f08bd1c18b3f92063edf09afa6f94fd268c40024d595a7fdb4970b1743cae770f68dd7c78d39940038d90fa9a0fb4dd06ac60226d797a5ffb695091541c8e572f48fd5c58f3b96023adb0daba2f543de64c80c28d999abf1b89b071b4fc6eb7cfa81dbcb8135980c34d503a5acf741dc66ca0e2adb9ba9f3ba9905194dc4e97ef883d9c983379a0e36d701a7aef147da60cc082cdd9daff5bc9f031f4bc2ef78fe85dfcf85319c0830d107a1a8f345d862ce0a2edf9fadf7be9d011d49c0ed7afc87ddcd87339e0a32d305a3aafd4bd66cc00420d191a3f9b0930f1347cee374f289d3c3893d90043cdd0bada4ff49d46ec20622d393a1fbb2910d1145cce176f08bd1c18b3f92063edf09afa6f94fd268c40024d595a7fdb4970b1743cae770f68dd7c78d39940038d90fa9a0fb4dd06ac60226d797a5ffb695091541c8e572f48fd5c58f3b96023adb0daba2f543de64c80c28d999abf1b89b071b4fc6eb7cfa81dbcb8135980c34d503a5acf741dc66ca0e2adb9ba9f3ba9905194dc4e97ef883d9c983379a0e36d701a7aef147da60cc082cdd9daff5bc9f031f4bc2ef78fe85dfcf85319c0830d107a1a8f345d862ce0a2edf9fadf7be9d011d49c0ed7afc87ddcd87339e0a32d305a3aafd4bd66cc00420d191a3f9b0930f1347cee374f289d3c3893d90043cdd0bada4ff49d46ec20622d393a1fbb2910d1145cce176f08bd1c18b3f92063edf09afa6f94fd268c40024d595a7fdb4970b1743cae770f68dd7c78d39940038d90fa9a0fb4dd06ac60226d797a5ffb695091541c8e572f48fd5c58f3b96023adb0daba2f543de64c80c28d999abf1b89b071b4fc6eb7cfa81dbcb8135980c34d503a5acf741dc66ca0e2adb9ba9f3ba9905194dc4e97ef883d9c983379a0e36d701a7aef147da60cc082cdd9daff5bc9f031f4bc2ef78fe85dfcf85319c0830d107a1a8f345d862ce0a2edf9fadf7be9d011d49c0ed7afc87ddcd87339e0a32d305a3aafd4bd66cc00420d191a3f9b0930f1347cee374f289d3c3893d90043cdd0bada4ff49d46ec20622d393a1fbb2910d1145cce176f08bd1c18b3f92063edf09afa6f94fd268c40024d595a7fdb4970b1743cae770f68dd7c78d39940038d90fa9a0fb4dd06ac60226d797a5ffb695091541c8e572f48fd5c58f3b96023adb0daba2f543de64c80c28d999abf1b89b071b4fcaf92a0e94290ab6b16df4f39c3ee133e3b85d0a03fe20f6d95d94618550dc685",
        "hex": "6a20bdfb4e04cf97dd67841479392c4336e5c60e11df3f200ab25c0fec3d12d95c0b4db004d4bd66cc00420d191a3f9b0930f1347cee374f289d3c3893d90043cdd0bada4ff49d46ec20622d393a1fbb2910d1145cce176f08bd1c18b3f92063edf09afa6f94fd268c40024d595a7fdb4970b1743cae770f68dd7c78d39940038d90fa9a0fb4dd06ac60226d797a5ffb695091541c8e572f48fd5c58f3b96023adb0daba2f543de64c80c28d999abf1b89b071b4fc6eb7cfa81dbcb8135980c34d503a5acf741dc66ca0e2adb9ba9f3ba9905194dc4e97ef883d9c983379a0e36d701a7aef147da60cc082cdd9daff5bc9f031f4bc2ef78fe85dfcf85319c0830d107a1a8f345d862ce0a2edf9fadf7be9d011d49c0ed7afc87ddcd87339e0a32d305a3aafd4bd66cc00420d191a3f9b0930f1347cee374f289d3c3893d90043cdd0bada4ff49d46ec20622d393a1fbb2910d1145cce176f08bd1c18b3f92063edf09afa6f94fd268c40024d595a7fdb4970b1743cae770f68dd7c78d39940038d90fa9a0fb4dd06ac60226d797a5ffb695091541c8e572f48fd5c58f3b96023adb0daba2f543de64c80c28d999abf1b89b071b4fc6eb7cfa81dbcb8135980c34d503a5acf741dc66ca0e2adb9ba9f3ba9905194dc4e97ef883d9c983379a0e36d701a7aef147da60cc082cdd9daff5bc9f031f4bc2ef78fe85dfcf85319c0830d107a1a8f345d862ce0a2edf9fadf7be9d011d49c0ed7afc87ddcd87339e0a32d305a3aafd4bd66cc00420d191a3f9b0930f1347cee374f289d3c3893d90043cdd0bada4ff49d46ec20622d393a1fbb2910d1145cce176f08bd1c18b3f92063edf09afa6f94fd268c40024d595a7fdb4970b1743cae770f68dd7c78d39940038d90fa9a0fb4dd06ac60226d797a5ffb695091541c8e572f48fd5c58f3b96023adb0daba2f543de64c80c28d999abf1b89b071b4fc6eb7cfa81dbcb8135980c34d503a5acf741dc66ca0e2adb9ba9f3ba9905194dc4e97ef883d9c983379a0e36d701a7aef147da60cc082cdd9daff5bc9f031f4bc2ef78fe85dfcf85319c0830d107a1a8f345d862ce0a2edf9fadf7be9d011d49c0ed7afc87ddcd87339e0a32d305a3aafd4bd66cc00420d191a3f9b0930f1347cee374f289d3c3893d90043cdd0bada4ff49d46ec20622d393a1fbb2910d1145cce176f08bd1c18b3f92063edf09afa6f94fd268c40024d595a7fdb4970b1743cae770f68dd7c78d39940038d90fa9a0fb4dd06ac60226d797a5ffb695091541c8e572f48fd5c58f3b96023adb0daba2f543de64c80c28d999abf1b89b071b4fc6eb7cfa81dbcb8135980c34d503a5acf741dc66ca0e2adb9ba9f3ba9905194dc4e97ef883d9c983379a0e36d701a7aef147da60cc082cdd9daff5bc9f031f4bc2ef78fe85dfcf85319c0830d107a1a8f345d862ce0a2edf9fadf7be9d011d49c0ed7afc87ddcd87339e0a32d305a3aafd4bd66cc00420d191a3f9b0930f1347cee374f289d3c3893d90043cdd0bada4ff49d46ec20622d393a1fbb2910d1145cce176f08bd1c18b3f92063edf09afa6f94fd268c40024d595a7fdb4970b1743cae770f68dd7c78d39940038d90fa9a0fb4dd06ac60226d797a5ffb695091541c8e572f48fd5c58f3b96023adb0daba2f543de64c80c28d999abf1b89b071b4fcaf92a0e94290ab6b16df4f39c3ee133e3b85d0a03fe20f6d95d94618550dc685",
        "type": "nulldata"
      }
    },
    {
      "value": 499965.4254,
      "n": 1,
      "scriptPubKey": {
        "asm": "1 523c2111c37ba002a9447ff428c36655c7806ac2689a9f0449e7947b95a569a3",
        "hex": "5120523c2111c37ba002a9447ff428c36655c7806ac2689a9f0449e7947b95a569a3",
        "reqSigs": 1,
        "type": "witness_v1_scripthash",
        "addresses": [
          "3QJmnh"
        ]
      }
    }
  ],
  "blockhash": "2dfbfbf9a9b6a37d5bbaa2d3fd41803f08650e7d63861427b8d0526132d1543b",
  "confirmations": 1,
  "time": 1764182436,
  "blocktime": 1764182436
}