{
  "hex": "01000000000101327c588059e156b03313dc345e5e4900bb0360f2ba8336ba0d4718781fdfab200100000000feffffff0280cbbf57792d0000225120e647d0575b0907eae138b219ccb4bf4bb7f6e4c183d0a1cb4fb0525b5ca65a4900e1f50500000000fdd5046a20837352b96b86ac79548cdfdff1da08353071a905dca37cf33c90acc2d9b847004db0040d963a4ac190370ae94dfc48d3ee7882efd736c0144282362e868b171c7b9ffa2db61a6ae1b0172ac96ddc68f3ce58a2cff716e03462a2160ea6ab373c5bbfda4dd67a0a81d0774aa90dbc0893ae38c2af9776805402c2766ec6cb575c3bdfba6df65a2aa1f0576a892d9c28b38e18e28fb756a07422e2564ee6eb777c1bff9a8d16baca4110b78a69cd7cc8536ef8026f57b64094c202b6ae060b979cfb1f7aad369aea613097aa49ed5ce8734ed8224f779660b4e222968e262bb7bcdb3f5acd56fa8a0150f7ca298d3c88132eb8422f17f600d48242f6ee464bd7dcbb5f3aed76daaa2170d7ea09ad1ca8330e98620f37d620f4a262d6ce666bf7fc9b7f1a0d963a4ac190370ae94dfc48d3ee7882efd736c0144282362e868b171c7b9ffa2db61a6ae1b0172ac96ddc68f3ce58a2cff716e03462a2160ea6ab373c5bbfda4dd67a0a81d0774aa90dbc0893ae38c2af9776805402c2766ec6cb575c3bdfba6df65a2aa1f0576a892d9c28b38e18e28fb756a07422e2564ee6eb777c1bff9a8d16baca4110b78a69cd7cc8536ef8026f57b64094c202b6ae060b979cfb1f7aad369aea613097aa49ed5ce8734ed8224f779660b4e222968e262bb7bcdb3f5acd56fa8a0150f7ca298d3c88132eb8422f17f600d48242f6ee464bd7dcbb5f3aed76daaa2170d7ea09ad1ca8330e98620f37d620f4a262d6ce666bf7fc9b7f1a0d963a4ac190370ae94dfc48d3ee7882efd736c0144282362e868b171c7b9ffa2db61a6ae1b0172ac96ddc68f3ce58a2cff716e03462a2160ea6ab373c5bbfda4dd67a0a81d0774aa90dbc0893ae38c2af9776805402c2766ec6cb575c3bdfba6df65a2aa1f0576a892d9c28b38e18e28fb756a07422e2564ee6eb777c1bff9a8d16baca4110b78a69cd7cc8536ef8026f57b64094c202b6ae060b979cfb1f7aad369aea613097aa49ed5ce8734ed8224f779660b4e222968e262bb7bcdb3f5acd56fa8a0150f7ca298d3c88132eb8422f17f600d48242f6ee464bd7dcbb5f3aed76daaa2170d7ea09ad1ca8330e98620f37d620f4a262d6ce666bf7fc9b7f1a0d963a4ac190370ae94dfc48d3ee7882efd736c0144282362e868b171c7b9ffa2db61a6ae1b0172ac96ddc68f3ce58a2cff716e03462a2160ea6ab373c5bbfda4dd67a0a81d0774aa90dbc0893ae38c2af9776805402c2766ec6cb575c3bdfba6df65a2aa1f0576a892d9c28b38e18e28fb756a07422e2564ee6eb777c1bff9a8d16baca4110b78a69cd7cc8536ef8026f57b64094c202b6ae060b979cfb1f7aad369aea613097aa49ed5ce8734ed8224f779660b4e222968e262bb7bcdb3f5acd56fa8a0150f7ca298d3c88132eb8422f17f600d48242f6ee464bd7dcbb5f3aed76daaa2170d7ea09ad1ca8330e98620f37d620f4a262d6ce666bf7fc9b7f1a0d963a4ac190370ae94dfc48d3ee7882efd736c0144282362e868b171c7b9ffa2db61a6ae1b0172ac96ddc68f3ce58a2cff716e03462a2160ea6ab373c5bbfda4dd67a0a81d0774aa90dbc0893ae38c2af9776805402c2766ec6cb575c3bdfba6df65a2aa1f0576a892d9c28b38e18e28fb756a07422e2564ee6eb777c1bff9a8d16baca4110b78a69cd7cc8536ef802c2e3a597213c9756b06c17a6fd8a1e5bdef5d3e904882cc5fcf181d4e16cf13d02fd7509e36179a2f3264ebcdeff9a587332d2f9b04f5428fbcae62717a016ba37404f045760b5d404e076bd1059ebf015a04ee84270afaa19830b554191b54cc63260a32492dc1916c1812bd189d66c8f94e733fde3af933607980dffead0ac2b5b99411061840f581f533bec5d76a4c71725b5ce4df066227289a1a244ea4cdcb3d721b08cdc86ef441ba9b1c72c019559307a01d2163fed6ab50eaad0f3f08f2379b4ddc18d420ba51a26499d102e640a573c625152e341de4f082faaed021d69d28feac4770a5c00197deda6f967d4990a4fed13de9abf40868fce86fead8d50d8dc011990267908812399810d43328d45fb047239a782def5cfd13c4652078f6664c4ae8431ba484cabd10112594a923b1690db2e8a732b320e6dbde045281ab19d41faf85ae2eae2bc2eb03bb2cfb61189052fc23bc489e2d3172b316830fb98299f8b96e8c776a2f6b6bf693e25cb411e8ddb2f33a6ea30b97d95357be279fc5f8bdd56c55b5308b19c4575e31c3aced37d5e892a8edba97dcdcc7e754eb88c621e198ca9703f5c3ea962704c7d44d0061a3123b1ad683bec60fb084d9fc28d7418a3ebd871e4833ba57d47c30d736d73deae0752bb6aff7d05986aeb0574cb9108177ed8853f003e2bbb860042becd68b70747f1d6a16856be2a163f305ba489ec4df7d6a9843fe451b6f89c8a11bd6fa506460b2221cfe5cc945470131d8c6e14b49ee035fd24a8ed7d3d0d997432a040a94afcdd9c7713277dfc6d6f311ee97dca345f18e23e1843d3aaeefaa8560014c1049a7487193f9c9385c99eccc3bc9197d0e708ee75abdb920c57e8460f04af4c96514283a4619dc6bbb1b7f119537879db6ee0f4003a408cdf0e3ec97901608296c6b588244b5e31eca575c1df0a9ae193b8d420937c98eeb0aa43152916ad932de4d0500518db5e33af14c0324bb3f91a098e6c3932a77ca19922b52a197f3bbc38b03b35e7e2a10f5448bd1a83689dafe219c31a1b964bb412884506c64c1517fe610fc4b2aa59a8a0cf56b1e27cef708c3333a61e656c3c5b32c1ac08abd0b412c051f1e9c3fb9bc3771370995827834eec0ccc828de48e03797492926c8916aa038db7d9ab8795e3e8fab48c4fa76c34520ff2250034cd7034081047567ad12ce2f23876e2228ec537f5318aeb4b48f075cf128c11e2fc1741c02d31656f52aba1eddadc4fc36f95752de14c152c59b5eb9fe466dd5a6e7f4e08d5196efe147e2ddbad37d7980c066ecc9eeaf7d8458fc010bdba1b318947ce83922b1ab75413aa15b2d9c502638e363be1757d114d9a139787f3a7fb6b3edee6f97b9b1e063f606bb9aec3cec8281069ffeb38bf805d29dce5edd56b784709c696133679dcc4d08c1e7dce2d9053279c7f74202bbbaa87616c59bf2a1104ed84d1753df60d2502069a0cab741d341872ef1f0066946ea42c8908d24df4b5395344314323c8fe7e5dca08d2a2af6dbea316b1cf8bbcf7cb64de84c701bfc22e2ae64366074f2bed947e0c4f34c7a51f265f3c1da580b634253bfc5f9e173f1f6fddfc30d89d80cf2d3426255cb19bf70d00230ce3637111dd53d4ac8272dfaf12ef216fe94cb0f98bd6cf859d6394e0469a9a0bb72f7bda1d89407b5dd5aca84049b79eabd50d0e895f606a7708830f096ff91227af2035b35eb540386562ab9f92cf08dfcad93c90f22518af8dc6a39ad702af7784b2dfe178036a9b1be24e1cc0d0805b0108102cfe0e434183438c8314431d7f297eec31420cd6e0052fa6d09e8cf61ef8e0e43db9475de2b138e4a045d9b17737319ba197cbaf8ad3a40a1513a84d50c0ac85d6fefbd3f09a4031c58c57f20088370c3fa54da0ddab17885c193049705acd32d584c76eac1130c4a4421d5e0a7b5fbeb497f2006fa530c0fb08e30e0fc5d2310bd024174f86250d7389d00a00046076d2feb7fb44ce50346be57926fb5e92ba53865aca976a3df9fb6dbc2bc571fc108af660a08591ddab40463f61bcbeb09e3b2d6ee40889e40d0c79a8a7ebec62cf26726bb62f28527de9786b0be48c9245b2403f1041de3e8f8ca15cefd049b78757cb635df0e84cc0b91c9f7e768eb24cb05fdec55b65686de2dc68b7a77448e987fbde61d6519560a3cbbbaa31e35a55fb271b4ff565b867061b6db53a8f1cf0bcfb228c29177fd2c327e324e6a85560cc3a95f957c1e0f27ac2e4b19ebf8ce6c6fdb3263e458234a2256a8c1984e5160223a0e500c49e82dd020f5c681228601c8daaa9a6a2759487981824ec41e6173f6fea1e8f13d40756b570d7c676255893c2865ac561ac165fe45f1bb860894f5ee8add304ab2b37c0ce6febaba0acc163bacbf930cc9fa5e48050a312e152550b7c2123945493b419fbdb4ebba3f3c7f145992d2a028a8410a8a8c4f3ba2f8bcabfc1b52ea39b79497a259d257f92a5f644fdacdf8879bdc561b24cec584ee83dd6d99c7a90dd3e264eed202e294e4c629918e89e398ab0cdf9f2cd05f9098fdb09c9578756c40470dc9a3c9db821e90548a476553e254fffe407a0df9ff5cd14144e6f79022a04e28584d531408a810e0328cee771824b83dc2745260d65694120ab56832bcb48ec85d2e3b3dc6306c78b8e24427d0ec4c077677afeb501f0b3ea81723a5ff9d5be49dadd71e3ae0356baf4cb051c2283f10b5309d4a7652b1305704904060663e053b6d1d6f2ddd0deab8d2356cfe9e3ddec7febee99b8872efe71070c604799e1ee574e6b761968c283a3a4c1b8877557d195e3e3f08347e658361eacc5bf7d1181c7247778c932f38aa2b09bc043e2dca3ac5354f2d8e1c682f5a6190aaf7e96906e88ce6492ee46aff265fb9cf6b3be7af41dae0f073ce8df13ee9d5538d8eb053e6ef26b649edfb78ce1e8c0e4c05c1e75884f7e23b164ddf8521831b1c5e8261e7c9166f16a8e005022c3a29047d3437aa89a0c007748c550ea8538a6bdfded91508a9edd74ea2da87ab55ea37f768e50fc83745530aca0e79bc4c940fe63815b0a94e4510a04654e5717f9e07d7884972bee980bc88825ee02fa4ba0ab4ddfab1baf4cc34e64e918b35ecf0fdfd238a361e1c2f1eec5fc883d89aea0c5768f3f16f9c2238acb372fadbbdfd8f6e7dcde1f85c0c90b666445e8265b81ed27e6f24640537ee369d51e8ed6b6a90585a4e4ba3c944636c4dc66731ccfca2aaab2ea23053df42cce8f539d2b998f7e9720c1318e507e06c63993a4977a67832494601f10a855d1c273b1b2b8974aca0cb5321e733c806c3a72e245c7a66aefc95b01253a5156595f6274848699a2a4b0bad21d1e5d61818b9396b3bec0c5ccd2dadcf9060b0d1824303435374559747a7f82869cadd5d927282c2f33404750555b5e6c7176777ab0b7bfd3d4dae1000000001021354c01fd210500cab8234722484ef0208786a019bf9c7a0caed299c028960ba7c456ea740bc6062bb884b41366463b13a173a386e3e412d695344e727610e347a7006c443602d995eaf42e486c0932fca6d9e26766380bab704caf70a878dec8d5346c9f8b5e8959ccf72684d21ebc14fa9206225fb807d2ff0d625c374c4fda055ed5cd9132fe0631f450ffdbd48bf8f4f308536adb038a5b65f266880c9907140aa75a8f6d73adc3cc9506e252eb54bd09cd38ad536af2b753a142013abdd5654e35582a7980bf4904cdb8c481f6ace79c923fd4e2fedc4f670ad22e4d3fbb943b7c24c380cea099c75f45a1aba279a6809a774c4a97e20e9342c64de157d3cf8fe583062d535fedc750410976abeba3c88c6b0df94ab152d45b291a45da761088addeba78dbe9040d9156c23752cccbad0a2a3f3835df6bcb5869958e84b5d96c6cdf3949bf4f9cb4139092130c419b08c8ce9e8ab2c43583be85fa2b498e3c1e04097a18f43d4cbc1c907bb65e77b5ff0d1c61ff3d5fec1aa6287a7c09ea32ae4b912161a3d957232fe0b048927633e60a2f2682d3fd4d5d46c698f571f81a66adae108a174ad9255f70cd502ead1cd4d0017b1b466065f7298b0204888b381f0175df05bfbb29473518bf23320b00bb6f1e8a68b3f4e93c0c65b85f4630a3dc93bce64960a8d5caef3fbd098e68f16c0319fe25a42abb2c325402bc0cb6f53c44459378243de45ffce0dc5282de413c5ab8600daf4bd43647e40b81f6b65a5cc933b801706f82df79874f8a7ffec751ad82fde7a16f4cb737fe9612f80e03227559155d59ad2bc8b0bcc95406547fbae6452b36e7d0f081edb00120577aa039fea71d1281a4eff2afd0e849a6ec4bcb9a10f4d1bb04eaf4816f60887251e1f1b0bb4149e06567e6371703c4d6f9a59292a00c8d4a68a9172ec64418055eee5a1334a4b72127f7ec87aa3173fb907838f5c11d7718b6aa95f373eaab41c0851e247a428219ef6d8ab5f1ca859c299dd0feb07c6834eeaf6f7db5cf05f847dd3c16ffd8db7cef31a6981dd96f97cb715658fb7811c3f4aafaa6fd54fa8394226c4ab01de105f1ef7a1b341142eebfc68e6b3ce34ebaf3c42b4bcdd1fa112bed04c1221ee602fa9a898f2ca454bf32777632250a527bfa16d321d67b8b61388823b5b4ef83193fe2c9aef0e0e395b7f9c8573cf0a72495d1e9dbfe4c10c4f79da15955a625fa7074ec8cf3495f3ad3bab8f1d97aea190b765e3995a498b17dfa3bb4002321f31a0cd27d29fe3ca0db4f496c7ac36262006826d333ba619f27c6b57461cab5ce1bd2ca5303445c3543e312869b867e62b5e12f9559f94b7253109aed38746db84c7dc7edc207a93b0ad91b92aded6023d74f1c88c79bcded66c11e3dc9156a9984cd0119e8f291240ad4de10e640d83817c5348ac9b5fcd3e8550045d04a050c89ce3923402e9c6fe6b377f8a045a2a6843284a588b137c58a65872cf9777162093c9120f050af5c55c332df882dfc566d77a663d8ea435cde4496f14c406ccab3e934ec6b9fbe54a88033024673dd865279a01c772de6e94e4a6616dcf52c16f0b90cd345d7a02f5aa068b8f2ba29f54f62a7fa183930b32f7d6b188191fa03b2c45e338a7efaba6e6caa4455fcbbb3d9761ce7c4aa6d049173ec5b8e0054c9291eb7197b52e419a788e4549cd4bf456bcb047e4b424ccc9b55b4a1b5c8ed641aca5a70cf364de15b207b5feab4cc281a3cf07b92971d5b7042e75bc3da1fa7cbe8db666493c1a8adb406416564a2bde5fa961214fd4eb52734b3644c07b31b98e6d1db12ed3121c5b5651eca6cf6e40fde4e1362edfffec8c2e59f4cb39b0a6a000000",
  "txid": "5377d72147f1150b8b96d7c7bb25b60699a9be997debf4f1379202399a8b4754",
  "hash": "37f1fb0a76f53efd8cb6a8e01a99a40ba5c083ef508c9e675b1b3552835ea29a",
  "size": 5085,
  "vsize": 2278,
  "version": 1,
  "locktime": 106,
  "vin": [
    {
      "txid": "20abdf1f7818470dba3683baf26003bb00495e5e34dc1333b056e15980587c32",
      "vout": 1,
      "scriptSig": {
        "asm": "",
        "hex": ""
      },
      "txinwitness": [
        "e36179a2f3264ebcdeff9a587332d2f9b04f5428fbcae62717a016ba37404f045760b5d404e076bd1059ebf015a04ee84270afaa19830b554191b54cc63260a32492dc1916c1812bd189d66c8f94e733fde3af933607980dffead0ac2b5b99411061840f581f533bec5d76a4c71725b5ce4df066227289a1a244ea4cdcb3d721b08cdc86ef441ba9b1c72c019559307a01d2163fed6ab50eaad0f3f08f2379b4ddc18d420ba51a26499d102e640a573c625152e341de4f082faaed021d69d28feac4770a5c00197deda6f967d4990a4fed13de9abf40868fce86fead8d50d8dc011990267908812399810d43328d45fb047239a782def5cfd13c4652078f6664c4ae8431ba484cabd10112594a923b1690db2e8a732b320e6dbde045281ab19d41faf85ae2eae2bc2eb03bb2cfb61189052fc23bc489e2d3172b316830fb98299f8b96e8c776a2f6b6bf693e25cb411e8ddb2f33a6ea30b97d95357be279fc5f8bdd56c55b5308b19c4575e31c3aced37d5e892a8edba97dcdcc7e754eb88c621e198ca9703f5c3ea962704c7d44d0061a3123b1ad683bec60fb084d9fc28d7418a3ebd871e4833ba57d47c30d736d73deae0752bb6aff7d05986aeb0574cb9108177ed8853f003e2bbb860042becd68b70747f1d6a16856be2a163f305ba489ec4df7d6a9843fe451b6f89c8a11bd6fa506460b2221cfe5cc945470131d8c6e14b49ee035fd24a8ed7d3d0d997432a040a94afcdd9c7713277dfc6d6f311ee97dca345f18e23e1843d3aaeefaa8560014c1049a7487193f9c9385c99eccc3bc9197d0e708ee75abdb920c57e8460f04af4c96514283a4619dc6bbb1b7f119537879db6ee0f4003a408cdf0e3ec97901608296c6b588244b5e31eca575c1df0a9ae193b8d420937c98eeb0aa43152916ad932de4d0500518db5e33af14c0324bb3f91a098e6c3932a77ca19922b52a197f3bbc38b03b35e7e2a10f5448bd1a83689dafe219c31a1b964bb412884506c64c1517fe610fc4b2aa59a8a0cf56b1e27cef708c3333a61e656c3c5b32c1ac08abd0b412c051f1e9c3fb9bc3771370995827834eec0ccc828de48e03797492926c8916aa038db7d9ab8795e3e8fab48c4fa76c34520ff2250034cd7034081047567ad12ce2f23876e2228ec537f5318aeb4b48f075cf128c11e2fc1741c02d31656f52aba1eddadc4fc36f95752de14c152c59b5eb9fe466dd5a6e7f4e08d5196efe147e2ddbad37d7980c066ecc9eeaf7d8458fc010bdba1b318947ce83922b1ab75413aa15b2d9c502638e363be1757d114d9a139787f3a7fb6b3edee6f97b9b1e063f606bb9aec3cec8281069ffeb38bf805d29dce5edd56b784709c696133679dcc4d08c1e7dce2d9053279c7f74202bbbaa87616c59bf2a1104ed84d1753df60d2502069a0cab741d341872ef1f0066946ea42c8908d24df4b5395344314323c8fe7e5dca08d2a2af6dbea316b1cf8bbcf7cb64de84c701bfc22e2ae64366074f2bed947e0c4f34c7a51f265f3c1da580b634253bfc5f9e173f1f6fddfc30d89d80cf2d3426255cb19bf70d00230ce3637111dd53d4ac8272dfaf12ef216fe94cb0f98bd6cf859d6394e0469a9a0bb72f7bda1d89407b5dd5aca84049b79eabd50d0e895f606a7708830f096ff91227af2035b35eb540386562ab9f92cf08dfcad93c90f22518af8dc6a39ad702af7784b2dfe178036a9b1be24e1cc0d0805b0108102cfe0e434183438c8314431d7f297eec31420cd6e0052fa6d09e8cf61ef8e0e43db9475de2b138e4a045d9b17737319ba197cbaf8ad3a40a1513a84d50c0ac85d6fefbd3f09a4031c58c57f20088370c3fa54da0ddab17885c193049705acd32d584c76eac1130c4a4421d5e0a7b5fbeb497f2006fa530c0fb08e30e0fc5d2310bd024174f86250d7389d00a00046076d2feb7fb44ce50346be57926fb5e92ba53865aca976a3df9fb6dbc2bc571fc108af660a08591ddab40463f61bcbeb09e3b2d6ee40889e40d0c79a8a7ebec62cf26726bb62f28527de9786b0be48c9245b2403f1041de3e8f8ca15cefd049b78757cb635df0e84cc0b91c9f7e768eb24cb05fdec55b65686de2dc68b7a77448e987fbde61d6519560a3cbbbaa31e35a55fb271b4ff565b867061b6db53a8f1cf0bcfb228c29177fd2c327e324e6a85560cc3a95f957c1e0f27ac2e4b19ebf8ce6c6fdb3263e458234a2256a8c1984e5160223a0e500c49e82dd020f5c681228601c8daaa9a6a2759487981824ec41e6173f6fea1e8f13d40756b570d7c676255893c2865ac561ac165fe45f1bb860894f5ee8add304ab2b37c0ce6febaba0acc163bacbf930cc9fa5e48050a312e152550b7c2123945493b419fbdb4ebba3f3c7f145992d2a028a8410a8a8c4f3ba2f8bcabfc1b52ea39b79497a259d257f92a5f644fdacdf8879bdc561b24cec584ee83dd6d99c7a90dd3e264eed202e294e4c629918e89e398ab0cdf9f2cd05f9098fdb09c9578756c40470dc9a3c9db821e90548a476553e254fffe407a0df9ff5cd14144e6f79022a04e28584d531408a810e0328cee771824b83dc2745260d65694120ab56832bcb48ec85d2e3b3dc6306c78b8e24427d0ec4c077677afeb501f0b3ea81723a5ff9d5be49dadd71e3ae0356baf4cb051c2283f10b5309d4a7652b1305704904060663e053b6d1d6f2ddd0deab8d2356cfe9e3ddec7febee99b8872efe71070c604799e1ee574e6b761968c283a3a4c1b8877557d195e3e3f08347e658361eacc5bf7d1181c7247778c932f38aa2b09bc043e2dca3ac5354f2d8e1c682f5a6190aaf7e96906e88ce6492ee46aff265fb9cf6b3be7af41dae0f073ce8df13ee9d5538d8eb053e6ef26b649edfb78ce1e8c0e4c05c1e75884f7e23b164ddf8521831b1c5e8261e7c9166f16a8e005022c3a29047d3437aa89a0c007748c550ea8538a6bdfded91508a9edd74ea2da87ab55ea37f768e50fc83745530aca0e79bc4c940fe63815b0a94e4510a04654e5717f9e07d7884972bee980bc88825ee02fa4ba0ab4ddfab1baf4cc34e64e918b35ecf0fdfd238a361e1c2f1eec5fc883d89aea0c5768f3f16f9c2238acb372fadbbdfd8f6e7dcde1f85c0c90b666445e8265b81ed27e6f24640537ee369d51e8ed6b6a90585a4e4ba3c944636c4dc66731ccfca2aaab2ea23053df42cce8f539d2b998f7e9720c1318e507e06c63993a4977a67832494601f10a855d1c273b1b2b8974aca0cb5321e733c806c3a72e245c7a66aefc95b01253a5156595f6274848699a2a4b0bad21d1e5d61818b9396b3bec0c5ccd2dadcf9060b0d1824303435374559747a7f82869cadd5d927282c2f33404750555b5e6c7176777ab0b7bfd3d4dae1000000001021354c01",
        "00cab8234722484ef0208786a019bf9c7a0caed299c028960ba7c456ea740bc6062bb884b41366463b13a173a386e3e412d695344e727610e347a7006c443602d995eaf42e486c0932fca6d9e26766380bab704caf70a878dec8d5346c9f8b5e8959ccf72684d21ebc14fa9206225fb807d2ff0d625c374c4fda055ed5cd9132fe0631f450ffdbd48bf8f4f308536adb038a5b65f266880c9907140aa75a8f6d73adc3cc9506e252eb54bd09cd38ad536af2b753a142013abdd5654e35582a7980bf4904cdb8c481f6ace79c923fd4e2fedc4f670ad22e4d3fbb943b7c24c380cea099c75f45a1aba279a6809a774c4a97e20e9342c64de157d3cf8fe583062d535fedc750410976abeba3c88c6b0df94ab152d45b291a45da761088addeba78dbe9040d9156c23752cccbad0a2a3f3835df6bcb5869958e84b5d96c6cdf3949bf4f9cb4139092130c419b08c8ce9e8ab2c43583be85fa2b498e3c1e04097a18f43d4cbc1c907bb65e77b5ff0d1c61ff3d5fec1aa6287a7c09ea32ae4b912161a3d957232fe0b048927633e60a2f2682d3fd4d5d46c698f571f81a66adae108a174ad9255f70cd502ead1cd4d0017b1b466065f7298b0204888b381f0175df05bfbb29473518bf23320b00bb6f1e8a68b3f4e93c0c65b85f4630a3dc93bce64960a8d5caef3fbd098e68f16c0319fe25a42abb2c325402bc0cb6f53c44459378243de45ffce0dc5282de413c5ab8600daf4bd43647e40b81f6b65a5cc933b801706f82df79874f8a7ffec751ad82fde7a16f4cb737fe9612f80e03227559155d59ad2bc8b0bcc95406547fbae6452b36e7d0f081edb00120577aa039fea71d1281a4eff2afd0e849a6ec4bcb9a10f4d1bb04eaf4816f60887251e1f1b0bb4149e06567e6371703c4d6f9a59292a00c8d4a68a9172ec64418055eee5a1334a4b72127f7ec87aa3173fb907838f5c11d7718b6aa95f373eaab41c0851e247a428219ef6d8ab5f1ca859c299dd0feb07c6834eeaf6f7db5cf05f847dd3c16ffd8db7cef31a6981dd96f97cb715658fb7811c3f4aafaa6fd54fa8394226c4ab01de105f1ef7a1b341142eebfc68e6b3ce34ebaf3c42b4bcdd1fa112bed04c1221ee602fa9a898f2ca454bf32777632250a527bfa16d321d67b8b61388823b5b4ef83193fe2c9aef0e0e395b7f9c8573cf0a72495d1e9dbfe4c10c4f79da15955a625fa7074ec8cf3495f3ad3bab8f1d97aea190b765e3995a498b17dfa3bb4002321f31a0cd27d29fe3ca0db4f496c7ac36262006826d333ba619f27c6b57461cab5ce1bd2ca5303445c3543e312869b867e62b5e12f9559f94b7253109aed38746db84c7dc7edc207a93b0ad91b92aded6023d74f1c88c79bcded66c11e3dc9156a9984cd0119e8f291240ad4de10e640d83817c5348ac9b5fcd3e8550045d04a050c89ce3923402e9c6fe6b377f8a045a2a6843284a588b137c58a65872cf9777162093c9120f050af5c55c332df882dfc566d77a663d8ea435cde4496f14c406ccab3e934ec6b9fbe54a88033024673dd865279a01c772de6e94e4a6616dcf52c16f0b90cd345d7a02f5aa068b8f2ba29f54f62a7fa183930b32f7d6b188191fa03b2c45e338a7efaba6e6caa4455fcbbb3d9761ce7c4aa6d049173ec5b8e0054c9291eb7197b52e419a788e4549cd4bf456bcb047e4b424ccc9b55b4a1b5c8ed641aca5a70cf364de15b207b5feab4cc281a3cf07b92971d5b7042e75bc3da1fa7cbe8db666493c1a8adb406416564a2bde5fa961214fd4eb52734b3644c07b31b98e6d1db12ed3121c5b5651eca6cf6e40fde4e1362edfffec8c2e59f4cb39b0a"
      ],
      "sequence": 4294967294
    }
  ],
  "vout": [
    {
      "value": 499991.8648,
      "n": 0,
      "scriptPubKey": {
        "asm": "1 e647d0575b0907eae138b219ccb4bf4bb7f6e4c183d0a1cb4fb0525b5ca65a49",
        "hex": "5120e647d0575b0907eae138b219ccb4bf4bb7f6e4c183d0a1cb4fb0525b5ca65a49",
        "reqSigs": 1,
        "type": "witness_v1_scripthash",
        "addresses": [
          "3QJmnh"
        ]
      }
    },
    {
      "value": 1.0,
      "n": 1,
      "scriptPubKey": {
        "asm": "OP_RETURN 837352b96b86ac79548cdfdff1da08353071a905dca37cf33c90acc2d9b84700 0d963a4ac190370ae94dfc48d3ee7882efd736c0144282362e868b171c7b9ffa2db61a6ae1b0172ac96ddc68f3ce58a2cff716e03462a2160ea6ab373c5bbfda4dd67a0a81d0774aa90dbc0893ae38c2af9776805402c2766ec6cb575c3bdfba6df65a2aa1f0576a892d9c28b38e18e28fb756a07422e2564ee6eb777c1bff9a8d16baca4110b78a69cd7cc8536ef8026f57b64094c202b6ae060b979cfb1f7aad369aea613097aa49ed5ce8734ed8224f779660b4e222968e262bb7bcdb3f5acd56fa8a0150f7ca298d3c88132eb8422f17f600d48242f6ee464bd7dcbb5f3aed76daaa2170d7ea09ad1ca8330e98620f37d620f4a262d6ce666bf7fc9b7f1a0d963a4ac190370ae94dfc48d3ee7882efd736c0144282362e868b171c7b9ffa2db61a6ae1b0172ac96ddc68f3ce58a2cff716e03462a2160ea6ab373c5bbfda4dd67a0a81d0774aa90dbc0893ae38c2af9776805402c2766ec6cb575c3bdfba6df65a2aa1f0576a892d9c28b38e18e28fb756a07422e2564ee6eb777c1bff9a8d16baca4110b78a69cd7cc8536ef8026f57b64094c202b6ae060b979cfb1f7aad369aea613097aa49ed5ce8734ed8224f779660b4e222968e262bb7bcdb3f5acd56fa8a0150f7ca298d3c88132eb8422f17f600d48242f6ee464bd7dcbb5f3aed76daaa2170d7ea09ad1ca8330e98620f37d620f4a262d6ce666bf7fc9b7f1a0d963a4ac190370ae94dfc48d3ee7882efd736c0144282362e868b171c7b9ffa2db61a6ae1b0172ac96ddc68f3ce58a2cff716e03462a2160ea6ab373c5bbfda4dd67a0a81d0774aa90dbc0893ae38c2af9776805402c2766ec6cb575c3bdfba6df65a2aa1f0576a892d9c28b38e18e28fb756a07422e2564ee6eb777c1bff9a8d16baca4110b78a69cd7cc8536ef8026f57b64094c202b6ae060b979cfb1f7aad369aea613097aa49ed5ce8734ed8224f779660b4e222968e262bb7bcdb3f5acd56fa8a0150f7ca298d3c88132eb8422f17f600d48242f6ee464bd7dcbb5f3aed76daaa2170d7ea09ad1ca8330e98620f37d620f4a262d6ce666bf7fc9b7f1a0d963a4ac190370ae94dfc48d3ee7882efd736c0144282362e868b171c7b9ffa2db61a6ae1b0172ac96ddc68f3ce58a2cff716e03462a2160ea6ab373c5bbfda4dd67a0a81d0774aa90dbc0893ae38c2af9776805402c2766ec6cb575c3bdfba6df65a2aa1f0576a892d9c28b38e18e28fb756a07422e2564ee6eb777c1bff9a8d16baca4110b78a69cd7cc8536ef8026f57b64094c202b6ae060b979cfb1f7aad369aea613097aa49ed5ce8734ed8224f779660b4e222968e262bb7bcdb3f5acd56fa8a0150f7ca298d3c88132eb8422f17f600d48242f6ee464bd7dcbb5f3aed76daaa2170d7ea09ad1ca8330e98620f37d620f4a262d6ce666bf7fc9b7f1a0d963a4ac190370ae94dfc48d3ee7882efd736c0144282362e868b171c7b9ffa2db61a6ae1b0172ac96ddc68f3ce58a2cff716e03462a2160ea6ab373c5bbfda4dd67a0a81d0774aa90dbc0893ae38c2af9776805402c2766ec6cb575c3bdfba6df65a2aa1f0576a892d9c28b38e18e28fb756a07422e2564ee6eb777c1bff9a8d16baca4110b78a69cd7cc8536ef802c2e3a597213c9756b06c17a6fd8a1e5bdef5d3e904882cc5fcf181d4e16cf13d",
        "hex": "6a20837352b96b86ac79548cdfdff1da08353071a905dca37cf33c90acc2d9b847004db0040d963a4ac190370ae94dfc48d3ee7882efd736c0144282362e868b171c7b9ffa2db61a6ae1b0172ac96ddc68f3ce58a2cff716e03462a2160ea6ab373c5bbfda4dd67a0a81d0774aa90dbc0893ae38c2af9776805402c2766ec6cb575c3bdfba6df65a2aa1f0576a892d9c28b38e18e28fb756a07422e2564ee6eb777c1bff9a8d16baca4110b78a69cd7cc8536ef8026f57b64094c202b6ae060b979cfb1f7aad369aea613097aa49ed5ce8734ed8224f779660b4e222968e262bb7bcdb3f5acd56fa8a0150f7ca298d3c88132eb8422f17f600d48242f6ee464bd7dcbb5f3aed76daaa2170d7ea09ad1ca8330e98620f37d620f4a262d6ce666bf7fc9b7f1a0d963a4ac190370ae94dfc48d3ee7882efd736c0144282362e868b171c7b9ffa2db61a6ae1b0172ac96ddc68f3ce58a2cff716e03462a2160ea6ab373c5bbfda4dd67a0a81d0774aa90dbc0893ae38c2af9776805402c2766ec6cb575c3bdfba6df65a2aa1f0576a892d9c28b38e18e28fb756a07422e2564ee6eb777c1bff9a8d16baca4110b78a69cd7cc8536ef8026f57b64094c202b6ae060b979cfb1f7aad369aea613097aa49ed5ce8734ed8224f779660b4e222968e262bb7bcdb3f5acd56fa8a0150f7ca298d3c88132eb8422f17f600d48242f6ee464bd7dcbb5f3aed76daaa2170d7ea09ad1ca8330e98620f37d620f4a262d6ce666bf7fc9b7f1a0d963a4ac190370ae94dfc48d3ee7882efd736c0144282362e868b171c7b9ffa2db61a6ae1b0172ac96ddc68f3ce58a2cff716e03462a2160ea6ab373c5bbfda4dd67a0a81d0774aa90dbc0893ae38c2af9776805402c2766ec6cb575c3bdfba6df65a2aa1f0576a892d9c28b38e18e28fb756a07422e2564ee6eb777c1bff9a8d16baca4110b78a69cd7cc8536ef8026f57b64094c202b6ae060b979cfb1f7aad369aea613097aa49ed5ce8734ed8224f779660b4e222968e262bb7bcdb3f5acd56fa8a0150f7ca298d3c88132eb8422f17f600d48242f6ee464bd7dcbb5f3aed76daaa2170d7ea09ad1ca8330e98620f37d620f4a262d6ce666bf7fc9b7f1a0d963a4ac190370ae94dfc48d3ee7882efd736c0144282362e868b171c7b9ffa2db61a6ae1b0172ac96ddc68f3ce58a2cff716e03462a2160ea6ab373c5bbfda4dd67a0a81d0774aa90dbc0893ae38c2af9776805402c2766ec6cb575c3bdfba6df65a2aa1f0576a892d9c28b38e18e28fb756a07422e2564ee6eb777c1bff9a8d16baca4110b78a69cd7cc8536ef8026f57b64094c202b6ae060b979cfb1f7aad369aea613097aa49ed5ce8734ed8224f779660b4e222968e262bb7bcdb3f5acd56fa8a0150f7ca298d3c88132eb8422f17f600d48242f6ee464bd7dcbb5f3aed76daaa2170d7ea09ad1ca8330e98620f37d620f4a262d6ce666bf7fc9b7f1a0d963a4ac190370ae94dfc48d3ee7882efd736c0144282362e868b171c7b9ffa2db61a6ae1b0172ac96ddc68f3ce58a2cff716e03462a2160ea6ab373c5bbfda4dd67a0a81d0774aa90dbc0893ae38c2af9776805402c2766ec6cb575c3bdfba6df65a2aa1f0576a892d9c28b38e18e28fb756a07422e2564ee6eb777c1bff9a8d16baca4110b78a69cd7cc8536ef802c2e3a597213c9756b06c17a6fd8a1e5bdef5d3e904882cc5fcf181d4e16cf13d",
        "type": "nulldata"
      }
    }
  ],
  "blockhash": "ed58b71ef50cb049f6fd5c1ad274bdeb3951d970e0a56ec51ef7152d34b6d8c5",
  "confirmations": 1,
  "time": 1764177054,
  "blocktime": 1764177054
}