{
  "hex": "01000000000101cdc29f840375a1a7c047d90f7bbc051a151ca6ea7c8944b88667cf9a4521f7d00000000000feffffff02a077e402792d000022512097d8271c214d2dfac0efe354f120cef4b3c4614554adedb5a1cba89fe239b88c00e1f50500000000fdd5046a20c493f7ab9d0ffd97cb4fc0bb963f670db77e8f3a02d85246505498d1eda638e84db00430de765463b8516a1249815819796145efe678abaf5f3240c8ebdfa6b321873d10fe56744398714a3269a17839594165cfc6588b8f7f1260e8cbff869301a71d709e361423f8112a5209c11859392105afa638ebef1f720088ab9fe6f361c77d50be163403d8310a7229e138791901258f8618cbcf3f5220a88bbfc6d341e75db05ef6d4e338d1ea92c901d899f9e1c56f66f82b2fdfb2c0486b5f2633a107bd907ed6f4c318f1cab2e921f8b9d9c1e54f46d80b0fff92e0684b7f061381279df01eb694a37891aad2894198d9b9a1852f26b86b6f9ff280082b1f6673e147fdd03e96b48358b18af2a961b8f99981a50f06984b4fbfd2a0280b3f4653c167dd30de765463b8516a1249815819796145efe678abaf5f3240c8ebdfa6b321873d10fe56744398714a3269a17839594165cfc6588b8f7f1260e8cbff869301a71d709e361423f8112a5209c11859392105afa638ebef1f720088ab9fe6f361c77d50be163403d8310a7229e138791901258f8618cbcf3f5220a88bbfc6d341e75db05ef6d4e338d1ea92c901d899f9e1c56f66f82b2fdfb2c0486b5f2633a107bd907ed6f4c318f1cab2e921f8b9d9c1e54f46d80b0fff92e0684b7f061381279df01eb694a37891aad2894198d9b9a1852f26b86b6f9ff280082b1f6673e147fdd03e96b48358b18af2a961b8f99981a50f06984b4fbfd2a0280b3f4653c167dd30de765463b8516a1249815819796145efe678abaf5f3240c8ebdfa6b321873d10fe56744398714a3269a17839594165cfc6588b8f7f1260e8cbff869301a71d709e361423f8112a5209c11859392105afa638ebef1f720088ab9fe6f361c77d50be163403d8310a7229e138791901258f8618cbcf3f5220a88bbfc6d341e75db05ef6d4e338d1ea92c901d899f9e1c56f66f82b2fdfb2c0486b5f2633a107bd907ed6f4c318f1cab2e921f8b9d9c1e54f46d80b0fff92e0684b7f061381279df01eb694a37891aad2894198d9b9a1852f26b86b6f9ff280082b1f6673e147fdd03e96b48358b18af2a961b8f99981a50f06984b4fbfd2a0280b3f4653c167dd30de765463b8516a1249815819796145efe678abaf5f3240c8ebdfa6b321873d10fe56744398714a3269a17839594165cfc6588b8f7f1260e8cbff869301a71d709e361423f8112a5209c11859392105afa638ebef1f720088ab9fe6f361c77d50be163403d8310a7229e138791901258f8618cbcf3f5220a88bbfc6d341e75db05ef6d4e338d1ea92c901d899f9e1c56f66f82b2fdfb2c0486b5f2633a107bd907ed6f4c318f1cab2e921f8b9d9c1e54f46d80b0fff92e0684b7f061381279df01eb694a37891aad2894198d9b9a1852f26b86b6f9ff280082b1f6673e147fdd03e96b48358b18af2a961b8f99981a50f06984b4fbfd2a0280b3f4653c167dd30de765463b8516a1249815819796145efe678abaf5f3240c8ebdfa6b321873d10fe56744398714a3269a17839594165cfc6588b8f7f1260e8cbff869301a71d709e361423f8112a5209c11859392105afa638ebef1f720088ab9fe6f361c77d50be163403d8310a7229e138791901258f8618cbcf3f5220a88bbfc6d341e75db05ef6d4e338d1ea92c901d899f9e1c5c70260ea0acc398ca3ec6736cf9a8fe9c2ecc1c59e695a64195ddd95dd4cb30502fd7509f8b77eeb2ff344bd590149cfc359cfa4a1ca88233026dcf16a2ddeb15ff32d4b9d4ecbd15e8cd5a5ceb40d64a88ab28aa6f4ba434cecc56a0435486d1c1a4ff330f2630b00957326c78616805b1d8e56b2ee33c1f536a5435ccc37c1a5d9fd753f93bf835f0f66194af1d888475f6045bc3eeed07e49987e14f6d51734026d148a50ddc434eff74d12b9df84a4111db6f7c8498e1327636cecc29a422fab6f63ca972ed9930d9e138ed3cf20712c259edae80965237714f193610d5b2285e7d190cc96ac3e4aa2b58a7000d88d93891f3770116e6f52cfe10acc3c61b613cb3a8d02f7429a9f607fc627a088a2c75634358f2e36d02b1318efcb04c01cacba70000cb994df896c55ee8f08289bf9607f424281108e3b5b1af022afb8b7a6e762c5500bc1ec7d0f8a1606c3fa18276de1f75d2796873425892d26828a3cd55af4d4ee5cd94049f45cf0fc4f6f04da42e9ad0d8b3c94b2917ea2a18bf5c2fc882dfd8a7c0ded5e0b15405eda66535a17f48b7c59d17f203c13225dfadc16e42a1fa36655da8c6d051592d9b7fc348fc5f0b1cc5601db11bd204a749e4a8c7404f8c1449f998e373229213be80d67a6bf0b5f9dc8d444998d89cf83d10197b9737503b594da62af8308336413eb9a920a51d6dbbb4fae5be507f83727f2fee6f5604d5c45baa34afa181cdbdc615e873fb5d65f6260987d6c928d3d2efd59c4528ffb8e333f10471167f0618e4a27b9a7f3cdc68f092c2e8dc491892942cb32433b13636665274100a9aa47e51dba3dbec31b1a33ae7032bb03588705c095141b4c62d7d36bfb07204bfc843be9e0859711e5b408c0ec4ddade23de6fa10692fcfa0a86ebb3a89a5a5e178f44d855ca42ac80cbe3f2a9e7bee79bec97283e2255949df25630319536954939e8ccd5e602a9dbab0322762b591da5520753fdd7d9ac4400a9d27dc5324611e31509d02e2968e5c3a536020809e79cb05548f714f15618e5ce4c579d643fcf566789a2314eddcd914a20067167aac5a89bb7d4ea8bb67165f48d2365183568a4803b679f9606a3d334f33d56febdcd558cbe96a68cd0ddeddeec3bbde0e0de922c453e6587423807abd8485d97579f1346cf0e3dbe141076a6a094faa1f921008bba032995aca79a052c2dfb3b4a258e5dbca164e9e3abfe3971102620f598b1ad20d8e94921075adc6819e4cde27836af9cc23676464801dbe62a817f8eef48f59fd571e1319830111a2c63d61403563a26c0cc00acbd6f634465ff435da43731c6484a415e85a2bc89b617020b92114144a0bfda69078a929f68adb6bc9f9bf35e8c27e54dd5d0e18263f5c599177e743696b2574e9a98197053a5d093e40877a11e96647a10fc1e6cccf8890f4f0b68e1a1df69d814855b1f3c1bb9a35229ceb4060bd3b127f016893df5fe7c2960f7b7b94ae12c753cd0f3c94f457a9e02ed396c99bb1dc657732e0eff43e6de1a9190ef6a48d957930468b696d370ea111c02413dccea58499b99c8c5dc41596bd170107ce9f944e325febd09eb195b920bbc68d07e99b4f2f122a2af823844acc751f30ed5f3d1c2a0d3438fcdb95fa7e0ada9b96cfcef3360b60d79199743c8ce2edf81068ad175dc5b032814be5ccfea9c98aeed2c6c88e3e8d90d85816f5f789940f8836caf005ffc1945dd34f5543e519fe2720e55348e204ff2a06a3b55bfc2f4f726cb877b081ada5ce74da1d7a1e58d82b9f6b15ebe848d266df72e1e675dc289763401cdddd236bffc1a1910040547c5195e99b2042417f58b280e14f73fc4d9db79bb7cede5f8e56611812cd21358d7955ea06f12621a0d61789cf1fa3504f24482330b33b2979ab52b887a9eb42a5f04e00a507b0fb8d90acfeb17234380b3bfc3e83a23cff2dcd76ab71ec96df224b27cefe45adae54107a0995d3a2b7c05a7c5c7f4eac39add168068e9af80d628da85a1d3b932dc526932d857e2e32f5efe0c2c4493668991379d5e83c2b242bd4e4531ebfd4f7b61710d1e9d738cb705c5e715f2ead33688eecadd8eb1e2803ad0ebecfe2babc36fd173edcf23efab7b83d93f7f6bedc7439d18793747d55efc710749b9d38d3b191591e442ddee284d0645e0684b3285999116ade9d668a905a49383813760d900a10da90ddd8c79754b69f765f64e6824417f3dc18e9116f3747c8f94ab9ef9787d0854a54fb8167d1f050d4f32b947b82dfd29801ddc67fa8b43923a2ff9abdb764bee453d427b2983ed931f215393247d37135ceb1ffecf1b20f48cc9883f3bbf9210acfeb55dc25122462875647bce49d89d12d470b7108d93fc06976c015abd8a8a1d8bddab6d7ced25b04e2a4bc87246d54ab140b24d5713fc336f199504dbc243f1be3adf567c734e5d155fd03fa59965c66511b8bb5db702f7b70c781e76937725d1aaa609c048e35860be222113d34982a68356cd0b4cbc7716ea9fb9c7673dfb511fd7870cd829e5d57c369c283d14d61a24ffcc0b726a46c9ada912f1cac7372b028f7df9a28f24219f8267a2956ff25732ffb1330139eb9b511ec5a31f47849fcdf4e8d1d7806f316aace163d723ed323b053b41a088f61eae65d80557fda3bc4e87779f8f7c65998d8bff4c898d49c51508092e1378bcb9cad518aac4c6c802cc2c01c43c8a60a8e55c873cb4beb55dc79cd7f82638e48e091c23755d5623ec06fb53ac7f001684ac5a10e239fec71d52dd0cad834c0cdfb64196923ac09ca42da046879ac5ccfa754426a5332c2a7e04067afa514becb5b763fee723b6daa676f5271bd66bffe5d86f7f99562ea9c4bbc70fbddcb9e2dc71ca07d9ed7c318963a1c5dff638ad05bc163e12c1727d515d6fa35d8900bed6a09f6472cd7175100026e1b582f5135f1a8dcdcb0033fc9fedcacb276aeffb3ff624b49703a2e729a482b0d7ba95393f383dc510e22df1ff0ea22613c8a9664ff92f9a4fcb2c46a133a19fe3dfbab5550c8a24e634ebbb56a22ed58da5aacaf1c5bf4ef0d891f4cedbb6cccaf98ba8e5c4c04eab03537d8bc841b59707bf5294468cb5bee8aacc9681844c276c779f62d2221ca672209a2b12c62c323679663d3d499e68c4f9e57d148cc4dd1f677d9d74f2b3dc8277ffbe261a0681237068b5f8a77001cfbfb42b28ac4b140570811e080517a474023d7af877bfb4e77dbbb404682b89d9f40a44c5bab4ae3db5482836e06cc0c9aa04be63fa4626d8a9f5cb789a33461944b40319a04d620a3ce3faae271db587267f92d5ec92c822194896841514d620d487900fde0f6d58040b0c232d35383a4e5c61707374788488b6c6d9eb08141d242e4046484e5053abc4d7daec1018222334434b50575a5f6162898b909ea2c2c6cad4f2feff161f26465159626e8184afb4bac0c2de000015253e4e01fd2105002e7fdbf0f5e3f9efe4b76f24e2d7051392b08eb60834b0c4d6dc1ae35e83b3354090a19e9cd8b916d72d6a125b94261407f0d4bc463300f9d349553cf638d74260d3f64fd5ae794869ce18c814be20b6772d17549788258186ed5b449ecaf1710aa1c28c970bc897eed9ee8dbb2717301f370c82b161719d3a7d434c1276cf13a60ea893d6884291af4b31399982c19fe570fe27d7cc6d3997dd52a27da5266231882d01c5259ccb82093312a424e660d291958c3efa799cd6ed89a6b8cf73218c6afe7f13c2cdee848a59df5c80d57f05015050d5e6f58fdea62926296634d239ad511e6743c391fac5c1adb37fb7592e793f97d1d669e3c76c804a534f245e50a0a0373c5fbf03a57682ea4020586ac9c47c8a3c66bc43fc85034b49a31636b35d37c944cefb7cd55d9282fddea6482dee78ae308ae10808653fa8cbd28a8fb2a375be66cc9f41649b8e58659a551dc1855386992fb1777f6f310a195c80141ea2240ffdf9dc78591419ee5d342fee15ed4123c16e0d8f622dd56f29d32e4b8dfa38041d01fcf41c078c5901ae79fc9e59fe488d2ff5bdddeb92ab6b19782a5e1aa34fa27ef4dc775f1c9b25e1b8316d1cd1cb269522397cf56045801dabfb99240c612c0e60ad6709b629aa05c9be2146994cffddbefc66589cb4142f76165d2dc06a3fbbd1eacc99bf2349071907dca13346f27433c38185061680ed3ab78315f24cc7493e4fc02ae3560747d265c99d90e0a38ca6d6797df4dcd8c6b9de22de3d68443be6e4b82a02b36f6d61ece7ed4146f0784ce7a8c04f9d64653bae09b262f0f559fe0c0a2f783d8cb456a2acebc3d0a13e0158eab606e52c8e12dbe0389b6b8cea1e0be771eb961b4339a9cb12abaeb59293c53714d461d291627c431983688861d1c5d0c8899e9ab6e27bddbeebc0deda842f20f45dfe7520a415aac6f53d2c30682caa5abfe59f82d542a80286a1c0d079c16845df169c881bfdd5ea8d9cac443bf035d14d3c3b34b76e7f84e15e8b1918cac2b6dfeb4d16af5dfbe8cdeb15d318be81e32020fc431bcfc1e78c0eb7254344379c682cf86f870dad60fafb3c14983cd1d43a1fa469bf72480ce288bdc19e8cd9469eec23b9b52be61e799dd9a7161a70cc65d1069b10a605810c67f045dc37ed8b22f2ebce8cedb41356d353f86a38b529e2816165987b116c3f48cfeb90cca29554c76ecde1e57b0adce9c9839fb7bab700d1fe8e92313c6737636f87a7b85e6c81ced9c39b9b1377e6d744e1114751e92371b4ae5b6904cd3335630dd80dea1b18cf09ec44d374695baabcf69522469e66d747427a96881bd73a87d56583baaa23ec12f7686b8358a6271959c929ad8c0653f925397798fa2835efb07c4cedc2484e408e37aa205895b861638ba2c2c2845fb771505ecc13c134e937c7212f8eaa842127e403862728807a41f5c42c3c2f327d1b806df57a9906f0aafecae990c5a2df0911af8783cfdd73c9d289a0bf99065f5a88af39d6cebddbf2c164be5c37f2c37cb6e72e42c83f64f2fb6ec9576f77bf0bb16816fc06f95d9babb5c9aed80399336ec4d3a4f6226745a097b30b20fd2cc9384104dbd139d6fc656085e9452c26c90e312e1b6477507addaa84afcbd39fefcb195c05d4f6cb2b2d585dcbab1347e383e5d854813dd70312c0e881ccb58fc0ca97d92bb36ef959a425a13f48e68c217d532a3135c6f08957c9fe09b26cb8a978df5c798aa2e8a7f976bc7208f1bfb56a639a0596557b486b41c210a92958825d5e22a2fd0f85d818b3a2dcc93d371127e6d109264236e3b4cd6f4e8c20dea9466cc08ebcf27e8a5ee27087035791a90b577a000000",
  "txid": "597d262f68543ed20761b5f93d2ff697e9cc7361be219f7f2ce605ec6b991909",
  "hash": "41d2fb525c1fc2b97fb2a0eb081d3f79af24dff5bcbc64e9487b7e86a19ac40e",
  "size": 5085,
  "vsize": 2278,
  "version": 1,
  "locktime": 122,
  "vin": [
    {
      "txid": "d0f721459acf6786b844897ceaa61c151a05bc7b0fd947c0a7a17503849fc2cd",
      "vout": 0,
      "scriptSig": {
        "asm": "",
        "hex": ""
      },
      "txinwitness": [
        "f8b77eeb2ff344bd590149cfc359cfa4a1ca88233026dcf16a2ddeb15ff32d4b9d4ecbd15e8cd5a5ceb40d64a88ab28aa6f4ba434cecc56a0435486d1c1a4ff330f2630b00957326c78616805b1d8e56b2ee33c1f536a5435ccc37c1a5d9fd753f93bf835f0f66194af1d888475f6045bc3eeed07e49987e14f6d51734026d148a50ddc434eff74d12b9df84a4111db6f7c8498e1327636cecc29a422fab6f63ca972ed9930d9e138ed3cf20712c259edae80965237714f193610d5b2285e7d190cc96ac3e4aa2b58a7000d88d93891f3770116e6f52cfe10acc3c61b613cb3a8d02f7429a9f607fc627a088a2c75634358f2e36d02b1318efcb04c01cacba70000cb994df896c55ee8f08289bf9607f424281108e3b5b1af022afb8b7a6e762c5500bc1ec7d0f8a1606c3fa18276de1f75d2796873425892d26828a3cd55af4d4ee5cd94049f45cf0fc4f6f04da42e9ad0d8b3c94b2917ea2a18bf5c2fc882dfd8a7c0ded5e0b15405eda66535a17f48b7c59d17f203c13225dfadc16e42a1fa36655da8c6d051592d9b7fc348fc5f0b1cc5601db11bd204a749e4a8c7404f8c1449f998e373229213be80d67a6bf0b5f9dc8d444998d89cf83d10197b9737503b594da62af8308336413eb9a920a51d6dbbb4fae5be507f83727f2fee6f5604d5c45baa34afa181cdbdc615e873fb5d65f6260987d6c928d3d2efd59c4528ffb8e333f10471167f0618e4a27b9a7f3cdc68f092c2e8dc491892942cb32433b13636665274100a9aa47e51dba3dbec31b1a33ae7032bb03588705c095141b4c62d7d36bfb07204bfc843be9e0859711e5b408c0ec4ddade23de6fa10692fcfa0a86ebb3a89a5a5e178f44d855ca42ac80cbe3f2a9e7bee79bec97283e2255949df25630319536954939e8ccd5e602a9dbab0322762b591da5520753fdd7d9ac4400a9d27dc5324611e31509d02e2968e5c3a536020809e79cb05548f714f15618e5ce4c579d643fcf566789a2314eddcd914a20067167aac5a89bb7d4ea8bb67165f48d2365183568a4803b679f9606a3d334f33d56febdcd558cbe96a68cd0ddeddeec3bbde0e0de922c453e6587423807abd8485d97579f1346cf0e3dbe141076a6a094faa1f921008bba032995aca79a052c2dfb3b4a258e5dbca164e9e3abfe3971102620f598b1ad20d8e94921075adc6819e4cde27836af9cc23676464801dbe62a817f8eef48f59fd571e1319830111a2c63d61403563a26c0cc00acbd6f634465ff435da43731c6484a415e85a2bc89b617020b92114144a0bfda69078a929f68adb6bc9f9bf35e8c27e54dd5d0e18263f5c599177e743696b2574e9a98197053a5d093e40877a11e96647a10fc1e6cccf8890f4f0b68e1a1df69d814855b1f3c1bb9a35229ceb4060bd3b127f016893df5fe7c2960f7b7b94ae12c753cd0f3c94f457a9e02ed396c99bb1dc657732e0eff43e6de1a9190ef6a48d957930468b696d370ea111c02413dccea58499b99c8c5dc41596bd170107ce9f944e325febd09eb195b920bbc68d07e99b4f2f122a2af823844acc751f30ed5f3d1c2a0d3438fcdb95fa7e0ada9b96cfcef3360b60d79199743c8ce2edf81068ad175dc5b032814be5ccfea9c98aeed2c6c88e3e8d90d85816f5f789940f8836caf005ffc1945dd34f5543e519fe2720e55348e204ff2a06a3b55bfc2f4f726cb877b081ada5ce74da1d7a1e58d82b9f6b15ebe848d266df72e1e675dc289763401cdddd236bffc1a1910040547c5195e99b2042417f58b280e14f73fc4d9db79bb7cede5f8e56611812cd21358d7955ea06f12621a0d61789cf1fa3504f24482330b33b2979ab52b887a9eb42a5f04e00a507b0fb8d90acfeb17234380b3bfc3e83a23cff2dcd76ab71ec96df224b27cefe45adae54107a0995d3a2b7c05a7c5c7f4eac39add168068e9af80d628da85a1d3b932dc526932d857e2e32f5efe0c2c4493668991379d5e83c2b242bd4e4531ebfd4f7b61710d1e9d738cb705c5e715f2ead33688eecadd8eb1e2803ad0ebecfe2babc36fd173edcf23efab7b83d93f7f6bedc7439d18793747d55efc710749b9d38d3b191591e442ddee284d0645e0684b3285999116ade9d668a905a49383813760d900a10da90ddd8c79754b69f765f64e6824417f3dc18e9116f3747c8f94ab9ef9787d0854a54fb8167d1f050d4f32b947b82dfd29801ddc67fa8b43923a2ff9abdb764bee453d427b2983ed931f215393247d37135ceb1ffecf1b20f48cc9883f3bbf9210acfeb55dc25122462875647bce49d89d12d470b7108d93fc06976c015abd8a8a1d8bddab6d7ced25b04e2a4bc87246d54ab140b24d5713fc336f199504dbc243f1be3adf567c734e5d155fd03fa59965c66511b8bb5db702f7b70c781e76937725d1aaa609c048e35860be222113d34982a68356cd0b4cbc7716ea9fb9c7673dfb511fd7870cd829e5d57c369c283d14d61a24ffcc0b726a46c9ada912f1cac7372b028f7df9a28f24219f8267a2956ff25732ffb1330139eb9b511ec5a31f47849fcdf4e8d1d7806f316aace163d723ed323b053b41a088f61eae65d80557fda3bc4e87779f8f7c65998d8bff4c898d49c51508092e1378bcb9cad518aac4c6c802cc2c01c43c8a60a8e55c873cb4beb55dc79cd7f82638e48e091c23755d5623ec06fb53ac7f001684ac5a10e239fec71d52dd0cad834c0cdfb64196923ac09ca42da046879ac5ccfa754426a5332c2a7e04067afa514becb5b763fee723b6daa676f5271bd66bffe5d86f7f99562ea9c4bbc70fbddcb9e2dc71ca07d9ed7c318963a1c5dff638ad05bc163e12c1727d515d6fa35d8900bed6a09f6472cd7175100026e1b582f5135f1a8dcdcb0033fc9fedcacb276aeffb3ff624b49703a2e729a482b0d7ba95393f383dc510e22df1ff0ea22613c8a9664ff92f9a4fcb2c46a133a19fe3dfbab5550c8a24e634ebbb56a22ed58da5aacaf1c5bf4ef0d891f4cedbb6cccaf98ba8e5c4c04eab03537d8bc841b59707bf5294468cb5bee8aacc9681844c276c779f62d2221ca672209a2b12c62c323679663d3d499e68c4f9e57d148cc4dd1f677d9d74f2b3dc8277ffbe261a0681237068b5f8a77001cfbfb42b28ac4b140570811e080517a474023d7af877bfb4e77dbbb404682b89d9f40a44c5bab4ae3db5482836e06cc0c9aa04be63fa4626d8a9f5cb789a33461944b40319a04d620a3ce3faae271db587267f92d5ec92c822194896841514d620d487900fde0f6d58040b0c232d35383a4e5c61707374788488b6c6d9eb08141d242e4046484e5053abc4d7daec1018222334434b50575a5f6162898b909ea2c2c6cad4f2feff161f26465159626e8184afb4bac0c2de000015253e4e01",
        "002e7fdbf0f5e3f9efe4b76f24e2d7051392b08eb60834b0c4d6dc1ae35e83b3354090a19e9cd8b916d72d6a125b94261407f0d4bc463300f9d349553cf638d74260d3f64fd5ae794869ce18c814be20b6772d17549788258186ed5b449ecaf1710aa1c28c970bc897eed9ee8dbb2717301f370c82b161719d3a7d434c1276cf13a60ea893d6884291af4b31399982c19fe570fe27d7cc6d3997dd52a27da5266231882d01c5259ccb82093312a424e660d291958c3efa799cd6ed89a6b8cf73218c6afe7f13c2cdee848a59df5c80d57f05015050d5e6f58fdea62926296634d239ad511e6743c391fac5c1adb37fb7592e793f97d1d669e3c76c804a534f245e50a0a0373c5fbf03a57682ea4020586ac9c47c8a3c66bc43fc85034b49a31636b35d37c944cefb7cd55d9282fddea6482dee78ae308ae10808653fa8cbd28a8fb2a375be66cc9f41649b8e58659a551dc1855386992fb1777f6f310a195c80141ea2240ffdf9dc78591419ee5d342fee15ed4123c16e0d8f622dd56f29d32e4b8dfa38041d01fcf41c078c5901ae79fc9e59fe488d2ff5bdddeb92ab6b19782a5e1aa34fa27ef4dc775f1c9b25e1b8316d1cd1cb269522397cf56045801dabfb99240c612c0e60ad6709b629aa05c9be2146994cffddbefc66589cb4142f76165d2dc06a3fbbd1eacc99bf2349071907dca13346f27433c38185061680ed3ab78315f24cc7493e4fc02ae3560747d265c99d90e0a38ca6d6797df4dcd8c6b9de22de3d68443be6e4b82a02b36f6d61ece7ed4146f0784ce7a8c04f9d64653bae09b262f0f559fe0c0a2f783d8cb456a2acebc3d0a13e0158eab606e52c8e12dbe0389b6b8cea1e0be771eb961b4339a9cb12abaeb59293c53714d461d291627c431983688861d1c5d0c8899e9ab6e27bddbeebc0deda842f20f45dfe7520a415aac6f53d2c30682caa5abfe59f82d542a80286a1c0d079c16845df169c881bfdd5ea8d9cac443bf035d14d3c3b34b76e7f84e15e8b1918cac2b6dfeb4d16af5dfbe8cdeb15d318be81e32020fc431bcfc1e78c0eb7254344379c682cf86f870dad60fafb3c14983cd1d43a1fa469bf72480ce288bdc19e8cd9469eec23b9b52be61e799dd9a7161a70cc65d1069b10a605810c67f045dc37ed8b22f2ebce8cedb41356d353f86a38b529e2816165987b116c3f48cfeb90cca29554c76ecde1e57b0adce9c9839fb7bab700d1fe8e92313c6737636f87a7b85e6c81ced9c39b9b1377e6d744e1114751e92371b4ae5b6904cd3335630dd80dea1b18cf09ec44d374695baabcf69522469e66d747427a96881bd73a87d56583baaa23ec12f7686b8358a6271959c929ad8c0653f925397798fa2835efb07c4cedc2484e408e37aa205895b861638ba2c2c2845fb771505ecc13c134e937c7212f8eaa842127e403862728807a41f5c42c3c2f327d1b806df57a9906f0aafecae990c5a2df0911af8783cfdd73c9d289a0bf99065f5a88af39d6cebddbf2c164be5c37f2c37cb6e72e42c83f64f2fb6ec9576f77bf0bb16816fc06f95d9babb5c9aed80399336ec4d3a4f6226745a097b30b20fd2cc9384104dbd139d6fc656085e9452c26c90e312e1b6477507addaa84afcbd39fefcb195c05d4f6cb2b2d585dcbab1347e383e5d854813dd70312c0e881ccb58fc0ca97d92bb36ef959a425a13f48e68c217d532a3135c6f08957c9fe09b26cb8a978df5c798aa2e8a7f976bc7208f1bfb56a639a0596557b486b41c210a92958825d5e22a2fd0f85d818b3a2dcc93d371127e6d109264236e3b4cd6f4e8c20dea9466cc08ebcf27e8a5ee27087035791a90b57"
      ],
      "sequence": 4294967294
    }
  ],
  "vout": [
    {
      "value": 499977.6282,
      "n": 0,
      "scriptPubKey": {
        "asm": "1 97d8271c214d2dfac0efe354f120cef4b3c4614554adedb5a1cba89fe239b88c",
        "hex": "512097d8271c214d2dfac0efe354f120cef4b3c4614554adedb5a1cba89fe239b88c",
        "reqSigs": 1,
        "type": "witness_v1_scripthash",
        "addresses": [
          "3QJmnh"
        ]
      }
    },
    {
      "value": 1.0,
      "n": 1,
      "scriptPubKey": {
        "asm": "OP_RETURN c493f7ab9d0ffd97cb4fc0bb963f670db77e8f3a02d85246505498d1eda638e8 30de765463b8516a1249815819796145efe678abaf5f3240c8ebdfa6b321873d10fe56744398714a3269a17839594165cfc6588b8f7f1260e8cbff869301a71d709e361423f8112a5209c11859392105afa638ebef1f720088ab9fe6f361c77d50be163403d8310a7229e138791901258f8618cbcf3f5220a88bbfc6d341e75db05ef6d4e338d1ea92c901d899f9e1c56f66f82b2fdfb2c0486b5f2633a107bd907ed6f4c318f1cab2e921f8b9d9c1e54f46d80b0fff92e0684b7f061381279df01eb694a37891aad2894198d9b9a1852f26b86b6f9ff280082b1f6673e147fdd03e96b48358b18af2a961b8f99981a50f06984b4fbfd2a0280b3f4653c167dd30de765463b8516a1249815819796145efe678abaf5f3240c8ebdfa6b321873d10fe56744398714a3269a17839594165cfc6588b8f7f1260e8cbff869301a71d709e361423f8112a5209c11859392105afa638ebef1f720088ab9fe6f361c77d50be163403d8310a7229e138791901258f8618cbcf3f5220a88bbfc6d341e75db05ef6d4e338d1ea92c901d899f9e1c56f66f82b2fdfb2c0486b5f2633a107bd907ed6f4c318f1cab2e921f8b9d9c1e54f46d80b0fff92e0684b7f061381279df01eb694a37891aad2894198d9b9a1852f26b86b6f9ff280082b1f6673e147fdd03e96b48358b18af2a961b8f99981a50f06984b4fbfd2a0280b3f4653c167dd30de765463b8516a1249815819796145efe678abaf5f3240c8ebdfa6b321873d10fe56744398714a3269a17839594165cfc6588b8f7f1260e8cbff869301a71d709e361423f8112a5209c11859392105afa638ebef1f720088ab9fe6f361c77d50be163403d8310a7229e138791901258f8618cbcf3f5220a88bbfc6d341e75db05ef6d4e338d1ea92c901d899f9e1c56f66f82b2fdfb2c0486b5f2633a107bd907ed6f4c318f1cab2e921f8b9d9c1e54f46d80b0fff92e0684b7f061381279df01eb694a37891aad2894198d9b9a1852f26b86b6f9ff280082b1f6673e147fdd03e96b48358b18af2a961b8f99981a50f06984b4fbfd2a0280b3f4653c167dd30de765463b8516a1249815819796145efe678abaf5f3240c8ebdfa6b321873d10fe56744398714a3269a17839594165cfc6588b8f7f1260e8cbff869301a71d709e361423f8112a5209c11859392105afa638ebef1f720088ab9fe6f361c77d50be163403d8310a7229e138791901258f8618cbcf3f5220a88bbfc6d341e75db05ef6d4e338d1ea92c901d899f9e1c56f66f82b2fdfb2c0486b5f2633a107bd907ed6f4c318f1cab2e921f8b9d9c1e54f46d80b0fff92e0684b7f061381279df01eb694a37891aad2894198d9b9a1852f26b86b6f9ff280082b1f6673e147fdd03e96b48358b18af2a961b8f99981a50f06984b4fbfd2a0280b3f4653c167dd30de765463b8516a1249815819796145efe678abaf5f3240c8ebdfa6b321873d10fe56744398714a3269a17839594165cfc6588b8f7f1260e8cbff869301a71d709e361423f8112a5209c11859392105afa638ebef1f720088ab9fe6f361c77d50be163403d8310a7229e138791901258f8618cbcf3f5220a88bbfc6d341e75db05ef6d4e338d1ea92c901d899f9e1c5c70260ea0acc398ca3ec6736cf9a8fe9c2ecc1c59e695a64195ddd95dd4cb305",
        "hex": "6a20c493f7ab9d0ffd97cb4fc0bb963f670db77e8f3a02d85246505498d1eda638e84db00430de765463b8516a1249815819796145efe678abaf5f3240c8ebdfa6b321873d10fe56744398714a3269a17839594165cfc6588b8f7f1260e8cbff869301a71d709e361423f8112a5209c11859392105afa638ebef1f720088ab9fe6f361c77d50be163403d8310a7229e138791901258f8618cbcf3f5220a88bbfc6d341e75db05ef6d4e338d1ea92c901d899f9e1c56f66f82b2fdfb2c0486b5f2633a107bd907ed6f4c318f1cab2e921f8b9d9c1e54f46d80b0fff92e0684b7f061381279df01eb694a37891aad2894198d9b9a1852f26b86b6f9ff280082b1f6673e147fdd03e96b48358b18af2a961b8f99981a50f06984b4fbfd2a0280b3f4653c167dd30de765463b8516a1249815819796145efe678abaf5f3240c8ebdfa6b321873d10fe56744398714a3269a17839594165cfc6588b8f7f1260e8cbff869301a71d709e361423f8112a5209c11859392105afa638ebef1f720088ab9fe6f361c77d50be163403d8310a7229e138791901258f8618cbcf3f5220a88bbfc6d341e75db05ef6d4e338d1ea92c901d899f9e1c56f66f82b2fdfb2c0486b5f2633a107bd907ed6f4c318f1cab2e921f8b9d9c1e54f46d80b0fff92e0684b7f061381279df01eb694a37891aad2894198d9b9a1852f26b86b6f9ff280082b1f6673e147fdd03e96b48358b18af2a961b8f99981a50f06984b4fbfd2a0280b3f4653c167dd30de765463b8516a1249815819796145efe678abaf5f3240c8ebdfa6b321873d10fe56744398714a3269a17839594165cfc6588b8f7f1260e8cbff869301a71d709e361423f8112a5209c11859392105afa638ebef1f720088ab9fe6f361c77d50be163403d8310a7229e138791901258f8618cbcf3f5220a88bbfc6d341e75db05ef6d4e338d1ea92c901d899f9e1c56f66f82b2fdfb2c0486b5f2633a107bd907ed6f4c318f1cab2e921f8b9d9c1e54f46d80b0fff92e0684b7f061381279df01eb694a37891aad2894198d9b9a1852f26b86b6f9ff280082b1f6673e147fdd03e96b48358b18af2a961b8f99981a50f06984b4fbfd2a0280b3f4653c167dd30de765463b8516a1249815819796145efe678abaf5f3240c8ebdfa6b321873d10fe56744398714a3269a17839594165cfc6588b8f7f1260e8cbff869301a71d709e361423f8112a5209c11859392105afa638ebef1f720088ab9fe6f361c77d50be163403d8310a7229e138791901258f8618cbcf3f5220a88bbfc6d341e75db05ef6d4e338d1ea92c901d899f9e1c56f66f82b2fdfb2c0486b5f2633a107bd907ed6f4c318f1cab2e921f8b9d9c1e54f46d80b0fff92e0684b7f061381279df01eb694a37891aad2894198d9b9a1852f26b86b6f9ff280082b1f6673e147fdd03e96b48358b18af2a961b8f99981a50f06984b4fbfd2a0280b3f4653c167dd30de765463b8516a1249815819796145efe678abaf5f3240c8ebdfa6b321873d10fe56744398714a3269a17839594165cfc6588b8f7f1260e8cbff869301a71d709e361423f8112a5209c11859392105afa638ebef1f720088ab9fe6f361c77d50be163403d8310a7229e138791901258f8618cbcf3f5220a88bbfc6d341e75db05ef6d4e338d1ea92c901d899f9e1c5c70260ea0acc398ca3ec6736cf9a8fe9c2ecc1c59e695a64195ddd95dd4cb305",
        "type": "nulldata"
      }
    }
  ],
  "blockhash": "ccdcfedcff6ade259e7f17160cbcd6ff75249aea4f0a85a59e1a4fb3f710df5f",
  "confirmations": 1,
  "time": 1764180435,
  "blocktime": 1764180435
}