{
  "hex": "01000000000101914e175c7e52b9cf4a7a8456cc4115b9ed92611eb7b01b1bbc920a37da321b040000000000feffffff0200e1f50500000000fdd5046a200bd64a5ba240c2fbfb14983b70473a9587f9106de9385b47c420a92a50b8f50d4db004b51b71cbd6e05e868afbe5b2adb4abae9be5eecd1b8ca8e85f7276bf749b26c4953b51ebf6c07ea6aadbc5928d948b8ebbc5ceed3bac88c87f52569f54bb06e4f55b318b96a01ec6cabba5f2edf4ebeedba5ae8d5bcce8a81f3236ff34db6684d57b11abb6803ee6ea9b85d2cdd4cbcefb858ead7becc8883f1216df14fb46a4359bf14b5660de060a7b65322d342b2e1b656e4d9b0c2868dff2f63ff41ba64415bbd16b7640fe262a5b45120d140b0e3b454e6dbb2c0848ffd2d61fd43b866475dbb10b16209e464a3b25726d746b6e5b252e0ddb4c68289fb2b67fb45be60455fb912b3600be666a1b05524d544b4e7b050e2dfb6c4808bf92965f947bc624b51b71cbd6e05e868afbe5b2adb4abae9be5eecd1b8ca8e85f7276bf749b26c4953b51ebf6c07ea6aadbc5928d948b8ebbc5ceed3bac88c87f52569f54bb06e4f55b318b96a01ec6cabba5f2edf4ebeedba5ae8d5bcce8a81f3236ff34db6684d57b11abb6803ee6ea9b85d2cdd4cbcefb858ead7becc8883f1216df14fb46a4359bf14b5660de060a7b65322d342b2e1b656e4d9b0c2868dff2f63ff41ba64415bbd16b7640fe262a5b45120d140b0e3b454e6dbb2c0848ffd2d61fd43b866475dbb10b16209e464a3b25726d746b6e5b252e0ddb4c68289fb2b67fb45be60455fb912b3600be666a1b05524d544b4e7b050e2dfb6c4808bf92965f947bc624b51b71cbd6e05e868afbe5b2adb4abae9be5eecd1b8ca8e85f7276bf749b26c4953b51ebf6c07ea6aadbc5928d948b8ebbc5ceed3bac88c87f52569f54bb06e4f55b318b96a01ec6cabba5f2edf4ebeedba5ae8d5bcce8a81f3236ff34db6684d57b11abb6803ee6ea9b85d2cdd4cbcefb858ead7becc8883f1216df14fb46a4359bf14b5660de060a7b65322d342b2e1b656e4d9b0c2868dff2f63ff41ba64415bbd16b7640fe262a5b45120d140b0e3b454e6dbb2c0848ffd2d61fd43b866475dbb10b16209e464a3b25726d746b6e5b252e0ddb4c68289fb2b67fb45be60455fb912b3600be666a1b05524d544b4e7b050e2dfb6c4808bf92965f947bc624b51b71cbd6e05e868afbe5b2adb4abae9be5eecd1b8ca8e85f7276bf749b26c4953b51ebf6c07ea6aadbc5928d948b8ebbc5ceed3bac88c87f52569f54bb06e4f55b318b96a01ec6cabba5f2edf4ebeedba5ae8d5bcce8a81f3236ff34db6684d57b11abb6803ee6ea9b85d2cdd4cbcefb858ead7becc8883f1216df14fb46a4359bf14b5660de060a7b65322d342b2e1b656e4d9b0c2868dff2f63ff41ba64415bbd16b7640fe262a5b45120d140b0e3b454e6dbb2c0848ffd2d61fd43b866475dbb10b16209e464a3b25726d746b6e5b252e0ddb4c68289fb2b67fb45be60455fb912b3600be666a1b05524d544b4e7b050e2dfb6c4808bf92965f947bc624b51b71cbd6e05e868afbe5b2adb4abae9be5eecd1b8ca8e85f7276bf749b26c4953b51ebf6c07ea6aadbc5928d948b8ebbc5ceed3bac88c87f52569f54bb06e4f55b318b96a01ec6cabba5f2edf4ebeedba5ae8d5bcce8a81f3236ff34db6684d57b11abb6803ee6ea9b85d2cdd4cbcefb858ead7becc8883f1216df14fb46a4359bf14b5660de060a7b65322d342b2e55cfd6a5d59845b41dc8513a51924093fad361e015262af9517ccb7a6d88084c3022f408792d0000225120ed62458bcda61b3f78aa1d907cb66163fd2ba0b1de7d2775aaedb54484ed521d02fd75094fb23b3f4d48f5202df3384fef96deeeda8d54aca9e7b39aae659a4b10b66b951816e6a502ef90c931ea7cf36207ce5f59db48ccebb1bbf1faf9dc0a5d9fdc3153294b6ea5a24c9c07faaaa29b6adc0c08e3578d37f64c43c00f6ed136b58de77ebeed6fafea6922ae71aaec9dd6ab1d493a862e39fa29361625d98b401a907c66ec89e922565722ed020080659f09e18118f3e1c11895a0762475e7bb5566ca72382f18e079454d457e74a493b402eae02f0b6b174dd79778c95308e37c27f0849550afcb3b400a43e5d8b0670caf48776156e95d8b166c95e52a64cef1675539f44c5fdb6b00ab55f182fd86b21dce059c1610ff02d2086142c7f4e7306693e7297e3a0fc610a9043f34904d8465ce49c86692ff4461e992e88693df1a0180452911136587c9f248abe8c38981a7108a8837ce5fcfe4308f911b045e78432c1770e8c55d11cec6fca86b75fbe10c22bcafc11e21b81e3717d73cd61e9a0ce06fff68bbad1bc3316166d86ab36a5c18ce6bb14c01df341e8374822ea5d8d9143fc114d9c97b1f039cdaff6231af32cef8a547984d284e11723ef1e028583a2dfcd0f115e730443dbe6ab45d5fa6cc232c905a9064b36f37cba33efde92fd9623208c4e0ab8d7107c8624a8640d0ee8d6c3200d8976183bab5bb5a50dc866aa615ffa5b785ba88f91a97f489fc5612729b5735ab2d99d99632af0238f60aee96446f4d9dc9338c119c927a4cd5b7585d5d6351a20ba4d1e53c55bf69c8102897dde82784c32e16f24fdd906aa6ae83581fa55a32859355abf312d1d0acb8bc9d9f4602ae763ea7c239ac2e76669fb097c3352a6a28c46072af0403e22524c177d525bf5db479b0b6a48d211e921099689bcdc8e992141ac3dbc7387baf1f22fcc1a857529eac4f9143b9ecdde364299d78139a34ba499e8c8f9d7fc1981b3903794b5a36b11ef0a7052425573eb0c430767ae24279432d9e9899b6d66ceca5ea92d92888bb54307aa3c0d516e94e07a58e2539ddcb5ec3124cfe64cec08cbf1fde54b78e1c5f39b09ba3353d279c480aba04beea86aa7e44365d355287c9dbba076ad376aaa3862e90e8ae8ff2c23777c0e2b2552d1d33f1e6b660c213008ca555743605122ce53e84023b42fafda432ba025ff9c1b678cd0b9fa460dba7c9eb602c0cd999f4356dbea25b09f4b2d1a77c55b6b87e0e7774ff74d0ff6f1efaab4a334cd782c2cf9983c31dce29079d1e3ab182473275ebd2dbc57ce24a3fdb6e213239f00e4526912efbe5fc0829e1fdf12f714a07dea347781766fd45eba05b6538e1bc2b70f1ea729d18f51d3b3ef3666b94adb4d4644ebd05c89acb01b518f018d8505aa06948da55f918cd8cba0ec5ee48de4a0503ba9370888b6a7f25af9366051c84cd53dc27f0a88494226bee6f11246c1312aab033897ba3329b10317c2340df7b5542972aae5be45501decced09e4a81950dea8a2122d33e8274d261e1085ff9a391a8ac17be12076f659412829ecd0e2221197d455b76a12bf9472e24a9f5efd0cf8a1789f7387405b0315c9f2fcbadf1f084960c200539145b4dd4d28596682b3035c93fb831d6e101d7bdd72f9a5f246845ad21596286e37d14a9e31fd3e427ae414b952e7c55fe26d3442362d484362b50b972a63725d9b321abb4daf3d7df44dd81a167b59b1a588666bebaa951690a66771890ab6bf3b8be80324a2422b58008d2e2018bc3b7591a5d9ae27badda0d66292d1a71c80c8acea36f2a0f458f598eada2e88334d357f0af91f925c91732b71ce83542cc98e2721a9f35181b3abc2b1b1b59814c3477ede3ec42fc33c3ae2d99c3216622b45a685afaf7c05c0515e9a687d50c1c00aadd1ae24ef80ce98bed94c28f2d6daec3bb276c3037da2625a77371ec5328ed585ab07c931457ee9b9947cf9f4e2777f457192abd6abd970c31514b906a4a6fe5dfdf5e46bcd9934b6e0e0343c681976263031a1afc518a17e112405ae7a74e757041ec1fd81c959cf9dc619e6f7fdd919a4102884a53c7c85e4ef419830a559cf502db526e12ed5d43c07dc910c4876ee200de4a1102612c279f1d376f0a3bed13643a1bc061672e959b47350095a741b6e82102f66d80479abf5942f3949ceec2161ef4f217fe544120bea1015eafd6e6c512f1fe8caf8d0cc57de1f23f5e8f2a67027287e259427da4a639a9ae42e769978c8322859efcffc9988d48269472dec8fc517f6c890b77e57f9a70a27eee494f0c6baf913ba4a292d61b84254f944f74c9ab694572cbde19ac7bb450a79fadf1463cb86bacd1ecb2578204f496f5076a16be780ff0b42a0c5e943e8bec38450559322377fe0854c7df97fef4dd07fc21e0f170cd8774111580186330896047e0357b343b87b82940c4290b56e39734d47cccb18a54502933de0beb706c61d586c64abd789f02fd081f89833265a778a46ab860fa584003927cf44134537262e27296b224b2cc4978c47d21b1f22a7ee3628188722148b3b2905a2f7904cc5b9f684e6e2ad4f9db3f8446de2a3ccb7d582d5cb5bf5e34cc2840096090a362419e5fcbe28c7867707be04a2af60b358544db2d1a4bce23970f9cae345a59b481196b70bb0cadee8857621e89d96870e8e0aae4e724720c261af1bf21023fcb8cc1331ab503244bc91aa025c815a536caa5a450f96d8add014ff9778553d35760c12683d2ab197a3b3fb521b08c07ff1a2c09468916db246c18929e7b31c8f18272975fddfdfedb9f7c2130bfb077896d071ce1029170b340a34ba7e2a2ab1dbbbe3715f90dbc1de297dd4a94eb9f4a70fbc392055bd1294b6e80f4c0541535763b8b2c0627daaaf252e4455b36076b5e79af66684ee7413431c171f32e579fd457f777169076a627f32d4a8300bc95c18b69c8fc6b7b6a4ddf77c53f2c67541c2d8a96d0bda364ebeb90d281b9eb17b726863ce5a838393381b3d5948bde737e94e1eb44264dc8e50ca2ec6c9d6ac0779649e0ffaf8f18ac3b81eea7d5775d617202d8b12144769030eb8a221799cd6c55943af11b0c1c0e5a646af8929cb18400e6bb76ce2f666478669fe48ca734aad430b03090ef449b0fbcc94a83a5761f46ec8fdbc5ae1d6fbe8568fc10572cd98f26824abcd6a0589fc114d1b43fce528a6f16e05d487281f29015c9809c745cef913182a7309a03f69aedf9eb39bf7b4972366cfb780cc2280620fbe36f91d5f4086575d6b447bab252476f5f005378ee9716af5d7d7597d078561a6d0b2a3ff21074891961993a12adb60e99c4df8f1010607263045546e7496a0a7aabac0c2fb023c626d7192a0aeb3b7bec6e0081c3c474f5b5c5d6873768f9aadcfd0f2ff041017252d3149546f7277849ba6abbbc2e80000000000000000000000000000111e304201fd210500d3b4386e18f4db8939e4333b5313d060355f33b64c0974c540ff200cde29589b563b5337fab9b3655e3358fb2623a561aa6c1cf67d93ef4dbc62a56f2db6c501bc5f01d4988c55401f8960d026a243c5690ac989181b62f4dd226d060a87ca57b5f7c4c6776a011c8965b3d5531af780fab7613e8b5238f49b199889e5b0911cc6537634af1709228aa8b6383229d5415c99aa9e15c4a8a7150ca1ea6102506d812a179d981244f616e4cb8375d3486d77d456a079d9de0bf3d0734b79eeb3a8bdcec7ff113fcd9ca2f74a570078a69bdfd4c891083320cca994a97819e8abce2563310607b3c84f76170f7055c9425d6e9f7b643ea34dc55bdc85f6cbad82b9bf03d679b8da16143a4ddc367903de5b89cfb96d10d21f5bee5248d8825b8de8904435c353ade4baee93a89ac35ad5f4a3e39e7c40fed383f5b59e5d395cbd0df096d469b51ff434eb41baa4d086fc823e76c459980c36f725a55c1ca294ed4f39ab2d1a3c4008a4dd9bf2046f48c29fc6e4612770cbad80dc3b7f3bff47f01e53be631b1578276e8820dfc92e3b485a7120f585b06c6068a9b4da5b68bdc39463d2fdce94d058f44fe2fd485ac18ff8c9cf2082e9eca93fdda137e35d6e61d6ea3a991d67c8a83e957bff2166a1aedec48a5a427cb0fd0d3bdeb97e5d145580bcbc5214e60994d8a41fd319bdf8044556e5c2f87353eadf89558cdf8084db4309d13ae03659a00b54940b91f8eeb9039e8af0879474f1f272efcf9d0f24eded579b5182207e2edbcdd076192fd8ff1e21efc858a2f5c2a31f17e78662873c217c8dc2f11648a1203f9615deeec96f86003378ec216deca87049d5582256205529c151969f77c6a3388faf43d7f6f6260318ba7fd1af164c8adf5198adb45146264eb258bc0b7d0bfe8eb71faca3e3f6da613561f66448e00fa01ae70d4b239604d2c367da628f2df06617fdf90e3081d66ee427e138260a4fdd21fab0477971e0599e719da03c61a631c22a54f9799768b063d0dea1ec650f29a465bae6492eec8603101246dab09ea49e097df6a1315b98a52ebce002451eebf1898db49ed048186c86509a89130b7ab085a8abc96dd73882553a17e4e2816dabe49b2972486a6a12dbc649227aafe32c70ecdd61fdc8696a86ee2845d2de6f07de7533921ca855bc292956085e13a18338ca2c444fd04ab47c32cce4f584e291ea4a12b2d84437422c37af565e508a250ff941a4c25365cb7154f7ea473b8b480ef26d4d432a497fea0a34bf8eba083a825467d889215b04cb3977124c5644c1ea1903c564d19897e963aade1129a470650a730671793fe23da62455ba4c676437ddb035bb710837f84f7cc07a866b5e92cf737da624e03b8738951b76fcc81874d1b3af3eded429254dfe6e71562794a0171a0562fdc536b8dafea13b09cb553f694e2a265ff0bf2bfd37445c04e9f91208570d14e8aedaed21e2458cc0dc3744aa3933f6b678566f111be6aa3fc79284ade971eb065563b72ffa9098c25f9f07604d0e3867a803db5de85b69823521d440ebe1c077cadc9f23f2f0fff2ecaf43eb922edec03700791147fa92911ab2fabf10330855097942fcaad21cd20465fa381c8c3cc9fba475dd34a0594ef0558cd59480db0e67537c2e5500375bbf365fead2acd78edac57181937a58ad2d957b0e76ee3222d6534cc900eff5dfa8723020eb0a902e5f959377ee4ca54310af7de7f8ecf2b0bf43d92034046c50b327b99ff33ec51c0f4e03f72224860c8523058b125f757c048f693b68d73c185c9d2405c873b236303c3b5e0fc05ac4d48d71df2fcd022694602875212a93adfe615b62ca09337e000000",
  "txid": "5a9a7d4dc61cf5f47acad2cf1b0733a6ccce5137f1814daa53b39ca724a0dc22",
  "hash": "33c55644e9ac52a28752220c9cea198cf814d7000aaa9b589b37518962e4e949",
  "size": 5085,
  "vsize": 2278,
  "version": 1,
  "locktime": 126,
  "vin": [
    {
      "txid": "041b32da370a92bc1b1bb0b71e6192edb91541cc56847a4acfb9527e5c174e91",
      "vout": 0,
      "scriptSig": {
        "asm": "",
        "hex": ""
      },
      "txinwitness": [
        "4fb23b3f4d48f5202df3384fef96deeeda8d54aca9e7b39aae659a4b10b66b951816e6a502ef90c931ea7cf36207ce5f59db48ccebb1bbf1faf9dc0a5d9fdc3153294b6ea5a24c9c07faaaa29b6adc0c08e3578d37f64c43c00f6ed136b58de77ebeed6fafea6922ae71aaec9dd6ab1d493a862e39fa29361625d98b401a907c66ec89e922565722ed020080659f09e18118f3e1c11895a0762475e7bb5566ca72382f18e079454d457e74a493b402eae02f0b6b174dd79778c95308e37c27f0849550afcb3b400a43e5d8b0670caf48776156e95d8b166c95e52a64cef1675539f44c5fdb6b00ab55f182fd86b21dce059c1610ff02d2086142c7f4e7306693e7297e3a0fc610a9043f34904d8465ce49c86692ff4461e992e88693df1a0180452911136587c9f248abe8c38981a7108a8837ce5fcfe4308f911b045e78432c1770e8c55d11cec6fca86b75fbe10c22bcafc11e21b81e3717d73cd61e9a0ce06fff68bbad1bc3316166d86ab36a5c18ce6bb14c01df341e8374822ea5d8d9143fc114d9c97b1f039cdaff6231af32cef8a547984d284e11723ef1e028583a2dfcd0f115e730443dbe6ab45d5fa6cc232c905a9064b36f37cba33efde92fd9623208c4e0ab8d7107c8624a8640d0ee8d6c3200d8976183bab5bb5a50dc866aa615ffa5b785ba88f91a97f489fc5612729b5735ab2d99d99632af0238f60aee96446f4d9dc9338c119c927a4cd5b7585d5d6351a20ba4d1e53c55bf69c8102897dde82784c32e16f24fdd906aa6ae83581fa55a32859355abf312d1d0acb8bc9d9f4602ae763ea7c239ac2e76669fb097c3352a6a28c46072af0403e22524c177d525bf5db479b0b6a48d211e921099689bcdc8e992141ac3dbc7387baf1f22fcc1a857529eac4f9143b9ecdde364299d78139a34ba499e8c8f9d7fc1981b3903794b5a36b11ef0a7052425573eb0c430767ae24279432d9e9899b6d66ceca5ea92d92888bb54307aa3c0d516e94e07a58e2539ddcb5ec3124cfe64cec08cbf1fde54b78e1c5f39b09ba3353d279c480aba04beea86aa7e44365d355287c9dbba076ad376aaa3862e90e8ae8ff2c23777c0e2b2552d1d33f1e6b660c213008ca555743605122ce53e84023b42fafda432ba025ff9c1b678cd0b9fa460dba7c9eb602c0cd999f4356dbea25b09f4b2d1a77c55b6b87e0e7774ff74d0ff6f1efaab4a334cd782c2cf9983c31dce29079d1e3ab182473275ebd2dbc57ce24a3fdb6e213239f00e4526912efbe5fc0829e1fdf12f714a07dea347781766fd45eba05b6538e1bc2b70f1ea729d18f51d3b3ef3666b94adb4d4644ebd05c89acb01b518f018d8505aa06948da55f918cd8cba0ec5ee48de4a0503ba9370888b6a7f25af9366051c84cd53dc27f0a88494226bee6f11246c1312aab033897ba3329b10317c2340df7b5542972aae5be45501decced09e4a81950dea8a2122d33e8274d261e1085ff9a391a8ac17be12076f659412829ecd0e2221197d455b76a12bf9472e24a9f5efd0cf8a1789f7387405b0315c9f2fcbadf1f084960c200539145b4dd4d28596682b3035c93fb831d6e101d7bdd72f9a5f246845ad21596286e37d14a9e31fd3e427ae414b952e7c55fe26d3442362d484362b50b972a63725d9b321abb4daf3d7df44dd81a167b59b1a588666bebaa951690a66771890ab6bf3b8be80324a2422b58008d2e2018bc3b7591a5d9ae27badda0d66292d1a71c80c8acea36f2a0f458f598eada2e88334d357f0af91f925c91732b71ce83542cc98e2721a9f35181b3abc2b1b1b59814c3477ede3ec42fc33c3ae2d99c3216622b45a685afaf7c05c0515e9a687d50c1c00aadd1ae24ef80ce98bed94c28f2d6daec3bb276c3037da2625a77371ec5328ed585ab07c931457ee9b9947cf9f4e2777f457192abd6abd970c31514b906a4a6fe5dfdf5e46bcd9934b6e0e0343c681976263031a1afc518a17e112405ae7a74e757041ec1fd81c959cf9dc619e6f7fdd919a4102884a53c7c85e4ef419830a559cf502db526e12ed5d43c07dc910c4876ee200de4a1102612c279f1d376f0a3bed13643a1bc061672e959b47350095a741b6e82102f66d80479abf5942f3949ceec2161ef4f217fe544120bea1015eafd6e6c512f1fe8caf8d0cc57de1f23f5e8f2a67027287e259427da4a639a9ae42e769978c8322859efcffc9988d48269472dec8fc517f6c890b77e57f9a70a27eee494f0c6baf913ba4a292d61b84254f944f74c9ab694572cbde19ac7bb450a79fadf1463cb86bacd1ecb2578204f496f5076a16be780ff0b42a0c5e943e8bec38450559322377fe0854c7df97fef4dd07fc21e0f170cd8774111580186330896047e0357b343b87b82940c4290b56e39734d47cccb18a54502933de0beb706c61d586c64abd789f02fd081f89833265a778a46ab860fa584003927cf44134537262e27296b224b2cc4978c47d21b1f22a7ee3628188722148b3b2905a2f7904cc5b9f684e6e2ad4f9db3f8446de2a3ccb7d582d5cb5bf5e34cc2840096090a362419e5fcbe28c7867707be04a2af60b358544db2d1a4bce23970f9cae345a59b481196b70bb0cadee8857621e89d96870e8e0aae4e724720c261af1bf21023fcb8cc1331ab503244bc91aa025c815a536caa5a450f96d8add014ff9778553d35760c12683d2ab197a3b3fb521b08c07ff1a2c09468916db246c18929e7b31c8f18272975fddfdfedb9f7c2130bfb077896d071ce1029170b340a34ba7e2a2ab1dbbbe3715f90dbc1de297dd4a94eb9f4a70fbc392055bd1294b6e80f4c0541535763b8b2c0627daaaf252e4455b36076b5e79af66684ee7413431c171f32e579fd457f777169076a627f32d4a8300bc95c18b69c8fc6b7b6a4ddf77c53f2c67541c2d8a96d0bda364ebeb90d281b9eb17b726863ce5a838393381b3d5948bde737e94e1eb44264dc8e50ca2ec6c9d6ac0779649e0ffaf8f18ac3b81eea7d5775d617202d8b12144769030eb8a221799cd6c55943af11b0c1c0e5a646af8929cb18400e6bb76ce2f666478669fe48ca734aad430b03090ef449b0fbcc94a83a5761f46ec8fdbc5ae1d6fbe8568fc10572cd98f26824abcd6a0589fc114d1b43fce528a6f16e05d487281f29015c9809c745cef913182a7309a03f69aedf9eb39bf7b4972366cfb780cc2280620fbe36f91d5f4086575d6b447bab252476f5f005378ee9716af5d7d7597d078561a6d0b2a3ff21074891961993a12adb60e99c4df8f1010607263045546e7496a0a7aabac0c2fb023c626d7192a0aeb3b7bec6e0081c3c474f5b5c5d6873768f9aadcfd0f2ff041017252d3149546f7277849ba6abbbc2e80000000000000000000000000000111e304201",
        "00d3b4386e18f4db8939e4333b5313d060355f33b64c0974c540ff200cde29589b563b5337fab9b3655e3358fb2623a561aa6c1cf67d93ef4dbc62a56f2db6c501bc5f01d4988c55401f8960d026a243c5690ac989181b62f4dd226d060a87ca57b5f7c4c6776a011c8965b3d5531af780fab7613e8b5238f49b199889e5b0911cc6537634af1709228aa8b6383229d5415c99aa9e15c4a8a7150ca1ea6102506d812a179d981244f616e4cb8375d3486d77d456a079d9de0bf3d0734b79eeb3a8bdcec7ff113fcd9ca2f74a570078a69bdfd4c891083320cca994a97819e8abce2563310607b3c84f76170f7055c9425d6e9f7b643ea34dc55bdc85f6cbad82b9bf03d679b8da16143a4ddc367903de5b89cfb96d10d21f5bee5248d8825b8de8904435c353ade4baee93a89ac35ad5f4a3e39e7c40fed383f5b59e5d395cbd0df096d469b51ff434eb41baa4d086fc823e76c459980c36f725a55c1ca294ed4f39ab2d1a3c4008a4dd9bf2046f48c29fc6e4612770cbad80dc3b7f3bff47f01e53be631b1578276e8820dfc92e3b485a7120f585b06c6068a9b4da5b68bdc39463d2fdce94d058f44fe2fd485ac18ff8c9cf2082e9eca93fdda137e35d6e61d6ea3a991d67c8a83e957bff2166a1aedec48a5a427cb0fd0d3bdeb97e5d145580bcbc5214e60994d8a41fd319bdf8044556e5c2f87353eadf89558cdf8084db4309d13ae03659a00b54940b91f8eeb9039e8af0879474f1f272efcf9d0f24eded579b5182207e2edbcdd076192fd8ff1e21efc858a2f5c2a31f17e78662873c217c8dc2f11648a1203f9615deeec96f86003378ec216deca87049d5582256205529c151969f77c6a3388faf43d7f6f6260318ba7fd1af164c8adf5198adb45146264eb258bc0b7d0bfe8eb71faca3e3f6da613561f66448e00fa01ae70d4b239604d2c367da628f2df06617fdf90e3081d66ee427e138260a4fdd21fab0477971e0599e719da03c61a631c22a54f9799768b063d0dea1ec650f29a465bae6492eec8603101246dab09ea49e097df6a1315b98a52ebce002451eebf1898db49ed048186c86509a89130b7ab085a8abc96dd73882553a17e4e2816dabe49b2972486a6a12dbc649227aafe32c70ecdd61fdc8696a86ee2845d2de6f07de7533921ca855bc292956085e13a18338ca2c444fd04ab47c32cce4f584e291ea4a12b2d84437422c37af565e508a250ff941a4c25365cb7154f7ea473b8b480ef26d4d432a497fea0a34bf8eba083a825467d889215b04cb3977124c5644c1ea1903c564d19897e963aade1129a470650a730671793fe23da62455ba4c676437ddb035bb710837f84f7cc07a866b5e92cf737da624e03b8738951b76fcc81874d1b3af3eded429254dfe6e71562794a0171a0562fdc536b8dafea13b09cb553f694e2a265ff0bf2bfd37445c04e9f91208570d14e8aedaed21e2458cc0dc3744aa3933f6b678566f111be6aa3fc79284ade971eb065563b72ffa9098c25f9f07604d0e3867a803db5de85b69823521d440ebe1c077cadc9f23f2f0fff2ecaf43eb922edec03700791147fa92911ab2fabf10330855097942fcaad21cd20465fa381c8c3cc9fba475dd34a0594ef0558cd59480db0e67537c2e5500375bbf365fead2acd78edac57181937a58ad2d957b0e76ee3222d6534cc900eff5dfa8723020eb0a902e5f959377ee4ca54310af7de7f8ecf2b0bf43d92034046c50b327b99ff33ec51c0f4e03f72224860c8523058b125f757c048f693b68d73c185c9d2405c873b236303c3b5e0fc05ac4d48d71df2fcd022694602875212a93adfe615b62ca0933"
      ],
      "sequence": 4294967294
    }
  ],
  "vout": [
    {
      "value": 1.0,
      "n": 0,
      "scriptPubKey": {
        "asm": "OP_RETURN 0bd64a5ba240c2fbfb14983b70473a9587f9106de9385b47c420a92a50b8f50d b51b71cbd6e05e868afbe5b2adb4abae9be5eecd1b8ca8e85f7276bf749b26c4953b51ebf6c07ea6aadbc5928d948b8ebbc5ceed3bac88c87f52569f54bb06e4f55b318b96a01ec6cabba5f2edf4ebeedba5ae8d5bcce8a81f3236ff34db6684d57b11abb6803ee6ea9b85d2cdd4cbcefb858ead7becc8883f1216df14fb46a4359bf14b5660de060a7b65322d342b2e1b656e4d9b0c2868dff2f63ff41ba64415bbd16b7640fe262a5b45120d140b0e3b454e6dbb2c0848ffd2d61fd43b866475dbb10b16209e464a3b25726d746b6e5b252e0ddb4c68289fb2b67fb45be60455fb912b3600be666a1b05524d544b4e7b050e2dfb6c4808bf92965f947bc624b51b71cbd6e05e868afbe5b2adb4abae9be5eecd1b8ca8e85f7276bf749b26c4953b51ebf6c07ea6aadbc5928d948b8ebbc5ceed3bac88c87f52569f54bb06e4f55b318b96a01ec6cabba5f2edf4ebeedba5ae8d5bcce8a81f3236ff34db6684d57b11abb6803ee6ea9b85d2cdd4cbcefb858ead7becc8883f1216df14fb46a4359bf14b5660de060a7b65322d342b2e1b656e4d9b0c2868dff2f63ff41ba64415bbd16b7640fe262a5b45120d140b0e3b454e6dbb2c0848ffd2d61fd43b866475dbb10b16209e464a3b25726d746b6e5b252e0ddb4c68289fb2b67fb45be60455fb912b3600be666a1b05524d544b4e7b050e2dfb6c4808bf92965f947bc624b51b71cbd6e05e868afbe5b2adb4abae9be5eecd1b8ca8e85f7276bf749b26c4953b51ebf6c07ea6aadbc5928d948b8ebbc5ceed3bac88c87f52569f54bb06e4f55b318b96a01ec6cabba5f2edf4ebeedba5ae8d5bcce8a81f3236ff34db6684d57b11abb6803ee6ea9b85d2cdd4cbcefb858ead7becc8883f1216df14fb46a4359bf14b5660de060a7b65322d342b2e1b656e4d9b0c2868dff2f63ff41ba64415bbd16b7640fe262a5b45120d140b0e3b454e6dbb2c0848ffd2d61fd43b866475dbb10b16209e464a3b25726d746b6e5b252e0ddb4c68289fb2b67fb45be60455fb912b3600be666a1b05524d544b4e7b050e2dfb6c4808bf92965f947bc624b51b71cbd6e05e868afbe5b2adb4abae9be5eecd1b8ca8e85f7276bf749b26c4953b51ebf6c07ea6aadbc5928d948b8ebbc5ceed3bac88c87f52569f54bb06e4f55b318b96a01ec6cabba5f2edf4ebeedba5ae8d5bcce8a81f3236ff34db6684d57b11abb6803ee6ea9b85d2cdd4cbcefb858ead7becc8883f1216df14fb46a4359bf14b5660de060a7b65322d342b2e1b656e4d9b0c2868dff2f63ff41ba64415bbd16b7640fe262a5b45120d140b0e3b454e6dbb2c0848ffd2d61fd43b866475dbb10b16209e464a3b25726d746b6e5b252e0ddb4c68289fb2b67fb45be60455fb912b3600be666a1b05524d544b4e7b050e2dfb6c4808bf92965f947bc624b51b71cbd6e05e868afbe5b2adb4abae9be5eecd1b8ca8e85f7276bf749b26c4953b51ebf6c07ea6aadbc5928d948b8ebbc5ceed3bac88c87f52569f54bb06e4f55b318b96a01ec6cabba5f2edf4ebeedba5ae8d5bcce8a81f3236ff34db6684d57b11abb6803ee6ea9b85d2cdd4cbcefb858ead7becc8883f1216df14fb46a4359bf14b5660de060a7b65322d342b2e55cfd6a5d59845b41dc8513a51924093fad361e015262af9517ccb7a6d88084c",
        "hex": "6a200bd64a5ba240c2fbfb14983b70473a9587f9106de9385b47c420a92a50b8f50d4db004b51b71cbd6e05e868afbe5b2adb4abae9be5eecd1b8ca8e85f7276bf749b26c4953b51ebf6c07ea6aadbc5928d948b8ebbc5ceed3bac88c87f52569f54bb06e4f55b318b96a01ec6cabba5f2edf4ebeedba5ae8d5bcce8a81f3236ff34db6684d57b11abb6803ee6ea9b85d2cdd4cbcefb858ead7becc8883f1216df14fb46a4359bf14b5660de060a7b65322d342b2e1b656e4d9b0c2868dff2f63ff41ba64415bbd16b7640fe262a5b45120d140b0e3b454e6dbb2c0848ffd2d61fd43b866475dbb10b16209e464a3b25726d746b6e5b252e0ddb4c68289fb2b67fb45be60455fb912b3600be666a1b05524d544b4e7b050e2dfb6c4808bf92965f947bc624b51b71cbd6e05e868afbe5b2adb4abae9be5eecd1b8ca8e85f7276bf749b26c4953b51ebf6c07ea6aadbc5928d948b8ebbc5ceed3bac88c87f52569f54bb06e4f55b318b96a01ec6cabba5f2edf4ebeedba5ae8d5bcce8a81f3236ff34db6684d57b11abb6803ee6ea9b85d2cdd4cbcefb858ead7becc8883f1216df14fb46a4359bf14b5660de060a7b65322d342b2e1b656e4d9b0c2868dff2f63ff41ba64415bbd16b7640fe262a5b45120d140b0e3b454e6dbb2c0848ffd2d61fd43b866475dbb10b16209e464a3b25726d746b6e5b252e0ddb4c68289fb2b67fb45be60455fb912b3600be666a1b05524d544b4e7b050e2dfb6c4808bf92965f947bc624b51b71cbd6e05e868afbe5b2adb4abae9be5eecd1b8ca8e85f7276bf749b26c4953b51ebf6c07ea6aadbc5928d948b8ebbc5ceed3bac88c87f52569f54bb06e4f55b318b96a01ec6cabba5f2edf4ebeedba5ae8d5bcce8a81f3236ff34db6684d57b11abb6803ee6ea9b85d2cdd4cbcefb858ead7becc8883f1216df14fb46a4359bf14b5660de060a7b65322d342b2e1b656e4d9b0c2868dff2f63ff41ba64415bbd16b7640fe262a5b45120d140b0e3b454e6dbb2c0848ffd2d61fd43b866475dbb10b16209e464a3b25726d746b6e5b252e0ddb4c68289fb2b67fb45be60455fb912b3600be666a1b05524d544b4e7b050e2dfb6c4808bf92965f947bc624b51b71cbd6e05e868afbe5b2adb4abae9be5eecd1b8ca8e85f7276bf749b26c4953b51ebf6c07ea6aadbc5928d948b8ebbc5ceed3bac88c87f52569f54bb06e4f55b318b96a01ec6cabba5f2edf4ebeedba5ae8d5bcce8a81f3236ff34db6684d57b11abb6803ee6ea9b85d2cdd4cbcefb858ead7becc8883f1216df14fb46a4359bf14b5660de060a7b65322d342b2e1b656e4d9b0c2868dff2f63ff41ba64415bbd16b7640fe262a5b45120d140b0e3b454e6dbb2c0848ffd2d61fd43b866475dbb10b16209e464a3b25726d746b6e5b252e0ddb4c68289fb2b67fb45be60455fb912b3600be666a1b05524d544b4e7b050e2dfb6c4808bf92965f947bc624b51b71cbd6e05e868afbe5b2adb4abae9be5eecd1b8ca8e85f7276bf749b26c4953b51ebf6c07ea6aadbc5928d948b8ebbc5ceed3bac88c87f52569f54bb06e4f55b318b96a01ec6cabba5f2edf4ebeedba5ae8d5bcce8a81f3236ff34db6684d57b11abb6803ee6ea9b85d2cdd4cbcefb858ead7becc8883f1216df14fb46a4359bf14b5660de060a7b65322d342b2e55cfd6a5d59845b41dc8513a51924093fad361e015262af9517ccb7a6d88084c",
        "type": "nulldata"
      }
    },
    {
      "value": 499978.6451,
      "n": 1,
      "scriptPubKey": {
        "asm": "1 ed62458bcda61b3f78aa1d907cb66163fd2ba0b1de7d2775aaedb54484ed521d",
        "hex": "5120ed62458bcda61b3f78aa1d907cb66163fd2ba0b1de7d2775aaedb54484ed521d",
        "reqSigs": 1,
        "type": "witness_v1_scripthash",
        "addresses": [
          "3QJmnh"
        ]
      }
    }
  ],
  "blockhash": "6d9c0c317b6a18c94c8dfa8ecf7920e3db1b4df4697afebc42d3fd28269e39fd",
  "confirmations": 1,
  "time": 1764181315,
  "blocktime": 1764181315
}