{
  "hex": "010000000001018e2c76a95b86c91ccd0d6ce62d01ffd6dd4e46109b3fd4d23dc82179028ba4910000000000feffffff0200e1f50500000000fdd5046a20c54c3240e527f77d897f86b732f0f37f65989d9a4edf8a2df00e3400856198094db004ede12dab5de080a0d295e127e5f5e091faf5683234c5e04cff65c58589d9becbcdc10d8b7dc0a080f2b5c107c5d5c0b1dad5481214e5c06cdf45e5a5a9f99eebada16deb1da0c0e092d5a167a5b5a0d1bab528727485a00cbf2585c5c999fe8b8d814dcb3d80e0c0b2f58147859580f19a95085254a5802c9f05a5e5e9b9deab6d61ad2bdd600020521561a7657560117a75e8b2b44560cc7fe5450509593e4b4d418d0bfd40200072354187455540315a55c892946540ec5fc5652529791e6b2d21ed6b9d204060125521e7253520513a35a8f2f405208c3fa5054549197e0b0d01cd4bbd006040327501c7051500711a1588d2d42500ac1f85256569395e2bede12dab5de080a0d295e127e5f5e091faf5683234c5e04cff65c58589d9becbcdc10d8b7dc0a080f2b5c107c5d5c0b1dad5481214e5c06cdf45e5a5a9f99eebada16deb1da0c0e092d5a167a5b5a0d1bab528727485a00cbf2585c5c999fe8b8d814dcb3d80e0c0b2f58147859580f19a95085254a5802c9f05a5e5e9b9deab6d61ad2bdd600020521561a7657560117a75e8b2b44560cc7fe5450509593e4b4d418d0bfd40200072354187455540315a55c892946540ec5fc5652529791e6b2d21ed6b9d204060125521e7253520513a35a8f2f405208c3fa5054549197e0b0d01cd4bbd006040327501c7051500711a1588d2d42500ac1f85256569395e2bede12dab5de080a0d295e127e5f5e091faf5683234c5e04cff65c58589d9becbcdc10d8b7dc0a080f2b5c107c5d5c0b1dad5481214e5c06cdf45e5a5a9f99eebada16deb1da0c0e092d5a167a5b5a0d1bab528727485a00cbf2585c5c999fe8b8d814dcb3d80e0c0b2f58147859580f19a95085254a5802c9f05a5e5e9b9deab6d61ad2bdd600020521561a7657560117a75e8b2b44560cc7fe5450509593e4b4d418d0bfd40200072354187455540315a55c892946540ec5fc5652529791e6b2d21ed6b9d204060125521e7253520513a35a8f2f405208c3fa5054549197e0b0d01cd4bbd006040327501c7051500711a1588d2d42500ac1f85256569395e2bede12dab5de080a0d295e127e5f5e091faf5683234c5e04cff65c58589d9becbcdc10d8b7dc0a080f2b5c107c5d5c0b1dad5481214e5c06cdf45e5a5a9f99eebada16deb1da0c0e092d5a167a5b5a0d1bab528727485a00cbf2585c5c999fe8b8d814dcb3d80e0c0b2f58147859580f19a95085254a5802c9f05a5e5e9b9deab6d61ad2bdd600020521561a7657560117a75e8b2b44560cc7fe5450509593e4b4d418d0bfd40200072354187455540315a55c892946540ec5fc5652529791e6b2d21ed6b9d204060125521e7253520513a35a8f2f405208c3fa5054549197e0b0d01cd4bbd006040327501c7051500711a1588d2d42500ac1f85256569395e2bede12dab5de080a0d295e127e5f5e091faf5683234c5e04cff65c58589d9becbcdc10d8b7dc0a080f2b5c107c5d5c0b1dad5481214e5c06cdf45e5a5a9f99eebada16deb1da0c0e092d5a167a5b5a0d1bab528727485a00cbf2585c5c999fe8b8d814dcb3d80e0c0b2f58147859580f19a95085254a5802c9f05a5e5e9b9deab6d61ad2bdd600020521561a765756011e21efd90d81587d95a58826e9a2834deea26a2a5adfc31fb80ee2e3fad47e0ea00774227792d00002251205768af1369d27c857e6e9ff37a79d6961161b6dc33493d133418c5042d1301e902fd7509c7a7f2ac0f0fb73924fa73a32adb2cd7e2a47092b78044004ed39f8c4a5da6da46641d529ceef2b5d98255ca3683c9ed9536ab8a36abad3102a2e3d51a14bd708126c651d634ac2c1273db85b2ca0f3b0dd89c0ae1ad91822d6ad208384a93920d472f6391104c50847dc948fb23eb4f984defff6d557b0fa68612d09a0146d5623bf1bd94d6389ebe231d5ec7dbe476a4b2f2f602abf3c748ed37c017741e3aae5bae06cc265942d89341109589a5e02094c4ed665d72b4421ea17341c1267e3ed9dc78f1b8b1ed538d0d0890845a00e19e541655afc85f1636557a563ff26af90d12e5e9d0dac5c49b69e60ada1a1fe84b16abec60c65df95516b64f89310df23de16ac29ec554938ea73d7b0970e69c604555b8856a9519527a619b9359263126e3db57139e02348716778e7f5d46e951fe395fefc9842f63d662460a6d45843fd66210f6570cc2288715487f9a4d9903bf4e20d4111a0d3fe02edfd6edd1f996aef8eba99319b958846b799b2777d5af993966d5e3f4b00e56f0309ab68b74110fa3137cc75b19024a75bde368b4884ac52f3c3e6b9b34fd5a07f38ea0379a26cfb94294e4702ea3e915a5a95f33514a597747d3509081e961ad1f2ca3d8cbf7180bd902f633479bb1ff86ba2c294c770f460111e50951a2a891f90e5ae6cab6513244aab2dfa76c532d939dba544f11314dc0e5547dbd819c993d0a2cf7fa4450323b58ba7ff2b3565be0ffa529ecb28e4735c519be29bb89d4165a18b23ae6970403c91989bfca1396a6ca6fd41739f0720b64c1f1b3966242b8b40433e64fae16ae39078fa80d415732fc779e3c39f338849d9060acb0543052d7c1101dcb939de1b9df7eb527cf2f8f60a75ceab91f1f28bec419ff024d43b7f0d7c7c72526aae1538742d5b1c790ea5059909cbcad5645b4a188db35b24f907c7f9a17022dd71786e471a1af7933d7b44c208489c9a6b6b6930f7c2d50620a9935be040a615ecdb70522cfe74b6c5f9802a8eb20979cb3b0093dc4f361759ecf647eb9ae3fed567a170be0d0f112d6f9c632585a3e3db7c369e9c7a1a5f3a3b898e853f6faf9f70aa454d1d6c746f70de1090475c2be3e6cc44dab005f62aa197a16e2e61f6130ee0d93784dbeea09d758073eb08b388c80e4e09affc01e35f4637a798bde97d2a67790e371cdfb0ef84cb4d11d63ebe4694c6a6d2f5312e99f97d04d10d65ebd4f2458ad20638ebe97ac2644d1784d9e270f330919f923d023816c10e6b5a3e64c8cfe09dc5b48b730ead4300115147dc4c5bde74144165c755f4c16a4407856c62dd30524643c27e5753bd6687d8fb04aaf20c659b708fc14c6252257043d92b7485ccb58aaa57203e3397f222a37735771888bf62076212e7b57d89194985c9bf9d410e1c98f7916eb47932f8b97ab805089c89be2ab4b8bd7f5c9733037dfa87714e7106cea62147fc3cb54eb4be5ef13e75582d04addd5095d599c0727c75fdd4ca8e9876ac65a0b6ddf4cac6fa43701c9a7a824adf59f5564950a9dff7d6ef2b86423d6f28da930b9fc899048a487db8bd8f5c4178ae1186ede0ddab2a8a8ff2734f98b21c764eb9b1fe15035086f356fdccb7e60890f9801ecc67ff7bdab8ebdcc0d1f6b909f80351acae9df15a808ba25a5d0f629267adc2978049c28a8d992f4ad274fb54393e1bc77def8cfe8e488374cb8622372a0eae33a607e3ca11f90750062ff0bcdd42302aa20f5d85421df9450d0be01c59a5b2f21ea711607e96b15a6237b4f7b0ca828fb98fc162b155cc9151571ad2c02205fd7aa502f8ceaf758bd36fb9919a860b0dff41f350eb5c66b15670aea32422d3527430dd0a6ce0a60c6c683b05d5fb35943595d9ce799b3a7ba277b7728c2ceb341ec9c93ed66924055a832ae34eed61d84d5b35a9bc8ff365463dc99e6555f3384105e0d91ad865abe21f5a85ef758eba686560d8c678e8e2a65ec61eab46be893993d681c8479997d6c1b8af5ad5215d2853818ac7849c945fa5d34bfafd3f403a132c0309edb947e56056d65e36df6aa01055b61dd819c699bc1e69619c47ae16cef7a864ee4038b825421e064fc4b218116674e8e8e5cef561f67dc671babf278f59fad49d7b48e7e4703f977bae30c58cce23bd512a99bda2690b23084c2002c72bc1ad89463da2b7caa70b2f38a4dee0a0153b6228cb9d979553e5fccc57615418794a73600dab9ef802491e91a45e76c541e5ce74cf90ef0d7ac5750b0146e3489a32d8fa92567387c8e6e9f72580397a9963964b67d351840ff2b56d90add5f68382e57b96435510a08bced4504062ddfb66f689f6ee0d2d6fdd857da6c9e1b56bcf62ab785bb6052445b08cb699527cbd04c9e9d5dae258026b44f08b34c9e91e654e4c5f08edc4ce77a53686ae2c16c02911b5b8ecc6dae9a3716d1826b7681904764b1e31195394c10ca3f147f27ecf3c5b1f39bbcaeade5f61f5864cecdfcdb9ba1cf6a13e176480891ca1e3bcf15bfeae8e8a187fe73e9f34c48f1e60e0758797e073267ebf9e13a65fa2eb46338c5c6a5ef8eeaf727828b7a1522c6d7908de867e9682a8ae4f9e4288e3ba9fd1dea481806e8e11e3b9e00db2e9769d1fb715b992a762e743d0069dbd376748bdba399c22f5a79f8a20549909cc46dadcd7a232aa30b6a9f307f5ba0937037236eca6cf7da08372fe8ec0056c3ec73388145e614da367f6d9b273a01b8fac6fb5bff03ebe37708729d4a406a2f8bd12ecee71bf860510b196f1b26e5ab642b6884b4e7114f9cc35399523f3f0cc5b9edb2e94d14281b71a9adb9aa02964d067f7b601c6524542e6a6b8ea5339271acf2795a14332cf5b67e7cc4b463f0fcd80b85afd331d9ef39fbc7ed100633c45f171d9673e77890ad389decdd09dba52e9753c4d9855125d258f7e6399fa32f5340d72152224e2fec90af82fd9d5a9c8368ca57717f83b53d37a6d6dffc37a6ff250676c20e469cac309c6a250dfad2be94e58a76a7ed84a1dc3af1e5e980e7bb6c330af0b90d8a72f24852f2e244aafca7790116ec5abd20f434fad07698f1cf83aa84fd84f25a7e886e6dab7d20b3c7ee946e115771531b7baab9c95c02f886f1902b04be541506e8127e45d2cf5965b8fdb5ab8bbff47f8e2c4d1f69e28cb29a9afb638cb1b7f814d03a8544ad90a35b9bfa7d25934c2dd93dc73ab8727bc1556811d4f336f079ef0b85e0b7c01f227bef1a3f53666df2d2ae6a0407c9f0392a40d0b28f2ebf8f4c09b10a18d74e8a58ca51684a2be935b69593d085030f12154c6a8285888b9ea0a9afcde118212d57587f8394a1b9bdd6d7dcedf0fb09314967717486a3bad6e31d38485e7375919babbcc4c8dde2e7ec000000000000000000000000000000000000000010212c3c01fd210500334dd1635c5164202069663d3ffe4aed8594cda0afdeeb33214be4d7cc13b680289a6c1cd146da621f1e0b4785df50afd21ab3f32af804d6f262fcd5f4c3a4e7999a6853bcdda038e693effe18af2a9bf4403c2943df1c7ebe3341ada4341fdc79fe44b8047656b4921428ddb3d42fdfca507dd55f6e281b23f57457e5d839d3a109d6acf73b5ac653b2c4d7fad64dec73b2c4a4be52d0a74800b67cc227f3c62f8f83632681b9a35663fe8f114220aca6d0ac7dc6cf9a3be927976f798b0f176678738c6fb3f753a6d84f6011df14f165ef6652cce559e9a2b024e5ae320a9777209e94a52aca9c5bce128e3116e6d4045535d3333f974360beb820ef7ee3c8057ebcb1ec5d79d93f0cbadcb147591aea8b0b4d5f0a09ff3939b77bd5acbdac7682226653fdf5bf62a122d6865a96985df142a3e7f0939b19caab8aeb3f16de2d0e27c17f6facad9be67d207066238be66b5659869ada9fc6292b386d80cb65d1b893f56bf50e7544488c4aa91ce8212590d52872dceb097064a34a3c9675afe8b72d6cc1b6db11acb5e171db88aae2b5affc1c3a3f51f68833ccc3405cbdcb75c56abe34e846a9d7cb6fc7d5c44d2d9f865dff6f693a2dcacf080bf1eb62cb1f94cd8db723c3641795144546014e418997402c39ad3a483edc1b35f2fdff80477f82470e4c198a887f229309369175048fbf02930ae3a7fba9a93c3de26c6b7542d26c4969f2a22db2eb2c3313cfdbc832a396bff2552306078faf5e95b1f694fec9c1403d52981ac2b34d0303e5597bd24784760987111ee2b6bca1d4ef67fcc8bdc7bc01dc610615ab29a9ac99517b619cf0176c7f90b82fc649647b10cbf6e607db280ce25079b19429551307c71672780d34baa39a13123a92bcd10239b0971e01c378d505abaf1982ef63b954228b84befc947e9dd11cf2c517cd77f6f33ccb1ece8b919740b0f5d246fb32e0ff4c9c34b6e973838abc593305ceecc6bdf11de0c76840c9609cb9264b947abf4b46f7dbd16662ff04355b5bf990db1c6f4d81c29c1430aa294af3f322a3fb011b3a8d9a11e372305cf5af7141d68b6863865cc8fed0d81e2f62123bc8d0ab8c88896b27bdd5612ba6b6063d94b8ae791c2124c4601251396fecf77633176d6aee5681722bb87a9ac1540a0ec13051e191bded6762cb20619599b2a1aebc715d908a7af7c67bfb5aff3e00730a5625cc912675f933d7970a82e41de037191922dc5dbdae4e8ed9473e0cedca85685804d03a41230ff6b97d315d5f3ddb193aaa70827651d73e09f9d8611353a25c2782fbfd39c206d133824bfe141a42cbba171feed4b41774e1a23c02705d0fff14f369355584a28438af3c5f8c2a1fead97a4464160449456e8f4b4e77e0e8dc1090d914f24bae961f94f7584577903d2cf7dd5835a74e16047c7e1c7f355924eafb265fa3ade00e9909d86f51c08606c81684105d79471e604253f36aa289690515ce8fb7d0c9c6d221cedd9fe78c63115e65f5265e71385fdf27b9dce7fc3dd704cffff55949232d035163bcfa31600f5b71704df4defb9f7f76862709ee8cc8195013eee536856329cf17dc421c36e7582d5d36540647dbe7779cd64f0c91bbcdc81f2b88ea14ccd94795926651bdeee62d88052710002a0d7440f982756832581e571755642c567164b455ca84ca125b5a143a411a7572aa5ba12ec58d35930bec49420b1c09300e7f6ace48f42bc39844744d38a334e8e614fd07f4a34f431dfcc654e0b7b8b74880cf44ebd90c1b7b50138d595d2d344f4e4a857f7c07a1fa5641a7fe1f293be21957c6e6cab3479c93a47f12aa12a960002774cb029ecb6472000000",
  "txid": "5892e28c5252e91db9b14a597fd2fdf84a1f748f6b016b44a858dcc98df9a3a0",
  "hash": "3cddaa5229c251f1f7772ad71b9ec5dad5d98c0a897ddb6f68c657441f41cd84",
  "size": 5085,
  "vsize": 2278,
  "version": 1,
  "locktime": 114,
  "vin": [
    {
      "txid": "91a48b027921c83dd2d43f9b10464eddd6ff012de66c0dcd1cc9865ba9762c8e",
      "vout": 0,
      "scriptSig": {
        "asm": "",
        "hex": ""
      },
      "txinwitness": [
        "c7a7f2ac0f0fb73924fa73a32adb2cd7e2a47092b78044004ed39f8c4a5da6da46641d529ceef2b5d98255ca3683c9ed9536ab8a36abad3102a2e3d51a14bd708126c651d634ac2c1273db85b2ca0f3b0dd89c0ae1ad91822d6ad208384a93920d472f6391104c50847dc948fb23eb4f984defff6d557b0fa68612d09a0146d5623bf1bd94d6389ebe231d5ec7dbe476a4b2f2f602abf3c748ed37c017741e3aae5bae06cc265942d89341109589a5e02094c4ed665d72b4421ea17341c1267e3ed9dc78f1b8b1ed538d0d0890845a00e19e541655afc85f1636557a563ff26af90d12e5e9d0dac5c49b69e60ada1a1fe84b16abec60c65df95516b64f89310df23de16ac29ec554938ea73d7b0970e69c604555b8856a9519527a619b9359263126e3db57139e02348716778e7f5d46e951fe395fefc9842f63d662460a6d45843fd66210f6570cc2288715487f9a4d9903bf4e20d4111a0d3fe02edfd6edd1f996aef8eba99319b958846b799b2777d5af993966d5e3f4b00e56f0309ab68b74110fa3137cc75b19024a75bde368b4884ac52f3c3e6b9b34fd5a07f38ea0379a26cfb94294e4702ea3e915a5a95f33514a597747d3509081e961ad1f2ca3d8cbf7180bd902f633479bb1ff86ba2c294c770f460111e50951a2a891f90e5ae6cab6513244aab2dfa76c532d939dba544f11314dc0e5547dbd819c993d0a2cf7fa4450323b58ba7ff2b3565be0ffa529ecb28e4735c519be29bb89d4165a18b23ae6970403c91989bfca1396a6ca6fd41739f0720b64c1f1b3966242b8b40433e64fae16ae39078fa80d415732fc779e3c39f338849d9060acb0543052d7c1101dcb939de1b9df7eb527cf2f8f60a75ceab91f1f28bec419ff024d43b7f0d7c7c72526aae1538742d5b1c790ea5059909cbcad5645b4a188db35b24f907c7f9a17022dd71786e471a1af7933d7b44c208489c9a6b6b6930f7c2d50620a9935be040a615ecdb70522cfe74b6c5f9802a8eb20979cb3b0093dc4f361759ecf647eb9ae3fed567a170be0d0f112d6f9c632585a3e3db7c369e9c7a1a5f3a3b898e853f6faf9f70aa454d1d6c746f70de1090475c2be3e6cc44dab005f62aa197a16e2e61f6130ee0d93784dbeea09d758073eb08b388c80e4e09affc01e35f4637a798bde97d2a67790e371cdfb0ef84cb4d11d63ebe4694c6a6d2f5312e99f97d04d10d65ebd4f2458ad20638ebe97ac2644d1784d9e270f330919f923d023816c10e6b5a3e64c8cfe09dc5b48b730ead4300115147dc4c5bde74144165c755f4c16a4407856c62dd30524643c27e5753bd6687d8fb04aaf20c659b708fc14c6252257043d92b7485ccb58aaa57203e3397f222a37735771888bf62076212e7b57d89194985c9bf9d410e1c98f7916eb47932f8b97ab805089c89be2ab4b8bd7f5c9733037dfa87714e7106cea62147fc3cb54eb4be5ef13e75582d04addd5095d599c0727c75fdd4ca8e9876ac65a0b6ddf4cac6fa43701c9a7a824adf59f5564950a9dff7d6ef2b86423d6f28da930b9fc899048a487db8bd8f5c4178ae1186ede0ddab2a8a8ff2734f98b21c764eb9b1fe15035086f356fdccb7e60890f9801ecc67ff7bdab8ebdcc0d1f6b909f80351acae9df15a808ba25a5d0f629267adc2978049c28a8d992f4ad274fb54393e1bc77def8cfe8e488374cb8622372a0eae33a607e3ca11f90750062ff0bcdd42302aa20f5d85421df9450d0be01c59a5b2f21ea711607e96b15a6237b4f7b0ca828fb98fc162b155cc9151571ad2c02205fd7aa502f8ceaf758bd36fb9919a860b0dff41f350eb5c66b15670aea32422d3527430dd0a6ce0a60c6c683b05d5fb35943595d9ce799b3a7ba277b7728c2ceb341ec9c93ed66924055a832ae34eed61d84d5b35a9bc8ff365463dc99e6555f3384105e0d91ad865abe21f5a85ef758eba686560d8c678e8e2a65ec61eab46be893993d681c8479997d6c1b8af5ad5215d2853818ac7849c945fa5d34bfafd3f403a132c0309edb947e56056d65e36df6aa01055b61dd819c699bc1e69619c47ae16cef7a864ee4038b825421e064fc4b218116674e8e8e5cef561f67dc671babf278f59fad49d7b48e7e4703f977bae30c58cce23bd512a99bda2690b23084c2002c72bc1ad89463da2b7caa70b2f38a4dee0a0153b6228cb9d979553e5fccc57615418794a73600dab9ef802491e91a45e76c541e5ce74cf90ef0d7ac5750b0146e3489a32d8fa92567387c8e6e9f72580397a9963964b67d351840ff2b56d90add5f68382e57b96435510a08bced4504062ddfb66f689f6ee0d2d6fdd857da6c9e1b56bcf62ab785bb6052445b08cb699527cbd04c9e9d5dae258026b44f08b34c9e91e654e4c5f08edc4ce77a53686ae2c16c02911b5b8ecc6dae9a3716d1826b7681904764b1e31195394c10ca3f147f27ecf3c5b1f39bbcaeade5f61f5864cecdfcdb9ba1cf6a13e176480891ca1e3bcf15bfeae8e8a187fe73e9f34c48f1e60e0758797e073267ebf9e13a65fa2eb46338c5c6a5ef8eeaf727828b7a1522c6d7908de867e9682a8ae4f9e4288e3ba9fd1dea481806e8e11e3b9e00db2e9769d1fb715b992a762e743d0069dbd376748bdba399c22f5a79f8a20549909cc46dadcd7a232aa30b6a9f307f5ba0937037236eca6cf7da08372fe8ec0056c3ec73388145e614da367f6d9b273a01b8fac6fb5bff03ebe37708729d4a406a2f8bd12ecee71bf860510b196f1b26e5ab642b6884b4e7114f9cc35399523f3f0cc5b9edb2e94d14281b71a9adb9aa02964d067f7b601c6524542e6a6b8ea5339271acf2795a14332cf5b67e7cc4b463f0fcd80b85afd331d9ef39fbc7ed100633c45f171d9673e77890ad389decdd09dba52e9753c4d9855125d258f7e6399fa32f5340d72152224e2fec90af82fd9d5a9c8368ca57717f83b53d37a6d6dffc37a6ff250676c20e469cac309c6a250dfad2be94e58a76a7ed84a1dc3af1e5e980e7bb6c330af0b90d8a72f24852f2e244aafca7790116ec5abd20f434fad07698f1cf83aa84fd84f25a7e886e6dab7d20b3c7ee946e115771531b7baab9c95c02f886f1902b04be541506e8127e45d2cf5965b8fdb5ab8bbff47f8e2c4d1f69e28cb29a9afb638cb1b7f814d03a8544ad90a35b9bfa7d25934c2dd93dc73ab8727bc1556811d4f336f079ef0b85e0b7c01f227bef1a3f53666df2d2ae6a0407c9f0392a40d0b28f2ebf8f4c09b10a18d74e8a58ca51684a2be935b69593d085030f12154c6a8285888b9ea0a9afcde118212d57587f8394a1b9bdd6d7dcedf0fb09314967717486a3bad6e31d38485e7375919babbcc4c8dde2e7ec000000000000000000000000000000000000000010212c3c01",
        "00334dd1635c5164202069663d3ffe4aed8594cda0afdeeb33214be4d7cc13b680289a6c1cd146da621f1e0b4785df50afd21ab3f32af804d6f262fcd5f4c3a4e7999a6853bcdda038e693effe18af2a9bf4403c2943df1c7ebe3341ada4341fdc79fe44b8047656b4921428ddb3d42fdfca507dd55f6e281b23f57457e5d839d3a109d6acf73b5ac653b2c4d7fad64dec73b2c4a4be52d0a74800b67cc227f3c62f8f83632681b9a35663fe8f114220aca6d0ac7dc6cf9a3be927976f798b0f176678738c6fb3f753a6d84f6011df14f165ef6652cce559e9a2b024e5ae320a9777209e94a52aca9c5bce128e3116e6d4045535d3333f974360beb820ef7ee3c8057ebcb1ec5d79d93f0cbadcb147591aea8b0b4d5f0a09ff3939b77bd5acbdac7682226653fdf5bf62a122d6865a96985df142a3e7f0939b19caab8aeb3f16de2d0e27c17f6facad9be67d207066238be66b5659869ada9fc6292b386d80cb65d1b893f56bf50e7544488c4aa91ce8212590d52872dceb097064a34a3c9675afe8b72d6cc1b6db11acb5e171db88aae2b5affc1c3a3f51f68833ccc3405cbdcb75c56abe34e846a9d7cb6fc7d5c44d2d9f865dff6f693a2dcacf080bf1eb62cb1f94cd8db723c3641795144546014e418997402c39ad3a483edc1b35f2fdff80477f82470e4c198a887f229309369175048fbf02930ae3a7fba9a93c3de26c6b7542d26c4969f2a22db2eb2c3313cfdbc832a396bff2552306078faf5e95b1f694fec9c1403d52981ac2b34d0303e5597bd24784760987111ee2b6bca1d4ef67fcc8bdc7bc01dc610615ab29a9ac99517b619cf0176c7f90b82fc649647b10cbf6e607db280ce25079b19429551307c71672780d34baa39a13123a92bcd10239b0971e01c378d505abaf1982ef63b954228b84befc947e9dd11cf2c517cd77f6f33ccb1ece8b919740b0f5d246fb32e0ff4c9c34b6e973838abc593305ceecc6bdf11de0c76840c9609cb9264b947abf4b46f7dbd16662ff04355b5bf990db1c6f4d81c29c1430aa294af3f322a3fb011b3a8d9a11e372305cf5af7141d68b6863865cc8fed0d81e2f62123bc8d0ab8c88896b27bdd5612ba6b6063d94b8ae791c2124c4601251396fecf77633176d6aee5681722bb87a9ac1540a0ec13051e191bded6762cb20619599b2a1aebc715d908a7af7c67bfb5aff3e00730a5625cc912675f933d7970a82e41de037191922dc5dbdae4e8ed9473e0cedca85685804d03a41230ff6b97d315d5f3ddb193aaa70827651d73e09f9d8611353a25c2782fbfd39c206d133824bfe141a42cbba171feed4b41774e1a23c02705d0fff14f369355584a28438af3c5f8c2a1fead97a4464160449456e8f4b4e77e0e8dc1090d914f24bae961f94f7584577903d2cf7dd5835a74e16047c7e1c7f355924eafb265fa3ade00e9909d86f51c08606c81684105d79471e604253f36aa289690515ce8fb7d0c9c6d221cedd9fe78c63115e65f5265e71385fdf27b9dce7fc3dd704cffff55949232d035163bcfa31600f5b71704df4defb9f7f76862709ee8cc8195013eee536856329cf17dc421c36e7582d5d36540647dbe7779cd64f0c91bbcdc81f2b88ea14ccd94795926651bdeee62d88052710002a0d7440f982756832581e571755642c567164b455ca84ca125b5a143a411a7572aa5ba12ec58d35930bec49420b1c09300e7f6ace48f42bc39844744d38a334e8e614fd07f4a34f431dfcc654e0b7b8b74880cf44ebd90c1b7b50138d595d2d344f4e4a857f7c07a1fa5641a7fe1f293be21957c6e6cab3479c93a47f12aa12a960002774cb029ecb64"
      ],
      "sequence": 4294967294
    }
  ],
  "vout": [
    {
      "value": 1.0,
      "n": 0,
      "scriptPubKey": {
        "asm": "OP_RETURN c54c3240e527f77d897f86b732f0f37f65989d9a4edf8a2df00e340085619809 ede12dab5de080a0d295e127e5f5e091faf5683234c5e04cff65c58589d9becbcdc10d8b7dc0a080f2b5c107c5d5c0b1dad5481214e5c06cdf45e5a5a9f99eebada16deb1da0c0e092d5a167a5b5a0d1bab528727485a00cbf2585c5c999fe8b8d814dcb3d80e0c0b2f58147859580f19a95085254a5802c9f05a5e5e9b9deab6d61ad2bdd600020521561a7657560117a75e8b2b44560cc7fe5450509593e4b4d418d0bfd40200072354187455540315a55c892946540ec5fc5652529791e6b2d21ed6b9d204060125521e7253520513a35a8f2f405208c3fa5054549197e0b0d01cd4bbd006040327501c7051500711a1588d2d42500ac1f85256569395e2bede12dab5de080a0d295e127e5f5e091faf5683234c5e04cff65c58589d9becbcdc10d8b7dc0a080f2b5c107c5d5c0b1dad5481214e5c06cdf45e5a5a9f99eebada16deb1da0c0e092d5a167a5b5a0d1bab528727485a00cbf2585c5c999fe8b8d814dcb3d80e0c0b2f58147859580f19a95085254a5802c9f05a5e5e9b9deab6d61ad2bdd600020521561a7657560117a75e8b2b44560cc7fe5450509593e4b4d418d0bfd40200072354187455540315a55c892946540ec5fc5652529791e6b2d21ed6b9d204060125521e7253520513a35a8f2f405208c3fa5054549197e0b0d01cd4bbd006040327501c7051500711a1588d2d42500ac1f85256569395e2bede12dab5de080a0d295e127e5f5e091faf5683234c5e04cff65c58589d9becbcdc10d8b7dc0a080f2b5c107c5d5c0b1dad5481214e5c06cdf45e5a5a9f99eebada16deb1da0c0e092d5a167a5b5a0d1bab528727485a00cbf2585c5c999fe8b8d814dcb3d80e0c0b2f58147859580f19a95085254a5802c9f05a5e5e9b9deab6d61ad2bdd600020521561a7657560117a75e8b2b44560cc7fe5450509593e4b4d418d0bfd40200072354187455540315a55c892946540ec5fc5652529791e6b2d21ed6b9d204060125521e7253520513a35a8f2f405208c3fa5054549197e0b0d01cd4bbd006040327501c7051500711a1588d2d42500ac1f85256569395e2bede12dab5de080a0d295e127e5f5e091faf5683234c5e04cff65c58589d9becbcdc10d8b7dc0a080f2b5c107c5d5c0b1dad5481214e5c06cdf45e5a5a9f99eebada16deb1da0c0e092d5a167a5b5a0d1bab528727485a00cbf2585c5c999fe8b8d814dcb3d80e0c0b2f58147859580f19a95085254a5802c9f05a5e5e9b9deab6d61ad2bdd600020521561a7657560117a75e8b2b44560cc7fe5450509593e4b4d418d0bfd40200072354187455540315a55c892946540ec5fc5652529791e6b2d21ed6b9d204060125521e7253520513a35a8f2f405208c3fa5054549197e0b0d01cd4bbd006040327501c7051500711a1588d2d42500ac1f85256569395e2bede12dab5de080a0d295e127e5f5e091faf5683234c5e04cff65c58589d9becbcdc10d8b7dc0a080f2b5c107c5d5c0b1dad5481214e5c06cdf45e5a5a9f99eebada16deb1da0c0e092d5a167a5b5a0d1bab528727485a00cbf2585c5c999fe8b8d814dcb3d80e0c0b2f58147859580f19a95085254a5802c9f05a5e5e9b9deab6d61ad2bdd600020521561a765756011e21efd90d81587d95a58826e9a2834deea26a2a5adfc31fb80ee2e3fad47e0ea",
        "hex": "6a20c54c3240e527f77d897f86b732f0f37f65989d9a4edf8a2df00e3400856198094db004ede12dab5de080a0d295e127e5f5e091faf5683234c5e04cff65c58589d9becbcdc10d8b7dc0a080f2b5c107c5d5c0b1dad5481214e5c06cdf45e5a5a9f99eebada16deb1da0c0e092d5a167a5b5a0d1bab528727485a00cbf2585c5c999fe8b8d814dcb3d80e0c0b2f58147859580f19a95085254a5802c9f05a5e5e9b9deab6d61ad2bdd600020521561a7657560117a75e8b2b44560cc7fe5450509593e4b4d418d0bfd40200072354187455540315a55c892946540ec5fc5652529791e6b2d21ed6b9d204060125521e7253520513a35a8f2f405208c3fa5054549197e0b0d01cd4bbd006040327501c7051500711a1588d2d42500ac1f85256569395e2bede12dab5de080a0d295e127e5f5e091faf5683234c5e04cff65c58589d9becbcdc10d8b7dc0a080f2b5c107c5d5c0b1dad5481214e5c06cdf45e5a5a9f99eebada16deb1da0c0e092d5a167a5b5a0d1bab528727485a00cbf2585c5c999fe8b8d814dcb3d80e0c0b2f58147859580f19a95085254a5802c9f05a5e5e9b9deab6d61ad2bdd600020521561a7657560117a75e8b2b44560cc7fe5450509593e4b4d418d0bfd40200072354187455540315a55c892946540ec5fc5652529791e6b2d21ed6b9d204060125521e7253520513a35a8f2f405208c3fa5054549197e0b0d01cd4bbd006040327501c7051500711a1588d2d42500ac1f85256569395e2bede12dab5de080a0d295e127e5f5e091faf5683234c5e04cff65c58589d9becbcdc10d8b7dc0a080f2b5c107c5d5c0b1dad5481214e5c06cdf45e5a5a9f99eebada16deb1da0c0e092d5a167a5b5a0d1bab528727485a00cbf2585c5c999fe8b8d814dcb3d80e0c0b2f58147859580f19a95085254a5802c9f05a5e5e9b9deab6d61ad2bdd600020521561a7657560117a75e8b2b44560cc7fe5450509593e4b4d418d0bfd40200072354187455540315a55c892946540ec5fc5652529791e6b2d21ed6b9d204060125521e7253520513a35a8f2f405208c3fa5054549197e0b0d01cd4bbd006040327501c7051500711a1588d2d42500ac1f85256569395e2bede12dab5de080a0d295e127e5f5e091faf5683234c5e04cff65c58589d9becbcdc10d8b7dc0a080f2b5c107c5d5c0b1dad5481214e5c06cdf45e5a5a9f99eebada16deb1da0c0e092d5a167a5b5a0d1bab528727485a00cbf2585c5c999fe8b8d814dcb3d80e0c0b2f58147859580f19a95085254a5802c9f05a5e5e9b9deab6d61ad2bdd600020521561a7657560117a75e8b2b44560cc7fe5450509593e4b4d418d0bfd40200072354187455540315a55c892946540ec5fc5652529791e6b2d21ed6b9d204060125521e7253520513a35a8f2f405208c3fa5054549197e0b0d01cd4bbd006040327501c7051500711a1588d2d42500ac1f85256569395e2bede12dab5de080a0d295e127e5f5e091faf5683234c5e04cff65c58589d9becbcdc10d8b7dc0a080f2b5c107c5d5c0b1dad5481214e5c06cdf45e5a5a9f99eebada16deb1da0c0e092d5a167a5b5a0d1bab528727485a00cbf2585c5c999fe8b8d814dcb3d80e0c0b2f58147859580f19a95085254a5802c9f05a5e5e9b9deab6d61ad2bdd600020521561a765756011e21efd90d81587d95a58826e9a2834deea26a2a5adfc31fb80ee2e3fad47e0ea",
        "type": "nulldata"
      }
    },
    {
      "value": 499983.7296,
      "n": 1,
      "scriptPubKey": {
        "asm": "1 5768af1369d27c857e6e9ff37a79d6961161b6dc33493d133418c5042d1301e9",
        "hex": "51205768af1369d27c857e6e9ff37a79d6961161b6dc33493d133418c5042d1301e9",
        "reqSigs": 1,
        "type": "witness_v1_scripthash",
        "addresses": [
          "3QJmnh"
        ]
      }
    }
  ],
  "blockhash": "a404c97fd79b0f74ac8935f18e4afcd6ffd73e4b441b9f6bd67a7215b8c8499e",
  "confirmations": 1,
  "time": 1764178774,
  "blocktime": 1764178774
}