{
  "hex": "010000000001010aad331d075e03bdde49df584d9a8ff499d25dd898a5387432262239485bc7ee0100000000feffffff0200e1f50500000000fdd5046a20309a569c06ef34969c3db3a519f0adb352d7cba0f55440adbec722873ebd18b64db0044ac376fe84a4e495dbee49e1b3dfe33d91f03b2c97abd41ce9c42c68fdca3d806ae356dea484c4b5fbce69c193ffc31db1d01b0cb78bf43cc9e40c48ddea1da00a8336bec4e4a4d59bae09a1f39fa37dd1b07b6cd7eb945ca9846c28bd8a7dc02aa3169ee4c484f5bb8e2981d3bf835df1905b4cf7cbb47c89a44c089daa5de0ca43f67e042464155b6ec961335f63bd1170bbac172b549c6944ace87d4abd00ea63d65e240444357b4ee941137f439d31509b8c370b74bc49648cc85d6a9d208a03b63e446424551b2e8921731f23fd5130fbec576b14dc2904eca83d0afd40aa23961e644404753b0ea901533f03dd7110dbcc774b34fc0924cc881d2add604ac376fe84a4e495dbee49e1b3dfe33d91f03b2c97abd41ce9c42c68fdca3d806ae356dea484c4b5fbce69c193ffc31db1d01b0cb78bf43cc9e40c48ddea1da00a8336bec4e4a4d59bae09a1f39fa37dd1b07b6cd7eb945ca9846c28bd8a7dc02aa3169ee4c484f5bb8e2981d3bf835df1905b4cf7cbb47c89a44c089daa5de0ca43f67e042464155b6ec961335f63bd1170bbac172b549c6944ace87d4abd00ea63d65e240444357b4ee941137f439d31509b8c370b74bc49648cc85d6a9d208a03b63e446424551b2e8921731f23fd5130fbec576b14dc2904eca83d0afd40aa23961e644404753b0ea901533f03dd7110dbcc774b34fc0924cc881d2add604ac376fe84a4e495dbee49e1b3dfe33d91f03b2c97abd41ce9c42c68fdca3d806ae356dea484c4b5fbce69c193ffc31db1d01b0cb78bf43cc9e40c48ddea1da00a8336bec4e4a4d59bae09a1f39fa37dd1b07b6cd7eb945ca9846c28bd8a7dc02aa3169ee4c484f5bb8e2981d3bf835df1905b4cf7cbb47c89a44c089daa5de0ca43f67e042464155b6ec961335f63bd1170bbac172b549c6944ace87d4abd00ea63d65e240444357b4ee941137f439d31509b8c370b74bc49648cc85d6a9d208a03b63e446424551b2e8921731f23fd5130fbec576b14dc2904eca83d0afd40aa23961e644404753b0ea901533f03dd7110dbcc774b34fc0924cc881d2add604ac376fe84a4e495dbee49e1b3dfe33d91f03b2c97abd41ce9c42c68fdca3d806ae356dea484c4b5fbce69c193ffc31db1d01b0cb78bf43cc9e40c48ddea1da00a8336bec4e4a4d59bae09a1f39fa37dd1b07b6cd7eb945ca9846c28bd8a7dc02aa3169ee4c484f5bb8e2981d3bf835df1905b4cf7cbb47c89a44c089daa5de0ca43f67e042464155b6ec961335f63bd1170bbac172b549c6944ace87d4abd00ea63d65e240444357b4ee941137f439d31509b8c370b74bc49648cc85d6a9d208a03b63e446424551b2e8921731f23fd5130fbec576b14dc2904eca83d0afd40aa23961e644404753b0ea901533f03dd7110dbcc774b34fc0924cc881d2add604ac376fe84a4e495dbee49e1b3dfe33d91f03b2c97abd41ce9c42c68fdca3d806ae356dea484c4b5fbce69c193ffc31db1d01b0cb78bf43cc9e40c48ddea1da00a8336bec4e4a4d59bae09a1f39fa37dd1b07b6cd7eb945ca9846c28bd8a7dc02aa3169ee4c484f5bb8e2981d3bf835df1905b4cf7cbb47c89a44c089daa5de0ca43f67e042464155b6ec961335f63bd02928d6d3433d52dbd248928d5156da9183341c3c7c808872ae8f425c67d8fd91024da9b782d0000225120d815be5d2a4f998c661e384405d4e725381dcd9cd55d18e91e87ecc64333e30702fd75098af71ac74f2f08dd29f3009e6657f2af4e8fb02bc92fe978c0e8279e08932ea74c6fd2389024706f0b58963679a758490673994a09cecc053c8ff3d6f580b1d785ede5301859cdb0b8793b617ed2b28797e96a8545b034d61b2943f6734493db23805ffae6114c1bbd583671026b287fe0809725d90abbba39acaa6ed47e6da9f0f5ce9c4b08ad612c17968d8d5ae88cec4d56919861057fe6538209c987364aa256f6bb5ae9d0cc63665c7f1e8120002628aa90eb45852012e38d50faf6c8be0f703f47049713452f2127565e9085ed865609f8fd20d406fcf9078f5bdeec8bab618a91b02fb2669658d26a3b26c8ff82ce4026d9ae47af136b39fc3c2f37207bf4a3ea1f73af76fbfae9b082e326e422efcb58571fe3de4927e89da5ac45bc2954af50c96bd3fb1bebccbc12e85893783d447e81174dd0916d2208e4797ba28756a303bc102d8e37dba7ddfaf919b461929c66e160b3f0fa46d266fbf0a55e470e9578a689f3e7e0cd323c603911db63504a03cdbb9f83eb7da35782045dc35de25a8bfa2be8a4ca28b989726a626ed2c5458f054d4e033f243250f978d17125a034ec5e155c2ab1cded303802527c1f2aebb3295c751dd10e0f16fb316a11d8092a30f9635ba7e841e2655e8400bc07048a15977240e90f3d34d93fd19f597583b01bd3758955bf2f1d725145df34c0e3f1ce258b493b350c051528dd8d87ad91ffa3df3042b82ba074bbcc50224fd10248003d77b1c700ba3c0c92c2f4077d21ff258575aac30c92c8358b9b5f730b159f22877f23637fa1ad250fb4378b6c548c23abf4843d6eb21f0ff3cd92c6347950cb73b0bd1473ac761bef7250ad1fde05940270c3d75a87fd21f29ec683f5dae5cbbbb9eef9e8330e4314012256872a44e1a796bc13dbe14716d6a596af6c149ece30a9255a38583b780a21277d1b6d5d8827f168eef8319c4c1e67851424eb6adf318b41413083a0660835fce9d89742891ef5a99f993d5d817db17b670ce06bfdd744cc2cabef6b32909518b0cca5902bab9203c859447fe663fb0e4bfe7ece6f4f9c88c0db9030bbd193a84778a833e44ee81152d7c2efc9f957b24cc30f88314292f28f0390595d0cf82b215ced3bab77cd4b273ac1f7c9e24b0221982d5860a5dc8f4c32b17c3c886ea181ca7813237ce17184c1ff6d3584980c02a59033354a5734f3d04c2bdfe9e805a2c1593d63ec06cb4c8ea9febc180f63700113d6b79efb30ce9232015c5c50a1a8d05465895ebd8feb235e99ac16083ded23836aab9db1f98a12d3bcdd37d59de9233474455821aaaebdde65181ebfa974271fd5af8e6c32e61c8474381903c95a63b5136e6bf307cc0111252776d774a6628c928c6d6c1dbdc4c54474c17986ddb5515e1ca2fd6ec4b524e4ee8dd0dbc22f41a753cee8450957585c4521661d4162390ed4094e6feeddd01baec27dba2ec6f4cddfb7153ea009cb16fb22e96cd1d05945d6ee7d66bab570c71abfe511ba0de9d58ff7fa9cdfd0b2bb88619d27ab104b98e17055a161dec86f49984d1787c6c8da7c6e46c5fb1ddcfee17a062f21c62c7152bf0f44a11df66d0e4c2d413f112f880ab659c3db4536ab2fa24132118566992fecce12cf1ac2ac3cdb7b329bf18e60d13ce59c870eb0e2965ac99bf4249e6ff3e26f8d31925aae8dd36c6b6bfb544055c092118411daf5213abcf63a07fed8c30f3ff75f42e14fb7e5137786f0258d1281872097bc17a0babd6925211b39a24622bb6f607e2d6dc4cbf8b84166b439f105f668432688d4264d81481450fabcc8608b8f2ee7a1a028c366bc138dee9b42746577bf587032ed9a86adb3b2124c5344e35dccab93b72f07b5158cbf3883a0715875029a7edfad8702fb03a77da77fc4272220d40cfd166f2edf01e517bdc2543e07f0d429112762c123b840e7da7a746fc08cb360080b6dbee5f34a1fc6555147be40ebca2a7bd51e7cdd90baa41505c9f533d80070f55b14b0223add37e5426bbd29986c459f26f14b234da90dea2c3521b3012c55e0215a50da95fe9001184e5d4e875619e995b3c07fd4b89a4621224689cfde935563897d80e1b678753c49aca1c1c73924326ff4a3aa361a7688ce8061049ad559561aed0b30fe8eae86ab0013027f428bb0e18a63613faeee9b5c1f96d6c59e3b67d28a5890f2086acf097c7664f400231995585652c4096b94acaffa7810953ebeca6e6f0eb3a4d340e65b9f98745384cf8fa3c01ea0389710c7b2dfd3e9eb4933b64d7be8aac763c629eb21329f1671f40da6bd28dd1a5f4eba8369b139f57e2fc56423ad753d6cb49924f959bcd89571c6a785a5f16e86bf301a4ac8a77c32338d0207f8e4aa8735efba412ae1a0e122926850b624a4123132648a4c191c73eef1c8224f6ca4fb91d2b12676ac32d72514a1d2f993601a581c027a33793958c1211adf0b6450f627ac2b35c60f8d6608bb5a2a33d68cdc3a936027b20021dea1e0349357326bd4d2a65a04e59fe38e6fe9d21412ba60e0a1b15c609daafb31270094fffa1f05debc28cb97cf80a3d1c6f130611d738e163c47760b3475d528c00c62b23c4785c9fa57a7a872bf395216e983e05d02060dc0539014b8fc7a3dc333e89643e28d673d5e161cae7d68f229c15774bb551948d0145f9d394f5de7e256c0a5247a13751092a30c267f06a517fd485d0ae8cce6e1d877f935f9fa46dbdee19fb44ffc6bb91f6df40eed75ff695cc8d1ab4478fd398cd4326742f132e67f26af658d7cf1763df2ba0cbd9f13dd61e92b2d14306be8af5b5ed0a83435309dcb75437dbe9c61b15770fa1fb625b65658c9ea99824565b3ce690b86fada2e0ef056d45ee03f21207f93e5fb03ed9ba9603f7967241afe361d6fd64bacb8f55da4213b0849945b93a8864fd3d16519e0658ecf4e19a4745377c8b0c0bd532bc54381933b0710ba7edd95ae5fb7ceea35cc724c03e30f0e1f90f28895e14f728c51222f07ae249735bd2d18deed0111ffd0c28a6446e8d7041d300facd35a448c875eb7db18f2619e9ae499149957df49035502b009946cd15b96c187200850fcad36a33d1fde5ad4c0c06546ba95b41a488ed0f1e5980d65877a5460ae818a53be7f9e3495686b7023139364c802e10352c7c2c94784617202986695a19e5bfcea729fd82c0929e9d2de30f6ee8c309dd5b714d6454d27e13bfd6241bb337cc94e956d5cc879550099b5cbbcad10305d70512064f1bdc5a73700b725614aeb3024d8208c7eb67618e8692f20ec17617d5eeb022c353b3d4f575b70758899c7d2ecf6041b1d6f99a5a9bbbcbec3d5e3e5f00c15181f3e49506f767c858c93a7bbc0e1ea052d37494f66717c939ea7b1b7d5d7e2000000000000000000000000000000101f314101fd21050046ed32c8e079bde1507464ef5c8674f9b070903f4558ea1700f5410f5073f77012f92ddde108744c63a61511dfdd9f319849f13254d9fed33d8025815e8addfdfd07a01365c86a237f17a77d954f203b04fd0f284367c555a2aaecaab95f5484e496e14cd437c24090d85630b8df24253ba3c6a24d2c4201be5321c3f5b86579a7332e9e415c11313599d68ac42ce8fc579fd8bc6a4e81bf4ce728845e3146856140d7183ebe0717033deab530b31edf8fc4dd27c3c2025d8e409af0075e2686c4fad0980ebdf2a20e8a238f8d730c3c1edffa3b4f8f86aa52466960458d25a92f8c88739ccad91d0bb57420647b01c347ca1c864cb714ba4190ca8837c85889a34ef36c3b0cc7694cf319a5d4c1a0fdc8f428cbc65138de1d0375f4bd5f8e6234d295874844003c9accf8fca80a2d462ee57b029dac6cf627dbb6c7e433392581e028e52ae2f8737f9418ec472904eb82576da696018351a46431cf572dbd2f285fb464357e0d3d6e81764cef6961a450d2ac217860673ef26ddaa7a7475b270918b28262d85e8e15b17c5a1640f58f07dde00ccbe050f7cb803416b72ee4e38bdc1c37a9a0e411c848e92102e81917a2d87c3ec531703cdef483d027834dfa7b2323efff63df8b79f0e89666b3e0f5ff308441592417e4dd1d77e81402084e126801f8642a04d8f074cf1f9846b64d5a0f7cd844d9df0d2997342e30bc64dc0012637ddcae34f5a4d1db8c49cfeb695d52ab1e794e3a0f30b0996707403c71548a8ab098fbfec0b0eb6c7967b0b3f03f2dd89dbe346770a3362353615cb418191d67401666a25ea9dfd775e108548956aa5f6eb986a5d0c11ee9a07590f313a70c37e2a8e20faa49462ad1dc1888220ea3c80e46094f425fd27f8345f9a550a2c2ba3c4739bc25353946c1c60275f798a735453a50aa63fa3d87bde33d662afcb2f44451f59f9050bdd8c0b028ac989c6a9475be34d60f7783ea1e6769ac95319c2935cb90c369ae20d09bb9a9555f01f4556f5c9c5a1829238b00aa451495aa1156dd3eb8891ddc516e478496f8fdffd15e340dd5182a1f6c48adb3864a371dbdd0e926095f3679efbae6d5e25ffde53b5f8ab9350278abfb774b0995ddd1a5cbf4ef46e0ca09b92d23d1541a1c87d796c881d7c66c288e040a282c332dd39ae96a64e941f1e9a72c7c16de25b52ffba544efb8b74ce197259f1dfb7bbeffb276232f1bf2681b181211f77151901579af7a7059ac4bcb03f64b8b9e07ab5c424a27566b52255d82a10e7cc906197c5a0a8fdd4fc3f10a6fa8f0e2b408f0c90957222c6a73b5d12928653e43ffa9669dbf4fd2886afdb0eb08792e3df901c1f78c643a84b5d515d0f1439c42fa041301d75ce274a8912898cfd1d4e36d33147846dcc92625621d8b3193216f5271e5b9269eedd1c352d9c463e55f1ff9f5e29648e8acfb1521cd4726ee85f114369f756a042b364df876c58f611c6e45f078435be74615e54fb6924f3b8545f67bf6edda093ee11b80fe08ffd3171a39747b5f382a340774831ca4130a375f969cb1e4ec72957b8b8bade5c2891d4e83c467f57f9ce25cf82eb151ff849a80f2db075605918de9243f0733523a3dbcb5e9fd3ed5187f8657b7061782aaf49c67841eadddace1aeb553afe21c1282eeecf2d2dad1b6e19843539af44c49694d9327456d1bb7e53acca555ed95b25ae7761d9df9f317ce47d5a046b5992ea25381d964ae0a00768a8f51c478f74ef8d28280263fffada95da29198b8b4c67fab92a22a86ca82663ca3e1071ee66eeee5fb696e93acb4e90c973a6e296e77e3d3d98f1cc53fac14fbc932c4609a5af7b6025bd789000000",
  "txid": "502a81743061eb14ca6d95e5c8dfba04e1517e48ce7d32c429c399aa6cacbe60",
  "hash": "ebcf7a9dcbf0aa698b77f969fe43f5564e766ef1d3e61536752e77e8828c7b04",
  "size": 5085,
  "vsize": 2278,
  "version": 1,
  "locktime": 137,
  "vin": [
    {
      "txid": "eec75b48392226327438a598d85dd299f48f9a4d58df49debd035e071d33ad0a",
      "vout": 1,
      "scriptSig": {
        "asm": "",
        "hex": ""
      },
      "txinwitness": [
        "8af71ac74f2f08dd29f3009e6657f2af4e8fb02bc92fe978c0e8279e08932ea74c6fd2389024706f0b58963679a758490673994a09cecc053c8ff3d6f580b1d785ede5301859cdb0b8793b617ed2b28797e96a8545b034d61b2943f6734493db23805ffae6114c1bbd583671026b287fe0809725d90abbba39acaa6ed47e6da9f0f5ce9c4b08ad612c17968d8d5ae88cec4d56919861057fe6538209c987364aa256f6bb5ae9d0cc63665c7f1e8120002628aa90eb45852012e38d50faf6c8be0f703f47049713452f2127565e9085ed865609f8fd20d406fcf9078f5bdeec8bab618a91b02fb2669658d26a3b26c8ff82ce4026d9ae47af136b39fc3c2f37207bf4a3ea1f73af76fbfae9b082e326e422efcb58571fe3de4927e89da5ac45bc2954af50c96bd3fb1bebccbc12e85893783d447e81174dd0916d2208e4797ba28756a303bc102d8e37dba7ddfaf919b461929c66e160b3f0fa46d266fbf0a55e470e9578a689f3e7e0cd323c603911db63504a03cdbb9f83eb7da35782045dc35de25a8bfa2be8a4ca28b989726a626ed2c5458f054d4e033f243250f978d17125a034ec5e155c2ab1cded303802527c1f2aebb3295c751dd10e0f16fb316a11d8092a30f9635ba7e841e2655e8400bc07048a15977240e90f3d34d93fd19f597583b01bd3758955bf2f1d725145df34c0e3f1ce258b493b350c051528dd8d87ad91ffa3df3042b82ba074bbcc50224fd10248003d77b1c700ba3c0c92c2f4077d21ff258575aac30c92c8358b9b5f730b159f22877f23637fa1ad250fb4378b6c548c23abf4843d6eb21f0ff3cd92c6347950cb73b0bd1473ac761bef7250ad1fde05940270c3d75a87fd21f29ec683f5dae5cbbbb9eef9e8330e4314012256872a44e1a796bc13dbe14716d6a596af6c149ece30a9255a38583b780a21277d1b6d5d8827f168eef8319c4c1e67851424eb6adf318b41413083a0660835fce9d89742891ef5a99f993d5d817db17b670ce06bfdd744cc2cabef6b32909518b0cca5902bab9203c859447fe663fb0e4bfe7ece6f4f9c88c0db9030bbd193a84778a833e44ee81152d7c2efc9f957b24cc30f88314292f28f0390595d0cf82b215ced3bab77cd4b273ac1f7c9e24b0221982d5860a5dc8f4c32b17c3c886ea181ca7813237ce17184c1ff6d3584980c02a59033354a5734f3d04c2bdfe9e805a2c1593d63ec06cb4c8ea9febc180f63700113d6b79efb30ce9232015c5c50a1a8d05465895ebd8feb235e99ac16083ded23836aab9db1f98a12d3bcdd37d59de9233474455821aaaebdde65181ebfa974271fd5af8e6c32e61c8474381903c95a63b5136e6bf307cc0111252776d774a6628c928c6d6c1dbdc4c54474c17986ddb5515e1ca2fd6ec4b524e4ee8dd0dbc22f41a753cee8450957585c4521661d4162390ed4094e6feeddd01baec27dba2ec6f4cddfb7153ea009cb16fb22e96cd1d05945d6ee7d66bab570c71abfe511ba0de9d58ff7fa9cdfd0b2bb88619d27ab104b98e17055a161dec86f49984d1787c6c8da7c6e46c5fb1ddcfee17a062f21c62c7152bf0f44a11df66d0e4c2d413f112f880ab659c3db4536ab2fa24132118566992fecce12cf1ac2ac3cdb7b329bf18e60d13ce59c870eb0e2965ac99bf4249e6ff3e26f8d31925aae8dd36c6b6bfb544055c092118411daf5213abcf63a07fed8c30f3ff75f42e14fb7e5137786f0258d1281872097bc17a0babd6925211b39a24622bb6f607e2d6dc4cbf8b84166b439f105f668432688d4264d81481450fabcc8608b8f2ee7a1a028c366bc138dee9b42746577bf587032ed9a86adb3b2124c5344e35dccab93b72f07b5158cbf3883a0715875029a7edfad8702fb03a77da77fc4272220d40cfd166f2edf01e517bdc2543e07f0d429112762c123b840e7da7a746fc08cb360080b6dbee5f34a1fc6555147be40ebca2a7bd51e7cdd90baa41505c9f533d80070f55b14b0223add37e5426bbd29986c459f26f14b234da90dea2c3521b3012c55e0215a50da95fe9001184e5d4e875619e995b3c07fd4b89a4621224689cfde935563897d80e1b678753c49aca1c1c73924326ff4a3aa361a7688ce8061049ad559561aed0b30fe8eae86ab0013027f428bb0e18a63613faeee9b5c1f96d6c59e3b67d28a5890f2086acf097c7664f400231995585652c4096b94acaffa7810953ebeca6e6f0eb3a4d340e65b9f98745384cf8fa3c01ea0389710c7b2dfd3e9eb4933b64d7be8aac763c629eb21329f1671f40da6bd28dd1a5f4eba8369b139f57e2fc56423ad753d6cb49924f959bcd89571c6a785a5f16e86bf301a4ac8a77c32338d0207f8e4aa8735efba412ae1a0e122926850b624a4123132648a4c191c73eef1c8224f6ca4fb91d2b12676ac32d72514a1d2f993601a581c027a33793958c1211adf0b6450f627ac2b35c60f8d6608bb5a2a33d68cdc3a936027b20021dea1e0349357326bd4d2a65a04e59fe38e6fe9d21412ba60e0a1b15c609daafb31270094fffa1f05debc28cb97cf80a3d1c6f130611d738e163c47760b3475d528c00c62b23c4785c9fa57a7a872bf395216e983e05d02060dc0539014b8fc7a3dc333e89643e28d673d5e161cae7d68f229c15774bb551948d0145f9d394f5de7e256c0a5247a13751092a30c267f06a517fd485d0ae8cce6e1d877f935f9fa46dbdee19fb44ffc6bb91f6df40eed75ff695cc8d1ab4478fd398cd4326742f132e67f26af658d7cf1763df2ba0cbd9f13dd61e92b2d14306be8af5b5ed0a83435309dcb75437dbe9c61b15770fa1fb625b65658c9ea99824565b3ce690b86fada2e0ef056d45ee03f21207f93e5fb03ed9ba9603f7967241afe361d6fd64bacb8f55da4213b0849945b93a8864fd3d16519e0658ecf4e19a4745377c8b0c0bd532bc54381933b0710ba7edd95ae5fb7ceea35cc724c03e30f0e1f90f28895e14f728c51222f07ae249735bd2d18deed0111ffd0c28a6446e8d7041d300facd35a448c875eb7db18f2619e9ae499149957df49035502b009946cd15b96c187200850fcad36a33d1fde5ad4c0c06546ba95b41a488ed0f1e5980d65877a5460ae818a53be7f9e3495686b7023139364c802e10352c7c2c94784617202986695a19e5bfcea729fd82c0929e9d2de30f6ee8c309dd5b714d6454d27e13bfd6241bb337cc94e956d5cc879550099b5cbbcad10305d70512064f1bdc5a73700b725614aeb3024d8208c7eb67618e8692f20ec17617d5eeb022c353b3d4f575b70758899c7d2ecf6041b1d6f99a5a9bbbcbec3d5e3e5f00c15181f3e49506f767c858c93a7bbc0e1ea052d37494f66717c939ea7b1b7d5d7e2000000000000000000000000000000101f314101",
        "0046ed32c8e079bde1507464ef5c8674f9b070903f4558ea1700f5410f5073f77012f92ddde108744c63a61511dfdd9f319849f13254d9fed33d8025815e8addfdfd07a01365c86a237f17a77d954f203b04fd0f284367c555a2aaecaab95f5484e496e14cd437c24090d85630b8df24253ba3c6a24d2c4201be5321c3f5b86579a7332e9e415c11313599d68ac42ce8fc579fd8bc6a4e81bf4ce728845e3146856140d7183ebe0717033deab530b31edf8fc4dd27c3c2025d8e409af0075e2686c4fad0980ebdf2a20e8a238f8d730c3c1edffa3b4f8f86aa52466960458d25a92f8c88739ccad91d0bb57420647b01c347ca1c864cb714ba4190ca8837c85889a34ef36c3b0cc7694cf319a5d4c1a0fdc8f428cbc65138de1d0375f4bd5f8e6234d295874844003c9accf8fca80a2d462ee57b029dac6cf627dbb6c7e433392581e028e52ae2f8737f9418ec472904eb82576da696018351a46431cf572dbd2f285fb464357e0d3d6e81764cef6961a450d2ac217860673ef26ddaa7a7475b270918b28262d85e8e15b17c5a1640f58f07dde00ccbe050f7cb803416b72ee4e38bdc1c37a9a0e411c848e92102e81917a2d87c3ec531703cdef483d027834dfa7b2323efff63df8b79f0e89666b3e0f5ff308441592417e4dd1d77e81402084e126801f8642a04d8f074cf1f9846b64d5a0f7cd844d9df0d2997342e30bc64dc0012637ddcae34f5a4d1db8c49cfeb695d52ab1e794e3a0f30b0996707403c71548a8ab098fbfec0b0eb6c7967b0b3f03f2dd89dbe346770a3362353615cb418191d67401666a25ea9dfd775e108548956aa5f6eb986a5d0c11ee9a07590f313a70c37e2a8e20faa49462ad1dc1888220ea3c80e46094f425fd27f8345f9a550a2c2ba3c4739bc25353946c1c60275f798a735453a50aa63fa3d87bde33d662afcb2f44451f59f9050bdd8c0b028ac989c6a9475be34d60f7783ea1e6769ac95319c2935cb90c369ae20d09bb9a9555f01f4556f5c9c5a1829238b00aa451495aa1156dd3eb8891ddc516e478496f8fdffd15e340dd5182a1f6c48adb3864a371dbdd0e926095f3679efbae6d5e25ffde53b5f8ab9350278abfb774b0995ddd1a5cbf4ef46e0ca09b92d23d1541a1c87d796c881d7c66c288e040a282c332dd39ae96a64e941f1e9a72c7c16de25b52ffba544efb8b74ce197259f1dfb7bbeffb276232f1bf2681b181211f77151901579af7a7059ac4bcb03f64b8b9e07ab5c424a27566b52255d82a10e7cc906197c5a0a8fdd4fc3f10a6fa8f0e2b408f0c90957222c6a73b5d12928653e43ffa9669dbf4fd2886afdb0eb08792e3df901c1f78c643a84b5d515d0f1439c42fa041301d75ce274a8912898cfd1d4e36d33147846dcc92625621d8b3193216f5271e5b9269eedd1c352d9c463e55f1ff9f5e29648e8acfb1521cd4726ee85f114369f756a042b364df876c58f611c6e45f078435be74615e54fb6924f3b8545f67bf6edda093ee11b80fe08ffd3171a39747b5f382a340774831ca4130a375f969cb1e4ec72957b8b8bade5c2891d4e83c467f57f9ce25cf82eb151ff849a80f2db075605918de9243f0733523a3dbcb5e9fd3ed5187f8657b7061782aaf49c67841eadddace1aeb553afe21c1282eeecf2d2dad1b6e19843539af44c49694d9327456d1bb7e53acca555ed95b25ae7761d9df9f317ce47d5a046b5992ea25381d964ae0a00768a8f51c478f74ef8d28280263fffada95da29198b8b4c67fab92a22a86ca82663ca3e1071ee66eeee5fb696e93acb4e90c973a6e296e77e3d3d98f1cc53fac14fbc932c4609a5af7b6025bd7"
      ],
      "sequence": 4294967294
    }
  ],
  "vout": [
    {
      "value": 1.0,
      "n": 0,
      "scriptPubKey": {
        "asm": "OP_RETURN 309a569c06ef34969c3db3a519f0adb352d7cba0f55440adbec722873ebd18b6 4ac376fe84a4e495dbee49e1b3dfe33d91f03b2c97abd41ce9c42c68fdca3d806ae356dea484c4b5fbce69c193ffc31db1d01b0cb78bf43cc9e40c48ddea1da00a8336bec4e4a4d59bae09a1f39fa37dd1b07b6cd7eb945ca9846c28bd8a7dc02aa3169ee4c484f5bb8e2981d3bf835df1905b4cf7cbb47c89a44c089daa5de0ca43f67e042464155b6ec961335f63bd1170bbac172b549c6944ace87d4abd00ea63d65e240444357b4ee941137f439d31509b8c370b74bc49648cc85d6a9d208a03b63e446424551b2e8921731f23fd5130fbec576b14dc2904eca83d0afd40aa23961e644404753b0ea901533f03dd7110dbcc774b34fc0924cc881d2add604ac376fe84a4e495dbee49e1b3dfe33d91f03b2c97abd41ce9c42c68fdca3d806ae356dea484c4b5fbce69c193ffc31db1d01b0cb78bf43cc9e40c48ddea1da00a8336bec4e4a4d59bae09a1f39fa37dd1b07b6cd7eb945ca9846c28bd8a7dc02aa3169ee4c484f5bb8e2981d3bf835df1905b4cf7cbb47c89a44c089daa5de0ca43f67e042464155b6ec961335f63bd1170bbac172b549c6944ace87d4abd00ea63d65e240444357b4ee941137f439d31509b8c370b74bc49648cc85d6a9d208a03b63e446424551b2e8921731f23fd5130fbec576b14dc2904eca83d0afd40aa23961e644404753b0ea901533f03dd7110dbcc774b34fc0924cc881d2add604ac376fe84a4e495dbee49e1b3dfe33d91f03b2c97abd41ce9c42c68fdca3d806ae356dea484c4b5fbce69c193ffc31db1d01b0cb78bf43cc9e40c48ddea1da00a8336bec4e4a4d59bae09a1f39fa37dd1b07b6cd7eb945ca9846c28bd8a7dc02aa3169ee4c484f5bb8e2981d3bf835df1905b4cf7cbb47c89a44c089daa5de0ca43f67e042464155b6ec961335f63bd1170bbac172b549c6944ace87d4abd00ea63d65e240444357b4ee941137f439d31509b8c370b74bc49648cc85d6a9d208a03b63e446424551b2e8921731f23fd5130fbec576b14dc2904eca83d0afd40aa23961e644404753b0ea901533f03dd7110dbcc774b34fc0924cc881d2add604ac376fe84a4e495dbee49e1b3dfe33d91f03b2c97abd41ce9c42c68fdca3d806ae356dea484c4b5fbce69c193ffc31db1d01b0cb78bf43cc9e40c48ddea1da00a8336bec4e4a4d59bae09a1f39fa37dd1b07b6cd7eb945ca9846c28bd8a7dc02aa3169ee4c484f5bb8e2981d3bf835df1905b4cf7cbb47c89a44c089daa5de0ca43f67e042464155b6ec961335f63bd1170bbac172b549c6944ace87d4abd00ea63d65e240444357b4ee941137f439d31509b8c370b74bc49648cc85d6a9d208a03b63e446424551b2e8921731f23fd5130fbec576b14dc2904eca83d0afd40aa23961e644404753b0ea901533f03dd7110dbcc774b34fc0924cc881d2add604ac376fe84a4e495dbee49e1b3dfe33d91f03b2c97abd41ce9c42c68fdca3d806ae356dea484c4b5fbce69c193ffc31db1d01b0cb78bf43cc9e40c48ddea1da00a8336bec4e4a4d59bae09a1f39fa37dd1b07b6cd7eb945ca9846c28bd8a7dc02aa3169ee4c484f5bb8e2981d3bf835df1905b4cf7cbb47c89a44c089daa5de0ca43f67e042464155b6ec961335f63bd02928d6d3433d52dbd248928d5156da9183341c3c7c808872ae8f425c67d8fd9",
        "hex": "6a20309a569c06ef34969c3db3a519f0adb352d7cba0f55440adbec722873ebd18b64db0044ac376fe84a4e495dbee49e1b3dfe33d91f03b2c97abd41ce9c42c68fdca3d806ae356dea484c4b5fbce69c193ffc31db1d01b0cb78bf43cc9e40c48ddea1da00a8336bec4e4a4d59bae09a1f39fa37dd1b07b6cd7eb945ca9846c28bd8a7dc02aa3169ee4c484f5bb8e2981d3bf835df1905b4cf7cbb47c89a44c089daa5de0ca43f67e042464155b6ec961335f63bd1170bbac172b549c6944ace87d4abd00ea63d65e240444357b4ee941137f439d31509b8c370b74bc49648cc85d6a9d208a03b63e446424551b2e8921731f23fd5130fbec576b14dc2904eca83d0afd40aa23961e644404753b0ea901533f03dd7110dbcc774b34fc0924cc881d2add604ac376fe84a4e495dbee49e1b3dfe33d91f03b2c97abd41ce9c42c68fdca3d806ae356dea484c4b5fbce69c193ffc31db1d01b0cb78bf43cc9e40c48ddea1da00a8336bec4e4a4d59bae09a1f39fa37dd1b07b6cd7eb945ca9846c28bd8a7dc02aa3169ee4c484f5bb8e2981d3bf835df1905b4cf7cbb47c89a44c089daa5de0ca43f67e042464155b6ec961335f63bd1170bbac172b549c6944ace87d4abd00ea63d65e240444357b4ee941137f439d31509b8c370b74bc49648cc85d6a9d208a03b63e446424551b2e8921731f23fd5130fbec576b14dc2904eca83d0afd40aa23961e644404753b0ea901533f03dd7110dbcc774b34fc0924cc881d2add604ac376fe84a4e495dbee49e1b3dfe33d91f03b2c97abd41ce9c42c68fdca3d806ae356dea484c4b5fbce69c193ffc31db1d01b0cb78bf43cc9e40c48ddea1da00a8336bec4e4a4d59bae09a1f39fa37dd1b07b6cd7eb945ca9846c28bd8a7dc02aa3169ee4c484f5bb8e2981d3bf835df1905b4cf7cbb47c89a44c089daa5de0ca43f67e042464155b6ec961335f63bd1170bbac172b549c6944ace87d4abd00ea63d65e240444357b4ee941137f439d31509b8c370b74bc49648cc85d6a9d208a03b63e446424551b2e8921731f23fd5130fbec576b14dc2904eca83d0afd40aa23961e644404753b0ea901533f03dd7110dbcc774b34fc0924cc881d2add604ac376fe84a4e495dbee49e1b3dfe33d91f03b2c97abd41ce9c42c68fdca3d806ae356dea484c4b5fbce69c193ffc31db1d01b0cb78bf43cc9e40c48ddea1da00a8336bec4e4a4d59bae09a1f39fa37dd1b07b6cd7eb945ca9846c28bd8a7dc02aa3169ee4c484f5bb8e2981d3bf835df1905b4cf7cbb47c89a44c089daa5de0ca43f67e042464155b6ec961335f63bd1170bbac172b549c6944ace87d4abd00ea63d65e240444357b4ee941137f439d31509b8c370b74bc49648cc85d6a9d208a03b63e446424551b2e8921731f23fd5130fbec576b14dc2904eca83d0afd40aa23961e644404753b0ea901533f03dd7110dbcc774b34fc0924cc881d2add604ac376fe84a4e495dbee49e1b3dfe33d91f03b2c97abd41ce9c42c68fdca3d806ae356dea484c4b5fbce69c193ffc31db1d01b0cb78bf43cc9e40c48ddea1da00a8336bec4e4a4d59bae09a1f39fa37dd1b07b6cd7eb945ca9846c28bd8a7dc02aa3169ee4c484f5bb8e2981d3bf835df1905b4cf7cbb47c89a44c089daa5de0ca43f67e042464155b6ec961335f63bd02928d6d3433d52dbd248928d5156da9183341c3c7c808872ae8f425c67d8fd9",
        "type": "nulldata"
      }
    },
    {
      "value": 499960.3409,
      "n": 1,
      "scriptPubKey": {
        "asm": "1 d815be5d2a4f998c661e384405d4e725381dcd9cd55d18e91e87ecc64333e307",
        "hex": "5120d815be5d2a4f998c661e384405d4e725381dcd9cd55d18e91e87ecc64333e307",
        "reqSigs": 1,
        "type": "witness_v1_scripthash",
        "addresses": [
          "3QJmnh"
        ]
      }
    }
  ],
  "blockhash": "9c49f121af07ca043271baff5049446c1aadf74400091ff8de6bf4087ac8778e",
  "confirmations": 1,
  "time": 1764183425,
  "blocktime": 1764183425
}