{
  "hex": "010000000001010a7c77152718439dc726a1036e59ef1233f990771f460598733888cdc3d6859b0100000000feffffff0200e1f50500000000fdd5046a20883afbd69cf5843fcf666112670158f6216bb3ab74714e3f4751a682547f04d14db00438b0d6e4599e7eb4ccd0803fa3557ed45968bef757a65d42bbfb318467e3b8521890f6c479be5e94ecf0a01f83755ef479489ed777867d629bdb11a447c3987278f096a419de3ef48c90c07fe3153e941928feb717e61d02fbbb71c427a3f81258d0b68439fe1ed4acb0e05fc3351eb43908de9737c63d22db9b51e40783d832b8305664d91efe344c5000bf23d5fe54d9e83e77d726ddc23b7bb104e76338d298107644f93ede146c70209f03f5de74f9c81e57f706fde21b5b9124c74318f2f8701624995ebe740c1040ff6395be1499a87e3797669d827b3bf144a7237892d8503604b97e9e542c3060df43b59e34b9885e17b746bda25b1bd164870358b238b0d6e4599e7eb4ccd0803fa3557ed45968bef757a65d42bbfb318467e3b8521890f6c479be5e94ecf0a01f83755ef479489ed777867d629bdb11a447c3987278f096a419de3ef48c90c07fe3153e941928feb717e61d02fbbb71c427a3f81258d0b68439fe1ed4acb0e05fc3351eb43908de9737c63d22db9b51e40783d832b8305664d91efe344c5000bf23d5fe54d9e83e77d726ddc23b7bb104e76338d298107644f93ede146c70209f03f5de74f9c81e57f706fde21b5b9124c74318f2f8701624995ebe740c1040ff6395be1499a87e3797669d827b3bf144a7237892d8503604b97e9e542c3060df43b59e34b9885e17b746bda25b1bd164870358b238b0d6e4599e7eb4ccd0803fa3557ed45968bef757a65d42bbfb318467e3b8521890f6c479be5e94ecf0a01f83755ef479489ed777867d629bdb11a447c3987278f096a419de3ef48c90c07fe3153e941928feb717e61d02fbbb71c427a3f81258d0b68439fe1ed4acb0e05fc3351eb43908de9737c63d22db9b51e40783d832b8305664d91efe344c5000bf23d5fe54d9e83e77d726ddc23b7bb104e76338d298107644f93ede146c70209f03f5de74f9c81e57f706fde21b5b9124c74318f2f8701624995ebe740c1040ff6395be1499a87e3797669d827b3bf144a7237892d8503604b97e9e542c3060df43b59e34b9885e17b746bda25b1bd164870358b238b0d6e4599e7eb4ccd0803fa3557ed45968bef757a65d42bbfb318467e3b8521890f6c479be5e94ecf0a01f83755ef479489ed777867d629bdb11a447c3987278f096a419de3ef48c90c07fe3153e941928feb717e61d02fbbb71c427a3f81258d0b68439fe1ed4acb0e05fc3351eb43908de9737c63d22db9b51e40783d832b8305664d91efe344c5000bf23d5fe54d9e83e77d726ddc23b7bb104e76338d298107644f93ede146c70209f03f5de74f9c81e57f706fde21b5b9124c74318f2f8701624995ebe740c1040ff6395be1499a87e3797669d827b3bf144a7237892d8503604b97e9e542c3060df43b59e34b9885e17b746bda25b1bd164870358b238b0d6e4599e7eb4ccd0803fa3557ed45968bef757a65d42bbfb318467e3b8521890f6c479be5e94ecf0a01f83755ef479489ed777867d629bdb11a447c3987278f096a419de3ef48c90c07fe3153e941928feb717e61d02fbbb71c427a3f81258d0b68439fe1ed4acb0e05fc3351eb43908de9737c63d22db9b51e40783d832b8305664d91efe344c5000bf23d5fe54d737e2e60026cffc863a0cc0345b425106644e93ca09b77fead793bf90ed9000e021231b792d0000225120604d20e6b87510c63b2f4dc42bc7bf6648aabd2e9b236a1fb9fba72c1e42a31102fd75097bce6616eeb5ba87225e5fe652a8bfaa53f974f3f0c8352285a82e71eaf73d93a2e3908360db0d2d362effceb222b3663b22188d763d45f4accc353806e05db62a99613d0e683dea54b234768941430ed0e2646f3101dc88cef0f9b8385589601d520093c75130f0c1d954323a4fed337ac75e584741a828082776fef689f3c1666edaeeefa7bbec4479e42ea062f68eb0b3452e8109561d76a1776a91714e66b6902f35bb163a07164a42f72196317dc4ff3ebd5ee25ab5a379ccd716125620b86c976c7584ba119e19224ce78295f410854ba533b6ba8f3409a64c2a4f3accd2b0334b1551fb4e61d3ceecc71777620b6d5bcf1efca17986622d16a4cdc9fd387178da9a73de164a40e80dda24284570ca4eed5ac332b6c7734e5ea81a1bedb5dd43a7131292911b6554a1b6cc130569bdd60b8f532db29fd2980b8154907e99fe72675c683d7a7fc66dd80ecded3540d61560da94a2890a066071bfac2f9b8b95d4f0da84e8e40342023668b47404adefd0d516a3fb718dab0e426ae28149a878e204835d9dd59889ab3ffd136955bafcbc8e1ed9afdaaa00fc43200955cf2ea83c347b05d5d9ace8ef5b778024422d4a16ce3915474ae511be5ed280766cde9785266110de9c69efd3a6b8e530cc3c2f117a6c9f43147d45739f96bcdb7f398a17af9b587a4862c6c88735b8f5864c301df7ca437a0fe5d4488b56782b31a9ab9e37b6cd1cb88ff5c4c3850579fffd307a7f740eaa61dc3ebdd0cb4b23d14520db15dfdecfa0b46caced958e438d3c66658e15772ad862c989ff6383799494571d851d1b93cf3e7a840323223fee95951212ce53e2531088996627718a26bc399c5e41cccca4aeafa92e3ac74ec2d80e3353b331f13203de181d1ab76cb39e3a9c52a927a3fc88f4d3aa447417e4b159bc63c3909d4fbde26be92d0e022ea7bfa809bc13b1a2dbf3a49b4ec5ab7f814285e16e07de292a843400d7950b320250ea2cb6691775b009c8f56f1d8bd5b9922b861c4cf18161d0d0238b436a1a53ab1a1ae6da302d2eb262b483b7721d5b64b37df6f8cc63d664772ae72a0eacff443eb5127063b2606706bfa97e60affa8c4a140c46fa93f2988577027ac8faa79e5dfd098ba2ccb94701286f5c6aeb6656cf6a094e5372462307524172180e351d1de6a3f50466e635aeeff4dcae75206feab8690e7fdc8b98477dfafe1d6ab1378344eb18c04980fe5f2f224cddf64411ac5a1fa36b22915c6916ee7408d69660ed68b8783699d795e04c72701dcd173d453b8ca99156f6e97c700f7a09b795e8e8007b2fa6eb36fad665254afd337665335720aa8c95a9f1fb5f1be50ac1324ab75b7f9b6ca8cf167e81dc2d64c0fe8a83fc67e877c39d857bb1c43805c50bcc1bf805acfadb9bce1d6333d970e59ce1ee9b234de1d3b11b3a9c20b9e112285013ce2a11b56f5bfe5de5c24bc14542eb7cd53c7e3b914e681b40f5c1e03045b8e7e3f66e7c0ee4d39677ed327c336f0e0db0d25cdd5f9c7fb2b9063707d7e1a706085524e9ac33ca8741e8559546578eea04b1d568e477ac04dcb9ae8af3e219213f19fcce38fe0fb95dcb3fb6c066e7cd3c0a8942eade360bb023f7ee1b694f967e7ce9ee8f316dc90824c2ca5d82d76b473e798a9b3d62bdd98e39f18ec24c9bef956d4e8df1ed3cb683f31323153ab779128b00eca3a9cf695bae245407b94ca8d9f8c68d3f77b4800f4d6e14e7c3507acd09c9e38e697f7167a6b22ee64836f84f003f4e825c9787ec9b1544d65200a5bf856872a5a6ce6204aceb8f84570ee4d284585cd74d6d88589dafa57d512b3e859485aa4cedcaf9c45b9639ce552f2769e74e07dca9259d8cdf27952d4b2979be6972255371e31c5e78f257c2a2f48cc569fda29259210f4cb93443480d82adc801bf3e32139d0271194d730535443d79ca1a9e4aca35dcb0961aab7379defa06c81929f704282f47a52c12767ef39c852bbb18e297408677f9902dec968ce6e2f31cf19dc5b4de0a388e2ad8844fd876f334c2ecd83f80cfb5ca388b6197cd3726fc49762c55134cd397a0077e01d6ea21ae2e53af529377a46d27f83b4c25f04bf1034cc7c34cc9045799a8c58b434292a19dc794f15839ef028565948ddb66c06f2f792873d1eedace91a99004837b1ecd370f490a8c1c2a6ba75e9c14573dc273454ea05a9e8aa3c7bf75de1dc0b426668b48039557d18ecb51169ee2cddbc281ba1b03d00dc8a154e964c8c4d9ec7ea1f211f9943d3705af73e3d46e40f12e37e91cce349f945d93d653aa411b2341b2a1c60c2176588a70c195da0445a8d9542142a1c29aa7594cc6cf05fefe683d91f11e1199c70f904bd15bcadf85f333a425fcac37e40512a2a819ffd9aacb6ac541f20b83f7fce9dcca24076b7fae024357aff3befa4065cecad091f247420fa25d3d3f3c79da7ddfe3aa92d93e9596616d95008763b10726a9e64553f60d2f0e1a7bbd3d7035c4c2921f7436ab8a76476727dcdb6716c0877525ea402cf7686c25a104d1fe57df6c405b3c69b710eef57142971224a319e24113ee8f1175574143cd9be88c0857d4a7d6faf4dd689f8bfada844da6540e26e59fa6781917c8aa42acc33c5249a4176dee9065fe704ed2ef82583ab0c2e89b31bbe01b8ba3107c0443dcc10f4cf1efea00a866ff0bcb8048b7546db96a151ce44eb07aa8a01ea832834522a6a90e247fe56f4fb6fe163b2e38bcaa48f30e6c5abe0bfba23cf286d01350da54fcadceb6908cd3dab2c643f5ffec482055110782863ddfe78968448f0774d6034dcdadfb78244d6b31aa11a185f88e4687c2cbffba337ece5f635f99811adc05d507cc92b092d566175d38bd6dce04ceb75f6f089943390a27bf42026879d3e06bba2187af4d337eadc721c3f8799afc36d3b9291d6e28d1d50ee281e0a3d43222a4da7cee254271b1c8c93febf5e462cff0d596afd741415e5f61a8097dc0b080943a05cbb0a418e32c0abd3e838425aa4a1e8557ce3a12c43f9816986a9a1932d15e3bcd9103dcc3c37c251a31f806ce4d191cca1d5d1c608331385a15e8c35e78ab9ab83e0a4686d5779bc089b8b59c8a1e94e02b6ca66ae215cf3a2535154f76a243e81397e719617b8b5f720f51958ecdc2dc8d883df8c6b71c16460e5e69614d9f63b9d1138fa1b27b6cf2edb78af7a7649a65b8ae35ed7be7d8953a1a0d425ec830b05202a68be327e10134dea5f3267f0384ee0d28a4baebc38b8a9e701a6519022b04912ccd6922ffbf5a5120c7ca202f324db5c2c7cedae411383e61728386abcadce4fe2d30363f596266a8b0c7d6db0b11193c576e78899697a6b2bfc5cad2d5edf3fc0000000000000000000000000000000000000000000000000000000915213501fd21050003380768f441a89b2bc54f0b0e468e5c2faae35e68aeeaad52fcc78310073af8790e43a52856b09fe99626a68070ca9de7be7c62863f17fc45931cca2d7b129d5039f98bd40f42b95a10b23b6455f10771c0cef42ea67aeab2625fe0f9bb67cf10f31ee29a3c80480f748e89615f7c7442a99094709d6288279bc3adb7bf16cffd40ac425bfebd7ac345a012541e4c601b65d39e5bb704791044e1547288cae544ba91e92a5b8c63f85c9eed808b0f136990d206261a2d902188a682b44002f959a81833a8d55f5ca7a1897d39687a89cda9714eda20d8e1c798fedd70ea342ed8ff27cdc7da460348eec37a0d951419e6c3baa7e9256924b50a63b0c654c9d9b5531cc65f5a1d4111d60f41b30629194d404c2ca0911d255cd46dc87c1414aa6db61db5990149d75b8d87f3413e89ad1265ee8a32c7f306fcf1663ffed2050465e4b91ffe5e6d9a2775605b6597a3179cb7c78838e932501968b5639df43c49334f9b8f8d25df9fed6e0382e9169304e5be5dfd3f0a463c33387c6f12b9b3cd0d37bcc08b82caef62cc11bbfaac9a2057fdf9c7c2b564c44eaa44fc896ed64bef9d2354d2a2cad9a48a5c61e6025c58ab762ba7495103873a033b8e3382fb82940ab1a4d5298b9650714bd6020154252949b295bdd56bdb1f8b72773687287b9440a6702366c34f0ec5a44ea8fb38f513d78de329567fda48ac895f0cbe3b8148dfc7c2f2224eea698c7d101a6a8ed6a3453877f93a26204ba2642330ce564ec758435d8de286e9c6531323e08b0eaffaca561720f63098a13eddbf53aec6e55245f2983f6b6ce019ac7d41f292ee117c7bd865b8cef72404fd2a4692dcf3924efc8ec5f42d3723b0611ffa08979d065ba2a096f8c57739c5d909d81633f3b6644833e1f84b52097c314b929c520f5cf1bb61068dadb48d8b709f7d4a19eb6b5c429e7b7695ecd9ec8ddd11aecf99a7a84d80328a3cd25581882c9cf086a9a55d122de0e0f63e9b3b854308a44f74e2f1bafb1ca4a8d419d6722dc0e2dfcfa743e39758674d34da3298475df62628bbdbccdbbcb40e4c88d2124bb5e10ee6cd6a16bb6534a6782f2c3f95370ba8d10e4bb940ea9164e5c9db0886f84f44b3439c7e0de9beabec7b2d4699ff1021de6a85faf0782a3448c926d98c91f61e793001b8fb846d73f2f53d2fb01ed9e949b54a86329faa6214f5b8504b07475c315a2a6c9365098e2750f740f38f38eb84307dbd21c60f397003e7899348e3ca5974d249f0f82a27a567a35ad3ef3c58ad075ddb00a55815d72101afdd9c5b8e55460a5501148ea77735c7eb43c37fae7e1f9b098b87e3076007c7a6db251091e6007ca7be41dd3d570cfc9bb0feba885104d4fc8af604069988ffe7875b865fbc1e030f26c07de8b29db1cffb2bba4e7918f58d75bf98158620d792bd3ce58378c07c21fa0fe3d715fcd55681c6a47315047be609e9a9838b96a5aec17f897775b296b689f6ce0f79dcdac86ee09a6fd97f8df721597c0acf70d2f1e8765ed92d15667de2818306fa34dca7b7c994a9ad084e9f31dc6b893b96f1b7df33fe019f51737d3e661f75f1c849e5e66c65ec980fe31482d8a8db40176884a67824c4a24716287be967cd4df0e98a399058aa7d01823c80100ce60b06b69b68599370879bbf6ea468528423b48d461724477143edb95f4db8a12b813fc76b009f7daabe4e72f92360f7c81d262201370eb5d12bd57942eedffd0c48d87a29f0c5126ea4904ecc4db8f0cc7ee991fa123314f31dd0818fee1737f5670c1ca7ac59541f888aedaa2b5a04bbb6866d01d5c597b7b1943dd0d49c0ad79e223699dfb37305cd3975000000",
  "txid": "54849f9c8139e95ae4cf24cb96548f29156856bae621626fceba9b010556060e",
  "hash": "bf9038dea0da8af25620f5026ca03947f9be04ca9b3805bc16dad6e7b9f2a19d",
  "size": 5085,
  "vsize": 2278,
  "version": 1,
  "locktime": 117,
  "vin": [
    {
      "txid": "9b85d6c3cd8838739805461f7790f93312ef596e03a126c79d43182715777c0a",
      "vout": 1,
      "scriptSig": {
        "asm": "",
        "hex": ""
      },
      "txinwitness": [
        "7bce6616eeb5ba87225e5fe652a8bfaa53f974f3f0c8352285a82e71eaf73d93a2e3908360db0d2d362effceb222b3663b22188d763d45f4accc353806e05db62a99613d0e683dea54b234768941430ed0e2646f3101dc88cef0f9b8385589601d520093c75130f0c1d954323a4fed337ac75e584741a828082776fef689f3c1666edaeeefa7bbec4479e42ea062f68eb0b3452e8109561d76a1776a91714e66b6902f35bb163a07164a42f72196317dc4ff3ebd5ee25ab5a379ccd716125620b86c976c7584ba119e19224ce78295f410854ba533b6ba8f3409a64c2a4f3accd2b0334b1551fb4e61d3ceecc71777620b6d5bcf1efca17986622d16a4cdc9fd387178da9a73de164a40e80dda24284570ca4eed5ac332b6c7734e5ea81a1bedb5dd43a7131292911b6554a1b6cc130569bdd60b8f532db29fd2980b8154907e99fe72675c683d7a7fc66dd80ecded3540d61560da94a2890a066071bfac2f9b8b95d4f0da84e8e40342023668b47404adefd0d516a3fb718dab0e426ae28149a878e204835d9dd59889ab3ffd136955bafcbc8e1ed9afdaaa00fc43200955cf2ea83c347b05d5d9ace8ef5b778024422d4a16ce3915474ae511be5ed280766cde9785266110de9c69efd3a6b8e530cc3c2f117a6c9f43147d45739f96bcdb7f398a17af9b587a4862c6c88735b8f5864c301df7ca437a0fe5d4488b56782b31a9ab9e37b6cd1cb88ff5c4c3850579fffd307a7f740eaa61dc3ebdd0cb4b23d14520db15dfdecfa0b46caced958e438d3c66658e15772ad862c989ff6383799494571d851d1b93cf3e7a840323223fee95951212ce53e2531088996627718a26bc399c5e41cccca4aeafa92e3ac74ec2d80e3353b331f13203de181d1ab76cb39e3a9c52a927a3fc88f4d3aa447417e4b159bc63c3909d4fbde26be92d0e022ea7bfa809bc13b1a2dbf3a49b4ec5ab7f814285e16e07de292a843400d7950b320250ea2cb6691775b009c8f56f1d8bd5b9922b861c4cf18161d0d0238b436a1a53ab1a1ae6da302d2eb262b483b7721d5b64b37df6f8cc63d664772ae72a0eacff443eb5127063b2606706bfa97e60affa8c4a140c46fa93f2988577027ac8faa79e5dfd098ba2ccb94701286f5c6aeb6656cf6a094e5372462307524172180e351d1de6a3f50466e635aeeff4dcae75206feab8690e7fdc8b98477dfafe1d6ab1378344eb18c04980fe5f2f224cddf64411ac5a1fa36b22915c6916ee7408d69660ed68b8783699d795e04c72701dcd173d453b8ca99156f6e97c700f7a09b795e8e8007b2fa6eb36fad665254afd337665335720aa8c95a9f1fb5f1be50ac1324ab75b7f9b6ca8cf167e81dc2d64c0fe8a83fc67e877c39d857bb1c43805c50bcc1bf805acfadb9bce1d6333d970e59ce1ee9b234de1d3b11b3a9c20b9e112285013ce2a11b56f5bfe5de5c24bc14542eb7cd53c7e3b914e681b40f5c1e03045b8e7e3f66e7c0ee4d39677ed327c336f0e0db0d25cdd5f9c7fb2b9063707d7e1a706085524e9ac33ca8741e8559546578eea04b1d568e477ac04dcb9ae8af3e219213f19fcce38fe0fb95dcb3fb6c066e7cd3c0a8942eade360bb023f7ee1b694f967e7ce9ee8f316dc90824c2ca5d82d76b473e798a9b3d62bdd98e39f18ec24c9bef956d4e8df1ed3cb683f31323153ab779128b00eca3a9cf695bae245407b94ca8d9f8c68d3f77b4800f4d6e14e7c3507acd09c9e38e697f7167a6b22ee64836f84f003f4e825c9787ec9b1544d65200a5bf856872a5a6ce6204aceb8f84570ee4d284585cd74d6d88589dafa57d512b3e859485aa4cedcaf9c45b9639ce552f2769e74e07dca9259d8cdf27952d4b2979be6972255371e31c5e78f257c2a2f48cc569fda29259210f4cb93443480d82adc801bf3e32139d0271194d730535443d79ca1a9e4aca35dcb0961aab7379defa06c81929f704282f47a52c12767ef39c852bbb18e297408677f9902dec968ce6e2f31cf19dc5b4de0a388e2ad8844fd876f334c2ecd83f80cfb5ca388b6197cd3726fc49762c55134cd397a0077e01d6ea21ae2e53af529377a46d27f83b4c25f04bf1034cc7c34cc9045799a8c58b434292a19dc794f15839ef028565948ddb66c06f2f792873d1eedace91a99004837b1ecd370f490a8c1c2a6ba75e9c14573dc273454ea05a9e8aa3c7bf75de1dc0b426668b48039557d18ecb51169ee2cddbc281ba1b03d00dc8a154e964c8c4d9ec7ea1f211f9943d3705af73e3d46e40f12e37e91cce349f945d93d653aa411b2341b2a1c60c2176588a70c195da0445a8d9542142a1c29aa7594cc6cf05fefe683d91f11e1199c70f904bd15bcadf85f333a425fcac37e40512a2a819ffd9aacb6ac541f20b83f7fce9dcca24076b7fae024357aff3befa4065cecad091f247420fa25d3d3f3c79da7ddfe3aa92d93e9596616d95008763b10726a9e64553f60d2f0e1a7bbd3d7035c4c2921f7436ab8a76476727dcdb6716c0877525ea402cf7686c25a104d1fe57df6c405b3c69b710eef57142971224a319e24113ee8f1175574143cd9be88c0857d4a7d6faf4dd689f8bfada844da6540e26e59fa6781917c8aa42acc33c5249a4176dee9065fe704ed2ef82583ab0c2e89b31bbe01b8ba3107c0443dcc10f4cf1efea00a866ff0bcb8048b7546db96a151ce44eb07aa8a01ea832834522a6a90e247fe56f4fb6fe163b2e38bcaa48f30e6c5abe0bfba23cf286d01350da54fcadceb6908cd3dab2c643f5ffec482055110782863ddfe78968448f0774d6034dcdadfb78244d6b31aa11a185f88e4687c2cbffba337ece5f635f99811adc05d507cc92b092d566175d38bd6dce04ceb75f6f089943390a27bf42026879d3e06bba2187af4d337eadc721c3f8799afc36d3b9291d6e28d1d50ee281e0a3d43222a4da7cee254271b1c8c93febf5e462cff0d596afd741415e5f61a8097dc0b080943a05cbb0a418e32c0abd3e838425aa4a1e8557ce3a12c43f9816986a9a1932d15e3bcd9103dcc3c37c251a31f806ce4d191cca1d5d1c608331385a15e8c35e78ab9ab83e0a4686d5779bc089b8b59c8a1e94e02b6ca66ae215cf3a2535154f76a243e81397e719617b8b5f720f51958ecdc2dc8d883df8c6b71c16460e5e69614d9f63b9d1138fa1b27b6cf2edb78af7a7649a65b8ae35ed7be7d8953a1a0d425ec830b05202a68be327e10134dea5f3267f0384ee0d28a4baebc38b8a9e701a6519022b04912ccd6922ffbf5a5120c7ca202f324db5c2c7cedae411383e61728386abcadce4fe2d30363f596266a8b0c7d6db0b11193c576e78899697a6b2bfc5cad2d5edf3fc0000000000000000000000000000000000000000000000000000000915213501",
        "0003380768f441a89b2bc54f0b0e468e5c2faae35e68aeeaad52fcc78310073af8790e43a52856b09fe99626a68070ca9de7be7c62863f17fc45931cca2d7b129d5039f98bd40f42b95a10b23b6455f10771c0cef42ea67aeab2625fe0f9bb67cf10f31ee29a3c80480f748e89615f7c7442a99094709d6288279bc3adb7bf16cffd40ac425bfebd7ac345a012541e4c601b65d39e5bb704791044e1547288cae544ba91e92a5b8c63f85c9eed808b0f136990d206261a2d902188a682b44002f959a81833a8d55f5ca7a1897d39687a89cda9714eda20d8e1c798fedd70ea342ed8ff27cdc7da460348eec37a0d951419e6c3baa7e9256924b50a63b0c654c9d9b5531cc65f5a1d4111d60f41b30629194d404c2ca0911d255cd46dc87c1414aa6db61db5990149d75b8d87f3413e89ad1265ee8a32c7f306fcf1663ffed2050465e4b91ffe5e6d9a2775605b6597a3179cb7c78838e932501968b5639df43c49334f9b8f8d25df9fed6e0382e9169304e5be5dfd3f0a463c33387c6f12b9b3cd0d37bcc08b82caef62cc11bbfaac9a2057fdf9c7c2b564c44eaa44fc896ed64bef9d2354d2a2cad9a48a5c61e6025c58ab762ba7495103873a033b8e3382fb82940ab1a4d5298b9650714bd6020154252949b295bdd56bdb1f8b72773687287b9440a6702366c34f0ec5a44ea8fb38f513d78de329567fda48ac895f0cbe3b8148dfc7c2f2224eea698c7d101a6a8ed6a3453877f93a26204ba2642330ce564ec758435d8de286e9c6531323e08b0eaffaca561720f63098a13eddbf53aec6e55245f2983f6b6ce019ac7d41f292ee117c7bd865b8cef72404fd2a4692dcf3924efc8ec5f42d3723b0611ffa08979d065ba2a096f8c57739c5d909d81633f3b6644833e1f84b52097c314b929c520f5cf1bb61068dadb48d8b709f7d4a19eb6b5c429e7b7695ecd9ec8ddd11aecf99a7a84d80328a3cd25581882c9cf086a9a55d122de0e0f63e9b3b854308a44f74e2f1bafb1ca4a8d419d6722dc0e2dfcfa743e39758674d34da3298475df62628bbdbccdbbcb40e4c88d2124bb5e10ee6cd6a16bb6534a6782f2c3f95370ba8d10e4bb940ea9164e5c9db0886f84f44b3439c7e0de9beabec7b2d4699ff1021de6a85faf0782a3448c926d98c91f61e793001b8fb846d73f2f53d2fb01ed9e949b54a86329faa6214f5b8504b07475c315a2a6c9365098e2750f740f38f38eb84307dbd21c60f397003e7899348e3ca5974d249f0f82a27a567a35ad3ef3c58ad075ddb00a55815d72101afdd9c5b8e55460a5501148ea77735c7eb43c37fae7e1f9b098b87e3076007c7a6db251091e6007ca7be41dd3d570cfc9bb0feba885104d4fc8af604069988ffe7875b865fbc1e030f26c07de8b29db1cffb2bba4e7918f58d75bf98158620d792bd3ce58378c07c21fa0fe3d715fcd55681c6a47315047be609e9a9838b96a5aec17f897775b296b689f6ce0f79dcdac86ee09a6fd97f8df721597c0acf70d2f1e8765ed92d15667de2818306fa34dca7b7c994a9ad084e9f31dc6b893b96f1b7df33fe019f51737d3e661f75f1c849e5e66c65ec980fe31482d8a8db40176884a67824c4a24716287be967cd4df0e98a399058aa7d01823c80100ce60b06b69b68599370879bbf6ea468528423b48d461724477143edb95f4db8a12b813fc76b009f7daabe4e72f92360f7c81d262201370eb5d12bd57942eedffd0c48d87a29f0c5126ea4904ecc4db8f0cc7ee991fa123314f31dd0818fee1737f5670c1ca7ac59541f888aedaa2b5a04bbb6866d01d5c597b7b1943dd0d49c0ad79e223699dfb37305cd39"
      ],
      "sequence": 4294967294
    }
  ],
  "vout": [
    {
      "value": 1.0,
      "n": 0,
      "scriptPubKey": {
        "asm": "OP_RETURN 883afbd69cf5843fcf666112670158f6216bb3ab74714e3f4751a682547f04d1 38b0d6e4599e7eb4ccd0803fa3557ed45968bef757a65d42bbfb318467e3b8521890f6c479be5e94ecf0a01f83755ef479489ed777867d629bdb11a447c3987278f096a419de3ef48c90c07fe3153e941928feb717e61d02fbbb71c427a3f81258d0b68439fe1ed4acb0e05fc3351eb43908de9737c63d22db9b51e40783d832b8305664d91efe344c5000bf23d5fe54d9e83e77d726ddc23b7bb104e76338d298107644f93ede146c70209f03f5de74f9c81e57f706fde21b5b9124c74318f2f8701624995ebe740c1040ff6395be1499a87e3797669d827b3bf144a7237892d8503604b97e9e542c3060df43b59e34b9885e17b746bda25b1bd164870358b238b0d6e4599e7eb4ccd0803fa3557ed45968bef757a65d42bbfb318467e3b8521890f6c479be5e94ecf0a01f83755ef479489ed777867d629bdb11a447c3987278f096a419de3ef48c90c07fe3153e941928feb717e61d02fbbb71c427a3f81258d0b68439fe1ed4acb0e05fc3351eb43908de9737c63d22db9b51e40783d832b8305664d91efe344c5000bf23d5fe54d9e83e77d726ddc23b7bb104e76338d298107644f93ede146c70209f03f5de74f9c81e57f706fde21b5b9124c74318f2f8701624995ebe740c1040ff6395be1499a87e3797669d827b3bf144a7237892d8503604b97e9e542c3060df43b59e34b9885e17b746bda25b1bd164870358b238b0d6e4599e7eb4ccd0803fa3557ed45968bef757a65d42bbfb318467e3b8521890f6c479be5e94ecf0a01f83755ef479489ed777867d629bdb11a447c3987278f096a419de3ef48c90c07fe3153e941928feb717e61d02fbbb71c427a3f81258d0b68439fe1ed4acb0e05fc3351eb43908de9737c63d22db9b51e40783d832b8305664d91efe344c5000bf23d5fe54d9e83e77d726ddc23b7bb104e76338d298107644f93ede146c70209f03f5de74f9c81e57f706fde21b5b9124c74318f2f8701624995ebe740c1040ff6395be1499a87e3797669d827b3bf144a7237892d8503604b97e9e542c3060df43b59e34b9885e17b746bda25b1bd164870358b238b0d6e4599e7eb4ccd0803fa3557ed45968bef757a65d42bbfb318467e3b8521890f6c479be5e94ecf0a01f83755ef479489ed777867d629bdb11a447c3987278f096a419de3ef48c90c07fe3153e941928feb717e61d02fbbb71c427a3f81258d0b68439fe1ed4acb0e05fc3351eb43908de9737c63d22db9b51e40783d832b8305664d91efe344c5000bf23d5fe54d9e83e77d726ddc23b7bb104e76338d298107644f93ede146c70209f03f5de74f9c81e57f706fde21b5b9124c74318f2f8701624995ebe740c1040ff6395be1499a87e3797669d827b3bf144a7237892d8503604b97e9e542c3060df43b59e34b9885e17b746bda25b1bd164870358b238b0d6e4599e7eb4ccd0803fa3557ed45968bef757a65d42bbfb318467e3b8521890f6c479be5e94ecf0a01f83755ef479489ed777867d629bdb11a447c3987278f096a419de3ef48c90c07fe3153e941928feb717e61d02fbbb71c427a3f81258d0b68439fe1ed4acb0e05fc3351eb43908de9737c63d22db9b51e40783d832b8305664d91efe344c5000bf23d5fe54d737e2e60026cffc863a0cc0345b425106644e93ca09b77fead793bf90ed9000",
        "hex": "6a20883afbd69cf5843fcf666112670158f6216bb3ab74714e3f4751a682547f04d14db00438b0d6e4599e7eb4ccd0803fa3557ed45968bef757a65d42bbfb318467e3b8521890f6c479be5e94ecf0a01f83755ef479489ed777867d629bdb11a447c3987278f096a419de3ef48c90c07fe3153e941928feb717e61d02fbbb71c427a3f81258d0b68439fe1ed4acb0e05fc3351eb43908de9737c63d22db9b51e40783d832b8305664d91efe344c5000bf23d5fe54d9e83e77d726ddc23b7bb104e76338d298107644f93ede146c70209f03f5de74f9c81e57f706fde21b5b9124c74318f2f8701624995ebe740c1040ff6395be1499a87e3797669d827b3bf144a7237892d8503604b97e9e542c3060df43b59e34b9885e17b746bda25b1bd164870358b238b0d6e4599e7eb4ccd0803fa3557ed45968bef757a65d42bbfb318467e3b8521890f6c479be5e94ecf0a01f83755ef479489ed777867d629bdb11a447c3987278f096a419de3ef48c90c07fe3153e941928feb717e61d02fbbb71c427a3f81258d0b68439fe1ed4acb0e05fc3351eb43908de9737c63d22db9b51e40783d832b8305664d91efe344c5000bf23d5fe54d9e83e77d726ddc23b7bb104e76338d298107644f93ede146c70209f03f5de74f9c81e57f706fde21b5b9124c74318f2f8701624995ebe740c1040ff6395be1499a87e3797669d827b3bf144a7237892d8503604b97e9e542c3060df43b59e34b9885e17b746bda25b1bd164870358b238b0d6e4599e7eb4ccd0803fa3557ed45968bef757a65d42bbfb318467e3b8521890f6c479be5e94ecf0a01f83755ef479489ed777867d629bdb11a447c3987278f096a419de3ef48c90c07fe3153e941928feb717e61d02fbbb71c427a3f81258d0b68439fe1ed4acb0e05fc3351eb43908de9737c63d22db9b51e40783d832b8305664d91efe344c5000bf23d5fe54d9e83e77d726ddc23b7bb104e76338d298107644f93ede146c70209f03f5de74f9c81e57f706fde21b5b9124c74318f2f8701624995ebe740c1040ff6395be1499a87e3797669d827b3bf144a7237892d8503604b97e9e542c3060df43b59e34b9885e17b746bda25b1bd164870358b238b0d6e4599e7eb4ccd0803fa3557ed45968bef757a65d42bbfb318467e3b8521890f6c479be5e94ecf0a01f83755ef479489ed777867d629bdb11a447c3987278f096a419de3ef48c90c07fe3153e941928feb717e61d02fbbb71c427a3f81258d0b68439fe1ed4acb0e05fc3351eb43908de9737c63d22db9b51e40783d832b8305664d91efe344c5000bf23d5fe54d9e83e77d726ddc23b7bb104e76338d298107644f93ede146c70209f03f5de74f9c81e57f706fde21b5b9124c74318f2f8701624995ebe740c1040ff6395be1499a87e3797669d827b3bf144a7237892d8503604b97e9e542c3060df43b59e34b9885e17b746bda25b1bd164870358b238b0d6e4599e7eb4ccd0803fa3557ed45968bef757a65d42bbfb318467e3b8521890f6c479be5e94ecf0a01f83755ef479489ed777867d629bdb11a447c3987278f096a419de3ef48c90c07fe3153e941928feb717e61d02fbbb71c427a3f81258d0b68439fe1ed4acb0e05fc3351eb43908de9737c63d22db9b51e40783d832b8305664d91efe344c5000bf23d5fe54d737e2e60026cffc863a0cc0345b425106644e93ca09b77fead793bf90ed9000",
        "type": "nulldata"
      }
    },
    {
      "value": 499981.6958,
      "n": 1,
      "scriptPubKey": {
        "asm": "1 604d20e6b87510c63b2f4dc42bc7bf6648aabd2e9b236a1fb9fba72c1e42a311",
        "hex": "5120604d20e6b87510c63b2f4dc42bc7bf6648aabd2e9b236a1fb9fba72c1e42a311",
        "reqSigs": 1,
        "type": "witness_v1_scripthash",
        "addresses": [
          "3QJmnh"
        ]
      }
    }
  ],
  "blockhash": "443ef5589806c3570db60b1178f56898637f167918ce0f0236a27ac7d0512dc1",
  "confirmations": 1,
  "time": 1764179461,
  "blocktime": 1764179461
}