{
  "hex": "01000000000101a281847a9cf1f49b026c56c9687da9c1cb5e2e3917608f19cfa3a25f5a418b770100000000feffffff0200774227792d000022512062d1464a1cfe9914004726625ec72bd0bc35365970ba763f8694bcb8a5fd35b800e1f50500000000fdd5046a208957e8c2308d46b5a2cddaaac450247dccaf44b6c21d57278fd325ed58f75c004db004667fdd8b755e14e1b30bb09c58abf0822c497aef50da8d89688df644d8d38dc2465ffdab557e34c1932b90bc788bd0a20c695acf70faada948add664f8f3ade2263f9dcb351e54a1f34bf0dc18ebb0c26c093aaf109acdc928cdb6049893cd82061fbdeb153e7481d36bd0fc38cb90e24c291a8f30baede908ed9624b8b3eda2e6ff5d0bf5de9461338b301cd82b7002acc9fa6fd05a0d09e80d76c458530d42c6df7d2bd5feb44113ab103cf80b50228ce9da4ff07a2d29c82d56e478732d62a6bf1d4bb59ed42173cb705c986b3042ec89ba2f901a4d49a84d368418134d02869f3d6b95bef40153eb507cb84b1062cca99a0fb03a6d69886d16a438336d22667fdd8b755e14e1b30bb09c58abf0822c497aef50da8d89688df644d8d38dc2465ffdab557e34c1932b90bc788bd0a20c695acf70faada948add664f8f3ade2263f9dcb351e54a1f34bf0dc18ebb0c26c093aaf109acdc928cdb6049893cd82061fbdeb153e7481d36bd0fc38cb90e24c291a8f30baede908ed9624b8b3eda2e6ff5d0bf5de9461338b301cd82b7002acc9fa6fd05a0d09e80d76c458530d42c6df7d2bd5feb44113ab103cf80b50228ce9da4ff07a2d29c82d56e478732d62a6bf1d4bb59ed42173cb705c986b3042ec89ba2f901a4d49a84d368418134d02869f3d6b95bef40153eb507cb84b1062cca99a0fb03a6d69886d16a438336d22667fdd8b755e14e1b30bb09c58abf0822c497aef50da8d89688df644d8d38dc2465ffdab557e34c1932b90bc788bd0a20c695acf70faada948add664f8f3ade2263f9dcb351e54a1f34bf0dc18ebb0c26c093aaf109acdc928cdb6049893cd82061fbdeb153e7481d36bd0fc38cb90e24c291a8f30baede908ed9624b8b3eda2e6ff5d0bf5de9461338b301cd82b7002acc9fa6fd05a0d09e80d76c458530d42c6df7d2bd5feb44113ab103cf80b50228ce9da4ff07a2d29c82d56e478732d62a6bf1d4bb59ed42173cb705c986b3042ec89ba2f901a4d49a84d368418134d02869f3d6b95bef40153eb507cb84b1062cca99a0fb03a6d69886d16a438336d22667fdd8b755e14e1b30bb09c58abf0822c497aef50da8d89688df644d8d38dc2465ffdab557e34c1932b90bc788bd0a20c695acf70faada948add664f8f3ade2263f9dcb351e54a1f34bf0dc18ebb0c26c093aaf109acdc928cdb6049893cd82061fbdeb153e7481d36bd0fc38cb90e24c291a8f30baede908ed9624b8b3eda2e6ff5d0bf5de9461338b301cd82b7002acc9fa6fd05a0d09e80d76c458530d42c6df7d2bd5feb44113ab103cf80b50228ce9da4ff07a2d29c82d56e478732d62a6bf1d4bb59ed42173cb705c986b3042ec89ba2f901a4d49a84d368418134d02869f3d6b95bef40153eb507cb84b1062cca99a0fb03a6d69886d16a438336d22667fdd8b755e14e1b30bb09c58abf0822c497aef50da8d89688df644d8d38dc2465ffdab557e34c1932b90bc788bd0a20c695acf70faada948add664f8f3ade2263f9dcb351e54a1f34bf0dc18ebb0c26c093aaf109acdc928cdb6049893cd82061fbdeb153e7481d36bd0fc38cb90e24c291a8f30baede908ed9624b8b3eda2e6ff5d0bf5de9461338b301cd82b700233488268b1b854dc26c00eff507bae46b4c5ac9b9b3b35b7bc2771ae836d03de02fd75092200c4b1f8aacccceaeda4ac50f9c63cc6af2b79d181a2bda12b8db0acc2ec78455d6b017849b1438933a49ae574292ed77d4ec72a5cd43a422e4adee91dc697dd75f1f4c9ed8ba290b1a2744854187be58165ed685da281f7968f877f4663ca4b4ed42a6efd40491cb03d1700c4205a113ed76c592a2c811ba7688e082ab9ed570e382be959b933921a6f5a5d03f17f78f04ff164b07e7f57b885ea7bdf8a39530ef4ef6cf8365d16994b69a4e4abf08b985df92be71f6a5d6a773861fe983a5a8b729b26a6aeb4acbadd3185237c89e9a385202a2ba836142e151a169e9ca7f7ba2d7db6462ebbf7dc95e071f66767140a884a8a04f0038c9f64c004360437a9737778ecf203e6a2014012656a517d8bf1a44aeb1994402d4035b3e0354d6d35ac4df2f73f670ac4c7639f4d9eb211dd74bd5eed5244bb45a5609f4e39019774bd324266cf901aede4ca800cb28de18ef990460b4fd17cf56a4b8ae3eccc93a46ec15866cb3fbf2ad1ddb0f3fadf97d8da2df7d1d74a466c044f5a10cf20f6658c9536f53128813c56dbcfebb22c6864612d708d9fce9d737e448feb9335e3954d04f8e5f02f70c17cf0f0a15f701a3d4e4d2657ce63834572feef800d3e91ba1b33adb83d36600c803d74a7b92080c821fb13465044bde80f57ce83ddb5fa43b85e87abd1e6b9c64eabd1cedf7674329624054418ecf76b71987bef05e7048c6484e13ee266f993fd59cd35f76ef7a03cfeb5929dd2c7a981fa44e68a423ade95c765c54b54492949e194b7e01049071ab7a925c747f51ebec990b0ae6e8757cfb0f25232c5ff1c954670058c7f542ee116c7deea597e4f8c97e6cd9b58bc2ed4abc4436b16002a81dc5bb8f96e3a2e99b3e1cdbc39948f02172d5bf45dde882ff9e73b0263c14704e565a8f0a630e7e559773d307c2a47b8d7a725f622115af4888529d5469e0b94db38a8db5a4d39f4d20deb251f46ac22a84e4ff3ac5c82f90b0835840bd04bf4d4387e2711b98192b31e1307ec263f6a144d5cc0440067b91637eca2bc173078368792e42841750b81ec2666c411e99f9411ad395706cde1a0e82e82027eec7bbdea4b131c7aa44cff46cd4f776dfbcaac159d0a1da154756542f813309b9e91c661eaa1590f2f9708092ed6174280bf3f738096360c89d7aa0966c29ad94e2f916024b458983f1feff4a59a2e6313688540ed15593c976e4981ea5be54b9a16b475ed083a4c12023a8ea604c1f1ddcc5708fcb711ba7e420c305f873ce8ff3192ca953bca6da826efc1129ce2aa9e4f675fe250ab7fd8b326697f3fbd520a2f2b36544b9b7b02da310975bfe354e822989a5e12a0a6bdeb7bf84e1ed8f69ac98dae3f9327397ac564f25e9b6ad316a44958948d8d847ec7a9981c444b978d7c8bb5f263400ae0a153109c144798a5c788eea4fd31d90beae2df69151ef9cf0ebbc6ad65db8c5e7b4bb80a04da2a7547624769f504866b8cacb5df58b5a4ed6e3542f6152c6b6eefa33767137d3a8ade21a94e1cbd778295297f983ce6840e5c41a71c1c9a73febf6c872ff6e7d17d6aa697177ed3c46c4037d8b8a90e25c3ff7d96a3e4ee5856f9faf133cf1d308b5aee243914c68e9b41fcc76af184aa5423290304d5df7d2a0e2f55186f0494e545b581264c977f614d3aaa0486b0871e8f8d23c4efcad386bd9b21f4eb27aeac4897b8a530b7e31feeed84e7e239b51e5ae175e70b3547a35129be1b8c4831ba3be2eb6e0acd81e9ab7fc5679d07c7a5fe1c50582d5b06b9599a6dad2fbef0b86c9a179836d6e92bff220298d9e4af93445a145206f13fda67becfd6c10f9bac0053424fa7d63a0f2981f6b7f76b0564f5e8e423067e86b2ae079148a9f1981768279eacd79e04697a85490a2c69b65a4d9f2dc0811c559bbfde1a9eb9ea0d2d2321e0c34be4706c3c780a8b21b8ed8b4fb9288f4694140dc0cdb9f9b1dd8df53a68568bd109ccc52e8fa455122bf668f5cea3ecc486e9dbc34078e17a4130c5687bb574b6a86a70d5e588d233198fe220737c818f24e8aca11b993c813b0024a2883dc17d67f5c0ef107088e5fdbf1e629a1bfe46119525e5265705593c8d258f83e6531b52c7e5889c10633e9ca7a1addb1eaa67486e39009cb60b5491d2f2ebf9addb0c5c2c8a3829474665d1e884ca6d6d2c04180fea996a24a21044922ee87b168077e9c0f846d04a687448ad9bcb5a640456a77394842fbe66ab774ecf7b706bc2fec9cbde18e0d5c77ef18db3aa3fc280f77dc262abd8df69182ce2883bc738ff84ffec5eaad35cde6e40b3b711f431635c5d19b85a6cd09826010d01b4fb33bab4affbe6ecb1d3e774fa248171592e40d029ea3dd865730f637ff7229bb3a526e6013e72f2e0701f2af8cd05bd7176c27f04b6d4bc855ca56772a45e80cc37bd9337e7eb7ca71eb09f83192206d9e8359a2afbe0fec2f2878fd6baee14f5a2e1f108ed21714077d76fc50d2711f89ea1c75e37211740843dc5af1c39f98d1b7de52adb828d2b9446c698a3bfbe19b059d85a5e11432b5225a7de8383f6be780b706192eefcb4207d82e6d5f9f5ca9d9ab657191597d4e97cf254b937fcbb94eda5bc237860fd53fac5e6d9e848202a31a462dab13954894e1f6ca48b64b45f4186615788a2e0aae0601496ed593a6a4009962987a5dea38c75084d9389ce4993e948500b6f0d2cdd9d883ca7e7bdc13f2b3715df82c8c900c24ffad189c79b1173e84f759a0d23e344b5f041a0b4c41498507040c21bcae61a440f65d5edf2756ca15178ecd352486fd66b434a092e1c2b1791762794325c2f64442c2a4d8b21f1748b1b3d828cca5cd4fdabe80c0117344f3a4fc5792292db9466f89959ea9ea85239542e2c60892d567dc0cf5a15703e9e65798aac4eb16f47f6e01ed89460ee4cf2abba2d39460711fee60644f3d043e5e0d8c092600b665e130cf62ce364f61159a7ea2c0a23cd10685c295cf31468912b094edf30c8aa8c5b54fae6bfbe0ba75c3e91bdb31044f39212406308a7ff612b370ec0b18b4781bca6069953aac17e90f4e14bd41b1ee4c15172a7c8290276595a981ea93a1b4be9ac67a883a82ec9ec4bcd9f6c33edcfdff9d0b3ba11f568adeefbb33574942121e57474ce92edf9f90c5221d9183737f1c9a684a68254b4df9c31f05d6a120ff47d86829eac0a479c3841de31ec4bd019f4b245d20128b4c279126bb63350a076d986bced75939fd39d5eca54edf2cd8994dc7d982ec1d14ba5ffac5835f8cce23c17dbc7b523781d060809161a2e39404a555661637d95dde646607888a2bbbfc3e2eafc000e10324661888994a4c2d5f2f8f90c0f19232f303657637fc0cdcf000000000000000000000000000000000000000000000000111c2b3801fd2105008103f007affeb9c9518cbdbe547203e09ad5600551d0b3788a3e852087c0cad50f605f8d9dc69f4ebac61b5f706d58965326304a787a0d0bf210406a99af0615923603de287f35fab07b6f63895ab06d3283379072115ab38d63e16b28cd2d01ff5dcaafbd1dbdd2794d41ba5616f7654400cb823d58df704ce56e26b3e670fc3a12efa9652f8351f0c32fac10f8289502d582ba197a7e50f523d2d307539b91f3e68db00a0549f6f7ebea9a60bca9b0537480be234ee17c81e1750c2803e389ae7d5f25b6d53d45363dcb2fc2612a128dbbd08d09e62c0438185bedbea3ea3c4af80070846ded4d6c5554c49bad27d092115180fd7173bde893eabd0c5b9daea929618601a8219778b4831553163a374ba8fda0300346da9246d6ab688a79a60d8ceb0313a5b801e524830dbbadd33233ba80257d769c04563d92bba641c93bbc6e0d72b6333e22c1b25d19df00db38e9ca57b41728fd9f612509c1208a2beb3fb7108a4b304777302ed3725354a7eaa366f5d4af7648462dc5a4d996c3444ae33e08e263103aa052dc8f570b65a50197b927ca997527868d12732358f06a341169d666fc65ef1f56c327b35e2e4f0b876e131426828e2174f8f7a873859bd77d85023eaf3b8130b518cbcadaa01f356a575ae171b75b1174c423470930298308c106f9bf61bb22e49d5408bd811a09ad851ef53a57e4276a0405a22a0d896afe01f4902633d70d6e1e9f587bde04a4d7bbbb313235edbe2b608e2b4bd098e92a831cf728b1c4a737dad8749c0b7c5725bcdf6da70bc49e587fc081e82f3ce66df3ab5bdaae249f3974ceafb434b6d21ddf9eedf2a6086194523eb10d996912f3b748e0a3a1b8ccad3e32bd836b176ee5b7946faf96fdf427a35b8bb9f05024687ab8268199c11676e90c863614686cf5686263495e62d72887bd5aa41be833dc8cf499e054b6e1838d2d7e616576011c4d9608012f6159092cae1e1ec288d9d3bdea7da268eaf0b4706b0c159bc6f53cd3499453ed1bb84d763d0cd644489f61301ce41dd2af289e00a833fda18e41226a047f552a952f4acb91f759d9953304156ae4640589d4b705901af4c5dfa07be36ce971eff48b7ec4d731c2626505fcf30ff1733d6e34e5aa14dcd6e61ef8f16977956aed31c9b646b2f9b9103cce5b60803e4b90f99d023f58ac25fda06421de0fbc1f7d6aed65a6c402b5c1f811bf6f9622ddf0a3d380e8c6b0fcbfeea7915687c3775aec0041bd7f7a788f808bc062a91515623c7cc983be6609f371f4f0a7e8c7b876d156714309894576ce2c259f34d4e0ef8d79fdd46dc4cf306f71146bcc046376512724736e7ae5164fbf7e8b888896ebfcb149211e673fdf07e74ae86864b3cb3405dd27daa68cdc8a6b2a580e7d8860b710ba1fb8c3ee488e5250ba5fd37d14a4114e88caf0c4edc71669e37c1be93bb90ca47fcde69af0a26e094e59a380b1adc6436614bbb29f23df561ac259f0b576a01bba3de429f7ae3832473bcb53fd7cc822ec788d61f28c4b17d0769c789059b0681caf54c23904b2baed6efe269c24a5ba30aad365eb3523eed6dcd41edf713ac5a76480670b744007467f476db3fdb5744c1d1c7384108a245216063e11647f292750bec71ce36bb09bd0196bf132b32a1ae17560318ae9798a8ab12bf41fb525340431173ab67589416ac44e6511a5dafa90d585ba1ea887177c899c52660cf374315b89125231e75ea38fe517e449d7d8c6accfc5e926dd284caa0469bbd1b5b7e23a12c4caf7919f857ca441fb9ec8ba914156b8f12c65e9eb266091b370ff815c22091ce30e288fda0c0ceffb3d9982866250dc492473000000",
  "txid": "524af80590427a8828da15c29076aa8e5c5480773ab29108085265846c642e4e",
  "hash": "52b50d0214b4d4fdacd9ce0a98f8771b5bcee866e91d84738372835a0797ba6e",
  "size": 5085,
  "vsize": 2278,
  "version": 1,
  "locktime": 115,
  "vin": [
    {
      "txid": "778b415a5fa2a3cf198f6017392e5ecbc1a97d68c9566c029bf4f19c7a8481a2",
      "vout": 1,
      "scriptSig": {
        "asm": "",
        "hex": ""
      },
      "txinwitness": [
        "2200c4b1f8aacccceaeda4ac50f9c63cc6af2b79d181a2bda12b8db0acc2ec78455d6b017849b1438933a49ae574292ed77d4ec72a5cd43a422e4adee91dc697dd75f1f4c9ed8ba290b1a2744854187be58165ed685da281f7968f877f4663ca4b4ed42a6efd40491cb03d1700c4205a113ed76c592a2c811ba7688e082ab9ed570e382be959b933921a6f5a5d03f17f78f04ff164b07e7f57b885ea7bdf8a39530ef4ef6cf8365d16994b69a4e4abf08b985df92be71f6a5d6a773861fe983a5a8b729b26a6aeb4acbadd3185237c89e9a385202a2ba836142e151a169e9ca7f7ba2d7db6462ebbf7dc95e071f66767140a884a8a04f0038c9f64c004360437a9737778ecf203e6a2014012656a517d8bf1a44aeb1994402d4035b3e0354d6d35ac4df2f73f670ac4c7639f4d9eb211dd74bd5eed5244bb45a5609f4e39019774bd324266cf901aede4ca800cb28de18ef990460b4fd17cf56a4b8ae3eccc93a46ec15866cb3fbf2ad1ddb0f3fadf97d8da2df7d1d74a466c044f5a10cf20f6658c9536f53128813c56dbcfebb22c6864612d708d9fce9d737e448feb9335e3954d04f8e5f02f70c17cf0f0a15f701a3d4e4d2657ce63834572feef800d3e91ba1b33adb83d36600c803d74a7b92080c821fb13465044bde80f57ce83ddb5fa43b85e87abd1e6b9c64eabd1cedf7674329624054418ecf76b71987bef05e7048c6484e13ee266f993fd59cd35f76ef7a03cfeb5929dd2c7a981fa44e68a423ade95c765c54b54492949e194b7e01049071ab7a925c747f51ebec990b0ae6e8757cfb0f25232c5ff1c954670058c7f542ee116c7deea597e4f8c97e6cd9b58bc2ed4abc4436b16002a81dc5bb8f96e3a2e99b3e1cdbc39948f02172d5bf45dde882ff9e73b0263c14704e565a8f0a630e7e559773d307c2a47b8d7a725f622115af4888529d5469e0b94db38a8db5a4d39f4d20deb251f46ac22a84e4ff3ac5c82f90b0835840bd04bf4d4387e2711b98192b31e1307ec263f6a144d5cc0440067b91637eca2bc173078368792e42841750b81ec2666c411e99f9411ad395706cde1a0e82e82027eec7bbdea4b131c7aa44cff46cd4f776dfbcaac159d0a1da154756542f813309b9e91c661eaa1590f2f9708092ed6174280bf3f738096360c89d7aa0966c29ad94e2f916024b458983f1feff4a59a2e6313688540ed15593c976e4981ea5be54b9a16b475ed083a4c12023a8ea604c1f1ddcc5708fcb711ba7e420c305f873ce8ff3192ca953bca6da826efc1129ce2aa9e4f675fe250ab7fd8b326697f3fbd520a2f2b36544b9b7b02da310975bfe354e822989a5e12a0a6bdeb7bf84e1ed8f69ac98dae3f9327397ac564f25e9b6ad316a44958948d8d847ec7a9981c444b978d7c8bb5f263400ae0a153109c144798a5c788eea4fd31d90beae2df69151ef9cf0ebbc6ad65db8c5e7b4bb80a04da2a7547624769f504866b8cacb5df58b5a4ed6e3542f6152c6b6eefa33767137d3a8ade21a94e1cbd778295297f983ce6840e5c41a71c1c9a73febf6c872ff6e7d17d6aa697177ed3c46c4037d8b8a90e25c3ff7d96a3e4ee5856f9faf133cf1d308b5aee243914c68e9b41fcc76af184aa5423290304d5df7d2a0e2f55186f0494e545b581264c977f614d3aaa0486b0871e8f8d23c4efcad386bd9b21f4eb27aeac4897b8a530b7e31feeed84e7e239b51e5ae175e70b3547a35129be1b8c4831ba3be2eb6e0acd81e9ab7fc5679d07c7a5fe1c50582d5b06b9599a6dad2fbef0b86c9a179836d6e92bff220298d9e4af93445a145206f13fda67becfd6c10f9bac0053424fa7d63a0f2981f6b7f76b0564f5e8e423067e86b2ae079148a9f1981768279eacd79e04697a85490a2c69b65a4d9f2dc0811c559bbfde1a9eb9ea0d2d2321e0c34be4706c3c780a8b21b8ed8b4fb9288f4694140dc0cdb9f9b1dd8df53a68568bd109ccc52e8fa455122bf668f5cea3ecc486e9dbc34078e17a4130c5687bb574b6a86a70d5e588d233198fe220737c818f24e8aca11b993c813b0024a2883dc17d67f5c0ef107088e5fdbf1e629a1bfe46119525e5265705593c8d258f83e6531b52c7e5889c10633e9ca7a1addb1eaa67486e39009cb60b5491d2f2ebf9addb0c5c2c8a3829474665d1e884ca6d6d2c04180fea996a24a21044922ee87b168077e9c0f846d04a687448ad9bcb5a640456a77394842fbe66ab774ecf7b706bc2fec9cbde18e0d5c77ef18db3aa3fc280f77dc262abd8df69182ce2883bc738ff84ffec5eaad35cde6e40b3b711f431635c5d19b85a6cd09826010d01b4fb33bab4affbe6ecb1d3e774fa248171592e40d029ea3dd865730f637ff7229bb3a526e6013e72f2e0701f2af8cd05bd7176c27f04b6d4bc855ca56772a45e80cc37bd9337e7eb7ca71eb09f83192206d9e8359a2afbe0fec2f2878fd6baee14f5a2e1f108ed21714077d76fc50d2711f89ea1c75e37211740843dc5af1c39f98d1b7de52adb828d2b9446c698a3bfbe19b059d85a5e11432b5225a7de8383f6be780b706192eefcb4207d82e6d5f9f5ca9d9ab657191597d4e97cf254b937fcbb94eda5bc237860fd53fac5e6d9e848202a31a462dab13954894e1f6ca48b64b45f4186615788a2e0aae0601496ed593a6a4009962987a5dea38c75084d9389ce4993e948500b6f0d2cdd9d883ca7e7bdc13f2b3715df82c8c900c24ffad189c79b1173e84f759a0d23e344b5f041a0b4c41498507040c21bcae61a440f65d5edf2756ca15178ecd352486fd66b434a092e1c2b1791762794325c2f64442c2a4d8b21f1748b1b3d828cca5cd4fdabe80c0117344f3a4fc5792292db9466f89959ea9ea85239542e2c60892d567dc0cf5a15703e9e65798aac4eb16f47f6e01ed89460ee4cf2abba2d39460711fee60644f3d043e5e0d8c092600b665e130cf62ce364f61159a7ea2c0a23cd10685c295cf31468912b094edf30c8aa8c5b54fae6bfbe0ba75c3e91bdb31044f39212406308a7ff612b370ec0b18b4781bca6069953aac17e90f4e14bd41b1ee4c15172a7c8290276595a981ea93a1b4be9ac67a883a82ec9ec4bcd9f6c33edcfdff9d0b3ba11f568adeefbb33574942121e57474ce92edf9f90c5221d9183737f1c9a684a68254b4df9c31f05d6a120ff47d86829eac0a479c3841de31ec4bd019f4b245d20128b4c279126bb63350a076d986bced75939fd39d5eca54edf2cd8994dc7d982ec1d14ba5ffac5835f8cce23c17dbc7b523781d060809161a2e39404a555661637d95dde646607888a2bbbfc3e2eafc000e10324661888994a4c2d5f2f8f90c0f19232f303657637fc0cdcf000000000000000000000000000000000000000000000000111c2b3801",
        "008103f007affeb9c9518cbdbe547203e09ad5600551d0b3788a3e852087c0cad50f605f8d9dc69f4ebac61b5f706d58965326304a787a0d0bf210406a99af0615923603de287f35fab07b6f63895ab06d3283379072115ab38d63e16b28cd2d01ff5dcaafbd1dbdd2794d41ba5616f7654400cb823d58df704ce56e26b3e670fc3a12efa9652f8351f0c32fac10f8289502d582ba197a7e50f523d2d307539b91f3e68db00a0549f6f7ebea9a60bca9b0537480be234ee17c81e1750c2803e389ae7d5f25b6d53d45363dcb2fc2612a128dbbd08d09e62c0438185bedbea3ea3c4af80070846ded4d6c5554c49bad27d092115180fd7173bde893eabd0c5b9daea929618601a8219778b4831553163a374ba8fda0300346da9246d6ab688a79a60d8ceb0313a5b801e524830dbbadd33233ba80257d769c04563d92bba641c93bbc6e0d72b6333e22c1b25d19df00db38e9ca57b41728fd9f612509c1208a2beb3fb7108a4b304777302ed3725354a7eaa366f5d4af7648462dc5a4d996c3444ae33e08e263103aa052dc8f570b65a50197b927ca997527868d12732358f06a341169d666fc65ef1f56c327b35e2e4f0b876e131426828e2174f8f7a873859bd77d85023eaf3b8130b518cbcadaa01f356a575ae171b75b1174c423470930298308c106f9bf61bb22e49d5408bd811a09ad851ef53a57e4276a0405a22a0d896afe01f4902633d70d6e1e9f587bde04a4d7bbbb313235edbe2b608e2b4bd098e92a831cf728b1c4a737dad8749c0b7c5725bcdf6da70bc49e587fc081e82f3ce66df3ab5bdaae249f3974ceafb434b6d21ddf9eedf2a6086194523eb10d996912f3b748e0a3a1b8ccad3e32bd836b176ee5b7946faf96fdf427a35b8bb9f05024687ab8268199c11676e90c863614686cf5686263495e62d72887bd5aa41be833dc8cf499e054b6e1838d2d7e616576011c4d9608012f6159092cae1e1ec288d9d3bdea7da268eaf0b4706b0c159bc6f53cd3499453ed1bb84d763d0cd644489f61301ce41dd2af289e00a833fda18e41226a047f552a952f4acb91f759d9953304156ae4640589d4b705901af4c5dfa07be36ce971eff48b7ec4d731c2626505fcf30ff1733d6e34e5aa14dcd6e61ef8f16977956aed31c9b646b2f9b9103cce5b60803e4b90f99d023f58ac25fda06421de0fbc1f7d6aed65a6c402b5c1f811bf6f9622ddf0a3d380e8c6b0fcbfeea7915687c3775aec0041bd7f7a788f808bc062a91515623c7cc983be6609f371f4f0a7e8c7b876d156714309894576ce2c259f34d4e0ef8d79fdd46dc4cf306f71146bcc046376512724736e7ae5164fbf7e8b888896ebfcb149211e673fdf07e74ae86864b3cb3405dd27daa68cdc8a6b2a580e7d8860b710ba1fb8c3ee488e5250ba5fd37d14a4114e88caf0c4edc71669e37c1be93bb90ca47fcde69af0a26e094e59a380b1adc6436614bbb29f23df561ac259f0b576a01bba3de429f7ae3832473bcb53fd7cc822ec788d61f28c4b17d0769c789059b0681caf54c23904b2baed6efe269c24a5ba30aad365eb3523eed6dcd41edf713ac5a76480670b744007467f476db3fdb5744c1d1c7384108a245216063e11647f292750bec71ce36bb09bd0196bf132b32a1ae17560318ae9798a8ab12bf41fb525340431173ab67589416ac44e6511a5dafa90d585ba1ea887177c899c52660cf374315b89125231e75ea38fe517e449d7d8c6accfc5e926dd284caa0469bbd1b5b7e23a12c4caf7919f857ca441fb9ec8ba914156b8f12c65e9eb266091b370ff815c22091ce30e288fda0c0ceffb3d9982866250dc4924"
      ],
      "sequence": 4294967294
    }
  ],
  "vout": [
    {
      "value": 499983.7296,
      "n": 0,
      "scriptPubKey": {
        "asm": "1 62d1464a1cfe9914004726625ec72bd0bc35365970ba763f8694bcb8a5fd35b8",
        "hex": "512062d1464a1cfe9914004726625ec72bd0bc35365970ba763f8694bcb8a5fd35b8",
        "reqSigs": 1,
        "type": "witness_v1_scripthash",
        "addresses": [
          "3QJmnh"
        ]
      }
    },
    {
      "value": 1.0,
      "n": 1,
      "scriptPubKey": {
        "asm": "OP_RETURN 8957e8c2308d46b5a2cddaaac450247dccaf44b6c21d57278fd325ed58f75c00 667fdd8b755e14e1b30bb09c58abf0822c497aef50da8d89688df644d8d38dc2465ffdab557e34c1932b90bc788bd0a20c695acf70faada948add664f8f3ade2263f9dcb351e54a1f34bf0dc18ebb0c26c093aaf109acdc928cdb6049893cd82061fbdeb153e7481d36bd0fc38cb90e24c291a8f30baede908ed9624b8b3eda2e6ff5d0bf5de9461338b301cd82b7002acc9fa6fd05a0d09e80d76c458530d42c6df7d2bd5feb44113ab103cf80b50228ce9da4ff07a2d29c82d56e478732d62a6bf1d4bb59ed42173cb705c986b3042ec89ba2f901a4d49a84d368418134d02869f3d6b95bef40153eb507cb84b1062cca99a0fb03a6d69886d16a438336d22667fdd8b755e14e1b30bb09c58abf0822c497aef50da8d89688df644d8d38dc2465ffdab557e34c1932b90bc788bd0a20c695acf70faada948add664f8f3ade2263f9dcb351e54a1f34bf0dc18ebb0c26c093aaf109acdc928cdb6049893cd82061fbdeb153e7481d36bd0fc38cb90e24c291a8f30baede908ed9624b8b3eda2e6ff5d0bf5de9461338b301cd82b7002acc9fa6fd05a0d09e80d76c458530d42c6df7d2bd5feb44113ab103cf80b50228ce9da4ff07a2d29c82d56e478732d62a6bf1d4bb59ed42173cb705c986b3042ec89ba2f901a4d49a84d368418134d02869f3d6b95bef40153eb507cb84b1062cca99a0fb03a6d69886d16a438336d22667fdd8b755e14e1b30bb09c58abf0822c497aef50da8d89688df644d8d38dc2465ffdab557e34c1932b90bc788bd0a20c695acf70faada948add664f8f3ade2263f9dcb351e54a1f34bf0dc18ebb0c26c093aaf109acdc928cdb6049893cd82061fbdeb153e7481d36bd0fc38cb90e24c291a8f30baede908ed9624b8b3eda2e6ff5d0bf5de9461338b301cd82b7002acc9fa6fd05a0d09e80d76c458530d42c6df7d2bd5feb44113ab103cf80b50228ce9da4ff07a2d29c82d56e478732d62a6bf1d4bb59ed42173cb705c986b3042ec89ba2f901a4d49a84d368418134d02869f3d6b95bef40153eb507cb84b1062cca99a0fb03a6d69886d16a438336d22667fdd8b755e14e1b30bb09c58abf0822c497aef50da8d89688df644d8d38dc2465ffdab557e34c1932b90bc788bd0a20c695acf70faada948add664f8f3ade2263f9dcb351e54a1f34bf0dc18ebb0c26c093aaf109acdc928cdb6049893cd82061fbdeb153e7481d36bd0fc38cb90e24c291a8f30baede908ed9624b8b3eda2e6ff5d0bf5de9461338b301cd82b7002acc9fa6fd05a0d09e80d76c458530d42c6df7d2bd5feb44113ab103cf80b50228ce9da4ff07a2d29c82d56e478732d62a6bf1d4bb59ed42173cb705c986b3042ec89ba2f901a4d49a84d368418134d02869f3d6b95bef40153eb507cb84b1062cca99a0fb03a6d69886d16a438336d22667fdd8b755e14e1b30bb09c58abf0822c497aef50da8d89688df644d8d38dc2465ffdab557e34c1932b90bc788bd0a20c695acf70faada948add664f8f3ade2263f9dcb351e54a1f34bf0dc18ebb0c26c093aaf109acdc928cdb6049893cd82061fbdeb153e7481d36bd0fc38cb90e24c291a8f30baede908ed9624b8b3eda2e6ff5d0bf5de9461338b301cd82b700233488268b1b854dc26c00eff507bae46b4c5ac9b9b3b35b7bc2771ae836d03de",
        "hex": "6a208957e8c2308d46b5a2cddaaac450247dccaf44b6c21d57278fd325ed58f75c004db004667fdd8b755e14e1b30bb09c58abf0822c497aef50da8d89688df644d8d38dc2465ffdab557e34c1932b90bc788bd0a20c695acf70faada948add664f8f3ade2263f9dcb351e54a1f34bf0dc18ebb0c26c093aaf109acdc928cdb6049893cd82061fbdeb153e7481d36bd0fc38cb90e24c291a8f30baede908ed9624b8b3eda2e6ff5d0bf5de9461338b301cd82b7002acc9fa6fd05a0d09e80d76c458530d42c6df7d2bd5feb44113ab103cf80b50228ce9da4ff07a2d29c82d56e478732d62a6bf1d4bb59ed42173cb705c986b3042ec89ba2f901a4d49a84d368418134d02869f3d6b95bef40153eb507cb84b1062cca99a0fb03a6d69886d16a438336d22667fdd8b755e14e1b30bb09c58abf0822c497aef50da8d89688df644d8d38dc2465ffdab557e34c1932b90bc788bd0a20c695acf70faada948add664f8f3ade2263f9dcb351e54a1f34bf0dc18ebb0c26c093aaf109acdc928cdb6049893cd82061fbdeb153e7481d36bd0fc38cb90e24c291a8f30baede908ed9624b8b3eda2e6ff5d0bf5de9461338b301cd82b7002acc9fa6fd05a0d09e80d76c458530d42c6df7d2bd5feb44113ab103cf80b50228ce9da4ff07a2d29c82d56e478732d62a6bf1d4bb59ed42173cb705c986b3042ec89ba2f901a4d49a84d368418134d02869f3d6b95bef40153eb507cb84b1062cca99a0fb03a6d69886d16a438336d22667fdd8b755e14e1b30bb09c58abf0822c497aef50da8d89688df644d8d38dc2465ffdab557e34c1932b90bc788bd0a20c695acf70faada948add664f8f3ade2263f9dcb351e54a1f34bf0dc18ebb0c26c093aaf109acdc928cdb6049893cd82061fbdeb153e7481d36bd0fc38cb90e24c291a8f30baede908ed9624b8b3eda2e6ff5d0bf5de9461338b301cd82b7002acc9fa6fd05a0d09e80d76c458530d42c6df7d2bd5feb44113ab103cf80b50228ce9da4ff07a2d29c82d56e478732d62a6bf1d4bb59ed42173cb705c986b3042ec89ba2f901a4d49a84d368418134d02869f3d6b95bef40153eb507cb84b1062cca99a0fb03a6d69886d16a438336d22667fdd8b755e14e1b30bb09c58abf0822c497aef50da8d89688df644d8d38dc2465ffdab557e34c1932b90bc788bd0a20c695acf70faada948add664f8f3ade2263f9dcb351e54a1f34bf0dc18ebb0c26c093aaf109acdc928cdb6049893cd82061fbdeb153e7481d36bd0fc38cb90e24c291a8f30baede908ed9624b8b3eda2e6ff5d0bf5de9461338b301cd82b7002acc9fa6fd05a0d09e80d76c458530d42c6df7d2bd5feb44113ab103cf80b50228ce9da4ff07a2d29c82d56e478732d62a6bf1d4bb59ed42173cb705c986b3042ec89ba2f901a4d49a84d368418134d02869f3d6b95bef40153eb507cb84b1062cca99a0fb03a6d69886d16a438336d22667fdd8b755e14e1b30bb09c58abf0822c497aef50da8d89688df644d8d38dc2465ffdab557e34c1932b90bc788bd0a20c695acf70faada948add664f8f3ade2263f9dcb351e54a1f34bf0dc18ebb0c26c093aaf109acdc928cdb6049893cd82061fbdeb153e7481d36bd0fc38cb90e24c291a8f30baede908ed9624b8b3eda2e6ff5d0bf5de9461338b301cd82b700233488268b1b854dc26c00eff507bae46b4c5ac9b9b3b35b7bc2771ae836d03de",
        "type": "nulldata"
      }
    }
  ],
  "blockhash": "b157fe5006ea74e3e2696296011f5383f171fa956e468cbbd84742f98a1af3af",
  "confirmations": 1,
  "time": 1764179051,
  "blocktime": 1764179051
}