{
  "hex": "01000000000101645a40acdfceca895dbd21b02d35e868e5994d6d4d4cce8ffa238f5ceea84d0d0000000000feffffff0200e1f50500000000fdd5046a201e347b2017c9f8a9c7619b8dc2faf2a2edc00622016aa6e554a9e594c5aea2c84db0044137d9f6ac1cac4c3b7f4c5a3e4a8068b61af0e9fa7376176453750428aa41af6117f9d68c3c8c6c1b5f6c7a1e6aa048963ad0c9da53563744735524088a618f017799b6ec5cec0c7b3f0c1a7e0ac028f65ab0a9ba3336572413354468ea01ef2157b996cc7ccc2c5b1f2c3a5e2ae008d67a90899a1316770433156448ca21cfc1b759762c9c2cccbbffccdabeca00e8369a70697af3f697e4d3f584a82ac12fe19779560cbc0cec9bdfecfa9eea20c816ba50495ad3d6b7c4f3d5a4880ae10f81f719366cdc6c8cfbbf8c9afe8a40a876da30293ab3b6d7a493b5c4e86a816fa1d739164cfc4cacdb9facbadeaa608856fa10091a9396f784b395e4c84aa14f4137d9f6ac1cac4c3b7f4c5a3e4a8068b61af0e9fa7376176453750428aa41af6117f9d68c3c8c6c1b5f6c7a1e6aa048963ad0c9da53563744735524088a618f017799b6ec5cec0c7b3f0c1a7e0ac028f65ab0a9ba3336572413354468ea01ef2157b996cc7ccc2c5b1f2c3a5e2ae008d67a90899a1316770433156448ca21cfc1b759762c9c2cccbbffccdabeca00e8369a70697af3f697e4d3f584a82ac12fe19779560cbc0cec9bdfecfa9eea20c816ba50495ad3d6b7c4f3d5a4880ae10f81f719366cdc6c8cfbbf8c9afe8a40a876da30293ab3b6d7a493b5c4e86a816fa1d739164cfc4cacdb9facbadeaa608856fa10091a9396f784b395e4c84aa14f4137d9f6ac1cac4c3b7f4c5a3e4a8068b61af0e9fa7376176453750428aa41af6117f9d68c3c8c6c1b5f6c7a1e6aa048963ad0c9da53563744735524088a618f017799b6ec5cec0c7b3f0c1a7e0ac028f65ab0a9ba3336572413354468ea01ef2157b996cc7ccc2c5b1f2c3a5e2ae008d67a90899a1316770433156448ca21cfc1b759762c9c2cccbbffccdabeca00e8369a70697af3f697e4d3f584a82ac12fe19779560cbc0cec9bdfecfa9eea20c816ba50495ad3d6b7c4f3d5a4880ae10f81f719366cdc6c8cfbbf8c9afe8a40a876da30293ab3b6d7a493b5c4e86a816fa1d739164cfc4cacdb9facbadeaa608856fa10091a9396f784b395e4c84aa14f4137d9f6ac1cac4c3b7f4c5a3e4a8068b61af0e9fa7376176453750428aa41af6117f9d68c3c8c6c1b5f6c7a1e6aa048963ad0c9da53563744735524088a618f017799b6ec5cec0c7b3f0c1a7e0ac028f65ab0a9ba3336572413354468ea01ef2157b996cc7ccc2c5b1f2c3a5e2ae008d67a90899a1316770433156448ca21cfc1b759762c9c2cccbbffccdabeca00e8369a70697af3f697e4d3f584a82ac12fe19779560cbc0cec9bdfecfa9eea20c816ba50495ad3d6b7c4f3d5a4880ae10f81f719366cdc6c8cfbbf8c9afe8a40a876da30293ab3b6d7a493b5c4e86a816fa1d739164cfc4cacdb9facbadeaa608856fa10091a9396f784b395e4c84aa14f4137d9f6ac1cac4c3b7f4c5a3e4a8068b61af0e9fa7376176453750428aa41af6117f9d68c3c8c6c1b5f6c7a1e6aa048963ad0c9da53563744735524088a618f017799b6ec5cec0c7b3f0c1a7e0ac028f65ab0a9ba3336572413354468ea01ef2157b996cc7ccc2c5b1f2c3a5e2ae008d67a90899a1316770433156448ca21cfc1b759762c9c2cccbbffccdabeca00e860d85b548843c5eddf708a14df42af806afeeda92038b937fd893d0804735305c02309ae782d00002251204d1161ac4bc7c87231f51a7f868adba78185f965b332251ba5f71cefd3da03ef02fd7509a0b4fee8bb554e5727238e950edd0bfb0c8f4600b5d7d2055115495740330416838edac827df6fe353fe69c8b87f0ad36c64c04e64595fcc2fd5783e4a98c17cd2293d6cecc35c3d205fbf31263d01573d63b360afa171d4108a284bd87f7b31fb8a1823bab6023c8c4a5eee23e1267df2c644756b4f514dd728374570b85ac17adfe283e7943c9534dc9d1ff9f47c699a714bab9f91cdac370a0c0ebf7bf785010828a33bafebf412d614975d94395adcfdf8b3159602cca1adc569f81a7d32c4e0d101765a5cddda3fa44bb6e8abd5c956029ca6c1a3defa97fc8838d22ea0f37c207af63eda6b810dfe7b899eba3d1709319638b7617fef55477ec67c99b6d603fe5564d441d663ef5c25c4e9f89f825fcb0b24f509b18ec960767d7a108356e146e1d727b42005d9f3c12ba75c7ab04b867c183c7fe22b79de816b1ff23766e75506a3760948ba424c28338095ee504749302347a7c78f64844303ab0c8e0ce807639df02e1a4c1db89dd8898bce509e3f0001462671d31181a5855bb3fe89b6c4fde919eccd6eeada381e783930a35d24d7025ebdfddc622cc8ea1c45fffaab9c01f415508f25ed9e264548632c352a9c248a546be303c0b143023f5302286a7bc28c58f72fffd4d7809f0391b9cd8c3e2e4d33f069a0dfed4b680fc85a8936e927384108d9c5c69c1ae4c262787218a2efbaa2699c3bca7dbf69db2e83a7845de5aba84c857e1844cf904a05c013f9e04f7db48135661c6d10c1b38a6ab2245ff386d4464bf2c50e32c08c5814c154a65317d0077997502292fbbd4719fbc806d1cb110eb4f906a8893d70598a007f93d3b60e452333c457911d7a474f94d8c12dad13d86583dae6491f992e1b29824d5de0c3bc324f810c407e70b5b5e76667e16553debc30dab58714188d0c5f250237520ddc68e690b2924de206feb1c5e33c92c560c11eae6f865fee6e15fe27e0ff74053cb53e365fab05786f38809906390bf118747be90b4e020f4fa92e84e8f54d116c50ef3859b5164d77fc2bdfa8173f3647b0088c01d2135eb56782d0be4800b0537235ceda03d57263e8d004c7835e892c72401a3733773a18967ec6b601a002bc3b6a1f0df04450e521f3ea365c7222c619ac95d02a6a2ea72fc1f820c2b5fdb9e6134e7cbc58aec32aaf9a9e0839952095bffcd3d5d8f4c58f215d90465eafc79510fc4397aefad428656d9768424dfdb4b9002e86fbef6cca047f766c9f1a621a11d785958a07ea466251de2bd9c321c48c7b63e58fcb478a527acb6dc476cd8282faac88d45f72c9c8a2e6f5ba88405b9e9a00a9f13f2958324d0fd4be68871d5cda2c8ca49954aca3b027d0c42f4aa7987455d871d318e057642f76f991171fc6905cc92f66cfff2757605992d8d2735f7e748d03449b8a0eaa7ae4a0d2ceb1be1aef3c30255867fe5a6f0531e33933d0d3826fc1b91337c221404bb9c0b24e18164259e1cbecadad811affa189e6aeb5493e2594ab4ab8e95764e933e631b606097152af1c0db890cff91b2ffd0350927d6aabb584835435583a3d784c11ff965b9a63a0c6012c1e3a3a33bca221c98233b8da83ee79de2026686dd1ce2336d06f0f2b08817b9672c3a633630223188113b8e5ac92d20f530b8942f4986492b10c51243528288419e50daf328d8275db5c7e7594dc20ae7411a5d883482e31531f7a4b0f8cd6714bd7ba9d84b77ef0319b33fd12aa8d678337c7f0da01670eb307523f85de8320fc81c99096d77a7c8ab7813b5176526748e01a810e403067d3e35b8111898a9764152e54becf0bb03d470314ac64d3ee4faa73305d858b8f4b88ad8e418912aa50b092b2f43176a0628b7579134fe102ebc70382656536077266e5ccad5caa557d45f558c2ffba6294d53e934aebdc353b88142fec01cfe1df244a16150eb422c7184a3dc9e23ab38eb3bed5648fdb76f435d8c08cd1417429c4deadc8a18f647991b217c7e97ab886bd0ecca9fbfd5a48ea27da0e886c2d5e9e7ee7bce1438021dcadaa737ceaf53249a86bf293099ee65a2469a39ce7d07d4ec12b123f640e9ad5d04635ab9cd343b38f68fcd6530c7e38588a0b4644a5f4f5a95e979c4f2742b98ded46fd96645cee85c90a9af5aaab32bebf968a92724d4e5e9c372ad6898c0786044acd19620b162fc9354c996922bfab97e53d0052215ca87ac1e5cabe116d5d1067b102fac3483bc9f1d8734d8642950ab1835663d6a891f52f3b1aabeba0293ba0083cd0e48479568310666c7d213ad3383fb389ffc3670e42e24508e18d56838ab57797afdc9067e33ce121d47b6d12968c508384b8c04de662bfb908111b2eb85e16c3d70819093791f663d8dc39d0a0849d954d56295802860dd7050ba69d5d72fbaac61359374d694caaf1e402f3e39ed81113d172affc12cd3ed63ef5ab4a7af1f5537b48231e3e0a10da1b43aeafe5fe4bc018ce8ee51657d21b3c2424c2504a5ed0f711c96cccadb2e50c3cf6fd107e1b9e10d1f9e58057f30fa1eeefa745911dcb7d50e28e36bcb639d9fc8a37772a747b33033f33b3de12189e5417aa79d1724e41f4e1c355177f8fe9b6ed75899c5b3676a311e612810f54b1354c752ace53a4308f614804d2a06677b73b712e683272acc632c03035f35839755fa692b2397f5b3b0e9eea0b60db4ca89cd40bde6226e2d8a4a792462584bf214e19b808323aabc1399586c6b805e580032ebdef742cdff184fdcf90bff7d797a034e2df29726066d123c3920d02009b62224a6fdad4bd91feff81b58ddabc7648e30c55e83ce1636b7c734ef9db85100ef9717556ddc938a06dbd79ed159bd66084a5a031aa5d2ce03541a45f22ac78eb9e53941248b04d144c100852f460a6446025425b4c8351d739916d7ea474edb84efb4ec0b25ae0c6beeca325846ca120930faa63975f08866615e8713e2154406170158e24f06b770e361cab57317a8b9148303b1b8f0f5a09dff9e54c48a9bb68a00a530d64abc8bc4430e91c75efc0bf1dab723bd803862d0a2b6e88dffa0351658fe614f9cdfd76f2a69d71c936928ef2c5ffc1d9b23ca57ac6abccef75986c1e7e88e91dd10502eb89269dfd1c0be463dad841f386c2a7ba0a5f8f8aec58bd040d845d218bd9436b7f921a0eeab7466537ab0a60597ae4e650be8ab196e0a10c537f0f86b1d417d011b62523d53fd241380ef7087c914291a3a8e6fc8842cea9f5a9234e85c8757b1971d9c619ab0e0b62929b9af141b34dcfcc841ff296a5d3096d6e688449c526e1b10920283e495c61797d83939def0315191d21393b404286909da9b6bfd9eef1f22e3252565b717b90a4acb3bbbfccd3e9f0f60e101e395569808e8fa2d0d4d6ddeafb00000000000000000000000000000d20324201fd210500400217fbbc27937296b0cd226d17b21c1a8c65d61fef5711b1bdbeb9d52a72e19c76e77b32c8d76cb8246052ebe4be4740dae05eda7b1066e224d87b01b82d0ab67cfa018f4b684029170275a7190f4aaf95ab09e7a942f86c1199312b7399121f574391fc680da1d4dce5b4d660afe3d8cda103751fa636a1dbe75bc40ea5e48f19f3b858dd6460c0341969d49850d660feabf58333c4215e1e4b80b7fb7cb950e1a6b0b8e1231e4951ce4b239e185116ac444407c71477f4776641bd46bf0ed739169ebd7c8ed1233cd59d8b18e8f02f4437b83dee9f97c38d238e7ff57d779dd20c0e043f212fd24aaa66211705ac6bb8fbd4c0d2e56442d85044007aad1b42626985feafe49a5afad4a49041c984bb6b813ecc6466e24fa0ed6b3bb18a5a5b7f53695542475530c053be0aec5896eb59790446aa7338de63aad2e091ef4843fbd5e74fee1a5ed0dfe33cded367c04dae0c2568997f12f7b9a2eb36896397190a604d31032d3f57d959f6c92351b8e94cea6f382e2440d00d24ef25937dd0bb14a41a4e3e55aca5d7dea5e875f00d25abf3cac3e09ec74166d6a3895e4549b4817e8c169cf419e99bcca97b5376adb7c0bce02522fb279eb50c12051f3581867abe9833e095e3bd781608d1de49f981a1e60810baa05ddc1a2ac4ba59dda1ef5cc0831b86be27044ba3c2db33ba3484e7d20ae3e4488442619c95c5ddc04759f00151223e99ebf8890cbef24423171aa7525d57cee3ee3ae1dd402c9136d730b41d31eaf2a6c1c6dbceaaae4a3dcf2aad634efb1cd9643df8fc8bc6e693dfac162e44ce5813af8ed120c2950bd741ab05eec000312f1332471700c49fe4b297368cfbe40245f88fb3d4b612f33fbd629fec7748ce3d5917a65d6df973461c46c0fd8e172ec286e85a78ff5438a613e84bbdc72c5f1588cee1c19fdecd9e74f270caf5302126ae1a0c384cc67d12a5c5f767ff768bf880b0ab4ddcc026629eeca7460dd0a9f576bdcf0fc28594843980d5aa79febd0cebbcd421c421148d533ac796b441f62fb30b326885e733e91299255e71779fc676052668d6625accc55fc7812e4f714ef61706edbcbba55cbb29134db4e90dd2163b9aa1b8a60cf52c2590c06bc222bfe4dba0e2418723718f2dd93c906ece57156c2d18a1709958d4b9874fdcd5e40189af028fc3340876655e43dcbccb673465d985dc98eb02ecb1ad2ee46c120eeb01c466ba92354762081366a7ebcb0ac85281b1b539c66cccfefdae2d652781ef755cc98cd60991fc94767da2097aa24a6a03070b557e3856aadd33e8be904d2612a3b8f9d9cdd54d7ff752985e1a55cbee68faca0b47804fe68b8e8eabf8328018481f12e2da144f60cf4fbcbf8f6208bd4c33bdeec865a3bb76ced5df95264482e39b13afe88c64210f96d59ff8aa9826fcb13b21adff88312e2507e82d173b983f97f13281ea3131feeea082dc19db21b6315b750591483dcfe5b9e3699532f322c6ebf0ebf2686464112de755f93b7b32acfa9b34d62ed9d92aaf8ac8ea346c2456cda9a5df4e70241ef41b89594d00a16a4a4adfed73e77f9fc5419e7e54ab976f2d993ba3f4e1097e3496f04de10299d1c325aed9afe97fc6bcd3602208ba850de198c0cd14b6c825e2b0fb15219cb1fda0313f3c61f8884fc616a96779a61d81366fd84017f870352dd5c77e01e213c355de4e340718330273ccf98a8af361c2cf574b35efbc39f6aae0e63b6ec826a009312286490b56a1e27edca37fef9476cf4496ad0c84371a65c1bf4fc8a92712b4947649c84a7b462e96670e0d94558f9efbfcd667af7839ccd44f1ac3e7ac8e93d561ddb70686000000",
  "txid": "517471447c94ba007708a11c91a1281851144b175e4c6496279a502644fe9adf",
  "hash": "2f266b7055a1d9e0c2a21cd9bfee43cd746131e02df3af63a54fdb35f786e7f3",
  "size": 5085,
  "vsize": 2278,
  "version": 1,
  "locktime": 134,
  "vin": [
    {
      "txid": "0d4da8ee5c8f23fa8fce4c4d6d4d99e568e8352db021bd5d89cacedfac405a64",
      "vout": 0,
      "scriptSig": {
        "asm": "",
        "hex": ""
      },
      "txinwitness": [
        "a0b4fee8bb554e5727238e950edd0bfb0c8f4600b5d7d2055115495740330416838edac827df6fe353fe69c8b87f0ad36c64c04e64595fcc2fd5783e4a98c17cd2293d6cecc35c3d205fbf31263d01573d63b360afa171d4108a284bd87f7b31fb8a1823bab6023c8c4a5eee23e1267df2c644756b4f514dd728374570b85ac17adfe283e7943c9534dc9d1ff9f47c699a714bab9f91cdac370a0c0ebf7bf785010828a33bafebf412d614975d94395adcfdf8b3159602cca1adc569f81a7d32c4e0d101765a5cddda3fa44bb6e8abd5c956029ca6c1a3defa97fc8838d22ea0f37c207af63eda6b810dfe7b899eba3d1709319638b7617fef55477ec67c99b6d603fe5564d441d663ef5c25c4e9f89f825fcb0b24f509b18ec960767d7a108356e146e1d727b42005d9f3c12ba75c7ab04b867c183c7fe22b79de816b1ff23766e75506a3760948ba424c28338095ee504749302347a7c78f64844303ab0c8e0ce807639df02e1a4c1db89dd8898bce509e3f0001462671d31181a5855bb3fe89b6c4fde919eccd6eeada381e783930a35d24d7025ebdfddc622cc8ea1c45fffaab9c01f415508f25ed9e264548632c352a9c248a546be303c0b143023f5302286a7bc28c58f72fffd4d7809f0391b9cd8c3e2e4d33f069a0dfed4b680fc85a8936e927384108d9c5c69c1ae4c262787218a2efbaa2699c3bca7dbf69db2e83a7845de5aba84c857e1844cf904a05c013f9e04f7db48135661c6d10c1b38a6ab2245ff386d4464bf2c50e32c08c5814c154a65317d0077997502292fbbd4719fbc806d1cb110eb4f906a8893d70598a007f93d3b60e452333c457911d7a474f94d8c12dad13d86583dae6491f992e1b29824d5de0c3bc324f810c407e70b5b5e76667e16553debc30dab58714188d0c5f250237520ddc68e690b2924de206feb1c5e33c92c560c11eae6f865fee6e15fe27e0ff74053cb53e365fab05786f38809906390bf118747be90b4e020f4fa92e84e8f54d116c50ef3859b5164d77fc2bdfa8173f3647b0088c01d2135eb56782d0be4800b0537235ceda03d57263e8d004c7835e892c72401a3733773a18967ec6b601a002bc3b6a1f0df04450e521f3ea365c7222c619ac95d02a6a2ea72fc1f820c2b5fdb9e6134e7cbc58aec32aaf9a9e0839952095bffcd3d5d8f4c58f215d90465eafc79510fc4397aefad428656d9768424dfdb4b9002e86fbef6cca047f766c9f1a621a11d785958a07ea466251de2bd9c321c48c7b63e58fcb478a527acb6dc476cd8282faac88d45f72c9c8a2e6f5ba88405b9e9a00a9f13f2958324d0fd4be68871d5cda2c8ca49954aca3b027d0c42f4aa7987455d871d318e057642f76f991171fc6905cc92f66cfff2757605992d8d2735f7e748d03449b8a0eaa7ae4a0d2ceb1be1aef3c30255867fe5a6f0531e33933d0d3826fc1b91337c221404bb9c0b24e18164259e1cbecadad811affa189e6aeb5493e2594ab4ab8e95764e933e631b606097152af1c0db890cff91b2ffd0350927d6aabb584835435583a3d784c11ff965b9a63a0c6012c1e3a3a33bca221c98233b8da83ee79de2026686dd1ce2336d06f0f2b08817b9672c3a633630223188113b8e5ac92d20f530b8942f4986492b10c51243528288419e50daf328d8275db5c7e7594dc20ae7411a5d883482e31531f7a4b0f8cd6714bd7ba9d84b77ef0319b33fd12aa8d678337c7f0da01670eb307523f85de8320fc81c99096d77a7c8ab7813b5176526748e01a810e403067d3e35b8111898a9764152e54becf0bb03d470314ac64d3ee4faa73305d858b8f4b88ad8e418912aa50b092b2f43176a0628b7579134fe102ebc70382656536077266e5ccad5caa557d45f558c2ffba6294d53e934aebdc353b88142fec01cfe1df244a16150eb422c7184a3dc9e23ab38eb3bed5648fdb76f435d8c08cd1417429c4deadc8a18f647991b217c7e97ab886bd0ecca9fbfd5a48ea27da0e886c2d5e9e7ee7bce1438021dcadaa737ceaf53249a86bf293099ee65a2469a39ce7d07d4ec12b123f640e9ad5d04635ab9cd343b38f68fcd6530c7e38588a0b4644a5f4f5a95e979c4f2742b98ded46fd96645cee85c90a9af5aaab32bebf968a92724d4e5e9c372ad6898c0786044acd19620b162fc9354c996922bfab97e53d0052215ca87ac1e5cabe116d5d1067b102fac3483bc9f1d8734d8642950ab1835663d6a891f52f3b1aabeba0293ba0083cd0e48479568310666c7d213ad3383fb389ffc3670e42e24508e18d56838ab57797afdc9067e33ce121d47b6d12968c508384b8c04de662bfb908111b2eb85e16c3d70819093791f663d8dc39d0a0849d954d56295802860dd7050ba69d5d72fbaac61359374d694caaf1e402f3e39ed81113d172affc12cd3ed63ef5ab4a7af1f5537b48231e3e0a10da1b43aeafe5fe4bc018ce8ee51657d21b3c2424c2504a5ed0f711c96cccadb2e50c3cf6fd107e1b9e10d1f9e58057f30fa1eeefa745911dcb7d50e28e36bcb639d9fc8a37772a747b33033f33b3de12189e5417aa79d1724e41f4e1c355177f8fe9b6ed75899c5b3676a311e612810f54b1354c752ace53a4308f614804d2a06677b73b712e683272acc632c03035f35839755fa692b2397f5b3b0e9eea0b60db4ca89cd40bde6226e2d8a4a792462584bf214e19b808323aabc1399586c6b805e580032ebdef742cdff184fdcf90bff7d797a034e2df29726066d123c3920d02009b62224a6fdad4bd91feff81b58ddabc7648e30c55e83ce1636b7c734ef9db85100ef9717556ddc938a06dbd79ed159bd66084a5a031aa5d2ce03541a45f22ac78eb9e53941248b04d144c100852f460a6446025425b4c8351d739916d7ea474edb84efb4ec0b25ae0c6beeca325846ca120930faa63975f08866615e8713e2154406170158e24f06b770e361cab57317a8b9148303b1b8f0f5a09dff9e54c48a9bb68a00a530d64abc8bc4430e91c75efc0bf1dab723bd803862d0a2b6e88dffa0351658fe614f9cdfd76f2a69d71c936928ef2c5ffc1d9b23ca57ac6abccef75986c1e7e88e91dd10502eb89269dfd1c0be463dad841f386c2a7ba0a5f8f8aec58bd040d845d218bd9436b7f921a0eeab7466537ab0a60597ae4e650be8ab196e0a10c537f0f86b1d417d011b62523d53fd241380ef7087c914291a3a8e6fc8842cea9f5a9234e85c8757b1971d9c619ab0e0b62929b9af141b34dcfcc841ff296a5d3096d6e688449c526e1b10920283e495c61797d83939def0315191d21393b404286909da9b6bfd9eef1f22e3252565b717b90a4acb3bbbfccd3e9f0f60e101e395569808e8fa2d0d4d6ddeafb00000000000000000000000000000d20324201",
        "00400217fbbc27937296b0cd226d17b21c1a8c65d61fef5711b1bdbeb9d52a72e19c76e77b32c8d76cb8246052ebe4be4740dae05eda7b1066e224d87b01b82d0ab67cfa018f4b684029170275a7190f4aaf95ab09e7a942f86c1199312b7399121f574391fc680da1d4dce5b4d660afe3d8cda103751fa636a1dbe75bc40ea5e48f19f3b858dd6460c0341969d49850d660feabf58333c4215e1e4b80b7fb7cb950e1a6b0b8e1231e4951ce4b239e185116ac444407c71477f4776641bd46bf0ed739169ebd7c8ed1233cd59d8b18e8f02f4437b83dee9f97c38d238e7ff57d779dd20c0e043f212fd24aaa66211705ac6bb8fbd4c0d2e56442d85044007aad1b42626985feafe49a5afad4a49041c984bb6b813ecc6466e24fa0ed6b3bb18a5a5b7f53695542475530c053be0aec5896eb59790446aa7338de63aad2e091ef4843fbd5e74fee1a5ed0dfe33cded367c04dae0c2568997f12f7b9a2eb36896397190a604d31032d3f57d959f6c92351b8e94cea6f382e2440d00d24ef25937dd0bb14a41a4e3e55aca5d7dea5e875f00d25abf3cac3e09ec74166d6a3895e4549b4817e8c169cf419e99bcca97b5376adb7c0bce02522fb279eb50c12051f3581867abe9833e095e3bd781608d1de49f981a1e60810baa05ddc1a2ac4ba59dda1ef5cc0831b86be27044ba3c2db33ba3484e7d20ae3e4488442619c95c5ddc04759f00151223e99ebf8890cbef24423171aa7525d57cee3ee3ae1dd402c9136d730b41d31eaf2a6c1c6dbceaaae4a3dcf2aad634efb1cd9643df8fc8bc6e693dfac162e44ce5813af8ed120c2950bd741ab05eec000312f1332471700c49fe4b297368cfbe40245f88fb3d4b612f33fbd629fec7748ce3d5917a65d6df973461c46c0fd8e172ec286e85a78ff5438a613e84bbdc72c5f1588cee1c19fdecd9e74f270caf5302126ae1a0c384cc67d12a5c5f767ff768bf880b0ab4ddcc026629eeca7460dd0a9f576bdcf0fc28594843980d5aa79febd0cebbcd421c421148d533ac796b441f62fb30b326885e733e91299255e71779fc676052668d6625accc55fc7812e4f714ef61706edbcbba55cbb29134db4e90dd2163b9aa1b8a60cf52c2590c06bc222bfe4dba0e2418723718f2dd93c906ece57156c2d18a1709958d4b9874fdcd5e40189af028fc3340876655e43dcbccb673465d985dc98eb02ecb1ad2ee46c120eeb01c466ba92354762081366a7ebcb0ac85281b1b539c66cccfefdae2d652781ef755cc98cd60991fc94767da2097aa24a6a03070b557e3856aadd33e8be904d2612a3b8f9d9cdd54d7ff752985e1a55cbee68faca0b47804fe68b8e8eabf8328018481f12e2da144f60cf4fbcbf8f6208bd4c33bdeec865a3bb76ced5df95264482e39b13afe88c64210f96d59ff8aa9826fcb13b21adff88312e2507e82d173b983f97f13281ea3131feeea082dc19db21b6315b750591483dcfe5b9e3699532f322c6ebf0ebf2686464112de755f93b7b32acfa9b34d62ed9d92aaf8ac8ea346c2456cda9a5df4e70241ef41b89594d00a16a4a4adfed73e77f9fc5419e7e54ab976f2d993ba3f4e1097e3496f04de10299d1c325aed9afe97fc6bcd3602208ba850de198c0cd14b6c825e2b0fb15219cb1fda0313f3c61f8884fc616a96779a61d81366fd84017f870352dd5c77e01e213c355de4e340718330273ccf98a8af361c2cf574b35efbc39f6aae0e63b6ec826a009312286490b56a1e27edca37fef9476cf4496ad0c84371a65c1bf4fc8a92712b4947649c84a7b462e96670e0d94558f9efbfcd667af7839ccd44f1ac3e7ac8e93d561ddb706"
      ],
      "sequence": 4294967294
    }
  ],
  "vout": [
    {
      "value": 1.0,
      "n": 0,
      "scriptPubKey": {
        "asm": "OP_RETURN 1e347b2017c9f8a9c7619b8dc2faf2a2edc00622016aa6e554a9e594c5aea2c8 4137d9f6ac1cac4c3b7f4c5a3e4a8068b61af0e9fa7376176453750428aa41af6117f9d68c3c8c6c1b5f6c7a1e6aa048963ad0c9da53563744735524088a618f017799b6ec5cec0c7b3f0c1a7e0ac028f65ab0a9ba3336572413354468ea01ef2157b996cc7ccc2c5b1f2c3a5e2ae008d67a90899a1316770433156448ca21cfc1b759762c9c2cccbbffccdabeca00e8369a70697af3f697e4d3f584a82ac12fe19779560cbc0cec9bdfecfa9eea20c816ba50495ad3d6b7c4f3d5a4880ae10f81f719366cdc6c8cfbbf8c9afe8a40a876da30293ab3b6d7a493b5c4e86a816fa1d739164cfc4cacdb9facbadeaa608856fa10091a9396f784b395e4c84aa14f4137d9f6ac1cac4c3b7f4c5a3e4a8068b61af0e9fa7376176453750428aa41af6117f9d68c3c8c6c1b5f6c7a1e6aa048963ad0c9da53563744735524088a618f017799b6ec5cec0c7b3f0c1a7e0ac028f65ab0a9ba3336572413354468ea01ef2157b996cc7ccc2c5b1f2c3a5e2ae008d67a90899a1316770433156448ca21cfc1b759762c9c2cccbbffccdabeca00e8369a70697af3f697e4d3f584a82ac12fe19779560cbc0cec9bdfecfa9eea20c816ba50495ad3d6b7c4f3d5a4880ae10f81f719366cdc6c8cfbbf8c9afe8a40a876da30293ab3b6d7a493b5c4e86a816fa1d739164cfc4cacdb9facbadeaa608856fa10091a9396f784b395e4c84aa14f4137d9f6ac1cac4c3b7f4c5a3e4a8068b61af0e9fa7376176453750428aa41af6117f9d68c3c8c6c1b5f6c7a1e6aa048963ad0c9da53563744735524088a618f017799b6ec5cec0c7b3f0c1a7e0ac028f65ab0a9ba3336572413354468ea01ef2157b996cc7ccc2c5b1f2c3a5e2ae008d67a90899a1316770433156448ca21cfc1b759762c9c2cccbbffccdabeca00e8369a70697af3f697e4d3f584a82ac12fe19779560cbc0cec9bdfecfa9eea20c816ba50495ad3d6b7c4f3d5a4880ae10f81f719366cdc6c8cfbbf8c9afe8a40a876da30293ab3b6d7a493b5c4e86a816fa1d739164cfc4cacdb9facbadeaa608856fa10091a9396f784b395e4c84aa14f4137d9f6ac1cac4c3b7f4c5a3e4a8068b61af0e9fa7376176453750428aa41af6117f9d68c3c8c6c1b5f6c7a1e6aa048963ad0c9da53563744735524088a618f017799b6ec5cec0c7b3f0c1a7e0ac028f65ab0a9ba3336572413354468ea01ef2157b996cc7ccc2c5b1f2c3a5e2ae008d67a90899a1316770433156448ca21cfc1b759762c9c2cccbbffccdabeca00e8369a70697af3f697e4d3f584a82ac12fe19779560cbc0cec9bdfecfa9eea20c816ba50495ad3d6b7c4f3d5a4880ae10f81f719366cdc6c8cfbbf8c9afe8a40a876da30293ab3b6d7a493b5c4e86a816fa1d739164cfc4cacdb9facbadeaa608856fa10091a9396f784b395e4c84aa14f4137d9f6ac1cac4c3b7f4c5a3e4a8068b61af0e9fa7376176453750428aa41af6117f9d68c3c8c6c1b5f6c7a1e6aa048963ad0c9da53563744735524088a618f017799b6ec5cec0c7b3f0c1a7e0ac028f65ab0a9ba3336572413354468ea01ef2157b996cc7ccc2c5b1f2c3a5e2ae008d67a90899a1316770433156448ca21cfc1b759762c9c2cccbbffccdabeca00e860d85b548843c5eddf708a14df42af806afeeda92038b937fd893d0804735305",
        "hex": "6a201e347b2017c9f8a9c7619b8dc2faf2a2edc00622016aa6e554a9e594c5aea2c84db0044137d9f6ac1cac4c3b7f4c5a3e4a8068b61af0e9fa7376176453750428aa41af6117f9d68c3c8c6c1b5f6c7a1e6aa048963ad0c9da53563744735524088a618f017799b6ec5cec0c7b3f0c1a7e0ac028f65ab0a9ba3336572413354468ea01ef2157b996cc7ccc2c5b1f2c3a5e2ae008d67a90899a1316770433156448ca21cfc1b759762c9c2cccbbffccdabeca00e8369a70697af3f697e4d3f584a82ac12fe19779560cbc0cec9bdfecfa9eea20c816ba50495ad3d6b7c4f3d5a4880ae10f81f719366cdc6c8cfbbf8c9afe8a40a876da30293ab3b6d7a493b5c4e86a816fa1d739164cfc4cacdb9facbadeaa608856fa10091a9396f784b395e4c84aa14f4137d9f6ac1cac4c3b7f4c5a3e4a8068b61af0e9fa7376176453750428aa41af6117f9d68c3c8c6c1b5f6c7a1e6aa048963ad0c9da53563744735524088a618f017799b6ec5cec0c7b3f0c1a7e0ac028f65ab0a9ba3336572413354468ea01ef2157b996cc7ccc2c5b1f2c3a5e2ae008d67a90899a1316770433156448ca21cfc1b759762c9c2cccbbffccdabeca00e8369a70697af3f697e4d3f584a82ac12fe19779560cbc0cec9bdfecfa9eea20c816ba50495ad3d6b7c4f3d5a4880ae10f81f719366cdc6c8cfbbf8c9afe8a40a876da30293ab3b6d7a493b5c4e86a816fa1d739164cfc4cacdb9facbadeaa608856fa10091a9396f784b395e4c84aa14f4137d9f6ac1cac4c3b7f4c5a3e4a8068b61af0e9fa7376176453750428aa41af6117f9d68c3c8c6c1b5f6c7a1e6aa048963ad0c9da53563744735524088a618f017799b6ec5cec0c7b3f0c1a7e0ac028f65ab0a9ba3336572413354468ea01ef2157b996cc7ccc2c5b1f2c3a5e2ae008d67a90899a1316770433156448ca21cfc1b759762c9c2cccbbffccdabeca00e8369a70697af3f697e4d3f584a82ac12fe19779560cbc0cec9bdfecfa9eea20c816ba50495ad3d6b7c4f3d5a4880ae10f81f719366cdc6c8cfbbf8c9afe8a40a876da30293ab3b6d7a493b5c4e86a816fa1d739164cfc4cacdb9facbadeaa608856fa10091a9396f784b395e4c84aa14f4137d9f6ac1cac4c3b7f4c5a3e4a8068b61af0e9fa7376176453750428aa41af6117f9d68c3c8c6c1b5f6c7a1e6aa048963ad0c9da53563744735524088a618f017799b6ec5cec0c7b3f0c1a7e0ac028f65ab0a9ba3336572413354468ea01ef2157b996cc7ccc2c5b1f2c3a5e2ae008d67a90899a1316770433156448ca21cfc1b759762c9c2cccbbffccdabeca00e8369a70697af3f697e4d3f584a82ac12fe19779560cbc0cec9bdfecfa9eea20c816ba50495ad3d6b7c4f3d5a4880ae10f81f719366cdc6c8cfbbf8c9afe8a40a876da30293ab3b6d7a493b5c4e86a816fa1d739164cfc4cacdb9facbadeaa608856fa10091a9396f784b395e4c84aa14f4137d9f6ac1cac4c3b7f4c5a3e4a8068b61af0e9fa7376176453750428aa41af6117f9d68c3c8c6c1b5f6c7a1e6aa048963ad0c9da53563744735524088a618f017799b6ec5cec0c7b3f0c1a7e0ac028f65ab0a9ba3336572413354468ea01ef2157b996cc7ccc2c5b1f2c3a5e2ae008d67a90899a1316770433156448ca21cfc1b759762c9c2cccbbffccdabeca00e860d85b548843c5eddf708a14df42af806afeeda92038b937fd893d0804735305",
        "type": "nulldata"
      }
    },
    {
      "value": 499963.3916,
      "n": 1,
      "scriptPubKey": {
        "asm": "1 4d1161ac4bc7c87231f51a7f868adba78185f965b332251ba5f71cefd3da03ef",
        "hex": "51204d1161ac4bc7c87231f51a7f868adba78185f965b332251ba5f71cefd3da03ef",
        "reqSigs": 1,
        "type": "witness_v1_scripthash",
        "addresses": [
          "3QJmnh"
        ]
      }
    }
  ],
  "blockhash": "74cd48d8c624c37e1fac27c00c19e94c48df61d3ca85b84b56360e4f6170fa6f",
  "confirmations": 1,
  "time": 1764182926,
  "blocktime": 1764182926
}