{
  "hex": "01000000000101849fc39f68890a4f6edc8ed376842e7f8a91110bee3b0a05f51745b6215610c90000000000feffffff02c075fe6f792d00002251208dc5533183d9fc42232539e1944b3e0968ae44d2ee300508ae6a343ce792db5000e1f50500000000fdd5046a204f4b5e4ccbaca71d91275b797e982607ae4cb32d8a132f2d7787866006c897944db00490e8b290b4dcd5a2862bb20f0fa27d3c11895009ca8d0ad2b9d132ce5b2b3ac4b0c892b094fcf582a60b922f2f825d1c31a97029eaad2af299f112ee7b0b1ae4d0a8f2d0f49c95e2c66bf24f4fe23d7c51c910498acd4a92f991728e1b6b7a84f088d2f0d4bcb5c2e64bd26f6fc21d5c71e93069aaed6ab2d9b152ae3b4b5aa410683210345c552206ab328f8f22fdbc9109d0894a0d8a523951b24edbabba4430481230147c7502268b12afaf02dd9cb129f0a96a2daa721971926efb8b9a6450287250741c156246eb72cfcf62bdfcd14990c90a4dca127911f20e9bebfa0470085270543c354266cb52efef429ddcf169b0e92a6dea325931d22ebbcbda2490e8b290b4dcd5a2862bb20f0fa27d3c11895009ca8d0ad2b9d132ce5b2b3ac4b0c892b094fcf582a60b922f2f825d1c31a97029eaad2af299f112ee7b0b1ae4d0a8f2d0f49c95e2c66bf24f4fe23d7c51c910498acd4a92f991728e1b6b7a84f088d2f0d4bcb5c2e64bd26f6fc21d5c71e93069aaed6ab2d9b152ae3b4b5aa410683210345c552206ab328f8f22fdbc9109d0894a0d8a523951b24edbabba4430481230147c7502268b12afaf02dd9cb129f0a96a2daa721971926efb8b9a6450287250741c156246eb72cfcf62bdfcd14990c90a4dca127911f20e9bebfa0470085270543c354266cb52efef429ddcf169b0e92a6dea325931d22ebbcbda2490e8b290b4dcd5a2862bb20f0fa27d3c11895009ca8d0ad2b9d132ce5b2b3ac4b0c892b094fcf582a60b922f2f825d1c31a97029eaad2af299f112ee7b0b1ae4d0a8f2d0f49c95e2c66bf24f4fe23d7c51c910498acd4a92f991728e1b6b7a84f088d2f0d4bcb5c2e64bd26f6fc21d5c71e93069aaed6ab2d9b152ae3b4b5aa410683210345c552206ab328f8f22fdbc9109d0894a0d8a523951b24edbabba4430481230147c7502268b12afaf02dd9cb129f0a96a2daa721971926efb8b9a6450287250741c156246eb72cfcf62bdfcd14990c90a4dca127911f20e9bebfa0470085270543c354266cb52efef429ddcf169b0e92a6dea325931d22ebbcbda2490e8b290b4dcd5a2862bb20f0fa27d3c11895009ca8d0ad2b9d132ce5b2b3ac4b0c892b094fcf582a60b922f2f825d1c31a97029eaad2af299f112ee7b0b1ae4d0a8f2d0f49c95e2c66bf24f4fe23d7c51c910498acd4a92f991728e1b6b7a84f088d2f0d4bcb5c2e64bd26f6fc21d5c71e93069aaed6ab2d9b152ae3b4b5aa410683210345c552206ab328f8f22fdbc9109d0894a0d8a523951b24edbabba4430481230147c7502268b12afaf02dd9cb129f0a96a2daa721971926efb8b9a6450287250741c156246eb72cfcf62bdfcd14990c90a4dca127911f20e9bebfa0470085270543c354266cb52efef429ddcf169b0e92a6dea325931d22ebbcbda2490e8b290b4dcd5a2862bb20f0fa27d3c11895009ca8d0ad2b9d132ce5b2b3ac4b0c892b094fcf582a60b922f2f825d1c31a97029eaad2af299f112ee7b0b1ae4d0a8f2d0f49c95e2c66bf24f4fe23d7c51c910498acd4a92f991728e1b6b7a84f088d2f0d4bcb5c2e64bd26f6fc21d5c71e93069aaed6ab2d9b152ae3b4b5aa410683210345c552206ab328f8f22fdbcc2903a2f048d74dc7c09a97415c6343684cba75cd0695adfcca6485aa2c7bcc402fd75090ce35dc1c65dc7d6c8f36919c9052be1149f5f2812950efe149ce1d3a6caabef6ee6991717c1a1138d2eeae6813828ce9d52d89165972f772b3c18f80244eb0561a537671a28fb54ee9f36540214a4ce55408267758299374c6c451f90b39ef39e2afc72fa5f903a4d7e175990a907ca86f6749174b917441ccd2bd273483326d7f938a1cf75ac6f5fb5cd10c745770f55d187ae6c3d246e313b80ae54cd210c503ff69ade9f15aba1c538c8a2e33f8bf630d8f4a8a254d2a8a5dda49da458843f05082c54dd22a99144cc124d3bf62bbc4cda4469a9cf0b7f482aa8f83dc8e67f710bdb41a0ce06b85540cdc4d94b2d82480a1b330c832f74a79d95c5bc6f4a1416dc682e7fec53eb66676478db7901793d3a5074e69a319599c5a9b648bf859f44f51144bb3d57f641c7ebfc22e01c7d94c4f1e187191a8ced1cd5bd8a353306aeb6994ed25a9fa9d7775dad709cceb2af7fcb39708c099a4d4e94b5b3e9dac99d3c5e05cfe4c96d1fda9612a2f7c58311c4e25c79115419329cf087f775470dad6b8dc8a1c239293b6038bdd429ef0a7107ecac40fb92333b783262e1dda3db8f8a94d9e0b39f89b85faaf879045e580a8d4ca2f004446a5ef1f41c7bec19c8444996db9b41eca6d9dcebd7382d9193bdf23980320bc556b36d2f749428e8670aa21bca1c32e741601e0ab0e2a4510bf3094aa66e4bbc05c5441cdab8f0be67946c3dff52c1528f125a520adb4e92949348b8b20709ef8e0e31da38562224db579c66146de87cb485e268954864f39d249dd3ccc22e1376206de69fb8a40e0a13071e01c2dde97e8b78c0d97b52267cc3002d10cbf276290819808d09dcaa89c9c45d6e8ed0086faa02d82fea6a823fef1d3a684190403758fc7d6ea8c85a48c038c68fbff504e63f94719534e9ea4ed9bbc591cd47926c942334c620d2b6a1f370d7b93189c0a4390383b8a28fcd67be8bc79ff57e04cbc1e84cc2518e4e487e69b1ff15249232c838a817540992ccf569360e2e11f28480ff2908b8eb03538c0a94f5c8e35bce751dc1d9485b7ffa17a0eb1e34d48e817ae5ed9359bb612e715580712ed6c42941611f4d86c59f7b810e1f993498ef59d3214816c133e66d55ea958d49e5c26ebe6b0cee6e545a99f75f0d5a1e2661a6463a532ca997e26413e9cdd24b53c2cdf9e141cc9af35589b21d261ccfb987a0a30099437898620eea244fb4d713af57d7deaea568fcf8a382b7e881424115854e2edaa83751b3dd99e6b7e103d839384520fdfe2cd1ef5092ec33dca33fd6795172817f2762d1a54f240330a477e8161e1a65cf753d8e5c0000af060181f393bffb2dd5599fe415538ae412420fe35f05998d6a940772ac3869f59bd6e3d1290cc9937c0b1d632810b77fe195003978688e0e29610b7c0d002273350b66dd56ee24225a6669ccf8f13898dfcaf8d7b354926a0a90188046fbb322ab766e87a58efd85a7af8589ebb273730e43477ba0c4aa5a8f8578ccb74be9d2be2844dab10e8336fdcb783e29e6bacc4859642d1146d1626804f41c4928ed7ca72490cb2c48397195793c00ff77051b33d1af41deeadecb32df8131a2f77bf6320a5035414e9ffb24903704cdc9f84a7bad5cb849ee47f93c3d48504cdf6a60ef3069037ccff2e91940e583dc5824491e3b6f5472c485743c9f02395ee809df6000852b1a407eb7fb14edab5ff53db65d9df733d14a0c6ff80cb334ae0a06d310f3fdd2eba570b2812eed6cf718f7aeed01bb97a54423fa963758641c7c9ac509eaf6cda58c50746f5b5673441b624cc8f76f244b046562d3103cd47db797cb365a2e1b00afd81a31b135dff30aa1f32b70646bfb33ba5b8bda384500e743934947c90db0a77a574a0817be0884d4d45c16a072bfc6df30a6b0c28eb420f996bd4f4bb3a382780e59ec13ab0a06f560ca15b5c9886b21d42f606249b5933900438121c6008939fc3af6b434f35d143c3c6a750e3e773e5145dc61d230c3b688bbfc4f2f829473bb1144ea8b9dfe970f88c33533210e4064984bb82f0b657f018341f4f8c54464b011d7ce487ed10505b866c8e9fb6b49020ab7f258e0aed5068d31fd1582f1eff368fbc93531773f2ce7de6f60b4138045508aa7f79d79eb80786b3cd06dac56f003aafb05f64c16a95937085038e4f26535054f343c3ed9a6b3b0cfb264c6fc512c02a5521226c019b9eaa7b0290624b9df1b2753a245879482c3eeac30a2f4807cf8d39bf3ece801370e596381bb79b36d9a867e9c700f3478662daf6f2ef86b37e41c568053f3f51c4ed7f4b612869a678e10c31097ebd03bcd7973fd390f5e66fba4ebdd9abc8b04e2fa5ea3f7ef827dcacd4803733d0b70db34839b29d349c632b42d112d09c45b15fcbd09896b1c728523c5cd10c283c77ac5be75f3911413072c28ec314f60dd4f95ba56fc72d039cb606b3c2d0e0b5efd56078402ff64f4fe6987660c725ce2095228b3e35a288a714fd0250addb4924f68da3ed2eb2fff4ee3881b409b8a3fc2543ac10ac9a80f6d7cf47884c42b2dbc5db9a82de9d9fbccc66d18d4a04725c31d8130ff7223ba3a6c052d39026c946099a69941e48d2f3efa0373bdc94ecc16470d6d6c53233e82b22087db6603b6bffd76baa89d81b43ce4cffbe527c27b9b0b9631b157e45647754a9aff2941e4d669386a563a716c65dcdfef381effe51051dc5c85a35a72a7ccc978d6f5e370486affe69d7d90fef7c503d90aff18cfec91052f13bccff3a5d3028bc614bf5b61ddce1e6c09aa6f3d633a48419666ff2a6101edfc2ed2873b94e6be3779a1a8a8186fda785c7c98b378feead24ade3cd30e7c3ac8c4eb5f5159495ed2291408115fbfdb4705f1110d27396ccebbad49b3d1280ac874a3412ad8bc74e54bd5533428cf0da4096c015be4253bc63077adc9af845f9a88f965cc6bc6aa00a9b14c5ab2425878e3d02227f920a8c6bdb8a5f49bd21649d2bfddcbe934eed1b28e537308b42942c3dd49b1775442129b3aee3961e0605fabd0622d9ca615331e78f604a4f4cd5da8962651526165ae2f073ab2170e2238f2020909ac79b2294ab71427a220bebfa2f7b52b0104b1e9c0c2d9bb1de2d06c825ead398827b9459e970ca4a8df8f498bffd62614a87296a1bee3df412acd039d524b7ba05f394347b197e646a833273043c0478d626ef05c1a0be884c52f24cf60f98554e11de5f79c9edea8e0bdde734c45bc29f36f388c0e09aed411623c00d16a111a9cc185a6020170aca9354d9fbe45eb7b892137414d4e5052535a729ed7de03060b0d2627292b3839464d5d667096a2accbcce3f401042239648ca7a9dee5ebecf40003254e6480a5b2b3ced8db00000000000000000000000000000000000000000d23303c01fd2105003497a1ee5d705acb5d758b802b011421b98f2ed16fcb76a039aeef6a3875d4c4d341c35bb0acfe30fb411ce7d98f82b826e15db42bbac15508a8a7dc24da3d0c0a7d155c40a4014cf5ee44b10a744dea2ce7ae12bdbcbf8160a6b3a96951febdb1e3cde435ca064ae66187a281030ec389bf91c9682399f384bd0f76f7a128029878910642e5a73eab8372d6f9f6ae01d863dcc4280e8c8d8a6a521965c2b0924ee7a603228d20b646719a42badc2d58dafb1408228347849fb57a6a2598cb7d3da5e9195eb3e40a8621457141cec929354e859ce88d4741e26af54a2cdb978365c4afb628b6727431b1e30406f357ff87a038cf428a73edb17d3f1154b7a394d544df1fcf5656e6e6196bdf4d4bc21d143226ead918f8612358ceb672a04696ff46d1752a53edeaa3b6b5d56e5554790266796c8500a1fa7347680ee0e4987de26ce538ab4038ed057abe8735827c25c54200aad4e286c6d9d70b5310d25f1cac4db24c5b2d9f2fba7bd72fd42d9d860c35d5a75a860d24aeb1d639ad8da969991f3c7a3d075465f8ca5a836a98bf46beb01514f28e76827ce555fa4eb8648b72da0845d1cdec9a8056fe45627d4b7c45d2ce077882569a52bfd0e60e68b537a2e1b2e779d7563c72df90094f38cce00036495bc7f985049ebd09890f6f9f903307edc8be7c616259ed4df4539866709ae51337619ed1a1ef0ed79b1d149e8592f70ea4d349266bf2cbbd387e1bd47889bbcfdf0357817f8cca8741afe849db8f583b173a3a8d9b92ce5667e3bceb4aa001247a2bef51dcebb34d92293cd231a8cd158f3a50107a9593d0fc500d91848ff075a58bd27fa9ce14e952503ad56e3d68e0d408ad59a84eab713c24d174615f2f5e31002a8776827470124c2b969fd00e7230703edd93f5c6bac2828a6141928b2ad1b9dfef15201948869c047d31bf6f64645d536a846df3462ce2f9cc6fdb7449ccd07e8a4c622b109032e2cff6f3b66fa0554a57b78a4b3cf142163f9063f54d0904bd9cc5038f9be508f073a8db1836cb53073bccb23b4364112531283409acfaafd4f2d2773e293373d7af2971293d0762249a5985ba9288c05347ad8922878971969754e6e1db2e510d0c6b9e14dda8e91ccc0a3438ea1f5410275fad792b2ed7cb8c16a240871de2353fd1d76d9562c02c8ab126880ca4686327654e3fe93563ae51a0f27c14e138e45e8a8eb363b93e7b96017d65f54287f04cce8acb69795227ab51392b4f2d8f55894f0a428cb87e9ac78f6f9ef801026eefdaed8ab33ed35addab143906124a51d80799e19c468c098e42a921b9e771b11606ad601eacf732004c2353e967fed2033b24ac97327f5a8666952ac0d88923fc3bb3292fd2e286d4f9bbf9ee7164327f0bbf80b2cd63b75239542493a68a620adb623b0c3f50e77245f23bb8f7172b7c234ae90f76fba6d8ea7107c13f103d300be912d38673198b9ea809013ff834f4bbda1d063241d06267203a22d6e198f86404d80db12ae9848ce7fb5ba2b553702eaa8514d85b9b89ef5b4c55f9aa2fb36fef68f5bec7c7aa09c854bf70f565fe104f4aa8505bc1e79c3519510b4366b266441ca2408ef35b508fa4e04d56447abbc96522810b00768f0a1bc6a8da58d3786fb0a2b086b03afbece2d298190ebb583beceea83b4ff69a25640e072cfc895d4daa6cdfe6ce0c4e235a8c6f7652f1cad228b773601d3f65574849ba60e44118da375cb1c7eb5333f1d82fefb207ea0a763de7f7629ec42f159caf80d2b7756596d9c24ba3d43f4cc38ddf6ce9b51e357ced490cfe46242f7c7ab14ed2b4d77dfd3e3ea6a057345fa4f33c80cc89ccf567000000",
  "txid": "5da2e06faa87812e0c94362bc9d8f4b254a2ef5ad8eb23047d5c7ec4aea110e0",
  "hash": "48baaa204992da079daaee2ff61170fdbe456a7dc374fb399e64046d033e0b28",
  "size": 5085,
  "vsize": 2278,
  "version": 1,
  "locktime": 103,
  "vin": [
    {
      "txid": "c9105621b64517f5050a3bee0b11918a7f2e8476d38edc6e4f0a89689fc39f84",
      "vout": 0,
      "scriptSig": {
        "asm": "",
        "hex": ""
      },
      "txinwitness": [
        "0ce35dc1c65dc7d6c8f36919c9052be1149f5f2812950efe149ce1d3a6caabef6ee6991717c1a1138d2eeae6813828ce9d52d89165972f772b3c18f80244eb0561a537671a28fb54ee9f36540214a4ce55408267758299374c6c451f90b39ef39e2afc72fa5f903a4d7e175990a907ca86f6749174b917441ccd2bd273483326d7f938a1cf75ac6f5fb5cd10c745770f55d187ae6c3d246e313b80ae54cd210c503ff69ade9f15aba1c538c8a2e33f8bf630d8f4a8a254d2a8a5dda49da458843f05082c54dd22a99144cc124d3bf62bbc4cda4469a9cf0b7f482aa8f83dc8e67f710bdb41a0ce06b85540cdc4d94b2d82480a1b330c832f74a79d95c5bc6f4a1416dc682e7fec53eb66676478db7901793d3a5074e69a319599c5a9b648bf859f44f51144bb3d57f641c7ebfc22e01c7d94c4f1e187191a8ced1cd5bd8a353306aeb6994ed25a9fa9d7775dad709cceb2af7fcb39708c099a4d4e94b5b3e9dac99d3c5e05cfe4c96d1fda9612a2f7c58311c4e25c79115419329cf087f775470dad6b8dc8a1c239293b6038bdd429ef0a7107ecac40fb92333b783262e1dda3db8f8a94d9e0b39f89b85faaf879045e580a8d4ca2f004446a5ef1f41c7bec19c8444996db9b41eca6d9dcebd7382d9193bdf23980320bc556b36d2f749428e8670aa21bca1c32e741601e0ab0e2a4510bf3094aa66e4bbc05c5441cdab8f0be67946c3dff52c1528f125a520adb4e92949348b8b20709ef8e0e31da38562224db579c66146de87cb485e268954864f39d249dd3ccc22e1376206de69fb8a40e0a13071e01c2dde97e8b78c0d97b52267cc3002d10cbf276290819808d09dcaa89c9c45d6e8ed0086faa02d82fea6a823fef1d3a684190403758fc7d6ea8c85a48c038c68fbff504e63f94719534e9ea4ed9bbc591cd47926c942334c620d2b6a1f370d7b93189c0a4390383b8a28fcd67be8bc79ff57e04cbc1e84cc2518e4e487e69b1ff15249232c838a817540992ccf569360e2e11f28480ff2908b8eb03538c0a94f5c8e35bce751dc1d9485b7ffa17a0eb1e34d48e817ae5ed9359bb612e715580712ed6c42941611f4d86c59f7b810e1f993498ef59d3214816c133e66d55ea958d49e5c26ebe6b0cee6e545a99f75f0d5a1e2661a6463a532ca997e26413e9cdd24b53c2cdf9e141cc9af35589b21d261ccfb987a0a30099437898620eea244fb4d713af57d7deaea568fcf8a382b7e881424115854e2edaa83751b3dd99e6b7e103d839384520fdfe2cd1ef5092ec33dca33fd6795172817f2762d1a54f240330a477e8161e1a65cf753d8e5c0000af060181f393bffb2dd5599fe415538ae412420fe35f05998d6a940772ac3869f59bd6e3d1290cc9937c0b1d632810b77fe195003978688e0e29610b7c0d002273350b66dd56ee24225a6669ccf8f13898dfcaf8d7b354926a0a90188046fbb322ab766e87a58efd85a7af8589ebb273730e43477ba0c4aa5a8f8578ccb74be9d2be2844dab10e8336fdcb783e29e6bacc4859642d1146d1626804f41c4928ed7ca72490cb2c48397195793c00ff77051b33d1af41deeadecb32df8131a2f77bf6320a5035414e9ffb24903704cdc9f84a7bad5cb849ee47f93c3d48504cdf6a60ef3069037ccff2e91940e583dc5824491e3b6f5472c485743c9f02395ee809df6000852b1a407eb7fb14edab5ff53db65d9df733d14a0c6ff80cb334ae0a06d310f3fdd2eba570b2812eed6cf718f7aeed01bb97a54423fa963758641c7c9ac509eaf6cda58c50746f5b5673441b624cc8f76f244b046562d3103cd47db797cb365a2e1b00afd81a31b135dff30aa1f32b70646bfb33ba5b8bda384500e743934947c90db0a77a574a0817be0884d4d45c16a072bfc6df30a6b0c28eb420f996bd4f4bb3a382780e59ec13ab0a06f560ca15b5c9886b21d42f606249b5933900438121c6008939fc3af6b434f35d143c3c6a750e3e773e5145dc61d230c3b688bbfc4f2f829473bb1144ea8b9dfe970f88c33533210e4064984bb82f0b657f018341f4f8c54464b011d7ce487ed10505b866c8e9fb6b49020ab7f258e0aed5068d31fd1582f1eff368fbc93531773f2ce7de6f60b4138045508aa7f79d79eb80786b3cd06dac56f003aafb05f64c16a95937085038e4f26535054f343c3ed9a6b3b0cfb264c6fc512c02a5521226c019b9eaa7b0290624b9df1b2753a245879482c3eeac30a2f4807cf8d39bf3ece801370e596381bb79b36d9a867e9c700f3478662daf6f2ef86b37e41c568053f3f51c4ed7f4b612869a678e10c31097ebd03bcd7973fd390f5e66fba4ebdd9abc8b04e2fa5ea3f7ef827dcacd4803733d0b70db34839b29d349c632b42d112d09c45b15fcbd09896b1c728523c5cd10c283c77ac5be75f3911413072c28ec314f60dd4f95ba56fc72d039cb606b3c2d0e0b5efd56078402ff64f4fe6987660c725ce2095228b3e35a288a714fd0250addb4924f68da3ed2eb2fff4ee3881b409b8a3fc2543ac10ac9a80f6d7cf47884c42b2dbc5db9a82de9d9fbccc66d18d4a04725c31d8130ff7223ba3a6c052d39026c946099a69941e48d2f3efa0373bdc94ecc16470d6d6c53233e82b22087db6603b6bffd76baa89d81b43ce4cffbe527c27b9b0b9631b157e45647754a9aff2941e4d669386a563a716c65dcdfef381effe51051dc5c85a35a72a7ccc978d6f5e370486affe69d7d90fef7c503d90aff18cfec91052f13bccff3a5d3028bc614bf5b61ddce1e6c09aa6f3d633a48419666ff2a6101edfc2ed2873b94e6be3779a1a8a8186fda785c7c98b378feead24ade3cd30e7c3ac8c4eb5f5159495ed2291408115fbfdb4705f1110d27396ccebbad49b3d1280ac874a3412ad8bc74e54bd5533428cf0da4096c015be4253bc63077adc9af845f9a88f965cc6bc6aa00a9b14c5ab2425878e3d02227f920a8c6bdb8a5f49bd21649d2bfddcbe934eed1b28e537308b42942c3dd49b1775442129b3aee3961e0605fabd0622d9ca615331e78f604a4f4cd5da8962651526165ae2f073ab2170e2238f2020909ac79b2294ab71427a220bebfa2f7b52b0104b1e9c0c2d9bb1de2d06c825ead398827b9459e970ca4a8df8f498bffd62614a87296a1bee3df412acd039d524b7ba05f394347b197e646a833273043c0478d626ef05c1a0be884c52f24cf60f98554e11de5f79c9edea8e0bdde734c45bc29f36f388c0e09aed411623c00d16a111a9cc185a6020170aca9354d9fbe45eb7b892137414d4e5052535a729ed7de03060b0d2627292b3839464d5d667096a2accbcce3f401042239648ca7a9dee5ebecf40003254e6480a5b2b3ced8db00000000000000000000000000000000000000000d23303c01",
        "003497a1ee5d705acb5d758b802b011421b98f2ed16fcb76a039aeef6a3875d4c4d341c35bb0acfe30fb411ce7d98f82b826e15db42bbac15508a8a7dc24da3d0c0a7d155c40a4014cf5ee44b10a744dea2ce7ae12bdbcbf8160a6b3a96951febdb1e3cde435ca064ae66187a281030ec389bf91c9682399f384bd0f76f7a128029878910642e5a73eab8372d6f9f6ae01d863dcc4280e8c8d8a6a521965c2b0924ee7a603228d20b646719a42badc2d58dafb1408228347849fb57a6a2598cb7d3da5e9195eb3e40a8621457141cec929354e859ce88d4741e26af54a2cdb978365c4afb628b6727431b1e30406f357ff87a038cf428a73edb17d3f1154b7a394d544df1fcf5656e6e6196bdf4d4bc21d143226ead918f8612358ceb672a04696ff46d1752a53edeaa3b6b5d56e5554790266796c8500a1fa7347680ee0e4987de26ce538ab4038ed057abe8735827c25c54200aad4e286c6d9d70b5310d25f1cac4db24c5b2d9f2fba7bd72fd42d9d860c35d5a75a860d24aeb1d639ad8da969991f3c7a3d075465f8ca5a836a98bf46beb01514f28e76827ce555fa4eb8648b72da0845d1cdec9a8056fe45627d4b7c45d2ce077882569a52bfd0e60e68b537a2e1b2e779d7563c72df90094f38cce00036495bc7f985049ebd09890f6f9f903307edc8be7c616259ed4df4539866709ae51337619ed1a1ef0ed79b1d149e8592f70ea4d349266bf2cbbd387e1bd47889bbcfdf0357817f8cca8741afe849db8f583b173a3a8d9b92ce5667e3bceb4aa001247a2bef51dcebb34d92293cd231a8cd158f3a50107a9593d0fc500d91848ff075a58bd27fa9ce14e952503ad56e3d68e0d408ad59a84eab713c24d174615f2f5e31002a8776827470124c2b969fd00e7230703edd93f5c6bac2828a6141928b2ad1b9dfef15201948869c047d31bf6f64645d536a846df3462ce2f9cc6fdb7449ccd07e8a4c622b109032e2cff6f3b66fa0554a57b78a4b3cf142163f9063f54d0904bd9cc5038f9be508f073a8db1836cb53073bccb23b4364112531283409acfaafd4f2d2773e293373d7af2971293d0762249a5985ba9288c05347ad8922878971969754e6e1db2e510d0c6b9e14dda8e91ccc0a3438ea1f5410275fad792b2ed7cb8c16a240871de2353fd1d76d9562c02c8ab126880ca4686327654e3fe93563ae51a0f27c14e138e45e8a8eb363b93e7b96017d65f54287f04cce8acb69795227ab51392b4f2d8f55894f0a428cb87e9ac78f6f9ef801026eefdaed8ab33ed35addab143906124a51d80799e19c468c098e42a921b9e771b11606ad601eacf732004c2353e967fed2033b24ac97327f5a8666952ac0d88923fc3bb3292fd2e286d4f9bbf9ee7164327f0bbf80b2cd63b75239542493a68a620adb623b0c3f50e77245f23bb8f7172b7c234ae90f76fba6d8ea7107c13f103d300be912d38673198b9ea809013ff834f4bbda1d063241d06267203a22d6e198f86404d80db12ae9848ce7fb5ba2b553702eaa8514d85b9b89ef5b4c55f9aa2fb36fef68f5bec7c7aa09c854bf70f565fe104f4aa8505bc1e79c3519510b4366b266441ca2408ef35b508fa4e04d56447abbc96522810b00768f0a1bc6a8da58d3786fb0a2b086b03afbece2d298190ebb583beceea83b4ff69a25640e072cfc895d4daa6cdfe6ce0c4e235a8c6f7652f1cad228b773601d3f65574849ba60e44118da375cb1c7eb5333f1d82fefb207ea0a763de7f7629ec42f159caf80d2b7756596d9c24ba3d43f4cc38ddf6ce9b51e357ced490cfe46242f7c7ab14ed2b4d77dfd3e3ea6a057345fa4f33c80cc89ccf5"
      ],
      "sequence": 4294967294
    }
  ],
  "vout": [
    {
      "value": 499995.9324,
      "n": 0,
      "scriptPubKey": {
        "asm": "1 8dc5533183d9fc42232539e1944b3e0968ae44d2ee300508ae6a343ce792db50",
        "hex": "51208dc5533183d9fc42232539e1944b3e0968ae44d2ee300508ae6a343ce792db50",
        "reqSigs": 1,
        "type": "witness_v1_scripthash",
        "addresses": [
          "3QJmnh"
        ]
      }
    },
    {
      "value": 1.0,
      "n": 1,
      "scriptPubKey": {
        "asm": "OP_RETURN 4f4b5e4ccbaca71d91275b797e982607ae4cb32d8a132f2d7787866006c89794 90e8b290b4dcd5a2862bb20f0fa27d3c11895009ca8d0ad2b9d132ce5b2b3ac4b0c892b094fcf582a60b922f2f825d1c31a97029eaad2af299f112ee7b0b1ae4d0a8f2d0f49c95e2c66bf24f4fe23d7c51c910498acd4a92f991728e1b6b7a84f088d2f0d4bcb5c2e64bd26f6fc21d5c71e93069aaed6ab2d9b152ae3b4b5aa410683210345c552206ab328f8f22fdbc9109d0894a0d8a523951b24edbabba4430481230147c7502268b12afaf02dd9cb129f0a96a2daa721971926efb8b9a6450287250741c156246eb72cfcf62bdfcd14990c90a4dca127911f20e9bebfa0470085270543c354266cb52efef429ddcf169b0e92a6dea325931d22ebbcbda2490e8b290b4dcd5a2862bb20f0fa27d3c11895009ca8d0ad2b9d132ce5b2b3ac4b0c892b094fcf582a60b922f2f825d1c31a97029eaad2af299f112ee7b0b1ae4d0a8f2d0f49c95e2c66bf24f4fe23d7c51c910498acd4a92f991728e1b6b7a84f088d2f0d4bcb5c2e64bd26f6fc21d5c71e93069aaed6ab2d9b152ae3b4b5aa410683210345c552206ab328f8f22fdbc9109d0894a0d8a523951b24edbabba4430481230147c7502268b12afaf02dd9cb129f0a96a2daa721971926efb8b9a6450287250741c156246eb72cfcf62bdfcd14990c90a4dca127911f20e9bebfa0470085270543c354266cb52efef429ddcf169b0e92a6dea325931d22ebbcbda2490e8b290b4dcd5a2862bb20f0fa27d3c11895009ca8d0ad2b9d132ce5b2b3ac4b0c892b094fcf582a60b922f2f825d1c31a97029eaad2af299f112ee7b0b1ae4d0a8f2d0f49c95e2c66bf24f4fe23d7c51c910498acd4a92f991728e1b6b7a84f088d2f0d4bcb5c2e64bd26f6fc21d5c71e93069aaed6ab2d9b152ae3b4b5aa410683210345c552206ab328f8f22fdbc9109d0894a0d8a523951b24edbabba4430481230147c7502268b12afaf02dd9cb129f0a96a2daa721971926efb8b9a6450287250741c156246eb72cfcf62bdfcd14990c90a4dca127911f20e9bebfa0470085270543c354266cb52efef429ddcf169b0e92a6dea325931d22ebbcbda2490e8b290b4dcd5a2862bb20f0fa27d3c11895009ca8d0ad2b9d132ce5b2b3ac4b0c892b094fcf582a60b922f2f825d1c31a97029eaad2af299f112ee7b0b1ae4d0a8f2d0f49c95e2c66bf24f4fe23d7c51c910498acd4a92f991728e1b6b7a84f088d2f0d4bcb5c2e64bd26f6fc21d5c71e93069aaed6ab2d9b152ae3b4b5aa410683210345c552206ab328f8f22fdbc9109d0894a0d8a523951b24edbabba4430481230147c7502268b12afaf02dd9cb129f0a96a2daa721971926efb8b9a6450287250741c156246eb72cfcf62bdfcd14990c90a4dca127911f20e9bebfa0470085270543c354266cb52efef429ddcf169b0e92a6dea325931d22ebbcbda2490e8b290b4dcd5a2862bb20f0fa27d3c11895009ca8d0ad2b9d132ce5b2b3ac4b0c892b094fcf582a60b922f2f825d1c31a97029eaad2af299f112ee7b0b1ae4d0a8f2d0f49c95e2c66bf24f4fe23d7c51c910498acd4a92f991728e1b6b7a84f088d2f0d4bcb5c2e64bd26f6fc21d5c71e93069aaed6ab2d9b152ae3b4b5aa410683210345c552206ab328f8f22fdbcc2903a2f048d74dc7c09a97415c6343684cba75cd0695adfcca6485aa2c7bcc4",
        "hex": "6a204f4b5e4ccbaca71d91275b797e982607ae4cb32d8a132f2d7787866006c897944db00490e8b290b4dcd5a2862bb20f0fa27d3c11895009ca8d0ad2b9d132ce5b2b3ac4b0c892b094fcf582a60b922f2f825d1c31a97029eaad2af299f112ee7b0b1ae4d0a8f2d0f49c95e2c66bf24f4fe23d7c51c910498acd4a92f991728e1b6b7a84f088d2f0d4bcb5c2e64bd26f6fc21d5c71e93069aaed6ab2d9b152ae3b4b5aa410683210345c552206ab328f8f22fdbc9109d0894a0d8a523951b24edbabba4430481230147c7502268b12afaf02dd9cb129f0a96a2daa721971926efb8b9a6450287250741c156246eb72cfcf62bdfcd14990c90a4dca127911f20e9bebfa0470085270543c354266cb52efef429ddcf169b0e92a6dea325931d22ebbcbda2490e8b290b4dcd5a2862bb20f0fa27d3c11895009ca8d0ad2b9d132ce5b2b3ac4b0c892b094fcf582a60b922f2f825d1c31a97029eaad2af299f112ee7b0b1ae4d0a8f2d0f49c95e2c66bf24f4fe23d7c51c910498acd4a92f991728e1b6b7a84f088d2f0d4bcb5c2e64bd26f6fc21d5c71e93069aaed6ab2d9b152ae3b4b5aa410683210345c552206ab328f8f22fdbc9109d0894a0d8a523951b24edbabba4430481230147c7502268b12afaf02dd9cb129f0a96a2daa721971926efb8b9a6450287250741c156246eb72cfcf62bdfcd14990c90a4dca127911f20e9bebfa0470085270543c354266cb52efef429ddcf169b0e92a6dea325931d22ebbcbda2490e8b290b4dcd5a2862bb20f0fa27d3c11895009ca8d0ad2b9d132ce5b2b3ac4b0c892b094fcf582a60b922f2f825d1c31a97029eaad2af299f112ee7b0b1ae4d0a8f2d0f49c95e2c66bf24f4fe23d7c51c910498acd4a92f991728e1b6b7a84f088d2f0d4bcb5c2e64bd26f6fc21d5c71e93069aaed6ab2d9b152ae3b4b5aa410683210345c552206ab328f8f22fdbc9109d0894a0d8a523951b24edbabba4430481230147c7502268b12afaf02dd9cb129f0a96a2daa721971926efb8b9a6450287250741c156246eb72cfcf62bdfcd14990c90a4dca127911f20e9bebfa0470085270543c354266cb52efef429ddcf169b0e92a6dea325931d22ebbcbda2490e8b290b4dcd5a2862bb20f0fa27d3c11895009ca8d0ad2b9d132ce5b2b3ac4b0c892b094fcf582a60b922f2f825d1c31a97029eaad2af299f112ee7b0b1ae4d0a8f2d0f49c95e2c66bf24f4fe23d7c51c910498acd4a92f991728e1b6b7a84f088d2f0d4bcb5c2e64bd26f6fc21d5c71e93069aaed6ab2d9b152ae3b4b5aa410683210345c552206ab328f8f22fdbc9109d0894a0d8a523951b24edbabba4430481230147c7502268b12afaf02dd9cb129f0a96a2daa721971926efb8b9a6450287250741c156246eb72cfcf62bdfcd14990c90a4dca127911f20e9bebfa0470085270543c354266cb52efef429ddcf169b0e92a6dea325931d22ebbcbda2490e8b290b4dcd5a2862bb20f0fa27d3c11895009ca8d0ad2b9d132ce5b2b3ac4b0c892b094fcf582a60b922f2f825d1c31a97029eaad2af299f112ee7b0b1ae4d0a8f2d0f49c95e2c66bf24f4fe23d7c51c910498acd4a92f991728e1b6b7a84f088d2f0d4bcb5c2e64bd26f6fc21d5c71e93069aaed6ab2d9b152ae3b4b5aa410683210345c552206ab328f8f22fdbcc2903a2f048d74dc7c09a97415c6343684cba75cd0695adfcca6485aa2c7bcc4",
        "type": "nulldata"
      }
    }
  ],
  "blockhash": "15af9b025c636b87e0a10c18a1a8de0e5f3c2069ad563b293161176d75df89a4",
  "confirmations": 1,
  "time": 1764174659,
  "blocktime": 1764174659
}