{
  "hex": "01000000000101d5e3ef440ec4e0891a34de610876fc34c494c3290d0009b1f6b739524cdaecbb0100000000feffffff0200e1f50500000000fdd5046a206d2c644db20e79b24880b8fac614c4dafed26b1b4ab7e7ac68e90b7bc8fa19974db004f47d47c5aabceb91cd95bdf9b47262da34402e17dc783275e3461fff0a47c8bfd45d67e58a9ccbb1edb59dd9945242fa14600e37fc581255c3663fdf2a67e89fb43d0785eafcabd18dd5fdb9f432229a74006e579c387235a3065fbf4a0788ff941d27a5cadc8bf1adf5dd99d41202ba54204e77bc18521583267f9f6a27a8df74fdc7452a3c6b114d153d7934f2e25ab4c0ae975cf8b2f563c69f7f8ac7483f54dde7650a1c4b316d351d5914d2c27a94e08eb77cd892d543e6bf5faae7681f34bd87056a7c2b510d557d3974b2a21af480eed71cb8f2b52386df3fca87087f149da7254a5c0b712d755d195492823ad4a0cef73c98d29503a6ff1feaa7285ff47d47c5aabceb91cd95bdf9b47262da34402e17dc783275e3461fff0a47c8bfd45d67e58a9ccbb1edb59dd9945242fa14600e37fc581255c3663fdf2a67e89fb43d0785eafcabd18dd5fdb9f432229a74006e579c387235a3065fbf4a0788ff941d27a5cadc8bf1adf5dd99d41202ba54204e77bc18521583267f9f6a27a8df74fdc7452a3c6b114d153d7934f2e25ab4c0ae975cf8b2f563c69f7f8ac7483f54dde7650a1c4b316d351d5914d2c27a94e08eb77cd892d543e6bf5faae7681f34bd87056a7c2b510d557d3974b2a21af480eed71cb8f2b52386df3fca87087f149da7254a5c0b712d755d195492823ad4a0cef73c98d29503a6ff1feaa7285ff47d47c5aabceb91cd95bdf9b47262da34402e17dc783275e3461fff0a47c8bfd45d67e58a9ccbb1edb59dd9945242fa14600e37fc581255c3663fdf2a67e89fb43d0785eafcabd18dd5fdb9f432229a74006e579c387235a3065fbf4a0788ff941d27a5cadc8bf1adf5dd99d41202ba54204e77bc18521583267f9f6a27a8df74fdc7452a3c6b114d153d7934f2e25ab4c0ae975cf8b2f563c69f7f8ac7483f54dde7650a1c4b316d351d5914d2c27a94e08eb77cd892d543e6bf5faae7681f34bd87056a7c2b510d557d3974b2a21af480eed71cb8f2b52386df3fca87087f149da7254a5c0b712d755d195492823ad4a0cef73c98d29503a6ff1feaa7285ff47d47c5aabceb91cd95bdf9b47262da34402e17dc783275e3461fff0a47c8bfd45d67e58a9ccbb1edb59dd9945242fa14600e37fc581255c3663fdf2a67e89fb43d0785eafcabd18dd5fdb9f432229a74006e579c387235a3065fbf4a0788ff941d27a5cadc8bf1adf5dd99d41202ba54204e77bc18521583267f9f6a27a8df74fdc7452a3c6b114d153d7934f2e25ab4c0ae975cf8b2f563c69f7f8ac7483f54dde7650a1c4b316d351d5914d2c27a94e08eb77cd892d543e6bf5faae7681f34bd87056a7c2b510d557d3974b2a21af480eed71cb8f2b52386df3fca87087f149da7254a5c0b712d755d195492823ad4a0cef73c98d29503a6ff1feaa7285ff47d47c5aabceb91cd95bdf9b47262da34402e17dc783275e3461fff0a47c8bfd45d67e58a9ccbb1edb59dd9945242fa14600e37fc581255c3663fdf2a67e89fb43d0785eafcabd18dd5fdb9f432229a74006e579c387235a3065fbf4a0788ff941d27a5cadc8bf1adf5dd99d41202ba54204e77bc18521583267f9f6a27a8df74fdc7452a3c6b114d153d7934f2e25a3b6102da4698c54cf7293d9d0536912fc4656d54179d59e4a18218656040a5bbb0767139792d0000225120d141486b2f28f12886e98b6ba72425c59393a1afc76555daf9070ef09425081302fd7509baf528480e837738ca97d9e4ff9367265329718d4438c10b6e2b6f367a4a1a6be5615744ad1fc0f45d04f7cf74699cf89f66e3d007ccda7900de19208dfb26a3ab743e6939254e717df090ce8e7c2bdba8d0bfb5d8ca5daaaec0d11eca892f51c6c9bf4298a06534cc6dbb0516c59b38d4e9ad352b49e26a2f3c8aeade27ebae52821a9d787e2a69e7b2bca7894ac96567491e711d05c50c1d8ac1be15fdf5c55a01430d464ad7217c51dc0eead246a9ec6dfe5087b9aee90ca0e3b2d98880a6a44b864b57798513daa45abb59b24ddf353fd8d0f50c29cddc6569529cf6fd142c1652f56b6381a04f1ccd2a0758d2803074c4ac83564cebd4f55d5ce19b00945c3552d9fdd6fea43a7c6b7be628e83caf07fda4835c7cd3b36ce67018cfc72a7bcffbcff0c9749a0ab8f2177fb7166ae2f8f45c7523cb5589f977c5b090208a46ebeb063cd8d6723d24726b141bde957855b51c48246543c4c986d6c7c63eb19eafa5f7c65ccb79507f9280a6973bbd99a15da0380cf0a7e7287ae4b8761ee6fa7bdbf2bc9f1dc3cfdb09c4c32b0d0583de5195ffeb5f040baef999c7d673400e53a0d7575ad3178fea58ea8d2e96ab894efe1320c8a14e61fcca032f56e9cbe6c6cc7b263045963845617d9aaa84f4aa71bd03fb78b2b4b67a7c601293d278802a1f0f52e82b7b2a60c9ed777982ec49bddb5fca6620c7df975523dd379b75f5379a3188e481ad348d96e301ae19f5efed54b6f1890f2e772ef297ec8833489a471eefe48fe704cf1397f39adcb726197098a76909aff873c20dc81d9914c5b69abc7e2600140f08eb3d8e37981e34b3db0c3b86eb4c798d15239921105daf32388f6d71cbdc8937c13d645eeb8ec53bcf7800fc8de214355582cddc3d48af65f0c5e7f7c1632a256c210587cbc2b81d005877a22f03592acdf9866fee54bfc2e7ac532d8c75fc6b2e62de79d9b4dfa9995c4ddb01d5dfdc5855bdda4b60d84b3fcc2ce965d14198f8929ff54c9daab3b700466e8650162e4e20040b3cc8b5b7207e3ee74410cebf9152b60671f8839341787380382793551c8b3ce91f88a0da2f74ef845640b2c10e898a3e669645ae4adc159919a79d89f0c3b464017a6b1a1286bbed7590c48a70522d831a91c517e240cb7f21640ce37461c10462adbcbbc3c4b0ba1413f02fa0cc783d54efee5d9bc9fee4a0824f6aca85b58ec65c1863246391cba6f1843f17dd98243b0c2f346b72076dd989a1a99b81fe9e854cfe0f446ee8cf83142c0454455b4b12304156bee55cd77ba1aa87e3a3352c829dc93c93a52cfb1ff74f79a8d75d1351d5cb65c3724b84e8b1c19445af5cd9f5a6cb0cc70c22ef186c87d55bb7cb597dd65ff96818beb021d95d9c9da5e21f6bb76a0f4e25fc2b2413f0da45cc2b18be36bc92dc92a0126767f1682e8e87a12a833f395105504875abe329297f1e72a5ea13badcfb11b11721d7ffbae57b2f608dcb7a7d1ff005ddbab1a2988c8ac84c55dae61b50d8ed1a1457d0a53668b88780666aa27e37eb9ee549a15ba5283de08348221ec2a032a400b5027ef7a6bf20dc6c287a7becdaad547babf7f9d817bf18141c2ebe4d5ed231c99a18f4774b38bca690bf4369465401b64be9b0b71b1fcb3df59c60c15c13e14926d1264dab6a6e60b3469d5f6dca3a6b65450ccaf8bf61669967491702f035b694de68c92f8291f5b3af2fad3ac9ae8d941b86be96b48e3f15c4e763ae689c1dc99b740a227784eda0e67838c344d371a26b5bafb546c8a91ad4b9f0d478be6cd51b3f7b0bb70c0577a37e5c20d851b3b156a0f1e23255f87ede2c50d592287d96251fc138af504273932d9b32dc1e53c523d68f93cc0a73e6f338cbe8340b59aa90bb0fd3c46beaf3b44b8afb53e6a8f359fe098a788d730309e7af7d9763abdf45e5cbb986199bad22442ac4d1a704e1915e9de5ec20c5d9f5c7d5a5ef55650d96f319b4dc1ffcc09957d90c48f1c8174457ac46955f7cb3da1d8ef677590c5f72cf09442ddafee10906706e924f8861b05516ab28cd76e23ec1a4e232fd4e8a4554a060203fd7653779c3c93f07f693661c14bdcdf8704fc30b18f2adb7e20825cc01d361d15b888c68489da93af0b9647afdf28a326ae0490f5eb933134a162a172261b3e1f69b6ec2bccc6b3fe7cc259dda630bc9ea74253924d9f477b7efe8e5435a40ebdc0295f08624016dcba53c397839ee0fce12a8300e4b7ee562932c9680210ff31293d2012cadc120c8e67f46d69e892c891033f8ea94a02831fccdab0844016118d3b99342a60295d98e3e49c7b1b0f83817f50793fc771e3b4d243336532226ab5d3411e320fd821910af47b2ed701ad62ebfb127085b5a444c78d7f5c10562d64aa0078356ead364d13082f44897e0d4456b45e939dbea50f9d26a8dfc69ffa9257a7e09c35db754c4b6ecebbc191a086ccf01cef51c8c11082598cb69e93b6af2aedd0c1f3a3ab35d3fa8cb7d81af461e8d450c134edf34248f9cb78045ee4e1df696c62bd4fda87018266abb90f8858d73e2da15fb0dabadde3f8e7f06a989f100b1c08d683e786f47efc22f69454bcab0df36c6e188e6c38262f69ad0579928a71f2f6f5d92e5c1df5864563c92988e534f4e0cf44bd76e33de8337f55d7faa185ee5aa0984751e7791126435f995666dd557233b431cc67ef6dca41c5b6d36f369918b17a5956959a88d4698092dfdb00b02ed6c1436688283420ff1bbfbdc15107127a72302cdc08e78b235ec529166c8c5c7f827df281a636631551c9e68df1fae32cbb023256e2631060d59bd5eb637cf0130d931515cc68d33c96f7ba8d29704d574c7bd9833f9ef911a6e409d8b61f81bbbf2a979f3bb55d5dd21aeebedf87b954abdb7e6d7dc24f8596bfefd9e8a496e9c70d5a39a3d3b1895950e078282240328fb08459820989b533dd9eefa8c0d608f540019650029ad97c6c59a5059dda01e7bd3de3a8240e6930bde18c9bc538424d43a386a5ddaeac8af66c5aba189b85c22f6e21977abcf0e390e85fe51abd0f7dac8c1a2d05e1317299beadba957a7c459a575d2fc16096acaf9b69fe8624a0c32b28d46f49443939e856788b109224a73e47aded97f3aa1ae49a19164b11326d9a3f2dd0fbf390234ca352c9fe0df7334af0e369337e034b178f471e8e911e085006f1be68c821f9997f7df1e1d99285d532eef65c92eb8026cbf364d16c64b3fc870e72cf23bad3281217cbd1223b87cf78b3b23018f8b936b8c0b5c4953a5479eba699e30ab165264080a0d282b3c555a5d616b6c929397abcfd3e9061a2324373c3e54606b7fa7b9cdd7dee60b0c18262e4d515260a1ced1d9f60317183a434754565d6a7fb4dee4eafb00000000000000000000000000001324324201fd210500b4254d10e13a301201b0804ba1de4bf2eea748de5e29ed8785639e0e49c050797ad7a35201332580f2513b706df3c9ec755b69b6161a15b60baa30961a1cade72cb7667045d50f171d8dbbc7305cb4a63d74e3f7f9e5f25609f109ac06937de8d8f57389a0ccb1d8e1e859387c1c9a1401d9c9f7cd1f5c2ab226c138a328761d2fd638b2cd2573e120e9c9b7141f43dea5398bcb07ab053978ab45d30efc41b24b174fbf4f84c4a0814652776edd30d21e9a18a0a1b35375559c2ede780ba570b958439536dd4ae6dc920be9cf0854d88e5f03d07c40c3cfc463c0bf3d30f368ee8ced71e7f240cfd27ce48ba77a301b4ae9f92ee8be8c158cacf3a36916b8ba9e7e04c7103eed84bbea39419cc3e2af48667127446076d8639d6a6a99a6dbd390a8a10242bec3fdce379c148aa963a17763345c0d4fbd99b4c974032e9b9093984b9463e37d6b90202a23ed25280387276263fdd7cd1e14216c2f0de9b8c407812c4081dafb0dfb3b3ca8da481d15eef67acab4f7b5bdc53f182dc615fce27ffba30879ae2078361cef3d43606858feced967697947f88b7e4c63e4a6ec58e23f2ea8ee48e684b696d16d960169fe34da4bc4698f7ec018b8bbfef95303fee932bc1ceabe59a2a3017a38a67174f000d5aa1f59008f70b9b18f21d0d1e2120e85b793d45917d936cd9eb2cd324f39e8241f86a431c8a6d0a2d4175b38b185fa3a7364ee2515667918f3b24b9453b73e27640c2f024ebbc8efb6471c1440eceb656fe44339e9855e020fa298216a6331f78b2d241c8682c8d56e9511b8d10d4444827d689dff58fa20f382a2401cf5f70d2f351435b9fc2394c774ba41e73c6605d109eb9cadddba2f6c70f22a0687cd078a771989505d742ed6d9de27e76279709143757f546c03836c49f7bb5abed463e353e7c184f52cd56d6880d4e1adbf99c8a47f8d06c7bbc89e918878d94a42323994bd899fd75295127a81a4537a16ae2f91c4672d93de2b0110e3e75a4735b65c42f2a27bcc4366877bd0158e53174421388045f01126101675b433104c84c399fd16fab409935c7db33940a08b89057e500b15594b14bca7defd1926e920dbf284c1a5fc91bd8794be4d5f2bdefdd4792b8d19f62f2dda3a87f61a8155e95329faaa3f7faccf690151990c7e198148b768d6b9011d5e255df2e5b18e13ed94a7cbc4dacd6a0953959905282979871ce867ebee144a45ea3707f8406af934b0aa8ca466dea70bdeffd6a474a04a200b6d8e73514c05f10ed219bc2ef0df5f8ece64656418b34e9e88627c26e8be1caf45244a30bbb3780fcfb8eac6bbdd8f65aa329bc80be37d3e724c8299c5c4c80456578917a87c03d5ca491814e4fccddd8d7aa7032da2da10ce6f9b0f9216aea97fcf46fbac2721f34ff5ac2eb11aa29c467a6366a8364d5a81e93ef38142df607252b97a3f33ceb2f105947e18a2c3d5c304e6e9774841da7ad9c3c42c6488b922292b496cc00e625ee2416aed27f0e224aa804fa6d7c270e77af16b7f254bfbc1c020062662ccec4b97afecd2b253f3cfcd4a0103d2c9aa8bf7fa780e527995dc6994eaddd2b303e464df708c82576ac5ac28616671e0fa173f0884a42e0b645ec4b46a6d3e627db181ca58f8155f823bc40f629620f3c760a12b8255b7d12f5c1d81077bbe9e52bd92606f1ebd745148a575b7ffbf0e38c8a0787ba33fc201363c2a570ef12c41a7ea876791b87b4d97182140ce4c64f5266e2b8c205dea89da04ca4a2617b20c192e0ee5b8b738f1134135d2345093e2306bd2047338e0866746e0c9e6139993228bc5205b0e3fcc0db0767c9b05eaae8a10d5fec218f26f000000",
  "txid": "59651cd464376945b210a3f1adb6d18d1f3984d3800ac40ab149c5064bdadba9",
  "hash": "25c848eb0561a9a4005b295f3c341b068424a7113a5bf524501702e44b39299e",
  "size": 5085,
  "vsize": 2278,
  "version": 1,
  "locktime": 111,
  "vin": [
    {
      "txid": "bbecda4c5239b7f6b109000d29c394c434fc760861de341a89e0c40e44efe3d5",
      "vout": 1,
      "scriptSig": {
        "asm": "",
        "hex": ""
      },
      "txinwitness": [
        "baf528480e837738ca97d9e4ff9367265329718d4438c10b6e2b6f367a4a1a6be5615744ad1fc0f45d04f7cf74699cf89f66e3d007ccda7900de19208dfb26a3ab743e6939254e717df090ce8e7c2bdba8d0bfb5d8ca5daaaec0d11eca892f51c6c9bf4298a06534cc6dbb0516c59b38d4e9ad352b49e26a2f3c8aeade27ebae52821a9d787e2a69e7b2bca7894ac96567491e711d05c50c1d8ac1be15fdf5c55a01430d464ad7217c51dc0eead246a9ec6dfe5087b9aee90ca0e3b2d98880a6a44b864b57798513daa45abb59b24ddf353fd8d0f50c29cddc6569529cf6fd142c1652f56b6381a04f1ccd2a0758d2803074c4ac83564cebd4f55d5ce19b00945c3552d9fdd6fea43a7c6b7be628e83caf07fda4835c7cd3b36ce67018cfc72a7bcffbcff0c9749a0ab8f2177fb7166ae2f8f45c7523cb5589f977c5b090208a46ebeb063cd8d6723d24726b141bde957855b51c48246543c4c986d6c7c63eb19eafa5f7c65ccb79507f9280a6973bbd99a15da0380cf0a7e7287ae4b8761ee6fa7bdbf2bc9f1dc3cfdb09c4c32b0d0583de5195ffeb5f040baef999c7d673400e53a0d7575ad3178fea58ea8d2e96ab894efe1320c8a14e61fcca032f56e9cbe6c6cc7b263045963845617d9aaa84f4aa71bd03fb78b2b4b67a7c601293d278802a1f0f52e82b7b2a60c9ed777982ec49bddb5fca6620c7df975523dd379b75f5379a3188e481ad348d96e301ae19f5efed54b6f1890f2e772ef297ec8833489a471eefe48fe704cf1397f39adcb726197098a76909aff873c20dc81d9914c5b69abc7e2600140f08eb3d8e37981e34b3db0c3b86eb4c798d15239921105daf32388f6d71cbdc8937c13d645eeb8ec53bcf7800fc8de214355582cddc3d48af65f0c5e7f7c1632a256c210587cbc2b81d005877a22f03592acdf9866fee54bfc2e7ac532d8c75fc6b2e62de79d9b4dfa9995c4ddb01d5dfdc5855bdda4b60d84b3fcc2ce965d14198f8929ff54c9daab3b700466e8650162e4e20040b3cc8b5b7207e3ee74410cebf9152b60671f8839341787380382793551c8b3ce91f88a0da2f74ef845640b2c10e898a3e669645ae4adc159919a79d89f0c3b464017a6b1a1286bbed7590c48a70522d831a91c517e240cb7f21640ce37461c10462adbcbbc3c4b0ba1413f02fa0cc783d54efee5d9bc9fee4a0824f6aca85b58ec65c1863246391cba6f1843f17dd98243b0c2f346b72076dd989a1a99b81fe9e854cfe0f446ee8cf83142c0454455b4b12304156bee55cd77ba1aa87e3a3352c829dc93c93a52cfb1ff74f79a8d75d1351d5cb65c3724b84e8b1c19445af5cd9f5a6cb0cc70c22ef186c87d55bb7cb597dd65ff96818beb021d95d9c9da5e21f6bb76a0f4e25fc2b2413f0da45cc2b18be36bc92dc92a0126767f1682e8e87a12a833f395105504875abe329297f1e72a5ea13badcfb11b11721d7ffbae57b2f608dcb7a7d1ff005ddbab1a2988c8ac84c55dae61b50d8ed1a1457d0a53668b88780666aa27e37eb9ee549a15ba5283de08348221ec2a032a400b5027ef7a6bf20dc6c287a7becdaad547babf7f9d817bf18141c2ebe4d5ed231c99a18f4774b38bca690bf4369465401b64be9b0b71b1fcb3df59c60c15c13e14926d1264dab6a6e60b3469d5f6dca3a6b65450ccaf8bf61669967491702f035b694de68c92f8291f5b3af2fad3ac9ae8d941b86be96b48e3f15c4e763ae689c1dc99b740a227784eda0e67838c344d371a26b5bafb546c8a91ad4b9f0d478be6cd51b3f7b0bb70c0577a37e5c20d851b3b156a0f1e23255f87ede2c50d592287d96251fc138af504273932d9b32dc1e53c523d68f93cc0a73e6f338cbe8340b59aa90bb0fd3c46beaf3b44b8afb53e6a8f359fe098a788d730309e7af7d9763abdf45e5cbb986199bad22442ac4d1a704e1915e9de5ec20c5d9f5c7d5a5ef55650d96f319b4dc1ffcc09957d90c48f1c8174457ac46955f7cb3da1d8ef677590c5f72cf09442ddafee10906706e924f8861b05516ab28cd76e23ec1a4e232fd4e8a4554a060203fd7653779c3c93f07f693661c14bdcdf8704fc30b18f2adb7e20825cc01d361d15b888c68489da93af0b9647afdf28a326ae0490f5eb933134a162a172261b3e1f69b6ec2bccc6b3fe7cc259dda630bc9ea74253924d9f477b7efe8e5435a40ebdc0295f08624016dcba53c397839ee0fce12a8300e4b7ee562932c9680210ff31293d2012cadc120c8e67f46d69e892c891033f8ea94a02831fccdab0844016118d3b99342a60295d98e3e49c7b1b0f83817f50793fc771e3b4d243336532226ab5d3411e320fd821910af47b2ed701ad62ebfb127085b5a444c78d7f5c10562d64aa0078356ead364d13082f44897e0d4456b45e939dbea50f9d26a8dfc69ffa9257a7e09c35db754c4b6ecebbc191a086ccf01cef51c8c11082598cb69e93b6af2aedd0c1f3a3ab35d3fa8cb7d81af461e8d450c134edf34248f9cb78045ee4e1df696c62bd4fda87018266abb90f8858d73e2da15fb0dabadde3f8e7f06a989f100b1c08d683e786f47efc22f69454bcab0df36c6e188e6c38262f69ad0579928a71f2f6f5d92e5c1df5864563c92988e534f4e0cf44bd76e33de8337f55d7faa185ee5aa0984751e7791126435f995666dd557233b431cc67ef6dca41c5b6d36f369918b17a5956959a88d4698092dfdb00b02ed6c1436688283420ff1bbfbdc15107127a72302cdc08e78b235ec529166c8c5c7f827df281a636631551c9e68df1fae32cbb023256e2631060d59bd5eb637cf0130d931515cc68d33c96f7ba8d29704d574c7bd9833f9ef911a6e409d8b61f81bbbf2a979f3bb55d5dd21aeebedf87b954abdb7e6d7dc24f8596bfefd9e8a496e9c70d5a39a3d3b1895950e078282240328fb08459820989b533dd9eefa8c0d608f540019650029ad97c6c59a5059dda01e7bd3de3a8240e6930bde18c9bc538424d43a386a5ddaeac8af66c5aba189b85c22f6e21977abcf0e390e85fe51abd0f7dac8c1a2d05e1317299beadba957a7c459a575d2fc16096acaf9b69fe8624a0c32b28d46f49443939e856788b109224a73e47aded97f3aa1ae49a19164b11326d9a3f2dd0fbf390234ca352c9fe0df7334af0e369337e034b178f471e8e911e085006f1be68c821f9997f7df1e1d99285d532eef65c92eb8026cbf364d16c64b3fc870e72cf23bad3281217cbd1223b87cf78b3b23018f8b936b8c0b5c4953a5479eba699e30ab165264080a0d282b3c555a5d616b6c929397abcfd3e9061a2324373c3e54606b7fa7b9cdd7dee60b0c18262e4d515260a1ced1d9f60317183a434754565d6a7fb4dee4eafb00000000000000000000000000001324324201",
        "00b4254d10e13a301201b0804ba1de4bf2eea748de5e29ed8785639e0e49c050797ad7a35201332580f2513b706df3c9ec755b69b6161a15b60baa30961a1cade72cb7667045d50f171d8dbbc7305cb4a63d74e3f7f9e5f25609f109ac06937de8d8f57389a0ccb1d8e1e859387c1c9a1401d9c9f7cd1f5c2ab226c138a328761d2fd638b2cd2573e120e9c9b7141f43dea5398bcb07ab053978ab45d30efc41b24b174fbf4f84c4a0814652776edd30d21e9a18a0a1b35375559c2ede780ba570b958439536dd4ae6dc920be9cf0854d88e5f03d07c40c3cfc463c0bf3d30f368ee8ced71e7f240cfd27ce48ba77a301b4ae9f92ee8be8c158cacf3a36916b8ba9e7e04c7103eed84bbea39419cc3e2af48667127446076d8639d6a6a99a6dbd390a8a10242bec3fdce379c148aa963a17763345c0d4fbd99b4c974032e9b9093984b9463e37d6b90202a23ed25280387276263fdd7cd1e14216c2f0de9b8c407812c4081dafb0dfb3b3ca8da481d15eef67acab4f7b5bdc53f182dc615fce27ffba30879ae2078361cef3d43606858feced967697947f88b7e4c63e4a6ec58e23f2ea8ee48e684b696d16d960169fe34da4bc4698f7ec018b8bbfef95303fee932bc1ceabe59a2a3017a38a67174f000d5aa1f59008f70b9b18f21d0d1e2120e85b793d45917d936cd9eb2cd324f39e8241f86a431c8a6d0a2d4175b38b185fa3a7364ee2515667918f3b24b9453b73e27640c2f024ebbc8efb6471c1440eceb656fe44339e9855e020fa298216a6331f78b2d241c8682c8d56e9511b8d10d4444827d689dff58fa20f382a2401cf5f70d2f351435b9fc2394c774ba41e73c6605d109eb9cadddba2f6c70f22a0687cd078a771989505d742ed6d9de27e76279709143757f546c03836c49f7bb5abed463e353e7c184f52cd56d6880d4e1adbf99c8a47f8d06c7bbc89e918878d94a42323994bd899fd75295127a81a4537a16ae2f91c4672d93de2b0110e3e75a4735b65c42f2a27bcc4366877bd0158e53174421388045f01126101675b433104c84c399fd16fab409935c7db33940a08b89057e500b15594b14bca7defd1926e920dbf284c1a5fc91bd8794be4d5f2bdefdd4792b8d19f62f2dda3a87f61a8155e95329faaa3f7faccf690151990c7e198148b768d6b9011d5e255df2e5b18e13ed94a7cbc4dacd6a0953959905282979871ce867ebee144a45ea3707f8406af934b0aa8ca466dea70bdeffd6a474a04a200b6d8e73514c05f10ed219bc2ef0df5f8ece64656418b34e9e88627c26e8be1caf45244a30bbb3780fcfb8eac6bbdd8f65aa329bc80be37d3e724c8299c5c4c80456578917a87c03d5ca491814e4fccddd8d7aa7032da2da10ce6f9b0f9216aea97fcf46fbac2721f34ff5ac2eb11aa29c467a6366a8364d5a81e93ef38142df607252b97a3f33ceb2f105947e18a2c3d5c304e6e9774841da7ad9c3c42c6488b922292b496cc00e625ee2416aed27f0e224aa804fa6d7c270e77af16b7f254bfbc1c020062662ccec4b97afecd2b253f3cfcd4a0103d2c9aa8bf7fa780e527995dc6994eaddd2b303e464df708c82576ac5ac28616671e0fa173f0884a42e0b645ec4b46a6d3e627db181ca58f8155f823bc40f629620f3c760a12b8255b7d12f5c1d81077bbe9e52bd92606f1ebd745148a575b7ffbf0e38c8a0787ba33fc201363c2a570ef12c41a7ea876791b87b4d97182140ce4c64f5266e2b8c205dea89da04ca4a2617b20c192e0ee5b8b738f1134135d2345093e2306bd2047338e0866746e0c9e6139993228bc5205b0e3fcc0db0767c9b05eaae8a10d5fec218f2"
      ],
      "sequence": 4294967294
    }
  ],
  "vout": [
    {
      "value": 1.0,
      "n": 0,
      "scriptPubKey": {
        "asm": "OP_RETURN 6d2c644db20e79b24880b8fac614c4dafed26b1b4ab7e7ac68e90b7bc8fa1997 f47d47c5aabceb91cd95bdf9b47262da34402e17dc783275e3461fff0a47c8bfd45d67e58a9ccbb1edb59dd9945242fa14600e37fc581255c3663fdf2a67e89fb43d0785eafcabd18dd5fdb9f432229a74006e579c387235a3065fbf4a0788ff941d27a5cadc8bf1adf5dd99d41202ba54204e77bc18521583267f9f6a27a8df74fdc7452a3c6b114d153d7934f2e25ab4c0ae975cf8b2f563c69f7f8ac7483f54dde7650a1c4b316d351d5914d2c27a94e08eb77cd892d543e6bf5faae7681f34bd87056a7c2b510d557d3974b2a21af480eed71cb8f2b52386df3fca87087f149da7254a5c0b712d755d195492823ad4a0cef73c98d29503a6ff1feaa7285ff47d47c5aabceb91cd95bdf9b47262da34402e17dc783275e3461fff0a47c8bfd45d67e58a9ccbb1edb59dd9945242fa14600e37fc581255c3663fdf2a67e89fb43d0785eafcabd18dd5fdb9f432229a74006e579c387235a3065fbf4a0788ff941d27a5cadc8bf1adf5dd99d41202ba54204e77bc18521583267f9f6a27a8df74fdc7452a3c6b114d153d7934f2e25ab4c0ae975cf8b2f563c69f7f8ac7483f54dde7650a1c4b316d351d5914d2c27a94e08eb77cd892d543e6bf5faae7681f34bd87056a7c2b510d557d3974b2a21af480eed71cb8f2b52386df3fca87087f149da7254a5c0b712d755d195492823ad4a0cef73c98d29503a6ff1feaa7285ff47d47c5aabceb91cd95bdf9b47262da34402e17dc783275e3461fff0a47c8bfd45d67e58a9ccbb1edb59dd9945242fa14600e37fc581255c3663fdf2a67e89fb43d0785eafcabd18dd5fdb9f432229a74006e579c387235a3065fbf4a0788ff941d27a5cadc8bf1adf5dd99d41202ba54204e77bc18521583267f9f6a27a8df74fdc7452a3c6b114d153d7934f2e25ab4c0ae975cf8b2f563c69f7f8ac7483f54dde7650a1c4b316d351d5914d2c27a94e08eb77cd892d543e6bf5faae7681f34bd87056a7c2b510d557d3974b2a21af480eed71cb8f2b52386df3fca87087f149da7254a5c0b712d755d195492823ad4a0cef73c98d29503a6ff1feaa7285ff47d47c5aabceb91cd95bdf9b47262da34402e17dc783275e3461fff0a47c8bfd45d67e58a9ccbb1edb59dd9945242fa14600e37fc581255c3663fdf2a67e89fb43d0785eafcabd18dd5fdb9f432229a74006e579c387235a3065fbf4a0788ff941d27a5cadc8bf1adf5dd99d41202ba54204e77bc18521583267f9f6a27a8df74fdc7452a3c6b114d153d7934f2e25ab4c0ae975cf8b2f563c69f7f8ac7483f54dde7650a1c4b316d351d5914d2c27a94e08eb77cd892d543e6bf5faae7681f34bd87056a7c2b510d557d3974b2a21af480eed71cb8f2b52386df3fca87087f149da7254a5c0b712d755d195492823ad4a0cef73c98d29503a6ff1feaa7285ff47d47c5aabceb91cd95bdf9b47262da34402e17dc783275e3461fff0a47c8bfd45d67e58a9ccbb1edb59dd9945242fa14600e37fc581255c3663fdf2a67e89fb43d0785eafcabd18dd5fdb9f432229a74006e579c387235a3065fbf4a0788ff941d27a5cadc8bf1adf5dd99d41202ba54204e77bc18521583267f9f6a27a8df74fdc7452a3c6b114d153d7934f2e25a3b6102da4698c54cf7293d9d0536912fc4656d54179d59e4a18218656040a5bb",
        "hex": "6a206d2c644db20e79b24880b8fac614c4dafed26b1b4ab7e7ac68e90b7bc8fa19974db004f47d47c5aabceb91cd95bdf9b47262da34402e17dc783275e3461fff0a47c8bfd45d67e58a9ccbb1edb59dd9945242fa14600e37fc581255c3663fdf2a67e89fb43d0785eafcabd18dd5fdb9f432229a74006e579c387235a3065fbf4a0788ff941d27a5cadc8bf1adf5dd99d41202ba54204e77bc18521583267f9f6a27a8df74fdc7452a3c6b114d153d7934f2e25ab4c0ae975cf8b2f563c69f7f8ac7483f54dde7650a1c4b316d351d5914d2c27a94e08eb77cd892d543e6bf5faae7681f34bd87056a7c2b510d557d3974b2a21af480eed71cb8f2b52386df3fca87087f149da7254a5c0b712d755d195492823ad4a0cef73c98d29503a6ff1feaa7285ff47d47c5aabceb91cd95bdf9b47262da34402e17dc783275e3461fff0a47c8bfd45d67e58a9ccbb1edb59dd9945242fa14600e37fc581255c3663fdf2a67e89fb43d0785eafcabd18dd5fdb9f432229a74006e579c387235a3065fbf4a0788ff941d27a5cadc8bf1adf5dd99d41202ba54204e77bc18521583267f9f6a27a8df74fdc7452a3c6b114d153d7934f2e25ab4c0ae975cf8b2f563c69f7f8ac7483f54dde7650a1c4b316d351d5914d2c27a94e08eb77cd892d543e6bf5faae7681f34bd87056a7c2b510d557d3974b2a21af480eed71cb8f2b52386df3fca87087f149da7254a5c0b712d755d195492823ad4a0cef73c98d29503a6ff1feaa7285ff47d47c5aabceb91cd95bdf9b47262da34402e17dc783275e3461fff0a47c8bfd45d67e58a9ccbb1edb59dd9945242fa14600e37fc581255c3663fdf2a67e89fb43d0785eafcabd18dd5fdb9f432229a74006e579c387235a3065fbf4a0788ff941d27a5cadc8bf1adf5dd99d41202ba54204e77bc18521583267f9f6a27a8df74fdc7452a3c6b114d153d7934f2e25ab4c0ae975cf8b2f563c69f7f8ac7483f54dde7650a1c4b316d351d5914d2c27a94e08eb77cd892d543e6bf5faae7681f34bd87056a7c2b510d557d3974b2a21af480eed71cb8f2b52386df3fca87087f149da7254a5c0b712d755d195492823ad4a0cef73c98d29503a6ff1feaa7285ff47d47c5aabceb91cd95bdf9b47262da34402e17dc783275e3461fff0a47c8bfd45d67e58a9ccbb1edb59dd9945242fa14600e37fc581255c3663fdf2a67e89fb43d0785eafcabd18dd5fdb9f432229a74006e579c387235a3065fbf4a0788ff941d27a5cadc8bf1adf5dd99d41202ba54204e77bc18521583267f9f6a27a8df74fdc7452a3c6b114d153d7934f2e25ab4c0ae975cf8b2f563c69f7f8ac7483f54dde7650a1c4b316d351d5914d2c27a94e08eb77cd892d543e6bf5faae7681f34bd87056a7c2b510d557d3974b2a21af480eed71cb8f2b52386df3fca87087f149da7254a5c0b712d755d195492823ad4a0cef73c98d29503a6ff1feaa7285ff47d47c5aabceb91cd95bdf9b47262da34402e17dc783275e3461fff0a47c8bfd45d67e58a9ccbb1edb59dd9945242fa14600e37fc581255c3663fdf2a67e89fb43d0785eafcabd18dd5fdb9f432229a74006e579c387235a3065fbf4a0788ff941d27a5cadc8bf1adf5dd99d41202ba54204e77bc18521583267f9f6a27a8df74fdc7452a3c6b114d153d7934f2e25a3b6102da4698c54cf7293d9d0536912fc4656d54179d59e4a18218656040a5bb",
        "type": "nulldata"
      }
    },
    {
      "value": 499986.7803,
      "n": 1,
      "scriptPubKey": {
        "asm": "1 d141486b2f28f12886e98b6ba72425c59393a1afc76555daf9070ef094250813",
        "hex": "5120d141486b2f28f12886e98b6ba72425c59393a1afc76555daf9070ef094250813",
        "reqSigs": 1,
        "type": "witness_v1_scripthash",
        "addresses": [
          "3QJmnh"
        ]
      }
    }
  ],
  "blockhash": "a1887b0a0b2991e806ccea2240d48d15dc99191e60c31f7623b06398d7a984df",
  "confirmations": 1,
  "time": 1764178092,
  "blocktime": 1764178092
}