{
  "hex": "01000000000101f155420c09e1e9bdcdad4840b5024b10d1c2978b6768c0eff2ea72d831e6d54d0000000000feffffff0200e1f50500000000fdd5046a20f06c726115b367c72e7676c988855c9ba2dae619a89648d362f966de7f35dbe24db0049d387108f7d5dc227425aabd98d5c89592a50e6563ecaaea8864541288c6af6fbd185128d7f5fc0254058a9db8f5e8b5b2852e4543cc8acaa8447432a8e68f4fdd783148b7959c623465eafdd89588d5d2e54e2523aceaaac8241452c886ef2ffd58116897b5bc421445caddf8b5a8f5f2c56e05038cca8ae8043472e8a6cf0f1db8f18877555ca2f4a52a3d1855481512258ee5e36c2a6a08e4d49208462fef3d98d1a857757c82d4850a1d387568353205aec5c34c0a4a28c4f4b228660fcf5df8b1c837151ce2b4e56a7d581508555265cea5a32c6a2a48a494d248066faf7dd891e817353cc294c54a5d783528757245ee85830c4a0a6884b4f268264f8f9d387108f7d5dc227425aabd98d5c89592a50e6563ecaaea8864541288c6af6fbd185128d7f5fc0254058a9db8f5e8b5b2852e4543cc8acaa8447432a8e68f4fdd783148b7959c623465eafdd89588d5d2e54e2523aceaaac8241452c886ef2ffd58116897b5bc421445caddf8b5a8f5f2c56e05038cca8ae8043472e8a6cf0f1db8f18877555ca2f4a52a3d1855481512258ee5e36c2a6a08e4d49208462fef3d98d1a857757c82d4850a1d387568353205aec5c34c0a4a28c4f4b228660fcf5df8b1c837151ce2b4e56a7d581508555265cea5a32c6a2a48a494d248066faf7dd891e817353cc294c54a5d783528757245ee85830c4a0a6884b4f268264f8f9d387108f7d5dc227425aabd98d5c89592a50e6563ecaaea8864541288c6af6fbd185128d7f5fc0254058a9db8f5e8b5b2852e4543cc8acaa8447432a8e68f4fdd783148b7959c623465eafdd89588d5d2e54e2523aceaaac8241452c886ef2ffd58116897b5bc421445caddf8b5a8f5f2c56e05038cca8ae8043472e8a6cf0f1db8f18877555ca2f4a52a3d1855481512258ee5e36c2a6a08e4d49208462fef3d98d1a857757c82d4850a1d387568353205aec5c34c0a4a28c4f4b228660fcf5df8b1c837151ce2b4e56a7d581508555265cea5a32c6a2a48a494d248066faf7dd891e817353cc294c54a5d783528757245ee85830c4a0a6884b4f268264f8f9d387108f7d5dc227425aabd98d5c89592a50e6563ecaaea8864541288c6af6fbd185128d7f5fc0254058a9db8f5e8b5b2852e4543cc8acaa8447432a8e68f4fdd783148b7959c623465eafdd89588d5d2e54e2523aceaaac8241452c886ef2ffd58116897b5bc421445caddf8b5a8f5f2c56e05038cca8ae8043472e8a6cf0f1db8f18877555ca2f4a52a3d1855481512258ee5e36c2a6a08e4d49208462fef3d98d1a857757c82d4850a1d387568353205aec5c34c0a4a28c4f4b228660fcf5df8b1c837151ce2b4e56a7d581508555265cea5a32c6a2a48a494d248066faf7dd891e817353cc294c54a5d783528757245ee85830c4a0a6884b4f268264f8f9d387108f7d5dc227425aabd98d5c89592a50e6563ecaaea8864541288c6af6fbd185128d7f5fc0254058a9db8f5e8b5b2852e4543cc8acaa8447432a8e68f4fdd783148b7959c623465eafdd89588d5d2e54e2523aceaaac8241452c886ef2ffd58116897b5bc421445caddf8b5a8f5f2c56e05038cca8ae8043472e8a6cf0f1db8f18877555ca2f4a52a3d18554815bc44115cfe98b9ec48db7b10aa13b0c49c6be4327f717aa548c775be273c6f97b0767139792d0000225120f1f8d4b853b937f75cf4c63d7c107422ea7d8b645bb3e7c7d4b4dc967e7d9ee902fd75092b20b7c2fb4af02a06627143b352be293dbec24444dda1c4337a2ab450e4e2b07a4a43a826237296a2c713eafc0c24885332729d4576fc06f4647305ecfbaa5c5657a5ef92082b2dacbf331f53a72327ec78fb242bbd3d7c3bf3ff772ae94e627744d9408ba6433282e3a27778b67b1f369b8eaeb2229d4cb595e506dca9e7dc0245537830cc11449d078702ce0ead2b5a453f99c9e84105bd5d6e607a8560db912ad9449ce0f6edeeb31fd4897f6f760568822b12fded6047425118dfa3e1680caf35afc2b0618636d1002944e72d8d5af47be4947f84fd20de4492e5fa202d7fd95e45b8ac08b2b4edd7c88ce0f93c7b2c0ef58750326bca886b713d0954f0db920dd6aac895959c8b1a0cf6fb085bfe0c7c65aacdaabf6424ef19d1ae189613161d472069bdd1be0e7748ec530aae7d7c7732c63674e2b55541d42054ee79935fcd32af739927faddc46adfb27ad5542ad9fd96bccdf6903cfe0d80f2765d3869d67e95f86cb67516a7545afd1f779c59486aa839befdbb1e22d756929ea09a9d66bfc1bf9ebe487c312fcbc5a41270e0f2635f88e5c9ba1df32fec6a8588cf968a8051684f1a0dc97ff491e2314870ffbdc3741ff7d423d28a50f575389ec26372f98086ed901a8eb9ac8bd4fe5a4e2e37f7917e1a58fa533a3da0528ff06b20e5fcbe9907a837f33c04c7503fe9a8ce50601df414ccfb49b9534a5fcebc7f79cfba3c5b096ad0dfa7ade61b6c5ac4bbc3d1b94545d975b805060b2de8d88c5360174b1570b0e3d67ccae321137fe90da88377e5c7c0e62c2daf25a754f779f594c6d769c7ad1a38b3fa4e832df45c74a794a51c71e575d464a83a1882d51a1756b2add8cfa4bae930cb562179f6ef7698977ddcacad548bdd3bf22bd9d3581bac3d2df866d4b824353de70c9ad191687073ec976e04420354253d934884ae2414a8bc471ae6b24bb915a88552cb0ce5921926aab3a4ddeb55c96372798e1ed6d0887b2e8b6bbbed033cef2bf568171d343c9c4ab0da088a9aeea778814290011d8a76934c5a8218a9e6d63b68074d9c4efe2279ef75f894596391067ab385e55313a2c765ae57abcc87c269313ac193e1a0c3409b2f2fd441c47faa3035a8ea21105300e956fb7acda1b3307dfd8115210ab1d308b516f7d872f8a79e4111dac1fc6bc04c8547245d22e03d2765857b1f3e81b9c8a0f11f11c4fb3f2049f700348637a9d1f2962aa864eb69ee5eefe66818f16a82da31cae303c4485d612fecab01a145786f72b51ae4dfd0bbe9a7e1acb1d117714139340d3a6ea11f33d5141ade126c2c5e9d959afff48325c20e4763860e9cf6aad0c8ae0bb5d6fe635ccae4a9d9cfd1654ce934453221f00810ce754a8d81433a2e7608849eaf98db169c38d2830e4ad91374f66981ef74dfc8000db4caa76353618aebcbb9f40d1e2a9e31a80a45ce690895eb0d270009bfff3a9e1f1aa628151d0a5081a979bc0376383049842993e12ae9c37515d6647c3ac0a5a87b60df8f2416dd9469ab0ed4a9e8abd53316c0cf4e2dbf01f2e9a1e107aa4eed16b8ce13f5957aea419b4bdb66d805595f495bdd2add9dbc01cb2b3e184b0fcceaafdfe9de85017b0848339a8203379461e8d3a2376bc369d8941cc1e8586056f35520ce07a04b82dbead2400dcab3a9dcad19ff188d0e50353391b67bf28a977d5b7adc0abe5d0675f6b4dd43e18dba2124cda5901413013d922f6d25ce8f2a15d3bdec65b5bf25f3b880f4a25e947a0a8749b03e2e6c2f9bf3f9883045e64fb7d10a3e1509f86403f6139994668c8be6f019cb4973c423360544ec1099b0dfa251d5386e1df1ce495b727598f73ce824f5d07f492234526becdcba1e013570018d0aadb97fe89e6a05d49b183426f0085e58669cbaef4aa470782b03e77d722d78c71ce38736dfb379b83ced5357faccb978b1cb7215503f124d9be9c249b3cb3b1123acfa05e285672de63b9f9b140d5fe4662986f311c78dd00b96d8f240285b3ca7da2bcf6772085e8c5cbbc723d735984c0c57549d28c226888a263e03b2d1d689aa19792d50d21385788b28e41b8572cd74af26e23f445b9f269dcbd469e520e4ffb1a1e2c4b92186c2e5d2c44aa59052775cb2319d5d53213a08c93b230d476b2cd2d4ae9cf17a8a3cd17b8f76d785dea5b34778bbd80fe7762fb7a32cbc5aba9886d60120ec03fb935154d8097625269a965f497858edbe74d74de76a01dd6c1e4dd79816d89b3f2b4820bedd8606b33227d68612c4930f9973794dcb93fb413f39c51e2ed32db6a43a9e9823ca408bf999ac87d3c320fb388497b87a68fed5a24983eef06dcccb6959fc4df3a8160360821360220f7488ea35bfc4a398d64ec95d0d4e4832ce55d56d3b5e63548ab168b30139eae0c620a1042d84c1fe19ccc5493bcfe211c7d457a7956682e849fc489e77851d0e2b9c1df186656b1e7e58e7a7ef65d644cee6b33b776425f6a6fbfb757d2bb9b7165099144efb3a58ab781b19caee6a9feaddac607477c2e77ce7727777c042f07af07e3cc04fba93d204058542600aa949b1d0706a6ed8bd7357014f17e5f2fdb7a29db63e876fe1d16d03bde12b283159c85701c9e50cb4bbe8572dc7bf35a323eba7b1a49109bb6c1850924702fbf985e5d1da60da5b70aed32cc5a2d4a9320e6bdf223e47dbd1d9658a433db14bc826ec7ad091b1c4c5247f5f59c354fc80d0fbdda630ea148d59ebed60e9f27979abdf541014a98380d37fdcac323b75750acc4f1ff2318b4f043c4b8bd7fdfe75f7948316d297470ecb1b75f4dcbeb28e57a1bbd9273fcb32029e5e6b6e139877c0cd69e44ecc50d9a6f28fb23d1bc6b271e3c242e38cf3b35287557bd0ca99aee68cda9410797b6b7127b0805eff86c044f3e55ba1eabfb3284fbd5dc770a76b46a8e4433a6c0ec78882e982b68c70b1bb0f4d5a7a236eceb048e54e4ec4ceb496320921e849dd0cf3c395d26055b8317e94fbce79cc7a5fb049c0c2d6190550210462e032472eb06039191d2526dd917ceebb9064e7be902ac9af4422e0a59f93777fbfb92ad233fff48819682abd41b8b65c14e104fb2423b68238cb0904d6329a8759f9dd3e7371706e5866927ac8b8766a1472c382540536ecca5ae177fff2d92c5ab0729afe1ee8546605ba3d80e48a12e3e68c2000e3164efb6138b8406aab991a56b1613bd96f3ef01b53ba71a4a3f2bbfc46a706d0caa7e55fe69dd4bad33c4e5a76b22be1cbfa72637b0e5935fb4bd70355603c675d0cb61ef91a1a670f0f205165678798a8c4d2daebfbff1a484c555e5f77899296a5aeb4c1ccd3e2f0f30b232a485f77b1e3eafc0f17587d939aaeb0dd000000000000000000000000000000000000000000000000000000000e212b3401fd2105009f3d0e4cde0ed675ce66bf7a1ae81b3950c17080d51cc190cb8b703b047fccbec6bfab38f7e3e71f2dadd02d620fad67ee8be1b27f9d40923dc365cc1b694c3ad133e5440fa94ebd40db84c723036da59ce842772d696b14c6dde855a6dd35f869b50bb73f48b75e3efe5c350c784879de9f2ff22791d74b3ef3ba13940cede2346086cae84665a914a7f0469753d7c039339c1d85e50694978d5cd48fae70b68f1414b5d79c1084df5406bba890c57c2f89638df2968df3b4e82c66464edd66c5c85f0213357d1bbe5496a8949e46488f9ab70c69f74488b9b7c8503a786a16a6401cdaf549c6da588357aa942d1ae772a0b835f005478bb3e941c36160b77be501947b1c8150c96599ad4fd7cdd07eaf71d73c9e02ddc02d293beee709b4048a24927480a5c6605ef3da75a9a61041781275854ea9f5ab1836669e56504c3683d3f4f14e34fdc73bc2ac7bd6c3ae03f1ad1eac7bf6ba46e45bd7279eb0b589b49334e242d02c5dc6abb52e543b20a3c81b2fdfb86d25d43ae1031bc0fbebea504fac62bac6c564ce3ac96fe3366808fcf2d1024bd522acda69c248a2c2a068ead7387dbca3bd0f39422060b8619606704748af568dbdcbdb7488edada5343b87b92ff0d789743ebc35e52b731268c66971bdf5532ba1fba287c3d619fd702a5d9ad041eebff821a6023b4ae06b3a3bfbb39b98d0a01509df2b68ffb472ca5418fc2bf438a035784cf745f9298f6dd3d42c4c8770a3c9c391a419dc996e61e17810e038364191a3e774381233c118b4b145a1e88e247e19ad36b930eb39e01efa5e80d98b4c05eae7f69d562cdbf2a5afa8abd4d8458fc0969bb2c2995643ccfd721f7a7b0c4b57a468cdd55d159c2184128a092aa856e68290e95822e050509a84c79f29019104a19fb3af9984bfb2d6b52c20e87f05e24d46fc29e10bfc24aafd191ded5f363e0015fd4a0e6b81f79aeb2529a0774b804b6b65e01ea225b82fcfa55b3469297900c180721d26d83514f0a98fedcc77a532a948ce2880576a454c996ec89ee8eaa863ed647de4a9d6bc2ed51d72bc38933358c9c2880539a2d06f5752a911fd901e8169ea6495639ca9d10159b9d4581ebd3bb9d560c4d5c9de6b04d4c6fddf2f727366604025191526ed924ff999bee41b9fe0829c59422684e61eedb801e893ba599046ebbd62ab7d4448030ac34dea1a6d55b9648b53f87e362d00219ebfb3ab157ad2ea1a7e2b46aa46e12e908220ac029103832d1a3e53840f0a752c479ee625a5acd9847c091375ce1ca99632bc3f5943360591155c72bf1f857aea9b848b4c82e0694dd4a0a90cdb83f101e9ab9dd4360a34a4252cb95d8a342da7a1674e9747061507eb62c39b9e5322ccc4dfe62bde6588578284f90b827921da26344159435d41331b516c2cdc1e3a80a6b517320fbfedad78eab0be38cab0588fb32c60a5969307ecf2b9d9457ac94c79d3ff266d68a3ab833a023ceb0316aa38a25fbe9c6983fc98e49f129463030b3a29307aa2d47ab7b87c097ef458aa986203df0eacd2fca98067729d6b26f76371f40b294400edd3bd2ff4814dd22e253a70f330a33850b4a469233e84f52e6cd521f47b71795eb1f226a87fb4e1e8034b79afe6dc65c46a84a45c448d54dece6df1e65a2fc099760d63b372cf4e99c9b3d764de3a24564bea6ec53b8269ab0e6cab1e544e3cc7af9e54f8d0a610807ab356f93f15abc34b14b1dc5b762016cb3fb48bcaa3f52bf2d36639b9e06b08b689622ae1f583c865e2b0c05727034a577ea2b3ea9fc831b5791fa48fb3cdf2f622c598766b0da8d63a854d420be970f9799e50a9b18b617869a386000000",
  "txid": "5ea904f910a54f301c690540878189dc705bf95251c94be34b77439d7d396c4a",
  "hash": "80c803a6cc9b0a354a0da1f7c5c4aac31758cd1ff2db8221f131995b0f80c063",
  "size": 5085,
  "vsize": 2278,
  "version": 1,
  "locktime": 134,
  "vin": [
    {
      "txid": "4dd5e631d872eaf2efc068678b97c2d1104b02b54048adcdbde9e1090c4255f1",
      "vout": 0,
      "scriptSig": {
        "asm": "",
        "hex": ""
      },
      "txinwitness": [
        "2b20b7c2fb4af02a06627143b352be293dbec24444dda1c4337a2ab450e4e2b07a4a43a826237296a2c713eafc0c24885332729d4576fc06f4647305ecfbaa5c5657a5ef92082b2dacbf331f53a72327ec78fb242bbd3d7c3bf3ff772ae94e627744d9408ba6433282e3a27778b67b1f369b8eaeb2229d4cb595e506dca9e7dc0245537830cc11449d078702ce0ead2b5a453f99c9e84105bd5d6e607a8560db912ad9449ce0f6edeeb31fd4897f6f760568822b12fded6047425118dfa3e1680caf35afc2b0618636d1002944e72d8d5af47be4947f84fd20de4492e5fa202d7fd95e45b8ac08b2b4edd7c88ce0f93c7b2c0ef58750326bca886b713d0954f0db920dd6aac895959c8b1a0cf6fb085bfe0c7c65aacdaabf6424ef19d1ae189613161d472069bdd1be0e7748ec530aae7d7c7732c63674e2b55541d42054ee79935fcd32af739927faddc46adfb27ad5542ad9fd96bccdf6903cfe0d80f2765d3869d67e95f86cb67516a7545afd1f779c59486aa839befdbb1e22d756929ea09a9d66bfc1bf9ebe487c312fcbc5a41270e0f2635f88e5c9ba1df32fec6a8588cf968a8051684f1a0dc97ff491e2314870ffbdc3741ff7d423d28a50f575389ec26372f98086ed901a8eb9ac8bd4fe5a4e2e37f7917e1a58fa533a3da0528ff06b20e5fcbe9907a837f33c04c7503fe9a8ce50601df414ccfb49b9534a5fcebc7f79cfba3c5b096ad0dfa7ade61b6c5ac4bbc3d1b94545d975b805060b2de8d88c5360174b1570b0e3d67ccae321137fe90da88377e5c7c0e62c2daf25a754f779f594c6d769c7ad1a38b3fa4e832df45c74a794a51c71e575d464a83a1882d51a1756b2add8cfa4bae930cb562179f6ef7698977ddcacad548bdd3bf22bd9d3581bac3d2df866d4b824353de70c9ad191687073ec976e04420354253d934884ae2414a8bc471ae6b24bb915a88552cb0ce5921926aab3a4ddeb55c96372798e1ed6d0887b2e8b6bbbed033cef2bf568171d343c9c4ab0da088a9aeea778814290011d8a76934c5a8218a9e6d63b68074d9c4efe2279ef75f894596391067ab385e55313a2c765ae57abcc87c269313ac193e1a0c3409b2f2fd441c47faa3035a8ea21105300e956fb7acda1b3307dfd8115210ab1d308b516f7d872f8a79e4111dac1fc6bc04c8547245d22e03d2765857b1f3e81b9c8a0f11f11c4fb3f2049f700348637a9d1f2962aa864eb69ee5eefe66818f16a82da31cae303c4485d612fecab01a145786f72b51ae4dfd0bbe9a7e1acb1d117714139340d3a6ea11f33d5141ade126c2c5e9d959afff48325c20e4763860e9cf6aad0c8ae0bb5d6fe635ccae4a9d9cfd1654ce934453221f00810ce754a8d81433a2e7608849eaf98db169c38d2830e4ad91374f66981ef74dfc8000db4caa76353618aebcbb9f40d1e2a9e31a80a45ce690895eb0d270009bfff3a9e1f1aa628151d0a5081a979bc0376383049842993e12ae9c37515d6647c3ac0a5a87b60df8f2416dd9469ab0ed4a9e8abd53316c0cf4e2dbf01f2e9a1e107aa4eed16b8ce13f5957aea419b4bdb66d805595f495bdd2add9dbc01cb2b3e184b0fcceaafdfe9de85017b0848339a8203379461e8d3a2376bc369d8941cc1e8586056f35520ce07a04b82dbead2400dcab3a9dcad19ff188d0e50353391b67bf28a977d5b7adc0abe5d0675f6b4dd43e18dba2124cda5901413013d922f6d25ce8f2a15d3bdec65b5bf25f3b880f4a25e947a0a8749b03e2e6c2f9bf3f9883045e64fb7d10a3e1509f86403f6139994668c8be6f019cb4973c423360544ec1099b0dfa251d5386e1df1ce495b727598f73ce824f5d07f492234526becdcba1e013570018d0aadb97fe89e6a05d49b183426f0085e58669cbaef4aa470782b03e77d722d78c71ce38736dfb379b83ced5357faccb978b1cb7215503f124d9be9c249b3cb3b1123acfa05e285672de63b9f9b140d5fe4662986f311c78dd00b96d8f240285b3ca7da2bcf6772085e8c5cbbc723d735984c0c57549d28c226888a263e03b2d1d689aa19792d50d21385788b28e41b8572cd74af26e23f445b9f269dcbd469e520e4ffb1a1e2c4b92186c2e5d2c44aa59052775cb2319d5d53213a08c93b230d476b2cd2d4ae9cf17a8a3cd17b8f76d785dea5b34778bbd80fe7762fb7a32cbc5aba9886d60120ec03fb935154d8097625269a965f497858edbe74d74de76a01dd6c1e4dd79816d89b3f2b4820bedd8606b33227d68612c4930f9973794dcb93fb413f39c51e2ed32db6a43a9e9823ca408bf999ac87d3c320fb388497b87a68fed5a24983eef06dcccb6959fc4df3a8160360821360220f7488ea35bfc4a398d64ec95d0d4e4832ce55d56d3b5e63548ab168b30139eae0c620a1042d84c1fe19ccc5493bcfe211c7d457a7956682e849fc489e77851d0e2b9c1df186656b1e7e58e7a7ef65d644cee6b33b776425f6a6fbfb757d2bb9b7165099144efb3a58ab781b19caee6a9feaddac607477c2e77ce7727777c042f07af07e3cc04fba93d204058542600aa949b1d0706a6ed8bd7357014f17e5f2fdb7a29db63e876fe1d16d03bde12b283159c85701c9e50cb4bbe8572dc7bf35a323eba7b1a49109bb6c1850924702fbf985e5d1da60da5b70aed32cc5a2d4a9320e6bdf223e47dbd1d9658a433db14bc826ec7ad091b1c4c5247f5f59c354fc80d0fbdda630ea148d59ebed60e9f27979abdf541014a98380d37fdcac323b75750acc4f1ff2318b4f043c4b8bd7fdfe75f7948316d297470ecb1b75f4dcbeb28e57a1bbd9273fcb32029e5e6b6e139877c0cd69e44ecc50d9a6f28fb23d1bc6b271e3c242e38cf3b35287557bd0ca99aee68cda9410797b6b7127b0805eff86c044f3e55ba1eabfb3284fbd5dc770a76b46a8e4433a6c0ec78882e982b68c70b1bb0f4d5a7a236eceb048e54e4ec4ceb496320921e849dd0cf3c395d26055b8317e94fbce79cc7a5fb049c0c2d6190550210462e032472eb06039191d2526dd917ceebb9064e7be902ac9af4422e0a59f93777fbfb92ad233fff48819682abd41b8b65c14e104fb2423b68238cb0904d6329a8759f9dd3e7371706e5866927ac8b8766a1472c382540536ecca5ae177fff2d92c5ab0729afe1ee8546605ba3d80e48a12e3e68c2000e3164efb6138b8406aab991a56b1613bd96f3ef01b53ba71a4a3f2bbfc46a706d0caa7e55fe69dd4bad33c4e5a76b22be1cbfa72637b0e5935fb4bd70355603c675d0cb61ef91a1a670f0f205165678798a8c4d2daebfbff1a484c555e5f77899296a5aeb4c1ccd3e2f0f30b232a485f77b1e3eafc0f17587d939aaeb0dd000000000000000000000000000000000000000000000000000000000e212b3401",
        "009f3d0e4cde0ed675ce66bf7a1ae81b3950c17080d51cc190cb8b703b047fccbec6bfab38f7e3e71f2dadd02d620fad67ee8be1b27f9d40923dc365cc1b694c3ad133e5440fa94ebd40db84c723036da59ce842772d696b14c6dde855a6dd35f869b50bb73f48b75e3efe5c350c784879de9f2ff22791d74b3ef3ba13940cede2346086cae84665a914a7f0469753d7c039339c1d85e50694978d5cd48fae70b68f1414b5d79c1084df5406bba890c57c2f89638df2968df3b4e82c66464edd66c5c85f0213357d1bbe5496a8949e46488f9ab70c69f74488b9b7c8503a786a16a6401cdaf549c6da588357aa942d1ae772a0b835f005478bb3e941c36160b77be501947b1c8150c96599ad4fd7cdd07eaf71d73c9e02ddc02d293beee709b4048a24927480a5c6605ef3da75a9a61041781275854ea9f5ab1836669e56504c3683d3f4f14e34fdc73bc2ac7bd6c3ae03f1ad1eac7bf6ba46e45bd7279eb0b589b49334e242d02c5dc6abb52e543b20a3c81b2fdfb86d25d43ae1031bc0fbebea504fac62bac6c564ce3ac96fe3366808fcf2d1024bd522acda69c248a2c2a068ead7387dbca3bd0f39422060b8619606704748af568dbdcbdb7488edada5343b87b92ff0d789743ebc35e52b731268c66971bdf5532ba1fba287c3d619fd702a5d9ad041eebff821a6023b4ae06b3a3bfbb39b98d0a01509df2b68ffb472ca5418fc2bf438a035784cf745f9298f6dd3d42c4c8770a3c9c391a419dc996e61e17810e038364191a3e774381233c118b4b145a1e88e247e19ad36b930eb39e01efa5e80d98b4c05eae7f69d562cdbf2a5afa8abd4d8458fc0969bb2c2995643ccfd721f7a7b0c4b57a468cdd55d159c2184128a092aa856e68290e95822e050509a84c79f29019104a19fb3af9984bfb2d6b52c20e87f05e24d46fc29e10bfc24aafd191ded5f363e0015fd4a0e6b81f79aeb2529a0774b804b6b65e01ea225b82fcfa55b3469297900c180721d26d83514f0a98fedcc77a532a948ce2880576a454c996ec89ee8eaa863ed647de4a9d6bc2ed51d72bc38933358c9c2880539a2d06f5752a911fd901e8169ea6495639ca9d10159b9d4581ebd3bb9d560c4d5c9de6b04d4c6fddf2f727366604025191526ed924ff999bee41b9fe0829c59422684e61eedb801e893ba599046ebbd62ab7d4448030ac34dea1a6d55b9648b53f87e362d00219ebfb3ab157ad2ea1a7e2b46aa46e12e908220ac029103832d1a3e53840f0a752c479ee625a5acd9847c091375ce1ca99632bc3f5943360591155c72bf1f857aea9b848b4c82e0694dd4a0a90cdb83f101e9ab9dd4360a34a4252cb95d8a342da7a1674e9747061507eb62c39b9e5322ccc4dfe62bde6588578284f90b827921da26344159435d41331b516c2cdc1e3a80a6b517320fbfedad78eab0be38cab0588fb32c60a5969307ecf2b9d9457ac94c79d3ff266d68a3ab833a023ceb0316aa38a25fbe9c6983fc98e49f129463030b3a29307aa2d47ab7b87c097ef458aa986203df0eacd2fca98067729d6b26f76371f40b294400edd3bd2ff4814dd22e253a70f330a33850b4a469233e84f52e6cd521f47b71795eb1f226a87fb4e1e8034b79afe6dc65c46a84a45c448d54dece6df1e65a2fc099760d63b372cf4e99c9b3d764de3a24564bea6ec53b8269ab0e6cab1e544e3cc7af9e54f8d0a610807ab356f93f15abc34b14b1dc5b762016cb3fb48bcaa3f52bf2d36639b9e06b08b689622ae1f583c865e2b0c05727034a577ea2b3ea9fc831b5791fa48fb3cdf2f622c598766b0da8d63a854d420be970f9799e50a9b18b617869a3"
      ],
      "sequence": 4294967294
    }
  ],
  "vout": [
    {
      "value": 1.0,
      "n": 0,
      "scriptPubKey": {
        "asm": "OP_RETURN f06c726115b367c72e7676c988855c9ba2dae619a89648d362f966de7f35dbe2 9d387108f7d5dc227425aabd98d5c89592a50e6563ecaaea8864541288c6af6fbd185128d7f5fc0254058a9db8f5e8b5b2852e4543cc8acaa8447432a8e68f4fdd783148b7959c623465eafdd89588d5d2e54e2523aceaaac8241452c886ef2ffd58116897b5bc421445caddf8b5a8f5f2c56e05038cca8ae8043472e8a6cf0f1db8f18877555ca2f4a52a3d1855481512258ee5e36c2a6a08e4d49208462fef3d98d1a857757c82d4850a1d387568353205aec5c34c0a4a28c4f4b228660fcf5df8b1c837151ce2b4e56a7d581508555265cea5a32c6a2a48a494d248066faf7dd891e817353cc294c54a5d783528757245ee85830c4a0a6884b4f268264f8f9d387108f7d5dc227425aabd98d5c89592a50e6563ecaaea8864541288c6af6fbd185128d7f5fc0254058a9db8f5e8b5b2852e4543cc8acaa8447432a8e68f4fdd783148b7959c623465eafdd89588d5d2e54e2523aceaaac8241452c886ef2ffd58116897b5bc421445caddf8b5a8f5f2c56e05038cca8ae8043472e8a6cf0f1db8f18877555ca2f4a52a3d1855481512258ee5e36c2a6a08e4d49208462fef3d98d1a857757c82d4850a1d387568353205aec5c34c0a4a28c4f4b228660fcf5df8b1c837151ce2b4e56a7d581508555265cea5a32c6a2a48a494d248066faf7dd891e817353cc294c54a5d783528757245ee85830c4a0a6884b4f268264f8f9d387108f7d5dc227425aabd98d5c89592a50e6563ecaaea8864541288c6af6fbd185128d7f5fc0254058a9db8f5e8b5b2852e4543cc8acaa8447432a8e68f4fdd783148b7959c623465eafdd89588d5d2e54e2523aceaaac8241452c886ef2ffd58116897b5bc421445caddf8b5a8f5f2c56e05038cca8ae8043472e8a6cf0f1db8f18877555ca2f4a52a3d1855481512258ee5e36c2a6a08e4d49208462fef3d98d1a857757c82d4850a1d387568353205aec5c34c0a4a28c4f4b228660fcf5df8b1c837151ce2b4e56a7d581508555265cea5a32c6a2a48a494d248066faf7dd891e817353cc294c54a5d783528757245ee85830c4a0a6884b4f268264f8f9d387108f7d5dc227425aabd98d5c89592a50e6563ecaaea8864541288c6af6fbd185128d7f5fc0254058a9db8f5e8b5b2852e4543cc8acaa8447432a8e68f4fdd783148b7959c623465eafdd89588d5d2e54e2523aceaaac8241452c886ef2ffd58116897b5bc421445caddf8b5a8f5f2c56e05038cca8ae8043472e8a6cf0f1db8f18877555ca2f4a52a3d1855481512258ee5e36c2a6a08e4d49208462fef3d98d1a857757c82d4850a1d387568353205aec5c34c0a4a28c4f4b228660fcf5df8b1c837151ce2b4e56a7d581508555265cea5a32c6a2a48a494d248066faf7dd891e817353cc294c54a5d783528757245ee85830c4a0a6884b4f268264f8f9d387108f7d5dc227425aabd98d5c89592a50e6563ecaaea8864541288c6af6fbd185128d7f5fc0254058a9db8f5e8b5b2852e4543cc8acaa8447432a8e68f4fdd783148b7959c623465eafdd89588d5d2e54e2523aceaaac8241452c886ef2ffd58116897b5bc421445caddf8b5a8f5f2c56e05038cca8ae8043472e8a6cf0f1db8f18877555ca2f4a52a3d18554815bc44115cfe98b9ec48db7b10aa13b0c49c6be4327f717aa548c775be273c6f97",
        "hex": "6a20f06c726115b367c72e7676c988855c9ba2dae619a89648d362f966de7f35dbe24db0049d387108f7d5dc227425aabd98d5c89592a50e6563ecaaea8864541288c6af6fbd185128d7f5fc0254058a9db8f5e8b5b2852e4543cc8acaa8447432a8e68f4fdd783148b7959c623465eafdd89588d5d2e54e2523aceaaac8241452c886ef2ffd58116897b5bc421445caddf8b5a8f5f2c56e05038cca8ae8043472e8a6cf0f1db8f18877555ca2f4a52a3d1855481512258ee5e36c2a6a08e4d49208462fef3d98d1a857757c82d4850a1d387568353205aec5c34c0a4a28c4f4b228660fcf5df8b1c837151ce2b4e56a7d581508555265cea5a32c6a2a48a494d248066faf7dd891e817353cc294c54a5d783528757245ee85830c4a0a6884b4f268264f8f9d387108f7d5dc227425aabd98d5c89592a50e6563ecaaea8864541288c6af6fbd185128d7f5fc0254058a9db8f5e8b5b2852e4543cc8acaa8447432a8e68f4fdd783148b7959c623465eafdd89588d5d2e54e2523aceaaac8241452c886ef2ffd58116897b5bc421445caddf8b5a8f5f2c56e05038cca8ae8043472e8a6cf0f1db8f18877555ca2f4a52a3d1855481512258ee5e36c2a6a08e4d49208462fef3d98d1a857757c82d4850a1d387568353205aec5c34c0a4a28c4f4b228660fcf5df8b1c837151ce2b4e56a7d581508555265cea5a32c6a2a48a494d248066faf7dd891e817353cc294c54a5d783528757245ee85830c4a0a6884b4f268264f8f9d387108f7d5dc227425aabd98d5c89592a50e6563ecaaea8864541288c6af6fbd185128d7f5fc0254058a9db8f5e8b5b2852e4543cc8acaa8447432a8e68f4fdd783148b7959c623465eafdd89588d5d2e54e2523aceaaac8241452c886ef2ffd58116897b5bc421445caddf8b5a8f5f2c56e05038cca8ae8043472e8a6cf0f1db8f18877555ca2f4a52a3d1855481512258ee5e36c2a6a08e4d49208462fef3d98d1a857757c82d4850a1d387568353205aec5c34c0a4a28c4f4b228660fcf5df8b1c837151ce2b4e56a7d581508555265cea5a32c6a2a48a494d248066faf7dd891e817353cc294c54a5d783528757245ee85830c4a0a6884b4f268264f8f9d387108f7d5dc227425aabd98d5c89592a50e6563ecaaea8864541288c6af6fbd185128d7f5fc0254058a9db8f5e8b5b2852e4543cc8acaa8447432a8e68f4fdd783148b7959c623465eafdd89588d5d2e54e2523aceaaac8241452c886ef2ffd58116897b5bc421445caddf8b5a8f5f2c56e05038cca8ae8043472e8a6cf0f1db8f18877555ca2f4a52a3d1855481512258ee5e36c2a6a08e4d49208462fef3d98d1a857757c82d4850a1d387568353205aec5c34c0a4a28c4f4b228660fcf5df8b1c837151ce2b4e56a7d581508555265cea5a32c6a2a48a494d248066faf7dd891e817353cc294c54a5d783528757245ee85830c4a0a6884b4f268264f8f9d387108f7d5dc227425aabd98d5c89592a50e6563ecaaea8864541288c6af6fbd185128d7f5fc0254058a9db8f5e8b5b2852e4543cc8acaa8447432a8e68f4fdd783148b7959c623465eafdd89588d5d2e54e2523aceaaac8241452c886ef2ffd58116897b5bc421445caddf8b5a8f5f2c56e05038cca8ae8043472e8a6cf0f1db8f18877555ca2f4a52a3d18554815bc44115cfe98b9ec48db7b10aa13b0c49c6be4327f717aa548c775be273c6f97",
        "type": "nulldata"
      }
    },
    {
      "value": 499986.7803,
      "n": 1,
      "scriptPubKey": {
        "asm": "1 f1f8d4b853b937f75cf4c63d7c107422ea7d8b645bb3e7c7d4b4dc967e7d9ee9",
        "hex": "5120f1f8d4b853b937f75cf4c63d7c107422ea7d8b645bb3e7c7d4b4dc967e7d9ee9",
        "reqSigs": 1,
        "type": "witness_v1_scripthash",
        "addresses": [
          "3QJmnh"
        ]
      }
    }
  ],
  "blockhash": "74cd48d8c624c37e1fac27c00c19e94c48df61d3ca85b84b56360e4f6170fa6f",
  "confirmations": 1,
  "time": 1764182926,
  "blocktime": 1764182926
}