{
  "hex": "01000000000101d8ddeb96f9ec941befa61104c9333a1d173f6307d6c136823d8e9b6719154c660000000000feffffff02d0cb9045792d0000225120f8da1d42f081ac7c80b193d98d04c08e9ef684e3993160d1deaa7558a1a15b9d00e1f50500000000fdd5046a2064ba69fc64cacb33706c59fe578b0f3c3a0bf964d09f1aad600c991c8e44473d4db00439d6aad3133d8dc711ccf0db145e898f31c09420b53e0909a1f209a83c1d3e6019f68af3331dade731ecd0fb347ea9af11e0b400951e292981d229881c3d1e407996ea93537dcd87518cb09b541ec9cf7180d460f57e4949e1b249e87c5d7e2059b6cab3735deda771ac90bb743ee9ef51a0f440d55e6969c19269c85c7d5e00b9562a5393bd0d47914c705b94de090fb14014a035be898921728928bc9dbee099760a73b39d2d67b16c507bb4fe292f91603480159ea9a90152a9089cbd9ec0f9166a13d3fd4d07d10c301bd49e494ff10054e075fec9c96132c968fcddfea0d9364a33f3dd6d27f12c103bf4be696fd12074c055dee9e94112e948dcfdde8039d6aad3133d8dc711ccf0db145e898f31c09420b53e0909a1f209a83c1d3e6019f68af3331dade731ecd0fb347ea9af11e0b400951e292981d229881c3d1e407996ea93537dcd87518cb09b541ec9cf7180d460f57e4949e1b249e87c5d7e2059b6cab3735deda771ac90bb743ee9ef51a0f440d55e6969c19269c85c7d5e00b9562a5393bd0d47914c705b94de090fb14014a035be898921728928bc9dbee099760a73b39d2d67b16c507bb4fe292f91603480159ea9a90152a9089cbd9ec0f9166a13d3fd4d07d10c301bd49e494ff10054e075fec9c96132c968fcddfea0d9364a33f3dd6d27f12c103bf4be696fd12074c055dee9e94112e948dcfdde8039d6aad3133d8dc711ccf0db145e898f31c09420b53e0909a1f209a83c1d3e6019f68af3331dade731ecd0fb347ea9af11e0b400951e292981d229881c3d1e407996ea93537dcd87518cb09b541ec9cf7180d460f57e4949e1b249e87c5d7e2059b6cab3735deda771ac90bb743ee9ef51a0f440d55e6969c19269c85c7d5e00b9562a5393bd0d47914c705b94de090fb14014a035be898921728928bc9dbee099760a73b39d2d67b16c507bb4fe292f91603480159ea9a90152a9089cbd9ec0f9166a13d3fd4d07d10c301bd49e494ff10054e075fec9c96132c968fcddfea0d9364a33f3dd6d27f12c103bf4be696fd12074c055dee9e94112e948dcfdde8039d6aad3133d8dc711ccf0db145e898f31c09420b53e0909a1f209a83c1d3e6019f68af3331dade731ecd0fb347ea9af11e0b400951e292981d229881c3d1e407996ea93537dcd87518cb09b541ec9cf7180d460f57e4949e1b249e87c5d7e2059b6cab3735deda771ac90bb743ee9ef51a0f440d55e6969c19269c85c7d5e00b9562a5393bd0d47914c705b94de090fb14014a035be898921728928bc9dbee099760a73b39d2d67b16c507bb4fe292f91603480159ea9a90152a9089cbd9ec0f9166a13d3fd4d07d10c301bd49e494ff10054e075fec9c96132c968fcddfea0d9364a33f3dd6d27f12c103bf4be696fd12074c055dee9e94112e948dcfdde8039d6aad3133d8dc711ccf0db145e898f31c09420b53e0909a1f209a83c1d3e6019f68af3331dade731ecd0fb347ea9af11e0b400951e292981d229881c3d1e407996ea93537dcd87518cb09b541ec9cf7180d460f57e4949e1b249e87c5d7e2059b6cab3735deda771ac90bb743ee9ef51a0f440d55e6969c19269c85c7d5e00b9562a5393bd0d47914c705b94de090f0f1f3973d0e5b6625133972f1986c21c86f87c6a3afa416d10c2692f81a4afcc02fd75093d4d457973f47f86404e7a8d3c0cbb86a19a2c6dcc22bc33ab02c5d31479c67a1074e60ed47ac1c2ee6999ac17b231172e53d79d9974c04bb2c8c24180fb27bd6c8cbf77536ad5a2696d342f2f92894a5b70edf77ed3ae52e05e510f30d9b88dbb68afd2a76046697055f96e9a0f587f8bddec46dc75c4d84da8ea29d1225ad02ab86c6a2428cc7a1501b008db7874319f5864d15f51dddb42850005647c2447ada24f7ae051896ce5df00b39ce8bf8e1b4a7fa1badb4a2f64ecb1cc754a5a610a36724ae7630bf666fa13a0f8880e7dd77b7d3e60b54f5eed2991f275e99d6710bb35b4c13a3a28eb04430b9f2a55f342404e1a5ae663f09f2d0a6044dc15da77d6f1e6f3f8fbb2c053c5c576dc1cfcfa9ea4a1452ca82c2ae34882e6a5d20d203ac5dcc0837cf1d87859808df6fdd83a82c0866c682fa94e1a660ac8ac2f1345e7e4edf92b3cbee716bb660ea3623449e2d2ecce06dbc3c2f094c79181c40c6ea8c6475f5e5db54ddc11aa7a866f9e0e5ac0de763dc792203ae5fcfbfed2c846a8dd1a1e194976e45f9ba66036c4ae2874ab7f4bfee9696cfa177806d808b00fb1ee19c4bebdc4d28416b32834d71776f9370192c1f1f5163eb76dc2be6074b60f9f372cd9e056b9c85333414316ee38cc356a227a1b83b7a6180bf1c8015250139c126d5d5d3a1a16992aa29b73104dfc2fc4219dc47a1ed8576eab8e2616a9bd2f0ee107f7445748f578b8b91a7cf82d972be61faca8e3d74dc9403b0cf93dac81ab527c8021ea5596728af9358d2dadf0f2d768a85bf25389b80a06963af2c1ffde5aada74e318947a10aab554253c6aad24e6c9b1b4814a70cf4787e045b8796d1f235e7ae51c0c516b4afbc50a1e1ad3225ff73d52a4073cc06ba7c13bc5813c18134fbe5672f275d6c9788770f17b4bdc679864d64eeba05f793d5a319cb169fac250d8fd1f112b52782ed67d74b769d96288400b6a7eeb47013277d79027a68bdf1f4688816dd4f87fa13e01c8dd747f0733352f33172904807b2ba280a3dd6b35f4472875d48c38e09827991274d8f8960e83719088a990ce92a25c392740ddff1ad07d516309f380e583c7b5b1d4a1aad8ac29d9fc9d1f1bd3dd0018c5e2d3c474e77ec0c1fac5e166d0659266a253f0a8ac65d4dda2d637bf1bdf03690d9a5af02fc976c536e4f9c60c4950bf3ad9258fbb1716dd4f9b9556e8236ccc1a15bac151df720678539a592877affbc2bb6864ef699722cb4747673b81552413533eb09bf7a0d86b602ddd48aa0da70d6a6d90041a41a28bed8f3acfae23bcd046bd30f7479785f6089c919d45395bc78d3770bce9536a412cf256e75f43f6c0fc5f468a12fe5c08f8c3aa5c273c052747f088ed9e4e88d0b57eb5ac89c1d041f3fa9afdae204ff5facf3b4ab4ebfbf7710ba628f323a0629d1d0ab194c735288f2b1e3b862bdcc7405c977a4e55754f5562c61ee47d5e90a21a17c55ff2db2e3039b782d98a48d5544c49dad32537fa57eaad946391b6c75e28a703d82035e89eedfd803e9c3c8fd46663391d2911b6c266a5dc7e4cb71b868dd6b5ec41853d0bc60d6d8d05830ef9fc3d082037950f11e158021b0629ff8f2da58697c57bace1e0080de6a616455ecb91bf54b48d7a815a6c72e559365c0cdb872a12ca43e1fef51e6a16870dfe814121a5ab4adefa82f11bf165907666b60e1e30ec5f4675f4d29877f3a437efd4fc17b0bbec92933fa9b80716d445a8ded217364ec2af6a81d331eca3897ede0c5636327430cc87785da4cf830ae7b785b2d9cf21633144ef8f99db30404d4a2016632e71d80e27e4ba78e34c93b3b0aff44fe96d000268dd1e1558b6778a810e087d6ebd27571e2f9e3d4422d14d755035a21f94314363043c2b06685588afea73bf92739b4cbb040248a273f7737f27c34070d41bf605cdc059284f25526ad22907be205324c401ede13740b68edd8e5f02dd67021d2825e337726d3a89e826bcd11bd6598926a7f46a2fc3e0f423fccb9cbf5e663bbb478f237c69fe9941b0a463a2c8308765ff03ad22a7c438895bcaf09de2627e6142fa1fd5adb10b62b0c17cf30ac3f06ab92e5c3dc7266701a784fb4847b626eed4b084f6c9e7e2ccb6cea44e721761881fdc9907b1194114dec863cc834e196ecda8e66b8be12170f8e57fc8956665a7459abd087fcc1c52ababed94e8e8449e0278d6cfb95fd2a1e3a1136d0be950003f045871e1f279d4eb6e78e63a2cec2e87ff94a3dd12849b705d8085a91e9ce05c7c7a857175f2362e37115df112530dcde404408a5f4db4a221b1f76197a091ebe2ef569e22ea8f2190c4c593e3bd9e9847b5fe0310b1da31ee825cf77955a317521f086ab1d22a1fc4864a361dccd8993de0791447b75d4f5c8499510aefdb0b71cc421f1244b12ce08ac7d2a471547239327375f186fda2f7b03759891f9a63aac4f0b6d141c7fd942ea54e9d59e2e8f06f3e187d4d7f4f837c9ec7c0655283d2d0325608101d773e172f0043dc2614d00d6e7b24af58c60d5f96e64bc25c0bb0c94df00856acef3bdc5148c8d2d88a30c36bf620c070e588c74842dfaf47488850186fa4ae2eaeddd5d84018330f1ee2ec30d16d64854e171dce384602d67986fec88f341c3ee985e5a3b337c4e6a3a49be2ebc3c54e52488141447760a262eb10eaf24b8c3bc8f382e77673c60f93f40df1b1cc30abadf3e0f150806ef9fb28e9720e3b701471954f95a32d6a8db2884df6f61fd701dee597041057d159ddb30a928602816472c2edcb707db32050edf277c15e1129d427dfaa4d60482e60e5ffe0ad75a9ef24d4933f8e6cb24e9e00a474f8f9e51c603b6a766162b84fe8199c432d7b7187d963be66c4b3af6c799b9832833f44a393484f0ab262000c15585d5129e8ed4c38af7db9ff3b195514308ac572b109c695552e8fb135ab2eef0d8aae98519e3f3f6f60727fc7f395ab049dd0be26f5958c3847c9e365e1267dd8005882a0476afaa1ece79afee075337f213b667076aad759c9d7c89a1702e0c49c2ff0c426cdea11fd2f579b95cf7523f0e380316f95fb30bd8e7734616eb8496b79ad61a23864c73d01d7e324941eea7cff8955da20ea38aecc13a1576faea734b09a4e9087a3f461e96d9c50a36efae79e1d4d42111d4b6fb247d8032b61c5cdc39cb6f5ee5575a856384006b3618219d6daa41266a91fab6c5fe22c3cb2877f1bdef50fd76ccf2132ba4d2238f7e5f20d9dea8c56be080283817ab8c34d6c5aad8bc6d54306cf6e487091f47577387a6c5cbeafc0a32343b3c3e56888dd2dfe7eef4fa141a1f2b3f4f95a2acb0b5cfd2e1e6eff01112333e4d86a8adc2d6e7eff8f900000000000000000000000000000000000000000000000b1a2b3901fd210500c45e760a63bdc124991378157d4ed1d04e6a9d5477c22ce6bcd78b7a63f4973476d54edea08ac16c3e1cc370a8360ee007eeb5a6cf429fdc535980b38fa0bc67907f055ef4eb02c11e35ee3d4edb9b60514a4457e5c8232d3438d567b7116dd517f65b802289c5df77b50bac73ef75913e9d870b0692511b3f879a31235d82d7a09859020b4f83b9eefd99e1ec325b8d5720fc11ed65fab401facf539c100b35609c81f5db1296f2e88ca6df826c46a9a3bbc3f2612a70afa741fcdbc37af0855ba78c0b5d0d3c114860828bd164e0d00cb5ad1659083e0258a35586a7544e009dc6eeb22f960b0ae4e158aa773393a8cc7d3081c39b5ccac4fbc35c28b7c349dccd9875bee383322f1f8e9151e96de9664955180de52c276b5dcd6162abf8257043f5cd09cd6191d671f28465537987c8848456c4a9529af08e19e09baff760e3731aabe5ec71ab27b4b4af5ff99647e596fb8d3522b66f94980beb5347f0c8896e9e6571c96b3d2ed084c8080875775643f768ec590cbeec7209dbcc0c0b9ec73e207c1e071f25165099de7e8f6d12b28d8f7a5e80a6b2e30a4356b13881f526ee783bfcc7fbef1ad96c870e8f659a8b39dc95b0e490c82d3bfad4e89f8f233a26f0a8db1b3a547393967d49097ff993cf1bc9657033e71e165c8082fff8873a3e42b2c02edb0a3e30dbc45125fd49b7f42dd09b38390d836885ff070c0ab55cb2d6d5751e879cdf77a5181062e004d0fd9c08287b692d9c338479968a9af0e4c3bd015e342b1130d580712614ba811b818f423c3be23ffec9307f2c534f1228cc082de966e7e4bdebb1ea7d68d15e29b42854090f3bf7f9b42c14811e1b0567375891401cea2ed2d57c299f6fd6ecf669c1d66177bc7f28cadda58abc4b99779ae6784c8e03ccf970008ed38d3e4be0be4bf66fcd3dc39383102b4db9210f74060235db9768712f88ef864c794d6a64dd98d76abe292a5e6c529d6c835de9d9996dd27089e1d3d8f4194386d8701d80ad6302c0802ed3fda12ed76fcab8db182742f38925a69130b86811f771bfe703486c48d608e7b126dec2b2e50082452da68d951a8746d49fa25a13aeffd8f9748582581e9c772e65bd2cad1bbd9069982b3bf5e5d4ec86da4b692e1e8682c7eb2186ae4c4d527b602b0edf8594452715903dcb2dde2fe39bebc788057de8f3ec60fb5e23b2abd9975d5f29d180867b48c2af8b6e585cd8a7c0a26149b923b5f573ce97786e762761e1280abb691ffa370f5ce3bd5229183c3aba6c6d7f416a42dcc19b27190fbc5d9de467effcec54f5fed712b31c936e2c756d62a2be01b739c0a6de0e3f118f7a1eb630eb5205c01517172c0f958f24453e6a7dd410d17f634b9e09f7b8a5aa0f9931bdd95b16a75762602d5b577d0c26b49f3a9e8d8469febd246840181e01851d51f531171f66b4b2e9ee786746b3f3e741d899237329e0db6afc3569200b9e7b45406b4bdbd2f68fdedc820c238fd9c29d6d2ac791ab9ed1f7514b6cdba13b11026aa49bbdca6257fa004b1d62d8dd2fa7c5aba711c50e6612e7ba01f66409a74e6352fd16c8affd8c2ca31ff10130a10472addcb64be08e99b47dbeac1838b97d37ad969b24ae7e6656cba8debed940377f8c73bc061abee41ce6053048c6fef2c7a4784be252ee886e6b766dcd2fd901790e9477e74ab89ae3c0fc49de8030a9deddeb2cb5d2b833353cb747c51905fd8cec02fcdd64389fee9c39122084cfdc807b948103aceb43b0e5fba51e34bfdf4dd39b7c8158801015d9ab34be74415bfacc146ddd5371ab5938e104419e108188be461f258ffb5d81634656d57378311918a896436d000000",
  "txid": "57678e4468122b50b02485425fc62a66dbe99c32911076d400aa258bf0f79a3d",
  "hash": "2edc79f113f75bdbe7d575099990bc5f9e065beb2e7610397d7922fe70d9dfbb",
  "size": 5085,
  "vsize": 2278,
  "version": 1,
  "locktime": 109,
  "vin": [
    {
      "txid": "664c1519679b8e3d8236c1d607633f171d3a33c90411a6ef1b94ecf996ebddd8",
      "vout": 0,
      "scriptSig": {
        "asm": "",
        "hex": ""
      },
      "txinwitness": [
        "3d4d457973f47f86404e7a8d3c0cbb86a19a2c6dcc22bc33ab02c5d31479c67a1074e60ed47ac1c2ee6999ac17b231172e53d79d9974c04bb2c8c24180fb27bd6c8cbf77536ad5a2696d342f2f92894a5b70edf77ed3ae52e05e510f30d9b88dbb68afd2a76046697055f96e9a0f587f8bddec46dc75c4d84da8ea29d1225ad02ab86c6a2428cc7a1501b008db7874319f5864d15f51dddb42850005647c2447ada24f7ae051896ce5df00b39ce8bf8e1b4a7fa1badb4a2f64ecb1cc754a5a610a36724ae7630bf666fa13a0f8880e7dd77b7d3e60b54f5eed2991f275e99d6710bb35b4c13a3a28eb04430b9f2a55f342404e1a5ae663f09f2d0a6044dc15da77d6f1e6f3f8fbb2c053c5c576dc1cfcfa9ea4a1452ca82c2ae34882e6a5d20d203ac5dcc0837cf1d87859808df6fdd83a82c0866c682fa94e1a660ac8ac2f1345e7e4edf92b3cbee716bb660ea3623449e2d2ecce06dbc3c2f094c79181c40c6ea8c6475f5e5db54ddc11aa7a866f9e0e5ac0de763dc792203ae5fcfbfed2c846a8dd1a1e194976e45f9ba66036c4ae2874ab7f4bfee9696cfa177806d808b00fb1ee19c4bebdc4d28416b32834d71776f9370192c1f1f5163eb76dc2be6074b60f9f372cd9e056b9c85333414316ee38cc356a227a1b83b7a6180bf1c8015250139c126d5d5d3a1a16992aa29b73104dfc2fc4219dc47a1ed8576eab8e2616a9bd2f0ee107f7445748f578b8b91a7cf82d972be61faca8e3d74dc9403b0cf93dac81ab527c8021ea5596728af9358d2dadf0f2d768a85bf25389b80a06963af2c1ffde5aada74e318947a10aab554253c6aad24e6c9b1b4814a70cf4787e045b8796d1f235e7ae51c0c516b4afbc50a1e1ad3225ff73d52a4073cc06ba7c13bc5813c18134fbe5672f275d6c9788770f17b4bdc679864d64eeba05f793d5a319cb169fac250d8fd1f112b52782ed67d74b769d96288400b6a7eeb47013277d79027a68bdf1f4688816dd4f87fa13e01c8dd747f0733352f33172904807b2ba280a3dd6b35f4472875d48c38e09827991274d8f8960e83719088a990ce92a25c392740ddff1ad07d516309f380e583c7b5b1d4a1aad8ac29d9fc9d1f1bd3dd0018c5e2d3c474e77ec0c1fac5e166d0659266a253f0a8ac65d4dda2d637bf1bdf03690d9a5af02fc976c536e4f9c60c4950bf3ad9258fbb1716dd4f9b9556e8236ccc1a15bac151df720678539a592877affbc2bb6864ef699722cb4747673b81552413533eb09bf7a0d86b602ddd48aa0da70d6a6d90041a41a28bed8f3acfae23bcd046bd30f7479785f6089c919d45395bc78d3770bce9536a412cf256e75f43f6c0fc5f468a12fe5c08f8c3aa5c273c052747f088ed9e4e88d0b57eb5ac89c1d041f3fa9afdae204ff5facf3b4ab4ebfbf7710ba628f323a0629d1d0ab194c735288f2b1e3b862bdcc7405c977a4e55754f5562c61ee47d5e90a21a17c55ff2db2e3039b782d98a48d5544c49dad32537fa57eaad946391b6c75e28a703d82035e89eedfd803e9c3c8fd46663391d2911b6c266a5dc7e4cb71b868dd6b5ec41853d0bc60d6d8d05830ef9fc3d082037950f11e158021b0629ff8f2da58697c57bace1e0080de6a616455ecb91bf54b48d7a815a6c72e559365c0cdb872a12ca43e1fef51e6a16870dfe814121a5ab4adefa82f11bf165907666b60e1e30ec5f4675f4d29877f3a437efd4fc17b0bbec92933fa9b80716d445a8ded217364ec2af6a81d331eca3897ede0c5636327430cc87785da4cf830ae7b785b2d9cf21633144ef8f99db30404d4a2016632e71d80e27e4ba78e34c93b3b0aff44fe96d000268dd1e1558b6778a810e087d6ebd27571e2f9e3d4422d14d755035a21f94314363043c2b06685588afea73bf92739b4cbb040248a273f7737f27c34070d41bf605cdc059284f25526ad22907be205324c401ede13740b68edd8e5f02dd67021d2825e337726d3a89e826bcd11bd6598926a7f46a2fc3e0f423fccb9cbf5e663bbb478f237c69fe9941b0a463a2c8308765ff03ad22a7c438895bcaf09de2627e6142fa1fd5adb10b62b0c17cf30ac3f06ab92e5c3dc7266701a784fb4847b626eed4b084f6c9e7e2ccb6cea44e721761881fdc9907b1194114dec863cc834e196ecda8e66b8be12170f8e57fc8956665a7459abd087fcc1c52ababed94e8e8449e0278d6cfb95fd2a1e3a1136d0be950003f045871e1f279d4eb6e78e63a2cec2e87ff94a3dd12849b705d8085a91e9ce05c7c7a857175f2362e37115df112530dcde404408a5f4db4a221b1f76197a091ebe2ef569e22ea8f2190c4c593e3bd9e9847b5fe0310b1da31ee825cf77955a317521f086ab1d22a1fc4864a361dccd8993de0791447b75d4f5c8499510aefdb0b71cc421f1244b12ce08ac7d2a471547239327375f186fda2f7b03759891f9a63aac4f0b6d141c7fd942ea54e9d59e2e8f06f3e187d4d7f4f837c9ec7c0655283d2d0325608101d773e172f0043dc2614d00d6e7b24af58c60d5f96e64bc25c0bb0c94df00856acef3bdc5148c8d2d88a30c36bf620c070e588c74842dfaf47488850186fa4ae2eaeddd5d84018330f1ee2ec30d16d64854e171dce384602d67986fec88f341c3ee985e5a3b337c4e6a3a49be2ebc3c54e52488141447760a262eb10eaf24b8c3bc8f382e77673c60f93f40df1b1cc30abadf3e0f150806ef9fb28e9720e3b701471954f95a32d6a8db2884df6f61fd701dee597041057d159ddb30a928602816472c2edcb707db32050edf277c15e1129d427dfaa4d60482e60e5ffe0ad75a9ef24d4933f8e6cb24e9e00a474f8f9e51c603b6a766162b84fe8199c432d7b7187d963be66c4b3af6c799b9832833f44a393484f0ab262000c15585d5129e8ed4c38af7db9ff3b195514308ac572b109c695552e8fb135ab2eef0d8aae98519e3f3f6f60727fc7f395ab049dd0be26f5958c3847c9e365e1267dd8005882a0476afaa1ece79afee075337f213b667076aad759c9d7c89a1702e0c49c2ff0c426cdea11fd2f579b95cf7523f0e380316f95fb30bd8e7734616eb8496b79ad61a23864c73d01d7e324941eea7cff8955da20ea38aecc13a1576faea734b09a4e9087a3f461e96d9c50a36efae79e1d4d42111d4b6fb247d8032b61c5cdc39cb6f5ee5575a856384006b3618219d6daa41266a91fab6c5fe22c3cb2877f1bdef50fd76ccf2132ba4d2238f7e5f20d9dea8c56be080283817ab8c34d6c5aad8bc6d54306cf6e487091f47577387a6c5cbeafc0a32343b3c3e56888dd2dfe7eef4fa141a1f2b3f4f95a2acb0b5cfd2e1e6eff01112333e4d86a8adc2d6e7eff8f900000000000000000000000000000000000000000000000b1a2b3901",
        "00c45e760a63bdc124991378157d4ed1d04e6a9d5477c22ce6bcd78b7a63f4973476d54edea08ac16c3e1cc370a8360ee007eeb5a6cf429fdc535980b38fa0bc67907f055ef4eb02c11e35ee3d4edb9b60514a4457e5c8232d3438d567b7116dd517f65b802289c5df77b50bac73ef75913e9d870b0692511b3f879a31235d82d7a09859020b4f83b9eefd99e1ec325b8d5720fc11ed65fab401facf539c100b35609c81f5db1296f2e88ca6df826c46a9a3bbc3f2612a70afa741fcdbc37af0855ba78c0b5d0d3c114860828bd164e0d00cb5ad1659083e0258a35586a7544e009dc6eeb22f960b0ae4e158aa773393a8cc7d3081c39b5ccac4fbc35c28b7c349dccd9875bee383322f1f8e9151e96de9664955180de52c276b5dcd6162abf8257043f5cd09cd6191d671f28465537987c8848456c4a9529af08e19e09baff760e3731aabe5ec71ab27b4b4af5ff99647e596fb8d3522b66f94980beb5347f0c8896e9e6571c96b3d2ed084c8080875775643f768ec590cbeec7209dbcc0c0b9ec73e207c1e071f25165099de7e8f6d12b28d8f7a5e80a6b2e30a4356b13881f526ee783bfcc7fbef1ad96c870e8f659a8b39dc95b0e490c82d3bfad4e89f8f233a26f0a8db1b3a547393967d49097ff993cf1bc9657033e71e165c8082fff8873a3e42b2c02edb0a3e30dbc45125fd49b7f42dd09b38390d836885ff070c0ab55cb2d6d5751e879cdf77a5181062e004d0fd9c08287b692d9c338479968a9af0e4c3bd015e342b1130d580712614ba811b818f423c3be23ffec9307f2c534f1228cc082de966e7e4bdebb1ea7d68d15e29b42854090f3bf7f9b42c14811e1b0567375891401cea2ed2d57c299f6fd6ecf669c1d66177bc7f28cadda58abc4b99779ae6784c8e03ccf970008ed38d3e4be0be4bf66fcd3dc39383102b4db9210f74060235db9768712f88ef864c794d6a64dd98d76abe292a5e6c529d6c835de9d9996dd27089e1d3d8f4194386d8701d80ad6302c0802ed3fda12ed76fcab8db182742f38925a69130b86811f771bfe703486c48d608e7b126dec2b2e50082452da68d951a8746d49fa25a13aeffd8f9748582581e9c772e65bd2cad1bbd9069982b3bf5e5d4ec86da4b692e1e8682c7eb2186ae4c4d527b602b0edf8594452715903dcb2dde2fe39bebc788057de8f3ec60fb5e23b2abd9975d5f29d180867b48c2af8b6e585cd8a7c0a26149b923b5f573ce97786e762761e1280abb691ffa370f5ce3bd5229183c3aba6c6d7f416a42dcc19b27190fbc5d9de467effcec54f5fed712b31c936e2c756d62a2be01b739c0a6de0e3f118f7a1eb630eb5205c01517172c0f958f24453e6a7dd410d17f634b9e09f7b8a5aa0f9931bdd95b16a75762602d5b577d0c26b49f3a9e8d8469febd246840181e01851d51f531171f66b4b2e9ee786746b3f3e741d899237329e0db6afc3569200b9e7b45406b4bdbd2f68fdedc820c238fd9c29d6d2ac791ab9ed1f7514b6cdba13b11026aa49bbdca6257fa004b1d62d8dd2fa7c5aba711c50e6612e7ba01f66409a74e6352fd16c8affd8c2ca31ff10130a10472addcb64be08e99b47dbeac1838b97d37ad969b24ae7e6656cba8debed940377f8c73bc061abee41ce6053048c6fef2c7a4784be252ee886e6b766dcd2fd901790e9477e74ab89ae3c0fc49de8030a9deddeb2cb5d2b833353cb747c51905fd8cec02fcdd64389fee9c39122084cfdc807b948103aceb43b0e5fba51e34bfdf4dd39b7c8158801015d9ab34be74415bfacc146ddd5371ab5938e104419e108188be461f258ffb5d81634656d57378311918a89643"
      ],
      "sequence": 4294967294
    }
  ],
  "vout": [
    {
      "value": 499988.8141,
      "n": 0,
      "scriptPubKey": {
        "asm": "1 f8da1d42f081ac7c80b193d98d04c08e9ef684e3993160d1deaa7558a1a15b9d",
        "hex": "5120f8da1d42f081ac7c80b193d98d04c08e9ef684e3993160d1deaa7558a1a15b9d",
        "reqSigs": 1,
        "type": "witness_v1_scripthash",
        "addresses": [
          "3QJmnh"
        ]
      }
    },
    {
      "value": 1.0,
      "n": 1,
      "scriptPubKey": {
        "asm": "OP_RETURN 64ba69fc64cacb33706c59fe578b0f3c3a0bf964d09f1aad600c991c8e44473d 39d6aad3133d8dc711ccf0db145e898f31c09420b53e0909a1f209a83c1d3e6019f68af3331dade731ecd0fb347ea9af11e0b400951e292981d229881c3d1e407996ea93537dcd87518cb09b541ec9cf7180d460f57e4949e1b249e87c5d7e2059b6cab3735deda771ac90bb743ee9ef51a0f440d55e6969c19269c85c7d5e00b9562a5393bd0d47914c705b94de090fb14014a035be898921728928bc9dbee099760a73b39d2d67b16c507bb4fe292f91603480159ea9a90152a9089cbd9ec0f9166a13d3fd4d07d10c301bd49e494ff10054e075fec9c96132c968fcddfea0d9364a33f3dd6d27f12c103bf4be696fd12074c055dee9e94112e948dcfdde8039d6aad3133d8dc711ccf0db145e898f31c09420b53e0909a1f209a83c1d3e6019f68af3331dade731ecd0fb347ea9af11e0b400951e292981d229881c3d1e407996ea93537dcd87518cb09b541ec9cf7180d460f57e4949e1b249e87c5d7e2059b6cab3735deda771ac90bb743ee9ef51a0f440d55e6969c19269c85c7d5e00b9562a5393bd0d47914c705b94de090fb14014a035be898921728928bc9dbee099760a73b39d2d67b16c507bb4fe292f91603480159ea9a90152a9089cbd9ec0f9166a13d3fd4d07d10c301bd49e494ff10054e075fec9c96132c968fcddfea0d9364a33f3dd6d27f12c103bf4be696fd12074c055dee9e94112e948dcfdde8039d6aad3133d8dc711ccf0db145e898f31c09420b53e0909a1f209a83c1d3e6019f68af3331dade731ecd0fb347ea9af11e0b400951e292981d229881c3d1e407996ea93537dcd87518cb09b541ec9cf7180d460f57e4949e1b249e87c5d7e2059b6cab3735deda771ac90bb743ee9ef51a0f440d55e6969c19269c85c7d5e00b9562a5393bd0d47914c705b94de090fb14014a035be898921728928bc9dbee099760a73b39d2d67b16c507bb4fe292f91603480159ea9a90152a9089cbd9ec0f9166a13d3fd4d07d10c301bd49e494ff10054e075fec9c96132c968fcddfea0d9364a33f3dd6d27f12c103bf4be696fd12074c055dee9e94112e948dcfdde8039d6aad3133d8dc711ccf0db145e898f31c09420b53e0909a1f209a83c1d3e6019f68af3331dade731ecd0fb347ea9af11e0b400951e292981d229881c3d1e407996ea93537dcd87518cb09b541ec9cf7180d460f57e4949e1b249e87c5d7e2059b6cab3735deda771ac90bb743ee9ef51a0f440d55e6969c19269c85c7d5e00b9562a5393bd0d47914c705b94de090fb14014a035be898921728928bc9dbee099760a73b39d2d67b16c507bb4fe292f91603480159ea9a90152a9089cbd9ec0f9166a13d3fd4d07d10c301bd49e494ff10054e075fec9c96132c968fcddfea0d9364a33f3dd6d27f12c103bf4be696fd12074c055dee9e94112e948dcfdde8039d6aad3133d8dc711ccf0db145e898f31c09420b53e0909a1f209a83c1d3e6019f68af3331dade731ecd0fb347ea9af11e0b400951e292981d229881c3d1e407996ea93537dcd87518cb09b541ec9cf7180d460f57e4949e1b249e87c5d7e2059b6cab3735deda771ac90bb743ee9ef51a0f440d55e6969c19269c85c7d5e00b9562a5393bd0d47914c705b94de090f0f1f3973d0e5b6625133972f1986c21c86f87c6a3afa416d10c2692f81a4afcc",
        "hex": "6a2064ba69fc64cacb33706c59fe578b0f3c3a0bf964d09f1aad600c991c8e44473d4db00439d6aad3133d8dc711ccf0db145e898f31c09420b53e0909a1f209a83c1d3e6019f68af3331dade731ecd0fb347ea9af11e0b400951e292981d229881c3d1e407996ea93537dcd87518cb09b541ec9cf7180d460f57e4949e1b249e87c5d7e2059b6cab3735deda771ac90bb743ee9ef51a0f440d55e6969c19269c85c7d5e00b9562a5393bd0d47914c705b94de090fb14014a035be898921728928bc9dbee099760a73b39d2d67b16c507bb4fe292f91603480159ea9a90152a9089cbd9ec0f9166a13d3fd4d07d10c301bd49e494ff10054e075fec9c96132c968fcddfea0d9364a33f3dd6d27f12c103bf4be696fd12074c055dee9e94112e948dcfdde8039d6aad3133d8dc711ccf0db145e898f31c09420b53e0909a1f209a83c1d3e6019f68af3331dade731ecd0fb347ea9af11e0b400951e292981d229881c3d1e407996ea93537dcd87518cb09b541ec9cf7180d460f57e4949e1b249e87c5d7e2059b6cab3735deda771ac90bb743ee9ef51a0f440d55e6969c19269c85c7d5e00b9562a5393bd0d47914c705b94de090fb14014a035be898921728928bc9dbee099760a73b39d2d67b16c507bb4fe292f91603480159ea9a90152a9089cbd9ec0f9166a13d3fd4d07d10c301bd49e494ff10054e075fec9c96132c968fcddfea0d9364a33f3dd6d27f12c103bf4be696fd12074c055dee9e94112e948dcfdde8039d6aad3133d8dc711ccf0db145e898f31c09420b53e0909a1f209a83c1d3e6019f68af3331dade731ecd0fb347ea9af11e0b400951e292981d229881c3d1e407996ea93537dcd87518cb09b541ec9cf7180d460f57e4949e1b249e87c5d7e2059b6cab3735deda771ac90bb743ee9ef51a0f440d55e6969c19269c85c7d5e00b9562a5393bd0d47914c705b94de090fb14014a035be898921728928bc9dbee099760a73b39d2d67b16c507bb4fe292f91603480159ea9a90152a9089cbd9ec0f9166a13d3fd4d07d10c301bd49e494ff10054e075fec9c96132c968fcddfea0d9364a33f3dd6d27f12c103bf4be696fd12074c055dee9e94112e948dcfdde8039d6aad3133d8dc711ccf0db145e898f31c09420b53e0909a1f209a83c1d3e6019f68af3331dade731ecd0fb347ea9af11e0b400951e292981d229881c3d1e407996ea93537dcd87518cb09b541ec9cf7180d460f57e4949e1b249e87c5d7e2059b6cab3735deda771ac90bb743ee9ef51a0f440d55e6969c19269c85c7d5e00b9562a5393bd0d47914c705b94de090fb14014a035be898921728928bc9dbee099760a73b39d2d67b16c507bb4fe292f91603480159ea9a90152a9089cbd9ec0f9166a13d3fd4d07d10c301bd49e494ff10054e075fec9c96132c968fcddfea0d9364a33f3dd6d27f12c103bf4be696fd12074c055dee9e94112e948dcfdde8039d6aad3133d8dc711ccf0db145e898f31c09420b53e0909a1f209a83c1d3e6019f68af3331dade731ecd0fb347ea9af11e0b400951e292981d229881c3d1e407996ea93537dcd87518cb09b541ec9cf7180d460f57e4949e1b249e87c5d7e2059b6cab3735deda771ac90bb743ee9ef51a0f440d55e6969c19269c85c7d5e00b9562a5393bd0d47914c705b94de090f0f1f3973d0e5b6625133972f1986c21c86f87c6a3afa416d10c2692f81a4afcc",
        "type": "nulldata"
      }
    }
  ],
  "blockhash": "9418e69333e129952491dcd6dc324ee50ca4a2e07f0678970cb85d951484494a",
  "confirmations": 1,
  "time": 1764177673,
  "blocktime": 1764177673
}