{
  "hex": "01000000000101f407d071a48c455dcc181d9a4fb482816e27a10097dd080350e5d609949f7a9b0100000000feffffff0200e1f50500000000fdd5046a201631a952637e7d7c63cf9273e16567bb19732fffc5d55f714d020b03ac339ba54db004dd69c3dabcb9a195d09ed2a4f642df86e17cc4fb33230ee7d714b04e80b5dec0fd49e3fa9c9981b5f0bef284d662ffa6c15ce4db13032ec7f734906ea095fee09d29839afcf9e1d590de92e4b6029fc6a13c84bb73634ea79754f00ec0f59e80bd09a3badcd9c1f5b0feb2c49622bfe6811ca49b53436e87b774d02ee0d5bea05de9435a3c392115501e522476c25f0661fc447bb3a38e67579430ce00355e407dc9637a1c190135703e720456e27f2641dc645b9383ae4777b410ee20157e601da9031a7c796155105e126436821f4621bc043bf3e3ce2717d4708e40751e003d89233a5c594175307e324416a23f66019c241bd3c3ee0737f450ae60553e20dd69c3dabcb9a195d09ed2a4f642df86e17cc4fb33230ee7d714b04e80b5dec0fd49e3fa9c9981b5f0bef284d662ffa6c15ce4db13032ec7f734906ea095fee09d29839afcf9e1d590de92e4b6029fc6a13c84bb73634ea79754f00ec0f59e80bd09a3badcd9c1f5b0feb2c49622bfe6811ca49b53436e87b774d02ee0d5bea05de9435a3c392115501e522476c25f0661fc447bb3a38e67579430ce00355e407dc9637a1c190135703e720456e27f2641dc645b9383ae4777b410ee20157e601da9031a7c796155105e126436821f4621bc043bf3e3ce2717d4708e40751e003d89233a5c594175307e324416a23f66019c241bd3c3ee0737f450ae60553e20dd69c3dabcb9a195d09ed2a4f642df86e17cc4fb33230ee7d714b04e80b5dec0fd49e3fa9c9981b5f0bef284d662ffa6c15ce4db13032ec7f734906ea095fee09d29839afcf9e1d590de92e4b6029fc6a13c84bb73634ea79754f00ec0f59e80bd09a3badcd9c1f5b0feb2c49622bfe6811ca49b53436e87b774d02ee0d5bea05de9435a3c392115501e522476c25f0661fc447bb3a38e67579430ce00355e407dc9637a1c190135703e720456e27f2641dc645b9383ae4777b410ee20157e601da9031a7c796155105e126436821f4621bc043bf3e3ce2717d4708e40751e003d89233a5c594175307e324416a23f66019c241bd3c3ee0737f450ae60553e20dd69c3dabcb9a195d09ed2a4f642df86e17cc4fb33230ee7d714b04e80b5dec0fd49e3fa9c9981b5f0bef284d662ffa6c15ce4db13032ec7f734906ea095fee09d29839afcf9e1d590de92e4b6029fc6a13c84bb73634ea79754f00ec0f59e80bd09a3badcd9c1f5b0feb2c49622bfe6811ca49b53436e87b774d02ee0d5bea05de9435a3c392115501e522476c25f0661fc447bb3a38e67579430ce00355e407dc9637a1c190135703e720456e27f2641dc645b9383ae4777b410ee20157e601da9031a7c796155105e126436821f4621bc043bf3e3ce2717d4708e40751e003d89233a5c594175307e324416a23f66019c241bd3c3ee0737f450ae60553e20dd69c3dabcb9a195d09ed2a4f642df86e17cc4fb33230ee7d714b04e80b5dec0fd49e3fa9c9981b5f0bef284d662ffa6c15ce4db13032ec7f734906ea095fee09d29839afcf9e1d590de92e4b6029fc6a13c84bb73634ea79754f00ec0f59e80bd09a3badcd9c1f5b0feb2c49622bfe6811ca49b53436e87b774d02ee0d5bea05de9435a3c392115501e522476c25f06ecdfde465d4874267d91ce8960912849a3d25113a0d644fd856f12f7be77a656c075fe6f792d0000225120bdd7018bf6887bc1a4568abb12ba89c18909ecd93ee0043ad31d4ac3f6e62a5002fd750905ce85d910464c27246105a0042f413318d3fb7bd210e43b0f92e5f4d8d35ed9a7be8b8c48baac9367a3c6f79be361abfeb469998fc23d84c689dbf6164a7c815b1d8cba13a994c3710bff81796b0c9f5ccf7a28a4b2138df798a90d59b16b7a78e096e5a5f8db3f6b921385bbde3b960f2a7968b9fe6763d5b22efa00df63750a70dd3011669a76653a02ca6f1f03c1a84be72cebadd153ae07d6db5c4e0296b7eef2f6dec49bdede530c024b6f5e2f06586d06819c754603ace59659ebae553c0ef1ea487ba17ef59ce2ce4b25547d9fb0991f4292bcf42ae887e9e85dff2b445c74d2f5fbafcc1416b4b8b0fa1ab3595ec32ea9eca7a94a7550ee3a30a93aa1aa4a2637025c43c9fecb2974939f22590feaaeefe403d367f245a4f104c9cdfc1872966367e6f748a9ba5a68bad5ed89e79983468eccd72b658e8039663b7b78f72612a524de3f3ed08d5185b9272957e419eb1afd866fddd70d5d425809f6e7a3744d98cc8d1c09ead5e36b21d4e33a60fa37993df2050b7696dbc6309547ab9b7c94628a29476add05c9c1f43fea41517eeedf6301ceb6eeece0a863d7796d9b5996da7c22bb61436d5043710e3dfdf442e7715d8cc902c126928fe5b853ba2a5802350c84f3dd3b48e2ecff7ff1fe13bd190561dbc3d0cedbb43e1c1d19fbd12bda9b0d82f4e3a3b2dbe78650699cb46f2ebde38b777873f8699089cfa64a8b4c9deb008bad9f1a34695866794468a22d7e4c2797f3c4b2176eb0175fd8625a7abefbd1f4a4510166d196333b403d0246a93b66a9aa7bd14050ee1abbdaff18e1a58638f9fcc891ac26348ba8922dfc0e97011be2ef406daa3c850edf14d0446def1b22917053fcc4b5d6992a3c100756af60b833e14f41603725e9abf459fde6f7fb9a6ea42e319ed1e85f42b8ce39b72a88c9cd4d89b08520a2419fae536137bca8e8c22a03fc5c2ec76b68461f681d33251cd1c371c77d5597a8b54b5a6314e5ca9c84e030ceeaf4d24778a3b569b96dfded7f5f800cb0af46311ed9322e023a987889a10c41a7eae342d14e2615b1658d6c3c95a5ac71f742b27518f500a54f90a7ce53f090d891b3d76328e21a05330cd5f55b1dd5c7d7cd07798b93598d04f612cb15ed1ca77e30a4a0957cda88d704b065c8820ce4a5534dda73ed4e6c704ff31573953eecf3a32516d104912f5aeb67ab7b1f886c5f2a3bc60597a9485a93db574f6fc2a000440f0e82158ba6206053625666140ed8707094d6ce4e9c6e633c1c0eb2d2e19eddd26c4340c9f2f12b365d6371296cb63cecd9eda5e97e9c7282f614843d33324af6e47d263dfa6ead1a7a722576bfdda6f0fb3d36a8d1e83be7b5e6712ae995581143d610c305fb461041f7af09d942b9911dc6997c6c740fc7a1f8a0f1350784d7ede5abcbce4dfe6b1d0f605f0da068257b67e3606b9a7118a7e4847558c0ba6df0957712c1e289822a791f696c5b073f7d0a4277fedd29cd0d37034b65705b71a7171bf2b21c551133da2694efb3a4f0aefcdced7f501dccace0f47e42c2e092c2453e7e3405abdcdadeb78dbc9ee1cc4b54aabe232e32f5b4cc72015472d1f8182ef21e3ffcf1af201d4f9e202eea2f862b061bac4f176cde59cc6f126f4cb394236d9b0de918a43f4382482eed62fcd0898678709681dc3c14e552d476e71d95a72a25c1cd0b0658ac4e107a172b2cba6810428e547d9a60faa0f56006479fe62339529a1bf3ba89c63a35520a84c34dcc253487f60e925616e7aa065932daf4b9dc45d4c1ef5c8ec45cbf325c28eb1111c129099f080df747e7ac8e85c67a6657caa09bbc44218712369e957057ea860b4059bb65041f5c9a75588f334aeb32ae91cb39325391342754581f1b5b2fbf88b1b2bf8b4f658a23517802d74aae61b1a1c8ddd1ddb09e275221ed4908f184904cf81217f31e753a28cecda09c6d6b6985d43add06c704270258eb0b78ca8535c93436913b7d6e037cb88343d04eb9c3ee340d363c1ddcc13b190e109e20e21ab1ce550cd80789eacc75613fff762e2036b6b214cb7a62855e63aab123a04127e97aee65d606df3b5f7a91574a78394e8465b23a8f0121388a65b52cb14feccd03340226967f3639d605dba4c60e6bdc1a7d7e8603ee31a3ad3520adb7994ef17106df65a6ef4fdd99c015ed11eccff81307c2d10a913f4fca9e776540dd2676270fdc2f71fe062c7b6e56fa07f636606af4d6bcc3b3b5342c421cccb356b448ab90f2d26c84fa4854578d496b2c5b4a3e1f67ff3bb0bb850a761894e227d98cf8acc09b5dd901d2175fbf8bb2a6831386e814086d985b23f92b8b1bc0ef8ef1babd0b46e1c668199f724b1aa419461e848229e1afb6cc1c60577b5403395c38a4cf6744f1a052bddc3dd91f6ab467767e65b8b47c57ebab38cda85b7c80d07863441e64a266060c5004eae1039f211b99b45ba86036fc1aa93515cb1339fbc345b99d46977886b7abb71aaa0a2f32bd914a54f18b3ebe5f6f49a391622a8471dc384baa4901f526433331b4b31810fa1a38a3bbca5c57fca94c0727c21c20c19b3840a9e51a1df5ba4b889197f2f379ffcb75d6eb8041c3e2264b9909ec637ca54ccd0f82e74f01eaf3b30579ed0c092270b9e9be8ef42db83e641aef48afa82d37a1ed36d204bc10cb1455c5b8444d6400e89ef6ec0f58005a4db43acd987198b0378118ae2af0d5babcfb901dd865357aba46889107b03330561b2225774d78dc851792ecdab972c5b4924c734f5a434cb5ec8c2304ccee66cded801cb8a21fa1180738309a29affd6f6593a3d7df1998be237422e0f568426e22f3fbc3be33478633fad5c9389be9f2e8d3ed1d6c0ec63dd522006615945a4c72af8539e073409c996444eef7560eb0a50008ca8a32d685fead420db83790e8bed8b78a393361bb514e277cb50a159ce684dec2a3eeda63af2077a9c74d89d3e63ebf10bfd752ba1617536be9ab0e3d837d27faef2694e2b27138348ebdea19d575a0f10fc891b740f4027aba049194871fc3277e79e951aaf14654d99d121aa39cf1e832f25c0583296f4979ee480bcbb2707871266e8c64a13b085162fb9ea2b7d2a228e290ce6fad5414e1918639d7db7161a65f2455b54fbd6e884869a980aa49ab0c85a56c1d9c4d49b0e33aa676a837908512c2101d2c838387bf2b39fcaed920d916b285a6152b11aa0a642fbc937474178f5a2ce401a4b5de2808ae3cd20070665b4750f5d4b34998ad43927b11c9b47efa661645c7ffdf68a979c9a756e1177404142f45587b9ca8aacc03192b3d424a548183999ba5b1e3e9ebf60a1536383e44606b719095a2a9b8bdbed2d7ecfe273946475d6773799fa5acadb8c4cfd2d4f2fe00000000000000000000000000000a1b2f4201fd2105001d218c54605e42321fe23541ca843865010500c604b6130420d3e44d84b96f69c44ad11c0b7b875e5ebe9e031deea3a8e651f159cdeecf71640cb086bcfcfc4873fb7a8172cebffb029142c6b580b47dda121899fc839850dda83447c71919c137555354917d3e452943d931d4de78203babfb3adfcfa904b073e799c90b5ad242766ce7eba885e708a1d703d92c6239474ce2201c43dabc307954ef6e71f48c0bcd32a67368fb3829b2fd607b8eb3b0591db77e426481e47d6f5cab9698d7a4dc7e9a6574f46f7abd6ae0c27c0f2d4c04b22d7e88815417700cc696109c3cf7dc07dafefdbe1f38e2e0386ac34f2dacfb5445830e6ad177f448ee3a319941b0d0e9809c6f5f41680d672db2c17e8e14cb80173c508b85839799591b26bd9678d839dc6c4add47e45292ed5487bb37eff4895bf7c818526448d38e0dd9f1019426e8c0a6c68a950994cc32e65e6a46ba92968c1c9b0d361bea6c64778feaed66bfcb36ab07a66c79cd21ec7a49532e68926757b81d8f4fae7d9098476f44685e6416baa0137f55a4e6b024ea56d5c8bd70dac5e4558a2f17c62d95ed427b144e4df6bc04072b8c49d4fd0a0fd4657be57aafa3d64b7410b6bfd15165b2f50d113f68b490cbb50f590c7665209ecab35c44e691b1906c665d39910069de8b1fa78a00fc1b21495852d171f5c14c2029f44e5313bf14b1cea0710ddc1087a92de6df9f7d44ecb721893db6fe3f533153f485530e8f1f00ba61188d8978845f70797fd62113e4282a974abc9f996d52ee318d2c4ff1ccfa75337279f4fca898cfe52fb848faf1b7283a21adb590735405a47b48f1727d0c93ddc1d751132769d020921c3e9965024323d34779c0080893b3a7aaa249801eb78bac54298b8c59a9328818ec3bbce447c4bf0e885799ee95a090e14ba93f3ed4f50eb9297e83f44bf736b0515751f11c838e18c08e3b3e03e10d8b5d37d844ac7abcd972030daacc79c3f57b4391792e44bd5c6a773e1967e2e6dfe8318fb5fc4412780a1e6d09eafe6bfdb80d614a1864d2fb1bd894f2574709f3262a5d308a2afd7f45b335fd8eb8d7c40b95bb99725c7a10e7aba3bb008f0cad48a9da31c9b7fe31fed7cd973b195757f4e2ba42b0f01dfe8967e62bff3a6480e63f204492aeb26ecf5e8ef9a010985bf32e2e56d2b10381618c260f9c6c045403053cc0f3d616ac1c432c739ef6e36d32a17ae2477eca1270b623c97bfe7afc02f738bdd610631aa8db0a3a1676f00e4bb6b48b3339df16c3d30d99a624d012e11cfe7ba0e72d78550d842c48776b2dbbb9b5a88311ac77f078f78d0c57c7e2944be3bb73e0cffd1d01a35207fcbc5095abc11fce808a225facd6b4ed28c5501ec2cff9457cec248f9308f7debd617b87dad88d698461134872ac37d93d5b81f32419b9c744cbe84af2bc1db69c1bc429c41419faf01a4d82fd0420382c2ea55c68e38fc1e17e258d6b527a99538e6a758e77a4ecea98e00b665c8b2150b8b6e5aeecfdb78a7e8eede6cd11c043e898f31b9285503830e3aacf8c4d3d91e192b6b1a80ed2cc4e02e35f8f4cafde12854cd0d303666ef6d7d2ee804639a712b2119435f80b26ce7387c905effd4449d18d48a15d04ff6f66557b184850b4f92ee07a1f273df35f14fa06e9ba9805eb3161e096087c09651d12dd47066095d56b65ca7802c8f33f6710bc599d1e7092192aae3fcd563d74cdbd97b7fa61bcbf4731eb2f82edd41de61564de3fea114bea3c0db99c49f2d2b5470a56f7ef899130d5052c82b356b344ab8d3503ceca8fb3240fd75e47ec751c93d6584401da723fcc68c80a5f2e803774b6ce3ab9b667000000",
  "txid": "54051b6853192c15c4bf11af0733f4120fd2ffa7f6f867dd1a95e555e36e5e08",
  "hash": "5aa80de32110c16c0385f861f04a4fe5b7e81daf7afd4e6cbcadf583cd78b98b",
  "size": 5085,
  "vsize": 2278,
  "version": 1,
  "locktime": 103,
  "vin": [
    {
      "txid": "9b7a9f9409d6e5500308dd9700a1276e8182b44f9a1d18cc5d458ca471d007f4",
      "vout": 1,
      "scriptSig": {
        "asm": "",
        "hex": ""
      },
      "txinwitness": [
        "05ce85d910464c27246105a0042f413318d3fb7bd210e43b0f92e5f4d8d35ed9a7be8b8c48baac9367a3c6f79be361abfeb469998fc23d84c689dbf6164a7c815b1d8cba13a994c3710bff81796b0c9f5ccf7a28a4b2138df798a90d59b16b7a78e096e5a5f8db3f6b921385bbde3b960f2a7968b9fe6763d5b22efa00df63750a70dd3011669a76653a02ca6f1f03c1a84be72cebadd153ae07d6db5c4e0296b7eef2f6dec49bdede530c024b6f5e2f06586d06819c754603ace59659ebae553c0ef1ea487ba17ef59ce2ce4b25547d9fb0991f4292bcf42ae887e9e85dff2b445c74d2f5fbafcc1416b4b8b0fa1ab3595ec32ea9eca7a94a7550ee3a30a93aa1aa4a2637025c43c9fecb2974939f22590feaaeefe403d367f245a4f104c9cdfc1872966367e6f748a9ba5a68bad5ed89e79983468eccd72b658e8039663b7b78f72612a524de3f3ed08d5185b9272957e419eb1afd866fddd70d5d425809f6e7a3744d98cc8d1c09ead5e36b21d4e33a60fa37993df2050b7696dbc6309547ab9b7c94628a29476add05c9c1f43fea41517eeedf6301ceb6eeece0a863d7796d9b5996da7c22bb61436d5043710e3dfdf442e7715d8cc902c126928fe5b853ba2a5802350c84f3dd3b48e2ecff7ff1fe13bd190561dbc3d0cedbb43e1c1d19fbd12bda9b0d82f4e3a3b2dbe78650699cb46f2ebde38b777873f8699089cfa64a8b4c9deb008bad9f1a34695866794468a22d7e4c2797f3c4b2176eb0175fd8625a7abefbd1f4a4510166d196333b403d0246a93b66a9aa7bd14050ee1abbdaff18e1a58638f9fcc891ac26348ba8922dfc0e97011be2ef406daa3c850edf14d0446def1b22917053fcc4b5d6992a3c100756af60b833e14f41603725e9abf459fde6f7fb9a6ea42e319ed1e85f42b8ce39b72a88c9cd4d89b08520a2419fae536137bca8e8c22a03fc5c2ec76b68461f681d33251cd1c371c77d5597a8b54b5a6314e5ca9c84e030ceeaf4d24778a3b569b96dfded7f5f800cb0af46311ed9322e023a987889a10c41a7eae342d14e2615b1658d6c3c95a5ac71f742b27518f500a54f90a7ce53f090d891b3d76328e21a05330cd5f55b1dd5c7d7cd07798b93598d04f612cb15ed1ca77e30a4a0957cda88d704b065c8820ce4a5534dda73ed4e6c704ff31573953eecf3a32516d104912f5aeb67ab7b1f886c5f2a3bc60597a9485a93db574f6fc2a000440f0e82158ba6206053625666140ed8707094d6ce4e9c6e633c1c0eb2d2e19eddd26c4340c9f2f12b365d6371296cb63cecd9eda5e97e9c7282f614843d33324af6e47d263dfa6ead1a7a722576bfdda6f0fb3d36a8d1e83be7b5e6712ae995581143d610c305fb461041f7af09d942b9911dc6997c6c740fc7a1f8a0f1350784d7ede5abcbce4dfe6b1d0f605f0da068257b67e3606b9a7118a7e4847558c0ba6df0957712c1e289822a791f696c5b073f7d0a4277fedd29cd0d37034b65705b71a7171bf2b21c551133da2694efb3a4f0aefcdced7f501dccace0f47e42c2e092c2453e7e3405abdcdadeb78dbc9ee1cc4b54aabe232e32f5b4cc72015472d1f8182ef21e3ffcf1af201d4f9e202eea2f862b061bac4f176cde59cc6f126f4cb394236d9b0de918a43f4382482eed62fcd0898678709681dc3c14e552d476e71d95a72a25c1cd0b0658ac4e107a172b2cba6810428e547d9a60faa0f56006479fe62339529a1bf3ba89c63a35520a84c34dcc253487f60e925616e7aa065932daf4b9dc45d4c1ef5c8ec45cbf325c28eb1111c129099f080df747e7ac8e85c67a6657caa09bbc44218712369e957057ea860b4059bb65041f5c9a75588f334aeb32ae91cb39325391342754581f1b5b2fbf88b1b2bf8b4f658a23517802d74aae61b1a1c8ddd1ddb09e275221ed4908f184904cf81217f31e753a28cecda09c6d6b6985d43add06c704270258eb0b78ca8535c93436913b7d6e037cb88343d04eb9c3ee340d363c1ddcc13b190e109e20e21ab1ce550cd80789eacc75613fff762e2036b6b214cb7a62855e63aab123a04127e97aee65d606df3b5f7a91574a78394e8465b23a8f0121388a65b52cb14feccd03340226967f3639d605dba4c60e6bdc1a7d7e8603ee31a3ad3520adb7994ef17106df65a6ef4fdd99c015ed11eccff81307c2d10a913f4fca9e776540dd2676270fdc2f71fe062c7b6e56fa07f636606af4d6bcc3b3b5342c421cccb356b448ab90f2d26c84fa4854578d496b2c5b4a3e1f67ff3bb0bb850a761894e227d98cf8acc09b5dd901d2175fbf8bb2a6831386e814086d985b23f92b8b1bc0ef8ef1babd0b46e1c668199f724b1aa419461e848229e1afb6cc1c60577b5403395c38a4cf6744f1a052bddc3dd91f6ab467767e65b8b47c57ebab38cda85b7c80d07863441e64a266060c5004eae1039f211b99b45ba86036fc1aa93515cb1339fbc345b99d46977886b7abb71aaa0a2f32bd914a54f18b3ebe5f6f49a391622a8471dc384baa4901f526433331b4b31810fa1a38a3bbca5c57fca94c0727c21c20c19b3840a9e51a1df5ba4b889197f2f379ffcb75d6eb8041c3e2264b9909ec637ca54ccd0f82e74f01eaf3b30579ed0c092270b9e9be8ef42db83e641aef48afa82d37a1ed36d204bc10cb1455c5b8444d6400e89ef6ec0f58005a4db43acd987198b0378118ae2af0d5babcfb901dd865357aba46889107b03330561b2225774d78dc851792ecdab972c5b4924c734f5a434cb5ec8c2304ccee66cded801cb8a21fa1180738309a29affd6f6593a3d7df1998be237422e0f568426e22f3fbc3be33478633fad5c9389be9f2e8d3ed1d6c0ec63dd522006615945a4c72af8539e073409c996444eef7560eb0a50008ca8a32d685fead420db83790e8bed8b78a393361bb514e277cb50a159ce684dec2a3eeda63af2077a9c74d89d3e63ebf10bfd752ba1617536be9ab0e3d837d27faef2694e2b27138348ebdea19d575a0f10fc891b740f4027aba049194871fc3277e79e951aaf14654d99d121aa39cf1e832f25c0583296f4979ee480bcbb2707871266e8c64a13b085162fb9ea2b7d2a228e290ce6fad5414e1918639d7db7161a65f2455b54fbd6e884869a980aa49ab0c85a56c1d9c4d49b0e33aa676a837908512c2101d2c838387bf2b39fcaed920d916b285a6152b11aa0a642fbc937474178f5a2ce401a4b5de2808ae3cd20070665b4750f5d4b34998ad43927b11c9b47efa661645c7ffdf68a979c9a756e1177404142f45587b9ca8aacc03192b3d424a548183999ba5b1e3e9ebf60a1536383e44606b719095a2a9b8bdbed2d7ecfe273946475d6773799fa5acadb8c4cfd2d4f2fe00000000000000000000000000000a1b2f4201",
        "001d218c54605e42321fe23541ca843865010500c604b6130420d3e44d84b96f69c44ad11c0b7b875e5ebe9e031deea3a8e651f159cdeecf71640cb086bcfcfc4873fb7a8172cebffb029142c6b580b47dda121899fc839850dda83447c71919c137555354917d3e452943d931d4de78203babfb3adfcfa904b073e799c90b5ad242766ce7eba885e708a1d703d92c6239474ce2201c43dabc307954ef6e71f48c0bcd32a67368fb3829b2fd607b8eb3b0591db77e426481e47d6f5cab9698d7a4dc7e9a6574f46f7abd6ae0c27c0f2d4c04b22d7e88815417700cc696109c3cf7dc07dafefdbe1f38e2e0386ac34f2dacfb5445830e6ad177f448ee3a319941b0d0e9809c6f5f41680d672db2c17e8e14cb80173c508b85839799591b26bd9678d839dc6c4add47e45292ed5487bb37eff4895bf7c818526448d38e0dd9f1019426e8c0a6c68a950994cc32e65e6a46ba92968c1c9b0d361bea6c64778feaed66bfcb36ab07a66c79cd21ec7a49532e68926757b81d8f4fae7d9098476f44685e6416baa0137f55a4e6b024ea56d5c8bd70dac5e4558a2f17c62d95ed427b144e4df6bc04072b8c49d4fd0a0fd4657be57aafa3d64b7410b6bfd15165b2f50d113f68b490cbb50f590c7665209ecab35c44e691b1906c665d39910069de8b1fa78a00fc1b21495852d171f5c14c2029f44e5313bf14b1cea0710ddc1087a92de6df9f7d44ecb721893db6fe3f533153f485530e8f1f00ba61188d8978845f70797fd62113e4282a974abc9f996d52ee318d2c4ff1ccfa75337279f4fca898cfe52fb848faf1b7283a21adb590735405a47b48f1727d0c93ddc1d751132769d020921c3e9965024323d34779c0080893b3a7aaa249801eb78bac54298b8c59a9328818ec3bbce447c4bf0e885799ee95a090e14ba93f3ed4f50eb9297e83f44bf736b0515751f11c838e18c08e3b3e03e10d8b5d37d844ac7abcd972030daacc79c3f57b4391792e44bd5c6a773e1967e2e6dfe8318fb5fc4412780a1e6d09eafe6bfdb80d614a1864d2fb1bd894f2574709f3262a5d308a2afd7f45b335fd8eb8d7c40b95bb99725c7a10e7aba3bb008f0cad48a9da31c9b7fe31fed7cd973b195757f4e2ba42b0f01dfe8967e62bff3a6480e63f204492aeb26ecf5e8ef9a010985bf32e2e56d2b10381618c260f9c6c045403053cc0f3d616ac1c432c739ef6e36d32a17ae2477eca1270b623c97bfe7afc02f738bdd610631aa8db0a3a1676f00e4bb6b48b3339df16c3d30d99a624d012e11cfe7ba0e72d78550d842c48776b2dbbb9b5a88311ac77f078f78d0c57c7e2944be3bb73e0cffd1d01a35207fcbc5095abc11fce808a225facd6b4ed28c5501ec2cff9457cec248f9308f7debd617b87dad88d698461134872ac37d93d5b81f32419b9c744cbe84af2bc1db69c1bc429c41419faf01a4d82fd0420382c2ea55c68e38fc1e17e258d6b527a99538e6a758e77a4ecea98e00b665c8b2150b8b6e5aeecfdb78a7e8eede6cd11c043e898f31b9285503830e3aacf8c4d3d91e192b6b1a80ed2cc4e02e35f8f4cafde12854cd0d303666ef6d7d2ee804639a712b2119435f80b26ce7387c905effd4449d18d48a15d04ff6f66557b184850b4f92ee07a1f273df35f14fa06e9ba9805eb3161e096087c09651d12dd47066095d56b65ca7802c8f33f6710bc599d1e7092192aae3fcd563d74cdbd97b7fa61bcbf4731eb2f82edd41de61564de3fea114bea3c0db99c49f2d2b5470a56f7ef899130d5052c82b356b344ab8d3503ceca8fb3240fd75e47ec751c93d6584401da723fcc68c80a5f2e803774b6ce3ab9b6"
      ],
      "sequence": 4294967294
    }
  ],
  "vout": [
    {
      "value": 1.0,
      "n": 0,
      "scriptPubKey": {
        "asm": "OP_RETURN 1631a952637e7d7c63cf9273e16567bb19732fffc5d55f714d020b03ac339ba5 dd69c3dabcb9a195d09ed2a4f642df86e17cc4fb33230ee7d714b04e80b5dec0fd49e3fa9c9981b5f0bef284d662ffa6c15ce4db13032ec7f734906ea095fee09d29839afcf9e1d590de92e4b6029fc6a13c84bb73634ea79754f00ec0f59e80bd09a3badcd9c1f5b0feb2c49622bfe6811ca49b53436e87b774d02ee0d5bea05de9435a3c392115501e522476c25f0661fc447bb3a38e67579430ce00355e407dc9637a1c190135703e720456e27f2641dc645b9383ae4777b410ee20157e601da9031a7c796155105e126436821f4621bc043bf3e3ce2717d4708e40751e003d89233a5c594175307e324416a23f66019c241bd3c3ee0737f450ae60553e20dd69c3dabcb9a195d09ed2a4f642df86e17cc4fb33230ee7d714b04e80b5dec0fd49e3fa9c9981b5f0bef284d662ffa6c15ce4db13032ec7f734906ea095fee09d29839afcf9e1d590de92e4b6029fc6a13c84bb73634ea79754f00ec0f59e80bd09a3badcd9c1f5b0feb2c49622bfe6811ca49b53436e87b774d02ee0d5bea05de9435a3c392115501e522476c25f0661fc447bb3a38e67579430ce00355e407dc9637a1c190135703e720456e27f2641dc645b9383ae4777b410ee20157e601da9031a7c796155105e126436821f4621bc043bf3e3ce2717d4708e40751e003d89233a5c594175307e324416a23f66019c241bd3c3ee0737f450ae60553e20dd69c3dabcb9a195d09ed2a4f642df86e17cc4fb33230ee7d714b04e80b5dec0fd49e3fa9c9981b5f0bef284d662ffa6c15ce4db13032ec7f734906ea095fee09d29839afcf9e1d590de92e4b6029fc6a13c84bb73634ea79754f00ec0f59e80bd09a3badcd9c1f5b0feb2c49622bfe6811ca49b53436e87b774d02ee0d5bea05de9435a3c392115501e522476c25f0661fc447bb3a38e67579430ce00355e407dc9637a1c190135703e720456e27f2641dc645b9383ae4777b410ee20157e601da9031a7c796155105e126436821f4621bc043bf3e3ce2717d4708e40751e003d89233a5c594175307e324416a23f66019c241bd3c3ee0737f450ae60553e20dd69c3dabcb9a195d09ed2a4f642df86e17cc4fb33230ee7d714b04e80b5dec0fd49e3fa9c9981b5f0bef284d662ffa6c15ce4db13032ec7f734906ea095fee09d29839afcf9e1d590de92e4b6029fc6a13c84bb73634ea79754f00ec0f59e80bd09a3badcd9c1f5b0feb2c49622bfe6811ca49b53436e87b774d02ee0d5bea05de9435a3c392115501e522476c25f0661fc447bb3a38e67579430ce00355e407dc9637a1c190135703e720456e27f2641dc645b9383ae4777b410ee20157e601da9031a7c796155105e126436821f4621bc043bf3e3ce2717d4708e40751e003d89233a5c594175307e324416a23f66019c241bd3c3ee0737f450ae60553e20dd69c3dabcb9a195d09ed2a4f642df86e17cc4fb33230ee7d714b04e80b5dec0fd49e3fa9c9981b5f0bef284d662ffa6c15ce4db13032ec7f734906ea095fee09d29839afcf9e1d590de92e4b6029fc6a13c84bb73634ea79754f00ec0f59e80bd09a3badcd9c1f5b0feb2c49622bfe6811ca49b53436e87b774d02ee0d5bea05de9435a3c392115501e522476c25f06ecdfde465d4874267d91ce8960912849a3d25113a0d644fd856f12f7be77a656",
        "hex": "6a201631a952637e7d7c63cf9273e16567bb19732fffc5d55f714d020b03ac339ba54db004dd69c3dabcb9a195d09ed2a4f642df86e17cc4fb33230ee7d714b04e80b5dec0fd49e3fa9c9981b5f0bef284d662ffa6c15ce4db13032ec7f734906ea095fee09d29839afcf9e1d590de92e4b6029fc6a13c84bb73634ea79754f00ec0f59e80bd09a3badcd9c1f5b0feb2c49622bfe6811ca49b53436e87b774d02ee0d5bea05de9435a3c392115501e522476c25f0661fc447bb3a38e67579430ce00355e407dc9637a1c190135703e720456e27f2641dc645b9383ae4777b410ee20157e601da9031a7c796155105e126436821f4621bc043bf3e3ce2717d4708e40751e003d89233a5c594175307e324416a23f66019c241bd3c3ee0737f450ae60553e20dd69c3dabcb9a195d09ed2a4f642df86e17cc4fb33230ee7d714b04e80b5dec0fd49e3fa9c9981b5f0bef284d662ffa6c15ce4db13032ec7f734906ea095fee09d29839afcf9e1d590de92e4b6029fc6a13c84bb73634ea79754f00ec0f59e80bd09a3badcd9c1f5b0feb2c49622bfe6811ca49b53436e87b774d02ee0d5bea05de9435a3c392115501e522476c25f0661fc447bb3a38e67579430ce00355e407dc9637a1c190135703e720456e27f2641dc645b9383ae4777b410ee20157e601da9031a7c796155105e126436821f4621bc043bf3e3ce2717d4708e40751e003d89233a5c594175307e324416a23f66019c241bd3c3ee0737f450ae60553e20dd69c3dabcb9a195d09ed2a4f642df86e17cc4fb33230ee7d714b04e80b5dec0fd49e3fa9c9981b5f0bef284d662ffa6c15ce4db13032ec7f734906ea095fee09d29839afcf9e1d590de92e4b6029fc6a13c84bb73634ea79754f00ec0f59e80bd09a3badcd9c1f5b0feb2c49622bfe6811ca49b53436e87b774d02ee0d5bea05de9435a3c392115501e522476c25f0661fc447bb3a38e67579430ce00355e407dc9637a1c190135703e720456e27f2641dc645b9383ae4777b410ee20157e601da9031a7c796155105e126436821f4621bc043bf3e3ce2717d4708e40751e003d89233a5c594175307e324416a23f66019c241bd3c3ee0737f450ae60553e20dd69c3dabcb9a195d09ed2a4f642df86e17cc4fb33230ee7d714b04e80b5dec0fd49e3fa9c9981b5f0bef284d662ffa6c15ce4db13032ec7f734906ea095fee09d29839afcf9e1d590de92e4b6029fc6a13c84bb73634ea79754f00ec0f59e80bd09a3badcd9c1f5b0feb2c49622bfe6811ca49b53436e87b774d02ee0d5bea05de9435a3c392115501e522476c25f0661fc447bb3a38e67579430ce00355e407dc9637a1c190135703e720456e27f2641dc645b9383ae4777b410ee20157e601da9031a7c796155105e126436821f4621bc043bf3e3ce2717d4708e40751e003d89233a5c594175307e324416a23f66019c241bd3c3ee0737f450ae60553e20dd69c3dabcb9a195d09ed2a4f642df86e17cc4fb33230ee7d714b04e80b5dec0fd49e3fa9c9981b5f0bef284d662ffa6c15ce4db13032ec7f734906ea095fee09d29839afcf9e1d590de92e4b6029fc6a13c84bb73634ea79754f00ec0f59e80bd09a3badcd9c1f5b0feb2c49622bfe6811ca49b53436e87b774d02ee0d5bea05de9435a3c392115501e522476c25f06ecdfde465d4874267d91ce8960912849a3d25113a0d644fd856f12f7be77a656",
        "type": "nulldata"
      }
    },
    {
      "value": 499995.9324,
      "n": 1,
      "scriptPubKey": {
        "asm": "1 bdd7018bf6887bc1a4568abb12ba89c18909ecd93ee0043ad31d4ac3f6e62a50",
        "hex": "5120bdd7018bf6887bc1a4568abb12ba89c18909ecd93ee0043ad31d4ac3f6e62a50",
        "reqSigs": 1,
        "type": "witness_v1_scripthash",
        "addresses": [
          "3QJmnh"
        ]
      }
    }
  ],
  "blockhash": "15af9b025c636b87e0a10c18a1a8de0e5f3c2069ad563b293161176d75df89a4",
  "confirmations": 1,
  "time": 1764174659,
  "blocktime": 1764174659
}