{
  "hex": "010000000001019a6d3a3cc0789731dfb157c3086fd2c3303e79da36d6d976c985ca25c174b7ba0100000000feffffff023022f408792d00002251209173f443be23d1cc8daa508409ee150edd8759c322b636a40eae9d353c23a2ae00e1f50500000000fdd5046a208a7c1096d350537d90481997be7f2a5bd0cc37f367c12c4026e376d07758ce8e4db004138e381f6117865b922354b4b5b0ff1cca7cb664ec0060186fb924ae9fb4e15033ae183f4137a67bb20374949590df3cea5c9644cc2040384f99048ebf94c17053ce785f2157c61bd26314f4f5f0bf5c8a3cf624ac4020582ff964eedff4a11073ee587f0177e63bf24334d4d5d09f7caa1cd6048c6000780fd944ceffd48130930eb89fe19706db12a3d43435307f9c4afc36e46c80e098ef39a42e1f3461d0b32e98bfc1b726fb3283f41415105fbc6adc16c44ca0c0b8cf19840e3f1441f0d34ef8dfa1d7469b52e3947475703fdc0abc76a42cc0a0d8af79e46e5f742190f36ed8ff81f766bb72c3b45455501ffc2a9c56840ce080f88f59c44e7f5401b0138e381f6117865b922354b4b5b0ff1cca7cb664ec0060186fb924ae9fb4e15033ae183f4137a67bb20374949590df3cea5c9644cc2040384f99048ebf94c17053ce785f2157c61bd26314f4f5f0bf5c8a3cf624ac4020582ff964eedff4a11073ee587f0177e63bf24334d4d5d09f7caa1cd6048c6000780fd944ceffd48130930eb89fe19706db12a3d43435307f9c4afc36e46c80e098ef39a42e1f3461d0b32e98bfc1b726fb3283f41415105fbc6adc16c44ca0c0b8cf19840e3f1441f0d34ef8dfa1d7469b52e3947475703fdc0abc76a42cc0a0d8af79e46e5f742190f36ed8ff81f766bb72c3b45455501ffc2a9c56840ce080f88f59c44e7f5401b0138e381f6117865b922354b4b5b0ff1cca7cb664ec0060186fb924ae9fb4e15033ae183f4137a67bb20374949590df3cea5c9644cc2040384f99048ebf94c17053ce785f2157c61bd26314f4f5f0bf5c8a3cf624ac4020582ff964eedff4a11073ee587f0177e63bf24334d4d5d09f7caa1cd6048c6000780fd944ceffd48130930eb89fe19706db12a3d43435307f9c4afc36e46c80e098ef39a42e1f3461d0b32e98bfc1b726fb3283f41415105fbc6adc16c44ca0c0b8cf19840e3f1441f0d34ef8dfa1d7469b52e3947475703fdc0abc76a42cc0a0d8af79e46e5f742190f36ed8ff81f766bb72c3b45455501ffc2a9c56840ce080f88f59c44e7f5401b0138e381f6117865b922354b4b5b0ff1cca7cb664ec0060186fb924ae9fb4e15033ae183f4137a67bb20374949590df3cea5c9644cc2040384f99048ebf94c17053ce785f2157c61bd26314f4f5f0bf5c8a3cf624ac4020582ff964eedff4a11073ee587f0177e63bf24334d4d5d09f7caa1cd6048c6000780fd944ceffd48130930eb89fe19706db12a3d43435307f9c4afc36e46c80e098ef39a42e1f3461d0b32e98bfc1b726fb3283f41415105fbc6adc16c44ca0c0b8cf19840e3f1441f0d34ef8dfa1d7469b52e3947475703fdc0abc76a42cc0a0d8af79e46e5f742190f36ed8ff81f766bb72c3b45455501ffc2a9c56840ce080f88f59c44e7f5401b0138e381f6117865b922354b4b5b0ff1cca7cb664ec0060186fb924ae9fb4e15033ae183f4137a67bb20374949590df3cea5c9644cc2040384f99048ebf94c17053ce785f2157c61bd26314f4f5f0bf5c8a3cf624ac4020582ff964eedff4a11073ee587f0177e63bf24334d4d5d09f7caa1cd6048c6000780fd944ceffd48130930eb89fe19706db12a3d43435307f9cac3c1b3aef793d9c814c0b4495feca2c3b8c4898afab23301592c28e1562fc4402fd75096af44d869a2404563772790c5fffaf3ea0ba2bfb3db24f2929dbc194c9978a961a15efedc80e3f2564ebf3337cd3991cade22cf33c842c8d2e3fce7060fe1145892a5c83ca7c25ff085663601bd60697a47f09ea1698f958f7424db0f11f3649aeff608fbc8522d6a330903d702de0d9f16cc7ee4ec7149ac2b2393e9debd986fab233b160db3190208c8c8239a5bb51c8146fce2fcb507d79aafe95df9fc36ebb8929dfffc79d02c6148303b16b3274201a51ed82ed5568cada15b9d4887bc782816bd3a9d4638d6727a8170c5c1b8c93245b1639f277d52c375534ac39ff0e4952070fdd2695bdc36ca63515c4c07e4db4eb9b4ad5e84e01397a466a8040a68884ae451d14f4f5d3377c3f6bb6f5022a4abb5a5331436b6bd80bfda88126db9dfa1b61065d45a36c8a7a6798f03ed3190fbb22f552a407f2ab7d5eed87d4acfb24057f39fd195a4a7362ee25c86e03a9296687999770d79785d880ac1361831118ea247d413cf883ef2bfcb6ca8f566f318fe257b8891595ad7039ec1262332b66a9bbe529fb390cfc312af85790a47575bbb9b11e7c62de5aa40623438a2328e1da40d79a5797e1bc5b2a1118d2b20886d51a99694fa46b2a9cc712fc17a64a638fc9086dafa6f43d9bdbed55854f51defa7874ac8b7b57fb8b46a741a6ba95b3db00d371ed7650dafa3022324a6afa33465225c4e69854599caa72cc9c88e2500a48c06ec1be6d92f47616436c8ed78db8e32f9be8fa4c63a4cbf074010c2fcf11b72fc745f00551e06453789d206b7685b29e3626907c5650a5c3a015c4a7c3f36f7f6419a48caa4135beba9d7e29b1cdcf879052363ecbf0997467f579bbea0df1917b22f8ea073500d192d9b814b75c061437670165777f00efb438b17c50e94cc5d6d7f3957d64699fb063881e5c6f897d8bd2f47951d264fd32bc6649e570c1eb520b1858772465bddd1b75ffcbc2e24b119be82c17a51e9d76ef9212583abf931995aa08ae3cf297290355c1dfc164c4fc3c80b1d23ce6673ee4b78c392717c9b526985c129a147d31cd005ebe81c0c7f8eb74dca669b8df6466713d82c799c6782511e47289f5304b641ee420d366e1799954025b991f59800b819d08280f99a3d683da036c6b553a030363098cc6ea23f9b7a36af350379cc80bb0b9ba36d3100174f93426409b5e3425b9d296cab9a42549a524159c1c16e06d78cf14c504411777cd2bbe9efc83eb4e93dfc411ab7fd6a05932b3efe69c8ebfff1c9258c65a422ba31a23eec811d9733fcf3f5cb5fe91af8a58b56f0b7b6609e3ddc4be7abe6d908c5fa79711c47cece6700edb8f767411f849ae34fced2b526fad34b0581a7b2ae248ad3a0c1c8222670046bd42657481991577317a0274a68cd4e31e3cda25e78e54e78f51c93c61b37e0234788991fcad1e453e4778ba141b574e3b29cfea21adc98e1288bbe65cb1e78dce5984937e479993f10cef314953baa10893dc9e46ede9931fde3437c0dece30d94a21251eedf2306d0003f387bb0f09073e0f1427203381e131131fea4b7c7bacad35b37fc6b0bc595f9e43c64730b48d9770eaf6f4b86c17f60e2b7cae535e92e0f1a9c7aa6099fcb4605d208a38ebf8ba2e23e22069f5b7578c7a5a5d9e37bc29de39b20078ff7e0bca304947e7657a44f3d066244335278f713a35a1ac9c2c324d2aa0ef02ace0e952f877379e42852d61e95d2da283bb5202f83727d1e28413bf0c05ae8f38218c7f68850b8a77cf371b83c5ccfcad36937ae7ab3ad876561576002b67a15946870bd5cc2cef886265510300ba1f788b27a5a14fdcc87476b5bd98e8faaa76ef6a54287d473ad113b418ef7105752bbb948ae0c389d466ab4cc449b4c12747c8e85913ffe6bbb5141cfec208dd2e1c6ec7e6299523f4b5e25c8fb85e0152bf2a1767ae778f1e58a38bf3ea0a92dd5b2d990dd8b3797488d0e60be2d53f19dd852e1f90f1d574f12407c438bd540e75d8a50a71718f6048a8d23b7595a47ccd44c2318f3d500c1c902b20937132a9fe20ea4f5d16e976b5d910e93afd7a6466ef75d6802dd69b7fa63023b8fc9dd49830fb3a0494aac6cccccbd4afc16597439b9fe2711c69457b2a45cd3aeb474a4f1aa31d373b290ec191d00d64e3240bb312a448d8986ca0ad9bb7f646cde8368925cf887e71588621a9ce572faf6268a3f930515c76d4ff19b501484618936fc4dff3e3a522e052374ca9d93080d7d43f5f1f8db00cc9c16acd007b2a7231dc993cf924420a2337f1212aef58970a082b3a5d2b35683bc25618c4827732bab7a4e77d47a64ca82082020937624c95ab2a418f5e23d1995c5d9fc065e598eb9708788b29a87e1e1baa33cf9bfcfa66ed6796cfc3fbb51c998d86a71ec000e83428afff7b40ddef64d39cce84f784e54ff945f499a64f9f91d8e46705ff30d0e6cab3202b9780f7448ccb6f89504a30c88f626827bb578f193138db8bec133df59b48bfc003dc6d6d4d344233e7c001a73d6aceffac0692ed559aefb64fa30178b01fa0ed184752cf32989bd2c36d4f01d9389f7133c119102b8c8f393cd95095d1bc5c4b7acbab60b10dcdbfee28b3ce8159dd7acbc3d5c6ace02adc948d9494abbbce78064df7f94fa789a1d327272ee9f8854377e5bbbdc865625654a31bf730d4522a0331fe595ee9631a20a3f93b60830da003689a584449ab2640f35dab3ee0c4ddd85af9a4337019699fb9923d89dbf5c9b9a3e3fb63da959e986a8ca785411e986fdd7070fba6dc5c0b91030f8d105d9f0d61c94a38a39da73551fe023fd012ca92c600173a02d2e648c14c506f4b4ddca383a43e6139002524670fbd1f92840be75828cda6089b04e74ea5c166ffd960d46deb8185fef6919be965d2febb73d0275e354810d53f6202dc58aad76436b7e1951100a753987969cca2615428dffda1fe35161a5c285dee4ba5af908b6cdfcc60d57d92a3852fb548725af2b3fc08d9b0c48021816f72a4cfc90bab7b6ff8a42bdbb78a16949258719fa2f42ec188655d229e7d9a3a634f5abd07200f223a344aed63c944ed4e687d4d39096524d414e871ccfa2cfced7d7f1f6f14e9378a7bda137106c04be630db7acfb48f79754e996cf1192012afeb6719852b4e8f39bd4b0843bbd05e4e1f7bef3b11d69e4226ea9b0b8a79be95b575bae1783a716870845bc477a6ac36e3864de36460bfee07538076e2222671d8900f18f06dd839d98f355e64ba745d0ae244cc838c5a6f8feb4955669d8e3a49b32461e4cdedbf5cd406102229366470717f8a9ba7bec7d7deee080e111a2f34363d42525657788c94a5b4c2e4e5161d2b4a4d6f8e9598a2a6b1b2b7bad4de01222429363e42435b68758a8e9495a7fc0000000000000000001125364701fd210500f5e35f34edeee128228a595a497660545974059821df9838ad8a79123a523e1654053a2dde64e9d64b8572b6a4a942765b00d0fbcdb22a027b3c0c420e4150601427147992740b7babc63d0d919d798037e033b4bfc020cfa783c9620d644c45f0ab32f450d89e1d7cef833d79ca31509956ecfcc865ffa16605b5f7f0b72a05fbf45a3009a0f4c22b3d0af14f03ea719059d80a72bba42a2bd90933ee599e476093573622d8edc0aae1330cf981c542c97d3d3495d5872c70f8aa633564e4cfc6979d0b924a7561c6af7662869663d1f34fcd86bbf0f6268bfb865914b59b5c9e34484544378f8a820b6e16788a77408ca7bb7f5502260d8122a74a5c9373effcb5dfad9692e2e27fdb4945538647ce69827577f068d516c655a10c42ac6911f132fee31a4e05c397d039342ec2cd5fc1932e1809b6e830888d44d17277d1daaad2c9d134f3dce8a94706d8c7d56077b84df6560968718cd93da340607917ded211b1d060b2fe766e727d078337bf061459abedfda9b26f788930f472475f88b7a7660d1129704d9e7cde8d491566cad9df0893cd50c25b04feac638a97e9e5593407963f1d42b469181ef87aab911cbe28a1504d29fd4c36723cac82efde67ce5aa1cabe8e225d4990c65e4e6d3b250d41905d61cad0867791beffd505c4534877fe8c6c4ebff62943846686e161b9b332bf820bc17ecdf7a5c178296f8c2df9ecbd7a390f94b64f1c76155a7b9c87fc12924e82f45a0ba785fae66831025d366e052fcf8471108c6740d9e6e7afe3785a4eca1b458121b60bbf26614bfa2642efba2a34cfd93076e72fc3009c18fe0762102823b53dcb1e95062d6ef5b4f7d1d389df8ee4b2900ed244914ff2f1114d86edec61ba033a568f3a3c61f9631276338a7bf345f2f6b15b68c68a569a6115a27db53c33ecca48c9a4a2e4f6780158c23c2db1752a68efd3058ad3cb8fa867b994a9155c6e07c23c9e785a69aeff0af77ecf3f37694a2c5c1b7ed971ca132588fc863f3e382f1a5abf19792e5b99cb0ac4851eb00dd5955e947598b8450c4075b0ad61399ec51ee810ce620f1c7767f939ebab09771a029530ca5d5960a85c567638905e5a6f66ee1efa5ed49fa9f3ec8c32bb507cce90af923a65c3612eb9fbb794015aef5a6e1939d578114a50b24b5dac6bd265e5abecd08051b05b18f7727a4773a32d7ffeff4c6b14c6915c7eb191563ea590a57242e70fd11e8e7dd4ca6c63035b826513feb74743a964a8e3653ab4f11c4903e5da83be311531cc8055b4584083bb145fabbe15b9a50b05408499fd044548e644b0857912b02f118624e867ec5b4202b1c1ffd154a5eb86899648218306d5b90c457ed7308556a46dcfc4e3dfe7c981da09d90c013d155b2779604564d7996ebadbdf712a2f6e67e10ef6efb53ce408aa8c4054b75fbf2c3e8c222c9ef43a5975096cac2ab2a24f8029072f5642f17a80144dea193e1f03c63cf3355866550a0a1d934bd79867dbd1c44756e0db560f8a2df913f97cb505bb3ac19d9ed835e5aa3a76bbfba9b2ae4b6bb90e42da706b0f3c8dde3576fc62711baaf8ddb1802902df0ba567c15a0133bbc2b3ee951f17d591bb1ab4c40339a63f90d14ac8a7a68d6c0e8f4007109944767a3cc908d1fdb12197907c517f1325a7c7c962658753c722b4bf8abe0879b6d4bac66ab7b6eb69f47ae4d716ee5a2e93fb2f58eefcc231db39514fb6c4f134e99d6faf0abbbe087d550f91b820b7d0e28772afe3d477daa1c60c15ea0a2e95cdb625fbf4d343b80177e5e255d900fab319fc5fedc5f095daabc3871b45fc0e6ac0796722221facf51386dd40309a77000000",
  "txid": "5561d68bf7fcdb996b04b08958c2bdd8a527845b6aa0edd416a481faf1042809",
  "hash": "610eaed12896db0705bb3bf09e5ac2b6ef1e555b39a1a2e86707e331f3ce27f9",
  "size": 5085,
  "vsize": 2278,
  "version": 1,
  "locktime": 119,
  "vin": [
    {
      "txid": "bab774c125ca85c976d9d636da793e30c3d26f08c357b1df319778c03c3a6d9a",
      "vout": 1,
      "scriptSig": {
        "asm": "",
        "hex": ""
      },
      "txinwitness": [
        "6af44d869a2404563772790c5fffaf3ea0ba2bfb3db24f2929dbc194c9978a961a15efedc80e3f2564ebf3337cd3991cade22cf33c842c8d2e3fce7060fe1145892a5c83ca7c25ff085663601bd60697a47f09ea1698f958f7424db0f11f3649aeff608fbc8522d6a330903d702de0d9f16cc7ee4ec7149ac2b2393e9debd986fab233b160db3190208c8c8239a5bb51c8146fce2fcb507d79aafe95df9fc36ebb8929dfffc79d02c6148303b16b3274201a51ed82ed5568cada15b9d4887bc782816bd3a9d4638d6727a8170c5c1b8c93245b1639f277d52c375534ac39ff0e4952070fdd2695bdc36ca63515c4c07e4db4eb9b4ad5e84e01397a466a8040a68884ae451d14f4f5d3377c3f6bb6f5022a4abb5a5331436b6bd80bfda88126db9dfa1b61065d45a36c8a7a6798f03ed3190fbb22f552a407f2ab7d5eed87d4acfb24057f39fd195a4a7362ee25c86e03a9296687999770d79785d880ac1361831118ea247d413cf883ef2bfcb6ca8f566f318fe257b8891595ad7039ec1262332b66a9bbe529fb390cfc312af85790a47575bbb9b11e7c62de5aa40623438a2328e1da40d79a5797e1bc5b2a1118d2b20886d51a99694fa46b2a9cc712fc17a64a638fc9086dafa6f43d9bdbed55854f51defa7874ac8b7b57fb8b46a741a6ba95b3db00d371ed7650dafa3022324a6afa33465225c4e69854599caa72cc9c88e2500a48c06ec1be6d92f47616436c8ed78db8e32f9be8fa4c63a4cbf074010c2fcf11b72fc745f00551e06453789d206b7685b29e3626907c5650a5c3a015c4a7c3f36f7f6419a48caa4135beba9d7e29b1cdcf879052363ecbf0997467f579bbea0df1917b22f8ea073500d192d9b814b75c061437670165777f00efb438b17c50e94cc5d6d7f3957d64699fb063881e5c6f897d8bd2f47951d264fd32bc6649e570c1eb520b1858772465bddd1b75ffcbc2e24b119be82c17a51e9d76ef9212583abf931995aa08ae3cf297290355c1dfc164c4fc3c80b1d23ce6673ee4b78c392717c9b526985c129a147d31cd005ebe81c0c7f8eb74dca669b8df6466713d82c799c6782511e47289f5304b641ee420d366e1799954025b991f59800b819d08280f99a3d683da036c6b553a030363098cc6ea23f9b7a36af350379cc80bb0b9ba36d3100174f93426409b5e3425b9d296cab9a42549a524159c1c16e06d78cf14c504411777cd2bbe9efc83eb4e93dfc411ab7fd6a05932b3efe69c8ebfff1c9258c65a422ba31a23eec811d9733fcf3f5cb5fe91af8a58b56f0b7b6609e3ddc4be7abe6d908c5fa79711c47cece6700edb8f767411f849ae34fced2b526fad34b0581a7b2ae248ad3a0c1c8222670046bd42657481991577317a0274a68cd4e31e3cda25e78e54e78f51c93c61b37e0234788991fcad1e453e4778ba141b574e3b29cfea21adc98e1288bbe65cb1e78dce5984937e479993f10cef314953baa10893dc9e46ede9931fde3437c0dece30d94a21251eedf2306d0003f387bb0f09073e0f1427203381e131131fea4b7c7bacad35b37fc6b0bc595f9e43c64730b48d9770eaf6f4b86c17f60e2b7cae535e92e0f1a9c7aa6099fcb4605d208a38ebf8ba2e23e22069f5b7578c7a5a5d9e37bc29de39b20078ff7e0bca304947e7657a44f3d066244335278f713a35a1ac9c2c324d2aa0ef02ace0e952f877379e42852d61e95d2da283bb5202f83727d1e28413bf0c05ae8f38218c7f68850b8a77cf371b83c5ccfcad36937ae7ab3ad876561576002b67a15946870bd5cc2cef886265510300ba1f788b27a5a14fdcc87476b5bd98e8faaa76ef6a54287d473ad113b418ef7105752bbb948ae0c389d466ab4cc449b4c12747c8e85913ffe6bbb5141cfec208dd2e1c6ec7e6299523f4b5e25c8fb85e0152bf2a1767ae778f1e58a38bf3ea0a92dd5b2d990dd8b3797488d0e60be2d53f19dd852e1f90f1d574f12407c438bd540e75d8a50a71718f6048a8d23b7595a47ccd44c2318f3d500c1c902b20937132a9fe20ea4f5d16e976b5d910e93afd7a6466ef75d6802dd69b7fa63023b8fc9dd49830fb3a0494aac6cccccbd4afc16597439b9fe2711c69457b2a45cd3aeb474a4f1aa31d373b290ec191d00d64e3240bb312a448d8986ca0ad9bb7f646cde8368925cf887e71588621a9ce572faf6268a3f930515c76d4ff19b501484618936fc4dff3e3a522e052374ca9d93080d7d43f5f1f8db00cc9c16acd007b2a7231dc993cf924420a2337f1212aef58970a082b3a5d2b35683bc25618c4827732bab7a4e77d47a64ca82082020937624c95ab2a418f5e23d1995c5d9fc065e598eb9708788b29a87e1e1baa33cf9bfcfa66ed6796cfc3fbb51c998d86a71ec000e83428afff7b40ddef64d39cce84f784e54ff945f499a64f9f91d8e46705ff30d0e6cab3202b9780f7448ccb6f89504a30c88f626827bb578f193138db8bec133df59b48bfc003dc6d6d4d344233e7c001a73d6aceffac0692ed559aefb64fa30178b01fa0ed184752cf32989bd2c36d4f01d9389f7133c119102b8c8f393cd95095d1bc5c4b7acbab60b10dcdbfee28b3ce8159dd7acbc3d5c6ace02adc948d9494abbbce78064df7f94fa789a1d327272ee9f8854377e5bbbdc865625654a31bf730d4522a0331fe595ee9631a20a3f93b60830da003689a584449ab2640f35dab3ee0c4ddd85af9a4337019699fb9923d89dbf5c9b9a3e3fb63da959e986a8ca785411e986fdd7070fba6dc5c0b91030f8d105d9f0d61c94a38a39da73551fe023fd012ca92c600173a02d2e648c14c506f4b4ddca383a43e6139002524670fbd1f92840be75828cda6089b04e74ea5c166ffd960d46deb8185fef6919be965d2febb73d0275e354810d53f6202dc58aad76436b7e1951100a753987969cca2615428dffda1fe35161a5c285dee4ba5af908b6cdfcc60d57d92a3852fb548725af2b3fc08d9b0c48021816f72a4cfc90bab7b6ff8a42bdbb78a16949258719fa2f42ec188655d229e7d9a3a634f5abd07200f223a344aed63c944ed4e687d4d39096524d414e871ccfa2cfced7d7f1f6f14e9378a7bda137106c04be630db7acfb48f79754e996cf1192012afeb6719852b4e8f39bd4b0843bbd05e4e1f7bef3b11d69e4226ea9b0b8a79be95b575bae1783a716870845bc477a6ac36e3864de36460bfee07538076e2222671d8900f18f06dd839d98f355e64ba745d0ae244cc838c5a6f8feb4955669d8e3a49b32461e4cdedbf5cd406102229366470717f8a9ba7bec7d7deee080e111a2f34363d42525657788c94a5b4c2e4e5161d2b4a4d6f8e9598a2a6b1b2b7bad4de01222429363e42435b68758a8e9495a7fc0000000000000000001125364701",
        "00f5e35f34edeee128228a595a497660545974059821df9838ad8a79123a523e1654053a2dde64e9d64b8572b6a4a942765b00d0fbcdb22a027b3c0c420e4150601427147992740b7babc63d0d919d798037e033b4bfc020cfa783c9620d644c45f0ab32f450d89e1d7cef833d79ca31509956ecfcc865ffa16605b5f7f0b72a05fbf45a3009a0f4c22b3d0af14f03ea719059d80a72bba42a2bd90933ee599e476093573622d8edc0aae1330cf981c542c97d3d3495d5872c70f8aa633564e4cfc6979d0b924a7561c6af7662869663d1f34fcd86bbf0f6268bfb865914b59b5c9e34484544378f8a820b6e16788a77408ca7bb7f5502260d8122a74a5c9373effcb5dfad9692e2e27fdb4945538647ce69827577f068d516c655a10c42ac6911f132fee31a4e05c397d039342ec2cd5fc1932e1809b6e830888d44d17277d1daaad2c9d134f3dce8a94706d8c7d56077b84df6560968718cd93da340607917ded211b1d060b2fe766e727d078337bf061459abedfda9b26f788930f472475f88b7a7660d1129704d9e7cde8d491566cad9df0893cd50c25b04feac638a97e9e5593407963f1d42b469181ef87aab911cbe28a1504d29fd4c36723cac82efde67ce5aa1cabe8e225d4990c65e4e6d3b250d41905d61cad0867791beffd505c4534877fe8c6c4ebff62943846686e161b9b332bf820bc17ecdf7a5c178296f8c2df9ecbd7a390f94b64f1c76155a7b9c87fc12924e82f45a0ba785fae66831025d366e052fcf8471108c6740d9e6e7afe3785a4eca1b458121b60bbf26614bfa2642efba2a34cfd93076e72fc3009c18fe0762102823b53dcb1e95062d6ef5b4f7d1d389df8ee4b2900ed244914ff2f1114d86edec61ba033a568f3a3c61f9631276338a7bf345f2f6b15b68c68a569a6115a27db53c33ecca48c9a4a2e4f6780158c23c2db1752a68efd3058ad3cb8fa867b994a9155c6e07c23c9e785a69aeff0af77ecf3f37694a2c5c1b7ed971ca132588fc863f3e382f1a5abf19792e5b99cb0ac4851eb00dd5955e947598b8450c4075b0ad61399ec51ee810ce620f1c7767f939ebab09771a029530ca5d5960a85c567638905e5a6f66ee1efa5ed49fa9f3ec8c32bb507cce90af923a65c3612eb9fbb794015aef5a6e1939d578114a50b24b5dac6bd265e5abecd08051b05b18f7727a4773a32d7ffeff4c6b14c6915c7eb191563ea590a57242e70fd11e8e7dd4ca6c63035b826513feb74743a964a8e3653ab4f11c4903e5da83be311531cc8055b4584083bb145fabbe15b9a50b05408499fd044548e644b0857912b02f118624e867ec5b4202b1c1ffd154a5eb86899648218306d5b90c457ed7308556a46dcfc4e3dfe7c981da09d90c013d155b2779604564d7996ebadbdf712a2f6e67e10ef6efb53ce408aa8c4054b75fbf2c3e8c222c9ef43a5975096cac2ab2a24f8029072f5642f17a80144dea193e1f03c63cf3355866550a0a1d934bd79867dbd1c44756e0db560f8a2df913f97cb505bb3ac19d9ed835e5aa3a76bbfba9b2ae4b6bb90e42da706b0f3c8dde3576fc62711baaf8ddb1802902df0ba567c15a0133bbc2b3ee951f17d591bb1ab4c40339a63f90d14ac8a7a68d6c0e8f4007109944767a3cc908d1fdb12197907c517f1325a7c7c962658753c722b4bf8abe0879b6d4bac66ab7b6eb69f47ae4d716ee5a2e93fb2f58eefcc231db39514fb6c4f134e99d6faf0abbbe087d550f91b820b7d0e28772afe3d477daa1c60c15ea0a2e95cdb625fbf4d343b80177e5e255d900fab319fc5fedc5f095daabc3871b45fc0e6ac0796722221facf51386dd40309a"
      ],
      "sequence": 4294967294
    }
  ],
  "vout": [
    {
      "value": 499978.6451,
      "n": 0,
      "scriptPubKey": {
        "asm": "1 9173f443be23d1cc8daa508409ee150edd8759c322b636a40eae9d353c23a2ae",
        "hex": "51209173f443be23d1cc8daa508409ee150edd8759c322b636a40eae9d353c23a2ae",
        "reqSigs": 1,
        "type": "witness_v1_scripthash",
        "addresses": [
          "3QJmnh"
        ]
      }
    },
    {
      "value": 1.0,
      "n": 1,
      "scriptPubKey": {
        "asm": "OP_RETURN 8a7c1096d350537d90481997be7f2a5bd0cc37f367c12c4026e376d07758ce8e 138e381f6117865b922354b4b5b0ff1cca7cb664ec0060186fb924ae9fb4e15033ae183f4137a67bb20374949590df3cea5c9644cc2040384f99048ebf94c17053ce785f2157c61bd26314f4f5f0bf5c8a3cf624ac4020582ff964eedff4a11073ee587f0177e63bf24334d4d5d09f7caa1cd6048c6000780fd944ceffd48130930eb89fe19706db12a3d43435307f9c4afc36e46c80e098ef39a42e1f3461d0b32e98bfc1b726fb3283f41415105fbc6adc16c44ca0c0b8cf19840e3f1441f0d34ef8dfa1d7469b52e3947475703fdc0abc76a42cc0a0d8af79e46e5f742190f36ed8ff81f766bb72c3b45455501ffc2a9c56840ce080f88f59c44e7f5401b0138e381f6117865b922354b4b5b0ff1cca7cb664ec0060186fb924ae9fb4e15033ae183f4137a67bb20374949590df3cea5c9644cc2040384f99048ebf94c17053ce785f2157c61bd26314f4f5f0bf5c8a3cf624ac4020582ff964eedff4a11073ee587f0177e63bf24334d4d5d09f7caa1cd6048c6000780fd944ceffd48130930eb89fe19706db12a3d43435307f9c4afc36e46c80e098ef39a42e1f3461d0b32e98bfc1b726fb3283f41415105fbc6adc16c44ca0c0b8cf19840e3f1441f0d34ef8dfa1d7469b52e3947475703fdc0abc76a42cc0a0d8af79e46e5f742190f36ed8ff81f766bb72c3b45455501ffc2a9c56840ce080f88f59c44e7f5401b0138e381f6117865b922354b4b5b0ff1cca7cb664ec0060186fb924ae9fb4e15033ae183f4137a67bb20374949590df3cea5c9644cc2040384f99048ebf94c17053ce785f2157c61bd26314f4f5f0bf5c8a3cf624ac4020582ff964eedff4a11073ee587f0177e63bf24334d4d5d09f7caa1cd6048c6000780fd944ceffd48130930eb89fe19706db12a3d43435307f9c4afc36e46c80e098ef39a42e1f3461d0b32e98bfc1b726fb3283f41415105fbc6adc16c44ca0c0b8cf19840e3f1441f0d34ef8dfa1d7469b52e3947475703fdc0abc76a42cc0a0d8af79e46e5f742190f36ed8ff81f766bb72c3b45455501ffc2a9c56840ce080f88f59c44e7f5401b0138e381f6117865b922354b4b5b0ff1cca7cb664ec0060186fb924ae9fb4e15033ae183f4137a67bb20374949590df3cea5c9644cc2040384f99048ebf94c17053ce785f2157c61bd26314f4f5f0bf5c8a3cf624ac4020582ff964eedff4a11073ee587f0177e63bf24334d4d5d09f7caa1cd6048c6000780fd944ceffd48130930eb89fe19706db12a3d43435307f9c4afc36e46c80e098ef39a42e1f3461d0b32e98bfc1b726fb3283f41415105fbc6adc16c44ca0c0b8cf19840e3f1441f0d34ef8dfa1d7469b52e3947475703fdc0abc76a42cc0a0d8af79e46e5f742190f36ed8ff81f766bb72c3b45455501ffc2a9c56840ce080f88f59c44e7f5401b0138e381f6117865b922354b4b5b0ff1cca7cb664ec0060186fb924ae9fb4e15033ae183f4137a67bb20374949590df3cea5c9644cc2040384f99048ebf94c17053ce785f2157c61bd26314f4f5f0bf5c8a3cf624ac4020582ff964eedff4a11073ee587f0177e63bf24334d4d5d09f7caa1cd6048c6000780fd944ceffd48130930eb89fe19706db12a3d43435307f9cac3c1b3aef793d9c814c0b4495feca2c3b8c4898afab23301592c28e1562fc44",
        "hex": "6a208a7c1096d350537d90481997be7f2a5bd0cc37f367c12c4026e376d07758ce8e4db004138e381f6117865b922354b4b5b0ff1cca7cb664ec0060186fb924ae9fb4e15033ae183f4137a67bb20374949590df3cea5c9644cc2040384f99048ebf94c17053ce785f2157c61bd26314f4f5f0bf5c8a3cf624ac4020582ff964eedff4a11073ee587f0177e63bf24334d4d5d09f7caa1cd6048c6000780fd944ceffd48130930eb89fe19706db12a3d43435307f9c4afc36e46c80e098ef39a42e1f3461d0b32e98bfc1b726fb3283f41415105fbc6adc16c44ca0c0b8cf19840e3f1441f0d34ef8dfa1d7469b52e3947475703fdc0abc76a42cc0a0d8af79e46e5f742190f36ed8ff81f766bb72c3b45455501ffc2a9c56840ce080f88f59c44e7f5401b0138e381f6117865b922354b4b5b0ff1cca7cb664ec0060186fb924ae9fb4e15033ae183f4137a67bb20374949590df3cea5c9644cc2040384f99048ebf94c17053ce785f2157c61bd26314f4f5f0bf5c8a3cf624ac4020582ff964eedff4a11073ee587f0177e63bf24334d4d5d09f7caa1cd6048c6000780fd944ceffd48130930eb89fe19706db12a3d43435307f9c4afc36e46c80e098ef39a42e1f3461d0b32e98bfc1b726fb3283f41415105fbc6adc16c44ca0c0b8cf19840e3f1441f0d34ef8dfa1d7469b52e3947475703fdc0abc76a42cc0a0d8af79e46e5f742190f36ed8ff81f766bb72c3b45455501ffc2a9c56840ce080f88f59c44e7f5401b0138e381f6117865b922354b4b5b0ff1cca7cb664ec0060186fb924ae9fb4e15033ae183f4137a67bb20374949590df3cea5c9644cc2040384f99048ebf94c17053ce785f2157c61bd26314f4f5f0bf5c8a3cf624ac4020582ff964eedff4a11073ee587f0177e63bf24334d4d5d09f7caa1cd6048c6000780fd944ceffd48130930eb89fe19706db12a3d43435307f9c4afc36e46c80e098ef39a42e1f3461d0b32e98bfc1b726fb3283f41415105fbc6adc16c44ca0c0b8cf19840e3f1441f0d34ef8dfa1d7469b52e3947475703fdc0abc76a42cc0a0d8af79e46e5f742190f36ed8ff81f766bb72c3b45455501ffc2a9c56840ce080f88f59c44e7f5401b0138e381f6117865b922354b4b5b0ff1cca7cb664ec0060186fb924ae9fb4e15033ae183f4137a67bb20374949590df3cea5c9644cc2040384f99048ebf94c17053ce785f2157c61bd26314f4f5f0bf5c8a3cf624ac4020582ff964eedff4a11073ee587f0177e63bf24334d4d5d09f7caa1cd6048c6000780fd944ceffd48130930eb89fe19706db12a3d43435307f9c4afc36e46c80e098ef39a42e1f3461d0b32e98bfc1b726fb3283f41415105fbc6adc16c44ca0c0b8cf19840e3f1441f0d34ef8dfa1d7469b52e3947475703fdc0abc76a42cc0a0d8af79e46e5f742190f36ed8ff81f766bb72c3b45455501ffc2a9c56840ce080f88f59c44e7f5401b0138e381f6117865b922354b4b5b0ff1cca7cb664ec0060186fb924ae9fb4e15033ae183f4137a67bb20374949590df3cea5c9644cc2040384f99048ebf94c17053ce785f2157c61bd26314f4f5f0bf5c8a3cf624ac4020582ff964eedff4a11073ee587f0177e63bf24334d4d5d09f7caa1cd6048c6000780fd944ceffd48130930eb89fe19706db12a3d43435307f9cac3c1b3aef793d9c814c0b4495feca2c3b8c4898afab23301592c28e1562fc44",
        "type": "nulldata"
      }
    }
  ],
  "blockhash": "2c44072194b49e49486c87ae6b37abdd6c2c23e2c7b477f70371a1b5276080d1",
  "confirmations": 1,
  "time": 1764179865,
  "blocktime": 1764179865
}