{
  "hex": "010000000001011a09c07e2049a2d20c599198b541d0a92c35aae4356b1ff43c83243aabb7435b0100000000feffffff0200e1f50500000000fdd5046a20f039ba34a9c15d333e63fd67fdf079843b721ad8298c471aa2a3cc7b523970814db004a55aa01a22c698b399ecbcfe4fd0fef917e3f933d9ad77dc96abcf4a60682496857a803a02e6b893b9cc9cde6ff0ded937c3d913f98d57fcb68bef6a404804b6e51ae05a6286d8f3d9acfcbe0f90beb957a3b97399ed379cd6eb8f0a202864d6c53ac07a42a6f8d3f98cdc9e2fb09e9977839953b9cd17bcf6cbaf2a000844f625da209aa2461833196c3c7ecf507e79976379b3592df75c162b4fcae0e8a41605fa00ba82663813394c1c5eef705e59b7435993790dd77c360b6feac0c88436659a60dae2065873592c7c3e8f103e39d72339f3196db71c566b0f8aa0a8e45645ba40fac2267853790c5c1eaf301e19f70319d3394d973c764b2faa8088c476a55aa01a22c698b399ecbcfe4fd0fef917e3f933d9ad77dc96abcf4a60682496857a803a02e6b893b9cc9cde6ff0ded937c3d913f98d57fcb68bef6a404804b6e51ae05a6286d8f3d9acfcbe0f90beb957a3b97399ed379cd6eb8f0a202864d6c53ac07a42a6f8d3f98cdc9e2fb09e9977839953b9cd17bcf6cbaf2a000844f625da209aa2461833196c3c7ecf507e79976379b3592df75c162b4fcae0e8a41605fa00ba82663813394c1c5eef705e59b7435993790dd77c360b6feac0c88436659a60dae2065873592c7c3e8f103e39d72339f3196db71c566b0f8aa0a8e45645ba40fac2267853790c5c1eaf301e19f70319d3394d973c764b2faa8088c476a55aa01a22c698b399ecbcfe4fd0fef917e3f933d9ad77dc96abcf4a60682496857a803a02e6b893b9cc9cde6ff0ded937c3d913f98d57fcb68bef6a404804b6e51ae05a6286d8f3d9acfcbe0f90beb957a3b97399ed379cd6eb8f0a202864d6c53ac07a42a6f8d3f98cdc9e2fb09e9977839953b9cd17bcf6cbaf2a000844f625da209aa2461833196c3c7ecf507e79976379b3592df75c162b4fcae0e8a41605fa00ba82663813394c1c5eef705e59b7435993790dd77c360b6feac0c88436659a60dae2065873592c7c3e8f103e39d72339f3196db71c566b0f8aa0a8e45645ba40fac2267853790c5c1eaf301e19f70319d3394d973c764b2faa8088c476a55aa01a22c698b399ecbcfe4fd0fef917e3f933d9ad77dc96abcf4a60682496857a803a02e6b893b9cc9cde6ff0ded937c3d913f98d57fcb68bef6a404804b6e51ae05a6286d8f3d9acfcbe0f90beb957a3b97399ed379cd6eb8f0a202864d6c53ac07a42a6f8d3f98cdc9e2fb09e9977839953b9cd17bcf6cbaf2a000844f625da209aa2461833196c3c7ecf507e79976379b3592df75c162b4fcae0e8a41605fa00ba82663813394c1c5eef705e59b7435993790dd77c360b6feac0c88436659a60dae2065873592c7c3e8f103e39d72339f3196db71c566b0f8aa0a8e45645ba40fac2267853790c5c1eaf301e19f70319d3394d973c764b2faa8088c476a55aa01a22c698b399ecbcfe4fd0fef917e3f933d9ad77dc96abcf4a60682496857a803a02e6b893b9cc9cde6ff0ded937c3d913f98d57fcb68bef6a404804b6e51ae05a6286d8f3d9acfcbe0f90beb957a3b97399ed379cd6eb8f0a202864d6c53ac07a42a6f8d3f98cdc9e2fb09e9977839953b9cd17bcf6cbaf2a000844f625da209aa2461833196c3c7ecf507e795698eb2b6cf0e3e0ac7efe247e1eaf082ddc8d15cc63a564b1030b97ac912dadb0cd76d8782d000022512031f0198ec56159ef0cbac6d506716a0b63c2547c089c88b2dd3b97d3a661b13e02fd750927d56a668d23fd995c3b52d4dab5cc14cea1b0819c25611d1859cbdf240d9d822976b39f857d480123916f4ea30e5186d89cc5785471baec98c5c316bc57c9e11617c11962b02d080eba849005260198d167a576cddabec7c20ad8d034ef40ea0627106da4f05ac56e1d2d7cf9113889df7647128d516081f6f1a0e13564481bf7d2fdf7b7114ee1b853cde9354211eb0254fc750300fd6088e91f49b3bf92b7472f042c8ac5ec2e9781b1adac4bb92c0eaf616afdb8c2e8afb3bd30eb3a2401048d195f766c37d05256eb7548ea708f7fa95c74084dd95979d28a6f8d04008580aab0f89300d583b8c4079aa148820374493bcfc356ef9f6d9ec4a74e20339a77a07677e200b273355dc7bfc69b8ae639c75d04c040da585511869849c09de06707f1f1b396ed65670e1def8305ccaebd9b8ed7b1f543fe6e50f80277845f128668a176679ceb8af2c4cabef01d984f5866c79314d2f017a9380f2f8f39658acd3540d9460fdeac5eec9bc8294db7e787ae2a068a54758bdd4d9d7346a806d55233b04f30976ff9fa21a98006a4db913450aae845d364c2a1547c861be64ca22cde4a3b5a21244cf6944febd8c90c12c08383500014e35c366319df1ee82ba6cbd5d97d804b2fb166c946829c84be82acbaaafe1ebb7aef07e9e949dc5fabd59e6ebadaa40fb26425cc6149b1b83ea69f7bb4cb06428d001ddd5e0fe351a610cc314ed10787618a0aa6e0f50b944edef1976344496c61678d33946122cbfeb50d8c5eaa056a9542846936cebcb8f104c39199d262a69a784e9a2b1491ae0b2e75865aa0b459b0144e9b56bed4792392d27e41a45474b0d8927f0ef4c7e28c6ac3ede15e0b03339a6bb9ba1a52d370e1b1a428a518b5866cf3692639744ec1a899b21cc6751a9b9fe19d788376b2083f74091c89eab68598135ebc4b5dc20875d89384f32fc170f28eaf107d230ea7d6b47802b5aa6f7ad3883beb539655410c7e6b42eb8b188f143383d7228e91e506bf90723682c019c91b8c4d257b17ef1e3e32383c58101ad84ff2ee85fc64dd488563a9bc66c3f2df26bdacbb2de4c1acd7948218a668a4d77f65aa25b92adf358c78db1ab6d9f1d9895d9d600b45e4994c153a3fd70ed0184a9b2029e71c8b47b2bf67200cee2c660dc232237d516cf0086c9cf042eb46ba46ead81f5886759461c168ecdbf612fadb13687d18752f5b88a7bf0fe3c03a9a3400eb2df33317e11452a054373e882535e4a86886625942196d26a6a6bba655614efc9e28abbfc2a868a185f6778ac46298c8a8e1a801bdb714661d0b4d80a4fcffe0313076019e122d57c357a79b2913622517415b5c4574633905748ba06b196e90fdab561ecd80cb06c305cfb8be266411e70ca385a35a3ba2f7e632a68f554f97cec4b61d7e2159f7162bef473098660f97f336a31a02c33fb85304ae67c7798e47aacf5dcd9015478c346c1c80da7eeb78059c502ea7374b332caaaeb309dd3c6b5a69fc8d9c4ad62cba98c1ad4882ee00a4ae430909e00767528279af3170cf80113186a1f63ac039b25b20fb8009558960afd416a6d3d0e6a9301c67314976bff9bb0c46403b020f50320f27434e9197e61fb80429426ce36229d1ad6467527b1812ec8fa774f9bc0dca1a577a197346ccc11040ddcdc425e05a7b7ef7bf106013466a7ddb317fa98956c7f3c93021a4887532a738b847982dd73a820ba59bdb99390f1f7901bf273abcce4f6b252725c81508b5e213146a6bb223973c56e88c1da0ed224b4d8aada3f9d4e0f488ba54509827e4f540c33541f9a36d1158983840c1e92ca6840b7abb796eca9ba771beced49590f46355ea8b3b23bf32129b09729c29394691523ab82923f88e3036544c4421c32076cba1095174877bda65f409e13ed92c7a713698364f5195ce8a019026f8fa0ed3bc068ac33058a0e4754cc96985b459ed777c64cdb49eb1404d5c15879021598377f3bd1131b3dff7db668020a33015666e371d79f7f5c1f6a2fbd56532d15faa0992074e4235bde1e75751da988f973afba60974c704dee7e3d78df4ce472b11d42bf31e0845edda394f1a94ac89fc067e6c052c2b6fcec12e28db8c30ee81b8c07d0106199c3dea1da05618dfcd4a6043c6f49f64981d9f985fb0fb5bcd99f1e31713464476710fba711db40b469bafedac4b4fc9312309d3918e540fbec630cc2b024a25cd671751f446bec7cbc41957a43ac602b1115a4bbafa6cf1f7e8a8ccc785b34756dff688346d947ae5ac083fbb166dfd0136f89ecc24cd8a4c944ff320fe41ec5da3fdbecc6337f3419e0de6119b33e63f081182af95ec0dfa15e18396defea6706280c6f12ac6a4bd17c983478816a64ff16f1c9de5c87f10f1d1bb86616a5fe08ca8baf460414153ed6a1b3741b543ee170b3dc13cb70e7f4e1a8c24dfc3edf2a6fc2e6d3fb821a3841c88ec1b95527845abbf59b3aa6782ef9965c8842592589b04ac44f4be19ec4f94c538726739e3bcb5b5a3bde4a67ac0f83d315a9341b26d4396c373e5c4e1854e97fef7e33f936a37cb91b52b8a98ec8622e5de4d06c013aca7b9b5eeaa965d434306e7d1ba443884c01fd4f0d141c3519783dafa0426d1c37ec5d5ee1f3e04e9ff1b5321cbcbe16fa2f1fa8b719e71ad0bb88b114b51a90bea15519cbb788b0ab9150ac06206d604eb68a1f0c4546e1dbc45e354a33a4d8e88c9c52bcc2ab6eb15d70e6bfdca504ce5a3d42e8374aa67ebe0ec8e87803cb7014fb8bebece806ff23f14dcecc3d97a001a7b5852840bda26a6395b340b31b85a9b6280b3a55277f332dbc9c70e1fb1a830428362d5bd24288fd418c27b497c4345234c8aecf51fa4b3d4e21ee3d2de85ed6511f19895bf0cb0559e6f8d114a412b38e4a70a8f909d4fb59ae243b4bb0d2a3585cc9f1711e04dc16aa357eae3db85ff5fd7c84f6c4a7b2d69fad1b416493396f655654c2a5f7996ca1845624bb1878739c6f5c59372275be8f4061b391d69c33ea3fc956311f7ca35727df94b711f2e48aff648d7f97e564d15e58663f68edfec27adb9b90da3ebf2e4a9d7f7e2cceb7f4f37f65ad6ae9c187e8342549a2e1a0f2ddd86b8f85af4e3d0d77c78a03326148ac684c591873965cec40661e0deccd9fbcaac0a5e4f899b4c1a9092e563228b81548f9d8e4ab6b02b8b61f38f07e3fc42923e1b70a7a84d62c3b3e2aadae8332a93549b0737ebfc65f2305c11f013ccf83cc91a4d76dc1b6ef8774fec6dd70bf77876c11f31cee86e8a37cfd45272b6bd0c192a73768496a0bec1cbd01213373b52535557617279a7acb7c4daee0b0d3538666d7f8089aab9c0e5e8080f2324363e717e8aa4aaafbfc0ccdce40000000000000000000000000000000000000000000b1c2a3b01fd210500e4e1a1eb5bdc66396f9d329d3c712f38a8b4c3b8959843108cd915d6821cdbb6eba18cc513ce90df807d364cd498cd9a3049a3347c7e984b3299a4e1c4f92ef8af5e1b211987bbe99eae512521a13ac1a44ce9e703ac67ecf13b8996931bf30afb9ed1eef98513ed53dc07ee0f86f9c264366ecb54f7fdc1e796b5846858151b6da6ce2f95d13cbfd7e0b3a736293016c604fa212ae37c4bc1dd417a164c9c85f7e87dcddd0d3828442de01e4dd736cb988bc678f7b26378f7b174a698e5c417f72bde0999bdda07694fe2fa4109a85305e5f091d14d59d88e4804b438c57aee92a7a79eda4269cf3f462b9edc12df0aceda54a767923fa16aef6c5362639a6cb752b078a476ec485acc65aa0ebb85a807528ae6a27231f6287c5cbbee78f26e18484045764b5d1c3289503e6a29e513b8c15313287d88d4020c4b0d40e54a47e3bf379ef91495c6b1b9aeae6b8fbf60dc8a57cb97310c70446f8da1fe296dc1dc66c98a00ff6ab53cc080e7cca92ccf9f573de40fdfe393c578a4cfb05e7b3450a676802abade8172470fd09359f139b081c923a3a242cd558b61641bbd3b276a49ac8fc5d77806bacdc285f77147b83056d97272a516b283dea1530a82e87f12d305f63d8126855fa529d750d0582d292b316538093dba93f74727e31228dfd1c9c5866322f05d57e4ab4f2935861c61c652dcb8bf56c63e68f68ac0dbe006f3e5f361d738d45ecb7204c73403c4166d131c8a0636fe375b35e62626f79ff15e45f8054173c2eb5caa8630ec6dbd9ae1860e75f1276e8c536abac6347557af619e6ac8730ae5503bd4dd17ed7c9e43e95ebf2ce3d7dd93de95fdaa9a408b9398bf518ca9d28a530cada99b94a21a3e0fb61275225bb1961f48f725210d5d7b691660d9b2a536739e7371927787140d28784e51c3cf3ffac4295bda2c09ba968f68c8e6c60b8c578fbc9e46afa3e938fa7668c8f43d0deb4536323b1846a818523fb6701275c17d85a4d702861ad19709f982665fc93017018cef91b2c432b90bc32e0b2136162c809b5e8c8524d1735d55d3d30fb15bbee0d45039b4f750ea522306e266202f98e44a12cb11ca6abdc15fbde159dd78631abe1710af38a68190a522f5e32216becc5a8e674fd58ee159ae820b8dde1012b9482faf661604b8286bd525c9ed9f2585097d431fb66de6ac1e3b4b0950d5d9587d198e202519208e62048937e8be7931416f1c1d45ff7c4fb70572b991b37a08c55af1904016c73013c5651cc1fbaa2048663e2e599e405de5ac04d66729f3401ae552811bd6fee449213f6153878842fd136206871f8cc54960139875e3e0ae799534736aa74d7a0a27a237879f7e96505c313b8124fba0cd24086c12dc4bab1cadd257813bdfa84388e1151dbe3700476844ec7ab0ab9eeed7125550ffec54541d4e2e4e7ce18e05afc8bb93b8d0348637db1dfb247633ba6418368b7719b3fe8fff3fe09de89756c02f16b8a2f4de5985b7a34ffc370adec3f23a03ea0629ef1e9f140b0bce13e0002bb8385db8e876893281c6551db9f5cb97d2061f555ba0206924de1e847e751ff63dda535c9df181b44227c11625b8e8d097f31d8566412d42c706b940c5d438e641ed2ca6857983208397e88b594d433c26b9720390f44a8ef1da297b019ba208b88163e6f1cbbc47ea6a81f0faf6aa820e0331abfaebcb9a68c2793bc99b50c136423b9211c6a59a040c3c092c51adfae7dc43ac712829fdb872fb2fccdbb4a8ac91af24d9cb6444e718b12d879c4fc73f3844eb4e9b4a800e7575c7a10479790d7868de9a94e56e53a35691081f7471b0ae769598303f6f29af11517f000000",
  "txid": "5ca3f2cd8c99a28e7717fff10bc3ddad3d2940917ca1f8aec845ed1a865fb8e2",
  "hash": "a2ff2758313649fbfa1851e563fc2c7543f03f38555554658b3a491721ef0c3e",
  "size": 5085,
  "vsize": 2278,
  "version": 1,
  "locktime": 127,
  "vin": [
    {
      "txid": "5b43b7ab3a24833cf41f6b35e4aa352ca9d041b59891590cd2a249207ec0091a",
      "vout": 1,
      "scriptSig": {
        "asm": "",
        "hex": ""
      },
      "txinwitness": [
        "27d56a668d23fd995c3b52d4dab5cc14cea1b0819c25611d1859cbdf240d9d822976b39f857d480123916f4ea30e5186d89cc5785471baec98c5c316bc57c9e11617c11962b02d080eba849005260198d167a576cddabec7c20ad8d034ef40ea0627106da4f05ac56e1d2d7cf9113889df7647128d516081f6f1a0e13564481bf7d2fdf7b7114ee1b853cde9354211eb0254fc750300fd6088e91f49b3bf92b7472f042c8ac5ec2e9781b1adac4bb92c0eaf616afdb8c2e8afb3bd30eb3a2401048d195f766c37d05256eb7548ea708f7fa95c74084dd95979d28a6f8d04008580aab0f89300d583b8c4079aa148820374493bcfc356ef9f6d9ec4a74e20339a77a07677e200b273355dc7bfc69b8ae639c75d04c040da585511869849c09de06707f1f1b396ed65670e1def8305ccaebd9b8ed7b1f543fe6e50f80277845f128668a176679ceb8af2c4cabef01d984f5866c79314d2f017a9380f2f8f39658acd3540d9460fdeac5eec9bc8294db7e787ae2a068a54758bdd4d9d7346a806d55233b04f30976ff9fa21a98006a4db913450aae845d364c2a1547c861be64ca22cde4a3b5a21244cf6944febd8c90c12c08383500014e35c366319df1ee82ba6cbd5d97d804b2fb166c946829c84be82acbaaafe1ebb7aef07e9e949dc5fabd59e6ebadaa40fb26425cc6149b1b83ea69f7bb4cb06428d001ddd5e0fe351a610cc314ed10787618a0aa6e0f50b944edef1976344496c61678d33946122cbfeb50d8c5eaa056a9542846936cebcb8f104c39199d262a69a784e9a2b1491ae0b2e75865aa0b459b0144e9b56bed4792392d27e41a45474b0d8927f0ef4c7e28c6ac3ede15e0b03339a6bb9ba1a52d370e1b1a428a518b5866cf3692639744ec1a899b21cc6751a9b9fe19d788376b2083f74091c89eab68598135ebc4b5dc20875d89384f32fc170f28eaf107d230ea7d6b47802b5aa6f7ad3883beb539655410c7e6b42eb8b188f143383d7228e91e506bf90723682c019c91b8c4d257b17ef1e3e32383c58101ad84ff2ee85fc64dd488563a9bc66c3f2df26bdacbb2de4c1acd7948218a668a4d77f65aa25b92adf358c78db1ab6d9f1d9895d9d600b45e4994c153a3fd70ed0184a9b2029e71c8b47b2bf67200cee2c660dc232237d516cf0086c9cf042eb46ba46ead81f5886759461c168ecdbf612fadb13687d18752f5b88a7bf0fe3c03a9a3400eb2df33317e11452a054373e882535e4a86886625942196d26a6a6bba655614efc9e28abbfc2a868a185f6778ac46298c8a8e1a801bdb714661d0b4d80a4fcffe0313076019e122d57c357a79b2913622517415b5c4574633905748ba06b196e90fdab561ecd80cb06c305cfb8be266411e70ca385a35a3ba2f7e632a68f554f97cec4b61d7e2159f7162bef473098660f97f336a31a02c33fb85304ae67c7798e47aacf5dcd9015478c346c1c80da7eeb78059c502ea7374b332caaaeb309dd3c6b5a69fc8d9c4ad62cba98c1ad4882ee00a4ae430909e00767528279af3170cf80113186a1f63ac039b25b20fb8009558960afd416a6d3d0e6a9301c67314976bff9bb0c46403b020f50320f27434e9197e61fb80429426ce36229d1ad6467527b1812ec8fa774f9bc0dca1a577a197346ccc11040ddcdc425e05a7b7ef7bf106013466a7ddb317fa98956c7f3c93021a4887532a738b847982dd73a820ba59bdb99390f1f7901bf273abcce4f6b252725c81508b5e213146a6bb223973c56e88c1da0ed224b4d8aada3f9d4e0f488ba54509827e4f540c33541f9a36d1158983840c1e92ca6840b7abb796eca9ba771beced49590f46355ea8b3b23bf32129b09729c29394691523ab82923f88e3036544c4421c32076cba1095174877bda65f409e13ed92c7a713698364f5195ce8a019026f8fa0ed3bc068ac33058a0e4754cc96985b459ed777c64cdb49eb1404d5c15879021598377f3bd1131b3dff7db668020a33015666e371d79f7f5c1f6a2fbd56532d15faa0992074e4235bde1e75751da988f973afba60974c704dee7e3d78df4ce472b11d42bf31e0845edda394f1a94ac89fc067e6c052c2b6fcec12e28db8c30ee81b8c07d0106199c3dea1da05618dfcd4a6043c6f49f64981d9f985fb0fb5bcd99f1e31713464476710fba711db40b469bafedac4b4fc9312309d3918e540fbec630cc2b024a25cd671751f446bec7cbc41957a43ac602b1115a4bbafa6cf1f7e8a8ccc785b34756dff688346d947ae5ac083fbb166dfd0136f89ecc24cd8a4c944ff320fe41ec5da3fdbecc6337f3419e0de6119b33e63f081182af95ec0dfa15e18396defea6706280c6f12ac6a4bd17c983478816a64ff16f1c9de5c87f10f1d1bb86616a5fe08ca8baf460414153ed6a1b3741b543ee170b3dc13cb70e7f4e1a8c24dfc3edf2a6fc2e6d3fb821a3841c88ec1b95527845abbf59b3aa6782ef9965c8842592589b04ac44f4be19ec4f94c538726739e3bcb5b5a3bde4a67ac0f83d315a9341b26d4396c373e5c4e1854e97fef7e33f936a37cb91b52b8a98ec8622e5de4d06c013aca7b9b5eeaa965d434306e7d1ba443884c01fd4f0d141c3519783dafa0426d1c37ec5d5ee1f3e04e9ff1b5321cbcbe16fa2f1fa8b719e71ad0bb88b114b51a90bea15519cbb788b0ab9150ac06206d604eb68a1f0c4546e1dbc45e354a33a4d8e88c9c52bcc2ab6eb15d70e6bfdca504ce5a3d42e8374aa67ebe0ec8e87803cb7014fb8bebece806ff23f14dcecc3d97a001a7b5852840bda26a6395b340b31b85a9b6280b3a55277f332dbc9c70e1fb1a830428362d5bd24288fd418c27b497c4345234c8aecf51fa4b3d4e21ee3d2de85ed6511f19895bf0cb0559e6f8d114a412b38e4a70a8f909d4fb59ae243b4bb0d2a3585cc9f1711e04dc16aa357eae3db85ff5fd7c84f6c4a7b2d69fad1b416493396f655654c2a5f7996ca1845624bb1878739c6f5c59372275be8f4061b391d69c33ea3fc956311f7ca35727df94b711f2e48aff648d7f97e564d15e58663f68edfec27adb9b90da3ebf2e4a9d7f7e2cceb7f4f37f65ad6ae9c187e8342549a2e1a0f2ddd86b8f85af4e3d0d77c78a03326148ac684c591873965cec40661e0deccd9fbcaac0a5e4f899b4c1a9092e563228b81548f9d8e4ab6b02b8b61f38f07e3fc42923e1b70a7a84d62c3b3e2aadae8332a93549b0737ebfc65f2305c11f013ccf83cc91a4d76dc1b6ef8774fec6dd70bf77876c11f31cee86e8a37cfd45272b6bd0c192a73768496a0bec1cbd01213373b52535557617279a7acb7c4daee0b0d3538666d7f8089aab9c0e5e8080f2324363e717e8aa4aaafbfc0ccdce40000000000000000000000000000000000000000000b1c2a3b01",
        "00e4e1a1eb5bdc66396f9d329d3c712f38a8b4c3b8959843108cd915d6821cdbb6eba18cc513ce90df807d364cd498cd9a3049a3347c7e984b3299a4e1c4f92ef8af5e1b211987bbe99eae512521a13ac1a44ce9e703ac67ecf13b8996931bf30afb9ed1eef98513ed53dc07ee0f86f9c264366ecb54f7fdc1e796b5846858151b6da6ce2f95d13cbfd7e0b3a736293016c604fa212ae37c4bc1dd417a164c9c85f7e87dcddd0d3828442de01e4dd736cb988bc678f7b26378f7b174a698e5c417f72bde0999bdda07694fe2fa4109a85305e5f091d14d59d88e4804b438c57aee92a7a79eda4269cf3f462b9edc12df0aceda54a767923fa16aef6c5362639a6cb752b078a476ec485acc65aa0ebb85a807528ae6a27231f6287c5cbbee78f26e18484045764b5d1c3289503e6a29e513b8c15313287d88d4020c4b0d40e54a47e3bf379ef91495c6b1b9aeae6b8fbf60dc8a57cb97310c70446f8da1fe296dc1dc66c98a00ff6ab53cc080e7cca92ccf9f573de40fdfe393c578a4cfb05e7b3450a676802abade8172470fd09359f139b081c923a3a242cd558b61641bbd3b276a49ac8fc5d77806bacdc285f77147b83056d97272a516b283dea1530a82e87f12d305f63d8126855fa529d750d0582d292b316538093dba93f74727e31228dfd1c9c5866322f05d57e4ab4f2935861c61c652dcb8bf56c63e68f68ac0dbe006f3e5f361d738d45ecb7204c73403c4166d131c8a0636fe375b35e62626f79ff15e45f8054173c2eb5caa8630ec6dbd9ae1860e75f1276e8c536abac6347557af619e6ac8730ae5503bd4dd17ed7c9e43e95ebf2ce3d7dd93de95fdaa9a408b9398bf518ca9d28a530cada99b94a21a3e0fb61275225bb1961f48f725210d5d7b691660d9b2a536739e7371927787140d28784e51c3cf3ffac4295bda2c09ba968f68c8e6c60b8c578fbc9e46afa3e938fa7668c8f43d0deb4536323b1846a818523fb6701275c17d85a4d702861ad19709f982665fc93017018cef91b2c432b90bc32e0b2136162c809b5e8c8524d1735d55d3d30fb15bbee0d45039b4f750ea522306e266202f98e44a12cb11ca6abdc15fbde159dd78631abe1710af38a68190a522f5e32216becc5a8e674fd58ee159ae820b8dde1012b9482faf661604b8286bd525c9ed9f2585097d431fb66de6ac1e3b4b0950d5d9587d198e202519208e62048937e8be7931416f1c1d45ff7c4fb70572b991b37a08c55af1904016c73013c5651cc1fbaa2048663e2e599e405de5ac04d66729f3401ae552811bd6fee449213f6153878842fd136206871f8cc54960139875e3e0ae799534736aa74d7a0a27a237879f7e96505c313b8124fba0cd24086c12dc4bab1cadd257813bdfa84388e1151dbe3700476844ec7ab0ab9eeed7125550ffec54541d4e2e4e7ce18e05afc8bb93b8d0348637db1dfb247633ba6418368b7719b3fe8fff3fe09de89756c02f16b8a2f4de5985b7a34ffc370adec3f23a03ea0629ef1e9f140b0bce13e0002bb8385db8e876893281c6551db9f5cb97d2061f555ba0206924de1e847e751ff63dda535c9df181b44227c11625b8e8d097f31d8566412d42c706b940c5d438e641ed2ca6857983208397e88b594d433c26b9720390f44a8ef1da297b019ba208b88163e6f1cbbc47ea6a81f0faf6aa820e0331abfaebcb9a68c2793bc99b50c136423b9211c6a59a040c3c092c51adfae7dc43ac712829fdb872fb2fccdbb4a8ac91af24d9cb6444e718b12d879c4fc73f3844eb4e9b4a800e7575c7a10479790d7868de9a94e56e53a35691081f7471b0ae769598303f6f29af1151"
      ],
      "sequence": 4294967294
    }
  ],
  "vout": [
    {
      "value": 1.0,
      "n": 0,
      "scriptPubKey": {
        "asm": "OP_RETURN f039ba34a9c15d333e63fd67fdf079843b721ad8298c471aa2a3cc7b52397081 a55aa01a22c698b399ecbcfe4fd0fef917e3f933d9ad77dc96abcf4a60682496857a803a02e6b893b9cc9cde6ff0ded937c3d913f98d57fcb68bef6a404804b6e51ae05a6286d8f3d9acfcbe0f90beb957a3b97399ed379cd6eb8f0a202864d6c53ac07a42a6f8d3f98cdc9e2fb09e9977839953b9cd17bcf6cbaf2a000844f625da209aa2461833196c3c7ecf507e79976379b3592df75c162b4fcae0e8a41605fa00ba82663813394c1c5eef705e59b7435993790dd77c360b6feac0c88436659a60dae2065873592c7c3e8f103e39d72339f3196db71c566b0f8aa0a8e45645ba40fac2267853790c5c1eaf301e19f70319d3394d973c764b2faa8088c476a55aa01a22c698b399ecbcfe4fd0fef917e3f933d9ad77dc96abcf4a60682496857a803a02e6b893b9cc9cde6ff0ded937c3d913f98d57fcb68bef6a404804b6e51ae05a6286d8f3d9acfcbe0f90beb957a3b97399ed379cd6eb8f0a202864d6c53ac07a42a6f8d3f98cdc9e2fb09e9977839953b9cd17bcf6cbaf2a000844f625da209aa2461833196c3c7ecf507e79976379b3592df75c162b4fcae0e8a41605fa00ba82663813394c1c5eef705e59b7435993790dd77c360b6feac0c88436659a60dae2065873592c7c3e8f103e39d72339f3196db71c566b0f8aa0a8e45645ba40fac2267853790c5c1eaf301e19f70319d3394d973c764b2faa8088c476a55aa01a22c698b399ecbcfe4fd0fef917e3f933d9ad77dc96abcf4a60682496857a803a02e6b893b9cc9cde6ff0ded937c3d913f98d57fcb68bef6a404804b6e51ae05a6286d8f3d9acfcbe0f90beb957a3b97399ed379cd6eb8f0a202864d6c53ac07a42a6f8d3f98cdc9e2fb09e9977839953b9cd17bcf6cbaf2a000844f625da209aa2461833196c3c7ecf507e79976379b3592df75c162b4fcae0e8a41605fa00ba82663813394c1c5eef705e59b7435993790dd77c360b6feac0c88436659a60dae2065873592c7c3e8f103e39d72339f3196db71c566b0f8aa0a8e45645ba40fac2267853790c5c1eaf301e19f70319d3394d973c764b2faa8088c476a55aa01a22c698b399ecbcfe4fd0fef917e3f933d9ad77dc96abcf4a60682496857a803a02e6b893b9cc9cde6ff0ded937c3d913f98d57fcb68bef6a404804b6e51ae05a6286d8f3d9acfcbe0f90beb957a3b97399ed379cd6eb8f0a202864d6c53ac07a42a6f8d3f98cdc9e2fb09e9977839953b9cd17bcf6cbaf2a000844f625da209aa2461833196c3c7ecf507e79976379b3592df75c162b4fcae0e8a41605fa00ba82663813394c1c5eef705e59b7435993790dd77c360b6feac0c88436659a60dae2065873592c7c3e8f103e39d72339f3196db71c566b0f8aa0a8e45645ba40fac2267853790c5c1eaf301e19f70319d3394d973c764b2faa8088c476a55aa01a22c698b399ecbcfe4fd0fef917e3f933d9ad77dc96abcf4a60682496857a803a02e6b893b9cc9cde6ff0ded937c3d913f98d57fcb68bef6a404804b6e51ae05a6286d8f3d9acfcbe0f90beb957a3b97399ed379cd6eb8f0a202864d6c53ac07a42a6f8d3f98cdc9e2fb09e9977839953b9cd17bcf6cbaf2a000844f625da209aa2461833196c3c7ecf507e795698eb2b6cf0e3e0ac7efe247e1eaf082ddc8d15cc63a564b1030b97ac912dad",
        "hex": "6a20f039ba34a9c15d333e63fd67fdf079843b721ad8298c471aa2a3cc7b523970814db004a55aa01a22c698b399ecbcfe4fd0fef917e3f933d9ad77dc96abcf4a60682496857a803a02e6b893b9cc9cde6ff0ded937c3d913f98d57fcb68bef6a404804b6e51ae05a6286d8f3d9acfcbe0f90beb957a3b97399ed379cd6eb8f0a202864d6c53ac07a42a6f8d3f98cdc9e2fb09e9977839953b9cd17bcf6cbaf2a000844f625da209aa2461833196c3c7ecf507e79976379b3592df75c162b4fcae0e8a41605fa00ba82663813394c1c5eef705e59b7435993790dd77c360b6feac0c88436659a60dae2065873592c7c3e8f103e39d72339f3196db71c566b0f8aa0a8e45645ba40fac2267853790c5c1eaf301e19f70319d3394d973c764b2faa8088c476a55aa01a22c698b399ecbcfe4fd0fef917e3f933d9ad77dc96abcf4a60682496857a803a02e6b893b9cc9cde6ff0ded937c3d913f98d57fcb68bef6a404804b6e51ae05a6286d8f3d9acfcbe0f90beb957a3b97399ed379cd6eb8f0a202864d6c53ac07a42a6f8d3f98cdc9e2fb09e9977839953b9cd17bcf6cbaf2a000844f625da209aa2461833196c3c7ecf507e79976379b3592df75c162b4fcae0e8a41605fa00ba82663813394c1c5eef705e59b7435993790dd77c360b6feac0c88436659a60dae2065873592c7c3e8f103e39d72339f3196db71c566b0f8aa0a8e45645ba40fac2267853790c5c1eaf301e19f70319d3394d973c764b2faa8088c476a55aa01a22c698b399ecbcfe4fd0fef917e3f933d9ad77dc96abcf4a60682496857a803a02e6b893b9cc9cde6ff0ded937c3d913f98d57fcb68bef6a404804b6e51ae05a6286d8f3d9acfcbe0f90beb957a3b97399ed379cd6eb8f0a202864d6c53ac07a42a6f8d3f98cdc9e2fb09e9977839953b9cd17bcf6cbaf2a000844f625da209aa2461833196c3c7ecf507e79976379b3592df75c162b4fcae0e8a41605fa00ba82663813394c1c5eef705e59b7435993790dd77c360b6feac0c88436659a60dae2065873592c7c3e8f103e39d72339f3196db71c566b0f8aa0a8e45645ba40fac2267853790c5c1eaf301e19f70319d3394d973c764b2faa8088c476a55aa01a22c698b399ecbcfe4fd0fef917e3f933d9ad77dc96abcf4a60682496857a803a02e6b893b9cc9cde6ff0ded937c3d913f98d57fcb68bef6a404804b6e51ae05a6286d8f3d9acfcbe0f90beb957a3b97399ed379cd6eb8f0a202864d6c53ac07a42a6f8d3f98cdc9e2fb09e9977839953b9cd17bcf6cbaf2a000844f625da209aa2461833196c3c7ecf507e79976379b3592df75c162b4fcae0e8a41605fa00ba82663813394c1c5eef705e59b7435993790dd77c360b6feac0c88436659a60dae2065873592c7c3e8f103e39d72339f3196db71c566b0f8aa0a8e45645ba40fac2267853790c5c1eaf301e19f70319d3394d973c764b2faa8088c476a55aa01a22c698b399ecbcfe4fd0fef917e3f933d9ad77dc96abcf4a60682496857a803a02e6b893b9cc9cde6ff0ded937c3d913f98d57fcb68bef6a404804b6e51ae05a6286d8f3d9acfcbe0f90beb957a3b97399ed379cd6eb8f0a202864d6c53ac07a42a6f8d3f98cdc9e2fb09e9977839953b9cd17bcf6cbaf2a000844f625da209aa2461833196c3c7ecf507e795698eb2b6cf0e3e0ac7efe247e1eaf082ddc8d15cc63a564b1030b97ac912dad",
        "type": "nulldata"
      }
    },
    {
      "value": 499970.5099,
      "n": 1,
      "scriptPubKey": {
        "asm": "1 31f0198ec56159ef0cbac6d506716a0b63c2547c089c88b2dd3b97d3a661b13e",
        "hex": "512031f0198ec56159ef0cbac6d506716a0b63c2547c089c88b2dd3b97d3a661b13e",
        "reqSigs": 1,
        "type": "witness_v1_scripthash",
        "addresses": [
          "3QJmnh"
        ]
      }
    }
  ],
  "blockhash": "f7496688ea8085f6c88d1199f2534797ba9d5c262af7501e5ddf271dd00b2202",
  "confirmations": 1,
  "time": 1764181480,
  "blocktime": 1764181480
}