{
  "hex": "010000000001010e05e05237a3a10493f632fb5b23998f322d34a16263f0bfb0fc306484e917120000000000feffffff02b0cd76d8782d00002251204a10a6ce05416621e7a91c8918a18bca3ba01a315a3c7b37e1412d241f78da0600e1f50500000000fdd5046a208445da5b2dd9caac603ebd6e62b73c3207542734b7933d582ebaa9a20d12012b4db0042bbf3fa3807fc8dc9a52033736df63b1c6fec4a3c3b45cf08085dd73a76d596c0b9f1f83a05fe8fcba72231716ff4391e6dee483e3947cd0a0a5fd53874d794c6bff7fe3c03f889cda124377769f23f186be84e383f41cb0c0c59d33e72d192c4bdf5fc3e01fa8bcfa32635756bf03d1a69ea4c3a3d43c90e0e5bd13c70d390cab3fbf2300ff485c1ad283b7b65fe331467e44234334dc7000055df327edd9ec8b1f9f0320df687c3af2a397967fc311665e64036314fc5020257dd307cdf9cceb7fff6340bf081c5a92c3f7f61fa371063e046303749c3040451db367ad99accb5fdf43609f283c7ab2e3d7d63f8351261e24432354bc1060653d93478db98c2bbf3fa3807fc8dc9a52033736df63b1c6fec4a3c3b45cf08085dd73a76d596c0b9f1f83a05fe8fcba72231716ff4391e6dee483e3947cd0a0a5fd53874d794c6bff7fe3c03f889cda124377769f23f186be84e383f41cb0c0c59d33e72d192c4bdf5fc3e01fa8bcfa32635756bf03d1a69ea4c3a3d43c90e0e5bd13c70d390cab3fbf2300ff485c1ad283b7b65fe331467e44234334dc7000055df327edd9ec8b1f9f0320df687c3af2a397967fc311665e64036314fc5020257dd307cdf9cceb7fff6340bf081c5a92c3f7f61fa371063e046303749c3040451db367ad99accb5fdf43609f283c7ab2e3d7d63f8351261e24432354bc1060653d93478db98c2bbf3fa3807fc8dc9a52033736df63b1c6fec4a3c3b45cf08085dd73a76d596c0b9f1f83a05fe8fcba72231716ff4391e6dee483e3947cd0a0a5fd53874d794c6bff7fe3c03f889cda124377769f23f186be84e383f41cb0c0c59d33e72d192c4bdf5fc3e01fa8bcfa32635756bf03d1a69ea4c3a3d43c90e0e5bd13c70d390cab3fbf2300ff485c1ad283b7b65fe331467e44234334dc7000055df327edd9ec8b1f9f0320df687c3af2a397967fc311665e64036314fc5020257dd307cdf9cceb7fff6340bf081c5a92c3f7f61fa371063e046303749c3040451db367ad99accb5fdf43609f283c7ab2e3d7d63f8351261e24432354bc1060653d93478db98c2bbf3fa3807fc8dc9a52033736df63b1c6fec4a3c3b45cf08085dd73a76d596c0b9f1f83a05fe8fcba72231716ff4391e6dee483e3947cd0a0a5fd53874d794c6bff7fe3c03f889cda124377769f23f186be84e383f41cb0c0c59d33e72d192c4bdf5fc3e01fa8bcfa32635756bf03d1a69ea4c3a3d43c90e0e5bd13c70d390cab3fbf2300ff485c1ad283b7b65fe331467e44234334dc7000055df327edd9ec8b1f9f0320df687c3af2a397967fc311665e64036314fc5020257dd307cdf9cceb7fff6340bf081c5a92c3f7f61fa371063e046303749c3040451db367ad99accb5fdf43609f283c7ab2e3d7d63f8351261e24432354bc1060653d93478db98c2bbf3fa3807fc8dc9a52033736df63b1c6fec4a3c3b45cf08085dd73a76d596c0b9f1f83a05fe8fcba72231716ff4391e6dee483e3947cd0a0a5fd53874d794c6bff7fe3c03f889cda124377769f23f186be84e383f41cb0c0c59d33e72d192c4bdf5fc3e01fa8bcfa32635756bf03d1a69ea4c3a3d43c90e0e5bd13c70d390cab3fbf2300ff485c1ad283b7b65fe3318aee4f3bcf4b162aba2a8485a8af8756908b7ede3d40009d7b0858d85d3069bd02fd750950cf1debbe2ee7524bd55107b2ccdd574d07adf9e07e2dc3d5f5e9af5b743222b06f5ea7b5011b54014ba1d559f3f0a43e0c3b2b6e264ce9e4f8b46a26001547236845304f9d3216d0caca01bc7bfa98dc265a2ca7773bbb54340acb5c3e2ff1980a0e7d634115c805bac2dc009ded8e0085c8d2d320e39ad51ec687fe56e288b1a690343a106363f85597b751f9f70fa45ef4a69e7ca52e2a1c75ee6f326ba5b75f1591588f5fcd7e51e4a89ea6cdd105f0f01620bd1c4d5d114ed9fd33309a1fe8cd64b793ab787f092ecf50f701d1f306f08619628868f9bae59128adfc9d287366bbc71b07e9b7a5c4a46075985faa5f009c9fdaaaccefcc1188d88f15e888a2797998fd2ec941b441b8c99d7147aa5a5906a13c888a3cf40b7e1f5ad84fc81dccd30da6b9cf78fb5c1238fe586c0c3e8686b04febfee11a126ed9c75927d6848506579efc505df40d0c851d4d7d7be80b5f982a4e727d529894ab50f5df0c626f5403237c3dcb890f6559ef1ae34a3fb854289aa76e260228e633adcb76b98db94e422c3c9996120f01199285c352ce11d508e93b09f553f96ca92a02060a663ae4711da5ba9e864d3907753ab1a6dd08ceb486252a102a24f6766c030508d9b6db81b115f188496c6f356e2174522bd6e1fd2da0b3c5f34e3d5c8a6b7cd951548a951b1098fe26b840dbef5ad709bbe0e6a4801afad2f8b01e713bb29d6ba296db366c9a3e211bf40a963ad8aa13df1ae56179b4fb224af3f4b7bf4a28fb536c0f99fe4753a6fc32e8fd0b469336c9b32d77b860b5b505dc85a6ce228d16196cc079d4e1d36ce6d56f5c37795a53928fc0f6e6c49ec8eae1e8d7c69f8df9991de97527579669a4b548355d661867088e17b133ba9d3bfc733e16ac6faaa5cc1f1126b1c51615abb5871e9c654460c9ba4fcb0558e5f496424958aad2b7ff98af56f9deb5e409815c8f1d10d1f3d56d1f02110c43c1696207c48c51d4f92c31d1303973a1c58b85216e93309589ba14afb12a0cc871dd84a682de6c9b7be3fb6dbb4f91eb1cff63fd4ccf36599ee982d99fd5047bda7603fc528498e449fd576aee99c6e7ef7a85aac0d7c5eb6c80585be1ef1433e5a6004cc690046707c419e00a580f22e871ff911e5db5144e900b78c92183316205fca27ebc94b78a174f401c4f25e6eae4df2310b71391444bd9d6d5bd86592c24fc0b0e55c5ad5b11aa22f3208bf1b85a1b8fcd629987e17b798cd4cd9c753f6a50f0fceff61b6e3b7ec7060da1be032aec233af3d4d62cb10c21c2534f7a945d773279ed0c12c2c629619585438481e0a064826d09551ee8c9ec10d33413b43b9479093eea6d4bc3f8ec5b9c446e110b09b9aac93cf123661f828c846e9a11acaf0e508655294bb9e106f309fac18d65ea73a04822ee1335abef93d8c5f3287535c55c2319a2f3dca4e7c87cfab7205ea1d9aeb8979e239085d43b767b35bc095c84f0929b457b83ef81d4475f41bfde69ef60e035a85949bcaf81a388e645a5c4d169063a1bf02d215955a8f87c5532c3d5cca4cc443810cd82dbd428815deddff0942bafc39e027004bec10613ab134d9e4d93461a3ecddf5fe40c72f866a0b65394b2f7a9c36154066dd4b618a617ef7d2893929c8281573bccba303518807417f3ddcd2b4d51023e67a11fb2cb64c55372496cd2b245615443c7e8b33a226805bcd53e11db7e1d8ae645951ee1bc36226e673ba339fd3220b4f6adf0d0baf04c95889ab1adcf1171fa17b554883216857a319ecb84e71fa8ef252044f6f0a46983b0502bfc9cd0312b6796c549958eb6c7b8e10c62cc6d8e7d954248d07eae8ff13345251b44d20647ba9960b4b49ca303034918d5fb4a8064cbe9a736cf7c44879f7102d0dcdd54c5718214b56d5abeca7eb15a7022ada71e1537f6c5103d64b3465a635e6ae5c378c9ec35d01cff04d5eb15ce1dc56a2f3a858bfcd8135e2ccb9f40e89417f0efe3cc34ef62be2ffdde7f2988e702d0c5a8ccc8bcce5d4e60504ae83247c3eb2c37601156bbf20909d8e3a7f6bb14764283b0be5bbfd73d7b7b80786b2907cbff23cd1b120dbdf71427e0f911c4a064e684c3c7d10199b64f6dd74bc482a57c443dac8841105e1636f98664dfcbfd054f52d5f6578f803218be1cfe6cd07dcc196e3b99c85f31bed394ca7e98aefe0a940f9acd4b7da98c6a54129d7bf550627187bc680ef30f027fdab61423066b616f36515b1586d402368e5821b13ec2d6b97299787bea0d2e01e341da10dd9002cfcbd1dc2f4110b3fa521df943fe07fdd576108096a38b0e40a7a3bd6143df6adc9477991556282a12609fab04387de36a16883a08c858814d00747daee96c2afdb26f452d6d315c564fc6654d77c1b846368dc2b078a589cb0e21d2ca0c405b305e36f1f458094de90b7e8caeaed3ff77cf6025100a5ddba775c9a1b79652baaa99ebe1283387a4cf847dbf737e667bcba814caed4eeabd4c98af054565faad8a65a5fead7d50fe457476d936e55a1b41ba6a3f639cf0b1647ba5a9f6c98e1c7158dbc7284774181ff50badf9532760f595b12b8d62133686f3162a7af845a63ff26a1c808c0b305ece448e8201396ef0724ae3990eb4928a5fc471d32079f8d12e9f05764b95bb5de0ec1f2e9d5d069d3a24b1aa9d58a6d585a8ace4fb6131b238fb35670edee3a602b897f5c4095adba24b1c0679bc9c02042470c0a92d798e02ac00932dd45497403855ae1b634456ce084e7db1c0d18d6e370c95d8c5099c49daf4d327b961f16bbfa8e8c4e8ddd6573b0f0a1a48fc568f7ddc0f25b72ff6bef5f2d7f645fde24aebc94b733638457561ac11d8fe62d4b52fc00132f432fce04d4961120b677805d45255ec6a1ddc522efb4d12343d10b24a5d8a3bb0032dde9ab246e6bd6f60ff38ee1521ddef2385399aadf26d39a1e9eb3363028d3c544141f6c17165606baf2e6f79db2c9912a082cf3d68e21c666b282fc22fcac8bb86c6257b5f61f14f2127b7ad026248a039f4466f4b512e2ee914d0a28eef767092e5ea40205aa06aa3b1dbd9d7168e8fbe5e699b64829e79d557f9cd6098001aa7b998eedff31f0e68bd2d77b70b6cdea6688001da526166ecb9bf7d6ab5612c6fcce23beeb019592d151624d23a483088126f3af53762d66262cbb5f2d8c7c4771d670867725c7ab3c4422df8ddd09832fe295b38e1e97434cb27e773b8451c733b12059dccff5a5c1a607446e1ae2ad3d2a59739f9f05a39f7f5cf88aa19d420faa6fd908ee7d4fd59e7009100020f1019292a2c2e3a3d40475f62656770becce7ecf6191c373b485766797b7da1a3d3001617343b636eb7bff4070f191b2e3c475e62878bb4bbdedff500000000000000000000000000000000000017242e3e01fd2105007f2460210ccd75fcffd7e5329faf4f9b692115c90cc729a9c018941a6fdb1ec7c11055ff545de6bf9c63b787a2afca1456245cd396c21cf8e57ef37b0504b5ceb407190f4ed5237b8fec6e40e7506d9433375575ac5c03116754cbe721c8e0763e378d517ec5577b5db8ec104e477b596b57918c5663f9b2f21cbd691851f1c40e33631a9e7ef23b7f28562eb0223b923aebee44684e12d126abef14873f4719ee812cdbdc10fa3fbc39034b1f234a9a7f5ddf87db82f4db70de2c01808be552b4dbfcba03a4e4ac24329fc7319ac7fe4fa28aaee536b7136228ac74ff10aa1c9d32a6cba2115abff9f7b704f3a9fac71366e7017ecaeb334178cbaa411ddaed252cae676d51109903164603fef850f7c47cf918ab291bb7dda132c3bbfd2bb0e8ff3c7a0e66c948dd3947be8ff892f47046bc1f90924daa1ba9ca34f41f46feb666e507251fa8c949b3045c21e1552a46dd05db886f1cca8e3f65c63799793971dd9ec749bc218100fc10b50017c27a37b890832d4d461006f6336f75f1a9d8e9f1bf93b2750b25a7cab467a4405e387b769a8be3158d8fa6c266476104a05ae3c9eae33c8c020acdfec1c4ff79fea3b953986b1ac342bf8df7d78fd9abbd664dd2a5c58be20e39da963fbefb274e7a688a4a44bfe06a2ac92b2b6e6c7e818c6feee0aa6b2c219fd9ecf608aad07eaeee2f6392f40d26db430992721db5e514cf17ee3feb9625fd8c9f02c6da5ce4559853bba2d44969dde3f93ac776d9db7ded385eb161cb2c5761582c5bebbe32a441bab46275568af8f5ff6cde118ac29ced9cb055115a2eaff660d00a169feb32c8e0b3012d224318f318843175cf5fba9c77556fd8f94127e7e0523fe48fdeca455e86934b782dbf329b5468fb0dedde9d6a7002ec5ca2e8b8c8e0e2ba5800702988942aa1ecdef8d9dd78c42aecf22d5a19226bcb0b9c87b6bbfed9fcc8933f08dc063a0877582039657323600aea9b2570cf386b5c5b14b088c19abab692cccac987035c39956decb41e54a18b29e38dcab4f64f0df605438b99ab41effe2bd94e2d823b887e4643436fba232914cee948acdc74dff52483cd86bbeec9fef9ce51eba5b97fa6b23e713b4e0c85adea6853093dd02587d43473fc3813ece3da4a8886ef230150ca6840215a56e4761aca3a5497811dfd2b3eb3a1998c1988888afdda5883e06698537e6303227ccee31dab95210040ed3c36610071ae9a1d0cd4e637606bc9eaf6d921676a21ff58b70a615e3de5e847aca99472e86fd905810a4eff975461efd17d4ba6485ec7e496c88bfd97ece1dcd87ca4c3d97425a71a58c7d52f4b1b87a8f3fb02e2200cb09e4a4368d398f31d97b40ebe9979e257fd42ba831294db1ab3249570bc76bdcd7af5dd74fe425873d23459ab1740bcc00b6b6c6c4a04629ed0c0b0758d20397c44bfeda806255582de96da9b3818e7a8c05bf2bbb6caeeb560a6f87e894691d8ba8c271c7e556563b8c58e9d5bc9022195bbcc90d7f3cbb01dbecdccb3463c7f4421d505376ea9b1e6b76ae9293bfbefac9a4c27968086a9c9cbc5c9a2f27c1e8342d282143b4d7049a63fc37f1fefb1114c51b99ec2ae3abe22e9e8855adb42ad0b1bcd8710823f37ff23e3f911d4e3b3a52d8326fd2aa59fd0a40b9283e5033eac313fb07a80438fd756caa6f68f00e92e598511fc2c56e84d9e4b0a4ce41d78c22164e15836b378547553f21eaeb929801505338eb375fa9c8694c61e363de3f18f9c561bd0452da77f52f84f6ac48ef52c7b2c8cdca8d4090215ef6a4b086f16c4209eb277c8459d4139c0ed571b8635e0acc850e2dd717662684d222b3d087c000000",
  "txid": "5b5ab05de467ebb88b42a04ec6845bcc9a6462950ed9e75f433fa92e2ad57aef",
  "hash": "06b1294ad9cd17b7295d85eb446c231dee4f787188894efe9c55a2b42649acc3",
  "size": 5085,
  "vsize": 2278,
  "version": 1,
  "locktime": 124,
  "vin": [
    {
      "txid": "1217e9846430fcb0bff06362a1342d328f99235bfb32f69304a1a33752e0050e",
      "vout": 0,
      "scriptSig": {
        "asm": "",
        "hex": ""
      },
      "txinwitness": [
        "50cf1debbe2ee7524bd55107b2ccdd574d07adf9e07e2dc3d5f5e9af5b743222b06f5ea7b5011b54014ba1d559f3f0a43e0c3b2b6e264ce9e4f8b46a26001547236845304f9d3216d0caca01bc7bfa98dc265a2ca7773bbb54340acb5c3e2ff1980a0e7d634115c805bac2dc009ded8e0085c8d2d320e39ad51ec687fe56e288b1a690343a106363f85597b751f9f70fa45ef4a69e7ca52e2a1c75ee6f326ba5b75f1591588f5fcd7e51e4a89ea6cdd105f0f01620bd1c4d5d114ed9fd33309a1fe8cd64b793ab787f092ecf50f701d1f306f08619628868f9bae59128adfc9d287366bbc71b07e9b7a5c4a46075985faa5f009c9fdaaaccefcc1188d88f15e888a2797998fd2ec941b441b8c99d7147aa5a5906a13c888a3cf40b7e1f5ad84fc81dccd30da6b9cf78fb5c1238fe586c0c3e8686b04febfee11a126ed9c75927d6848506579efc505df40d0c851d4d7d7be80b5f982a4e727d529894ab50f5df0c626f5403237c3dcb890f6559ef1ae34a3fb854289aa76e260228e633adcb76b98db94e422c3c9996120f01199285c352ce11d508e93b09f553f96ca92a02060a663ae4711da5ba9e864d3907753ab1a6dd08ceb486252a102a24f6766c030508d9b6db81b115f188496c6f356e2174522bd6e1fd2da0b3c5f34e3d5c8a6b7cd951548a951b1098fe26b840dbef5ad709bbe0e6a4801afad2f8b01e713bb29d6ba296db366c9a3e211bf40a963ad8aa13df1ae56179b4fb224af3f4b7bf4a28fb536c0f99fe4753a6fc32e8fd0b469336c9b32d77b860b5b505dc85a6ce228d16196cc079d4e1d36ce6d56f5c37795a53928fc0f6e6c49ec8eae1e8d7c69f8df9991de97527579669a4b548355d661867088e17b133ba9d3bfc733e16ac6faaa5cc1f1126b1c51615abb5871e9c654460c9ba4fcb0558e5f496424958aad2b7ff98af56f9deb5e409815c8f1d10d1f3d56d1f02110c43c1696207c48c51d4f92c31d1303973a1c58b85216e93309589ba14afb12a0cc871dd84a682de6c9b7be3fb6dbb4f91eb1cff63fd4ccf36599ee982d99fd5047bda7603fc528498e449fd576aee99c6e7ef7a85aac0d7c5eb6c80585be1ef1433e5a6004cc690046707c419e00a580f22e871ff911e5db5144e900b78c92183316205fca27ebc94b78a174f401c4f25e6eae4df2310b71391444bd9d6d5bd86592c24fc0b0e55c5ad5b11aa22f3208bf1b85a1b8fcd629987e17b798cd4cd9c753f6a50f0fceff61b6e3b7ec7060da1be032aec233af3d4d62cb10c21c2534f7a945d773279ed0c12c2c629619585438481e0a064826d09551ee8c9ec10d33413b43b9479093eea6d4bc3f8ec5b9c446e110b09b9aac93cf123661f828c846e9a11acaf0e508655294bb9e106f309fac18d65ea73a04822ee1335abef93d8c5f3287535c55c2319a2f3dca4e7c87cfab7205ea1d9aeb8979e239085d43b767b35bc095c84f0929b457b83ef81d4475f41bfde69ef60e035a85949bcaf81a388e645a5c4d169063a1bf02d215955a8f87c5532c3d5cca4cc443810cd82dbd428815deddff0942bafc39e027004bec10613ab134d9e4d93461a3ecddf5fe40c72f866a0b65394b2f7a9c36154066dd4b618a617ef7d2893929c8281573bccba303518807417f3ddcd2b4d51023e67a11fb2cb64c55372496cd2b245615443c7e8b33a226805bcd53e11db7e1d8ae645951ee1bc36226e673ba339fd3220b4f6adf0d0baf04c95889ab1adcf1171fa17b554883216857a319ecb84e71fa8ef252044f6f0a46983b0502bfc9cd0312b6796c549958eb6c7b8e10c62cc6d8e7d954248d07eae8ff13345251b44d20647ba9960b4b49ca303034918d5fb4a8064cbe9a736cf7c44879f7102d0dcdd54c5718214b56d5abeca7eb15a7022ada71e1537f6c5103d64b3465a635e6ae5c378c9ec35d01cff04d5eb15ce1dc56a2f3a858bfcd8135e2ccb9f40e89417f0efe3cc34ef62be2ffdde7f2988e702d0c5a8ccc8bcce5d4e60504ae83247c3eb2c37601156bbf20909d8e3a7f6bb14764283b0be5bbfd73d7b7b80786b2907cbff23cd1b120dbdf71427e0f911c4a064e684c3c7d10199b64f6dd74bc482a57c443dac8841105e1636f98664dfcbfd054f52d5f6578f803218be1cfe6cd07dcc196e3b99c85f31bed394ca7e98aefe0a940f9acd4b7da98c6a54129d7bf550627187bc680ef30f027fdab61423066b616f36515b1586d402368e5821b13ec2d6b97299787bea0d2e01e341da10dd9002cfcbd1dc2f4110b3fa521df943fe07fdd576108096a38b0e40a7a3bd6143df6adc9477991556282a12609fab04387de36a16883a08c858814d00747daee96c2afdb26f452d6d315c564fc6654d77c1b846368dc2b078a589cb0e21d2ca0c405b305e36f1f458094de90b7e8caeaed3ff77cf6025100a5ddba775c9a1b79652baaa99ebe1283387a4cf847dbf737e667bcba814caed4eeabd4c98af054565faad8a65a5fead7d50fe457476d936e55a1b41ba6a3f639cf0b1647ba5a9f6c98e1c7158dbc7284774181ff50badf9532760f595b12b8d62133686f3162a7af845a63ff26a1c808c0b305ece448e8201396ef0724ae3990eb4928a5fc471d32079f8d12e9f05764b95bb5de0ec1f2e9d5d069d3a24b1aa9d58a6d585a8ace4fb6131b238fb35670edee3a602b897f5c4095adba24b1c0679bc9c02042470c0a92d798e02ac00932dd45497403855ae1b634456ce084e7db1c0d18d6e370c95d8c5099c49daf4d327b961f16bbfa8e8c4e8ddd6573b0f0a1a48fc568f7ddc0f25b72ff6bef5f2d7f645fde24aebc94b733638457561ac11d8fe62d4b52fc00132f432fce04d4961120b677805d45255ec6a1ddc522efb4d12343d10b24a5d8a3bb0032dde9ab246e6bd6f60ff38ee1521ddef2385399aadf26d39a1e9eb3363028d3c544141f6c17165606baf2e6f79db2c9912a082cf3d68e21c666b282fc22fcac8bb86c6257b5f61f14f2127b7ad026248a039f4466f4b512e2ee914d0a28eef767092e5ea40205aa06aa3b1dbd9d7168e8fbe5e699b64829e79d557f9cd6098001aa7b998eedff31f0e68bd2d77b70b6cdea6688001da526166ecb9bf7d6ab5612c6fcce23beeb019592d151624d23a483088126f3af53762d66262cbb5f2d8c7c4771d670867725c7ab3c4422df8ddd09832fe295b38e1e97434cb27e773b8451c733b12059dccff5a5c1a607446e1ae2ad3d2a59739f9f05a39f7f5cf88aa19d420faa6fd908ee7d4fd59e7009100020f1019292a2c2e3a3d40475f62656770becce7ecf6191c373b485766797b7da1a3d3001617343b636eb7bff4070f191b2e3c475e62878bb4bbdedff500000000000000000000000000000000000017242e3e01",
        "007f2460210ccd75fcffd7e5329faf4f9b692115c90cc729a9c018941a6fdb1ec7c11055ff545de6bf9c63b787a2afca1456245cd396c21cf8e57ef37b0504b5ceb407190f4ed5237b8fec6e40e7506d9433375575ac5c03116754cbe721c8e0763e378d517ec5577b5db8ec104e477b596b57918c5663f9b2f21cbd691851f1c40e33631a9e7ef23b7f28562eb0223b923aebee44684e12d126abef14873f4719ee812cdbdc10fa3fbc39034b1f234a9a7f5ddf87db82f4db70de2c01808be552b4dbfcba03a4e4ac24329fc7319ac7fe4fa28aaee536b7136228ac74ff10aa1c9d32a6cba2115abff9f7b704f3a9fac71366e7017ecaeb334178cbaa411ddaed252cae676d51109903164603fef850f7c47cf918ab291bb7dda132c3bbfd2bb0e8ff3c7a0e66c948dd3947be8ff892f47046bc1f90924daa1ba9ca34f41f46feb666e507251fa8c949b3045c21e1552a46dd05db886f1cca8e3f65c63799793971dd9ec749bc218100fc10b50017c27a37b890832d4d461006f6336f75f1a9d8e9f1bf93b2750b25a7cab467a4405e387b769a8be3158d8fa6c266476104a05ae3c9eae33c8c020acdfec1c4ff79fea3b953986b1ac342bf8df7d78fd9abbd664dd2a5c58be20e39da963fbefb274e7a688a4a44bfe06a2ac92b2b6e6c7e818c6feee0aa6b2c219fd9ecf608aad07eaeee2f6392f40d26db430992721db5e514cf17ee3feb9625fd8c9f02c6da5ce4559853bba2d44969dde3f93ac776d9db7ded385eb161cb2c5761582c5bebbe32a441bab46275568af8f5ff6cde118ac29ced9cb055115a2eaff660d00a169feb32c8e0b3012d224318f318843175cf5fba9c77556fd8f94127e7e0523fe48fdeca455e86934b782dbf329b5468fb0dedde9d6a7002ec5ca2e8b8c8e0e2ba5800702988942aa1ecdef8d9dd78c42aecf22d5a19226bcb0b9c87b6bbfed9fcc8933f08dc063a0877582039657323600aea9b2570cf386b5c5b14b088c19abab692cccac987035c39956decb41e54a18b29e38dcab4f64f0df605438b99ab41effe2bd94e2d823b887e4643436fba232914cee948acdc74dff52483cd86bbeec9fef9ce51eba5b97fa6b23e713b4e0c85adea6853093dd02587d43473fc3813ece3da4a8886ef230150ca6840215a56e4761aca3a5497811dfd2b3eb3a1998c1988888afdda5883e06698537e6303227ccee31dab95210040ed3c36610071ae9a1d0cd4e637606bc9eaf6d921676a21ff58b70a615e3de5e847aca99472e86fd905810a4eff975461efd17d4ba6485ec7e496c88bfd97ece1dcd87ca4c3d97425a71a58c7d52f4b1b87a8f3fb02e2200cb09e4a4368d398f31d97b40ebe9979e257fd42ba831294db1ab3249570bc76bdcd7af5dd74fe425873d23459ab1740bcc00b6b6c6c4a04629ed0c0b0758d20397c44bfeda806255582de96da9b3818e7a8c05bf2bbb6caeeb560a6f87e894691d8ba8c271c7e556563b8c58e9d5bc9022195bbcc90d7f3cbb01dbecdccb3463c7f4421d505376ea9b1e6b76ae9293bfbefac9a4c27968086a9c9cbc5c9a2f27c1e8342d282143b4d7049a63fc37f1fefb1114c51b99ec2ae3abe22e9e8855adb42ad0b1bcd8710823f37ff23e3f911d4e3b3a52d8326fd2aa59fd0a40b9283e5033eac313fb07a80438fd756caa6f68f00e92e598511fc2c56e84d9e4b0a4ce41d78c22164e15836b378547553f21eaeb929801505338eb375fa9c8694c61e363de3f18f9c561bd0452da77f52f84f6ac48ef52c7b2c8cdca8d4090215ef6a4b086f16c4209eb277c8459d4139c0ed571b8635e0acc850e2dd717662684d222b3d08"
      ],
      "sequence": 4294967294
    }
  ],
  "vout": [
    {
      "value": 499970.5099,
      "n": 0,
      "scriptPubKey": {
        "asm": "1 4a10a6ce05416621e7a91c8918a18bca3ba01a315a3c7b37e1412d241f78da06",
        "hex": "51204a10a6ce05416621e7a91c8918a18bca3ba01a315a3c7b37e1412d241f78da06",
        "reqSigs": 1,
        "type": "witness_v1_scripthash",
        "addresses": [
          "3QJmnh"
        ]
      }
    },
    {
      "value": 1.0,
      "n": 1,
      "scriptPubKey": {
        "asm": "OP_RETURN 8445da5b2dd9caac603ebd6e62b73c3207542734b7933d582ebaa9a20d12012b 2bbf3fa3807fc8dc9a52033736df63b1c6fec4a3c3b45cf08085dd73a76d596c0b9f1f83a05fe8fcba72231716ff4391e6dee483e3947cd0a0a5fd53874d794c6bff7fe3c03f889cda124377769f23f186be84e383f41cb0c0c59d33e72d192c4bdf5fc3e01fa8bcfa32635756bf03d1a69ea4c3a3d43c90e0e5bd13c70d390cab3fbf2300ff485c1ad283b7b65fe331467e44234334dc7000055df327edd9ec8b1f9f0320df687c3af2a397967fc311665e64036314fc5020257dd307cdf9cceb7fff6340bf081c5a92c3f7f61fa371063e046303749c3040451db367ad99accb5fdf43609f283c7ab2e3d7d63f8351261e24432354bc1060653d93478db98c2bbf3fa3807fc8dc9a52033736df63b1c6fec4a3c3b45cf08085dd73a76d596c0b9f1f83a05fe8fcba72231716ff4391e6dee483e3947cd0a0a5fd53874d794c6bff7fe3c03f889cda124377769f23f186be84e383f41cb0c0c59d33e72d192c4bdf5fc3e01fa8bcfa32635756bf03d1a69ea4c3a3d43c90e0e5bd13c70d390cab3fbf2300ff485c1ad283b7b65fe331467e44234334dc7000055df327edd9ec8b1f9f0320df687c3af2a397967fc311665e64036314fc5020257dd307cdf9cceb7fff6340bf081c5a92c3f7f61fa371063e046303749c3040451db367ad99accb5fdf43609f283c7ab2e3d7d63f8351261e24432354bc1060653d93478db98c2bbf3fa3807fc8dc9a52033736df63b1c6fec4a3c3b45cf08085dd73a76d596c0b9f1f83a05fe8fcba72231716ff4391e6dee483e3947cd0a0a5fd53874d794c6bff7fe3c03f889cda124377769f23f186be84e383f41cb0c0c59d33e72d192c4bdf5fc3e01fa8bcfa32635756bf03d1a69ea4c3a3d43c90e0e5bd13c70d390cab3fbf2300ff485c1ad283b7b65fe331467e44234334dc7000055df327edd9ec8b1f9f0320df687c3af2a397967fc311665e64036314fc5020257dd307cdf9cceb7fff6340bf081c5a92c3f7f61fa371063e046303749c3040451db367ad99accb5fdf43609f283c7ab2e3d7d63f8351261e24432354bc1060653d93478db98c2bbf3fa3807fc8dc9a52033736df63b1c6fec4a3c3b45cf08085dd73a76d596c0b9f1f83a05fe8fcba72231716ff4391e6dee483e3947cd0a0a5fd53874d794c6bff7fe3c03f889cda124377769f23f186be84e383f41cb0c0c59d33e72d192c4bdf5fc3e01fa8bcfa32635756bf03d1a69ea4c3a3d43c90e0e5bd13c70d390cab3fbf2300ff485c1ad283b7b65fe331467e44234334dc7000055df327edd9ec8b1f9f0320df687c3af2a397967fc311665e64036314fc5020257dd307cdf9cceb7fff6340bf081c5a92c3f7f61fa371063e046303749c3040451db367ad99accb5fdf43609f283c7ab2e3d7d63f8351261e24432354bc1060653d93478db98c2bbf3fa3807fc8dc9a52033736df63b1c6fec4a3c3b45cf08085dd73a76d596c0b9f1f83a05fe8fcba72231716ff4391e6dee483e3947cd0a0a5fd53874d794c6bff7fe3c03f889cda124377769f23f186be84e383f41cb0c0c59d33e72d192c4bdf5fc3e01fa8bcfa32635756bf03d1a69ea4c3a3d43c90e0e5bd13c70d390cab3fbf2300ff485c1ad283b7b65fe3318aee4f3bcf4b162aba2a8485a8af8756908b7ede3d40009d7b0858d85d3069bd",
        "hex": "6a208445da5b2dd9caac603ebd6e62b73c3207542734b7933d582ebaa9a20d12012b4db0042bbf3fa3807fc8dc9a52033736df63b1c6fec4a3c3b45cf08085dd73a76d596c0b9f1f83a05fe8fcba72231716ff4391e6dee483e3947cd0a0a5fd53874d794c6bff7fe3c03f889cda124377769f23f186be84e383f41cb0c0c59d33e72d192c4bdf5fc3e01fa8bcfa32635756bf03d1a69ea4c3a3d43c90e0e5bd13c70d390cab3fbf2300ff485c1ad283b7b65fe331467e44234334dc7000055df327edd9ec8b1f9f0320df687c3af2a397967fc311665e64036314fc5020257dd307cdf9cceb7fff6340bf081c5a92c3f7f61fa371063e046303749c3040451db367ad99accb5fdf43609f283c7ab2e3d7d63f8351261e24432354bc1060653d93478db98c2bbf3fa3807fc8dc9a52033736df63b1c6fec4a3c3b45cf08085dd73a76d596c0b9f1f83a05fe8fcba72231716ff4391e6dee483e3947cd0a0a5fd53874d794c6bff7fe3c03f889cda124377769f23f186be84e383f41cb0c0c59d33e72d192c4bdf5fc3e01fa8bcfa32635756bf03d1a69ea4c3a3d43c90e0e5bd13c70d390cab3fbf2300ff485c1ad283b7b65fe331467e44234334dc7000055df327edd9ec8b1f9f0320df687c3af2a397967fc311665e64036314fc5020257dd307cdf9cceb7fff6340bf081c5a92c3f7f61fa371063e046303749c3040451db367ad99accb5fdf43609f283c7ab2e3d7d63f8351261e24432354bc1060653d93478db98c2bbf3fa3807fc8dc9a52033736df63b1c6fec4a3c3b45cf08085dd73a76d596c0b9f1f83a05fe8fcba72231716ff4391e6dee483e3947cd0a0a5fd53874d794c6bff7fe3c03f889cda124377769f23f186be84e383f41cb0c0c59d33e72d192c4bdf5fc3e01fa8bcfa32635756bf03d1a69ea4c3a3d43c90e0e5bd13c70d390cab3fbf2300ff485c1ad283b7b65fe331467e44234334dc7000055df327edd9ec8b1f9f0320df687c3af2a397967fc311665e64036314fc5020257dd307cdf9cceb7fff6340bf081c5a92c3f7f61fa371063e046303749c3040451db367ad99accb5fdf43609f283c7ab2e3d7d63f8351261e24432354bc1060653d93478db98c2bbf3fa3807fc8dc9a52033736df63b1c6fec4a3c3b45cf08085dd73a76d596c0b9f1f83a05fe8fcba72231716ff4391e6dee483e3947cd0a0a5fd53874d794c6bff7fe3c03f889cda124377769f23f186be84e383f41cb0c0c59d33e72d192c4bdf5fc3e01fa8bcfa32635756bf03d1a69ea4c3a3d43c90e0e5bd13c70d390cab3fbf2300ff485c1ad283b7b65fe331467e44234334dc7000055df327edd9ec8b1f9f0320df687c3af2a397967fc311665e64036314fc5020257dd307cdf9cceb7fff6340bf081c5a92c3f7f61fa371063e046303749c3040451db367ad99accb5fdf43609f283c7ab2e3d7d63f8351261e24432354bc1060653d93478db98c2bbf3fa3807fc8dc9a52033736df63b1c6fec4a3c3b45cf08085dd73a76d596c0b9f1f83a05fe8fcba72231716ff4391e6dee483e3947cd0a0a5fd53874d794c6bff7fe3c03f889cda124377769f23f186be84e383f41cb0c0c59d33e72d192c4bdf5fc3e01fa8bcfa32635756bf03d1a69ea4c3a3d43c90e0e5bd13c70d390cab3fbf2300ff485c1ad283b7b65fe3318aee4f3bcf4b162aba2a8485a8af8756908b7ede3d40009d7b0858d85d3069bd",
        "type": "nulldata"
      }
    }
  ],
  "blockhash": "fe93069f37b49cfb15542a42b300d4e9dc573fdbbe6c5d081907ef62d551896a",
  "confirmations": 1,
  "time": 1764180962,
  "blocktime": 1764180962
}