{
  "hex": "0100000000010154478b9a39029237f1f4eb7d99bea99906b625bbc7d7968b0b15f14721d777530000000000feffffff02f020b051792d0000225120952f96027836a385c9e9fb0381a6b33532b6a43c70c7e77f9f3714ae08fc19fd00e1f50500000000fdd5046a20b6bdf81b09eaf0b1dfe49adde022d869937c73a460ddc198743b355f35a3ea514db004df800f972dcfa1e35fcfec10e813fb1602d6f1a59c65db73218424d8c74a8cc9ffa02fb70def81c37fefcc30c833db3622f6d185bc45fb5301a404f8e76aace99fc04fd76d8fe1a31f8fac50a853bb564296b1e5dc259b3361c46498870acc89bfe06ff74dafc1833faf8c7088739b7662b691c5fc05bb1341e444b8a72aeca95f008f17ad4f2163df4f6c9068937b96825671251ce55bf3a104a45847ca0c497f20af378d6f0143ff6f4cb048b35bb6a27651053cc57bd38124847867ea2c691f40cf57ed0f61239f0f2cd028d33bd6c21631655ca51bb3e144e418078a4c093f60ef77cd2f4103bf2f0cf008f31bf6e23611457c853b93c164c43827aa6c29df800f972dcfa1e35fcfec10e813fb1602d6f1a59c65db73218424d8c74a8cc9ffa02fb70def81c37fefcc30c833db3622f6d185bc45fb5301a404f8e76aace99fc04fd76d8fe1a31f8fac50a853bb564296b1e5dc259b3361c46498870acc89bfe06ff74dafc1833faf8c7088739b7662b691c5fc05bb1341e444b8a72aeca95f008f17ad4f2163df4f6c9068937b96825671251ce55bf3a104a45847ca0c497f20af378d6f0143ff6f4cb048b35bb6a27651053cc57bd38124847867ea2c691f40cf57ed0f61239f0f2cd028d33bd6c21631655ca51bb3e144e418078a4c093f60ef77cd2f4103bf2f0cf008f31bf6e23611457c853b93c164c43827aa6c29df800f972dcfa1e35fcfec10e813fb1602d6f1a59c65db73218424d8c74a8cc9ffa02fb70def81c37fefcc30c833db3622f6d185bc45fb5301a404f8e76aace99fc04fd76d8fe1a31f8fac50a853bb564296b1e5dc259b3361c46498870acc89bfe06ff74dafc1833faf8c7088739b7662b691c5fc05bb1341e444b8a72aeca95f008f17ad4f2163df4f6c9068937b96825671251ce55bf3a104a45847ca0c497f20af378d6f0143ff6f4cb048b35bb6a27651053cc57bd38124847867ea2c691f40cf57ed0f61239f0f2cd028d33bd6c21631655ca51bb3e144e418078a4c093f60ef77cd2f4103bf2f0cf008f31bf6e23611457c853b93c164c43827aa6c29df800f972dcfa1e35fcfec10e813fb1602d6f1a59c65db73218424d8c74a8cc9ffa02fb70def81c37fefcc30c833db3622f6d185bc45fb5301a404f8e76aace99fc04fd76d8fe1a31f8fac50a853bb564296b1e5dc259b3361c46498870acc89bfe06ff74dafc1833faf8c7088739b7662b691c5fc05bb1341e444b8a72aeca95f008f17ad4f2163df4f6c9068937b96825671251ce55bf3a104a45847ca0c497f20af378d6f0143ff6f4cb048b35bb6a27651053cc57bd38124847867ea2c691f40cf57ed0f61239f0f2cd028d33bd6c21631655ca51bb3e144e418078a4c093f60ef77cd2f4103bf2f0cf008f31bf6e23611457c853b93c164c43827aa6c29df800f972dcfa1e35fcfec10e813fb1602d6f1a59c65db73218424d8c74a8cc9ffa02fb70def81c37fefcc30c833db3622f6d185bc45fb5301a404f8e76aace99fc04fd76d8fe1a31f8fac50a853bb564296b1e5dc259b3361c46498870acc89bfe06ff74dafc1833faf8c7088739b7662b691c5fc05bb1341e444b8a72aeca95f008f17ad4f2163df4f6c9068937b9601723065930ead9bbc01decbd1bfe9267276350412cf195872dfcaf2fbe1bd4402fd75090c4d9b9747dd8b39bc3191daa2221555b1880074b02b0d6a360c04196130c90232b898af6063c676eac87899c991a3f12e7ec4e46579992a876850195f1b3c44704584e8accd53e3207a48dc910ada4c637a16ed729b94075d97f836274e510d74ed0ad16acff7093f2e623ebbd80218fa847b7fee3b688ed3d5e5222bfba5eabd057a7a3b6658678cef99615d6bed86aec38a9c0cfbdaa354b49b5de0a815e9230db2d9033ad01856b5a92922ef05bc896681134001888364b16551f4f49c04bf0e0b553c5ba81fcde9b2db247e64dcf2f0130c8426af9e15019a82343679557d11478c1e3bd30dee297638ccf2d37475c4d8da8e405191d71224890ba0398e3f101d1001e13b25f2b3befcf402e2e0c38af8cd97aafd014e29bfa638fb81d7fa896658ca2ff3873a9db2805a0acb0a3b2797b831a020fc6838c3dcdcba9b9353d8676bc74d85c3597678b67c3f1df2cd986361149003bb0cf3d74dfb2491d699e0e8132a406509efbdb4d1f888b041bdf50bd2a87e73afb383e45e1e56748f68d3e16bba6b99ee0b0259e95a0c78058e112b0f060f6e22adbc5402772f55c3276acebedc44b228e859ea63eb71eb08bc477255d7944cea00817e092fbd21bcd8afc165228ca55f29f14a69c4cf9793890fedd0e412a03217a84225aace91c67cd32b185d7fa8d7ea2d5d3bd0df96eaba915d804c96aaa79f8ad1c4bad7d79f8d26df9cd4a8e0033b88c3317b0916f567d55ed4b3fcb69b35f2463c0aec23c7fe2730b5b97242453f0e2524b2734c46d5b607f5b0280e2348040f98f8df7d93ada984019096e83d3dcda53bd69915f3213799703c19a978ca959cb2c6686313e08053e278ebd3c3d71e2ddf7ec3ce5025759a5315edbf9ce021834788d62775f422d423d22b4ce97081b70f11b8a74b9c5929bc74c6c96db67ff81472cf19e106644478e2ebb3b1492a422d996c2eb27e97f5b64bbf404c7e9efc9c0e99add0ceeca6e10e23ba8729970cf046a8fac4bc5e0fb6e8c1271601b6ffa0a0489d9929a307ab90ade483314c284d6b15c3ad9d3a720c1bce38808577d3959bbdf62e6fa7053a86921c57d0f2203d222fa885daeec777f35e8af212b94107439fda6b4a8cab53acaaae30a0fab609cb768912b99fcf0d390119efcbb9179baeaa3b78d156a8aad5eba8de36eabc6af869924b392293b0b9e1b9e5434b286e3ce99956e64618bc96efc4ff62d41c8b096ab97c7b969554b71ebbaf183673fd40fcbdf72ecbacbc13d767771ee7da43294e19405a5d66807951334aa87e636b663c626e1a4ac211adf280dc392def0ed8fd405c504a36c7853c7f04528aa13cd46deab5327714e491e4eb2dd9ba59e702f94780f9d1e8aa41ca9dd4f2e71fbfda6d120ad1f42758f5c8853807c7027e9cc24a8cc2e939c07563eedae3776b434b2942cbc9313d19e3c82d899342321c641f668e8c6c50fddd7d104c4f7a2acde9ba14964d98f3de0f03f594a17a31589929d86b922c68a94553670661cd0fe9687f2986a25efef9a04a20fd275c8a8131cd08b29b29a1257c66acea253d7bf4c59b5ce6d40515639add6781e1a0140f2bb662c0fc4a6ee7edc0e7d8a9f6265690faae82d12d89bd1a4fc34ceb3713e23480833d1e9f3823185d9ddfdeb923865190f69847bddf1161804a810552ddb11485049479e1c9eddc9ee898e58dfc5ee63a6d1cce55272a3317037741650c6271a63a9a5ec999a4d12494938563eeac8849ef1257465401cfa57125d418cc9e818c52f4ea2aa6cac4616d2933f91da8f92b6b4611157560433f9098da7ba13b328facdc627e42f86dbaf0feb9ba59d79c051c3cf598351269bd2b880ea5873bd9c9fc328e3167fec1acebe7d73d83eb8c93d28dbdeb9178cd2b5984dbfdd5b748b4db32fa2037329fc376e73865f958d3af4c1ac0f577d7166ae68dbeb2080b9fb806f21477b628b6cb65e3acd4786e4e024650d886d495faf5c3e68da359dfa577a76d37c96d1582e5720fc092e2ecac7b80b494cffb2387a551190df6e855412787fa99277d592b74111a61965a2e94d3c71d6d78904b16bcf4c0974b8eddf0f7673d452ad1df5dac40de23936b6e68940f38d6c6e915d40440920b154a76f2597b9f9fc856ddbec34d9f7bdf9c3171a6e6d1929b327afcb569617fc29210055a0e6ea8f09dc51337b5d48e02e6990d665b4bb398a1c9c3c3e05bd33cd3a74af51311f4b82df5c2536d3d16ec94b79b99a83c6081b74726e20e3e897333ebf9b8d943a3c5cd2bab18a10e6cc12f57f3d79dee34860dad88d40f68e958dcaa4d3f3fe4e38d99efb90c1afe242ab9337ffe9b87cf9d1ae84b2d0b11fb998d530d731f1a09b6b0aa4754d22601abb60dcd6451f28cd917a5e087d3d73f523248ddc547dc26f68800a152e0369a2a87d7654fa456a307eb4d0c2ffc0db8f98a759b658c13476cc553441a78a288ba1459ad62a896f04c17ef8ed2169b4cd31a99e3a62293b31a2520bfee9d03098a0601f05e20e7392bb099a1185c03b7aefb4ad1d8dbdd63d348d5506140f754a4bbef53a6b4c57d6a11bb34bf05f1f6b5a805e20c822f9953e832abc8f50f6a212066c6e834c14905c8e389974b32a227d251bc419764b0db4352d5cd79058bc717495ba43f01062c8d26c09a5534d52d4d9163cf87b6d58606b94393f7f2c776ff342c799e9712f12bd3bbeb03fa4f579575181b218a6fb66a89be82cc8263fec81d9003958bb8aa8c00e1a4a53a0e9d3f97a4df961423d5a6481203e283578ec0857d455c7f76fb15c8dd9e52935130a7b8d4b55e4445c1fe4152ca19e335f02d755a74ab4d6ecf20aa9cfe5025ebb08d221423e90ac1b41a2da51b7182e67818ddb4c0412edf18fa3f8c6efa2ee2c609e0262d96191f4de8e0cd9e04dc9675f06009b80e0d84c7158c47fb9c9ae0898d8bc943fd657a4fc301829061df54afb7ff63cb97f4071a671bcb4ace1bdac9432625beb27bbb0176f732202b28eca94b0369e4fdc67e9cf986f0fb92c123c53e7be88b3c9676e8b9bec409f8d0ec63a32d8346534ff363fe0f4d7b354c653aacf932ba30d8400de6a5250d86e1fdf6753d9de7a07e3048b279b89cba29c8794e3e0706ee7ec02ef74f245c4661200f29f3e4111967562f76480acd6be4c4e4802ee0e3e30abb30dc95fc1bb55fadc9f103be22aa681b23247c89d0b51c88a53dba881995faeca203103bf80b214034a348a1bb1107c29882e594ca9a9aa1b7143702586e5657562cdb606a53209b1678f2183f0ab116191a2b334e818da6abb2ccd6fd3744494d535b82a8a9b3bacee9f1ff202d36373d5f6a6e73888d8f9193b4c2c3d7ea000d3e43494bc6d8daea000000000000000000000000000000000000000000000e1d303a01fd2105005279618b5a8e4d14f7dab3701dfcc49c26e7e897258dfd6ac320c10a24cfa85db5c1da15e0721492a89c9349d085fc162ba47dabe39b37ea9294d6bc869a12a50836395e8615bc22db44945d040a7bbda005b506aa16e1eaa579c8a780fb5cfcd0901e5b5768054b645f56d013fc7a9726cd35009370c76c2df3ebfae60ea8327cc3bb3f20d8fa75738d5b507dac758eac4548bbabe86b4e0bcf676f15b8f72dee78a7111edafe064aabf5ec7d1a9d62a8c12b40d8edd8b12f8bc2aac881d9ae00edbdf2cd3f28881b23336b809645db7eadac2bab3daa849dfd00153e6c8208a449584038a07d44f0fb03a46320f2d8f9cc3e392232c0acdf38602754be1c0d9e8af27feb9a7395088f6eed6d18a90596dd3f587e13696357141ccd4bdff52c6399ae2e63c5611fea699f4fc2e7712c7036a0f54d1b5ea08373f9084ef25022585a7372f006c06edc37738e362b1aec40ce7db3204d18660b1bd5837a4e4709b01c32e616af4fc38f0255122b2a92c69cbb4fbd6a1d05f21a2a76c5fe3cdd06d7b7263c2f50a075b877d49b5d9397007fe15927e29dd891e0efd2b6f7243071f7d67942999b37e5e10e679ec6b8bd8fcf2ddc8a3053b9901b1c74bc0ec1c287351eedbe3922b57042e1db3edcdf361c7ae78f4bc4a02f5a10a659c0cc10a3a433083c936ebfbd3f53b3ed6617da7b317d35971950f9c5e548df34fd43a0a7c4ac4da5ddca79d4131d25d50ac2925fbf4333362b3f9a81d85198ee0a31244f8a3a5c846ac0a32166a4b1141ba6da4db26b13bf329845c5d0a746c59d7b5e3468cb300522a102d30b33ec3811fb16f02a5e840f40785c1f2272f3f95e7482e3c9000759f613b04b58d494f648d6b0900cc65af4b20c04c92c8e9705b50ddbf3854f1665565c6499a4c41f92615d1a195ed54a5808bc0399776fac47477111c64c36a7c5704f2a8e2a63a2c140fbda9d5c21bbb29d8f161420ea8c033df08ed735697d5ffc8258237e75bd4590a2d897634e6b800b7db931b2bd327ab6493cb35965b51fa5774edb21ad1ef5c1fff411ed2de4092c2f46de7923da1010b3fa7ecd588d1f0a79c7e78a70255f50356942f8bf4e27524ca1e46d586b246e74e6e9a9a238b4166408be67abacb7efe5a8f921d5022c89134cba14f36ffc3d69c6298f1e5612c77af8a456b4535f4d955c7a4cd7f426a4207ac47c846a3c2a7ccaf7a8577f329e859a14b10fc4fb2916402b629ef2c1ff3acd875a36b3321197067d011e2ede847fa5d30ec517d395aa95d39f1dcf91da7cb8c421cf8fc2c8b1745dfb7f6d59d93b4f4c9fa0307b4e93175d99ac43d29e31af35f881f376ad83f6b2cfdddd70657ea9be85a16cee0ce12f6789f93ee5c1794bf692bd975a769696431ca45c6b4233f00e857f42b896d132cba1f9c9a415470f8f2305900ecec04d51cd26b6017406ef9bf0bfc4bae0fc7b12fc1a2df304dd02075227fb7371d61b379bd716d015dc908f1339afef9973dae8ed393b8104307b0d0847f57915f2b845938ed2d11c43b89a4ca1e8b96b3c05a87413720b639f4967148fa1d9021def13c06dee089ccb12ea8a683a5bed4d53993dcd7dd69f0d9fd181d21fafac09ade388a2fccd110713e7f6d276dc03d382ea11a2e99501ccb203ddc457eb02ae75e846b65ce719a7e23e5b0a7a33f56cf4d8ec69f3be2f75662a7a8554a9cea616e0e300af61e66dc4eb24a9b851c364633dedd6e8e76dad27860d4c4f4f2b877f79db3f0ad33c3f4becf3337bb909a3da283abf7a94d5697c459b284eeabd0d9a002e7f3dd42f7fa3047b76c2d1d51cbec4b284bb59516057010bf3eda18c3a49430d6b000000",
  "txid": "5b85c86428fb1456c5ac3f9c5fe84874017d1b5ecb8c74e1c864bf5d65c08cdd",
  "hash": "fbf3b8782090ce5e06618bfc9f3548a0571ee6482244a711a16154d79d1fb752",
  "size": 5085,
  "vsize": 2278,
  "version": 1,
  "locktime": 107,
  "vin": [
    {
      "txid": "5377d72147f1150b8b96d7c7bb25b60699a9be997debf4f1379202399a8b4754",
      "vout": 0,
      "scriptSig": {
        "asm": "",
        "hex": ""
      },
      "txinwitness": [
        "0c4d9b9747dd8b39bc3191daa2221555b1880074b02b0d6a360c04196130c90232b898af6063c676eac87899c991a3f12e7ec4e46579992a876850195f1b3c44704584e8accd53e3207a48dc910ada4c637a16ed729b94075d97f836274e510d74ed0ad16acff7093f2e623ebbd80218fa847b7fee3b688ed3d5e5222bfba5eabd057a7a3b6658678cef99615d6bed86aec38a9c0cfbdaa354b49b5de0a815e9230db2d9033ad01856b5a92922ef05bc896681134001888364b16551f4f49c04bf0e0b553c5ba81fcde9b2db247e64dcf2f0130c8426af9e15019a82343679557d11478c1e3bd30dee297638ccf2d37475c4d8da8e405191d71224890ba0398e3f101d1001e13b25f2b3befcf402e2e0c38af8cd97aafd014e29bfa638fb81d7fa896658ca2ff3873a9db2805a0acb0a3b2797b831a020fc6838c3dcdcba9b9353d8676bc74d85c3597678b67c3f1df2cd986361149003bb0cf3d74dfb2491d699e0e8132a406509efbdb4d1f888b041bdf50bd2a87e73afb383e45e1e56748f68d3e16bba6b99ee0b0259e95a0c78058e112b0f060f6e22adbc5402772f55c3276acebedc44b228e859ea63eb71eb08bc477255d7944cea00817e092fbd21bcd8afc165228ca55f29f14a69c4cf9793890fedd0e412a03217a84225aace91c67cd32b185d7fa8d7ea2d5d3bd0df96eaba915d804c96aaa79f8ad1c4bad7d79f8d26df9cd4a8e0033b88c3317b0916f567d55ed4b3fcb69b35f2463c0aec23c7fe2730b5b97242453f0e2524b2734c46d5b607f5b0280e2348040f98f8df7d93ada984019096e83d3dcda53bd69915f3213799703c19a978ca959cb2c6686313e08053e278ebd3c3d71e2ddf7ec3ce5025759a5315edbf9ce021834788d62775f422d423d22b4ce97081b70f11b8a74b9c5929bc74c6c96db67ff81472cf19e106644478e2ebb3b1492a422d996c2eb27e97f5b64bbf404c7e9efc9c0e99add0ceeca6e10e23ba8729970cf046a8fac4bc5e0fb6e8c1271601b6ffa0a0489d9929a307ab90ade483314c284d6b15c3ad9d3a720c1bce38808577d3959bbdf62e6fa7053a86921c57d0f2203d222fa885daeec777f35e8af212b94107439fda6b4a8cab53acaaae30a0fab609cb768912b99fcf0d390119efcbb9179baeaa3b78d156a8aad5eba8de36eabc6af869924b392293b0b9e1b9e5434b286e3ce99956e64618bc96efc4ff62d41c8b096ab97c7b969554b71ebbaf183673fd40fcbdf72ecbacbc13d767771ee7da43294e19405a5d66807951334aa87e636b663c626e1a4ac211adf280dc392def0ed8fd405c504a36c7853c7f04528aa13cd46deab5327714e491e4eb2dd9ba59e702f94780f9d1e8aa41ca9dd4f2e71fbfda6d120ad1f42758f5c8853807c7027e9cc24a8cc2e939c07563eedae3776b434b2942cbc9313d19e3c82d899342321c641f668e8c6c50fddd7d104c4f7a2acde9ba14964d98f3de0f03f594a17a31589929d86b922c68a94553670661cd0fe9687f2986a25efef9a04a20fd275c8a8131cd08b29b29a1257c66acea253d7bf4c59b5ce6d40515639add6781e1a0140f2bb662c0fc4a6ee7edc0e7d8a9f6265690faae82d12d89bd1a4fc34ceb3713e23480833d1e9f3823185d9ddfdeb923865190f69847bddf1161804a810552ddb11485049479e1c9eddc9ee898e58dfc5ee63a6d1cce55272a3317037741650c6271a63a9a5ec999a4d12494938563eeac8849ef1257465401cfa57125d418cc9e818c52f4ea2aa6cac4616d2933f91da8f92b6b4611157560433f9098da7ba13b328facdc627e42f86dbaf0feb9ba59d79c051c3cf598351269bd2b880ea5873bd9c9fc328e3167fec1acebe7d73d83eb8c93d28dbdeb9178cd2b5984dbfdd5b748b4db32fa2037329fc376e73865f958d3af4c1ac0f577d7166ae68dbeb2080b9fb806f21477b628b6cb65e3acd4786e4e024650d886d495faf5c3e68da359dfa577a76d37c96d1582e5720fc092e2ecac7b80b494cffb2387a551190df6e855412787fa99277d592b74111a61965a2e94d3c71d6d78904b16bcf4c0974b8eddf0f7673d452ad1df5dac40de23936b6e68940f38d6c6e915d40440920b154a76f2597b9f9fc856ddbec34d9f7bdf9c3171a6e6d1929b327afcb569617fc29210055a0e6ea8f09dc51337b5d48e02e6990d665b4bb398a1c9c3c3e05bd33cd3a74af51311f4b82df5c2536d3d16ec94b79b99a83c6081b74726e20e3e897333ebf9b8d943a3c5cd2bab18a10e6cc12f57f3d79dee34860dad88d40f68e958dcaa4d3f3fe4e38d99efb90c1afe242ab9337ffe9b87cf9d1ae84b2d0b11fb998d530d731f1a09b6b0aa4754d22601abb60dcd6451f28cd917a5e087d3d73f523248ddc547dc26f68800a152e0369a2a87d7654fa456a307eb4d0c2ffc0db8f98a759b658c13476cc553441a78a288ba1459ad62a896f04c17ef8ed2169b4cd31a99e3a62293b31a2520bfee9d03098a0601f05e20e7392bb099a1185c03b7aefb4ad1d8dbdd63d348d5506140f754a4bbef53a6b4c57d6a11bb34bf05f1f6b5a805e20c822f9953e832abc8f50f6a212066c6e834c14905c8e389974b32a227d251bc419764b0db4352d5cd79058bc717495ba43f01062c8d26c09a5534d52d4d9163cf87b6d58606b94393f7f2c776ff342c799e9712f12bd3bbeb03fa4f579575181b218a6fb66a89be82cc8263fec81d9003958bb8aa8c00e1a4a53a0e9d3f97a4df961423d5a6481203e283578ec0857d455c7f76fb15c8dd9e52935130a7b8d4b55e4445c1fe4152ca19e335f02d755a74ab4d6ecf20aa9cfe5025ebb08d221423e90ac1b41a2da51b7182e67818ddb4c0412edf18fa3f8c6efa2ee2c609e0262d96191f4de8e0cd9e04dc9675f06009b80e0d84c7158c47fb9c9ae0898d8bc943fd657a4fc301829061df54afb7ff63cb97f4071a671bcb4ace1bdac9432625beb27bbb0176f732202b28eca94b0369e4fdc67e9cf986f0fb92c123c53e7be88b3c9676e8b9bec409f8d0ec63a32d8346534ff363fe0f4d7b354c653aacf932ba30d8400de6a5250d86e1fdf6753d9de7a07e3048b279b89cba29c8794e3e0706ee7ec02ef74f245c4661200f29f3e4111967562f76480acd6be4c4e4802ee0e3e30abb30dc95fc1bb55fadc9f103be22aa681b23247c89d0b51c88a53dba881995faeca203103bf80b214034a348a1bb1107c29882e594ca9a9aa1b7143702586e5657562cdb606a53209b1678f2183f0ab116191a2b334e818da6abb2ccd6fd3744494d535b82a8a9b3bacee9f1ff202d36373d5f6a6e73888d8f9193b4c2c3d7ea000d3e43494bc6d8daea000000000000000000000000000000000000000000000e1d303a01",
        "005279618b5a8e4d14f7dab3701dfcc49c26e7e897258dfd6ac320c10a24cfa85db5c1da15e0721492a89c9349d085fc162ba47dabe39b37ea9294d6bc869a12a50836395e8615bc22db44945d040a7bbda005b506aa16e1eaa579c8a780fb5cfcd0901e5b5768054b645f56d013fc7a9726cd35009370c76c2df3ebfae60ea8327cc3bb3f20d8fa75738d5b507dac758eac4548bbabe86b4e0bcf676f15b8f72dee78a7111edafe064aabf5ec7d1a9d62a8c12b40d8edd8b12f8bc2aac881d9ae00edbdf2cd3f28881b23336b809645db7eadac2bab3daa849dfd00153e6c8208a449584038a07d44f0fb03a46320f2d8f9cc3e392232c0acdf38602754be1c0d9e8af27feb9a7395088f6eed6d18a90596dd3f587e13696357141ccd4bdff52c6399ae2e63c5611fea699f4fc2e7712c7036a0f54d1b5ea08373f9084ef25022585a7372f006c06edc37738e362b1aec40ce7db3204d18660b1bd5837a4e4709b01c32e616af4fc38f0255122b2a92c69cbb4fbd6a1d05f21a2a76c5fe3cdd06d7b7263c2f50a075b877d49b5d9397007fe15927e29dd891e0efd2b6f7243071f7d67942999b37e5e10e679ec6b8bd8fcf2ddc8a3053b9901b1c74bc0ec1c287351eedbe3922b57042e1db3edcdf361c7ae78f4bc4a02f5a10a659c0cc10a3a433083c936ebfbd3f53b3ed6617da7b317d35971950f9c5e548df34fd43a0a7c4ac4da5ddca79d4131d25d50ac2925fbf4333362b3f9a81d85198ee0a31244f8a3a5c846ac0a32166a4b1141ba6da4db26b13bf329845c5d0a746c59d7b5e3468cb300522a102d30b33ec3811fb16f02a5e840f40785c1f2272f3f95e7482e3c9000759f613b04b58d494f648d6b0900cc65af4b20c04c92c8e9705b50ddbf3854f1665565c6499a4c41f92615d1a195ed54a5808bc0399776fac47477111c64c36a7c5704f2a8e2a63a2c140fbda9d5c21bbb29d8f161420ea8c033df08ed735697d5ffc8258237e75bd4590a2d897634e6b800b7db931b2bd327ab6493cb35965b51fa5774edb21ad1ef5c1fff411ed2de4092c2f46de7923da1010b3fa7ecd588d1f0a79c7e78a70255f50356942f8bf4e27524ca1e46d586b246e74e6e9a9a238b4166408be67abacb7efe5a8f921d5022c89134cba14f36ffc3d69c6298f1e5612c77af8a456b4535f4d955c7a4cd7f426a4207ac47c846a3c2a7ccaf7a8577f329e859a14b10fc4fb2916402b629ef2c1ff3acd875a36b3321197067d011e2ede847fa5d30ec517d395aa95d39f1dcf91da7cb8c421cf8fc2c8b1745dfb7f6d59d93b4f4c9fa0307b4e93175d99ac43d29e31af35f881f376ad83f6b2cfdddd70657ea9be85a16cee0ce12f6789f93ee5c1794bf692bd975a769696431ca45c6b4233f00e857f42b896d132cba1f9c9a415470f8f2305900ecec04d51cd26b6017406ef9bf0bfc4bae0fc7b12fc1a2df304dd02075227fb7371d61b379bd716d015dc908f1339afef9973dae8ed393b8104307b0d0847f57915f2b845938ed2d11c43b89a4ca1e8b96b3c05a87413720b639f4967148fa1d9021def13c06dee089ccb12ea8a683a5bed4d53993dcd7dd69f0d9fd181d21fafac09ade388a2fccd110713e7f6d276dc03d382ea11a2e99501ccb203ddc457eb02ae75e846b65ce719a7e23e5b0a7a33f56cf4d8ec69f3be2f75662a7a8554a9cea616e0e300af61e66dc4eb24a9b851c364633dedd6e8e76dad27860d4c4f4f2b877f79db3f0ad33c3f4becf3337bb909a3da283abf7a94d5697c459b284eeabd0d9a002e7f3dd42f7fa3047b76c2d1d51cbec4b284bb59516057010bf3eda18c3a49430d"
      ],
      "sequence": 4294967294
    }
  ],
  "vout": [
    {
      "value": 499990.8479,
      "n": 0,
      "scriptPubKey": {
        "asm": "1 952f96027836a385c9e9fb0381a6b33532b6a43c70c7e77f9f3714ae08fc19fd",
        "hex": "5120952f96027836a385c9e9fb0381a6b33532b6a43c70c7e77f9f3714ae08fc19fd",
        "reqSigs": 1,
        "type": "witness_v1_scripthash",
        "addresses": [
          "3QJmnh"
        ]
      }
    },
    {
      "value": 1.0,
      "n": 1,
      "scriptPubKey": {
        "asm": "OP_RETURN b6bdf81b09eaf0b1dfe49adde022d869937c73a460ddc198743b355f35a3ea51 df800f972dcfa1e35fcfec10e813fb1602d6f1a59c65db73218424d8c74a8cc9ffa02fb70def81c37fefcc30c833db3622f6d185bc45fb5301a404f8e76aace99fc04fd76d8fe1a31f8fac50a853bb564296b1e5dc259b3361c46498870acc89bfe06ff74dafc1833faf8c7088739b7662b691c5fc05bb1341e444b8a72aeca95f008f17ad4f2163df4f6c9068937b96825671251ce55bf3a104a45847ca0c497f20af378d6f0143ff6f4cb048b35bb6a27651053cc57bd38124847867ea2c691f40cf57ed0f61239f0f2cd028d33bd6c21631655ca51bb3e144e418078a4c093f60ef77cd2f4103bf2f0cf008f31bf6e23611457c853b93c164c43827aa6c29df800f972dcfa1e35fcfec10e813fb1602d6f1a59c65db73218424d8c74a8cc9ffa02fb70def81c37fefcc30c833db3622f6d185bc45fb5301a404f8e76aace99fc04fd76d8fe1a31f8fac50a853bb564296b1e5dc259b3361c46498870acc89bfe06ff74dafc1833faf8c7088739b7662b691c5fc05bb1341e444b8a72aeca95f008f17ad4f2163df4f6c9068937b96825671251ce55bf3a104a45847ca0c497f20af378d6f0143ff6f4cb048b35bb6a27651053cc57bd38124847867ea2c691f40cf57ed0f61239f0f2cd028d33bd6c21631655ca51bb3e144e418078a4c093f60ef77cd2f4103bf2f0cf008f31bf6e23611457c853b93c164c43827aa6c29df800f972dcfa1e35fcfec10e813fb1602d6f1a59c65db73218424d8c74a8cc9ffa02fb70def81c37fefcc30c833db3622f6d185bc45fb5301a404f8e76aace99fc04fd76d8fe1a31f8fac50a853bb564296b1e5dc259b3361c46498870acc89bfe06ff74dafc1833faf8c7088739b7662b691c5fc05bb1341e444b8a72aeca95f008f17ad4f2163df4f6c9068937b96825671251ce55bf3a104a45847ca0c497f20af378d6f0143ff6f4cb048b35bb6a27651053cc57bd38124847867ea2c691f40cf57ed0f61239f0f2cd028d33bd6c21631655ca51bb3e144e418078a4c093f60ef77cd2f4103bf2f0cf008f31bf6e23611457c853b93c164c43827aa6c29df800f972dcfa1e35fcfec10e813fb1602d6f1a59c65db73218424d8c74a8cc9ffa02fb70def81c37fefcc30c833db3622f6d185bc45fb5301a404f8e76aace99fc04fd76d8fe1a31f8fac50a853bb564296b1e5dc259b3361c46498870acc89bfe06ff74dafc1833faf8c7088739b7662b691c5fc05bb1341e444b8a72aeca95f008f17ad4f2163df4f6c9068937b96825671251ce55bf3a104a45847ca0c497f20af378d6f0143ff6f4cb048b35bb6a27651053cc57bd38124847867ea2c691f40cf57ed0f61239f0f2cd028d33bd6c21631655ca51bb3e144e418078a4c093f60ef77cd2f4103bf2f0cf008f31bf6e23611457c853b93c164c43827aa6c29df800f972dcfa1e35fcfec10e813fb1602d6f1a59c65db73218424d8c74a8cc9ffa02fb70def81c37fefcc30c833db3622f6d185bc45fb5301a404f8e76aace99fc04fd76d8fe1a31f8fac50a853bb564296b1e5dc259b3361c46498870acc89bfe06ff74dafc1833faf8c7088739b7662b691c5fc05bb1341e444b8a72aeca95f008f17ad4f2163df4f6c9068937b9601723065930ead9bbc01decbd1bfe9267276350412cf195872dfcaf2fbe1bd44",
        "hex": "6a20b6bdf81b09eaf0b1dfe49adde022d869937c73a460ddc198743b355f35a3ea514db004df800f972dcfa1e35fcfec10e813fb1602d6f1a59c65db73218424d8c74a8cc9ffa02fb70def81c37fefcc30c833db3622f6d185bc45fb5301a404f8e76aace99fc04fd76d8fe1a31f8fac50a853bb564296b1e5dc259b3361c46498870acc89bfe06ff74dafc1833faf8c7088739b7662b691c5fc05bb1341e444b8a72aeca95f008f17ad4f2163df4f6c9068937b96825671251ce55bf3a104a45847ca0c497f20af378d6f0143ff6f4cb048b35bb6a27651053cc57bd38124847867ea2c691f40cf57ed0f61239f0f2cd028d33bd6c21631655ca51bb3e144e418078a4c093f60ef77cd2f4103bf2f0cf008f31bf6e23611457c853b93c164c43827aa6c29df800f972dcfa1e35fcfec10e813fb1602d6f1a59c65db73218424d8c74a8cc9ffa02fb70def81c37fefcc30c833db3622f6d185bc45fb5301a404f8e76aace99fc04fd76d8fe1a31f8fac50a853bb564296b1e5dc259b3361c46498870acc89bfe06ff74dafc1833faf8c7088739b7662b691c5fc05bb1341e444b8a72aeca95f008f17ad4f2163df4f6c9068937b96825671251ce55bf3a104a45847ca0c497f20af378d6f0143ff6f4cb048b35bb6a27651053cc57bd38124847867ea2c691f40cf57ed0f61239f0f2cd028d33bd6c21631655ca51bb3e144e418078a4c093f60ef77cd2f4103bf2f0cf008f31bf6e23611457c853b93c164c43827aa6c29df800f972dcfa1e35fcfec10e813fb1602d6f1a59c65db73218424d8c74a8cc9ffa02fb70def81c37fefcc30c833db3622f6d185bc45fb5301a404f8e76aace99fc04fd76d8fe1a31f8fac50a853bb564296b1e5dc259b3361c46498870acc89bfe06ff74dafc1833faf8c7088739b7662b691c5fc05bb1341e444b8a72aeca95f008f17ad4f2163df4f6c9068937b96825671251ce55bf3a104a45847ca0c497f20af378d6f0143ff6f4cb048b35bb6a27651053cc57bd38124847867ea2c691f40cf57ed0f61239f0f2cd028d33bd6c21631655ca51bb3e144e418078a4c093f60ef77cd2f4103bf2f0cf008f31bf6e23611457c853b93c164c43827aa6c29df800f972dcfa1e35fcfec10e813fb1602d6f1a59c65db73218424d8c74a8cc9ffa02fb70def81c37fefcc30c833db3622f6d185bc45fb5301a404f8e76aace99fc04fd76d8fe1a31f8fac50a853bb564296b1e5dc259b3361c46498870acc89bfe06ff74dafc1833faf8c7088739b7662b691c5fc05bb1341e444b8a72aeca95f008f17ad4f2163df4f6c9068937b96825671251ce55bf3a104a45847ca0c497f20af378d6f0143ff6f4cb048b35bb6a27651053cc57bd38124847867ea2c691f40cf57ed0f61239f0f2cd028d33bd6c21631655ca51bb3e144e418078a4c093f60ef77cd2f4103bf2f0cf008f31bf6e23611457c853b93c164c43827aa6c29df800f972dcfa1e35fcfec10e813fb1602d6f1a59c65db73218424d8c74a8cc9ffa02fb70def81c37fefcc30c833db3622f6d185bc45fb5301a404f8e76aace99fc04fd76d8fe1a31f8fac50a853bb564296b1e5dc259b3361c46498870acc89bfe06ff74dafc1833faf8c7088739b7662b691c5fc05bb1341e444b8a72aeca95f008f17ad4f2163df4f6c9068937b9601723065930ead9bbc01decbd1bfe9267276350412cf195872dfcaf2fbe1bd44",
        "type": "nulldata"
      }
    }
  ],
  "blockhash": "70f7ec20af3843e0d144de9ce3637c8baa62723aad58289fd59c71fdb9075fdf",
  "confirmations": 1,
  "time": 1764177228,
  "blocktime": 1764177228
}