{
  "hex": "01000000000101f7f149e206fe86e1c280c68f981283db3abecb2a6aecf8877a567a2beec8a2c70100000000feffffff02a020df63792d0000225120acf4366886967c2ed4d744dcb7cf2368ba20d8bba333b99602f9276f83d4ab3c00e1f50500000000fdd5046a20722b8b36aae546d5e0252e4b3ae20a36677f4bf3b8915256ffecf9e1b9912d1a4db0042750fb4661468fbc937caffed491a6646c42dd27a2d116900730e6c4a9f5fd8e0770db664166af9cb35c8fdef4b186444c62fd0782f136b02710c6e489d5ddae6710bb062106cffcd33cefbe94d1e6242c029d67e29156d04770a684e9b5bdce47309b260126efdcf31ccf9eb4f1c6040c22bd47c2b176f0675086a4c9959deea7d07bc6e1c60f3c13fc2f7e541126e4ecc25da72251961087b0664429757d0e87f05be6c1e62f1c33dc0f5e743106c4cce27d870271b630a790466409555d2ee7903b86a1864f7c53bc6f3e145166a4ac821de76211d650c7f0260469353d4ec7b01ba681a66f5c739c4f1e347146848ca23dc74231f670e7d0062449151d6e2750fb4661468fbc937caffed491a6646c42dd27a2d116900730e6c4a9f5fd8e0770db664166af9cb35c8fdef4b186444c62fd0782f136b02710c6e489d5ddae6710bb062106cffcd33cefbe94d1e6242c029d67e29156d04770a684e9b5bdce47309b260126efdcf31ccf9eb4f1c6040c22bd47c2b176f0675086a4c9959deea7d07bc6e1c60f3c13fc2f7e541126e4ecc25da72251961087b0664429757d0e87f05be6c1e62f1c33dc0f5e743106c4cce27d870271b630a790466409555d2ee7903b86a1864f7c53bc6f3e145166a4ac821de76211d650c7f0260469353d4ec7b01ba681a66f5c739c4f1e347146848ca23dc74231f670e7d0062449151d6e2750fb4661468fbc937caffed491a6646c42dd27a2d116900730e6c4a9f5fd8e0770db664166af9cb35c8fdef4b186444c62fd0782f136b02710c6e489d5ddae6710bb062106cffcd33cefbe94d1e6242c029d67e29156d04770a684e9b5bdce47309b260126efdcf31ccf9eb4f1c6040c22bd47c2b176f0675086a4c9959deea7d07bc6e1c60f3c13fc2f7e541126e4ecc25da72251961087b0664429757d0e87f05be6c1e62f1c33dc0f5e743106c4cce27d870271b630a790466409555d2ee7903b86a1864f7c53bc6f3e145166a4ac821de76211d650c7f0260469353d4ec7b01ba681a66f5c739c4f1e347146848ca23dc74231f670e7d0062449151d6e2750fb4661468fbc937caffed491a6646c42dd27a2d116900730e6c4a9f5fd8e0770db664166af9cb35c8fdef4b186444c62fd0782f136b02710c6e489d5ddae6710bb062106cffcd33cefbe94d1e6242c029d67e29156d04770a684e9b5bdce47309b260126efdcf31ccf9eb4f1c6040c22bd47c2b176f0675086a4c9959deea7d07bc6e1c60f3c13fc2f7e541126e4ecc25da72251961087b0664429757d0e87f05be6c1e62f1c33dc0f5e743106c4cce27d870271b630a790466409555d2ee7903b86a1864f7c53bc6f3e145166a4ac821de76211d650c7f0260469353d4ec7b01ba681a66f5c739c4f1e347146848ca23dc74231f670e7d0062449151d6e2750fb4661468fbc937caffed491a6646c42dd27a2d116900730e6c4a9f5fd8e0770db664166af9cb35c8fdef4b186444c62fd0782f136b02710c6e489d5ddae6710bb062106cffcd33cefbe94d1e6242c029d67e29156d04770a684e9b5bdce47309b260126efdcf31ccf9eb4f1c6040c22bd47c2b176f0675086a4c9959deea7d07bc6e1c60f3c13fc2f7e541126e42a7f56bf56fc14b27fab7fa06eadb83570b871f04486f25ccdd55e9b8323486d02fd7509374439a40ee3ec3dc50e0a98dc478c6802b34ebd22f1fec2577016ef5ca3af9b442013c5a0ce5fea248ecd76cde8d17553238167be2f212d0ac703fbcd40a1dab6d9119870c6dc94d92160685e2c2fe57889c5e60c3967fa4e0097333623dfbf66d9ac5a413df3c8fc976b3fa1e027f10ee2468367bd9a12cf3c6280aee99bd9512fa91661254e4b8b8ddb75d666046f79a65c87c3b50ff1a769a7ba62aaaf446be868f5b4c090d963958d4ae2d92e3b0c25bf4539b3eb3f6330ccb5aaaeb47de8576512ac4c7c80d935c19b6e7157ae793567e1923bf1a3b01c5fd9166b954efc8e9d0d39287620a6bd06363fe1639674a27b96b0486499e1b03f284072b6bc5f1767009e18b1fbb9e842f0321c6df05eefc7b04384bfd9b260063ad5c10ed4fe4fe34a51776d8140846294329f63edaef691da1ac529689c37a7d5de7b94d09ca1213f9d50f088c7d825f185cae698b4da10dffc31a70a41cdfd702455482b65643e960f0d0e11dd18c24d68a5117a91aca361be63b85b7c01ecb6f9a8831481600d6a5fbadbb12209d5ae7f09960b4f5b4d2bb68264da502af1ef624318406245c74be93235c994e4a92632f5c4b5de1d0fbd25210697959d7f79e3efbcca1a93b0089d1051d58ed4a9feaaf36a2a0bd6907007e4bf0cc2d539ef4c98239b482f87a7b2513c2a9c5eabb87b5878bb8a5ca9be8b10bf4593a52f0657b2da5a97fcc1e204412a174176e7226814f4f91d5cf6d980ff99afcd00c05a1c77b2833a209e2ade64e735bc8e2d736c17996ffd6b3e293c514b319633e6df017cbc47d7571a2dfcce05b7c9a1919e0d863c5dd543c70f6b3cc351317395d00ac8ab73850b29f403e421b70e882e5d1117766ca170717c05e2aad7479a5f240921648941696cfa03a067554864ea9fec6751190db5d83a42eeda32ab1869fe5325f4c3aa26c318d91f15eac8eb098b96ca8dac478d6398726d2c6e18824a77afca928d6f0436222c76e46dabb244099cb2af016e98d8f45c1af0833419acbca787e6cb447c6c88ad666bc7b63d987d500fb5287463bea9c432e055f0a80a2700535078a4b6773b961f4027df9008e65154f45706af13e7dbf5bc0b255dea3c0f5e38e8f31e6a99db26138afc8eca9608f21eeb650fa371c8e68a7ee0655431de195a55f165f8a9f38ada0ab7e3a2b7e9f423d0ce07a96da5f1ae22f9762d58a11d6e414602a32d36827f06465515c81413638fbdec85d67b0445224a329f252df9c904dd901025f48a6a67fb2f48edf4f8865b8606aac769bc96baf20629dd48a237ad7c5ded73a70a0ad817f12354b4364e38b851d19cb67b91f05f1bf736034db8d0c3827fc30999eb842cae608f50683cd0e2a80df9d4ccb34f5b5acd1ef83026557ba4ac65a1ca4f09b92b81c2b397bf23814fa39189b385cd40f56e66cc97983e4ff56639e60f1dc16a0f28557e7db412c085e32de4acc17c645f1b66d9e76c488effab4aa82f82e7095dc13da62b04e25f6949208a5382964d0faa8dda0e6a6e008834597d350caf55de02977673d296c809d906a8de080e0f71145882b279a073e9aaa56ea26b8cfbfc986dd9130ebe83d0b71db173f0848869d08018de145751a4ff1d65040128301affcc7f2ed28da0ef6f3b1c374fe23546c423b946e3f0b55f648eb1e224eeb6357c1e9cdbe07a095bff733d1db4424b78d8e081f67d8435bb4b486a4e030a10ca4adef9921c939b95b5c041697b2395c8dd0e1a6375323aadb6155e4cad15b8b7d6cf9866b506b1b4dff4c15fb3a6ffb6b2597d8f8257ef07e236028afea53d28d222e667ae532e2091dbe09ff94573d175465b41a5f09815135a42ea589bc5e4c7e5cb0188379deecd3d2f182d79eeba706b501a39bbbad5218ee7f1e8d84c147bc599910372af755648f15dd698a57ecc446c228f96a5f58f88f187cbb8b06ec6b3b2b52bb1b2f2ab64fb47c6731baab406c8322ac8d086e3167d30f3523acb8644491295233cff2f3a5a2354a0a63cab60440d7fe825b4ebd9f4a13ff63b3565c1e37dc8a2ebd50a27e338d906edae760d53688e20862664d389844fdbe010aad36626c151b93d3b622ea2fc998eeea6004c1644ae67cfc28e5ee1cdc0a59d2304f53ab29f8aef3d05be0f664d67a4f0951dc0bd504372f51a173bd8f10d8505d802684630515dd8d4b45878f4c236fe32af3998db2007adc98649c8c169a303c3c65d2a6fe41363b475d29554cf9ed4c61d50004942a9418fc9d117703b5ab91f2e7fdaf4caeae0230ec7b85b8c8464d4a0cc650cda63fe2d1ce5b4d5646ee2eccab356c08862072f9bf0b7c0a60bffbf42ee7fc1cebd1e18797d7cb13ac0ba4b4fe828a3e664d9dc150faffd6a03e65175d95fc96d2f83a93faf54c3023ebd39fb9e68f51a583049d0a712659e7dc568f2c8c5ac78a05f4059c3022bc7da5eb7b356e987165c92bf48c19df7093e384bbf70363ce5c9864eb99500553b183a20d012dd239ba71452e1ba650987a52b46a01a55551d6f4d0c7bff92d2128ab48e676b35c874a7f069b57580fd83525bd4e54db7f8ba1ee76a4dfd4886ede82e989950832d5aa6a2fb5168d6feaf904c8d1de4fc5853e44f7c38564b69322178ac257104e275ce25c620662ae43198c2bf0a4308bb0734e8524b9aeb5dac992c6413636c184bb83f5ec91957d377cd5bf9b9fa8b05ee73e65bd9cf23d0d6f412b20a6fb5749e61e0122a8b53561b9dce62a90e376415528d6467b5b193c68e693767302e499f34fe564eafb62ab020472c546c20025315ecb418a0072a978e453ef762af40809f8fee0745e365ccd187013fea2b905a5967024ff9826724c487e214b69ca63bd5210b817a9f86712adf2c12379e08f7da956c353c7b08268d87f5f52c273a57747d8c35f3bfb31928e081740ac78abfd8022b8a55c18b1ad38875157624bb80cae42122703cc122c723fe33d0e4e008b22e2b60abe5abef7de00e4a6e965b2c5c9c1e615832f96f100f9dfe09039056e9a4d5cb3a250c745bf5960bd357d762c0ebae46faa67010893393b7a05e8a46349a7338de32a264ce1fdc3053bb206e644a14310a062490325bbf191a5e797c5360860d79601c71f10a62e20cafa69c678a7891dcb61da7fcb957f97c3cc342bb62c37b08c84e211f77cfe9697020a60f92ea3881a29489c318d064797679fbea06218d4c7664a44904805a1dda8979d71b134bb61a8055b263267b9a5832b8901e93b3d228030f036868490ce83535195d13b84c60af69c88207b480d8181b2a383c556c757a7f8192a4b4c6e1f9030e2c3537494a4f6073777a7c8c92969abcc0dc21444e53555e65757c7f93abaeb1b2d0e6f0242933363d3e797d7f858ea1b2c6e7f0f20000000000000000001024364701fd2105003b0ca40fdd61ce3672f5267aa44231e3450c89fe2aa57c7336d9d3466e0bc50e7b83e61da22a56fbd788392ec1f240fef0968a3a786f039fe17ac4b51e42a5b0cfc0d7087ccf9e2dbaabb8e1625525af7c5d9822385722bcf09163b5a17b612ce2a211852b8f45b65b389647da6e0ad19da75759110445392d046ebf35891807e5fefb968f819a11d8e3d4398c4fc1652eb9319be1dc343f411aececf429ea2266cc93ae925c187d2f2e12c409d379e729ec0b7814a1a85664dd63cedb45b1d65322ed5fe9c8063e2048eaa4422efda85fe2d87cc447beb4939baa60d0b557dbbd0df31bd78aa3f8fef545d45d86042f2cab8e776f4518e27e138e5475be69f5bdef43860587fb8eb65c716be2149f934645ecf9b5392c06f8697fb9eea7f2263ba812344522e3888cdae2b52614732adb5536cc8667afd7e8c033aa1efa7480dbb5f322bcb0cf449025fc4ee1f16f4a1785af069c29ef34b1630e247619fca2e81ba7da8a8a18f90aa2e32e2fece760878eca98bb89ba89920a3b8229ba90f73c617e66c8c1d211cb47c6bdbd320ec9812de799fd344130932946b33d3f4711560073932d7c493f900574a652f842d469c9d662d6470a890bf74bb3279a646a0265d6e3df3e2b61e9c4f204507e89fda05f298e64f290a5a81b86c0131a83f82f7a8af40aa0099666346610b9666f9681d9993b21c844c46fb54f9da21dc216ff393f09cae8a2e17c5a1e7d853aa530f335aca880e959cd26523a3c62424a150352806043eb667f25d6895cc14712da246ab270f4e2e5d224004dd85edf4d82201dd8ee5f566f6ce1fcdd0519e344a641f4596170f47fb891f8240494b1da7dc191c81594a3816dc8e33e531804b02b3cd16d962b76798d05c06f49dc79e80189f05ec29de95c17c4bbeec970cbb07168636b938a5722fd0d723319c2cd3eb387f77f6aec3f980d08c036684bddd9fe4a3171fa6ff0191a539d9689ec95c6cefdd1bc5a2a768a457872e03795ffb1362a191f5896bfa89ecd4df0eb9900981adf6939df4ba2cfe31470df1fb98afe9c317fc756565636ac1179b89cb5588661af4dd711aa1224b55017ec00a340992b7ce577d1cb726bb9a9cde425c9e4ec38e2a05815e96de75769cdc920e679028309b0b2ffab74249c69a645c66a1ab56caffb7c189e9b6db099038f89ab61abb9f1067c130a820ff4b7910387b9a2a0b9116d1ab1317aeb3fe958d536aa01286c0e45ad0831a5c55611d19f791c61c3105ddd941ee1adfccf1174a61c123bfe5b44f4066553cda0d74958e2619f51bce581fe5a8adcf224f87a93587a769a1f2f744c739bc620a67b4b0dce222bb3c62391ceb0c5283afcc17a7eac499da82e78159f930e5b92e96d5b12d505c4adef01f9d4c61e8a1ef973419f16eaae78ecaae710d4d6b956964583bc1d01cf9db5d27726cfe042ffecb370d027a6f670089cbf004cce5bedd2b6b85ba25082873cd3abb88a049eaca457f6c120f4165e41de4e2209107acbb4049732ae8d3f3298eb0355f415b3ce15498d2298e3aff2b523709f51fd29abe9c53230bd27bde0f73667dd957b59b8810ea72bd461a55e388f86c96340939b02d8dcd4e72fae2668858ddf2b3a9a498b8a0adffa380d564db7a34bd29522a8eeb65436030efc00810e417b5aefebdc3ef190177a88447e7e9e322c96eaebab7b0904e2542df26cf6ad9e18ca14858f69640770b65c9b659578cf73c2d57658f3cd1ade01b59bcb20de08cdfd820022d63d2f3105ba4aaa42c753487caebdc8ad21fb351991044cf31aead7da0fcf781d6c7172532386605c483db8752b8264815c9fc456afb4d5c3bb68000000",
  "txid": "53b2c3a91f741dd85bd69cadf624e6ce357248c2a953930fd45b9688bf5fc5db",
  "hash": "8eb9f6f7280433188b9decf7720b631f7866589b37e5fec0bc255a4c05701046",
  "size": 5085,
  "vsize": 2278,
  "version": 1,
  "locktime": 104,
  "vin": [
    {
      "txid": "c7a2c8ee2b7a567a87f8ec6a2acbbe3adb8312988fc680c2e186fe06e249f1f7",
      "vout": 1,
      "scriptSig": {
        "asm": "",
        "hex": ""
      },
      "txinwitness": [
        "374439a40ee3ec3dc50e0a98dc478c6802b34ebd22f1fec2577016ef5ca3af9b442013c5a0ce5fea248ecd76cde8d17553238167be2f212d0ac703fbcd40a1dab6d9119870c6dc94d92160685e2c2fe57889c5e60c3967fa4e0097333623dfbf66d9ac5a413df3c8fc976b3fa1e027f10ee2468367bd9a12cf3c6280aee99bd9512fa91661254e4b8b8ddb75d666046f79a65c87c3b50ff1a769a7ba62aaaf446be868f5b4c090d963958d4ae2d92e3b0c25bf4539b3eb3f6330ccb5aaaeb47de8576512ac4c7c80d935c19b6e7157ae793567e1923bf1a3b01c5fd9166b954efc8e9d0d39287620a6bd06363fe1639674a27b96b0486499e1b03f284072b6bc5f1767009e18b1fbb9e842f0321c6df05eefc7b04384bfd9b260063ad5c10ed4fe4fe34a51776d8140846294329f63edaef691da1ac529689c37a7d5de7b94d09ca1213f9d50f088c7d825f185cae698b4da10dffc31a70a41cdfd702455482b65643e960f0d0e11dd18c24d68a5117a91aca361be63b85b7c01ecb6f9a8831481600d6a5fbadbb12209d5ae7f09960b4f5b4d2bb68264da502af1ef624318406245c74be93235c994e4a92632f5c4b5de1d0fbd25210697959d7f79e3efbcca1a93b0089d1051d58ed4a9feaaf36a2a0bd6907007e4bf0cc2d539ef4c98239b482f87a7b2513c2a9c5eabb87b5878bb8a5ca9be8b10bf4593a52f0657b2da5a97fcc1e204412a174176e7226814f4f91d5cf6d980ff99afcd00c05a1c77b2833a209e2ade64e735bc8e2d736c17996ffd6b3e293c514b319633e6df017cbc47d7571a2dfcce05b7c9a1919e0d863c5dd543c70f6b3cc351317395d00ac8ab73850b29f403e421b70e882e5d1117766ca170717c05e2aad7479a5f240921648941696cfa03a067554864ea9fec6751190db5d83a42eeda32ab1869fe5325f4c3aa26c318d91f15eac8eb098b96ca8dac478d6398726d2c6e18824a77afca928d6f0436222c76e46dabb244099cb2af016e98d8f45c1af0833419acbca787e6cb447c6c88ad666bc7b63d987d500fb5287463bea9c432e055f0a80a2700535078a4b6773b961f4027df9008e65154f45706af13e7dbf5bc0b255dea3c0f5e38e8f31e6a99db26138afc8eca9608f21eeb650fa371c8e68a7ee0655431de195a55f165f8a9f38ada0ab7e3a2b7e9f423d0ce07a96da5f1ae22f9762d58a11d6e414602a32d36827f06465515c81413638fbdec85d67b0445224a329f252df9c904dd901025f48a6a67fb2f48edf4f8865b8606aac769bc96baf20629dd48a237ad7c5ded73a70a0ad817f12354b4364e38b851d19cb67b91f05f1bf736034db8d0c3827fc30999eb842cae608f50683cd0e2a80df9d4ccb34f5b5acd1ef83026557ba4ac65a1ca4f09b92b81c2b397bf23814fa39189b385cd40f56e66cc97983e4ff56639e60f1dc16a0f28557e7db412c085e32de4acc17c645f1b66d9e76c488effab4aa82f82e7095dc13da62b04e25f6949208a5382964d0faa8dda0e6a6e008834597d350caf55de02977673d296c809d906a8de080e0f71145882b279a073e9aaa56ea26b8cfbfc986dd9130ebe83d0b71db173f0848869d08018de145751a4ff1d65040128301affcc7f2ed28da0ef6f3b1c374fe23546c423b946e3f0b55f648eb1e224eeb6357c1e9cdbe07a095bff733d1db4424b78d8e081f67d8435bb4b486a4e030a10ca4adef9921c939b95b5c041697b2395c8dd0e1a6375323aadb6155e4cad15b8b7d6cf9866b506b1b4dff4c15fb3a6ffb6b2597d8f8257ef07e236028afea53d28d222e667ae532e2091dbe09ff94573d175465b41a5f09815135a42ea589bc5e4c7e5cb0188379deecd3d2f182d79eeba706b501a39bbbad5218ee7f1e8d84c147bc599910372af755648f15dd698a57ecc446c228f96a5f58f88f187cbb8b06ec6b3b2b52bb1b2f2ab64fb47c6731baab406c8322ac8d086e3167d30f3523acb8644491295233cff2f3a5a2354a0a63cab60440d7fe825b4ebd9f4a13ff63b3565c1e37dc8a2ebd50a27e338d906edae760d53688e20862664d389844fdbe010aad36626c151b93d3b622ea2fc998eeea6004c1644ae67cfc28e5ee1cdc0a59d2304f53ab29f8aef3d05be0f664d67a4f0951dc0bd504372f51a173bd8f10d8505d802684630515dd8d4b45878f4c236fe32af3998db2007adc98649c8c169a303c3c65d2a6fe41363b475d29554cf9ed4c61d50004942a9418fc9d117703b5ab91f2e7fdaf4caeae0230ec7b85b8c8464d4a0cc650cda63fe2d1ce5b4d5646ee2eccab356c08862072f9bf0b7c0a60bffbf42ee7fc1cebd1e18797d7cb13ac0ba4b4fe828a3e664d9dc150faffd6a03e65175d95fc96d2f83a93faf54c3023ebd39fb9e68f51a583049d0a712659e7dc568f2c8c5ac78a05f4059c3022bc7da5eb7b356e987165c92bf48c19df7093e384bbf70363ce5c9864eb99500553b183a20d012dd239ba71452e1ba650987a52b46a01a55551d6f4d0c7bff92d2128ab48e676b35c874a7f069b57580fd83525bd4e54db7f8ba1ee76a4dfd4886ede82e989950832d5aa6a2fb5168d6feaf904c8d1de4fc5853e44f7c38564b69322178ac257104e275ce25c620662ae43198c2bf0a4308bb0734e8524b9aeb5dac992c6413636c184bb83f5ec91957d377cd5bf9b9fa8b05ee73e65bd9cf23d0d6f412b20a6fb5749e61e0122a8b53561b9dce62a90e376415528d6467b5b193c68e693767302e499f34fe564eafb62ab020472c546c20025315ecb418a0072a978e453ef762af40809f8fee0745e365ccd187013fea2b905a5967024ff9826724c487e214b69ca63bd5210b817a9f86712adf2c12379e08f7da956c353c7b08268d87f5f52c273a57747d8c35f3bfb31928e081740ac78abfd8022b8a55c18b1ad38875157624bb80cae42122703cc122c723fe33d0e4e008b22e2b60abe5abef7de00e4a6e965b2c5c9c1e615832f96f100f9dfe09039056e9a4d5cb3a250c745bf5960bd357d762c0ebae46faa67010893393b7a05e8a46349a7338de32a264ce1fdc3053bb206e644a14310a062490325bbf191a5e797c5360860d79601c71f10a62e20cafa69c678a7891dcb61da7fcb957f97c3cc342bb62c37b08c84e211f77cfe9697020a60f92ea3881a29489c318d064797679fbea06218d4c7664a44904805a1dda8979d71b134bb61a8055b263267b9a5832b8901e93b3d228030f036868490ce83535195d13b84c60af69c88207b480d8181b2a383c556c757a7f8192a4b4c6e1f9030e2c3537494a4f6073777a7c8c92969abcc0dc21444e53555e65757c7f93abaeb1b2d0e6f0242933363d3e797d7f858ea1b2c6e7f0f20000000000000000001024364701",
        "003b0ca40fdd61ce3672f5267aa44231e3450c89fe2aa57c7336d9d3466e0bc50e7b83e61da22a56fbd788392ec1f240fef0968a3a786f039fe17ac4b51e42a5b0cfc0d7087ccf9e2dbaabb8e1625525af7c5d9822385722bcf09163b5a17b612ce2a211852b8f45b65b389647da6e0ad19da75759110445392d046ebf35891807e5fefb968f819a11d8e3d4398c4fc1652eb9319be1dc343f411aececf429ea2266cc93ae925c187d2f2e12c409d379e729ec0b7814a1a85664dd63cedb45b1d65322ed5fe9c8063e2048eaa4422efda85fe2d87cc447beb4939baa60d0b557dbbd0df31bd78aa3f8fef545d45d86042f2cab8e776f4518e27e138e5475be69f5bdef43860587fb8eb65c716be2149f934645ecf9b5392c06f8697fb9eea7f2263ba812344522e3888cdae2b52614732adb5536cc8667afd7e8c033aa1efa7480dbb5f322bcb0cf449025fc4ee1f16f4a1785af069c29ef34b1630e247619fca2e81ba7da8a8a18f90aa2e32e2fece760878eca98bb89ba89920a3b8229ba90f73c617e66c8c1d211cb47c6bdbd320ec9812de799fd344130932946b33d3f4711560073932d7c493f900574a652f842d469c9d662d6470a890bf74bb3279a646a0265d6e3df3e2b61e9c4f204507e89fda05f298e64f290a5a81b86c0131a83f82f7a8af40aa0099666346610b9666f9681d9993b21c844c46fb54f9da21dc216ff393f09cae8a2e17c5a1e7d853aa530f335aca880e959cd26523a3c62424a150352806043eb667f25d6895cc14712da246ab270f4e2e5d224004dd85edf4d82201dd8ee5f566f6ce1fcdd0519e344a641f4596170f47fb891f8240494b1da7dc191c81594a3816dc8e33e531804b02b3cd16d962b76798d05c06f49dc79e80189f05ec29de95c17c4bbeec970cbb07168636b938a5722fd0d723319c2cd3eb387f77f6aec3f980d08c036684bddd9fe4a3171fa6ff0191a539d9689ec95c6cefdd1bc5a2a768a457872e03795ffb1362a191f5896bfa89ecd4df0eb9900981adf6939df4ba2cfe31470df1fb98afe9c317fc756565636ac1179b89cb5588661af4dd711aa1224b55017ec00a340992b7ce577d1cb726bb9a9cde425c9e4ec38e2a05815e96de75769cdc920e679028309b0b2ffab74249c69a645c66a1ab56caffb7c189e9b6db099038f89ab61abb9f1067c130a820ff4b7910387b9a2a0b9116d1ab1317aeb3fe958d536aa01286c0e45ad0831a5c55611d19f791c61c3105ddd941ee1adfccf1174a61c123bfe5b44f4066553cda0d74958e2619f51bce581fe5a8adcf224f87a93587a769a1f2f744c739bc620a67b4b0dce222bb3c62391ceb0c5283afcc17a7eac499da82e78159f930e5b92e96d5b12d505c4adef01f9d4c61e8a1ef973419f16eaae78ecaae710d4d6b956964583bc1d01cf9db5d27726cfe042ffecb370d027a6f670089cbf004cce5bedd2b6b85ba25082873cd3abb88a049eaca457f6c120f4165e41de4e2209107acbb4049732ae8d3f3298eb0355f415b3ce15498d2298e3aff2b523709f51fd29abe9c53230bd27bde0f73667dd957b59b8810ea72bd461a55e388f86c96340939b02d8dcd4e72fae2668858ddf2b3a9a498b8a0adffa380d564db7a34bd29522a8eeb65436030efc00810e417b5aefebdc3ef190177a88447e7e9e322c96eaebab7b0904e2542df26cf6ad9e18ca14858f69640770b65c9b659578cf73c2d57658f3cd1ade01b59bcb20de08cdfd820022d63d2f3105ba4aaa42c753487caebdc8ad21fb351991044cf31aead7da0fcf781d6c7172532386605c483db8752b8264815c9fc456afb4d5c3bb"
      ],
      "sequence": 4294967294
    }
  ],
  "vout": [
    {
      "value": 499993.8986,
      "n": 0,
      "scriptPubKey": {
        "asm": "1 acf4366886967c2ed4d744dcb7cf2368ba20d8bba333b99602f9276f83d4ab3c",
        "hex": "5120acf4366886967c2ed4d744dcb7cf2368ba20d8bba333b99602f9276f83d4ab3c",
        "reqSigs": 1,
        "type": "witness_v1_scripthash",
        "addresses": [
          "3QJmnh"
        ]
      }
    },
    {
      "value": 1.0,
      "n": 1,
      "scriptPubKey": {
        "asm": "OP_RETURN 722b8b36aae546d5e0252e4b3ae20a36677f4bf3b8915256ffecf9e1b9912d1a 2750fb4661468fbc937caffed491a6646c42dd27a2d116900730e6c4a9f5fd8e0770db664166af9cb35c8fdef4b186444c62fd0782f136b02710c6e489d5ddae6710bb062106cffcd33cefbe94d1e6242c029d67e29156d04770a684e9b5bdce47309b260126efdcf31ccf9eb4f1c6040c22bd47c2b176f0675086a4c9959deea7d07bc6e1c60f3c13fc2f7e541126e4ecc25da72251961087b0664429757d0e87f05be6c1e62f1c33dc0f5e743106c4cce27d870271b630a790466409555d2ee7903b86a1864f7c53bc6f3e145166a4ac821de76211d650c7f0260469353d4ec7b01ba681a66f5c739c4f1e347146848ca23dc74231f670e7d0062449151d6e2750fb4661468fbc937caffed491a6646c42dd27a2d116900730e6c4a9f5fd8e0770db664166af9cb35c8fdef4b186444c62fd0782f136b02710c6e489d5ddae6710bb062106cffcd33cefbe94d1e6242c029d67e29156d04770a684e9b5bdce47309b260126efdcf31ccf9eb4f1c6040c22bd47c2b176f0675086a4c9959deea7d07bc6e1c60f3c13fc2f7e541126e4ecc25da72251961087b0664429757d0e87f05be6c1e62f1c33dc0f5e743106c4cce27d870271b630a790466409555d2ee7903b86a1864f7c53bc6f3e145166a4ac821de76211d650c7f0260469353d4ec7b01ba681a66f5c739c4f1e347146848ca23dc74231f670e7d0062449151d6e2750fb4661468fbc937caffed491a6646c42dd27a2d116900730e6c4a9f5fd8e0770db664166af9cb35c8fdef4b186444c62fd0782f136b02710c6e489d5ddae6710bb062106cffcd33cefbe94d1e6242c029d67e29156d04770a684e9b5bdce47309b260126efdcf31ccf9eb4f1c6040c22bd47c2b176f0675086a4c9959deea7d07bc6e1c60f3c13fc2f7e541126e4ecc25da72251961087b0664429757d0e87f05be6c1e62f1c33dc0f5e743106c4cce27d870271b630a790466409555d2ee7903b86a1864f7c53bc6f3e145166a4ac821de76211d650c7f0260469353d4ec7b01ba681a66f5c739c4f1e347146848ca23dc74231f670e7d0062449151d6e2750fb4661468fbc937caffed491a6646c42dd27a2d116900730e6c4a9f5fd8e0770db664166af9cb35c8fdef4b186444c62fd0782f136b02710c6e489d5ddae6710bb062106cffcd33cefbe94d1e6242c029d67e29156d04770a684e9b5bdce47309b260126efdcf31ccf9eb4f1c6040c22bd47c2b176f0675086a4c9959deea7d07bc6e1c60f3c13fc2f7e541126e4ecc25da72251961087b0664429757d0e87f05be6c1e62f1c33dc0f5e743106c4cce27d870271b630a790466409555d2ee7903b86a1864f7c53bc6f3e145166a4ac821de76211d650c7f0260469353d4ec7b01ba681a66f5c739c4f1e347146848ca23dc74231f670e7d0062449151d6e2750fb4661468fbc937caffed491a6646c42dd27a2d116900730e6c4a9f5fd8e0770db664166af9cb35c8fdef4b186444c62fd0782f136b02710c6e489d5ddae6710bb062106cffcd33cefbe94d1e6242c029d67e29156d04770a684e9b5bdce47309b260126efdcf31ccf9eb4f1c6040c22bd47c2b176f0675086a4c9959deea7d07bc6e1c60f3c13fc2f7e541126e42a7f56bf56fc14b27fab7fa06eadb83570b871f04486f25ccdd55e9b8323486d",
        "hex": "6a20722b8b36aae546d5e0252e4b3ae20a36677f4bf3b8915256ffecf9e1b9912d1a4db0042750fb4661468fbc937caffed491a6646c42dd27a2d116900730e6c4a9f5fd8e0770db664166af9cb35c8fdef4b186444c62fd0782f136b02710c6e489d5ddae6710bb062106cffcd33cefbe94d1e6242c029d67e29156d04770a684e9b5bdce47309b260126efdcf31ccf9eb4f1c6040c22bd47c2b176f0675086a4c9959deea7d07bc6e1c60f3c13fc2f7e541126e4ecc25da72251961087b0664429757d0e87f05be6c1e62f1c33dc0f5e743106c4cce27d870271b630a790466409555d2ee7903b86a1864f7c53bc6f3e145166a4ac821de76211d650c7f0260469353d4ec7b01ba681a66f5c739c4f1e347146848ca23dc74231f670e7d0062449151d6e2750fb4661468fbc937caffed491a6646c42dd27a2d116900730e6c4a9f5fd8e0770db664166af9cb35c8fdef4b186444c62fd0782f136b02710c6e489d5ddae6710bb062106cffcd33cefbe94d1e6242c029d67e29156d04770a684e9b5bdce47309b260126efdcf31ccf9eb4f1c6040c22bd47c2b176f0675086a4c9959deea7d07bc6e1c60f3c13fc2f7e541126e4ecc25da72251961087b0664429757d0e87f05be6c1e62f1c33dc0f5e743106c4cce27d870271b630a790466409555d2ee7903b86a1864f7c53bc6f3e145166a4ac821de76211d650c7f0260469353d4ec7b01ba681a66f5c739c4f1e347146848ca23dc74231f670e7d0062449151d6e2750fb4661468fbc937caffed491a6646c42dd27a2d116900730e6c4a9f5fd8e0770db664166af9cb35c8fdef4b186444c62fd0782f136b02710c6e489d5ddae6710bb062106cffcd33cefbe94d1e6242c029d67e29156d04770a684e9b5bdce47309b260126efdcf31ccf9eb4f1c6040c22bd47c2b176f0675086a4c9959deea7d07bc6e1c60f3c13fc2f7e541126e4ecc25da72251961087b0664429757d0e87f05be6c1e62f1c33dc0f5e743106c4cce27d870271b630a790466409555d2ee7903b86a1864f7c53bc6f3e145166a4ac821de76211d650c7f0260469353d4ec7b01ba681a66f5c739c4f1e347146848ca23dc74231f670e7d0062449151d6e2750fb4661468fbc937caffed491a6646c42dd27a2d116900730e6c4a9f5fd8e0770db664166af9cb35c8fdef4b186444c62fd0782f136b02710c6e489d5ddae6710bb062106cffcd33cefbe94d1e6242c029d67e29156d04770a684e9b5bdce47309b260126efdcf31ccf9eb4f1c6040c22bd47c2b176f0675086a4c9959deea7d07bc6e1c60f3c13fc2f7e541126e4ecc25da72251961087b0664429757d0e87f05be6c1e62f1c33dc0f5e743106c4cce27d870271b630a790466409555d2ee7903b86a1864f7c53bc6f3e145166a4ac821de76211d650c7f0260469353d4ec7b01ba681a66f5c739c4f1e347146848ca23dc74231f670e7d0062449151d6e2750fb4661468fbc937caffed491a6646c42dd27a2d116900730e6c4a9f5fd8e0770db664166af9cb35c8fdef4b186444c62fd0782f136b02710c6e489d5ddae6710bb062106cffcd33cefbe94d1e6242c029d67e29156d04770a684e9b5bdce47309b260126efdcf31ccf9eb4f1c6040c22bd47c2b176f0675086a4c9959deea7d07bc6e1c60f3c13fc2f7e541126e42a7f56bf56fc14b27fab7fa06eadb83570b871f04486f25ccdd55e9b8323486d",
        "type": "nulldata"
      }
    }
  ],
  "blockhash": "32a2d379a33ec88ae1cb3a8a1a44f2d12b76aebf574ecf7ac16b289397ed6cd9",
  "confirmations": 1,
  "time": 1764176557,
  "blocktime": 1764176557
}