{
  "hex": "01000000000101a48b6bd0849c1cabd5240684d006dd12d4ce5abca604d1b01d555bf920a66c150000000000feffffff028079ca95782d000022512058cd8c41c105bad2319f860fc81dcc6a3388537f55ac0475c1818f454124d09300e1f50500000000fdd5046a2099d4c715857bb0779c88d1811e6fab271cc59b2ff028583453a34287966ec8104db004eee94bbdfbb13b96368e8dbc7b6e569416f8baddf188ac28b4ef08be60854a7bcec96b9ddb911bb616aead9c5b4e76b436d89afdd1a88c0894cf289e40a56a5baea90bfdbbf17bd676cecdfc3b2e16d456b8fa9db1c8ec68f4af48fe20c50a3b8e892bdd9bd15bf656eeeddc1b0e36f47698dabd91e8cc48d48f68de00e52a1b6e69cb3d7b31bb16b60e0d3cfbeed61496783a5d71082ca8346f883ee005cafb4e49eb1d5b119b36962e2d1cdbcef634b6581a7d51280c88144fa81ec025eadb2e298b7d3b71fb56f64e4d7cbbae9654d6387a1d31486ce8742fc87ea0458abb0e09ab5d1b51db76d66e6d5c9b8eb674f6185a3d11684cc8540fe85e8065aa9beee94bbdfbb13b96368e8dbc7b6e569416f8baddf188ac28b4ef08be60854a7bcec96b9ddb911bb616aead9c5b4e76b436d89afdd1a88c0894cf289e40a56a5baea90bfdbbf17bd676cecdfc3b2e16d456b8fa9db1c8ec68f4af48fe20c50a3b8e892bdd9bd15bf656eeeddc1b0e36f47698dabd91e8cc48d48f68de00e52a1b6e69cb3d7b31bb16b60e0d3cfbeed61496783a5d71082ca8346f883ee005cafb4e49eb1d5b119b36962e2d1cdbcef634b6581a7d51280c88144fa81ec025eadb2e298b7d3b71fb56f64e4d7cbbae9654d6387a1d31486ce8742fc87ea0458abb0e09ab5d1b51db76d66e6d5c9b8eb674f6185a3d11684cc8540fe85e8065aa9beee94bbdfbb13b96368e8dbc7b6e569416f8baddf188ac28b4ef08be60854a7bcec96b9ddb911bb616aead9c5b4e76b436d89afdd1a88c0894cf289e40a56a5baea90bfdbbf17bd676cecdfc3b2e16d456b8fa9db1c8ec68f4af48fe20c50a3b8e892bdd9bd15bf656eeeddc1b0e36f47698dabd91e8cc48d48f68de00e52a1b6e69cb3d7b31bb16b60e0d3cfbeed61496783a5d71082ca8346f883ee005cafb4e49eb1d5b119b36962e2d1cdbcef634b6581a7d51280c88144fa81ec025eadb2e298b7d3b71fb56f64e4d7cbbae9654d6387a1d31486ce8742fc87ea0458abb0e09ab5d1b51db76d66e6d5c9b8eb674f6185a3d11684cc8540fe85e8065aa9beee94bbdfbb13b96368e8dbc7b6e569416f8baddf188ac28b4ef08be60854a7bcec96b9ddb911bb616aead9c5b4e76b436d89afdd1a88c0894cf289e40a56a5baea90bfdbbf17bd676cecdfc3b2e16d456b8fa9db1c8ec68f4af48fe20c50a3b8e892bdd9bd15bf656eeeddc1b0e36f47698dabd91e8cc48d48f68de00e52a1b6e69cb3d7b31bb16b60e0d3cfbeed61496783a5d71082ca8346f883ee005cafb4e49eb1d5b119b36962e2d1cdbcef634b6581a7d51280c88144fa81ec025eadb2e298b7d3b71fb56f64e4d7cbbae9654d6387a1d31486ce8742fc87ea0458abb0e09ab5d1b51db76d66e6d5c9b8eb674f6185a3d11684cc8540fe85e8065aa9beee94bbdfbb13b96368e8dbc7b6e569416f8baddf188ac28b4ef08be60854a7bcec96b9ddb911bb616aead9c5b4e76b436d89afdd1a88c0894cf289e40a56a5baea90bfdbbf17bd676cecdfc3b2e16d456b8fa9db1c8ec68f4af48fe20c50a3b8e892bdd9bd15bf656eeeddc1b0e36f47698dabd91e8cc48d48f68de00e52a1b6e69cb3d7b31bb16b60e0d3cfbeed61454261ac08009f119a2b4c11df349a7dc9da02f3683d93d0b9b9dd38f619c61f902fd750903b814dc7a852fbfa8062b1b663096f67d9e5565d4a3ae2a6869bbc10c417b466c3b9b3d941b31312faf18fcd958642577e96632bb08a3a52bc6c69cfae9a10584d46bf075557bcad21a1d2382eab413ce318664973831c656489d9666410b1564bfecae19c32b906e19a8f5323245876a52c65b97e6fa0a6d1230248666c1f0c3c363a66b6449df50f10fe1c1e45a9ff1f71a00cece282f8e78cc21d2ff454e1752feb12e1c45d49bec239143cc9657dee24782be23cfc8c111b3c66c0f4783cb497023a2b67c52e12f112b959c47f41cac4ace1821919f1634dcc55e10165c274335b7a6c17cbc588eb70ef4edc6c0c0fa210f20ae987646505465780b2803878c75f3a085646911122cba6bd956aed6129510a553b27b23c2ea4eee695328fd6d3125a729d7625934d59a96ae686707fae998518650f5147ee9174399d2afa3af45bfed92091b83bd16db5ee2e6541116ff9c58f13cbbaf1f71b2b55b5f05a7bce5f840feaff768aca4def5512590adb75b4305a239ba14735c6b30d6c528a930f94f7a60e587b1a136e5c7560c2171dfffc5c18ead8f9679aa589f983c2c8f5c38f43ca089a6f47fc8e0c2dde623d824619ca5d3f5f71a538dc801ffd937f1a6053e0b183512c3bfe1542ba202845789a0b575aafcc56114a865bc9a4ef554c4d9260b2be580772366d4a1fc9fc126c677d9554dd49ebf2fda98a2eaad452be83a0740697c1f2cfde34a78828be0a993cf0d54a5fcce00411e08b5b6c958c1c3c3fc72dfe82d756478e3d1dd43b480f44af6276c69b5936eb95e68a5cdecb3cd9bd46fa2e6f318b25a3927022be6dc90261ed517ab1ba7a2d2d93e63039179165fb71df41df085d54d4a3f57475a3f1587c2a4ec7222d999ccf14d8a3275d1d90dd18ebbbae473641b901e135fd6031db9dee98a68f318cfa7393d8f62fb03c10891d07d81b9a4a8baab9f79d1ab5b1378757353f57f74a7d7a43538a2a5004c64f6951995ee8d7ff0d6544667e5a746102128f3b281becbaa70806a759af63fc8db70cabf46e79fdd66d92c6daa76197151cd10773d0263eef32f33b18b831add38cc058cdd86e8d67572e9b1db168e4bbb822510fded52c39a825bc76077488948c863b0bf3cd93dc62b60856742adc8cdcd064022d93da7b1c4fe808cd8a54254548560f5294fcef7510e24fc515839703fc9b26e3ac3dda2b51526db0f7647dfae24bd087d8b0472100a1651a151e455b69e6d5815575ca3ef98a9e9bc48355aba00f79c88e454c69ef991d6309056e3602fed024efa13d64c6d6ebf74b5f4f6ecd68a552613e9c6f053ffdaa544d5fdf602ec0151f755c739ac257191098b94b57e86b622d9b4651d9014b1b83f7fab2dab8cdc5e16d6502cf563d236b79d0f465e70cc78e6cd27d1ccb92c9ad178b4c7d3703669cd2e398de251718cb91fea3a899e4346d23d61135be52602d829feb2c38a0a3a6aff71e7515ed4150258fb06300f7931365ded83b9155b710aa12270194800cbaed3daacec00df7e6564cb66107225cd76ea094dbd2cb30e4dc478ed755bd2aeb90e6c4bb6e4b30df90d0b7723e9641b7d16a97ce106baf88b64b17619d29bed3fd9c8111b55b9119211c45970e144e04fc6d2b1cb3541eba3f9a03d38ab8107a72f239b7733f1565f6f324718152a4ee9160f4f4d528ac58154e8880a273a702593552f14e32fc6548c648671665c42bb2d0490e3eb4c9d0c331a1f7c055acd90e66d5d39ca8ce5eb0b76670cfc9f33ea2e9f8c197338c3433c7eaaaba2d19a8e570ea506beaf54442562d4d504ed6733ada1d0ebc133c8dd246244614f5f6d535126db67abb9b4e69e3a52d36735563b4ea20022a90004f9512c6835151aa667d4e9504a9a5ec01513233cca4657f3661b9d43b0b5387fca0d36280acd5b7850fe28c3b42c578fb0be65bfc1df24465123af265352ca8df5191211b5aacd7dfb77583c99dad8efaa920a65c43398bf658ade627a6ead1c78a2dcf75f3c847a0766249d4319a2b6def92a5a3f9c4ad46f32c1679ecdef5347e4ecbc34bd7cf1dc8c24adca7f9416491b3f5970c8b98c1efc86e705f55f9b7990143e578cce9ae7a0d6475befb7f6a76ff5d4eafab38533517f211c463735f30c18942060fc51b7e15e626ba6427c8a8122101f09b894f4b2cbc32ca8e4e2249215ee144ea3ae655890e1d9039300555d5c194872dc4fccc60d9e0423a0e8be9df4f57a8b0e6517d6e7475e9562d656885382800b49f0d84808d8983fad806211c52edbfca688622ef9e06575820e636be3f9b78d394e4379e00a442f51c2e3d0d179e2a52c2308293bbabdb6c0d48f6341535fe2b4f87e36c11fdfe40bd202e1a6a7ec001a663249ac283fbbbac82ad7805a40b902ba45c43b612aa58ac4040cb97faa2d75ae890f4b02a1cc7b92d9719650d305c6968b7f63e8c7fbb9bc0cd304b62cde122c75af08ddbaca89ad65904448588f01665820a6f91425e148fddf6776986f3167b1919351514c21fafa905600f936fed9c094bbe3cc86da5a56623d1b5e13f3929d960c70ce0744deebcca83a29a51bedc52823e575beff3f2eaa3ee2aabfca27f204bb4b94e94b624aaef15eadea4f0011efa55f19e4028617bae4ca82f7d69c716f8f89393978521ee31a688665c7b3a5ecce0c1162ab4422a473bfd928bd5ddc0cd7d2a0ec9edf498e0bc712174e7bbd9310a21ace8b775d9608d49408a61abaf9e52f47d4e063aedd5dc9c6c39fb124350d8b7e702ffebcb3c7736332a5856f436535373931ee8d7ec01f79516e3ad4d5f691cd97a3792cd68c5bcd5bc5992d75fc6e4abd3b721c789a7b2a851bd6fb667ac5ff56e40f062672f8a3487232fdc5f4de98cf17882c0157425f2017940aa2510d7656a38145520fa170028c2b9719348cd6a5d40dbe50593dd04e97a7701fa38370b68b5e831b9d373280de1faa8961a5a3329362db8efaf42915f5e0eb2e5cf80b9dc4e3193e7cb14fec4fb0bc567ec3fb70a698d990b4a72415e1974c0be886a82d7c5ceb43bc4b8511224969d1eaa582418e8ec433500c2ea1f8532d8a5093ee7cfb91879cba3806a6368bf6d9cce90d7ab94685617121105b34b8fcb85a89622aceecec52cb9afaf7b1dbb2c868f3d1275cc7a9cfc7a933de28d5ea6a2118ee291be3827678843e6c5ce5d7295d10fcb9329c061403b75c2c500ed16cbcdc53d3139ef77a812ad073b39a603c6761a6b6ef939900e07a33d4e9ac05b042ae4c48143f1b6806e4315e556cfe1849a7f60a44031d252b2c3a3f56657c7e8893a0a3c5c6c7e6e8ebeff4fafc070a0e161935404157656b79a6a8aabfe1f3fd00162b2e6264718aafb1e1e6e7f40f2930525d709eacbcc4d5d7e4000000000000000000192c3a4701fd21050089a965e07c27818061cc486b5c79c2a984c09793b8e058034f9f73eebd296ad30206a83fa2fbaf77b221f03757652edc0f42cfc30a12d5280f17ea802890fe9de913dd722141f464b9fc0dc862320e1e024b39f6cf8d7afca167c4d3a7edf59cf9b8650fe2b2fd326f70e939bf3b55a1c1d641f26d47b793d240291835ac523d1707d6eacaabb6bf887c6810751afc5a35ff3c00eed49284357553e143308e29fa24f782cf882bee6ca4adf73641ea7241eeb4307a0092eadbb71205b9823a8b84f03c9f9a46e01b53cddd61789a4a69826fc861de70ff1d2c892526532a2ef1c2736aa0b8aac9984ee1cb61c6e7ff945d13182c8c096183e53cf9dd0c7d89546af01c113fe4683246102027fe5aac63c04931a7bd6ecaab58526491b54df989429513318f2fe9cbed9af9101425d746d99fa27080d12c992c11e7b82a6f1a0618df425191c9ca3e56edaf5b77575fa8f79884ba5b187e98047cda45abb44f78c49f6168763d5df84b6acf55612349e5bc46a10e34a3b05e3af1f1bd181d779ba6acd62910f29606a94ac312a36cbf30f96ad049df341c3043f822ed4ec3259b7721caf24bc4802c3cb1c225e50f910079ec3c6b5bacc064a064f685b42fc73a1678b8217fee5f81640b82b3b828c76bbf965be5271a355017b9956b006dc0c20b702da42e1e6feef2be70f21fa3e470cfd79ce3668eef3fa407aaa179119f7719dc4a36f3452c9761c81def46206b27be75d492b997c492e3aadf59c525ea13cde9a6c775a8e8250f43fd8fe18350a3ec9bcd7871471de65d96737f2df3ab3ed26b8996fcb084eb8f26b3e6e3fdf7447554258bd99b3f288b172990b39ee951b818845ab58d8f2b8c4a3e8a5436bec4a3ca2a4cf951750756b8d75fa6c64185f1a448ff4cfb4e800e6b5196f061f48470c98ddd9e41111e244e43a4f72e195282c20f28fd46c80c98ac3b09e8b2ce9bbba81255901c1273e9c26e620b7d3d0811db2af85d00bf67eecc6579dd2f6c978d538e5a4c7c999d13210b9beee616cf3b1e7fe83b98d6c11ca2e37c65dc32025972af1b79c6a860288e5b8292efff6b2f3de5f964d5cb2869ad1caadfdfa02fb134fecf520028bfd2f33aa5c66d165acb6da15962a915c1b11558e726e56bad0d20476e7c3588ce72c3dcb444c1c09186230d41cff839df320ab2164175ef9a9ef2e6a146308dd7c2bc9e65671a2b9ed8b0846a818c5d3c164c3825b5f971a5f24184c438ea8d6ead8ed4a5f4923acd557638a28104f62619ff811e3984ed3c40eb770df562d5d549f9f9d28227a8cfa32a22a69fa14d0eccb68077beef7d5a7e960d6fcb856573a019c94c139d6ad0759d33d5af33653c1704f5ed72c015755507c5558899fc2ce8f84805b87c57c3b9d28806685719a5442b37d8ccffcbbf47f5e1777c6e1f31b6bbbe8f6261523676ed28cbccc44ad9774941f2099bb9b4432b55ff4aeee2b02470c5793660c44199a78a89ddc9c8bcf42eacbd21a134ba9f765d5dc1529fafcdfc40c0d7a98d8582a0826d3bf9da3f127bf50032c1086e0f1ea9426e0bb1681ebd22e6a28be037b55e569a804e5da121d1918c1ff391938f47ce3c37d4ebf0baf71b99e664d28290e4bb2415141fbb638dfcf81ac46a6cc2d9ac2cc071a73f45e38acbbcf8792222574404bab8eab8051ead62b0028e93e9461722d11b296eb1e2303c5fafe348dbfca88845cfb3553d596a2bfd0cfadac4479cb544325720bd2775ad87f4d0762b75a1935aea5d8c29eabacd0cb3b34c3ed1f272e172d8ec87424a65eeecc58bc0493bb7d9a7306555cd9aed390eb2171c672da35f9ed0cf79be92a652cc779989000000",
  "txid": "5fa20f2659122316b8dde237eb6475404bb83808cc17becd67c63a4cb392a291",
  "hash": "8f8059e6591479a372042a94bde92f403599fb8e286b9efb34f67d7cddcf849c",
  "size": 5085,
  "vsize": 2278,
  "version": 1,
  "locktime": 137,
  "vin": [
    {
      "txid": "156ca620f95b551db0d104a6bc5aced412dd06d0840624d5ab1c9c84d06b8ba4",
      "vout": 0,
      "scriptSig": {
        "asm": "",
        "hex": ""
      },
      "txinwitness": [
        "03b814dc7a852fbfa8062b1b663096f67d9e5565d4a3ae2a6869bbc10c417b466c3b9b3d941b31312faf18fcd958642577e96632bb08a3a52bc6c69cfae9a10584d46bf075557bcad21a1d2382eab413ce318664973831c656489d9666410b1564bfecae19c32b906e19a8f5323245876a52c65b97e6fa0a6d1230248666c1f0c3c363a66b6449df50f10fe1c1e45a9ff1f71a00cece282f8e78cc21d2ff454e1752feb12e1c45d49bec239143cc9657dee24782be23cfc8c111b3c66c0f4783cb497023a2b67c52e12f112b959c47f41cac4ace1821919f1634dcc55e10165c274335b7a6c17cbc588eb70ef4edc6c0c0fa210f20ae987646505465780b2803878c75f3a085646911122cba6bd956aed6129510a553b27b23c2ea4eee695328fd6d3125a729d7625934d59a96ae686707fae998518650f5147ee9174399d2afa3af45bfed92091b83bd16db5ee2e6541116ff9c58f13cbbaf1f71b2b55b5f05a7bce5f840feaff768aca4def5512590adb75b4305a239ba14735c6b30d6c528a930f94f7a60e587b1a136e5c7560c2171dfffc5c18ead8f9679aa589f983c2c8f5c38f43ca089a6f47fc8e0c2dde623d824619ca5d3f5f71a538dc801ffd937f1a6053e0b183512c3bfe1542ba202845789a0b575aafcc56114a865bc9a4ef554c4d9260b2be580772366d4a1fc9fc126c677d9554dd49ebf2fda98a2eaad452be83a0740697c1f2cfde34a78828be0a993cf0d54a5fcce00411e08b5b6c958c1c3c3fc72dfe82d756478e3d1dd43b480f44af6276c69b5936eb95e68a5cdecb3cd9bd46fa2e6f318b25a3927022be6dc90261ed517ab1ba7a2d2d93e63039179165fb71df41df085d54d4a3f57475a3f1587c2a4ec7222d999ccf14d8a3275d1d90dd18ebbbae473641b901e135fd6031db9dee98a68f318cfa7393d8f62fb03c10891d07d81b9a4a8baab9f79d1ab5b1378757353f57f74a7d7a43538a2a5004c64f6951995ee8d7ff0d6544667e5a746102128f3b281becbaa70806a759af63fc8db70cabf46e79fdd66d92c6daa76197151cd10773d0263eef32f33b18b831add38cc058cdd86e8d67572e9b1db168e4bbb822510fded52c39a825bc76077488948c863b0bf3cd93dc62b60856742adc8cdcd064022d93da7b1c4fe808cd8a54254548560f5294fcef7510e24fc515839703fc9b26e3ac3dda2b51526db0f7647dfae24bd087d8b0472100a1651a151e455b69e6d5815575ca3ef98a9e9bc48355aba00f79c88e454c69ef991d6309056e3602fed024efa13d64c6d6ebf74b5f4f6ecd68a552613e9c6f053ffdaa544d5fdf602ec0151f755c739ac257191098b94b57e86b622d9b4651d9014b1b83f7fab2dab8cdc5e16d6502cf563d236b79d0f465e70cc78e6cd27d1ccb92c9ad178b4c7d3703669cd2e398de251718cb91fea3a899e4346d23d61135be52602d829feb2c38a0a3a6aff71e7515ed4150258fb06300f7931365ded83b9155b710aa12270194800cbaed3daacec00df7e6564cb66107225cd76ea094dbd2cb30e4dc478ed755bd2aeb90e6c4bb6e4b30df90d0b7723e9641b7d16a97ce106baf88b64b17619d29bed3fd9c8111b55b9119211c45970e144e04fc6d2b1cb3541eba3f9a03d38ab8107a72f239b7733f1565f6f324718152a4ee9160f4f4d528ac58154e8880a273a702593552f14e32fc6548c648671665c42bb2d0490e3eb4c9d0c331a1f7c055acd90e66d5d39ca8ce5eb0b76670cfc9f33ea2e9f8c197338c3433c7eaaaba2d19a8e570ea506beaf54442562d4d504ed6733ada1d0ebc133c8dd246244614f5f6d535126db67abb9b4e69e3a52d36735563b4ea20022a90004f9512c6835151aa667d4e9504a9a5ec01513233cca4657f3661b9d43b0b5387fca0d36280acd5b7850fe28c3b42c578fb0be65bfc1df24465123af265352ca8df5191211b5aacd7dfb77583c99dad8efaa920a65c43398bf658ade627a6ead1c78a2dcf75f3c847a0766249d4319a2b6def92a5a3f9c4ad46f32c1679ecdef5347e4ecbc34bd7cf1dc8c24adca7f9416491b3f5970c8b98c1efc86e705f55f9b7990143e578cce9ae7a0d6475befb7f6a76ff5d4eafab38533517f211c463735f30c18942060fc51b7e15e626ba6427c8a8122101f09b894f4b2cbc32ca8e4e2249215ee144ea3ae655890e1d9039300555d5c194872dc4fccc60d9e0423a0e8be9df4f57a8b0e6517d6e7475e9562d656885382800b49f0d84808d8983fad806211c52edbfca688622ef9e06575820e636be3f9b78d394e4379e00a442f51c2e3d0d179e2a52c2308293bbabdb6c0d48f6341535fe2b4f87e36c11fdfe40bd202e1a6a7ec001a663249ac283fbbbac82ad7805a40b902ba45c43b612aa58ac4040cb97faa2d75ae890f4b02a1cc7b92d9719650d305c6968b7f63e8c7fbb9bc0cd304b62cde122c75af08ddbaca89ad65904448588f01665820a6f91425e148fddf6776986f3167b1919351514c21fafa905600f936fed9c094bbe3cc86da5a56623d1b5e13f3929d960c70ce0744deebcca83a29a51bedc52823e575beff3f2eaa3ee2aabfca27f204bb4b94e94b624aaef15eadea4f0011efa55f19e4028617bae4ca82f7d69c716f8f89393978521ee31a688665c7b3a5ecce0c1162ab4422a473bfd928bd5ddc0cd7d2a0ec9edf498e0bc712174e7bbd9310a21ace8b775d9608d49408a61abaf9e52f47d4e063aedd5dc9c6c39fb124350d8b7e702ffebcb3c7736332a5856f436535373931ee8d7ec01f79516e3ad4d5f691cd97a3792cd68c5bcd5bc5992d75fc6e4abd3b721c789a7b2a851bd6fb667ac5ff56e40f062672f8a3487232fdc5f4de98cf17882c0157425f2017940aa2510d7656a38145520fa170028c2b9719348cd6a5d40dbe50593dd04e97a7701fa38370b68b5e831b9d373280de1faa8961a5a3329362db8efaf42915f5e0eb2e5cf80b9dc4e3193e7cb14fec4fb0bc567ec3fb70a698d990b4a72415e1974c0be886a82d7c5ceb43bc4b8511224969d1eaa582418e8ec433500c2ea1f8532d8a5093ee7cfb91879cba3806a6368bf6d9cce90d7ab94685617121105b34b8fcb85a89622aceecec52cb9afaf7b1dbb2c868f3d1275cc7a9cfc7a933de28d5ea6a2118ee291be3827678843e6c5ce5d7295d10fcb9329c061403b75c2c500ed16cbcdc53d3139ef77a812ad073b39a603c6761a6b6ef939900e07a33d4e9ac05b042ae4c48143f1b6806e4315e556cfe1849a7f60a44031d252b2c3a3f56657c7e8893a0a3c5c6c7e6e8ebeff4fafc070a0e161935404157656b79a6a8aabfe1f3fd00162b2e6264718aafb1e1e6e7f40f2930525d709eacbcc4d5d7e4000000000000000000192c3a4701",
        "0089a965e07c27818061cc486b5c79c2a984c09793b8e058034f9f73eebd296ad30206a83fa2fbaf77b221f03757652edc0f42cfc30a12d5280f17ea802890fe9de913dd722141f464b9fc0dc862320e1e024b39f6cf8d7afca167c4d3a7edf59cf9b8650fe2b2fd326f70e939bf3b55a1c1d641f26d47b793d240291835ac523d1707d6eacaabb6bf887c6810751afc5a35ff3c00eed49284357553e143308e29fa24f782cf882bee6ca4adf73641ea7241eeb4307a0092eadbb71205b9823a8b84f03c9f9a46e01b53cddd61789a4a69826fc861de70ff1d2c892526532a2ef1c2736aa0b8aac9984ee1cb61c6e7ff945d13182c8c096183e53cf9dd0c7d89546af01c113fe4683246102027fe5aac63c04931a7bd6ecaab58526491b54df989429513318f2fe9cbed9af9101425d746d99fa27080d12c992c11e7b82a6f1a0618df425191c9ca3e56edaf5b77575fa8f79884ba5b187e98047cda45abb44f78c49f6168763d5df84b6acf55612349e5bc46a10e34a3b05e3af1f1bd181d779ba6acd62910f29606a94ac312a36cbf30f96ad049df341c3043f822ed4ec3259b7721caf24bc4802c3cb1c225e50f910079ec3c6b5bacc064a064f685b42fc73a1678b8217fee5f81640b82b3b828c76bbf965be5271a355017b9956b006dc0c20b702da42e1e6feef2be70f21fa3e470cfd79ce3668eef3fa407aaa179119f7719dc4a36f3452c9761c81def46206b27be75d492b997c492e3aadf59c525ea13cde9a6c775a8e8250f43fd8fe18350a3ec9bcd7871471de65d96737f2df3ab3ed26b8996fcb084eb8f26b3e6e3fdf7447554258bd99b3f288b172990b39ee951b818845ab58d8f2b8c4a3e8a5436bec4a3ca2a4cf951750756b8d75fa6c64185f1a448ff4cfb4e800e6b5196f061f48470c98ddd9e41111e244e43a4f72e195282c20f28fd46c80c98ac3b09e8b2ce9bbba81255901c1273e9c26e620b7d3d0811db2af85d00bf67eecc6579dd2f6c978d538e5a4c7c999d13210b9beee616cf3b1e7fe83b98d6c11ca2e37c65dc32025972af1b79c6a860288e5b8292efff6b2f3de5f964d5cb2869ad1caadfdfa02fb134fecf520028bfd2f33aa5c66d165acb6da15962a915c1b11558e726e56bad0d20476e7c3588ce72c3dcb444c1c09186230d41cff839df320ab2164175ef9a9ef2e6a146308dd7c2bc9e65671a2b9ed8b0846a818c5d3c164c3825b5f971a5f24184c438ea8d6ead8ed4a5f4923acd557638a28104f62619ff811e3984ed3c40eb770df562d5d549f9f9d28227a8cfa32a22a69fa14d0eccb68077beef7d5a7e960d6fcb856573a019c94c139d6ad0759d33d5af33653c1704f5ed72c015755507c5558899fc2ce8f84805b87c57c3b9d28806685719a5442b37d8ccffcbbf47f5e1777c6e1f31b6bbbe8f6261523676ed28cbccc44ad9774941f2099bb9b4432b55ff4aeee2b02470c5793660c44199a78a89ddc9c8bcf42eacbd21a134ba9f765d5dc1529fafcdfc40c0d7a98d8582a0826d3bf9da3f127bf50032c1086e0f1ea9426e0bb1681ebd22e6a28be037b55e569a804e5da121d1918c1ff391938f47ce3c37d4ebf0baf71b99e664d28290e4bb2415141fbb638dfcf81ac46a6cc2d9ac2cc071a73f45e38acbbcf8792222574404bab8eab8051ead62b0028e93e9461722d11b296eb1e2303c5fafe348dbfca88845cfb3553d596a2bfd0cfadac4479cb544325720bd2775ad87f4d0762b75a1935aea5d8c29eabacd0cb3b34c3ed1f272e172d8ec87424a65eeecc58bc0493bb7d9a7306555cd9aed390eb2171c672da35f9ed0cf79be92a652cc7799"
      ],
      "sequence": 4294967294
    }
  ],
  "vout": [
    {
      "value": 499959.324,
      "n": 0,
      "scriptPubKey": {
        "asm": "1 58cd8c41c105bad2319f860fc81dcc6a3388537f55ac0475c1818f454124d093",
        "hex": "512058cd8c41c105bad2319f860fc81dcc6a3388537f55ac0475c1818f454124d093",
        "reqSigs": 1,
        "type": "witness_v1_scripthash",
        "addresses": [
          "3QJmnh"
        ]
      }
    },
    {
      "value": 1.0,
      "n": 1,
      "scriptPubKey": {
        "asm": "OP_RETURN 99d4c715857bb0779c88d1811e6fab271cc59b2ff028583453a34287966ec810 eee94bbdfbb13b96368e8dbc7b6e569416f8baddf188ac28b4ef08be60854a7bcec96b9ddb911bb616aead9c5b4e76b436d89afdd1a88c0894cf289e40a56a5baea90bfdbbf17bd676cecdfc3b2e16d456b8fa9db1c8ec68f4af48fe20c50a3b8e892bdd9bd15bf656eeeddc1b0e36f47698dabd91e8cc48d48f68de00e52a1b6e69cb3d7b31bb16b60e0d3cfbeed61496783a5d71082ca8346f883ee005cafb4e49eb1d5b119b36962e2d1cdbcef634b6581a7d51280c88144fa81ec025eadb2e298b7d3b71fb56f64e4d7cbbae9654d6387a1d31486ce8742fc87ea0458abb0e09ab5d1b51db76d66e6d5c9b8eb674f6185a3d11684cc8540fe85e8065aa9beee94bbdfbb13b96368e8dbc7b6e569416f8baddf188ac28b4ef08be60854a7bcec96b9ddb911bb616aead9c5b4e76b436d89afdd1a88c0894cf289e40a56a5baea90bfdbbf17bd676cecdfc3b2e16d456b8fa9db1c8ec68f4af48fe20c50a3b8e892bdd9bd15bf656eeeddc1b0e36f47698dabd91e8cc48d48f68de00e52a1b6e69cb3d7b31bb16b60e0d3cfbeed61496783a5d71082ca8346f883ee005cafb4e49eb1d5b119b36962e2d1cdbcef634b6581a7d51280c88144fa81ec025eadb2e298b7d3b71fb56f64e4d7cbbae9654d6387a1d31486ce8742fc87ea0458abb0e09ab5d1b51db76d66e6d5c9b8eb674f6185a3d11684cc8540fe85e8065aa9beee94bbdfbb13b96368e8dbc7b6e569416f8baddf188ac28b4ef08be60854a7bcec96b9ddb911bb616aead9c5b4e76b436d89afdd1a88c0894cf289e40a56a5baea90bfdbbf17bd676cecdfc3b2e16d456b8fa9db1c8ec68f4af48fe20c50a3b8e892bdd9bd15bf656eeeddc1b0e36f47698dabd91e8cc48d48f68de00e52a1b6e69cb3d7b31bb16b60e0d3cfbeed61496783a5d71082ca8346f883ee005cafb4e49eb1d5b119b36962e2d1cdbcef634b6581a7d51280c88144fa81ec025eadb2e298b7d3b71fb56f64e4d7cbbae9654d6387a1d31486ce8742fc87ea0458abb0e09ab5d1b51db76d66e6d5c9b8eb674f6185a3d11684cc8540fe85e8065aa9beee94bbdfbb13b96368e8dbc7b6e569416f8baddf188ac28b4ef08be60854a7bcec96b9ddb911bb616aead9c5b4e76b436d89afdd1a88c0894cf289e40a56a5baea90bfdbbf17bd676cecdfc3b2e16d456b8fa9db1c8ec68f4af48fe20c50a3b8e892bdd9bd15bf656eeeddc1b0e36f47698dabd91e8cc48d48f68de00e52a1b6e69cb3d7b31bb16b60e0d3cfbeed61496783a5d71082ca8346f883ee005cafb4e49eb1d5b119b36962e2d1cdbcef634b6581a7d51280c88144fa81ec025eadb2e298b7d3b71fb56f64e4d7cbbae9654d6387a1d31486ce8742fc87ea0458abb0e09ab5d1b51db76d66e6d5c9b8eb674f6185a3d11684cc8540fe85e8065aa9beee94bbdfbb13b96368e8dbc7b6e569416f8baddf188ac28b4ef08be60854a7bcec96b9ddb911bb616aead9c5b4e76b436d89afdd1a88c0894cf289e40a56a5baea90bfdbbf17bd676cecdfc3b2e16d456b8fa9db1c8ec68f4af48fe20c50a3b8e892bdd9bd15bf656eeeddc1b0e36f47698dabd91e8cc48d48f68de00e52a1b6e69cb3d7b31bb16b60e0d3cfbeed61454261ac08009f119a2b4c11df349a7dc9da02f3683d93d0b9b9dd38f619c61f9",
        "hex": "6a2099d4c715857bb0779c88d1811e6fab271cc59b2ff028583453a34287966ec8104db004eee94bbdfbb13b96368e8dbc7b6e569416f8baddf188ac28b4ef08be60854a7bcec96b9ddb911bb616aead9c5b4e76b436d89afdd1a88c0894cf289e40a56a5baea90bfdbbf17bd676cecdfc3b2e16d456b8fa9db1c8ec68f4af48fe20c50a3b8e892bdd9bd15bf656eeeddc1b0e36f47698dabd91e8cc48d48f68de00e52a1b6e69cb3d7b31bb16b60e0d3cfbeed61496783a5d71082ca8346f883ee005cafb4e49eb1d5b119b36962e2d1cdbcef634b6581a7d51280c88144fa81ec025eadb2e298b7d3b71fb56f64e4d7cbbae9654d6387a1d31486ce8742fc87ea0458abb0e09ab5d1b51db76d66e6d5c9b8eb674f6185a3d11684cc8540fe85e8065aa9beee94bbdfbb13b96368e8dbc7b6e569416f8baddf188ac28b4ef08be60854a7bcec96b9ddb911bb616aead9c5b4e76b436d89afdd1a88c0894cf289e40a56a5baea90bfdbbf17bd676cecdfc3b2e16d456b8fa9db1c8ec68f4af48fe20c50a3b8e892bdd9bd15bf656eeeddc1b0e36f47698dabd91e8cc48d48f68de00e52a1b6e69cb3d7b31bb16b60e0d3cfbeed61496783a5d71082ca8346f883ee005cafb4e49eb1d5b119b36962e2d1cdbcef634b6581a7d51280c88144fa81ec025eadb2e298b7d3b71fb56f64e4d7cbbae9654d6387a1d31486ce8742fc87ea0458abb0e09ab5d1b51db76d66e6d5c9b8eb674f6185a3d11684cc8540fe85e8065aa9beee94bbdfbb13b96368e8dbc7b6e569416f8baddf188ac28b4ef08be60854a7bcec96b9ddb911bb616aead9c5b4e76b436d89afdd1a88c0894cf289e40a56a5baea90bfdbbf17bd676cecdfc3b2e16d456b8fa9db1c8ec68f4af48fe20c50a3b8e892bdd9bd15bf656eeeddc1b0e36f47698dabd91e8cc48d48f68de00e52a1b6e69cb3d7b31bb16b60e0d3cfbeed61496783a5d71082ca8346f883ee005cafb4e49eb1d5b119b36962e2d1cdbcef634b6581a7d51280c88144fa81ec025eadb2e298b7d3b71fb56f64e4d7cbbae9654d6387a1d31486ce8742fc87ea0458abb0e09ab5d1b51db76d66e6d5c9b8eb674f6185a3d11684cc8540fe85e8065aa9beee94bbdfbb13b96368e8dbc7b6e569416f8baddf188ac28b4ef08be60854a7bcec96b9ddb911bb616aead9c5b4e76b436d89afdd1a88c0894cf289e40a56a5baea90bfdbbf17bd676cecdfc3b2e16d456b8fa9db1c8ec68f4af48fe20c50a3b8e892bdd9bd15bf656eeeddc1b0e36f47698dabd91e8cc48d48f68de00e52a1b6e69cb3d7b31bb16b60e0d3cfbeed61496783a5d71082ca8346f883ee005cafb4e49eb1d5b119b36962e2d1cdbcef634b6581a7d51280c88144fa81ec025eadb2e298b7d3b71fb56f64e4d7cbbae9654d6387a1d31486ce8742fc87ea0458abb0e09ab5d1b51db76d66e6d5c9b8eb674f6185a3d11684cc8540fe85e8065aa9beee94bbdfbb13b96368e8dbc7b6e569416f8baddf188ac28b4ef08be60854a7bcec96b9ddb911bb616aead9c5b4e76b436d89afdd1a88c0894cf289e40a56a5baea90bfdbbf17bd676cecdfc3b2e16d456b8fa9db1c8ec68f4af48fe20c50a3b8e892bdd9bd15bf656eeeddc1b0e36f47698dabd91e8cc48d48f68de00e52a1b6e69cb3d7b31bb16b60e0d3cfbeed61454261ac08009f119a2b4c11df349a7dc9da02f3683d93d0b9b9dd38f619c61f9",
        "type": "nulldata"
      }
    }
  ],
  "blockhash": "9c49f121af07ca043271baff5049446c1aadf74400091ff8de6bf4087ac8778e",
  "confirmations": 1,
  "time": 1764183425,
  "blocktime": 1764183425
}