{
  "hex": "01000000000101642285eb1a41776ff6074595bcc09d3cd8f3ebf60b21b80458f03264eaabb9640100000000feffffff0200e1f50500000000fdd5046a2044df1edcd6dcc11906237338bd75747593e77e5103a567178674cff40762f7e64db0044ef486d2dcbc639269d4dd71e52eb63a05cb00e0d49c858d0ef360eeead5429c6ed4a6f2fc9c43b249f4fd51c50e961a25eb20c0f4bca5ad2ed340cecaf562bc0eb4c6929cfc23d229949d31a56ef67a458b40a094dcc5cd4eb320aeaa9502dc2e94e6b2bcdc03f209b4bd11854ed65a65ab6080b4fce5ed6e93008e8ab522fcce7406525c3ce312e9545df165ae36ba854b8060541c050d8e73e06e6a55c21cee5426727c1cc332c9747dd1458e169aa56ba040743c252dae53c04e4a75e23c8e3446121c7ca352a9141db125ee76fac50bc020145c454dce33a02e2a15825cae1466323c5c837289343d9105ce56dae52be000347c656dee13800e0a35a27c4ef486d2dcbc639269d4dd71e52eb63a05cb00e0d49c858d0ef360eeead5429c6ed4a6f2fc9c43b249f4fd51c50e961a25eb20c0f4bca5ad2ed340cecaf562bc0eb4c6929cfc23d229949d31a56ef67a458b40a094dcc5cd4eb320aeaa9502dc2e94e6b2bcdc03f209b4bd11854ed65a65ab6080b4fce5ed6e93008e8ab522fcce7406525c3ce312e9545df165ae36ba854b8060541c050d8e73e06e6a55c21cee5426727c1cc332c9747dd1458e169aa56ba040743c252dae53c04e4a75e23c8e3446121c7ca352a9141db125ee76fac50bc020145c454dce33a02e2a15825cae1466323c5c837289343d9105ce56dae52be000347c656dee13800e0a35a27c4ef486d2dcbc639269d4dd71e52eb63a05cb00e0d49c858d0ef360eeead5429c6ed4a6f2fc9c43b249f4fd51c50e961a25eb20c0f4bca5ad2ed340cecaf562bc0eb4c6929cfc23d229949d31a56ef67a458b40a094dcc5cd4eb320aeaa9502dc2e94e6b2bcdc03f209b4bd11854ed65a65ab6080b4fce5ed6e93008e8ab522fcce7406525c3ce312e9545df165ae36ba854b8060541c050d8e73e06e6a55c21cee5426727c1cc332c9747dd1458e169aa56ba040743c252dae53c04e4a75e23c8e3446121c7ca352a9141db125ee76fac50bc020145c454dce33a02e2a15825cae1466323c5c837289343d9105ce56dae52be000347c656dee13800e0a35a27c4ef486d2dcbc639269d4dd71e52eb63a05cb00e0d49c858d0ef360eeead5429c6ed4a6f2fc9c43b249f4fd51c50e961a25eb20c0f4bca5ad2ed340cecaf562bc0eb4c6929cfc23d229949d31a56ef67a458b40a094dcc5cd4eb320aeaa9502dc2e94e6b2bcdc03f209b4bd11854ed65a65ab6080b4fce5ed6e93008e8ab522fcce7406525c3ce312e9545df165ae36ba854b8060541c050d8e73e06e6a55c21cee5426727c1cc332c9747dd1458e169aa56ba040743c252dae53c04e4a75e23c8e3446121c7ca352a9141db125ee76fac50bc020145c454dce33a02e2a15825cae1466323c5c837289343d9105ce56dae52be000347c656dee13800e0a35a27c4ef486d2dcbc639269d4dd71e52eb63a05cb00e0d49c858d0ef360eeead5429c6ed4a6f2fc9c43b249f4fd51c50e961a25eb20c0f4bca5ad2ed340cecaf562bc0eb4c6929cfc23d229949d31a56ef67a458b40a094dcc5cd4eb320aeaa9502dc2e94e6b2bcdc03f209b4bd11854ed65a65ab6080b4fce5ed6e93008e8ab522fcce7406525c3ce312e9545df165ae36baa164e0b6ccceaf37ba05ba513c79af2e5a8a6b24c85bad2353fb35e51a95daaee0ca1d7c792d0000225120edab801ef993e712293773ead0430bcb0936c7f91fc2239de7af87c822610b0d02fd7509ef5d2e50afee17087ad7bb5bee1367c22d603020807b67ae0745232e5d5449d22da7ce8b57e5eb4332fc22502fae468f60a634f3e920798f71ea87a37c1c5e43028d0efab1541c8c110494258a60d77003fc051d0883696caccacd6e732d141ed952f275d4fac68260031dcc0f8460c82cf0cd59866740313fc8a268e1eb38936a2093af4d332e039845be6dee6df5aab7a3a9b9022eee42c989f09868952e5100ba1030c56b505d5b5d179ff3fa68f9620a11481af512b93fd3caa97a6fc12db6ea7b488ba1ad11ae7145b4c54c5d4b8afae03cf1ecf97fafd2a3add8029c84d6889e3e5684917cfcf02ad4968ad28d57be6ea8b874eff4e0c6dd6a907d484cd15433706f1d37bf57de11355b1fd41270ebf1fda3ee010601bb4231c7a8df7ce91a8684e0352a4bb7e2623aa7fa9e3c98aee6732e78121b07efcca01ad5c24e59433b341f828975a0ff4579cbce3ab5ffb3cc8309629d19b62151edd362a2910efa24ae5e98862356b98a6e1fd0b14c71a936af0680f15a8f664f9a59148800f651b46ee14502e38facc0771ed32e90882fff821b88b3d8dc137565ee71264c70daa46111fdd232cfae70e79a2c0af6b0fb9aa0c7efea55658d4d9286315901044da977ee5a220ecb118d7687fd94ecddecba50373837920eadb2922db52edfa1b0b22e62fce7f3b298184ba50b2002020b47a2966ff26decfbfbf3bf73b3ce299e92aba78b7367347474d32289f8639e6c6b751a638c60551ecd85ee340ebccedc59820ecf50a36fc8dd95f2b06a8cf0d92f4ccb5e358de6eb2b4cce292a2ba1f67c0a2acf88a42ffc72c3c3eaf9cc28f36d845d6add844f8e2aea88ceb2d2a0bbc4228cc919fcb3e420bb5bc34e2d79eee6303031295cc4c23fd22b3e71b70029e578bc47a591addfc289440681376694433fa68a610cf7a4e911562ae72f4917638693e0aff60f69e8b82ca2d723f8a37d5d831491e9c4924907fd89b6198c91d649ab8248fe61439c3d4544107e3f2e242a9e2811fe8c4e33d4ac338202ca9c85b6b2516917ad80a54f6a40d035dbcefd6768b4c62fa2d48e491d9ffbb1a036f945f4d80efb51cfaa02ec44baac2e2fa1837a638b7800ad10f1eed38e3944acdfc2ddd74cd22fcd2c5dd3c41274c44c690619459b2bb07e0a8d9308d08efffda7603558500f26e56d0b1f3b3bc85a8ea02eb8bc42997dd401cf33da769021ff02c22b569b25b65306759874abab6bc88a23bb4bf78e763309fa44fdf01166707a9c7e152d083c312f07b5a419fcd8614dfbef97396fdc736a0260aef92432c2f12daa4b95cfe6c036b7fd6a6a1f6bdb8582d6ab047885e9d2160259f072562ce5a61f4538d7260065d20c3a358a132134e798086340726d012794a2bbda3cf31814e362706db30c24631222399f63395687dc723eebae5a42945d534936082c32fbd155970d186810370d751ad0562986f4278307c69c7c5eb001322fd2d1446d582acf562535a4a852496afd3e473fb76ad8043b5932a6970c5b56dea0621b57356c2f7e5460e4b0e095f01e86367a9255306b3c6b3ff094208c885c5a54171c5f90ea9b0f5994b3a81905f96200f12ebd0d98044af1968b891ed2f23ac918f1912f7ebf6036f64f2ed3d8083c4fab56bff99ba25971ca350c6d36d228667719f6cc326e9de613c3d8158ad02b7f0863f4e1bcab7af940fe663e78664cfe7947311f3eecfc69da57057267e6bb3b32fe63835501941770e4990db486dd5909b7e895e3c9892b7f6ab3c3296d0e8fa2f2caa64d5767a76f69af7dc1c391e59eaa4410a5549c65c0ea469ebb43d86322464a0c257b95ebe9943ee056604d7ca987addcd9cf7e2ebf3b35fca4b6a7113f6d6a1fa5852b452329ee9f0c914e950bc69750f1ad44534501dfe570c646e63e440d99908d887ff52af4a2019244bebc1989513744fd915fa055e2cca32d5b8a6c500d93e916e13808b5f569f6012428e2c3b4a91b2a0416ce0faa946a91d600a8f78a6099637195e0490a8ed40869043127dd510f6d02f13fbab09784f0917000ec5a6f1cc48203a769d4cd0ce7892f0d01be09278a1d39cdbbc6b8d938193026962e829e84ba0701d1e26dc4d222d94106bf93fcfb18f24e6105775cc5104c0845a3bddd8fad1cce6d3b0061ff2548e1518f318eea8bbad8f12fd175c71c24b66a8c61b43de7fc0c06f90b3e598a74aa5e4d2ac45b645180fdcea8327ec918ca67f74575787aa9788ff5b69d46c1a84f24822a6b2954b4e05a8e77aeae65119115263302ac30615ae2a9749f333e2a962838424bd6ec9541d97b72ac00270dada92d13ec53f8bfc2b713e9c3987ab57464713e19ae93b8f9bd5d894621a51a049b20426c7c0c3a781b2ce2312da2a877b24da0c0fb121212a486cd4d7518ca353728de20b50b7c993dfcb725e58e3101b41973337d6f41aef9e9c3a6e7d7ba661eccd44667f486a27be0cb349b92235cb228a499ed259d79cb293d928a5afdd4546c257912a41558ee125dc00ac6938087ea5dce3420a1da54094c6ed8bcdf160e9215f197bd5af161d4e080b6f0a6acb472f706d626b27898ca3c56d1ddf4693579f981de91a1594f5ee8a901f92d8e806601ee117863314b3cc6f8ae6520b33ecc58976848976924a8fe1d041503bd6f07f9f53c3035173c9c219bac6aff8a39f8c8f615a4482ad18effe3d010626836e1ce3a49d249234494fa1fc969fb67ee85820b90b509e061c5c8a82c0554f2b442947772ba6947f57fd35e0a1713aee8209a80032808034e65034e19bdf44ad4cba1125b5213d6b2e6755d041a7d8642eca4f56c419932ae2645f1f577adb0463055a6ff03049afa91386ddae09c170fd39970f5ce0196c8333b7e331ef2f57133da627748f68aa1672bd48b9c9b59db7c28ada30afe5a430fd56e5349e9d6b193c74365e993c57356c5c7e883bf443ee2748e47fc3b6a2422f60233eb3f87e73eead869d337c1f1de5e8e923475cad5d5d4ad530924ac23ff87041e92363ae77c2f51272e4dac81d626a8cb08c9002d882b20d0634cfb69f16253fb4f3ffee448591d60458ddd87d880c089bb87e167d4f387dcfa9776fd59e8a1822a92241efbf52880839379664804f7bda24dccf21b84414ed36e7a1d7571521c6c077c1e49c972356aa0540e9fd6f84d0f653e4708ff767a77b62596dee66597494d6c87aae956ec087178f4b4d7697f242406101ae7977ba0ee5d36661b810159bb4252df5d3c8126c5f03eeb3f9808b3a9792d99e23381bb6252e0f810e0af070b1c364e5f69929599a5adbec3c8d3d5d9f5f8051f2a4c727a8d93a4b1d1dfea0620485767737b959eaeb4b7bcbfc8e3e8fdff2f3338406e79879396a3a5acbbc2d3e6f2f8000000000000000000001421344601fd210500b25a87f269879f4167854a62d869ce43654221e2f46aa002c5848f6f87f2e7c05f9539cc9a68badf3613eab99fd644cf6ebe7986a19163a5b620e3fb193ba1b01cadb373b01398c60d8b9cd81190f74b3857559086f57b185463086717fef7e4a935c7568dadde72f241d49b52be2e59810782f69acde59629c7408fd29b243fbd61a38f595290c5bd01e6295d6e6ea06e105886b0108dc42aac8da09e451233fb7c73d953e363e8ca7b88794048c1e7300b5937f2e26e10b8a940c745a294b491eb81fde80aa844c36d16f62c06522f3cd1dca01103966c9bcfb054e3aa3ee943895aa213ea550cc47b97739c6012e93c79a42e087618787a7d73f74d9cf2eca901eef8845c376ed4a082ad3b82c1518b02283c42c214a782bddfec68ea40d3cfe3cd6fb4ae58d791493ccef7a7d12b2f88a6a66f9116ba28a3a4de1cf84c885074a464e79f99eee779b2a3a460e6278a72eb29b6503768d866f3c1a6603a62475bc88e16144f194aecc9c5b1198769eab789d2a220f02757c210081442bef919937fc2c543f596dc40b0852f097ee06f1908997dfa12d299bb24ce85eb8b6d701a0820c29b7b7ce6de8f5db24756944d1fa73d0df4b5ba8b690fd364aa018a8de9c9ec89a3dfb0bdd79b6944f32ef3549d1475efabc52a72fc88017cc584a13f2c0e79060ff3a663952039bdfd2ff09e14ba3fd174e81cdaa61a98875ac8d2eb014dc1f1c10ed779d75fe17e26c521cf6f05cba3f0af7c3f4eedac7d5eff14884f5e6e2f27dfb0586330ff6e84aed75838eba61f24b9374f0aac8641155453b1656d6f10c279de2749f927a5a0b3c2f2313f0cf1c7b304adc9f578abd046240b58ff5f2dd71a8b38afc2db2eb03f4c77585c73e4fc7d18d97566570666833d1e994cb2561719d77ed402cc629ecee558ed6fb583eacefcca3a888c8d1a6c6cc57c541c929d362c81303c90d79f3cd03c4e2d3b0e329586d8b268741b8d1dc2c76a9bab88367007971fe29f8730e1fd8c6ade67b1af6dae9ed54b52e4e89c0ce768a780bcf9159e1784610e8b506394ad646d630515de0baabf2a622f80d03419a30dda9b81043d90c83ae378381db3e934e7546c2d05d89904c9be6ffe095fbecbdbdcced28f78cef79a7d000a62026ab3dbfa112df7838991ee7818b880aec8b6e25c544a8c5b3b4fe50e00f671959a42ecf64aa2d513e55d2fd382ad9feaf83195ca25b0e129c1173c06af3a3878d6f218e5ce1adb248e89f33c3489ced35a0a783f2f3315d9ddf2dd141ae73e8c95d3a911e2157ac482b43f3c5c81145400801c88abfd60de74844f8d306fd0302ff1524351a89b59d2e36921aa7f97bdc588d2db3531c3691fd592b4e5df9b10214290a9841ab9ab50416260c5bbbde8af61af1cb8e6f89d458bbd9e00c3f346a1ea98b14e430c08a707cc4e74b840bc64ad1bec3dd2625e27e222f5e271bb75608d1baa0520b98dbf2bf65c062338db9564fedaab5b471c2de046c1009e8627afbcdad0066728a4ff8281ab3c631c88d35c6a194de78d247bed6c3eb3cfad290b664a57e06c78b613d9da5e37eb525011aaa1495697d5440c0782d0a61bd539d6a9507b26561291b5474adb1183589dbe6fea16b63d08c12c095f61916df7a6c39c04fe640bd877e81b3da4a527a22984636617e256a02ccfdf145734d5cb9118e8e40750c56cf7a4501ebdbd751e9ab953657c4112d79a2513623b4af3e00d46c4c6f78f7825b3580250dcd3fd956578a88dc765cdd11204f54a6d7d36295cae95aaee854e5cbb3c0748b302b512843c2ad291c3c5cf1bc30bdd2a034d88a2abe21879120ac66fe0145740d72affa967000000",
  "txid": "588fd5feca01e29fa2ddbf309b9baf6136d916378861daad1df8ba0ea51610d0",
  "hash": "c1f147f58989135c9ce2dbee1a55c4f9ef763e96acb10b99da7c1ba42f6342f0",
  "size": 5085,
  "vsize": 2278,
  "version": 1,
  "locktime": 103,
  "vin": [
    {
      "txid": "64b9abea6432f05804b8210bf6ebf3d83c9dc0bc954507f66f77411aeb852264",
      "vout": 1,
      "scriptSig": {
        "asm": "",
        "hex": ""
      },
      "txinwitness": [
        "ef5d2e50afee17087ad7bb5bee1367c22d603020807b67ae0745232e5d5449d22da7ce8b57e5eb4332fc22502fae468f60a634f3e920798f71ea87a37c1c5e43028d0efab1541c8c110494258a60d77003fc051d0883696caccacd6e732d141ed952f275d4fac68260031dcc0f8460c82cf0cd59866740313fc8a268e1eb38936a2093af4d332e039845be6dee6df5aab7a3a9b9022eee42c989f09868952e5100ba1030c56b505d5b5d179ff3fa68f9620a11481af512b93fd3caa97a6fc12db6ea7b488ba1ad11ae7145b4c54c5d4b8afae03cf1ecf97fafd2a3add8029c84d6889e3e5684917cfcf02ad4968ad28d57be6ea8b874eff4e0c6dd6a907d484cd15433706f1d37bf57de11355b1fd41270ebf1fda3ee010601bb4231c7a8df7ce91a8684e0352a4bb7e2623aa7fa9e3c98aee6732e78121b07efcca01ad5c24e59433b341f828975a0ff4579cbce3ab5ffb3cc8309629d19b62151edd362a2910efa24ae5e98862356b98a6e1fd0b14c71a936af0680f15a8f664f9a59148800f651b46ee14502e38facc0771ed32e90882fff821b88b3d8dc137565ee71264c70daa46111fdd232cfae70e79a2c0af6b0fb9aa0c7efea55658d4d9286315901044da977ee5a220ecb118d7687fd94ecddecba50373837920eadb2922db52edfa1b0b22e62fce7f3b298184ba50b2002020b47a2966ff26decfbfbf3bf73b3ce299e92aba78b7367347474d32289f8639e6c6b751a638c60551ecd85ee340ebccedc59820ecf50a36fc8dd95f2b06a8cf0d92f4ccb5e358de6eb2b4cce292a2ba1f67c0a2acf88a42ffc72c3c3eaf9cc28f36d845d6add844f8e2aea88ceb2d2a0bbc4228cc919fcb3e420bb5bc34e2d79eee6303031295cc4c23fd22b3e71b70029e578bc47a591addfc289440681376694433fa68a610cf7a4e911562ae72f4917638693e0aff60f69e8b82ca2d723f8a37d5d831491e9c4924907fd89b6198c91d649ab8248fe61439c3d4544107e3f2e242a9e2811fe8c4e33d4ac338202ca9c85b6b2516917ad80a54f6a40d035dbcefd6768b4c62fa2d48e491d9ffbb1a036f945f4d80efb51cfaa02ec44baac2e2fa1837a638b7800ad10f1eed38e3944acdfc2ddd74cd22fcd2c5dd3c41274c44c690619459b2bb07e0a8d9308d08efffda7603558500f26e56d0b1f3b3bc85a8ea02eb8bc42997dd401cf33da769021ff02c22b569b25b65306759874abab6bc88a23bb4bf78e763309fa44fdf01166707a9c7e152d083c312f07b5a419fcd8614dfbef97396fdc736a0260aef92432c2f12daa4b95cfe6c036b7fd6a6a1f6bdb8582d6ab047885e9d2160259f072562ce5a61f4538d7260065d20c3a358a132134e798086340726d012794a2bbda3cf31814e362706db30c24631222399f63395687dc723eebae5a42945d534936082c32fbd155970d186810370d751ad0562986f4278307c69c7c5eb001322fd2d1446d582acf562535a4a852496afd3e473fb76ad8043b5932a6970c5b56dea0621b57356c2f7e5460e4b0e095f01e86367a9255306b3c6b3ff094208c885c5a54171c5f90ea9b0f5994b3a81905f96200f12ebd0d98044af1968b891ed2f23ac918f1912f7ebf6036f64f2ed3d8083c4fab56bff99ba25971ca350c6d36d228667719f6cc326e9de613c3d8158ad02b7f0863f4e1bcab7af940fe663e78664cfe7947311f3eecfc69da57057267e6bb3b32fe63835501941770e4990db486dd5909b7e895e3c9892b7f6ab3c3296d0e8fa2f2caa64d5767a76f69af7dc1c391e59eaa4410a5549c65c0ea469ebb43d86322464a0c257b95ebe9943ee056604d7ca987addcd9cf7e2ebf3b35fca4b6a7113f6d6a1fa5852b452329ee9f0c914e950bc69750f1ad44534501dfe570c646e63e440d99908d887ff52af4a2019244bebc1989513744fd915fa055e2cca32d5b8a6c500d93e916e13808b5f569f6012428e2c3b4a91b2a0416ce0faa946a91d600a8f78a6099637195e0490a8ed40869043127dd510f6d02f13fbab09784f0917000ec5a6f1cc48203a769d4cd0ce7892f0d01be09278a1d39cdbbc6b8d938193026962e829e84ba0701d1e26dc4d222d94106bf93fcfb18f24e6105775cc5104c0845a3bddd8fad1cce6d3b0061ff2548e1518f318eea8bbad8f12fd175c71c24b66a8c61b43de7fc0c06f90b3e598a74aa5e4d2ac45b645180fdcea8327ec918ca67f74575787aa9788ff5b69d46c1a84f24822a6b2954b4e05a8e77aeae65119115263302ac30615ae2a9749f333e2a962838424bd6ec9541d97b72ac00270dada92d13ec53f8bfc2b713e9c3987ab57464713e19ae93b8f9bd5d894621a51a049b20426c7c0c3a781b2ce2312da2a877b24da0c0fb121212a486cd4d7518ca353728de20b50b7c993dfcb725e58e3101b41973337d6f41aef9e9c3a6e7d7ba661eccd44667f486a27be0cb349b92235cb228a499ed259d79cb293d928a5afdd4546c257912a41558ee125dc00ac6938087ea5dce3420a1da54094c6ed8bcdf160e9215f197bd5af161d4e080b6f0a6acb472f706d626b27898ca3c56d1ddf4693579f981de91a1594f5ee8a901f92d8e806601ee117863314b3cc6f8ae6520b33ecc58976848976924a8fe1d041503bd6f07f9f53c3035173c9c219bac6aff8a39f8c8f615a4482ad18effe3d010626836e1ce3a49d249234494fa1fc969fb67ee85820b90b509e061c5c8a82c0554f2b442947772ba6947f57fd35e0a1713aee8209a80032808034e65034e19bdf44ad4cba1125b5213d6b2e6755d041a7d8642eca4f56c419932ae2645f1f577adb0463055a6ff03049afa91386ddae09c170fd39970f5ce0196c8333b7e331ef2f57133da627748f68aa1672bd48b9c9b59db7c28ada30afe5a430fd56e5349e9d6b193c74365e993c57356c5c7e883bf443ee2748e47fc3b6a2422f60233eb3f87e73eead869d337c1f1de5e8e923475cad5d5d4ad530924ac23ff87041e92363ae77c2f51272e4dac81d626a8cb08c9002d882b20d0634cfb69f16253fb4f3ffee448591d60458ddd87d880c089bb87e167d4f387dcfa9776fd59e8a1822a92241efbf52880839379664804f7bda24dccf21b84414ed36e7a1d7571521c6c077c1e49c972356aa0540e9fd6f84d0f653e4708ff767a77b62596dee66597494d6c87aae956ec087178f4b4d7697f242406101ae7977ba0ee5d36661b810159bb4252df5d3c8126c5f03eeb3f9808b3a9792d99e23381bb6252e0f810e0af070b1c364e5f69929599a5adbec3c8d3d5d9f5f8051f2a4c727a8d93a4b1d1dfea0620485767737b959eaeb4b7bcbfc8e3e8fdff2f3338406e79879396a3a5acbbc2d3e6f2f8000000000000000000001421344601",
        "00b25a87f269879f4167854a62d869ce43654221e2f46aa002c5848f6f87f2e7c05f9539cc9a68badf3613eab99fd644cf6ebe7986a19163a5b620e3fb193ba1b01cadb373b01398c60d8b9cd81190f74b3857559086f57b185463086717fef7e4a935c7568dadde72f241d49b52be2e59810782f69acde59629c7408fd29b243fbd61a38f595290c5bd01e6295d6e6ea06e105886b0108dc42aac8da09e451233fb7c73d953e363e8ca7b88794048c1e7300b5937f2e26e10b8a940c745a294b491eb81fde80aa844c36d16f62c06522f3cd1dca01103966c9bcfb054e3aa3ee943895aa213ea550cc47b97739c6012e93c79a42e087618787a7d73f74d9cf2eca901eef8845c376ed4a082ad3b82c1518b02283c42c214a782bddfec68ea40d3cfe3cd6fb4ae58d791493ccef7a7d12b2f88a6a66f9116ba28a3a4de1cf84c885074a464e79f99eee779b2a3a460e6278a72eb29b6503768d866f3c1a6603a62475bc88e16144f194aecc9c5b1198769eab789d2a220f02757c210081442bef919937fc2c543f596dc40b0852f097ee06f1908997dfa12d299bb24ce85eb8b6d701a0820c29b7b7ce6de8f5db24756944d1fa73d0df4b5ba8b690fd364aa018a8de9c9ec89a3dfb0bdd79b6944f32ef3549d1475efabc52a72fc88017cc584a13f2c0e79060ff3a663952039bdfd2ff09e14ba3fd174e81cdaa61a98875ac8d2eb014dc1f1c10ed779d75fe17e26c521cf6f05cba3f0af7c3f4eedac7d5eff14884f5e6e2f27dfb0586330ff6e84aed75838eba61f24b9374f0aac8641155453b1656d6f10c279de2749f927a5a0b3c2f2313f0cf1c7b304adc9f578abd046240b58ff5f2dd71a8b38afc2db2eb03f4c77585c73e4fc7d18d97566570666833d1e994cb2561719d77ed402cc629ecee558ed6fb583eacefcca3a888c8d1a6c6cc57c541c929d362c81303c90d79f3cd03c4e2d3b0e329586d8b268741b8d1dc2c76a9bab88367007971fe29f8730e1fd8c6ade67b1af6dae9ed54b52e4e89c0ce768a780bcf9159e1784610e8b506394ad646d630515de0baabf2a622f80d03419a30dda9b81043d90c83ae378381db3e934e7546c2d05d89904c9be6ffe095fbecbdbdcced28f78cef79a7d000a62026ab3dbfa112df7838991ee7818b880aec8b6e25c544a8c5b3b4fe50e00f671959a42ecf64aa2d513e55d2fd382ad9feaf83195ca25b0e129c1173c06af3a3878d6f218e5ce1adb248e89f33c3489ced35a0a783f2f3315d9ddf2dd141ae73e8c95d3a911e2157ac482b43f3c5c81145400801c88abfd60de74844f8d306fd0302ff1524351a89b59d2e36921aa7f97bdc588d2db3531c3691fd592b4e5df9b10214290a9841ab9ab50416260c5bbbde8af61af1cb8e6f89d458bbd9e00c3f346a1ea98b14e430c08a707cc4e74b840bc64ad1bec3dd2625e27e222f5e271bb75608d1baa0520b98dbf2bf65c062338db9564fedaab5b471c2de046c1009e8627afbcdad0066728a4ff8281ab3c631c88d35c6a194de78d247bed6c3eb3cfad290b664a57e06c78b613d9da5e37eb525011aaa1495697d5440c0782d0a61bd539d6a9507b26561291b5474adb1183589dbe6fea16b63d08c12c095f61916df7a6c39c04fe640bd877e81b3da4a527a22984636617e256a02ccfdf145734d5cb9118e8e40750c56cf7a4501ebdbd751e9ab953657c4112d79a2513623b4af3e00d46c4c6f78f7825b3580250dcd3fd956578a88dc765cdd11204f54a6d7d36295cae95aaee854e5cbb3c0748b302b512843c2ad291c3c5cf1bc30bdd2a034d88a2abe21879120ac66fe0145740d72affa9"
      ],
      "sequence": 4294967294
    }
  ],
  "vout": [
    {
      "value": 1.0,
      "n": 0,
      "scriptPubKey": {
        "asm": "OP_RETURN 44df1edcd6dcc11906237338bd75747593e77e5103a567178674cff40762f7e6 4ef486d2dcbc639269d4dd71e52eb63a05cb00e0d49c858d0ef360eeead5429c6ed4a6f2fc9c43b249f4fd51c50e961a25eb20c0f4bca5ad2ed340cecaf562bc0eb4c6929cfc23d229949d31a56ef67a458b40a094dcc5cd4eb320aeaa9502dc2e94e6b2bcdc03f209b4bd11854ed65a65ab6080b4fce5ed6e93008e8ab522fcce7406525c3ce312e9545df165ae36ba854b8060541c050d8e73e06e6a55c21cee5426727c1cc332c9747dd1458e169aa56ba040743c252dae53c04e4a75e23c8e3446121c7ca352a9141db125ee76fac50bc020145c454dce33a02e2a15825cae1466323c5c837289343d9105ce56dae52be000347c656dee13800e0a35a27c4ef486d2dcbc639269d4dd71e52eb63a05cb00e0d49c858d0ef360eeead5429c6ed4a6f2fc9c43b249f4fd51c50e961a25eb20c0f4bca5ad2ed340cecaf562bc0eb4c6929cfc23d229949d31a56ef67a458b40a094dcc5cd4eb320aeaa9502dc2e94e6b2bcdc03f209b4bd11854ed65a65ab6080b4fce5ed6e93008e8ab522fcce7406525c3ce312e9545df165ae36ba854b8060541c050d8e73e06e6a55c21cee5426727c1cc332c9747dd1458e169aa56ba040743c252dae53c04e4a75e23c8e3446121c7ca352a9141db125ee76fac50bc020145c454dce33a02e2a15825cae1466323c5c837289343d9105ce56dae52be000347c656dee13800e0a35a27c4ef486d2dcbc639269d4dd71e52eb63a05cb00e0d49c858d0ef360eeead5429c6ed4a6f2fc9c43b249f4fd51c50e961a25eb20c0f4bca5ad2ed340cecaf562bc0eb4c6929cfc23d229949d31a56ef67a458b40a094dcc5cd4eb320aeaa9502dc2e94e6b2bcdc03f209b4bd11854ed65a65ab6080b4fce5ed6e93008e8ab522fcce7406525c3ce312e9545df165ae36ba854b8060541c050d8e73e06e6a55c21cee5426727c1cc332c9747dd1458e169aa56ba040743c252dae53c04e4a75e23c8e3446121c7ca352a9141db125ee76fac50bc020145c454dce33a02e2a15825cae1466323c5c837289343d9105ce56dae52be000347c656dee13800e0a35a27c4ef486d2dcbc639269d4dd71e52eb63a05cb00e0d49c858d0ef360eeead5429c6ed4a6f2fc9c43b249f4fd51c50e961a25eb20c0f4bca5ad2ed340cecaf562bc0eb4c6929cfc23d229949d31a56ef67a458b40a094dcc5cd4eb320aeaa9502dc2e94e6b2bcdc03f209b4bd11854ed65a65ab6080b4fce5ed6e93008e8ab522fcce7406525c3ce312e9545df165ae36ba854b8060541c050d8e73e06e6a55c21cee5426727c1cc332c9747dd1458e169aa56ba040743c252dae53c04e4a75e23c8e3446121c7ca352a9141db125ee76fac50bc020145c454dce33a02e2a15825cae1466323c5c837289343d9105ce56dae52be000347c656dee13800e0a35a27c4ef486d2dcbc639269d4dd71e52eb63a05cb00e0d49c858d0ef360eeead5429c6ed4a6f2fc9c43b249f4fd51c50e961a25eb20c0f4bca5ad2ed340cecaf562bc0eb4c6929cfc23d229949d31a56ef67a458b40a094dcc5cd4eb320aeaa9502dc2e94e6b2bcdc03f209b4bd11854ed65a65ab6080b4fce5ed6e93008e8ab522fcce7406525c3ce312e9545df165ae36baa164e0b6ccceaf37ba05ba513c79af2e5a8a6b24c85bad2353fb35e51a95daae",
        "hex": "6a2044df1edcd6dcc11906237338bd75747593e77e5103a567178674cff40762f7e64db0044ef486d2dcbc639269d4dd71e52eb63a05cb00e0d49c858d0ef360eeead5429c6ed4a6f2fc9c43b249f4fd51c50e961a25eb20c0f4bca5ad2ed340cecaf562bc0eb4c6929cfc23d229949d31a56ef67a458b40a094dcc5cd4eb320aeaa9502dc2e94e6b2bcdc03f209b4bd11854ed65a65ab6080b4fce5ed6e93008e8ab522fcce7406525c3ce312e9545df165ae36ba854b8060541c050d8e73e06e6a55c21cee5426727c1cc332c9747dd1458e169aa56ba040743c252dae53c04e4a75e23c8e3446121c7ca352a9141db125ee76fac50bc020145c454dce33a02e2a15825cae1466323c5c837289343d9105ce56dae52be000347c656dee13800e0a35a27c4ef486d2dcbc639269d4dd71e52eb63a05cb00e0d49c858d0ef360eeead5429c6ed4a6f2fc9c43b249f4fd51c50e961a25eb20c0f4bca5ad2ed340cecaf562bc0eb4c6929cfc23d229949d31a56ef67a458b40a094dcc5cd4eb320aeaa9502dc2e94e6b2bcdc03f209b4bd11854ed65a65ab6080b4fce5ed6e93008e8ab522fcce7406525c3ce312e9545df165ae36ba854b8060541c050d8e73e06e6a55c21cee5426727c1cc332c9747dd1458e169aa56ba040743c252dae53c04e4a75e23c8e3446121c7ca352a9141db125ee76fac50bc020145c454dce33a02e2a15825cae1466323c5c837289343d9105ce56dae52be000347c656dee13800e0a35a27c4ef486d2dcbc639269d4dd71e52eb63a05cb00e0d49c858d0ef360eeead5429c6ed4a6f2fc9c43b249f4fd51c50e961a25eb20c0f4bca5ad2ed340cecaf562bc0eb4c6929cfc23d229949d31a56ef67a458b40a094dcc5cd4eb320aeaa9502dc2e94e6b2bcdc03f209b4bd11854ed65a65ab6080b4fce5ed6e93008e8ab522fcce7406525c3ce312e9545df165ae36ba854b8060541c050d8e73e06e6a55c21cee5426727c1cc332c9747dd1458e169aa56ba040743c252dae53c04e4a75e23c8e3446121c7ca352a9141db125ee76fac50bc020145c454dce33a02e2a15825cae1466323c5c837289343d9105ce56dae52be000347c656dee13800e0a35a27c4ef486d2dcbc639269d4dd71e52eb63a05cb00e0d49c858d0ef360eeead5429c6ed4a6f2fc9c43b249f4fd51c50e961a25eb20c0f4bca5ad2ed340cecaf562bc0eb4c6929cfc23d229949d31a56ef67a458b40a094dcc5cd4eb320aeaa9502dc2e94e6b2bcdc03f209b4bd11854ed65a65ab6080b4fce5ed6e93008e8ab522fcce7406525c3ce312e9545df165ae36ba854b8060541c050d8e73e06e6a55c21cee5426727c1cc332c9747dd1458e169aa56ba040743c252dae53c04e4a75e23c8e3446121c7ca352a9141db125ee76fac50bc020145c454dce33a02e2a15825cae1466323c5c837289343d9105ce56dae52be000347c656dee13800e0a35a27c4ef486d2dcbc639269d4dd71e52eb63a05cb00e0d49c858d0ef360eeead5429c6ed4a6f2fc9c43b249f4fd51c50e961a25eb20c0f4bca5ad2ed340cecaf562bc0eb4c6929cfc23d229949d31a56ef67a458b40a094dcc5cd4eb320aeaa9502dc2e94e6b2bcdc03f209b4bd11854ed65a65ab6080b4fce5ed6e93008e8ab522fcce7406525c3ce312e9545df165ae36baa164e0b6ccceaf37ba05ba513c79af2e5a8a6b24c85bad2353fb35e51a95daae",
        "type": "nulldata"
      }
    },
    {
      "value": 499997.9662,
      "n": 1,
      "scriptPubKey": {
        "asm": "1 edab801ef993e712293773ead0430bcb0936c7f91fc2239de7af87c822610b0d",
        "hex": "5120edab801ef993e712293773ead0430bcb0936c7f91fc2239de7af87c822610b0d",
        "reqSigs": 1,
        "type": "witness_v1_scripthash",
        "addresses": [
          "3QJmnh"
        ]
      }
    }
  ],
  "blockhash": "15af9b025c636b87e0a10c18a1a8de0e5f3c2069ad563b293161176d75df89a4",
  "confirmations": 1,
  "time": 1764174659,
  "blocktime": 1764174659
}