{
  "hex": "01000000000101485e5162d28d8668c950e2881b3bdb7887a2364285c75a7a188807cf2c7465b10000000000feffffff02a020df63792d0000225120c76fe68ff6515ffaa783c247a6f7996377f83bd514794d7d22462d8b5adc8ac700e1f50500000000fdd5046a20bf951db8ea4605be60da4d1e181c72d8154dd2bfd91b491fcb93ecb3f68ff1e54db00492384927e00c6a162de65205105f9639098c3a86c8ab0c48db55095c2790ee77b2186907c02c4a360dc67225307fb61929ac1aa6e88b2c68fb75297c07b0ce57d2780967a04c2a566da61245501fd67949cc7ac688eb4c089b15491c67d0ae37f2582947806c0a764d863265703ff65969ec5ae6a8cb6c28bb35693c47f08e1712b8c9a7608cea96ad66d28590df16b9890cba06482b8cc85bd589dca7106ef73298e98740accab68d46f2a5b0ff3699a92c9a26680bace87bf5a9fc87304ed752f889e720ccaad6ed2692c5d09f56f9c94cfa46086bcc881b95c99ce7502eb772d8a9c700ec8af6cd06b2e5f0bf76d9e96cda66284beca83bb5e9bcc7700e9792384927e00c6a162de65205105f9639098c3a86c8ab0c48db55095c2790ee77b2186907c02c4a360dc67225307fb61929ac1aa6e88b2c68fb75297c07b0ce57d2780967a04c2a566da61245501fd67949cc7ac688eb4c089b15491c67d0ae37f2582947806c0a764d863265703ff65969ec5ae6a8cb6c28bb35693c47f08e1712b8c9a7608cea96ad66d28590df16b9890cba06482b8cc85bd589dca7106ef73298e98740accab68d46f2a5b0ff3699a92c9a26680bace87bf5a9fc87304ed752f889e720ccaad6ed2692c5d09f56f9c94cfa46086bcc881b95c99ce7502eb772d8a9c700ec8af6cd06b2e5f0bf76d9e96cda66284beca83bb5e9bcc7700e9792384927e00c6a162de65205105f9639098c3a86c8ab0c48db55095c2790ee77b2186907c02c4a360dc67225307fb61929ac1aa6e88b2c68fb75297c07b0ce57d2780967a04c2a566da61245501fd67949cc7ac688eb4c089b15491c67d0ae37f2582947806c0a764d863265703ff65969ec5ae6a8cb6c28bb35693c47f08e1712b8c9a7608cea96ad66d28590df16b9890cba06482b8cc85bd589dca7106ef73298e98740accab68d46f2a5b0ff3699a92c9a26680bace87bf5a9fc87304ed752f889e720ccaad6ed2692c5d09f56f9c94cfa46086bcc881b95c99ce7502eb772d8a9c700ec8af6cd06b2e5f0bf76d9e96cda66284beca83bb5e9bcc7700e9792384927e00c6a162de65205105f9639098c3a86c8ab0c48db55095c2790ee77b2186907c02c4a360dc67225307fb61929ac1aa6e88b2c68fb75297c07b0ce57d2780967a04c2a566da61245501fd67949cc7ac688eb4c089b15491c67d0ae37f2582947806c0a764d863265703ff65969ec5ae6a8cb6c28bb35693c47f08e1712b8c9a7608cea96ad66d28590df16b9890cba06482b8cc85bd589dca7106ef73298e98740accab68d46f2a5b0ff3699a92c9a26680bace87bf5a9fc87304ed752f889e720ccaad6ed2692c5d09f56f9c94cfa46086bcc881b95c99ce7502eb772d8a9c700ec8af6cd06b2e5f0bf76d9e96cda66284beca83bb5e9bcc7700e9792384927e00c6a162de65205105f9639098c3a86c8ab0c48db55095c2790ee77b2186907c02c4a360dc67225307fb61929ac1aa6e88b2c68fb75297c07b0ce57d2780967a04c2a566da61245501fd67949cc7ac688eb4c089b15491c67d0ae37f2582947806c0a764d863265703ff65969ec5ae6a8cb6c28bb35693c47f08e1712b8c9a7608cea96ad66d28590df16b96bb142804013a97a462a01d3331cd0710cc0e6adb9f170ab994f6cbfe7b4351b02fd7509fc8ccc3e994da723badae96bbfbc6c9d116e89d51d2891867a095264b5d545d284d18e3f3eaf3f7785c8cb4e349e88942638abb257243f5581a5ff50b230a433acc07df0d1bb09957cfa2df7ac22c88467584a3f6b64dbde3e9aee60275d9a1245d1d0bc49383f839510a01d299508127009a076934a8818f8f29c6da20c2e78ea203566ac65ace589ff5bb65b8e2fa3a30c24c3c70219942d39f40988d15bde4f211b2e7f202c55b0d8494db74d8bb455a0a8df445f5534c78a57ccc23bd6a5f20ac934d35bc81b2c37069a52a9139c353481a19272004a7b617b25d2ca20d05329057ef275ce31d638e756a03dc8c450c01e786df69b553a2c3f723f354cf8b7f184efd5777a3361c13a22c72f46467f8d8dd8b7aa28703561343f346244b4b3639ffefe33a6defbe1ebe2b64f2d7102d17aff9a853aba66a11fa8c154048291f9219f10ffba467f688b1b5fe88d86cc700d65cd0e5a7578243bd74663961f33d9e1324644da156366ac8af848937ec768d23eab8fb36a221472c1e91e67134cc7cfd1f55c7456c6dbe6cd31bd14f1f55523c7f3c8be9cbb9212a81b8cf1224098dad30f0b153d26c738998b07e2795cf6cdbf4e7a6fde97f5357483666691478568d53b88b31af65a4dbd0ea3b013395b39b1ab410383cd17b8e71fc0cd2889c1d2aaf0fa9dc1e1d8866dafa9f96a3bd715e8cee5edb8e704e19321fed4dd7223dd43d208f0de20a63b576672f08e65035e01df2299aacce4d31e5e4ae4efde9f88bf7c83f126a3af3d2004d30b88a9468a398a6ab721b0cb1ffa4198abe2e8523fde57575b42fcf2b3834efdf502759cc2a4d80d78673305be76d911976e6556e2a3aff31ebe2678e977824c28f196a0b0b895c8ce7a723d754cb801c3f9d2f5b7cc402998618c2cb8774ef72753b051e6bfc60311fe534087284e80f1cd17c8af6b6658f2c6ecbb9f63bde66e6232c47c9edb09685bfd8ba97b53818df9b0e099e94a83c0550c4bd8da4b028922e54e0dfdce1e8642ded2c2dd8eac9e86bafedd302d1d7942a31f667be2b82ba148c11d23e642b33ada95dd8d1ddc7200acf0ae32523a9db336965bcf99ffc82d4fb80759d88b901711ed19d22bae3e6971ffff6701944d5cb76a1372baee80fb8115ba412122acd1fb4c83e019ab3e9b45ac8e70f9a27d483e272071ef0355739ed7ce239c1e68e16b42abd34262a55cff31c888e61ed9bc6fb204537e6bcf3de72f4204b92f19dc944a02532fd72614e280c564c8cbb51651ef1e0e6e87bb61e6c68428b1dd9f91e95e8621433f1d6bb065d700783b9316e3762aad241db83f7599ec7cc84272687af084aea1a969cefed6ef92b1afb6d4351d2d3db54a87fba0e9c64ef67d1b18f1a323e3bf0d8d82f51ccdd78a3dec67661210d793db6b0ad9e3b0a221539a560f84a085c64c48f859d7f4d445d8893b2637af83eebf478d2fc0d95c3df5e5ba0c3ceb1b9d723da7ec769159e8a818889617e3fa317a2d90061b022bc5ddefa3a7427da023f425c8dcf8cac501b4df98a4cb98872bbade30b0e31685d59ff87926c4eb90f57803b4b0f8e2dac08b39f5d54b2363adfe855622090e05def7b84b8d1e9a45a10a2b385c07c57ebfc4b115a97238a2e40843b479e55ca2b193901b21298914a98ac5acce27531046e324777d42987a8cabda14dbd6dee8e8e79c4123081881ba6c0d48480de78b0fee463d118030e1fa9ebb1a3015d543451f9c0996620a15e6f0863442d0e8cd144bdbcb8ca665c4bd00b39ff4a3dfeb3b1fe0c945ed8d928ae34262c771f5e5e389b5146198ce97893b55c7fa43df6232a9df7570eafeddc1349b08c8b013156532e55f76ed528b8bbbeea228a33cf25c37a06161d3aefe1b93da7cbe40374faeea50e06ba87c81e5dadbb96df7ccec718eebdfbc9d8adad8d2a05bd81f0d818a10d16fa760744deca2a939e43faa0dc7d66f90d1c5540a7717c6ef5f8732033d887d6000651466df734c2407c00981f17e1c8690f70f1e1454e2ed35d94da16f5fefb4eb4e348f378db9a1d1eb7a314db2b494aff5784c4efaa13ecc4e5c54550723c45e98089dbbd834f37a061952c7a19bcafb3040b8621a6807e1c2dbc22918b593d4b6232416df77ca9e565c4b2dfdfc441f0f6a54cdc6b958f1b8751b41facaec843789c577ee997d6628382d235750d668fe1510d57b7fec801193fa02c3d6563d8c77b5dc66b46d14077171a7c26e5a4218860f826a243ad8701dd300664fbee49dd8787d5092c72430d6f560a5cb51445f252675925470aac6dde0f4fc1ae9b13e79e21d676de5ee068edc8657ebfb6e515373401d93aadaca9a9e06845fb41043e28de4e2948eb5f6b9a3b8bbf4beae33f82a189d262ce621e8a9f78f86544a3bceb95cb195a31115b06dc848e92da844ca714f75afb86ac61098bb7fcdec1071b434a22186089686d90d32af1e5361e6b5626e27dcf157ee196700e16a40d205ac8fc941cf4a892210e80d399d94dd8e3e7c7bdbbfd84851730e7109b4248dd8fbab5f0d0a1b02bd6e1d712c6aca834349d6192c215762d1f7536edf6d880a085aea63a55a997ee336b9c82d06de40c6085b0526781b91b12bc5eb631e68f79324da297306e48f3196f430945c5534a53003dcca5fd49453599e413c032ac9f3cbdaebeb8b0eee1dd1cdbe16f09c23476def3355baa733b78063f5f3ff195aad154a718cb1d144b93bd157102239132df77acb72f1f32c06ecf80cb871d681b1f01c98f04b100f7427265e746f711862ca625eac5d89d3a35e9deb1668de8e2b9420de9f368b10d1fa710dc0600618c215cfc89646ec47d173fdd95a091487c5a44ea59a169144e3214bf85746f55c25c5cac16a7e24c3e8ce046ee695b1c3f342ac5ab9c8aaddeae74ec56a123a55e2904b32d7ca8f1aecf6b1139c4da83be46fa0fdae2dc948e886dd214136c2ea20bd2d2752dfc28533e4acc273b50771c13d5460a8cd263185122ab8b62c2a215f39a30cd2f89e3886eae201db1e56010d4ec6ec865f528e31cca01289ed381a81133acdedf85fb5759fe4a60692cff556f7890916e11f671167c6e10d0361c4e80391783864aea85082aa312187b5287d86036a5ff51835e3d4ed3f9581b56219431a56326879e100d5d32df06c97e2162ec3bac8ff9d8092d9552888500799972a4e470a730f45dae5be436acdfe6ee73faf2e46777030c51745ae926a647727d46cd15539617ff4fa808ab2b99bda512c8507132e80561109f90a0783611a82f59be1fb4f75052844516d6ea6adb1b6bfc958688099b6caccf001141f2d2f3c3e52535699abaec1c3d0f2f3fafb111d2a38393a64737b8a96a4d9e1e7eff800000000000000000000000000000000000000000000000c14283901fd21050066de97c7df078ea2b8576a85e475987615d9fc1bd4b1a12fa7f92d59f3abd27884eb17f1df3c8e83967f29ddef91dcd6f5497b47c4642d2687ea0090a4972d86041097e5762f5a3d022f97bbbe1be92da9189469494c9413cce58fadcb07c6317509c75a579ac4a0f4083b7896d86c574b443695cf5a05263945900dc44963cf0141f23f75777d6ddf63f11226a58539cfe8e384f2ef0a8e013c9d4c89d72ab37781e2ffcb84ce442b06b36b0fea4a336daf3bbbb66c65b1b7ce4df25f3e67d785434fcdf69759a91912240075356b082ca4c52c2a2ef506122d8730b6d501ed8c5a9ac697053a78d1e62d3a2ac9056c2a6d7caa0e4faa46712589955e649dd9390885ce92cd900ada2998b2ab1822c9515eb3142541bd5dafc3473dece16383906b544db843997269f9a328948c0babd28533d805953991f3543a3e7a88e84a49c454e9f7893cac1eede2992da67a404fac50b81c8bed93c179a27779acc3bf226e76ee85da173c1707cca19c136f89e9b1d0206626e4c0807d86640278e2e8e16b9368372a379c90f70a8733da3cad89cd397f70674f2c80950d0d3b26bc4f65b5645b52286d890b53c70537fd7abe59a2b0bc844f56c95391bf8dfabbf71e6fbe39212fe7da925ccba3ee6bbd979d49ce6edecabd4352774a10e0e6499174964456f12376a3d82580d94c2a7608d4b15a2e8f6c18fa96644eadba9cc6e5f74d73a02d502fa96112fc93699ccb9186614b057968c50aa7ef50f1980cb03b7d5539a27554db09ddeee2350d1a5502098d4bc86e60609aa46b77c3b7c5f4a5e84a48ee945da3b20ba37753c4881b5ff5faec5d2e404aef5d4f135ecf60b96bcf79abc6c1ffa1b89b601689a758215fa563ab738a79de47566c60bcb276d09d251eb64a9d6b48edaca3cf1fd075e8c380474d411bf85ae6e62c07beb4baa117e265d2b3dfa3f5a603e096a7d1291889960b6b5209195e2c93e3bd42274b51b8e72456c5af28bc306f5cf5cc5f120b343bb943951a5d5e1f2b92dcfec95f525b2d90851bfc21aa526952bca14fc6a3570b6ab4f7be55429e21b756710202e3a8a67cf55868251517da74a173b4ff996172f8af266c2c0877fe541dc93679f11ff0157b34c465a2026609dd13d072666267c75e75e475c2bbc9f174142f5d0d8fa70771d3e3052558c9899490d613e0a6fd48fd618f444c3007b888fa3111ab68bcfa9d3d7dc9b40969517adfa8cb48927ef437294893df945d514d7fa8e7d70ea60959d678a73c4960b2953ca038b8998369a1a9930280889ed52d950ab3a9e92e89553dfa93698eb6fee428119a205be75ac9e7f733b418432b568e6ea16d05632b7255f15ea4deb5f86a108027598243ed66f8988561771f7d23a7cab7825be6bc7e88056cc5c4a030a45388b5cdfe49e59706eed5fac571481f01800b90bd606878d9b5b4b78e31f9dd5174d6931758e4a95d7abf5ae5ab5aa17a65507ea19f774ec20a261e5c17cdf96294e65bf33229b86076948a3b2b9fd8b02a53510594659641c604f5dac3726fc03a4c435d15378d6e64dde760b1d67242bdeaada873a9024291d15022ed39846467b1320a3c30675eb365b19d9a96a2f22dd3d2b645361ec75d5ec8f6f82bd6b6676c0494c7d4a7bfade33cdab6f46b7a0951390d17276a05405736fb5f83552d266ff7d86c2594218227ecb6b90e6f8d7d032656257a8413265931fa2e34ee5b657c322f8ed6d152ce90f2fd95c959fa6306f54aaa17556a7a521b10db8d8d7966ef8caa93287c12d15a7e56bb327a4af43b68380fc6bc3cba1a168955beeedf14eae6f9e4ba20c6a9f3d68c0e41e4940f76f9bed768000000",
  "txid": "5c7d9f17bc6a2e34942897022440cd3425575416b3a5d13f590743d6b8bc4eda",
  "hash": "437cae569844af20e21a67d8760140a05d7704c80744bf7fde548fefc4cb42a8",
  "size": 5085,
  "vsize": 2278,
  "version": 1,
  "locktime": 104,
  "vin": [
    {
      "txid": "b165742ccf0788187a5ac7854236a28778db3b1b88e250c968868dd262515e48",
      "vout": 0,
      "scriptSig": {
        "asm": "",
        "hex": ""
      },
      "txinwitness": [
        "fc8ccc3e994da723badae96bbfbc6c9d116e89d51d2891867a095264b5d545d284d18e3f3eaf3f7785c8cb4e349e88942638abb257243f5581a5ff50b230a433acc07df0d1bb09957cfa2df7ac22c88467584a3f6b64dbde3e9aee60275d9a1245d1d0bc49383f839510a01d299508127009a076934a8818f8f29c6da20c2e78ea203566ac65ace589ff5bb65b8e2fa3a30c24c3c70219942d39f40988d15bde4f211b2e7f202c55b0d8494db74d8bb455a0a8df445f5534c78a57ccc23bd6a5f20ac934d35bc81b2c37069a52a9139c353481a19272004a7b617b25d2ca20d05329057ef275ce31d638e756a03dc8c450c01e786df69b553a2c3f723f354cf8b7f184efd5777a3361c13a22c72f46467f8d8dd8b7aa28703561343f346244b4b3639ffefe33a6defbe1ebe2b64f2d7102d17aff9a853aba66a11fa8c154048291f9219f10ffba467f688b1b5fe88d86cc700d65cd0e5a7578243bd74663961f33d9e1324644da156366ac8af848937ec768d23eab8fb36a221472c1e91e67134cc7cfd1f55c7456c6dbe6cd31bd14f1f55523c7f3c8be9cbb9212a81b8cf1224098dad30f0b153d26c738998b07e2795cf6cdbf4e7a6fde97f5357483666691478568d53b88b31af65a4dbd0ea3b013395b39b1ab410383cd17b8e71fc0cd2889c1d2aaf0fa9dc1e1d8866dafa9f96a3bd715e8cee5edb8e704e19321fed4dd7223dd43d208f0de20a63b576672f08e65035e01df2299aacce4d31e5e4ae4efde9f88bf7c83f126a3af3d2004d30b88a9468a398a6ab721b0cb1ffa4198abe2e8523fde57575b42fcf2b3834efdf502759cc2a4d80d78673305be76d911976e6556e2a3aff31ebe2678e977824c28f196a0b0b895c8ce7a723d754cb801c3f9d2f5b7cc402998618c2cb8774ef72753b051e6bfc60311fe534087284e80f1cd17c8af6b6658f2c6ecbb9f63bde66e6232c47c9edb09685bfd8ba97b53818df9b0e099e94a83c0550c4bd8da4b028922e54e0dfdce1e8642ded2c2dd8eac9e86bafedd302d1d7942a31f667be2b82ba148c11d23e642b33ada95dd8d1ddc7200acf0ae32523a9db336965bcf99ffc82d4fb80759d88b901711ed19d22bae3e6971ffff6701944d5cb76a1372baee80fb8115ba412122acd1fb4c83e019ab3e9b45ac8e70f9a27d483e272071ef0355739ed7ce239c1e68e16b42abd34262a55cff31c888e61ed9bc6fb204537e6bcf3de72f4204b92f19dc944a02532fd72614e280c564c8cbb51651ef1e0e6e87bb61e6c68428b1dd9f91e95e8621433f1d6bb065d700783b9316e3762aad241db83f7599ec7cc84272687af084aea1a969cefed6ef92b1afb6d4351d2d3db54a87fba0e9c64ef67d1b18f1a323e3bf0d8d82f51ccdd78a3dec67661210d793db6b0ad9e3b0a221539a560f84a085c64c48f859d7f4d445d8893b2637af83eebf478d2fc0d95c3df5e5ba0c3ceb1b9d723da7ec769159e8a818889617e3fa317a2d90061b022bc5ddefa3a7427da023f425c8dcf8cac501b4df98a4cb98872bbade30b0e31685d59ff87926c4eb90f57803b4b0f8e2dac08b39f5d54b2363adfe855622090e05def7b84b8d1e9a45a10a2b385c07c57ebfc4b115a97238a2e40843b479e55ca2b193901b21298914a98ac5acce27531046e324777d42987a8cabda14dbd6dee8e8e79c4123081881ba6c0d48480de78b0fee463d118030e1fa9ebb1a3015d543451f9c0996620a15e6f0863442d0e8cd144bdbcb8ca665c4bd00b39ff4a3dfeb3b1fe0c945ed8d928ae34262c771f5e5e389b5146198ce97893b55c7fa43df6232a9df7570eafeddc1349b08c8b013156532e55f76ed528b8bbbeea228a33cf25c37a06161d3aefe1b93da7cbe40374faeea50e06ba87c81e5dadbb96df7ccec718eebdfbc9d8adad8d2a05bd81f0d818a10d16fa760744deca2a939e43faa0dc7d66f90d1c5540a7717c6ef5f8732033d887d6000651466df734c2407c00981f17e1c8690f70f1e1454e2ed35d94da16f5fefb4eb4e348f378db9a1d1eb7a314db2b494aff5784c4efaa13ecc4e5c54550723c45e98089dbbd834f37a061952c7a19bcafb3040b8621a6807e1c2dbc22918b593d4b6232416df77ca9e565c4b2dfdfc441f0f6a54cdc6b958f1b8751b41facaec843789c577ee997d6628382d235750d668fe1510d57b7fec801193fa02c3d6563d8c77b5dc66b46d14077171a7c26e5a4218860f826a243ad8701dd300664fbee49dd8787d5092c72430d6f560a5cb51445f252675925470aac6dde0f4fc1ae9b13e79e21d676de5ee068edc8657ebfb6e515373401d93aadaca9a9e06845fb41043e28de4e2948eb5f6b9a3b8bbf4beae33f82a189d262ce621e8a9f78f86544a3bceb95cb195a31115b06dc848e92da844ca714f75afb86ac61098bb7fcdec1071b434a22186089686d90d32af1e5361e6b5626e27dcf157ee196700e16a40d205ac8fc941cf4a892210e80d399d94dd8e3e7c7bdbbfd84851730e7109b4248dd8fbab5f0d0a1b02bd6e1d712c6aca834349d6192c215762d1f7536edf6d880a085aea63a55a997ee336b9c82d06de40c6085b0526781b91b12bc5eb631e68f79324da297306e48f3196f430945c5534a53003dcca5fd49453599e413c032ac9f3cbdaebeb8b0eee1dd1cdbe16f09c23476def3355baa733b78063f5f3ff195aad154a718cb1d144b93bd157102239132df77acb72f1f32c06ecf80cb871d681b1f01c98f04b100f7427265e746f711862ca625eac5d89d3a35e9deb1668de8e2b9420de9f368b10d1fa710dc0600618c215cfc89646ec47d173fdd95a091487c5a44ea59a169144e3214bf85746f55c25c5cac16a7e24c3e8ce046ee695b1c3f342ac5ab9c8aaddeae74ec56a123a55e2904b32d7ca8f1aecf6b1139c4da83be46fa0fdae2dc948e886dd214136c2ea20bd2d2752dfc28533e4acc273b50771c13d5460a8cd263185122ab8b62c2a215f39a30cd2f89e3886eae201db1e56010d4ec6ec865f528e31cca01289ed381a81133acdedf85fb5759fe4a60692cff556f7890916e11f671167c6e10d0361c4e80391783864aea85082aa312187b5287d86036a5ff51835e3d4ed3f9581b56219431a56326879e100d5d32df06c97e2162ec3bac8ff9d8092d9552888500799972a4e470a730f45dae5be436acdfe6ee73faf2e46777030c51745ae926a647727d46cd15539617ff4fa808ab2b99bda512c8507132e80561109f90a0783611a82f59be1fb4f75052844516d6ea6adb1b6bfc958688099b6caccf001141f2d2f3c3e52535699abaec1c3d0f2f3fafb111d2a38393a64737b8a96a4d9e1e7eff800000000000000000000000000000000000000000000000c14283901",
        "0066de97c7df078ea2b8576a85e475987615d9fc1bd4b1a12fa7f92d59f3abd27884eb17f1df3c8e83967f29ddef91dcd6f5497b47c4642d2687ea0090a4972d86041097e5762f5a3d022f97bbbe1be92da9189469494c9413cce58fadcb07c6317509c75a579ac4a0f4083b7896d86c574b443695cf5a05263945900dc44963cf0141f23f75777d6ddf63f11226a58539cfe8e384f2ef0a8e013c9d4c89d72ab37781e2ffcb84ce442b06b36b0fea4a336daf3bbbb66c65b1b7ce4df25f3e67d785434fcdf69759a91912240075356b082ca4c52c2a2ef506122d8730b6d501ed8c5a9ac697053a78d1e62d3a2ac9056c2a6d7caa0e4faa46712589955e649dd9390885ce92cd900ada2998b2ab1822c9515eb3142541bd5dafc3473dece16383906b544db843997269f9a328948c0babd28533d805953991f3543a3e7a88e84a49c454e9f7893cac1eede2992da67a404fac50b81c8bed93c179a27779acc3bf226e76ee85da173c1707cca19c136f89e9b1d0206626e4c0807d86640278e2e8e16b9368372a379c90f70a8733da3cad89cd397f70674f2c80950d0d3b26bc4f65b5645b52286d890b53c70537fd7abe59a2b0bc844f56c95391bf8dfabbf71e6fbe39212fe7da925ccba3ee6bbd979d49ce6edecabd4352774a10e0e6499174964456f12376a3d82580d94c2a7608d4b15a2e8f6c18fa96644eadba9cc6e5f74d73a02d502fa96112fc93699ccb9186614b057968c50aa7ef50f1980cb03b7d5539a27554db09ddeee2350d1a5502098d4bc86e60609aa46b77c3b7c5f4a5e84a48ee945da3b20ba37753c4881b5ff5faec5d2e404aef5d4f135ecf60b96bcf79abc6c1ffa1b89b601689a758215fa563ab738a79de47566c60bcb276d09d251eb64a9d6b48edaca3cf1fd075e8c380474d411bf85ae6e62c07beb4baa117e265d2b3dfa3f5a603e096a7d1291889960b6b5209195e2c93e3bd42274b51b8e72456c5af28bc306f5cf5cc5f120b343bb943951a5d5e1f2b92dcfec95f525b2d90851bfc21aa526952bca14fc6a3570b6ab4f7be55429e21b756710202e3a8a67cf55868251517da74a173b4ff996172f8af266c2c0877fe541dc93679f11ff0157b34c465a2026609dd13d072666267c75e75e475c2bbc9f174142f5d0d8fa70771d3e3052558c9899490d613e0a6fd48fd618f444c3007b888fa3111ab68bcfa9d3d7dc9b40969517adfa8cb48927ef437294893df945d514d7fa8e7d70ea60959d678a73c4960b2953ca038b8998369a1a9930280889ed52d950ab3a9e92e89553dfa93698eb6fee428119a205be75ac9e7f733b418432b568e6ea16d05632b7255f15ea4deb5f86a108027598243ed66f8988561771f7d23a7cab7825be6bc7e88056cc5c4a030a45388b5cdfe49e59706eed5fac571481f01800b90bd606878d9b5b4b78e31f9dd5174d6931758e4a95d7abf5ae5ab5aa17a65507ea19f774ec20a261e5c17cdf96294e65bf33229b86076948a3b2b9fd8b02a53510594659641c604f5dac3726fc03a4c435d15378d6e64dde760b1d67242bdeaada873a9024291d15022ed39846467b1320a3c30675eb365b19d9a96a2f22dd3d2b645361ec75d5ec8f6f82bd6b6676c0494c7d4a7bfade33cdab6f46b7a0951390d17276a05405736fb5f83552d266ff7d86c2594218227ecb6b90e6f8d7d032656257a8413265931fa2e34ee5b657c322f8ed6d152ce90f2fd95c959fa6306f54aaa17556a7a521b10db8d8d7966ef8caa93287c12d15a7e56bb327a4af43b68380fc6bc3cba1a168955beeedf14eae6f9e4ba20c6a9f3d68c0e41e4940f76f9bed7"
      ],
      "sequence": 4294967294
    }
  ],
  "vout": [
    {
      "value": 499993.8986,
      "n": 0,
      "scriptPubKey": {
        "asm": "1 c76fe68ff6515ffaa783c247a6f7996377f83bd514794d7d22462d8b5adc8ac7",
        "hex": "5120c76fe68ff6515ffaa783c247a6f7996377f83bd514794d7d22462d8b5adc8ac7",
        "reqSigs": 1,
        "type": "witness_v1_scripthash",
        "addresses": [
          "3QJmnh"
        ]
      }
    },
    {
      "value": 1.0,
      "n": 1,
      "scriptPubKey": {
        "asm": "OP_RETURN bf951db8ea4605be60da4d1e181c72d8154dd2bfd91b491fcb93ecb3f68ff1e5 92384927e00c6a162de65205105f9639098c3a86c8ab0c48db55095c2790ee77b2186907c02c4a360dc67225307fb61929ac1aa6e88b2c68fb75297c07b0ce57d2780967a04c2a566da61245501fd67949cc7ac688eb4c089b15491c67d0ae37f2582947806c0a764d863265703ff65969ec5ae6a8cb6c28bb35693c47f08e1712b8c9a7608cea96ad66d28590df16b9890cba06482b8cc85bd589dca7106ef73298e98740accab68d46f2a5b0ff3699a92c9a26680bace87bf5a9fc87304ed752f889e720ccaad6ed2692c5d09f56f9c94cfa46086bcc881b95c99ce7502eb772d8a9c700ec8af6cd06b2e5f0bf76d9e96cda66284beca83bb5e9bcc7700e9792384927e00c6a162de65205105f9639098c3a86c8ab0c48db55095c2790ee77b2186907c02c4a360dc67225307fb61929ac1aa6e88b2c68fb75297c07b0ce57d2780967a04c2a566da61245501fd67949cc7ac688eb4c089b15491c67d0ae37f2582947806c0a764d863265703ff65969ec5ae6a8cb6c28bb35693c47f08e1712b8c9a7608cea96ad66d28590df16b9890cba06482b8cc85bd589dca7106ef73298e98740accab68d46f2a5b0ff3699a92c9a26680bace87bf5a9fc87304ed752f889e720ccaad6ed2692c5d09f56f9c94cfa46086bcc881b95c99ce7502eb772d8a9c700ec8af6cd06b2e5f0bf76d9e96cda66284beca83bb5e9bcc7700e9792384927e00c6a162de65205105f9639098c3a86c8ab0c48db55095c2790ee77b2186907c02c4a360dc67225307fb61929ac1aa6e88b2c68fb75297c07b0ce57d2780967a04c2a566da61245501fd67949cc7ac688eb4c089b15491c67d0ae37f2582947806c0a764d863265703ff65969ec5ae6a8cb6c28bb35693c47f08e1712b8c9a7608cea96ad66d28590df16b9890cba06482b8cc85bd589dca7106ef73298e98740accab68d46f2a5b0ff3699a92c9a26680bace87bf5a9fc87304ed752f889e720ccaad6ed2692c5d09f56f9c94cfa46086bcc881b95c99ce7502eb772d8a9c700ec8af6cd06b2e5f0bf76d9e96cda66284beca83bb5e9bcc7700e9792384927e00c6a162de65205105f9639098c3a86c8ab0c48db55095c2790ee77b2186907c02c4a360dc67225307fb61929ac1aa6e88b2c68fb75297c07b0ce57d2780967a04c2a566da61245501fd67949cc7ac688eb4c089b15491c67d0ae37f2582947806c0a764d863265703ff65969ec5ae6a8cb6c28bb35693c47f08e1712b8c9a7608cea96ad66d28590df16b9890cba06482b8cc85bd589dca7106ef73298e98740accab68d46f2a5b0ff3699a92c9a26680bace87bf5a9fc87304ed752f889e720ccaad6ed2692c5d09f56f9c94cfa46086bcc881b95c99ce7502eb772d8a9c700ec8af6cd06b2e5f0bf76d9e96cda66284beca83bb5e9bcc7700e9792384927e00c6a162de65205105f9639098c3a86c8ab0c48db55095c2790ee77b2186907c02c4a360dc67225307fb61929ac1aa6e88b2c68fb75297c07b0ce57d2780967a04c2a566da61245501fd67949cc7ac688eb4c089b15491c67d0ae37f2582947806c0a764d863265703ff65969ec5ae6a8cb6c28bb35693c47f08e1712b8c9a7608cea96ad66d28590df16b96bb142804013a97a462a01d3331cd0710cc0e6adb9f170ab994f6cbfe7b4351b",
        "hex": "6a20bf951db8ea4605be60da4d1e181c72d8154dd2bfd91b491fcb93ecb3f68ff1e54db00492384927e00c6a162de65205105f9639098c3a86c8ab0c48db55095c2790ee77b2186907c02c4a360dc67225307fb61929ac1aa6e88b2c68fb75297c07b0ce57d2780967a04c2a566da61245501fd67949cc7ac688eb4c089b15491c67d0ae37f2582947806c0a764d863265703ff65969ec5ae6a8cb6c28bb35693c47f08e1712b8c9a7608cea96ad66d28590df16b9890cba06482b8cc85bd589dca7106ef73298e98740accab68d46f2a5b0ff3699a92c9a26680bace87bf5a9fc87304ed752f889e720ccaad6ed2692c5d09f56f9c94cfa46086bcc881b95c99ce7502eb772d8a9c700ec8af6cd06b2e5f0bf76d9e96cda66284beca83bb5e9bcc7700e9792384927e00c6a162de65205105f9639098c3a86c8ab0c48db55095c2790ee77b2186907c02c4a360dc67225307fb61929ac1aa6e88b2c68fb75297c07b0ce57d2780967a04c2a566da61245501fd67949cc7ac688eb4c089b15491c67d0ae37f2582947806c0a764d863265703ff65969ec5ae6a8cb6c28bb35693c47f08e1712b8c9a7608cea96ad66d28590df16b9890cba06482b8cc85bd589dca7106ef73298e98740accab68d46f2a5b0ff3699a92c9a26680bace87bf5a9fc87304ed752f889e720ccaad6ed2692c5d09f56f9c94cfa46086bcc881b95c99ce7502eb772d8a9c700ec8af6cd06b2e5f0bf76d9e96cda66284beca83bb5e9bcc7700e9792384927e00c6a162de65205105f9639098c3a86c8ab0c48db55095c2790ee77b2186907c02c4a360dc67225307fb61929ac1aa6e88b2c68fb75297c07b0ce57d2780967a04c2a566da61245501fd67949cc7ac688eb4c089b15491c67d0ae37f2582947806c0a764d863265703ff65969ec5ae6a8cb6c28bb35693c47f08e1712b8c9a7608cea96ad66d28590df16b9890cba06482b8cc85bd589dca7106ef73298e98740accab68d46f2a5b0ff3699a92c9a26680bace87bf5a9fc87304ed752f889e720ccaad6ed2692c5d09f56f9c94cfa46086bcc881b95c99ce7502eb772d8a9c700ec8af6cd06b2e5f0bf76d9e96cda66284beca83bb5e9bcc7700e9792384927e00c6a162de65205105f9639098c3a86c8ab0c48db55095c2790ee77b2186907c02c4a360dc67225307fb61929ac1aa6e88b2c68fb75297c07b0ce57d2780967a04c2a566da61245501fd67949cc7ac688eb4c089b15491c67d0ae37f2582947806c0a764d863265703ff65969ec5ae6a8cb6c28bb35693c47f08e1712b8c9a7608cea96ad66d28590df16b9890cba06482b8cc85bd589dca7106ef73298e98740accab68d46f2a5b0ff3699a92c9a26680bace87bf5a9fc87304ed752f889e720ccaad6ed2692c5d09f56f9c94cfa46086bcc881b95c99ce7502eb772d8a9c700ec8af6cd06b2e5f0bf76d9e96cda66284beca83bb5e9bcc7700e9792384927e00c6a162de65205105f9639098c3a86c8ab0c48db55095c2790ee77b2186907c02c4a360dc67225307fb61929ac1aa6e88b2c68fb75297c07b0ce57d2780967a04c2a566da61245501fd67949cc7ac688eb4c089b15491c67d0ae37f2582947806c0a764d863265703ff65969ec5ae6a8cb6c28bb35693c47f08e1712b8c9a7608cea96ad66d28590df16b96bb142804013a97a462a01d3331cd0710cc0e6adb9f170ab994f6cbfe7b4351b",
        "type": "nulldata"
      }
    }
  ],
  "blockhash": "32a2d379a33ec88ae1cb3a8a1a44f2d12b76aebf574ecf7ac16b289397ed6cd9",
  "confirmations": 1,
  "time": 1764176557,
  "blocktime": 1764176557
}